# 17760343 - Pyo Nzon

## Common Data

| Field            | Value                   |
|------------------|-------------------------|
| Zone             | Port Windurst (ID: 240) |
| Block Size       | 2504 bytes              |
| Total Events     | 97                      |
| References Count | 133                     |

## List of Events

| Event ID                   | Entrypoint   |   Size |   Instructions |
|----------------------------|--------------|--------|----------------|
| [65535](#event-65535)      | 0x0000       |      1 |              1 |
| [65535.1](#event-655351)   | 0x0001       |     16 |              2 |
| [65535.2](#event-655352)   | 0x0011       |     22 |              4 |
| [65535.3](#event-655353)   | 0x0027       |     28 |              4 |
| [65535.4](#event-655354)   | 0x0043       |     26 |              4 |
| [65535.5](#event-655355)   | 0x005D       |     31 |              5 |
| [65535.6](#event-655356)   | 0x007C       |     53 |              7 |
| [65535.7](#event-655357)   | 0x00B1       |     28 |              4 |
| [65535.8](#event-655358)   | 0x00CD       |     26 |              4 |
| [65535.9](#event-655359)   | 0x00E7       |     28 |              4 |
| [65535.10](#event-6553510) | 0x0103       |     28 |              5 |
| [65535.11](#event-6553511) | 0x011F       |      9 |              3 |
| [65535.12](#event-6553512) | 0x0128       |     80 |             10 |
| [65535.13](#event-6553513) | 0x0178       |     16 |              2 |
| [65535.14](#event-6553514) | 0x0188       |     22 |              4 |
| [65535.15](#event-6553515) | 0x019E       |     28 |              4 |
| [65535.16](#event-6553516) | 0x01BA       |     14 |              2 |
| [65535.17](#event-6553517) | 0x01C8       |     16 |              2 |
| [65535.18](#event-6553518) | 0x01D8       |     26 |              4 |
| [366](#event-366)          | 0x01F2       |     29 |             10 |
| [368](#event-368)          | 0x020F       |      1 |              1 |
| [65535.19](#event-6553519) | 0x0210       |     10 |              2 |
| [65535.20](#event-6553520) | 0x021A       |      5 |              3 |
| [65535.21](#event-6553521) | 0x021F       |     21 |              6 |
| [375](#event-375)          | 0x0234       |     33 |             12 |
| [382](#event-382)          | 0x0255       |     33 |             12 |
| [378](#event-378)          | 0x0276       |      1 |              1 |
| [391](#event-391)          | 0x0277       |      1 |              1 |
| [386](#event-386)          | 0x0278       |      1 |              1 |
| [390](#event-390)          | 0x0279       |      1 |              1 |
| [65535.22](#event-6553522) | 0x027A       |     19 |              5 |
| [396](#event-396)          | 0x028D       |     33 |             12 |
| [65535.23](#event-6553523) | 0x02AE       |     19 |              5 |
| [400](#event-400)          | 0x02C1       |      1 |              1 |
| [65535.24](#event-6553524) | 0x02C2       |     15 |              5 |
| [408](#event-408)          | 0x02D1       |     29 |             10 |
| [409](#event-409)          | 0x02EE       |     33 |             12 |
| [413](#event-413)          | 0x030F       |      1 |              1 |
| [418](#event-418)          | 0x0310       |     33 |             12 |
| [421](#event-421)          | 0x0331       |      1 |              1 |
| [426](#event-426)          | 0x0332       |     33 |             12 |
| [430](#event-430)          | 0x0353       |      1 |              1 |
| [432](#event-432)          | 0x0354       |      1 |              1 |
| [433](#event-433)          | 0x0355       |      1 |              1 |
| [436](#event-436)          | 0x0356       |     33 |             12 |
| [443](#event-443)          | 0x0377       |     33 |             12 |
| [324](#event-324)          | 0x0398       |      1 |              1 |
| [65535.25](#event-6553525) | 0x0399       |     30 |              8 |
| [65535.26](#event-6553526) | 0x03B7       |     18 |              6 |
| [65535.27](#event-6553527) | 0x03C9       |     24 |              8 |
| [65535.28](#event-6553528) | 0x03E1       |     15 |              5 |
| [65535.29](#event-6553529) | 0x03F0       |     25 |              5 |
| [65535.30](#event-6553530) | 0x0409       |      5 |              3 |
| [65535.31](#event-6553531) | 0x040E       |     10 |              2 |
| [65535.32](#event-6553532) | 0x0418       |     10 |              2 |
| [65535.33](#event-6553533) | 0x0422       |     24 |              6 |
| [65535.34](#event-6553534) | 0x043A       |      5 |              3 |
| [65535.35](#event-6553535) | 0x043F       |     19 |              5 |
| [65535.36](#event-6553536) | 0x0452       |     27 |              7 |
| [65535.37](#event-6553537) | 0x046D       |     41 |             10 |
| [65535.38](#event-6553538) | 0x0496       |      5 |              3 |
| [323](#event-323)          | 0x049B       |      1 |              1 |
| [65535.39](#event-6553539) | 0x049C       |     10 |              2 |
| [65535.40](#event-6553540) | 0x04A6       |     43 |              9 |
| [65535.41](#event-6553541) | 0x04D1       |     18 |              6 |
| [65535.42](#event-6553542) | 0x04E3       |     15 |              5 |
| [65535.43](#event-6553543) | 0x04F2       |     10 |              2 |
| [65535.44](#event-6553544) | 0x04FC       |     27 |              8 |
| [65535.45](#event-6553545) | 0x0517       |      5 |              3 |
| [65535.46](#event-6553546) | 0x051C       |      5 |              3 |
| [496](#event-496)          | 0x0521       |      1 |              1 |
| [65535.47](#event-6553547) | 0x0522       |      9 |              5 |
| [497](#event-497)          | 0x052B       |      1 |              1 |
| [65535.48](#event-6553548) | 0x052C       |     10 |              2 |
| [65535.49](#event-6553549) | 0x0536       |      5 |              3 |
| [502](#event-502)          | 0x053B       |     33 |             12 |
| [510](#event-510)          | 0x055C       |     33 |             12 |
| [513](#event-513)          | 0x057D       |      1 |              1 |
| [65535.50](#event-6553550) | 0x057E       |      5 |              3 |
| [65535.51](#event-6553551) | 0x0583       |      5 |              3 |
| [517](#event-517)          | 0x0588       |     33 |             12 |
| [522](#event-522)          | 0x05A9       |      1 |              1 |
| [527](#event-527)          | 0x05AA       |     33 |             12 |
| [532](#event-532)          | 0x05CB       |      1 |              1 |
| [534](#event-534)          | 0x05CC       |      1 |              1 |
| [539](#event-539)          | 0x05CD       |     29 |             10 |
| [542](#event-542)          | 0x05EA       |      1 |              1 |
| [589](#event-589)          | 0x05EB       |     33 |             12 |
| [584](#event-584)          | 0x060C       |      1 |              1 |
| [65535.52](#event-6553552) | 0x060D       |     10 |              2 |
| [915](#event-915)          | 0x0617       |      1 |              1 |
| [916](#event-916)          | 0x0618       |      1 |              1 |
| [924](#event-924)          | 0x0619       |      1 |              1 |
| [922](#event-922)          | 0x061A       |      1 |              1 |
| [925](#event-925)          | 0x061B       |      1 |              1 |
| [931](#event-931)          | 0x061C       |      1 |              1 |
| [933](#event-933)          | 0x061D       |      1 |              1 |

## DAT References (imed_data)

|   Index | Hex Value   |   Dec Value |
|---------|-------------|-------------|
|       0 | 0x0050      |          80 |
|       1 | 0x001E      |          30 |
|       2 | 0x0051      |          81 |
|       3 | 0x0014      |          20 |
|       4 | 0x0504      |        1284 |
|       5 | 0x1045      |        4165 |
|       6 | 0xFFFF9885  |  4294940805 |
|       7 | 0x2EEF4     |      192244 |
|       8 | 0xFFFFE891  |  4294961297 |
|       9 | 0x0FBF      |        4031 |
|      10 | 0x1052      |        4178 |
|      11 | 0x105C      |        4188 |
|      12 | 0x106F      |        4207 |
|      13 | 0x1070      |        4208 |
|      14 | 0x1084      |        4228 |
|      15 | 0x1085      |        4229 |
|      16 | 0x10A4      |        4260 |
|      17 | 0x10B5      |        4277 |
|      18 | 0x10B6      |        4278 |
|      19 | 0x10C2      |        4290 |
|      20 | 0x000D      |          13 |
|      21 | 0xFFFF9E50  |  4294942288 |
|      22 | 0x2F074     |      192628 |
|      23 | 0x10D1      |        4305 |
|      24 | 0x10D2      |        4306 |
|      25 | 0x10D3      |        4307 |
|      26 | 0x10EB      |        4331 |
|      27 | 0x10EC      |        4332 |
|      28 | 0x1101      |        4353 |
|      29 | 0x1102      |        4354 |
|      30 | 0x111C      |        4380 |
|      31 | 0x111D      |        4381 |
|      32 | 0x1129      |        4393 |
|      33 | 0x112A      |        4394 |
|      34 | 0xFFFF9A7F  |  4294941311 |
|      35 | 0x40955     |      264533 |
|      36 | 0xFFFFCCA3  |  4294954147 |
|      37 | 0x0CFF      |        3327 |
|      38 | 0x0028      |          40 |
|      39 | 0xFFFF9D6F  |  4294942063 |
|      40 | 0x415D4     |      267732 |
|      41 | 0xFFFFD120  |  4294955296 |
|      42 | 0x0DEB      |        3563 |
|      43 | 0xFFFF9A12  |  4294941202 |
|      44 | 0x41770     |      268144 |
|      45 | 0x0F66      |        3942 |
|      46 | 0x0400      |        1024 |
|      47 | 0x003C      |          60 |
|      48 | 0xFFFF9AB2  |  4294941362 |
|      49 | 0x40CCC     |      265420 |
|      50 | 0xFFFFCE10  |  4294954512 |
|      51 | 0x0390      |         912 |
|      52 | 0xFFFF9B2B  |  4294941483 |
|      53 | 0x41C0B     |      269323 |
|      54 | 0x0032      |          50 |
|      55 | 0x0FAA      |        4010 |
|      56 | 0xFFFF96A0  |  4294940320 |
|      57 | 0x44B17     |      281367 |
|      58 | 0xFFFFCD39  |  4294954297 |
|      59 | 0x0B61      |        2913 |
|      60 | 0xFFFF7DE5  |  4294933989 |
|      61 | 0x44792     |      280466 |
|      62 | 0xFFFFCD38  |  4294954296 |
|      63 | 0x0A7F      |        2687 |
|      64 | 0xFFFF9FE0  |  4294942688 |
|      65 | 0x4428C     |      279180 |
|      66 | 0x0FAE      |        4014 |
|      67 | 0x0FB7      |        4023 |
|      68 | 0x00B4      |         180 |
|      69 | 0xFFFF9CA2  |  4294941858 |
|      70 | 0x3FAA0     |      260768 |
|      71 | 0x03FA      |        1018 |
|      72 | 0xFFFF9DB0  |  4294942128 |
|      73 | 0x3DC3A     |      252986 |
|      74 | 0xFFFFCFE9  |  4294954985 |
|      75 | 0xFFFF7212  |  4294930962 |
|      76 | 0x3B519     |      242969 |
|      77 | 0xFFFFCF2D  |  4294954797 |
|      78 | 0x0FD5      |        4053 |
|      79 | 0xFFFF96C7  |  4294940359 |
|      80 | 0x40490     |      263312 |
|      81 | 0xFFFFB9B1  |  4294949297 |
|      82 | 0x061F      |        1567 |
|      83 | 0xFFFF8330  |  4294935344 |
|      84 | 0x3C010     |      245776 |
|      85 | 0xFFFFCF7A  |  4294954874 |
|      86 | 0x0D00      |        3328 |
|      87 | 0xFFFF8F86  |  4294938502 |
|      88 | 0x3CB94     |      248724 |
|      89 | 0xFFFFD007  |  4294955015 |
|      90 | 0xFFFF9CDF  |  4294941919 |
|      91 | 0x3E4CC     |      255180 |
|      92 | 0xFFFFCF72  |  4294954866 |
|      93 | 0xFFFF9603  |  4294940163 |
|      94 | 0x40C28     |      265256 |
|      95 | 0xFFFFB9B0  |  4294949296 |
|      96 | 0x0449      |        1097 |
|      97 | 0xFFFFB33D  |  4294947645 |
|      98 | 0x42C50     |      273488 |
|      99 | 0xFFFFBBA4  |  4294949796 |
|     100 | 0xFFFF96BB  |  4294940347 |
|     101 | 0x3EA5E     |      256606 |
|     102 | 0xFFFFCEF8  |  4294954744 |
|     103 | 0x0D9D      |        3485 |
|     104 | 0xFFFF8BE7  |  4294937575 |
|     105 | 0x3D92F     |      252207 |
|     106 | 0xFFFFD01A  |  4294955034 |
|     107 | 0xFFFF6F78  |  4294930296 |
|     108 | 0x3BD69     |      245097 |
|     109 | 0x0F7D      |        3965 |
|     110 | 0x0F87      |        3975 |
|     111 | 0x3084      |       12420 |
|     112 | 0x3085      |       12421 |
|     113 | 0xFFFFAB7A  |  4294945658 |
|     114 | 0x2E342     |      189250 |
|     115 | 0x0A85      |        2693 |
|     116 | 0x309D      |       12445 |
|     117 | 0x3091      |       12433 |
|     118 | 0x3092      |       12434 |
|     119 | 0x30B4      |       12468 |
|     120 | 0x30B5      |       12469 |
|     121 | 0x30BF      |       12479 |
|     122 | 0x30C5      |       12485 |
|     123 | 0x30D6      |       12502 |
|     124 | 0x30D7      |       12503 |
|     125 | 0x3103      |       12547 |
|     126 | 0x3104      |       12548 |
|     127 | 0x3110      |       12560 |
|     128 | 0x31AB      |       12715 |
|     129 | 0x31AC      |       12716 |
|     130 | 0xFFFF9D70  |  4294942064 |
|     131 | 0x2E929     |      190761 |
|     132 | 0x05CD      |        1485 |

## String References

- **3965**: Shhh...! Everyone quiet! She's coming!
- **3975**: Herrre we go again!
- **4010**: Grrr... We've been shut in!
- **4014**: Did she say "g-ghost"!?
- **4023**: Don't scarrre us like that!
- **4053**: But it was still frightening enough! I swearrr my tail has shrrrunk an ilm!
- **4165**: What's the furrrst rule?
- **4178**: Yeah, we'rrre prrretty invincy-bull!
- **4188**: (But, hey, grrrown-ups have lots of money. If we let grrrown-ups join our grrroup, they could buy us lots of trrreats!)
- **4207**: I wonderrr what Pichichi's motherrr wants a tail forrr?
- **4208**: Purrrhaps she wished she had been born a Mithra? I feel sorry forrr herrr having been borrrn a Tarutaru instead!
- **4228**: So you've become a memberrr of the Starrr Onion Brigade, huh?
- **4229**: But is it all rrright for an adult like you to be in alliance with childrrren? Won't that put you in bad standing with otherrr grrrown-ups?
- **4260**: Grrreat leaderrr! What kind of trrrap shall we lay for herrr this time?
- **4277**: Grrrowl... I don't need no weapons!
- **4278**: My claws and teeth arrre my weapons! Cat Burrrglar! Hearrr my roarrr!
- **4290**: Let us have a closerrr look!
- **4305**: The Cat Burrrglar got away again! Eeew, I'm so frrrustrrrated!
- **4306**: The Cat Burglarrr got away again! Eeew, I'm so frrrustrrrated!
- **4307**: But I bet she's looking high and low forrr herrr prrrecious Mana Orrrb! Hee-hee-hee... Rrrevenge is so sweet!
- **4331**: We'll be needing a lamp if we arrre going into darrrk places!
- **4332**: Not that my Mithra eyes arrre bad or anything... Just that it'll hopefully scarrre away them ghosties!
- **4353**: What was it you brrrought with you?
- **4354**: I wonderrr whetherrr it will be morrre useful than my lamp for scarrring away ghosties? Brrr...
- **4380**: The Cat Burrrglar's in the bag...I guess you could say.
- **4381**: We'll teach herrr not to give us Mithra a bad name!
- **4393**: That Carrrdian is top secrrret!
- **4394**: Perrhaps he was teased by grrrown-ups so much that he hid in that house and fell asleep... Well that's what I think!
- **12420**: That's rrright. Even if we wanted to, we couldn't give it back.
- **12421**: But that old fuddy-duddy won't listen to a word we say!
- **12433**: If he's got all that money, then he doesn't need the Mana Orb!
- **12434**: Only Cardians rrreally need Mana Orbs! Wait, does that mean the old guy is actually a Cardian?
- **12445**: That's no good. We should say it fell into the ocean!
- **12468**: If we come acrrross Joker, we can't tell him any of this.
- **12469**: It would be such a shock for him. If it was me, I'd be crrrying into my milk...
- **12479**: Who knows what he'll do! How can we stop him?
- **12485**: You're rrright. If we can't fool the gatehouse guards, Joker will be caught before we can get anywhere!
- **12502**: We're not gonna let anyone hurrrt our Joker!
- **12503**: Joker is a member of the Star Onion Brigade! No matter the danger, we don't abandon our frrriends!
- **12547**: Was Joker rrreally friends with those bad Cardians? He didn't seem like a bad Cardian at all.
- **12548**: Did he go with those Cardians even though he didn't want to? If that's the case, we have to go rrrescue him!
- **12560**: My head is still spinning. I want to talk about what happened, but I don't even know where to starrrt.
- **12715**: All those twinkling stars! It was so prrretty!
- **12716**: Joker's become a grrrand wizard! Or maybe a grrrand wizard had been turrrned into Joker?

## Events

### Event 65535

#### Metadata

| Field        | Value   |
|--------------|---------|
| Entrypoint   | 0x0000  |
| Data Size    | 1 bytes |
| Instructions | 1       |

```
      00 01 02 03 04 05 06 07  08 09 0A 0B 0C 0D 0E 0F
      -- -- -- -- -- -- -- --  -- -- -- -- -- -- -- --
0000: 00                                                .               
```

#### Opcodes

```
  0: 0x0000 [0x00] END_REQSTACK()
```

### Event 65535.1

#### Metadata

| Field        | Value    |
|--------------|----------|
| Entrypoint   | 0x0001   |
| Data Size    | 16 bytes |
| Instructions | 2        |

```
      00 01 02 03 04 05 06 07  08 09 0A 0B 0C 0D 0E 0F
      -- -- -- -- -- -- -- --  -- -- -- -- -- -- -- --
0000:    5B 00 80 F8 FF FF 7F  F8 FF FF 7F 74 6C 6B 30   [..........tlk0
0010: 00                                                .               
```

#### Opcodes

```
  0: 0x0001 [0x5B] LOAD_EXT_SCHEDULER: Load scheduler "tlk0" with entities [EventEntity, EventEntity], work=80*
  1: 0x0010 [0x00] END_REQSTACK()
```

### Event 65535.2

#### Metadata

| Field        | Value    |
|--------------|----------|
| Entrypoint   | 0x0011   |
| Data Size    | 22 bytes |
| Instructions | 4        |

```
      00 01 02 03 04 05 06 07  08 09 0A 0B 0C 0D 0E 0F
      -- -- -- -- -- -- -- --  -- -- -- -- -- -- -- --
0010:    53 F8 FF FF 7F F8 FF  FF 7F 74 6C 6B 30 5E 69   S........tlk0^i
0020: 64 6C 30 1C 01 80 00                              dl0....         
```

#### Opcodes

```
  0: 0x0011 [0x53] WAIT_SCHEDULER_TASK: Wait for scheduler "tlk0" with entities [EventEntity, EventEntity]
  1: 0x001E [0x5E] EventEntity goes idle (kills current action) (animation: "idl0")
  2: 0x0023 [0x1C] WAIT(30* ticks)
  3: 0x0026 [0x00] END_REQSTACK()
```

### Event 65535.3

#### Metadata

| Field        | Value    |
|--------------|----------|
| Entrypoint   | 0x0027   |
| Data Size    | 28 bytes |
| Instructions | 4        |

```
      00 01 02 03 04 05 06 07  08 09 0A 0B 0C 0D 0E 0F
      -- -- -- -- -- -- -- --  -- -- -- -- -- -- -- --
0020:                      7C  00 F8 FF FF 7F 81 00 F8         |........
0030: FF FF 7F 5B 02 80 F8 FF  FF 7F F8 FF FF 7F 68 61  ...[..........ha
0040: 69 30 00                                          i0.             
```

#### Opcodes

```
  0: 0x0027 [0x7C] EventEntity->Render.Flags2 |= 0x00
  1: 0x002D [0x81] SET_ENTITY_BLINKING(blink_flag=0x00, entity=EventEntity)
  2: 0x0033 [0x5B] LOAD_EXT_SCHEDULER: Load scheduler "hai0" with entities [EventEntity, EventEntity], work=81*
  3: 0x0042 [0x00] END_REQSTACK()
```

### Event 65535.4

#### Metadata

| Field        | Value    |
|--------------|----------|
| Entrypoint   | 0x0043   |
| Data Size    | 26 bytes |
| Instructions | 4        |

```
      00 01 02 03 04 05 06 07  08 09 0A 0B 0C 0D 0E 0F
      -- -- -- -- -- -- -- --  -- -- -- -- -- -- -- --
0040:          53 F8 FF FF 7F  F8 FF FF 7F 68 61 69 30     S........hai0
0050: 7C 01 F8 FF FF 7F 81 01  F8 FF FF 7F 00           |............   
```

#### Opcodes

```
  0: 0x0043 [0x53] WAIT_SCHEDULER_TASK: Wait for scheduler "hai0" with entities [EventEntity, EventEntity]
  1: 0x0050 [0x7C] EventEntity->Render.Flags2 |= 0x01
  2: 0x0056 [0x81] SET_ENTITY_BLINKING(blink_flag=0x01, entity=EventEntity)
  3: 0x005C [0x00] END_REQSTACK()
```

### Event 65535.5

#### Metadata

| Field        | Value    |
|--------------|----------|
| Entrypoint   | 0x005D   |
| Data Size    | 31 bytes |
| Instructions | 5        |

```
      00 01 02 03 04 05 06 07  08 09 0A 0B 0C 0D 0E 0F
      -- -- -- -- -- -- -- --  -- -- -- -- -- -- -- --
0050:                                         1C 03 80               ...
0060: 7C 00 F8 FF FF 7F 81 00  F8 FF FF 7F 5B 02 80 F8  |...........[...
0070: FF FF 7F F8 FF FF 7F 68  61 69 30 00              .......hai0.    
```

#### Opcodes

```
  0: 0x005D [0x1C] WAIT(20* ticks)
  1: 0x0060 [0x7C] EventEntity->Render.Flags2 |= 0x00
  2: 0x0066 [0x81] SET_ENTITY_BLINKING(blink_flag=0x00, entity=EventEntity)
  3: 0x006C [0x5B] LOAD_EXT_SCHEDULER: Load scheduler "hai0" with entities [EventEntity, EventEntity], work=81*
  4: 0x007B [0x00] END_REQSTACK()
```

### Event 65535.6

#### Metadata

| Field        | Value    |
|--------------|----------|
| Entrypoint   | 0x007C   |
| Data Size    | 53 bytes |
| Instructions | 7        |

```
      00 01 02 03 04 05 06 07  08 09 0A 0B 0C 0D 0E 0F
      -- -- -- -- -- -- -- --  -- -- -- -- -- -- -- --
0070:                                      7C 00 F8 FF              |...
0080: FF 7F 81 00 F8 FF FF 7F  5B 02 80 F8 FF FF 7F F8  ........[.......
0090: FF FF 7F 68 61 69 30 53  F8 FF FF 7F F8 FF FF 7F  ...hai0S........
00A0: 68 61 69 30 7C 01 F8 FF  FF 7F 81 01 F8 FF FF 7F  hai0|...........
00B0: 00                                                .               
```

#### Opcodes

```
  0: 0x007C [0x7C] EventEntity->Render.Flags2 |= 0x00
  1: 0x0082 [0x81] SET_ENTITY_BLINKING(blink_flag=0x00, entity=EventEntity)
  2: 0x0088 [0x5B] LOAD_EXT_SCHEDULER: Load scheduler "hai0" with entities [EventEntity, EventEntity], work=81*
  3: 0x0097 [0x53] WAIT_SCHEDULER_TASK: Wait for scheduler "hai0" with entities [EventEntity, EventEntity]
  4: 0x00A4 [0x7C] EventEntity->Render.Flags2 |= 0x01
  5: 0x00AA [0x81] SET_ENTITY_BLINKING(blink_flag=0x01, entity=EventEntity)
  6: 0x00B0 [0x00] END_REQSTACK()
```

### Event 65535.7

#### Metadata

| Field        | Value    |
|--------------|----------|
| Entrypoint   | 0x00B1   |
| Data Size    | 28 bytes |
| Instructions | 4        |

```
      00 01 02 03 04 05 06 07  08 09 0A 0B 0C 0D 0E 0F
      -- -- -- -- -- -- -- --  -- -- -- -- -- -- -- --
00B0:    7C 00 F8 FF FF 7F 81  00 F8 FF FF 7F 5B 02 80   |...........[..
00C0: F8 FF FF 7F F8 FF FF 7F  62 69 6B 30 00           ........bik0.   
```

#### Opcodes

```
  0: 0x00B1 [0x7C] EventEntity->Render.Flags2 |= 0x00
  1: 0x00B7 [0x81] SET_ENTITY_BLINKING(blink_flag=0x00, entity=EventEntity)
  2: 0x00BD [0x5B] LOAD_EXT_SCHEDULER: Load scheduler "bik0" with entities [EventEntity, EventEntity], work=81*
  3: 0x00CC [0x00] END_REQSTACK()
```

### Event 65535.8

#### Metadata

| Field        | Value    |
|--------------|----------|
| Entrypoint   | 0x00CD   |
| Data Size    | 26 bytes |
| Instructions | 4        |

```
      00 01 02 03 04 05 06 07  08 09 0A 0B 0C 0D 0E 0F
      -- -- -- -- -- -- -- --  -- -- -- -- -- -- -- --
00C0:                                         53 F8 FF               S..
00D0: FF 7F F8 FF FF 7F 62 69  6B 30 7C 01 F8 FF FF 7F  ......bik0|.....
00E0: 81 01 F8 FF FF 7F 00                              .......         
```

#### Opcodes

```
  0: 0x00CD [0x53] WAIT_SCHEDULER_TASK: Wait for scheduler "bik0" with entities [EventEntity, EventEntity]
  1: 0x00DA [0x7C] EventEntity->Render.Flags2 |= 0x01
  2: 0x00E0 [0x81] SET_ENTITY_BLINKING(blink_flag=0x01, entity=EventEntity)
  3: 0x00E6 [0x00] END_REQSTACK()
```

### Event 65535.9

#### Metadata

| Field        | Value    |
|--------------|----------|
| Entrypoint   | 0x00E7   |
| Data Size    | 28 bytes |
| Instructions | 4        |

```
      00 01 02 03 04 05 06 07  08 09 0A 0B 0C 0D 0E 0F
      -- -- -- -- -- -- -- --  -- -- -- -- -- -- -- --
00E0:                      7C  01 F8 FF FF 7F 81 00 F8         |........
00F0: FF FF 7F 5B 00 80 F8 FF  FF 7F F8 FF FF 7F 61 77  ...[..........aw
0100: 77 30 00                                          w0.             
```

#### Opcodes

```
  0: 0x00E7 [0x7C] EventEntity->Render.Flags2 |= 0x01
  1: 0x00ED [0x81] SET_ENTITY_BLINKING(blink_flag=0x00, entity=EventEntity)
  2: 0x00F3 [0x5B] LOAD_EXT_SCHEDULER: Load scheduler "aww0" with entities [EventEntity, EventEntity], work=80*
  3: 0x0102 [0x00] END_REQSTACK()
```

### Event 65535.10

#### Metadata

| Field        | Value    |
|--------------|----------|
| Entrypoint   | 0x0103   |
| Data Size    | 28 bytes |
| Instructions | 5        |

```
      00 01 02 03 04 05 06 07  08 09 0A 0B 0C 0D 0E 0F
      -- -- -- -- -- -- -- --  -- -- -- -- -- -- -- --
0100:          53 F8 FF FF 7F  F8 FF FF 7F 61 77 77 30     S........aww0
0110: 5E 69 64 6C 30 1C 01 80  81 01 F8 FF FF 7F 00     ^idl0.......... 
```

#### Opcodes

```
  0: 0x0103 [0x53] WAIT_SCHEDULER_TASK: Wait for scheduler "aww0" with entities [EventEntity, EventEntity]
  1: 0x0110 [0x5E] EventEntity goes idle (kills current action) (animation: "idl0")
  2: 0x0115 [0x1C] WAIT(30* ticks)
  3: 0x0118 [0x81] SET_ENTITY_BLINKING(blink_flag=0x01, entity=EventEntity)
  4: 0x011E [0x00] END_REQSTACK()
```

### Event 65535.11

#### Metadata

| Field        | Value   |
|--------------|---------|
| Entrypoint   | 0x011F  |
| Data Size    | 9 bytes |
| Instructions | 3       |

```
      00 01 02 03 04 05 06 07  08 09 0A 0B 0C 0D 0E 0F
      -- -- -- -- -- -- -- --  -- -- -- -- -- -- -- --
0110:                                               5E                 ^
0120: 69 64 6C 30 1C 01 80 00                           idl0....        
```

#### Opcodes

```
  0: 0x011F [0x5E] EventEntity goes idle (kills current action) (animation: "idl0")
  1: 0x0124 [0x1C] WAIT(30* ticks)
  2: 0x0127 [0x00] END_REQSTACK()
```

### Event 65535.12

#### Metadata

| Field        | Value    |
|--------------|----------|
| Entrypoint   | 0x0128   |
| Data Size    | 80 bytes |
| Instructions | 10       |

```
      00 01 02 03 04 05 06 07  08 09 0A 0B 0C 0D 0E 0F
      -- -- -- -- -- -- -- --  -- -- -- -- -- -- -- --
0120:                          7C 00 F8 FF FF 7F 81 00          |.......
0130: F8 FF FF 7F 5B 02 80 F8  FF FF 7F F8 FF FF 7F 62  ....[..........b
0140: 69 6B 30 53 F8 FF FF 7F  F8 FF FF 7F 62 69 6B 30  ik0S........bik0
0150: 7C 01 F8 FF FF 7F 81 01  F8 FF FF 7F 7C 01 F8 FF  |...........|...
0160: FF 7F 81 00 F8 FF FF 7F  5B 00 80 F8 FF FF 7F F8  ........[.......
0170: FF FF 7F 61 77 77 30 00                           ...aww0.        
```

#### Opcodes

```
  0: 0x0128 [0x7C] EventEntity->Render.Flags2 |= 0x00
  1: 0x012E [0x81] SET_ENTITY_BLINKING(blink_flag=0x00, entity=EventEntity)
  2: 0x0134 [0x5B] LOAD_EXT_SCHEDULER: Load scheduler "bik0" with entities [EventEntity, EventEntity], work=81*
  3: 0x0143 [0x53] WAIT_SCHEDULER_TASK: Wait for scheduler "bik0" with entities [EventEntity, EventEntity]
  4: 0x0150 [0x7C] EventEntity->Render.Flags2 |= 0x01
  5: 0x0156 [0x81] SET_ENTITY_BLINKING(blink_flag=0x01, entity=EventEntity)
  6: 0x015C [0x7C] EventEntity->Render.Flags2 |= 0x01
  7: 0x0162 [0x81] SET_ENTITY_BLINKING(blink_flag=0x00, entity=EventEntity)
  8: 0x0168 [0x5B] LOAD_EXT_SCHEDULER: Load scheduler "aww0" with entities [EventEntity, EventEntity], work=80*
  9: 0x0177 [0x00] END_REQSTACK()
```

### Event 65535.13

#### Metadata

| Field        | Value    |
|--------------|----------|
| Entrypoint   | 0x0178   |
| Data Size    | 16 bytes |
| Instructions | 2        |

```
      00 01 02 03 04 05 06 07  08 09 0A 0B 0C 0D 0E 0F
      -- -- -- -- -- -- -- --  -- -- -- -- -- -- -- --
0170:                          5B 00 80 F8 FF FF 7F F8          [.......
0180: FF FF 7F 65 30 30 30 00                           ...e000.        
```

#### Opcodes

```
  0: 0x0178 [0x5B] LOAD_EXT_SCHEDULER: Load scheduler "e000" with entities [EventEntity, EventEntity], work=80*
  1: 0x0187 [0x00] END_REQSTACK()
```

### Event 65535.14

#### Metadata

| Field        | Value    |
|--------------|----------|
| Entrypoint   | 0x0188   |
| Data Size    | 22 bytes |
| Instructions | 4        |

```
      00 01 02 03 04 05 06 07  08 09 0A 0B 0C 0D 0E 0F
      -- -- -- -- -- -- -- --  -- -- -- -- -- -- -- --
0180:                          53 F8 FF FF 7F F8 FF FF          S.......
0190: 7F 65 30 30 30 5E 69 64  6C 30 1C 01 80 00        .e000^idl0....  
```

#### Opcodes

```
  0: 0x0188 [0x53] WAIT_SCHEDULER_TASK: Wait for scheduler "e000" with entities [EventEntity, EventEntity]
  1: 0x0195 [0x5E] EventEntity goes idle (kills current action) (animation: "idl0")
  2: 0x019A [0x1C] WAIT(30* ticks)
  3: 0x019D [0x00] END_REQSTACK()
```

### Event 65535.15

#### Metadata

| Field        | Value    |
|--------------|----------|
| Entrypoint   | 0x019E   |
| Data Size    | 28 bytes |
| Instructions | 4        |

```
      00 01 02 03 04 05 06 07  08 09 0A 0B 0C 0D 0E 0F
      -- -- -- -- -- -- -- --  -- -- -- -- -- -- -- --
0190:                                            7C 00                |.
01A0: F8 FF FF 7F 81 00 F8 FF  FF 7F 5B 04 80 F8 FF FF  ..........[.....
01B0: 7F F8 FF FF 7F 6B 75 6E  30 00                    .....kun0.      
```

#### Opcodes

```
  0: 0x019E [0x7C] EventEntity->Render.Flags2 |= 0x00
  1: 0x01A4 [0x81] SET_ENTITY_BLINKING(blink_flag=0x00, entity=EventEntity)
  2: 0x01AA [0x5B] LOAD_EXT_SCHEDULER: Load scheduler "kun0" with entities [EventEntity, EventEntity], work=1284*
  3: 0x01B9 [0x00] END_REQSTACK()
```

### Event 65535.16

#### Metadata

| Field        | Value    |
|--------------|----------|
| Entrypoint   | 0x01BA   |
| Data Size    | 14 bytes |
| Instructions | 2        |

```
      00 01 02 03 04 05 06 07  08 09 0A 0B 0C 0D 0E 0F
      -- -- -- -- -- -- -- --  -- -- -- -- -- -- -- --
01B0:                                53 F8 FF FF 7F F8            S.....
01C0: FF FF 7F 6B 75 6E 30 00                           ...kun0.        
```

#### Opcodes

```
  0: 0x01BA [0x53] WAIT_SCHEDULER_TASK: Wait for scheduler "kun0" with entities [EventEntity, EventEntity]
  1: 0x01C7 [0x00] END_REQSTACK()
```

### Event 65535.17

#### Metadata

| Field        | Value    |
|--------------|----------|
| Entrypoint   | 0x01C8   |
| Data Size    | 16 bytes |
| Instructions | 2        |

```
      00 01 02 03 04 05 06 07  08 09 0A 0B 0C 0D 0E 0F
      -- -- -- -- -- -- -- --  -- -- -- -- -- -- -- --
01C0:                          5B 04 80 F8 FF FF 7F F8          [.......
01D0: FF FF 7F 6B 75 6E 31 00                           ...kun1.        
```

#### Opcodes

```
  0: 0x01C8 [0x5B] LOAD_EXT_SCHEDULER: Load scheduler "kun1" with entities [EventEntity, EventEntity], work=1284*
  1: 0x01D7 [0x00] END_REQSTACK()
```

### Event 65535.18

#### Metadata

| Field        | Value    |
|--------------|----------|
| Entrypoint   | 0x01D8   |
| Data Size    | 26 bytes |
| Instructions | 4        |

```
      00 01 02 03 04 05 06 07  08 09 0A 0B 0C 0D 0E 0F
      -- -- -- -- -- -- -- --  -- -- -- -- -- -- -- --
01D0:                          53 F8 FF FF 7F F8 FF FF          S.......
01E0: 7F 6B 75 6E 31 7C 01 F8  FF FF 7F 81 01 F8 FF FF  .kun1|..........
01F0: 7F 00                                             ..              
```

#### Opcodes

```
  0: 0x01D8 [0x53] WAIT_SCHEDULER_TASK: Wait for scheduler "kun1" with entities [EventEntity, EventEntity]
  1: 0x01E5 [0x7C] EventEntity->Render.Flags2 |= 0x01
  2: 0x01EB [0x81] SET_ENTITY_BLINKING(blink_flag=0x01, entity=EventEntity)
  3: 0x01F1 [0x00] END_REQSTACK()
```

### Event 366

#### Metadata

| Field        | Value    |
|--------------|----------|
| Entrypoint   | 0x01F2   |
| Data Size    | 29 bytes |
| Instructions | 10       |

```
      00 01 02 03 04 05 06 07  08 09 0A 0B 0C 0D 0E 0F
      -- -- -- -- -- -- -- --  -- -- -- -- -- -- -- --
01F0:       1E F0 FF FF 7F 6F  70 29 08 57 00 0F 01 03    .....op).W....
0200: 1D 05 80 23 29 08 57 00  0F 01 0B 20 00 21 00     ...#).W.... .!. 
```

#### Opcodes

```
  0: 0x01F2 [0x1E] EventEntity looks at LocalPlayer and starts talking
  1: 0x01F7 [0x6F] WAIT_FRAME_DELAY: Yield until WaitTime reaches zero
  2: 0x01F8 [0x70] WAIT_ENTITY_RENDER_FLAG: Wait while EventEntity->Render.Flags3 bit 2 is set (cancel turn if not)
  3: 0x01F9 [0x29] REQ_SET_WAIT(priority=0x08, entity_id=Pyo Nzon (ID: 17760343/0x010F0057), tag_num=0x03)
  4: 0x0200 [0x1D] PRINT_EVENT_MESSAGE(message_id=4165*)
    → "What's the furrrst rule?"
  5: 0x0203 [0x23] WAIT_FOR_DIALOG_INTERACTION
  6: 0x0204 [0x29] REQ_SET_WAIT(priority=0x08, entity_id=Pyo Nzon (ID: 17760343/0x010F0057), tag_num=0x0B)
  7: 0x020B [0x20] SET_CLI_EVENT_UC_FLAG: Unlock player control
  8: 0x020D [0x21] END_EVENT
  9: 0x020E [0x00] END_REQSTACK()
```

### Event 368

#### Metadata

| Field        | Value   |
|--------------|---------|
| Entrypoint   | 0x020F  |
| Data Size    | 1 bytes |
| Instructions | 1       |

```
      00 01 02 03 04 05 06 07  08 09 0A 0B 0C 0D 0E 0F
      -- -- -- -- -- -- -- --  -- -- -- -- -- -- -- --
0200:                                               00                 .
```

#### Opcodes

```
  0: 0x020F [0x00] END_REQSTACK()
```

### Event 65535.19

#### Metadata

| Field        | Value    |
|--------------|----------|
| Entrypoint   | 0x0210   |
| Data Size    | 10 bytes |
| Instructions | 2        |

```
      00 01 02 03 04 05 06 07  08 09 0A 0B 0C 0D 0E 0F
      -- -- -- -- -- -- -- --  -- -- -- -- -- -- -- --
0210: 37 06 80 07 80 08 80 09  80 00                    7.........      
```

#### Opcodes

```
  0: 0x0210 [0x37] UPDATE_EVENT_POSITION_AND_DIR: x=-26.491*, z=192.244*, y=-5.999*, direction=354.3°*
  1: 0x0219 [0x00] END_REQSTACK()
```

### Event 65535.20

#### Metadata

| Field        | Value   |
|--------------|---------|
| Entrypoint   | 0x021A  |
| Data Size    | 5 bytes |
| Instructions | 3       |

```
      00 01 02 03 04 05 06 07  08 09 0A 0B 0C 0D 0E 0F
      -- -- -- -- -- -- -- --  -- -- -- -- -- -- -- --
0210:                                1D 0A 80 23 00               ...#. 
```

#### Opcodes

```
  0: 0x021A [0x1D] PRINT_EVENT_MESSAGE(message_id=4178*)
    → "Yeah, we'rrre prrretty invincy-bull!"
  1: 0x021D [0x23] WAIT_FOR_DIALOG_INTERACTION
  2: 0x021E [0x00] END_REQSTACK()
```

### Event 65535.21

#### Metadata

| Field        | Value    |
|--------------|----------|
| Entrypoint   | 0x021F   |
| Data Size    | 21 bytes |
| Instructions | 6        |

```
      00 01 02 03 04 05 06 07  08 09 0A 0B 0C 0D 0E 0F
      -- -- -- -- -- -- -- --  -- -- -- -- -- -- -- --
0210:                                               29                 )
0220: 08 57 00 0F 01 01 1D 0B  80 23 29 08 57 00 0F 01  .W.......#).W...
0230: 02 20 00 00                                       . ..            
```

#### Opcodes

```
  0: 0x021F [0x29] REQ_SET_WAIT(priority=0x08, entity_id=Pyo Nzon (ID: 17760343/0x010F0057), tag_num=0x01)
  1: 0x0226 [0x1D] PRINT_EVENT_MESSAGE(message_id=4188*)
    → "(But, hey, grrrown-ups have lots of money. If we let grrrown-ups join our grrroup, they could buy us lots of trrreats!)"
  2: 0x0229 [0x23] WAIT_FOR_DIALOG_INTERACTION
  3: 0x022A [0x29] REQ_SET_WAIT(priority=0x08, entity_id=Pyo Nzon (ID: 17760343/0x010F0057), tag_num=0x02)
  4: 0x0231 [0x20] SET_CLI_EVENT_UC_FLAG: Unlock player control
  5: 0x0233 [0x00] END_REQSTACK()
```

### Event 375

#### Metadata

| Field        | Value    |
|--------------|----------|
| Entrypoint   | 0x0234   |
| Data Size    | 33 bytes |
| Instructions | 12       |

```
      00 01 02 03 04 05 06 07  08 09 0A 0B 0C 0D 0E 0F
      -- -- -- -- -- -- -- --  -- -- -- -- -- -- -- --
0230:             1E F0 FF FF  7F 6F 70 29 08 57 00 0F      .....op).W..
0240: 01 01 1D 0C 80 23 1D 0D  80 23 29 08 57 00 0F 01  .....#...#).W...
0250: 02 20 00 21 00                                    . .!.           
```

#### Opcodes

```
  0: 0x0234 [0x1E] EventEntity looks at LocalPlayer and starts talking
  1: 0x0239 [0x6F] WAIT_FRAME_DELAY: Yield until WaitTime reaches zero
  2: 0x023A [0x70] WAIT_ENTITY_RENDER_FLAG: Wait while EventEntity->Render.Flags3 bit 2 is set (cancel turn if not)
  3: 0x023B [0x29] REQ_SET_WAIT(priority=0x08, entity_id=Pyo Nzon (ID: 17760343/0x010F0057), tag_num=0x01)
  4: 0x0242 [0x1D] PRINT_EVENT_MESSAGE(message_id=4207*)
    → "I wonderrr what Pichichi's motherrr wants a tail forrr?"
  5: 0x0245 [0x23] WAIT_FOR_DIALOG_INTERACTION
  6: 0x0246 [0x1D] PRINT_EVENT_MESSAGE(message_id=4208*)
    → "Purrrhaps she wished she had been born a Mithra? I feel sorry forrr herrr having been borrrn a Tarutaru instead!"
  7: 0x0249 [0x23] WAIT_FOR_DIALOG_INTERACTION
  8: 0x024A [0x29] REQ_SET_WAIT(priority=0x08, entity_id=Pyo Nzon (ID: 17760343/0x010F0057), tag_num=0x02)
  9: 0x0251 [0x20] SET_CLI_EVENT_UC_FLAG: Unlock player control
 10: 0x0253 [0x21] END_EVENT
 11: 0x0254 [0x00] END_REQSTACK()
```

### Event 382

#### Metadata

| Field        | Value    |
|--------------|----------|
| Entrypoint   | 0x0255   |
| Data Size    | 33 bytes |
| Instructions | 12       |

```
      00 01 02 03 04 05 06 07  08 09 0A 0B 0C 0D 0E 0F
      -- -- -- -- -- -- -- --  -- -- -- -- -- -- -- --
0250:                1E F0 FF  FF 7F 6F 70 29 08 57 00       .....op).W.
0260: 0F 01 01 1D 0E 80 23 1D  0F 80 23 29 08 57 00 0F  ......#...#).W..
0270: 01 02 20 00 21 00                                 .. .!.          
```

#### Opcodes

```
  0: 0x0255 [0x1E] EventEntity looks at LocalPlayer and starts talking
  1: 0x025A [0x6F] WAIT_FRAME_DELAY: Yield until WaitTime reaches zero
  2: 0x025B [0x70] WAIT_ENTITY_RENDER_FLAG: Wait while EventEntity->Render.Flags3 bit 2 is set (cancel turn if not)
  3: 0x025C [0x29] REQ_SET_WAIT(priority=0x08, entity_id=Pyo Nzon (ID: 17760343/0x010F0057), tag_num=0x01)
  4: 0x0263 [0x1D] PRINT_EVENT_MESSAGE(message_id=4228*)
    → "So you've become a memberrr of the Starrr Onion Brigade, huh?"
  5: 0x0266 [0x23] WAIT_FOR_DIALOG_INTERACTION
  6: 0x0267 [0x1D] PRINT_EVENT_MESSAGE(message_id=4229*)
    → "But is it all rrright for an adult like you to be in alliance with childrrren? Won't that put you in bad standing with otherrr grrrown-ups?"
  7: 0x026A [0x23] WAIT_FOR_DIALOG_INTERACTION
  8: 0x026B [0x29] REQ_SET_WAIT(priority=0x08, entity_id=Pyo Nzon (ID: 17760343/0x010F0057), tag_num=0x02)
  9: 0x0272 [0x20] SET_CLI_EVENT_UC_FLAG: Unlock player control
 10: 0x0274 [0x21] END_EVENT
 11: 0x0275 [0x00] END_REQSTACK()
```

### Event 378

#### Metadata

| Field        | Value   |
|--------------|---------|
| Entrypoint   | 0x0276  |
| Data Size    | 1 bytes |
| Instructions | 1       |

```
      00 01 02 03 04 05 06 07  08 09 0A 0B 0C 0D 0E 0F
      -- -- -- -- -- -- -- --  -- -- -- -- -- -- -- --
0270:                   00                                    .         
```

#### Opcodes

```
  0: 0x0276 [0x00] END_REQSTACK()
```

### Event 391

#### Metadata

| Field        | Value   |
|--------------|---------|
| Entrypoint   | 0x0277  |
| Data Size    | 1 bytes |
| Instructions | 1       |

```
      00 01 02 03 04 05 06 07  08 09 0A 0B 0C 0D 0E 0F
      -- -- -- -- -- -- -- --  -- -- -- -- -- -- -- --
0270:                      00                                  .        
```

#### Opcodes

```
  0: 0x0277 [0x00] END_REQSTACK()
```

### Event 386

#### Metadata

| Field        | Value   |
|--------------|---------|
| Entrypoint   | 0x0278  |
| Data Size    | 1 bytes |
| Instructions | 1       |

```
      00 01 02 03 04 05 06 07  08 09 0A 0B 0C 0D 0E 0F
      -- -- -- -- -- -- -- --  -- -- -- -- -- -- -- --
0270:                          00                               .       
```

#### Opcodes

```
  0: 0x0278 [0x00] END_REQSTACK()
```

### Event 390

#### Metadata

| Field        | Value   |
|--------------|---------|
| Entrypoint   | 0x0279  |
| Data Size    | 1 bytes |
| Instructions | 1       |

```
      00 01 02 03 04 05 06 07  08 09 0A 0B 0C 0D 0E 0F
      -- -- -- -- -- -- -- --  -- -- -- -- -- -- -- --
0270:                             00                             .      
```

#### Opcodes

```
  0: 0x0279 [0x00] END_REQSTACK()
```

### Event 65535.22

#### Metadata

| Field        | Value    |
|--------------|----------|
| Entrypoint   | 0x027A   |
| Data Size    | 19 bytes |
| Instructions | 5        |

```
      00 01 02 03 04 05 06 07  08 09 0A 0B 0C 0D 0E 0F
      -- -- -- -- -- -- -- --  -- -- -- -- -- -- -- --
0270:                                29 08 57 00 0F 01            ).W...
0280: 03 1D 10 80 23 29 08 57  00 0F 01 04 00           ....#).W.....   
```

#### Opcodes

```
  0: 0x027A [0x29] REQ_SET_WAIT(priority=0x08, entity_id=Pyo Nzon (ID: 17760343/0x010F0057), tag_num=0x03)
  1: 0x0281 [0x1D] PRINT_EVENT_MESSAGE(message_id=4260*)
    → "Grrreat leaderrr! What kind of trrrap shall we lay for herrr this time?"
  2: 0x0284 [0x23] WAIT_FOR_DIALOG_INTERACTION
  3: 0x0285 [0x29] REQ_SET_WAIT(priority=0x08, entity_id=Pyo Nzon (ID: 17760343/0x010F0057), tag_num=0x04)
  4: 0x028C [0x00] END_REQSTACK()
```

### Event 396

#### Metadata

| Field        | Value    |
|--------------|----------|
| Entrypoint   | 0x028D   |
| Data Size    | 33 bytes |
| Instructions | 12       |

```
      00 01 02 03 04 05 06 07  08 09 0A 0B 0C 0D 0E 0F
      -- -- -- -- -- -- -- --  -- -- -- -- -- -- -- --
0280:                                         1E F0 FF               ...
0290: FF 7F 6F 70 29 08 57 00  0F 01 01 1D 11 80 23 1D  ..op).W.......#.
02A0: 12 80 23 29 08 57 00 0F  01 02 20 00 21 00        ..#).W.... .!.  
```

#### Opcodes

```
  0: 0x028D [0x1E] EventEntity looks at LocalPlayer and starts talking
  1: 0x0292 [0x6F] WAIT_FRAME_DELAY: Yield until WaitTime reaches zero
  2: 0x0293 [0x70] WAIT_ENTITY_RENDER_FLAG: Wait while EventEntity->Render.Flags3 bit 2 is set (cancel turn if not)
  3: 0x0294 [0x29] REQ_SET_WAIT(priority=0x08, entity_id=Pyo Nzon (ID: 17760343/0x010F0057), tag_num=0x01)
  4: 0x029B [0x1D] PRINT_EVENT_MESSAGE(message_id=4277*)
    → "Grrrowl... I don't need no weapons!"
  5: 0x029E [0x23] WAIT_FOR_DIALOG_INTERACTION
  6: 0x029F [0x1D] PRINT_EVENT_MESSAGE(message_id=4278*)
    → "My claws and teeth arrre my weapons! Cat Burrrglar! Hearrr my roarrr!"
  7: 0x02A2 [0x23] WAIT_FOR_DIALOG_INTERACTION
  8: 0x02A3 [0x29] REQ_SET_WAIT(priority=0x08, entity_id=Pyo Nzon (ID: 17760343/0x010F0057), tag_num=0x02)
  9: 0x02AA [0x20] SET_CLI_EVENT_UC_FLAG: Unlock player control
 10: 0x02AC [0x21] END_EVENT
 11: 0x02AD [0x00] END_REQSTACK()
```

### Event 65535.23

#### Metadata

| Field        | Value    |
|--------------|----------|
| Entrypoint   | 0x02AE   |
| Data Size    | 19 bytes |
| Instructions | 5        |

```
      00 01 02 03 04 05 06 07  08 09 0A 0B 0C 0D 0E 0F
      -- -- -- -- -- -- -- --  -- -- -- -- -- -- -- --
02A0:                                            29 08                ).
02B0: 57 00 0F 01 01 1D 13 80  23 29 08 57 00 0F 01 02  W.......#).W....
02C0: 00                                                .               
```

#### Opcodes

```
  0: 0x02AE [0x29] REQ_SET_WAIT(priority=0x08, entity_id=Pyo Nzon (ID: 17760343/0x010F0057), tag_num=0x01)
  1: 0x02B5 [0x1D] PRINT_EVENT_MESSAGE(message_id=4290*)
    → "Let us have a closerrr look!"
  2: 0x02B8 [0x23] WAIT_FOR_DIALOG_INTERACTION
  3: 0x02B9 [0x29] REQ_SET_WAIT(priority=0x08, entity_id=Pyo Nzon (ID: 17760343/0x010F0057), tag_num=0x02)
  4: 0x02C0 [0x00] END_REQSTACK()
```

### Event 400

#### Metadata

| Field        | Value   |
|--------------|---------|
| Entrypoint   | 0x02C1  |
| Data Size    | 1 bytes |
| Instructions | 1       |

```
      00 01 02 03 04 05 06 07  08 09 0A 0B 0C 0D 0E 0F
      -- -- -- -- -- -- -- --  -- -- -- -- -- -- -- --
02C0:    00                                              .              
```

#### Opcodes

```
  0: 0x02C1 [0x00] END_REQSTACK()
```

### Event 65535.24

#### Metadata

| Field        | Value    |
|--------------|----------|
| Entrypoint   | 0x02C2   |
| Data Size    | 15 bytes |
| Instructions | 5        |

```
      00 01 02 03 04 05 06 07  08 09 0A 0B 0C 0D 0E 0F
      -- -- -- -- -- -- -- --  -- -- -- -- -- -- -- --
02C0:       32 14 80 1F 00 15  80 16 80 08 80 1F 01 6F    2............o
02D0: 00                                                .               
```

#### Opcodes

```
  0: 0x02C2 [0x32] ExtData[1]->MainSpeed = 13* * 0.1
  1: 0x02C5 [0x1F] MOVE_ENTITY: EventEntity moves to X=-25.008*, Z=192.628*, Y=-5.999*
  2: 0x02CD [0x1F] MOVE_ENTITY: Update entity position (mode=1)
  3: 0x02CF [0x6F] WAIT_FRAME_DELAY: Yield until WaitTime reaches zero
  4: 0x02D0 [0x00] END_REQSTACK()
```

### Event 408

#### Metadata

| Field        | Value    |
|--------------|----------|
| Entrypoint   | 0x02D1   |
| Data Size    | 29 bytes |
| Instructions | 10       |

```
      00 01 02 03 04 05 06 07  08 09 0A 0B 0C 0D 0E 0F
      -- -- -- -- -- -- -- --  -- -- -- -- -- -- -- --
02D0:    1E F0 FF FF 7F 6F 70  29 08 57 00 0F 01 01 1D   .....op).W.....
02E0: 17 80 23 29 08 57 00 0F  01 02 20 00 21 00        ..#).W.... .!.  
```

#### Opcodes

```
  0: 0x02D1 [0x1E] EventEntity looks at LocalPlayer and starts talking
  1: 0x02D6 [0x6F] WAIT_FRAME_DELAY: Yield until WaitTime reaches zero
  2: 0x02D7 [0x70] WAIT_ENTITY_RENDER_FLAG: Wait while EventEntity->Render.Flags3 bit 2 is set (cancel turn if not)
  3: 0x02D8 [0x29] REQ_SET_WAIT(priority=0x08, entity_id=Pyo Nzon (ID: 17760343/0x010F0057), tag_num=0x01)
  4: 0x02DF [0x1D] PRINT_EVENT_MESSAGE(message_id=4305*)
    → "The Cat Burrrglar got away again! Eeew, I'm so frrrustrrrated!"
  5: 0x02E2 [0x23] WAIT_FOR_DIALOG_INTERACTION
  6: 0x02E3 [0x29] REQ_SET_WAIT(priority=0x08, entity_id=Pyo Nzon (ID: 17760343/0x010F0057), tag_num=0x02)
  7: 0x02EA [0x20] SET_CLI_EVENT_UC_FLAG: Unlock player control
  8: 0x02EC [0x21] END_EVENT
  9: 0x02ED [0x00] END_REQSTACK()
```

### Event 409

#### Metadata

| Field        | Value    |
|--------------|----------|
| Entrypoint   | 0x02EE   |
| Data Size    | 33 bytes |
| Instructions | 12       |

```
      00 01 02 03 04 05 06 07  08 09 0A 0B 0C 0D 0E 0F
      -- -- -- -- -- -- -- --  -- -- -- -- -- -- -- --
02E0:                                            1E F0                ..
02F0: FF FF 7F 6F 70 29 08 57  00 0F 01 01 1D 18 80 23  ...op).W.......#
0300: 1D 19 80 23 29 08 57 00  0F 01 02 20 00 21 00     ...#).W.... .!. 
```

#### Opcodes

```
  0: 0x02EE [0x1E] EventEntity looks at LocalPlayer and starts talking
  1: 0x02F3 [0x6F] WAIT_FRAME_DELAY: Yield until WaitTime reaches zero
  2: 0x02F4 [0x70] WAIT_ENTITY_RENDER_FLAG: Wait while EventEntity->Render.Flags3 bit 2 is set (cancel turn if not)
  3: 0x02F5 [0x29] REQ_SET_WAIT(priority=0x08, entity_id=Pyo Nzon (ID: 17760343/0x010F0057), tag_num=0x01)
  4: 0x02FC [0x1D] PRINT_EVENT_MESSAGE(message_id=4306*)
    → "The Cat Burglarrr got away again! Eeew, I'm so frrrustrrrated!"
  5: 0x02FF [0x23] WAIT_FOR_DIALOG_INTERACTION
  6: 0x0300 [0x1D] PRINT_EVENT_MESSAGE(message_id=4307*)
    → "But I bet she's looking high and low forrr herrr prrrecious Mana Orrrb! Hee-hee-hee... Rrrevenge is so sweet!"
  7: 0x0303 [0x23] WAIT_FOR_DIALOG_INTERACTION
  8: 0x0304 [0x29] REQ_SET_WAIT(priority=0x08, entity_id=Pyo Nzon (ID: 17760343/0x010F0057), tag_num=0x02)
  9: 0x030B [0x20] SET_CLI_EVENT_UC_FLAG: Unlock player control
 10: 0x030D [0x21] END_EVENT
 11: 0x030E [0x00] END_REQSTACK()
```

### Event 413

#### Metadata

| Field        | Value   |
|--------------|---------|
| Entrypoint   | 0x030F  |
| Data Size    | 1 bytes |
| Instructions | 1       |

```
      00 01 02 03 04 05 06 07  08 09 0A 0B 0C 0D 0E 0F
      -- -- -- -- -- -- -- --  -- -- -- -- -- -- -- --
0300:                                               00                 .
```

#### Opcodes

```
  0: 0x030F [0x00] END_REQSTACK()
```

### Event 418

#### Metadata

| Field        | Value    |
|--------------|----------|
| Entrypoint   | 0x0310   |
| Data Size    | 33 bytes |
| Instructions | 12       |

```
      00 01 02 03 04 05 06 07  08 09 0A 0B 0C 0D 0E 0F
      -- -- -- -- -- -- -- --  -- -- -- -- -- -- -- --
0310: 1E F0 FF FF 7F 6F 70 29  08 57 00 0F 01 01 1D 1A  .....op).W......
0320: 80 23 1D 1B 80 23 29 08  57 00 0F 01 02 20 00 21  .#...#).W.... .!
0330: 00                                                .               
```

#### Opcodes

```
  0: 0x0310 [0x1E] EventEntity looks at LocalPlayer and starts talking
  1: 0x0315 [0x6F] WAIT_FRAME_DELAY: Yield until WaitTime reaches zero
  2: 0x0316 [0x70] WAIT_ENTITY_RENDER_FLAG: Wait while EventEntity->Render.Flags3 bit 2 is set (cancel turn if not)
  3: 0x0317 [0x29] REQ_SET_WAIT(priority=0x08, entity_id=Pyo Nzon (ID: 17760343/0x010F0057), tag_num=0x01)
  4: 0x031E [0x1D] PRINT_EVENT_MESSAGE(message_id=4331*)
    → "We'll be needing a lamp if we arrre going into darrrk places!"
  5: 0x0321 [0x23] WAIT_FOR_DIALOG_INTERACTION
  6: 0x0322 [0x1D] PRINT_EVENT_MESSAGE(message_id=4332*)
    → "Not that my Mithra eyes arrre bad or anything... Just that it'll hopefully scarrre away them ghosties!"
  7: 0x0325 [0x23] WAIT_FOR_DIALOG_INTERACTION
  8: 0x0326 [0x29] REQ_SET_WAIT(priority=0x08, entity_id=Pyo Nzon (ID: 17760343/0x010F0057), tag_num=0x02)
  9: 0x032D [0x20] SET_CLI_EVENT_UC_FLAG: Unlock player control
 10: 0x032F [0x21] END_EVENT
 11: 0x0330 [0x00] END_REQSTACK()
```

### Event 421

#### Metadata

| Field        | Value   |
|--------------|---------|
| Entrypoint   | 0x0331  |
| Data Size    | 1 bytes |
| Instructions | 1       |

```
      00 01 02 03 04 05 06 07  08 09 0A 0B 0C 0D 0E 0F
      -- -- -- -- -- -- -- --  -- -- -- -- -- -- -- --
0330:    00                                              .              
```

#### Opcodes

```
  0: 0x0331 [0x00] END_REQSTACK()
```

### Event 426

#### Metadata

| Field        | Value    |
|--------------|----------|
| Entrypoint   | 0x0332   |
| Data Size    | 33 bytes |
| Instructions | 12       |

```
      00 01 02 03 04 05 06 07  08 09 0A 0B 0C 0D 0E 0F
      -- -- -- -- -- -- -- --  -- -- -- -- -- -- -- --
0330:       1E F0 FF FF 7F 6F  70 29 08 57 00 0F 01 01    .....op).W....
0340: 1D 1C 80 23 1D 1D 80 23  29 08 57 00 0F 01 02 20  ...#...#).W.... 
0350: 00 21 00                                          .!.             
```

#### Opcodes

```
  0: 0x0332 [0x1E] EventEntity looks at LocalPlayer and starts talking
  1: 0x0337 [0x6F] WAIT_FRAME_DELAY: Yield until WaitTime reaches zero
  2: 0x0338 [0x70] WAIT_ENTITY_RENDER_FLAG: Wait while EventEntity->Render.Flags3 bit 2 is set (cancel turn if not)
  3: 0x0339 [0x29] REQ_SET_WAIT(priority=0x08, entity_id=Pyo Nzon (ID: 17760343/0x010F0057), tag_num=0x01)
  4: 0x0340 [0x1D] PRINT_EVENT_MESSAGE(message_id=4353*)
    → "What was it you brrrought with you?"
  5: 0x0343 [0x23] WAIT_FOR_DIALOG_INTERACTION
  6: 0x0344 [0x1D] PRINT_EVENT_MESSAGE(message_id=4354*)
    → "I wonderrr whetherrr it will be morrre useful than my lamp for scarrring away ghosties? Brrr..."
  7: 0x0347 [0x23] WAIT_FOR_DIALOG_INTERACTION
  8: 0x0348 [0x29] REQ_SET_WAIT(priority=0x08, entity_id=Pyo Nzon (ID: 17760343/0x010F0057), tag_num=0x02)
  9: 0x034F [0x20] SET_CLI_EVENT_UC_FLAG: Unlock player control
 10: 0x0351 [0x21] END_EVENT
 11: 0x0352 [0x00] END_REQSTACK()
```

### Event 430

#### Metadata

| Field        | Value   |
|--------------|---------|
| Entrypoint   | 0x0353  |
| Data Size    | 1 bytes |
| Instructions | 1       |

```
      00 01 02 03 04 05 06 07  08 09 0A 0B 0C 0D 0E 0F
      -- -- -- -- -- -- -- --  -- -- -- -- -- -- -- --
0350:          00                                          .            
```

#### Opcodes

```
  0: 0x0353 [0x00] END_REQSTACK()
```

### Event 432

#### Metadata

| Field        | Value   |
|--------------|---------|
| Entrypoint   | 0x0354  |
| Data Size    | 1 bytes |
| Instructions | 1       |

```
      00 01 02 03 04 05 06 07  08 09 0A 0B 0C 0D 0E 0F
      -- -- -- -- -- -- -- --  -- -- -- -- -- -- -- --
0350:             00                                        .           
```

#### Opcodes

```
  0: 0x0354 [0x00] END_REQSTACK()
```

### Event 433

#### Metadata

| Field        | Value   |
|--------------|---------|
| Entrypoint   | 0x0355  |
| Data Size    | 1 bytes |
| Instructions | 1       |

```
      00 01 02 03 04 05 06 07  08 09 0A 0B 0C 0D 0E 0F
      -- -- -- -- -- -- -- --  -- -- -- -- -- -- -- --
0350:                00                                      .          
```

#### Opcodes

```
  0: 0x0355 [0x00] END_REQSTACK()
```

### Event 436

#### Metadata

| Field        | Value    |
|--------------|----------|
| Entrypoint   | 0x0356   |
| Data Size    | 33 bytes |
| Instructions | 12       |

```
      00 01 02 03 04 05 06 07  08 09 0A 0B 0C 0D 0E 0F
      -- -- -- -- -- -- -- --  -- -- -- -- -- -- -- --
0350:                   1E F0  FF FF 7F 6F 70 29 08 57        .....op).W
0360: 00 0F 01 01 1D 1E 80 23  1D 1F 80 23 29 08 57 00  .......#...#).W.
0370: 0F 01 02 20 00 21 00                              ... .!.         
```

#### Opcodes

```
  0: 0x0356 [0x1E] EventEntity looks at LocalPlayer and starts talking
  1: 0x035B [0x6F] WAIT_FRAME_DELAY: Yield until WaitTime reaches zero
  2: 0x035C [0x70] WAIT_ENTITY_RENDER_FLAG: Wait while EventEntity->Render.Flags3 bit 2 is set (cancel turn if not)
  3: 0x035D [0x29] REQ_SET_WAIT(priority=0x08, entity_id=Pyo Nzon (ID: 17760343/0x010F0057), tag_num=0x01)
  4: 0x0364 [0x1D] PRINT_EVENT_MESSAGE(message_id=4380*)
    → "The Cat Burrrglar's in the bag...I guess you could say."
  5: 0x0367 [0x23] WAIT_FOR_DIALOG_INTERACTION
  6: 0x0368 [0x1D] PRINT_EVENT_MESSAGE(message_id=4381*)
    → "We'll teach herrr not to give us Mithra a bad name!"
  7: 0x036B [0x23] WAIT_FOR_DIALOG_INTERACTION
  8: 0x036C [0x29] REQ_SET_WAIT(priority=0x08, entity_id=Pyo Nzon (ID: 17760343/0x010F0057), tag_num=0x02)
  9: 0x0373 [0x20] SET_CLI_EVENT_UC_FLAG: Unlock player control
 10: 0x0375 [0x21] END_EVENT
 11: 0x0376 [0x00] END_REQSTACK()
```

### Event 443

#### Metadata

| Field        | Value    |
|--------------|----------|
| Entrypoint   | 0x0377   |
| Data Size    | 33 bytes |
| Instructions | 12       |

```
      00 01 02 03 04 05 06 07  08 09 0A 0B 0C 0D 0E 0F
      -- -- -- -- -- -- -- --  -- -- -- -- -- -- -- --
0370:                      1E  F0 FF FF 7F 6F 70 29 08         .....op).
0380: 57 00 0F 01 01 1D 20 80  23 1D 21 80 23 29 08 57  W..... .#.!.#).W
0390: 00 0F 01 02 20 00 21 00                           .... .!.        
```

#### Opcodes

```
  0: 0x0377 [0x1E] EventEntity looks at LocalPlayer and starts talking
  1: 0x037C [0x6F] WAIT_FRAME_DELAY: Yield until WaitTime reaches zero
  2: 0x037D [0x70] WAIT_ENTITY_RENDER_FLAG: Wait while EventEntity->Render.Flags3 bit 2 is set (cancel turn if not)
  3: 0x037E [0x29] REQ_SET_WAIT(priority=0x08, entity_id=Pyo Nzon (ID: 17760343/0x010F0057), tag_num=0x01)
  4: 0x0385 [0x1D] PRINT_EVENT_MESSAGE(message_id=4393*)
    → "That Carrrdian is top secrrret!"
  5: 0x0388 [0x23] WAIT_FOR_DIALOG_INTERACTION
  6: 0x0389 [0x1D] PRINT_EVENT_MESSAGE(message_id=4394*)
    → "Perrhaps he was teased by grrrown-ups so much that he hid in that house and fell asleep... Well that's what I think!"
  7: 0x038C [0x23] WAIT_FOR_DIALOG_INTERACTION
  8: 0x038D [0x29] REQ_SET_WAIT(priority=0x08, entity_id=Pyo Nzon (ID: 17760343/0x010F0057), tag_num=0x02)
  9: 0x0394 [0x20] SET_CLI_EVENT_UC_FLAG: Unlock player control
 10: 0x0396 [0x21] END_EVENT
 11: 0x0397 [0x00] END_REQSTACK()
```

### Event 324

#### Metadata

| Field        | Value   |
|--------------|---------|
| Entrypoint   | 0x0398  |
| Data Size    | 1 bytes |
| Instructions | 1       |

```
      00 01 02 03 04 05 06 07  08 09 0A 0B 0C 0D 0E 0F
      -- -- -- -- -- -- -- --  -- -- -- -- -- -- -- --
0390:                          00                               .       
```

#### Opcodes

```
  0: 0x0398 [0x00] END_REQSTACK()
```

### Event 65535.25

#### Metadata

| Field        | Value    |
|--------------|----------|
| Entrypoint   | 0x0399   |
| Data Size    | 30 bytes |
| Instructions | 8        |

```
      00 01 02 03 04 05 06 07  08 09 0A 0B 0C 0D 0E 0F
      -- -- -- -- -- -- -- --  -- -- -- -- -- -- -- --
0390:                             1C 01 80 37 22 80 23           ...7".#
03A0: 80 24 80 25 80 32 26 80  1F 00 27 80 28 80 29 80  .$.%.2&...'.(.).
03B0: 1F 01 6F 39 2A 80 00                              ..o9*..         
```

#### Opcodes

```
  0: 0x0399 [0x1C] WAIT(30* ticks)
  1: 0x039C [0x37] UPDATE_EVENT_POSITION_AND_DIR: x=-25.985*, z=264.533*, y=-13.149*, direction=292.4°*
  2: 0x03A5 [0x32] ExtData[1]->MainSpeed = 40* * 0.1
  3: 0x03A8 [0x1F] MOVE_ENTITY: EventEntity moves to X=-25.233*, Z=267.732*, Y=-12.000*
  4: 0x03B0 [0x1F] MOVE_ENTITY: Update entity position (mode=1)
  5: 0x03B2 [0x6F] WAIT_FRAME_DELAY: Yield until WaitTime reaches zero
  6: 0x03B3 [0x39] SET_ENTITY_DIRECTION(direction=19.6°*)
  7: 0x03B6 [0x00] END_REQSTACK()
```

### Event 65535.26

#### Metadata

| Field        | Value    |
|--------------|----------|
| Entrypoint   | 0x03B7   |
| Data Size    | 18 bytes |
| Instructions | 6        |

```
      00 01 02 03 04 05 06 07  08 09 0A 0B 0C 0D 0E 0F
      -- -- -- -- -- -- -- --  -- -- -- -- -- -- -- --
03B0:                      32  14 80 1F 00 2B 80 2C 80         2....+.,.
03C0: 29 80 1F 01 6F 39 2D 80  00                       )...o9-..       
```

#### Opcodes

```
  0: 0x03B7 [0x32] ExtData[1]->MainSpeed = 13* * 0.1
  1: 0x03BA [0x1F] MOVE_ENTITY: EventEntity moves to X=-26.094*, Z=268.144*, Y=-12.000*
  2: 0x03C2 [0x1F] MOVE_ENTITY: Update entity position (mode=1)
  3: 0x03C4 [0x6F] WAIT_FRAME_DELAY: Yield until WaitTime reaches zero
  4: 0x03C5 [0x39] SET_ENTITY_DIRECTION(direction=21.7°*)
  5: 0x03C8 [0x00] END_REQSTACK()
```

### Event 65535.27

#### Metadata

| Field        | Value    |
|--------------|----------|
| Entrypoint   | 0x03C9   |
| Data Size    | 24 bytes |
| Instructions | 8        |

```
      00 01 02 03 04 05 06 07  08 09 0A 0B 0C 0D 0E 0F
      -- -- -- -- -- -- -- --  -- -- -- -- -- -- -- --
03C0:                             39 2E 80 1C 2F 80 32           9.../.2
03D0: 26 80 1F 00 30 80 31 80  32 80 1F 01 6F 39 33 80  &...0.1.2...o93.
03E0: 00                                                .               
```

#### Opcodes

```
  0: 0x03C9 [0x39] SET_ENTITY_DIRECTION(direction=5.6°*)
  1: 0x03CC [0x1C] WAIT(60* ticks)
  2: 0x03CF [0x32] ExtData[1]->MainSpeed = 40* * 0.1
  3: 0x03D2 [0x1F] MOVE_ENTITY: EventEntity moves to X=-25.934*, Z=265.420*, Y=-12.784*
  4: 0x03DA [0x1F] MOVE_ENTITY: Update entity position (mode=1)
  5: 0x03DC [0x6F] WAIT_FRAME_DELAY: Yield until WaitTime reaches zero
  6: 0x03DD [0x39] SET_ENTITY_DIRECTION(direction=5.0°*)
  7: 0x03E0 [0x00] END_REQSTACK()
```

### Event 65535.28

#### Metadata

| Field        | Value    |
|--------------|----------|
| Entrypoint   | 0x03E1   |
| Data Size    | 15 bytes |
| Instructions | 5        |

```
      00 01 02 03 04 05 06 07  08 09 0A 0B 0C 0D 0E 0F
      -- -- -- -- -- -- -- --  -- -- -- -- -- -- -- --
03E0:    32 26 80 1F 00 34 80  35 80 29 80 1F 01 6F 00   2&...4.5.)...o.
```

#### Opcodes

```
  0: 0x03E1 [0x32] ExtData[1]->MainSpeed = 40* * 0.1
  1: 0x03E4 [0x1F] MOVE_ENTITY: EventEntity moves to X=-25.813*, Z=269.323*, Y=-12.000*
  2: 0x03EC [0x1F] MOVE_ENTITY: Update entity position (mode=1)
  3: 0x03EE [0x6F] WAIT_FRAME_DELAY: Yield until WaitTime reaches zero
  4: 0x03EF [0x00] END_REQSTACK()
```

### Event 65535.29

#### Metadata

| Field        | Value    |
|--------------|----------|
| Entrypoint   | 0x03F0   |
| Data Size    | 25 bytes |
| Instructions | 5        |

```
      00 01 02 03 04 05 06 07  08 09 0A 0B 0C 0D 0E 0F
      -- -- -- -- -- -- -- --  -- -- -- -- -- -- -- --
03F0: 1C 01 80 4A 57 00 0F 01  5A 00 0F 01 1C 36 80 4A  ...JW...Z....6.J
0400: 57 00 0F 01 5A 00 0F 01  00                       W...Z....       
```

#### Opcodes

```
  0: 0x03F0 [0x1C] WAIT(30* ticks)
  1: 0x03F3 [0x4A] Pyo Nzon (ID: 17760343/0x010F0057) looks at Nanaa Mihgo (ID: 17760346/0x010F005A)
  2: 0x03FC [0x1C] WAIT(50* ticks)
  3: 0x03FF [0x4A] Pyo Nzon (ID: 17760343/0x010F0057) looks at Nanaa Mihgo (ID: 17760346/0x010F005A)
  4: 0x0408 [0x00] END_REQSTACK()
```

### Event 65535.30

#### Metadata

| Field        | Value   |
|--------------|---------|
| Entrypoint   | 0x0409  |
| Data Size    | 5 bytes |
| Instructions | 3       |

```
      00 01 02 03 04 05 06 07  08 09 0A 0B 0C 0D 0E 0F
      -- -- -- -- -- -- -- --  -- -- -- -- -- -- -- --
0400:                             1D 37 80 23 00                 .7.#.  
```

#### Opcodes

```
  0: 0x0409 [0x1D] PRINT_EVENT_MESSAGE(message_id=4010*)
    → "Grrr... We've been shut in!"
  1: 0x040C [0x23] WAIT_FOR_DIALOG_INTERACTION
  2: 0x040D [0x00] END_REQSTACK()
```

### Event 65535.31

#### Metadata

| Field        | Value    |
|--------------|----------|
| Entrypoint   | 0x040E   |
| Data Size    | 10 bytes |
| Instructions | 2        |

```
      00 01 02 03 04 05 06 07  08 09 0A 0B 0C 0D 0E 0F
      -- -- -- -- -- -- -- --  -- -- -- -- -- -- -- --
0400:                                            37 38                78
0410: 80 39 80 3A 80 3B 80 00                           .9.:.;..        
```

#### Opcodes

```
  0: 0x040E [0x37] UPDATE_EVENT_POSITION_AND_DIR: x=-26.976*, z=281.367*, y=-12.999*, direction=256.0°*
  1: 0x0417 [0x00] END_REQSTACK()
```

### Event 65535.32

#### Metadata

| Field        | Value    |
|--------------|----------|
| Entrypoint   | 0x0418   |
| Data Size    | 10 bytes |
| Instructions | 2        |

```
      00 01 02 03 04 05 06 07  08 09 0A 0B 0C 0D 0E 0F
      -- -- -- -- -- -- -- --  -- -- -- -- -- -- -- --
0410:                          37 3C 80 3D 80 3E 80 3F          7<.=.>.?
0420: 80 00                                             ..              
```

#### Opcodes

```
  0: 0x0418 [0x37] UPDATE_EVENT_POSITION_AND_DIR: x=-33.307*, z=280.466*, y=-13.000*, direction=236.2°*
  1: 0x0421 [0x00] END_REQSTACK()
```

### Event 65535.33

#### Metadata

| Field        | Value    |
|--------------|----------|
| Entrypoint   | 0x0422   |
| Data Size    | 24 bytes |
| Instructions | 6        |

```
      00 01 02 03 04 05 06 07  08 09 0A 0B 0C 0D 0E 0F
      -- -- -- -- -- -- -- --  -- -- -- -- -- -- -- --
0420:       32 26 80 1F 00 40  80 41 80 3E 80 1F 01 6F    2&...@.A.>...o
0430: 4A 57 00 0F 01 53 00 0F  01 00                    JW...S....      
```

#### Opcodes

```
  0: 0x0422 [0x32] ExtData[1]->MainSpeed = 40* * 0.1
  1: 0x0425 [0x1F] MOVE_ENTITY: EventEntity moves to X=-24.608*, Z=279.180*, Y=-13.000*
  2: 0x042D [0x1F] MOVE_ENTITY: Update entity position (mode=1)
  3: 0x042F [0x6F] WAIT_FRAME_DELAY: Yield until WaitTime reaches zero
  4: 0x0430 [0x4A] Pyo Nzon (ID: 17760343/0x010F0057) looks at Papo-Hopo (ID: 17760339/0x010F0053)
  5: 0x0439 [0x00] END_REQSTACK()
```

### Event 65535.34

#### Metadata

| Field        | Value   |
|--------------|---------|
| Entrypoint   | 0x043A  |
| Data Size    | 5 bytes |
| Instructions | 3       |

```
      00 01 02 03 04 05 06 07  08 09 0A 0B 0C 0D 0E 0F
      -- -- -- -- -- -- -- --  -- -- -- -- -- -- -- --
0430:                                1D 42 80 23 00               .B.#. 
```

#### Opcodes

```
  0: 0x043A [0x1D] PRINT_EVENT_MESSAGE(message_id=4014*)
    → "Did she say "g-ghost"!?"
  1: 0x043D [0x23] WAIT_FOR_DIALOG_INTERACTION
  2: 0x043E [0x00] END_REQSTACK()
```

### Event 65535.35

#### Metadata

| Field        | Value    |
|--------------|----------|
| Entrypoint   | 0x043F   |
| Data Size    | 19 bytes |
| Instructions | 5        |

```
      00 01 02 03 04 05 06 07  08 09 0A 0B 0C 0D 0E 0F
      -- -- -- -- -- -- -- --  -- -- -- -- -- -- -- --
0430:                                               29                 )
0440: 08 57 00 0F 01 01 1D 43  80 23 29 08 57 00 0F 01  .W.....C.#).W...
0450: 02 00                                             ..              
```

#### Opcodes

```
  0: 0x043F [0x29] REQ_SET_WAIT(priority=0x08, entity_id=Pyo Nzon (ID: 17760343/0x010F0057), tag_num=0x01)
  1: 0x0446 [0x1D] PRINT_EVENT_MESSAGE(message_id=4023*)
    → "Don't scarrre us like that!"
  2: 0x0449 [0x23] WAIT_FOR_DIALOG_INTERACTION
  3: 0x044A [0x29] REQ_SET_WAIT(priority=0x08, entity_id=Pyo Nzon (ID: 17760343/0x010F0057), tag_num=0x02)
  4: 0x0451 [0x00] END_REQSTACK()
```

### Event 65535.36

#### Metadata

| Field        | Value    |
|--------------|----------|
| Entrypoint   | 0x0452   |
| Data Size    | 27 bytes |
| Instructions | 7        |

```
      00 01 02 03 04 05 06 07  08 09 0A 0B 0C 0D 0E 0F
      -- -- -- -- -- -- -- --  -- -- -- -- -- -- -- --
0450:       1C 44 80 37 45 80  46 80 3A 80 47 80 32 26    .D.7E.F.:.G.2&
0460: 80 1F 00 48 80 49 80 4A  80 1F 01 6F 00           ...H.I.J...o.   
```

#### Opcodes

```
  0: 0x0452 [0x1C] WAIT(180* ticks)
  1: 0x0455 [0x37] UPDATE_EVENT_POSITION_AND_DIR: x=-25.438*, z=260.768*, y=-12.999*, direction=89.5°*
  2: 0x045E [0x32] ExtData[1]->MainSpeed = 40* * 0.1
  3: 0x0461 [0x1F] MOVE_ENTITY: EventEntity moves to X=-25.168*, Z=252.986*, Y=-12.311*
  4: 0x0469 [0x1F] MOVE_ENTITY: Update entity position (mode=1)
  5: 0x046B [0x6F] WAIT_FRAME_DELAY: Yield until WaitTime reaches zero
  6: 0x046C [0x00] END_REQSTACK()
```

### Event 65535.37

#### Metadata

| Field        | Value    |
|--------------|----------|
| Entrypoint   | 0x046D   |
| Data Size    | 41 bytes |
| Instructions | 10       |

```
      00 01 02 03 04 05 06 07  08 09 0A 0B 0C 0D 0E 0F
      -- -- -- -- -- -- -- --  -- -- -- -- -- -- -- --
0460:                                         4A 57 00               JW.
0470: 0F 01 56 00 0F 01 1C 26  80 4A 57 00 0F 01 52 00  ..V....&.JW...R.
0480: 0F 01 1C 00 80 32 26 80  1F 00 4B 80 4C 80 4D 80  .....2&...K.L.M.
0490: 1F 01 6F 22 01 00                                 ..o"..          
```

#### Opcodes

```
  0: 0x046D [0x4A] Pyo Nzon (ID: 17760343/0x010F0057) looks at Yafa Yaa (ID: 17760342/0x010F0056)
  1: 0x0476 [0x1C] WAIT(40* ticks)
  2: 0x0479 [0x4A] Pyo Nzon (ID: 17760343/0x010F0057) looks at Kohlo-Lakolo (ID: 17760338/0x010F0052)
  3: 0x0482 [0x1C] WAIT(80* ticks)
  4: 0x0485 [0x32] ExtData[1]->MainSpeed = 40* * 0.1
  5: 0x0488 [0x1F] MOVE_ENTITY: EventEntity moves to X=-36.334*, Z=242.969*, Y=-12.499*
  6: 0x0490 [0x1F] MOVE_ENTITY: Update entity position (mode=1)
  7: 0x0492 [0x6F] WAIT_FRAME_DELAY: Yield until WaitTime reaches zero
  8: 0x0493 [0x22] ENTITY_HIDE_FLAG(enabled=0x01)
  9: 0x0495 [0x00] END_REQSTACK()
```

### Event 65535.38

#### Metadata

| Field        | Value   |
|--------------|---------|
| Entrypoint   | 0x0496  |
| Data Size    | 5 bytes |
| Instructions | 3       |

```
      00 01 02 03 04 05 06 07  08 09 0A 0B 0C 0D 0E 0F
      -- -- -- -- -- -- -- --  -- -- -- -- -- -- -- --
0490:                   1D 4E  80 23 00                       .N.#.     
```

#### Opcodes

```
  0: 0x0496 [0x1D] PRINT_EVENT_MESSAGE(message_id=4053*)
    → "But it was still frightening enough! I swearrr my tail has shrrrunk an ilm!"
  1: 0x0499 [0x23] WAIT_FOR_DIALOG_INTERACTION
  2: 0x049A [0x00] END_REQSTACK()
```

### Event 323

#### Metadata

| Field        | Value   |
|--------------|---------|
| Entrypoint   | 0x049B  |
| Data Size    | 1 bytes |
| Instructions | 1       |

```
      00 01 02 03 04 05 06 07  08 09 0A 0B 0C 0D 0E 0F
      -- -- -- -- -- -- -- --  -- -- -- -- -- -- -- --
0490:                                   00                         .    
```

#### Opcodes

```
  0: 0x049B [0x00] END_REQSTACK()
```

### Event 65535.39

#### Metadata

| Field        | Value    |
|--------------|----------|
| Entrypoint   | 0x049C   |
| Data Size    | 10 bytes |
| Instructions | 2        |

```
      00 01 02 03 04 05 06 07  08 09 0A 0B 0C 0D 0E 0F
      -- -- -- -- -- -- -- --  -- -- -- -- -- -- -- --
0490:                                      37 4F 80 50              7O.P
04A0: 80 51 80 52 80 00                                 .Q.R..          
```

#### Opcodes

```
  0: 0x049C [0x37] UPDATE_EVENT_POSITION_AND_DIR: x=-26.937*, z=263.312*, y=-17.999*, direction=137.7°*
  1: 0x04A5 [0x00] END_REQSTACK()
```

### Event 65535.40

#### Metadata

| Field        | Value    |
|--------------|----------|
| Entrypoint   | 0x04A6   |
| Data Size    | 43 bytes |
| Instructions | 9        |

```
      00 01 02 03 04 05 06 07  08 09 0A 0B 0C 0D 0E 0F
      -- -- -- -- -- -- -- --  -- -- -- -- -- -- -- --
04A0:                   1C 44  80 37 53 80 54 80 55 80        .D.7S.T.U.
04B0: 56 80 1F 00 57 80 58 80  59 80 1F 01 1F 00 5A 80  V...W.X.Y.....Z.
04C0: 5B 80 5C 80 1F 01 6F 4A  57 00 0F 01 52 00 0F 01  [.\...oJW...R...
04D0: 00                                                .               
```

#### Opcodes

```
  0: 0x04A6 [0x1C] WAIT(180* ticks)
  1: 0x04A9 [0x37] UPDATE_EVENT_POSITION_AND_DIR: x=-31.952*, z=245.776*, y=-12.422*, direction=292.5°*
  2: 0x04B2 [0x1F] MOVE_ENTITY: EventEntity moves to X=-28.794*, Z=248.724*, Y=-12.281*
  3: 0x04BA [0x1F] MOVE_ENTITY: Update entity position (mode=1)
  4: 0x04BC [0x1F] MOVE_ENTITY: EventEntity moves to X=-25.377*, Z=255.180*, Y=-12.430*
  5: 0x04C4 [0x1F] MOVE_ENTITY: Update entity position (mode=1)
  6: 0x04C6 [0x6F] WAIT_FRAME_DELAY: Yield until WaitTime reaches zero
  7: 0x04C7 [0x4A] Pyo Nzon (ID: 17760343/0x010F0057) looks at Kohlo-Lakolo (ID: 17760338/0x010F0052)
  8: 0x04D0 [0x00] END_REQSTACK()
```

### Event 65535.41

#### Metadata

| Field        | Value    |
|--------------|----------|
| Entrypoint   | 0x04D1   |
| Data Size    | 18 bytes |
| Instructions | 6        |

```
      00 01 02 03 04 05 06 07  08 09 0A 0B 0C 0D 0E 0F
      -- -- -- -- -- -- -- --  -- -- -- -- -- -- -- --
04D0:    32 26 80 1F 00 5D 80  5E 80 5F 80 1F 01 6F 39   2&...].^._...o9
04E0: 60 80 00                                          `..             
```

#### Opcodes

```
  0: 0x04D1 [0x32] ExtData[1]->MainSpeed = 40* * 0.1
  1: 0x04D4 [0x1F] MOVE_ENTITY: EventEntity moves to X=-27.133*, Z=265.256*, Y=-18.000*
  2: 0x04DC [0x1F] MOVE_ENTITY: Update entity position (mode=1)
  3: 0x04DE [0x6F] WAIT_FRAME_DELAY: Yield until WaitTime reaches zero
  4: 0x04DF [0x39] SET_ENTITY_DIRECTION(direction=6.0°*)
  5: 0x04E2 [0x00] END_REQSTACK()
```

### Event 65535.42

#### Metadata

| Field        | Value    |
|--------------|----------|
| Entrypoint   | 0x04E3   |
| Data Size    | 15 bytes |
| Instructions | 5        |

```
      00 01 02 03 04 05 06 07  08 09 0A 0B 0C 0D 0E 0F
      -- -- -- -- -- -- -- --  -- -- -- -- -- -- -- --
04E0:          32 26 80 1F 00  61 80 62 80 63 80 1F 01     2&...a.b.c...
04F0: 6F 00                                             o.              
```

#### Opcodes

```
  0: 0x04E3 [0x32] ExtData[1]->MainSpeed = 40* * 0.1
  1: 0x04E6 [0x1F] MOVE_ENTITY: EventEntity moves to X=-19.651*, Z=273.488*, Y=-17.500*
  2: 0x04EE [0x1F] MOVE_ENTITY: Update entity position (mode=1)
  3: 0x04F0 [0x6F] WAIT_FRAME_DELAY: Yield until WaitTime reaches zero
  4: 0x04F1 [0x00] END_REQSTACK()
```

### Event 65535.43

#### Metadata

| Field        | Value    |
|--------------|----------|
| Entrypoint   | 0x04F2   |
| Data Size    | 10 bytes |
| Instructions | 2        |

```
      00 01 02 03 04 05 06 07  08 09 0A 0B 0C 0D 0E 0F
      -- -- -- -- -- -- -- --  -- -- -- -- -- -- -- --
04F0:       37 64 80 65 80 66  80 67 80 00                7d.e.f.g..    
```

#### Opcodes

```
  0: 0x04F2 [0x37] UPDATE_EVENT_POSITION_AND_DIR: x=-26.949*, z=256.606*, y=-12.552*, direction=306.3°*
  1: 0x04FB [0x00] END_REQSTACK()
```

### Event 65535.44

#### Metadata

| Field        | Value    |
|--------------|----------|
| Entrypoint   | 0x04FC   |
| Data Size    | 27 bytes |
| Instructions | 8        |

```
      00 01 02 03 04 05 06 07  08 09 0A 0B 0C 0D 0E 0F
      -- -- -- -- -- -- -- --  -- -- -- -- -- -- -- --
04F0:                                      32 26 80 1F              2&..
0500: 00 68 80 69 80 6A 80 1F  01 1F 00 6B 80 6C 80 4D  .h.i.j.....k.l.M
0510: 80 1F 01 6F 22 01 00                              ...o"..         
```

#### Opcodes

```
  0: 0x04FC [0x32] ExtData[1]->MainSpeed = 40* * 0.1
  1: 0x04FF [0x1F] MOVE_ENTITY: EventEntity moves to X=-29.721*, Z=252.207*, Y=-12.262*
  2: 0x0507 [0x1F] MOVE_ENTITY: Update entity position (mode=1)
  3: 0x0509 [0x1F] MOVE_ENTITY: EventEntity moves to X=-37.000*, Z=245.097*, Y=-12.499*
  4: 0x0511 [0x1F] MOVE_ENTITY: Update entity position (mode=1)
  5: 0x0513 [0x6F] WAIT_FRAME_DELAY: Yield until WaitTime reaches zero
  6: 0x0514 [0x22] ENTITY_HIDE_FLAG(enabled=0x01)
  7: 0x0516 [0x00] END_REQSTACK()
```

### Event 65535.45

#### Metadata

| Field        | Value   |
|--------------|---------|
| Entrypoint   | 0x0517  |
| Data Size    | 5 bytes |
| Instructions | 3       |

```
      00 01 02 03 04 05 06 07  08 09 0A 0B 0C 0D 0E 0F
      -- -- -- -- -- -- -- --  -- -- -- -- -- -- -- --
0510:                      1D  6D 80 23 00                     .m.#.    
```

#### Opcodes

```
  0: 0x0517 [0x1D] PRINT_EVENT_MESSAGE(message_id=3965*)
    → "Shhh...! Everyone quiet! She's coming!"
  1: 0x051A [0x23] WAIT_FOR_DIALOG_INTERACTION
  2: 0x051B [0x00] END_REQSTACK()
```

### Event 65535.46

#### Metadata

| Field        | Value   |
|--------------|---------|
| Entrypoint   | 0x051C  |
| Data Size    | 5 bytes |
| Instructions | 3       |

```
      00 01 02 03 04 05 06 07  08 09 0A 0B 0C 0D 0E 0F
      -- -- -- -- -- -- -- --  -- -- -- -- -- -- -- --
0510:                                      1D 6E 80 23              .n.#
0520: 00                                                .               
```

#### Opcodes

```
  0: 0x051C [0x1D] PRINT_EVENT_MESSAGE(message_id=3975*)
    → "Herrre we go again!"
  1: 0x051F [0x23] WAIT_FOR_DIALOG_INTERACTION
  2: 0x0520 [0x00] END_REQSTACK()
```

### Event 496

#### Metadata

| Field        | Value   |
|--------------|---------|
| Entrypoint   | 0x0521  |
| Data Size    | 1 bytes |
| Instructions | 1       |

```
      00 01 02 03 04 05 06 07  08 09 0A 0B 0C 0D 0E 0F
      -- -- -- -- -- -- -- --  -- -- -- -- -- -- -- --
0520:    00                                              .              
```

#### Opcodes

```
  0: 0x0521 [0x00] END_REQSTACK()
```

### Event 65535.47

#### Metadata

| Field        | Value   |
|--------------|---------|
| Entrypoint   | 0x0522  |
| Data Size    | 9 bytes |
| Instructions | 5       |

```
      00 01 02 03 04 05 06 07  08 09 0A 0B 0C 0D 0E 0F
      -- -- -- -- -- -- -- --  -- -- -- -- -- -- -- --
0520:       1D 6F 80 23 1D 70  80 23 00                   .o.#.p.#.     
```

#### Opcodes

```
  0: 0x0522 [0x1D] PRINT_EVENT_MESSAGE(message_id=12420*)
    → "That's rrright. Even if we wanted to, we couldn't give it back."
  1: 0x0525 [0x23] WAIT_FOR_DIALOG_INTERACTION
  2: 0x0526 [0x1D] PRINT_EVENT_MESSAGE(message_id=12421*)
    → "But that old fuddy-duddy won't listen to a word we say!"
  3: 0x0529 [0x23] WAIT_FOR_DIALOG_INTERACTION
  4: 0x052A [0x00] END_REQSTACK()
```

### Event 497

#### Metadata

| Field        | Value   |
|--------------|---------|
| Entrypoint   | 0x052B  |
| Data Size    | 1 bytes |
| Instructions | 1       |

```
      00 01 02 03 04 05 06 07  08 09 0A 0B 0C 0D 0E 0F
      -- -- -- -- -- -- -- --  -- -- -- -- -- -- -- --
0520:                                   00                         .    
```

#### Opcodes

```
  0: 0x052B [0x00] END_REQSTACK()
```

### Event 65535.48

#### Metadata

| Field        | Value    |
|--------------|----------|
| Entrypoint   | 0x052C   |
| Data Size    | 10 bytes |
| Instructions | 2        |

```
      00 01 02 03 04 05 06 07  08 09 0A 0B 0C 0D 0E 0F
      -- -- -- -- -- -- -- --  -- -- -- -- -- -- -- --
0520:                                      37 71 80 72              7q.r
0530: 80 08 80 73 80 00                                 ...s..          
```

#### Opcodes

```
  0: 0x052C [0x37] UPDATE_EVENT_POSITION_AND_DIR: x=-21.638*, z=189.250*, y=-5.999*, direction=236.7°*
  1: 0x0535 [0x00] END_REQSTACK()
```

### Event 65535.49

#### Metadata

| Field        | Value   |
|--------------|---------|
| Entrypoint   | 0x0536  |
| Data Size    | 5 bytes |
| Instructions | 3       |

```
      00 01 02 03 04 05 06 07  08 09 0A 0B 0C 0D 0E 0F
      -- -- -- -- -- -- -- --  -- -- -- -- -- -- -- --
0530:                   1D 74  80 23 00                       .t.#.     
```

#### Opcodes

```
  0: 0x0536 [0x1D] PRINT_EVENT_MESSAGE(message_id=12445*)
    → "That's no good. We should say it fell into the ocean!"
  1: 0x0539 [0x23] WAIT_FOR_DIALOG_INTERACTION
  2: 0x053A [0x00] END_REQSTACK()
```

### Event 502

#### Metadata

| Field        | Value    |
|--------------|----------|
| Entrypoint   | 0x053B   |
| Data Size    | 33 bytes |
| Instructions | 12       |

```
      00 01 02 03 04 05 06 07  08 09 0A 0B 0C 0D 0E 0F
      -- -- -- -- -- -- -- --  -- -- -- -- -- -- -- --
0530:                                   1E F0 FF FF 7F             .....
0540: 6F 70 29 08 57 00 0F 01  01 1D 75 80 23 1D 76 80  op).W.....u.#.v.
0550: 23 29 08 57 00 0F 01 02  20 00 21 00              #).W.... .!.    
```

#### Opcodes

```
  0: 0x053B [0x1E] EventEntity looks at LocalPlayer and starts talking
  1: 0x0540 [0x6F] WAIT_FRAME_DELAY: Yield until WaitTime reaches zero
  2: 0x0541 [0x70] WAIT_ENTITY_RENDER_FLAG: Wait while EventEntity->Render.Flags3 bit 2 is set (cancel turn if not)
  3: 0x0542 [0x29] REQ_SET_WAIT(priority=0x08, entity_id=Pyo Nzon (ID: 17760343/0x010F0057), tag_num=0x01)
  4: 0x0549 [0x1D] PRINT_EVENT_MESSAGE(message_id=12433*)
    → "If he's got all that money, then he doesn't need the Mana Orb!"
  5: 0x054C [0x23] WAIT_FOR_DIALOG_INTERACTION
  6: 0x054D [0x1D] PRINT_EVENT_MESSAGE(message_id=12434*)
    → "Only Cardians rrreally need Mana Orbs! Wait, does that mean the old guy is actually a Cardian?"
  7: 0x0550 [0x23] WAIT_FOR_DIALOG_INTERACTION
  8: 0x0551 [0x29] REQ_SET_WAIT(priority=0x08, entity_id=Pyo Nzon (ID: 17760343/0x010F0057), tag_num=0x02)
  9: 0x0558 [0x20] SET_CLI_EVENT_UC_FLAG: Unlock player control
 10: 0x055A [0x21] END_EVENT
 11: 0x055B [0x00] END_REQSTACK()
```

### Event 510

#### Metadata

| Field        | Value    |
|--------------|----------|
| Entrypoint   | 0x055C   |
| Data Size    | 33 bytes |
| Instructions | 12       |

```
      00 01 02 03 04 05 06 07  08 09 0A 0B 0C 0D 0E 0F
      -- -- -- -- -- -- -- --  -- -- -- -- -- -- -- --
0550:                                      1E F0 FF FF              ....
0560: 7F 6F 70 29 08 57 00 0F  01 01 1D 77 80 23 1D 78  .op).W.....w.#.x
0570: 80 23 29 08 57 00 0F 01  02 20 00 21 00           .#).W.... .!.   
```

#### Opcodes

```
  0: 0x055C [0x1E] EventEntity looks at LocalPlayer and starts talking
  1: 0x0561 [0x6F] WAIT_FRAME_DELAY: Yield until WaitTime reaches zero
  2: 0x0562 [0x70] WAIT_ENTITY_RENDER_FLAG: Wait while EventEntity->Render.Flags3 bit 2 is set (cancel turn if not)
  3: 0x0563 [0x29] REQ_SET_WAIT(priority=0x08, entity_id=Pyo Nzon (ID: 17760343/0x010F0057), tag_num=0x01)
  4: 0x056A [0x1D] PRINT_EVENT_MESSAGE(message_id=12468*)
    → "If we come acrrross Joker, we can't tell him any of this."
  5: 0x056D [0x23] WAIT_FOR_DIALOG_INTERACTION
  6: 0x056E [0x1D] PRINT_EVENT_MESSAGE(message_id=12469*)
    → "It would be such a shock for him. If it was me, I'd be crrrying into my milk..."
  7: 0x0571 [0x23] WAIT_FOR_DIALOG_INTERACTION
  8: 0x0572 [0x29] REQ_SET_WAIT(priority=0x08, entity_id=Pyo Nzon (ID: 17760343/0x010F0057), tag_num=0x02)
  9: 0x0579 [0x20] SET_CLI_EVENT_UC_FLAG: Unlock player control
 10: 0x057B [0x21] END_EVENT
 11: 0x057C [0x00] END_REQSTACK()
```

### Event 513

#### Metadata

| Field        | Value   |
|--------------|---------|
| Entrypoint   | 0x057D  |
| Data Size    | 1 bytes |
| Instructions | 1       |

```
      00 01 02 03 04 05 06 07  08 09 0A 0B 0C 0D 0E 0F
      -- -- -- -- -- -- -- --  -- -- -- -- -- -- -- --
0570:                                         00                     .  
```

#### Opcodes

```
  0: 0x057D [0x00] END_REQSTACK()
```

### Event 65535.50

#### Metadata

| Field        | Value   |
|--------------|---------|
| Entrypoint   | 0x057E  |
| Data Size    | 5 bytes |
| Instructions | 3       |

```
      00 01 02 03 04 05 06 07  08 09 0A 0B 0C 0D 0E 0F
      -- -- -- -- -- -- -- --  -- -- -- -- -- -- -- --
0570:                                            1D 79                .y
0580: 80 23 00                                          .#.             
```

#### Opcodes

```
  0: 0x057E [0x1D] PRINT_EVENT_MESSAGE(message_id=12479*)
    → "Who knows what he'll do! How can we stop him?"
  1: 0x0581 [0x23] WAIT_FOR_DIALOG_INTERACTION
  2: 0x0582 [0x00] END_REQSTACK()
```

### Event 65535.51

#### Metadata

| Field        | Value   |
|--------------|---------|
| Entrypoint   | 0x0583  |
| Data Size    | 5 bytes |
| Instructions | 3       |

```
      00 01 02 03 04 05 06 07  08 09 0A 0B 0C 0D 0E 0F
      -- -- -- -- -- -- -- --  -- -- -- -- -- -- -- --
0580:          1D 7A 80 23 00                              .z.#.        
```

#### Opcodes

```
  0: 0x0583 [0x1D] PRINT_EVENT_MESSAGE(message_id=12485*)
    → "You're rrright. If we can't fool the gatehouse guards, Joker will be caught before we can get anywhere!"
  1: 0x0586 [0x23] WAIT_FOR_DIALOG_INTERACTION
  2: 0x0587 [0x00] END_REQSTACK()
```

### Event 517

#### Metadata

| Field        | Value    |
|--------------|----------|
| Entrypoint   | 0x0588   |
| Data Size    | 33 bytes |
| Instructions | 12       |

```
      00 01 02 03 04 05 06 07  08 09 0A 0B 0C 0D 0E 0F
      -- -- -- -- -- -- -- --  -- -- -- -- -- -- -- --
0580:                          1E F0 FF FF 7F 6F 70 29          .....op)
0590: 08 57 00 0F 01 01 1D 7B  80 23 1D 7C 80 23 29 08  .W.....{.#.|.#).
05A0: 57 00 0F 01 02 20 00 21  00                       W.... .!.       
```

#### Opcodes

```
  0: 0x0588 [0x1E] EventEntity looks at LocalPlayer and starts talking
  1: 0x058D [0x6F] WAIT_FRAME_DELAY: Yield until WaitTime reaches zero
  2: 0x058E [0x70] WAIT_ENTITY_RENDER_FLAG: Wait while EventEntity->Render.Flags3 bit 2 is set (cancel turn if not)
  3: 0x058F [0x29] REQ_SET_WAIT(priority=0x08, entity_id=Pyo Nzon (ID: 17760343/0x010F0057), tag_num=0x01)
  4: 0x0596 [0x1D] PRINT_EVENT_MESSAGE(message_id=12502*)
    → "We're not gonna let anyone hurrrt our Joker!"
  5: 0x0599 [0x23] WAIT_FOR_DIALOG_INTERACTION
  6: 0x059A [0x1D] PRINT_EVENT_MESSAGE(message_id=12503*)
    → "Joker is a member of the Star Onion Brigade! No matter the danger, we don't abandon our frrriends!"
  7: 0x059D [0x23] WAIT_FOR_DIALOG_INTERACTION
  8: 0x059E [0x29] REQ_SET_WAIT(priority=0x08, entity_id=Pyo Nzon (ID: 17760343/0x010F0057), tag_num=0x02)
  9: 0x05A5 [0x20] SET_CLI_EVENT_UC_FLAG: Unlock player control
 10: 0x05A7 [0x21] END_EVENT
 11: 0x05A8 [0x00] END_REQSTACK()
```

### Event 522

#### Metadata

| Field        | Value   |
|--------------|---------|
| Entrypoint   | 0x05A9  |
| Data Size    | 1 bytes |
| Instructions | 1       |

```
      00 01 02 03 04 05 06 07  08 09 0A 0B 0C 0D 0E 0F
      -- -- -- -- -- -- -- --  -- -- -- -- -- -- -- --
05A0:                             00                             .      
```

#### Opcodes

```
  0: 0x05A9 [0x00] END_REQSTACK()
```

### Event 527

#### Metadata

| Field        | Value    |
|--------------|----------|
| Entrypoint   | 0x05AA   |
| Data Size    | 33 bytes |
| Instructions | 12       |

```
      00 01 02 03 04 05 06 07  08 09 0A 0B 0C 0D 0E 0F
      -- -- -- -- -- -- -- --  -- -- -- -- -- -- -- --
05A0:                                1E F0 FF FF 7F 6F            .....o
05B0: 70 1D 7D 80 23 29 08 57  00 0F 01 01 1D 7E 80 23  p.}.#).W.....~.#
05C0: 29 08 57 00 0F 01 02 20  00 21 00                 ).W.... .!.     
```

#### Opcodes

```
  0: 0x05AA [0x1E] EventEntity looks at LocalPlayer and starts talking
  1: 0x05AF [0x6F] WAIT_FRAME_DELAY: Yield until WaitTime reaches zero
  2: 0x05B0 [0x70] WAIT_ENTITY_RENDER_FLAG: Wait while EventEntity->Render.Flags3 bit 2 is set (cancel turn if not)
  3: 0x05B1 [0x1D] PRINT_EVENT_MESSAGE(message_id=12547*)
    → "Was Joker rrreally friends with those bad Cardians? He didn't seem like a bad Cardian at all."
  4: 0x05B4 [0x23] WAIT_FOR_DIALOG_INTERACTION
  5: 0x05B5 [0x29] REQ_SET_WAIT(priority=0x08, entity_id=Pyo Nzon (ID: 17760343/0x010F0057), tag_num=0x01)
  6: 0x05BC [0x1D] PRINT_EVENT_MESSAGE(message_id=12548*)
    → "Did he go with those Cardians even though he didn't want to? If that's the case, we have to go rrrescue him!"
  7: 0x05BF [0x23] WAIT_FOR_DIALOG_INTERACTION
  8: 0x05C0 [0x29] REQ_SET_WAIT(priority=0x08, entity_id=Pyo Nzon (ID: 17760343/0x010F0057), tag_num=0x02)
  9: 0x05C7 [0x20] SET_CLI_EVENT_UC_FLAG: Unlock player control
 10: 0x05C9 [0x21] END_EVENT
 11: 0x05CA [0x00] END_REQSTACK()
```

### Event 532

#### Metadata

| Field        | Value   |
|--------------|---------|
| Entrypoint   | 0x05CB  |
| Data Size    | 1 bytes |
| Instructions | 1       |

```
      00 01 02 03 04 05 06 07  08 09 0A 0B 0C 0D 0E 0F
      -- -- -- -- -- -- -- --  -- -- -- -- -- -- -- --
05C0:                                   00                         .    
```

#### Opcodes

```
  0: 0x05CB [0x00] END_REQSTACK()
```

### Event 534

#### Metadata

| Field        | Value   |
|--------------|---------|
| Entrypoint   | 0x05CC  |
| Data Size    | 1 bytes |
| Instructions | 1       |

```
      00 01 02 03 04 05 06 07  08 09 0A 0B 0C 0D 0E 0F
      -- -- -- -- -- -- -- --  -- -- -- -- -- -- -- --
05C0:                                      00                       .   
```

#### Opcodes

```
  0: 0x05CC [0x00] END_REQSTACK()
```

### Event 539

#### Metadata

| Field        | Value    |
|--------------|----------|
| Entrypoint   | 0x05CD   |
| Data Size    | 29 bytes |
| Instructions | 10       |

```
      00 01 02 03 04 05 06 07  08 09 0A 0B 0C 0D 0E 0F
      -- -- -- -- -- -- -- --  -- -- -- -- -- -- -- --
05C0:                                         1E F0 FF               ...
05D0: FF 7F 6F 70 29 08 57 00  0F 01 09 1D 7F 80 23 29  ..op).W.......#)
05E0: 08 57 00 0F 01 0A 20 00  21 00                    .W.... .!.      
```

#### Opcodes

```
  0: 0x05CD [0x1E] EventEntity looks at LocalPlayer and starts talking
  1: 0x05D2 [0x6F] WAIT_FRAME_DELAY: Yield until WaitTime reaches zero
  2: 0x05D3 [0x70] WAIT_ENTITY_RENDER_FLAG: Wait while EventEntity->Render.Flags3 bit 2 is set (cancel turn if not)
  3: 0x05D4 [0x29] REQ_SET_WAIT(priority=0x08, entity_id=Pyo Nzon (ID: 17760343/0x010F0057), tag_num=0x09)
  4: 0x05DB [0x1D] PRINT_EVENT_MESSAGE(message_id=12560*)
    → "My head is still spinning. I want to talk about what happened, but I don't even know where to starrrt."
  5: 0x05DE [0x23] WAIT_FOR_DIALOG_INTERACTION
  6: 0x05DF [0x29] REQ_SET_WAIT(priority=0x08, entity_id=Pyo Nzon (ID: 17760343/0x010F0057), tag_num=0x0A)
  7: 0x05E6 [0x20] SET_CLI_EVENT_UC_FLAG: Unlock player control
  8: 0x05E8 [0x21] END_EVENT
  9: 0x05E9 [0x00] END_REQSTACK()
```

### Event 542

#### Metadata

| Field        | Value   |
|--------------|---------|
| Entrypoint   | 0x05EA  |
| Data Size    | 1 bytes |
| Instructions | 1       |

```
      00 01 02 03 04 05 06 07  08 09 0A 0B 0C 0D 0E 0F
      -- -- -- -- -- -- -- --  -- -- -- -- -- -- -- --
05E0:                                00                           .     
```

#### Opcodes

```
  0: 0x05EA [0x00] END_REQSTACK()
```

### Event 589

#### Metadata

| Field        | Value    |
|--------------|----------|
| Entrypoint   | 0x05EB   |
| Data Size    | 33 bytes |
| Instructions | 12       |

```
      00 01 02 03 04 05 06 07  08 09 0A 0B 0C 0D 0E 0F
      -- -- -- -- -- -- -- --  -- -- -- -- -- -- -- --
05E0:                                   1E F0 FF FF 7F             .....
05F0: 6F 70 29 08 57 00 0F 01  09 1D 80 80 23 1D 81 80  op).W.......#...
0600: 23 29 08 57 00 0F 01 0A  20 00 21 00              #).W.... .!.    
```

#### Opcodes

```
  0: 0x05EB [0x1E] EventEntity looks at LocalPlayer and starts talking
  1: 0x05F0 [0x6F] WAIT_FRAME_DELAY: Yield until WaitTime reaches zero
  2: 0x05F1 [0x70] WAIT_ENTITY_RENDER_FLAG: Wait while EventEntity->Render.Flags3 bit 2 is set (cancel turn if not)
  3: 0x05F2 [0x29] REQ_SET_WAIT(priority=0x08, entity_id=Pyo Nzon (ID: 17760343/0x010F0057), tag_num=0x09)
  4: 0x05F9 [0x1D] PRINT_EVENT_MESSAGE(message_id=12715*)
    → "All those twinkling stars! It was so prrretty!"
  5: 0x05FC [0x23] WAIT_FOR_DIALOG_INTERACTION
  6: 0x05FD [0x1D] PRINT_EVENT_MESSAGE(message_id=12716*)
    → "Joker's become a grrrand wizard! Or maybe a grrrand wizard had been turrrned into Joker?"
  7: 0x0600 [0x23] WAIT_FOR_DIALOG_INTERACTION
  8: 0x0601 [0x29] REQ_SET_WAIT(priority=0x08, entity_id=Pyo Nzon (ID: 17760343/0x010F0057), tag_num=0x0A)
  9: 0x0608 [0x20] SET_CLI_EVENT_UC_FLAG: Unlock player control
 10: 0x060A [0x21] END_EVENT
 11: 0x060B [0x00] END_REQSTACK()
```

### Event 584

#### Metadata

| Field        | Value   |
|--------------|---------|
| Entrypoint   | 0x060C  |
| Data Size    | 1 bytes |
| Instructions | 1       |

```
      00 01 02 03 04 05 06 07  08 09 0A 0B 0C 0D 0E 0F
      -- -- -- -- -- -- -- --  -- -- -- -- -- -- -- --
0600:                                      00                       .   
```

#### Opcodes

```
  0: 0x060C [0x00] END_REQSTACK()
```

### Event 65535.52

#### Metadata

| Field        | Value    |
|--------------|----------|
| Entrypoint   | 0x060D   |
| Data Size    | 10 bytes |
| Instructions | 2        |

```
      00 01 02 03 04 05 06 07  08 09 0A 0B 0C 0D 0E 0F
      -- -- -- -- -- -- -- --  -- -- -- -- -- -- -- --
0600:                                         37 82 80               7..
0610: 83 80 08 80 84 80 00                              .......         
```

#### Opcodes

```
  0: 0x060D [0x37] UPDATE_EVENT_POSITION_AND_DIR: x=-25.232*, z=190.761*, y=-5.999*, direction=130.5°*
  1: 0x0616 [0x00] END_REQSTACK()
```

### Event 915

#### Metadata

| Field        | Value   |
|--------------|---------|
| Entrypoint   | 0x0617  |
| Data Size    | 1 bytes |
| Instructions | 1       |

```
      00 01 02 03 04 05 06 07  08 09 0A 0B 0C 0D 0E 0F
      -- -- -- -- -- -- -- --  -- -- -- -- -- -- -- --
0610:                      00                                  .        
```

#### Opcodes

```
  0: 0x0617 [0x00] END_REQSTACK()
```

### Event 916

#### Metadata

| Field        | Value   |
|--------------|---------|
| Entrypoint   | 0x0618  |
| Data Size    | 1 bytes |
| Instructions | 1       |

```
      00 01 02 03 04 05 06 07  08 09 0A 0B 0C 0D 0E 0F
      -- -- -- -- -- -- -- --  -- -- -- -- -- -- -- --
0610:                          00                               .       
```

#### Opcodes

```
  0: 0x0618 [0x00] END_REQSTACK()
```

### Event 924

#### Metadata

| Field        | Value   |
|--------------|---------|
| Entrypoint   | 0x0619  |
| Data Size    | 1 bytes |
| Instructions | 1       |

```
      00 01 02 03 04 05 06 07  08 09 0A 0B 0C 0D 0E 0F
      -- -- -- -- -- -- -- --  -- -- -- -- -- -- -- --
0610:                             00                             .      
```

#### Opcodes

```
  0: 0x0619 [0x00] END_REQSTACK()
```

### Event 922

#### Metadata

| Field        | Value   |
|--------------|---------|
| Entrypoint   | 0x061A  |
| Data Size    | 1 bytes |
| Instructions | 1       |

```
      00 01 02 03 04 05 06 07  08 09 0A 0B 0C 0D 0E 0F
      -- -- -- -- -- -- -- --  -- -- -- -- -- -- -- --
0610:                                00                           .     
```

#### Opcodes

```
  0: 0x061A [0x00] END_REQSTACK()
```

### Event 925

#### Metadata

| Field        | Value   |
|--------------|---------|
| Entrypoint   | 0x061B  |
| Data Size    | 1 bytes |
| Instructions | 1       |

```
      00 01 02 03 04 05 06 07  08 09 0A 0B 0C 0D 0E 0F
      -- -- -- -- -- -- -- --  -- -- -- -- -- -- -- --
0610:                                   00                         .    
```

#### Opcodes

```
  0: 0x061B [0x00] END_REQSTACK()
```

### Event 931

#### Metadata

| Field        | Value   |
|--------------|---------|
| Entrypoint   | 0x061C  |
| Data Size    | 1 bytes |
| Instructions | 1       |

```
      00 01 02 03 04 05 06 07  08 09 0A 0B 0C 0D 0E 0F
      -- -- -- -- -- -- -- --  -- -- -- -- -- -- -- --
0610:                                      00                       .   
```

#### Opcodes

```
  0: 0x061C [0x00] END_REQSTACK()
```

### Event 933

#### Metadata

| Field        | Value   |
|--------------|---------|
| Entrypoint   | 0x061D  |
| Data Size    | 1 bytes |
| Instructions | 1       |

```
      00 01 02 03 04 05 06 07  08 09 0A 0B 0C 0D 0E 0F
      -- -- -- -- -- -- -- --  -- -- -- -- -- -- -- --
0610:                                         00                     .  
```

#### Opcodes

```
  0: 0x061D [0x00] END_REQSTACK()
```
