# 17760299 - Ada

## Common Data

| Field            | Value                   |
|------------------|-------------------------|
| Zone             | Port Windurst (ID: 240) |
| Block Size       | 428 bytes               |
| Total Events     | 14                      |
| References Count | 13                      |

## List of Events

| Event ID                 | Entrypoint   |   Size |   Instructions |
|--------------------------|--------------|--------|----------------|
| [65535](#event-65535)    | 0x0000       |      1 |              1 |
| [65535.1](#event-655351) | 0x0001       |     16 |              2 |
| [65535.2](#event-655352) | 0x0011       |     22 |              4 |
| [65535.3](#event-655353) | 0x0027       |     16 |              2 |
| [65535.4](#event-655354) | 0x0037       |     14 |              2 |
| [65535.5](#event-655355) | 0x0045       |     16 |              2 |
| [65535.6](#event-655356) | 0x0055       |     14 |              2 |
| [65535.7](#event-655357) | 0x0063       |      9 |              3 |
| [44](#event-44)          | 0x006C       |     33 |             12 |
| [47](#event-47)          | 0x008D       |     29 |             10 |
| [51](#event-51)          | 0x00AA       |     33 |             12 |
| [58](#event-58)          | 0x00CB       |     33 |             12 |
| [63](#event-63)          | 0x00EC       |     33 |             12 |
| [69](#event-69)          | 0x010D       |     33 |             12 |

## DAT References (imed_data)

|   Index | Hex Value   |   Dec Value |
|---------|-------------|-------------|
|       0 | 0x000A      |          10 |
|       1 | 0x001E      |          30 |
|       2 | 0x0C91      |        3217 |
|       3 | 0x0C92      |        3218 |
|       4 | 0x0C98      |        3224 |
|       5 | 0x0CAD      |        3245 |
|       6 | 0x0CAE      |        3246 |
|       7 | 0x0CBD      |        3261 |
|       8 | 0x0CBE      |        3262 |
|       9 | 0x0CD0      |        3280 |
|      10 | 0x0CD1      |        3281 |
|      11 | 0x0CDD      |        3293 |
|      12 | 0x0CDE      |        3294 |

## String References

- **3217**: Bastok is surrounded by a mountain range and has many Galka living in it, so it seems to have the image of an untamed land.
- **3218**: But there are romantic spots, such as the view of the drawbridge at sunset. If you are out to make sweet memories in Bastok, you can't go wrong in that area.
- **3224**: Oh, you have some business with Consul Melek? Then please head into her office through that door there.
- **3245**: You're wondering what you should do if the Yagudo realize you switched weapons on them, aren't you?
- **3246**: Well, that's where your abilities as an adventurer come into play. You should be able to think of something, shouldn't you?
- **3261**: Those Yagudo didn't take the weapons shipment without giving you trouble, did they?
- **3262**: But you were quick-witted and skilled enough to overcome it. That's the way of the true Bastoker.
- **3280**: Just because the Windurstians are trying to be friends with the Yagudo doesn't mean we should hold back from continuing our fight with the beastmen.
- **3281**: Go ahead and savage the brutes, I say! If Windurst puts forward an official complaint, I'll handle it for you.
- **3293**: What in Goddess's name happened? You carried out your assignment properly, didn't you? Then why do you look so troubled?
- **3294**: Don't tell me. I prefer not to know. It looks like if I heard what you had to say, I wouldn't be able to sleep at night. You better hurry back to our motherland.

## Events

### Event 65535

#### Metadata

| Field        | Value   |
|--------------|---------|
| Entrypoint   | 0x0000  |
| Data Size    | 1 bytes |
| Instructions | 1       |

```
      00 01 02 03 04 05 06 07  08 09 0A 0B 0C 0D 0E 0F
      -- -- -- -- -- -- -- --  -- -- -- -- -- -- -- --
0000: 00                                                .               
```

#### Opcodes

```
  0: 0x0000 [0x00] END_REQSTACK()
```

### Event 65535.1

#### Metadata

| Field        | Value    |
|--------------|----------|
| Entrypoint   | 0x0001   |
| Data Size    | 16 bytes |
| Instructions | 2        |

```
      00 01 02 03 04 05 06 07  08 09 0A 0B 0C 0D 0E 0F
      -- -- -- -- -- -- -- --  -- -- -- -- -- -- -- --
0000:    66 00 80 F8 FF FF 7F  F8 FF FF 7F 74 6C 6B 30   f..........tlk0
0010: 00                                                .               
```

#### Opcodes

```
  0: 0x0001 [0x66] LOAD_EXT_SCHEDULER_MAIN: Load scheduler "tlk0" with entities [EventEntity, EventEntity], work=10*
  1: 0x0010 [0x00] END_REQSTACK()
```

### Event 65535.2

#### Metadata

| Field        | Value    |
|--------------|----------|
| Entrypoint   | 0x0011   |
| Data Size    | 22 bytes |
| Instructions | 4        |

```
      00 01 02 03 04 05 06 07  08 09 0A 0B 0C 0D 0E 0F
      -- -- -- -- -- -- -- --  -- -- -- -- -- -- -- --
0010:    53 F8 FF FF 7F F8 FF  FF 7F 74 6C 6B 30 5E 69   S........tlk0^i
0020: 64 6C 30 1C 01 80 00                              dl0....         
```

#### Opcodes

```
  0: 0x0011 [0x53] WAIT_SCHEDULER_TASK: Wait for scheduler "tlk0" with entities [EventEntity, EventEntity]
  1: 0x001E [0x5E] EventEntity goes idle (kills current action) (animation: "idl0")
  2: 0x0023 [0x1C] WAIT(30* ticks)
  3: 0x0026 [0x00] END_REQSTACK()
```

### Event 65535.3

#### Metadata

| Field        | Value    |
|--------------|----------|
| Entrypoint   | 0x0027   |
| Data Size    | 16 bytes |
| Instructions | 2        |

```
      00 01 02 03 04 05 06 07  08 09 0A 0B 0C 0D 0E 0F
      -- -- -- -- -- -- -- --  -- -- -- -- -- -- -- --
0020:                      66  00 80 F8 FF FF 7F F8 FF         f........
0030: FF 7F 70 6F 69 31 00                              ..poi1.         
```

#### Opcodes

```
  0: 0x0027 [0x66] LOAD_EXT_SCHEDULER_MAIN: Load scheduler "poi1" with entities [EventEntity, EventEntity], work=10*
  1: 0x0036 [0x00] END_REQSTACK()
```

### Event 65535.4

#### Metadata

| Field        | Value    |
|--------------|----------|
| Entrypoint   | 0x0037   |
| Data Size    | 14 bytes |
| Instructions | 2        |

```
      00 01 02 03 04 05 06 07  08 09 0A 0B 0C 0D 0E 0F
      -- -- -- -- -- -- -- --  -- -- -- -- -- -- -- --
0030:                      53  F8 FF FF 7F F8 FF FF 7F         S........
0040: 70 6F 69 31 00                                    poi1.           
```

#### Opcodes

```
  0: 0x0037 [0x53] WAIT_SCHEDULER_TASK: Wait for scheduler "poi1" with entities [EventEntity, EventEntity]
  1: 0x0044 [0x00] END_REQSTACK()
```

### Event 65535.5

#### Metadata

| Field        | Value    |
|--------------|----------|
| Entrypoint   | 0x0045   |
| Data Size    | 16 bytes |
| Instructions | 2        |

```
      00 01 02 03 04 05 06 07  08 09 0A 0B 0C 0D 0E 0F
      -- -- -- -- -- -- -- --  -- -- -- -- -- -- -- --
0040:                66 00 80  F8 FF FF 7F F8 FF FF 7F       f..........
0050: 70 6F 69 32 00                                    poi2.           
```

#### Opcodes

```
  0: 0x0045 [0x66] LOAD_EXT_SCHEDULER_MAIN: Load scheduler "poi2" with entities [EventEntity, EventEntity], work=10*
  1: 0x0054 [0x00] END_REQSTACK()
```

### Event 65535.6

#### Metadata

| Field        | Value    |
|--------------|----------|
| Entrypoint   | 0x0055   |
| Data Size    | 14 bytes |
| Instructions | 2        |

```
      00 01 02 03 04 05 06 07  08 09 0A 0B 0C 0D 0E 0F
      -- -- -- -- -- -- -- --  -- -- -- -- -- -- -- --
0050:                53 F8 FF  FF 7F F8 FF FF 7F 70 6F       S........po
0060: 69 32 00                                          i2.             
```

#### Opcodes

```
  0: 0x0055 [0x53] WAIT_SCHEDULER_TASK: Wait for scheduler "poi2" with entities [EventEntity, EventEntity]
  1: 0x0062 [0x00] END_REQSTACK()
```

### Event 65535.7

#### Metadata

| Field        | Value   |
|--------------|---------|
| Entrypoint   | 0x0063  |
| Data Size    | 9 bytes |
| Instructions | 3       |

```
      00 01 02 03 04 05 06 07  08 09 0A 0B 0C 0D 0E 0F
      -- -- -- -- -- -- -- --  -- -- -- -- -- -- -- --
0060:          5E 69 64 6C 30  1C 01 80 00                 ^idl0....    
```

#### Opcodes

```
  0: 0x0063 [0x5E] EventEntity goes idle (kills current action) (animation: "idl0")
  1: 0x0068 [0x1C] WAIT(30* ticks)
  2: 0x006B [0x00] END_REQSTACK()
```

### Event 44

#### Metadata

| Field        | Value    |
|--------------|----------|
| Entrypoint   | 0x006C   |
| Data Size    | 33 bytes |
| Instructions | 12       |

```
      00 01 02 03 04 05 06 07  08 09 0A 0B 0C 0D 0E 0F
      -- -- -- -- -- -- -- --  -- -- -- -- -- -- -- --
0060:                                      1E F0 FF FF              ....
0070: 7F 6F 70 29 08 2B 00 0F  01 01 1D 02 80 23 1D 03  .op).+.......#..
0080: 80 23 29 08 2B 00 0F 01  07 20 00 21 00           .#).+.... .!.   
```

#### Opcodes

```
  0: 0x006C [0x1E] EventEntity looks at LocalPlayer and starts talking
  1: 0x0071 [0x6F] WAIT_FRAME_DELAY: Yield until WaitTime reaches zero
  2: 0x0072 [0x70] WAIT_ENTITY_RENDER_FLAG: Wait while EventEntity->Render.Flags3 bit 2 is set (cancel turn if not)
  3: 0x0073 [0x29] REQ_SET_WAIT(priority=0x08, entity_id=Ada (ID: 17760299/0x010F002B), tag_num=0x01)
  4: 0x007A [0x1D] PRINT_EVENT_MESSAGE(message_id=3217*)
    → "Bastok is surrounded by a mountain range and has many Galka living in it, so it seems to have the image of an untamed land."
  5: 0x007D [0x23] WAIT_FOR_DIALOG_INTERACTION
  6: 0x007E [0x1D] PRINT_EVENT_MESSAGE(message_id=3218*)
    → "But there are romantic spots, such as the view of the drawbridge at sunset. If you are out to make sweet memories in Bastok, you can't go wrong in that area."
  7: 0x0081 [0x23] WAIT_FOR_DIALOG_INTERACTION
  8: 0x0082 [0x29] REQ_SET_WAIT(priority=0x08, entity_id=Ada (ID: 17760299/0x010F002B), tag_num=0x07)
  9: 0x0089 [0x20] SET_CLI_EVENT_UC_FLAG: Unlock player control
 10: 0x008B [0x21] END_EVENT
 11: 0x008C [0x00] END_REQSTACK()
```

### Event 47

#### Metadata

| Field        | Value    |
|--------------|----------|
| Entrypoint   | 0x008D   |
| Data Size    | 29 bytes |
| Instructions | 10       |

```
      00 01 02 03 04 05 06 07  08 09 0A 0B 0C 0D 0E 0F
      -- -- -- -- -- -- -- --  -- -- -- -- -- -- -- --
0080:                                         1E F0 FF               ...
0090: FF 7F 6F 70 29 08 2B 00  0F 01 01 1D 04 80 23 29  ..op).+.......#)
00A0: 08 2B 00 0F 01 07 20 00  21 00                    .+.... .!.      
```

#### Opcodes

```
  0: 0x008D [0x1E] EventEntity looks at LocalPlayer and starts talking
  1: 0x0092 [0x6F] WAIT_FRAME_DELAY: Yield until WaitTime reaches zero
  2: 0x0093 [0x70] WAIT_ENTITY_RENDER_FLAG: Wait while EventEntity->Render.Flags3 bit 2 is set (cancel turn if not)
  3: 0x0094 [0x29] REQ_SET_WAIT(priority=0x08, entity_id=Ada (ID: 17760299/0x010F002B), tag_num=0x01)
  4: 0x009B [0x1D] PRINT_EVENT_MESSAGE(message_id=3224*)
    → "Oh, you have some business with Consul Melek? Then please head into her office through that door there."
  5: 0x009E [0x23] WAIT_FOR_DIALOG_INTERACTION
  6: 0x009F [0x29] REQ_SET_WAIT(priority=0x08, entity_id=Ada (ID: 17760299/0x010F002B), tag_num=0x07)
  7: 0x00A6 [0x20] SET_CLI_EVENT_UC_FLAG: Unlock player control
  8: 0x00A8 [0x21] END_EVENT
  9: 0x00A9 [0x00] END_REQSTACK()
```

### Event 51

#### Metadata

| Field        | Value    |
|--------------|----------|
| Entrypoint   | 0x00AA   |
| Data Size    | 33 bytes |
| Instructions | 12       |

```
      00 01 02 03 04 05 06 07  08 09 0A 0B 0C 0D 0E 0F
      -- -- -- -- -- -- -- --  -- -- -- -- -- -- -- --
00A0:                                1E F0 FF FF 7F 6F            .....o
00B0: 70 29 08 2B 00 0F 01 01  1D 05 80 23 1D 06 80 23  p).+.......#...#
00C0: 29 08 2B 00 0F 01 07 20  00 21 00                 ).+.... .!.     
```

#### Opcodes

```
  0: 0x00AA [0x1E] EventEntity looks at LocalPlayer and starts talking
  1: 0x00AF [0x6F] WAIT_FRAME_DELAY: Yield until WaitTime reaches zero
  2: 0x00B0 [0x70] WAIT_ENTITY_RENDER_FLAG: Wait while EventEntity->Render.Flags3 bit 2 is set (cancel turn if not)
  3: 0x00B1 [0x29] REQ_SET_WAIT(priority=0x08, entity_id=Ada (ID: 17760299/0x010F002B), tag_num=0x01)
  4: 0x00B8 [0x1D] PRINT_EVENT_MESSAGE(message_id=3245*)
    → "You're wondering what you should do if the Yagudo realize you switched weapons on them, aren't you?"
  5: 0x00BB [0x23] WAIT_FOR_DIALOG_INTERACTION
  6: 0x00BC [0x1D] PRINT_EVENT_MESSAGE(message_id=3246*)
    → "Well, that's where your abilities as an adventurer come into play. You should be able to think of something, shouldn't you?"
  7: 0x00BF [0x23] WAIT_FOR_DIALOG_INTERACTION
  8: 0x00C0 [0x29] REQ_SET_WAIT(priority=0x08, entity_id=Ada (ID: 17760299/0x010F002B), tag_num=0x07)
  9: 0x00C7 [0x20] SET_CLI_EVENT_UC_FLAG: Unlock player control
 10: 0x00C9 [0x21] END_EVENT
 11: 0x00CA [0x00] END_REQSTACK()
```

### Event 58

#### Metadata

| Field        | Value    |
|--------------|----------|
| Entrypoint   | 0x00CB   |
| Data Size    | 33 bytes |
| Instructions | 12       |

```
      00 01 02 03 04 05 06 07  08 09 0A 0B 0C 0D 0E 0F
      -- -- -- -- -- -- -- --  -- -- -- -- -- -- -- --
00C0:                                   1E F0 FF FF 7F             .....
00D0: 6F 70 29 08 2B 00 0F 01  01 1D 07 80 23 1D 08 80  op).+.......#...
00E0: 23 29 08 2B 00 0F 01 07  20 00 21 00              #).+.... .!.    
```

#### Opcodes

```
  0: 0x00CB [0x1E] EventEntity looks at LocalPlayer and starts talking
  1: 0x00D0 [0x6F] WAIT_FRAME_DELAY: Yield until WaitTime reaches zero
  2: 0x00D1 [0x70] WAIT_ENTITY_RENDER_FLAG: Wait while EventEntity->Render.Flags3 bit 2 is set (cancel turn if not)
  3: 0x00D2 [0x29] REQ_SET_WAIT(priority=0x08, entity_id=Ada (ID: 17760299/0x010F002B), tag_num=0x01)
  4: 0x00D9 [0x1D] PRINT_EVENT_MESSAGE(message_id=3261*)
    → "Those Yagudo didn't take the weapons shipment without giving you trouble, did they?"
  5: 0x00DC [0x23] WAIT_FOR_DIALOG_INTERACTION
  6: 0x00DD [0x1D] PRINT_EVENT_MESSAGE(message_id=3262*)
    → "But you were quick-witted and skilled enough to overcome it. That's the way of the true Bastoker."
  7: 0x00E0 [0x23] WAIT_FOR_DIALOG_INTERACTION
  8: 0x00E1 [0x29] REQ_SET_WAIT(priority=0x08, entity_id=Ada (ID: 17760299/0x010F002B), tag_num=0x07)
  9: 0x00E8 [0x20] SET_CLI_EVENT_UC_FLAG: Unlock player control
 10: 0x00EA [0x21] END_EVENT
 11: 0x00EB [0x00] END_REQSTACK()
```

### Event 63

#### Metadata

| Field        | Value    |
|--------------|----------|
| Entrypoint   | 0x00EC   |
| Data Size    | 33 bytes |
| Instructions | 12       |

```
      00 01 02 03 04 05 06 07  08 09 0A 0B 0C 0D 0E 0F
      -- -- -- -- -- -- -- --  -- -- -- -- -- -- -- --
00E0:                                      1E F0 FF FF              ....
00F0: 7F 6F 70 29 08 2B 00 0F  01 01 1D 09 80 23 1D 0A  .op).+.......#..
0100: 80 23 29 08 2B 00 0F 01  07 20 00 21 00           .#).+.... .!.   
```

#### Opcodes

```
  0: 0x00EC [0x1E] EventEntity looks at LocalPlayer and starts talking
  1: 0x00F1 [0x6F] WAIT_FRAME_DELAY: Yield until WaitTime reaches zero
  2: 0x00F2 [0x70] WAIT_ENTITY_RENDER_FLAG: Wait while EventEntity->Render.Flags3 bit 2 is set (cancel turn if not)
  3: 0x00F3 [0x29] REQ_SET_WAIT(priority=0x08, entity_id=Ada (ID: 17760299/0x010F002B), tag_num=0x01)
  4: 0x00FA [0x1D] PRINT_EVENT_MESSAGE(message_id=3280*)
    → "Just because the Windurstians are trying to be friends with the Yagudo doesn't mean we should hold back from continuing our fight with the beastmen."
  5: 0x00FD [0x23] WAIT_FOR_DIALOG_INTERACTION
  6: 0x00FE [0x1D] PRINT_EVENT_MESSAGE(message_id=3281*)
    → "Go ahead and savage the brutes, I say! If Windurst puts forward an official complaint, I'll handle it for you."
  7: 0x0101 [0x23] WAIT_FOR_DIALOG_INTERACTION
  8: 0x0102 [0x29] REQ_SET_WAIT(priority=0x08, entity_id=Ada (ID: 17760299/0x010F002B), tag_num=0x07)
  9: 0x0109 [0x20] SET_CLI_EVENT_UC_FLAG: Unlock player control
 10: 0x010B [0x21] END_EVENT
 11: 0x010C [0x00] END_REQSTACK()
```

### Event 69

#### Metadata

| Field        | Value    |
|--------------|----------|
| Entrypoint   | 0x010D   |
| Data Size    | 33 bytes |
| Instructions | 12       |

```
      00 01 02 03 04 05 06 07  08 09 0A 0B 0C 0D 0E 0F
      -- -- -- -- -- -- -- --  -- -- -- -- -- -- -- --
0100:                                         1E F0 FF               ...
0110: FF 7F 6F 70 29 08 2B 00  0F 01 01 1D 0B 80 23 1D  ..op).+.......#.
0120: 0C 80 23 29 08 2B 00 0F  01 07 20 00 21 00        ..#).+.... .!.  
```

#### Opcodes

```
  0: 0x010D [0x1E] EventEntity looks at LocalPlayer and starts talking
  1: 0x0112 [0x6F] WAIT_FRAME_DELAY: Yield until WaitTime reaches zero
  2: 0x0113 [0x70] WAIT_ENTITY_RENDER_FLAG: Wait while EventEntity->Render.Flags3 bit 2 is set (cancel turn if not)
  3: 0x0114 [0x29] REQ_SET_WAIT(priority=0x08, entity_id=Ada (ID: 17760299/0x010F002B), tag_num=0x01)
  4: 0x011B [0x1D] PRINT_EVENT_MESSAGE(message_id=3293*)
    → "What in Goddess's name happened? You carried out your assignment properly, didn't you? Then why do you look so troubled?"
  5: 0x011E [0x23] WAIT_FOR_DIALOG_INTERACTION
  6: 0x011F [0x1D] PRINT_EVENT_MESSAGE(message_id=3294*)
    → "Don't tell me. I prefer not to know. It looks like if I heard what you had to say, I wouldn't be able to sleep at night. You better hurry back to our motherland."
  7: 0x0122 [0x23] WAIT_FOR_DIALOG_INTERACTION
  8: 0x0123 [0x29] REQ_SET_WAIT(priority=0x08, entity_id=Ada (ID: 17760299/0x010F002B), tag_num=0x07)
  9: 0x012A [0x20] SET_CLI_EVENT_UC_FLAG: Unlock player control
 10: 0x012C [0x21] END_EVENT
 11: 0x012D [0x00] END_REQSTACK()
```
