# 17760304 - Erabu-Fumulubu

## Common Data

| Field            | Value                   |
|------------------|-------------------------|
| Zone             | Port Windurst (ID: 240) |
| Block Size       | 684 bytes               |
| Total Events     | 2                       |
| References Count | 48                      |

## List of Events

| Event ID              | Entrypoint   |   Size |   Instructions |
|-----------------------|--------------|--------|----------------|
| [65535](#event-65535) | 0x0000       |      1 |              1 |
| [10012](#event-10012) | 0x0001       |    465 |            122 |

## DAT References (imed_data)

|   Index | Hex Value   |   Dec Value |
|---------|-------------|-------------|
|       0 | 0x0000      |           0 |
|       1 | 0x2DF6      |       11766 |
|       2 | 0x0002      |           2 |
|       3 | 0x2E0F      |       11791 |
|       4 | 0x2E11      |       11793 |
|       5 | 0x00C8      |         200 |
|       6 | 0x005A      |          90 |
|       7 | 0x0001      |           1 |
|       8 | 0x000A      |          10 |
|       9 | 0x1178      |        4472 |
|      10 | 0x4262      |       16994 |
|      11 | 0x2E12      |       11794 |
|      12 | 0x2E25      |       11813 |
|      13 | 0x11A3      |        4515 |
|      14 | 0x43F5      |       17397 |
|      15 | 0x2E26      |       11814 |
|      16 | 0x114A      |        4426 |
|      17 | 0x4266      |       16998 |
|      18 | 0x2E27      |       11815 |
|      19 | 0x0003      |           3 |
|      20 | 0x1102      |        4354 |
|      21 | 0x4267      |       16999 |
|      22 | 0x2E28      |       11816 |
|      23 | 0x0004      |           4 |
|      24 | 0x114D      |        4429 |
|      25 | 0x4261      |       16993 |
|      26 | 0x2E29      |       11817 |
|      27 | 0x0005      |           5 |
|      28 | 0x114B      |        4427 |
|      29 | 0x2E2A      |       11818 |
|      30 | 0x0006      |           6 |
|      31 | 0x1179      |        4473 |
|      32 | 0x2E2B      |       11819 |
|      33 | 0x0007      |           7 |
|      34 | 0x117D      |        4477 |
|      35 | 0x4268      |       17000 |
|      36 | 0x2E2C      |       11820 |
|      37 | 0x0008      |           8 |
|      38 | 0x1166      |        4454 |
|      39 | 0x2E2D      |       11821 |
|      40 | 0x0009      |           9 |
|      41 | 0x116F      |        4463 |
|      42 | 0x2E2E      |       11822 |
|      43 | 0x10DC      |        4316 |
|      44 | 0x43FB      |       17403 |
|      45 | 0x2E2F      |       11823 |
|      46 | 0x2E13      |       11795 |
|      47 | 0x2E0E      |       11790 |

## String References

- **11766**: What would you like to ask? [For [advanced fishing/fishing/fishing] support./About what kind of fish I can catch./Nothing.]
- **11790**: Can you not see what Erabu-Fumulubu is doing right here, right now? Scrubbing and mending and scrubbing, I am.
- **11791**: Asking for more help, are you? Rude, rude, rude you are! Why don't you just hold your horses?
- **11793**: Ready-Freddy? Concentrate ha\`rd on the horizon...
- **11794**: Teach you of my secret fishing spot? Well, only because Erabu-Fumulubu likes you so much!
- **11795**: Erabu would like to go with you, but I need to do more scrubbing and mending and scrubbing and scrubbing...
- **11813**: You can catch $0 in any freshwater pond or swamp. $1 are the bait that's great!
- **11814**: % are found in the freshwater lakes and rivers around Gustaberg, and $1 are the bait that's great!
- **11815**: Head north to the glaciers of the Quon continent to find any $0. They should be biting away if $1 is on your line.
- **11816**: The glaciers in the northern part of the Quon continent are home to the $0. Try using $1 to lure him in.
- **11817**: ...Oh yeah! $0! Those slippery-slimy nasties live in the freshwater rivers and lakes in Gustaberg, but you'll need some $1 to get them.
- **11818**: The sparkly $0 can be found around the glaciers on the continent of Quon. $1 should bring them out of hiding.
- **11819**: Hmm... Try catching $0. They live pretty close--in the rivers around Sarutabaruta. You'll need $1 to catch them, though...
- **11820**: I don't tell many people this, but you can find $0 living in a certain freshwater deposit in Gustaberg. Try using $1...but that's all you're going to get out of little old me...
- **11821**: You didn't hear this from me, but a certain $0 can be caught in the freshwater deposits found in the northern reaches of Quon. You can only use $1...no, forget that I said that...
- **11822**: Okay, this is only a mystical myth, but I heard that $0 live in a certain place in northern Quon. They say that the only Tarutaru to catch one used $1 on his line.
- **11823**: I doubt it's real, but some half-crazed angler was telling me about a monster of a fish called the $0 that lives in subterranean waters of Movalpolos. He also said it feasts on $1...and people. Gulp!

## Events

### Event 65535

#### Metadata

| Field        | Value   |
|--------------|---------|
| Entrypoint   | 0x0000  |
| Data Size    | 1 bytes |
| Instructions | 1       |

```
      00 01 02 03 04 05 06 07  08 09 0A 0B 0C 0D 0E 0F
      -- -- -- -- -- -- -- --  -- -- -- -- -- -- -- --
0000: 00                                                .               
```

#### Opcodes

```
  0: 0x0000 [0x00] END_REQSTACK()
```

### Event 10012

#### Metadata

| Field        | Value     |
|--------------|-----------|
| Entrypoint   | 0x0001    |
| Data Size    | 465 bytes |
| Instructions | 122       |

```
      00 01 02 03 04 05 06 07  08 09 0A 0B 0C 0D 0E 0F
      -- -- -- -- -- -- -- --  -- -- -- -- -- -- -- --
0000:    3E 05 10 00 80 CC 01  24 01 80 02 80 00 80 25   >......$......%
0010: 02 00 10 00 80 00 59 00  02 07 10 00 80 01 27 00  ......Y.......'.
0020: 1D 03 80 23 01 56 00 1D  04 80 23 42 45 05 80 F8  ...#.V....#BE...
0030: FF FF 7F F8 FF FF 7F 66  64 6F 31 00 80 1C 06 80  .......fdo1.....
0040: 45 05 80 F8 FF FF 7F F8  FF FF 7F 66 64 69 31 00  E..........fdi1.
0050: 80 03 01 10 07 80 01 C9  01 02 00 10 07 80 00 BE  ................
0060: 01 15 03 10 08 80 02 03  10 00 80 80 83 00 03 02  ................
0070: 10 09 80 03 03 10 0A 80  1D 0B 80 23 1D 0C 80 23  ...........#...#
0080: 01 B7 01 02 03 10 07 80  80 A0 00 03 02 10 0D 80  ................
0090: 03 03 10 0E 80 1D 0B 80  23 1D 0F 80 23 01 B7 01  ........#...#...
00A0: 02 03 10 02 80 80 BD 00  03 02 10 10 80 03 03 10  ................
00B0: 11 80 1D 0B 80 23 1D 12  80 23 01 B7 01 02 03 10  .....#...#......
00C0: 13 80 80 DA 00 03 02 10  14 80 03 03 10 15 80 1D  ................
00D0: 0B 80 23 1D 16 80 23 01  B7 01 02 03 10 17 80 80  ..#...#.........
00E0: F7 00 03 02 10 18 80 03  03 10 19 80 1D 0B 80 23  ...............#
00F0: 1D 1A 80 23 01 B7 01 02  03 10 1B 80 80 14 01 03  ...#............
0100: 02 10 1C 80 03 03 10 11  80 1D 0B 80 23 1D 1D 80  ............#...
0110: 23 01 B7 01 02 03 10 1E  80 80 31 01 03 02 10 1F  #.........1.....
0120: 80 03 03 10 0E 80 1D 0B  80 23 1D 20 80 23 01 B7  .........#. .#..
0130: 01 02 03 10 21 80 80 4E  01 03 02 10 22 80 03 03  ....!..N...."...
0140: 10 23 80 1D 0B 80 23 1D  24 80 23 01 B7 01 02 03  .#....#.$.#.....
0150: 10 25 80 80 6B 01 03 02  10 26 80 03 03 10 19 80  .%..k....&......
0160: 1D 0B 80 23 1D 27 80 23  01 B7 01 02 03 10 28 80  ...#.'.#......(.
0170: 80 88 01 03 02 10 29 80  03 03 10 19 80 1D 0B 80  ......).........
0180: 23 1D 2A 80 23 01 B7 01  02 03 10 08 80 80 A5 01  #.*.#...........
0190: 03 02 10 2B 80 03 03 10  2C 80 1D 0B 80 23 1D 2D  ...+....,....#.-
01A0: 80 23 01 B7 01 03 02 10  2B 80 03 03 10 2C 80 1D  .#......+....,..
01B0: 0B 80 23 1D 2D 80 23 1D  2E 80 23 01 C9 01 02 00  ..#.-.#...#.....
01C0: 10 02 80 00 C9 01 01 C9  01 01 D0 01 1D 2F 80 23  ............./.#
01D0: 21 00                                             !.              
```

#### Opcodes

```
  0: 0x0001 [0x3E] IF !(Work_Zone[5] bit 0*) GOTO 0x01CC
  1: 0x0008 [0x24] CREATE_DIALOG(message_id=11766*, default_option=2*, option_flags=0*)
    → "What would you like to ask? [For [advanced fishing/fishing/fishing] support./About what kind of fish I can catch./Nothing.]"
  2: 0x000F [0x25] WAIT_DIALOG_SELECT()
  3: 0x0010 [0x02] IF !(Work_Zone[0] == 0*) GOTO 0x0059
  4: 0x0018 [0x02] IF !(Work_Zone[7] == 0*) GOTO 0x0027
  5: 0x0020 [0x1D] PRINT_EVENT_MESSAGE(message_id=11791*)
    → "Asking for more help, are you? Rude, rude, rude you are! Why don't you just hold your horses?"
  6: 0x0023 [0x23] WAIT_FOR_DIALOG_INTERACTION
  7: 0x0024 [0x01] GOTO 0x0056
  8: 0x0027 [0x1D] PRINT_EVENT_MESSAGE(message_id=11793*)
    → "Ready-Freddy? Concentrate ha`rd on the horizon..."
  9: 0x002A [0x23] WAIT_FOR_DIALOG_INTERACTION
 10: 0x002B [0x42] SET_CLI_EVENT_CANCEL_DATA()
 11: 0x002C [0x45] LOAD_SCHEDULED_TASK: Load scheduler "fdo1" with entities [EventEntity, EventEntity], work=[200*, 0*]
 12: 0x003D [0x1C] WAIT(90* ticks)
 13: 0x0040 [0x45] LOAD_SCHEDULED_TASK: Load scheduler "fdi1" with entities [EventEntity, EventEntity], work=[200*, 0*]
 14: 0x0051 [0x03] Work_Zone[1] = 1*

SUBROUTINE_0056:
 15: 0x0056 [0x01] GOTO 0x01C9
 16: 0x0059 [0x02] IF !(Work_Zone[0] == 1*) GOTO 0x01BE
 17: 0x0061 [0x15] Work_Zone[3] /= 10*
 18: 0x0066 [0x02] IF !(Work_Zone[3] == 0*) GOTO 0x0083
 19: 0x006E [0x03] Work_Zone[2] = 4472*
 20: 0x0073 [0x03] Work_Zone[3] = 16994*
 21: 0x0078 [0x1D] PRINT_EVENT_MESSAGE(message_id=11794*)
    → "Teach you of my secret fishing spot? Well, only because Erabu-Fumulubu likes you so much!"
 22: 0x007B [0x23] WAIT_FOR_DIALOG_INTERACTION
 23: 0x007C [0x1D] PRINT_EVENT_MESSAGE(message_id=11813*)
    → "You can catch $0 in any freshwater pond or swamp. $1 are the bait that's great!"
 24: 0x007F [0x23] WAIT_FOR_DIALOG_INTERACTION
 25: 0x0080 [0x01] GOTO 0x01B7
 26: 0x0083 [0x02] IF !(Work_Zone[3] == 1*) GOTO 0x00A0
 27: 0x008B [0x03] Work_Zone[2] = 4515*
 28: 0x0090 [0x03] Work_Zone[3] = 17397*
 29: 0x0095 [0x1D] PRINT_EVENT_MESSAGE(message_id=11794*)
    → "Teach you of my secret fishing spot? Well, only because Erabu-Fumulubu likes you so much!"
 30: 0x0098 [0x23] WAIT_FOR_DIALOG_INTERACTION
 31: 0x0099 [0x1D] PRINT_EVENT_MESSAGE(message_id=11814*)
    → "% are found in the freshwater lakes and rivers around Gustaberg, and $1 are the bait that's great!"
 32: 0x009C [0x23] WAIT_FOR_DIALOG_INTERACTION
 33: 0x009D [0x01] GOTO 0x01B7
 34: 0x00A0 [0x02] IF !(Work_Zone[3] == 2*) GOTO 0x00BD
 35: 0x00A8 [0x03] Work_Zone[2] = 4426*
 36: 0x00AD [0x03] Work_Zone[3] = 16998*
 37: 0x00B2 [0x1D] PRINT_EVENT_MESSAGE(message_id=11794*)
    → "Teach you of my secret fishing spot? Well, only because Erabu-Fumulubu likes you so much!"
 38: 0x00B5 [0x23] WAIT_FOR_DIALOG_INTERACTION
 39: 0x00B6 [0x1D] PRINT_EVENT_MESSAGE(message_id=11815*)
    → "Head north to the glaciers of the Quon continent to find any $0. They should be biting away if $1 is on your line."
 40: 0x00B9 [0x23] WAIT_FOR_DIALOG_INTERACTION
 41: 0x00BA [0x01] GOTO 0x01B7
 42: 0x00BD [0x02] IF !(Work_Zone[3] == 3*) GOTO 0x00DA
 43: 0x00C5 [0x03] Work_Zone[2] = 4354*
 44: 0x00CA [0x03] Work_Zone[3] = 16999*
 45: 0x00CF [0x1D] PRINT_EVENT_MESSAGE(message_id=11794*)
    → "Teach you of my secret fishing spot? Well, only because Erabu-Fumulubu likes you so much!"
 46: 0x00D2 [0x23] WAIT_FOR_DIALOG_INTERACTION
 47: 0x00D3 [0x1D] PRINT_EVENT_MESSAGE(message_id=11816*)
    → "The glaciers in the northern part of the Quon continent are home to the $0. Try using $1 to lure him in."
 48: 0x00D6 [0x23] WAIT_FOR_DIALOG_INTERACTION
 49: 0x00D7 [0x01] GOTO 0x01B7
 50: 0x00DA [0x02] IF !(Work_Zone[3] == 4*) GOTO 0x00F7
 51: 0x00E2 [0x03] Work_Zone[2] = 4429*
 52: 0x00E7 [0x03] Work_Zone[3] = 16993*
 53: 0x00EC [0x1D] PRINT_EVENT_MESSAGE(message_id=11794*)
    → "Teach you of my secret fishing spot? Well, only because Erabu-Fumulubu likes you so much!"
 54: 0x00EF [0x23] WAIT_FOR_DIALOG_INTERACTION
 55: 0x00F0 [0x1D] PRINT_EVENT_MESSAGE(message_id=11817*)
    → "...Oh yeah! $0! Those slippery-slimy nasties live in the freshwater rivers and lakes in Gustaberg, but you'll need some $1 to get them."
 56: 0x00F3 [0x23] WAIT_FOR_DIALOG_INTERACTION
 57: 0x00F4 [0x01] GOTO 0x01B7
 58: 0x00F7 [0x02] IF !(Work_Zone[3] == 5*) GOTO 0x0114
 59: 0x00FF [0x03] Work_Zone[2] = 4427*
 60: 0x0104 [0x03] Work_Zone[3] = 16998*
 61: 0x0109 [0x1D] PRINT_EVENT_MESSAGE(message_id=11794*)
    → "Teach you of my secret fishing spot? Well, only because Erabu-Fumulubu likes you so much!"
 62: 0x010C [0x23] WAIT_FOR_DIALOG_INTERACTION
 63: 0x010D [0x1D] PRINT_EVENT_MESSAGE(message_id=11818*)
    → "The sparkly $0 can be found around the glaciers on the continent of Quon. $1 should bring them out of hiding."
 64: 0x0110 [0x23] WAIT_FOR_DIALOG_INTERACTION
 65: 0x0111 [0x01] GOTO 0x01B7
 66: 0x0114 [0x02] IF !(Work_Zone[3] == 6*) GOTO 0x0131
 67: 0x011C [0x03] Work_Zone[2] = 4473*
 68: 0x0121 [0x03] Work_Zone[3] = 17397*
 69: 0x0126 [0x1D] PRINT_EVENT_MESSAGE(message_id=11794*)
    → "Teach you of my secret fishing spot? Well, only because Erabu-Fumulubu likes you so much!"
 70: 0x0129 [0x23] WAIT_FOR_DIALOG_INTERACTION
 71: 0x012A [0x1D] PRINT_EVENT_MESSAGE(message_id=11819*)
    → "Hmm... Try catching $0. They live pretty close--in the rivers around Sarutabaruta. You'll need $1 to catch them, though..."
 72: 0x012D [0x23] WAIT_FOR_DIALOG_INTERACTION
 73: 0x012E [0x01] GOTO 0x01B7
 74: 0x0131 [0x02] IF !(Work_Zone[3] == 7*) GOTO 0x014E
 75: 0x0139 [0x03] Work_Zone[2] = 4477*
 76: 0x013E [0x03] Work_Zone[3] = 17000*
 77: 0x0143 [0x1D] PRINT_EVENT_MESSAGE(message_id=11794*)
    → "Teach you of my secret fishing spot? Well, only because Erabu-Fumulubu likes you so much!"
 78: 0x0146 [0x23] WAIT_FOR_DIALOG_INTERACTION
 79: 0x0147 [0x1D] PRINT_EVENT_MESSAGE(message_id=11820*)
    → "I don't tell many people this, but you can find $0 living in a certain freshwater deposit in Gustaberg. Try using $1...but that's all you're going to get out of little old me..."
 80: 0x014A [0x23] WAIT_FOR_DIALOG_INTERACTION
 81: 0x014B [0x01] GOTO 0x01B7
 82: 0x014E [0x02] IF !(Work_Zone[3] == 8*) GOTO 0x016B
 83: 0x0156 [0x03] Work_Zone[2] = 4454*
 84: 0x015B [0x03] Work_Zone[3] = 16993*
 85: 0x0160 [0x1D] PRINT_EVENT_MESSAGE(message_id=11794*)
    → "Teach you of my secret fishing spot? Well, only because Erabu-Fumulubu likes you so much!"
 86: 0x0163 [0x23] WAIT_FOR_DIALOG_INTERACTION
 87: 0x0164 [0x1D] PRINT_EVENT_MESSAGE(message_id=11821*)
    → "You didn't hear this from me, but a certain $0 can be caught in the freshwater deposits found in the northern reaches of Quon. You can only use $1...no, forget that I said that..."
 88: 0x0167 [0x23] WAIT_FOR_DIALOG_INTERACTION
 89: 0x0168 [0x01] GOTO 0x01B7
 90: 0x016B [0x02] IF !(Work_Zone[3] == 9*) GOTO 0x0188
 91: 0x0173 [0x03] Work_Zone[2] = 4463*
 92: 0x0178 [0x03] Work_Zone[3] = 16993*
 93: 0x017D [0x1D] PRINT_EVENT_MESSAGE(message_id=11794*)
    → "Teach you of my secret fishing spot? Well, only because Erabu-Fumulubu likes you so much!"
 94: 0x0180 [0x23] WAIT_FOR_DIALOG_INTERACTION
 95: 0x0181 [0x1D] PRINT_EVENT_MESSAGE(message_id=11822*)
    → "Okay, this is only a mystical myth, but I heard that $0 live in a certain place in northern Quon. They say that the only Tarutaru to catch one used $1 on his line."
 96: 0x0184 [0x23] WAIT_FOR_DIALOG_INTERACTION
 97: 0x0185 [0x01] GOTO 0x01B7
 98: 0x0188 [0x02] IF !(Work_Zone[3] == 10*) GOTO 0x01A5
 99: 0x0190 [0x03] Work_Zone[2] = 4316*
100: 0x0195 [0x03] Work_Zone[3] = 17403*
101: 0x019A [0x1D] PRINT_EVENT_MESSAGE(message_id=11794*)
    → "Teach you of my secret fishing spot? Well, only because Erabu-Fumulubu likes you so much!"
102: 0x019D [0x23] WAIT_FOR_DIALOG_INTERACTION
103: 0x019E [0x1D] PRINT_EVENT_MESSAGE(message_id=11823*)
    → "I doubt it's real, but some half-crazed angler was telling me about a monster of a fish called the $0 that lives in subterranean waters of Movalpolos. He also said it feasts on $1...and people. Gulp!"
104: 0x01A1 [0x23] WAIT_FOR_DIALOG_INTERACTION
105: 0x01A2 [0x01] GOTO 0x01B7
106: 0x01A5 [0x03] Work_Zone[2] = 4316*
107: 0x01AA [0x03] Work_Zone[3] = 17403*
108: 0x01AF [0x1D] PRINT_EVENT_MESSAGE(message_id=11794*)
    → "Teach you of my secret fishing spot? Well, only because Erabu-Fumulubu likes you so much!"
109: 0x01B2 [0x23] WAIT_FOR_DIALOG_INTERACTION
110: 0x01B3 [0x1D] PRINT_EVENT_MESSAGE(message_id=11823*)
    → "I doubt it's real, but some half-crazed angler was telling me about a monster of a fish called the $0 that lives in subterranean waters of Movalpolos. He also said it feasts on $1...and people. Gulp!"
111: 0x01B6 [0x23] WAIT_FOR_DIALOG_INTERACTION

SUBROUTINE_01B7:
112: 0x01B7 [0x1D] PRINT_EVENT_MESSAGE(message_id=11795*)
    → "Erabu would like to go with you, but I need to do more scrubbing and mending and scrubbing and scrubbing..."
113: 0x01BA [0x23] WAIT_FOR_DIALOG_INTERACTION
114: 0x01BB [0x01] GOTO 0x01C9
115: 0x01BE [0x02] IF !(Work_Zone[0] == 2*) GOTO 0x01C9
116: 0x01C6 [0x01] GOTO 0x01C9

SUBROUTINE_01C9:
117: 0x01C9 [0x01] GOTO 0x01D0
118: 0x01CC [0x1D] PRINT_EVENT_MESSAGE(message_id=11790*)
    → "Can you not see what Erabu-Fumulubu is doing right here, right now? Scrubbing and mending and scrubbing, I am."
119: 0x01CF [0x23] WAIT_FOR_DIALOG_INTERACTION

SUBROUTINE_01D0:
120: 0x01D0 [0x21] END_EVENT
121: 0x01D1 [0x00] END_REQSTACK()
```
