# 17760465 - Willis

## Common Data

| Field            | Value                   |
|------------------|-------------------------|
| Zone             | Port Windurst (ID: 240) |
| Block Size       | 900 bytes               |
| Total Events     | 2                       |
| References Count | 27                      |

## List of Events

| Event ID              | Entrypoint   |   Size |   Instructions |
|-----------------------|--------------|--------|----------------|
| [65535](#event-65535) | 0x0000       |      1 |              1 |
| [873](#event-873)     | 0x0001       |    767 |            135 |

## DAT References (imed_data)

|   Index | Hex Value   |   Dec Value |
|---------|-------------|-------------|
|       0 | 0x0000      |           0 |
|       1 | 0x0002      |           2 |
|       2 | 0x0006      |           6 |
|       3 | 0x3E61      |       15969 |
|       4 | 0x001E      |          30 |
|       5 | 0x0009      |           9 |
|       6 | 0x0001      |           1 |
|       7 | 0x3E62      |       15970 |
|       8 | 0x3E63      |       15971 |
|       9 | 0x3E64      |       15972 |
|      10 | 0x3E65      |       15973 |
|      11 | 0x3E66      |       15974 |
|      12 | 0x3E6A      |       15978 |
|      13 | 0x0040      |          64 |
|      14 | 0x0008      |           8 |
|      15 | 0x01FF      |         511 |
|      16 | 0x3E6B      |       15979 |
|      17 | 0x0005      |           5 |
|      18 | 0x0003      |           3 |
|      19 | 0x0004      |           4 |
|      20 | 0x0007      |           7 |
|      21 | 0x00C8      |         200 |
|      22 | 0x3E6C      |       15980 |
|      23 | 0x3E6D      |       15981 |
|      24 | 0x3E6E      |       15982 |
|      25 | 0x00DF      |         223 |
|      26 | 0x3E95      |       16021 |

## String References

- **15969**: <Sigh>... To see such vistas of peace and prosperity restored to my homeland once more...
- **15970**: Greetings, friend of Abyssea. [/Ivan/Ernst/Kierron/Cyril/Willis/Vincent] is my name. My superior officer [/Gilburt/Erich/Jerrett/Adrian/Fabricius/Fabien] and I have been dispatched here to provide logistical support to allies of our cause.
- **15971**: As you endeavor to restore light to our ravaged world, so too will we endeavor to aid you in every possible way.
- **15972**: How might I assist you this day?
- **15973**: What would you like to ask about? [My current cruor balance./Resistance outpost status./Teleporting to a cavernous maw./Nothing right now.]
- **15974**: The figures in my logbook tell me you have $0 cruor to your name.
- **15978**: You wish to teleport to a cavernous maw? In that case, please tell me your precise destination.
- **15979**: Go to which area's gateway? [Abyssea - La Theine./Abyssea - Konschtat./Abyssea - Tahrongi./Abyssea - Vunkerl./Abyssea - Misareaux./Abyssea - Attohwa./Abyssea - Altepa./Abyssea - Uleguerand./Abyssea - Grauberg./I've changed my mind.]
- **15980**: $1 cruor is required for transport to the gateway to Abyssea - [La Theine/Konschtat/Tahrongi/Attohwa/Misareaux/Vunkerl/Altepa/Uleguerand/Grauberg].
- **15981**: Ah, it seems you have insufficient cruor to make that journey.
- **15982**: Will you proceed? (Cruor balance: $2) [Make it so./Make it no.]
- **16021**: Very well, friend. Should you ever find yourself in need of assistance, do not hesitate to return.

## Events

### Event 65535

#### Metadata

| Field        | Value   |
|--------------|---------|
| Entrypoint   | 0x0000  |
| Data Size    | 1 bytes |
| Instructions | 1       |

```
      00 01 02 03 04 05 06 07  08 09 0A 0B 0C 0D 0E 0F
      -- -- -- -- -- -- -- --  -- -- -- -- -- -- -- --
0000: 00                                                .               
```

#### Opcodes

```
  0: 0x0000 [0x00] END_REQSTACK()
```

### Event 873

#### Metadata

| Field        | Value     |
|--------------|-----------|
| Entrypoint   | 0x0001    |
| Data Size    | 767 bytes |
| Instructions | 73        |

```
      00 01 02 03 04 05 06 07  08 09 0A 0B 0C 0D 0E 0F
      -- -- -- -- -- -- -- --  -- -- -- -- -- -- -- --
0000:    42 03 01 10 00 80 03  00 00 02 10 03 01 00 03   B..............
0010: 10 03 04 00 00 80 03 02  00 01 80 03 03 00 00 80  ................
0020: 03 05 00 07 10 02 05 10  00 80 00 47 00 02 06 10  ...........G....
0030: 00 80 00 47 00 03 02 00  01 80 02 04 10 00 80 00  ...G............
0040: 47 00 03 02 00 02 80 03  06 00 04 10 03 07 00 05  G...............
0050: 10 03 08 00 06 10 02 00  00 00 80 00 65 00 1D 03  ............e...
0060: 80 23 01 FE 02 1E F0 FF  FF 7F 1C 04 80 66 05 80  .#...........f..
0070: F8 FF FF 7F F8 FF FF 7F  74 6C 6B 30 02 00 00 06  ........tlk0....
0080: 80 00 98 00 03 02 10 05  00 1D 07 80 23 1D 08 80  ............#...
0090: 23 3C 01 10 06 80 06 80  1D 09 80 23 66 05 80 F8  #<.........#f...
00A0: FF FF 7F F8 FF FF 7F 74  6C 6B 31 24 0A 80 00 80  .......tlk1$....
00B0: 02 00 25 02 00 10 00 80  00 E8 00 66 05 80 F8 FF  ..%........f....
00C0: FF 7F F8 FF FF 7F 74 6C  6B 30 03 02 10 01 00 1D  ......tlk0......
00D0: 0B 80 23 66 05 80 F8 FF  FF 7F F8 FF FF 7F 74 6C  ..#f..........tl
00E0: 6B 31 01 AB 00 01 FE 02  02 00 10 01 80 00 DE 02  k1..............
00F0: 66 05 80 F8 FF FF 7F F8  FF FF 7F 74 6C 6B 30 1D  f..........tlk0.
0100: 0C 80 23 66 05 80 F8 FF  FF 7F F8 FF FF 7F 74 6C  ..#f..........tl
0110: 6B 31 02 04 00 00 80 00  3D 01 03 04 00 06 80 14  k1......=.......
0120: 08 00 0D 80 14 07 00 0E  80 07 08 00 07 00 07 08  ................
0130: 00 06 00 0F 08 00 0F 80  03 03 00 08 00 24 10 80  .............$..
0140: 00 80 03 00 25 02 00 10  00 80 00 5E 01 03 02 10  ....%......^....
0150: 00 80 40 01 80 11 80 01  10 06 80 01 34 02 02 00  ..@.........4...
0160: 10 06 80 00 77 01 03 02  10 06 80 40 01 80 11 80  ....w......@....
0170: 01 10 01 80 01 34 02 02  00 10 01 80 00 90 01 03  .....4..........
0180: 02 10 01 80 40 01 80 11  80 01 10 12 80 01 34 02  ....@.........4.
0190: 02 00 10 12 80 00 A9 01  03 02 10 11 80 40 01 80  .............@..
01A0: 11 80 01 10 13 80 01 34  02 02 00 10 13 80 00 C2  .......4........
01B0: 01 03 02 10 13 80 40 01  80 11 80 01 10 11 80 01  ......@.........
01C0: 34 02 02 00 10 11 80 00  DB 01 03 02 10 12 80 40  4..............@
01D0: 01 80 11 80 01 10 02 80  01 34 02 02 00 10 02 80  .........4......
01E0: 00 F4 01 03 02 10 02 80  40 01 80 11 80 01 10 14  ........@.......
01F0: 80 01 34 02 02 00 10 14  80 00 0D 02 03 02 10 14  ..4.............
0200: 80 40 01 80 11 80 01 10  0E 80 01 34 02 02 00 10  .@.........4....
0210: 0E 80 00 26 02 03 02 10  0E 80 40 01 80 11 80 01  ...&......@.....
0220: 10 05 80 01 34 02 02 00  10 05 80 00 34 02 01 AB  ....4.......4...
0230: 00 01 34 02 66 05 80 F8  FF FF 7F F8 FF FF 7F 74  ..4.f..........t
0240: 6C 6B 30 03 03 10 15 80  1D 16 80 23 3C 01 10 0E  lk0........#<...
0250: 80 06 80 43 00 43 01 02  03 10 06 80 00 7E 02 1D  ...C.C.......~..
0260: 17 80 23 66 05 80 F8 FF  FF 7F F8 FF FF 7F 74 6C  ..#f..........tl
0270: 6B 31 40 01 80 11 80 01  10 00 80 01 AB 00 66 05  k1@...........f.
0280: 80 F8 FF FF 7F F8 FF FF  7F 74 6C 6B 31 03 03 10  .........tlk1...
0290: 15 80 03 04 10 01 00 24  18 80 06 80 00 80 25 02  .......$......%.
02A0: 00 10 00 80 00 BD 02 BB  19 80 F0 FF FF 7F F0 FF  ................
02B0: FF 7F 69 6E 30 30 00 80  21 00 01 DB 02 02 00 10  ..in00..!.......
02C0: 06 80 00 DB 02 40 01 80  11 80 01 10 00 80 3D 01  .....@........=.
02D0: 10 0E 80 06 80 01 AB 00  01 DB 02 01 FE 02 02 00  ................
02E0: 10 12 80 00 FE 02 66 05  80 F8 FF FF 7F F8 FF FF  ......f.........
02F0: 7F 74 6C 6B 30 1D 1A 80  23 21 00 01 FE 02 21 00  .tlk0...#!....!.
```

#### Opcodes

```
  0: 0x0001 [0x42] SET_CLI_EVENT_CANCEL_DATA()
  1: 0x0002 [0x03] Work_Zone[1] = 0*
  2: 0x0007 [0x03] ExtData[1]->WorkLocal[0] = Work_Zone[2]
  3: 0x000C [0x03] ExtData[1]->WorkLocal[1] = Work_Zone[3]
  4: 0x0011 [0x03] ExtData[1]->WorkLocal[4] = 0*
  5: 0x0016 [0x03] ExtData[1]->WorkLocal[2] = 2*
  6: 0x001B [0x03] ExtData[1]->WorkLocal[3] = 0*
  7: 0x0020 [0x03] ExtData[1]->WorkLocal[5] = Work_Zone[7]
  8: 0x0025 [0x02] IF !(Work_Zone[5] == 0*) GOTO 0x0047
  9: 0x002D [0x02] IF !(Work_Zone[6] == 0*) GOTO 0x0047
 10: 0x0035 [0x03] ExtData[1]->WorkLocal[2] = 2*
 11: 0x003A [0x02] IF !(Work_Zone[4] == 0*) GOTO 0x0047
 12: 0x0042 [0x03] ExtData[1]->WorkLocal[2] = 6*
 13: 0x0047 [0x03] ExtData[1]->WorkLocal[6] = Work_Zone[4]
 14: 0x004C [0x03] ExtData[1]->WorkLocal[7] = Work_Zone[5]
 15: 0x0051 [0x03] ExtData[1]->WorkLocal[8] = Work_Zone[6]
 16: 0x0056 [0x02] IF !(ExtData[1]->WorkLocal[0] == 0*) GOTO 0x0065
 17: 0x005E [0x1D] PRINT_EVENT_MESSAGE(message_id=15969*)
    → "<Sigh>... To see such vistas of peace and prosperity restored to my homeland once more..."
 18: 0x0061 [0x23] WAIT_FOR_DIALOG_INTERACTION
 19: 0x0062 [0x01] GOTO 0x02FE
 20: 0x0065 [0x1E] EventEntity looks at LocalPlayer and starts talking
 21: 0x006A [0x1C] WAIT(30* ticks)
 22: 0x006D [0x66] LOAD_EXT_SCHEDULER_MAIN: Load scheduler "tlk0" with entities [EventEntity, EventEntity], work=9*
 23: 0x007C [0x02] IF !(ExtData[1]->WorkLocal[0] == 1*) GOTO 0x0098
 24: 0x0084 [0x03] Work_Zone[2] = ExtData[1]->WorkLocal[5]
 25: 0x0089 [0x1D] PRINT_EVENT_MESSAGE(message_id=15970*)
    → "Greetings, friend of Abyssea. [/Ivan/Ernst/Kierron/Cyril/Willis/Vincent] is my name. My superior officer [/Gilburt/Erich/Jerrett/Adrian/Fabricius/Fabien] and I have been dispatched here to provide logistical support to allies of our cause."
 26: 0x008C [0x23] WAIT_FOR_DIALOG_INTERACTION
 27: 0x008D [0x1D] PRINT_EVENT_MESSAGE(message_id=15971*)
    → "As you endeavor to restore light to our ravaged world, so too will we endeavor to aid you in every possible way."
 28: 0x0090 [0x23] WAIT_FOR_DIALOG_INTERACTION
 29: 0x0091 [0x3C] SET_BIT_FLAG_CONDITIONAL(target_work_offset=Work_Zone[1], bit_index_work_offset=1*, condition_work_offset=1*)
 30: 0x0098 [0x1D] PRINT_EVENT_MESSAGE(message_id=15972*)
    → "How might I assist you this day?"
 31: 0x009B [0x23] WAIT_FOR_DIALOG_INTERACTION
 32: 0x009C [0x66] LOAD_EXT_SCHEDULER_MAIN: Load scheduler "tlk1" with entities [EventEntity, EventEntity], work=9*

SUBROUTINE_00AB:
 33: 0x00AB [0x24] CREATE_DIALOG(message_id=15973*, default_option=0*, option_flags=ExtData[1]->WorkLocal[2])
    → "What would you like to ask about? [My current cruor balance./Resistance outpost status./Teleporting to a cavernous maw./Nothing right now.]"
 34: 0x00B2 [0x25] WAIT_DIALOG_SELECT()
 35: 0x00B3 [0x02] IF !(Work_Zone[0] == 0*) GOTO 0x00E8
 36: 0x00BB [0x66] LOAD_EXT_SCHEDULER_MAIN: Load scheduler "tlk0" with entities [EventEntity, EventEntity], work=9*
 37: 0x00CA [0x03] Work_Zone[2] = ExtData[1]->WorkLocal[1]
 38: 0x00CF [0x1D] PRINT_EVENT_MESSAGE(message_id=15974*)
    → "The figures in my logbook tell me you have $0 cruor to your name."
 39: 0x00D2 [0x23] WAIT_FOR_DIALOG_INTERACTION
 40: 0x00D3 [0x66] LOAD_EXT_SCHEDULER_MAIN: Load scheduler "tlk1" with entities [EventEntity, EventEntity], work=9*
 41: 0x00E2 [0x01] GOTO 0x00AB

SUBROUTINE_0234:
 42: 0x0234 [0x66] LOAD_EXT_SCHEDULER_MAIN: Load scheduler "tlk0" with entities [EventEntity, EventEntity], work=9*
 43: 0x0243 [0x03] Work_Zone[3] = 200*
 44: 0x0248 [0x1D] PRINT_EVENT_MESSAGE(message_id=15980*)
    → "$1 cruor is required for transport to the gateway to Abyssea - [La Theine/Konschtat/Tahrongi/Attohwa/Misareaux/Vunkerl/Altepa/Uleguerand/Grauberg]."
 45: 0x024B [0x23] WAIT_FOR_DIALOG_INTERACTION
 46: 0x024C [0x3C] SET_BIT_FLAG_CONDITIONAL(target_work_offset=Work_Zone[1], bit_index_work_offset=8*, condition_work_offset=1*)
 47: 0x0253 [0x43] SEND_EVENT_UPDATE: Send pending tag to server (packet 0x005B)
 48: 0x0255 [0x43] SEND_EVENT_UPDATE: Check pending flag (skip if not pending)
 49: 0x0257 [0x02] IF !(Work_Zone[3] == 1*) GOTO 0x027E
 50: 0x025F [0x1D] PRINT_EVENT_MESSAGE(message_id=15981*)
    → "Ah, it seems you have insufficient cruor to make that journey."
 51: 0x0262 [0x23] WAIT_FOR_DIALOG_INTERACTION
 52: 0x0263 [0x66] LOAD_EXT_SCHEDULER_MAIN: Load scheduler "tlk1" with entities [EventEntity, EventEntity], work=9*
 53: 0x0272 [0x40] SET_BIT_WORK_RANGE(start_bit=2*, end_bit=5*, target=Work_Zone[1], source=0*)
 54: 0x027B [0x01] GOTO 0x00AB
 55: 0x027E [0x66] LOAD_EXT_SCHEDULER_MAIN: Load scheduler "tlk1" with entities [EventEntity, EventEntity], work=9*
 56: 0x028D [0x03] Work_Zone[3] = 200*
 57: 0x0292 [0x03] Work_Zone[4] = ExtData[1]->WorkLocal[1]
 58: 0x0297 [0x24] CREATE_DIALOG(message_id=15982*, default_option=1*, option_flags=0*)
    → "Will you proceed? (Cruor balance: $2) [Make it so./Make it no.]"
 59: 0x029E [0x25] WAIT_DIALOG_SELECT()
 60: 0x029F [0x02] IF !(Work_Zone[0] == 0*) GOTO 0x02BD
 61: 0x02A7 [0xBB] LOAD_EVENT_SCHEDULER_ALT: Load scheduler "in00" with entities [LocalPlayer, LocalPlayer], work=[223*, 0*]
 62: 0x02B8 [0x21] END_EVENT
 63: 0x02B9 [0x00] END_REQSTACK()

SUBROUTINE_02DB:
 64: 0x02DB [0x01] GOTO 0x02FE
 65: 0x02DE [0x02] IF !(Work_Zone[0] == 3*) GOTO 0x02FE
 66: 0x02E6 [0x66] LOAD_EXT_SCHEDULER_MAIN: Load scheduler "tlk0" with entities [EventEntity, EventEntity], work=9*
 67: 0x02F5 [0x1D] PRINT_EVENT_MESSAGE(message_id=16021*)
    → "Very well, friend. Should you ever find yourself in need of assistance, do not hesitate to return."
 68: 0x02F8 [0x23] WAIT_FOR_DIALOG_INTERACTION
 69: 0x02F9 [0x21] END_EVENT
 70: 0x02FA [0x00] END_REQSTACK()

SUBROUTINE_02FE:
 71: 0x02FE [0x21] END_EVENT
 72: 0x02FF [0x00] END_REQSTACK()
```

#### Data or dead code:

```
# Dead code (unreachable instructions):
     0x00E5 [0x01] GOTO 0x02FE
     0x0231 [0x01] GOTO 0x0234
# Dead code (unreachable instructions):
     0x02BA [0x01] GOTO 0x02DB
     0x02D8 [0x01] GOTO 0x02DB
# Dead code (unreachable instructions):
     0x02FB [0x01] GOTO 0x02FE
```
