# 17760350 - Paytah

## Common Data

| Field            | Value                   |
|------------------|-------------------------|
| Zone             | Port Windurst (ID: 240) |
| Block Size       | 728 bytes               |
| Total Events     | 19                      |
| References Count | 20                      |

## List of Events

| Event ID                   | Entrypoint   |   Size |   Instructions |
|----------------------------|--------------|--------|----------------|
| [65535](#event-65535)      | 0x0000       |      1 |              1 |
| [65535.1](#event-655351)   | 0x0001       |     16 |              2 |
| [65535.2](#event-655352)   | 0x0011       |     16 |              2 |
| [65535.3](#event-655353)   | 0x0021       |     16 |              2 |
| [65535.4](#event-655354)   | 0x0031       |     14 |              2 |
| [65535.5](#event-655355)   | 0x003F       |      9 |              3 |
| [288](#event-288)          | 0x0048       |     29 |             10 |
| [291](#event-291)          | 0x0065       |     50 |             13 |
| [65535.6](#event-655356)   | 0x0097       |     44 |             10 |
| [65535.7](#event-655357)   | 0x00C3       |     26 |              6 |
| [292](#event-292)          | 0x00DD       |     28 |             10 |
| [65535.8](#event-655358)   | 0x00F9       |     44 |             10 |
| [293](#event-293)          | 0x0125       |     29 |             10 |
| [295](#event-295)          | 0x0142       |     38 |             10 |
| [65535.9](#event-655359)   | 0x0168       |     37 |              9 |
| [296](#event-296)          | 0x018D       |     47 |             14 |
| [298](#event-298)          | 0x01BC       |     68 |             13 |
| [65535.10](#event-6553510) | 0x0200       |     23 |              7 |
| [65535.11](#event-6553511) | 0x0217       |     19 |              5 |

## DAT References (imed_data)

|   Index | Hex Value   |   Dec Value |
|---------|-------------|-------------|
|       0 | 0x004B      |          75 |
|       1 | 0x004C      |          76 |
|       2 | 0x001E      |          30 |
|       3 | 0x0EEA      |        3818 |
|       4 | 0x000F      |          15 |
|       5 | 0x0EED      |        3821 |
|       6 | 0x0EEE      |        3822 |
|       7 | 0x0EF0      |        3824 |
|       8 | 0x0EF1      |        3825 |
|       9 | 0x0EF2      |        3826 |
|      10 | 0x0EF3      |        3827 |
|      11 | 0x00C9      |         201 |
|      12 | 0x0000      |           0 |
|      13 | 0x0EF5      |        3829 |
|      14 | 0x0EF6      |        3830 |
|      15 | 0x0EF7      |        3831 |
|      16 | 0x0EF8      |        3832 |
|      17 | 0x0EFA      |        3834 |
|      18 | 0x0EFB      |        3835 |
|      19 | 0x0EFD      |        3837 |

## String References

- **3818**: Our daddy's a sailor-man, so sis and I are waiting for daddy's ship to come back.
- **3821**: I'm in big trouble! The wind blew my daddy's hat into the sea.
- **3822**: Daddy's gonna be so angry! I'm gonna get a walloping! <sniff> <sniff> Waaaaaah!
- **3824**: No! <sob> Don't say that! Nooooo! <sob> Waaahaaaaa\`aah!
- **3825**: Thank you [Miss/Mister]! But... Oh, no... It's...it's...all tattered and torn...!? Uh-uh...
- **3826**: Waaaaa\`aah!!!
- **3827**: Waaaaha\`aah!!!
- **3829**: Oh...wow!!! It's as good as new! Great! Now daddy can go sailing again!
- **3830**: Phew... Saved! Here, you can have this...
- **3831**: Thank you! Now my daddy can go sailing again!
- **3832**: Oooh! I'm so glad! Yahooo!
- **3834**: Ah...! Thank you! Now my daddy can go sailing again.
- **3835**: But, wait...? This isn't my daddy's cap...?
- **3837**: Uh...here... Take it back! <sob>...Waaaaa\`aah!!!

## Events

### Event 65535

#### Metadata

| Field        | Value   |
|--------------|---------|
| Entrypoint   | 0x0000  |
| Data Size    | 1 bytes |
| Instructions | 1       |

```
      00 01 02 03 04 05 06 07  08 09 0A 0B 0C 0D 0E 0F
      -- -- -- -- -- -- -- --  -- -- -- -- -- -- -- --
0000: 00                                                .               
```

#### Opcodes

```
  0: 0x0000 [0x00] END_REQSTACK()
```

### Event 65535.1

#### Metadata

| Field        | Value    |
|--------------|----------|
| Entrypoint   | 0x0001   |
| Data Size    | 16 bytes |
| Instructions | 2        |

```
      00 01 02 03 04 05 06 07  08 09 0A 0B 0C 0D 0E 0F
      -- -- -- -- -- -- -- --  -- -- -- -- -- -- -- --
0000:    5B 00 80 F8 FF FF 7F  F8 FF FF 7F 74 6C 6B 30   [..........tlk0
0010: 00                                                .               
```

#### Opcodes

```
  0: 0x0001 [0x5B] LOAD_EXT_SCHEDULER: Load scheduler "tlk0" with entities [EventEntity, EventEntity], work=75*
  1: 0x0010 [0x00] END_REQSTACK()
```

### Event 65535.2

#### Metadata

| Field        | Value    |
|--------------|----------|
| Entrypoint   | 0x0011   |
| Data Size    | 16 bytes |
| Instructions | 2        |

```
      00 01 02 03 04 05 06 07  08 09 0A 0B 0C 0D 0E 0F
      -- -- -- -- -- -- -- --  -- -- -- -- -- -- -- --
0010:    5B 01 80 F8 FF FF 7F  F8 FF FF 7F 63 72 79 30   [..........cry0
0020: 00                                                .               
```

#### Opcodes

```
  0: 0x0011 [0x5B] LOAD_EXT_SCHEDULER: Load scheduler "cry0" with entities [EventEntity, EventEntity], work=76*
  1: 0x0020 [0x00] END_REQSTACK()
```

### Event 65535.3

#### Metadata

| Field        | Value    |
|--------------|----------|
| Entrypoint   | 0x0021   |
| Data Size    | 16 bytes |
| Instructions | 2        |

```
      00 01 02 03 04 05 06 07  08 09 0A 0B 0C 0D 0E 0F
      -- -- -- -- -- -- -- --  -- -- -- -- -- -- -- --
0020:    5B 01 80 F8 FF FF 7F  F8 FF FF 7F 63 72 79 31   [..........cry1
0030: 00                                                .               
```

#### Opcodes

```
  0: 0x0021 [0x5B] LOAD_EXT_SCHEDULER: Load scheduler "cry1" with entities [EventEntity, EventEntity], work=76*
  1: 0x0030 [0x00] END_REQSTACK()
```

### Event 65535.4

#### Metadata

| Field        | Value    |
|--------------|----------|
| Entrypoint   | 0x0031   |
| Data Size    | 14 bytes |
| Instructions | 2        |

```
      00 01 02 03 04 05 06 07  08 09 0A 0B 0C 0D 0E 0F
      -- -- -- -- -- -- -- --  -- -- -- -- -- -- -- --
0030:    53 F8 FF FF 7F F8 FF  FF 7F 63 72 79 31 00      S........cry1. 
```

#### Opcodes

```
  0: 0x0031 [0x53] WAIT_SCHEDULER_TASK: Wait for scheduler "cry1" with entities [EventEntity, EventEntity]
  1: 0x003E [0x00] END_REQSTACK()
```

### Event 65535.5

#### Metadata

| Field        | Value   |
|--------------|---------|
| Entrypoint   | 0x003F  |
| Data Size    | 9 bytes |
| Instructions | 3       |

```
      00 01 02 03 04 05 06 07  08 09 0A 0B 0C 0D 0E 0F
      -- -- -- -- -- -- -- --  -- -- -- -- -- -- -- --
0030:                                               5E                 ^
0040: 69 64 6C 30 1C 02 80 00                           idl0....        
```

#### Opcodes

```
  0: 0x003F [0x5E] EventEntity goes idle (kills current action) (animation: "idl0")
  1: 0x0044 [0x1C] WAIT(30* ticks)
  2: 0x0047 [0x00] END_REQSTACK()
```

### Event 288

#### Metadata

| Field        | Value    |
|--------------|----------|
| Entrypoint   | 0x0048   |
| Data Size    | 29 bytes |
| Instructions | 10       |

```
      00 01 02 03 04 05 06 07  08 09 0A 0B 0C 0D 0E 0F
      -- -- -- -- -- -- -- --  -- -- -- -- -- -- -- --
0040:                          1E F0 FF FF 7F 6F 70 29          .....op)
0050: 08 5E 00 0F 01 01 1D 03  80 23 29 08 5E 00 0F 01  .^.......#).^...
0060: 05 20 00 21 00                                    . .!.           
```

#### Opcodes

```
  0: 0x0048 [0x1E] EventEntity looks at LocalPlayer and starts talking
  1: 0x004D [0x6F] WAIT_FRAME_DELAY: Yield until WaitTime reaches zero
  2: 0x004E [0x70] WAIT_ENTITY_RENDER_FLAG: Wait while EventEntity->Render.Flags3 bit 2 is set (cancel turn if not)
  3: 0x004F [0x29] REQ_SET_WAIT(priority=0x08, entity_id=Paytah (ID: 17760350/0x010F005E), tag_num=0x01)
  4: 0x0056 [0x1D] PRINT_EVENT_MESSAGE(message_id=3818*)
    → "Our daddy's a sailor-man, so sis and I are waiting for daddy's ship to come back."
  5: 0x0059 [0x23] WAIT_FOR_DIALOG_INTERACTION
  6: 0x005A [0x29] REQ_SET_WAIT(priority=0x08, entity_id=Paytah (ID: 17760350/0x010F005E), tag_num=0x05)
  7: 0x0061 [0x20] SET_CLI_EVENT_UC_FLAG: Unlock player control
  8: 0x0063 [0x21] END_EVENT
  9: 0x0064 [0x00] END_REQSTACK()
```

### Event 291

#### Metadata

| Field        | Value    |
|--------------|----------|
| Entrypoint   | 0x0065   |
| Data Size    | 50 bytes |
| Instructions | 13       |

```
      00 01 02 03 04 05 06 07  08 09 0A 0B 0C 0D 0E 0F
      -- -- -- -- -- -- -- --  -- -- -- -- -- -- -- --
0060:                1E F0 FF  FF 7F 6F 70 29 0B 5E 00       .....op).^.
0070: 0F 01 08 29 0B 5F 00 0F  01 06 4A 5E 00 0F 01 5F  ...)._....J^..._
0080: 00 0F 01 6F 76 5E 00 0F  01 1C 04 80 29 0B 5E 00  ...ov^......).^.
0090: 0F 01 09 20 00 21 00                              ... .!.         
```

#### Opcodes

```
  0: 0x0065 [0x1E] EventEntity looks at LocalPlayer and starts talking
  1: 0x006A [0x6F] WAIT_FRAME_DELAY: Yield until WaitTime reaches zero
  2: 0x006B [0x70] WAIT_ENTITY_RENDER_FLAG: Wait while EventEntity->Render.Flags3 bit 2 is set (cancel turn if not)
  3: 0x006C [0x29] REQ_SET_WAIT(priority=0x0B, entity_id=Paytah (ID: 17760350/0x010F005E), tag_num=0x08)
  4: 0x0073 [0x29] REQ_SET_WAIT(priority=0x0B, entity_id=Odilia (ID: 17760351/0x010F005F), tag_num=0x06)
  5: 0x007A [0x4A] Paytah (ID: 17760350/0x010F005E) looks at Odilia (ID: 17760351/0x010F005F)
  6: 0x0083 [0x6F] WAIT_FRAME_DELAY: Yield until WaitTime reaches zero
  7: 0x0084 [0x76] CHECK_ENTITY_RENDER_FLAGS: Wait until Paytah (ID: 17760350/0x010F005E) Render.Flags0 and Render.Flags3 conditions are met
  8: 0x0089 [0x1C] WAIT(15* ticks)
  9: 0x008C [0x29] REQ_SET_WAIT(priority=0x0B, entity_id=Paytah (ID: 17760350/0x010F005E), tag_num=0x09)
 10: 0x0093 [0x20] SET_CLI_EVENT_UC_FLAG: Unlock player control
 11: 0x0095 [0x21] END_EVENT
 12: 0x0096 [0x00] END_REQSTACK()
```

### Event 65535.6

#### Metadata

| Field        | Value    |
|--------------|----------|
| Entrypoint   | 0x0097   |
| Data Size    | 44 bytes |
| Instructions | 10       |

```
      00 01 02 03 04 05 06 07  08 09 0A 0B 0C 0D 0E 0F
      -- -- -- -- -- -- -- --  -- -- -- -- -- -- -- --
0090:                      29  08 5E 00 0F 01 01 1D 05         ).^......
00A0: 80 23 29 08 5E 00 0F 01  05 29 08 5E 00 0F 01 02  .#).^....).^....
00B0: 1D 06 80 23 29 08 5E 00  0F 01 03 29 08 5E 00 0F  ...#).^....).^..
00C0: 01 04 00                                          ...             
```

#### Opcodes

```
  0: 0x0097 [0x29] REQ_SET_WAIT(priority=0x08, entity_id=Paytah (ID: 17760350/0x010F005E), tag_num=0x01)
  1: 0x009E [0x1D] PRINT_EVENT_MESSAGE(message_id=3821*)
    → "I'm in big trouble! The wind blew my daddy's hat into the sea."
  2: 0x00A1 [0x23] WAIT_FOR_DIALOG_INTERACTION
  3: 0x00A2 [0x29] REQ_SET_WAIT(priority=0x08, entity_id=Paytah (ID: 17760350/0x010F005E), tag_num=0x05)
  4: 0x00A9 [0x29] REQ_SET_WAIT(priority=0x08, entity_id=Paytah (ID: 17760350/0x010F005E), tag_num=0x02)
  5: 0x00B0 [0x1D] PRINT_EVENT_MESSAGE(message_id=3822*)
    → "Daddy's gonna be so angry! I'm gonna get a walloping! <sniff> <sniff> Waaaaaah!"
  6: 0x00B3 [0x23] WAIT_FOR_DIALOG_INTERACTION
  7: 0x00B4 [0x29] REQ_SET_WAIT(priority=0x08, entity_id=Paytah (ID: 17760350/0x010F005E), tag_num=0x03)
  8: 0x00BB [0x29] REQ_SET_WAIT(priority=0x08, entity_id=Paytah (ID: 17760350/0x010F005E), tag_num=0x04)
  9: 0x00C2 [0x00] END_REQSTACK()
```

### Event 65535.7

#### Metadata

| Field        | Value    |
|--------------|----------|
| Entrypoint   | 0x00C3   |
| Data Size    | 26 bytes |
| Instructions | 6        |

```
      00 01 02 03 04 05 06 07  08 09 0A 0B 0C 0D 0E 0F
      -- -- -- -- -- -- -- --  -- -- -- -- -- -- -- --
00C0:          29 08 5E 00 0F  01 02 1D 07 80 23 29 08     ).^.......#).
00D0: 5E 00 0F 01 03 29 08 5E  00 0F 01 04 00           ^....).^.....   
```

#### Opcodes

```
  0: 0x00C3 [0x29] REQ_SET_WAIT(priority=0x08, entity_id=Paytah (ID: 17760350/0x010F005E), tag_num=0x02)
  1: 0x00CA [0x1D] PRINT_EVENT_MESSAGE(message_id=3824*)
    → "No! <sob> Don't say that! Nooooo! <sob> Waaahaaaaa`aah!"
  2: 0x00CD [0x23] WAIT_FOR_DIALOG_INTERACTION
  3: 0x00CE [0x29] REQ_SET_WAIT(priority=0x08, entity_id=Paytah (ID: 17760350/0x010F005E), tag_num=0x03)
  4: 0x00D5 [0x29] REQ_SET_WAIT(priority=0x08, entity_id=Paytah (ID: 17760350/0x010F005E), tag_num=0x04)
  5: 0x00DC [0x00] END_REQSTACK()
```

### Event 292

#### Metadata

| Field        | Value    |
|--------------|----------|
| Entrypoint   | 0x00DD   |
| Data Size    | 28 bytes |
| Instructions | 10       |

```
      00 01 02 03 04 05 06 07  08 09 0A 0B 0C 0D 0E 0F
      -- -- -- -- -- -- -- --  -- -- -- -- -- -- -- --
00D0:                                         20 01 42                .B
00E0: 1E F0 FF FF 7F 6F 70 29  08 F0 FF FF 7F 07 29 0B  .....op)......).
00F0: 5E 00 0F 01 0B 20 00 21  00                       ^.... .!.       
```

#### Opcodes

```
  0: 0x00DD [0x20] SET_CLI_EVENT_UC_FLAG: Lock player control
  1: 0x00DF [0x42] SET_CLI_EVENT_CANCEL_DATA()
  2: 0x00E0 [0x1E] EventEntity looks at LocalPlayer and starts talking
  3: 0x00E5 [0x6F] WAIT_FRAME_DELAY: Yield until WaitTime reaches zero
  4: 0x00E6 [0x70] WAIT_ENTITY_RENDER_FLAG: Wait while EventEntity->Render.Flags3 bit 2 is set (cancel turn if not)
  5: 0x00E7 [0x29] REQ_SET_WAIT(priority=0x08, entity_id=LocalPlayer, tag_num=0x07)
  6: 0x00EE [0x29] REQ_SET_WAIT(priority=0x0B, entity_id=Paytah (ID: 17760350/0x010F005E), tag_num=0x0B)
  7: 0x00F5 [0x20] SET_CLI_EVENT_UC_FLAG: Unlock player control
  8: 0x00F7 [0x21] END_EVENT
  9: 0x00F8 [0x00] END_REQSTACK()
```

### Event 65535.8

#### Metadata

| Field        | Value    |
|--------------|----------|
| Entrypoint   | 0x00F9   |
| Data Size    | 44 bytes |
| Instructions | 10       |

```
      00 01 02 03 04 05 06 07  08 09 0A 0B 0C 0D 0E 0F
      -- -- -- -- -- -- -- --  -- -- -- -- -- -- -- --
00F0:                             29 08 5E 00 0F 01 01           ).^....
0100: 1D 08 80 23 29 08 5E 00  0F 01 05 29 08 5E 00 0F  ...#).^....).^..
0110: 01 02 1D 09 80 23 29 08  5E 00 0F 01 03 29 08 5E  .....#).^....).^
0120: 00 0F 01 04 00                                    .....           
```

#### Opcodes

```
  0: 0x00F9 [0x29] REQ_SET_WAIT(priority=0x08, entity_id=Paytah (ID: 17760350/0x010F005E), tag_num=0x01)
  1: 0x0100 [0x1D] PRINT_EVENT_MESSAGE(message_id=3825*)
    → "Thank you [Miss/Mister]! But... Oh, no... It's...it's...all tattered and torn...!? Uh-uh..."
  2: 0x0103 [0x23] WAIT_FOR_DIALOG_INTERACTION
  3: 0x0104 [0x29] REQ_SET_WAIT(priority=0x08, entity_id=Paytah (ID: 17760350/0x010F005E), tag_num=0x05)
  4: 0x010B [0x29] REQ_SET_WAIT(priority=0x08, entity_id=Paytah (ID: 17760350/0x010F005E), tag_num=0x02)
  5: 0x0112 [0x1D] PRINT_EVENT_MESSAGE(message_id=3826*)
    → "Waaaaa`aah!!!"
  6: 0x0115 [0x23] WAIT_FOR_DIALOG_INTERACTION
  7: 0x0116 [0x29] REQ_SET_WAIT(priority=0x08, entity_id=Paytah (ID: 17760350/0x010F005E), tag_num=0x03)
  8: 0x011D [0x29] REQ_SET_WAIT(priority=0x08, entity_id=Paytah (ID: 17760350/0x010F005E), tag_num=0x04)
  9: 0x0124 [0x00] END_REQSTACK()
```

### Event 293

#### Metadata

| Field        | Value    |
|--------------|----------|
| Entrypoint   | 0x0125   |
| Data Size    | 29 bytes |
| Instructions | 10       |

```
      00 01 02 03 04 05 06 07  08 09 0A 0B 0C 0D 0E 0F
      -- -- -- -- -- -- -- --  -- -- -- -- -- -- -- --
0120:                1E F0 FF  FF 7F 6F 70 29 08 5E 00       .....op).^.
0130: 0F 01 02 1D 0A 80 23 29  08 5E 00 0F 01 05 20 00  ......#).^.... .
0140: 21 00                                             !.              
```

#### Opcodes

```
  0: 0x0125 [0x1E] EventEntity looks at LocalPlayer and starts talking
  1: 0x012A [0x6F] WAIT_FRAME_DELAY: Yield until WaitTime reaches zero
  2: 0x012B [0x70] WAIT_ENTITY_RENDER_FLAG: Wait while EventEntity->Render.Flags3 bit 2 is set (cancel turn if not)
  3: 0x012C [0x29] REQ_SET_WAIT(priority=0x08, entity_id=Paytah (ID: 17760350/0x010F005E), tag_num=0x02)
  4: 0x0133 [0x1D] PRINT_EVENT_MESSAGE(message_id=3827*)
    → "Waaaaha`aah!!!"
  5: 0x0136 [0x23] WAIT_FOR_DIALOG_INTERACTION
  6: 0x0137 [0x29] REQ_SET_WAIT(priority=0x08, entity_id=Paytah (ID: 17760350/0x010F005E), tag_num=0x05)
  7: 0x013E [0x20] SET_CLI_EVENT_UC_FLAG: Unlock player control
  8: 0x0140 [0x21] END_EVENT
  9: 0x0141 [0x00] END_REQSTACK()
```

### Event 295

#### Metadata

| Field        | Value    |
|--------------|----------|
| Entrypoint   | 0x0142   |
| Data Size    | 38 bytes |
| Instructions | 10       |

```
      00 01 02 03 04 05 06 07  08 09 0A 0B 0C 0D 0E 0F
      -- -- -- -- -- -- -- --  -- -- -- -- -- -- -- --
0140:       20 01 42 1E F0 FF  FF 7F 6F 70 29 0B 5E 00     .B.....op).^.
0150: 0F 01 0E 45 0B 80 F0 FF  FF 7F F0 FF FF 7F 71 73  ...E..........qs
0160: 74 63 0C 80 20 00 21 00                           tc.. .!.        
```

#### Opcodes

```
  0: 0x0142 [0x20] SET_CLI_EVENT_UC_FLAG: Lock player control
  1: 0x0144 [0x42] SET_CLI_EVENT_CANCEL_DATA()
  2: 0x0145 [0x1E] EventEntity looks at LocalPlayer and starts talking
  3: 0x014A [0x6F] WAIT_FRAME_DELAY: Yield until WaitTime reaches zero
  4: 0x014B [0x70] WAIT_ENTITY_RENDER_FLAG: Wait while EventEntity->Render.Flags3 bit 2 is set (cancel turn if not)
  5: 0x014C [0x29] REQ_SET_WAIT(priority=0x0B, entity_id=Paytah (ID: 17760350/0x010F005E), tag_num=0x0E)
  6: 0x0153 [0x45] LOAD_SCHEDULED_TASK: Load scheduler "qstc" with entities [LocalPlayer, LocalPlayer], work=[201*, 0*]
  7: 0x0164 [0x20] SET_CLI_EVENT_UC_FLAG: Unlock player control
  8: 0x0166 [0x21] END_EVENT
  9: 0x0167 [0x00] END_REQSTACK()
```

### Event 65535.9

#### Metadata

| Field        | Value    |
|--------------|----------|
| Entrypoint   | 0x0168   |
| Data Size    | 37 bytes |
| Instructions | 9        |

```
      00 01 02 03 04 05 06 07  08 09 0A 0B 0C 0D 0E 0F
      -- -- -- -- -- -- -- --  -- -- -- -- -- -- -- --
0160:                          29 08 5E 00 0F 01 01 1D          ).^.....
0170: 0D 80 23 29 08 5E 00 0F  01 05 29 08 5E 00 0F 01  ..#).^....).^...
0180: 02 1D 0E 80 23 29 08 5E  00 0F 01 05 00           ....#).^.....   
```

#### Opcodes

```
  0: 0x0168 [0x29] REQ_SET_WAIT(priority=0x08, entity_id=Paytah (ID: 17760350/0x010F005E), tag_num=0x01)
  1: 0x016F [0x1D] PRINT_EVENT_MESSAGE(message_id=3829*)
    → "Oh...wow!!! It's as good as new! Great! Now daddy can go sailing again!"
  2: 0x0172 [0x23] WAIT_FOR_DIALOG_INTERACTION
  3: 0x0173 [0x29] REQ_SET_WAIT(priority=0x08, entity_id=Paytah (ID: 17760350/0x010F005E), tag_num=0x05)
  4: 0x017A [0x29] REQ_SET_WAIT(priority=0x08, entity_id=Paytah (ID: 17760350/0x010F005E), tag_num=0x02)
  5: 0x0181 [0x1D] PRINT_EVENT_MESSAGE(message_id=3830*)
    → "Phew... Saved! Here, you can have this..."
  6: 0x0184 [0x23] WAIT_FOR_DIALOG_INTERACTION
  7: 0x0185 [0x29] REQ_SET_WAIT(priority=0x08, entity_id=Paytah (ID: 17760350/0x010F005E), tag_num=0x05)
  8: 0x018C [0x00] END_REQSTACK()
```

### Event 296

#### Metadata

| Field        | Value    |
|--------------|----------|
| Entrypoint   | 0x018D   |
| Data Size    | 47 bytes |
| Instructions | 14       |

```
      00 01 02 03 04 05 06 07  08 09 0A 0B 0C 0D 0E 0F
      -- -- -- -- -- -- -- --  -- -- -- -- -- -- -- --
0180:                                         1E F0 FF               ...
0190: FF 7F 6F 70 29 08 5E 00  0F 01 01 1D 0F 80 23 29  ..op).^.......#)
01A0: 08 5E 00 0F 01 05 29 08  5E 00 0F 01 02 1D 10 80  .^....).^.......
01B0: 23 29 08 5E 00 0F 01 05  20 00 21 00              #).^.... .!.    
```

#### Opcodes

```
  0: 0x018D [0x1E] EventEntity looks at LocalPlayer and starts talking
  1: 0x0192 [0x6F] WAIT_FRAME_DELAY: Yield until WaitTime reaches zero
  2: 0x0193 [0x70] WAIT_ENTITY_RENDER_FLAG: Wait while EventEntity->Render.Flags3 bit 2 is set (cancel turn if not)
  3: 0x0194 [0x29] REQ_SET_WAIT(priority=0x08, entity_id=Paytah (ID: 17760350/0x010F005E), tag_num=0x01)
  4: 0x019B [0x1D] PRINT_EVENT_MESSAGE(message_id=3831*)
    → "Thank you! Now my daddy can go sailing again!"
  5: 0x019E [0x23] WAIT_FOR_DIALOG_INTERACTION
  6: 0x019F [0x29] REQ_SET_WAIT(priority=0x08, entity_id=Paytah (ID: 17760350/0x010F005E), tag_num=0x05)
  7: 0x01A6 [0x29] REQ_SET_WAIT(priority=0x08, entity_id=Paytah (ID: 17760350/0x010F005E), tag_num=0x02)
  8: 0x01AD [0x1D] PRINT_EVENT_MESSAGE(message_id=3832*)
    → "Oooh! I'm so glad! Yahooo!"
  9: 0x01B0 [0x23] WAIT_FOR_DIALOG_INTERACTION
 10: 0x01B1 [0x29] REQ_SET_WAIT(priority=0x08, entity_id=Paytah (ID: 17760350/0x010F005E), tag_num=0x05)
 11: 0x01B8 [0x20] SET_CLI_EVENT_UC_FLAG: Unlock player control
 12: 0x01BA [0x21] END_EVENT
 13: 0x01BB [0x00] END_REQSTACK()
```

### Event 298

#### Metadata

| Field        | Value    |
|--------------|----------|
| Entrypoint   | 0x01BC   |
| Data Size    | 68 bytes |
| Instructions | 13       |

```
      00 01 02 03 04 05 06 07  08 09 0A 0B 0C 0D 0E 0F
      -- -- -- -- -- -- -- --  -- -- -- -- -- -- -- --
01B0:                                      1E F0 FF FF              ....
01C0: 7F 6F 70 4A 5F 00 0F 01  F0 FF FF 7F 29 0B 5E 00  .opJ_.......).^.
01D0: 0F 01 11 4A 5F 00 0F 01  5E 00 0F 01 4A 5E 00 0F  ...J_...^...J^..
01E0: 01 5F 00 0F 01 29 0B 5F  00 0F 01 0A 4A 5E 00 0F  ._...)._....J^..
01F0: 01 F0 FF FF 7F 29 0B 5E  00 0F 01 12 20 00 21 00  .....).^.... .!.
```

#### Opcodes

```
  0: 0x01BC [0x1E] EventEntity looks at LocalPlayer and starts talking
  1: 0x01C1 [0x6F] WAIT_FRAME_DELAY: Yield until WaitTime reaches zero
  2: 0x01C2 [0x70] WAIT_ENTITY_RENDER_FLAG: Wait while EventEntity->Render.Flags3 bit 2 is set (cancel turn if not)
  3: 0x01C3 [0x4A] Odilia (ID: 17760351/0x010F005F) looks at LocalPlayer
  4: 0x01CC [0x29] REQ_SET_WAIT(priority=0x0B, entity_id=Paytah (ID: 17760350/0x010F005E), tag_num=0x11)
  5: 0x01D3 [0x4A] Odilia (ID: 17760351/0x010F005F) looks at Paytah (ID: 17760350/0x010F005E)
  6: 0x01DC [0x4A] Paytah (ID: 17760350/0x010F005E) looks at Odilia (ID: 17760351/0x010F005F)
  7: 0x01E5 [0x29] REQ_SET_WAIT(priority=0x0B, entity_id=Odilia (ID: 17760351/0x010F005F), tag_num=0x0A)
  8: 0x01EC [0x4A] Paytah (ID: 17760350/0x010F005E) looks at LocalPlayer
  9: 0x01F5 [0x29] REQ_SET_WAIT(priority=0x0B, entity_id=Paytah (ID: 17760350/0x010F005E), tag_num=0x12)
 10: 0x01FC [0x20] SET_CLI_EVENT_UC_FLAG: Unlock player control
 11: 0x01FE [0x21] END_EVENT
 12: 0x01FF [0x00] END_REQSTACK()
```

### Event 65535.10

#### Metadata

| Field        | Value    |
|--------------|----------|
| Entrypoint   | 0x0200   |
| Data Size    | 23 bytes |
| Instructions | 7        |

```
      00 01 02 03 04 05 06 07  08 09 0A 0B 0C 0D 0E 0F
      -- -- -- -- -- -- -- --  -- -- -- -- -- -- -- --
0200: 29 08 5E 00 0F 01 01 1D  11 80 23 1D 12 80 23 29  ).^.......#...#)
0210: 08 5E 00 0F 01 05 00                              .^.....         
```

#### Opcodes

```
  0: 0x0200 [0x29] REQ_SET_WAIT(priority=0x08, entity_id=Paytah (ID: 17760350/0x010F005E), tag_num=0x01)
  1: 0x0207 [0x1D] PRINT_EVENT_MESSAGE(message_id=3834*)
    → "Ah...! Thank you! Now my daddy can go sailing again."
  2: 0x020A [0x23] WAIT_FOR_DIALOG_INTERACTION
  3: 0x020B [0x1D] PRINT_EVENT_MESSAGE(message_id=3835*)
    → "But, wait...? This isn't my daddy's cap...?"
  4: 0x020E [0x23] WAIT_FOR_DIALOG_INTERACTION
  5: 0x020F [0x29] REQ_SET_WAIT(priority=0x08, entity_id=Paytah (ID: 17760350/0x010F005E), tag_num=0x05)
  6: 0x0216 [0x00] END_REQSTACK()
```

### Event 65535.11

#### Metadata

| Field        | Value    |
|--------------|----------|
| Entrypoint   | 0x0217   |
| Data Size    | 19 bytes |
| Instructions | 5        |

```
      00 01 02 03 04 05 06 07  08 09 0A 0B 0C 0D 0E 0F
      -- -- -- -- -- -- -- --  -- -- -- -- -- -- -- --
0210:                      29  08 5E 00 0F 01 02 1D 13         ).^......
0220: 80 23 29 08 5E 00 0F 01  05 00                    .#).^.....      
```

#### Opcodes

```
  0: 0x0217 [0x29] REQ_SET_WAIT(priority=0x08, entity_id=Paytah (ID: 17760350/0x010F005E), tag_num=0x02)
  1: 0x021E [0x1D] PRINT_EVENT_MESSAGE(message_id=3837*)
    → "Uh...here... Take it back! <sob>...Waaaaa`aah!!!"
  2: 0x0221 [0x23] WAIT_FOR_DIALOG_INTERACTION
  3: 0x0222 [0x29] REQ_SET_WAIT(priority=0x08, entity_id=Paytah (ID: 17760350/0x010F005E), tag_num=0x05)
  4: 0x0229 [0x00] END_REQSTACK()
```
