# 17760274 - Kuroido-Moido

## Common Data

| Field            | Value                   |
|------------------|-------------------------|
| Zone             | Port Windurst (ID: 240) |
| Block Size       | 6884 bytes              |
| Total Events     | 85                      |
| References Count | 160                     |

## List of Events

| Event ID                   | Entrypoint   |   Size |   Instructions |
|----------------------------|--------------|--------|----------------|
| [65535](#event-65535)      | 0x0000       |      1 |              1 |
| [65535.1](#event-655351)   | 0x0001       |     16 |              2 |
| [65535.2](#event-655352)   | 0x0011       |     22 |              4 |
| [65535.3](#event-655353)   | 0x0027       |     16 |              2 |
| [65535.4](#event-655354)   | 0x0037       |     14 |              2 |
| [65535.5](#event-655355)   | 0x0045       |     16 |              2 |
| [65535.6](#event-655356)   | 0x0055       |     14 |              2 |
| [65535.7](#event-655357)   | 0x0063       |     16 |              2 |
| [65535.8](#event-655358)   | 0x0073       |     14 |              2 |
| [65535.9](#event-655359)   | 0x0081       |     16 |              2 |
| [65535.10](#event-6553510) | 0x0091       |     14 |              2 |
| [65535.11](#event-6553511) | 0x009F       |     16 |              2 |
| [65535.12](#event-6553512) | 0x00AF       |     14 |              2 |
| [65535.13](#event-6553513) | 0x00BD       |     16 |              2 |
| [65535.14](#event-6553514) | 0x00CD       |     14 |              2 |
| [65535.15](#event-6553515) | 0x00DB       |     29 |              3 |
| [65535.16](#event-6553516) | 0x00F8       |     16 |              2 |
| [65535.17](#event-6553517) | 0x0108       |     14 |              2 |
| [65535.18](#event-6553518) | 0x0116       |      9 |              3 |
| [225](#event-225)          | 0x011F       |     33 |             12 |
| [226](#event-226)          | 0x0140       |     33 |             12 |
| [90](#event-90)            | 0x0161       |      1 |              1 |
| [65535.19](#event-6553519) | 0x0162       |     19 |              5 |
| [65535.20](#event-6553520) | 0x0175       |     19 |              5 |
| [65535.21](#event-6553521) | 0x0188       |     19 |              5 |
| [92](#event-92)            | 0x019B       |     33 |             12 |
| [97](#event-97)            | 0x01BC       |     29 |             10 |
| [98](#event-98)            | 0x01D9       |     33 |             12 |
| [100](#event-100)          | 0x01FA       |     33 |             12 |
| [147](#event-147)          | 0x021B       |      1 |              1 |
| [65535.22](#event-6553522) | 0x021C       |     19 |              5 |
| [65535.23](#event-6553523) | 0x022F       |      5 |              3 |
| [65535.24](#event-6553524) | 0x0234       |     23 |              7 |
| [65535.25](#event-6553525) | 0x024B       |     19 |              5 |
| [149](#event-149)          | 0x025E       |     33 |             12 |
| [151](#event-151)          | 0x027F       |     33 |             12 |
| [261](#event-261)          | 0x02A0       |     33 |             12 |
| [265](#event-265)          | 0x02C1       |      1 |              1 |
| [65535.26](#event-6553526) | 0x02C2       |     18 |              6 |
| [65535.27](#event-6553527) | 0x02D4       |     18 |              6 |
| [65535.28](#event-6553528) | 0x02E6       |     19 |              5 |
| [65535.29](#event-6553529) | 0x02F9       |     19 |              5 |
| [65535.30](#event-6553530) | 0x030C       |     19 |              5 |
| [65535.31](#event-6553531) | 0x031F       |     19 |              5 |
| [65535.32](#event-6553532) | 0x0332       |     19 |              5 |
| [266](#event-266)          | 0x0345       |     33 |             12 |
| [274](#event-274)          | 0x0366       |      1 |              1 |
| [65535.33](#event-6553533) | 0x0367       |     19 |              5 |
| [65535.34](#event-6553534) | 0x037A       |     19 |              5 |
| [276](#event-276)          | 0x038D       |     33 |             12 |
| [279](#event-279)          | 0x03AE       |     29 |             10 |
| [280](#event-280)          | 0x03CB       |    494 |             78 |
| [65535.35](#event-6553535) | 0x05B9       |     23 |              7 |
| [65535.36](#event-6553536) | 0x05D0       |     19 |              5 |
| [65535.37](#event-6553537) | 0x05E3       |     19 |              5 |
| [65535.38](#event-6553538) | 0x05F6       |      5 |              3 |
| [65535.39](#event-6553539) | 0x05FB       |     37 |              9 |
| [283](#event-283)          | 0x0620       |     47 |             14 |
| [284](#event-284)          | 0x064F       |    934 |            135 |
| [65535.40](#event-6553540) | 0x09F5       |     15 |              5 |
| [65535.41](#event-6553541) | 0x0A04       |     19 |              5 |
| [65535.42](#event-6553542) | 0x0A17       |     19 |              5 |
| [65535.43](#event-6553543) | 0x0A2A       |     19 |              5 |
| [65535.44](#event-6553544) | 0x0A3D       |     19 |              5 |
| [65535.45](#event-6553545) | 0x0A50       |     19 |              5 |
| [65535.46](#event-6553546) | 0x0A63       |     19 |              5 |
| [65535.47](#event-6553547) | 0x0A76       |      5 |              3 |
| [286](#event-286)          | 0x0A7B       |     94 |             24 |
| [456](#event-456)          | 0x0AD9       |      1 |              1 |
| [65535.48](#event-6553548) | 0x0ADA       |     10 |              2 |
| [65535.49](#event-6553549) | 0x0AE4       |     37 |              9 |
| [458](#event-458)          | 0x0B09       |     47 |             14 |
| [460](#event-460)          | 0x0B38       |     47 |             14 |
| [462](#event-462)          | 0x0B67       |     61 |             16 |
| [550](#event-550)          | 0x0BA4       |     61 |             16 |
| [548](#event-548)          | 0x0BE1       |     33 |             12 |
| [572](#event-572)          | 0x0C02       |     47 |             14 |
| [578](#event-578)          | 0x0C31       |    697 |            103 |
| [579](#event-579)          | 0x0EEA       |    192 |             48 |
| [580](#event-580)          | 0x0FAA       |     29 |             10 |
| [581](#event-581)          | 0x0FC7       |    610 |             85 |
| [582](#event-582)          | 0x1229       |     29 |             10 |
| [583](#event-583)          | 0x1246       |   1020 |            145 |
| [65535.50](#event-6553550) | 0x1642       |     15 |              5 |
| [858](#event-858)          | 0x1651       |    173 |             38 |

## DAT References (imed_data)

|   Index | Hex Value   |   Dec Value |
|---------|-------------|-------------|
|       0 | 0x0028      |          40 |
|       1 | 0x001E      |          30 |
|       2 | 0x0029      |          41 |
|       3 | 0x0E3E      |        3646 |
|       4 | 0x0E3F      |        3647 |
|       5 | 0x0E40      |        3648 |
|       6 | 0x0E41      |        3649 |
|       7 | 0x0D24      |        3364 |
|       8 | 0x0D26      |        3366 |
|       9 | 0x0D27      |        3367 |
|      10 | 0x0D2C      |        3372 |
|      11 | 0x0D2D      |        3373 |
|      12 | 0x0D34      |        3380 |
|      13 | 0x0D35      |        3381 |
|      14 | 0x0D36      |        3382 |
|      15 | 0x0D37      |        3383 |
|      16 | 0x0D38      |        3384 |
|      17 | 0x0D9A      |        3482 |
|      18 | 0x0D9E      |        3486 |
|      19 | 0x0D9F      |        3487 |
|      20 | 0x0DA0      |        3488 |
|      21 | 0x0DA2      |        3490 |
|      22 | 0x0DA5      |        3493 |
|      23 | 0x0DA6      |        3494 |
|      24 | 0x0DA9      |        3497 |
|      25 | 0x0DAA      |        3498 |
|      26 | 0x0E79      |        3705 |
|      27 | 0x0E7A      |        3706 |
|      28 | 0x000D      |          13 |
|      29 | 0xFFFE4592  |  4294854034 |
|      30 | 0x1899E     |      100766 |
|      31 | 0xFFFFEF66  |  4294963046 |
|      32 | 0x0C4A      |        3146 |
|      33 | 0xFFFE4A8E  |  4294855310 |
|      34 | 0x186C7     |      100039 |
|      35 | 0xFFFFEF67  |  4294963047 |
|      36 | 0x0364      |         868 |
|      37 | 0x0E82      |        3714 |
|      38 | 0x0E90      |        3728 |
|      39 | 0x306F      |       12399 |
|      40 | 0x0E9A      |        3738 |
|      41 | 0x3076      |       12406 |
|      42 | 0x0E9F      |        3743 |
|      43 | 0x0EA0      |        3744 |
|      44 | 0x0EB3      |        3763 |
|      45 | 0x0EB9      |        3769 |
|      46 | 0x0EBD      |        3773 |
|      47 | 0x0EBE      |        3774 |
|      48 | 0x0EC2      |        3778 |
|      49 | 0x0000      |           0 |
|      50 | 0x0064      |         100 |
|      51 | 0x00C8      |         200 |
|      52 | 0x003C      |          60 |
|      53 | 0x019B      |         411 |
|      54 | 0x0003      |           3 |
|      55 | 0x00A3      |         163 |
|      56 | 0x007F      |         127 |
|      57 | 0x0001      |           1 |
|      58 | 0x0008      |           8 |
|      59 | 0x008C      |         140 |
|      60 | 0x0002      |           2 |
|      61 | 0x0097      |         151 |
|      62 | 0x0EC4      |        3780 |
|      63 | 0x0EC5      |        3781 |
|      64 | 0x0EC6      |        3782 |
|      65 | 0x305A      |       12378 |
|      66 | 0x0EC8      |        3784 |
|      67 | 0x0ECC      |        3788 |
|      68 | 0x0ECD      |        3789 |
|      69 | 0x0ECF      |        3791 |
|      70 | 0x0ED0      |        3792 |
|      71 | 0x0ED5      |        3797 |
|      72 | 0x3064      |       12388 |
|      73 | 0x0ED8      |        3800 |
|      74 | 0x3066      |       12390 |
|      75 | 0x0C4F      |        3151 |
|      76 | 0x0190      |         400 |
|      77 | 0x00C9      |         201 |
|      78 | 0xFFFE4876  |  4294854774 |
|      79 | 0x191E7     |      102887 |
|      80 | 0x0ED1      |        3793 |
|      81 | 0x0ED2      |        3794 |
|      82 | 0x305F      |       12383 |
|      83 | 0x3061      |       12385 |
|      84 | 0x0ED4      |        3796 |
|      85 | 0x0EE2      |        3810 |
|      86 | 0x0EE6      |        3814 |
|      87 | 0x0EE7      |        3815 |
|      88 | 0x306B      |       12395 |
|      89 | 0x306C      |       12396 |
|      90 | 0xFFFE47BC  |  4294854588 |
|      91 | 0x19292     |      103058 |
|      92 | 0x0DAC      |        3500 |
|      93 | 0x2FFC      |       12284 |
|      94 | 0x2FFD      |       12285 |
|      95 | 0x3000      |       12288 |
|      96 | 0x3001      |       12289 |
|      97 | 0x3004      |       12292 |
|      98 | 0x3005      |       12293 |
|      99 | 0x3008      |       12296 |
|     100 | 0x3009      |       12297 |
|     101 | 0x3054      |       12372 |
|     102 | 0x3055      |       12373 |
|     103 | 0x313E      |       12606 |
|     104 | 0x313F      |       12607 |
|     105 | 0x00D5      |         213 |
|     106 | 0x3161      |       12641 |
|     107 | 0x3162      |       12642 |
|     108 | 0x3163      |       12643 |
|     109 | 0x3164      |       12644 |
|     110 | 0x3165      |       12645 |
|     111 | 0x3166      |       12646 |
|     112 | 0x3167      |       12647 |
|     113 | 0x3168      |       12648 |
|     114 | 0x0005      |           5 |
|     115 | 0x0006      |           6 |
|     116 | 0x3169      |       12649 |
|     117 | 0x316A      |       12650 |
|     118 | 0x316B      |       12651 |
|     119 | 0x0078      |         120 |
|     120 | 0x316C      |       12652 |
|     121 | 0x316D      |       12653 |
|     122 | 0x3173      |       12659 |
|     123 | 0x316E      |       12654 |
|     124 | 0x316F      |       12655 |
|     125 | 0x3170      |       12656 |
|     126 | 0x3171      |       12657 |
|     127 | 0x3172      |       12658 |
|     128 | 0x0004      |           4 |
|     129 | 0x3174      |       12660 |
|     130 | 0x3175      |       12661 |
|     131 | 0x3176      |       12662 |
|     132 | 0x3177      |       12663 |
|     133 | 0x3178      |       12664 |
|     134 | 0x3179      |       12665 |
|     135 | 0x317A      |       12666 |
|     136 | 0x317C      |       12668 |
|     137 | 0x317D      |       12669 |
|     138 | 0x317E      |       12670 |
|     139 | 0x0EB5      |        3765 |
|     140 | 0x317F      |       12671 |
|     141 | 0x3180      |       12672 |
|     142 | 0x3181      |       12673 |
|     143 | 0x0007      |           7 |
|     144 | 0x3182      |       12674 |
|     145 | 0x3183      |       12675 |
|     146 | 0x000B      |          11 |
|     147 | 0x3184      |       12676 |
|     148 | 0x3185      |       12677 |
|     149 | 0x3186      |       12678 |
|     150 | 0x3187      |       12679 |
|     151 | 0x3188      |       12680 |
|     152 | 0x3189      |       12681 |
|     153 | 0x318A      |       12682 |
|     154 | 0xFFFE49A1  |  4294855073 |
|     155 | 0x18C78     |      101496 |
|     156 | 0x0C34      |        3124 |
|     157 | 0x0C35      |        3125 |
|     158 | 0x0C36      |        3126 |
|     159 | 0x0C37      |        3127 |

## String References

- **3124**: You want to make $0? In case you didn't already know, a volatile objectaru like that needs to be kept in a special container.
- **3125**: Such a container can be synthesized if you have two $0 and $1. And if my memory serves me true, $2 serves as the bonding agentaru.
- **3126**: %, I hear, can be had within the Maze of Shakhrami. Not lying scattered about the floors, obviously. One of the crawlers there might be willing to partaru with one, but if not...well, you adventuring types know what to do.
- **3127**: Oh, did I mention $1? Naturally, to synthesize $0, you'll be needing one of those, too.
- **3364**: Yeah, the minister headed off hours ago. Said he had some preparations to do, or something like that...
- **3366**: I know, I know... Our minister is so self-centarued. He thinks of nothing but himself...
- **3367**: Well anyway, it'd probably look better for you to head on over to the magic towers in East Sarutabaruta.
- **3372**: The Minister of the Orastery believes in nobody but himself.
- **3373**: He claims the philosophy of the Orastery is that "the strong shouldn't rely on others." Our minister has no scruples.
- **3380**: The minister is a busy boy, so it's impossible to get a hold of him. The Mage Academy has become totarully used to not having him around...in fact, sometimes we prefer it this way.
- **3381**: By the way, were you able to retrieve the cracked Mana Orb?
- **3382**: If so, then tell it to my buddy, Hakkuru-Rinkuru, there...
- **3383**: Don't tell me this was your first mission?
- **3384**: Well, good for you! Your future looks bright, kid. Once you've made it with the Orastery, you're well on your way to a successful career.
- **3482**: Our minister came back here a little while ago, but left almostaru right away. He seemed to be preparing for a long journey this time.
- **3486**: H-hells bells? What's the mattaru, Hakkuru-Rinkuru?
- **3487**: ...I just remembered, our minister took a caduceus staff with him!
- **3488**: That can only mean one thing...!
- **3490**: I guess so... But why Castle Oztroja?
- **3493**: Castle Oztroja is the towering stronghold of the Yagudo king, locatarued deep within the Meriphataud Mountains.
- **3494**: That's our minister for you! Settaruing off alone with nary a single War Warlock, thinking he's all manly... Nothing but recklessness!
- **3497**: I heard, I heard... The Sibyl Guard Semih Lafihna has given orders to pursue our dear minister.
- **3498**: If I were our minister, I certainly wouldn't be coming back to the Orastery. It'd be a waste of time to hang around here. It'd be bettaru for you to give up on him, and report back to Heavens Tower.
- **3646**: Either you are extremely brave to entaru such a dangerous place as this...
- **3647**: ...or you don't know much about our Mage Academy, do you?
- **3648**: The guard platoons who protect Windurst at each gatehouse... They're all affiliatarued with our Orastery.
- **3649**: But they are just simple guards. It's not until they join the War Warlocks that they can feel any real pride in belonging to the Orastery.
- **3705**: I'd like to say that we could give you your wands back after we finish the performance comparison tests...
- **3706**: ...But the problem is, we can't ensure the wands will survive the testaruing process in one piece!
- **3714**: Oh-oh! Your timing is bad... Doctor Shantotto has come to visit and is out back right now...
- **3728**: If Minister Ajido-Marujido hadn't turned up justaru at the right moment, you'd be on your way to heaven right now, pal.
- **3738**: You should be the one to decide, Minister Ajido-Marujido! That way everything will be settaruled peacefully.
- **3743**: He's buying up weapons and armor from other countries for us to study in order to improve our strategic skills, I guess.
- **3744**: But wouldn't that suggest a possibility of antagonizing these other countries...? Don't tell me our Orastery staff have to read that far into the mattaru...?
- **3763**: I never said we should pull a swift one on him! Acts of badness will always come to light eventarually, you know? Besides, you were the one who suggestarued it first, Hakkuru-Rinkuru!
- **3769**: I'm stating this for the record, but I am having no partaru in this!
- **3773**: I'm stating this for the record, but I am having no partaru in this!
- **3774**: We shouldn'taru have tried to clean the minister's important wand to begin with! He always told us not to touch the wand's case!
- **3778**: I wonder why the minister places such importarunce on that wand? It doesn't look like it has any particular value.
- **3780**: Let me explain why Hakkuru-Rinkuru is so down in the dumps...
- **3781**: You remember the little incident where he accidentarully broke the minister's wand, don'taru you? He was able to pull the wool over the minister's eyes up until he replaced the wand with a new one.
- **3782**: But our minister knows his stuff! Seems the minister took one look at the new wand, realized it had been switched, and gave Hakkuru-Rinkuru a right royal telling off!
- **3784**: You've got me confused. What's the problem then?
- **3788**: Hmm...It is just as I feared. That wasn'taru just your average wand we were dealing with there. It wasn'taru something that you could replace by simply buying a new one.
- **3789**: You sent the old wand off to the magic incinerator, rightaru? I wonder if they've already incinerated it?
- **3791**: It seems my colleague sent the old wand off to the magic incinerator in Garlaige Citadel.
- **3792**: It's probably too late to save it from being burnt to a crisp...
- **3793**: Hmm... Looks like you saved the day. This is undeniably our minister's original wand.
- **3794**: Looky here, Hakkuru-Rinkuru! Seems the wand hasn't been "fired," so neither will you...
- **3796**: There, there... Now all we have to do is wait for the minister to come back...
- **3800**: What's the emergency, Miss?
- **3810**: ......
- **3814**: Now I get the picture... When our minister saw the wand that Hakkuru-Rinkuru had fixed with $1, he must have thought his dear mother was trying to tell him something!
- **3815**: But if that's the case, then... If we don't stick this wand back together again, they'll return to being the fightaruing siblings that they originally were.
- **12284**: Well, it's like the minister said--head to the southwestern tower in West Sarutabaruta and entaru the laboratory.
- **12285**: This $3 is the key to the laboratory.
- **12288**: As I'm sure you remember, it is forbidden to tamper with the Horutoto Ruins withoutaru permission from Heavens Tower.
- **12289**: Our minister has been scolded repeatedly by the Sibyl Guards over his blatantaru disregard for this rule. ...It's a tense situation.
- **12292**: This is terrible-werrible. Semih Lafihna came asking about the mission.
- **12293**: Of course, we explained the mission in a round-a-bout-a-wout way... But she seems to have found outaru the details from some other source.
- **12296**: We need to stay calm and think. With no leader for the Mage Academy, an attack from another nation or a beastman army would turn Windurst into rubble-wubble.
- **12297**: If that happens, then we should have Doctor Shantotto on the frontaru line... No wait, we need Doctor Shantotto to be Windurst's lastaru line of defense...
- **12372**: As for the minister's condition...there's nothing wrong with his physical health, but his mind is being held in thrall by an unknown force.
- **12373**: Minister Apururu was stammering so much she could hardly speak, but it seems something unexpected transpired at the Dark Dungeon. ...With both Minister Apururu and Professor Shantotto here, we shouldn't have anything to worry about, though...
- **12378**: The Orastery sometimes has visits from Professor Shantotto, and it was she who saw through the deception. After a single glance at the new wand, the professor blew her top at Hakkuru-Rinkuru.
- **12383**: Come on Hakkuru-Rinkuru, cheer up. When Minister Ajido-Marujido gets back, we'll apologize to him together.
- **12385**: What a lucky break. With Minister Ajido-Marujido in the Dark Dungeon, this wand'll be the least of his worries...
- **12395**: Now I see what's going on. Hakkuru-Rinkuru, you've been completely taken in by Professor Shantotto.
- **12396**: She knew all about the history of that wand. What a meanie-beanie, malicious-wicious person she is.
- **12399**: If Miss Apururu hadn't come along when she did, you would be on your way to the Gates of Paradise by now.
- **12406**: We had gathered the three wands that the brigadier generals wanted and we were comparing their quality. Then when Professor Shantotto showed up, all this happened...
- **12606**: The timely return of the minister has saved the Orastery Mages from a collective case of stomach ulcer-wulcers.
- **12607**: If he had come back any later, who knows what awful chores we could have been sentaru on by a certain schemey-weeming Tarutaru?
- **12641**: In the name of forging the mages of the Orastery into a fit fighting force, a terror-inspiring plan of Code E proportions is underway here in Windurst!
- **12642**: And that plan is known as the Martial Mages Mortal Mashfest! Mages will competaru in a no-magic, no holds barred, club-swinging free-for-all!
- **12644**: The organizer of this gladiatorial extravaganza-wanza is taking advantage of Minister Ajido-Marujido's absence to completaru the preparations.
- **12645**: And what's more, that very same organizer is thinking of including a deathmatch between adventurers and mages of the Orastery!
- **12647**: In the case that our multiple countermeasures fail before Minister Ajido-Marujido returns and the Mashfest actually takes place, we here in the Operations Division have come up with alternative preparations.
- **12648**: With everyone's help, we have created this magical club.
- **12649**: I entrustaru this club to you, and ask that you smacky-whack away until its magical power has been depleted.
- **12650**: Such a wonderfully designed weapon. While swinging at your enemy with the club, you have a hand free to hold a shield in defense...
- **12651**: As opposed to the reckless-weckless organizer of this event, who's likely to charge in flailing a staff with both hands...
- **12652**: The club that you were given has been empowered with a special-wecial magic. Please use it in battle until the spell on the club has faded. Was there something else?
- **12653**: Was there something? [No, nothing else./I lost the $1.../I give up.]
- **12654**: Lucky for you, the boys here in Operations think of every contingency. Here's a new club for you.
- **12655**: Oh, you really wantaru give up? We had such a greataru reward waiting for you, too...
- **12656**: Do you still wantaru give up? [No more clubbing for me./I guess I could club some more...]
- **12657**: I see... Even an adventurer like you has to be afraid of that person. I don'taru blame you!
- **12658**: Please disposey-wose of the club so you won't be connected with the goings-on here at the Orastery.
- **12659**: We have a splendid-wendid reward for you after your task is done. Don'taru give up, now!
- **12660**: The spell upon the club still remains. The magic will fade once the data has been fully-wully recorded, so keep on clubbing!
- **12661**: Good work. We've managed to compile-wile some useful data from your efforts.
- **12662**: Now, aboutaru your reward. It's not something that everyone can use, so we mustaru test your suitability first.
- **12663**: Now, now, don't get all fluster-wustered. We're not intending to sendy-wend you into the jaws of death to keep our plans secret.
- **12664**: Here. Prove your strength to us by thump-whumping a monster in a special place in Ro'Maeve.
- **12665**: Bring us $6 from the monster you defeataru, and we'll consider you worthy to receive the reward.
- **12666**: The reward we will give you is extremely-wemely special. Prove to us you can use it by testing your mettle in Ro'Maeve.
- **12668**: Amazing! You've returned victorious!
- **12669**: For your reward, I will teach you a super-secret club technique passed down through the Orastery for generations. This ultimate technique was developed as a lastaru resort for when all magic has been exhausted.
- **12670**: We are mostaru grateful for your assistance. Use it wisely.
- **12673**: The opponents that the organizer will send against us will mostaru likely be toppity-notch combatants... Without the data collected from powerful adventurers who have completed our test, we wouldn'taru be in any position to compete.
- **12678**: Hmmm. But when you think about it, everyone's being forced to brush up their club technique anyway...
- **12679**: You know, putting the sinister-winister will aside, the existence of Doctor Shantotto actually contributes to the improvementaru of the Orastery.
- **12680**: Being a ministry with an often absentaru minister, we need to be kept on our toesy-woes.

## Events

### Event 65535

#### Metadata

| Field        | Value   |
|--------------|---------|
| Entrypoint   | 0x0000  |
| Data Size    | 1 bytes |
| Instructions | 1       |

```
      00 01 02 03 04 05 06 07  08 09 0A 0B 0C 0D 0E 0F
      -- -- -- -- -- -- -- --  -- -- -- -- -- -- -- --
0000: 00                                                .               
```

#### Opcodes

```
  0: 0x0000 [0x00] END_REQSTACK()
```

### Event 65535.1

#### Metadata

| Field        | Value    |
|--------------|----------|
| Entrypoint   | 0x0001   |
| Data Size    | 16 bytes |
| Instructions | 2        |

```
      00 01 02 03 04 05 06 07  08 09 0A 0B 0C 0D 0E 0F
      -- -- -- -- -- -- -- --  -- -- -- -- -- -- -- --
0000:    66 00 80 F8 FF FF 7F  F8 FF FF 7F 74 6C 6B 30   f..........tlk0
0010: 00                                                .               
```

#### Opcodes

```
  0: 0x0001 [0x66] LOAD_EXT_SCHEDULER_MAIN: Load scheduler "tlk0" with entities [EventEntity, EventEntity], work=40*
  1: 0x0010 [0x00] END_REQSTACK()
```

### Event 65535.2

#### Metadata

| Field        | Value    |
|--------------|----------|
| Entrypoint   | 0x0011   |
| Data Size    | 22 bytes |
| Instructions | 4        |

```
      00 01 02 03 04 05 06 07  08 09 0A 0B 0C 0D 0E 0F
      -- -- -- -- -- -- -- --  -- -- -- -- -- -- -- --
0010:    53 F8 FF FF 7F F8 FF  FF 7F 74 6C 6B 30 5E 69   S........tlk0^i
0020: 64 6C 30 1C 01 80 00                              dl0....         
```

#### Opcodes

```
  0: 0x0011 [0x53] WAIT_SCHEDULER_TASK: Wait for scheduler "tlk0" with entities [EventEntity, EventEntity]
  1: 0x001E [0x5E] EventEntity goes idle (kills current action) (animation: "idl0")
  2: 0x0023 [0x1C] WAIT(30* ticks)
  3: 0x0026 [0x00] END_REQSTACK()
```

### Event 65535.3

#### Metadata

| Field        | Value    |
|--------------|----------|
| Entrypoint   | 0x0027   |
| Data Size    | 16 bytes |
| Instructions | 2        |

```
      00 01 02 03 04 05 06 07  08 09 0A 0B 0C 0D 0E 0F
      -- -- -- -- -- -- -- --  -- -- -- -- -- -- -- --
0020:                      66  00 80 F8 FF FF 7F F8 FF         f........
0030: FF 7F 74 68 6B 31 00                              ..thk1.         
```

#### Opcodes

```
  0: 0x0027 [0x66] LOAD_EXT_SCHEDULER_MAIN: Load scheduler "thk1" with entities [EventEntity, EventEntity], work=40*
  1: 0x0036 [0x00] END_REQSTACK()
```

### Event 65535.4

#### Metadata

| Field        | Value    |
|--------------|----------|
| Entrypoint   | 0x0037   |
| Data Size    | 14 bytes |
| Instructions | 2        |

```
      00 01 02 03 04 05 06 07  08 09 0A 0B 0C 0D 0E 0F
      -- -- -- -- -- -- -- --  -- -- -- -- -- -- -- --
0030:                      53  F8 FF FF 7F F8 FF FF 7F         S........
0040: 74 68 6B 31 00                                    thk1.           
```

#### Opcodes

```
  0: 0x0037 [0x53] WAIT_SCHEDULER_TASK: Wait for scheduler "thk1" with entities [EventEntity, EventEntity]
  1: 0x0044 [0x00] END_REQSTACK()
```

### Event 65535.5

#### Metadata

| Field        | Value    |
|--------------|----------|
| Entrypoint   | 0x0045   |
| Data Size    | 16 bytes |
| Instructions | 2        |

```
      00 01 02 03 04 05 06 07  08 09 0A 0B 0C 0D 0E 0F
      -- -- -- -- -- -- -- --  -- -- -- -- -- -- -- --
0040:                66 00 80  F8 FF FF 7F F8 FF FF 7F       f..........
0050: 74 68 6B 32 00                                    thk2.           
```

#### Opcodes

```
  0: 0x0045 [0x66] LOAD_EXT_SCHEDULER_MAIN: Load scheduler "thk2" with entities [EventEntity, EventEntity], work=40*
  1: 0x0054 [0x00] END_REQSTACK()
```

### Event 65535.6

#### Metadata

| Field        | Value    |
|--------------|----------|
| Entrypoint   | 0x0055   |
| Data Size    | 14 bytes |
| Instructions | 2        |

```
      00 01 02 03 04 05 06 07  08 09 0A 0B 0C 0D 0E 0F
      -- -- -- -- -- -- -- --  -- -- -- -- -- -- -- --
0050:                53 F8 FF  FF 7F F8 FF FF 7F 74 68       S........th
0060: 6B 32 00                                          k2.             
```

#### Opcodes

```
  0: 0x0055 [0x53] WAIT_SCHEDULER_TASK: Wait for scheduler "thk2" with entities [EventEntity, EventEntity]
  1: 0x0062 [0x00] END_REQSTACK()
```

### Event 65535.7

#### Metadata

| Field        | Value    |
|--------------|----------|
| Entrypoint   | 0x0063   |
| Data Size    | 16 bytes |
| Instructions | 2        |

```
      00 01 02 03 04 05 06 07  08 09 0A 0B 0C 0D 0E 0F
      -- -- -- -- -- -- -- --  -- -- -- -- -- -- -- --
0060:          66 00 80 F8 FF  FF 7F F8 FF FF 7F 69 72     f..........ir
0070: 6F 30 00                                          o0.             
```

#### Opcodes

```
  0: 0x0063 [0x66] LOAD_EXT_SCHEDULER_MAIN: Load scheduler "iro0" with entities [EventEntity, EventEntity], work=40*
  1: 0x0072 [0x00] END_REQSTACK()
```

### Event 65535.8

#### Metadata

| Field        | Value    |
|--------------|----------|
| Entrypoint   | 0x0073   |
| Data Size    | 14 bytes |
| Instructions | 2        |

```
      00 01 02 03 04 05 06 07  08 09 0A 0B 0C 0D 0E 0F
      -- -- -- -- -- -- -- --  -- -- -- -- -- -- -- --
0070:          53 F8 FF FF 7F  F8 FF FF 7F 69 72 6F 30     S........iro0
0080: 00                                                .               
```

#### Opcodes

```
  0: 0x0073 [0x53] WAIT_SCHEDULER_TASK: Wait for scheduler "iro0" with entities [EventEntity, EventEntity]
  1: 0x0080 [0x00] END_REQSTACK()
```

### Event 65535.9

#### Metadata

| Field        | Value    |
|--------------|----------|
| Entrypoint   | 0x0081   |
| Data Size    | 16 bytes |
| Instructions | 2        |

```
      00 01 02 03 04 05 06 07  08 09 0A 0B 0C 0D 0E 0F
      -- -- -- -- -- -- -- --  -- -- -- -- -- -- -- --
0080:    66 00 80 F8 FF FF 7F  F8 FF FF 7F 64 69 73 30   f..........dis0
0090: 00                                                .               
```

#### Opcodes

```
  0: 0x0081 [0x66] LOAD_EXT_SCHEDULER_MAIN: Load scheduler "dis0" with entities [EventEntity, EventEntity], work=40*
  1: 0x0090 [0x00] END_REQSTACK()
```

### Event 65535.10

#### Metadata

| Field        | Value    |
|--------------|----------|
| Entrypoint   | 0x0091   |
| Data Size    | 14 bytes |
| Instructions | 2        |

```
      00 01 02 03 04 05 06 07  08 09 0A 0B 0C 0D 0E 0F
      -- -- -- -- -- -- -- --  -- -- -- -- -- -- -- --
0090:    53 F8 FF FF 7F F8 FF  FF 7F 64 69 73 30 00      S........dis0. 
```

#### Opcodes

```
  0: 0x0091 [0x53] WAIT_SCHEDULER_TASK: Wait for scheduler "dis0" with entities [EventEntity, EventEntity]
  1: 0x009E [0x00] END_REQSTACK()
```

### Event 65535.11

#### Metadata

| Field        | Value    |
|--------------|----------|
| Entrypoint   | 0x009F   |
| Data Size    | 16 bytes |
| Instructions | 2        |

```
      00 01 02 03 04 05 06 07  08 09 0A 0B 0C 0D 0E 0F
      -- -- -- -- -- -- -- --  -- -- -- -- -- -- -- --
0090:                                               66                 f
00A0: 00 80 F8 FF FF 7F F8 FF  FF 7F 70 6F 69 30 00     ..........poi0. 
```

#### Opcodes

```
  0: 0x009F [0x66] LOAD_EXT_SCHEDULER_MAIN: Load scheduler "poi0" with entities [EventEntity, EventEntity], work=40*
  1: 0x00AE [0x00] END_REQSTACK()
```

### Event 65535.12

#### Metadata

| Field        | Value    |
|--------------|----------|
| Entrypoint   | 0x00AF   |
| Data Size    | 14 bytes |
| Instructions | 2        |

```
      00 01 02 03 04 05 06 07  08 09 0A 0B 0C 0D 0E 0F
      -- -- -- -- -- -- -- --  -- -- -- -- -- -- -- --
00A0:                                               53                 S
00B0: F8 FF FF 7F F8 FF FF 7F  70 6F 69 30 00           ........poi0.   
```

#### Opcodes

```
  0: 0x00AF [0x53] WAIT_SCHEDULER_TASK: Wait for scheduler "poi0" with entities [EventEntity, EventEntity]
  1: 0x00BC [0x00] END_REQSTACK()
```

### Event 65535.13

#### Metadata

| Field        | Value    |
|--------------|----------|
| Entrypoint   | 0x00BD   |
| Data Size    | 16 bytes |
| Instructions | 2        |

```
      00 01 02 03 04 05 06 07  08 09 0A 0B 0C 0D 0E 0F
      -- -- -- -- -- -- -- --  -- -- -- -- -- -- -- --
00B0:                                         66 02 80               f..
00C0: F8 FF FF 7F F8 FF FF 7F  73 68 6B 30 00           ........shk0.   
```

#### Opcodes

```
  0: 0x00BD [0x66] LOAD_EXT_SCHEDULER_MAIN: Load scheduler "shk0" with entities [EventEntity, EventEntity], work=41*
  1: 0x00CC [0x00] END_REQSTACK()
```

### Event 65535.14

#### Metadata

| Field        | Value    |
|--------------|----------|
| Entrypoint   | 0x00CD   |
| Data Size    | 14 bytes |
| Instructions | 2        |

```
      00 01 02 03 04 05 06 07  08 09 0A 0B 0C 0D 0E 0F
      -- -- -- -- -- -- -- --  -- -- -- -- -- -- -- --
00C0:                                         53 F8 FF               S..
00D0: FF 7F F8 FF FF 7F 73 68  6B 30 00                 ......shk0.     
```

#### Opcodes

```
  0: 0x00CD [0x53] WAIT_SCHEDULER_TASK: Wait for scheduler "shk0" with entities [EventEntity, EventEntity]
  1: 0x00DA [0x00] END_REQSTACK()
```

### Event 65535.15

#### Metadata

| Field        | Value    |
|--------------|----------|
| Entrypoint   | 0x00DB   |
| Data Size    | 29 bytes |
| Instructions | 3        |

```
      00 01 02 03 04 05 06 07  08 09 0A 0B 0C 0D 0E 0F
      -- -- -- -- -- -- -- --  -- -- -- -- -- -- -- --
00D0:                                   66 02 80 F8 FF             f....
00E0: FF 7F F8 FF FF 7F 73 68  6B 30 53 F8 FF FF 7F F8  ......shk0S.....
00F0: FF FF 7F 73 68 6B 30 00                           ...shk0.        
```

#### Opcodes

```
  0: 0x00DB [0x66] LOAD_EXT_SCHEDULER_MAIN: Load scheduler "shk0" with entities [EventEntity, EventEntity], work=41*
  1: 0x00EA [0x53] WAIT_SCHEDULER_TASK: Wait for scheduler "shk0" with entities [EventEntity, EventEntity]
  2: 0x00F7 [0x00] END_REQSTACK()
```

### Event 65535.16

#### Metadata

| Field        | Value    |
|--------------|----------|
| Entrypoint   | 0x00F8   |
| Data Size    | 16 bytes |
| Instructions | 2        |

```
      00 01 02 03 04 05 06 07  08 09 0A 0B 0C 0D 0E 0F
      -- -- -- -- -- -- -- --  -- -- -- -- -- -- -- --
00F0:                          66 00 80 F8 FF FF 7F F8          f.......
0100: FF FF 7F 70 61 73 30 00                           ...pas0.        
```

#### Opcodes

```
  0: 0x00F8 [0x66] LOAD_EXT_SCHEDULER_MAIN: Load scheduler "pas0" with entities [EventEntity, EventEntity], work=40*
  1: 0x0107 [0x00] END_REQSTACK()
```

### Event 65535.17

#### Metadata

| Field        | Value    |
|--------------|----------|
| Entrypoint   | 0x0108   |
| Data Size    | 14 bytes |
| Instructions | 2        |

```
      00 01 02 03 04 05 06 07  08 09 0A 0B 0C 0D 0E 0F
      -- -- -- -- -- -- -- --  -- -- -- -- -- -- -- --
0100:                          53 F8 FF FF 7F F8 FF FF          S.......
0110: 7F 70 61 73 30 00                                 .pas0.          
```

#### Opcodes

```
  0: 0x0108 [0x53] WAIT_SCHEDULER_TASK: Wait for scheduler "pas0" with entities [EventEntity, EventEntity]
  1: 0x0115 [0x00] END_REQSTACK()
```

### Event 65535.18

#### Metadata

| Field        | Value   |
|--------------|---------|
| Entrypoint   | 0x0116  |
| Data Size    | 9 bytes |
| Instructions | 3       |

```
      00 01 02 03 04 05 06 07  08 09 0A 0B 0C 0D 0E 0F
      -- -- -- -- -- -- -- --  -- -- -- -- -- -- -- --
0110:                   5E 69  64 6C 30 1C 01 80 00           ^idl0.... 
```

#### Opcodes

```
  0: 0x0116 [0x5E] EventEntity goes idle (kills current action) (animation: "idl0")
  1: 0x011B [0x1C] WAIT(30* ticks)
  2: 0x011E [0x00] END_REQSTACK()
```

### Event 225

#### Metadata

| Field        | Value    |
|--------------|----------|
| Entrypoint   | 0x011F   |
| Data Size    | 33 bytes |
| Instructions | 12       |

```
      00 01 02 03 04 05 06 07  08 09 0A 0B 0C 0D 0E 0F
      -- -- -- -- -- -- -- --  -- -- -- -- -- -- -- --
0110:                                               1E                 .
0120: F0 FF FF 7F 6F 70 29 08  12 00 0F 01 01 1D 03 80  ....op).........
0130: 23 1D 04 80 23 29 08 12  00 0F 01 02 20 00 21 00  #...#)...... .!.
```

#### Opcodes

```
  0: 0x011F [0x1E] EventEntity looks at LocalPlayer and starts talking
  1: 0x0124 [0x6F] WAIT_FRAME_DELAY: Yield until WaitTime reaches zero
  2: 0x0125 [0x70] WAIT_ENTITY_RENDER_FLAG: Wait while EventEntity->Render.Flags3 bit 2 is set (cancel turn if not)
  3: 0x0126 [0x29] REQ_SET_WAIT(priority=0x08, entity_id=Kuroido-Moido (ID: 17760274/0x010F0012), tag_num=0x01)
  4: 0x012D [0x1D] PRINT_EVENT_MESSAGE(message_id=3646*)
    → "Either you are extremely brave to entaru such a dangerous place as this..."
  5: 0x0130 [0x23] WAIT_FOR_DIALOG_INTERACTION
  6: 0x0131 [0x1D] PRINT_EVENT_MESSAGE(message_id=3647*)
    → "...or you don't know much about our Mage Academy, do you?"
  7: 0x0134 [0x23] WAIT_FOR_DIALOG_INTERACTION
  8: 0x0135 [0x29] REQ_SET_WAIT(priority=0x08, entity_id=Kuroido-Moido (ID: 17760274/0x010F0012), tag_num=0x02)
  9: 0x013C [0x20] SET_CLI_EVENT_UC_FLAG: Unlock player control
 10: 0x013E [0x21] END_EVENT
 11: 0x013F [0x00] END_REQSTACK()
```

### Event 226

#### Metadata

| Field        | Value    |
|--------------|----------|
| Entrypoint   | 0x0140   |
| Data Size    | 33 bytes |
| Instructions | 12       |

```
      00 01 02 03 04 05 06 07  08 09 0A 0B 0C 0D 0E 0F
      -- -- -- -- -- -- -- --  -- -- -- -- -- -- -- --
0140: 1E F0 FF FF 7F 6F 70 29  08 12 00 0F 01 01 1D 05  .....op)........
0150: 80 23 1D 06 80 23 29 08  12 00 0F 01 02 20 00 21  .#...#)...... .!
0160: 00                                                .               
```

#### Opcodes

```
  0: 0x0140 [0x1E] EventEntity looks at LocalPlayer and starts talking
  1: 0x0145 [0x6F] WAIT_FRAME_DELAY: Yield until WaitTime reaches zero
  2: 0x0146 [0x70] WAIT_ENTITY_RENDER_FLAG: Wait while EventEntity->Render.Flags3 bit 2 is set (cancel turn if not)
  3: 0x0147 [0x29] REQ_SET_WAIT(priority=0x08, entity_id=Kuroido-Moido (ID: 17760274/0x010F0012), tag_num=0x01)
  4: 0x014E [0x1D] PRINT_EVENT_MESSAGE(message_id=3648*)
    → "The guard platoons who protect Windurst at each gatehouse... They're all affiliatarued with our Orastery."
  5: 0x0151 [0x23] WAIT_FOR_DIALOG_INTERACTION
  6: 0x0152 [0x1D] PRINT_EVENT_MESSAGE(message_id=3649*)
    → "But they are just simple guards. It's not until they join the War Warlocks that they can feel any real pride in belonging to the Orastery."
  7: 0x0155 [0x23] WAIT_FOR_DIALOG_INTERACTION
  8: 0x0156 [0x29] REQ_SET_WAIT(priority=0x08, entity_id=Kuroido-Moido (ID: 17760274/0x010F0012), tag_num=0x02)
  9: 0x015D [0x20] SET_CLI_EVENT_UC_FLAG: Unlock player control
 10: 0x015F [0x21] END_EVENT
 11: 0x0160 [0x00] END_REQSTACK()
```

### Event 90

#### Metadata

| Field        | Value   |
|--------------|---------|
| Entrypoint   | 0x0161  |
| Data Size    | 1 bytes |
| Instructions | 1       |

```
      00 01 02 03 04 05 06 07  08 09 0A 0B 0C 0D 0E 0F
      -- -- -- -- -- -- -- --  -- -- -- -- -- -- -- --
0160:    00                                              .              
```

#### Opcodes

```
  0: 0x0161 [0x00] END_REQSTACK()
```

### Event 65535.19

#### Metadata

| Field        | Value    |
|--------------|----------|
| Entrypoint   | 0x0162   |
| Data Size    | 19 bytes |
| Instructions | 5        |

```
      00 01 02 03 04 05 06 07  08 09 0A 0B 0C 0D 0E 0F
      -- -- -- -- -- -- -- --  -- -- -- -- -- -- -- --
0160:       29 08 12 00 0F 01  01 1D 07 80 23 29 08 12    ).........#)..
0170: 00 0F 01 02 00                                    .....           
```

#### Opcodes

```
  0: 0x0162 [0x29] REQ_SET_WAIT(priority=0x08, entity_id=Kuroido-Moido (ID: 17760274/0x010F0012), tag_num=0x01)
  1: 0x0169 [0x1D] PRINT_EVENT_MESSAGE(message_id=3364*)
    → "Yeah, the minister headed off hours ago. Said he had some preparations to do, or something like that..."
  2: 0x016C [0x23] WAIT_FOR_DIALOG_INTERACTION
  3: 0x016D [0x29] REQ_SET_WAIT(priority=0x08, entity_id=Kuroido-Moido (ID: 17760274/0x010F0012), tag_num=0x02)
  4: 0x0174 [0x00] END_REQSTACK()
```

### Event 65535.20

#### Metadata

| Field        | Value    |
|--------------|----------|
| Entrypoint   | 0x0175   |
| Data Size    | 19 bytes |
| Instructions | 5        |

```
      00 01 02 03 04 05 06 07  08 09 0A 0B 0C 0D 0E 0F
      -- -- -- -- -- -- -- --  -- -- -- -- -- -- -- --
0170:                29 08 12  00 0F 01 01 1D 08 80 23       ).........#
0180: 29 08 12 00 0F 01 02 00                           ).......        
```

#### Opcodes

```
  0: 0x0175 [0x29] REQ_SET_WAIT(priority=0x08, entity_id=Kuroido-Moido (ID: 17760274/0x010F0012), tag_num=0x01)
  1: 0x017C [0x1D] PRINT_EVENT_MESSAGE(message_id=3366*)
    → "I know, I know... Our minister is so self-centarued. He thinks of nothing but himself..."
  2: 0x017F [0x23] WAIT_FOR_DIALOG_INTERACTION
  3: 0x0180 [0x29] REQ_SET_WAIT(priority=0x08, entity_id=Kuroido-Moido (ID: 17760274/0x010F0012), tag_num=0x02)
  4: 0x0187 [0x00] END_REQSTACK()
```

### Event 65535.21

#### Metadata

| Field        | Value    |
|--------------|----------|
| Entrypoint   | 0x0188   |
| Data Size    | 19 bytes |
| Instructions | 5        |

```
      00 01 02 03 04 05 06 07  08 09 0A 0B 0C 0D 0E 0F
      -- -- -- -- -- -- -- --  -- -- -- -- -- -- -- --
0180:                          29 08 12 00 0F 01 01 1D          ).......
0190: 09 80 23 29 08 12 00 0F  01 02 00                 ..#).......     
```

#### Opcodes

```
  0: 0x0188 [0x29] REQ_SET_WAIT(priority=0x08, entity_id=Kuroido-Moido (ID: 17760274/0x010F0012), tag_num=0x01)
  1: 0x018F [0x1D] PRINT_EVENT_MESSAGE(message_id=3367*)
    → "Well anyway, it'd probably look better for you to head on over to the magic towers in East Sarutabaruta."
  2: 0x0192 [0x23] WAIT_FOR_DIALOG_INTERACTION
  3: 0x0193 [0x29] REQ_SET_WAIT(priority=0x08, entity_id=Kuroido-Moido (ID: 17760274/0x010F0012), tag_num=0x02)
  4: 0x019A [0x00] END_REQSTACK()
```

### Event 92

#### Metadata

| Field        | Value    |
|--------------|----------|
| Entrypoint   | 0x019B   |
| Data Size    | 33 bytes |
| Instructions | 12       |

```
      00 01 02 03 04 05 06 07  08 09 0A 0B 0C 0D 0E 0F
      -- -- -- -- -- -- -- --  -- -- -- -- -- -- -- --
0190:                                   1E F0 FF FF 7F             .....
01A0: 6F 70 29 08 12 00 0F 01  01 1D 0A 80 23 1D 0B 80  op).........#...
01B0: 23 29 08 12 00 0F 01 02  20 00 21 00              #)...... .!.    
```

#### Opcodes

```
  0: 0x019B [0x1E] EventEntity looks at LocalPlayer and starts talking
  1: 0x01A0 [0x6F] WAIT_FRAME_DELAY: Yield until WaitTime reaches zero
  2: 0x01A1 [0x70] WAIT_ENTITY_RENDER_FLAG: Wait while EventEntity->Render.Flags3 bit 2 is set (cancel turn if not)
  3: 0x01A2 [0x29] REQ_SET_WAIT(priority=0x08, entity_id=Kuroido-Moido (ID: 17760274/0x010F0012), tag_num=0x01)
  4: 0x01A9 [0x1D] PRINT_EVENT_MESSAGE(message_id=3372*)
    → "The Minister of the Orastery believes in nobody but himself."
  5: 0x01AC [0x23] WAIT_FOR_DIALOG_INTERACTION
  6: 0x01AD [0x1D] PRINT_EVENT_MESSAGE(message_id=3373*)
    → "He claims the philosophy of the Orastery is that "the strong shouldn't rely on others." Our minister has no scruples."
  7: 0x01B0 [0x23] WAIT_FOR_DIALOG_INTERACTION
  8: 0x01B1 [0x29] REQ_SET_WAIT(priority=0x08, entity_id=Kuroido-Moido (ID: 17760274/0x010F0012), tag_num=0x02)
  9: 0x01B8 [0x20] SET_CLI_EVENT_UC_FLAG: Unlock player control
 10: 0x01BA [0x21] END_EVENT
 11: 0x01BB [0x00] END_REQSTACK()
```

### Event 97

#### Metadata

| Field        | Value    |
|--------------|----------|
| Entrypoint   | 0x01BC   |
| Data Size    | 29 bytes |
| Instructions | 10       |

```
      00 01 02 03 04 05 06 07  08 09 0A 0B 0C 0D 0E 0F
      -- -- -- -- -- -- -- --  -- -- -- -- -- -- -- --
01B0:                                      1E F0 FF FF              ....
01C0: 7F 6F 70 29 08 12 00 0F  01 01 1D 0C 80 23 29 08  .op).........#).
01D0: 12 00 0F 01 02 20 00 21  00                       ..... .!.       
```

#### Opcodes

```
  0: 0x01BC [0x1E] EventEntity looks at LocalPlayer and starts talking
  1: 0x01C1 [0x6F] WAIT_FRAME_DELAY: Yield until WaitTime reaches zero
  2: 0x01C2 [0x70] WAIT_ENTITY_RENDER_FLAG: Wait while EventEntity->Render.Flags3 bit 2 is set (cancel turn if not)
  3: 0x01C3 [0x29] REQ_SET_WAIT(priority=0x08, entity_id=Kuroido-Moido (ID: 17760274/0x010F0012), tag_num=0x01)
  4: 0x01CA [0x1D] PRINT_EVENT_MESSAGE(message_id=3380*)
    → "The minister is a busy boy, so it's impossible to get a hold of him. The Mage Academy has become totarully used to not having him around...in fact, sometimes we prefer it this way."
  5: 0x01CD [0x23] WAIT_FOR_DIALOG_INTERACTION
  6: 0x01CE [0x29] REQ_SET_WAIT(priority=0x08, entity_id=Kuroido-Moido (ID: 17760274/0x010F0012), tag_num=0x02)
  7: 0x01D5 [0x20] SET_CLI_EVENT_UC_FLAG: Unlock player control
  8: 0x01D7 [0x21] END_EVENT
  9: 0x01D8 [0x00] END_REQSTACK()
```

### Event 98

#### Metadata

| Field        | Value    |
|--------------|----------|
| Entrypoint   | 0x01D9   |
| Data Size    | 33 bytes |
| Instructions | 12       |

```
      00 01 02 03 04 05 06 07  08 09 0A 0B 0C 0D 0E 0F
      -- -- -- -- -- -- -- --  -- -- -- -- -- -- -- --
01D0:                             1E F0 FF FF 7F 6F 70           .....op
01E0: 29 08 12 00 0F 01 01 1D  0D 80 23 1D 0E 80 23 29  ).........#...#)
01F0: 08 12 00 0F 01 02 20 00  21 00                    ...... .!.      
```

#### Opcodes

```
  0: 0x01D9 [0x1E] EventEntity looks at LocalPlayer and starts talking
  1: 0x01DE [0x6F] WAIT_FRAME_DELAY: Yield until WaitTime reaches zero
  2: 0x01DF [0x70] WAIT_ENTITY_RENDER_FLAG: Wait while EventEntity->Render.Flags3 bit 2 is set (cancel turn if not)
  3: 0x01E0 [0x29] REQ_SET_WAIT(priority=0x08, entity_id=Kuroido-Moido (ID: 17760274/0x010F0012), tag_num=0x01)
  4: 0x01E7 [0x1D] PRINT_EVENT_MESSAGE(message_id=3381*)
    → "By the way, were you able to retrieve the cracked Mana Orb?"
  5: 0x01EA [0x23] WAIT_FOR_DIALOG_INTERACTION
  6: 0x01EB [0x1D] PRINT_EVENT_MESSAGE(message_id=3382*)
    → "If so, then tell it to my buddy, Hakkuru-Rinkuru, there..."
  7: 0x01EE [0x23] WAIT_FOR_DIALOG_INTERACTION
  8: 0x01EF [0x29] REQ_SET_WAIT(priority=0x08, entity_id=Kuroido-Moido (ID: 17760274/0x010F0012), tag_num=0x02)
  9: 0x01F6 [0x20] SET_CLI_EVENT_UC_FLAG: Unlock player control
 10: 0x01F8 [0x21] END_EVENT
 11: 0x01F9 [0x00] END_REQSTACK()
```

### Event 100

#### Metadata

| Field        | Value    |
|--------------|----------|
| Entrypoint   | 0x01FA   |
| Data Size    | 33 bytes |
| Instructions | 12       |

```
      00 01 02 03 04 05 06 07  08 09 0A 0B 0C 0D 0E 0F
      -- -- -- -- -- -- -- --  -- -- -- -- -- -- -- --
01F0:                                1E F0 FF FF 7F 6F            .....o
0200: 70 29 08 12 00 0F 01 01  1D 0F 80 23 1D 10 80 23  p).........#...#
0210: 29 08 12 00 0F 01 02 20  00 21 00                 )...... .!.     
```

#### Opcodes

```
  0: 0x01FA [0x1E] EventEntity looks at LocalPlayer and starts talking
  1: 0x01FF [0x6F] WAIT_FRAME_DELAY: Yield until WaitTime reaches zero
  2: 0x0200 [0x70] WAIT_ENTITY_RENDER_FLAG: Wait while EventEntity->Render.Flags3 bit 2 is set (cancel turn if not)
  3: 0x0201 [0x29] REQ_SET_WAIT(priority=0x08, entity_id=Kuroido-Moido (ID: 17760274/0x010F0012), tag_num=0x01)
  4: 0x0208 [0x1D] PRINT_EVENT_MESSAGE(message_id=3383*)
    → "Don't tell me this was your first mission?"
  5: 0x020B [0x23] WAIT_FOR_DIALOG_INTERACTION
  6: 0x020C [0x1D] PRINT_EVENT_MESSAGE(message_id=3384*)
    → "Well, good for you! Your future looks bright, kid. Once you've made it with the Orastery, you're well on your way to a successful career."
  7: 0x020F [0x23] WAIT_FOR_DIALOG_INTERACTION
  8: 0x0210 [0x29] REQ_SET_WAIT(priority=0x08, entity_id=Kuroido-Moido (ID: 17760274/0x010F0012), tag_num=0x02)
  9: 0x0217 [0x20] SET_CLI_EVENT_UC_FLAG: Unlock player control
 10: 0x0219 [0x21] END_EVENT
 11: 0x021A [0x00] END_REQSTACK()
```

### Event 147

#### Metadata

| Field        | Value   |
|--------------|---------|
| Entrypoint   | 0x021B  |
| Data Size    | 1 bytes |
| Instructions | 1       |

```
      00 01 02 03 04 05 06 07  08 09 0A 0B 0C 0D 0E 0F
      -- -- -- -- -- -- -- --  -- -- -- -- -- -- -- --
0210:                                   00                         .    
```

#### Opcodes

```
  0: 0x021B [0x00] END_REQSTACK()
```

### Event 65535.22

#### Metadata

| Field        | Value    |
|--------------|----------|
| Entrypoint   | 0x021C   |
| Data Size    | 19 bytes |
| Instructions | 5        |

```
      00 01 02 03 04 05 06 07  08 09 0A 0B 0C 0D 0E 0F
      -- -- -- -- -- -- -- --  -- -- -- -- -- -- -- --
0210:                                      29 08 12 00              )...
0220: 0F 01 01 1D 11 80 23 29  08 12 00 0F 01 02 00     ......#)....... 
```

#### Opcodes

```
  0: 0x021C [0x29] REQ_SET_WAIT(priority=0x08, entity_id=Kuroido-Moido (ID: 17760274/0x010F0012), tag_num=0x01)
  1: 0x0223 [0x1D] PRINT_EVENT_MESSAGE(message_id=3482*)
    → "Our minister came back here a little while ago, but left almostaru right away. He seemed to be preparing for a long journey this time."
  2: 0x0226 [0x23] WAIT_FOR_DIALOG_INTERACTION
  3: 0x0227 [0x29] REQ_SET_WAIT(priority=0x08, entity_id=Kuroido-Moido (ID: 17760274/0x010F0012), tag_num=0x02)
  4: 0x022E [0x00] END_REQSTACK()
```

### Event 65535.23

#### Metadata

| Field        | Value   |
|--------------|---------|
| Entrypoint   | 0x022F  |
| Data Size    | 5 bytes |
| Instructions | 3       |

```
      00 01 02 03 04 05 06 07  08 09 0A 0B 0C 0D 0E 0F
      -- -- -- -- -- -- -- --  -- -- -- -- -- -- -- --
0220:                                               1D                 .
0230: 12 80 23 00                                       ..#.            
```

#### Opcodes

```
  0: 0x022F [0x1D] PRINT_EVENT_MESSAGE(message_id=3486*)
    → "H-hells bells? What's the mattaru, Hakkuru-Rinkuru?"
  1: 0x0232 [0x23] WAIT_FOR_DIALOG_INTERACTION
  2: 0x0233 [0x00] END_REQSTACK()
```

### Event 65535.24

#### Metadata

| Field        | Value    |
|--------------|----------|
| Entrypoint   | 0x0234   |
| Data Size    | 23 bytes |
| Instructions | 7        |

```
      00 01 02 03 04 05 06 07  08 09 0A 0B 0C 0D 0E 0F
      -- -- -- -- -- -- -- --  -- -- -- -- -- -- -- --
0230:             29 08 12 00  0F 01 01 1D 13 80 23 1D      ).........#.
0240: 14 80 23 29 08 12 00 0F  01 02 00                 ..#).......     
```

#### Opcodes

```
  0: 0x0234 [0x29] REQ_SET_WAIT(priority=0x08, entity_id=Kuroido-Moido (ID: 17760274/0x010F0012), tag_num=0x01)
  1: 0x023B [0x1D] PRINT_EVENT_MESSAGE(message_id=3487*)
    → "...I just remembered, our minister took a caduceus staff with him!"
  2: 0x023E [0x23] WAIT_FOR_DIALOG_INTERACTION
  3: 0x023F [0x1D] PRINT_EVENT_MESSAGE(message_id=3488*)
    → "That can only mean one thing...!"
  4: 0x0242 [0x23] WAIT_FOR_DIALOG_INTERACTION
  5: 0x0243 [0x29] REQ_SET_WAIT(priority=0x08, entity_id=Kuroido-Moido (ID: 17760274/0x010F0012), tag_num=0x02)
  6: 0x024A [0x00] END_REQSTACK()
```

### Event 65535.25

#### Metadata

| Field        | Value    |
|--------------|----------|
| Entrypoint   | 0x024B   |
| Data Size    | 19 bytes |
| Instructions | 5        |

```
      00 01 02 03 04 05 06 07  08 09 0A 0B 0C 0D 0E 0F
      -- -- -- -- -- -- -- --  -- -- -- -- -- -- -- --
0240:                                   29 08 12 00 0F             )....
0250: 01 01 1D 15 80 23 29 08  12 00 0F 01 02 00        .....#).......  
```

#### Opcodes

```
  0: 0x024B [0x29] REQ_SET_WAIT(priority=0x08, entity_id=Kuroido-Moido (ID: 17760274/0x010F0012), tag_num=0x01)
  1: 0x0252 [0x1D] PRINT_EVENT_MESSAGE(message_id=3490*)
    → "I guess so... But why Castle Oztroja?"
  2: 0x0255 [0x23] WAIT_FOR_DIALOG_INTERACTION
  3: 0x0256 [0x29] REQ_SET_WAIT(priority=0x08, entity_id=Kuroido-Moido (ID: 17760274/0x010F0012), tag_num=0x02)
  4: 0x025D [0x00] END_REQSTACK()
```

### Event 149

#### Metadata

| Field        | Value    |
|--------------|----------|
| Entrypoint   | 0x025E   |
| Data Size    | 33 bytes |
| Instructions | 12       |

```
      00 01 02 03 04 05 06 07  08 09 0A 0B 0C 0D 0E 0F
      -- -- -- -- -- -- -- --  -- -- -- -- -- -- -- --
0250:                                            1E F0                ..
0260: FF FF 7F 6F 70 29 08 12  00 0F 01 01 1D 16 80 23  ...op).........#
0270: 1D 17 80 23 29 08 12 00  0F 01 02 20 00 21 00     ...#)...... .!. 
```

#### Opcodes

```
  0: 0x025E [0x1E] EventEntity looks at LocalPlayer and starts talking
  1: 0x0263 [0x6F] WAIT_FRAME_DELAY: Yield until WaitTime reaches zero
  2: 0x0264 [0x70] WAIT_ENTITY_RENDER_FLAG: Wait while EventEntity->Render.Flags3 bit 2 is set (cancel turn if not)
  3: 0x0265 [0x29] REQ_SET_WAIT(priority=0x08, entity_id=Kuroido-Moido (ID: 17760274/0x010F0012), tag_num=0x01)
  4: 0x026C [0x1D] PRINT_EVENT_MESSAGE(message_id=3493*)
    → "Castle Oztroja is the towering stronghold of the Yagudo king, locatarued deep within the Meriphataud Mountains."
  5: 0x026F [0x23] WAIT_FOR_DIALOG_INTERACTION
  6: 0x0270 [0x1D] PRINT_EVENT_MESSAGE(message_id=3494*)
    → "That's our minister for you! Settaruing off alone with nary a single War Warlock, thinking he's all manly... Nothing but recklessness!"
  7: 0x0273 [0x23] WAIT_FOR_DIALOG_INTERACTION
  8: 0x0274 [0x29] REQ_SET_WAIT(priority=0x08, entity_id=Kuroido-Moido (ID: 17760274/0x010F0012), tag_num=0x02)
  9: 0x027B [0x20] SET_CLI_EVENT_UC_FLAG: Unlock player control
 10: 0x027D [0x21] END_EVENT
 11: 0x027E [0x00] END_REQSTACK()
```

### Event 151

#### Metadata

| Field        | Value    |
|--------------|----------|
| Entrypoint   | 0x027F   |
| Data Size    | 33 bytes |
| Instructions | 12       |

```
      00 01 02 03 04 05 06 07  08 09 0A 0B 0C 0D 0E 0F
      -- -- -- -- -- -- -- --  -- -- -- -- -- -- -- --
0270:                                               1E                 .
0280: F0 FF FF 7F 6F 70 29 08  12 00 0F 01 0B 1D 18 80  ....op).........
0290: 23 29 08 12 00 0F 01 0C  1D 19 80 23 20 00 21 00  #).........# .!.
```

#### Opcodes

```
  0: 0x027F [0x1E] EventEntity looks at LocalPlayer and starts talking
  1: 0x0284 [0x6F] WAIT_FRAME_DELAY: Yield until WaitTime reaches zero
  2: 0x0285 [0x70] WAIT_ENTITY_RENDER_FLAG: Wait while EventEntity->Render.Flags3 bit 2 is set (cancel turn if not)
  3: 0x0286 [0x29] REQ_SET_WAIT(priority=0x08, entity_id=Kuroido-Moido (ID: 17760274/0x010F0012), tag_num=0x0B)
  4: 0x028D [0x1D] PRINT_EVENT_MESSAGE(message_id=3497*)
    → "I heard, I heard... The Sibyl Guard Semih Lafihna has given orders to pursue our dear minister."
  5: 0x0290 [0x23] WAIT_FOR_DIALOG_INTERACTION
  6: 0x0291 [0x29] REQ_SET_WAIT(priority=0x08, entity_id=Kuroido-Moido (ID: 17760274/0x010F0012), tag_num=0x0C)
  7: 0x0298 [0x1D] PRINT_EVENT_MESSAGE(message_id=3498*)
    → "If I were our minister, I certainly wouldn't be coming back to the Orastery. It'd be a waste of time to hang around here. It'd be bettaru for you to give up on him, and report back to Heavens Tower."
  8: 0x029B [0x23] WAIT_FOR_DIALOG_INTERACTION
  9: 0x029C [0x20] SET_CLI_EVENT_UC_FLAG: Unlock player control
 10: 0x029E [0x21] END_EVENT
 11: 0x029F [0x00] END_REQSTACK()
```

### Event 261

#### Metadata

| Field        | Value    |
|--------------|----------|
| Entrypoint   | 0x02A0   |
| Data Size    | 33 bytes |
| Instructions | 12       |

```
      00 01 02 03 04 05 06 07  08 09 0A 0B 0C 0D 0E 0F
      -- -- -- -- -- -- -- --  -- -- -- -- -- -- -- --
02A0: 1E F0 FF FF 7F 6F 70 29  08 12 00 0F 01 01 1D 1A  .....op)........
02B0: 80 23 1D 1B 80 23 29 08  12 00 0F 01 02 20 00 21  .#...#)...... .!
02C0: 00                                                .               
```

#### Opcodes

```
  0: 0x02A0 [0x1E] EventEntity looks at LocalPlayer and starts talking
  1: 0x02A5 [0x6F] WAIT_FRAME_DELAY: Yield until WaitTime reaches zero
  2: 0x02A6 [0x70] WAIT_ENTITY_RENDER_FLAG: Wait while EventEntity->Render.Flags3 bit 2 is set (cancel turn if not)
  3: 0x02A7 [0x29] REQ_SET_WAIT(priority=0x08, entity_id=Kuroido-Moido (ID: 17760274/0x010F0012), tag_num=0x01)
  4: 0x02AE [0x1D] PRINT_EVENT_MESSAGE(message_id=3705*)
    → "I'd like to say that we could give you your wands back after we finish the performance comparison tests..."
  5: 0x02B1 [0x23] WAIT_FOR_DIALOG_INTERACTION
  6: 0x02B2 [0x1D] PRINT_EVENT_MESSAGE(message_id=3706*)
    → "...But the problem is, we can't ensure the wands will survive the testaruing process in one piece!"
  7: 0x02B5 [0x23] WAIT_FOR_DIALOG_INTERACTION
  8: 0x02B6 [0x29] REQ_SET_WAIT(priority=0x08, entity_id=Kuroido-Moido (ID: 17760274/0x010F0012), tag_num=0x02)
  9: 0x02BD [0x20] SET_CLI_EVENT_UC_FLAG: Unlock player control
 10: 0x02BF [0x21] END_EVENT
 11: 0x02C0 [0x00] END_REQSTACK()
```

### Event 265

#### Metadata

| Field        | Value   |
|--------------|---------|
| Entrypoint   | 0x02C1  |
| Data Size    | 1 bytes |
| Instructions | 1       |

```
      00 01 02 03 04 05 06 07  08 09 0A 0B 0C 0D 0E 0F
      -- -- -- -- -- -- -- --  -- -- -- -- -- -- -- --
02C0:    00                                              .              
```

#### Opcodes

```
  0: 0x02C1 [0x00] END_REQSTACK()
```

### Event 65535.26

#### Metadata

| Field        | Value    |
|--------------|----------|
| Entrypoint   | 0x02C2   |
| Data Size    | 18 bytes |
| Instructions | 6        |

```
      00 01 02 03 04 05 06 07  08 09 0A 0B 0C 0D 0E 0F
      -- -- -- -- -- -- -- --  -- -- -- -- -- -- -- --
02C0:       32 1C 80 1F 00 1D  80 1E 80 1F 80 1F 01 6F    2............o
02D0: 39 20 80 00                                       9 ..            
```

#### Opcodes

```
  0: 0x02C2 [0x32] ExtData[1]->MainSpeed = 13* * 0.1
  1: 0x02C5 [0x1F] MOVE_ENTITY: EventEntity moves to X=-113.262*, Z=100.766*, Y=-4.250*
  2: 0x02CD [0x1F] MOVE_ENTITY: Update entity position (mode=1)
  3: 0x02CF [0x6F] WAIT_FRAME_DELAY: Yield until WaitTime reaches zero
  4: 0x02D0 [0x39] SET_ENTITY_DIRECTION(direction=17.3°*)
  5: 0x02D3 [0x00] END_REQSTACK()
```

### Event 65535.27

#### Metadata

| Field        | Value    |
|--------------|----------|
| Entrypoint   | 0x02D4   |
| Data Size    | 18 bytes |
| Instructions | 6        |

```
      00 01 02 03 04 05 06 07  08 09 0A 0B 0C 0D 0E 0F
      -- -- -- -- -- -- -- --  -- -- -- -- -- -- -- --
02D0:             32 00 80 1F  00 21 80 22 80 23 80 1F      2....!.".#..
02E0: 01 6F 39 24 80 00                                 .o9$..          
```

#### Opcodes

```
  0: 0x02D4 [0x32] ExtData[1]->MainSpeed = 40* * 0.1
  1: 0x02D7 [0x1F] MOVE_ENTITY: EventEntity moves to X=-111.986*, Z=100.039*, Y=-4.249*
  2: 0x02DF [0x1F] MOVE_ENTITY: Update entity position (mode=1)
  3: 0x02E1 [0x6F] WAIT_FRAME_DELAY: Yield until WaitTime reaches zero
  4: 0x02E2 [0x39] SET_ENTITY_DIRECTION(direction=4.8°*)
  5: 0x02E5 [0x00] END_REQSTACK()
```

### Event 65535.28

#### Metadata

| Field        | Value    |
|--------------|----------|
| Entrypoint   | 0x02E6   |
| Data Size    | 19 bytes |
| Instructions | 5        |

```
      00 01 02 03 04 05 06 07  08 09 0A 0B 0C 0D 0E 0F
      -- -- -- -- -- -- -- --  -- -- -- -- -- -- -- --
02E0:                   29 08  12 00 0F 01 01 1D 25 80        ).......%.
02F0: 23 29 08 12 00 0F 01 02  00                       #).......       
```

#### Opcodes

```
  0: 0x02E6 [0x29] REQ_SET_WAIT(priority=0x08, entity_id=Kuroido-Moido (ID: 17760274/0x010F0012), tag_num=0x01)
  1: 0x02ED [0x1D] PRINT_EVENT_MESSAGE(message_id=3714*)
    → "Oh-oh! Your timing is bad... Doctor Shantotto has come to visit and is out back right now..."
  2: 0x02F0 [0x23] WAIT_FOR_DIALOG_INTERACTION
  3: 0x02F1 [0x29] REQ_SET_WAIT(priority=0x08, entity_id=Kuroido-Moido (ID: 17760274/0x010F0012), tag_num=0x02)
  4: 0x02F8 [0x00] END_REQSTACK()
```

### Event 65535.29

#### Metadata

| Field        | Value    |
|--------------|----------|
| Entrypoint   | 0x02F9   |
| Data Size    | 19 bytes |
| Instructions | 5        |

```
      00 01 02 03 04 05 06 07  08 09 0A 0B 0C 0D 0E 0F
      -- -- -- -- -- -- -- --  -- -- -- -- -- -- -- --
02F0:                             29 08 12 00 0F 01 01           )......
0300: 1D 26 80 23 29 08 12 00  0F 01 02 00              .&.#).......    
```

#### Opcodes

```
  0: 0x02F9 [0x29] REQ_SET_WAIT(priority=0x08, entity_id=Kuroido-Moido (ID: 17760274/0x010F0012), tag_num=0x01)
  1: 0x0300 [0x1D] PRINT_EVENT_MESSAGE(message_id=3728*)
    → "If Minister Ajido-Marujido hadn't turned up justaru at the right moment, you'd be on your way to heaven right now, pal."
  2: 0x0303 [0x23] WAIT_FOR_DIALOG_INTERACTION
  3: 0x0304 [0x29] REQ_SET_WAIT(priority=0x08, entity_id=Kuroido-Moido (ID: 17760274/0x010F0012), tag_num=0x02)
  4: 0x030B [0x00] END_REQSTACK()
```

### Event 65535.30

#### Metadata

| Field        | Value    |
|--------------|----------|
| Entrypoint   | 0x030C   |
| Data Size    | 19 bytes |
| Instructions | 5        |

```
      00 01 02 03 04 05 06 07  08 09 0A 0B 0C 0D 0E 0F
      -- -- -- -- -- -- -- --  -- -- -- -- -- -- -- --
0300:                                      29 08 12 00              )...
0310: 0F 01 01 1D 27 80 23 29  08 12 00 0F 01 02 00     ....'.#)....... 
```

#### Opcodes

```
  0: 0x030C [0x29] REQ_SET_WAIT(priority=0x08, entity_id=Kuroido-Moido (ID: 17760274/0x010F0012), tag_num=0x01)
  1: 0x0313 [0x1D] PRINT_EVENT_MESSAGE(message_id=12399*)
    → "If Miss Apururu hadn't come along when she did, you would be on your way to the Gates of Paradise by now."
  2: 0x0316 [0x23] WAIT_FOR_DIALOG_INTERACTION
  3: 0x0317 [0x29] REQ_SET_WAIT(priority=0x08, entity_id=Kuroido-Moido (ID: 17760274/0x010F0012), tag_num=0x02)
  4: 0x031E [0x00] END_REQSTACK()
```

### Event 65535.31

#### Metadata

| Field        | Value    |
|--------------|----------|
| Entrypoint   | 0x031F   |
| Data Size    | 19 bytes |
| Instructions | 5        |

```
      00 01 02 03 04 05 06 07  08 09 0A 0B 0C 0D 0E 0F
      -- -- -- -- -- -- -- --  -- -- -- -- -- -- -- --
0310:                                               29                 )
0320: 08 12 00 0F 01 01 1D 28  80 23 29 08 12 00 0F 01  .......(.#).....
0330: 02 00                                             ..              
```

#### Opcodes

```
  0: 0x031F [0x29] REQ_SET_WAIT(priority=0x08, entity_id=Kuroido-Moido (ID: 17760274/0x010F0012), tag_num=0x01)
  1: 0x0326 [0x1D] PRINT_EVENT_MESSAGE(message_id=3738*)
    → "You should be the one to decide, Minister Ajido-Marujido! That way everything will be settaruled peacefully."
  2: 0x0329 [0x23] WAIT_FOR_DIALOG_INTERACTION
  3: 0x032A [0x29] REQ_SET_WAIT(priority=0x08, entity_id=Kuroido-Moido (ID: 17760274/0x010F0012), tag_num=0x02)
  4: 0x0331 [0x00] END_REQSTACK()
```

### Event 65535.32

#### Metadata

| Field        | Value    |
|--------------|----------|
| Entrypoint   | 0x0332   |
| Data Size    | 19 bytes |
| Instructions | 5        |

```
      00 01 02 03 04 05 06 07  08 09 0A 0B 0C 0D 0E 0F
      -- -- -- -- -- -- -- --  -- -- -- -- -- -- -- --
0330:       29 08 12 00 0F 01  01 1D 29 80 23 29 08 12    ).......).#)..
0340: 00 0F 01 02 00                                    .....           
```

#### Opcodes

```
  0: 0x0332 [0x29] REQ_SET_WAIT(priority=0x08, entity_id=Kuroido-Moido (ID: 17760274/0x010F0012), tag_num=0x01)
  1: 0x0339 [0x1D] PRINT_EVENT_MESSAGE(message_id=12406*)
    → "We had gathered the three wands that the brigadier generals wanted and we were comparing their quality. Then when Professor Shantotto showed up, all this happened..."
  2: 0x033C [0x23] WAIT_FOR_DIALOG_INTERACTION
  3: 0x033D [0x29] REQ_SET_WAIT(priority=0x08, entity_id=Kuroido-Moido (ID: 17760274/0x010F0012), tag_num=0x02)
  4: 0x0344 [0x00] END_REQSTACK()
```

### Event 266

#### Metadata

| Field        | Value    |
|--------------|----------|
| Entrypoint   | 0x0345   |
| Data Size    | 33 bytes |
| Instructions | 12       |

```
      00 01 02 03 04 05 06 07  08 09 0A 0B 0C 0D 0E 0F
      -- -- -- -- -- -- -- --  -- -- -- -- -- -- -- --
0340:                1E F0 FF  FF 7F 6F 70 29 08 12 00       .....op)...
0350: 0F 01 01 1D 2A 80 23 1D  2B 80 23 29 08 12 00 0F  ....*.#.+.#)....
0360: 01 02 20 00 21 00                                 .. .!.          
```

#### Opcodes

```
  0: 0x0345 [0x1E] EventEntity looks at LocalPlayer and starts talking
  1: 0x034A [0x6F] WAIT_FRAME_DELAY: Yield until WaitTime reaches zero
  2: 0x034B [0x70] WAIT_ENTITY_RENDER_FLAG: Wait while EventEntity->Render.Flags3 bit 2 is set (cancel turn if not)
  3: 0x034C [0x29] REQ_SET_WAIT(priority=0x08, entity_id=Kuroido-Moido (ID: 17760274/0x010F0012), tag_num=0x01)
  4: 0x0353 [0x1D] PRINT_EVENT_MESSAGE(message_id=3743*)
    → "He's buying up weapons and armor from other countries for us to study in order to improve our strategic skills, I guess."
  5: 0x0356 [0x23] WAIT_FOR_DIALOG_INTERACTION
  6: 0x0357 [0x1D] PRINT_EVENT_MESSAGE(message_id=3744*)
    → "But wouldn't that suggest a possibility of antagonizing these other countries...? Don't tell me our Orastery staff have to read that far into the mattaru...?"
  7: 0x035A [0x23] WAIT_FOR_DIALOG_INTERACTION
  8: 0x035B [0x29] REQ_SET_WAIT(priority=0x08, entity_id=Kuroido-Moido (ID: 17760274/0x010F0012), tag_num=0x02)
  9: 0x0362 [0x20] SET_CLI_EVENT_UC_FLAG: Unlock player control
 10: 0x0364 [0x21] END_EVENT
 11: 0x0365 [0x00] END_REQSTACK()
```

### Event 274

#### Metadata

| Field        | Value   |
|--------------|---------|
| Entrypoint   | 0x0366  |
| Data Size    | 1 bytes |
| Instructions | 1       |

```
      00 01 02 03 04 05 06 07  08 09 0A 0B 0C 0D 0E 0F
      -- -- -- -- -- -- -- --  -- -- -- -- -- -- -- --
0360:                   00                                    .         
```

#### Opcodes

```
  0: 0x0366 [0x00] END_REQSTACK()
```

### Event 65535.33

#### Metadata

| Field        | Value    |
|--------------|----------|
| Entrypoint   | 0x0367   |
| Data Size    | 19 bytes |
| Instructions | 5        |

```
      00 01 02 03 04 05 06 07  08 09 0A 0B 0C 0D 0E 0F
      -- -- -- -- -- -- -- --  -- -- -- -- -- -- -- --
0360:                      29  08 12 00 0F 01 01 1D 2C         ).......,
0370: 80 23 29 08 12 00 0F 01  02 00                    .#).......      
```

#### Opcodes

```
  0: 0x0367 [0x29] REQ_SET_WAIT(priority=0x08, entity_id=Kuroido-Moido (ID: 17760274/0x010F0012), tag_num=0x01)
  1: 0x036E [0x1D] PRINT_EVENT_MESSAGE(message_id=3763*)
    → "I never said we should pull a swift one on him! Acts of badness will always come to light eventarually, you know? Besides, you were the one who suggestarued it first, Hakkuru-Rinkuru!"
  2: 0x0371 [0x23] WAIT_FOR_DIALOG_INTERACTION
  3: 0x0372 [0x29] REQ_SET_WAIT(priority=0x08, entity_id=Kuroido-Moido (ID: 17760274/0x010F0012), tag_num=0x02)
  4: 0x0379 [0x00] END_REQSTACK()
```

### Event 65535.34

#### Metadata

| Field        | Value    |
|--------------|----------|
| Entrypoint   | 0x037A   |
| Data Size    | 19 bytes |
| Instructions | 5        |

```
      00 01 02 03 04 05 06 07  08 09 0A 0B 0C 0D 0E 0F
      -- -- -- -- -- -- -- --  -- -- -- -- -- -- -- --
0370:                                29 08 12 00 0F 01            ).....
0380: 01 1D 2D 80 23 29 08 12  00 0F 01 02 00           ..-.#).......   
```

#### Opcodes

```
  0: 0x037A [0x29] REQ_SET_WAIT(priority=0x08, entity_id=Kuroido-Moido (ID: 17760274/0x010F0012), tag_num=0x01)
  1: 0x0381 [0x1D] PRINT_EVENT_MESSAGE(message_id=3769*)
    → "I'm stating this for the record, but I am having no partaru in this!"
  2: 0x0384 [0x23] WAIT_FOR_DIALOG_INTERACTION
  3: 0x0385 [0x29] REQ_SET_WAIT(priority=0x08, entity_id=Kuroido-Moido (ID: 17760274/0x010F0012), tag_num=0x02)
  4: 0x038C [0x00] END_REQSTACK()
```

### Event 276

#### Metadata

| Field        | Value    |
|--------------|----------|
| Entrypoint   | 0x038D   |
| Data Size    | 33 bytes |
| Instructions | 12       |

```
      00 01 02 03 04 05 06 07  08 09 0A 0B 0C 0D 0E 0F
      -- -- -- -- -- -- -- --  -- -- -- -- -- -- -- --
0380:                                         1E F0 FF               ...
0390: FF 7F 6F 70 29 08 12 00  0F 01 01 1D 2E 80 23 1D  ..op).........#.
03A0: 2F 80 23 29 08 12 00 0F  01 12 20 00 21 00        /.#)...... .!.  
```

#### Opcodes

```
  0: 0x038D [0x1E] EventEntity looks at LocalPlayer and starts talking
  1: 0x0392 [0x6F] WAIT_FRAME_DELAY: Yield until WaitTime reaches zero
  2: 0x0393 [0x70] WAIT_ENTITY_RENDER_FLAG: Wait while EventEntity->Render.Flags3 bit 2 is set (cancel turn if not)
  3: 0x0394 [0x29] REQ_SET_WAIT(priority=0x08, entity_id=Kuroido-Moido (ID: 17760274/0x010F0012), tag_num=0x01)
  4: 0x039B [0x1D] PRINT_EVENT_MESSAGE(message_id=3773*)
    → "I'm stating this for the record, but I am having no partaru in this!"
  5: 0x039E [0x23] WAIT_FOR_DIALOG_INTERACTION
  6: 0x039F [0x1D] PRINT_EVENT_MESSAGE(message_id=3774*)
    → "We shouldn'taru have tried to clean the minister's important wand to begin with! He always told us not to touch the wand's case!"
  7: 0x03A2 [0x23] WAIT_FOR_DIALOG_INTERACTION
  8: 0x03A3 [0x29] REQ_SET_WAIT(priority=0x08, entity_id=Kuroido-Moido (ID: 17760274/0x010F0012), tag_num=0x12)
  9: 0x03AA [0x20] SET_CLI_EVENT_UC_FLAG: Unlock player control
 10: 0x03AC [0x21] END_EVENT
 11: 0x03AD [0x00] END_REQSTACK()
```

### Event 279

#### Metadata

| Field        | Value    |
|--------------|----------|
| Entrypoint   | 0x03AE   |
| Data Size    | 29 bytes |
| Instructions | 10       |

```
      00 01 02 03 04 05 06 07  08 09 0A 0B 0C 0D 0E 0F
      -- -- -- -- -- -- -- --  -- -- -- -- -- -- -- --
03A0:                                            1E F0                ..
03B0: FF FF 7F 6F 70 29 08 12  00 0F 01 01 1D 30 80 23  ...op).......0.#
03C0: 29 08 12 00 0F 01 12 20  00 21 00                 )...... .!.     
```

#### Opcodes

```
  0: 0x03AE [0x1E] EventEntity looks at LocalPlayer and starts talking
  1: 0x03B3 [0x6F] WAIT_FRAME_DELAY: Yield until WaitTime reaches zero
  2: 0x03B4 [0x70] WAIT_ENTITY_RENDER_FLAG: Wait while EventEntity->Render.Flags3 bit 2 is set (cancel turn if not)
  3: 0x03B5 [0x29] REQ_SET_WAIT(priority=0x08, entity_id=Kuroido-Moido (ID: 17760274/0x010F0012), tag_num=0x01)
  4: 0x03BC [0x1D] PRINT_EVENT_MESSAGE(message_id=3778*)
    → "I wonder why the minister places such importarunce on that wand? It doesn't look like it has any particular value."
  5: 0x03BF [0x23] WAIT_FOR_DIALOG_INTERACTION
  6: 0x03C0 [0x29] REQ_SET_WAIT(priority=0x08, entity_id=Kuroido-Moido (ID: 17760274/0x010F0012), tag_num=0x12)
  7: 0x03C7 [0x20] SET_CLI_EVENT_UC_FLAG: Unlock player control
  8: 0x03C9 [0x21] END_EVENT
  9: 0x03CA [0x00] END_REQSTACK()
```

### Event 280

#### Metadata

| Field        | Value     |
|--------------|-----------|
| Entrypoint   | 0x03CB    |
| Data Size    | 494 bytes |
| Instructions | 78        |

```
      00 01 02 03 04 05 06 07  08 09 0A 0B 0C 0D 0E 0F
      -- -- -- -- -- -- -- --  -- -- -- -- -- -- -- --
03C0:                                   20 01 42 46 01              .BF.
03D0: 5D 31 80 32 80 45 33 80  F8 FF FF 7F F8 FF FF 7F  ]1.2.E3.........
03E0: 66 64 6F 31 31 80 1C 34  80 75 00 35 80 75 01 38  fdo11..4.u.5.u.8
03F0: 36 80 29 08 F0 FF FF 7F  0A 29 0B F0 FF FF 7F 35  6.)......).....5
0400: 4A 12 00 0F 01 F0 FF FF  7F 5C 00 37 80 5C 01 37  J........\.7.\.7
0410: 80 5D 38 80 39 80 1C 32  80 02 09 10 3A 80 00 35  .]8.9..2....:..5
0420: 04 45 3B 80 F0 FF FF 7F  F0 FF FF 7F 73 31 30 33  .E;.........s103
0430: 31 80 01 46 04 45 3B 80  F0 FF FF 7F F0 FF FF 7F  1..F.E;.........
0440: 73 30 36 34 31 80 29 08  11 00 0F 01 1A 45 33 80  s0641.)......E3.
0450: F8 FF FF 7F F8 FF FF 7F  66 64 69 31 31 80 1E F0  ........fdi11...
0460: FF FF 7F 6F 70 29 0B 11  00 0F 01 55 29 0B 12 00  ...op).....U)...
0470: 0F 01 34 02 07 10 31 80  00 85 04 29 0B 12 00 0F  ..4...1....)....
0480: 01 35 01 8C 04 29 0B 12  00 0F 01 36 29 08 11 00  .5...).....6)...
0490: 0F 01 1B 45 3B 80 F0 FF  FF 7F F0 FF FF 7F 73 30  ...E;.........s0
04A0: 39 35 31 80 4A 11 00 0F  01 12 00 0F 01 1C 01 80  951.J...........
04B0: 79 00 F0 FF FF 7F 11 00  0F 01 02 07 10 31 80 00  y............1..
04C0: CC 04 29 0B 11 00 0F 01  56 01 D3 04 29 0B 11 00  ..).....V...)...
04D0: 0F 01 57 4A 12 00 0F 01  11 00 0F 01 1C 01 80 29  ..WJ...........)
04E0: 0B 12 00 0F 01 37 02 07  10 31 80 00 F8 04 29 0B  .....7...1....).
04F0: 11 00 0F 01 58 01 FF 04  29 0B 11 00 0F 01 59 4A  ....X...).....YJ
0500: 11 00 0F 01 F0 FF FF 7F  1C 01 80 45 3B 80 F8 FF  ...........E;...
0510: FF 7F F8 FF FF 7F 73 30  38 35 31 80 4E 01 F0 FF  ......s0851.N...
0520: FF 7F 29 08 11 00 0F 01  14 02 07 10 31 80 00 3B  ..).........1..;
0530: 05 29 0B 11 00 0F 01 5A  01 42 05 29 0B 11 00 0F  .).....Z.B.)....
0540: 01 5B 4A 12 00 0F 01 F0  FF FF 7F 1C 01 80 29 0B  .[J...........).
0550: 12 00 0F 01 38 5D 31 80  32 80 1C 34 80 45 33 80  ....8]1.2..4.E3.
0560: F8 FF FF 7F F8 FF FF 7F  66 64 6F 31 31 80 1C 34  ........fdo11..4
0570: 80 02 07 10 31 80 00 81  05 03 01 10 39 80 01 86  ....1.......9...
0580: 05 03 01 10 3C 80 29 08  11 00 0F 01 15 7B F0 FF  ....<.)......{..
0590: FF 7F 5C 00 3D 80 5C 01  3D 80 5D 38 80 39 80 1C  ..\.=.\.=.]8.9..
05A0: 33 80 46 00 45 33 80 F8  FF FF 7F F8 FF FF 7F 66  3.F.E3.........f
05B0: 64 69 31 31 80 20 00 21  00                       di11. .!.       
```

#### Opcodes

```
  0: 0x03CB [0x20] SET_CLI_EVENT_UC_FLAG: Lock player control
  1: 0x03CD [0x42] SET_CLI_EVENT_CANCEL_DATA()
  2: 0x03CE [0x46] CAMERA_CONTROL: Disable user control
  3: 0x03D0 [0x5D] SET_MUSIC_VOLUME(volume=0*, fade_time=100*)
  4: 0x03D5 [0x45] LOAD_SCHEDULED_TASK: Load scheduler "fdo1" with entities [EventEntity, EventEntity], work=[200*, 0*]
  5: 0x03E6 [0x1C] WAIT(60* ticks)
  6: 0x03E9 [0x75] LOAD_ROOM(Load indoor room, room=411*)
  7: 0x03ED [0x75] LOAD_ROOM(No action)
  8: 0x03EF [0x38] SET_CLIENT_EVENT_MODE(mode=3*)
  9: 0x03F2 [0x29] REQ_SET_WAIT(priority=0x08, entity_id=LocalPlayer, tag_num=0x0A)
 10: 0x03F9 [0x29] REQ_SET_WAIT(priority=0x0B, entity_id=LocalPlayer, tag_num=0x35)
 11: 0x0400 [0x4A] Kuroido-Moido (ID: 17760274/0x010F0012) looks at LocalPlayer
 12: 0x0409 [0x5C] MUSIC_CONTROL: Set Idle (Day) music to song 163*
 13: 0x040D [0x5C] MUSIC_CONTROL: Set Idle (Night) music to song 163*
 14: 0x0411 [0x5D] SET_MUSIC_VOLUME(volume=127*, fade_time=1*)
 15: 0x0416 [0x1C] WAIT(100* ticks)
 16: 0x0419 [0x02] IF !(Work_Zone[9] == 8*) GOTO 0x0435
 17: 0x0421 [0x45] LOAD_SCHEDULED_TASK: Load scheduler "s103" with entities [LocalPlayer, LocalPlayer], work=[140*, 0*]
 18: 0x0432 [0x01] GOTO 0x0446
 19: 0x0435 [0x45] LOAD_SCHEDULED_TASK: Load scheduler "s064" with entities [LocalPlayer, LocalPlayer], work=[140*, 0*]

SUBROUTINE_0446:
 20: 0x0446 [0x29] REQ_SET_WAIT(priority=0x08, entity_id=Hakkuru-Rinkuru (ID: 17760273/0x010F0011), tag_num=0x1A)
 21: 0x044D [0x45] LOAD_SCHEDULED_TASK: Load scheduler "fdi1" with entities [EventEntity, EventEntity], work=[200*, 0*]
 22: 0x045E [0x1E] EventEntity looks at LocalPlayer and starts talking
 23: 0x0463 [0x6F] WAIT_FRAME_DELAY: Yield until WaitTime reaches zero
 24: 0x0464 [0x70] WAIT_ENTITY_RENDER_FLAG: Wait while EventEntity->Render.Flags3 bit 2 is set (cancel turn if not)
 25: 0x0465 [0x29] REQ_SET_WAIT(priority=0x0B, entity_id=Hakkuru-Rinkuru (ID: 17760273/0x010F0011), tag_num=0x55)
 26: 0x046C [0x29] REQ_SET_WAIT(priority=0x0B, entity_id=Kuroido-Moido (ID: 17760274/0x010F0012), tag_num=0x34)
 27: 0x0473 [0x02] IF !(Work_Zone[7] == 0*) GOTO 0x0485
 28: 0x047B [0x29] REQ_SET_WAIT(priority=0x0B, entity_id=Kuroido-Moido (ID: 17760274/0x010F0012), tag_num=0x35)
 29: 0x0482 [0x01] GOTO 0x048C
 30: 0x0485 [0x29] REQ_SET_WAIT(priority=0x0B, entity_id=Kuroido-Moido (ID: 17760274/0x010F0012), tag_num=0x36)

SUBROUTINE_048C:
 31: 0x048C [0x29] REQ_SET_WAIT(priority=0x08, entity_id=Hakkuru-Rinkuru (ID: 17760273/0x010F0011), tag_num=0x1B)
 32: 0x0493 [0x45] LOAD_SCHEDULED_TASK: Load scheduler "s095" with entities [LocalPlayer, LocalPlayer], work=[140*, 0*]
 33: 0x04A4 [0x4A] Hakkuru-Rinkuru (ID: 17760273/0x010F0011) looks at Kuroido-Moido (ID: 17760274/0x010F0012)
 34: 0x04AD [0x1C] WAIT(30* ticks)
 35: 0x04B0 [0x79] LocalPlayer looks at Hakkuru-Rinkuru (ID: 17760273/0x010F0011) (Basic look)
 36: 0x04BA [0x02] IF !(Work_Zone[7] == 0*) GOTO 0x04CC
 37: 0x04C2 [0x29] REQ_SET_WAIT(priority=0x0B, entity_id=Hakkuru-Rinkuru (ID: 17760273/0x010F0011), tag_num=0x56)
 38: 0x04C9 [0x01] GOTO 0x04D3
 39: 0x04CC [0x29] REQ_SET_WAIT(priority=0x0B, entity_id=Hakkuru-Rinkuru (ID: 17760273/0x010F0011), tag_num=0x57)

SUBROUTINE_04D3:
 40: 0x04D3 [0x4A] Kuroido-Moido (ID: 17760274/0x010F0012) looks at Hakkuru-Rinkuru (ID: 17760273/0x010F0011)
 41: 0x04DC [0x1C] WAIT(30* ticks)
 42: 0x04DF [0x29] REQ_SET_WAIT(priority=0x0B, entity_id=Kuroido-Moido (ID: 17760274/0x010F0012), tag_num=0x37)
 43: 0x04E6 [0x02] IF !(Work_Zone[7] == 0*) GOTO 0x04F8
 44: 0x04EE [0x29] REQ_SET_WAIT(priority=0x0B, entity_id=Hakkuru-Rinkuru (ID: 17760273/0x010F0011), tag_num=0x58)
 45: 0x04F5 [0x01] GOTO 0x04FF
 46: 0x04F8 [0x29] REQ_SET_WAIT(priority=0x0B, entity_id=Hakkuru-Rinkuru (ID: 17760273/0x010F0011), tag_num=0x59)

SUBROUTINE_04FF:
 47: 0x04FF [0x4A] Hakkuru-Rinkuru (ID: 17760273/0x010F0011) looks at LocalPlayer
 48: 0x0508 [0x1C] WAIT(30* ticks)
 49: 0x050B [0x45] LOAD_SCHEDULED_TASK: Load scheduler "s085" with entities [EventEntity, EventEntity], work=[140*, 0*]
 50: 0x051C [0x4E] SET_ENTITY_HIDE_FLAG: Hide LocalPlayer
 51: 0x0522 [0x29] REQ_SET_WAIT(priority=0x08, entity_id=Hakkuru-Rinkuru (ID: 17760273/0x010F0011), tag_num=0x14)
 52: 0x0529 [0x02] IF !(Work_Zone[7] == 0*) GOTO 0x053B
 53: 0x0531 [0x29] REQ_SET_WAIT(priority=0x0B, entity_id=Hakkuru-Rinkuru (ID: 17760273/0x010F0011), tag_num=0x5A)
 54: 0x0538 [0x01] GOTO 0x0542
 55: 0x053B [0x29] REQ_SET_WAIT(priority=0x0B, entity_id=Hakkuru-Rinkuru (ID: 17760273/0x010F0011), tag_num=0x5B)

SUBROUTINE_0542:
 56: 0x0542 [0x4A] Kuroido-Moido (ID: 17760274/0x010F0012) looks at LocalPlayer
 57: 0x054B [0x1C] WAIT(30* ticks)
 58: 0x054E [0x29] REQ_SET_WAIT(priority=0x0B, entity_id=Kuroido-Moido (ID: 17760274/0x010F0012), tag_num=0x38)
 59: 0x0555 [0x5D] SET_MUSIC_VOLUME(volume=0*, fade_time=100*)
 60: 0x055A [0x1C] WAIT(60* ticks)
 61: 0x055D [0x45] LOAD_SCHEDULED_TASK: Load scheduler "fdo1" with entities [EventEntity, EventEntity], work=[200*, 0*]
 62: 0x056E [0x1C] WAIT(60* ticks)
 63: 0x0571 [0x02] IF !(Work_Zone[7] == 0*) GOTO 0x0581
 64: 0x0579 [0x03] Work_Zone[1] = 1*
 65: 0x057E [0x01] GOTO 0x0586
 66: 0x0581 [0x03] Work_Zone[1] = 2*

SUBROUTINE_0586:
 67: 0x0586 [0x29] REQ_SET_WAIT(priority=0x08, entity_id=Hakkuru-Rinkuru (ID: 17760273/0x010F0011), tag_num=0x15)
 68: 0x058D [0x7B] LocalPlayer stops talking
 69: 0x0592 [0x5C] MUSIC_CONTROL: Set Idle (Day) music to song 151*
 70: 0x0596 [0x5C] MUSIC_CONTROL: Set Idle (Night) music to song 151*
 71: 0x059A [0x5D] SET_MUSIC_VOLUME(volume=127*, fade_time=1*)
 72: 0x059F [0x1C] WAIT(200* ticks)
 73: 0x05A2 [0x46] CAMERA_CONTROL: Restore default settings
 74: 0x05A4 [0x45] LOAD_SCHEDULED_TASK: Load scheduler "fdi1" with entities [EventEntity, EventEntity], work=[200*, 0*]
 75: 0x05B5 [0x20] SET_CLI_EVENT_UC_FLAG: Unlock player control
 76: 0x05B7 [0x21] END_EVENT
 77: 0x05B8 [0x00] END_REQSTACK()
```

### Event 65535.35

#### Metadata

| Field        | Value    |
|--------------|----------|
| Entrypoint   | 0x05B9   |
| Data Size    | 23 bytes |
| Instructions | 7        |

```
      00 01 02 03 04 05 06 07  08 09 0A 0B 0C 0D 0E 0F
      -- -- -- -- -- -- -- --  -- -- -- -- -- -- -- --
05B0:                             29 08 12 00 0F 01 01           )......
05C0: 1D 3E 80 23 1D 3F 80 23  29 08 12 00 0F 01 02 00  .>.#.?.#).......
```

#### Opcodes

```
  0: 0x05B9 [0x29] REQ_SET_WAIT(priority=0x08, entity_id=Kuroido-Moido (ID: 17760274/0x010F0012), tag_num=0x01)
  1: 0x05C0 [0x1D] PRINT_EVENT_MESSAGE(message_id=3780*)
    → "Let me explain why Hakkuru-Rinkuru is so down in the dumps..."
  2: 0x05C3 [0x23] WAIT_FOR_DIALOG_INTERACTION
  3: 0x05C4 [0x1D] PRINT_EVENT_MESSAGE(message_id=3781*)
    → "You remember the little incident where he accidentarully broke the minister's wand, don'taru you? He was able to pull the wool over the minister's eyes up until he replaced the wand with a new one."
  4: 0x05C7 [0x23] WAIT_FOR_DIALOG_INTERACTION
  5: 0x05C8 [0x29] REQ_SET_WAIT(priority=0x08, entity_id=Kuroido-Moido (ID: 17760274/0x010F0012), tag_num=0x02)
  6: 0x05CF [0x00] END_REQSTACK()
```

### Event 65535.36

#### Metadata

| Field        | Value    |
|--------------|----------|
| Entrypoint   | 0x05D0   |
| Data Size    | 19 bytes |
| Instructions | 5        |

```
      00 01 02 03 04 05 06 07  08 09 0A 0B 0C 0D 0E 0F
      -- -- -- -- -- -- -- --  -- -- -- -- -- -- -- --
05D0: 29 08 12 00 0F 01 01 1D  40 80 23 29 08 12 00 0F  ).......@.#)....
05E0: 01 02 00                                          ...             
```

#### Opcodes

```
  0: 0x05D0 [0x29] REQ_SET_WAIT(priority=0x08, entity_id=Kuroido-Moido (ID: 17760274/0x010F0012), tag_num=0x01)
  1: 0x05D7 [0x1D] PRINT_EVENT_MESSAGE(message_id=3782*)
    → "But our minister knows his stuff! Seems the minister took one look at the new wand, realized it had been switched, and gave Hakkuru-Rinkuru a right royal telling off!"
  2: 0x05DA [0x23] WAIT_FOR_DIALOG_INTERACTION
  3: 0x05DB [0x29] REQ_SET_WAIT(priority=0x08, entity_id=Kuroido-Moido (ID: 17760274/0x010F0012), tag_num=0x02)
  4: 0x05E2 [0x00] END_REQSTACK()
```

### Event 65535.37

#### Metadata

| Field        | Value    |
|--------------|----------|
| Entrypoint   | 0x05E3   |
| Data Size    | 19 bytes |
| Instructions | 5        |

```
      00 01 02 03 04 05 06 07  08 09 0A 0B 0C 0D 0E 0F
      -- -- -- -- -- -- -- --  -- -- -- -- -- -- -- --
05E0:          29 08 12 00 0F  01 01 1D 41 80 23 29 08     ).......A.#).
05F0: 12 00 0F 01 02 00                                 ......          
```

#### Opcodes

```
  0: 0x05E3 [0x29] REQ_SET_WAIT(priority=0x08, entity_id=Kuroido-Moido (ID: 17760274/0x010F0012), tag_num=0x01)
  1: 0x05EA [0x1D] PRINT_EVENT_MESSAGE(message_id=12378*)
    → "The Orastery sometimes has visits from Professor Shantotto, and it was she who saw through the deception. After a single glance at the new wand, the professor blew her top at Hakkuru-Rinkuru."
  2: 0x05ED [0x23] WAIT_FOR_DIALOG_INTERACTION
  3: 0x05EE [0x29] REQ_SET_WAIT(priority=0x08, entity_id=Kuroido-Moido (ID: 17760274/0x010F0012), tag_num=0x02)
  4: 0x05F5 [0x00] END_REQSTACK()
```

### Event 65535.38

#### Metadata

| Field        | Value   |
|--------------|---------|
| Entrypoint   | 0x05F6  |
| Data Size    | 5 bytes |
| Instructions | 3       |

```
      00 01 02 03 04 05 06 07  08 09 0A 0B 0C 0D 0E 0F
      -- -- -- -- -- -- -- --  -- -- -- -- -- -- -- --
05F0:                   1D 42  80 23 00                       .B.#.     
```

#### Opcodes

```
  0: 0x05F6 [0x1D] PRINT_EVENT_MESSAGE(message_id=3784*)
    → "You've got me confused. What's the problem then?"
  1: 0x05F9 [0x23] WAIT_FOR_DIALOG_INTERACTION
  2: 0x05FA [0x00] END_REQSTACK()
```

### Event 65535.39

#### Metadata

| Field        | Value    |
|--------------|----------|
| Entrypoint   | 0x05FB   |
| Data Size    | 37 bytes |
| Instructions | 9        |

```
      00 01 02 03 04 05 06 07  08 09 0A 0B 0C 0D 0E 0F
      -- -- -- -- -- -- -- --  -- -- -- -- -- -- -- --
05F0:                                   29 08 12 00 0F             )....
0600: 01 03 1D 43 80 23 29 08  12 00 0F 01 04 29 08 12  ...C.#)......)..
0610: 00 0F 01 05 1D 44 80 23  29 08 12 00 0F 01 06 00  .....D.#).......
```

#### Opcodes

```
  0: 0x05FB [0x29] REQ_SET_WAIT(priority=0x08, entity_id=Kuroido-Moido (ID: 17760274/0x010F0012), tag_num=0x03)
  1: 0x0602 [0x1D] PRINT_EVENT_MESSAGE(message_id=3788*)
    → "Hmm...It is just as I feared. That wasn'taru just your average wand we were dealing with there. It wasn'taru something that you could replace by simply buying a new one."
  2: 0x0605 [0x23] WAIT_FOR_DIALOG_INTERACTION
  3: 0x0606 [0x29] REQ_SET_WAIT(priority=0x08, entity_id=Kuroido-Moido (ID: 17760274/0x010F0012), tag_num=0x04)
  4: 0x060D [0x29] REQ_SET_WAIT(priority=0x08, entity_id=Kuroido-Moido (ID: 17760274/0x010F0012), tag_num=0x05)
  5: 0x0614 [0x1D] PRINT_EVENT_MESSAGE(message_id=3789*)
    → "You sent the old wand off to the magic incinerator, rightaru? I wonder if they've already incinerated it?"
  6: 0x0617 [0x23] WAIT_FOR_DIALOG_INTERACTION
  7: 0x0618 [0x29] REQ_SET_WAIT(priority=0x08, entity_id=Kuroido-Moido (ID: 17760274/0x010F0012), tag_num=0x06)
  8: 0x061F [0x00] END_REQSTACK()
```

### Event 283

#### Metadata

| Field        | Value    |
|--------------|----------|
| Entrypoint   | 0x0620   |
| Data Size    | 47 bytes |
| Instructions | 14       |

```
      00 01 02 03 04 05 06 07  08 09 0A 0B 0C 0D 0E 0F
      -- -- -- -- -- -- -- --  -- -- -- -- -- -- -- --
0620: 1E F0 FF FF 7F 6F 70 29  08 12 00 0F 01 03 1D 45  .....op).......E
0630: 80 23 29 08 12 00 0F 01  04 29 08 12 00 0F 01 05  .#)......)......
0640: 1D 46 80 23 29 08 12 00  0F 01 06 20 00 21 00     .F.#)...... .!. 
```

#### Opcodes

```
  0: 0x0620 [0x1E] EventEntity looks at LocalPlayer and starts talking
  1: 0x0625 [0x6F] WAIT_FRAME_DELAY: Yield until WaitTime reaches zero
  2: 0x0626 [0x70] WAIT_ENTITY_RENDER_FLAG: Wait while EventEntity->Render.Flags3 bit 2 is set (cancel turn if not)
  3: 0x0627 [0x29] REQ_SET_WAIT(priority=0x08, entity_id=Kuroido-Moido (ID: 17760274/0x010F0012), tag_num=0x03)
  4: 0x062E [0x1D] PRINT_EVENT_MESSAGE(message_id=3791*)
    → "It seems my colleague sent the old wand off to the magic incinerator in Garlaige Citadel."
  5: 0x0631 [0x23] WAIT_FOR_DIALOG_INTERACTION
  6: 0x0632 [0x29] REQ_SET_WAIT(priority=0x08, entity_id=Kuroido-Moido (ID: 17760274/0x010F0012), tag_num=0x04)
  7: 0x0639 [0x29] REQ_SET_WAIT(priority=0x08, entity_id=Kuroido-Moido (ID: 17760274/0x010F0012), tag_num=0x05)
  8: 0x0640 [0x1D] PRINT_EVENT_MESSAGE(message_id=3792*)
    → "It's probably too late to save it from being burnt to a crisp..."
  9: 0x0643 [0x23] WAIT_FOR_DIALOG_INTERACTION
 10: 0x0644 [0x29] REQ_SET_WAIT(priority=0x08, entity_id=Kuroido-Moido (ID: 17760274/0x010F0012), tag_num=0x06)
 11: 0x064B [0x20] SET_CLI_EVENT_UC_FLAG: Unlock player control
 12: 0x064D [0x21] END_EVENT
 13: 0x064E [0x00] END_REQSTACK()
```

### Event 284

#### Metadata

| Field        | Value     |
|--------------|-----------|
| Entrypoint   | 0x064F    |
| Data Size    | 934 bytes |
| Instructions | 135       |

```
      00 01 02 03 04 05 06 07  08 09 0A 0B 0C 0D 0E 0F
      -- -- -- -- -- -- -- --  -- -- -- -- -- -- -- --
0640:                                               20                  
0650: 01 42 46 01 5D 31 80 32  80 45 33 80 F8 FF FF 7F  .BF.]1.2.E3.....
0660: F8 FF FF 7F 66 64 6F 31  31 80 1C 34 80 75 00 35  ....fdo11..4.u.5
0670: 80 75 01 38 36 80 29 08  F0 FF FF 7F 0A 29 0B F0  .u.86.)......)..
0680: FF FF 7F 35 4A 12 00 0F  01 F0 FF FF 7F 29 08 11  ...5J........)..
0690: 00 0F 01 1A 4E 01 1B 00  0F 01 1C 01 80 5C 00 37  ....N........\.7
06A0: 80 5C 01 37 80 5D 38 80  39 80 1C 32 80 02 09 10  .\.7.]8.9..2....
06B0: 3A 80 00 C9 06 45 3B 80  F0 FF FF 7F F0 FF FF 7F  :....E;.........
06C0: 73 31 30 33 31 80 01 DA  06 45 3B 80 F0 FF FF 7F  s1031....E;.....
06D0: F0 FF FF 7F 73 30 36 34  31 80 45 33 80 F8 FF FF  ....s0641.E3....
06E0: 7F F8 FF FF 7F 66 64 69  31 31 80 1E F0 FF FF 7F  .....fdi11......
06F0: 6F 70 29 0B 12 00 0F 01  3C 45 3B 80 F0 FF FF 7F  op).....<E;.....
0700: F0 FF FF 7F 73 30 39 35  31 80 02 07 10 31 80 00  ....s0951....1..
0710: 28 07 4A 12 00 0F 01 11  00 0F 01 1C 01 80 29 0B  (.J...........).
0720: 12 00 0F 01 3D 01 4D 07  02 07 10 39 80 00 46 07  ....=.M....9..F.
0730: 4A 12 00 0F 01 11 00 0F  01 1C 01 80 29 0B 12 00  J...........)...
0740: 0F 01 3E 01 4D 07 29 0B  12 00 0F 01 3F 29 08 11  ..>.M.).....?)..
0750: 00 0F 01 1B 4A 11 00 0F  01 12 00 0F 01 79 00 F0  ....J........y..
0760: FF FF 7F 11 00 0F 01 1C  01 80 29 08 11 00 0F 01  ..........).....
0770: 0F 29 08 11 00 0F 01 10  02 07 10 31 80 00 A7 07  .).........1....
0780: 29 0B 11 00 0F 01 5E 4A  12 00 0F 01 F0 FF FF 7F  ).....^J........
0790: 1C 01 80 79 00 F0 FF FF  7F 12 00 0F 01 29 0B 12  ...y.........)..
07A0: 00 0F 01 40 01 E6 07 02  07 10 39 80 00 D6 07 29  ...@......9....)
07B0: 0B 11 00 0F 01 5F 4A 12  00 0F 01 F0 FF FF 7F 1C  ....._J.........
07C0: 01 80 79 00 F0 FF FF 7F  12 00 0F 01 29 0B 12 00  ..y.........)...
07D0: 0F 01 40 01 E6 07 4A 12  00 0F 01 11 00 0F 01 29  ..@...J........)
07E0: 0B 11 00 0F 01 60 45 3B  80 F0 FF FF 7F F0 FF FF  .....`E;........
07F0: 7F 73 30 39 36 31 80 4E  00 1B 00 0F 01 27 0B 1B  .s0961.N.....'..
0800: 00 0F 01 23 4A 12 00 0F  01 1B 00 0F 01 29 08 11  ...#J........)..
0810: 00 0F 01 15 4A 11 00 0F  01 1B 00 0F 01 79 00 F0  ....J........y..
0820: FF FF 7F 1B 00 0F 01 02  07 10 31 80 00 3A 08 2B  ..........1..:.+
0830: 1B 00 0F 01 47 80 23 01  42 08 2B 1B 00 0F 01 48  ....G.#.B.+....H
0840: 80 23 52 3B 80 F0 FF FF  7F F0 FF FF 7F 73 30 39  .#R;.........s09
0850: 36 29 0B 11 00 0F 01 61  2A 0B 1B 00 0F 01 45 3B  6).....a*.....E;
0860: 80 F0 FF FF 7F F0 FF FF  7F 73 30 39 37 31 80 02  .........s0971..
0870: 07 10 31 80 00 81 08 29  0B 1B 00 0F 01 26 01 88  ..1....).....&..
0880: 08 29 0B 1B 00 0F 01 27  45 3B 80 F0 FF FF 7F F0  .).....'E;......
0890: FF FF 7F 73 30 39 38 31  80 27 0B 12 00 0F 01 3B  ...s0981.'.....;
08A0: 02 07 10 31 80 00 B3 08  2B 12 00 0F 01 49 80 23  ...1....+....I.#
08B0: 01 BB 08 2B 12 00 0F 01  4A 80 23 2A 0B 12 00 0F  ...+....J.#*....
08C0: 01 02 07 10 31 80 00 D3  08 29 0B 1B 00 0F 01 28  ....1....).....(
08D0: 01 DA 08 29 0B 1B 00 0F  01 29 45 3B 80 F0 FF FF  ...).....)E;....
08E0: 7F F0 FF FF 7F 73 30 39  39 31 80 02 07 10 31 80  .....s0991....1.
08F0: 00 FD 08 29 0B 1B 00 0F  01 2A 01 04 09 29 0B 1B  ...).....*...)..
0900: 00 0F 01 2B 29 0B 1B 00  0F 01 2C 45 3B 80 F0 FF  ...+).....,E;...
0910: FF 7F F0 FF FF 7F 73 30  39 37 31 80 29 0B 1B 00  ......s0971.)...
0920: 0F 01 2D 45 3B 80 F0 FF  FF 7F F0 FF FF 7F 73 30  ..-E;.........s0
0930: 39 38 31 80 4B 1B 00 0F  01 4B 80 1C 01 80 29 0B  981.K....K....).
0940: 1B 00 0F 01 2E 29 0B 11  00 0F 01 62 29 0B 12 00  .....).....b)...
0950: 0F 01 42 45 3B 80 F0 FF  FF 7F F0 FF FF 7F 73 30  ..BE;.........s0
0960: 39 39 31 80 4A 1B 00 0F  01 F0 FF FF 7F 1C 01 80  991.J...........
0970: 02 07 10 31 80 00 82 09  29 0B 1B 00 0F 01 2F 01  ...1....)...../.
0980: 89 09 29 0B 1B 00 0F 01  30 27 0B 1B 00 0F 01 24  ..).....0'.....$
0990: 5D 31 80 32 80 1C 34 80  45 33 80 F8 FF FF 7F F8  ]1.2..4.E3......
09A0: FF FF 7F 66 64 6F 31 31  80 1C 34 80 7B F0 FF FF  ...fdo11..4.{...
09B0: 7F 5C 00 3D 80 5C 01 3D  80 5D 38 80 39 80 1C 4C  .\.=.\.=.]8.9..L
09C0: 80 2A 0B 1B 00 0F 01 4E  01 1B 00 0F 01 46 00 45  .*.....N.....F.E
09D0: 33 80 F8 FF FF 7F F8 FF  FF 7F 66 64 69 31 31 80  3.........fdi11.
09E0: 45 4D 80 F0 FF FF 7F F0  FF FF 7F 71 73 74 63 31  EM.........qstc1
09F0: 80 20 00 21 00                                    . .!.           
```

#### Opcodes

```
  0: 0x064F [0x20] SET_CLI_EVENT_UC_FLAG: Lock player control
  1: 0x0651 [0x42] SET_CLI_EVENT_CANCEL_DATA()
  2: 0x0652 [0x46] CAMERA_CONTROL: Disable user control
  3: 0x0654 [0x5D] SET_MUSIC_VOLUME(volume=0*, fade_time=100*)
  4: 0x0659 [0x45] LOAD_SCHEDULED_TASK: Load scheduler "fdo1" with entities [EventEntity, EventEntity], work=[200*, 0*]
  5: 0x066A [0x1C] WAIT(60* ticks)
  6: 0x066D [0x75] LOAD_ROOM(Load indoor room, room=411*)
  7: 0x0671 [0x75] LOAD_ROOM(No action)
  8: 0x0673 [0x38] SET_CLIENT_EVENT_MODE(mode=3*)
  9: 0x0676 [0x29] REQ_SET_WAIT(priority=0x08, entity_id=LocalPlayer, tag_num=0x0A)
 10: 0x067D [0x29] REQ_SET_WAIT(priority=0x0B, entity_id=LocalPlayer, tag_num=0x35)
 11: 0x0684 [0x4A] Kuroido-Moido (ID: 17760274/0x010F0012) looks at LocalPlayer
 12: 0x068D [0x29] REQ_SET_WAIT(priority=0x08, entity_id=Hakkuru-Rinkuru (ID: 17760273/0x010F0011), tag_num=0x1A)
 13: 0x0694 [0x4E] SET_ENTITY_HIDE_FLAG: Hide Apururu (ID: 17760283/0x010F001B)
 14: 0x069A [0x1C] WAIT(30* ticks)
 15: 0x069D [0x5C] MUSIC_CONTROL: Set Idle (Day) music to song 163*
 16: 0x06A1 [0x5C] MUSIC_CONTROL: Set Idle (Night) music to song 163*
 17: 0x06A5 [0x5D] SET_MUSIC_VOLUME(volume=127*, fade_time=1*)
 18: 0x06AA [0x1C] WAIT(100* ticks)
 19: 0x06AD [0x02] IF !(Work_Zone[9] == 8*) GOTO 0x06C9
 20: 0x06B5 [0x45] LOAD_SCHEDULED_TASK: Load scheduler "s103" with entities [LocalPlayer, LocalPlayer], work=[140*, 0*]
 21: 0x06C6 [0x01] GOTO 0x06DA
 22: 0x06C9 [0x45] LOAD_SCHEDULED_TASK: Load scheduler "s064" with entities [LocalPlayer, LocalPlayer], work=[140*, 0*]

SUBROUTINE_06DA:
 23: 0x06DA [0x45] LOAD_SCHEDULED_TASK: Load scheduler "fdi1" with entities [EventEntity, EventEntity], work=[200*, 0*]
 24: 0x06EB [0x1E] EventEntity looks at LocalPlayer and starts talking
 25: 0x06F0 [0x6F] WAIT_FRAME_DELAY: Yield until WaitTime reaches zero
 26: 0x06F1 [0x70] WAIT_ENTITY_RENDER_FLAG: Wait while EventEntity->Render.Flags3 bit 2 is set (cancel turn if not)
 27: 0x06F2 [0x29] REQ_SET_WAIT(priority=0x0B, entity_id=Kuroido-Moido (ID: 17760274/0x010F0012), tag_num=0x3C)
 28: 0x06F9 [0x45] LOAD_SCHEDULED_TASK: Load scheduler "s095" with entities [LocalPlayer, LocalPlayer], work=[140*, 0*]
 29: 0x070A [0x02] IF !(Work_Zone[7] == 0*) GOTO 0x0728
 30: 0x0712 [0x4A] Kuroido-Moido (ID: 17760274/0x010F0012) looks at Hakkuru-Rinkuru (ID: 17760273/0x010F0011)
 31: 0x071B [0x1C] WAIT(30* ticks)
 32: 0x071E [0x29] REQ_SET_WAIT(priority=0x0B, entity_id=Kuroido-Moido (ID: 17760274/0x010F0012), tag_num=0x3D)
 33: 0x0725 [0x01] GOTO 0x074D
 34: 0x0728 [0x02] IF !(Work_Zone[7] == 1*) GOTO 0x0746
 35: 0x0730 [0x4A] Kuroido-Moido (ID: 17760274/0x010F0012) looks at Hakkuru-Rinkuru (ID: 17760273/0x010F0011)
 36: 0x0739 [0x1C] WAIT(30* ticks)
 37: 0x073C [0x29] REQ_SET_WAIT(priority=0x0B, entity_id=Kuroido-Moido (ID: 17760274/0x010F0012), tag_num=0x3E)
 38: 0x0743 [0x01] GOTO 0x074D
 39: 0x0746 [0x29] REQ_SET_WAIT(priority=0x0B, entity_id=Kuroido-Moido (ID: 17760274/0x010F0012), tag_num=0x3F)

SUBROUTINE_074D:
 40: 0x074D [0x29] REQ_SET_WAIT(priority=0x08, entity_id=Hakkuru-Rinkuru (ID: 17760273/0x010F0011), tag_num=0x1B)
 41: 0x0754 [0x4A] Hakkuru-Rinkuru (ID: 17760273/0x010F0011) looks at Kuroido-Moido (ID: 17760274/0x010F0012)
 42: 0x075D [0x79] LocalPlayer looks at Hakkuru-Rinkuru (ID: 17760273/0x010F0011) (Basic look)
 43: 0x0767 [0x1C] WAIT(30* ticks)
 44: 0x076A [0x29] REQ_SET_WAIT(priority=0x08, entity_id=Hakkuru-Rinkuru (ID: 17760273/0x010F0011), tag_num=0x0F)
 45: 0x0771 [0x29] REQ_SET_WAIT(priority=0x08, entity_id=Hakkuru-Rinkuru (ID: 17760273/0x010F0011), tag_num=0x10)
 46: 0x0778 [0x02] IF !(Work_Zone[7] == 0*) GOTO 0x07A7
 47: 0x0780 [0x29] REQ_SET_WAIT(priority=0x0B, entity_id=Hakkuru-Rinkuru (ID: 17760273/0x010F0011), tag_num=0x5E)
 48: 0x0787 [0x4A] Kuroido-Moido (ID: 17760274/0x010F0012) looks at LocalPlayer
 49: 0x0790 [0x1C] WAIT(30* ticks)
 50: 0x0793 [0x79] LocalPlayer looks at Kuroido-Moido (ID: 17760274/0x010F0012) (Basic look)
 51: 0x079D [0x29] REQ_SET_WAIT(priority=0x0B, entity_id=Kuroido-Moido (ID: 17760274/0x010F0012), tag_num=0x40)
 52: 0x07A4 [0x01] GOTO 0x07E6
 53: 0x07A7 [0x02] IF !(Work_Zone[7] == 1*) GOTO 0x07D6
 54: 0x07AF [0x29] REQ_SET_WAIT(priority=0x0B, entity_id=Hakkuru-Rinkuru (ID: 17760273/0x010F0011), tag_num=0x5F)
 55: 0x07B6 [0x4A] Kuroido-Moido (ID: 17760274/0x010F0012) looks at LocalPlayer
 56: 0x07BF [0x1C] WAIT(30* ticks)
 57: 0x07C2 [0x79] LocalPlayer looks at Kuroido-Moido (ID: 17760274/0x010F0012) (Basic look)
 58: 0x07CC [0x29] REQ_SET_WAIT(priority=0x0B, entity_id=Kuroido-Moido (ID: 17760274/0x010F0012), tag_num=0x40)
 59: 0x07D3 [0x01] GOTO 0x07E6
 60: 0x07D6 [0x4A] Kuroido-Moido (ID: 17760274/0x010F0012) looks at Hakkuru-Rinkuru (ID: 17760273/0x010F0011)
 61: 0x07DF [0x29] REQ_SET_WAIT(priority=0x0B, entity_id=Hakkuru-Rinkuru (ID: 17760273/0x010F0011), tag_num=0x60)

SUBROUTINE_07E6:
 62: 0x07E6 [0x45] LOAD_SCHEDULED_TASK: Load scheduler "s096" with entities [LocalPlayer, LocalPlayer], work=[140*, 0*]
 63: 0x07F7 [0x4E] SET_ENTITY_HIDE_FLAG: Show Apururu (ID: 17760283/0x010F001B)
 64: 0x07FD [0x27] REQ_SET(priority=0x0B, entity_id=Apururu (ID: 17760283/0x010F001B), tag_num=0x23)
 65: 0x0804 [0x4A] Kuroido-Moido (ID: 17760274/0x010F0012) looks at Apururu (ID: 17760283/0x010F001B)
 66: 0x080D [0x29] REQ_SET_WAIT(priority=0x08, entity_id=Hakkuru-Rinkuru (ID: 17760273/0x010F0011), tag_num=0x15)
 67: 0x0814 [0x4A] Hakkuru-Rinkuru (ID: 17760273/0x010F0011) looks at Apururu (ID: 17760283/0x010F001B)
 68: 0x081D [0x79] LocalPlayer looks at Apururu (ID: 17760283/0x010F001B) (Basic look)
 69: 0x0827 [0x02] IF !(Work_Zone[7] == 0*) GOTO 0x083A
 70: 0x082F [0x2B] Apururu (ID: 17760283/0x010F001B) [3797*]:
    → "Hi-diddly-diddly! Is my dear brother in?"
 71: 0x0836 [0x23] WAIT_FOR_DIALOG_INTERACTION
 72: 0x0837 [0x01] GOTO 0x0842
 73: 0x083A [0x2B] Apururu (ID: 17760283/0x010F001B) [12388*]:
    → "Hello, everyone! Apururu is here!"
 74: 0x0841 [0x23] WAIT_FOR_DIALOG_INTERACTION

SUBROUTINE_0842:
 75: 0x0842 [0x52] END_LOAD_SCHEDULER: End scheduler "s096" with entities [LocalPlayer, LocalPlayer], work=140*
 76: 0x0851 [0x29] REQ_SET_WAIT(priority=0x0B, entity_id=Hakkuru-Rinkuru (ID: 17760273/0x010F0011), tag_num=0x61)
 77: 0x0858 [0x2A] GET_REQ_LEVEL(level=11, entity_id=Apururu (ID: 17760283/0x010F001B))
 78: 0x085E [0x45] LOAD_SCHEDULED_TASK: Load scheduler "s097" with entities [LocalPlayer, LocalPlayer], work=[140*, 0*]
 79: 0x086F [0x02] IF !(Work_Zone[7] == 0*) GOTO 0x0881
 80: 0x0877 [0x29] REQ_SET_WAIT(priority=0x0B, entity_id=Apururu (ID: 17760283/0x010F001B), tag_num=0x26)
 81: 0x087E [0x01] GOTO 0x0888
 82: 0x0881 [0x29] REQ_SET_WAIT(priority=0x0B, entity_id=Apururu (ID: 17760283/0x010F001B), tag_num=0x27)

SUBROUTINE_0888:
 83: 0x0888 [0x45] LOAD_SCHEDULED_TASK: Load scheduler "s098" with entities [LocalPlayer, LocalPlayer], work=[140*, 0*]
 84: 0x0899 [0x27] REQ_SET(priority=0x0B, entity_id=Kuroido-Moido (ID: 17760274/0x010F0012), tag_num=0x3B)
