# 17760282 - Shantotto

## Common Data

| Field            | Value                   |
|------------------|-------------------------|
| Zone             | Port Windurst (ID: 240) |
| Block Size       | 864 bytes               |
| Total Events     | 32                      |
| References Count | 36                      |

## List of Events

| Event ID                   | Entrypoint   |   Size |   Instructions |
|----------------------------|--------------|--------|----------------|
| [65535](#event-65535)      | 0x0000       |      1 |              1 |
| [65535.1](#event-655351)   | 0x0001       |     16 |              2 |
| [65535.2](#event-655352)   | 0x0011       |     22 |              4 |
| [65535.3](#event-655353)   | 0x0027       |     14 |              2 |
| [65535.4](#event-655354)   | 0x0035       |     14 |              2 |
| [65535.5](#event-655355)   | 0x0043       |     57 |              5 |
| [65535.6](#event-655356)   | 0x007C       |     57 |              5 |
| [65535.7](#event-655357)   | 0x00B5       |     57 |              5 |
| [65535.8](#event-655358)   | 0x00EE       |     16 |              2 |
| [65535.9](#event-655359)   | 0x00FE       |     14 |              2 |
| [65535.10](#event-6553510) | 0x010C       |     16 |              2 |
| [65535.11](#event-6553511) | 0x011C       |     14 |              2 |
| [65535.12](#event-6553512) | 0x012A       |     16 |              2 |
| [65535.13](#event-6553513) | 0x013A       |     22 |              4 |
| [265](#event-265)          | 0x0150       |      3 |              2 |
| [65535.14](#event-6553514) | 0x0153       |     15 |              5 |
| [65535.15](#event-6553515) | 0x0162       |     15 |              5 |
| [65535.16](#event-6553516) | 0x0171       |     15 |              5 |
| [65535.17](#event-6553517) | 0x0180       |     15 |              5 |
| [65535.18](#event-6553518) | 0x018F       |     44 |             11 |
| [65535.19](#event-6553519) | 0x01BB       |      5 |              3 |
| [65535.20](#event-6553520) | 0x01C0       |      5 |              3 |
| [65535.21](#event-6553521) | 0x01C5       |     19 |              5 |
| [65535.22](#event-6553522) | 0x01D8       |     19 |              5 |
| [65535.23](#event-6553523) | 0x01EB       |      5 |              3 |
| [65535.24](#event-6553524) | 0x01F0       |      5 |              3 |
| [65535.25](#event-6553525) | 0x01F5       |      5 |              3 |
| [65535.26](#event-6553526) | 0x01FA       |      5 |              3 |
| [65535.27](#event-6553527) | 0x01FF       |      5 |              3 |
| [65535.28](#event-6553528) | 0x0204       |     19 |              5 |
| [65535.29](#event-6553529) | 0x0217       |     19 |              5 |
| [65535.30](#event-6553530) | 0x022A       |     19 |              5 |

## DAT References (imed_data)

|   Index | Hex Value   |   Dec Value |
|---------|-------------|-------------|
|       0 | 0x0028      |          40 |
|       1 | 0x001E      |          30 |
|       2 | 0x0157      |         343 |
|       3 | 0x0029      |          41 |
|       4 | 0x000D      |          13 |
|       5 | 0xFFFE4AC9  |  4294855369 |
|       6 | 0x18325     |       99109 |
|       7 | 0xFFFFEF67  |  4294963047 |
|       8 | 0xFFFE4B36  |  4294855478 |
|       9 | 0x19136     |      102710 |
|      10 | 0xFFFFEF66  |  4294963046 |
|      11 | 0xFFFE4A8B  |  4294855307 |
|      12 | 0x18C42     |      101442 |
|      13 | 0xFFFE4B90  |  4294855568 |
|      14 | 0x18AF6     |      101110 |
|      15 | 0xFFFE4D71  |  4294856049 |
|      16 | 0x189D2     |      100818 |
|      17 | 0xFFFE4D6E  |  4294856046 |
|      18 | 0x17FA7     |       98215 |
|      19 | 0xFFFE67AB  |  4294862763 |
|      20 | 0x17F79     |       98169 |
|      21 | 0xFFFFF34E  |  4294964046 |
|      22 | 0xFFFE7086  |  4294865030 |
|      23 | 0x18F00     |      102144 |
|      24 | 0x0E83      |        3715 |
|      25 | 0x0E85      |        3717 |
|      26 | 0x0E86      |        3718 |
|      27 | 0x0E87      |        3719 |
|      28 | 0x0E88      |        3720 |
|      29 | 0x0E89      |        3721 |
|      30 | 0x0E8A      |        3722 |
|      31 | 0x0E8B      |        3723 |
|      32 | 0x0E8C      |        3724 |
|      33 | 0x0E91      |        3729 |
|      34 | 0x0E93      |        3731 |
|      35 | 0x0E96      |        3734 |

## String References

- **3715**: Oh, what splendid timing, dears.
- **3717**: Hohoho! Is this our first time to meet-o? I'm the previous minister of this Orastery, Doctor Shantotto.
- **3718**: Why, Hakkuru-Rinkuru, my dear! Aren't those the wands our brigadier generals are pushing you for that you have here?
- **3719**: Let me have a lend of them, Hakkuru-Rinkuru. Ohoho! I'll try them out and decide for you!
- **3720**: First off, we have the $1... Bibbly-bobbly-boo-boo\`!
- **3721**: Humph. Well, that was oh so so-so!
- **3722**: Next we have the $2... Alakaza\`m...
- **3723**: Handles nicely but the turning is a little rough...
- **3724**: Finally we have the $3. Mumbo-jumbo moogle-mambo!
- **3729**: Don't blame me. No, oh, no! Such a weakling shouldn't be in the Mage Academy to begin with! Ohoho!
- **3731**: Ohoho! Well, I was holding back, you know.
- **3734**: Here, I'll give you this, my friend... It should provide you hours of fun on your weekend. Ohohoho\`!

## Events

### Event 65535

#### Metadata

| Field        | Value   |
|--------------|---------|
| Entrypoint   | 0x0000  |
| Data Size    | 1 bytes |
| Instructions | 1       |

```
      00 01 02 03 04 05 06 07  08 09 0A 0B 0C 0D 0E 0F
      -- -- -- -- -- -- -- --  -- -- -- -- -- -- -- --
0000: 00                                                .               
```

#### Opcodes

```
  0: 0x0000 [0x00] END_REQSTACK()
```

### Event 65535.1

#### Metadata

| Field        | Value    |
|--------------|----------|
| Entrypoint   | 0x0001   |
| Data Size    | 16 bytes |
| Instructions | 2        |

```
      00 01 02 03 04 05 06 07  08 09 0A 0B 0C 0D 0E 0F
      -- -- -- -- -- -- -- --  -- -- -- -- -- -- -- --
0000:    66 00 80 F8 FF FF 7F  F8 FF FF 7F 74 6C 6B 30   f..........tlk0
0010: 00                                                .               
```

#### Opcodes

```
  0: 0x0001 [0x66] LOAD_EXT_SCHEDULER_MAIN: Load scheduler "tlk0" with entities [EventEntity, EventEntity], work=40*
  1: 0x0010 [0x00] END_REQSTACK()
```

### Event 65535.2

#### Metadata

| Field        | Value    |
|--------------|----------|
| Entrypoint   | 0x0011   |
| Data Size    | 22 bytes |
| Instructions | 4        |

```
      00 01 02 03 04 05 06 07  08 09 0A 0B 0C 0D 0E 0F
      -- -- -- -- -- -- -- --  -- -- -- -- -- -- -- --
0010:    53 F8 FF FF 7F F8 FF  FF 7F 74 6C 6B 30 5E 69   S........tlk0^i
0020: 64 6C 30 1C 01 80 00                              dl0....         
```

#### Opcodes

```
  0: 0x0011 [0x53] WAIT_SCHEDULER_TASK: Wait for scheduler "tlk0" with entities [EventEntity, EventEntity]
  1: 0x001E [0x5E] EventEntity goes idle (kills current action) (animation: "idl0")
  2: 0x0023 [0x1C] WAIT(30* ticks)
  3: 0x0026 [0x00] END_REQSTACK()
```

### Event 65535.3

#### Metadata

| Field        | Value    |
|--------------|----------|
| Entrypoint   | 0x0027   |
| Data Size    | 14 bytes |
| Instructions | 2        |

```
      00 01 02 03 04 05 06 07  08 09 0A 0B 0C 0D 0E 0F
      -- -- -- -- -- -- -- --  -- -- -- -- -- -- -- --
0020:                      2C  F8 FF FF 7F F8 FF FF 7F         ,........
0030: 63 61 73 74 00                                    cast.           
```

#### Opcodes

```
  0: 0x0027 [0x2C] CREATE_SCHEDULER_TASK: Create scheduler "cast" with entities [EventEntity, EventEntity]
  1: 0x0034 [0x00] END_REQSTACK()
```

### Event 65535.4

#### Metadata

| Field        | Value    |
|--------------|----------|
| Entrypoint   | 0x0035   |
| Data Size    | 14 bytes |
| Instructions | 2        |

```
      00 01 02 03 04 05 06 07  08 09 0A 0B 0C 0D 0E 0F
      -- -- -- -- -- -- -- --  -- -- -- -- -- -- -- --
0030:                53 F8 FF  FF 7F F8 FF FF 7F 63 61       S........ca
0040: 73 74 00                                          st.             
```

#### Opcodes

```
  0: 0x0035 [0x53] WAIT_SCHEDULER_TASK: Wait for scheduler "cast" with entities [EventEntity, EventEntity]
  1: 0x0042 [0x00] END_REQSTACK()
```

### Event 65535.5

#### Metadata

| Field        | Value    |
|--------------|----------|
| Entrypoint   | 0x0043   |
| Data Size    | 57 bytes |
| Instructions | 5        |

```
      00 01 02 03 04 05 06 07  08 09 0A 0B 0C 0D 0E 0F
      -- -- -- -- -- -- -- --  -- -- -- -- -- -- -- --
0040:          5B 02 80 1A 00  0F 01 27 00 0F 01 63 61     [......'...ca
0050: 62 6B 53 F8 FF FF 7F F8  FF FF 7F 63 61 62 6B 5B  bkS........cabk[
0060: 02 80 1A 00 0F 01 27 00  0F 01 73 68 62 6B 53 F8  ......'...shbkS.
0070: FF FF 7F F8 FF FF 7F 73  68 62 6B 00              .......shbk.    
```

#### Opcodes

```
  0: 0x0043 [0x5B] LOAD_EXT_SCHEDULER: Load scheduler "cabk" with entities [Shantotto (ID: 17760282/0x010F001A), Blank Card (ID: 17760295/0x010F0027)], work=343*
  1: 0x0052 [0x53] WAIT_SCHEDULER_TASK: Wait for scheduler "cabk" with entities [EventEntity, EventEntity]
  2: 0x005F [0x5B] LOAD_EXT_SCHEDULER: Load scheduler "shbk" with entities [Shantotto (ID: 17760282/0x010F001A), Blank Card (ID: 17760295/0x010F0027)], work=343*
  3: 0x006E [0x53] WAIT_SCHEDULER_TASK: Wait for scheduler "shbk" with entities [EventEntity, EventEntity]
  4: 0x007B [0x00] END_REQSTACK()
```

### Event 65535.6

#### Metadata

| Field        | Value    |
|--------------|----------|
| Entrypoint   | 0x007C   |
| Data Size    | 57 bytes |
| Instructions | 5        |

```
      00 01 02 03 04 05 06 07  08 09 0A 0B 0C 0D 0E 0F
      -- -- -- -- -- -- -- --  -- -- -- -- -- -- -- --
0070:                                      5B 02 80 1A              [...
0080: 00 0F 01 27 00 0F 01 63  61 77 68 53 F8 FF FF 7F  ...'...cawhS....
0090: F8 FF FF 7F 63 61 77 68  5B 02 80 1A 00 0F 01 27  ....cawh[......'
00A0: 00 0F 01 73 68 77 68 53  F8 FF FF 7F F8 FF FF 7F  ...shwhS........
00B0: 73 68 77 68 00                                    shwh.           
```

#### Opcodes

```
  0: 0x007C [0x5B] LOAD_EXT_SCHEDULER: Load scheduler "cawh" with entities [Shantotto (ID: 17760282/0x010F001A), Blank Card (ID: 17760295/0x010F0027)], work=343*
  1: 0x008B [0x53] WAIT_SCHEDULER_TASK: Wait for scheduler "cawh" with entities [EventEntity, EventEntity]
  2: 0x0098 [0x5B] LOAD_EXT_SCHEDULER: Load scheduler "shwh" with entities [Shantotto (ID: 17760282/0x010F001A), Blank Card (ID: 17760295/0x010F0027)], work=343*
  3: 0x00A7 [0x53] WAIT_SCHEDULER_TASK: Wait for scheduler "shwh" with entities [EventEntity, EventEntity]
  4: 0x00B4 [0x00] END_REQSTACK()
```

### Event 65535.7

#### Metadata

| Field        | Value    |
|--------------|----------|
| Entrypoint   | 0x00B5   |
| Data Size    | 57 bytes |
| Instructions | 5        |

```
      00 01 02 03 04 05 06 07  08 09 0A 0B 0C 0D 0E 0F
      -- -- -- -- -- -- -- --  -- -- -- -- -- -- -- --
00B0:                5B 02 80  1A 00 0F 01 F0 FF FF 7F       [..........
00C0: 63 61 62 6B 53 F8 FF FF  7F F8 FF FF 7F 63 61 62  cabkS........cab
00D0: 6B 5B 02 80 1A 00 0F 01  F0 FF FF 7F 73 68 62 6B  k[..........shbk
00E0: 53 F8 FF FF 7F F8 FF FF  7F 73 68 62 6B 00        S........shbk.  
```

#### Opcodes

```
  0: 0x00B5 [0x5B] LOAD_EXT_SCHEDULER: Load scheduler "cabk" with entities [Shantotto (ID: 17760282/0x010F001A), LocalPlayer], work=343*
  1: 0x00C4 [0x53] WAIT_SCHEDULER_TASK: Wait for scheduler "cabk" with entities [EventEntity, EventEntity]
  2: 0x00D1 [0x5B] LOAD_EXT_SCHEDULER: Load scheduler "shbk" with entities [Shantotto (ID: 17760282/0x010F001A), LocalPlayer], work=343*
  3: 0x00E0 [0x53] WAIT_SCHEDULER_TASK: Wait for scheduler "shbk" with entities [EventEntity, EventEntity]
  4: 0x00ED [0x00] END_REQSTACK()
```

### Event 65535.8

#### Metadata

| Field        | Value    |
|--------------|----------|
| Entrypoint   | 0x00EE   |
| Data Size    | 16 bytes |
| Instructions | 2        |

```
      00 01 02 03 04 05 06 07  08 09 0A 0B 0C 0D 0E 0F
      -- -- -- -- -- -- -- --  -- -- -- -- -- -- -- --
00E0:                                            66 00                f.
00F0: 80 F8 FF FF 7F F8 FF FF  7F 70 61 73 30 00        .........pas0.  
```

#### Opcodes

```
  0: 0x00EE [0x66] LOAD_EXT_SCHEDULER_MAIN: Load scheduler "pas0" with entities [EventEntity, EventEntity], work=40*
  1: 0x00FD [0x00] END_REQSTACK()
```

### Event 65535.9

#### Metadata

| Field        | Value    |
|--------------|----------|
| Entrypoint   | 0x00FE   |
| Data Size    | 14 bytes |
| Instructions | 2        |

```
      00 01 02 03 04 05 06 07  08 09 0A 0B 0C 0D 0E 0F
      -- -- -- -- -- -- -- --  -- -- -- -- -- -- -- --
00F0:                                            53 F8                S.
0100: FF FF 7F F8 FF FF 7F 70  61 73 30 00              .......pas0.    
```

#### Opcodes

```
  0: 0x00FE [0x53] WAIT_SCHEDULER_TASK: Wait for scheduler "pas0" with entities [EventEntity, EventEntity]
  1: 0x010B [0x00] END_REQSTACK()
```

### Event 65535.10

#### Metadata

| Field        | Value    |
|--------------|----------|
| Entrypoint   | 0x010C   |
| Data Size    | 16 bytes |
| Instructions | 2        |

```
      00 01 02 03 04 05 06 07  08 09 0A 0B 0C 0D 0E 0F
      -- -- -- -- -- -- -- --  -- -- -- -- -- -- -- --
0100:                                      66 00 80 F8              f...
0110: FF FF 7F F8 FF FF 7F 77  61 76 30 00              .......wav0.    
```

#### Opcodes

```
  0: 0x010C [0x66] LOAD_EXT_SCHEDULER_MAIN: Load scheduler "wav0" with entities [EventEntity, EventEntity], work=40*
  1: 0x011B [0x00] END_REQSTACK()
```

### Event 65535.11

#### Metadata

| Field        | Value    |
|--------------|----------|
| Entrypoint   | 0x011C   |
| Data Size    | 14 bytes |
| Instructions | 2        |

```
      00 01 02 03 04 05 06 07  08 09 0A 0B 0C 0D 0E 0F
      -- -- -- -- -- -- -- --  -- -- -- -- -- -- -- --
0110:                                      53 F8 FF FF              S...
0120: 7F F8 FF FF 7F 77 61 76  30 00                    .....wav0.      
```

#### Opcodes

```
  0: 0x011C [0x53] WAIT_SCHEDULER_TASK: Wait for scheduler "wav0" with entities [EventEntity, EventEntity]
  1: 0x0129 [0x00] END_REQSTACK()
```

### Event 65535.12

#### Metadata

| Field        | Value    |
|--------------|----------|
| Entrypoint   | 0x012A   |
| Data Size    | 16 bytes |
| Instructions | 2        |

```
      00 01 02 03 04 05 06 07  08 09 0A 0B 0C 0D 0E 0F
      -- -- -- -- -- -- -- --  -- -- -- -- -- -- -- --
0120:                                66 03 80 F8 FF FF            f.....
0130: 7F F8 FF FF 7F 6F 68 68  30 00                    .....ohh0.      
```

#### Opcodes

```
  0: 0x012A [0x66] LOAD_EXT_SCHEDULER_MAIN: Load scheduler "ohh0" with entities [EventEntity, EventEntity], work=41*
  1: 0x0139 [0x00] END_REQSTACK()
```

### Event 65535.13

#### Metadata

| Field        | Value    |
|--------------|----------|
| Entrypoint   | 0x013A   |
| Data Size    | 22 bytes |
| Instructions | 4        |

```
      00 01 02 03 04 05 06 07  08 09 0A 0B 0C 0D 0E 0F
      -- -- -- -- -- -- -- --  -- -- -- -- -- -- -- --
0130:                                53 F8 FF FF 7F F8            S.....
0140: FF FF 7F 6F 68 68 30 5E  69 64 6C 30 1C 01 80 00  ...ohh0^idl0....
```

#### Opcodes

```
  0: 0x013A [0x53] WAIT_SCHEDULER_TASK: Wait for scheduler "ohh0" with entities [EventEntity, EventEntity]
  1: 0x0147 [0x5E] EventEntity goes idle (kills current action) (animation: "idl0")
  2: 0x014C [0x1C] WAIT(30* ticks)
  3: 0x014F [0x00] END_REQSTACK()
```

### Event 265

#### Metadata

| Field        | Value   |
|--------------|---------|
| Entrypoint   | 0x0150  |
| Data Size    | 3 bytes |
| Instructions | 2       |

```
      00 01 02 03 04 05 06 07  08 09 0A 0B 0C 0D 0E 0F
      -- -- -- -- -- -- -- --  -- -- -- -- -- -- -- --
0150: 22 01 00                                          "..             
```

#### Opcodes

```
  0: 0x0150 [0x22] ENTITY_HIDE_FLAG(enabled=0x01)
  1: 0x0152 [0x00] END_REQSTACK()
```

### Event 65535.14

#### Metadata

| Field        | Value    |
|--------------|----------|
| Entrypoint   | 0x0153   |
| Data Size    | 15 bytes |
| Instructions | 5        |

```
      00 01 02 03 04 05 06 07  08 09 0A 0B 0C 0D 0E 0F
      -- -- -- -- -- -- -- --  -- -- -- -- -- -- -- --
0150:          32 04 80 1F 00  05 80 06 80 07 80 1F 01     2............
0160: 6F 00                                             o.              
```

#### Opcodes

```
  0: 0x0153 [0x32] ExtData[1]->MainSpeed = 13* * 0.1
  1: 0x0156 [0x1F] MOVE_ENTITY: EventEntity moves to X=-111.927*, Z=99.109*, Y=-4.249*
  2: 0x015E [0x1F] MOVE_ENTITY: Update entity position (mode=1)
  3: 0x0160 [0x6F] WAIT_FRAME_DELAY: Yield until WaitTime reaches zero
  4: 0x0161 [0x00] END_REQSTACK()
```

### Event 65535.15

#### Metadata

| Field        | Value    |
|--------------|----------|
| Entrypoint   | 0x0162   |
| Data Size    | 15 bytes |
| Instructions | 5        |

```
      00 01 02 03 04 05 06 07  08 09 0A 0B 0C 0D 0E 0F
      -- -- -- -- -- -- -- --  -- -- -- -- -- -- -- --
0160:       32 04 80 1F 00 08  80 09 80 0A 80 1F 01 6F    2............o
0170: 00                                                .               
```

#### Opcodes

```
  0: 0x0162 [0x32] ExtData[1]->MainSpeed = 13* * 0.1
  1: 0x0165 [0x1F] MOVE_ENTITY: EventEntity moves to X=-111.818*, Z=102.710*, Y=-4.250*
  2: 0x016D [0x1F] MOVE_ENTITY: Update entity position (mode=1)
  3: 0x016F [0x6F] WAIT_FRAME_DELAY: Yield until WaitTime reaches zero
  4: 0x0170 [0x00] END_REQSTACK()
```

### Event 65535.16

#### Metadata

| Field        | Value    |
|--------------|----------|
| Entrypoint   | 0x0171   |
| Data Size    | 15 bytes |
| Instructions | 5        |

```
      00 01 02 03 04 05 06 07  08 09 0A 0B 0C 0D 0E 0F
      -- -- -- -- -- -- -- --  -- -- -- -- -- -- -- --
0170:    32 04 80 1F 00 0B 80  0C 80 07 80 1F 01 6F 00   2............o.
```

#### Opcodes

```
  0: 0x0171 [0x32] ExtData[1]->MainSpeed = 13* * 0.1
  1: 0x0174 [0x1F] MOVE_ENTITY: EventEntity moves to X=-111.989*, Z=101.442*, Y=-4.249*
  2: 0x017C [0x1F] MOVE_ENTITY: Update entity position (mode=1)
  3: 0x017E [0x6F] WAIT_FRAME_DELAY: Yield until WaitTime reaches zero
  4: 0x017F [0x00] END_REQSTACK()
```

### Event 65535.17

#### Metadata

| Field        | Value    |
|--------------|----------|
| Entrypoint   | 0x0180   |
| Data Size    | 15 bytes |
| Instructions | 5        |

```
      00 01 02 03 04 05 06 07  08 09 0A 0B 0C 0D 0E 0F
      -- -- -- -- -- -- -- --  -- -- -- -- -- -- -- --
0180: 32 04 80 1F 00 0D 80 0E  80 07 80 1F 01 6F 00     2............o. 
```

#### Opcodes

```
  0: 0x0180 [0x32] ExtData[1]->MainSpeed = 13* * 0.1
  1: 0x0183 [0x1F] MOVE_ENTITY: EventEntity moves to X=-111.728*, Z=101.110*, Y=-4.249*
  2: 0x018B [0x1F] MOVE_ENTITY: Update entity position (mode=1)
  3: 0x018D [0x6F] WAIT_FRAME_DELAY: Yield until WaitTime reaches zero
  4: 0x018E [0x00] END_REQSTACK()
```

### Event 65535.18

#### Metadata

| Field        | Value    |
|--------------|----------|
| Entrypoint   | 0x018F   |
| Data Size    | 44 bytes |
| Instructions | 11       |

```
      00 01 02 03 04 05 06 07  08 09 0A 0B 0C 0D 0E 0F
      -- -- -- -- -- -- -- --  -- -- -- -- -- -- -- --
0180:                                               1F                 .
0190: 00 0F 80 10 80 07 80 1F  01 1F 00 11 80 12 80 07  ................
01A0: 80 1F 01 1F 00 13 80 14  80 15 80 1F 01 1F 00 16  ................
01B0: 80 17 80 15 80 1F 01 6F  22 01 00                 .......o"..     
```

#### Opcodes

```
  0: 0x018F [0x1F] MOVE_ENTITY: EventEntity moves to X=-111.247*, Z=100.818*, Y=-4.249*
  1: 0x0197 [0x1F] MOVE_ENTITY: Update entity position (mode=1)
  2: 0x0199 [0x1F] MOVE_ENTITY: EventEntity moves to X=-111.250*, Z=98.215*, Y=-4.249*
  3: 0x01A1 [0x1F] MOVE_ENTITY: Update entity position (mode=1)
  4: 0x01A3 [0x1F] MOVE_ENTITY: EventEntity moves to X=-104.533*, Z=98.169*, Y=-3.250*
  5: 0x01AB [0x1F] MOVE_ENTITY: Update entity position (mode=1)
  6: 0x01AD [0x1F] MOVE_ENTITY: EventEntity moves to X=-102.266*, Z=102.144*, Y=-3.250*
  7: 0x01B5 [0x1F] MOVE_ENTITY: Update entity position (mode=1)
  8: 0x01B7 [0x6F] WAIT_FRAME_DELAY: Yield until WaitTime reaches zero
  9: 0x01B8 [0x22] ENTITY_HIDE_FLAG(enabled=0x01)
 10: 0x01BA [0x00] END_REQSTACK()
```

### Event 65535.19

#### Metadata

| Field        | Value   |
|--------------|---------|
| Entrypoint   | 0x01BB  |
| Data Size    | 5 bytes |
| Instructions | 3       |

```
      00 01 02 03 04 05 06 07  08 09 0A 0B 0C 0D 0E 0F
      -- -- -- -- -- -- -- --  -- -- -- -- -- -- -- --
01B0:                                   1D 18 80 23 00             ...#.
```

#### Opcodes

```
  0: 0x01BB [0x1D] PRINT_EVENT_MESSAGE(message_id=3715*)
    → "Oh, what splendid timing, dears."
  1: 0x01BE [0x23] WAIT_FOR_DIALOG_INTERACTION
  2: 0x01BF [0x00] END_REQSTACK()
```

### Event 65535.20

#### Metadata

| Field        | Value   |
|--------------|---------|
| Entrypoint   | 0x01C0  |
| Data Size    | 5 bytes |
| Instructions | 3       |

```
      00 01 02 03 04 05 06 07  08 09 0A 0B 0C 0D 0E 0F
      -- -- -- -- -- -- -- --  -- -- -- -- -- -- -- --
01C0: 1D 19 80 23 00                                    ...#.           
```

#### Opcodes

```
  0: 0x01C0 [0x1D] PRINT_EVENT_MESSAGE(message_id=3717*)
    → "Hohoho! Is this our first time to meet-o? I'm the previous minister of this Orastery, Doctor Shantotto."
  1: 0x01C3 [0x23] WAIT_FOR_DIALOG_INTERACTION
  2: 0x01C4 [0x00] END_REQSTACK()
```

### Event 65535.21

#### Metadata

| Field        | Value    |
|--------------|----------|
| Entrypoint   | 0x01C5   |
| Data Size    | 19 bytes |
| Instructions | 5        |

```
      00 01 02 03 04 05 06 07  08 09 0A 0B 0C 0D 0E 0F
      -- -- -- -- -- -- -- --  -- -- -- -- -- -- -- --
01C0:                29 08 1A  00 0F 01 0A 1D 1A 80 23       ).........#
01D0: 29 08 1A 00 0F 01 0B 00                           ).......        
```

#### Opcodes

```
  0: 0x01C5 [0x29] REQ_SET_WAIT(priority=0x08, entity_id=Shantotto (ID: 17760282/0x010F001A), tag_num=0x0A)
  1: 0x01CC [0x1D] PRINT_EVENT_MESSAGE(message_id=3718*)
    → "Why, Hakkuru-Rinkuru, my dear! Aren't those the wands our brigadier generals are pushing you for that you have here?"
  2: 0x01CF [0x23] WAIT_FOR_DIALOG_INTERACTION
  3: 0x01D0 [0x29] REQ_SET_WAIT(priority=0x08, entity_id=Shantotto (ID: 17760282/0x010F001A), tag_num=0x0B)
  4: 0x01D7 [0x00] END_REQSTACK()
```

### Event 65535.22

#### Metadata

| Field        | Value    |
|--------------|----------|
| Entrypoint   | 0x01D8   |
| Data Size    | 19 bytes |
| Instructions | 5        |

```
      00 01 02 03 04 05 06 07  08 09 0A 0B 0C 0D 0E 0F
      -- -- -- -- -- -- -- --  -- -- -- -- -- -- -- --
01D0:                          29 08 1A 00 0F 01 01 1D          ).......
01E0: 1B 80 23 29 08 1A 00 0F  01 02 00                 ..#).......     
```

#### Opcodes

```
  0: 0x01D8 [0x29] REQ_SET_WAIT(priority=0x08, entity_id=Shantotto (ID: 17760282/0x010F001A), tag_num=0x01)
  1: 0x01DF [0x1D] PRINT_EVENT_MESSAGE(message_id=3719*)
    → "Let me have a lend of them, Hakkuru-Rinkuru. Ohoho! I'll try them out and decide for you!"
  2: 0x01E2 [0x23] WAIT_FOR_DIALOG_INTERACTION
  3: 0x01E3 [0x29] REQ_SET_WAIT(priority=0x08, entity_id=Shantotto (ID: 17760282/0x010F001A), tag_num=0x02)
  4: 0x01EA [0x00] END_REQSTACK()
```

### Event 65535.23

#### Metadata

| Field        | Value   |
|--------------|---------|
| Entrypoint   | 0x01EB  |
| Data Size    | 5 bytes |
| Instructions | 3       |

```
      00 01 02 03 04 05 06 07  08 09 0A 0B 0C 0D 0E 0F
      -- -- -- -- -- -- -- --  -- -- -- -- -- -- -- --
01E0:                                   1D 1C 80 23 00             ...#.
```

#### Opcodes

```
  0: 0x01EB [0x1D] PRINT_EVENT_MESSAGE(message_id=3720*)
    → "First off, we have the $1... Bibbly-bobbly-boo-boo`!"
  1: 0x01EE [0x23] WAIT_FOR_DIALOG_INTERACTION
  2: 0x01EF [0x00] END_REQSTACK()
```

### Event 65535.24

#### Metadata

| Field        | Value   |
|--------------|---------|
| Entrypoint   | 0x01F0  |
| Data Size    | 5 bytes |
| Instructions | 3       |

```
      00 01 02 03 04 05 06 07  08 09 0A 0B 0C 0D 0E 0F
      -- -- -- -- -- -- -- --  -- -- -- -- -- -- -- --
01F0: 1D 1D 80 23 00                                    ...#.           
```

#### Opcodes

```
  0: 0x01F0 [0x1D] PRINT_EVENT_MESSAGE(message_id=3721*)
    → "Humph. Well, that was oh so so-so!"
  1: 0x01F3 [0x23] WAIT_FOR_DIALOG_INTERACTION
  2: 0x01F4 [0x00] END_REQSTACK()
```

### Event 65535.25

#### Metadata

| Field        | Value   |
|--------------|---------|
| Entrypoint   | 0x01F5  |
| Data Size    | 5 bytes |
| Instructions | 3       |

```
      00 01 02 03 04 05 06 07  08 09 0A 0B 0C 0D 0E 0F
      -- -- -- -- -- -- -- --  -- -- -- -- -- -- -- --
01F0:                1D 1E 80  23 00                         ...#.      
```

#### Opcodes

```
  0: 0x01F5 [0x1D] PRINT_EVENT_MESSAGE(message_id=3722*)
    → "Next we have the $2... Alakaza`m..."
  1: 0x01F8 [0x23] WAIT_FOR_DIALOG_INTERACTION
  2: 0x01F9 [0x00] END_REQSTACK()
```

### Event 65535.26

#### Metadata

| Field        | Value   |
|--------------|---------|
| Entrypoint   | 0x01FA  |
| Data Size    | 5 bytes |
| Instructions | 3       |

```
      00 01 02 03 04 05 06 07  08 09 0A 0B 0C 0D 0E 0F
      -- -- -- -- -- -- -- --  -- -- -- -- -- -- -- --
01F0:                                1D 1F 80 23 00               ...#. 
```

#### Opcodes

```
  0: 0x01FA [0x1D] PRINT_EVENT_MESSAGE(message_id=3723*)
    → "Handles nicely but the turning is a little rough..."
  1: 0x01FD [0x23] WAIT_FOR_DIALOG_INTERACTION
  2: 0x01FE [0x00] END_REQSTACK()
```

### Event 65535.27

#### Metadata

| Field        | Value   |
|--------------|---------|
| Entrypoint   | 0x01FF  |
| Data Size    | 5 bytes |
| Instructions | 3       |

```
      00 01 02 03 04 05 06 07  08 09 0A 0B 0C 0D 0E 0F
      -- -- -- -- -- -- -- --  -- -- -- -- -- -- -- --
01F0:                                               1D                 .
0200: 20 80 23 00                                        .#.            
```

#### Opcodes

```
  0: 0x01FF [0x1D] PRINT_EVENT_MESSAGE(message_id=3724*)
    → "Finally we have the $3. Mumbo-jumbo moogle-mambo!"
  1: 0x0202 [0x23] WAIT_FOR_DIALOG_INTERACTION
  2: 0x0203 [0x00] END_REQSTACK()
```

### Event 65535.28

#### Metadata

| Field        | Value    |
|--------------|----------|
| Entrypoint   | 0x0204   |
| Data Size    | 19 bytes |
| Instructions | 5        |

```
      00 01 02 03 04 05 06 07  08 09 0A 0B 0C 0D 0E 0F
      -- -- -- -- -- -- -- --  -- -- -- -- -- -- -- --
0200:             29 08 1A 00  0F 01 01 1D 21 80 23 29      ).......!.#)
0210: 08 1A 00 0F 01 02 00                              .......         
```

#### Opcodes

```
  0: 0x0204 [0x29] REQ_SET_WAIT(priority=0x08, entity_id=Shantotto (ID: 17760282/0x010F001A), tag_num=0x01)
  1: 0x020B [0x1D] PRINT_EVENT_MESSAGE(message_id=3729*)
    → "Don't blame me. No, oh, no! Such a weakling shouldn't be in the Mage Academy to begin with! Ohoho!"
  2: 0x020E [0x23] WAIT_FOR_DIALOG_INTERACTION
  3: 0x020F [0x29] REQ_SET_WAIT(priority=0x08, entity_id=Shantotto (ID: 17760282/0x010F001A), tag_num=0x02)
  4: 0x0216 [0x00] END_REQSTACK()
```

### Event 65535.29

#### Metadata

| Field        | Value    |
|--------------|----------|
| Entrypoint   | 0x0217   |
| Data Size    | 19 bytes |
| Instructions | 5        |

```
      00 01 02 03 04 05 06 07  08 09 0A 0B 0C 0D 0E 0F
      -- -- -- -- -- -- -- --  -- -- -- -- -- -- -- --
0210:                      29  08 1A 00 0F 01 0C 1D 22         )......."
0220: 80 23 29 08 1A 00 0F 01  0D 00                    .#).......      
```

#### Opcodes

```
  0: 0x0217 [0x29] REQ_SET_WAIT(priority=0x08, entity_id=Shantotto (ID: 17760282/0x010F001A), tag_num=0x0C)
  1: 0x021E [0x1D] PRINT_EVENT_MESSAGE(message_id=3731*)
    → "Ohoho! Well, I was holding back, you know."
  2: 0x0221 [0x23] WAIT_FOR_DIALOG_INTERACTION
  3: 0x0222 [0x29] REQ_SET_WAIT(priority=0x08, entity_id=Shantotto (ID: 17760282/0x010F001A), tag_num=0x0D)
  4: 0x0229 [0x00] END_REQSTACK()
```

### Event 65535.30

#### Metadata

| Field        | Value    |
|--------------|----------|
| Entrypoint   | 0x022A   |
| Data Size    | 19 bytes |
| Instructions | 5        |

```
      00 01 02 03 04 05 06 07  08 09 0A 0B 0C 0D 0E 0F
      -- -- -- -- -- -- -- --  -- -- -- -- -- -- -- --
0220:                                29 08 1A 00 0F 01            ).....
0230: 08 1D 23 80 23 29 08 1A  00 0F 01 09 00           ..#.#).......   
```

#### Opcodes

```
  0: 0x022A [0x29] REQ_SET_WAIT(priority=0x08, entity_id=Shantotto (ID: 17760282/0x010F001A), tag_num=0x08)
  1: 0x0231 [0x1D] PRINT_EVENT_MESSAGE(message_id=3734*)
    → "Here, I'll give you this, my friend... It should provide you hours of fun on your weekend. Ohohoho`!"
  2: 0x0234 [0x23] WAIT_FOR_DIALOG_INTERACTION
  3: 0x0235 [0x29] REQ_SET_WAIT(priority=0x08, entity_id=Shantotto (ID: 17760282/0x010F001A), tag_num=0x09)
  4: 0x023C [0x00] END_REQSTACK()
```
