# 17760351 - Odilia

## Common Data

| Field            | Value                   |
|------------------|-------------------------|
| Zone             | Port Windurst (ID: 240) |
| Block Size       | 276 bytes               |
| Total Events     | 11                      |
| References Count | 8                       |

## List of Events

| Event ID                 | Entrypoint   |   Size |   Instructions |
|--------------------------|--------------|--------|----------------|
| [65535](#event-65535)    | 0x0000       |      1 |              1 |
| [65535.1](#event-655351) | 0x0001       |     16 |              2 |
| [65535.2](#event-655352) | 0x0011       |      9 |              3 |
| [289](#event-289)        | 0x001A       |     29 |             10 |
| [290](#event-290)        | 0x0037       |     29 |             10 |
| [291](#event-291)        | 0x0054       |      1 |              1 |
| [65535.3](#event-655353) | 0x0055       |     19 |              5 |
| [294](#event-294)        | 0x0068       |     29 |             10 |
| [297](#event-297)        | 0x0085       |     29 |             10 |
| [298](#event-298)        | 0x00A2       |      1 |              1 |
| [65535.4](#event-655354) | 0x00A3       |     19 |              5 |

## DAT References (imed_data)

|   Index | Hex Value   |   Dec Value |
|---------|-------------|-------------|
|       0 | 0x0050      |          80 |
|       1 | 0x001E      |          30 |
|       2 | 0x0EEB      |        3819 |
|       3 | 0x0EEC      |        3820 |
|       4 | 0x0EEF      |        3823 |
|       5 | 0x0EF4      |        3828 |
|       6 | 0x0EF9      |        3833 |
|       7 | 0x0EFC      |        3836 |

## String References

- **3819**: My mommy told us not to speak to strangers...and you sure are stranger than most!
- **3820**: Paytah, you dummy! Didn't mommy tell you not to speak with strangers? Don't come crying to me if you get in trouble!
- **3823**: You deserve whatever you get, you little crybaby! Daddy might not be able to set sail without that hat!
- **3828**: Oh, no! Daddy's cap is all torn up! Paytah's gonna get a real hiding!
- **3833**: Eww, Paytah! Your nose is running! You dirty little goober!
- **3836**: Don't you go taking something that doesn't belong to you! I'll tell mommy on you, and mommy will get real angry!

## Events

### Event 65535

#### Metadata

| Field        | Value   |
|--------------|---------|
| Entrypoint   | 0x0000  |
| Data Size    | 1 bytes |
| Instructions | 1       |

```
      00 01 02 03 04 05 06 07  08 09 0A 0B 0C 0D 0E 0F
      -- -- -- -- -- -- -- --  -- -- -- -- -- -- -- --
0000: 00                                                .               
```

#### Opcodes

```
  0: 0x0000 [0x00] END_REQSTACK()
```

### Event 65535.1

#### Metadata

| Field        | Value    |
|--------------|----------|
| Entrypoint   | 0x0001   |
| Data Size    | 16 bytes |
| Instructions | 2        |

```
      00 01 02 03 04 05 06 07  08 09 0A 0B 0C 0D 0E 0F
      -- -- -- -- -- -- -- --  -- -- -- -- -- -- -- --
0000:    5B 00 80 F8 FF FF 7F  F8 FF FF 7F 74 6C 6B 30   [..........tlk0
0010: 00                                                .               
```

#### Opcodes

```
  0: 0x0001 [0x5B] LOAD_EXT_SCHEDULER: Load scheduler "tlk0" with entities [EventEntity, EventEntity], work=80*
  1: 0x0010 [0x00] END_REQSTACK()
```

### Event 65535.2

#### Metadata

| Field        | Value   |
|--------------|---------|
| Entrypoint   | 0x0011  |
| Data Size    | 9 bytes |
| Instructions | 3       |

```
      00 01 02 03 04 05 06 07  08 09 0A 0B 0C 0D 0E 0F
      -- -- -- -- -- -- -- --  -- -- -- -- -- -- -- --
0010:    5E 69 64 6C 30 1C 01  80 00                     ^idl0....      
```

#### Opcodes

```
  0: 0x0011 [0x5E] EventEntity goes idle (kills current action) (animation: "idl0")
  1: 0x0016 [0x1C] WAIT(30* ticks)
  2: 0x0019 [0x00] END_REQSTACK()
```

### Event 289

#### Metadata

| Field        | Value    |
|--------------|----------|
| Entrypoint   | 0x001A   |
| Data Size    | 29 bytes |
| Instructions | 10       |

```
      00 01 02 03 04 05 06 07  08 09 0A 0B 0C 0D 0E 0F
      -- -- -- -- -- -- -- --  -- -- -- -- -- -- -- --
0010:                                1E F0 FF FF 7F 6F            .....o
0020: 70 29 08 5F 00 0F 01 01  1D 02 80 23 29 08 5F 00  p)._.......#)._.
0030: 0F 01 02 20 00 21 00                              ... .!.         
```

#### Opcodes

```
  0: 0x001A [0x1E] EventEntity looks at LocalPlayer and starts talking
  1: 0x001F [0x6F] WAIT_FRAME_DELAY: Yield until WaitTime reaches zero
  2: 0x0020 [0x70] WAIT_ENTITY_RENDER_FLAG: Wait while EventEntity->Render.Flags3 bit 2 is set (cancel turn if not)
  3: 0x0021 [0x29] REQ_SET_WAIT(priority=0x08, entity_id=Odilia (ID: 17760351/0x010F005F), tag_num=0x01)
  4: 0x0028 [0x1D] PRINT_EVENT_MESSAGE(message_id=3819*)
    → "My mommy told us not to speak to strangers...and you sure are stranger than most!"
  5: 0x002B [0x23] WAIT_FOR_DIALOG_INTERACTION
  6: 0x002C [0x29] REQ_SET_WAIT(priority=0x08, entity_id=Odilia (ID: 17760351/0x010F005F), tag_num=0x02)
  7: 0x0033 [0x20] SET_CLI_EVENT_UC_FLAG: Unlock player control
  8: 0x0035 [0x21] END_EVENT
  9: 0x0036 [0x00] END_REQSTACK()
```

### Event 290

#### Metadata

| Field        | Value    |
|--------------|----------|
| Entrypoint   | 0x0037   |
| Data Size    | 29 bytes |
| Instructions | 10       |

```
      00 01 02 03 04 05 06 07  08 09 0A 0B 0C 0D 0E 0F
      -- -- -- -- -- -- -- --  -- -- -- -- -- -- -- --
0030:                      1E  F0 FF FF 7F 6F 70 29 08         .....op).
0040: 5F 00 0F 01 01 1D 03 80  23 29 08 5F 00 0F 01 02  _.......#)._....
0050: 20 00 21 00                                        .!.            
```

#### Opcodes

```
  0: 0x0037 [0x1E] EventEntity looks at LocalPlayer and starts talking
  1: 0x003C [0x6F] WAIT_FRAME_DELAY: Yield until WaitTime reaches zero
  2: 0x003D [0x70] WAIT_ENTITY_RENDER_FLAG: Wait while EventEntity->Render.Flags3 bit 2 is set (cancel turn if not)
  3: 0x003E [0x29] REQ_SET_WAIT(priority=0x08, entity_id=Odilia (ID: 17760351/0x010F005F), tag_num=0x01)
  4: 0x0045 [0x1D] PRINT_EVENT_MESSAGE(message_id=3820*)
    → "Paytah, you dummy! Didn't mommy tell you not to speak with strangers? Don't come crying to me if you get in trouble!"
  5: 0x0048 [0x23] WAIT_FOR_DIALOG_INTERACTION
  6: 0x0049 [0x29] REQ_SET_WAIT(priority=0x08, entity_id=Odilia (ID: 17760351/0x010F005F), tag_num=0x02)
  7: 0x0050 [0x20] SET_CLI_EVENT_UC_FLAG: Unlock player control
  8: 0x0052 [0x21] END_EVENT
  9: 0x0053 [0x00] END_REQSTACK()
```

### Event 291

#### Metadata

| Field        | Value   |
|--------------|---------|
| Entrypoint   | 0x0054  |
| Data Size    | 1 bytes |
| Instructions | 1       |

```
      00 01 02 03 04 05 06 07  08 09 0A 0B 0C 0D 0E 0F
      -- -- -- -- -- -- -- --  -- -- -- -- -- -- -- --
0050:             00                                        .           
```

#### Opcodes

```
  0: 0x0054 [0x00] END_REQSTACK()
```

### Event 65535.3

#### Metadata

| Field        | Value    |
|--------------|----------|
| Entrypoint   | 0x0055   |
| Data Size    | 19 bytes |
| Instructions | 5        |

```
      00 01 02 03 04 05 06 07  08 09 0A 0B 0C 0D 0E 0F
      -- -- -- -- -- -- -- --  -- -- -- -- -- -- -- --
0050:                29 08 5F  00 0F 01 01 1D 04 80 23       )._.......#
0060: 29 08 5F 00 0F 01 02 00                           )._.....        
```

#### Opcodes

```
  0: 0x0055 [0x29] REQ_SET_WAIT(priority=0x08, entity_id=Odilia (ID: 17760351/0x010F005F), tag_num=0x01)
  1: 0x005C [0x1D] PRINT_EVENT_MESSAGE(message_id=3823*)
    → "You deserve whatever you get, you little crybaby! Daddy might not be able to set sail without that hat!"
  2: 0x005F [0x23] WAIT_FOR_DIALOG_INTERACTION
  3: 0x0060 [0x29] REQ_SET_WAIT(priority=0x08, entity_id=Odilia (ID: 17760351/0x010F005F), tag_num=0x02)
  4: 0x0067 [0x00] END_REQSTACK()
```

### Event 294

#### Metadata

| Field        | Value    |
|--------------|----------|
| Entrypoint   | 0x0068   |
| Data Size    | 29 bytes |
| Instructions | 10       |

```
      00 01 02 03 04 05 06 07  08 09 0A 0B 0C 0D 0E 0F
      -- -- -- -- -- -- -- --  -- -- -- -- -- -- -- --
0060:                          1E F0 FF FF 7F 6F 70 29          .....op)
0070: 08 5F 00 0F 01 01 1D 05  80 23 29 08 5F 00 0F 01  ._.......#)._...
0080: 02 20 00 21 00                                    . .!.           
```

#### Opcodes

```
  0: 0x0068 [0x1E] EventEntity looks at LocalPlayer and starts talking
  1: 0x006D [0x6F] WAIT_FRAME_DELAY: Yield until WaitTime reaches zero
  2: 0x006E [0x70] WAIT_ENTITY_RENDER_FLAG: Wait while EventEntity->Render.Flags3 bit 2 is set (cancel turn if not)
  3: 0x006F [0x29] REQ_SET_WAIT(priority=0x08, entity_id=Odilia (ID: 17760351/0x010F005F), tag_num=0x01)
  4: 0x0076 [0x1D] PRINT_EVENT_MESSAGE(message_id=3828*)
    → "Oh, no! Daddy's cap is all torn up! Paytah's gonna get a real hiding!"
  5: 0x0079 [0x23] WAIT_FOR_DIALOG_INTERACTION
  6: 0x007A [0x29] REQ_SET_WAIT(priority=0x08, entity_id=Odilia (ID: 17760351/0x010F005F), tag_num=0x02)
  7: 0x0081 [0x20] SET_CLI_EVENT_UC_FLAG: Unlock player control
  8: 0x0083 [0x21] END_EVENT
  9: 0x0084 [0x00] END_REQSTACK()
```

### Event 297

#### Metadata

| Field        | Value    |
|--------------|----------|
| Entrypoint   | 0x0085   |
| Data Size    | 29 bytes |
| Instructions | 10       |

```
      00 01 02 03 04 05 06 07  08 09 0A 0B 0C 0D 0E 0F
      -- -- -- -- -- -- -- --  -- -- -- -- -- -- -- --
0080:                1E F0 FF  FF 7F 6F 70 29 08 5F 00       .....op)._.
0090: 0F 01 01 1D 06 80 23 29  08 5F 00 0F 01 02 20 00  ......#)._.... .
00A0: 21 00                                             !.              
```

#### Opcodes

```
  0: 0x0085 [0x1E] EventEntity looks at LocalPlayer and starts talking
  1: 0x008A [0x6F] WAIT_FRAME_DELAY: Yield until WaitTime reaches zero
  2: 0x008B [0x70] WAIT_ENTITY_RENDER_FLAG: Wait while EventEntity->Render.Flags3 bit 2 is set (cancel turn if not)
  3: 0x008C [0x29] REQ_SET_WAIT(priority=0x08, entity_id=Odilia (ID: 17760351/0x010F005F), tag_num=0x01)
  4: 0x0093 [0x1D] PRINT_EVENT_MESSAGE(message_id=3833*)
    → "Eww, Paytah! Your nose is running! You dirty little goober!"
  5: 0x0096 [0x23] WAIT_FOR_DIALOG_INTERACTION
  6: 0x0097 [0x29] REQ_SET_WAIT(priority=0x08, entity_id=Odilia (ID: 17760351/0x010F005F), tag_num=0x02)
  7: 0x009E [0x20] SET_CLI_EVENT_UC_FLAG: Unlock player control
  8: 0x00A0 [0x21] END_EVENT
  9: 0x00A1 [0x00] END_REQSTACK()
```

### Event 298

#### Metadata

| Field        | Value   |
|--------------|---------|
| Entrypoint   | 0x00A2  |
| Data Size    | 1 bytes |
| Instructions | 1       |

```
      00 01 02 03 04 05 06 07  08 09 0A 0B 0C 0D 0E 0F
      -- -- -- -- -- -- -- --  -- -- -- -- -- -- -- --
00A0:       00                                            .             
```

#### Opcodes

```
  0: 0x00A2 [0x00] END_REQSTACK()
```

### Event 65535.4

#### Metadata

| Field        | Value    |
|--------------|----------|
| Entrypoint   | 0x00A3   |
| Data Size    | 19 bytes |
| Instructions | 5        |

```
      00 01 02 03 04 05 06 07  08 09 0A 0B 0C 0D 0E 0F
      -- -- -- -- -- -- -- --  -- -- -- -- -- -- -- --
00A0:          29 08 5F 00 0F  01 01 1D 07 80 23 29 08     )._.......#).
00B0: 5F 00 0F 01 02 00                                 _.....          
```

#### Opcodes

```
  0: 0x00A3 [0x29] REQ_SET_WAIT(priority=0x08, entity_id=Odilia (ID: 17760351/0x010F005F), tag_num=0x01)
  1: 0x00AA [0x1D] PRINT_EVENT_MESSAGE(message_id=3836*)
    → "Don't you go taking something that doesn't belong to you! I'll tell mommy on you, and mommy will get real angry!"
  2: 0x00AD [0x23] WAIT_FOR_DIALOG_INTERACTION
  3: 0x00AE [0x29] REQ_SET_WAIT(priority=0x08, entity_id=Odilia (ID: 17760351/0x010F005F), tag_num=0x02)
  4: 0x00B5 [0x00] END_REQSTACK()
```
