# 17760286 - Rachuchu

## Common Data

| Field            | Value                   |
|------------------|-------------------------|
| Zone             | Port Windurst (ID: 240) |
| Block Size       | 112 bytes               |
| Total Events     | 4                       |
| References Count | 3                       |

## List of Events

| Event ID                 | Entrypoint   |   Size |   Instructions |
|--------------------------|--------------|--------|----------------|
| [65535](#event-65535)    | 0x0000       |      1 |              1 |
| [65535.1](#event-655351) | 0x0001       |     29 |              4 |
| [65535.2](#event-655352) | 0x001E       |     10 |              3 |
| [234](#event-234)        | 0x0028       |     26 |              9 |

## DAT References (imed_data)

|   Index | Hex Value   |   Dec Value |
|---------|-------------|-------------|
|       0 | 0x066B      |        1643 |
|       1 | 0x0E50      |        3664 |
|       2 | 0x0E51      |        3665 |

## String References

- **3664**: Shut ya mouth and leave me alone!
- **3665**: I'm having enough trouble fighting off me own lazy tendencies as it is! High-yah!

## Events

### Event 65535

#### Metadata

| Field        | Value   |
|--------------|---------|
| Entrypoint   | 0x0000  |
| Data Size    | 1 bytes |
| Instructions | 1       |

```
      00 01 02 03 04 05 06 07  08 09 0A 0B 0C 0D 0E 0F
      -- -- -- -- -- -- -- --  -- -- -- -- -- -- -- --
0000: 00                                                .               
```

#### Opcodes

```
  0: 0x0000 [0x00] END_REQSTACK()
```

### Event 65535.1

#### Metadata

| Field        | Value    |
|--------------|----------|
| Entrypoint   | 0x0001   |
| Data Size    | 29 bytes |
| Instructions | 4        |

```
      00 01 02 03 04 05 06 07  08 09 0A 0B 0C 0D 0E 0F
      -- -- -- -- -- -- -- --  -- -- -- -- -- -- -- --
0000:    5F 01 50 F8 FF FF 7F  F8 FF FF 7F 63 61 77 68   _.P........cawh
0010: 50 F8 FF FF 7F F8 FF FF  7F 73 68 77 68 00        P........shwh.  
```

#### Opcodes

```
  0: 0x0001 [0x5F] MULTI_HANDLER_COMPLEX(mode=0x01 - Toggle Render.Flags0 bit 29)
  1: 0x0003 [0x50] END_SCHEDULER_TASK: End scheduler "ca" with entities [0xFFF8, 0xFFF8], work=[32767, 32767]
  2: 0x0010 [0x50] END_SCHEDULER_TASK: End scheduler "sh" with entities [0xFFF8, 0xFFF8], work=[32767, 32767]
  3: 0x001D [0x00] END_REQSTACK()
```

### Event 65535.2

#### Metadata

| Field        | Value    |
|--------------|----------|
| Entrypoint   | 0x001E   |
| Data Size    | 10 bytes |
| Instructions | 3        |

```
      00 01 02 03 04 05 06 07  08 09 0A 0B 0C 0D 0E 0F
      -- -- -- -- -- -- -- --  -- -- -- -- -- -- -- --
0010:                                            5F 00                _.
0020: 4B 1E 00 0F 01 00 80 00                           K.......        
```

#### Opcodes

```
  0: 0x001E [0x5F] MULTI_HANDLER_COMPLEX(mode=0x00 - Toggle Render.Flags0 bit 29)
  1: 0x0020 [0x4B] UPDATE_ENTITY_YAW(entity=Rachuchu (ID: 17760286/0x010F001E), yaw=9.0°*)
  2: 0x0027 [0x00] END_REQSTACK()
```

### Event 234

#### Metadata

| Field        | Value    |
|--------------|----------|
| Entrypoint   | 0x0028   |
| Data Size    | 26 bytes |
| Instructions | 9        |

```
      00 01 02 03 04 05 06 07  08 09 0A 0B 0C 0D 0E 0F
      -- -- -- -- -- -- -- --  -- -- -- -- -- -- -- --
0020:                          29 08 1E 00 0F 01 01 1D          ).......
0030: 01 80 23 1D 02 80 23 29  08 1E 00 0F 01 02 20 00  ..#...#)...... .
0040: 21 00                                             !.              
```

#### Opcodes

```
  0: 0x0028 [0x29] REQ_SET_WAIT(priority=0x08, entity_id=Rachuchu (ID: 17760286/0x010F001E), tag_num=0x01)
  1: 0x002F [0x1D] PRINT_EVENT_MESSAGE(message_id=3664*)
    → "Shut ya mouth and leave me alone!"
  2: 0x0032 [0x23] WAIT_FOR_DIALOG_INTERACTION
  3: 0x0033 [0x1D] PRINT_EVENT_MESSAGE(message_id=3665*)
    → "I'm having enough trouble fighting off me own lazy tendencies as it is! High-yah!"
  4: 0x0036 [0x23] WAIT_FOR_DIALOG_INTERACTION
  5: 0x0037 [0x29] REQ_SET_WAIT(priority=0x08, entity_id=Rachuchu (ID: 17760286/0x010F001E), tag_num=0x02)
  6: 0x003E [0x20] SET_CLI_EVENT_UC_FLAG: Unlock player control
  7: 0x0040 [0x21] END_EVENT
  8: 0x0041 [0x00] END_REQSTACK()
```
