# 17760297 - Melek

## Common Data

| Field            | Value                   |
|------------------|-------------------------|
| Zone             | Port Windurst (ID: 240) |
| Block Size       | 2940 bytes              |
| Total Events     | 39                      |
| References Count | 53                      |

## List of Events

| Event ID                   | Entrypoint   |   Size |   Instructions |
|----------------------------|--------------|--------|----------------|
| [65535](#event-65535)      | 0x0000       |      1 |              1 |
| [65535.1](#event-655351)   | 0x0001       |     16 |              2 |
| [65535.2](#event-655352)   | 0x0011       |     22 |              4 |
| [65535.3](#event-655353)   | 0x0027       |     29 |              3 |
| [65535.4](#event-655354)   | 0x0044       |     16 |              2 |
| [65535.5](#event-655355)   | 0x0054       |     14 |              2 |
| [65535.6](#event-655356)   | 0x0062       |     16 |              2 |
| [65535.7](#event-655357)   | 0x0072       |     14 |              2 |
| [65535.8](#event-655358)   | 0x0080       |      9 |              3 |
| [41](#event-41)            | 0x0089       |     33 |             12 |
| [42](#event-42)            | 0x00AA       |     33 |             12 |
| [48](#event-48)            | 0x00CB       |    490 |             62 |
| [65535.9](#event-655359)   | 0x02B5       |     51 |             11 |
| [65535.10](#event-6553510) | 0x02E8       |      5 |              3 |
| [65535.11](#event-6553511) | 0x02ED       |     23 |              7 |
| [65535.12](#event-6553512) | 0x0304       |     23 |              7 |
| [65535.13](#event-6553513) | 0x031B       |     19 |              5 |
| [65535.14](#event-6553514) | 0x032E       |     23 |              7 |
| [65535.15](#event-6553515) | 0x0345       |     19 |              5 |
| [49](#event-49)            | 0x0358       |     29 |             10 |
| [53](#event-53)            | 0x0375       |    228 |             32 |
| [55](#event-55)            | 0x0459       |    286 |             44 |
| [65535.16](#event-6553516) | 0x0577       |     23 |              7 |
| [65535.17](#event-6553517) | 0x058E       |     23 |              7 |
| [65535.18](#event-6553518) | 0x05A5       |     23 |              7 |
| [56](#event-56)            | 0x05BC       |     33 |             12 |
| [61](#event-61)            | 0x05DD       |    396 |             54 |
| [65535.19](#event-6553519) | 0x0769       |     23 |              7 |
| [65535.20](#event-6553520) | 0x0780       |      5 |              3 |
| [65535.21](#event-6553521) | 0x0785       |     37 |              9 |
| [65535.22](#event-6553522) | 0x07AA       |     23 |              7 |
| [65535.23](#event-6553523) | 0x07C1       |     19 |              5 |
| [64](#event-64)            | 0x07D4       |     29 |             10 |
| [66](#event-66)            | 0x07F1       |    421 |             58 |
| [65535.24](#event-6553524) | 0x0996       |     19 |              5 |
| [65535.25](#event-6553525) | 0x09A9       |     26 |              6 |
| [65535.26](#event-6553526) | 0x09C3       |     19 |              5 |
| [65535.27](#event-6553527) | 0x09D6       |      5 |              3 |
| [67](#event-67)            | 0x09DB       |     33 |             12 |

## DAT References (imed_data)

|   Index | Hex Value   |   Dec Value |
|---------|-------------|-------------|
|       0 | 0x0000      |           0 |
|       1 | 0x001E      |          30 |
|       2 | 0x0C8B      |        3211 |
|       3 | 0x0C8C      |        3212 |
|       4 | 0x0C8D      |        3213 |
|       5 | 0x0C8E      |        3214 |
|       6 | 0x00C8      |         200 |
|       7 | 0x019A      |         410 |
|       8 | 0x0003      |           3 |
|       9 | 0x009A      |         154 |
|      10 | 0x007F      |         127 |
|      11 | 0x0001      |           1 |
|      12 | 0x0078      |         120 |
|      13 | 0x008C      |         140 |
|      14 | 0x0008      |           8 |
|      15 | 0x0097      |         151 |
|      16 | 0x0C99      |        3225 |
|      17 | 0x0C9A      |        3226 |
|      18 | 0x0C9B      |        3227 |
|      19 | 0x0CA0      |        3232 |
|      20 | 0x0CA1      |        3233 |
|      21 | 0x0CA2      |        3234 |
|      22 | 0x0CA3      |        3235 |
|      23 | 0x0CA4      |        3236 |
|      24 | 0x0CA7      |        3239 |
|      25 | 0x0CA8      |        3240 |
|      26 | 0x0CA9      |        3241 |
|      27 | 0x0CAA      |        3242 |
|      28 | 0x003C      |          60 |
|      29 | 0x00C9      |         201 |
|      30 | 0x0CB3      |        3251 |
|      31 | 0x0CB4      |        3252 |
|      32 | 0x0CB5      |        3253 |
|      33 | 0x0CB6      |        3254 |
|      34 | 0x0CB7      |        3255 |
|      35 | 0x0CB8      |        3256 |
|      36 | 0x0CB9      |        3257 |
|      37 | 0x0CBA      |        3258 |
|      38 | 0x0CC3      |        3267 |
|      39 | 0x0CC4      |        3268 |
|      40 | 0x0CC5      |        3269 |
|      41 | 0x0CCA      |        3274 |
|      42 | 0x0CCB      |        3275 |
|      43 | 0x0CCC      |        3276 |
|      44 | 0x0CCD      |        3277 |
|      45 | 0x0CCE      |        3278 |
|      46 | 0x0CD2      |        3282 |
|      47 | 0x0CD5      |        3285 |
|      48 | 0x0CD6      |        3286 |
|      49 | 0x0CD7      |        3287 |
|      50 | 0x0CD8      |        3288 |
|      51 | 0x0CD9      |        3289 |
|      52 | 0x0CDA      |        3290 |

## String References

- **3211**: I am Melek, the consul of Bastok.
- **3212**: Do you know of the Republic of Bastok? It is a land far across the seas to the west of Windurst, with a rich mining town as its capital.
- **3213**: Windurst, Bastok and San d'Oria fought together in the Great War of twenty years ago and formed a friendly alliance with Jeuno at its head.
- **3214**: That is why each country has consulates set up in each other's capitals.
- **3225**: I am Melek, the consul of Bastok. I trust you had a safe sail here?
- **3226**: So, you are <Player>...the one who accepted the cooperative mission to Windurst, I see?
- **3227**: Well then, Gold Skull, why don't you start by informing our fair citizen here about what the mission involves?
- **3232**: You look perplexed. Yes, well, I guess if you put it frankly, you are carrying a tribute to a pack of beastmen.
- **3233**: You see...in order to maintain the peace of their country, the Windurstians have formed amicable relations with the Yagudo.
- **3234**: But, as you've probably realized, it's hard to call their relationship amicable when you witness the outrageous behavior of the Yagudo.
- **3235**: So we have to try to curtail the beastmen's military potential without losing the trust of Windurst.
- **3236**: That's where your real purpose comes in. Gold Skull, please explain the rest of the mission...
- **3239**: Do you understand your orders? Of course, the fact that we are switching weapons is to remain top secret.
- **3240**: We are forbidden from meddling in the internal affairs of another country. However, we wish to save Windurst from its dangerous predicament.
- **3241**: Well, you had better get going. I pray that your mission is a success.
- **3242**: Ask Gold Skull for further explanation if you need clarification. I pray that your mission is a success.
- **3251**: Welcome back. Your mission went without incident, I trust?
- **3252**: We've sent the real magic weapons like the one you brought us, back to our homeland. They'll come in useful for expelling the Quadav from around Bastok.
- **3253**: Well, I presume you have to proceed to the Consulate of Bastok in San d'Oria next.
- **3254**: It is another long journey to reach San d'Oria. You have to travel from Mhaura to Selbina by boat first, then follow the land route north for quite a way.
- **3255**: Don't overdo yourself. Rest up a little before you head to your destination, San d'Oria.
- **3256**: I hope to see you safe and well again someday. Take care, <Player>.
- **3257**: To overdo yourself is to work beyond your natural abilities.
- **3258**: Carrying on in such a way will not enable you to give good results. Sometimes you simply need to be kind to yourself.
- **3267**: I am Melek, the consul of Bastok. I trust you had a safe sail here?
- **3268**: So, you are <Player>...? I heard about your activities in San d'Oria and am expecting great things from you here too.
- **3269**: Well then, we should get straight to the matter at hand. Gold Skull, why don't you start by informing our fair citizen here about what the mission involves?
- **3274**: You look perplexed. Yes, well, I guess if you put it frankly, you are protecting a pack of Yagudo beastmen from a ferocious monster.
- **3275**: You see...in order to maintain the peace of their country, the Windurstians have formed amicable relations with the Yagudo.
- **3276**: But, as you've probably realized, it's hard to call their relationship amicable when you witness the outrageous behavior of the Yagudo.
- **3277**: But, in order to maintain the trust of Windurst, we have to participate in this preposterousness.
- **3278**: Well, good luck with your mission. I look forward to hearing of your success.
- **3282**: Ask Gold Skull for further explanation if you need clarification. I pray that your mission is a success.
- **3285**: ...! The Shadow Lord...!?
- **3286**: Wait a moment... I'll need you to rush back to the homeland.
- **3287**: Here... You understand what you must do? Take this report to the President's Office in Bastok.
- **3288**: On your way. Please hurry to Bastok!
- **3289**: Deliver that report to the President's Office in Bastok.
- **3290**: Be on your way then... Please hurry back to the homeland!

## Events

### Event 65535

#### Metadata

| Field        | Value   |
|--------------|---------|
| Entrypoint   | 0x0000  |
| Data Size    | 1 bytes |
| Instructions | 1       |

```
      00 01 02 03 04 05 06 07  08 09 0A 0B 0C 0D 0E 0F
      -- -- -- -- -- -- -- --  -- -- -- -- -- -- -- --
0000: 00                                                .               
```

#### Opcodes

```
  0: 0x0000 [0x00] END_REQSTACK()
```

### Event 65535.1

#### Metadata

| Field        | Value    |
|--------------|----------|
| Entrypoint   | 0x0001   |
| Data Size    | 16 bytes |
| Instructions | 2        |

```
      00 01 02 03 04 05 06 07  08 09 0A 0B 0C 0D 0E 0F
      -- -- -- -- -- -- -- --  -- -- -- -- -- -- -- --
0000:    5B 00 80 F8 FF FF 7F  F8 FF FF 7F 74 6C 6B 30   [..........tlk0
0010: 00                                                .               
```

#### Opcodes

```
  0: 0x0001 [0x5B] LOAD_EXT_SCHEDULER: Load scheduler "tlk0" with entities [EventEntity, EventEntity], work=0*
  1: 0x0010 [0x00] END_REQSTACK()
```

### Event 65535.2

#### Metadata

| Field        | Value    |
|--------------|----------|
| Entrypoint   | 0x0011   |
| Data Size    | 22 bytes |
| Instructions | 4        |

```
      00 01 02 03 04 05 06 07  08 09 0A 0B 0C 0D 0E 0F
      -- -- -- -- -- -- -- --  -- -- -- -- -- -- -- --
0010:    53 F8 FF FF 7F F8 FF  FF 7F 74 6C 6B 30 5E 69   S........tlk0^i
0020: 64 6C 30 1C 01 80 00                              dl0....         
```

#### Opcodes

```
  0: 0x0011 [0x53] WAIT_SCHEDULER_TASK: Wait for scheduler "tlk0" with entities [EventEntity, EventEntity]
  1: 0x001E [0x5E] EventEntity goes idle (kills current action) (animation: "idl0")
  2: 0x0023 [0x1C] WAIT(30* ticks)
  3: 0x0026 [0x00] END_REQSTACK()
```

### Event 65535.3

#### Metadata

| Field        | Value    |
|--------------|----------|
| Entrypoint   | 0x0027   |
| Data Size    | 29 bytes |
| Instructions | 3        |

```
      00 01 02 03 04 05 06 07  08 09 0A 0B 0C 0D 0E 0F
      -- -- -- -- -- -- -- --  -- -- -- -- -- -- -- --
0020:                      5B  00 80 F8 FF FF 7F F8 FF         [........
0030: FF 7F 74 6C 6B 31 53 F8  FF FF 7F F8 FF FF 7F 74  ..tlk1S........t
0040: 6C 6B 31 00                                       lk1.            
```

#### Opcodes

```
  0: 0x0027 [0x5B] LOAD_EXT_SCHEDULER: Load scheduler "tlk1" with entities [EventEntity, EventEntity], work=0*
  1: 0x0036 [0x53] WAIT_SCHEDULER_TASK: Wait for scheduler "tlk1" with entities [EventEntity, EventEntity]
  2: 0x0043 [0x00] END_REQSTACK()
```

### Event 65535.4

#### Metadata

| Field        | Value    |
|--------------|----------|
| Entrypoint   | 0x0044   |
| Data Size    | 16 bytes |
| Instructions | 2        |

```
      00 01 02 03 04 05 06 07  08 09 0A 0B 0C 0D 0E 0F
      -- -- -- -- -- -- -- --  -- -- -- -- -- -- -- --
0040:             5B 00 80 F8  FF FF 7F F8 FF FF 7F 74      [..........t
0050: 68 6B 31 00                                       hk1.            
```

#### Opcodes

```
  0: 0x0044 [0x5B] LOAD_EXT_SCHEDULER: Load scheduler "thk1" with entities [EventEntity, EventEntity], work=0*
  1: 0x0053 [0x00] END_REQSTACK()
```

### Event 65535.5

#### Metadata

| Field        | Value    |
|--------------|----------|
| Entrypoint   | 0x0054   |
| Data Size    | 14 bytes |
| Instructions | 2        |

```
      00 01 02 03 04 05 06 07  08 09 0A 0B 0C 0D 0E 0F
      -- -- -- -- -- -- -- --  -- -- -- -- -- -- -- --
0050:             53 F8 FF FF  7F F8 FF FF 7F 74 68 6B      S........thk
0060: 31 00                                             1.              
```

#### Opcodes

```
  0: 0x0054 [0x53] WAIT_SCHEDULER_TASK: Wait for scheduler "thk1" with entities [EventEntity, EventEntity]
  1: 0x0061 [0x00] END_REQSTACK()
```

### Event 65535.6

#### Metadata

| Field        | Value    |
|--------------|----------|
| Entrypoint   | 0x0062   |
| Data Size    | 16 bytes |
| Instructions | 2        |

```
      00 01 02 03 04 05 06 07  08 09 0A 0B 0C 0D 0E 0F
      -- -- -- -- -- -- -- --  -- -- -- -- -- -- -- --
0060:       5B 00 80 F8 FF FF  7F F8 FF FF 7F 74 68 6B    [..........thk
0070: 32 00                                             2.              
```

#### Opcodes

```
  0: 0x0062 [0x5B] LOAD_EXT_SCHEDULER: Load scheduler "thk2" with entities [EventEntity, EventEntity], work=0*
  1: 0x0071 [0x00] END_REQSTACK()
```

### Event 65535.7

#### Metadata

| Field        | Value    |
|--------------|----------|
| Entrypoint   | 0x0072   |
| Data Size    | 14 bytes |
| Instructions | 2        |

```
      00 01 02 03 04 05 06 07  08 09 0A 0B 0C 0D 0E 0F
      -- -- -- -- -- -- -- --  -- -- -- -- -- -- -- --
0070:       53 F8 FF FF 7F F8  FF FF 7F 74 68 6B 32 00    S........thk2.
```

#### Opcodes

```
  0: 0x0072 [0x53] WAIT_SCHEDULER_TASK: Wait for scheduler "thk2" with entities [EventEntity, EventEntity]
  1: 0x007F [0x00] END_REQSTACK()
```

### Event 65535.8

#### Metadata

| Field        | Value   |
|--------------|---------|
| Entrypoint   | 0x0080  |
| Data Size    | 9 bytes |
| Instructions | 3       |

```
      00 01 02 03 04 05 06 07  08 09 0A 0B 0C 0D 0E 0F
      -- -- -- -- -- -- -- --  -- -- -- -- -- -- -- --
0080: 5E 69 64 6C 30 1C 01 80  00                       ^idl0....       
```

#### Opcodes

```
  0: 0x0080 [0x5E] EventEntity goes idle (kills current action) (animation: "idl0")
  1: 0x0085 [0x1C] WAIT(30* ticks)
  2: 0x0088 [0x00] END_REQSTACK()
```

### Event 41

#### Metadata

| Field        | Value    |
|--------------|----------|
| Entrypoint   | 0x0089   |
| Data Size    | 33 bytes |
| Instructions | 12       |

```
      00 01 02 03 04 05 06 07  08 09 0A 0B 0C 0D 0E 0F
      -- -- -- -- -- -- -- --  -- -- -- -- -- -- -- --
0080:                             1E F0 FF FF 7F 6F 70           .....op
0090: 29 08 29 00 0F 01 01 1D  02 80 23 1D 03 80 23 29  ).).......#...#)
00A0: 08 29 00 0F 01 08 20 00  21 00                    .).... .!.      
```

#### Opcodes

```
  0: 0x0089 [0x1E] EventEntity looks at LocalPlayer and starts talking
  1: 0x008E [0x6F] WAIT_FRAME_DELAY: Yield until WaitTime reaches zero
  2: 0x008F [0x70] WAIT_ENTITY_RENDER_FLAG: Wait while EventEntity->Render.Flags3 bit 2 is set (cancel turn if not)
  3: 0x0090 [0x29] REQ_SET_WAIT(priority=0x08, entity_id=Melek (ID: 17760297/0x010F0029), tag_num=0x01)
  4: 0x0097 [0x1D] PRINT_EVENT_MESSAGE(message_id=3211*)
    → "I am Melek, the consul of Bastok."
  5: 0x009A [0x23] WAIT_FOR_DIALOG_INTERACTION
  6: 0x009B [0x1D] PRINT_EVENT_MESSAGE(message_id=3212*)
    → "Do you know of the Republic of Bastok? It is a land far across the seas to the west of Windurst, with a rich mining town as its capital."
  7: 0x009E [0x23] WAIT_FOR_DIALOG_INTERACTION
  8: 0x009F [0x29] REQ_SET_WAIT(priority=0x08, entity_id=Melek (ID: 17760297/0x010F0029), tag_num=0x08)
  9: 0x00A6 [0x20] SET_CLI_EVENT_UC_FLAG: Unlock player control
 10: 0x00A8 [0x21] END_EVENT
 11: 0x00A9 [0x00] END_REQSTACK()
```

### Event 42

#### Metadata

| Field        | Value    |
|--------------|----------|
| Entrypoint   | 0x00AA   |
| Data Size    | 33 bytes |
| Instructions | 12       |

```
      00 01 02 03 04 05 06 07  08 09 0A 0B 0C 0D 0E 0F
      -- -- -- -- -- -- -- --  -- -- -- -- -- -- -- --
00A0:                                1E F0 FF FF 7F 6F            .....o
00B0: 70 29 08 29 00 0F 01 01  1D 04 80 23 1D 05 80 23  p).).......#...#
00C0: 29 08 29 00 0F 01 08 20  00 21 00                 ).).... .!.     
```

#### Opcodes

```
  0: 0x00AA [0x1E] EventEntity looks at LocalPlayer and starts talking
  1: 0x00AF [0x6F] WAIT_FRAME_DELAY: Yield until WaitTime reaches zero
  2: 0x00B0 [0x70] WAIT_ENTITY_RENDER_FLAG: Wait while EventEntity->Render.Flags3 bit 2 is set (cancel turn if not)
  3: 0x00B1 [0x29] REQ_SET_WAIT(priority=0x08, entity_id=Melek (ID: 17760297/0x010F0029), tag_num=0x01)
  4: 0x00B8 [0x1D] PRINT_EVENT_MESSAGE(message_id=3213*)
    → "Windurst, Bastok and San d'Oria fought together in the Great War of twenty years ago and formed a friendly alliance with Jeuno at its head."
  5: 0x00BB [0x23] WAIT_FOR_DIALOG_INTERACTION
  6: 0x00BC [0x1D] PRINT_EVENT_MESSAGE(message_id=3214*)
    → "That is why each country has consulates set up in each other's capitals."
  7: 0x00BF [0x23] WAIT_FOR_DIALOG_INTERACTION
  8: 0x00C0 [0x29] REQ_SET_WAIT(priority=0x08, entity_id=Melek (ID: 17760297/0x010F0029), tag_num=0x08)
  9: 0x00C7 [0x20] SET_CLI_EVENT_UC_FLAG: Unlock player control
 10: 0x00C9 [0x21] END_EVENT
 11: 0x00CA [0x00] END_REQSTACK()
```

### Event 48

#### Metadata

| Field        | Value     |
|--------------|-----------|
| Entrypoint   | 0x00CB    |
| Data Size    | 490 bytes |
| Instructions | 62        |

```
      00 01 02 03 04 05 06 07  08 09 0A 0B 0C 0D 0E 0F
      -- -- -- -- -- -- -- --  -- -- -- -- -- -- -- --
00C0:                                   46 01 42 5D 00             F.B].
00D0: 80 06 80 45 06 80 F0 FF  FF 7F F0 FF FF 7F 66 64  ...E..........fd
00E0: 6F 31 00 80 1C 06 80 75  00 07 80 75 01 38 08 80  o1.....u...u.8..
00F0: 29 08 F0 FF FF 7F 0A 29  0B F0 FF FF 7F 31 4A F0  )......).....1J.
0100: FF FF 7F 29 00 0F 01 1E  F0 FF FF 7F 6F 70 5C 00  ...)........op\.
0110: 09 80 5C 01 09 80 5D 0A  80 0B 80 1C 0C 80 45 0D  ..\...].......E.
0120: 80 F0 FF FF 7F F0 FF FF  7F 73 30 31 31 00 80 45  .........s011..E
0130: 06 80 F0 FF FF 7F F0 FF  FF 7F 66 64 69 31 00 80  ..........fdi1..
0140: 29 0B 29 00 0F 01 0C 52  0D 80 F0 FF FF 7F F0 FF  ).)....R........
0150: FF 7F 73 30 31 31 45 0D  80 F0 FF FF 7F F0 FF FF  ..s011E.........
0160: 7F 73 30 31 32 00 80 4A  29 00 0F 01 2A 00 0F 01  .s012..J)...*...
0170: 29 0B 29 00 0F 01 0D 4A  F0 FF FF 7F 2A 00 0F 01  ).)....J....*...
0180: 29 0B 2A 00 0F 01 08 45  0D 80 F0 FF FF 7F F0 FF  ).*....E........
0190: FF 7F 73 30 31 33 00 80  29 0B 2A 00 0F 01 09 4A  ..s013..).*....J
01A0: 29 00 0F 01 F0 FF FF 7F  52 0D 80 F0 FF FF 7F F0  ).......R.......
01B0: FF FF 7F 73 30 31 33 02  09 10 0E 80 00 D3 01 45  ...s013........E
01C0: 0D 80 F0 FF FF 7F F0 FF  FF 7F 73 31 30 32 00 80  ..........s102..
01D0: 01 E4 01 45 0D 80 F0 FF  FF 7F F0 FF FF 7F 73 30  ...E..........s0
01E0: 31 34 00 80 4A F0 FF FF  7F 29 00 0F 01 29 0B 29  14..J....)...).)
01F0: 00 0F 01 0E 45 0D 80 F0  FF FF 7F F0 FF FF 7F 73  ....E..........s
0200: 30 31 32 00 80 29 0B 29  00 0F 01 0F 4A 29 00 0F  012..).)....J)..
0210: 01 2A 00 0F 01 29 0B 29  00 0F 01 10 45 0D 80 F0  .*...).)....E...
0220: FF FF 7F F0 FF FF 7F 73  30 38 38 00 80 4A F0 FF  .......s088..J..
0230: FF 7F 2A 00 0F 01 29 0B  2A 00 0F 01 0A 4A 29 00  ..*...).*....J).
0240: 0F 01 F0 FF FF 7F 45 0D  80 F0 FF FF 7F F0 FF FF  ......E.........
0250: 7F 73 30 31 31 00 80 29  0B 29 00 0F 01 11 29 0B  .s011..).)....).
0260: 29 00 0F 01 12 52 0D 80  F0 FF FF 7F F0 FF FF 7F  )....R..........
0270: 73 30 31 31 5D 00 80 06  80 45 06 80 F8 FF FF 7F  s011]....E......
0280: F8 FF FF 7F 66 64 6F 31  00 80 1C 0C 80 5C 00 0F  ....fdo1.....\..
0290: 80 5C 01 0F 80 5D 0A 80  0B 80 1C 0C 80 46 00 2E  .\...].......F..
02A0: 45 06 80 F8 FF FF 7F F8  FF FF 7F 66 64 69 31 00  E..........fdi1.
02B0: 80 20 00 21 00                                    . .!.           
```

#### Opcodes

```
  0: 0x00CB [0x46] CAMERA_CONTROL: Disable user control
  1: 0x00CD [0x42] SET_CLI_EVENT_CANCEL_DATA()
  2: 0x00CE [0x5D] SET_MUSIC_VOLUME(volume=0*, fade_time=200*)
  3: 0x00D3 [0x45] LOAD_SCHEDULED_TASK: Load scheduler "fdo1" with entities [LocalPlayer, LocalPlayer], work=[200*, 0*]
  4: 0x00E4 [0x1C] WAIT(200* ticks)
  5: 0x00E7 [0x75] LOAD_ROOM(Load indoor room, room=410*)
  6: 0x00EB [0x75] LOAD_ROOM(No action)
  7: 0x00ED [0x38] SET_CLIENT_EVENT_MODE(mode=3*)
  8: 0x00F0 [0x29] REQ_SET_WAIT(priority=0x08, entity_id=LocalPlayer, tag_num=0x0A)
  9: 0x00F7 [0x29] REQ_SET_WAIT(priority=0x0B, entity_id=LocalPlayer, tag_num=0x31)
 10: 0x00FE [0x4A] LocalPlayer looks at Melek (ID: 17760297/0x010F0029)
 11: 0x0107 [0x1E] EventEntity looks at LocalPlayer and starts talking
 12: 0x010C [0x6F] WAIT_FRAME_DELAY: Yield until WaitTime reaches zero
 13: 0x010D [0x70] WAIT_ENTITY_RENDER_FLAG: Wait while EventEntity->Render.Flags3 bit 2 is set (cancel turn if not)
 14: 0x010E [0x5C] MUSIC_CONTROL: Set Idle (Day) music to song 154*
 15: 0x0112 [0x5C] MUSIC_CONTROL: Set Idle (Night) music to song 154*
 16: 0x0116 [0x5D] SET_MUSIC_VOLUME(volume=127*, fade_time=1*)
 17: 0x011B [0x1C] WAIT(120* ticks)
 18: 0x011E [0x45] LOAD_SCHEDULED_TASK: Load scheduler "s011" with entities [LocalPlayer, LocalPlayer], work=[140*, 0*]
 19: 0x012F [0x45] LOAD_SCHEDULED_TASK: Load scheduler "fdi1" with entities [LocalPlayer, LocalPlayer], work=[200*, 0*]
 20: 0x0140 [0x29] REQ_SET_WAIT(priority=0x0B, entity_id=Melek (ID: 17760297/0x010F0029), tag_num=0x0C)
 21: 0x0147 [0x52] END_LOAD_SCHEDULER: End scheduler "s011" with entities [LocalPlayer, LocalPlayer], work=140*
 22: 0x0156 [0x45] LOAD_SCHEDULED_TASK: Load scheduler "s012" with entities [LocalPlayer, LocalPlayer], work=[140*, 0*]
 23: 0x0167 [0x4A] Melek (ID: 17760297/0x010F0029) looks at Gold Skull (ID: 17760298/0x010F002A)
 24: 0x0170 [0x29] REQ_SET_WAIT(priority=0x0B, entity_id=Melek (ID: 17760297/0x010F0029), tag_num=0x0D)
 25: 0x0177 [0x4A] LocalPlayer looks at Gold Skull (ID: 17760298/0x010F002A)
 26: 0x0180 [0x29] REQ_SET_WAIT(priority=0x0B, entity_id=Gold Skull (ID: 17760298/0x010F002A), tag_num=0x08)
 27: 0x0187 [0x45] LOAD_SCHEDULED_TASK: Load scheduler "s013" with entities [LocalPlayer, LocalPlayer], work=[140*, 0*]
 28: 0x0198 [0x29] REQ_SET_WAIT(priority=0x0B, entity_id=Gold Skull (ID: 17760298/0x010F002A), tag_num=0x09)
 29: 0x019F [0x4A] Melek (ID: 17760297/0x010F0029) looks at LocalPlayer
 30: 0x01A8 [0x52] END_LOAD_SCHEDULER: End scheduler "s013" with entities [LocalPlayer, LocalPlayer], work=140*
 31: 0x01B7 [0x02] IF !(Work_Zone[9] == 8*) GOTO 0x01D3
 32: 0x01BF [0x45] LOAD_SCHEDULED_TASK: Load scheduler "s102" with entities [LocalPlayer, LocalPlayer], work=[140*, 0*]
 33: 0x01D0 [0x01] GOTO 0x01E4
 34: 0x01D3 [0x45] LOAD_SCHEDULED_TASK: Load scheduler "s014" with entities [LocalPlayer, LocalPlayer], work=[140*, 0*]

SUBROUTINE_01E4:
 35: 0x01E4 [0x4A] LocalPlayer looks at Melek (ID: 17760297/0x010F0029)
 36: 0x01ED [0x29] REQ_SET_WAIT(priority=0x0B, entity_id=Melek (ID: 17760297/0x010F0029), tag_num=0x0E)
 37: 0x01F4 [0x45] LOAD_SCHEDULED_TASK: Load scheduler "s012" with entities [LocalPlayer, LocalPlayer], work=[140*, 0*]
 38: 0x0205 [0x29] REQ_SET_WAIT(priority=0x0B, entity_id=Melek (ID: 17760297/0x010F0029), tag_num=0x0F)
 39: 0x020C [0x4A] Melek (ID: 17760297/0x010F0029) looks at Gold Skull (ID: 17760298/0x010F002A)
 40: 0x0215 [0x29] REQ_SET_WAIT(priority=0x0B, entity_id=Melek (ID: 17760297/0x010F0029), tag_num=0x10)
 41: 0x021C [0x45] LOAD_SCHEDULED_TASK: Load scheduler "s088" with entities [LocalPlayer, LocalPlayer], work=[140*, 0*]
 42: 0x022D [0x4A] LocalPlayer looks at Gold Skull (ID: 17760298/0x010F002A)
 43: 0x0236 [0x29] REQ_SET_WAIT(priority=0x0B, entity_id=Gold Skull (ID: 17760298/0x010F002A), tag_num=0x0A)
 44: 0x023D [0x4A] Melek (ID: 17760297/0x010F0029) looks at LocalPlayer
 45: 0x0246 [0x45] LOAD_SCHEDULED_TASK: Load scheduler "s011" with entities [LocalPlayer, LocalPlayer], work=[140*, 0*]
 46: 0x0257 [0x29] REQ_SET_WAIT(priority=0x0B, entity_id=Melek (ID: 17760297/0x010F0029), tag_num=0x11)
 47: 0x025E [0x29] REQ_SET_WAIT(priority=0x0B, entity_id=Melek (ID: 17760297/0x010F0029), tag_num=0x12)
 48: 0x0265 [0x52] END_LOAD_SCHEDULER: End scheduler "s011" with entities [LocalPlayer, LocalPlayer], work=140*
 49: 0x0274 [0x5D] SET_MUSIC_VOLUME(volume=0*, fade_time=200*)
 50: 0x0279 [0x45] LOAD_SCHEDULED_TASK: Load scheduler "fdo1" with entities [EventEntity, EventEntity], work=[200*, 0*]
 51: 0x028A [0x1C] WAIT(120* ticks)
 52: 0x028D [0x5C] MUSIC_CONTROL: Set Idle (Day) music to song 151*
 53: 0x0291 [0x5C] MUSIC_CONTROL: Set Idle (Night) music to song 151*
 54: 0x0295 [0x5D] SET_MUSIC_VOLUME(volume=127*, fade_time=1*)
 55: 0x029A [0x1C] WAIT(120* ticks)
 56: 0x029D [0x46] CAMERA_CONTROL: Restore default settings
 57: 0x029F [0x2E] SET_CLI_EVENT_CANCEL_FLAGS()
 58: 0x02A0 [0x45] LOAD_SCHEDULED_TASK: Load scheduler "fdi1" with entities [EventEntity, EventEntity], work=[200*, 0*]
 59: 0x02B1 [0x20] SET_CLI_EVENT_UC_FLAG: Unlock player control
 60: 0x02B3 [0x21] END_EVENT
 61: 0x02B4 [0x00] END_REQSTACK()
```

### Event 65535.9

#### Metadata

| Field        | Value    |
|--------------|----------|
| Entrypoint   | 0x02B5   |
| Data Size    | 51 bytes |
| Instructions | 11       |

```
      00 01 02 03 04 05 06 07  08 09 0A 0B 0C 0D 0E 0F
      -- -- -- -- -- -- -- --  -- -- -- -- -- -- -- --
02B0:                29 08 29  00 0F 01 01 1D 10 80 23       ).).......#
02C0: 29 08 29 00 0F 01 02 29  08 29 00 0F 01 04 1D 11  ).)....).)......
02D0: 80 23 29 08 29 00 0F 01  05 29 08 29 00 0F 01 06  .#).)....).)....
02E0: 29 08 29 00 0F 01 07 00                           ).).....        
```

#### Opcodes

```
  0: 0x02B5 [0x29] REQ_SET_WAIT(priority=0x08, entity_id=Melek (ID: 17760297/0x010F0029), tag_num=0x01)
  1: 0x02BC [0x1D] PRINT_EVENT_MESSAGE(message_id=3225*)
    → "I am Melek, the consul of Bastok. I trust you had a safe sail here?"
  2: 0x02BF [0x23] WAIT_FOR_DIALOG_INTERACTION
  3: 0x02C0 [0x29] REQ_SET_WAIT(priority=0x08, entity_id=Melek (ID: 17760297/0x010F0029), tag_num=0x02)
  4: 0x02C7 [0x29] REQ_SET_WAIT(priority=0x08, entity_id=Melek (ID: 17760297/0x010F0029), tag_num=0x04)
  5: 0x02CE [0x1D] PRINT_EVENT_MESSAGE(message_id=3226*)
    → "So, you are <Player>...the one who accepted the cooperative mission to Windurst, I see?"
  6: 0x02D1 [0x23] WAIT_FOR_DIALOG_INTERACTION
  7: 0x02D2 [0x29] REQ_SET_WAIT(priority=0x08, entity_id=Melek (ID: 17760297/0x010F0029), tag_num=0x05)
  8: 0x02D9 [0x29] REQ_SET_WAIT(priority=0x08, entity_id=Melek (ID: 17760297/0x010F0029), tag_num=0x06)
  9: 0x02E0 [0x29] REQ_SET_WAIT(priority=0x08, entity_id=Melek (ID: 17760297/0x010F0029), tag_num=0x07)
 10: 0x02E7 [0x00] END_REQSTACK()
```

### Event 65535.10

#### Metadata

| Field        | Value   |
|--------------|---------|
| Entrypoint   | 0x02E8  |
| Data Size    | 5 bytes |
| Instructions | 3       |

```
      00 01 02 03 04 05 06 07  08 09 0A 0B 0C 0D 0E 0F
      -- -- -- -- -- -- -- --  -- -- -- -- -- -- -- --
02E0:                          1D 12 80 23 00                   ...#.   
```

#### Opcodes

```
  0: 0x02E8 [0x1D] PRINT_EVENT_MESSAGE(message_id=3227*)
    → "Well then, Gold Skull, why don't you start by informing our fair citizen here about what the mission involves?"
  1: 0x02EB [0x23] WAIT_FOR_DIALOG_INTERACTION
  2: 0x02EC [0x00] END_REQSTACK()
```

### Event 65535.11

#### Metadata

| Field        | Value    |
|--------------|----------|
| Entrypoint   | 0x02ED   |
| Data Size    | 23 bytes |
| Instructions | 7        |

```
      00 01 02 03 04 05 06 07  08 09 0A 0B 0C 0D 0E 0F
      -- -- -- -- -- -- -- --  -- -- -- -- -- -- -- --
02E0:                                         29 08 29               ).)
02F0: 00 0F 01 01 1D 13 80 23  1D 14 80 23 29 08 29 00  .......#...#).).
0300: 0F 01 02 00                                       ....            
```

#### Opcodes

```
  0: 0x02ED [0x29] REQ_SET_WAIT(priority=0x08, entity_id=Melek (ID: 17760297/0x010F0029), tag_num=0x01)
  1: 0x02F4 [0x1D] PRINT_EVENT_MESSAGE(message_id=3232*)
    → "You look perplexed. Yes, well, I guess if you put it frankly, you are carrying a tribute to a pack of beastmen."
  2: 0x02F7 [0x23] WAIT_FOR_DIALOG_INTERACTION
  3: 0x02F8 [0x1D] PRINT_EVENT_MESSAGE(message_id=3233*)
    → "You see...in order to maintain the peace of their country, the Windurstians have formed amicable relations with the Yagudo."
  4: 0x02FB [0x23] WAIT_FOR_DIALOG_INTERACTION
  5: 0x02FC [0x29] REQ_SET_WAIT(priority=0x08, entity_id=Melek (ID: 17760297/0x010F0029), tag_num=0x02)
  6: 0x0303 [0x00] END_REQSTACK()
```

### Event 65535.12

#### Metadata

| Field        | Value    |
|--------------|----------|
| Entrypoint   | 0x0304   |
| Data Size    | 23 bytes |
| Instructions | 7        |

```
      00 01 02 03 04 05 06 07  08 09 0A 0B 0C 0D 0E 0F
      -- -- -- -- -- -- -- --  -- -- -- -- -- -- -- --
0300:             29 08 29 00  0F 01 01 1D 15 80 23 1D      ).).......#.
0310: 16 80 23 29 08 29 00 0F  01 02 00                 ..#).).....     
```

#### Opcodes

```
  0: 0x0304 [0x29] REQ_SET_WAIT(priority=0x08, entity_id=Melek (ID: 17760297/0x010F0029), tag_num=0x01)
  1: 0x030B [0x1D] PRINT_EVENT_MESSAGE(message_id=3234*)
    → "But, as you've probably realized, it's hard to call their relationship amicable when you witness the outrageous behavior of the Yagudo."
  2: 0x030E [0x23] WAIT_FOR_DIALOG_INTERACTION
  3: 0x030F [0x1D] PRINT_EVENT_MESSAGE(message_id=3235*)
    → "So we have to try to curtail the beastmen's military potential without losing the trust of Windurst."
  4: 0x0312 [0x23] WAIT_FOR_DIALOG_INTERACTION
  5: 0x0313 [0x29] REQ_SET_WAIT(priority=0x08, entity_id=Melek (ID: 17760297/0x010F0029), tag_num=0x02)
  6: 0x031A [0x00] END_REQSTACK()
```

### Event 65535.13

#### Metadata

| Field        | Value    |
|--------------|----------|
| Entrypoint   | 0x031B   |
| Data Size    | 19 bytes |
| Instructions | 5        |

```
      00 01 02 03 04 05 06 07  08 09 0A 0B 0C 0D 0E 0F
      -- -- -- -- -- -- -- --  -- -- -- -- -- -- -- --
0310:                                   29 08 29 00 0F             ).)..
0320: 01 01 1D 17 80 23 29 08  29 00 0F 01 02 00        .....#).).....  
```

#### Opcodes

```
  0: 0x031B [0x29] REQ_SET_WAIT(priority=0x08, entity_id=Melek (ID: 17760297/0x010F0029), tag_num=0x01)
  1: 0x0322 [0x1D] PRINT_EVENT_MESSAGE(message_id=3236*)
    → "That's where your real purpose comes in. Gold Skull, please explain the rest of the mission..."
  2: 0x0325 [0x23] WAIT_FOR_DIALOG_INTERACTION
  3: 0x0326 [0x29] REQ_SET_WAIT(priority=0x08, entity_id=Melek (ID: 17760297/0x010F0029), tag_num=0x02)
  4: 0x032D [0x00] END_REQSTACK()
```

### Event 65535.14

#### Metadata

| Field        | Value    |
|--------------|----------|
| Entrypoint   | 0x032E   |
| Data Size    | 23 bytes |
| Instructions | 7        |

```
      00 01 02 03 04 05 06 07  08 09 0A 0B 0C 0D 0E 0F
      -- -- -- -- -- -- -- --  -- -- -- -- -- -- -- --
0320:                                            29 08                ).
0330: 29 00 0F 01 01 1D 18 80  23 1D 19 80 23 29 08 29  ).......#...#).)
0340: 00 0F 01 02 00                                    .....           
```

#### Opcodes

```
  0: 0x032E [0x29] REQ_SET_WAIT(priority=0x08, entity_id=Melek (ID: 17760297/0x010F0029), tag_num=0x01)
  1: 0x0335 [0x1D] PRINT_EVENT_MESSAGE(message_id=3239*)
    → "Do you understand your orders? Of course, the fact that we are switching weapons is to remain top secret."
  2: 0x0338 [0x23] WAIT_FOR_DIALOG_INTERACTION
  3: 0x0339 [0x1D] PRINT_EVENT_MESSAGE(message_id=3240*)
    → "We are forbidden from meddling in the internal affairs of another country. However, we wish to save Windurst from its dangerous predicament."
  4: 0x033C [0x23] WAIT_FOR_DIALOG_INTERACTION
  5: 0x033D [0x29] REQ_SET_WAIT(priority=0x08, entity_id=Melek (ID: 17760297/0x010F0029), tag_num=0x02)
  6: 0x0344 [0x00] END_REQSTACK()
```

### Event 65535.15

#### Metadata

| Field        | Value    |
|--------------|----------|
| Entrypoint   | 0x0345   |
| Data Size    | 19 bytes |
| Instructions | 5        |

```
      00 01 02 03 04 05 06 07  08 09 0A 0B 0C 0D 0E 0F
      -- -- -- -- -- -- -- --  -- -- -- -- -- -- -- --
0340:                29 08 29  00 0F 01 01 1D 1A 80 23       ).).......#
0350: 29 08 29 00 0F 01 02 00                           ).).....        
```

#### Opcodes

```
  0: 0x0345 [0x29] REQ_SET_WAIT(priority=0x08, entity_id=Melek (ID: 17760297/0x010F0029), tag_num=0x01)
  1: 0x034C [0x1D] PRINT_EVENT_MESSAGE(message_id=3241*)
    → "Well, you had better get going. I pray that your mission is a success."
  2: 0x034F [0x23] WAIT_FOR_DIALOG_INTERACTION
  3: 0x0350 [0x29] REQ_SET_WAIT(priority=0x08, entity_id=Melek (ID: 17760297/0x010F0029), tag_num=0x02)
  4: 0x0357 [0x00] END_REQSTACK()
```

### Event 49

#### Metadata

| Field        | Value    |
|--------------|----------|
| Entrypoint   | 0x0358   |
| Data Size    | 29 bytes |
| Instructions | 10       |

```
      00 01 02 03 04 05 06 07  08 09 0A 0B 0C 0D 0E 0F
      -- -- -- -- -- -- -- --  -- -- -- -- -- -- -- --
0350:                          1E F0 FF FF 7F 6F 70 29          .....op)
0360: 08 29 00 0F 01 01 1D 1B  80 23 29 08 29 00 0F 01  .).......#).)...
0370: 08 20 00 21 00                                    . .!.           
```

#### Opcodes

```
  0: 0x0358 [0x1E] EventEntity looks at LocalPlayer and starts talking
  1: 0x035D [0x6F] WAIT_FRAME_DELAY: Yield until WaitTime reaches zero
  2: 0x035E [0x70] WAIT_ENTITY_RENDER_FLAG: Wait while EventEntity->Render.Flags3 bit 2 is set (cancel turn if not)
  3: 0x035F [0x29] REQ_SET_WAIT(priority=0x08, entity_id=Melek (ID: 17760297/0x010F0029), tag_num=0x01)
  4: 0x0366 [0x1D] PRINT_EVENT_MESSAGE(message_id=3242*)
    → "Ask Gold Skull for further explanation if you need clarification. I pray that your mission is a success."
  5: 0x0369 [0x23] WAIT_FOR_DIALOG_INTERACTION
  6: 0x036A [0x29] REQ_SET_WAIT(priority=0x08, entity_id=Melek (ID: 17760297/0x010F0029), tag_num=0x08)
  7: 0x0371 [0x20] SET_CLI_EVENT_UC_FLAG: Unlock player control
  8: 0x0373 [0x21] END_EVENT
  9: 0x0374 [0x00] END_REQSTACK()
```

### Event 53

#### Metadata

| Field        | Value     |
|--------------|-----------|
| Entrypoint   | 0x0375    |
| Data Size    | 228 bytes |
| Instructions | 32        |

```
      00 01 02 03 04 05 06 07  08 09 0A 0B 0C 0D 0E 0F
      -- -- -- -- -- -- -- --  -- -- -- -- -- -- -- --
0370:                42 46 01  45 06 80 F0 FF FF 7F F0       BF.E.......
0380: FF FF 7F 66 64 6F 31 00  80 1C 0C 80 75 00 07 80  ...fdo1.....u...
0390: 75 01 38 08 80 29 0B F0  FF FF 7F 32 4A F0 FF FF  u.8..).....2J...
03A0: 7F 2A 00 0F 01 6F 76 F0  FF FF 7F 45 0D 80 F0 FF  .*...ov....E....
03B0: FF 7F F0 FF FF 7F 73 30  39 30 00 80 45 06 80 F0  ......s090..E...
03C0: FF FF 7F F0 FF FF 7F 66  64 69 31 00 80 4A 2A 00  .......fdi1..J*.
03D0: 0F 01 F0 FF FF 7F 29 08  F0 FF FF 7F 3E 29 08 F0  ......).....>)..
03E0: FF FF 7F 3F 29 0B 2A 00  0F 01 0F 27 0B 2A 00 0F  ...?).*....'.*..
03F0: 01 0E 1C 1C 80 45 06 80  F0 FF FF 7F F0 FF FF 7F  .....E..........
0400: 66 64 6F 31 00 80 2A 0B  2A 00 0F 01 1C 0C 80 29  fdo1..*.*......)
0410: 0B 2A 00 0F 01 0D 45 06  80 F0 FF FF 7F F0 FF FF  .*....E.........
0420: 7F 66 64 69 31 00 80 29  0B 2A 00 0F 01 10 45 06  .fdi1..).*....E.
0430: 80 F0 FF FF 7F F0 FF FF  7F 66 64 6F 31 00 80 1C  .........fdo1...
0440: 0C 80 46 00 45 06 80 F0  FF FF 7F F0 FF FF 7F 66  ..F.E..........f
0450: 64 69 31 00 80 20 00 21  00                       di1.. .!.       
```

#### Opcodes

```
  0: 0x0375 [0x42] SET_CLI_EVENT_CANCEL_DATA()
  1: 0x0376 [0x46] CAMERA_CONTROL: Disable user control
  2: 0x0378 [0x45] LOAD_SCHEDULED_TASK: Load scheduler "fdo1" with entities [LocalPlayer, LocalPlayer], work=[200*, 0*]
  3: 0x0389 [0x1C] WAIT(120* ticks)
  4: 0x038C [0x75] LOAD_ROOM(Load indoor room, room=410*)
  5: 0x0390 [0x75] LOAD_ROOM(No action)
  6: 0x0392 [0x38] SET_CLIENT_EVENT_MODE(mode=3*)
  7: 0x0395 [0x29] REQ_SET_WAIT(priority=0x0B, entity_id=LocalPlayer, tag_num=0x32)
  8: 0x039C [0x4A] LocalPlayer looks at Gold Skull (ID: 17760298/0x010F002A)
  9: 0x03A5 [0x6F] WAIT_FRAME_DELAY: Yield until WaitTime reaches zero
 10: 0x03A6 [0x76] CHECK_ENTITY_RENDER_FLAGS: Wait until LocalPlayer Render.Flags0 and Render.Flags3 conditions are met
 11: 0x03AB [0x45] LOAD_SCHEDULED_TASK: Load scheduler "s090" with entities [LocalPlayer, LocalPlayer], work=[140*, 0*]
 12: 0x03BC [0x45] LOAD_SCHEDULED_TASK: Load scheduler "fdi1" with entities [LocalPlayer, LocalPlayer], work=[200*, 0*]
 13: 0x03CD [0x4A] Gold Skull (ID: 17760298/0x010F002A) looks at LocalPlayer
 14: 0x03D6 [0x29] REQ_SET_WAIT(priority=0x08, entity_id=LocalPlayer, tag_num=0x3E)
 15: 0x03DD [0x29] REQ_SET_WAIT(priority=0x08, entity_id=LocalPlayer, tag_num=0x3F)
 16: 0x03E4 [0x29] REQ_SET_WAIT(priority=0x0B, entity_id=Gold Skull (ID: 17760298/0x010F002A), tag_num=0x0F)
 17: 0x03EB [0x27] REQ_SET(priority=0x0B, entity_id=Gold Skull (ID: 17760298/0x010F002A), tag_num=0x0E)
 18: 0x03F2 [0x1C] WAIT(60* ticks)
 19: 0x03F5 [0x45] LOAD_SCHEDULED_TASK: Load scheduler "fdo1" with entities [LocalPlayer, LocalPlayer], work=[200*, 0*]
 20: 0x0406 [0x2A] GET_REQ_LEVEL(level=11, entity_id=Gold Skull (ID: 17760298/0x010F002A))
 21: 0x040C [0x1C] WAIT(120* ticks)
 22: 0x040F [0x29] REQ_SET_WAIT(priority=0x0B, entity_id=Gold Skull (ID: 17760298/0x010F002A), tag_num=0x0D)
 23: 0x0416 [0x45] LOAD_SCHEDULED_TASK: Load scheduler "fdi1" with entities [LocalPlayer, LocalPlayer], work=[200*, 0*]
 24: 0x0427 [0x29] REQ_SET_WAIT(priority=0x0B, entity_id=Gold Skull (ID: 17760298/0x010F002A), tag_num=0x10)
 25: 0x042E [0x45] LOAD_SCHEDULED_TASK: Load scheduler "fdo1" with entities [LocalPlayer, LocalPlayer], work=[200*, 0*]
 26: 0x043F [0x1C] WAIT(120* ticks)
 27: 0x0442 [0x46] CAMERA_CONTROL: Restore default settings
 28: 0x0444 [0x45] LOAD_SCHEDULED_TASK: Load scheduler "fdi1" with entities [LocalPlayer, LocalPlayer], work=[200*, 0*]
 29: 0x0455 [0x20] SET_CLI_EVENT_UC_FLAG: Unlock player control
 30: 0x0457 [0x21] END_EVENT
 31: 0x0458 [0x00] END_REQSTACK()
```

### Event 55

#### Metadata

| Field        | Value     |
|--------------|-----------|
| Entrypoint   | 0x0459    |
| Data Size    | 286 bytes |
| Instructions | 44        |

```
      00 01 02 03 04 05 06 07  08 09 0A 0B 0C 0D 0E 0F
      -- -- -- -- -- -- -- --  -- -- -- -- -- -- -- --
0450:                             46 01 42 5D 00 80 06           F.B]...
0460: 80 45 06 80 F0 FF FF 7F  F0 FF FF 7F 66 64 6F 31  .E..........fdo1
0470: 00 80 1C 0C 80 75 00 07  80 75 01 38 08 80 29 08  .....u...u.8..).
0480: F0 FF FF 7F 0A 29 0B F0  FF FF 7F 31 1E F0 FF FF  .....).....1....
0490: 7F 6F 70 4A F0 FF FF 7F  29 00 0F 01 5C 00 09 80  .opJ....)...\...
04A0: 5C 01 09 80 5D 0A 80 0B  80 1C 0C 80 45 0D 80 F0  \...].......E...
04B0: FF FF 7F F0 FF FF 7F 73  30 31 31 00 80 45 06 80  .......s011..E..
04C0: F0 FF FF 7F F0 FF FF 7F  66 64 69 31 00 80 1C 1C  ........fdi1....
04D0: 80 29 0B 29 00 0F 01 16  02 09 10 0E 80 00 F4 04  .).)............
04E0: 45 0D 80 F0 FF FF 7F F0  FF FF 7F 73 31 30 32 00  E..........s102.
04F0: 80 01 05 05 45 0D 80 F0  FF FF 7F F0 FF FF 7F 73  ....E..........s
0500: 30 31 34 00 80 29 0B 29  00 0F 01 17 45 0D 80 F0  014..).)....E...
0510: FF FF 7F F0 FF FF 7F 73  30 31 31 00 80 29 0B 29  .......s011..).)
0520: 00 0F 01 18 5D 00 80 06  80 42 45 06 80 F8 FF FF  ....]....BE.....
0530: 7F F8 FF FF 7F 66 64 6F  31 00 80 1C 0C 80 5C 00  .....fdo1.....\.
0540: 0F 80 5C 01 0F 80 5D 0A  80 0B 80 1C 0C 80 46 00  ..\...].......F.
0550: 2E 45 06 80 F8 FF FF 7F  F8 FF FF 7F 66 64 69 31  .E..........fdi1
0560: 00 80 45 1D 80 F0 FF FF  7F F0 FF FF 7F 71 73 74  ..E..........qst
0570: 63 00 80 20 00 21 00                              c.. .!.         
```

#### Opcodes

```
  0: 0x0459 [0x46] CAMERA_CONTROL: Disable user control
  1: 0x045B [0x42] SET_CLI_EVENT_CANCEL_DATA()
  2: 0x045C [0x5D] SET_MUSIC_VOLUME(volume=0*, fade_time=200*)
  3: 0x0461 [0x45] LOAD_SCHEDULED_TASK: Load scheduler "fdo1" with entities [LocalPlayer, LocalPlayer], work=[200*, 0*]
  4: 0x0472 [0x1C] WAIT(120* ticks)
  5: 0x0475 [0x75] LOAD_ROOM(Load indoor room, room=410*)
  6: 0x0479 [0x75] LOAD_ROOM(No action)
  7: 0x047B [0x38] SET_CLIENT_EVENT_MODE(mode=3*)
  8: 0x047E [0x29] REQ_SET_WAIT(priority=0x08, entity_id=LocalPlayer, tag_num=0x0A)
  9: 0x0485 [0x29] REQ_SET_WAIT(priority=0x0B, entity_id=LocalPlayer, tag_num=0x31)
 10: 0x048C [0x1E] EventEntity looks at LocalPlayer and starts talking
 11: 0x0491 [0x6F] WAIT_FRAME_DELAY: Yield until WaitTime reaches zero
 12: 0x0492 [0x70] WAIT_ENTITY_RENDER_FLAG: Wait while EventEntity->Render.Flags3 bit 2 is set (cancel turn if not)
 13: 0x0493 [0x4A] LocalPlayer looks at Melek (ID: 17760297/0x010F0029)
 14: 0x049C [0x5C] MUSIC_CONTROL: Set Idle (Day) music to song 154*
 15: 0x04A0 [0x5C] MUSIC_CONTROL: Set Idle (Night) music to song 154*
 16: 0x04A4 [0x5D] SET_MUSIC_VOLUME(volume=127*, fade_time=1*)
 17: 0x04A9 [0x1C] WAIT(120* ticks)
 18: 0x04AC [0x45] LOAD_SCHEDULED_TASK: Load scheduler "s011" with entities [LocalPlayer, LocalPlayer], work=[140*, 0*]
 19: 0x04BD [0x45] LOAD_SCHEDULED_TASK: Load scheduler "fdi1" with entities [LocalPlayer, LocalPlayer], work=[200*, 0*]
 20: 0x04CE [0x1C] WAIT(60* ticks)
 21: 0x04D1 [0x29] REQ_SET_WAIT(priority=0x0B, entity_id=Melek (ID: 17760297/0x010F0029), tag_num=0x16)
 22: 0x04D8 [0x02] IF !(Work_Zone[9] == 8*) GOTO 0x04F4
 23: 0x04E0 [0x45] LOAD_SCHEDULED_TASK: Load scheduler "s102" with entities [LocalPlayer, LocalPlayer], work=[140*, 0*]
 24: 0x04F1 [0x01] GOTO 0x0505
 25: 0x04F4 [0x45] LOAD_SCHEDULED_TASK: Load scheduler "s014" with entities [LocalPlayer, LocalPlayer], work=[140*, 0*]

SUBROUTINE_0505:
 26: 0x0505 [0x29] REQ_SET_WAIT(priority=0x0B, entity_id=Melek (ID: 17760297/0x010F0029), tag_num=0x17)
 27: 0x050C [0x45] LOAD_SCHEDULED_TASK: Load scheduler "s011" with entities [LocalPlayer, LocalPlayer], work=[140*, 0*]
 28: 0x051D [0x29] REQ_SET_WAIT(priority=0x0B, entity_id=Melek (ID: 17760297/0x010F0029), tag_num=0x18)
 29: 0x0524 [0x5D] SET_MUSIC_VOLUME(volume=0*, fade_time=200*)
 30: 0x0529 [0x42] SET_CLI_EVENT_CANCEL_DATA()
 31: 0x052A [0x45] LOAD_SCHEDULED_TASK: Load scheduler "fdo1" with entities [EventEntity, EventEntity], work=[200*, 0*]
 32: 0x053B [0x1C] WAIT(120* ticks)
 33: 0x053E [0x5C] MUSIC_CONTROL: Set Idle (Day) music to song 151*
 34: 0x0542 [0x5C] MUSIC_CONTROL: Set Idle (Night) music to song 151*
 35: 0x0546 [0x5D] SET_MUSIC_VOLUME(volume=127*, fade_time=1*)
 36: 0x054B [0x1C] WAIT(120* ticks)
 37: 0x054E [0x46] CAMERA_CONTROL: Restore default settings
 38: 0x0550 [0x2E] SET_CLI_EVENT_CANCEL_FLAGS()
 39: 0x0551 [0x45] LOAD_SCHEDULED_TASK: Load scheduler "fdi1" with entities [EventEntity, EventEntity], work=[200*, 0*]
 40: 0x0562 [0x45] LOAD_SCHEDULED_TASK: Load scheduler "qstc" with entities [LocalPlayer, LocalPlayer], work=[201*, 0*]
 41: 0x0573 [0x20] SET_CLI_EVENT_UC_FLAG: Unlock player control
 42: 0x0575 [0x21] END_EVENT
 43: 0x0576 [0x00] END_REQSTACK()
```

### Event 65535.16

#### Metadata

| Field        | Value    |
|--------------|----------|
| Entrypoint   | 0x0577   |
| Data Size    | 23 bytes |
| Instructions | 7        |

```
      00 01 02 03 04 05 06 07  08 09 0A 0B 0C 0D 0E 0F
      -- -- -- -- -- -- -- --  -- -- -- -- -- -- -- --
0570:                      29  08 29 00 0F 01 01 1D 1E         ).)......
0580: 80 23 1D 1F 80 23 29 08  29 00 0F 01 02 00        .#...#).).....  
```

#### Opcodes

```
  0: 0x0577 [0x29] REQ_SET_WAIT(priority=0x08, entity_id=Melek (ID: 17760297/0x010F0029), tag_num=0x01)
  1: 0x057E [0x1D] PRINT_EVENT_MESSAGE(message_id=3251*)
    → "Welcome back. Your mission went without incident, I trust?"
  2: 0x0581 [0x23] WAIT_FOR_DIALOG_INTERACTION
  3: 0x0582 [0x1D] PRINT_EVENT_MESSAGE(message_id=3252*)
    → "We've sent the real magic weapons like the one you brought us, back to our homeland. They'll come in useful for expelling the Quadav from around Bastok."
  4: 0x0585 [0x23] WAIT_FOR_DIALOG_INTERACTION
  5: 0x0586 [0x29] REQ_SET_WAIT(priority=0x08, entity_id=Melek (ID: 17760297/0x010F0029), tag_num=0x02)
  6: 0x058D [0x00] END_REQSTACK()
```

### Event 65535.17

#### Metadata

| Field        | Value    |
|--------------|----------|
| Entrypoint   | 0x058E   |
| Data Size    | 23 bytes |
| Instructions | 7        |

```
      00 01 02 03 04 05 06 07  08 09 0A 0B 0C 0D 0E 0F
      -- -- -- -- -- -- -- --  -- -- -- -- -- -- -- --
0580:                                            29 08                ).
0590: 29 00 0F 01 01 1D 20 80  23 1D 21 80 23 29 08 29  )..... .#.!.#).)
05A0: 00 0F 01 02 00                                    .....           
```

#### Opcodes

```
  0: 0x058E [0x29] REQ_SET_WAIT(priority=0x08, entity_id=Melek (ID: 17760297/0x010F0029), tag_num=0x01)
  1: 0x0595 [0x1D] PRINT_EVENT_MESSAGE(message_id=3253*)
    → "Well, I presume you have to proceed to the Consulate of Bastok in San d'Oria next."
  2: 0x0598 [0x23] WAIT_FOR_DIALOG_INTERACTION
  3: 0x0599 [0x1D] PRINT_EVENT_MESSAGE(message_id=3254*)
    → "It is another long journey to reach San d'Oria. You have to travel from Mhaura to Selbina by boat first, then follow the land route north for quite a way."
  4: 0x059C [0x23] WAIT_FOR_DIALOG_INTERACTION
  5: 0x059D [0x29] REQ_SET_WAIT(priority=0x08, entity_id=Melek (ID: 17760297/0x010F0029), tag_num=0x02)
  6: 0x05A4 [0x00] END_REQSTACK()
```

### Event 65535.18

#### Metadata

| Field        | Value    |
|--------------|----------|
| Entrypoint   | 0x05A5   |
| Data Size    | 23 bytes |
| Instructions | 7        |

```
      00 01 02 03 04 05 06 07  08 09 0A 0B 0C 0D 0E 0F
      -- -- -- -- -- -- -- --  -- -- -- -- -- -- -- --
05A0:                29 08 29  00 0F 01 01 1D 22 80 23       ).).....".#
05B0: 1D 23 80 23 29 08 29 00  0F 01 02 00              .#.#).).....    
```

#### Opcodes

```
  0: 0x05A5 [0x29] REQ_SET_WAIT(priority=0x08, entity_id=Melek (ID: 17760297/0x010F0029), tag_num=0x01)
  1: 0x05AC [0x1D] PRINT_EVENT_MESSAGE(message_id=3255*)
    → "Don't overdo yourself. Rest up a little before you head to your destination, San d'Oria."
  2: 0x05AF [0x23] WAIT_FOR_DIALOG_INTERACTION
  3: 0x05B0 [0x1D] PRINT_EVENT_MESSAGE(message_id=3256*)
    → "I hope to see you safe and well again someday. Take care, <Player>."
  4: 0x05B3 [0x23] WAIT_FOR_DIALOG_INTERACTION
  5: 0x05B4 [0x29] REQ_SET_WAIT(priority=0x08, entity_id=Melek (ID: 17760297/0x010F0029), tag_num=0x02)
  6: 0x05BB [0x00] END_REQSTACK()
```

### Event 56

#### Metadata

| Field        | Value    |
|--------------|----------|
| Entrypoint   | 0x05BC   |
| Data Size    | 33 bytes |
| Instructions | 12       |

```
      00 01 02 03 04 05 06 07  08 09 0A 0B 0C 0D 0E 0F
      -- -- -- -- -- -- -- --  -- -- -- -- -- -- -- --
05B0:                                      1E F0 FF FF              ....
05C0: 7F 6F 70 29 08 29 00 0F  01 01 1D 24 80 23 1D 25  .op).).....$.#.%
05D0: 80 23 29 08 29 00 0F 01  08 20 00 21 00           .#).).... .!.   
```

#### Opcodes

```
  0: 0x05BC [0x1E] EventEntity looks at LocalPlayer and starts talking
  1: 0x05C1 [0x6F] WAIT_FRAME_DELAY: Yield until WaitTime reaches zero
  2: 0x05C2 [0x70] WAIT_ENTITY_RENDER_FLAG: Wait while EventEntity->Render.Flags3 bit 2 is set (cancel turn if not)
  3: 0x05C3 [0x29] REQ_SET_WAIT(priority=0x08, entity_id=Melek (ID: 17760297/0x010F0029), tag_num=0x01)
  4: 0x05CA [0x1D] PRINT_EVENT_MESSAGE(message_id=3257*)
    → "To overdo yourself is to work beyond your natural abilities."
  5: 0x05CD [0x23] WAIT_FOR_DIALOG_INTERACTION
  6: 0x05CE [0x1D] PRINT_EVENT_MESSAGE(message_id=3258*)
    → "Carrying on in such a way will not enable you to give good results. Sometimes you simply need to be kind to yourself."
  7: 0x05D1 [0x23] WAIT_FOR_DIALOG_INTERACTION
  8: 0x05D2 [0x29] REQ_SET_WAIT(priority=0x08, entity_id=Melek (ID: 17760297/0x010F0029), tag_num=0x08)
  9: 0x05D9 [0x20] SET_CLI_EVENT_UC_FLAG: Unlock player control
 10: 0x05DB [0x21] END_EVENT
 11: 0x05DC [0x00] END_REQSTACK()
```

### Event 61

#### Metadata

| Field        | Value     |
|--------------|-----------|
| Entrypoint   | 0x05DD    |
| Data Size    | 396 bytes |
| Instructions | 54        |

```
      00 01 02 03 04 05 06 07  08 09 0A 0B 0C 0D 0E 0F
      -- -- -- -- -- -- -- --  -- -- -- -- -- -- -- --
05D0:                                         46 01 42               F.B
05E0: 5D 00 80 06 80 45 06 80  F0 FF FF 7F F0 FF FF 7F  ]....E..........
05F0: 66 64 6F 31 00 80 1C 1C  80 75 00 07 80 75 01 38  fdo1.....u...u.8
0600: 08 80 29 08 F0 FF FF 7F  0A 29 0B F0 FF FF 7F 31  ..)......).....1
0610: 1E F0 FF FF 7F 6F 70 4A  F0 FF FF 7F 29 00 0F 01  .....opJ....)...
0620: 5C 00 09 80 5C 01 09 80  5D 0A 80 0B 80 1C 0C 80  \...\...].......
0630: 45 0D 80 F0 FF FF 7F F0  FF FF 7F 73 30 31 31 00  E..........s011.
0640: 80 45 06 80 F0 FF FF 7F  F0 FF FF 7F 66 64 69 31  .E..........fdi1
0650: 00 80 29 0B 29 00 0F 01  1B 45 0D 80 F0 FF FF 7F  ..).)....E......
0660: F0 FF FF 7F 73 30 31 32  00 80 4A 29 00 0F 01 2A  ....s012..J)...*
0670: 00 0F 01 29 0B 29 00 0F  01 1C 4A F0 FF FF 7F 2A  ...).)....J....*
0680: 00 0F 01 29 0B 2A 00 0F  01 14 45 0D 80 F0 FF FF  ...).*....E.....
0690: 7F F0 FF FF 7F 73 30 31  33 00 80 29 0B 2A 00 0F  .....s013..).*..
06A0: 01 15 4A 29 00 0F 01 F0  FF FF 7F 52 0D 80 F0 FF  ..J).......R....
06B0: FF 7F F0 FF FF 7F 73 30  31 33 02 09 10 0E 80 00  ......s013......
06C0: D6 06 45 0D 80 F0 FF FF  7F F0 FF FF 7F 73 31 30  ..E..........s10
06D0: 32 00 80 01 E7 06 45 0D  80 F0 FF FF 7F F0 FF FF  2.....E.........
06E0: 7F 73 30 31 34 00 80 4A  F0 FF FF 7F 29 00 0F 01  .s014..J....)...
06F0: 29 0B 29 00 0F 01 1D 29  0B 29 00 0F 01 1E 45 0D  ).)....).)....E.
0700: 80 F0 FF FF 7F F0 FF FF  7F 73 30 31 31 00 80 29  .........s011..)
0710: 0B 29 00 0F 01 1F 5D 00  80 06 80 42 45 06 80 F8  .)....]....BE...
0720: FF FF 7F F8 FF FF 7F 66  64 6F 31 00 80 1C 0C 80  .......fdo1.....
0730: 45 0D 80 F0 FF FF 7F F0  FF FF 7F 73 30 31 35 00  E..........s015.
0740: 80 5C 00 0F 80 5C 01 0F  80 5D 0A 80 0B 80 1C 0C  .\...\...]......
0750: 80 46 00 2E 45 06 80 F8  FF FF 7F F8 FF FF 7F 66  .F..E..........f
0760: 64 69 31 00 80 20 00 21  00                       di1.. .!.       
```

#### Opcodes

```
  0: 0x05DD [0x46] CAMERA_CONTROL: Disable user control
  1: 0x05DF [0x42] SET_CLI_EVENT_CANCEL_DATA()
  2: 0x05E0 [0x5D] SET_MUSIC_VOLUME(volume=0*, fade_time=200*)
  3: 0x05E5 [0x45] LOAD_SCHEDULED_TASK: Load scheduler "fdo1" with entities [LocalPlayer, LocalPlayer], work=[200*, 0*]
  4: 0x05F6 [0x1C] WAIT(60* ticks)
  5: 0x05F9 [0x75] LOAD_ROOM(Load indoor room, room=410*)
  6: 0x05FD [0x75] LOAD_ROOM(No action)
  7: 0x05FF [0x38] SET_CLIENT_EVENT_MODE(mode=3*)
  8: 0x0602 [0x29] REQ_SET_WAIT(priority=0x08, entity_id=LocalPlayer, tag_num=0x0A)
  9: 0x0609 [0x29] REQ_SET_WAIT(priority=0x0B, entity_id=LocalPlayer, tag_num=0x31)
 10: 0x0610 [0x1E] EventEntity looks at LocalPlayer and starts talking
 11: 0x0615 [0x6F] WAIT_FRAME_DELAY: Yield until WaitTime reaches zero
 12: 0x0616 [0x70] WAIT_ENTITY_RENDER_FLAG: Wait while EventEntity->Render.Flags3 bit 2 is set (cancel turn if not)
 13: 0x0617 [0x4A] LocalPlayer looks at Melek (ID: 17760297/0x010F0029)
 14: 0x0620 [0x5C] MUSIC_CONTROL: Set Idle (Day) music to song 154*
 15: 0x0624 [0x5C] MUSIC_CONTROL: Set Idle (Night) music to song 154*
 16: 0x0628 [0x5D] SET_MUSIC_VOLUME(volume=127*, fade_time=1*)
 17: 0x062D [0x1C] WAIT(120* ticks)
 18: 0x0630 [0x45] LOAD_SCHEDULED_TASK: Load scheduler "s011" with entities [LocalPlayer, LocalPlayer], work=[140*, 0*]
 19: 0x0641 [0x45] LOAD_SCHEDULED_TASK: Load scheduler "fdi1" with entities [LocalPlayer, LocalPlayer], work=[200*, 0*]
 20: 0x0652 [0x29] REQ_SET_WAIT(priority=0x0B, entity_id=Melek (ID: 17760297/0x010F0029), tag_num=0x1B)
 21: 0x0659 [0x45] LOAD_SCHEDULED_TASK: Load scheduler "s012" with entities [LocalPlayer, LocalPlayer], work=[140*, 0*]
 22: 0x066A [0x4A] Melek (ID: 17760297/0x010F0029) looks at Gold Skull (ID: 17760298/0x010F002A)
 23: 0x0673 [0x29] REQ_SET_WAIT(priority=0x0B, entity_id=Melek (ID: 17760297/0x010F0029), tag_num=0x1C)
 24: 0x067A [0x4A] LocalPlayer looks at Gold Skull (ID: 17760298/0x010F002A)
 25: 0x0683 [0x29] REQ_SET_WAIT(priority=0x0B, entity_id=Gold Skull (ID: 17760298/0x010F002A), tag_num=0x14)
 26: 0x068A [0x45] LOAD_SCHEDULED_TASK: Load scheduler "s013" with entities [LocalPlayer, LocalPlayer], work=[140*, 0*]
 27: 0x069B [0x29] REQ_SET_WAIT(priority=0x0B, entity_id=Gold Skull (ID: 17760298/0x010F002A), tag_num=0x15)
 28: 0x06A2 [0x4A] Melek (ID: 17760297/0x010F0029) looks at LocalPlayer
 29: 0x06AB [0x52] END_LOAD_SCHEDULER: End scheduler "s013" with entities [LocalPlayer, LocalPlayer], work=140*
 30: 0x06BA [0x02] IF !(Work_Zone[9] == 8*) GOTO 0x06D6
 31: 0x06C2 [0x45] LOAD_SCHEDULED_TASK: Load scheduler "s102" with entities [LocalPlayer, LocalPlayer], work=[140*, 0*]
 32: 0x06D3 [0x01] GOTO 0x06E7
 33: 0x06D6 [0x45] LOAD_SCHEDULED_TASK: Load scheduler "s014" with entities [LocalPlayer, LocalPlayer], work=[140*, 0*]

SUBROUTINE_06E7:
 34: 0x06E7 [0x4A] LocalPlayer looks at Melek (ID: 17760297/0x010F0029)
 35: 0x06F0 [0x29] REQ_SET_WAIT(priority=0x0B, entity_id=Melek (ID: 17760297/0x010F0029), tag_num=0x1D)
 36: 0x06F7 [0x29] REQ_SET_WAIT(priority=0x0B, entity_id=Melek (ID: 17760297/0x010F0029), tag_num=0x1E)
 37: 0x06FE [0x45] LOAD_SCHEDULED_TASK: Load scheduler "s011" with entities [LocalPlayer, LocalPlayer], work=[140*, 0*]
 38: 0x070F [0x29] REQ_SET_WAIT(priority=0x0B, entity_id=Melek (ID: 17760297/0x010F0029), tag_num=0x1F)
 39: 0x0716 [0x5D] SET_MUSIC_VOLUME(volume=0*, fade_time=200*)
 40: 0x071B [0x42] SET_CLI_EVENT_CANCEL_DATA()
 41: 0x071C [0x45] LOAD_SCHEDULED_TASK: Load scheduler "fdo1" with entities [EventEntity, EventEntity], work=[200*, 0*]
 42: 0x072D [0x1C] WAIT(120* ticks)
 43: 0x0730 [0x45] LOAD_SCHEDULED_TASK: Load scheduler "s015" with entities [LocalPlayer, LocalPlayer], work=[140*, 0*]
 44: 0x0741 [0x5C] MUSIC_CONTROL: Set Idle (Day) music to song 151*
 45: 0x0745 [0x5C] MUSIC_CONTROL: Set Idle (Night) music to song 151*
 46: 0x0749 [0x5D] SET_MUSIC_VOLUME(volume=127*, fade_time=1*)
 47: 0x074E [0x1C] WAIT(120* ticks)
 48: 0x0751 [0x46] CAMERA_CONTROL: Restore default settings
 49: 0x0753 [0x2E] SET_CLI_EVENT_CANCEL_FLAGS()
 50: 0x0754 [0x45] LOAD_SCHEDULED_TASK: Load scheduler "fdi1" with entities [EventEntity, EventEntity], work=[200*, 0*]
 51: 0x0765 [0x20] SET_CLI_EVENT_UC_FLAG: Unlock player control
 52: 0x0767 [0x21] END_EVENT
 53: 0x0768 [0x00] END_REQSTACK()
```

### Event 65535.19

#### Metadata

| Field        | Value    |
|--------------|----------|
| Entrypoint   | 0x0769   |
| Data Size    | 23 bytes |
| Instructions | 7        |

```
      00 01 02 03 04 05 06 07  08 09 0A 0B 0C 0D 0E 0F
      -- -- -- -- -- -- -- --  -- -- -- -- -- -- -- --
0760:                             29 08 29 00 0F 01 01           ).)....
0770: 1D 26 80 23 1D 27 80 23  29 08 29 00 0F 01 02 00  .&.#.'.#).).....
```

#### Opcodes

```
  0: 0x0769 [0x29] REQ_SET_WAIT(priority=0x08, entity_id=Melek (ID: 17760297/0x010F0029), tag_num=0x01)
  1: 0x0770 [0x1D] PRINT_EVENT_MESSAGE(message_id=3267*)
    → "I am Melek, the consul of Bastok. I trust you had a safe sail here?"
  2: 0x0773 [0x23] WAIT_FOR_DIALOG_INTERACTION
  3: 0x0774 [0x1D] PRINT_EVENT_MESSAGE(message_id=3268*)
    → "So, you are <Player>...? I heard about your activities in San d'Oria and am expecting great things from you here too."
  4: 0x0777 [0x23] WAIT_FOR_DIALOG_INTERACTION
  5: 0x0778 [0x29] REQ_SET_WAIT(priority=0x08, entity_id=Melek (ID: 17760297/0x010F0029), tag_num=0x02)
  6: 0x077F [0x00] END_REQSTACK()
```

### Event 65535.20

#### Metadata

| Field        | Value   |
|--------------|---------|
| Entrypoint   | 0x0780  |
| Data Size    | 5 bytes |
| Instructions | 3       |

```
      00 01 02 03 04 05 06 07  08 09 0A 0B 0C 0D 0E 0F
      -- -- -- -- -- -- -- --  -- -- -- -- -- -- -- --
0780: 1D 28 80 23 00                                    .(.#.           
```

#### Opcodes

```
  0: 0x0780 [0x1D] PRINT_EVENT_MESSAGE(message_id=3269*)
    → "Well then, we should get straight to the matter at hand. Gold Skull, why don't you start by informing our fair citizen here about what the mission involves?"
  1: 0x0783 [0x23] WAIT_FOR_DIALOG_INTERACTION
  2: 0x0784 [0x00] END_REQSTACK()
```

### Event 65535.21

#### Metadata

| Field        | Value    |
|--------------|----------|
| Entrypoint   | 0x0785   |
| Data Size    | 37 bytes |
| Instructions | 9        |

```
      00 01 02 03 04 05 06 07  08 09 0A 0B 0C 0D 0E 0F
      -- -- -- -- -- -- -- --  -- -- -- -- -- -- -- --
0780:                29 08 29  00 0F 01 04 1D 29 80 23       ).).....).#
0790: 29 08 29 00 0F 01 05 29  08 29 00 0F 01 06 1D 2A  ).)....).).....*
07A0: 80 23 29 08 29 00 0F 01  07 00                    .#).).....      
```

#### Opcodes

```
  0: 0x0785 [0x29] REQ_SET_WAIT(priority=0x08, entity_id=Melek (ID: 17760297/0x010F0029), tag_num=0x04)
  1: 0x078C [0x1D] PRINT_EVENT_MESSAGE(message_id=3274*)
    → "You look perplexed. Yes, well, I guess if you put it frankly, you are protecting a pack of Yagudo beastmen from a ferocious monster."
  2: 0x078F [0x23] WAIT_FOR_DIALOG_INTERACTION
  3: 0x0790 [0x29] REQ_SET_WAIT(priority=0x08, entity_id=Melek (ID: 17760297/0x010F0029), tag_num=0x05)
  4: 0x0797 [0x29] REQ_SET_WAIT(priority=0x08, entity_id=Melek (ID: 17760297/0x010F0029), tag_num=0x06)
  5: 0x079E [0x1D] PRINT_EVENT_MESSAGE(message_id=3275*)
    → "You see...in order to maintain the peace of their country, the Windurstians have formed amicable relations with the Yagudo."
  6: 0x07A1 [0x23] WAIT_FOR_DIALOG_INTERACTION
  7: 0x07A2 [0x29] REQ_SET_WAIT(priority=0x08, entity_id=Melek (ID: 17760297/0x010F0029), tag_num=0x07)
  8: 0x07A9 [0x00] END_REQSTACK()
```

### Event 65535.22

#### Metadata

| Field        | Value    |
|--------------|----------|
| Entrypoint   | 0x07AA   |
| Data Size    | 23 bytes |
| Instructions | 7        |

```
      00 01 02 03 04 05 06 07  08 09 0A 0B 0C 0D 0E 0F
      -- -- -- -- -- -- -- --  -- -- -- -- -- -- -- --
07A0:                                29 08 29 00 0F 01            ).)...
07B0: 01 1D 2B 80 23 1D 2C 80  23 29 08 29 00 0F 01 02  ..+.#.,.#).)....
07C0: 00                                                .               
```

#### Opcodes

```
  0: 0x07AA [0x29] REQ_SET_WAIT(priority=0x08, entity_id=Melek (ID: 17760297/0x010F0029), tag_num=0x01)
  1: 0x07B1 [0x1D] PRINT_EVENT_MESSAGE(message_id=3276*)
    → "But, as you've probably realized, it's hard to call their relationship amicable when you witness the outrageous behavior of the Yagudo."
  2: 0x07B4 [0x23] WAIT_FOR_DIALOG_INTERACTION
  3: 0x07B5 [0x1D] PRINT_EVENT_MESSAGE(message_id=3277*)
    → "But, in order to maintain the trust of Windurst, we have to participate in this preposterousness."
  4: 0x07B8 [0x23] WAIT_FOR_DIALOG_INTERACTION
  5: 0x07B9 [0x29] REQ_SET_WAIT(priority=0x08, entity_id=Melek (ID: 17760297/0x010F0029), tag_num=0x02)
  6: 0x07C0 [0x00] END_REQSTACK()
```

### Event 65535.23

#### Metadata

| Field        | Value    |
|--------------|----------|
| Entrypoint   | 0x07C1   |
| Data Size    | 19 bytes |
| Instructions | 5        |

```
      00 01 02 03 04 05 06 07  08 09 0A 0B 0C 0D 0E 0F
      -- -- -- -- -- -- -- --  -- -- -- -- -- -- -- --
07C0:    29 08 29 00 0F 01 01  1D 2D 80 23 29 08 29 00   ).).....-.#).).
07D0: 0F 01 02 00                                       ....            
```

#### Opcodes

```
  0: 0x07C1 [0x29] REQ_SET_WAIT(priority=0x08, entity_id=Melek (ID: 17760297/0x010F0029), tag_num=0x01)
  1: 0x07C8 [0x1D] PRINT_EVENT_MESSAGE(message_id=3278*)
    → "Well, good luck with your mission. I look forward to hearing of your success."
  2: 0x07CB [0x23] WAIT_FOR_DIALOG_INTERACTION
  3: 0x07CC [0x29] REQ_SET_WAIT(priority=0x08, entity_id=Melek (ID: 17760297/0x010F0029), tag_num=0x02)
  4: 0x07D3 [0x00] END_REQSTACK()
```

### Event 64

#### Metadata

| Field        | Value    |
|--------------|----------|
| Entrypoint   | 0x07D4   |
| Data Size    | 29 bytes |
| Instructions | 10       |

```
      00 01 02 03 04 05 06 07  08 09 0A 0B 0C 0D 0E 0F
      -- -- -- -- -- -- -- --  -- -- -- -- -- -- -- --
07D0:             1E F0 FF FF  7F 6F 70 29 08 29 00 0F      .....op).)..
07E0: 01 01 1D 2E 80 23 29 08  29 00 0F 01 08 20 00 21  .....#).).... .!
07F0: 00                                                .               
```

#### Opcodes

```
  0: 0x07D4 [0x1E] EventEntity looks at LocalPlayer and starts talking
  1: 0x07D9 [0x6F] WAIT_FRAME_DELAY: Yield until WaitTime reaches zero
  2: 0x07DA [0x70] WAIT_ENTITY_RENDER_FLAG: Wait while EventEntity->Render.Flags3 bit 2 is set (cancel turn if not)
  3: 0x07DB [0x29] REQ_SET_WAIT(priority=0x08, entity_id=Melek (ID: 17760297/0x010F0029), tag_num=0x01)
  4: 0x07E2 [0x1D] PRINT_EVENT_MESSAGE(message_id=3282*)
    → "Ask Gold Skull for further explanation if you need clarification. I pray that your mission is a success."
  5: 0x07E5 [0x23] WAIT_FOR_DIALOG_INTERACTION
  6: 0x07E6 [0x29] REQ_SET_WAIT(priority=0x08, entity_id=Melek (ID: 17760297/0x010F0029), tag_num=0x08)
  7: 0x07ED [0x20] SET_CLI_EVENT_UC_FLAG: Unlock player control
  8: 0x07EF [0x21] END_EVENT
  9: 0x07F0 [0x00] END_REQSTACK()
```

### Event 66

#### Metadata

| Field        | Value     |
|--------------|-----------|
| Entrypoint   | 0x07F1    |
| Data Size    | 421 bytes |
| Instructions | 58        |

```
      00 01 02 03 04 05 06 07  08 09 0A 0B 0C 0D 0E 0F
      -- -- -- -- -- -- -- --  -- -- -- -- -- -- -- --
07F0:    46 01 42 1E F0 FF FF  7F 6F 70 5D 00 80 06 80   F.B.....op]....
0800: 45 06 80 F8 FF FF 7F F8  FF FF 7F 66 64 6F 31 00  E..........fdo1.
0810: 80 1C 0C 80 75 00 07 80  75 01 38 08 80 29 08 F0  ....u...u.8..)..
0820: FF FF 7F 0A 29 0B F0 FF  FF 7F 31 1E F0 FF FF 7F  ....).....1.....
0830: 6F 70 5C 00 09 80 5C 01  09 80 5D 0A 80 0B 80 1C  op\...\...].....
0840: 0C 80 4A F0 FF FF 7F 29  00 0F 01 02 09 10 0E 80  ..J....)........
0850: 00 67 08 45 0D 80 F0 FF  FF 7F F0 FF FF 7F 73 31  .g.E..........s1
0860: 30 32 00 80 01 78 08 45  0D 80 F0 FF FF 7F F0 FF  02...x.E........
0870: FF 7F 73 30 31 34 00 80  45 06 80 F8 FF FF 7F F8  ..s014..E.......
0880: FF FF 7F 66 64 69 31 00  80 29 0B 29 00 0F 01 22  ...fdi1..).)..."
0890: 4A 2A 00 0F 01 29 00 0F  01 45 0D 80 F0 FF FF 7F  J*...)...E......
08A0: F0 FF FF 7F 73 30 38 39  00 80 29 0B 29 00 0F 01  ....s089..).)...
08B0: 23 45 06 80 F8 FF FF 7F  F8 FF FF 7F 66 64 6F 32  #E..........fdo2
08C0: 00 80 1C 06 80 02 09 10  0E 80 00 E1 08 45 0D 80  .............E..
08D0: F0 FF FF 7F F0 FF FF 7F  73 31 30 32 00 80 01 F2  ........s102....
08E0: 08 45 0D 80 F0 FF FF 7F  F0 FF FF 7F 73 30 31 34  .E..........s014
08F0: 00 80 45 06 80 F8 FF FF  7F F8 FF FF 7F 66 64 69  ..E..........fdi
0900: 32 00 80 1C 0C 80 29 0B  29 00 0F 01 24 45 0D 80  2.....).)...$E..
0910: F0 FF FF 7F F0 FF FF 7F  73 30 31 31 00 80 29 08  ........s011..).
0920: 29 00 0F 01 01 29 0B 29  00 0F 01 25 5D 00 80 06  )....).)...%]...
0930: 80 45 06 80 F8 FF FF 7F  F8 FF FF 7F 66 64 6F 31  .E..........fdo1
0940: 00 80 1C 0C 80 29 08 29  00 0F 01 02 45 0D 80 F0  .....).)....E...
0950: FF FF 7F F0 FF FF 7F 73  30 31 35 00 80 5C 00 0F  .......s015..\..
0960: 80 5C 01 0F 80 5D 0A 80  0B 80 1C 0C 80 46 00 2E  .\...].......F..
0970: 45 06 80 F8 FF FF 7F F8  FF FF 7F 66 64 69 31 00  E..........fdi1.
0980: 80 45 1D 80 F0 FF FF 7F  F0 FF FF 7F 71 73 74 63  .E..........qstc
0990: 00 80 20 00 21 00                                 .. .!.          
```

#### Opcodes

```
  0: 0x07F1 [0x46] CAMERA_CONTROL: Disable user control
  1: 0x07F3 [0x42] SET_CLI_EVENT_CANCEL_DATA()
  2: 0x07F4 [0x1E] EventEntity looks at LocalPlayer and starts talking
  3: 0x07F9 [0x6F] WAIT_FRAME_DELAY: Yield until WaitTime reaches zero
  4: 0x07FA [0x70] WAIT_ENTITY_RENDER_FLAG: Wait while EventEntity->Render.Flags3 bit 2 is set (cancel turn if not)
  5: 0x07FB [0x5D] SET_MUSIC_VOLUME(volume=0*, fade_time=200*)
  6: 0x0800 [0x45] LOAD_SCHEDULED_TASK: Load scheduler "fdo1" with entities [EventEntity, EventEntity], work=[200*, 0*]
  7: 0x0811 [0x1C] WAIT(120* ticks)
  8: 0x0814 [0x75] LOAD_ROOM(Load indoor room, room=410*)
  9: 0x0818 [0x75] LOAD_ROOM(No action)
 10: 0x081A [0x38] SET_CLIENT_EVENT_MODE(mode=3*)
 11: 0x081D [0x29] REQ_SET_WAIT(priority=0x08, entity_id=LocalPlayer, tag_num=0x0A)
 12: 0x0824 [0x29] REQ_SET_WAIT(priority=0x0B, entity_id=LocalPlayer, tag_num=0x31)
 13: 0x082B [0x1E] EventEntity looks at LocalPlayer and starts talking
 14: 0x0830 [0x6F] WAIT_FRAME_DELAY: Yield until WaitTime reaches zero
 15: 0x0831 [0x70] WAIT_ENTITY_RENDER_FLAG: Wait while EventEntity->Render.Flags3 bit 2 is set (cancel turn if not)
 16: 0x0832 [0x5C] MUSIC_CONTROL: Set Idle (Day) music to song 154*
 17: 0x0836 [0x5C] MUSIC_CONTROL: Set Idle (Night) music to song 154*
 18: 0x083A [0x5D] SET_MUSIC_VOLUME(volume=127*, fade_time=1*)
 19: 0x083F [0x1C] WAIT(120* ticks)
 20: 0x0842 [0x4A] LocalPlayer looks at Melek (ID: 17760297/0x010F0029)
 21: 0x084B [0x02] IF !(Work_Zone[9] == 8*) GOTO 0x0867
 22: 0x0853 [0x45] LOAD_SCHEDULED_TASK: Load scheduler "s102" with entities [LocalPlayer, LocalPlayer], work=[140*, 0*]
 23: 0x0864 [0x01] GOTO 0x0878
 24: 0x0867 [0x45] LOAD_SCHEDULED_TASK: Load scheduler "s014" with entities [LocalPlayer, LocalPlayer], work=[140*, 0*]

SUBROUTINE_0878:
 25: 0x0878 [0x45] LOAD_SCHEDULED_TASK: Load scheduler "fdi1" with entities [EventEntity, EventEntity], work=[200*, 0*]
 26: 0x0889 [0x29] REQ_SET_WAIT(priority=0x0B, entity_id=Melek (ID: 17760297/0x010F0029), tag_num=0x22)
 27: 0x0890 [0x4A] Gold Skull (ID: 17760298/0x010F002A) looks at Melek (ID: 17760297/0x010F0029)
 28: 0x0899 [0x45] LOAD_SCHEDULED_TASK: Load scheduler "s089" with entities [LocalPlayer, LocalPlayer], work=[140*, 0*]
 29: 0x08AA [0x29] REQ_SET_WAIT(priority=0x0B, entity_id=Melek (ID: 17760297/0x010F0029), tag_num=0x23)
 30: 0x08B1 [0x45] LOAD_SCHEDULED_TASK: Load scheduler "fdo2" with entities [EventEntity, EventEntity], work=[200*, 0*]
 31: 0x08C2 [0x1C] WAIT(200* ticks)
 32: 0x08C5 [0x02] IF !(Work_Zone[9] == 8*) GOTO 0x08E1
 33: 0x08CD [0x45] LOAD_SCHEDULED_TASK: Load scheduler "s102" with entities [LocalPlayer, LocalPlayer], work=[140*, 0*]
 34: 0x08DE [0x01] GOTO 0x08F2
 35: 0x08E1 [0x45] LOAD_SCHEDULED_TASK: Load scheduler "s014" with entities [LocalPlayer, LocalPlayer], work=[140*, 0*]

SUBROUTINE_08F2:
 36: 0x08F2 [0x45] LOAD_SCHEDULED_TASK: Load scheduler "fdi2" with entities [EventEntity, EventEntity], work=[200*, 0*]
 37: 0x0903 [0x1C] WAIT(120* ticks)
 38: 0x0906 [0x29] REQ_SET_WAIT(priority=0x0B, entity_id=Melek (ID: 17760297/0x010F0029), tag_num=0x24)
 39: 0x090D [0x45] LOAD_SCHEDULED_TASK: Load scheduler "s011" with entities [LocalPlayer, LocalPlayer], work=[140*, 0*]
 40: 0x091E [0x29] REQ_SET_WAIT(priority=0x08, entity_id=Melek (ID: 17760297/0x010F0029), tag_num=0x01)
 41: 0x0925 [0x29] REQ_SET_WAIT(priority=0x0B, entity_id=Melek (ID: 17760297/0x010F0029), tag_num=0x25)
 42: 0x092C [0x5D] SET_MUSIC_VOLUME(volume=0*, fade_time=200*)
 43: 0x0931 [0x45] LOAD_SCHEDULED_TASK: Load scheduler "fdo1" with entities [EventEntity, EventEntity], work=[200*, 0*]
 44: 0x0942 [0x1C] WAIT(120* ticks)
 45: 0x0945 [0x29] REQ_SET_WAIT(priority=0x08, entity_id=Melek (ID: 17760297/0x010F0029), tag_num=0x02)
 46: 0x094C [0x45] LOAD_SCHEDULED_TASK: Load scheduler "s015" with entities [LocalPlayer, LocalPlayer], work=[140*, 0*]
 47: 0x095D [0x5C] MUSIC_CONTROL: Set Idle (Day) music to song 151*
 48: 0x0961 [0x5C] MUSIC_CONTROL: Set Idle (Night) music to song 151*
 49: 0x0965 [0x5D] SET_MUSIC_VOLUME(volume=127*, fade_time=1*)
 50: 0x096A [0x1C] WAIT(120* ticks)
 51: 0x096D [0x46] CAMERA_CONTROL: Restore default settings
 52: 0x096F [0x2E] SET_CLI_EVENT_CANCEL_FLAGS()
 53: 0x0970 [0x45] LOAD_SCHEDULED_TASK: Load scheduler "fdi1" with entities [EventEntity, EventEntity], work=[200*, 0*]
 54: 0x0981 [0x45] LOAD_SCHEDULED_TASK: Load scheduler "qstc" with entities [LocalPlayer, LocalPlayer], work=[201*, 0*]
 55: 0x0992 [0x20] SET_CLI_EVENT_UC_FLAG: Unlock player control
 56: 0x0994 [0x21] END_EVENT
 57: 0x0995 [0x00] END_REQSTACK()
```

### Event 65535.24

#### Metadata

| Field        | Value    |
|--------------|----------|
| Entrypoint   | 0x0996   |
| Data Size    | 19 bytes |
| Instructions | 5        |

```
      00 01 02 03 04 05 06 07  08 09 0A 0B 0C 0D 0E 0F
      -- -- -- -- -- -- -- --  -- -- -- -- -- -- -- --
0990:                   29 08  29 00 0F 01 01 1D 2F 80        ).)...../.
09A0: 23 29 08 29 00 0F 01 02  00                       #).).....       
```

#### Opcodes

```
  0: 0x0996 [0x29] REQ_SET_WAIT(priority=0x08, entity_id=Melek (ID: 17760297/0x010F0029), tag_num=0x01)
  1: 0x099D [0x1D] PRINT_EVENT_MESSAGE(message_id=3285*)
    → "...! The Shadow Lord...!?"
  2: 0x09A0 [0x23] WAIT_FOR_DIALOG_INTERACTION
  3: 0x09A1 [0x29] REQ_SET_WAIT(priority=0x08, entity_id=Melek (ID: 17760297/0x010F0029), tag_num=0x02)
  4: 0x09A8 [0x00] END_REQSTACK()
```

### Event 65535.25

#### Metadata

| Field        | Value    |
|--------------|----------|
| Entrypoint   | 0x09A9   |
| Data Size    | 26 bytes |
| Instructions | 6        |

```
      00 01 02 03 04 05 06 07  08 09 0A 0B 0C 0D 0E 0F
      -- -- -- -- -- -- -- --  -- -- -- -- -- -- -- --
09A0:                             29 08 29 00 0F 01 04           ).)....
09B0: 1D 30 80 23 29 08 29 00  0F 01 06 29 08 29 00 0F  .0.#).)....).)..
09C0: 01 07 00                                          ...             
```

#### Opcodes

```
  0: 0x09A9 [0x29] REQ_SET_WAIT(priority=0x08, entity_id=Melek (ID: 17760297/0x010F0029), tag_num=0x04)
  1: 0x09B0 [0x1D] PRINT_EVENT_MESSAGE(message_id=3286*)
    → "Wait a moment... I'll need you to rush back to the homeland."
  2: 0x09B3 [0x23] WAIT_FOR_DIALOG_INTERACTION
  3: 0x09B4 [0x29] REQ_SET_WAIT(priority=0x08, entity_id=Melek (ID: 17760297/0x010F0029), tag_num=0x06)
  4: 0x09BB [0x29] REQ_SET_WAIT(priority=0x08, entity_id=Melek (ID: 17760297/0x010F0029), tag_num=0x07)
  5: 0x09C2 [0x00] END_REQSTACK()
```

### Event 65535.26

#### Metadata

| Field        | Value    |
|--------------|----------|
| Entrypoint   | 0x09C3   |
| Data Size    | 19 bytes |
| Instructions | 5        |

```
      00 01 02 03 04 05 06 07  08 09 0A 0B 0C 0D 0E 0F
      -- -- -- -- -- -- -- --  -- -- -- -- -- -- -- --
09C0:          29 08 29 00 0F  01 01 1D 31 80 23 29 08     ).).....1.#).
09D0: 29 00 0F 01 02 00                                 ).....          
```

#### Opcodes

```
  0: 0x09C3 [0x29] REQ_SET_WAIT(priority=0x08, entity_id=Melek (ID: 17760297/0x010F0029), tag_num=0x01)
  1: 0x09CA [0x1D] PRINT_EVENT_MESSAGE(message_id=3287*)
    → "Here... You understand what you must do? Take this report to the President's Office in Bastok."
  2: 0x09CD [0x23] WAIT_FOR_DIALOG_INTERACTION
  3: 0x09CE [0x29] REQ_SET_WAIT(priority=0x08, entity_id=Melek (ID: 17760297/0x010F0029), tag_num=0x02)
  4: 0x09D5 [0x00] END_REQSTACK()
```

### Event 65535.27

#### Metadata

| Field        | Value   |
|--------------|---------|
| Entrypoint   | 0x09D6  |
| Data Size    | 5 bytes |
| Instructions | 3       |

```
      00 01 02 03 04 05 06 07  08 09 0A 0B 0C 0D 0E 0F
      -- -- -- -- -- -- -- --  -- -- -- -- -- -- -- --
09D0:                   1D 32  80 23 00                       .2.#.     
```

#### Opcodes

```
  0: 0x09D6 [0x1D] PRINT_EVENT_MESSAGE(message_id=3288*)
    → "On your way. Please hurry to Bastok!"
  1: 0x09D9 [0x23] WAIT_FOR_DIALOG_INTERACTION
  2: 0x09DA [0x00] END_REQSTACK()
```

### Event 67

#### Metadata

| Field        | Value    |
|--------------|----------|
| Entrypoint   | 0x09DB   |
| Data Size    | 33 bytes |
| Instructions | 12       |

```
      00 01 02 03 04 05 06 07  08 09 0A 0B 0C 0D 0E 0F
      -- -- -- -- -- -- -- --  -- -- -- -- -- -- -- --
09D0:                                   1E F0 FF FF 7F             .....
09E0: 6F 70 29 08 29 00 0F 01  01 1D 33 80 23 1D 34 80  op).).....3.#.4.
09F0: 23 29 08 29 00 0F 01 08  20 00 21 00              #).).... .!.    
```

#### Opcodes

```
  0: 0x09DB [0x1E] EventEntity looks at LocalPlayer and starts talking
  1: 0x09E0 [0x6F] WAIT_FRAME_DELAY: Yield until WaitTime reaches zero
  2: 0x09E1 [0x70] WAIT_ENTITY_RENDER_FLAG: Wait while EventEntity->Render.Flags3 bit 2 is set (cancel turn if not)
  3: 0x09E2 [0x29] REQ_SET_WAIT(priority=0x08, entity_id=Melek (ID: 17760297/0x010F0029), tag_num=0x01)
  4: 0x09E9 [0x1D] PRINT_EVENT_MESSAGE(message_id=3289*)
    → "Deliver that report to the President's Office in Bastok."
  5: 0x09EC [0x23] WAIT_FOR_DIALOG_INTERACTION
  6: 0x09ED [0x1D] PRINT_EVENT_MESSAGE(message_id=3290*)
    → "Be on your way then... Please hurry back to the homeland!"
  7: 0x09F0 [0x23] WAIT_FOR_DIALOG_INTERACTION
  8: 0x09F1 [0x29] REQ_SET_WAIT(priority=0x08, entity_id=Melek (ID: 17760297/0x010F0029), tag_num=0x08)
  9: 0x09F8 [0x20] SET_CLI_EVENT_UC_FLAG: Unlock player control
 10: 0x09FA [0x21] END_EVENT
 11: 0x09FB [0x00] END_REQSTACK()
```
