# 17760541 - AMAN Liaison

## Common Data

| Field            | Value                   |
|------------------|-------------------------|
| Zone             | Port Windurst (ID: 240) |
| Block Size       | 1632 bytes              |
| Total Events     | 4                       |
| References Count | 68                      |

## List of Events

| Event ID              | Entrypoint   |   Size |   Instructions |
|-----------------------|--------------|--------|----------------|
| [65535](#event-65535) | 0x0000       |      4 |              2 |
| [934](#event-934)     | 0x0004       |    220 |             51 |
| [936](#event-936)     | 0x00E0       |    929 |            205 |
| [935](#event-935)     | 0x0481       |    173 |             40 |

## DAT References (imed_data)

|   Index | Hex Value   |   Dec Value |
|---------|-------------|-------------|
|       0 | 0x41CA      |       16842 |
|       1 | 0x0000      |           0 |
|       2 | 0x41CD      |       16845 |
|       3 | 0x0001      |           1 |
|       4 | 0x0002      |           2 |
|       5 | 0x0003      |           3 |
|       6 | 0x0004      |           4 |
|       7 | 0x0005      |           5 |
|       8 | 0x0006      |           6 |
|       9 | 0x0007      |           7 |
|      10 | 0x0008      |           8 |
|      11 | 0x0009      |           9 |
|      12 | 0x03FE      |        1022 |
|      13 | 0x41CE      |       16846 |
|      14 | 0x41CF      |       16847 |
|      15 | 0x41D0      |       16848 |
|      16 | 0x41D1      |       16849 |
|      17 | 0x41D2      |       16850 |
|      18 | 0x41D3      |       16851 |
|      19 | 0x41D4      |       16852 |
|      20 | 0x41D5      |       16853 |
|      21 | 0x41D6      |       16854 |
|      22 | 0x41D7      |       16855 |
|      23 | 0x41D8      |       16856 |
|      24 | 0x41D9      |       16857 |
|      25 | 0x41DA      |       16858 |
|      26 | 0x41DB      |       16859 |
|      27 | 0x41DC      |       16860 |
|      28 | 0x41DD      |       16861 |
|      29 | 0x41DE      |       16862 |
|      30 | 0x41DF      |       16863 |
|      31 | 0x41E0      |       16864 |
|      32 | 0x41E1      |       16865 |
|      33 | 0x41E2      |       16866 |
|      34 | 0x41E3      |       16867 |
|      35 | 0x41E4      |       16868 |
|      36 | 0x41E5      |       16869 |
|      37 | 0x41E6      |       16870 |
|      38 | 0x41E7      |       16871 |
|      39 | 0x41E8      |       16872 |
|      40 | 0x41E9      |       16873 |
|      41 | 0x41EA      |       16874 |
|      42 | 0x41EB      |       16875 |
|      43 | 0x41EC      |       16876 |
|      44 | 0x41ED      |       16877 |
|      45 | 0x41EE      |       16878 |
|      46 | 0x41EF      |       16879 |
|      47 | 0x41F0      |       16880 |
|      48 | 0x41F1      |       16881 |
|      49 | 0x41F2      |       16882 |
|      50 | 0x41F3      |       16883 |
|      51 | 0x41F4      |       16884 |
|      52 | 0x0E10      |        3600 |
|      53 | 0x003C      |          60 |
|      54 | 0x41F6      |       16886 |
|      55 | 0x41F7      |       16887 |
|      56 | 0x41F8      |       16888 |
|      57 | 0x41F5      |       16885 |
|      58 | 0x41F9      |       16889 |
|      59 | 0x05A8      |        1448 |
|      60 | 0x41CB      |       16843 |
|      61 | 0x41CC      |       16844 |
|      62 | 0x0013      |          19 |
|      63 | 0x001D      |          29 |
|      64 | 0x0027      |          39 |
|      65 | 0x0031      |          49 |
|      66 | 0x003B      |          59 |
|      67 | 0x0045      |          69 |

## String References

- **16842**: This is an explanation of the Assist Channel feature, which allows new and returning players to seek help from veteran adventurers.
- **16843**: You must take on the "$0" Records of Eminence objective before receiving the explanation.
- **16844**: You must complete "$1" before taking on the "$0" Records of Eminence objective.
- **16845**: What do you want to learn about? [What is the Assist Channel?/How can I post a message?/What are the requirements?/Where can I access it?/Tell me about mentor messages./Where can I find mentors?/What are Thumbs Up and Warnings?/What happens if I am muted?/When do my posting rights expire?/Nothing for now.]
- **16846**: The Assist Channel is a special chat channel that allows adventurers to ask questions and receive advice from veteran players known as mentors.
- **16847**: Press the space bar to bring up the text window at the bottom of the screen and type "/assistj (your message)" or "/assiste (your message)" to post your message.
- **16848**: You can also use "/aj" for "/assistj", and "/ae" for "/assiste".
- **16849**: Additionally, pressing CTRL+Q will display "/assistj" or "/assiste" in the text window for you.
- **16850**: You can change the CTRL+Q shortcut command...
- **16851**: ...by going to Main Menu > Config > Misc. 2 > Key Assignment > Commands > Chat: /AssistE or /AssistJ.
- **16852**: It is recommended that you use "/assistj (/aj)" when posting in Japanese, and "/assiste (/ae)" when posting in English.
- **16853**: You must meet one of the following conditions in order to post to the Assist Channel.
- **16854**: 1. You are a new player You may post messages from the moment you first set foot in Vana'diel.
- **16855**: 2. You are a returnee As a returning player, you may post messages upon logging in with a character that has not logged in for at least 48 days.
- **16856**: 3. You are a mentor You may post messages as long as you remain a mentor to other players.
- **16857**: New players and returnees may post messages until they have been logged in for a total of 48 hours since first receiving their posting rights.
- **16858**: If you wish to check how long you can continue to post for, speak to an % and choose "When do my posting rights expire?" to see how much time you have left.
- **16859**: The Assist Channel can only be used in the following areas.
- **16860**: Available areas: $7, $7, $7, $7, $7, $7...
- **16861**: ...$7, $7, $7, $7, $7, $7, $7, $7...
- **16862**: ...$7, $7, $7, $7, $7, $7, $7, $7...
- **16863**: ...$7, $7, $7, and your Mog House (Rent-a-Room).
- **16864**: You cannot post or read messages outside of the areas listed above.
- **16865**: Even in areas where messages are allowed, you cannot post consecutive messages. Please wait a while after posting a message.
- **16866**: Mentor messages are accompanied by a flag (o/) marker. This marker indicates the mentor's reliability (Mentor Class) and experience as an adventurer (Mastery Rank).
- **16867**: As a mentor's Mentor Class increases, the color and shape of the marker will change: o/ > o9 > oC
- **16868**: A oC marker is a sign that the mentor has earned the highest levels of trust from other adventurers.
- **16869**: The number affixed to the marker is the mentor's Mastery Rank, and indicates how experienced the mentor is as an adventurer.
- **16870**: The higher the number, the more experienced the mentor is.
- **16871**: You can check your own Mastery Rank even if you do not serve as a mentor, so feel free to take a look every now and then if you are curious.
- **16872**: You can check your Mastery Rank by going to Main Menu > Status > Profile.
- **16873**: If you wish to speak directly to a mentor, you can search for mentors by going to Main Menu > Help Desk > Mentor Search.
- **16874**: The "Thumbs Up" feature enables you to let mentors know when their comments proved to be especially helpful.
- **16875**: Mentors who earn lots of "Thumbs Up" replies from other adventurers will see their Mentor Class increase.
- **16876**: Remember to give a "Thumbs Up" to any mentor you feel helped you out or taught you something useful.
- **16877**: A "Warning" is a feature that can only be used by mentors.
- **16878**: Please use this feature when a post's contents are insufficient or otherwise may be construed as harassment.
- **16879**: To send a "Thumbs Up" or "Warning" to another player, open the Chat Log Window and move the cursor over the relevant message and press the confirm button (Enter key) to bring up the evaluation menu.
- **16880**: Evaluations can be made for 10 minutes following the designated player's latest post to the Assist Channel.
- **16881**: You may send up to one "Thumbs Up" and one "Warning" per day (Earth time).
- **16882**: The "Mute" feature places restrictions on your ability to post, meaning that other players will be unable to see the messages you post to the Assist Channel.
- **16883**: Please refrain from posting unsuitable content so that the veteran adventurers are not forced to mute you.
- **16884**: Mute status can be removed by players that have the necessary Mute List access rights, or it will be removed automatically 24 hours (Earth time) after the mute status was enabled.
- **16885**: You are free to post messages to the Assist Channel until you decide to stop serving as a mentor.
- **16886**: You may post messages to the Assist Channel until : on //. (Time remaining: Approx. $1 [sec./min./hr.])
- **16887**: If you log out while you still have time available, your remaining time will be carried over to the next time you log in.
- **16888**: You are about to lose the ability to post messages to the Assist Channel.
- **16889**: You are unable to post messages to the Assist Channel.

## Events

### Event 65535

#### Metadata

| Field        | Value   |
|--------------|---------|
| Entrypoint   | 0x0000  |
| Data Size    | 4 bytes |
| Instructions | 2       |

```
      00 01 02 03 04 05 06 07  08 09 0A 0B 0C 0D 0E 0F
      -- -- -- -- -- -- -- --  -- -- -- -- -- -- -- --
0000: 1A AD 04 00                                       ....            
```

#### Opcodes

```
  0: 0x0000 [0x1A] CALL_SUBROUTINE(address=0x04AD)
  1: 0x0003 [0x00] END_REQSTACK()
```

### Event 934

#### Metadata

| Field        | Value     |
|--------------|-----------|
| Entrypoint   | 0x0004    |
| Data Size    | 220 bytes |
| Instructions | 51        |

```
      00 01 02 03 04 05 06 07  08 09 0A 0B 0C 0D 0E 0F
      -- -- -- -- -- -- -- --  -- -- -- -- -- -- -- --
0000:             1E F0 FF FF  7F 6F 70 1D 00 80 23 05      .....op...#.
0010: 05 00 02 05 00 01 80 01  DE 00 24 02 80 04 00 01  ..........$.....
0020: 80 25 02 00 10 01 80 00  35 00 1A 01 02 03 04 00  .%......5.......
0030: 01 80 01 DB 00 02 00 10  03 80 00 48 00 1A 31 02  ...........H..1.
0040: 03 04 00 03 80 01 DB 00  02 00 10 04 80 00 5B 00  ..............[.
0050: 1A 75 02 03 04 00 04 80  01 DB 00 02 00 10 05 80  .u..............
0060: 00 6E 00 1A B9 02 03 04  00 05 80 01 DB 00 02 00  .n..............
0070: 10 06 80 00 81 00 1A 01  03 03 04 00 06 80 01 DB  ................
0080: 00 02 00 10 07 80 00 94  00 1A 49 03 03 04 00 07  ..........I.....
0090: 80 01 DB 00 02 00 10 08  80 00 A7 00 1A 79 03 03  .............y..
00A0: 04 00 08 80 01 DB 00 02  00 10 09 80 00 BA 00 1A  ................
00B0: C5 03 03 04 00 09 80 01  DB 00 02 00 10 0A 80 00  ................
00C0: CD 00 1A FD 03 03 04 00  0A 80 01 DB 00 02 00 10  ................
00D0: 0B 80 00 DB 00 06 05 00  01 DB 00 01 12 00 21 00  ..............!.
```

#### Opcodes

```
  0: 0x0004 [0x1E] EventEntity looks at LocalPlayer and starts talking
  1: 0x0009 [0x6F] WAIT_FRAME_DELAY: Yield until WaitTime reaches zero
  2: 0x000A [0x70] WAIT_ENTITY_RENDER_FLAG: Wait while EventEntity->Render.Flags3 bit 2 is set (cancel turn if not)
  3: 0x000B [0x1D] PRINT_EVENT_MESSAGE(message_id=16842*)
    → "This is an explanation of the Assist Channel feature, which allows new and returning players to seek help from veteran adventurers."
  4: 0x000E [0x23] WAIT_FOR_DIALOG_INTERACTION
  5: 0x000F [0x05] ExtData[1]->WorkLocal[5] = 1
  6: 0x0012 [0x02] IF !(ExtData[1]->WorkLocal[5] == 0*) GOTO 0x00DE
  7: 0x001A [0x24] CREATE_DIALOG(message_id=16845*, default_option=ExtData[1]->WorkLocal[4], option_flags=0*)
    → "What do you want to learn about? [What is the Assist Channel?/How can I post a message?/What are the requirements?/Where can I access it?/Tell me about mentor messages./Where can I find mentors?/What are Thumbs Up and Warnings?/What happens if I am muted?/When do my posting rights expire?/Nothing for now.]"
  8: 0x0021 [0x25] WAIT_DIALOG_SELECT()
  9: 0x0022 [0x02] IF !(Work_Zone[0] == 0*) GOTO 0x0035
 10: 0x002A [0x1A] CALL_SUBROUTINE(address=0x0201)
 11: 0x002D [0x03] ExtData[1]->WorkLocal[4] = 0*
 12: 0x0032 [0x01] GOTO 0x00DB
 13: 0x0035 [0x02] IF !(Work_Zone[0] == 1*) GOTO 0x0048
 14: 0x003D [0x1A] CALL_SUBROUTINE(address=0x0231)
 15: 0x0040 [0x03] ExtData[1]->WorkLocal[4] = 1*
 16: 0x0045 [0x01] GOTO 0x00DB
 17: 0x0048 [0x02] IF !(Work_Zone[0] == 2*) GOTO 0x005B
 18: 0x0050 [0x1A] CALL_SUBROUTINE(address=0x0275)
 19: 0x0053 [0x03] ExtData[1]->WorkLocal[4] = 2*
 20: 0x0058 [0x01] GOTO 0x00DB
 21: 0x005B [0x02] IF !(Work_Zone[0] == 3*) GOTO 0x006E
 22: 0x0063 [0x1A] CALL_SUBROUTINE(address=0x02B9)
 23: 0x0066 [0x03] ExtData[1]->WorkLocal[4] = 3*
 24: 0x006B [0x01] GOTO 0x00DB
 25: 0x006E [0x02] IF !(Work_Zone[0] == 4*) GOTO 0x0081
 26: 0x0076 [0x1A] CALL_SUBROUTINE(address=0x0301)
 27: 0x0079 [0x03] ExtData[1]->WorkLocal[4] = 4*
 28: 0x007E [0x01] GOTO 0x00DB
 29: 0x0081 [0x02] IF !(Work_Zone[0] == 5*) GOTO 0x0094
 30: 0x0089 [0x1A] CALL_SUBROUTINE(address=0x0349)
 31: 0x008C [0x03] ExtData[1]->WorkLocal[4] = 5*
 32: 0x0091 [0x01] GOTO 0x00DB
 33: 0x0094 [0x02] IF !(Work_Zone[0] == 6*) GOTO 0x00A7
 34: 0x009C [0x1A] CALL_SUBROUTINE(address=0x0379)
 35: 0x009F [0x03] ExtData[1]->WorkLocal[4] = 6*
 36: 0x00A4 [0x01] GOTO 0x00DB
 37: 0x00A7 [0x02] IF !(Work_Zone[0] == 7*) GOTO 0x00BA
 38: 0x00AF [0x1A] CALL_SUBROUTINE(address=0x03C5)
 39: 0x00B2 [0x03] ExtData[1]->WorkLocal[4] = 7*
 40: 0x00B7 [0x01] GOTO 0x00DB
 41: 0x00BA [0x02] IF !(Work_Zone[0] == 8*) GOTO 0x00CD
 42: 0x00C2 [0x1A] CALL_SUBROUTINE(address=0x03FD)
 43: 0x00C5 [0x03] ExtData[1]->WorkLocal[4] = 8*
 44: 0x00CA [0x01] GOTO 0x00DB
 45: 0x00CD [0x02] IF !(Work_Zone[0] == 9*) GOTO 0x00DB
 46: 0x00D5 [0x06] ExtData[1]->WorkLocal[5] = 0
 47: 0x00D8 [0x01] GOTO 0x00DB

SUBROUTINE_00DB:
 48: 0x00DB [0x01] GOTO 0x0012
 49: 0x00DE [0x21] END_EVENT
 50: 0x00DF [0x00] END_REQSTACK()
```

### Event 936

#### Metadata

| Field        | Value     |
|--------------|-----------|
| Entrypoint   | 0x00E0    |
| Data Size    | 929 bytes |
| Instructions | 205       |

```
      00 01 02 03 04 05 06 07  08 09 0A 0B 0C 0D 0E 0F
      -- -- -- -- -- -- -- --  -- -- -- -- -- -- -- --
00E0: 42 1E F0 FF FF 7F 6F 70  1D 00 80 23 03 03 00 0C  B.....op...#....
00F0: 80 05 05 00 02 05 00 01  80 01 FF 01 24 02 80 04  ............$...
0100: 00 03 00 25 02 00 10 01  80 00 1E 01 1A 01 02 3D  ...%...........=
0110: 03 00 03 80 03 80 03 04  00 03 80 01 FC 01 02 00  ................
0120: 10 03 80 00 38 01 1A 31  02 3D 03 00 04 80 03 80  ....8..1.=......
0130: 03 04 00 04 80 01 FC 01  02 00 10 04 80 00 52 01  ..............R.
0140: 1A 75 02 3D 03 00 05 80  03 80 03 04 00 05 80 01  .u.=............
0150: FC 01 02 00 10 05 80 00  6C 01 1A B9 02 3D 03 00  ........l....=..
0160: 06 80 03 80 03 04 00 06  80 01 FC 01 02 00 10 06  ................
0170: 80 00 86 01 1A 01 03 3D  03 00 07 80 03 80 03 04  .......=........
0180: 00 07 80 01 FC 01 02 00  10 07 80 00 A0 01 1A 49  ...............I
0190: 03 3D 03 00 08 80 03 80  03 04 00 08 80 01 FC 01  .=..............
01A0: 02 00 10 08 80 00 BA 01  1A 79 03 3D 03 00 09 80  .........y.=....
01B0: 03 80 03 04 00 09 80 01  FC 01 02 00 10 09 80 00  ................
01C0: DB 01 1A C5 03 3D 03 00  0A 80 03 80 3D 03 00 0B  .....=......=...
01D0: 80 03 80 03 04 00 0B 80  01 FC 01 02 00 10 0A 80  ................
01E0: 00 EE 01 1A FD 03 03 04  00 0A 80 01 FC 01 02 00  ................
01F0: 10 0B 80 00 FC 01 06 05  00 01 FC 01 01 F4 00 21  ...............!
0200: 00 66 01 00 F8 FF FF 7F  F8 FF FF 7F 74 6C 6B 30  .f..........tlk0
0210: 1D 0D 80 23 66 01 00 F8  FF FF 7F F8 FF FF 7F 74  ...#f..........t
0220: 6C 6B 31 53 F8 FF FF 7F  F8 FF FF 7F 74 6C 6B 31  lk1S........tlk1
0230: 1B 66 01 00 F8 FF FF 7F  F8 FF FF 7F 74 6C 6B 30  .f..........tlk0
0240: 1D 0E 80 23 1D 0F 80 23  1D 10 80 23 1D 11 80 23  ...#...#...#...#
0250: 1D 12 80 23 1D 13 80 23  66 01 00 F8 FF FF 7F F8  ...#...#f.......
0260: FF FF 7F 74 6C 6B 31 53  F8 FF FF 7F F8 FF FF 7F  ...tlk1S........
0270: 74 6C 6B 31 1B 66 01 00  F8 FF FF 7F F8 FF FF 7F  tlk1.f..........
0280: 74 6C 6B 30 1D 14 80 23  1D 15 80 23 1D 16 80 23  tlk0...#...#...#
0290: 1D 17 80 23 1D 18 80 23  1D 19 80 23 66 01 00 F8  ...#...#...#f...
02A0: FF FF 7F F8 FF FF 7F 74  6C 6B 31 53 F8 FF FF 7F  .......tlk1S....
02B0: F8 FF FF 7F 74 6C 6B 31  1B 66 01 00 F8 FF FF 7F  ....tlk1.f......
02C0: F8 FF FF 7F 74 6C 6B 30  1D 1A 80 23 48 1B 80 23  ....tlk0...#H..#
02D0: 48 1C 80 23 48 1D 80 23  48 1E 80 23 1D 1F 80 23  H..#H..#H..#...#
02E0: 1D 20 80 23 66 01 00 F8  FF FF 7F F8 FF FF 7F 74  . .#f..........t
02F0: 6C 6B 31 53 F8 FF FF 7F  F8 FF FF 7F 74 6C 6B 31  lk1S........tlk1
0300: 1B 66 01 00 F8 FF FF 7F  F8 FF FF 7F 74 6C 6B 30  .f..........tlk0
0310: 1D 21 80 23 1D 22 80 23  1D 23 80 23 1D 24 80 23  .!.#.".#.#.#.$.#
0320: 1D 25 80 23 1D 26 80 23  1D 27 80 23 66 01 00 F8  .%.#.&.#.'.#f...
0330: FF FF 7F F8 FF FF 7F 74  6C 6B 31 53 F8 FF FF 7F  .......tlk1S....
0340: F8 FF FF 7F 74 6C 6B 31  1B 66 01 00 F8 FF FF 7F  ....tlk1.f......
0350: F8 FF FF 7F 74 6C 6B 30  1D 28 80 23 66 01 00 F8  ....tlk0.(.#f...
0360: FF FF 7F F8 FF FF 7F 74  6C 6B 31 53 F8 FF FF 7F  .......tlk1S....
0370: F8 FF FF 7F 74 6C 6B 31  1B 66 01 00 F8 FF FF 7F  ....tlk1.f......
0380: F8 FF FF 7F 74 6C 6B 30  1D 29 80 23 1D 2A 80 23  ....tlk0.).#.*.#
0390: 1D 2B 80 23 1D 2C 80 23  1D 2D 80 23 1D 2E 80 23  .+.#.,.#.-.#...#
03A0: 1D 2F 80 23 1D 30 80 23  66 01 00 F8 FF FF 7F F8  ./.#.0.#f.......
03B0: FF FF 7F 74 6C 6B 31 53  F8 FF FF 7F F8 FF FF 7F  ...tlk1S........
03C0: 74 6C 6B 31 1B 66 01 00  F8 FF FF 7F F8 FF FF 7F  tlk1.f..........
03D0: 74 6C 6B 30 1D 31 80 23  1D 32 80 23 1D 33 80 23  tlk0.1.#.2.#.3.#
03E0: 66 01 00 F8 FF FF 7F F8  FF FF 7F 74 6C 6B 31 53  f..........tlk1S
03F0: F8 FF FF 7F F8 FF FF 7F  74 6C 6B 31 1B 03 01 10  ........tlk1....
0400: 03 80 43 00 43 01 02 05  10 03 80 80 6D 04 03 00  ..C.C.......m...
0410: 00 03 10 15 00 00 34 80  02 00 00 03 80 04 2D 04  ......4.......-.
0420: 03 04 10 04 80 03 03 10  00 00 01 53 04 03 00 00  ...........S....
0430: 03 10 15 00 00 35 80 02  00 00 03 80 04 4E 04 03  .....5.......N..
0440: 04 10 03 80 3F 03 10 00  00 35 80 01 53 04 03 04  ....?....5..S...
0450: 10 01 80 02 04 10 01 80  02 66 04 1D 36 80 23 1D  .........f..6.#.
0460: 37 80 23 01 6A 04 1D 38  80 23 01 80 04 02 05 10  7.#.j..8.#......
0470: 04 80 80 7C 04 1D 39 80  23 01 80 04 1D 3A 80 23  ...|..9.#....:.#
0480: 1B                                                .               
```

#### Opcodes

```
  0: 0x00E0 [0x42] SET_CLI_EVENT_CANCEL_DATA()
  1: 0x00E1 [0x1E] EventEntity looks at LocalPlayer and starts talking
  2: 0x00E6 [0x6F] WAIT_FRAME_DELAY: Yield until WaitTime reaches zero
  3: 0x00E7 [0x70] WAIT_ENTITY_RENDER_FLAG: Wait while EventEntity->Render.Flags3 bit 2 is set (cancel turn if not)
  4: 0x00E8 [0x1D] PRINT_EVENT_MESSAGE(message_id=16842*)
    → "This is an explanation of the Assist Channel feature, which allows new and returning players to seek help from veteran adventurers."
  5: 0x00EB [0x23] WAIT_FOR_DIALOG_INTERACTION
  6: 0x00EC [0x03] ExtData[1]->WorkLocal[3] = 1022*
  7: 0x00F1 [0x05] ExtData[1]->WorkLocal[5] = 1
  8: 0x00F4 [0x02] IF !(ExtData[1]->WorkLocal[5] == 0*) GOTO 0x01FF
  9: 0x00FC [0x24] CREATE_DIALOG(message_id=16845*, default_option=ExtData[1]->WorkLocal[4], option_flags=ExtData[1]->WorkLocal[3])
    → "What do you want to learn about? [What is the Assist Channel?/How can I post a message?/What are the requirements?/Where can I access it?/Tell me about mentor messages./Where can I find mentors?/What are Thumbs Up and Warnings?/What happens if I am muted?/When do my posting rights expire?/Nothing for now.]"
 10: 0x0103 [0x25] WAIT_DIALOG_SELECT()
 11: 0x0104 [0x02] IF !(Work_Zone[0] == 0*) GOTO 0x011E
 12: 0x010C [0x1A] CALL_SUBROUTINE(address=0x0201)
 13: 0x010F [0x3D] CLEAR_BIT_FLAG_CONDITIONAL(target_work_offset=ExtData[1]->WorkLocal[3], bit_index_work_offset=1*, condition_work_offset=1*)
 14: 0x0116 [0x03] ExtData[1]->WorkLocal[4] = 1*
 15: 0x011B [0x01] GOTO 0x01FC
 16: 0x011E [0x02] IF !(Work_Zone[0] == 1*) GOTO 0x0138
 17: 0x0126 [0x1A] CALL_SUBROUTINE(address=0x0231)
 18: 0x0129 [0x3D] CLEAR_BIT_FLAG_CONDITIONAL(target_work_offset=ExtData[1]->WorkLocal[3], bit_index_work_offset=2*, condition_work_offset=1*)
 19: 0x0130 [0x03] ExtData[1]->WorkLocal[4] = 2*
 20: 0x0135 [0x01] GOTO 0x01FC
 21: 0x0138 [0x02] IF !(Work_Zone[0] == 2*) GOTO 0x0152
 22: 0x0140 [0x1A] CALL_SUBROUTINE(address=0x0275)
 23: 0x0143 [0x3D] CLEAR_BIT_FLAG_CONDITIONAL(target_work_offset=ExtData[1]->WorkLocal[3], bit_index_work_offset=3*, condition_work_offset=1*)
 24: 0x014A [0x03] ExtData[1]->WorkLocal[4] = 3*
 25: 0x014F [0x01] GOTO 0x01FC
 26: 0x0152 [0x02] IF !(Work_Zone[0] == 3*) GOTO 0x016C
 27: 0x015A [0x1A] CALL_SUBROUTINE(address=0x02B9)
 28: 0x015D [0x3D] CLEAR_BIT_FLAG_CONDITIONAL(target_work_offset=ExtData[1]->WorkLocal[3], bit_index_work_offset=4*, condition_work_offset=1*)
 29: 0x0164 [0x03] ExtData[1]->WorkLocal[4] = 4*
 30: 0x0169 [0x01] GOTO 0x01FC
 31: 0x016C [0x02] IF !(Work_Zone[0] == 4*) GOTO 0x0186
 32: 0x0174 [0x1A] CALL_SUBROUTINE(address=0x0301)
 33: 0x0177 [0x3D] CLEAR_BIT_FLAG_CONDITIONAL(target_work_offset=ExtData[1]->WorkLocal[3], bit_index_work_offset=5*, condition_work_offset=1*)
 34: 0x017E [0x03] ExtData[1]->WorkLocal[4] = 5*
 35: 0x0183 [0x01] GOTO 0x01FC
 36: 0x0186 [0x02] IF !(Work_Zone[0] == 5*) GOTO 0x01A0
 37: 0x018E [0x1A] CALL_SUBROUTINE(address=0x0349)
 38: 0x0191 [0x3D] CLEAR_BIT_FLAG_CONDITIONAL(target_work_offset=ExtData[1]->WorkLocal[3], bit_index_work_offset=6*, condition_work_offset=1*)
 39: 0x0198 [0x03] ExtData[1]->WorkLocal[4] = 6*
 40: 0x019D [0x01] GOTO 0x01FC
 41: 0x01A0 [0x02] IF !(Work_Zone[0] == 6*) GOTO 0x01BA
 42: 0x01A8 [0x1A] CALL_SUBROUTINE(address=0x0379)
 43: 0x01AB [0x3D] CLEAR_BIT_FLAG_CONDITIONAL(target_work_offset=ExtData[1]->WorkLocal[3], bit_index_work_offset=7*, condition_work_offset=1*)
 44: 0x01B2 [0x03] ExtData[1]->WorkLocal[4] = 7*
 45: 0x01B7 [0x01] GOTO 0x01FC
 46: 0x01BA [0x02] IF !(Work_Zone[0] == 7*) GOTO 0x01DB
 47: 0x01C2 [0x1A] CALL_SUBROUTINE(address=0x03C5)
 48: 0x01C5 [0x3D] CLEAR_BIT_FLAG_CONDITIONAL(target_work_offset=ExtData[1]->WorkLocal[3], bit_index_work_offset=8*, condition_work_offset=1*)
 49: 0x01CC [0x3D] CLEAR_BIT_FLAG_CONDITIONAL(target_work_offset=ExtData[1]->WorkLocal[3], bit_index_work_offset=9*, condition_work_offset=1*)
 50: 0x01D3 [0x03] ExtData[1]->WorkLocal[4] = 9*
 51: 0x01D8 [0x01] GOTO 0x01FC
 52: 0x01DB [0x02] IF !(Work_Zone[0] == 8*) GOTO 0x01EE
 53: 0x01E3 [0x1A] CALL_SUBROUTINE(address=0x03FD)
 54: 0x01E6 [0x03] ExtData[1]->WorkLocal[4] = 8*
 55: 0x01EB [0x01] GOTO 0x01FC
 56: 0x01EE [0x02] IF !(Work_Zone[0] == 9*) GOTO 0x01FC
 57: 0x01F6 [0x06] ExtData[1]->WorkLocal[5] = 0
 58: 0x01F9 [0x01] GOTO 0x01FC

SUBROUTINE_01FC:
 59: 0x01FC [0x01] GOTO 0x00F4
 60: 0x01FF [0x21] END_EVENT
 61: 0x0200 [0x00] END_REQSTACK()

SUBROUTINE_0201:
 62: 0x0201 [0x66] LOAD_EXT_SCHEDULER_MAIN: Load scheduler "tlk0" with entities [EventEntity, EventEntity], work=ExtData[1]->WorkLocal[1]
 63: 0x0210 [0x1D] PRINT_EVENT_MESSAGE(message_id=16846*)
    → "The Assist Channel is a special chat channel that allows adventurers to ask questions and receive advice from veteran players known as mentors."
 64: 0x0213 [0x23] WAIT_FOR_DIALOG_INTERACTION
 65: 0x0214 [0x66] LOAD_EXT_SCHEDULER_MAIN: Load scheduler "tlk1" with entities [EventEntity, EventEntity], work=ExtData[1]->WorkLocal[1]
 66: 0x0223 [0x53] WAIT_SCHEDULER_TASK: Wait for scheduler "tlk1" with entities [EventEntity, EventEntity]
 67: 0x0230 [0x1B] RETURN

SUBROUTINE_0231:
 68: 0x0231 [0x66] LOAD_EXT_SCHEDULER_MAIN: Load scheduler "tlk0" with entities [EventEntity, EventEntity], work=ExtData[1]->WorkLocal[1]
 69: 0x0240 [0x1D] PRINT_EVENT_MESSAGE(message_id=16847*)
    → "Press the space bar to bring up the text window at the bottom of the screen and type "/assistj (your message)" or "/assiste (your message)" to post your message."
 70: 0x0243 [0x23] WAIT_FOR_DIALOG_INTERACTION
 71: 0x0244 [0x1D] PRINT_EVENT_MESSAGE(message_id=16848*)
    → "You can also use "/aj" for "/assistj", and "/ae" for "/assiste"."
 72: 0x0247 [0x23] WAIT_FOR_DIALOG_INTERACTION
 73: 0x0248 [0x1D] PRINT_EVENT_MESSAGE(message_id=16849*)
    → "Additionally, pressing CTRL+Q will display "/assistj" or "/assiste" in the text window for you."
 74: 0x024B [0x23] WAIT_FOR_DIALOG_INTERACTION
 75: 0x024C [0x1D] PRINT_EVENT_MESSAGE(message_id=16850*)
    → "You can change the CTRL+Q shortcut command..."
 76: 0x024F [0x23] WAIT_FOR_DIALOG_INTERACTION
 77: 0x0250 [0x1D] PRINT_EVENT_MESSAGE(message_id=16851*)
    → "...by going to Main Menu > Config > Misc. 2 > Key Assignment > Commands > Chat: /AssistE or /AssistJ."
 78: 0x0253 [0x23] WAIT_FOR_DIALOG_INTERACTION
 79: 0x0254 [0x1D] PRINT_EVENT_MESSAGE(message_id=16852*)
    → "It is recommended that you use "/assistj (/aj)" when posting in Japanese, and "/assiste (/ae)" when posting in English."
 80: 0x0257 [0x23] WAIT_FOR_DIALOG_INTERACTION
 81: 0x0258 [0x66] LOAD_EXT_SCHEDULER_MAIN: Load scheduler "tlk1" with entities [EventEntity, EventEntity], work=ExtData[1]->WorkLocal[1]
 82: 0x0267 [0x53] WAIT_SCHEDULER_TASK: Wait for scheduler "tlk1" with entities [EventEntity, EventEntity]
 83: 0x0274 [0x1B] RETURN

SUBROUTINE_0275:
 84: 0x0275 [0x66] LOAD_EXT_SCHEDULER_MAIN: Load scheduler "tlk0" with entities [EventEntity, EventEntity], work=ExtData[1]->WorkLocal[1]
 85: 0x0284 [0x1D] PRINT_EVENT_MESSAGE(message_id=16853*)
    → "You must meet one of the following conditions in order to post to the Assist Channel."
 86: 0x0287 [0x23] WAIT_FOR_DIALOG_INTERACTION
 87: 0x0288 [0x1D] PRINT_EVENT_MESSAGE(message_id=16854*)
    → "1. You are a new player You may post messages from the moment you first set foot in Vana'diel."
 88: 0x028B [0x23] WAIT_FOR_DIALOG_INTERACTION
 89: 0x028C [0x1D] PRINT_EVENT_MESSAGE(message_id=16855*)
    → "2. You are a returnee As a returning player, you may post messages upon logging in with a character that has not logged in for at least 48 days."
 90: 0x028F [0x23] WAIT_FOR_DIALOG_INTERACTION
 91: 0x0290 [0x1D] PRINT_EVENT_MESSAGE(message_id=16856*)
    → "3. You are a mentor You may post messages as long as you remain a mentor to other players."
 92: 0x0293 [0x23] WAIT_FOR_DIALOG_INTERACTION
 93: 0x0294 [0x1D] PRINT_EVENT_MESSAGE(message_id=16857*)
    → "New players and returnees may post messages until they have been logged in for a total of 48 hours since first receiving their posting rights."
 94: 0x0297 [0x23] WAIT_FOR_DIALOG_INTERACTION
 95: 0x0298 [0x1D] PRINT_EVENT_MESSAGE(message_id=16858*)
    → "If you wish to check how long you can continue to post for, speak to an % and choose "When do my posting rights expire?" to see how much time you have left."
 96: 0x029B [0x23] WAIT_FOR_DIALOG_INTERACTION
 97: 0x029C [0x66] LOAD_EXT_SCHEDULER_MAIN: Load scheduler "tlk1" with entities [EventEntity, EventEntity], work=ExtData[1]->WorkLocal[1]
 98: 0x02AB [0x53] WAIT_SCHEDULER_TASK: Wait for scheduler "tlk1" with entities [EventEntity, EventEntity]
 99: 0x02B8 [0x1B] RETURN

SUBROUTINE_02B9:
100: 0x02B9 [0x66] LOAD_EXT_SCHEDULER_MAIN: Load scheduler "tlk0" with entities [EventEntity, EventEntity], work=ExtData[1]->WorkLocal[1]
101: 0x02C8 [0x1D] PRINT_EVENT_MESSAGE(message_id=16859*)
    → "The Assist Channel can only be used in the following areas."
102: 0x02CB [0x23] WAIT_FOR_DIALOG_INTERACTION
103: 0x02CC [0x48] [System] [16860*]:
    → "Available areas: $7, $7, $7, $7, $7, $7..."
104: 0x02CF [0x23] WAIT_FOR_DIALOG_INTERACTION
105: 0x02D0 [0x48] [System] [16861*]:
    → "...$7, $7, $7, $7, $7, $7, $7, $7..."
106: 0x02D3 [0x23] WAIT_FOR_DIALOG_INTERACTION
107: 0x02D4 [0x48] [System] [16862*]:
    → "...$7, $7, $7, $7, $7, $7, $7, $7..."
108: 0x02D7 [0x23] WAIT_FOR_DIALOG_INTERACTION
109: 0x02D8 [0x48] [System] [16863*]:
    → "...$7, $7, $7, and your Mog House (Rent-a-Room)."
110: 0x02DB [0x23] WAIT_FOR_DIALOG_INTERACTION
111: 0x02DC [0x1D] PRINT_EVENT_MESSAGE(message_id=16864*)
    → "You cannot post or read messages outside of the areas listed above."
112: 0x02DF [0x23] WAIT_FOR_DIALOG_INTERACTION
113: 0x02E0 [0x1D] PRINT_EVENT_MESSAGE(message_id=16865*)
    → "Even in areas where messages are allowed, you cannot post consecutive messages. Please wait a while after posting a message."
114: 0x02E3 [0x23] WAIT_FOR_DIALOG_INTERACTION
115: 0x02E4 [0x66] LOAD_EXT_SCHEDULER_MAIN: Load scheduler "tlk1" with entities [EventEntity, EventEntity], work=ExtData[1]->WorkLocal[1]
116: 0x02F3 [0x53] WAIT_SCHEDULER_TASK: Wait for scheduler "tlk1" with entities [EventEntity, EventEntity]
117: 0x0300 [0x1B] RETURN

SUBROUTINE_0301:
118: 0x0301 [0x66] LOAD_EXT_SCHEDULER_MAIN: Load scheduler "tlk0" with entities [EventEntity, EventEntity], work=ExtData[1]->WorkLocal[1]
119: 0x0310 [0x1D] PRINT_EVENT_MESSAGE(message_id=16866*)
    → "Mentor messages are accompanied by a flag (o/) marker. This marker indicates the mentor's reliability (Mentor Class) and experience as an adventurer (Mastery Rank)."
120: 0x0313 [0x23] WAIT_FOR_DIALOG_INTERACTION
121: 0x0314 [0x1D] PRINT_EVENT_MESSAGE(message_id=16867*)
    → "As a mentor's Mentor Class increases, the color and shape of the marker will change: o/ > o9 > oC"
122: 0x0317 [0x23] WAIT_FOR_DIALOG_INTERACTION
123: 0x0318 [0x1D] PRINT_EVENT_MESSAGE(message_id=16868*)
    → "A oC marker is a sign that the mentor has earned the highest levels of trust from other adventurers."
124: 0x031B [0x23] WAIT_FOR_DIALOG_INTERACTION
125: 0x031C [0x1D] PRINT_EVENT_MESSAGE(message_id=16869*)
    → "The number affixed to the marker is the mentor's Mastery Rank, and indicates how experienced the mentor is as an adventurer."
126: 0x031F [0x23] WAIT_FOR_DIALOG_INTERACTION
127: 0x0320 [0x1D] PRINT_EVENT_MESSAGE(message_id=16870*)
    → "The higher the number, the more experienced the mentor is."
128: 0x0323 [0x23] WAIT_FOR_DIALOG_INTERACTION
129: 0x0324 [0x1D] PRINT_EVENT_MESSAGE(message_id=16871*)
    → "You can check your own Mastery Rank even if you do not serve as a mentor, so feel free to take a look every now and then if you are curious."
130: 0x0327 [0x23] WAIT_FOR_DIALOG_INTERACTION
131: 0x0328 [0x1D] PRINT_EVENT_MESSAGE(message_id=16872*)
    → "You can check your Mastery Rank by going to Main Menu > Status > Profile."
132: 0x032B [0x23] WAIT_FOR_DIALOG_INTERACTION
133: 0x032C [0x66] LOAD_EXT_SCHEDULER_MAIN: Load scheduler "tlk1" with entities [EventEntity, EventEntity], work=ExtData[1]->WorkLocal[1]
134: 0x033B [0x53] WAIT_SCHEDULER_TASK: Wait for scheduler "tlk1" with entities [EventEntity, EventEntity]
135: 0x0348 [0x1B] RETURN

SUBROUTINE_0349:
136: 0x0349 [0x66] LOAD_EXT_SCHEDULER_MAIN: Load scheduler "tlk0" with entities [EventEntity, EventEntity], work=ExtData[1]->WorkLocal[1]
137: 0x0358 [0x1D] PRINT_EVENT_MESSAGE(message_id=16873*)
    → "If you wish to speak directly to a mentor, you can search for mentors by going to Main Menu > Help Desk > Mentor Search."
138: 0x035B [0x23] WAIT_FOR_DIALOG_INTERACTION
139: 0x035C [0x66] LOAD_EXT_SCHEDULER_MAIN: Load scheduler "tlk1" with entities [EventEntity, EventEntity], work=ExtData[1]->WorkLocal[1]
140: 0x036B [0x53] WAIT_SCHEDULER_TASK: Wait for scheduler "tlk1" with entities [EventEntity, EventEntity]
141: 0x0378 [0x1B] RETURN

SUBROUTINE_0379:
142: 0x0379 [0x66] LOAD_EXT_SCHEDULER_MAIN: Load scheduler "tlk0" with entities [EventEntity, EventEntity], work=ExtData[1]->WorkLocal[1]
143: 0x0388 [0x1D] PRINT_EVENT_MESSAGE(message_id=16874*)
    → "The "Thumbs Up" feature enables you to let mentors know when their comments proved to be especially helpful."
144: 0x038B [0x23] WAIT_FOR_DIALOG_INTERACTION
145: 0x038C [0x1D] PRINT_EVENT_MESSAGE(message_id=16875*)
    → "Mentors who earn lots of "Thumbs Up" replies from other adventurers will see their Mentor Class increase."
146: 0x038F [0x23] WAIT_FOR_DIALOG_INTERACTION
147: 0x0390 [0x1D] PRINT_EVENT_MESSAGE(message_id=16876*)
    → "Remember to give a "Thumbs Up" to any mentor you feel helped you out or taught you something useful."
148: 0x0393 [0x23] WAIT_FOR_DIALOG_INTERACTION
149: 0x0394 [0x1D] PRINT_EVENT_MESSAGE(message_id=16877*)
    → "A "Warning" is a feature that can only be used by mentors."
150: 0x0397 [0x23] WAIT_FOR_DIALOG_INTERACTION
151: 0x0398 [0x1D] PRINT_EVENT_MESSAGE(message_id=16878*)
    → "Please use this feature when a post's contents are insufficient or otherwise may be construed as harassment."
152: 0x039B [0x23] WAIT_FOR_DIALOG_INTERACTION
153: 0x039C [0x1D] PRINT_EVENT_MESSAGE(message_id=16879*)
    → "To send a "Thumbs Up" or "Warning" to another player, open the Chat Log Window and move the cursor over the relevant message and press the confirm button (Enter key) to bring up the evaluation menu."
154: 0x039F [0x23] WAIT_FOR_DIALOG_INTERACTION
155: 0x03A0 [0x1D] PRINT_EVENT_MESSAGE(message_id=16880*)
    → "Evaluations can be made for 10 minutes following the designated player's latest post to the Assist Channel."
156: 0x03A3 [0x23] WAIT_FOR_DIALOG_INTERACTION
157: 0x03A4 [0x1D] PRINT_EVENT_MESSAGE(message_id=16881*)
    → "You may send up to one "Thumbs Up" and one "Warning" per day (Earth time)."
158: 0x03A7 [0x23] WAIT_FOR_DIALOG_INTERACTION
159: 0x03A8 [0x66] LOAD_EXT_SCHEDULER_MAIN: Load scheduler "tlk1" with entities [EventEntity, EventEntity], work=ExtData[1]->WorkLocal[1]
160: 0x03B7 [0x53] WAIT_SCHEDULER_TASK: Wait for scheduler "tlk1" with entities [EventEntity, EventEntity]
161: 0x03C4 [0x1B] RETURN

SUBROUTINE_03C5:
162: 0x03C5 [0x66] LOAD_EXT_SCHEDULER_MAIN: Load scheduler "tlk0" with entities [EventEntity, EventEntity], work=ExtData[1]->WorkLocal[1]
163: 0x03D4 [0x1D] PRINT_EVENT_MESSAGE(message_id=16882*)
    → "The "Mute" feature places restrictions on your ability to post, meaning that other players will be unable to see the messages you post to the Assist Channel."
164: 0x03D7 [0x23] WAIT_FOR_DIALOG_INTERACTION
165: 0x03D8 [0x1D] PRINT_EVENT_MESSAGE(message_id=16883*)
    → "Please refrain from posting unsuitable content so that the veteran adventurers are not forced to mute you."
166: 0x03DB [0x23] WAIT_FOR_DIALOG_INTERACTION
167: 0x03DC [0x1D] PRINT_EVENT_MESSAGE(message_id=16884*)
    → "Mute status can be removed by players that have the necessary Mute List access rights, or it will be removed automatically 24 hours (Earth time) after the mute status was enabled."
168: 0x03DF [0x23] WAIT_FOR_DIALOG_INTERACTION
169: 0x03E0 [0x66] LOAD_EXT_SCHEDULER_MAIN: Load scheduler "tlk1" with entities [EventEntity, EventEntity], work=ExtData[1]->WorkLocal[1]
170: 0x03EF [0x53] WAIT_SCHEDULER_TASK: Wait for scheduler "tlk1" with entities [EventEntity, EventEntity]
171: 0x03FC [0x1B] RETURN

SUBROUTINE_03FD:
172: 0x03FD [0x03] Work_Zone[1] = 1*
173: 0x0402 [0x43] SEND_EVENT_UPDATE: Send pending tag to server (packet 0x005B)
174: 0x0404 [0x43] SEND_EVENT_UPDATE: Check pending flag (skip if not pending)
175: 0x0406 [0x02] IF !(Work_Zone[5] == 1*) GOTO 0x046D
176: 0x040E [0x03] ExtData[1]->WorkLocal[0] = Work_Zone[3]
177: 0x0413 [0x15] ExtData[1]->WorkLocal[0] /= 3600*
178: 0x0418 [0x02] IF !(ExtData[1]->WorkLocal[0] < 1*) GOTO 0x042D
179: 0x0420 [0x03] Work_Zone[4] = 2*
180: 0x0425 [0x03] Work_Zone[3] = ExtData[1]->WorkLocal[0]
181: 0x042A [0x01] GOTO 0x0453
182: 0x042D [0x03] ExtData[1]->WorkLocal[0] = Work_Zone[3]
183: 0x0432 [0x15] ExtData[1]->WorkLocal[0] /= 60*
184: 0x0437 [0x02] IF !(ExtData[1]->WorkLocal[0] < 1*) GOTO 0x044E
185: 0x043F [0x03] Work_Zone[4] = 1*
186: 0x0444 [0x3F] Work_Zone[3] = ExtData[1]->WorkLocal[0] % 60*
187: 0x044B [0x01] GOTO 0x0453
188: 0x044E [0x03] Work_Zone[4] = 0*

SUBROUTINE_0453:
189: 0x0453 [0x02] IF !(Work_Zone[4] <= 0*) GOTO 0x0466
190: 0x045B [0x1D] PRINT_EVENT_MESSAGE(message_id=16886*)
    → "You may post messages to the Assist Channel until : on //. (Time remaining: Approx. $1 [sec./min./hr.])"
191: 0x045E [0x23] WAIT_FOR_DIALOG_INTERACTION
192: 0x045F [0x1D] PRINT_EVENT_MESSAGE(message_id=16887*)
    → "If you log out while you still have time available, your remaining time will be carried over to the next time you log in."
193: 0x0462 [0x23] WAIT_FOR_DIALOG_INTERACTION
194: 0x0463 [0x01] GOTO 0x046A
195: 0x0466 [0x1D] PRINT_EVENT_MESSAGE(message_id=16888*)
    → "You are about to lose the ability to post messages to the Assist Channel."
196: 0x0469 [0x23] WAIT_FOR_DIALOG_INTERACTION

SUBROUTINE_046A:
197: 0x046A [0x01] GOTO 0x0480
198: 0x046D [0x02] IF !(Work_Zone[5] == 2*) GOTO 0x047C
199: 0x0475 [0x1D] PRINT_EVENT_MESSAGE(message_id=16885*)
    → "You are free to post messages to the Assist Channel until you decide to stop serving as a mentor."
200: 0x0478 [0x23] WAIT_FOR_DIALOG_INTERACTION
201: 0x0479 [0x01] GOTO 0x0480
202: 0x047C [0x1D] PRINT_EVENT_MESSAGE(message_id=16889*)
    → "You are unable to post messages to the Assist Channel."
203: 0x047F [0x23] WAIT_FOR_DIALOG_INTERACTION

SUBROUTINE_0480:
204: 0x0480 [0x1B] RETURN
```

### Event 935

#### Metadata

| Field        | Value     |
|--------------|-----------|
| Entrypoint   | 0x0481    |
| Data Size    | 173 bytes |
| Instructions | 15        |

```
      00 01 02 03 04 05 06 07  08 09 0A 0B 0C 0D 0E 0F
      -- -- -- -- -- -- -- --  -- -- -- -- -- -- -- --
0480:    03 02 00 02 10 1E F0  FF FF 7F 6F 70 03 02 10   ..........op...
0490: 3B 80 03 03 10 03 80 1D  00 80 23 48 3C 80 23 02  ;.........#H<.#.
04A0: 02 00 01 80 00 AB 04 48  3D 80 23 21 00 02 07 7F  .......H=.#!....
04B0: 03 80 80 BD 04 03 01 00  0B 80 01 2D 05 02 07 7F  ...........-....
04C0: 04 80 80 CD 04 03 01 00  3E 80 01 2D 05 02 07 7F  ........>..-....
04D0: 05 80 80 DD 04 03 01 00  3F 80 01 2D 05 02 07 7F  ........?..-....
04E0: 06 80 80 ED 04 03 01 00  40 80 01 2D 05 02 07 7F  ........@..-....
04F0: 07 80 80 FD 04 03 01 00  41 80 01 2D 05 02 07 7F  ........A..-....
0500: 08 80 80 0D 05 03 01 00  41 80 01 2D 05 02 07 7F  ........A..-....
0510: 09 80 80 1D 05 03 01 00  42 80 01 2D 05 02 07 7F  ........B..-....
0520: 0A 80 80 2D 05 03 01 00  43 80 01 2D 05 1B        ...-....C..-..  
```

#### Opcodes

```
  0: 0x0481 [0x03] ExtData[1]->WorkLocal[2] = Work_Zone[2]
  1: 0x0486 [0x1E] EventEntity looks at LocalPlayer and starts talking
  2: 0x048B [0x6F] WAIT_FRAME_DELAY: Yield until WaitTime reaches zero
  3: 0x048C [0x70] WAIT_ENTITY_RENDER_FLAG: Wait while EventEntity->Render.Flags3 bit 2 is set (cancel turn if not)
  4: 0x048D [0x03] Work_Zone[2] = 1448*
  5: 0x0492 [0x03] Work_Zone[3] = 1*
  6: 0x0497 [0x1D] PRINT_EVENT_MESSAGE(message_id=16842*)
    → "This is an explanation of the Assist Channel feature, which allows new and returning players to seek help from veteran adventurers."
  7: 0x049A [0x23] WAIT_FOR_DIALOG_INTERACTION
  8: 0x049B [0x48] [System] [16843*]:
    → "You must take on the "$0" Records of Eminence objective before receiving the explanation."
  9: 0x049E [0x23] WAIT_FOR_DIALOG_INTERACTION
 10: 0x049F [0x02] IF !(ExtData[1]->WorkLocal[2] == 0*) GOTO 0x04AB
 11: 0x04A7 [0x48] [System] [16844*]:
    → "You must complete "$1" before taking on the "$0" Records of Eminence objective."
 12: 0x04AA [0x23] WAIT_FOR_DIALOG_INTERACTION
 13: 0x04AB [0x21] END_EVENT
 14: 0x04AC [0x00] END_REQSTACK()
```

#### Data or dead code:

```
# Dead code (unreachable instructions):
     0x04AD [0x02] IF !(Entity->Race == 1*) GOTO 0x04BD
     0x04B5 [0x03] ExtData[1]->WorkLocal[1] = 9*
     0x04BA [0x01] GOTO 0x052D
     0x04BD [0x02] IF !(Entity->Race == 2*) GOTO 0x04CD
     0x04C5 [0x03] ExtData[1]->WorkLocal[1] = 19*
     0x04CA [0x01] GOTO 0x052D
     0x04CD [0x02] IF !(Entity->Race == 3*) GOTO 0x04DD
     0x04D5 [0x03] ExtData[1]->WorkLocal[1] = 29*
     0x04DA [0x01] GOTO 0x052D
     0x04DD [0x02] IF !(Entity->Race == 4*) GOTO 0x04ED
     0x04E5 [0x03] ExtData[1]->WorkLocal[1] = 39*
     0x04EA [0x01] GOTO 0x052D
     0x04ED [0x02] IF !(Entity->Race == 5*) GOTO 0x04FD
     0x04F5 [0x03] ExtData[1]->WorkLocal[1] = 49*
     0x04FA [0x01] GOTO 0x052D
     0x04FD [0x02] IF !(Entity->Race == 6*) GOTO 0x050D
     0x0505 [0x03] ExtData[1]->WorkLocal[1] = 49*
     0x050A [0x01] GOTO 0x052D
     0x050D [0x02] IF !(Entity->Race == 7*) GOTO 0x051D
     0x0515 [0x03] ExtData[1]->WorkLocal[1] = 59*
     0x051A [0x01] GOTO 0x052D
     0x051D [0x02] IF !(Entity->Race == 8*) GOTO 0x052D
     0x0525 [0x03] ExtData[1]->WorkLocal[1] = 69*
     0x052A [0x01] GOTO 0x052D
     0x052D [0x1B] RETURN
```
