# 17760271 - Ten of Clubs

## Common Data

| Field            | Value                   |
|------------------|-------------------------|
| Zone             | Port Windurst (ID: 240) |
| Block Size       | 920 bytes               |
| Total Events     | 32                      |
| References Count | 58                      |

## List of Events

| Event ID                 | Entrypoint   |   Size |   Instructions |
|--------------------------|--------------|--------|----------------|
| [65535](#event-65535)    | 0x0000       |      1 |              1 |
| [75](#event-75)          | 0x0001       |     23 |             12 |
| [80](#event-80)          | 0x0018       |     19 |             10 |
| [83](#event-83)          | 0x002B       |      1 |              1 |
| [65535.1](#event-655351) | 0x002C       |      5 |              3 |
| [65535.2](#event-655352) | 0x0031       |      5 |              3 |
| [87](#event-87)          | 0x0036       |     23 |             12 |
| [103](#event-103)        | 0x004D       |     19 |             10 |
| [107](#event-107)        | 0x0060       |     19 |             10 |
| [113](#event-113)        | 0x0073       |     19 |             10 |
| [118](#event-118)        | 0x0086       |     19 |             10 |
| [122](#event-122)        | 0x0099       |     19 |             10 |
| [135](#event-135)        | 0x00AC       |     15 |              8 |
| [141](#event-141)        | 0x00BB       |     15 |              8 |
| [146](#event-146)        | 0x00CA       |     19 |             10 |
| [157](#event-157)        | 0x00DD       |     19 |             10 |
| [162](#event-162)        | 0x00F0       |     19 |             10 |
| [167](#event-167)        | 0x0103       |     19 |             10 |
| [172](#event-172)        | 0x0116       |     19 |             10 |
| [177](#event-177)        | 0x0129       |     19 |             10 |
| [180](#event-180)        | 0x013C       |     19 |             10 |
| [490](#event-490)        | 0x014F       |     19 |             10 |
| [455](#event-455)        | 0x0162       |     19 |             10 |
| [466](#event-466)        | 0x0175       |     19 |             10 |
| [471](#event-471)        | 0x0188       |     19 |             10 |
| [476](#event-476)        | 0x019B       |     19 |             10 |
| [481](#event-481)        | 0x01AE       |     19 |             10 |
| [486](#event-486)        | 0x01C1       |     19 |             10 |
| [557](#event-557)        | 0x01D4       |     19 |             10 |
| [565](#event-565)        | 0x01E7       |     19 |             10 |
| [562](#event-562)        | 0x01FA       |     19 |             10 |
| [569](#event-569)        | 0x020D       |     19 |             10 |

## DAT References (imed_data)

|   Index | Hex Value   |   Dec Value |
|---------|-------------|-------------|
|       0 | 0x0CE9      |        3305 |
|       1 | 0x0CEA      |        3306 |
|       2 | 0x0CEB      |        3307 |
|       3 | 0x0CF2      |        3314 |
|       4 | 0x0CF3      |        3315 |
|       5 | 0x0CFE      |        3326 |
|       6 | 0x0D0B      |        3339 |
|       7 | 0x0D1A      |        3354 |
|       8 | 0x0D1B      |        3355 |
|       9 | 0x0D1C      |        3356 |
|      10 | 0x0D3F      |        3391 |
|      11 | 0x0D40      |        3392 |
|      12 | 0x0D4B      |        3403 |
|      13 | 0x0D4C      |        3404 |
|      14 | 0x0D5F      |        3423 |
|      15 | 0x0D60      |        3424 |
|      16 | 0x0D6A      |        3434 |
|      17 | 0x0D6B      |        3435 |
|      18 | 0x0D74      |        3444 |
|      19 | 0x0D75      |        3445 |
|      20 | 0x0D7F      |        3455 |
|      21 | 0x0D8C      |        3468 |
|      22 | 0x0D97      |        3479 |
|      23 | 0x0D98      |        3480 |
|      24 | 0x0DB7      |        3511 |
|      25 | 0x0DB8      |        3512 |
|      26 | 0x0DC1      |        3521 |
|      27 | 0x0DC2      |        3522 |
|      28 | 0x0DCB      |        3531 |
|      29 | 0x0DCC      |        3532 |
|      30 | 0x0DD6      |        3542 |
|      31 | 0x0DD7      |        3543 |
|      32 | 0x0DE0      |        3552 |
|      33 | 0x0DE1      |        3553 |
|      34 | 0x0DE6      |        3558 |
|      35 | 0x0DE7      |        3559 |
|      36 | 0x2FEB      |       12267 |
|      37 | 0x2FEC      |       12268 |
|      38 | 0x2FF5      |       12277 |
|      39 | 0x2FF6      |       12278 |
|      40 | 0x301E      |       12318 |
|      41 | 0x301F      |       12319 |
|      42 | 0x3029      |       12329 |
|      43 | 0x302A      |       12330 |
|      44 | 0x3035      |       12341 |
|      45 | 0x3036      |       12342 |
|      46 | 0x3041      |       12353 |
|      47 | 0x3042      |       12354 |
|      48 | 0x304E      |       12366 |
|      49 | 0x304F      |       12367 |
|      50 | 0x3133      |       12595 |
|      51 | 0x3134      |       12596 |
|      52 | 0x3138      |       12600 |
|      53 | 0x3139      |       12601 |
|      54 | 0x3153      |       12627 |
|      55 | 0x3154      |       12628 |
|      56 | 0x315D      |       12637 |
|      57 | 0x315E      |       12638 |

## String References

- **3305**: CArdIAns wErE$26oRiG-iNallY CreATed$26to DEfeAt$26bAd PeoPle$26aNd BaD$26mOnStErs!
- **3306**: oUr$26mEgAtOn pUnch$26And whIrly-gIg$26AttAck ArE$26OUr spEcIAlItIes.$26OUr sUpEr-spEcIAl$26trIck thOUgh...
- **3307**: ...Is$26tO rUn$26AwAy, hEltEr-skEltEr!
- **3314**: CArdIAns wErE$26oRiG-iNallY CreATed$26to DEfeAt$26bAd PeoPle$26aNd BaD$26mOnStErs!
- **3315**: thE prEvIOUs gEnErAtIOn$26Of CArdIAns ArE sAId$26tO hAvE plAyEd A grEAt$26rOlE In thE wAr!
- **3326**: AffIrmAtIvE! mOst$26dEgrAdIng!
- **3339**: mIssIOns cAn$26Only bE$26AcquIrEd frOm$26thE gAtEhOUsEs.
- **3354**: In$26thE OrAstEry$26thErE ArE$26mAny AutO-mAtOn$26guArds whO$26hAve lOst$26thEIr lIfE$26EnErgy And$26lIE thErE$26In pIEcEs!
- **3355**: bUt whEn$26wE cArdIAns$26sEE thAt,$26wE dO$26nOt fEEl$26AnythIng!
- **3356**: pErhAps$26whEn tEn$26bE-cOmEs A$26kInG Or$26A quEEn,$26tEn wIll$26bE AblE$26tO fEEl$26EmOtIOns!?
- **3391**: WhAT$26wAS$26Ex-PE-rI-MeNt$26yOu$26WeNT$26hELp$26OuT!?
- **3392**: YoU$26nOt$26KnoW!? ThAt$26iS$26StRaNgE!
- **3403**: ArE$26yOU gOIng$26tO hElp$26crEAtE cArdIAns$26At thE$26mAnUstEry?$26thEn thAt$26mAkEs yOU$26cArdIAn's mOthEr!
- **3404**: Mo\`m-my!
- **3423**: thErE ArE$26OthEr typEs$26Of bEAstmEn$26thAt lIve$26clOse tO$26thE othEr$26cOUntrIEs And$26cAUse trOUblE$26lIkE thE$26yAgUdO dO$26tO wIndUrst!
- **3424**: thE$26OthEr cOUntrIEs$26ArE stIll$26At wAr$26wIth thEIr$26bEAstmEn, bUt$26wIndUrst hAs$26pEAcE!$26dOEs thAt$26mAke wIndUrst$26bEttEr Off?
- **3434**: As cArdIAns$26bEcOmE mOrE$26And mOrE$26lIkE rEAl$26pEOplE thEy$26bEcOmE strOngEr!
- **3435**: bUt$26It Is$26A lOng$26And slOw$26rOAd...!
- **3444**: cArdIAns ArE$26UnAblE tO$26rEAd thE$26bOOks In$26thE lIbrAry$26Of mAgIc!
- **3445**: cArdIAns$26Are pOtEntly$26strOng mAgIcAl$26thIngs sO$26ArE nOt$26pErmIttEd tO$26tOUch mAgIc$26bOOks!
- **3455**: tEn$26wAnts tO$26gO tO$26schOOl sO$26tEn cAn$26mAkE tEns$26Of frIEnds!
- **3468**: gOOd-byE. If$26yOU dO$26tUrn IntO$26A stAr,$26try nOt$26tO fAll$26frOm thE$26nIght-sky.
- **3479**: mOst$26Of thE mIthrA$26In wIndUrst sErvE$26thE trIbAl chIEf, PErIh$26VAshAI!
- **3480**: thE sIbyl$26gUArds sErvE thE$26stAr sIbyl! why? tEn$26dOEs nOt knOw!
- **3511**: thE stAr$26frUIt thAt$26ArE UsEd$26tO mAkE$26thE hEAds$26Of cArdIAns$26Are grOwn$26In thE$26bAsEmEnt Of$26hEAvEns tOwEr!
- **3512**: bUt$26tEn hAs$26nO mEmOry$26frOm whEn$26tEn wAs$26A frUIt$26grOwIng On$26A trEE.$26Is It$26nOt strAngE?
- **3521**: tEn hEArd$26sOmEthIng pErcUlIAr...!$26thErE$26ArE nO$26cArdIAns In$26hEAvEns tOwEr...!?
- **3522**: sO$26whErE ArE$26thE kIng,$26qUEEn, And$26AcE cArdIAns?
- **3531**: It$26lOOks lIkE$26thE cAptAIns$26Of thE$26gUArds In$26EAch dIstrIct$26hAvE hAd$26EmErgEncy EquIpmEnt$26dIstrIbUtEd tO$26thEm!
- **3532**: bUt thE$26EmErgEncy lImItErs$26On thE$26cArdIAns hAvE$26nOt bEEn$26rEmOvEd yEt...
- **3542**: tEn$26OncE lEArnt$26thAt thE$26rUIns Of$26fEI'yIn ArE$26AncIEnt cOnstrUctIOns!
- **3543**: tEn wOndErs$26whAt lEgAcy$26prEsEnt cArdIAns$26cAn lEAvE$26bEhInd fOr$26fUtUrE cArdIAns!
- **3552**: hEAvEns$26tOwEr Is$26cAllIng fOr$26yOU AgAIn!$26tEn thInks$26AnOthEr mAjOr$26mIssIOn wIll$26bE pUshEd$26UpOn yOU!
- **3553**: plEAsE cOmE bAck tO wIndUrst sAfE And sOUnd thIs tIme tOO!
- **3558**: hAvE yOU$26bEcOmE strOngEr$26sIncE thE$26lAst tImE$26wE mEt?
- **3559**: kEEp$26thIs Up$26And yOU$26cOUld EvEn$26prOvE yOUrsElf$26A mAtch$26tO wE$26cArdIAns!
- **12267**: TeN$26hAs FiNaLLy$26LeARnEd tHe$26nAmES aNd aDDreSSeS oF$26aLL tHe$26pEOpLE iN$26WiNdURst.
- **12268**: NeXT,$26TeN woULd$26LiKe tO$26LeARn aBoUT$26tHe pEOpLE$26oF SaN d'OriA$26aND BaSToK... TeN$26ReaLLy wAnTs$26tO tRaVeL...
- **12277**: THe$26mAgIC ToWeRS$26iN SaRuTa-bArUtA$26aRe nOT$26fUnCTiON-aL...$26BuT rEcEntLY$26thEY hAvE$26bEEn ACtiVE$26fOr sHOrt$26pERioDs oF$26tIMe.
- **12278**: TeN$26wONdErs iF$26sOmEOnE$26iS rEpaIR-iNg$26tHEm...
- **12318**: We$26cARdiANs hAVe$26neVeR coMMiTTed$26a cRiMe.
- **12319**: FrOM tHE MoMeNt$26we ComMIt$26a cRImE,$26wE aRE nO$26LoNGer cARdiANs.
- **12329**: ThE$26OptISteRy MiNiStEr$26wAS CaRRyiNg$26aN iM-pORtaNt-LoOk-iNg$26bOx.
- **12330**: TeN$26wONdeRs wHAt$26wAS iNsIDe$26tHE bOx.
- **12341**: TheRe$26aRE mAnY$26tHInGS tHaT$26wE cARdIAnS$26StiLL hAVe$26tO LEaRn.
- **12342**: TeN$26wIShEs hE$26CoULd hAVe$26sTUdiED mORe...
- **12353**: WhAT$26sUbjECt doES$26tHe pRIncIpaL$26tEAcH?
- **12354**: TheY$26aLReADy hAvE$26tEAcHeRs fOr$26aLL tHe$26kInDS oF$26mAGiC... MaYBe$26hE tEAcHeS$26MaRtIaL aRTs$26oR sWOrdSmaN-shIp?
- **12366**: ThE$26RogUE cARdIAns$26in tHE$26HoRuToTo RuINs$26aRe aLL$26sTiRReD up$26fOr SoMe$26rEAsOn.
- **12367**: ThOSe cARdIAns$26wErE aLL$26cREatEd bY$26MoTHeR ApUrUrU's$26faTHeR, bUt$26I DoN't$26tHInK tHAt$26hAs aNY$26cOnNEctIOn...
- **12595**: SiNCe$26tHIs iNciDEnT$26bEgAn, wE hAVe$26NoTicED sEVeRaL$26AbiLiTiEs wiTHiN$26uS.
- **12596**: OnCe$26tHiNgs hAVe$26SetTLed dOWn$26fOr MoTHeR ApUrUrU,$26TeN wAnTS$26tO REpoRt$26thEsE FiNdiNGs$26tO hEr.
- **12600**: We cARdiAnS$26hAVe beEN$26iN-puTTeD wiTh$26a LiSt oF$26dANgeROuS ChArAcTErs$26iN WinDUrSt.
- **12601**: We hAVe$26OrdERs tO$26bE pARticULarLy$26viGiLaNT wiTH$26rEgARdS tO$26ThrEE PeopLe: ZoNpa-ZiPpa,$26HoNoi-GoMoi,$26aNd ShanToTTo.
- **12627**: WhAt$26bUSineSS Do$26tHe RoGUe$26cARdiAnS hAVe$26iN tHe$26cENtraL MaGiC$26tOWeR?
- **12628**: It sEEms tHAt$26a cONsiDErabLE$26nUmbER oF cARdiAnS$26hAVe gATheREd$26wiTHiN iTs$26DepTHs.
- **12637**: ThiNKiNg$26tAkEs uP a$26LoT oF eNeRgy$26aNd CoNceN-tRatioN.$26It cAn CaUSe$26cARdiAnS to$26bReaK DoWn.
- **12638**: MoTheR ApUrUrU$26toLD TeN tHaT$26eVeN PEopLe$26sPeNd tHEiR$26WhoLe LiVes$26fiNdiNg oUt$26whO tHEy$26TruLy aRe.

## Events

### Event 65535

#### Metadata

| Field        | Value   |
|--------------|---------|
| Entrypoint   | 0x0000  |
| Data Size    | 1 bytes |
| Instructions | 1       |

```
      00 01 02 03 04 05 06 07  08 09 0A 0B 0C 0D 0E 0F
      -- -- -- -- -- -- -- --  -- -- -- -- -- -- -- --
0000: 00                                                .               
```

#### Opcodes

```
  0: 0x0000 [0x00] END_REQSTACK()
```

### Event 75

#### Metadata

| Field        | Value    |
|--------------|----------|
| Entrypoint   | 0x0001   |
| Data Size    | 23 bytes |
| Instructions | 12       |

```
      00 01 02 03 04 05 06 07  08 09 0A 0B 0C 0D 0E 0F
      -- -- -- -- -- -- -- --  -- -- -- -- -- -- -- --
0000:    1E F0 FF FF 7F 6F 70  1D 00 80 23 1D 01 80 23   .....op...#...#
0010: 1D 02 80 23 20 00 21 00                           ...# .!.        
```

#### Opcodes

```
  0: 0x0001 [0x1E] EventEntity looks at LocalPlayer and starts talking
  1: 0x0006 [0x6F] WAIT_FRAME_DELAY: Yield until WaitTime reaches zero
  2: 0x0007 [0x70] WAIT_ENTITY_RENDER_FLAG: Wait while EventEntity->Render.Flags3 bit 2 is set (cancel turn if not)
  3: 0x0008 [0x1D] PRINT_EVENT_MESSAGE(message_id=3305*)
    → "CArdIAns wErE$26oRiG-iNallY CreATed$26to DEfeAt$26bAd PeoPle$26aNd BaD$26mOnStErs!"
  4: 0x000B [0x23] WAIT_FOR_DIALOG_INTERACTION
  5: 0x000C [0x1D] PRINT_EVENT_MESSAGE(message_id=3306*)
    → "oUr$26mEgAtOn pUnch$26And whIrly-gIg$26AttAck ArE$26OUr spEcIAlItIes.$26OUr sUpEr-spEcIAl$26trIck thOUgh..."
  6: 0x000F [0x23] WAIT_FOR_DIALOG_INTERACTION
  7: 0x0010 [0x1D] PRINT_EVENT_MESSAGE(message_id=3307*)
    → "...Is$26tO rUn$26AwAy, hEltEr-skEltEr!"
  8: 0x0013 [0x23] WAIT_FOR_DIALOG_INTERACTION
  9: 0x0014 [0x20] SET_CLI_EVENT_UC_FLAG: Unlock player control
 10: 0x0016 [0x21] END_EVENT
 11: 0x0017 [0x00] END_REQSTACK()
```

### Event 80

#### Metadata

| Field        | Value    |
|--------------|----------|
| Entrypoint   | 0x0018   |
| Data Size    | 19 bytes |
| Instructions | 10       |

```
      00 01 02 03 04 05 06 07  08 09 0A 0B 0C 0D 0E 0F
      -- -- -- -- -- -- -- --  -- -- -- -- -- -- -- --
0010:                          1E F0 FF FF 7F 6F 70 1D          .....op.
0020: 03 80 23 1D 04 80 23 20  00 21 00                 ..#...# .!.     
```

#### Opcodes

```
  0: 0x0018 [0x1E] EventEntity looks at LocalPlayer and starts talking
  1: 0x001D [0x6F] WAIT_FRAME_DELAY: Yield until WaitTime reaches zero
  2: 0x001E [0x70] WAIT_ENTITY_RENDER_FLAG: Wait while EventEntity->Render.Flags3 bit 2 is set (cancel turn if not)
  3: 0x001F [0x1D] PRINT_EVENT_MESSAGE(message_id=3314*)
    → "CArdIAns wErE$26oRiG-iNallY CreATed$26to DEfeAt$26bAd PeoPle$26aNd BaD$26mOnStErs!"
  4: 0x0022 [0x23] WAIT_FOR_DIALOG_INTERACTION
  5: 0x0023 [0x1D] PRINT_EVENT_MESSAGE(message_id=3315*)
    → "thE prEvIOUs gEnErAtIOn$26Of CArdIAns ArE sAId$26tO hAvE plAyEd A grEAt$26rOlE In thE wAr!"
  6: 0x0026 [0x23] WAIT_FOR_DIALOG_INTERACTION
  7: 0x0027 [0x20] SET_CLI_EVENT_UC_FLAG: Unlock player control
  8: 0x0029 [0x21] END_EVENT
  9: 0x002A [0x00] END_REQSTACK()
```

### Event 83

#### Metadata

| Field        | Value   |
|--------------|---------|
| Entrypoint   | 0x002B  |
| Data Size    | 1 bytes |
| Instructions | 1       |

```
      00 01 02 03 04 05 06 07  08 09 0A 0B 0C 0D 0E 0F
      -- -- -- -- -- -- -- --  -- -- -- -- -- -- -- --
0020:                                   00                         .    
```

#### Opcodes

```
  0: 0x002B [0x00] END_REQSTACK()
```

### Event 65535.1

#### Metadata

| Field        | Value   |
|--------------|---------|
| Entrypoint   | 0x002C  |
| Data Size    | 5 bytes |
| Instructions | 3       |

```
      00 01 02 03 04 05 06 07  08 09 0A 0B 0C 0D 0E 0F
      -- -- -- -- -- -- -- --  -- -- -- -- -- -- -- --
0020:                                      1D 05 80 23              ...#
0030: 00                                                .               
```

#### Opcodes

```
  0: 0x002C [0x1D] PRINT_EVENT_MESSAGE(message_id=3326*)
    → "AffIrmAtIvE! mOst$26dEgrAdIng!"
  1: 0x002F [0x23] WAIT_FOR_DIALOG_INTERACTION
  2: 0x0030 [0x00] END_REQSTACK()
```

### Event 65535.2

#### Metadata

| Field        | Value   |
|--------------|---------|
| Entrypoint   | 0x0031  |
| Data Size    | 5 bytes |
| Instructions | 3       |

```
      00 01 02 03 04 05 06 07  08 09 0A 0B 0C 0D 0E 0F
      -- -- -- -- -- -- -- --  -- -- -- -- -- -- -- --
0030:    1D 06 80 23 00                                  ...#.          
```

#### Opcodes

```
  0: 0x0031 [0x1D] PRINT_EVENT_MESSAGE(message_id=3339*)
    → "mIssIOns cAn$26Only bE$26AcquIrEd frOm$26thE gAtEhOUsEs."
  1: 0x0034 [0x23] WAIT_FOR_DIALOG_INTERACTION
  2: 0x0035 [0x00] END_REQSTACK()
```

### Event 87

#### Metadata

| Field        | Value    |
|--------------|----------|
| Entrypoint   | 0x0036   |
| Data Size    | 23 bytes |
| Instructions | 12       |

```
      00 01 02 03 04 05 06 07  08 09 0A 0B 0C 0D 0E 0F
      -- -- -- -- -- -- -- --  -- -- -- -- -- -- -- --
0030:                   1E F0  FF FF 7F 6F 70 1D 07 80        .....op...
0040: 23 1D 08 80 23 1D 09 80  23 20 00 21 00           #...#...# .!.   
```

#### Opcodes

```
  0: 0x0036 [0x1E] EventEntity looks at LocalPlayer and starts talking
  1: 0x003B [0x6F] WAIT_FRAME_DELAY: Yield until WaitTime reaches zero
  2: 0x003C [0x70] WAIT_ENTITY_RENDER_FLAG: Wait while EventEntity->Render.Flags3 bit 2 is set (cancel turn if not)
  3: 0x003D [0x1D] PRINT_EVENT_MESSAGE(message_id=3354*)
    → "In$26thE OrAstEry$26thErE ArE$26mAny AutO-mAtOn$26guArds whO$26hAve lOst$26thEIr lIfE$26EnErgy And$26lIE thErE$26In pIEcEs!"
  4: 0x0040 [0x23] WAIT_FOR_DIALOG_INTERACTION
  5: 0x0041 [0x1D] PRINT_EVENT_MESSAGE(message_id=3355*)
    → "bUt whEn$26wE cArdIAns$26sEE thAt,$26wE dO$26nOt fEEl$26AnythIng!"
  6: 0x0044 [0x23] WAIT_FOR_DIALOG_INTERACTION
  7: 0x0045 [0x1D] PRINT_EVENT_MESSAGE(message_id=3356*)
    → "pErhAps$26whEn tEn$26bE-cOmEs A$26kInG Or$26A quEEn,$26tEn wIll$26bE AblE$26tO fEEl$26EmOtIOns!?"
  8: 0x0048 [0x23] WAIT_FOR_DIALOG_INTERACTION
  9: 0x0049 [0x20] SET_CLI_EVENT_UC_FLAG: Unlock player control
 10: 0x004B [0x21] END_EVENT
 11: 0x004C [0x00] END_REQSTACK()
```

### Event 103

#### Metadata

| Field        | Value    |
|--------------|----------|
| Entrypoint   | 0x004D   |
| Data Size    | 19 bytes |
| Instructions | 10       |

```
      00 01 02 03 04 05 06 07  08 09 0A 0B 0C 0D 0E 0F
      -- -- -- -- -- -- -- --  -- -- -- -- -- -- -- --
0040:                                         1E F0 FF               ...
0050: FF 7F 6F 70 1D 0A 80 23  1D 0B 80 23 20 00 21 00  ..op...#...# .!.
```

#### Opcodes

```
  0: 0x004D [0x1E] EventEntity looks at LocalPlayer and starts talking
  1: 0x0052 [0x6F] WAIT_FRAME_DELAY: Yield until WaitTime reaches zero
  2: 0x0053 [0x70] WAIT_ENTITY_RENDER_FLAG: Wait while EventEntity->Render.Flags3 bit 2 is set (cancel turn if not)
  3: 0x0054 [0x1D] PRINT_EVENT_MESSAGE(message_id=3391*)
    → "WhAT$26wAS$26Ex-PE-rI-MeNt$26yOu$26WeNT$26hELp$26OuT!?"
  4: 0x0057 [0x23] WAIT_FOR_DIALOG_INTERACTION
  5: 0x0058 [0x1D] PRINT_EVENT_MESSAGE(message_id=3392*)
    → "YoU$26nOt$26KnoW!? ThAt$26iS$26StRaNgE!"
  6: 0x005B [0x23] WAIT_FOR_DIALOG_INTERACTION
  7: 0x005C [0x20] SET_CLI_EVENT_UC_FLAG: Unlock player control
  8: 0x005E [0x21] END_EVENT
  9: 0x005F [0x00] END_REQSTACK()
```

### Event 107

#### Metadata

| Field        | Value    |
|--------------|----------|
| Entrypoint   | 0x0060   |
| Data Size    | 19 bytes |
| Instructions | 10       |

```
      00 01 02 03 04 05 06 07  08 09 0A 0B 0C 0D 0E 0F
      -- -- -- -- -- -- -- --  -- -- -- -- -- -- -- --
0060: 1E F0 FF FF 7F 6F 70 1D  0C 80 23 1D 0D 80 23 20  .....op...#...# 
0070: 00 21 00                                          .!.             
```

#### Opcodes

```
  0: 0x0060 [0x1E] EventEntity looks at LocalPlayer and starts talking
  1: 0x0065 [0x6F] WAIT_FRAME_DELAY: Yield until WaitTime reaches zero
  2: 0x0066 [0x70] WAIT_ENTITY_RENDER_FLAG: Wait while EventEntity->Render.Flags3 bit 2 is set (cancel turn if not)
  3: 0x0067 [0x1D] PRINT_EVENT_MESSAGE(message_id=3403*)
    → "ArE$26yOU gOIng$26tO hElp$26crEAtE cArdIAns$26At thE$26mAnUstEry?$26thEn thAt$26mAkEs yOU$26cArdIAn's mOthEr!"
  4: 0x006A [0x23] WAIT_FOR_DIALOG_INTERACTION
  5: 0x006B [0x1D] PRINT_EVENT_MESSAGE(message_id=3404*)
    → "Mo`m-my!"
  6: 0x006E [0x23] WAIT_FOR_DIALOG_INTERACTION
  7: 0x006F [0x20] SET_CLI_EVENT_UC_FLAG: Unlock player control
  8: 0x0071 [0x21] END_EVENT
  9: 0x0072 [0x00] END_REQSTACK()
```

### Event 113

#### Metadata

| Field        | Value    |
|--------------|----------|
| Entrypoint   | 0x0073   |
| Data Size    | 19 bytes |
| Instructions | 10       |

```
      00 01 02 03 04 05 06 07  08 09 0A 0B 0C 0D 0E 0F
      -- -- -- -- -- -- -- --  -- -- -- -- -- -- -- --
0070:          1E F0 FF FF 7F  6F 70 1D 0E 80 23 1D 0F     .....op...#..
0080: 80 23 20 00 21 00                                 .# .!.          
```

#### Opcodes

```
  0: 0x0073 [0x1E] EventEntity looks at LocalPlayer and starts talking
  1: 0x0078 [0x6F] WAIT_FRAME_DELAY: Yield until WaitTime reaches zero
  2: 0x0079 [0x70] WAIT_ENTITY_RENDER_FLAG: Wait while EventEntity->Render.Flags3 bit 2 is set (cancel turn if not)
  3: 0x007A [0x1D] PRINT_EVENT_MESSAGE(message_id=3423*)
    → "thErE ArE$26OthEr typEs$26Of bEAstmEn$26thAt lIve$26clOse tO$26thE othEr$26cOUntrIEs And$26cAUse trOUblE$26lIkE thE$26yAgUdO dO$26tO wIndUrst!"
  4: 0x007D [0x23] WAIT_FOR_DIALOG_INTERACTION
  5: 0x007E [0x1D] PRINT_EVENT_MESSAGE(message_id=3424*)
    → "thE$26OthEr cOUntrIEs$26ArE stIll$26At wAr$26wIth thEIr$26bEAstmEn, bUt$26wIndUrst hAs$26pEAcE!$26dOEs thAt$26mAke wIndUrst$26bEttEr Off?"
  6: 0x0081 [0x23] WAIT_FOR_DIALOG_INTERACTION
  7: 0x0082 [0x20] SET_CLI_EVENT_UC_FLAG: Unlock player control
  8: 0x0084 [0x21] END_EVENT
  9: 0x0085 [0x00] END_REQSTACK()
```

### Event 118

#### Metadata

| Field        | Value    |
|--------------|----------|
| Entrypoint   | 0x0086   |
| Data Size    | 19 bytes |
| Instructions | 10       |

```
      00 01 02 03 04 05 06 07  08 09 0A 0B 0C 0D 0E 0F
      -- -- -- -- -- -- -- --  -- -- -- -- -- -- -- --
0080:                   1E F0  FF FF 7F 6F 70 1D 10 80        .....op...
0090: 23 1D 11 80 23 20 00 21  00                       #...# .!.       
```

#### Opcodes

```
  0: 0x0086 [0x1E] EventEntity looks at LocalPlayer and starts talking
  1: 0x008B [0x6F] WAIT_FRAME_DELAY: Yield until WaitTime reaches zero
  2: 0x008C [0x70] WAIT_ENTITY_RENDER_FLAG: Wait while EventEntity->Render.Flags3 bit 2 is set (cancel turn if not)
  3: 0x008D [0x1D] PRINT_EVENT_MESSAGE(message_id=3434*)
    → "As cArdIAns$26bEcOmE mOrE$26And mOrE$26lIkE rEAl$26pEOplE thEy$26bEcOmE strOngEr!"
  4: 0x0090 [0x23] WAIT_FOR_DIALOG_INTERACTION
  5: 0x0091 [0x1D] PRINT_EVENT_MESSAGE(message_id=3435*)
    → "bUt$26It Is$26A lOng$26And slOw$26rOAd...!"
  6: 0x0094 [0x23] WAIT_FOR_DIALOG_INTERACTION
  7: 0x0095 [0x20] SET_CLI_EVENT_UC_FLAG: Unlock player control
  8: 0x0097 [0x21] END_EVENT
  9: 0x0098 [0x00] END_REQSTACK()
```

### Event 122

#### Metadata

| Field        | Value    |
|--------------|----------|
| Entrypoint   | 0x0099   |
| Data Size    | 19 bytes |
| Instructions | 10       |

```
      00 01 02 03 04 05 06 07  08 09 0A 0B 0C 0D 0E 0F
      -- -- -- -- -- -- -- --  -- -- -- -- -- -- -- --
0090:                             1E F0 FF FF 7F 6F 70           .....op
00A0: 1D 12 80 23 1D 13 80 23  20 00 21 00              ...#...# .!.    
```

#### Opcodes

```
  0: 0x0099 [0x1E] EventEntity looks at LocalPlayer and starts talking
  1: 0x009E [0x6F] WAIT_FRAME_DELAY: Yield until WaitTime reaches zero
  2: 0x009F [0x70] WAIT_ENTITY_RENDER_FLAG: Wait while EventEntity->Render.Flags3 bit 2 is set (cancel turn if not)
  3: 0x00A0 [0x1D] PRINT_EVENT_MESSAGE(message_id=3444*)
    → "cArdIAns ArE$26UnAblE tO$26rEAd thE$26bOOks In$26thE lIbrAry$26Of mAgIc!"
  4: 0x00A3 [0x23] WAIT_FOR_DIALOG_INTERACTION
  5: 0x00A4 [0x1D] PRINT_EVENT_MESSAGE(message_id=3445*)
    → "cArdIAns$26Are pOtEntly$26strOng mAgIcAl$26thIngs sO$26ArE nOt$26pErmIttEd tO$26tOUch mAgIc$26bOOks!"
  6: 0x00A7 [0x23] WAIT_FOR_DIALOG_INTERACTION
  7: 0x00A8 [0x20] SET_CLI_EVENT_UC_FLAG: Unlock player control
  8: 0x00AA [0x21] END_EVENT
  9: 0x00AB [0x00] END_REQSTACK()
```

### Event 135

#### Metadata

| Field        | Value    |
|--------------|----------|
| Entrypoint   | 0x00AC   |
| Data Size    | 15 bytes |
| Instructions | 8        |

```
      00 01 02 03 04 05 06 07  08 09 0A 0B 0C 0D 0E 0F
      -- -- -- -- -- -- -- --  -- -- -- -- -- -- -- --
00A0:                                      1E F0 FF FF              ....
00B0: 7F 6F 70 1D 14 80 23 20  00 21 00                 .op...# .!.     
```

#### Opcodes

```
  0: 0x00AC [0x1E] EventEntity looks at LocalPlayer and starts talking
  1: 0x00B1 [0x6F] WAIT_FRAME_DELAY: Yield until WaitTime reaches zero
  2: 0x00B2 [0x70] WAIT_ENTITY_RENDER_FLAG: Wait while EventEntity->Render.Flags3 bit 2 is set (cancel turn if not)
  3: 0x00B3 [0x1D] PRINT_EVENT_MESSAGE(message_id=3455*)
    → "tEn$26wAnts tO$26gO tO$26schOOl sO$26tEn cAn$26mAkE tEns$26Of frIEnds!"
  4: 0x00B6 [0x23] WAIT_FOR_DIALOG_INTERACTION
  5: 0x00B7 [0x20] SET_CLI_EVENT_UC_FLAG: Unlock player control
  6: 0x00B9 [0x21] END_EVENT
  7: 0x00BA [0x00] END_REQSTACK()
```

### Event 141

#### Metadata

| Field        | Value    |
|--------------|----------|
| Entrypoint   | 0x00BB   |
| Data Size    | 15 bytes |
| Instructions | 8        |

```
      00 01 02 03 04 05 06 07  08 09 0A 0B 0C 0D 0E 0F
      -- -- -- -- -- -- -- --  -- -- -- -- -- -- -- --
00B0:                                   1E F0 FF FF 7F             .....
00C0: 6F 70 1D 15 80 23 20 00  21 00                    op...# .!.      
```

#### Opcodes

```
  0: 0x00BB [0x1E] EventEntity looks at LocalPlayer and starts talking
  1: 0x00C0 [0x6F] WAIT_FRAME_DELAY: Yield until WaitTime reaches zero
  2: 0x00C1 [0x70] WAIT_ENTITY_RENDER_FLAG: Wait while EventEntity->Render.Flags3 bit 2 is set (cancel turn if not)
  3: 0x00C2 [0x1D] PRINT_EVENT_MESSAGE(message_id=3468*)
    → "gOOd-byE. If$26yOU dO$26tUrn IntO$26A stAr,$26try nOt$26tO fAll$26frOm thE$26nIght-sky."
  4: 0x00C5 [0x23] WAIT_FOR_DIALOG_INTERACTION
  5: 0x00C6 [0x20] SET_CLI_EVENT_UC_FLAG: Unlock player control
  6: 0x00C8 [0x21] END_EVENT
  7: 0x00C9 [0x00] END_REQSTACK()
```

### Event 146

#### Metadata

| Field        | Value    |
|--------------|----------|
| Entrypoint   | 0x00CA   |
| Data Size    | 19 bytes |
| Instructions | 10       |

```
      00 01 02 03 04 05 06 07  08 09 0A 0B 0C 0D 0E 0F
      -- -- -- -- -- -- -- --  -- -- -- -- -- -- -- --
00C0:                                1E F0 FF FF 7F 6F            .....o
00D0: 70 1D 16 80 23 1D 17 80  23 20 00 21 00           p...#...# .!.   
```

#### Opcodes

```
  0: 0x00CA [0x1E] EventEntity looks at LocalPlayer and starts talking
  1: 0x00CF [0x6F] WAIT_FRAME_DELAY: Yield until WaitTime reaches zero
  2: 0x00D0 [0x70] WAIT_ENTITY_RENDER_FLAG: Wait while EventEntity->Render.Flags3 bit 2 is set (cancel turn if not)
  3: 0x00D1 [0x1D] PRINT_EVENT_MESSAGE(message_id=3479*)
    → "mOst$26Of thE mIthrA$26In wIndUrst sErvE$26thE trIbAl chIEf, PErIh$26VAshAI!"
  4: 0x00D4 [0x23] WAIT_FOR_DIALOG_INTERACTION
  5: 0x00D5 [0x1D] PRINT_EVENT_MESSAGE(message_id=3480*)
    → "thE sIbyl$26gUArds sErvE thE$26stAr sIbyl! why? tEn$26dOEs nOt knOw!"
  6: 0x00D8 [0x23] WAIT_FOR_DIALOG_INTERACTION
  7: 0x00D9 [0x20] SET_CLI_EVENT_UC_FLAG: Unlock player control
  8: 0x00DB [0x21] END_EVENT
  9: 0x00DC [0x00] END_REQSTACK()
```

### Event 157

#### Metadata

| Field        | Value    |
|--------------|----------|
| Entrypoint   | 0x00DD   |
| Data Size    | 19 bytes |
| Instructions | 10       |

```
      00 01 02 03 04 05 06 07  08 09 0A 0B 0C 0D 0E 0F
      -- -- -- -- -- -- -- --  -- -- -- -- -- -- -- --
00D0:                                         1E F0 FF               ...
00E0: FF 7F 6F 70 1D 18 80 23  1D 19 80 23 20 00 21 00  ..op...#...# .!.
```

#### Opcodes

```
  0: 0x00DD [0x1E] EventEntity looks at LocalPlayer and starts talking
  1: 0x00E2 [0x6F] WAIT_FRAME_DELAY: Yield until WaitTime reaches zero
  2: 0x00E3 [0x70] WAIT_ENTITY_RENDER_FLAG: Wait while EventEntity->Render.Flags3 bit 2 is set (cancel turn if not)
  3: 0x00E4 [0x1D] PRINT_EVENT_MESSAGE(message_id=3511*)
    → "thE stAr$26frUIt thAt$26ArE UsEd$26tO mAkE$26thE hEAds$26Of cArdIAns$26Are grOwn$26In thE$26bAsEmEnt Of$26hEAvEns tOwEr!"
  4: 0x00E7 [0x23] WAIT_FOR_DIALOG_INTERACTION
  5: 0x00E8 [0x1D] PRINT_EVENT_MESSAGE(message_id=3512*)
    → "bUt$26tEn hAs$26nO mEmOry$26frOm whEn$26tEn wAs$26A frUIt$26grOwIng On$26A trEE.$26Is It$26nOt strAngE?"
  6: 0x00EB [0x23] WAIT_FOR_DIALOG_INTERACTION
  7: 0x00EC [0x20] SET_CLI_EVENT_UC_FLAG: Unlock player control
  8: 0x00EE [0x21] END_EVENT
  9: 0x00EF [0x00] END_REQSTACK()
```

### Event 162

#### Metadata

| Field        | Value    |
|--------------|----------|
| Entrypoint   | 0x00F0   |
| Data Size    | 19 bytes |
| Instructions | 10       |

```
      00 01 02 03 04 05 06 07  08 09 0A 0B 0C 0D 0E 0F
      -- -- -- -- -- -- -- --  -- -- -- -- -- -- -- --
00F0: 1E F0 FF FF 7F 6F 70 1D  1A 80 23 1D 1B 80 23 20  .....op...#...# 
0100: 00 21 00                                          .!.             
```

#### Opcodes

```
  0: 0x00F0 [0x1E] EventEntity looks at LocalPlayer and starts talking
  1: 0x00F5 [0x6F] WAIT_FRAME_DELAY: Yield until WaitTime reaches zero
  2: 0x00F6 [0x70] WAIT_ENTITY_RENDER_FLAG: Wait while EventEntity->Render.Flags3 bit 2 is set (cancel turn if not)
  3: 0x00F7 [0x1D] PRINT_EVENT_MESSAGE(message_id=3521*)
    → "tEn hEArd$26sOmEthIng pErcUlIAr...!$26thErE$26ArE nO$26cArdIAns In$26hEAvEns tOwEr...!?"
  4: 0x00FA [0x23] WAIT_FOR_DIALOG_INTERACTION
  5: 0x00FB [0x1D] PRINT_EVENT_MESSAGE(message_id=3522*)
    → "sO$26whErE ArE$26thE kIng,$26qUEEn, And$26AcE cArdIAns?"
  6: 0x00FE [0x23] WAIT_FOR_DIALOG_INTERACTION
  7: 0x00FF [0x20] SET_CLI_EVENT_UC_FLAG: Unlock player control
  8: 0x0101 [0x21] END_EVENT
  9: 0x0102 [0x00] END_REQSTACK()
```

### Event 167

#### Metadata

| Field        | Value    |
|--------------|----------|
| Entrypoint   | 0x0103   |
| Data Size    | 19 bytes |
| Instructions | 10       |

```
      00 01 02 03 04 05 06 07  08 09 0A 0B 0C 0D 0E 0F
      -- -- -- -- -- -- -- --  -- -- -- -- -- -- -- --
0100:          1E F0 FF FF 7F  6F 70 1D 1C 80 23 1D 1D     .....op...#..
0110: 80 23 20 00 21 00                                 .# .!.          
```

#### Opcodes

```
  0: 0x0103 [0x1E] EventEntity looks at LocalPlayer and starts talking
  1: 0x0108 [0x6F] WAIT_FRAME_DELAY: Yield until WaitTime reaches zero
  2: 0x0109 [0x70] WAIT_ENTITY_RENDER_FLAG: Wait while EventEntity->Render.Flags3 bit 2 is set (cancel turn if not)
  3: 0x010A [0x1D] PRINT_EVENT_MESSAGE(message_id=3531*)
    → "It$26lOOks lIkE$26thE cAptAIns$26Of thE$26gUArds In$26EAch dIstrIct$26hAvE hAd$26EmErgEncy EquIpmEnt$26dIstrIbUtEd tO$26thEm!"
  4: 0x010D [0x23] WAIT_FOR_DIALOG_INTERACTION
  5: 0x010E [0x1D] PRINT_EVENT_MESSAGE(message_id=3532*)
    → "bUt thE$26EmErgEncy lImItErs$26On thE$26cArdIAns hAvE$26nOt bEEn$26rEmOvEd yEt..."
  6: 0x0111 [0x23] WAIT_FOR_DIALOG_INTERACTION
  7: 0x0112 [0x20] SET_CLI_EVENT_UC_FLAG: Unlock player control
  8: 0x0114 [0x21] END_EVENT
  9: 0x0115 [0x00] END_REQSTACK()
```

### Event 172

#### Metadata

| Field        | Value    |
|--------------|----------|
| Entrypoint   | 0x0116   |
| Data Size    | 19 bytes |
| Instructions | 10       |

```
      00 01 02 03 04 05 06 07  08 09 0A 0B 0C 0D 0E 0F
      -- -- -- -- -- -- -- --  -- -- -- -- -- -- -- --
0110:                   1E F0  FF FF 7F 6F 70 1D 1E 80        .....op...
0120: 23 1D 1F 80 23 20 00 21  00                       #...# .!.       
```

#### Opcodes

```
  0: 0x0116 [0x1E] EventEntity looks at LocalPlayer and starts talking
  1: 0x011B [0x6F] WAIT_FRAME_DELAY: Yield until WaitTime reaches zero
  2: 0x011C [0x70] WAIT_ENTITY_RENDER_FLAG: Wait while EventEntity->Render.Flags3 bit 2 is set (cancel turn if not)
  3: 0x011D [0x1D] PRINT_EVENT_MESSAGE(message_id=3542*)
    → "tEn$26OncE lEArnt$26thAt thE$26rUIns Of$26fEI'yIn ArE$26AncIEnt cOnstrUctIOns!"
  4: 0x0120 [0x23] WAIT_FOR_DIALOG_INTERACTION
  5: 0x0121 [0x1D] PRINT_EVENT_MESSAGE(message_id=3543*)
    → "tEn wOndErs$26whAt lEgAcy$26prEsEnt cArdIAns$26cAn lEAvE$26bEhInd fOr$26fUtUrE cArdIAns!"
  6: 0x0124 [0x23] WAIT_FOR_DIALOG_INTERACTION
  7: 0x0125 [0x20] SET_CLI_EVENT_UC_FLAG: Unlock player control
  8: 0x0127 [0x21] END_EVENT
  9: 0x0128 [0x00] END_REQSTACK()
```

### Event 177

#### Metadata

| Field        | Value    |
|--------------|----------|
| Entrypoint   | 0x0129   |
| Data Size    | 19 bytes |
| Instructions | 10       |

```
      00 01 02 03 04 05 06 07  08 09 0A 0B 0C 0D 0E 0F
      -- -- -- -- -- -- -- --  -- -- -- -- -- -- -- --
0120:                             1E F0 FF FF 7F 6F 70           .....op
0130: 1D 20 80 23 1D 21 80 23  20 00 21 00              . .#.!.# .!.    
```

#### Opcodes

```
  0: 0x0129 [0x1E] EventEntity looks at LocalPlayer and starts talking
  1: 0x012E [0x6F] WAIT_FRAME_DELAY: Yield until WaitTime reaches zero
  2: 0x012F [0x70] WAIT_ENTITY_RENDER_FLAG: Wait while EventEntity->Render.Flags3 bit 2 is set (cancel turn if not)
  3: 0x0130 [0x1D] PRINT_EVENT_MESSAGE(message_id=3552*)
    → "hEAvEns$26tOwEr Is$26cAllIng fOr$26yOU AgAIn!$26tEn thInks$26AnOthEr mAjOr$26mIssIOn wIll$26bE pUshEd$26UpOn yOU!"
  4: 0x0133 [0x23] WAIT_FOR_DIALOG_INTERACTION
  5: 0x0134 [0x1D] PRINT_EVENT_MESSAGE(message_id=3553*)
    → "plEAsE cOmE bAck tO wIndUrst sAfE And sOUnd thIs tIme tOO!"
  6: 0x0137 [0x23] WAIT_FOR_DIALOG_INTERACTION
  7: 0x0138 [0x20] SET_CLI_EVENT_UC_FLAG: Unlock player control
  8: 0x013A [0x21] END_EVENT
  9: 0x013B [0x00] END_REQSTACK()
```

### Event 180

#### Metadata

| Field        | Value    |
|--------------|----------|
| Entrypoint   | 0x013C   |
| Data Size    | 19 bytes |
| Instructions | 10       |

```
      00 01 02 03 04 05 06 07  08 09 0A 0B 0C 0D 0E 0F
      -- -- -- -- -- -- -- --  -- -- -- -- -- -- -- --
0130:                                      1E F0 FF FF              ....
0140: 7F 6F 70 1D 22 80 23 1D  23 80 23 20 00 21 00     .op.".#.#.# .!. 
```

#### Opcodes

```
  0: 0x013C [0x1E] EventEntity looks at LocalPlayer and starts talking
  1: 0x0141 [0x6F] WAIT_FRAME_DELAY: Yield until WaitTime reaches zero
  2: 0x0142 [0x70] WAIT_ENTITY_RENDER_FLAG: Wait while EventEntity->Render.Flags3 bit 2 is set (cancel turn if not)
  3: 0x0143 [0x1D] PRINT_EVENT_MESSAGE(message_id=3558*)
    → "hAvE yOU$26bEcOmE strOngEr$26sIncE thE$26lAst tImE$26wE mEt?"
  4: 0x0146 [0x23] WAIT_FOR_DIALOG_INTERACTION
  5: 0x0147 [0x1D] PRINT_EVENT_MESSAGE(message_id=3559*)
    → "kEEp$26thIs Up$26And yOU$26cOUld EvEn$26prOvE yOUrsElf$26A mAtch$26tO wE$26cArdIAns!"
  6: 0x014A [0x23] WAIT_FOR_DIALOG_INTERACTION
  7: 0x014B [0x20] SET_CLI_EVENT_UC_FLAG: Unlock player control
  8: 0x014D [0x21] END_EVENT
  9: 0x014E [0x00] END_REQSTACK()
```

### Event 490

#### Metadata

| Field        | Value    |
|--------------|----------|
| Entrypoint   | 0x014F   |
| Data Size    | 19 bytes |
| Instructions | 10       |

```
      00 01 02 03 04 05 06 07  08 09 0A 0B 0C 0D 0E 0F
      -- -- -- -- -- -- -- --  -- -- -- -- -- -- -- --
0140:                                               1E                 .
0150: F0 FF FF 7F 6F 70 1D 24  80 23 1D 25 80 23 20 00  ....op.$.#.%.# .
0160: 21 00                                             !.              
```

#### Opcodes

```
  0: 0x014F [0x1E] EventEntity looks at LocalPlayer and starts talking
  1: 0x0154 [0x6F] WAIT_FRAME_DELAY: Yield until WaitTime reaches zero
  2: 0x0155 [0x70] WAIT_ENTITY_RENDER_FLAG: Wait while EventEntity->Render.Flags3 bit 2 is set (cancel turn if not)
  3: 0x0156 [0x1D] PRINT_EVENT_MESSAGE(message_id=12267*)
    → "TeN$26hAs FiNaLLy$26LeARnEd tHe$26nAmES aNd aDDreSSeS oF$26aLL tHe$26pEOpLE iN$26WiNdURst."
  4: 0x0159 [0x23] WAIT_FOR_DIALOG_INTERACTION
  5: 0x015A [0x1D] PRINT_EVENT_MESSAGE(message_id=12268*)
    → "NeXT,$26TeN woULd$26LiKe tO$26LeARn aBoUT$26tHe pEOpLE$26oF SaN d'OriA$26aND BaSToK... TeN$26ReaLLy wAnTs$26tO tRaVeL..."
  6: 0x015D [0x23] WAIT_FOR_DIALOG_INTERACTION
  7: 0x015E [0x20] SET_CLI_EVENT_UC_FLAG: Unlock player control
  8: 0x0160 [0x21] END_EVENT
  9: 0x0161 [0x00] END_REQSTACK()
```

### Event 455

#### Metadata

| Field        | Value    |
|--------------|----------|
| Entrypoint   | 0x0162   |
| Data Size    | 19 bytes |
| Instructions | 10       |

```
      00 01 02 03 04 05 06 07  08 09 0A 0B 0C 0D 0E 0F
      -- -- -- -- -- -- -- --  -- -- -- -- -- -- -- --
0160:       1E F0 FF FF 7F 6F  70 1D 26 80 23 1D 27 80    .....op.&.#.'.
0170: 23 20 00 21 00                                    # .!.           
```

#### Opcodes

```
  0: 0x0162 [0x1E] EventEntity looks at LocalPlayer and starts talking
  1: 0x0167 [0x6F] WAIT_FRAME_DELAY: Yield until WaitTime reaches zero
  2: 0x0168 [0x70] WAIT_ENTITY_RENDER_FLAG: Wait while EventEntity->Render.Flags3 bit 2 is set (cancel turn if not)
  3: 0x0169 [0x1D] PRINT_EVENT_MESSAGE(message_id=12277*)
    → "THe$26mAgIC ToWeRS$26iN SaRuTa-bArUtA$26aRe nOT$26fUnCTiON-aL...$26BuT rEcEntLY$26thEY hAvE$26bEEn ACtiVE$26fOr sHOrt$26pERioDs oF$26tIMe."
  4: 0x016C [0x23] WAIT_FOR_DIALOG_INTERACTION
  5: 0x016D [0x1D] PRINT_EVENT_MESSAGE(message_id=12278*)
    → "TeN$26wONdErs iF$26sOmEOnE$26iS rEpaIR-iNg$26tHEm..."
  6: 0x0170 [0x23] WAIT_FOR_DIALOG_INTERACTION
  7: 0x0171 [0x20] SET_CLI_EVENT_UC_FLAG: Unlock player control
  8: 0x0173 [0x21] END_EVENT
  9: 0x0174 [0x00] END_REQSTACK()
```

### Event 466

#### Metadata

| Field        | Value    |
|--------------|----------|
| Entrypoint   | 0x0175   |
| Data Size    | 19 bytes |
| Instructions | 10       |

```
      00 01 02 03 04 05 06 07  08 09 0A 0B 0C 0D 0E 0F
      -- -- -- -- -- -- -- --  -- -- -- -- -- -- -- --
0170:                1E F0 FF  FF 7F 6F 70 1D 28 80 23       .....op.(.#
0180: 1D 29 80 23 20 00 21 00                           .).# .!.        
```

#### Opcodes

```
  0: 0x0175 [0x1E] EventEntity looks at LocalPlayer and starts talking
  1: 0x017A [0x6F] WAIT_FRAME_DELAY: Yield until WaitTime reaches zero
  2: 0x017B [0x70] WAIT_ENTITY_RENDER_FLAG: Wait while EventEntity->Render.Flags3 bit 2 is set (cancel turn if not)
  3: 0x017C [0x1D] PRINT_EVENT_MESSAGE(message_id=12318*)
    → "We$26cARdiANs hAVe$26neVeR coMMiTTed$26a cRiMe."
  4: 0x017F [0x23] WAIT_FOR_DIALOG_INTERACTION
  5: 0x0180 [0x1D] PRINT_EVENT_MESSAGE(message_id=12319*)
    → "FrOM tHE MoMeNt$26we ComMIt$26a cRImE,$26wE aRE nO$26LoNGer cARdiANs."
  6: 0x0183 [0x23] WAIT_FOR_DIALOG_INTERACTION
  7: 0x0184 [0x20] SET_CLI_EVENT_UC_FLAG: Unlock player control
  8: 0x0186 [0x21] END_EVENT
  9: 0x0187 [0x00] END_REQSTACK()
```

### Event 471

#### Metadata

| Field        | Value    |
|--------------|----------|
| Entrypoint   | 0x0188   |
| Data Size    | 19 bytes |
| Instructions | 10       |

```
      00 01 02 03 04 05 06 07  08 09 0A 0B 0C 0D 0E 0F
      -- -- -- -- -- -- -- --  -- -- -- -- -- -- -- --
0180:                          1E F0 FF FF 7F 6F 70 1D          .....op.
0190: 2A 80 23 1D 2B 80 23 20  00 21 00                 *.#.+.# .!.     
```

#### Opcodes

```
  0: 0x0188 [0x1E] EventEntity looks at LocalPlayer and starts talking
  1: 0x018D [0x6F] WAIT_FRAME_DELAY: Yield until WaitTime reaches zero
  2: 0x018E [0x70] WAIT_ENTITY_RENDER_FLAG: Wait while EventEntity->Render.Flags3 bit 2 is set (cancel turn if not)
  3: 0x018F [0x1D] PRINT_EVENT_MESSAGE(message_id=12329*)
    → "ThE$26OptISteRy MiNiStEr$26wAS CaRRyiNg$26aN iM-pORtaNt-LoOk-iNg$26bOx."
  4: 0x0192 [0x23] WAIT_FOR_DIALOG_INTERACTION
  5: 0x0193 [0x1D] PRINT_EVENT_MESSAGE(message_id=12330*)
    → "TeN$26wONdeRs wHAt$26wAS iNsIDe$26tHE bOx."
  6: 0x0196 [0x23] WAIT_FOR_DIALOG_INTERACTION
  7: 0x0197 [0x20] SET_CLI_EVENT_UC_FLAG: Unlock player control
  8: 0x0199 [0x21] END_EVENT
  9: 0x019A [0x00] END_REQSTACK()
```

### Event 476

#### Metadata

| Field        | Value    |
|--------------|----------|
| Entrypoint   | 0x019B   |
| Data Size    | 19 bytes |
| Instructions | 10       |

```
      00 01 02 03 04 05 06 07  08 09 0A 0B 0C 0D 0E 0F
      -- -- -- -- -- -- -- --  -- -- -- -- -- -- -- --
0190:                                   1E F0 FF FF 7F             .....
01A0: 6F 70 1D 2C 80 23 1D 2D  80 23 20 00 21 00        op.,.#.-.# .!.  
```

#### Opcodes

```
  0: 0x019B [0x1E] EventEntity looks at LocalPlayer and starts talking
  1: 0x01A0 [0x6F] WAIT_FRAME_DELAY: Yield until WaitTime reaches zero
  2: 0x01A1 [0x70] WAIT_ENTITY_RENDER_FLAG: Wait while EventEntity->Render.Flags3 bit 2 is set (cancel turn if not)
  3: 0x01A2 [0x1D] PRINT_EVENT_MESSAGE(message_id=12341*)
    → "TheRe$26aRE mAnY$26tHInGS tHaT$26wE cARdIAnS$26StiLL hAVe$26tO LEaRn."
  4: 0x01A5 [0x23] WAIT_FOR_DIALOG_INTERACTION
  5: 0x01A6 [0x1D] PRINT_EVENT_MESSAGE(message_id=12342*)
    → "TeN$26wIShEs hE$26CoULd hAVe$26sTUdiED mORe..."
  6: 0x01A9 [0x23] WAIT_FOR_DIALOG_INTERACTION
  7: 0x01AA [0x20] SET_CLI_EVENT_UC_FLAG: Unlock player control
  8: 0x01AC [0x21] END_EVENT
  9: 0x01AD [0x00] END_REQSTACK()
```

### Event 481

#### Metadata

| Field        | Value    |
|--------------|----------|
| Entrypoint   | 0x01AE   |
| Data Size    | 19 bytes |
| Instructions | 10       |

```
      00 01 02 03 04 05 06 07  08 09 0A 0B 0C 0D 0E 0F
      -- -- -- -- -- -- -- --  -- -- -- -- -- -- -- --
01A0:                                            1E F0                ..
01B0: FF FF 7F 6F 70 1D 2E 80  23 1D 2F 80 23 20 00 21  ...op...#./.# .!
01C0: 00                                                .               
```

#### Opcodes

```
  0: 0x01AE [0x1E] EventEntity looks at LocalPlayer and starts talking
  1: 0x01B3 [0x6F] WAIT_FRAME_DELAY: Yield until WaitTime reaches zero
  2: 0x01B4 [0x70] WAIT_ENTITY_RENDER_FLAG: Wait while EventEntity->Render.Flags3 bit 2 is set (cancel turn if not)
  3: 0x01B5 [0x1D] PRINT_EVENT_MESSAGE(message_id=12353*)
    → "WhAT$26sUbjECt doES$26tHe pRIncIpaL$26tEAcH?"
  4: 0x01B8 [0x23] WAIT_FOR_DIALOG_INTERACTION
  5: 0x01B9 [0x1D] PRINT_EVENT_MESSAGE(message_id=12354*)
    → "TheY$26aLReADy hAvE$26tEAcHeRs fOr$26aLL tHe$26kInDS oF$26mAGiC... MaYBe$26hE tEAcHeS$26MaRtIaL aRTs$26oR sWOrdSmaN-shIp?"
  6: 0x01BC [0x23] WAIT_FOR_DIALOG_INTERACTION
  7: 0x01BD [0x20] SET_CLI_EVENT_UC_FLAG: Unlock player control
  8: 0x01BF [0x21] END_EVENT
  9: 0x01C0 [0x00] END_REQSTACK()
```

### Event 486

#### Metadata

| Field        | Value    |
|--------------|----------|
| Entrypoint   | 0x01C1   |
| Data Size    | 19 bytes |
| Instructions | 10       |

```
      00 01 02 03 04 05 06 07  08 09 0A 0B 0C 0D 0E 0F
      -- -- -- -- -- -- -- --  -- -- -- -- -- -- -- --
01C0:    1E F0 FF FF 7F 6F 70  1D 30 80 23 1D 31 80 23   .....op.0.#.1.#
01D0: 20 00 21 00                                        .!.            
```

#### Opcodes

```
  0: 0x01C1 [0x1E] EventEntity looks at LocalPlayer and starts talking
  1: 0x01C6 [0x6F] WAIT_FRAME_DELAY: Yield until WaitTime reaches zero
  2: 0x01C7 [0x70] WAIT_ENTITY_RENDER_FLAG: Wait while EventEntity->Render.Flags3 bit 2 is set (cancel turn if not)
  3: 0x01C8 [0x1D] PRINT_EVENT_MESSAGE(message_id=12366*)
    → "ThE$26RogUE cARdIAns$26in tHE$26HoRuToTo RuINs$26aRe aLL$26sTiRReD up$26fOr SoMe$26rEAsOn."
  4: 0x01CB [0x23] WAIT_FOR_DIALOG_INTERACTION
  5: 0x01CC [0x1D] PRINT_EVENT_MESSAGE(message_id=12367*)
    → "ThOSe cARdIAns$26wErE aLL$26cREatEd bY$26MoTHeR ApUrUrU's$26faTHeR, bUt$26I DoN't$26tHInK tHAt$26hAs aNY$26cOnNEctIOn..."
  6: 0x01CF [0x23] WAIT_FOR_DIALOG_INTERACTION
  7: 0x01D0 [0x20] SET_CLI_EVENT_UC_FLAG: Unlock player control
  8: 0x01D2 [0x21] END_EVENT
  9: 0x01D3 [0x00] END_REQSTACK()
```

### Event 557

#### Metadata

| Field        | Value    |
|--------------|----------|
| Entrypoint   | 0x01D4   |
| Data Size    | 19 bytes |
| Instructions | 10       |

```
      00 01 02 03 04 05 06 07  08 09 0A 0B 0C 0D 0E 0F
      -- -- -- -- -- -- -- --  -- -- -- -- -- -- -- --
01D0:             1E F0 FF FF  7F 6F 70 1D 32 80 23 1D      .....op.2.#.
01E0: 33 80 23 20 00 21 00                              3.# .!.         
```

#### Opcodes

```
  0: 0x01D4 [0x1E] EventEntity looks at LocalPlayer and starts talking
  1: 0x01D9 [0x6F] WAIT_FRAME_DELAY: Yield until WaitTime reaches zero
  2: 0x01DA [0x70] WAIT_ENTITY_RENDER_FLAG: Wait while EventEntity->Render.Flags3 bit 2 is set (cancel turn if not)
  3: 0x01DB [0x1D] PRINT_EVENT_MESSAGE(message_id=12595*)
    → "SiNCe$26tHIs iNciDEnT$26bEgAn, wE hAVe$26NoTicED sEVeRaL$26AbiLiTiEs wiTHiN$26uS."
  4: 0x01DE [0x23] WAIT_FOR_DIALOG_INTERACTION
  5: 0x01DF [0x1D] PRINT_EVENT_MESSAGE(message_id=12596*)
    → "OnCe$26tHiNgs hAVe$26SetTLed dOWn$26fOr MoTHeR ApUrUrU,$26TeN wAnTS$26tO REpoRt$26thEsE FiNdiNGs$26tO hEr."
  6: 0x01E2 [0x23] WAIT_FOR_DIALOG_INTERACTION
  7: 0x01E3 [0x20] SET_CLI_EVENT_UC_FLAG: Unlock player control
  8: 0x01E5 [0x21] END_EVENT
  9: 0x01E6 [0x00] END_REQSTACK()
```

### Event 565

#### Metadata

| Field        | Value    |
|--------------|----------|
| Entrypoint   | 0x01E7   |
| Data Size    | 19 bytes |
| Instructions | 10       |

```
      00 01 02 03 04 05 06 07  08 09 0A 0B 0C 0D 0E 0F
      -- -- -- -- -- -- -- --  -- -- -- -- -- -- -- --
01E0:                      1E  F0 FF FF 7F 6F 70 1D 34         .....op.4
01F0: 80 23 1D 35 80 23 20 00  21 00                    .#.5.# .!.      
```

#### Opcodes

```
  0: 0x01E7 [0x1E] EventEntity looks at LocalPlayer and starts talking
  1: 0x01EC [0x6F] WAIT_FRAME_DELAY: Yield until WaitTime reaches zero
  2: 0x01ED [0x70] WAIT_ENTITY_RENDER_FLAG: Wait while EventEntity->Render.Flags3 bit 2 is set (cancel turn if not)
  3: 0x01EE [0x1D] PRINT_EVENT_MESSAGE(message_id=12600*)
    → "We cARdiAnS$26hAVe beEN$26iN-puTTeD wiTh$26a LiSt oF$26dANgeROuS ChArAcTErs$26iN WinDUrSt."
  4: 0x01F1 [0x23] WAIT_FOR_DIALOG_INTERACTION
  5: 0x01F2 [0x1D] PRINT_EVENT_MESSAGE(message_id=12601*)
    → "We hAVe$26OrdERs tO$26bE pARticULarLy$26viGiLaNT wiTH$26rEgARdS tO$26ThrEE PeopLe: ZoNpa-ZiPpa,$26HoNoi-GoMoi,$26aNd ShanToTTo."
  6: 0x01F5 [0x23] WAIT_FOR_DIALOG_INTERACTION
  7: 0x01F6 [0x20] SET_CLI_EVENT_UC_FLAG: Unlock player control
  8: 0x01F8 [0x21] END_EVENT
  9: 0x01F9 [0x00] END_REQSTACK()
```

### Event 562

#### Metadata

| Field        | Value    |
|--------------|----------|
| Entrypoint   | 0x01FA   |
| Data Size    | 19 bytes |
| Instructions | 10       |

```
      00 01 02 03 04 05 06 07  08 09 0A 0B 0C 0D 0E 0F
      -- -- -- -- -- -- -- --  -- -- -- -- -- -- -- --
01F0:                                1E F0 FF FF 7F 6F            .....o
0200: 70 1D 36 80 23 1D 37 80  23 20 00 21 00           p.6.#.7.# .!.   
```

#### Opcodes

```
  0: 0x01FA [0x1E] EventEntity looks at LocalPlayer and starts talking
  1: 0x01FF [0x6F] WAIT_FRAME_DELAY: Yield until WaitTime reaches zero
  2: 0x0200 [0x70] WAIT_ENTITY_RENDER_FLAG: Wait while EventEntity->Render.Flags3 bit 2 is set (cancel turn if not)
  3: 0x0201 [0x1D] PRINT_EVENT_MESSAGE(message_id=12627*)
    → "WhAt$26bUSineSS Do$26tHe RoGUe$26cARdiAnS hAVe$26iN tHe$26cENtraL MaGiC$26tOWeR?"
  4: 0x0204 [0x23] WAIT_FOR_DIALOG_INTERACTION
  5: 0x0205 [0x1D] PRINT_EVENT_MESSAGE(message_id=12628*)
    → "It sEEms tHAt$26a cONsiDErabLE$26nUmbER oF cARdiAnS$26hAVe gATheREd$26wiTHiN iTs$26DepTHs."
  6: 0x0208 [0x23] WAIT_FOR_DIALOG_INTERACTION
  7: 0x0209 [0x20] SET_CLI_EVENT_UC_FLAG: Unlock player control
  8: 0x020B [0x21] END_EVENT
  9: 0x020C [0x00] END_REQSTACK()
```

### Event 569

#### Metadata

| Field        | Value    |
|--------------|----------|
| Entrypoint   | 0x020D   |
| Data Size    | 19 bytes |
| Instructions | 10       |

```
      00 01 02 03 04 05 06 07  08 09 0A 0B 0C 0D 0E 0F
      -- -- -- -- -- -- -- --  -- -- -- -- -- -- -- --
0200:                                         1E F0 FF               ...
0210: FF 7F 6F 70 1D 38 80 23  1D 39 80 23 20 00 21 00  ..op.8.#.9.# .!.
```

#### Opcodes

```
  0: 0x020D [0x1E] EventEntity looks at LocalPlayer and starts talking
  1: 0x0212 [0x6F] WAIT_FRAME_DELAY: Yield until WaitTime reaches zero
  2: 0x0213 [0x70] WAIT_ENTITY_RENDER_FLAG: Wait while EventEntity->Render.Flags3 bit 2 is set (cancel turn if not)
  3: 0x0214 [0x1D] PRINT_EVENT_MESSAGE(message_id=12637*)
    → "ThiNKiNg$26tAkEs uP a$26LoT oF eNeRgy$26aNd CoNceN-tRatioN.$26It cAn CaUSe$26cARdiAnS to$26bReaK DoWn."
  4: 0x0217 [0x23] WAIT_FOR_DIALOG_INTERACTION
  5: 0x0218 [0x1D] PRINT_EVENT_MESSAGE(message_id=12638*)
    → "MoTheR ApUrUrU$26toLD TeN tHaT$26eVeN PEopLe$26sPeNd tHEiR$26WhoLe LiVes$26fiNdiNg oUt$26whO tHEy$26TruLy aRe."
  6: 0x021B [0x23] WAIT_FOR_DIALOG_INTERACTION
  7: 0x021C [0x20] SET_CLI_EVENT_UC_FLAG: Unlock player control
  8: 0x021E [0x21] END_EVENT
  9: 0x021F [0x00] END_REQSTACK()
```
