# 17760309 - Chipmy-Popmy

## Common Data

| Field            | Value                   |
|------------------|-------------------------|
| Zone             | Port Windurst (ID: 240) |
| Block Size       | 2444 bytes              |
| Total Events     | 81                      |
| References Count | 38                      |

## List of Events

| Event ID                   | Entrypoint   |   Size |   Instructions |
|----------------------------|--------------|--------|----------------|
| [65535](#event-65535)      | 0x0000       |      1 |              1 |
| [65535.1](#event-655351)   | 0x0001       |     16 |              2 |
| [65535.2](#event-655352)   | 0x0011       |     42 |              4 |
| [65535.3](#event-655353)   | 0x003B       |     16 |              2 |
| [65535.4](#event-655354)   | 0x004B       |     14 |              2 |
| [65535.5](#event-655355)   | 0x0059       |     16 |              2 |
| [65535.6](#event-655356)   | 0x0069       |     14 |              2 |
| [65535.7](#event-655357)   | 0x0077       |     16 |              2 |
| [65535.8](#event-655358)   | 0x0087       |     14 |              2 |
| [65535.9](#event-655359)   | 0x0095       |     16 |              2 |
| [65535.10](#event-6553510) | 0x00A5       |     14 |              2 |
| [65535.11](#event-6553511) | 0x00B3       |     16 |              2 |
| [65535.12](#event-6553512) | 0x00C3       |     14 |              2 |
| [65535.13](#event-6553513) | 0x00D1       |     16 |              2 |
| [65535.14](#event-6553514) | 0x00E1       |     14 |              2 |
| [65535.15](#event-6553515) | 0x00EF       |     16 |              2 |
| [65535.16](#event-6553516) | 0x00FF       |     14 |              2 |
| [65535.17](#event-6553517) | 0x010D       |     16 |              2 |
| [65535.18](#event-6553518) | 0x011D       |     14 |              2 |
| [65535.19](#event-6553519) | 0x012B       |     16 |              2 |
| [65535.20](#event-6553520) | 0x013B       |     22 |              4 |
| [65535.21](#event-6553521) | 0x0151       |     16 |              2 |
| [65535.22](#event-6553522) | 0x0161       |     14 |              2 |
| [65535.23](#event-6553523) | 0x016F       |     16 |              2 |
| [65535.24](#event-6553524) | 0x017F       |     14 |              2 |
| [65535.25](#event-6553525) | 0x018D       |     16 |              2 |
| [65535.26](#event-6553526) | 0x019D       |     22 |              4 |
| [65535.27](#event-6553527) | 0x01B3       |     16 |              2 |
| [65535.28](#event-6553528) | 0x01C3       |     14 |              2 |
| [65535.29](#event-6553529) | 0x01D1       |     16 |              2 |
| [65535.30](#event-6553530) | 0x01E1       |     14 |              2 |
| [65535.31](#event-6553531) | 0x01EF       |     16 |              2 |
| [65535.32](#event-6553532) | 0x01FF       |     14 |              2 |
| [65535.33](#event-6553533) | 0x020D       |     16 |              2 |
| [65535.34](#event-6553534) | 0x021D       |     14 |              2 |
| [65535.35](#event-6553535) | 0x022B       |     16 |              2 |
| [65535.36](#event-6553536) | 0x023B       |     14 |              2 |
| [65535.37](#event-6553537) | 0x0249       |     16 |              2 |
| [65535.38](#event-6553538) | 0x0259       |     14 |              2 |
| [65535.39](#event-6553539) | 0x0267       |     16 |              2 |
| [65535.40](#event-6553540) | 0x0277       |     14 |              2 |
| [65535.41](#event-6553541) | 0x0285       |     16 |              2 |
| [65535.42](#event-6553542) | 0x0295       |     22 |              4 |
| [65535.43](#event-6553543) | 0x02AB       |     44 |              4 |
| [65535.44](#event-6553544) | 0x02D7       |     16 |              2 |
| [65535.45](#event-6553545) | 0x02E7       |     14 |              2 |
| [65535.46](#event-6553546) | 0x02F5       |     18 |              4 |
| [65535.47](#event-6553547) | 0x0307       |     18 |              4 |
| [65535.48](#event-6553548) | 0x0319       |     18 |              4 |
| [65535.49](#event-6553549) | 0x032B       |     18 |              4 |
| [65535.50](#event-6553550) | 0x033D       |     18 |              4 |
| [65535.51](#event-6553551) | 0x034F       |     27 |              3 |
| [65535.52](#event-6553552) | 0x036A       |      9 |              3 |
| [65535.53](#event-6553553) | 0x0373       |     16 |              2 |
| [65535.54](#event-6553554) | 0x0383       |     14 |              2 |
| [65535.55](#event-6553555) | 0x0391       |     16 |              2 |
| [65535.56](#event-6553556) | 0x03A1       |     14 |              2 |
| [65535.57](#event-6553557) | 0x03AF       |     16 |              2 |
| [65535.58](#event-6553558) | 0x03BF       |     14 |              2 |
| [65535.59](#event-6553559) | 0x03CD       |     16 |              2 |
| [65535.60](#event-6553560) | 0x03DD       |     14 |              2 |
| [65535.61](#event-6553561) | 0x03EB       |     16 |              2 |
| [65535.62](#event-6553562) | 0x03FB       |     14 |              2 |
| [65535.63](#event-6553563) | 0x0409       |     16 |              2 |
| [65535.64](#event-6553564) | 0x0419       |     14 |              2 |
| [65535.65](#event-6553565) | 0x0427       |     16 |              2 |
| [65535.66](#event-6553566) | 0x0437       |     14 |              2 |
| [65535.67](#event-6553567) | 0x0445       |     16 |              2 |
| [65535.68](#event-6553568) | 0x0455       |     14 |              2 |
| [65535.69](#event-6553569) | 0x0463       |     16 |              2 |
| [65535.70](#event-6553570) | 0x0473       |     14 |              2 |
| [202](#event-202)          | 0x0481       |     29 |             10 |
| [317](#event-317)          | 0x049E       |     47 |             14 |
| [594](#event-594)          | 0x04CD       |      1 |              1 |
| [596](#event-596)          | 0x04CE       |     64 |             18 |
| [595](#event-595)          | 0x050E       |      1 |              1 |
| [599](#event-599)          | 0x050F       |     47 |             14 |
| [597](#event-597)          | 0x053E       |      1 |              1 |
| [598](#event-598)          | 0x053F       |     97 |             24 |
| [619](#event-619)          | 0x05A0       |    387 |             56 |
| [620](#event-620)          | 0x0723       |    125 |             29 |

## DAT References (imed_data)

|   Index | Hex Value   |   Dec Value |
|---------|-------------|-------------|
|       0 | 0x0028      |          40 |
|       1 | 0x0029      |          41 |
|       2 | 0x003C      |          60 |
|       3 | 0x002A      |          42 |
|       4 | 0x0001      |           1 |
|       5 | 0x0007      |           7 |
|       6 | 0x0006      |           6 |
|       7 | 0x0008      |           8 |
|       8 | 0x000D      |          13 |
|       9 | 0x002B      |          43 |
|      10 | 0x01AE      |         430 |
|      11 | 0x01AF      |         431 |
|      12 | 0x002E      |          46 |
|      13 | 0x0E0F      |        3599 |
|      14 | 0x0F62      |        3938 |
|      15 | 0x0F63      |        3939 |
|      16 | 0x3274      |       12916 |
|      17 | 0x3276      |       12918 |
|      18 | 0x327A      |       12922 |
|      19 | 0x3284      |       12932 |
|      20 | 0x3285      |       12933 |
|      21 | 0x3290      |       12944 |
|      22 | 0x3291      |       12945 |
|      23 | 0x3292      |       12946 |
|      24 | 0x3293      |       12947 |
|      25 | 0x00C8      |         200 |
|      26 | 0x0000      |           0 |
|      27 | 0x0003      |           3 |
|      28 | 0x000F      |          15 |
|      29 | 0x00A3      |         163 |
|      30 | 0x001E      |          30 |
|      31 | 0x32CB      |       13003 |
|      32 | 0x32CC      |       13004 |
|      33 | 0x32CD      |       13005 |
|      34 | 0x32CE      |       13006 |
|      35 | 0x32CF      |       13007 |
|      36 | 0x32D0      |       13008 |
|      37 | 0x0097      |         151 |

## String References

- **3599**: Gah-hahahah! This, me hearty, be the Fishermen's Guild, where sons of the sea gather! If any of ye landlubber-wubbers have a bone to pick with us, then go ahead, make me day!
- **3938**: Gah-hahahah! You be after burnite shell, eh, me matey? Well, aren't you a fool-hearty one to be chasing a thing like that?
- **3939**: Ye see, matey, them burnite shells have long been extinct. They haven't been around since, well, before fair Windurst was even settled!
- **12916**: In Bibiki Bay there be a place known as Purgonorgo Isle. On this island lives a mighty strange character that won't listen to a word we has to say.
- **12918**: We've tried talking it out all civil-like, but things have gotten out o' hand. We've even been settin' monsters on each other in place of talking... Who knows what we'll be facing next!
- **12922**: The next "debate" is set to take place in the middle o' Purgonorgo Isle. Don't ye be losing now, matey!
- **12932**: Get yerself to Attohwa Chasm an' find that Mithran Tracker. She should be able to tell us if it's the real deal.
- **12933**: That paper smells kinda fishy. I'm telling ye, it's a fake!
- **12944**: Arrgh! If Windurst wasn't in cahoots with the Mithran pirates, we'd be able to get on with our battle!
- **12945**: I had me next strategy all worked out fer kickin that warmachine right off the island!
- **12946**: ...Now, just a second there, matey. Who was inside that warmachine, anyhow?
- **12947**: Arrgh! A name shoulda been written right there on the deed! I just can't remember...!

## Events

### Event 65535

#### Metadata

| Field        | Value   |
|--------------|---------|
| Entrypoint   | 0x0000  |
| Data Size    | 1 bytes |
| Instructions | 1       |

```
      00 01 02 03 04 05 06 07  08 09 0A 0B 0C 0D 0E 0F
      -- -- -- -- -- -- -- --  -- -- -- -- -- -- -- --
0000: 00                                                .               
```

#### Opcodes

```
  0: 0x0000 [0x00] END_REQSTACK()
```

### Event 65535.1

#### Metadata

| Field        | Value    |
|--------------|----------|
| Entrypoint   | 0x0001   |
| Data Size    | 16 bytes |
| Instructions | 2        |

```
      00 01 02 03 04 05 06 07  08 09 0A 0B 0C 0D 0E 0F
      -- -- -- -- -- -- -- --  -- -- -- -- -- -- -- --
0000:    66 00 80 F8 FF FF 7F  F8 FF FF 7F 74 6C 6B 30   f..........tlk0
0010: 00                                                .               
```

#### Opcodes

```
  0: 0x0001 [0x66] LOAD_EXT_SCHEDULER_MAIN: Load scheduler "tlk0" with entities [EventEntity, EventEntity], work=40*
  1: 0x0010 [0x00] END_REQSTACK()
```

### Event 65535.2

#### Metadata

| Field        | Value    |
|--------------|----------|
| Entrypoint   | 0x0011   |
| Data Size    | 42 bytes |
| Instructions | 4        |

```
      00 01 02 03 04 05 06 07  08 09 0A 0B 0C 0D 0E 0F
      -- -- -- -- -- -- -- --  -- -- -- -- -- -- -- --
0010:    53 F8 FF FF 7F F8 FF  FF 7F 74 6C 6B 30 66 00   S........tlk0f.
0020: 80 F8 FF FF 7F F8 FF FF  7F 74 6C 6B 31 53 F8 FF  .........tlk1S..
0030: FF 7F F8 FF FF 7F 74 6C  6B 31 00                 ......tlk1.     
```

#### Opcodes

```
  0: 0x0011 [0x53] WAIT_SCHEDULER_TASK: Wait for scheduler "tlk0" with entities [EventEntity, EventEntity]
  1: 0x001E [0x66] LOAD_EXT_SCHEDULER_MAIN: Load scheduler "tlk1" with entities [EventEntity, EventEntity], work=40*
  2: 0x002D [0x53] WAIT_SCHEDULER_TASK: Wait for scheduler "tlk1" with entities [EventEntity, EventEntity]
  3: 0x003A [0x00] END_REQSTACK()
```

### Event 65535.3

#### Metadata

| Field        | Value    |
|--------------|----------|
| Entrypoint   | 0x003B   |
| Data Size    | 16 bytes |
| Instructions | 2        |

```
      00 01 02 03 04 05 06 07  08 09 0A 0B 0C 0D 0E 0F
      -- -- -- -- -- -- -- --  -- -- -- -- -- -- -- --
0030:                                   66 00 80 F8 FF             f....
0040: FF 7F F8 FF FF 7F 74 68  6B 31 00                 ......thk1.     
```

#### Opcodes

```
  0: 0x003B [0x66] LOAD_EXT_SCHEDULER_MAIN: Load scheduler "thk1" with entities [EventEntity, EventEntity], work=40*
  1: 0x004A [0x00] END_REQSTACK()
```

### Event 65535.4

#### Metadata

| Field        | Value    |
|--------------|----------|
| Entrypoint   | 0x004B   |
| Data Size    | 14 bytes |
| Instructions | 2        |

```
      00 01 02 03 04 05 06 07  08 09 0A 0B 0C 0D 0E 0F
      -- -- -- -- -- -- -- --  -- -- -- -- -- -- -- --
0040:                                   53 F8 FF FF 7F             S....
0050: F8 FF FF 7F 74 68 6B 31  00                       ....thk1.       
```

#### Opcodes

```
  0: 0x004B [0x53] WAIT_SCHEDULER_TASK: Wait for scheduler "thk1" with entities [EventEntity, EventEntity]
  1: 0x0058 [0x00] END_REQSTACK()
```

### Event 65535.5

#### Metadata

| Field        | Value    |
|--------------|----------|
| Entrypoint   | 0x0059   |
| Data Size    | 16 bytes |
| Instructions | 2        |

```
      00 01 02 03 04 05 06 07  08 09 0A 0B 0C 0D 0E 0F
      -- -- -- -- -- -- -- --  -- -- -- -- -- -- -- --
0050:                             66 00 80 F8 FF FF 7F           f......
0060: F8 FF FF 7F 74 68 6B 32  00                       ....thk2.       
```

#### Opcodes

```
  0: 0x0059 [0x66] LOAD_EXT_SCHEDULER_MAIN: Load scheduler "thk2" with entities [EventEntity, EventEntity], work=40*
  1: 0x0068 [0x00] END_REQSTACK()
```

### Event 65535.6

#### Metadata

| Field        | Value    |
|--------------|----------|
| Entrypoint   | 0x0069   |
| Data Size    | 14 bytes |
| Instructions | 2        |

```
      00 01 02 03 04 05 06 07  08 09 0A 0B 0C 0D 0E 0F
      -- -- -- -- -- -- -- --  -- -- -- -- -- -- -- --
0060:                             53 F8 FF FF 7F F8 FF           S......
0070: FF 7F 74 68 6B 32 00                              ..thk2.         
```

#### Opcodes

```
  0: 0x0069 [0x53] WAIT_SCHEDULER_TASK: Wait for scheduler "thk2" with entities [EventEntity, EventEntity]
  1: 0x0076 [0x00] END_REQSTACK()
```

### Event 65535.7

#### Metadata

| Field        | Value    |
|--------------|----------|
| Entrypoint   | 0x0077   |
| Data Size    | 16 bytes |
| Instructions | 2        |

```
      00 01 02 03 04 05 06 07  08 09 0A 0B 0C 0D 0E 0F
      -- -- -- -- -- -- -- --  -- -- -- -- -- -- -- --
0070:                      66  01 80 F8 FF FF 7F F8 FF         f........
0080: FF 7F 73 68 6B 30 00                              ..shk0.         
```

#### Opcodes

```
  0: 0x0077 [0x66] LOAD_EXT_SCHEDULER_MAIN: Load scheduler "shk0" with entities [EventEntity, EventEntity], work=41*
  1: 0x0086 [0x00] END_REQSTACK()
```

### Event 65535.8

#### Metadata

| Field        | Value    |
|--------------|----------|
| Entrypoint   | 0x0087   |
| Data Size    | 14 bytes |
| Instructions | 2        |

```
      00 01 02 03 04 05 06 07  08 09 0A 0B 0C 0D 0E 0F
      -- -- -- -- -- -- -- --  -- -- -- -- -- -- -- --
0080:                      53  F8 FF FF 7F F8 FF FF 7F         S........
0090: 73 68 6B 30 00                                    shk0.           
```

#### Opcodes

```
  0: 0x0087 [0x53] WAIT_SCHEDULER_TASK: Wait for scheduler "shk0" with entities [EventEntity, EventEntity]
  1: 0x0094 [0x00] END_REQSTACK()
```

### Event 65535.9

#### Metadata

| Field        | Value    |
|--------------|----------|
| Entrypoint   | 0x0095   |
| Data Size    | 16 bytes |
| Instructions | 2        |

```
      00 01 02 03 04 05 06 07  08 09 0A 0B 0C 0D 0E 0F
      -- -- -- -- -- -- -- --  -- -- -- -- -- -- -- --
0090:                66 00 80  F8 FF FF 7F F8 FF FF 7F       f..........
00A0: 64 69 73 30 00                                    dis0.           
```

#### Opcodes

```
  0: 0x0095 [0x66] LOAD_EXT_SCHEDULER_MAIN: Load scheduler "dis0" with entities [EventEntity, EventEntity], work=40*
  1: 0x00A4 [0x00] END_REQSTACK()
```

### Event 65535.10

#### Metadata

| Field        | Value    |
|--------------|----------|
| Entrypoint   | 0x00A5   |
| Data Size    | 14 bytes |
| Instructions | 2        |

```
      00 01 02 03 04 05 06 07  08 09 0A 0B 0C 0D 0E 0F
      -- -- -- -- -- -- -- --  -- -- -- -- -- -- -- --
00A0:                53 F8 FF  FF 7F F8 FF FF 7F 64 69       S........di
00B0: 73 30 00                                          s0.             
```

#### Opcodes

```
  0: 0x00A5 [0x53] WAIT_SCHEDULER_TASK: Wait for scheduler "dis0" with entities [EventEntity, EventEntity]
  1: 0x00B2 [0x00] END_REQSTACK()
```

### Event 65535.11

#### Metadata

| Field        | Value    |
|--------------|----------|
| Entrypoint   | 0x00B3   |
| Data Size    | 16 bytes |
| Instructions | 2        |

```
      00 01 02 03 04 05 06 07  08 09 0A 0B 0C 0D 0E 0F
      -- -- -- -- -- -- -- --  -- -- -- -- -- -- -- --
00B0:          66 00 80 F8 FF  FF 7F F8 FF FF 7F 70 6F     f..........po
00C0: 69 30 00                                          i0.             
```

#### Opcodes

```
  0: 0x00B3 [0x66] LOAD_EXT_SCHEDULER_MAIN: Load scheduler "poi0" with entities [EventEntity, EventEntity], work=40*
  1: 0x00C2 [0x00] END_REQSTACK()
```

### Event 65535.12

#### Metadata

| Field        | Value    |
|--------------|----------|
| Entrypoint   | 0x00C3   |
| Data Size    | 14 bytes |
| Instructions | 2        |

```
      00 01 02 03 04 05 06 07  08 09 0A 0B 0C 0D 0E 0F
      -- -- -- -- -- -- -- --  -- -- -- -- -- -- -- --
00C0:          53 F8 FF FF 7F  F8 FF FF 7F 70 6F 69 30     S........poi0
00D0: 00                                                .               
```

#### Opcodes

```
  0: 0x00C3 [0x53] WAIT_SCHEDULER_TASK: Wait for scheduler "poi0" with entities [EventEntity, EventEntity]
  1: 0x00D0 [0x00] END_REQSTACK()
```

### Event 65535.13

#### Metadata

| Field        | Value    |
|--------------|----------|
| Entrypoint   | 0x00D1   |
| Data Size    | 16 bytes |
| Instructions | 2        |

```
      00 01 02 03 04 05 06 07  08 09 0A 0B 0C 0D 0E 0F
      -- -- -- -- -- -- -- --  -- -- -- -- -- -- -- --
00D0:    66 00 80 F8 FF FF 7F  F8 FF FF 7F 70 61 73 30   f..........pas0
00E0: 00                                                .               
```

#### Opcodes

```
  0: 0x00D1 [0x66] LOAD_EXT_SCHEDULER_MAIN: Load scheduler "pas0" with entities [EventEntity, EventEntity], work=40*
  1: 0x00E0 [0x00] END_REQSTACK()
```

### Event 65535.14

#### Metadata

| Field        | Value    |
|--------------|----------|
| Entrypoint   | 0x00E1   |
| Data Size    | 14 bytes |
| Instructions | 2        |

```
      00 01 02 03 04 05 06 07  08 09 0A 0B 0C 0D 0E 0F
      -- -- -- -- -- -- -- --  -- -- -- -- -- -- -- --
00E0:    53 F8 FF FF 7F F8 FF  FF 7F 70 61 73 30 00      S........pas0. 
```

#### Opcodes

```
  0: 0x00E1 [0x53] WAIT_SCHEDULER_TASK: Wait for scheduler "pas0" with entities [EventEntity, EventEntity]
  1: 0x00EE [0x00] END_REQSTACK()
```

### Event 65535.15

#### Metadata

| Field        | Value    |
|--------------|----------|
| Entrypoint   | 0x00EF   |
| Data Size    | 16 bytes |
| Instructions | 2        |

```
      00 01 02 03 04 05 06 07  08 09 0A 0B 0C 0D 0E 0F
      -- -- -- -- -- -- -- --  -- -- -- -- -- -- -- --
00E0:                                               66                 f
00F0: 00 80 F8 FF FF 7F F8 FF  FF 7F 73 79 75 30 00     ..........syu0. 
```

#### Opcodes

```
  0: 0x00EF [0x66] LOAD_EXT_SCHEDULER_MAIN: Load scheduler "syu0" with entities [EventEntity, EventEntity], work=40*
  1: 0x00FE [0x00] END_REQSTACK()
```

### Event 65535.16

#### Metadata

| Field        | Value    |
|--------------|----------|
| Entrypoint   | 0x00FF   |
| Data Size    | 14 bytes |
| Instructions | 2        |

```
      00 01 02 03 04 05 06 07  08 09 0A 0B 0C 0D 0E 0F
      -- -- -- -- -- -- -- --  -- -- -- -- -- -- -- --
00F0:                                               53                 S
0100: F8 FF FF 7F F8 FF FF 7F  73 79 75 30 00           ........syu0.   
```

#### Opcodes

```
  0: 0x00FF [0x53] WAIT_SCHEDULER_TASK: Wait for scheduler "syu0" with entities [EventEntity, EventEntity]
  1: 0x010C [0x00] END_REQSTACK()
```

### Event 65535.17

#### Metadata

| Field        | Value    |
|--------------|----------|
| Entrypoint   | 0x010D   |
| Data Size    | 16 bytes |
| Instructions | 2        |

```
      00 01 02 03 04 05 06 07  08 09 0A 0B 0C 0D 0E 0F
      -- -- -- -- -- -- -- --  -- -- -- -- -- -- -- --
0100:                                         66 00 80               f..
0110: F8 FF FF 7F F8 FF FF 7F  77 61 76 30 00           ........wav0.   
```

#### Opcodes

```
  0: 0x010D [0x66] LOAD_EXT_SCHEDULER_MAIN: Load scheduler "wav0" with entities [EventEntity, EventEntity], work=40*
  1: 0x011C [0x00] END_REQSTACK()
```

### Event 65535.18

#### Metadata

| Field        | Value    |
|--------------|----------|
| Entrypoint   | 0x011D   |
| Data Size    | 14 bytes |
| Instructions | 2        |

```
      00 01 02 03 04 05 06 07  08 09 0A 0B 0C 0D 0E 0F
      -- -- -- -- -- -- -- --  -- -- -- -- -- -- -- --
0110:                                         53 F8 FF               S..
0120: FF 7F F8 FF FF 7F 77 61  76 30 00                 ......wav0.     
```

#### Opcodes

```
  0: 0x011D [0x53] WAIT_SCHEDULER_TASK: Wait for scheduler "wav0" with entities [EventEntity, EventEntity]
  1: 0x012A [0x00] END_REQSTACK()
```

### Event 65535.19

#### Metadata

| Field        | Value    |
|--------------|----------|
| Entrypoint   | 0x012B   |
| Data Size    | 16 bytes |
| Instructions | 2        |

```
      00 01 02 03 04 05 06 07  08 09 0A 0B 0C 0D 0E 0F
      -- -- -- -- -- -- -- --  -- -- -- -- -- -- -- --
0120:                                   66 01 80 F8 FF             f....
0130: FF 7F F8 FF FF 7F 65 68  6E 30 00                 ......ehn0.     
```

#### Opcodes

```
  0: 0x012B [0x66] LOAD_EXT_SCHEDULER_MAIN: Load scheduler "ehn0" with entities [EventEntity, EventEntity], work=41*
  1: 0x013A [0x00] END_REQSTACK()
```

### Event 65535.20

#### Metadata

| Field        | Value    |
|--------------|----------|
| Entrypoint   | 0x013B   |
| Data Size    | 22 bytes |
| Instructions | 4        |

```
      00 01 02 03 04 05 06 07  08 09 0A 0B 0C 0D 0E 0F
      -- -- -- -- -- -- -- --  -- -- -- -- -- -- -- --
0130:                                   53 F8 FF FF 7F             S....
0140: F8 FF FF 7F 65 68 6E 30  5E 69 64 6C 30 1C 02 80  ....ehn0^idl0...
0150: 00                                                .               
```

#### Opcodes

```
  0: 0x013B [0x53] WAIT_SCHEDULER_TASK: Wait for scheduler "ehn0" with entities [EventEntity, EventEntity]
  1: 0x0148 [0x5E] EventEntity goes idle (kills current action) (animation: "idl0")
  2: 0x014D [0x1C] WAIT(60* ticks)
  3: 0x0150 [0x00] END_REQSTACK()
```

### Event 65535.21

#### Metadata

| Field        | Value    |
|--------------|----------|
| Entrypoint   | 0x0151   |
| Data Size    | 16 bytes |
| Instructions | 2        |

```
      00 01 02 03 04 05 06 07  08 09 0A 0B 0C 0D 0E 0F
      -- -- -- -- -- -- -- --  -- -- -- -- -- -- -- --
0150:    66 01 80 F8 FF FF 7F  F8 FF FF 7F 65 68 6E 31   f..........ehn1
0160: 00                                                .               
```

#### Opcodes

```
  0: 0x0151 [0x66] LOAD_EXT_SCHEDULER_MAIN: Load scheduler "ehn1" with entities [EventEntity, EventEntity], work=41*
  1: 0x0160 [0x00] END_REQSTACK()
```

### Event 65535.22

#### Metadata

| Field        | Value    |
|--------------|----------|
| Entrypoint   | 0x0161   |
| Data Size    | 14 bytes |
| Instructions | 2        |

```
      00 01 02 03 04 05 06 07  08 09 0A 0B 0C 0D 0E 0F
      -- -- -- -- -- -- -- --  -- -- -- -- -- -- -- --
0160:    53 F8 FF FF 7F F8 FF  FF 7F 65 68 6E 31 00      S........ehn1. 
```

#### Opcodes

```
  0: 0x0161 [0x53] WAIT_SCHEDULER_TASK: Wait for scheduler "ehn1" with entities [EventEntity, EventEntity]
  1: 0x016E [0x00] END_REQSTACK()
```

### Event 65535.23

#### Metadata

| Field        | Value    |
|--------------|----------|
| Entrypoint   | 0x016F   |
| Data Size    | 16 bytes |
| Instructions | 2        |

```
      00 01 02 03 04 05 06 07  08 09 0A 0B 0C 0D 0E 0F
      -- -- -- -- -- -- -- --  -- -- -- -- -- -- -- --
0160:                                               66                 f
0170: 03 80 F8 FF FF 7F F8 FF  FF 7F 6D 73 75 30 00     ..........msu0. 
```

#### Opcodes

```
  0: 0x016F [0x66] LOAD_EXT_SCHEDULER_MAIN: Load scheduler "msu0" with entities [EventEntity, EventEntity], work=42*
  1: 0x017E [0x00] END_REQSTACK()
```

### Event 65535.24

#### Metadata

| Field        | Value    |
|--------------|----------|
| Entrypoint   | 0x017F   |
| Data Size    | 14 bytes |
| Instructions | 2        |

```
      00 01 02 03 04 05 06 07  08 09 0A 0B 0C 0D 0E 0F
      -- -- -- -- -- -- -- --  -- -- -- -- -- -- -- --
0170:                                               53                 S
0180: F8 FF FF 7F F8 FF FF 7F  6D 73 75 30 00           ........msu0.   
```

#### Opcodes

```
  0: 0x017F [0x53] WAIT_SCHEDULER_TASK: Wait for scheduler "msu0" with entities [EventEntity, EventEntity]
  1: 0x018C [0x00] END_REQSTACK()
```

### Event 65535.25

#### Metadata

| Field        | Value    |
|--------------|----------|
| Entrypoint   | 0x018D   |
| Data Size    | 16 bytes |
| Instructions | 2        |

```
      00 01 02 03 04 05 06 07  08 09 0A 0B 0C 0D 0E 0F
      -- -- -- -- -- -- -- --  -- -- -- -- -- -- -- --
0180:                                         66 03 80               f..
0190: F8 FF FF 7F F8 FF FF 7F  6D 73 75 31 00           ........msu1.   
```

#### Opcodes

```
  0: 0x018D [0x66] LOAD_EXT_SCHEDULER_MAIN: Load scheduler "msu1" with entities [EventEntity, EventEntity], work=42*
  1: 0x019C [0x00] END_REQSTACK()
```

### Event 65535.26

#### Metadata

| Field        | Value    |
|--------------|----------|
| Entrypoint   | 0x019D   |
| Data Size    | 22 bytes |
| Instructions | 4        |

```
      00 01 02 03 04 05 06 07  08 09 0A 0B 0C 0D 0E 0F
      -- -- -- -- -- -- -- --  -- -- -- -- -- -- -- --
0190:                                         53 F8 FF               S..
01A0: FF 7F F8 FF FF 7F 6D 73  75 31 5E 69 64 6C 30 1C  ......msu1^idl0.
01B0: 02 80 00                                          ...             
```

#### Opcodes

```
  0: 0x019D [0x53] WAIT_SCHEDULER_TASK: Wait for scheduler "msu1" with entities [EventEntity, EventEntity]
  1: 0x01AA [0x5E] EventEntity goes idle (kills current action) (animation: "idl0")
  2: 0x01AF [0x1C] WAIT(60* ticks)
  3: 0x01B2 [0x00] END_REQSTACK()
```

### Event 65535.27

#### Metadata

| Field        | Value    |
|--------------|----------|
| Entrypoint   | 0x01B3   |
| Data Size    | 16 bytes |
| Instructions | 2        |

```
      00 01 02 03 04 05 06 07  08 09 0A 0B 0C 0D 0E 0F
      -- -- -- -- -- -- -- --  -- -- -- -- -- -- -- --
01B0:          66 01 80 F8 FF  FF 7F F8 FF FF 7F 67 68     f..........gh
01C0: 6E 31 00                                          n1.             
```

#### Opcodes

```
  0: 0x01B3 [0x66] LOAD_EXT_SCHEDULER_MAIN: Load scheduler "ghn1" with entities [EventEntity, EventEntity], work=41*
  1: 0x01C2 [0x00] END_REQSTACK()
```

### Event 65535.28

#### Metadata

| Field        | Value    |
|--------------|----------|
| Entrypoint   | 0x01C3   |
| Data Size    | 14 bytes |
| Instructions | 2        |

```
      00 01 02 03 04 05 06 07  08 09 0A 0B 0C 0D 0E 0F
      -- -- -- -- -- -- -- --  -- -- -- -- -- -- -- --
01C0:          53 F8 FF FF 7F  F8 FF FF 7F 67 68 6E 31     S........ghn1
01D0: 00                                                .               
```

#### Opcodes

```
  0: 0x01C3 [0x53] WAIT_SCHEDULER_TASK: Wait for scheduler "ghn1" with entities [EventEntity, EventEntity]
  1: 0x01D0 [0x00] END_REQSTACK()
```

### Event 65535.29

#### Metadata

| Field        | Value    |
|--------------|----------|
| Entrypoint   | 0x01D1   |
| Data Size    | 16 bytes |
| Instructions | 2        |

```
      00 01 02 03 04 05 06 07  08 09 0A 0B 0C 0D 0E 0F
      -- -- -- -- -- -- -- --  -- -- -- -- -- -- -- --
01D0:    66 00 80 F8 FF FF 7F  F8 FF FF 7F 69 72 6F 30   f..........iro0
01E0: 00                                                .               
```

#### Opcodes

```
  0: 0x01D1 [0x66] LOAD_EXT_SCHEDULER_MAIN: Load scheduler "iro0" with entities [EventEntity, EventEntity], work=40*
  1: 0x01E0 [0x00] END_REQSTACK()
```

### Event 65535.30

#### Metadata

| Field        | Value    |
|--------------|----------|
| Entrypoint   | 0x01E1   |
| Data Size    | 14 bytes |
| Instructions | 2        |

```
      00 01 02 03 04 05 06 07  08 09 0A 0B 0C 0D 0E 0F
      -- -- -- -- -- -- -- --  -- -- -- -- -- -- -- --
01E0:    53 F8 FF FF 7F F8 FF  FF 7F 69 72 6F 30 00      S........iro0. 
```

#### Opcodes

```
  0: 0x01E1 [0x53] WAIT_SCHEDULER_TASK: Wait for scheduler "iro0" with entities [EventEntity, EventEntity]
  1: 0x01EE [0x00] END_REQSTACK()
```

### Event 65535.31

#### Metadata

| Field        | Value    |
|--------------|----------|
| Entrypoint   | 0x01EF   |
| Data Size    | 16 bytes |
| Instructions | 2        |

```
      00 01 02 03 04 05 06 07  08 09 0A 0B 0C 0D 0E 0F
      -- -- -- -- -- -- -- --  -- -- -- -- -- -- -- --
01E0:                                               66                 f
01F0: 00 80 F8 FF FF 7F F8 FF  FF 7F 77 61 69 30 00     ..........wai0. 
```

#### Opcodes

```
  0: 0x01EF [0x66] LOAD_EXT_SCHEDULER_MAIN: Load scheduler "wai0" with entities [EventEntity, EventEntity], work=40*
  1: 0x01FE [0x00] END_REQSTACK()
```

### Event 65535.32

#### Metadata

| Field        | Value    |
|--------------|----------|
| Entrypoint   | 0x01FF   |
| Data Size    | 14 bytes |
| Instructions | 2        |

```
      00 01 02 03 04 05 06 07  08 09 0A 0B 0C 0D 0E 0F
      -- -- -- -- -- -- -- --  -- -- -- -- -- -- -- --
01F0:                                               53                 S
0200: F8 FF FF 7F F8 FF FF 7F  77 61 69 30 00           ........wai0.   
```

#### Opcodes

```
  0: 0x01FF [0x53] WAIT_SCHEDULER_TASK: Wait for scheduler "wai0" with entities [EventEntity, EventEntity]
  1: 0x020C [0x00] END_REQSTACK()
```

### Event 65535.33

#### Metadata

| Field        | Value    |
|--------------|----------|
| Entrypoint   | 0x020D   |
| Data Size    | 16 bytes |
| Instructions | 2        |

```
      00 01 02 03 04 05 06 07  08 09 0A 0B 0C 0D 0E 0F
      -- -- -- -- -- -- -- --  -- -- -- -- -- -- -- --
0200:                                         66 03 80               f..
0210: F8 FF FF 7F F8 FF FF 7F  62 69 6B 30 00           ........bik0.   
```

#### Opcodes

```
  0: 0x020D [0x66] LOAD_EXT_SCHEDULER_MAIN: Load scheduler "bik0" with entities [EventEntity, EventEntity], work=42*
  1: 0x021C [0x00] END_REQSTACK()
```

### Event 65535.34

#### Metadata

| Field        | Value    |
|--------------|----------|
| Entrypoint   | 0x021D   |
| Data Size    | 14 bytes |
| Instructions | 2        |

```
      00 01 02 03 04 05 06 07  08 09 0A 0B 0C 0D 0E 0F
      -- -- -- -- -- -- -- --  -- -- -- -- -- -- -- --
0210:                                         53 F8 FF               S..
0220: FF 7F F8 FF FF 7F 62 69  6B 30 00                 ......bik0.     
```

#### Opcodes

```
  0: 0x021D [0x53] WAIT_SCHEDULER_TASK: Wait for scheduler "bik0" with entities [EventEntity, EventEntity]
  1: 0x022A [0x00] END_REQSTACK()
```

### Event 65535.35

#### Metadata

| Field        | Value    |
|--------------|----------|
| Entrypoint   | 0x022B   |
| Data Size    | 16 bytes |
| Instructions | 2        |

```
      00 01 02 03 04 05 06 07  08 09 0A 0B 0C 0D 0E 0F
      -- -- -- -- -- -- -- --  -- -- -- -- -- -- -- --
0220:                                   66 03 80 F8 FF             f....
0230: FF 7F F8 FF FF 7F 62 69  6B 31 00                 ......bik1.     
```

#### Opcodes

```
  0: 0x022B [0x66] LOAD_EXT_SCHEDULER_MAIN: Load scheduler "bik1" with entities [EventEntity, EventEntity], work=42*
  1: 0x023A [0x00] END_REQSTACK()
```

### Event 65535.36

#### Metadata

| Field        | Value    |
|--------------|----------|
| Entrypoint   | 0x023B   |
| Data Size    | 14 bytes |
| Instructions | 2        |

```
      00 01 02 03 04 05 06 07  08 09 0A 0B 0C 0D 0E 0F
      -- -- -- -- -- -- -- --  -- -- -- -- -- -- -- --
0230:                                   53 F8 FF FF 7F             S....
0240: F8 FF FF 7F 62 69 6B 31  00                       ....bik1.       
```

#### Opcodes

```
  0: 0x023B [0x53] WAIT_SCHEDULER_TASK: Wait for scheduler "bik1" with entities [EventEntity, EventEntity]
  1: 0x0248 [0x00] END_REQSTACK()
```

### Event 65535.37

#### Metadata

| Field        | Value    |
|--------------|----------|
| Entrypoint   | 0x0249   |
| Data Size    | 16 bytes |
| Instructions | 2        |

```
      00 01 02 03 04 05 06 07  08 09 0A 0B 0C 0D 0E 0F
      -- -- -- -- -- -- -- --  -- -- -- -- -- -- -- --
0240:                             66 00 80 F8 FF FF 7F           f......
0250: F8 FF FF 7F 67 6B 72 30  00                       ....gkr0.       
```

#### Opcodes

```
  0: 0x0249 [0x66] LOAD_EXT_SCHEDULER_MAIN: Load scheduler "gkr0" with entities [EventEntity, EventEntity], work=40*
  1: 0x0258 [0x00] END_REQSTACK()
```

### Event 65535.38

#### Metadata

| Field        | Value    |
|--------------|----------|
| Entrypoint   | 0x0259   |
| Data Size    | 14 bytes |
| Instructions | 2        |

```
      00 01 02 03 04 05 06 07  08 09 0A 0B 0C 0D 0E 0F
      -- -- -- -- -- -- -- --  -- -- -- -- -- -- -- --
0250:                             53 F8 FF FF 7F F8 FF           S......
0260: FF 7F 67 6B 72 30 00                              ..gkr0.         
```

#### Opcodes

```
  0: 0x0259 [0x53] WAIT_SCHEDULER_TASK: Wait for scheduler "gkr0" with entities [EventEntity, EventEntity]
  1: 0x0266 [0x00] END_REQSTACK()
```

### Event 65535.39

#### Metadata

| Field        | Value    |
|--------------|----------|
| Entrypoint   | 0x0267   |
| Data Size    | 16 bytes |
| Instructions | 2        |

```
      00 01 02 03 04 05 06 07  08 09 0A 0B 0C 0D 0E 0F
      -- -- -- -- -- -- -- --  -- -- -- -- -- -- -- --
0260:                      66  00 80 F8 FF FF 7F F8 FF         f........
0270: FF 7F 67 6B 72 31 00                              ..gkr1.         
```

#### Opcodes

```
  0: 0x0267 [0x66] LOAD_EXT_SCHEDULER_MAIN: Load scheduler "gkr1" with entities [EventEntity, EventEntity], work=40*
  1: 0x0276 [0x00] END_REQSTACK()
```

### Event 65535.40

#### Metadata

| Field        | Value    |
|--------------|----------|
| Entrypoint   | 0x0277   |
| Data Size    | 14 bytes |
| Instructions | 2        |

```
      00 01 02 03 04 05 06 07  08 09 0A 0B 0C 0D 0E 0F
      -- -- -- -- -- -- -- --  -- -- -- -- -- -- -- --
0270:                      53  F8 FF FF 7F F8 FF FF 7F         S........
0280: 67 6B 72 31 00                                    gkr1.           
```

#### Opcodes

```
  0: 0x0277 [0x53] WAIT_SCHEDULER_TASK: Wait for scheduler "gkr1" with entities [EventEntity, EventEntity]
  1: 0x0284 [0x00] END_REQSTACK()
```

### Event 65535.41

#### Metadata

| Field        | Value    |
|--------------|----------|
| Entrypoint   | 0x0285   |
| Data Size    | 16 bytes |
| Instructions | 2        |

```
      00 01 02 03 04 05 06 07  08 09 0A 0B 0C 0D 0E 0F
      -- -- -- -- -- -- -- --  -- -- -- -- -- -- -- --
0280:                66 01 80  F8 FF FF 7F F8 FF FF 7F       f..........
0290: 6F 68 68 30 00                                    ohh0.           
```

#### Opcodes

```
  0: 0x0285 [0x66] LOAD_EXT_SCHEDULER_MAIN: Load scheduler "ohh0" with entities [EventEntity, EventEntity], work=41*
  1: 0x0294 [0x00] END_REQSTACK()
```

### Event 65535.42

#### Metadata

| Field        | Value    |
|--------------|----------|
| Entrypoint   | 0x0295   |
| Data Size    | 22 bytes |
| Instructions | 4        |

```
      00 01 02 03 04 05 06 07  08 09 0A 0B 0C 0D 0E 0F
      -- -- -- -- -- -- -- --  -- -- -- -- -- -- -- --
0290:                53 F8 FF  FF 7F F8 FF FF 7F 6F 68       S........oh
02A0: 68 30 5E 69 64 6C 30 1C  02 80 00                 h0^idl0....     
```

#### Opcodes

```
  0: 0x0295 [0x53] WAIT_SCHEDULER_TASK: Wait for scheduler "ohh0" with entities [EventEntity, EventEntity]
  1: 0x02A2 [0x5E] EventEntity goes idle (kills current action) (animation: "idl0")
  2: 0x02A7 [0x1C] WAIT(60* ticks)
  3: 0x02AA [0x00] END_REQSTACK()
```

### Event 65535.43

#### Metadata

| Field        | Value    |
|--------------|----------|
| Entrypoint   | 0x02AB   |
| Data Size    | 44 bytes |
| Instructions | 4        |

```
      00 01 02 03 04 05 06 07  08 09 0A 0B 0C 0D 0E 0F
      -- -- -- -- -- -- -- --  -- -- -- -- -- -- -- --
02A0:                                   66 01 80 F8 FF             f....
02B0: FF 7F F8 FF FF 7F 73 68  6B 30 53 F8 FF FF 7F F8  ......shk0S.....
02C0: FF FF 7F 73 68 6B 30 66  00 80 F8 FF FF 7F F8 FF  ...shk0f........
02D0: FF 7F 7A 69 74 30 00                              ..zit0.         
```

#### Opcodes

```
  0: 0x02AB [0x66] LOAD_EXT_SCHEDULER_MAIN: Load scheduler "shk0" with entities [EventEntity, EventEntity], work=41*
  1: 0x02BA [0x53] WAIT_SCHEDULER_TASK: Wait for scheduler "shk0" with entities [EventEntity, EventEntity]
  2: 0x02C7 [0x66] LOAD_EXT_SCHEDULER_MAIN: Load scheduler "zit0" with entities [EventEntity, EventEntity], work=40*
  3: 0x02D6 [0x00] END_REQSTACK()
```

### Event 65535.44

#### Metadata

| Field        | Value    |
|--------------|----------|
| Entrypoint   | 0x02D7   |
| Data Size    | 16 bytes |
| Instructions | 2        |

```
      00 01 02 03 04 05 06 07  08 09 0A 0B 0C 0D 0E 0F
      -- -- -- -- -- -- -- --  -- -- -- -- -- -- -- --
02D0:                      66  00 80 F8 FF FF 7F F8 FF         f........
02E0: FF 7F 7A 69 74 30 00                              ..zit0.         
```

#### Opcodes

```
  0: 0x02D7 [0x66] LOAD_EXT_SCHEDULER_MAIN: Load scheduler "zit0" with entities [EventEntity, EventEntity], work=40*
  1: 0x02E6 [0x00] END_REQSTACK()
```

### Event 65535.45

#### Metadata

| Field        | Value    |
|--------------|----------|
| Entrypoint   | 0x02E7   |
| Data Size    | 14 bytes |
| Instructions | 2        |

```
      00 01 02 03 04 05 06 07  08 09 0A 0B 0C 0D 0E 0F
      -- -- -- -- -- -- -- --  -- -- -- -- -- -- -- --
02E0:                      53  F8 FF FF 7F F8 FF FF 7F         S........
02F0: 7A 69 74 30 00                                    zit0.           
```

#### Opcodes

```
  0: 0x02E7 [0x53] WAIT_SCHEDULER_TASK: Wait for scheduler "zit0" with entities [EventEntity, EventEntity]
  1: 0x02F4 [0x00] END_REQSTACK()
```

### Event 65535.46

#### Metadata

| Field        | Value    |
|--------------|----------|
| Entrypoint   | 0x02F5   |
| Data Size    | 18 bytes |
| Instructions | 4        |

```
      00 01 02 03 04 05 06 07  08 09 0A 0B 0C 0D 0E 0F
      -- -- -- -- -- -- -- --  -- -- -- -- -- -- -- --
02F0:                6E F8 FF  FF 7F 04 80 99 F8 FF FF       n..........
0300: 7F 99 F8 FF FF 7F 00                              .......         
```

#### Opcodes

```
  0: 0x02F5 [0x6E] EventEntity uses emote 1*
  1: 0x02FC [0x99] Wait for EventEntity animation to complete
  2: 0x0301 [0x99] Wait for EventEntity animation to complete
  3: 0x0306 [0x00] END_REQSTACK()
```

### Event 65535.47

#### Metadata

| Field        | Value    |
|--------------|----------|
| Entrypoint   | 0x0307   |
| Data Size    | 18 bytes |
| Instructions | 4        |

```
      00 01 02 03 04 05 06 07  08 09 0A 0B 0C 0D 0E 0F
      -- -- -- -- -- -- -- --  -- -- -- -- -- -- -- --
0300:                      6E  F8 FF FF 7F 05 80 99 F8         n........
0310: FF FF 7F 99 F8 FF FF 7F  00                       .........       
```

#### Opcodes

```
  0: 0x0307 [0x6E] EventEntity uses emote 7*
  1: 0x030E [0x99] Wait for EventEntity animation to complete
  2: 0x0313 [0x99] Wait for EventEntity animation to complete
  3: 0x0318 [0x00] END_REQSTACK()
```

### Event 65535.48

#### Metadata

| Field        | Value    |
|--------------|----------|
| Entrypoint   | 0x0319   |
| Data Size    | 18 bytes |
| Instructions | 4        |

```
      00 01 02 03 04 05 06 07  08 09 0A 0B 0C 0D 0E 0F
      -- -- -- -- -- -- -- --  -- -- -- -- -- -- -- --
0310:                             6E F8 FF FF 7F 06 80           n......
0320: 99 F8 FF FF 7F 99 F8 FF  FF 7F 00                 ...........     
```

#### Opcodes

```
  0: 0x0319 [0x6E] EventEntity uses emote 6*
  1: 0x0320 [0x99] Wait for EventEntity animation to complete
  2: 0x0325 [0x99] Wait for EventEntity animation to complete
  3: 0x032A [0x00] END_REQSTACK()
```

### Event 65535.49

#### Metadata

| Field        | Value    |
|--------------|----------|
| Entrypoint   | 0x032B   |
| Data Size    | 18 bytes |
| Instructions | 4        |

```
      00 01 02 03 04 05 06 07  08 09 0A 0B 0C 0D 0E 0F
      -- -- -- -- -- -- -- --  -- -- -- -- -- -- -- --
0320:                                   6E F8 FF FF 7F             n....
0330: 07 80 99 F8 FF FF 7F 99  F8 FF FF 7F 00           .............   
```

#### Opcodes

```
  0: 0x032B [0x6E] EventEntity uses emote 8*
  1: 0x0332 [0x99] Wait for EventEntity animation to complete
  2: 0x0337 [0x99] Wait for EventEntity animation to complete
  3: 0x033C [0x00] END_REQSTACK()
```

### Event 65535.50

#### Metadata

| Field        | Value    |
|--------------|----------|
| Entrypoint   | 0x033D   |
| Data Size    | 18 bytes |
| Instructions | 4        |

```
      00 01 02 03 04 05 06 07  08 09 0A 0B 0C 0D 0E 0F
      -- -- -- -- -- -- -- --  -- -- -- -- -- -- -- --
0330:                                         6E F8 FF               n..
0340: FF 7F 08 80 99 F8 FF FF  7F 99 F8 FF FF 7F 00     ............... 
```

#### Opcodes

```
  0: 0x033D [0x6E] EventEntity uses emote 13*
  1: 0x0344 [0x99] Wait for EventEntity animation to complete
  2: 0x0349 [0x99] Wait for EventEntity animation to complete
  3: 0x034E [0x00] END_REQSTACK()
```

### Event 65535.51

#### Metadata

| Field        | Value    |
|--------------|----------|
| Entrypoint   | 0x034F   |
| Data Size    | 27 bytes |
| Instructions | 3        |

```
      00 01 02 03 04 05 06 07  08 09 0A 0B 0C 0D 0E 0F
      -- -- -- -- -- -- -- --  -- -- -- -- -- -- -- --
0340:                                               2C                 ,
0350: F8 FF FF 7F F8 FF FF 7F  64 65 61 64 53 F8 FF FF  ........deadS...
0360: 7F F8 FF FF 7F 64 65 61  64 00                    .....dead.      
```

#### Opcodes

```
  0: 0x034F [0x2C] CREATE_SCHEDULER_TASK: Create scheduler "dead" with entities [EventEntity, EventEntity]
  1: 0x035C [0x53] WAIT_SCHEDULER_TASK: Wait for scheduler "dead" with entities [EventEntity, EventEntity]
  2: 0x0369 [0x00] END_REQSTACK()
```

### Event 65535.52

#### Metadata

| Field        | Value   |
|--------------|---------|
| Entrypoint   | 0x036A  |
| Data Size    | 9 bytes |
| Instructions | 3       |

```
      00 01 02 03 04 05 06 07  08 09 0A 0B 0C 0D 0E 0F
      -- -- -- -- -- -- -- --  -- -- -- -- -- -- -- --
0360:                                5E 69 64 6C 30 1C            ^idl0.
0370: 02 80 00                                          ...             
```

#### Opcodes

```
  0: 0x036A [0x5E] EventEntity goes idle (kills current action) (animation: "idl0")
  1: 0x036F [0x1C] WAIT(60* ticks)
  2: 0x0372 [0x00] END_REQSTACK()
```

### Event 65535.53

#### Metadata

| Field        | Value    |
|--------------|----------|
| Entrypoint   | 0x0373   |
| Data Size    | 16 bytes |
| Instructions | 2        |

```
      00 01 02 03 04 05 06 07  08 09 0A 0B 0C 0D 0E 0F
      -- -- -- -- -- -- -- --  -- -- -- -- -- -- -- --
0370:          66 01 80 F8 FF  FF 7F F8 FF FF 7F 63 61     f..........ca
0380: 62 6B 00                                          bk.             
```

#### Opcodes

```
  0: 0x0373 [0x66] LOAD_EXT_SCHEDULER_MAIN: Load scheduler "cabk" with entities [EventEntity, EventEntity], work=41*
  1: 0x0382 [0x00] END_REQSTACK()
```

### Event 65535.54

#### Metadata

| Field        | Value    |
|--------------|----------|
| Entrypoint   | 0x0383   |
| Data Size    | 14 bytes |
| Instructions | 2        |

```
      00 01 02 03 04 05 06 07  08 09 0A 0B 0C 0D 0E 0F
      -- -- -- -- -- -- -- --  -- -- -- -- -- -- -- --
0380:          53 F8 FF FF 7F  F8 FF FF 7F 63 61 62 6B     S........cabk
0390: 00                                                .               
```

#### Opcodes

```
  0: 0x0383 [0x53] WAIT_SCHEDULER_TASK: Wait for scheduler "cabk" with entities [EventEntity, EventEntity]
  1: 0x0390 [0x00] END_REQSTACK()
```

### Event 65535.55

#### Metadata

| Field        | Value    |
|--------------|----------|
| Entrypoint   | 0x0391   |
| Data Size    | 16 bytes |
| Instructions | 2        |

```
      00 01 02 03 04 05 06 07  08 09 0A 0B 0C 0D 0E 0F
      -- -- -- -- -- -- -- --  -- -- -- -- -- -- -- --
0390:    66 09 80 F8 FF FF 7F  F8 FF FF 7F 73 70 65 66   f..........spef
03A0: 00                                                .               
```

#### Opcodes

```
  0: 0x0391 [0x66] LOAD_EXT_SCHEDULER_MAIN: Load scheduler "spef" with entities [EventEntity, EventEntity], work=43*
  1: 0x03A0 [0x00] END_REQSTACK()
```

### Event 65535.56

#### Metadata

| Field        | Value    |
|--------------|----------|
| Entrypoint   | 0x03A1   |
| Data Size    | 14 bytes |
| Instructions | 2        |

```
      00 01 02 03 04 05 06 07  08 09 0A 0B 0C 0D 0E 0F
      -- -- -- -- -- -- -- --  -- -- -- -- -- -- -- --
03A0:    53 F8 FF FF 7F F8 FF  FF 7F 73 70 65 66 00      S........spef. 
```

#### Opcodes

```
  0: 0x03A1 [0x53] WAIT_SCHEDULER_TASK: Wait for scheduler "spef" with entities [EventEntity, EventEntity]
  1: 0x03AE [0x00] END_REQSTACK()
```

### Event 65535.57

#### Metadata

| Field        | Value    |
|--------------|----------|
| Entrypoint   | 0x03AF   |
| Data Size    | 16 bytes |
| Instructions | 2        |

```
      00 01 02 03 04 05 06 07  08 09 0A 0B 0C 0D 0E 0F
      -- -- -- -- -- -- -- --  -- -- -- -- -- -- -- --
03A0:                                               5B                 [
03B0: 0A 80 F8 FF FF 7F F8 FF  FF 7F 6F 6B 69 72 00     ..........okir. 
```

#### Opcodes

```
  0: 0x03AF [0x5B] LOAD_EXT_SCHEDULER: Load scheduler "okir" with entities [EventEntity, EventEntity], work=430*
  1: 0x03BE [0x00] END_REQSTACK()
```

### Event 65535.58

#### Metadata

| Field        | Value    |
|--------------|----------|
| Entrypoint   | 0x03BF   |
| Data Size    | 14 bytes |
| Instructions | 2        |

```
      00 01 02 03 04 05 06 07  08 09 0A 0B 0C 0D 0E 0F
      -- -- -- -- -- -- -- --  -- -- -- -- -- -- -- --
03B0:                                               53                 S
03C0: F8 FF FF 7F F8 FF FF 7F  6F 6B 69 72 00           ........okir.   
```

#### Opcodes

```
  0: 0x03BF [0x53] WAIT_SCHEDULER_TASK: Wait for scheduler "okir" with entities [EventEntity, EventEntity]
  1: 0x03CC [0x00] END_REQSTACK()
```

### Event 65535.59

#### Metadata

| Field        | Value    |
|--------------|----------|
| Entrypoint   | 0x03CD   |
| Data Size    | 16 bytes |
| Instructions | 2        |

```
      00 01 02 03 04 05 06 07  08 09 0A 0B 0C 0D 0E 0F
      -- -- -- -- -- -- -- --  -- -- -- -- -- -- -- --
03C0:                                         5B 0B 80               [..
03D0: F8 FF FF 7F F8 FF FF 7F  75 73 69 30 00           ........usi0.   
```

#### Opcodes

```
  0: 0x03CD [0x5B] LOAD_EXT_SCHEDULER: Load scheduler "usi0" with entities [EventEntity, EventEntity], work=431*
  1: 0x03DC [0x00] END_REQSTACK()
```

### Event 65535.60

#### Metadata

| Field        | Value    |
|--------------|----------|
| Entrypoint   | 0x03DD   |
| Data Size    | 14 bytes |
| Instructions | 2        |

```
      00 01 02 03 04 05 06 07  08 09 0A 0B 0C 0D 0E 0F
      -- -- -- -- -- -- -- --  -- -- -- -- -- -- -- --
03D0:                                         53 F8 FF               S..
03E0: FF 7F F8 FF FF 7F 75 73  69 30 00                 ......usi0.     
```

#### Opcodes

```
  0: 0x03DD [0x53] WAIT_SCHEDULER_TASK: Wait for scheduler "usi0" with entities [EventEntity, EventEntity]
  1: 0x03EA [0x00] END_REQSTACK()
```

### Event 65535.61

#### Metadata

| Field        | Value    |
|--------------|----------|
| Entrypoint   | 0x03EB   |
| Data Size    | 16 bytes |
| Instructions | 2        |

```
      00 01 02 03 04 05 06 07  08 09 0A 0B 0C 0D 0E 0F
      -- -- -- -- -- -- -- --  -- -- -- -- -- -- -- --
03E0:                                   5B 0B 80 F8 FF             [....
03F0: FF 7F F8 FF FF 7F 75 73  69 31 00                 ......usi1.     
```

#### Opcodes

```
  0: 0x03EB [0x5B] LOAD_EXT_SCHEDULER: Load scheduler "usi1" with entities [EventEntity, EventEntity], work=431*
  1: 0x03FA [0x00] END_REQSTACK()
```

### Event 65535.62

#### Metadata

| Field        | Value    |
|--------------|----------|
| Entrypoint   | 0x03FB   |
| Data Size    | 14 bytes |
| Instructions | 2        |

```
      00 01 02 03 04 05 06 07  08 09 0A 0B 0C 0D 0E 0F
      -- -- -- -- -- -- -- --  -- -- -- -- -- -- -- --
03F0:                                   53 F8 FF FF 7F             S....
0400: F8 FF FF 7F 75 73 69 31  00                       ....usi1.       
```

#### Opcodes

```
  0: 0x03FB [0x53] WAIT_SCHEDULER_TASK: Wait for scheduler "usi1" with entities [EventEntity, EventEntity]
  1: 0x0408 [0x00] END_REQSTACK()
```

### Event 65535.63

#### Metadata

| Field        | Value    |
|--------------|----------|
| Entrypoint   | 0x0409   |
| Data Size    | 16 bytes |
| Instructions | 2        |

```
      00 01 02 03 04 05 06 07  08 09 0A 0B 0C 0D 0E 0F
      -- -- -- -- -- -- -- --  -- -- -- -- -- -- -- --
0400:                             66 03 80 F8 FF FF 7F           f......
0410: F8 FF FF 7F 74 65 68 30  00                       ....teh0.       
```

#### Opcodes

```
  0: 0x0409 [0x66] LOAD_EXT_SCHEDULER_MAIN: Load scheduler "teh0" with entities [EventEntity, EventEntity], work=42*
  1: 0x0418 [0x00] END_REQSTACK()
```

### Event 65535.64

#### Metadata

| Field        | Value    |
|--------------|----------|
| Entrypoint   | 0x0419   |
| Data Size    | 14 bytes |
| Instructions | 2        |

```
      00 01 02 03 04 05 06 07  08 09 0A 0B 0C 0D 0E 0F
      -- -- -- -- -- -- -- --  -- -- -- -- -- -- -- --
0410:                             53 F8 FF FF 7F F8 FF           S......
0420: FF 7F 74 65 68 30 00                              ..teh0.         
```

#### Opcodes

```
  0: 0x0419 [0x53] WAIT_SCHEDULER_TASK: Wait for scheduler "teh0" with entities [EventEntity, EventEntity]
  1: 0x0426 [0x00] END_REQSTACK()
```

### Event 65535.65

#### Metadata

| Field        | Value    |
|--------------|----------|
| Entrypoint   | 0x0427   |
| Data Size    | 16 bytes |
| Instructions | 2        |

```
      00 01 02 03 04 05 06 07  08 09 0A 0B 0C 0D 0E 0F
      -- -- -- -- -- -- -- --  -- -- -- -- -- -- -- --
0420:                      66  03 80 F8 FF FF 7F F8 FF         f........
0430: FF 7F 74 65 68 31 00                              ..teh1.         
```

#### Opcodes

```
  0: 0x0427 [0x66] LOAD_EXT_SCHEDULER_MAIN: Load scheduler "teh1" with entities [EventEntity, EventEntity], work=42*
  1: 0x0436 [0x00] END_REQSTACK()
```

### Event 65535.66

#### Metadata

| Field        | Value    |
|--------------|----------|
| Entrypoint   | 0x0437   |
| Data Size    | 14 bytes |
| Instructions | 2        |

```
      00 01 02 03 04 05 06 07  08 09 0A 0B 0C 0D 0E 0F
      -- -- -- -- -- -- -- --  -- -- -- -- -- -- -- --
0430:                      53  F8 FF FF 7F F8 FF FF 7F         S........
0440: 74 65 68 31 00                                    teh1.           
```

#### Opcodes

```
  0: 0x0437 [0x53] WAIT_SCHEDULER_TASK: Wait for scheduler "teh1" with entities [EventEntity, EventEntity]
  1: 0x0444 [0x00] END_REQSTACK()
```

### Event 65535.67

#### Metadata

| Field        | Value    |
|--------------|----------|
| Entrypoint   | 0x0445   |
| Data Size    | 16 bytes |
| Instructions | 2        |

```
      00 01 02 03 04 05 06 07  08 09 0A 0B 0C 0D 0E 0F
      -- -- -- -- -- -- -- --  -- -- -- -- -- -- -- --
0440:                66 0C 80  F8 FF FF 7F F8 FF FF 7F       f..........
0450: 6D 64 71 30 00                                    mdq0.           
```

#### Opcodes

```
  0: 0x0445 [0x66] LOAD_EXT_SCHEDULER_MAIN: Load scheduler "mdq0" with entities [EventEntity, EventEntity], work=46*
  1: 0x0454 [0x00] END_REQSTACK()
```

### Event 65535.68

#### Metadata

| Field        | Value    |
|--------------|----------|
| Entrypoint   | 0x0455   |
| Data Size    | 14 bytes |
| Instructions | 2        |

```
      00 01 02 03 04 05 06 07  08 09 0A 0B 0C 0D 0E 0F
      -- -- -- -- -- -- -- --  -- -- -- -- -- -- -- --
0450:                53 F8 FF  FF 7F F8 FF FF 7F 6D 64       S........md
0460: 71 30 00                                          q0.             
```

#### Opcodes

```
  0: 0x0455 [0x53] WAIT_SCHEDULER_TASK: Wait for scheduler "mdq0" with entities [EventEntity, EventEntity]
  1: 0x0462 [0x00] END_REQSTACK()
```

### Event 65535.69

#### Metadata

| Field        | Value    |
|--------------|----------|
| Entrypoint   | 0x0463   |
| Data Size    | 16 bytes |
| Instructions | 2        |

```
      00 01 02 03 04 05 06 07  08 09 0A 0B 0C 0D 0E 0F
      -- -- -- -- -- -- -- --  -- -- -- -- -- -- -- --
0460:          66 0C 80 F8 FF  FF 7F F8 FF FF 7F 6D 64     f..........md
0470: 71 33 00                                          q3.             
```

#### Opcodes

```
  0: 0x0463 [0x66] LOAD_EXT_SCHEDULER_MAIN: Load scheduler "mdq3" with entities [EventEntity, EventEntity], work=46*
  1: 0x0472 [0x00] END_REQSTACK()
```

### Event 65535.70

#### Metadata

| Field        | Value    |
|--------------|----------|
| Entrypoint   | 0x0473   |
| Data Size    | 14 bytes |
| Instructions | 2        |

```
      00 01 02 03 04 05 06 07  08 09 0A 0B 0C 0D 0E 0F
      -- -- -- -- -- -- -- --  -- -- -- -- -- -- -- --
0470:          53 F8 FF FF 7F  F8 FF FF 7F 6D 64 71 33     S........mdq3
0480: 00                                                .               
```

#### Opcodes

```
  0: 0x0473 [0x53] WAIT_SCHEDULER_TASK: Wait for scheduler "mdq3" with entities [EventEntity, EventEntity]
  1: 0x0480 [0x00] END_REQSTACK()
```

### Event 202

#### Metadata

| Field        | Value    |
|--------------|----------|
| Entrypoint   | 0x0481   |
| Data Size    | 29 bytes |
| Instructions | 10       |

```
      00 01 02 03 04 05 06 07  08 09 0A 0B 0C 0D 0E 0F
      -- -- -- -- -- -- -- --  -- -- -- -- -- -- -- --
0480:    1E F0 FF FF 7F 6F 70  29 08 35 00 0F 01 15 1D   .....op).5.....
0490: 0D 80 23 29 08 35 00 0F  01 16 20 00 21 00        ..#).5.... .!.  
```

#### Opcodes

```
  0: 0x0481 [0x1E] EventEntity looks at LocalPlayer and starts talking
  1: 0x0486 [0x6F] WAIT_FRAME_DELAY: Yield until WaitTime reaches zero
  2: 0x0487 [0x70] WAIT_ENTITY_RENDER_FLAG: Wait while EventEntity->Render.Flags3 bit 2 is set (cancel turn if not)
  3: 0x0488 [0x29] REQ_SET_WAIT(priority=0x08, entity_id=Chipmy-Popmy (ID: 17760309/0x010F0035), tag_num=0x15)
  4: 0x048F [0x1D] PRINT_EVENT_MESSAGE(message_id=3599*)
     "Gah-hahahah! This, me hearty, be the Fishermen's Guild, where sons of the sea gather! If any of ye landlubber-wubbers have a bone to pick with us, then go ahead, make me day!"
  5: 0x0492 [0x23] WAIT_FOR_DIALOG_INTERACTION
  6: 0x0493 [0x29] REQ_SET_WAIT(priority=0x08, entity_id=Chipmy-Popmy (ID: 17760309/0x010F0035), tag_num=0x16)
  7: 0x049A [0x20] SET_CLI_EVENT_UC_FLAG: Unlock player control
  8: 0x049C [0x21] END_EVENT
  9: 0x049D [0x00] END_REQSTACK()
```

### Event 317

#### Metadata

| Field        | Value    |
|--------------|----------|
| Entrypoint   | 0x049E   |
| Data Size    | 47 bytes |
| Instructions | 14       |

```
      00 01 02 03 04 05 06 07  08 09 0A 0B 0C 0D 0E 0F
      -- -- -- -- -- -- -- --  -- -- -- -- -- -- -- --
0490:                                            1E F0                ..
04A0: FF FF 7F 6F 70 29 08 35  00 0F 01 15 1D 0E 80 23  ...op).5.......#
04B0: 29 08 35 00 0F 01 16 29  08 35 00 0F 01 0B 1D 0F  ).5....).5......
04C0: 80 23 29 08 35 00 0F 01  0C 20 00 21 00           .#).5.... .!.   
```

#### Opcodes

```
  0: 0x049E [0x1E] EventEntity looks at LocalPlayer and starts talking
  1: 0x04A3 [0x6F] WAIT_FRAME_DELAY: Yield until WaitTime reaches zero
  2: 0x04A4 [0x70] WAIT_ENTITY_RENDER_FLAG: Wait while EventEntity->Render.Flags3 bit 2 is set (cancel turn if not)
  3: 0x04A5 [0x29] REQ_SET_WAIT(priority=0x08, entity_id=Chipmy-Popmy (ID: 17760309/0x010F0035), tag_num=0x15)
  4: 0x04AC [0x1D] PRINT_EVENT_MESSAGE(message_id=3938*)
     "Gah-hahahah! You be after burnite shell, eh, me matey? Well, aren't you a fool-hearty one to be chasing a thing like that?"
  5: 0x04AF [0x23] WAIT_FOR_DIALOG_INTERACTION
  6: 0x04B0 [0x29] REQ_SET_WAIT(priority=0x08, entity_id=Chipmy-Popmy (ID: 17760309/0x010F0035), tag_num=0x16)
  7: 0x04B7 [0x29] REQ_SET_WAIT(priority=0x08, entity_id=Chipmy-Popmy (ID: 17760309/0x010F0035), tag_num=0x0B)
  8: 0x04BE [0x1D] PRINT_EVENT_MESSAGE(message_id=3939*)
     "Ye see, matey, them burnite shells have long been extinct. They haven't been around since, well, before fair Windurst was even settled!"
  9: 0x04C1 [0x23] WAIT_FOR_DIALOG_INTERACTION
 10: 0x04C2 [0x29] REQ_SET_WAIT(priority=0x08, entity_id=Chipmy-Popmy (ID: 17760309/0x010F0035), tag_num=0x0C)
 11: 0x04C9 [0x20] SET_CLI_EVENT_UC_FLAG: Unlock player control
 12: 0x04CB [0x21] END_EVENT
 13: 0x04CC [0x00] END_REQSTACK()
```

### Event 594

#### Metadata

| Field        | Value   |
|--------------|---------|
| Entrypoint   | 0x04CD  |
| Data Size    | 1 bytes |
| Instructions | 1       |

```
      00 01 02 03 04 05 06 07  08 09 0A 0B 0C 0D 0E 0F
      -- -- -- -- -- -- -- --  -- -- -- -- -- -- -- --
04C0:                                         00                     .  
```

#### Opcodes

```
  0: 0x04CD [0x00] END_REQSTACK()
```

### Event 596

#### Metadata

| Field        | Value    |
|--------------|----------|
| Entrypoint   | 0x04CE   |
| Data Size    | 64 bytes |
| Instructions | 18       |

```
      00 01 02 03 04 05 06 07  08 09 0A 0B 0C 0D 0E 0F
      -- -- -- -- -- -- -- --  -- -- -- -- -- -- -- --
04C0:                                            1E F0                ..
04D0: FF FF 7F 6F 70 29 08 35  00 0F 01 1D 1D 10 80 23  ...op).5.......#
04E0: 29 08 35 00 0F 01 1E 29  08 35 00 0F 01 2C 1D 11  ).5....).5...,..
04F0: 80 23 29 08 35 00 0F 01  2D 27 08 35 00 0F 01 34  .#).5...-'.5...4
0500: 1D 12 80 23 2A 08 35 00  0F 01 20 00 21 00        ...#*.5... .!.  
```

#### Opcodes

```
  0: 0x04CE [0x1E] EventEntity looks at LocalPlayer and starts talking
  1: 0x04D3 [0x6F] WAIT_FRAME_DELAY: Yield until WaitTime reaches zero
  2: 0x04D4 [0x70] WAIT_ENTITY_RENDER_FLAG: Wait while EventEntity->Render.Flags3 bit 2 is set (cancel turn if not)
  3: 0x04D5 [0x29] REQ_SET_WAIT(priority=0x08, entity_id=Chipmy-Popmy (ID: 17760309/0x010F0035), tag_num=0x1D)
  4: 0x04DC [0x1D] PRINT_EVENT_MESSAGE(message_id=12916*)
     "In Bibiki Bay there be a place known as Purgonorgo Isle. On this island lives a mighty strange character that won't listen to a word we has to say."
  5: 0x04DF [0x23] WAIT_FOR_DIALOG_INTERACTION
  6: 0x04E0 [0x29] REQ_SET_WAIT(priority=0x08, entity_id=Chipmy-Popmy (ID: 17760309/0x010F0035), tag_num=0x1E)
  7: 0x04E7 [0x29] REQ_SET_WAIT(priority=0x08, entity_id=Chipmy-Popmy (ID: 17760309/0x010F0035), tag_num=0x2C)
  8: 0x04EE [0x1D] PRINT_EVENT_MESSAGE(message_id=12918*)
     "We've tried talking it out all civil-like, but things have gotten out o' hand. We've even been settin' monsters on each other in place of talking... Who knows what we'll be facing next!"
  9: 0x04F1 [0x23] WAIT_FOR_DIALOG_INTERACTION
 10: 0x04F2 [0x29] REQ_SET_WAIT(priority=0x08, entity_id=Chipmy-Popmy (ID: 17760309/0x010F0035), tag_num=0x2D)
 11: 0x04F9 [0x27] REQ_SET(priority=0x08, entity_id=Chipmy-Popmy (ID: 17760309/0x010F0035), tag_num=0x34)
 12: 0x0500 [0x1D] PRINT_EVENT_MESSAGE(message_id=12922*)
     "The next "debate" is set to take place in the middle o' Purgonorgo Isle. Don't ye be losing now, matey!"
 13: 0x0503 [0x23] WAIT_FOR_DIALOG_INTERACTION
 14: 0x0504 [0x2A] GET_REQ_LEVEL(level=8, entity_id=Chipmy-Popmy (ID: 17760309/0x010F0035))
 15: 0x050A [0x20] SET_CLI_EVENT_UC_FLAG: Unlock player control
 16: 0x050C [0x21] END_EVENT
 17: 0x050D [0x00] END_REQSTACK()
```

### Event 595

#### Metadata

| Field        | Value   |
|--------------|---------|
| Entrypoint   | 0x050E  |
| Data Size    | 1 bytes |
| Instructions | 1       |

```
      00 01 02 03 04 05 06 07  08 09 0A 0B 0C 0D 0E 0F
      -- -- -- -- -- -- -- --  -- -- -- -- -- -- -- --
0500:                                            00                   . 
```

#### Opcodes

```
  0: 0x050E [0x00] END_REQSTACK()
```

### Event 599

#### Metadata

| Field        | Value    |
|--------------|----------|
| Entrypoint   | 0x050F   |
| Data Size    | 47 bytes |
| Instructions | 14       |

```
      00 01 02 03 04 05 06 07  08 09 0A 0B 0C 0D 0E 0F
      -- -- -- -- -- -- -- --  -- -- -- -- -- -- -- --
0500:                                               1E                 .
0510: F0 FF FF 7F 6F 70 29 08  35 00 0F 01 01 1D 13 80  ....op).5.......
0520: 23 29 08 35 00 0F 01 02  29 08 35 00 0F 01 09 1D  #).5....).5.....
0530: 14 80 23 29 08 35 00 0F  01 0A 20 00 21 00        ..#).5.... .!.  
```

#### Opcodes

```
  0: 0x050F [0x1E] EventEntity looks at LocalPlayer and starts talking
  1: 0x0514 [0x6F] WAIT_FRAME_DELAY: Yield until WaitTime reaches zero
  2: 0x0515 [0x70] WAIT_ENTITY_RENDER_FLAG: Wait while EventEntity->Render.Flags3 bit 2 is set (cancel turn if not)
  3: 0x0516 [0x29] REQ_SET_WAIT(priority=0x08, entity_id=Chipmy-Popmy (ID: 17760309/0x010F0035), tag_num=0x01)
  4: 0x051D [0x1D] PRINT_EVENT_MESSAGE(message_id=12932*)
     "Get yerself to Attohwa Chasm an' find that Mithran Tracker. She should be able to tell us if it's the real deal."
  5: 0x0520 [0x23] WAIT_FOR_DIALOG_INTERACTION
  6: 0x0521 [0x29] REQ_SET_WAIT(priority=0x08, entity_id=Chipmy-Popmy (ID: 17760309/0x010F0035), tag_num=0x02)
  7: 0x0528 [0x29] REQ_SET_WAIT(priority=0x08, entity_id=Chipmy-Popmy (ID: 17760309/0x010F0035), tag_num=0x09)
  8: 0x052F [0x1D] PRINT_EVENT_MESSAGE(message_id=12933*)
     "That paper smells kinda fishy. I'm telling ye, it's a fake!"
  9: 0x0532 [0x23] WAIT_FOR_DIALOG_INTERACTION
 10: 0x0533 [0x29] REQ_SET_WAIT(priority=0x08, entity_id=Chipmy-Popmy (ID: 17760309/0x010F0035), tag_num=0x0A)
 11: 0x053A [0x20] SET_CLI_EVENT_UC_FLAG: Unlock player control
 12: 0x053C [0x21] END_EVENT
 13: 0x053D [0x00] END_REQSTACK()
```

### Event 597

#### Metadata

| Field        | Value   |
|--------------|---------|
| Entrypoint   | 0x053E  |
| Data Size    | 1 bytes |
| Instructions | 1       |

```
      00 01 02 03 04 05 06 07  08 09 0A 0B 0C 0D 0E 0F
      -- -- -- -- -- -- -- --  -- -- -- -- -- -- -- --
0530:                                            00                   . 
```

#### Opcodes

```
  0: 0x053E [0x00] END_REQSTACK()
```

### Event 598

#### Metadata

| Field        | Value    |
|--------------|----------|
| Entrypoint   | 0x053F   |
| Data Size    | 97 bytes |
| Instructions | 24       |

```
      00 01 02 03 04 05 06 07  08 09 0A 0B 0C 0D 0E 0F
      -- -- -- -- -- -- -- --  -- -- -- -- -- -- -- --
0530:                                               1E                 .
0540: F0 FF FF 7F 6F 70 29 08  35 00 0F 01 17 1D 15 80  ....op).5.......
0550: 23 29 08 35 00 0F 01 18  29 08 35 00 0F 01 19 1D  #).5....).5.....
0560: 16 80 23 29 08 35 00 0F  01 1A 29 08 35 00 0F 01  ..#).5....).5...
0570: 03 1D 17 80 23 29 08 35  00 0F 01 04 29 08 35 00  ....#).5....).5.
0580: 0F 01 05 29 08 35 00 0F  01 06 29 08 35 00 0F 01  ...).5....).5...
0590: 2C 1D 18 80 23 29 08 35  00 0F 01 2D 20 00 21 00  ,...#).5...- .!.
```

#### Opcodes

```
  0: 0x053F [0x1E] EventEntity looks at LocalPlayer and starts talking
  1: 0x0544 [0x6F] WAIT_FRAME_DELAY: Yield until WaitTime reaches zero
  2: 0x0545 [0x70] WAIT_ENTITY_RENDER_FLAG: Wait while EventEntity->Render.Flags3 bit 2 is set (cancel turn if not)
  3: 0x0546 [0x29] REQ_SET_WAIT(priority=0x08, entity_id=Chipmy-Popmy (ID: 17760309/0x010F0035), tag_num=0x17)
  4: 0x054D [0x1D] PRINT_EVENT_MESSAGE(message_id=12944*)
     "Arrgh! If Windurst wasn't in cahoots with the Mithran pirates, we'd be able to get on with our battle!"
  5: 0x0550 [0x23] WAIT_FOR_DIALOG_INTERACTION
  6: 0x0551 [0x29] REQ_SET_WAIT(priority=0x08, entity_id=Chipmy-Popmy (ID: 17760309/0x010F0035), tag_num=0x18)
  7: 0x0558 [0x29] REQ_SET_WAIT(priority=0x08, entity_id=Chipmy-Popmy (ID: 17760309/0x010F0035), tag_num=0x19)
  8: 0x055F [0x1D] PRINT_EVENT_MESSAGE(message_id=12945*)
     "I had me next strategy all worked out fer kickin that warmachine right off the island!"
  9: 0x0562 [0x23] WAIT_FOR_DIALOG_INTERACTION
 10: 0x0563 [0x29] REQ_SET_WAIT(priority=0x08, entity_id=Chipmy-Popmy (ID: 17760309/0x010F0035), tag_num=0x1A)
 11: 0x056A [0x29] REQ_SET_WAIT(priority=0x08, entity_id=Chipmy-Popmy (ID: 17760309/0x010F0035), tag_num=0x03)
 12: 0x0571 [0x1D] PRINT_EVENT_MESSAGE(message_id=12946*)
     "...Now, just a second there, matey. Who was inside that warmachine, anyhow?"
 13: 0x0574 [0x23] WAIT_FOR_DIALOG_INTERACTION
 14: 0x0575 [0x29] REQ_SET_WAIT(priority=0x08, entity_id=Chipmy-Popmy (ID: 17760309/0x010F0035), tag_num=0x04)
 15: 0x057C [0x29] REQ_SET_WAIT(priority=0x08, entity_id=Chipmy-Popmy (ID: 17760309/0x010F0035), tag_num=0x05)
 16: 0x0583 [0x29] REQ_SET_WAIT(priority=0x08, entity_id=Chipmy-Popmy (ID: 17760309/0x010F0035), tag_num=0x06)
 17: 0x058A [0x29] REQ_SET_WAIT(priority=0x08, entity_id=Chipmy-Popmy (ID: 17760309/0x010F0035), tag_num=0x2C)
 18: 0x0591 [0x1D] PRINT_EVENT_MESSAGE(message_id=12947*)
     "Arrgh! A name shoulda been written right there on the deed! I just can't remember...!"
 19: 0x0594 [0x23] WAIT_FOR_DIALOG_INTERACTION
 20: 0x0595 [0x29] REQ_SET_WAIT(priority=0x08, entity_id=Chipmy-Popmy (ID: 17760309/0x010F0035), tag_num=0x2D)
 21: 0x059C [0x20] SET_CLI_EVENT_UC_FLAG: Unlock player control
 22: 0x059E [0x21] END_EVENT
 23: 0x059F [0x00] END_REQSTACK()
```

### Event 619

#### Metadata

| Field        | Value     |
|--------------|-----------|
| Entrypoint   | 0x05A0    |
| Data Size    | 387 bytes |
| Instructions | 56        |

```
      00 01 02 03 04 05 06 07  08 09 0A 0B 0C 0D 0E 0F
      -- -- -- -- -- -- -- --  -- -- -- -- -- -- -- --
05A0: 42 03 00 00 09 10 45 19  80 F0 FF FF 7F F0 FF FF  B.....E.........
05B0: 7F 66 64 6F 31 1A 80 55  19 80 F0 FF FF 7F F0 FF  .fdo1..U........
05C0: FF 7F 66 64 6F 31 46 01  38 1B 80 29 10 F0 FF FF  ..fdo1F.8..)....
05D0: 7F 5A 80 F0 FF FF 7F 79  00 F0 FF FF 7F F8 FF FF  .Z.....y........
05E0: 7F 1C 1C 80 5C 00 1D 80  5C 01 1D 80 9A 45 1E 80  ....\...\....E..
05F0: F0 FF FF 7F F0 FF FF 7F  74 61 30 30 1A 80 45 19  ........ta00..E.
0600: 80 F0 FF FF 7F F0 FF FF  7F 66 64 69 31 1A 80 55  .........fdi1..U
0610: 19 80 F0 FF FF 7F F0 FF  FF 7F 66 64 69 31 1E F0  ..........fdi1..
0620: FF FF 7F 6F 70 29 08 35  00 0F 01 17 2B 35 00 0F  ...op).5....+5..
0630: 01 1F 80 23 2B 35 00 0F  01 20 80 23 52 1E 80 F0  ...#+5... .#R...
0640: FF FF 7F F0 FF FF 7F 74  61 30 30 45 1E 80 F0 FF  .......ta00E....
0650: FF 7F F0 FF FF 7F 74 61  30 31 1A 80 2B 35 00 0F  ......ta01..+5..
0660: 01 21 80 23 29 08 35 00  0F 01 19 29 08 35 00 0F  .!.#).5....).5..
0670: 01 1A 29 08 35 00 0F 01  01 02 00 00 1A 80 00 8C  ..).5...........
0680: 06 2B 35 00 0F 01 22 80  23 01 94 06 2B 35 00 0F  .+5...".#...+5..
0690: 01 23 80 23 52 1E 80 F0  FF FF 7F F0 FF FF 7F 74  .#.#R..........t
06A0: 61 30 31 45 1E 80 F0 FF  FF 7F F0 FF FF 7F 74 61  a01E..........ta
06B0: 30 32 1A 80 29 08 35 00  0F 01 02 29 08 35 00 0F  02..).5....).5..
06C0: 01 15 2B 35 00 0F 01 24  80 23 29 08 35 00 0F 01  ..+5...$.#).5...
06D0: 16 45 19 80 F0 FF FF 7F  F0 FF FF 7F 66 64 6F 31  .E..........fdo1
06E0: 1A 80 55 19 80 F0 FF FF  7F F0 FF FF 7F 66 64 6F  ..U..........fdo
06F0: 31 1C 1E 80 52 1E 80 F0  FF FF 7F F0 FF FF 7F 74  1...R..........t
0700: 61 30 32 5C 00 25 80 5C  01 25 80 9A 46 00 45 19  a02\.%.\.%..F.E.
0710: 80 F0 FF FF 7F F0 FF FF  7F 66 64 69 32 1A 80 20  .........fdi2.. 
0720: 00 21 00                                          .!.             
```

#### Opcodes

```
  0: 0x05A0 [0x42] SET_CLI_EVENT_CANCEL_DATA()
  1: 0x05A1 [0x03] ExtData[1]->WorkLocal[0] = Work_Zone[9]
  2: 0x05A6 [0x45] LOAD_SCHEDULED_TASK: Load scheduler "fdo1" with entities [LocalPlayer, LocalPlayer], work=[200*, 0*]
  3: 0x05B7 [0x55] WAIT_LOAD_SCHEDULER: Wait for scheduler "fdo1" with entities [LocalPlayer, LocalPlayer], work=200*
  4: 0x05C6 [0x46] CAMERA_CONTROL: Disable user control
  5: 0x05C8 [0x38] SET_CLIENT_EVENT_MODE(mode=3*)
  6: 0x05CB [0x29] REQ_SET_WAIT(priority=0x10, entity_id=LocalPlayer, tag_num=0x5A)
  7: 0x05D2 [0x80] LOAD_WAIT(entity=LocalPlayer)
  8: 0x05D7 [0x79] LocalPlayer looks at EventEntity (Basic look)
  9: 0x05E1 [0x1C] WAIT(15* ticks)
 10: 0x05E4 [0x5C] MUSIC_CONTROL: Set Idle (Day) music to song 163*
 11: 0x05E8 [0x5C] MUSIC_CONTROL: Set Idle (Night) music to song 163*
 12: 0x05EC [0x9A] WAIT_MUSIC_SERVER()
 13: 0x05ED [0x45] LOAD_SCHEDULED_TASK: Load scheduler "ta00" with entities [LocalPlayer, LocalPlayer], work=[30*, 0*]
 14: 0x05FE [0x45] LOAD_SCHEDULED_TASK: Load scheduler "fdi1" with entities [LocalPlayer, LocalPlayer], work=[200*, 0*]
 15: 0x060F [0x55] WAIT_LOAD_SCHEDULER: Wait for scheduler "fdi1" with entities [LocalPlayer, LocalPlayer], work=200*
 16: 0x061E [0x1E] EventEntity looks at LocalPlayer and starts talking
 17: 0x0623 [0x6F] WAIT_FRAME_DELAY: Yield until WaitTime reaches zero
 18: 0x0624 [0x70] WAIT_ENTITY_RENDER_FLAG: Wait while EventEntity->Render.Flags3 bit 2 is set (cancel turn if not)
 19: 0x0625 [0x29] REQ_SET_WAIT(priority=0x08, entity_id=Chipmy-Popmy (ID: 17760309/0x010F0035), tag_num=0x17)
 20: 0x062C [0x2B] Chipmy-Popmy (ID: 17760309/0x010F0035) [13003*]:
     "A little while back, the Fishermen's Guild's ship party was crashed by a trio of wandering comedians."
 21: 0x0633 [0x23] WAIT_FOR_DIALOG_INTERACTION
 22: 0x0634 [0x2B] Chipmy-Popmy (ID: 17760309/0x010F0035) [13004*]:
     "But they were so boring, me mates preferred to pitch themselves over the side than listen to another joyless joke!"
 23: 0x063B [0x23] WAIT_FOR_DIALOG_INTERACTION
 24: 0x063C [0x52] END_LOAD_SCHEDULER: End scheduler "ta00" with entities [LocalPlayer, LocalPlayer], work=30*
 25: 0x064B [0x45] LOAD_SCHEDULED_TASK: Load scheduler "ta01" with entities [LocalPlayer, LocalPlayer], work=[30*, 0*]
 26: 0x065C [0x2B] Chipmy-Popmy (ID: 17760309/0x010F0035) [13005*]:
     "We figured we'd be doin' Vana'diel a favor if we just marooned those jesters on an island."
 27: 0x0663 [0x23] WAIT_FOR_DIALOG_INTERACTION
 28: 0x0664 [0x29] REQ_SET_WAIT(priority=0x08, entity_id=Chipmy-Popmy (ID: 17760309/0x010F0035), tag_num=0x19)
 29: 0x066B [0x29] REQ_SET_WAIT(priority=0x08, entity_id=Chipmy-Popmy (ID: 17760309/0x010F0035), tag_num=0x1A)
 30: 0x0672 [0x29] REQ_SET_WAIT(priority=0x08, entity_id=Chipmy-Popmy (ID: 17760309/0x010F0035), tag_num=0x01)
 31: 0x0679 [0x02] IF !(ExtData[1]->WorkLocal[0] == 0*) GOTO 0x068C
 32: 0x0681 [0x2B] Chipmy-Popmy (ID: 17760309/0x010F0035) [13006*]:
     "This was no deserted island, ye understand. This was Purgonorgo Island in Bibiki Bay. There's a mighty strange character living there who don't take orders from no one."
 33: 0x0688 [0x23] WAIT_FOR_DIALOG_INTERACTION
 34: 0x0689 [0x01] GOTO 0x0694
 35: 0x068C [0x2B] Chipmy-Popmy (ID: 17760309/0x010F0035) [13007*]:
     "This was no deserted island, ye understand. This was Purgonorgo Island in Bibiki Bay. Those humorless hucksters can earn a livin' entertainin' the sole inhabitant."
 36: 0x0693 [0x23] WAIT_FOR_DIALOG_INTERACTION

SUBROUTINE_0694:
 37: 0x0694 [0x52] END_LOAD_SCHEDULER: End scheduler "ta01" with entities [LocalPlayer, LocalPlayer], work=30*
 38: 0x06A3 [0x45] LOAD_SCHEDULED_TASK: Load scheduler "ta02" with entities [LocalPlayer, LocalPlayer], work=[30*, 0*]
 39: 0x06B4 [0x29] REQ_SET_WAIT(priority=0x08, entity_id=Chipmy-Popmy (ID: 17760309/0x010F0035), tag_num=0x02)
 40: 0x06BB [0x29] REQ_SET_WAIT(priority=0x08, entity_id=Chipmy-Popmy (ID: 17760309/0x010F0035), tag_num=0x15)
 41: 0x06C2 [0x2B] Chipmy-Popmy (ID: 17760309/0x010F0035) [13008*]:
     "That stubborn seadog should be sufferin' their puerile puns as we speak! Gwahahahaha!"
 42: 0x06C9 [0x23] WAIT_FOR_DIALOG_INTERACTION
 43: 0x06CA [0x29] REQ_SET_WAIT(priority=0x08, entity_id=Chipmy-Popmy (ID: 17760309/0x010F0035), tag_num=0x16)
 44: 0x06D1 [0x45] LOAD_SCHEDULED_TASK: Load scheduler "fdo1" with entities [LocalPlayer, LocalPlayer], work=[200*, 0*]
 45: 0x06E2 [0x55] WAIT_LOAD_SCHEDULER: Wait for scheduler "fdo1" with entities [LocalPlayer, LocalPlayer], work=200*
 46: 0x06F1 [0x1C] WAIT(30* ticks)
 47: 0x06F4 [0x52] END_LOAD_SCHEDULER: End scheduler "ta02" with entities [LocalPlayer, LocalPlayer], work=30*
 48: 0x0703 [0x5C] MUSIC_CONTROL: Set Idle (Day) music to song 151*
 49: 0x0707 [0x5C] MUSIC_CONTROL: Set Idle (Night) music to song 151*
 50: 0x070B [0x9A] WAIT_MUSIC_SERVER()
 51: 0x070C [0x46] CAMERA_CONTROL: Restore default settings
 52: 0x070E [0x45] LOAD_SCHEDULED_TASK: Load scheduler "fdi2" with entities [LocalPlayer, LocalPlayer], work=[200*, 0*]
 53: 0x071F [0x20] SET_CLI_EVENT_UC_FLAG: Unlock player control
 54: 0x0721 [0x21] END_EVENT
 55: 0x0722 [0x00] END_REQSTACK()
```

### Event 620

#### Metadata

| Field        | Value     |
|--------------|-----------|
| Entrypoint   | 0x0723    |
| Data Size    | 125 bytes |
| Instructions | 29        |

```
      00 01 02 03 04 05 06 07  08 09 0A 0B 0C 0D 0E 0F
      -- -- -- -- -- -- -- --  -- -- -- -- -- -- -- --
0720:          42 03 00 00 09  10 1E F0 FF FF 7F 6F 70     B..........op
0730: 29 08 35 00 0F 01 17 2B  35 00 0F 01 1F 80 23 2B  ).5....+5.....#+
0740: 35 00 0F 01 20 80 23 2B  35 00 0F 01 21 80 23 29  5... .#+5...!.#)
0750: 08 35 00 0F 01 19 29 08  35 00 0F 01 1A 29 08 35  .5....).5....).5
0760: 00 0F 01 01 02 00 00 1A  80 00 77 07 2B 35 00 0F  ..........w.+5..
0770: 01 22 80 23 01 7F 07 2B  35 00 0F 01 23 80 23 29  .".#...+5...#.#)
0780: 08 35 00 0F 01 02 29 08  35 00 0F 01 15 2B 35 00  .5....).5....+5.
0790: 0F 01 24 80 23 29 08 35  00 0F 01 16 20 00 21 00  ..$.#).5.... .!.
```

#### Opcodes

```
  0: 0x0723 [0x42] SET_CLI_EVENT_CANCEL_DATA()
  1: 0x0724 [0x03] ExtData[1]->WorkLocal[0] = Work_Zone[9]
  2: 0x0729 [0x1E] EventEntity looks at LocalPlayer and starts talking
  3: 0x072E [0x6F] WAIT_FRAME_DELAY: Yield until WaitTime reaches zero
  4: 0x072F [0x70] WAIT_ENTITY_RENDER_FLAG: Wait while EventEntity->Render.Flags3 bit 2 is set (cancel turn if not)
  5: 0x0730 [0x29] REQ_SET_WAIT(priority=0x08, entity_id=Chipmy-Popmy (ID: 17760309/0x010F0035), tag_num=0x17)
  6: 0x0737 [0x2B] Chipmy-Popmy (ID: 17760309/0x010F0035) [13003*]:
     "A little while back, the Fishermen's Guild's ship party was crashed by a trio of wandering comedians."
  7: 0x073E [0x23] WAIT_FOR_DIALOG_INTERACTION
  8: 0x073F [0x2B] Chipmy-Popmy (ID: 17760309/0x010F0035) [13004*]:
     "But they were so boring, me mates preferred to pitch themselves over the side than listen to another joyless joke!"
  9: 0x0746 [0x23] WAIT_FOR_DIALOG_INTERACTION
 10: 0x0747 [0x2B] Chipmy-Popmy (ID: 17760309/0x010F0035) [13005*]:
     "We figured we'd be doin' Vana'diel a favor if we just marooned those jesters on an island."
 11: 0x074E [0x23] WAIT_FOR_DIALOG_INTERACTION
 12: 0x074F [0x29] REQ_SET_WAIT(priority=0x08, entity_id=Chipmy-Popmy (ID: 17760309/0x010F0035), tag_num=0x19)
 13: 0x0756 [0x29] REQ_SET_WAIT(priority=0x08, entity_id=Chipmy-Popmy (ID: 17760309/0x010F0035), tag_num=0x1A)
 14: 0x075D [0x29] REQ_SET_WAIT(priority=0x08, entity_id=Chipmy-Popmy (ID: 17760309/0x010F0035), tag_num=0x01)
 15: 0x0764 [0x02] IF !(ExtData[1]->WorkLocal[0] == 0*) GOTO 0x0777
 16: 0x076C [0x2B] Chipmy-Popmy (ID: 17760309/0x010F0035) [13006*]:
     "This was no deserted island, ye understand. This was Purgonorgo Island in Bibiki Bay. There's a mighty strange character living there who don't take orders from no one."
 17: 0x0773 [0x23] WAIT_FOR_DIALOG_INTERACTION
 18: 0x0774 [0x01] GOTO 0x077F
 19: 0x0777 [0x2B] Chipmy-Popmy (ID: 17760309/0x010F0035) [13007*]:
     "This was no deserted island, ye understand. This was Purgonorgo Island in Bibiki Bay. Those humorless hucksters can earn a livin' entertainin' the sole inhabitant."
 20: 0x077E [0x23] WAIT_FOR_DIALOG_INTERACTION

SUBROUTINE_077F:
 21: 0x077F [0x29] REQ_SET_WAIT(priority=0x08, entity_id=Chipmy-Popmy (ID: 17760309/0x010F0035), tag_num=0x02)
 22: 0x0786 [0x29] REQ_SET_WAIT(priority=0x08, entity_id=Chipmy-Popmy (ID: 17760309/0x010F0035), tag_num=0x15)
 23: 0x078D [0x2B] Chipmy-Popmy (ID: 17760309/0x010F0035) [13008*]:
     "That stubborn seadog should be sufferin' their puerile puns as we speak! Gwahahahaha!"
 24: 0x0794 [0x23] WAIT_FOR_DIALOG_INTERACTION
 25: 0x0795 [0x29] REQ_SET_WAIT(priority=0x08, entity_id=Chipmy-Popmy (ID: 17760309/0x010F0035), tag_num=0x16)
 26: 0x079C [0x20] SET_CLI_EVENT_UC_FLAG: Unlock player control
 27: 0x079E [0x21] END_EVENT
 28: 0x079F [0x00] END_REQSTACK()
```
