# 17760275 - Maabu-Sonbu

## Common Data

| Field            | Value                   |
|------------------|-------------------------|
| Zone             | Port Windurst (ID: 240) |
| Block Size       | 1036 bytes              |
| Total Events     | 33                      |
| References Count | 33                      |

## List of Events

| Event ID                   | Entrypoint   |   Size |   Instructions |
|----------------------------|--------------|--------|----------------|
| [65535](#event-65535)      | 0x0000       |      1 |              1 |
| [65535.1](#event-655351)   | 0x0001       |     16 |              2 |
| [65535.2](#event-655352)   | 0x0011       |     22 |              4 |
| [65535.3](#event-655353)   | 0x0027       |     16 |              2 |
| [65535.4](#event-655354)   | 0x0037       |     14 |              2 |
| [65535.5](#event-655355)   | 0x0045       |     16 |              2 |
| [65535.6](#event-655356)   | 0x0055       |     14 |              2 |
| [65535.7](#event-655357)   | 0x0063       |     16 |              2 |
| [65535.8](#event-655358)   | 0x0073       |     14 |              2 |
| [65535.9](#event-655359)   | 0x0081       |      9 |              3 |
| [227](#event-227)          | 0x008A       |     33 |             12 |
| [90](#event-90)            | 0x00AB       |      1 |              1 |
| [274](#event-274)          | 0x00AC       |      1 |              1 |
| [280](#event-280)          | 0x00AD       |      1 |              1 |
| [284](#event-284)          | 0x00AE       |      1 |              1 |
| [265](#event-265)          | 0x00AF       |      1 |              1 |
| [319](#event-319)          | 0x00B0       |     60 |             15 |
| [65535.10](#event-6553510) | 0x00EC       |     19 |              5 |
| [65535.11](#event-6553511) | 0x00FF       |     23 |              7 |
| [65535.12](#event-6553512) | 0x0116       |     37 |              9 |
| [65535.13](#event-6553513) | 0x013B       |     23 |              7 |
| [65535.14](#event-6553514) | 0x0152       |     67 |             19 |
| [320](#event-320)          | 0x0195       |     87 |             24 |
| [321](#event-321)          | 0x01EC       |     47 |             14 |
| [322](#event-322)          | 0x021B       |     29 |             10 |
| [264](#event-264)          | 0x0238       |     33 |             12 |
| [273](#event-273)          | 0x0259       |     33 |             12 |
| [491](#event-491)          | 0x027A       |     65 |             18 |
| [456](#event-456)          | 0x02BB       |      1 |              1 |
| [573](#event-573)          | 0x02BC       |     51 |             16 |
| [578](#event-578)          | 0x02EF       |      1 |              1 |
| [581](#event-581)          | 0x02F0       |      1 |              1 |
| [583](#event-583)          | 0x02F1       |      1 |              1 |

## DAT References (imed_data)

|   Index | Hex Value   |   Dec Value |
|---------|-------------|-------------|
|       0 | 0x0028      |          40 |
|       1 | 0x001E      |          30 |
|       2 | 0x0E42      |        3650 |
|       3 | 0x0E43      |        3651 |
|       4 | 0x00C0      |         192 |
|       5 | 0x0F66      |        3942 |
|       6 | 0x0F67      |        3943 |
|       7 | 0x0F68      |        3944 |
|       8 | 0x0F69      |        3945 |
|       9 | 0x0F6A      |        3946 |
|      10 | 0x0F6B      |        3947 |
|      11 | 0x0F6C      |        3948 |
|      12 | 0x0F6D      |        3949 |
|      13 | 0x0F6E      |        3950 |
|      14 | 0x0F6F      |        3951 |
|      15 | 0x2E8E      |       11918 |
|      16 | 0x2E8F      |       11919 |
|      17 | 0x2E90      |       11920 |
|      18 | 0x0F70      |        3952 |
|      19 | 0x0F71      |        3953 |
|      20 | 0x0F72      |        3954 |
|      21 | 0x0F73      |        3955 |
|      22 | 0x0F74      |        3956 |
|      23 | 0x0E7F      |        3711 |
|      24 | 0x0E80      |        3712 |
|      25 | 0x0EAD      |        3757 |
|      26 | 0x0EAE      |        3758 |
|      27 | 0x300A      |       12298 |
|      28 | 0x300B      |       12299 |
|      29 | 0x300C      |       12300 |
|      30 | 0x3140      |       12608 |
|      31 | 0x3141      |       12609 |
|      32 | 0x3142      |       12610 |

## String References

- **3650**: Be careful, now! This is a magic training area. It's far too dangerous for your average Joe Blow to be hanging around here!
- **3651**: You can reach the outdoor training area from behind the platform there, but outside is even more dangerous than it is in here. Be especially careful-wareful if you're heading out there!
- **3711**: Actually, the three types of wands the brigadier generals want should be in storage in the Orastery's depository...
- **3712**: Oh, but during last year's budget meetings they raided the depository and went wild with them, so, erm, I guess that's why they are asking you to bring-wring them new ones.
- **3757**: Enjoy the little magic show there? Doc Shantotto's always unleashing her mighty magic on anyone and everyone without mercy.
- **3758**: That's how we lose more than the odd wand or two... My head hurts at the thought-wought of all the equipment she's wasted so far!
- **3942**: Huh? Oh, you mean the kiddy-widdy who got into trouble here the other day?
- **3943**: Yeah, I remember. He was one of the students in the advanced class we had visit here.
- **3944**: I scolded him for using one of the Mage Academy's wands without permission.
- **3945**: But it was our ministry's supervisors who were really-weally to blame for not locking the cupboards properly while we had children visiting.
- **3946**: We have a lot of wands for the senior students here, and most of them are quite dangerous.
- **3947**: Which wand was it that they messed around with...? Let me see... I think it was a Wand of Sleep.
- **3948**: A Wand of Sleep, as the name suggests, is enhanced with a Sleep spell that puts the person on its receiving end into a deep slumber-wumber.
- **3949**: What's that you say? The kiddy-widdy has had a Sleep spell cast on him?
- **3950**: Well, to awaken someone from a Sleep spell you just have to hit them really hard, but I guess you can't go around bashing up children, can you?
- **3951**: Then, why don'taru try and make him drink $1? That ought to wake the kiddy-widdy up.
- **3952**: To awaken someone from a Sleep spell you just have to hit them really hard, but you can't go around bashing up children, so...
- **3953**: How about making him drink $1? That ought to do the tricky-wicky.
- **3954**: You tried using $1 on him and he still didn't wakey-wakey up, huh?
- **3955**: I wonder what it could be... The only advice I can offer is that you speak to Pechiru-Mashiru--the kid's white magic teacher.
- **3956**: Did you solve our little sleepy-head's problem? Phew... Now we can all sleep easier!
- **11918**: What? $1 didn't quite do the tricky-wicky? Hmm...
- **11919**: How about trying $2? That plant smells bad enough to raise the dead, so it should work fine on a sleepy-weepy kid.
- **11920**: I heard you can find it growing in the Pashhow Marshlands. Don't forget to take $3 with you when you go!
- **12298**: Be careful, now! This is a magic training area. It's far too dangerous for your average Joe Blow to be hanging around here!
- **12299**: Now especially-wecially, everyone is a little on edge. Since the minister was arrested by the Sibyl Guards, the Orastery has been completely topsy-turvy.
- **12300**: Whatever is going to happen to our beloved Orastery? I shudder-wudder to think...
- **12608**: Be careful, now! This is a magic training area. It's far too dangerous for your average Joe Blow to be hanging around here!
- **12609**: Everyone's spells have become a little over-wover-enthusiastic since we heard that the Star Sibyl had forgiven Minister Ajido-Marujido.
- **12610**: I can't vouch for your safety in the Orastery rightaru now. Of course, it's never been that safe in here to begin with...

## Events

### Event 65535

#### Metadata

| Field        | Value   |
|--------------|---------|
| Entrypoint   | 0x0000  |
| Data Size    | 1 bytes |
| Instructions | 1       |

```
      00 01 02 03 04 05 06 07  08 09 0A 0B 0C 0D 0E 0F
      -- -- -- -- -- -- -- --  -- -- -- -- -- -- -- --
0000: 00                                                .               
```

#### Opcodes

```
  0: 0x0000 [0x00] END_REQSTACK()
```

### Event 65535.1

#### Metadata

| Field        | Value    |
|--------------|----------|
| Entrypoint   | 0x0001   |
| Data Size    | 16 bytes |
| Instructions | 2        |

```
      00 01 02 03 04 05 06 07  08 09 0A 0B 0C 0D 0E 0F
      -- -- -- -- -- -- -- --  -- -- -- -- -- -- -- --
0000:    66 00 80 F8 FF FF 7F  F8 FF FF 7F 74 6C 6B 30   f..........tlk0
0010: 00                                                .               
```

#### Opcodes

```
  0: 0x0001 [0x66] LOAD_EXT_SCHEDULER_MAIN: Load scheduler "tlk0" with entities [EventEntity, EventEntity], work=40*
  1: 0x0010 [0x00] END_REQSTACK()
```

### Event 65535.2

#### Metadata

| Field        | Value    |
|--------------|----------|
| Entrypoint   | 0x0011   |
| Data Size    | 22 bytes |
| Instructions | 4        |

```
      00 01 02 03 04 05 06 07  08 09 0A 0B 0C 0D 0E 0F
      -- -- -- -- -- -- -- --  -- -- -- -- -- -- -- --
0010:    53 F8 FF FF 7F F8 FF  FF 7F 74 6C 6B 30 5E 69   S........tlk0^i
0020: 64 6C 30 1C 01 80 00                              dl0....         
```

#### Opcodes

```
  0: 0x0011 [0x53] WAIT_SCHEDULER_TASK: Wait for scheduler "tlk0" with entities [EventEntity, EventEntity]
  1: 0x001E [0x5E] EventEntity goes idle (kills current action) (animation: "idl0")
  2: 0x0023 [0x1C] WAIT(30* ticks)
  3: 0x0026 [0x00] END_REQSTACK()
```

### Event 65535.3

#### Metadata

| Field        | Value    |
|--------------|----------|
| Entrypoint   | 0x0027   |
| Data Size    | 16 bytes |
| Instructions | 2        |

```
      00 01 02 03 04 05 06 07  08 09 0A 0B 0C 0D 0E 0F
      -- -- -- -- -- -- -- --  -- -- -- -- -- -- -- --
0020:                      66  00 80 F8 FF FF 7F F8 FF         f........
0030: FF 7F 74 68 6B 31 00                              ..thk1.         
```

#### Opcodes

```
  0: 0x0027 [0x66] LOAD_EXT_SCHEDULER_MAIN: Load scheduler "thk1" with entities [EventEntity, EventEntity], work=40*
  1: 0x0036 [0x00] END_REQSTACK()
```

### Event 65535.4

#### Metadata

| Field        | Value    |
|--------------|----------|
| Entrypoint   | 0x0037   |
| Data Size    | 14 bytes |
| Instructions | 2        |

```
      00 01 02 03 04 05 06 07  08 09 0A 0B 0C 0D 0E 0F
      -- -- -- -- -- -- -- --  -- -- -- -- -- -- -- --
0030:                      53  F8 FF FF 7F F8 FF FF 7F         S........
0040: 74 68 6B 31 00                                    thk1.           
```

#### Opcodes

```
  0: 0x0037 [0x53] WAIT_SCHEDULER_TASK: Wait for scheduler "thk1" with entities [EventEntity, EventEntity]
  1: 0x0044 [0x00] END_REQSTACK()
```

### Event 65535.5

#### Metadata

| Field        | Value    |
|--------------|----------|
| Entrypoint   | 0x0045   |
| Data Size    | 16 bytes |
| Instructions | 2        |

```
      00 01 02 03 04 05 06 07  08 09 0A 0B 0C 0D 0E 0F
      -- -- -- -- -- -- -- --  -- -- -- -- -- -- -- --
0040:                66 00 80  F8 FF FF 7F F8 FF FF 7F       f..........
0050: 74 68 6B 32 00                                    thk2.           
```

#### Opcodes

```
  0: 0x0045 [0x66] LOAD_EXT_SCHEDULER_MAIN: Load scheduler "thk2" with entities [EventEntity, EventEntity], work=40*
  1: 0x0054 [0x00] END_REQSTACK()
```

### Event 65535.6

#### Metadata

| Field        | Value    |
|--------------|----------|
| Entrypoint   | 0x0055   |
| Data Size    | 14 bytes |
| Instructions | 2        |

```
      00 01 02 03 04 05 06 07  08 09 0A 0B 0C 0D 0E 0F
      -- -- -- -- -- -- -- --  -- -- -- -- -- -- -- --
0050:                53 F8 FF  FF 7F F8 FF FF 7F 74 68       S........th
0060: 6B 32 00                                          k2.             
```

#### Opcodes

```
  0: 0x0055 [0x53] WAIT_SCHEDULER_TASK: Wait for scheduler "thk2" with entities [EventEntity, EventEntity]
  1: 0x0062 [0x00] END_REQSTACK()
```

### Event 65535.7

#### Metadata

| Field        | Value    |
|--------------|----------|
| Entrypoint   | 0x0063   |
| Data Size    | 16 bytes |
| Instructions | 2        |

```
      00 01 02 03 04 05 06 07  08 09 0A 0B 0C 0D 0E 0F
      -- -- -- -- -- -- -- --  -- -- -- -- -- -- -- --
0060:          66 00 80 F8 FF  FF 7F F8 FF FF 7F 64 69     f..........di
0070: 73 30 00                                          s0.             
```

#### Opcodes

```
  0: 0x0063 [0x66] LOAD_EXT_SCHEDULER_MAIN: Load scheduler "dis0" with entities [EventEntity, EventEntity], work=40*
  1: 0x0072 [0x00] END_REQSTACK()
```

### Event 65535.8

#### Metadata

| Field        | Value    |
|--------------|----------|
| Entrypoint   | 0x0073   |
| Data Size    | 14 bytes |
| Instructions | 2        |

```
      00 01 02 03 04 05 06 07  08 09 0A 0B 0C 0D 0E 0F
      -- -- -- -- -- -- -- --  -- -- -- -- -- -- -- --
0070:          53 F8 FF FF 7F  F8 FF FF 7F 64 69 73 30     S........dis0
0080: 00                                                .               
```

#### Opcodes

```
  0: 0x0073 [0x53] WAIT_SCHEDULER_TASK: Wait for scheduler "dis0" with entities [EventEntity, EventEntity]
  1: 0x0080 [0x00] END_REQSTACK()
```

### Event 65535.9

#### Metadata

| Field        | Value   |
|--------------|---------|
| Entrypoint   | 0x0081  |
| Data Size    | 9 bytes |
| Instructions | 3       |

```
      00 01 02 03 04 05 06 07  08 09 0A 0B 0C 0D 0E 0F
      -- -- -- -- -- -- -- --  -- -- -- -- -- -- -- --
0080:    5E 69 64 6C 30 1C 01  80 00                     ^idl0....      
```

#### Opcodes

```
  0: 0x0081 [0x5E] EventEntity goes idle (kills current action) (animation: "idl0")
  1: 0x0086 [0x1C] WAIT(30* ticks)
  2: 0x0089 [0x00] END_REQSTACK()
```

### Event 227

#### Metadata

| Field        | Value    |
|--------------|----------|
| Entrypoint   | 0x008A   |
| Data Size    | 33 bytes |
| Instructions | 12       |

```
      00 01 02 03 04 05 06 07  08 09 0A 0B 0C 0D 0E 0F
      -- -- -- -- -- -- -- --  -- -- -- -- -- -- -- --
0080:                                1E F0 FF FF 7F 6F            .....o
0090: 70 29 08 13 00 0F 01 01  1D 02 80 23 1D 03 80 23  p).........#...#
00A0: 29 08 13 00 0F 01 02 20  00 21 00                 )...... .!.     
```

#### Opcodes

```
  0: 0x008A [0x1E] EventEntity looks at LocalPlayer and starts talking
  1: 0x008F [0x6F] WAIT_FRAME_DELAY: Yield until WaitTime reaches zero
  2: 0x0090 [0x70] WAIT_ENTITY_RENDER_FLAG: Wait while EventEntity->Render.Flags3 bit 2 is set (cancel turn if not)
  3: 0x0091 [0x29] REQ_SET_WAIT(priority=0x08, entity_id=Maabu-Sonbu (ID: 17760275/0x010F0013), tag_num=0x01)
  4: 0x0098 [0x1D] PRINT_EVENT_MESSAGE(message_id=3650*)
    → "Be careful, now! This is a magic training area. It's far too dangerous for your average Joe Blow to be hanging around here!"
  5: 0x009B [0x23] WAIT_FOR_DIALOG_INTERACTION
  6: 0x009C [0x1D] PRINT_EVENT_MESSAGE(message_id=3651*)
    → "You can reach the outdoor training area from behind the platform there, but outside is even more dangerous than it is in here. Be especially careful-wareful if you're heading out there!"
  7: 0x009F [0x23] WAIT_FOR_DIALOG_INTERACTION
  8: 0x00A0 [0x29] REQ_SET_WAIT(priority=0x08, entity_id=Maabu-Sonbu (ID: 17760275/0x010F0013), tag_num=0x02)
  9: 0x00A7 [0x20] SET_CLI_EVENT_UC_FLAG: Unlock player control
 10: 0x00A9 [0x21] END_EVENT
 11: 0x00AA [0x00] END_REQSTACK()
```

### Event 90

#### Metadata

| Field        | Value   |
|--------------|---------|
| Entrypoint   | 0x00AB  |
| Data Size    | 1 bytes |
| Instructions | 1       |

```
      00 01 02 03 04 05 06 07  08 09 0A 0B 0C 0D 0E 0F
      -- -- -- -- -- -- -- --  -- -- -- -- -- -- -- --
00A0:                                   00                         .    
```

#### Opcodes

```
  0: 0x00AB [0x00] END_REQSTACK()
```

### Event 274

#### Metadata

| Field        | Value   |
|--------------|---------|
| Entrypoint   | 0x00AC  |
| Data Size    | 1 bytes |
| Instructions | 1       |

```
      00 01 02 03 04 05 06 07  08 09 0A 0B 0C 0D 0E 0F
      -- -- -- -- -- -- -- --  -- -- -- -- -- -- -- --
00A0:                                      00                       .   
```

#### Opcodes

```
  0: 0x00AC [0x00] END_REQSTACK()
```

### Event 280

#### Metadata

| Field        | Value   |
|--------------|---------|
| Entrypoint   | 0x00AD  |
| Data Size    | 1 bytes |
| Instructions | 1       |

```
      00 01 02 03 04 05 06 07  08 09 0A 0B 0C 0D 0E 0F
      -- -- -- -- -- -- -- --  -- -- -- -- -- -- -- --
00A0:                                         00                     .  
```

#### Opcodes

```
  0: 0x00AD [0x00] END_REQSTACK()
```

### Event 284

#### Metadata

| Field        | Value   |
|--------------|---------|
| Entrypoint   | 0x00AE  |
| Data Size    | 1 bytes |
| Instructions | 1       |

```
      00 01 02 03 04 05 06 07  08 09 0A 0B 0C 0D 0E 0F
      -- -- -- -- -- -- -- --  -- -- -- -- -- -- -- --
00A0:                                            00                   . 
```

#### Opcodes

```
  0: 0x00AE [0x00] END_REQSTACK()
```

### Event 265

#### Metadata

| Field        | Value   |
|--------------|---------|
| Entrypoint   | 0x00AF  |
| Data Size    | 1 bytes |
| Instructions | 1       |

```
      00 01 02 03 04 05 06 07  08 09 0A 0B 0C 0D 0E 0F
      -- -- -- -- -- -- -- --  -- -- -- -- -- -- -- --
00A0:                                               00                 .
```

#### Opcodes

```
  0: 0x00AF [0x00] END_REQSTACK()
```

### Event 319

#### Metadata

| Field        | Value    |
|--------------|----------|
| Entrypoint   | 0x00B0   |
| Data Size    | 60 bytes |
| Instructions | 15       |

```
      00 01 02 03 04 05 06 07  08 09 0A 0B 0C 0D 0E 0F
      -- -- -- -- -- -- -- --  -- -- -- -- -- -- -- --
00B0: 1E F0 FF FF 7F 6F 70 29  0B 13 00 0F 01 11 29 0B  .....op)......).
00C0: 13 00 0F 01 12 29 0B 13  00 0F 01 13 4B 13 00 0F  .....)......K...
00D0: 01 04 80 29 0B 13 00 0F  01 14 1E F0 FF FF 7F 6F  ...)...........o
00E0: 70 29 0B 13 00 0F 01 15  20 00 21 00              p)...... .!.    
```

#### Opcodes

```
  0: 0x00B0 [0x1E] EventEntity looks at LocalPlayer and starts talking
  1: 0x00B5 [0x6F] WAIT_FRAME_DELAY: Yield until WaitTime reaches zero
  2: 0x00B6 [0x70] WAIT_ENTITY_RENDER_FLAG: Wait while EventEntity->Render.Flags3 bit 2 is set (cancel turn if not)
  3: 0x00B7 [0x29] REQ_SET_WAIT(priority=0x0B, entity_id=Maabu-Sonbu (ID: 17760275/0x010F0013), tag_num=0x11)
  4: 0x00BE [0x29] REQ_SET_WAIT(priority=0x0B, entity_id=Maabu-Sonbu (ID: 17760275/0x010F0013), tag_num=0x12)
  5: 0x00C5 [0x29] REQ_SET_WAIT(priority=0x0B, entity_id=Maabu-Sonbu (ID: 17760275/0x010F0013), tag_num=0x13)
  6: 0x00CC [0x4B] UPDATE_ENTITY_YAW(entity=Maabu-Sonbu (ID: 17760275/0x010F0013), yaw=1.1°*)
  7: 0x00D3 [0x29] REQ_SET_WAIT(priority=0x0B, entity_id=Maabu-Sonbu (ID: 17760275/0x010F0013), tag_num=0x14)
  8: 0x00DA [0x1E] EventEntity looks at LocalPlayer and starts talking
  9: 0x00DF [0x6F] WAIT_FRAME_DELAY: Yield until WaitTime reaches zero
 10: 0x00E0 [0x70] WAIT_ENTITY_RENDER_FLAG: Wait while EventEntity->Render.Flags3 bit 2 is set (cancel turn if not)
 11: 0x00E1 [0x29] REQ_SET_WAIT(priority=0x0B, entity_id=Maabu-Sonbu (ID: 17760275/0x010F0013), tag_num=0x15)
 12: 0x00E8 [0x20] SET_CLI_EVENT_UC_FLAG: Unlock player control
 13: 0x00EA [0x21] END_EVENT
 14: 0x00EB [0x00] END_REQSTACK()
```

### Event 65535.10

#### Metadata

| Field        | Value    |
|--------------|----------|
| Entrypoint   | 0x00EC   |
| Data Size    | 19 bytes |
| Instructions | 5        |

```
      00 01 02 03 04 05 06 07  08 09 0A 0B 0C 0D 0E 0F
      -- -- -- -- -- -- -- --  -- -- -- -- -- -- -- --
00E0:                                      29 08 13 00              )...
00F0: 0F 01 01 1D 05 80 23 29  08 13 00 0F 01 02 00     ......#)....... 
```

#### Opcodes

```
  0: 0x00EC [0x29] REQ_SET_WAIT(priority=0x08, entity_id=Maabu-Sonbu (ID: 17760275/0x010F0013), tag_num=0x01)
  1: 0x00F3 [0x1D] PRINT_EVENT_MESSAGE(message_id=3942*)
    → "Huh? Oh, you mean the kiddy-widdy who got into trouble here the other day?"
  2: 0x00F6 [0x23] WAIT_FOR_DIALOG_INTERACTION
  3: 0x00F7 [0x29] REQ_SET_WAIT(priority=0x08, entity_id=Maabu-Sonbu (ID: 17760275/0x010F0013), tag_num=0x02)
  4: 0x00FE [0x00] END_REQSTACK()
```

### Event 65535.11

#### Metadata

| Field        | Value    |
|--------------|----------|
| Entrypoint   | 0x00FF   |
| Data Size    | 23 bytes |
| Instructions | 7        |

```
      00 01 02 03 04 05 06 07  08 09 0A 0B 0C 0D 0E 0F
      -- -- -- -- -- -- -- --  -- -- -- -- -- -- -- --
00F0:                                               29                 )
0100: 08 13 00 0F 01 07 1D 06  80 23 1D 07 80 23 29 08  .........#...#).
0110: 13 00 0F 01 08 00                                 ......          
```

#### Opcodes

```
  0: 0x00FF [0x29] REQ_SET_WAIT(priority=0x08, entity_id=Maabu-Sonbu (ID: 17760275/0x010F0013), tag_num=0x07)
  1: 0x0106 [0x1D] PRINT_EVENT_MESSAGE(message_id=3943*)
    → "Yeah, I remember. He was one of the students in the advanced class we had visit here."
  2: 0x0109 [0x23] WAIT_FOR_DIALOG_INTERACTION
  3: 0x010A [0x1D] PRINT_EVENT_MESSAGE(message_id=3944*)
    → "I scolded him for using one of the Mage Academy's wands without permission."
  4: 0x010D [0x23] WAIT_FOR_DIALOG_INTERACTION
  5: 0x010E [0x29] REQ_SET_WAIT(priority=0x08, entity_id=Maabu-Sonbu (ID: 17760275/0x010F0013), tag_num=0x08)
  6: 0x0115 [0x00] END_REQSTACK()
```

### Event 65535.12

#### Metadata

| Field        | Value    |
|--------------|----------|
| Entrypoint   | 0x0116   |
| Data Size    | 37 bytes |
| Instructions | 9        |

```
      00 01 02 03 04 05 06 07  08 09 0A 0B 0C 0D 0E 0F
      -- -- -- -- -- -- -- --  -- -- -- -- -- -- -- --
0110:                   29 08  13 00 0F 01 03 1D 08 80        ).........
0120: 23 29 08 13 00 0F 01 04  29 08 13 00 0F 01 05 1D  #)......).......
0130: 09 80 23 29 08 13 00 0F  01 06 00                 ..#).......     
```

#### Opcodes

```
  0: 0x0116 [0x29] REQ_SET_WAIT(priority=0x08, entity_id=Maabu-Sonbu (ID: 17760275/0x010F0013), tag_num=0x03)
  1: 0x011D [0x1D] PRINT_EVENT_MESSAGE(message_id=3945*)
    → "But it was our ministry's supervisors who were really-weally to blame for not locking the cupboards properly while we had children visiting."
  2: 0x0120 [0x23] WAIT_FOR_DIALOG_INTERACTION
  3: 0x0121 [0x29] REQ_SET_WAIT(priority=0x08, entity_id=Maabu-Sonbu (ID: 17760275/0x010F0013), tag_num=0x04)
  4: 0x0128 [0x29] REQ_SET_WAIT(priority=0x08, entity_id=Maabu-Sonbu (ID: 17760275/0x010F0013), tag_num=0x05)
  5: 0x012F [0x1D] PRINT_EVENT_MESSAGE(message_id=3946*)
    → "We have a lot of wands for the senior students here, and most of them are quite dangerous."
  6: 0x0132 [0x23] WAIT_FOR_DIALOG_INTERACTION
  7: 0x0133 [0x29] REQ_SET_WAIT(priority=0x08, entity_id=Maabu-Sonbu (ID: 17760275/0x010F0013), tag_num=0x06)
  8: 0x013A [0x00] END_REQSTACK()
```

### Event 65535.13

#### Metadata

| Field        | Value    |
|--------------|----------|
| Entrypoint   | 0x013B   |
| Data Size    | 23 bytes |
| Instructions | 7        |

```
      00 01 02 03 04 05 06 07  08 09 0A 0B 0C 0D 0E 0F
      -- -- -- -- -- -- -- --  -- -- -- -- -- -- -- --
0130:                                   29 08 13 00 0F             )....
0140: 01 01 1D 0A 80 23 1D 0B  80 23 29 08 13 00 0F 01  .....#...#).....
0150: 02 00                                             ..              
```

#### Opcodes

```
  0: 0x013B [0x29] REQ_SET_WAIT(priority=0x08, entity_id=Maabu-Sonbu (ID: 17760275/0x010F0013), tag_num=0x01)
  1: 0x0142 [0x1D] PRINT_EVENT_MESSAGE(message_id=3947*)
    → "Which wand was it that they messed around with...? Let me see... I think it was a Wand of Sleep."
  2: 0x0145 [0x23] WAIT_FOR_DIALOG_INTERACTION
  3: 0x0146 [0x1D] PRINT_EVENT_MESSAGE(message_id=3948*)
    → "A Wand of Sleep, as the name suggests, is enhanced with a Sleep spell that puts the person on its receiving end into a deep slumber-wumber."
  4: 0x0149 [0x23] WAIT_FOR_DIALOG_INTERACTION
  5: 0x014A [0x29] REQ_SET_WAIT(priority=0x08, entity_id=Maabu-Sonbu (ID: 17760275/0x010F0013), tag_num=0x02)
  6: 0x0151 [0x00] END_REQSTACK()
```

### Event 65535.14

#### Metadata

| Field        | Value    |
|--------------|----------|
| Entrypoint   | 0x0152   |
| Data Size    | 67 bytes |
| Instructions | 19       |

```
      00 01 02 03 04 05 06 07  08 09 0A 0B 0C 0D 0E 0F
      -- -- -- -- -- -- -- --  -- -- -- -- -- -- -- --
0150:       1D 0C 80 23 29 08  13 00 0F 01 01 1D 0D 80    ...#).........
0160: 23 1D 0E 80 23 29 08 13  00 0F 01 02 29 08 13 00  #...#)......)...
0170: 0F 01 07 1D 0F 80 23 29  08 13 00 0F 01 08 29 08  ......#)......).
0180: 13 00 0F 01 01 1D 10 80  23 1D 11 80 23 29 08 13  ........#...#)..
0190: 00 0F 01 02 00                                    .....           
```

#### Opcodes

```
  0: 0x0152 [0x1D] PRINT_EVENT_MESSAGE(message_id=3949*)
    → "What's that you say? The kiddy-widdy has had a Sleep spell cast on him?"
  1: 0x0155 [0x23] WAIT_FOR_DIALOG_INTERACTION
  2: 0x0156 [0x29] REQ_SET_WAIT(priority=0x08, entity_id=Maabu-Sonbu (ID: 17760275/0x010F0013), tag_num=0x01)
  3: 0x015D [0x1D] PRINT_EVENT_MESSAGE(message_id=3950*)
    → "Well, to awaken someone from a Sleep spell you just have to hit them really hard, but I guess you can't go around bashing up children, can you?"
  4: 0x0160 [0x23] WAIT_FOR_DIALOG_INTERACTION
  5: 0x0161 [0x1D] PRINT_EVENT_MESSAGE(message_id=3951*)
    → "Then, why don'taru try and make him drink $1? That ought to wake the kiddy-widdy up."
  6: 0x0164 [0x23] WAIT_FOR_DIALOG_INTERACTION
  7: 0x0165 [0x29] REQ_SET_WAIT(priority=0x08, entity_id=Maabu-Sonbu (ID: 17760275/0x010F0013), tag_num=0x02)
  8: 0x016C [0x29] REQ_SET_WAIT(priority=0x08, entity_id=Maabu-Sonbu (ID: 17760275/0x010F0013), tag_num=0x07)
  9: 0x0173 [0x1D] PRINT_EVENT_MESSAGE(message_id=11918*)
    → "What? $1 didn't quite do the tricky-wicky? Hmm..."
 10: 0x0176 [0x23] WAIT_FOR_DIALOG_INTERACTION
 11: 0x0177 [0x29] REQ_SET_WAIT(priority=0x08, entity_id=Maabu-Sonbu (ID: 17760275/0x010F0013), tag_num=0x08)
 12: 0x017E [0x29] REQ_SET_WAIT(priority=0x08, entity_id=Maabu-Sonbu (ID: 17760275/0x010F0013), tag_num=0x01)
 13: 0x0185 [0x1D] PRINT_EVENT_MESSAGE(message_id=11919*)
    → "How about trying $2? That plant smells bad enough to raise the dead, so it should work fine on a sleepy-weepy kid."
 14: 0x0188 [0x23] WAIT_FOR_DIALOG_INTERACTION
 15: 0x0189 [0x1D] PRINT_EVENT_MESSAGE(message_id=11920*)
    → "I heard you can find it growing in the Pashhow Marshlands. Don't forget to take $3 with you when you go!"
 16: 0x018C [0x23] WAIT_FOR_DIALOG_INTERACTION
 17: 0x018D [0x29] REQ_SET_WAIT(priority=0x08, entity_id=Maabu-Sonbu (ID: 17760275/0x010F0013), tag_num=0x02)
 18: 0x0194 [0x00] END_REQSTACK()
```

### Event 320

#### Metadata

| Field        | Value    |
|--------------|----------|
| Entrypoint   | 0x0195   |
| Data Size    | 87 bytes |
| Instructions | 24       |

```
      00 01 02 03 04 05 06 07  08 09 0A 0B 0C 0D 0E 0F
      -- -- -- -- -- -- -- --  -- -- -- -- -- -- -- --
0190:                1E F0 FF  FF 7F 6F 70 29 08 13 00       .....op)...
01A0: 0F 01 03 1D 12 80 23 29  08 13 00 0F 01 04 29 08  ......#)......).
01B0: 13 00 0F 01 05 1D 13 80  23 29 08 13 00 0F 01 06  ........#)......
01C0: 29 08 13 00 0F 01 07 1D  0F 80 23 29 08 13 00 0F  ).........#)....
01D0: 01 08 29 08 13 00 0F 01  01 1D 10 80 23 1D 11 80  ..).........#...
01E0: 23 29 08 13 00 0F 01 02  20 00 21 00              #)...... .!.    
```

#### Opcodes

```
  0: 0x0195 [0x1E] EventEntity looks at LocalPlayer and starts talking
  1: 0x019A [0x6F] WAIT_FRAME_DELAY: Yield until WaitTime reaches zero
  2: 0x019B [0x70] WAIT_ENTITY_RENDER_FLAG: Wait while EventEntity->Render.Flags3 bit 2 is set (cancel turn if not)
  3: 0x019C [0x29] REQ_SET_WAIT(priority=0x08, entity_id=Maabu-Sonbu (ID: 17760275/0x010F0013), tag_num=0x03)
  4: 0x01A3 [0x1D] PRINT_EVENT_MESSAGE(message_id=3952*)
    → "To awaken someone from a Sleep spell you just have to hit them really hard, but you can't go around bashing up children, so..."
  5: 0x01A6 [0x23] WAIT_FOR_DIALOG_INTERACTION
  6: 0x01A7 [0x29] REQ_SET_WAIT(priority=0x08, entity_id=Maabu-Sonbu (ID: 17760275/0x010F0013), tag_num=0x04)
  7: 0x01AE [0x29] REQ_SET_WAIT(priority=0x08, entity_id=Maabu-Sonbu (ID: 17760275/0x010F0013), tag_num=0x05)
  8: 0x01B5 [0x1D] PRINT_EVENT_MESSAGE(message_id=3953*)
    → "How about making him drink $1? That ought to do the tricky-wicky."
  9: 0x01B8 [0x23] WAIT_FOR_DIALOG_INTERACTION
 10: 0x01B9 [0x29] REQ_SET_WAIT(priority=0x08, entity_id=Maabu-Sonbu (ID: 17760275/0x010F0013), tag_num=0x06)
 11: 0x01C0 [0x29] REQ_SET_WAIT(priority=0x08, entity_id=Maabu-Sonbu (ID: 17760275/0x010F0013), tag_num=0x07)
 12: 0x01C7 [0x1D] PRINT_EVENT_MESSAGE(message_id=11918*)
    → "What? $1 didn't quite do the tricky-wicky? Hmm..."
 13: 0x01CA [0x23] WAIT_FOR_DIALOG_INTERACTION
 14: 0x01CB [0x29] REQ_SET_WAIT(priority=0x08, entity_id=Maabu-Sonbu (ID: 17760275/0x010F0013), tag_num=0x08)
 15: 0x01D2 [0x29] REQ_SET_WAIT(priority=0x08, entity_id=Maabu-Sonbu (ID: 17760275/0x010F0013), tag_num=0x01)
 16: 0x01D9 [0x1D] PRINT_EVENT_MESSAGE(message_id=11919*)
    → "How about trying $2? That plant smells bad enough to raise the dead, so it should work fine on a sleepy-weepy kid."
 17: 0x01DC [0x23] WAIT_FOR_DIALOG_INTERACTION
 18: 0x01DD [0x1D] PRINT_EVENT_MESSAGE(message_id=11920*)
    → "I heard you can find it growing in the Pashhow Marshlands. Don't forget to take $3 with you when you go!"
 19: 0x01E0 [0x23] WAIT_FOR_DIALOG_INTERACTION
 20: 0x01E1 [0x29] REQ_SET_WAIT(priority=0x08, entity_id=Maabu-Sonbu (ID: 17760275/0x010F0013), tag_num=0x02)
 21: 0x01E8 [0x20] SET_CLI_EVENT_UC_FLAG: Unlock player control
 22: 0x01EA [0x21] END_EVENT
 23: 0x01EB [0x00] END_REQSTACK()
```

### Event 321

#### Metadata

| Field        | Value    |
|--------------|----------|
| Entrypoint   | 0x01EC   |
| Data Size    | 47 bytes |
| Instructions | 14       |

```
      00 01 02 03 04 05 06 07  08 09 0A 0B 0C 0D 0E 0F
      -- -- -- -- -- -- -- --  -- -- -- -- -- -- -- --
01E0:                                      1E F0 FF FF              ....
01F0: 7F 6F 70 29 08 13 00 0F  01 03 1D 14 80 23 29 08  .op).........#).
0200: 13 00 0F 01 04 29 08 13  00 0F 01 05 1D 15 80 23  .....).........#
0210: 29 08 13 00 0F 01 06 20  00 21 00                 )...... .!.     
```

#### Opcodes

```
  0: 0x01EC [0x1E] EventEntity looks at LocalPlayer and starts talking
  1: 0x01F1 [0x6F] WAIT_FRAME_DELAY: Yield until WaitTime reaches zero
  2: 0x01F2 [0x70] WAIT_ENTITY_RENDER_FLAG: Wait while EventEntity->Render.Flags3 bit 2 is set (cancel turn if not)
  3: 0x01F3 [0x29] REQ_SET_WAIT(priority=0x08, entity_id=Maabu-Sonbu (ID: 17760275/0x010F0013), tag_num=0x03)
  4: 0x01FA [0x1D] PRINT_EVENT_MESSAGE(message_id=3954*)
    → "You tried using $1 on him and he still didn't wakey-wakey up, huh?"
  5: 0x01FD [0x23] WAIT_FOR_DIALOG_INTERACTION
  6: 0x01FE [0x29] REQ_SET_WAIT(priority=0x08, entity_id=Maabu-Sonbu (ID: 17760275/0x010F0013), tag_num=0x04)
  7: 0x0205 [0x29] REQ_SET_WAIT(priority=0x08, entity_id=Maabu-Sonbu (ID: 17760275/0x010F0013), tag_num=0x05)
  8: 0x020C [0x1D] PRINT_EVENT_MESSAGE(message_id=3955*)
    → "I wonder what it could be... The only advice I can offer is that you speak to Pechiru-Mashiru--the kid's white magic teacher."
  9: 0x020F [0x23] WAIT_FOR_DIALOG_INTERACTION
 10: 0x0210 [0x29] REQ_SET_WAIT(priority=0x08, entity_id=Maabu-Sonbu (ID: 17760275/0x010F0013), tag_num=0x06)
 11: 0x0217 [0x20] SET_CLI_EVENT_UC_FLAG: Unlock player control
 12: 0x0219 [0x21] END_EVENT
 13: 0x021A [0x00] END_REQSTACK()
```

### Event 322

#### Metadata

| Field        | Value    |
|--------------|----------|
| Entrypoint   | 0x021B   |
| Data Size    | 29 bytes |
| Instructions | 10       |

```
      00 01 02 03 04 05 06 07  08 09 0A 0B 0C 0D 0E 0F
      -- -- -- -- -- -- -- --  -- -- -- -- -- -- -- --
0210:                                   1E F0 FF FF 7F             .....
0220: 6F 70 29 08 13 00 0F 01  01 1D 16 80 23 29 08 13  op).........#)..
0230: 00 0F 01 02 20 00 21 00                           .... .!.        
```

#### Opcodes

```
  0: 0x021B [0x1E] EventEntity looks at LocalPlayer and starts talking
  1: 0x0220 [0x6F] WAIT_FRAME_DELAY: Yield until WaitTime reaches zero
  2: 0x0221 [0x70] WAIT_ENTITY_RENDER_FLAG: Wait while EventEntity->Render.Flags3 bit 2 is set (cancel turn if not)
  3: 0x0222 [0x29] REQ_SET_WAIT(priority=0x08, entity_id=Maabu-Sonbu (ID: 17760275/0x010F0013), tag_num=0x01)
  4: 0x0229 [0x1D] PRINT_EVENT_MESSAGE(message_id=3956*)
    → "Did you solve our little sleepy-head's problem? Phew... Now we can all sleep easier!"
  5: 0x022C [0x23] WAIT_FOR_DIALOG_INTERACTION
  6: 0x022D [0x29] REQ_SET_WAIT(priority=0x08, entity_id=Maabu-Sonbu (ID: 17760275/0x010F0013), tag_num=0x02)
  7: 0x0234 [0x20] SET_CLI_EVENT_UC_FLAG: Unlock player control
  8: 0x0236 [0x21] END_EVENT
  9: 0x0237 [0x00] END_REQSTACK()
```

### Event 264

#### Metadata

| Field        | Value    |
|--------------|----------|
| Entrypoint   | 0x0238   |
| Data Size    | 33 bytes |
| Instructions | 12       |

```
      00 01 02 03 04 05 06 07  08 09 0A 0B 0C 0D 0E 0F
      -- -- -- -- -- -- -- --  -- -- -- -- -- -- -- --
0230:                          1E F0 FF FF 7F 6F 70 29          .....op)
0240: 08 13 00 0F 01 01 1D 17  80 23 1D 18 80 23 29 08  .........#...#).
0250: 13 00 0F 01 02 20 00 21  00                       ..... .!.       
```

#### Opcodes

```
  0: 0x0238 [0x1E] EventEntity looks at LocalPlayer and starts talking
  1: 0x023D [0x6F] WAIT_FRAME_DELAY: Yield until WaitTime reaches zero
  2: 0x023E [0x70] WAIT_ENTITY_RENDER_FLAG: Wait while EventEntity->Render.Flags3 bit 2 is set (cancel turn if not)
  3: 0x023F [0x29] REQ_SET_WAIT(priority=0x08, entity_id=Maabu-Sonbu (ID: 17760275/0x010F0013), tag_num=0x01)
  4: 0x0246 [0x1D] PRINT_EVENT_MESSAGE(message_id=3711*)
    → "Actually, the three types of wands the brigadier generals want should be in storage in the Orastery's depository..."
  5: 0x0249 [0x23] WAIT_FOR_DIALOG_INTERACTION
  6: 0x024A [0x1D] PRINT_EVENT_MESSAGE(message_id=3712*)
    → "Oh, but during last year's budget meetings they raided the depository and went wild with them, so, erm, I guess that's why they are asking you to bring-wring them new ones."
  7: 0x024D [0x23] WAIT_FOR_DIALOG_INTERACTION
  8: 0x024E [0x29] REQ_SET_WAIT(priority=0x08, entity_id=Maabu-Sonbu (ID: 17760275/0x010F0013), tag_num=0x02)
  9: 0x0255 [0x20] SET_CLI_EVENT_UC_FLAG: Unlock player control
 10: 0x0257 [0x21] END_EVENT
 11: 0x0258 [0x00] END_REQSTACK()
```

### Event 273

#### Metadata

| Field        | Value    |
|--------------|----------|
| Entrypoint   | 0x0259   |
| Data Size    | 33 bytes |
| Instructions | 12       |

```
      00 01 02 03 04 05 06 07  08 09 0A 0B 0C 0D 0E 0F
      -- -- -- -- -- -- -- --  -- -- -- -- -- -- -- --
0250:                             1E F0 FF FF 7F 6F 70           .....op
0260: 29 08 13 00 0F 01 01 1D  19 80 23 1D 1A 80 23 29  ).........#...#)
0270: 08 13 00 0F 01 02 20 00  21 00                    ...... .!.      
```

#### Opcodes

```
  0: 0x0259 [0x1E] EventEntity looks at LocalPlayer and starts talking
  1: 0x025E [0x6F] WAIT_FRAME_DELAY: Yield until WaitTime reaches zero
  2: 0x025F [0x70] WAIT_ENTITY_RENDER_FLAG: Wait while EventEntity->Render.Flags3 bit 2 is set (cancel turn if not)
  3: 0x0260 [0x29] REQ_SET_WAIT(priority=0x08, entity_id=Maabu-Sonbu (ID: 17760275/0x010F0013), tag_num=0x01)
  4: 0x0267 [0x1D] PRINT_EVENT_MESSAGE(message_id=3757*)
    → "Enjoy the little magic show there? Doc Shantotto's always unleashing her mighty magic on anyone and everyone without mercy."
  5: 0x026A [0x23] WAIT_FOR_DIALOG_INTERACTION
  6: 0x026B [0x1D] PRINT_EVENT_MESSAGE(message_id=3758*)
    → "That's how we lose more than the odd wand or two... My head hurts at the thought-wought of all the equipment she's wasted so far!"
  7: 0x026E [0x23] WAIT_FOR_DIALOG_INTERACTION
  8: 0x026F [0x29] REQ_SET_WAIT(priority=0x08, entity_id=Maabu-Sonbu (ID: 17760275/0x010F0013), tag_num=0x02)
  9: 0x0276 [0x20] SET_CLI_EVENT_UC_FLAG: Unlock player control
 10: 0x0278 [0x21] END_EVENT
 11: 0x0279 [0x00] END_REQSTACK()
```

### Event 491

#### Metadata

| Field        | Value    |
|--------------|----------|
| Entrypoint   | 0x027A   |
| Data Size    | 65 bytes |
| Instructions | 18       |

```
      00 01 02 03 04 05 06 07  08 09 0A 0B 0C 0D 0E 0F
      -- -- -- -- -- -- -- --  -- -- -- -- -- -- -- --
0270:                                1E F0 FF FF 7F 6F            .....o
0280: 70 29 08 13 00 0F 01 01  1D 1B 80 23 29 08 13 00  p).........#)...
0290: 0F 01 02 1D 1C 80 23 29  08 13 00 0F 01 03 1D 1D  ......#)........
02A0: 80 23 29 08 13 00 0F 01  04 29 08 13 00 0F 01 05  .#)......)......
02B0: 29 08 13 00 0F 01 06 20  00 21 00                 )...... .!.     
```

#### Opcodes

```
  0: 0x027A [0x1E] EventEntity looks at LocalPlayer and starts talking
  1: 0x027F [0x6F] WAIT_FRAME_DELAY: Yield until WaitTime reaches zero
  2: 0x0280 [0x70] WAIT_ENTITY_RENDER_FLAG: Wait while EventEntity->Render.Flags3 bit 2 is set (cancel turn if not)
  3: 0x0281 [0x29] REQ_SET_WAIT(priority=0x08, entity_id=Maabu-Sonbu (ID: 17760275/0x010F0013), tag_num=0x01)
  4: 0x0288 [0x1D] PRINT_EVENT_MESSAGE(message_id=12298*)
    → "Be careful, now! This is a magic training area. It's far too dangerous for your average Joe Blow to be hanging around here!"
  5: 0x028B [0x23] WAIT_FOR_DIALOG_INTERACTION
  6: 0x028C [0x29] REQ_SET_WAIT(priority=0x08, entity_id=Maabu-Sonbu (ID: 17760275/0x010F0013), tag_num=0x02)
  7: 0x0293 [0x1D] PRINT_EVENT_MESSAGE(message_id=12299*)
    → "Now especially-wecially, everyone is a little on edge. Since the minister was arrested by the Sibyl Guards, the Orastery has been completely topsy-turvy."
  8: 0x0296 [0x23] WAIT_FOR_DIALOG_INTERACTION
  9: 0x0297 [0x29] REQ_SET_WAIT(priority=0x08, entity_id=Maabu-Sonbu (ID: 17760275/0x010F0013), tag_num=0x03)
 10: 0x029E [0x1D] PRINT_EVENT_MESSAGE(message_id=12300*)
    → "Whatever is going to happen to our beloved Orastery? I shudder-wudder to think..."
 11: 0x02A1 [0x23] WAIT_FOR_DIALOG_INTERACTION
 12: 0x02A2 [0x29] REQ_SET_WAIT(priority=0x08, entity_id=Maabu-Sonbu (ID: 17760275/0x010F0013), tag_num=0x04)
 13: 0x02A9 [0x29] REQ_SET_WAIT(priority=0x08, entity_id=Maabu-Sonbu (ID: 17760275/0x010F0013), tag_num=0x05)
 14: 0x02B0 [0x29] REQ_SET_WAIT(priority=0x08, entity_id=Maabu-Sonbu (ID: 17760275/0x010F0013), tag_num=0x06)
 15: 0x02B7 [0x20] SET_CLI_EVENT_UC_FLAG: Unlock player control
 16: 0x02B9 [0x21] END_EVENT
 17: 0x02BA [0x00] END_REQSTACK()
```

### Event 456

#### Metadata

| Field        | Value   |
|--------------|---------|
| Entrypoint   | 0x02BB  |
| Data Size    | 1 bytes |
| Instructions | 1       |

```
      00 01 02 03 04 05 06 07  08 09 0A 0B 0C 0D 0E 0F
      -- -- -- -- -- -- -- --  -- -- -- -- -- -- -- --
02B0:                                   00                         .    
```

#### Opcodes

```
  0: 0x02BB [0x00] END_REQSTACK()
```

### Event 573

#### Metadata

| Field        | Value    |
|--------------|----------|
| Entrypoint   | 0x02BC   |
| Data Size    | 51 bytes |
| Instructions | 16       |

```
      00 01 02 03 04 05 06 07  08 09 0A 0B 0C 0D 0E 0F
      -- -- -- -- -- -- -- --  -- -- -- -- -- -- -- --
02B0:                                      1E F0 FF FF              ....
02C0: 7F 6F 70 29 08 13 00 0F  01 01 1D 1E 80 23 29 08  .op).........#).
02D0: 13 00 0F 01 02 1D 1F 80  23 29 08 13 00 0F 01 07  ........#)......
02E0: 1D 20 80 23 29 08 13 00  0F 01 08 20 00 21 00     . .#)...... .!. 
```

#### Opcodes

```
  0: 0x02BC [0x1E] EventEntity looks at LocalPlayer and starts talking
  1: 0x02C1 [0x6F] WAIT_FRAME_DELAY: Yield until WaitTime reaches zero
  2: 0x02C2 [0x70] WAIT_ENTITY_RENDER_FLAG: Wait while EventEntity->Render.Flags3 bit 2 is set (cancel turn if not)
  3: 0x02C3 [0x29] REQ_SET_WAIT(priority=0x08, entity_id=Maabu-Sonbu (ID: 17760275/0x010F0013), tag_num=0x01)
  4: 0x02CA [0x1D] PRINT_EVENT_MESSAGE(message_id=12608*)
    → "Be careful, now! This is a magic training area. It's far too dangerous for your average Joe Blow to be hanging around here!"
  5: 0x02CD [0x23] WAIT_FOR_DIALOG_INTERACTION
  6: 0x02CE [0x29] REQ_SET_WAIT(priority=0x08, entity_id=Maabu-Sonbu (ID: 17760275/0x010F0013), tag_num=0x02)
  7: 0x02D5 [0x1D] PRINT_EVENT_MESSAGE(message_id=12609*)
    → "Everyone's spells have become a little over-wover-enthusiastic since we heard that the Star Sibyl had forgiven Minister Ajido-Marujido."
  8: 0x02D8 [0x23] WAIT_FOR_DIALOG_INTERACTION
  9: 0x02D9 [0x29] REQ_SET_WAIT(priority=0x08, entity_id=Maabu-Sonbu (ID: 17760275/0x010F0013), tag_num=0x07)
 10: 0x02E0 [0x1D] PRINT_EVENT_MESSAGE(message_id=12610*)
    → "I can't vouch for your safety in the Orastery rightaru now. Of course, it's never been that safe in here to begin with..."
 11: 0x02E3 [0x23] WAIT_FOR_DIALOG_INTERACTION
 12: 0x02E4 [0x29] REQ_SET_WAIT(priority=0x08, entity_id=Maabu-Sonbu (ID: 17760275/0x010F0013), tag_num=0x08)
 13: 0x02EB [0x20] SET_CLI_EVENT_UC_FLAG: Unlock player control
 14: 0x02ED [0x21] END_EVENT
 15: 0x02EE [0x00] END_REQSTACK()
```

### Event 578

#### Metadata

| Field        | Value   |
|--------------|---------|
| Entrypoint   | 0x02EF  |
| Data Size    | 1 bytes |
| Instructions | 1       |

```
      00 01 02 03 04 05 06 07  08 09 0A 0B 0C 0D 0E 0F
      -- -- -- -- -- -- -- --  -- -- -- -- -- -- -- --
02E0:                                               00                 .
```

#### Opcodes

```
  0: 0x02EF [0x00] END_REQSTACK()
```

### Event 581

#### Metadata

| Field        | Value   |
|--------------|---------|
| Entrypoint   | 0x02F0  |
| Data Size    | 1 bytes |
| Instructions | 1       |

```
      00 01 02 03 04 05 06 07  08 09 0A 0B 0C 0D 0E 0F
      -- -- -- -- -- -- -- --  -- -- -- -- -- -- -- --
02F0: 00                                                .               
```

#### Opcodes

```
  0: 0x02F0 [0x00] END_REQSTACK()
```

### Event 583

#### Metadata

| Field        | Value   |
|--------------|---------|
| Entrypoint   | 0x02F1  |
| Data Size    | 1 bytes |
| Instructions | 1       |

```
      00 01 02 03 04 05 06 07  08 09 0A 0B 0C 0D 0E 0F
      -- -- -- -- -- -- -- --  -- -- -- -- -- -- -- --
02F0:    00                                              .              
```

#### Opcodes

```
  0: 0x02F1 [0x00] END_REQSTACK()
```
