# 17760341 - Pichichi

## Common Data

| Field            | Value                   |
|------------------|-------------------------|
| Zone             | Port Windurst (ID: 240) |
| Block Size       | 3112 bytes              |
| Total Events     | 133                     |
| References Count | 176                     |

## List of Events

| Event ID                   | Entrypoint   |   Size |   Instructions |
|----------------------------|--------------|--------|----------------|
| [65535](#event-65535)      | 0x0000       |      1 |              1 |
| [65535.1](#event-655351)   | 0x0001       |     16 |              2 |
| [65535.2](#event-655352)   | 0x0011       |     22 |              4 |
| [65535.3](#event-655353)   | 0x0027       |     16 |              2 |
| [65535.4](#event-655354)   | 0x0037       |     14 |              2 |
| [65535.5](#event-655355)   | 0x0045       |     16 |              2 |
| [65535.6](#event-655356)   | 0x0055       |     14 |              2 |
| [65535.7](#event-655357)   | 0x0063       |     16 |              2 |
| [65535.8](#event-655358)   | 0x0073       |     22 |              4 |
| [65535.9](#event-655359)   | 0x0089       |     22 |              3 |
| [65535.10](#event-6553510) | 0x009F       |     20 |              3 |
| [65535.11](#event-6553511) | 0x00B3       |     22 |              3 |
| [65535.12](#event-6553512) | 0x00C9       |     20 |              3 |
| [65535.13](#event-6553513) | 0x00DD       |     22 |              3 |
| [65535.14](#event-6553514) | 0x00F3       |     20 |              3 |
| [65535.15](#event-6553515) | 0x0107       |     16 |              2 |
| [65535.16](#event-6553516) | 0x0117       |     14 |              2 |
| [65535.17](#event-6553517) | 0x0125       |     16 |              2 |
| [65535.18](#event-6553518) | 0x0135       |     14 |              2 |
| [65535.19](#event-6553519) | 0x0143       |     16 |              2 |
| [65535.20](#event-6553520) | 0x0153       |     14 |              2 |
| [65535.21](#event-6553521) | 0x0161       |      9 |              3 |
| [364](#event-364)          | 0x016A       |     29 |             10 |
| [368](#event-368)          | 0x0187       |      1 |              1 |
| [65535.22](#event-6553522) | 0x0188       |     10 |              2 |
| [65535.23](#event-6553523) | 0x0192       |     15 |              5 |
| [65535.24](#event-6553524) | 0x01A1       |     19 |              5 |
| [65535.25](#event-6553525) | 0x01B4       |     23 |              7 |
| [374](#event-374)          | 0x01CB       |     33 |             12 |
| [65535.26](#event-6553526) | 0x01EC       |     19 |              5 |
| [65535.27](#event-6553527) | 0x01FF       |     37 |              9 |
| [385](#event-385)          | 0x0224       |     33 |             12 |
| [378](#event-378)          | 0x0245       |      1 |              1 |
| [391](#event-391)          | 0x0246       |      1 |              1 |
| [386](#event-386)          | 0x0247       |      1 |              1 |
| [390](#event-390)          | 0x0248       |      1 |              1 |
| [65535.28](#event-6553528) | 0x0249       |     19 |              5 |
| [395](#event-395)          | 0x025C       |     33 |             12 |
| [65535.29](#event-6553529) | 0x027D       |     19 |              5 |
| [400](#event-400)          | 0x0290       |      1 |              1 |
| [65535.30](#event-6553530) | 0x0291       |     15 |              5 |
| [410](#event-410)          | 0x02A0       |     15 |              8 |
| [411](#event-411)          | 0x02AF       |     29 |             10 |
| [413](#event-413)          | 0x02CC       |      1 |              1 |
| [415](#event-415)          | 0x02CD       |     33 |             12 |
| [65535.31](#event-6553531) | 0x02EE       |     19 |              5 |
| [421](#event-421)          | 0x0301       |      1 |              1 |
| [65535.32](#event-6553532) | 0x0302       |      9 |              5 |
| [65535.33](#event-6553533) | 0x030B       |     19 |              5 |
| [423](#event-423)          | 0x031E       |     33 |             12 |
| [430](#event-430)          | 0x033F       |      1 |              1 |
| [432](#event-432)          | 0x0340       |      1 |              1 |
| [433](#event-433)          | 0x0341       |      1 |              1 |
| [438](#event-438)          | 0x0342       |     33 |             12 |
| [445](#event-445)          | 0x0363       |     33 |             12 |
| [324](#event-324)          | 0x0384       |      1 |              1 |
| [65535.34](#event-6553534) | 0x0385       |     27 |              7 |
| [65535.35](#event-6553535) | 0x03A0       |     15 |              5 |
| [65535.36](#event-6553536) | 0x03AF       |     25 |              5 |
| [65535.37](#event-6553537) | 0x03C8       |     10 |              2 |
| [65535.38](#event-6553538) | 0x03D2       |     18 |              6 |
| [65535.39](#event-6553539) | 0x03E4       |     24 |              6 |
| [65535.40](#event-6553540) | 0x03FC       |     18 |              6 |
| [65535.41](#event-6553541) | 0x040E       |     15 |              5 |
| [65535.42](#event-6553542) | 0x041D       |      5 |              3 |
| [65535.43](#event-6553543) | 0x0422       |     19 |              5 |
| [65535.44](#event-6553544) | 0x0435       |      5 |              3 |
| [65535.45](#event-6553545) | 0x043A       |      5 |              3 |
| [65535.46](#event-6553546) | 0x043F       |     19 |              5 |
| [65535.47](#event-6553547) | 0x0452       |     19 |              5 |
| [65535.48](#event-6553548) | 0x0465       |     19 |              5 |
| [65535.49](#event-6553549) | 0x0478       |     19 |              5 |
| [65535.50](#event-6553550) | 0x048B       |     27 |              7 |
| [65535.51](#event-6553551) | 0x04A6       |     15 |              5 |
| [65535.52](#event-6553552) | 0x04B5       |     15 |              5 |
| [65535.53](#event-6553553) | 0x04C4       |     15 |              5 |
| [65535.54](#event-6553554) | 0x04D3       |     15 |              5 |
| [65535.55](#event-6553555) | 0x04E2       |      5 |              3 |
| [65535.56](#event-6553556) | 0x04E7       |      5 |              3 |
| [65535.57](#event-6553557) | 0x04EC       |     19 |              5 |
| [65535.58](#event-6553558) | 0x04FF       |     19 |              5 |
| [65535.59](#event-6553559) | 0x0512       |     19 |              5 |
| [323](#event-323)          | 0x0525       |      1 |              1 |
| [65535.60](#event-6553560) | 0x0526       |     10 |              2 |
| [65535.61](#event-6553561) | 0x0530       |     27 |              7 |
| [65535.62](#event-6553562) | 0x054B       |     15 |              5 |
| [65535.63](#event-6553563) | 0x055A       |     15 |              5 |
| [65535.64](#event-6553564) | 0x0569       |     10 |              2 |
| [65535.65](#event-6553565) | 0x0573       |     25 |              7 |
| [65535.66](#event-6553566) | 0x058C       |     22 |              6 |
| [65535.67](#event-6553567) | 0x05A2       |     24 |              6 |
| [65535.68](#event-6553568) | 0x05BA       |      5 |              3 |
| [65535.69](#event-6553569) | 0x05BF       |      5 |              3 |
| [65535.70](#event-6553570) | 0x05C4       |      9 |              5 |
| [65535.71](#event-6553571) | 0x05CD       |      5 |              3 |
| [496](#event-496)          | 0x05D2       |      1 |              1 |
| [497](#event-497)          | 0x05D3       |      1 |              1 |
| [65535.72](#event-6553572) | 0x05D4       |     10 |              2 |
| [65535.73](#event-6553573) | 0x05DE       |      5 |              3 |
| [65535.74](#event-6553574) | 0x05E3       |      5 |              3 |
| [503](#event-503)          | 0x05E8       |     33 |             12 |
| [511](#event-511)          | 0x0609       |     33 |             12 |
| [513](#event-513)          | 0x062A       |      1 |              1 |
| [65535.75](#event-6553575) | 0x062B       |      5 |              3 |
| [65535.76](#event-6553576) | 0x0630       |      5 |              3 |
| [65535.77](#event-6553577) | 0x0635       |      5 |              3 |
| [65535.78](#event-6553578) | 0x063A       |      5 |              3 |
| [530](#event-530)          | 0x063F       |     33 |             12 |
| [522](#event-522)          | 0x0660       |      1 |              1 |
| [65535.79](#event-6553579) | 0x0661       |      5 |              3 |
| [65535.80](#event-6553580) | 0x0666       |      5 |              3 |
| [524](#event-524)          | 0x066B       |     33 |             12 |
| [65535.81](#event-6553581) | 0x068C       |     10 |              2 |
| [532](#event-532)          | 0x0696       |      1 |              1 |
| [65535.82](#event-6553582) | 0x0697       |      5 |              3 |
| [65535.83](#event-6553583) | 0x069C       |      5 |              3 |
| [534](#event-534)          | 0x06A1       |      1 |              1 |
| [536](#event-536)          | 0x06A2       |     29 |             10 |
| [542](#event-542)          | 0x06BF       |      1 |              1 |
| [586](#event-586)          | 0x06C0       |     37 |             14 |
| [584](#event-584)          | 0x06E5       |      1 |              1 |
| [65535.84](#event-6553584) | 0x06E6       |     15 |              5 |
| [65535.85](#event-6553585) | 0x06F5       |     10 |              2 |
| [915](#event-915)          | 0x06FF       |      1 |              1 |
| [916](#event-916)          | 0x0700       |      1 |              1 |
| [924](#event-924)          | 0x0701       |      1 |              1 |
| [920](#event-920)          | 0x0702       |      1 |              1 |
| [65535.86](#event-6553586) | 0x0703       |     15 |              5 |
| [65535.87](#event-6553587) | 0x0712       |     15 |              5 |
| [65535.88](#event-6553588) | 0x0721       |     15 |              5 |
| [65535.89](#event-6553589) | 0x0730       |     15 |              5 |
| [925](#event-925)          | 0x073F       |      1 |              1 |
| [929](#event-929)          | 0x0740       |      1 |              1 |

## DAT References (imed_data)

|   Index | Hex Value   |   Dec Value |
|---------|-------------|-------------|
|       0 | 0x0055      |          85 |
|       1 | 0x001E      |          30 |
|       2 | 0x0056      |          86 |
|       3 | 0x1043      |        4163 |
|       4 | 0xFFFFA178  |  4294943096 |
|       5 | 0x2F782     |      194434 |
|       6 | 0xFFFFE891  |  4294961297 |
|       7 | 0x0493      |        1171 |
|       8 | 0x0015      |          21 |
|       9 | 0xFFFF9D2F  |  4294941999 |
|      10 | 0x2EC19     |      191513 |
|      11 | 0x1050      |        4176 |
|      12 | 0x1061      |        4193 |
|      13 | 0x1062      |        4194 |
|      14 | 0x106D      |        4205 |
|      15 | 0x106E      |        4206 |
|      16 | 0x1077      |        4215 |
|      17 | 0x107A      |        4218 |
|      18 | 0x107B      |        4219 |
|      19 | 0x1089      |        4233 |
|      20 | 0x108A      |        4234 |
|      21 | 0x10AA      |        4266 |
|      22 | 0x10B3      |        4275 |
|      23 | 0x10B4      |        4276 |
|      24 | 0x10BF      |        4287 |
|      25 | 0x0007      |           7 |
|      26 | 0xFFFF9AB9  |  4294941369 |
|      27 | 0x2EC6A     |      191594 |
|      28 | 0x10D4      |        4308 |
|      29 | 0x10D5      |        4309 |
|      30 | 0x10E6      |        4326 |
|      31 | 0x10E7      |        4327 |
|      32 | 0x10F1      |        4337 |
|      33 | 0x10F5      |        4341 |
|      34 | 0x10F6      |        4342 |
|      35 | 0x10F8      |        4344 |
|      36 | 0x10FB      |        4347 |
|      37 | 0x10FC      |        4348 |
|      38 | 0x111F      |        4383 |
|      39 | 0x1120      |        4384 |
|      40 | 0x112D      |        4397 |
|      41 | 0x112E      |        4398 |
|      42 | 0xFFFF99E7  |  4294941159 |
|      43 | 0x4164C     |      267852 |
|      44 | 0xFFFFD120  |  4294955296 |
|      45 | 0x0BF4      |        3060 |
|      46 | 0xFFFF9721  |  4294940449 |
|      47 | 0x420AE     |      270510 |
|      48 | 0x0E83      |        3715 |
|      49 | 0x0064      |         100 |
|      50 | 0xFFFF8C0F  |  4294937615 |
|      51 | 0x4487D     |      280701 |
|      52 | 0xFFFFCD39  |  4294954297 |
|      53 | 0x0D0A      |        3338 |
|      54 | 0xFFFF7E6D  |  4294934125 |
|      55 | 0x44FCB     |      282571 |
|      56 | 0x0B71      |        2929 |
|      57 | 0x08A8      |        2216 |
|      58 | 0xFFFF7753  |  4294932307 |
|      59 | 0x4511B     |      282907 |
|      60 | 0xFFFF8CDD  |  4294937821 |
|      61 | 0x4514E     |      282958 |
|      62 | 0x0F8B      |        3979 |
|      63 | 0xFFFF7733  |  4294932275 |
|      64 | 0x4556D     |      284013 |
|      65 | 0x0FBE      |        4030 |
|      66 | 0x0FC0      |        4032 |
|      67 | 0x0FC2      |        4034 |
|      68 | 0x0FC5      |        4037 |
|      69 | 0x0FC7      |        4039 |
|      70 | 0x0FC9      |        4041 |
|      71 | 0x0FCB      |        4043 |
|      72 | 0x0FCC      |        4044 |
|      73 | 0x00BE      |         190 |
|      74 | 0xFFFF958D  |  4294940045 |
|      75 | 0x3FA87     |      260743 |
|      76 | 0xFFFFCD38  |  4294954296 |
|      77 | 0x0435      |        1077 |
|      78 | 0xFFFF9645  |  4294940229 |
|      79 | 0x3EB79     |      256889 |
|      80 | 0xFFFFCEC3  |  4294954691 |
|      81 | 0xFFFF8E82  |  4294938242 |
|      82 | 0x3CD1A     |      249114 |
|      83 | 0xFFFFD007  |  4294955015 |
|      84 | 0xFFFF942B  |  4294939691 |
|      85 | 0x3E081     |      254081 |
|      86 | 0xFFFFCF9F  |  4294954911 |
|      87 | 0xFFFF969C  |  4294940316 |
|      88 | 0x3E530     |      255280 |
|      89 | 0xFFFFCF64  |  4294954852 |
|      90 | 0xFFFF8643  |  4294936131 |
|      91 | 0x3D052     |      249938 |
|      92 | 0xFFFFD019  |  4294955033 |
|      93 | 0x0FD8      |        4056 |
|      94 | 0x0FD9      |        4057 |
|      95 | 0x0FDB      |        4059 |
|      96 | 0x0FDE      |        4062 |
|      97 | 0x0FE1      |        4065 |
|      98 | 0xFFFF9E79  |  4294942329 |
|      99 | 0x41317     |      267031 |
|     100 | 0xFFFFB9B0  |  4294949296 |
|     101 | 0x052D      |        1325 |
|     102 | 0xFFFF76FE  |  4294932222 |
|     103 | 0x3BDBE     |      245182 |
|     104 | 0xFFFFCF5C  |  4294954844 |
|     105 | 0x0E53      |        3667 |
|     106 | 0xFFFF9885  |  4294940805 |
|     107 | 0x3E1E2     |      254434 |
|     108 | 0xFFFFCF91  |  4294954897 |
|     109 | 0xFFFF9CB7  |  4294941879 |
|     110 | 0x40FD6     |      266198 |
|     111 | 0xFFFFB33D  |  4294947645 |
|     112 | 0x42C50     |      273488 |
|     113 | 0xFFFFBBA4  |  4294949796 |
|     114 | 0xFFFF9F77  |  4294942583 |
|     115 | 0x3EC0A     |      257034 |
|     116 | 0xFFFFCEA6  |  4294954662 |
|     117 | 0x0B8A      |        2954 |
|     118 | 0xFFFF9FC6  |  4294942662 |
|     119 | 0x3F619     |      259609 |
|     120 | 0xFFFF9E44  |  4294942276 |
|     121 | 0x3F94A     |      260426 |
|     122 | 0xFFFFA4A4  |  4294943908 |
|     123 | 0x3F937     |      260407 |
|     124 | 0x074D      |        1869 |
|     125 | 0xFFFF9E8A  |  4294942346 |
|     126 | 0x3F875     |      260213 |
|     127 | 0x06D4      |        1748 |
|     128 | 0xFFFF9AAE  |  4294941358 |
|     129 | 0x3F579     |      259449 |
|     130 | 0xFFFFCD29  |  4294954281 |
|     131 | 0x0F86      |        3974 |
|     132 | 0x0F92      |        3986 |
|     133 | 0x0F93      |        3987 |
|     134 | 0x0F94      |        3988 |
|     135 | 0xFFFFA74C  |  4294944588 |
|     136 | 0x2EFFB     |      192507 |
|     137 | 0x0400      |        1024 |
|     138 | 0x30A2      |       12450 |
|     139 | 0x30A4      |       12452 |
|     140 | 0x3093      |       12435 |
|     141 | 0x3094      |       12436 |
|     142 | 0x30B6      |       12470 |
|     143 | 0x30B7      |       12471 |
|     144 | 0x30C9      |       12489 |
|     145 | 0x30CB      |       12491 |
|     146 | 0x30CC      |       12492 |
|     147 | 0x30CD      |       12493 |
|     148 | 0x30D8      |       12504 |
|     149 | 0x30D9      |       12505 |
|     150 | 0x30DF      |       12511 |
|     151 | 0x30E7      |       12519 |
|     152 | 0x30FD      |       12541 |
|     153 | 0x30FE      |       12542 |
|     154 | 0xFFFFA7B5  |  4294944693 |
|     155 | 0x2E962     |      190818 |
|     156 | 0x0000      |           0 |
|     157 | 0x3117      |       12567 |
|     158 | 0x3118      |       12568 |
|     159 | 0x310D      |       12557 |
|     160 | 0x31A3      |       12707 |
|     161 | 0x31A4      |       12708 |
|     162 | 0x31A5      |       12709 |
|     163 | 0xFFFF99F4  |  4294941172 |
|     164 | 0x2EC83     |      191619 |
|     165 | 0xFFFFAAD4  |  4294945492 |
|     166 | 0x2E9D7     |      190935 |
|     167 | 0xFFFFE890  |  4294961296 |
|     168 | 0xFFFFA2A3  |  4294943395 |
|     169 | 0x2E7D4     |      190420 |
|     170 | 0xFFFFA454  |  4294943828 |
|     171 | 0x2E4C4     |      189636 |
|     172 | 0xFFFF9D08  |  4294941960 |
|     173 | 0x2F02C     |      192556 |
|     174 | 0xFFFF9F4D  |  4294942541 |
|     175 | 0x2EC80     |      191616 |

## String References

- **3974**: Up and at 'em!
- **3979**: Ooo\`h!
- **3986**: Oh, the Cat Burglar got away...
- **3987**: ...but she dropped a pretty little ball.
- **3988**: I wonder if everyone will get angry with me if I take it?
- **4030**: You mean ath in...a dead body!?
- **4032**: But a dead body ith not dangerouth, ith it?
- **4034**: But a ghothty ith an undead body, not a dead body, right?
- **4037**: Huh...?
- **4039**: Wee! He came back to life again!
- **4041**: Good morning, thleepy head! My name ith Pichichi!
- **4043**: !
- **4044**: A ghothty!
- **4056**: ......
- **4057**: Ith that your home there, Mither Ghothty?
- **4059**: Tho where ith your home, Mither Ghothty? Where are you going to go?
- **4062**: Then why don't you come home with uth?
- **4065**: Come on! Hurry up!
- **4163**: The firtht rule!
- **4176**: Are invinthible!
- **4193**: Don't athk me! I haven't got a clue!
- **4194**: But my mommy thaid she wanted a tail!
- **4205**: Don't athk me! I haven't got a clue!
- **4206**: Jutht that my mommy thaid she wanted a tail! That'th all!
- **4215**: Oh, look! It'th a tail like mommy wanted!
- **4218**: Yeth, of courthe! Mommy's hotel ith called "The Rarab Tail Hothtelry"!
- **4219**: You thee? Mommy always wants lots of $1! She uthes them to make pickles for the cuthtomers.
- **4233**: Wee! Thank you for the lovely tail! Mommy told me I thould collect a whole bathketful of these...
- **4234**: Oh, and my name ith Pichichi. I hope we can be good friendth.t
- **4266**: Up and at 'em!
- **4275**: I wonder if I athk Mommy nithely, she'll make me a weapon?
- **4276**: The ultimate killing machine would be cool, but a pretty staff of tranthformation would altho be thweet...
- **4287**: But, I wath thuprithed to find thith...
- **4308**: ......
- **4309**: I wonder if mithuth Cat Burglar ith angry? Did Pichichi do thomething bad?
- **4326**: Hey, <Player>. You're looking kind of lotht! Lithten! I'll give you thome help...
- **4327**: If you athk my mommy nithely, she'll make you $6 to help dithguise yourthelf with!
- **4337**: Umm... Well... Will thith do...?
- **4341**: I didn't want you to give thith pretty ball away to anyone, tho, tho...
- **4342**: Tho when I heard Kohlo-Lakolo wath going to give it away to thomebody, I dethided to thecretly hide it!
- **4344**: Thith mythtery ith altho tholved!
- **4347**: That pretty ball ithn't jutht your ordinary ball!
- **4348**: I can't explain why it ith different, it jutht ith!
- **4383**: Pichichi hath a thtrange feeling...
- **4384**: ...like we're being called to from thomewhere.
- **4397**: Why does everyone have to call Mithter Ghothtie "Joker" for?
- **4398**: I liked the name Mithter Ghothtie better!
- **12435**: They thay that Honoi-Gomoi ith a bad man 'cos hith grandfather'th, grandfather'th, grandfather wath a bad man too.
- **12436**: It'th very confuthing, but it'th the truth. My mom told me tho.
- **12450**: ...It'th wrong. It'th wrong to tell lieth and trick people.
- **12452**: The Thtar Onion Brigade isn't about lying or tricking people! It was formed to fight people like that.
- **12470**: They thay that Honoi-Gomoi ith a bad perthon 'cos hith grandmother'th, grandmother'th, grandmother wath a bad perthon too.
- **12471**: Huh? Grandmother? It wath hith grandmother right?
- **12489**: ...... ...If we had $6...
- **12491**: That time before, when we were uthing gadgetth from the Junior Investigator'th Toolkit, my mom made me $6.
- **12492**: I gave it to a Cardian who wanted to leave Windurtht. The Cardian became invithible, and was able to get outthide.
- **12493**: Mom thaid it was really, really hard to get all the materialth you need to make one, tho she wathn't going to make me any more.
- **12504**: I wonder where that Cardian that I helped went to?
- **12505**: He thaid he wath going on patrol, tho I gueth he'th traveling all over the plathe. Thoundth like fun.
- **12511**: Heh-heh, my mom can do ANYthing!
- **12519**: We're not afraid of you!
- **12541**: The ghostie is gone.
- **12542**: He thaid he would come back, tho I gueth he'll come back. ...I wonder if he'll come back tomorrow?
- **12557**: I'm not thad at all. He thaid he wath coming back. Right?
- **12567**: My mom made me $6 when we were collecting all the gadgetth for the Junior Invethtigator'th Toolkit.
- **12568**: But I ended up giving it to a cardi-wardian who wanted to get out of Windurtht. The Cardian uthed it to go invithible and thneak out.
- **12707**: I think Mithter Ghothtie hath become a grown-up now.
- **12708**: That'th why he wath tho big!
- **12709**: He'th tho big now that we can't even thee him anymore. But we know he'th there. He glowth tho brightly.

## Events

### Event 65535

#### Metadata

| Field        | Value   |
|--------------|---------|
| Entrypoint   | 0x0000  |
| Data Size    | 1 bytes |
| Instructions | 1       |

```
      00 01 02 03 04 05 06 07  08 09 0A 0B 0C 0D 0E 0F
      -- -- -- -- -- -- -- --  -- -- -- -- -- -- -- --
0000: 00                                                .               
```

#### Opcodes

```
  0: 0x0000 [0x00] END_REQSTACK()
```

### Event 65535.1

#### Metadata

| Field        | Value    |
|--------------|----------|
| Entrypoint   | 0x0001   |
| Data Size    | 16 bytes |
| Instructions | 2        |

```
      00 01 02 03 04 05 06 07  08 09 0A 0B 0C 0D 0E 0F
      -- -- -- -- -- -- -- --  -- -- -- -- -- -- -- --
0000:    5B 00 80 F8 FF FF 7F  F8 FF FF 7F 74 6C 6B 30   [..........tlk0
0010: 00                                                .               
```

#### Opcodes

```
  0: 0x0001 [0x5B] LOAD_EXT_SCHEDULER: Load scheduler "tlk0" with entities [EventEntity, EventEntity], work=85*
  1: 0x0010 [0x00] END_REQSTACK()
```

### Event 65535.2

#### Metadata

| Field        | Value    |
|--------------|----------|
| Entrypoint   | 0x0011   |
| Data Size    | 22 bytes |
| Instructions | 4        |

```
      00 01 02 03 04 05 06 07  08 09 0A 0B 0C 0D 0E 0F
      -- -- -- -- -- -- -- --  -- -- -- -- -- -- -- --
0010:    53 F8 FF FF 7F F8 FF  FF 7F 74 6C 6B 30 5E 69   S........tlk0^i
0020: 64 6C 30 1C 01 80 00                              dl0....         
```

#### Opcodes

```
  0: 0x0011 [0x53] WAIT_SCHEDULER_TASK: Wait for scheduler "tlk0" with entities [EventEntity, EventEntity]
  1: 0x001E [0x5E] EventEntity goes idle (kills current action) (animation: "idl0")
  2: 0x0023 [0x1C] WAIT(30* ticks)
  3: 0x0026 [0x00] END_REQSTACK()
```

### Event 65535.3

#### Metadata

| Field        | Value    |
|--------------|----------|
| Entrypoint   | 0x0027   |
| Data Size    | 16 bytes |
| Instructions | 2        |

```
      00 01 02 03 04 05 06 07  08 09 0A 0B 0C 0D 0E 0F
      -- -- -- -- -- -- -- --  -- -- -- -- -- -- -- --
0020:                      5B  00 80 F8 FF FF 7F F8 FF         [........
0030: FF 7F 74 68 6B 31 00                              ..thk1.         
```

#### Opcodes

```
  0: 0x0027 [0x5B] LOAD_EXT_SCHEDULER: Load scheduler "thk1" with entities [EventEntity, EventEntity], work=85*
  1: 0x0036 [0x00] END_REQSTACK()
```

### Event 65535.4

#### Metadata

| Field        | Value    |
|--------------|----------|
| Entrypoint   | 0x0037   |
| Data Size    | 14 bytes |
| Instructions | 2        |

```
      00 01 02 03 04 05 06 07  08 09 0A 0B 0C 0D 0E 0F
      -- -- -- -- -- -- -- --  -- -- -- -- -- -- -- --
0030:                      53  F8 FF FF 7F F8 FF FF 7F         S........
0040: 74 68 6B 31 00                                    thk1.           
```

#### Opcodes

```
  0: 0x0037 [0x53] WAIT_SCHEDULER_TASK: Wait for scheduler "thk1" with entities [EventEntity, EventEntity]
  1: 0x0044 [0x00] END_REQSTACK()
```

### Event 65535.5

#### Metadata

| Field        | Value    |
|--------------|----------|
| Entrypoint   | 0x0045   |
| Data Size    | 16 bytes |
| Instructions | 2        |

```
      00 01 02 03 04 05 06 07  08 09 0A 0B 0C 0D 0E 0F
      -- -- -- -- -- -- -- --  -- -- -- -- -- -- -- --
0040:                5B 00 80  F8 FF FF 7F F8 FF FF 7F       [..........
0050: 74 68 6B 32 00                                    thk2.           
```

#### Opcodes

```
  0: 0x0045 [0x5B] LOAD_EXT_SCHEDULER: Load scheduler "thk2" with entities [EventEntity, EventEntity], work=85*
  1: 0x0054 [0x00] END_REQSTACK()
```

### Event 65535.6

#### Metadata

| Field        | Value    |
|--------------|----------|
| Entrypoint   | 0x0055   |
| Data Size    | 14 bytes |
| Instructions | 2        |

```
      00 01 02 03 04 05 06 07  08 09 0A 0B 0C 0D 0E 0F
      -- -- -- -- -- -- -- --  -- -- -- -- -- -- -- --
0050:                53 F8 FF  FF 7F F8 FF FF 7F 74 68       S........th
0060: 6B 32 00                                          k2.             
```

#### Opcodes

```
  0: 0x0055 [0x53] WAIT_SCHEDULER_TASK: Wait for scheduler "thk2" with entities [EventEntity, EventEntity]
  1: 0x0062 [0x00] END_REQSTACK()
```

### Event 65535.7

#### Metadata

| Field        | Value    |
|--------------|----------|
| Entrypoint   | 0x0063   |
| Data Size    | 16 bytes |
| Instructions | 2        |

```
      00 01 02 03 04 05 06 07  08 09 0A 0B 0C 0D 0E 0F
      -- -- -- -- -- -- -- --  -- -- -- -- -- -- -- --
0060:          5B 00 80 F8 FF  FF 7F F8 FF FF 7F 6E 61     [..........na
0070: 69 30 00                                          i0.             
```

#### Opcodes

```
  0: 0x0063 [0x5B] LOAD_EXT_SCHEDULER: Load scheduler "nai0" with entities [EventEntity, EventEntity], work=85*
  1: 0x0072 [0x00] END_REQSTACK()
```

### Event 65535.8

#### Metadata

| Field        | Value    |
|--------------|----------|
| Entrypoint   | 0x0073   |
| Data Size    | 22 bytes |
| Instructions | 4        |

```
      00 01 02 03 04 05 06 07  08 09 0A 0B 0C 0D 0E 0F
      -- -- -- -- -- -- -- --  -- -- -- -- -- -- -- --
0070:          53 F8 FF FF 7F  F8 FF FF 7F 6E 61 69 30     S........nai0
0080: 5E 69 64 6C 30 1C 01 80  00                       ^idl0....       
```

#### Opcodes

```
  0: 0x0073 [0x53] WAIT_SCHEDULER_TASK: Wait for scheduler "nai0" with entities [EventEntity, EventEntity]
  1: 0x0080 [0x5E] EventEntity goes idle (kills current action) (animation: "idl0")
  2: 0x0085 [0x1C] WAIT(30* ticks)
  3: 0x0088 [0x00] END_REQSTACK()
```

### Event 65535.9

#### Metadata

| Field        | Value    |
|--------------|----------|
| Entrypoint   | 0x0089   |
| Data Size    | 22 bytes |
| Instructions | 3        |

```
      00 01 02 03 04 05 06 07  08 09 0A 0B 0C 0D 0E 0F
      -- -- -- -- -- -- -- --  -- -- -- -- -- -- -- --
0080:                             7C 00 F8 FF FF 7F 5B           |.....[
0090: 00 80 F8 FF FF 7F F8 FF  FF 7F 74 6C 6B 32 00     ..........tlk2. 
```

#### Opcodes

```
  0: 0x0089 [0x7C] EventEntity->Render.Flags2 |= 0x00
  1: 0x008F [0x5B] LOAD_EXT_SCHEDULER: Load scheduler "tlk2" with entities [EventEntity, EventEntity], work=85*
  2: 0x009E [0x00] END_REQSTACK()
```

### Event 65535.10

#### Metadata

| Field        | Value    |
|--------------|----------|
| Entrypoint   | 0x009F   |
| Data Size    | 20 bytes |
| Instructions | 3        |

```
      00 01 02 03 04 05 06 07  08 09 0A 0B 0C 0D 0E 0F
      -- -- -- -- -- -- -- --  -- -- -- -- -- -- -- --
0090:                                               53                 S
00A0: F8 FF FF 7F F8 FF FF 7F  74 6C 6B 32 7C 01 F8 FF  ........tlk2|...
00B0: FF 7F 00                                          ...             
```

#### Opcodes

```
  0: 0x009F [0x53] WAIT_SCHEDULER_TASK: Wait for scheduler "tlk2" with entities [EventEntity, EventEntity]
  1: 0x00AC [0x7C] EventEntity->Render.Flags2 |= 0x01
  2: 0x00B2 [0x00] END_REQSTACK()
```

### Event 65535.11

#### Metadata

| Field        | Value    |
|--------------|----------|
| Entrypoint   | 0x00B3   |
| Data Size    | 22 bytes |
| Instructions | 3        |

```
      00 01 02 03 04 05 06 07  08 09 0A 0B 0C 0D 0E 0F
      -- -- -- -- -- -- -- --  -- -- -- -- -- -- -- --
00B0:          7C 00 F8 FF FF  7F 5B 00 80 F8 FF FF 7F     |.....[......
00C0: F8 FF FF 7F 73 75 72 31  00                       ....sur1.       
```

#### Opcodes

```
  0: 0x00B3 [0x7C] EventEntity->Render.Flags2 |= 0x00
  1: 0x00B9 [0x5B] LOAD_EXT_SCHEDULER: Load scheduler "sur1" with entities [EventEntity, EventEntity], work=85*
  2: 0x00C8 [0x00] END_REQSTACK()
```

### Event 65535.12

#### Metadata

| Field        | Value    |
|--------------|----------|
| Entrypoint   | 0x00C9   |
| Data Size    | 20 bytes |
| Instructions | 3        |

```
      00 01 02 03 04 05 06 07  08 09 0A 0B 0C 0D 0E 0F
      -- -- -- -- -- -- -- --  -- -- -- -- -- -- -- --
00C0:                             53 F8 FF FF 7F F8 FF           S......
00D0: FF 7F 73 75 72 31 7C 01  F8 FF FF 7F 00           ..sur1|......   
```

#### Opcodes

```
  0: 0x00C9 [0x53] WAIT_SCHEDULER_TASK: Wait for scheduler "sur1" with entities [EventEntity, EventEntity]
  1: 0x00D6 [0x7C] EventEntity->Render.Flags2 |= 0x01
  2: 0x00DC [0x00] END_REQSTACK()
```

### Event 65535.13

#### Metadata

| Field        | Value    |
|--------------|----------|
| Entrypoint   | 0x00DD   |
| Data Size    | 22 bytes |
| Instructions | 3        |

```
      00 01 02 03 04 05 06 07  08 09 0A 0B 0C 0D 0E 0F
      -- -- -- -- -- -- -- --  -- -- -- -- -- -- -- --
00D0:                                         7C 00 F8               |..
00E0: FF FF 7F 5B 00 80 F8 FF  FF 7F F8 FF FF 7F 62 61  ...[..........ba
00F0: 6E 30 00                                          n0.             
```

#### Opcodes

```
  0: 0x00DD [0x7C] EventEntity->Render.Flags2 |= 0x00
  1: 0x00E3 [0x5B] LOAD_EXT_SCHEDULER: Load scheduler "ban0" with entities [EventEntity, EventEntity], work=85*
  2: 0x00F2 [0x00] END_REQSTACK()
```

### Event 65535.14

#### Metadata

| Field        | Value    |
|--------------|----------|
| Entrypoint   | 0x00F3   |
| Data Size    | 20 bytes |
| Instructions | 3        |

```
      00 01 02 03 04 05 06 07  08 09 0A 0B 0C 0D 0E 0F
      -- -- -- -- -- -- -- --  -- -- -- -- -- -- -- --
00F0:          53 F8 FF FF 7F  F8 FF FF 7F 62 61 6E 30     S........ban0
0100: 7C 01 F8 FF FF 7F 00                              |......         
```

#### Opcodes

```
  0: 0x00F3 [0x53] WAIT_SCHEDULER_TASK: Wait for scheduler "ban0" with entities [EventEntity, EventEntity]
  1: 0x0100 [0x7C] EventEntity->Render.Flags2 |= 0x01
  2: 0x0106 [0x00] END_REQSTACK()
```

### Event 65535.15

#### Metadata

| Field        | Value    |
|--------------|----------|
| Entrypoint   | 0x0107   |
| Data Size    | 16 bytes |
| Instructions | 2        |

```
      00 01 02 03 04 05 06 07  08 09 0A 0B 0C 0D 0E 0F
      -- -- -- -- -- -- -- --  -- -- -- -- -- -- -- --
0100:                      5B  00 80 F8 FF FF 7F F8 FF         [........
0110: FF 7F 6A 6D 70 30 00                              ..jmp0.         
```

#### Opcodes

```
  0: 0x0107 [0x5B] LOAD_EXT_SCHEDULER: Load scheduler "jmp0" with entities [EventEntity, EventEntity], work=85*
  1: 0x0116 [0x00] END_REQSTACK()
```

### Event 65535.16

#### Metadata

| Field        | Value    |
|--------------|----------|
| Entrypoint   | 0x0117   |
| Data Size    | 14 bytes |
| Instructions | 2        |

```
      00 01 02 03 04 05 06 07  08 09 0A 0B 0C 0D 0E 0F
      -- -- -- -- -- -- -- --  -- -- -- -- -- -- -- --
0110:                      53  F8 FF FF 7F F8 FF FF 7F         S........
0120: 62 61 6E 30 00                                    ban0.           
```

#### Opcodes

```
  0: 0x0117 [0x53] WAIT_SCHEDULER_TASK: Wait for scheduler "ban0" with entities [EventEntity, EventEntity]
  1: 0x0124 [0x00] END_REQSTACK()
```

### Event 65535.17

#### Metadata

| Field        | Value    |
|--------------|----------|
| Entrypoint   | 0x0125   |
| Data Size    | 16 bytes |
| Instructions | 2        |

```
      00 01 02 03 04 05 06 07  08 09 0A 0B 0C 0D 0E 0F
      -- -- -- -- -- -- -- --  -- -- -- -- -- -- -- --
0120:                5B 02 80  F8 FF FF 7F F8 FF FF 7F       [..........
0130: 6F 72 62 30 00                                    orb0.           
```

#### Opcodes

```
  0: 0x0125 [0x5B] LOAD_EXT_SCHEDULER: Load scheduler "orb0" with entities [EventEntity, EventEntity], work=86*
  1: 0x0134 [0x00] END_REQSTACK()
```

### Event 65535.18

#### Metadata

| Field        | Value    |
|--------------|----------|
| Entrypoint   | 0x0135   |
| Data Size    | 14 bytes |
| Instructions | 2        |

```
      00 01 02 03 04 05 06 07  08 09 0A 0B 0C 0D 0E 0F
      -- -- -- -- -- -- -- --  -- -- -- -- -- -- -- --
0130:                53 F8 FF  FF 7F F8 FF FF 7F 6F 72       S........or
0140: 62 30 00                                          b0.             
```

#### Opcodes

```
  0: 0x0135 [0x53] WAIT_SCHEDULER_TASK: Wait for scheduler "orb0" with entities [EventEntity, EventEntity]
  1: 0x0142 [0x00] END_REQSTACK()
```

### Event 65535.19

#### Metadata

| Field        | Value    |
|--------------|----------|
| Entrypoint   | 0x0143   |
| Data Size    | 16 bytes |
| Instructions | 2        |

```
      00 01 02 03 04 05 06 07  08 09 0A 0B 0C 0D 0E 0F
      -- -- -- -- -- -- -- --  -- -- -- -- -- -- -- --
0140:          5B 00 80 F8 FF  FF 7F F8 FF FF 7F 70 61     [..........pa
0150: 73 30 00                                          s0.             
```

#### Opcodes

```
  0: 0x0143 [0x5B] LOAD_EXT_SCHEDULER: Load scheduler "pas0" with entities [EventEntity, EventEntity], work=85*
  1: 0x0152 [0x00] END_REQSTACK()
```

### Event 65535.20

#### Metadata

| Field        | Value    |
|--------------|----------|
| Entrypoint   | 0x0153   |
| Data Size    | 14 bytes |
| Instructions | 2        |

```
      00 01 02 03 04 05 06 07  08 09 0A 0B 0C 0D 0E 0F
      -- -- -- -- -- -- -- --  -- -- -- -- -- -- -- --
0150:          53 F8 FF FF 7F  F8 FF FF 7F 70 61 73 30     S........pas0
0160: 00                                                .               
```

#### Opcodes

```
  0: 0x0153 [0x53] WAIT_SCHEDULER_TASK: Wait for scheduler "pas0" with entities [EventEntity, EventEntity]
  1: 0x0160 [0x00] END_REQSTACK()
```

### Event 65535.21

#### Metadata

| Field        | Value   |
|--------------|---------|
| Entrypoint   | 0x0161  |
| Data Size    | 9 bytes |
| Instructions | 3       |

```
      00 01 02 03 04 05 06 07  08 09 0A 0B 0C 0D 0E 0F
      -- -- -- -- -- -- -- --  -- -- -- -- -- -- -- --
0160:    5E 69 64 6C 30 1C 01  80 00                     ^idl0....      
```

#### Opcodes

```
  0: 0x0161 [0x5E] EventEntity goes idle (kills current action) (animation: "idl0")
  1: 0x0166 [0x1C] WAIT(30* ticks)
  2: 0x0169 [0x00] END_REQSTACK()
```

### Event 364

#### Metadata

| Field        | Value    |
|--------------|----------|
| Entrypoint   | 0x016A   |
| Data Size    | 29 bytes |
| Instructions | 10       |

```
      00 01 02 03 04 05 06 07  08 09 0A 0B 0C 0D 0E 0F
      -- -- -- -- -- -- -- --  -- -- -- -- -- -- -- --
0160:                                1E F0 FF FF 7F 6F            .....o
0170: 70 29 08 55 00 0F 01 09  1D 03 80 23 29 08 55 00  p).U.......#).U.
0180: 0F 01 0A 20 00 21 00                              ... .!.         
```

#### Opcodes

```
  0: 0x016A [0x1E] EventEntity looks at LocalPlayer and starts talking
  1: 0x016F [0x6F] WAIT_FRAME_DELAY: Yield until WaitTime reaches zero
  2: 0x0170 [0x70] WAIT_ENTITY_RENDER_FLAG: Wait while EventEntity->Render.Flags3 bit 2 is set (cancel turn if not)
  3: 0x0171 [0x29] REQ_SET_WAIT(priority=0x08, entity_id=Pichichi (ID: 17760341/0x010F0055), tag_num=0x09)
  4: 0x0178 [0x1D] PRINT_EVENT_MESSAGE(message_id=4163*)
    → "The firtht rule!"
  5: 0x017B [0x23] WAIT_FOR_DIALOG_INTERACTION
  6: 0x017C [0x29] REQ_SET_WAIT(priority=0x08, entity_id=Pichichi (ID: 17760341/0x010F0055), tag_num=0x0A)
  7: 0x0183 [0x20] SET_CLI_EVENT_UC_FLAG: Unlock player control
  8: 0x0185 [0x21] END_EVENT
  9: 0x0186 [0x00] END_REQSTACK()
```

### Event 368

#### Metadata

| Field        | Value   |
|--------------|---------|
| Entrypoint   | 0x0187  |
| Data Size    | 1 bytes |
| Instructions | 1       |

```
      00 01 02 03 04 05 06 07  08 09 0A 0B 0C 0D 0E 0F
      -- -- -- -- -- -- -- --  -- -- -- -- -- -- -- --
0180:                      00                                  .        
```

#### Opcodes

```
  0: 0x0187 [0x00] END_REQSTACK()
```

### Event 65535.22

#### Metadata

| Field        | Value    |
|--------------|----------|
| Entrypoint   | 0x0188   |
| Data Size    | 10 bytes |
| Instructions | 2        |

```
      00 01 02 03 04 05 06 07  08 09 0A 0B 0C 0D 0E 0F
      -- -- -- -- -- -- -- --  -- -- -- -- -- -- -- --
0180:                          37 04 80 05 80 06 80 07          7.......
0190: 80 00                                             ..              
```

#### Opcodes

```
  0: 0x0188 [0x37] UPDATE_EVENT_POSITION_AND_DIR: x=-24.200*, z=194.434*, y=-5.999*, direction=102.9°*
  1: 0x0191 [0x00] END_REQSTACK()
```

### Event 65535.23

#### Metadata

| Field        | Value    |
|--------------|----------|
| Entrypoint   | 0x0192   |
| Data Size    | 15 bytes |
| Instructions | 5        |

```
      00 01 02 03 04 05 06 07  08 09 0A 0B 0C 0D 0E 0F
      -- -- -- -- -- -- -- --  -- -- -- -- -- -- -- --
0190:       32 08 80 1F 00 09  80 0A 80 06 80 1F 01 6F    2............o
01A0: 00                                                .               
```

#### Opcodes

```
  0: 0x0192 [0x32] ExtData[1]->MainSpeed = 21* * 0.1
  1: 0x0195 [0x1F] MOVE_ENTITY: EventEntity moves to X=-25.297*, Z=191.513*, Y=-5.999*
  2: 0x019D [0x1F] MOVE_ENTITY: Update entity position (mode=1)
  3: 0x019F [0x6F] WAIT_FRAME_DELAY: Yield until WaitTime reaches zero
  4: 0x01A0 [0x00] END_REQSTACK()
```

### Event 65535.24

#### Metadata

| Field        | Value    |
|--------------|----------|
| Entrypoint   | 0x01A1   |
| Data Size    | 19 bytes |
| Instructions | 5        |

```
      00 01 02 03 04 05 06 07  08 09 0A 0B 0C 0D 0E 0F
      -- -- -- -- -- -- -- --  -- -- -- -- -- -- -- --
01A0:    29 08 55 00 0F 01 09  1D 0B 80 23 29 08 55 00   ).U.......#).U.
01B0: 0F 01 0A 00                                       ....            
```

#### Opcodes

```
  0: 0x01A1 [0x29] REQ_SET_WAIT(priority=0x08, entity_id=Pichichi (ID: 17760341/0x010F0055), tag_num=0x09)
  1: 0x01A8 [0x1D] PRINT_EVENT_MESSAGE(message_id=4176*)
    → "Are invinthible!"
  2: 0x01AB [0x23] WAIT_FOR_DIALOG_INTERACTION
  3: 0x01AC [0x29] REQ_SET_WAIT(priority=0x08, entity_id=Pichichi (ID: 17760341/0x010F0055), tag_num=0x0A)
  4: 0x01B3 [0x00] END_REQSTACK()
```

### Event 65535.25

#### Metadata

| Field        | Value    |
|--------------|----------|
| Entrypoint   | 0x01B4   |
| Data Size    | 23 bytes |
| Instructions | 7        |

```
      00 01 02 03 04 05 06 07  08 09 0A 0B 0C 0D 0E 0F
      -- -- -- -- -- -- -- --  -- -- -- -- -- -- -- --
01B0:             29 08 55 00  0F 01 01 1D 0C 80 23 1D      ).U.......#.
01C0: 0D 80 23 29 08 55 00 0F  01 02 00                 ..#).U.....     
```

#### Opcodes

```
  0: 0x01B4 [0x29] REQ_SET_WAIT(priority=0x08, entity_id=Pichichi (ID: 17760341/0x010F0055), tag_num=0x01)
  1: 0x01BB [0x1D] PRINT_EVENT_MESSAGE(message_id=4193*)
    → "Don't athk me! I haven't got a clue!"
  2: 0x01BE [0x23] WAIT_FOR_DIALOG_INTERACTION
  3: 0x01BF [0x1D] PRINT_EVENT_MESSAGE(message_id=4194*)
    → "But my mommy thaid she wanted a tail!"
  4: 0x01C2 [0x23] WAIT_FOR_DIALOG_INTERACTION
  5: 0x01C3 [0x29] REQ_SET_WAIT(priority=0x08, entity_id=Pichichi (ID: 17760341/0x010F0055), tag_num=0x02)
  6: 0x01CA [0x00] END_REQSTACK()
```

### Event 374

#### Metadata

| Field        | Value    |
|--------------|----------|
| Entrypoint   | 0x01CB   |
| Data Size    | 33 bytes |
| Instructions | 12       |

```
      00 01 02 03 04 05 06 07  08 09 0A 0B 0C 0D 0E 0F
      -- -- -- -- -- -- -- --  -- -- -- -- -- -- -- --
01C0:                                   1E F0 FF FF 7F             .....
01D0: 6F 70 29 08 55 00 0F 01  01 1D 0E 80 23 1D 0F 80  op).U.......#...
01E0: 23 29 08 55 00 0F 01 02  20 00 21 00              #).U.... .!.    
```

#### Opcodes

```
  0: 0x01CB [0x1E] EventEntity looks at LocalPlayer and starts talking
  1: 0x01D0 [0x6F] WAIT_FRAME_DELAY: Yield until WaitTime reaches zero
  2: 0x01D1 [0x70] WAIT_ENTITY_RENDER_FLAG: Wait while EventEntity->Render.Flags3 bit 2 is set (cancel turn if not)
  3: 0x01D2 [0x29] REQ_SET_WAIT(priority=0x08, entity_id=Pichichi (ID: 17760341/0x010F0055), tag_num=0x01)
  4: 0x01D9 [0x1D] PRINT_EVENT_MESSAGE(message_id=4205*)
    → "Don't athk me! I haven't got a clue!"
  5: 0x01DC [0x23] WAIT_FOR_DIALOG_INTERACTION
  6: 0x01DD [0x1D] PRINT_EVENT_MESSAGE(message_id=4206*)
    → "Jutht that my mommy thaid she wanted a tail! That'th all!"
  7: 0x01E0 [0x23] WAIT_FOR_DIALOG_INTERACTION
  8: 0x01E1 [0x29] REQ_SET_WAIT(priority=0x08, entity_id=Pichichi (ID: 17760341/0x010F0055), tag_num=0x02)
  9: 0x01E8 [0x20] SET_CLI_EVENT_UC_FLAG: Unlock player control
 10: 0x01EA [0x21] END_EVENT
 11: 0x01EB [0x00] END_REQSTACK()
```

### Event 65535.26

#### Metadata

| Field        | Value    |
|--------------|----------|
| Entrypoint   | 0x01EC   |
| Data Size    | 19 bytes |
| Instructions | 5        |

```
      00 01 02 03 04 05 06 07  08 09 0A 0B 0C 0D 0E 0F
      -- -- -- -- -- -- -- --  -- -- -- -- -- -- -- --
01E0:                                      29 08 55 00              ).U.
01F0: 0F 01 0B 1D 10 80 23 29  08 55 00 0F 01 0C 00     ......#).U..... 
```

#### Opcodes

```
  0: 0x01EC [0x29] REQ_SET_WAIT(priority=0x08, entity_id=Pichichi (ID: 17760341/0x010F0055), tag_num=0x0B)
  1: 0x01F3 [0x1D] PRINT_EVENT_MESSAGE(message_id=4215*)
    → "Oh, look! It'th a tail like mommy wanted!"
  2: 0x01F6 [0x23] WAIT_FOR_DIALOG_INTERACTION
  3: 0x01F7 [0x29] REQ_SET_WAIT(priority=0x08, entity_id=Pichichi (ID: 17760341/0x010F0055), tag_num=0x0C)
  4: 0x01FE [0x00] END_REQSTACK()
```

### Event 65535.27

#### Metadata

| Field        | Value    |
|--------------|----------|
| Entrypoint   | 0x01FF   |
| Data Size    | 37 bytes |
| Instructions | 9        |

```
      00 01 02 03 04 05 06 07  08 09 0A 0B 0C 0D 0E 0F
      -- -- -- -- -- -- -- --  -- -- -- -- -- -- -- --
01F0:                                               29                 )
0200: 08 55 00 0F 01 0D 1D 11  80 23 29 08 55 00 0F 01  .U.......#).U...
0210: 0E 29 08 55 00 0F 01 0F  1D 12 80 23 29 08 55 00  .).U.......#).U.
0220: 0F 01 10 00                                       ....            
```

#### Opcodes

```
  0: 0x01FF [0x29] REQ_SET_WAIT(priority=0x08, entity_id=Pichichi (ID: 17760341/0x010F0055), tag_num=0x0D)
  1: 0x0206 [0x1D] PRINT_EVENT_MESSAGE(message_id=4218*)
    → "Yeth, of courthe! Mommy's hotel ith called "The Rarab Tail Hothtelry"!"
  2: 0x0209 [0x23] WAIT_FOR_DIALOG_INTERACTION
  3: 0x020A [0x29] REQ_SET_WAIT(priority=0x08, entity_id=Pichichi (ID: 17760341/0x010F0055), tag_num=0x0E)
  4: 0x0211 [0x29] REQ_SET_WAIT(priority=0x08, entity_id=Pichichi (ID: 17760341/0x010F0055), tag_num=0x0F)
  5: 0x0218 [0x1D] PRINT_EVENT_MESSAGE(message_id=4219*)
    → "You thee? Mommy always wants lots of $1! She uthes them to make pickles for the cuthtomers."
  6: 0x021B [0x23] WAIT_FOR_DIALOG_INTERACTION
  7: 0x021C [0x29] REQ_SET_WAIT(priority=0x08, entity_id=Pichichi (ID: 17760341/0x010F0055), tag_num=0x10)
  8: 0x0223 [0x00] END_REQSTACK()
```

### Event 385

#### Metadata

| Field        | Value    |
|--------------|----------|
| Entrypoint   | 0x0224   |
| Data Size    | 33 bytes |
| Instructions | 12       |

```
      00 01 02 03 04 05 06 07  08 09 0A 0B 0C 0D 0E 0F
      -- -- -- -- -- -- -- --  -- -- -- -- -- -- -- --
0220:             1E F0 FF FF  7F 6F 70 29 08 55 00 0F      .....op).U..
0230: 01 01 1D 13 80 23 1D 14  80 23 29 08 55 00 0F 01  .....#...#).U...
0240: 02 20 00 21 00                                    . .!.           
```

#### Opcodes

```
  0: 0x0224 [0x1E] EventEntity looks at LocalPlayer and starts talking
  1: 0x0229 [0x6F] WAIT_FRAME_DELAY: Yield until WaitTime reaches zero
  2: 0x022A [0x70] WAIT_ENTITY_RENDER_FLAG: Wait while EventEntity->Render.Flags3 bit 2 is set (cancel turn if not)
  3: 0x022B [0x29] REQ_SET_WAIT(priority=0x08, entity_id=Pichichi (ID: 17760341/0x010F0055), tag_num=0x01)
  4: 0x0232 [0x1D] PRINT_EVENT_MESSAGE(message_id=4233*)
    → "Wee! Thank you for the lovely tail! Mommy told me I thould collect a whole bathketful of these..."
  5: 0x0235 [0x23] WAIT_FOR_DIALOG_INTERACTION
  6: 0x0236 [0x1D] PRINT_EVENT_MESSAGE(message_id=4234*)
    → "Oh, and my name ith Pichichi. I hope we can be good friendth.t"
  7: 0x0239 [0x23] WAIT_FOR_DIALOG_INTERACTION
  8: 0x023A [0x29] REQ_SET_WAIT(priority=0x08, entity_id=Pichichi (ID: 17760341/0x010F0055), tag_num=0x02)
  9: 0x0241 [0x20] SET_CLI_EVENT_UC_FLAG: Unlock player control
 10: 0x0243 [0x21] END_EVENT
 11: 0x0244 [0x00] END_REQSTACK()
```

### Event 378

#### Metadata

| Field        | Value   |
|--------------|---------|
| Entrypoint   | 0x0245  |
| Data Size    | 1 bytes |
| Instructions | 1       |

```
      00 01 02 03 04 05 06 07  08 09 0A 0B 0C 0D 0E 0F
      -- -- -- -- -- -- -- --  -- -- -- -- -- -- -- --
0240:                00                                      .          
```

#### Opcodes

```
  0: 0x0245 [0x00] END_REQSTACK()
```

### Event 391

#### Metadata

| Field        | Value   |
|--------------|---------|
| Entrypoint   | 0x0246  |
| Data Size    | 1 bytes |
| Instructions | 1       |

```
      00 01 02 03 04 05 06 07  08 09 0A 0B 0C 0D 0E 0F
      -- -- -- -- -- -- -- --  -- -- -- -- -- -- -- --
0240:                   00                                    .         
```

#### Opcodes

```
  0: 0x0246 [0x00] END_REQSTACK()
```

### Event 386

#### Metadata

| Field        | Value   |
|--------------|---------|
| Entrypoint   | 0x0247  |
| Data Size    | 1 bytes |
| Instructions | 1       |

```
      00 01 02 03 04 05 06 07  08 09 0A 0B 0C 0D 0E 0F
      -- -- -- -- -- -- -- --  -- -- -- -- -- -- -- --
0240:                      00                                  .        
```

#### Opcodes

```
  0: 0x0247 [0x00] END_REQSTACK()
```

### Event 390

#### Metadata

| Field        | Value   |
|--------------|---------|
| Entrypoint   | 0x0248  |
| Data Size    | 1 bytes |
| Instructions | 1       |

```
      00 01 02 03 04 05 06 07  08 09 0A 0B 0C 0D 0E 0F
      -- -- -- -- -- -- -- --  -- -- -- -- -- -- -- --
0240:                          00                               .       
```

#### Opcodes

```
  0: 0x0248 [0x00] END_REQSTACK()
```

### Event 65535.28

#### Metadata

| Field        | Value    |
|--------------|----------|
| Entrypoint   | 0x0249   |
| Data Size    | 19 bytes |
| Instructions | 5        |

```
      00 01 02 03 04 05 06 07  08 09 0A 0B 0C 0D 0E 0F
      -- -- -- -- -- -- -- --  -- -- -- -- -- -- -- --
0240:                             29 08 55 00 0F 01 09           ).U....
0250: 1D 15 80 23 29 08 55 00  0F 01 0A 00              ...#).U.....    
```

#### Opcodes

```
  0: 0x0249 [0x29] REQ_SET_WAIT(priority=0x08, entity_id=Pichichi (ID: 17760341/0x010F0055), tag_num=0x09)
  1: 0x0250 [0x1D] PRINT_EVENT_MESSAGE(message_id=4266*)
    → "Up and at 'em!"
  2: 0x0253 [0x23] WAIT_FOR_DIALOG_INTERACTION
  3: 0x0254 [0x29] REQ_SET_WAIT(priority=0x08, entity_id=Pichichi (ID: 17760341/0x010F0055), tag_num=0x0A)
  4: 0x025B [0x00] END_REQSTACK()
```

### Event 395

#### Metadata

| Field        | Value    |
|--------------|----------|
| Entrypoint   | 0x025C   |
| Data Size    | 33 bytes |
| Instructions | 12       |

```
      00 01 02 03 04 05 06 07  08 09 0A 0B 0C 0D 0E 0F
      -- -- -- -- -- -- -- --  -- -- -- -- -- -- -- --
0250:                                      1E F0 FF FF              ....
0260: 7F 6F 70 29 08 55 00 0F  01 01 1D 16 80 23 1D 17  .op).U.......#..
0270: 80 23 29 08 55 00 0F 01  02 20 00 21 00           .#).U.... .!.   
```

#### Opcodes

```
  0: 0x025C [0x1E] EventEntity looks at LocalPlayer and starts talking
  1: 0x0261 [0x6F] WAIT_FRAME_DELAY: Yield until WaitTime reaches zero
  2: 0x0262 [0x70] WAIT_ENTITY_RENDER_FLAG: Wait while EventEntity->Render.Flags3 bit 2 is set (cancel turn if not)
  3: 0x0263 [0x29] REQ_SET_WAIT(priority=0x08, entity_id=Pichichi (ID: 17760341/0x010F0055), tag_num=0x01)
  4: 0x026A [0x1D] PRINT_EVENT_MESSAGE(message_id=4275*)
    → "I wonder if I athk Mommy nithely, she'll make me a weapon?"
  5: 0x026D [0x23] WAIT_FOR_DIALOG_INTERACTION
  6: 0x026E [0x1D] PRINT_EVENT_MESSAGE(message_id=4276*)
    → "The ultimate killing machine would be cool, but a pretty staff of tranthformation would altho be thweet..."
  7: 0x0271 [0x23] WAIT_FOR_DIALOG_INTERACTION
  8: 0x0272 [0x29] REQ_SET_WAIT(priority=0x08, entity_id=Pichichi (ID: 17760341/0x010F0055), tag_num=0x02)
  9: 0x0279 [0x20] SET_CLI_EVENT_UC_FLAG: Unlock player control
 10: 0x027B [0x21] END_EVENT
 11: 0x027C [0x00] END_REQSTACK()
```

### Event 65535.29

#### Metadata

| Field        | Value    |
|--------------|----------|
| Entrypoint   | 0x027D   |
| Data Size    | 19 bytes |
| Instructions | 5        |

```
      00 01 02 03 04 05 06 07  08 09 0A 0B 0C 0D 0E 0F
      -- -- -- -- -- -- -- --  -- -- -- -- -- -- -- --
0270:                                         29 08 55               ).U
0280: 00 0F 01 11 1D 18 80 23  29 08 55 00 0F 01 12 00  .......#).U.....
```

#### Opcodes

```
  0: 0x027D [0x29] REQ_SET_WAIT(priority=0x08, entity_id=Pichichi (ID: 17760341/0x010F0055), tag_num=0x11)
  1: 0x0284 [0x1D] PRINT_EVENT_MESSAGE(message_id=4287*)
    → "But, I wath thuprithed to find thith..."
  2: 0x0287 [0x23] WAIT_FOR_DIALOG_INTERACTION
  3: 0x0288 [0x29] REQ_SET_WAIT(priority=0x08, entity_id=Pichichi (ID: 17760341/0x010F0055), tag_num=0x12)
  4: 0x028F [0x00] END_REQSTACK()
```

### Event 400

#### Metadata

| Field        | Value   |
|--------------|---------|
| Entrypoint   | 0x0290  |
| Data Size    | 1 bytes |
| Instructions | 1       |

```
      00 01 02 03 04 05 06 07  08 09 0A 0B 0C 0D 0E 0F
      -- -- -- -- -- -- -- --  -- -- -- -- -- -- -- --
0290: 00                                                .               
```

#### Opcodes

```
  0: 0x0290 [0x00] END_REQSTACK()
```

### Event 65535.30

#### Metadata

| Field        | Value    |
|--------------|----------|
| Entrypoint   | 0x0291   |
| Data Size    | 15 bytes |
| Instructions | 5        |

```
      00 01 02 03 04 05 06 07  08 09 0A 0B 0C 0D 0E 0F
      -- -- -- -- -- -- -- --  -- -- -- -- -- -- -- --
0290:    32 19 80 1F 00 1A 80  1B 80 06 80 1F 01 6F 00   2............o.
```

#### Opcodes

```
  0: 0x0291 [0x32] ExtData[1]->MainSpeed = 7* * 0.1
  1: 0x0294 [0x1F] MOVE_ENTITY: EventEntity moves to X=-25.927*, Z=191.594*, Y=-5.999*
  2: 0x029C [0x1F] MOVE_ENTITY: Update entity position (mode=1)
  3: 0x029E [0x6F] WAIT_FRAME_DELAY: Yield until WaitTime reaches zero
  4: 0x029F [0x00] END_REQSTACK()
```

### Event 410

#### Metadata

| Field        | Value    |
|--------------|----------|
| Entrypoint   | 0x02A0   |
| Data Size    | 15 bytes |
| Instructions | 8        |

```
      00 01 02 03 04 05 06 07  08 09 0A 0B 0C 0D 0E 0F
      -- -- -- -- -- -- -- --  -- -- -- -- -- -- -- --
02A0: 1E F0 FF FF 7F 6F 70 1D  1C 80 23 20 00 21 00     .....op...# .!. 
```

#### Opcodes

```
  0: 0x02A0 [0x1E] EventEntity looks at LocalPlayer and starts talking
  1: 0x02A5 [0x6F] WAIT_FRAME_DELAY: Yield until WaitTime reaches zero
  2: 0x02A6 [0x70] WAIT_ENTITY_RENDER_FLAG: Wait while EventEntity->Render.Flags3 bit 2 is set (cancel turn if not)
  3: 0x02A7 [0x1D] PRINT_EVENT_MESSAGE(message_id=4308*)
    → "......"
  4: 0x02AA [0x23] WAIT_FOR_DIALOG_INTERACTION
  5: 0x02AB [0x20] SET_CLI_EVENT_UC_FLAG: Unlock player control
  6: 0x02AD [0x21] END_EVENT
  7: 0x02AE [0x00] END_REQSTACK()
```

### Event 411

#### Metadata

| Field        | Value    |
|--------------|----------|
| Entrypoint   | 0x02AF   |
| Data Size    | 29 bytes |
| Instructions | 10       |

```
      00 01 02 03 04 05 06 07  08 09 0A 0B 0C 0D 0E 0F
      -- -- -- -- -- -- -- --  -- -- -- -- -- -- -- --
02A0:                                               1E                 .
02B0: F0 FF FF 7F 6F 70 29 08  55 00 0F 01 07 1D 1D 80  ....op).U.......
02C0: 23 29 08 55 00 0F 01 08  20 00 21 00              #).U.... .!.    
```

#### Opcodes

```
  0: 0x02AF [0x1E] EventEntity looks at LocalPlayer and starts talking
  1: 0x02B4 [0x6F] WAIT_FRAME_DELAY: Yield until WaitTime reaches zero
  2: 0x02B5 [0x70] WAIT_ENTITY_RENDER_FLAG: Wait while EventEntity->Render.Flags3 bit 2 is set (cancel turn if not)
  3: 0x02B6 [0x29] REQ_SET_WAIT(priority=0x08, entity_id=Pichichi (ID: 17760341/0x010F0055), tag_num=0x07)
  4: 0x02BD [0x1D] PRINT_EVENT_MESSAGE(message_id=4309*)
    → "I wonder if mithuth Cat Burglar ith angry? Did Pichichi do thomething bad?"
  5: 0x02C0 [0x23] WAIT_FOR_DIALOG_INTERACTION
  6: 0x02C1 [0x29] REQ_SET_WAIT(priority=0x08, entity_id=Pichichi (ID: 17760341/0x010F0055), tag_num=0x08)
  7: 0x02C8 [0x20] SET_CLI_EVENT_UC_FLAG: Unlock player control
  8: 0x02CA [0x21] END_EVENT
  9: 0x02CB [0x00] END_REQSTACK()
```

### Event 413

#### Metadata

| Field        | Value   |
|--------------|---------|
| Entrypoint   | 0x02CC  |
| Data Size    | 1 bytes |
| Instructions | 1       |

```
      00 01 02 03 04 05 06 07  08 09 0A 0B 0C 0D 0E 0F
      -- -- -- -- -- -- -- --  -- -- -- -- -- -- -- --
02C0:                                      00                       .   
```

#### Opcodes

```
  0: 0x02CC [0x00] END_REQSTACK()
```

### Event 415

#### Metadata

| Field        | Value    |
|--------------|----------|
| Entrypoint   | 0x02CD   |
| Data Size    | 33 bytes |
| Instructions | 12       |

```
      00 01 02 03 04 05 06 07  08 09 0A 0B 0C 0D 0E 0F
      -- -- -- -- -- -- -- --  -- -- -- -- -- -- -- --
02C0:                                         1E F0 FF               ...
02D0: FF 7F 6F 70 29 08 55 00  0F 01 07 1D 1E 80 23 1D  ..op).U.......#.
02E0: 1F 80 23 29 08 55 00 0F  01 08 20 00 21 00        ..#).U.... .!.  
```

#### Opcodes

```
  0: 0x02CD [0x1E] EventEntity looks at LocalPlayer and starts talking
  1: 0x02D2 [0x6F] WAIT_FRAME_DELAY: Yield until WaitTime reaches zero
  2: 0x02D3 [0x70] WAIT_ENTITY_RENDER_FLAG: Wait while EventEntity->Render.Flags3 bit 2 is set (cancel turn if not)
  3: 0x02D4 [0x29] REQ_SET_WAIT(priority=0x08, entity_id=Pichichi (ID: 17760341/0x010F0055), tag_num=0x07)
  4: 0x02DB [0x1D] PRINT_EVENT_MESSAGE(message_id=4326*)
    → "Hey, <Player>. You're looking kind of lotht! Lithten! I'll give you thome help..."
  5: 0x02DE [0x23] WAIT_FOR_DIALOG_INTERACTION
  6: 0x02DF [0x1D] PRINT_EVENT_MESSAGE(message_id=4327*)
    → "If you athk my mommy nithely, she'll make you $6 to help dithguise yourthelf with!"
  7: 0x02E2 [0x23] WAIT_FOR_DIALOG_INTERACTION
  8: 0x02E3 [0x29] REQ_SET_WAIT(priority=0x08, entity_id=Pichichi (ID: 17760341/0x010F0055), tag_num=0x08)
  9: 0x02EA [0x20] SET_CLI_EVENT_UC_FLAG: Unlock player control
 10: 0x02EC [0x21] END_EVENT
 11: 0x02ED [0x00] END_REQSTACK()
```

### Event 65535.31

#### Metadata

| Field        | Value    |
|--------------|----------|
| Entrypoint   | 0x02EE   |
| Data Size    | 19 bytes |
| Instructions | 5        |

```
      00 01 02 03 04 05 06 07  08 09 0A 0B 0C 0D 0E 0F
      -- -- -- -- -- -- -- --  -- -- -- -- -- -- -- --
02E0:                                            29 08                ).
02F0: 55 00 0F 01 11 1D 20 80  23 29 08 55 00 0F 01 12  U..... .#).U....
0300: 00                                                .               
```

#### Opcodes

```
  0: 0x02EE [0x29] REQ_SET_WAIT(priority=0x08, entity_id=Pichichi (ID: 17760341/0x010F0055), tag_num=0x11)
  1: 0x02F5 [0x1D] PRINT_EVENT_MESSAGE(message_id=4337*)
    → "Umm... Well... Will thith do...?"
  2: 0x02F8 [0x23] WAIT_FOR_DIALOG_INTERACTION
  3: 0x02F9 [0x29] REQ_SET_WAIT(priority=0x08, entity_id=Pichichi (ID: 17760341/0x010F0055), tag_num=0x12)
  4: 0x0300 [0x00] END_REQSTACK()
```

### Event 421

#### Metadata

| Field        | Value   |
|--------------|---------|
| Entrypoint   | 0x0301  |
| Data Size    | 1 bytes |
| Instructions | 1       |

```
      00 01 02 03 04 05 06 07  08 09 0A 0B 0C 0D 0E 0F
      -- -- -- -- -- -- -- --  -- -- -- -- -- -- -- --
0300:    00                                              .              
```

#### Opcodes

```
  0: 0x0301 [0x00] END_REQSTACK()
```

### Event 65535.32

#### Metadata

| Field        | Value   |
|--------------|---------|
| Entrypoint   | 0x0302  |
| Data Size    | 9 bytes |
| Instructions | 5       |

```
      00 01 02 03 04 05 06 07  08 09 0A 0B 0C 0D 0E 0F
      -- -- -- -- -- -- -- --  -- -- -- -- -- -- -- --
0300:       1D 21 80 23 1D 22  80 23 00                   .!.#.".#.     
```

#### Opcodes

```
  0: 0x0302 [0x1D] PRINT_EVENT_MESSAGE(message_id=4341*)
    → "I didn't want you to give thith pretty ball away to anyone, tho, tho..."
  1: 0x0305 [0x23] WAIT_FOR_DIALOG_INTERACTION
  2: 0x0306 [0x1D] PRINT_EVENT_MESSAGE(message_id=4342*)
    → "Tho when I heard Kohlo-Lakolo wath going to give it away to thomebody, I dethided to thecretly hide it!"
  3: 0x0309 [0x23] WAIT_FOR_DIALOG_INTERACTION
  4: 0x030A [0x00] END_REQSTACK()
```

### Event 65535.33

#### Metadata

| Field        | Value    |
|--------------|----------|
| Entrypoint   | 0x030B   |
| Data Size    | 19 bytes |
| Instructions | 5        |

```
      00 01 02 03 04 05 06 07  08 09 0A 0B 0C 0D 0E 0F
      -- -- -- -- -- -- -- --  -- -- -- -- -- -- -- --
0300:                                   29 08 55 00 0F             ).U..
0310: 01 0D 1D 23 80 23 29 08  55 00 0F 01 0E 00        ...#.#).U.....  
```

#### Opcodes

```
  0: 0x030B [0x29] REQ_SET_WAIT(priority=0x08, entity_id=Pichichi (ID: 17760341/0x010F0055), tag_num=0x0D)
  1: 0x0312 [0x1D] PRINT_EVENT_MESSAGE(message_id=4344*)
    → "Thith mythtery ith altho tholved!"
  2: 0x0315 [0x23] WAIT_FOR_DIALOG_INTERACTION
  3: 0x0316 [0x29] REQ_SET_WAIT(priority=0x08, entity_id=Pichichi (ID: 17760341/0x010F0055), tag_num=0x0E)
  4: 0x031D [0x00] END_REQSTACK()
```

### Event 423

#### Metadata

| Field        | Value    |
|--------------|----------|
| Entrypoint   | 0x031E   |
| Data Size    | 33 bytes |
| Instructions | 12       |

```
      00 01 02 03 04 05 06 07  08 09 0A 0B 0C 0D 0E 0F
      -- -- -- -- -- -- -- --  -- -- -- -- -- -- -- --
0310:                                            1E F0                ..
0320: FF FF 7F 6F 70 29 08 55  00 0F 01 07 1D 24 80 23  ...op).U.....$.#
0330: 1D 25 80 23 29 08 55 00  0F 01 08 20 00 21 00     .%.#).U.... .!. 
```

#### Opcodes

```
  0: 0x031E [0x1E] EventEntity looks at LocalPlayer and starts talking
  1: 0x0323 [0x6F] WAIT_FRAME_DELAY: Yield until WaitTime reaches zero
  2: 0x0324 [0x70] WAIT_ENTITY_RENDER_FLAG: Wait while EventEntity->Render.Flags3 bit 2 is set (cancel turn if not)
  3: 0x0325 [0x29] REQ_SET_WAIT(priority=0x08, entity_id=Pichichi (ID: 17760341/0x010F0055), tag_num=0x07)
  4: 0x032C [0x1D] PRINT_EVENT_MESSAGE(message_id=4347*)
    → "That pretty ball ithn't jutht your ordinary ball!"
  5: 0x032F [0x23] WAIT_FOR_DIALOG_INTERACTION
  6: 0x0330 [0x1D] PRINT_EVENT_MESSAGE(message_id=4348*)
    → "I can't explain why it ith different, it jutht ith!"
  7: 0x0333 [0x23] WAIT_FOR_DIALOG_INTERACTION
  8: 0x0334 [0x29] REQ_SET_WAIT(priority=0x08, entity_id=Pichichi (ID: 17760341/0x010F0055), tag_num=0x08)
  9: 0x033B [0x20] SET_CLI_EVENT_UC_FLAG: Unlock player control
 10: 0x033D [0x21] END_EVENT
 11: 0x033E [0x00] END_REQSTACK()
```

### Event 430

#### Metadata

| Field        | Value   |
|--------------|---------|
| Entrypoint   | 0x033F  |
| Data Size    | 1 bytes |
| Instructions | 1       |

```
      00 01 02 03 04 05 06 07  08 09 0A 0B 0C 0D 0E 0F
      -- -- -- -- -- -- -- --  -- -- -- -- -- -- -- --
0330:                                               00                 .
```

#### Opcodes

```
  0: 0x033F [0x00] END_REQSTACK()
```

### Event 432

#### Metadata

| Field        | Value   |
|--------------|---------|
| Entrypoint   | 0x0340  |
| Data Size    | 1 bytes |
| Instructions | 1       |

```
      00 01 02 03 04 05 06 07  08 09 0A 0B 0C 0D 0E 0F
      -- -- -- -- -- -- -- --  -- -- -- -- -- -- -- --
0340: 00                                                .               
```

#### Opcodes

```
  0: 0x0340 [0x00] END_REQSTACK()
```

### Event 433

#### Metadata

| Field        | Value   |
|--------------|---------|
| Entrypoint   | 0x0341  |
| Data Size    | 1 bytes |
| Instructions | 1       |

```
      00 01 02 03 04 05 06 07  08 09 0A 0B 0C 0D 0E 0F
      -- -- -- -- -- -- -- --  -- -- -- -- -- -- -- --
0340:    00                                              .              
```

#### Opcodes

```
  0: 0x0341 [0x00] END_REQSTACK()
```

### Event 438

#### Metadata

| Field        | Value    |
|--------------|----------|
| Entrypoint   | 0x0342   |
| Data Size    | 33 bytes |
| Instructions | 12       |

```
      00 01 02 03 04 05 06 07  08 09 0A 0B 0C 0D 0E 0F
      -- -- -- -- -- -- -- --  -- -- -- -- -- -- -- --
0340:       1E F0 FF FF 7F 6F  70 29 08 55 00 0F 01 07    .....op).U....
0350: 1D 26 80 23 1D 27 80 23  29 08 55 00 0F 01 08 20  .&.#.'.#).U.... 
0360: 00 21 00                                          .!.             
```

#### Opcodes

```
  0: 0x0342 [0x1E] EventEntity looks at LocalPlayer and starts talking
  1: 0x0347 [0x6F] WAIT_FRAME_DELAY: Yield until WaitTime reaches zero
  2: 0x0348 [0x70] WAIT_ENTITY_RENDER_FLAG: Wait while EventEntity->Render.Flags3 bit 2 is set (cancel turn if not)
  3: 0x0349 [0x29] REQ_SET_WAIT(priority=0x08, entity_id=Pichichi (ID: 17760341/0x010F0055), tag_num=0x07)
  4: 0x0350 [0x1D] PRINT_EVENT_MESSAGE(message_id=4383*)
    → "Pichichi hath a thtrange feeling..."
  5: 0x0353 [0x23] WAIT_FOR_DIALOG_INTERACTION
  6: 0x0354 [0x1D] PRINT_EVENT_MESSAGE(message_id=4384*)
    → "...like we're being called to from thomewhere."
  7: 0x0357 [0x23] WAIT_FOR_DIALOG_INTERACTION
  8: 0x0358 [0x29] REQ_SET_WAIT(priority=0x08, entity_id=Pichichi (ID: 17760341/0x010F0055), tag_num=0x08)
  9: 0x035F [0x20] SET_CLI_EVENT_UC_FLAG: Unlock player control
 10: 0x0361 [0x21] END_EVENT
 11: 0x0362 [0x00] END_REQSTACK()
```

### Event 445

#### Metadata

| Field        | Value    |
|--------------|----------|
| Entrypoint   | 0x0363   |
| Data Size    | 33 bytes |
| Instructions | 12       |

```
      00 01 02 03 04 05 06 07  08 09 0A 0B 0C 0D 0E 0F
      -- -- -- -- -- -- -- --  -- -- -- -- -- -- -- --
0360:          1E F0 FF FF 7F  6F 70 29 08 55 00 0F 01     .....op).U...
0370: 07 1D 28 80 23 1D 29 80  23 29 08 55 00 0F 01 08  ..(.#.).#).U....
0380: 20 00 21 00                                        .!.            
```

#### Opcodes

```
  0: 0x0363 [0x1E] EventEntity looks at LocalPlayer and starts talking
  1: 0x0368 [0x6F] WAIT_FRAME_DELAY: Yield until WaitTime reaches zero
  2: 0x0369 [0x70] WAIT_ENTITY_RENDER_FLAG: Wait while EventEntity->Render.Flags3 bit 2 is set (cancel turn if not)
  3: 0x036A [0x29] REQ_SET_WAIT(priority=0x08, entity_id=Pichichi (ID: 17760341/0x010F0055), tag_num=0x07)
  4: 0x0371 [0x1D] PRINT_EVENT_MESSAGE(message_id=4397*)
    → "Why does everyone have to call Mithter Ghothtie "Joker" for?"
  5: 0x0374 [0x23] WAIT_FOR_DIALOG_INTERACTION
  6: 0x0375 [0x1D] PRINT_EVENT_MESSAGE(message_id=4398*)
    → "I liked the name Mithter Ghothtie better!"
  7: 0x0378 [0x23] WAIT_FOR_DIALOG_INTERACTION
  8: 0x0379 [0x29] REQ_SET_WAIT(priority=0x08, entity_id=Pichichi (ID: 17760341/0x010F0055), tag_num=0x08)
  9: 0x0380 [0x20] SET_CLI_EVENT_UC_FLAG: Unlock player control
 10: 0x0382 [0x21] END_EVENT
 11: 0x0383 [0x00] END_REQSTACK()
```

### Event 324

#### Metadata

| Field        | Value   |
|--------------|---------|
| Entrypoint   | 0x0384  |
| Data Size    | 1 bytes |
| Instructions | 1       |

```
      00 01 02 03 04 05 06 07  08 09 0A 0B 0C 0D 0E 0F
      -- -- -- -- -- -- -- --  -- -- -- -- -- -- -- --
0380:             00                                        .           
```

#### Opcodes

```
  0: 0x0384 [0x00] END_REQSTACK()
```

### Event 65535.34

#### Metadata

| Field        | Value    |
|--------------|----------|
| Entrypoint   | 0x0385   |
| Data Size    | 27 bytes |
| Instructions | 7        |

```
      00 01 02 03 04 05 06 07  08 09 0A 0B 0C 0D 0E 0F
      -- -- -- -- -- -- -- --  -- -- -- -- -- -- -- --
0380:                37 2A 80  2B 80 2C 80 2D 80 32 19       7*.+.,.-.2.
0390: 80 1F 00 2E 80 2F 80 2C  80 1F 01 6F 39 30 80 00  ...../.,...o90..
```

#### Opcodes

```
  0: 0x0385 [0x37] UPDATE_EVENT_POSITION_AND_DIR: x=-26.137*, z=267.852*, y=-12.000*, direction=268.9°*
  1: 0x038E [0x32] ExtData[1]->MainSpeed = 7* * 0.1
  2: 0x0391 [0x1F] MOVE_ENTITY: EventEntity moves to X=-26.847*, Z=270.510*, Y=-12.000*
  3: 0x0399 [0x1F] MOVE_ENTITY: Update entity position (mode=1)
  4: 0x039B [0x6F] WAIT_FRAME_DELAY: Yield until WaitTime reaches zero
  5: 0x039C [0x39] SET_ENTITY_DIRECTION(direction=20.4°*)
  6: 0x039F [0x00] END_REQSTACK()
```

### Event 65535.35

#### Metadata

| Field        | Value    |
|--------------|----------|
| Entrypoint   | 0x03A0   |
| Data Size    | 15 bytes |
| Instructions | 5        |

```
      00 01 02 03 04 05 06 07  08 09 0A 0B 0C 0D 0E 0F
      -- -- -- -- -- -- -- --  -- -- -- -- -- -- -- --
03A0: 32 19 80 1F 00 2E 80 2F  80 2C 80 1F 01 6F 00     2....../.,...o. 
```

#### Opcodes

```
  0: 0x03A0 [0x32] ExtData[1]->MainSpeed = 7* * 0.1
  1: 0x03A3 [0x1F] MOVE_ENTITY: EventEntity moves to X=-26.847*, Z=270.510*, Y=-12.000*
  2: 0x03AB [0x1F] MOVE_ENTITY: Update entity position (mode=1)
  3: 0x03AD [0x6F] WAIT_FRAME_DELAY: Yield until WaitTime reaches zero
  4: 0x03AE [0x00] END_REQSTACK()
```

### Event 65535.36

#### Metadata

| Field        | Value    |
|--------------|----------|
| Entrypoint   | 0x03AF   |
| Data Size    | 25 bytes |
| Instructions | 5        |

```
      00 01 02 03 04 05 06 07  08 09 0A 0B 0C 0D 0E 0F
      -- -- -- -- -- -- -- --  -- -- -- -- -- -- -- --
03A0:                                               1C                 .
03B0: 31 80 4A 55 00 0F 01 5A  00 0F 01 1C 31 80 4A 55  1.JU...Z....1.JU
03C0: 00 0F 01 5A 00 0F 01 00                           ...Z....        
```

#### Opcodes

```
  0: 0x03AF [0x1C] WAIT(100* ticks)
  1: 0x03B2 [0x4A] Pichichi (ID: 17760341/0x010F0055) looks at Nanaa Mihgo (ID: 17760346/0x010F005A)
  2: 0x03BB [0x1C] WAIT(100* ticks)
  3: 0x03BE [0x4A] Pichichi (ID: 17760341/0x010F0055) looks at Nanaa Mihgo (ID: 17760346/0x010F005A)
  4: 0x03C7 [0x00] END_REQSTACK()
```

### Event 65535.37

#### Metadata

| Field        | Value    |
|--------------|----------|
| Entrypoint   | 0x03C8   |
| Data Size    | 10 bytes |
| Instructions | 2        |

```
      00 01 02 03 04 05 06 07  08 09 0A 0B 0C 0D 0E 0F
      -- -- -- -- -- -- -- --  -- -- -- -- -- -- -- --
03C0:                          37 32 80 33 80 34 80 35          72.3.4.5
03D0: 80 00                                             ..              
```

#### Opcodes

```
  0: 0x03C8 [0x37] UPDATE_EVENT_POSITION_AND_DIR: x=-29.681*, z=280.701*, y=-12.999*, direction=293.4°*
  1: 0x03D1 [0x00] END_REQSTACK()
```

### Event 65535.38

#### Metadata

| Field        | Value    |
|--------------|----------|
| Entrypoint   | 0x03D2   |
| Data Size    | 18 bytes |
| Instructions | 6        |

```
      00 01 02 03 04 05 06 07  08 09 0A 0B 0C 0D 0E 0F
      -- -- -- -- -- -- -- --  -- -- -- -- -- -- -- --
03D0:       32 19 80 1F 00 36  80 37 80 34 80 1F 01 6F    2....6.7.4...o
03E0: 39 38 80 00                                       98..            
```

#### Opcodes

```
  0: 0x03D2 [0x32] ExtData[1]->MainSpeed = 7* * 0.1
  1: 0x03D5 [0x1F] MOVE_ENTITY: EventEntity moves to X=-33.171*, Z=282.571*, Y=-12.999*
  2: 0x03DD [0x1F] MOVE_ENTITY: Update entity position (mode=1)
  3: 0x03DF [0x6F] WAIT_FRAME_DELAY: Yield until WaitTime reaches zero
  4: 0x03E0 [0x39] SET_ENTITY_DIRECTION(direction=16.1°*)
  5: 0x03E3 [0x00] END_REQSTACK()
```

### Event 65535.39

#### Metadata

| Field        | Value    |
|--------------|----------|
| Entrypoint   | 0x03E4   |
| Data Size    | 24 bytes |
| Instructions | 6        |

```
      00 01 02 03 04 05 06 07  08 09 0A 0B 0C 0D 0E 0F
      -- -- -- -- -- -- -- --  -- -- -- -- -- -- -- --
03E0:             37 36 80 37  80 34 80 39 80 32 19 80      76.7.4.9.2..
03F0: 1F 00 3A 80 3B 80 34 80  1F 01 6F 00              ..:.;.4...o.    
```

#### Opcodes

```
  0: 0x03E4 [0x37] UPDATE_EVENT_POSITION_AND_DIR: x=-33.171*, z=282.571*, y=-12.999*, direction=194.8°*
  1: 0x03ED [0x32] ExtData[1]->MainSpeed = 7* * 0.1
  2: 0x03F0 [0x1F] MOVE_ENTITY: EventEntity moves to X=-34.989*, Z=282.907*, Y=-12.999*
  3: 0x03F8 [0x1F] MOVE_ENTITY: Update entity position (mode=1)
  4: 0x03FA [0x6F] WAIT_FRAME_DELAY: Yield until WaitTime reaches zero
  5: 0x03FB [0x00] END_REQSTACK()
```

### Event 65535.40

#### Metadata

| Field        | Value    |
|--------------|----------|
| Entrypoint   | 0x03FC   |
| Data Size    | 18 bytes |
| Instructions | 6        |

```
      00 01 02 03 04 05 06 07  08 09 0A 0B 0C 0D 0E 0F
      -- -- -- -- -- -- -- --  -- -- -- -- -- -- -- --
03F0:                                      32 08 80 1F              2...
0400: 00 3C 80 3D 80 34 80 1F  01 6F 39 3E 80 00        .<.=.4...o9>..  
```

#### Opcodes

```
  0: 0x03FC [0x32] ExtData[1]->MainSpeed = 21* * 0.1
  1: 0x03FF [0x1F] MOVE_ENTITY: EventEntity moves to X=-29.475*, Z=282.958*, Y=-12.999*
  2: 0x0407 [0x1F] MOVE_ENTITY: Update entity position (mode=1)
  3: 0x0409 [0x6F] WAIT_FRAME_DELAY: Yield until WaitTime reaches zero
  4: 0x040A [0x39] SET_ENTITY_DIRECTION(direction=21.9°*)
  5: 0x040D [0x00] END_REQSTACK()
```

### Event 65535.41

#### Metadata

| Field        | Value    |
|--------------|----------|
| Entrypoint   | 0x040E   |
| Data Size    | 15 bytes |
| Instructions | 5        |

```
      00 01 02 03 04 05 06 07  08 09 0A 0B 0C 0D 0E 0F
      -- -- -- -- -- -- -- --  -- -- -- -- -- -- -- --
0400:                                            32 19                2.
0410: 80 1F 00 3F 80 40 80 34  80 1F 01 6F 00           ...?.@.4...o.   
```

#### Opcodes

```
  0: 0x040E [0x32] ExtData[1]->MainSpeed = 7* * 0.1
  1: 0x0411 [0x1F] MOVE_ENTITY: EventEntity moves to X=-35.021*, Z=284.013*, Y=-12.999*
  2: 0x0419 [0x1F] MOVE_ENTITY: Update entity position (mode=1)
  3: 0x041B [0x6F] WAIT_FRAME_DELAY: Yield until WaitTime reaches zero
  4: 0x041C [0x00] END_REQSTACK()
```

### Event 65535.42

#### Metadata

| Field        | Value   |
|--------------|---------|
| Entrypoint   | 0x041D  |
| Data Size    | 5 bytes |
| Instructions | 3       |

```
      00 01 02 03 04 05 06 07  08 09 0A 0B 0C 0D 0E 0F
      -- -- -- -- -- -- -- --  -- -- -- -- -- -- -- --
0410:                                         1D 41 80               .A.
0420: 23 00                                             #.              
```

#### Opcodes

```
  0: 0x041D [0x1D] PRINT_EVENT_MESSAGE(message_id=4030*)
    → "You mean ath in...a dead body!?"
  1: 0x0420 [0x23] WAIT_FOR_DIALOG_INTERACTION
  2: 0x0421 [0x00] END_REQSTACK()
```

### Event 65535.43

#### Metadata

| Field        | Value    |
|--------------|----------|
| Entrypoint   | 0x0422   |
| Data Size    | 19 bytes |
| Instructions | 5        |

```
      00 01 02 03 04 05 06 07  08 09 0A 0B 0C 0D 0E 0F
      -- -- -- -- -- -- -- --  -- -- -- -- -- -- -- --
0420:       29 08 55 00 0F 01  01 1D 42 80 23 29 08 55    ).U.....B.#).U
0430: 00 0F 01 02 00                                    .....           
```

#### Opcodes

```
  0: 0x0422 [0x29] REQ_SET_WAIT(priority=0x08, entity_id=Pichichi (ID: 17760341/0x010F0055), tag_num=0x01)
  1: 0x0429 [0x1D] PRINT_EVENT_MESSAGE(message_id=4032*)
    → "But a dead body ith not dangerouth, ith it?"
  2: 0x042C [0x23] WAIT_FOR_DIALOG_INTERACTION
  3: 0x042D [0x29] REQ_SET_WAIT(priority=0x08, entity_id=Pichichi (ID: 17760341/0x010F0055), tag_num=0x02)
  4: 0x0434 [0x00] END_REQSTACK()
```

### Event 65535.44

#### Metadata

| Field        | Value   |
|--------------|---------|
| Entrypoint   | 0x0435  |
| Data Size    | 5 bytes |
| Instructions | 3       |

```
      00 01 02 03 04 05 06 07  08 09 0A 0B 0C 0D 0E 0F
      -- -- -- -- -- -- -- --  -- -- -- -- -- -- -- --
0430:                1D 43 80  23 00                         .C.#.      
```

#### Opcodes

```
  0: 0x0435 [0x1D] PRINT_EVENT_MESSAGE(message_id=4034*)
    → "But a ghothty ith an undead body, not a dead body, right?"
  1: 0x0438 [0x23] WAIT_FOR_DIALOG_INTERACTION
  2: 0x0439 [0x00] END_REQSTACK()
```

### Event 65535.45

#### Metadata

| Field        | Value   |
|--------------|---------|
| Entrypoint   | 0x043A  |
| Data Size    | 5 bytes |
| Instructions | 3       |

```
      00 01 02 03 04 05 06 07  08 09 0A 0B 0C 0D 0E 0F
      -- -- -- -- -- -- -- --  -- -- -- -- -- -- -- --
0430:                                1D 44 80 23 00               .D.#. 
```

#### Opcodes

```
  0: 0x043A [0x1D] PRINT_EVENT_MESSAGE(message_id=4037*)
    → "Huh...?"
  1: 0x043D [0x23] WAIT_FOR_DIALOG_INTERACTION
  2: 0x043E [0x00] END_REQSTACK()
```

### Event 65535.46

#### Metadata

| Field        | Value    |
|--------------|----------|
| Entrypoint   | 0x043F   |
| Data Size    | 19 bytes |
| Instructions | 5        |

```
      00 01 02 03 04 05 06 07  08 09 0A 0B 0C 0D 0E 0F
      -- -- -- -- -- -- -- --  -- -- -- -- -- -- -- --
0430:                                               29                 )
0440: 08 55 00 0F 01 0F 1D 45  80 23 29 08 55 00 0F 01  .U.....E.#).U...
0450: 10 00                                             ..              
```

#### Opcodes

```
  0: 0x043F [0x29] REQ_SET_WAIT(priority=0x08, entity_id=Pichichi (ID: 17760341/0x010F0055), tag_num=0x0F)
  1: 0x0446 [0x1D] PRINT_EVENT_MESSAGE(message_id=4039*)
    → "Wee! He came back to life again!"
  2: 0x0449 [0x23] WAIT_FOR_DIALOG_INTERACTION
  3: 0x044A [0x29] REQ_SET_WAIT(priority=0x08, entity_id=Pichichi (ID: 17760341/0x010F0055), tag_num=0x10)
  4: 0x0451 [0x00] END_REQSTACK()
```

### Event 65535.47

#### Metadata

| Field        | Value    |
|--------------|----------|
| Entrypoint   | 0x0452   |
| Data Size    | 19 bytes |
| Instructions | 5        |

```
      00 01 02 03 04 05 06 07  08 09 0A 0B 0C 0D 0E 0F
      -- -- -- -- -- -- -- --  -- -- -- -- -- -- -- --
0450:       29 08 55 00 0F 01  01 1D 46 80 23 29 08 55    ).U.....F.#).U
0460: 00 0F 01 02 00                                    .....           
```

#### Opcodes

```
  0: 0x0452 [0x29] REQ_SET_WAIT(priority=0x08, entity_id=Pichichi (ID: 17760341/0x010F0055), tag_num=0x01)
  1: 0x0459 [0x1D] PRINT_EVENT_MESSAGE(message_id=4041*)
    → "Good morning, thleepy head! My name ith Pichichi!"
  2: 0x045C [0x23] WAIT_FOR_DIALOG_INTERACTION
  3: 0x045D [0x29] REQ_SET_WAIT(priority=0x08, entity_id=Pichichi (ID: 17760341/0x010F0055), tag_num=0x02)
  4: 0x0464 [0x00] END_REQSTACK()
```

### Event 65535.48

#### Metadata

| Field        | Value    |
|--------------|----------|
| Entrypoint   | 0x0465   |
| Data Size    | 19 bytes |
| Instructions | 5        |

```
      00 01 02 03 04 05 06 07  08 09 0A 0B 0C 0D 0E 0F
      -- -- -- -- -- -- -- --  -- -- -- -- -- -- -- --
0460:                29 08 55  00 0F 01 0B 1D 47 80 23       ).U.....G.#
0470: 29 08 55 00 0F 01 0C 00                           ).U.....        
```

#### Opcodes

```
  0: 0x0465 [0x29] REQ_SET_WAIT(priority=0x08, entity_id=Pichichi (ID: 17760341/0x010F0055), tag_num=0x0B)
  1: 0x046C [0x1D] PRINT_EVENT_MESSAGE(message_id=4043*)
    → "!"
  2: 0x046F [0x23] WAIT_FOR_DIALOG_INTERACTION
  3: 0x0470 [0x29] REQ_SET_WAIT(priority=0x08, entity_id=Pichichi (ID: 17760341/0x010F0055), tag_num=0x0C)
  4: 0x0477 [0x00] END_REQSTACK()
```

### Event 65535.49

#### Metadata

| Field        | Value    |
|--------------|----------|
| Entrypoint   | 0x0478   |
| Data Size    | 19 bytes |
| Instructions | 5        |

```
      00 01 02 03 04 05 06 07  08 09 0A 0B 0C 0D 0E 0F
      -- -- -- -- -- -- -- --  -- -- -- -- -- -- -- --
0470:                          29 08 55 00 0F 01 09 1D          ).U.....
0480: 48 80 23 29 08 55 00 0F  01 0A 00                 H.#).U.....     
```

#### Opcodes

```
  0: 0x0478 [0x29] REQ_SET_WAIT(priority=0x08, entity_id=Pichichi (ID: 17760341/0x010F0055), tag_num=0x09)
  1: 0x047F [0x1D] PRINT_EVENT_MESSAGE(message_id=4044*)
    → "A ghothty!"
  2: 0x0482 [0x23] WAIT_FOR_DIALOG_INTERACTION
  3: 0x0483 [0x29] REQ_SET_WAIT(priority=0x08, entity_id=Pichichi (ID: 17760341/0x010F0055), tag_num=0x0A)
  4: 0x048A [0x00] END_REQSTACK()
```

### Event 65535.50

#### Metadata

| Field        | Value    |
|--------------|----------|
| Entrypoint   | 0x048B   |
| Data Size    | 27 bytes |
| Instructions | 7        |

```
      00 01 02 03 04 05 06 07  08 09 0A 0B 0C 0D 0E 0F
      -- -- -- -- -- -- -- --  -- -- -- -- -- -- -- --
0480:                                   1C 49 80 37 4A             .I.7J
0490: 80 4B 80 4C 80 4D 80 32  19 80 1F 00 4E 80 4F 80  .K.L.M.2....N.O.
04A0: 50 80 1F 01 6F 00                                 P...o.          
```

#### Opcodes

```
  0: 0x048B [0x1C] WAIT(190* ticks)
  1: 0x048E [0x37] UPDATE_EVENT_POSITION_AND_DIR: x=-27.251*, z=260.743*, y=-13.000*, direction=94.7°*
  2: 0x0497 [0x32] ExtData[1]->MainSpeed = 7* * 0.1
  3: 0x049A [0x1F] MOVE_ENTITY: EventEntity moves to X=-27.067*, Z=256.889*, Y=-12.605*
  4: 0x04A2 [0x1F] MOVE_ENTITY: Update entity position (mode=1)
  5: 0x04A4 [0x6F] WAIT_FRAME_DELAY: Yield until WaitTime reaches zero
  6: 0x04A5 [0x00] END_REQSTACK()
```

### Event 65535.51

#### Metadata

| Field        | Value    |
|--------------|----------|
| Entrypoint   | 0x04A6   |
| Data Size    | 15 bytes |
| Instructions | 5        |

```
      00 01 02 03 04 05 06 07  08 09 0A 0B 0C 0D 0E 0F
      -- -- -- -- -- -- -- --  -- -- -- -- -- -- -- --
04A0:                   32 08  80 1F 00 51 80 52 80 53        2....Q.R.S
04B0: 80 1F 01 6F 00                                    ...o.           
```

#### Opcodes

```
  0: 0x04A6 [0x32] ExtData[1]->MainSpeed = 21* * 0.1
  1: 0x04A9 [0x1F] MOVE_ENTITY: EventEntity moves to X=-29.054*, Z=249.114*, Y=-12.281*
  2: 0x04B1 [0x1F] MOVE_ENTITY: Update entity position (mode=1)
  3: 0x04B3 [0x6F] WAIT_FRAME_DELAY: Yield until WaitTime reaches zero
  4: 0x04B4 [0x00] END_REQSTACK()
```

### Event 65535.52

#### Metadata

| Field        | Value    |
|--------------|----------|
| Entrypoint   | 0x04B5   |
| Data Size    | 15 bytes |
| Instructions | 5        |

```
      00 01 02 03 04 05 06 07  08 09 0A 0B 0C 0D 0E 0F
      -- -- -- -- -- -- -- --  -- -- -- -- -- -- -- --
04B0:                32 08 80  1F 00 54 80 55 80 56 80       2....T.U.V.
04C0: 1F 01 6F 00                                       ..o.            
```

#### Opcodes

```
  0: 0x04B5 [0x32] ExtData[1]->MainSpeed = 21* * 0.1
  1: 0x04B8 [0x1F] MOVE_ENTITY: EventEntity moves to X=-27.605*, Z=254.081*, Y=-12.385*
  2: 0x04C0 [0x1F] MOVE_ENTITY: Update entity position (mode=1)
  3: 0x04C2 [0x6F] WAIT_FRAME_DELAY: Yield until WaitTime reaches zero
  4: 0x04C3 [0x00] END_REQSTACK()
```

### Event 65535.53

#### Metadata

| Field        | Value    |
|--------------|----------|
| Entrypoint   | 0x04C4   |
| Data Size    | 15 bytes |
| Instructions | 5        |

```
      00 01 02 03 04 05 06 07  08 09 0A 0B 0C 0D 0E 0F
      -- -- -- -- -- -- -- --  -- -- -- -- -- -- -- --
04C0:             32 19 80 1F  00 57 80 58 80 59 80 1F      2....W.X.Y..
04D0: 01 6F 00                                          .o.             
```

#### Opcodes

```
  0: 0x04C4 [0x32] ExtData[1]->MainSpeed = 7* * 0.1
  1: 0x04C7 [0x1F] MOVE_ENTITY: EventEntity moves to X=-26.980*, Z=255.280*, Y=-12.444*
  2: 0x04CF [0x1F] MOVE_ENTITY: Update entity position (mode=1)
  3: 0x04D1 [0x6F] WAIT_FRAME_DELAY: Yield until WaitTime reaches zero
  4: 0x04D2 [0x00] END_REQSTACK()
```

### Event 65535.54

#### Metadata

| Field        | Value    |
|--------------|----------|
| Entrypoint   | 0x04D3   |
| Data Size    | 15 bytes |
| Instructions | 5        |

```
      00 01 02 03 04 05 06 07  08 09 0A 0B 0C 0D 0E 0F
      -- -- -- -- -- -- -- --  -- -- -- -- -- -- -- --
04D0:          32 08 80 1F 00  5A 80 5B 80 5C 80 1F 01     2....Z.[.\...
04E0: 6F 00                                             o.              
```

#### Opcodes

```
  0: 0x04D3 [0x32] ExtData[1]->MainSpeed = 21* * 0.1
  1: 0x04D6 [0x1F] MOVE_ENTITY: EventEntity moves to X=-31.165*, Z=249.938*, Y=-12.263*
  2: 0x04DE [0x1F] MOVE_ENTITY: Update entity position (mode=1)
  3: 0x04E0 [0x6F] WAIT_FRAME_DELAY: Yield until WaitTime reaches zero
  4: 0x04E1 [0x00] END_REQSTACK()
```

### Event 65535.55

#### Metadata

| Field        | Value   |
|--------------|---------|
| Entrypoint   | 0x04E2  |
| Data Size    | 5 bytes |
| Instructions | 3       |

```
      00 01 02 03 04 05 06 07  08 09 0A 0B 0C 0D 0E 0F
      -- -- -- -- -- -- -- --  -- -- -- -- -- -- -- --
04E0:       1D 5D 80 23 00                                .].#.         
```

#### Opcodes

```
  0: 0x04E2 [0x1D] PRINT_EVENT_MESSAGE(message_id=4056*)
    → "......"
  1: 0x04E5 [0x23] WAIT_FOR_DIALOG_INTERACTION
  2: 0x04E6 [0x00] END_REQSTACK()
```

### Event 65535.56

#### Metadata

| Field        | Value   |
|--------------|---------|
| Entrypoint   | 0x04E7  |
| Data Size    | 5 bytes |
| Instructions | 3       |

```
      00 01 02 03 04 05 06 07  08 09 0A 0B 0C 0D 0E 0F
      -- -- -- -- -- -- -- --  -- -- -- -- -- -- -- --
04E0:                      1D  5E 80 23 00                     .^.#.    
```

#### Opcodes

```
  0: 0x04E7 [0x1D] PRINT_EVENT_MESSAGE(message_id=4057*)
    → "Ith that your home there, Mither Ghothty?"
  1: 0x04EA [0x23] WAIT_FOR_DIALOG_INTERACTION
  2: 0x04EB [0x00] END_REQSTACK()
```

### Event 65535.57

#### Metadata

| Field        | Value    |
|--------------|----------|
| Entrypoint   | 0x04EC   |
| Data Size    | 19 bytes |
| Instructions | 5        |

```
      00 01 02 03 04 05 06 07  08 09 0A 0B 0C 0D 0E 0F
      -- -- -- -- -- -- -- --  -- -- -- -- -- -- -- --
04E0:                                      29 08 55 00              ).U.
04F0: 0F 01 01 1D 5F 80 23 29  08 55 00 0F 01 02 00     ...._.#).U..... 
```

#### Opcodes

```
  0: 0x04EC [0x29] REQ_SET_WAIT(priority=0x08, entity_id=Pichichi (ID: 17760341/0x010F0055), tag_num=0x01)
  1: 0x04F3 [0x1D] PRINT_EVENT_MESSAGE(message_id=4059*)
    → "Tho where ith your home, Mither Ghothty? Where are you going to go?"
  2: 0x04F6 [0x23] WAIT_FOR_DIALOG_INTERACTION
  3: 0x04F7 [0x29] REQ_SET_WAIT(priority=0x08, entity_id=Pichichi (ID: 17760341/0x010F0055), tag_num=0x02)
  4: 0x04FE [0x00] END_REQSTACK()
```

### Event 65535.58

#### Metadata

| Field        | Value    |
|--------------|----------|
| Entrypoint   | 0x04FF   |
| Data Size    | 19 bytes |
| Instructions | 5        |

```
      00 01 02 03 04 05 06 07  08 09 0A 0B 0C 0D 0E 0F
      -- -- -- -- -- -- -- --  -- -- -- -- -- -- -- --
04F0:                                               29                 )
0500: 08 55 00 0F 01 0F 1D 60  80 23 29 08 55 00 0F 01  .U.....`.#).U...
0510: 10 00                                             ..              
```

#### Opcodes

```
  0: 0x04FF [0x29] REQ_SET_WAIT(priority=0x08, entity_id=Pichichi (ID: 17760341/0x010F0055), tag_num=0x0F)
  1: 0x0506 [0x1D] PRINT_EVENT_MESSAGE(message_id=4062*)
    → "Then why don't you come home with uth?"
  2: 0x0509 [0x23] WAIT_FOR_DIALOG_INTERACTION
  3: 0x050A [0x29] REQ_SET_WAIT(priority=0x08, entity_id=Pichichi (ID: 17760341/0x010F0055), tag_num=0x10)
  4: 0x0511 [0x00] END_REQSTACK()
```

### Event 65535.59

#### Metadata

| Field        | Value    |
|--------------|----------|
| Entrypoint   | 0x0512   |
| Data Size    | 19 bytes |
| Instructions | 5        |

```
      00 01 02 03 04 05 06 07  08 09 0A 0B 0C 0D 0E 0F
      -- -- -- -- -- -- -- --  -- -- -- -- -- -- -- --
0510:       29 08 55 00 0F 01  0F 1D 61 80 23 29 08 55    ).U.....a.#).U
0520: 00 0F 01 10 00                                    .....           
```

#### Opcodes

```
  0: 0x0512 [0x29] REQ_SET_WAIT(priority=0x08, entity_id=Pichichi (ID: 17760341/0x010F0055), tag_num=0x0F)
  1: 0x0519 [0x1D] PRINT_EVENT_MESSAGE(message_id=4065*)
    → "Come on! Hurry up!"
  2: 0x051C [0x23] WAIT_FOR_DIALOG_INTERACTION
  3: 0x051D [0x29] REQ_SET_WAIT(priority=0x08, entity_id=Pichichi (ID: 17760341/0x010F0055), tag_num=0x10)
  4: 0x0524 [0x00] END_REQSTACK()
```

### Event 323

#### Metadata

| Field        | Value   |
|--------------|---------|
| Entrypoint   | 0x0525  |
| Data Size    | 1 bytes |
| Instructions | 1       |

```
      00 01 02 03 04 05 06 07  08 09 0A 0B 0C 0D 0E 0F
      -- -- -- -- -- -- -- --  -- -- -- -- -- -- -- --
0520:                00                                      .          
```

#### Opcodes

```
  0: 0x0525 [0x00] END_REQSTACK()
```

### Event 65535.60

#### Metadata

| Field        | Value    |
|--------------|----------|
| Entrypoint   | 0x0526   |
| Data Size    | 10 bytes |
| Instructions | 2        |

```
      00 01 02 03 04 05 06 07  08 09 0A 0B 0C 0D 0E 0F
      -- -- -- -- -- -- -- --  -- -- -- -- -- -- -- --
0520:                   37 62  80 63 80 64 80 65 80 00        7b.c.d.e..
```

#### Opcodes

```
  0: 0x0526 [0x37] UPDATE_EVENT_POSITION_AND_DIR: x=-24.967*, z=267.031*, y=-18.000*, direction=116.5°*
  1: 0x052F [0x00] END_REQSTACK()
```

### Event 65535.61

#### Metadata

| Field        | Value    |
|--------------|----------|
| Entrypoint   | 0x0530   |
| Data Size    | 27 bytes |
| Instructions | 7        |

```
      00 01 02 03 04 05 06 07  08 09 0A 0B 0C 0D 0E 0F
      -- -- -- -- -- -- -- --  -- -- -- -- -- -- -- --
0530: 1C 01 80 37 66 80 67 80  68 80 69 80 32 08 80 1F  ...7f.g.h.i.2...
0540: 00 6A 80 6B 80 6C 80 1F  01 6F 00                 .j.k.l...o.     
```

#### Opcodes

```
  0: 0x0530 [0x1C] WAIT(30* ticks)
  1: 0x0533 [0x37] UPDATE_EVENT_POSITION_AND_DIR: x=-35.074*, z=245.182*, y=-12.452*, direction=322.3°*
  2: 0x053C [0x32] ExtData[1]->MainSpeed = 21* * 0.1
  3: 0x053F [0x1F] MOVE_ENTITY: EventEntity moves to X=-26.491*, Z=254.434*, Y=-12.399*
  4: 0x0547 [0x1F] MOVE_ENTITY: Update entity position (mode=1)
  5: 0x0549 [0x6F] WAIT_FRAME_DELAY: Yield until WaitTime reaches zero
  6: 0x054A [0x00] END_REQSTACK()
```

### Event 65535.62

#### Metadata

| Field        | Value    |
|--------------|----------|
| Entrypoint   | 0x054B   |
| Data Size    | 15 bytes |
| Instructions | 5        |

```
      00 01 02 03 04 05 06 07  08 09 0A 0B 0C 0D 0E 0F
      -- -- -- -- -- -- -- --  -- -- -- -- -- -- -- --
0540:                                   32 19 80 1F 00             2....
0550: 6D 80 6E 80 64 80 1F 01  6F 00                    m.n.d...o.      
```

#### Opcodes

```
  0: 0x054B [0x32] ExtData[1]->MainSpeed = 7* * 0.1
  1: 0x054E [0x1F] MOVE_ENTITY: EventEntity moves to X=-25.417*, Z=266.198*, Y=-18.000*
  2: 0x0556 [0x1F] MOVE_ENTITY: Update entity position (mode=1)
  3: 0x0558 [0x6F] WAIT_FRAME_DELAY: Yield until WaitTime reaches zero
  4: 0x0559 [0x00] END_REQSTACK()
```

### Event 65535.63

#### Metadata

| Field        | Value    |
|--------------|----------|
| Entrypoint   | 0x055A   |
| Data Size    | 15 bytes |
| Instructions | 5        |

```
      00 01 02 03 04 05 06 07  08 09 0A 0B 0C 0D 0E 0F
      -- -- -- -- -- -- -- --  -- -- -- -- -- -- -- --
0550:                                32 08 80 1F 00 6F            2....o
0560: 80 70 80 71 80 1F 01 6F  00                       .p.q...o.       
```

#### Opcodes

```
  0: 0x055A [0x32] ExtData[1]->MainSpeed = 21* * 0.1
  1: 0x055D [0x1F] MOVE_ENTITY: EventEntity moves to X=-19.651*, Z=273.488*, Y=-17.500*
  2: 0x0565 [0x1F] MOVE_ENTITY: Update entity position (mode=1)
  3: 0x0567 [0x6F] WAIT_FRAME_DELAY: Yield until WaitTime reaches zero
  4: 0x0568 [0x00] END_REQSTACK()
```

### Event 65535.64

#### Metadata

| Field        | Value    |
|--------------|----------|
| Entrypoint   | 0x0569   |
| Data Size    | 10 bytes |
| Instructions | 2        |

```
      00 01 02 03 04 05 06 07  08 09 0A 0B 0C 0D 0E 0F
      -- -- -- -- -- -- -- --  -- -- -- -- -- -- -- --
0560:                             37 72 80 73 80 74 80           7r.s.t.
0570: 75 80 00                                          u..             
```

#### Opcodes

```
  0: 0x0569 [0x37] UPDATE_EVENT_POSITION_AND_DIR: x=-24.713*, z=257.034*, y=-12.634*, direction=259.6°*
  1: 0x0572 [0x00] END_REQSTACK()
```

### Event 65535.65

#### Metadata

| Field        | Value    |
|--------------|----------|
| Entrypoint   | 0x0573   |
| Data Size    | 25 bytes |
| Instructions | 7        |

```
      00 01 02 03 04 05 06 07  08 09 0A 0B 0C 0D 0E 0F
      -- -- -- -- -- -- -- --  -- -- -- -- -- -- -- --
0570:          32 08 80 1F 00  76 80 77 80 4C 80 1F 01     2....v.w.L...
0580: 1F 00 78 80 79 80 4C 80  1F 01 6F 00              ..x.y.L...o.    
```

#### Opcodes

```
  0: 0x0573 [0x32] ExtData[1]->MainSpeed = 21* * 0.1
  1: 0x0576 [0x1F] MOVE_ENTITY: EventEntity moves to X=-24.634*, Z=259.609*, Y=-13.000*
  2: 0x057E [0x1F] MOVE_ENTITY: Update entity position (mode=1)
  3: 0x0580 [0x1F] MOVE_ENTITY: EventEntity moves to X=-25.020*, Z=260.426*, Y=-13.000*
  4: 0x0588 [0x1F] MOVE_ENTITY: Update entity position (mode=1)
  5: 0x058A [0x6F] WAIT_FRAME_DELAY: Yield until WaitTime reaches zero
  6: 0x058B [0x00] END_REQSTACK()
```

### Event 65535.66

#### Metadata

| Field        | Value    |
|--------------|----------|
| Entrypoint   | 0x058C   |
| Data Size    | 22 bytes |
| Instructions | 6        |

```
      00 01 02 03 04 05 06 07  08 09 0A 0B 0C 0D 0E 0F
      -- -- -- -- -- -- -- --  -- -- -- -- -- -- -- --
0580:                                      32 08 80 1F              2...
0590: 00 7A 80 7B 80 4C 80 1F  01 6F 4B 55 00 0F 01 7C  .z.{.L...oKU...|
05A0: 80 00                                             ..              
```

#### Opcodes

```
  0: 0x058C [0x32] ExtData[1]->MainSpeed = 21* * 0.1
  1: 0x058F [0x1F] MOVE_ENTITY: EventEntity moves to X=-23.388*, Z=260.407*, Y=-13.000*
  2: 0x0597 [0x1F] MOVE_ENTITY: Update entity position (mode=1)
  3: 0x0599 [0x6F] WAIT_FRAME_DELAY: Yield until WaitTime reaches zero
  4: 0x059A [0x4B] UPDATE_ENTITY_YAW(entity=Pichichi (ID: 17760341/0x010F0055), yaw=10.3°*)
  5: 0x05A1 [0x00] END_REQSTACK()
```

### Event 65535.67

#### Metadata

| Field        | Value    |
|--------------|----------|
| Entrypoint   | 0x05A2   |
| Data Size    | 24 bytes |
| Instructions | 6        |

```
      00 01 02 03 04 05 06 07  08 09 0A 0B 0C 0D 0E 0F
      -- -- -- -- -- -- -- --  -- -- -- -- -- -- -- --
05A0:       32 19 80 37 7D 80  7E 80 4C 80 7F 80 1F 00    2..7}.~.L.....
05B0: 80 80 81 80 82 80 1F 01  6F 00                    ........o.      
```

#### Opcodes

```
  0: 0x05A2 [0x32] ExtData[1]->MainSpeed = 7* * 0.1
  1: 0x05A5 [0x37] UPDATE_EVENT_POSITION_AND_DIR: x=-24.950*, z=260.213*, y=-13.000*, direction=153.6°*
  2: 0x05AE [0x1F] MOVE_ENTITY: EventEntity moves to X=-25.938*, Z=259.449*, Y=-13.015*
  3: 0x05B6 [0x1F] MOVE_ENTITY: Update entity position (mode=1)
  4: 0x05B8 [0x6F] WAIT_FRAME_DELAY: Yield until WaitTime reaches zero
  5: 0x05B9 [0x00] END_REQSTACK()
```

### Event 65535.68

#### Metadata

| Field        | Value   |
|--------------|---------|
| Entrypoint   | 0x05BA  |
| Data Size    | 5 bytes |
| Instructions | 3       |

```
      00 01 02 03 04 05 06 07  08 09 0A 0B 0C 0D 0E 0F
      -- -- -- -- -- -- -- --  -- -- -- -- -- -- -- --
05B0:                                1D 83 80 23 00               ...#. 
```

#### Opcodes

```
  0: 0x05BA [0x1D] PRINT_EVENT_MESSAGE(message_id=3974*)
    → "Up and at 'em!"
  1: 0x05BD [0x23] WAIT_FOR_DIALOG_INTERACTION
  2: 0x05BE [0x00] END_REQSTACK()
```

### Event 65535.69

#### Metadata

| Field        | Value   |
|--------------|---------|
| Entrypoint   | 0x05BF  |
| Data Size    | 5 bytes |
| Instructions | 3       |

```
      00 01 02 03 04 05 06 07  08 09 0A 0B 0C 0D 0E 0F
      -- -- -- -- -- -- -- --  -- -- -- -- -- -- -- --
05B0:                                               1D                 .
05C0: 3E 80 23 00                                       >.#.            
```

#### Opcodes

```
  0: 0x05BF [0x1D] PRINT_EVENT_MESSAGE(message_id=3979*)
    → "Ooo`h!"
  1: 0x05C2 [0x23] WAIT_FOR_DIALOG_INTERACTION
  2: 0x05C3 [0x00] END_REQSTACK()
```

### Event 65535.70

#### Metadata

| Field        | Value   |
|--------------|---------|
| Entrypoint   | 0x05C4  |
| Data Size    | 9 bytes |
| Instructions | 5       |

```
      00 01 02 03 04 05 06 07  08 09 0A 0B 0C 0D 0E 0F
      -- -- -- -- -- -- -- --  -- -- -- -- -- -- -- --
05C0:             1D 84 80 23  1D 85 80 23 00               ...#...#.   
```

#### Opcodes

```
  0: 0x05C4 [0x1D] PRINT_EVENT_MESSAGE(message_id=3986*)
    → "Oh, the Cat Burglar got away..."
  1: 0x05C7 [0x23] WAIT_FOR_DIALOG_INTERACTION
  2: 0x05C8 [0x1D] PRINT_EVENT_MESSAGE(message_id=3987*)
    → "...but she dropped a pretty little ball."
  3: 0x05CB [0x23] WAIT_FOR_DIALOG_INTERACTION
  4: 0x05CC [0x00] END_REQSTACK()
```

### Event 65535.71

#### Metadata

| Field        | Value   |
|--------------|---------|
| Entrypoint   | 0x05CD  |
| Data Size    | 5 bytes |
| Instructions | 3       |

```
      00 01 02 03 04 05 06 07  08 09 0A 0B 0C 0D 0E 0F
      -- -- -- -- -- -- -- --  -- -- -- -- -- -- -- --
05C0:                                         1D 86 80               ...
05D0: 23 00                                             #.              
```

#### Opcodes

```
  0: 0x05CD [0x1D] PRINT_EVENT_MESSAGE(message_id=3988*)
    → "I wonder if everyone will get angry with me if I take it?"
  1: 0x05D0 [0x23] WAIT_FOR_DIALOG_INTERACTION
  2: 0x05D1 [0x00] END_REQSTACK()
```

### Event 496

#### Metadata

| Field        | Value   |
|--------------|---------|
| Entrypoint   | 0x05D2  |
| Data Size    | 1 bytes |
| Instructions | 1       |

```
      00 01 02 03 04 05 06 07  08 09 0A 0B 0C 0D 0E 0F
      -- -- -- -- -- -- -- --  -- -- -- -- -- -- -- --
05D0:       00                                            .             
```

#### Opcodes

```
  0: 0x05D2 [0x00] END_REQSTACK()
```

### Event 497

#### Metadata

| Field        | Value   |
|--------------|---------|
| Entrypoint   | 0x05D3  |
| Data Size    | 1 bytes |
| Instructions | 1       |

```
      00 01 02 03 04 05 06 07  08 09 0A 0B 0C 0D 0E 0F
      -- -- -- -- -- -- -- --  -- -- -- -- -- -- -- --
05D0:          00                                          .            
```

#### Opcodes

```
  0: 0x05D3 [0x00] END_REQSTACK()
```

### Event 65535.72

#### Metadata

| Field        | Value    |
|--------------|----------|
| Entrypoint   | 0x05D4   |
| Data Size    | 10 bytes |
| Instructions | 2        |

```
      00 01 02 03 04 05 06 07  08 09 0A 0B 0C 0D 0E 0F
      -- -- -- -- -- -- -- --  -- -- -- -- -- -- -- --
05D0:             37 87 80 88  80 06 80 89 80 00            7.........  
```

#### Opcodes

```
  0: 0x05D4 [0x37] UPDATE_EVENT_POSITION_AND_DIR: x=-22.708*, z=192.507*, y=-5.999*, direction=90.0°*
  1: 0x05DD [0x00] END_REQSTACK()
```

### Event 65535.73

#### Metadata

| Field        | Value   |
|--------------|---------|
| Entrypoint   | 0x05DE  |
| Data Size    | 5 bytes |
| Instructions | 3       |

```
      00 01 02 03 04 05 06 07  08 09 0A 0B 0C 0D 0E 0F
      -- -- -- -- -- -- -- --  -- -- -- -- -- -- -- --
05D0:                                            1D 8A                ..
05E0: 80 23 00                                          .#.             
```

#### Opcodes

```
  0: 0x05DE [0x1D] PRINT_EVENT_MESSAGE(message_id=12450*)
    → "...It'th wrong. It'th wrong to tell lieth and trick people."
  1: 0x05E1 [0x23] WAIT_FOR_DIALOG_INTERACTION
  2: 0x05E2 [0x00] END_REQSTACK()
```

### Event 65535.74

#### Metadata

| Field        | Value   |
|--------------|---------|
| Entrypoint   | 0x05E3  |
| Data Size    | 5 bytes |
| Instructions | 3       |

```
      00 01 02 03 04 05 06 07  08 09 0A 0B 0C 0D 0E 0F
      -- -- -- -- -- -- -- --  -- -- -- -- -- -- -- --
05E0:          1D 8B 80 23 00                              ...#.        
```

#### Opcodes

```
  0: 0x05E3 [0x1D] PRINT_EVENT_MESSAGE(message_id=12452*)
    → "The Thtar Onion Brigade isn't about lying or tricking people! It was formed to fight people like that."
  1: 0x05E6 [0x23] WAIT_FOR_DIALOG_INTERACTION
  2: 0x05E7 [0x00] END_REQSTACK()
```

### Event 503

#### Metadata

| Field        | Value    |
|--------------|----------|
| Entrypoint   | 0x05E8   |
| Data Size    | 33 bytes |
| Instructions | 12       |

```
      00 01 02 03 04 05 06 07  08 09 0A 0B 0C 0D 0E 0F
      -- -- -- -- -- -- -- --  -- -- -- -- -- -- -- --
05E0:                          1E F0 FF FF 7F 6F 70 29          .....op)
05F0: 08 55 00 0F 01 07 1D 8C  80 23 1D 8D 80 23 29 08  .U.......#...#).
0600: 55 00 0F 01 08 20 00 21  00                       U.... .!.       
```

#### Opcodes

```
  0: 0x05E8 [0x1E] EventEntity looks at LocalPlayer and starts talking
  1: 0x05ED [0x6F] WAIT_FRAME_DELAY: Yield until WaitTime reaches zero
  2: 0x05EE [0x70] WAIT_ENTITY_RENDER_FLAG: Wait while EventEntity->Render.Flags3 bit 2 is set (cancel turn if not)
  3: 0x05EF [0x29] REQ_SET_WAIT(priority=0x08, entity_id=Pichichi (ID: 17760341/0x010F0055), tag_num=0x07)
  4: 0x05F6 [0x1D] PRINT_EVENT_MESSAGE(message_id=12435*)
    → "They thay that Honoi-Gomoi ith a bad man 'cos hith grandfather'th, grandfather'th, grandfather wath a bad man too."
  5: 0x05F9 [0x23] WAIT_FOR_DIALOG_INTERACTION
  6: 0x05FA [0x1D] PRINT_EVENT_MESSAGE(message_id=12436*)
    → "It'th very confuthing, but it'th the truth. My mom told me tho."
  7: 0x05FD [0x23] WAIT_FOR_DIALOG_INTERACTION
  8: 0x05FE [0x29] REQ_SET_WAIT(priority=0x08, entity_id=Pichichi (ID: 17760341/0x010F0055), tag_num=0x08)
  9: 0x0605 [0x20] SET_CLI_EVENT_UC_FLAG: Unlock player control
 10: 0x0607 [0x21] END_EVENT
 11: 0x0608 [0x00] END_REQSTACK()
```

### Event 511

#### Metadata

| Field        | Value    |
|--------------|----------|
| Entrypoint   | 0x0609   |
| Data Size    | 33 bytes |
| Instructions | 12       |

```
      00 01 02 03 04 05 06 07  08 09 0A 0B 0C 0D 0E 0F
      -- -- -- -- -- -- -- --  -- -- -- -- -- -- -- --
0600:                             1E F0 FF FF 7F 6F 70           .....op
0610: 29 08 55 00 0F 01 07 1D  8E 80 23 29 08 55 00 0F  ).U.......#).U..
0620: 01 08 1D 8F 80 23 20 00  21 00                    .....# .!.      
```

#### Opcodes

```
  0: 0x0609 [0x1E] EventEntity looks at LocalPlayer and starts talking
  1: 0x060E [0x6F] WAIT_FRAME_DELAY: Yield until WaitTime reaches zero
  2: 0x060F [0x70] WAIT_ENTITY_RENDER_FLAG: Wait while EventEntity->Render.Flags3 bit 2 is set (cancel turn if not)
  3: 0x0610 [0x29] REQ_SET_WAIT(priority=0x08, entity_id=Pichichi (ID: 17760341/0x010F0055), tag_num=0x07)
  4: 0x0617 [0x1D] PRINT_EVENT_MESSAGE(message_id=12470*)
