# 17760268 - Semih Lafihna

## Common Data

| Field            | Value                   |
|------------------|-------------------------|
| Zone             | Port Windurst (ID: 240) |
| Block Size       | 1780 bytes              |
| Total Events     | 64                      |
| References Count | 98                      |

## List of Events

| Event ID                   | Entrypoint   |   Size |   Instructions |
|----------------------------|--------------|--------|----------------|
| [65535](#event-65535)      | 0x0000       |      1 |              1 |
| [65535.1](#event-655351)   | 0x0001       |     16 |              2 |
| [65535.2](#event-655352)   | 0x0011       |     14 |              2 |
| [65535.3](#event-655353)   | 0x001F       |     37 |              5 |
| [65535.4](#event-655354)   | 0x0044       |     16 |              2 |
| [65535.5](#event-655355)   | 0x0054       |     14 |              2 |
| [65535.6](#event-655356)   | 0x0062       |     16 |              2 |
| [65535.7](#event-655357)   | 0x0072       |     14 |              2 |
| [65535.8](#event-655358)   | 0x0080       |     16 |              2 |
| [65535.9](#event-655359)   | 0x0090       |     14 |              2 |
| [65535.10](#event-6553510) | 0x009E       |      1 |              1 |
| [65535.11](#event-6553511) | 0x009F       |      1 |              1 |
| [65535.12](#event-6553512) | 0x00A0       |     16 |              2 |
| [65535.13](#event-6553513) | 0x00B0       |     14 |              2 |
| [65535.14](#event-6553514) | 0x00BE       |     16 |              2 |
| [65535.15](#event-6553515) | 0x00CE       |     14 |              2 |
| [65535.16](#event-6553516) | 0x00DC       |     16 |              2 |
| [65535.17](#event-6553517) | 0x00EC       |     14 |              2 |
| [65535.18](#event-6553518) | 0x00FA       |      9 |              3 |
| [65535.19](#event-6553519) | 0x0103       |     10 |              2 |
| [65535.20](#event-6553520) | 0x010D       |     15 |              5 |
| [65535.21](#event-6553521) | 0x011C       |     24 |              6 |
| [65535.22](#event-6553522) | 0x0134       |     15 |              5 |
| [65535.23](#event-6553523) | 0x0143       |     15 |              5 |
| [65535.24](#event-6553524) | 0x0152       |     19 |              5 |
| [65535.25](#event-6553525) | 0x0165       |     25 |              7 |
| [11](#event-11)            | 0x017E       |     12 |              3 |
| [305](#event-305)          | 0x018A       |     12 |              3 |
| [65535.26](#event-6553526) | 0x0196       |     37 |              9 |
| [65535.27](#event-6553527) | 0x01BB       |      5 |              3 |
| [65535.28](#event-6553528) | 0x01C0       |      5 |              3 |
| [65535.29](#event-6553529) | 0x01C5       |     37 |              9 |
| [65535.30](#event-6553530) | 0x01EA       |     12 |              4 |
| [65535.31](#event-6553531) | 0x01F6       |      9 |              5 |
| [65535.32](#event-6553532) | 0x01FF       |     26 |              6 |
| [65535.33](#event-6553533) | 0x0219       |      5 |              3 |
| [65535.34](#event-6553534) | 0x021E       |    161 |             45 |
| [65535.35](#event-6553535) | 0x02BF       |     12 |              4 |
| [65535.36](#event-6553536) | 0x02CB       |      9 |              5 |
| [65535.37](#event-6553537) | 0x02D4       |      9 |              5 |
| [65535.38](#event-6553538) | 0x02DD       |     26 |              6 |
| [65535.39](#event-6553539) | 0x02F7       |      5 |              3 |
| [65535.40](#event-6553540) | 0x02FC       |     23 |              7 |
| [65535.41](#event-6553541) | 0x0313       |     23 |              7 |
| [65535.42](#event-6553542) | 0x032A       |     37 |              9 |
| [65535.43](#event-6553543) | 0x034F       |      5 |              3 |
| [65535.44](#event-6553544) | 0x0354       |      5 |              3 |
| [65535.45](#event-6553545) | 0x0359       |     19 |              5 |
| [65535.46](#event-6553546) | 0x036C       |      5 |              3 |
| [65535.47](#event-6553547) | 0x0371       |      5 |              3 |
| [65535.48](#event-6553548) | 0x0376       |     23 |              7 |
| [65535.49](#event-6553549) | 0x038D       |     16 |              6 |
| [65535.50](#event-6553550) | 0x039D       |      5 |              3 |
| [65535.51](#event-6553551) | 0x03A2       |      9 |              5 |
| [65535.52](#event-6553552) | 0x03AB       |     23 |              7 |
| [65535.53](#event-6553553) | 0x03C2       |     33 |              7 |
| [65535.54](#event-6553554) | 0x03E3       |      5 |              3 |
| [65535.55](#event-6553555) | 0x03E8       |      5 |              3 |
| [65535.56](#event-6553556) | 0x03ED       |     12 |              4 |
| [65535.57](#event-6553557) | 0x03F9       |     27 |              9 |
| [65535.58](#event-6553558) | 0x0414       |      9 |              5 |
| [65535.59](#event-6553559) | 0x041D       |     20 |              8 |
| [65535.60](#event-6553560) | 0x0431       |      5 |              3 |
| [65535.61](#event-6553561) | 0x0436       |     37 |              9 |

## DAT References (imed_data)

|   Index | Hex Value   |   Dec Value |
|---------|-------------|-------------|
|       0 | 0x0175      |         373 |
|       1 | 0x001E      |          30 |
|       2 | 0x0195      |         405 |
|       3 | 0x0167      |         359 |
|       4 | 0x016D      |         365 |
|       5 | 0xFFFDBAA4  |  4294818468 |
|       6 | 0x2B94C     |      178508 |
|       7 | 0xFFFFE444  |  4294960196 |
|       8 | 0x09D8      |        2520 |
|       9 | 0x000D      |          13 |
|      10 | 0xFFFDE0DC  |  4294828252 |
|      11 | 0x29F4C     |      171852 |
|      12 | 0xFFFFE4A9  |  4294960297 |
|      13 | 0xFFFDEA81  |  4294830721 |
|      14 | 0x29763     |      169827 |
|      15 | 0xFFFFE5F4  |  4294960628 |
|      16 | 0x00C8      |         200 |
|      17 | 0xFFFDF6A8  |  4294833832 |
|      18 | 0x28CD1     |      167121 |
|      19 | 0xFFFFEA84  |  4294961796 |
|      20 | 0x0028      |          40 |
|      21 | 0xFFFE0470  |  4294837360 |
|      22 | 0x2856A     |      165226 |
|      23 | 0x0032      |          50 |
|      24 | 0xFFFE14A8  |  4294841512 |
|      25 | 0x298A6     |      170150 |
|      26 | 0xFFFE2D5A  |  4294847834 |
|      27 | 0x2D7B8     |      186296 |
|      28 | 0xFFFFEA30  |  4294961712 |
|      29 | 0xFFFDD44B  |  4294825035 |
|      30 | 0x2ACD9     |      175321 |
|      31 | 0xFFFFE4A8  |  4294960296 |
|      32 | 0x02A5      |         677 |
|      33 | 0x0F1F      |        3871 |
|      34 | 0x0F20      |        3872 |
|      35 | 0x0F22      |        3874 |
|      36 | 0x0F24      |        3876 |
|      37 | 0x0F26      |        3878 |
|      38 | 0x0F27      |        3879 |
|      39 | 0x0F29      |        3881 |
|      40 | 0x0F2A      |        3882 |
|      41 | 0x0F2B      |        3883 |
|      42 | 0x0F2C      |        3884 |
|      43 | 0x0F2D      |        3885 |
|      44 | 0x00F0      |         240 |
|      45 | 0x0000      |           0 |
|      46 | 0x0001      |           1 |
|      47 | 0xFFFE309E  |  4294848670 |
|      48 | 0x1FEFB     |      130811 |
|      49 | 0x0F2F      |        3887 |
|      50 | 0x008C      |         140 |
|      51 | 0x2C93      |       11411 |
|      52 | 0x0F30      |        3888 |
|      53 | 0x2C94      |       11412 |
|      54 | 0x0F31      |        3889 |
|      55 | 0x0F32      |        3890 |
|      56 | 0x0F33      |        3891 |
|      57 | 0x0F34      |        3892 |
|      58 | 0x0F35      |        3893 |
|      59 | 0x0F36      |        3894 |
|      60 | 0x0F37      |        3895 |
|      61 | 0x0F38      |        3896 |
|      62 | 0x0F39      |        3897 |
|      63 | 0x0F3A      |        3898 |
|      64 | 0x0F3C      |        3900 |
|      65 | 0x0F3D      |        3901 |
|      66 | 0x0F3E      |        3902 |
|      67 | 0x0F3F      |        3903 |
|      68 | 0x0F40      |        3904 |
|      69 | 0x0F41      |        3905 |
|      70 | 0x0F42      |        3906 |
|      71 | 0x0F43      |        3907 |
|      72 | 0x0F44      |        3908 |
|      73 | 0x0F45      |        3909 |
|      74 | 0x0F46      |        3910 |
|      75 | 0x0F47      |        3911 |
|      76 | 0x0F48      |        3912 |
|      77 | 0x0F49      |        3913 |
|      78 | 0x0F4A      |        3914 |
|      79 | 0x0F4B      |        3915 |
|      80 | 0x0F4C      |        3916 |
|      81 | 0x0F4D      |        3917 |
|      82 | 0x0F4E      |        3918 |
|      83 | 0x0F4F      |        3919 |
|      84 | 0x0F50      |        3920 |
|      85 | 0x0F51      |        3921 |
|      86 | 0x0F52      |        3922 |
|      87 | 0x0F53      |        3923 |
|      88 | 0x0F54      |        3924 |
|      89 | 0x0F55      |        3925 |
|      90 | 0x0F56      |        3926 |
|      91 | 0x0F57      |        3927 |
|      92 | 0x0F58      |        3928 |
|      93 | 0x09D0      |        2512 |
|      94 | 0x0F59      |        3929 |
|      95 | 0x0F5A      |        3930 |
|      96 | 0x0F5B      |        3931 |
|      97 | 0x0F5C      |        3932 |

## String References

- **3871**: What's the matter, my adventurer frrriend? Overwhelmed by the size of this fine city?
- **3872**: By the looks of it, you've only just arrived in Windurst, rrright?
- **3874**: How do you like it? Windurst is a land of peace and beauty.
- **3876**: Well then, you also well know that Windurst is a land of peace and beauty.
- **3878**: I am Semih Lafihna. I am a perrrsonal guard to the Star Sibyl, who presides over the lands of Windurst.
- **3879**: If you intend on settling in Windurst, feel free to ask me forrr advice. Is there anything you want to know?
- **3881**: I wouldn't recommend running strrraight out to battle, but if you are confident of your abilities, I won't stop you.
- **3882**: If you climb up to the top of this rrroad, it should lead you to the western gatehouse.
- **3883**: Pass through Shiva's Gate to go outside to West Sarutabaruta. The outside world is full of ferrrocious monsters, so you'll have to fend for yourself.
- **3884**: I'm sure you know this already, but before you pick a fight, you should "check" your opponent! Try not to pick a fight with a foe you cannot defeat.
- **3885**: Grrr...? Look what the cat just drrragged in...
- **3889**: Well, do your utmost for the sake of the peace of Windurst and the Star Sibyl. If you do, I'm surrre we'll cross paths again.
- **3890**: Shopping...? Port Windurst, wherrre we are presently, has the most shops out of all of Windurst.
- **3891**: Down along the shore there's a pier where three boats are wharved in a rrrow.
- **3892**: The boat closest to shore houses Kususu's Hoodoos, a magic store. It's perrrfect if you want to buy all the initial magic spells.
- **3893**: The other two boats house Hohbiba-Mubiba's Wands of Wonder, and Guruna-Maguruna Tailoring.
- **3894**: Both magic users and the non-magically inclined alike should be able to fulfill most of their equipment needs therrre.
- **3895**: You'll need plenty of gil if you want to purrrchase the stronger equipment. Monsters you defeat will drop various spoils. I suggest you sell them to increase your gil.
- **3896**: Oh, and on the western docks is the Fishermen's Guild. You can buy any fishing supplies you need there.
- **3897**: I can only pass on to you the rumorrrs that I know...
- **3898**: So, if you don't mind acting on hearsay, then here goes. What kind of inforrrmation are you interested in?
- **3900**: I don't know whether you can call it helping people or not, but you might like to inquire at the Manustery.
- **3901**: The Manustery goes from one harrrdship to another. They can always do with a helping hand.
- **3902**: Oh, the Manustery's Cardian laboratory is in the predominantly Mithra suburrrb known as Windurst Woods.
- **3903**: Follow that road until you reach the air trrravel agency, turn left and you'll see an arrrch that leads to Windurst Woods.
- **3904**: I'll let you find out what Carrrdians are by yourrrself. Heh-heh-heh.
- **3905**: Actually, when you meet the Minister of the Manustery, Apururu, I should get you to ask her when the Minister of the Orrrastery is due ba...
- **3906**: By "easy money," I prrresume you mean jobs that give you gil without having to battle monsters for it?
- **3907**: Then try the hatter in Windurst Waters. The proprietorrr always has some harebrained scheme he wants help with.
- **3908**: To get to Windurst Waters, follow this rrroad back up there...
- **3909**: If I recall, Illu Bohjaa, the dhalmel farmer, has been asking for help in reducing the number of crawlers in these parts.
- **3910**: The dhalmel farm is in the neighboring suburb, Windurst Woods. To get there, follow this road straight ahead and pass through the north arch.
- **3911**: If it's work you're looking forrr, go to one of the gatehouses.
- **3912**: The nearest gatehouse is right therrre, back up that slope behind you.
- **3913**: Gatehouses are special places that hand out missions on behalf of the Federation of Windurst.
- **3914**: As you complete missions obtained from the gatehouses, yourrr rank points will increase.
- **3915**: Collect enough rank points and yourrr rank, or position within this country, will rise. You're currently rank one, by the way.
- **3916**: You can only accept one mission at a time, so you'll have to complete your current task properrrly before you try to move onto the next.
- **3917**: Rise in rank enough, and maybe I'll come to you directly and ask you to do a mission forrr me one day!
- **3918**: I have high hopes for you. I'm sure one day you'll be considerrred an indispensable agent of Windurst.
- **3919**: Well, I'd better get going soon. Wait a moment...! Look what the cat just drrragged in...
- **3920**: Forrrgive me, but I have to run. I'm surrre we will cross paths again, <Player>.
- **3921**: You are in Port Windurst, Windurst's gateway to the air.
- **3922**: Forrr instance, if you cross this open space and follow the path to the east farrr enough, you'll find the air travel agency where the airships operate out of.
- **3923**: In order to ride an airship though, you'll need to have gained quite an amount of fame or forrrtune. But...
- **3924**: ...I'm sure you'll work hard enough to ride on an airrrship one day. You'll then be able to fly to a country called Jeuno.
- **3925**: There are also a lot of shops in this port area. There's the Fishermen's Guild, a magic shop, an armorer and a weapons trader on the wharrrves here.
- **3926**: They might not have an impressive assorrrtment, but I'm sure it is enough for the beginner.
- **3927**: Then finally, there is the most imporrrtant building in the port area, the Orastery and its Mage Academy, that you can see behind me.
- **3928**: The Orastery is one of Windurst's five ministries of magic, most famous forrr its War Warlocks, an army composed of talented mages and magic users.
- **3929**: Only the most elite Tarutaru are affiliated with the War Warlocks, so some are a rrreal handful to keep in line at ti...
- **3930**: Grr...! Speaking of "witch"...
- **3931**: Sorry to cut my explanation short, but I have to go.
- **3932**: Well, do your utmost for the sake of the peace of Windurst and the Star Sibyl. If you do, I'm surrre we'll cross paths again.
- **11412**: I've marked his location on your map so you don't get lost. Select "Map" from the main menu, and choose "markers" and scrrroll to the right.

## Events

### Event 65535

#### Metadata

| Field        | Value   |
|--------------|---------|
| Entrypoint   | 0x0000  |
| Data Size    | 1 bytes |
| Instructions | 1       |

```
      00 01 02 03 04 05 06 07  08 09 0A 0B 0C 0D 0E 0F
      -- -- -- -- -- -- -- --  -- -- -- -- -- -- -- --
0000: 00                                                .               
```

#### Opcodes

```
  0: 0x0000 [0x00] END_REQSTACK()
```

### Event 65535.1

#### Metadata

| Field        | Value    |
|--------------|----------|
| Entrypoint   | 0x0001   |
| Data Size    | 16 bytes |
| Instructions | 2        |

```
      00 01 02 03 04 05 06 07  08 09 0A 0B 0C 0D 0E 0F
      -- -- -- -- -- -- -- --  -- -- -- -- -- -- -- --
0000:    5B 00 80 F8 FF FF 7F  F8 FF FF 7F 74 6C 6B 30   [..........tlk0
0010: 00                                                .               
```

#### Opcodes

```
  0: 0x0001 [0x5B] LOAD_EXT_SCHEDULER: Load scheduler "tlk0" with entities [EventEntity, EventEntity], work=373*
  1: 0x0010 [0x00] END_REQSTACK()
```

### Event 65535.2

#### Metadata

| Field        | Value    |
|--------------|----------|
| Entrypoint   | 0x0011   |
| Data Size    | 14 bytes |
| Instructions | 2        |

```
      00 01 02 03 04 05 06 07  08 09 0A 0B 0C 0D 0E 0F
      -- -- -- -- -- -- -- --  -- -- -- -- -- -- -- --
0010:    53 F8 FF FF 7F F8 FF  FF 7F 74 6C 6B 30 00      S........tlk0. 
```

#### Opcodes

```
  0: 0x0011 [0x53] WAIT_SCHEDULER_TASK: Wait for scheduler "tlk0" with entities [EventEntity, EventEntity]
  1: 0x001E [0x00] END_REQSTACK()
```

### Event 65535.3

#### Metadata

| Field        | Value    |
|--------------|----------|
| Entrypoint   | 0x001F   |
| Data Size    | 37 bytes |
| Instructions | 5        |

```
      00 01 02 03 04 05 06 07  08 09 0A 0B 0C 0D 0E 0F
      -- -- -- -- -- -- -- --  -- -- -- -- -- -- -- --
0010:                                               5B                 [
0020: 00 80 F8 FF FF 7F F8 FF  FF 7F 74 6C 6B 30 53 F8  ..........tlk0S.
0030: FF FF 7F F8 FF FF 7F 74  6C 6B 30 5E 69 64 6C 30  .......tlk0^idl0
0040: 1C 01 80 00                                       ....            
```

#### Opcodes

```
  0: 0x001F [0x5B] LOAD_EXT_SCHEDULER: Load scheduler "tlk0" with entities [EventEntity, EventEntity], work=373*
  1: 0x002E [0x53] WAIT_SCHEDULER_TASK: Wait for scheduler "tlk0" with entities [EventEntity, EventEntity]
  2: 0x003B [0x5E] EventEntity goes idle (kills current action) (animation: "idl0")
  3: 0x0040 [0x1C] WAIT(30* ticks)
  4: 0x0043 [0x00] END_REQSTACK()
```

### Event 65535.4

#### Metadata

| Field        | Value    |
|--------------|----------|
| Entrypoint   | 0x0044   |
| Data Size    | 16 bytes |
| Instructions | 2        |

```
      00 01 02 03 04 05 06 07  08 09 0A 0B 0C 0D 0E 0F
      -- -- -- -- -- -- -- --  -- -- -- -- -- -- -- --
0040:             5B 00 80 F8  FF FF 7F F8 FF FF 7F 74      [..........t
0050: 6C 6B 31 00                                       lk1.            
```

#### Opcodes

```
  0: 0x0044 [0x5B] LOAD_EXT_SCHEDULER: Load scheduler "tlk1" with entities [EventEntity, EventEntity], work=373*
  1: 0x0053 [0x00] END_REQSTACK()
```

### Event 65535.5

#### Metadata

| Field        | Value    |
|--------------|----------|
| Entrypoint   | 0x0054   |
| Data Size    | 14 bytes |
| Instructions | 2        |

```
      00 01 02 03 04 05 06 07  08 09 0A 0B 0C 0D 0E 0F
      -- -- -- -- -- -- -- --  -- -- -- -- -- -- -- --
0050:             53 F8 FF FF  7F F8 FF FF 7F 74 6C 6B      S........tlk
0060: 31 00                                             1.              
```

#### Opcodes

```
  0: 0x0054 [0x53] WAIT_SCHEDULER_TASK: Wait for scheduler "tlk1" with entities [EventEntity, EventEntity]
  1: 0x0061 [0x00] END_REQSTACK()
```

### Event 65535.6

#### Metadata

| Field        | Value    |
|--------------|----------|
| Entrypoint   | 0x0062   |
| Data Size    | 16 bytes |
| Instructions | 2        |

```
      00 01 02 03 04 05 06 07  08 09 0A 0B 0C 0D 0E 0F
      -- -- -- -- -- -- -- --  -- -- -- -- -- -- -- --
0060:       5B 00 80 F8 FF FF  7F F8 FF FF 7F 75 6E 61    [..........una
0070: 30 00                                             0.              
```

#### Opcodes

```
  0: 0x0062 [0x5B] LOAD_EXT_SCHEDULER: Load scheduler "una0" with entities [EventEntity, EventEntity], work=373*
  1: 0x0071 [0x00] END_REQSTACK()
```

### Event 65535.7

#### Metadata

| Field        | Value    |
|--------------|----------|
| Entrypoint   | 0x0072   |
| Data Size    | 14 bytes |
| Instructions | 2        |

```
      00 01 02 03 04 05 06 07  08 09 0A 0B 0C 0D 0E 0F
      -- -- -- -- -- -- -- --  -- -- -- -- -- -- -- --
0070:       53 F8 FF FF 7F F8  FF FF 7F 75 6E 61 30 00    S........una0.
```

#### Opcodes

```
  0: 0x0072 [0x53] WAIT_SCHEDULER_TASK: Wait for scheduler "una0" with entities [EventEntity, EventEntity]
  1: 0x007F [0x00] END_REQSTACK()
```

### Event 65535.8

#### Metadata

| Field        | Value    |
|--------------|----------|
| Entrypoint   | 0x0080   |
| Data Size    | 16 bytes |
| Instructions | 2        |

```
      00 01 02 03 04 05 06 07  08 09 0A 0B 0C 0D 0E 0F
      -- -- -- -- -- -- -- --  -- -- -- -- -- -- -- --
0080: 5B 02 80 F8 FF FF 7F F8  FF FF 7F 74 6C 63 30 00  [..........tlc0.
```

#### Opcodes

```
  0: 0x0080 [0x5B] LOAD_EXT_SCHEDULER: Load scheduler "tlc0" with entities [EventEntity, EventEntity], work=405*
  1: 0x008F [0x00] END_REQSTACK()
```

### Event 65535.9

#### Metadata

| Field        | Value    |
|--------------|----------|
| Entrypoint   | 0x0090   |
| Data Size    | 14 bytes |
| Instructions | 2        |

```
      00 01 02 03 04 05 06 07  08 09 0A 0B 0C 0D 0E 0F
      -- -- -- -- -- -- -- --  -- -- -- -- -- -- -- --
0090: 53 F8 FF FF 7F F8 FF FF  7F 74 6C 63 30 00        S........tlc0.  
```

#### Opcodes

```
  0: 0x0090 [0x53] WAIT_SCHEDULER_TASK: Wait for scheduler "tlc0" with entities [EventEntity, EventEntity]
  1: 0x009D [0x00] END_REQSTACK()
```

### Event 65535.10

#### Metadata

| Field        | Value   |
|--------------|---------|
| Entrypoint   | 0x009E  |
| Data Size    | 1 bytes |
| Instructions | 1       |

```
      00 01 02 03 04 05 06 07  08 09 0A 0B 0C 0D 0E 0F
      -- -- -- -- -- -- -- --  -- -- -- -- -- -- -- --
0090:                                            00                   . 
```

#### Opcodes

```
  0: 0x009E [0x00] END_REQSTACK()
```

### Event 65535.11

#### Metadata

| Field        | Value   |
|--------------|---------|
| Entrypoint   | 0x009F  |
| Data Size    | 1 bytes |
| Instructions | 1       |

```
      00 01 02 03 04 05 06 07  08 09 0A 0B 0C 0D 0E 0F
      -- -- -- -- -- -- -- --  -- -- -- -- -- -- -- --
0090:                                               00                 .
```

#### Opcodes

```
  0: 0x009F [0x00] END_REQSTACK()
```

### Event 65535.12

#### Metadata

| Field        | Value    |
|--------------|----------|
| Entrypoint   | 0x00A0   |
| Data Size    | 16 bytes |
| Instructions | 2        |

```
      00 01 02 03 04 05 06 07  08 09 0A 0B 0C 0D 0E 0F
      -- -- -- -- -- -- -- --  -- -- -- -- -- -- -- --
00A0: 5B 03 80 F8 FF FF 7F F8  FF FF 7F 74 6C 6B 30 00  [..........tlk0.
```

#### Opcodes

```
  0: 0x00A0 [0x5B] LOAD_EXT_SCHEDULER: Load scheduler "tlk0" with entities [EventEntity, EventEntity], work=359*
  1: 0x00AF [0x00] END_REQSTACK()
```

### Event 65535.13

#### Metadata

| Field        | Value    |
|--------------|----------|
| Entrypoint   | 0x00B0   |
| Data Size    | 14 bytes |
| Instructions | 2        |

```
      00 01 02 03 04 05 06 07  08 09 0A 0B 0C 0D 0E 0F
      -- -- -- -- -- -- -- --  -- -- -- -- -- -- -- --
00B0: 53 F8 FF FF 7F F8 FF FF  7F 74 6C 6B 30 00        S........tlk0.  
```

#### Opcodes

```
  0: 0x00B0 [0x53] WAIT_SCHEDULER_TASK: Wait for scheduler "tlk0" with entities [EventEntity, EventEntity]
  1: 0x00BD [0x00] END_REQSTACK()
```

### Event 65535.14

#### Metadata

| Field        | Value    |
|--------------|----------|
| Entrypoint   | 0x00BE   |
| Data Size    | 16 bytes |
| Instructions | 2        |

```
      00 01 02 03 04 05 06 07  08 09 0A 0B 0C 0D 0E 0F
      -- -- -- -- -- -- -- --  -- -- -- -- -- -- -- --
00B0:                                            5B 03                [.
00C0: 80 F8 FF FF 7F F8 FF FF  7F 74 6C 6B 32 00        .........tlk2.  
```

#### Opcodes

```
  0: 0x00BE [0x5B] LOAD_EXT_SCHEDULER: Load scheduler "tlk2" with entities [EventEntity, EventEntity], work=359*
  1: 0x00CD [0x00] END_REQSTACK()
```

### Event 65535.15

#### Metadata

| Field        | Value    |
|--------------|----------|
| Entrypoint   | 0x00CE   |
| Data Size    | 14 bytes |
| Instructions | 2        |

```
      00 01 02 03 04 05 06 07  08 09 0A 0B 0C 0D 0E 0F
      -- -- -- -- -- -- -- --  -- -- -- -- -- -- -- --
00C0:                                            53 F8                S.
00D0: FF FF 7F F8 FF FF 7F 74  6C 6B 32 00              .......tlk2.    
```

#### Opcodes

```
  0: 0x00CE [0x53] WAIT_SCHEDULER_TASK: Wait for scheduler "tlk2" with entities [EventEntity, EventEntity]
  1: 0x00DB [0x00] END_REQSTACK()
```

### Event 65535.16

#### Metadata

| Field        | Value    |
|--------------|----------|
| Entrypoint   | 0x00DC   |
| Data Size    | 16 bytes |
| Instructions | 2        |

```
      00 01 02 03 04 05 06 07  08 09 0A 0B 0C 0D 0E 0F
      -- -- -- -- -- -- -- --  -- -- -- -- -- -- -- --
00D0:                                      5B 04 80 F8              [...
00E0: FF FF 7F F8 FF FF 7F 70  61 73 30 00              .......pas0.    
```

#### Opcodes

```
  0: 0x00DC [0x5B] LOAD_EXT_SCHEDULER: Load scheduler "pas0" with entities [EventEntity, EventEntity], work=365*
  1: 0x00EB [0x00] END_REQSTACK()
```

### Event 65535.17

#### Metadata

| Field        | Value    |
|--------------|----------|
| Entrypoint   | 0x00EC   |
| Data Size    | 14 bytes |
| Instructions | 2        |

```
      00 01 02 03 04 05 06 07  08 09 0A 0B 0C 0D 0E 0F
      -- -- -- -- -- -- -- --  -- -- -- -- -- -- -- --
00E0:                                      53 F8 FF FF              S...
00F0: 7F F8 FF FF 7F 70 61 73  30 00                    .....pas0.      
```

#### Opcodes

```
  0: 0x00EC [0x53] WAIT_SCHEDULER_TASK: Wait for scheduler "pas0" with entities [EventEntity, EventEntity]
  1: 0x00F9 [0x00] END_REQSTACK()
```

### Event 65535.18

#### Metadata

| Field        | Value   |
|--------------|---------|
| Entrypoint   | 0x00FA  |
| Data Size    | 9 bytes |
| Instructions | 3       |

```
      00 01 02 03 04 05 06 07  08 09 0A 0B 0C 0D 0E 0F
      -- -- -- -- -- -- -- --  -- -- -- -- -- -- -- --
00F0:                                5E 69 64 6C 30 1C            ^idl0.
0100: 01 80 00                                          ...             
```

#### Opcodes

```
  0: 0x00FA [0x5E] EventEntity goes idle (kills current action) (animation: "idl0")
  1: 0x00FF [0x1C] WAIT(30* ticks)
  2: 0x0102 [0x00] END_REQSTACK()
```

### Event 65535.19

#### Metadata

| Field        | Value    |
|--------------|----------|
| Entrypoint   | 0x0103   |
| Data Size    | 10 bytes |
| Instructions | 2        |

```
      00 01 02 03 04 05 06 07  08 09 0A 0B 0C 0D 0E 0F
      -- -- -- -- -- -- -- --  -- -- -- -- -- -- -- --
0100:          37 05 80 06 80  07 80 08 80 00              7.........   
```

#### Opcodes

```
  0: 0x0103 [0x37] UPDATE_EVENT_POSITION_AND_DIR: x=-148.828*, z=178.508*, y=-7.100*, direction=221.5°*
  1: 0x010C [0x00] END_REQSTACK()
```

### Event 65535.20

#### Metadata

| Field        | Value    |
|--------------|----------|
| Entrypoint   | 0x010D   |
| Data Size    | 15 bytes |
| Instructions | 5        |

```
      00 01 02 03 04 05 06 07  08 09 0A 0B 0C 0D 0E 0F
      -- -- -- -- -- -- -- --  -- -- -- -- -- -- -- --
0100:                                         32 09 80               2..
0110: 1F 00 0A 80 0B 80 0C 80  1F 01 6F 00              ..........o.    
```

#### Opcodes

```
  0: 0x010D [0x32] ExtData[1]->MainSpeed = 13* * 0.1
  1: 0x0110 [0x1F] MOVE_ENTITY: EventEntity moves to X=-139.044*, Z=171.852*, Y=-6.999*
  2: 0x0118 [0x1F] MOVE_ENTITY: Update entity position (mode=1)
  3: 0x011A [0x6F] WAIT_FRAME_DELAY: Yield until WaitTime reaches zero
  4: 0x011B [0x00] END_REQSTACK()
```

### Event 65535.21

#### Metadata

| Field        | Value    |
|--------------|----------|
| Entrypoint   | 0x011C   |
| Data Size    | 24 bytes |
| Instructions | 6        |

```
      00 01 02 03 04 05 06 07  08 09 0A 0B 0C 0D 0E 0F
      -- -- -- -- -- -- -- --  -- -- -- -- -- -- -- --
0110:                                      32 09 80 37              2..7
0120: 0D 80 0E 80 0F 80 10 80  1F 00 11 80 12 80 13 80  ................
0130: 1F 01 6F 00                                       ..o.            
```

#### Opcodes

```
  0: 0x011C [0x32] ExtData[1]->MainSpeed = 13* * 0.1
  1: 0x011F [0x37] UPDATE_EVENT_POSITION_AND_DIR: x=-136.575*, z=169.827*, y=-6.668*, direction=17.6°*
  2: 0x0128 [0x1F] MOVE_ENTITY: EventEntity moves to X=-133.464*, Z=167.121*, Y=-5.500*
  3: 0x0130 [0x1F] MOVE_ENTITY: Update entity position (mode=1)
  4: 0x0132 [0x6F] WAIT_FRAME_DELAY: Yield until WaitTime reaches zero
  5: 0x0133 [0x00] END_REQSTACK()
```

### Event 65535.22

#### Metadata

| Field        | Value    |
|--------------|----------|
| Entrypoint   | 0x0134   |
| Data Size    | 15 bytes |
| Instructions | 5        |

```
      00 01 02 03 04 05 06 07  08 09 0A 0B 0C 0D 0E 0F
      -- -- -- -- -- -- -- --  -- -- -- -- -- -- -- --
0130:             32 14 80 1F  00 15 80 16 80 13 80 1F      2...........
0140: 01 6F 00                                          .o.             
```

#### Opcodes

```
  0: 0x0134 [0x32] ExtData[1]->MainSpeed = 40* * 0.1
  1: 0x0137 [0x1F] MOVE_ENTITY: EventEntity moves to X=-129.936*, Z=165.226*, Y=-5.500*
  2: 0x013F [0x1F] MOVE_ENTITY: Update entity position (mode=1)
  3: 0x0141 [0x6F] WAIT_FRAME_DELAY: Yield until WaitTime reaches zero
  4: 0x0142 [0x00] END_REQSTACK()
```

### Event 65535.23

#### Metadata

| Field        | Value    |
|--------------|----------|
| Entrypoint   | 0x0143   |
| Data Size    | 15 bytes |
| Instructions | 5        |

```
      00 01 02 03 04 05 06 07  08 09 0A 0B 0C 0D 0E 0F
      -- -- -- -- -- -- -- --  -- -- -- -- -- -- -- --
0140:          32 09 80 1F 00  11 80 12 80 13 80 1F 01     2............
0150: 6F 00                                             o.              
```

#### Opcodes

```
  0: 0x0143 [0x32] ExtData[1]->MainSpeed = 13* * 0.1
  1: 0x0146 [0x1F] MOVE_ENTITY: EventEntity moves to X=-133.464*, Z=167.121*, Y=-5.500*
  2: 0x014E [0x1F] MOVE_ENTITY: Update entity position (mode=1)
  3: 0x0150 [0x6F] WAIT_FRAME_DELAY: Yield until WaitTime reaches zero
  4: 0x0151 [0x00] END_REQSTACK()
```

### Event 65535.24

#### Metadata

| Field        | Value    |
|--------------|----------|
| Entrypoint   | 0x0152   |
| Data Size    | 19 bytes |
| Instructions | 5        |

```
      00 01 02 03 04 05 06 07  08 09 0A 0B 0C 0D 0E 0F
      -- -- -- -- -- -- -- --  -- -- -- -- -- -- -- --
0150:       1C 17 80 4A 0C 00  0F 01 19 00 0F 01 6F 76    ...J........ov
0160: 0C 00 0F 01 00                                    .....           
```

#### Opcodes

```
  0: 0x0152 [0x1C] WAIT(50* ticks)
  1: 0x0155 [0x4A] Semih Lafihna (ID: 17760268/0x010F000C) looks at Ajido-Marujido (ID: 17760281/0x010F0019)
  2: 0x015E [0x6F] WAIT_FRAME_DELAY: Yield until WaitTime reaches zero
  3: 0x015F [0x76] CHECK_ENTITY_RENDER_FLAGS: Wait until Semih Lafihna (ID: 17760268/0x010F000C) Render.Flags0 and Render.Flags3 conditions are met
  4: 0x0164 [0x00] END_REQSTACK()
```

### Event 65535.25

#### Metadata

| Field        | Value    |
|--------------|----------|
| Entrypoint   | 0x0165   |
| Data Size    | 25 bytes |
| Instructions | 7        |

```
      00 01 02 03 04 05 06 07  08 09 0A 0B 0C 0D 0E 0F
      -- -- -- -- -- -- -- --  -- -- -- -- -- -- -- --
0160:                32 14 80  1F 00 18 80 19 80 13 80       2..........
0170: 1F 01 1F 00 1A 80 1B 80  1C 80 1F 01 6F 00        ............o.  
```

#### Opcodes

```
  0: 0x0165 [0x32] ExtData[1]->MainSpeed = 40* * 0.1
  1: 0x0168 [0x1F] MOVE_ENTITY: EventEntity moves to X=-125.784*, Z=170.150*, Y=-5.500*
  2: 0x0170 [0x1F] MOVE_ENTITY: Update entity position (mode=1)
  3: 0x0172 [0x1F] MOVE_ENTITY: EventEntity moves to X=-119.462*, Z=186.296*, Y=-5.584*
  4: 0x017A [0x1F] MOVE_ENTITY: Update entity position (mode=1)
  5: 0x017C [0x6F] WAIT_FRAME_DELAY: Yield until WaitTime reaches zero
  6: 0x017D [0x00] END_REQSTACK()
```

### Event 11

#### Metadata

| Field        | Value    |
|--------------|----------|
| Entrypoint   | 0x017E   |
| Data Size    | 12 bytes |
| Instructions | 3        |

```
      00 01 02 03 04 05 06 07  08 09 0A 0B 0C 0D 0E 0F
      -- -- -- -- -- -- -- --  -- -- -- -- -- -- -- --
0170:                                            37 1D                7.
0180: 80 1E 80 1F 80 20 80 22  01 00                    ..... ."..      
```

#### Opcodes

```
  0: 0x017E [0x37] UPDATE_EVENT_POSITION_AND_DIR: x=-142.261*, z=175.321*, y=-7.000*, direction=59.5°*
  1: 0x0187 [0x22] ENTITY_HIDE_FLAG(enabled=0x01)
  2: 0x0189 [0x00] END_REQSTACK()
```

### Event 305

#### Metadata

| Field        | Value    |
|--------------|----------|
| Entrypoint   | 0x018A   |
| Data Size    | 12 bytes |
| Instructions | 3        |

```
      00 01 02 03 04 05 06 07  08 09 0A 0B 0C 0D 0E 0F
      -- -- -- -- -- -- -- --  -- -- -- -- -- -- -- --
0180:                                37 1D 80 1E 80 1F            7.....
0190: 80 20 80 22 01 00                                 . ."..          
```

#### Opcodes

```
  0: 0x018A [0x37] UPDATE_EVENT_POSITION_AND_DIR: x=-142.261*, z=175.321*, y=-7.000*, direction=59.5°*
  1: 0x0193 [0x22] ENTITY_HIDE_FLAG(enabled=0x01)
  2: 0x0195 [0x00] END_REQSTACK()
```

### Event 65535.26

#### Metadata

| Field        | Value    |
|--------------|----------|
| Entrypoint   | 0x0196   |
| Data Size    | 37 bytes |
| Instructions | 9        |

```
      00 01 02 03 04 05 06 07  08 09 0A 0B 0C 0D 0E 0F
      -- -- -- -- -- -- -- --  -- -- -- -- -- -- -- --
0190:                   29 08  0C 00 0F 01 01 1D 21 80        ).......!.
01A0: 23 1D 22 80 23 29 08 0C  00 0F 01 02 29 08 0C 00  #.".#)......)...
01B0: 0F 01 04 29 08 0C 00 0F  01 05 00                 ...).......     
```

#### Opcodes

```
  0: 0x0196 [0x29] REQ_SET_WAIT(priority=0x08, entity_id=Semih Lafihna (ID: 17760268/0x010F000C), tag_num=0x01)
  1: 0x019D [0x1D] PRINT_EVENT_MESSAGE(message_id=3871*)
    → "What's the matter, my adventurer frrriend? Overwhelmed by the size of this fine city?"
  2: 0x01A0 [0x23] WAIT_FOR_DIALOG_INTERACTION
  3: 0x01A1 [0x1D] PRINT_EVENT_MESSAGE(message_id=3872*)
    → "By the looks of it, you've only just arrived in Windurst, rrright?"
  4: 0x01A4 [0x23] WAIT_FOR_DIALOG_INTERACTION
  5: 0x01A5 [0x29] REQ_SET_WAIT(priority=0x08, entity_id=Semih Lafihna (ID: 17760268/0x010F000C), tag_num=0x02)
  6: 0x01AC [0x29] REQ_SET_WAIT(priority=0x08, entity_id=Semih Lafihna (ID: 17760268/0x010F000C), tag_num=0x04)
  7: 0x01B3 [0x29] REQ_SET_WAIT(priority=0x08, entity_id=Semih Lafihna (ID: 17760268/0x010F000C), tag_num=0x05)
  8: 0x01BA [0x00] END_REQSTACK()
```

### Event 65535.27

#### Metadata

| Field        | Value   |
|--------------|---------|
| Entrypoint   | 0x01BB  |
| Data Size    | 5 bytes |
| Instructions | 3       |

```
      00 01 02 03 04 05 06 07  08 09 0A 0B 0C 0D 0E 0F
      -- -- -- -- -- -- -- --  -- -- -- -- -- -- -- --
01B0:                                   1D 23 80 23 00             .#.#.
```

#### Opcodes

```
  0: 0x01BB [0x1D] PRINT_EVENT_MESSAGE(message_id=3874*)
    → "How do you like it? Windurst is a land of peace and beauty."
  1: 0x01BE [0x23] WAIT_FOR_DIALOG_INTERACTION
  2: 0x01BF [0x00] END_REQSTACK()
```

### Event 65535.28

#### Metadata

| Field        | Value   |
|--------------|---------|
| Entrypoint   | 0x01C0  |
| Data Size    | 5 bytes |
| Instructions | 3       |

```
      00 01 02 03 04 05 06 07  08 09 0A 0B 0C 0D 0E 0F
      -- -- -- -- -- -- -- --  -- -- -- -- -- -- -- --
01C0: 1D 24 80 23 00                                    .$.#.           
```

#### Opcodes

```
  0: 0x01C0 [0x1D] PRINT_EVENT_MESSAGE(message_id=3876*)
    → "Well then, you also well know that Windurst is a land of peace and beauty."
  1: 0x01C3 [0x23] WAIT_FOR_DIALOG_INTERACTION
  2: 0x01C4 [0x00] END_REQSTACK()
```

### Event 65535.29

#### Metadata

| Field        | Value    |
|--------------|----------|
| Entrypoint   | 0x01C5   |
| Data Size    | 37 bytes |
| Instructions | 9        |

```
      00 01 02 03 04 05 06 07  08 09 0A 0B 0C 0D 0E 0F
      -- -- -- -- -- -- -- --  -- -- -- -- -- -- -- --
01C0:                29 08 0C  00 0F 01 01 1D 25 80 23       ).......%.#
01D0: 1D 26 80 23 29 08 0C 00  0F 01 02 29 08 0C 00 0F  .&.#)......)....
01E0: 01 04 29 08 0C 00 0F 01  05 00                    ..).......      
```

#### Opcodes

```
  0: 0x01C5 [0x29] REQ_SET_WAIT(priority=0x08, entity_id=Semih Lafihna (ID: 17760268/0x010F000C), tag_num=0x01)
  1: 0x01CC [0x1D] PRINT_EVENT_MESSAGE(message_id=3878*)
    → "I am Semih Lafihna. I am a perrrsonal guard to the Star Sibyl, who presides over the lands of Windurst."
  2: 0x01CF [0x23] WAIT_FOR_DIALOG_INTERACTION
  3: 0x01D0 [0x1D] PRINT_EVENT_MESSAGE(message_id=3879*)
    → "If you intend on settling in Windurst, feel free to ask me forrr advice. Is there anything you want to know?"
  4: 0x01D3 [0x23] WAIT_FOR_DIALOG_INTERACTION
  5: 0x01D4 [0x29] REQ_SET_WAIT(priority=0x08, entity_id=Semih Lafihna (ID: 17760268/0x010F000C), tag_num=0x02)
  6: 0x01DB [0x29] REQ_SET_WAIT(priority=0x08, entity_id=Semih Lafihna (ID: 17760268/0x010F000C), tag_num=0x04)
  7: 0x01E2 [0x29] REQ_SET_WAIT(priority=0x08, entity_id=Semih Lafihna (ID: 17760268/0x010F000C), tag_num=0x05)
  8: 0x01E9 [0x00] END_REQSTACK()
```

### Event 65535.30

#### Metadata

| Field        | Value    |
|--------------|----------|
| Entrypoint   | 0x01EA   |
| Data Size    | 12 bytes |
| Instructions | 4        |

```
      00 01 02 03 04 05 06 07  08 09 0A 0B 0C 0D 0E 0F
      -- -- -- -- -- -- -- --  -- -- -- -- -- -- -- --
01E0:                                29 08 0C 00 0F 01            ).....
01F0: 08 1D 27 80 23 00                                 ..'.#.          
```

#### Opcodes

```
  0: 0x01EA [0x29] REQ_SET_WAIT(priority=0x08, entity_id=Semih Lafihna (ID: 17760268/0x010F000C), tag_num=0x08)
  1: 0x01F1 [0x1D] PRINT_EVENT_MESSAGE(message_id=3881*)
    → "I wouldn't recommend running strrraight out to battle, but if you are confident of your abilities, I won't stop you."
  2: 0x01F4 [0x23] WAIT_FOR_DIALOG_INTERACTION
  3: 0x01F5 [0x00] END_REQSTACK()
```

### Event 65535.31

#### Metadata

| Field        | Value   |
|--------------|---------|
| Entrypoint   | 0x01F6  |
| Data Size    | 9 bytes |
| Instructions | 5       |

```
      00 01 02 03 04 05 06 07  08 09 0A 0B 0C 0D 0E 0F
      -- -- -- -- -- -- -- --  -- -- -- -- -- -- -- --
01F0:                   1D 28  80 23 1D 29 80 23 00           .(.#.).#. 
```

#### Opcodes

```
  0: 0x01F6 [0x1D] PRINT_EVENT_MESSAGE(message_id=3882*)
    → "If you climb up to the top of this rrroad, it should lead you to the western gatehouse."
  1: 0x01F9 [0x23] WAIT_FOR_DIALOG_INTERACTION
  2: 0x01FA [0x1D] PRINT_EVENT_MESSAGE(message_id=3883*)
    → "Pass through Shiva's Gate to go outside to West Sarutabaruta. The outside world is full of ferrrocious monsters, so you'll have to fend for yourself."
  3: 0x01FD [0x23] WAIT_FOR_DIALOG_INTERACTION
  4: 0x01FE [0x00] END_REQSTACK()
```

### Event 65535.32

#### Metadata

| Field        | Value    |
|--------------|----------|
| Entrypoint   | 0x01FF   |
| Data Size    | 26 bytes |
| Instructions | 6        |

```
      00 01 02 03 04 05 06 07  08 09 0A 0B 0C 0D 0E 0F
      -- -- -- -- -- -- -- --  -- -- -- -- -- -- -- --
01F0:                                               1D                 .
0200: 2A 80 23 29 08 0C 00 0F  01 09 29 08 0C 00 0F 01  *.#)......).....
0210: 0A 29 08 0C 00 0F 01 0B  00                       .).......       
```

#### Opcodes

```
  0: 0x01FF [0x1D] PRINT_EVENT_MESSAGE(message_id=3884*)
    → "I'm sure you know this already, but before you pick a fight, you should "check" your opponent! Try not to pick a fight with a foe you cannot defeat."
  1: 0x0202 [0x23] WAIT_FOR_DIALOG_INTERACTION
  2: 0x0203 [0x29] REQ_SET_WAIT(priority=0x08, entity_id=Semih Lafihna (ID: 17760268/0x010F000C), tag_num=0x09)
  3: 0x020A [0x29] REQ_SET_WAIT(priority=0x08, entity_id=Semih Lafihna (ID: 17760268/0x010F000C), tag_num=0x0A)
  4: 0x0211 [0x29] REQ_SET_WAIT(priority=0x08, entity_id=Semih Lafihna (ID: 17760268/0x010F000C), tag_num=0x0B)
  5: 0x0218 [0x00] END_REQSTACK()
```

### Event 65535.33

#### Metadata

| Field        | Value   |
|--------------|---------|
| Entrypoint   | 0x0219  |
| Data Size    | 5 bytes |
| Instructions | 3       |

```
      00 01 02 03 04 05 06 07  08 09 0A 0B 0C 0D 0E 0F
      -- -- -- -- -- -- -- --  -- -- -- -- -- -- -- --
0210:                             1D 2B 80 23 00                 .+.#.  
```

#### Opcodes

```
  0: 0x0219 [0x1D] PRINT_EVENT_MESSAGE(message_id=3885*)
    → "Grrr...? Look what the cat just drrragged in..."
  1: 0x021C [0x23] WAIT_FOR_DIALOG_INTERACTION
  2: 0x021D [0x00] END_REQSTACK()
```

### Event 65535.34

#### Metadata

| Field        | Value     |
|--------------|-----------|
| Entrypoint   | 0x021E    |
| Data Size    | 161 bytes |
| Instructions | 36        |

```
      00 01 02 03 04 05 06 07  08 09 0A 0B 0C 0D 0E 0F
      -- -- -- -- -- -- -- --  -- -- -- -- -- -- -- --
0210:                                            C8 2C                .,
0220: 80 2D 80 2E 80 8B 2C 80  2D 80 2F 80 30 80 4A 61  .-....,.-./.0.Ja
0230: 63 6B 5F 6F 66 5F 43 6C  75 62 73 00 00 00 1D 31  ck_of_Clubs....1
0240: 80 23 8A 52 32 80 F0 FF  FF 7F F0 FF FF 7F 73 30  .#.R2.........s0
0250: 34 32 45 32 80 F0 FF FF  7F F0 FF FF 7F 73 31 30  42E2.........s10
0260: 35 2D 80 1D 33 80 23 52  32 80 F0 FF FF 7F F0 FF  5-..3.#R2.......
0270: FF 7F 73 31 30 35 52 32  80 F0 FF FF 7F F0 FF FF  ..s105R2........
0280: 7F 73 30 34 32 45 32 80  F0 FF FF 7F F0 FF FF 7F  .s042E2.........
0290: 73 30 34 32 2D 80 29 08  0C 00 0F 01 10 1D 34 80  s042-.).......4.
02A0: 23 29 08 0C 00 0F 01 11  1D 35 80 23 29 08 0C 00  #).......5.#)...
02B0: 0F 01 06 1D 36 80 23 29  08 0C 00 0F 01 07 00     ....6.#)....... 
```

#### Opcodes

```
  0: 0x021E [0xC8] OPEN_MAP_WINDOW(zone=0x802C, submap=0x802D, flag=0x802E)
  1: 0x0225 [0x8B] SET_EVENT_MARK: Add/update map marker on map 240* at (-118.626*, 130.811*), index=0*, name=(no name)
  2: 0x022E [0x4A] Unknown NPC (ID: 1600873313/0x5F6B6361) looks at Unknown NPC (ID: 1130325615/0x435F666F)
  3: 0x0237 [0x6C] FADE_ENTITY_COLOR(entity_id=Unknown NPC (ID: 7561845/0x00736275), end_alpha=ExtData[1]->WorkLocal[0], fade_time=0x311D)
  4: 0x0240 [0x80] LOAD_WAIT(entity=Unknown NPC (ID: 844270115/0x32528A23))
  5: 0x0245 [0x80] LOAD_WAIT(entity=LocalPlayer)
  6: 0x024A [0xF0] UNKNOWN_OPCODE_0xF0
  7: 0x024B [0xFF] UNKNOWN_OPCODE_0xFF
  8: 0x024C [0xFF] UNKNOWN_OPCODE_0xFF
  9: 0x024D [0x7F] WAIT_DIALOG_SELECT_ALT()
 10: 0x024E [0x73] Unknown NPC (ID: 2150778162/0x80324532) casts magic 0x3430 on LocalPlayer
 11: 0x0259 [0xF0] UNKNOWN_OPCODE_0xF0
 12: 0x025A [0xFF] UNKNOWN_OPCODE_0xFF
 13: 0x025B [0xFF] UNKNOWN_OPCODE_0xFF
 14: 0x025C [0x7F] WAIT_DIALOG_SELECT_ALT()
 15: 0x025D [0x73] Unknown NPC (ID: 494939445/0x1D802D35) casts magic 0x3031 on Unknown NPC (ID: 1378058291/0x52238033)
 16: 0x0268 [0x32] ExtData[1]->MainSpeed = 0xF080 * 0.1
 17: 0x026B [0xFF] UNKNOWN_OPCODE_0xFF
 18: 0x026C [0xFF] UNKNOWN_OPCODE_0xFF
 19: 0x026D [0x7F] WAIT_DIALOG_SELECT_ALT()
 20: 0x026E [0xF0] UNKNOWN_OPCODE_0xF0
 21: 0x026F [0xFF] UNKNOWN_OPCODE_0xFF
 22: 0x0270 [0xFF] UNKNOWN_OPCODE_0xFF
 23: 0x0271 [0x7F] WAIT_DIALOG_SELECT_ALT()
 24: 0x0272 [0x73] Unknown NPC (ID: 2150781493/0x80325235) casts magic 0x3031 on LocalPlayer
 25: 0x027D [0xF0] UNKNOWN_OPCODE_0xF0
 26: 0x027E [0xFF] UNKNOWN_OPCODE_0xFF
 27: 0x027F [0xFF] UNKNOWN_OPCODE_0xFF
 28: 0x0280 [0x7F] WAIT_DIALOG_SELECT_ALT()
 29: 0x0281 [0x73] Unknown NPC (ID: 2150778162/0x80324532) casts magic 0x3430 on LocalPlayer
 30: 0x028C [0xF0] UNKNOWN_OPCODE_0xF0
 31: 0x028D [0xFF] UNKNOWN_OPCODE_0xFF
 32: 0x028E [0xFF] UNKNOWN_OPCODE_0xFF
 33: 0x028F [0x7F] WAIT_DIALOG_SELECT_ALT()
 34: 0x0290 [0x73] Unknown NPC (ID: 696266034/0x29802D32) casts magic 0x3430 on Unknown NPC (ID: 251661320/0x0F000C08)
 35: 0x029B [0x01] GOTO 0x1D10
```

#### Data or dead code:

```
# Dead code (unreachable instructions):
     0x029E [0x34] LOAD_UNLOAD_ZONE(zone_id=0x2380)
     0x02A1 [0x29] REQ_SET_WAIT(priority=0x08, entity_id=Semih Lafihna (ID: 17760268/0x010F000C), tag_num=0x11)
     0x02A8 [0x1D] PRINT_EVENT_MESSAGE(message_id=11412*)
    → "I've marked his location on your map so you don't get lost. Select "Map" from the main menu, and choose "markers" and scrrroll to the right."
     0x02AB [0x23] WAIT_FOR_DIALOG_INTERACTION
     0x02AC [0x29] REQ_SET_WAIT(priority=0x08, entity_id=Semih Lafihna (ID: 17760268/0x010F000C), tag_num=0x06)
     0x02B3 [0x1D] PRINT_EVENT_MESSAGE(message_id=3889*)
    → "Well, do your utmost for the sake of the peace of Windurst and the Star Sibyl. If you do, I'm surrre we'll cross paths again."
     0x02B6 [0x23] WAIT_FOR_DIALOG_INTERACTION
     0x02B7 [0x29] REQ_SET_WAIT(priority=0x08, entity_id=Semih Lafihna (ID: 17760268/0x010F000C), tag_num=0x07)
     0x02BE [0x00] END_REQSTACK()
```

### Event 65535.35

#### Metadata

| Field        | Value    |
|--------------|----------|
| Entrypoint   | 0x02BF   |
| Data Size    | 12 bytes |
| Instructions | 4        |

```
      00 01 02 03 04 05 06 07  08 09 0A 0B 0C 0D 0E 0F
      -- -- -- -- -- -- -- --  -- -- -- -- -- -- -- --
02B0:                                               29                 )
02C0: 08 0C 00 0F 01 08 1D 37  80 23 00                 .......7.#.     
```

#### Opcodes

```
  0: 0x02BF [0x29] REQ_SET_WAIT(priority=0x08, entity_id=Semih Lafihna (ID: 17760268/0x010F000C), tag_num=0x08)
  1: 0x02C6 [0x1D] PRINT_EVENT_MESSAGE(message_id=3890*)
    → "Shopping...? Port Windurst, wherrre we are presently, has the most shops out of all of Windurst."
  2: 0x02C9 [0x23] WAIT_FOR_DIALOG_INTERACTION
  3: 0x02CA [0x00] END_REQSTACK()
```

### Event 65535.36

#### Metadata

| Field        | Value   |
|--------------|---------|
| Entrypoint   | 0x02CB  |
| Data Size    | 9 bytes |
| Instructions | 5       |

```
      00 01 02 03 04 05 06 07  08 09 0A 0B 0C 0D 0E 0F
      -- -- -- -- -- -- -- --  -- -- -- -- -- -- -- --
02C0:                                   1D 38 80 23 1D             .8.#.
02D0: 39 80 23 00                                       9.#.            
```

#### Opcodes

```
  0: 0x02CB [0x1D] PRINT_EVENT_MESSAGE(message_id=3891*)
    → "Down along the shore there's a pier where three boats are wharved in a rrrow."
  1: 0x02CE [0x23] WAIT_FOR_DIALOG_INTERACTION
  2: 0x02CF [0x1D] PRINT_EVENT_MESSAGE(message_id=3892*)
    → "The boat closest to shore houses Kususu's Hoodoos, a magic store. It's perrrfect if you want to buy all the initial magic spells."
  3: 0x02D2 [0x23] WAIT_FOR_DIALOG_INTERACTION
  4: 0x02D3 [0x00] END_REQSTACK()
```

### Event 65535.37

#### Metadata

| Field        | Value   |
|--------------|---------|
| Entrypoint   | 0x02D4  |
| Data Size    | 9 bytes |
| Instructions | 5       |

```
      00 01 02 03 04 05 06 07  08 09 0A 0B 0C 0D 0E 0F
      -- -- -- -- -- -- -- --  -- -- -- -- -- -- -- --
02D0:             1D 3A 80 23  1D 3B 80 23 00               .:.#.;.#.   
```

#### Opcodes

```
  0: 0x02D4 [0x1D] PRINT_EVENT_MESSAGE(message_id=3893*)
    → "The other two boats house Hohbiba-Mubiba's Wands of Wonder, and Guruna-Maguruna Tailoring."
  1: 0x02D7 [0x23] WAIT_FOR_DIALOG_INTERACTION
  2: 0x02D8 [0x1D] PRINT_EVENT_MESSAGE(message_id=3894*)
    → "Both magic users and the non-magically inclined alike should be able to fulfill most of their equipment needs therrre."
  3: 0x02DB [0x23] WAIT_FOR_DIALOG_INTERACTION
  4: 0x02DC [0x00] END_REQSTACK()
```

### Event 65535.38

#### Metadata

| Field        | Value    |
|--------------|----------|
| Entrypoint   | 0x02DD   |
| Data Size    | 26 bytes |
| Instructions | 6        |

```
      00 01 02 03 04 05 06 07  08 09 0A 0B 0C 0D 0E 0F
      -- -- -- -- -- -- -- --  -- -- -- -- -- -- -- --
02D0:                                         1D 3C 80               .<.
02E0: 23 29 08 0C 00 0F 01 09  29 08 0C 00 0F 01 0A 29  #)......)......)
02F0: 08 0C 00 0F 01 0B 00                              .......         
```

#### Opcodes

```
  0: 0x02DD [0x1D] PRINT_EVENT_MESSAGE(message_id=3895*)
    → "You'll need plenty of gil if you want to purrrchase the stronger equipment. Monsters you defeat will drop various spoils. I suggest you sell them to increase your gil."
  1: 0x02E0 [0x23] WAIT_FOR_DIALOG_INTERACTION
  2: 0x02E1 [0x29] REQ_SET_WAIT(priority=0x08, entity_id=Semih Lafihna (ID: 17760268/0x010F000C), tag_num=0x09)
  3: 0x02E8 [0x29] REQ_SET_WAIT(priority=0x08, entity_id=Semih Lafihna (ID: 17760268/0x010F000C), tag_num=0x0A)
  4: 0x02EF [0x29] REQ_SET_WAIT(priority=0x08, entity_id=Semih Lafihna (ID: 17760268/0x010F000C), tag_num=0x0B)
  5: 0x02F6 [0x00] END_REQSTACK()
```

### Event 65535.39

#### Metadata

| Field        | Value   |
|--------------|---------|
| Entrypoint   | 0x02F7  |
| Data Size    | 5 bytes |
| Instructions | 3       |

```
      00 01 02 03 04 05 06 07  08 09 0A 0B 0C 0D 0E 0F
      -- -- -- -- -- -- -- --  -- -- -- -- -- -- -- --
02F0:                      1D  3D 80 23 00                     .=.#.    
```

#### Opcodes

```
  0: 0x02F7 [0x1D] PRINT_EVENT_MESSAGE(message_id=3896*)
    → "Oh, and on the western docks is the Fishermen's Guild. You can buy any fishing supplies you need there."
  1: 0x02FA [0x23] WAIT_FOR_DIALOG_INTERACTION
  2: 0x02FB [0x00] END_REQSTACK()
```

### Event 65535.40

#### Metadata

| Field        | Value    |
|--------------|----------|
| Entrypoint   | 0x02FC   |
| Data Size    | 23 bytes |
| Instructions | 7        |

```
      00 01 02 03 04 05 06 07  08 09 0A 0B 0C 0D 0E 0F
      -- -- -- -- -- -- -- --  -- -- -- -- -- -- -- --
02F0:                                      29 08 0C 00              )...
0300: 0F 01 08 1D 3E 80 23 1D  3F 80 23 29 08 0C 00 0F  ....>.#.?.#)....
0310: 01 09 00                                          ...             
```

#### Opcodes

```
  0: 0x02FC [0x29] REQ_SET_WAIT(priority=0x08, entity_id=Semih Lafihna (ID: 17760268/0x010F000C), tag_num=0x08)
  1: 0x0303 [0x1D] PRINT_EVENT_MESSAGE(message_id=3897*)
    → "I can only pass on to you the rumorrrs that I know..."
  2: 0x0306 [0x23] WAIT_FOR_DIALOG_INTERACTION
  3: 0x0307 [0x1D] PRINT_EVENT_MESSAGE(message_id=3898*)
    → "So, if you don't mind acting on hearsay, then here goes. What kind of inforrrmation are you interested in?"
  4: 0x030A [0x23] WAIT_FOR_DIALOG_INTERACTION
  5: 0x030B [0x29] REQ_SET_WAIT(priority=0x08, entity_id=Semih Lafihna (ID: 17760268/0x010F000C), tag_num=0x09)
  6: 0x0312 [0x00] END_REQSTACK()
```

### Event 65535.41

#### Metadata

| Field        | Value    |
|--------------|----------|
| Entrypoint   | 0x0313   |
| Data Size    | 23 bytes |
| Instructions | 7        |

```
      00 01 02 03 04 05 06 07  08 09 0A 0B 0C 0D 0E 0F
      -- -- -- -- -- -- -- --  -- -- -- -- -- -- -- --
0310:          29 08 0C 00 0F  01 0A 1D 40 80 23 1D 41     ).......@.#.A
0320: 80 23 29 08 0C 00 0F 01  0B 00                    .#).......      
```

#### Opcodes

```
  0: 0x0313 [0x29] REQ_SET_WAIT(priority=0x08, entity_id=Semih Lafihna (ID: 17760268/0x010F000C), tag_num=0x0A)
  1: 0x031A [0x1D] PRINT_EVENT_MESSAGE(message_id=3900*)
    → "I don't know whether you can call it helping people or not, but you might like to inquire at the Manustery."
  2: 0x031D [0x23] WAIT_FOR_DIALOG_INTERACTION
  3: 0x031E [0x1D] PRINT_EVENT_MESSAGE(message_id=3901*)
    → "The Manustery goes from one harrrdship to another. They can always do with a helping hand."
  4: 0x0321 [0x23] WAIT_FOR_DIALOG_INTERACTION
  5: 0x0322 [0x29] REQ_SET_WAIT(priority=0x08, entity_id=Semih Lafihna (ID: 17760268/0x010F000C), tag_num=0x0B)
  6: 0x0329 [0x00] END_REQSTACK()
```

### Event 65535.42

#### Metadata

| Field        | Value    |
|--------------|----------|
| Entrypoint   | 0x032A   |
| Data Size    | 37 bytes |
| Instructions | 9        |

```
      00 01 02 03 04 05 06 07  08 09 0A 0B 0C 0D 0E 0F
      -- -- -- -- -- -- -- --  -- -- -- -- -- -- -- --
0320:                                29 08 0C 00 0F 01            ).....
0330: 01 1D 42 80 23 1D 43 80  23 29 08 0C 00 0F 01 02  ..B.#.C.#)......
0340: 29 08 0C 00 0F 01 04 29  08 0C 00 0F 01 05 00     )......)....... 
```

#### Opcodes

```
  0: 0x032A [0x29] REQ_SET_WAIT(priority=0x08, entity_id=Semih Lafihna (ID: 17760268/0x010F000C), tag_num=0x01)
  1: 0x0331 [0x1D] PRINT_EVENT_MESSAGE(message_id=3902*)
    → "Oh, the Manustery's Cardian laboratory is in the predominantly Mithra suburrrb known as Windurst Woods."
  2: 0x0334 [0x23] WAIT_FOR_DIALOG_INTERACTION
  3: 0x0335 [0x1D] PRINT_EVENT_MESSAGE(message_id=3903*)
    → "Follow that road until you reach the air trrravel agency, turn left and you'll see an arrrch that leads to Windurst Woods."
  4: 0x0338 [0x23] WAIT_FOR_DIALOG_INTERACTION
  5: 0x0339 [0x29] REQ_SET_WAIT(priority=0x08, entity_id=Semih Lafihna (ID: 17760268/0x010F000C), tag_num=0x02)
  6: 0x0340 [0x29] REQ_SET_WAIT(priority=0x08, entity_id=Semih Lafihna (ID: 17760268/0x010F000C), tag_num=0x04)
  7: 0x0347 [0x29] REQ_SET_WAIT(priority=0x08, entity_id=Semih Lafihna (ID: 17760268/0x010F000C), tag_num=0x05)
  8: 0x034E [0x00] END_REQSTACK()
```

### Event 65535.43

#### Metadata

| Field        | Value   |
|--------------|---------|
| Entrypoint   | 0x034F  |
| Data Size    | 5 bytes |
| Instructions | 3       |

```
      00 01 02 03 04 05 06 07  08 09 0A 0B 0C 0D 0E 0F
      -- -- -- -- -- -- -- --  -- -- -- -- -- -- -- --
0340:                                               1D                 .
0350: 44 80 23 00                                       D.#.            
```

#### Opcodes

```
  0: 0x034F [0x1D] PRINT_EVENT_MESSAGE(message_id=3904*)
    → "I'll let you find out what Carrrdians are by yourrrself. Heh-heh-heh."
  1: 0x0352 [0x23] WAIT_FOR_DIALOG_INTERACTION
  2: 0x0353 [0x00] END_REQSTACK()
```

### Event 65535.44

#### Metadata

| Field        | Value   |
|--------------|---------|
| Entrypoint   | 0x0354  |
| Data Size    | 5 bytes |
| Instructions | 3       |

```
      00 01 02 03 04 05 06 07  08 09 0A 0B 0C 0D 0E 0F
      -- -- -- -- -- -- -- --  -- -- -- -- -- -- -- --
0350:             1D 45 80 23  00                           .E.#.       
```

#### Opcodes

```
  0: 0x0354 [0x1D] PRINT_EVENT_MESSAGE(message_id=3905*)
    → "Actually, when you meet the Minister of the Manustery, Apururu, I should get you to ask her when the Minister of the Orrrastery is due ba..."
  1: 0x0357 [0x23] WAIT_FOR_DIALOG_INTERACTION
  2: 0x0358 [0x00] END_REQSTACK()
```

### Event 65535.45

#### Metadata

| Field        | Value    |
|--------------|----------|
| Entrypoint   | 0x0359   |
| Data Size    | 19 bytes |
| Instructions | 5        |

```
      00 01 02 03 04 05 06 07  08 09 0A 0B 0C 0D 0E 0F
      -- -- -- -- -- -- -- --  -- -- -- -- -- -- -- --
0350:                             29 08 0C 00 0F 01 0A           )......
0360: 1D 46 80 23 29 08 0C 00  0F 01 0B 00              .F.#).......    
```

#### Opcodes

```
  0: 0x0359 [0x29] REQ_SET_WAIT(priority=0x08, entity_id=Semih Lafihna (ID: 17760268/0x010F000C), tag_num=0x0A)
  1: 0x0360 [0x1D] PRINT_EVENT_MESSAGE(message_id=3906*)
    → "By "easy money," I prrresume you mean jobs that give you gil without having to battle monsters for it?"
  2: 0x0363 [0x23] WAIT_FOR_DIALOG_INTERACTION
  3: 0x0364 [0x29] REQ_SET_WAIT(priority=0x08, entity_id=Semih Lafihna (ID: 17760268/0x010F000C), tag_num=0x0B)
  4: 0x036B [0x00] END_REQSTACK()
```

### Event 65535.46

#### Metadata

| Field        | Value   |
|--------------|---------|
| Entrypoint   | 0x036C  |
| Data Size    | 5 bytes |
| Instructions | 3       |

```
      00 01 02 03 04 05 06 07  08 09 0A 0B 0C 0D 0E 0F
      -- -- -- -- -- -- -- --  -- -- -- -- -- -- -- --
0360:                                      1D 47 80 23              .G.#
0370: 00                                                .               
```

#### Opcodes

```
  0: 0x036C [0x1D] PRINT_EVENT_MESSAGE(message_id=3907*)
    → "Then try the hatter in Windurst Waters. The proprietorrr always has some harebrained scheme he wants help with."
  1: 0x036F [0x23] WAIT_FOR_DIALOG_INTERACTION
  2: 0x0370 [0x00] END_REQSTACK()
```

### Event 65535.47

#### Metadata

| Field        | Value   |
|--------------|---------|
| Entrypoint   | 0x0371  |
| Data Size    | 5 bytes |
| Instructions | 3       |

```
      00 01 02 03 04 05 06 07  08 09 0A 0B 0C 0D 0E 0F
      -- -- -- -- -- -- -- --  -- -- -- -- -- -- -- --
0370:    1D 48 80 23 00                                  .H.#.          
```

#### Opcodes

```
  0: 0x0371 [0x1D] PRINT_EVENT_MESSAGE(message_id=3908*)
    → "To get to Windurst Waters, follow this rrroad back up there..."
  1: 0x0374 [0x23] WAIT_FOR_DIALOG_INTERACTION
  2: 0x0375 [0x00] END_REQSTACK()
```

### Event 65535.48

#### Metadata

| Field        | Value    |
|--------------|----------|
| Entrypoint   | 0x0376   |
| Data Size    | 23 bytes |
| Instructions | 7        |

```
      00 01 02 03 04 05 06 07  08 09 0A 0B 0C 0D 0E 0F
      -- -- -- -- -- -- -- --  -- -- -- -- -- -- -- --
0370:                   29 08  0C 00 0F 01 0A 1D 49 80        ).......I.
0380: 23 1D 4A 80 23 29 08 0C  00 0F 01 0B 00           #.J.#).......   
```

#### Opcodes

```
  0: 0x0376 [0x29] REQ_SET_WAIT(priority=0x08, entity_id=Semih Lafihna (ID: 17760268/0x010F000C), tag_num=0x0A)
  1: 0x037D [0x1D] PRINT_EVENT_MESSAGE(message_id=3909*)
    → "If I recall, Illu Bohjaa, the dhalmel farmer, has been asking for help in reducing the number of crawlers in these parts."
  2: 0x0380 [0x23] WAIT_FOR_DIALOG_INTERACTION
  3: 0x0381 [0x1D] PRINT_EVENT_MESSAGE(message_id=3910*)
    → "The dhalmel farm is in the neighboring suburb, Windurst Woods. To get there, follow this road straight ahead and pass through the north arch."
  4: 0x0384 [0x23] WAIT_FOR_DIALOG_INTERACTION
  5: 0x0385 [0x29] REQ_SET_WAIT(priority=0x08, entity_id=Semih Lafihna (ID: 17760268/0x010F000C), tag_num=0x0B)
  6: 0x038C [0x00] END_REQSTACK()
```

### Event 65535.49

#### Metadata

| Field        | Value    |
|--------------|----------|
| Entrypoint   | 0x038D   |
| Data Size    | 16 bytes |
| Instructions | 6        |

```
      00 01 02 03 04 05 06 07  08 09 0A 0B 0C 0D 0E 0F
      -- -- -- -- -- -- -- --  -- -- -- -- -- -- -- --
0380:                                         29 08 0C               )..
0390: 00 0F 01 08 1D 4B 80 23  1D 4C 80 23 00           .....K.#.L.#.   
```

#### Opcodes

```
  0: 0x038D [0x29] REQ_SET_WAIT(priority=0x08, entity_id=Semih Lafihna (ID: 17760268/0x010F000C), tag_num=0x08)
  1: 0x0394 [0x1D] PRINT_EVENT_MESSAGE(message_id=3911*)
    → "If it's work you're looking forrr, go to one of the gatehouses."
  2: 0x0397 [0x23] WAIT_FOR_DIALOG_INTERACTION
  3: 0x0398 [0x1D] PRINT_EVENT_MESSAGE(message_id=3912*)
    → "The nearest gatehouse is right therrre, back up that slope behind you."
  4: 0x039B [0x23] WAIT_FOR_DIALOG_INTERACTION
  5: 0x039C [0x00] END_REQSTACK()
```

### Event 65535.50

#### Metadata

| Field        | Value   |
|--------------|---------|
| Entrypoint   | 0x039D  |
| Data Size    | 5 bytes |
| Instructions | 3       |

```
      00 01 02 03 04 05 06 07  08 09 0A 0B 0C 0D 0E 0F
      -- -- -- -- -- -- -- --  -- -- -- -- -- -- -- --
0390:                                         1D 4D 80               .M.
03A0: 23 00                                             #.              
```

#### Opcodes

```
  0: 0x039D [0x1D] PRINT_EVENT_MESSAGE(message_id=3913*)
    → "Gatehouses are special places that hand out missions on behalf of the Federation of Windurst."
  1: 0x03A0 [0x23] WAIT_FOR_DIALOG_INTERACTION
  2: 0x03A1 [0x00] END_REQSTACK()
```

### Event 65535.51

#### Metadata

| Field        | Value   |
|--------------|---------|
| Entrypoint   | 0x03A2  |
| Data Size    | 9 bytes |
| Instructions | 5       |

```
      00 01 02 03 04 05 06 07  08 09 0A 0B 0C 0D 0E 0F
      -- -- -- -- -- -- -- --  -- -- -- -- -- -- -- --
03A0:       1D 4E 80 23 1D 4F  80 23 00                   .N.#.O.#.     
```

#### Opcodes

```
  0: 0x03A2 [0x1D] PRINT_EVENT_MESSAGE(message_id=3914*)
    → "As you complete missions obtained from the gatehouses, yourrr rank points will increase."
  1: 0x03A5 [0x23] WAIT_FOR_DIALOG_INTERACTION
  2: 0x03A6 [0x1D] PRINT_EVENT_MESSAGE(message_id=3915*)
    → "Collect enough rank points and yourrr rank, or position within this country, will rise. You're currently rank one, by the way."
  3: 0x03A9 [0x23] WAIT_FOR_DIALOG_INTERACTION
  4: 0x03AA [0x00] END_REQSTACK()
```

### Event 65535.52

#### Metadata

| Field        | Value    |
|--------------|----------|
| Entrypoint   | 0x03AB   |
| Data Size    | 23 bytes |
| Instructions | 7        |

```
      00 01 02 03 04 05 06 07  08 09 0A 0B 0C 0D 0E 0F
      -- -- -- -- -- -- -- --  -- -- -- -- -- -- -- --
03A0:                                   1D 50 80 23 1D             .P.#.
03B0: 51 80 23 29 08 0C 00 0F  01 0A 29 08 0C 00 0F 01  Q.#)......).....
03C0: 0B 00                                             ..              
```

#### Opcodes

```
  0: 0x03AB [0x1D] PRINT_EVENT_MESSAGE(message_id=3916*)
    → "You can only accept one mission at a time, so you'll have to complete your current task properrrly before you try to move onto the next."
  1: 0x03AE [0x23] WAIT_FOR_DIALOG_INTERACTION
  2: 0x03AF [0x1D] PRINT_EVENT_MESSAGE(message_id=3917*)
    → "Rise in rank enough, and maybe I'll come to you directly and ask you to do a mission forrr me one day!"
  3: 0x03B2 [0x23] WAIT_FOR_DIALOG_INTERACTION
  4: 0x03B3 [0x29] REQ_SET_WAIT(priority=0x08, entity_id=Semih Lafihna (ID: 17760268/0x010F000C), tag_num=0x0A)
  5: 0x03BA [0x29] REQ_SET_WAIT(priority=0x08, entity_id=Semih Lafihna (ID: 17760268/0x010F000C), tag_num=0x0B)
  6: 0x03C1 [0x00] END_REQSTACK()
```

### Event 65535.53

#### Metadata

| Field        | Value    |
|--------------|----------|
| Entrypoint   | 0x03C2   |
| Data Size    | 33 bytes |
| Instructions | 7        |

```
      00 01 02 03 04 05 06 07  08 09 0A 0B 0C 0D 0E 0F
      -- -- -- -- -- -- -- --  -- -- -- -- -- -- -- --
03C0:       29 08 0C 00 0F 01  01 1D 52 80 23 29 08 0C    ).......R.#)..
03D0: 00 0F 01 02 29 08 0C 00  0F 01 04 29 08 0C 00 0F  ....)......)....
03E0: 01 05 00                                          ...             
```

#### Opcodes

```
  0: 0x03C2 [0x29] REQ_SET_WAIT(priority=0x08, entity_id=Semih Lafihna (ID: 17760268/0x010F000C), tag_num=0x01)
  1: 0x03C9 [0x1D] PRINT_EVENT_MESSAGE(message_id=3918*)
    → "I have high hopes for you. I'm sure one day you'll be considerrred an indispensable agent of Windurst."
  2: 0x03CC [0x23] WAIT_FOR_DIALOG_INTERACTION
  3: 0x03CD [0x29] REQ_SET_WAIT(priority=0x08, entity_id=Semih Lafihna (ID: 17760268/0x010F000C), tag_num=0x02)
  4: 0x03D4 [0x29] REQ_SET_WAIT(priority=0x08, entity_id=Semih Lafihna (ID: 17760268/0x010F000C), tag_num=0x04)
  5: 0x03DB [0x29] REQ_SET_WAIT(priority=0x08, entity_id=Semih Lafihna (ID: 17760268/0x010F000C), tag_num=0x05)
  6: 0x03E2 [0x00] END_REQSTACK()
```

### Event 65535.54

#### Metadata

| Field        | Value   |
|--------------|---------|
| Entrypoint   | 0x03E3  |
| Data Size    | 5 bytes |
| Instructions | 3       |

```
      00 01 02 03 04 05 06 07  08 09 0A 0B 0C 0D 0E 0F
      -- -- -- -- -- -- -- --  -- -- -- -- -- -- -- --
03E0:          1D 53 80 23 00                              .S.#.        
```

#### Opcodes

```
  0: 0x03E3 [0x1D] PRINT_EVENT_MESSAGE(message_id=3919*)
    → "Well, I'd better get going soon. Wait a moment...! Look what the cat just drrragged in..."
  1: 0x03E6 [0x23] WAIT_FOR_DIALOG_INTERACTION
  2: 0x03E7 [0x00] END_REQSTACK()
```

### Event 65535.55

#### Metadata

| Field        | Value   |
|--------------|---------|
| Entrypoint   | 0x03E8  |
| Data Size    | 5 bytes |
| Instructions | 3       |

```
      00 01 02 03 04 05 06 07  08 09 0A 0B 0C 0D 0E 0F
      -- -- -- -- -- -- -- --  -- -- -- -- -- -- -- --
03E0:                          1D 54 80 23 00                   .T.#.   
```

#### Opcodes

```
  0: 0x03E8 [0x1D] PRINT_EVENT_MESSAGE(message_id=3920*)
    → "Forrrgive me, but I have to run. I'm surrre we will cross paths again, <Player>."
  1: 0x03EB [0x23] WAIT_FOR_DIALOG_INTERACTION
  2: 0x03EC [0x00] END_REQSTACK()
```

### Event 65535.56

#### Metadata

| Field        | Value    |
|--------------|----------|
| Entrypoint   | 0x03ED   |
| Data Size    | 12 bytes |
| Instructions | 4        |

```
      00 01 02 03 04 05 06 07  08 09 0A 0B 0C 0D 0E 0F
      -- -- -- -- -- -- -- --  -- -- -- -- -- -- -- --
03E0:                                         29 08 0C               )..
03F0: 00 0F 01 08 1D 55 80 23  00                       .....U.#.       
```

#### Opcodes

```
  0: 0x03ED [0x29] REQ_SET_WAIT(priority=0x08, entity_id=Semih Lafihna (ID: 17760268/0x010F000C), tag_num=0x08)
  1: 0x03F4 [0x1D] PRINT_EVENT_MESSAGE(message_id=3921*)
    → "You are in Port Windurst, Windurst's gateway to the air."
  2: 0x03F7 [0x23] WAIT_FOR_DIALOG_INTERACTION
  3: 0x03F8 [0x00] END_REQSTACK()
```

### Event 65535.57

#### Metadata

| Field        | Value    |
|--------------|----------|
| Entrypoint   | 0x03F9   |
| Data Size    | 27 bytes |
| Instructions | 9        |

```
      00 01 02 03 04 05 06 07  08 09 0A 0B 0C 0D 0E 0F
      -- -- -- -- -- -- -- --  -- -- -- -- -- -- -- --
03F0:                             1D 56 80 23 1D 57 80           .V.#.W.
0400: 23 1D 58 80 23 29 08 0C  00 0F 01 0A 29 08 0C 00  #.X.#)......)...
0410: 0F 01 0B 00                                       ....            
```

#### Opcodes

```
  0: 0x03F9 [0x1D] PRINT_EVENT_MESSAGE(message_id=3922*)
    → "Forrr instance, if you cross this open space and follow the path to the east farrr enough, you'll find the air travel agency where the airships operate out of."
  1: 0x03FC [0x23] WAIT_FOR_DIALOG_INTERACTION
  2: 0x03FD [0x1D] PRINT_EVENT_MESSAGE(message_id=3923*)
    → "In order to ride an airship though, you'll need to have gained quite an amount of fame or forrrtune. But..."
  3: 0x0400 [0x23] WAIT_FOR_DIALOG_INTERACTION
  4: 0x0401 [0x1D] PRINT_EVENT_MESSAGE(message_id=3924*)
    → "...I'm sure you'll work hard enough to ride on an airrrship one day. You'll then be able to fly to a country called Jeuno."
  5: 0x0404 [0x23] WAIT_FOR_DIALOG_INTERACTION
  6: 0x0405 [0x29] REQ_SET_WAIT(priority=0x08, entity_id=Semih Lafihna (ID: 17760268/0x010F000C), tag_num=0x0A)
  7: 0x040C [0x29] REQ_SET_WAIT(priority=0x08, entity_id=Semih Lafihna (ID: 17760268/0x010F000C), tag_num=0x0B)
  8: 0x0413 [0x00] END_REQSTACK()
```

### Event 65535.58

#### Metadata

| Field        | Value   |
|--------------|---------|
| Entrypoint   | 0x0414  |
| Data Size    | 9 bytes |
| Instructions | 5       |

```
      00 01 02 03 04 05 06 07  08 09 0A 0B 0C 0D 0E 0F
      -- -- -- -- -- -- -- --  -- -- -- -- -- -- -- --
0410:             1D 59 80 23  1D 5A 80 23 00               .Y.#.Z.#.   
```

#### Opcodes

```
  0: 0x0414 [0x1D] PRINT_EVENT_MESSAGE(message_id=3925*)
    → "There are also a lot of shops in this port area. There's the Fishermen's Guild, a magic shop, an armorer and a weapons trader on the wharrrves here."
  1: 0x0417 [0x23] WAIT_FOR_DIALOG_INTERACTION
  2: 0x0418 [0x1D] PRINT_EVENT_MESSAGE(message_id=3926*)
    → "They might not have an impressive assorrrtment, but I'm sure it is enough for the beginner."
  3: 0x041B [0x23] WAIT_FOR_DIALOG_INTERACTION
  4: 0x041C [0x00] END_REQSTACK()
```

### Event 65535.59

#### Metadata

| Field        | Value    |
|--------------|----------|
| Entrypoint   | 0x041D   |
| Data Size    | 20 bytes |
| Instructions | 8        |

```
      00 01 02 03 04 05 06 07  08 09 0A 0B 0C 0D 0E 0F
      -- -- -- -- -- -- -- --  -- -- -- -- -- -- -- --
0410:                                         1D 5B 80               .[.
0420: 23 1D 5C 80 23 4B 0C 00  0F 01 5D 80 1D 5E 80 23  #.\.#K....]..^.#
0430: 00                                                .               
```

#### Opcodes

```
  0: 0x041D [0x1D] PRINT_EVENT_MESSAGE(message_id=3927*)
    → "Then finally, there is the most imporrrtant building in the port area, the Orastery and its Mage Academy, that you can see behind me."
  1: 0x0420 [0x23] WAIT_FOR_DIALOG_INTERACTION
  2: 0x0421 [0x1D] PRINT_EVENT_MESSAGE(message_id=3928*)
    → "The Orastery is one of Windurst's five ministries of magic, most famous forrr its War Warlocks, an army composed of talented mages and magic users."
  3: 0x0424 [0x23] WAIT_FOR_DIALOG_INTERACTION
  4: 0x0425 [0x4B] UPDATE_ENTITY_YAW(entity=Semih Lafihna (ID: 17760268/0x010F000C), yaw=13.8°*)
  5: 0x042C [0x1D] PRINT_EVENT_MESSAGE(message_id=3929*)
    → "Only the most elite Tarutaru are affiliated with the War Warlocks, so some are a rrreal handful to keep in line at ti..."
  6: 0x042F [0x23] WAIT_FOR_DIALOG_INTERACTION
  7: 0x0430 [0x00] END_REQSTACK()
```

### Event 65535.60

#### Metadata

| Field        | Value   |
|--------------|---------|
| Entrypoint   | 0x0431  |
| Data Size    | 5 bytes |
| Instructions | 3       |

```
      00 01 02 03 04 05 06 07  08 09 0A 0B 0C 0D 0E 0F
      -- -- -- -- -- -- -- --  -- -- -- -- -- -- -- --
0430:    1D 5F 80 23 00                                  ._.#.          
```

#### Opcodes

```
  0: 0x0431 [0x1D] PRINT_EVENT_MESSAGE(message_id=3930*)
    → "Grr...! Speaking of "witch"..."
  1: 0x0434 [0x23] WAIT_FOR_DIALOG_INTERACTION
  2: 0x0435 [0x00] END_REQSTACK()
```

### Event 65535.61

#### Metadata

| Field        | Value    |
|--------------|----------|
| Entrypoint   | 0x0436   |
| Data Size    | 37 bytes |
| Instructions | 9        |

```
      00 01 02 03 04 05 06 07  08 09 0A 0B 0C 0D 0E 0F
      -- -- -- -- -- -- -- --  -- -- -- -- -- -- -- --
0430:                   29 08  0C 00 0F 01 01 1D 60 80        ).......`.
0440: 23 1D 61 80 23 29 08 0C  00 0F 01 02 29 08 0C 00  #.a.#)......)...
0450: 0F 01 04 29 08 0C 00 0F  01 05 00                 ...).......     
```

#### Opcodes

```
  0: 0x0436 [0x29] REQ_SET_WAIT(priority=0x08, entity_id=Semih Lafihna (ID: 17760268/0x010F000C), tag_num=0x01)
  1: 0x043D [0x1D] PRINT_EVENT_MESSAGE(message_id=3931*)
    → "Sorry to cut my explanation short, but I have to go."
  2: 0x0440 [0x23] WAIT_FOR_DIALOG_INTERACTION
  3: 0x0441 [0x1D] PRINT_EVENT_MESSAGE(message_id=3932*)
    → "Well, do your utmost for the sake of the peace of Windurst and the Star Sibyl. If you do, I'm surrre we'll cross paths again."
  4: 0x0444 [0x23] WAIT_FOR_DIALOG_INTERACTION
  5: 0x0445 [0x29] REQ_SET_WAIT(priority=0x08, entity_id=Semih Lafihna (ID: 17760268/0x010F000C), tag_num=0x02)
  6: 0x044C [0x29] REQ_SET_WAIT(priority=0x08, entity_id=Semih Lafihna (ID: 17760268/0x010F000C), tag_num=0x04)
  7: 0x0453 [0x29] REQ_SET_WAIT(priority=0x08, entity_id=Semih Lafihna (ID: 17760268/0x010F000C), tag_num=0x05)
  8: 0x045A [0x00] END_REQSTACK()
```
