# 17760281 - Ajido-Marujido

## Common Data

| Field            | Value                   |
|------------------|-------------------------|
| Zone             | Port Windurst (ID: 240) |
| Block Size       | 1100 bytes              |
| Total Events     | 46                      |
| References Count | 52                      |

## List of Events

| Event ID                   | Entrypoint   |   Size |   Instructions |
|----------------------------|--------------|--------|----------------|
| [65535](#event-65535)      | 0x0000       |      1 |              1 |
| [65535.1](#event-655351)   | 0x0001       |     16 |              2 |
| [65535.2](#event-655352)   | 0x0011       |     14 |              2 |
| [65535.3](#event-655353)   | 0x001F       |     16 |              2 |
| [65535.4](#event-655354)   | 0x002F       |     14 |              2 |
| [65535.5](#event-655355)   | 0x003D       |     16 |              2 |
| [65535.6](#event-655356)   | 0x004D       |     14 |              2 |
| [65535.7](#event-655357)   | 0x005B       |     16 |              2 |
| [65535.8](#event-655358)   | 0x006B       |     14 |              2 |
| [65535.9](#event-655359)   | 0x0079       |     16 |              2 |
| [65535.10](#event-6553510) | 0x0089       |     14 |              2 |
| [65535.11](#event-6553511) | 0x0097       |     16 |              2 |
| [65535.12](#event-6553512) | 0x00A7       |     14 |              2 |
| [65535.13](#event-6553513) | 0x00B5       |     16 |              2 |
| [65535.14](#event-6553514) | 0x00C5       |     14 |              2 |
| [65535.15](#event-6553515) | 0x00D3       |     16 |              2 |
| [65535.16](#event-6553516) | 0x00E3       |     14 |              2 |
| [65535.17](#event-6553517) | 0x00F1       |     16 |              2 |
| [65535.18](#event-6553518) | 0x0101       |     14 |              2 |
| [65535.19](#event-6553519) | 0x010F       |     16 |              2 |
| [65535.20](#event-6553520) | 0x011F       |     22 |              4 |
| [65535.21](#event-6553521) | 0x0135       |     16 |              2 |
| [65535.22](#event-6553522) | 0x0145       |     14 |              2 |
| [65535.23](#event-6553523) | 0x0153       |      9 |              3 |
| [11](#event-11)            | 0x015C       |      1 |              1 |
| [305](#event-305)          | 0x015D       |     12 |              3 |
| [65535.24](#event-6553524) | 0x0169       |     36 |              9 |
| [265](#event-265)          | 0x018D       |      3 |              2 |
| [65535.25](#event-6553525) | 0x0190       |     10 |              2 |
| [65535.26](#event-6553526) | 0x019A       |     15 |              5 |
| [65535.27](#event-6553527) | 0x01A9       |     15 |              5 |
| [65535.28](#event-6553528) | 0x01B8       |     15 |              5 |
| [65535.29](#event-6553529) | 0x01C7       |      5 |              3 |
| [65535.30](#event-6553530) | 0x01CC       |     19 |              5 |
| [65535.31](#event-6553531) | 0x01DF       |     19 |              5 |
| [65535.32](#event-6553532) | 0x01F2       |     19 |              5 |
| [65535.33](#event-6553533) | 0x0205       |     32 |              8 |
| [65535.34](#event-6553534) | 0x0225       |     19 |              5 |
| [65535.35](#event-6553535) | 0x0238       |      5 |              3 |
| [65535.36](#event-6553536) | 0x023D       |     19 |              5 |
| [456](#event-456)          | 0x0250       |      1 |              1 |
| [65535.37](#event-6553537) | 0x0251       |     10 |              2 |
| [65535.38](#event-6553538) | 0x025B       |     34 |              8 |
| [65535.39](#event-6553539) | 0x027D       |     14 |              4 |
| [65535.40](#event-6553540) | 0x028B       |     19 |              5 |
| [65535.41](#event-6553541) | 0x029E       |     19 |              5 |

## DAT References (imed_data)

|   Index | Hex Value   |   Dec Value |
|---------|-------------|-------------|
|       0 | 0x00A5      |         165 |
|       1 | 0x0151      |         337 |
|       2 | 0x0155      |         341 |
|       3 | 0x001E      |          30 |
|       4 | 0x0153      |         339 |
|       5 | 0xFFFE43CE  |  4294853582 |
|       6 | 0x22CBD     |      142525 |
|       7 | 0xFFFFF181  |  4294963585 |
|       8 | 0x0B52      |        2898 |
|       9 | 0x0028      |          40 |
|      10 | 0xFFFE311B  |  4294848795 |
|      11 | 0x2D371     |      185201 |
|      12 | 0xFFFFEA61  |  4294961761 |
|      13 | 0xFFFE33B5  |  4294849461 |
|      14 | 0x30B03     |      199427 |
|      15 | 0xFFFFE46B  |  4294960235 |
|      16 | 0xFFFE472C  |  4294854444 |
|      17 | 0x18188     |       98696 |
|      18 | 0xFFFFEF67  |  4294963047 |
|      19 | 0x0D7F      |        3455 |
|      20 | 0x000D      |          13 |
|      21 | 0xFFFE4AC1  |  4294855361 |
|      22 | 0x180A0     |       98464 |
|      23 | 0xFFFE4AA4  |  4294855332 |
|      24 | 0x17C41     |       97345 |
|      25 | 0xFFFE343A  |  4294849594 |
|      26 | 0x17CFD     |       97533 |
|      27 | 0xFFFFF254  |  4294963796 |
|      28 | 0x0E8D      |        3725 |
|      29 | 0x0E8E      |        3726 |
|      30 | 0x0E92      |        3730 |
|      31 | 0x0E94      |        3732 |
|      32 | 0x0E97      |        3735 |
|      33 | 0x0E98      |        3736 |
|      34 | 0x0E9B      |        3739 |
|      35 | 0x0E9C      |        3740 |
|      36 | 0x0E9E      |        3742 |
|      37 | 0xFFFE234D  |  4294845261 |
|      38 | 0x18964     |      100708 |
|      39 | 0xFFFFF34F  |  4294964047 |
|      40 | 0x0C5B      |        3163 |
|      41 | 0xFFFE2498  |  4294845592 |
|      42 | 0x18F1B     |      102171 |
|      43 | 0xFFFFF34E  |  4294964046 |
|      44 | 0xFFFE26E6  |  4294846182 |
|      45 | 0x19349     |      103241 |
|      46 | 0xFFFE2C19  |  4294847513 |
|      47 | 0x1938C     |      103308 |
|      48 | 0xFFFE1D88  |  4294843784 |
|      49 | 0x1D001     |      118785 |
|      50 | 0x2FF9      |       12281 |
|      51 | 0x2FFA      |       12282 |

## String References

- **3725**: Oi...!
- **3726**: Oi! Are you okay?
- **3730**: Doctor Shantotto!
- **3732**: ......
- **3735**: So, what was it you were trying to do in my absence?
- **3736**: Wouldn't your time be better spent improving your magic abilities rather than playing in a magic competition?
- **3739**: You're talking about next year's budget, rightaru?
- **3740**: Oh, I've already placed the orders with Jeuno. I bought swords, axes, armor, shields...
- **3742**: Hahaha, I bought them for you boys in Operations, silly! Anyway, that should keep you busy working on them for a while. See you around, boys. Ta-taru.
- **12281**: Are you listening? I wantaru you to go under the southwestern tower in West Sarutabaruta and press the switch in the laboratory.
- **12282**: That's the lastaru one. If all goes well, the magic towers will be activated!

## Events

### Event 65535

#### Metadata

| Field        | Value   |
|--------------|---------|
| Entrypoint   | 0x0000  |
| Data Size    | 1 bytes |
| Instructions | 1       |

```
      00 01 02 03 04 05 06 07  08 09 0A 0B 0C 0D 0E 0F
      -- -- -- -- -- -- -- --  -- -- -- -- -- -- -- --
0000: 00                                                .               
```

#### Opcodes

```
  0: 0x0000 [0x00] END_REQSTACK()
```

### Event 65535.1

#### Metadata

| Field        | Value    |
|--------------|----------|
| Entrypoint   | 0x0001   |
| Data Size    | 16 bytes |
| Instructions | 2        |

```
      00 01 02 03 04 05 06 07  08 09 0A 0B 0C 0D 0E 0F
      -- -- -- -- -- -- -- --  -- -- -- -- -- -- -- --
0000:    5B 00 80 F8 FF FF 7F  F8 FF FF 7F 74 6C 6B 30   [..........tlk0
0010: 00                                                .               
```

#### Opcodes

```
  0: 0x0001 [0x5B] LOAD_EXT_SCHEDULER: Load scheduler "tlk0" with entities [EventEntity, EventEntity], work=165*
  1: 0x0010 [0x00] END_REQSTACK()
```

### Event 65535.2

#### Metadata

| Field        | Value    |
|--------------|----------|
| Entrypoint   | 0x0011   |
| Data Size    | 14 bytes |
| Instructions | 2        |

```
      00 01 02 03 04 05 06 07  08 09 0A 0B 0C 0D 0E 0F
      -- -- -- -- -- -- -- --  -- -- -- -- -- -- -- --
0010:    53 F8 FF FF 7F F8 FF  FF 7F 74 6C 6B 30 00      S........tlk0. 
```

#### Opcodes

```
  0: 0x0011 [0x53] WAIT_SCHEDULER_TASK: Wait for scheduler "tlk0" with entities [EventEntity, EventEntity]
  1: 0x001E [0x00] END_REQSTACK()
```

### Event 65535.3

#### Metadata

| Field        | Value    |
|--------------|----------|
| Entrypoint   | 0x001F   |
| Data Size    | 16 bytes |
| Instructions | 2        |

```
      00 01 02 03 04 05 06 07  08 09 0A 0B 0C 0D 0E 0F
      -- -- -- -- -- -- -- --  -- -- -- -- -- -- -- --
0010:                                               5B                 [
0020: 00 80 F8 FF FF 7F F8 FF  FF 7F 74 6C 6B 31 00     ..........tlk1. 
```

#### Opcodes

```
  0: 0x001F [0x5B] LOAD_EXT_SCHEDULER: Load scheduler "tlk1" with entities [EventEntity, EventEntity], work=165*
  1: 0x002E [0x00] END_REQSTACK()
```

### Event 65535.4

#### Metadata

| Field        | Value    |
|--------------|----------|
| Entrypoint   | 0x002F   |
| Data Size    | 14 bytes |
| Instructions | 2        |

```
      00 01 02 03 04 05 06 07  08 09 0A 0B 0C 0D 0E 0F
      -- -- -- -- -- -- -- --  -- -- -- -- -- -- -- --
0020:                                               53                 S
0030: F8 FF FF 7F F8 FF FF 7F  74 6C 6B 31 00           ........tlk1.   
```

#### Opcodes

```
  0: 0x002F [0x53] WAIT_SCHEDULER_TASK: Wait for scheduler "tlk1" with entities [EventEntity, EventEntity]
  1: 0x003C [0x00] END_REQSTACK()
```

### Event 65535.5

#### Metadata

| Field        | Value    |
|--------------|----------|
| Entrypoint   | 0x003D   |
| Data Size    | 16 bytes |
| Instructions | 2        |

```
      00 01 02 03 04 05 06 07  08 09 0A 0B 0C 0D 0E 0F
      -- -- -- -- -- -- -- --  -- -- -- -- -- -- -- --
0030:                                         5B 00 80               [..
0040: F8 FF FF 7F F8 FF FF 7F  6B 62 6B 30 00           ........kbk0.   
```

#### Opcodes

```
  0: 0x003D [0x5B] LOAD_EXT_SCHEDULER: Load scheduler "kbk0" with entities [EventEntity, EventEntity], work=165*
  1: 0x004C [0x00] END_REQSTACK()
```

### Event 65535.6

#### Metadata

| Field        | Value    |
|--------------|----------|
| Entrypoint   | 0x004D   |
| Data Size    | 14 bytes |
| Instructions | 2        |

```
      00 01 02 03 04 05 06 07  08 09 0A 0B 0C 0D 0E 0F
      -- -- -- -- -- -- -- --  -- -- -- -- -- -- -- --
0040:                                         53 F8 FF               S..
0050: FF 7F F8 FF FF 7F 6B 62  6B 30 00                 ......kbk0.     
```

#### Opcodes

```
  0: 0x004D [0x53] WAIT_SCHEDULER_TASK: Wait for scheduler "kbk0" with entities [EventEntity, EventEntity]
  1: 0x005A [0x00] END_REQSTACK()
```

### Event 65535.7

#### Metadata

| Field        | Value    |
|--------------|----------|
| Entrypoint   | 0x005B   |
| Data Size    | 16 bytes |
| Instructions | 2        |

```
      00 01 02 03 04 05 06 07  08 09 0A 0B 0C 0D 0E 0F
      -- -- -- -- -- -- -- --  -- -- -- -- -- -- -- --
0050:                                   5B 00 80 F8 FF             [....
0060: FF 7F F8 FF FF 7F 6B 62  6B 31 00                 ......kbk1.     
```

#### Opcodes

```
  0: 0x005B [0x5B] LOAD_EXT_SCHEDULER: Load scheduler "kbk1" with entities [EventEntity, EventEntity], work=165*
  1: 0x006A [0x00] END_REQSTACK()
```

### Event 65535.8

#### Metadata

| Field        | Value    |
|--------------|----------|
| Entrypoint   | 0x006B   |
| Data Size    | 14 bytes |
| Instructions | 2        |

```
      00 01 02 03 04 05 06 07  08 09 0A 0B 0C 0D 0E 0F
      -- -- -- -- -- -- -- --  -- -- -- -- -- -- -- --
0060:                                   53 F8 FF FF 7F             S....
0070: F8 FF FF 7F 6B 62 6B 31  00                       ....kbk1.       
```

#### Opcodes

```
  0: 0x006B [0x53] WAIT_SCHEDULER_TASK: Wait for scheduler "kbk1" with entities [EventEntity, EventEntity]
  1: 0x0078 [0x00] END_REQSTACK()
```

### Event 65535.9

#### Metadata

| Field        | Value    |
|--------------|----------|
| Entrypoint   | 0x0079   |
| Data Size    | 16 bytes |
| Instructions | 2        |

```
      00 01 02 03 04 05 06 07  08 09 0A 0B 0C 0D 0E 0F
      -- -- -- -- -- -- -- --  -- -- -- -- -- -- -- --
0070:                             5B 00 80 F8 FF FF 7F           [......
0080: F8 FF FF 7F 73 70 70 30  00                       ....spp0.       
```

#### Opcodes

```
  0: 0x0079 [0x5B] LOAD_EXT_SCHEDULER: Load scheduler "spp0" with entities [EventEntity, EventEntity], work=165*
  1: 0x0088 [0x00] END_REQSTACK()
```

### Event 65535.10

#### Metadata

| Field        | Value    |
|--------------|----------|
| Entrypoint   | 0x0089   |
| Data Size    | 14 bytes |
| Instructions | 2        |

```
      00 01 02 03 04 05 06 07  08 09 0A 0B 0C 0D 0E 0F
      -- -- -- -- -- -- -- --  -- -- -- -- -- -- -- --
0080:                             53 F8 FF FF 7F F8 FF           S......
0090: FF 7F 73 70 70 30 00                              ..spp0.         
```

#### Opcodes

```
  0: 0x0089 [0x53] WAIT_SCHEDULER_TASK: Wait for scheduler "spp0" with entities [EventEntity, EventEntity]
  1: 0x0096 [0x00] END_REQSTACK()
```

### Event 65535.11

#### Metadata

| Field        | Value    |
|--------------|----------|
| Entrypoint   | 0x0097   |
| Data Size    | 16 bytes |
| Instructions | 2        |

```
      00 01 02 03 04 05 06 07  08 09 0A 0B 0C 0D 0E 0F
      -- -- -- -- -- -- -- --  -- -- -- -- -- -- -- --
0090:                      5B  00 80 F8 FF FF 7F F8 FF         [........
00A0: FF 7F 73 70 70 31 00                              ..spp1.         
```

#### Opcodes

```
  0: 0x0097 [0x5B] LOAD_EXT_SCHEDULER: Load scheduler "spp1" with entities [EventEntity, EventEntity], work=165*
  1: 0x00A6 [0x00] END_REQSTACK()
```

### Event 65535.12

#### Metadata

| Field        | Value    |
|--------------|----------|
| Entrypoint   | 0x00A7   |
| Data Size    | 14 bytes |
| Instructions | 2        |

```
      00 01 02 03 04 05 06 07  08 09 0A 0B 0C 0D 0E 0F
      -- -- -- -- -- -- -- --  -- -- -- -- -- -- -- --
00A0:                      53  F8 FF FF 7F F8 FF FF 7F         S........
00B0: 73 70 70 31 00                                    spp1.           
```

#### Opcodes

```
  0: 0x00A7 [0x53] WAIT_SCHEDULER_TASK: Wait for scheduler "spp1" with entities [EventEntity, EventEntity]
  1: 0x00B4 [0x00] END_REQSTACK()
```

### Event 65535.13

#### Metadata

| Field        | Value    |
|--------------|----------|
| Entrypoint   | 0x00B5   |
| Data Size    | 16 bytes |
| Instructions | 2        |

```
      00 01 02 03 04 05 06 07  08 09 0A 0B 0C 0D 0E 0F
      -- -- -- -- -- -- -- --  -- -- -- -- -- -- -- --
00B0:                5B 01 80  F8 FF FF 7F F8 FF FF 7F       [..........
00C0: 74 68 6B 31 00                                    thk1.           
```

#### Opcodes

```
  0: 0x00B5 [0x5B] LOAD_EXT_SCHEDULER: Load scheduler "thk1" with entities [EventEntity, EventEntity], work=337*
  1: 0x00C4 [0x00] END_REQSTACK()
```

### Event 65535.14

#### Metadata

| Field        | Value    |
|--------------|----------|
| Entrypoint   | 0x00C5   |
| Data Size    | 14 bytes |
| Instructions | 2        |

```
      00 01 02 03 04 05 06 07  08 09 0A 0B 0C 0D 0E 0F
      -- -- -- -- -- -- -- --  -- -- -- -- -- -- -- --
00C0:                53 F8 FF  FF 7F F8 FF FF 7F 74 68       S........th
00D0: 6B 31 00                                          k1.             
```

#### Opcodes

```
  0: 0x00C5 [0x53] WAIT_SCHEDULER_TASK: Wait for scheduler "thk1" with entities [EventEntity, EventEntity]
  1: 0x00D2 [0x00] END_REQSTACK()
```

### Event 65535.15

#### Metadata

| Field        | Value    |
|--------------|----------|
| Entrypoint   | 0x00D3   |
| Data Size    | 16 bytes |
| Instructions | 2        |

```
      00 01 02 03 04 05 06 07  08 09 0A 0B 0C 0D 0E 0F
      -- -- -- -- -- -- -- --  -- -- -- -- -- -- -- --
00D0:          5B 01 80 F8 FF  FF 7F F8 FF FF 7F 74 68     [..........th
00E0: 6B 32 00                                          k2.             
```

#### Opcodes

```
  0: 0x00D3 [0x5B] LOAD_EXT_SCHEDULER: Load scheduler "thk2" with entities [EventEntity, EventEntity], work=337*
  1: 0x00E2 [0x00] END_REQSTACK()
```

### Event 65535.16

#### Metadata

| Field        | Value    |
|--------------|----------|
| Entrypoint   | 0x00E3   |
| Data Size    | 14 bytes |
| Instructions | 2        |

```
      00 01 02 03 04 05 06 07  08 09 0A 0B 0C 0D 0E 0F
      -- -- -- -- -- -- -- --  -- -- -- -- -- -- -- --
00E0:          53 F8 FF FF 7F  F8 FF FF 7F 74 68 6B 32     S........thk2
00F0: 00                                                .               
```

#### Opcodes

```
  0: 0x00E3 [0x53] WAIT_SCHEDULER_TASK: Wait for scheduler "thk2" with entities [EventEntity, EventEntity]
  1: 0x00F0 [0x00] END_REQSTACK()
```

### Event 65535.17

#### Metadata

| Field        | Value    |
|--------------|----------|
| Entrypoint   | 0x00F1   |
| Data Size    | 16 bytes |
| Instructions | 2        |

```
      00 01 02 03 04 05 06 07  08 09 0A 0B 0C 0D 0E 0F
      -- -- -- -- -- -- -- --  -- -- -- -- -- -- -- --
00F0:    5B 01 80 F8 FF FF 7F  F8 FF FF 7F 70 61 73 30   [..........pas0
0100: 00                                                .               
```

#### Opcodes

```
  0: 0x00F1 [0x5B] LOAD_EXT_SCHEDULER: Load scheduler "pas0" with entities [EventEntity, EventEntity], work=337*
  1: 0x0100 [0x00] END_REQSTACK()
```

### Event 65535.18

#### Metadata

| Field        | Value    |
|--------------|----------|
| Entrypoint   | 0x0101   |
| Data Size    | 14 bytes |
| Instructions | 2        |

```
      00 01 02 03 04 05 06 07  08 09 0A 0B 0C 0D 0E 0F
      -- -- -- -- -- -- -- --  -- -- -- -- -- -- -- --
0100:    53 F8 FF FF 7F F8 FF  FF 7F 70 61 73 30 00      S........pas0. 
```

#### Opcodes

```
  0: 0x0101 [0x53] WAIT_SCHEDULER_TASK: Wait for scheduler "pas0" with entities [EventEntity, EventEntity]
  1: 0x010E [0x00] END_REQSTACK()
```

### Event 65535.19

#### Metadata

| Field        | Value    |
|--------------|----------|
| Entrypoint   | 0x010F   |
| Data Size    | 16 bytes |
| Instructions | 2        |

```
      00 01 02 03 04 05 06 07  08 09 0A 0B 0C 0D 0E 0F
      -- -- -- -- -- -- -- --  -- -- -- -- -- -- -- --
0100:                                               5B                 [
0110: 02 80 F8 FF FF 7F F8 FF  FF 7F 62 69 6B 30 00     ..........bik0. 
```

#### Opcodes

```
  0: 0x010F [0x5B] LOAD_EXT_SCHEDULER: Load scheduler "bik0" with entities [EventEntity, EventEntity], work=341*
  1: 0x011E [0x00] END_REQSTACK()
```

### Event 65535.20

#### Metadata

| Field        | Value    |
|--------------|----------|
| Entrypoint   | 0x011F   |
| Data Size    | 22 bytes |
| Instructions | 4        |

```
      00 01 02 03 04 05 06 07  08 09 0A 0B 0C 0D 0E 0F
      -- -- -- -- -- -- -- --  -- -- -- -- -- -- -- --
0110:                                               53                 S
0120: F8 FF FF 7F F8 FF FF 7F  62 69 6B 30 5E 69 64 6C  ........bik0^idl
0130: 30 1C 03 80 00                                    0....           
```

#### Opcodes

```
  0: 0x011F [0x53] WAIT_SCHEDULER_TASK: Wait for scheduler "bik0" with entities [EventEntity, EventEntity]
  1: 0x012C [0x5E] EventEntity goes idle (kills current action) (animation: "idl0")
  2: 0x0131 [0x1C] WAIT(30* ticks)
  3: 0x0134 [0x00] END_REQSTACK()
```

### Event 65535.21

#### Metadata

| Field        | Value    |
|--------------|----------|
| Entrypoint   | 0x0135   |
| Data Size    | 16 bytes |
| Instructions | 2        |

```
      00 01 02 03 04 05 06 07  08 09 0A 0B 0C 0D 0E 0F
      -- -- -- -- -- -- -- --  -- -- -- -- -- -- -- --
0130:                5B 04 80  F8 FF FF 7F F8 FF FF 7F       [..........
0140: 73 68 6B 30 00                                    shk0.           
```

#### Opcodes

```
  0: 0x0135 [0x5B] LOAD_EXT_SCHEDULER: Load scheduler "shk0" with entities [EventEntity, EventEntity], work=339*
  1: 0x0144 [0x00] END_REQSTACK()
```

### Event 65535.22

#### Metadata

| Field        | Value    |
|--------------|----------|
| Entrypoint   | 0x0145   |
| Data Size    | 14 bytes |
| Instructions | 2        |

```
      00 01 02 03 04 05 06 07  08 09 0A 0B 0C 0D 0E 0F
      -- -- -- -- -- -- -- --  -- -- -- -- -- -- -- --
0140:                53 F8 FF  FF 7F F8 FF FF 7F 73 68       S........sh
0150: 6B 30 00                                          k0.             
```

#### Opcodes

```
  0: 0x0145 [0x53] WAIT_SCHEDULER_TASK: Wait for scheduler "shk0" with entities [EventEntity, EventEntity]
  1: 0x0152 [0x00] END_REQSTACK()
```

### Event 65535.23

#### Metadata

| Field        | Value   |
|--------------|---------|
| Entrypoint   | 0x0153  |
| Data Size    | 9 bytes |
| Instructions | 3       |

```
      00 01 02 03 04 05 06 07  08 09 0A 0B 0C 0D 0E 0F
      -- -- -- -- -- -- -- --  -- -- -- -- -- -- -- --
0150:          5E 69 64 6C 30  1C 03 80 00                 ^idl0....    
```

#### Opcodes

```
  0: 0x0153 [0x5E] EventEntity goes idle (kills current action) (animation: "idl0")
  1: 0x0158 [0x1C] WAIT(30* ticks)
  2: 0x015B [0x00] END_REQSTACK()
```

### Event 11

#### Metadata

| Field        | Value   |
|--------------|---------|
| Entrypoint   | 0x015C  |
| Data Size    | 1 bytes |
| Instructions | 1       |

```
      00 01 02 03 04 05 06 07  08 09 0A 0B 0C 0D 0E 0F
      -- -- -- -- -- -- -- --  -- -- -- -- -- -- -- --
0150:                                      00                       .   
```

#### Opcodes

```
  0: 0x015C [0x00] END_REQSTACK()
```

### Event 305

#### Metadata

| Field        | Value    |
|--------------|----------|
| Entrypoint   | 0x015D   |
| Data Size    | 12 bytes |
| Instructions | 3        |

```
      00 01 02 03 04 05 06 07  08 09 0A 0B 0C 0D 0E 0F
      -- -- -- -- -- -- -- --  -- -- -- -- -- -- -- --
0150:                                         22 01 37               ".7
0160: 05 80 06 80 07 80 08 80  00                       .........       
```

#### Opcodes

```
  0: 0x015D [0x22] ENTITY_HIDE_FLAG(enabled=0x01)
  1: 0x015F [0x37] UPDATE_EVENT_POSITION_AND_DIR: x=-113.714*, z=142.525*, y=-3.711*, direction=254.7°*
  2: 0x0168 [0x00] END_REQSTACK()
```

### Event 65535.24

#### Metadata

| Field        | Value    |
|--------------|----------|
| Entrypoint   | 0x0169   |
| Data Size    | 36 bytes |
| Instructions | 9        |

```
      00 01 02 03 04 05 06 07  08 09 0A 0B 0C 0D 0E 0F
      -- -- -- -- -- -- -- --  -- -- -- -- -- -- -- --
0160:                             37 05 80 06 80 07 80           7......
0170: 08 80 22 00 32 09 80 1F  00 0A 80 0B 80 0C 80 1F  ..".2...........
0180: 01 1F 00 0D 80 0E 80 0F  80 1F 01 6F 00           ...........o.   
```

#### Opcodes

```
  0: 0x0169 [0x37] UPDATE_EVENT_POSITION_AND_DIR: x=-113.714*, z=142.525*, y=-3.711*, direction=254.7°*
  1: 0x0172 [0x22] ENTITY_HIDE_FLAG(enabled=0x00)
  2: 0x0174 [0x32] ExtData[1]->MainSpeed = 40* * 0.1
  3: 0x0177 [0x1F] MOVE_ENTITY: EventEntity moves to X=-118.501*, Z=185.201*, Y=-5.535*
  4: 0x017F [0x1F] MOVE_ENTITY: Update entity position (mode=1)
  5: 0x0181 [0x1F] MOVE_ENTITY: EventEntity moves to X=-117.835*, Z=199.427*, Y=-7.061*
  6: 0x0189 [0x1F] MOVE_ENTITY: Update entity position (mode=1)
  7: 0x018B [0x6F] WAIT_FRAME_DELAY: Yield until WaitTime reaches zero
  8: 0x018C [0x00] END_REQSTACK()
```

### Event 265

#### Metadata

| Field        | Value   |
|--------------|---------|
| Entrypoint   | 0x018D  |
| Data Size    | 3 bytes |
| Instructions | 2       |

```
      00 01 02 03 04 05 06 07  08 09 0A 0B 0C 0D 0E 0F
      -- -- -- -- -- -- -- --  -- -- -- -- -- -- -- --
0180:                                         22 01 00               "..
```

#### Opcodes

```
  0: 0x018D [0x22] ENTITY_HIDE_FLAG(enabled=0x01)
  1: 0x018F [0x00] END_REQSTACK()
```

### Event 65535.25

#### Metadata

| Field        | Value    |
|--------------|----------|
| Entrypoint   | 0x0190   |
| Data Size    | 10 bytes |
| Instructions | 2        |

```
      00 01 02 03 04 05 06 07  08 09 0A 0B 0C 0D 0E 0F
      -- -- -- -- -- -- -- --  -- -- -- -- -- -- -- --
0190: 37 10 80 11 80 12 80 13  80 00                    7.........      
```

#### Opcodes

```
  0: 0x0190 [0x37] UPDATE_EVENT_POSITION_AND_DIR: x=-112.852*, z=98.696*, y=-4.249*, direction=303.7°*
  1: 0x0199 [0x00] END_REQSTACK()
```

### Event 65535.26

#### Metadata

| Field        | Value    |
|--------------|----------|
| Entrypoint   | 0x019A   |
| Data Size    | 15 bytes |
| Instructions | 5        |

```
      00 01 02 03 04 05 06 07  08 09 0A 0B 0C 0D 0E 0F
      -- -- -- -- -- -- -- --  -- -- -- -- -- -- -- --
0190:                                32 14 80 1F 00 15            2.....
01A0: 80 16 80 12 80 1F 01 6F  00                       .......o.       
```

#### Opcodes

```
  0: 0x019A [0x32] ExtData[1]->MainSpeed = 13* * 0.1
  1: 0x019D [0x1F] MOVE_ENTITY: EventEntity moves to X=-111.935*, Z=98.464*, Y=-4.249*
  2: 0x01A5 [0x1F] MOVE_ENTITY: Update entity position (mode=1)
  3: 0x01A7 [0x6F] WAIT_FRAME_DELAY: Yield until WaitTime reaches zero
  4: 0x01A8 [0x00] END_REQSTACK()
```

### Event 65535.27

#### Metadata

| Field        | Value    |
|--------------|----------|
| Entrypoint   | 0x01A9   |
| Data Size    | 15 bytes |
| Instructions | 5        |

```
      00 01 02 03 04 05 06 07  08 09 0A 0B 0C 0D 0E 0F
      -- -- -- -- -- -- -- --  -- -- -- -- -- -- -- --
01A0:                             32 14 80 1F 00 17 80           2......
01B0: 18 80 12 80 1F 01 6F 00                           ......o.        
```

#### Opcodes

```
  0: 0x01A9 [0x32] ExtData[1]->MainSpeed = 13* * 0.1
  1: 0x01AC [0x1F] MOVE_ENTITY: EventEntity moves to X=-111.964*, Z=97.345*, Y=-4.249*
  2: 0x01B4 [0x1F] MOVE_ENTITY: Update entity position (mode=1)
  3: 0x01B6 [0x6F] WAIT_FRAME_DELAY: Yield until WaitTime reaches zero
  4: 0x01B7 [0x00] END_REQSTACK()
```

### Event 65535.28

#### Metadata

| Field        | Value    |
|--------------|----------|
| Entrypoint   | 0x01B8   |
| Data Size    | 15 bytes |
| Instructions | 5        |

```
      00 01 02 03 04 05 06 07  08 09 0A 0B 0C 0D 0E 0F
      -- -- -- -- -- -- -- --  -- -- -- -- -- -- -- --
01B0:                          32 14 80 1F 00 19 80 1A          2.......
01C0: 80 1B 80 1F 01 6F 00                              .....o.         
```

#### Opcodes

```
  0: 0x01B8 [0x32] ExtData[1]->MainSpeed = 13* * 0.1
  1: 0x01BB [0x1F] MOVE_ENTITY: EventEntity moves to X=-117.702*, Z=97.533*, Y=-3.500*
  2: 0x01C3 [0x1F] MOVE_ENTITY: Update entity position (mode=1)
  3: 0x01C5 [0x6F] WAIT_FRAME_DELAY: Yield until WaitTime reaches zero
  4: 0x01C6 [0x00] END_REQSTACK()
```

### Event 65535.29

#### Metadata

| Field        | Value   |
|--------------|---------|
| Entrypoint   | 0x01C7  |
| Data Size    | 5 bytes |
| Instructions | 3       |

```
      00 01 02 03 04 05 06 07  08 09 0A 0B 0C 0D 0E 0F
      -- -- -- -- -- -- -- --  -- -- -- -- -- -- -- --
01C0:                      1D  1C 80 23 00                     ...#.    
```

#### Opcodes

```
  0: 0x01C7 [0x1D] PRINT_EVENT_MESSAGE(message_id=3725*)
    → "Oi...!"
  1: 0x01CA [0x23] WAIT_FOR_DIALOG_INTERACTION
  2: 0x01CB [0x00] END_REQSTACK()
```

### Event 65535.30

#### Metadata

| Field        | Value    |
|--------------|----------|
| Entrypoint   | 0x01CC   |
| Data Size    | 19 bytes |
| Instructions | 5        |

```
      00 01 02 03 04 05 06 07  08 09 0A 0B 0C 0D 0E 0F
      -- -- -- -- -- -- -- --  -- -- -- -- -- -- -- --
01C0:                                      29 08 19 00              )...
01D0: 0F 01 01 1D 1D 80 23 29  08 19 00 0F 01 02 00     ......#)....... 
```

#### Opcodes

```
  0: 0x01CC [0x29] REQ_SET_WAIT(priority=0x08, entity_id=Ajido-Marujido (ID: 17760281/0x010F0019), tag_num=0x01)
  1: 0x01D3 [0x1D] PRINT_EVENT_MESSAGE(message_id=3726*)
    → "Oi! Are you okay?"
  2: 0x01D6 [0x23] WAIT_FOR_DIALOG_INTERACTION
  3: 0x01D7 [0x29] REQ_SET_WAIT(priority=0x08, entity_id=Ajido-Marujido (ID: 17760281/0x010F0019), tag_num=0x02)
  4: 0x01DE [0x00] END_REQSTACK()
```

### Event 65535.31

#### Metadata

| Field        | Value    |
|--------------|----------|
| Entrypoint   | 0x01DF   |
| Data Size    | 19 bytes |
| Instructions | 5        |

```
      00 01 02 03 04 05 06 07  08 09 0A 0B 0C 0D 0E 0F
      -- -- -- -- -- -- -- --  -- -- -- -- -- -- -- --
01D0:                                               29                 )
01E0: 08 19 00 0F 01 01 1D 1E  80 23 29 08 19 00 0F 01  .........#).....
01F0: 02 00                                             ..              
```

#### Opcodes

```
  0: 0x01DF [0x29] REQ_SET_WAIT(priority=0x08, entity_id=Ajido-Marujido (ID: 17760281/0x010F0019), tag_num=0x01)
  1: 0x01E6 [0x1D] PRINT_EVENT_MESSAGE(message_id=3730*)
    → "Doctor Shantotto!"
  2: 0x01E9 [0x23] WAIT_FOR_DIALOG_INTERACTION
  3: 0x01EA [0x29] REQ_SET_WAIT(priority=0x08, entity_id=Ajido-Marujido (ID: 17760281/0x010F0019), tag_num=0x02)
  4: 0x01F1 [0x00] END_REQSTACK()
```

### Event 65535.32

#### Metadata

| Field        | Value    |
|--------------|----------|
| Entrypoint   | 0x01F2   |
| Data Size    | 19 bytes |
| Instructions | 5        |

```
      00 01 02 03 04 05 06 07  08 09 0A 0B 0C 0D 0E 0F
      -- -- -- -- -- -- -- --  -- -- -- -- -- -- -- --
01F0:       29 08 19 00 0F 01  01 1D 1F 80 23 29 08 19    ).........#)..
0200: 00 0F 01 02 00                                    .....           
```

#### Opcodes

```
  0: 0x01F2 [0x29] REQ_SET_WAIT(priority=0x08, entity_id=Ajido-Marujido (ID: 17760281/0x010F0019), tag_num=0x01)
  1: 0x01F9 [0x1D] PRINT_EVENT_MESSAGE(message_id=3732*)
    → "......"
  2: 0x01FC [0x23] WAIT_FOR_DIALOG_INTERACTION
  3: 0x01FD [0x29] REQ_SET_WAIT(priority=0x08, entity_id=Ajido-Marujido (ID: 17760281/0x010F0019), tag_num=0x02)
  4: 0x0204 [0x00] END_REQSTACK()
```

### Event 65535.33

#### Metadata

| Field        | Value    |
|--------------|----------|
| Entrypoint   | 0x0205   |
| Data Size    | 32 bytes |
| Instructions | 8        |

```
      00 01 02 03 04 05 06 07  08 09 0A 0B 0C 0D 0E 0F
      -- -- -- -- -- -- -- --  -- -- -- -- -- -- -- --
0200:                1D 20 80  23 4A 11 00 0F 01 19 00       . .#J......
0210: 0F 01 29 08 19 00 0F 01  0D 1D 21 80 23 29 08 19  ..).......!.#)..
0220: 00 0F 01 0E 00                                    .....           
```

#### Opcodes

```
  0: 0x0205 [0x1D] PRINT_EVENT_MESSAGE(message_id=3735*)
    → "So, what was it you were trying to do in my absence?"
  1: 0x0208 [0x23] WAIT_FOR_DIALOG_INTERACTION
  2: 0x0209 [0x4A] Hakkuru-Rinkuru (ID: 17760273/0x010F0011) looks at Ajido-Marujido (ID: 17760281/0x010F0019)
  3: 0x0212 [0x29] REQ_SET_WAIT(priority=0x08, entity_id=Ajido-Marujido (ID: 17760281/0x010F0019), tag_num=0x0D)
  4: 0x0219 [0x1D] PRINT_EVENT_MESSAGE(message_id=3736*)
    → "Wouldn't your time be better spent improving your magic abilities rather than playing in a magic competition?"
  5: 0x021C [0x23] WAIT_FOR_DIALOG_INTERACTION
  6: 0x021D [0x29] REQ_SET_WAIT(priority=0x08, entity_id=Ajido-Marujido (ID: 17760281/0x010F0019), tag_num=0x0E)
  7: 0x0224 [0x00] END_REQSTACK()
```

### Event 65535.34

#### Metadata

| Field        | Value    |
|--------------|----------|
| Entrypoint   | 0x0225   |
| Data Size    | 19 bytes |
| Instructions | 5        |

```
      00 01 02 03 04 05 06 07  08 09 0A 0B 0C 0D 0E 0F
      -- -- -- -- -- -- -- --  -- -- -- -- -- -- -- --
0220:                29 08 19  00 0F 01 0F 1D 22 80 23       ).......".#
0230: 29 08 19 00 0F 01 10 00                           ).......        
```

#### Opcodes

```
  0: 0x0225 [0x29] REQ_SET_WAIT(priority=0x08, entity_id=Ajido-Marujido (ID: 17760281/0x010F0019), tag_num=0x0F)
  1: 0x022C [0x1D] PRINT_EVENT_MESSAGE(message_id=3739*)
    → "You're talking about next year's budget, rightaru?"
  2: 0x022F [0x23] WAIT_FOR_DIALOG_INTERACTION
  3: 0x0230 [0x29] REQ_SET_WAIT(priority=0x08, entity_id=Ajido-Marujido (ID: 17760281/0x010F0019), tag_num=0x10)
  4: 0x0237 [0x00] END_REQSTACK()
```

### Event 65535.35

#### Metadata

| Field        | Value   |
|--------------|---------|
| Entrypoint   | 0x0238  |
| Data Size    | 5 bytes |
| Instructions | 3       |

```
      00 01 02 03 04 05 06 07  08 09 0A 0B 0C 0D 0E 0F
      -- -- -- -- -- -- -- --  -- -- -- -- -- -- -- --
0230:                          1D 23 80 23 00                   .#.#.   
```

#### Opcodes

```
  0: 0x0238 [0x1D] PRINT_EVENT_MESSAGE(message_id=3740*)
    → "Oh, I've already placed the orders with Jeuno. I bought swords, axes, armor, shields..."
  1: 0x023B [0x23] WAIT_FOR_DIALOG_INTERACTION
  2: 0x023C [0x00] END_REQSTACK()
```

### Event 65535.36

#### Metadata

| Field        | Value    |
|--------------|----------|
| Entrypoint   | 0x023D   |
| Data Size    | 19 bytes |
| Instructions | 5        |

```
      00 01 02 03 04 05 06 07  08 09 0A 0B 0C 0D 0E 0F
      -- -- -- -- -- -- -- --  -- -- -- -- -- -- -- --
0230:                                         29 08 19               )..
0240: 00 0F 01 01 1D 24 80 23  29 08 19 00 0F 01 02 00  .....$.#).......
```

#### Opcodes

```
  0: 0x023D [0x29] REQ_SET_WAIT(priority=0x08, entity_id=Ajido-Marujido (ID: 17760281/0x010F0019), tag_num=0x01)
  1: 0x0244 [0x1D] PRINT_EVENT_MESSAGE(message_id=3742*)
    → "Hahaha, I bought them for you boys in Operations, silly! Anyway, that should keep you busy working on them for a while. See you around, boys. Ta-taru."
  2: 0x0247 [0x23] WAIT_FOR_DIALOG_INTERACTION
  3: 0x0248 [0x29] REQ_SET_WAIT(priority=0x08, entity_id=Ajido-Marujido (ID: 17760281/0x010F0019), tag_num=0x02)
  4: 0x024F [0x00] END_REQSTACK()
```

### Event 456

#### Metadata

| Field        | Value   |
|--------------|---------|
| Entrypoint   | 0x0250  |
| Data Size    | 1 bytes |
| Instructions | 1       |

```
      00 01 02 03 04 05 06 07  08 09 0A 0B 0C 0D 0E 0F
      -- -- -- -- -- -- -- --  -- -- -- -- -- -- -- --
0250: 00                                                .               
```

#### Opcodes

```
  0: 0x0250 [0x00] END_REQSTACK()
```

### Event 65535.37

#### Metadata

| Field        | Value    |
|--------------|----------|
| Entrypoint   | 0x0251   |
| Data Size    | 10 bytes |
| Instructions | 2        |

```
      00 01 02 03 04 05 06 07  08 09 0A 0B 0C 0D 0E 0F
      -- -- -- -- -- -- -- --  -- -- -- -- -- -- -- --
0250:    37 25 80 26 80 27 80  28 80 00                  7%.&.'.(..     
```

#### Opcodes

```
  0: 0x0251 [0x37] UPDATE_EVENT_POSITION_AND_DIR: x=-122.035*, z=100.708*, y=-3.249*, direction=278.0°*
  1: 0x025A [0x00] END_REQSTACK()
```

### Event 65535.38

#### Metadata

| Field        | Value    |
|--------------|----------|
| Entrypoint   | 0x025B   |
| Data Size    | 34 bytes |
| Instructions | 8        |

```
      00 01 02 03 04 05 06 07  08 09 0A 0B 0C 0D 0E 0F
      -- -- -- -- -- -- -- --  -- -- -- -- -- -- -- --
0250:                                   32 14 80 1F 00             2....
0260: 29 80 2A 80 2B 80 1F 01  1F 00 2C 80 2D 80 2B 80  ).*.+.....,.-.+.
0270: 1F 01 1F 00 2E 80 2F 80  2B 80 1F 01 00           ....../.+....   
```

#### Opcodes

```
  0: 0x025B [0x32] ExtData[1]->MainSpeed = 13* * 0.1
  1: 0x025E [0x1F] MOVE_ENTITY: EventEntity moves to X=-121.704*, Z=102.171*, Y=-3.250*
  2: 0x0266 [0x1F] MOVE_ENTITY: Update entity position (mode=1)
  3: 0x0268 [0x1F] MOVE_ENTITY: EventEntity moves to X=-121.114*, Z=103.241*, Y=-3.250*
  4: 0x0270 [0x1F] MOVE_ENTITY: Update entity position (mode=1)
  5: 0x0272 [0x1F] MOVE_ENTITY: EventEntity moves to X=-119.783*, Z=103.308*, Y=-3.250*
  6: 0x027A [0x1F] MOVE_ENTITY: Update entity position (mode=1)
  7: 0x027C [0x00] END_REQSTACK()
```

### Event 65535.39

#### Metadata

| Field        | Value    |
|--------------|----------|
| Entrypoint   | 0x027D   |
| Data Size    | 14 bytes |
| Instructions | 4        |

```
      00 01 02 03 04 05 06 07  08 09 0A 0B 0C 0D 0E 0F
      -- -- -- -- -- -- -- --  -- -- -- -- -- -- -- --
0270:                                         32 09 80               2..
0280: 1F 00 30 80 31 80 2B 80  1F 01 00                 ..0.1.+....     
```

#### Opcodes

```
  0: 0x027D [0x32] ExtData[1]->MainSpeed = 40* * 0.1
  1: 0x0280 [0x1F] MOVE_ENTITY: EventEntity moves to X=-123.512*, Z=118.785*, Y=-3.250*
  2: 0x0288 [0x1F] MOVE_ENTITY: Update entity position (mode=1)
  3: 0x028A [0x00] END_REQSTACK()
```

### Event 65535.40

#### Metadata

| Field        | Value    |
|--------------|----------|
| Entrypoint   | 0x028B   |
| Data Size    | 19 bytes |
| Instructions | 5        |

```
      00 01 02 03 04 05 06 07  08 09 0A 0B 0C 0D 0E 0F
      -- -- -- -- -- -- -- --  -- -- -- -- -- -- -- --
0280:                                   29 08 19 00 0F             )....
0290: 01 05 1D 32 80 23 29 08  19 00 0F 01 06 00        ...2.#).......  
```

#### Opcodes

```
  0: 0x028B [0x29] REQ_SET_WAIT(priority=0x08, entity_id=Ajido-Marujido (ID: 17760281/0x010F0019), tag_num=0x05)
  1: 0x0292 [0x1D] PRINT_EVENT_MESSAGE(message_id=12281*)
    → "Are you listening? I wantaru you to go under the southwestern tower in West Sarutabaruta and press the switch in the laboratory."
  2: 0x0295 [0x23] WAIT_FOR_DIALOG_INTERACTION
  3: 0x0296 [0x29] REQ_SET_WAIT(priority=0x08, entity_id=Ajido-Marujido (ID: 17760281/0x010F0019), tag_num=0x06)
  4: 0x029D [0x00] END_REQSTACK()
```

### Event 65535.41

#### Metadata

| Field        | Value    |
|--------------|----------|
| Entrypoint   | 0x029E   |
| Data Size    | 19 bytes |
| Instructions | 5        |

```
      00 01 02 03 04 05 06 07  08 09 0A 0B 0C 0D 0E 0F
      -- -- -- -- -- -- -- --  -- -- -- -- -- -- -- --
0290:                                            29 08                ).
02A0: 19 00 0F 01 07 1D 33 80  23 29 08 19 00 0F 01 08  ......3.#)......
02B0: 00                                                .               
```

#### Opcodes

```
  0: 0x029E [0x29] REQ_SET_WAIT(priority=0x08, entity_id=Ajido-Marujido (ID: 17760281/0x010F0019), tag_num=0x07)
  1: 0x02A5 [0x1D] PRINT_EVENT_MESSAGE(message_id=12282*)
    → "That's the lastaru one. If all goes well, the magic towers will be activated!"
  2: 0x02A8 [0x23] WAIT_FOR_DIALOG_INTERACTION
  3: 0x02A9 [0x29] REQ_SET_WAIT(priority=0x08, entity_id=Ajido-Marujido (ID: 17760281/0x010F0019), tag_num=0x08)
  4: 0x02B0 [0x00] END_REQSTACK()
```
