# 17760273 - Hakkuru-Rinkuru

## Common Data

| Field            | Value                   |
|------------------|-------------------------|
| Zone             | Port Windurst (ID: 240) |
| Block Size       | 7232 bytes              |
| Total Events     | 114                     |
| References Count | 146                     |

## List of Events

| Event ID                   | Entrypoint   |   Size |   Instructions |
|----------------------------|--------------|--------|----------------|
| [65535](#event-65535)      | 0x0000       |      1 |              1 |
| [65535.1](#event-655351)   | 0x0001       |     16 |              2 |
| [65535.2](#event-655352)   | 0x0011       |     22 |              4 |
| [65535.3](#event-655353)   | 0x0027       |     16 |              2 |
| [65535.4](#event-655354)   | 0x0037       |     14 |              2 |
| [65535.5](#event-655355)   | 0x0045       |     16 |              2 |
| [65535.6](#event-655356)   | 0x0055       |     14 |              2 |
| [65535.7](#event-655357)   | 0x0063       |     16 |              2 |
| [65535.8](#event-655358)   | 0x0073       |     14 |              2 |
| [65535.9](#event-655359)   | 0x0081       |     16 |              2 |
| [65535.10](#event-6553510) | 0x0091       |     14 |              2 |
| [65535.11](#event-6553511) | 0x009F       |     16 |              2 |
| [65535.12](#event-6553512) | 0x00AF       |     14 |              2 |
| [65535.13](#event-6553513) | 0x00BD       |     16 |              2 |
| [65535.14](#event-6553514) | 0x00CD       |     14 |              2 |
| [65535.15](#event-6553515) | 0x00DB       |     16 |              2 |
| [65535.16](#event-6553516) | 0x00EB       |     14 |              2 |
| [65535.17](#event-6553517) | 0x00F9       |     29 |              3 |
| [65535.18](#event-6553518) | 0x0116       |     16 |              2 |
| [65535.19](#event-6553519) | 0x0126       |     14 |              2 |
| [65535.20](#event-6553520) | 0x0134       |     16 |              2 |
| [65535.21](#event-6553521) | 0x0144       |     22 |              4 |
| [65535.22](#event-6553522) | 0x015A       |     16 |              2 |
| [65535.23](#event-6553523) | 0x016A       |     14 |              2 |
| [65535.24](#event-6553524) | 0x0178       |     16 |              2 |
| [65535.25](#event-6553525) | 0x0188       |     22 |              4 |
| [65535.26](#event-6553526) | 0x019E       |     16 |              2 |
| [65535.27](#event-6553527) | 0x01AE       |     22 |              4 |
| [65535.28](#event-6553528) | 0x01C4       |     16 |              2 |
| [65535.29](#event-6553529) | 0x01D4       |     14 |              2 |
| [65535.30](#event-6553530) | 0x01E2       |      9 |              3 |
| [224](#event-224)          | 0x01EB       |     33 |             12 |
| [90](#event-90)            | 0x020C       |    394 |             51 |
| [65535.31](#event-6553531) | 0x0396       |     33 |              7 |
| [65535.32](#event-6553532) | 0x03B7       |     33 |              7 |
| [65535.33](#event-6553533) | 0x03D8       |      5 |              3 |
| [65535.34](#event-6553534) | 0x03DD       |     19 |              5 |
| [65535.35](#event-6553535) | 0x03F0       |     19 |              5 |
| [65535.36](#event-6553536) | 0x0403       |     42 |              8 |
| [65535.37](#event-6553537) | 0x042D       |     19 |              5 |
| [91](#event-91)            | 0x0440       |     29 |             10 |
| [93](#event-93)            | 0x045D       |     29 |             10 |
| [94](#event-94)            | 0x047A       |     75 |             21 |
| [96](#event-96)            | 0x04C5       |     29 |             10 |
| [147](#event-147)          | 0x04E2       |    120 |             23 |
| [65535.38](#event-6553538) | 0x055A       |     19 |              5 |
| [65535.39](#event-6553539) | 0x056D       |     46 |             10 |
| [65535.40](#event-6553540) | 0x059B       |     19 |              5 |
| [65535.41](#event-6553541) | 0x05AE       |     19 |              5 |
| [148](#event-148)          | 0x05C1       |     45 |             12 |
| [150](#event-150)          | 0x05EE       |     47 |             14 |
| [259](#event-259)          | 0x061D       |     86 |             19 |
| [65535.42](#event-6553542) | 0x0673       |     19 |              5 |
| [65535.43](#event-6553543) | 0x0686       |     37 |              9 |
| [65535.44](#event-6553544) | 0x06AB       |     19 |              5 |
| [65535.45](#event-6553545) | 0x06BE       |     23 |              7 |
| [65535.46](#event-6553546) | 0x06D5       |     19 |              5 |
| [260](#event-260)          | 0x06E8       |     33 |             12 |
| [265](#event-265)          | 0x0709       |   2245 |            303 |
| [65535.47](#event-6553547) | 0x0FCE       |     18 |              6 |
| [65535.48](#event-6553548) | 0x0FE0       |     15 |              5 |
| [65535.49](#event-6553549) | 0x0FEF       |    154 |             20 |
| [65535.50](#event-6553550) | 0x1089       |     58 |              8 |
| [65535.51](#event-6553551) | 0x10C3       |     58 |              8 |
| [65535.52](#event-6553552) | 0x10FD       |     19 |              5 |
| [65535.53](#event-6553553) | 0x1110       |     19 |              5 |
| [65535.54](#event-6553554) | 0x1123       |     19 |              5 |
| [65535.55](#event-6553555) | 0x1136       |     19 |              5 |
| [65535.56](#event-6553556) | 0x1149       |     19 |              5 |
| [65535.57](#event-6553557) | 0x115C       |     19 |              5 |
| [267](#event-267)          | 0x116F       |     33 |             12 |
| [274](#event-274)          | 0x1190       |    190 |             36 |
| [65535.58](#event-6553558) | 0x124E       |     19 |              5 |
| [65535.59](#event-6553559) | 0x1261       |     19 |              5 |
| [65535.60](#event-6553560) | 0x1274       |     19 |              5 |
| [65535.61](#event-6553561) | 0x1287       |     23 |              7 |
| [65535.62](#event-6553562) | 0x129E       |     19 |              5 |
| [65535.63](#event-6553563) | 0x12B1       |     37 |              9 |
| [65535.64](#event-6553564) | 0x12D6       |     19 |              5 |
| [65535.65](#event-6553565) | 0x12E9       |     19 |              5 |
| [275](#event-275)          | 0x12FC       |     33 |             12 |
| [277](#event-277)          | 0x131D       |    117 |             28 |
| [278](#event-278)          | 0x1392       |     44 |             14 |
| [281](#event-281)          | 0x13BE       |     29 |             10 |
| [280](#event-280)          | 0x13DB       |      1 |              1 |
| [65535.66](#event-6553566) | 0x13DC       |      5 |              3 |
| [65535.67](#event-6553567) | 0x13E1       |      5 |              3 |
| [65535.68](#event-6553568) | 0x13E6       |      5 |              3 |
| [65535.69](#event-6553569) | 0x13EB       |     37 |              9 |
| [65535.70](#event-6553570) | 0x1410       |     37 |              9 |
| [65535.71](#event-6553571) | 0x1435       |      5 |              3 |
| [65535.72](#event-6553572) | 0x143A       |      5 |              3 |
| [282](#event-282)          | 0x143F       |     44 |             14 |
| [284](#event-284)          | 0x146B       |      1 |              1 |
| [65535.73](#event-6553573) | 0x146C       |     12 |              4 |
| [65535.74](#event-6553574) | 0x1478       |     12 |              4 |
| [65535.75](#event-6553575) | 0x1484       |     16 |              6 |
| [65535.76](#event-6553576) | 0x1494       |     19 |              5 |
| [65535.77](#event-6553577) | 0x14A7       |      5 |              3 |
| [285](#event-285)          | 0x14AC       |     33 |             12 |
| [456](#event-456)          | 0x14CD       |    519 |             68 |
| [65535.78](#event-6553578) | 0x16D4       |      5 |              3 |
| [65535.79](#event-6553579) | 0x16D9       |      5 |              3 |
| [457](#event-457)          | 0x16DE       |     61 |             16 |
| [459](#event-459)          | 0x171B       |     45 |             14 |
| [461](#event-461)          | 0x1748       |     47 |             14 |
| [549](#event-549)          | 0x1777       |     47 |             14 |
| [547](#event-547)          | 0x17A6       |     47 |             14 |
| [571](#event-571)          | 0x17D5       |     47 |             14 |
| [578](#event-578)          | 0x1804       |      1 |              1 |
| [65535.80](#event-6553580) | 0x1805       |     10 |              2 |
| [581](#event-581)          | 0x180F       |      1 |              1 |
| [583](#event-583)          | 0x1810       |      1 |              1 |
| [65535.81](#event-6553581) | 0x1811       |     15 |              5 |

## DAT References (imed_data)

|   Index | Hex Value   |   Dec Value |
|---------|-------------|-------------|
|       0 | 0x0028      |          40 |
|       1 | 0x001E      |          30 |
|       2 | 0x0029      |          41 |
|       3 | 0x002A      |          42 |
|       4 | 0x0E3C      |        3644 |
|       5 | 0x0E3D      |        3645 |
|       6 | 0x00C8      |         200 |
|       7 | 0x0000      |           0 |
|       8 | 0x003C      |          60 |
|       9 | 0x019B      |         411 |
|      10 | 0x0003      |           3 |
|      11 | 0x008C      |         140 |
|      12 | 0x0064      |         100 |
|      13 | 0x0D21      |        3361 |
|      14 | 0x0D22      |        3362 |
|      15 | 0x0D23      |        3363 |
|      16 | 0x0D25      |        3365 |
|      17 | 0x0D28      |        3368 |
|      18 | 0x0D29      |        3369 |
|      19 | 0x0D2A      |        3370 |
|      20 | 0x0D2B      |        3371 |
|      21 | 0x0D2E      |        3374 |
|      22 | 0x0D2F      |        3375 |
|      23 | 0x0D30      |        3376 |
|      24 | 0x0D31      |        3377 |
|      25 | 0x00C9      |         201 |
|      26 | 0x0D33      |        3379 |
|      27 | 0x0D99      |        3481 |
|      28 | 0x0D9B      |        3483 |
|      29 | 0x0D9C      |        3484 |
|      30 | 0x0D9D      |        3485 |
|      31 | 0x0DA1      |        3489 |
|      32 | 0x0DA3      |        3491 |
|      33 | 0x0DA4      |        3492 |
|      34 | 0x0DA7      |        3495 |
|      35 | 0x0DA8      |        3496 |
|      36 | 0x0E73      |        3699 |
|      37 | 0x0001      |           1 |
|      38 | 0x0002      |           2 |
|      39 | 0x0E6F      |        3695 |
|      40 | 0x0E70      |        3696 |
|      41 | 0x0E71      |        3697 |
|      42 | 0x0E72      |        3698 |
|      43 | 0x0E74      |        3700 |
|      44 | 0x0E75      |        3701 |
|      45 | 0x0E76      |        3702 |
|      46 | 0x0E77      |        3703 |
|      47 | 0x0E78      |        3704 |
|      48 | 0x00A3      |         163 |
|      49 | 0x0008      |           8 |
|      50 | 0x0E83      |        3715 |
|      51 | 0x0E85      |        3717 |
|      52 | 0x000A      |          10 |
|      53 | 0x0014      |          20 |
|      54 | 0x0BF6      |        3062 |
|      55 | 0x00E7      |         231 |
|      56 | 0x0078      |         120 |
|      57 | 0x0015      |          21 |
|      58 | 0x00D0      |         208 |
|      59 | 0x0032      |          50 |
|      60 | 0x007F      |         127 |
|      61 | 0x07D0      |        2000 |
|      62 | 0x0005      |           5 |
|      63 | 0x0E95      |        3733 |
|      64 | 0x3072      |       12402 |
|      65 | 0x000F      |          15 |
|      66 | 0x0096      |         150 |
|      67 | 0x0E9C      |        3740 |
|      68 | 0x3078      |       12408 |
|      69 | 0x0C00      |        3072 |
|      70 | 0x3079      |       12409 |
|      71 | 0x0097      |         151 |
|      72 | 0x000D      |          13 |
|      73 | 0xFFFE4F5B  |  4294856539 |
|      74 | 0x18A5A     |      100954 |
|      75 | 0xFFFFEF66  |  4294963046 |
|      76 | 0x0A12      |        2578 |
|      77 | 0xFFFE4DBF  |  4294856127 |
|      78 | 0x184ED     |       99565 |
|      79 | 0xFFFFEF67  |  4294963047 |
|      80 | 0x0E81      |        3713 |
|      81 | 0x0E8F      |        3727 |
|      82 | 0x0E99      |        3737 |
|      83 | 0x3075      |       12405 |
|      84 | 0x0E9D      |        3741 |
|      85 | 0x307A      |       12410 |
|      86 | 0x0EA1      |        3745 |
|      87 | 0x0EA2      |        3746 |
|      88 | 0x0EB7      |        3767 |
|      89 | 0x0EAF      |        3759 |
|      90 | 0x0EB0      |        3760 |
|      91 | 0x3056      |       12374 |
|      92 | 0x0EB1      |        3761 |
|      93 | 0x0EB2      |        3762 |
|      94 | 0x0EB4      |        3764 |
|      95 | 0x0EB5      |        3765 |
|      96 | 0x0EB6      |        3766 |
|      97 | 0x0EB8      |        3768 |
|      98 | 0x0EBA      |        3770 |
|      99 | 0x0EBB      |        3771 |
|     100 | 0x0EBC      |        3772 |
|     101 | 0x0EBF      |        3775 |
|     102 | 0x0EC0      |        3776 |
|     103 | 0x3057      |       12375 |
|     104 | 0x3058      |       12376 |
|     105 | 0x2AE0      |       10976 |
|     106 | 0x0EC1      |        3777 |
|     107 | 0x3059      |       12377 |
|     108 | 0x0EC3      |        3779 |
|     109 | 0x0EC7      |        3783 |
|     110 | 0x305B      |       12379 |
|     111 | 0x0EC9      |        3785 |
|     112 | 0x0ECA      |        3786 |
|     113 | 0x305C      |       12380 |
|     114 | 0x305D      |       12381 |
|     115 | 0x0ECB      |        3787 |
|     116 | 0x305E      |       12382 |
|     117 | 0x0ECE      |        3790 |
|     118 | 0x0ED3      |        3795 |
|     119 | 0x3060      |       12384 |
|     120 | 0x3062      |       12386 |
|     121 | 0x3063      |       12387 |
|     122 | 0x0ED6      |        3798 |
|     123 | 0x0EE1      |        3809 |
|     124 | 0x0EE4      |        3812 |
|     125 | 0x0EE5      |        3813 |
|     126 | 0xFFFE4DD7  |  4294856151 |
|     127 | 0x19292     |      103058 |
|     128 | 0x0A17      |        2583 |
|     129 | 0x00D5      |         213 |
|     130 | 0x2FF8      |       12280 |
|     131 | 0x2FF7      |       12279 |
|     132 | 0x2FFB      |       12283 |
|     133 | 0x2FFE      |       12286 |
|     134 | 0x2FFF      |       12287 |
|     135 | 0x0006      |           6 |
|     136 | 0x3002      |       12290 |
|     137 | 0x3003      |       12291 |
|     138 | 0x3006      |       12294 |
|     139 | 0x3007      |       12295 |
|     140 | 0x3052      |       12370 |
|     141 | 0x3053      |       12371 |
|     142 | 0x313C      |       12604 |
|     143 | 0x313D      |       12605 |
|     144 | 0xFFFE4C36  |  4294855734 |
|     145 | 0x18B3E     |      101182 |

## String References

- **3361**: What are you doing loitering around here all willy-nilly? This is a training room for magic spells. If you're not careful, you'll get fried to a crisp...or worse!
- **3362**: What's that...? Oh, now I see... You've volunteered to help us with the magic experiment in the Horutoto Ruins, have you? That's right. We did ask the goon platoon gatehouse for assistance.
- **3363**: Hey, Kuroido-Moido! That was the minister's pell-mell experiment, wasn't it?
- **3365**: Tsk... <Sigh> Typical of the minister to ask for assistance and leave before the help comes. That's gone and put this poor hoddy-doddy adventurer out...
- **3368**: Really? I don't think it matters if your first impression with hoity-toity old him is good or not. Either way, it won't get you into his good books, will it?
- **3369**: Anyway, head out to the eastern magic tower of the Horutoto Ruins. It's a fair way, and an itsy-bitsy bit dangerous, so you might want to take some friends with you.
- **3370**: Good luck! (You'll need it...)
- **3371**: Head out to the eastern magic tower of the Horutoto Ruins. It's a fair way, and an itsy-bitsy bit dangerous, so you might want to take some friends with you.
- **3374**: So you were able to meet our flub-the-dub minister, huh? The minister came back an itty-bitty ago, but was straight out the door again...
- **3375**: Oh, that's the no-go Mana Orb...!
- **3376**: Ah, so you were the one the minister was mumbling about when he huff-and-puffingly ran in and out of here. He told us to take the hunk-of-junk $3 off of you.
- **3377**: Thanks for your humdrum help today. We look forward to having you help us again during our next mayday...
- **3379**: The minister is trying his best to reactivate the mumbo-jumbo gizmos in the Horutoto Ruins. Everyone tells him it's impossible, but knowing him, he'll probably prove the naysayers wrong.
- **3481**: Oh, so you're looking for our fudge-mudge minister, are you? Well that is a nippity tippity pity...
- **3483**: If he was preparing for a long journey, then he wasn't going to his usual humdrum destination of the Horutoto Ruins, was he?
- **3484**: Well, that probably means he's finally ascertained the nitty-gritty whereabouts of the Full Moon Fountain then?
- **3485**: Hell's bells...!
- **3489**: Yes. That he's hot-to-trot off to Castle Oztroja!
- **3491**: Or more to the point, why would our ding-a-ling minister head off to such a dangerous place as Castle Oztroja on his own?
- **3492**: He's been more of an odd bod than usual ever since he found that restricted book that had been lost for decades. Don't tell me he's been cursed by the hocus pocus of that restricted book!?
- **3495**: Were you able to find and hobnob with our minister? It sounds as though he headed off to Castle Oztroja...
- **3496**: What? You met him and he was wounded!? Jeepers creepers! That's terrible!
- **3644**: This is the super-duper Orastery. Here we run the Mage Academy, which organizes the mages that serve as town guards.
- **3645**: If you are looking for our Minister, he's run off on one of his mumbo-jumbo experiments somewhere, and it doesn't look like he's coming back for quite some time. Oo\`h, I wish I knew where he went...
- **3695**: I'm in such a helter-skelter fix! I'm currently preparing the budget for next year, and the captains of the black, white, and red mage brigades of the War Warlocks are all squeezing me for more arms funding.
- **3696**: But as usual, our flub-the-dub minister has gone AWOL on us, so there's no one here who can form their hodgepodge of opinions into a clear-cut policy.
- **3697**: I guess there's no choice but for us to decide the fair share on our own. We are in charge of operations, but know next to nothing about the performance of the various handy-dandy wands they are requesting.
- **3698**: I'd like to get my hands on one of each of the three types of wands and compare their make-or-break performance until everyone agrees on which wands are best. If only someone would help me obtain them...
- **3699**: Wanda help? [Yes, it'd be wanderful!/No. Wander away.]
- **3700**: Why...thank you so very much for the nicey-nice offer! Just one of each kind of wand would be enough for us to try out. I'm counting on you, hotshot!
- **3701**: Ask the fuddy-duddy head of each brigade of the War Warlocks for the names of the three wands. Oh, and make sure you obtain your own hipper-dipper wands to give us. Don't go giving us wands that you borrowed from others, now!
- **3702**: Why, you hoddy-doddy! Turning your back on a person in need. Holy moley...
- **3703**: I'm currently preparing the budget for next year, and the fuddy-duddy captains of the black, white, and red Mage brigades of the War Warlocks are all squeezing me for more arms funding.
- **3704**: I have no choice but to obtain one of each of the three types of wands they want, and compare their make-or-break performance. So, please get me one of each type of wand.
- **3713**: Yabba dabba, this is absolutely wand-erful! You managed to obtain the three wands we wanted. Thank you very much!
- **3727**: Jeepers creepers! That was a close call!
- **3737**: The brigadier generals of the War Warlocks have been pushing me to budget for their own equipment preferences, so I was trying to test these three different wands, and decide which to buy...fair and square!
- **3741**: Hold on a second, Minister! None of those bric-a-brac can be used by mages, can they???
- **3745**: Okey-dokey. Now I see... The minister finally understands the importance of our Operations section. Some may think such learning is expensive, but the cost of ignorance can be much greater.
- **3746**: But getting back to where we were... I'm sorry, but it seems we broke one of your wands. Here, please take this as an itsy-bitsy token of our regrets...
- **3759**: Heeber-jeebers!
- **3760**: Whoa! You scared the wits out of silly-billy me. I thought you were Minister Ajido-Marujido.
- **3761**: You see...the true-blue truth is... I kinda snapped the minister's favorite wand into two.
- **3762**: I was just discussing with Kuroido-Moido how we can pull a rigajig swifty on the minister!
- **3764**: We've already hurried-scurried and ordered a new wand. Keeping it quiet until the replacement comes isn't an act of badness, is it?
- **3765**: In sticky situations like this, I've heard that if you have an ooey-gooey $1 you can glue a broken wand back together again.
- **3766**: My hotshot adventurer! I'll pay you a handsome ransom if you can go find me $1.
- **3767**: Agree to help fix the stick? [Yes. Stick together!/No. Stick it out!]
- **3768**: Wand-erful! I'm counting on you, so stick to it!
- **3770**: Heeber-jeebers!
- **3771**: If only I had $1 I could mend the broken wand...or so the local armorer maintains...so it must be true!
- **3772**: It seems that the zoot-snoot Goblins in Tahrongi Canyon often carry them. One should be enough, so please go find me one!
- **3775**: Whoa! Heebee jeebees! You're just in time! We just heard word that the minister is on his way back now.
- **3776**: Thanks. You're the bee's knees! Here's your handsome ransom, in lieu of hush money. Now I've got to hurry and fix this wand!
- **3777**: I've got to hurry-scurry and fix this wand before the minister gets back!
- **3779**: Whoa! Holy moley! Major depression.
- **3783**: No, Kuroido-Moido, you got it wrong! He didn't get an itty-bitty bit angry with me at all, even though he had every right... That's why I am so depressed!
- **3785**: We all very well know Minister Ajido-Marujido's hoity-toity sarcastic personality. But he didn't even spare me a single sarcastic remark.
- **3786**: He just went all quiet and huffed off all of a sudden. I bet he had such ill will he couldn't express himself in words!
- **3787**: Wha-a\`aaa! I'm going to be fired for sure after this hubbub!
- **3790**: Waa\`a! I'm such a ding-a-ling! I'm going to be fired for sure this time!
- **3795**: Woohoo! What a cheerful earful! I'm not going to be fired after all!
- **3798**: Ah...Miss Apururu!
- **3809**: Wowie-zowie! Sounds like she was a scary woman when she wanted to be.
- **3812**: Although it's an incy-wincy bit hard to believe at times, our minister and Miss Apururu really are brother and sister...
- **3813**: But, hey... Jeezy-peezy! Doesn't that mean the wand was broken to begin with?
- **10976**: Obtained $0 gil.
- **12279**: Oh, you're finally here! The minister has been antsy-wantsy waiting for you!
- **12283**: Wait! Minister!?
- **12286**: I'd always believed thataru the minister would restore the Horutoto Ruins.
- **12287**: ...But, I wonder if the towers will really become active again? We've used oodles and oodles of Mana Orbs and dug deep into the Orastery's budgetaru for this project...
- **12290**: Minister Ajido-Marujido said he was heading for the central tower of the Horutoto Ruins.
- **12291**: Could you go and find him in the underground complex and bring him backy-wack for us? Tell him the Sibyl Guards really have their hackles up this time.
- **12294**: Heeber-jeebers!
- **12295**: What are we going to do! The minister has been caughtaru red-handed!
- **12370**: I heard the story from Minister Apururu and Professor Shantotto. You risked all sorts of hazards and hardships to rescue our minister.
- **12371**: I wanted to assist you, no mattaru the cost. Without the minister, I wouldn't be where I am today.
- **12374**: Oh, you startled me!
- **12375**: Thank you so much! I was so worried, my tummy-wummy was doing somersaults.
- **12376**: Take this with my thanks. Now I have to get this wand fixed!
- **12377**: Thank you! Now I have to get this wand fixed!
- **12379**: That's just not true, Kuroido-Moroido. She didn't get mad at all... And that's why it's so distressing.
- **12380**: Everyone knows how acid-tongued Professor Shantotto is. That very same professor said this to me.
- **12381**: "That wand was passed down to Ajido-Marujido from his mother and he holds it very dear to his heart. I pity you, poor Hakkuru-Rinkuru. You'll probably get yourself snapped in half as well!"
- **12382**: Oh Goddess! I don't want to be snapped in half!
- **12384**: No! Apologizing won't do any good. It'll just be "snap!", and then me lying there in two pieces!
- **12386**: Oh Goddess! The last time Professor Shantotto was here, she took one look at me and said this.
- **12387**: "That wand was passed down to Ajido-Marujido from his mother and he holds it very dear to his heart. I pity you, poor Hakkuru-Rinkuru. You'll probably get yourself snapped in half as well!"
- **12405**: It wasn't for an experiment. The brigadier generals were bickering over the Orastery's budget...
- **12410**: Huh!? Wait just a momentaru! None of those things can be equipped by mages...???
- **12604**: Hey, did you hear? Our minister's been pardoned for his crimes!
- **12605**: These events have made me realize justaru how great Minister Ajido-Marujido really is! His title should be more like the "Amazingly Magnificent Minister Ajido-Marujido!"

## Events

### Event 65535

#### Metadata

| Field        | Value   |
|--------------|---------|
| Entrypoint   | 0x0000  |
| Data Size    | 1 bytes |
| Instructions | 1       |

```
      00 01 02 03 04 05 06 07  08 09 0A 0B 0C 0D 0E 0F
      -- -- -- -- -- -- -- --  -- -- -- -- -- -- -- --
0000: 00                                                .               
```

#### Opcodes

```
  0: 0x0000 [0x00] END_REQSTACK()
```

### Event 65535.1

#### Metadata

| Field        | Value    |
|--------------|----------|
| Entrypoint   | 0x0001   |
| Data Size    | 16 bytes |
| Instructions | 2        |

```
      00 01 02 03 04 05 06 07  08 09 0A 0B 0C 0D 0E 0F
      -- -- -- -- -- -- -- --  -- -- -- -- -- -- -- --
0000:    66 00 80 F8 FF FF 7F  F8 FF FF 7F 74 6C 6B 30   f..........tlk0
0010: 00                                                .               
```

#### Opcodes

```
  0: 0x0001 [0x66] LOAD_EXT_SCHEDULER_MAIN: Load scheduler "tlk0" with entities [EventEntity, EventEntity], work=40*
  1: 0x0010 [0x00] END_REQSTACK()
```

### Event 65535.2

#### Metadata

| Field        | Value    |
|--------------|----------|
| Entrypoint   | 0x0011   |
| Data Size    | 22 bytes |
| Instructions | 4        |

```
      00 01 02 03 04 05 06 07  08 09 0A 0B 0C 0D 0E 0F
      -- -- -- -- -- -- -- --  -- -- -- -- -- -- -- --
0010:    53 F8 FF FF 7F F8 FF  FF 7F 74 6C 6B 30 5E 69   S........tlk0^i
0020: 64 6C 30 1C 01 80 00                              dl0....         
```

#### Opcodes

```
  0: 0x0011 [0x53] WAIT_SCHEDULER_TASK: Wait for scheduler "tlk0" with entities [EventEntity, EventEntity]
  1: 0x001E [0x5E] EventEntity goes idle (kills current action) (animation: "idl0")
  2: 0x0023 [0x1C] WAIT(30* ticks)
  3: 0x0026 [0x00] END_REQSTACK()
```

### Event 65535.3

#### Metadata

| Field        | Value    |
|--------------|----------|
| Entrypoint   | 0x0027   |
| Data Size    | 16 bytes |
| Instructions | 2        |

```
      00 01 02 03 04 05 06 07  08 09 0A 0B 0C 0D 0E 0F
      -- -- -- -- -- -- -- --  -- -- -- -- -- -- -- --
0020:                      66  00 80 F8 FF FF 7F F8 FF         f........
0030: FF 7F 74 68 6B 31 00                              ..thk1.         
```

#### Opcodes

```
  0: 0x0027 [0x66] LOAD_EXT_SCHEDULER_MAIN: Load scheduler "thk1" with entities [EventEntity, EventEntity], work=40*
  1: 0x0036 [0x00] END_REQSTACK()
```

### Event 65535.4

#### Metadata

| Field        | Value    |
|--------------|----------|
| Entrypoint   | 0x0037   |
| Data Size    | 14 bytes |
| Instructions | 2        |

```
      00 01 02 03 04 05 06 07  08 09 0A 0B 0C 0D 0E 0F
      -- -- -- -- -- -- -- --  -- -- -- -- -- -- -- --
0030:                      53  F8 FF FF 7F F8 FF FF 7F         S........
0040: 74 68 6B 31 00                                    thk1.           
```

#### Opcodes

```
  0: 0x0037 [0x53] WAIT_SCHEDULER_TASK: Wait for scheduler "thk1" with entities [EventEntity, EventEntity]
  1: 0x0044 [0x00] END_REQSTACK()
```

### Event 65535.5

#### Metadata

| Field        | Value    |
|--------------|----------|
| Entrypoint   | 0x0045   |
| Data Size    | 16 bytes |
| Instructions | 2        |

```
      00 01 02 03 04 05 06 07  08 09 0A 0B 0C 0D 0E 0F
      -- -- -- -- -- -- -- --  -- -- -- -- -- -- -- --
0040:                66 00 80  F8 FF FF 7F F8 FF FF 7F       f..........
0050: 74 68 6B 32 00                                    thk2.           
```

#### Opcodes

```
  0: 0x0045 [0x66] LOAD_EXT_SCHEDULER_MAIN: Load scheduler "thk2" with entities [EventEntity, EventEntity], work=40*
  1: 0x0054 [0x00] END_REQSTACK()
```

### Event 65535.6

#### Metadata

| Field        | Value    |
|--------------|----------|
| Entrypoint   | 0x0055   |
| Data Size    | 14 bytes |
| Instructions | 2        |

```
      00 01 02 03 04 05 06 07  08 09 0A 0B 0C 0D 0E 0F
      -- -- -- -- -- -- -- --  -- -- -- -- -- -- -- --
0050:                53 F8 FF  FF 7F F8 FF FF 7F 74 68       S........th
0060: 6B 32 00                                          k2.             
```

#### Opcodes

```
  0: 0x0055 [0x53] WAIT_SCHEDULER_TASK: Wait for scheduler "thk2" with entities [EventEntity, EventEntity]
  1: 0x0062 [0x00] END_REQSTACK()
```

### Event 65535.7

#### Metadata

| Field        | Value    |
|--------------|----------|
| Entrypoint   | 0x0063   |
| Data Size    | 16 bytes |
| Instructions | 2        |

```
      00 01 02 03 04 05 06 07  08 09 0A 0B 0C 0D 0E 0F
      -- -- -- -- -- -- -- --  -- -- -- -- -- -- -- --
0060:          66 00 80 F8 FF  FF 7F F8 FF FF 7F 70 61     f..........pa
0070: 73 30 00                                          s0.             
```

#### Opcodes

```
  0: 0x0063 [0x66] LOAD_EXT_SCHEDULER_MAIN: Load scheduler "pas0" with entities [EventEntity, EventEntity], work=40*
  1: 0x0072 [0x00] END_REQSTACK()
```

### Event 65535.8

#### Metadata

| Field        | Value    |
|--------------|----------|
| Entrypoint   | 0x0073   |
| Data Size    | 14 bytes |
| Instructions | 2        |

```
      00 01 02 03 04 05 06 07  08 09 0A 0B 0C 0D 0E 0F
      -- -- -- -- -- -- -- --  -- -- -- -- -- -- -- --
0070:          53 F8 FF FF 7F  F8 FF FF 7F 70 61 73 30     S........pas0
0080: 00                                                .               
```

#### Opcodes

```
  0: 0x0073 [0x53] WAIT_SCHEDULER_TASK: Wait for scheduler "pas0" with entities [EventEntity, EventEntity]
  1: 0x0080 [0x00] END_REQSTACK()
```

### Event 65535.9

#### Metadata

| Field        | Value    |
|--------------|----------|
| Entrypoint   | 0x0081   |
| Data Size    | 16 bytes |
| Instructions | 2        |

```
      00 01 02 03 04 05 06 07  08 09 0A 0B 0C 0D 0E 0F
      -- -- -- -- -- -- -- --  -- -- -- -- -- -- -- --
0080:    66 00 80 F8 FF FF 7F  F8 FF FF 7F 69 72 6F 30   f..........iro0
0090: 00                                                .               
```

#### Opcodes

```
  0: 0x0081 [0x66] LOAD_EXT_SCHEDULER_MAIN: Load scheduler "iro0" with entities [EventEntity, EventEntity], work=40*
  1: 0x0090 [0x00] END_REQSTACK()
```

### Event 65535.10

#### Metadata

| Field        | Value    |
|--------------|----------|
| Entrypoint   | 0x0091   |
| Data Size    | 14 bytes |
| Instructions | 2        |

```
      00 01 02 03 04 05 06 07  08 09 0A 0B 0C 0D 0E 0F
      -- -- -- -- -- -- -- --  -- -- -- -- -- -- -- --
0090:    53 F8 FF FF 7F F8 FF  FF 7F 69 72 6F 30 00      S........iro0. 
```

#### Opcodes

```
  0: 0x0091 [0x53] WAIT_SCHEDULER_TASK: Wait for scheduler "iro0" with entities [EventEntity, EventEntity]
  1: 0x009E [0x00] END_REQSTACK()
```

### Event 65535.11

#### Metadata

| Field        | Value    |
|--------------|----------|
| Entrypoint   | 0x009F   |
| Data Size    | 16 bytes |
| Instructions | 2        |

```
      00 01 02 03 04 05 06 07  08 09 0A 0B 0C 0D 0E 0F
      -- -- -- -- -- -- -- --  -- -- -- -- -- -- -- --
0090:                                               66                 f
00A0: 00 80 F8 FF FF 7F F8 FF  FF 7F 70 6F 69 30 00     ..........poi0. 
```

#### Opcodes

```
  0: 0x009F [0x66] LOAD_EXT_SCHEDULER_MAIN: Load scheduler "poi0" with entities [EventEntity, EventEntity], work=40*
  1: 0x00AE [0x00] END_REQSTACK()
```

### Event 65535.12

#### Metadata

| Field        | Value    |
|--------------|----------|
| Entrypoint   | 0x00AF   |
| Data Size    | 14 bytes |
| Instructions | 2        |

```
      00 01 02 03 04 05 06 07  08 09 0A 0B 0C 0D 0E 0F
      -- -- -- -- -- -- -- --  -- -- -- -- -- -- -- --
00A0:                                               53                 S
00B0: F8 FF FF 7F F8 FF FF 7F  70 6F 69 30 00           ........poi0.   
```

#### Opcodes

```
  0: 0x00AF [0x53] WAIT_SCHEDULER_TASK: Wait for scheduler "poi0" with entities [EventEntity, EventEntity]
  1: 0x00BC [0x00] END_REQSTACK()
```

### Event 65535.13

#### Metadata

| Field        | Value    |
|--------------|----------|
| Entrypoint   | 0x00BD   |
| Data Size    | 16 bytes |
| Instructions | 2        |

```
      00 01 02 03 04 05 06 07  08 09 0A 0B 0C 0D 0E 0F
      -- -- -- -- -- -- -- --  -- -- -- -- -- -- -- --
00B0:                                         66 00 80               f..
00C0: F8 FF FF 7F F8 FF FF 7F  77 61 76 30 00           ........wav0.   
```

#### Opcodes

```
  0: 0x00BD [0x66] LOAD_EXT_SCHEDULER_MAIN: Load scheduler "wav0" with entities [EventEntity, EventEntity], work=40*
  1: 0x00CC [0x00] END_REQSTACK()
```

### Event 65535.14

#### Metadata

| Field        | Value    |
|--------------|----------|
| Entrypoint   | 0x00CD   |
| Data Size    | 14 bytes |
| Instructions | 2        |

```
      00 01 02 03 04 05 06 07  08 09 0A 0B 0C 0D 0E 0F
      -- -- -- -- -- -- -- --  -- -- -- -- -- -- -- --
00C0:                                         53 F8 FF               S..
00D0: FF 7F F8 FF FF 7F 77 61  76 30 00                 ......wav0.     
```

#### Opcodes

```
  0: 0x00CD [0x53] WAIT_SCHEDULER_TASK: Wait for scheduler "wav0" with entities [EventEntity, EventEntity]
  1: 0x00DA [0x00] END_REQSTACK()
```

### Event 65535.15

#### Metadata

| Field        | Value    |
|--------------|----------|
| Entrypoint   | 0x00DB   |
| Data Size    | 16 bytes |
| Instructions | 2        |

```
      00 01 02 03 04 05 06 07  08 09 0A 0B 0C 0D 0E 0F
      -- -- -- -- -- -- -- --  -- -- -- -- -- -- -- --
00D0:                                   66 02 80 F8 FF             f....
00E0: FF 7F F8 FF FF 7F 73 68  6B 30 00                 ......shk0.     
```

#### Opcodes

```
  0: 0x00DB [0x66] LOAD_EXT_SCHEDULER_MAIN: Load scheduler "shk0" with entities [EventEntity, EventEntity], work=41*
  1: 0x00EA [0x00] END_REQSTACK()
```

### Event 65535.16

#### Metadata

| Field        | Value    |
|--------------|----------|
| Entrypoint   | 0x00EB   |
| Data Size    | 14 bytes |
| Instructions | 2        |

```
      00 01 02 03 04 05 06 07  08 09 0A 0B 0C 0D 0E 0F
      -- -- -- -- -- -- -- --  -- -- -- -- -- -- -- --
00E0:                                   53 F8 FF FF 7F             S....
00F0: F8 FF FF 7F 73 68 6B 30  00                       ....shk0.       
```

#### Opcodes

```
  0: 0x00EB [0x53] WAIT_SCHEDULER_TASK: Wait for scheduler "shk0" with entities [EventEntity, EventEntity]
  1: 0x00F8 [0x00] END_REQSTACK()
```

### Event 65535.17

#### Metadata

| Field        | Value    |
|--------------|----------|
| Entrypoint   | 0x00F9   |
| Data Size    | 29 bytes |
| Instructions | 3        |

```
      00 01 02 03 04 05 06 07  08 09 0A 0B 0C 0D 0E 0F
      -- -- -- -- -- -- -- --  -- -- -- -- -- -- -- --
00F0:                             66 02 80 F8 FF FF 7F           f......
0100: F8 FF FF 7F 73 68 6B 30  53 F8 FF FF 7F F8 FF FF  ....shk0S.......
0110: 7F 73 68 6B 30 00                                 .shk0.          
```

#### Opcodes

```
  0: 0x00F9 [0x66] LOAD_EXT_SCHEDULER_MAIN: Load scheduler "shk0" with entities [EventEntity, EventEntity], work=41*
  1: 0x0108 [0x53] WAIT_SCHEDULER_TASK: Wait for scheduler "shk0" with entities [EventEntity, EventEntity]
  2: 0x0115 [0x00] END_REQSTACK()
```

### Event 65535.18

#### Metadata

| Field        | Value    |
|--------------|----------|
| Entrypoint   | 0x0116   |
| Data Size    | 16 bytes |
| Instructions | 2        |

```
      00 01 02 03 04 05 06 07  08 09 0A 0B 0C 0D 0E 0F
      -- -- -- -- -- -- -- --  -- -- -- -- -- -- -- --
0110:                   66 00  80 F8 FF FF 7F F8 FF FF        f.........
0120: 7F 64 69 73 30 00                                 .dis0.          
```

#### Opcodes

```
  0: 0x0116 [0x66] LOAD_EXT_SCHEDULER_MAIN: Load scheduler "dis0" with entities [EventEntity, EventEntity], work=40*
  1: 0x0125 [0x00] END_REQSTACK()
```

### Event 65535.19

#### Metadata

| Field        | Value    |
|--------------|----------|
| Entrypoint   | 0x0126   |
| Data Size    | 14 bytes |
| Instructions | 2        |

```
      00 01 02 03 04 05 06 07  08 09 0A 0B 0C 0D 0E 0F
      -- -- -- -- -- -- -- --  -- -- -- -- -- -- -- --
0120:                   53 F8  FF FF 7F F8 FF FF 7F 64        S........d
0130: 69 73 30 00                                       is0.            
```

#### Opcodes

```
  0: 0x0126 [0x53] WAIT_SCHEDULER_TASK: Wait for scheduler "dis0" with entities [EventEntity, EventEntity]
  1: 0x0133 [0x00] END_REQSTACK()
```

### Event 65535.20

#### Metadata

| Field        | Value    |
|--------------|----------|
| Entrypoint   | 0x0134   |
| Data Size    | 16 bytes |
| Instructions | 2        |

```
      00 01 02 03 04 05 06 07  08 09 0A 0B 0C 0D 0E 0F
      -- -- -- -- -- -- -- --  -- -- -- -- -- -- -- --
0130:             66 00 80 F8  FF FF 7F F8 FF FF 7F 7A      f..........z
0140: 69 74 30 00                                       it0.            
```

#### Opcodes

```
  0: 0x0134 [0x66] LOAD_EXT_SCHEDULER_MAIN: Load scheduler "zit0" with entities [EventEntity, EventEntity], work=40*
  1: 0x0143 [0x00] END_REQSTACK()
```

### Event 65535.21

#### Metadata

| Field        | Value    |
|--------------|----------|
| Entrypoint   | 0x0144   |
| Data Size    | 22 bytes |
| Instructions | 4        |

```
      00 01 02 03 04 05 06 07  08 09 0A 0B 0C 0D 0E 0F
      -- -- -- -- -- -- -- --  -- -- -- -- -- -- -- --
0140:             53 F8 FF FF  7F F8 FF FF 7F 7A 69 74      S........zit
0150: 30 5E 69 64 6C 30 1C 01  80 00                    0^idl0....      
```

#### Opcodes

```
  0: 0x0144 [0x53] WAIT_SCHEDULER_TASK: Wait for scheduler "zit0" with entities [EventEntity, EventEntity]
  1: 0x0151 [0x5E] EventEntity goes idle (kills current action) (animation: "idl0")
  2: 0x0156 [0x1C] WAIT(30* ticks)
  3: 0x0159 [0x00] END_REQSTACK()
```

### Event 65535.22

#### Metadata

| Field        | Value    |
|--------------|----------|
| Entrypoint   | 0x015A   |
| Data Size    | 16 bytes |
| Instructions | 2        |

```
      00 01 02 03 04 05 06 07  08 09 0A 0B 0C 0D 0E 0F
      -- -- -- -- -- -- -- --  -- -- -- -- -- -- -- --
0150:                                66 03 80 F8 FF FF            f.....
0160: 7F F8 FF FF 7F 62 69 6B  30 00                    .....bik0.      
```

#### Opcodes

```
  0: 0x015A [0x66] LOAD_EXT_SCHEDULER_MAIN: Load scheduler "bik0" with entities [EventEntity, EventEntity], work=42*
  1: 0x0169 [0x00] END_REQSTACK()
```

### Event 65535.23

#### Metadata

| Field        | Value    |
|--------------|----------|
| Entrypoint   | 0x016A   |
| Data Size    | 14 bytes |
| Instructions | 2        |

```
      00 01 02 03 04 05 06 07  08 09 0A 0B 0C 0D 0E 0F
      -- -- -- -- -- -- -- --  -- -- -- -- -- -- -- --
0160:                                53 F8 FF FF 7F F8            S.....
0170: FF FF 7F 62 69 6B 30 00                           ...bik0.        
```

#### Opcodes

```
  0: 0x016A [0x53] WAIT_SCHEDULER_TASK: Wait for scheduler "bik0" with entities [EventEntity, EventEntity]
  1: 0x0177 [0x00] END_REQSTACK()
```

### Event 65535.24

#### Metadata

| Field        | Value    |
|--------------|----------|
| Entrypoint   | 0x0178   |
| Data Size    | 16 bytes |
| Instructions | 2        |

```
      00 01 02 03 04 05 06 07  08 09 0A 0B 0C 0D 0E 0F
      -- -- -- -- -- -- -- --  -- -- -- -- -- -- -- --
0170:                          66 03 80 F8 FF FF 7F F8          f.......
0180: FF FF 7F 62 69 6B 31 00                           ...bik1.        
```

#### Opcodes

```
  0: 0x0178 [0x66] LOAD_EXT_SCHEDULER_MAIN: Load scheduler "bik1" with entities [EventEntity, EventEntity], work=42*
  1: 0x0187 [0x00] END_REQSTACK()
```

### Event 65535.25

#### Metadata

| Field        | Value    |
|--------------|----------|
| Entrypoint   | 0x0188   |
| Data Size    | 22 bytes |
| Instructions | 4        |

```
      00 01 02 03 04 05 06 07  08 09 0A 0B 0C 0D 0E 0F
      -- -- -- -- -- -- -- --  -- -- -- -- -- -- -- --
0180:                          53 F8 FF FF 7F F8 FF FF          S.......
0190: 7F 62 69 6B 31 5E 69 64  6C 30 1C 01 80 00        .bik1^idl0....  
```

#### Opcodes

```
  0: 0x0188 [0x53] WAIT_SCHEDULER_TASK: Wait for scheduler "bik1" with entities [EventEntity, EventEntity]
  1: 0x0195 [0x5E] EventEntity goes idle (kills current action) (animation: "idl0")
  2: 0x019A [0x1C] WAIT(30* ticks)
  3: 0x019D [0x00] END_REQSTACK()
```

### Event 65535.26

#### Metadata

| Field        | Value    |
|--------------|----------|
| Entrypoint   | 0x019E   |
| Data Size    | 16 bytes |
| Instructions | 2        |

```
      00 01 02 03 04 05 06 07  08 09 0A 0B 0C 0D 0E 0F
      -- -- -- -- -- -- -- --  -- -- -- -- -- -- -- --
0190:                                            66 00                f.
01A0: 80 F8 FF FF 7F F8 FF FF  7F 67 6B 72 30 00        .........gkr0.  
```

#### Opcodes

```
  0: 0x019E [0x66] LOAD_EXT_SCHEDULER_MAIN: Load scheduler "gkr0" with entities [EventEntity, EventEntity], work=40*
  1: 0x01AD [0x00] END_REQSTACK()
```

### Event 65535.27

#### Metadata

| Field        | Value    |
|--------------|----------|
| Entrypoint   | 0x01AE   |
| Data Size    | 22 bytes |
| Instructions | 4        |

```
      00 01 02 03 04 05 06 07  08 09 0A 0B 0C 0D 0E 0F
      -- -- -- -- -- -- -- --  -- -- -- -- -- -- -- --
01A0:                                            53 F8                S.
01B0: FF FF 7F F8 FF FF 7F 67  6B 72 30 5E 69 64 6C 30  .......gkr0^idl0
01C0: 1C 01 80 00                                       ....            
```

#### Opcodes

```
  0: 0x01AE [0x53] WAIT_SCHEDULER_TASK: Wait for scheduler "gkr0" with entities [EventEntity, EventEntity]
  1: 0x01BB [0x5E] EventEntity goes idle (kills current action) (animation: "idl0")
  2: 0x01C0 [0x1C] WAIT(30* ticks)
  3: 0x01C3 [0x00] END_REQSTACK()
```

### Event 65535.28

#### Metadata

| Field        | Value    |
|--------------|----------|
| Entrypoint   | 0x01C4   |
| Data Size    | 16 bytes |
| Instructions | 2        |

```
      00 01 02 03 04 05 06 07  08 09 0A 0B 0C 0D 0E 0F
      -- -- -- -- -- -- -- --  -- -- -- -- -- -- -- --
01C0:             66 00 80 F8  FF FF 7F F8 FF FF 7F 73      f..........s
01D0: 79 75 30 00                                       yu0.            
```

#### Opcodes

```
  0: 0x01C4 [0x66] LOAD_EXT_SCHEDULER_MAIN: Load scheduler "syu0" with entities [EventEntity, EventEntity], work=40*
  1: 0x01D3 [0x00] END_REQSTACK()
```

### Event 65535.29

#### Metadata

| Field        | Value    |
|--------------|----------|
| Entrypoint   | 0x01D4   |
| Data Size    | 14 bytes |
| Instructions | 2        |

```
      00 01 02 03 04 05 06 07  08 09 0A 0B 0C 0D 0E 0F
      -- -- -- -- -- -- -- --  -- -- -- -- -- -- -- --
01D0:             53 F8 FF FF  7F F8 FF FF 7F 73 79 75      S........syu
01E0: 30 00                                             0.              
```

#### Opcodes

```
  0: 0x01D4 [0x53] WAIT_SCHEDULER_TASK: Wait for scheduler "syu0" with entities [EventEntity, EventEntity]
  1: 0x01E1 [0x00] END_REQSTACK()
```

### Event 65535.30

#### Metadata

| Field        | Value   |
|--------------|---------|
| Entrypoint   | 0x01E2  |
| Data Size    | 9 bytes |
| Instructions | 3       |

```
      00 01 02 03 04 05 06 07  08 09 0A 0B 0C 0D 0E 0F
      -- -- -- -- -- -- -- --  -- -- -- -- -- -- -- --
01E0:       5E 69 64 6C 30 1C  01 80 00                   ^idl0....     
```

#### Opcodes

```
  0: 0x01E2 [0x5E] EventEntity goes idle (kills current action) (animation: "idl0")
  1: 0x01E7 [0x1C] WAIT(30* ticks)
  2: 0x01EA [0x00] END_REQSTACK()
```

### Event 224

#### Metadata

| Field        | Value    |
|--------------|----------|
| Entrypoint   | 0x01EB   |
| Data Size    | 33 bytes |
| Instructions | 12       |

```
      00 01 02 03 04 05 06 07  08 09 0A 0B 0C 0D 0E 0F
      -- -- -- -- -- -- -- --  -- -- -- -- -- -- -- --
01E0:                                   1E F0 FF FF 7F             .....
01F0: 6F 70 29 08 11 00 0F 01  01 1D 04 80 23 1D 05 80  op).........#...
0200: 23 29 08 11 00 0F 01 02  20 00 21 00              #)...... .!.    
```

#### Opcodes

```
  0: 0x01EB [0x1E] EventEntity looks at LocalPlayer and starts talking
  1: 0x01F0 [0x6F] WAIT_FRAME_DELAY: Yield until WaitTime reaches zero
  2: 0x01F1 [0x70] WAIT_ENTITY_RENDER_FLAG: Wait while EventEntity->Render.Flags3 bit 2 is set (cancel turn if not)
  3: 0x01F2 [0x29] REQ_SET_WAIT(priority=0x08, entity_id=Hakkuru-Rinkuru (ID: 17760273/0x010F0011), tag_num=0x01)
  4: 0x01F9 [0x1D] PRINT_EVENT_MESSAGE(message_id=3644*)
    → "This is the super-duper Orastery. Here we run the Mage Academy, which organizes the mages that serve as town guards."
  5: 0x01FC [0x23] WAIT_FOR_DIALOG_INTERACTION
  6: 0x01FD [0x1D] PRINT_EVENT_MESSAGE(message_id=3645*)
    → "If you are looking for our Minister, he's run off on one of his mumbo-jumbo experiments somewhere, and it doesn't look like he's coming back for quite some time. Oo`h, I wish I knew where he went..."
  7: 0x0200 [0x23] WAIT_FOR_DIALOG_INTERACTION
  8: 0x0201 [0x29] REQ_SET_WAIT(priority=0x08, entity_id=Hakkuru-Rinkuru (ID: 17760273/0x010F0011), tag_num=0x02)
  9: 0x0208 [0x20] SET_CLI_EVENT_UC_FLAG: Unlock player control
 10: 0x020A [0x21] END_EVENT
 11: 0x020B [0x00] END_REQSTACK()
```

### Event 90

#### Metadata

| Field        | Value     |
|--------------|-----------|
| Entrypoint   | 0x020C    |
| Data Size    | 394 bytes |
| Instructions | 51        |

```
      00 01 02 03 04 05 06 07  08 09 0A 0B 0C 0D 0E 0F
      -- -- -- -- -- -- -- --  -- -- -- -- -- -- -- --
0200:                                      46 01 42 4A              F.BJ
0210: 11 00 0F 01 F0 FF FF 7F  4A 12 00 0F 01 F0 FF FF  ........J.......
0220: 7F 29 0B 11 00 0F 01 21  45 06 80 F8 FF FF 7F F8  .).....!E.......
0230: FF FF 7F 66 64 6F 31 07  80 1C 08 80 75 00 09 80  ...fdo1.....u...
0240: 75 01 38 0A 80 29 0B F0  FF FF 7F 30 4A 11 00 0F  u.8..).....0J...
0250: 01 F0 FF FF 7F 4A 12 00  0F 01 F0 FF FF 7F 4E 01  .....J........N.
0260: F0 FF FF 7F 1C 08 80 45  0B 80 F0 FF FF 7F F0 FF  .......E........
0270: FF 7F 73 30 38 35 07 80  45 06 80 F8 FF FF 7F F8  ..s085..E.......
0280: FF FF 7F 66 64 69 31 07  80 4A 12 00 0F 01 11 00  ...fdi1..J......
0290: 0F 01 29 0B 11 00 0F 01  22 4A 11 00 0F 01 12 00  ..)....."J......
02A0: 0F 01 29 0B 11 00 0F 01  23 29 0B 12 00 0F 01 16  ..).....#)......
02B0: 45 0B 80 F0 FF FF 7F F0  FF FF 7F 73 30 38 36 07  E..........s086.
02C0: 80 4E 00 F0 FF FF 7F 4A  11 00 0F 01 F0 FF FF 7F  .N.....J........
02D0: 29 0B 11 00 0F 01 24 4A  12 00 0F 01 11 00 0F 01  ).....$J........
02E0: 1C 01 80 29 0B 12 00 0F  01 17 45 0B 80 F8 FF FF  ...)......E.....
02F0: 7F F8 FF FF 7F 73 30 38  34 07 80 4A 12 00 0F 01  .....s084..J....
0300: F0 FF FF 7F 79 00 F0 FF  FF 7F 12 00 0F 01 1C 01  ....y...........
0310: 80 29 0B 12 00 0F 01 18  79 00 F0 FF FF 7F 11 00  .)......y.......
0320: 0F 01 29 0B 11 00 0F 01  25 4E 01 F0 FF FF 7F 52  ..).....%N.....R
0330: 0B 80 F8 FF FF 7F F8 FF  FF 7F 73 30 38 34 45 0B  ..........s084E.
0340: 80 F8 FF FF 7F F8 FF FF  7F 73 30 38 35 07 80 29  .........s085..)
0350: 0B 11 00 0F 01 26 29 0B  11 00 0F 01 27 45 06 80  .....&).....'E..
0360: F8 FF FF 7F F8 FF FF 7F  66 64 6F 31 07 80 1C 08  ........fdo1....
0370: 80 7B F0 FF FF 7F 4E 00  F0 FF FF 7F 1C 0C 80 46  .{....N........F
0380: 00 45 06 80 F8 FF FF 7F  F8 FF FF 7F 66 64 69 31  .E..........fdi1
0390: 07 80 20 00 21 00                                 .. .!.          
```

#### Opcodes

```
  0: 0x020C [0x46] CAMERA_CONTROL: Disable user control
  1: 0x020E [0x42] SET_CLI_EVENT_CANCEL_DATA()
  2: 0x020F [0x4A] Hakkuru-Rinkuru (ID: 17760273/0x010F0011) looks at LocalPlayer
  3: 0x0218 [0x4A] Kuroido-Moido (ID: 17760274/0x010F0012) looks at LocalPlayer
  4: 0x0221 [0x29] REQ_SET_WAIT(priority=0x0B, entity_id=Hakkuru-Rinkuru (ID: 17760273/0x010F0011), tag_num=0x21)
  5: 0x0228 [0x45] LOAD_SCHEDULED_TASK: Load scheduler "fdo1" with entities [EventEntity, EventEntity], work=[200*, 0*]
  6: 0x0239 [0x1C] WAIT(60* ticks)
  7: 0x023C [0x75] LOAD_ROOM(Load indoor room, room=411*)
  8: 0x0240 [0x75] LOAD_ROOM(No action)
  9: 0x0242 [0x38] SET_CLIENT_EVENT_MODE(mode=3*)
 10: 0x0245 [0x29] REQ_SET_WAIT(priority=0x0B, entity_id=LocalPlayer, tag_num=0x30)
 11: 0x024C [0x4A] Hakkuru-Rinkuru (ID: 17760273/0x010F0011) looks at LocalPlayer
 12: 0x0255 [0x4A] Kuroido-Moido (ID: 17760274/0x010F0012) looks at LocalPlayer
 13: 0x025E [0x4E] SET_ENTITY_HIDE_FLAG: Hide LocalPlayer
 14: 0x0264 [0x1C] WAIT(60* ticks)
 15: 0x0267 [0x45] LOAD_SCHEDULED_TASK: Load scheduler "s085" with entities [LocalPlayer, LocalPlayer], work=[140*, 0*]
 16: 0x0278 [0x45] LOAD_SCHEDULED_TASK: Load scheduler "fdi1" with entities [EventEntity, EventEntity], work=[200*, 0*]
 17: 0x0289 [0x4A] Kuroido-Moido (ID: 17760274/0x010F0012) looks at Hakkuru-Rinkuru (ID: 17760273/0x010F0011)
 18: 0x0292 [0x29] REQ_SET_WAIT(priority=0x0B, entity_id=Hakkuru-Rinkuru (ID: 17760273/0x010F0011), tag_num=0x22)
 19: 0x0299 [0x4A] Hakkuru-Rinkuru (ID: 17760273/0x010F0011) looks at Kuroido-Moido (ID: 17760274/0x010F0012)
 20: 0x02A2 [0x29] REQ_SET_WAIT(priority=0x0B, entity_id=Hakkuru-Rinkuru (ID: 17760273/0x010F0011), tag_num=0x23)
 21: 0x02A9 [0x29] REQ_SET_WAIT(priority=0x0B, entity_id=Kuroido-Moido (ID: 17760274/0x010F0012), tag_num=0x16)
 22: 0x02B0 [0x45] LOAD_SCHEDULED_TASK: Load scheduler "s086" with entities [LocalPlayer, LocalPlayer], work=[140*, 0*]
 23: 0x02C1 [0x4E] SET_ENTITY_HIDE_FLAG: Show LocalPlayer
 24: 0x02C7 [0x4A] Hakkuru-Rinkuru (ID: 17760273/0x010F0011) looks at LocalPlayer
 25: 0x02D0 [0x29] REQ_SET_WAIT(priority=0x0B, entity_id=Hakkuru-Rinkuru (ID: 17760273/0x010F0011), tag_num=0x24)
 26: 0x02D7 [0x4A] Kuroido-Moido (ID: 17760274/0x010F0012) looks at Hakkuru-Rinkuru (ID: 17760273/0x010F0011)
 27: 0x02E0 [0x1C] WAIT(30* ticks)
 28: 0x02E3 [0x29] REQ_SET_WAIT(priority=0x0B, entity_id=Kuroido-Moido (ID: 17760274/0x010F0012), tag_num=0x17)
 29: 0x02EA [0x45] LOAD_SCHEDULED_TASK: Load scheduler "s084" with entities [EventEntity, EventEntity], work=[140*, 0*]
 30: 0x02FB [0x4A] Kuroido-Moido (ID: 17760274/0x010F0012) looks at LocalPlayer
 31: 0x0304 [0x79] LocalPlayer looks at Kuroido-Moido (ID: 17760274/0x010F0012) (Basic look)
 32: 0x030E [0x1C] WAIT(30* ticks)
 33: 0x0311 [0x29] REQ_SET_WAIT(priority=0x0B, entity_id=Kuroido-Moido (ID: 17760274/0x010F0012), tag_num=0x18)
 34: 0x0318 [0x79] LocalPlayer looks at Hakkuru-Rinkuru (ID: 17760273/0x010F0011) (Basic look)
 35: 0x0322 [0x29] REQ_SET_WAIT(priority=0x0B, entity_id=Hakkuru-Rinkuru (ID: 17760273/0x010F0011), tag_num=0x25)
 36: 0x0329 [0x4E] SET_ENTITY_HIDE_FLAG: Hide LocalPlayer
 37: 0x032F [0x52] END_LOAD_SCHEDULER: End scheduler "s084" with entities [EventEntity, EventEntity], work=140*
 38: 0x033E [0x45] LOAD_SCHEDULED_TASK: Load scheduler "s085" with entities [EventEntity, EventEntity], work=[140*, 0*]
 39: 0x034F [0x29] REQ_SET_WAIT(priority=0x0B, entity_id=Hakkuru-Rinkuru (ID: 17760273/0x010F0011), tag_num=0x26)
 40: 0x0356 [0x29] REQ_SET_WAIT(priority=0x0B, entity_id=Hakkuru-Rinkuru (ID: 17760273/0x010F0011), tag_num=0x27)
 41: 0x035D [0x45] LOAD_SCHEDULED_TASK: Load scheduler "fdo1" with entities [EventEntity, EventEntity], work=[200*, 0*]
 42: 0x036E [0x1C] WAIT(60* ticks)
 43: 0x0371 [0x7B] LocalPlayer stops talking
 44: 0x0376 [0x4E] SET_ENTITY_HIDE_FLAG: Show LocalPlayer
 45: 0x037C [0x1C] WAIT(100* ticks)
 46: 0x037F [0x46] CAMERA_CONTROL: Restore default settings
 47: 0x0381 [0x45] LOAD_SCHEDULED_TASK: Load scheduler "fdi1" with entities [EventEntity, EventEntity], work=[200*, 0*]
 48: 0x0392 [0x20] SET_CLI_EVENT_UC_FLAG: Unlock player control
 49: 0x0394 [0x21] END_EVENT
 50: 0x0395 [0x00] END_REQSTACK()
```

### Event 65535.31

#### Metadata

| Field        | Value    |
|--------------|----------|
| Entrypoint   | 0x0396   |
| Data Size    | 33 bytes |
| Instructions | 7        |

```
      00 01 02 03 04 05 06 07  08 09 0A 0B 0C 0D 0E 0F
      -- -- -- -- -- -- -- --  -- -- -- -- -- -- -- --
0390:                   29 08  11 00 0F 01 16 1D 0D 80        ).........
03A0: 23 29 08 11 00 0F 01 17  29 08 11 00 0F 01 18 29  #)......)......)
03B0: 08 11 00 0F 01 19 00                              .......         
```

#### Opcodes

```
  0: 0x0396 [0x29] REQ_SET_WAIT(priority=0x08, entity_id=Hakkuru-Rinkuru (ID: 17760273/0x010F0011), tag_num=0x16)
  1: 0x039D [0x1D] PRINT_EVENT_MESSAGE(message_id=3361*)
    → "What are you doing loitering around here all willy-nilly? This is a training room for magic spells. If you're not careful, you'll get fried to a crisp...or worse!"
  2: 0x03A0 [0x23] WAIT_FOR_DIALOG_INTERACTION
  3: 0x03A1 [0x29] REQ_SET_WAIT(priority=0x08, entity_id=Hakkuru-Rinkuru (ID: 17760273/0x010F0011), tag_num=0x17)
  4: 0x03A8 [0x29] REQ_SET_WAIT(priority=0x08, entity_id=Hakkuru-Rinkuru (ID: 17760273/0x010F0011), tag_num=0x18)
  5: 0x03AF [0x29] REQ_SET_WAIT(priority=0x08, entity_id=Hakkuru-Rinkuru (ID: 17760273/0x010F0011), tag_num=0x19)
  6: 0x03B6 [0x00] END_REQSTACK()
```

### Event 65535.32

#### Metadata

| Field        | Value    |
|--------------|----------|
| Entrypoint   | 0x03B7   |
| Data Size    | 33 bytes |
| Instructions | 7        |

```
      00 01 02 03 04 05 06 07  08 09 0A 0B 0C 0D 0E 0F
      -- -- -- -- -- -- -- --  -- -- -- -- -- -- -- --
03B0:                      29  08 11 00 0F 01 03 1D 0E         )........
03C0: 80 23 29 08 11 00 0F 01  04 29 08 11 00 0F 01 05  .#)......)......
03D0: 29 08 11 00 0F 01 04 00                           ).......        
```

#### Opcodes

```
  0: 0x03B7 [0x29] REQ_SET_WAIT(priority=0x08, entity_id=Hakkuru-Rinkuru (ID: 17760273/0x010F0011), tag_num=0x03)
  1: 0x03BE [0x1D] PRINT_EVENT_MESSAGE(message_id=3362*)
    → "What's that...? Oh, now I see... You've volunteered to help us with the magic experiment in the Horutoto Ruins, have you? That's right. We did ask the goon platoon gatehouse for assistance."
  2: 0x03C1 [0x23] WAIT_FOR_DIALOG_INTERACTION
  3: 0x03C2 [0x29] REQ_SET_WAIT(priority=0x08, entity_id=Hakkuru-Rinkuru (ID: 17760273/0x010F0011), tag_num=0x04)
  4: 0x03C9 [0x29] REQ_SET_WAIT(priority=0x08, entity_id=Hakkuru-Rinkuru (ID: 17760273/0x010F0011), tag_num=0x05)
  5: 0x03D0 [0x29] REQ_SET_WAIT(priority=0x08, entity_id=Hakkuru-Rinkuru (ID: 17760273/0x010F0011), tag_num=0x04)
  6: 0x03D7 [0x00] END_REQSTACK()
```

### Event 65535.33

#### Metadata

| Field        | Value   |
|--------------|---------|
| Entrypoint   | 0x03D8  |
| Data Size    | 5 bytes |
| Instructions | 3       |

```
      00 01 02 03 04 05 06 07  08 09 0A 0B 0C 0D 0E 0F
      -- -- -- -- -- -- -- --  -- -- -- -- -- -- -- --
03D0:                          1D 0F 80 23 00                   ...#.   
```

#### Opcodes

```
  0: 0x03D8 [0x1D] PRINT_EVENT_MESSAGE(message_id=3363*)
    → "Hey, Kuroido-Moido! That was the minister's pell-mell experiment, wasn't it?"
  1: 0x03DB [0x23] WAIT_FOR_DIALOG_INTERACTION
  2: 0x03DC [0x00] END_REQSTACK()
```

### Event 65535.34

#### Metadata

| Field        | Value    |
|--------------|----------|
| Entrypoint   | 0x03DD   |
| Data Size    | 19 bytes |
| Instructions | 5        |

```
      00 01 02 03 04 05 06 07  08 09 0A 0B 0C 0D 0E 0F
      -- -- -- -- -- -- -- --  -- -- -- -- -- -- -- --
03D0:                                         29 08 11               )..
03E0: 00 0F 01 01 1D 10 80 23  29 08 11 00 0F 01 02 00  .......#).......
```

#### Opcodes

```
  0: 0x03DD [0x29] REQ_SET_WAIT(priority=0x08, entity_id=Hakkuru-Rinkuru (ID: 17760273/0x010F0011), tag_num=0x01)
  1: 0x03E4 [0x1D] PRINT_EVENT_MESSAGE(message_id=3365*)
    → "Tsk... <Sigh> Typical of the minister to ask for assistance and leave before the help comes. That's gone and put this poor hoddy-doddy adventurer out..."
  2: 0x03E7 [0x23] WAIT_FOR_DIALOG_INTERACTION
  3: 0x03E8 [0x29] REQ_SET_WAIT(priority=0x08, entity_id=Hakkuru-Rinkuru (ID: 17760273/0x010F0011), tag_num=0x02)
  4: 0x03EF [0x00] END_REQSTACK()
```

### Event 65535.35

#### Metadata

| Field        | Value    |
|--------------|----------|
| Entrypoint   | 0x03F0   |
| Data Size    | 19 bytes |
| Instructions | 5        |

```
      00 01 02 03 04 05 06 07  08 09 0A 0B 0C 0D 0E 0F
      -- -- -- -- -- -- -- --  -- -- -- -- -- -- -- --
03F0: 29 08 11 00 0F 01 03 1D  11 80 23 29 08 11 00 0F  ).........#)....
0400: 01 04 00                                          ...             
```

#### Opcodes

```
  0: 0x03F0 [0x29] REQ_SET_WAIT(priority=0x08, entity_id=Hakkuru-Rinkuru (ID: 17760273/0x010F0011), tag_num=0x03)
  1: 0x03F7 [0x1D] PRINT_EVENT_MESSAGE(message_id=3368*)
    → "Really? I don't think it matters if your first impression with hoity-toity old him is good or not. Either way, it won't get you into his good books, will it?"
  2: 0x03FA [0x23] WAIT_FOR_DIALOG_INTERACTION
  3: 0x03FB [0x29] REQ_SET_WAIT(priority=0x08, entity_id=Hakkuru-Rinkuru (ID: 17760273/0x010F0011), tag_num=0x04)
  4: 0x0402 [0x00] END_REQSTACK()
```

### Event 65535.36

#### Metadata

| Field        | Value    |
|--------------|----------|
| Entrypoint   | 0x0403   |
| Data Size    | 42 bytes |
| Instructions | 8        |

```
      00 01 02 03 04 05 06 07  08 09 0A 0B 0C 0D 0E 0F
      -- -- -- -- -- -- -- --  -- -- -- -- -- -- -- --
0400:          4A 11 00 0F 01  F0 FF FF 7F 29 08 11 00     J........)...
0410: 0F 01 05 29 08 11 00 0F  01 06 29 08 11 00 0F 01  ...)......).....
0420: 0B 1D 12 80 23 29 08 11  00 0F 01 0C 00           ....#).......   
```

#### Opcodes

```
  0: 0x0403 [0x4A] Hakkuru-Rinkuru (ID: 17760273/0x010F0011) looks at LocalPlayer
  1: 0x040C [0x29] REQ_SET_WAIT(priority=0x08, entity_id=Hakkuru-Rinkuru (ID: 17760273/0x010F0011), tag_num=0x05)
  2: 0x0413 [0x29] REQ_SET_WAIT(priority=0x08, entity_id=Hakkuru-Rinkuru (ID: 17760273/0x010F0011), tag_num=0x06)
  3: 0x041A [0x29] REQ_SET_WAIT(priority=0x08, entity_id=Hakkuru-Rinkuru (ID: 17760273/0x010F0011), tag_num=0x0B)
  4: 0x0421 [0x1D] PRINT_EVENT_MESSAGE(message_id=3369*)
    → "Anyway, head out to the eastern magic tower of the Horutoto Ruins. It's a fair way, and an itsy-bitsy bit dangerous, so you might want to take some friends with you."
  5: 0x0424 [0x23] WAIT_FOR_DIALOG_INTERACTION
  6: 0x0425 [0x29] REQ_SET_WAIT(priority=0x08, entity_id=Hakkuru-Rinkuru (ID: 17760273/0x010F0011), tag_num=0x0C)
  7: 0x042C [0x00] END_REQSTACK()
```

### Event 65535.37

#### Metadata

| Field        | Value    |
|--------------|----------|
| Entrypoint   | 0x042D   |
| Data Size    | 19 bytes |
| Instructions | 5        |

```
      00 01 02 03 04 05 06 07  08 09 0A 0B 0C 0D 0E 0F
      -- -- -- -- -- -- -- --  -- -- -- -- -- -- -- --
0420:                                         29 08 11               )..
0430: 00 0F 01 0D 1D 13 80 23  29 08 11 00 0F 01 0E 00  .......#).......
```

#### Opcodes

```
  0: 0x042D [0x29] REQ_SET_WAIT(priority=0x08, entity_id=Hakkuru-Rinkuru (ID: 17760273/0x010F0011), tag_num=0x0D)
  1: 0x0434 [0x1D] PRINT_EVENT_MESSAGE(message_id=3370*)
    → "Good luck! (You'll need it...)"
  2: 0x0437 [0x23] WAIT_FOR_DIALOG_INTERACTION
  3: 0x0438 [0x29] REQ_SET_WAIT(priority=0x08, entity_id=Hakkuru-Rinkuru (ID: 17760273/0x010F0011), tag_num=0x0E)
  4: 0x043F [0x00] END_REQSTACK()
```

### Event 91

#### Metadata

| Field        | Value    |
|--------------|----------|
| Entrypoint   | 0x0440   |
| Data Size    | 29 bytes |
| Instructions | 10       |

```
      00 01 02 03 04 05 06 07  08 09 0A 0B 0C 0D 0E 0F
      -- -- -- -- -- -- -- --  -- -- -- -- -- -- -- --
0440: 1E F0 FF FF 7F 6F 70 29  08 11 00 0F 01 01 1D 14  .....op)........
0450: 80 23 29 08 11 00 0F 01  02 20 00 21 00           .#)...... .!.   
```

#### Opcodes

```
  0: 0x0440 [0x1E] EventEntity looks at LocalPlayer and starts talking
  1: 0x0445 [0x6F] WAIT_FRAME_DELAY: Yield until WaitTime reaches zero
  2: 0x0446 [0x70] WAIT_ENTITY_RENDER_FLAG: Wait while EventEntity->Render.Flags3 bit 2 is set (cancel turn if not)
  3: 0x0447 [0x29] REQ_SET_WAIT(priority=0x08, entity_id=Hakkuru-Rinkuru (ID: 17760273/0x010F0011), tag_num=0x01)
  4: 0x044E [0x1D] PRINT_EVENT_MESSAGE(message_id=3371*)
    → "Head out to the eastern magic tower of the Horutoto Ruins. It's a fair way, and an itsy-bitsy bit dangerous, so you might want to take some friends with you."
  5: 0x0451 [0x23] WAIT_FOR_DIALOG_INTERACTION
  6: 0x0452 [0x29] REQ_SET_WAIT(priority=0x08, entity_id=Hakkuru-Rinkuru (ID: 17760273/0x010F0011), tag_num=0x02)
  7: 0x0459 [0x20] SET_CLI_EVENT_UC_FLAG: Unlock player control
  8: 0x045B [0x21] END_EVENT
  9: 0x045C [0x00] END_REQSTACK()
```

### Event 93

#### Metadata

| Field        | Value    |
|--------------|----------|
| Entrypoint   | 0x045D   |
| Data Size    | 29 bytes |
| Instructions | 10       |

```
      00 01 02 03 04 05 06 07  08 09 0A 0B 0C 0D 0E 0F
      -- -- -- -- -- -- -- --  -- -- -- -- -- -- -- --
0450:                                         1E F0 FF               ...
0460: FF 7F 6F 70 29 08 11 00  0F 01 01 1D 15 80 23 29  ..op).........#)
0470: 08 11 00 0F 01 02 20 00  21 00                    ...... .!.      
```

#### Opcodes

```
  0: 0x045D [0x1E] EventEntity looks at LocalPlayer and starts talking
  1: 0x0462 [0x6F] WAIT_FRAME_DELAY: Yield until WaitTime reaches zero
  2: 0x0463 [0x70] WAIT_ENTITY_RENDER_FLAG: Wait while EventEntity->Render.Flags3 bit 2 is set (cancel turn if not)
  3: 0x0464 [0x29] REQ_SET_WAIT(priority=0x08, entity_id=Hakkuru-Rinkuru (ID: 17760273/0x010F0011), tag_num=0x01)
  4: 0x046B [0x1D] PRINT_EVENT_MESSAGE(message_id=3374*)
    → "So you were able to meet our flub-the-dub minister, huh? The minister came back an itty-bitty ago, but was straight out the door again..."
  5: 0x046E [0x23] WAIT_FOR_DIALOG_INTERACTION
  6: 0x046F [0x29] REQ_SET_WAIT(priority=0x08, entity_id=Hakkuru-Rinkuru (ID: 17760273/0x010F0011), tag_num=0x02)
  7: 0x0476 [0x20] SET_CLI_EVENT_UC_FLAG: Unlock player control
  8: 0x0478 [0x21] END_EVENT
  9: 0x0479 [0x00] END_REQSTACK()
```

### Event 94

#### Metadata

| Field        | Value    |
|--------------|----------|
| Entrypoint   | 0x047A   |
| Data Size    | 75 bytes |
| Instructions | 21       |

```
      00 01 02 03 04 05 06 07  08 09 0A 0B 0C 0D 0E 0F
      -- -- -- -- -- -- -- --  -- -- -- -- -- -- -- --
0470:                                20 01 42 1E F0 FF             .B...
0480: FF 7F 6F 70 29 08 11 00  0F 01 01 1D 15 80 23 1D  ..op).........#.
0490: 16 80 23 29 08 11 00 0F  01 02 29 08 11 00 0F 01  ..#)......).....
04A0: 01 1D 17 80 23 1D 18 80  23 29 08 11 00 0F 01 02  ....#...#)......
04B0: 45 19 80 F0 FF FF 7F F0  FF FF 7F 71 73 74 63 07  E..........qstc.
04C0: 80 20 00 21 00                                    . .!.           
```

#### Opcodes

```
  0: 0x047A [0x20] SET_CLI_EVENT_UC_FLAG: Lock player control
  1: 0x047C [0x42] SET_CLI_EVENT_CANCEL_DATA()
  2: 0x047D [0x1E] EventEntity looks at LocalPlayer and starts talking
  3: 0x0482 [0x6F] WAIT_FRAME_DELAY: Yield until WaitTime reaches zero
  4: 0x0483 [0x70] WAIT_ENTITY_RENDER_FLAG: Wait while EventEntity->Render.Flags3 bit 2 is set (cancel turn if not)
  5: 0x0484 [0x29] REQ_SET_WAIT(priority=0x08, entity_id=Hakkuru-Rinkuru (ID: 17760273/0x010F0011), tag_num=0x01)
  6: 0x048B [0x1D] PRINT_EVENT_MESSAGE(message_id=3374*)
    → "So you were able to meet our flub-the-dub minister, huh? The minister came back an itty-bitty ago, but was straight out the door again..."
  7: 0x048E [0x23] WAIT_FOR_DIALOG_INTERACTION
  8: 0x048F [0x1D] PRINT_EVENT_MESSAGE(message_id=3375*)
    → "Oh, that's the no-go Mana Orb...!"
  9: 0x0492 [0x23] WAIT_FOR_DIALOG_INTERACTION
 10: 0x0493 [0x29] REQ_SET_WAIT(priority=0x08, entity_id=Hakkuru-Rinkuru (ID: 17760273/0x010F0011), tag_num=0x02)
 11: 0x049A [0x29] REQ_SET_WAIT(priority=0x08, entity_id=Hakkuru-Rinkuru (ID: 17760273/0x010F0011), tag_num=0x01)
 12: 0x04A1 [0x1D] PRINT_EVENT_MESSAGE(message_id=3376*)
    → "Ah, so you were the one the minister was mumbling about when he huff-and-puffingly ran in and out of here. He told us to take the hunk-of-junk $3 off of you."
 13: 0x04A4 [0x23] WAIT_FOR_DIALOG_INTERACTION
 14: 0x04A5 [0x1D] PRINT_EVENT_MESSAGE(message_id=3377*)
    → "Thanks for your humdrum help today. We look forward to having you help us again during our next mayday..."
 15: 0x04A8 [0x23] WAIT_FOR_DIALOG_INTERACTION
 16: 0x04A9 [0x29] REQ_SET_WAIT(priority=0x08, entity_id=Hakkuru-Rinkuru (ID: 17760273/0x010F0011), tag_num=0x02)
 17: 0x04B0 [0x45] LOAD_SCHEDULED_TASK: Load scheduler "qstc" with entities [LocalPlayer, LocalPlayer], work=[201*, 0*]
 18: 0x04C1 [0x20] SET_CLI_EVENT_UC_FLAG: Unlock player control
 19: 0x04C3 [0x21] END_EVENT
 20: 0x04C4 [0x00] END_REQSTACK()
```

### Event 96

#### Metadata

| Field        | Value    |
|--------------|----------|
| Entrypoint   | 0x04C5   |
| Data Size    | 29 bytes |
| Instructions | 10       |

```
      00 01 02 03 04 05 06 07  08 09 0A 0B 0C 0D 0E 0F
      -- -- -- -- -- -- -- --  -- -- -- -- -- -- -- --
04C0:                1E F0 FF  FF 7F 6F 70 29 08 11 00       .....op)...
04D0: 0F 01 03 1D 1A 80 23 29  08 11 00 0F 01 05 20 00  ......#)...... .
04E0: 21 00                                             !.              
```

#### Opcodes

```
  0: 0x04C5 [0x1E] EventEntity looks at LocalPlayer and starts talking
  1: 0x04CA [0x6F] WAIT_FRAME_DELAY: Yield until WaitTime reaches zero
  2: 0x04CB [0x70] WAIT_ENTITY_RENDER_FLAG: Wait while EventEntity->Render.Flags3 bit 2 is set (cancel turn if not)
  3: 0x04CC [0x29] REQ_SET_WAIT(priority=0x08, entity_id=Hakkuru-Rinkuru (ID: 17760273/0x010F0011), tag_num=0x03)
  4: 0x04D3 [0x1D] PRINT_EVENT_MESSAGE(message_id=3379*)
    → "The minister is trying his best to reactivate the mumbo-jumbo gizmos in the Horutoto Ruins. Everyone tells him it's impossible, but knowing him, he'll probably prove the naysayers wrong."
  5: 0x04D6 [0x23] WAIT_FOR_DIALOG_INTERACTION
  6: 0x04D7 [0x29] REQ_SET_WAIT(priority=0x08, entity_id=Hakkuru-Rinkuru (ID: 17760273/0x010F0011), tag_num=0x05)
  7: 0x04DE [0x20] SET_CLI_EVENT_UC_FLAG: Unlock player control
  8: 0x04E0 [0x21] END_EVENT
  9: 0x04E1 [0x00] END_REQSTACK()
```

### Event 147

#### Metadata

| Field        | Value     |
|--------------|-----------|
| Entrypoint   | 0x04E2    |
| Data Size    | 120 bytes |
| Instructions | 23        |

```
      00 01 02 03 04 05 06 07  08 09 0A 0B 0C 0D 0E 0F
      -- -- -- -- -- -- -- --  -- -- -- -- -- -- -- --
04E0:       1E F0 FF FF 7F 6F  70 4A 12 00 0F 01 F0 FF    .....opJ......
04F0: FF 7F 1C 01 80 29 0B 11  00 0F 01 2D 29 0B 12 00  .....).....-)...
0500: 0F 01 1E 4A 11 00 0F 01  12 00 0F 01 1C 01 80 29  ...J...........)
0510: 0B 11 00 0F 01 2E 29 0B  11 00 0F 01 2F 4A 12 00  ......)...../J..
0520: 0F 01 F0 FF FF 7F 1C 01  80 29 0B 12 00 0F 01 20  .........)..... 
0530: 4A 11 00 0F 01 F0 FF FF  7F 1C 01 80 29 0B 11 00  J...........)...
0540: 0F 01 30 4A 12 00 0F 01  11 00 0F 01 1C 01 80 29  ..0J...........)
0550: 0B 12 00 0F 01 21 20 00  21 00                    .....! .!.      
```

#### Opcodes

```
  0: 0x04E2 [0x1E] EventEntity looks at LocalPlayer and starts talking
  1: 0x04E7 [0x6F] WAIT_FRAME_DELAY: Yield until WaitTime reaches zero
  2: 0x04E8 [0x70] WAIT_ENTITY_RENDER_FLAG: Wait while EventEntity->Render.Flags3 bit 2 is set (cancel turn if not)
  3: 0x04E9 [0x4A] Kuroido-Moido (ID: 17760274/0x010F0012) looks at LocalPlayer
  4: 0x04F2 [0x1C] WAIT(30* ticks)
  5: 0x04F5 [0x29] REQ_SET_WAIT(priority=0x0B, entity_id=Hakkuru-Rinkuru (ID: 17760273/0x010F0011), tag_num=0x2D)
  6: 0x04FC [0x29] REQ_SET_WAIT(priority=0x0B, entity_id=Kuroido-Moido (ID: 17760274/0x010F0012), tag_num=0x1E)
  7: 0x0503 [0x4A] Hakkuru-Rinkuru (ID: 17760273/0x010F0011) looks at Kuroido-Moido (ID: 17760274/0x010F0012)
  8: 0x050C [0x1C] WAIT(30* ticks)
  9: 0x050F [0x29] REQ_SET_WAIT(priority=0x0B, entity_id=Hakkuru-Rinkuru (ID: 17760273/0x010F0011), tag_num=0x2E)
 10: 0x0516 [0x29] REQ_SET_WAIT(priority=0x0B, entity_id=Hakkuru-Rinkuru (ID: 17760273/0x010F0011), tag_num=0x2F)
 11: 0x051D [0x4A] Kuroido-Moido (ID: 17760274/0x010F0012) looks at LocalPlayer
 12: 0x0526 [0x1C] WAIT(30* ticks)
 13: 0x0529 [0x29] REQ_SET_WAIT(priority=0x0B, entity_id=Kuroido-Moido (ID: 17760274/0x010F0012), tag_num=0x20)
 14: 0x0530 [0x4A] Hakkuru-Rinkuru (ID: 17760273/0x010F0011) looks at LocalPlayer
 15: 0x0539 [0x1C] WAIT(30* ticks)
 16: 0x053C [0x29] REQ_SET_WAIT(priority=0x0B, entity_id=Hakkuru-Rinkuru (ID: 17760273/0x010F0011), tag_num=0x30)
 17: 0x0543 [0x4A] Kuroido-Moido (ID: 17760274/0x010F0012) looks at Hakkuru-Rinkuru (ID: 17760273/0x010F0011)
 18: 0x054C [0x1C] WAIT(30* ticks)
 19: 0x054F [0x29] REQ_SET_WAIT(priority=0x0B, entity_id=Kuroido-Moido (ID: 17760274/0x010F0012), tag_num=0x21)
 20: 0x0556 [0x20] SET_CLI_EVENT_UC_FLAG: Unlock player control
 21: 0x0558 [0x21] END_EVENT
 22: 0x0559 [0x00] END_REQSTACK()
```

### Event 65535.38

#### Metadata

| Field        | Value    |
|--------------|----------|
| Entrypoint   | 0x055A   |
| Data Size    | 19 bytes |
| Instructions | 5        |

```
      00 01 02 03 04 05 06 07  08 09 0A 0B 0C 0D 0E 0F
      -- -- -- -- -- -- -- --  -- -- -- -- -- -- -- --
0550:                                29 08 11 00 0F 01            ).....
0560: 01 1D 1B 80 23 29 08 11  00 0F 01 02 00           ....#).......   
```

#### Opcodes

```
  0: 0x055A [0x29] REQ_SET_WAIT(priority=0x08, entity_id=Hakkuru-Rinkuru (ID: 17760273/0x010F0011), tag_num=0x01)
  1: 0x0561 [0x1D] PRINT_EVENT_MESSAGE(message_id=3481*)
    → "Oh, so you're looking for our fudge-mudge minister, are you? Well that is a nippity tippity pity..."
  2: 0x0564 [0x23] WAIT_FOR_DIALOG_INTERACTION
  3: 0x0565 [0x29] REQ_SET_WAIT(priority=0x08, entity_id=Hakkuru-Rinkuru (ID: 17760273/0x010F0011), tag_num=0x02)
  4: 0x056C [0x00] END_REQSTACK()
```

### Event 65535.39

#### Metadata

| Field        | Value    |
|--------------|----------|
| Entrypoint   | 0x056D   |
| Data Size    | 46 bytes |
| Instructions | 10       |

```
      00 01 02 03 04 05 06 07  08 09 0A 0B 0C 0D 0E 0F
      -- -- -- -- -- -- -- --  -- -- -- -- -- -- -- --
0560:                                         29 08 11               )..
0570: 00 0F 01 03 1D 1C 80 23  29 08 11 00 0F 01 04 4A  .......#)......J
0580: 12 00 0F 01 11 00 0F 01  29 08 11 00 0F 01 05 1D  ........).......
0590: 1D 80 23 29 08 11 00 0F  01 06 00                 ..#).......     
```

#### Opcodes

```
  0: 0x056D [0x29] REQ_SET_WAIT(priority=0x08, entity_id=Hakkuru-Rinkuru (ID: 17760273/0x010F0011), tag_num=0x03)
  1: 0x0574 [0x1D] PRINT_EVENT_MESSAGE(message_id=3483*)
    → "If he was preparing for a long journey, then he wasn't going to his usual humdrum destination of the Horutoto Ruins, was he?"
  2: 0x0577 [0x23] WAIT_FOR_DIALOG_INTERACTION
  3: 0x0578 [0x29] REQ_SET_WAIT(priority=0x08, entity_id=Hakkuru-Rinkuru (ID: 17760273/0x010F0011), tag_num=0x04)
  4: 0x057F [0x4A] Kuroido-Moido (ID: 17760274/0x010F0012) looks at Hakkuru-Rinkuru (ID: 17760273/0x010F0011)
  5: 0x0588 [0x29] REQ_SET_WAIT(priority=0x08, entity_id=Hakkuru-Rinkuru (ID: 17760273/0x010F0011), tag_num=0x05)
  6: 0x058F [0x1D] PRINT_EVENT_MESSAGE(message_id=3484*)
    → "Well, that probably means he's finally ascertained the nitty-gritty whereabouts of the Full Moon Fountain then?"
  7: 0x0592 [0x23] WAIT_FOR_DIALOG_INTERACTION
  8: 0x0593 [0x29] REQ_SET_WAIT(priority=0x08, entity_id=Hakkuru-Rinkuru (ID: 17760273/0x010F0011), tag_num=0x06)
  9: 0x059A [0x00] END_REQSTACK()
```

### Event 65535.40

#### Metadata

| Field        | Value    |
|--------------|----------|
| Entrypoint   | 0x059B   |
| Data Size    | 19 bytes |
| Instructions | 5        |

```
      00 01 02 03 04 05 06 07  08 09 0A 0B 0C 0D 0E 0F
      -- -- -- -- -- -- -- --  -- -- -- -- -- -- -- --
0590:                                   29 08 11 00 0F             )....
05A0: 01 0F 1D 1E 80 23 29 08  11 00 0F 01 10 00        .....#).......  
```

#### Opcodes

```
  0: 0x059B [0x29] REQ_SET_WAIT(priority=0x08, entity_id=Hakkuru-Rinkuru (ID: 17760273/0x010F0011), tag_num=0x0F)
  1: 0x05A2 [0x1D] PRINT_EVENT_MESSAGE(message_id=3485*)
    → "Hell's bells...!"
  2: 0x05A5 [0x23] WAIT_FOR_DIALOG_INTERACTION
  3: 0x05A6 [0x29] REQ_SET_WAIT(priority=0x08, entity_id=Hakkuru-Rinkuru (ID: 17760273/0x010F0011), tag_num=0x10)
  4: 0x05AD [0x00] END_REQSTACK()
```

### Event 65535.41

#### Metadata

| Field        | Value    |
|--------------|----------|
| Entrypoint   | 0x05AE   |
| Data Size    | 19 bytes |
| Instructions | 5        |

```
      00 01 02 03 04 05 06 07  08 09 0A 0B 0C 0D 0E 0F
      -- -- -- -- -- -- -- --  -- -- -- -- -- -- -- --
05A0:                                            29 08                ).
05B0: 11 00 0F 01 0B 1D 1F 80  23 29 08 11 00 0F 01 0C  ........#)......
05C0: 00                                                .               
```

#### Opcodes

```
  0: 0x05AE [0x29] REQ_SET_WAIT(priority=0x08, entity_id=Hakkuru-Rinkuru (ID: 17760273/0x010F0011), tag_num=0x0B)
  1: 0x05B5 [0x1D] PRINT_EVENT_MESSAGE(message_id=3489*)
    → "Yes. That he's hot-to-trot off to Castle Oztroja!"
  2: 0x05B8 [0x23] WAIT_FOR_DIALOG_INTERACTION
  3: 0x05B9 [0x29] REQ_SET_WAIT(priority=0x08, entity_id=Hakkuru-Rinkuru (ID: 17760273/0x010F0011), tag_num=0x0C)
  4: 0x05C0 [0x00] END_REQSTACK()
```

### Event 148

#### Metadata

| Field        | Value    |
|--------------|----------|
| Entrypoint   | 0x05C1   |
| Data Size    | 45 bytes |
| Instructions | 12       |

```
      00 01 02 03 04 05 06 07  08 09 0A 0B 0C 0D 0E 0F
      -- -- -- -- -- -- -- --  -- -- -- -- -- -- -- --
05C0:    29 08 11 00 0F 01 03  1D 20 80 23 29 08 11 00   )....... .#)...
05D0: 0F 01 04 29 08 11 00 0F  01 05 29 08 11 00 0F 01  ...)......).....
05E0: 06 1E F0 FF FF 7F 1D 21  80 23 20 00 21 00        .......!.# .!.  
```

#### Opcodes

```
  0: 0x05C1 [0x29] REQ_SET_WAIT(priority=0x08, entity_id=Hakkuru-Rinkuru (ID: 17760273/0x010F0011), tag_num=0x03)
  1: 0x05C8 [0x1D] PRINT_EVENT_MESSAGE(message_id=3491*)
    → "Or more to the point, why would our ding-a-ling minister head off to such a dangerous place as Castle Oztroja on his own?"
  2: 0x05CB [0x23] WAIT_FOR_DIALOG_INTERACTION
  3: 0x05CC [0x29] REQ_SET_WAIT(priority=0x08, entity_id=Hakkuru-Rinkuru (ID: 17760273/0x010F0011), tag_num=0x04)
  4: 0x05D3 [0x29] REQ_SET_WAIT(priority=0x08, entity_id=Hakkuru-Rinkuru (ID: 17760273/0x010F0011), tag_num=0x05)
  5: 0x05DA [0x29] REQ_SET_WAIT(priority=0x08, entity_id=Hakkuru-Rinkuru (ID: 17760273/0x010F0011), tag_num=0x06)
  6: 0x05E1 [0x1E] EventEntity looks at LocalPlayer and starts talking
  7: 0x05E6 [0x1D] PRINT_EVENT_MESSAGE(message_id=3492*)
    → "He's been more of an odd bod than usual ever since he found that restricted book that had been lost for decades. Don't tell me he's been cursed by the hocus pocus of that restricted book!?"
  8: 0x05E9 [0x23] WAIT_FOR_DIALOG_INTERACTION
  9: 0x05EA [0x20] SET_CLI_EVENT_UC_FLAG: Unlock player control
 10: 0x05EC [0x21] END_EVENT
 11: 0x05ED [0x00] END_REQSTACK()
```

### Event 150

#### Metadata

| Field        | Value    |
|--------------|----------|
| Entrypoint   | 0x05EE   |
| Data Size    | 47 bytes |
| Instructions | 14       |

```
      00 01 02 03 04 05 06 07  08 09 0A 0B 0C 0D 0E 0F
      -- -- -- -- -- -- -- --  -- -- -- -- -- -- -- --
05E0:                                            1E F0                ..
05F0: FF FF 7F 6F 70 29 08 11  00 0F 01 0F 1D 22 80 23  ...op).......".#
0600: 29 08 11 00 0F 01 10 29  08 11 00 0F 01 14 1D 23  )......).......#
0610: 80 23 29 08 11 00 0F 01  15 20 00 21 00           .#)...... .!.   
```

#### Opcodes

```
  0: 0x05EE [0x1E] EventEntity looks at LocalPlayer and starts talking
  1: 0x05F3 [0x6F] WAIT_FRAME_DELAY: Yield until WaitTime reaches zero
  2: 0x05F4 [0x70] WAIT_ENTITY_RENDER_FLAG: Wait while EventEntity->Render.Flags3 bit 2 is set (cancel turn if not)
  3: 0x05F5 [0x29] REQ_SET_WAIT(priority=0x08, entity_id=Hakkuru-Rinkuru (ID: 17760273/0x010F0011), tag_num=0x0F)
  4: 0x05FC [0x1D] PRINT_EVENT_MESSAGE(message_id=3495*)
    → "Were you able to find and hobnob with our minister? It sounds as though he headed off to Castle Oztroja..."
  5: 0x05FF [0x23] WAIT_FOR_DIALOG_INTERACTION
  6: 0x0600 [0x29] REQ_SET_WAIT(priority=0x08, entity_id=Hakkuru-Rinkuru (ID: 17760273/0x010F0011), tag_num=0x10)
  7: 0x0607 [0x29] REQ_SET_WAIT(priority=0x08, entity_id=Hakkuru-Rinkuru (ID: 17760273/0x010F0011), tag_num=0x14)
  8: 0x060E [0x1D] PRINT_EVENT_MESSAGE(message_id=3496*)
    → "What? You met him and he was wounded!? Jeepers creepers! That's terrible!"
  9: 0x0611 [0x23] WAIT_FOR_DIALOG_INTERACTION
 10: 0x0612 [0x29] REQ_SET_WAIT(priority=0x08, entity_id=Hakkuru-Rinkuru (ID: 17760273/0x010F0011), tag_num=0x15)
 11: 0x0619 [0x20] SET_CLI_EVENT_UC_FLAG: Unlock player control
 12: 0x061B [0x21] END_EVENT
 13: 0x061C [0x00] END_REQSTACK()
```

### Event 259

#### Metadata

| Field        | Value    |
|--------------|----------|
| Entrypoint   | 0x061D   |
| Data Size    | 86 bytes |
| Instructions | 19       |

```
      00 01 02 03 04 05 06 07  08 09 0A 0B 0C 0D 0E 0F
      -- -- -- -- -- -- -- --  -- -- -- -- -- -- -- --
0610:                                         1E F0 FF               ...
0620: FF 7F 6F 70 29 0B 11 00  0F 01 34 29 0B 11 00 0F  ..op).....4)....
0630: 01 35 29 0B 11 00 0F 01  36 24 24 80 07 80 07 80  .5).....6$$.....
0640: 25 02 00 10 07 80 00 58  06 03 01 10 25 80 29 0B  %......X....%.).
0650: 11 00 0F 01 37 01 6F 06  02 00 10 25 80 00 6F 06  ....7.o....%..o.
0660: 03 01 10 26 80 29 0B 11  00 0F 01 38 01 6F 06 20  ...&.).....8.o. 
0670: 00 21 00                                          .!.             
```

#### Opcodes

```
  0: 0x061D [0x1E] EventEntity looks at LocalPlayer and starts talking
  1: 0x0622 [0x6F] WAIT_FRAME_DELAY: Yield until WaitTime reaches zero
  2: 0x0623 [0x70] WAIT_ENTITY_RENDER_FLAG: Wait while EventEntity->Render.Flags3 bit 2 is set (cancel turn if not)
  3: 0x0624 [0x29] REQ_SET_WAIT(priority=0x0B, entity_id=Hakkuru-Rinkuru (ID: 17760273/0x010F0011), tag_num=0x34)
  4: 0x062B [0x29] REQ_SET_WAIT(priority=0x0B, entity_id=Hakkuru-Rinkuru (ID: 17760273/0x010F0011), tag_num=0x35)
  5: 0x0632 [0x29] REQ_SET_WAIT(priority=0x0B, entity_id=Hakkuru-Rinkuru (ID: 17760273/0x010F0011), tag_num=0x36)
  6: 0x0639 [0x24] CREATE_DIALOG(message_id=3699*, default_option=0*, option_flags=0*)
    → "Wanda help? [Yes, it'd be wanderful!/No. Wander away.]"
  7: 0x0640 [0x25] WAIT_DIALOG_SELECT()
  8: 0x0641 [0x02] IF !(Work_Zone[0] == 0*) GOTO 0x0658
  9: 0x0649 [0x03] Work_Zone[1] = 1*
 10: 0x064E [0x29] REQ_SET_WAIT(priority=0x0B, entity_id=Hakkuru-Rinkuru (ID: 17760273/0x010F0011), tag_num=0x37)
 11: 0x0655 [0x01] GOTO 0x066F
 12: 0x0658 [0x02] IF !(Work_Zone[0] == 1*) GOTO 0x066F
 13: 0x0660 [0x03] Work_Zone[1] = 2*
 14: 0x0665 [0x29] REQ_SET_WAIT(priority=0x0B, entity_id=Hakkuru-Rinkuru (ID: 17760273/0x010F0011), tag_num=0x38)
 15: 0x066C [0x01] GOTO 0x066F

SUBROUTINE_066F:
 16: 0x066F [0x20] SET_CLI_EVENT_UC_FLAG: Unlock player control
 17: 0x0671 [0x21] END_EVENT
 18: 0x0672 [0x00] END_REQSTACK()
```

### Event 65535.42

#### Metadata

| Field        | Value    |
|--------------|----------|
| Entrypoint   | 0x0673   |
| Data Size    | 19 bytes |
| Instructions | 5        |

```
      00 01 02 03 04 05 06 07  08 09 0A 0B 0C 0D 0E 0F
      -- -- -- -- -- -- -- --  -- -- -- -- -- -- -- --
0670:          29 08 11 00 0F  01 03 1D 27 80 23 29 08     ).......'.#).
0680: 11 00 0F 01 04 00                                 ......          
```

#### Opcodes

```
  0: 0x0673 [0x29] REQ_SET_WAIT(priority=0x08, entity_id=Hakkuru-Rinkuru (ID: 17760273/0x010F0011), tag_num=0x03)
  1: 0x067A [0x1D] PRINT_EVENT_MESSAGE(message_id=3695*)
    → "I'm in such a helter-skelter fix! I'm currently preparing the budget for next year, and the captains of the black, white, and red mage brigades of the War Warlocks are all squeezing me for more arms funding."
  2: 0x067D [0x23] WAIT_FOR_DIALOG_INTERACTION
  3: 0x067E [0x29] REQ_SET_WAIT(priority=0x08, entity_id=Hakkuru-Rinkuru (ID: 17760273/0x010F0011), tag_num=0x04)
  4: 0x0685 [0x00] END_REQSTACK()
```

### Event 65535.43

#### Metadata

| Field        | Value    |
|--------------|----------|
| Entrypoint   | 0x0686   |
| Data Size    | 37 bytes |
| Instructions | 9        |

```
      00 01 02 03 04 05 06 07  08 09 0A 0B 0C 0D 0E 0F
      -- -- -- -- -- -- -- --  -- -- -- -- -- -- -- --
0680:                   29 08  11 00 0F 01 05 1D 28 80        ).......(.
0690: 23 29 08 11 00 0F 01 06  29 08 11 00 0F 01 01 1D  #)......).......
06A0: 29 80 23 29 08 11 00 0F  01 02 00                 ).#).......     
```

#### Opcodes

```
  0: 0x0686 [0x29] REQ_SET_WAIT(priority=0x08, entity_id=Hakkuru-Rinkuru (ID: 17760273/0x010F0011), tag_num=0x05)
  1: 0x068D [0x1D] PRINT_EVENT_MESSAGE(message_id=3696*)
    → "But as usual, our flub-the-dub minister has gone AWOL on us, so there's no one here who can form their hodgepodge of opinions into a clear-cut policy."
  2: 0x0690 [0x23] WAIT_FOR_DIALOG_INTERACTION
  3: 0x0691 [0x29] REQ_SET_WAIT(priority=0x08, entity_id=Hakkuru-Rinkuru (ID: 17760273/0x010F0011), tag_num=0x06)
  4: 0x0698 [0x29] REQ_SET_WAIT(priority=0x08, entity_id=Hakkuru-Rinkuru (ID: 17760273/0x010F0011), tag_num=0x01)
  5: 0x069F [0x1D] PRINT_EVENT_MESSAGE(message_id=3697*)
    → "I guess there's no choice but for us to decide the fair share on our own. We are in charge of operations, but know next to nothing about the performance of the various handy-dandy wands they are requesting."
  6: 0x06A2 [0x23] WAIT_FOR_DIALOG_INTERACTION
  7: 0x06A3 [0x29] REQ_SET_WAIT(priority=0x08, entity_id=Hakkuru-Rinkuru (ID: 17760273/0x010F0011), tag_num=0x02)
  8: 0x06AA [0x00] END_REQSTACK()
```

### Event 65535.44

#### Metadata

| Field        | Value    |
|--------------|----------|
| Entrypoint   | 0x06AB   |
| Data Size    | 19 bytes |
| Instructions | 5        |

```
      00 01 02 03 04 05 06 07  08 09 0A 0B 0C 0D 0E 0F
      -- -- -- -- -- -- -- --  -- -- -- -- -- -- -- --
06A0:                                   29 08 11 00 0F             )....
06B0: 01 0B 1D 2A 80 23 29 08  11 00 0F 01 0C 00        ...*.#).......  
```

#### Opcodes

```
  0: 0x06AB [0x29] REQ_SET_WAIT(priority=0x08, entity_id=Hakkuru-Rinkuru (ID: 17760273/0x010F0011), tag_num=0x0B)
  1: 0x06B2 [0x1D] PRINT_EVENT_MESSAGE(message_id=3698*)
    → "I'd like to get my hands on one of each of the three types of wands and compare their make-or-break performance until everyone agrees on which wands are best. If only someone would help me obtain them..."
  2: 0x06B5 [0x23] WAIT_FOR_DIALOG_INTERACTION
  3: 0x06B6 [0x29] REQ_SET_WAIT(priority=0x08, entity_id=Hakkuru-Rinkuru (ID: 17760273/0x010F0011), tag_num=0x0C)
  4: 0x06BD [0x00] END_REQSTACK()
```

### Event 65535.45

#### Metadata

| Field        | Value    |
|--------------|----------|
| Entrypoint   | 0x06BE   |
| Data Size    | 23 bytes |
| Instructions | 7        |

```
      00 01 02 03 04 05 06 07  08 09 0A 0B 0C 0D 0E 0F
      -- -- -- -- -- -- -- --  -- -- -- -- -- -- -- --
06B0:                                            29 08                ).
06C0: 11 00 0F 01 01 1D 2B 80  23 1D 2C 80 23 29 08 11  ......+.#.,.#)..
06D0: 00 0F 01 02 00                                    .....           
```

#### Opcodes

```
  0: 0x06BE [0x29] REQ_SET_WAIT(priority=0x08, entity_id=Hakkuru-Rinkuru (ID: 17760273/0x010F0011), tag_num=0x01)
  1: 0x06C5 [0x1D] PRINT_EVENT_MESSAGE(message_id=3700*)
    → "Why...thank you so very much for the nicey-nice offer! Just one of each kind of wand would be enough for us to try out. I'm counting on you, hotshot!"
  2: 0x06C8 [0x23] WAIT_FOR_DIALOG_INTERACTION
  3: 0x06C9 [0x1D] PRINT_EVENT_MESSAGE(message_id=3701*)
    → "Ask the fuddy-duddy head of each brigade of the War Warlocks for the names of the three wands. Oh, and make sure you obtain your own hipper-dipper wands to give us. Don't go giving us wands that you borrowed from others, now!"
  4: 0x06CC [0x23] WAIT_FOR_DIALOG_INTERACTION
  5: 0x06CD [0x29] REQ_SET_WAIT(priority=0x08, entity_id=Hakkuru-Rinkuru (ID: 17760273/0x010F0011), tag_num=0x02)
  6: 0x06D4 [0x00] END_REQSTACK()
```

### Event 65535.46

#### Metadata

| Field        | Value    |
|--------------|----------|
| Entrypoint   | 0x06D5   |
| Data Size    | 19 bytes |
| Instructions | 5        |

```
      00 01 02 03 04 05 06 07  08 09 0A 0B 0C 0D 0E 0F
      -- -- -- -- -- -- -- --  -- -- -- -- -- -- -- --
06D0:                29 08 11  00 0F 01 12 1D 2D 80 23       ).......-.#
06E0: 29 08 11 00 0F 01 13 00                           ).......        
```

#### Opcodes

```
  0: 0x06D5 [0x29] REQ_SET_WAIT(priority=0x08, entity_id=Hakkuru-Rinkuru (ID: 17760273/0x010F0011), tag_num=0x12)
  1: 0x06DC [0x1D] PRINT_EVENT_MESSAGE(message_id=3702*)
    → "Why, you hoddy-doddy! Turning your back on a person in need. Holy moley..."
  2: 0x06DF [0x23] WAIT_FOR_DIALOG_INTERACTION
  3: 0x06E0 [0x29] REQ_SET_WAIT(priority=0x08, entity_id=Hakkuru-Rinkuru (ID: 17760273/0x010F0011), tag_num=0x13)
  4: 0x06E7 [0x00] END_REQSTACK()
```

### Event 260

#### Metadata

| Field        | Value    |
|--------------|----------|
| Entrypoint   | 0x06E8   |
| Data Size    | 33 bytes |
| Instructions | 12       |

```
      00 01 02 03 04 05 06 07  08 09 0A 0B 0C 0D 0E 0F
      -- -- -- -- -- -- -- --  -- -- -- -- -- -- -- --
06E0:                          1E F0 FF FF 7F 6F 70 29          .....op)
06F0: 08 11 00 0F 01 01 1D 2E  80 23 1D 2F 80 23 29 08  .........#./.#).
0700: 11 00 0F 01 02 20 00 21  00                       ..... .!.       
```

#### Opcodes

```
  0: 0x06E8 [0x1E] EventEntity looks at LocalPlayer and starts talking
  1: 0x06ED [0x6F] WAIT_FRAME_DELAY: Yield until WaitTime reaches zero
  2: 0x06EE [0x70] WAIT_ENTITY_RENDER_FLAG: Wait while EventEntity->Render.Flags3 bit 2 is set (cancel turn if not)
  3: 0x06EF [0x29] REQ_SET_WAIT(priority=0x08, entity_id=Hakkuru-Rinkuru (ID: 17760273/0x010F0011), tag_num=0x01)
  4: 0x06F6 [0x1D] PRINT_EVENT_MESSAGE(message_id=3703*)
    → "I'm currently preparing the budget for next year, and the fuddy-duddy captains of the black, white, and red Mage brigades of the War Warlocks are all squeezing me for more arms funding."
  5: 0x06F9 [0x23] WAIT_FOR_DIALOG_INTERACTION
  6: 0x06FA [0x1D] PRINT_EVENT_MESSAGE(message_id=3704*)
    → "I have no choice but to obtain one of each of the three types of wands they want, and compare their make-or-break performance. So, please get me one of each type of wand."
  7: 0x06FD [0x23] WAIT_FOR_DIALOG_INTERACTION
  8: 0x06FE [0x29] REQ_SET_WAIT(priority=0x08, entity_id=Hakkuru-Rinkuru (ID: 17760273/0x010F0011), tag_num=0x02)
  9: 0x0705 [0x20] SET_CLI_EVENT_UC_FLAG: Unlock player control
 10: 0x0707 [0x21] END_EVENT
 11: 0x0708 [0x00] END_REQSTACK()
```

### Event 265

#### Metadata

| Field        | Value      |
|--------------|------------|
| Entrypoint   | 0x0709     |
| Data Size    | 2245 bytes |
| Instructions | 303        |

```
      00 01 02 03 04 05 06 07  08 09 0A 0B 0C 0D 0E 0F
      -- -- -- -- -- -- -- --  -- -- -- -- -- -- -- --
0700:                             20 01 46 01 42 45 06            .F.BE.
0710: 80 F8 FF FF 7F F8 FF FF  7F 66 64 6F 31 07 80 1C  .........fdo1...
0720: 08 80 75 00 09 80 75 01  38 0A 80 29 08 F0 FF FF  ..u...u.8..)....
0730: 7F 0A 5C 00 30 80 5C 01  30 80 29 0B F0 FF FF 7F  ..\.0.\.0.).....
0740: 35 4A 11 00 0F 01 F0 FF  FF 7F 4A 12 00 0F 01 F0  5J........J.....
0750: FF FF 7F 4E 00 1A 00 0F  01 1C 01 80 02 09 10 31  ...N...........1
0760: 80 00 78 07 45 0B 80 F0  FF FF 7F F0 FF FF 7F 73  ..x.E..........s
0770: 31 30 33 07 80 01 89 07  45 0B 80 F0 FF FF 7F F0  103.....E.......
0780: FF FF 7F 73 30 36 34 07  80 45 06 80 F8 FF FF 7F  ...s064..E......
0790: F8 FF FF 7F 66 64 69 31  07 80 29 0B 11 00 0F 01  ....fdi1..).....
07A0: 40 29 0B 12 00 0F 01 28  2B 1A 00 0F 01 32 80 23  @).....(+....2.#
07B0: 4A F0 FF FF 7F 1A 00 0F  01 4A 11 00 0F 01 1A 00  J........J......
07C0: 0F 01 4A 12 00 0F 01 1A  00 0F 01 27 0B 1A 00 0F  ..J........'....
07D0: 01 0F 1C 01 80 45 0B 80  F0 FF FF 7F F0 FF FF 7F  .....E..........
07E0: 73 30 36 35 07 80 27 0B  F0 FF FF 7F 39 27 0B 11  s065..'.....9'..
07F0: 00 0F 01 3D 2B 1A 00 0F  01 33 80 23 52 0B 80 F0  ...=+....3.#R...
0800: FF FF 7F F0 FF FF 7F 73  30 36 35 45 0B 80 F0 FF  .......s065E....
0810: FF 7F F0 FF FF 7F 73 30  36 36 07 80 4A F0 FF FF  ......s066..J...
0820: 7F 1A 00 0F 01 4A 11 00  0F 01 1A 00 0F 01 4A 12  .....J........J.
0830: 00 0F 01 1A 00 0F 01 2A  0B F0 FF FF 7F 4A 11 00  .......*.....J..
0840: 0F 01 1A 00 0F 01 4A 12  00 0F 01 1A 00 0F 01 4A  ......J........J
0850: 1A 00 0F 01 F0 FF FF 7F  4A F0 FF FF 7F 1A 00 0F  ........J.......
0860: 01 2A 0B 11 00 0F 01 2A  0B 1A 00 0F 01 29 0B 1A  .*.....*.....)..
0870: 00 0F 01 12 4A 12 00 0F  01 1A 00 0F 01 4A F0 FF  ....J........J..
0880: FF 7F 1A 00 0F 01 4A 1A  00 0F 01 11 00 0F 01 6F  ......J........o
0890: 76 1A 00 0F 01 29 0B 1A  00 0F 01 16 4A 11 00 0F  v....)......J...
08A0: 01 1A 00 0F 01 29 0B 1A  00 0F 01 17 45 0B 80 F0  .....)......E...
08B0: FF FF 7F F0 FF FF 7F 73  30 36 38 07 80 27 0B 1A  .......s068..'..
08C0: 00 0F 01 10 27 0B 12 00  0F 01 26 1C 34 80 27 0B  ....'.....&.4.'.
08D0: F0 FF FF 7F 38 1C 35 80  27 0B 11 00 0F 01 3B 2A  ....8.5.'.....;*
08E0: 0B 1A 00 0F 01 4B 1A 00  0F 01 36 80 4A F0 FF FF  .....K....6.J...
08F0: 7F 1A 00 0F 01 29 0B 1A  00 0F 01 18 2A 0B 11 00  .....)......*...
0900: 0F 01 2A 0B 12 00 0F 01  2A 0B F0 FF FF 7F 52 0B  ..*.....*.....R.
0910: 80 F0 FF FF 7F F0 FF FF  7F 73 30 36 38 73 37 80  .........s068s7.
0920: 1A 00 0F 01 27 00 0F 01  1C 08 80 45 0B 80 F0 FF  ....'......E....
0930: FF 7F F0 FF FF 7F 73 30  36 39 07 80 1C 38 80 45  ......s069...8.E
0940: 0B 80 F0 FF FF 7F F0 FF  FF 7F 73 30 37 30 07 80  ..........s070..
0950: 29 0B 1A 00 0F 01 19 29  0B 1A 00 0F 01 1A 73 39  )......)......s9
0960: 80 1A 00 0F 01 27 00 0F  01 1C 08 80 45 0B 80 F0  .....'......E...
0970: FF FF 7F F0 FF FF 7F 73  30 37 31 07 80 1C 38 80  .......s071...8.
0980: 45 0B 80 F0 FF FF 7F F0  FF FF 7F 73 30 37 30 07  E..........s070.
0990: 80 29 0B 1A 00 0F 01 1B  29 0B 1A 00 0F 01 1C 73  .)......)......s
09A0: 3A 80 1A 00 0F 01 F0 FF  FF 7F 1C 08 80 45 0B 80  :............E..
09B0: F0 FF FF 7F F0 FF FF 7F  73 30 37 32 07 80 5D 07  ........s072..].
09C0: 80 0C 80 1C 08 80 4A 1A  00 0F 01 F0 FF FF 7F 4A  ......J........J
09D0: 11 00 0F 01 F0 FF FF 7F  4A 12 00 0F 01 F0 FF FF  ........J.......
09E0: 7F 27 08 F0 FF FF 7F 3B  27 08 11 00 0F 01 11 27  .'.....;'......'
09F0: 08 12 00 0F 01 0F 1C 3B  80 45 06 80 F8 FF FF 7F  .......;.E......
0A00: F8 FF FF 7F 66 64 6F 31  07 80 2A 08 F0 FF FF 7F  ....fdo1..*.....
0A10: 2A 08 11 00 0F 01 2A 08  12 00 0F 01 1C 08 80 1C  *.....*.........
0A20: 0C 80 02 07 10 07 80 00  56 0A 73 0A 80 19 00 0F  ........V.s.....
0A30: 01 F0 FF FF 7F 29 0B 19  00 0F 01 1C 4E 00 19 00  .....)......N...
0A40: 0F 01 29 08 F0 FF FF 7F  3C 1C 0C 80 29 0B 19 00  ..).....<...)...
0A50: 0F 01 20 01 7F 0A 73 0A  80 1B 00 0F 01 F0 FF FF  .. ...s.........
0A60: 7F 29 0B 1B 00 0F 01 32  4E 00 1B 00 0F 01 29 08  .).....2N.....).
0A70: F0 FF FF 7F 3C 1C 0C 80  29 0B 1B 00 0F 01 36 5C  ....<...).....6\
0A80: 00 38 80 5C 01 38 80 5D  3C 80 25 80 4E 01 F0 FF  .8.\.8.]<.%.N...
0A90: FF 7F 45 0B 80 F0 FF FF  7F F0 FF FF 7F 73 30 37  ..E..........s07
0AA0: 33 07 80 45 06 80 F8 FF  FF 7F F8 FF FF 7F 66 64  3..E..........fd
0AB0: 69 31 07 80 55 0B 80 F0  FF FF 7F F0 FF FF 7F 73  i1..U..........s
0AC0: 30 37 33 02 07 10 07 80  00 D5 0A 29 0B 19 00 0F  073........)....
0AD0: 01 21 01 DC 0A 29 0B 1B  00 0F 01 37 45 06 80 F8  .!...).....7E...
0AE0: FF FF 7F F8 FF FF 7F 66  64 6F 31 07 80 1C 08 80  .......fdo1.....
0AF0: 4E 00 F0 FF FF 7F 80 F0  FF FF 7F 02 09 10 31 80  N.............1.
0B00: 00 17 0B 45 0B 80 F0 FF  FF 7F F0 FF FF 7F 73 31  ...E..........s1
0B10: 30 34 07 80 01 28 0B 45  0B 80 F0 FF FF 7F F0 FF  04...(.E........
0B20: FF 7F 73 30 37 36 07 80  45 06 80 F8 FF FF 7F F8  ..s076..E.......
0B30: FF FF 7F 66 64 69 31 07  80 27 08 F0 FF FF 7F 3D  ...fdi1..'.....=
0B40: 1C 25 80 29 0B 11 00 0F  01 41 2A 08 F0 FF FF 7F  .%.).....A*.....
0B50: 02 07 10 07 80 00 6B 0B  4A F0 FF FF 7F 19 00 0F  ......k.J.......
0B60: 01 29 0B 12 00 0F 01 29  01 7B 0B 4A F0 FF FF 7F  .).....).{.J....
0B70: 1B 00 0F 01 29 0B 12 00  0F 01 2A 45 0B 80 F0 FF  ....).....*E....
0B80: FF 7F F0 FF FF 7F 73 30  37 38 07 80 4B 1A 00 0F  ......s078..K...
0B90: 01 3D 80 6F 76 1A 00 0F  01 29 0B 1A 00 0F 01 1D  .=.ov....)......
0BA0: 02 07 10 07 80 00 D6 0B  4A F0 FF FF 7F 1A 00 0F  ........J.......
0BB0: 01 4A 19 00 0F 01 1A 00  0F 01 4A 12 00 0F 01 1A  .J........J.....
0BC0: 00 0F 01 4A 11 00 0F 01  1A 00 0F 01 29 0B 19 00  ...J........)...
0BD0: 0F 01 22 01 01 0C 4A F0  FF FF 7F 1A 00 0F 01 4A  .."...J........J
0BE0: 1B 00 0F 01 1A 00 0F 01  4A 12 00 0F 01 1A 00 0F  ........J.......
0BF0: 01 4A 11 00 0F 01 1A 00  0F 01 29 0B 1B 00 0F 01  .J........).....
0C00: 38 02 09 10 31 80 00 1D  0C 45 0B 80 F0 FF FF 7F  8...1....E......
0C10: F0 FF FF 7F 73 31 30 34  07 80 01 2E 0C 45 0B 80  ....s104.....E..
0C20: F0 FF FF 7F F0 FF FF 7F  73 30 37 36 07 80 4A 1A  ........s076..J.
0C30: 00 0F 01 F0 FF FF 7F 6F  76 1A 00 0F 01 29 0B 1A  .......ov....)..
0C40: 00 0F 01 1E 02 07 10 07  80 00 56 0C 29 0B 19 00  ..........V.)...
0C50: 0F 01 23 01 5D 0C 29 0B  1B 00 0F 01 39 45 0B 80  ..#.].).....9E..
0C60: F0 FF FF 7F F0 FF FF 7F  73 30 37 34 07 80 27 0B  ........s074..'.
0C70: 1A 00 0F 01 11 1C 3E 80  4A F0 FF FF 7F 1A 00 0F  ......>.J.......
0C80: 01 02 07 10 07 80 00 AF  0C 4A 19 00 0F 01 1A 00  .........J......
0C90: 0F 01 4A 12 00 0F 01 1A  00 0F 01 4A 11 00 0F 01  ..J........J....
0CA0: 1A 00 0F 01 2B 1A 00 0F  01 3F 80 23 01 D2 0C 4A  ....+....?.#...J
0CB0: 1B 00 0F 01 1A 00 0F 01  4A 12 00 0F 01 1A 00 0F  ........J.......
0CC0: 01 4A 11 00 0F 01 1A 00  0F 01 2B 1A 00 0F 01 40  .J........+....@
0CD0: 80 23 2A 0B 1A 00 0F 01  29 0B 1A 00 0F 01 1F 45  .#*.....)......E
0CE0: 0B 80 F0 FF FF 7F F0 FF  FF 7F 73 30 37 37 07 80  ..........s077..
0CF0: 27 0B 1A 00 0F 01 13 1C  41 80 27 0B F0 FF FF 7F  '.......A.'.....
0D00: 3A 27 0B 11 00 0F 01 3D  55 0B 80 F0 FF FF 7F F0  :'.....=U.......
0D10: FF FF 7F 73 30 37 37 45  0B 80 F0 FF FF 7F F0 FF  ...s077E........
0D20: FF 7F 73 30 37 39 07 80  2A 0B 11 00 0F 01 2A 0B  ..s079..*.....*.
0D30: F0 FF FF 7F 02 07 10 07  80 00 6C 0D 79 00 F0 FF  ..........l.y...
0D40: FF 7F 19 00 0F 01 29 0B  19 00 0F 01 1D 1C 42 80  ......).......B.
0D50: 4A 19 00 0F 01 11 00 0F  01 29 0B 19 00 0F 01 24  J........).....$
0D60: 4A 12 00 0F 01 19 00 0F  01 01 9F 0D 1C 01 80 79  J..............y
0D70: 00 F0 FF FF 7F 1B 00 0F  01 29 0B 1B 00 0F 01 33  .........).....3
0D80: 4A 1B 00 0F 01 11 00 0F  01 6F 76 1B 00 0F 01 29  J........ov....)
0D90: 0B 1B 00 0F 01 3A 4A 12  00 0F 01 1B 00 0F 01 45  .....:J........E
0DA0: 0B 80 F0 FF FF 7F F0 FF  FF 7F 73 30 37 35 07 80  ..........s075..
0DB0: 02 07 10 07 80 00 DE 0D  29 0B 11 00 0F 01 3C 29  ........).....<)
0DC0: 0B 11 00 0F 01 42 29 0B  12 00 0F 01 27 29 0B 12  .....B).....')..
0DD0: 00 0F 01 2B 29 0B 19 00  0F 01 25 01 01 0E 29 0B  ...+).....%...).
0DE0: 11 00 0F 01 3C 29 0B 11  00 0F 01 43 29 0B 12 00  ....<).....C)...
0DF0: 0F 01 27 29 0B 12 00 0F  01 2C 29 0B 1B 00 0F 01  ..').....,).....
0E00: 3B 45 0B 80 F0 FF FF 7F  F0 FF FF 7F 73 30 38 30  ;E..........s080
0E10: 07 80 02 07 10 07 80 00  3F 0E 27 0B 19 00 0F 01  ........?.'.....
0E20: 1E 27 0B 11 00 0F 01 3E  2B 19 00 0F 01 43 80 23  .'.....>+....C.#
0E30: 2A 0B 19 00 0F 01 2A 0B  11 00 0F 01 01 84 0E 27  *.....*........'
0E40: 0B 1B 00 0F 01 34 27 0B  11 00 0F 01 3F 2B 1B 00  .....4'.....?+..
0E50: 0F 01 44 80 23 2A 0B 1B  00 0F 01 2A 0B 11 00 0F  ..D.#*.....*....
0E60: 01 4B 1B 00 0F 01 45 80  6F 76 1B 00 0F 01 29 08  .K....E.ov....).
0E70: 1B 00 0F 01 01 2B 1B 00  0F 01 46 80 23 29 08 1B  .....+....F.#)..
0E80: 00 0F 01 02 27 08 11 00  0F 01 11 27 08 12 00 0F  ....'......'....
0E90: 01 0F 2A 08 11 00 0F 01  2A 08 12 00 0F 01 02 07  ..*.....*.......
0EA0: 10 07 80 00 C0 0E 4A 19  00 0F 01 11 00 0F 01 29  ......J........)
0EB0: 0B 11 00 0F 01 44 29 0B  19 00 0F 01 27 01 D7 0E  .....D).....'...
0EC0: 4A 1B 00 0F 01 11 00 0F  01 29 0B 11 00 0F 01 45  J........).....E
0ED0: 29 0B 1B 00 0F 01 3D 5D  07 80 06 80 02 07 10 07  ).....=]........
0EE0: 80 00 15 0F 27 0B 19 00  0F 01 1F 4A 11 00 0F 01  ....'......J....
0EF0: 12 00 0F 01 4A 12 00 0F  01 11 00 0F 01 1C 0C 80  ....J...........
0F00: 4A 11 00 0F 01 19 00 0F  01 4A 12 00 0F 01 19 00  J........J......
0F10: 0F 01 01 43 0F 27 0B 1B  00 0F 01 35 4A 11 00 0F  ...C.'.....5J...
0F20: 01 12 00 0F 01 4A 12 00  0F 01 11 00 0F 01 1C 0C  .....J..........
0F30: 80 4A 11 00 0F 01 1B 00  0F 01 4A 12 00 0F 01 1B  .J........J.....
0F40: 00 0F 01 45 06 80 F8 FF  FF 7F F8 FF FF 7F 66 64  ...E..........fd
0F50: 6F 31 07 80 1C 08 80 02  07 10 07 80 00 74 0F 2A  o1...........t.*
0F60: 0B 19 00 0F 01 2A 0B 1A  00 0F 01 4E 01 19 00 0F  .....*.....N....
0F70: 01 01 86 0F 2A 0B 1B 00  0F 01 2A 0B 1A 00 0F 01  ....*.....*.....
0F80: 4E 01 1B 00 0F 01 46 00  5C 00 47 80 5C 01 47 80  N.....F.\.G.\.G.
0F90: 5D 3C 80 25 80 29 08 15  00 0F 01 02 29 08 14 00  ]<.%.)......)...
0FA0: 0F 01 02 45 06 80 F8 FF  FF 7F F8 FF FF 7F 66 64  ...E..........fd
0FB0: 69 31 07 80 45 19 80 F0  FF FF 7F F0 FF FF 7F 71  i1..E..........q
0FC0: 73 74 63 07 80 03 01 10  06 10 20 00 21 00        stc....... .!.  
```

#### Opcodes

```
  0: 0x0709 [0x20] SET_CLI_EVENT_UC_FLAG: Lock player control
  1: 0x070B [0x46] CAMERA_CONTROL: Disable user control
  2: 0x070D [0x42] SET_CLI_EVENT_CANCEL_DATA()
  3: 0x070E [0x45] LOAD_SCHEDULED_TASK: Load scheduler "fdo1" with entities [EventEntity, EventEntity], work=[200*, 0*]
  4: 0x071F [0x1C] WAIT(60* ticks)
  5: 0x0722 [0x75] LOAD_ROOM(Load indoor room, room=411*)
  6: 0x0726 [0x75] LOAD_ROOM(No action)
  7: 0x0728 [0x38] SET_CLIENT_EVENT_MODE(mode=3*)
  8: 0x072B [0x29] REQ_SET_WAIT(priority=0x08, entity_id=LocalPlayer, tag_num=0x0A)
  9: 0x0732 [0x5C] MUSIC_CONTROL: Set Idle (Day) music to song 163*
 10: 0x0736 [0x5C] MUSIC_CONTROL: Set Idle (Night) music to song 163*
 11: 0x073A [0x29] REQ_SET_WAIT(priority=0x0B, entity_id=LocalPlayer, tag_num=0x35)
 12: 0x0741 [0x4A] Hakkuru-Rinkuru (ID: 17760273/0x010F0011) looks at LocalPlayer
 13: 0x074A [0x4A] Kuroido-Moido (ID: 17760274/0x010F0012) looks at LocalPlayer
 14: 0x0753 [0x4E] SET_ENTITY_HIDE_FLAG: Show Shantotto (ID: 17760282/0x010F001A)
 15: 0x0759 [0x1C] WAIT(30* ticks)
 16: 0x075C [0x02] IF !(Work_Zone[9] == 8*) GOTO 0x0778
