# 17760272 - Nine of Clubs

## Common Data

| Field            | Value                   |
|------------------|-------------------------|
| Zone             | Port Windurst (ID: 240) |
| Block Size       | 916 bytes               |
| Total Events     | 33                      |
| References Count | 53                      |

## List of Events

| Event ID                 | Entrypoint   |   Size |   Instructions |
|--------------------------|--------------|--------|----------------|
| [65535](#event-65535)    | 0x0000       |      1 |              1 |
| [65535.1](#event-655351) | 0x0001       |     16 |              2 |
| [65535.2](#event-655352) | 0x0011       |     14 |              2 |
| [74](#event-74)          | 0x001F       |     19 |             10 |
| [83](#event-83)          | 0x0032       |      1 |              1 |
| [65535.3](#event-655353) | 0x0033       |      5 |              3 |
| [65535.4](#event-655354) | 0x0038       |     19 |              5 |
| [86](#event-86)          | 0x004B       |     19 |             10 |
| [102](#event-102)        | 0x005E       |     19 |             10 |
| [106](#event-106)        | 0x0071       |     19 |             10 |
| [112](#event-112)        | 0x0084       |     15 |              8 |
| [117](#event-117)        | 0x0093       |     19 |             10 |
| [134](#event-134)        | 0x00A6       |     15 |              8 |
| [121](#event-121)        | 0x00B5       |     15 |              8 |
| [140](#event-140)        | 0x00C4       |     15 |              8 |
| [145](#event-145)        | 0x00D3       |     19 |             10 |
| [156](#event-156)        | 0x00E6       |     19 |             10 |
| [161](#event-161)        | 0x00F9       |     19 |             10 |
| [166](#event-166)        | 0x010C       |     19 |             10 |
| [171](#event-171)        | 0x011F       |     19 |             10 |
| [176](#event-176)        | 0x0132       |     19 |             10 |
| [179](#event-179)        | 0x0145       |     19 |             10 |
| [489](#event-489)        | 0x0158       |     19 |             10 |
| [454](#event-454)        | 0x016B       |     19 |             10 |
| [465](#event-465)        | 0x017E       |     19 |             10 |
| [470](#event-470)        | 0x0191       |     19 |             10 |
| [475](#event-475)        | 0x01A4       |     19 |             10 |
| [480](#event-480)        | 0x01B7       |     19 |             10 |
| [485](#event-485)        | 0x01CA       |     19 |             10 |
| [556](#event-556)        | 0x01DD       |     19 |             10 |
| [564](#event-564)        | 0x01F0       |     19 |             10 |
| [561](#event-561)        | 0x0203       |     19 |             10 |
| [568](#event-568)        | 0x0216       |     19 |             10 |

## DAT References (imed_data)

|   Index | Hex Value   |   Dec Value |
|---------|-------------|-------------|
|       0 | 0x00B5      |         181 |
|       1 | 0x0CE7      |        3303 |
|       2 | 0x0CE8      |        3304 |
|       3 | 0x0CFD      |        3325 |
|       4 | 0x0D0A      |        3338 |
|       5 | 0x0D18      |        3352 |
|       6 | 0x0D19      |        3353 |
|       7 | 0x0D3D      |        3389 |
|       8 | 0x0D3E      |        3390 |
|       9 | 0x0D49      |        3401 |
|      10 | 0x0D4A      |        3402 |
|      11 | 0x0D5E      |        3422 |
|      12 | 0x0D68      |        3432 |
|      13 | 0x0D69      |        3433 |
|      14 | 0x0D7E      |        3454 |
|      15 | 0x0D73      |        3443 |
|      16 | 0x0D8B      |        3467 |
|      17 | 0x0D95      |        3477 |
|      18 | 0x0D96      |        3478 |
|      19 | 0x0DB5      |        3509 |
|      20 | 0x0DB6      |        3510 |
|      21 | 0x0DBF      |        3519 |
|      22 | 0x0DC0      |        3520 |
|      23 | 0x0DC9      |        3529 |
|      24 | 0x0DCA      |        3530 |
|      25 | 0x0DD4      |        3540 |
|      26 | 0x0DD5      |        3541 |
|      27 | 0x0DDE      |        3550 |
|      28 | 0x0DDF      |        3551 |
|      29 | 0x0DE4      |        3556 |
|      30 | 0x0DE5      |        3557 |
|      31 | 0x2FE9      |       12265 |
|      32 | 0x2FEA      |       12266 |
|      33 | 0x2FF3      |       12275 |
|      34 | 0x2FF4      |       12276 |
|      35 | 0x301C      |       12316 |
|      36 | 0x301D      |       12317 |
|      37 | 0x3027      |       12327 |
|      38 | 0x3028      |       12328 |
|      39 | 0x3033      |       12339 |
|      40 | 0x3034      |       12340 |
|      41 | 0x303F      |       12351 |
|      42 | 0x3040      |       12352 |
|      43 | 0x304C      |       12364 |
|      44 | 0x304D      |       12365 |
|      45 | 0x3131      |       12593 |
|      46 | 0x3132      |       12594 |
|      47 | 0x3136      |       12598 |
|      48 | 0x3137      |       12599 |
|      49 | 0x3151      |       12625 |
|      50 | 0x3152      |       12626 |
|      51 | 0x315B      |       12635 |
|      52 | 0x315C      |       12636 |

## String References

- **3303**: NiNe iS$26a CArdIAn--aN$26AuToMaToN GuArd!
- **3304**: nInE$26sTuDiEs aNd$26LeArNS as$26NinE HElpS$26OuT hERe!
- **3325**: De-GrAd-InG!
- **3338**: MiSsIoNs$26ArE iMPoR-Tant$26tAskS yOu$26Do fOR$26YouR cOunTry.
- **3352**: nINe$26oF CLuBs$26Is a$26mEmBer Of$26tHe "bEsT$26oF ThE$26WEst" pLatOon!
- **3353**: We CarDiaNs$26alL loOk$26aLiKe! thaT$26IS bE-cauSe$26wE Are$26aLiKe! wE$26aRe aLl$26oNe fAMiLy!
- **3389**: hOW$26dID$26tHE$26mA-GIc$26EX-Pe-RI-mENT$26gO!?
- **3390**: IT$26wAS$26o-VEr$26aL-ReaDY,$26wAS$26iT$26nOt?$26yOU$26aRE$26aN$26aW-Ful$26lIAr!
- **3401**: ThE$26MaNuSteRy iS$26wHeRe cArDiAnS$26aRe CrEaTeD!$26pErHaPs yOu$26cAn CaLl$26It oUr$26BiRtHplACe!?
- **3402**: NiNe$26WoNdErS wHEthER$26NiNe'S mOtHer$26iS wELl?
- **3422**: YaGuDo aRe$26BrUtAl AnD$26cLeVer BeAsTmEn! bE$26cArEfUl!
- **3432**: aS CaRdIaNs$26gRoW ThEy$26bEcOmE MoRe$26aNd mOrE$26lIKe ReAl$26pEoPlE!
- **3433**: BuT$26iT Is$26a LoNg$26aNd SloW$26roAd...!
- **3443**: NiNe$26HaS nEvEr$26BeeN tO$26ThE lIbRaRy$26Of MaGiC!$26WhAt dO$26PeoPle DO$26tHeRe!?
- **3454**: NiNe wAnTs$26tO GO$26To sCHooL$26tOo!$26aT$26sChOoL NinE$26cOuLd MaKe$26MaNy fRiEnDs!
- **3467**: FaRe-WeLl$26AdVeN-tUrEr! dO nOt$26DiE aNd$26HaVe YoUr$26sOUl rEtUrN$26tO tHe$26StArS!$26pLeAsE cOmE$26bAcK aLiVe!
- **3477**: MiThRa aRe$26fIcKle aNd$26iRrItABle sO$26nEeD tO$26 Be dEaLt$26wItH cAuTiOuSly!
- **3478**: soME$26sAy tHiS$26iS a$26TrAiT cOmMoN$26tO wOMen$26In gEneRAl! Is tHaT$26rEaLly tRuE?
- **3509**: cArDiAnS$26wItH nUmBeRs$26lIkE nInE$26aNd TeN$26cAnNoT eNtEr$26hEaVeNs TOwEr!
- **3510**: tHaT iS$26bE-cAuSe a$26CaRdIaN oNcE$26tOoK tHe$26mINisTer oF$26tHe mAnuStERy$26hOsTaGe!
- **3519**: gO! DeFeAt$26aS mAnY$26eNeMiEs As$26yOu CaN$26fOR winDUrsT$26aNd rEtUrN tO$26yOuR hOmEtOwN$26iN tRiUmPh!
- **3520**: ...?$26WhAt? a WrIt$26oF sUmMoNs$26iS a$26mArChInG oRdEr$26tO wAr,$26iS iT$26nOt?
- **3529**: wHeN$26tHe oRdeR$26tO sToP$26MiSsIoNs wAs$26gIvEn, ThEy$26aLsO OrDeReD$26aLl GuArD$26cApTaIns tO$26aSsEmBlE!
- **3530**: CaPtAiN jAnShUrA-RaShUrA$26aTtEnDeD tHe$26GaThErInG aT$26tHe MaGe$26AcAdEmY!
- **3540**: tHe$26eMeRgEnCy BaN$26hAs bEeN$26lIfTeD!$26YoU cAn$26NoW rEcEiVe$26mIsSiOnS aGaIn!
- **3541**: BuT a$26CrItIcAlLy ImPoRtAnT$26tHInG hAs$26BeeN sToLen!$26tHaT$26dEcLaRaTiOn hAs$26NoT cHaNgEd!
- **3550**: NiNe$26aLsO DeTeCtEd$26tHaT sOmEtHiNg$26BaD iS$26hApPeNiNg!
- **3551**: BuT nInE$26DoEs NoT$26hAvE wHiSkErS$26ThAt TwiTCh...!
- **3556**: NiNe$26DeTeCtS sOmE-tHiNg$26GoOd HaPpEnEd$26tO YoU!
- **3557**: hOw DiD$26nInE kNOw$26ThIs...?$26BeCaUse$26YoUr boDy$26TeMpE-rAtUrE iS$26hIgHeR tHaN$26nOrMaL!
- **12265**: As$26uSuAL, wE$26cARdiANs aRe$26nOT aLLow-Ed$26To LeAVe$26tOWn.
- **12266**: NiNe$26REaLLy wAnTS$26tO gET$26oUt AnD$26sEE tHe$26BiG wIdE$26wOrLd.
- **12275**: In$26oNe oF$26tHe MaGIc$26ToWeRs Of$26SaRuTa-bArUtA tHeRE$26iS a cARdIAn$26cEmEt-Ery.
- **12276**: EvERy-oNE$26LOoks So$26sAD wHEn$26nInE tALkS$26of iT.$26ArE tHEy$26shOwINg sYmP-aTHy$26fOR nINe?
- **12316**: To$26coMMiT a$26cRiMe mEAnS$26tO Do$26soMEthInG tHAt$26yOU mUsTn't$26Do.
- **12317**: WHy$26wOuLd yOu$26Do soMEthInG$26tHAt yOu$26kNOw yOu$26mUsTn't Do? ThAT$26iS soMEthInG$26thAT NiNe$26doESn't uNdeRStaNd.
- **12327**: NiNe$26sAw tHE$26OptISteRy MiNiStEr$26a LiTtLe$26WhiLe aGo.
- **12328**: It$26iS tHE$26fIrSt tImE$26NiNe hAS$26sEEn tHE$26MiNiStEr oUTsIde$26tHE OptISteRy.
- **12339**: WhAT$26iS tHIs$26TaLK AbOUt a$26MitHRaN viLLaGe$26tO tHE$26sOUth?
- **12340**: NiNe$26hAS nO$26MeMo-RY oF$26sTUdy-InG aBoUT$26aNy sUCh$26viLLaGe.
- **12351**: NiNe$26woNdERs wHy$26ProFeSSor KoRu-MoRu$26iS LiVinG$26iN WinDUrSt$26WaLLs?
- **12352**: ProFeSSor$26KoRu-MoRu iS$26tHe PriNCiPaL$26oF tHe$26AuRaSTeRy. DoESn't$26hE nEEd$26tO Be$26tHErE?
- **12364**: MiNisTEr$26ApUrUrU is$26LikE a$26moTHeR to$26aLL tHE$26cARdIAns.
- **12365**: We$26aLL wANt$26yOU tO$26hELp MoTHeR$26ApUrUrU.
- **12593**: We cARdiAnS$26aRe nOT$26cApAbLE of$26teLLiNg LiEs.
- **12594**: BuT$26we Do hAVe$26tHe cHOicE tO$26rEmAiN siLeNt.$26NiNe wiLL NoT$26gIVe awAy$26aNy sECreTs.
- **12598**: NiNe$26wAs toLD by$26MoTHeR ApUrUrU$26tHAt foRmeR$26MiNisTEr ZoNpa-ZiPpa$26iS nOt a$26niCE pERsoN.
- **12599**: If NiNe$26ShoULd eVEr$26fiNd hiM, NiNe's$26OrdERs aRE$26tO ruN aWAy$26im-MediATeLy.
- **12625**: ThE RoGUe$26cARdiAnS hAVe$26de-SCeNdeD iNTo$26tHe cENtraL tOWeR$26oF tHe$26HoRuToTo RuiNs.
- **12626**: NiNe$26aLSo HEaRd$26tHAt tHe kiNg$26oF tHe$26cARdiAnS hAs$26mADe aN$26aP-PeaRanCe. WhAt$26coULd aLL$26oF tHIs$26mEaN?
- **12635**: TheRe$26aRe StiLL sO$26mAnY RoGUe$26cARdiAnS LeFt.$26NiNe THiNks$26tHEy hAVe$26yeT tO FiNd$26tHe aNSweR$26tHEy aRe$26LoOkiNg fOr.
- **12636**: MoTheR$26ApUrUrU toLd NiNe$26tHAt thEy aRe$26SeaRChiNg foR$26tHeiR tRuE$26seLvEs.

## Events

### Event 65535

#### Metadata

| Field        | Value   |
|--------------|---------|
| Entrypoint   | 0x0000  |
| Data Size    | 1 bytes |
| Instructions | 1       |

```
      00 01 02 03 04 05 06 07  08 09 0A 0B 0C 0D 0E 0F
      -- -- -- -- -- -- -- --  -- -- -- -- -- -- -- --
0000: 00                                                .               
```

#### Opcodes

```
  0: 0x0000 [0x00] END_REQSTACK()
```

### Event 65535.1

#### Metadata

| Field        | Value    |
|--------------|----------|
| Entrypoint   | 0x0001   |
| Data Size    | 16 bytes |
| Instructions | 2        |

```
      00 01 02 03 04 05 06 07  08 09 0A 0B 0C 0D 0E 0F
      -- -- -- -- -- -- -- --  -- -- -- -- -- -- -- --
0000:    5B 00 80 F8 FF FF 7F  F8 FF FF 7F 79 62 69 30   [..........ybi0
0010: 00                                                .               
```

#### Opcodes

```
  0: 0x0001 [0x5B] LOAD_EXT_SCHEDULER: Load scheduler "ybi0" with entities [EventEntity, EventEntity], work=181*
  1: 0x0010 [0x00] END_REQSTACK()
```

### Event 65535.2

#### Metadata

| Field        | Value    |
|--------------|----------|
| Entrypoint   | 0x0011   |
| Data Size    | 14 bytes |
| Instructions | 2        |

```
      00 01 02 03 04 05 06 07  08 09 0A 0B 0C 0D 0E 0F
      -- -- -- -- -- -- -- --  -- -- -- -- -- -- -- --
0010:    53 F8 FF FF 7F F8 FF  FF 7F 79 62 69 30 00      S........ybi0. 
```

#### Opcodes

```
  0: 0x0011 [0x53] WAIT_SCHEDULER_TASK: Wait for scheduler "ybi0" with entities [EventEntity, EventEntity]
  1: 0x001E [0x00] END_REQSTACK()
```

### Event 74

#### Metadata

| Field        | Value    |
|--------------|----------|
| Entrypoint   | 0x001F   |
| Data Size    | 19 bytes |
| Instructions | 10       |

```
      00 01 02 03 04 05 06 07  08 09 0A 0B 0C 0D 0E 0F
      -- -- -- -- -- -- -- --  -- -- -- -- -- -- -- --
0010:                                               1E                 .
0020: F0 FF FF 7F 6F 70 1D 01  80 23 1D 02 80 23 20 00  ....op...#...# .
0030: 21 00                                             !.              
```

#### Opcodes

```
  0: 0x001F [0x1E] EventEntity looks at LocalPlayer and starts talking
  1: 0x0024 [0x6F] WAIT_FRAME_DELAY: Yield until WaitTime reaches zero
  2: 0x0025 [0x70] WAIT_ENTITY_RENDER_FLAG: Wait while EventEntity->Render.Flags3 bit 2 is set (cancel turn if not)
  3: 0x0026 [0x1D] PRINT_EVENT_MESSAGE(message_id=3303*)
    → "NiNe iS$26a CArdIAn--aN$26AuToMaToN GuArd!"
  4: 0x0029 [0x23] WAIT_FOR_DIALOG_INTERACTION
  5: 0x002A [0x1D] PRINT_EVENT_MESSAGE(message_id=3304*)
    → "nInE$26sTuDiEs aNd$26LeArNS as$26NinE HElpS$26OuT hERe!"
  6: 0x002D [0x23] WAIT_FOR_DIALOG_INTERACTION
  7: 0x002E [0x20] SET_CLI_EVENT_UC_FLAG: Unlock player control
  8: 0x0030 [0x21] END_EVENT
  9: 0x0031 [0x00] END_REQSTACK()
```

### Event 83

#### Metadata

| Field        | Value   |
|--------------|---------|
| Entrypoint   | 0x0032  |
| Data Size    | 1 bytes |
| Instructions | 1       |

```
      00 01 02 03 04 05 06 07  08 09 0A 0B 0C 0D 0E 0F
      -- -- -- -- -- -- -- --  -- -- -- -- -- -- -- --
0030:       00                                            .             
```

#### Opcodes

```
  0: 0x0032 [0x00] END_REQSTACK()
```

### Event 65535.3

#### Metadata

| Field        | Value   |
|--------------|---------|
| Entrypoint   | 0x0033  |
| Data Size    | 5 bytes |
| Instructions | 3       |

```
      00 01 02 03 04 05 06 07  08 09 0A 0B 0C 0D 0E 0F
      -- -- -- -- -- -- -- --  -- -- -- -- -- -- -- --
0030:          1D 03 80 23 00                              ...#.        
```

#### Opcodes

```
  0: 0x0033 [0x1D] PRINT_EVENT_MESSAGE(message_id=3325*)
    → "De-GrAd-InG!"
  1: 0x0036 [0x23] WAIT_FOR_DIALOG_INTERACTION
  2: 0x0037 [0x00] END_REQSTACK()
```

### Event 65535.4

#### Metadata

| Field        | Value    |
|--------------|----------|
| Entrypoint   | 0x0038   |
| Data Size    | 19 bytes |
| Instructions | 5        |

```
      00 01 02 03 04 05 06 07  08 09 0A 0B 0C 0D 0E 0F
      -- -- -- -- -- -- -- --  -- -- -- -- -- -- -- --
0030:                          29 08 10 00 0F 01 01 1D          ).......
0040: 04 80 23 29 08 10 00 0F  01 02 00                 ..#).......     
```

#### Opcodes

```
  0: 0x0038 [0x29] REQ_SET_WAIT(priority=0x08, entity_id=Nine of Clubs (ID: 17760272/0x010F0010), tag_num=0x01)
  1: 0x003F [0x1D] PRINT_EVENT_MESSAGE(message_id=3338*)
    → "MiSsIoNs$26ArE iMPoR-Tant$26tAskS yOu$26Do fOR$26YouR cOunTry."
  2: 0x0042 [0x23] WAIT_FOR_DIALOG_INTERACTION
  3: 0x0043 [0x29] REQ_SET_WAIT(priority=0x08, entity_id=Nine of Clubs (ID: 17760272/0x010F0010), tag_num=0x02)
  4: 0x004A [0x00] END_REQSTACK()
```

### Event 86

#### Metadata

| Field        | Value    |
|--------------|----------|
| Entrypoint   | 0x004B   |
| Data Size    | 19 bytes |
| Instructions | 10       |

```
      00 01 02 03 04 05 06 07  08 09 0A 0B 0C 0D 0E 0F
      -- -- -- -- -- -- -- --  -- -- -- -- -- -- -- --
0040:                                   1E F0 FF FF 7F             .....
0050: 6F 70 1D 05 80 23 1D 06  80 23 20 00 21 00        op...#...# .!.  
```

#### Opcodes

```
  0: 0x004B [0x1E] EventEntity looks at LocalPlayer and starts talking
  1: 0x0050 [0x6F] WAIT_FRAME_DELAY: Yield until WaitTime reaches zero
  2: 0x0051 [0x70] WAIT_ENTITY_RENDER_FLAG: Wait while EventEntity->Render.Flags3 bit 2 is set (cancel turn if not)
  3: 0x0052 [0x1D] PRINT_EVENT_MESSAGE(message_id=3352*)
    → "nINe$26oF CLuBs$26Is a$26mEmBer Of$26tHe "bEsT$26oF ThE$26WEst" pLatOon!"
  4: 0x0055 [0x23] WAIT_FOR_DIALOG_INTERACTION
  5: 0x0056 [0x1D] PRINT_EVENT_MESSAGE(message_id=3353*)
    → "We CarDiaNs$26alL loOk$26aLiKe! thaT$26IS bE-cauSe$26wE Are$26aLiKe! wE$26aRe aLl$26oNe fAMiLy!"
  6: 0x0059 [0x23] WAIT_FOR_DIALOG_INTERACTION
  7: 0x005A [0x20] SET_CLI_EVENT_UC_FLAG: Unlock player control
  8: 0x005C [0x21] END_EVENT
  9: 0x005D [0x00] END_REQSTACK()
```

### Event 102

#### Metadata

| Field        | Value    |
|--------------|----------|
| Entrypoint   | 0x005E   |
| Data Size    | 19 bytes |
| Instructions | 10       |

```
      00 01 02 03 04 05 06 07  08 09 0A 0B 0C 0D 0E 0F
      -- -- -- -- -- -- -- --  -- -- -- -- -- -- -- --
0050:                                            1E F0                ..
0060: FF FF 7F 6F 70 1D 07 80  23 1D 08 80 23 20 00 21  ...op...#...# .!
0070: 00                                                .               
```

#### Opcodes

```
  0: 0x005E [0x1E] EventEntity looks at LocalPlayer and starts talking
  1: 0x0063 [0x6F] WAIT_FRAME_DELAY: Yield until WaitTime reaches zero
  2: 0x0064 [0x70] WAIT_ENTITY_RENDER_FLAG: Wait while EventEntity->Render.Flags3 bit 2 is set (cancel turn if not)
  3: 0x0065 [0x1D] PRINT_EVENT_MESSAGE(message_id=3389*)
    → "hOW$26dID$26tHE$26mA-GIc$26EX-Pe-RI-mENT$26gO!?"
  4: 0x0068 [0x23] WAIT_FOR_DIALOG_INTERACTION
  5: 0x0069 [0x1D] PRINT_EVENT_MESSAGE(message_id=3390*)
    → "IT$26wAS$26o-VEr$26aL-ReaDY,$26wAS$26iT$26nOt?$26yOU$26aRE$26aN$26aW-Ful$26lIAr!"
  6: 0x006C [0x23] WAIT_FOR_DIALOG_INTERACTION
  7: 0x006D [0x20] SET_CLI_EVENT_UC_FLAG: Unlock player control
  8: 0x006F [0x21] END_EVENT
  9: 0x0070 [0x00] END_REQSTACK()
```

### Event 106

#### Metadata

| Field        | Value    |
|--------------|----------|
| Entrypoint   | 0x0071   |
| Data Size    | 19 bytes |
| Instructions | 10       |

```
      00 01 02 03 04 05 06 07  08 09 0A 0B 0C 0D 0E 0F
      -- -- -- -- -- -- -- --  -- -- -- -- -- -- -- --
0070:    1E F0 FF FF 7F 6F 70  1D 09 80 23 1D 0A 80 23   .....op...#...#
0080: 20 00 21 00                                        .!.            
```

#### Opcodes

```
  0: 0x0071 [0x1E] EventEntity looks at LocalPlayer and starts talking
  1: 0x0076 [0x6F] WAIT_FRAME_DELAY: Yield until WaitTime reaches zero
  2: 0x0077 [0x70] WAIT_ENTITY_RENDER_FLAG: Wait while EventEntity->Render.Flags3 bit 2 is set (cancel turn if not)
  3: 0x0078 [0x1D] PRINT_EVENT_MESSAGE(message_id=3401*)
    → "ThE$26MaNuSteRy iS$26wHeRe cArDiAnS$26aRe CrEaTeD!$26pErHaPs yOu$26cAn CaLl$26It oUr$26BiRtHplACe!?"
  4: 0x007B [0x23] WAIT_FOR_DIALOG_INTERACTION
  5: 0x007C [0x1D] PRINT_EVENT_MESSAGE(message_id=3402*)
    → "NiNe$26WoNdErS wHEthER$26NiNe'S mOtHer$26iS wELl?"
  6: 0x007F [0x23] WAIT_FOR_DIALOG_INTERACTION
  7: 0x0080 [0x20] SET_CLI_EVENT_UC_FLAG: Unlock player control
  8: 0x0082 [0x21] END_EVENT
  9: 0x0083 [0x00] END_REQSTACK()
```

### Event 112

#### Metadata

| Field        | Value    |
|--------------|----------|
| Entrypoint   | 0x0084   |
| Data Size    | 15 bytes |
| Instructions | 8        |

```
      00 01 02 03 04 05 06 07  08 09 0A 0B 0C 0D 0E 0F
      -- -- -- -- -- -- -- --  -- -- -- -- -- -- -- --
0080:             1E F0 FF FF  7F 6F 70 1D 0B 80 23 20      .....op...# 
0090: 00 21 00                                          .!.             
```

#### Opcodes

```
  0: 0x0084 [0x1E] EventEntity looks at LocalPlayer and starts talking
  1: 0x0089 [0x6F] WAIT_FRAME_DELAY: Yield until WaitTime reaches zero
  2: 0x008A [0x70] WAIT_ENTITY_RENDER_FLAG: Wait while EventEntity->Render.Flags3 bit 2 is set (cancel turn if not)
  3: 0x008B [0x1D] PRINT_EVENT_MESSAGE(message_id=3422*)
    → "YaGuDo aRe$26BrUtAl AnD$26cLeVer BeAsTmEn! bE$26cArEfUl!"
  4: 0x008E [0x23] WAIT_FOR_DIALOG_INTERACTION
  5: 0x008F [0x20] SET_CLI_EVENT_UC_FLAG: Unlock player control
  6: 0x0091 [0x21] END_EVENT
  7: 0x0092 [0x00] END_REQSTACK()
```

### Event 117

#### Metadata

| Field        | Value    |
|--------------|----------|
| Entrypoint   | 0x0093   |
| Data Size    | 19 bytes |
| Instructions | 10       |

```
      00 01 02 03 04 05 06 07  08 09 0A 0B 0C 0D 0E 0F
      -- -- -- -- -- -- -- --  -- -- -- -- -- -- -- --
0090:          1E F0 FF FF 7F  6F 70 1D 0C 80 23 1D 0D     .....op...#..
00A0: 80 23 20 00 21 00                                 .# .!.          
```

#### Opcodes

```
  0: 0x0093 [0x1E] EventEntity looks at LocalPlayer and starts talking
  1: 0x0098 [0x6F] WAIT_FRAME_DELAY: Yield until WaitTime reaches zero
  2: 0x0099 [0x70] WAIT_ENTITY_RENDER_FLAG: Wait while EventEntity->Render.Flags3 bit 2 is set (cancel turn if not)
  3: 0x009A [0x1D] PRINT_EVENT_MESSAGE(message_id=3432*)
    → "aS CaRdIaNs$26gRoW ThEy$26bEcOmE MoRe$26aNd mOrE$26lIKe ReAl$26pEoPlE!"
  4: 0x009D [0x23] WAIT_FOR_DIALOG_INTERACTION
  5: 0x009E [0x1D] PRINT_EVENT_MESSAGE(message_id=3433*)
    → "BuT$26iT Is$26a LoNg$26aNd SloW$26roAd...!"
  6: 0x00A1 [0x23] WAIT_FOR_DIALOG_INTERACTION
  7: 0x00A2 [0x20] SET_CLI_EVENT_UC_FLAG: Unlock player control
  8: 0x00A4 [0x21] END_EVENT
  9: 0x00A5 [0x00] END_REQSTACK()
```

### Event 134

#### Metadata

| Field        | Value    |
|--------------|----------|
| Entrypoint   | 0x00A6   |
| Data Size    | 15 bytes |
| Instructions | 8        |

```
      00 01 02 03 04 05 06 07  08 09 0A 0B 0C 0D 0E 0F
      -- -- -- -- -- -- -- --  -- -- -- -- -- -- -- --
00A0:                   1E F0  FF FF 7F 6F 70 1D 0E 80        .....op...
00B0: 23 20 00 21 00                                    # .!.           
```

#### Opcodes

```
  0: 0x00A6 [0x1E] EventEntity looks at LocalPlayer and starts talking
  1: 0x00AB [0x6F] WAIT_FRAME_DELAY: Yield until WaitTime reaches zero
  2: 0x00AC [0x70] WAIT_ENTITY_RENDER_FLAG: Wait while EventEntity->Render.Flags3 bit 2 is set (cancel turn if not)
  3: 0x00AD [0x1D] PRINT_EVENT_MESSAGE(message_id=3454*)
    → "NiNe wAnTs$26tO GO$26To sCHooL$26tOo!$26aT$26sChOoL NinE$26cOuLd MaKe$26MaNy fRiEnDs!"
  4: 0x00B0 [0x23] WAIT_FOR_DIALOG_INTERACTION
  5: 0x00B1 [0x20] SET_CLI_EVENT_UC_FLAG: Unlock player control
  6: 0x00B3 [0x21] END_EVENT
  7: 0x00B4 [0x00] END_REQSTACK()
```

### Event 121

#### Metadata

| Field        | Value    |
|--------------|----------|
| Entrypoint   | 0x00B5   |
| Data Size    | 15 bytes |
| Instructions | 8        |

```
      00 01 02 03 04 05 06 07  08 09 0A 0B 0C 0D 0E 0F
      -- -- -- -- -- -- -- --  -- -- -- -- -- -- -- --
00B0:                1E F0 FF  FF 7F 6F 70 1D 0F 80 23       .....op...#
00C0: 20 00 21 00                                        .!.            
```

#### Opcodes

```
  0: 0x00B5 [0x1E] EventEntity looks at LocalPlayer and starts talking
  1: 0x00BA [0x6F] WAIT_FRAME_DELAY: Yield until WaitTime reaches zero
  2: 0x00BB [0x70] WAIT_ENTITY_RENDER_FLAG: Wait while EventEntity->Render.Flags3 bit 2 is set (cancel turn if not)
  3: 0x00BC [0x1D] PRINT_EVENT_MESSAGE(message_id=3443*)
    → "NiNe$26HaS nEvEr$26BeeN tO$26ThE lIbRaRy$26Of MaGiC!$26WhAt dO$26PeoPle DO$26tHeRe!?"
  4: 0x00BF [0x23] WAIT_FOR_DIALOG_INTERACTION
  5: 0x00C0 [0x20] SET_CLI_EVENT_UC_FLAG: Unlock player control
  6: 0x00C2 [0x21] END_EVENT
  7: 0x00C3 [0x00] END_REQSTACK()
```

### Event 140

#### Metadata

| Field        | Value    |
|--------------|----------|
| Entrypoint   | 0x00C4   |
| Data Size    | 15 bytes |
| Instructions | 8        |

```
      00 01 02 03 04 05 06 07  08 09 0A 0B 0C 0D 0E 0F
      -- -- -- -- -- -- -- --  -- -- -- -- -- -- -- --
00C0:             1E F0 FF FF  7F 6F 70 1D 10 80 23 20      .....op...# 
00D0: 00 21 00                                          .!.             
```

#### Opcodes

```
  0: 0x00C4 [0x1E] EventEntity looks at LocalPlayer and starts talking
  1: 0x00C9 [0x6F] WAIT_FRAME_DELAY: Yield until WaitTime reaches zero
  2: 0x00CA [0x70] WAIT_ENTITY_RENDER_FLAG: Wait while EventEntity->Render.Flags3 bit 2 is set (cancel turn if not)
  3: 0x00CB [0x1D] PRINT_EVENT_MESSAGE(message_id=3467*)
    → "FaRe-WeLl$26AdVeN-tUrEr! dO nOt$26DiE aNd$26HaVe YoUr$26sOUl rEtUrN$26tO tHe$26StArS!$26pLeAsE cOmE$26bAcK aLiVe!"
  4: 0x00CE [0x23] WAIT_FOR_DIALOG_INTERACTION
  5: 0x00CF [0x20] SET_CLI_EVENT_UC_FLAG: Unlock player control
  6: 0x00D1 [0x21] END_EVENT
  7: 0x00D2 [0x00] END_REQSTACK()
```

### Event 145

#### Metadata

| Field        | Value    |
|--------------|----------|
| Entrypoint   | 0x00D3   |
| Data Size    | 19 bytes |
| Instructions | 10       |

```
      00 01 02 03 04 05 06 07  08 09 0A 0B 0C 0D 0E 0F
      -- -- -- -- -- -- -- --  -- -- -- -- -- -- -- --
00D0:          1E F0 FF FF 7F  6F 70 1D 11 80 23 1D 12     .....op...#..
00E0: 80 23 20 00 21 00                                 .# .!.          
```

#### Opcodes

```
  0: 0x00D3 [0x1E] EventEntity looks at LocalPlayer and starts talking
  1: 0x00D8 [0x6F] WAIT_FRAME_DELAY: Yield until WaitTime reaches zero
  2: 0x00D9 [0x70] WAIT_ENTITY_RENDER_FLAG: Wait while EventEntity->Render.Flags3 bit 2 is set (cancel turn if not)
  3: 0x00DA [0x1D] PRINT_EVENT_MESSAGE(message_id=3477*)
    → "MiThRa aRe$26fIcKle aNd$26iRrItABle sO$26nEeD tO$26 Be dEaLt$26wItH cAuTiOuSly!"
  4: 0x00DD [0x23] WAIT_FOR_DIALOG_INTERACTION
  5: 0x00DE [0x1D] PRINT_EVENT_MESSAGE(message_id=3478*)
    → "soME$26sAy tHiS$26iS a$26TrAiT cOmMoN$26tO wOMen$26In gEneRAl! Is tHaT$26rEaLly tRuE?"
  6: 0x00E1 [0x23] WAIT_FOR_DIALOG_INTERACTION
  7: 0x00E2 [0x20] SET_CLI_EVENT_UC_FLAG: Unlock player control
  8: 0x00E4 [0x21] END_EVENT
  9: 0x00E5 [0x00] END_REQSTACK()
```

### Event 156

#### Metadata

| Field        | Value    |
|--------------|----------|
| Entrypoint   | 0x00E6   |
| Data Size    | 19 bytes |
| Instructions | 10       |

```
      00 01 02 03 04 05 06 07  08 09 0A 0B 0C 0D 0E 0F
      -- -- -- -- -- -- -- --  -- -- -- -- -- -- -- --
00E0:                   1E F0  FF FF 7F 6F 70 1D 13 80        .....op...
00F0: 23 1D 14 80 23 20 00 21  00                       #...# .!.       
```

#### Opcodes

```
  0: 0x00E6 [0x1E] EventEntity looks at LocalPlayer and starts talking
  1: 0x00EB [0x6F] WAIT_FRAME_DELAY: Yield until WaitTime reaches zero
  2: 0x00EC [0x70] WAIT_ENTITY_RENDER_FLAG: Wait while EventEntity->Render.Flags3 bit 2 is set (cancel turn if not)
  3: 0x00ED [0x1D] PRINT_EVENT_MESSAGE(message_id=3509*)
    → "cArDiAnS$26wItH nUmBeRs$26lIkE nInE$26aNd TeN$26cAnNoT eNtEr$26hEaVeNs TOwEr!"
  4: 0x00F0 [0x23] WAIT_FOR_DIALOG_INTERACTION
  5: 0x00F1 [0x1D] PRINT_EVENT_MESSAGE(message_id=3510*)
    → "tHaT iS$26bE-cAuSe a$26CaRdIaN oNcE$26tOoK tHe$26mINisTer oF$26tHe mAnuStERy$26hOsTaGe!"
  6: 0x00F4 [0x23] WAIT_FOR_DIALOG_INTERACTION
  7: 0x00F5 [0x20] SET_CLI_EVENT_UC_FLAG: Unlock player control
  8: 0x00F7 [0x21] END_EVENT
  9: 0x00F8 [0x00] END_REQSTACK()
```

### Event 161

#### Metadata

| Field        | Value    |
|--------------|----------|
| Entrypoint   | 0x00F9   |
| Data Size    | 19 bytes |
| Instructions | 10       |

```
      00 01 02 03 04 05 06 07  08 09 0A 0B 0C 0D 0E 0F
      -- -- -- -- -- -- -- --  -- -- -- -- -- -- -- --
00F0:                             1E F0 FF FF 7F 6F 70           .....op
0100: 1D 15 80 23 1D 16 80 23  20 00 21 00              ...#...# .!.    
```

#### Opcodes

```
  0: 0x00F9 [0x1E] EventEntity looks at LocalPlayer and starts talking
  1: 0x00FE [0x6F] WAIT_FRAME_DELAY: Yield until WaitTime reaches zero
  2: 0x00FF [0x70] WAIT_ENTITY_RENDER_FLAG: Wait while EventEntity->Render.Flags3 bit 2 is set (cancel turn if not)
  3: 0x0100 [0x1D] PRINT_EVENT_MESSAGE(message_id=3519*)
    → "gO! DeFeAt$26aS mAnY$26eNeMiEs As$26yOu CaN$26fOR winDUrsT$26aNd rEtUrN tO$26yOuR hOmEtOwN$26iN tRiUmPh!"
  4: 0x0103 [0x23] WAIT_FOR_DIALOG_INTERACTION
  5: 0x0104 [0x1D] PRINT_EVENT_MESSAGE(message_id=3520*)
    → "...?$26WhAt? a WrIt$26oF sUmMoNs$26iS a$26mArChInG oRdEr$26tO wAr,$26iS iT$26nOt?"
  6: 0x0107 [0x23] WAIT_FOR_DIALOG_INTERACTION
  7: 0x0108 [0x20] SET_CLI_EVENT_UC_FLAG: Unlock player control
  8: 0x010A [0x21] END_EVENT
  9: 0x010B [0x00] END_REQSTACK()
```

### Event 166

#### Metadata

| Field        | Value    |
|--------------|----------|
| Entrypoint   | 0x010C   |
| Data Size    | 19 bytes |
| Instructions | 10       |

```
      00 01 02 03 04 05 06 07  08 09 0A 0B 0C 0D 0E 0F
      -- -- -- -- -- -- -- --  -- -- -- -- -- -- -- --
0100:                                      1E F0 FF FF              ....
0110: 7F 6F 70 1D 17 80 23 1D  18 80 23 20 00 21 00     .op...#...# .!. 
```

#### Opcodes

```
  0: 0x010C [0x1E] EventEntity looks at LocalPlayer and starts talking
  1: 0x0111 [0x6F] WAIT_FRAME_DELAY: Yield until WaitTime reaches zero
  2: 0x0112 [0x70] WAIT_ENTITY_RENDER_FLAG: Wait while EventEntity->Render.Flags3 bit 2 is set (cancel turn if not)
  3: 0x0113 [0x1D] PRINT_EVENT_MESSAGE(message_id=3529*)
    → "wHeN$26tHe oRdeR$26tO sToP$26MiSsIoNs wAs$26gIvEn, ThEy$26aLsO OrDeReD$26aLl GuArD$26cApTaIns tO$26aSsEmBlE!"
  4: 0x0116 [0x23] WAIT_FOR_DIALOG_INTERACTION
  5: 0x0117 [0x1D] PRINT_EVENT_MESSAGE(message_id=3530*)
    → "CaPtAiN jAnShUrA-RaShUrA$26aTtEnDeD tHe$26GaThErInG aT$26tHe MaGe$26AcAdEmY!"
  6: 0x011A [0x23] WAIT_FOR_DIALOG_INTERACTION
  7: 0x011B [0x20] SET_CLI_EVENT_UC_FLAG: Unlock player control
  8: 0x011D [0x21] END_EVENT
  9: 0x011E [0x00] END_REQSTACK()
```

### Event 171

#### Metadata

| Field        | Value    |
|--------------|----------|
| Entrypoint   | 0x011F   |
| Data Size    | 19 bytes |
| Instructions | 10       |

```
      00 01 02 03 04 05 06 07  08 09 0A 0B 0C 0D 0E 0F
      -- -- -- -- -- -- -- --  -- -- -- -- -- -- -- --
0110:                                               1E                 .
0120: F0 FF FF 7F 6F 70 1D 19  80 23 1D 1A 80 23 20 00  ....op...#...# .
0130: 21 00                                             !.              
```

#### Opcodes

```
  0: 0x011F [0x1E] EventEntity looks at LocalPlayer and starts talking
  1: 0x0124 [0x6F] WAIT_FRAME_DELAY: Yield until WaitTime reaches zero
  2: 0x0125 [0x70] WAIT_ENTITY_RENDER_FLAG: Wait while EventEntity->Render.Flags3 bit 2 is set (cancel turn if not)
  3: 0x0126 [0x1D] PRINT_EVENT_MESSAGE(message_id=3540*)
    → "tHe$26eMeRgEnCy BaN$26hAs bEeN$26lIfTeD!$26YoU cAn$26NoW rEcEiVe$26mIsSiOnS aGaIn!"
  4: 0x0129 [0x23] WAIT_FOR_DIALOG_INTERACTION
  5: 0x012A [0x1D] PRINT_EVENT_MESSAGE(message_id=3541*)
    → "BuT a$26CrItIcAlLy ImPoRtAnT$26tHInG hAs$26BeeN sToLen!$26tHaT$26dEcLaRaTiOn hAs$26NoT cHaNgEd!"
  6: 0x012D [0x23] WAIT_FOR_DIALOG_INTERACTION
  7: 0x012E [0x20] SET_CLI_EVENT_UC_FLAG: Unlock player control
  8: 0x0130 [0x21] END_EVENT
  9: 0x0131 [0x00] END_REQSTACK()
```

### Event 176

#### Metadata

| Field        | Value    |
|--------------|----------|
| Entrypoint   | 0x0132   |
| Data Size    | 19 bytes |
| Instructions | 10       |

```
      00 01 02 03 04 05 06 07  08 09 0A 0B 0C 0D 0E 0F
      -- -- -- -- -- -- -- --  -- -- -- -- -- -- -- --
0130:       1E F0 FF FF 7F 6F  70 1D 1B 80 23 1D 1C 80    .....op...#...
0140: 23 20 00 21 00                                    # .!.           
```

#### Opcodes

```
  0: 0x0132 [0x1E] EventEntity looks at LocalPlayer and starts talking
  1: 0x0137 [0x6F] WAIT_FRAME_DELAY: Yield until WaitTime reaches zero
  2: 0x0138 [0x70] WAIT_ENTITY_RENDER_FLAG: Wait while EventEntity->Render.Flags3 bit 2 is set (cancel turn if not)
  3: 0x0139 [0x1D] PRINT_EVENT_MESSAGE(message_id=3550*)
    → "NiNe$26aLsO DeTeCtEd$26tHaT sOmEtHiNg$26BaD iS$26hApPeNiNg!"
  4: 0x013C [0x23] WAIT_FOR_DIALOG_INTERACTION
  5: 0x013D [0x1D] PRINT_EVENT_MESSAGE(message_id=3551*)
    → "BuT nInE$26DoEs NoT$26hAvE wHiSkErS$26ThAt TwiTCh...!"
  6: 0x0140 [0x23] WAIT_FOR_DIALOG_INTERACTION
  7: 0x0141 [0x20] SET_CLI_EVENT_UC_FLAG: Unlock player control
  8: 0x0143 [0x21] END_EVENT
  9: 0x0144 [0x00] END_REQSTACK()
```

### Event 179

#### Metadata

| Field        | Value    |
|--------------|----------|
| Entrypoint   | 0x0145   |
| Data Size    | 19 bytes |
| Instructions | 10       |

```
      00 01 02 03 04 05 06 07  08 09 0A 0B 0C 0D 0E 0F
      -- -- -- -- -- -- -- --  -- -- -- -- -- -- -- --
0140:                1E F0 FF  FF 7F 6F 70 1D 1D 80 23       .....op...#
0150: 1D 1E 80 23 20 00 21 00                           ...# .!.        
```

#### Opcodes

```
  0: 0x0145 [0x1E] EventEntity looks at LocalPlayer and starts talking
  1: 0x014A [0x6F] WAIT_FRAME_DELAY: Yield until WaitTime reaches zero
  2: 0x014B [0x70] WAIT_ENTITY_RENDER_FLAG: Wait while EventEntity->Render.Flags3 bit 2 is set (cancel turn if not)
  3: 0x014C [0x1D] PRINT_EVENT_MESSAGE(message_id=3556*)
    → "NiNe$26DeTeCtS sOmE-tHiNg$26GoOd HaPpEnEd$26tO YoU!"
  4: 0x014F [0x23] WAIT_FOR_DIALOG_INTERACTION
  5: 0x0150 [0x1D] PRINT_EVENT_MESSAGE(message_id=3557*)
    → "hOw DiD$26nInE kNOw$26ThIs...?$26BeCaUse$26YoUr boDy$26TeMpE-rAtUrE iS$26hIgHeR tHaN$26nOrMaL!"
  6: 0x0153 [0x23] WAIT_FOR_DIALOG_INTERACTION
  7: 0x0154 [0x20] SET_CLI_EVENT_UC_FLAG: Unlock player control
  8: 0x0156 [0x21] END_EVENT
  9: 0x0157 [0x00] END_REQSTACK()
```

### Event 489

#### Metadata

| Field        | Value    |
|--------------|----------|
| Entrypoint   | 0x0158   |
| Data Size    | 19 bytes |
| Instructions | 10       |

```
      00 01 02 03 04 05 06 07  08 09 0A 0B 0C 0D 0E 0F
      -- -- -- -- -- -- -- --  -- -- -- -- -- -- -- --
0150:                          1E F0 FF FF 7F 6F 70 1D          .....op.
0160: 1F 80 23 1D 20 80 23 20  00 21 00                 ..#. .# .!.     
```

#### Opcodes

```
  0: 0x0158 [0x1E] EventEntity looks at LocalPlayer and starts talking
  1: 0x015D [0x6F] WAIT_FRAME_DELAY: Yield until WaitTime reaches zero
  2: 0x015E [0x70] WAIT_ENTITY_RENDER_FLAG: Wait while EventEntity->Render.Flags3 bit 2 is set (cancel turn if not)
  3: 0x015F [0x1D] PRINT_EVENT_MESSAGE(message_id=12265*)
    → "As$26uSuAL, wE$26cARdiANs aRe$26nOT aLLow-Ed$26To LeAVe$26tOWn."
  4: 0x0162 [0x23] WAIT_FOR_DIALOG_INTERACTION
  5: 0x0163 [0x1D] PRINT_EVENT_MESSAGE(message_id=12266*)
    → "NiNe$26REaLLy wAnTS$26tO gET$26oUt AnD$26sEE tHe$26BiG wIdE$26wOrLd."
  6: 0x0166 [0x23] WAIT_FOR_DIALOG_INTERACTION
  7: 0x0167 [0x20] SET_CLI_EVENT_UC_FLAG: Unlock player control
  8: 0x0169 [0x21] END_EVENT
  9: 0x016A [0x00] END_REQSTACK()
```

### Event 454

#### Metadata

| Field        | Value    |
|--------------|----------|
| Entrypoint   | 0x016B   |
| Data Size    | 19 bytes |
| Instructions | 10       |

```
      00 01 02 03 04 05 06 07  08 09 0A 0B 0C 0D 0E 0F
      -- -- -- -- -- -- -- --  -- -- -- -- -- -- -- --
0160:                                   1E F0 FF FF 7F             .....
0170: 6F 70 1D 21 80 23 1D 22  80 23 20 00 21 00        op.!.#.".# .!.  
```

#### Opcodes

```
  0: 0x016B [0x1E] EventEntity looks at LocalPlayer and starts talking
  1: 0x0170 [0x6F] WAIT_FRAME_DELAY: Yield until WaitTime reaches zero
  2: 0x0171 [0x70] WAIT_ENTITY_RENDER_FLAG: Wait while EventEntity->Render.Flags3 bit 2 is set (cancel turn if not)
  3: 0x0172 [0x1D] PRINT_EVENT_MESSAGE(message_id=12275*)
    → "In$26oNe oF$26tHe MaGIc$26ToWeRs Of$26SaRuTa-bArUtA tHeRE$26iS a cARdIAn$26cEmEt-Ery."
  4: 0x0175 [0x23] WAIT_FOR_DIALOG_INTERACTION
  5: 0x0176 [0x1D] PRINT_EVENT_MESSAGE(message_id=12276*)
    → "EvERy-oNE$26LOoks So$26sAD wHEn$26nInE tALkS$26of iT.$26ArE tHEy$26shOwINg sYmP-aTHy$26fOR nINe?"
  6: 0x0179 [0x23] WAIT_FOR_DIALOG_INTERACTION
  7: 0x017A [0x20] SET_CLI_EVENT_UC_FLAG: Unlock player control
  8: 0x017C [0x21] END_EVENT
  9: 0x017D [0x00] END_REQSTACK()
```

### Event 465

#### Metadata

| Field        | Value    |
|--------------|----------|
| Entrypoint   | 0x017E   |
| Data Size    | 19 bytes |
| Instructions | 10       |

```
      00 01 02 03 04 05 06 07  08 09 0A 0B 0C 0D 0E 0F
      -- -- -- -- -- -- -- --  -- -- -- -- -- -- -- --
0170:                                            1E F0                ..
0180: FF FF 7F 6F 70 1D 23 80  23 1D 24 80 23 20 00 21  ...op.#.#.$.# .!
0190: 00                                                .               
```

#### Opcodes

```
  0: 0x017E [0x1E] EventEntity looks at LocalPlayer and starts talking
  1: 0x0183 [0x6F] WAIT_FRAME_DELAY: Yield until WaitTime reaches zero
  2: 0x0184 [0x70] WAIT_ENTITY_RENDER_FLAG: Wait while EventEntity->Render.Flags3 bit 2 is set (cancel turn if not)
  3: 0x0185 [0x1D] PRINT_EVENT_MESSAGE(message_id=12316*)
    → "To$26coMMiT a$26cRiMe mEAnS$26tO Do$26soMEthInG tHAt$26yOU mUsTn't$26Do."
  4: 0x0188 [0x23] WAIT_FOR_DIALOG_INTERACTION
  5: 0x0189 [0x1D] PRINT_EVENT_MESSAGE(message_id=12317*)
    → "WHy$26wOuLd yOu$26Do soMEthInG$26tHAt yOu$26kNOw yOu$26mUsTn't Do? ThAT$26iS soMEthInG$26thAT NiNe$26doESn't uNdeRStaNd."
  6: 0x018C [0x23] WAIT_FOR_DIALOG_INTERACTION
  7: 0x018D [0x20] SET_CLI_EVENT_UC_FLAG: Unlock player control
  8: 0x018F [0x21] END_EVENT
  9: 0x0190 [0x00] END_REQSTACK()
```

### Event 470

#### Metadata

| Field        | Value    |
|--------------|----------|
| Entrypoint   | 0x0191   |
| Data Size    | 19 bytes |
| Instructions | 10       |

```
      00 01 02 03 04 05 06 07  08 09 0A 0B 0C 0D 0E 0F
      -- -- -- -- -- -- -- --  -- -- -- -- -- -- -- --
0190:    1E F0 FF FF 7F 6F 70  1D 25 80 23 1D 26 80 23   .....op.%.#.&.#
01A0: 20 00 21 00                                        .!.            
```

#### Opcodes

```
  0: 0x0191 [0x1E] EventEntity looks at LocalPlayer and starts talking
  1: 0x0196 [0x6F] WAIT_FRAME_DELAY: Yield until WaitTime reaches zero
  2: 0x0197 [0x70] WAIT_ENTITY_RENDER_FLAG: Wait while EventEntity->Render.Flags3 bit 2 is set (cancel turn if not)
  3: 0x0198 [0x1D] PRINT_EVENT_MESSAGE(message_id=12327*)
    → "NiNe$26sAw tHE$26OptISteRy MiNiStEr$26a LiTtLe$26WhiLe aGo."
  4: 0x019B [0x23] WAIT_FOR_DIALOG_INTERACTION
  5: 0x019C [0x1D] PRINT_EVENT_MESSAGE(message_id=12328*)
    → "It$26iS tHE$26fIrSt tImE$26NiNe hAS$26sEEn tHE$26MiNiStEr oUTsIde$26tHE OptISteRy."
  6: 0x019F [0x23] WAIT_FOR_DIALOG_INTERACTION
  7: 0x01A0 [0x20] SET_CLI_EVENT_UC_FLAG: Unlock player control
  8: 0x01A2 [0x21] END_EVENT
  9: 0x01A3 [0x00] END_REQSTACK()
```

### Event 475

#### Metadata

| Field        | Value    |
|--------------|----------|
| Entrypoint   | 0x01A4   |
| Data Size    | 19 bytes |
| Instructions | 10       |

```
      00 01 02 03 04 05 06 07  08 09 0A 0B 0C 0D 0E 0F
      -- -- -- -- -- -- -- --  -- -- -- -- -- -- -- --
01A0:             1E F0 FF FF  7F 6F 70 1D 27 80 23 1D      .....op.'.#.
01B0: 28 80 23 20 00 21 00                              (.# .!.         
```

#### Opcodes

```
  0: 0x01A4 [0x1E] EventEntity looks at LocalPlayer and starts talking
  1: 0x01A9 [0x6F] WAIT_FRAME_DELAY: Yield until WaitTime reaches zero
  2: 0x01AA [0x70] WAIT_ENTITY_RENDER_FLAG: Wait while EventEntity->Render.Flags3 bit 2 is set (cancel turn if not)
  3: 0x01AB [0x1D] PRINT_EVENT_MESSAGE(message_id=12339*)
    → "WhAT$26iS tHIs$26TaLK AbOUt a$26MitHRaN viLLaGe$26tO tHE$26sOUth?"
  4: 0x01AE [0x23] WAIT_FOR_DIALOG_INTERACTION
  5: 0x01AF [0x1D] PRINT_EVENT_MESSAGE(message_id=12340*)
    → "NiNe$26hAS nO$26MeMo-RY oF$26sTUdy-InG aBoUT$26aNy sUCh$26viLLaGe."
  6: 0x01B2 [0x23] WAIT_FOR_DIALOG_INTERACTION
  7: 0x01B3 [0x20] SET_CLI_EVENT_UC_FLAG: Unlock player control
  8: 0x01B5 [0x21] END_EVENT
  9: 0x01B6 [0x00] END_REQSTACK()
```

### Event 480

#### Metadata

| Field        | Value    |
|--------------|----------|
| Entrypoint   | 0x01B7   |
| Data Size    | 19 bytes |
| Instructions | 10       |

```
      00 01 02 03 04 05 06 07  08 09 0A 0B 0C 0D 0E 0F
      -- -- -- -- -- -- -- --  -- -- -- -- -- -- -- --
01B0:                      1E  F0 FF FF 7F 6F 70 1D 29         .....op.)
01C0: 80 23 1D 2A 80 23 20 00  21 00                    .#.*.# .!.      
```

#### Opcodes

```
  0: 0x01B7 [0x1E] EventEntity looks at LocalPlayer and starts talking
  1: 0x01BC [0x6F] WAIT_FRAME_DELAY: Yield until WaitTime reaches zero
  2: 0x01BD [0x70] WAIT_ENTITY_RENDER_FLAG: Wait while EventEntity->Render.Flags3 bit 2 is set (cancel turn if not)
  3: 0x01BE [0x1D] PRINT_EVENT_MESSAGE(message_id=12351*)
    → "NiNe$26woNdERs wHy$26ProFeSSor KoRu-MoRu$26iS LiVinG$26iN WinDUrSt$26WaLLs?"
  4: 0x01C1 [0x23] WAIT_FOR_DIALOG_INTERACTION
  5: 0x01C2 [0x1D] PRINT_EVENT_MESSAGE(message_id=12352*)
    → "ProFeSSor$26KoRu-MoRu iS$26tHe PriNCiPaL$26oF tHe$26AuRaSTeRy. DoESn't$26hE nEEd$26tO Be$26tHErE?"
  6: 0x01C5 [0x23] WAIT_FOR_DIALOG_INTERACTION
  7: 0x01C6 [0x20] SET_CLI_EVENT_UC_FLAG: Unlock player control
  8: 0x01C8 [0x21] END_EVENT
  9: 0x01C9 [0x00] END_REQSTACK()
```

### Event 485

#### Metadata

| Field        | Value    |
|--------------|----------|
| Entrypoint   | 0x01CA   |
| Data Size    | 19 bytes |
| Instructions | 10       |

```
      00 01 02 03 04 05 06 07  08 09 0A 0B 0C 0D 0E 0F
      -- -- -- -- -- -- -- --  -- -- -- -- -- -- -- --
01C0:                                1E F0 FF FF 7F 6F            .....o
01D0: 70 1D 2B 80 23 1D 2C 80  23 20 00 21 00           p.+.#.,.# .!.   
```

#### Opcodes

```
  0: 0x01CA [0x1E] EventEntity looks at LocalPlayer and starts talking
  1: 0x01CF [0x6F] WAIT_FRAME_DELAY: Yield until WaitTime reaches zero
  2: 0x01D0 [0x70] WAIT_ENTITY_RENDER_FLAG: Wait while EventEntity->Render.Flags3 bit 2 is set (cancel turn if not)
  3: 0x01D1 [0x1D] PRINT_EVENT_MESSAGE(message_id=12364*)
    → "MiNisTEr$26ApUrUrU is$26LikE a$26moTHeR to$26aLL tHE$26cARdIAns."
  4: 0x01D4 [0x23] WAIT_FOR_DIALOG_INTERACTION
  5: 0x01D5 [0x1D] PRINT_EVENT_MESSAGE(message_id=12365*)
    → "We$26aLL wANt$26yOU tO$26hELp MoTHeR$26ApUrUrU."
  6: 0x01D8 [0x23] WAIT_FOR_DIALOG_INTERACTION
  7: 0x01D9 [0x20] SET_CLI_EVENT_UC_FLAG: Unlock player control
  8: 0x01DB [0x21] END_EVENT
  9: 0x01DC [0x00] END_REQSTACK()
```

### Event 556

#### Metadata

| Field        | Value    |
|--------------|----------|
| Entrypoint   | 0x01DD   |
| Data Size    | 19 bytes |
| Instructions | 10       |

```
      00 01 02 03 04 05 06 07  08 09 0A 0B 0C 0D 0E 0F
      -- -- -- -- -- -- -- --  -- -- -- -- -- -- -- --
01D0:                                         1E F0 FF               ...
01E0: FF 7F 6F 70 1D 2D 80 23  1D 2E 80 23 20 00 21 00  ..op.-.#...# .!.
```

#### Opcodes

```
  0: 0x01DD [0x1E] EventEntity looks at LocalPlayer and starts talking
  1: 0x01E2 [0x6F] WAIT_FRAME_DELAY: Yield until WaitTime reaches zero
  2: 0x01E3 [0x70] WAIT_ENTITY_RENDER_FLAG: Wait while EventEntity->Render.Flags3 bit 2 is set (cancel turn if not)
  3: 0x01E4 [0x1D] PRINT_EVENT_MESSAGE(message_id=12593*)
    → "We cARdiAnS$26aRe nOT$26cApAbLE of$26teLLiNg LiEs."
  4: 0x01E7 [0x23] WAIT_FOR_DIALOG_INTERACTION
  5: 0x01E8 [0x1D] PRINT_EVENT_MESSAGE(message_id=12594*)
    → "BuT$26we Do hAVe$26tHe cHOicE tO$26rEmAiN siLeNt.$26NiNe wiLL NoT$26gIVe awAy$26aNy sECreTs."
  6: 0x01EB [0x23] WAIT_FOR_DIALOG_INTERACTION
  7: 0x01EC [0x20] SET_CLI_EVENT_UC_FLAG: Unlock player control
  8: 0x01EE [0x21] END_EVENT
  9: 0x01EF [0x00] END_REQSTACK()
```

### Event 564

#### Metadata

| Field        | Value    |
|--------------|----------|
| Entrypoint   | 0x01F0   |
| Data Size    | 19 bytes |
| Instructions | 10       |

```
      00 01 02 03 04 05 06 07  08 09 0A 0B 0C 0D 0E 0F
      -- -- -- -- -- -- -- --  -- -- -- -- -- -- -- --
01F0: 1E F0 FF FF 7F 6F 70 1D  2F 80 23 1D 30 80 23 20  .....op./.#.0.# 
0200: 00 21 00                                          .!.             
```

#### Opcodes

```
  0: 0x01F0 [0x1E] EventEntity looks at LocalPlayer and starts talking
  1: 0x01F5 [0x6F] WAIT_FRAME_DELAY: Yield until WaitTime reaches zero
  2: 0x01F6 [0x70] WAIT_ENTITY_RENDER_FLAG: Wait while EventEntity->Render.Flags3 bit 2 is set (cancel turn if not)
  3: 0x01F7 [0x1D] PRINT_EVENT_MESSAGE(message_id=12598*)
    → "NiNe$26wAs toLD by$26MoTHeR ApUrUrU$26tHAt foRmeR$26MiNisTEr ZoNpa-ZiPpa$26iS nOt a$26niCE pERsoN."
  4: 0x01FA [0x23] WAIT_FOR_DIALOG_INTERACTION
  5: 0x01FB [0x1D] PRINT_EVENT_MESSAGE(message_id=12599*)
    → "If NiNe$26ShoULd eVEr$26fiNd hiM, NiNe's$26OrdERs aRE$26tO ruN aWAy$26im-MediATeLy."
  6: 0x01FE [0x23] WAIT_FOR_DIALOG_INTERACTION
  7: 0x01FF [0x20] SET_CLI_EVENT_UC_FLAG: Unlock player control
  8: 0x0201 [0x21] END_EVENT
  9: 0x0202 [0x00] END_REQSTACK()
```

### Event 561

#### Metadata

| Field        | Value    |
|--------------|----------|
| Entrypoint   | 0x0203   |
| Data Size    | 19 bytes |
| Instructions | 10       |

```
      00 01 02 03 04 05 06 07  08 09 0A 0B 0C 0D 0E 0F
      -- -- -- -- -- -- -- --  -- -- -- -- -- -- -- --
0200:          1E F0 FF FF 7F  6F 70 1D 31 80 23 1D 32     .....op.1.#.2
0210: 80 23 20 00 21 00                                 .# .!.          
```

#### Opcodes

```
  0: 0x0203 [0x1E] EventEntity looks at LocalPlayer and starts talking
  1: 0x0208 [0x6F] WAIT_FRAME_DELAY: Yield until WaitTime reaches zero
  2: 0x0209 [0x70] WAIT_ENTITY_RENDER_FLAG: Wait while EventEntity->Render.Flags3 bit 2 is set (cancel turn if not)
  3: 0x020A [0x1D] PRINT_EVENT_MESSAGE(message_id=12625*)
    → "ThE RoGUe$26cARdiAnS hAVe$26de-SCeNdeD iNTo$26tHe cENtraL tOWeR$26oF tHe$26HoRuToTo RuiNs."
  4: 0x020D [0x23] WAIT_FOR_DIALOG_INTERACTION
  5: 0x020E [0x1D] PRINT_EVENT_MESSAGE(message_id=12626*)
    → "NiNe$26aLSo HEaRd$26tHAt tHe kiNg$26oF tHe$26cARdiAnS hAs$26mADe aN$26aP-PeaRanCe. WhAt$26coULd aLL$26oF tHIs$26mEaN?"
  6: 0x0211 [0x23] WAIT_FOR_DIALOG_INTERACTION
  7: 0x0212 [0x20] SET_CLI_EVENT_UC_FLAG: Unlock player control
  8: 0x0214 [0x21] END_EVENT
  9: 0x0215 [0x00] END_REQSTACK()
```

### Event 568

#### Metadata

| Field        | Value    |
|--------------|----------|
| Entrypoint   | 0x0216   |
| Data Size    | 19 bytes |
| Instructions | 10       |

```
      00 01 02 03 04 05 06 07  08 09 0A 0B 0C 0D 0E 0F
      -- -- -- -- -- -- -- --  -- -- -- -- -- -- -- --
0210:                   1E F0  FF FF 7F 6F 70 1D 33 80        .....op.3.
0220: 23 1D 34 80 23 20 00 21  00                       #.4.# .!.       
```

#### Opcodes

```
  0: 0x0216 [0x1E] EventEntity looks at LocalPlayer and starts talking
  1: 0x021B [0x6F] WAIT_FRAME_DELAY: Yield until WaitTime reaches zero
  2: 0x021C [0x70] WAIT_ENTITY_RENDER_FLAG: Wait while EventEntity->Render.Flags3 bit 2 is set (cancel turn if not)
  3: 0x021D [0x1D] PRINT_EVENT_MESSAGE(message_id=12635*)
    → "TheRe$26aRe StiLL sO$26mAnY RoGUe$26cARdiAnS LeFt.$26NiNe THiNks$26tHEy hAVe$26yeT tO FiNd$26tHe aNSweR$26tHEy aRe$26LoOkiNg fOr."
  4: 0x0220 [0x23] WAIT_FOR_DIALOG_INTERACTION
  5: 0x0221 [0x1D] PRINT_EVENT_MESSAGE(message_id=12636*)
    → "MoTheR$26ApUrUrU toLd NiNe$26tHAt thEy aRe$26SeaRChiNg foR$26tHeiR tRuE$26seLvEs."
  6: 0x0224 [0x23] WAIT_FOR_DIALOG_INTERACTION
  7: 0x0225 [0x20] SET_CLI_EVENT_UC_FLAG: Unlock player control
  8: 0x0227 [0x21] END_EVENT
  9: 0x0228 [0x00] END_REQSTACK()
```
