# 17760257 - DIRECTOR

## Common Data

| Field            | Value                   |
|------------------|-------------------------|
| Zone             | Port Windurst (ID: 240) |
| Block Size       | 2348 bytes              |
| Total Events     | 4                       |
| References Count | 43                      |

## List of Events

| Event ID              | Entrypoint   |   Size |   Instructions |
|-----------------------|--------------|--------|----------------|
| [65535](#event-65535) | 0x0000       |      1 |              1 |
| [594](#event-594)     | 0x0001       |    568 |             81 |
| [595](#event-595)     | 0x0239       |    779 |            105 |
| [597](#event-597)     | 0x0544       |    796 |            105 |

## DAT References (imed_data)

|   Index | Hex Value   |   Dec Value |
|---------|-------------|-------------|
|       0 | 0x0000      |           0 |
|       1 | 0x0078      |         120 |
|       2 | 0x00C8      |         200 |
|       3 | 0x0003      |           3 |
|       4 | 0x019C      |         412 |
|       5 | 0x00A3      |         163 |
|       6 | 0x0019      |          25 |
|       7 | 0x3273      |       12915 |
|       8 | 0x3274      |       12916 |
|       9 | 0x3275      |       12917 |
|      10 | 0x3276      |       12918 |
|      11 | 0x3277      |       12919 |
|      12 | 0x3278      |       12920 |
|      13 | 0x0001      |           1 |
|      14 | 0x3279      |       12921 |
|      15 | 0x327A      |       12922 |
|      16 | 0x0002      |           2 |
|      17 | 0x0097      |         151 |
|      18 | 0x327B      |       12923 |
|      19 | 0x327C      |       12924 |
|      20 | 0x327D      |       12925 |
|      21 | 0x327E      |       12926 |
|      22 | 0x0005      |           5 |
|      23 | 0x327F      |       12927 |
|      24 | 0x3280      |       12928 |
|      25 | 0x0032      |          50 |
|      26 | 0x0006      |           6 |
|      27 | 0x005A      |          90 |
|      28 | 0x3281      |       12929 |
|      29 | 0x3282      |       12930 |
|      30 | 0x3283      |       12931 |
|      31 | 0x3286      |       12934 |
|      32 | 0x007F      |         127 |
|      33 | 0x3287      |       12935 |
|      34 | 0x3288      |       12936 |
|      35 | 0x3289      |       12937 |
|      36 | 0x328A      |       12938 |
|      37 | 0x328B      |       12939 |
|      38 | 0x328C      |       12940 |
|      39 | 0x328D      |       12941 |
|      40 | 0x328E      |       12942 |
|      41 | 0x328F      |       12943 |
|      42 | 0x00C9      |         201 |

## String References

- **12920**: Go talk sense? [Sure, matey./Not today, matey.]

## Events

### Event 65535

#### Metadata

| Field        | Value   |
|--------------|---------|
| Entrypoint   | 0x0000  |
| Data Size    | 1 bytes |
| Instructions | 1       |

```
      00 01 02 03 04 05 06 07  08 09 0A 0B 0C 0D 0E 0F
      -- -- -- -- -- -- -- --  -- -- -- -- -- -- -- --
0000: 00                                                .               
```

#### Opcodes

```
  0: 0x0000 [0x00] END_REQSTACK()
```

### Event 594

#### Metadata

| Field        | Value     |
|--------------|-----------|
| Entrypoint   | 0x0001    |
| Data Size    | 568 bytes |
| Instructions | 81        |

```
      00 01 02 03 04 05 06 07  08 09 0A 0B 0C 0D 0E 0F
      -- -- -- -- -- -- -- --  -- -- -- -- -- -- -- --
0000:    20 01 42 46 01 5D 00  80 01 80 45 02 80 F8 FF    .BF.]....E....
0010: FF 7F F8 FF FF 7F 66 64  6F 31 00 80 1C 01 80 38  ......fdo1.....8
0020: 03 80 29 08 F0 FF FF 7F  0A 75 00 04 80 75 01 29  ..)......u...u.)
0030: 0B F0 FF FF 7F 58 4A 35  00 0F 01 F0 FF FF 7F 4A  .....XJ5.......J
0040: F0 FF FF 7F 35 00 0F 01  6F 76 35 00 0F 01 6F 76  ....5...ov5...ov
0050: F0 FF FF 7F 5C 00 05 80  5C 01 05 80 92 01 35 00  ....\...\.....5.
0060: 0F 01 45 06 80 F8 FF FF  7F F8 FF FF 7F 73 30 39  ..E..........s09
0070: 39 00 80 45 02 80 F8 FF  FF 7F F8 FF FF 7F 66 64  9..E..........fd
0080: 69 31 00 80 29 08 35 00  0F 01 17 2B 35 00 0F 01  i1..).5....+5...
0090: 07 80 23 29 08 35 00 0F  01 18 52 06 80 F8 FF FF  ..#).5....R.....
00A0: 7F F8 FF FF 7F 73 30 39  39 45 02 80 F0 FF FF 7F  .....s099E......
00B0: F0 FF FF 7F 6F 76 6C 31  00 80 45 06 80 F8 FF FF  ....ovl1..E.....
00C0: 7F F8 FF FF 7F 73 31 30  30 00 80 29 08 35 00 0F  .....s100..).5..
00D0: 01 19 2B 35 00 0F 01 08  80 23 29 08 35 00 0F 01  ..+5.....#).5...
00E0: 1A 29 08 35 00 0F 01 09  2B 35 00 0F 01 09 80 23  .).5....+5.....#
00F0: 29 08 35 00 0F 01 0A 52  06 80 F8 FF FF 7F F8 FF  ).5....R........
0100: FF 7F 73 31 30 30 45 06  80 F8 FF FF 7F F8 FF FF  ..s100E.........
0110: 7F 73 31 30 31 00 80 29  08 35 00 0F 01 2C 2B 35  .s101..).5...,+5
0120: 00 0F 01 0A 80 23 29 08  35 00 0F 01 2D 52 06 80  .....#).5...-R..
0130: F8 FF FF 7F F8 FF FF 7F  73 31 30 31 45 06 80 F8  ........s101E...
0140: FF FF 7F F8 FF FF 7F 73  31 30 30 00 80 27 08 35  .......s100..'.5
0150: 00 0F 01 34 2B 35 00 0F  01 0B 80 23 2A 08 35 00  ...4+5.....#*.5.
0160: 0F 01 24 0C 80 00 80 00  80 25 02 00 10 00 80 00  ..$......%......
0170: D7 01 03 01 10 0D 80 52  06 80 F8 FF FF 7F F8 FF  .......R........
0180: FF 7F 73 31 30 30 45 02  80 F0 FF FF 7F F0 FF FF  ..s100E.........
0190: 7F 6F 76 6C 31 00 80 45  06 80 F8 FF FF 7F F8 FF  .ovl1..E........
01A0: FF 7F 73 31 30 32 00 80  29 08 35 00 0F 01 1D 2B  ..s102..).5....+
01B0: 35 00 0F 01 0E 80 23 29  08 35 00 0F 01 1E 29 08  5.....#).5....).
01C0: 35 00 0F 01 0B 2B 35 00  0F 01 0F 80 23 29 08 35  5....+5.....#).5
01D0: 00 0F 01 0C 01 E7 01 02  00 10 0D 80 00 E7 01 03  ................
01E0: 01 10 10 80 01 E7 01 5D  00 80 01 80 45 02 80 F0  .......]....E...
01F0: FF FF 7F F0 FF FF 7F 66  64 6F 31 00 80 1C 01 80  .......fdo1.....
0200: 52 06 80 F8 FF FF 7F F8  FF FF 7F 73 31 30 32 5C  R..........s102\
0210: 00 11 80 5C 01 11 80 4E  00 F0 FF FF 7F 80 F0 FF  ...\...N........
0220: FF 7F 46 00 45 02 80 F0  FF FF 7F F0 FF FF 7F 66  ..F.E..........f
0230: 64 69 31 00 80 20 00 21  00                       di1.. .!.       
```

#### Opcodes

```
  0: 0x0001 [0x20] SET_CLI_EVENT_UC_FLAG: Lock player control
  1: 0x0003 [0x42] SET_CLI_EVENT_CANCEL_DATA()
  2: 0x0004 [0x46] CAMERA_CONTROL: Disable user control
  3: 0x0006 [0x5D] SET_MUSIC_VOLUME(volume=0*, fade_time=120*)
  4: 0x000B [0x45] LOAD_SCHEDULED_TASK: Load scheduler "fdo1" with entities [EventEntity, EventEntity], work=[200*, 0*]
  5: 0x001C [0x1C] WAIT(120* ticks)
  6: 0x001F [0x38] SET_CLIENT_EVENT_MODE(mode=3*)
  7: 0x0022 [0x29] REQ_SET_WAIT(priority=0x08, entity_id=LocalPlayer, tag_num=0x0A)
  8: 0x0029 [0x75] LOAD_ROOM(Load indoor room, room=412*)
  9: 0x002D [0x75] LOAD_ROOM(No action)
 10: 0x002F [0x29] REQ_SET_WAIT(priority=0x0B, entity_id=LocalPlayer, tag_num=0x58)
 11: 0x0036 [0x4A] Chipmy-Popmy (ID: 17760309/0x010F0035) looks at LocalPlayer
 12: 0x003F [0x4A] LocalPlayer looks at Chipmy-Popmy (ID: 17760309/0x010F0035)
 13: 0x0048 [0x6F] WAIT_FRAME_DELAY: Yield until WaitTime reaches zero
 14: 0x0049 [0x76] CHECK_ENTITY_RENDER_FLAGS: Wait until Chipmy-Popmy (ID: 17760309/0x010F0035) Render.Flags0 and Render.Flags3 conditions are met
 15: 0x004E [0x6F] WAIT_FRAME_DELAY: Yield until WaitTime reaches zero
 16: 0x004F [0x76] CHECK_ENTITY_RENDER_FLAGS: Wait until LocalPlayer Render.Flags0 and Render.Flags3 conditions are met
 17: 0x0054 [0x5C] MUSIC_CONTROL: Set Idle (Day) music to song 163*
 18: 0x0058 [0x5C] MUSIC_CONTROL: Set Idle (Night) music to song 163*
 19: 0x005C [0x92] Chipmy-Popmy (ID: 17760309/0x010F0035)->Render.Flags3 ^= 0x01
 20: 0x0062 [0x45] LOAD_SCHEDULED_TASK: Load scheduler "s099" with entities [EventEntity, EventEntity], work=[25*, 0*]
 21: 0x0073 [0x45] LOAD_SCHEDULED_TASK: Load scheduler "fdi1" with entities [EventEntity, EventEntity], work=[200*, 0*]
 22: 0x0084 [0x29] REQ_SET_WAIT(priority=0x08, entity_id=Chipmy-Popmy (ID: 17760309/0x010F0035), tag_num=0x17)
 23: 0x008B [0x2B] Chipmy-Popmy (ID: 17760309/0x010F0035) [12915*]:
    → "Avast there, matey! Ye wanna go a round of fisticuffs? I be in the mood for a fight!"
 24: 0x0092 [0x23] WAIT_FOR_DIALOG_INTERACTION
 25: 0x0093 [0x29] REQ_SET_WAIT(priority=0x08, entity_id=Chipmy-Popmy (ID: 17760309/0x010F0035), tag_num=0x18)
 26: 0x009A [0x52] END_LOAD_SCHEDULER: End scheduler "s099" with entities [EventEntity, EventEntity], work=25*
 27: 0x00A9 [0x45] LOAD_SCHEDULED_TASK: Load scheduler "ovl1" with entities [LocalPlayer, LocalPlayer], work=[200*, 0*]
 28: 0x00BA [0x45] LOAD_SCHEDULED_TASK: Load scheduler "s100" with entities [EventEntity, EventEntity], work=[25*, 0*]
 29: 0x00CB [0x29] REQ_SET_WAIT(priority=0x08, entity_id=Chipmy-Popmy (ID: 17760309/0x010F0035), tag_num=0x19)
 30: 0x00D2 [0x2B] Chipmy-Popmy (ID: 17760309/0x010F0035) [12916*]:
    → "In Bibiki Bay there be a place known as Purgonorgo Isle. On this island lives a mighty strange character that won't listen to a word we has to say."
 31: 0x00D9 [0x23] WAIT_FOR_DIALOG_INTERACTION
 32: 0x00DA [0x29] REQ_SET_WAIT(priority=0x08, entity_id=Chipmy-Popmy (ID: 17760309/0x010F0035), tag_num=0x1A)
 33: 0x00E1 [0x29] REQ_SET_WAIT(priority=0x08, entity_id=Chipmy-Popmy (ID: 17760309/0x010F0035), tag_num=0x09)
 34: 0x00E8 [0x2B] Chipmy-Popmy (ID: 17760309/0x010F0035) [12917*]:
    → "All the islands in that bay belong to us here at the Fishermen's Guild, but that scurvy-wurvy dog insists that Purgonorgo Isle be his, an' his alone."
 35: 0x00EF [0x23] WAIT_FOR_DIALOG_INTERACTION
 36: 0x00F0 [0x29] REQ_SET_WAIT(priority=0x08, entity_id=Chipmy-Popmy (ID: 17760309/0x010F0035), tag_num=0x0A)
 37: 0x00F7 [0x52] END_LOAD_SCHEDULER: End scheduler "s100" with entities [EventEntity, EventEntity], work=25*
 38: 0x0106 [0x45] LOAD_SCHEDULED_TASK: Load scheduler "s101" with entities [EventEntity, EventEntity], work=[25*, 0*]
 39: 0x0117 [0x29] REQ_SET_WAIT(priority=0x08, entity_id=Chipmy-Popmy (ID: 17760309/0x010F0035), tag_num=0x2C)
 40: 0x011E [0x2B] Chipmy-Popmy (ID: 17760309/0x010F0035) [12918*]:
    → "We've tried talking it out all civil-like, but things have gotten out o' hand. We've even been settin' monsters on each other in place of talking... Who knows what we'll be facing next!"
 41: 0x0125 [0x23] WAIT_FOR_DIALOG_INTERACTION
 42: 0x0126 [0x29] REQ_SET_WAIT(priority=0x08, entity_id=Chipmy-Popmy (ID: 17760309/0x010F0035), tag_num=0x2D)
 43: 0x012D [0x52] END_LOAD_SCHEDULER: End scheduler "s101" with entities [EventEntity, EventEntity], work=25*
 44: 0x013C [0x45] LOAD_SCHEDULED_TASK: Load scheduler "s100" with entities [EventEntity, EventEntity], work=[25*, 0*]
 45: 0x014D [0x27] REQ_SET(priority=0x08, entity_id=Chipmy-Popmy (ID: 17760309/0x010F0035), tag_num=0x34)
 46: 0x0154 [0x2B] Chipmy-Popmy (ID: 17760309/0x010F0035) [12919*]:
    → "Now, hang on a moment there, matey. Surely being an adventurer an' all, ye could put that mangy piece o' shark bait in his place. Ye go see if ye can talk some sense into him!"
 47: 0x015B [0x23] WAIT_FOR_DIALOG_INTERACTION
 48: 0x015C [0x2A] GET_REQ_LEVEL(level=8, entity_id=Chipmy-Popmy (ID: 17760309/0x010F0035))
 49: 0x0162 [0x24] CREATE_DIALOG(message_id=12920*, default_option=0*, option_flags=0*)
    → "Go talk sense? [Sure, matey./Not today, matey.]"
 50: 0x0169 [0x25] WAIT_DIALOG_SELECT()
 51: 0x016A [0x02] IF !(Work_Zone[0] == 0*) GOTO 0x01D7
 52: 0x0172 [0x03] Work_Zone[1] = 1*
 53: 0x0177 [0x52] END_LOAD_SCHEDULER: End scheduler "s100" with entities [EventEntity, EventEntity], work=25*
 54: 0x0186 [0x45] LOAD_SCHEDULED_TASK: Load scheduler "ovl1" with entities [LocalPlayer, LocalPlayer], work=[200*, 0*]
 55: 0x0197 [0x45] LOAD_SCHEDULED_TASK: Load scheduler "s102" with entities [EventEntity, EventEntity], work=[25*, 0*]
 56: 0x01A8 [0x29] REQ_SET_WAIT(priority=0x08, entity_id=Chipmy-Popmy (ID: 17760309/0x010F0035), tag_num=0x1D)
 57: 0x01AF [0x2B] Chipmy-Popmy (ID: 17760309/0x010F0035) [12921*]:
    → "We lost our last encounter, so if the Fishermen's Guild doesn't win this next round, our name'll be mud on the high seas!"
 58: 0x01B6 [0x23] WAIT_FOR_DIALOG_INTERACTION
 59: 0x01B7 [0x29] REQ_SET_WAIT(priority=0x08, entity_id=Chipmy-Popmy (ID: 17760309/0x010F0035), tag_num=0x1E)
 60: 0x01BE [0x29] REQ_SET_WAIT(priority=0x08, entity_id=Chipmy-Popmy (ID: 17760309/0x010F0035), tag_num=0x0B)
 61: 0x01C5 [0x2B] Chipmy-Popmy (ID: 17760309/0x010F0035) [12922*]:
    → "The next "debate" is set to take place in the middle o' Purgonorgo Isle. Don't ye be losing now, matey!"
 62: 0x01CC [0x23] WAIT_FOR_DIALOG_INTERACTION
 63: 0x01CD [0x29] REQ_SET_WAIT(priority=0x08, entity_id=Chipmy-Popmy (ID: 17760309/0x010F0035), tag_num=0x0C)
 64: 0x01D4 [0x01] GOTO 0x01E7
 65: 0x01D7 [0x02] IF !(Work_Zone[0] == 1*) GOTO 0x01E7
 66: 0x01DF [0x03] Work_Zone[1] = 2*
 67: 0x01E4 [0x01] GOTO 0x01E7

SUBROUTINE_01E7:
 68: 0x01E7 [0x5D] SET_MUSIC_VOLUME(volume=0*, fade_time=120*)
 69: 0x01EC [0x45] LOAD_SCHEDULED_TASK: Load scheduler "fdo1" with entities [LocalPlayer, LocalPlayer], work=[200*, 0*]
 70: 0x01FD [0x1C] WAIT(120* ticks)
 71: 0x0200 [0x52] END_LOAD_SCHEDULER: End scheduler "s102" with entities [EventEntity, EventEntity], work=25*
 72: 0x020F [0x5C] MUSIC_CONTROL: Set Idle (Day) music to song 151*
 73: 0x0213 [0x5C] MUSIC_CONTROL: Set Idle (Night) music to song 151*
 74: 0x0217 [0x4E] SET_ENTITY_HIDE_FLAG: Show LocalPlayer
 75: 0x021D [0x80] LOAD_WAIT(entity=LocalPlayer)
 76: 0x0222 [0x46] CAMERA_CONTROL: Restore default settings
 77: 0x0224 [0x45] LOAD_SCHEDULED_TASK: Load scheduler "fdi1" with entities [LocalPlayer, LocalPlayer], work=[200*, 0*]
 78: 0x0235 [0x20] SET_CLI_EVENT_UC_FLAG: Unlock player control
 79: 0x0237 [0x21] END_EVENT
 80: 0x0238 [0x00] END_REQSTACK()
```

### Event 595

#### Metadata

| Field        | Value     |
|--------------|-----------|
| Entrypoint   | 0x0239    |
| Data Size    | 779 bytes |
| Instructions | 105       |

```
      00 01 02 03 04 05 06 07  08 09 0A 0B 0C 0D 0E 0F
      -- -- -- -- -- -- -- --  -- -- -- -- -- -- -- --
0230:                             20 01 42 46 01 5D 00            .BF.].
0240: 80 01 80 45 02 80 F8 FF  FF 7F F8 FF FF 7F 66 64  ...E..........fd
0250: 6F 31 00 80 1C 01 80 38  03 80 29 08 F0 FF FF 7F  o1.....8..).....
0260: 0A 75 00 04 80 75 01 29  0B F0 FF FF 7F 58 29 0B  .u...u.).....X).
0270: 2E 00 0F 01 04 4A 35 00  0F 01 F0 FF FF 7F 4A F0  .....J5.......J.
0280: FF FF 7F 35 00 0F 01 6F  76 35 00 0F 01 6F 76 F0  ...5...ov5...ov.
0290: FF FF 7F 4E 00 2E 00 0F  01 4E 00 35 00 0F 01 80  ...N.....N.5....
02A0: 35 00 0F 01 5C 00 05 80  5C 01 05 80 92 01 35 00  5...\...\.....5.
02B0: 0F 01 92 01 2E 00 0F 01  45 06 80 F8 FF FF 7F F8  ........E.......
02C0: FF FF 7F 73 31 30 30 00  80 45 02 80 F8 FF FF 7F  ...s100..E......
02D0: F8 FF FF 7F 66 64 69 31  00 80 29 08 35 00 0F 01  ....fdi1..).5...
02E0: 07 2B 35 00 0F 01 12 80  23 29 08 35 00 0F 01 08  .+5.....#).5....
02F0: 29 08 35 00 0F 01 1D 2B  35 00 0F 01 13 80 23 29  ).5....+5.....#)
0300: 08 35 00 0F 01 1E 52 06  80 F8 FF FF 7F F8 FF FF  .5....R.........
0310: 7F 73 31 30 30 45 06 80  F8 FF FF 7F F8 FF FF 7F  .s100E..........
0320: 73 31 30 31 00 80 79 00  2E 00 0F 01 35 00 0F 01  s101..y.....5...
0330: 29 08 35 00 0F 01 03 2B  35 00 0F 01 14 80 23 29  ).5....+5.....#)
0340: 08 35 00 0F 01 04 29 08  35 00 0F 01 05 29 08 35  .5....).5....).5
0350: 00 0F 01 06 29 08 35 00  0F 01 0F 2B 35 00 0F 01  ....).5....+5...
0360: 15 80 23 29 08 35 00 0F  01 10 27 0B 2E 00 0F 01  ..#).5....'.....
0370: 05 1C 16 80 52 06 80 F8  FF FF 7F F8 FF FF 7F 73  ....R..........s
0380: 31 30 31 45 06 80 F8 FF  FF 7F F8 FF FF 7F 73 31  101E..........s1
0390: 30 33 00 80 4A F0 FF FF  7F 2E 00 0F 01 4A 35 00  03..J........J5.
03A0: 0F 01 2E 00 0F 01 2B 2E  00 0F 01 17 80 23 2B 35  ......+......#+5
03B0: 00 0F 01 18 80 23 2A 0B  2E 00 0F 01 45 02 80 F8  .....#*.....E...
03C0: FF FF 7F F8 FF FF 7F 66  64 6F 31 00 80 1C 01 80  .......fdo1.....
03D0: 52 06 80 F8 FF FF 7F F8  FF FF 7F 73 31 30 33 66  R..........s103f
03E0: 19 80 2E 00 0F 01 2E 00  0F 01 74 68 6B 31 53 2E  ..........thk1S.
03F0: 00 0F 01 2E 00 0F 01 74  68 6B 31 7B 2E 00 0F 01  .......thk1{....
0400: 1C 01 80 02 09 10 16 80  00 1F 04 45 06 80 F8 FF  ...........E....
0410: FF 7F F8 FF FF 7F 73 31  30 36 00 80 01 4C 04 02  ......s106...L..
0420: 09 10 1A 80 00 3B 04 45  06 80 F8 FF FF 7F F8 FF  .....;.E........
0430: FF 7F 73 31 30 36 00 80  01 4C 04 45 06 80 F8 FF  ..s106...L.E....
0440: FF 7F F8 FF FF 7F 73 31  30 34 00 80 45 02 80 F8  ......s104..E...
0450: FF FF 7F F8 FF FF 7F 66  64 69 31 00 80 1C 1B 80  .......fdi1.....
0460: 66 19 80 2E 00 0F 01 2E  00 0F 01 74 68 6B 32 2B  f..........thk2+
0470: 2E 00 0F 01 1C 80 23 53  2E 00 0F 01 2E 00 0F 01  ......#S........
0480: 74 68 6B 32 79 00 2E 00  0F 01 F0 FF FF 7F 2B 2E  thk2y.........+.
0490: 00 0F 01 1D 80 23 02 09  10 16 80 00 B0 04 52 06  .....#........R.
04A0: 80 F8 FF FF 7F F8 FF FF  7F 73 31 30 36 01 D9 04  .........s106...
04B0: 02 09 10 1A 80 00 CA 04  52 06 80 F8 FF FF 7F F8  ........R.......
04C0: FF FF 7F 73 31 30 36 01  D9 04 52 06 80 F8 FF FF  ...s106...R.....
04D0: 7F F8 FF FF 7F 73 31 30  34 45 06 80 F8 FF FF 7F  .....s104E......
04E0: F8 FF FF 7F 73 31 30 35  00 80 2B 2E 00 0F 01 1E  ....s105..+.....
04F0: 80 23 5D 00 80 01 80 45  02 80 F0 FF FF 7F F0 FF  .#]....E........
0500: FF 7F 66 64 6F 31 00 80  1C 01 80 52 06 80 F8 FF  ..fdo1.....R....
0510: FF 7F F8 FF FF 7F 73 31  30 35 5C 00 11 80 5C 01  ......s105\...\.
0520: 11 80 4E 00 F0 FF FF 7F  80 F0 FF FF 7F 46 00 45  ..N..........F.E
0530: 02 80 F0 FF FF 7F F0 FF  FF 7F 66 64 69 31 00 80  ..........fdi1..
0540: 20 00 21 00                                        .!.            
```

#### Opcodes

```
  0: 0x0239 [0x20] SET_CLI_EVENT_UC_FLAG: Lock player control
  1: 0x023B [0x42] SET_CLI_EVENT_CANCEL_DATA()
  2: 0x023C [0x46] CAMERA_CONTROL: Disable user control
  3: 0x023E [0x5D] SET_MUSIC_VOLUME(volume=0*, fade_time=120*)
  4: 0x0243 [0x45] LOAD_SCHEDULED_TASK: Load scheduler "fdo1" with entities [EventEntity, EventEntity], work=[200*, 0*]
  5: 0x0254 [0x1C] WAIT(120* ticks)
  6: 0x0257 [0x38] SET_CLIENT_EVENT_MODE(mode=3*)
  7: 0x025A [0x29] REQ_SET_WAIT(priority=0x08, entity_id=LocalPlayer, tag_num=0x0A)
  8: 0x0261 [0x75] LOAD_ROOM(Load indoor room, room=412*)
  9: 0x0265 [0x75] LOAD_ROOM(No action)
 10: 0x0267 [0x29] REQ_SET_WAIT(priority=0x0B, entity_id=LocalPlayer, tag_num=0x58)
 11: 0x026E [0x29] REQ_SET_WAIT(priority=0x0B, entity_id=Thubu Parohren (ID: 17760302/0x010F002E), tag_num=0x04)
 12: 0x0275 [0x4A] Chipmy-Popmy (ID: 17760309/0x010F0035) looks at LocalPlayer
 13: 0x027E [0x4A] LocalPlayer looks at Chipmy-Popmy (ID: 17760309/0x010F0035)
 14: 0x0287 [0x6F] WAIT_FRAME_DELAY: Yield until WaitTime reaches zero
 15: 0x0288 [0x76] CHECK_ENTITY_RENDER_FLAGS: Wait until Chipmy-Popmy (ID: 17760309/0x010F0035) Render.Flags0 and Render.Flags3 conditions are met
 16: 0x028D [0x6F] WAIT_FRAME_DELAY: Yield until WaitTime reaches zero
 17: 0x028E [0x76] CHECK_ENTITY_RENDER_FLAGS: Wait until LocalPlayer Render.Flags0 and Render.Flags3 conditions are met
 18: 0x0293 [0x4E] SET_ENTITY_HIDE_FLAG: Show Thubu Parohren (ID: 17760302/0x010F002E)
 19: 0x0299 [0x4E] SET_ENTITY_HIDE_FLAG: Show Chipmy-Popmy (ID: 17760309/0x010F0035)
 20: 0x029F [0x80] LOAD_WAIT(entity=Chipmy-Popmy (ID: 17760309/0x010F0035))
 21: 0x02A4 [0x5C] MUSIC_CONTROL: Set Idle (Day) music to song 163*
 22: 0x02A8 [0x5C] MUSIC_CONTROL: Set Idle (Night) music to song 163*
 23: 0x02AC [0x92] Chipmy-Popmy (ID: 17760309/0x010F0035)->Render.Flags3 ^= 0x01
 24: 0x02B2 [0x92] Thubu Parohren (ID: 17760302/0x010F002E)->Render.Flags3 ^= 0x01
 25: 0x02B8 [0x45] LOAD_SCHEDULED_TASK: Load scheduler "s100" with entities [EventEntity, EventEntity], work=[25*, 0*]
 26: 0x02C9 [0x45] LOAD_SCHEDULED_TASK: Load scheduler "fdi1" with entities [EventEntity, EventEntity], work=[200*, 0*]
 27: 0x02DA [0x29] REQ_SET_WAIT(priority=0x08, entity_id=Chipmy-Popmy (ID: 17760309/0x010F0035), tag_num=0x07)
 28: 0x02E1 [0x2B] Chipmy-Popmy (ID: 17760309/0x010F0035) [12923*]:
    → "That warmachine slipped you this $3?"
 29: 0x02E8 [0x23] WAIT_FOR_DIALOG_INTERACTION
 30: 0x02E9 [0x29] REQ_SET_WAIT(priority=0x08, entity_id=Chipmy-Popmy (ID: 17760309/0x010F0035), tag_num=0x08)
 31: 0x02F0 [0x29] REQ_SET_WAIT(priority=0x08, entity_id=Chipmy-Popmy (ID: 17760309/0x010F0035), tag_num=0x1D)
 32: 0x02F7 [0x2B] Chipmy-Popmy (ID: 17760309/0x010F0035) [12924*]:
    → "It don't matter how many pieces of trash he hands over, we won't be giving in!"
 33: 0x02FE [0x23] WAIT_FOR_DIALOG_INTERACTION
 34: 0x02FF [0x29] REQ_SET_WAIT(priority=0x08, entity_id=Chipmy-Popmy (ID: 17760309/0x010F0035), tag_num=0x1E)
 35: 0x0306 [0x52] END_LOAD_SCHEDULER: End scheduler "s100" with entities [EventEntity, EventEntity], work=25*
 36: 0x0315 [0x45] LOAD_SCHEDULED_TASK: Load scheduler "s101" with entities [EventEntity, EventEntity], work=[25*, 0*]
 37: 0x0326 [0x79] Thubu Parohren (ID: 17760302/0x010F002E) looks at Chipmy-Popmy (ID: 17760309/0x010F0035) (Basic look)
 38: 0x0330 [0x29] REQ_SET_WAIT(priority=0x08, entity_id=Chipmy-Popmy (ID: 17760309/0x010F0035), tag_num=0x03)
 39: 0x0337 [0x2B] Chipmy-Popmy (ID: 17760309/0x010F0035) [12925*]:
    → "It looks to me like a deed written in Mithran style. That kinda feline legal jargon-wargon's got nothing to do with us Tarutaru."
 40: 0x033E [0x23] WAIT_FOR_DIALOG_INTERACTION
 41: 0x033F [0x29] REQ_SET_WAIT(priority=0x08, entity_id=Chipmy-Popmy (ID: 17760309/0x010F0035), tag_num=0x04)
 42: 0x0346 [0x29] REQ_SET_WAIT(priority=0x08, entity_id=Chipmy-Popmy (ID: 17760309/0x010F0035), tag_num=0x05)
 43: 0x034D [0x29] REQ_SET_WAIT(priority=0x08, entity_id=Chipmy-Popmy (ID: 17760309/0x010F0035), tag_num=0x06)
 44: 0x0354 [0x29] REQ_SET_WAIT(priority=0x08, entity_id=Chipmy-Popmy (ID: 17760309/0x010F0035), tag_num=0x0F)
 45: 0x035B [0x2B] Chipmy-Popmy (ID: 17760309/0x010F0035) [12926*]:
    → "He's telling us to take our battle to the Mithra boss!"
 46: 0x0362 [0x23] WAIT_FOR_DIALOG_INTERACTION
 47: 0x0363 [0x29] REQ_SET_WAIT(priority=0x08, entity_id=Chipmy-Popmy (ID: 17760309/0x010F0035), tag_num=0x10)
 48: 0x036A [0x27] REQ_SET(priority=0x0B, entity_id=Thubu Parohren (ID: 17760302/0x010F002E), tag_num=0x05)
 49: 0x0371 [0x1C] WAIT(5* ticks)
 50: 0x0374 [0x52] END_LOAD_SCHEDULER: End scheduler "s101" with entities [EventEntity, EventEntity], work=25*
 51: 0x0383 [0x45] LOAD_SCHEDULED_TASK: Load scheduler "s103" with entities [EventEntity, EventEntity], work=[25*, 0*]
 52: 0x0394 [0x4A] LocalPlayer looks at Thubu Parohren (ID: 17760302/0x010F002E)
 53: 0x039D [0x4A] Chipmy-Popmy (ID: 17760309/0x010F0035) looks at Thubu Parohren (ID: 17760302/0x010F002E)
 54: 0x03A6 [0x2B] Thubu Parohren (ID: 17760302/0x010F002E) [12927*]:
    → "Just a fish-pickin' minute there. If this has somethin' to do with Mithra, then I better have a look at it..."
 55: 0x03AD [0x23] WAIT_FOR_DIALOG_INTERACTION
 56: 0x03AE [0x2B] Chipmy-Popmy (ID: 17760309/0x010F0035) [12928*]:
    → "Guildmaster!"
 57: 0x03B5 [0x23] WAIT_FOR_DIALOG_INTERACTION
 58: 0x03B6 [0x2A] GET_REQ_LEVEL(level=11, entity_id=Thubu Parohren (ID: 17760302/0x010F002E))
 59: 0x03BC [0x45] LOAD_SCHEDULED_TASK: Load scheduler "fdo1" with entities [EventEntity, EventEntity], work=[200*, 0*]
 60: 0x03CD [0x1C] WAIT(120* ticks)
 61: 0x03D0 [0x52] END_LOAD_SCHEDULER: End scheduler "s103" with entities [EventEntity, EventEntity], work=25*
 62: 0x03DF [0x66] LOAD_EXT_SCHEDULER_MAIN: Load scheduler "thk1" with entities [Thubu Parohren (ID: 17760302/0x010F002E), Thubu Parohren (ID: 17760302/0x010F002E)], work=50*
 63: 0x03EE [0x53] WAIT_SCHEDULER_TASK: Wait for scheduler "thk1" with entities [Thubu Parohren (ID: 17760302/0x010F002E), Thubu Parohren (ID: 17760302/0x010F002E)]
 64: 0x03FB [0x7B] Thubu Parohren (ID: 17760302/0x010F002E) stops talking
 65: 0x0400 [0x1C] WAIT(120* ticks)
 66: 0x0403 [0x02] IF !(Work_Zone[9] == 5*) GOTO 0x041F
 67: 0x040B [0x45] LOAD_SCHEDULED_TASK: Load scheduler "s106" with entities [EventEntity, EventEntity], work=[25*, 0*]
 68: 0x041C [0x01] GOTO 0x044C
 69: 0x041F [0x02] IF !(Work_Zone[9] == 6*) GOTO 0x043B
 70: 0x0427 [0x45] LOAD_SCHEDULED_TASK: Load scheduler "s106" with entities [EventEntity, EventEntity], work=[25*, 0*]
 71: 0x0438 [0x01] GOTO 0x044C
 72: 0x043B [0x45] LOAD_SCHEDULED_TASK: Load scheduler "s104" with entities [EventEntity, EventEntity], work=[25*, 0*]

SUBROUTINE_044C:
 73: 0x044C [0x45] LOAD_SCHEDULED_TASK: Load scheduler "fdi1" with entities [EventEntity, EventEntity], work=[200*, 0*]
 74: 0x045D [0x1C] WAIT(90* ticks)
 75: 0x0460 [0x66] LOAD_EXT_SCHEDULER_MAIN: Load scheduler "thk2" with entities [Thubu Parohren (ID: 17760302/0x010F002E), Thubu Parohren (ID: 17760302/0x010F002E)], work=50*
 76: 0x046F [0x2B] Thubu Parohren (ID: 17760302/0x010F002E) [12929*]:
    → "... A Mithran Tracker happens to be in Attohwa Chasm this verrry moment."
 77: 0x0476 [0x23] WAIT_FOR_DIALOG_INTERACTION
 78: 0x0477 [0x53] WAIT_SCHEDULER_TASK: Wait for scheduler "thk2" with entities [Thubu Parohren (ID: 17760302/0x010F002E), Thubu Parohren (ID: 17760302/0x010F002E)]
 79: 0x0484 [0x79] Thubu Parohren (ID: 17760302/0x010F002E) looks at LocalPlayer (Basic look)
 80: 0x048E [0x2B] Thubu Parohren (ID: 17760302/0x010F002E) [12930*]:
    → "Ya don't look rrreal busy. Why don't ya head on over therrre and show this to her?"
 81: 0x0495 [0x23] WAIT_FOR_DIALOG_INTERACTION
 82: 0x0496 [0x02] IF !(Work_Zone[9] == 5*) GOTO 0x04B0
 83: 0x049E [0x52] END_LOAD_SCHEDULER: End scheduler "s106" with entities [EventEntity, EventEntity], work=25*
 84: 0x04AD [0x01] GOTO 0x04D9
 85: 0x04B0 [0x02] IF !(Work_Zone[9] == 6*) GOTO 0x04CA
 86: 0x04B8 [0x52] END_LOAD_SCHEDULER: End scheduler "s106" with entities [EventEntity, EventEntity], work=25*
 87: 0x04C7 [0x01] GOTO 0x04D9
 88: 0x04CA [0x52] END_LOAD_SCHEDULER: End scheduler "s104" with entities [EventEntity, EventEntity], work=25*

SUBROUTINE_04D9:
 89: 0x04D9 [0x45] LOAD_SCHEDULED_TASK: Load scheduler "s105" with entities [EventEntity, EventEntity], work=[25*, 0*]
 90: 0x04EA [0x2B] Thubu Parohren (ID: 17760302/0x010F002E) [12931*]:
    → "She should be able to tell us if this $3 is the rrreal deal. Off ya go."
 91: 0x04F1 [0x23] WAIT_FOR_DIALOG_INTERACTION
 92: 0x04F2 [0x5D] SET_MUSIC_VOLUME(volume=0*, fade_time=120*)
 93: 0x04F7 [0x45] LOAD_SCHEDULED_TASK: Load scheduler "fdo1" with entities [LocalPlayer, LocalPlayer], work=[200*, 0*]
 94: 0x0508 [0x1C] WAIT(120* ticks)
 95: 0x050B [0x52] END_LOAD_SCHEDULER: End scheduler "s105" with entities [EventEntity, EventEntity], work=25*
 96: 0x051A [0x5C] MUSIC_CONTROL: Set Idle (Day) music to song 151*
 97: 0x051E [0x5C] MUSIC_CONTROL: Set Idle (Night) music to song 151*
 98: 0x0522 [0x4E] SET_ENTITY_HIDE_FLAG: Show LocalPlayer
 99: 0x0528 [0x80] LOAD_WAIT(entity=LocalPlayer)
100: 0x052D [0x46] CAMERA_CONTROL: Restore default settings
101: 0x052F [0x45] LOAD_SCHEDULED_TASK: Load scheduler "fdi1" with entities [LocalPlayer, LocalPlayer], work=[200*, 0*]
102: 0x0540 [0x20] SET_CLI_EVENT_UC_FLAG: Unlock player control
103: 0x0542 [0x21] END_EVENT
104: 0x0543 [0x00] END_REQSTACK()
```

### Event 597

#### Metadata

| Field        | Value     |
|--------------|-----------|
| Entrypoint   | 0x0544    |
| Data Size    | 796 bytes |
| Instructions | 105       |

```
      00 01 02 03 04 05 06 07  08 09 0A 0B 0C 0D 0E 0F
      -- -- -- -- -- -- -- --  -- -- -- -- -- -- -- --
0540:             20 01 42 46  01 4A 35 00 0F 01 F0 FF       .BF.J5.....
0550: FF 7F 6F 76 35 00 0F 01  29 08 35 00 0F 01 01 2B  ..ov5...).5....+
0560: 35 00 0F 01 1F 80 23 5D  00 80 01 80 45 02 80 F8  5.....#]....E...
0570: FF FF 7F F8 FF FF 7F 66  64 6F 31 00 80 1C 01 80  .......fdo1.....
0580: 29 08 35 00 0F 01 02 38  03 80 29 08 F0 FF FF 7F  ).5....8..).....
0590: 0A 75 00 04 80 75 01 29  0B F0 FF FF 7F 58 4A 35  .u...u.).....XJ5
05A0: 00 0F 01 F0 FF FF 7F 4A  F0 FF FF 7F 35 00 0F 01  .......J....5...
05B0: 6F 76 35 00 0F 01 6F 76  F0 FF FF 7F 5C 00 20 80  ov5...ov....\. .
05C0: 5C 01 20 80 92 01 2E 00  0F 01 92 01 35 00 0F 01  \. .........5...
05D0: 29 0B 2E 00 0F 01 07 66  19 80 2E 00 0F 01 2E 00  )......f........
05E0: 0F 01 74 68 6B 31 53 2E  00 0F 01 2E 00 0F 01 74  ..thk1S........t
05F0: 68 6B 31 4A F0 FF FF 7F  2E 00 0F 01 4A 35 00 0F  hk1J........J5..
0600: 01 2E 00 0F 01 6F 76 F0  FF FF 7F 6F 76 35 00 0F  .....ov....ov5..
0610: 01 45 06 80 F8 FF FF 7F  F8 FF FF 7F 73 31 30 37  .E..........s107
0620: 00 80 45 02 80 F8 FF FF  7F F8 FF FF 7F 66 64 69  ..E..........fdi
0630: 31 00 80 2B 2E 00 0F 01  21 80 23 52 06 80 F8 FF  1..+....!.#R....
0640: FF 7F F8 FF FF 7F 73 31  30 37 45 02 80 F0 FF FF  ......s107E.....
0650: 7F F0 FF FF 7F 6F 76 6C  31 00 80 45 06 80 F8 FF  .....ovl1..E....
0660: FF 7F F8 FF FF 7F 73 31  30 38 00 80 79 00 2E 00  ......s108..y...
0670: 0F 01 35 00 0F 01 79 00  F0 FF FF 7F 35 00 0F 01  ..5...y.....5...
0680: 66 19 80 2E 00 0F 01 2E  00 0F 01 74 68 6B 32 29  f..........thk2)
0690: 08 35 00 0F 01 09 2B 35  00 0F 01 22 80 23 29 08  .5....+5...".#).
06A0: 35 00 0F 01 0A 53 2E 00  0F 01 2E 00 0F 01 74 68  5....S........th
06B0: 6B 32 29 08 35 00 0F 01  0F 2B 35 00 0F 01 23 80  k2).5....+5...#.
06C0: 23 29 08 35 00 0F 01 10  52 06 80 F8 FF FF 7F F8  #).5....R.......
06D0: FF FF 7F 73 31 30 38 45  06 80 F8 FF FF 7F F8 FF  ...s108E........
06E0: FF 7F 73 31 30 35 00 80  79 00 F0 FF FF 7F 2E 00  ..s105..y.......
06F0: 0F 01 2B 2E 00 0F 01 24  80 23 2B 35 00 0F 01 25  ..+....$.#+5...%
0700: 80 23 52 06 80 F8 FF FF  7F F8 FF FF 7F 73 31 30  .#R..........s10
0710: 35 45 06 80 F8 FF FF 7F  F8 FF FF 7F 73 31 30 39  5E..........s109
0720: 00 80 2B 2E 00 0F 01 26  80 23 2B 2E 00 0F 01 27  ..+....&.#+....'
0730: 80 23 52 06 80 F8 FF FF  7F F8 FF FF 7F 73 31 30  .#R..........s10
0740: 39 45 02 80 F0 FF FF 7F  F0 FF FF 7F 6F 76 6C 31  9E..........ovl1
0750: 00 80 02 09 10 16 80 00  6E 07 45 06 80 F8 FF FF  ........n.E.....
0760: 7F F8 FF FF 7F 73 31 30  36 00 80 01 9B 07 02 09  .....s106.......
0770: 10 1A 80 00 8A 07 45 06  80 F8 FF FF 7F F8 FF FF  ......E.........
0780: 7F 73 31 30 36 00 80 01  9B 07 45 06 80 F8 FF FF  .s106.....E.....
0790: 7F F8 FF FF 7F 73 31 30  34 00 80 7B 2E 00 0F 01  .....s104..{....
07A0: 2B 2E 00 0F 01 28 80 23  79 00 2E 00 0F 01 F0 FF  +....(.#y.......
07B0: FF 7F 66 19 80 2E 00 0F  01 2E 00 0F 01 70 61 73  ..f..........pas
07C0: 30 2B 2E 00 0F 01 29 80  23 5D 00 80 01 80 45 02  0+....).#]....E.
07D0: 80 F0 FF FF 7F F0 FF FF  7F 66 64 6F 31 00 80 1C  .........fdo1...
07E0: 01 80 02 09 10 16 80 00  FC 07 52 06 80 F8 FF FF  ..........R.....
07F0: 7F F8 FF FF 7F 73 31 30  36 01 25 08 02 09 10 1A  .....s106.%.....
0800: 80 00 16 08 52 06 80 F8  FF FF 7F F8 FF FF 7F 73  ....R..........s
0810: 31 30 36 01 25 08 52 06  80 F8 FF FF 7F F8 FF FF  106.%.R.........
0820: 7F 73 31 30 34 45 2A 80  F0 FF FF 7F F0 FF FF 7F  .s104E*.........
0830: 71 73 74 63 00 80 5C 00  11 80 5C 01 11 80 4E 00  qstc..\...\...N.
0840: F0 FF FF 7F 80 F0 FF FF  7F 46 00 45 02 80 F0 FF  .........F.E....
0850: FF 7F F0 FF FF 7F 66 64  69 31 00 80 20 00 21 00  ......fdi1.. .!.
```

#### Opcodes

```
  0: 0x0544 [0x20] SET_CLI_EVENT_UC_FLAG: Lock player control
  1: 0x0546 [0x42] SET_CLI_EVENT_CANCEL_DATA()
  2: 0x0547 [0x46] CAMERA_CONTROL: Disable user control
  3: 0x0549 [0x4A] Chipmy-Popmy (ID: 17760309/0x010F0035) looks at LocalPlayer
  4: 0x0552 [0x6F] WAIT_FRAME_DELAY: Yield until WaitTime reaches zero
  5: 0x0553 [0x76] CHECK_ENTITY_RENDER_FLAGS: Wait until Chipmy-Popmy (ID: 17760309/0x010F0035) Render.Flags0 and Render.Flags3 conditions are met
  6: 0x0558 [0x29] REQ_SET_WAIT(priority=0x08, entity_id=Chipmy-Popmy (ID: 17760309/0x010F0035), tag_num=0x01)
  7: 0x055F [0x2B] Chipmy-Popmy (ID: 17760309/0x010F0035) [12934*]:
    → "Ye're back, matey. What did ye find out?"
  8: 0x0566 [0x23] WAIT_FOR_DIALOG_INTERACTION
  9: 0x0567 [0x5D] SET_MUSIC_VOLUME(volume=0*, fade_time=120*)
 10: 0x056C [0x45] LOAD_SCHEDULED_TASK: Load scheduler "fdo1" with entities [EventEntity, EventEntity], work=[200*, 0*]
 11: 0x057D [0x1C] WAIT(120* ticks)
 12: 0x0580 [0x29] REQ_SET_WAIT(priority=0x08, entity_id=Chipmy-Popmy (ID: 17760309/0x010F0035), tag_num=0x02)
 13: 0x0587 [0x38] SET_CLIENT_EVENT_MODE(mode=3*)
 14: 0x058A [0x29] REQ_SET_WAIT(priority=0x08, entity_id=LocalPlayer, tag_num=0x0A)
 15: 0x0591 [0x75] LOAD_ROOM(Load indoor room, room=412*)
 16: 0x0595 [0x75] LOAD_ROOM(No action)
 17: 0x0597 [0x29] REQ_SET_WAIT(priority=0x0B, entity_id=LocalPlayer, tag_num=0x58)
 18: 0x059E [0x4A] Chipmy-Popmy (ID: 17760309/0x010F0035) looks at LocalPlayer
 19: 0x05A7 [0x4A] LocalPlayer looks at Chipmy-Popmy (ID: 17760309/0x010F0035)
 20: 0x05B0 [0x6F] WAIT_FRAME_DELAY: Yield until WaitTime reaches zero
 21: 0x05B1 [0x76] CHECK_ENTITY_RENDER_FLAGS: Wait until Chipmy-Popmy (ID: 17760309/0x010F0035) Render.Flags0 and Render.Flags3 conditions are met
 22: 0x05B6 [0x6F] WAIT_FRAME_DELAY: Yield until WaitTime reaches zero
 23: 0x05B7 [0x76] CHECK_ENTITY_RENDER_FLAGS: Wait until LocalPlayer Render.Flags0 and Render.Flags3 conditions are met
 24: 0x05BC [0x5C] MUSIC_CONTROL: Set Idle (Day) music to song 127*
 25: 0x05C0 [0x5C] MUSIC_CONTROL: Set Idle (Night) music to song 127*
 26: 0x05C4 [0x92] Thubu Parohren (ID: 17760302/0x010F002E)->Render.Flags3 ^= 0x01
 27: 0x05CA [0x92] Chipmy-Popmy (ID: 17760309/0x010F0035)->Render.Flags3 ^= 0x01
 28: 0x05D0 [0x29] REQ_SET_WAIT(priority=0x0B, entity_id=Thubu Parohren (ID: 17760302/0x010F002E), tag_num=0x07)
 29: 0x05D7 [0x66] LOAD_EXT_SCHEDULER_MAIN: Load scheduler "thk1" with entities [Thubu Parohren (ID: 17760302/0x010F002E), Thubu Parohren (ID: 17760302/0x010F002E)], work=50*
 30: 0x05E6 [0x53] WAIT_SCHEDULER_TASK: Wait for scheduler "thk1" with entities [Thubu Parohren (ID: 17760302/0x010F002E), Thubu Parohren (ID: 17760302/0x010F002E)]
 31: 0x05F3 [0x4A] LocalPlayer looks at Thubu Parohren (ID: 17760302/0x010F002E)
 32: 0x05FC [0x4A] Chipmy-Popmy (ID: 17760309/0x010F0035) looks at Thubu Parohren (ID: 17760302/0x010F002E)
 33: 0x0605 [0x6F] WAIT_FRAME_DELAY: Yield until WaitTime reaches zero
 34: 0x0606 [0x76] CHECK_ENTITY_RENDER_FLAGS: Wait until LocalPlayer Render.Flags0 and Render.Flags3 conditions are met
 35: 0x060B [0x6F] WAIT_FRAME_DELAY: Yield until WaitTime reaches zero
 36: 0x060C [0x76] CHECK_ENTITY_RENDER_FLAGS: Wait until Chipmy-Popmy (ID: 17760309/0x010F0035) Render.Flags0 and Render.Flags3 conditions are met
 37: 0x0611 [0x45] LOAD_SCHEDULED_TASK: Load scheduler "s107" with entities [EventEntity, EventEntity], work=[25*, 0*]
 38: 0x0622 [0x45] LOAD_SCHEDULED_TASK: Load scheduler "fdi1" with entities [EventEntity, EventEntity], work=[200*, 0*]
 39: 0x0633 [0x2B] Thubu Parohren (ID: 17760302/0x010F002E) [12935*]:
    → "Hrm... So this turned out to be a pirrrate's tale after all. Better for us to keep our whiskers clean of this one."
 40: 0x063A [0x23] WAIT_FOR_DIALOG_INTERACTION
 41: 0x063B [0x52] END_LOAD_SCHEDULER: End scheduler "s107" with entities [EventEntity, EventEntity], work=25*
 42: 0x064A [0x45] LOAD_SCHEDULED_TASK: Load scheduler "ovl1" with entities [LocalPlayer, LocalPlayer], work=[200*, 0*]
 43: 0x065B [0x45] LOAD_SCHEDULED_TASK: Load scheduler "s108" with entities [EventEntity, EventEntity], work=[25*, 0*]
 44: 0x066C [0x79] Thubu Parohren (ID: 17760302/0x010F002E) looks at Chipmy-Popmy (ID: 17760309/0x010F0035) (Basic look)
 45: 0x0676 [0x79] LocalPlayer looks at Chipmy-Popmy (ID: 17760309/0x010F0035) (Basic look)
 46: 0x0680 [0x66] LOAD_EXT_SCHEDULER_MAIN: Load scheduler "thk2" with entities [Thubu Parohren (ID: 17760302/0x010F002E), Thubu Parohren (ID: 17760302/0x010F002E)], work=50*
 47: 0x068F [0x29] REQ_SET_WAIT(priority=0x08, entity_id=Chipmy-Popmy (ID: 17760309/0x010F0035), tag_num=0x09)
 48: 0x0696 [0x2B] Chipmy-Popmy (ID: 17760309/0x010F0035) [12936*]:
    → "What nonsense be you speaking!? This not be the guildmaster I know!"
 49: 0x069D [0x23] WAIT_FOR_DIALOG_INTERACTION
 50: 0x069E [0x29] REQ_SET_WAIT(priority=0x08, entity_id=Chipmy-Popmy (ID: 17760309/0x010F0035), tag_num=0x0A)
 51: 0x06A5 [0x53] WAIT_SCHEDULER_TASK: Wait for scheduler "thk2" with entities [Thubu Parohren (ID: 17760302/0x010F002E), Thubu Parohren (ID: 17760302/0x010F002E)]
 52: 0x06B2 [0x29] REQ_SET_WAIT(priority=0x08, entity_id=Chipmy-Popmy (ID: 17760309/0x010F0035), tag_num=0x0F)
 53: 0x06B9 [0x2B] Chipmy-Popmy (ID: 17760309/0x010F0035) [12937*]:
    → "Ain't ye always telling us there's no place on the seas fer a coward!?"
 54: 0x06C0 [0x23] WAIT_FOR_DIALOG_INTERACTION
 55: 0x06C1 [0x29] REQ_SET_WAIT(priority=0x08, entity_id=Chipmy-Popmy (ID: 17760309/0x010F0035), tag_num=0x10)
 56: 0x06C8 [0x52] END_LOAD_SCHEDULER: End scheduler "s108" with entities [EventEntity, EventEntity], work=25*
 57: 0x06D7 [0x45] LOAD_SCHEDULED_TASK: Load scheduler "s105" with entities [EventEntity, EventEntity], work=[25*, 0*]
 58: 0x06E8 [0x79] LocalPlayer looks at Thubu Parohren (ID: 17760302/0x010F002E) (Basic look)
 59: 0x06F2 [0x2B] Thubu Parohren (ID: 17760302/0x010F002E) [12938*]:
    → "It's not the pirrrates I'm afraid of. This herrre dispute could escalate into a prrroblem between Windurst and Kazham."
 60: 0x06F9 [0x23] WAIT_FOR_DIALOG_INTERACTION
 61: 0x06FA [0x2B] Chipmy-Popmy (ID: 17760309/0x010F0035) [12939*]:
    → "You be talking daft!"
 62: 0x0701 [0x23] WAIT_FOR_DIALOG_INTERACTION
 63: 0x0702 [0x52] END_LOAD_SCHEDULER: End scheduler "s105" with entities [EventEntity, EventEntity], work=25*
 64: 0x0711 [0x45] LOAD_SCHEDULED_TASK: Load scheduler "s109" with entities [EventEntity, EventEntity], work=[25*, 0*]
 65: 0x0722 [0x2B] Thubu Parohren (ID: 17760302/0x010F002E) [12940*]:
    → "There's been ties between Windurst and the Mithran pirates for a good long while now. Little arrrguments like this one have come close to causing full-scale war."
 66: 0x0729 [0x23] WAIT_FOR_DIALOG_INTERACTION
 67: 0x072A [0x2B] Thubu Parohren (ID: 17760302/0x010F002E) [12941*]:
    → "And since none of us want to cause a warrr, I think it's best we step back and see what happens."
 68: 0x0731 [0x23] WAIT_FOR_DIALOG_INTERACTION
 69: 0x0732 [0x52] END_LOAD_SCHEDULER: End scheduler "s109" with entities [EventEntity, EventEntity], work=25*
 70: 0x0741 [0x45] LOAD_SCHEDULED_TASK: Load scheduler "ovl1" with entities [LocalPlayer, LocalPlayer], work=[200*, 0*]
 71: 0x0752 [0x02] IF !(Work_Zone[9] == 5*) GOTO 0x076E
 72: 0x075A [0x45] LOAD_SCHEDULED_TASK: Load scheduler "s106" with entities [EventEntity, EventEntity], work=[25*, 0*]
 73: 0x076B [0x01] GOTO 0x079B
 74: 0x076E [0x02] IF !(Work_Zone[9] == 6*) GOTO 0x078A
 75: 0x0776 [0x45] LOAD_SCHEDULED_TASK: Load scheduler "s106" with entities [EventEntity, EventEntity], work=[25*, 0*]
 76: 0x0787 [0x01] GOTO 0x079B
 77: 0x078A [0x45] LOAD_SCHEDULED_TASK: Load scheduler "s104" with entities [EventEntity, EventEntity], work=[25*, 0*]

SUBROUTINE_079B:
 78: 0x079B [0x7B] Thubu Parohren (ID: 17760302/0x010F002E) stops talking
 79: 0x07A0 [0x2B] Thubu Parohren (ID: 17760302/0x010F002E) [12942*]:
    → "I'm not givin' up on Purgonorgo Isle, but it's smarrrter to let the Mithran Trackers handle this."
 80: 0x07A7 [0x23] WAIT_FOR_DIALOG_INTERACTION
 81: 0x07A8 [0x79] Thubu Parohren (ID: 17760302/0x010F002E) looks at LocalPlayer (Basic look)
 82: 0x07B2 [0x66] LOAD_EXT_SCHEDULER_MAIN: Load scheduler "pas0" with entities [Thubu Parohren (ID: 17760302/0x010F002E), Thubu Parohren (ID: 17760302/0x010F002E)], work=50*
 83: 0x07C1 [0x2B] Thubu Parohren (ID: 17760302/0x010F002E) [12943*]:
    → "Well, adventurer, herrre's a little somethin' for ya trouble. Thanks for ya help."
 84: 0x07C8 [0x23] WAIT_FOR_DIALOG_INTERACTION
 85: 0x07C9 [0x5D] SET_MUSIC_VOLUME(volume=0*, fade_time=120*)
 86: 0x07CE [0x45] LOAD_SCHEDULED_TASK: Load scheduler "fdo1" with entities [LocalPlayer, LocalPlayer], work=[200*, 0*]
 87: 0x07DF [0x1C] WAIT(120* ticks)
 88: 0x07E2 [0x02] IF !(Work_Zone[9] == 5*) GOTO 0x07FC
 89: 0x07EA [0x52] END_LOAD_SCHEDULER: End scheduler "s106" with entities [EventEntity, EventEntity], work=25*
 90: 0x07F9 [0x01] GOTO 0x0825
 91: 0x07FC [0x02] IF !(Work_Zone[9] == 6*) GOTO 0x0816
 92: 0x0804 [0x52] END_LOAD_SCHEDULER: End scheduler "s106" with entities [EventEntity, EventEntity], work=25*
 93: 0x0813 [0x01] GOTO 0x0825
 94: 0x0816 [0x52] END_LOAD_SCHEDULER: End scheduler "s104" with entities [EventEntity, EventEntity], work=25*

SUBROUTINE_0825:
 95: 0x0825 [0x45] LOAD_SCHEDULED_TASK: Load scheduler "qstc" with entities [LocalPlayer, LocalPlayer], work=[201*, 0*]
 96: 0x0836 [0x5C] MUSIC_CONTROL: Set Idle (Day) music to song 151*
 97: 0x083A [0x5C] MUSIC_CONTROL: Set Idle (Night) music to song 151*
 98: 0x083E [0x4E] SET_ENTITY_HIDE_FLAG: Show LocalPlayer
 99: 0x0844 [0x80] LOAD_WAIT(entity=LocalPlayer)
100: 0x0849 [0x46] CAMERA_CONTROL: Restore default settings
101: 0x084B [0x45] LOAD_SCHEDULED_TASK: Load scheduler "fdi1" with entities [LocalPlayer, LocalPlayer], work=[200*, 0*]
102: 0x085C [0x20] SET_CLI_EVENT_UC_FLAG: Unlock player control
103: 0x085E [0x21] END_EVENT
104: 0x085F [0x00] END_REQSTACK()
```
