# 17760372 - Eugie

## Common Data

| Field            | Value                   |
|------------------|-------------------------|
| Zone             | Port Windurst (ID: 240) |
| Block Size       | 80 bytes                |
| Total Events     | 4                       |
| References Count | 3                       |

## List of Events

| Event ID                 | Entrypoint   |   Size |   Instructions |
|--------------------------|--------------|--------|----------------|
| [65535](#event-65535)    | 0x0000       |      1 |              1 |
| [65535.1](#event-655351) | 0x0001       |      1 |              1 |
| [65535.2](#event-655352) | 0x0002       |      9 |              3 |
| [351](#event-351)        | 0x000B       |     25 |             11 |

## DAT References (imed_data)

|   Index | Hex Value   |   Dec Value |
|---------|-------------|-------------|
|       0 | 0x001E      |          30 |
|       1 | 0x100E      |        4110 |
|       2 | 0x100F      |        4111 |

## String References

- **4110**: 'Tis said that red mages use magic to enchant their swords! Could they truly be so irresponsible? They would kill the noble blade!
- **4111**: The way of the sword is to cut away all that is not the sword! Superfluous feelings, wandering thoughts, and the trappings of magic have no place. Not even the sun's rays should be allowed to roam along its steel, really.

## Events

### Event 65535

#### Metadata

| Field        | Value   |
|--------------|---------|
| Entrypoint   | 0x0000  |
| Data Size    | 1 bytes |
| Instructions | 1       |

```
      00 01 02 03 04 05 06 07  08 09 0A 0B 0C 0D 0E 0F
      -- -- -- -- -- -- -- --  -- -- -- -- -- -- -- --
0000: 00                                                .               
```

#### Opcodes

```
  0: 0x0000 [0x00] END_REQSTACK()
```

### Event 65535.1

#### Metadata

| Field        | Value   |
|--------------|---------|
| Entrypoint   | 0x0001  |
| Data Size    | 1 bytes |
| Instructions | 1       |

```
      00 01 02 03 04 05 06 07  08 09 0A 0B 0C 0D 0E 0F
      -- -- -- -- -- -- -- --  -- -- -- -- -- -- -- --
0000:    00                                              .              
```

#### Opcodes

```
  0: 0x0001 [0x00] END_REQSTACK()
```

### Event 65535.2

#### Metadata

| Field        | Value   |
|--------------|---------|
| Entrypoint   | 0x0002  |
| Data Size    | 9 bytes |
| Instructions | 3       |

```
      00 01 02 03 04 05 06 07  08 09 0A 0B 0C 0D 0E 0F
      -- -- -- -- -- -- -- --  -- -- -- -- -- -- -- --
0000:       5E 69 64 6C 30 1C  00 80 00                   ^idl0....     
```

#### Opcodes

```
  0: 0x0002 [0x5E] EventEntity goes idle (kills current action) (animation: "idl0")
  1: 0x0007 [0x1C] WAIT(30* ticks)
  2: 0x000A [0x00] END_REQSTACK()
```

### Event 351

#### Metadata

| Field        | Value    |
|--------------|----------|
| Entrypoint   | 0x000B   |
| Data Size    | 25 bytes |
| Instructions | 11       |

```
      00 01 02 03 04 05 06 07  08 09 0A 0B 0C 0D 0E 0F
      -- -- -- -- -- -- -- --  -- -- -- -- -- -- -- --
0000:                                   86 00 F8 FF FF             .....
0010: 7F 1E F0 FF FF 7F 6F 70  1D 01 80 23 1D 02 80 23  ......op...#...#
0020: 20 00 21 00                                        .!.            
```

#### Opcodes

```
  0: 0x000B [0x86] EventEntity->Render.Flags3 = Flags3  // No change (flag=0)
  1: 0x0011 [0x1E] EventEntity looks at LocalPlayer and starts talking
  2: 0x0016 [0x6F] WAIT_FRAME_DELAY: Yield until WaitTime reaches zero
  3: 0x0017 [0x70] WAIT_ENTITY_RENDER_FLAG: Wait while EventEntity->Render.Flags3 bit 2 is set (cancel turn if not)
  4: 0x0018 [0x1D] PRINT_EVENT_MESSAGE(message_id=4110*)
    → "'Tis said that red mages use magic to enchant their swords! Could they truly be so irresponsible? They would kill the noble blade!"
  5: 0x001B [0x23] WAIT_FOR_DIALOG_INTERACTION
  6: 0x001C [0x1D] PRINT_EVENT_MESSAGE(message_id=4111*)
    → "The way of the sword is to cut away all that is not the sword! Superfluous feelings, wandering thoughts, and the trappings of magic have no place. Not even the sun's rays should be allowed to roam along its steel, really."
  7: 0x001F [0x23] WAIT_FOR_DIALOG_INTERACTION
  8: 0x0020 [0x20] SET_CLI_EVENT_UC_FLAG: Unlock player control
  9: 0x0022 [0x21] END_EVENT
 10: 0x0023 [0x00] END_REQSTACK()
```
