# 17760265 - PRODUCER

## Common Data

| Field            | Value                   |
|------------------|-------------------------|
| Zone             | Port Windurst (ID: 240) |
| Block Size       | 11804 bytes             |
| Total Events     | 39                      |
| References Count | 212                     |

## List of Events

| Event ID                   | Entrypoint   |   Size |   Instructions |
|----------------------------|--------------|--------|----------------|
| [65535](#event-65535)      | 0x0000       |      1 |              1 |
| [11](#event-11)            | 0x0001       |    132 |             26 |
| [65535.1](#event-655351)   | 0x0085       |    174 |             32 |
| [65535.2](#event-655352)   | 0x0133       |    368 |             67 |
| [65535.3](#event-655353)   | 0x02A3       |    156 |             32 |
| [65535.4](#event-655354)   | 0x033F       |    132 |             30 |
| [65535.5](#event-655355)   | 0x03C3       |    148 |             33 |
| [65535.6](#event-655356)   | 0x0457       |    132 |             30 |
| [65535.7](#event-655357)   | 0x04DB       |    164 |             36 |
| [65535.8](#event-655358)   | 0x057F       |    180 |             39 |
| [65535.9](#event-655359)   | 0x0633       |    116 |             27 |
| [65535.10](#event-6553510) | 0x06A7       |    116 |             27 |
| [65535.11](#event-6553511) | 0x071B       |    116 |             27 |
| [65535.12](#event-6553512) | 0x078F       |    116 |             27 |
| [65535.13](#event-6553513) | 0x0803       |    132 |             30 |
| [65535.14](#event-6553514) | 0x0887       |    112 |             25 |
| [65535.15](#event-6553515) | 0x08F7       |    160 |             34 |
| [65535.16](#event-6553516) | 0x0997       |    116 |             27 |
| [65535.17](#event-6553517) | 0x0A0B       |    116 |             27 |
| [65535.18](#event-6553518) | 0x0A7F       |    116 |             27 |
| [65535.19](#event-6553519) | 0x0AF3       |     44 |             11 |
| [305](#event-305)          | 0x0B1F       |   1891 |            258 |
| [306](#event-306)          | 0x1282       |    194 |             19 |
| [307](#event-307)          | 0x1344       |    184 |             16 |
| [308](#event-308)          | 0x13FC       |    125 |             21 |
| [309](#event-309)          | 0x1479       |    120 |             14 |
| [310](#event-310)          | 0x14F1       |     71 |              9 |
| [311](#event-311)          | 0x1538       |     25 |              3 |
| [312](#event-312)          | 0x1551       |    178 |             16 |
| [313](#event-313)          | 0x1603       |    285 |             25 |
| [324](#event-324)          | 0x1720       |      1 |              1 |
| [323](#event-323)          | 0x1721       |      1 |              1 |
| [386](#event-386)          | 0x1722       |      1 |              1 |
| [390](#event-390)          | 0x1723       |      1 |              1 |
| [432](#event-432)          | 0x1724       |      1 |              1 |
| [433](#event-433)          | 0x1725       |      1 |              1 |
| [534](#event-534)          | 0x1726       |   2454 |            298 |
| [542](#event-542)          | 0x20BC       |   2392 |            291 |
| [584](#event-584)          | 0x2A14       |     12 |              3 |

## DAT References (imed_data)

|   Index | Hex Value   |   Dec Value |
|---------|-------------|-------------|
|       0 | 0x1131      |        4401 |
|       1 | 0x0000      |           0 |
|       2 | 0x0001      |           1 |
|       3 | 0x0002      |           2 |
|       4 | 0x0003      |           3 |
|       5 | 0x0067      |         103 |
|       6 | 0x0004      |           4 |
|       7 | 0x0066      |         102 |
|       8 | 0x0005      |           5 |
|       9 | 0x0064      |         100 |
|      10 | 0x0006      |           6 |
|      11 | 0x1132      |        4402 |
|      12 | 0x0007      |           7 |
|      13 | 0x0008      |           8 |
|      14 | 0x2B6F      |       11119 |
|      15 | 0x0009      |           9 |
|      16 | 0x000A      |          10 |
|      17 | 0x000B      |          11 |
|      18 | 0x000C      |          12 |
|      19 | 0x000D      |          13 |
|      20 | 0x000E      |          14 |
|      21 | 0x000F      |          15 |
|      22 | 0x0010      |          16 |
|      23 | 0x005F      |          95 |
|      24 | 0x0011      |          17 |
|      25 | 0x00CD      |         205 |
|      26 | 0x0012      |          18 |
|      27 | 0x0063      |          99 |
|      28 | 0x0013      |          19 |
|      29 | 0x2B6C      |       11116 |
|      30 | 0x2B80      |       11136 |
|      31 | 0x012C      |         300 |
|      32 | 0x012D      |         301 |
|      33 | 0x012E      |         302 |
|      34 | 0x012F      |         303 |
|      35 | 0x0130      |         304 |
|      36 | 0x0131      |         305 |
|      37 | 0x0132      |         306 |
|      38 | 0x0133      |         307 |
|      39 | 0x0134      |         308 |
|      40 | 0x2B70      |       11120 |
|      41 | 0x2B6B      |       11115 |
|      42 | 0x2B71      |       11121 |
|      43 | 0x0014      |          20 |
|      44 | 0x006D      |         109 |
|      45 | 0x0015      |          21 |
|      46 | 0x0016      |          22 |
|      47 | 0x2B72      |       11122 |
|      48 | 0x0017      |          23 |
|      49 | 0x0018      |          24 |
|      50 | 0x0019      |          25 |
|      51 | 0x001A      |          26 |
|      52 | 0x0060      |          96 |
|      53 | 0x001B      |          27 |
|      54 | 0x2B73      |       11123 |
|      55 | 0x001C      |          28 |
|      56 | 0x001D      |          29 |
|      57 | 0x001E      |          30 |
|      58 | 0x0061      |          97 |
|      59 | 0x001F      |          31 |
|      60 | 0x0020      |          32 |
|      61 | 0x0021      |          33 |
|      62 | 0x0022      |          34 |
|      63 | 0x2B74      |       11124 |
|      64 | 0x0025      |          37 |
|      65 | 0x0026      |          38 |
|      66 | 0x0027      |          39 |
|      67 | 0x0069      |         105 |
|      68 | 0x0028      |          40 |
|      69 | 0x006A      |         106 |
|      70 | 0x0029      |          41 |
|      71 | 0x002A      |          42 |
|      72 | 0x002B      |          43 |
|      73 | 0x2B75      |       11125 |
|      74 | 0x002D      |          45 |
|      75 | 0x002E      |          46 |
|      76 | 0x002F      |          47 |
|      77 | 0x0030      |          48 |
|      78 | 0x006E      |         110 |
|      79 | 0x2B77      |       11127 |
|      80 | 0x0032      |          50 |
|      81 | 0x0033      |          51 |
|      82 | 0x0034      |          52 |
|      83 | 0x0035      |          53 |
|      84 | 0x0036      |          54 |
|      85 | 0x2B78      |       11128 |
|      86 | 0x0037      |          55 |
|      87 | 0x0038      |          56 |
|      88 | 0x0039      |          57 |
|      89 | 0x003A      |          58 |
|      90 | 0x003B      |          59 |
|      91 | 0x2B7B      |       11131 |
|      92 | 0x003C      |          60 |
|      93 | 0x003D      |          61 |
|      94 | 0x003E      |          62 |
|      95 | 0x003F      |          63 |
|      96 | 0x0040      |          64 |
|      97 | 0x2B7C      |       11132 |
|      98 | 0x0041      |          65 |
|      99 | 0x0042      |          66 |
|     100 | 0x0043      |          67 |
|     101 | 0x0044      |          68 |
|     102 | 0x0045      |          69 |
|     103 | 0x006C      |         108 |
|     104 | 0x2B7D      |       11133 |
|     105 | 0x0046      |          70 |
|     106 | 0x0070      |         112 |
|     107 | 0x0047      |          71 |
|     108 | 0x0048      |          72 |
|     109 | 0x0049      |          73 |
|     110 | 0x2B7E      |       11134 |
|     111 | 0x004A      |          74 |
|     112 | 0x0071      |         113 |
|     113 | 0x004B      |          75 |
|     114 | 0x006B      |         107 |
|     115 | 0x006F      |         111 |
|     116 | 0x004C      |          76 |
|     117 | 0x004D      |          77 |
|     118 | 0x0072      |         114 |
|     119 | 0x2B7F      |       11135 |
|     120 | 0x004E      |          78 |
|     121 | 0x004F      |          79 |
|     122 | 0x0050      |          80 |
|     123 | 0x0051      |          81 |
|     124 | 0x0052      |          82 |
|     125 | 0x2B79      |       11129 |
|     126 | 0x0053      |          83 |
|     127 | 0x0054      |          84 |
|     128 | 0x0055      |          85 |
|     129 | 0x0056      |          86 |
|     130 | 0x0057      |          87 |
|     131 | 0x2B7A      |       11130 |
|     132 | 0x0058      |          88 |
|     133 | 0x0059      |          89 |
|     134 | 0x005A      |          90 |
|     135 | 0x005B      |          91 |
|     136 | 0x005C      |          92 |
|     137 | 0x2B76      |       11126 |
|     138 | 0x005D      |          93 |
|     139 | 0x005E      |          94 |
|     140 | 0x0097      |         151 |
|     141 | 0xFFFD175F  |  4294776671 |
|     142 | 0x22EC3     |      143043 |
|     143 | 0xFFFFF6AF  |  4294964911 |
|     144 | 0x0DEE      |        3566 |
|     145 | 0x00EF      |         239 |
|     146 | 0x008B      |         139 |
|     147 | 0x00C8      |         200 |
|     148 | 0x2C22      |       11298 |
|     149 | 0x0154      |         340 |
|     150 | 0x2C23      |       11299 |
|     151 | 0x2C24      |       11300 |
|     152 | 0x0078      |         120 |
|     153 | 0x2C25      |       11301 |
|     154 | 0x2C26      |       11302 |
|     155 | 0x2C27      |       11303 |
|     156 | 0x0082      |         130 |
|     157 | 0x2C28      |       11304 |
|     158 | 0x00B4      |         180 |
|     159 | 0x2C29      |       11305 |
|     160 | 0x2C2A      |       11306 |
|     161 | 0x00F0      |         240 |
|     162 | 0x008C      |         140 |
|     163 | 0x0F15      |        3861 |
|     164 | 0x0F16      |        3862 |
|     165 | 0x0F1B      |        3867 |
|     166 | 0x0F1D      |        3869 |
|     167 | 0x0F21      |        3873 |
|     168 | 0x0F22      |        3874 |
|     169 | 0x0F23      |        3875 |
|     170 | 0x0F24      |        3876 |
|     171 | 0x0F25      |        3877 |
|     172 | 0x0F28      |        3880 |
|     173 | 0x0F2E      |        3886 |
|     174 | 0x0A28      |        2600 |
|     175 | 0x0F3B      |        3899 |
|     176 | 0x0FA0      |        4000 |
|     177 | 0x0588      |        1416 |
|     178 | 0x007F      |         127 |
|     179 | 0x00F7      |         247 |
|     180 | 0x311C      |       12572 |
|     181 | 0x311D      |       12573 |
|     182 | 0x311E      |       12574 |
|     183 | 0x311F      |       12575 |
|     184 | 0x00C9      |         201 |
|     185 | 0x00A1      |         161 |
|     186 | 0x07E8      |        2024 |
|     187 | 0x30E5      |       12517 |
|     188 | 0x30E6      |       12518 |
|     189 | 0x30E8      |       12520 |
|     190 | 0x30EA      |       12522 |
|     191 | 0x30EB      |       12523 |
|     192 | 0x30ED      |       12525 |
|     193 | 0x30EE      |       12526 |
|     194 | 0x30EF      |       12527 |
|     195 | 0x30F0      |       12528 |
|     196 | 0x30F2      |       12530 |
|     197 | 0x30F4      |       12532 |
|     198 | 0x30F5      |       12533 |
|     199 | 0x30F6      |       12534 |
|     200 | 0x30F7      |       12535 |
|     201 | 0x30F8      |       12536 |
|     202 | 0x30F9      |       12537 |
|     203 | 0x30FA      |       12538 |
|     204 | 0x3120      |       12576 |
|     205 | 0x3121      |       12577 |
|     206 | 0x3124      |       12580 |
|     207 | 0x3125      |       12581 |
|     208 | 0x3126      |       12582 |
|     209 | 0xFFFF8EB8  |  4294938296 |
|     210 | 0x2E472     |      189554 |
|     211 | 0xFFFFE0C3  |  4294959299 |

## String References

- **3873**: Are you new to Windurst? [Yes./No.]
- **3880**: Ask for advice on... [How to go outside and battle./Where to shop./How to gain information./Where am I? Who am I?]
- **3899**: Ask for information on...? [Helping people./Monster patrol./Easy money./Looking for work.]
- **4401**: PRODUCER'S DEBUG MENU! [ OPENING EVENTS./MISSIONS./WARP./SAW OPENING EVENTS./CHEAT THE FAME GAME./RESET ALL$26INITIALIZE./EX MISSIONS]
- **4402**: WARP TO WHERE? [FISHERMEN'S GUILD./SHOPS./AIR TRAVEL AGENCY./STREET VENDORS./KIDS./WAREHOUSE./CONSULATE OF BASTOK./ORASTERY (FRONT)./ORASTERY (BACK).]
- **11115**: Abracadabra!
- **11116**: Oh no! Your Adventurers' certificate vanished!
- **11119**: GL$3~$3b$3V$3 $3$2HL6aH [$802838 [$E$3L$P11e$@1v/u1-2:$3J$3J$3VL$P10Sv/u1-3:$P15=%aL=_Iv/$1117995v/u2-2:$141L$s$P15{v/u2-3:$O$P11e [-$17v/u2-3:$P11<$17V1bv/u2-3:$P11<$17V2bv/u2-3:$P11<$17V1av/u2-3:$P11<$17V2av/u3-1:$P11N%'v/u3-2:$P10/$P13G]v/$4719165i%7%'?v/u5-1:$EcLl$4v/u5-2:$P10"$EL%JDE$P11RB$Rv/u2-3_609:3$17$4h)g$P16_AD+=v/u600:$3$3C$3I$3$2?aq$3t$3@[$3X$3g$3C$3$3p$3N$3gv/100000 gil, please/ZONEp<Player>j$P13xE\`$o=1FI7i/All reset!]
- **11120**: m101$3t$3$3O%'DiE$3U[$3}$3XH [@OK$3t$3$3O/START$3t$3$3O/{L%@$sA=$3t$3$3O/$2$P16@$3$sA=$3t$3$3O/$2$P139 [$5$P13n5=$3t$3$3O/END$P12<c$3t$3$3O/All reset!]
- **11121**: m102$3t$3$3O%'DiE$3U[$3}$3XH [@OK$3t$3$3O/START$3t$3$3O/{L%@$sA=$3t$3$3O/$2$P16@$3$sA=$3t$3$3O/$P11S$20;k&D$0q>h$3$1[$3v/$2$P139 [$5$3J$3J$3VI$P13n5=$3t$3$3O/END$P12<c$3t$3$3O/All reset!]
- **11122**: m103$3t$3$3O%'DiE$3U[$3}$3XH [@OK$3t$3$3O/START$3t$3$3O/$P122%$3M$3 [$3h$sA=$3t$3$3O/$3M$3f$3A$3X$sA=$3t$3$3O/$P15@L%@Lp)=/END$P12<c$3t$3$3O/All reset!]
- **11123**: m201$3t$3$3O%'DiE$3U[$3}$3XH [@OK$3t$3$3O/START$3t$3$3O/$P16ZL%@$sA=$3t$3$3O/\`f\`_GET$3t$3$3O/$3J$3MGET$3t$3$3O/$2$P16@$3$3C$3x$3$3g$I%9$3t$3$3O/$"$+$mL%F$3C$3x$3$3g$I%9$3t$3$3O/END$P12<c$3t$3$3O/All reset!]
- **11124**: m202$3t$3$3O%'DiE$3U[$3}$3XH [@OK$3t$3$3O/START$3t$3$3O/$(L%@$sA=$3t$3$3O/$3^$3$3$3M$P11e [,$P12J$8$P14s/$3^$3$3$3M$P11e [,$P12J(TIME6$1%q5{100$P15C)/$3p$3$3X$3e$3B$3i$P16&$8$P14s/$3p$3$3X$3e$3B$3i$P16&(TIME6$1%q5{100$P15C)/$141$/OK$3t$3$3O/END$P12<c$3t$3$3O/All reset!]
- **11125**: m203$3t$3$3O%'DiE$3U[$3}$3XH [@OK$3t$3$3O/START$3t$3$3O/$P13VL$3$sA=$3t$3$3O/END$P12<c$3t$3$3O/$3T$3$3h$3$3A$sAD+=/All reset!]
- **11126**: @m203_609$3t$3$3O%'DiE$3U[$3}$3XH [@OK$3t$3$3O/$P15P$P15{5)$3N$3$3A$5"]
- **11127**: @m203_1Bi1%q$P16Zj$3t$3$3O%'DiE$3U[$3}$3XH [@OK$3t$3$3O/@$3o$3X$3g$3D[$3N%L$22$Y$sA=$3t$3$3O/$201548$sA=$3t$3$3O/@$3M$3f$3A$3Xlv2$sA=$3t$3$3O/@END$P12<c$3t$3$3O/@All reset!]
- **11128**: @m203_2Bi2%q$P16Zj$3t$3$3O%'DiE$3U[$3}$3XH [@OK$3t$3$3O/@$3o$3X$3g$3D[$3N%L$22$Y$sA=$3t$3$3O/$201548$sA=$3t$3$3O/@$3M$3f$3A$3Xlv3$sA=$3t$3$3O/@END$P12<c$3t$3$3O/@All reset!]
- **11129**: m203_1A(1%q$P16Z)$3t$3$3O%'DiE$3U[$3}$3XH [@OK$3t$3$3O/$3T$3$3h$3$3A%L$22$Y$sA=$3t$3$3O"$7L$2p$hI$P13|j=>//$3M$3f$3A$3Xlv2E$2$P16@$2p$P14[_=>//END$P12<c$3t$3$3O/All reset!]
- **11130**: m203_2A(2%q$P16Z)$3t$3$3O%'DiE$3U[$3}$3XH [@OK$3t$3$3O/$3T$3$3h$3$3A%L$22$Y$sA=$3t$3$3O/$P13VL$3$sA=$3t$3$3O/$3M$3f$3A$3Xlv3$sA=$3t$3$3O/END$P12<c$3t$3$3O/All reset!]
- **11131**: m301$3t$3$3O%'DiE$3U[$3}$3XH [@OK$3t$3$3O/START$3t$3$3O/$P13VL$3$sA=$3t$3$3O/$3I$3Y$3g$3$3$4$sA=$3t$3$3O/END$P12<c$3t$3$3O/All reset!]
- **11132**: m302$3t$3$3O%'DiE$3U[$3}$3XH [@OK$3t$3$3O/START$3t$3$3O/$P13VL$3$sA=$3t$3$3O/$2$P16@$3Q$sA=$3t$3$3O/END$P12<c$3t$3$3O"%q$P16Z$/=$3t$3$3O/All reset!]
- **11133**: m303$3t$3$3O%'DiE$3U[$3}$3XH [@OK$3t$3$3O"02$3N$3$3A$5"/START$3t$3$3O/$P13VL$3$sA=$3t$3$3O/$3998273$3t$3$3O/END$P12<c$3t$3$3O/All reset!]
- **11134**: m501$3t$3$3O%'DiE$3U[$3}$3XH [@OK$3t$3$3O/OK$3t$3$3O(MS3-2$6423136ADH")/$P13VL$3$sA=$3t$3$3O/$P13VL$3$sA=/G$P12fA=$3t$3$3O/$3K$7540293/=$3t$3$3O/$3t$3F$3C$3$13sA=$3t$3$3O/END$P12<c$3t$3$3O/11E3-2p$s/=gci$2$P13!%pj/All reset!]
- **11135**: m502$3t$3$3O%'DiE$3U[$3}$3XH [@OK$3t$3$3O/START/$P13VL$3$sA=$3t$3$3O/$3Y$3$3@$3998273$3t$3$3O/END$P12<c$3t$3$3O/All reset!]
- **11136**: ex [u6-1:v$P12<$P11O/u6-2:v$P12<$P11O/u7-1:v$P12<$P11O/u7-2:v$P12<$P11O/u8-1:v$P12<$P11O/u8-2:v$P12<$P11O/u9-1:v$P12<$P11O/u9-2:v$P12<$P11O/u9-2:$6816365]
- **11298**: V $3P The Federation of Windurst... An ancient capital nurtured by the boughs of a great tree, blessed by magical waters, and protected by the moon and stars.
- **11299**: d $3TThere is a legend in this country. In a time forgotten, a people forced to wander by starvation and cold were led to this land by a wondrous star.
- **11300**: R $3TWhen that star returned to the heavens, it sent to the earth a spiritual medium, the first Star Sibyl, who could hear its voice. She promised Windurst glory and prosperity.
- **11301**: \\ $3TWith each passing eon, the people came to excel at magic more and more, giving Windurst far greater wisdom and power.
- **11302**: ^ $3TFive ministries, each specializing in a school of knowledge, became politically influential institutions. This elevated Windurst to become a city of academics.
- **11303**: a $3TIn recent years, new bonds were made with the roaming tribes of Mithra, causing Windurst to become even bigger than before.
- **11304**: W $3TBut the people's wish remains unchanged... Lasting peace... Eternal tranquility... Under the watch of the far-off stars.
- **11305**: $34 And now, a new star of hope has been borne to this earth...
- **11306**: ^ $34 What is about to begin here is an enduring tale, woven by that star...

## Events

### Event 65535

#### Metadata

| Field        | Value   |
|--------------|---------|
| Entrypoint   | 0x0000  |
| Data Size    | 1 bytes |
| Instructions | 1       |

```
      00 01 02 03 04 05 06 07  08 09 0A 0B 0C 0D 0E 0F
      -- -- -- -- -- -- -- --  -- -- -- -- -- -- -- --
0000: 00                                                .               
```

#### Opcodes

```
  0: 0x0000 [0x00] END_REQSTACK()
```

### Event 11

#### Metadata

| Field        | Value     |
|--------------|-----------|
| Entrypoint   | 0x0001    |
| Data Size    | 132 bytes |
| Instructions | 26        |

```
      00 01 02 03 04 05 06 07  08 09 0A 0B 0C 0D 0E 0F
      -- -- -- -- -- -- -- --  -- -- -- -- -- -- -- --
0000:    24 00 80 01 80 01 80  25 02 00 10 01 80 00 1B   $......%.......
0010: 00 29 0E 09 00 0F 01 15  01 81 00 02 00 10 02 80  .)..............
0020: 00 2D 00 29 0E 09 00 0F  01 03 01 81 00 02 00 10  .-.)............
0030: 03 80 00 3F 00 29 0E 09  00 0F 01 02 01 81 00 02  ...?.)..........
0040: 00 10 04 80 00 4F 00 03  01 10 05 80 01 81 00 02  .....O..........
0050: 00 10 06 80 00 5F 00 03  01 10 07 80 01 81 00 02  ....._..........
0060: 00 10 08 80 00 6F 00 03  01 10 09 80 01 81 00 02  .....o..........
0070: 00 10 0A 80 00 81 00 29  0E 09 00 0F 01 04 01 81  .......)........
0080: 00 20 00 21 00                                    . .!.           
```

#### Opcodes

```
  0: 0x0001 [0x24] CREATE_DIALOG(message_id=4401*, default_option=0*, option_flags=0*)
    → "PRODUCER'S DEBUG MENU! [ OPENING EVENTS./MISSIONS./WARP./SAW OPENING EVENTS./CHEAT THE FAME GAME./RESET ALL$26INITIALIZE./EX MISSIONS]"
  1: 0x0008 [0x25] WAIT_DIALOG_SELECT()
  2: 0x0009 [0x02] IF !(Work_Zone[0] == 0*) GOTO 0x001B
  3: 0x0011 [0x29] REQ_SET_WAIT(priority=0x0E, entity_id=PRODUCER (ID: 17760265/0x010F0009), tag_num=0x15)
  4: 0x0018 [0x01] GOTO 0x0081
  5: 0x001B [0x02] IF !(Work_Zone[0] == 1*) GOTO 0x002D
  6: 0x0023 [0x29] REQ_SET_WAIT(priority=0x0E, entity_id=PRODUCER (ID: 17760265/0x010F0009), tag_num=0x03)
  7: 0x002A [0x01] GOTO 0x0081
  8: 0x002D [0x02] IF !(Work_Zone[0] == 2*) GOTO 0x003F
  9: 0x0035 [0x29] REQ_SET_WAIT(priority=0x0E, entity_id=PRODUCER (ID: 17760265/0x010F0009), tag_num=0x02)
 10: 0x003C [0x01] GOTO 0x0081
 11: 0x003F [0x02] IF !(Work_Zone[0] == 3*) GOTO 0x004F
 12: 0x0047 [0x03] Work_Zone[1] = 103*
 13: 0x004C [0x01] GOTO 0x0081
 14: 0x004F [0x02] IF !(Work_Zone[0] == 4*) GOTO 0x005F
 15: 0x0057 [0x03] Work_Zone[1] = 102*
 16: 0x005C [0x01] GOTO 0x0081
 17: 0x005F [0x02] IF !(Work_Zone[0] == 5*) GOTO 0x006F
 18: 0x0067 [0x03] Work_Zone[1] = 100*
 19: 0x006C [0x01] GOTO 0x0081
 20: 0x006F [0x02] IF !(Work_Zone[0] == 6*) GOTO 0x0081
 21: 0x0077 [0x29] REQ_SET_WAIT(priority=0x0E, entity_id=PRODUCER (ID: 17760265/0x010F0009), tag_num=0x04)
 22: 0x007E [0x01] GOTO 0x0081

SUBROUTINE_0081:
 23: 0x0081 [0x20] SET_CLI_EVENT_UC_FLAG: Unlock player control
 24: 0x0083 [0x21] END_EVENT
 25: 0x0084 [0x00] END_REQSTACK()
```

### Event 65535.1

#### Metadata

| Field        | Value     |
|--------------|-----------|
| Entrypoint   | 0x0085    |
| Data Size    | 174 bytes |
| Instructions | 32        |

```
      00 01 02 03 04 05 06 07  08 09 0A 0B 0C 0D 0E 0F
      -- -- -- -- -- -- -- --  -- -- -- -- -- -- -- --
0080:                24 0B 80  01 80 01 80 25 02 00 10       $......%...
0090: 01 80 00 9F 00 29 09 F0  FF FF 7F 1A 01 2F 01 02  .....)......./..
00A0: 00 10 02 80 00 B1 00 29  09 F0 FF FF 7F 1B 01 2F  .......)......./
00B0: 01 02 00 10 03 80 00 C3  00 29 09 F0 FF FF 7F 1C  .........)......
00C0: 01 2F 01 02 00 10 04 80  00 D5 00 29 09 F0 FF FF  ./.........)....
00D0: 7F 1D 01 2F 01 02 00 10  06 80 00 E7 00 29 09 F0  .../.........)..
00E0: FF FF 7F 1E 01 2F 01 02  00 10 08 80 00 F9 00 29  ...../.........)
00F0: 09 F0 FF FF 7F 1F 01 2F  01 02 00 10 0A 80 00 0B  ......./........
0100: 01 29 09 F0 FF FF 7F 20  01 2F 01 02 00 10 0C 80  .)..... ./......
0110: 00 1D 01 29 09 F0 FF FF  7F 21 01 2F 01 02 00 10  ...).....!./....
0120: 0D 80 00 2F 01 29 09 F0  FF FF 7F 22 01 2F 01 20  .../.)....."./. 
0130: 00 21 00                                          .!.             
```

#### Opcodes

```
  0: 0x0085 [0x24] CREATE_DIALOG(message_id=4402*, default_option=0*, option_flags=0*)
    → "WARP TO WHERE? [FISHERMEN'S GUILD./SHOPS./AIR TRAVEL AGENCY./STREET VENDORS./KIDS./WAREHOUSE./CONSULATE OF BASTOK./ORASTERY (FRONT)./ORASTERY (BACK).]"
  1: 0x008C [0x25] WAIT_DIALOG_SELECT()
  2: 0x008D [0x02] IF !(Work_Zone[0] == 0*) GOTO 0x009F
  3: 0x0095 [0x29] REQ_SET_WAIT(priority=0x09, entity_id=LocalPlayer, tag_num=0x1A)
  4: 0x009C [0x01] GOTO 0x012F
  5: 0x009F [0x02] IF !(Work_Zone[0] == 1*) GOTO 0x00B1
  6: 0x00A7 [0x29] REQ_SET_WAIT(priority=0x09, entity_id=LocalPlayer, tag_num=0x1B)
  7: 0x00AE [0x01] GOTO 0x012F
  8: 0x00B1 [0x02] IF !(Work_Zone[0] == 2*) GOTO 0x00C3
  9: 0x00B9 [0x29] REQ_SET_WAIT(priority=0x09, entity_id=LocalPlayer, tag_num=0x1C)
 10: 0x00C0 [0x01] GOTO 0x012F
 11: 0x00C3 [0x02] IF !(Work_Zone[0] == 3*) GOTO 0x00D5
 12: 0x00CB [0x29] REQ_SET_WAIT(priority=0x09, entity_id=LocalPlayer, tag_num=0x1D)
 13: 0x00D2 [0x01] GOTO 0x012F
 14: 0x00D5 [0x02] IF !(Work_Zone[0] == 4*) GOTO 0x00E7
 15: 0x00DD [0x29] REQ_SET_WAIT(priority=0x09, entity_id=LocalPlayer, tag_num=0x1E)
 16: 0x00E4 [0x01] GOTO 0x012F
 17: 0x00E7 [0x02] IF !(Work_Zone[0] == 5*) GOTO 0x00F9
 18: 0x00EF [0x29] REQ_SET_WAIT(priority=0x09, entity_id=LocalPlayer, tag_num=0x1F)
 19: 0x00F6 [0x01] GOTO 0x012F
 20: 0x00F9 [0x02] IF !(Work_Zone[0] == 6*) GOTO 0x010B
 21: 0x0101 [0x29] REQ_SET_WAIT(priority=0x09, entity_id=LocalPlayer, tag_num=0x20)
 22: 0x0108 [0x01] GOTO 0x012F
 23: 0x010B [0x02] IF !(Work_Zone[0] == 7*) GOTO 0x011D
 24: 0x0113 [0x29] REQ_SET_WAIT(priority=0x09, entity_id=LocalPlayer, tag_num=0x21)
 25: 0x011A [0x01] GOTO 0x012F
 26: 0x011D [0x02] IF !(Work_Zone[0] == 8*) GOTO 0x012F
 27: 0x0125 [0x29] REQ_SET_WAIT(priority=0x09, entity_id=LocalPlayer, tag_num=0x22)
 28: 0x012C [0x01] GOTO 0x012F

SUBROUTINE_012F:
 29: 0x012F [0x20] SET_CLI_EVENT_UC_FLAG: Unlock player control
 30: 0x0131 [0x21] END_EVENT
 31: 0x0132 [0x00] END_REQSTACK()
```

### Event 65535.2

#### Metadata

| Field        | Value     |
|--------------|-----------|
| Entrypoint   | 0x0133    |
| Data Size    | 368 bytes |
| Instructions | 67        |

```
      00 01 02 03 04 05 06 07  08 09 0A 0B 0C 0D 0E 0F
      -- -- -- -- -- -- -- --  -- -- -- -- -- -- -- --
0130:          24 0E 80 01 80  01 80 25 02 00 10 01 80     $......%.....
0140: 00 4D 01 29 0A 09 00 0F  01 05 01 9F 02 02 00 10  .M.)............
0150: 02 80 00 5F 01 29 0A 09  00 0F 01 06 01 9F 02 02  ..._.)..........
0160: 00 10 03 80 00 71 01 29  0A 09 00 0F 01 07 01 9F  .....q.)........
0170: 02 02 00 10 04 80 00 83  01 29 0A 09 00 0F 01 08  .........)......
0180: 01 9F 02 02 00 10 06 80  00 95 01 29 0A 09 00 0F  ...........)....
0190: 01 09 01 9F 02 02 00 10  08 80 00 A7 01 29 0A 09  .............)..
01A0: 00 0F 01 0A 01 9F 02 02  00 10 0A 80 00 B9 01 29  ...............)
01B0: 0A 09 00 0F 01 0B 01 9F  02 02 00 10 0C 80 00 CB  ................
01C0: 01 29 0A 09 00 0F 01 0C  01 9F 02 02 00 10 0D 80  .)..............
01D0: 00 DD 01 29 0A 09 00 0F  01 12 01 9F 02 02 00 10  ...)............
01E0: 0F 80 00 EF 01 29 0A 09  00 0F 01 13 01 9F 02 02  .....)..........
01F0: 00 10 10 80 00 01 02 29  0A 09 00 0F 01 0D 01 9F  .......)........
0200: 02 02 00 10 11 80 00 13  02 29 0A 09 00 0F 01 0E  .........)......
0210: 01 9F 02 02 00 10 12 80  00 25 02 29 0A 09 00 0F  .........%.)....
0220: 01 0F 01 9F 02 02 00 10  13 80 00 37 02 29 0A 09  ...........7.)..
0230: 00 0F 01 10 01 9F 02 02  00 10 14 80 00 49 02 29  .............I.)
0240: 0A 09 00 0F 01 11 01 9F  02 02 00 10 15 80 00 5B  ...............[
0250: 02 29 0A 09 00 0F 01 14  01 9F 02 02 00 10 16 80  .)..............
0260: 00 6B 02 03 01 10 17 80  01 9F 02 02 00 10 18 80  .k..............
0270: 00 7B 02 03 01 10 19 80  01 9F 02 02 00 10 1A 80  .{..............
0280: 00 8B 02 03 01 10 1B 80  01 9F 02 02 00 10 1C 80  ................
0290: 00 9F 02 1D 1D 80 23 03  01 10 09 80 01 9F 02 20  ......#........ 
02A0: 00 21 00                                          .!.             
```

#### Opcodes

```
  0: 0x0133 [0x24] CREATE_DIALOG(message_id=11119*, default_option=0*, option_flags=0*)
    → "GL$3~$3b$3V$3 $3$2HL6aH [$802838 [$E$3L$P11e$@1v/u1-2:$3J$3J$3VL$P10Sv/u1-3:$P15=%aL=_Iv/$1117995v/u2-2:$141L$s$P15{v/u2-3:$O$P11e [-$17v/u2-3:$P11<$17V1bv/u2-3:$P11<$17V2bv/u2-3:$P11<$17V1av/u2-3:$P11<$17V2av/u3-1:$P11N%'v/u3-2:$P10/$P13G]v/$4719165i%7%'?v/u5-1:$EcLl$4v/u5-2:$P10"$EL%JDE$P11RB$Rv/u2-3_609:3$17$4h)g$P16_AD+=v/u600:$3$3C$3I$3$2?aq$3t$3@[$3X$3g$3C$3$3p$3N$3gv/100000 gil, please/ZONEp<Player>j$P13xE`$o=1FI7i/All reset!]"
  1: 0x013A [0x25] WAIT_DIALOG_SELECT()
  2: 0x013B [0x02] IF !(Work_Zone[0] == 0*) GOTO 0x014D
  3: 0x0143 [0x29] REQ_SET_WAIT(priority=0x0A, entity_id=PRODUCER (ID: 17760265/0x010F0009), tag_num=0x05)
  4: 0x014A [0x01] GOTO 0x029F
  5: 0x014D [0x02] IF !(Work_Zone[0] == 1*) GOTO 0x015F
  6: 0x0155 [0x29] REQ_SET_WAIT(priority=0x0A, entity_id=PRODUCER (ID: 17760265/0x010F0009), tag_num=0x06)
  7: 0x015C [0x01] GOTO 0x029F
  8: 0x015F [0x02] IF !(Work_Zone[0] == 2*) GOTO 0x0171
  9: 0x0167 [0x29] REQ_SET_WAIT(priority=0x0A, entity_id=PRODUCER (ID: 17760265/0x010F0009), tag_num=0x07)
 10: 0x016E [0x01] GOTO 0x029F
 11: 0x0171 [0x02] IF !(Work_Zone[0] == 3*) GOTO 0x0183
 12: 0x0179 [0x29] REQ_SET_WAIT(priority=0x0A, entity_id=PRODUCER (ID: 17760265/0x010F0009), tag_num=0x08)
 13: 0x0180 [0x01] GOTO 0x029F
 14: 0x0183 [0x02] IF !(Work_Zone[0] == 4*) GOTO 0x0195
 15: 0x018B [0x29] REQ_SET_WAIT(priority=0x0A, entity_id=PRODUCER (ID: 17760265/0x010F0009), tag_num=0x09)
 16: 0x0192 [0x01] GOTO 0x029F
 17: 0x0195 [0x02] IF !(Work_Zone[0] == 5*) GOTO 0x01A7
 18: 0x019D [0x29] REQ_SET_WAIT(priority=0x0A, entity_id=PRODUCER (ID: 17760265/0x010F0009), tag_num=0x0A)
 19: 0x01A4 [0x01] GOTO 0x029F
 20: 0x01A7 [0x02] IF !(Work_Zone[0] == 6*) GOTO 0x01B9
 21: 0x01AF [0x29] REQ_SET_WAIT(priority=0x0A, entity_id=PRODUCER (ID: 17760265/0x010F0009), tag_num=0x0B)
 22: 0x01B6 [0x01] GOTO 0x029F
 23: 0x01B9 [0x02] IF !(Work_Zone[0] == 7*) GOTO 0x01CB
 24: 0x01C1 [0x29] REQ_SET_WAIT(priority=0x0A, entity_id=PRODUCER (ID: 17760265/0x010F0009), tag_num=0x0C)
 25: 0x01C8 [0x01] GOTO 0x029F
 26: 0x01CB [0x02] IF !(Work_Zone[0] == 8*) GOTO 0x01DD
 27: 0x01D3 [0x29] REQ_SET_WAIT(priority=0x0A, entity_id=PRODUCER (ID: 17760265/0x010F0009), tag_num=0x12)
 28: 0x01DA [0x01] GOTO 0x029F
 29: 0x01DD [0x02] IF !(Work_Zone[0] == 9*) GOTO 0x01EF
 30: 0x01E5 [0x29] REQ_SET_WAIT(priority=0x0A, entity_id=PRODUCER (ID: 17760265/0x010F0009), tag_num=0x13)
 31: 0x01EC [0x01] GOTO 0x029F
 32: 0x01EF [0x02] IF !(Work_Zone[0] == 10*) GOTO 0x0201
 33: 0x01F7 [0x29] REQ_SET_WAIT(priority=0x0A, entity_id=PRODUCER (ID: 17760265/0x010F0009), tag_num=0x0D)
 34: 0x01FE [0x01] GOTO 0x029F
 35: 0x0201 [0x02] IF !(Work_Zone[0] == 11*) GOTO 0x0213
 36: 0x0209 [0x29] REQ_SET_WAIT(priority=0x0A, entity_id=PRODUCER (ID: 17760265/0x010F0009), tag_num=0x0E)
 37: 0x0210 [0x01] GOTO 0x029F
 38: 0x0213 [0x02] IF !(Work_Zone[0] == 12*) GOTO 0x0225
 39: 0x021B [0x29] REQ_SET_WAIT(priority=0x0A, entity_id=PRODUCER (ID: 17760265/0x010F0009), tag_num=0x0F)
 40: 0x0222 [0x01] GOTO 0x029F
 41: 0x0225 [0x02] IF !(Work_Zone[0] == 13*) GOTO 0x0237
 42: 0x022D [0x29] REQ_SET_WAIT(priority=0x0A, entity_id=PRODUCER (ID: 17760265/0x010F0009), tag_num=0x10)
 43: 0x0234 [0x01] GOTO 0x029F
 44: 0x0237 [0x02] IF !(Work_Zone[0] == 14*) GOTO 0x0249
 45: 0x023F [0x29] REQ_SET_WAIT(priority=0x0A, entity_id=PRODUCER (ID: 17760265/0x010F0009), tag_num=0x11)
 46: 0x0246 [0x01] GOTO 0x029F
 47: 0x0249 [0x02] IF !(Work_Zone[0] == 15*) GOTO 0x025B
 48: 0x0251 [0x29] REQ_SET_WAIT(priority=0x0A, entity_id=PRODUCER (ID: 17760265/0x010F0009), tag_num=0x14)
 49: 0x0258 [0x01] GOTO 0x029F
 50: 0x025B [0x02] IF !(Work_Zone[0] == 16*) GOTO 0x026B
 51: 0x0263 [0x03] Work_Zone[1] = 95*
 52: 0x0268 [0x01] GOTO 0x029F
 53: 0x026B [0x02] IF !(Work_Zone[0] == 17*) GOTO 0x027B
 54: 0x0273 [0x03] Work_Zone[1] = 205*
 55: 0x0278 [0x01] GOTO 0x029F
 56: 0x027B [0x02] IF !(Work_Zone[0] == 18*) GOTO 0x028B
 57: 0x0283 [0x03] Work_Zone[1] = 99*
 58: 0x0288 [0x01] GOTO 0x029F
 59: 0x028B [0x02] IF !(Work_Zone[0] == 19*) GOTO 0x029F
 60: 0x0293 [0x1D] PRINT_EVENT_MESSAGE(message_id=11116*)
    → "Oh no! Your Adventurers' certificate vanished!"
 61: 0x0296 [0x23] WAIT_FOR_DIALOG_INTERACTION
 62: 0x0297 [0x03] Work_Zone[1] = 100*
 63: 0x029C [0x01] GOTO 0x029F

SUBROUTINE_029F:
 64: 0x029F [0x20] SET_CLI_EVENT_UC_FLAG: Unlock player control
 65: 0x02A1 [0x21] END_EVENT
 66: 0x02A2 [0x00] END_REQSTACK()
```

### Event 65535.3

#### Metadata

| Field        | Value     |
|--------------|-----------|
| Entrypoint   | 0x02A3    |
| Data Size    | 156 bytes |
| Instructions | 32        |

```
      00 01 02 03 04 05 06 07  08 09 0A 0B 0C 0D 0E 0F
      -- -- -- -- -- -- -- --  -- -- -- -- -- -- -- --
02A0:          24 1E 80 01 80  01 80 25 02 00 10 01 80     $......%.....
02B0: 00 BB 02 03 01 10 1F 80  01 3B 03 02 00 10 02 80  .........;......
02C0: 00 CB 02 03 01 10 20 80  01 3B 03 02 00 10 03 80  ...... ..;......
02D0: 00 DB 02 03 01 10 21 80  01 3B 03 02 00 10 04 80  ......!..;......
02E0: 00 EB 02 03 01 10 22 80  01 3B 03 02 00 10 06 80  ......"..;......
02F0: 00 FB 02 03 01 10 23 80  01 3B 03 02 00 10 08 80  ......#..;......
0300: 00 0B 03 03 01 10 24 80  01 3B 03 02 00 10 0A 80  ......$..;......
0310: 00 1B 03 03 01 10 25 80  01 3B 03 02 00 10 0C 80  ......%..;......
0320: 00 2B 03 03 01 10 26 80  01 3B 03 02 00 10 0D 80  .+....&..;......
0330: 00 3B 03 03 01 10 27 80  01 3B 03 20 00 21 00     .;....'..;. .!. 
```

#### Opcodes

```
  0: 0x02A3 [0x24] CREATE_DIALOG(message_id=11136*, default_option=0*, option_flags=0*)
    → "ex [u6-1:v$P12<$P11O/u6-2:v$P12<$P11O/u7-1:v$P12<$P11O/u7-2:v$P12<$P11O/u8-1:v$P12<$P11O/u8-2:v$P12<$P11O/u9-1:v$P12<$P11O/u9-2:v$P12<$P11O/u9-2:$6816365]"
  1: 0x02AA [0x25] WAIT_DIALOG_SELECT()
  2: 0x02AB [0x02] IF !(Work_Zone[0] == 0*) GOTO 0x02BB
  3: 0x02B3 [0x03] Work_Zone[1] = 300*
  4: 0x02B8 [0x01] GOTO 0x033B
  5: 0x02BB [0x02] IF !(Work_Zone[0] == 1*) GOTO 0x02CB
  6: 0x02C3 [0x03] Work_Zone[1] = 301*
  7: 0x02C8 [0x01] GOTO 0x033B
  8: 0x02CB [0x02] IF !(Work_Zone[0] == 2*) GOTO 0x02DB
  9: 0x02D3 [0x03] Work_Zone[1] = 302*
 10: 0x02D8 [0x01] GOTO 0x033B
 11: 0x02DB [0x02] IF !(Work_Zone[0] == 3*) GOTO 0x02EB
 12: 0x02E3 [0x03] Work_Zone[1] = 303*
 13: 0x02E8 [0x01] GOTO 0x033B
 14: 0x02EB [0x02] IF !(Work_Zone[0] == 4*) GOTO 0x02FB
 15: 0x02F3 [0x03] Work_Zone[1] = 304*
 16: 0x02F8 [0x01] GOTO 0x033B
 17: 0x02FB [0x02] IF !(Work_Zone[0] == 5*) GOTO 0x030B
 18: 0x0303 [0x03] Work_Zone[1] = 305*
 19: 0x0308 [0x01] GOTO 0x033B
 20: 0x030B [0x02] IF !(Work_Zone[0] == 6*) GOTO 0x031B
 21: 0x0313 [0x03] Work_Zone[1] = 306*
 22: 0x0318 [0x01] GOTO 0x033B
 23: 0x031B [0x02] IF !(Work_Zone[0] == 7*) GOTO 0x032B
 24: 0x0323 [0x03] Work_Zone[1] = 307*
 25: 0x0328 [0x01] GOTO 0x033B
 26: 0x032B [0x02] IF !(Work_Zone[0] == 8*) GOTO 0x033B
 27: 0x0333 [0x03] Work_Zone[1] = 308*
 28: 0x0338 [0x01] GOTO 0x033B

SUBROUTINE_033B:
 29: 0x033B [0x20] SET_CLI_EVENT_UC_FLAG: Unlock player control
 30: 0x033D [0x21] END_EVENT
 31: 0x033E [0x00] END_REQSTACK()
```

### Event 65535.4

#### Metadata

| Field        | Value     |
|--------------|-----------|
| Entrypoint   | 0x033F    |
| Data Size    | 132 bytes |
| Instructions | 30        |

```
      00 01 02 03 04 05 06 07  08 09 0A 0B 0C 0D 0E 0F
      -- -- -- -- -- -- -- --  -- -- -- -- -- -- -- --
0330:                                               24                 $
0340: 28 80 01 80 01 80 25 02  00 10 01 80 00 5B 03 1D  (.....%......[..
0350: 29 80 23 03 01 10 11 80  01 BF 03 02 00 10 02 80  ).#.............
0360: 00 6B 03 03 01 10 12 80  01 BF 03 02 00 10 03 80  .k..............
0370: 00 7B 03 03 01 10 13 80  01 BF 03 02 00 10 04 80  .{..............
0380: 00 8B 03 03 01 10 14 80  01 BF 03 02 00 10 06 80  ................
0390: 00 9B 03 03 01 10 15 80  01 BF 03 02 00 10 08 80  ................
03A0: 00 AB 03 03 01 10 16 80  01 BF 03 02 00 10 0A 80  ................
03B0: 00 BF 03 1D 1D 80 23 03  01 10 09 80 01 BF 03 20  ......#........ 
03C0: 00 21 00                                          .!.             
```

#### Opcodes

```
  0: 0x033F [0x24] CREATE_DIALOG(message_id=11120*, default_option=0*, option_flags=0*)
    → "m101$3t$3$3O%'DiE$3U[$3}$3XH [@OK$3t$3$3O/START$3t$3$3O/{L%@$sA=$3t$3$3O/$2$P16@$3$sA=$3t$3$3O/$2$P139 [$5$P13n5=$3t$3$3O/END$P12<c$3t$3$3O/All reset!]"
  1: 0x0346 [0x25] WAIT_DIALOG_SELECT()
  2: 0x0347 [0x02] IF !(Work_Zone[0] == 0*) GOTO 0x035B
  3: 0x034F [0x1D] PRINT_EVENT_MESSAGE(message_id=11115*)
    → "Abracadabra!"
  4: 0x0352 [0x23] WAIT_FOR_DIALOG_INTERACTION
  5: 0x0353 [0x03] Work_Zone[1] = 11*
  6: 0x0358 [0x01] GOTO 0x03BF
  7: 0x035B [0x02] IF !(Work_Zone[0] == 1*) GOTO 0x036B
  8: 0x0363 [0x03] Work_Zone[1] = 12*
  9: 0x0368 [0x01] GOTO 0x03BF
 10: 0x036B [0x02] IF !(Work_Zone[0] == 2*) GOTO 0x037B
 11: 0x0373 [0x03] Work_Zone[1] = 13*
 12: 0x0378 [0x01] GOTO 0x03BF
 13: 0x037B [0x02] IF !(Work_Zone[0] == 3*) GOTO 0x038B
 14: 0x0383 [0x03] Work_Zone[1] = 14*
 15: 0x0388 [0x01] GOTO 0x03BF
 16: 0x038B [0x02] IF !(Work_Zone[0] == 4*) GOTO 0x039B
 17: 0x0393 [0x03] Work_Zone[1] = 15*
 18: 0x0398 [0x01] GOTO 0x03BF
 19: 0x039B [0x02] IF !(Work_Zone[0] == 5*) GOTO 0x03AB
 20: 0x03A3 [0x03] Work_Zone[1] = 16*
 21: 0x03A8 [0x01] GOTO 0x03BF
 22: 0x03AB [0x02] IF !(Work_Zone[0] == 6*) GOTO 0x03BF
 23: 0x03B3 [0x1D] PRINT_EVENT_MESSAGE(message_id=11116*)
    → "Oh no! Your Adventurers' certificate vanished!"
 24: 0x03B6 [0x23] WAIT_FOR_DIALOG_INTERACTION
 25: 0x03B7 [0x03] Work_Zone[1] = 100*
 26: 0x03BC [0x01] GOTO 0x03BF

SUBROUTINE_03BF:
 27: 0x03BF [0x20] SET_CLI_EVENT_UC_FLAG: Unlock player control
 28: 0x03C1 [0x21] END_EVENT
 29: 0x03C2 [0x00] END_REQSTACK()
```

### Event 65535.5

#### Metadata

| Field        | Value     |
|--------------|-----------|
| Entrypoint   | 0x03C3    |
| Data Size    | 148 bytes |
| Instructions | 33        |

```
      00 01 02 03 04 05 06 07  08 09 0A 0B 0C 0D 0E 0F
      -- -- -- -- -- -- -- --  -- -- -- -- -- -- -- --
03C0:          24 2A 80 01 80  01 80 25 02 00 10 01 80     $*.....%.....
03D0: 00 DF 03 1D 29 80 23 03  01 10 18 80 01 53 04 02  ....).#......S..
03E0: 00 10 02 80 00 EF 03 03  01 10 1A 80 01 53 04 02  .............S..
03F0: 00 10 03 80 00 FF 03 03  01 10 1C 80 01 53 04 02  .............S..
0400: 00 10 04 80 00 0F 04 03  01 10 2B 80 01 53 04 02  ..........+..S..
0410: 00 10 06 80 00 1F 04 03  01 10 2C 80 01 53 04 02  ..........,..S..
0420: 00 10 08 80 00 2F 04 03  01 10 2D 80 01 53 04 02  ...../....-..S..
0430: 00 10 0A 80 00 3F 04 03  01 10 2E 80 01 53 04 02  .....?.......S..
0440: 00 10 0C 80 00 53 04 1D  1D 80 23 03 01 10 09 80  .....S....#.....
0450: 01 53 04 20 00 21 00                              .S. .!.         
```

#### Opcodes

```
  0: 0x03C3 [0x24] CREATE_DIALOG(message_id=11121*, default_option=0*, option_flags=0*)
    → "m102$3t$3$3O%'DiE$3U[$3}$3XH [@OK$3t$3$3O/START$3t$3$3O/{L%@$sA=$3t$3$3O/$2$P16@$3$sA=$3t$3$3O/$P11S$20;k&D$0q>h$3$1[$3v/$2$P139 [$5$3J$3J$3VI$P13n5=$3t$3$3O/END$P12<c$3t$3$3O/All reset!]"
  1: 0x03CA [0x25] WAIT_DIALOG_SELECT()
  2: 0x03CB [0x02] IF !(Work_Zone[0] == 0*) GOTO 0x03DF
  3: 0x03D3 [0x1D] PRINT_EVENT_MESSAGE(message_id=11115*)
    → "Abracadabra!"
  4: 0x03D6 [0x23] WAIT_FOR_DIALOG_INTERACTION
  5: 0x03D7 [0x03] Work_Zone[1] = 17*
  6: 0x03DC [0x01] GOTO 0x0453
  7: 0x03DF [0x02] IF !(Work_Zone[0] == 1*) GOTO 0x03EF
  8: 0x03E7 [0x03] Work_Zone[1] = 18*
  9: 0x03EC [0x01] GOTO 0x0453
 10: 0x03EF [0x02] IF !(Work_Zone[0] == 2*) GOTO 0x03FF
 11: 0x03F7 [0x03] Work_Zone[1] = 19*
 12: 0x03FC [0x01] GOTO 0x0453
 13: 0x03FF [0x02] IF !(Work_Zone[0] == 3*) GOTO 0x040F
 14: 0x0407 [0x03] Work_Zone[1] = 20*
 15: 0x040C [0x01] GOTO 0x0453
 16: 0x040F [0x02] IF !(Work_Zone[0] == 4*) GOTO 0x041F
 17: 0x0417 [0x03] Work_Zone[1] = 109*
 18: 0x041C [0x01] GOTO 0x0453
 19: 0x041F [0x02] IF !(Work_Zone[0] == 5*) GOTO 0x042F
 20: 0x0427 [0x03] Work_Zone[1] = 21*
 21: 0x042C [0x01] GOTO 0x0453
 22: 0x042F [0x02] IF !(Work_Zone[0] == 6*) GOTO 0x043F
 23: 0x0437 [0x03] Work_Zone[1] = 22*
 24: 0x043C [0x01] GOTO 0x0453
 25: 0x043F [0x02] IF !(Work_Zone[0] == 7*) GOTO 0x0453
 26: 0x0447 [0x1D] PRINT_EVENT_MESSAGE(message_id=11116*)
    → "Oh no! Your Adventurers' certificate vanished!"
 27: 0x044A [0x23] WAIT_FOR_DIALOG_INTERACTION
 28: 0x044B [0x03] Work_Zone[1] = 100*
 29: 0x0450 [0x01] GOTO 0x0453

SUBROUTINE_0453:
 30: 0x0453 [0x20] SET_CLI_EVENT_UC_FLAG: Unlock player control
 31: 0x0455 [0x21] END_EVENT
 32: 0x0456 [0x00] END_REQSTACK()
```

### Event 65535.6

#### Metadata

| Field        | Value     |
|--------------|-----------|
| Entrypoint   | 0x0457    |
| Data Size    | 132 bytes |
| Instructions | 30        |

```
      00 01 02 03 04 05 06 07  08 09 0A 0B 0C 0D 0E 0F
      -- -- -- -- -- -- -- --  -- -- -- -- -- -- -- --
0450:                      24  2F 80 01 80 01 80 25 02         $/.....%.
0460: 00 10 01 80 00 73 04 1D  29 80 23 03 01 10 30 80  .....s..).#...0.
0470: 01 D7 04 02 00 10 02 80  00 83 04 03 01 10 31 80  ..............1.
0480: 01 D7 04 02 00 10 03 80  00 93 04 03 01 10 32 80  ..............2.
0490: 01 D7 04 02 00 10 04 80  00 A3 04 03 01 10 33 80  ..............3.
04A0: 01 D7 04 02 00 10 06 80  00 B3 04 03 01 10 34 80  ..............4.
04B0: 01 D7 04 02 00 10 08 80  00 C3 04 03 01 10 35 80  ..............5.
04C0: 01 D7 04 02 00 10 0A 80  00 D7 04 1D 1D 80 23 03  ..............#.
04D0: 01 10 09 80 01 D7 04 20  00 21 00                 ....... .!.     
```

#### Opcodes

```
  0: 0x0457 [0x24] CREATE_DIALOG(message_id=11122*, default_option=0*, option_flags=0*)
    → "m103$3t$3$3O%'DiE$3U[$3}$3XH [@OK$3t$3$3O/START$3t$3$3O/$P122%$3M$3 [$3h$sA=$3t$3$3O/$3M$3f$3A$3X$sA=$3t$3$3O/$P15@L%@Lp)=/END$P12<c$3t$3$3O/All reset!]"
  1: 0x045E [0x25] WAIT_DIALOG_SELECT()
  2: 0x045F [0x02] IF !(Work_Zone[0] == 0*) GOTO 0x0473
  3: 0x0467 [0x1D] PRINT_EVENT_MESSAGE(message_id=11115*)
    → "Abracadabra!"
  4: 0x046A [0x23] WAIT_FOR_DIALOG_INTERACTION
  5: 0x046B [0x03] Work_Zone[1] = 23*
  6: 0x0470 [0x01] GOTO 0x04D7
  7: 0x0473 [0x02] IF !(Work_Zone[0] == 1*) GOTO 0x0483
  8: 0x047B [0x03] Work_Zone[1] = 24*
  9: 0x0480 [0x01] GOTO 0x04D7
 10: 0x0483 [0x02] IF !(Work_Zone[0] == 2*) GOTO 0x0493
 11: 0x048B [0x03] Work_Zone[1] = 25*
 12: 0x0490 [0x01] GOTO 0x04D7
 13: 0x0493 [0x02] IF !(Work_Zone[0] == 3*) GOTO 0x04A3
 14: 0x049B [0x03] Work_Zone[1] = 26*
 15: 0x04A0 [0x01] GOTO 0x04D7
 16: 0x04A3 [0x02] IF !(Work_Zone[0] == 4*) GOTO 0x04B3
 17: 0x04AB [0x03] Work_Zone[1] = 96*
 18: 0x04B0 [0x01] GOTO 0x04D7
 19: 0x04B3 [0x02] IF !(Work_Zone[0] == 5*) GOTO 0x04C3
 20: 0x04BB [0x03] Work_Zone[1] = 27*
 21: 0x04C0 [0x01] GOTO 0x04D7
 22: 0x04C3 [0x02] IF !(Work_Zone[0] == 6*) GOTO 0x04D7
 23: 0x04CB [0x1D] PRINT_EVENT_MESSAGE(message_id=11116*)
    → "Oh no! Your Adventurers' certificate vanished!"
 24: 0x04CE [0x23] WAIT_FOR_DIALOG_INTERACTION
 25: 0x04CF [0x03] Work_Zone[1] = 100*
 26: 0x04D4 [0x01] GOTO 0x04D7

SUBROUTINE_04D7:
 27: 0x04D7 [0x20] SET_CLI_EVENT_UC_FLAG: Unlock player control
 28: 0x04D9 [0x21] END_EVENT
 29: 0x04DA [0x00] END_REQSTACK()
```

### Event 65535.7

#### Metadata

| Field        | Value     |
|--------------|-----------|
| Entrypoint   | 0x04DB    |
| Data Size    | 164 bytes |
| Instructions | 36        |

```
      00 01 02 03 04 05 06 07  08 09 0A 0B 0C 0D 0E 0F
      -- -- -- -- -- -- -- --  -- -- -- -- -- -- -- --
04D0:                                   24 36 80 01 80             $6...
04E0: 01 80 25 02 00 10 01 80  00 F7 04 1D 29 80 23 03  ..%.........).#.
04F0: 01 10 37 80 01 7B 05 02  00 10 02 80 00 07 05 03  ..7..{..........
0500: 01 10 38 80 01 7B 05 02  00 10 03 80 00 17 05 03  ..8..{..........
0510: 01 10 39 80 01 7B 05 02  00 10 04 80 00 27 05 03  ..9..{.......'..
0520: 01 10 3A 80 01 7B 05 02  00 10 06 80 00 37 05 03  ..:..{.......7..
0530: 01 10 3B 80 01 7B 05 02  00 10 08 80 00 47 05 03  ..;..{.......G..
0540: 01 10 3C 80 01 7B 05 02  00 10 0A 80 00 57 05 03  ..<..{.......W..
0550: 01 10 3D 80 01 7B 05 02  00 10 0C 80 00 67 05 03  ..=..{.......g..
0560: 01 10 3E 80 01 7B 05 02  00 10 0D 80 00 7B 05 1D  ..>..{.......{..
0570: 1D 80 23 03 01 10 09 80  01 7B 05 20 00 21 00     ..#......{. .!. 
```

#### Opcodes

```
  0: 0x04DB [0x24] CREATE_DIALOG(message_id=11123*, default_option=0*, option_flags=0*)
    → "m201$3t$3$3O%'DiE$3U[$3}$3XH [@OK$3t$3$3O/START$3t$3$3O/$P16ZL%@$sA=$3t$3$3O/`f`_GET$3t$3$3O/$3J$3MGET$3t$3$3O/$2$P16@$3$3C$3x$3$3g$I%9$3t$3$3O/$"$+$mL%F$3C$3x$3$3g$I%9$3t$3$3O/END$P12<c$3t$3$3O/All reset!]"
  1: 0x04E2 [0x25] WAIT_DIALOG_SELECT()
  2: 0x04E3 [0x02] IF !(Work_Zone[0] == 0*) GOTO 0x04F7
  3: 0x04EB [0x1D] PRINT_EVENT_MESSAGE(message_id=11115*)
    → "Abracadabra!"
  4: 0x04EE [0x23] WAIT_FOR_DIALOG_INTERACTION
  5: 0x04EF [0x03] Work_Zone[1] = 28*
  6: 0x04F4 [0x01] GOTO 0x057B
  7: 0x04F7 [0x02] IF !(Work_Zone[0] == 1*) GOTO 0x0507
  8: 0x04FF [0x03] Work_Zone[1] = 29*
  9: 0x0504 [0x01] GOTO 0x057B
 10: 0x0507 [0x02] IF !(Work_Zone[0] == 2*) GOTO 0x0517
 11: 0x050F [0x03] Work_Zone[1] = 30*
 12: 0x0514 [0x01] GOTO 0x057B
 13: 0x0517 [0x02] IF !(Work_Zone[0] == 3*) GOTO 0x0527
 14: 0x051F [0x03] Work_Zone[1] = 97*
 15: 0x0524 [0x01] GOTO 0x057B
 16: 0x0527 [0x02] IF !(Work_Zone[0] == 4*) GOTO 0x0537
 17: 0x052F [0x03] Work_Zone[1] = 31*
 18: 0x0534 [0x01] GOTO 0x057B
 19: 0x0537 [0x02] IF !(Work_Zone[0] == 5*) GOTO 0x0547
 20: 0x053F [0x03] Work_Zone[1] = 32*
 21: 0x0544 [0x01] GOTO 0x057B
 22: 0x0547 [0x02] IF !(Work_Zone[0] == 6*) GOTO 0x0557
 23: 0x054F [0x03] Work_Zone[1] = 33*
 24: 0x0554 [0x01] GOTO 0x057B
 25: 0x0557 [0x02] IF !(Work_Zone[0] == 7*) GOTO 0x0567
 26: 0x055F [0x03] Work_Zone[1] = 34*
 27: 0x0564 [0x01] GOTO 0x057B
 28: 0x0567 [0x02] IF !(Work_Zone[0] == 8*) GOTO 0x057B
 29: 0x056F [0x1D] PRINT_EVENT_MESSAGE(message_id=11116*)
    → "Oh no! Your Adventurers' certificate vanished!"
 30: 0x0572 [0x23] WAIT_FOR_DIALOG_INTERACTION
 31: 0x0573 [0x03] Work_Zone[1] = 100*
 32: 0x0578 [0x01] GOTO 0x057B

SUBROUTINE_057B:
 33: 0x057B [0x20] SET_CLI_EVENT_UC_FLAG: Unlock player control
 34: 0x057D [0x21] END_EVENT
 35: 0x057E [0x00] END_REQSTACK()
```

### Event 65535.8

#### Metadata

| Field        | Value     |
|--------------|-----------|
| Entrypoint   | 0x057F    |
| Data Size    | 180 bytes |
| Instructions | 39        |

```
      00 01 02 03 04 05 06 07  08 09 0A 0B 0C 0D 0E 0F
      -- -- -- -- -- -- -- --  -- -- -- -- -- -- -- --
0570:                                               24                 $
0580: 3F 80 01 80 01 80 25 02  00 10 01 80 00 9B 05 1D  ?.....%.........
0590: 29 80 23 03 01 10 40 80  01 2F 06 02 00 10 02 80  ).#...@../......
05A0: 00 AB 05 03 01 10 41 80  01 2F 06 02 00 10 03 80  ......A../......
05B0: 00 BB 05 03 01 10 42 80  01 2F 06 02 00 10 04 80  ......B../......
05C0: 00 CB 05 03 01 10 43 80  01 2F 06 02 00 10 06 80  ......C../......
05D0: 00 DB 05 03 01 10 44 80  01 2F 06 02 00 10 08 80  ......D../......
05E0: 00 EB 05 03 01 10 45 80  01 2F 06 02 00 10 0A 80  ......E../......
05F0: 00 FB 05 03 01 10 46 80  01 2F 06 02 00 10 0C 80  ......F../......
0600: 00 0B 06 03 01 10 47 80  01 2F 06 02 00 10 0D 80  ......G../......
0610: 00 1B 06 03 01 10 48 80  01 2F 06 02 00 10 0F 80  ......H../......
0620: 00 2F 06 1D 1D 80 23 03  01 10 09 80 01 2F 06 20  ./....#....../. 
0630: 00 21 00                                          .!.             
```

#### Opcodes

```
  0: 0x057F [0x24] CREATE_DIALOG(message_id=11124*, default_option=0*, option_flags=0*)
    → "m202$3t$3$3O%'DiE$3U[$3}$3XH [@OK$3t$3$3O/START$3t$3$3O/$(L%@$sA=$3t$3$3O/$3^$3$3$3M$P11e [,$P12J$8$P14s/$3^$3$3$3M$P11e [,$P12J(TIME6$1%q5{100$P15C)/$3p$3$3X$3e$3B$3i$P16&$8$P14s/$3p$3$3X$3e$3B$3i$P16&(TIME6$1%q5{100$P15C)/$141$/OK$3t$3$3O/END$P12<c$3t$3$3O/All reset!]"
  1: 0x0586 [0x25] WAIT_DIALOG_SELECT()
  2: 0x0587 [0x02] IF !(Work_Zone[0] == 0*) GOTO 0x059B
  3: 0x058F [0x1D] PRINT_EVENT_MESSAGE(message_id=11115*)
    → "Abracadabra!"
  4: 0x0592 [0x23] WAIT_FOR_DIALOG_INTERACTION
  5: 0x0593 [0x03] Work_Zone[1] = 37*
  6: 0x0598 [0x01] GOTO 0x062F
  7: 0x059B [0x02] IF !(Work_Zone[0] == 1*) GOTO 0x05AB
  8: 0x05A3 [0x03] Work_Zone[1] = 38*
  9: 0x05A8 [0x01] GOTO 0x062F
 10: 0x05AB [0x02] IF !(Work_Zone[0] == 2*) GOTO 0x05BB
 11: 0x05B3 [0x03] Work_Zone[1] = 39*
 12: 0x05B8 [0x01] GOTO 0x062F
 13: 0x05BB [0x02] IF !(Work_Zone[0] == 3*) GOTO 0x05CB
 14: 0x05C3 [0x03] Work_Zone[1] = 105*
 15: 0x05C8 [0x01] GOTO 0x062F
 16: 0x05CB [0x02] IF !(Work_Zone[0] == 4*) GOTO 0x05DB
 17: 0x05D3 [0x03] Work_Zone[1] = 40*
 18: 0x05D8 [0x01] GOTO 0x062F
 19: 0x05DB [0x02] IF !(Work_Zone[0] == 5*) GOTO 0x05EB
 20: 0x05E3 [0x03] Work_Zone[1] = 106*
 21: 0x05E8 [0x01] GOTO 0x062F
 22: 0x05EB [0x02] IF !(Work_Zone[0] == 6*) GOTO 0x05FB
 23: 0x05F3 [0x03] Work_Zone[1] = 41*
 24: 0x05F8 [0x01] GOTO 0x062F
 25: 0x05FB [0x02] IF !(Work_Zone[0] == 7*) GOTO 0x060B
 26: 0x0603 [0x03] Work_Zone[1] = 42*
 27: 0x0608 [0x01] GOTO 0x062F
 28: 0x060B [0x02] IF !(Work_Zone[0] == 8*) GOTO 0x061B
 29: 0x0613 [0x03] Work_Zone[1] = 43*
 30: 0x0618 [0x01] GOTO 0x062F
 31: 0x061B [0x02] IF !(Work_Zone[0] == 9*) GOTO 0x062F
 32: 0x0623 [0x1D] PRINT_EVENT_MESSAGE(message_id=11116*)
    → "Oh no! Your Adventurers' certificate vanished!"
 33: 0x0626 [0x23] WAIT_FOR_DIALOG_INTERACTION
 34: 0x0627 [0x03] Work_Zone[1] = 100*
 35: 0x062C [0x01] GOTO 0x062F

SUBROUTINE_062F:
 36: 0x062F [0x20] SET_CLI_EVENT_UC_FLAG: Unlock player control
 37: 0x0631 [0x21] END_EVENT
 38: 0x0632 [0x00] END_REQSTACK()
```

### Event 65535.9

#### Metadata

| Field        | Value     |
|--------------|-----------|
| Entrypoint   | 0x0633    |
| Data Size    | 116 bytes |
| Instructions | 27        |

```
      00 01 02 03 04 05 06 07  08 09 0A 0B 0C 0D 0E 0F
      -- -- -- -- -- -- -- --  -- -- -- -- -- -- -- --
0630:          24 49 80 01 80  01 80 25 02 00 10 01 80     $I.....%.....
0640: 00 4F 06 1D 29 80 23 03  01 10 4A 80 01 A3 06 02  .O..).#...J.....
0650: 00 10 02 80 00 5F 06 03  01 10 4B 80 01 A3 06 02  ....._....K.....
0660: 00 10 03 80 00 6F 06 03  01 10 4C 80 01 A3 06 02  .....o....L.....
0670: 00 10 04 80 00 7F 06 03  01 10 4D 80 01 A3 06 02  ..........M.....
0680: 00 10 06 80 00 8F 06 03  01 10 4E 80 01 A3 06 02  ..........N.....
0690: 00 10 08 80 00 A3 06 1D  1D 80 23 03 01 10 09 80  ..........#.....
06A0: 01 A3 06 20 00 21 00                              ... .!.         
```

#### Opcodes

```
  0: 0x0633 [0x24] CREATE_DIALOG(message_id=11125*, default_option=0*, option_flags=0*)
    → "m203$3t$3$3O%'DiE$3U[$3}$3XH [@OK$3t$3$3O/START$3t$3$3O/$P13VL$3$sA=$3t$3$3O/END$P12<c$3t$3$3O/$3T$3$3h$3$3A$sAD+=/All reset!]"
  1: 0x063A [0x25] WAIT_DIALOG_SELECT()
  2: 0x063B [0x02] IF !(Work_Zone[0] == 0*) GOTO 0x064F
  3: 0x0643 [0x1D] PRINT_EVENT_MESSAGE(message_id=11115*)
    → "Abracadabra!"
  4: 0x0646 [0x23] WAIT_FOR_DIALOG_INTERACTION
  5: 0x0647 [0x03] Work_Zone[1] = 45*
  6: 0x064C [0x01] GOTO 0x06A3
  7: 0x064F [0x02] IF !(Work_Zone[0] == 1*) GOTO 0x065F
  8: 0x0657 [0x03] Work_Zone[1] = 46*
  9: 0x065C [0x01] GOTO 0x06A3
 10: 0x065F [0x02] IF !(Work_Zone[0] == 2*) GOTO 0x066F
 11: 0x0667 [0x03] Work_Zone[1] = 47*
 12: 0x066C [0x01] GOTO 0x06A3
 13: 0x066F [0x02] IF !(Work_Zone[0] == 3*) GOTO 0x067F
 14: 0x0677 [0x03] Work_Zone[1] = 48*
 15: 0x067C [0x01] GOTO 0x06A3
 16: 0x067F [0x02] IF !(Work_Zone[0] == 4*) GOTO 0x068F
 17: 0x0687 [0x03] Work_Zone[1] = 110*
 18: 0x068C [0x01] GOTO 0x06A3
 19: 0x068F [0x02] IF !(Work_Zone[0] == 5*) GOTO 0x06A3
 20: 0x0697 [0x1D] PRINT_EVENT_MESSAGE(message_id=11116*)
    → "Oh no! Your Adventurers' certificate vanished!"
 21: 0x069A [0x23] WAIT_FOR_DIALOG_INTERACTION
 22: 0x069B [0x03] Work_Zone[1] = 100*
 23: 0x06A0 [0x01] GOTO 0x06A3

SUBROUTINE_06A3:
 24: 0x06A3 [0x20] SET_CLI_EVENT_UC_FLAG: Unlock player control
 25: 0x06A5 [0x21] END_EVENT
 26: 0x06A6 [0x00] END_REQSTACK()
```

### Event 65535.10

#### Metadata

| Field        | Value     |
|--------------|-----------|
| Entrypoint   | 0x06A7    |
| Data Size    | 116 bytes |
| Instructions | 27        |

```
      00 01 02 03 04 05 06 07  08 09 0A 0B 0C 0D 0E 0F
      -- -- -- -- -- -- -- --  -- -- -- -- -- -- -- --
06A0:                      24  4F 80 01 80 01 80 25 02         $O.....%.
06B0: 00 10 01 80 00 C3 06 1D  29 80 23 03 01 10 50 80  ........).#...P.
06C0: 01 17 07 02 00 10 02 80  00 D3 06 03 01 10 51 80  ..............Q.
06D0: 01 17 07 02 00 10 03 80  00 E3 06 03 01 10 52 80  ..............R.
06E0: 01 17 07 02 00 10 04 80  00 F3 06 03 01 10 53 80  ..............S.
06F0: 01 17 07 02 00 10 06 80  00 03 07 03 01 10 54 80  ..............T.
0700: 01 17 07 02 00 10 08 80  00 17 07 1D 1D 80 23 03  ..............#.
0710: 01 10 09 80 01 17 07 20  00 21 00                 ....... .!.     
```

#### Opcodes

```
  0: 0x06A7 [0x24] CREATE_DIALOG(message_id=11127*, default_option=0*, option_flags=0*)
    → "@m203_1Bi1%q$P16Zj$3t$3$3O%'DiE$3U[$3}$3XH [@OK$3t$3$3O/@$3o$3X$3g$3D[$3N%L$22$Y$sA=$3t$3$3O/$201548$sA=$3t$3$3O/@$3M$3f$3A$3Xlv2$sA=$3t$3$3O/@END$P12<c$3t$3$3O/@All reset!]"
  1: 0x06AE [0x25] WAIT_DIALOG_SELECT()
  2: 0x06AF [0x02] IF !(Work_Zone[0] == 0*) GOTO 0x06C3
  3: 0x06B7 [0x1D] PRINT_EVENT_MESSAGE(message_id=11115*)
    → "Abracadabra!"
  4: 0x06BA [0x23] WAIT_FOR_DIALOG_INTERACTION
  5: 0x06BB [0x03] Work_Zone[1] = 50*
  6: 0x06C0 [0x01] GOTO 0x0717
  7: 0x06C3 [0x02] IF !(Work_Zone[0] == 1*) GOTO 0x06D3
  8: 0x06CB [0x03] Work_Zone[1] = 51*
  9: 0x06D0 [0x01] GOTO 0x0717
 10: 0x06D3 [0x02] IF !(Work_Zone[0] == 2*) GOTO 0x06E3
 11: 0x06DB [0x03] Work_Zone[1] = 52*
 12: 0x06E0 [0x01] GOTO 0x0717
 13: 0x06E3 [0x02] IF !(Work_Zone[0] == 3*) GOTO 0x06F3
 14: 0x06EB [0x03] Work_Zone[1] = 53*
 15: 0x06F0 [0x01] GOTO 0x0717
 16: 0x06F3 [0x02] IF !(Work_Zone[0] == 4*) GOTO 0x0703
 17: 0x06FB [0x03] Work_Zone[1] = 54*
 18: 0x0700 [0x01] GOTO 0x0717
 19: 0x0703 [0x02] IF !(Work_Zone[0] == 5*) GOTO 0x0717
 20: 0x070B [0x1D] PRINT_EVENT_MESSAGE(message_id=11116*)
    → "Oh no! Your Adventurers' certificate vanished!"
 21: 0x070E [0x23] WAIT_FOR_DIALOG_INTERACTION
 22: 0x070F [0x03] Work_Zone[1] = 100*
 23: 0x0714 [0x01] GOTO 0x0717

SUBROUTINE_0717:
 24: 0x0717 [0x20] SET_CLI_EVENT_UC_FLAG: Unlock player control
 25: 0x0719 [0x21] END_EVENT
 26: 0x071A [0x00] END_REQSTACK()
```

### Event 65535.11

#### Metadata

| Field        | Value     |
|--------------|-----------|
| Entrypoint   | 0x071B    |
| Data Size    | 116 bytes |
| Instructions | 27        |

```
      00 01 02 03 04 05 06 07  08 09 0A 0B 0C 0D 0E 0F
      -- -- -- -- -- -- -- --  -- -- -- -- -- -- -- --
0710:                                   24 55 80 01 80             $U...
0720: 01 80 25 02 00 10 01 80  00 37 07 1D 29 80 23 03  ..%......7..).#.
0730: 01 10 56 80 01 8B 07 02  00 10 02 80 00 47 07 03  ..V..........G..
0740: 01 10 57 80 01 8B 07 02  00 10 03 80 00 57 07 03  ..W..........W..
0750: 01 10 58 80 01 8B 07 02  00 10 04 80 00 67 07 03  ..X..........g..
0760: 01 10 59 80 01 8B 07 02  00 10 06 80 00 77 07 03  ..Y..........w..
0770: 01 10 5A 80 01 8B 07 02  00 10 08 80 00 8B 07 1D  ..Z.............
0780: 1D 80 23 03 01 10 09 80  01 8B 07 20 00 21 00     ..#........ .!. 
```

#### Opcodes

```
  0: 0x071B [0x24] CREATE_DIALOG(message_id=11128*, default_option=0*, option_flags=0*)
    → "@m203_2Bi2%q$P16Zj$3t$3$3O%'DiE$3U[$3}$3XH [@OK$3t$3$3O/@$3o$3X$3g$3D[$3N%L$22$Y$sA=$3t$3$3O/$201548$sA=$3t$3$3O/@$3M$3f$3A$3Xlv3$sA=$3t$3$3O/@END$P12<c$3t$3$3O/@All reset!]"
  1: 0x0722 [0x25] WAIT_DIALOG_SELECT()
  2: 0x0723 [0x02] IF !(Work_Zone[0] == 0*) GOTO 0x0737
  3: 0x072B [0x1D] PRINT_EVENT_MESSAGE(message_id=11115*)
    → "Abracadabra!"
  4: 0x072E [0x23] WAIT_FOR_DIALOG_INTERACTION
  5: 0x072F [0x03] Work_Zone[1] = 55*
  6: 0x0734 [0x01] GOTO 0x078B
  7: 0x0737 [0x02] IF !(Work_Zone[0] == 1*) GOTO 0x0747
  8: 0x073F [0x03] Work_Zone[1] = 56*
  9: 0x0744 [0x01] GOTO 0x078B
 10: 0x0747 [0x02] IF !(Work_Zone[0] == 2*) GOTO 0x0757
 11: 0x074F [0x03] Work_Zone[1] = 57*
 12: 0x0754 [0x01] GOTO 0x078B
 13: 0x0757 [0x02] IF !(Work_Zone[0] == 3*) GOTO 0x0767
 14: 0x075F [0x03] Work_Zone[1] = 58*
 15: 0x0764 [0x01] GOTO 0x078B
 16: 0x0767 [0x02] IF !(Work_Zone[0] == 4*) GOTO 0x0777
 17: 0x076F [0x03] Work_Zone[1] = 59*
 18: 0x0774 [0x01] GOTO 0x078B
 19: 0x0777 [0x02] IF !(Work_Zone[0] == 5*) GOTO 0x078B
 20: 0x077F [0x1D] PRINT_EVENT_MESSAGE(message_id=11116*)
    → "Oh no! Your Adventurers' certificate vanished!"
 21: 0x0782 [0x23] WAIT_FOR_DIALOG_INTERACTION
 22: 0x0783 [0x03] Work_Zone[1] = 100*
 23: 0x0788 [0x01] GOTO 0x078B

SUBROUTINE_078B:
 24: 0x078B [0x20] SET_CLI_EVENT_UC_FLAG: Unlock player control
 25: 0x078D [0x21] END_EVENT
 26: 0x078E [0x00] END_REQSTACK()
```

### Event 65535.12

#### Metadata

| Field        | Value     |
|--------------|-----------|
| Entrypoint   | 0x078F    |
| Data Size    | 116 bytes |
| Instructions | 27        |

```
      00 01 02 03 04 05 06 07  08 09 0A 0B 0C 0D 0E 0F
      -- -- -- -- -- -- -- --  -- -- -- -- -- -- -- --
0780:                                               24                 $
0790: 5B 80 01 80 01 80 25 02  00 10 01 80 00 AB 07 1D  [.....%.........
07A0: 29 80 23 03 01 10 5C 80  01 FF 07 02 00 10 02 80  ).#...\.........
07B0: 00 BB 07 03 01 10 5D 80  01 FF 07 02 00 10 03 80  ......].........
07C0: 00 CB 07 03 01 10 5E 80  01 FF 07 02 00 10 04 80  ......^.........
07D0: 00 DB 07 03 01 10 5F 80  01 FF 07 02 00 10 06 80  ......_.........
07E0: 00 EB 07 03 01 10 60 80  01 FF 07 02 00 10 08 80  ......`.........
07F0: 00 FF 07 1D 1D 80 23 03  01 10 09 80 01 FF 07 20  ......#........ 
0800: 00 21 00                                          .!.             
```

#### Opcodes

```
  0: 0x078F [0x24] CREATE_DIALOG(message_id=11131*, default_option=0*, option_flags=0*)
    → "m301$3t$3$3O%'DiE$3U[$3}$3XH [@OK$3t$3$3O/START$3t$3$3O/$P13VL$3$sA=$3t$3$3O/$3I$3Y$3g$3$3$4$sA=$3t$3$3O/END$P12<c$3t$3$3O/All reset!]"
  1: 0x0796 [0x25] WAIT_DIALOG_SELECT()
  2: 0x0797 [0x02] IF !(Work_Zone[0] == 0*) GOTO 0x07AB
  3: 0x079F [0x1D] PRINT_EVENT_MESSAGE(message_id=11115*)
    → "Abracadabra!"
  4: 0x07A2 [0x23] WAIT_FOR_DIALOG_INTERACTION
  5: 0x07A3 [0x03] Work_Zone[1] = 60*
  6: 0x07A8 [0x01] GOTO 0x07FF
  7: 0x07AB [0x02] IF !(Work_Zone[0] == 1*) GOTO 0x07BB
  8: 0x07B3 [0x03] Work_Zone[1] = 61*
  9: 0x07B8 [0x01] GOTO 0x07FF
 10: 0x07BB [0x02] IF !(Work_Zone[0] == 2*) GOTO 0x07CB
 11: 0x07C3 [0x03] Work_Zone[1] = 62*
 12: 0x07C8 [0x01] GOTO 0x07FF
 13: 0x07CB [0x02] IF !(Work_Zone[0] == 3*) GOTO 0x07DB
 14: 0x07D3 [0x03] Work_Zone[1] = 63*
 15: 0x07D8 [0x01] GOTO 0x07FF
 16: 0x07DB [0x02] IF !(Work_Zone[0] == 4*) GOTO 0x07EB
 17: 0x07E3 [0x03] Work_Zone[1] = 64*
 18: 0x07E8 [0x01] GOTO 0x07FF
 19: 0x07EB [0x02] IF !(Work_Zone[0] == 5*) GOTO 0x07FF
 20: 0x07F3 [0x1D] PRINT_EVENT_MESSAGE(message_id=11116*)
    → "Oh no! Your Adventurers' certificate vanished!"
 21: 0x07F6 [0x23] WAIT_FOR_DIALOG_INTERACTION
 22: 0x07F7 [0x03] Work_Zone[1] = 100*
 23: 0x07FC [0x01] GOTO 0x07FF

SUBROUTINE_07FF:
 24: 0x07FF [0x20] SET_CLI_EVENT_UC_FLAG: Unlock player control
 25: 0x0801 [0x21] END_EVENT
 26: 0x0802 [0x00] END_REQSTACK()
```

### Event 65535.13

#### Metadata

| Field        | Value     |
|--------------|-----------|
| Entrypoint   | 0x0803    |
| Data Size    | 132 bytes |
| Instructions | 30        |

```
      00 01 02 03 04 05 06 07  08 09 0A 0B 0C 0D 0E 0F
      -- -- -- -- -- -- -- --  -- -- -- -- -- -- -- --
0800:          24 61 80 01 80  01 80 25 02 00 10 01 80     $a.....%.....
0810: 00 1F 08 1D 29 80 23 03  01 10 62 80 01 83 08 02  ....).#...b.....
0820: 00 10 02 80 00 2F 08 03  01 10 63 80 01 83 08 02  ...../....c.....
0830: 00 10 03 80 00 3F 08 03  01 10 64 80 01 83 08 02  .....?....d.....
0840: 00 10 04 80 00 4F 08 03  01 10 65 80 01 83 08 02  .....O....e.....
0850: 00 10 06 80 00 5F 08 03  01 10 66 80 01 83 08 02  ....._....f.....
0860: 00 10 08 80 00 6F 08 03  01 10 67 80 01 83 08 02  .....o....g.....
0870: 00 10 0A 80 00 83 08 1D  1D 80 23 03 01 10 09 80  ..........#.....
0880: 01 83 08 20 00 21 00                              ... .!.         
```

#### Opcodes

```
  0: 0x0803 [0x24] CREATE_DIALOG(message_id=11132*, default_option=0*, option_flags=0*)
    → "m302$3t$3$3O%'DiE$3U[$3}$3XH [@OK$3t$3$3O/START$3t$3$3O/$P13VL$3$sA=$3t$3$3O/$2$P16@$3Q$sA=$3t$3$3O/END$P12<c$3t$3$3O"%q$P16Z$/=$3t$3$3O/All reset!]"
  1: 0x080A [0x25] WAIT_DIALOG_SELECT()
  2: 0x080B [0x02] IF !(Work_Zone[0] == 0*) GOTO 0x081F
  3: 0x0813 [0x1D] PRINT_EVENT_MESSAGE(message_id=11115*)
    → "Abracadabra!"
  4: 0x0816 [0x23] WAIT_FOR_DIALOG_INTERACTION
  5: 0x0817 [0x03] Work_Zone[1] = 65*
  6: 0x081C [0x01] GOTO 0x0883
  7: 0x081F [0x02] IF !(Work_Zone[0] == 1*) GOTO 0x082F
  8: 0x0827 [0x03] Work_Zone[1] = 66*
  9: 0x082C [0x01] GOTO 0x0883
 10: 0x082F [0x02] IF !(Work_Zone[0] == 2*) GOTO 0x083F
 11: 0x0837 [0x03] Work_Zone[1] = 67*
 12: 0x083C [0x01] GOTO 0x0883
 13: 0x083F [0x02] IF !(Work_Zone[0] == 3*) GOTO 0x084F
 14: 0x0847 [0x03] Work_Zone[1] = 68*
 15: 0x084C [0x01] GOTO 0x0883
 16: 0x084F [0x02] IF !(Work_Zone[0] == 4*) GOTO 0x085F
 17: 0x0857 [0x03] Work_Zone[1] = 69*
 18: 0x085C [0x01] GOTO 0x0883
 19: 0x085F [0x02] IF !(Work_Zone[0] == 5*) GOTO 0x086F
 20: 0x0867 [0x03] Work_Zone[1] = 108*
 21: 0x086C [0x01] GOTO 0x0883
 22: 0x086F [0x02] IF !(Work_Zone[0] == 6*) GOTO 0x0883
 23: 0x0877 [0x1D] PRINT_EVENT_MESSAGE(message_id=11116*)
    → "Oh no! Your Adventurers' certificate vanished!"
 24: 0x087A [0x23] WAIT_FOR_DIALOG_INTERACTION
 25: 0x087B [0x03] Work_Zone[1] = 100*
 26: 0x0880 [0x01] GOTO 0x0883

SUBROUTINE_0883:
 27: 0x0883 [0x20] SET_CLI_EVENT_UC_FLAG: Unlock player control
 28: 0x0885 [0x21] END_EVENT
 29: 0x0886 [0x00] END_REQSTACK()
```

### Event 65535.14

#### Metadata

| Field        | Value     |
|--------------|-----------|
| Entrypoint   | 0x0887    |
| Data Size    | 112 bytes |
| Instructions | 25        |

```
      00 01 02 03 04 05 06 07  08 09 0A 0B 0C 0D 0E 0F
      -- -- -- -- -- -- -- --  -- -- -- -- -- -- -- --
0880:                      24  68 80 01 80 01 80 25 02         $h.....%.
0890: 00 10 01 80 00 9F 08 03  01 10 69 80 01 F3 08 02  ..........i.....
08A0: 00 10 02 80 00 AF 08 03  01 10 6A 80 01 F3 08 02  ..........j.....
08B0: 00 10 03 80 00 BF 08 03  01 10 6B 80 01 F3 08 02  ..........k.....
08C0: 00 10 04 80 00 CF 08 03  01 10 6C 80 01 F3 08 02  ..........l.....
08D0: 00 10 06 80 00 DF 08 03  01 10 6D 80 01 F3 08 02  ..........m.....
08E0: 00 10 08 80 00 F3 08 1D  1D 80 23 03 01 10 09 80  ..........#.....
08F0: 01 F3 08 20 00 21 00                              ... .!.         
```

#### Opcodes

```
  0: 0x0887 [0x24] CREATE_DIALOG(message_id=11133*, default_option=0*, option_flags=0*)
    → "m303$3t$3$3O%'DiE$3U[$3}$3XH [@OK$3t$3$3O"02$3N$3$3A$5"/START$3t$3$3O/$P13VL$3$sA=$3t$3$3O/$3998273$3t$3$3O/END$P12<c$3t$3$3O/All reset!]"
  1: 0x088E [0x25] WAIT_DIALOG_SELECT()
  2: 0x088F [0x02] IF !(Work_Zone[0] == 0*) GOTO 0x089F
  3: 0x0897 [0x03] Work_Zone[1] = 70*
  4: 0x089C [0x01] GOTO 0x08F3
  5: 0x089F [0x02] IF !(Work_Zone[0] == 1*) GOTO 0x08AF
  6: 0x08A7 [0x03] Work_Zone[1] = 112*
  7: 0x08AC [0x01] GOTO 0x08F3
  8: 0x08AF [0x02] IF !(Work_Zone[0] == 2*) GOTO 0x08BF
  9: 0x08B7 [0x03] Work_Zone[1] = 71*
 10: 0x08BC [0x01] GOTO 0x08F3
 11: 0x08BF [0x02] IF !(Work_Zone[0] == 3*) GOTO 0x08CF
 12: 0x08C7 [0x03] Work_Zone[1] = 72*
 13: 0x08CC [0x01] GOTO 0x08F3
 14: 0x08CF [0x02] IF !(Work_Zone[0] == 4*) GOTO 0x08DF
 15: 0x08D7 [0x03] Work_Zone[1] = 73*
 16: 0x08DC [0x01] GOTO 0x08F3
 17: 0x08DF [0x02] IF !(Work_Zone[0] == 5*) GOTO 0x08F3
 18: 0x08E7 [0x1D] PRINT_EVENT_MESSAGE(message_id=11116*)
    → "Oh no! Your Adventurers' certificate vanished!"
 19: 0x08EA [0x23] WAIT_FOR_DIALOG_INTERACTION
 20: 0x08EB [0x03] Work_Zone[1] = 100*
 21: 0x08F0 [0x01] GOTO 0x08F3

SUBROUTINE_08F3:
 22: 0x08F3 [0x20] SET_CLI_EVENT_UC_FLAG: Unlock player control
 23: 0x08F5 [0x21] END_EVENT
 24: 0x08F6 [0x00] END_REQSTACK()
```

### Event 65535.15

#### Metadata

| Field        | Value     |
|--------------|-----------|
| Entrypoint   | 0x08F7    |
| Data Size    | 160 bytes |
| Instructions | 34        |

```
      00 01 02 03 04 05 06 07  08 09 0A 0B 0C 0D 0E 0F
      -- -- -- -- -- -- -- --  -- -- -- -- -- -- -- --
08F0:                      24  6E 80 01 80 01 80 25 02         $n.....%.
0900: 00 10 01 80 00 0F 09 03  01 10 6F 80 01 93 09 02  ..........o.....
0910: 00 10 02 80 00 1F 09 03  01 10 70 80 01 93 09 02  ..........p.....
0920: 00 10 03 80 00 2F 09 03  01 10 71 80 01 93 09 02  ...../....q.....
0930: 00 10 04 80 00 3F 09 03  01 10 72 80 01 93 09 02  .....?....r.....
0940: 00 10 06 80 00 4F 09 03  01 10 73 80 01 93 09 02  .....O....s.....
0950: 00 10 08 80 00 5F 09 03  01 10 74 80 01 93 09 02  ....._....t.....
0960: 00 10 0A 80 00 6F 09 03  01 10 75 80 01 93 09 02  .....o....u.....
0970: 00 10 0C 80 00 7F 09 03  01 10 76 80 01 93 09 02  ..........v.....
0980: 00 10 0D 80 00 93 09 1D  1D 80 23 03 01 10 09 80  ..........#.....
0990: 01 93 09 20 00 21 00                              ... .!.         
```

#### Opcodes

```
  0: 0x08F7 [0x24] CREATE_DIALOG(message_id=11134*, default_option=0*, option_flags=0*)
    → "m501$3t$3$3O%'DiE$3U[$3}$3XH [@OK$3t$3$3O/OK$3t$3$3O(MS3-2$6423136ADH")/$P13VL$3$sA=$3t$3$3O/$P13VL$3$sA=/G$P12fA=$3t$3$3O/$3K$7540293/=$3t$3$3O/$3t$3F$3C$3$13sA=$3t$3$3O/END$P12<c$3t$3$3O/11E3-2p$s/=gci$2$P13!%pj/All reset!]"
  1: 0x08FE [0x25] WAIT_DIALOG_SELECT()
  2: 0x08FF [0x02] IF !(Work_Zone[0] == 0*) GOTO 0x090F
  3: 0x0907 [0x03] Work_Zone[1] = 74*
  4: 0x090C [0x01] GOTO 0x0993
  5: 0x090F [0x02] IF !(Work_Zone[0] == 1*) GOTO 0x091F
  6: 0x0917 [0x03] Work_Zone[1] = 113*
  7: 0x091C [0x01] GOTO 0x0993
  8: 0x091F [0x02] IF !(Work_Zone[0] == 2*) GOTO 0x092F
  9: 0x0927 [0x03] Work_Zone[1] = 75*
 10: 0x092C [0x01] GOTO 0x0993
 11: 0x092F [0x02] IF !(Work_Zone[0] == 3*) GOTO 0x093F
 12: 0x0937 [0x03] Work_Zone[1] = 107*
 13: 0x093C [0x01] GOTO 0x0993
 14: 0x093F [0x02] IF !(Work_Zone[0] == 4*) GOTO 0x094F
 15: 0x0947 [0x03] Work_Zone[1] = 111*
 16: 0x094C [0x01] GOTO 0x0993
 17: 0x094F [0x02] IF !(Work_Zone[0] == 5*) GOTO 0x095F
 18: 0x0957 [0x03] Work_Zone[1] = 76*
 19: 0x095C [0x01] GOTO 0x0993
 20: 0x095F [0x02] IF !(Work_Zone[0] == 6*) GOTO 0x096F
 21: 0x0967 [0x03] Work_Zone[1] = 77*
 22: 0x096C [0x01] GOTO 0x0993
 23: 0x096F [0x02] IF !(Work_Zone[0] == 7*) GOTO 0x097F
 24: 0x0977 [0x03] Work_Zone[1] = 114*
 25: 0x097C [0x01] GOTO 0x0993
 26: 0x097F [0x02] IF !(Work_Zone[0] == 8*) GOTO 0x0993
 27: 0x0987 [0x1D] PRINT_EVENT_MESSAGE(message_id=11116*)
    → "Oh no! Your Adventurers' certificate vanished!"
 28: 0x098A [0x23] WAIT_FOR_DIALOG_INTERACTION
 29: 0x098B [0x03] Work_Zone[1] = 100*
 30: 0x0990 [0x01] GOTO 0x0993

SUBROUTINE_0993:
 31: 0x0993 [0x20] SET_CLI_EVENT_UC_FLAG: Unlock player control
 32: 0x0995 [0x21] END_EVENT
 33: 0x0996 [0x00] END_REQSTACK()
```

### Event 65535.16

#### Metadata

| Field        | Value     |
|--------------|-----------|
| Entrypoint   | 0x0997    |
| Data Size    | 116 bytes |
| Instructions | 27        |

```
      00 01 02 03 04 05 06 07  08 09 0A 0B 0C 0D 0E 0F
      -- -- -- -- -- -- -- --  -- -- -- -- -- -- -- --
0990:                      24  77 80 01 80 01 80 25 02         $w.....%.
09A0: 00 10 01 80 00 B3 09 1D  29 80 23 03 01 10 78 80  ........).#...x.
09B0: 01 07 0A 02 00 10 02 80  00 C3 09 03 01 10 79 80  ..............y.
09C0: 01 07 0A 02 00 10 03 80  00 D3 09 03 01 10 7A 80  ..............z.
09D0: 01 07 0A 02 00 10 04 80  00 E3 09 03 01 10 7B 80  ..............{.
09E0: 01 07 0A 02 00 10 06 80  00 F3 09 03 01 10 7C 80  ..............|.
09F0: 01 07 0A 02 00 10 08 80  00 07 0A 1D 1D 80 23 03  ..............#.
0A00: 01 10 09 80 01 07 0A 20  00 21 00                 ....... .!.     
```

#### Opcodes

```
  0: 0x0997 [0x24] CREATE_DIALOG(message_id=11135*, default_option=0*, option_flags=0*)
    → "m502$3t$3$3O%'DiE$3U[$3}$3XH [@OK$3t$3$3O/START/$P13VL$3$sA=$3t$3$3O/$3Y$3$3@$3998273$3t$3$3O/END$P12<c$3t$3$3O/All reset!]"
  1: 0x099E [0x25] WAIT_DIALOG_SELECT()
  2: 0x099F [0x02] IF !(Work_Zone[0] == 0*) GOTO 0x09B3
  3: 0x09A7 [0x1D] PRINT_EVENT_MESSAGE(message_id=11115*)
    → "Abracadabra!"
  4: 0x09AA [0x23] WAIT_FOR_DIALOG_INTERACTION
  5: 0x09AB [0x03] Work_Zone[1] = 78*
  6: 0x09B0 [0x01] GOTO 0x0A07
  7: 0x09B3 [0x02] IF !(Work_Zone[0] == 1*) GOTO 0x09C3
  8: 0x09BB [0x03] Work_Zone[1] = 79*
  9: 0x09C0 [0x01] GOTO 0x0A07
 10: 0x09C3 [0x02] IF !(Work_Zone[0] == 2*) GOTO 0x09D3
 11: 0x09CB [0x03] Work_Zone[1] = 80*
 12: 0x09D0 [0x01] GOTO 0x0A07
 13: 0x09D3 [0x02] IF !(Work_Zone[0] == 3*) GOTO 0x09E3
 14: 0x09DB [0x03] Work_Zone[1] = 81*
 15: 0x09E0 [0x01] GOTO 0x0A07
 16: 0x09E3 [0x02] IF !(Work_Zone[0] == 4*) GOTO 0x09F3
 17: 0x09EB [0x03] Work_Zone[1] = 82*
 18: 0x09F0 [0x01] GOTO 0x0A07
 19: 0x09F3 [0x02] IF !(Work_Zone[0] == 5*) GOTO 0x0A07
 20: 0x09FB [0x1D] PRINT_EVENT_MESSAGE(message_id=11116*)
    → "Oh no! Your Adventurers' certificate vanished!"
 21: 0x09FE [0x23] WAIT_FOR_DIALOG_INTERACTION
 22: 0x09FF [0x03] Work_Zone[1] = 100*
 23: 0x0A04 [0x01] GOTO 0x0A07

SUBROUTINE_0A07:
 24: 0x0A07 [0x20] SET_CLI_EVENT_UC_FLAG: Unlock player control
 25: 0x0A09 [0x21] END_EVENT
 26: 0x0A0A [0x00] END_REQSTACK()
```

### Event 65535.17

#### Metadata

| Field        | Value     |
|--------------|-----------|
| Entrypoint   | 0x0A0B    |
| Data Size    | 116 bytes |
| Instructions | 27        |

```
      00 01 02 03 04 05 06 07  08 09 0A 0B 0C 0D 0E 0F
      -- -- -- -- -- -- -- --  -- -- -- -- -- -- -- --
0A00:                                   24 7D 80 01 80             $}...
0A10: 01 80 25 02 00 10 01 80  00 27 0A 1D 29 80 23 03  ..%......'..).#.
0A20: 01 10 7E 80 01 7B 0A 02  00 10 02 80 00 37 0A 03  ..~..{.......7..
0A30: 01 10 7F 80 01 7B 0A 02  00 10 03 80 00 47 0A 03  .....{.......G..
0A40: 01 10 80 80 01 7B 0A 02  00 10 04 80 00 57 0A 03  .....{.......W..
0A50: 01 10 81 80 01 7B 0A 02  00 10 06 80 00 67 0A 03  .....{.......g..
0A60: 01 10 82 80 01 7B 0A 02  00 10 08 80 00 7B 0A 1D  .....{.......{..
0A70: 1D 80 23 03 01 10 09 80  01 7B 0A 20 00 21 00     ..#......{. .!. 
```

#### Opcodes

```
  0: 0x0A0B [0x24] CREATE_DIALOG(message_id=11129*, default_option=0*, option_flags=0*)
    → "m203_1A(1%q$P16Z)$3t$3$3O%'DiE$3U[$3}$3XH [@OK$3t$3$3O/$3T$3$3h$3$3A%L$22$Y$sA=$3t$3$3O"$7L$2p$hI$P13|j=>//$3M$3f$3A$3Xlv2E$2$P16@$2p$P14[_=>//END$P12<c$3t$3$3O/All reset!]"
  1: 0x0A12 [0x25] WAIT_DIALOG_SELECT()
  2: 0x0A13 [0x02] IF !(Work_Zone[0] == 0*) GOTO 0x0A27
  3: 0x0A1B [0x1D] PRINT_EVENT_MESSAGE(message_id=11115*)
    → "Abracadabra!"
  4: 0x0A1E [0x23] WAIT_FOR_DIALOG_INTERACTION
  5: 0x0A1F [0x03] Work_Zone[1] = 83*
  6: 0x0A24 [0x01] GOTO 0x0A7B
  7: 0x0A27 [0x02] IF !(Work_Zone[0] == 1*) GOTO 0x0A37
  8: 0x0A2F [0x03] Work_Zone[1] = 84*
  9: 0x0A34 [0x01] GOTO 0x0A7B
 10: 0x0A37 [0x02] IF !(Work_Zone[0] == 2*) GOTO 0x0A47
 11: 0x0A3F [0x03] Work_Zone[1] = 85*
 12: 0x0A44 [0x01] GOTO 0x0A7B
 13: 0x0A47 [0x02] IF !(Work_Zone[0] == 3*) GOTO 0x0A57
 14: 0x0A4F [0x03] Work_Zone[1] = 86*
 15: 0x0A54 [0x01] GOTO 0x0A7B
 16: 0x0A57 [0x02] IF !(Work_Zone[0] == 4*) GOTO 0x0A67
 17: 0x0A5F [0x03] Work_Zone[1] = 87*
 18: 0x0A64 [0x01] GOTO 0x0A7B
 19: 0x0A67 [0x02] IF !(Work_Zone[0] == 5*) GOTO 0x0A7B
 20: 0x0A6F [0x1D] PRINT_EVENT_MESSAGE(message_id=11116*)
    → "Oh no! Your Adventurers' certificate vanished!"
 21: 0x0A72 [0x23] WAIT_FOR_DIALOG_INTERACTION
 22: 0x0A73 [0x03] Work_Zone[1] = 100*
 23: 0x0A78 [0x01] GOTO 0x0A7B

SUBROUTINE_0A7B:
 24: 0x0A7B [0x20] SET_CLI_EVENT_UC_FLAG: Unlock player control
 25: 0x0A7D [0x21] END_EVENT
 26: 0x0A7E [0x00] END_REQSTACK()
```

### Event 65535.18

#### Metadata

| Field        | Value     |
|--------------|-----------|
| Entrypoint   | 0x0A7F    |
| Data Size    | 116 bytes |
| Instructions | 27        |

```
      00 01 02 03 04 05 06 07  08 09 0A 0B 0C 0D 0E 0F
      -- -- -- -- -- -- -- --  -- -- -- -- -- -- -- --
0A70:                                               24                 $
0A80: 83 80 01 80 01 80 25 02  00 10 01 80 00 9B 0A 1D  ......%.........
0A90: 29 80 23 03 01 10 84 80  01 EF 0A 02 00 10 02 80  ).#.............
0AA0: 00 AB 0A 03 01 10 85 80  01 EF 0A 02 00 10 03 80  ................
0AB0: 00 BB 0A 03 01 10 86 80  01 EF 0A 02 00 10 04 80  ................
0AC0: 00 CB 0A 03 01 10 87 80  01 EF 0A 02 00 10 06 80  ................
0AD0: 00 DB 0A 03 01 10 88 80  01 EF 0A 02 00 10 08 80  ................
0AE0: 00 EF 0A 1D 1D 80 23 03  01 10 09 80 01 EF 0A 20  ......#........ 
0AF0: 00 21 00                                          .!.             
```

#### Opcodes

```
  0: 0x0A7F [0x24] CREATE_DIALOG(message_id=11130*, default_option=0*, option_flags=0*)
    → "m203_2A(2%q$P16Z)$3t$3$3O%'DiE$3U[$3}$3XH [@OK$3t$3$3O/$3T$3$3h$3$3A%L$22$Y$sA=$3t$3$3O/$P13VL$3$sA=$3t$3$3O/$3M$3f$3A$3Xlv3$sA=$3t$3$3O/END$P12<c$3t$3$3O/All reset!]"
  1: 0x0A86 [0x25] WAIT_DIALOG_SELECT()
  2: 0x0A87 [0x02] IF !(Work_Zone[0] == 0*) GOTO 0x0A9B
  3: 0x0A8F [0x1D] PRINT_EVENT_MESSAGE(message_id=11115*)
    → "Abracadabra!"
  4: 0x0A92 [0x23] WAIT_FOR_DIALOG_INTERACTION
  5: 0x0A93 [0x03] Work_Zone[1] = 88*
  6: 0x0A98 [0x01] GOTO 0x0AEF
  7: 0x0A9B [0x02] IF !(Work_Zone[0] == 1*) GOTO 0x0AAB
  8: 0x0AA3 [0x03] Work_Zone[1] = 89*
  9: 0x0AA8 [0x01] GOTO 0x0AEF
 10: 0x0AAB [0x02] IF !(Work_Zone[0] == 2*) GOTO 0x0ABB
 11: 0x0AB3 [0x03] Work_Zone[1] = 90*
 12: 0x0AB8 [0x01] GOTO 0x0AEF
 13: 0x0ABB [0x02] IF !(Work_Zone[0] == 3*) GOTO 0x0ACB
 14: 0x0AC3 [0x03] Work_Zone[1] = 91*
 15: 0x0AC8 [0x01] GOTO 0x0AEF
 16: 0x0ACB [0x02] IF !(Work_Zone[0] == 4*) GOTO 0x0ADB
 17: 0x0AD3 [0x03] Work_Zone[1] = 92*
 18: 0x0AD8 [0x01] GOTO 0x0AEF
 19: 0x0ADB [0x02] IF !(Work_Zone[0] == 5*) GOTO 0x0AEF
 20: 0x0AE3 [0x1D] PRINT_EVENT_MESSAGE(message_id=11116*)
    → "Oh no! Your Adventurers' certificate vanished!"
 21: 0x0AE6 [0x23] WAIT_FOR_DIALOG_INTERACTION
 22: 0x0AE7 [0x03] Work_Zone[1] = 100*
 23: 0x0AEC [0x01] GOTO 0x0AEF

SUBROUTINE_0AEF:
 24: 0x0AEF [0x20] SET_CLI_EVENT_UC_FLAG: Unlock player control
 25: 0x0AF1 [0x21] END_EVENT
 26: 0x0AF2 [0x00] END_REQSTACK()
```

### Event 65535.19

#### Metadata

| Field        | Value    |
|--------------|----------|
| Entrypoint   | 0x0AF3   |
| Data Size    | 44 bytes |
| Instructions | 11       |

```
      00 01 02 03 04 05 06 07  08 09 0A 0B 0C 0D 0E 0F
      -- -- -- -- -- -- -- --  -- -- -- -- -- -- -- --
0AF0:          24 89 80 01 80  01 80 25 02 00 10 01 80     $......%.....
0B00: 00 0B 0B 03 01 10 8A 80  01 1B 0B 02 00 10 02 80  ................
0B10: 00 1B 0B 03 01 10 8B 80  01 1B 0B 20 00 21 00     ........... .!. 
```

#### Opcodes

```
  0: 0x0AF3 [0x24] CREATE_DIALOG(message_id=11126*, default_option=0*, option_flags=0*)
    → "@m203_609$3t$3$3O%'DiE$3U[$3}$3XH [@OK$3t$3$3O/$P15P$P15{5)$3N$3$3A$5"]"
  1: 0x0AFA [0x25] WAIT_DIALOG_SELECT()
  2: 0x0AFB [0x02] IF !(Work_Zone[0] == 0*) GOTO 0x0B0B
  3: 0x0B03 [0x03] Work_Zone[1] = 93*
  4: 0x0B08 [0x01] GOTO 0x0B1B
  5: 0x0B0B [0x02] IF !(Work_Zone[0] == 1*) GOTO 0x0B1B
  6: 0x0B13 [0x03] Work_Zone[1] = 94*
  7: 0x0B18 [0x01] GOTO 0x0B1B

SUBROUTINE_0B1B:
  8: 0x0B1B [0x20] SET_CLI_EVENT_UC_FLAG: Unlock player control
  9: 0x0B1D [0x21] END_EVENT
 10: 0x0B1E [0x00] END_REQSTACK()
```

### Event 305

#### Metadata

| Field        | Value      |
|--------------|------------|
| Entrypoint   | 0x0B1F     |
| Data Size    | 1891 bytes |
| Instructions | 258        |

```
      00 01 02 03 04 05 06 07  08 09 0A 0B 0C 0D 0E 0F
      -- -- -- -- -- -- -- --  -- -- -- -- -- -- -- --
0B10:                                               42                 B
0B20: 46 01 69 01 08 80 5C 00  8C 80 5C 01 8C 80 29 08  F.i...\...\...).
0B30: F0 FF FF 7F 0A 29 0B 0A  00 0F 01 1C 29 0B 0B 00  .....)......)...
0B40: 0F 01 19 4E 01 19 00 0F  01 4E 01 A4 00 0F 01 2C  ...N.....N.....,
0B50: 19 00 0F 01 19 00 0F 01  77 6F 66 34 37 8D 80 8E  ........wof47...
0B60: 80 8F 80 90 80 34 91 80  77 01 80 01 80 1C 1F 80  .....4..w.......
0B70: 45 92 80 F0 FF FF 7F F0  FF FF 7F 73 30 30 31 01  E..........s001.
0B80: 80 1C 39 80 45 93 80 F8  FF FF 7F F8 FF FF 7F 66  ..9.E..........f
0B90: 64 69 32 01 80 1C 7A 80  1C 69 80 67 7A 80 7A 80  di2...z..i.gz.z.
0BA0: 48 94 80 23 45 93 80 F8  FF FF 7F F8 FF FF 7F 66  H..#E..........f
0BB0: 64 6F 31 01 80 55 92 80  F0 FF FF 7F F0 FF FF 7F  do1..U..........
0BC0: 73 30 30 31 45 92 80 F0  FF FF 7F F0 FF FF 7F 73  s001E..........s
0BD0: 30 30 32 01 80 1C 02 80  45 93 80 F8 FF FF 7F F8  002.....E.......
0BE0: FF FF 7F 66 64 69 31 01  80 67 7A 80 95 80 48 96  ...fdi1..gz...H.
0BF0: 80 23 1C 39 80 67 86 80  95 80 48 97 80 23 1C 15  .#.9.g....H..#..
0C00: 80 45 93 80 F8 FF FF 7F  F8 FF FF 7F 66 64 6F 31  .E..........fdo1
0C10: 01 80 55 92 80 F0 FF FF  7F F0 FF FF 7F 73 30 30  ..U..........s00
0C20: 32 1C 5C 80 45 92 80 F0  FF FF 7F F0 FF FF 7F 73  2.\.E..........s
0C30: 30 30 30 01 80 45 93 80  F8 FF FF 7F F8 FF FF 7F  000..E..........
0C40: 66 64 69 31 01 80 67 98  80 95 80 48 99 80 23 1C  fdi1..g....H..#.
0C50: 39 80 67 86 80 95 80 48  9A 80 23 1C 39 80 45 93  9.g....H..#.9.E.
0C60: 80 F8 FF FF 7F F8 FF FF  7F 66 64 6F 31 01 80 55  .........fdo1..U
0C70: 92 80 F0 FF FF 7F F0 FF  FF 7F 73 30 30 30 1C 5C  ..........s000.\
0C80: 80 45 92 80 F0 FF FF 7F  F0 FF FF 7F 73 30 30 35  .E..........s005
0C90: 01 80 45 93 80 F8 FF FF  7F F8 FF FF 7F 66 64 69  ..E..........fdi
0CA0: 31 01 80 67 09 80 95 80  1C 39 80 67 4E 80 95 80  1..g.....9.gN...
0CB0: 48 9B 80 23 1C 39 80 67  9C 80 95 80 48 9D 80 23  H..#.9.g....H..#
0CC0: 1C 39 80 45 93 80 F0 FF  FF 7F F0 FF FF 7F 66 64  .9.E..........fd
0CD0: 6F 32 01 80 55 93 80 F0  FF FF 7F F0 FF FF 7F 66  o2..U..........f
0CE0: 64 6F 32 55 92 80 F0 FF  FF 7F F0 FF FF 7F 73 30  do2U..........s0
0CF0: 30 35 45 93 80 F0 FF FF  7F F0 FF FF 7F 66 61 6F  05E..........fao
0D00: 31 01 80 1C 5C 80 67 86  80 9E 80 48 9F 80 45 93  1...\.g....H..E.
0D10: 80 F0 FF FF 7F F0 FF FF  7F 66 61 69 31 01 80 1C  .........fai1...
0D20: 9E 80 45 93 80 F0 FF FF  7F F0 FF FF 7F 66 61 6F  ..E..........fao
0D30: 31 01 80 1C 98 80 23 67  4E 80 9E 80 48 A0 80 45  1.....#gN...H..E
0D40: 93 80 F0 FF FF 7F F0 FF  FF 7F 66 61 69 31 01 80  ..........fai1..
0D50: 1C 9E 80 45 93 80 F0 FF  FF 7F F0 FF FF 7F 66 61  ...E..........fa
0D60: 6F 31 01 80 1C 98 80 23  68 69 00 08 80 45 92 80  o1.....#hi...E..
0D70: F0 FF FF 7F F0 FF FF 7F  73 30 30 33 01 80 45 93  ........s003..E.
0D80: 80 F0 FF FF 7F F0 FF FF  7F 66 64 69 32 01 80 55  .........fdi2..U
0D90: 93 80 F0 FF FF 7F F0 FF  FF 7F 66 64 69 32 78 35  ..........fdi2x5
0DA0: A1 80 77 15 80 01 80 4E  00 F0 FF FF 7F 45 A2 80  ..w....N.....E..
0DB0: F0 FF FF 7F F0 FF FF 7F  73 30 35 30 01 80 1C 09  ........s050....
0DC0: 80 52 A2 80 F0 FF FF 7F  F0 FF FF 7F 73 30 35 30  .R..........s050
0DD0: 80 F0 FF FF 7F 80 0A 00  0F 01 80 0B 00 0F 01 45  ...............E
0DE0: A2 80 F0 FF FF 7F F0 FF  FF 7F 73 30 30 31 01 80  ..........s001..
0DF0: 4E 00 F0 FF FF 7F 45 93  80 F0 FF FF 7F F0 FF FF  N.....E.........
0E00: 7F 66 61 69 31 01 80 4E  00 0C 00 0F 01 80 0C 00  .fai1..N........
0E10: 0F 01 2C 0C 00 0F 01 0C  00 0F 01 77 6F 66 34 29  ..,........wof4)
0E20: 0B F0 FF FF 7F 33 29 0B  0C 00 0F 01 13 55 A2 80  .....3)......U..
0E30: F0 FF FF 7F F0 FF FF 7F  73 30 30 31 1C 50 80 45  ........s001.P.E
0E40: A2 80 F0 FF FF 7F F0 FF  FF 7F 73 30 35 30 01 80  ..........s050..
0E50: 29 0B 0A 00 0F 01 22 45  A2 80 F0 FF FF 7F F0 FF  )....."E........
0E60: FF 7F 73 30 30 32 01 80  4A 0A 00 0F 01 0B 00 0F  ..s002..J.......
0E70: 01 27 0B 0A 00 0F 01 1D  2B 0A 00 0F 01 A3 80 23  .'......+......#
0E80: 2B 0A 00 0F 01 A4 80 23  2A 0B 0A 00 0F 01 52 A2  +......#*.....R.
0E90: 80 F0 FF FF 7F F0 FF FF  7F 73 30 30 32 45 A2 80  .........s002E..
0EA0: F0 FF FF 7F F0 FF FF 7F  73 30 30 34 01 80 4A 0A  ........s004..J.
0EB0: 00 0F 01 0B 00 0F 01 29  0B 0B 00 0F 01 20 29 08  .......)..... ).
0EC0: 0B 00 0F 01 05 29 0B 0A  00 0F 01 24 29 08 0B 00  .....).....$)...
0ED0: 0F 01 06 4A 0B 00 0F 01  0A 00 0F 01 29 0B 0B 00  ...J........)...
0EE0: 0F 01 21 45 A2 80 F0 FF  FF 7F F0 FF FF 7F 73 30  ..!E..........s0
0EF0: 30 36 01 80 4A 0A 00 0F  01 0B 00 0F 01 2B 0A 00  06..J........+..
0F00: 0F 01 A5 80 23 4A 0A 00  0F 01 0C 00 0F 01 29 0B  ....#J........).
0F10: 0A 00 0F 01 26 45 A2 80  F0 FF FF 7F F0 FF FF 7F  ....&E..........
0F20: 73 30 30 36 01 80 4A 0B  00 0F 01 0C 00 0F 01 1C  s006..J.........
0F30: 39 80 27 08 0B 00 0F 01  0D 2B 0B 00 0F 01 A6 80  9.'......+......
0F40: 23 2A 08 0B 00 0F 01 4A  0B 00 0F 01 0A 00 0F 01  #*.....J........
0F50: 29 0B 0B 00 0F 01 22 45  A2 80 F0 FF FF 7F F0 FF  )....."E........
0F60: FF 7F 73 30 30 37 01 80  27 0B 0C 00 0F 01 14 27  ..s007..'......'
0F70: 0B 0A 00 0F 01 1F 27 0B  0B 00 0F 01 1D 1C 09 80  ......'.........
0F80: 4A F0 FF FF 7F 0C 00 0F  01 55 A2 80 F0 FF FF 7F  J........U......
0F90: F0 FF FF 7F 73 30 30 37  02 09 10 0D 80 00 B4 0F  ....s007........
0FA0: 45 A2 80 F0 FF FF 7F F0  FF FF 7F 73 31 30 30 01  E..........s100.
0FB0: 80 01 C5 0F 45 A2 80 F0  FF FF 7F F0 FF FF 7F 73  ....E..........s
0FC0: 30 30 38 01 80 2A 0B 0C  00 0F 01 1C 10 80 4A 0C  008..*........J.
0FD0: 00 0F 01 F0 FF FF 7F 6F  76 0C 00 0F 01 29 0B 0C  .......ov....)..
0FE0: 00 0F 01 1C 24 A7 80 01  80 01 80 25 02 00 10 01  ....$......%....
0FF0: 80 00 FC 0F 03 01 00 02  80 01 0C 10 02 00 10 02  ................
1000: 80 00 0C 10 03 01 00 01  80 01 0C 10 02 09 10 0D  ................
1010: 80 00 26 10 52 A2 80 F0  FF FF 7F F0 FF FF 7F 73  ..&.R..........s
1020: 31 30 30 01 35 10 52 A2  80 F0 FF FF 7F F0 FF FF  100.5.R.........
1030: 7F 73 30 30 38 45 A2 80  0C 00 0F 01 0C 00 0F 01  .s008E..........
1040: 73 30 30 39 01 80 4E 01  F0 FF FF 7F 27 0B 0C 00  s009..N.....'...
1050: 0F 01 15 27 0B F0 FF FF  7F 34 02 01 00 02 80 00  ...'.....4......
1060: 75 10 2B 0C 00 0F 01 A8  80 23 2B 0C 00 0F 01 A9  u.+......#+.....
1070: 80 23 01 8A 10 2B 0C 00  0F 01 AA 80 23 2B 0C 00  .#...+......#+..
1080: 0F 01 AB 80 23 03 01 00  0D 80 2A 0B 0C 00 0F 01  ....#.....*.....
1090: 2A 0B F0 FF FF 7F 4A 0C  00 0F 01 19 00 0F 01 6F  *.....J........o
10A0: 76 0C 00 0F 01 4A F0 FF  FF 7F 0C 00 0F 01 52 A2  v....J........R.
10B0: 80 0C 00 0F 01 0C 00 0F  01 73 30 30 39 02 09 10  .........s009...
10C0: 0D 80 00 D9 10 45 A2 80  0C 00 0F 01 0C 00 0F 01  .....E..........
10D0: 73 30 31 30 01 80 01 EA  10 45 A2 80 0C 00 0F 01  s010.....E......
10E0: 0C 00 0F 01 73 30 31 30  01 80 4E 00 F0 FF FF 7F  ....s010..N.....
10F0: 4A 0C 00 0F 01 F0 FF FF  7F 6F 76 0C 00 0F 01 1C  J........ov.....
1100: 39 80 29 0B 0C 00 0F 01  1F 24 AC 80 01 80 01 00  9.)......$......
1110: 25 02 00 10 01 80 00 28  11 03 01 10 01 80 29 0D  %......(......).
1120: 09 00 0F 01 16 01 6D 11  02 00 10 02 80 00 3F 11  ......m.......?.
1130: 03 01 10 02 80 29 0D 09  00 0F 01 17 01 6D 11 02  .....).......m..
1140: 00 10 03 80 00 56 11 03  01 10 03 80 29 0D 09 00  .....V......)...
1150: 0F 01 18 01 6D 11 02 00  10 04 80 00 6D 11 29 0D  ....m.......m.).
1160: 09 00 0F 01 1D 03 01 10  04 80 01 6D 11 45 A2 80  ...........m.E..
1170: F0 FF FF 7F F0 FF FF 7F  73 30 34 34 01 80 27 0B  ........s044..'.
1180: 19 00 0F 01 1A 79 00 0C  00 0F 01 19 00 0F 01 1C  .....y..........
1190: 09 80 29 0B 0C 00 0F 01  16 29 0B 0C 00 0F 01 23  ..)......).....#
11A0: 55 A2 80 F0 FF FF 7F F0  FF FF 7F 73 30 34 34 45  U..........s044E
11B0: A2 80 F0 FF FF 7F F0 FF  FF 7F 73 30 34 32 01 80  ..........s042..
11C0: 4E 00 8A 00 0F 01 79 00  0C 00 0F 01 F0 FF FF 7F  N.....y.........
11D0: 4A 0C 00 0F 01 F0 FF FF  7F 6F 76 0C 00 0F 01 2B  J........ov....+
11E0: 0C 00 0F 01 AD 80 23 29  0B 0C 00 0F 01 24 52 A2  ......#).....$R.
11F0: 80 F0 FF FF 7F F0 FF FF  7F 73 30 34 32 45 A2 80  .........s042E..
1200: F0 FF FF 7F F0 FF FF 7F  73 30 34 35 01 80 7B 0C  ........s045..{.
1210: 00 0F 01 27 0B 0C 00 0F  01 19 79 00 F0 FF FF 7F  ...'......y.....
1220: 0C 00 0F 01 1C 50 80 1C  50 80 45 93 80 F0 FF FF  .....P..P.E.....
1230: 7F F0 FF FF 7F 66 64 6F  31 01 80 55 A2 80 F0 FF  .....fdo1..U....
1240: FF 7F F0 FF FF 7F 73 30  34 35 2A 0B 19 00 0F 01  ......s045*.....
1250: 2A 0B 0C 00 0F 01 2A 0B  0A 00 0F 01 2A 0B 0B 00  *.....*.....*...
1260: 0F 01 1C 09 80 78 7B F0  FF FF 7F 46 00 45 93 80  .....x{....F.E..
1270: F0 FF FF 7F F0 FF FF 7F  66 64 69 31 01 80 20 00  ........fdi1.. .
1280: 21 00                                             !.              
```

#### Opcodes

```
  0: 0x0B1F [0x42] SET_CLI_EVENT_CANCEL_DATA()
  1: 0x0B20 [0x46] CAMERA_CONTROL: Disable user control
  2: 0x0B22 [0x69] SET_SOUND_VOLUME: Mute Master
  3: 0x0B26 [0x5C] MUSIC_CONTROL: Set Idle (Day) music to song 151*
  4: 0x0B2A [0x5C] MUSIC_CONTROL: Set Idle (Night) music to song 151*
  5: 0x0B2E [0x29] REQ_SET_WAIT(priority=0x08, entity_id=LocalPlayer, tag_num=0x0A)
  6: 0x0B35 [0x29] REQ_SET_WAIT(priority=0x0B, entity_id=Hakkuru-Rinkuru (ID: 17760266/0x010F000A), tag_num=0x1C)
  7: 0x0B3C [0x29] REQ_SET_WAIT(priority=0x0B, entity_id=Kuroido-Moido (ID: 17760267/0x010F000B), tag_num=0x19)
  8: 0x0B43 [0x4E] SET_ENTITY_HIDE_FLAG: Hide Ajido-Marujido (ID: 17760281/0x010F0019)
  9: 0x0B49 [0x4E] SET_ENTITY_HIDE_FLAG: Hide Unnamed NPC (ID: 17760420/0x010F00A4)
 10: 0x0B4F [0x2C] CREATE_SCHEDULER_TASK: Create scheduler "wof4" with entities [Ajido-Marujido (ID: 17760281/0x010F0019), Ajido-Marujido (ID: 17760281/0x010F0019)]
 11: 0x0B5C [0x37] UPDATE_EVENT_POSITION_AND_DIR: x=-190.625*, z=143.043*, y=-2.385*, direction=313.4°*
 12: 0x0B65 [0x34] LOAD_UNLOAD_ZONE(zone_id=239*)
 13: 0x0B68 [0x77] SET_EVENT_TIME_WEATHER(hour=0*, weather=0*)
 14: 0x0B6D [0x1C] WAIT(300* ticks)
 15: 0x0B70 [0x45] LOAD_SCHEDULED_TASK: Load scheduler "s001" with entities [LocalPlayer, LocalPlayer], work=[139*, 0*]
 16: 0x0B81 [0x1C] WAIT(30* ticks)
 17: 0x0B84 [0x45] LOAD_SCHEDULED_TASK: Load scheduler "fdi2" with entities [EventEntity, EventEntity], work=[200*, 0*]
 18: 0x0B95 [0x1C] WAIT(80* ticks)
 19: 0x0B98 [0x1C] WAIT(70* ticks)
 20: 0x0B9B [0x67] HIDE_HUD_ELEMENTS(param1=0x807A, param2=0x807A)
 21: 0x0BA0 [0x48] [System] [11298*]:
    → "V $3P The Federation of Windurst... An ancient capital nurtured by the boughs of a great tree, blessed by magical waters, and protected by the moon and stars."
 22: 0x0BA3 [0x23] WAIT_FOR_DIALOG_INTERACTION
 23: 0x0BA4 [0x45] LOAD_SCHEDULED_TASK: Load scheduler "fdo1" with entities [EventEntity, EventEntity], work=[200*, 0*]
 24: 0x0BB5 [0x55] WAIT_LOAD_SCHEDULER: Wait for scheduler "s001" with entities [LocalPlayer, LocalPlayer], work=139*
 25: 0x0BC4 [0x45] LOAD_SCHEDULED_TASK: Load scheduler "s002" with entities [LocalPlayer, LocalPlayer], work=[139*, 0*]
 26: 0x0BD5 [0x1C] WAIT(1* ticks)
 27: 0x0BD8 [0x45] LOAD_SCHEDULED_TASK: Load scheduler "fdi1" with entities [EventEntity, EventEntity], work=[200*, 0*]
 28: 0x0BE9 [0x67] HIDE_HUD_ELEMENTS(param1=0x807A, param2=0x8095)
 29: 0x0BEE [0x48] [System] [11299*]:
    → "d $3TThere is a legend in this country. In a time forgotten, a people forced to wander by starvation and cold were led to this land by a wondrous star."
 30: 0x0BF1 [0x23] WAIT_FOR_DIALOG_INTERACTION
 31: 0x0BF2 [0x1C] WAIT(30* ticks)
 32: 0x0BF5 [0x67] HIDE_HUD_ELEMENTS(param1=0x8086, param2=0x8095)
 33: 0x0BFA [0x48] [System] [11300*]:
    → "R $3TWhen that star returned to the heavens, it sent to the earth a spiritual medium, the first Star Sibyl, who could hear its voice. She promised Windurst glory and prosperity."
 34: 0x0BFD [0x23] WAIT_FOR_DIALOG_INTERACTION
 35: 0x0BFE [0x1C] WAIT(15* ticks)
 36: 0x0C01 [0x45] LOAD_SCHEDULED_TASK: Load scheduler "fdo1" with entities [EventEntity, EventEntity], work=[200*, 0*]
 37: 0x0C12 [0x55] WAIT_LOAD_SCHEDULER: Wait for scheduler "s002" with entities [LocalPlayer, LocalPlayer], work=139*
 38: 0x0C21 [0x1C] WAIT(60* ticks)
 39: 0x0C24 [0x45] LOAD_SCHEDULED_TASK: Load scheduler "s000" with entities [LocalPlayer, LocalPlayer], work=[139*, 0*]
 40: 0x0C35 [0x45] LOAD_SCHEDULED_TASK: Load scheduler "fdi1" with entities [EventEntity, EventEntity], work=[200*, 0*]
 41: 0x0C46 [0x67] HIDE_HUD_ELEMENTS(param1=0x8098, param2=0x8095)
 42: 0x0C4B [0x48] [System] [11301*]:
    → "\ $3TWith each passing eon, the people came to excel at magic more and more, giving Windurst far greater wisdom and power."
 43: 0x0C4E [0x23] WAIT_FOR_DIALOG_INTERACTION
 44: 0x0C4F [0x1C] WAIT(30* ticks)
 45: 0x0C52 [0x67] HIDE_HUD_ELEMENTS(param1=0x8086, param2=0x8095)
 46: 0x0C57 [0x48] [System] [11302*]:
    → "^ $3TFive ministries, each specializing in a school of knowledge, became politically influential institutions. This elevated Windurst to become a city of academics."
 47: 0x0C5A [0x23] WAIT_FOR_DIALOG_INTERACTION
 48: 0x0C5B [0x1C] WAIT(30* ticks)
 49: 0x0C5E [0x45] LOAD_SCHEDULED_TASK: Load scheduler "fdo1" with entities [EventEntity, EventEntity], work=[200*, 0*]
 50: 0x0C6F [0x55] WAIT_LOAD_SCHEDULER: Wait for scheduler "s000" with entities [LocalPlayer, LocalPlayer], work=139*
 51: 0x0C7E [0x1C] WAIT(60* ticks)
 52: 0x0C81 [0x45] LOAD_SCHEDULED_TASK: Load scheduler "s005" with entities [LocalPlayer, LocalPlayer], work=[139*, 0*]
 53: 0x0C92 [0x45] LOAD_SCHEDULED_TASK: Load scheduler "fdi1" with entities [EventEntity, EventEntity], work=[200*, 0*]
 54: 0x0CA3 [0x67] HIDE_HUD_ELEMENTS(param1=0x8009, param2=0x8095)
 55: 0x0CA8 [0x1C] WAIT(30* ticks)
 56: 0x0CAB [0x67] HIDE_HUD_ELEMENTS(param1=0x804E, param2=0x8095)
 57: 0x0CB0 [0x48] [System] [11303*]:
    → "a $3TIn recent years, new bonds were made with the roaming tribes of Mithra, causing Windurst to become even bigger than before."
 58: 0x0CB3 [0x23] WAIT_FOR_DIALOG_INTERACTION
 59: 0x0CB4 [0x1C] WAIT(30* ticks)
 60: 0x0CB7 [0x67] HIDE_HUD_ELEMENTS(param1=0x809C, param2=0x8095)
 61: 0x0CBC [0x48] [System] [11304*]:
    → "W $3TBut the people's wish remains unchanged... Lasting peace... Eternal tranquility... Under the watch of the far-off stars."
 62: 0x0CBF [0x23] WAIT_FOR_DIALOG_INTERACTION
 63: 0x0CC0 [0x1C] WAIT(30* ticks)
 64: 0x0CC3 [0x45] LOAD_SCHEDULED_TASK: Load scheduler "fdo2" with entities [LocalPlayer, LocalPlayer], work=[200*, 0*]
 65: 0x0CD4 [0x55] WAIT_LOAD_SCHEDULER: Wait for scheduler "fdo2" with entities [LocalPlayer, LocalPlayer], work=200*
 66: 0x0CE3 [0x55] WAIT_LOAD_SCHEDULER: Wait for scheduler "s005" with entities [LocalPlayer, LocalPlayer], work=139*
 67: 0x0CF2 [0x45] LOAD_SCHEDULED_TASK: Load scheduler "fao1" with entities [LocalPlayer, LocalPlayer], work=[200*, 0*]
 68: 0x0D03 [0x1C] WAIT(60* ticks)
 69: 0x0D06 [0x67] HIDE_HUD_ELEMENTS(param1=0x8086, param2=0x809E)
 70: 0x0D0B [0x48] [System] [11305*]:
    → "$34 And now, a new star of hope has been borne to this earth..."
 71: 0x0D0E [0x45] LOAD_SCHEDULED_TASK: Load scheduler "fai1" with entities [LocalPlayer, LocalPlayer], work=[200*, 0*]
 72: 0x0D1F [0x1C] WAIT(180* ticks)
 73: 0x0D22 [0x45] LOAD_SCHEDULED_TASK: Load scheduler "fao1" with entities [LocalPlayer, LocalPlayer], work=[200*, 0*]
 74: 0x0D33 [0x1C] WAIT(120* ticks)
 75: 0x0D36 [0x23] WAIT_FOR_DIALOG_INTERACTION
 76: 0x0D37 [0x67] HIDE_HUD_ELEMENTS(param1=0x804E, param2=0x809E)
 77: 0x0D3C [0x48] [System] [11306*]:
    → "^ $34 What is about to begin here is an enduring tale, woven by that star..."
 78: 0x0D3F [0x45] LOAD_SCHEDULED_TASK: Load scheduler "fai1" with entities [LocalPlayer, LocalPlayer], work=[200*, 0*]
 79: 0x0D50 [0x1C] WAIT(180* ticks)
 80: 0x0D53 [0x45] LOAD_SCHEDULED_TASK: Load scheduler "fao1" with entities [LocalPlayer, LocalPlayer], work=[200*, 0*]
 81: 0x0D64 [0x1C] WAIT(120* ticks)
 82: 0x0D67 [0x23] WAIT_FOR_DIALOG_INTERACTION
 83: 0x0D68 [0x68] SHOW_HUD_ELEMENTS()
 84: 0x0D69 [0x69] SET_SOUND_VOLUME: Unmute Master
 85: 0x0D6D [0x45] LOAD_SCHEDULED_TASK: Load scheduler "s003" with entities [LocalPlayer, LocalPlayer], work=[139*, 0*]
 86: 0x0D7E [0x45] LOAD_SCHEDULED_TASK: Load scheduler "fdi2" with entities [LocalPlayer, LocalPlayer], work=[200*, 0*]
 87: 0x0D8F [0x55] WAIT_LOAD_SCHEDULER: Wait for scheduler "fdi2" with entities [LocalPlayer, LocalPlayer], work=200*
 88: 0x0D9E [0x78] ENABLE_GAME_TIMER_RESET_WEATHER()
 89: 0x0D9F [0x35] LOAD_ZONE_NO_CLOSE(zone_id=240*)
 90: 0x0DA2 [0x77] SET_EVENT_TIME_WEATHER(hour=15*, weather=0*)
 91: 0x0DA7 [0x4E] SET_ENTITY_HIDE_FLAG: Show LocalPlayer
 92: 0x0DAD [0x45] LOAD_SCHEDULED_TASK: Load scheduler "s050" with entities [LocalPlayer, LocalPlayer], work=[140*, 0*]
 93: 0x0DBE [0x1C] WAIT(100* ticks)
 94: 0x0DC1 [0x52] END_LOAD_SCHEDULER: End scheduler "s050" with entities [LocalPlayer, LocalPlayer], work=140*
 95: 0x0DD0 [0x80] LOAD_WAIT(entity=LocalPlayer)
 96: 0x0DD5 [0x80] LOAD_WAIT(entity=Hakkuru-Rinkuru (ID: 17760266/0x010F000A))
 97: 0x0DDA [0x80] LOAD_WAIT(entity=Kuroido-Moido (ID: 17760267/0x010F000B))
 98: 0x0DDF [0x45] LOAD_SCHEDULED_TASK: Load scheduler "s001" with entities [LocalPlayer, LocalPlayer], work=[140*, 0*]
 99: 0x0DF0 [0x4E] SET_ENTITY_HIDE_FLAG: Show LocalPlayer
100: 0x0DF6 [0x45] LOAD_SCHEDULED_TASK: Load scheduler "fai1" with entities [LocalPlayer, LocalPlayer], work=[200*, 0*]
101: 0x0E07 [0x4E] SET_ENTITY_HIDE_FLAG: Show Semih Lafihna (ID: 17760268/0x010F000C)
102: 0x0E0D [0x80] LOAD_WAIT(entity=Semih Lafihna (ID: 17760268/0x010F000C))
103: 0x0E12 [0x2C] CREATE_SCHEDULER_TASK: Create scheduler "wof4" with entities [Semih Lafihna (ID: 17760268/0x010F000C), Semih Lafihna (ID: 17760268/0x010F000C)]
104: 0x0E1F [0x29] REQ_SET_WAIT(priority=0x0B, entity_id=LocalPlayer, tag_num=0x33)
105: 0x0E26 [0x29] REQ_SET_WAIT(priority=0x0B, entity_id=Semih Lafihna (ID: 17760268/0x010F000C), tag_num=0x13)
106: 0x0E2D [0x55] WAIT_LOAD_SCHEDULER: Wait for scheduler "s001" with entities [LocalPlayer, LocalPlayer], work=140*
107: 0x0E3C [0x1C] WAIT(50* ticks)
108: 0x0E3F [0x45] LOAD_SCHEDULED_TASK: Load scheduler "s050" with entities [LocalPlayer, LocalPlayer], work=[140*, 0*]
109: 0x0E50 [0x29] REQ_SET_WAIT(priority=0x0B, entity_id=Hakkuru-Rinkuru (ID: 17760266/0x010F000A), tag_num=0x22)
110: 0x0E57 [0x45] LOAD_SCHEDULED_TASK: Load scheduler "s002" with entities [LocalPlayer, LocalPlayer], work=[140*, 0*]
111: 0x0E68 [0x4A] Hakkuru-Rinkuru (ID: 17760266/0x010F000A) looks at Kuroido-Moido (ID: 17760267/0x010F000B)
112: 0x0E71 [0x27] REQ_SET(priority=0x0B, entity_id=Hakkuru-Rinkuru (ID: 17760266/0x010F000A), tag_num=0x1D)
113: 0x0E78 [0x2B] Hakkuru-Rinkuru (ID: 17760266/0x010F000A) [3861*]:
    → "What's the matter with him? It's been weeks since he suddenly upped and left us in a helter-skelter."
114: 0x0E7F [0x23] WAIT_FOR_DIALOG_INTERACTION
115: 0x0E80 [0x2B] Hakkuru-Rinkuru (ID: 17760266/0x010F000A) [3862*]:
    → "And when he finally sends us a teensy-weensy message, it just reads, "I have a lot of luggage, so come meet me at the airship port!""
116: 0x0E87 [0x23] WAIT_FOR_DIALOG_INTERACTION
117: 0x0E88 [0x2A] GET_REQ_LEVEL(level=11, entity_id=Hakkuru-Rinkuru (ID: 17760266/0x010F000A))
118: 0x0E8E [0x52] END_LOAD_SCHEDULER: End scheduler "s002" with entities [LocalPlayer, LocalPlayer], work=140*
119: 0x0E9D [0x45] LOAD_SCHEDULED_TASK: Load scheduler "s004" with entities [LocalPlayer, LocalPlayer], work=[140*, 0*]
120: 0x0EAE [0x4A] Hakkuru-Rinkuru (ID: 17760266/0x010F000A) looks at Kuroido-Moido (ID: 17760267/0x010F000B)
121: 0x0EB7 [0x29] REQ_SET_WAIT(priority=0x0B, entity_id=Kuroido-Moido (ID: 17760267/0x010F000B), tag_num=0x20)
122: 0x0EBE [0x29] REQ_SET_WAIT(priority=0x08, entity_id=Kuroido-Moido (ID: 17760267/0x010F000B), tag_num=0x05)
123: 0x0EC5 [0x29] REQ_SET_WAIT(priority=0x0B, entity_id=Hakkuru-Rinkuru (ID: 17760266/0x010F000A), tag_num=0x24)
124: 0x0ECC [0x29] REQ_SET_WAIT(priority=0x08, entity_id=Kuroido-Moido (ID: 17760267/0x010F000B), tag_num=0x06)
125: 0x0ED3 [0x4A] Kuroido-Moido (ID: 17760267/0x010F000B) looks at Hakkuru-Rinkuru (ID: 17760266/0x010F000A)
126: 0x0EDC [0x29] REQ_SET_WAIT(priority=0x0B, entity_id=Kuroido-Moido (ID: 17760267/0x010F000B), tag_num=0x21)
127: 0x0EE3 [0x45] LOAD_SCHEDULED_TASK: Load scheduler "s006" with entities [LocalPlayer, LocalPlayer], work=[140*, 0*]
128: 0x0EF4 [0x4A] Hakkuru-Rinkuru (ID: 17760266/0x010F000A) looks at Kuroido-Moido (ID: 17760267/0x010F000B)
129: 0x0EFD [0x2B] Hakkuru-Rinkuru (ID: 17760266/0x010F000A) [3867*]:
    → "Ahhh... The way things are going, I wonder whether our minister can really save Windurst..."
130: 0x0F04 [0x23] WAIT_FOR_DIALOG_INTERACTION
131: 0x0F05 [0x4A] Hakkuru-Rinkuru (ID: 17760266/0x010F000A) looks at Semih Lafihna (ID: 17760268/0x010F000C)
132: 0x0F0E [0x29] REQ_SET_WAIT(priority=0x0B, entity_id=Hakkuru-Rinkuru (ID: 17760266/0x010F000A), tag_num=0x26)
133: 0x0F15 [0x45] LOAD_SCHEDULED_TASK: Load scheduler "s006" with entities [LocalPlayer, LocalPlayer], work=[140*, 0*]
134: 0x0F26 [0x4A] Kuroido-Moido (ID: 17760267/0x010F000B) looks at Semih Lafihna (ID: 17760268/0x010F000C)
135: 0x0F2F [0x1C] WAIT(30* ticks)
136: 0x0F32 [0x27] REQ_SET(priority=0x08, entity_id=Kuroido-Moido (ID: 17760267/0x010F000B), tag_num=0x0D)
137: 0x0F39 [0x2B] Kuroido-Moido (ID: 17760267/0x010F000B) [3869*]:
    → "I bet it's got to do with the minister again. I suggest we get out of here before she asks us all sorts of questions and gets us into trouble."
138: 0x0F40 [0x23] WAIT_FOR_DIALOG_INTERACTION
139: 0x0F41 [0x2A] GET_REQ_LEVEL(level=8, entity_id=Kuroido-Moido (ID: 17760267/0x010F000B))
140: 0x0F47 [0x4A] Kuroido-Moido (ID: 17760267/0x010F000B) looks at Hakkuru-Rinkuru (ID: 17760266/0x010F000A)
141: 0x0F50 [0x29] REQ_SET_WAIT(priority=0x0B, entity_id=Kuroido-Moido (ID: 17760267/0x010F000B), tag_num=0x22)
142: 0x0F57 [0x45] LOAD_SCHEDULED_TASK: Load scheduler "s007" with entities [LocalPlayer, LocalPlayer], work=[140*, 0*]
143: 0x0F68 [0x27] REQ_SET(priority=0x0B, entity_id=Semih Lafihna (ID: 17760268/0x010F000C), tag_num=0x14)
144: 0x0F6F [0x27] REQ_SET(priority=0x0B, entity_id=Hakkuru-Rinkuru (ID: 17760266/0x010F000A), tag_num=0x1F)
145: 0x0F76 [0x27] REQ_SET(priority=0x0B, entity_id=Kuroido-Moido (ID: 17760267/0x010F000B), tag_num=0x1D)
146: 0x0F7D [0x1C] WAIT(100* ticks)
147: 0x0F80 [0x4A] LocalPlayer looks at Semih Lafihna (ID: 17760268/0x010F000C)
148: 0x0F89 [0x55] WAIT_LOAD_SCHEDULER: Wait for scheduler "s007" with entities [LocalPlayer, LocalPlayer], work=140*
149: 0x0F98 [0x02] IF !(Work_Zone[9] == 8*) GOTO 0x0FB4
150: 0x0FA0 [0x45] LOAD_SCHEDULED_TASK: Load scheduler "s100" with entities [LocalPlayer, LocalPlayer], work=[140*, 0*]
151: 0x0FB1 [0x01] GOTO 0x0FC5
152: 0x0FB4 [0x45] LOAD_SCHEDULED_TASK: Load scheduler "s008" with entities [LocalPlayer, LocalPlayer], work=[140*, 0*]

SUBROUTINE_0FC5:
153: 0x0FC5 [0x2A] GET_REQ_LEVEL(level=11, entity_id=Semih Lafihna (ID: 17760268/0x010F000C))
154: 0x0FCB [0x1C] WAIT(10* ticks)
155: 0x0FCE [0x4A] Semih Lafihna (ID: 17760268/0x010F000C) looks at LocalPlayer
156: 0x0FD7 [0x6F] WAIT_FRAME_DELAY: Yield until WaitTime reaches zero
157: 0x0FD8 [0x76] CHECK_ENTITY_RENDER_FLAGS: Wait until Semih Lafihna (ID: 17760268/0x010F000C) Render.Flags0 and Render.Flags3 conditions are met
158: 0x0FDD [0x29] REQ_SET_WAIT(priority=0x0B, entity_id=Semih Lafihna (ID: 17760268/0x010F000C), tag_num=0x1C)
159: 0x0FE4 [0x24] CREATE_DIALOG(message_id=3873*, default_option=0*, option_flags=0*)
    → "Are you new to Windurst? [Yes./No.]"
160: 0x0FEB [0x25] WAIT_DIALOG_SELECT()
161: 0x0FEC [0x02] IF !(Work_Zone[0] == 0*) GOTO 0x0FFC
162: 0x0FF4 [0x03] ExtData[1]->WorkLocal[1] = 1*
163: 0x0FF9 [0x01] GOTO 0x100C
164: 0x0FFC [0x02] IF !(Work_Zone[0] == 1*) GOTO 0x100C
165: 0x1004 [0x03] ExtData[1]->WorkLocal[1] = 0*
166: 0x1009 [0x01] GOTO 0x100C

SUBROUTINE_100C:
167: 0x100C [0x02] IF !(Work_Zone[9] == 8*) GOTO 0x1026
168: 0x1014 [0x52] END_LOAD_SCHEDULER: End scheduler "s100" with entities [LocalPlayer, LocalPlayer], work=140*
169: 0x1023 [0x01] GOTO 0x1035
170: 0x1026 [0x52] END_LOAD_SCHEDULER: End scheduler "s008" with entities [LocalPlayer, LocalPlayer], work=140*

SUBROUTINE_1035:
171: 0x1035 [0x45] LOAD_SCHEDULED_TASK: Load scheduler "s009" with entities [Semih Lafihna (ID: 17760268/0x010F000C), Semih Lafihna (ID: 17760268/0x010F000C)], work=[140*, 0*]
172: 0x1046 [0x4E] SET_ENTITY_HIDE_FLAG: Hide LocalPlayer
173: 0x104C [0x27] REQ_SET(priority=0x0B, entity_id=Semih Lafihna (ID: 17760268/0x010F000C), tag_num=0x15)
174: 0x1053 [0x27] REQ_SET(priority=0x0B, entity_id=LocalPlayer, tag_num=0x34)
175: 0x105A [0x02] IF !(ExtData[1]->WorkLocal[1] == 1*) GOTO 0x1075
176: 0x1062 [0x2B] Semih Lafihna (ID: 17760268/0x010F000C) [3874*]:
    → "How do you like it? Windurst is a land of peace and beauty."
177: 0x1069 [0x23] WAIT_FOR_DIALOG_INTERACTION
178: 0x106A [0x2B] Semih Lafihna (ID: 17760268/0x010F000C) [3875*]:
    → "Unlike those other two countries which are busy spilling needless blood as they fight forrr no gain..."
179: 0x1071 [0x23] WAIT_FOR_DIALOG_INTERACTION
180: 0x1072 [0x01] GOTO 0x108A
181: 0x1075 [0x2B] Semih Lafihna (ID: 17760268/0x010F000C) [3876*]:
    → "Well then, you also well know that Windurst is a land of peace and beauty."
182: 0x107C [0x23] WAIT_FOR_DIALOG_INTERACTION
183: 0x107D [0x2B] Semih Lafihna (ID: 17760268/0x010F000C) [3877*]:
    → "Unlike those other two countries which are busy spilling needless blood as they fight forrr no gain..."
184: 0x1084 [0x23] WAIT_FOR_DIALOG_INTERACTION
185: 0x1085 [0x03] ExtData[1]->WorkLocal[1] = 8*

SUBROUTINE_108A:
186: 0x108A [0x2A] GET_REQ_LEVEL(level=11, entity_id=Semih Lafihna (ID: 17760268/0x010F000C))
187: 0x1090 [0x2A] GET_REQ_LEVEL(level=11, entity_id=LocalPlayer)
188: 0x1096 [0x4A] Semih Lafihna (ID: 17760268/0x010F000C) looks at Ajido-Marujido (ID: 17760281/0x010F0019)
189: 0x109F [0x6F] WAIT_FRAME_DELAY: Yield until WaitTime reaches zero
190: 0x10A0 [0x76] CHECK_ENTITY_RENDER_FLAGS: Wait until Semih Lafihna (ID: 17760268/0x010F000C) Render.Flags0 and Render.Flags3 conditions are met
191: 0x10A5 [0x4A] LocalPlayer looks at Semih Lafihna (ID: 17760268/0x010F000C)
192: 0x10AE [0x52] END_LOAD_SCHEDULER: End scheduler "s009" with entities [Semih Lafihna (ID: 17760268/0x010F000C), Semih Lafihna (ID: 17760268/0x010F000C)], work=140*
193: 0x10BD [0x02] IF !(Work_Zone[9] == 8*) GOTO 0x10D9
194: 0x10C5 [0x45] LOAD_SCHEDULED_TASK: Load scheduler "s010" with entities [Semih Lafihna (ID: 17760268/0x010F000C), Semih Lafihna (ID: 17760268/0x010F000C)], work=[140*, 0*]
195: 0x10D6 [0x01] GOTO 0x10EA
196: 0x10D9 [0x45] LOAD_SCHEDULED_TASK: Load scheduler "s010" with entities [Semih Lafihna (ID: 17760268/0x010F000C), Semih Lafihna (ID: 17760268/0x010F000C)], work=[140*, 0*]

SUBROUTINE_10EA:
197: 0x10EA [0x4E] SET_ENTITY_HIDE_FLAG: Show LocalPlayer
198: 0x10F0 [0x4A] Semih Lafihna (ID: 17760268/0x010F000C) looks at LocalPlayer
