# 17760344 - Shanruru

## Common Data

| Field            | Value                   |
|------------------|-------------------------|
| Zone             | Port Windurst (ID: 240) |
| Block Size       | 1404 bytes              |
| Total Events     | 61                      |
| References Count | 47                      |

## List of Events

| Event ID                   | Entrypoint   |   Size |   Instructions |
|----------------------------|--------------|--------|----------------|
| [65535](#event-65535)      | 0x0000       |      1 |              1 |
| [65535.1](#event-655351)   | 0x0001       |     16 |              2 |
| [65535.2](#event-655352)   | 0x0011       |     22 |              4 |
| [65535.3](#event-655353)   | 0x0027       |     16 |              2 |
| [65535.4](#event-655354)   | 0x0037       |     22 |              4 |
| [65535.5](#event-655355)   | 0x004D       |      9 |              3 |
| [65535.6](#event-655356)   | 0x0056       |     16 |              2 |
| [65535.7](#event-655357)   | 0x0066       |     22 |              4 |
| [65535.8](#event-655358)   | 0x007C       |     16 |              2 |
| [65535.9](#event-655359)   | 0x008C       |     14 |              2 |
| [65535.10](#event-6553510) | 0x009A       |     16 |              2 |
| [65535.11](#event-6553511) | 0x00AA       |     14 |              2 |
| [65535.12](#event-6553512) | 0x00B8       |     16 |              2 |
| [65535.13](#event-6553513) | 0x00C8       |     14 |              2 |
| [65535.14](#event-6553514) | 0x00D6       |     16 |              2 |
| [65535.15](#event-6553515) | 0x00E6       |     14 |              2 |
| [65535.16](#event-6553516) | 0x00F4       |     16 |              2 |
| [65535.17](#event-6553517) | 0x0104       |     14 |              2 |
| [65535.18](#event-6553518) | 0x0112       |     22 |              3 |
| [65535.19](#event-6553519) | 0x0128       |     20 |              3 |
| [65535.20](#event-6553520) | 0x013C       |     22 |              3 |
| [65535.21](#event-6553521) | 0x0152       |     20 |              3 |
| [367](#event-367)          | 0x0166       |     29 |             10 |
| [368](#event-368)          | 0x0183       |      1 |              1 |
| [377](#event-377)          | 0x0184       |     33 |             12 |
| [384](#event-384)          | 0x01A5       |     29 |             10 |
| [378](#event-378)          | 0x01C2       |      1 |              1 |
| [391](#event-391)          | 0x01C3       |      1 |              1 |
| [400](#event-400)          | 0x01C4       |      1 |              1 |
| [412](#event-412)          | 0x01C5       |     33 |             12 |
| [413](#event-413)          | 0x01E6       |      1 |              1 |
| [420](#event-420)          | 0x01E7       |     29 |             10 |
| [421](#event-421)          | 0x0204       |      1 |              1 |
| [428](#event-428)          | 0x0205       |     33 |             12 |
| [430](#event-430)          | 0x0226       |      1 |              1 |
| [439](#event-439)          | 0x0227       |     40 |             13 |
| [446](#event-446)          | 0x024F       |     33 |             12 |
| [496](#event-496)          | 0x0270       |      1 |              1 |
| [497](#event-497)          | 0x0271       |      1 |              1 |
| [504](#event-504)          | 0x0272       |     47 |             14 |
| [531](#event-531)          | 0x02A1       |     29 |             10 |
| [522](#event-522)          | 0x02BE       |      7 |              2 |
| [65535.22](#event-6553522) | 0x02C5       |     10 |              2 |
| [65535.23](#event-6553523) | 0x02CF       |     38 |              8 |
| [65535.24](#event-6553524) | 0x02F5       |      5 |              3 |
| [529](#event-529)          | 0x02FA       |     55 |             18 |
| [532](#event-532)          | 0x0331       |      1 |              1 |
| [534](#event-534)          | 0x0332       |      7 |              2 |
| [541](#event-541)          | 0x0339       |     33 |             12 |
| [542](#event-542)          | 0x035A       |      7 |              2 |
| [591](#event-591)          | 0x0361       |     37 |             14 |
| [915](#event-915)          | 0x0386       |      1 |              1 |
| [65535.25](#event-6553525) | 0x0387       |     15 |              5 |
| [916](#event-916)          | 0x0396       |      1 |              1 |
| [65535.26](#event-6553526) | 0x0397       |     15 |              5 |
| [924](#event-924)          | 0x03A6       |      1 |              1 |
| [65535.27](#event-6553527) | 0x03A7       |     15 |              5 |
| [923](#event-923)          | 0x03B6       |      1 |              1 |
| [925](#event-925)          | 0x03B7       |      1 |              1 |
| [932](#event-932)          | 0x03B8       |      1 |              1 |
| [933](#event-933)          | 0x03B9       |      1 |              1 |

## DAT References (imed_data)

|   Index | Hex Value   |   Dec Value |
|---------|-------------|-------------|
|       0 | 0x0055      |          85 |
|       1 | 0x001E      |          30 |
|       2 | 0x0056      |          86 |
|       3 | 0x1046      |        4166 |
|       4 | 0x1073      |        4211 |
|       5 | 0x1074      |        4212 |
|       6 | 0x1088      |        4232 |
|       7 | 0x10D6      |        4310 |
|       8 | 0x10D7      |        4311 |
|       9 | 0x10EE      |        4334 |
|      10 | 0x1105      |        4357 |
|      11 | 0x1106      |        4358 |
|      12 | 0x1121      |        4385 |
|      13 | 0x1122      |        4386 |
|      14 | 0x112F      |        4399 |
|      15 | 0x1130      |        4400 |
|      16 | 0x3095      |       12437 |
|      17 | 0x3096      |       12438 |
|      18 | 0x30DC      |       12508 |
|      19 | 0xFFFFE3B9  |  4294960057 |
|      20 | 0x2E2EA     |      189162 |
|      21 | 0xFFFFE890  |  4294961296 |
|      22 | 0x07C2      |        1986 |
|      23 | 0x0015      |          21 |
|      24 | 0xFFFFE69B  |  4294960795 |
|      25 | 0x2F133     |      192819 |
|      26 | 0xFFFFE891  |  4294961297 |
|      27 | 0x090F      |        2319 |
|      28 | 0xFFFF9AF0  |  4294941424 |
|      29 | 0x2F907     |      194823 |
|      30 | 0xFFFF9792  |  4294940562 |
|      31 | 0x2ECC9     |      191689 |
|      32 | 0x30E2      |       12514 |
|      33 | 0x3107      |       12551 |
|      34 | 0x3108      |       12552 |
|      35 | 0x3109      |       12553 |
|      36 | 0x310A      |       12554 |
|      37 | 0x3112      |       12562 |
|      38 | 0x3113      |       12563 |
|      39 | 0x31AF      |       12719 |
|      40 | 0x31B0      |       12720 |
|      41 | 0x31B1      |       12721 |
|      42 | 0xFFFFA5B0  |  4294944176 |
|      43 | 0x2E279     |      189049 |
|      44 | 0x0007      |           7 |
|      45 | 0xFFFFA5FA  |  4294944250 |
|      46 | 0x2E375     |      189301 |

## String References

- **4166**: Why do I have to be the lookout again!? My brother and sister said they'd let me join in this time! Ohww, I'm always left out!
- **4211**: What happened? What went on just now?
- **4212**: I bet they decided something important without including me again, right? Ohww, I'm always left out!
- **4232**: How come you got a badge before I did? That's so unfair it's unforgivable! Ohww, I'm always left out!
- **4310**: Did you really-weally have a showdown with the Cat Burglar?
- **4311**: Why don't you guys let me join in all the fun? Ohww, I'm always left out!
- **4334**: One of the seven gadgets found in the Junior Investigator's Toolkit? Umm... Well... Maybe I'll bring a shovel! I kinda dig them! Ohww, but I'm so left out, I don't know what to do!
- **4357**: The culprit is always the one you least suspect. I know 'cause I've read almost every one of the Agatha Crystalie mystery series. So you can leave this case to me.
- **4358**: What do you mean, they've already solved "The Case of the Missing Mana Orb"? But the great detective Shanruru didn't get to make her appearance!? Ohww, they always leave me out!
- **4385**: I know, I know... I'm going to be left out again.We'll I don't care anymore!
- **4386**: You, [mister/miss], are going to be beaten by the wily Cat Burglar again, along with the rest of those losers!
- **4399**: <sniff> <sniff> I'm glad you all made it back safely!
- **4400**: You took so long to return that I got so worried and began to cry! <sob>...<sob>...
- **12437**: The Star Onion Brigade is gonna take on a grown-up? Ohww, they always leave me out!
- **12438**: If they keep leaving me out of things, I'm gonna be a grown-up myself soon! And then who am I supposed to play with!?
- **12508**: Nya\`h! I'm keeping a lookout!
- **12514**: Aaaah! Aaaaaaaah!
- **12551**: I was s-so s-scared.
- **12552**: I thought I was gonna be squished for sure!
- **12553**: I had to pinch my cheek to make sure I was still alive!
- **12554**: Now my cheek kinda hurts!
- **12562**: I was s-so s-scared.
- **12563**: I thought I was gonna be squished for sure!
- **12719**: I'm Shanruru, a member of the Star Onion Brigade. Pleased to meet you!
- **12720**: They let me into the S.O.B. to help find Joker. But now that we know where Joker is...
- **12721**: Now I get to huntaru down villains! I'm gonna be a defender of Windurst's peace!

## Events

### Event 65535

#### Metadata

| Field        | Value   |
|--------------|---------|
| Entrypoint   | 0x0000  |
| Data Size    | 1 bytes |
| Instructions | 1       |

```
      00 01 02 03 04 05 06 07  08 09 0A 0B 0C 0D 0E 0F
      -- -- -- -- -- -- -- --  -- -- -- -- -- -- -- --
0000: 00                                                .               
```

#### Opcodes

```
  0: 0x0000 [0x00] END_REQSTACK()
```

### Event 65535.1

#### Metadata

| Field        | Value    |
|--------------|----------|
| Entrypoint   | 0x0001   |
| Data Size    | 16 bytes |
| Instructions | 2        |

```
      00 01 02 03 04 05 06 07  08 09 0A 0B 0C 0D 0E 0F
      -- -- -- -- -- -- -- --  -- -- -- -- -- -- -- --
0000:    5B 00 80 F8 FF FF 7F  F8 FF FF 7F 74 6C 6B 30   [..........tlk0
0010: 00                                                .               
```

#### Opcodes

```
  0: 0x0001 [0x5B] LOAD_EXT_SCHEDULER: Load scheduler "tlk0" with entities [EventEntity, EventEntity], work=85*
  1: 0x0010 [0x00] END_REQSTACK()
```

### Event 65535.2

#### Metadata

| Field        | Value    |
|--------------|----------|
| Entrypoint   | 0x0011   |
| Data Size    | 22 bytes |
| Instructions | 4        |

```
      00 01 02 03 04 05 06 07  08 09 0A 0B 0C 0D 0E 0F
      -- -- -- -- -- -- -- --  -- -- -- -- -- -- -- --
0010:    53 F8 FF FF 7F F8 FF  FF 7F 74 6C 6B 30 5E 69   S........tlk0^i
0020: 64 6C 30 1C 01 80 00                              dl0....         
```

#### Opcodes

```
  0: 0x0011 [0x53] WAIT_SCHEDULER_TASK: Wait for scheduler "tlk0" with entities [EventEntity, EventEntity]
  1: 0x001E [0x5E] EventEntity goes idle (kills current action) (animation: "idl0")
  2: 0x0023 [0x1C] WAIT(30* ticks)
  3: 0x0026 [0x00] END_REQSTACK()
```

### Event 65535.3

#### Metadata

| Field        | Value    |
|--------------|----------|
| Entrypoint   | 0x0027   |
| Data Size    | 16 bytes |
| Instructions | 2        |

```
      00 01 02 03 04 05 06 07  08 09 0A 0B 0C 0D 0E 0F
      -- -- -- -- -- -- -- --  -- -- -- -- -- -- -- --
0020:                      5B  00 80 F8 FF FF 7F F8 FF         [........
0030: FF 7F 61 6E 67 30 00                              ..ang0.         
```

#### Opcodes

```
  0: 0x0027 [0x5B] LOAD_EXT_SCHEDULER: Load scheduler "ang0" with entities [EventEntity, EventEntity], work=85*
  1: 0x0036 [0x00] END_REQSTACK()
```

### Event 65535.4

#### Metadata

| Field        | Value    |
|--------------|----------|
| Entrypoint   | 0x0037   |
| Data Size    | 22 bytes |
| Instructions | 4        |

```
      00 01 02 03 04 05 06 07  08 09 0A 0B 0C 0D 0E 0F
      -- -- -- -- -- -- -- --  -- -- -- -- -- -- -- --
0030:                      53  F8 FF FF 7F F8 FF FF 7F         S........
0040: 61 6E 67 30 5E 69 64 6C  30 1C 01 80 00           ang0^idl0....   
```

#### Opcodes

```
  0: 0x0037 [0x53] WAIT_SCHEDULER_TASK: Wait for scheduler "ang0" with entities [EventEntity, EventEntity]
  1: 0x0044 [0x5E] EventEntity goes idle (kills current action) (animation: "idl0")
  2: 0x0049 [0x1C] WAIT(30* ticks)
  3: 0x004C [0x00] END_REQSTACK()
```

### Event 65535.5

#### Metadata

| Field        | Value   |
|--------------|---------|
| Entrypoint   | 0x004D  |
| Data Size    | 9 bytes |
| Instructions | 3       |

```
      00 01 02 03 04 05 06 07  08 09 0A 0B 0C 0D 0E 0F
      -- -- -- -- -- -- -- --  -- -- -- -- -- -- -- --
0040:                                         5E 69 64               ^id
0050: 6C 30 1C 01 80 00                                 l0....          
```

#### Opcodes

```
  0: 0x004D [0x5E] EventEntity goes idle (kills current action) (animation: "idl0")
  1: 0x0052 [0x1C] WAIT(30* ticks)
  2: 0x0055 [0x00] END_REQSTACK()
```

### Event 65535.6

#### Metadata

| Field        | Value    |
|--------------|----------|
| Entrypoint   | 0x0056   |
| Data Size    | 16 bytes |
| Instructions | 2        |

```
      00 01 02 03 04 05 06 07  08 09 0A 0B 0C 0D 0E 0F
      -- -- -- -- -- -- -- --  -- -- -- -- -- -- -- --
0050:                   5B 00  80 F8 FF FF 7F F8 FF FF        [.........
0060: 7F 6B 6F 77 30 00                                 .kow0.          
```

#### Opcodes

```
  0: 0x0056 [0x5B] LOAD_EXT_SCHEDULER: Load scheduler "kow0" with entities [EventEntity, EventEntity], work=85*
  1: 0x0065 [0x00] END_REQSTACK()
```

### Event 65535.7

#### Metadata

| Field        | Value    |
|--------------|----------|
| Entrypoint   | 0x0066   |
| Data Size    | 22 bytes |
| Instructions | 4        |

```
      00 01 02 03 04 05 06 07  08 09 0A 0B 0C 0D 0E 0F
      -- -- -- -- -- -- -- --  -- -- -- -- -- -- -- --
0060:                   53 F8  FF FF 7F F8 FF FF 7F 6B        S........k
0070: 6F 77 30 5E 69 64 6C 30  1C 01 80 00              ow0^idl0....    
```

#### Opcodes

```
  0: 0x0066 [0x53] WAIT_SCHEDULER_TASK: Wait for scheduler "kow0" with entities [EventEntity, EventEntity]
  1: 0x0073 [0x5E] EventEntity goes idle (kills current action) (animation: "idl0")
  2: 0x0078 [0x1C] WAIT(30* ticks)
  3: 0x007B [0x00] END_REQSTACK()
```

### Event 65535.8

#### Metadata

| Field        | Value    |
|--------------|----------|
| Entrypoint   | 0x007C   |
| Data Size    | 16 bytes |
| Instructions | 2        |

```
      00 01 02 03 04 05 06 07  08 09 0A 0B 0C 0D 0E 0F
      -- -- -- -- -- -- -- --  -- -- -- -- -- -- -- --
0070:                                      5B 02 80 F8              [...
0080: FF FF 7F F8 FF FF 7F 6A  74 30 30 00              .......jt00.    
```

#### Opcodes

```
  0: 0x007C [0x5B] LOAD_EXT_SCHEDULER: Load scheduler "jt00" with entities [EventEntity, EventEntity], work=86*
  1: 0x008B [0x00] END_REQSTACK()
```

### Event 65535.9

#### Metadata

| Field        | Value    |
|--------------|----------|
| Entrypoint   | 0x008C   |
| Data Size    | 14 bytes |
| Instructions | 2        |

```
      00 01 02 03 04 05 06 07  08 09 0A 0B 0C 0D 0E 0F
      -- -- -- -- -- -- -- --  -- -- -- -- -- -- -- --
0080:                                      53 F8 FF FF              S...
0090: 7F F8 FF FF 7F 6A 74 30  30 00                    .....jt00.      
```

#### Opcodes

```
  0: 0x008C [0x53] WAIT_SCHEDULER_TASK: Wait for scheduler "jt00" with entities [EventEntity, EventEntity]
  1: 0x0099 [0x00] END_REQSTACK()
```

### Event 65535.10

#### Metadata

| Field        | Value    |
|--------------|----------|
| Entrypoint   | 0x009A   |
| Data Size    | 16 bytes |
| Instructions | 2        |

```
      00 01 02 03 04 05 06 07  08 09 0A 0B 0C 0D 0E 0F
      -- -- -- -- -- -- -- --  -- -- -- -- -- -- -- --
0090:                                5B 02 80 F8 FF FF            [.....
00A0: 7F F8 FF FF 7F 6A 74 30  31 00                    .....jt01.      
```

#### Opcodes

```
  0: 0x009A [0x5B] LOAD_EXT_SCHEDULER: Load scheduler "jt01" with entities [EventEntity, EventEntity], work=86*
  1: 0x00A9 [0x00] END_REQSTACK()
```

### Event 65535.11

#### Metadata

| Field        | Value    |
|--------------|----------|
| Entrypoint   | 0x00AA   |
| Data Size    | 14 bytes |
| Instructions | 2        |

```
      00 01 02 03 04 05 06 07  08 09 0A 0B 0C 0D 0E 0F
      -- -- -- -- -- -- -- --  -- -- -- -- -- -- -- --
00A0:                                53 F8 FF FF 7F F8            S.....
00B0: FF FF 7F 6A 74 30 31 00                           ...jt01.        
```

#### Opcodes

```
  0: 0x00AA [0x53] WAIT_SCHEDULER_TASK: Wait for scheduler "jt01" with entities [EventEntity, EventEntity]
  1: 0x00B7 [0x00] END_REQSTACK()
```

### Event 65535.12

#### Metadata

| Field        | Value    |
|--------------|----------|
| Entrypoint   | 0x00B8   |
| Data Size    | 16 bytes |
| Instructions | 2        |

```
      00 01 02 03 04 05 06 07  08 09 0A 0B 0C 0D 0E 0F
      -- -- -- -- -- -- -- --  -- -- -- -- -- -- -- --
00B0:                          5B 00 80 F8 FF FF 7F F8          [.......
00C0: FF FF 7F 6A 6D 70 30 00                           ...jmp0.        
```

#### Opcodes

```
  0: 0x00B8 [0x5B] LOAD_EXT_SCHEDULER: Load scheduler "jmp0" with entities [EventEntity, EventEntity], work=85*
  1: 0x00C7 [0x00] END_REQSTACK()
```

### Event 65535.13

#### Metadata

| Field        | Value    |
|--------------|----------|
| Entrypoint   | 0x00C8   |
| Data Size    | 14 bytes |
| Instructions | 2        |

```
      00 01 02 03 04 05 06 07  08 09 0A 0B 0C 0D 0E 0F
      -- -- -- -- -- -- -- --  -- -- -- -- -- -- -- --
00C0:                          53 F8 FF FF 7F F8 FF FF          S.......
00D0: 7F 6A 6D 70 30 00                                 .jmp0.          
```

#### Opcodes

```
  0: 0x00C8 [0x53] WAIT_SCHEDULER_TASK: Wait for scheduler "jmp0" with entities [EventEntity, EventEntity]
  1: 0x00D5 [0x00] END_REQSTACK()
```

### Event 65535.14

#### Metadata

| Field        | Value    |
|--------------|----------|
| Entrypoint   | 0x00D6   |
| Data Size    | 16 bytes |
| Instructions | 2        |

```
      00 01 02 03 04 05 06 07  08 09 0A 0B 0C 0D 0E 0F
      -- -- -- -- -- -- -- --  -- -- -- -- -- -- -- --
00D0:                   5B 00  80 F8 FF FF 7F F8 FF FF        [.........
00E0: 7F 65 68 65 30 00                                 .ehe0.          
```

#### Opcodes

```
  0: 0x00D6 [0x5B] LOAD_EXT_SCHEDULER: Load scheduler "ehe0" with entities [EventEntity, EventEntity], work=85*
  1: 0x00E5 [0x00] END_REQSTACK()
```

### Event 65535.15

#### Metadata

| Field        | Value    |
|--------------|----------|
| Entrypoint   | 0x00E6   |
| Data Size    | 14 bytes |
| Instructions | 2        |

```
      00 01 02 03 04 05 06 07  08 09 0A 0B 0C 0D 0E 0F
      -- -- -- -- -- -- -- --  -- -- -- -- -- -- -- --
00E0:                   53 F8  FF FF 7F F8 FF FF 7F 65        S........e
00F0: 68 65 30 00                                       he0.            
```

#### Opcodes

```
  0: 0x00E6 [0x53] WAIT_SCHEDULER_TASK: Wait for scheduler "ehe0" with entities [EventEntity, EventEntity]
  1: 0x00F3 [0x00] END_REQSTACK()
```

### Event 65535.16

#### Metadata

| Field        | Value    |
|--------------|----------|
| Entrypoint   | 0x00F4   |
| Data Size    | 16 bytes |
| Instructions | 2        |

```
      00 01 02 03 04 05 06 07  08 09 0A 0B 0C 0D 0E 0F
      -- -- -- -- -- -- -- --  -- -- -- -- -- -- -- --
00F0:             5B 02 80 F8  FF FF 7F F8 FF FF 7F 6F      [..........o
0100: 72 62 30 00                                       rb0.            
```

#### Opcodes

```
  0: 0x00F4 [0x5B] LOAD_EXT_SCHEDULER: Load scheduler "orb0" with entities [EventEntity, EventEntity], work=86*
  1: 0x0103 [0x00] END_REQSTACK()
```

### Event 65535.17

#### Metadata

| Field        | Value    |
|--------------|----------|
| Entrypoint   | 0x0104   |
| Data Size    | 14 bytes |
| Instructions | 2        |

```
      00 01 02 03 04 05 06 07  08 09 0A 0B 0C 0D 0E 0F
      -- -- -- -- -- -- -- --  -- -- -- -- -- -- -- --
0100:             53 F8 FF FF  7F F8 FF FF 7F 6F 72 62      S........orb
0110: 30 00                                             0.              
```

#### Opcodes

```
  0: 0x0104 [0x53] WAIT_SCHEDULER_TASK: Wait for scheduler "orb0" with entities [EventEntity, EventEntity]
  1: 0x0111 [0x00] END_REQSTACK()
```

### Event 65535.18

#### Metadata

| Field        | Value    |
|--------------|----------|
| Entrypoint   | 0x0112   |
| Data Size    | 22 bytes |
| Instructions | 3        |

```
      00 01 02 03 04 05 06 07  08 09 0A 0B 0C 0D 0E 0F
      -- -- -- -- -- -- -- --  -- -- -- -- -- -- -- --
0110:       7C 00 F8 FF FF 7F  5B 00 80 F8 FF FF 7F F8    |.....[.......
0120: FF FF 7F 73 75 72 30 00                           ...sur0.        
```

#### Opcodes

```
  0: 0x0112 [0x7C] EventEntity->Render.Flags2 |= 0x00
  1: 0x0118 [0x5B] LOAD_EXT_SCHEDULER: Load scheduler "sur0" with entities [EventEntity, EventEntity], work=85*
  2: 0x0127 [0x00] END_REQSTACK()
```

### Event 65535.19

#### Metadata

| Field        | Value    |
|--------------|----------|
| Entrypoint   | 0x0128   |
| Data Size    | 20 bytes |
| Instructions | 3        |

```
      00 01 02 03 04 05 06 07  08 09 0A 0B 0C 0D 0E 0F
      -- -- -- -- -- -- -- --  -- -- -- -- -- -- -- --
0120:                          53 F8 FF FF 7F F8 FF FF          S.......
0130: 7F 73 75 72 30 7C 01 F8  FF FF 7F 00              .sur0|......    
```

#### Opcodes

```
  0: 0x0128 [0x53] WAIT_SCHEDULER_TASK: Wait for scheduler "sur0" with entities [EventEntity, EventEntity]
  1: 0x0135 [0x7C] EventEntity->Render.Flags2 |= 0x01
  2: 0x013B [0x00] END_REQSTACK()
```

### Event 65535.20

#### Metadata

| Field        | Value    |
|--------------|----------|
| Entrypoint   | 0x013C   |
| Data Size    | 22 bytes |
| Instructions | 3        |

```
      00 01 02 03 04 05 06 07  08 09 0A 0B 0C 0D 0E 0F
      -- -- -- -- -- -- -- --  -- -- -- -- -- -- -- --
0130:                                      7C 00 F8 FF              |...
0140: FF 7F 5B 00 80 F8 FF FF  7F F8 FF FF 7F 73 75 72  ..[..........sur
0150: 31 00                                             1.              
```

#### Opcodes

```
  0: 0x013C [0x7C] EventEntity->Render.Flags2 |= 0x00
  1: 0x0142 [0x5B] LOAD_EXT_SCHEDULER: Load scheduler "sur1" with entities [EventEntity, EventEntity], work=85*
  2: 0x0151 [0x00] END_REQSTACK()
```

### Event 65535.21

#### Metadata

| Field        | Value    |
|--------------|----------|
| Entrypoint   | 0x0152   |
| Data Size    | 20 bytes |
| Instructions | 3        |

```
      00 01 02 03 04 05 06 07  08 09 0A 0B 0C 0D 0E 0F
      -- -- -- -- -- -- -- --  -- -- -- -- -- -- -- --
0150:       53 F8 FF FF 7F F8  FF FF 7F 73 75 72 31 7C    S........sur1|
0160: 01 F8 FF FF 7F 00                                 ......          
```

#### Opcodes

```
  0: 0x0152 [0x53] WAIT_SCHEDULER_TASK: Wait for scheduler "sur1" with entities [EventEntity, EventEntity]
  1: 0x015F [0x7C] EventEntity->Render.Flags2 |= 0x01
  2: 0x0165 [0x00] END_REQSTACK()
```

### Event 367

#### Metadata

| Field        | Value    |
|--------------|----------|
| Entrypoint   | 0x0166   |
| Data Size    | 29 bytes |
| Instructions | 10       |

```
      00 01 02 03 04 05 06 07  08 09 0A 0B 0C 0D 0E 0F
      -- -- -- -- -- -- -- --  -- -- -- -- -- -- -- --
0160:                   1E F0  FF FF 7F 6F 70 29 08 58        .....op).X
0170: 00 0F 01 03 1D 03 80 23  29 08 58 00 0F 01 04 20  .......#).X.... 
0180: 00 21 00                                          .!.             
```

#### Opcodes

```
  0: 0x0166 [0x1E] EventEntity looks at LocalPlayer and starts talking
  1: 0x016B [0x6F] WAIT_FRAME_DELAY: Yield until WaitTime reaches zero
  2: 0x016C [0x70] WAIT_ENTITY_RENDER_FLAG: Wait while EventEntity->Render.Flags3 bit 2 is set (cancel turn if not)
  3: 0x016D [0x29] REQ_SET_WAIT(priority=0x08, entity_id=Shanruru (ID: 17760344/0x010F0058), tag_num=0x03)
  4: 0x0174 [0x1D] PRINT_EVENT_MESSAGE(message_id=4166*)
    → "Why do I have to be the lookout again!? My brother and sister said they'd let me join in this time! Ohww, I'm always left out!"
  5: 0x0177 [0x23] WAIT_FOR_DIALOG_INTERACTION
  6: 0x0178 [0x29] REQ_SET_WAIT(priority=0x08, entity_id=Shanruru (ID: 17760344/0x010F0058), tag_num=0x04)
  7: 0x017F [0x20] SET_CLI_EVENT_UC_FLAG: Unlock player control
  8: 0x0181 [0x21] END_EVENT
  9: 0x0182 [0x00] END_REQSTACK()
```

### Event 368

#### Metadata

| Field        | Value   |
|--------------|---------|
| Entrypoint   | 0x0183  |
| Data Size    | 1 bytes |
| Instructions | 1       |

```
      00 01 02 03 04 05 06 07  08 09 0A 0B 0C 0D 0E 0F
      -- -- -- -- -- -- -- --  -- -- -- -- -- -- -- --
0180:          00                                          .            
```

#### Opcodes

```
  0: 0x0183 [0x00] END_REQSTACK()
```

### Event 377

#### Metadata

| Field        | Value    |
|--------------|----------|
| Entrypoint   | 0x0184   |
| Data Size    | 33 bytes |
| Instructions | 12       |

```
      00 01 02 03 04 05 06 07  08 09 0A 0B 0C 0D 0E 0F
      -- -- -- -- -- -- -- --  -- -- -- -- -- -- -- --
0180:             1E F0 FF FF  7F 6F 70 29 08 58 00 0F      .....op).X..
0190: 01 01 1D 04 80 23 1D 05  80 23 29 08 58 00 0F 01  .....#...#).X...
01A0: 02 20 00 21 00                                    . .!.           
```

#### Opcodes

```
  0: 0x0184 [0x1E] EventEntity looks at LocalPlayer and starts talking
  1: 0x0189 [0x6F] WAIT_FRAME_DELAY: Yield until WaitTime reaches zero
  2: 0x018A [0x70] WAIT_ENTITY_RENDER_FLAG: Wait while EventEntity->Render.Flags3 bit 2 is set (cancel turn if not)
  3: 0x018B [0x29] REQ_SET_WAIT(priority=0x08, entity_id=Shanruru (ID: 17760344/0x010F0058), tag_num=0x01)
  4: 0x0192 [0x1D] PRINT_EVENT_MESSAGE(message_id=4211*)
    → "What happened? What went on just now?"
  5: 0x0195 [0x23] WAIT_FOR_DIALOG_INTERACTION
  6: 0x0196 [0x1D] PRINT_EVENT_MESSAGE(message_id=4212*)
    → "I bet they decided something important without including me again, right? Ohww, I'm always left out!"
  7: 0x0199 [0x23] WAIT_FOR_DIALOG_INTERACTION
  8: 0x019A [0x29] REQ_SET_WAIT(priority=0x08, entity_id=Shanruru (ID: 17760344/0x010F0058), tag_num=0x02)
  9: 0x01A1 [0x20] SET_CLI_EVENT_UC_FLAG: Unlock player control
 10: 0x01A3 [0x21] END_EVENT
 11: 0x01A4 [0x00] END_REQSTACK()
```

### Event 384

#### Metadata

| Field        | Value    |
|--------------|----------|
| Entrypoint   | 0x01A5   |
| Data Size    | 29 bytes |
| Instructions | 10       |

```
      00 01 02 03 04 05 06 07  08 09 0A 0B 0C 0D 0E 0F
      -- -- -- -- -- -- -- --  -- -- -- -- -- -- -- --
01A0:                1E F0 FF  FF 7F 6F 70 29 08 58 00       .....op).X.
01B0: 0F 01 03 1D 06 80 23 29  08 58 00 0F 01 04 20 00  ......#).X.... .
01C0: 21 00                                             !.              
```

#### Opcodes

```
  0: 0x01A5 [0x1E] EventEntity looks at LocalPlayer and starts talking
  1: 0x01AA [0x6F] WAIT_FRAME_DELAY: Yield until WaitTime reaches zero
  2: 0x01AB [0x70] WAIT_ENTITY_RENDER_FLAG: Wait while EventEntity->Render.Flags3 bit 2 is set (cancel turn if not)
  3: 0x01AC [0x29] REQ_SET_WAIT(priority=0x08, entity_id=Shanruru (ID: 17760344/0x010F0058), tag_num=0x03)
  4: 0x01B3 [0x1D] PRINT_EVENT_MESSAGE(message_id=4232*)
    → "How come you got a badge before I did? That's so unfair it's unforgivable! Ohww, I'm always left out!"
  5: 0x01B6 [0x23] WAIT_FOR_DIALOG_INTERACTION
  6: 0x01B7 [0x29] REQ_SET_WAIT(priority=0x08, entity_id=Shanruru (ID: 17760344/0x010F0058), tag_num=0x04)
  7: 0x01BE [0x20] SET_CLI_EVENT_UC_FLAG: Unlock player control
  8: 0x01C0 [0x21] END_EVENT
  9: 0x01C1 [0x00] END_REQSTACK()
```

### Event 378

#### Metadata

| Field        | Value   |
|--------------|---------|
| Entrypoint   | 0x01C2  |
| Data Size    | 1 bytes |
| Instructions | 1       |

```
      00 01 02 03 04 05 06 07  08 09 0A 0B 0C 0D 0E 0F
      -- -- -- -- -- -- -- --  -- -- -- -- -- -- -- --
01C0:       00                                            .             
```

#### Opcodes

```
  0: 0x01C2 [0x00] END_REQSTACK()
```

### Event 391

#### Metadata

| Field        | Value   |
|--------------|---------|
| Entrypoint   | 0x01C3  |
| Data Size    | 1 bytes |
| Instructions | 1       |

```
      00 01 02 03 04 05 06 07  08 09 0A 0B 0C 0D 0E 0F
      -- -- -- -- -- -- -- --  -- -- -- -- -- -- -- --
01C0:          00                                          .            
```

#### Opcodes

```
  0: 0x01C3 [0x00] END_REQSTACK()
```

### Event 400

#### Metadata

| Field        | Value   |
|--------------|---------|
| Entrypoint   | 0x01C4  |
| Data Size    | 1 bytes |
| Instructions | 1       |

```
      00 01 02 03 04 05 06 07  08 09 0A 0B 0C 0D 0E 0F
      -- -- -- -- -- -- -- --  -- -- -- -- -- -- -- --
01C0:             00                                        .           
```

#### Opcodes

```
  0: 0x01C4 [0x00] END_REQSTACK()
```

### Event 412

#### Metadata

| Field        | Value    |
|--------------|----------|
| Entrypoint   | 0x01C5   |
| Data Size    | 33 bytes |
| Instructions | 12       |

```
      00 01 02 03 04 05 06 07  08 09 0A 0B 0C 0D 0E 0F
      -- -- -- -- -- -- -- --  -- -- -- -- -- -- -- --
01C0:                1E F0 FF  FF 7F 6F 70 29 08 58 00       .....op).X.
01D0: 0F 01 01 1D 07 80 23 1D  08 80 23 29 08 58 00 0F  ......#...#).X..
01E0: 01 02 20 00 21 00                                 .. .!.          
```

#### Opcodes

```
  0: 0x01C5 [0x1E] EventEntity looks at LocalPlayer and starts talking
  1: 0x01CA [0x6F] WAIT_FRAME_DELAY: Yield until WaitTime reaches zero
  2: 0x01CB [0x70] WAIT_ENTITY_RENDER_FLAG: Wait while EventEntity->Render.Flags3 bit 2 is set (cancel turn if not)
  3: 0x01CC [0x29] REQ_SET_WAIT(priority=0x08, entity_id=Shanruru (ID: 17760344/0x010F0058), tag_num=0x01)
  4: 0x01D3 [0x1D] PRINT_EVENT_MESSAGE(message_id=4310*)
    → "Did you really-weally have a showdown with the Cat Burglar?"
  5: 0x01D6 [0x23] WAIT_FOR_DIALOG_INTERACTION
  6: 0x01D7 [0x1D] PRINT_EVENT_MESSAGE(message_id=4311*)
    → "Why don't you guys let me join in all the fun? Ohww, I'm always left out!"
  7: 0x01DA [0x23] WAIT_FOR_DIALOG_INTERACTION
  8: 0x01DB [0x29] REQ_SET_WAIT(priority=0x08, entity_id=Shanruru (ID: 17760344/0x010F0058), tag_num=0x02)
  9: 0x01E2 [0x20] SET_CLI_EVENT_UC_FLAG: Unlock player control
 10: 0x01E4 [0x21] END_EVENT
 11: 0x01E5 [0x00] END_REQSTACK()
```

### Event 413

#### Metadata

| Field        | Value   |
|--------------|---------|
| Entrypoint   | 0x01E6  |
| Data Size    | 1 bytes |
| Instructions | 1       |

```
      00 01 02 03 04 05 06 07  08 09 0A 0B 0C 0D 0E 0F
      -- -- -- -- -- -- -- --  -- -- -- -- -- -- -- --
01E0:                   00                                    .         
```

#### Opcodes

```
  0: 0x01E6 [0x00] END_REQSTACK()
```

### Event 420

#### Metadata

| Field        | Value    |
|--------------|----------|
| Entrypoint   | 0x01E7   |
| Data Size    | 29 bytes |
| Instructions | 10       |

```
      00 01 02 03 04 05 06 07  08 09 0A 0B 0C 0D 0E 0F
      -- -- -- -- -- -- -- --  -- -- -- -- -- -- -- --
01E0:                      1E  F0 FF FF 7F 6F 70 29 08         .....op).
01F0: 58 00 0F 01 01 1D 09 80  23 29 08 58 00 0F 01 02  X.......#).X....
0200: 20 00 21 00                                        .!.            
```

#### Opcodes

```
  0: 0x01E7 [0x1E] EventEntity looks at LocalPlayer and starts talking
  1: 0x01EC [0x6F] WAIT_FRAME_DELAY: Yield until WaitTime reaches zero
  2: 0x01ED [0x70] WAIT_ENTITY_RENDER_FLAG: Wait while EventEntity->Render.Flags3 bit 2 is set (cancel turn if not)
  3: 0x01EE [0x29] REQ_SET_WAIT(priority=0x08, entity_id=Shanruru (ID: 17760344/0x010F0058), tag_num=0x01)
  4: 0x01F5 [0x1D] PRINT_EVENT_MESSAGE(message_id=4334*)
    → "One of the seven gadgets found in the Junior Investigator's Toolkit? Umm... Well... Maybe I'll bring a shovel! I kinda dig them! Ohww, but I'm so left out, I don't know what to do!"
  5: 0x01F8 [0x23] WAIT_FOR_DIALOG_INTERACTION
  6: 0x01F9 [0x29] REQ_SET_WAIT(priority=0x08, entity_id=Shanruru (ID: 17760344/0x010F0058), tag_num=0x02)
  7: 0x0200 [0x20] SET_CLI_EVENT_UC_FLAG: Unlock player control
  8: 0x0202 [0x21] END_EVENT
  9: 0x0203 [0x00] END_REQSTACK()
```

### Event 421

#### Metadata

| Field        | Value   |
|--------------|---------|
| Entrypoint   | 0x0204  |
| Data Size    | 1 bytes |
| Instructions | 1       |

```
      00 01 02 03 04 05 06 07  08 09 0A 0B 0C 0D 0E 0F
      -- -- -- -- -- -- -- --  -- -- -- -- -- -- -- --
0200:             00                                        .           
```

#### Opcodes

```
  0: 0x0204 [0x00] END_REQSTACK()
```

### Event 428

#### Metadata

| Field        | Value    |
|--------------|----------|
| Entrypoint   | 0x0205   |
| Data Size    | 33 bytes |
| Instructions | 12       |

```
      00 01 02 03 04 05 06 07  08 09 0A 0B 0C 0D 0E 0F
      -- -- -- -- -- -- -- --  -- -- -- -- -- -- -- --
0200:                1E F0 FF  FF 7F 6F 70 29 08 58 00       .....op).X.
0210: 0F 01 01 1D 0A 80 23 1D  0B 80 23 29 08 58 00 0F  ......#...#).X..
0220: 01 02 20 00 21 00                                 .. .!.          
```

#### Opcodes

```
  0: 0x0205 [0x1E] EventEntity looks at LocalPlayer and starts talking
  1: 0x020A [0x6F] WAIT_FRAME_DELAY: Yield until WaitTime reaches zero
  2: 0x020B [0x70] WAIT_ENTITY_RENDER_FLAG: Wait while EventEntity->Render.Flags3 bit 2 is set (cancel turn if not)
  3: 0x020C [0x29] REQ_SET_WAIT(priority=0x08, entity_id=Shanruru (ID: 17760344/0x010F0058), tag_num=0x01)
  4: 0x0213 [0x1D] PRINT_EVENT_MESSAGE(message_id=4357*)
    → "The culprit is always the one you least suspect. I know 'cause I've read almost every one of the Agatha Crystalie mystery series. So you can leave this case to me."
  5: 0x0216 [0x23] WAIT_FOR_DIALOG_INTERACTION
  6: 0x0217 [0x1D] PRINT_EVENT_MESSAGE(message_id=4358*)
    → "What do you mean, they've already solved "The Case of the Missing Mana Orb"? But the great detective Shanruru didn't get to make her appearance!? Ohww, they always leave me out!"
  7: 0x021A [0x23] WAIT_FOR_DIALOG_INTERACTION
  8: 0x021B [0x29] REQ_SET_WAIT(priority=0x08, entity_id=Shanruru (ID: 17760344/0x010F0058), tag_num=0x02)
  9: 0x0222 [0x20] SET_CLI_EVENT_UC_FLAG: Unlock player control
 10: 0x0224 [0x21] END_EVENT
 11: 0x0225 [0x00] END_REQSTACK()
```

### Event 430

#### Metadata

| Field        | Value   |
|--------------|---------|
| Entrypoint   | 0x0226  |
| Data Size    | 1 bytes |
| Instructions | 1       |

```
      00 01 02 03 04 05 06 07  08 09 0A 0B 0C 0D 0E 0F
      -- -- -- -- -- -- -- --  -- -- -- -- -- -- -- --
0220:                   00                                    .         
```

#### Opcodes

```
  0: 0x0226 [0x00] END_REQSTACK()
```

### Event 439

#### Metadata

| Field        | Value    |
|--------------|----------|
| Entrypoint   | 0x0227   |
| Data Size    | 40 bytes |
| Instructions | 13       |

```
      00 01 02 03 04 05 06 07  08 09 0A 0B 0C 0D 0E 0F
      -- -- -- -- -- -- -- --  -- -- -- -- -- -- -- --
0220:                      1E  F0 FF FF 7F 6F 70 29 08         .....op).
0230: F0 FF FF 7F 07 29 08 58  00 0F 01 01 1D 0C 80 23  .....).X.......#
0240: 1D 0D 80 23 29 08 58 00  0F 01 02 20 00 21 00     ...#).X.... .!. 
```

#### Opcodes

```
  0: 0x0227 [0x1E] EventEntity looks at LocalPlayer and starts talking
  1: 0x022C [0x6F] WAIT_FRAME_DELAY: Yield until WaitTime reaches zero
  2: 0x022D [0x70] WAIT_ENTITY_RENDER_FLAG: Wait while EventEntity->Render.Flags3 bit 2 is set (cancel turn if not)
  3: 0x022E [0x29] REQ_SET_WAIT(priority=0x08, entity_id=LocalPlayer, tag_num=0x07)
  4: 0x0235 [0x29] REQ_SET_WAIT(priority=0x08, entity_id=Shanruru (ID: 17760344/0x010F0058), tag_num=0x01)
  5: 0x023C [0x1D] PRINT_EVENT_MESSAGE(message_id=4385*)
    → "I know, I know... I'm going to be left out again.We'll I don't care anymore!"
  6: 0x023F [0x23] WAIT_FOR_DIALOG_INTERACTION
  7: 0x0240 [0x1D] PRINT_EVENT_MESSAGE(message_id=4386*)
    → "You, [mister/miss], are going to be beaten by the wily Cat Burglar again, along with the rest of those losers!"
  8: 0x0243 [0x23] WAIT_FOR_DIALOG_INTERACTION
  9: 0x0244 [0x29] REQ_SET_WAIT(priority=0x08, entity_id=Shanruru (ID: 17760344/0x010F0058), tag_num=0x02)
 10: 0x024B [0x20] SET_CLI_EVENT_UC_FLAG: Unlock player control
 11: 0x024D [0x21] END_EVENT
 12: 0x024E [0x00] END_REQSTACK()
```

### Event 446

#### Metadata

| Field        | Value    |
|--------------|----------|
| Entrypoint   | 0x024F   |
| Data Size    | 33 bytes |
| Instructions | 12       |

```
      00 01 02 03 04 05 06 07  08 09 0A 0B 0C 0D 0E 0F
      -- -- -- -- -- -- -- --  -- -- -- -- -- -- -- --
0240:                                               1E                 .
0250: F0 FF FF 7F 6F 70 29 08  58 00 0F 01 01 1D 0E 80  ....op).X.......
0260: 23 1D 0F 80 23 29 08 58  00 0F 01 02 20 00 21 00  #...#).X.... .!.
```

#### Opcodes

```
  0: 0x024F [0x1E] EventEntity looks at LocalPlayer and starts talking
  1: 0x0254 [0x6F] WAIT_FRAME_DELAY: Yield until WaitTime reaches zero
  2: 0x0255 [0x70] WAIT_ENTITY_RENDER_FLAG: Wait while EventEntity->Render.Flags3 bit 2 is set (cancel turn if not)
  3: 0x0256 [0x29] REQ_SET_WAIT(priority=0x08, entity_id=Shanruru (ID: 17760344/0x010F0058), tag_num=0x01)
  4: 0x025D [0x1D] PRINT_EVENT_MESSAGE(message_id=4399*)
    → "<sniff> <sniff> I'm glad you all made it back safely!"
  5: 0x0260 [0x23] WAIT_FOR_DIALOG_INTERACTION
  6: 0x0261 [0x1D] PRINT_EVENT_MESSAGE(message_id=4400*)
    → "You took so long to return that I got so worried and began to cry! <sob>...<sob>..."
  7: 0x0264 [0x23] WAIT_FOR_DIALOG_INTERACTION
  8: 0x0265 [0x29] REQ_SET_WAIT(priority=0x08, entity_id=Shanruru (ID: 17760344/0x010F0058), tag_num=0x02)
  9: 0x026C [0x20] SET_CLI_EVENT_UC_FLAG: Unlock player control
 10: 0x026E [0x21] END_EVENT
 11: 0x026F [0x00] END_REQSTACK()
```

### Event 496

#### Metadata

| Field        | Value   |
|--------------|---------|
| Entrypoint   | 0x0270  |
| Data Size    | 1 bytes |
| Instructions | 1       |

```
      00 01 02 03 04 05 06 07  08 09 0A 0B 0C 0D 0E 0F
      -- -- -- -- -- -- -- --  -- -- -- -- -- -- -- --
0270: 00                                                .               
```

#### Opcodes

```
  0: 0x0270 [0x00] END_REQSTACK()
```

### Event 497

#### Metadata

| Field        | Value   |
|--------------|---------|
| Entrypoint   | 0x0271  |
| Data Size    | 1 bytes |
| Instructions | 1       |

```
      00 01 02 03 04 05 06 07  08 09 0A 0B 0C 0D 0E 0F
      -- -- -- -- -- -- -- --  -- -- -- -- -- -- -- --
0270:    00                                              .              
```

#### Opcodes

```
  0: 0x0271 [0x00] END_REQSTACK()
```

### Event 504

#### Metadata

| Field        | Value    |
|--------------|----------|
| Entrypoint   | 0x0272   |
| Data Size    | 47 bytes |
| Instructions | 14       |

```
      00 01 02 03 04 05 06 07  08 09 0A 0B 0C 0D 0E 0F
      -- -- -- -- -- -- -- --  -- -- -- -- -- -- -- --
0270:       1E F0 FF FF 7F 6F  70 29 08 58 00 0F 01 03    .....op).X....
0280: 1D 10 80 23 29 08 58 00  0F 01 04 29 08 58 00 0F  ...#).X....).X..
0290: 01 01 1D 11 80 23 29 08  58 00 0F 01 02 20 00 21  .....#).X.... .!
02A0: 00                                                .               
```

#### Opcodes

```
  0: 0x0272 [0x1E] EventEntity looks at LocalPlayer and starts talking
  1: 0x0277 [0x6F] WAIT_FRAME_DELAY: Yield until WaitTime reaches zero
  2: 0x0278 [0x70] WAIT_ENTITY_RENDER_FLAG: Wait while EventEntity->Render.Flags3 bit 2 is set (cancel turn if not)
  3: 0x0279 [0x29] REQ_SET_WAIT(priority=0x08, entity_id=Shanruru (ID: 17760344/0x010F0058), tag_num=0x03)
  4: 0x0280 [0x1D] PRINT_EVENT_MESSAGE(message_id=12437*)
    → "The Star Onion Brigade is gonna take on a grown-up? Ohww, they always leave me out!"
  5: 0x0283 [0x23] WAIT_FOR_DIALOG_INTERACTION
  6: 0x0284 [0x29] REQ_SET_WAIT(priority=0x08, entity_id=Shanruru (ID: 17760344/0x010F0058), tag_num=0x04)
  7: 0x028B [0x29] REQ_SET_WAIT(priority=0x08, entity_id=Shanruru (ID: 17760344/0x010F0058), tag_num=0x01)
  8: 0x0292 [0x1D] PRINT_EVENT_MESSAGE(message_id=12438*)
    → "If they keep leaving me out of things, I'm gonna be a grown-up myself soon! And then who am I supposed to play with!?"
  9: 0x0295 [0x23] WAIT_FOR_DIALOG_INTERACTION
 10: 0x0296 [0x29] REQ_SET_WAIT(priority=0x08, entity_id=Shanruru (ID: 17760344/0x010F0058), tag_num=0x02)
 11: 0x029D [0x20] SET_CLI_EVENT_UC_FLAG: Unlock player control
 12: 0x029F [0x21] END_EVENT
 13: 0x02A0 [0x00] END_REQSTACK()
```

### Event 531

#### Metadata

| Field        | Value    |
|--------------|----------|
| Entrypoint   | 0x02A1   |
| Data Size    | 29 bytes |
| Instructions | 10       |

```
      00 01 02 03 04 05 06 07  08 09 0A 0B 0C 0D 0E 0F
      -- -- -- -- -- -- -- --  -- -- -- -- -- -- -- --
02A0:    1E F0 FF FF 7F 6F 70  29 08 58 00 0F 01 03 1D   .....op).X.....
02B0: 12 80 23 29 08 58 00 0F  01 04 20 00 21 00        ..#).X.... .!.  
```

#### Opcodes

```
  0: 0x02A1 [0x1E] EventEntity looks at LocalPlayer and starts talking
  1: 0x02A6 [0x6F] WAIT_FRAME_DELAY: Yield until WaitTime reaches zero
  2: 0x02A7 [0x70] WAIT_ENTITY_RENDER_FLAG: Wait while EventEntity->Render.Flags3 bit 2 is set (cancel turn if not)
  3: 0x02A8 [0x29] REQ_SET_WAIT(priority=0x08, entity_id=Shanruru (ID: 17760344/0x010F0058), tag_num=0x03)
  4: 0x02AF [0x1D] PRINT_EVENT_MESSAGE(message_id=12508*)
    → "Nya`h! I'm keeping a lookout!"
  5: 0x02B2 [0x23] WAIT_FOR_DIALOG_INTERACTION
  6: 0x02B3 [0x29] REQ_SET_WAIT(priority=0x08, entity_id=Shanruru (ID: 17760344/0x010F0058), tag_num=0x04)
  7: 0x02BA [0x20] SET_CLI_EVENT_UC_FLAG: Unlock player control
  8: 0x02BC [0x21] END_EVENT
  9: 0x02BD [0x00] END_REQSTACK()
```

### Event 522

#### Metadata

| Field        | Value   |
|--------------|---------|
| Entrypoint   | 0x02BE  |
| Data Size    | 7 bytes |
| Instructions | 2       |

```
      00 01 02 03 04 05 06 07  08 09 0A 0B 0C 0D 0E 0F
      -- -- -- -- -- -- -- --  -- -- -- -- -- -- -- --
02B0:                                            92 01                ..
02C0: F8 FF FF 7F 00                                    .....           
```

#### Opcodes

```
  0: 0x02BE [0x92] EventEntity->Render.Flags3 ^= 0x01
  1: 0x02C4 [0x00] END_REQSTACK()
```

### Event 65535.22

#### Metadata

| Field        | Value    |
|--------------|----------|
| Entrypoint   | 0x02C5   |
| Data Size    | 10 bytes |
| Instructions | 2        |

```
      00 01 02 03 04 05 06 07  08 09 0A 0B 0C 0D 0E 0F
      -- -- -- -- -- -- -- --  -- -- -- -- -- -- -- --
02C0:                37 13 80  14 80 15 80 16 80 00          7......... 
```

#### Opcodes

```
  0: 0x02C5 [0x37] UPDATE_EVENT_POSITION_AND_DIR: x=-7.239*, z=189.162*, y=-6.000*, direction=174.5°*
  1: 0x02CE [0x00] END_REQSTACK()
```

### Event 65535.23

#### Metadata

| Field        | Value    |
|--------------|----------|
| Entrypoint   | 0x02CF   |
| Data Size    | 38 bytes |
| Instructions | 8        |

```
      00 01 02 03 04 05 06 07  08 09 0A 0B 0C 0D 0E 0F
      -- -- -- -- -- -- -- --  -- -- -- -- -- -- -- --
02C0:                                               32                 2
02D0: 17 80 37 18 80 19 80 1A  80 1B 80 1F 00 1C 80 1D  ..7.............
02E0: 80 1A 80 1F 01 1F 00 1E  80 1F 80 15 80 1F 01 1E  ................
02F0: 5B 00 0F 01 00                                    [....           
```

#### Opcodes

```
  0: 0x02CF [0x32] ExtData[1]->MainSpeed = 21* * 0.1
  1: 0x02D2 [0x37] UPDATE_EVENT_POSITION_AND_DIR: x=-6.501*, z=192.819*, y=-5.999*, direction=203.8°*
  2: 0x02DB [0x1F] MOVE_ENTITY: EventEntity moves to X=-25.872*, Z=194.823*, Y=-5.999*
  3: 0x02E3 [0x1F] MOVE_ENTITY: Update entity position (mode=1)
  4: 0x02E5 [0x1F] MOVE_ENTITY: EventEntity moves to X=-26.734*, Z=191.689*, Y=-6.000*
  5: 0x02ED [0x1F] MOVE_ENTITY: Update entity position (mode=1)
  6: 0x02EF [0x1E] EventEntity looks at Joker (ID: 17760347/0x010F005B) and starts talking
  7: 0x02F4 [0x00] END_REQSTACK()
```

### Event 65535.24

#### Metadata

| Field        | Value   |
|--------------|---------|
| Entrypoint   | 0x02F5  |
| Data Size    | 5 bytes |
| Instructions | 3       |

```
      00 01 02 03 04 05 06 07  08 09 0A 0B 0C 0D 0E 0F
      -- -- -- -- -- -- -- --  -- -- -- -- -- -- -- --
02F0:                1D 20 80  23 00                         . .#.      
```

#### Opcodes

```
  0: 0x02F5 [0x1D] PRINT_EVENT_MESSAGE(message_id=12514*)
    → "Aaaah! Aaaaaaaah!"
  1: 0x02F8 [0x23] WAIT_FOR_DIALOG_INTERACTION
  2: 0x02F9 [0x00] END_REQSTACK()
```

### Event 529

#### Metadata

| Field        | Value    |
|--------------|----------|
| Entrypoint   | 0x02FA   |
| Data Size    | 55 bytes |
| Instructions | 18       |

```
      00 01 02 03 04 05 06 07  08 09 0A 0B 0C 0D 0E 0F
      -- -- -- -- -- -- -- --  -- -- -- -- -- -- -- --
02F0:                                1E F0 FF FF 7F 6F            .....o
0300: 70 29 08 58 00 0F 01 06  1D 21 80 23 1D 22 80 23  p).X.....!.#.".#
0310: 29 08 58 00 0F 01 07 1D  23 80 23 29 08 58 00 0F  ).X.....#.#).X..
0320: 01 06 1D 24 80 23 29 08  58 00 0F 01 07 20 00 21  ...$.#).X.... .!
0330: 00                                                .               
```

#### Opcodes

```
  0: 0x02FA [0x1E] EventEntity looks at LocalPlayer and starts talking
  1: 0x02FF [0x6F] WAIT_FRAME_DELAY: Yield until WaitTime reaches zero
  2: 0x0300 [0x70] WAIT_ENTITY_RENDER_FLAG: Wait while EventEntity->Render.Flags3 bit 2 is set (cancel turn if not)
  3: 0x0301 [0x29] REQ_SET_WAIT(priority=0x08, entity_id=Shanruru (ID: 17760344/0x010F0058), tag_num=0x06)
  4: 0x0308 [0x1D] PRINT_EVENT_MESSAGE(message_id=12551*)
    → "I was s-so s-scared."
  5: 0x030B [0x23] WAIT_FOR_DIALOG_INTERACTION
  6: 0x030C [0x1D] PRINT_EVENT_MESSAGE(message_id=12552*)
    → "I thought I was gonna be squished for sure!"
  7: 0x030F [0x23] WAIT_FOR_DIALOG_INTERACTION
  8: 0x0310 [0x29] REQ_SET_WAIT(priority=0x08, entity_id=Shanruru (ID: 17760344/0x010F0058), tag_num=0x07)
  9: 0x0317 [0x1D] PRINT_EVENT_MESSAGE(message_id=12553*)
    → "I had to pinch my cheek to make sure I was still alive!"
 10: 0x031A [0x23] WAIT_FOR_DIALOG_INTERACTION
 11: 0x031B [0x29] REQ_SET_WAIT(priority=0x08, entity_id=Shanruru (ID: 17760344/0x010F0058), tag_num=0x06)
 12: 0x0322 [0x1D] PRINT_EVENT_MESSAGE(message_id=12554*)
    → "Now my cheek kinda hurts!"
 13: 0x0325 [0x23] WAIT_FOR_DIALOG_INTERACTION
 14: 0x0326 [0x29] REQ_SET_WAIT(priority=0x08, entity_id=Shanruru (ID: 17760344/0x010F0058), tag_num=0x07)
 15: 0x032D [0x20] SET_CLI_EVENT_UC_FLAG: Unlock player control
 16: 0x032F [0x21] END_EVENT
 17: 0x0330 [0x00] END_REQSTACK()
```

### Event 532

#### Metadata

| Field        | Value   |
|--------------|---------|
| Entrypoint   | 0x0331  |
| Data Size    | 1 bytes |
| Instructions | 1       |

```
      00 01 02 03 04 05 06 07  08 09 0A 0B 0C 0D 0E 0F
      -- -- -- -- -- -- -- --  -- -- -- -- -- -- -- --
0330:    00                                              .              
```

#### Opcodes

```
  0: 0x0331 [0x00] END_REQSTACK()
```

### Event 534

#### Metadata

| Field        | Value   |
|--------------|---------|
| Entrypoint   | 0x0332  |
| Data Size    | 7 bytes |
| Instructions | 2       |

```
      00 01 02 03 04 05 06 07  08 09 0A 0B 0C 0D 0E 0F
      -- -- -- -- -- -- -- --  -- -- -- -- -- -- -- --
0330:       92 01 F8 FF FF 7F  00                         .......       
```

#### Opcodes

```
  0: 0x0332 [0x92] EventEntity->Render.Flags3 ^= 0x01
  1: 0x0338 [0x00] END_REQSTACK()
```

### Event 541

#### Metadata

| Field        | Value    |
|--------------|----------|
| Entrypoint   | 0x0339   |
| Data Size    | 33 bytes |
| Instructions | 12       |

```
      00 01 02 03 04 05 06 07  08 09 0A 0B 0C 0D 0E 0F
      -- -- -- -- -- -- -- --  -- -- -- -- -- -- -- --
0330:                             1E F0 FF FF 7F 6F 70           .....op
0340: 29 08 58 00 0F 01 06 1D  25 80 23 1D 26 80 23 29  ).X.....%.#.&.#)
0350: 08 58 00 0F 01 07 20 00  21 00                    .X.... .!.      
```

#### Opcodes

```
  0: 0x0339 [0x1E] EventEntity looks at LocalPlayer and starts talking
  1: 0x033E [0x6F] WAIT_FRAME_DELAY: Yield until WaitTime reaches zero
  2: 0x033F [0x70] WAIT_ENTITY_RENDER_FLAG: Wait while EventEntity->Render.Flags3 bit 2 is set (cancel turn if not)
  3: 0x0340 [0x29] REQ_SET_WAIT(priority=0x08, entity_id=Shanruru (ID: 17760344/0x010F0058), tag_num=0x06)
  4: 0x0347 [0x1D] PRINT_EVENT_MESSAGE(message_id=12562*)
    → "I was s-so s-scared."
  5: 0x034A [0x23] WAIT_FOR_DIALOG_INTERACTION
  6: 0x034B [0x1D] PRINT_EVENT_MESSAGE(message_id=12563*)
    → "I thought I was gonna be squished for sure!"
  7: 0x034E [0x23] WAIT_FOR_DIALOG_INTERACTION
  8: 0x034F [0x29] REQ_SET_WAIT(priority=0x08, entity_id=Shanruru (ID: 17760344/0x010F0058), tag_num=0x07)
  9: 0x0356 [0x20] SET_CLI_EVENT_UC_FLAG: Unlock player control
 10: 0x0358 [0x21] END_EVENT
 11: 0x0359 [0x00] END_REQSTACK()
```

### Event 542

#### Metadata

| Field        | Value   |
|--------------|---------|
| Entrypoint   | 0x035A  |
| Data Size    | 7 bytes |
| Instructions | 2       |

```
      00 01 02 03 04 05 06 07  08 09 0A 0B 0C 0D 0E 0F
      -- -- -- -- -- -- -- --  -- -- -- -- -- -- -- --
0350:                                92 01 F8 FF FF 7F            ......
0360: 00                                                .               
```

#### Opcodes

```
  0: 0x035A [0x92] EventEntity->Render.Flags3 ^= 0x01
  1: 0x0360 [0x00] END_REQSTACK()
```

### Event 591

#### Metadata

| Field        | Value    |
|--------------|----------|
| Entrypoint   | 0x0361   |
| Data Size    | 37 bytes |
| Instructions | 14       |

```
      00 01 02 03 04 05 06 07  08 09 0A 0B 0C 0D 0E 0F
      -- -- -- -- -- -- -- --  -- -- -- -- -- -- -- --
0360:    1E F0 FF FF 7F 6F 70  29 08 58 00 0F 01 01 1D   .....op).X.....
0370: 27 80 23 1D 28 80 23 1D  29 80 23 29 08 58 00 0F  '.#.(.#.).#).X..
0380: 01 02 20 00 21 00                                 .. .!.          
```

#### Opcodes

```
  0: 0x0361 [0x1E] EventEntity looks at LocalPlayer and starts talking
  1: 0x0366 [0x6F] WAIT_FRAME_DELAY: Yield until WaitTime reaches zero
  2: 0x0367 [0x70] WAIT_ENTITY_RENDER_FLAG: Wait while EventEntity->Render.Flags3 bit 2 is set (cancel turn if not)
  3: 0x0368 [0x29] REQ_SET_WAIT(priority=0x08, entity_id=Shanruru (ID: 17760344/0x010F0058), tag_num=0x01)
  4: 0x036F [0x1D] PRINT_EVENT_MESSAGE(message_id=12719*)
    → "I'm Shanruru, a member of the Star Onion Brigade. Pleased to meet you!"
  5: 0x0372 [0x23] WAIT_FOR_DIALOG_INTERACTION
  6: 0x0373 [0x1D] PRINT_EVENT_MESSAGE(message_id=12720*)
    → "They let me into the S.O.B. to help find Joker. But now that we know where Joker is..."
  7: 0x0376 [0x23] WAIT_FOR_DIALOG_INTERACTION
  8: 0x0377 [0x1D] PRINT_EVENT_MESSAGE(message_id=12721*)
    → "Now I get to huntaru down villains! I'm gonna be a defender of Windurst's peace!"
  9: 0x037A [0x23] WAIT_FOR_DIALOG_INTERACTION
 10: 0x037B [0x29] REQ_SET_WAIT(priority=0x08, entity_id=Shanruru (ID: 17760344/0x010F0058), tag_num=0x02)
 11: 0x0382 [0x20] SET_CLI_EVENT_UC_FLAG: Unlock player control
 12: 0x0384 [0x21] END_EVENT
 13: 0x0385 [0x00] END_REQSTACK()
```

### Event 915

#### Metadata

| Field        | Value   |
|--------------|---------|
| Entrypoint   | 0x0386  |
| Data Size    | 1 bytes |
| Instructions | 1       |

```
      00 01 02 03 04 05 06 07  08 09 0A 0B 0C 0D 0E 0F
      -- -- -- -- -- -- -- --  -- -- -- -- -- -- -- --
0380:                   00                                    .         
```

#### Opcodes

```
  0: 0x0386 [0x00] END_REQSTACK()
```

### Event 65535.25

#### Metadata

| Field        | Value    |
|--------------|----------|
| Entrypoint   | 0x0387   |
| Data Size    | 15 bytes |
| Instructions | 5        |

```
      00 01 02 03 04 05 06 07  08 09 0A 0B 0C 0D 0E 0F
      -- -- -- -- -- -- -- --  -- -- -- -- -- -- -- --
0380:                      32  17 80 1F 00 2A 80 2B 80         2....*.+.
0390: 1A 80 1F 01 6F 00                                 ....o.          
```

#### Opcodes

```
  0: 0x0387 [0x32] ExtData[1]->MainSpeed = 21* * 0.1
  1: 0x038A [0x1F] MOVE_ENTITY: EventEntity moves to X=-23.120*, Z=189.049*, Y=-5.999*
  2: 0x0392 [0x1F] MOVE_ENTITY: Update entity position (mode=1)
  3: 0x0394 [0x6F] WAIT_FRAME_DELAY: Yield until WaitTime reaches zero
  4: 0x0395 [0x00] END_REQSTACK()
```

### Event 916

#### Metadata

| Field        | Value   |
|--------------|---------|
| Entrypoint   | 0x0396  |
| Data Size    | 1 bytes |
| Instructions | 1       |

```
      00 01 02 03 04 05 06 07  08 09 0A 0B 0C 0D 0E 0F
      -- -- -- -- -- -- -- --  -- -- -- -- -- -- -- --
0390:                   00                                    .         
```

#### Opcodes

```
  0: 0x0396 [0x00] END_REQSTACK()
```

### Event 65535.26

#### Metadata

| Field        | Value    |
|--------------|----------|
| Entrypoint   | 0x0397   |
| Data Size    | 15 bytes |
| Instructions | 5        |

```
      00 01 02 03 04 05 06 07  08 09 0A 0B 0C 0D 0E 0F
      -- -- -- -- -- -- -- --  -- -- -- -- -- -- -- --
0390:                      32  2C 80 1F 00 2A 80 2B 80         2,...*.+.
03A0: 1A 80 1F 01 6F 00                                 ....o.          
```

#### Opcodes

```
  0: 0x0397 [0x32] ExtData[1]->MainSpeed = 7* * 0.1
  1: 0x039A [0x1F] MOVE_ENTITY: EventEntity moves to X=-23.120*, Z=189.049*, Y=-5.999*
  2: 0x03A2 [0x1F] MOVE_ENTITY: Update entity position (mode=1)
  3: 0x03A4 [0x6F] WAIT_FRAME_DELAY: Yield until WaitTime reaches zero
  4: 0x03A5 [0x00] END_REQSTACK()
```

### Event 924

#### Metadata

| Field        | Value   |
|--------------|---------|
| Entrypoint   | 0x03A6  |
| Data Size    | 1 bytes |
| Instructions | 1       |

```
      00 01 02 03 04 05 06 07  08 09 0A 0B 0C 0D 0E 0F
      -- -- -- -- -- -- -- --  -- -- -- -- -- -- -- --
03A0:                   00                                    .         
```

#### Opcodes

```
  0: 0x03A6 [0x00] END_REQSTACK()
```

### Event 65535.27

#### Metadata

| Field        | Value    |
|--------------|----------|
| Entrypoint   | 0x03A7   |
| Data Size    | 15 bytes |
| Instructions | 5        |

```
      00 01 02 03 04 05 06 07  08 09 0A 0B 0C 0D 0E 0F
      -- -- -- -- -- -- -- --  -- -- -- -- -- -- -- --
03A0:                      32  2C 80 1F 00 2D 80 2E 80         2,...-...
03B0: 1A 80 1F 01 6F 00                                 ....o.          
```

#### Opcodes

```
  0: 0x03A7 [0x32] ExtData[1]->MainSpeed = 7* * 0.1
  1: 0x03AA [0x1F] MOVE_ENTITY: EventEntity moves to X=-23.046*, Z=189.301*, Y=-5.999*
  2: 0x03B2 [0x1F] MOVE_ENTITY: Update entity position (mode=1)
  3: 0x03B4 [0x6F] WAIT_FRAME_DELAY: Yield until WaitTime reaches zero
  4: 0x03B5 [0x00] END_REQSTACK()
```

### Event 923

#### Metadata

| Field        | Value   |
|--------------|---------|
| Entrypoint   | 0x03B6  |
| Data Size    | 1 bytes |
| Instructions | 1       |

```
      00 01 02 03 04 05 06 07  08 09 0A 0B 0C 0D 0E 0F
      -- -- -- -- -- -- -- --  -- -- -- -- -- -- -- --
03B0:                   00                                    .         
```

#### Opcodes

```
  0: 0x03B6 [0x00] END_REQSTACK()
```

### Event 925

#### Metadata

| Field        | Value   |
|--------------|---------|
| Entrypoint   | 0x03B7  |
| Data Size    | 1 bytes |
| Instructions | 1       |

```
      00 01 02 03 04 05 06 07  08 09 0A 0B 0C 0D 0E 0F
      -- -- -- -- -- -- -- --  -- -- -- -- -- -- -- --
03B0:                      00                                  .        
```

#### Opcodes

```
  0: 0x03B7 [0x00] END_REQSTACK()
```

### Event 932

#### Metadata

| Field        | Value   |
|--------------|---------|
| Entrypoint   | 0x03B8  |
| Data Size    | 1 bytes |
| Instructions | 1       |

```
      00 01 02 03 04 05 06 07  08 09 0A 0B 0C 0D 0E 0F
      -- -- -- -- -- -- -- --  -- -- -- -- -- -- -- --
03B0:                          00                               .       
```

#### Opcodes

```
  0: 0x03B8 [0x00] END_REQSTACK()
```

### Event 933

#### Metadata

| Field        | Value   |
|--------------|---------|
| Entrypoint   | 0x03B9  |
| Data Size    | 1 bytes |
| Instructions | 1       |

```
      00 01 02 03 04 05 06 07  08 09 0A 0B 0C 0D 0E 0F
      -- -- -- -- -- -- -- --  -- -- -- -- -- -- -- --
03B0:                             00                             .      
```

#### Opcodes

```
  0: 0x03B9 [0x00] END_REQSTACK()
```
