# 17760303 - Panja-Nanja

## Common Data

| Field            | Value                   |
|------------------|-------------------------|
| Zone             | Port Windurst (ID: 240) |
| Block Size       | 744 bytes               |
| Total Events     | 2                       |
| References Count | 52                      |

## List of Events

| Event ID              | Entrypoint   |   Size |   Instructions |
|-----------------------|--------------|--------|----------------|
| [65535](#event-65535) | 0x0000       |      1 |              1 |
| [10011](#event-10011) | 0x0001       |    510 |            132 |

## DAT References (imed_data)

|   Index | Hex Value   |   Dec Value |
|---------|-------------|-------------|
|       0 | 0x0000      |           0 |
|       1 | 0x2DF6      |       11766 |
|       2 | 0x0002      |           2 |
|       3 | 0x2E09      |       11785 |
|       4 | 0x2DF7      |       11767 |
|       5 | 0x0001      |           1 |
|       6 | 0x2E0B      |       11787 |
|       7 | 0x00C8      |         200 |
|       8 | 0x005A      |          90 |
|       9 | 0x2E0A      |       11786 |
|      10 | 0x000A      |          10 |
|      11 | 0x1131      |        4401 |
|      12 | 0x4266      |       16998 |
|      13 | 0x2E0C      |       11788 |
|      14 | 0x2E1A      |       11802 |
|      15 | 0x1194      |        4500 |
|      16 | 0x43F3      |       17395 |
|      17 | 0x2E1B      |       11803 |
|      18 | 0x1175      |        4469 |
|      19 | 0x4267      |       16999 |
|      20 | 0x2E1C      |       11804 |
|      21 | 0x0003      |           3 |
|      22 | 0x1181      |        4481 |
|      23 | 0x43F2      |       17394 |
|      24 | 0x2E1D      |       11805 |
|      25 | 0x0004      |           4 |
|      26 | 0x1176      |        4470 |
|      27 | 0x43F4      |       17396 |
|      28 | 0x2E1E      |       11806 |
|      29 | 0x0005      |           5 |
|      30 | 0x1132      |        4402 |
|      31 | 0x43F5      |       17397 |
|      32 | 0x2E1F      |       11807 |
|      33 | 0x0006      |           6 |
|      34 | 0x1177      |        4471 |
|      35 | 0x4260      |       16992 |
|      36 | 0x2E20      |       11808 |
|      37 | 0x0007      |           7 |
|      38 | 0x117E      |        4478 |
|      39 | 0x43F1      |       17393 |
|      40 | 0x2E21      |       11809 |
|      41 | 0x0008      |           8 |
|      42 | 0x117A      |        4474 |
|      43 | 0x2E22      |       11810 |
|      44 | 0x0009      |           9 |
|      45 | 0x117C      |        4476 |
|      46 | 0x4268      |       17000 |
|      47 | 0x2E23      |       11811 |
|      48 | 0x10D4      |        4308 |
|      49 | 0x2E24      |       11812 |
|      50 | 0x2E0D      |       11789 |
|      51 | 0x2E08      |       11784 |

## String References

- **11766**: What would you like to ask? [For [advanced fishing/fishing/fishing] support./About what kind of fish I can catch./Nothing.]
- **11767**: [Advanced fishing/Fishing/Fishing] support: $0 gil. [Accept./Decline.]
- **11784**: Zzzzz...
- **11785**: Trying to bite off more than we can chew now, are we? Just as bad as a wishy-washy fishy.
- **11786**: I can't help you for free now, no no no. Panja-Nanja's secrets are tip-top.
- **11787**: Now I'll close my... Zzzzz... ...Zzzzz... Huh? Wait? Oh yes, you close your eyes...
- **11788**: Okay. Here's the place and bait, mate!
- **11789**: Fishing... Getting there's half the fun, you know! So, when you're down-frown, don't frown-frown, just move on and keep your spirits up, up, and away!
- **11802**: Ponds, moats, any freshwater and you're sure to find $0. Try using $1 as bait, mate.
- **11803**: % live around the Bhefhel Gulf. Mean little buggers they are. Like the taste of $1.
- **11804**: The $0 lives in ponds and swamps, but only comes out after dark. For a biggie like that guy, make sure you put your $1 on a strong rod!
- **11805**: % can be found along the southern coastline. These guys hate the light, so you'd better pack a sleeping bag with your $1.
- **11806**: As you can probably tell by its name, the $0 likes freezing lakes. Try using $1 to tickle his taste buds.
- **11807**: Use $1 and you'll be able to catch yourself $0. You can find these guys in almost any lake or swamp.
- **11808**: % can be found along the southern coast, but don't forget to take some $1. And don't leave home without a strong rod, because those $0 are mighty huge.
- **11809**: The Sea of Shu'Meyo... That's where you'll have to go if you want to find $0. A rare fishy, that one is. Don't forget to take some $1 along with you.
- **11810**: Why don't you try the cuddly cuttlefish called the $0? Take some $1 to the northern coastline and start fishing.
- **11811**: I doubt you'll ever find one, but you can try reeling in a rare $0 from the Bastore Sea. People say that the big guys like $1, but I don't know of anybody who's ever caught one...
- **11812**: The $0 is a veritable leviathan, so rare that many insist it exists only in anglers' overactive imaginations. Those few who vouch for its existence say it inhabits only a limited area in the northeastern reaches of Mindartia, and often dines on $1.

## Events

### Event 65535

#### Metadata

| Field        | Value   |
|--------------|---------|
| Entrypoint   | 0x0000  |
| Data Size    | 1 bytes |
| Instructions | 1       |

```
      00 01 02 03 04 05 06 07  08 09 0A 0B 0C 0D 0E 0F
      -- -- -- -- -- -- -- --  -- -- -- -- -- -- -- --
0000: 00                                                .               
```

#### Opcodes

```
  0: 0x0000 [0x00] END_REQSTACK()
```

### Event 10011

#### Metadata

| Field        | Value     |
|--------------|-----------|
| Entrypoint   | 0x0001    |
| Data Size    | 510 bytes |
| Instructions | 132       |

```
      00 01 02 03 04 05 06 07  08 09 0A 0B 0C 0D 0E 0F
      -- -- -- -- -- -- -- --  -- -- -- -- -- -- -- --
0000:    3E 05 10 00 80 F9 01  24 01 80 02 80 00 80 25   >......$......%
0010: 02 00 10 00 80 00 86 00  02 07 10 00 80 01 27 00  ..............'.
0020: 1D 03 80 23 01 83 00 24  04 80 05 80 00 80 25 02  ...#...$......%.
0030: 00 10 00 80 00 78 00 02  06 10 02 10 04 71 00 1D  .....x.......q..
0040: 06 80 23 42 45 07 80 F8  FF FF 7F F8 FF FF 7F 66  ..#BE..........f
0050: 64 6F 31 00 80 1C 08 80  45 07 80 F8 FF FF 7F F8  do1.....E.......
0060: FF FF 7F 66 64 69 31 00  80 03 01 10 05 80 01 75  ...fdi1........u
0070: 00 1D 09 80 23 01 83 00  02 00 10 05 80 00 83 00  ....#...........
0080: 01 83 00 01 F6 01 02 00  10 05 80 00 EB 01 15 03  ................
0090: 10 0A 80 02 03 10 00 80  80 B0 00 03 02 10 0B 80  ................
00A0: 03 03 10 0C 80 1D 0D 80  23 1D 0E 80 23 01 E4 01  ........#...#...
00B0: 02 03 10 05 80 80 CD 00  03 02 10 0F 80 03 03 10  ................
00C0: 10 80 1D 0D 80 23 1D 11  80 23 01 E4 01 02 03 10  .....#...#......
00D0: 02 80 80 EA 00 03 02 10  12 80 03 03 10 13 80 1D  ................
00E0: 0D 80 23 1D 14 80 23 01  E4 01 02 03 10 15 80 80  ..#...#.........
00F0: 07 01 03 02 10 16 80 03  03 10 17 80 1D 0D 80 23  ...............#
0100: 1D 18 80 23 01 E4 01 02  03 10 19 80 80 24 01 03  ...#.........$..
0110: 02 10 1A 80 03 03 10 1B  80 1D 0D 80 23 1D 1C 80  ............#...
0120: 23 01 E4 01 02 03 10 1D  80 80 41 01 03 02 10 1E  #.........A.....
0130: 80 03 03 10 1F 80 1D 0D  80 23 1D 20 80 23 01 E4  .........#. .#..
0140: 01 02 03 10 21 80 80 5E  01 03 02 10 22 80 03 03  ....!..^...."...
0150: 10 23 80 1D 0D 80 23 1D  24 80 23 01 E4 01 02 03  .#....#.$.#.....
0160: 10 25 80 80 7B 01 03 02  10 26 80 03 03 10 27 80  .%..{....&....'.
0170: 1D 0D 80 23 1D 28 80 23  01 E4 01 02 03 10 29 80  ...#.(.#......).
0180: 80 98 01 03 02 10 2A 80  03 03 10 27 80 1D 0D 80  ......*....'....
0190: 23 1D 2B 80 23 01 E4 01  02 03 10 2C 80 80 B5 01  #.+.#......,....
01A0: 03 02 10 2D 80 03 03 10  2E 80 1D 0D 80 23 1D 2F  ...-.........#./
01B0: 80 23 01 E4 01 02 03 10  0A 80 80 D2 01 03 02 10  .#..............
01C0: 30 80 03 03 10 13 80 1D  0D 80 23 1D 31 80 23 01  0.........#.1.#.
01D0: E4 01 03 02 10 30 80 03  03 10 13 80 1D 0D 80 23  .....0.........#
01E0: 1D 31 80 23 1D 32 80 23  01 F6 01 02 00 10 02 80  .1.#.2.#........
01F0: 00 F6 01 01 F6 01 01 FD  01 1D 33 80 23 21 00     ..........3.#!. 
```

#### Opcodes

```
  0: 0x0001 [0x3E] IF !(Work_Zone[5] bit 0*) GOTO 0x01F9
  1: 0x0008 [0x24] CREATE_DIALOG(message_id=11766*, default_option=2*, option_flags=0*)
    → "What would you like to ask? [For [advanced fishing/fishing/fishing] support./About what kind of fish I can catch./Nothing.]"
  2: 0x000F [0x25] WAIT_DIALOG_SELECT()
  3: 0x0010 [0x02] IF !(Work_Zone[0] == 0*) GOTO 0x0086
  4: 0x0018 [0x02] IF !(Work_Zone[7] == 0*) GOTO 0x0027
  5: 0x0020 [0x1D] PRINT_EVENT_MESSAGE(message_id=11785*)
    → "Trying to bite off more than we can chew now, are we? Just as bad as a wishy-washy fishy."
  6: 0x0023 [0x23] WAIT_FOR_DIALOG_INTERACTION
  7: 0x0024 [0x01] GOTO 0x0083
  8: 0x0027 [0x24] CREATE_DIALOG(message_id=11767*, default_option=1*, option_flags=0*)
    → "[Advanced fishing/Fishing/Fishing] support: $0 gil. [Accept./Decline.]"
  9: 0x002E [0x25] WAIT_DIALOG_SELECT()
 10: 0x002F [0x02] IF !(Work_Zone[0] == 0*) GOTO 0x0078
 11: 0x0037 [0x02] IF !(Work_Zone[6] < Work_Zone[2]) GOTO 0x0071
 12: 0x003F [0x1D] PRINT_EVENT_MESSAGE(message_id=11787*)
    → "Now I'll close my... Zzzzz... ...Zzzzz... Huh? Wait? Oh yes, you close your eyes..."
 13: 0x0042 [0x23] WAIT_FOR_DIALOG_INTERACTION
 14: 0x0043 [0x42] SET_CLI_EVENT_CANCEL_DATA()
 15: 0x0044 [0x45] LOAD_SCHEDULED_TASK: Load scheduler "fdo1" with entities [EventEntity, EventEntity], work=[200*, 0*]
 16: 0x0055 [0x1C] WAIT(90* ticks)
 17: 0x0058 [0x45] LOAD_SCHEDULED_TASK: Load scheduler "fdi1" with entities [EventEntity, EventEntity], work=[200*, 0*]
 18: 0x0069 [0x03] Work_Zone[1] = 1*
 19: 0x006E [0x01] GOTO 0x0075
 20: 0x0071 [0x1D] PRINT_EVENT_MESSAGE(message_id=11786*)
    → "I can't help you for free now, no no no. Panja-Nanja's secrets are tip-top."
 21: 0x0074 [0x23] WAIT_FOR_DIALOG_INTERACTION

SUBROUTINE_0075:
 22: 0x0075 [0x01] GOTO 0x0083
 23: 0x0078 [0x02] IF !(Work_Zone[0] == 1*) GOTO 0x0083
 24: 0x0080 [0x01] GOTO 0x0083

SUBROUTINE_0083:
 25: 0x0083 [0x01] GOTO 0x01F6
 26: 0x0086 [0x02] IF !(Work_Zone[0] == 1*) GOTO 0x01EB
 27: 0x008E [0x15] Work_Zone[3] /= 10*
 28: 0x0093 [0x02] IF !(Work_Zone[3] == 0*) GOTO 0x00B0
 29: 0x009B [0x03] Work_Zone[2] = 4401*
 30: 0x00A0 [0x03] Work_Zone[3] = 16998*
 31: 0x00A5 [0x1D] PRINT_EVENT_MESSAGE(message_id=11788*)
    → "Okay. Here's the place and bait, mate!"
 32: 0x00A8 [0x23] WAIT_FOR_DIALOG_INTERACTION
 33: 0x00A9 [0x1D] PRINT_EVENT_MESSAGE(message_id=11802*)
    → "Ponds, moats, any freshwater and you're sure to find $0. Try using $1 as bait, mate."
 34: 0x00AC [0x23] WAIT_FOR_DIALOG_INTERACTION
 35: 0x00AD [0x01] GOTO 0x01E4
 36: 0x00B0 [0x02] IF !(Work_Zone[3] == 1*) GOTO 0x00CD
 37: 0x00B8 [0x03] Work_Zone[2] = 4500*
 38: 0x00BD [0x03] Work_Zone[3] = 17395*
 39: 0x00C2 [0x1D] PRINT_EVENT_MESSAGE(message_id=11788*)
    → "Okay. Here's the place and bait, mate!"
 40: 0x00C5 [0x23] WAIT_FOR_DIALOG_INTERACTION
 41: 0x00C6 [0x1D] PRINT_EVENT_MESSAGE(message_id=11803*)
    → "% live around the Bhefhel Gulf. Mean little buggers they are. Like the taste of $1."
 42: 0x00C9 [0x23] WAIT_FOR_DIALOG_INTERACTION
 43: 0x00CA [0x01] GOTO 0x01E4
 44: 0x00CD [0x02] IF !(Work_Zone[3] == 2*) GOTO 0x00EA
 45: 0x00D5 [0x03] Work_Zone[2] = 4469*
 46: 0x00DA [0x03] Work_Zone[3] = 16999*
 47: 0x00DF [0x1D] PRINT_EVENT_MESSAGE(message_id=11788*)
    → "Okay. Here's the place and bait, mate!"
 48: 0x00E2 [0x23] WAIT_FOR_DIALOG_INTERACTION
 49: 0x00E3 [0x1D] PRINT_EVENT_MESSAGE(message_id=11804*)
    → "The $0 lives in ponds and swamps, but only comes out after dark. For a biggie like that guy, make sure you put your $1 on a strong rod!"
 50: 0x00E6 [0x23] WAIT_FOR_DIALOG_INTERACTION
 51: 0x00E7 [0x01] GOTO 0x01E4
 52: 0x00EA [0x02] IF !(Work_Zone[3] == 3*) GOTO 0x0107
 53: 0x00F2 [0x03] Work_Zone[2] = 4481*
 54: 0x00F7 [0x03] Work_Zone[3] = 17394*
 55: 0x00FC [0x1D] PRINT_EVENT_MESSAGE(message_id=11788*)
    → "Okay. Here's the place and bait, mate!"
 56: 0x00FF [0x23] WAIT_FOR_DIALOG_INTERACTION
 57: 0x0100 [0x1D] PRINT_EVENT_MESSAGE(message_id=11805*)
    → "% can be found along the southern coastline. These guys hate the light, so you'd better pack a sleeping bag with your $1."
 58: 0x0103 [0x23] WAIT_FOR_DIALOG_INTERACTION
 59: 0x0104 [0x01] GOTO 0x01E4
 60: 0x0107 [0x02] IF !(Work_Zone[3] == 4*) GOTO 0x0124
 61: 0x010F [0x03] Work_Zone[2] = 4470*
 62: 0x0114 [0x03] Work_Zone[3] = 17396*
 63: 0x0119 [0x1D] PRINT_EVENT_MESSAGE(message_id=11788*)
    → "Okay. Here's the place and bait, mate!"
 64: 0x011C [0x23] WAIT_FOR_DIALOG_INTERACTION
 65: 0x011D [0x1D] PRINT_EVENT_MESSAGE(message_id=11806*)
    → "As you can probably tell by its name, the $0 likes freezing lakes. Try using $1 to tickle his taste buds."
 66: 0x0120 [0x23] WAIT_FOR_DIALOG_INTERACTION
 67: 0x0121 [0x01] GOTO 0x01E4
 68: 0x0124 [0x02] IF !(Work_Zone[3] == 5*) GOTO 0x0141
 69: 0x012C [0x03] Work_Zone[2] = 4402*
 70: 0x0131 [0x03] Work_Zone[3] = 17397*
 71: 0x0136 [0x1D] PRINT_EVENT_MESSAGE(message_id=11788*)
    → "Okay. Here's the place and bait, mate!"
 72: 0x0139 [0x23] WAIT_FOR_DIALOG_INTERACTION
 73: 0x013A [0x1D] PRINT_EVENT_MESSAGE(message_id=11807*)
    → "Use $1 and you'll be able to catch yourself $0. You can find these guys in almost any lake or swamp."
 74: 0x013D [0x23] WAIT_FOR_DIALOG_INTERACTION
 75: 0x013E [0x01] GOTO 0x01E4
 76: 0x0141 [0x02] IF !(Work_Zone[3] == 6*) GOTO 0x015E
 77: 0x0149 [0x03] Work_Zone[2] = 4471*
 78: 0x014E [0x03] Work_Zone[3] = 16992*
 79: 0x0153 [0x1D] PRINT_EVENT_MESSAGE(message_id=11788*)
    → "Okay. Here's the place and bait, mate!"
 80: 0x0156 [0x23] WAIT_FOR_DIALOG_INTERACTION
 81: 0x0157 [0x1D] PRINT_EVENT_MESSAGE(message_id=11808*)
    → "% can be found along the southern coast, but don't forget to take some $1. And don't leave home without a strong rod, because those $0 are mighty huge."
 82: 0x015A [0x23] WAIT_FOR_DIALOG_INTERACTION
 83: 0x015B [0x01] GOTO 0x01E4
 84: 0x015E [0x02] IF !(Work_Zone[3] == 7*) GOTO 0x017B
 85: 0x0166 [0x03] Work_Zone[2] = 4478*
 86: 0x016B [0x03] Work_Zone[3] = 17393*
 87: 0x0170 [0x1D] PRINT_EVENT_MESSAGE(message_id=11788*)
    → "Okay. Here's the place and bait, mate!"
 88: 0x0173 [0x23] WAIT_FOR_DIALOG_INTERACTION
 89: 0x0174 [0x1D] PRINT_EVENT_MESSAGE(message_id=11809*)
    → "The Sea of Shu'Meyo... That's where you'll have to go if you want to find $0. A rare fishy, that one is. Don't forget to take some $1 along with you."
 90: 0x0177 [0x23] WAIT_FOR_DIALOG_INTERACTION
 91: 0x0178 [0x01] GOTO 0x01E4
 92: 0x017B [0x02] IF !(Work_Zone[3] == 8*) GOTO 0x0198
 93: 0x0183 [0x03] Work_Zone[2] = 4474*
 94: 0x0188 [0x03] Work_Zone[3] = 17393*
 95: 0x018D [0x1D] PRINT_EVENT_MESSAGE(message_id=11788*)
    → "Okay. Here's the place and bait, mate!"
 96: 0x0190 [0x23] WAIT_FOR_DIALOG_INTERACTION
 97: 0x0191 [0x1D] PRINT_EVENT_MESSAGE(message_id=11810*)
    → "Why don't you try the cuddly cuttlefish called the $0? Take some $1 to the northern coastline and start fishing."
 98: 0x0194 [0x23] WAIT_FOR_DIALOG_INTERACTION
 99: 0x0195 [0x01] GOTO 0x01E4
100: 0x0198 [0x02] IF !(Work_Zone[3] == 9*) GOTO 0x01B5
101: 0x01A0 [0x03] Work_Zone[2] = 4476*
102: 0x01A5 [0x03] Work_Zone[3] = 17000*
103: 0x01AA [0x1D] PRINT_EVENT_MESSAGE(message_id=11788*)
    → "Okay. Here's the place and bait, mate!"
104: 0x01AD [0x23] WAIT_FOR_DIALOG_INTERACTION
105: 0x01AE [0x1D] PRINT_EVENT_MESSAGE(message_id=11811*)
    → "I doubt you'll ever find one, but you can try reeling in a rare $0 from the Bastore Sea. People say that the big guys like $1, but I don't know of anybody who's ever caught one..."
106: 0x01B1 [0x23] WAIT_FOR_DIALOG_INTERACTION
107: 0x01B2 [0x01] GOTO 0x01E4
108: 0x01B5 [0x02] IF !(Work_Zone[3] == 10*) GOTO 0x01D2
109: 0x01BD [0x03] Work_Zone[2] = 4308*
110: 0x01C2 [0x03] Work_Zone[3] = 16999*
111: 0x01C7 [0x1D] PRINT_EVENT_MESSAGE(message_id=11788*)
    → "Okay. Here's the place and bait, mate!"
112: 0x01CA [0x23] WAIT_FOR_DIALOG_INTERACTION
113: 0x01CB [0x1D] PRINT_EVENT_MESSAGE(message_id=11812*)
    → "The $0 is a veritable leviathan, so rare that many insist it exists only in anglers' overactive imaginations. Those few who vouch for its existence say it inhabits only a limited area in the northeastern reaches of Mindartia, and often dines on $1."
114: 0x01CE [0x23] WAIT_FOR_DIALOG_INTERACTION
115: 0x01CF [0x01] GOTO 0x01E4
116: 0x01D2 [0x03] Work_Zone[2] = 4308*
117: 0x01D7 [0x03] Work_Zone[3] = 16999*
118: 0x01DC [0x1D] PRINT_EVENT_MESSAGE(message_id=11788*)
    → "Okay. Here's the place and bait, mate!"
119: 0x01DF [0x23] WAIT_FOR_DIALOG_INTERACTION
120: 0x01E0 [0x1D] PRINT_EVENT_MESSAGE(message_id=11812*)
    → "The $0 is a veritable leviathan, so rare that many insist it exists only in anglers' overactive imaginations. Those few who vouch for its existence say it inhabits only a limited area in the northeastern reaches of Mindartia, and often dines on $1."
121: 0x01E3 [0x23] WAIT_FOR_DIALOG_INTERACTION

SUBROUTINE_01E4:
122: 0x01E4 [0x1D] PRINT_EVENT_MESSAGE(message_id=11789*)
    → "Fishing... Getting there's half the fun, you know! So, when you're down-frown, don't frown-frown, just move on and keep your spirits up, up, and away!"
123: 0x01E7 [0x23] WAIT_FOR_DIALOG_INTERACTION
124: 0x01E8 [0x01] GOTO 0x01F6
125: 0x01EB [0x02] IF !(Work_Zone[0] == 2*) GOTO 0x01F6
126: 0x01F3 [0x01] GOTO 0x01F6

SUBROUTINE_01F6:
127: 0x01F6 [0x01] GOTO 0x01FD
128: 0x01F9 [0x1D] PRINT_EVENT_MESSAGE(message_id=11784*)
    → "Zzzzz..."
129: 0x01FC [0x23] WAIT_FOR_DIALOG_INTERACTION

SUBROUTINE_01FD:
130: 0x01FD [0x21] END_EVENT
131: 0x01FE [0x00] END_REQSTACK()
```
