# 17760453 - Bonanza Moogle

## Common Data

| Field            | Value                   |
|------------------|-------------------------|
| Zone             | Port Windurst (ID: 240) |
| Block Size       | 3468 bytes              |
| Total Events     | 4                       |
| References Count | 86                      |

## List of Events

| Event ID              | Entrypoint   |   Size |   Instructions |
|-----------------------|--------------|--------|----------------|
| [65535](#event-65535) | 0x0000       |      1 |              1 |
| [912](#event-912)     | 0x0001       |   1987 |            357 |
| [913](#event-913)     | 0x07C4       |    314 |             70 |
| [914](#event-914)     | 0x08FE       |    788 |            163 |

## DAT References (imed_data)

|   Index | Hex Value   |   Dec Value |
|---------|-------------|-------------|
|       0 | 0x0000      |           0 |
|       1 | 0x0001      |           1 |
|       2 | 0x3CE6      |       15590 |
|       3 | 0x0FF9      |        4089 |
|       4 | 0x16DD      |        5853 |
|       5 | 0x3CE7      |       15591 |
|       6 | 0x0009      |           9 |
|       7 | 0x3CE8      |       15592 |
|       8 | 0x000A      |          10 |
|       9 | 0x3CE9      |       15593 |
|      10 | 0x3CEA      |       15594 |
|      11 | 0x0002      |           2 |
|      12 | 0x03E7      |         999 |
|      13 | 0x3CF7      |       15607 |
|      14 | 0x3CF8      |       15608 |
|      15 | 0x3CF9      |       15609 |
|      16 | 0x0064      |         100 |
|      17 | 0x3CFB      |       15611 |
|      18 | 0x3CFC      |       15612 |
|      19 | 0x30D40     |      200000 |
|      20 | 0x3CFD      |       15613 |
|      21 | 0x3CFE      |       15614 |
|      22 | 0x3CFA      |       15610 |
|      23 | 0x0003      |           3 |
|      24 | 0x3D00      |       15616 |
|      25 | 0x3D22      |       15650 |
|      26 | 0x0008      |           8 |
|      27 | 0x001F      |          31 |
|      28 | 0x3CFF      |       15615 |
|      29 | 0x3D20      |       15648 |
|      30 | 0x0004      |           4 |
|      31 | 0x3D21      |       15649 |
|      32 | 0x3CEB      |       15595 |
|      33 | 0x3CEC      |       15596 |
|      34 | 0x3CED      |       15597 |
|      35 | 0x3CEF      |       15599 |
|      36 | 0x3CF0      |       15600 |
|      37 | 0x3CF1      |       15601 |
|      38 | 0x3CF2      |       15602 |
|      39 | 0x0018      |          24 |
|      40 | 0x0005      |           5 |
|      41 | 0x0006      |           6 |
|      42 | 0x0007      |           7 |
|      43 | 0x000B      |          11 |
|      44 | 0x000C      |          12 |
|      45 | 0x000D      |          13 |
|      46 | 0x000E      |          14 |
|      47 | 0x000F      |          15 |
|      48 | 0x0010      |          16 |
|      49 | 0x0011      |          17 |
|      50 | 0x0012      |          18 |
|      51 | 0x0013      |          19 |
|      52 | 0x0014      |          20 |
|      53 | 0x0015      |          21 |
|      54 | 0x3CF4      |       15604 |
|      55 | 0x3CF5      |       15605 |
|      56 | 0x0016      |          22 |
|      57 | 0x3CF6      |       15606 |
|      58 | 0x0028      |          40 |
|      59 | 0xFFFFFFFF  |  4294967295 |
|      60 | 0x3D01      |       15617 |
|      61 | 0x3D02      |       15618 |
|      62 | 0x40000000  |  1073741824 |
|      63 | 0x3D06      |       15622 |
|      64 | 0x3D07      |       15623 |
|      65 | 0x03E8      |        1000 |
|      66 | 0x3D04      |       15620 |
|      67 | 0x3D08      |       15624 |
|      68 | 0x3D09      |       15625 |
|      69 | 0x3D0A      |       15626 |
|      70 | 0x3D0B      |       15627 |
|      71 | 0x3D0C      |       15628 |
|      72 | 0x3D0D      |       15629 |
|      73 | 0x3D0E      |       15630 |
|      74 | 0x3D0F      |       15631 |
|      75 | 0xFFFFFFFE  |  4294967294 |
|      76 | 0x3D14      |       15636 |
|      77 | 0x3D15      |       15637 |
|      78 | 0x4824      |       18468 |
|      79 | 0x3D1D      |       15645 |
|      80 | 0x3D1C      |       15644 |
|      81 | 0x3D19      |       15641 |
|      82 | 0x3D1A      |       15642 |
|      83 | 0x3D16      |       15638 |
|      84 | 0x3D17      |       15639 |
|      85 | 0x3D1B      |       15643 |

## String References

- **15590**: Kupopopo... You do realize what we're selling here, don't you?
- **15591**: Whatever could they be selling? [%./$1.]
- **15592**: If you looked up the entry for "wrong answer" in an encyclopedia, that's exactly what would appear, kupo!
- **15593**: You can purchase your $2 tickets here, kupo.
- **15594**: What would you like to do? [Purchase ticket./Learn about prizes./Learn about the [Mog Bonanza/Nomad Mog Bonanza]./Nothing.]
- **15595**: The Mog Bonanza is a number guessing game, kupo.
- **15596**: The player selects a number between 0 and $3. This number is then recorded on $0, which can be purchased for $1 gil, kupo.
- **15597**: The winning numbers will be announced at a later date, so make sure you don't misplace your $0.
- **15599**: Trade me $0 that has a winning number, and I'll give you a prize in exchange.
- **15600**: But remember to trade winning numbers before the deadline, otherwise they'll be as good as trash.
- **15601**: One more thing. You can only have up to $1 $0, so select your numbers carefully, kupo!
- **15602**: View which rank of prizes? [Rank 1./Rank 2./Rank 3./Rank 4./Rank 5./Nothing.]
- **15605**: The cash prize for rank $21 is $0 gil, kupo!
- **15606**: $22 is a rank $21 prize, kupo!
- **15607**: Great! Please select a number between 0 and $3, kupo. You can also leave this to me if you like.
- **15608**: What will you do? [Leave it up to you./Select my own number./Nothing.]
- **15609**: All right then... How about this number, kupo?
- **15610**: What number would you like?
- **15611**: $0.
- **15612**: Confirm number $0? [Yes please./Changed my mind./Cancel purchase.]
- **15613**: Affirmative! That will be $1 gil, kupo. Is that okay?
- **15614**: What would you like to do? [Purchase number $0 for $1 gil./Cancel purchase.]
- **15615**: Thank you, and good luck, kupo!
- **15616**: I'm afraid that number is not available. Please pick a different number, kupo.
- **15617**: You can check winning numbers and claim prizes for the $2 here, kupo.
- **15618**: What would you like to do? [See winning numbers./Learn how to claim a prize./Nothing.]
- **15620**: The winning numbers for each rank are: [Rank 1 "$7$8$9"/Rank 2 (last $1 digits) "$12$13"/Rank 3 (last $2 digits) "$16"/Rank 4@/Rank 5@/Back.]
- **15622**: If you have $0 for the $2, trade them to me.
- **15623**: I'll give you a prize for each $0 with a winning number, kupo.
- **15624**: Let me check the number on your $0...
- **15625**: ...
- **15626**: <Gasp>! It...it...it's a miracle, kupo!!!
- **15627**: You won a Rank 1 Prize!!! I-I'm so excited, I-I...k-k-k-kupoooooo!!!
- **15628**: Oh my sparkling stars!!! Th-this is...!!!
- **15629**: You won a Rank 2 Prize!!! That's incredible, kupo!!!
- **15630**: Wowsers! Wonderful!
- **15631**: You won a Rank 3 Prize! Congratulations, kupo!
- **15636**: Hm...
- **15637**: I'm sorry, but you got the least-coveted Rank [6/4] Prize, kupo.
- **15638**: Please choose a prize from the following list, kupo.
- **15641**: You got it! Just a moment, kupo.
- **15642**: Understood. Please come back when you've made up your mind, kupo.
- **15643**: You chose $0 gil. [Confirm./Changed my mind./Choose later.]
- **15644**: You chose $22. [Confirm./Changed my mind./Choose later.]
- **15645**: Your consolation prize is $0, kupo!
- **15648**: Sorry, but you can have only up to $1 $0, kupo.
- **15649**: Sorry, but your main job level has to be $1 or more to buy $0, kupo.
- **15650**: Sorry, but I cannot serve you at the moment. Please try again later, kupo.

## Events

### Event 65535

#### Metadata

| Field        | Value   |
|--------------|---------|
| Entrypoint   | 0x0000  |
| Data Size    | 1 bytes |
| Instructions | 1       |

```
      00 01 02 03 04 05 06 07  08 09 0A 0B 0C 0D 0E 0F
      -- -- -- -- -- -- -- --  -- -- -- -- -- -- -- --
0000: 00                                                .               
```

#### Opcodes

```
  0: 0x0000 [0x00] END_REQSTACK()
```

### Event 912

#### Metadata

| Field        | Value      |
|--------------|------------|
| Entrypoint   | 0x0001     |
| Data Size    | 1987 bytes |
| Instructions | 352        |

```
      00 01 02 03 04 05 06 07  08 09 0A 0B 0C 0D 0E 0F
      -- -- -- -- -- -- -- --  -- -- -- -- -- -- -- --
0000:    42 03 15 00 02 10 02  08 10 00 80 00 17 00 03   B..............
0010: 17 17 00 80 01 1C 00 03  17 17 01 80 03 44 00 09  .............D..
0020: 10 4A F8 FF FF 7F F0 FF  FF 7F 02 03 10 00 80 00  .J..............
0030: 66 00 1D 02 80 23 03 02  10 03 80 03 03 10 04 80  f....#..........
0040: 24 05 80 00 80 00 80 25  02 00 10 00 80 00 58 00  $......%......X.
0050: 03 01 10 06 80 01 63 00  1D 07 80 23 03 01 10 08  ......c....#....
0060: 80 21 00 01 66 00 03 16  17 01 80 03 00 00 01 80  .!..f...........
0070: 03 42 00 00 80 03 04 10  44 00 1D 09 80 23 02 00  .B......D....#..
0080: 00 00 80 02 C8 00 03 04  10 44 00 24 0A 80 00 80  .........D.$....
0090: 00 80 25 02 00 10 00 80  00 A1 00 1A CA 00 01 C5  ..%.............
00A0: 00 02 00 10 01 80 00 AF  00 1A B9 02 01 C5 00 02  ................
00B0: 00 10 0B 80 00 BD 00 1A  87 02 01 C5 00 06 00 00  ................
00C0: 03 01 10 06 80 01 7E 00  21 00 0B 00 00 02 00 00  ......~.!.......
00D0: 01 80 02 01 02 03 05 10  0C 80 1D 0D 80 23 24 0E  .............#$.
00E0: 80 00 80 00 80 25 02 00  10 00 80 00 73 01 1D 0F  .....%......s...
00F0: 80 23 13 02 10 06 80 1C  01 80 13 03 10 06 80 14  .#..............
0100: 03 10 08 80 07 02 10 03  10 1C 01 80 13 03 10 06  ................
0110: 80 14 03 10 10 80 07 02  10 03 10 1D 11 80 23 24  ..............#$
0120: 12 80 01 80 00 80 25 02  00 10 00 80 00 5F 01 03  ......%......_..
0130: 03 10 13 80 1D 14 80 23  24 15 80 00 80 00 80 25  .......#$......%
0140: 02 00 10 00 80 00 4E 01  1A 02 02 01 5C 01 02 00  ......N.....\...
0150: 10 01 80 00 5C 01 0C 00  00 01 5C 01 01 70 01 02  ....\.....\..p..
0160: 00 10 01 80 00 6D 01 01  EE 00 01 70 01 0C 00 00  .....m.....p....
0170: 01 FE 01 02 00 10 01 80  00 FB 01 1D 16 80 23 71  ..............#q
0180: 12 01 80 17 80 71 13 02  10 02 02 10 00 80 04 F4  .....q..........
0190: 01 02 02 10 0C 80 05 ED  01 24 12 80 01 80 00 80  .........$......
01A0: 25 02 00 10 00 80 00 D9  01 03 03 10 13 80 1D 14  %...............
01B0: 80 23 24 15 80 00 80 00  80 25 02 00 10 00 80 00  .#$......%......
01C0: C8 01 1A 02 02 01 D6 01  02 00 10 01 80 00 D6 01  ................
01D0: 0C 00 00 01 D6 01 01 EA  01 02 00 10 01 80 00 E7  ................
01E0: 01 01 7B 01 01 EA 01 0C  00 00 01 F1 01 1D 18 80  ..{.............
01F0: 23 01 F8 01 1D 18 80 23  01 FE 01 0C 00 00 01 CD  #......#........
0200: 00 1B 02 02 10 00 80 03  28 02 02 02 10 0C 80 02  ........(.......
0210: 28 02 1D 19 80 23 03 01  10 17 80 40 1A 80 1B 80  (....#.....@....
0220: 01 10 09 10 06 00 00 1B  03 01 10 0B 80 40 1A 80  .............@..
0230: 1B 80 01 10 02 10 43 00  43 01 02 09 10 00 80 00  ......C.C.......
0240: 49 02 1D 1C 80 23 01 75  02 02 09 10 17 80 80 5D  I....#.u.......]
0250: 02 03 02 10 03 80 1D 1D  80 23 01 75 02 02 09 10  .........#.u....
0260: 1E 80 80 71 02 03 02 10  03 80 1D 1F 80 23 01 75  ...q.........#.u
0270: 02 1D 19 80 23 03 01 10  17 80 40 1A 80 1B 80 01  ....#.....@.....
0280: 10 09 10 06 00 00 1B 03  04 10 44 00 1D 20 80 23  ..........D.. .#
0290: 03 02 10 03 80 03 03 10  13 80 03 05 10 0C 80 1D  ................
02A0: 21 80 23 1D 22 80 23 1D  23 80 23 1D 24 80 23 03  !.#.".#.#.#.$.#.
02B0: 03 10 15 00 1D 25 80 23  1B 0B 00 00 02 00 00 01  .....%.#........
02C0: 80 02 F0 02 24 26 80 00  80 27 80 25 02 00 10 28  ....$&...'.%...(
02D0: 80 00 DA 02 0C 00 00 01  ED 02 03 43 00 00 10 0B  ...........C....
02E0: 43 00 03 01 00 00 10 1A  11 04 1A F1 02 01 BC 02  C...............
02F0: 1B 0B 00 00 03 0D 17 43  00 02 00 00 0B 80 02 10  .......C........
0300: 04 1A C5 05 D4 03 01 80  03 10 D4 03 0B 80 04 10  ................
0310: D4 03 17 80 05 10 D4 03  1E 80 06 10 D4 03 28 80  ..............(.
0320: 07 10 D4 03 29 80 08 10  D4 03 2A 80 09 10 D4 03  ....).....*.....
0330: 1A 80 00 17 D4 03 06 80  01 17 D4 03 08 80 02 17  ................
0340: D4 03 2B 80 03 17 D4 03  2C 80 04 17 D4 03 2D 80  ..+.....,.....-.
0350: 05 17 D4 03 2E 80 06 17  D4 03 2F 80 07 17 D4 03  ........../.....
0360: 30 80 08 17 D4 03 31 80  09 17 D4 03 32 80 0A 17  0.....1.....2...
0370: D4 03 33 80 0B 17 D4 03  34 80 0C 17 02 42 00 00  ..3.....4....B..
0380: 80 00 AB 03 02 40 00 34  80 05 93 03 3C 0E 00 35  .....@.4....<..5
0390: 80 01 80 02 17 00 00 80  00 A8 03 D4 03 00 80 00  ................
03A0: 80 3C 0E 00 00 80 01 80  01 B8 03 D4 03 00 80 02  .<..............
03B0: 10 3C 0E 00 00 80 01 80  03 0E 17 42 00 D4 02 36  .<.........B...6
03C0: 80 00 80 0E 00 25 02 00  10 00 80 00 D5 03 1D 37  .....%.........7
03D0: 80 23 01 0D 04 02 00 10  35 80 00 E8 03 0B 42 00  .#......5.....B.
03E0: 0D 42 00 01 80 01 0D 04  02 00 10 38 80 00 FB 03  .B.........8....
03F0: 0C 00 00 03 42 00 00 80  01 0D 04 9D 00 44 07 0E  ....B........D..
0400: 17 00 10 93 0E 17 1D 39  80 23 93 00 80 01 F9 02  .......9.#......
0410: 1B 1A 28 07 03 01 10 00  80 40 1A 80 1B 80 01 10  ..(......@......
0420: 01 00 43 00 43 01 03 17  00 02 10 41 00 80 2F 80  ..C.C......A../.
0430: 03 10 18 00 41 30 80 1B  80 03 10 19 00 41 00 80  ....A0.......A..
0440: 2F 80 04 10 1A 00 41 30  80 1B 80 04 10 1B 00 41  /.....A0.......A
0450: 00 80 2F 80 05 10 1C 00  41 30 80 1B 80 05 10 1D  ../.....A0......
0460: 00 41 00 80 2F 80 06 10  1E 00 41 30 80 1B 80 06  .A../.....A0....
0470: 10 1F 00 41 00 80 2F 80  07 10 20 00 41 30 80 1B  ...A../... .A0..
0480: 80 07 10 21 00 41 00 80  2F 80 08 10 22 00 41 30  ...!.A../...".A0
0490: 80 1B 80 08 10 23 00 41  00 80 2F 80 09 10 24 00  .....#.A../...$.
04A0: 41 30 80 1B 80 09 10 25  00 03 01 10 01 80 40 1A  A0.....%......@.
04B0: 80 1B 80 01 10 01 00 43  00 43 01 41 00 80 2F 80  .......C.C.A../.
04C0: 02 10 26 00 41 30 80 1B  80 02 10 27 00 41 00 80  ..&.A0.....'.A..
04D0: 2F 80 03 10 28 00 41 30  80 1B 80 03 10 29 00 41  /...(.A0.....).A
04E0: 00 80 2F 80 04 10 2A 00  41 30 80 1B 80 04 10 2B  ../...*.A0.....+
04F0: 00 41 00 80 2F 80 05 10  2C 00 41 30 80 1B 80 05  .A../...,.A0....
0500: 10 2D 00 41 00 80 2F 80  06 10 2E 00 41 30 80 1B  .-.A../.....A0..
0510: 80 06 10 2F 00 41 00 80  2F 80 07 10 30 00 41 30  .../.A../...0.A0
0520: 80 1B 80 07 10 31 00 41  00 80 2F 80 08 10 32 00  .....1.A../...2.
0530: 41 30 80 1B 80 08 10 33  00 41 00 80 2F 80 09 10  A0.....3.A../...
0540: 34 00 41 30 80 1B 80 09  10 35 00 03 01 10 1E 80  4.A0.....5......
0550: 40 1A 80 1B 80 01 10 01  00 43 00 43 01 41 00 80  @........C.C.A..
0560: 2F 80 02 10 36 00 41 30  80 1B 80 02 10 37 00 41  /...6.A0.....7.A
0570: 00 80 2F 80 03 10 38 00  41 30 80 1B 80 03 10 39  ../...8.A0.....9
0580: 00 41 00 80 2F 80 04 10  3A 00 41 30 80 1B 80 04  .A../...:.A0....
0590: 10 3B 00 41 00 80 2F 80  05 10 3C 00 41 30 80 1B  .;.A../...<.A0..
05A0: 80 05 10 3D 00 41 00 80  2F 80 06 10 3E 00 41 30  ...=.A../...>.A0
05B0: 80 1B 80 06 10 3F 00 03  0E 00 07 10 03 16 00 08  .....?..........
05C0: 10 1A FC 06 1B 03 0E 00  00 80 02 42 00 01 80 00  ...........B....
05D0: 68 06 03 02 10 00 80 03  03 10 2C 00 03 04 10 2D  h.........,....-
05E0: 00 03 05 10 2E 00 03 06  10 2F 00 03 07 10 30 00  ........./....0.
05F0: 03 08 10 31 00 03 09 10  32 00 03 00 17 33 00 03  ...1....2....3..
0600: 01 17 34 00 03 02 17 35  00 03 03 17 36 00 03 04  ..4....5....6...
0610: 17 37 00 03 05 17 38 00  03 06 17 39 00 03 07 17  .7....8....9....
0620: 3A 00 03 08 17 3B 00 03  09 17 3C 00 03 0A 17 3D  :....;....<....=
0630: 00 03 0B 17 3E 00 03 0C  17 3F 00 03 41 00 00 80  ....>....?..A...
0640: 02 41 00 35 80 03 65 06  9D 00 44 07 01 00 41 00  .A.5..e...D...A.
0650: 02 01 00 00 80 00 5F 06  3C 0E 00 41 00 01 80 0B  ......_.<..A....
0660: 41 00 01 40 06 01 FB 06  03 02 10 17 00 03 03 10  A..@............
0670: 18 00 03 04 10 19 00 03  05 10 1A 00 03 06 10 1B  ................
0680: 00 03 07 10 1C 00 03 08  10 1D 00 03 09 10 1E 00  ................
0690: 03 00 17 1F 00 03 01 17  20 00 03 02 17 21 00 03  ........ ....!..
06A0: 03 17 22 00 03 04 17 23  00 03 05 17 24 00 03 06  .."....#....$...
06B0: 17 25 00 03 07 17 26 00  03 08 17 27 00 03 09 17  .%....&....'....
06C0: 28 00 03 0A 17 29 00 03  0B 17 2A 00 03 0C 17 2B  (....)....*....+
06D0: 00 03 41 00 00 80 02 41  00 35 80 03 FB 06 9D 00  ..A....A.5......
06E0: 44 07 01 00 41 00 02 01  00 00 80 00 F5 06 3C 0E  D...A.........<.
06F0: 00 41 00 01 80 0B 41 00  01 D6 06 1B 03 41 00 00  .A....A......A..
0700: 80 03 40 00 00 80 02 41  00 3A 80 03 27 07 9D 00  ..@....A.:..'...
0710: 74 07 01 00 41 00 02 01  00 00 80 02 21 07 0B 40  t...A.......!..@
0720: 00 0B 41 00 01 06 07 1B  03 41 00 00 80 02 41 00  ..A......A....A.
0730: 3A 80 03 43 07 9D 05 74  07 00 80 41 00 0B 41 00  :..C...t...A..A.
0740: 01 2D 07 1B 02 10 03 10  04 10 05 10 06 10 07 10  .-..............
0750: 08 10 09 10 00 17 01 17  02 17 03 17 04 17 05 17  ................
0760: 06 17 07 17 08 17 09 17  0A 17 0B 17 0C 17 0D 17  ................
0770: 0E 17 0F 17 18 00 19 00  1A 00 1B 00 1C 00 1D 00  ................
0780: 1E 00 1F 00 20 00 21 00  22 00 23 00 24 00 25 00  .... .!.".#.$.%.
0790: 26 00 27 00 28 00 29 00  2A 00 2B 00 2C 00 2D 00  &.'.(.).*.+.,.-.
07A0: 2E 00 2F 00 30 00 31 00  32 00 33 00 34 00 35 00  ../.0.1.2.3.4.5.
07B0: 36 00 37 00 38 00 39 00  3A 00 3B 00 3C 00 3D 00  6.7.8.9.:.;.<.=.
07C0: 3E 00 3F 00                                       >.?.            
```

#### Opcodes

```
  0: 0x0001 [0x42] SET_CLI_EVENT_CANCEL_DATA()
  1: 0x0002 [0x03] ExtData[1]->WorkLocal[21] = Work_Zone[2]
  2: 0x0007 [0x02] IF !(Work_Zone[8] == 0*) GOTO 0x0017
  3: 0x000F [0x03] Work_Zone_1700[23] = 0*
  4: 0x0014 [0x01] GOTO 0x001C
  5: 0x0017 [0x03] Work_Zone_1700[23] = 1*

SUBROUTINE_001C:
  6: 0x001C [0x03] ExtData[1]->WorkLocal[68] = Work_Zone[9]
  7: 0x0021 [0x4A] EventEntity looks at LocalPlayer
  8: 0x002A [0x02] IF !(Work_Zone[3] == 0*) GOTO 0x0066
  9: 0x0032 [0x1D] PRINT_EVENT_MESSAGE(message_id=15590*)
    → "Kupopopo... You do realize what we're selling here, don't you?"
 10: 0x0035 [0x23] WAIT_FOR_DIALOG_INTERACTION
 11: 0x0036 [0x03] Work_Zone[2] = 4089*
 12: 0x003B [0x03] Work_Zone[3] = 5853*
 13: 0x0040 [0x24] CREATE_DIALOG(message_id=15591*, default_option=0*, option_flags=0*)
    → "Whatever could they be selling? [%./$1.]"
 14: 0x0047 [0x25] WAIT_DIALOG_SELECT()
 15: 0x0048 [0x02] IF !(Work_Zone[0] == 0*) GOTO 0x0058
 16: 0x0050 [0x03] Work_Zone[1] = 9*
 17: 0x0055 [0x01] GOTO 0x0063
 18: 0x0058 [0x1D] PRINT_EVENT_MESSAGE(message_id=15592*)
    → "If you looked up the entry for "wrong answer" in an encyclopedia, that's exactly what would appear, kupo!"
 19: 0x005B [0x23] WAIT_FOR_DIALOG_INTERACTION
 20: 0x005C [0x03] Work_Zone[1] = 10*
 21: 0x0061 [0x21] END_EVENT
 22: 0x0062 [0x00] END_REQSTACK()

SUBROUTINE_0063:
 23: 0x0063 [0x01] GOTO 0x0066

SUBROUTINE_0066:
 24: 0x0066 [0x03] Work_Zone_1700[22] = 1*
 25: 0x006B [0x03] ExtData[1]->WorkLocal[0] = 1*
 26: 0x0070 [0x03] ExtData[1]->WorkLocal[66] = 0*
 27: 0x0075 [0x03] Work_Zone[4] = ExtData[1]->WorkLocal[68]
 28: 0x007A [0x1D] PRINT_EVENT_MESSAGE(message_id=15593*)
    → "You can purchase your $2 tickets here, kupo."
 29: 0x007D [0x23] WAIT_FOR_DIALOG_INTERACTION

SUBROUTINE_007E:
 30: 0x007E [0x02] IF !(ExtData[1]->WorkLocal[0] <= 0*) GOTO 0x00C8
 31: 0x0086 [0x03] Work_Zone[4] = ExtData[1]->WorkLocal[68]
 32: 0x008B [0x24] CREATE_DIALOG(message_id=15594*, default_option=0*, option_flags=0*)
    → "What would you like to do? [Purchase ticket./Learn about prizes./Learn about the [Mog Bonanza/Nomad Mog Bonanza]./Nothing.]"
 33: 0x0092 [0x25] WAIT_DIALOG_SELECT()
 34: 0x0093 [0x02] IF !(Work_Zone[0] == 0*) GOTO 0x00A1
 35: 0x009B [0x1A] CALL_SUBROUTINE(address=0x00CA)
 36: 0x009E [0x01] GOTO 0x00C5
 37: 0x00A1 [0x02] IF !(Work_Zone[0] == 1*) GOTO 0x00AF
 38: 0x00A9 [0x1A] CALL_SUBROUTINE(address=0x02B9)
 39: 0x00AC [0x01] GOTO 0x00C5
 40: 0x00AF [0x02] IF !(Work_Zone[0] == 2*) GOTO 0x00BD
 41: 0x00B7 [0x1A] CALL_SUBROUTINE(address=0x0287)
 42: 0x00BA [0x01] GOTO 0x00C5
 43: 0x00BD [0x06] ExtData[1]->WorkLocal[0] = 0
 44: 0x00C0 [0x03] Work_Zone[1] = 9*

SUBROUTINE_00C5:
 45: 0x00C5 [0x01] GOTO 0x007E
 46: 0x00C8 [0x21] END_EVENT
 47: 0x00C9 [0x00] END_REQSTACK()

SUBROUTINE_00CA:
 48: 0x00CA [0x0B] ExtData[1]->WorkLocal[0]++

SUBROUTINE_00CD:
 49: 0x00CD [0x02] IF !(ExtData[1]->WorkLocal[0] <= 1*) GOTO 0x0201
 50: 0x00D5 [0x03] Work_Zone[5] = 999*
 51: 0x00DA [0x1D] PRINT_EVENT_MESSAGE(message_id=15607*)
    → "Great! Please select a number between 0 and $3, kupo. You can also leave this to me if you like."
 52: 0x00DD [0x23] WAIT_FOR_DIALOG_INTERACTION
 53: 0x00DE [0x24] CREATE_DIALOG(message_id=15608*, default_option=0*, option_flags=0*)
    → "What will you do? [Leave it up to you./Select my own number./Nothing.]"
 54: 0x00E5 [0x25] WAIT_DIALOG_SELECT()
 55: 0x00E6 [0x02] IF !(Work_Zone[0] == 0*) GOTO 0x0173

SUBROUTINE_00EE:
 56: 0x00EE [0x1D] PRINT_EVENT_MESSAGE(message_id=15609*)
    → "All right then... How about this number, kupo?"
 57: 0x00F1 [0x23] WAIT_FOR_DIALOG_INTERACTION
 58: 0x00F2 [0x13] Work_Zone[2] = rand() % 9*
 59: 0x00F7 [0x1C] WAIT(1* ticks)
 60: 0x00FA [0x13] Work_Zone[3] = rand() % 9*
 61: 0x00FF [0x14] Work_Zone[3] *= 10*
 62: 0x0104 [0x07] Work_Zone[2] += Work_Zone[3]
 63: 0x0109 [0x1C] WAIT(1* ticks)
 64: 0x010C [0x13] Work_Zone[3] = rand() % 9*
 65: 0x0111 [0x14] Work_Zone[3] *= 100*
 66: 0x0116 [0x07] Work_Zone[2] += Work_Zone[3]
 67: 0x011B [0x1D] PRINT_EVENT_MESSAGE(message_id=15611*)
    → "$0."
 68: 0x011E [0x23] WAIT_FOR_DIALOG_INTERACTION
 69: 0x011F [0x24] CREATE_DIALOG(message_id=15612*, default_option=1*, option_flags=0*)
    → "Confirm number $0? [Yes please./Changed my mind./Cancel purchase.]"
 70: 0x0126 [0x25] WAIT_DIALOG_SELECT()
 71: 0x0127 [0x02] IF !(Work_Zone[0] == 0*) GOTO 0x015F
 72: 0x012F [0x03] Work_Zone[3] = 200000*
 73: 0x0134 [0x1D] PRINT_EVENT_MESSAGE(message_id=15613*)
    → "Affirmative! That will be $1 gil, kupo. Is that okay?"
 74: 0x0137 [0x23] WAIT_FOR_DIALOG_INTERACTION
 75: 0x0138 [0x24] CREATE_DIALOG(message_id=15614*, default_option=0*, option_flags=0*)
    → "What would you like to do? [Purchase number $0 for $1 gil./Cancel purchase.]"
 76: 0x013F [0x25] WAIT_DIALOG_SELECT()
 77: 0x0140 [0x02] IF !(Work_Zone[0] == 0*) GOTO 0x014E
 78: 0x0148 [0x1A] CALL_SUBROUTINE(address=0x0202)
 79: 0x014B [0x01] GOTO 0x015C
 80: 0x014E [0x02] IF !(Work_Zone[0] == 1*) GOTO 0x015C
 81: 0x0156 [0x0C] ExtData[1]->WorkLocal[0]--
 82: 0x0159 [0x01] GOTO 0x015C

SUBROUTINE_015C:
 83: 0x015C [0x01] GOTO 0x0170
 84: 0x015F [0x02] IF !(Work_Zone[0] == 1*) GOTO 0x016D
 85: 0x0167 [0x01] GOTO 0x00EE

SUBROUTINE_0170:
 86: 0x0170 [0x01] GOTO 0x01FE
 87: 0x0173 [0x02] IF !(Work_Zone[0] == 1*) GOTO 0x01FB

SUBROUTINE_017B:
 88: 0x017B [0x1D] PRINT_EVENT_MESSAGE(message_id=15610*)
    → "What number would you like?"
 89: 0x017E [0x23] WAIT_FOR_DIALOG_INTERACTION
 90: 0x017F [0x71] USER_INPUT_HANDLER: Open numerical input with params (work=[1*, 3*])
 91: 0x0185 [0x71] USER_INPUT_HANDLER: Process numerical input B (work=Work_Zone[2])
 92: 0x0189 [0x02] IF !(Work_Zone[2] < 0*) GOTO 0x01F4
 93: 0x0191 [0x02] IF !(Work_Zone[2] > 999*) GOTO 0x01ED
 94: 0x0199 [0x24] CREATE_DIALOG(message_id=15612*, default_option=1*, option_flags=0*)
    → "Confirm number $0? [Yes please./Changed my mind./Cancel purchase.]"
 95: 0x01A0 [0x25] WAIT_DIALOG_SELECT()
 96: 0x01A1 [0x02] IF !(Work_Zone[0] == 0*) GOTO 0x01D9
 97: 0x01A9 [0x03] Work_Zone[3] = 200000*
 98: 0x01AE [0x1D] PRINT_EVENT_MESSAGE(message_id=15613*)
    → "Affirmative! That will be $1 gil, kupo. Is that okay?"
 99: 0x01B1 [0x23] WAIT_FOR_DIALOG_INTERACTION
100: 0x01B2 [0x24] CREATE_DIALOG(message_id=15614*, default_option=0*, option_flags=0*)
    → "What would you like to do? [Purchase number $0 for $1 gil./Cancel purchase.]"
101: 0x01B9 [0x25] WAIT_DIALOG_SELECT()
102: 0x01BA [0x02] IF !(Work_Zone[0] == 0*) GOTO 0x01C8
103: 0x01C2 [0x1A] CALL_SUBROUTINE(address=0x0202)
104: 0x01C5 [0x01] GOTO 0x01D6
105: 0x01C8 [0x02] IF !(Work_Zone[0] == 1*) GOTO 0x01D6
106: 0x01D0 [0x0C] ExtData[1]->WorkLocal[0]--
107: 0x01D3 [0x01] GOTO 0x01D6

SUBROUTINE_01D6:
108: 0x01D6 [0x01] GOTO 0x01EA
109: 0x01D9 [0x02] IF !(Work_Zone[0] == 1*) GOTO 0x01E7
110: 0x01E1 [0x01] GOTO 0x017B

SUBROUTINE_01EA:
111: 0x01EA [0x01] GOTO 0x01F1
112: 0x01ED [0x1D] PRINT_EVENT_MESSAGE(message_id=15616*)
    → "I'm afraid that number is not available. Please pick a different number, kupo."
113: 0x01F0 [0x23] WAIT_FOR_DIALOG_INTERACTION

SUBROUTINE_01F1:
114: 0x01F1 [0x01] GOTO 0x01F8
115: 0x01F4 [0x1D] PRINT_EVENT_MESSAGE(message_id=15616*)
    → "I'm afraid that number is not available. Please pick a different number, kupo."
116: 0x01F7 [0x23] WAIT_FOR_DIALOG_INTERACTION

SUBROUTINE_01F8:
117: 0x01F8 [0x01] GOTO 0x01FE
118: 0x01FB [0x0C] ExtData[1]->WorkLocal[0]--

SUBROUTINE_01FE:
119: 0x01FE [0x01] GOTO 0x00CD
120: 0x0201 [0x1B] RETURN

SUBROUTINE_0202:
121: 0x0202 [0x02] IF !(Work_Zone[2] >= 0*) GOTO 0x0228
122: 0x020A [0x02] IF !(Work_Zone[2] <= 999*) GOTO 0x0228
123: 0x0212 [0x1D] PRINT_EVENT_MESSAGE(message_id=15650*)
    → "Sorry, but I cannot serve you at the moment. Please try again later, kupo."
124: 0x0215 [0x23] WAIT_FOR_DIALOG_INTERACTION
125: 0x0216 [0x03] Work_Zone[1] = 3*
126: 0x021B [0x40] SET_BIT_WORK_RANGE(start_bit=8*, end_bit=31*, target=Work_Zone[1], source=Work_Zone[9])
127: 0x0224 [0x06] ExtData[1]->WorkLocal[0] = 0
128: 0x0227 [0x1B] RETURN
129: 0x0228 [0x03] Work_Zone[1] = 2*
130: 0x022D [0x40] SET_BIT_WORK_RANGE(start_bit=8*, end_bit=31*, target=Work_Zone[1], source=Work_Zone[2])
131: 0x0236 [0x43] SEND_EVENT_UPDATE: Send pending tag to server (packet 0x005B)
132: 0x0238 [0x43] SEND_EVENT_UPDATE: Check pending flag (skip if not pending)
133: 0x023A [0x02] IF !(Work_Zone[9] == 0*) GOTO 0x0249
134: 0x0242 [0x1D] PRINT_EVENT_MESSAGE(message_id=15615*)
    → "Thank you, and good luck, kupo!"
135: 0x0245 [0x23] WAIT_FOR_DIALOG_INTERACTION
136: 0x0246 [0x01] GOTO 0x0275
137: 0x0249 [0x02] IF !(Work_Zone[9] == 3*) GOTO 0x025D
138: 0x0251 [0x03] Work_Zone[2] = 4089*
139: 0x0256 [0x1D] PRINT_EVENT_MESSAGE(message_id=15648*)
    → "Sorry, but you can have only up to $1 $0, kupo."
140: 0x0259 [0x23] WAIT_FOR_DIALOG_INTERACTION
141: 0x025A [0x01] GOTO 0x0275
142: 0x025D [0x02] IF !(Work_Zone[9] == 4*) GOTO 0x0271
143: 0x0265 [0x03] Work_Zone[2] = 4089*
144: 0x026A [0x1D] PRINT_EVENT_MESSAGE(message_id=15649*)
    → "Sorry, but your main job level has to be $1 or more to buy $0, kupo."
145: 0x026D [0x23] WAIT_FOR_DIALOG_INTERACTION
146: 0x026E [0x01] GOTO 0x0275
147: 0x0271 [0x1D] PRINT_EVENT_MESSAGE(message_id=15650*)
    → "Sorry, but I cannot serve you at the moment. Please try again later, kupo."
148: 0x0274 [0x23] WAIT_FOR_DIALOG_INTERACTION

SUBROUTINE_0275:
149: 0x0275 [0x03] Work_Zone[1] = 3*
150: 0x027A [0x40] SET_BIT_WORK_RANGE(start_bit=8*, end_bit=31*, target=Work_Zone[1], source=Work_Zone[9])
151: 0x0283 [0x06] ExtData[1]->WorkLocal[0] = 0
152: 0x0286 [0x1B] RETURN

SUBROUTINE_0287:
153: 0x0287 [0x03] Work_Zone[4] = ExtData[1]->WorkLocal[68]
154: 0x028C [0x1D] PRINT_EVENT_MESSAGE(message_id=15595*)
    → "The Mog Bonanza is a number guessing game, kupo."
155: 0x028F [0x23] WAIT_FOR_DIALOG_INTERACTION
156: 0x0290 [0x03] Work_Zone[2] = 4089*
157: 0x0295 [0x03] Work_Zone[3] = 200000*
158: 0x029A [0x03] Work_Zone[5] = 999*
159: 0x029F [0x1D] PRINT_EVENT_MESSAGE(message_id=15596*)
    → "The player selects a number between 0 and $3. This number is then recorded on $0, which can be purchased for $1 gil, kupo."
160: 0x02A2 [0x23] WAIT_FOR_DIALOG_INTERACTION
161: 0x02A3 [0x1D] PRINT_EVENT_MESSAGE(message_id=15597*)
    → "The winning numbers will be announced at a later date, so make sure you don't misplace your $0."
162: 0x02A6 [0x23] WAIT_FOR_DIALOG_INTERACTION
163: 0x02A7 [0x1D] PRINT_EVENT_MESSAGE(message_id=15599*)
    → "Trade me $0 that has a winning number, and I'll give you a prize in exchange."
164: 0x02AA [0x23] WAIT_FOR_DIALOG_INTERACTION
165: 0x02AB [0x1D] PRINT_EVENT_MESSAGE(message_id=15600*)
    → "But remember to trade winning numbers before the deadline, otherwise they'll be as good as trash."
166: 0x02AE [0x23] WAIT_FOR_DIALOG_INTERACTION
167: 0x02AF [0x03] Work_Zone[3] = ExtData[1]->WorkLocal[21]
168: 0x02B4 [0x1D] PRINT_EVENT_MESSAGE(message_id=15601*)
    → "One more thing. You can only have up to $1 $0, so select your numbers carefully, kupo!"
169: 0x02B7 [0x23] WAIT_FOR_DIALOG_INTERACTION
170: 0x02B8 [0x1B] RETURN

SUBROUTINE_02B9:
171: 0x02B9 [0x0B] ExtData[1]->WorkLocal[0]++

SUBROUTINE_02BC:
172: 0x02BC [0x02] IF !(ExtData[1]->WorkLocal[0] <= 1*) GOTO 0x02F0
173: 0x02C4 [0x24] CREATE_DIALOG(message_id=15602*, default_option=0*, option_flags=24*)
    → "View which rank of prizes? [Rank 1./Rank 2./Rank 3./Rank 4./Rank 5./Nothing.]"
174: 0x02CB [0x25] WAIT_DIALOG_SELECT()
175: 0x02CC [0x02] IF !(Work_Zone[0] == 5*) GOTO 0x02DA
176: 0x02D4 [0x0C] ExtData[1]->WorkLocal[0]--
177: 0x02D7 [0x01] GOTO 0x02ED
178: 0x02DA [0x03] ExtData[1]->WorkLocal[67] = Work_Zone[0]
179: 0x02DF [0x0B] ExtData[1]->WorkLocal[67]++
180: 0x02E2 [0x03] ExtData[1]->WorkLocal[1] = Work_Zone[0]
181: 0x02E7 [0x1A] CALL_SUBROUTINE(address=0x0411)
182: 0x02EA [0x1A] CALL_SUBROUTINE(address=0x02F1)

SUBROUTINE_02ED:
183: 0x02ED [0x01] GOTO 0x02BC
184: 0x02F0 [0x1B] RETURN

SUBROUTINE_02F1:
185: 0x02F1 [0x0B] ExtData[1]->WorkLocal[0]++
186: 0x02F4 [0x03] Work_Zone_1700[13] = ExtData[1]->WorkLocal[67]

SUBROUTINE_02F9:
187: 0x02F9 [0x02] IF !(ExtData[1]->WorkLocal[0] <= 2*) GOTO 0x0410
188: 0x0301 [0x1A] CALL_SUBROUTINE(address=0x05C5)
189: 0x0304 [0xD4] MAP_QUERY_WINDOW: Prepare buffer configuration A (buffer=[01 80 03 10 D4 03 0B 80...])
190: 0x0322 [0xD4] MAP_QUERY_WINDOW: Prepare buffer configuration A (buffer=[29 80 08 10 D4 03 2A 80...])
191: 0x0340 [0xD4] MAP_QUERY_WINDOW: Prepare buffer configuration A (buffer=[2B 80 03 17 D4 03 2C 80...])
192: 0x035E [0xD4] MAP_QUERY_WINDOW: Prepare buffer configuration A (buffer=[30 80 08 17 D4 03 31 80...])
193: 0x037C [0x02] IF !(ExtData[1]->WorkLocal[66] == 0*) GOTO 0x03AB
194: 0x0384 [0x02] IF !(ExtData[1]->WorkLocal[64] > 20*) GOTO 0x0393
195: 0x038C [0x3C] SET_BIT_FLAG_CONDITIONAL(target_work_offset=ExtData[1]->WorkLocal[14], bit_index_work_offset=21*, condition_work_offset=1*)
196: 0x0393 [0x02] IF !(ExtData[1]->WorkLocal[23] == 0*) GOTO 0x03A8
197: 0x039B [0xD4] MAP_QUERY_WINDOW: Prepare buffer configuration A (buffer=[00 80 00 80 3C 0E 00 00...])
198: 0x03B9 [0x0E] 0x4217 |= 0xD400
199: 0x03BE [0x02] IF !(15604* UNKNOWN_COND_14 0*) GOTO 0x2500
200: 0x03C6 [0x02] IF !(Work_Zone[0] == 0*) GOTO 0x03D5
201: 0x03CE [0x1D] PRINT_EVENT_MESSAGE(message_id=15605*)
    → "The cash prize for rank $21 is $0 gil, kupo!"
202: 0x03D1 [0x23] WAIT_FOR_DIALOG_INTERACTION
203: 0x03D2 [0x01] GOTO 0x040D
204: 0x03D5 [0x02] IF !(Work_Zone[0] == 21*) GOTO 0x03E8
205: 0x03DD [0x0B] ExtData[1]->WorkLocal[66]++
206: 0x03E0 [0x0D] ExtData[1]->WorkLocal[66] &= 1*
207: 0x03E5 [0x01] GOTO 0x040D
208: 0x03E8 [0x02] IF !(Work_Zone[0] == 22*) GOTO 0x03FB
209: 0x03F0 [0x0C] ExtData[1]->WorkLocal[0]--
210: 0x03F3 [0x03] ExtData[1]->WorkLocal[66] = 0*
211: 0x03F8 [0x01] GOTO 0x040D
212: 0x03FB [0x9D] Work_Zone_1700[14] = 0x0744[Work_Zone[0]] // Read WORD
213: 0x0403 [0x93] DISPLAY_ITEM_INFO(item_id=Work_Zone_1700[14])
214: 0x0406 [0x1D] PRINT_EVENT_MESSAGE(message_id=15606*)
    → "$22 is a rank $21 prize, kupo!"
215: 0x0409 [0x23] WAIT_FOR_DIALOG_INTERACTION
216: 0x040A [0x93] DISPLAY_ITEM_INFO(item_id=0*)

SUBROUTINE_040D:
217: 0x040D [0x01] GOTO 0x02F9
218: 0x0410 [0x1B] RETURN

SUBROUTINE_0411:
219: 0x0411 [0x1A] CALL_SUBROUTINE(address=0x0728)
220: 0x0414 [0x03] Work_Zone[1] = 0*
221: 0x0419 [0x40] SET_BIT_WORK_RANGE(start_bit=8*, end_bit=31*, target=Work_Zone[1], source=ExtData[1]->WorkLocal[1])
222: 0x0422 [0x43] SEND_EVENT_UPDATE: Send pending tag to server (packet 0x005B)
223: 0x0424 [0x43] SEND_EVENT_UPDATE: Check pending flag (skip if not pending)
224: 0x0426 [0x03] ExtData[1]->WorkLocal[23] = Work_Zone[2]
225: 0x042B [0x41] ExtData[1]->WorkLocal[24] = Work_Zone[3] (bits 0*-15*)
226: 0x0434 [0x41] ExtData[1]->WorkLocal[25] = Work_Zone[3] (bits 16*-31*)
227: 0x043D [0x41] ExtData[1]->WorkLocal[26] = Work_Zone[4] (bits 0*-15*)
228: 0x0446 [0x41] ExtData[1]->WorkLocal[27] = Work_Zone[4] (bits 16*-31*)
229: 0x044F [0x41] ExtData[1]->WorkLocal[28] = Work_Zone[5] (bits 0*-15*)
230: 0x0458 [0x41] ExtData[1]->WorkLocal[29] = Work_Zone[5] (bits 16*-31*)
231: 0x0461 [0x41] ExtData[1]->WorkLocal[30] = Work_Zone[6] (bits 0*-15*)
232: 0x046A [0x41] ExtData[1]->WorkLocal[31] = Work_Zone[6] (bits 16*-31*)
233: 0x0473 [0x41] ExtData[1]->WorkLocal[32] = Work_Zone[7] (bits 0*-15*)
234: 0x047C [0x41] ExtData[1]->WorkLocal[33] = Work_Zone[7] (bits 16*-31*)
235: 0x0485 [0x41] ExtData[1]->WorkLocal[34] = Work_Zone[8] (bits 0*-15*)
236: 0x048E [0x41] ExtData[1]->WorkLocal[35] = Work_Zone[8] (bits 16*-31*)
237: 0x0497 [0x41] ExtData[1]->WorkLocal[36] = Work_Zone[9] (bits 0*-15*)
238: 0x04A0 [0x41] ExtData[1]->WorkLocal[37] = Work_Zone[9] (bits 16*-31*)
239: 0x04A9 [0x03] Work_Zone[1] = 1*
240: 0x04AE [0x40] SET_BIT_WORK_RANGE(start_bit=8*, end_bit=31*, target=Work_Zone[1], source=ExtData[1]->WorkLocal[1])
241: 0x04B7 [0x43] SEND_EVENT_UPDATE: Send pending tag to server (packet 0x005B)
242: 0x04B9 [0x43] SEND_EVENT_UPDATE: Check pending flag (skip if not pending)
243: 0x04BB [0x41] ExtData[1]->WorkLocal[38] = Work_Zone[2] (bits 0*-15*)
244: 0x04C4 [0x41] ExtData[1]->WorkLocal[39] = Work_Zone[2] (bits 16*-31*)
245: 0x04CD [0x41] ExtData[1]->WorkLocal[40] = Work_Zone[3] (bits 0*-15*)
246: 0x04D6 [0x41] ExtData[1]->WorkLocal[41] = Work_Zone[3] (bits 16*-31*)
247: 0x04DF [0x41] ExtData[1]->WorkLocal[42] = Work_Zone[4] (bits 0*-15*)
248: 0x04E8 [0x41] ExtData[1]->WorkLocal[43] = Work_Zone[4] (bits 16*-31*)
249: 0x04F1 [0x41] ExtData[1]->WorkLocal[44] = Work_Zone[5] (bits 0*-15*)
250: 0x04FA [0x41] ExtData[1]->WorkLocal[45] = Work_Zone[5] (bits 16*-31*)
251: 0x0503 [0x41] ExtData[1]->WorkLocal[46] = Work_Zone[6] (bits 0*-15*)
252: 0x050C [0x41] ExtData[1]->WorkLocal[47] = Work_Zone[6] (bits 16*-31*)
253: 0x0515 [0x41] ExtData[1]->WorkLocal[48] = Work_Zone[7] (bits 0*-15*)
254: 0x051E [0x41] ExtData[1]->WorkLocal[49] = Work_Zone[7] (bits 16*-31*)
255: 0x0527 [0x41] ExtData[1]->WorkLocal[50] = Work_Zone[8] (bits 0*-15*)
256: 0x0530 [0x41] ExtData[1]->WorkLocal[51] = Work_Zone[8] (bits 16*-31*)
257: 0x0539 [0x41] ExtData[1]->WorkLocal[52] = Work_Zone[9] (bits 0*-15*)
258: 0x0542 [0x41] ExtData[1]->WorkLocal[53] = Work_Zone[9] (bits 16*-31*)
259: 0x054B [0x03] Work_Zone[1] = 4*
260: 0x0550 [0x40] SET_BIT_WORK_RANGE(start_bit=8*, end_bit=31*, target=Work_Zone[1], source=ExtData[1]->WorkLocal[1])
261: 0x0559 [0x43] SEND_EVENT_UPDATE: Send pending tag to server (packet 0x005B)
262: 0x055B [0x43] SEND_EVENT_UPDATE: Check pending flag (skip if not pending)
263: 0x055D [0x41] ExtData[1]->WorkLocal[54] = Work_Zone[2] (bits 0*-15*)
264: 0x0566 [0x41] ExtData[1]->WorkLocal[55] = Work_Zone[2] (bits 16*-31*)
265: 0x056F [0x41] ExtData[1]->WorkLocal[56] = Work_Zone[3] (bits 0*-15*)
266: 0x0578 [0x41] ExtData[1]->WorkLocal[57] = Work_Zone[3] (bits 16*-31*)
267: 0x0581 [0x41] ExtData[1]->WorkLocal[58] = Work_Zone[4] (bits 0*-15*)
268: 0x058A [0x41] ExtData[1]->WorkLocal[59] = Work_Zone[4] (bits 16*-31*)
269: 0x0593 [0x41] ExtData[1]->WorkLocal[60] = Work_Zone[5] (bits 0*-15*)
270: 0x059C [0x41] ExtData[1]->WorkLocal[61] = Work_Zone[5] (bits 16*-31*)
271: 0x05A5 [0x41] ExtData[1]->WorkLocal[62] = Work_Zone[6] (bits 0*-15*)
272: 0x05AE [0x41] ExtData[1]->WorkLocal[63] = Work_Zone[6] (bits 16*-31*)
273: 0x05B7 [0x03] ExtData[1]->WorkLocal[14] = Work_Zone[7]
274: 0x05BC [0x03] ExtData[1]->WorkLocal[22] = Work_Zone[8]
275: 0x05C1 [0x1A] CALL_SUBROUTINE(address=0x06FC)
276: 0x05C4 [0x1B] RETURN

SUBROUTINE_05C5:
277: 0x05C5 [0x03] ExtData[1]->WorkLocal[14] = 0*
278: 0x05CA [0x02] IF !(ExtData[1]->WorkLocal[66] == 1*) GOTO 0x0668
279: 0x05D2 [0x03] Work_Zone[2] = 0*
280: 0x05D7 [0x03] Work_Zone[3] = ExtData[1]->WorkLocal[44]
281: 0x05DC [0x03] Work_Zone[4] = ExtData[1]->WorkLocal[45]
282: 0x05E1 [0x03] Work_Zone[5] = ExtData[1]->WorkLocal[46]
283: 0x05E6 [0x03] Work_Zone[6] = ExtData[1]->WorkLocal[47]
284: 0x05EB [0x03] Work_Zone[7] = ExtData[1]->WorkLocal[48]
285: 0x05F0 [0x03] Work_Zone[8] = ExtData[1]->WorkLocal[49]
286: 0x05F5 [0x03] Work_Zone[9] = ExtData[1]->WorkLocal[50]
287: 0x05FA [0x03] Work_Zone_1700[0] = ExtData[1]->WorkLocal[51]
288: 0x05FF [0x03] Work_Zone_1700[1] = ExtData[1]->WorkLocal[52]
289: 0x0604 [0x03] Work_Zone_1700[2] = ExtData[1]->WorkLocal[53]
290: 0x0609 [0x03] Work_Zone_1700[3] = ExtData[1]->WorkLocal[54]
291: 0x060E [0x03] Work_Zone_1700[4] = ExtData[1]->WorkLocal[55]
292: 0x0613 [0x03] Work_Zone_1700[5] = ExtData[1]->WorkLocal[56]
293: 0x0618 [0x03] Work_Zone_1700[6] = ExtData[1]->WorkLocal[57]
294: 0x061D [0x03] Work_Zone_1700[7] = ExtData[1]->WorkLocal[58]
295: 0x0622 [0x03] Work_Zone_1700[8] = ExtData[1]->WorkLocal[59]
296: 0x0627 [0x03] Work_Zone_1700[9] = ExtData[1]->WorkLocal[60]
297: 0x062C [0x03] Work_Zone_1700[10] = ExtData[1]->WorkLocal[61]
298: 0x0631 [0x03] Work_Zone_1700[11] = ExtData[1]->WorkLocal[62]
299: 0x0636 [0x03] Work_Zone_1700[12] = ExtData[1]->WorkLocal[63]
300: 0x063B [0x03] ExtData[1]->WorkLocal[65] = 0*

SUBROUTINE_0640:
301: 0x0640 [0x02] IF !(ExtData[1]->WorkLocal[65] >= 21*) GOTO 0x0665
302: 0x0648 [0x9D] ExtData[1]->WorkLocal[1] = 0x0744[ExtData[1]->WorkLocal[65]] // Read WORD
303: 0x0650 [0x02] IF !(ExtData[1]->WorkLocal[1] == 0*) GOTO 0x065F
304: 0x0658 [0x3C] SET_BIT_FLAG_CONDITIONAL(target_work_offset=ExtData[1]->WorkLocal[14], bit_index_work_offset=ExtData[1]->WorkLocal[65], condition_work_offset=1*)
305: 0x065F [0x0B] ExtData[1]->WorkLocal[65]++
306: 0x0662 [0x01] GOTO 0x0640
307: 0x0665 [0x01] GOTO 0x06FB
308: 0x0668 [0x03] Work_Zone[2] = ExtData[1]->WorkLocal[23]
309: 0x066D [0x03] Work_Zone[3] = ExtData[1]->WorkLocal[24]
310: 0x0672 [0x03] Work_Zone[4] = ExtData[1]->WorkLocal[25]
311: 0x0677 [0x03] Work_Zone[5] = ExtData[1]->WorkLocal[26]
312: 0x067C [0x03] Work_Zone[6] = ExtData[1]->WorkLocal[27]
313: 0x0681 [0x03] Work_Zone[7] = ExtData[1]->WorkLocal[28]
314: 0x0686 [0x03] Work_Zone[8] = ExtData[1]->WorkLocal[29]
315: 0x068B [0x03] Work_Zone[9] = ExtData[1]->WorkLocal[30]
316: 0x0690 [0x03] Work_Zone_1700[0] = ExtData[1]->WorkLocal[31]
317: 0x0695 [0x03] Work_Zone_1700[1] = ExtData[1]->WorkLocal[32]
318: 0x069A [0x03] Work_Zone_1700[2] = ExtData[1]->WorkLocal[33]
319: 0x069F [0x03] Work_Zone_1700[3] = ExtData[1]->WorkLocal[34]
320: 0x06A4 [0x03] Work_Zone_1700[4] = ExtData[1]->WorkLocal[35]
321: 0x06A9 [0x03] Work_Zone_1700[5] = ExtData[1]->WorkLocal[36]
322: 0x06AE [0x03] Work_Zone_1700[6] = ExtData[1]->WorkLocal[37]
323: 0x06B3 [0x03] Work_Zone_1700[7] = ExtData[1]->WorkLocal[38]
324: 0x06B8 [0x03] Work_Zone_1700[8] = ExtData[1]->WorkLocal[39]
325: 0x06BD [0x03] Work_Zone_1700[9] = ExtData[1]->WorkLocal[40]
326: 0x06C2 [0x03] Work_Zone_1700[10] = ExtData[1]->WorkLocal[41]
327: 0x06C7 [0x03] Work_Zone_1700[11] = ExtData[1]->WorkLocal[42]
328: 0x06CC [0x03] Work_Zone_1700[12] = ExtData[1]->WorkLocal[43]
329: 0x06D1 [0x03] ExtData[1]->WorkLocal[65] = 0*

SUBROUTINE_06D6:
330: 0x06D6 [0x02] IF !(ExtData[1]->WorkLocal[65] >= 21*) GOTO 0x06FB
331: 0x06DE [0x9D] ExtData[1]->WorkLocal[1] = 0x0744[ExtData[1]->WorkLocal[65]] // Read WORD
332: 0x06E6 [0x02] IF !(ExtData[1]->WorkLocal[1] == 0*) GOTO 0x06F5
333: 0x06EE [0x3C] SET_BIT_FLAG_CONDITIONAL(target_work_offset=ExtData[1]->WorkLocal[14], bit_index_work_offset=ExtData[1]->WorkLocal[65], condition_work_offset=1*)
334: 0x06F5 [0x0B] ExtData[1]->WorkLocal[65]++
335: 0x06F8 [0x01] GOTO 0x06D6

SUBROUTINE_06FB:
336: 0x06FB [0x1B] RETURN

SUBROUTINE_06FC:
337: 0x06FC [0x03] ExtData[1]->WorkLocal[65] = 0*
338: 0x0701 [0x03] ExtData[1]->WorkLocal[64] = 0*

SUBROUTINE_0706:
339: 0x0706 [0x02] IF !(ExtData[1]->WorkLocal[65] >= 40*) GOTO 0x0727
340: 0x070E [0x9D] ExtData[1]->WorkLocal[1] = 0x0774[ExtData[1]->WorkLocal[65]] // Read WORD
341: 0x0716 [0x02] IF !(ExtData[1]->WorkLocal[1] <= 0*) GOTO 0x0721
342: 0x071E [0x0B] ExtData[1]->WorkLocal[64]++
343: 0x0721 [0x0B] ExtData[1]->WorkLocal[65]++
344: 0x0724 [0x01] GOTO 0x0706
345: 0x0727 [0x1B] RETURN

SUBROUTINE_0728:
346: 0x0728 [0x03] ExtData[1]->WorkLocal[65] = 0*

SUBROUTINE_072D:
347: 0x072D [0x02] IF !(ExtData[1]->WorkLocal[65] >= 40*) GOTO 0x0743
348: 0x0735 [0x9D] 0x0774[ExtData[1]->WorkLocal[65] * 2] = 0* // Write WORD
349: 0x073D [0x0B] ExtData[1]->WorkLocal[65]++
350: 0x0740 [0x01] GOTO 0x072D
351: 0x0743 [0x1B] RETURN
```

#### Data or dead code:

```
# Data Section: 0x0744 (128 bytes)
     0x0744: 02 10 03 10 04 10 05 10 06 10 07 10 08 10 09 10
     0x0754: 00 17 01 17 02 17 03 17 04 17 05 17 06 17 07 17
     0x0764: 08 17 09 17 0A 17 0B 17 0C 17 0D 17 0E 17 0F 17
     0x0774: 18 00 19 00 1A 00 1B 00 1C 00 1D 00 1E 00 1F 00
     0x0784: 20 00 21 00 22 00 23 00 24 00 25 00 26 00 27 00
     0x0794: 28 00 29 00 2A 00 2B 00 2C 00 2D 00 2E 00 2F 00
     0x07A4: 30 00 31 00 32 00 33 00 34 00 35 00 36 00 37 00
     0x07B4: 38 00 39 00 3A 00 3B 00 3C 00 3D 00 3E 00 3F 00
# Dead code (unreachable instructions):
     0x016A [0x01] GOTO 0x0170
# Dead code (unreachable instructions):
     0x01E4 [0x01] GOTO 0x01EA
```

### Event 913

#### Metadata

| Field        | Value     |
|--------------|-----------|
| Entrypoint   | 0x07C4    |
| Data Size    | 314 bytes |
| Instructions | 70        |

```
      00 01 02 03 04 05 06 07  08 09 0A 0B 0C 0D 0E 0F
      -- -- -- -- -- -- -- --  -- -- -- -- -- -- -- --
07C0:             42 03 0F 00  02 10 03 10 00 03 10 03      B...........
07D0: 11 00 04 10 03 12 00 3B  80 03 13 00 3B 80 03 44  .......;....;..D
07E0: 00 09 10 4A F8 FF FF 7F  F0 FF FF 7F 03 00 00 01  ...J............
07F0: 80 03 42 00 00 80 02 08  10 00 80 00 06 08 03 17  ..B.............
0800: 17 00 80 01 0B 08 03 17  17 01 80 03 04 10 44 00  ..............D.
0810: 1D 3C 80 23 02 00 00 00  80 02 4B 08 03 04 10 44  .<.#......K....D
0820: 00 24 3D 80 00 80 00 80  25 02 00 10 00 80 00 37  .$=.....%......7
0830: 08 1A 65 08 01 48 08 02  00 10 01 80 00 45 08 1A  ..e..H.......E..
0840: 52 08 01 48 08 06 00 00  01 14 08 03 01 10 3E 80  R..H..........>.
0850: 21 00 03 02 10 03 80 03  04 10 44 00 1D 3F 80 23  !.........D..?.#
0860: 1D 40 80 23 1B 0B 00 00  02 00 00 01 80 02 FD 08  .@.#............
0870: 03 03 10 0B 80 03 04 10  01 80 03 09 10 0F 00 3F  ...............?
0880: 09 10 09 10 41 80 15 09  10 10 80 03 00 17 0F 00  ....A...........
0890: 3F 00 17 00 17 10 80 15  00 17 08 80 03 01 17 0F  ?...............
08A0: 00 3F 01 17 01 17 08 80  03 04 17 10 00 3F 04 17  .?...........?..
08B0: 04 17 10 80 15 04 17 08  80 03 05 17 10 00 3F 05  ..............?.
08C0: 17 05 17 08 80 03 08 17  11 00 3F 08 17 08 17 08  ..........?.....
08D0: 80 24 42 80 00 80 27 80  25 02 00 10 28 80 00 E7  .$B...'.%...(...
08E0: 08 0C 00 00 01 FA 08 03  01 00 00 10 03 43 00 01  .............C..
08F0: 00 0B 43 00 1A 11 04 1A  F1 02 01 68 08 1B        ..C........h..  
```

#### Opcodes

```
  0: 0x07C4 [0x42] SET_CLI_EVENT_CANCEL_DATA()
  1: 0x07C5 [0x03] ExtData[1]->WorkLocal[15] = Work_Zone[2]
  2: 0x07CA [0x03] ExtData[1]->WorkLocal[16] = Work_Zone[3]
  3: 0x07CF [0x03] ExtData[1]->WorkLocal[17] = Work_Zone[4]
  4: 0x07D4 [0x03] ExtData[1]->WorkLocal[18] = 4294967295*
  5: 0x07D9 [0x03] ExtData[1]->WorkLocal[19] = 4294967295*
  6: 0x07DE [0x03] ExtData[1]->WorkLocal[68] = Work_Zone[9]
  7: 0x07E3 [0x4A] EventEntity looks at LocalPlayer
  8: 0x07EC [0x03] ExtData[1]->WorkLocal[0] = 1*
  9: 0x07F1 [0x03] ExtData[1]->WorkLocal[66] = 0*
 10: 0x07F6 [0x02] IF !(Work_Zone[8] == 0*) GOTO 0x0806
 11: 0x07FE [0x03] Work_Zone_1700[23] = 0*
 12: 0x0803 [0x01] GOTO 0x080B
 13: 0x0806 [0x03] Work_Zone_1700[23] = 1*

SUBROUTINE_080B:
 14: 0x080B [0x03] Work_Zone[4] = ExtData[1]->WorkLocal[68]
 15: 0x0810 [0x1D] PRINT_EVENT_MESSAGE(message_id=15617*)
    → "You can check winning numbers and claim prizes for the $2 here, kupo."
 16: 0x0813 [0x23] WAIT_FOR_DIALOG_INTERACTION

SUBROUTINE_0814:
 17: 0x0814 [0x02] IF !(ExtData[1]->WorkLocal[0] <= 0*) GOTO 0x084B
 18: 0x081C [0x03] Work_Zone[4] = ExtData[1]->WorkLocal[68]
 19: 0x0821 [0x24] CREATE_DIALOG(message_id=15618*, default_option=0*, option_flags=0*)
    → "What would you like to do? [See winning numbers./Learn how to claim a prize./Nothing.]"
 20: 0x0828 [0x25] WAIT_DIALOG_SELECT()
 21: 0x0829 [0x02] IF !(Work_Zone[0] == 0*) GOTO 0x0837
 22: 0x0831 [0x1A] CALL_SUBROUTINE(address=0x0865)
 23: 0x0834 [0x01] GOTO 0x0848
 24: 0x0837 [0x02] IF !(Work_Zone[0] == 1*) GOTO 0x0845
 25: 0x083F [0x1A] CALL_SUBROUTINE(address=0x0852)
 26: 0x0842 [0x01] GOTO 0x0848
 27: 0x0845 [0x06] ExtData[1]->WorkLocal[0] = 0

SUBROUTINE_0848:
 28: 0x0848 [0x01] GOTO 0x0814
 29: 0x084B [0x03] Work_Zone[1] = 1073741824*
 30: 0x0850 [0x21] END_EVENT
 31: 0x0851 [0x00] END_REQSTACK()

SUBROUTINE_0852:
 32: 0x0852 [0x03] Work_Zone[2] = 4089*
 33: 0x0857 [0x03] Work_Zone[4] = ExtData[1]->WorkLocal[68]
 34: 0x085C [0x1D] PRINT_EVENT_MESSAGE(message_id=15622*)
    → "If you have $0 for the $2, trade them to me."
 35: 0x085F [0x23] WAIT_FOR_DIALOG_INTERACTION
 36: 0x0860 [0x1D] PRINT_EVENT_MESSAGE(message_id=15623*)
    → "I'll give you a prize for each $0 with a winning number, kupo."
 37: 0x0863 [0x23] WAIT_FOR_DIALOG_INTERACTION
 38: 0x0864 [0x1B] RETURN

SUBROUTINE_0865:
 39: 0x0865 [0x0B] ExtData[1]->WorkLocal[0]++

SUBROUTINE_0868:
 40: 0x0868 [0x02] IF !(ExtData[1]->WorkLocal[0] <= 1*) GOTO 0x08FD
 41: 0x0870 [0x03] Work_Zone[3] = 2*
 42: 0x0875 [0x03] Work_Zone[4] = 1*
 43: 0x087A [0x03] Work_Zone[9] = ExtData[1]->WorkLocal[15]
 44: 0x087F [0x3F] Work_Zone[9] = Work_Zone[9] % 1000*
 45: 0x0886 [0x15] Work_Zone[9] /= 100*
 46: 0x088B [0x03] Work_Zone_1700[0] = ExtData[1]->WorkLocal[15]
 47: 0x0890 [0x3F] Work_Zone_1700[0] = Work_Zone_1700[0] % 100*
 48: 0x0897 [0x15] Work_Zone_1700[0] /= 10*
 49: 0x089C [0x03] Work_Zone_1700[1] = ExtData[1]->WorkLocal[15]
 50: 0x08A1 [0x3F] Work_Zone_1700[1] = Work_Zone_1700[1] % 10*
 51: 0x08A8 [0x03] Work_Zone_1700[4] = ExtData[1]->WorkLocal[16]
 52: 0x08AD [0x3F] Work_Zone_1700[4] = Work_Zone_1700[4] % 100*
 53: 0x08B4 [0x15] Work_Zone_1700[4] /= 10*
 54: 0x08B9 [0x03] Work_Zone_1700[5] = ExtData[1]->WorkLocal[16]
 55: 0x08BE [0x3F] Work_Zone_1700[5] = Work_Zone_1700[5] % 10*
 56: 0x08C5 [0x03] Work_Zone_1700[8] = ExtData[1]->WorkLocal[17]
 57: 0x08CA [0x3F] Work_Zone_1700[8] = Work_Zone_1700[8] % 10*
 58: 0x08D1 [0x24] CREATE_DIALOG(message_id=15620*, default_option=0*, option_flags=24*)
    → "The winning numbers for each rank are: [Rank 1 "$7$8$9"/Rank 2 (last $1 digits) "$12$13"/Rank 3 (last $2 digits) "$16"/Rank 4@/Rank 5@/Back.]"
 59: 0x08D8 [0x25] WAIT_DIALOG_SELECT()
 60: 0x08D9 [0x02] IF !(Work_Zone[0] == 5*) GOTO 0x08E7
 61: 0x08E1 [0x0C] ExtData[1]->WorkLocal[0]--
 62: 0x08E4 [0x01] GOTO 0x08FA
 63: 0x08E7 [0x03] ExtData[1]->WorkLocal[1] = Work_Zone[0]
 64: 0x08EC [0x03] ExtData[1]->WorkLocal[67] = ExtData[1]->WorkLocal[1]
 65: 0x08F1 [0x0B] ExtData[1]->WorkLocal[67]++
 66: 0x08F4 [0x1A] CALL_SUBROUTINE(address=0x0411)
 67: 0x08F7 [0x1A] CALL_SUBROUTINE(address=0x02F1)

SUBROUTINE_08FA:
 68: 0x08FA [0x01] GOTO 0x0868
 69: 0x08FD [0x1B] RETURN
```

### Event 914

#### Metadata

| Field        | Value     |
|--------------|-----------|
| Entrypoint   | 0x08FE    |
| Data Size    | 788 bytes |
| Instructions | 163       |

```
      00 01 02 03 04 05 06 07  08 09 0A 0B 0C 0D 0E 0F
      -- -- -- -- -- -- -- --  -- -- -- -- -- -- -- --
08F0:                                            42 4A                BJ
0900: F8 FF FF 7F F0 FF FF 7F  03 02 10 03 80 03 44 00  ..............D.
0910: 09 10 1D 43 80 23 1D 44  80 23 03 42 00 00 80 02  ...C.#.D.#.B....
0920: 08 10 00 80 00 2F 09 03  17 17 00 80 01 34 09 03  ...../.......4..
0930: 17 17 01 80 03 01 10 1A  80 43 00 43 01 02 09 10  .........C.C....
0940: 00 80 00 BD 09 02 02 10  00 80 80 6B 09 1D 45 80  ...........k..E.
0950: 23 1D 46 80 23 03 01 00  02 10 03 43 00 02 10 0B  #.F.#......C....
0960: 43 00 1A 11 04 1A 32 0A  01 BA 09 02 02 10 01 80  C.....2.........
0970: 80 91 09 1D 47 80 23 1D  48 80 23 03 01 00 02 10  ....G.#.H.#.....
0980: 03 43 00 02 10 0B 43 00  1A 11 04 1A 32 0A 01 BA  .C....C.....2...
0990: 09 02 02 10 0B 80 80 B7  09 1D 49 80 23 1D 4A 80  ..........I.#.J.
09A0: 23 03 01 00 02 10 03 43  00 02 10 0B 43 00 1A 11  #......C....C...
09B0: 04 1A 32 0A 01 BA 09 1A  E0 09 01 DE 09 02 09 10  ..2.............
09C0: 3B 80 00 CB 09 1A E0 09  01 DE 09 02 09 10 4B 80  ;.............K.
09D0: 00 D9 09 1A E0 09 01 DE  09 03 01 10 28 80 21 00  ............(.!.
09E0: 03 16 17 01 80 1D 4C 80  23 1D 4D 80 23 03 02 10  ......L.#.M.#...
09F0: 4E 80 1D 4F 80 23 03 0E  17 4E 80 24 50 80 00 80  N..O.#...N.$P...
0A00: 0B 80 25 02 00 10 00 80  00 1A 0A 1D 51 80 23 03  ..%.........Q.#.
0A10: 01 10 29 80 06 00 00 01  31 0A 02 00 10 01 80 00  ..).....1.......
0A20: 25 0A 01 31 0A 1D 52 80  23 03 01 10 2A 80 06 00  %..1..R.#...*...
0A30: 00 1B 1D 53 80 23 03 00  00 01 80 06 14 00 02 00  ...S.#..........
0A40: 00 00 80 02 11 0C 1A C5  05 03 0D 17 01 00 0B 0D  ................
0A50: 17 D4 03 01 80 03 10 D4  03 0B 80 04 10 D4 03 17  ................
0A60: 80 05 10 D4 03 1E 80 06  10 D4 03 28 80 07 10 D4  ...........(....
0A70: 03 29 80 08 10 D4 03 2A  80 09 10 D4 03 1A 80 00  .).....*........
0A80: 17 D4 03 06 80 01 17 D4  03 08 80 02 17 D4 03 2B  ...............+
0A90: 80 03 17 D4 03 2C 80 04  17 D4 03 2D 80 05 17 D4  .....,.....-....
0AA0: 03 2E 80 06 17 D4 03 2F  80 07 17 D4 03 30 80 08  ......./.....0..
0AB0: 17 D4 03 31 80 09 17 D4  03 32 80 0A 17 D4 03 33  ...1.....2.....3
0AC0: 80 0B 17 D4 03 34 80 0C  17 03 0D 17 43 00 02 42  .....4......C..B
0AD0: 00 00 80 00 FD 0A 02 40  00 34 80 05 E5 0A 3C 0E  .......@.4....<.
0AE0: 00 35 80 01 80 02 17 00  00 80 00 FA 0A D4 03 00  .5..............
0AF0: 80 00 80 3C 0E 00 00 80  01 80 01 0A 0B D4 03 00  ...<............
0B00: 80 02 10 3C 0E 00 00 80  01 80 03 0E 17 42 00 D4  ...<.........B..
0B10: 02 54 80 00 80 0E 00 25  02 00 10 00 80 00 70 0B  .T.....%......p.
0B20: 03 14 00 00 10 24 55 80  01 80 00 80 25 02 00 10  .....$U.....%...
0B30: 00 80 00 56 0B 1D 51 80  23 03 01 10 1E 80 40 1A  ...V..Q.#.....@.
0B40: 80 2F 80 01 10 00 80 40  30 80 1B 80 01 10 14 00  ./.....@0.......
0B50: 0C 00 00 01 6D 0B 02 00  10 01 80 00 61 0B 01 6D  ....m.......a..m
0B60: 0B 1D 52 80 23 0C 00 00  03 01 10 28 80 01 0B 0C  ..R.#......(....
0B70: 02 00 10 35 80 00 83 0B  0B 42 00 0D 42 00 01 80  ...5.....B..B...
0B80: 01 0B 0C 02 00 10 38 80  00 9A 0B 0C 00 00 1D 52  ......8........R
0B90: 80 23 03 01 10 28 80 01  0B 0C 03 14 00 00 10 9D  .#...(..........
0BA0: 00 44 07 0E 17 00 10 93  0E 17 1D 39 80 23 93 00  .D.........9.#..
0BB0: 80 24 50 80 01 80 00 80  25 02 00 10 00 80 00 F1  .$P.....%.......
0BC0: 0B 1D 51 80 23 03 45 00  42 00 14 45 00 34 80 07  ..Q.#.E.B..E.4..
0BD0: 45 00 14 00 03 01 10 1E  80 40 1A 80 2F 80 01 10  E........@../...
0BE0: 0E 17 40 30 80 1B 80 01  10 45 00 0C 00 00 01 0B  ..@0.....E......
0BF0: 0C 02 00 10 01 80 00 FC  0B 01 0B 0C 1D 52 80 23  .............R.#
0C00: 0C 00 00 03 01 10 28 80  0C 00 00 06 14 00 01 3E  ......(........>
0C10: 0A 1B                                             ..              
```

#### Opcodes

```
  0: 0x08FE [0x42] SET_CLI_EVENT_CANCEL_DATA()
  1: 0x08FF [0x4A] EventEntity looks at LocalPlayer
  2: 0x0908 [0x03] Work_Zone[2] = 4089*
  3: 0x090D [0x03] ExtData[1]->WorkLocal[68] = Work_Zone[9]
  4: 0x0912 [0x1D] PRINT_EVENT_MESSAGE(message_id=15624*)
    → "Let me check the number on your $0..."
  5: 0x0915 [0x23] WAIT_FOR_DIALOG_INTERACTION
  6: 0x0916 [0x1D] PRINT_EVENT_MESSAGE(message_id=15625*)
    → "..."
  7: 0x0919 [0x23] WAIT_FOR_DIALOG_INTERACTION
  8: 0x091A [0x03] ExtData[1]->WorkLocal[66] = 0*
  9: 0x091F [0x02] IF !(Work_Zone[8] == 0*) GOTO 0x092F
 10: 0x0927 [0x03] Work_Zone_1700[23] = 0*
 11: 0x092C [0x01] GOTO 0x0934
 12: 0x092F [0x03] Work_Zone_1700[23] = 1*

SUBROUTINE_0934:
 13: 0x0934 [0x03] Work_Zone[1] = 8*
 14: 0x0939 [0x43] SEND_EVENT_UPDATE: Send pending tag to server (packet 0x005B)
 15: 0x093B [0x43] SEND_EVENT_UPDATE: Check pending flag (skip if not pending)
 16: 0x093D [0x02] IF !(Work_Zone[9] == 0*) GOTO 0x09BD
 17: 0x0945 [0x02] IF !(Work_Zone[2] == 0*) GOTO 0x096B
 18: 0x094D [0x1D] PRINT_EVENT_MESSAGE(message_id=15626*)
    → "<Gasp>! It...it...it's a miracle, kupo!!!"
 19: 0x0950 [0x23] WAIT_FOR_DIALOG_INTERACTION
 20: 0x0951 [0x1D] PRINT_EVENT_MESSAGE(message_id=15627*)
    → "You won a Rank 1 Prize!!! I-I'm so excited, I-I...k-k-k-kupoooooo!!!"
 21: 0x0954 [0x23] WAIT_FOR_DIALOG_INTERACTION
 22: 0x0955 [0x03] ExtData[1]->WorkLocal[1] = Work_Zone[2]
 23: 0x095A [0x03] ExtData[1]->WorkLocal[67] = Work_Zone[2]
 24: 0x095F [0x0B] ExtData[1]->WorkLocal[67]++
 25: 0x0962 [0x1A] CALL_SUBROUTINE(address=0x0411)
 26: 0x0965 [0x1A] CALL_SUBROUTINE(address=0x0A32)
 27: 0x0968 [0x01] GOTO 0x09BA
 28: 0x096B [0x02] IF !(Work_Zone[2] == 1*) GOTO 0x0991
 29: 0x0973 [0x1D] PRINT_EVENT_MESSAGE(message_id=15628*)
    → "Oh my sparkling stars!!! Th-this is...!!!"
 30: 0x0976 [0x23] WAIT_FOR_DIALOG_INTERACTION
 31: 0x0977 [0x1D] PRINT_EVENT_MESSAGE(message_id=15629*)
    → "You won a Rank 2 Prize!!! That's incredible, kupo!!!"
 32: 0x097A [0x23] WAIT_FOR_DIALOG_INTERACTION
 33: 0x097B [0x03] ExtData[1]->WorkLocal[1] = Work_Zone[2]
 34: 0x0980 [0x03] ExtData[1]->WorkLocal[67] = Work_Zone[2]
 35: 0x0985 [0x0B] ExtData[1]->WorkLocal[67]++
 36: 0x0988 [0x1A] CALL_SUBROUTINE(address=0x0411)
 37: 0x098B [0x1A] CALL_SUBROUTINE(address=0x0A32)
 38: 0x098E [0x01] GOTO 0x09BA
 39: 0x0991 [0x02] IF !(Work_Zone[2] == 2*) GOTO 0x09B7
 40: 0x0999 [0x1D] PRINT_EVENT_MESSAGE(message_id=15630*)
    → "Wowsers! Wonderful!"
 41: 0x099C [0x23] WAIT_FOR_DIALOG_INTERACTION
 42: 0x099D [0x1D] PRINT_EVENT_MESSAGE(message_id=15631*)
    → "You won a Rank 3 Prize! Congratulations, kupo!"
 43: 0x09A0 [0x23] WAIT_FOR_DIALOG_INTERACTION
 44: 0x09A1 [0x03] ExtData[1]->WorkLocal[1] = Work_Zone[2]
 45: 0x09A6 [0x03] ExtData[1]->WorkLocal[67] = Work_Zone[2]
 46: 0x09AB [0x0B] ExtData[1]->WorkLocal[67]++
 47: 0x09AE [0x1A] CALL_SUBROUTINE(address=0x0411)
 48: 0x09B1 [0x1A] CALL_SUBROUTINE(address=0x0A32)
 49: 0x09B4 [0x01] GOTO 0x09BA
 50: 0x09B7 [0x1A] CALL_SUBROUTINE(address=0x09E0)

SUBROUTINE_09BA:
 51: 0x09BA [0x01] GOTO 0x09DE
 52: 0x09BD [0x02] IF !(Work_Zone[9] == 4294967295*) GOTO 0x09CB
 53: 0x09C5 [0x1A] CALL_SUBROUTINE(address=0x09E0)
 54: 0x09C8 [0x01] GOTO 0x09DE
 55: 0x09CB [0x02] IF !(Work_Zone[9] == 4294967294*) GOTO 0x09D9
 56: 0x09D3 [0x1A] CALL_SUBROUTINE(address=0x09E0)
 57: 0x09D6 [0x01] GOTO 0x09DE
 58: 0x09D9 [0x03] Work_Zone[1] = 5*

SUBROUTINE_09DE:
 59: 0x09DE [0x21] END_EVENT
 60: 0x09DF [0x00] END_REQSTACK()

SUBROUTINE_09E0:
 61: 0x09E0 [0x03] Work_Zone_1700[22] = 1*
 62: 0x09E5 [0x1D] PRINT_EVENT_MESSAGE(message_id=15636*)
    → "Hm..."
 63: 0x09E8 [0x23] WAIT_FOR_DIALOG_INTERACTION
 64: 0x09E9 [0x1D] PRINT_EVENT_MESSAGE(message_id=15637*)
    → "I'm sorry, but you got the least-coveted Rank [6/4] Prize, kupo."
 65: 0x09EC [0x23] WAIT_FOR_DIALOG_INTERACTION
 66: 0x09ED [0x03] Work_Zone[2] = 18468*
 67: 0x09F2 [0x1D] PRINT_EVENT_MESSAGE(message_id=15645*)
    → "Your consolation prize is $0, kupo!"
 68: 0x09F5 [0x23] WAIT_FOR_DIALOG_INTERACTION
 69: 0x09F6 [0x03] Work_Zone_1700[14] = 18468*
 70: 0x09FB [0x24] CREATE_DIALOG(message_id=15644*, default_option=0*, option_flags=2*)
    → "You chose $22. [Confirm./Changed my mind./Choose later.]"
 71: 0x0A02 [0x25] WAIT_DIALOG_SELECT()
 72: 0x0A03 [0x02] IF !(Work_Zone[0] == 0*) GOTO 0x0A1A
 73: 0x0A0B [0x1D] PRINT_EVENT_MESSAGE(message_id=15641*)
    → "You got it! Just a moment, kupo."
 74: 0x0A0E [0x23] WAIT_FOR_DIALOG_INTERACTION
 75: 0x0A0F [0x03] Work_Zone[1] = 6*
 76: 0x0A14 [0x06] ExtData[1]->WorkLocal[0] = 0
 77: 0x0A17 [0x01] GOTO 0x0A31
 78: 0x0A1A [0x02] IF !(Work_Zone[0] == 1*) GOTO 0x0A25
 79: 0x0A22 [0x01] GOTO 0x0A31
 80: 0x0A25 [0x1D] PRINT_EVENT_MESSAGE(message_id=15642*)
    → "Understood. Please come back when you've made up your mind, kupo."
 81: 0x0A28 [0x23] WAIT_FOR_DIALOG_INTERACTION
 82: 0x0A29 [0x03] Work_Zone[1] = 7*
 83: 0x0A2E [0x06] ExtData[1]->WorkLocal[0] = 0

SUBROUTINE_0A31:
 84: 0x0A31 [0x1B] RETURN

SUBROUTINE_0A32:
 85: 0x0A32 [0x1D] PRINT_EVENT_MESSAGE(message_id=15638*)
    → "Please choose a prize from the following list, kupo."
 86: 0x0A35 [0x23] WAIT_FOR_DIALOG_INTERACTION
 87: 0x0A36 [0x03] ExtData[1]->WorkLocal[0] = 1*
 88: 0x0A3B [0x06] ExtData[1]->WorkLocal[20] = 0

SUBROUTINE_0A3E:
 89: 0x0A3E [0x02] IF !(ExtData[1]->WorkLocal[0] <= 0*) GOTO 0x0C11
 90: 0x0A46 [0x1A] CALL_SUBROUTINE(address=0x05C5)
 91: 0x0A49 [0x03] Work_Zone_1700[13] = ExtData[1]->WorkLocal[1]
 92: 0x0A4E [0x0B] Work_Zone_1700[13]++
 93: 0x0A51 [0xD4] MAP_QUERY_WINDOW: Prepare buffer configuration A (buffer=[01 80 03 10 D4 03 0B 80...])
 94: 0x0A6F [0xD4] MAP_QUERY_WINDOW: Prepare buffer configuration A (buffer=[29 80 08 10 D4 03 2A 80...])
 95: 0x0A8D [0xD4] MAP_QUERY_WINDOW: Prepare buffer configuration A (buffer=[2B 80 03 17 D4 03 2C 80...])
 96: 0x0AAB [0xD4] MAP_QUERY_WINDOW: Prepare buffer configuration A (buffer=[30 80 08 17 D4 03 31 80...])
 97: 0x0AC9 [0x03] Work_Zone_1700[13] = ExtData[1]->WorkLocal[67]
 98: 0x0ACE [0x02] IF !(ExtData[1]->WorkLocal[66] == 0*) GOTO 0x0AFD
 99: 0x0AD6 [0x02] IF !(ExtData[1]->WorkLocal[64] > 20*) GOTO 0x0AE5
100: 0x0ADE [0x3C] SET_BIT_FLAG_CONDITIONAL(target_work_offset=ExtData[1]->WorkLocal[14], bit_index_work_offset=21*, condition_work_offset=1*)
101: 0x0AE5 [0x02] IF !(ExtData[1]->WorkLocal[23] == 0*) GOTO 0x0AFA
102: 0x0AED [0xD4] MAP_QUERY_WINDOW: Prepare buffer configuration A (buffer=[00 80 00 80 3C 0E 00 00...])
103: 0x0B0B [0x0E] 0x4217 |= 0xD400
104: 0x0B10 [0x02] IF !(15639* UNKNOWN_COND_14 0*) GOTO 0x2500
105: 0x0B18 [0x02] IF !(Work_Zone[0] == 0*) GOTO 0x0B70
106: 0x0B20 [0x03] ExtData[1]->WorkLocal[20] = Work_Zone[0]
107: 0x0B25 [0x24] CREATE_DIALOG(message_id=15643*, default_option=1*, option_flags=0*)
    → "You chose $0 gil. [Confirm./Changed my mind./Choose later.]"
108: 0x0B2C [0x25] WAIT_DIALOG_SELECT()
109: 0x0B2D [0x02] IF !(Work_Zone[0] == 0*) GOTO 0x0B56
110: 0x0B35 [0x1D] PRINT_EVENT_MESSAGE(message_id=15641*)
    → "You got it! Just a moment, kupo."
111: 0x0B38 [0x23] WAIT_FOR_DIALOG_INTERACTION
112: 0x0B39 [0x03] Work_Zone[1] = 4*
113: 0x0B3E [0x40] SET_BIT_WORK_RANGE(start_bit=8*, end_bit=15*, target=Work_Zone[1], source=0*)
114: 0x0B47 [0x40] SET_BIT_WORK_RANGE(start_bit=16*, end_bit=31*, target=Work_Zone[1], source=ExtData[1]->WorkLocal[20])
115: 0x0B50 [0x0C] ExtData[1]->WorkLocal[0]--
116: 0x0B53 [0x01] GOTO 0x0B6D
117: 0x0B56 [0x02] IF !(Work_Zone[0] == 1*) GOTO 0x0B61
118: 0x0B5E [0x01] GOTO 0x0B6D
119: 0x0B61 [0x1D] PRINT_EVENT_MESSAGE(message_id=15642*)
    → "Understood. Please come back when you've made up your mind, kupo."
120: 0x0B64 [0x23] WAIT_FOR_DIALOG_INTERACTION
121: 0x0B65 [0x0C] ExtData[1]->WorkLocal[0]--
122: 0x0B68 [0x03] Work_Zone[1] = 5*

SUBROUTINE_0B6D:
123: 0x0B6D [0x01] GOTO 0x0C0B
124: 0x0B70 [0x02] IF !(Work_Zone[0] == 21*) GOTO 0x0B83
125: 0x0B78 [0x0B] ExtData[1]->WorkLocal[66]++
126: 0x0B7B [0x0D] ExtData[1]->WorkLocal[66] &= 1*
127: 0x0B80 [0x01] GOTO 0x0C0B
128: 0x0B83 [0x02] IF !(Work_Zone[0] == 22*) GOTO 0x0B9A
129: 0x0B8B [0x0C] ExtData[1]->WorkLocal[0]--
130: 0x0B8E [0x1D] PRINT_EVENT_MESSAGE(message_id=15642*)
    → "Understood. Please come back when you've made up your mind, kupo."
131: 0x0B91 [0x23] WAIT_FOR_DIALOG_INTERACTION
132: 0x0B92 [0x03] Work_Zone[1] = 5*
133: 0x0B97 [0x01] GOTO 0x0C0B
134: 0x0B9A [0x03] ExtData[1]->WorkLocal[20] = Work_Zone[0]
135: 0x0B9F [0x9D] Work_Zone_1700[14] = 0x0744[Work_Zone[0]] // Read WORD
136: 0x0BA7 [0x93] DISPLAY_ITEM_INFO(item_id=Work_Zone_1700[14])
137: 0x0BAA [0x1D] PRINT_EVENT_MESSAGE(message_id=15606*)
    → "$22 is a rank $21 prize, kupo!"
138: 0x0BAD [0x23] WAIT_FOR_DIALOG_INTERACTION
139: 0x0BAE [0x93] DISPLAY_ITEM_INFO(item_id=0*)
140: 0x0BB1 [0x24] CREATE_DIALOG(message_id=15644*, default_option=1*, option_flags=0*)
    → "You chose $22. [Confirm./Changed my mind./Choose later.]"
141: 0x0BB8 [0x25] WAIT_DIALOG_SELECT()
142: 0x0BB9 [0x02] IF !(Work_Zone[0] == 0*) GOTO 0x0BF1
143: 0x0BC1 [0x1D] PRINT_EVENT_MESSAGE(message_id=15641*)
    → "You got it! Just a moment, kupo."
144: 0x0BC4 [0x23] WAIT_FOR_DIALOG_INTERACTION
145: 0x0BC5 [0x03] ExtData[1]->WorkLocal[69] = ExtData[1]->WorkLocal[66]
146: 0x0BCA [0x14] ExtData[1]->WorkLocal[69] *= 20*
147: 0x0BCF [0x07] ExtData[1]->WorkLocal[69] += ExtData[1]->WorkLocal[20]
148: 0x0BD4 [0x03] Work_Zone[1] = 4*
149: 0x0BD9 [0x40] SET_BIT_WORK_RANGE(start_bit=8*, end_bit=15*, target=Work_Zone[1], source=Work_Zone_1700[14])
150: 0x0BE2 [0x40] SET_BIT_WORK_RANGE(start_bit=16*, end_bit=31*, target=Work_Zone[1], source=ExtData[1]->WorkLocal[69])
151: 0x0BEB [0x0C] ExtData[1]->WorkLocal[0]--
152: 0x0BEE [0x01] GOTO 0x0C0B
153: 0x0BF1 [0x02] IF !(Work_Zone[0] == 1*) GOTO 0x0BFC
154: 0x0BF9 [0x01] GOTO 0x0C0B
155: 0x0BFC [0x1D] PRINT_EVENT_MESSAGE(message_id=15642*)
    → "Understood. Please come back when you've made up your mind, kupo."
156: 0x0BFF [0x23] WAIT_FOR_DIALOG_INTERACTION
157: 0x0C00 [0x0C] ExtData[1]->WorkLocal[0]--
158: 0x0C03 [0x03] Work_Zone[1] = 5*
159: 0x0C08 [0x0C] ExtData[1]->WorkLocal[0]--

SUBROUTINE_0C0B:
160: 0x0C0B [0x06] ExtData[1]->WorkLocal[20] = 0
161: 0x0C0E [0x01] GOTO 0x0A3E
162: 0x0C11 [0x1B] RETURN
```
