# 17760269 - Janshura-Rashura

## Common Data

| Field            | Value                   |
|------------------|-------------------------|
| Zone             | Port Windurst (ID: 240) |
| Block Size       | 9592 bytes              |
| Total Events     | 114                     |
| References Count | 185                     |

## List of Events

| Event ID                   | Entrypoint   |   Size |   Instructions |
|----------------------------|--------------|--------|----------------|
| [65535](#event-65535)      | 0x0000       |      1 |              1 |
| [65535.1](#event-655351)   | 0x0001       |     16 |              2 |
| [65535.2](#event-655352)   | 0x0011       |     22 |              4 |
| [65535.3](#event-655353)   | 0x0027       |     16 |              2 |
| [65535.4](#event-655354)   | 0x0037       |     14 |              2 |
| [65535.5](#event-655355)   | 0x0045       |     16 |              2 |
| [65535.6](#event-655356)   | 0x0055       |     14 |              2 |
| [65535.7](#event-655357)   | 0x0063       |     16 |              2 |
| [65535.8](#event-655358)   | 0x0073       |     22 |              4 |
| [65535.9](#event-655359)   | 0x0089       |     16 |              2 |
| [65535.10](#event-6553510) | 0x0099       |     14 |              2 |
| [65535.11](#event-6553511) | 0x00A7       |     16 |              2 |
| [65535.12](#event-6553512) | 0x00B7       |     22 |              4 |
| [65535.13](#event-6553513) | 0x00CD       |     16 |              2 |
| [65535.14](#event-6553514) | 0x00DD       |     14 |              2 |
| [65535.15](#event-6553515) | 0x00EB       |     16 |              2 |
| [65535.16](#event-6553516) | 0x00FB       |     22 |              4 |
| [65535.17](#event-6553517) | 0x0111       |     16 |              2 |
| [65535.18](#event-6553518) | 0x0121       |     22 |              4 |
| [65535.19](#event-6553519) | 0x0137       |     16 |              2 |
| [65535.20](#event-6553520) | 0x0147       |     14 |              2 |
| [65535.21](#event-6553521) | 0x0155       |     16 |              2 |
| [65535.22](#event-6553522) | 0x0165       |     22 |              4 |
| [65535.23](#event-6553523) | 0x017B       |     16 |              2 |
| [65535.24](#event-6553524) | 0x018B       |     14 |              2 |
| [65535.25](#event-6553525) | 0x0199       |     16 |              2 |
| [65535.26](#event-6553526) | 0x01A9       |     22 |              4 |
| [65535.27](#event-6553527) | 0x01BF       |     16 |              2 |
| [65535.28](#event-6553528) | 0x01CF       |     14 |              2 |
| [65535.29](#event-6553529) | 0x01DD       |     16 |              2 |
| [65535.30](#event-6553530) | 0x01ED       |     14 |              2 |
| [65535.31](#event-6553531) | 0x01FB       |      9 |              3 |
| [65535.32](#event-6553532) | 0x0204       |     56 |              8 |
| [76](#event-76)            | 0x023C       |     33 |             12 |
| [77](#event-77)            | 0x025D       |     29 |             10 |
| [71](#event-71)            | 0x027A       |     33 |             12 |
| [78](#event-78)            | 0x029B       |    553 |             98 |
| [65535.33](#event-6553533) | 0x04C4       |     42 |             11 |
| [83](#event-83)            | 0x04EE       |    550 |             74 |
| [82](#event-82)            | 0x0714       |      1 |              1 |
| [65535.34](#event-6553534) | 0x0715       |    144 |             22 |
| [84](#event-84)            | 0x07A5       |    278 |             34 |
| [85](#event-85)            | 0x08BB       |    181 |             27 |
| [65535.35](#event-6553535) | 0x0970       |     37 |              9 |
| [65535.36](#event-6553536) | 0x0995       |      5 |              3 |
| [65535.37](#event-6553537) | 0x099A       |     37 |              9 |
| [65535.38](#event-6553538) | 0x09BF       |     12 |              4 |
| [65535.39](#event-6553539) | 0x09CB       |     26 |              6 |
| [65535.40](#event-6553540) | 0x09E5       |     23 |              7 |
| [65535.41](#event-6553541) | 0x09FC       |     23 |              7 |
| [65535.42](#event-6553542) | 0x0A13       |     23 |              7 |
| [65535.43](#event-6553543) | 0x0A2A       |     12 |              4 |
| [65535.44](#event-6553544) | 0x0A36       |     19 |              5 |
| [65535.45](#event-6553545) | 0x0A49       |     23 |              7 |
| [89](#event-89)            | 0x0A60       |     35 |             10 |
| [104](#event-104)          | 0x0A83       |    211 |             32 |
| [65535.46](#event-6553546) | 0x0B56       |     19 |              5 |
| [65535.47](#event-6553547) | 0x0B69       |     37 |              9 |
| [65535.48](#event-6553548) | 0x0B8E       |     23 |              7 |
| [105](#event-105)          | 0x0BA5       |     33 |             12 |
| [109](#event-109)          | 0x0BC6       |    241 |             30 |
| [65535.49](#event-6553549) | 0x0CB7       |     23 |              7 |
| [65535.50](#event-6553550) | 0x0CCE       |     23 |              7 |
| [65535.51](#event-6553551) | 0x0CE5       |     23 |              7 |
| [65535.52](#event-6553552) | 0x0CFC       |     19 |              5 |
| [65535.53](#event-6553553) | 0x0D0F       |     23 |              7 |
| [65535.54](#event-6553554) | 0x0D26       |     44 |             10 |
| [110](#event-110)          | 0x0D52       |     33 |             12 |
| [114](#event-114)          | 0x0D73       |    174 |             25 |
| [65535.55](#event-6553555) | 0x0E21       |     77 |             19 |
| [115](#event-115)          | 0x0E6E       |     29 |             10 |
| [119](#event-119)          | 0x0E8B       |    176 |             28 |
| [65535.56](#event-6553556) | 0x0F3B       |     37 |              9 |
| [65535.57](#event-6553557) | 0x0F60       |     23 |              7 |
| [120](#event-120)          | 0x0F77       |     33 |             12 |
| [132](#event-132)          | 0x0F98       |    191 |             29 |
| [65535.58](#event-6553558) | 0x1057       |     19 |              5 |
| [65535.59](#event-6553559) | 0x106A       |     37 |              9 |
| [133](#event-133)          | 0x108F       |     33 |             12 |
| [137](#event-137)          | 0x10B0       |    186 |             25 |
| [65535.60](#event-6553560) | 0x116A       |     37 |              9 |
| [65535.61](#event-6553561) | 0x118F       |     37 |              9 |
| [65535.62](#event-6553562) | 0x11B4       |     19 |              5 |
| [138](#event-138)          | 0x11C7       |     33 |             12 |
| [142](#event-142)          | 0x11E8       |    185 |             33 |
| [143](#event-143)          | 0x12A1       |     33 |             12 |
| [152](#event-152)          | 0x12C2       |    167 |             29 |
| [154](#event-154)          | 0x1369       |     47 |             14 |
| [153](#event-153)          | 0x1398       |    144 |             27 |
| [158](#event-158)          | 0x1428       |    157 |             26 |
| [159](#event-159)          | 0x14C5       |     33 |             12 |
| [163](#event-163)          | 0x14E6       |     33 |             12 |
| [164](#event-164)          | 0x1507       |     33 |             12 |
| [168](#event-168)          | 0x1528       |    152 |             27 |
| [169](#event-169)          | 0x15C0       |     33 |             12 |
| [173](#event-173)          | 0x15E1       |    120 |             21 |
| [174](#event-174)          | 0x1659       |     33 |             12 |
| [451](#event-451)          | 0x167A       |    202 |             30 |
| [452](#event-452)          | 0x1744       |     47 |             14 |
| [463](#event-463)          | 0x1773       |    321 |             45 |
| [464](#event-464)          | 0x18B4       |     47 |             14 |
| [468](#event-468)          | 0x18E3       |    259 |             37 |
| [469](#event-469)          | 0x19E6       |     45 |             14 |
| [473](#event-473)          | 0x1A13       |    251 |             35 |
| [474](#event-474)          | 0x1B0E       |     47 |             14 |
| [478](#event-478)          | 0x1B3D       |    301 |             41 |
| [479](#event-479)          | 0x1C6A       |     61 |             16 |
| [483](#event-483)          | 0x1CA7       |    358 |             50 |
| [484](#event-484)          | 0x1E0D       |     45 |             14 |
| [554](#event-554)          | 0x1E3A       |    240 |             36 |
| [555](#event-555)          | 0x1F2A       |     33 |             12 |
| [559](#event-559)          | 0x1F4B       |    254 |             38 |
| [560](#event-560)          | 0x2049       |     47 |             14 |
| [567](#event-567)          | 0x2078       |     66 |             19 |

## DAT References (imed_data)

|   Index | Hex Value   |   Dec Value |
|---------|-------------|-------------|
|       0 | 0x0028      |          40 |
|       1 | 0x001E      |          30 |
|       2 | 0x0029      |          41 |
|       3 | 0x002A      |          42 |
|       4 | 0x00C8      |         200 |
|       5 | 0x0000      |           0 |
|       6 | 0x003C      |          60 |
|       7 | 0x0CED      |        3309 |
|       8 | 0x0CEE      |        3310 |
|       9 | 0x0CEF      |        3311 |
|      10 | 0x0CE1      |        3297 |
|      11 | 0x0CE2      |        3298 |
|      12 | 0x0CF0      |        3312 |
|      13 | 0x001F      |          31 |
|      14 | 0x0001      |           1 |
|      15 | 0x0002      |           2 |
|      16 | 0x0003      |           3 |
|      17 | 0x0004      |           4 |
|      18 | 0x0005      |           5 |
|      19 | 0x000A      |          10 |
|      20 | 0x000B      |          11 |
|      21 | 0x000C      |          12 |
|      22 | 0x000E      |          14 |
|      23 | 0x000F      |          15 |
|      24 | 0x0010      |          16 |
|      25 | 0x0011      |          17 |
|      26 | 0x0012      |          18 |
|      27 | 0x0013      |          19 |
|      28 | 0x0014      |          20 |
|      29 | 0x0015      |          21 |
|      30 | 0x0016      |          22 |
|      31 | 0x0017      |          23 |
|      32 | 0x2BA5      |       11173 |
|      33 | 0x008C      |         140 |
|      34 | 0x0D03      |        3331 |
|      35 | 0x0D10      |        3344 |
|      36 | 0x0D13      |        3347 |
|      37 | 0x0D14      |        3348 |
|      38 | 0x0D15      |        3349 |
|      39 | 0x0D16      |        3350 |
|      40 | 0x0D17      |        3351 |
|      41 | 0x0CF6      |        3318 |
|      42 | 0x0CF7      |        3319 |
|      43 | 0x0CFF      |        3327 |
|      44 | 0x0D04      |        3332 |
|      45 | 0x0D05      |        3333 |
|      46 | 0x0D06      |        3334 |
|      47 | 0x0D07      |        3335 |
|      48 | 0x0D08      |        3336 |
|      49 | 0x0D09      |        3337 |
|      50 | 0x0D0C      |        3340 |
|      51 | 0x0D0D      |        3341 |
|      52 | 0x0D0E      |        3342 |
|      53 | 0x0D0F      |        3343 |
|      54 | 0x0D11      |        3345 |
|      55 | 0x0D1F      |        3359 |
|      56 | 0x0D20      |        3360 |
|      57 | 0x0D44      |        3396 |
|      58 | 0x0008      |           8 |
|      59 | 0x0D41      |        3393 |
|      60 | 0x0D42      |        3394 |
|      61 | 0x0D43      |        3395 |
|      62 | 0x0D45      |        3397 |
|      63 | 0x0D46      |        3398 |
|      64 | 0x0D47      |        3399 |
|      65 | 0x0D48      |        3400 |
|      66 | 0x0D4F      |        3407 |
|      67 | 0x0D50      |        3408 |
|      68 | 0x0D51      |        3409 |
|      69 | 0x0D52      |        3410 |
|      70 | 0x0D53      |        3411 |
|      71 | 0x0D54      |        3412 |
|      72 | 0x0D55      |        3413 |
|      73 | 0x0D56      |        3414 |
|      74 | 0x0D57      |        3415 |
|      75 | 0x0D58      |        3416 |
|      76 | 0x0D59      |        3417 |
|      77 | 0x0D5A      |        3418 |
|      78 | 0x0D5B      |        3419 |
|      79 | 0x00C9      |         201 |
|      80 | 0x0D61      |        3425 |
|      81 | 0x0D62      |        3426 |
|      82 | 0x0D63      |        3427 |
|      83 | 0x0D64      |        3428 |
|      84 | 0x0D65      |        3429 |
|      85 | 0x0D6E      |        3438 |
|      86 | 0x0D6C      |        3436 |
|      87 | 0x0D6D      |        3437 |
|      88 | 0x0D6F      |        3439 |
|      89 | 0x0D70      |        3440 |
|      90 | 0x0D71      |        3441 |
|      91 | 0x0D72      |        3442 |
|      92 | 0x0D79      |        3449 |
|      93 | 0x0D78      |        3448 |
|      94 | 0x0D7A      |        3450 |
|      95 | 0x0D7B      |        3451 |
|      96 | 0x0D7C      |        3452 |
|      97 | 0x0D7D      |        3453 |
|      98 | 0x0D82      |        3458 |
|      99 | 0x0D83      |        3459 |
|     100 | 0x0D84      |        3460 |
|     101 | 0x0D85      |        3461 |
|     102 | 0x0D86      |        3462 |
|     103 | 0x0D87      |        3463 |
|     104 | 0x0D88      |        3464 |
|     105 | 0x0D8D      |        3469 |
|     106 | 0x0D8E      |        3470 |
|     107 | 0x0D8F      |        3471 |
|     108 | 0x0D90      |        3472 |
|     109 | 0x0D91      |        3473 |
|     110 | 0x0D92      |        3474 |
|     111 | 0x0DAB      |        3499 |
|     112 | 0x0DAC      |        3500 |
|     113 | 0x0DAD      |        3501 |
|     114 | 0x0DB1      |        3505 |
|     115 | 0x0DB2      |        3506 |
|     116 | 0x0DAE      |        3502 |
|     117 | 0x0DAF      |        3503 |
|     118 | 0x0DB0      |        3504 |
|     119 | 0x0DB9      |        3513 |
|     120 | 0x0DBA      |        3514 |
|     121 | 0x0DBB      |        3515 |
|     122 | 0x0DBC      |        3516 |
|     123 | 0x0DC3      |        3523 |
|     124 | 0x0DC4      |        3524 |
|     125 | 0x0DC5      |        3525 |
|     126 | 0x0DC6      |        3526 |
|     127 | 0x0DCD      |        3533 |
|     128 | 0x0DCE      |        3534 |
|     129 | 0x0DCF      |        3535 |
|     130 | 0x0DD0      |        3536 |
|     131 | 0x0DD1      |        3537 |
|     132 | 0x0DD8      |        3544 |
|     133 | 0x0DD9      |        3545 |
|     134 | 0x0DDA      |        3546 |
|     135 | 0x0DDB      |        3547 |
|     136 | 0x2FED      |       12269 |
|     137 | 0x2FEE      |       12270 |
|     138 | 0x2FEF      |       12271 |
|     139 | 0x2FF0      |       12272 |
|     140 | 0x3015      |       12309 |
|     141 | 0x3016      |       12310 |
|     142 | 0x3017      |       12311 |
|     143 | 0x3018      |       12312 |
|     144 | 0x3019      |       12313 |
|     145 | 0x301A      |       12314 |
|     146 | 0x301B      |       12315 |
|     147 | 0x3022      |       12322 |
|     148 | 0x3023      |       12323 |
|     149 | 0x3024      |       12324 |
|     150 | 0x3025      |       12325 |
|     151 | 0x0006      |           6 |
|     152 | 0x3026      |       12326 |
|     153 | 0x302E      |       12334 |
|     154 | 0x302F      |       12335 |
|     155 | 0x3030      |       12336 |
|     156 | 0x3031      |       12337 |
|     157 | 0x3032      |       12338 |
|     158 | 0x3039      |       12345 |
|     159 | 0x303A      |       12346 |
|     160 | 0x303B      |       12347 |
|     161 | 0x303C      |       12348 |
|     162 | 0x303D      |       12349 |
|     163 | 0x303E      |       12350 |
|     164 | 0x3045      |       12357 |
|     165 | 0x3046      |       12358 |
|     166 | 0x3047      |       12359 |
|     167 | 0x3048      |       12360 |
|     168 | 0x3049      |       12361 |
|     169 | 0x007F      |         127 |
|     170 | 0x304A      |       12362 |
|     171 | 0x304B      |       12363 |
|     172 | 0x312C      |       12588 |
|     173 | 0x312D      |       12589 |
|     174 | 0x312E      |       12590 |
|     175 | 0x312F      |       12591 |
|     176 | 0x3130      |       12592 |
|     177 | 0x314C      |       12620 |
|     178 | 0x314D      |       12621 |
|     179 | 0x314E      |       12622 |
|     180 | 0x314F      |       12623 |
|     181 | 0x3150      |       12624 |
|     182 | 0x3158      |       12632 |
|     183 | 0x3159      |       12633 |
|     184 | 0x315A      |       12634 |

## String References

- **3297**: Oh, so you're a foreigner, huh? This is Windurst's Port District.
- **3298**: If a map of Windurst is what you're after, then I suggest you head to the shops along the wharves there. A Mithra who sells maps works that area.
- **3309**: What, you thought you could accept more than one mission at a time? If only it was that easy-weasy!
- **3310**: Complete your current mission before applying for the next.
- **3311**: Oh, goody-woody! Ahem... Nice to see you dropped by. So, what mission will you take upon yourself today?
- **3312**: Which mission will you accept? [The Horutoto Ruins Experiment./The Heart of the Matter./The Price of Peace./Lost for Words./A Testing Time./The Three Kingdoms./Mission 2-3-1A./Mission 2-3-1B./Mission 2-3-2A./Mission 2-3-2B./To Each His Own Right./Written in the Stars./A New Journey./Magicite./The Final Seal./The Shadow Awaits./Full Moon Fountain./Saintly Invitation./The Sixth Ministry./Awakening of the Gods./Vain./The Jester Who'd Be King./Doll of the Dead./Moon Reading./Dummy11./Dummy12./Dummy13./Dummy14./Dummy15./Dummy16./Dummy17./Decline mission.]
- **3318**: Goody-woody! Ahem... Nice to see you stopped by. Here's a heartfelt welcome from Windurst's "Best of the West" guard platoon!
- **3319**: I know, I know, it's such a cool name! If you ever make the grade, you could also work here at the western gatehouse and join the "Best of the West" guards too.
- **3327**: Oh, why don't you all just shut uppy-wuppy! You're discouraging newbie-woobies like our friend here from working hard for the sake of Windurst!
- **3331**: Do you know...? [Nope. Don't know./Yep. Sure I know.]
- **3332**: See... [He/She] was a new recruit who came to get [his/her] first mission all along!
- **3333**: You're a citizen of Windurst, so there's nothing holding you back! Let's go get you your first mission...
- **3334**: Oh, then this is terrible-werrible. Her-hrmm... Allow me to explain...that is, if none of you have any complaints...
- **3335**: Gatehouses are meeting and resting points for guards like us who serve and protect Windurst.
- **3336**: They are also the places where missions from the Federation of Windurst are received.
- **3337**: We then allocate these missions to citizens of Windurst who are both skilled and responsible enough to carry out their assignment properly, and have them help both their country and themselves.
- **3340**: Of course, you have to understand that at first you might just receive menial tasks, but if you carry out these simple missions properly, your rank will rise and greater responsibilities will be assigned to you.
- **3341**: As your rank increases, you might come to rub shoulders with people you don't ordinarily meet, and can show off to all the people around you.
- **3342**: So how about it then? Did that raise your interest-winterest, or what?
- **3343**: You're a citizen of Windurst, so there's nothing holding you back! Let's go get you your first mission...
- **3344**: Accept a mission? [Accept./Decline.]
- **3345**: Oo\`wh...!?
- **3347**: Oh, goody-woody! Way to go! Welcome to the "Best of the West"!
- **3350**: So skedaddle-waddle on over to the Orastery and ask their minister for the details.
- **3351**: Do a good job so as not to shame the name of the "Best of the West"! Good luck!
- **3359**: If you go meet with the Orastery's minister, he will explain the details of the mission to you.
- **3360**: He says a lot of nasty stuff... Unfortunately, he means it... So watch out!
- **3393**: Oh goodness-woodness! Don't tell me it's a mission from the Manustery?
- **3394**: Can you go to the Cardian workshop at the Manustery and help the staff there create their automaton guards?
- **3395**: All Windurstians are indebted to the Cardians for their diligent service. Please accept this mission as a way of showing your gratitude to the Cardians.
- **3396**: Accept this mission? [Accept./Decline.]
- **3397**: Ask the staff at the Cardian workshop in the Manustery for the details.
- **3398**: The Manustery's Cardian workshop is in Windurst Woods. It's a teensy-weensy bit far from here, but you should consider it an opportunity to learn the layout of Windurst better.
- **3399**: Go ask the staff at the Cardian workshop in the Manustery for the details of your mission.
- **3400**: The Manustery's Cardian workshop is in Windurst Woods. It's a teeny-weeny bit far, but hey, you should know the layout of Windurst by now.
- **3407**: You should be used to doing missions by now, right?
- **3408**: Today, I'm thinking of asking you to do a very important mission. Do you think you're up to it?
- **3409**: It involves a trip to Giddeus. That's where the Yagudo beastmen dwell, on the far side of West Sarutabaruta.
- **3410**: Of course you know about the Yagudo, right? They were the enemy that Windurst fought against during the Great War, twenty years ago.
- **3411**: Thanks to the efforts of the Star Sibyl, Windurst currently maintains amicable relations with them.
- **3412**: But that means we have to regularly offer up gifts of food and weapons to the Yagudo.
- **3413**: So, I'm thinking of having you deliver the next food offerings to them.
- **3414**: The Rhinostery is responsible for preparing the next offerings. You can pick them up at the biological laboratory in the Windurst Waters district.
- **3415**: Once you have received the food offerings from the researchers there, I want you to head straight to Giddeus.
- **3416**: Finally, I'd like to re-emphasize that this mission is very important. Your actions could influence the future-wuture of Windurst, so don't mess it up!
- **3417**: ...<phew> Did I sound convincingly scary-wary?t
- **3418**: For crying-wrying out loud! I told you... First head to the Rhinostery's biological laboratory in Windurst Waters, and pick up the food offerings to be taken to the Yagudo.
- **3419**: The Rhinostery is more like a botanical garden than a research institute. It's by far the plainest of the five ministries.
- **3425**: Welcome backy-wacky. Seems like you we're able to complete the delivery properly... He-he-heh... Looks like I know how to pick 'em!
- **3426**: Congratulations are in order... Your efforts have been recognized. As a reward, we are allowing you to progress to rank two!
- **3427**: As for your next mission... Before we can assign you any more missions, you'll have to collect rank points by participating in Windurst's conquest effort.
- **3428**: For more details, speak to the War Warlock guard in charge of conquests by the gate there.
- **3429**: Let's keep on working together for the sakey-wakey of Windurst.
- **3436**: Oh, hey, it's you... The Optistery just sent me an urgent call for a "highly capable adventurer."
- **3437**: Do you consider yourself "highly capable"? Anyway, I don't have a clue-wue what it entails, but are you interested in trying your luck at this mission?
- **3438**: Accept the mission? [Accept./Decline.]
- **3439**: Well, you know the routine... The Optistery runs a Library of Magic, so head on over and ask the bookworms what they want with you.
- **3440**: Oh, and in case you're not much of a reader-weader yourself, the Optistery's Library of Magic is in the Windurst Waters district. Enjoy this exciting quest... Hah!
- **3441**: You know the routine... The Optistery runs the Library of Magic, so head on over there and ask what they want with you.
- **3442**: In case you're not much of a reader-weader, the Optistery's Library of Magic is in the Windurst Waters district. Hah, I hope you enjoy helping out the bookworms...
- **3448**: How about helping out at the Aurastery's School of Magic for a changey-wangey? It sounds like it'll take some time, so it's not for the impatient.
- **3449**: Accept the mission? [Accept./Decline.]
- **3450**: The Aurastery's School of Magic is on the eastern side of Windurst Waters. Take the opposite road to the one that leads to the residential area's Mog Houses, and head far up north.
- **3451**: Oh, and a word of friendly-wriendly advice--the teachers there will probably test your patience more than the actual mission, but don't give up!t
- **3452**: The Aurastery's School of Magic is on the eastern side of Windurst Waters. Take the opposite road to the one that leads to the residential area's Mog Houses, and head far up north.
- **3453**: Oh, and a word of friendly-wriendly advice--the teachers there will probably test your patience more than the actual mission, but don't give up!t
- **3458**: Let me see, for your next mission we have an offer from the Rhinostery, and...
- **3459**: Oh, my stars!!! This one is much more important than that silly-willy old Rhinostery mission....!
- **3460**: ...Sorry if I startled you with my sudden-wudden outburst there. I was just informed of an urgent mission from Heavens Tower that is much more suited to the likes of you...
- **3461**: This is a task for a true adventurer. And you sure have proved yourself so far...
- **3462**: The secretary of Heavens Tower will explain what you need to know. I hope you're honored by the privilege of helping out at such an important place.
- **3463**: Do you need directions to Heavens Tower? It's on the total opposite side of town from here. You should head northeast via either Windurst Woods or Windurst Waters.
- **3464**: Once you find your way inside Heavens Tower, hunt down and ask the secretary about the details of the mission.
- **3469**: Oh good, I finally-winally found you! We've been searching for you, <Player>...
- **3470**: We have received a summons for you to appear at Heavens Tower for a special mission.
- **3471**: What's more, the summons came from the Sibyl Guard Semih Lafihna in person. Now that is scary-wary!
- **3472**: Mithra have quite a temper, so I recommend you proceed straight to Heavens Tower. See you when you get back!
- **3473**: The Sibyl Guards are an elite army corps of Mithra that protects Heavens Tower.
- **3474**: I've heard rumors of them, but I've never seen them in the flesh. The job of the Sibyl Guards is to protect Heavens Tower, so it's rare to see them outside of there.
- **3499**: Wow! When did you get to be so high-wigh up in the world?
- **3500**: This is a mission from Heavens Tower. Hmm... That's unusual. The issuer is the head lady-in-waiting, Zubaba.
- **3501**: Well then, please head on over to meet Zubaba. She's rather strict when it comes to punctuality, so for all our sakes, don't keep her waiting!
- **3502**: Zubaba, the head lady-in-waiting of Heavens Tower, is asking for you.
- **3503**: You must have done an impressive job last time, eh? Looks like you're in their good books, doesn't it?
- **3504**: Hurry-wurry on over and meet with Miss Zubaba. Good luck!
- **3505**: Gee... I wonder how old the head lady Zubaba really is. She's served at the Star Sibyl's side ever since the current sibyl was a little girl.
- **3506**: Ewww! What a terrible-werrible thing you have me thinking about!
- **3513**: The time has finally-winally come! $6 has come for you. Letters with the star emblem on them, like this one, are the most important papers issued by Heavens Tower.
- **3514**: So don't even think! Just head straight to Heavens Tower. I assume someone we're unworthy to gaze upon is awaiting your prompt arrival.
- **3515**: Your time has come! It's a formal writ of summons from Heavens Tower!
- **3516**: Don't think-wink! Just head straight to Heavens Tower. I assume someone we're unworthy to gaze upon is awaiting your prompt arrival.
- **3523**: Her-hrmm... An emergency order has been issued to all guards and adventurers most loyal to Windurst.
- **3524**: Issuance of missions has been stopped pending further instructions from Heavens Tower... I wonder what in Heavens Tower is happening-wappening there?
- **3525**: An emergency order has been issued to all guards and adventurers loyal to Windurst.
- **3526**: Issuance of missions has been stopped pending further instructions from Heavens Tower. Hey... You should go check and see what's happening-wappening at Heavens Tower!
- **3533**: This is an urgent-wurgent mission from Heavens Tower!
- **3534**: It's a mission to the cursed Northlands...to the ruins of Fei'Yin, northeast of the Beaucedine Glacier.
- **3535**: A detailed explanation and an important seal will be given to you at Heavens Tower, so please head to there right away.
- **3536**: Fei'Yin, on the other side of the Beaucedine Glacier... I thought old horror-worror stories were all that remained of that place...
- **3537**: Have you received the seal yet? That important seal is to be handed to you at Heavens Tower, so if you haven't received it yet, head there right away!
- **3544**: I just received an update that the conference of ministers has ended. Together with that came another-wother $3 for you.
- **3545**: I don't know what is happening at Heavens Tower, but it seems as if they have great expectations of you. Show them what you're made of and make us "Best of the West" proud!
- **3546**: Another $3 came for you, along with the update that the conference of ministers had ended.
- **3547**: I don't know what is happening-wappening at Heavens Tower, but it seems as if they have great expectations of you. Show them what you're made of and make us "Best of the West" proud!
- **11173**: Accept this mission? [Yes./No.]
- **12269**: Whoah. A mission from Minister Ajido-Marujido of the Orastery. This is kind of a surprise. This is kind of...scary.
- **12270**: Ahem, anyway, please head to the Orastery as soon as you can. I wonder what mischief-wischief the minister is up to this time?
- **12271**: This mission requires you to head to the Orastery as fastaru as you possibly-wossibly can.
- **12272**: This is a mission the Minister issued himself. This reeky-weeks of some dastarudly plan...
- **12309**: Did you hear, did you hear? This is justaru between you and me, but...
- **12310**: Minister Ajido-Marujido was finally arrested by the Sibyl Guards!
- **12311**: The Orastery is in a whole lot of trouble-wouble. ...We guards are affected by this as well, of course, but the mages of the Orastery are in a completaru state of shock.
- **12312**: ...Ah, ahem. I would like to chataru a little more but you have been summoned to Heavens Tower.
- **12313**: This is an order from the Star Sibyl, so please make your way to Heavens Tower as quickly as possible.
- **12314**: Minister Apururu is Minister Ajido-Marujido's little sister, rightaru? I wonder what she thinks of all this?
- **12315**: Ahem, anyway, please hurry on over to Heavens Tower. The Star Sibyl will be waiting for you.
- **12322**: Hi there, I have a mission-wission from the Optistery for you to tidy up the book vault.
- **12323**: With all the ruckus-wuckus around here you wouldn't think the ministries would be issuing missions right now. You gottaru hand it to the Optistery, nothing upsets their routine!
- **12324**: With Minister Tosuka-Porika's dislike of Ajido-Marujido though, I guess he's feeling on top of the world about what happened.
- **12325**: The Optistery's missions are always difficultaru, but try your bestaru!
- **12326**: ...All the ministries have been asking for you personally these days. I'm glad things are working out for you, but I mustaru say I'm a little jealous!
- **12334**: Step right up! Get your missions here! ...Ahem. This mission has been issued by the Rhinostery.
- **12335**: It says here that the Rhinostery needs a handy-wandy with something but there are no specific details. They're probably looking for a research assistantaru.
- **12336**: Take yourself to the second floor of the Rhinostery and getaru the low-down from Leepe-Hoppe.
- **12337**: The mission statement is about as clear as mud, but if you talk to Leepe-Hoppe at the Rhinostery he should provide you with all the details.
- **12338**: I wonder why the Rhinostery would be enlisting research assistantarus by issuing a mission? Usually they just employ one of the Rhinostery-affiliated adventurers...
- **12345**: This is a little late, but congratulations on reaching rank eight!
- **12346**: Well, this is surprising. Your next mission is from the Aurastery. As usual, the teachers from the School of Magic are the ones to set this little task...
- **12347**: The objective of this mission is strictaruly confidential, but since it has the Sibyl guards stamp of approval it should be okay.
- **12348**: Rightaru, time to get to work!
- **12349**: You can ask the details of the mission from the teachers at the Aurastery. There mustaru have been some sort of trouble.
- **12350**: ...But what could've happened? Maybe Principal Koru-Moru has vanished as well.
- **12357**: ......
- **12358**: Rightaru! I've finally plucked up my courage, so listen carefully before I lose my nerve.
- **12359**: This mission has not been approved by the Sibyl guards. We're not supposed to offer missions without official approval, but this time we're breaking the rules.
- **12360**: <Player>. We want you to help Minister Apururu! Go to the Manustery and meet with the minister!
- **12361**: ...Ah! You can'taru tell anyone about this mission! If you see any Sibyl Guards, turn tail and run like a rarab!
- **12362**: <Player>. We want you to help Minister Apururu! Go to the Manustery and meet with the minister!
- **12363**: Don't forget, you can'taru tell anyone about this mission! If you see any Sibyl Guards, turn tail and run like a rarab!
- **12588**: Oh, <Player>! Minister Apururu is asking for you!
- **12589**: She went to the Orastery to fetch Minister Ajido-Marujido's wizardly wear, so I guess that means he's on the road to recovery!
- **12590**: ...Ah, me and my big goobbue mouth! I really need to learn to keepy-weep my voice down!
- **12591**: ...<whisper>... ...Minister Apururu is waiting for you at the Manustery...
- **12592**: ...<whisper>... ...It's so hard for me to be deceitaruful... Every time I try to lie, I get this little smirk on my face...
- **12620**: Your mission today is from Heavens Tower! I have the mission statement with your name on it rightaru here.
- **12621**: The Yagudo have sentaru a proposal demanding a revision of the peace treaty. You should make your way over to Heavens Tower immediataruly.
- **12622**: ...Hm? This doesn'taru have the Star Sibyl's emblem on it. Did she justaru forget, I wonder?
- **12623**: A revision of the peace treaty between Windurst and the Yagudo... In what way would they wantaru it revised?
- **12624**: What bother-wothers me is this isn'taru just a simple revision of one of the clauses. Are they looking for a complete rewrite of the entire treaty?
- **12632**: Hey <Player>, how've you been!? I'm so glad I gotaru the chance to see you again!
- **12633**: The Star Sibyl, the Sibyl Guards, Miss Apururu, Minister Ajido-Marujido... Everyone in Windurst is so grateful for what you have done.
- **12634**: Everyone is friends again! Isn'taru that wonderful?

## Events

### Event 65535

#### Metadata

| Field        | Value   |
|--------------|---------|
| Entrypoint   | 0x0000  |
| Data Size    | 1 bytes |
| Instructions | 1       |

```
      00 01 02 03 04 05 06 07  08 09 0A 0B 0C 0D 0E 0F
      -- -- -- -- -- -- -- --  -- -- -- -- -- -- -- --
0000: 00                                                .               
```

#### Opcodes

```
  0: 0x0000 [0x00] END_REQSTACK()
```

### Event 65535.1

#### Metadata

| Field        | Value    |
|--------------|----------|
| Entrypoint   | 0x0001   |
| Data Size    | 16 bytes |
| Instructions | 2        |

```
      00 01 02 03 04 05 06 07  08 09 0A 0B 0C 0D 0E 0F
      -- -- -- -- -- -- -- --  -- -- -- -- -- -- -- --
0000:    66 00 80 F8 FF FF 7F  F8 FF FF 7F 74 6C 6B 30   f..........tlk0
0010: 00                                                .               
```

#### Opcodes

```
  0: 0x0001 [0x66] LOAD_EXT_SCHEDULER_MAIN: Load scheduler "tlk0" with entities [EventEntity, EventEntity], work=40*
  1: 0x0010 [0x00] END_REQSTACK()
```

### Event 65535.2

#### Metadata

| Field        | Value    |
|--------------|----------|
| Entrypoint   | 0x0011   |
| Data Size    | 22 bytes |
| Instructions | 4        |

```
      00 01 02 03 04 05 06 07  08 09 0A 0B 0C 0D 0E 0F
      -- -- -- -- -- -- -- --  -- -- -- -- -- -- -- --
0010:    53 F8 FF FF 7F F8 FF  FF 7F 74 6C 6B 30 5E 69   S........tlk0^i
0020: 64 6C 30 1C 01 80 00                              dl0....         
```

#### Opcodes

```
  0: 0x0011 [0x53] WAIT_SCHEDULER_TASK: Wait for scheduler "tlk0" with entities [EventEntity, EventEntity]
  1: 0x001E [0x5E] EventEntity goes idle (kills current action) (animation: "idl0")
  2: 0x0023 [0x1C] WAIT(30* ticks)
  3: 0x0026 [0x00] END_REQSTACK()
```

### Event 65535.3

#### Metadata

| Field        | Value    |
|--------------|----------|
| Entrypoint   | 0x0027   |
| Data Size    | 16 bytes |
| Instructions | 2        |

```
      00 01 02 03 04 05 06 07  08 09 0A 0B 0C 0D 0E 0F
      -- -- -- -- -- -- -- --  -- -- -- -- -- -- -- --
0020:                      66  00 80 F8 FF FF 7F F8 FF         f........
0030: FF 7F 74 68 6B 31 00                              ..thk1.         
```

#### Opcodes

```
  0: 0x0027 [0x66] LOAD_EXT_SCHEDULER_MAIN: Load scheduler "thk1" with entities [EventEntity, EventEntity], work=40*
  1: 0x0036 [0x00] END_REQSTACK()
```

### Event 65535.4

#### Metadata

| Field        | Value    |
|--------------|----------|
| Entrypoint   | 0x0037   |
| Data Size    | 14 bytes |
| Instructions | 2        |

```
      00 01 02 03 04 05 06 07  08 09 0A 0B 0C 0D 0E 0F
      -- -- -- -- -- -- -- --  -- -- -- -- -- -- -- --
0030:                      53  F8 FF FF 7F F8 FF FF 7F         S........
0040: 74 68 6B 31 00                                    thk1.           
```

#### Opcodes

```
  0: 0x0037 [0x53] WAIT_SCHEDULER_TASK: Wait for scheduler "thk1" with entities [EventEntity, EventEntity]
  1: 0x0044 [0x00] END_REQSTACK()
```

### Event 65535.5

#### Metadata

| Field        | Value    |
|--------------|----------|
| Entrypoint   | 0x0045   |
| Data Size    | 16 bytes |
| Instructions | 2        |

```
      00 01 02 03 04 05 06 07  08 09 0A 0B 0C 0D 0E 0F
      -- -- -- -- -- -- -- --  -- -- -- -- -- -- -- --
0040:                66 00 80  F8 FF FF 7F F8 FF FF 7F       f..........
0050: 74 68 6B 32 00                                    thk2.           
```

#### Opcodes

```
  0: 0x0045 [0x66] LOAD_EXT_SCHEDULER_MAIN: Load scheduler "thk2" with entities [EventEntity, EventEntity], work=40*
  1: 0x0054 [0x00] END_REQSTACK()
```

### Event 65535.6

#### Metadata

| Field        | Value    |
|--------------|----------|
| Entrypoint   | 0x0055   |
| Data Size    | 14 bytes |
| Instructions | 2        |

```
      00 01 02 03 04 05 06 07  08 09 0A 0B 0C 0D 0E 0F
      -- -- -- -- -- -- -- --  -- -- -- -- -- -- -- --
0050:                53 F8 FF  FF 7F F8 FF FF 7F 74 68       S........th
0060: 6B 32 00                                          k2.             
```

#### Opcodes

```
  0: 0x0055 [0x53] WAIT_SCHEDULER_TASK: Wait for scheduler "thk2" with entities [EventEntity, EventEntity]
  1: 0x0062 [0x00] END_REQSTACK()
```

### Event 65535.7

#### Metadata

| Field        | Value    |
|--------------|----------|
| Entrypoint   | 0x0063   |
| Data Size    | 16 bytes |
| Instructions | 2        |

```
      00 01 02 03 04 05 06 07  08 09 0A 0B 0C 0D 0E 0F
      -- -- -- -- -- -- -- --  -- -- -- -- -- -- -- --
0060:          66 02 80 F8 FF  FF 7F F8 FF FF 7F 65 68     f..........eh
0070: 6E 30 00                                          n0.             
```

#### Opcodes

```
  0: 0x0063 [0x66] LOAD_EXT_SCHEDULER_MAIN: Load scheduler "ehn0" with entities [EventEntity, EventEntity], work=41*
  1: 0x0072 [0x00] END_REQSTACK()
```

### Event 65535.8

#### Metadata

| Field        | Value    |
|--------------|----------|
| Entrypoint   | 0x0073   |
| Data Size    | 22 bytes |
| Instructions | 4        |

```
      00 01 02 03 04 05 06 07  08 09 0A 0B 0C 0D 0E 0F
      -- -- -- -- -- -- -- --  -- -- -- -- -- -- -- --
0070:          53 F8 FF FF 7F  F8 FF FF 7F 65 68 6E 30     S........ehn0
0080: 5E 69 64 6C 30 1C 01 80  00                       ^idl0....       
```

#### Opcodes

```
  0: 0x0073 [0x53] WAIT_SCHEDULER_TASK: Wait for scheduler "ehn0" with entities [EventEntity, EventEntity]
  1: 0x0080 [0x5E] EventEntity goes idle (kills current action) (animation: "idl0")
  2: 0x0085 [0x1C] WAIT(30* ticks)
  3: 0x0088 [0x00] END_REQSTACK()
```

### Event 65535.9

#### Metadata

| Field        | Value    |
|--------------|----------|
| Entrypoint   | 0x0089   |
| Data Size    | 16 bytes |
| Instructions | 2        |

```
      00 01 02 03 04 05 06 07  08 09 0A 0B 0C 0D 0E 0F
      -- -- -- -- -- -- -- --  -- -- -- -- -- -- -- --
0080:                             66 00 80 F8 FF FF 7F           f......
0090: F8 FF FF 7F 70 6F 69 30  00                       ....poi0.       
```

#### Opcodes

```
  0: 0x0089 [0x66] LOAD_EXT_SCHEDULER_MAIN: Load scheduler "poi0" with entities [EventEntity, EventEntity], work=40*
  1: 0x0098 [0x00] END_REQSTACK()
```

### Event 65535.10

#### Metadata

| Field        | Value    |
|--------------|----------|
| Entrypoint   | 0x0099   |
| Data Size    | 14 bytes |
| Instructions | 2        |

```
      00 01 02 03 04 05 06 07  08 09 0A 0B 0C 0D 0E 0F
      -- -- -- -- -- -- -- --  -- -- -- -- -- -- -- --
0090:                             53 F8 FF FF 7F F8 FF           S......
00A0: FF 7F 70 6F 69 30 00                              ..poi0.         
```

#### Opcodes

```
  0: 0x0099 [0x53] WAIT_SCHEDULER_TASK: Wait for scheduler "poi0" with entities [EventEntity, EventEntity]
  1: 0x00A6 [0x00] END_REQSTACK()
```

### Event 65535.11

#### Metadata

| Field        | Value    |
|--------------|----------|
| Entrypoint   | 0x00A7   |
| Data Size    | 16 bytes |
| Instructions | 2        |

```
      00 01 02 03 04 05 06 07  08 09 0A 0B 0C 0D 0E 0F
      -- -- -- -- -- -- -- --  -- -- -- -- -- -- -- --
00A0:                      66  03 80 F8 FF FF 7F F8 FF         f........
00B0: FF 7F 62 69 6B 30 00                              ..bik0.         
```

#### Opcodes

```
  0: 0x00A7 [0x66] LOAD_EXT_SCHEDULER_MAIN: Load scheduler "bik0" with entities [EventEntity, EventEntity], work=42*
  1: 0x00B6 [0x00] END_REQSTACK()
```

### Event 65535.12

#### Metadata

| Field        | Value    |
|--------------|----------|
| Entrypoint   | 0x00B7   |
| Data Size    | 22 bytes |
| Instructions | 4        |

```
      00 01 02 03 04 05 06 07  08 09 0A 0B 0C 0D 0E 0F
      -- -- -- -- -- -- -- --  -- -- -- -- -- -- -- --
00B0:                      53  F8 FF FF 7F F8 FF FF 7F         S........
00C0: 62 69 6B 30 5E 69 64 6C  30 1C 01 80 00           bik0^idl0....   
```

#### Opcodes

```
  0: 0x00B7 [0x53] WAIT_SCHEDULER_TASK: Wait for scheduler "bik0" with entities [EventEntity, EventEntity]
  1: 0x00C4 [0x5E] EventEntity goes idle (kills current action) (animation: "idl0")
  2: 0x00C9 [0x1C] WAIT(30* ticks)
  3: 0x00CC [0x00] END_REQSTACK()
```

### Event 65535.13

#### Metadata

| Field        | Value    |
|--------------|----------|
| Entrypoint   | 0x00CD   |
| Data Size    | 16 bytes |
| Instructions | 2        |

```
      00 01 02 03 04 05 06 07  08 09 0A 0B 0C 0D 0E 0F
      -- -- -- -- -- -- -- --  -- -- -- -- -- -- -- --
00C0:                                         66 02 80               f..
00D0: F8 FF FF 7F F8 FF FF 7F  73 68 6B 30 00           ........shk0.   
```

#### Opcodes

```
  0: 0x00CD [0x66] LOAD_EXT_SCHEDULER_MAIN: Load scheduler "shk0" with entities [EventEntity, EventEntity], work=41*
  1: 0x00DC [0x00] END_REQSTACK()
```

### Event 65535.14

#### Metadata

| Field        | Value    |
|--------------|----------|
| Entrypoint   | 0x00DD   |
| Data Size    | 14 bytes |
| Instructions | 2        |

```
      00 01 02 03 04 05 06 07  08 09 0A 0B 0C 0D 0E 0F
      -- -- -- -- -- -- -- --  -- -- -- -- -- -- -- --
00D0:                                         53 F8 FF               S..
00E0: FF 7F F8 FF FF 7F 73 68  6B 30 00                 ......shk0.     
```

#### Opcodes

```
  0: 0x00DD [0x53] WAIT_SCHEDULER_TASK: Wait for scheduler "shk0" with entities [EventEntity, EventEntity]
  1: 0x00EA [0x00] END_REQSTACK()
```

### Event 65535.15

#### Metadata

| Field        | Value    |
|--------------|----------|
| Entrypoint   | 0x00EB   |
| Data Size    | 16 bytes |
| Instructions | 2        |

```
      00 01 02 03 04 05 06 07  08 09 0A 0B 0C 0D 0E 0F
      -- -- -- -- -- -- -- --  -- -- -- -- -- -- -- --
00E0:                                   66 00 80 F8 FF             f....
00F0: FF 7F F8 FF FF 7F 73 79  75 30 00                 ......syu0.     
```

#### Opcodes

```
  0: 0x00EB [0x66] LOAD_EXT_SCHEDULER_MAIN: Load scheduler "syu0" with entities [EventEntity, EventEntity], work=40*
  1: 0x00FA [0x00] END_REQSTACK()
```

### Event 65535.16

#### Metadata

| Field        | Value    |
|--------------|----------|
| Entrypoint   | 0x00FB   |
| Data Size    | 22 bytes |
| Instructions | 4        |

```
      00 01 02 03 04 05 06 07  08 09 0A 0B 0C 0D 0E 0F
      -- -- -- -- -- -- -- --  -- -- -- -- -- -- -- --
00F0:                                   53 F8 FF FF 7F             S....
0100: F8 FF FF 7F 73 79 75 30  5E 69 64 6C 30 1C 01 80  ....syu0^idl0...
0110: 00                                                .               
```

#### Opcodes

```
  0: 0x00FB [0x53] WAIT_SCHEDULER_TASK: Wait for scheduler "syu0" with entities [EventEntity, EventEntity]
  1: 0x0108 [0x5E] EventEntity goes idle (kills current action) (animation: "idl0")
  2: 0x010D [0x1C] WAIT(30* ticks)
  3: 0x0110 [0x00] END_REQSTACK()
```

### Event 65535.17

#### Metadata

| Field        | Value    |
|--------------|----------|
| Entrypoint   | 0x0111   |
| Data Size    | 16 bytes |
| Instructions | 2        |

```
      00 01 02 03 04 05 06 07  08 09 0A 0B 0C 0D 0E 0F
      -- -- -- -- -- -- -- --  -- -- -- -- -- -- -- --
0110:    66 00 80 F8 FF FF 7F  F8 FF FF 7F 7A 69 74 30   f..........zit0
0120: 00                                                .               
```

#### Opcodes

```
  0: 0x0111 [0x66] LOAD_EXT_SCHEDULER_MAIN: Load scheduler "zit0" with entities [EventEntity, EventEntity], work=40*
  1: 0x0120 [0x00] END_REQSTACK()
```

### Event 65535.18

#### Metadata

| Field        | Value    |
|--------------|----------|
| Entrypoint   | 0x0121   |
| Data Size    | 22 bytes |
| Instructions | 4        |

```
      00 01 02 03 04 05 06 07  08 09 0A 0B 0C 0D 0E 0F
      -- -- -- -- -- -- -- --  -- -- -- -- -- -- -- --
0120:    53 F8 FF FF 7F F8 FF  FF 7F 7A 69 74 30 5E 69   S........zit0^i
0130: 64 6C 30 1C 01 80 00                              dl0....         
```

#### Opcodes

```
  0: 0x0121 [0x53] WAIT_SCHEDULER_TASK: Wait for scheduler "zit0" with entities [EventEntity, EventEntity]
  1: 0x012E [0x5E] EventEntity goes idle (kills current action) (animation: "idl0")
  2: 0x0133 [0x1C] WAIT(30* ticks)
  3: 0x0136 [0x00] END_REQSTACK()
```

### Event 65535.19

#### Metadata

| Field        | Value    |
|--------------|----------|
| Entrypoint   | 0x0137   |
| Data Size    | 16 bytes |
| Instructions | 2        |

```
      00 01 02 03 04 05 06 07  08 09 0A 0B 0C 0D 0E 0F
      -- -- -- -- -- -- -- --  -- -- -- -- -- -- -- --
0130:                      66  00 80 F8 FF FF 7F F8 FF         f........
0140: FF 7F 77 61 69 30 00                              ..wai0.         
```

#### Opcodes

```
  0: 0x0137 [0x66] LOAD_EXT_SCHEDULER_MAIN: Load scheduler "wai0" with entities [EventEntity, EventEntity], work=40*
  1: 0x0146 [0x00] END_REQSTACK()
```

### Event 65535.20

#### Metadata

| Field        | Value    |
|--------------|----------|
| Entrypoint   | 0x0147   |
| Data Size    | 14 bytes |
| Instructions | 2        |

```
      00 01 02 03 04 05 06 07  08 09 0A 0B 0C 0D 0E 0F
      -- -- -- -- -- -- -- --  -- -- -- -- -- -- -- --
0140:                      53  F8 FF FF 7F F8 FF FF 7F         S........
0150: 77 61 69 30 00                                    wai0.           
```

#### Opcodes

```
  0: 0x0147 [0x53] WAIT_SCHEDULER_TASK: Wait for scheduler "wai0" with entities [EventEntity, EventEntity]
  1: 0x0154 [0x00] END_REQSTACK()
```

### Event 65535.21

#### Metadata

| Field        | Value    |
|--------------|----------|
| Entrypoint   | 0x0155   |
| Data Size    | 16 bytes |
| Instructions | 2        |

```
      00 01 02 03 04 05 06 07  08 09 0A 0B 0C 0D 0E 0F
      -- -- -- -- -- -- -- --  -- -- -- -- -- -- -- --
0150:                66 00 80  F8 FF FF 7F F8 FF FF 7F       f..........
0160: 67 6B 72 30 00                                    gkr0.           
```

#### Opcodes

```
  0: 0x0155 [0x66] LOAD_EXT_SCHEDULER_MAIN: Load scheduler "gkr0" with entities [EventEntity, EventEntity], work=40*
  1: 0x0164 [0x00] END_REQSTACK()
```

### Event 65535.22

#### Metadata

| Field        | Value    |
|--------------|----------|
| Entrypoint   | 0x0165   |
| Data Size    | 22 bytes |
| Instructions | 4        |

```
      00 01 02 03 04 05 06 07  08 09 0A 0B 0C 0D 0E 0F
      -- -- -- -- -- -- -- --  -- -- -- -- -- -- -- --
0160:                53 F8 FF  FF 7F F8 FF FF 7F 67 6B       S........gk
0170: 72 30 5E 69 64 6C 30 1C  01 80 00                 r0^idl0....     
```

#### Opcodes

```
  0: 0x0165 [0x53] WAIT_SCHEDULER_TASK: Wait for scheduler "gkr0" with entities [EventEntity, EventEntity]
  1: 0x0172 [0x5E] EventEntity goes idle (kills current action) (animation: "idl0")
  2: 0x0177 [0x1C] WAIT(30* ticks)
  3: 0x017A [0x00] END_REQSTACK()
```

### Event 65535.23

#### Metadata

| Field        | Value    |
|--------------|----------|
| Entrypoint   | 0x017B   |
| Data Size    | 16 bytes |
| Instructions | 2        |

```
      00 01 02 03 04 05 06 07  08 09 0A 0B 0C 0D 0E 0F
      -- -- -- -- -- -- -- --  -- -- -- -- -- -- -- --
0170:                                   66 00 80 F8 FF             f....
0180: FF 7F F8 FF FF 7F 69 72  6F 30 00                 ......iro0.     
```

#### Opcodes

```
  0: 0x017B [0x66] LOAD_EXT_SCHEDULER_MAIN: Load scheduler "iro0" with entities [EventEntity, EventEntity], work=40*
  1: 0x018A [0x00] END_REQSTACK()
```

### Event 65535.24

#### Metadata

| Field        | Value    |
|--------------|----------|
| Entrypoint   | 0x018B   |
| Data Size    | 14 bytes |
| Instructions | 2        |

```
      00 01 02 03 04 05 06 07  08 09 0A 0B 0C 0D 0E 0F
      -- -- -- -- -- -- -- --  -- -- -- -- -- -- -- --
0180:                                   53 F8 FF FF 7F             S....
0190: F8 FF FF 7F 69 72 6F 30  00                       ....iro0.       
```

#### Opcodes

```
  0: 0x018B [0x53] WAIT_SCHEDULER_TASK: Wait for scheduler "iro0" with entities [EventEntity, EventEntity]
  1: 0x0198 [0x00] END_REQSTACK()
```

### Event 65535.25

#### Metadata

| Field        | Value    |
|--------------|----------|
| Entrypoint   | 0x0199   |
| Data Size    | 16 bytes |
| Instructions | 2        |

```
      00 01 02 03 04 05 06 07  08 09 0A 0B 0C 0D 0E 0F
      -- -- -- -- -- -- -- --  -- -- -- -- -- -- -- --
0190:                             66 03 80 F8 FF FF 7F           f......
01A0: F8 FF FF 7F 74 65 68 30  00                       ....teh0.       
```

#### Opcodes

```
  0: 0x0199 [0x66] LOAD_EXT_SCHEDULER_MAIN: Load scheduler "teh0" with entities [EventEntity, EventEntity], work=42*
  1: 0x01A8 [0x00] END_REQSTACK()
```

### Event 65535.26

#### Metadata

| Field        | Value    |
|--------------|----------|
| Entrypoint   | 0x01A9   |
| Data Size    | 22 bytes |
| Instructions | 4        |

```
      00 01 02 03 04 05 06 07  08 09 0A 0B 0C 0D 0E 0F
      -- -- -- -- -- -- -- --  -- -- -- -- -- -- -- --
01A0:                             53 F8 FF FF 7F F8 FF           S......
01B0: FF 7F 74 65 68 30 5E 69  64 6C 30 1C 01 80 00     ..teh0^idl0.... 
```

#### Opcodes

```
  0: 0x01A9 [0x53] WAIT_SCHEDULER_TASK: Wait for scheduler "teh0" with entities [EventEntity, EventEntity]
  1: 0x01B6 [0x5E] EventEntity goes idle (kills current action) (animation: "idl0")
  2: 0x01BB [0x1C] WAIT(30* ticks)
  3: 0x01BE [0x00] END_REQSTACK()
```

### Event 65535.27

#### Metadata

| Field        | Value    |
|--------------|----------|
| Entrypoint   | 0x01BF   |
| Data Size    | 16 bytes |
| Instructions | 2        |

```
      00 01 02 03 04 05 06 07  08 09 0A 0B 0C 0D 0E 0F
      -- -- -- -- -- -- -- --  -- -- -- -- -- -- -- --
01B0:                                               66                 f
01C0: 03 80 F8 FF FF 7F F8 FF  FF 7F 74 65 68 31 00     ..........teh1. 
```

#### Opcodes

```
  0: 0x01BF [0x66] LOAD_EXT_SCHEDULER_MAIN: Load scheduler "teh1" with entities [EventEntity, EventEntity], work=42*
  1: 0x01CE [0x00] END_REQSTACK()
```

### Event 65535.28

#### Metadata

| Field        | Value    |
|--------------|----------|
| Entrypoint   | 0x01CF   |
| Data Size    | 14 bytes |
| Instructions | 2        |

```
      00 01 02 03 04 05 06 07  08 09 0A 0B 0C 0D 0E 0F
      -- -- -- -- -- -- -- --  -- -- -- -- -- -- -- --
01C0:                                               53                 S
01D0: F8 FF FF 7F F8 FF FF 7F  74 65 68 31 00           ........teh1.   
```

#### Opcodes

```
  0: 0x01CF [0x53] WAIT_SCHEDULER_TASK: Wait for scheduler "teh1" with entities [EventEntity, EventEntity]
  1: 0x01DC [0x00] END_REQSTACK()
```

### Event 65535.29

#### Metadata

| Field        | Value    |
|--------------|----------|
| Entrypoint   | 0x01DD   |
| Data Size    | 16 bytes |
| Instructions | 2        |

```
      00 01 02 03 04 05 06 07  08 09 0A 0B 0C 0D 0E 0F
      -- -- -- -- -- -- -- --  -- -- -- -- -- -- -- --
01D0:                                         66 00 80               f..
01E0: F8 FF FF 7F F8 FF FF 7F  64 69 73 30 00           ........dis0.   
```

#### Opcodes

```
  0: 0x01DD [0x66] LOAD_EXT_SCHEDULER_MAIN: Load scheduler "dis0" with entities [EventEntity, EventEntity], work=40*
  1: 0x01EC [0x00] END_REQSTACK()
```

### Event 65535.30

#### Metadata

| Field        | Value    |
|--------------|----------|
| Entrypoint   | 0x01ED   |
| Data Size    | 14 bytes |
| Instructions | 2        |

```
      00 01 02 03 04 05 06 07  08 09 0A 0B 0C 0D 0E 0F
      -- -- -- -- -- -- -- --  -- -- -- -- -- -- -- --
01E0:                                         53 F8 FF               S..
01F0: FF 7F F8 FF FF 7F 64 69  73 30 00                 ......dis0.     
```

#### Opcodes

```
  0: 0x01ED [0x53] WAIT_SCHEDULER_TASK: Wait for scheduler "dis0" with entities [EventEntity, EventEntity]
  1: 0x01FA [0x00] END_REQSTACK()
```

### Event 65535.31

#### Metadata

| Field        | Value   |
|--------------|---------|
| Entrypoint   | 0x01FB  |
| Data Size    | 9 bytes |
| Instructions | 3       |

```
      00 01 02 03 04 05 06 07  08 09 0A 0B 0C 0D 0E 0F
      -- -- -- -- -- -- -- --  -- -- -- -- -- -- -- --
01F0:                                   5E 69 64 6C 30             ^idl0
0200: 1C 01 80 00                                       ....            
```

#### Opcodes

```
  0: 0x01FB [0x5E] EventEntity goes idle (kills current action) (animation: "idl0")
  1: 0x0200 [0x1C] WAIT(30* ticks)
  2: 0x0203 [0x00] END_REQSTACK()
```

### Event 65535.32

#### Metadata

| Field        | Value    |
|--------------|----------|
| Entrypoint   | 0x0204   |
| Data Size    | 56 bytes |
| Instructions | 8        |

```
      00 01 02 03 04 05 06 07  08 09 0A 0B 0C 0D 0E 0F
      -- -- -- -- -- -- -- --  -- -- -- -- -- -- -- --
0200:             45 04 80 F8  FF FF 7F F8 FF FF 7F 66      E..........f
0210: 64 6F 31 05 80 1C 06 80  29 0B 0E 00 0F 01 11 4E  do1.....)......N
0220: 00 F0 FF FF 7F 46 00 1C  06 80 45 04 80 F8 FF FF  .....F....E.....
0230: 7F F8 FF FF 7F 66 64 69  31 05 80 00              .....fdi1...    
```

#### Opcodes

```
  0: 0x0204 [0x45] LOAD_SCHEDULED_TASK: Load scheduler "fdo1" with entities [EventEntity, EventEntity], work=[200*, 0*]
  1: 0x0215 [0x1C] WAIT(60* ticks)
  2: 0x0218 [0x29] REQ_SET_WAIT(priority=0x0B, entity_id=Puo Rhen (ID: 17760270/0x010F000E), tag_num=0x11)
  3: 0x021F [0x4E] SET_ENTITY_HIDE_FLAG: Show LocalPlayer
  4: 0x0225 [0x46] CAMERA_CONTROL: Restore default settings
  5: 0x0227 [0x1C] WAIT(60* ticks)
  6: 0x022A [0x45] LOAD_SCHEDULED_TASK: Load scheduler "fdi1" with entities [EventEntity, EventEntity], work=[200*, 0*]
  7: 0x023B [0x00] END_REQSTACK()
```

### Event 76

#### Metadata

| Field        | Value    |
|--------------|----------|
| Entrypoint   | 0x023C   |
| Data Size    | 33 bytes |
| Instructions | 12       |

```
      00 01 02 03 04 05 06 07  08 09 0A 0B 0C 0D 0E 0F
      -- -- -- -- -- -- -- --  -- -- -- -- -- -- -- --
0230:                                      1E F0 FF FF              ....
0240: 7F 6F 70 29 08 0D 00 0F  01 07 1D 07 80 23 1D 08  .op).........#..
0250: 80 23 29 08 0D 00 0F 01  08 20 00 21 00           .#)...... .!.   
```

#### Opcodes

```
  0: 0x023C [0x1E] EventEntity looks at LocalPlayer and starts talking
  1: 0x0241 [0x6F] WAIT_FRAME_DELAY: Yield until WaitTime reaches zero
  2: 0x0242 [0x70] WAIT_ENTITY_RENDER_FLAG: Wait while EventEntity->Render.Flags3 bit 2 is set (cancel turn if not)
  3: 0x0243 [0x29] REQ_SET_WAIT(priority=0x08, entity_id=Janshura-Rashura (ID: 17760269/0x010F000D), tag_num=0x07)
  4: 0x024A [0x1D] PRINT_EVENT_MESSAGE(message_id=3309*)
     "What, you thought you could accept more than one mission at a time? If only it was that easy-weasy!"
  5: 0x024D [0x23] WAIT_FOR_DIALOG_INTERACTION
  6: 0x024E [0x1D] PRINT_EVENT_MESSAGE(message_id=3310*)
     "Complete your current mission before applying for the next."
  7: 0x0251 [0x23] WAIT_FOR_DIALOG_INTERACTION
  8: 0x0252 [0x29] REQ_SET_WAIT(priority=0x08, entity_id=Janshura-Rashura (ID: 17760269/0x010F000D), tag_num=0x08)
  9: 0x0259 [0x20] SET_CLI_EVENT_UC_FLAG: Unlock player control
 10: 0x025B [0x21] END_EVENT
 11: 0x025C [0x00] END_REQSTACK()
```

### Event 77

#### Metadata

| Field        | Value    |
|--------------|----------|
| Entrypoint   | 0x025D   |
| Data Size    | 29 bytes |
| Instructions | 10       |

```
      00 01 02 03 04 05 06 07  08 09 0A 0B 0C 0D 0E 0F
      -- -- -- -- -- -- -- --  -- -- -- -- -- -- -- --
0250:                                         1E F0 FF               ...
0260: FF 7F 6F 70 29 08 0D 00  0F 01 07 1D 09 80 23 29  ..op).........#)
0270: 08 0D 00 0F 01 08 20 00  21 00                    ...... .!.      
```

#### Opcodes

```
  0: 0x025D [0x1E] EventEntity looks at LocalPlayer and starts talking
  1: 0x0262 [0x6F] WAIT_FRAME_DELAY: Yield until WaitTime reaches zero
  2: 0x0263 [0x70] WAIT_ENTITY_RENDER_FLAG: Wait while EventEntity->Render.Flags3 bit 2 is set (cancel turn if not)
  3: 0x0264 [0x29] REQ_SET_WAIT(priority=0x08, entity_id=Janshura-Rashura (ID: 17760269/0x010F000D), tag_num=0x07)
  4: 0x026B [0x1D] PRINT_EVENT_MESSAGE(message_id=3311*)
     "Oh, goody-woody! Ahem... Nice to see you dropped by. So, what mission will you take upon yourself today?"
  5: 0x026E [0x23] WAIT_FOR_DIALOG_INTERACTION
  6: 0x026F [0x29] REQ_SET_WAIT(priority=0x08, entity_id=Janshura-Rashura (ID: 17760269/0x010F000D), tag_num=0x08)
  7: 0x0276 [0x20] SET_CLI_EVENT_UC_FLAG: Unlock player control
  8: 0x0278 [0x21] END_EVENT
  9: 0x0279 [0x00] END_REQSTACK()
```

### Event 71

#### Metadata

| Field        | Value    |
|--------------|----------|
| Entrypoint   | 0x027A   |
| Data Size    | 33 bytes |
| Instructions | 12       |

```
      00 01 02 03 04 05 06 07  08 09 0A 0B 0C 0D 0E 0F
      -- -- -- -- -- -- -- --  -- -- -- -- -- -- -- --
0270:                                1E F0 FF FF 7F 6F            .....o
0280: 70 29 08 0D 00 0F 01 07  1D 0A 80 23 1D 0B 80 23  p).........#...#
0290: 29 08 0D 00 0F 01 08 20  00 21 00                 )...... .!.     
```

#### Opcodes

```
  0: 0x027A [0x1E] EventEntity looks at LocalPlayer and starts talking
  1: 0x027F [0x6F] WAIT_FRAME_DELAY: Yield until WaitTime reaches zero
  2: 0x0280 [0x70] WAIT_ENTITY_RENDER_FLAG: Wait while EventEntity->Render.Flags3 bit 2 is set (cancel turn if not)
  3: 0x0281 [0x29] REQ_SET_WAIT(priority=0x08, entity_id=Janshura-Rashura (ID: 17760269/0x010F000D), tag_num=0x07)
  4: 0x0288 [0x1D] PRINT_EVENT_MESSAGE(message_id=3297*)
     "Oh, so you're a foreigner, huh? This is Windurst's Port District."
  5: 0x028B [0x23] WAIT_FOR_DIALOG_INTERACTION
  6: 0x028C [0x1D] PRINT_EVENT_MESSAGE(message_id=3298*)
     "If a map of Windurst is what you're after, then I suggest you head to the shops along the wharves there. A Mithra who sells maps works that area."
  7: 0x028F [0x23] WAIT_FOR_DIALOG_INTERACTION
  8: 0x0290 [0x29] REQ_SET_WAIT(priority=0x08, entity_id=Janshura-Rashura (ID: 17760269/0x010F000D), tag_num=0x08)
  9: 0x0297 [0x20] SET_CLI_EVENT_UC_FLAG: Unlock player control
 10: 0x0299 [0x21] END_EVENT
 11: 0x029A [0x00] END_REQSTACK()
```

### Event 78

#### Metadata

| Field        | Value     |
|--------------|-----------|
| Entrypoint   | 0x029B    |
| Data Size    | 553 bytes |
| Instructions | 97        |

```
      00 01 02 03 04 05 06 07  08 09 0A 0B 0C 0D 0E 0F
      -- -- -- -- -- -- -- --  -- -- -- -- -- -- -- --
0290:                                   29 08 F0 FF FF             )....
02A0: 7F 0A 1E F0 FF FF 7F 6F  70 29 08 0D 00 0F 01 07  .......op)......
02B0: 1D 09 80 23 29 08 0D 00  0F 01 08 24 0C 80 0D 80  ...#)......$....
02C0: 02 10 25 02 00 10 0E 80  00 DC 02 29 0E 0D 00 0F  ..%........)....
02D0: 01 25 29 0E 0D 00 0F 01  37 01 97 04 02 00 10 0F  .%).....7.......
02E0: 80 00 F5 02 29 0E 0D 00  0F 01 25 29 0E 0D 00 0F  ....).....%)....
02F0: 01 3C 01 97 04 02 00 10  10 80 00 0E 03 29 0E 0D  .<...........)..
0300: 00 0F 01 25 29 0E 0D 00  0F 01 47 01 97 04 02 00  ...%).....G.....
0310: 10 11 80 00 27 03 29 0E  0D 00 0F 01 25 29 0E 0D  ....'.).....%)..
0320: 00 0F 01 4B 01 97 04 02  00 10 12 80 00 40 03 29  ...K.........@.)
0330: 0E 0D 00 0F 01 25 29 0E  0D 00 0F 01 4F 01 97 04  .....%).....O...
0340: 02 00 10 13 80 00 59 03  29 0E 0D 00 0F 01 25 29  ......Y.).....%)
0350: 0E 0D 00 0F 01 54 01 97  04 02 00 10 14 80 00 84  .....T..........
0360: 03 29 0E 0D 00 0F 01 25  02 04 10 05 80 00 7A 03  .).....%......z.
0370: 29 0E 0D 00 0F 01 56 01  81 03 29 0E 0D 00 0F 01  ).....V...).....
0380: 58 01 97 04 02 00 10 15  80 00 9D 03 29 0E 0D 00  X...........)...
0390: 0F 01 25 29 0E 0D 00 0F  01 59 01 97 04 02 00 10  ..%).....Y......
03A0: 16 80 00 B6 03 29 0E 0D  00 0F 01 25 29 0E 0D 00  .....).....%)...
03B0: 0F 01 5D 01 97 04 02 00  10 17 80 00 CF 03 29 0E  ..]...........).
03C0: 0D 00 0F 01 25 29 0E 0D  00 0F 01 5F 01 97 04 02  ....%)....._....
03D0: 00 10 18 80 00 E8 03 29  0E 0D 00 0F 01 25 29 0E  .......).....%).
03E0: 0D 00 0F 01 61 01 97 04  02 00 10 19 80 00 01 04  ....a...........
03F0: 29 0E 0D 00 0F 01 25 29  0E 0D 00 0F 01 63 01 97  ).....%).....c..
0400: 04 02 00 10 1A 80 00 1A  04 29 0E 0D 00 0F 01 25  .........).....%
0410: 29 0E 0D 00 0F 01 65 01  97 04 02 00 10 1B 80 00  ).....e.........
0420: 33 04 29 0E 0D 00 0F 01  25 29 0E 0D 00 0F 01 67  3.).....%).....g
0430: 01 97 04 02 00 10 1C 80  00 4C 04 29 0E 0D 00 0F  .........L.)....
0440: 01 25 29 0E 0D 00 0F 01  69 01 97 04 02 00 10 1D  .%).....i.......
0450: 80 00 65 04 29 0E 0D 00  0F 01 25 29 0E 0D 00 0F  ..e.).....%)....
0460: 01 6B 01 97 04 02 00 10  1E 80 00 7E 04 29 0E 0D  .k.........~.)..
0470: 00 0F 01 25 29 0E 0D 00  0F 01 6D 01 97 04 02 00  ...%).....m.....
0480: 10 1F 80 00 97 04 29 0E  0D 00 0F 01 25 29 0E 0D  ......).....%)..
0490: 00 0F 01 6F 01 97 04 03  01 10 00 10 02 01 10 0D  ...o............
04A0: 80 01 C0 04 24 20 80 05  80 05 80 25 02 00 10 0E  ....$ .....%....
04B0: 80 00 C0 04 03 01 10 0D  80 20 00 21 00 01 C0 04  ......... .!....
04C0: 20 00 21 00                                        .!.            
```

#### Opcodes

```
  0: 0x029B [0x29] REQ_SET_WAIT(priority=0x08, entity_id=LocalPlayer, tag_num=0x0A)
  1: 0x02A2 [0x1E] EventEntity looks at LocalPlayer and starts talking
  2: 0x02A7 [0x6F] WAIT_FRAME_DELAY: Yield until WaitTime reaches zero
  3: 0x02A8 [0x70] WAIT_ENTITY_RENDER_FLAG: Wait while EventEntity->Render.Flags3 bit 2 is set (cancel turn if not)
  4: 0x02A9 [0x29] REQ_SET_WAIT(priority=0x08, entity_id=Janshura-Rashura (ID: 17760269/0x010F000D), tag_num=0x07)
  5: 0x02B0 [0x1D] PRINT_EVENT_MESSAGE(message_id=3311*)
     "Oh, goody-woody! Ahem... Nice to see you dropped by. So, what mission will you take upon yourself today?"
  6: 0x02B3 [0x23] WAIT_FOR_DIALOG_INTERACTION
  7: 0x02B4 [0x29] REQ_SET_WAIT(priority=0x08, entity_id=Janshura-Rashura (ID: 17760269/0x010F000D), tag_num=0x08)
  8: 0x02BB [0x24] CREATE_DIALOG(message_id=3312*, default_option=31*, option_flags=Work_Zone[2])
     "Which mission will you accept? [The Horutoto Ruins Experiment./The Heart of the Matter./The Price of Peace./Lost for Words./A Testing Time./The Three Kingdoms./Mission 2-3-1A./Mission 2-3-1B./Mission 2-3-2A./Mission 2-3-2B./To Each His Own Right./Written in the Stars./A New Journey./Magicite./The Final Seal./The Shadow Awaits./Full Moon Fountain./Saintly Invitation./The Sixth Ministry./Awakening of the Gods./Vain./The Jester Who'd Be King./Doll of the Dead./Moon Reading./Dummy11./Dummy12./Dummy13./Dummy14./Dummy15./Dummy16./Dummy17./Decline mission.]"
  9: 0x02C2 [0x25] WAIT_DIALOG_SELECT()
 10: 0x02C3 [0x02] IF !(Work_Zone[0] == 1*) GOTO 0x02DC
 11: 0x02CB [0x29] REQ_SET_WAIT(priority=0x0E, entity_id=Janshura-Rashura (ID: 17760269/0x010F000D), tag_num=0x25)
 12: 0x02D2 [0x29] REQ_SET_WAIT(priority=0x0E, entity_id=Janshura-Rashura (ID: 17760269/0x010F000D), tag_num=0x37)
 13: 0x02D9 [0x01] GOTO 0x0497
 14: 0x02DC [0x02] IF !(Work_Zone[0] == 2*) GOTO 0x02F5
 15: 0x02E4 [0x29] REQ_SET_WAIT(priority=0x0E, entity_id=Janshura-Rashura (ID: 17760269/0x010F000D), tag_num=0x25)
 16: 0x02EB [0x29] REQ_SET_WAIT(priority=0x0E, entity_id=Janshura-Rashura (ID: 17760269/0x010F000D), tag_num=0x3C)
 17: 0x02F2 [0x01] GOTO 0x0497
 18: 0x02F5 [0x02] IF !(Work_Zone[0] == 3*) GOTO 0x030E
 19: 0x02FD [0x29] REQ_SET_WAIT(priority=0x0E, entity_id=Janshura-Rashura (ID: 17760269/0x010F000D), tag_num=0x25)
 20: 0x0304 [0x29] REQ_SET_WAIT(priority=0x0E, entity_id=Janshura-Rashura (ID: 17760269/0x010F000D), tag_num=0x47)
 21: 0x030B [0x01] GOTO 0x0497
 22: 0x030E [0x02] IF !(Work_Zone[0] == 4*) GOTO 0x0327
 23: 0x0316 [0x29] REQ_SET_WAIT(priority=0x0E, entity_id=Janshura-Rashura (ID: 17760269/0x010F000D), tag_num=0x25)
 24: 0x031D [0x29] REQ_SET_WAIT(priority=0x0E, entity_id=Janshura-Rashura (ID: 17760269/0x010F000D), tag_num=0x4B)
 25: 0x0324 [0x01] GOTO 0x0497
 26: 0x0327 [0x02] IF !(Work_Zone[0] == 5*) GOTO 0x0340
 27: 0x032F [0x29] REQ_SET_WAIT(priority=0x0E, entity_id=Janshura-Rashura (ID: 17760269/0x010F000D), tag_num=0x25)
 28: 0x0336 [0x29] REQ_SET_WAIT(priority=0x0E, entity_id=Janshura-Rashura (ID: 17760269/0x010F000D), tag_num=0x4F)
 29: 0x033D [0x01] GOTO 0x0497
 30: 0x0340 [0x02] IF !(Work_Zone[0] == 10*) GOTO 0x0359
 31: 0x0348 [0x29] REQ_SET_WAIT(priority=0x0E, entity_id=Janshura-Rashura (ID: 17760269/0x010F000D), tag_num=0x25)
 32: 0x034F [0x29] REQ_SET_WAIT(priority=0x0E, entity_id=Janshura-Rashura (ID: 17760269/0x010F000D), tag_num=0x54)
 33: 0x0356 [0x01] GOTO 0x0497
 34: 0x0359 [0x02] IF !(Work_Zone[0] == 11*) GOTO 0x0384
 35: 0x0361 [0x29] REQ_SET_WAIT(priority=0x0E, entity_id=Janshura-Rashura (ID: 17760269/0x010F000D), tag_num=0x25)
 36: 0x0368 [0x02] IF !(Work_Zone[4] == 0*) GOTO 0x037A
 37: 0x0370 [0x29] REQ_SET_WAIT(priority=0x0E, entity_id=Janshura-Rashura (ID: 17760269/0x010F000D), tag_num=0x56)
 38: 0x0377 [0x01] GOTO 0x0381
 39: 0x037A [0x29] REQ_SET_WAIT(priority=0x0E, entity_id=Janshura-Rashura (ID: 17760269/0x010F000D), tag_num=0x58)

SUBROUTINE_0381:
 40: 0x0381 [0x01] GOTO 0x0497
 41: 0x0384 [0x02] IF !(Work_Zone[0] == 12*) GOTO 0x039D
 42: 0x038C [0x29] REQ_SET_WAIT(priority=0x0E, entity_id=Janshura-Rashura (ID: 17760269/0x010F000D), tag_num=0x25)
 43: 0x0393 [0x29] REQ_SET_WAIT(priority=0x0E, entity_id=Janshura-Rashura (ID: 17760269/0x010F000D), tag_num=0x59)
 44: 0x039A [0x01] GOTO 0x0497
 45: 0x039D [0x02] IF !(Work_Zone[0] == 14*) GOTO 0x03B6
 46: 0x03A5 [0x29] REQ_SET_WAIT(priority=0x0E, entity_id=Janshura-Rashura (ID: 17760269/0x010F000D), tag_num=0x25)
 47: 0x03AC [0x29] REQ_SET_WAIT(priority=0x0E, entity_id=Janshura-Rashura (ID: 17760269/0x010F000D), tag_num=0x5D)
 48: 0x03B3 [0x01] GOTO 0x0497
 49: 0x03B6 [0x02] IF !(Work_Zone[0] == 15*) GOTO 0x03CF
 50: 0x03BE [0x29] REQ_SET_WAIT(priority=0x0E, entity_id=Janshura-Rashura (ID: 17760269/0x010F000D), tag_num=0x25)
 51: 0x03C5 [0x29] REQ_SET_WAIT(priority=0x0E, entity_id=Janshura-Rashura (ID: 17760269/0x010F000D), tag_num=0x5F)
 52: 0x03CC [0x01] GOTO 0x0497
 53: 0x03CF [0x02] IF !(Work_Zone[0] == 16*) GOTO 0x03E8
 54: 0x03D7 [0x29] REQ_SET_WAIT(priority=0x0E, entity_id=Janshura-Rashura (ID: 17760269/0x010F000D), tag_num=0x25)
 55: 0x03DE [0x29] REQ_SET_WAIT(priority=0x0E, entity_id=Janshura-Rashura (ID: 17760269/0x010F000D), tag_num=0x61)
 56: 0x03E5 [0x01] GOTO 0x0497
 57: 0x03E8 [0x02] IF !(Work_Zone[0] == 17*) GOTO 0x0401
 58: 0x03F0 [0x29] REQ_SET_WAIT(priority=0x0E, entity_id=Janshura-Rashura (ID: 17760269/0x010F000D), tag_num=0x25)
 59: 0x03F7 [0x29] REQ_SET_WAIT(priority=0x0E, entity_id=Janshura-Rashura (ID: 17760269/0x010F000D), tag_num=0x63)
 60: 0x03FE [0x01] GOTO 0x0497
 61: 0x0401 [0x02] IF !(Work_Zone[0] == 18*) GOTO 0x041A
 62: 0x0409 [0x29] REQ_SET_WAIT(priority=0x0E, entity_id=Janshura-Rashura (ID: 17760269/0x010F000D), tag_num=0x25)
 63: 0x0410 [0x29] REQ_SET_WAIT(priority=0x0E, entity_id=Janshura-Rashura (ID: 17760269/0x010F000D), tag_num=0x65)
 64: 0x0417 [0x01] GOTO 0x0497
 65: 0x041A [0x02] IF !(Work_Zone[0] == 19*) GOTO 0x0433
 66: 0x0422 [0x29] REQ_SET_WAIT(priority=0x0E, entity_id=Janshura-Rashura (ID: 17760269/0x010F000D), tag_num=0x25)
 67: 0x0429 [0x29] REQ_SET_WAIT(priority=0x0E, entity_id=Janshura-Rashura (ID: 17760269/0x010F000D), tag_num=0x67)
 68: 0x0430 [0x01] GOTO 0x0497
 69: 0x0433 [0x02] IF !(Work_Zone[0] == 20*) GOTO 0x044C
 70: 0x043B [0x29] REQ_SET_WAIT(priority=0x0E, entity_id=Janshura-Rashura (ID: 17760269/0x010F000D), tag_num=0x25)
 71: 0x0442 [0x29] REQ_SET_WAIT(priority=0x0E, entity_id=Janshura-Rashura (ID: 17760269/0x010F000D), tag_num=0x69)
 72: 0x0449 [0x01] GOTO 0x0497
 73: 0x044C [0x02] IF !(Work_Zone[0] == 21*) GOTO 0x0465
 74: 0x0454 [0x29] REQ_SET_WAIT(priority=0x0E, entity_id=Janshura-Rashura (ID: 17760269/0x010F000D), tag_num=0x25)
 75: 0x045B [0x29] REQ_SET_WAIT(priority=0x0E, entity_id=Janshura-Rashura (ID: 17760269/0x010F000D), tag_num=0x6B)
 76: 0x0462 [0x01] GOTO 0x0497
 77: 0x0465 [0x02] IF !(Work_Zone[0] == 22*) GOTO 0x047E
 78: 0x046D [0x29] REQ_SET_WAIT(priority=0x0E, entity_id=Janshura-Rashura (ID: 17760269/0x010F000D), tag_num=0x25)
 79: 0x0474 [0x29] REQ_SET_WAIT(priority=0x0E, entity_id=Janshura-Rashura (ID: 17760269/0x010F000D), tag_num=0x6D)
 80: 0x047B [0x01] GOTO 0x0497
 81: 0x047E [0x02] IF !(Work_Zone[0] == 23*) GOTO 0x0497
 82: 0x0486 [0x29] REQ_SET_WAIT(priority=0x0E, entity_id=Janshura-Rashura (ID: 17760269/0x010F000D), tag_num=0x25)
 83: 0x048D [0x29] REQ_SET_WAIT(priority=0x0E, entity_id=Janshura-Rashura (ID: 17760269/0x010F000D), tag_num=0x6F)
 84: 0x0494 [0x01] GOTO 0x0497

SUBROUTINE_0497:
 85: 0x0497 [0x03] Work_Zone[1] = Work_Zone[0]
 86: 0x049C [0x02] IF !(Work_Zone[1] == 31*) GOTO 0x04C0
 87: 0x04A4 [0x24] CREATE_DIALOG(message_id=11173*, default_option=0*, option_flags=0*)
     "Accept this mission? [Yes./No.]"
 88: 0x04AB [0x25] WAIT_DIALOG_SELECT()
 89: 0x04AC [0x02] IF !(Work_Zone[0] == 1*) GOTO 0x04C0
 90: 0x04B4 [0x03] Work_Zone[1] = 31*
 91: 0x04B9 [0x20] SET_CLI_EVENT_UC_FLAG: Unlock player control
 92: 0x04BB [0x21] END_EVENT
 93: 0x04BC [0x00] END_REQSTACK()

SUBROUTINE_04C0:
 94: 0x04C0 [0x20] SET_CLI_EVENT_UC_FLAG: Unlock player control
 95: 0x04C2 [0x21] END_EVENT
 96: 0x04C3 [0x00] END_REQSTACK()
```

#### Data or dead code:

```
# Dead code (unreachable instructions):
     0x04BD [0x01] GOTO 0x04C0
```

### Event 65535.33

#### Metadata

| Field        | Value    |
|--------------|----------|
| Entrypoint   | 0x04C4   |
| Data Size    | 42 bytes |
| Instructions | 10       |

```
      00 01 02 03 04 05 06 07  08 09 0A 0B 0C 0D 0E 0F
      -- -- -- -- -- -- -- --  -- -- -- -- -- -- -- --
04C0:             03 01 10 00  10 02 01 10 0D 80 01 ED      ............
04D0: 04 24 20 80 05 80 05 80  25 02 00 10 0E 80 00 ED  .$ .....%.......
04E0: 04 03 01 10 0D 80 20 00  21 00 01 ED 04 00        ...... .!.....  
```

#### Opcodes

```
  0: 0x04C4 [0x03] Work_Zone[1] = Work_Zone[0]
  1: 0x04C9 [0x02] IF !(Work_Zone[1] == 31*) GOTO 0x04ED
  2: 0x04D1 [0x24] CREATE_DIALOG(message_id=11173*, default_option=0*, option_flags=0*)
     "Accept this mission? [Yes./No.]"
  3: 0x04D8 [0x25] WAIT_DIALOG_SELECT()
  4: 0x04D9 [0x02] IF !(Work_Zone[0] == 1*) GOTO 0x04ED
  5: 0x04E1 [0x03] Work_Zone[1] = 31*
  6: 0x04E6 [0x20] SET_CLI_EVENT_UC_FLAG: Unlock player control
  7: 0x04E8 [0x21] END_EVENT
  8: 0x04E9 [0x00] END_REQSTACK()

SUBROUTINE_04ED:
  9: 0x04ED [0x00] END_REQSTACK()
```

#### Data or dead code:

```
# Dead code (unreachable instructions):
     0x04EA [0x01] GOTO 0x04ED
```

### Event 83

#### Metadata

| Field        | Value     |
|--------------|-----------|
| Entrypoint   | 0x04EE    |
| Data Size    | 550 bytes |
| Instructions | 74        |

```
      00 01 02 03 04 05 06 07  08 09 0A 0B 0C 0D 0E 0F
      -- -- -- -- -- -- -- --  -- -- -- -- -- -- -- --
04E0:                                            42 46                BF
04F0: 01 45 04 80 F8 FF FF 7F  F8 FF FF 7F 66 64 6F 31  .E..........fdo1
0500: 05 80 1C 06 80 38 10 80  4E 01 F0 FF FF 7F 29 08  .....8..N.....).
0510: F0 FF FF 7F 09 4A 0E 00  0F 01 0D 00 0F 01 6F 76  .....J........ov
0520: 0E 00 0F 01 45 21 80 F0  FF FF 7F F0 FF FF 7F 73  ....E!.........s
0530: 30 30 30 05 80 29 0D F0  FF FF 7F 2B 4A 0D 00 0F  000..).....+J...
0540: 01 F0 FF FF 7F 4A 10 00  0F 01 F0 FF FF 7F 6F 76  .....J........ov
0550: 0D 00 0F 01 45 04 80 F8  FF FF 7F F8 FF FF 7F 66  ....E..........f
0560: 64 69 31 05 80 29 0B 0D  00 0F 01 2B 52 21 80 F0  di1..).....+R!..
0570: FF FF 7F F0 FF FF 7F 73  30 30 30 4E 00 F0 FF FF  .......s000N....
0580: 7F 45 21 80 F0 FF FF 7F  F0 FF FF 7F 73 30 39 34  .E!.........s094
0590: 05 80 4A 0D 00 0F 01 0E  00 0F 01 79 00 F0 FF FF  ..J........y....
05A0: 7F 0E 00 0F 01 29 0B 0E  00 0F 01 13 27 0D 0E 00  .....)......'...
05B0: 0F 01 10 1C 1C 80 52 21  80 F0 FF FF 7F F0 FF FF  ......R!........
05C0: 7F 73 30 39 34 45 21 80  F0 FF FF 7F F0 FF FF 7F  .s094E!.........
05D0: 73 30 31 36 05 80 2A 0D  0E 00 0F 01 4A 0E 00 0F  s016..*.....J...
05E0: 01 F0 FF FF 7F 6F 76 0E  00 0F 01 29 0B 0E 00 0F  .....ov....)....
05F0: 01 15 4A 0D 00 0F 01 0F  00 0F 01 52 21 80 F0 FF  ..J........R!...
0600: FF 7F F0 FF FF 7F 73 30  31 36 45 21 80 F0 FF FF  ......s016E!....
0610: 7F F0 FF FF 7F 73 30 31  38 05 80 29 0B 10 00 0F  .....s018..)....
0620: 01 05 4A 0D 00 0F 01 10  00 0F 01 29 0B 0F 00 0F  ..J........)....
0630: 01 04 7B F0 FF FF 7F 4A  0D 00 0F 01 F0 FF FF 7F  ..{....J........
0640: 1C 1C 80 29 08 0D 00 0F  01 11 29 0B 0D 00 0F 01  ...)......).....
0650: 2C 4A 0E 00 0F 01 0D 00  0F 01 6F 76 0E 00 0F 01  ,J........ov....
0660: 45 21 80 F0 FF FF 7F F0  FF FF 7F 73 30 31 37 05  E!.........s017.
0670: 80 27 08 0D 00 0F 01 12  4A 0E 00 0F 01 F0 FF FF  .'......J.......
0680: 7F 6F 76 0E 00 0F 01 29  0B 0E 00 0F 01 16 2A 08  .ov....)......*.
0690: 0D 00 0F 01 4A 0D 00 0F  01 F0 FF FF 7F 4A 0E 00  ....J........J..
06A0: 0F 01 F0 FF FF 7F 6F 76  0E 00 0F 01 52 21 80 F0  ......ov....R!..
06B0: FF FF 7F F0 FF FF 7F 73  30 31 37 45 21 80 F0 FF  .......s017E!...
06C0: FF 7F F0 FF FF 7F 73 30  38 31 05 80 29 0B 0E 00  ......s081..)...
06D0: 0F 01 17 79 00 F0 FF FF  7F 0E 00 0F 01 24 22 80  ...y.........$".
06E0: 05 80 05 80 25 02 00 10  05 80 00 F7 06 29 0D 0D  ....%........)..
06F0: 00 0F 01 29 01 09 07 02  00 10 0E 80 00 09 07 29  ...)...........)
0700: 0D 0D 00 0F 01 28 01 09  07 29 08 0D 00 0F 01 20  .....(...)..... 
0710: 20 00 21 00                                        .!.            
```

#### Opcodes

```
  0: 0x04EE [0x42] SET_CLI_EVENT_CANCEL_DATA()
  1: 0x04EF [0x46] CAMERA_CONTROL: Disable user control
  2: 0x04F1 [0x45] LOAD_SCHEDULED_TASK: Load scheduler "fdo1" with entities [EventEntity, EventEntity], work=[200*, 0*]
  3: 0x0502 [0x1C] WAIT(60* ticks)
  4: 0x0505 [0x38] SET_CLIENT_EVENT_MODE(mode=3*)
  5: 0x0508 [0x4E] SET_ENTITY_HIDE_FLAG: Hide LocalPlayer
  6: 0x050E [0x29] REQ_SET_WAIT(priority=0x08, entity_id=LocalPlayer, tag_num=0x09)
  7: 0x0515 [0x4A] Puo Rhen (ID: 17760270/0x010F000E) looks at Janshura-Rashura (ID: 17760269/0x010F000D)
  8: 0x051E [0x6F] WAIT_FRAME_DELAY: Yield until WaitTime reaches zero
  9: 0x051F [0x76] CHECK_ENTITY_RENDER_FLAGS: Wait until Puo Rhen (ID: 17760270/0x010F000E) Render.Flags0 and Render.Flags3 conditions are met
 10: 0x0524 [0x45] LOAD_SCHEDULED_TASK: Load scheduler "s000" with entities [LocalPlayer, LocalPlayer], work=[140*, 0*]
 11: 0x0535 [0x29] REQ_SET_WAIT(priority=0x0D, entity_id=LocalPlayer, tag_num=0x2B)
 12: 0x053C [0x4A] Janshura-Rashura (ID: 17760269/0x010F000D) looks at LocalPlayer
 13: 0x0545 [0x4A] Nine of Clubs (ID: 17760272/0x010F0010) looks at LocalPlayer
 14: 0x054E [0x6F] WAIT_FRAME_DELAY: Yield until WaitTime reaches zero
 15: 0x054F [0x76] CHECK_ENTITY_RENDER_FLAGS: Wait until Janshura-Rashura (ID: 17760269/0x010F000D) Render.Flags0 and Render.Flags3 conditions are met
 16: 0x0554 [0x45] LOAD_SCHEDULED_TASK: Load scheduler "fdi1" with entities [EventEntity, EventEntity], work=[200*, 0*]
 17: 0x0565 [0x29] REQ_SET_WAIT(priority=0x0B, entity_id=Janshura-Rashura (ID: 17760269/0x010F000D), tag_num=0x2B)
 18: 0x056C [0x52] END_LOAD_SCHEDULER: End scheduler "s000" with entities [LocalPlayer, LocalPlayer], work=140*
 19: 0x057B [0x4E] SET_ENTITY_HIDE_FLAG: Show LocalPlayer
 20: 0x0581 [0x45] LOAD_SCHEDULED_TASK: Load scheduler "s094" with entities [LocalPlayer, LocalPlayer], work=[140*, 0*]
 21: 0x0592 [0x4A] Janshura-Rashura (ID: 17760269/0x010F000D) looks at Puo Rhen (ID: 17760270/0x010F000E)
 22: 0x059B [0x79] LocalPlayer looks at Puo Rhen (ID: 17760270/0x010F000E) (Basic look)
 23: 0x05A5 [0x29] REQ_SET_WAIT(priority=0x0B, entity_id=Puo Rhen (ID: 17760270/0x010F000E), tag_num=0x13)
 24: 0x05AC [0x27] REQ_SET(priority=0x0D, entity_id=Puo Rhen (ID: 17760270/0x010F000E), tag_num=0x10)
 25: 0x05B3 [0x1C] WAIT(20* ticks)
 26: 0x05B6 [0x52] END_LOAD_SCHEDULER: End scheduler "s094" with entities [LocalPlayer, LocalPlayer], work=140*
 27: 0x05C5 [0x45] LOAD_SCHEDULED_TASK: Load scheduler "s016" with entities [LocalPlayer, LocalPlayer], work=[140*, 0*]
 28: 0x05D6 [0x2A] GET_REQ_LEVEL(level=13, entity_id=Puo Rhen (ID: 17760270/0x010F000E))
 29: 0x05DC [0x4A] Puo Rhen (ID: 17760270/0x010F000E) looks at LocalPlayer
 30: 0x05E5 [0x6F] WAIT_FRAME_DELAY: Yield until WaitTime reaches zero
 31: 0x05E6 [0x76] CHECK_ENTITY_RENDER_FLAGS: Wait until Puo Rhen (ID: 17760270/0x010F000E) Render.Flags0 and Render.Flags3 conditions are met
 32: 0x05EB [0x29] REQ_SET_WAIT(priority=0x0B, entity_id=Puo Rhen (ID: 17760270/0x010F000E), tag_num=0x15)
 33: 0x05F2 [0x4A] Janshura-Rashura (ID: 17760269/0x010F000D) looks at Ten of Clubs (ID: 17760271/0x010F000F)
 34: 0x05FB [0x52] END_LOAD_SCHEDULER: End scheduler "s016" with entities [LocalPlayer, LocalPlayer], work=140*
 35: 0x060A [0x45] LOAD_SCHEDULED_TASK: Load scheduler "s018" with entities [LocalPlayer, LocalPlayer], work=[140*, 0*]
 36: 0x061B [0x29] REQ_SET_WAIT(priority=0x0B, entity_id=Nine of Clubs (ID: 17760272/0x010F0010), tag_num=0x05)
 37: 0x0622 [0x4A] Janshura-Rashura (ID: 17760269/0x010F000D) looks at Nine of Clubs (ID: 17760272/0x010F0010)
 38: 0x062B [0x29] REQ_SET_WAIT(priority=0x0B, entity_id=Ten of Clubs (ID: 17760271/0x010F000F), tag_num=0x04)
 39: 0x0632 [0x7B] LocalPlayer stops talking
 40: 0x0637 [0x4A] Janshura-Rashura (ID: 17760269/0x010F000D) looks at LocalPlayer
 41: 0x0640 [0x1C] WAIT(20* ticks)
 42: 0x0643 [0x29] REQ_SET_WAIT(priority=0x08, entity_id=Janshura-Rashura (ID: 17760269/0x010F000D), tag_num=0x11)
 43: 0x064A [0x29] REQ_SET_WAIT(priority=0x0B, entity_id=Janshura-Rashura (ID: 17760269/0x010F000D), tag_num=0x2C)
 44: 0x0651 [0x4A] Puo Rhen (ID: 17760270/0x010F000E) looks at Janshura-Rashura (ID: 17760269/0x010F000D)
 45: 0x065A [0x6F] WAIT_FRAME_DELAY: Yield until WaitTime reaches zero
 46: 0x065B [0x76] CHECK_ENTITY_RENDER_FLAGS: Wait until Puo Rhen (ID: 17760270/0x010F000E) Render.Flags0 and Render.Flags3 conditions are met
 47: 0x0660 [0x45] LOAD_SCHEDULED_TASK: Load scheduler "s017" with entities [LocalPlayer, LocalPlayer], work=[140*, 0*]
 48: 0x0671 [0x27] REQ_SET(priority=0x08, entity_id=Janshura-Rashura (ID: 17760269/0x010F000D), tag_num=0x12)
 49: 0x0678 [0x4A] Puo Rhen (ID: 17760270/0x010F000E) looks at LocalPlayer
 50: 0x0681 [0x6F] WAIT_FRAME_DELAY: Yield until WaitTime reaches zero
 51: 0x0682 [0x76] CHECK_ENTITY_RENDER_FLAGS: Wait until Puo Rhen (ID: 17760270/0x010F000E) Render.Flags0 and Render.Flags3 conditions are met
 52: 0x0687 [0x29] REQ_SET_WAIT(priority=0x0B, entity_id=Puo Rhen (ID: 17760270/0x010F000E), tag_num=0x16)
 53: 0x068E [0x2A] GET_REQ_LEVEL(level=8, entity_id=Janshura-Rashura (ID: 17760269/0x010F000D))
 54: 0x0694 [0x4A] Janshura-Rashura (ID: 17760269/0x010F000D) looks at LocalPlayer
 55: 0x069D [0x4A] Puo Rhen (ID: 17760270/0x010F000E) looks at LocalPlayer
 56: 0x06A6 [0x6F] WAIT_FRAME_DELAY: Yield until WaitTime reaches zero
 57: 0x06A7 [0x76] CHECK_ENTITY_RENDER_FLAGS: Wait until Puo Rhen (ID: 17760270/0x010F000E) Render.Flags0 and Render.Flags3 conditions are met
 58: 0x06AC [0x52] END_LOAD_SCHEDULER: End scheduler "s017" with entities [LocalPlayer, LocalPlayer], work=140*
 59: 0x06BB [0x45] LOAD_SCHEDULED_TASK: Load scheduler "s081" with entities [LocalPlayer, LocalPlayer], work=[140*, 0*]
 60: 0x06CC [0x29] REQ_SET_WAIT(priority=0x0B, entity_id=Puo Rhen (ID: 17760270/0x010F000E), tag_num=0x17)
 61: 0x06D3 [0x79] LocalPlayer looks at Puo Rhen (ID: 17760270/0x010F000E) (Basic look)
 62: 0x06DD [0x24] CREATE_DIALOG(message_id=3331*, default_option=0*, option_flags=0*)
     "Do you know...? [Nope. Don't know./Yep. Sure I know.]"
 63: 0x06E4 [0x25] WAIT_DIALOG_SELECT()
 64: 0x06E5 [0x02] IF !(Work_Zone[0] == 0*) GOTO 0x06F7
 65: 0x06ED [0x29] REQ_SET_WAIT(priority=0x0D, entity_id=Janshura-Rashura (ID: 17760269/0x010F000D), tag_num=0x29)
 66: 0x06F4 [0x01] GOTO 0x0709
 67: 0x06F7 [0x02] IF !(Work_Zone[0] == 1*) GOTO 0x0709
 68: 0x06FF [0x29] REQ_SET_WAIT(priority=0x0D, entity_id=Janshura-Rashura (ID: 17760269/0x010F000D), tag_num=0x28)
 69: 0x0706 [0x01] GOTO 0x0709

SUBROUTINE_0709:
 70: 0x0709 [0x29] REQ_SET_WAIT(priority=0x08, entity_id=Janshura-Rashura (ID: 17760269/0x010F000D), tag_num=0x20)
 71: 0x0710 [0x20] SET_CLI_EVENT_UC_FLAG: Unlock player control
 72: 0x0712 [0x21] END_EVENT
 73: 0x0713 [0x00] END_REQSTACK()
```

### Event 82

#### Metadata

| Field        | Value   |
|--------------|---------|
| Entrypoint   | 0x0714  |
| Data Size    | 1 bytes |
| Instructions | 1       |

```
      00 01 02 03 04 05 06 07  08 09 0A 0B 0C 0D 0E 0F
      -- -- -- -- -- -- -- --  -- -- -- -- -- -- -- --
0710:             00                                        .           
```

#### Opcodes

```
  0: 0x0714 [0x00] END_REQSTACK()
```

### Event 65535.34

#### Metadata

| Field        | Value     |
|--------------|-----------|
| Entrypoint   | 0x0715    |
| Data Size    | 144 bytes |
| Instructions | 22        |

```
      00 01 02 03 04 05 06 07  08 09 0A 0B 0C 0D 0E 0F
      -- -- -- -- -- -- -- --  -- -- -- -- -- -- -- --
0710:                45 21 80  F0 FF FF 7F F0 FF FF 7F       E!.........
0720: 73 30 31 38 05 80 4A 0D  00 0F 01 F0 FF FF 7F 29  s018..J........)
0730: 0B 0D 00 0F 01 2D 7B F0  FF FF 7F 4A F0 FF FF 7F  .....-{....J....
0740: 0D 00 0F 01 24 23 80 05  80 05 80 25 02 00 10 05  ....$#.....%....
0750: 80 00 63 07 03 01 10 0E  80 29 0B 0D 00 0F 01 2A  ..c......).....*
0760: 01 A4 07 02 00 10 0E 80  00 A4 07 03 01 10 0D 80  ................
0770: 45 21 80 F0 FF FF 7F F0  FF FF 7F 73 30 32 31 05  E!.........s021.
0780: 80 29 0B 0D 00 0F 01 33  1C 1C 80 4A 0E 00 0F 01  .).....3...J....
0790: F0 FF FF 7F 6F 76 0E 00  0F 01 29 0B 0E 00 0F 01  ....ov....).....
07A0: 18 01 A4 07 00                                    .....           
```

#### Opcodes

```
  0: 0x0715 [0x45] LOAD_SCHEDULED_TASK: Load scheduler "s018" with entities [LocalPlayer, LocalPlayer], work=[140*, 0*]
  1: 0x0726 [0x4A] Janshura-Rashura (ID: 17760269/0x010F000D) looks at LocalPlayer
  2: 0x072F [0x29] REQ_SET_WAIT(priority=0x0B, entity_id=Janshura-Rashura (ID: 17760269/0x010F000D), tag_num=0x2D)
  3: 0x0736 [0x7B] LocalPlayer stops talking
  4: 0x073B [0x4A] LocalPlayer looks at Janshura-Rashura (ID: 17760269/0x010F000D)
  5: 0x0744 [0x24] CREATE_DIALOG(message_id=3344*, default_option=0*, option_flags=0*)
     "Accept a mission? [Accept./Decline.]"
  6: 0x074B [0x25] WAIT_DIALOG_SELECT()
  7: 0x074C [0x02] IF !(Work_Zone[0] == 0*) GOTO 0x0763
  8: 0x0754 [0x03] Work_Zone[1] = 1*
  9: 0x0759 [0x29] REQ_SET_WAIT(priority=0x0B, entity_id=Janshura-Rashura (ID: 17760269/0x010F000D), tag_num=0x2A)
 10: 0x0760 [0x01] GOTO 0x07A4
 11: 0x0763 [0x02] IF !(Work_Zone[0] == 1*) GOTO 0x07A4
 12: 0x076B [0x03] Work_Zone[1] = 31*
 13: 0x0770 [0x45] LOAD_SCHEDULED_TASK: Load scheduler "s021" with entities [LocalPlayer, LocalPlayer], work=[140*, 0*]
 14: 0x0781 [0x29] REQ_SET_WAIT(priority=0x0B, entity_id=Janshura-Rashura (ID: 17760269/0x010F000D), tag_num=0x33)
 15: 0x0788 [0x1C] WAIT(20* ticks)
 16: 0x078B [0x4A] Puo Rhen (ID: 17760270/0x010F000E) looks at LocalPlayer
 17: 0x0794 [0x6F] WAIT_FRAME_DELAY: Yield until WaitTime reaches zero
 18: 0x0795 [0x76] CHECK_ENTITY_RENDER_FLAGS: Wait until Puo Rhen (ID: 17760270/0x010F000E) Render.Flags0 and Render.Flags3 conditions are met
 19: 0x079A [0x29] REQ_SET_WAIT(priority=0x0B, entity_id=Puo Rhen (ID: 17760270/0x010F000E), tag_num=0x18)
 20: 0x07A1 [0x01] GOTO 0x07A4

SUBROUTINE_07A4:
 21: 0x07A4 [0x00] END_REQSTACK()
```

### Event 84

#### Metadata

| Field        | Value     |
|--------------|-----------|
| Entrypoint   | 0x07A5    |
| Data Size    | 278 bytes |
| Instructions | 34        |

```
      00 01 02 03 04 05 06 07  08 09 0A 0B 0C 0D 0E 0F
      -- -- -- -- -- -- -- --  -- -- -- -- -- -- -- --
07A0:                45 21 80  F0 FF FF 7F F0 FF FF 7F       E!.........
07B0: 73 30 32 30 05 80 4A 0D  00 0F 01 F0 FF FF 7F 29  s020..J........)
07C0: 0A 0D 00 0F 01 2E 7B F0  FF FF 7F 4A F0 FF FF 7F  ......{....J....
07D0: 0D 00 0F 01 1C 13 80 45  21 80 F0 FF FF 7F F0 FF  .......E!.......
07E0: FF 7F 73 30 38 33 05 80  29 0A 0D 00 0F 01 2F 29  ..s083..)...../)
07F0: 0A 0D 00 0F 01 30 52 21  80 F0 FF FF 7F F0 FF FF  .....0R!........
0800: 7F 73 30 38 33 45 21 80  F0 FF FF 7F F0 FF FF 7F  .s083E!.........
0810: 73 30 31 39 05 80 29 0A  10 00 0F 01 06 29 0A 0F  s019..)......)..
0820: 00 0F 01 05 45 21 80 F0  FF FF 7F F0 FF FF 7F 73  ....E!.........s
0830: 30 32 30 05 80 29 0A 0D  00 0F 01 31 45 21 80 F0  020..).....1E!..
0840: FF FF 7F F0 FF FF 7F 73  30 38 32 05 80 29 0A 0D  .......s082..)..
0850: 00 0F 01 32 24 23 80 05  80 05 80 25 02 00 10 05  ...2$#.....%....
0860: 80 00 73 08 03 01 10 0E  80 29 09 0D 00 0F 01 2A  ..s......).....*
0870: 01 BA 08 02 00 10 0E 80  00 BA 08 03 01 10 0D 80  ................
0880: 29 09 0D 00 0F 01 33 45  21 80 F0 FF FF 7F F0 FF  ).....3E!.......
0890: FF 7F 73 30 32 31 05 80  4A 0E 00 0F 01 F0 FF FF  ..s021..J.......
08A0: 7F 6F 76 0E 00 0F 01 29  09 0E 00 0F 01 18 4A F0  .ov....)......J.
08B0: FF FF 7F 0E 00 0F 01 01  BA 08 00                 ...........     
```

#### Opcodes

```
  0: 0x07A5 [0x45] LOAD_SCHEDULED_TASK: Load scheduler "s020" with entities [LocalPlayer, LocalPlayer], work=[140*, 0*]
  1: 0x07B6 [0x4A] Janshura-Rashura (ID: 17760269/0x010F000D) looks at LocalPlayer
  2: 0x07BF [0x29] REQ_SET_WAIT(priority=0x0A, entity_id=Janshura-Rashura (ID: 17760269/0x010F000D), tag_num=0x2E)
  3: 0x07C6 [0x7B] LocalPlayer stops talking
  4: 0x07CB [0x4A] LocalPlayer looks at Janshura-Rashura (ID: 17760269/0x010F000D)
  5: 0x07D4 [0x1C] WAIT(10* ticks)
  6: 0x07D7 [0x45] LOAD_SCHEDULED_TASK: Load scheduler "s083" with entities [LocalPlayer, LocalPlayer], work=[140*, 0*]
  7: 0x07E8 [0x29] REQ_SET_WAIT(priority=0x0A, entity_id=Janshura-Rashura (ID: 17760269/0x010F000D), tag_num=0x2F)
  8: 0x07EF [0x29] REQ_SET_WAIT(priority=0x0A, entity_id=Janshura-Rashura (ID: 17760269/0x010F000D), tag_num=0x30)
  9: 0x07F6 [0x52] END_LOAD_SCHEDULER: End scheduler "s083" with entities [LocalPlayer, LocalPlayer], work=140*
 10: 0x0805 [0x45] LOAD_SCHEDULED_TASK: Load scheduler "s019" with entities [LocalPlayer, LocalPlayer], work=[140*, 0*]
 11: 0x0816 [0x29] REQ_SET_WAIT(priority=0x0A, entity_id=Nine of Clubs (ID: 17760272/0x010F0010), tag_num=0x06)
 12: 0x081D [0x29] REQ_SET_WAIT(priority=0x0A, entity_id=Ten of Clubs (ID: 17760271/0x010F000F), tag_num=0x05)
 13: 0x0824 [0x45] LOAD_SCHEDULED_TASK: Load scheduler "s020" with entities [LocalPlayer, LocalPlayer], work=[140*, 0*]
 14: 0x0835 [0x29] REQ_SET_WAIT(priority=0x0A, entity_id=Janshura-Rashura (ID: 17760269/0x010F000D), tag_num=0x31)
 15: 0x083C [0x45] LOAD_SCHEDULED_TASK: Load scheduler "s082" with entities [LocalPlayer, LocalPlayer], work=[140*, 0*]
 16: 0x084D [0x29] REQ_SET_WAIT(priority=0x0A, entity_id=Janshura-Rashura (ID: 17760269/0x010F000D), tag_num=0x32)
 17: 0x0854 [0x24] CREATE_DIALOG(message_id=3344*, default_option=0*, option_flags=0*)
     "Accept a mission? [Accept./Decline.]"
 18: 0x085B [0x25] WAIT_DIALOG_SELECT()
 19: 0x085C [0x02] IF !(Work_Zone[0] == 0*) GOTO 0x0873
 20: 0x0864 [0x03] Work_Zone[1] = 1*
 21: 0x0869 [0x29] REQ_SET_WAIT(priority=0x09, entity_id=Janshura-Rashura (ID: 17760269/0x010F000D), tag_num=0x2A)
 22: 0x0870 [0x01] GOTO 0x08BA
 23: 0x0873 [0x02] IF !(Work_Zone[0] == 1*) GOTO 0x08BA
 24: 0x087B [0x03] Work_Zone[1] = 31*
 25: 0x0880 [0x29] REQ_SET_WAIT(priority=0x09, entity_id=Janshura-Rashura (ID: 17760269/0x010F000D), tag_num=0x33)
 26: 0x0887 [0x45] LOAD_SCHEDULED_TASK: Load scheduler "s021" with entities [LocalPlayer, LocalPlayer], work=[140*, 0*]
 27: 0x0898 [0x4A] Puo Rhen (ID: 17760270/0x010F000E) looks at LocalPlayer
 28: 0x08A1 [0x6F] WAIT_FRAME_DELAY: Yield until WaitTime reaches zero
 29: 0x08A2 [0x76] CHECK_ENTITY_RENDER_FLAGS: Wait until Puo Rhen (ID: 17760270/0x010F000E) Render.Flags0 and Render.Flags3 conditions are met
 30: 0x08A7 [0x29] REQ_SET_WAIT(priority=0x09, entity_id=Puo Rhen (ID: 17760270/0x010F000E), tag_num=0x18)
 31: 0x08AE [0x4A] LocalPlayer looks at Puo Rhen (ID: 17760270/0x010F000E)
 32: 0x08B7 [0x01] GOTO 0x08BA

SUBROUTINE_08BA:
 33: 0x08BA [0x00] END_REQSTACK()
```

### Event 85

#### Metadata

| Field        | Value     |
|--------------|-----------|
| Entrypoint   | 0x08BB    |
| Data Size    | 181 bytes |
| Instructions | 27        |

```
      00 01 02 03 04 05 06 07  08 09 0A 0B 0C 0D 0E 0F
      -- -- -- -- -- -- -- --  -- -- -- -- -- -- -- --
08B0:                                   45 21 80 F0 FF             E!...
08C0: FF 7F F0 FF FF 7F 73 30  31 37 05 80 4A 0D 00 0F  ......s017..J...
08D0: 01 F0 FF FF 7F 29 08 0D  00 0F 01 13 2B 0D 00 0F  .....)......+...
08E0: 01 24 80 23 29 08 0D 00  0F 01 14 45 21 80 F0 FF  .$.#)......E!...
08F0: FF 7F F0 FF FF 7F 73 30  32 31 05 80 4A 0E 00 0F  ......s021..J...
0900: 01 F0 FF FF 7F 6F 76 0E  00 0F 01 29 08 0E 00 0F  .....ov....)....
0910: 01 09 2B 0E 00 0F 01 25  80 23 29 08 0E 00 0F 01  ..+....%.#).....
0920: 0A 4A F0 FF FF 7F 0E 00  0F 01 29 08 0E 00 0F 01  .J........).....
0930: 01 2B 0E 00 0F 01 26 80  23 29 08 0E 00 0F 01 03  .+....&.#)......
0940: 45 21 80 F0 FF FF 7F F0  FF FF 7F 73 30 38 32 05  E!.........s082.
0950: 80 29 08 0D 00 0F 01 01  2B 0D 00 0F 01 27 80 23  .)......+....'.#
0960: 2B 0D 00 0F 01 28 80 23  29 08 0D 00 0F 01 02 00  +....(.#).......
```

#### Opcodes

```
  0: 0x08BB [0x45] LOAD_SCHEDULED_TASK: Load scheduler "s017" with entities [LocalPlayer, LocalPlayer], work=[140*, 0*]
  1: 0x08CC [0x4A] Janshura-Rashura (ID: 17760269/0x010F000D) looks at LocalPlayer
  2: 0x08D5 [0x29] REQ_SET_WAIT(priority=0x08, entity_id=Janshura-Rashura (ID: 17760269/0x010F000D), tag_num=0x13)
  3: 0x08DC [0x2B] Janshura-Rashura (ID: 17760269/0x010F000D) [3347*]:
     "Oh, goody-woody! Way to go! Welcome to the "Best of the West"!"
  4: 0x08E3 [0x23] WAIT_FOR_DIALOG_INTERACTION
  5: 0x08E4 [0x29] REQ_SET_WAIT(priority=0x08, entity_id=Janshura-Rashura (ID: 17760269/0x010F000D), tag_num=0x14)
  6: 0x08EB [0x45] LOAD_SCHEDULED_TASK: Load scheduler "s021" with entities [LocalPlayer, LocalPlayer], work=[140*, 0*]
  7: 0x08FC [0x4A] Puo Rhen (ID: 17760270/0x010F000E) looks at LocalPlayer
  8: 0x0905 [0x6F] WAIT_FRAME_DELAY: Yield until WaitTime reaches zero
  9: 0x0906 [0x76] CHECK_ENTITY_RENDER_FLAGS: Wait until Puo Rhen (ID: 17760270/0x010F000E) Render.Flags0 and Render.Flags3 conditions are met
 10: 0x090B [0x29] REQ_SET_WAIT(priority=0x08, entity_id=Puo Rhen (ID: 17760270/0x010F000E), tag_num=0x09)
 11: 0x0912 [0x2B] Puo Rhen (ID: 17760270/0x010F000E) [3348*]:
     "<sigh> Looks like our captain is too overrr the moon to make sense right now, so let me explain instead."
 12: 0x0919 [0x23] WAIT_FOR_DIALOG_INTERACTION
 13: 0x091A [0x29] REQ_SET_WAIT(priority=0x08, entity_id=Puo Rhen (ID: 17760270/0x010F000E), tag_num=0x0A)
 14: 0x0921 [0x4A] LocalPlayer looks at Puo Rhen (ID: 17760270/0x010F000E)
 15: 0x092A [0x29] REQ_SET_WAIT(priority=0x08, entity_id=Puo Rhen (ID: 17760270/0x010F000E), tag_num=0x01)
 16: 0x0931 [0x2B] Puo Rhen (ID: 17760270/0x010F000E) [3349*]:
     "You know the Horrrutoto Ruins out in Sarutabaruta, don't you? Well, the Orastery is about to conduct an experrriment there and they are requesting help."
 17: 0x0938 [0x23] WAIT_FOR_DIALOG_INTERACTION
 18: 0x0939 [0x29] REQ_SET_WAIT(priority=0x08, entity_id=Puo Rhen (ID: 17760270/0x010F000E), tag_num=0x03)
 19: 0x0940 [0x45] LOAD_SCHEDULED_TASK: Load scheduler "s082" with entities [LocalPlayer, LocalPlayer], work=[140*, 0*]
 20: 0x0951 [0x29] REQ_SET_WAIT(priority=0x08, entity_id=Janshura-Rashura (ID: 17760269/0x010F000D), tag_num=0x01)
 21: 0x0958 [0x2B] Janshura-Rashura (ID: 17760269/0x010F000D) [3350*]:
     "So skedaddle-waddle on over to the Orastery and ask their minister for the details."
 22: 0x095F [0x23] WAIT_FOR_DIALOG_INTERACTION
 23: 0x0960 [0x2B] Janshura-Rashura (ID: 17760269/0x010F000D) [3351*]:
     "Do a good job so as not to shame the name of the "Best of the West"! Good luck!"
 24: 0x0967 [0x23] WAIT_FOR_DIALOG_INTERACTION
 25: 0x0968 [0x29] REQ_SET_WAIT(priority=0x08, entity_id=Janshura-Rashura (ID: 17760269/0x010F000D), tag_num=0x02)
 26: 0x096F [0x00] END_REQSTACK()
```

### Event 65535.35

#### Metadata

| Field        | Value    |
|--------------|----------|
| Entrypoint   | 0x0970   |
| Data Size    | 37 bytes |
| Instructions | 9        |

```
      00 01 02 03 04 05 06 07  08 09 0A 0B 0C 0D 0E 0F
      -- -- -- -- -- -- -- --  -- -- -- -- -- -- -- --
0970: 29 08 0D 00 0F 01 07 1D  29 80 23 29 08 0D 00 0F  ).......).#)....
0980: 01 08 29 08 0D 00 0F 01  01 1D 2A 80 23 29 08 0D  ..).......*.#)..
0990: 00 0F 01 02 00                                    .....           
```

#### Opcodes

```
  0: 0x0970 [0x29] REQ_SET_WAIT(priority=0x08, entity_id=Janshura-Rashura (ID: 17760269/0x010F000D), tag_num=0x07)
  1: 0x0977 [0x1D] PRINT_EVENT_MESSAGE(message_id=3318*)
     "Goody-woody! Ahem... Nice to see you stopped by. Here's a heartfelt welcome from Windurst's "Best of the West" guard platoon!"
  2: 0x097A [0x23] WAIT_FOR_DIALOG_INTERACTION
  3: 0x097B [0x29] REQ_SET_WAIT(priority=0x08, entity_id=Janshura-Rashura (ID: 17760269/0x010F000D), tag_num=0x08)
  4: 0x0982 [0x29] REQ_SET_WAIT(priority=0x08, entity_id=Janshura-Rashura (ID: 17760269/0x010F000D), tag_num=0x01)
  5: 0x0989 [0x1D] PRINT_EVENT_MESSAGE(message_id=3319*)
     "I know, I know, it's such a cool name! If you ever make the grade, you could also work here at the western gatehouse and join the "Best of the West" guards too."
  6: 0x098C [0x23] WAIT_FOR_DIALOG_INTERACTION
  7: 0x098D [0x29] REQ_SET_WAIT(priority=0x08, entity_id=Janshura-Rashura (ID: 17760269/0x010F000D), tag_num=0x02)
  8: 0x0994 [0x00] END_REQSTACK()
```

### Event 65535.36

#### Metadata

| Field        | Value   |
|--------------|---------|
| Entrypoint   | 0x0995  |
| Data Size    | 5 bytes |
| Instructions | 3       |

```
      00 01 02 03 04 05 06 07  08 09 0A 0B 0C 0D 0E 0F
      -- -- -- -- -- -- -- --  -- -- -- -- -- -- -- --
0990:                1D 2B 80  23 00                         .+.#.      
```

#### Opcodes

```
  0: 0x0995 [0x1D] PRINT_EVENT_MESSAGE(message_id=3327*)
     "Oh, why don't you all just shut uppy-wuppy! You're discouraging newbie-woobies like our friend here from working hard for the sake of Windurst!"
  1: 0x0998 [0x23] WAIT_FOR_DIALOG_INTERACTION
  2: 0x0999 [0x00] END_REQSTACK()
```

### Event 65535.37

#### Metadata

| Field        | Value    |
|--------------|----------|
| Entrypoint   | 0x099A   |
| Data Size    | 37 bytes |
| Instructions | 9        |

```
      00 01 02 03 04 05 06 07  08 09 0A 0B 0C 0D 0E 0F
      -- -- -- -- -- -- -- --  -- -- -- -- -- -- -- --
0990:                                29 08 0D 00 0F 01            ).....
09A0: 07 1D 2C 80 23 29 08 0D  00 0F 01 08 29 08 0D 00  ..,.#)......)...
09B0: 0F 01 09 1D 2D 80 23 29  08 0D 00 0F 01 0A 00     ....-.#)....... 
```

#### Opcodes

```
  0: 0x099A [0x29] REQ_SET_WAIT(priority=0x08, entity_id=Janshura-Rashura (ID: 17760269/0x010F000D), tag_num=0x07)
  1: 0x09A1 [0x1D] PRINT_EVENT_MESSAGE(message_id=3332*)
     "See... [He/She] was a new recruit who came to get [his/her] first mission all along!"
  2: 0x09A4 [0x23] WAIT_FOR_DIALOG_INTERACTION
  3: 0x09A5 [0x29] REQ_SET_WAIT(priority=0x08, entity_id=Janshura-Rashura (ID: 17760269/0x010F000D), tag_num=0x08)
  4: 0x09AC [0x29] REQ_SET_WAIT(priority=0x08, entity_id=Janshura-Rashura (ID: 17760269/0x010F000D), tag_num=0x09)
  5: 0x09B3 [0x1D] PRINT_EVENT_MESSAGE(message_id=3333*)
     "You're a citizen of Windurst, so there's nothing holding you back! Let's go get you your first mission..."
  6: 0x09B6 [0x23] WAIT_FOR_DIALOG_INTERACTION
  7: 0x09B7 [0x29] REQ_SET_WAIT(priority=0x08, entity_id=Janshura-Rashura (ID: 17760269/0x010F000D), tag_num=0x0A)
  8: 0x09BE [0x00] END_REQSTACK()
```

### Event 65535.38

#### Metadata

| Field        | Value    |
|--------------|----------|
| Entrypoint   | 0x09BF   |
| Data Size    | 12 bytes |
| Instructions | 4        |

```
      00 01 02 03 04 05 06 07  08 09 0A 0B 0C 0D 0E 0F
      -- -- -- -- -- -- -- --  -- -- -- -- -- -- -- --
09B0:                                               29                 )
09C0: 08 0D 00 0F 01 03 1D 2E  80 23 00                 .........#.     
```

#### Opcodes

```
  0: 0x09BF [0x29] REQ_SET_WAIT(priority=0x08, entity_id=Janshura-Rashura (ID: 17760269/0x010F000D), tag_num=0x03)
  1: 0x09C6 [0x1D] PRINT_EVENT_MESSAGE(message_id=3334*)
     "Oh, then this is terrible-werrible. Her-hrmm... Allow me to explain...that is, if none of you have any complaints..."
  2: 0x09C9 [0x23] WAIT_FOR_DIALOG_INTERACTION
  3: 0x09CA [0x00] END_REQSTACK()
```

### Event 65535.39

#### Metadata

| Field        | Value    |
|--------------|----------|
| Entrypoint   | 0x09CB   |
| Data Size    | 26 bytes |
| Instructions | 6        |

```
      00 01 02 03 04 05 06 07  08 09 0A 0B 0C 0D 0E 0F
      -- -- -- -- -- -- -- --  -- -- -- -- -- -- -- --
09C0:                                   29 08 0D 00 0F             )....
09D0: 01 04 1D 2F 80 23 29 08  0D 00 0F 01 05 29 08 0D  .../.#)......)..
