# 17760340 - Gomada-Vulmada

## Common Data

| Field            | Value                   |
|------------------|-------------------------|
| Zone             | Port Windurst (ID: 240) |
| Block Size       | 2616 bytes              |
| Total Events     | 105                     |
| References Count | 129                     |

## List of Events

| Event ID                   | Entrypoint   |   Size |   Instructions |
|----------------------------|--------------|--------|----------------|
| [65535](#event-65535)      | 0x0000       |      1 |              1 |
| [65535.1](#event-655351)   | 0x0001       |     16 |              2 |
| [65535.2](#event-655352)   | 0x0011       |     24 |              4 |
| [65535.3](#event-655353)   | 0x0029       |     16 |              2 |
| [65535.4](#event-655354)   | 0x0039       |     22 |              4 |
| [65535.5](#event-655355)   | 0x004F       |     22 |              3 |
| [65535.6](#event-655356)   | 0x0065       |     20 |              3 |
| [65535.7](#event-655357)   | 0x0079       |     22 |              3 |
| [65535.8](#event-655358)   | 0x008F       |     20 |              3 |
| [65535.9](#event-655359)   | 0x00A3       |     16 |              2 |
| [65535.10](#event-6553510) | 0x00B3       |     22 |              4 |
| [65535.11](#event-6553511) | 0x00C9       |     16 |              2 |
| [65535.12](#event-6553512) | 0x00D9       |     14 |              2 |
| [65535.13](#event-6553513) | 0x00E7       |     22 |              3 |
| [65535.14](#event-6553514) | 0x00FD       |     20 |              3 |
| [65535.15](#event-6553515) | 0x0111       |     41 |              5 |
| [65535.16](#event-6553516) | 0x013A       |     16 |              2 |
| [65535.17](#event-6553517) | 0x014A       |     22 |              4 |
| [65535.18](#event-6553518) | 0x0160       |     16 |              2 |
| [65535.19](#event-6553519) | 0x0170       |     14 |              2 |
| [65535.20](#event-6553520) | 0x017E       |     16 |              2 |
| [65535.21](#event-6553521) | 0x018E       |     14 |              2 |
| [65535.22](#event-6553522) | 0x019C       |      9 |              3 |
| [65535.23](#event-6553523) | 0x01A5       |     56 |              6 |
| [65535.24](#event-6553524) | 0x01DD       |     22 |              4 |
| [363](#event-363)          | 0x01F3       |     29 |             10 |
| [368](#event-368)          | 0x0210       |      1 |              1 |
| [65535.25](#event-6553525) | 0x0211       |     10 |              2 |
| [65535.26](#event-6553526) | 0x021B       |      5 |              3 |
| [65535.27](#event-6553527) | 0x0220       |     19 |              5 |
| [65535.28](#event-6553528) | 0x0233       |     19 |              5 |
| [65535.29](#event-6553529) | 0x0246       |     19 |              5 |
| [373](#event-373)          | 0x0259       |     33 |             12 |
| [378](#event-378)          | 0x027A       |      1 |              1 |
| [65535.30](#event-6553530) | 0x027B       |     10 |              2 |
| [381](#event-381)          | 0x0285       |     33 |             12 |
| [391](#event-391)          | 0x02A6       |      1 |              1 |
| [386](#event-386)          | 0x02A7       |      1 |              1 |
| [390](#event-390)          | 0x02A8       |      1 |              1 |
| [394](#event-394)          | 0x02A9       |     33 |             12 |
| [65535.31](#event-6553531) | 0x02CA       |     19 |              5 |
| [65535.32](#event-6553532) | 0x02DD       |     19 |              5 |
| [400](#event-400)          | 0x02F0       |      1 |              1 |
| [65535.33](#event-6553533) | 0x02F1       |     15 |              5 |
| [404](#event-404)          | 0x0300       |     29 |             10 |
| [405](#event-405)          | 0x031D       |     29 |             10 |
| [413](#event-413)          | 0x033A       |      1 |              1 |
| [417](#event-417)          | 0x033B       |     33 |             12 |
| [421](#event-421)          | 0x035C       |      1 |              1 |
| [65535.34](#event-6553534) | 0x035D       |     19 |              5 |
| [425](#event-425)          | 0x0370       |     33 |             12 |
| [430](#event-430)          | 0x0391       |      1 |              1 |
| [432](#event-432)          | 0x0392       |      1 |              1 |
| [433](#event-433)          | 0x0393       |      1 |              1 |
| [435](#event-435)          | 0x0394       |     29 |             10 |
| [442](#event-442)          | 0x03B1       |     33 |             12 |
| [323](#event-323)          | 0x03D2       |      1 |              1 |
| [65535.35](#event-6553535) | 0x03D3       |     10 |              2 |
| [65535.36](#event-6553536) | 0x03DD       |     43 |              9 |
| [65535.37](#event-6553537) | 0x0408       |     10 |              2 |
| [65535.38](#event-6553538) | 0x0412       |     15 |              5 |
| [65535.39](#event-6553539) | 0x0421       |     10 |              2 |
| [65535.40](#event-6553540) | 0x042B       |     19 |              5 |
| [65535.41](#event-6553541) | 0x043E       |      5 |              3 |
| [324](#event-324)          | 0x0443       |      1 |              1 |
| [65535.42](#event-6553542) | 0x0444       |     10 |              2 |
| [65535.43](#event-6553543) | 0x044E       |     37 |              9 |
| [65535.44](#event-6553544) | 0x0473       |     49 |              9 |
| [65535.45](#event-6553545) | 0x04A4       |     10 |              2 |
| [65535.46](#event-6553546) | 0x04AE       |     10 |              2 |
| [65535.47](#event-6553547) | 0x04B8       |     24 |              6 |
| [65535.48](#event-6553548) | 0x04D0       |     33 |              7 |
| [65535.49](#event-6553549) | 0x04F1       |     19 |              5 |
| [65535.50](#event-6553550) | 0x0504       |     30 |              8 |
| [65535.51](#event-6553551) | 0x0522       |     17 |              6 |
| [65535.52](#event-6553552) | 0x0533       |     19 |              5 |
| [496](#event-496)          | 0x0546       |      1 |              1 |
| [65535.53](#event-6553553) | 0x0547       |      5 |              3 |
| [497](#event-497)          | 0x054C       |      1 |              1 |
| [65535.54](#event-6553554) | 0x054D       |     10 |              2 |
| [65535.55](#event-6553555) | 0x0557       |      5 |              3 |
| [500](#event-500)          | 0x055C       |     33 |             12 |
| [507](#event-507)          | 0x057D       |     47 |             14 |
| [513](#event-513)          | 0x05AC       |      1 |              1 |
| [65535.56](#event-6553556) | 0x05AD       |      5 |              3 |
| [65535.57](#event-6553557) | 0x05B2       |      5 |              3 |
| [518](#event-518)          | 0x05B7       |     47 |             14 |
| [522](#event-522)          | 0x05E6       |      1 |              1 |
| [528](#event-528)          | 0x05E7       |     47 |             14 |
| [65535.58](#event-6553558) | 0x0616       |     10 |              2 |
| [532](#event-532)          | 0x0620       |      1 |              1 |
| [534](#event-534)          | 0x0621       |      1 |              1 |
| [540](#event-540)          | 0x0622       |     29 |             10 |
| [542](#event-542)          | 0x063F       |      1 |              1 |
| [590](#event-590)          | 0x0640       |     33 |             12 |
| [584](#event-584)          | 0x0661       |      1 |              1 |
| [65535.59](#event-6553559) | 0x0662       |     10 |              2 |
| [65535.60](#event-6553560) | 0x066C       |     10 |              2 |
| [915](#event-915)          | 0x0676       |      1 |              1 |
| [916](#event-916)          | 0x0677       |      1 |              1 |
| [924](#event-924)          | 0x0678       |      1 |              1 |
| [919](#event-919)          | 0x0679       |      1 |              1 |
| [925](#event-925)          | 0x067A       |      1 |              1 |
| [928](#event-928)          | 0x067B       |      1 |              1 |
| [933](#event-933)          | 0x067C       |      1 |              1 |

## DAT References (imed_data)

|   Index | Hex Value   |   Dec Value |
|---------|-------------|-------------|
|       0 | 0x0055      |          85 |
|       1 | 0x001E      |          30 |
|       2 | 0x1042      |        4162 |
|       3 | 0xFFFFA2C2  |  4294943426 |
|       4 | 0x2ECC9     |      191689 |
|       5 | 0xFFFFE891  |  4294961297 |
|       6 | 0x0B2D      |        2861 |
|       7 | 0x104F      |        4175 |
|       8 | 0x1054      |        4180 |
|       9 | 0x105B      |        4187 |
|      10 | 0x105E      |        4190 |
|      11 | 0x106B      |        4203 |
|      12 | 0x106C      |        4204 |
|      13 | 0xFFFFA355  |  4294943573 |
|      14 | 0x2E21F     |      188959 |
|      15 | 0x09E6      |        2534 |
|      16 | 0x1082      |        4226 |
|      17 | 0x1083      |        4227 |
|      18 | 0x10B1      |        4273 |
|      19 | 0x10B2      |        4274 |
|      20 | 0x10BE      |        4286 |
|      21 | 0x10C1      |        4289 |
|      22 | 0x0015      |          21 |
|      23 | 0xFFFF9D1A  |  4294941978 |
|      24 | 0x2EECE     |      192206 |
|      25 | 0x10CC      |        4300 |
|      26 | 0x10CD      |        4301 |
|      27 | 0x10E9      |        4329 |
|      28 | 0x10EA      |        4330 |
|      29 | 0x10F3      |        4339 |
|      30 | 0x10FF      |        4351 |
|      31 | 0x1100      |        4352 |
|      32 | 0x111B      |        4379 |
|      33 | 0x1127      |        4391 |
|      34 | 0x1128      |        4392 |
|      35 | 0xFFFFA68E  |  4294944398 |
|      36 | 0x4093C     |      264508 |
|      37 | 0xFFFFB9B0  |  4294949296 |
|      38 | 0x0991      |        2449 |
|      39 | 0xFFFF88EE  |  4294936814 |
|      40 | 0x3C49F     |      246943 |
|      41 | 0xFFFFCF79  |  4294954873 |
|      42 | 0x0D54      |        3412 |
|      43 | 0xFFFF8A56  |  4294937174 |
|      44 | 0x3CCA1     |      248993 |
|      45 | 0xFFFFD007  |  4294955015 |
|      46 | 0xFFFF9EAF  |  4294942383 |
|      47 | 0x3EC51     |      257105 |
|      48 | 0xFFFFCE98  |  4294954648 |
|      49 | 0xFFFFA17D  |  4294943101 |
|      50 | 0x408E8     |      264424 |
|      51 | 0x0400      |        1024 |
|      52 | 0xFFFFB33D  |  4294947645 |
|      53 | 0x42C50     |      273488 |
|      54 | 0xFFFFBBA4  |  4294949796 |
|      55 | 0xFFFF96ED  |  4294940397 |
|      56 | 0x3F03C     |      258108 |
|      57 | 0xFFFFCDCE  |  4294954446 |
|      58 | 0x0C93      |        3219 |
|      59 | 0x0F7B      |        3963 |
|      60 | 0x0F85      |        3973 |
|      61 | 0xFFFF988E  |  4294940814 |
|      62 | 0x428BB     |      272571 |
|      63 | 0xFFFFD120  |  4294955296 |
|      64 | 0x033A      |         826 |
|      65 | 0xFFFF98DC  |  4294940892 |
|      66 | 0x40986     |      264582 |
|      67 | 0xFFFFCCBC  |  4294954172 |
|      68 | 0x0C81      |        3201 |
|      69 | 0xFFFF9906  |  4294940934 |
|      70 | 0x420B6     |      270518 |
|      71 | 0xFFFF9F79  |  4294942585 |
|      72 | 0x428BE     |      272574 |
|      73 | 0x0127      |         295 |
|      74 | 0x000A      |          10 |
|      75 | 0x0064      |         100 |
|      76 | 0xFFFF8D89  |  4294937993 |
|      77 | 0x44DD3     |      282067 |
|      78 | 0xFFFFCD38  |  4294954296 |
|      79 | 0x0C92      |        3218 |
|      80 | 0xFFFF801E  |  4294934558 |
|      81 | 0x44255     |      279125 |
|      82 | 0x0A68      |        2664 |
|      83 | 0xFFFFAC4D  |  4294945869 |
|      84 | 0x44ABD     |      281277 |
|      85 | 0xFFFFCD39  |  4294954297 |
|      86 | 0xFFFF9E1A  |  4294942234 |
|      87 | 0x44795     |      280469 |
|      88 | 0x0FB5      |        4021 |
|      89 | 0x0FB6      |        4022 |
|      90 | 0xFFFF9C7D  |  4294941821 |
|      91 | 0x3FC80     |      261248 |
|      92 | 0x03F0      |        1008 |
|      93 | 0xFFFF9E6B  |  4294942315 |
|      94 | 0x3D861     |      252001 |
|      95 | 0xFFFFD01F  |  4294955039 |
|      96 | 0x05AB      |        1451 |
|      97 | 0xFFFF67E6  |  4294928358 |
|      98 | 0x3B1FD     |      242173 |
|      99 | 0xFFFFCF2D  |  4294954797 |
|     100 | 0x0FD3      |        4051 |
|     101 | 0x3081      |       12417 |
|     102 | 0xFFFFA598  |  4294944152 |
|     103 | 0x2E2D5     |      189141 |
|     104 | 0xFFFFE890  |  4294961296 |
|     105 | 0x0CA2      |        3234 |
|     106 | 0x309C      |       12444 |
|     107 | 0x308D      |       12429 |
|     108 | 0x308E      |       12430 |
|     109 | 0x30AD      |       12461 |
|     110 | 0x30AE      |       12462 |
|     111 | 0x30C0      |       12480 |
|     112 | 0x30C1      |       12481 |
|     113 | 0x30DA      |       12506 |
|     114 | 0x30DB      |       12507 |
|     115 | 0x3105      |       12549 |
|     116 | 0x3106      |       12550 |
|     117 | 0xFFFFA394  |  4294943636 |
|     118 | 0x2E433     |      189491 |
|     119 | 0x0F5A      |        3930 |
|     120 | 0x3111      |       12561 |
|     121 | 0x31AD      |       12717 |
|     122 | 0x31AE      |       12718 |
|     123 | 0xFFFFA10E  |  4294942990 |
|     124 | 0x2E23B     |      188987 |
|     125 | 0x0934      |        2356 |
|     126 | 0xFFFFA894  |  4294944916 |
|     127 | 0x2E396     |      189334 |
|     128 | 0x0000      |           0 |

## String References

- **3963**: Oopsy-daisy!
- **3973**: Hi-ho Silver!
- **4022**: Phew...
- **4051**: But it was no ghosty-whosty, it was a Cardiany!
- **4162**: The firsty-wirsty ruley-wuley!
- **4175**: Are invincible-wincible!
- **4180**: Time to powwow! Powwow! Let's have a secret-wecret meeting!
- **4187**: (Huh? What's shellfish got to do with this?)
- **4190**: (Huh? Who's "on a beef again"?)
- **4203**: You, you, you keep away from me, you hear! Tarutaru don't have no taily-wailys!
- **4204**: I know what you're thinking-winking! You're out to stealy-wealy someone's tail!
- **4226**: I don't understand the ins-and-outs of this brigade, but it seems the tail tale got you in.
- **4227**: Anyway, welcome aboard!
- **4273**: My weapon of preference is the hammer-wammer!
- **4274**: Only real men use hammers!
- **4286**: And just when we had the Cat Burglar-wurglar in our grasp, too...
- **4289**: Cool! It's a treasure-weasure!
- **4300**: When I saw the Cat Burglar's tail waving about all to-and-fro as she ran away, my eyes began to spinny-winny. That's why she was able to get away from me!
- **4301**: We're not so good at magic-wagic yet, so I don't have a cluey-wuey how a ball like that could make a Cardian move.
- **4329**: If I had a hammer, I'd hammer in the evening, hammer in the morning, hammer everybo\`da\`y!t Who needs a lockpick when you have a hammer to bish-bash locks with?
- **4330**: Hmm...but that's just as bad as a robber? Oh well, then again, who cares about the minor points...?
- **4339**: What in hell's bells are you doing with it, Pichichi?
- **4351**: Erg...I so wanted to show off my hammer-hammering skills.
- **4352**: I wanted to become famous for "Gomada-Vulmada's 300 Super-Swift Mega-Hits"!
- **4379**: It's the final showdown! Good will at last conquer evil-wevil!
- **4391**: Cardians are so strangey-wangey. They don't eat anything at all!
- **4392**: Not like us people who eat to live and live to eat!
- **12417**: He also said that if we don't give it back, he'll get the boss-woss from the Manustery onto us! We're getting framed as a gang of villain-willains!
- **12429**: The Star Onion Brigade is not a gang of villain-willains!
- **12430**: That Mana Orb belongs to Joker. It got sucked right into him like it was a perfect fit! It must be his!
- **12444**: Let's tell him it was gobble-wobbled up by a dhamel in Windurst Woods!
- **12461**: Huh. I never would've thought of taking Joker to pieces.
- **12462**: Adults always think of the most horrible-worrible things first.
- **12480**: ...Hey, I know. Why don't we take Joker so far away that Honoi-Gomoi will never-ever find him?
- **12481**: Even furtherer away than San d'Oria or Bastok. Somewhere where even adventurers are afraid to go.
- **12506**: I wonder why Honoi-Gomoi wants that particular Mana Orb so much?
- **12507**: I wouldn't want to become a hard-headed old man like that for all the gil in Vana'diel. No one would like me.
- **12549**: Wowzie-powzie! Those bad guy Cardians were totally intimidating! They were way more scary than Nanaa-Mihgo!
- **12550**: Man! If I were a grown-up wizard, I could have saved everyone with my magic! Why do I still gotta be a kid?
- **12561**: Man, if only I was a grown-up wizard! Star Sibyl, make me an adult now, I don't want to wait!
- **12717**: I wonder, if I grow really-weally hugey-wugey and reach up to the sky, I'll be able to talk to Joker again?
- **12718**: I'm gonna grow absolutaruly ginormous! Bigger than a Mithra! Bigger than a Galka. Even bigger than an Elvaan! I'm gonna grow up to be a giant!

## Events

### Event 65535

#### Metadata

| Field        | Value   |
|--------------|---------|
| Entrypoint   | 0x0000  |
| Data Size    | 1 bytes |
| Instructions | 1       |

```
      00 01 02 03 04 05 06 07  08 09 0A 0B 0C 0D 0E 0F
      -- -- -- -- -- -- -- --  -- -- -- -- -- -- -- --
0000: 00                                                .               
```

#### Opcodes

```
  0: 0x0000 [0x00] END_REQSTACK()
```

### Event 65535.1

#### Metadata

| Field        | Value    |
|--------------|----------|
| Entrypoint   | 0x0001   |
| Data Size    | 16 bytes |
| Instructions | 2        |

```
      00 01 02 03 04 05 06 07  08 09 0A 0B 0C 0D 0E 0F
      -- -- -- -- -- -- -- --  -- -- -- -- -- -- -- --
0000:    5B 00 80 F8 FF FF 7F  F8 FF FF 7F 74 6C 6B 30   [..........tlk0
0010: 00                                                .               
```

#### Opcodes

```
  0: 0x0001 [0x5B] LOAD_EXT_SCHEDULER: Load scheduler "tlk0" with entities [EventEntity, EventEntity], work=85*
  1: 0x0010 [0x00] END_REQSTACK()
```

### Event 65535.2

#### Metadata

| Field        | Value    |
|--------------|----------|
| Entrypoint   | 0x0011   |
| Data Size    | 24 bytes |
| Instructions | 4        |

```
      00 01 02 03 04 05 06 07  08 09 0A 0B 0C 0D 0E 0F
      -- -- -- -- -- -- -- --  -- -- -- -- -- -- -- --
0010:    5B 00 80 F8 FF FF 7F  F8 FF FF 7F 74 6C 6B 30   [..........tlk0
0020: 5E 69 64 6C 30 1C 01 80  00                       ^idl0....       
```

#### Opcodes

```
  0: 0x0011 [0x5B] LOAD_EXT_SCHEDULER: Load scheduler "tlk0" with entities [EventEntity, EventEntity], work=85*
  1: 0x0020 [0x5E] EventEntity goes idle (kills current action) (animation: "idl0")
  2: 0x0025 [0x1C] WAIT(30* ticks)
  3: 0x0028 [0x00] END_REQSTACK()
```

### Event 65535.3

#### Metadata

| Field        | Value    |
|--------------|----------|
| Entrypoint   | 0x0029   |
| Data Size    | 16 bytes |
| Instructions | 2        |

```
      00 01 02 03 04 05 06 07  08 09 0A 0B 0C 0D 0E 0F
      -- -- -- -- -- -- -- --  -- -- -- -- -- -- -- --
0020:                             5B 00 80 F8 FF FF 7F           [......
0030: F8 FF FF 7F 6E 61 69 30  00                       ....nai0.       
```

#### Opcodes

```
  0: 0x0029 [0x5B] LOAD_EXT_SCHEDULER: Load scheduler "nai0" with entities [EventEntity, EventEntity], work=85*
  1: 0x0038 [0x00] END_REQSTACK()
```

### Event 65535.4

#### Metadata

| Field        | Value    |
|--------------|----------|
| Entrypoint   | 0x0039   |
| Data Size    | 22 bytes |
| Instructions | 4        |

```
      00 01 02 03 04 05 06 07  08 09 0A 0B 0C 0D 0E 0F
      -- -- -- -- -- -- -- --  -- -- -- -- -- -- -- --
0030:                             53 F8 FF FF 7F F8 FF           S......
0040: FF 7F 6E 61 69 30 5E 69  64 6C 30 1C 01 80 00     ..nai0^idl0.... 
```

#### Opcodes

```
  0: 0x0039 [0x53] WAIT_SCHEDULER_TASK: Wait for scheduler "nai0" with entities [EventEntity, EventEntity]
  1: 0x0046 [0x5E] EventEntity goes idle (kills current action) (animation: "idl0")
  2: 0x004B [0x1C] WAIT(30* ticks)
  3: 0x004E [0x00] END_REQSTACK()
```

### Event 65535.5

#### Metadata

| Field        | Value    |
|--------------|----------|
| Entrypoint   | 0x004F   |
| Data Size    | 22 bytes |
| Instructions | 3        |

```
      00 01 02 03 04 05 06 07  08 09 0A 0B 0C 0D 0E 0F
      -- -- -- -- -- -- -- --  -- -- -- -- -- -- -- --
0040:                                               7C                 |
0050: 00 F8 FF FF 7F 5B 00 80  F8 FF FF 7F F8 FF FF 7F  .....[..........
0060: 74 6C 6B 32 00                                    tlk2.           
```

#### Opcodes

```
  0: 0x004F [0x7C] EventEntity->Render.Flags2 |= 0x00
  1: 0x0055 [0x5B] LOAD_EXT_SCHEDULER: Load scheduler "tlk2" with entities [EventEntity, EventEntity], work=85*
  2: 0x0064 [0x00] END_REQSTACK()
```

### Event 65535.6

#### Metadata

| Field        | Value    |
|--------------|----------|
| Entrypoint   | 0x0065   |
| Data Size    | 20 bytes |
| Instructions | 3        |

```
      00 01 02 03 04 05 06 07  08 09 0A 0B 0C 0D 0E 0F
      -- -- -- -- -- -- -- --  -- -- -- -- -- -- -- --
0060:                53 F8 FF  FF 7F F8 FF FF 7F 74 6C       S........tl
0070: 6B 32 7C 01 F8 FF FF 7F  00                       k2|......       
```

#### Opcodes

```
  0: 0x0065 [0x53] WAIT_SCHEDULER_TASK: Wait for scheduler "tlk2" with entities [EventEntity, EventEntity]
  1: 0x0072 [0x7C] EventEntity->Render.Flags2 |= 0x01
  2: 0x0078 [0x00] END_REQSTACK()
```

### Event 65535.7

#### Metadata

| Field        | Value    |
|--------------|----------|
| Entrypoint   | 0x0079   |
| Data Size    | 22 bytes |
| Instructions | 3        |

```
      00 01 02 03 04 05 06 07  08 09 0A 0B 0C 0D 0E 0F
      -- -- -- -- -- -- -- --  -- -- -- -- -- -- -- --
0070:                             7C 00 F8 FF FF 7F 5B           |.....[
0080: 00 80 F8 FF FF 7F F8 FF  FF 7F 73 75 72 30 00     ..........sur0. 
```

#### Opcodes

```
  0: 0x0079 [0x7C] EventEntity->Render.Flags2 |= 0x00
  1: 0x007F [0x5B] LOAD_EXT_SCHEDULER: Load scheduler "sur0" with entities [EventEntity, EventEntity], work=85*
  2: 0x008E [0x00] END_REQSTACK()
```

### Event 65535.8

#### Metadata

| Field        | Value    |
|--------------|----------|
| Entrypoint   | 0x008F   |
| Data Size    | 20 bytes |
| Instructions | 3        |

```
      00 01 02 03 04 05 06 07  08 09 0A 0B 0C 0D 0E 0F
      -- -- -- -- -- -- -- --  -- -- -- -- -- -- -- --
0080:                                               53                 S
0090: F8 FF FF 7F F8 FF FF 7F  73 75 72 30 7C 01 F8 FF  ........sur0|...
00A0: FF 7F 00                                          ...             
```

#### Opcodes

```
  0: 0x008F [0x53] WAIT_SCHEDULER_TASK: Wait for scheduler "sur0" with entities [EventEntity, EventEntity]
  1: 0x009C [0x7C] EventEntity->Render.Flags2 |= 0x01
  2: 0x00A2 [0x00] END_REQSTACK()
```

### Event 65535.9

#### Metadata

| Field        | Value    |
|--------------|----------|
| Entrypoint   | 0x00A3   |
| Data Size    | 16 bytes |
| Instructions | 2        |

```
      00 01 02 03 04 05 06 07  08 09 0A 0B 0C 0D 0E 0F
      -- -- -- -- -- -- -- --  -- -- -- -- -- -- -- --
00A0:          5B 00 80 F8 FF  FF 7F F8 FF FF 7F 61 6E     [..........an
00B0: 67 30 00                                          g0.             
```

#### Opcodes

```
  0: 0x00A3 [0x5B] LOAD_EXT_SCHEDULER: Load scheduler "ang0" with entities [EventEntity, EventEntity], work=85*
  1: 0x00B2 [0x00] END_REQSTACK()
```

### Event 65535.10

#### Metadata

| Field        | Value    |
|--------------|----------|
| Entrypoint   | 0x00B3   |
| Data Size    | 22 bytes |
| Instructions | 4        |

```
      00 01 02 03 04 05 06 07  08 09 0A 0B 0C 0D 0E 0F
      -- -- -- -- -- -- -- --  -- -- -- -- -- -- -- --
00B0:          53 F8 FF FF 7F  F8 FF FF 7F 61 6E 67 30     S........ang0
00C0: 5E 69 64 6C 30 1C 01 80  00                       ^idl0....       
```

#### Opcodes

```
  0: 0x00B3 [0x53] WAIT_SCHEDULER_TASK: Wait for scheduler "ang0" with entities [EventEntity, EventEntity]
  1: 0x00C0 [0x5E] EventEntity goes idle (kills current action) (animation: "idl0")
  2: 0x00C5 [0x1C] WAIT(30* ticks)
  3: 0x00C8 [0x00] END_REQSTACK()
```

### Event 65535.11

#### Metadata

| Field        | Value    |
|--------------|----------|
| Entrypoint   | 0x00C9   |
| Data Size    | 16 bytes |
| Instructions | 2        |

```
      00 01 02 03 04 05 06 07  08 09 0A 0B 0C 0D 0E 0F
      -- -- -- -- -- -- -- --  -- -- -- -- -- -- -- --
00C0:                             5B 00 80 F8 FF FF 7F           [......
00D0: F8 FF FF 7F 6A 6D 70 30  00                       ....jmp0.       
```

#### Opcodes

```
  0: 0x00C9 [0x5B] LOAD_EXT_SCHEDULER: Load scheduler "jmp0" with entities [EventEntity, EventEntity], work=85*
  1: 0x00D8 [0x00] END_REQSTACK()
```

### Event 65535.12

#### Metadata

| Field        | Value    |
|--------------|----------|
| Entrypoint   | 0x00D9   |
| Data Size    | 14 bytes |
| Instructions | 2        |

```
      00 01 02 03 04 05 06 07  08 09 0A 0B 0C 0D 0E 0F
      -- -- -- -- -- -- -- --  -- -- -- -- -- -- -- --
00D0:                             53 F8 FF FF 7F F8 FF           S......
00E0: FF 7F 6A 6D 70 30 00                              ..jmp0.         
```

#### Opcodes

```
  0: 0x00D9 [0x53] WAIT_SCHEDULER_TASK: Wait for scheduler "jmp0" with entities [EventEntity, EventEntity]
  1: 0x00E6 [0x00] END_REQSTACK()
```

### Event 65535.13

#### Metadata

| Field        | Value    |
|--------------|----------|
| Entrypoint   | 0x00E7   |
| Data Size    | 22 bytes |
| Instructions | 3        |

```
      00 01 02 03 04 05 06 07  08 09 0A 0B 0C 0D 0E 0F
      -- -- -- -- -- -- -- --  -- -- -- -- -- -- -- --
00E0:                      7C  00 F8 FF FF 7F 5B 00 80         |.....[..
00F0: F8 FF FF 7F F8 FF FF 7F  62 61 6E 30 00           ........ban0.   
```

#### Opcodes

```
  0: 0x00E7 [0x7C] EventEntity->Render.Flags2 |= 0x00
  1: 0x00ED [0x5B] LOAD_EXT_SCHEDULER: Load scheduler "ban0" with entities [EventEntity, EventEntity], work=85*
  2: 0x00FC [0x00] END_REQSTACK()
```

### Event 65535.14

#### Metadata

| Field        | Value    |
|--------------|----------|
| Entrypoint   | 0x00FD   |
| Data Size    | 20 bytes |
| Instructions | 3        |

```
      00 01 02 03 04 05 06 07  08 09 0A 0B 0C 0D 0E 0F
      -- -- -- -- -- -- -- --  -- -- -- -- -- -- -- --
00F0:                                         53 F8 FF               S..
0100: FF 7F F8 FF FF 7F 62 61  6E 30 7C 01 F8 FF FF 7F  ......ban0|.....
0110: 00                                                .               
```

#### Opcodes

```
  0: 0x00FD [0x53] WAIT_SCHEDULER_TASK: Wait for scheduler "ban0" with entities [EventEntity, EventEntity]
  1: 0x010A [0x7C] EventEntity->Render.Flags2 |= 0x01
  2: 0x0110 [0x00] END_REQSTACK()
```

### Event 65535.15

#### Metadata

| Field        | Value    |
|--------------|----------|
| Entrypoint   | 0x0111   |
| Data Size    | 41 bytes |
| Instructions | 5        |

```
      00 01 02 03 04 05 06 07  08 09 0A 0B 0C 0D 0E 0F
      -- -- -- -- -- -- -- --  -- -- -- -- -- -- -- --
0110:    7C 00 F8 FF FF 7F 5B  00 80 F8 FF FF 7F F8 FF   |.....[........
0120: FF 7F 62 61 6E 30 53 F8  FF FF 7F F8 FF FF 7F 62  ..ban0S........b
0130: 61 6E 30 7C 01 F8 FF FF  7F 00                    an0|......      
```

#### Opcodes

```
  0: 0x0111 [0x7C] EventEntity->Render.Flags2 |= 0x00
  1: 0x0117 [0x5B] LOAD_EXT_SCHEDULER: Load scheduler "ban0" with entities [EventEntity, EventEntity], work=85*
  2: 0x0126 [0x53] WAIT_SCHEDULER_TASK: Wait for scheduler "ban0" with entities [EventEntity, EventEntity]
  3: 0x0133 [0x7C] EventEntity->Render.Flags2 |= 0x01
  4: 0x0139 [0x00] END_REQSTACK()
```

### Event 65535.16

#### Metadata

| Field        | Value    |
|--------------|----------|
| Entrypoint   | 0x013A   |
| Data Size    | 16 bytes |
| Instructions | 2        |

```
      00 01 02 03 04 05 06 07  08 09 0A 0B 0C 0D 0E 0F
      -- -- -- -- -- -- -- --  -- -- -- -- -- -- -- --
0130:                                5B 00 80 F8 FF FF            [.....
0140: 7F F8 FF FF 7F 6B 6F 77  30 00                    .....kow0.      
```

#### Opcodes

```
  0: 0x013A [0x5B] LOAD_EXT_SCHEDULER: Load scheduler "kow0" with entities [EventEntity, EventEntity], work=85*
  1: 0x0149 [0x00] END_REQSTACK()
```

### Event 65535.17

#### Metadata

| Field        | Value    |
|--------------|----------|
| Entrypoint   | 0x014A   |
| Data Size    | 22 bytes |
| Instructions | 4        |

```
      00 01 02 03 04 05 06 07  08 09 0A 0B 0C 0D 0E 0F
      -- -- -- -- -- -- -- --  -- -- -- -- -- -- -- --
0140:                                53 F8 FF FF 7F F8            S.....
0150: FF FF 7F 6B 6F 77 30 5E  69 64 6C 30 1C 01 80 00  ...kow0^idl0....
```

#### Opcodes

```
  0: 0x014A [0x53] WAIT_SCHEDULER_TASK: Wait for scheduler "kow0" with entities [EventEntity, EventEntity]
  1: 0x0157 [0x5E] EventEntity goes idle (kills current action) (animation: "idl0")
  2: 0x015C [0x1C] WAIT(30* ticks)
  3: 0x015F [0x00] END_REQSTACK()
```

### Event 65535.18

#### Metadata

| Field        | Value    |
|--------------|----------|
| Entrypoint   | 0x0160   |
| Data Size    | 16 bytes |
| Instructions | 2        |

```
      00 01 02 03 04 05 06 07  08 09 0A 0B 0C 0D 0E 0F
      -- -- -- -- -- -- -- --  -- -- -- -- -- -- -- --
0160: 5B 00 80 F8 FF FF 7F F8  FF FF 7F 74 68 6B 31 00  [..........thk1.
```

#### Opcodes

```
  0: 0x0160 [0x5B] LOAD_EXT_SCHEDULER: Load scheduler "thk1" with entities [EventEntity, EventEntity], work=85*
  1: 0x016F [0x00] END_REQSTACK()
```

### Event 65535.19

#### Metadata

| Field        | Value    |
|--------------|----------|
| Entrypoint   | 0x0170   |
| Data Size    | 14 bytes |
| Instructions | 2        |

```
      00 01 02 03 04 05 06 07  08 09 0A 0B 0C 0D 0E 0F
      -- -- -- -- -- -- -- --  -- -- -- -- -- -- -- --
0170: 53 F8 FF FF 7F F8 FF FF  7F 74 68 6B 31 00        S........thk1.  
```

#### Opcodes

```
  0: 0x0170 [0x53] WAIT_SCHEDULER_TASK: Wait for scheduler "thk1" with entities [EventEntity, EventEntity]
  1: 0x017D [0x00] END_REQSTACK()
```

### Event 65535.20

#### Metadata

| Field        | Value    |
|--------------|----------|
| Entrypoint   | 0x017E   |
| Data Size    | 16 bytes |
| Instructions | 2        |

```
      00 01 02 03 04 05 06 07  08 09 0A 0B 0C 0D 0E 0F
      -- -- -- -- -- -- -- --  -- -- -- -- -- -- -- --
0170:                                            5B 00                [.
0180: 80 F8 FF FF 7F F8 FF FF  7F 74 68 6B 32 00        .........thk2.  
```

#### Opcodes

```
  0: 0x017E [0x5B] LOAD_EXT_SCHEDULER: Load scheduler "thk2" with entities [EventEntity, EventEntity], work=85*
  1: 0x018D [0x00] END_REQSTACK()
```

### Event 65535.21

#### Metadata

| Field        | Value    |
|--------------|----------|
| Entrypoint   | 0x018E   |
| Data Size    | 14 bytes |
| Instructions | 2        |

```
      00 01 02 03 04 05 06 07  08 09 0A 0B 0C 0D 0E 0F
      -- -- -- -- -- -- -- --  -- -- -- -- -- -- -- --
0180:                                            53 F8                S.
0190: FF FF 7F F8 FF FF 7F 74  68 6B 32 00              .......thk2.    
```

#### Opcodes

```
  0: 0x018E [0x53] WAIT_SCHEDULER_TASK: Wait for scheduler "thk2" with entities [EventEntity, EventEntity]
  1: 0x019B [0x00] END_REQSTACK()
```

### Event 65535.22

#### Metadata

| Field        | Value   |
|--------------|---------|
| Entrypoint   | 0x019C  |
| Data Size    | 9 bytes |
| Instructions | 3       |

```
      00 01 02 03 04 05 06 07  08 09 0A 0B 0C 0D 0E 0F
      -- -- -- -- -- -- -- --  -- -- -- -- -- -- -- --
0190:                                      5E 69 64 6C              ^idl
01A0: 30 1C 01 80 00                                    0....           
```

#### Opcodes

```
  0: 0x019C [0x5E] EventEntity goes idle (kills current action) (animation: "idl0")
  1: 0x01A1 [0x1C] WAIT(30* ticks)
  2: 0x01A4 [0x00] END_REQSTACK()
```

### Event 65535.23

#### Metadata

| Field        | Value    |
|--------------|----------|
| Entrypoint   | 0x01A5   |
| Data Size    | 56 bytes |
| Instructions | 6        |

```
      00 01 02 03 04 05 06 07  08 09 0A 0B 0C 0D 0E 0F
      -- -- -- -- -- -- -- --  -- -- -- -- -- -- -- --
01A0:                7C 00 F8  FF FF 7F 5B 00 80 F8 FF       |.....[....
01B0: FF 7F F8 FF FF 7F 73 75  72 30 53 F8 FF FF 7F F8  ......sur0S.....
01C0: FF FF 7F 73 75 72 30 7C  01 F8 FF FF 7F 5B 00 80  ...sur0|.....[..
01D0: F8 FF FF 7F F8 FF FF 7F  70 61 6E 30 00           ........pan0.   
```

#### Opcodes

```
  0: 0x01A5 [0x7C] EventEntity->Render.Flags2 |= 0x00
  1: 0x01AB [0x5B] LOAD_EXT_SCHEDULER: Load scheduler "sur0" with entities [EventEntity, EventEntity], work=85*
  2: 0x01BA [0x53] WAIT_SCHEDULER_TASK: Wait for scheduler "sur0" with entities [EventEntity, EventEntity]
  3: 0x01C7 [0x7C] EventEntity->Render.Flags2 |= 0x01
  4: 0x01CD [0x5B] LOAD_EXT_SCHEDULER: Load scheduler "pan0" with entities [EventEntity, EventEntity], work=85*
  5: 0x01DC [0x00] END_REQSTACK()
```

### Event 65535.24

#### Metadata

| Field        | Value    |
|--------------|----------|
| Entrypoint   | 0x01DD   |
| Data Size    | 22 bytes |
| Instructions | 4        |

```
      00 01 02 03 04 05 06 07  08 09 0A 0B 0C 0D 0E 0F
      -- -- -- -- -- -- -- --  -- -- -- -- -- -- -- --
01D0:                                         53 F8 FF               S..
01E0: FF 7F F8 FF FF 7F 70 61  6E 30 5E 69 64 6C 30 1C  ......pan0^idl0.
01F0: 01 80 00                                          ...             
```

#### Opcodes

```
  0: 0x01DD [0x53] WAIT_SCHEDULER_TASK: Wait for scheduler "pan0" with entities [EventEntity, EventEntity]
  1: 0x01EA [0x5E] EventEntity goes idle (kills current action) (animation: "idl0")
  2: 0x01EF [0x1C] WAIT(30* ticks)
  3: 0x01F2 [0x00] END_REQSTACK()
```

### Event 363

#### Metadata

| Field        | Value    |
|--------------|----------|
| Entrypoint   | 0x01F3   |
| Data Size    | 29 bytes |
| Instructions | 10       |

```
      00 01 02 03 04 05 06 07  08 09 0A 0B 0C 0D 0E 0F
      -- -- -- -- -- -- -- --  -- -- -- -- -- -- -- --
01F0:          1E F0 FF FF 7F  6F 70 29 08 54 00 0F 01     .....op).T...
0200: 05 1D 02 80 23 29 08 54  00 0F 01 06 20 00 21 00  ....#).T.... .!.
```

#### Opcodes

```
  0: 0x01F3 [0x1E] EventEntity looks at LocalPlayer and starts talking
  1: 0x01F8 [0x6F] WAIT_FRAME_DELAY: Yield until WaitTime reaches zero
  2: 0x01F9 [0x70] WAIT_ENTITY_RENDER_FLAG: Wait while EventEntity->Render.Flags3 bit 2 is set (cancel turn if not)
  3: 0x01FA [0x29] REQ_SET_WAIT(priority=0x08, entity_id=Gomada-Vulmada (ID: 17760340/0x010F0054), tag_num=0x05)
  4: 0x0201 [0x1D] PRINT_EVENT_MESSAGE(message_id=4162*)
    → "The firsty-wirsty ruley-wuley!"
  5: 0x0204 [0x23] WAIT_FOR_DIALOG_INTERACTION
  6: 0x0205 [0x29] REQ_SET_WAIT(priority=0x08, entity_id=Gomada-Vulmada (ID: 17760340/0x010F0054), tag_num=0x06)
  7: 0x020C [0x20] SET_CLI_EVENT_UC_FLAG: Unlock player control
  8: 0x020E [0x21] END_EVENT
  9: 0x020F [0x00] END_REQSTACK()
```

### Event 368

#### Metadata

| Field        | Value   |
|--------------|---------|
| Entrypoint   | 0x0210  |
| Data Size    | 1 bytes |
| Instructions | 1       |

```
      00 01 02 03 04 05 06 07  08 09 0A 0B 0C 0D 0E 0F
      -- -- -- -- -- -- -- --  -- -- -- -- -- -- -- --
0210: 00                                                .               
```

#### Opcodes

```
  0: 0x0210 [0x00] END_REQSTACK()
```

### Event 65535.25

#### Metadata

| Field        | Value    |
|--------------|----------|
| Entrypoint   | 0x0211   |
| Data Size    | 10 bytes |
| Instructions | 2        |

```
      00 01 02 03 04 05 06 07  08 09 0A 0B 0C 0D 0E 0F
      -- -- -- -- -- -- -- --  -- -- -- -- -- -- -- --
0210:    37 03 80 04 80 05 80  06 80 00                  7.........     
```

#### Opcodes

```
  0: 0x0211 [0x37] UPDATE_EVENT_POSITION_AND_DIR: x=-23.870*, z=191.689*, y=-5.999*, direction=251.4°*
  1: 0x021A [0x00] END_REQSTACK()
```

### Event 65535.26

#### Metadata

| Field        | Value   |
|--------------|---------|
| Entrypoint   | 0x021B  |
| Data Size    | 5 bytes |
| Instructions | 3       |

```
      00 01 02 03 04 05 06 07  08 09 0A 0B 0C 0D 0E 0F
      -- -- -- -- -- -- -- --  -- -- -- -- -- -- -- --
0210:                                   1D 07 80 23 00             ...#.
```

#### Opcodes

```
  0: 0x021B [0x1D] PRINT_EVENT_MESSAGE(message_id=4175*)
    → "Are invincible-wincible!"
  1: 0x021E [0x23] WAIT_FOR_DIALOG_INTERACTION
  2: 0x021F [0x00] END_REQSTACK()
```

### Event 65535.27

#### Metadata

| Field        | Value    |
|--------------|----------|
| Entrypoint   | 0x0220   |
| Data Size    | 19 bytes |
| Instructions | 5        |

```
      00 01 02 03 04 05 06 07  08 09 0A 0B 0C 0D 0E 0F
      -- -- -- -- -- -- -- --  -- -- -- -- -- -- -- --
0220: 29 08 54 00 0F 01 01 1D  08 80 23 29 08 54 00 0F  ).T.......#).T..
0230: 01 02 00                                          ...             
```

#### Opcodes

```
  0: 0x0220 [0x29] REQ_SET_WAIT(priority=0x08, entity_id=Gomada-Vulmada (ID: 17760340/0x010F0054), tag_num=0x01)
  1: 0x0227 [0x1D] PRINT_EVENT_MESSAGE(message_id=4180*)
    → "Time to powwow! Powwow! Let's have a secret-wecret meeting!"
  2: 0x022A [0x23] WAIT_FOR_DIALOG_INTERACTION
  3: 0x022B [0x29] REQ_SET_WAIT(priority=0x08, entity_id=Gomada-Vulmada (ID: 17760340/0x010F0054), tag_num=0x02)
  4: 0x0232 [0x00] END_REQSTACK()
```

### Event 65535.28

#### Metadata

| Field        | Value    |
|--------------|----------|
| Entrypoint   | 0x0233   |
| Data Size    | 19 bytes |
| Instructions | 5        |

```
      00 01 02 03 04 05 06 07  08 09 0A 0B 0C 0D 0E 0F
      -- -- -- -- -- -- -- --  -- -- -- -- -- -- -- --
0230:          29 08 54 00 0F  01 03 1D 09 80 23 29 08     ).T.......#).
0240: 54 00 0F 01 04 00                                 T.....          
```

#### Opcodes

```
  0: 0x0233 [0x29] REQ_SET_WAIT(priority=0x08, entity_id=Gomada-Vulmada (ID: 17760340/0x010F0054), tag_num=0x03)
  1: 0x023A [0x1D] PRINT_EVENT_MESSAGE(message_id=4187*)
    → "(Huh? What's shellfish got to do with this?)"
  2: 0x023D [0x23] WAIT_FOR_DIALOG_INTERACTION
  3: 0x023E [0x29] REQ_SET_WAIT(priority=0x08, entity_id=Gomada-Vulmada (ID: 17760340/0x010F0054), tag_num=0x04)
  4: 0x0245 [0x00] END_REQSTACK()
```

### Event 65535.29

#### Metadata

| Field        | Value    |
|--------------|----------|
| Entrypoint   | 0x0246   |
| Data Size    | 19 bytes |
| Instructions | 5        |

```
      00 01 02 03 04 05 06 07  08 09 0A 0B 0C 0D 0E 0F
      -- -- -- -- -- -- -- --  -- -- -- -- -- -- -- --
0240:                   29 08  54 00 0F 01 03 1D 0A 80        ).T.......
0250: 23 29 08 54 00 0F 01 04  00                       #).T.....       
```

#### Opcodes

```
  0: 0x0246 [0x29] REQ_SET_WAIT(priority=0x08, entity_id=Gomada-Vulmada (ID: 17760340/0x010F0054), tag_num=0x03)
  1: 0x024D [0x1D] PRINT_EVENT_MESSAGE(message_id=4190*)
    → "(Huh? Who's "on a beef again"?)"
  2: 0x0250 [0x23] WAIT_FOR_DIALOG_INTERACTION
  3: 0x0251 [0x29] REQ_SET_WAIT(priority=0x08, entity_id=Gomada-Vulmada (ID: 17760340/0x010F0054), tag_num=0x04)
  4: 0x0258 [0x00] END_REQSTACK()
```

### Event 373

#### Metadata

| Field        | Value    |
|--------------|----------|
| Entrypoint   | 0x0259   |
| Data Size    | 33 bytes |
| Instructions | 12       |

```
      00 01 02 03 04 05 06 07  08 09 0A 0B 0C 0D 0E 0F
      -- -- -- -- -- -- -- --  -- -- -- -- -- -- -- --
0250:                             1E F0 FF FF 7F 6F 70           .....op
0260: 29 08 54 00 0F 01 0B 1D  0B 80 23 1D 0C 80 23 29  ).T.......#...#)
0270: 08 54 00 0F 01 0C 20 00  21 00                    .T.... .!.      
```

#### Opcodes

```
  0: 0x0259 [0x1E] EventEntity looks at LocalPlayer and starts talking
  1: 0x025E [0x6F] WAIT_FRAME_DELAY: Yield until WaitTime reaches zero
  2: 0x025F [0x70] WAIT_ENTITY_RENDER_FLAG: Wait while EventEntity->Render.Flags3 bit 2 is set (cancel turn if not)
  3: 0x0260 [0x29] REQ_SET_WAIT(priority=0x08, entity_id=Gomada-Vulmada (ID: 17760340/0x010F0054), tag_num=0x0B)
  4: 0x0267 [0x1D] PRINT_EVENT_MESSAGE(message_id=4203*)
    → "You, you, you keep away from me, you hear! Tarutaru don't have no taily-wailys!"
  5: 0x026A [0x23] WAIT_FOR_DIALOG_INTERACTION
  6: 0x026B [0x1D] PRINT_EVENT_MESSAGE(message_id=4204*)
    → "I know what you're thinking-winking! You're out to stealy-wealy someone's tail!"
  7: 0x026E [0x23] WAIT_FOR_DIALOG_INTERACTION
  8: 0x026F [0x29] REQ_SET_WAIT(priority=0x08, entity_id=Gomada-Vulmada (ID: 17760340/0x010F0054), tag_num=0x0C)
  9: 0x0276 [0x20] SET_CLI_EVENT_UC_FLAG: Unlock player control
 10: 0x0278 [0x21] END_EVENT
 11: 0x0279 [0x00] END_REQSTACK()
```

### Event 378

#### Metadata

| Field        | Value   |
|--------------|---------|
| Entrypoint   | 0x027A  |
| Data Size    | 1 bytes |
| Instructions | 1       |

```
      00 01 02 03 04 05 06 07  08 09 0A 0B 0C 0D 0E 0F
      -- -- -- -- -- -- -- --  -- -- -- -- -- -- -- --
0270:                                00                           .     
```

#### Opcodes

```
  0: 0x027A [0x00] END_REQSTACK()
```

### Event 65535.30

#### Metadata

| Field        | Value    |
|--------------|----------|
| Entrypoint   | 0x027B   |
| Data Size    | 10 bytes |
| Instructions | 2        |

```
      00 01 02 03 04 05 06 07  08 09 0A 0B 0C 0D 0E 0F
      -- -- -- -- -- -- -- --  -- -- -- -- -- -- -- --
0270:                                   37 0D 80 0E 80             7....
0280: 05 80 0F 80 00                                    .....           
```

#### Opcodes

```
  0: 0x027B [0x37] UPDATE_EVENT_POSITION_AND_DIR: x=-23.723*, z=188.959*, y=-5.999*, direction=222.7°*
  1: 0x0284 [0x00] END_REQSTACK()
```

### Event 381

#### Metadata

| Field        | Value    |
|--------------|----------|
| Entrypoint   | 0x0285   |
| Data Size    | 33 bytes |
| Instructions | 12       |

```
      00 01 02 03 04 05 06 07  08 09 0A 0B 0C 0D 0E 0F
      -- -- -- -- -- -- -- --  -- -- -- -- -- -- -- --
0280:                1E F0 FF  FF 7F 6F 70 29 08 54 00       .....op).T.
0290: 0F 01 01 1D 10 80 23 1D  11 80 23 29 08 54 00 0F  ......#...#).T..
02A0: 01 02 20 00 21 00                                 .. .!.          
```

#### Opcodes

```
  0: 0x0285 [0x1E] EventEntity looks at LocalPlayer and starts talking
  1: 0x028A [0x6F] WAIT_FRAME_DELAY: Yield until WaitTime reaches zero
  2: 0x028B [0x70] WAIT_ENTITY_RENDER_FLAG: Wait while EventEntity->Render.Flags3 bit 2 is set (cancel turn if not)
  3: 0x028C [0x29] REQ_SET_WAIT(priority=0x08, entity_id=Gomada-Vulmada (ID: 17760340/0x010F0054), tag_num=0x01)
  4: 0x0293 [0x1D] PRINT_EVENT_MESSAGE(message_id=4226*)
    → "I don't understand the ins-and-outs of this brigade, but it seems the tail tale got you in."
  5: 0x0296 [0x23] WAIT_FOR_DIALOG_INTERACTION
  6: 0x0297 [0x1D] PRINT_EVENT_MESSAGE(message_id=4227*)
    → "Anyway, welcome aboard!"
  7: 0x029A [0x23] WAIT_FOR_DIALOG_INTERACTION
  8: 0x029B [0x29] REQ_SET_WAIT(priority=0x08, entity_id=Gomada-Vulmada (ID: 17760340/0x010F0054), tag_num=0x02)
  9: 0x02A2 [0x20] SET_CLI_EVENT_UC_FLAG: Unlock player control
 10: 0x02A4 [0x21] END_EVENT
 11: 0x02A5 [0x00] END_REQSTACK()
```

### Event 391

#### Metadata

| Field        | Value   |
|--------------|---------|
| Entrypoint   | 0x02A6  |
| Data Size    | 1 bytes |
| Instructions | 1       |

```
      00 01 02 03 04 05 06 07  08 09 0A 0B 0C 0D 0E 0F
      -- -- -- -- -- -- -- --  -- -- -- -- -- -- -- --
02A0:                   00                                    .         
```

#### Opcodes

```
  0: 0x02A6 [0x00] END_REQSTACK()
```

### Event 386

#### Metadata

| Field        | Value   |
|--------------|---------|
| Entrypoint   | 0x02A7  |
| Data Size    | 1 bytes |
| Instructions | 1       |

```
      00 01 02 03 04 05 06 07  08 09 0A 0B 0C 0D 0E 0F
      -- -- -- -- -- -- -- --  -- -- -- -- -- -- -- --
02A0:                      00                                  .        
```

#### Opcodes

```
  0: 0x02A7 [0x00] END_REQSTACK()
```

### Event 390

#### Metadata

| Field        | Value   |
|--------------|---------|
| Entrypoint   | 0x02A8  |
| Data Size    | 1 bytes |
| Instructions | 1       |

```
      00 01 02 03 04 05 06 07  08 09 0A 0B 0C 0D 0E 0F
      -- -- -- -- -- -- -- --  -- -- -- -- -- -- -- --
02A0:                          00                               .       
```

#### Opcodes

```
  0: 0x02A8 [0x00] END_REQSTACK()
```

### Event 394

#### Metadata

| Field        | Value    |
|--------------|----------|
| Entrypoint   | 0x02A9   |
| Data Size    | 33 bytes |
| Instructions | 12       |

```
      00 01 02 03 04 05 06 07  08 09 0A 0B 0C 0D 0E 0F
      -- -- -- -- -- -- -- --  -- -- -- -- -- -- -- --
02A0:                             1E F0 FF FF 7F 6F 70           .....op
02B0: 29 08 54 00 0F 01 01 1D  12 80 23 1D 13 80 23 29  ).T.......#...#)
02C0: 08 54 00 0F 01 02 20 00  21 00                    .T.... .!.      
```

#### Opcodes

```
  0: 0x02A9 [0x1E] EventEntity looks at LocalPlayer and starts talking
  1: 0x02AE [0x6F] WAIT_FRAME_DELAY: Yield until WaitTime reaches zero
  2: 0x02AF [0x70] WAIT_ENTITY_RENDER_FLAG: Wait while EventEntity->Render.Flags3 bit 2 is set (cancel turn if not)
  3: 0x02B0 [0x29] REQ_SET_WAIT(priority=0x08, entity_id=Gomada-Vulmada (ID: 17760340/0x010F0054), tag_num=0x01)
  4: 0x02B7 [0x1D] PRINT_EVENT_MESSAGE(message_id=4273*)
    → "My weapon of preference is the hammer-wammer!"
  5: 0x02BA [0x23] WAIT_FOR_DIALOG_INTERACTION
  6: 0x02BB [0x1D] PRINT_EVENT_MESSAGE(message_id=4274*)
    → "Only real men use hammers!"
  7: 0x02BE [0x23] WAIT_FOR_DIALOG_INTERACTION
  8: 0x02BF [0x29] REQ_SET_WAIT(priority=0x08, entity_id=Gomada-Vulmada (ID: 17760340/0x010F0054), tag_num=0x02)
  9: 0x02C6 [0x20] SET_CLI_EVENT_UC_FLAG: Unlock player control
 10: 0x02C8 [0x21] END_EVENT
 11: 0x02C9 [0x00] END_REQSTACK()
```

### Event 65535.31

#### Metadata

| Field        | Value    |
|--------------|----------|
| Entrypoint   | 0x02CA   |
| Data Size    | 19 bytes |
| Instructions | 5        |

```
      00 01 02 03 04 05 06 07  08 09 0A 0B 0C 0D 0E 0F
      -- -- -- -- -- -- -- --  -- -- -- -- -- -- -- --
02C0:                                29 08 54 00 0F 01            ).T...
02D0: 01 1D 14 80 23 29 08 54  00 0F 01 02 00           ....#).T.....   
```

#### Opcodes

```
  0: 0x02CA [0x29] REQ_SET_WAIT(priority=0x08, entity_id=Gomada-Vulmada (ID: 17760340/0x010F0054), tag_num=0x01)
  1: 0x02D1 [0x1D] PRINT_EVENT_MESSAGE(message_id=4286*)
    → "And just when we had the Cat Burglar-wurglar in our grasp, too..."
  2: 0x02D4 [0x23] WAIT_FOR_DIALOG_INTERACTION
  3: 0x02D5 [0x29] REQ_SET_WAIT(priority=0x08, entity_id=Gomada-Vulmada (ID: 17760340/0x010F0054), tag_num=0x02)
  4: 0x02DC [0x00] END_REQSTACK()
```

### Event 65535.32

#### Metadata

| Field        | Value    |
|--------------|----------|
| Entrypoint   | 0x02DD   |
| Data Size    | 19 bytes |
| Instructions | 5        |

```
      00 01 02 03 04 05 06 07  08 09 0A 0B 0C 0D 0E 0F
      -- -- -- -- -- -- -- --  -- -- -- -- -- -- -- --
02D0:                                         29 08 54               ).T
02E0: 00 0F 01 07 1D 15 80 23  29 08 54 00 0F 01 08 00  .......#).T.....
```

#### Opcodes

```
  0: 0x02DD [0x29] REQ_SET_WAIT(priority=0x08, entity_id=Gomada-Vulmada (ID: 17760340/0x010F0054), tag_num=0x07)
  1: 0x02E4 [0x1D] PRINT_EVENT_MESSAGE(message_id=4289*)
    → "Cool! It's a treasure-weasure!"
  2: 0x02E7 [0x23] WAIT_FOR_DIALOG_INTERACTION
  3: 0x02E8 [0x29] REQ_SET_WAIT(priority=0x08, entity_id=Gomada-Vulmada (ID: 17760340/0x010F0054), tag_num=0x08)
  4: 0x02EF [0x00] END_REQSTACK()
```

### Event 400

#### Metadata

| Field        | Value   |
|--------------|---------|
| Entrypoint   | 0x02F0  |
| Data Size    | 1 bytes |
| Instructions | 1       |

```
      00 01 02 03 04 05 06 07  08 09 0A 0B 0C 0D 0E 0F
      -- -- -- -- -- -- -- --  -- -- -- -- -- -- -- --
02F0: 00                                                .               
```

#### Opcodes

```
  0: 0x02F0 [0x00] END_REQSTACK()
```

### Event 65535.33

#### Metadata

| Field        | Value    |
|--------------|----------|
| Entrypoint   | 0x02F1   |
| Data Size    | 15 bytes |
| Instructions | 5        |

```
      00 01 02 03 04 05 06 07  08 09 0A 0B 0C 0D 0E 0F
      -- -- -- -- -- -- -- --  -- -- -- -- -- -- -- --
02F0:    32 16 80 1F 00 17 80  18 80 05 80 1F 01 6F 00   2............o.
```

#### Opcodes

```
  0: 0x02F1 [0x32] ExtData[1]->MainSpeed = 21* * 0.1
  1: 0x02F4 [0x1F] MOVE_ENTITY: EventEntity moves to X=-25.318*, Z=192.206*, Y=-5.999*
  2: 0x02FC [0x1F] MOVE_ENTITY: Update entity position (mode=1)
  3: 0x02FE [0x6F] WAIT_FRAME_DELAY: Yield until WaitTime reaches zero
  4: 0x02FF [0x00] END_REQSTACK()
```

### Event 404

#### Metadata

| Field        | Value    |
|--------------|----------|
| Entrypoint   | 0x0300   |
| Data Size    | 29 bytes |
| Instructions | 10       |

```
      00 01 02 03 04 05 06 07  08 09 0A 0B 0C 0D 0E 0F
      -- -- -- -- -- -- -- --  -- -- -- -- -- -- -- --
0300: 1E F0 FF FF 7F 6F 70 29  08 54 00 0F 01 01 1D 19  .....op).T......
0310: 80 23 29 08 54 00 0F 01  02 20 00 21 00           .#).T.... .!.   
```

#### Opcodes

```
  0: 0x0300 [0x1E] EventEntity looks at LocalPlayer and starts talking
  1: 0x0305 [0x6F] WAIT_FRAME_DELAY: Yield until WaitTime reaches zero
  2: 0x0306 [0x70] WAIT_ENTITY_RENDER_FLAG: Wait while EventEntity->Render.Flags3 bit 2 is set (cancel turn if not)
  3: 0x0307 [0x29] REQ_SET_WAIT(priority=0x08, entity_id=Gomada-Vulmada (ID: 17760340/0x010F0054), tag_num=0x01)
  4: 0x030E [0x1D] PRINT_EVENT_MESSAGE(message_id=4300*)
    → "When I saw the Cat Burglar's tail waving about all to-and-fro as she ran away, my eyes began to spinny-winny. That's why she was able to get away from me!"
  5: 0x0311 [0x23] WAIT_FOR_DIALOG_INTERACTION
  6: 0x0312 [0x29] REQ_SET_WAIT(priority=0x08, entity_id=Gomada-Vulmada (ID: 17760340/0x010F0054), tag_num=0x02)
  7: 0x0319 [0x20] SET_CLI_EVENT_UC_FLAG: Unlock player control
  8: 0x031B [0x21] END_EVENT
  9: 0x031C [0x00] END_REQSTACK()
```

### Event 405

#### Metadata

| Field        | Value    |
|--------------|----------|
| Entrypoint   | 0x031D   |
| Data Size    | 29 bytes |
| Instructions | 10       |

```
      00 01 02 03 04 05 06 07  08 09 0A 0B 0C 0D 0E 0F
      -- -- -- -- -- -- -- --  -- -- -- -- -- -- -- --
0310:                                         1E F0 FF               ...
0320: FF 7F 6F 70 29 08 54 00  0F 01 01 1D 1A 80 23 29  ..op).T.......#)
0330: 08 54 00 0F 01 02 20 00  21 00                    .T.... .!.      
```

#### Opcodes

```
  0: 0x031D [0x1E] EventEntity looks at LocalPlayer and starts talking
  1: 0x0322 [0x6F] WAIT_FRAME_DELAY: Yield until WaitTime reaches zero
  2: 0x0323 [0x70] WAIT_ENTITY_RENDER_FLAG: Wait while EventEntity->Render.Flags3 bit 2 is set (cancel turn if not)
  3: 0x0324 [0x29] REQ_SET_WAIT(priority=0x08, entity_id=Gomada-Vulmada (ID: 17760340/0x010F0054), tag_num=0x01)
  4: 0x032B [0x1D] PRINT_EVENT_MESSAGE(message_id=4301*)
    → "We're not so good at magic-wagic yet, so I don't have a cluey-wuey how a ball like that could make a Cardian move."
  5: 0x032E [0x23] WAIT_FOR_DIALOG_INTERACTION
  6: 0x032F [0x29] REQ_SET_WAIT(priority=0x08, entity_id=Gomada-Vulmada (ID: 17760340/0x010F0054), tag_num=0x02)
  7: 0x0336 [0x20] SET_CLI_EVENT_UC_FLAG: Unlock player control
  8: 0x0338 [0x21] END_EVENT
  9: 0x0339 [0x00] END_REQSTACK()
```

### Event 413

#### Metadata

| Field        | Value   |
|--------------|---------|
| Entrypoint   | 0x033A  |
| Data Size    | 1 bytes |
| Instructions | 1       |

```
      00 01 02 03 04 05 06 07  08 09 0A 0B 0C 0D 0E 0F
      -- -- -- -- -- -- -- --  -- -- -- -- -- -- -- --
0330:                                00                           .     
```

#### Opcodes

```
  0: 0x033A [0x00] END_REQSTACK()
```

### Event 417

#### Metadata

| Field        | Value    |
|--------------|----------|
| Entrypoint   | 0x033B   |
| Data Size    | 33 bytes |
| Instructions | 12       |

```
      00 01 02 03 04 05 06 07  08 09 0A 0B 0C 0D 0E 0F
      -- -- -- -- -- -- -- --  -- -- -- -- -- -- -- --
0330:                                   1E F0 FF FF 7F             .....
0340: 6F 70 29 08 54 00 0F 01  01 1D 1B 80 23 1D 1C 80  op).T.......#...
0350: 23 29 08 54 00 0F 01 02  20 00 21 00              #).T.... .!.    
```

#### Opcodes

```
  0: 0x033B [0x1E] EventEntity looks at LocalPlayer and starts talking
  1: 0x0340 [0x6F] WAIT_FRAME_DELAY: Yield until WaitTime reaches zero
  2: 0x0341 [0x70] WAIT_ENTITY_RENDER_FLAG: Wait while EventEntity->Render.Flags3 bit 2 is set (cancel turn if not)
  3: 0x0342 [0x29] REQ_SET_WAIT(priority=0x08, entity_id=Gomada-Vulmada (ID: 17760340/0x010F0054), tag_num=0x01)
  4: 0x0349 [0x1D] PRINT_EVENT_MESSAGE(message_id=4329*)
    → "If I had a hammer, I'd hammer in the evening, hammer in the morning, hammer everybo`da`y!t Who needs a lockpick when you have a hammer to bish-bash locks with?"
  5: 0x034C [0x23] WAIT_FOR_DIALOG_INTERACTION
  6: 0x034D [0x1D] PRINT_EVENT_MESSAGE(message_id=4330*)
    → "Hmm...but that's just as bad as a robber? Oh well, then again, who cares about the minor points...?"
  7: 0x0350 [0x23] WAIT_FOR_DIALOG_INTERACTION
  8: 0x0351 [0x29] REQ_SET_WAIT(priority=0x08, entity_id=Gomada-Vulmada (ID: 17760340/0x010F0054), tag_num=0x02)
  9: 0x0358 [0x20] SET_CLI_EVENT_UC_FLAG: Unlock player control
 10: 0x035A [0x21] END_EVENT
 11: 0x035B [0x00] END_REQSTACK()
```

### Event 421

#### Metadata

| Field        | Value   |
|--------------|---------|
| Entrypoint   | 0x035C  |
| Data Size    | 1 bytes |
| Instructions | 1       |

```
      00 01 02 03 04 05 06 07  08 09 0A 0B 0C 0D 0E 0F
      -- -- -- -- -- -- -- --  -- -- -- -- -- -- -- --
0350:                                      00                       .   
```

#### Opcodes

```
  0: 0x035C [0x00] END_REQSTACK()
```

### Event 65535.34

#### Metadata

| Field        | Value    |
|--------------|----------|
| Entrypoint   | 0x035D   |
| Data Size    | 19 bytes |
| Instructions | 5        |

```
      00 01 02 03 04 05 06 07  08 09 0A 0B 0C 0D 0E 0F
      -- -- -- -- -- -- -- --  -- -- -- -- -- -- -- --
0350:                                         29 08 54               ).T
0360: 00 0F 01 0B 1D 1D 80 23  29 08 54 00 0F 01 0C 00  .......#).T.....
```

#### Opcodes

```
  0: 0x035D [0x29] REQ_SET_WAIT(priority=0x08, entity_id=Gomada-Vulmada (ID: 17760340/0x010F0054), tag_num=0x0B)
  1: 0x0364 [0x1D] PRINT_EVENT_MESSAGE(message_id=4339*)
    → "What in hell's bells are you doing with it, Pichichi?"
  2: 0x0367 [0x23] WAIT_FOR_DIALOG_INTERACTION
  3: 0x0368 [0x29] REQ_SET_WAIT(priority=0x08, entity_id=Gomada-Vulmada (ID: 17760340/0x010F0054), tag_num=0x0C)
  4: 0x036F [0x00] END_REQSTACK()
```

### Event 425

#### Metadata

| Field        | Value    |
|--------------|----------|
| Entrypoint   | 0x0370   |
| Data Size    | 33 bytes |
| Instructions | 12       |

```
      00 01 02 03 04 05 06 07  08 09 0A 0B 0C 0D 0E 0F
      -- -- -- -- -- -- -- --  -- -- -- -- -- -- -- --
0370: 1E F0 FF FF 7F 6F 70 29  08 54 00 0F 01 01 1D 1E  .....op).T......
0380: 80 23 1D 1F 80 23 29 08  54 00 0F 01 02 20 00 21  .#...#).T.... .!
0390: 00                                                .               
```

#### Opcodes

```
  0: 0x0370 [0x1E] EventEntity looks at LocalPlayer and starts talking
  1: 0x0375 [0x6F] WAIT_FRAME_DELAY: Yield until WaitTime reaches zero
  2: 0x0376 [0x70] WAIT_ENTITY_RENDER_FLAG: Wait while EventEntity->Render.Flags3 bit 2 is set (cancel turn if not)
  3: 0x0377 [0x29] REQ_SET_WAIT(priority=0x08, entity_id=Gomada-Vulmada (ID: 17760340/0x010F0054), tag_num=0x01)
  4: 0x037E [0x1D] PRINT_EVENT_MESSAGE(message_id=4351*)
    → "Erg...I so wanted to show off my hammer-hammering skills."
  5: 0x0381 [0x23] WAIT_FOR_DIALOG_INTERACTION
  6: 0x0382 [0x1D] PRINT_EVENT_MESSAGE(message_id=4352*)
    → "I wanted to become famous for "Gomada-Vulmada's 300 Super-Swift Mega-Hits"!"
  7: 0x0385 [0x23] WAIT_FOR_DIALOG_INTERACTION
  8: 0x0386 [0x29] REQ_SET_WAIT(priority=0x08, entity_id=Gomada-Vulmada (ID: 17760340/0x010F0054), tag_num=0x02)
  9: 0x038D [0x20] SET_CLI_EVENT_UC_FLAG: Unlock player control
 10: 0x038F [0x21] END_EVENT
 11: 0x0390 [0x00] END_REQSTACK()
```

### Event 430

#### Metadata

| Field        | Value   |
|--------------|---------|
| Entrypoint   | 0x0391  |
| Data Size    | 1 bytes |
| Instructions | 1       |

```
      00 01 02 03 04 05 06 07  08 09 0A 0B 0C 0D 0E 0F
      -- -- -- -- -- -- -- --  -- -- -- -- -- -- -- --
0390:    00                                              .              
```

#### Opcodes

```
  0: 0x0391 [0x00] END_REQSTACK()
```

### Event 432

#### Metadata

| Field        | Value   |
|--------------|---------|
| Entrypoint   | 0x0392  |
| Data Size    | 1 bytes |
| Instructions | 1       |

```
      00 01 02 03 04 05 06 07  08 09 0A 0B 0C 0D 0E 0F
      -- -- -- -- -- -- -- --  -- -- -- -- -- -- -- --
0390:       00                                            .             
```

#### Opcodes

```
  0: 0x0392 [0x00] END_REQSTACK()
```

### Event 433

#### Metadata

| Field        | Value   |
|--------------|---------|
| Entrypoint   | 0x0393  |
| Data Size    | 1 bytes |
| Instructions | 1       |

```
      00 01 02 03 04 05 06 07  08 09 0A 0B 0C 0D 0E 0F
      -- -- -- -- -- -- -- --  -- -- -- -- -- -- -- --
0390:          00                                          .            
```

#### Opcodes

```
  0: 0x0393 [0x00] END_REQSTACK()
```

### Event 435

#### Metadata

| Field        | Value    |
|--------------|----------|
| Entrypoint   | 0x0394   |
| Data Size    | 29 bytes |
| Instructions | 10       |

```
      00 01 02 03 04 05 06 07  08 09 0A 0B 0C 0D 0E 0F
      -- -- -- -- -- -- -- --  -- -- -- -- -- -- -- --
0390:             1E F0 FF FF  7F 6F 70 29 08 54 00 0F      .....op).T..
03A0: 01 01 1D 20 80 23 29 08  54 00 0F 01 02 20 00 21  ... .#).T.... .!
03B0: 00                                                .               
```

#### Opcodes

```
  0: 0x0394 [0x1E] EventEntity looks at LocalPlayer and starts talking
  1: 0x0399 [0x6F] WAIT_FRAME_DELAY: Yield until WaitTime reaches zero
  2: 0x039A [0x70] WAIT_ENTITY_RENDER_FLAG: Wait while EventEntity->Render.Flags3 bit 2 is set (cancel turn if not)
  3: 0x039B [0x29] REQ_SET_WAIT(priority=0x08, entity_id=Gomada-Vulmada (ID: 17760340/0x010F0054), tag_num=0x01)
  4: 0x03A2 [0x1D] PRINT_EVENT_MESSAGE(message_id=4379*)
    → "It's the final showdown! Good will at last conquer evil-wevil!"
  5: 0x03A5 [0x23] WAIT_FOR_DIALOG_INTERACTION
  6: 0x03A6 [0x29] REQ_SET_WAIT(priority=0x08, entity_id=Gomada-Vulmada (ID: 17760340/0x010F0054), tag_num=0x02)
  7: 0x03AD [0x20] SET_CLI_EVENT_UC_FLAG: Unlock player control
  8: 0x03AF [0x21] END_EVENT
  9: 0x03B0 [0x00] END_REQSTACK()
```

### Event 442

#### Metadata

| Field        | Value    |
|--------------|----------|
| Entrypoint   | 0x03B1   |
| Data Size    | 33 bytes |
| Instructions | 12       |

```
      00 01 02 03 04 05 06 07  08 09 0A 0B 0C 0D 0E 0F
      -- -- -- -- -- -- -- --  -- -- -- -- -- -- -- --
03B0:    1E F0 FF FF 7F 6F 70  29 08 54 00 0F 01 01 1D   .....op).T.....
03C0: 21 80 23 1D 22 80 23 29  08 54 00 0F 01 02 20 00  !.#.".#).T.... .
03D0: 21 00                                             !.              
```

#### Opcodes

```
  0: 0x03B1 [0x1E] EventEntity looks at LocalPlayer and starts talking
  1: 0x03B6 [0x6F] WAIT_FRAME_DELAY: Yield until WaitTime reaches zero
  2: 0x03B7 [0x70] WAIT_ENTITY_RENDER_FLAG: Wait while EventEntity->Render.Flags3 bit 2 is set (cancel turn if not)
  3: 0x03B8 [0x29] REQ_SET_WAIT(priority=0x08, entity_id=Gomada-Vulmada (ID: 17760340/0x010F0054), tag_num=0x01)
  4: 0x03BF [0x1D] PRINT_EVENT_MESSAGE(message_id=4391*)
    → "Cardians are so strangey-wangey. They don't eat anything at all!"
  5: 0x03C2 [0x23] WAIT_FOR_DIALOG_INTERACTION
  6: 0x03C3 [0x1D] PRINT_EVENT_MESSAGE(message_id=4392*)
    → "Not like us people who eat to live and live to eat!"
  7: 0x03C6 [0x23] WAIT_FOR_DIALOG_INTERACTION
  8: 0x03C7 [0x29] REQ_SET_WAIT(priority=0x08, entity_id=Gomada-Vulmada (ID: 17760340/0x010F0054), tag_num=0x02)
  9: 0x03CE [0x20] SET_CLI_EVENT_UC_FLAG: Unlock player control
 10: 0x03D0 [0x21] END_EVENT
 11: 0x03D1 [0x00] END_REQSTACK()
```

### Event 323

#### Metadata

| Field        | Value   |
|--------------|---------|
| Entrypoint   | 0x03D2  |
| Data Size    | 1 bytes |
| Instructions | 1       |

```
      00 01 02 03 04 05 06 07  08 09 0A 0B 0C 0D 0E 0F
      -- -- -- -- -- -- -- --  -- -- -- -- -- -- -- --
03D0:       00                                            .             
```

#### Opcodes

```
  0: 0x03D2 [0x00] END_REQSTACK()
```

### Event 65535.35

#### Metadata

| Field        | Value    |
|--------------|----------|
| Entrypoint   | 0x03D3   |
| Data Size    | 10 bytes |
| Instructions | 2        |

```
      00 01 02 03 04 05 06 07  08 09 0A 0B 0C 0D 0E 0F
      -- -- -- -- -- -- -- --  -- -- -- -- -- -- -- --
03D0:          37 23 80 24 80  25 80 26 80 00              7#.$.%.&..   
```

#### Opcodes

```
  0: 0x03D3 [0x37] UPDATE_EVENT_POSITION_AND_DIR: x=-22.898*, z=264.508*, y=-18.000*, direction=215.2°*
  1: 0x03DC [0x00] END_REQSTACK()
```

### Event 65535.36

#### Metadata

| Field        | Value    |
|--------------|----------|
| Entrypoint   | 0x03DD   |
| Data Size    | 43 bytes |
| Instructions | 9        |

```
      00 01 02 03 04 05 06 07  08 09 0A 0B 0C 0D 0E 0F
      -- -- -- -- -- -- -- --  -- -- -- -- -- -- -- --
03D0:                                         37 27 80               7'.
03E0: 28 80 29 80 2A 80 32 16  80 1F 00 2B 80 2C 80 2D  (.).*.2....+.,.-
03F0: 80 1F 01 1F 00 2E 80 2F  80 30 80 1F 01 6F 4A 54  ......./.0...oJT
0400: 00 0F 01 F0 FF FF 7F 00                           ........        
```

#### Opcodes

```
  0: 0x03DD [0x37] UPDATE_EVENT_POSITION_AND_DIR: x=-30.482*, z=246.943*, y=-12.423*, direction=299.9°*
  1: 0x03E6 [0x32] ExtData[1]->MainSpeed = 21* * 0.1
  2: 0x03E9 [0x1F] MOVE_ENTITY: EventEntity moves to X=-30.122*, Z=248.993*, Y=-12.281*
  3: 0x03F1 [0x1F] MOVE_ENTITY: Update entity position (mode=1)
  4: 0x03F3 [0x1F] MOVE_ENTITY: EventEntity moves to X=-24.913*, Z=257.105*, Y=-12.648*
  5: 0x03FB [0x1F] MOVE_ENTITY: Update entity position (mode=1)
  6: 0x03FD [0x6F] WAIT_FRAME_DELAY: Yield until WaitTime reaches zero
  7: 0x03FE [0x4A] Gomada-Vulmada (ID: 17760340/0x010F0054) looks at LocalPlayer
  8: 0x0407 [0x00] END_REQSTACK()
```

### Event 65535.37

#### Metadata

| Field        | Value    |
|--------------|----------|
| Entrypoint   | 0x0408   |
| Data Size    | 10 bytes |
| Instructions | 2        |

```
      00 01 02 03 04 05 06 07  08 09 0A 0B 0C 0D 0E 0F
      -- -- -- -- -- -- -- --  -- -- -- -- -- -- -- --
0400:                          37 31 80 32 80 25 80 33          71.2.%.3
0410: 80 00                                             ..              
```

#### Opcodes

```
  0: 0x0408 [0x37] UPDATE_EVENT_POSITION_AND_DIR: x=-24.195*, z=264.424*, y=-18.000*, direction=90.0°*
  1: 0x0411 [0x00] END_REQSTACK()
```

### Event 65535.38

#### Metadata

| Field        | Value    |
|--------------|----------|
| Entrypoint   | 0x0412   |
| Data Size    | 15 bytes |
| Instructions | 5        |

```
      00 01 02 03 04 05 06 07  08 09 0A 0B 0C 0D 0E 0F
      -- -- -- -- -- -- -- --  -- -- -- -- -- -- -- --
0410:       32 16 80 1F 00 34  80 35 80 36 80 1F 01 6F    2....4.5.6...o
0420: 00                                                .               
```

#### Opcodes

```
  0: 0x0412 [0x32] ExtData[1]->MainSpeed = 21* * 0.1
  1: 0x0415 [0x1F] MOVE_ENTITY: EventEntity moves to X=-19.651*, Z=273.488*, Y=-17.500*
  2: 0x041D [0x1F] MOVE_ENTITY: Update entity position (mode=1)
  3: 0x041F [0x6F] WAIT_FRAME_DELAY: Yield until WaitTime reaches zero
  4: 0x0420 [0x00] END_REQSTACK()
```

### Event 65535.39

#### Metadata

| Field        | Value    |
|--------------|----------|
| Entrypoint   | 0x0421   |
| Data Size    | 10 bytes |
| Instructions | 2        |

```
      00 01 02 03 04 05 06 07  08 09 0A 0B 0C 0D 0E 0F
      -- -- -- -- -- -- -- --  -- -- -- -- -- -- -- --
0420:    37 37 80 38 80 39 80  3A 80 00                  77.8.9.:..     
```

#### Opcodes

```
  0: 0x0421 [0x37] UPDATE_EVENT_POSITION_AND_DIR: x=-26.899*, z=258.108*, y=-12.850*, direction=282.9°*
  1: 0x042A [0x00] END_REQSTACK()
```

### Event 65535.40

#### Metadata

| Field        | Value    |
|--------------|----------|
| Entrypoint   | 0x042B   |
| Data Size    | 19 bytes |
| Instructions | 5        |

```
      00 01 02 03 04 05 06 07  08 09 0A 0B 0C 0D 0E 0F
      -- -- -- -- -- -- -- --  -- -- -- -- -- -- -- --
0420:                                   29 08 54 00 0F             ).T..
0430: 01 07 1D 3B 80 23 29 08  54 00 0F 01 08 00        ...;.#).T.....  
```

#### Opcodes

```
  0: 0x042B [0x29] REQ_SET_WAIT(priority=0x08, entity_id=Gomada-Vulmada (ID: 17760340/0x010F0054), tag_num=0x07)
  1: 0x0432 [0x1D] PRINT_EVENT_MESSAGE(message_id=3963*)
    → "Oopsy-daisy!"
  2: 0x0435 [0x23] WAIT_FOR_DIALOG_INTERACTION
  3: 0x0436 [0x29] REQ_SET_WAIT(priority=0x08, entity_id=Gomada-Vulmada (ID: 17760340/0x010F0054), tag_num=0x08)
  4: 0x043D [0x00] END_REQSTACK()
```

### Event 65535.41

#### Metadata

| Field        | Value   |
|--------------|---------|
| Entrypoint   | 0x043E  |
| Data Size    | 5 bytes |
| Instructions | 3       |

```
      00 01 02 03 04 05 06 07  08 09 0A 0B 0C 0D 0E 0F
      -- -- -- -- -- -- -- --  -- -- -- -- -- -- -- --
0430:                                            1D 3C                .<
0440: 80 23 00                                          .#.             
```

#### Opcodes

```
  0: 0x043E [0x1D] PRINT_EVENT_MESSAGE(message_id=3973*)
    → "Hi-ho Silver!"
  1: 0x0441 [0x23] WAIT_FOR_DIALOG_INTERACTION
  2: 0x0442 [0x00] END_REQSTACK()
```

### Event 324

#### Metadata

| Field        | Value   |
|--------------|---------|
| Entrypoint   | 0x0443  |
| Data Size    | 1 bytes |
| Instructions | 1       |

```
      00 01 02 03 04 05 06 07  08 09 0A 0B 0C 0D 0E 0F
      -- -- -- -- -- -- -- --  -- -- -- -- -- -- -- --
0440:          00                                          .            
```

#### Opcodes

```
  0: 0x0443 [0x00] END_REQSTACK()
```

### Event 65535.42

#### Metadata

| Field        | Value    |
|--------------|----------|
| Entrypoint   | 0x0444   |
| Data Size    | 10 bytes |
| Instructions | 2        |

```
      00 01 02 03 04 05 06 07  08 09 0A 0B 0C 0D 0E 0F
      -- -- -- -- -- -- -- --  -- -- -- -- -- -- -- --
0440:             37 3D 80 3E  80 3F 80 40 80 00            7=.>.?.@..  
```

#### Opcodes

```
  0: 0x0444 [0x37] UPDATE_EVENT_POSITION_AND_DIR: x=-26.482*, z=272.571*, y=-12.000*, direction=72.6°*
  1: 0x044D [0x00] END_REQSTACK()
```

### Event 65535.43

#### Metadata

| Field        | Value    |
|--------------|----------|
| Entrypoint   | 0x044E   |
| Data Size    | 37 bytes |
| Instructions | 9        |

```
      00 01 02 03 04 05 06 07  08 09 0A 0B 0C 0D 0E 0F
      -- -- -- -- -- -- -- --  -- -- -- -- -- -- -- --
0440:                                            37 41                7A
0450: 80 42 80 43 80 44 80 32  16 80 1F 00 45 80 46 80  .B.C.D.2....E.F.
0460: 3F 80 1F 01 1F 00 47 80  48 80 3F 80 1F 01 6F 39  ?.....G.H.?...o9
0470: 49 80 00                                          I..             
```

#### Opcodes

```
  0: 0x044E [0x37] UPDATE_EVENT_POSITION_AND_DIR: x=-26.404*, z=264.582*, y=-13.124*, direction=281.3°*
  1: 0x0457 [0x32] ExtData[1]->MainSpeed = 21* * 0.1
  2: 0x045A [0x1F] MOVE_ENTITY: EventEntity moves to X=-26.362*, Z=270.518*, Y=-12.000*
  3: 0x0462 [0x1F] MOVE_ENTITY: Update entity position (mode=1)
  4: 0x0464 [0x1F] MOVE_ENTITY: EventEntity moves to X=-24.711*, Z=272.574*, Y=-12.000*
  5: 0x046C [0x1F] MOVE_ENTITY: Update entity position (mode=1)
  6: 0x046E [0x6F] WAIT_FRAME_DELAY: Yield until WaitTime reaches zero
  7: 0x046F [0x39] SET_ENTITY_DIRECTION(direction=1.6°*)
  8: 0x0472 [0x00] END_REQSTACK()
```

### Event 65535.44

#### Metadata

| Field        | Value    |
|--------------|----------|
| Entrypoint   | 0x0473   |
| Data Size    | 49 bytes |
| Instructions | 9        |

```
      00 01 02 03 04 05 06 07  08 09 0A 0B 0C 0D 0E 0F
      -- -- -- -- -- -- -- --  -- -- -- -- -- -- -- --
0470:          1C 4A 80 4A 54  00 0F 01 5A 00 0F 01 1C     .J.JT...Z....
0480: 4B 80 4A 54 00 0F 01 5A  00 0F 01 1C 4B 80 4A 54  K.JT...Z....K.JT
0490: 00 0F 01 5A 00 0F 01 1C  4B 80 4A 54 00 0F 01 5A  ...Z....K.JT...Z
04A0: 00 0F 01 00                                       ....            
```

#### Opcodes

```
  0: 0x0473 [0x1C] WAIT(10* ticks)
  1: 0x0476 [0x4A] Gomada-Vulmada (ID: 17760340/0x010F0054) looks at Nanaa Mihgo (ID: 17760346/0x010F005A)
  2: 0x047F [0x1C] WAIT(100* ticks)
  3: 0x0482 [0x4A] Gomada-Vulmada (ID: 17760340/0x010F0054) looks at Nanaa Mihgo (ID: 17760346/0x010F005A)
  4: 0x048B [0x1C] WAIT(100* ticks)
  5: 0x048E [0x4A] Gomada-Vulmada (ID: 17760340/0x010F0054) looks at Nanaa Mihgo (ID: 17760346/0x010F005A)
  6: 0x0497 [0x1C] WAIT(100* ticks)
  7: 0x049A [0x4A] Gomada-Vulmada (ID: 17760340/0x010F0054) looks at Nanaa Mihgo (ID: 17760346/0x010F005A)
  8: 0x04A3 [0x00] END_REQSTACK()
```

### Event 65535.45

#### Metadata

| Field        | Value    |
|--------------|----------|
| Entrypoint   | 0x04A4   |
| Data Size    | 10 bytes |
| Instructions | 2        |

```
      00 01 02 03 04 05 06 07  08 09 0A 0B 0C 0D 0E 0F
      -- -- -- -- -- -- -- --  -- -- -- -- -- -- -- --
04A0:             37 4C 80 4D  80 4E 80 4F 80 00            7L.M.N.O..  
```

#### Opcodes

```
  0: 0x04A4 [0x37] UPDATE_EVENT_POSITION_AND_DIR: x=-29.303*, z=282.067*, y=-13.000*, direction=282.8°*
  1: 0x04AD [0x00] END_REQSTACK()
```

### Event 65535.46

#### Metadata

| Field        | Value    |
|--------------|----------|
| Entrypoint   | 0x04AE   |
| Data Size    | 10 bytes |
| Instructions | 2        |

```
      00 01 02 03 04 05 06 07  08 09 0A 0B 0C 0D 0E 0F
      -- -- -- -- -- -- -- --  -- -- -- -- -- -- -- --
04A0:                                            37 50                7P
04B0: 80 51 80 4E 80 52 80 00                           .Q.N.R..        
```

#### Opcodes

```
  0: 0x04AE [0x37] UPDATE_EVENT_POSITION_AND_DIR: x=-32.738*, z=279.125*, y=-13.000*, direction=234.1°*
  1: 0x04B7 [0x00] END_REQSTACK()
```

### Event 65535.47

#### Metadata

| Field        | Value    |
|--------------|----------|
| Entrypoint   | 0x04B8   |
| Data Size    | 24 bytes |
| Instructions | 6        |

```
      00 01 02 03 04 05 06 07  08 09 0A 0B 0C 0D 0E 0F
      -- -- -- -- -- -- -- --  -- -- -- -- -- -- -- --
04B0:                          32 16 80 1F 00 53 80 54          2....S.T
04C0: 80 55 80 1F 01 6F 4A 54  00 0F 01 53 00 0F 01 00  .U...oJT...S....
```

#### Opcodes

```
  0: 0x04B8 [0x32] ExtData[1]->MainSpeed = 21* * 0.1
  1: 0x04BB [0x1F] MOVE_ENTITY: EventEntity moves to X=-21.427*, Z=281.277*, Y=-12.999*
  2: 0x04C3 [0x1F] MOVE_ENTITY: Update entity position (mode=1)
  3: 0x04C5 [0x6F] WAIT_FRAME_DELAY: Yield until WaitTime reaches zero
  4: 0x04C6 [0x4A] Gomada-Vulmada (ID: 17760340/0x010F0054) looks at Papo-Hopo (ID: 17760339/0x010F0053)
  5: 0x04CF [0x00] END_REQSTACK()
```

### Event 65535.48

#### Metadata

| Field        | Value    |
|--------------|----------|
| Entrypoint   | 0x04D0   |
| Data Size    | 33 bytes |
| Instructions | 7        |

```
      00 01 02 03 04 05 06 07  08 09 0A 0B 0C 0D 0E 0F
      -- -- -- -- -- -- -- --  -- -- -- -- -- -- -- --
04D0: 37 56 80 57 80 55 80 58  80 32 16 80 1F 00 53 80  7V.W.U.X.2....S.
04E0: 54 80 55 80 1F 01 6F 4A  54 00 0F 01 53 00 0F 01  T.U...oJT...S...
04F0: 00                                                .               
```

#### Opcodes

```
  0: 0x04D0 [0x37] UPDATE_EVENT_POSITION_AND_DIR: x=-25.062*, z=280.469*, y=-12.999*, direction=353.4°*
  1: 0x04D9 [0x32] ExtData[1]->MainSpeed = 21* * 0.1
  2: 0x04DC [0x1F] MOVE_ENTITY: EventEntity moves to X=-21.427*, Z=281.277*, Y=-12.999*
  3: 0x04E4 [0x1F] MOVE_ENTITY: Update entity position (mode=1)
  4: 0x04E6 [0x6F] WAIT_FRAME_DELAY: Yield until WaitTime reaches zero
  5: 0x04E7 [0x4A] Gomada-Vulmada (ID: 17760340/0x010F0054) looks at Papo-Hopo (ID: 17760339/0x010F0053)
  6: 0x04F0 [0x00] END_REQSTACK()
```

### Event 65535.49

#### Metadata

| Field        | Value    |
|--------------|----------|
| Entrypoint   | 0x04F1   |
| Data Size    | 19 bytes |
| Instructions | 5        |

```
      00 01 02 03 04 05 06 07  08 09 0A 0B 0C 0D 0E 0F
      -- -- -- -- -- -- -- --  -- -- -- -- -- -- -- --
04F0:    29 08 54 00 0F 01 01  1D 59 80 23 29 08 54 00   ).T.....Y.#).T.
0500: 0F 01 02 00                                       ....            
```

#### Opcodes

```
  0: 0x04F1 [0x29] REQ_SET_WAIT(priority=0x08, entity_id=Gomada-Vulmada (ID: 17760340/0x010F0054), tag_num=0x01)
  1: 0x04F8 [0x1D] PRINT_EVENT_MESSAGE(message_id=4022*)
    → "Phew..."
  2: 0x04FB [0x23] WAIT_FOR_DIALOG_INTERACTION
  3: 0x04FC [0x29] REQ_SET_WAIT(priority=0x08, entity_id=Gomada-Vulmada (ID: 17760340/0x010F0054), tag_num=0x02)
  4: 0x0503 [0x00] END_REQSTACK()
```

### Event 65535.50

#### Metadata

| Field        | Value    |
|--------------|----------|
| Entrypoint   | 0x0504   |
| Data Size    | 30 bytes |
| Instructions | 8        |

```
      00 01 02 03 04 05 06 07  08 09 0A 0B 0C 0D 0E 0F
      -- -- -- -- -- -- -- --  -- -- -- -- -- -- -- --
0500:             1C 01 80 37  5A 80 5B 80 55 80 5C 80      ...7Z.[.U.\.
0510: 32 16 80 1F 00 5D 80 5E  80 5F 80 1F 01 6F 39 60  2....].^._...o9`
0520: 80 00                                             ..              
```

#### Opcodes

```
  0: 0x0504 [0x1C] WAIT(30* ticks)
  1: 0x0507 [0x37] UPDATE_EVENT_POSITION_AND_DIR: x=-25.475*, z=261.248*, y=-12.999*, direction=88.6°*
  2: 0x0510 [0x32] ExtData[1]->MainSpeed = 21* * 0.1
  3: 0x0513 [0x1F] MOVE_ENTITY: EventEntity moves to X=-24.981*, Z=252.001*, Y=-12.257*
  4: 0x051B [0x1F] MOVE_ENTITY: Update entity position (mode=1)
  5: 0x051D [0x6F] WAIT_FRAME_DELAY: Yield until WaitTime reaches zero
  6: 0x051E [0x39] SET_ENTITY_DIRECTION(direction=8.0°*)
  7: 0x0521 [0x00] END_REQSTACK()
```

### Event 65535.51

#### Metadata

| Field        | Value    |
|--------------|----------|
| Entrypoint   | 0x0522   |
| Data Size    | 17 bytes |
| Instructions | 6        |

```
      00 01 02 03 04 05 06 07  08 09 0A 0B 0C 0D 0E 0F
      -- -- -- -- -- -- -- --  -- -- -- -- -- -- -- --
0520:       32 16 80 1F 00 61  80 62 80 63 80 1F 01 6F    2....a.b.c...o
0530: 22 01 00                                          "..             
```

#### Opcodes

```
  0: 0x0522 [0x32] ExtData[1]->MainSpeed = 21* * 0.1
  1: 0x0525 [0x1F] MOVE_ENTITY: EventEntity moves to X=-38.938*, Z=242.173*, Y=-12.499*
  2: 0x052D [0x1F] MOVE_ENTITY: Update entity position (mode=1)
  3: 0x052F [0x6F] WAIT_FRAME_DELAY: Yield until WaitTime reaches zero
  4: 0x0530 [0x22] ENTITY_HIDE_FLAG(enabled=0x01)
  5: 0x0532 [0x00] END_REQSTACK()
```

### Event 65535.52

#### Metadata

| Field        | Value    |
|--------------|----------|
| Entrypoint   | 0x0533   |
| Data Size    | 19 bytes |
| Instructions | 5        |

```
      00 01 02 03 04 05 06 07  08 09 0A 0B 0C 0D 0E 0F
      -- -- -- -- -- -- -- --  -- -- -- -- -- -- -- --
0530:          29 08 54 00 0F  01 01 1D 64 80 23 29 08     ).T.....d.#).
0540: 54 00 0F 01 02 00                                 T.....          
```

#### Opcodes

```
  0: 0x0533 [0x29] REQ_SET_WAIT(priority=0x08, entity_id=Gomada-Vulmada (ID: 17760340/0x010F0054), tag_num=0x01)
  1: 0x053A [0x1D] PRINT_EVENT_MESSAGE(message_id=4051*)
    → "But it was no ghosty-whosty, it was a Cardiany!"
  2: 0x053D [0x23] WAIT_FOR_DIALOG_INTERACTION
  3: 0x053E [0x29] REQ_SET_WAIT(priority=0x08, entity_id=Gomada-Vulmada (ID: 17760340/0x010F0054), tag_num=0x02)
  4: 0x0545 [0x00] END_REQSTACK()
```

### Event 496

#### Metadata

| Field        | Value   |
|--------------|---------|
| Entrypoint   | 0x0546  |
| Data Size    | 1 bytes |
| Instructions | 1       |

```
      00 01 02 03 04 05 06 07  08 09 0A 0B 0C 0D 0E 0F
      -- -- -- -- -- -- -- --  -- -- -- -- -- -- -- --
0540:                   00                                    .         
```

#### Opcodes

```
  0: 0x0546 [0x00] END_REQSTACK()
```

### Event 65535.53

#### Metadata

| Field        | Value   |
|--------------|---------|
| Entrypoint   | 0x0547  |
| Data Size    | 5 bytes |
| Instructions | 3       |

```
      00 01 02 03 04 05 06 07  08 09 0A 0B 0C 0D 0E 0F
      -- -- -- -- -- -- -- --  -- -- -- -- -- -- -- --
0540:                      1D  65 80 23 00                     .e.#.    
```

#### Opcodes

```
  0: 0x0547 [0x1D] PRINT_EVENT_MESSAGE(message_id=12417*)
    → "He also said that if we don't give it back, he'll get the boss-woss from the Manustery onto us! We're getting framed as a gang of villain-willains!"
  1: 0x054A [0x23] WAIT_FOR_DIALOG_INTERACTION
  2: 0x054B [0x00] END_REQSTACK()
```

### Event 497

#### Metadata

| Field        | Value   |
|--------------|---------|
| Entrypoint   | 0x054C  |
| Data Size    | 1 bytes |
| Instructions | 1       |

```
      00 01 02 03 04 05 06 07  08 09 0A 0B 0C 0D 0E 0F
      -- -- -- -- -- -- -- --  -- -- -- -- -- -- -- --
0540:                                      00                       .   
```

#### Opcodes

```
  0: 0x054C [0x00] END_REQSTACK()
```

### Event 65535.54

#### Metadata

| Field        | Value    |
|--------------|----------|
| Entrypoint   | 0x054D   |
| Data Size    | 10 bytes |
| Instructions | 2        |

```
      00 01 02 03 04 05 06 07  08 09 0A 0B 0C 0D 0E 0F
      -- -- -- -- -- -- -- --  -- -- -- -- -- -- -- --
0540:                                         37 66 80               7f.
0550: 67 80 68 80 69 80 00                              g.h.i..         
```

#### Opcodes

```
  0: 0x054D [0x37] UPDATE_EVENT_POSITION_AND_DIR: x=-23.144*, z=189.141*, y=-6.000*, direction=284.2°*
  1: 0x0556 [0x00] END_REQSTACK()
```

### Event 65535.55

#### Metadata

| Field        | Value   |
|--------------|---------|
| Entrypoint   | 0x0557  |
| Data Size    | 5 bytes |
| Instructions | 3       |

```
      00 01 02 03 04 05 06 07  08 09 0A 0B 0C 0D 0E 0F
      -- -- -- -- -- -- -- --  -- -- -- -- -- -- -- --
0550:                      1D  6A 80 23 00                     .j.#.    
```

#### Opcodes

```
  0: 0x0557 [0x1D] PRINT_EVENT_MESSAGE(message_id=12444*)
    → "Let's tell him it was gobble-wobbled up by a dhamel in Windurst Woods!"
  1: 0x055A [0x23] WAIT_FOR_DIALOG_INTERACTION
  2: 0x055B [0x00] END_REQSTACK()
```

### Event 500

#### Metadata

| Field        | Value    |
|--------------|----------|
| Entrypoint   | 0x055C   |
| Data Size    | 33 bytes |
| Instructions | 12       |

```
      00 01 02 03 04 05 06 07  08 09 0A 0B 0C 0D 0E 0F
      -- -- -- -- -- -- -- --  -- -- -- -- -- -- -- --
0550:                                      1E F0 FF FF              ....
0560: 7F 6F 70 29 08 54 00 0F  01 09 1D 6B 80 23 1D 6C  .op).T.....k.#.l
0570: 80 23 29 08 54 00 0F 01  0A 20 00 21 00           .#).T.... .!.   
```

#### Opcodes

```
  0: 0x055C [0x1E] EventEntity looks at LocalPlayer and starts talking
  1: 0x0561 [0x6F] WAIT_FRAME_DELAY: Yield until WaitTime reaches zero
  2: 0x0562 [0x70] WAIT_ENTITY_RENDER_FLAG: Wait while EventEntity->Render.Flags3 bit 2 is set (cancel turn if not)
  3: 0x0563 [0x29] REQ_SET_WAIT(priority=0x08, entity_id=Gomada-Vulmada (ID: 17760340/0x010F0054), tag_num=0x09)
  4: 0x056A [0x1D] PRINT_EVENT_MESSAGE(message_id=12429*)
    → "The Star Onion Brigade is not a gang of villain-willains!"
  5: 0x056D [0x23] WAIT_FOR_DIALOG_INTERACTION
  6: 0x056E [0x1D] PRINT_EVENT_MESSAGE(message_id=12430*)
    → "That Mana Orb belongs to Joker. It got sucked right into him like it was a perfect fit! It must be his!"
  7: 0x0571 [0x23] WAIT_FOR_DIALOG_INTERACTION
  8: 0x0572 [0x29] REQ_SET_WAIT(priority=0x08, entity_id=Gomada-Vulmada (ID: 17760340/0x010F0054), tag_num=0x0A)
  9: 0x0579 [0x20] SET_CLI_EVENT_UC_FLAG: Unlock player control
 10: 0x057B [0x21] END_EVENT
 11: 0x057C [0x00] END_REQSTACK()
```

### Event 507

#### Metadata

| Field        | Value    |
|--------------|----------|
| Entrypoint   | 0x057D   |
| Data Size    | 47 bytes |
| Instructions | 14       |

```
      00 01 02 03 04 05 06 07  08 09 0A 0B 0C 0D 0E 0F
      -- -- -- -- -- -- -- --  -- -- -- -- -- -- -- --
0570:                                         1E F0 FF               ...
0580: FF 7F 6F 70 29 08 54 00  0F 01 12 1D 6D 80 23 29  ..op).T.....m.#)
0590: 08 54 00 0F 01 13 29 08  54 00 0F 01 14 1D 6E 80  .T....).T.....n.
05A0: 23 29 08 54 00 0F 01 15  20 00 21 00              #).T.... .!.    
```

#### Opcodes

```
  0: 0x057D [0x1E] EventEntity looks at LocalPlayer and starts talking
  1: 0x0582 [0x6F] WAIT_FRAME_DELAY: Yield until WaitTime reaches zero
  2: 0x0583 [0x70] WAIT_ENTITY_RENDER_FLAG: Wait while EventEntity->Render.Flags3 bit 2 is set (cancel turn if not)
  3: 0x0584 [0x29] REQ_SET_WAIT(priority=0x08, entity_id=Gomada-Vulmada (ID: 17760340/0x010F0054), tag_num=0x12)
  4: 0x058B [0x1D] PRINT_EVENT_MESSAGE(message_id=12461*)
    → "Huh. I never would've thought of taking Joker to pieces."
  5: 0x058E [0x23] WAIT_FOR_DIALOG_INTERACTION
  6: 0x058F [0x29] REQ_SET_WAIT(priority=0x08, entity_id=Gomada-Vulmada (ID: 17760340/0x010F0054), tag_num=0x13)
  7: 0x0596 [0x29] REQ_SET_WAIT(priority=0x08, entity_id=Gomada-Vulmada (ID: 17760340/0x010F0054), tag_num=0x14)
  8: 0x059D [0x1D] PRINT_EVENT_MESSAGE(message_id=12462*)
    → "Adults always think of the most horrible-worrible things first."
  9: 0x05A0 [0x23] WAIT_FOR_DIALOG_INTERACTION
 10: 0x05A1 [0x29] REQ_SET_WAIT(priority=0x08, entity_id=Gomada-Vulmada (ID: 17760340/0x010F0054), tag_num=0x15)
 11: 0x05A8 [0x20] SET_CLI_EVENT_UC_FLAG: Unlock player control
 12: 0x05AA [0x21] END_EVENT
 13: 0x05AB [0x00] END_REQSTACK()
```

### Event 513

#### Metadata

| Field        | Value   |
|--------------|---------|
| Entrypoint   | 0x05AC  |
| Data Size    | 1 bytes |
| Instructions | 1       |

```
      00 01 02 03 04 05 06 07  08 09 0A 0B 0C 0D 0E 0F
      -- -- -- -- -- -- -- --  -- -- -- -- -- -- -- --
05A0:                                      00                       .   
```

#### Opcodes

```
  0: 0x05AC [0x00] END_REQSTACK()
```

### Event 65535.56

#### Metadata

| Field        | Value   |
|--------------|---------|
| Entrypoint   | 0x05AD  |
| Data Size    | 5 bytes |
| Instructions | 3       |

```
      00 01 02 03 04 05 06 07  08 09 0A 0B 0C 0D 0E 0F
      -- -- -- -- -- -- -- --  -- -- -- -- -- -- -- --
05A0:                                         1D 6F 80               .o.
05B0: 23 00                                             #.              
```

#### Opcodes

```
  0: 0x05AD [0x1D] PRINT_EVENT_MESSAGE(message_id=12480*)
    → "...Hey, I know. Why don't we take Joker so far away that Honoi-Gomoi will never-ever find him?"
  1: 0x05B0 [0x23] WAIT_FOR_DIALOG_INTERACTION
  2: 0x05B1 [0x00] END_REQSTACK()
```

### Event 65535.57

#### Metadata

| Field        | Value   |
|--------------|---------|
| Entrypoint   | 0x05B2  |
| Data Size    | 5 bytes |
| Instructions | 3       |

```
      00 01 02 03 04 05 06 07  08 09 0A 0B 0C 0D 0E 0F
      -- -- -- -- -- -- -- --  -- -- -- -- -- -- -- --
05B0:       1D 70 80 23 00                                .p.#.         
```

#### Opcodes

```
  0: 0x05B2 [0x1D] PRINT_EVENT_MESSAGE(message_id=12481*)
    → "Even furtherer away than San d'Oria or Bastok. Somewhere where even adventurers are afraid to go."
  1: 0x05B5 [0x23] WAIT_FOR_DIALOG_INTERACTION
  2: 0x05B6 [0x00] END_REQSTACK()
```

### Event 518

#### Metadata

| Field        | Value    |
|--------------|----------|
| Entrypoint   | 0x05B7   |
| Data Size    | 47 bytes |
| Instructions | 14       |

```
      00 01 02 03 04 05 06 07  08 09 0A 0B 0C 0D 0E 0F
      -- -- -- -- -- -- -- --  -- -- -- -- -- -- -- --
05B0:                      1E  F0 FF FF 7F 6F 70 29 08         .....op).
05C0: 54 00 0F 01 12 1D 71 80  23 29 08 54 00 0F 01 13  T.....q.#).T....
05D0: 29 08 54 00 0F 01 14 1D  72 80 23 29 08 54 00 0F  ).T.....r.#).T..
05E0: 01 15 20 00 21 00                                 .. .!.          
```

#### Opcodes

```
  0: 0x05B7 [0x1E] EventEntity looks at LocalPlayer and starts talking
  1: 0x05BC [0x6F] WAIT_FRAME_DELAY: Yield until WaitTime reaches zero
  2: 0x05BD [0x70] WAIT_ENTITY_RENDER_FLAG: Wait while EventEntity->Render.Flags3 bit 2 is set (cancel turn if not)
  3: 0x05BE [0x29] REQ_SET_WAIT(priority=0x08, entity_id=Gomada-Vulmada (ID: 17760340/0x010F0054), tag_num=0x12)
  4: 0x05C5 [0x1D] PRINT_EVENT_MESSAGE(message_id=12506*)
    → "I wonder why Honoi-Gomoi wants that particular Mana Orb so much?"
  5: 0x05C8 [0x23] WAIT_FOR_DIALOG_INTERACTION
  6: 0x05C9 [0x29] REQ_SET_WAIT(priority=0x08, entity_id=Gomada-Vulmada (ID: 17760340/0x010F0054), tag_num=0x13)
  7: 0x05D0 [0x29] REQ_SET_WAIT(priority=0x08, entity_id=Gomada-Vulmada (ID: 17760340/0x010F0054), tag_num=0x14)
  8: 0x05D7 [0x1D] PRINT_EVENT_MESSAGE(message_id=12507*)
    → "I wouldn't want to become a hard-headed old man like that for all the gil in Vana'diel. No one would like me."
  9: 0x05DA [0x23] WAIT_FOR_DIALOG_INTERACTION
 10: 0x05DB [0x29] REQ_SET_WAIT(priority=0x08, entity_id=Gomada-Vulmada (ID: 17760340/0x010F0054), tag_num=0x15)
 11: 0x05E2 [0x20] SET_CLI_EVENT_UC_FLAG: Unlock player control
 12: 0x05E4 [0x21] END_EVENT
 13: 0x05E5 [0x00] END_REQSTACK()
```

### Event 522

#### Metadata

| Field        | Value   |
|--------------|---------|
| Entrypoint   | 0x05E6  |
| Data Size    | 1 bytes |
| Instructions | 1       |

```
      00 01 02 03 04 05 06 07  08 09 0A 0B 0C 0D 0E 0F
      -- -- -- -- -- -- -- --  -- -- -- -- -- -- -- --
05E0:                   00                                    .         
```

#### Opcodes

```
  0: 0x05E6 [0x00] END_REQSTACK()
```

### Event 528

#### Metadata

| Field        | Value    |
|--------------|----------|
| Entrypoint   | 0x05E7   |
| Data Size    | 47 bytes |
| Instructions | 14       |

```
      00 01 02 03 04 05 06 07  08 09 0A 0B 0C 0D 0E 0F
      -- -- -- -- -- -- -- --  -- -- -- -- -- -- -- --
05E0:                      1E  F0 FF FF 7F 6F 70 29 08         .....op).
05F0: 54 00 0F 01 07 1D 73 80  23 29 08 54 00 0F 01 08  T.....s.#).T....
0600: 29 08 54 00 0F 01 09 1D  74 80 23 29 08 54 00 0F  ).T.....t.#).T..
0610: 01 0A 20 00 21 00                                 .. .!.          
```

#### Opcodes

```
  0: 0x05E7 [0x1E] EventEntity looks at LocalPlayer and starts talking
  1: 0x05EC [0x6F] WAIT_FRAME_DELAY: Yield until WaitTime reaches zero
  2: 0x05ED [0x70] WAIT_ENTITY_RENDER_FLAG: Wait while EventEntity->Render.Flags3 bit 2 is set (cancel turn if not)
  3: 0x05EE [0x29] REQ_SET_WAIT(priority=0x08, entity_id=Gomada-Vulmada (ID: 17760340/0x010F0054), tag_num=0x07)
  4: 0x05F5 [0x1D] PRINT_EVENT_MESSAGE(message_id=12549*)
    → "Wowzie-powzie! Those bad guy Cardians were totally intimidating! They were way more scary than Nanaa-Mihgo!"
  5: 0x05F8 [0x23] WAIT_FOR_DIALOG_INTERACTION
  6: 0x05F9 [0x29] REQ_SET_WAIT(priority=0x08, entity_id=Gomada-Vulmada (ID: 17760340/0x010F0054), tag_num=0x08)
  7: 0x0600 [0x29] REQ_SET_WAIT(priority=0x08, entity_id=Gomada-Vulmada (ID: 17760340/0x010F0054), tag_num=0x09)
  8: 0x0607 [0x1D] PRINT_EVENT_MESSAGE(message_id=12550*)
    → "Man! If I were a grown-up wizard, I could have saved everyone with my magic! Why do I still gotta be a kid?"
  9: 0x060A [0x23] WAIT_FOR_DIALOG_INTERACTION
 10: 0x060B [0x29] REQ_SET_WAIT(priority=0x08, entity_id=Gomada-Vulmada (ID: 17760340/0x010F0054), tag_num=0x0A)
 11: 0x0612 [0x20] SET_CLI_EVENT_UC_FLAG: Unlock player control
 12: 0x0614 [0x21] END_EVENT
 13: 0x0615 [0x00] END_REQSTACK()
```

### Event 65535.58

#### Metadata

| Field        | Value    |
|--------------|----------|
| Entrypoint   | 0x0616   |
| Data Size    | 10 bytes |
| Instructions | 2        |

```
      00 01 02 03 04 05 06 07  08 09 0A 0B 0C 0D 0E 0F
      -- -- -- -- -- -- -- --  -- -- -- -- -- -- -- --
0610:                   37 75  80 76 80 68 80 77 80 00        7u.v.h.w..
```

#### Opcodes

```
  0: 0x0616 [0x37] UPDATE_EVENT_POSITION_AND_DIR: x=-23.660*, z=189.491*, y=-6.000*, direction=345.4°*
  1: 0x061F [0x00] END_REQSTACK()
```

### Event 532

#### Metadata

| Field        | Value   |
|--------------|---------|
| Entrypoint   | 0x0620  |
| Data Size    | 1 bytes |
| Instructions | 1       |

```
      00 01 02 03 04 05 06 07  08 09 0A 0B 0C 0D 0E 0F
      -- -- -- -- -- -- -- --  -- -- -- -- -- -- -- --
0620: 00                                                .               
```

#### Opcodes

```
  0: 0x0620 [0x00] END_REQSTACK()
```

### Event 534

#### Metadata

| Field        | Value   |
|--------------|---------|
| Entrypoint   | 0x0621  |
| Data Size    | 1 bytes |
| Instructions | 1       |

```
      00 01 02 03 04 05 06 07  08 09 0A 0B 0C 0D 0E 0F
      -- -- -- -- -- -- -- --  -- -- -- -- -- -- -- --
0620:    00                                              .              
```

#### Opcodes

```
  0: 0x0621 [0x00] END_REQSTACK()
```

### Event 540

#### Metadata

| Field        | Value    |
|--------------|----------|
| Entrypoint   | 0x0622   |
| Data Size    | 29 bytes |
| Instructions | 10       |

```
      00 01 02 03 04 05 06 07  08 09 0A 0B 0C 0D 0E 0F
      -- -- -- -- -- -- -- --  -- -- -- -- -- -- -- --
0620:       1E F0 FF FF 7F 6F  70 29 08 54 00 0F 01 09    .....op).T....
0630: 1D 78 80 23 29 08 54 00  0F 01 0A 20 00 21 00     .x.#).T.... .!. 
```

#### Opcodes

```
  0: 0x0622 [0x1E] EventEntity looks at LocalPlayer and starts talking
  1: 0x0627 [0x6F] WAIT_FRAME_DELAY: Yield until WaitTime reaches zero
  2: 0x0628 [0x70] WAIT_ENTITY_RENDER_FLAG: Wait while EventEntity->Render.Flags3 bit 2 is set (cancel turn if not)
  3: 0x0629 [0x29] REQ_SET_WAIT(priority=0x08, entity_id=Gomada-Vulmada (ID: 17760340/0x010F0054), tag_num=0x09)
  4: 0x0630 [0x1D] PRINT_EVENT_MESSAGE(message_id=12561*)
    → "Man, if only I was a grown-up wizard! Star Sibyl, make me an adult now, I don't want to wait!"
  5: 0x0633 [0x23] WAIT_FOR_DIALOG_INTERACTION
  6: 0x0634 [0x29] REQ_SET_WAIT(priority=0x08, entity_id=Gomada-Vulmada (ID: 17760340/0x010F0054), tag_num=0x0A)
  7: 0x063B [0x20] SET_CLI_EVENT_UC_FLAG: Unlock player control
  8: 0x063D [0x21] END_EVENT
  9: 0x063E [0x00] END_REQSTACK()
```

### Event 542

#### Metadata

| Field        | Value   |
|--------------|---------|
| Entrypoint   | 0x063F  |
| Data Size    | 1 bytes |
| Instructions | 1       |

```
      00 01 02 03 04 05 06 07  08 09 0A 0B 0C 0D 0E 0F
      -- -- -- -- -- -- -- --  -- -- -- -- -- -- -- --
0630:                                               00                 .
```

#### Opcodes

```
  0: 0x063F [0x00] END_REQSTACK()
```

### Event 590

#### Metadata

| Field        | Value    |
|--------------|----------|
| Entrypoint   | 0x0640   |
| Data Size    | 33 bytes |
| Instructions | 12       |

```
      00 01 02 03 04 05 06 07  08 09 0A 0B 0C 0D 0E 0F
      -- -- -- -- -- -- -- --  -- -- -- -- -- -- -- --
0640: 1E F0 FF FF 7F 6F 70 29  08 54 00 0F 01 09 1D 79  .....op).T.....y
0650: 80 23 1D 7A 80 23 29 08  54 00 0F 01 0A 20 00 21  .#.z.#).T.... .!
0660: 00                                                .               
```

#### Opcodes

```
  0: 0x0640 [0x1E] EventEntity looks at LocalPlayer and starts talking
  1: 0x0645 [0x6F] WAIT_FRAME_DELAY: Yield until WaitTime reaches zero
  2: 0x0646 [0x70] WAIT_ENTITY_RENDER_FLAG: Wait while EventEntity->Render.Flags3 bit 2 is set (cancel turn if not)
  3: 0x0647 [0x29] REQ_SET_WAIT(priority=0x08, entity_id=Gomada-Vulmada (ID: 17760340/0x010F0054), tag_num=0x09)
  4: 0x064E [0x1D] PRINT_EVENT_MESSAGE(message_id=12717*)
    → "I wonder, if I grow really-weally hugey-wugey and reach up to the sky, I'll be able to talk to Joker again?"
  5: 0x0651 [0x23] WAIT_FOR_DIALOG_INTERACTION
  6: 0x0652 [0x1D] PRINT_EVENT_MESSAGE(message_id=12718*)
    → "I'm gonna grow absolutaruly ginormous! Bigger than a Mithra! Bigger than a Galka. Even bigger than an Elvaan! I'm gonna grow up to be a giant!"
  7: 0x0655 [0x23] WAIT_FOR_DIALOG_INTERACTION
  8: 0x0656 [0x29] REQ_SET_WAIT(priority=0x08, entity_id=Gomada-Vulmada (ID: 17760340/0x010F0054), tag_num=0x0A)
  9: 0x065D [0x20] SET_CLI_EVENT_UC_FLAG: Unlock player control
 10: 0x065F [0x21] END_EVENT
 11: 0x0660 [0x00] END_REQSTACK()
```

### Event 584

#### Metadata

| Field        | Value   |
|--------------|---------|
| Entrypoint   | 0x0661  |
| Data Size    | 1 bytes |
| Instructions | 1       |

```
      00 01 02 03 04 05 06 07  08 09 0A 0B 0C 0D 0E 0F
      -- -- -- -- -- -- -- --  -- -- -- -- -- -- -- --
0660:    00                                              .              
```

#### Opcodes

```
  0: 0x0661 [0x00] END_REQSTACK()
```

### Event 65535.59

#### Metadata

| Field        | Value    |
|--------------|----------|
| Entrypoint   | 0x0662   |
| Data Size    | 10 bytes |
| Instructions | 2        |

```
      00 01 02 03 04 05 06 07  08 09 0A 0B 0C 0D 0E 0F
      -- -- -- -- -- -- -- --  -- -- -- -- -- -- -- --
0660:       37 7B 80 7C 80 05  80 7D 80 00                7{.|...}..    
```

#### Opcodes

```
  0: 0x0662 [0x37] UPDATE_EVENT_POSITION_AND_DIR: x=-24.306*, z=188.987*, y=-5.999*, direction=207.1°*
  1: 0x066B [0x00] END_REQSTACK()
```

### Event 65535.60

#### Metadata

| Field        | Value    |
|--------------|----------|
| Entrypoint   | 0x066C   |
| Data Size    | 10 bytes |
| Instructions | 2        |

```
      00 01 02 03 04 05 06 07  08 09 0A 0B 0C 0D 0E 0F
      -- -- -- -- -- -- -- --  -- -- -- -- -- -- -- --
0660:                                      37 7E 80 7F              7~..
0670: 80 68 80 80 80 00                                 .h....          
```

#### Opcodes

```
  0: 0x066C [0x37] UPDATE_EVENT_POSITION_AND_DIR: x=-22.380*, z=189.334*, y=-6.000*, direction=0.0°*
  1: 0x0675 [0x00] END_REQSTACK()
```

### Event 915

#### Metadata

| Field        | Value   |
|--------------|---------|
| Entrypoint   | 0x0676  |
| Data Size    | 1 bytes |
| Instructions | 1       |

```
      00 01 02 03 04 05 06 07  08 09 0A 0B 0C 0D 0E 0F
      -- -- -- -- -- -- -- --  -- -- -- -- -- -- -- --
0670:                   00                                    .         
```

#### Opcodes

```
  0: 0x0676 [0x00] END_REQSTACK()
```

### Event 916

#### Metadata

| Field        | Value   |
|--------------|---------|
| Entrypoint   | 0x0677  |
| Data Size    | 1 bytes |
| Instructions | 1       |

```
      00 01 02 03 04 05 06 07  08 09 0A 0B 0C 0D 0E 0F
      -- -- -- -- -- -- -- --  -- -- -- -- -- -- -- --
0670:                      00                                  .        
```

#### Opcodes

```
  0: 0x0677 [0x00] END_REQSTACK()
```

### Event 924

#### Metadata

| Field        | Value   |
|--------------|---------|
| Entrypoint   | 0x0678  |
| Data Size    | 1 bytes |
| Instructions | 1       |

```
      00 01 02 03 04 05 06 07  08 09 0A 0B 0C 0D 0E 0F
      -- -- -- -- -- -- -- --  -- -- -- -- -- -- -- --
0670:                          00                               .       
```

#### Opcodes

```
  0: 0x0678 [0x00] END_REQSTACK()
```

### Event 919

#### Metadata

| Field        | Value   |
|--------------|---------|
| Entrypoint   | 0x0679  |
| Data Size    | 1 bytes |
| Instructions | 1       |

```
      00 01 02 03 04 05 06 07  08 09 0A 0B 0C 0D 0E 0F
      -- -- -- -- -- -- -- --  -- -- -- -- -- -- -- --
0670:                             00                             .      
```

#### Opcodes

```
  0: 0x0679 [0x00] END_REQSTACK()
```

### Event 925

#### Metadata

| Field        | Value   |
|--------------|---------|
| Entrypoint   | 0x067A  |
| Data Size    | 1 bytes |
| Instructions | 1       |

```
      00 01 02 03 04 05 06 07  08 09 0A 0B 0C 0D 0E 0F
      -- -- -- -- -- -- -- --  -- -- -- -- -- -- -- --
0670:                                00                           .     
```

#### Opcodes

```
  0: 0x067A [0x00] END_REQSTACK()
```

### Event 928

#### Metadata

| Field        | Value   |
|--------------|---------|
| Entrypoint   | 0x067B  |
| Data Size    | 1 bytes |
| Instructions | 1       |

```
      00 01 02 03 04 05 06 07  08 09 0A 0B 0C 0D 0E 0F
      -- -- -- -- -- -- -- --  -- -- -- -- -- -- -- --
0670:                                   00                         .    
```

#### Opcodes

```
  0: 0x067B [0x00] END_REQSTACK()
```

### Event 933

#### Metadata

| Field        | Value   |
|--------------|---------|
| Entrypoint   | 0x067C  |
| Data Size    | 1 bytes |
| Instructions | 1       |

```
      00 01 02 03 04 05 06 07  08 09 0A 0B 0C 0D 0E 0F
      -- -- -- -- -- -- -- --  -- -- -- -- -- -- -- --
0670:                                      00                       .   
```

#### Opcodes

```
  0: 0x067C [0x00] END_REQSTACK()
```
