# 17760504

## Common Data

| Field            | Value                   |
|------------------|-------------------------|
| Zone             | Port Windurst (ID: 240) |
| Block Size       | 92 bytes                |
| Total Events     | 4                       |
| References Count | 3                       |

## List of Events

| Event ID                 | Entrypoint   |   Size |   Instructions |
|--------------------------|--------------|--------|----------------|
| [65535](#event-65535)    | 0x0000       |      1 |              1 |
| [889](#event-889)        | 0x0001       |      1 |              1 |
| [65535.1](#event-655351) | 0x0002       |     36 |             10 |
| [65535.2](#event-655352) | 0x0026       |     10 |              4 |

## DAT References (imed_data)

|   Index | Hex Value   |   Dec Value |
|---------|-------------|-------------|
|       0 | 0x0258      |         600 |
|       1 | 0x0000      |           0 |
|       2 | 0x0005      |           5 |

## Events

### Event 65535

#### Metadata

| Field        | Value   |
|--------------|---------|
| Entrypoint   | 0x0000  |
| Data Size    | 1 bytes |
| Instructions | 1       |

```
      00 01 02 03 04 05 06 07  08 09 0A 0B 0C 0D 0E 0F
      -- -- -- -- -- -- -- --  -- -- -- -- -- -- -- --
0000: 00                                                .               
```

#### Opcodes

```
  0: 0x0000 [0x00] END_REQSTACK()
```

### Event 889

#### Metadata

| Field        | Value   |
|--------------|---------|
| Entrypoint   | 0x0001  |
| Data Size    | 1 bytes |
| Instructions | 1       |

```
      00 01 02 03 04 05 06 07  08 09 0A 0B 0C 0D 0E 0F
      -- -- -- -- -- -- -- --  -- -- -- -- -- -- -- --
0000:    00                                              .              
```

#### Opcodes

```
  0: 0x0001 [0x00] END_REQSTACK()
```

### Event 65535.1

#### Metadata

| Field        | Value    |
|--------------|----------|
| Entrypoint   | 0x0002   |
| Data Size    | 36 bytes |
| Instructions | 10       |

```
      00 01 02 03 04 05 06 07  08 09 0A 0B 0C 0D 0E 0F
      -- -- -- -- -- -- -- --  -- -- -- -- -- -- -- --
0000:       B4 0A 00 80 03 46  10 00 80 02 46 10 01 80    .....F....F...
0010: 02 1D 00 B4 0C 46 10 1C  02 80 01 0B 00 B4 0B 05  .....F..........
0020: 47 10 B4 06 00 00                                 G.....          
```

#### Opcodes

```
  0: 0x0002 [0xB4] UI_WINDOW_STRING_HANDLER(case=0x0A - Open event time window, work_offset=600*)
  1: 0x0006 [0x03] Work_Zone[70] = 600*
  2: 0x000B [0x02] IF !(Work_Zone[70] <= 0*) GOTO 0x001D
  3: 0x0013 [0xB4] UI_WINDOW_STRING_HANDLER(case=0x0C - Get event time count value, work_offset=Work_Zone[70])
  4: 0x0017 [0x1C] WAIT(5* ticks)
  5: 0x001A [0x01] GOTO 0x000B
  6: 0x001D [0xB4] UI_WINDOW_STRING_HANDLER(case=0x0B - Destroy event time window)
  7: 0x001F [0x05] Work_Zone[71] = 1
  8: 0x0022 [0xB4] UI_WINDOW_STRING_HANDLER(case=0x06 - Toggle query message flag, flag_value=0x00)
  9: 0x0025 [0x00] END_REQSTACK()
```

### Event 65535.2

#### Metadata

| Field        | Value    |
|--------------|----------|
| Entrypoint   | 0x0026   |
| Data Size    | 10 bytes |
| Instructions | 4        |

```
      00 01 02 03 04 05 06 07  08 09 0A 0B 0C 0D 0E 0F
      -- -- -- -- -- -- -- --  -- -- -- -- -- -- -- --
0020:                   06 46  10 06 47 10 B4 06 01 00        .F..G.....
```

#### Opcodes

```
  0: 0x0026 [0x06] Work_Zone[70] = 0
  1: 0x0029 [0x06] Work_Zone[71] = 0
  2: 0x002C [0xB4] UI_WINDOW_STRING_HANDLER(case=0x06 - Toggle query message flag, flag_value=0x01)
  3: 0x002F [0x00] END_REQSTACK()
```
