# 17760277 - Mojo-Pojo

## Common Data

| Field            | Value                   |
|------------------|-------------------------|
| Zone             | Port Windurst (ID: 240) |
| Block Size       | 364 bytes               |
| Total Events     | 18                      |
| References Count | 12                      |

## List of Events

| Event ID                 | Entrypoint   |   Size |   Instructions |
|--------------------------|--------------|--------|----------------|
| [65535](#event-65535)    | 0x0000       |      1 |              1 |
| [65535.1](#event-655351) | 0x0001       |     29 |              4 |
| [65535.2](#event-655352) | 0x001E       |     10 |              3 |
| [229](#event-229)        | 0x0028       |     33 |             12 |
| [90](#event-90)          | 0x0049       |      1 |              1 |
| [274](#event-274)        | 0x004A       |      1 |              1 |
| [280](#event-280)        | 0x004B       |      1 |              1 |
| [284](#event-284)        | 0x004C       |      1 |              1 |
| [263](#event-263)        | 0x004D       |     33 |             12 |
| [265](#event-265)        | 0x006E       |      8 |              2 |
| [272](#event-272)        | 0x0076       |     33 |             12 |
| [493](#event-493)        | 0x0097       |     33 |             12 |
| [456](#event-456)        | 0x00B8       |      1 |              1 |
| [575](#event-575)        | 0x00B9       |     37 |             14 |
| [578](#event-578)        | 0x00DE       |      1 |              1 |
| [581](#event-581)        | 0x00DF       |      1 |              1 |
| [583](#event-583)        | 0x00E0       |      1 |              1 |
| [623](#event-623)        | 0x00E1       |      1 |              1 |

## DAT References (imed_data)

|   Index | Hex Value   |   Dec Value |
|---------|-------------|-------------|
|       0 | 0x0BDC      |        3036 |
|       1 | 0x0E46      |        3654 |
|       2 | 0x0E47      |        3655 |
|       3 | 0x0E7D      |        3709 |
|       4 | 0x0E7E      |        3710 |
|       5 | 0x0EAB      |        3755 |
|       6 | 0x0EAC      |        3756 |
|       7 | 0x300F      |       12303 |
|       8 | 0x3010      |       12304 |
|       9 | 0x3145      |       12613 |
|      10 | 0x3146      |       12614 |
|      11 | 0x3147      |       12615 |

## String References

- **3654**: I, I, I'm a newcomer to the Orastery. B-but my dream is to be like the great hero Karaha-Baruha, a-and do a great service to my country during w-war.
- **3655**: You see...I think a war's about to begin. A-and a lot of people are gonna die, like in the last war. I, I wanna stop that from happening!
- **3709**: I, I hope the black mage's brigade of the War Warlocks get what they hope for.
- **3710**: <mumble-wumble>... M-make sure you get a better wand for the black mages than you get for the others, okay?
- **3755**: Oh, wow! I, I got to see the great Doctor Shantotto's magic firsthand!
- **3756**: During the war years, as the previous minister here, it was her magic powers that determined our very survival. She, she is more than just my heroine, she's my goddess!
- **12303**: I, I, I'm a newcomer to the Orastery. I, I, I used to dream of becoming like the greataru and respectarued hero, Karaha-Baruha, but lately I've thought about being a little m-m-more sinister, like Minister Ajido-Marujido.
- **12304**: A-a-although, I wouldn't wantaru be thrown into the Dark Dungeon. Oh, Minister Ajido-Marujido! Y-y-you're justaru a little too sinister!
- **12613**: I, I, I'm a newcomer to the Orastery. D-d-doctor Shantotto has been visiting the Orastery all the t-t-time lately to give us nasty-wasty chores to do.
- **12614**: Now that w-w-we're finally being f-f-freed from her naggy-waggy orders, I feel so...
- **12615**: Hmm? That's w-w-weird. I think I'm g-g-gonna miss it a little...

## Events

### Event 65535

#### Metadata

| Field        | Value   |
|--------------|---------|
| Entrypoint   | 0x0000  |
| Data Size    | 1 bytes |
| Instructions | 1       |

```
      00 01 02 03 04 05 06 07  08 09 0A 0B 0C 0D 0E 0F
      -- -- -- -- -- -- -- --  -- -- -- -- -- -- -- --
0000: 00                                                .               
```

#### Opcodes

```
  0: 0x0000 [0x00] END_REQSTACK()
```

### Event 65535.1

#### Metadata

| Field        | Value    |
|--------------|----------|
| Entrypoint   | 0x0001   |
| Data Size    | 29 bytes |
| Instructions | 4        |

```
      00 01 02 03 04 05 06 07  08 09 0A 0B 0C 0D 0E 0F
      -- -- -- -- -- -- -- --  -- -- -- -- -- -- -- --
0000:    5F 01 50 F8 FF FF 7F  F8 FF FF 7F 63 61 62 6B   _.P........cabk
0010: 50 F8 FF FF 7F F8 FF FF  7F 73 68 62 6B 00        P........shbk.  
```

#### Opcodes

```
  0: 0x0001 [0x5F] MULTI_HANDLER_COMPLEX(mode=0x01 - Toggle Render.Flags0 bit 29)
  1: 0x0003 [0x50] END_SCHEDULER_TASK: End scheduler "ca" with entities [0xFFF8, 0xFFF8], work=[32767, 32767]
  2: 0x0010 [0x50] END_SCHEDULER_TASK: End scheduler "sh" with entities [0xFFF8, 0xFFF8], work=[32767, 32767]
  3: 0x001D [0x00] END_REQSTACK()
```

### Event 65535.2

#### Metadata

| Field        | Value    |
|--------------|----------|
| Entrypoint   | 0x001E   |
| Data Size    | 10 bytes |
| Instructions | 3        |

```
      00 01 02 03 04 05 06 07  08 09 0A 0B 0C 0D 0E 0F
      -- -- -- -- -- -- -- --  -- -- -- -- -- -- -- --
0010:                                            5F 00                _.
0020: 4B 15 00 0F 01 00 80 00                           K.......        
```

#### Opcodes

```
  0: 0x001E [0x5F] MULTI_HANDLER_COMPLEX(mode=0x00 - Toggle Render.Flags0 bit 29)
  1: 0x0020 [0x4B] UPDATE_ENTITY_YAW(entity=Mojo-Pojo (ID: 17760277/0x010F0015), yaw=16.7°*)
  2: 0x0027 [0x00] END_REQSTACK()
```

### Event 229

#### Metadata

| Field        | Value    |
|--------------|----------|
| Entrypoint   | 0x0028   |
| Data Size    | 33 bytes |
| Instructions | 12       |

```
      00 01 02 03 04 05 06 07  08 09 0A 0B 0C 0D 0E 0F
      -- -- -- -- -- -- -- --  -- -- -- -- -- -- -- --
0020:                          29 08 15 00 0F 01 01 1E          ).......
0030: F0 FF FF 7F 6F 70 1D 01  80 23 1D 02 80 23 29 08  ....op...#...#).
0040: 15 00 0F 01 02 20 00 21  00                       ..... .!.       
```

#### Opcodes

```
  0: 0x0028 [0x29] REQ_SET_WAIT(priority=0x08, entity_id=Mojo-Pojo (ID: 17760277/0x010F0015), tag_num=0x01)
  1: 0x002F [0x1E] EventEntity looks at LocalPlayer and starts talking
  2: 0x0034 [0x6F] WAIT_FRAME_DELAY: Yield until WaitTime reaches zero
  3: 0x0035 [0x70] WAIT_ENTITY_RENDER_FLAG: Wait while EventEntity->Render.Flags3 bit 2 is set (cancel turn if not)
  4: 0x0036 [0x1D] PRINT_EVENT_MESSAGE(message_id=3654*)
    → "I, I, I'm a newcomer to the Orastery. B-but my dream is to be like the great hero Karaha-Baruha, a-and do a great service to my country during w-war."
  5: 0x0039 [0x23] WAIT_FOR_DIALOG_INTERACTION
  6: 0x003A [0x1D] PRINT_EVENT_MESSAGE(message_id=3655*)
    → "You see...I think a war's about to begin. A-and a lot of people are gonna die, like in the last war. I, I wanna stop that from happening!"
  7: 0x003D [0x23] WAIT_FOR_DIALOG_INTERACTION
  8: 0x003E [0x29] REQ_SET_WAIT(priority=0x08, entity_id=Mojo-Pojo (ID: 17760277/0x010F0015), tag_num=0x02)
  9: 0x0045 [0x20] SET_CLI_EVENT_UC_FLAG: Unlock player control
 10: 0x0047 [0x21] END_EVENT
 11: 0x0048 [0x00] END_REQSTACK()
```

### Event 90

#### Metadata

| Field        | Value   |
|--------------|---------|
| Entrypoint   | 0x0049  |
| Data Size    | 1 bytes |
| Instructions | 1       |

```
      00 01 02 03 04 05 06 07  08 09 0A 0B 0C 0D 0E 0F
      -- -- -- -- -- -- -- --  -- -- -- -- -- -- -- --
0040:                             00                             .      
```

#### Opcodes

```
  0: 0x0049 [0x00] END_REQSTACK()
```

### Event 274

#### Metadata

| Field        | Value   |
|--------------|---------|
| Entrypoint   | 0x004A  |
| Data Size    | 1 bytes |
| Instructions | 1       |

```
      00 01 02 03 04 05 06 07  08 09 0A 0B 0C 0D 0E 0F
      -- -- -- -- -- -- -- --  -- -- -- -- -- -- -- --
0040:                                00                           .     
```

#### Opcodes

```
  0: 0x004A [0x00] END_REQSTACK()
```

### Event 280

#### Metadata

| Field        | Value   |
|--------------|---------|
| Entrypoint   | 0x004B  |
| Data Size    | 1 bytes |
| Instructions | 1       |

```
      00 01 02 03 04 05 06 07  08 09 0A 0B 0C 0D 0E 0F
      -- -- -- -- -- -- -- --  -- -- -- -- -- -- -- --
0040:                                   00                         .    
```

#### Opcodes

```
  0: 0x004B [0x00] END_REQSTACK()
```

### Event 284

#### Metadata

| Field        | Value   |
|--------------|---------|
| Entrypoint   | 0x004C  |
| Data Size    | 1 bytes |
| Instructions | 1       |

```
      00 01 02 03 04 05 06 07  08 09 0A 0B 0C 0D 0E 0F
      -- -- -- -- -- -- -- --  -- -- -- -- -- -- -- --
0040:                                      00                       .   
```

#### Opcodes

```
  0: 0x004C [0x00] END_REQSTACK()
```

### Event 263

#### Metadata

| Field        | Value    |
|--------------|----------|
| Entrypoint   | 0x004D   |
| Data Size    | 33 bytes |
| Instructions | 12       |

```
      00 01 02 03 04 05 06 07  08 09 0A 0B 0C 0D 0E 0F
      -- -- -- -- -- -- -- --  -- -- -- -- -- -- -- --
0040:                                         29 08 15               )..
0050: 00 0F 01 01 1E F0 FF FF  7F 6F 70 1D 03 80 23 1D  .........op...#.
0060: 04 80 23 29 08 15 00 0F  01 02 20 00 21 00        ..#)...... .!.  
```

#### Opcodes

```
  0: 0x004D [0x29] REQ_SET_WAIT(priority=0x08, entity_id=Mojo-Pojo (ID: 17760277/0x010F0015), tag_num=0x01)
  1: 0x0054 [0x1E] EventEntity looks at LocalPlayer and starts talking
  2: 0x0059 [0x6F] WAIT_FRAME_DELAY: Yield until WaitTime reaches zero
  3: 0x005A [0x70] WAIT_ENTITY_RENDER_FLAG: Wait while EventEntity->Render.Flags3 bit 2 is set (cancel turn if not)
  4: 0x005B [0x1D] PRINT_EVENT_MESSAGE(message_id=3709*)
    → "I, I hope the black mage's brigade of the War Warlocks get what they hope for."
  5: 0x005E [0x23] WAIT_FOR_DIALOG_INTERACTION
  6: 0x005F [0x1D] PRINT_EVENT_MESSAGE(message_id=3710*)
    → "<mumble-wumble>... M-make sure you get a better wand for the black mages than you get for the others, okay?"
  7: 0x0062 [0x23] WAIT_FOR_DIALOG_INTERACTION
  8: 0x0063 [0x29] REQ_SET_WAIT(priority=0x08, entity_id=Mojo-Pojo (ID: 17760277/0x010F0015), tag_num=0x02)
  9: 0x006A [0x20] SET_CLI_EVENT_UC_FLAG: Unlock player control
 10: 0x006C [0x21] END_EVENT
 11: 0x006D [0x00] END_REQSTACK()
```

### Event 265

#### Metadata

| Field        | Value   |
|--------------|---------|
| Entrypoint   | 0x006E  |
| Data Size    | 8 bytes |
| Instructions | 2       |

```
      00 01 02 03 04 05 06 07  08 09 0A 0B 0C 0D 0E 0F
      -- -- -- -- -- -- -- --  -- -- -- -- -- -- -- --
0060:                                            29 08                ).
0070: 15 00 0F 01 01 00                                 ......          
```

#### Opcodes

```
  0: 0x006E [0x29] REQ_SET_WAIT(priority=0x08, entity_id=Mojo-Pojo (ID: 17760277/0x010F0015), tag_num=0x01)
  1: 0x0075 [0x00] END_REQSTACK()
```

### Event 272

#### Metadata

| Field        | Value    |
|--------------|----------|
| Entrypoint   | 0x0076   |
| Data Size    | 33 bytes |
| Instructions | 12       |

```
      00 01 02 03 04 05 06 07  08 09 0A 0B 0C 0D 0E 0F
      -- -- -- -- -- -- -- --  -- -- -- -- -- -- -- --
0070:                   29 08  15 00 0F 01 01 1E F0 FF        ).........
0080: FF 7F 6F 70 1D 05 80 23  1D 06 80 23 29 08 15 00  ..op...#...#)...
0090: 0F 01 02 20 00 21 00                              ... .!.         
```

#### Opcodes

```
  0: 0x0076 [0x29] REQ_SET_WAIT(priority=0x08, entity_id=Mojo-Pojo (ID: 17760277/0x010F0015), tag_num=0x01)
  1: 0x007D [0x1E] EventEntity looks at LocalPlayer and starts talking
  2: 0x0082 [0x6F] WAIT_FRAME_DELAY: Yield until WaitTime reaches zero
  3: 0x0083 [0x70] WAIT_ENTITY_RENDER_FLAG: Wait while EventEntity->Render.Flags3 bit 2 is set (cancel turn if not)
  4: 0x0084 [0x1D] PRINT_EVENT_MESSAGE(message_id=3755*)
    → "Oh, wow! I, I got to see the great Doctor Shantotto's magic firsthand!"
  5: 0x0087 [0x23] WAIT_FOR_DIALOG_INTERACTION
  6: 0x0088 [0x1D] PRINT_EVENT_MESSAGE(message_id=3756*)
    → "During the war years, as the previous minister here, it was her magic powers that determined our very survival. She, she is more than just my heroine, she's my goddess!"
  7: 0x008B [0x23] WAIT_FOR_DIALOG_INTERACTION
  8: 0x008C [0x29] REQ_SET_WAIT(priority=0x08, entity_id=Mojo-Pojo (ID: 17760277/0x010F0015), tag_num=0x02)
  9: 0x0093 [0x20] SET_CLI_EVENT_UC_FLAG: Unlock player control
 10: 0x0095 [0x21] END_EVENT
 11: 0x0096 [0x00] END_REQSTACK()
```

### Event 493

#### Metadata

| Field        | Value    |
|--------------|----------|
| Entrypoint   | 0x0097   |
| Data Size    | 33 bytes |
| Instructions | 12       |

```
      00 01 02 03 04 05 06 07  08 09 0A 0B 0C 0D 0E 0F
      -- -- -- -- -- -- -- --  -- -- -- -- -- -- -- --
0090:                      29  08 15 00 0F 01 01 1E F0         )........
00A0: FF FF 7F 6F 70 1D 07 80  23 1D 08 80 23 29 08 15  ...op...#...#)..
00B0: 00 0F 01 02 20 00 21 00                           .... .!.        
```

#### Opcodes

```
  0: 0x0097 [0x29] REQ_SET_WAIT(priority=0x08, entity_id=Mojo-Pojo (ID: 17760277/0x010F0015), tag_num=0x01)
  1: 0x009E [0x1E] EventEntity looks at LocalPlayer and starts talking
  2: 0x00A3 [0x6F] WAIT_FRAME_DELAY: Yield until WaitTime reaches zero
  3: 0x00A4 [0x70] WAIT_ENTITY_RENDER_FLAG: Wait while EventEntity->Render.Flags3 bit 2 is set (cancel turn if not)
  4: 0x00A5 [0x1D] PRINT_EVENT_MESSAGE(message_id=12303*)
    → "I, I, I'm a newcomer to the Orastery. I, I, I used to dream of becoming like the greataru and respectarued hero, Karaha-Baruha, but lately I've thought about being a little m-m-more sinister, like Minister Ajido-Marujido."
  5: 0x00A8 [0x23] WAIT_FOR_DIALOG_INTERACTION
  6: 0x00A9 [0x1D] PRINT_EVENT_MESSAGE(message_id=12304*)
    → "A-a-although, I wouldn't wantaru be thrown into the Dark Dungeon. Oh, Minister Ajido-Marujido! Y-y-you're justaru a little too sinister!"
  7: 0x00AC [0x23] WAIT_FOR_DIALOG_INTERACTION
  8: 0x00AD [0x29] REQ_SET_WAIT(priority=0x08, entity_id=Mojo-Pojo (ID: 17760277/0x010F0015), tag_num=0x02)
  9: 0x00B4 [0x20] SET_CLI_EVENT_UC_FLAG: Unlock player control
 10: 0x00B6 [0x21] END_EVENT
 11: 0x00B7 [0x00] END_REQSTACK()
```

### Event 456

#### Metadata

| Field        | Value   |
|--------------|---------|
| Entrypoint   | 0x00B8  |
| Data Size    | 1 bytes |
| Instructions | 1       |

```
      00 01 02 03 04 05 06 07  08 09 0A 0B 0C 0D 0E 0F
      -- -- -- -- -- -- -- --  -- -- -- -- -- -- -- --
00B0:                          00                               .       
```

#### Opcodes

```
  0: 0x00B8 [0x00] END_REQSTACK()
```

### Event 575

#### Metadata

| Field        | Value    |
|--------------|----------|
| Entrypoint   | 0x00B9   |
| Data Size    | 37 bytes |
| Instructions | 14       |

```
      00 01 02 03 04 05 06 07  08 09 0A 0B 0C 0D 0E 0F
      -- -- -- -- -- -- -- --  -- -- -- -- -- -- -- --
00B0:                             29 08 15 00 0F 01 01           )......
00C0: 1E F0 FF FF 7F 6F 70 1D  09 80 23 1D 0A 80 23 1D  .....op...#...#.
00D0: 0B 80 23 29 08 15 00 0F  01 02 20 00 21 00        ..#)...... .!.  
```

#### Opcodes

```
  0: 0x00B9 [0x29] REQ_SET_WAIT(priority=0x08, entity_id=Mojo-Pojo (ID: 17760277/0x010F0015), tag_num=0x01)
  1: 0x00C0 [0x1E] EventEntity looks at LocalPlayer and starts talking
  2: 0x00C5 [0x6F] WAIT_FRAME_DELAY: Yield until WaitTime reaches zero
  3: 0x00C6 [0x70] WAIT_ENTITY_RENDER_FLAG: Wait while EventEntity->Render.Flags3 bit 2 is set (cancel turn if not)
  4: 0x00C7 [0x1D] PRINT_EVENT_MESSAGE(message_id=12613*)
    → "I, I, I'm a newcomer to the Orastery. D-d-doctor Shantotto has been visiting the Orastery all the t-t-time lately to give us nasty-wasty chores to do."
  5: 0x00CA [0x23] WAIT_FOR_DIALOG_INTERACTION
  6: 0x00CB [0x1D] PRINT_EVENT_MESSAGE(message_id=12614*)
    → "Now that w-w-we're finally being f-f-freed from her naggy-waggy orders, I feel so..."
  7: 0x00CE [0x23] WAIT_FOR_DIALOG_INTERACTION
  8: 0x00CF [0x1D] PRINT_EVENT_MESSAGE(message_id=12615*)
    → "Hmm? That's w-w-weird. I think I'm g-g-gonna miss it a little..."
  9: 0x00D2 [0x23] WAIT_FOR_DIALOG_INTERACTION
 10: 0x00D3 [0x29] REQ_SET_WAIT(priority=0x08, entity_id=Mojo-Pojo (ID: 17760277/0x010F0015), tag_num=0x02)
 11: 0x00DA [0x20] SET_CLI_EVENT_UC_FLAG: Unlock player control
 12: 0x00DC [0x21] END_EVENT
 13: 0x00DD [0x00] END_REQSTACK()
```

### Event 578

#### Metadata

| Field        | Value   |
|--------------|---------|
| Entrypoint   | 0x00DE  |
| Data Size    | 1 bytes |
| Instructions | 1       |

```
      00 01 02 03 04 05 06 07  08 09 0A 0B 0C 0D 0E 0F
      -- -- -- -- -- -- -- --  -- -- -- -- -- -- -- --
00D0:                                            00                   . 
```

#### Opcodes

```
  0: 0x00DE [0x00] END_REQSTACK()
```

### Event 581

#### Metadata

| Field        | Value   |
|--------------|---------|
| Entrypoint   | 0x00DF  |
| Data Size    | 1 bytes |
| Instructions | 1       |

```
      00 01 02 03 04 05 06 07  08 09 0A 0B 0C 0D 0E 0F
      -- -- -- -- -- -- -- --  -- -- -- -- -- -- -- --
00D0:                                               00                 .
```

#### Opcodes

```
  0: 0x00DF [0x00] END_REQSTACK()
```

### Event 583

#### Metadata

| Field        | Value   |
|--------------|---------|
| Entrypoint   | 0x00E0  |
| Data Size    | 1 bytes |
| Instructions | 1       |

```
      00 01 02 03 04 05 06 07  08 09 0A 0B 0C 0D 0E 0F
      -- -- -- -- -- -- -- --  -- -- -- -- -- -- -- --
00E0: 00                                                .               
```

#### Opcodes

```
  0: 0x00E0 [0x00] END_REQSTACK()
```

### Event 623

#### Metadata

| Field        | Value   |
|--------------|---------|
| Entrypoint   | 0x00E1  |
| Data Size    | 1 bytes |
| Instructions | 1       |

```
      00 01 02 03 04 05 06 07  08 09 0A 0B 0C 0D 0E 0F
      -- -- -- -- -- -- -- --  -- -- -- -- -- -- -- --
00E0:    00                                              .              
```

#### Opcodes

```
  0: 0x00E1 [0x00] END_REQSTACK()
```
