# 17760379 - Sigismund

## Common Data

| Field            | Value                   |
|------------------|-------------------------|
| Zone             | Port Windurst (ID: 240) |
| Block Size       | 820 bytes               |
| Total Events     | 29                      |
| References Count | 19                      |

## List of Events

| Event ID                   | Entrypoint   |   Size |   Instructions |
|----------------------------|--------------|--------|----------------|
| [65535](#event-65535)      | 0x0000       |      1 |              1 |
| [65535.1](#event-655351)   | 0x0001       |     16 |              2 |
| [65535.2](#event-655352)   | 0x0011       |     22 |              4 |
| [65535.3](#event-655353)   | 0x0027       |     16 |              2 |
| [65535.4](#event-655354)   | 0x0037       |     14 |              2 |
| [65535.5](#event-655355)   | 0x0045       |     16 |              2 |
| [65535.6](#event-655356)   | 0x0055       |     14 |              2 |
| [65535.7](#event-655357)   | 0x0063       |     16 |              2 |
| [65535.8](#event-655358)   | 0x0073       |     14 |              2 |
| [65535.9](#event-655359)   | 0x0081       |     16 |              2 |
| [65535.10](#event-6553510) | 0x0091       |     14 |              2 |
| [65535.11](#event-6553511) | 0x009F       |     16 |              2 |
| [65535.12](#event-6553512) | 0x00AF       |     14 |              2 |
| [65535.13](#event-6553513) | 0x00BD       |     16 |              2 |
| [65535.14](#event-6553514) | 0x00CD       |     14 |              2 |
| [65535.15](#event-6553515) | 0x00DB       |     16 |              2 |
| [65535.16](#event-6553516) | 0x00EB       |     14 |              2 |
| [65535.17](#event-6553517) | 0x00F9       |      9 |              3 |
| [357](#event-357)          | 0x0102       |     33 |             12 |
| [196](#event-196)          | 0x0123       |     32 |              9 |
| [65535.18](#event-6553518) | 0x0143       |     37 |              9 |
| [65535.19](#event-6553519) | 0x0168       |     19 |              5 |
| [65535.20](#event-6553520) | 0x017B       |     23 |              7 |
| [197](#event-197)          | 0x0192       |     33 |             12 |
| [199](#event-199)          | 0x01B3       |     52 |             12 |
| [65535.21](#event-6553521) | 0x01E7       |     19 |              5 |
| [65535.22](#event-6553522) | 0x01FA       |     12 |              4 |
| [65535.23](#event-6553523) | 0x0206       |     58 |             12 |
| [200](#event-200)          | 0x0240       |     33 |             12 |

## DAT References (imed_data)

|   Index | Hex Value   |   Dec Value |
|---------|-------------|-------------|
|       0 | 0x00EE      |         238 |
|       1 | 0x001E      |          30 |
|       2 | 0x101B      |        4123 |
|       3 | 0x101C      |        4124 |
|       4 | 0x0DFD      |        3581 |
|       5 | 0x0DFE      |        3582 |
|       6 | 0x0DFF      |        3583 |
|       7 | 0x0E00      |        3584 |
|       8 | 0x0E01      |        3585 |
|       9 | 0x0E02      |        3586 |
|      10 | 0x0E03      |        3587 |
|      11 | 0x00C9      |         201 |
|      12 | 0x0000      |           0 |
|      13 | 0x0E07      |        3591 |
|      14 | 0x0E08      |        3592 |
|      15 | 0x0E09      |        3593 |
|      16 | 0x0E0A      |        3594 |
|      17 | 0x0E0B      |        3595 |
|      18 | 0x0E0C      |        3596 |

## String References

- **3581**: Well, I've had a great time in Windurst, and seen a lot of amazing stuff. Guess it's about time to head on home...
- **3582**: Before I go, I have to find a souvenir of my stay that's unique to Windurst. But none of the stuff sold in the shops here is worth showing off to people...
- **3583**: Hey, adventurer! Have you heard about a place out in Sarutabaruta somewhere called the Starfall Hillock?
- **3584**: I've heard that at a certain time of night on that hill, the dew crystallizes into ice, forming $1.
- **3585**: The little missus would be so pleased if you could get your hands on one of those ice crystals. She's bound to think it's all cute and M<Player>drchen-like, don't you think? So how about it, huh? If you won't do it for me, do it for the little missus.
- **3586**: Out in Sarutabaruta somewhere there's a place called Starfall Hillock where, only for a few hours of each night, you can find a beautiful natural ice formation called $1.
- **3587**: They say Windurst is the country blessed by the moon and stars, so something to do with the stars would make a most fitting present, don't you think?
- **3591**: Oh, well done! I'm so pleased you were able to get me one. Let me see it...!
- **3592**: ...Ah!
- **3593**: Why didn't you tell me that it melts away when you touch it with your bare hands? How am I supposed to carry that home then?
- **3594**: But then again, you kept your side of the bargain, and a promise is a promise, so here... Take your reward and leave me be.
- **3595**: If I had known it was that delicate I wouldn't have asked for one. It's impossible for me to carry such a fragile thing back home.
- **3596**: Looks like I have to think of some other souvenir to take back, otherwise the little missus is gonna kill me. Umm... Let me see...
- **4123**: I heard Windurst is a land of magic users, but it doesn't look like everyone around here can actually use magic.
- **4124**: Just goes to show...there's a lot of things you don't know about this world until you actually go see for yourself!

## Events

### Event 65535

#### Metadata

| Field        | Value   |
|--------------|---------|
| Entrypoint   | 0x0000  |
| Data Size    | 1 bytes |
| Instructions | 1       |

```
      00 01 02 03 04 05 06 07  08 09 0A 0B 0C 0D 0E 0F
      -- -- -- -- -- -- -- --  -- -- -- -- -- -- -- --
0000: 00                                                .               
```

#### Opcodes

```
  0: 0x0000 [0x00] END_REQSTACK()
```

### Event 65535.1

#### Metadata

| Field        | Value    |
|--------------|----------|
| Entrypoint   | 0x0001   |
| Data Size    | 16 bytes |
| Instructions | 2        |

```
      00 01 02 03 04 05 06 07  08 09 0A 0B 0C 0D 0E 0F
      -- -- -- -- -- -- -- --  -- -- -- -- -- -- -- --
0000:    5B 00 80 F8 FF FF 7F  F8 FF FF 7F 74 6C 6B 30   [..........tlk0
0010: 00                                                .               
```

#### Opcodes

```
  0: 0x0001 [0x5B] LOAD_EXT_SCHEDULER: Load scheduler "tlk0" with entities [EventEntity, EventEntity], work=238*
  1: 0x0010 [0x00] END_REQSTACK()
```

### Event 65535.2

#### Metadata

| Field        | Value    |
|--------------|----------|
| Entrypoint   | 0x0011   |
| Data Size    | 22 bytes |
| Instructions | 4        |

```
      00 01 02 03 04 05 06 07  08 09 0A 0B 0C 0D 0E 0F
      -- -- -- -- -- -- -- --  -- -- -- -- -- -- -- --
0010:    53 F8 FF FF 7F F8 FF  FF 7F 74 6C 6B 30 5E 69   S........tlk0^i
0020: 64 6C 30 1C 01 80 00                              dl0....         
```

#### Opcodes

```
  0: 0x0011 [0x53] WAIT_SCHEDULER_TASK: Wait for scheduler "tlk0" with entities [EventEntity, EventEntity]
  1: 0x001E [0x5E] EventEntity goes idle (kills current action) (animation: "idl0")
  2: 0x0023 [0x1C] WAIT(30* ticks)
  3: 0x0026 [0x00] END_REQSTACK()
```

### Event 65535.3

#### Metadata

| Field        | Value    |
|--------------|----------|
| Entrypoint   | 0x0027   |
| Data Size    | 16 bytes |
| Instructions | 2        |

```
      00 01 02 03 04 05 06 07  08 09 0A 0B 0C 0D 0E 0F
      -- -- -- -- -- -- -- --  -- -- -- -- -- -- -- --
0020:                      5B  00 80 F8 FF FF 7F F8 FF         [........
0030: FF 7F 74 68 6B 31 00                              ..thk1.         
```

#### Opcodes

```
  0: 0x0027 [0x5B] LOAD_EXT_SCHEDULER: Load scheduler "thk1" with entities [EventEntity, EventEntity], work=238*
  1: 0x0036 [0x00] END_REQSTACK()
```

### Event 65535.4

#### Metadata

| Field        | Value    |
|--------------|----------|
| Entrypoint   | 0x0037   |
| Data Size    | 14 bytes |
| Instructions | 2        |

```
      00 01 02 03 04 05 06 07  08 09 0A 0B 0C 0D 0E 0F
      -- -- -- -- -- -- -- --  -- -- -- -- -- -- -- --
0030:                      53  F8 FF FF 7F F8 FF FF 7F         S........
0040: 74 68 6B 31 00                                    thk1.           
```

#### Opcodes

```
  0: 0x0037 [0x53] WAIT_SCHEDULER_TASK: Wait for scheduler "thk1" with entities [EventEntity, EventEntity]
  1: 0x0044 [0x00] END_REQSTACK()
```

### Event 65535.5

#### Metadata

| Field        | Value    |
|--------------|----------|
| Entrypoint   | 0x0045   |
| Data Size    | 16 bytes |
| Instructions | 2        |

```
      00 01 02 03 04 05 06 07  08 09 0A 0B 0C 0D 0E 0F
      -- -- -- -- -- -- -- --  -- -- -- -- -- -- -- --
0040:                5B 00 80  F8 FF FF 7F F8 FF FF 7F       [..........
0050: 74 68 6B 32 00                                    thk2.           
```

#### Opcodes

```
  0: 0x0045 [0x5B] LOAD_EXT_SCHEDULER: Load scheduler "thk2" with entities [EventEntity, EventEntity], work=238*
  1: 0x0054 [0x00] END_REQSTACK()
```

### Event 65535.6

#### Metadata

| Field        | Value    |
|--------------|----------|
| Entrypoint   | 0x0055   |
| Data Size    | 14 bytes |
| Instructions | 2        |

```
      00 01 02 03 04 05 06 07  08 09 0A 0B 0C 0D 0E 0F
      -- -- -- -- -- -- -- --  -- -- -- -- -- -- -- --
0050:                53 F8 FF  FF 7F F8 FF FF 7F 74 68       S........th
0060: 6B 32 00                                          k2.             
```

#### Opcodes

```
  0: 0x0055 [0x53] WAIT_SCHEDULER_TASK: Wait for scheduler "thk2" with entities [EventEntity, EventEntity]
  1: 0x0062 [0x00] END_REQSTACK()
```

### Event 65535.7

#### Metadata

| Field        | Value    |
|--------------|----------|
| Entrypoint   | 0x0063   |
| Data Size    | 16 bytes |
| Instructions | 2        |

```
      00 01 02 03 04 05 06 07  08 09 0A 0B 0C 0D 0E 0F
      -- -- -- -- -- -- -- --  -- -- -- -- -- -- -- --
0060:          5B 00 80 F8 FF  FF 7F F8 FF FF 7F 77 61     [..........wa
0070: 72 30 00                                          r0.             
```

#### Opcodes

```
  0: 0x0063 [0x5B] LOAD_EXT_SCHEDULER: Load scheduler "war0" with entities [EventEntity, EventEntity], work=238*
  1: 0x0072 [0x00] END_REQSTACK()
```

### Event 65535.8

#### Metadata

| Field        | Value    |
|--------------|----------|
| Entrypoint   | 0x0073   |
| Data Size    | 14 bytes |
| Instructions | 2        |

```
      00 01 02 03 04 05 06 07  08 09 0A 0B 0C 0D 0E 0F
      -- -- -- -- -- -- -- --  -- -- -- -- -- -- -- --
0070:          53 F8 FF FF 7F  F8 FF FF 7F 77 61 72 30     S........war0
0080: 00                                                .               
```

#### Opcodes

```
  0: 0x0073 [0x53] WAIT_SCHEDULER_TASK: Wait for scheduler "war0" with entities [EventEntity, EventEntity]
  1: 0x0080 [0x00] END_REQSTACK()
```

### Event 65535.9

#### Metadata

| Field        | Value    |
|--------------|----------|
| Entrypoint   | 0x0081   |
| Data Size    | 16 bytes |
| Instructions | 2        |

```
      00 01 02 03 04 05 06 07  08 09 0A 0B 0C 0D 0E 0F
      -- -- -- -- -- -- -- --  -- -- -- -- -- -- -- --
0080:    5B 00 80 F8 FF FF 7F  F8 FF FF 7F 77 61 72 31   [..........war1
0090: 00                                                .               
```

#### Opcodes

```
  0: 0x0081 [0x5B] LOAD_EXT_SCHEDULER: Load scheduler "war1" with entities [EventEntity, EventEntity], work=238*
  1: 0x0090 [0x00] END_REQSTACK()
```

### Event 65535.10

#### Metadata

| Field        | Value    |
|--------------|----------|
| Entrypoint   | 0x0091   |
| Data Size    | 14 bytes |
| Instructions | 2        |

```
      00 01 02 03 04 05 06 07  08 09 0A 0B 0C 0D 0E 0F
      -- -- -- -- -- -- -- --  -- -- -- -- -- -- -- --
0090:    53 F8 FF FF 7F F8 FF  FF 7F 77 61 72 31 00      S........war1. 
```

#### Opcodes

```
  0: 0x0091 [0x53] WAIT_SCHEDULER_TASK: Wait for scheduler "war1" with entities [EventEntity, EventEntity]
  1: 0x009E [0x00] END_REQSTACK()
```

### Event 65535.11

#### Metadata

| Field        | Value    |
|--------------|----------|
| Entrypoint   | 0x009F   |
| Data Size    | 16 bytes |
| Instructions | 2        |

```
      00 01 02 03 04 05 06 07  08 09 0A 0B 0C 0D 0E 0F
      -- -- -- -- -- -- -- --  -- -- -- -- -- -- -- --
0090:                                               5B                 [
00A0: 00 80 F8 FF FF 7F F8 FF  FF 7F 79 75 62 30 00     ..........yub0. 
```

#### Opcodes

```
  0: 0x009F [0x5B] LOAD_EXT_SCHEDULER: Load scheduler "yub0" with entities [EventEntity, EventEntity], work=238*
  1: 0x00AE [0x00] END_REQSTACK()
```

### Event 65535.12

#### Metadata

| Field        | Value    |
|--------------|----------|
| Entrypoint   | 0x00AF   |
| Data Size    | 14 bytes |
| Instructions | 2        |

```
      00 01 02 03 04 05 06 07  08 09 0A 0B 0C 0D 0E 0F
      -- -- -- -- -- -- -- --  -- -- -- -- -- -- -- --
00A0:                                               53                 S
00B0: F8 FF FF 7F F8 FF FF 7F  79 75 62 30 00           ........yub0.   
```

#### Opcodes

```
  0: 0x00AF [0x53] WAIT_SCHEDULER_TASK: Wait for scheduler "yub0" with entities [EventEntity, EventEntity]
  1: 0x00BC [0x00] END_REQSTACK()
```

### Event 65535.13

#### Metadata

| Field        | Value    |
|--------------|----------|
| Entrypoint   | 0x00BD   |
| Data Size    | 16 bytes |
| Instructions | 2        |

```
      00 01 02 03 04 05 06 07  08 09 0A 0B 0C 0D 0E 0F
      -- -- -- -- -- -- -- --  -- -- -- -- -- -- -- --
00B0:                                         5B 00 80               [..
00C0: F8 FF FF 7F F8 FF FF 7F  79 75 62 31 00           ........yub1.   
```

#### Opcodes

```
  0: 0x00BD [0x5B] LOAD_EXT_SCHEDULER: Load scheduler "yub1" with entities [EventEntity, EventEntity], work=238*
  1: 0x00CC [0x00] END_REQSTACK()
```

### Event 65535.14

#### Metadata

| Field        | Value    |
|--------------|----------|
| Entrypoint   | 0x00CD   |
| Data Size    | 14 bytes |
| Instructions | 2        |

```
      00 01 02 03 04 05 06 07  08 09 0A 0B 0C 0D 0E 0F
      -- -- -- -- -- -- -- --  -- -- -- -- -- -- -- --
00C0:                                         53 F8 FF               S..
00D0: FF 7F F8 FF FF 7F 79 75  62 31 00                 ......yub1.     
```

#### Opcodes

```
  0: 0x00CD [0x53] WAIT_SCHEDULER_TASK: Wait for scheduler "yub1" with entities [EventEntity, EventEntity]
  1: 0x00DA [0x00] END_REQSTACK()
```

### Event 65535.15

#### Metadata

| Field        | Value    |
|--------------|----------|
| Entrypoint   | 0x00DB   |
| Data Size    | 16 bytes |
| Instructions | 2        |

```
      00 01 02 03 04 05 06 07  08 09 0A 0B 0C 0D 0E 0F
      -- -- -- -- -- -- -- --  -- -- -- -- -- -- -- --
00D0:                                   5B 00 80 F8 FF             [....
00E0: FF 7F F8 FF FF 7F 70 61  73 30 00                 ......pas0.     
```

#### Opcodes

```
  0: 0x00DB [0x5B] LOAD_EXT_SCHEDULER: Load scheduler "pas0" with entities [EventEntity, EventEntity], work=238*
  1: 0x00EA [0x00] END_REQSTACK()
```

### Event 65535.16

#### Metadata

| Field        | Value    |
|--------------|----------|
| Entrypoint   | 0x00EB   |
| Data Size    | 14 bytes |
| Instructions | 2        |

```
      00 01 02 03 04 05 06 07  08 09 0A 0B 0C 0D 0E 0F
      -- -- -- -- -- -- -- --  -- -- -- -- -- -- -- --
00E0:                                   53 F8 FF FF 7F             S....
00F0: F8 FF FF 7F 70 61 73 30  00                       ....pas0.       
```

#### Opcodes

```
  0: 0x00EB [0x53] WAIT_SCHEDULER_TASK: Wait for scheduler "pas0" with entities [EventEntity, EventEntity]
  1: 0x00F8 [0x00] END_REQSTACK()
```

### Event 65535.17

#### Metadata

| Field        | Value   |
|--------------|---------|
| Entrypoint   | 0x00F9  |
| Data Size    | 9 bytes |
| Instructions | 3       |

```
      00 01 02 03 04 05 06 07  08 09 0A 0B 0C 0D 0E 0F
      -- -- -- -- -- -- -- --  -- -- -- -- -- -- -- --
00F0:                             5E 69 64 6C 30 1C 01           ^idl0..
0100: 80 00                                             ..              
```

#### Opcodes

```
  0: 0x00F9 [0x5E] EventEntity goes idle (kills current action) (animation: "idl0")
  1: 0x00FE [0x1C] WAIT(30* ticks)
  2: 0x0101 [0x00] END_REQSTACK()
```

### Event 357

#### Metadata

| Field        | Value    |
|--------------|----------|
| Entrypoint   | 0x0102   |
| Data Size    | 33 bytes |
| Instructions | 12       |

```
      00 01 02 03 04 05 06 07  08 09 0A 0B 0C 0D 0E 0F
      -- -- -- -- -- -- -- --  -- -- -- -- -- -- -- --
0100:       1E F0 FF FF 7F 6F  70 29 08 7B 00 0F 01 01    .....op).{....
0110: 1D 02 80 23 1D 03 80 23  29 08 7B 00 0F 01 11 20  ...#...#).{.... 
0120: 00 21 00                                          .!.             
```

#### Opcodes

```
  0: 0x0102 [0x1E] EventEntity looks at LocalPlayer and starts talking
  1: 0x0107 [0x6F] WAIT_FRAME_DELAY: Yield until WaitTime reaches zero
  2: 0x0108 [0x70] WAIT_ENTITY_RENDER_FLAG: Wait while EventEntity->Render.Flags3 bit 2 is set (cancel turn if not)
  3: 0x0109 [0x29] REQ_SET_WAIT(priority=0x08, entity_id=Sigismund (ID: 17760379/0x010F007B), tag_num=0x01)
  4: 0x0110 [0x1D] PRINT_EVENT_MESSAGE(message_id=4123*)
    → "I heard Windurst is a land of magic users, but it doesn't look like everyone around here can actually use magic."
  5: 0x0113 [0x23] WAIT_FOR_DIALOG_INTERACTION
  6: 0x0114 [0x1D] PRINT_EVENT_MESSAGE(message_id=4124*)
    → "Just goes to show...there's a lot of things you don't know about this world until you actually go see for yourself!"
  7: 0x0117 [0x23] WAIT_FOR_DIALOG_INTERACTION
  8: 0x0118 [0x29] REQ_SET_WAIT(priority=0x08, entity_id=Sigismund (ID: 17760379/0x010F007B), tag_num=0x11)
  9: 0x011F [0x20] SET_CLI_EVENT_UC_FLAG: Unlock player control
 10: 0x0121 [0x21] END_EVENT
 11: 0x0122 [0x00] END_REQSTACK()
```

### Event 196

#### Metadata

| Field        | Value    |
|--------------|----------|
| Entrypoint   | 0x0123   |
| Data Size    | 32 bytes |
| Instructions | 9        |

```
      00 01 02 03 04 05 06 07  08 09 0A 0B 0C 0D 0E 0F
      -- -- -- -- -- -- -- --  -- -- -- -- -- -- -- --
0120:          1E F0 FF FF 7F  6F 70 29 0B 7B 00 0F 01     .....op).{...
0130: 14 29 0B 7B 00 0F 01 15  29 0B 7B 00 0F 01 16 20  .).{....).{.... 
0140: 00 21 00                                          .!.             
```

#### Opcodes

```
  0: 0x0123 [0x1E] EventEntity looks at LocalPlayer and starts talking
  1: 0x0128 [0x6F] WAIT_FRAME_DELAY: Yield until WaitTime reaches zero
  2: 0x0129 [0x70] WAIT_ENTITY_RENDER_FLAG: Wait while EventEntity->Render.Flags3 bit 2 is set (cancel turn if not)
  3: 0x012A [0x29] REQ_SET_WAIT(priority=0x0B, entity_id=Sigismund (ID: 17760379/0x010F007B), tag_num=0x14)
  4: 0x0131 [0x29] REQ_SET_WAIT(priority=0x0B, entity_id=Sigismund (ID: 17760379/0x010F007B), tag_num=0x15)
  5: 0x0138 [0x29] REQ_SET_WAIT(priority=0x0B, entity_id=Sigismund (ID: 17760379/0x010F007B), tag_num=0x16)
  6: 0x013F [0x20] SET_CLI_EVENT_UC_FLAG: Unlock player control
  7: 0x0141 [0x21] END_EVENT
  8: 0x0142 [0x00] END_REQSTACK()
```

### Event 65535.18

#### Metadata

| Field        | Value    |
|--------------|----------|
| Entrypoint   | 0x0143   |
| Data Size    | 37 bytes |
| Instructions | 9        |

```
      00 01 02 03 04 05 06 07  08 09 0A 0B 0C 0D 0E 0F
      -- -- -- -- -- -- -- --  -- -- -- -- -- -- -- --
0140:          29 08 7B 00 0F  01 03 1D 04 80 23 29 08     ).{.......#).
0150: 7B 00 0F 01 04 29 08 7B  00 0F 01 05 1D 05 80 23  {....).{.......#
0160: 29 08 7B 00 0F 01 06 00                           ).{.....        
```

#### Opcodes

```
  0: 0x0143 [0x29] REQ_SET_WAIT(priority=0x08, entity_id=Sigismund (ID: 17760379/0x010F007B), tag_num=0x03)
  1: 0x014A [0x1D] PRINT_EVENT_MESSAGE(message_id=3581*)
    → "Well, I've had a great time in Windurst, and seen a lot of amazing stuff. Guess it's about time to head on home..."
  2: 0x014D [0x23] WAIT_FOR_DIALOG_INTERACTION
  3: 0x014E [0x29] REQ_SET_WAIT(priority=0x08, entity_id=Sigismund (ID: 17760379/0x010F007B), tag_num=0x04)
  4: 0x0155 [0x29] REQ_SET_WAIT(priority=0x08, entity_id=Sigismund (ID: 17760379/0x010F007B), tag_num=0x05)
  5: 0x015C [0x1D] PRINT_EVENT_MESSAGE(message_id=3582*)
    → "Before I go, I have to find a souvenir of my stay that's unique to Windurst. But none of the stuff sold in the shops here is worth showing off to people..."
  6: 0x015F [0x23] WAIT_FOR_DIALOG_INTERACTION
  7: 0x0160 [0x29] REQ_SET_WAIT(priority=0x08, entity_id=Sigismund (ID: 17760379/0x010F007B), tag_num=0x06)
  8: 0x0167 [0x00] END_REQSTACK()
```

### Event 65535.19

#### Metadata

| Field        | Value    |
|--------------|----------|
| Entrypoint   | 0x0168   |
| Data Size    | 19 bytes |
| Instructions | 5        |

```
      00 01 02 03 04 05 06 07  08 09 0A 0B 0C 0D 0E 0F
      -- -- -- -- -- -- -- --  -- -- -- -- -- -- -- --
0160:                          29 08 7B 00 0F 01 01 1D          ).{.....
0170: 06 80 23 29 08 7B 00 0F  01 01 00                 ..#).{.....     
```

#### Opcodes

```
  0: 0x0168 [0x29] REQ_SET_WAIT(priority=0x08, entity_id=Sigismund (ID: 17760379/0x010F007B), tag_num=0x01)
  1: 0x016F [0x1D] PRINT_EVENT_MESSAGE(message_id=3583*)
    → "Hey, adventurer! Have you heard about a place out in Sarutabaruta somewhere called the Starfall Hillock?"
  2: 0x0172 [0x23] WAIT_FOR_DIALOG_INTERACTION
  3: 0x0173 [0x29] REQ_SET_WAIT(priority=0x08, entity_id=Sigismund (ID: 17760379/0x010F007B), tag_num=0x01)
  4: 0x017A [0x00] END_REQSTACK()
```

### Event 65535.20

#### Metadata

| Field        | Value    |
|--------------|----------|
| Entrypoint   | 0x017B   |
| Data Size    | 23 bytes |
| Instructions | 7        |

```
      00 01 02 03 04 05 06 07  08 09 0A 0B 0C 0D 0E 0F
      -- -- -- -- -- -- -- --  -- -- -- -- -- -- -- --
0170:                                   29 08 7B 00 0F             ).{..
0180: 01 01 1D 07 80 23 1D 08  80 23 29 08 7B 00 0F 01  .....#...#).{...
0190: 11 00                                             ..              
```

#### Opcodes

```
  0: 0x017B [0x29] REQ_SET_WAIT(priority=0x08, entity_id=Sigismund (ID: 17760379/0x010F007B), tag_num=0x01)
  1: 0x0182 [0x1D] PRINT_EVENT_MESSAGE(message_id=3584*)
    → "I've heard that at a certain time of night on that hill, the dew crystallizes into ice, forming $1."
  2: 0x0185 [0x23] WAIT_FOR_DIALOG_INTERACTION
  3: 0x0186 [0x1D] PRINT_EVENT_MESSAGE(message_id=3585*)
    → "The little missus would be so pleased if you could get your hands on one of those ice crystals. She's bound to think it's all cute and M<Player>drchen-like, don't you think? So how about it, huh? If you won't do it for me, do it for the little missus."
  4: 0x0189 [0x23] WAIT_FOR_DIALOG_INTERACTION
  5: 0x018A [0x29] REQ_SET_WAIT(priority=0x08, entity_id=Sigismund (ID: 17760379/0x010F007B), tag_num=0x11)
  6: 0x0191 [0x00] END_REQSTACK()
```

### Event 197

#### Metadata

| Field        | Value    |
|--------------|----------|
| Entrypoint   | 0x0192   |
| Data Size    | 33 bytes |
| Instructions | 12       |

```
      00 01 02 03 04 05 06 07  08 09 0A 0B 0C 0D 0E 0F
      -- -- -- -- -- -- -- --  -- -- -- -- -- -- -- --
0190:       1E F0 FF FF 7F 6F  70 29 08 7B 00 0F 01 01    .....op).{....
01A0: 1D 09 80 23 1D 0A 80 23  29 08 7B 00 0F 01 11 20  ...#...#).{.... 
01B0: 00 21 00                                          .!.             
```

#### Opcodes

```
  0: 0x0192 [0x1E] EventEntity looks at LocalPlayer and starts talking
  1: 0x0197 [0x6F] WAIT_FRAME_DELAY: Yield until WaitTime reaches zero
  2: 0x0198 [0x70] WAIT_ENTITY_RENDER_FLAG: Wait while EventEntity->Render.Flags3 bit 2 is set (cancel turn if not)
  3: 0x0199 [0x29] REQ_SET_WAIT(priority=0x08, entity_id=Sigismund (ID: 17760379/0x010F007B), tag_num=0x01)
  4: 0x01A0 [0x1D] PRINT_EVENT_MESSAGE(message_id=3586*)
    → "Out in Sarutabaruta somewhere there's a place called Starfall Hillock where, only for a few hours of each night, you can find a beautiful natural ice formation called $1."
  5: 0x01A3 [0x23] WAIT_FOR_DIALOG_INTERACTION
  6: 0x01A4 [0x1D] PRINT_EVENT_MESSAGE(message_id=3587*)
    → "They say Windurst is the country blessed by the moon and stars, so something to do with the stars would make a most fitting present, don't you think?"
  7: 0x01A7 [0x23] WAIT_FOR_DIALOG_INTERACTION
  8: 0x01A8 [0x29] REQ_SET_WAIT(priority=0x08, entity_id=Sigismund (ID: 17760379/0x010F007B), tag_num=0x11)
  9: 0x01AF [0x20] SET_CLI_EVENT_UC_FLAG: Unlock player control
 10: 0x01B1 [0x21] END_EVENT
 11: 0x01B2 [0x00] END_REQSTACK()
```

### Event 199

#### Metadata

| Field        | Value    |
|--------------|----------|
| Entrypoint   | 0x01B3   |
| Data Size    | 52 bytes |
| Instructions | 12       |

```
      00 01 02 03 04 05 06 07  08 09 0A 0B 0C 0D 0E 0F
      -- -- -- -- -- -- -- --  -- -- -- -- -- -- -- --
01B0:          20 01 42 1E F0  FF FF 7F 6F 70 29 0B 7B      .B.....op).{
01C0: 00 0F 01 19 29 0B 7B 00  0F 01 1A 29 0B 7B 00 0F  ....).{....).{..
01D0: 01 1B 45 0B 80 F0 FF FF  7F F0 FF FF 7F 71 73 74  ..E..........qst
01E0: 63 0C 80 20 00 21 00                              c.. .!.         
```

#### Opcodes

```
  0: 0x01B3 [0x20] SET_CLI_EVENT_UC_FLAG: Lock player control
  1: 0x01B5 [0x42] SET_CLI_EVENT_CANCEL_DATA()
  2: 0x01B6 [0x1E] EventEntity looks at LocalPlayer and starts talking
  3: 0x01BB [0x6F] WAIT_FRAME_DELAY: Yield until WaitTime reaches zero
  4: 0x01BC [0x70] WAIT_ENTITY_RENDER_FLAG: Wait while EventEntity->Render.Flags3 bit 2 is set (cancel turn if not)
  5: 0x01BD [0x29] REQ_SET_WAIT(priority=0x0B, entity_id=Sigismund (ID: 17760379/0x010F007B), tag_num=0x19)
  6: 0x01C4 [0x29] REQ_SET_WAIT(priority=0x0B, entity_id=Sigismund (ID: 17760379/0x010F007B), tag_num=0x1A)
  7: 0x01CB [0x29] REQ_SET_WAIT(priority=0x0B, entity_id=Sigismund (ID: 17760379/0x010F007B), tag_num=0x1B)
  8: 0x01D2 [0x45] LOAD_SCHEDULED_TASK: Load scheduler "qstc" with entities [LocalPlayer, LocalPlayer], work=[201*, 0*]
  9: 0x01E3 [0x20] SET_CLI_EVENT_UC_FLAG: Unlock player control
 10: 0x01E5 [0x21] END_EVENT
 11: 0x01E6 [0x00] END_REQSTACK()
```

### Event 65535.21

#### Metadata

| Field        | Value    |
|--------------|----------|
| Entrypoint   | 0x01E7   |
| Data Size    | 19 bytes |
| Instructions | 5        |

```
      00 01 02 03 04 05 06 07  08 09 0A 0B 0C 0D 0E 0F
      -- -- -- -- -- -- -- --  -- -- -- -- -- -- -- --
01E0:                      29  08 7B 00 0F 01 01 1D 0D         ).{......
01F0: 80 23 29 08 7B 00 0F 01  02 00                    .#).{.....      
```

#### Opcodes

```
  0: 0x01E7 [0x29] REQ_SET_WAIT(priority=0x08, entity_id=Sigismund (ID: 17760379/0x010F007B), tag_num=0x01)
  1: 0x01EE [0x1D] PRINT_EVENT_MESSAGE(message_id=3591*)
    → "Oh, well done! I'm so pleased you were able to get me one. Let me see it...!"
  2: 0x01F1 [0x23] WAIT_FOR_DIALOG_INTERACTION
  3: 0x01F2 [0x29] REQ_SET_WAIT(priority=0x08, entity_id=Sigismund (ID: 17760379/0x010F007B), tag_num=0x02)
  4: 0x01F9 [0x00] END_REQSTACK()
```

### Event 65535.22

#### Metadata

| Field        | Value    |
|--------------|----------|
| Entrypoint   | 0x01FA   |
| Data Size    | 12 bytes |
| Instructions | 4        |

```
      00 01 02 03 04 05 06 07  08 09 0A 0B 0C 0D 0E 0F
      -- -- -- -- -- -- -- --  -- -- -- -- -- -- -- --
01F0:                                29 08 7B 00 0F 01            ).{...
0200: 01 1D 0E 80 23 00                                 ....#.          
```

#### Opcodes

```
  0: 0x01FA [0x29] REQ_SET_WAIT(priority=0x08, entity_id=Sigismund (ID: 17760379/0x010F007B), tag_num=0x01)
  1: 0x0201 [0x1D] PRINT_EVENT_MESSAGE(message_id=3592*)
    → "...Ah!"
  2: 0x0204 [0x23] WAIT_FOR_DIALOG_INTERACTION
  3: 0x0205 [0x00] END_REQSTACK()
```

### Event 65535.23

#### Metadata

| Field        | Value    |
|--------------|----------|
| Entrypoint   | 0x0206   |
| Data Size    | 58 bytes |
| Instructions | 12       |

```
      00 01 02 03 04 05 06 07  08 09 0A 0B 0C 0D 0E 0F
      -- -- -- -- -- -- -- --  -- -- -- -- -- -- -- --
0200:                   29 08  7B 00 0F 01 02 29 08 7B        ).{....).{
0210: 00 0F 01 03 1D 0F 80 23  29 08 7B 00 0F 01 04 29  .......#).{....)
0220: 08 7B 00 0F 01 05 29 08  7B 00 0F 01 06 29 08 7B  .{....).{....).{
0230: 00 0F 01 0F 1D 10 80 23  29 08 7B 00 0F 01 06 00  .......#).{.....
```

#### Opcodes

```
  0: 0x0206 [0x29] REQ_SET_WAIT(priority=0x08, entity_id=Sigismund (ID: 17760379/0x010F007B), tag_num=0x02)
  1: 0x020D [0x29] REQ_SET_WAIT(priority=0x08, entity_id=Sigismund (ID: 17760379/0x010F007B), tag_num=0x03)
  2: 0x0214 [0x1D] PRINT_EVENT_MESSAGE(message_id=3593*)
    → "Why didn't you tell me that it melts away when you touch it with your bare hands? How am I supposed to carry that home then?"
  3: 0x0217 [0x23] WAIT_FOR_DIALOG_INTERACTION
  4: 0x0218 [0x29] REQ_SET_WAIT(priority=0x08, entity_id=Sigismund (ID: 17760379/0x010F007B), tag_num=0x04)
  5: 0x021F [0x29] REQ_SET_WAIT(priority=0x08, entity_id=Sigismund (ID: 17760379/0x010F007B), tag_num=0x05)
  6: 0x0226 [0x29] REQ_SET_WAIT(priority=0x08, entity_id=Sigismund (ID: 17760379/0x010F007B), tag_num=0x06)
  7: 0x022D [0x29] REQ_SET_WAIT(priority=0x08, entity_id=Sigismund (ID: 17760379/0x010F007B), tag_num=0x0F)
  8: 0x0234 [0x1D] PRINT_EVENT_MESSAGE(message_id=3594*)
    → "But then again, you kept your side of the bargain, and a promise is a promise, so here... Take your reward and leave me be."
  9: 0x0237 [0x23] WAIT_FOR_DIALOG_INTERACTION
 10: 0x0238 [0x29] REQ_SET_WAIT(priority=0x08, entity_id=Sigismund (ID: 17760379/0x010F007B), tag_num=0x06)
 11: 0x023F [0x00] END_REQSTACK()
```

### Event 200

#### Metadata

| Field        | Value    |
|--------------|----------|
| Entrypoint   | 0x0240   |
| Data Size    | 33 bytes |
| Instructions | 12       |

```
      00 01 02 03 04 05 06 07  08 09 0A 0B 0C 0D 0E 0F
      -- -- -- -- -- -- -- --  -- -- -- -- -- -- -- --
0240: 1E F0 FF FF 7F 6F 70 29  08 7B 00 0F 01 01 1D 11  .....op).{......
0250: 80 23 1D 12 80 23 29 08  7B 00 0F 01 11 20 00 21  .#...#).{.... .!
0260: 00                                                .               
```

#### Opcodes

```
  0: 0x0240 [0x1E] EventEntity looks at LocalPlayer and starts talking
  1: 0x0245 [0x6F] WAIT_FRAME_DELAY: Yield until WaitTime reaches zero
  2: 0x0246 [0x70] WAIT_ENTITY_RENDER_FLAG: Wait while EventEntity->Render.Flags3 bit 2 is set (cancel turn if not)
  3: 0x0247 [0x29] REQ_SET_WAIT(priority=0x08, entity_id=Sigismund (ID: 17760379/0x010F007B), tag_num=0x01)
  4: 0x024E [0x1D] PRINT_EVENT_MESSAGE(message_id=3595*)
    → "If I had known it was that delicate I wouldn't have asked for one. It's impossible for me to carry such a fragile thing back home."
  5: 0x0251 [0x23] WAIT_FOR_DIALOG_INTERACTION
  6: 0x0252 [0x1D] PRINT_EVENT_MESSAGE(message_id=3596*)
    → "Looks like I have to think of some other souvenir to take back, otherwise the little missus is gonna kill me. Umm... Let me see..."
  7: 0x0255 [0x23] WAIT_FOR_DIALOG_INTERACTION
  8: 0x0256 [0x29] REQ_SET_WAIT(priority=0x08, entity_id=Sigismund (ID: 17760379/0x010F007B), tag_num=0x11)
  9: 0x025D [0x20] SET_CLI_EVENT_UC_FLAG: Unlock player control
 10: 0x025F [0x21] END_EVENT
 11: 0x0260 [0x00] END_REQSTACK()
```
