# 17760338 - Kohlo-Lakolo

## Common Data

| Field            | Value                   |
|------------------|-------------------------|
| Zone             | Port Windurst (ID: 240) |
| Block Size       | 35356 bytes             |
| Total Events     | 215                     |
| References Count | 417                     |

## List of Events

| Event ID                     | Entrypoint   |   Size |   Instructions |
|------------------------------|--------------|--------|----------------|
| [65535](#event-65535)        | 0x0000       |      1 |              1 |
| [65535.1](#event-655351)     | 0x0001       |     16 |              2 |
| [65535.2](#event-655352)     | 0x0011       |     22 |              4 |
| [65535.3](#event-655353)     | 0x0027       |     16 |              2 |
| [65535.4](#event-655354)     | 0x0037       |     14 |              2 |
| [65535.5](#event-655355)     | 0x0045       |     16 |              2 |
| [65535.6](#event-655356)     | 0x0055       |     14 |              2 |
| [65535.7](#event-655357)     | 0x0063       |     57 |              5 |
| [65535.8](#event-655358)     | 0x009C       |     22 |              3 |
| [65535.9](#event-655359)     | 0x00B2       |     20 |              3 |
| [65535.10](#event-6553510)   | 0x00C6       |     16 |              2 |
| [65535.11](#event-6553511)   | 0x00D6       |     22 |              4 |
| [65535.12](#event-6553512)   | 0x00EC       |     16 |              2 |
| [65535.13](#event-6553513)   | 0x00FC       |     22 |              4 |
| [65535.14](#event-6553514)   | 0x0112       |     22 |              3 |
| [65535.15](#event-6553515)   | 0x0128       |     20 |              3 |
| [65535.16](#event-6553516)   | 0x013C       |     22 |              3 |
| [65535.17](#event-6553517)   | 0x0152       |     20 |              3 |
| [65535.18](#event-6553518)   | 0x0166       |     22 |              3 |
| [65535.19](#event-6553519)   | 0x017C       |     22 |              4 |
| [65535.20](#event-6553520)   | 0x0192       |     16 |              2 |
| [65535.21](#event-6553521)   | 0x01A2       |     14 |              2 |
| [65535.22](#event-6553522)   | 0x01B0       |     16 |              2 |
| [65535.23](#event-6553523)   | 0x01C0       |     22 |              4 |
| [65535.24](#event-6553524)   | 0x01D6       |     16 |              2 |
| [65535.25](#event-6553525)   | 0x01E6       |     14 |              2 |
| [65535.26](#event-6553526)   | 0x01F4       |     22 |              3 |
| [65535.27](#event-6553527)   | 0x020A       |     20 |              3 |
| [65535.28](#event-6553528)   | 0x021E       |     16 |              2 |
| [65535.29](#event-6553529)   | 0x022E       |     14 |              2 |
| [65535.30](#event-6553530)   | 0x023C       |     16 |              2 |
| [65535.31](#event-6553531)   | 0x024C       |     14 |              2 |
| [65535.32](#event-6553532)   | 0x025A       |      9 |              3 |
| [65535.33](#event-6553533)   | 0x0263       |     50 |              5 |
| [65535.34](#event-6553534)   | 0x0295       |     16 |              2 |
| [65535.35](#event-6553535)   | 0x02A5       |     14 |              2 |
| [65535.36](#event-6553536)   | 0x02B3       |     16 |              2 |
| [65535.37](#event-6553537)   | 0x02C3       |     22 |              4 |
| [361](#event-361)            | 0x02D9       |    206 |             54 |
| [544](#event-544)            | 0x03A7       |    216 |             57 |
| [65535.38](#event-6553538)   | 0x047F       |     35 |              9 |
| [368](#event-368)            | 0x04A2       |    314 |             47 |
| [65535.39](#event-6553539)   | 0x05DC       |     55 |             13 |
| [65535.40](#event-6553540)   | 0x0613       |     19 |              5 |
| [65535.41](#event-6553541)   | 0x0626       |     19 |              5 |
| [369](#event-369)            | 0x0639       |    165 |             25 |
| [65535.42](#event-6553542)   | 0x06DE       |     19 |              5 |
| [370](#event-370)            | 0x06F1       |    750 |             85 |
| [65535.43](#event-6553543)   | 0x09DF       |     19 |              5 |
| [65535.44](#event-6553544)   | 0x09F2       |     19 |              5 |
| [65535.45](#event-6553545)   | 0x0A05       |      5 |              3 |
| [65535.46](#event-6553546)   | 0x0A0A       |     19 |              5 |
| [65535.47](#event-6553547)   | 0x0A1D       |     19 |              5 |
| [65535.48](#event-6553548)   | 0x0A30       |     19 |              5 |
| [65535.49](#event-6553549)   | 0x0A43       |     19 |              5 |
| [65535.50](#event-6553550)   | 0x0A56       |     37 |              9 |
| [65535.51](#event-6553551)   | 0x0A7B       |     19 |              5 |
| [371](#event-371)            | 0x0A8E       |     33 |             12 |
| [378](#event-378)            | 0x0AAF       |    363 |             51 |
| [65535.52](#event-6553552)   | 0x0C1A       |     37 |              9 |
| [65535.53](#event-6553553)   | 0x0C3F       |     37 |              9 |
| [65535.54](#event-6553554)   | 0x0C64       |     33 |              7 |
| [65535.55](#event-6553555)   | 0x0C85       |     19 |              5 |
| [379](#event-379)            | 0x0C98       |     33 |             12 |
| [391](#event-391)            | 0x0CB9       |    646 |             79 |
| [65535.56](#event-6553556)   | 0x0F3F       |     12 |              4 |
| [65535.57](#event-6553557)   | 0x0F4B       |     12 |              4 |
| [65535.58](#event-6553558)   | 0x0F57       |      5 |              3 |
| [65535.59](#event-6553559)   | 0x0F5C       |     19 |              5 |
| [65535.60](#event-6553560)   | 0x0F6F       |     19 |              5 |
| [65535.61](#event-6553561)   | 0x0F82       |      5 |              3 |
| [65535.62](#event-6553562)   | 0x0F87       |     19 |              5 |
| [65535.63](#event-6553563)   | 0x0F9A       |     19 |              5 |
| [392](#event-392)            | 0x0FAD       |     33 |             12 |
| [398](#event-398)            | 0x0FCE       |    179 |             33 |
| [399](#event-399)            | 0x1081       |     33 |             12 |
| [400](#event-400)            | 0x10A2       |    497 |             56 |
| [65535.64](#event-6553564)   | 0x1293       |     19 |              5 |
| [65535.65](#event-6553565)   | 0x12A6       |     19 |              5 |
| [65535.66](#event-6553566)   | 0x12B9       |     19 |              5 |
| [401](#event-401)            | 0x12CC       |     33 |             12 |
| [386](#event-386)            | 0x12ED       |   3070 |            420 |
| [387](#event-387)            | 0x1EEB       |     40 |             16 |
| [388](#event-388)            | 0x1F13       |     51 |             16 |
| [389](#event-389)            | 0x1F46       |     29 |             10 |
| [390](#event-390)            | 0x1F63       |   3007 |            407 |
| [413](#event-413)            | 0x2B22       |    425 |             57 |
| [65535.67](#event-6553567)   | 0x2CCB       |     23 |              7 |
| [65535.68](#event-6553568)   | 0x2CE2       |     19 |              5 |
| [65535.69](#event-6553569)   | 0x2CF5       |     19 |              5 |
| [65535.70](#event-6553570)   | 0x2D08       |     33 |              7 |
| [65535.71](#event-6553571)   | 0x2D29       |     19 |              5 |
| [65535.72](#event-6553572)   | 0x2D3C       |     19 |              5 |
| [65535.73](#event-6553573)   | 0x2D4F       |     19 |              5 |
| [65535.74](#event-6553574)   | 0x2D62       |     19 |              5 |
| [65535.75](#event-6553575)   | 0x2D75       |     33 |              7 |
| [65535.76](#event-6553576)   | 0x2D96       |     19 |              5 |
| [414](#event-414)            | 0x2DA9       |     33 |             12 |
| [421](#event-421)            | 0x2DCA       |    487 |             56 |
| [65535.77](#event-6553577)   | 0x2FB1       |     10 |              2 |
| [65535.78](#event-6553578)   | 0x2FBB       |     19 |              5 |
| [65535.79](#event-6553579)   | 0x2FCE       |      5 |              3 |
| [65535.80](#event-6553580)   | 0x2FD3       |     19 |              5 |
| [65535.81](#event-6553581)   | 0x2FE6       |     19 |              5 |
| [422](#event-422)            | 0x2FF9       |     33 |             12 |
| [429](#event-429)            | 0x301A       |     51 |             16 |
| [430](#event-430)            | 0x304D       |    163 |             22 |
| [65535.82](#event-6553582)   | 0x30F0       |     33 |              7 |
| [65535.83](#event-6553583)   | 0x3111       |     19 |              5 |
| [65535.84](#event-6553584)   | 0x3124       |     19 |              5 |
| [65535.85](#event-6553585)   | 0x3137       |     19 |              5 |
| [431](#event-431)            | 0x314A       |     33 |             12 |
| [440](#event-440)            | 0x316B       |     33 |             12 |
| [432](#event-432)            | 0x318C       |   4666 |            596 |
| [433](#event-433)            | 0x43C6       |   4645 |            595 |
| [324](#event-324)            | 0x55EB       |      1 |              1 |
| [65535.86](#event-6553586)   | 0x55EC       |     10 |              2 |
| [65535.87](#event-6553587)   | 0x55F6       |     37 |              9 |
| [65535.88](#event-6553588)   | 0x561B       |     15 |              5 |
| [65535.89](#event-6553589)   | 0x562A       |     18 |              6 |
| [65535.90](#event-6553590)   | 0x563C       |     22 |              4 |
| [65535.91](#event-6553591)   | 0x5652       |      5 |              3 |
| [65535.92](#event-6553592)   | 0x5657       |     37 |              9 |
| [65535.93](#event-6553593)   | 0x567C       |     23 |              7 |
| [65535.94](#event-6553594)   | 0x5693       |      5 |              3 |
| [65535.95](#event-6553595)   | 0x5698       |      5 |              3 |
| [65535.96](#event-6553596)   | 0x569D       |      5 |              3 |
| [65535.97](#event-6553597)   | 0x56A2       |      5 |              3 |
| [65535.98](#event-6553598)   | 0x56A7       |      5 |              3 |
| [65535.99](#event-6553599)   | 0x56AC       |     19 |              5 |
| [65535.100](#event-65535100) | 0x56BF       |     19 |              5 |
| [65535.101](#event-65535101) | 0x56D2       |     19 |              5 |
| [65535.102](#event-65535102) | 0x56E5       |      5 |              3 |
| [65535.103](#event-65535103) | 0x56EA       |     10 |              2 |
| [65535.104](#event-65535104) | 0x56F4       |     10 |              2 |
| [65535.105](#event-65535105) | 0x56FE       |     15 |              5 |
| [65535.106](#event-65535106) | 0x570D       |     15 |              5 |
| [65535.107](#event-65535107) | 0x571C       |     24 |              6 |
| [65535.108](#event-65535108) | 0x5734       |      5 |              3 |
| [65535.109](#event-65535109) | 0x5739       |     19 |              5 |
| [65535.110](#event-65535110) | 0x574C       |     19 |              5 |
| [65535.111](#event-65535111) | 0x575F       |     19 |              5 |
| [65535.112](#event-65535112) | 0x5772       |     33 |              7 |
| [65535.113](#event-65535113) | 0x5793       |      5 |              3 |
| [65535.114](#event-65535114) | 0x5798       |     27 |              7 |
| [65535.115](#event-65535115) | 0x57B3       |     17 |              6 |
| [65535.116](#event-65535116) | 0x57C4       |     19 |              5 |
| [65535.117](#event-65535117) | 0x57D7       |      5 |              3 |
| [65535.118](#event-65535118) | 0x57DC       |      5 |              3 |
| [323](#event-323)            | 0x57E1       |      1 |              1 |
| [65535.119](#event-65535119) | 0x57E2       |     10 |              2 |
| [65535.120](#event-65535120) | 0x57EC       |     43 |              9 |
| [65535.121](#event-65535121) | 0x5817       |     15 |              5 |
| [65535.122](#event-65535122) | 0x5826       |     10 |              2 |
| [65535.123](#event-65535123) | 0x5830       |     15 |              5 |
| [65535.124](#event-65535124) | 0x583F       |      5 |              3 |
| [65535.125](#event-65535125) | 0x5844       |      5 |              3 |
| [65535.126](#event-65535126) | 0x5849       |      5 |              3 |
| [65535.127](#event-65535127) | 0x584E       |      5 |              3 |
| [65535.128](#event-65535128) | 0x5853       |     19 |              5 |
| [65535.129](#event-65535129) | 0x5866       |      5 |              3 |
| [65535.130](#event-65535130) | 0x586B       |     19 |              5 |
| [65535.131](#event-65535131) | 0x587E       |      5 |              3 |
| [65535.132](#event-65535132) | 0x5883       |     19 |              5 |
| [65535.133](#event-65535133) | 0x5896       |     19 |              5 |
| [65535.134](#event-65535134) | 0x58A9       |      5 |              3 |
| [449](#event-449)            | 0x58AE       |     86 |             24 |
| [450](#event-450)            | 0x5904       |     47 |             14 |
| [496](#event-496)            | 0x5933       |    800 |            102 |
| [497](#event-497)            | 0x5C53       |   1383 |            181 |
| [498](#event-498)            | 0x61BA       |     47 |             14 |
| [512](#event-512)            | 0x61E9       |     29 |             10 |
| [505](#event-505)            | 0x6206       |     47 |             14 |
| [545](#event-545)            | 0x6235       |     47 |             14 |
| [546](#event-546)            | 0x6264       |     33 |             12 |
| [513](#event-513)            | 0x6285       |   1620 |            183 |
| [65535.135](#event-65535135) | 0x68D9       |      5 |              3 |
| [65535.136](#event-65535136) | 0x68DE       |      5 |              3 |
| [65535.137](#event-65535137) | 0x68E3       |      5 |              3 |
| [65535.138](#event-65535138) | 0x68E8       |      5 |              3 |
| [65535.139](#event-65535139) | 0x68ED       |      5 |              3 |
| [65535.140](#event-65535140) | 0x68F2       |      5 |              3 |
| [514](#event-514)            | 0x68F7       |     47 |             14 |
| [522](#event-522)            | 0x6926       |   2199 |            267 |
| [65535.141](#event-65535141) | 0x71BD       |      5 |              3 |
| [65535.142](#event-65535142) | 0x71C2       |      5 |              3 |
| [65535.143](#event-65535143) | 0x71C7       |      5 |              3 |
| [523](#event-523)            | 0x71CC       |     33 |             12 |
| [65535.144](#event-65535144) | 0x71ED       |     10 |              2 |
| [65535.145](#event-65535145) | 0x71F7       |     14 |              4 |
| [65535.146](#event-65535146) | 0x7205       |     14 |              4 |
| [532](#event-532)            | 0x7213       |    810 |             94 |
| [65535.147](#event-65535147) | 0x753D       |      5 |              3 |
| [65535.148](#event-65535148) | 0x7542       |      5 |              3 |
| [65535.149](#event-65535149) | 0x7547       |      5 |              3 |
| [65535.150](#event-65535150) | 0x754C       |      5 |              3 |
| [65535.151](#event-65535151) | 0x7551       |      5 |              3 |
| [533](#event-533)            | 0x7556       |     29 |             10 |
| [534](#event-534)            | 0x7573       |      1 |              1 |
| [535](#event-535)            | 0x7574       |     33 |             12 |
| [543](#event-543)            | 0x7595       |     33 |             12 |
| [542](#event-542)            | 0x75B6       |      1 |              1 |
| [65535.152](#event-65535152) | 0x75B7       |     10 |              2 |
| [584](#event-584)            | 0x75C1       |   2579 |            321 |
| [585](#event-585)            | 0x7FD4       |     51 |             16 |
| [877](#event-877)            | 0x8007       |     20 |              8 |
| [915](#event-915)            | 0x801B       |      1 |              1 |
| [916](#event-916)            | 0x801C       |      1 |              1 |
| [924](#event-924)            | 0x801D       |      1 |              1 |
| [65535.153](#event-65535153) | 0x801E       |      5 |              2 |
| [65535.154](#event-65535154) | 0x8023       |      5 |              2 |
| [917](#event-917)            | 0x8028       |      1 |              1 |
| [925](#event-925)            | 0x8029       |      1 |              1 |
| [926](#event-926)            | 0x802A       |      1 |              1 |
| [933](#event-933)            | 0x802B       |      1 |              1 |

## DAT References (imed_data)

|   Index | Hex Value   |   Dec Value |
|---------|-------------|-------------|
|       0 | 0x0055      |          85 |
|       1 | 0x001E      |          30 |
|       2 | 0x0058      |          88 |
|       3 | 0x0056      |          86 |
|       4 | 0x000A      |          10 |
|       5 | 0x1034      |        4148 |
|       6 | 0x0000      |           0 |
|       7 | 0x1035      |        4149 |
|       8 | 0x0001      |           1 |
|       9 | 0x1036      |        4150 |
|      10 | 0x0002      |           2 |
|      11 | 0x1037      |        4151 |
|      12 | 0x0003      |           3 |
|      13 | 0x1039      |        4153 |
|      14 | 0x0004      |           4 |
|      15 | 0x103A      |        4154 |
|      16 | 0x0005      |           5 |
|      17 | 0x103B      |        4155 |
|      18 | 0x0006      |           6 |
|      19 | 0x103C      |        4156 |
|      20 | 0x0007      |           7 |
|      21 | 0x103D      |        4157 |
|      22 | 0x0008      |           8 |
|      23 | 0x103E      |        4158 |
|      24 | 0x0009      |           9 |
|      25 | 0x103F      |        4159 |
|      26 | 0x1040      |        4160 |
|      27 | 0x3127      |       12583 |
|      28 | 0x000B      |          11 |
|      29 | 0x0015      |          21 |
|      30 | 0xFFFF8A73  |  4294937203 |
|      31 | 0x2E53F     |      189759 |
|      32 | 0xFFFFE0C3  |  4294959299 |
|      33 | 0xFFFF89DC  |  4294937052 |
|      34 | 0x2EF87     |      192391 |
|      35 | 0xFFFFE4A8  |  4294960296 |
|      36 | 0xFFFF80FB  |  4294934779 |
|      37 | 0x2F2EA     |      193258 |
|      38 | 0x00C8      |         200 |
|      39 | 0x0013      |          19 |
|      40 | 0x00A3      |         163 |
|      41 | 0x007F      |         127 |
|      42 | 0x0078      |         120 |
|      43 | 0x008C      |         140 |
|      44 | 0x104C      |        4172 |
|      45 | 0x0097      |         151 |
|      46 | 0x1047      |        4167 |
|      47 | 0x1048      |        4168 |
|      48 | 0x1049      |        4169 |
|      49 | 0x104A      |        4170 |
|      50 | 0x104B      |        4171 |
|      51 | 0x003C      |          60 |
|      52 | 0x104D      |        4173 |
|      53 | 0x0FFC      |        4092 |
|      54 | 0xFFFF9AE2  |  4294941410 |
|      55 | 0x2F4C6     |      193734 |
|      56 | 0xFFFFE890  |  4294961296 |
|      57 | 0x00D7      |         215 |
|      58 | 0x0064      |         100 |
|      59 | 0x0032      |          50 |
|      60 | 0x1053      |        4179 |
|      61 | 0x1056      |        4182 |
|      62 | 0x1057      |        4183 |
|      63 | 0x1058      |        4184 |
|      64 | 0x105F      |        4191 |
|      65 | 0x1060      |        4192 |
|      66 | 0x1063      |        4195 |
|      67 | 0x1064      |        4196 |
|      68 | 0x1065      |        4197 |
|      69 | 0x1066      |        4198 |
|      70 | 0x1067      |        4199 |
|      71 | 0x1068      |        4200 |
|      72 | 0x1077      |        4215 |
|      73 | 0x0FF0      |        4080 |
|      74 | 0x00C9      |         201 |
|      75 | 0x1075      |        4213 |
|      76 | 0x1076      |        4214 |
|      77 | 0x1078      |        4216 |
|      78 | 0x1079      |        4217 |
|      79 | 0x107C      |        4220 |
|      80 | 0x107D      |        4221 |
|      81 | 0x107E      |        4222 |
|      82 | 0x107F      |        4223 |
|      83 | 0x10A0      |        4256 |
|      84 | 0x109C      |        4252 |
|      85 | 0x109D      |        4253 |
|      86 | 0x109E      |        4254 |
|      87 | 0x10A2      |        4258 |
|      88 | 0x10A3      |        4259 |
|      89 | 0x10A5      |        4261 |
|      90 | 0x10A6      |        4262 |
|      91 | 0x10A7      |        4263 |
|      92 | 0x10AD      |        4269 |
|      93 | 0x10AE      |        4270 |
|      94 | 0x10B9      |        4281 |
|      95 | 0x10BA      |        4282 |
|      96 | 0x10BB      |        4283 |
|      97 | 0x10BC      |        4284 |
|      98 | 0x10C5      |        4293 |
|      99 | 0x10C6      |        4294 |
|     100 | 0x10C7      |        4295 |
|     101 | 0x10C8      |        4296 |
|     102 | 0x108B      |        4235 |
|     103 | 0x108C      |        4236 |
|     104 | 0x108D      |        4237 |
|     105 | 0x108E      |        4238 |
|     106 | 0x00EF      |         239 |
|     107 | 0x000C      |          12 |
|     108 | 0x0813      |        2067 |
|     109 | 0x0014      |          20 |
|     110 | 0x008B      |         139 |
|     111 | 0x0F76      |        3958 |
|     112 | 0x0F78      |        3960 |
|     113 | 0x0F84      |        3972 |
|     114 | 0x0F85      |        3973 |
|     115 | 0x0F88      |        3976 |
|     116 | 0x0F87      |        3975 |
|     117 | 0x012C      |         300 |
|     118 | 0x061F      |        1567 |
|     119 | 0x0400      |        1024 |
|     120 | 0x0F7E      |        3966 |
|     121 | 0x0F7F      |        3967 |
|     122 | 0x0F80      |        3968 |
|     123 | 0x0F81      |        3969 |
|     124 | 0x0F8F      |        3983 |
|     125 | 0x007B      |         123 |
|     126 | 0x0F8C      |        3980 |
|     127 | 0x0096      |         150 |
|     128 | 0x00F0      |         240 |
|     129 | 0xFFFF8EB8  |  4294938296 |
|     130 | 0x2E472     |      189554 |
|     131 | 0x0FA0      |        4000 |
|     132 | 0x108F      |        4239 |
|     133 | 0x1090      |        4240 |
|     134 | 0x1091      |        4241 |
|     135 | 0x1092      |        4242 |
|     136 | 0x1093      |        4243 |
|     137 | 0x1094      |        4244 |
|     138 | 0x1095      |        4245 |
|     139 | 0x1096      |        4246 |
|     140 | 0x1097      |        4247 |
|     141 | 0x1098      |        4248 |
|     142 | 0x1099      |        4249 |
|     143 | 0x109A      |        4250 |
|     144 | 0x109B      |        4251 |
|     145 | 0x00B1      |         177 |
|     146 | 0x018D      |         397 |
|     147 | 0x040E      |        1038 |
|     148 | 0x10DE      |        4318 |
|     149 | 0x10D8      |        4312 |
|     150 | 0x10D9      |        4313 |
|     151 | 0x10DA      |        4314 |
|     152 | 0x10DB      |        4315 |
|     153 | 0x10DC      |        4316 |
|     154 | 0x10DD      |        4317 |
|     155 | 0x10DF      |        4319 |
|     156 | 0x10E0      |        4320 |
|     157 | 0x10E1      |        4321 |
|     158 | 0x10E2      |        4322 |
|     159 | 0x10E3      |        4323 |
|     160 | 0x10E4      |        4324 |
|     161 | 0x10E5      |        4325 |
|     162 | 0xFFFF9BAB  |  4294941611 |
|     163 | 0x2E9F0     |      190960 |
|     164 | 0xFFFFE891  |  4294961297 |
|     165 | 0x0E81      |        3713 |
|     166 | 0x10EF      |        4335 |
|     167 | 0x10F0      |        4336 |
|     168 | 0x10F2      |        4338 |
|     169 | 0x10F7      |        4343 |
|     170 | 0x10F9      |        4345 |
|     171 | 0x10FA      |        4346 |
|     172 | 0x1107      |        4359 |
|     173 | 0x1108      |        4360 |
|     174 | 0x1109      |        4361 |
|     175 | 0x110A      |        4362 |
|     176 | 0x110B      |        4363 |
|     177 | 0x110C      |        4364 |
|     178 | 0x110D      |        4365 |
|     179 | 0x110E      |        4366 |
|     180 | 0x110F      |        4367 |
|     181 | 0x1123      |        4387 |
|     182 | 0x1124      |        4388 |
|     183 | 0x1110      |        4368 |
|     184 | 0x1111      |        4369 |
|     185 | 0x1112      |        4370 |
|     186 | 0x0F95      |        3989 |
|     187 | 0x0F96      |        3990 |
|     188 | 0x0F97      |        3991 |
|     189 | 0x0F98      |        3992 |
|     190 | 0x07D0      |        2000 |
|     191 | 0x0F9B      |        3995 |
|     192 | 0x0FA2      |        4002 |
|     193 | 0x03E8      |        1000 |
|     194 | 0x00A1      |         161 |
|     195 | 0x0FB3      |        4019 |
|     196 | 0x0FB5      |        4021 |
|     197 | 0x0FB8      |        4024 |
|     198 | 0x0FB9      |        4025 |
|     199 | 0x0C03      |        3075 |
|     200 | 0x0FBA      |        4026 |
|     201 | 0x000F      |          15 |
|     202 | 0x0FBE      |        4030 |
|     203 | 0x085E      |        2142 |
|     204 | 0x0FC2      |        4034 |
|     205 | 0x0FC3      |        4035 |
|     206 | 0x0FC5      |        4037 |
|     207 | 0x000D      |          13 |
|     208 | 0x0FCA      |        4042 |
|     209 | 0x0FD0      |        4048 |
|     210 | 0x0C29      |        3113 |
|     211 | 0x0FE0      |        4064 |
|     212 | 0x1113      |        4371 |
|     213 | 0x1114      |        4372 |
|     214 | 0x1115      |        4373 |
|     215 | 0x1116      |        4374 |
|     216 | 0x1117      |        4375 |
|     217 | 0x1118      |        4376 |
|     218 | 0xFFFF9EDD  |  4294942429 |
|     219 | 0x424DF     |      271583 |
|     220 | 0xFFFFD120  |  4294955296 |
|     221 | 0xFFFF9AC2  |  4294941378 |
|     222 | 0x40F62     |      266082 |
|     223 | 0xFFFFCF2F  |  4294954799 |
|     224 | 0x0C44      |        3140 |
|     225 | 0xFFFF9CA6  |  4294941862 |
|     226 | 0x421B6     |      270774 |
|     227 | 0xFFFFA2A3  |  4294943395 |
|     228 | 0x42635     |      271925 |
|     229 | 0x0E91      |        3729 |
|     230 | 0xFFFFA3AA  |  4294943658 |
|     231 | 0x4290C     |      272652 |
|     232 | 0x0C7B      |        3195 |
|     233 | 0x0F99      |        3993 |
|     234 | 0x0F9A      |        3994 |
|     235 | 0x0F9C      |        3996 |
|     236 | 0x0F9D      |        3997 |
|     237 | 0x0FA5      |        4005 |
|     238 | 0x0FA8      |        4008 |
|     239 | 0x0FAF      |        4015 |
|     240 | 0x0FB0      |        4016 |
|     241 | 0x0FB1      |        4017 |
|     242 | 0x0FB2      |        4018 |
|     243 | 0x0FC6      |        4038 |
|     244 | 0xFFFF8FD4  |  4294938580 |
|     245 | 0x45A1F     |      285215 |
|     246 | 0xFFFFCD39  |  4294954297 |
|     247 | 0x0A3D      |        2621 |
|     248 | 0xFFFF788D  |  4294932621 |
|     249 | 0x44FC8     |      282568 |
|     250 | 0x0BD7      |        3031 |
|     251 | 0xFFFF857D  |  4294935933 |
|     252 | 0x45348     |      283464 |
|     253 | 0xFFFF7AE5  |  4294933221 |
|     254 | 0x45227     |      283175 |
|     255 | 0xFFFFCD38  |  4294954296 |
|     256 | 0xFFFF905B  |  4294938715 |
|     257 | 0x45572     |      284018 |
|     258 | 0x0FB4      |        4020 |
|     259 | 0x0FBD      |        4029 |
|     260 | 0x0FBF      |        4031 |
|     261 | 0x0FC1      |        4033 |
|     262 | 0x0FC4      |        4036 |
|     263 | 0xFFFF9A72  |  4294941298 |
|     264 | 0x3FCF4     |      261364 |
|     265 | 0x049A      |        1178 |
|     266 | 0xFFFF9A95  |  4294941333 |
|     267 | 0x3D345     |      250693 |
|     268 | 0xFFFFD018  |  4294955032 |
|     269 | 0x0C5D      |        3165 |
|     270 | 0xFFFF6844  |  4294928452 |
|     271 | 0x3B5A8     |      243112 |
|     272 | 0xFFFFCF2D  |  4294954797 |
|     273 | 0x0FD1      |        4049 |
|     274 | 0x0FD6      |        4054 |
|     275 | 0x0FD7      |        4055 |
|     276 | 0xFFFF9B01  |  4294941441 |
|     277 | 0x407D1     |      264145 |
|     278 | 0xFFFFB9B1  |  4294949297 |
|     279 | 0x03BD      |         957 |
|     280 | 0xFFFF89B3  |  4294937011 |
|     281 | 0x3CF54     |      249684 |
|     282 | 0xFFFFD004  |  4294955012 |
|     283 | 0x0E29      |        3625 |
|     284 | 0xFFFF9621  |  4294940193 |
|     285 | 0x3E317     |      254743 |
|     286 | 0xFFFFCF7E  |  4294954878 |
|     287 | 0xFFFF9A4E  |  4294941262 |
|     288 | 0x3EF1B     |      257819 |
|     289 | 0xFFFFCE0E  |  4294954510 |
|     290 | 0xFFFFB33D  |  4294947645 |
|     291 | 0x42C50     |      273488 |
|     292 | 0xFFFFBBA4  |  4294949796 |
|     293 | 0x0BEA      |        3050 |
|     294 | 0x3F3EF     |      259055 |
|     295 | 0x0F77      |        3959 |
|     296 | 0x0F79      |        3961 |
|     297 | 0x0F7A      |        3962 |
|     298 | 0x0F7C      |        3964 |
|     299 | 0x0F83      |        3971 |
|     300 | 0x0F89      |        3977 |
|     301 | 0x0F8A      |        3978 |
|     302 | 0x0F90      |        3984 |
|     303 | 0x0F91      |        3985 |
|     304 | 0x2E59      |       11865 |
|     305 | 0x2E5A      |       11866 |
|     306 | 0x2E5B      |       11867 |
|     307 | 0x2E5C      |       11868 |
|     308 | 0x2E5D      |       11869 |
|     309 | 0x2E5E      |       11870 |
|     310 | 0x1000      |        4096 |
|     311 | 0x00F7      |         247 |
|     312 | 0x307D      |       12413 |
|     313 | 0x307E      |       12414 |
|     314 | 0x307F      |       12415 |
|     315 | 0x3087      |       12423 |
|     316 | 0x3088      |       12424 |
|     317 | 0x3097      |       12439 |
|     318 | 0x3098      |       12440 |
|     319 | 0x3099      |       12441 |
|     320 | 0xFFFFA1A3  |  4294943139 |
|     321 | 0x2EC97     |      191639 |
|     322 | 0x0169      |         361 |
|     323 | 0x309A      |       12442 |
|     324 | 0x309B      |       12443 |
|     325 | 0x30A1      |       12449 |
|     326 | 0x30A3      |       12451 |
|     327 | 0x018E      |         398 |
|     328 | 0x30A5      |       12453 |
|     329 | 0x30A6      |       12454 |
|     330 | 0x30A7      |       12455 |
|     331 | 0x3089      |       12425 |
|     332 | 0x308A      |       12426 |
|     333 | 0x30A8      |       12456 |
|     334 | 0x30A9      |       12457 |
|     335 | 0x30AA      |       12458 |
|     336 | 0x30B8      |       12472 |
|     337 | 0x30B9      |       12473 |
|     338 | 0x30BA      |       12474 |
|     339 | 0x30BB      |       12475 |
|     340 | 0x30BC      |       12476 |
|     341 | 0x30C2      |       12482 |
|     342 | 0x30C8      |       12488 |
|     343 | 0x30CA      |       12490 |
|     344 | 0x30CE      |       12494 |
|     345 | 0x30CF      |       12495 |
|     346 | 0x30D0      |       12496 |
|     347 | 0x30D1      |       12497 |
|     348 | 0x30DD      |       12509 |
|     349 | 0x07E8      |        2024 |
|     350 | 0x30E5      |       12517 |
|     351 | 0x30E6      |       12518 |
|     352 | 0x30E8      |       12520 |
|     353 | 0x30EA      |       12522 |
|     354 | 0x30EB      |       12523 |
|     355 | 0x0050      |          80 |
|     356 | 0x30ED      |       12525 |
|     357 | 0x30EE      |       12526 |
|     358 | 0x30EF      |       12527 |
|     359 | 0x30F0      |       12528 |
|     360 | 0x30F2      |       12530 |
|     361 | 0x30F4      |       12532 |
|     362 | 0x30F5      |       12533 |
|     363 | 0x30F6      |       12534 |
|     364 | 0x30F7      |       12535 |
|     365 | 0x30F8      |       12536 |
|     366 | 0x30F9      |       12537 |
|     367 | 0x30FA      |       12538 |
|     368 | 0x30DE      |       12510 |
|     369 | 0x30E0      |       12512 |
|     370 | 0x30E1      |       12513 |
|     371 | 0x30FB      |       12539 |
|     372 | 0x30FC      |       12540 |
|     373 | 0xFFFFAAFF  |  4294945535 |
|     374 | 0x2E790     |      190352 |
|     375 | 0xFFFFAD41  |  4294946113 |
|     376 | 0xFFFFC03F  |  4294950975 |
|     377 | 0x3114      |       12564 |
|     378 | 0x3115      |       12565 |
|     379 | 0x3116      |       12566 |
|     380 | 0x3119      |       12569 |
|     381 | 0x311A      |       12570 |
|     382 | 0x311B      |       12571 |
|     383 | 0x310B      |       12555 |
|     384 | 0x310C      |       12556 |
|     385 | 0x3122      |       12578 |
|     386 | 0x3123      |       12579 |
|     387 | 0x009F      |         159 |
|     388 | 0x318C      |       12684 |
|     389 | 0x318D      |       12685 |
|     390 | 0x318E      |       12686 |
|     391 | 0x318F      |       12687 |
|     392 | 0x3190      |       12688 |
|     393 | 0x3191      |       12689 |
|     394 | 0x3192      |       12690 |
|     395 | 0x3193      |       12691 |
|     396 | 0x3194      |       12692 |
|     397 | 0x3195      |       12693 |
|     398 | 0x3196      |       12694 |
|     399 | 0x3197      |       12695 |
|     400 | 0x3198      |       12696 |
|     401 | 0x3199      |       12697 |
|     402 | 0x0099      |         153 |
|     403 | 0x0031      |          49 |
|     404 | 0x0258      |         600 |
|     405 | 0x319A      |       12698 |
|     406 | 0x319B      |       12699 |
|     407 | 0x319C      |       12700 |
|     408 | 0x319D      |       12701 |
|     409 | 0x319E      |       12702 |
|     410 | 0x319F      |       12703 |
|     411 | 0x31A0      |       12704 |
|     412 | 0x31A1      |       12705 |
|     413 | 0x31A2      |       12706 |
|     414 | 0x0C86      |        3206 |
|     415 | 0x0C5C      |        3164 |
|     416 | 0x00A7      |         167 |

## String References

- **3206**: Hey, you! I'll have you know that only the rightful leader of the Star Onion Brigade can sit there! Get down right now before I charge you with trees-on and disturbing the peas!
- **3959**: I was able to make some pretty cool stinky-bombs with the $1 you brought us!
- **3960**: Star Onion Brigade, attentio\`n! "Operation Onion" will now begin!
- **3961**: The trap is set, and we're all in position! Now all we have to do is wait for the Cat Burglar to show!
- **3962**: Oi! Whoever's in charge of candy provisions! How about you deal out some candy now?
- **3964**: You idiot! You're pushing for a dishonorable discharge from the Star Onion Brigade for forgetting your candy responsibilities!
- **3966**: Wait till you see the whites of her eyes, then let her have it with our onion stinky-bombs!!!
- **3971**: Everybody, CHAAAAARRRGE!
- **3977**: (I think we knocked her out...!)
- **3978**: (Good. Now let's quietly approach her and tie her up with our ropey-rope!)
- **3984**: Waaa\`rgh!
- **3985**: Run for your li\`ves!
- **3992**: Ta-da\`! The Star Onion Brigade is on the scene!
- **3993**: Nanaa Mihgo! Otherwise known as the Cat Burglar! We're on your tail now!
- **3994**: We're not letting you out of here until you promise to give up your evil ways for good!
- **3996**: Bite your tongue! We're very busy-wusy fighting crime, you know?
- **3997**: We're the ones who solve all of Windurst's problems that grown-ups turn a blind eye to!
- **4000**: Huh? Is that true?
- **4005**: ......
- **4008**: Did the door just lock...?
- **4015**: ......
- **4016**: Zoinks...!
- **4017**: E-e-e-every-one re-m-m-main c-c-calm!
- **4018**: Th-there's no-no-no s-s-such th-things as g-ghosties! The C-cat Burglar is j-just trying t-to s-scare us!
- **4019**: Th-there's got to be a perfectly reasonable explanation for this! L-let's check out where the s-sound came from...e-everyone!
- **4020**: Looky-see... There's a gap behind this bookshelf!
- **4029**: A corpse!?
- **4031**: No, Pichichi! Keep back! It's too dangerous!
- **4033**: I, erh, guess not...but a ghosty may come out of it!
- **4035**: Um... Either way, I don't think it's wise to find out!
- **4036**: Ah...!
- **4038**: Wo-wo-wo-wo-whoah!
- **4049**: Yet another close call for the Star Onion Brigade!
- **4054**: And thanks to Joker, we were able to escape!
- **4055**: Well, that was more than enough adventure for today... Let's all head back to Star Onion headquarters at the port.
- **4148**: The first rule of the Star Onion Brigade...
- **4149**: Help those in need!
- **4150**: Baddies deserve no mercy!
- **4151**: Do unto others as they'd do unto you!
- **4153**: Don't cry on your fellow Onions!
- **4154**: Always keep secrets secret!
- **4155**: Share your fun with everyone!
- **4156**: Share your food with everyone!
- **4157**: Investigate any strange occurrences!
- **4158**: Solve any mysteries!
- **4159**: Always be prepared for danger!
- **4160**: Treat girls nicely!
- **4167**: The first rule of the Star Onion Brigade...
- **4168**: For those of you who don't kno\`w...
- **4169**: Is to fight for truth, justice, and the onion way! As long as there is love and dreams...we will be the protectors of goodiness!
- **4170**: We are the Star Onion Briga\`de!
- **4171**: Hey, you! Yes, you, the grown-up there! What are you staring at? You wanna join our Star Onion Brigade, don'taru?
- **4172**: Join the ranks of the S.O.B.? [I was born to be an S.O.B.!/You've got to be kidding!]
- **4173**: What, are you afraid of us or something? Well, that's because we, the Star Onion Brigade, are invincible!
- **4179**: Ah! Oh, oh, rea\`lly? (I didn't expect you'd want to join... Oh, boy! What do I do now?)
- **4182**: You idiot! That's the leader's line...!
- **4183**: Everybody gather together! C'mon, let's huddle!
- **4184**: (So...erm...what do we do?)
- **4191**: Argh...! We're never going to decide!
- **4192**: Hey, Pichichi... You haven't said anything yet. What do you think, Pichichi?
- **4195**: A tail...?
- **4196**: Well, grown-up...you heard the girl!
- **4197**: For the sake of Pichichi! For the sake of Windurst's peace, love, and righteousness!
- **4198**: It's decided then. If you bring us a tail, we'll let you join the Star Onion Briga\`de!
- **4199**: If you bring us a tail, we'll let you join the Star Onion Brigade!
- **4200**: As leader, I won't break my promise! A member of the Star Onion Brigade never lies!
- **4213**: Uh-oh...! A rarab's tail!?
- **4214**: Listen, I know we said to get a tail, but a poor, little, innocent rarab...?
- **4216**: What the...?
- **4217**: Hey, Pichichi! Is this the tail you wanted for your mother? Is this what she was looking for?
- **4220**: You don't say...? Well then, I guess that decides it, then! You, grown-up, have passed the test, and can join our brigade!
- **4221**: Here... This $2 is the symbol of the Star Onion Brigade! Don't go losing it!
- **4222**: Now that you're a member of the Star Onion Brigade, you have to remember our oath!
- **4223**: Once you've learned the oath, then you've got to put it into practice. Don't expect us to go easy on you just 'cause you're old!
- **4235**: Hey, newbie!
- **4236**: Too bad, but you missed out big! While you were away, we went to the ghosty house!
- **4237**: We nearly nabbed that Cat Burglar until she escaped! But we made off with her Mana Orb! A pretty awesome adventure, don'taru think?
- **4238**: Oh, so you wanna know more, do you? Well, I guess we could tell you... Listen and listen good...
- **4239**: ...Well that's kina what happened. Cool, huh?
- **4240**: You should have been there to help us at the ghosty house, too! Be more careful next time! Well, see you next adventure we have!
- **4241**: Hey, newbie!
- **4242**: You're late! What took you? If you had brought us what we asked for quicker, you wouldn't have missed all the action!
- **4243**: If you bring us four $1, we'll tell you all about it!
- **4244**: Hey, newbie!
- **4245**: You missed some pretty cool action while you were away.
- **4246**: We'll tell you all about it...but, only if you bring us four $1!
- **4247**: Oi, newbie! If you hurry up and bring us four $1, we'll tell you all about our showdown with the Cat Burglar!
- **4248**: Attaboy! These are just what I wanted!
- **4249**: We can make some stinky bombs with these! Kinda like the ones we made the other day when...
- **4250**: ...And that's how we made off with the Cat Burglar's Mana Orb. Pretty awesome, huh?
- **4251**: If you want to join in our major projects like this one, you'll have to participate in our meetings! Anyway, until then, see you around, I s'pose!
- **4252**: I've received some new information...information regarding the activities of none other than the Cat Burglar herself!
- **4253**: She has been seen loitering in the vicinity of the haunted mansion in Windurst Walls, otherwise known to us as the "ghosty house"!
- **4254**: This piece of intelligence was provided to us by the Star Onion Brigade's Windurst Walls Recon Team, Juna Moshal and Chomomo. A round of applause for the two of them...
- **4258**: Correct! That's what makes it all the more intriguing! I have a feeling that the Cat Burglar's next target is that very building!
- **4259**: Everyone, listen up! This time it's war! Once we have our weapons and provisions ready, we are to march straight to the ghosty house and lay a trap to bag the Cat Burglar once and for all!
- **4261**: Let me see... What kind of trap would be fitting in this situation... Ah! I've got it!
- **4262**: Hey, newbie! You can be in charge of traps! We'll need four $1 so hurry up and get them!
- **4263**: Once the newbie gets back with the ammo, we'll put our plan into action!
- **4269**: Having the right trap waiting for the Cat Burglar is really important. Hurry up and bring us four $1.
- **4270**: Then we can march to the ghosty house and set an ambush for her!
- **4281**: Well done! Now we can put our plan into action! Off to the ghosty house we go!
- **4282**: But, before we set out...I had better make my special stink-bombs out of these $1.
- **4283**: You know the way to the ghosty house, right? Then get your own weapons and equipment in order, and wait for us there!
- **4284**: Hey newbie, what kept you? We ended up losing sight of the Cat Burglar.
- **4293**: I smell a rat...or in this case, a cat! She must have stolen it from somewhere! We're onto something big here!
- **4294**: Next time that Cat Burglar sneaks into the ghosty house, we'll nab her for good!
- **4295**: What? Don't we have to return the Mana Orb to the Manustery?
- **4296**: No way! This is very important evidence we have here! Proof that the Cat Burglar committed a crime!
- **4312**: O\`h, you're late, as usual! Quickly, to fill you in on what you missed, well...something terrible happened!
- **4313**: The Cat Burglar came by a moment ago and tried to scare us into returning the Mana Orb to her.
- **4314**: She said it was too dangerous for the likes of us, 'cause some evil Cardians are after it! But we weren't fooled by her!
- **4315**: She tried hard to break us, but we stood our ground until she gave up and sulked away! We won again! Yippee!
- **4316**: But then something funny happened. When we checked the box we kept the Mana Orb in, it was empty! So, we're all wondering where-oh-where has our little Mana Orb gone?
- **4317**: Now I propose we go hunt down the criminal! So how about you then? Are you in on it, too?
- **4318**: Help catch the criminal? [Cooperate./Get real!]
- **4319**: Oh! That can only mean one thing... You did it! You're the criminal!
- **4320**: A-ha-ha... Just kidding! But if you keep up the wet blanket act, we'll kick you out of our Star Onion Brigade! I'm warning you!
- **4321**: Said like a true Star Onion! We superheroes never let baddies get away with their crimes!
- **4322**: So, getting down to business... In order to catch the criminal we'll need the seven gadgets found in the Junior Investigator's Toolkit!
- **4323**: Everyone knows what to do, rightaru? Each bring one gadget and meet back here! Then we can form our own real crime-fighting investigation unit!
- **4324**: In order to catch the criminal, we'll need the seven gadgets found in the Junior Investigator's Toolkit!
- **4325**: So, each of us is to go find one gadget and meet back here! Then we can form our own real crime-fighting investigation unit!
- **4335**: Great! Looks like we have all seven gadgets as found in the Junior Investigator's Toolkit!
- **4336**: But waitaru! Hey, Pichichi! You don't have your gadget yet! What's the mattaru?
- **4338**: Argh! That's the Mana Orb!
- **4343**: So, it was Pichichi who took it and hid it away! Well, chalk up another one to the Star Onion Brigade, 'cause it looks like this mystery is also solved!
- **4345**: I was forgetting that this Mana Orb is a priceless treasure of our Star Onion Brigade.
- **4346**: After all, it's the first spoils we ever took from that Cat Burglar!
- **4359**: It seems as if the Cat Burglar has been coming and going in and out of the ghosty house!
- **4360**: We should be investigating what she's up to in there, but that haunted house has a magic lock placed on its doors!
- **4361**: I hear if we had the minister's ring we could unlock the place, but we can't just run up to Doctor Koru-Moru and borrow it from him, can we...?
- **4362**: Huh? What's that $3 you have there...? Where have I seen that before?
- **4363**: Ah! That's a little old but it looks like the minister's ring. Oh, and I've seen that insignia somewhere... That's the ghosty house's mark!
- **4364**: Everybody listen up here! The time for us to catch the Cat Burglar has come! We can now open the doors to the ghosty house!
- **4365**: Let's go to the ghosty house before the Cat Burglar gets away! C'mon, move it, move it!
- **4366**: The ring that you found was probably the previous Minister of the Optistery's ring. So long as we have this, we can handle any magic that the Optistery can throw at us.
- **4367**: Let's go to the ghosty house and nab that Cat Burglar once and for all! C'mon, move it, move it!
- **4368**: Ah! That's a little old, but it looks like the minister's ring. Oh, and I've seen that insignia somewhere... That's the ghosty house's mark!
- **4369**: So you've found the key at last! Too bad we won't be needing it anymore...
- **4370**: You see, while you were away, we heard news that the Cat Burglar had entered into the ghosty house. So naturally, we all headed straight to the crime scene!
- **4371**: Pretty cool, huh? If only you had come by earlier, you could have been part of the action. But, oh well, too bad!
- **4372**: Anyway, that ring you have there is mega-awesome! You should give it to the Star Onion Brigade to mind. You know, one for all and all for none, that kinda thing...
- **4373**: Hey, how come you didn't come with us to the ghosty house? What, were you too afraid, or something?
- **4374**: Well we went! And we had a totally wild experience. You see...
- **4375**: Hee-hee-hee! Pretty cool, huh? It's the Star Onion Brigade's greatest adventure yet!
- **4376**: Oh, and what we told you just now has to be kept a secret from the grown-ups, okay? tCross you heart and hope to die, stick Cactuar needles in your eye?t
- **4387**: Pichichi brought Joker back here with her, so we made him a member of the Star Onion Brigade.
- **4388**: But you better keep it a secret from the other grown-ups. Cardians are under the control of the Manustery. If they find out about him, they'll take him away from us!
- **11865**: Oh good, it's you, newbie! We were just searching for you!
- **11866**: Joker brought us a pile of weapons from somewhere...
- **11867**: I know they're not stolen or anything, but how are we supposed to use such heavy weaponry as this?
- **11868**: You're a grown-up. Why don't you try and use this one? Anyway, here, take it... That'll make Joker happy.
- **11869**: Newbie! If you find something interesting going down, make sure you let us know first!
- **11870**: Why...? 'Cause that's the new first rule of our Star Onion Brigade!
- **12413**: What are we gonna do? My head is all jumble-wumbled up.
- **12414**: Ah, you there! You must do something to help the Star Onion Brigade!
- **12415**: The rich old geezer living in Windurst Waters told us to give back the Mana Orb we got from Nanaa Mihgo!
- **12423**: So now we're really deep in dhalmel doo-doo. The Star Onion Brigade will go from being heroes to zeroes!
- **12424**: You're a famous adventurer, aren't you? Can't you think of anything to help us?
- **12425**: That rich old geezer living in Windurst Waters told us to give back his Mana Orb.
- **12426**: What are we gonna do? My head is all jumble-wumbled up.
- **12439**: What happened? You went to the old geezer's place?
- **12440**: ...Hmmm. A complete waste of time, huh? All that guy can say is "Give it back! Give it back!"
- **12441**: Rightaru, we need to come up with a plan! Time for an emergency strategy meeting!
- **12442**: Um, order in the court!
- **12443**: Let's think of what we can do about Honoi-Gomoi's Mana Orb! Does anybody have any ideas?
- **12449**: A fake Mana Orb... But how would we make one?
- **12451**: Pichichi!
- **12453**: ......
- **12454**: You're right! The Star Onion Brigade stands for justice!
- **12455**: Let's go to Windurst Waters and tell Honoi-Gomoi the truth!
- **12456**: Let's go to Windurst Waters and tell Honoi-Gomoi the truth!
- **12457**: I can't diss-a-sem-bull Joker, I just can't!
- **12458**: What am I going to do...? What should we do, <Player>?
- **12472**: I can't diss-a-sem-bull Joker, I just can't!
- **12473**: On your Star Onion Brigade honor, you can't tell anybody that Joker is hiding in the ghosty house!
- **12474**: ...... Going to the ghosty house brings back a lot of memories about Joker.
- **12475**: Joker...
- **12476**: ...I just can't do it! There's just no way I can take Joker to pieces!
- **12482**: Yeah! That's a great idea!
- **12488**: Joker is one of the good Cardians, but the grown-ups won't understand even if we try to explain.
- **12490**: ...? What are you talking about, Pichichi?
- **12494**: Aha! It's your turn to shine again, adventurer! Go talk to Pichichi's mom and get all the materials she needs!
- **12495**: You want to help Joker, right? We need that $3!
- **12496**: Okay! Let's get Joker out of Windurst before anyone discovers his hiding spot!
- **12497**: Pichichi's mom will make the gadget we need, so it's your job to make sure she has all the materials!
- **12509**: So this is $6.
- **12510**: Pichichi's mom has come through for us again.
- **12512**: Okay, let's get this to Joker...
- **12513**: ...Aah!
- **12539**: Joker...
- **12540**: Don't... Don't you break your promise...
- **12555**: ...Ah! Something happened while you were gone...!
- **12556**: ...Actually, forget about it. I don't wanna talk about it right now.
- **12564**: ...Where have you been? While you were gone, all sorts of crazy stuff happened...
- **12565**: If we'd had an adventurer with us, things might have gone differently... You let us down on this one.
- **12566**: Before I tell you what happened, you have to help us make $6!
- **12569**: Getting the materials to make this gadget is no easy feat. We need to find $2, a very val-u-a-bull item.
- **12570**: If you get Pichichi's mom to make us $6, we'll tell you all the exciting stuff that happened while you were gone.
- **12571**: If you get Pichichi's mom to make us $6, we'll tell you all the exciting stuff that happened while you were gone.
- **12578**: ...Where have you been? While you were gone, all sorts of crazy stuff happened...
- **12579**: If you can bring us $6, I'll tell you what's been going on...
- **12583**: I'll never break a promise!
- **12698**: Children... Your lives here, your town, everything...
- **12699**: I'll be watching over you... I have returned to this land...
- **12704**: Joker came back to us. He kept his promise!
- **12705**: He's not a Cardian anymore, but we can still recognize him. The Star Onion Brigade is whole again!
- **12706**: Truth, justice, and the onion way! Defenders of love and dreams! We are the Star Onion Brigade!

## Events

### Event 65535

#### Metadata

| Field        | Value   |
|--------------|---------|
| Entrypoint   | 0x0000  |
| Data Size    | 1 bytes |
| Instructions | 1       |

```
      00 01 02 03 04 05 06 07  08 09 0A 0B 0C 0D 0E 0F
      -- -- -- -- -- -- -- --  -- -- -- -- -- -- -- --
0000: 00                                                .               
```

#### Opcodes

```
  0: 0x0000 [0x00] END_REQSTACK()
```

### Event 65535.1

#### Metadata

| Field        | Value    |
|--------------|----------|
| Entrypoint   | 0x0001   |
| Data Size    | 16 bytes |
| Instructions | 2        |

```
      00 01 02 03 04 05 06 07  08 09 0A 0B 0C 0D 0E 0F
      -- -- -- -- -- -- -- --  -- -- -- -- -- -- -- --
0000:    5B 00 80 F8 FF FF 7F  F8 FF FF 7F 74 6C 6B 30   [..........tlk0
0010: 00                                                .               
```

#### Opcodes

```
  0: 0x0001 [0x5B] LOAD_EXT_SCHEDULER: Load scheduler "tlk0" with entities [EventEntity, EventEntity], work=85*
  1: 0x0010 [0x00] END_REQSTACK()
```

### Event 65535.2

#### Metadata

| Field        | Value    |
|--------------|----------|
| Entrypoint   | 0x0011   |
| Data Size    | 22 bytes |
| Instructions | 4        |

```
      00 01 02 03 04 05 06 07  08 09 0A 0B 0C 0D 0E 0F
      -- -- -- -- -- -- -- --  -- -- -- -- -- -- -- --
0010:    53 F8 FF FF 7F F8 FF  FF 7F 74 6C 6B 30 5E 69   S........tlk0^i
0020: 64 6C 30 1C 01 80 00                              dl0....         
```

#### Opcodes

```
  0: 0x0011 [0x53] WAIT_SCHEDULER_TASK: Wait for scheduler "tlk0" with entities [EventEntity, EventEntity]
  1: 0x001E [0x5E] EventEntity goes idle (kills current action) (animation: "idl0")
  2: 0x0023 [0x1C] WAIT(30* ticks)
  3: 0x0026 [0x00] END_REQSTACK()
```

### Event 65535.3

#### Metadata

| Field        | Value    |
|--------------|----------|
| Entrypoint   | 0x0027   |
| Data Size    | 16 bytes |
| Instructions | 2        |

```
      00 01 02 03 04 05 06 07  08 09 0A 0B 0C 0D 0E 0F
      -- -- -- -- -- -- -- --  -- -- -- -- -- -- -- --
0020:                      5B  00 80 F8 FF FF 7F F8 FF         [........
0030: FF 7F 74 68 6B 31 00                              ..thk1.         
```

#### Opcodes

```
  0: 0x0027 [0x5B] LOAD_EXT_SCHEDULER: Load scheduler "thk1" with entities [EventEntity, EventEntity], work=85*
  1: 0x0036 [0x00] END_REQSTACK()
```

### Event 65535.4

#### Metadata

| Field        | Value    |
|--------------|----------|
| Entrypoint   | 0x0037   |
| Data Size    | 14 bytes |
| Instructions | 2        |

```
      00 01 02 03 04 05 06 07  08 09 0A 0B 0C 0D 0E 0F
      -- -- -- -- -- -- -- --  -- -- -- -- -- -- -- --
0030:                      53  F8 FF FF 7F F8 FF FF 7F         S........
0040: 74 68 6B 31 00                                    thk1.           
```

#### Opcodes

```
  0: 0x0037 [0x53] WAIT_SCHEDULER_TASK: Wait for scheduler "thk1" with entities [EventEntity, EventEntity]
  1: 0x0044 [0x00] END_REQSTACK()
```

### Event 65535.5

#### Metadata

| Field        | Value    |
|--------------|----------|
| Entrypoint   | 0x0045   |
| Data Size    | 16 bytes |
| Instructions | 2        |

```
      00 01 02 03 04 05 06 07  08 09 0A 0B 0C 0D 0E 0F
      -- -- -- -- -- -- -- --  -- -- -- -- -- -- -- --
0040:                5B 00 80  F8 FF FF 7F F8 FF FF 7F       [..........
0050: 74 68 6B 32 00                                    thk2.           
```

#### Opcodes

```
  0: 0x0045 [0x5B] LOAD_EXT_SCHEDULER: Load scheduler "thk2" with entities [EventEntity, EventEntity], work=85*
  1: 0x0054 [0x00] END_REQSTACK()
```

### Event 65535.6

#### Metadata

| Field        | Value    |
|--------------|----------|
| Entrypoint   | 0x0055   |
| Data Size    | 14 bytes |
| Instructions | 2        |

```
      00 01 02 03 04 05 06 07  08 09 0A 0B 0C 0D 0E 0F
      -- -- -- -- -- -- -- --  -- -- -- -- -- -- -- --
0050:                53 F8 FF  FF 7F F8 FF FF 7F 74 68       S........th
0060: 6B 32 00                                          k2.             
```

#### Opcodes

```
  0: 0x0055 [0x53] WAIT_SCHEDULER_TASK: Wait for scheduler "thk2" with entities [EventEntity, EventEntity]
  1: 0x0062 [0x00] END_REQSTACK()
```

### Event 65535.7

#### Metadata

| Field        | Value    |
|--------------|----------|
| Entrypoint   | 0x0063   |
| Data Size    | 57 bytes |
| Instructions | 5        |

```
      00 01 02 03 04 05 06 07  08 09 0A 0B 0C 0D 0E 0F
      -- -- -- -- -- -- -- --  -- -- -- -- -- -- -- --
0060:          5B 00 80 F8 FF  FF 7F F8 FF FF 7F 74 68     [..........th
0070: 6B 31 53 F8 FF FF 7F F8  FF FF 7F 74 68 6B 31 5B  k1S........thk1[
0080: 00 80 F8 FF FF 7F F8 FF  FF 7F 74 68 6B 32 53 F8  ..........thk2S.
0090: FF FF 7F F8 FF FF 7F 74  68 6B 32 00              .......thk2.    
```

#### Opcodes

```
  0: 0x0063 [0x5B] LOAD_EXT_SCHEDULER: Load scheduler "thk1" with entities [EventEntity, EventEntity], work=85*
  1: 0x0072 [0x53] WAIT_SCHEDULER_TASK: Wait for scheduler "thk1" with entities [EventEntity, EventEntity]
  2: 0x007F [0x5B] LOAD_EXT_SCHEDULER: Load scheduler "thk2" with entities [EventEntity, EventEntity], work=85*
  3: 0x008E [0x53] WAIT_SCHEDULER_TASK: Wait for scheduler "thk2" with entities [EventEntity, EventEntity]
  4: 0x009B [0x00] END_REQSTACK()
```

### Event 65535.8

#### Metadata

| Field        | Value    |
|--------------|----------|
| Entrypoint   | 0x009C   |
| Data Size    | 22 bytes |
| Instructions | 3        |

```
      00 01 02 03 04 05 06 07  08 09 0A 0B 0C 0D 0E 0F
      -- -- -- -- -- -- -- --  -- -- -- -- -- -- -- --
0090:                                      7C 00 F8 FF              |...
00A0: FF 7F 5B 00 80 F8 FF FF  7F F8 FF FF 7F 65 68 65  ..[..........ehe
00B0: 30 00                                             0.              
```

#### Opcodes

```
  0: 0x009C [0x7C] EventEntity->Render.Flags2 |= 0x00
  1: 0x00A2 [0x5B] LOAD_EXT_SCHEDULER: Load scheduler "ehe0" with entities [EventEntity, EventEntity], work=85*
  2: 0x00B1 [0x00] END_REQSTACK()
```

### Event 65535.9

#### Metadata

| Field        | Value    |
|--------------|----------|
| Entrypoint   | 0x00B2   |
| Data Size    | 20 bytes |
| Instructions | 3        |

```
      00 01 02 03 04 05 06 07  08 09 0A 0B 0C 0D 0E 0F
      -- -- -- -- -- -- -- --  -- -- -- -- -- -- -- --
00B0:       53 F8 FF FF 7F F8  FF FF 7F 74 6C 6B 30 7C    S........tlk0|
00C0: 01 F8 FF FF 7F 00                                 ......          
```

#### Opcodes

```
  0: 0x00B2 [0x53] WAIT_SCHEDULER_TASK: Wait for scheduler "tlk0" with entities [EventEntity, EventEntity]
  1: 0x00BF [0x7C] EventEntity->Render.Flags2 |= 0x01
  2: 0x00C5 [0x00] END_REQSTACK()
```

### Event 65535.10

#### Metadata

| Field        | Value    |
|--------------|----------|
| Entrypoint   | 0x00C6   |
| Data Size    | 16 bytes |
| Instructions | 2        |

```
      00 01 02 03 04 05 06 07  08 09 0A 0B 0C 0D 0E 0F
      -- -- -- -- -- -- -- --  -- -- -- -- -- -- -- --
00C0:                   5B 00  80 F8 FF FF 7F F8 FF FF        [.........
00D0: 7F 61 6E 67 30 00                                 .ang0.          
```

#### Opcodes

```
  0: 0x00C6 [0x5B] LOAD_EXT_SCHEDULER: Load scheduler "ang0" with entities [EventEntity, EventEntity], work=85*
  1: 0x00D5 [0x00] END_REQSTACK()
```

### Event 65535.11

#### Metadata

| Field        | Value    |
|--------------|----------|
| Entrypoint   | 0x00D6   |
| Data Size    | 22 bytes |
| Instructions | 4        |

```
      00 01 02 03 04 05 06 07  08 09 0A 0B 0C 0D 0E 0F
      -- -- -- -- -- -- -- --  -- -- -- -- -- -- -- --
00D0:                   53 F8  FF FF 7F F8 FF FF 7F 61        S........a
00E0: 6E 67 30 5E 69 64 6C 30  1C 01 80 00              ng0^idl0....    
```

#### Opcodes

```
  0: 0x00D6 [0x53] WAIT_SCHEDULER_TASK: Wait for scheduler "ang0" with entities [EventEntity, EventEntity]
  1: 0x00E3 [0x5E] EventEntity goes idle (kills current action) (animation: "idl0")
  2: 0x00E8 [0x1C] WAIT(30* ticks)
  3: 0x00EB [0x00] END_REQSTACK()
```

### Event 65535.12

#### Metadata

| Field        | Value    |
|--------------|----------|
| Entrypoint   | 0x00EC   |
| Data Size    | 16 bytes |
| Instructions | 2        |

```
      00 01 02 03 04 05 06 07  08 09 0A 0B 0C 0D 0E 0F
      -- -- -- -- -- -- -- --  -- -- -- -- -- -- -- --
00E0:                                      5B 00 80 F8              [...
00F0: FF FF 7F F8 FF FF 7F 6B  6F 77 30 00              .......kow0.    
```

#### Opcodes

```
  0: 0x00EC [0x5B] LOAD_EXT_SCHEDULER: Load scheduler "kow0" with entities [EventEntity, EventEntity], work=85*
  1: 0x00FB [0x00] END_REQSTACK()
```

### Event 65535.13

#### Metadata

| Field        | Value    |
|--------------|----------|
| Entrypoint   | 0x00FC   |
| Data Size    | 22 bytes |
| Instructions | 4        |

```
      00 01 02 03 04 05 06 07  08 09 0A 0B 0C 0D 0E 0F
      -- -- -- -- -- -- -- --  -- -- -- -- -- -- -- --
00F0:                                      53 F8 FF FF              S...
0100: 7F F8 FF FF 7F 6B 6F 77  30 5E 69 64 6C 30 1C 01  .....kow0^idl0..
0110: 80 00                                             ..              
```

#### Opcodes

```
  0: 0x00FC [0x53] WAIT_SCHEDULER_TASK: Wait for scheduler "kow0" with entities [EventEntity, EventEntity]
  1: 0x0109 [0x5E] EventEntity goes idle (kills current action) (animation: "idl0")
  2: 0x010E [0x1C] WAIT(30* ticks)
  3: 0x0111 [0x00] END_REQSTACK()
```

### Event 65535.14

#### Metadata

| Field        | Value    |
|--------------|----------|
| Entrypoint   | 0x0112   |
| Data Size    | 22 bytes |
| Instructions | 3        |

```
      00 01 02 03 04 05 06 07  08 09 0A 0B 0C 0D 0E 0F
      -- -- -- -- -- -- -- --  -- -- -- -- -- -- -- --
0110:       7C 00 F8 FF FF 7F  5B 00 80 F8 FF FF 7F F8    |.....[.......
0120: FF FF 7F 73 75 72 30 00                           ...sur0.        
```

#### Opcodes

```
  0: 0x0112 [0x7C] EventEntity->Render.Flags2 |= 0x00
  1: 0x0118 [0x5B] LOAD_EXT_SCHEDULER: Load scheduler "sur0" with entities [EventEntity, EventEntity], work=85*
  2: 0x0127 [0x00] END_REQSTACK()
```

### Event 65535.15

#### Metadata

| Field        | Value    |
|--------------|----------|
| Entrypoint   | 0x0128   |
| Data Size    | 20 bytes |
| Instructions | 3        |

```
      00 01 02 03 04 05 06 07  08 09 0A 0B 0C 0D 0E 0F
      -- -- -- -- -- -- -- --  -- -- -- -- -- -- -- --
0120:                          53 F8 FF FF 7F F8 FF FF          S.......
0130: 7F 73 75 72 30 7C 01 F8  FF FF 7F 00              .sur0|......    
```

#### Opcodes

```
  0: 0x0128 [0x53] WAIT_SCHEDULER_TASK: Wait for scheduler "sur0" with entities [EventEntity, EventEntity]
  1: 0x0135 [0x7C] EventEntity->Render.Flags2 |= 0x01
  2: 0x013B [0x00] END_REQSTACK()
```

### Event 65535.16

#### Metadata

| Field        | Value    |
|--------------|----------|
| Entrypoint   | 0x013C   |
| Data Size    | 22 bytes |
| Instructions | 3        |

```
      00 01 02 03 04 05 06 07  08 09 0A 0B 0C 0D 0E 0F
      -- -- -- -- -- -- -- --  -- -- -- -- -- -- -- --
0130:                                      7C 00 F8 FF              |...
0140: FF 7F 5B 00 80 F8 FF FF  7F F8 FF FF 7F 74 6C 6B  ..[..........tlk
0150: 32 00                                             2.              
```

#### Opcodes

```
  0: 0x013C [0x7C] EventEntity->Render.Flags2 |= 0x00
  1: 0x0142 [0x5B] LOAD_EXT_SCHEDULER: Load scheduler "tlk2" with entities [EventEntity, EventEntity], work=85*
  2: 0x0151 [0x00] END_REQSTACK()
```

### Event 65535.17

#### Metadata

| Field        | Value    |
|--------------|----------|
| Entrypoint   | 0x0152   |
| Data Size    | 20 bytes |
| Instructions | 3        |

```
      00 01 02 03 04 05 06 07  08 09 0A 0B 0C 0D 0E 0F
      -- -- -- -- -- -- -- --  -- -- -- -- -- -- -- --
0150:       53 F8 FF FF 7F F8  FF FF 7F 74 6C 6B 32 7C    S........tlk2|
0160: 01 F8 FF FF 7F 00                                 ......          
```

#### Opcodes

```
  0: 0x0152 [0x53] WAIT_SCHEDULER_TASK: Wait for scheduler "tlk2" with entities [EventEntity, EventEntity]
  1: 0x015F [0x7C] EventEntity->Render.Flags2 |= 0x01
  2: 0x0165 [0x00] END_REQSTACK()
```

### Event 65535.18

#### Metadata

| Field        | Value    |
|--------------|----------|
| Entrypoint   | 0x0166   |
| Data Size    | 22 bytes |
| Instructions | 3        |

```
      00 01 02 03 04 05 06 07  08 09 0A 0B 0C 0D 0E 0F
      -- -- -- -- -- -- -- --  -- -- -- -- -- -- -- --
0160:                   7C 01  F8 FF FF 7F 5B 00 80 F8        |.....[...
0170: FF FF 7F F8 FF FF 7F 6B  6F 75 30 00              .......kou0.    
```

#### Opcodes

```
  0: 0x0166 [0x7C] EventEntity->Render.Flags2 |= 0x01
  1: 0x016C [0x5B] LOAD_EXT_SCHEDULER: Load scheduler "kou0" with entities [EventEntity, EventEntity], work=85*
  2: 0x017B [0x00] END_REQSTACK()
```

### Event 65535.19

#### Metadata

| Field        | Value    |
|--------------|----------|
| Entrypoint   | 0x017C   |
| Data Size    | 22 bytes |
| Instructions | 4        |

```
      00 01 02 03 04 05 06 07  08 09 0A 0B 0C 0D 0E 0F
      -- -- -- -- -- -- -- --  -- -- -- -- -- -- -- --
0170:                                      53 F8 FF FF              S...
0180: 7F F8 FF FF 7F 6B 6F 75  30 5E 69 64 6C 30 1C 01  .....kou0^idl0..
0190: 80 00                                             ..              
```

#### Opcodes

```
  0: 0x017C [0x53] WAIT_SCHEDULER_TASK: Wait for scheduler "kou0" with entities [EventEntity, EventEntity]
  1: 0x0189 [0x5E] EventEntity goes idle (kills current action) (animation: "idl0")
  2: 0x018E [0x1C] WAIT(30* ticks)
  3: 0x0191 [0x00] END_REQSTACK()
```

### Event 65535.20

#### Metadata

| Field        | Value    |
|--------------|----------|
| Entrypoint   | 0x0192   |
| Data Size    | 16 bytes |
| Instructions | 2        |

```
      00 01 02 03 04 05 06 07  08 09 0A 0B 0C 0D 0E 0F
      -- -- -- -- -- -- -- --  -- -- -- -- -- -- -- --
0190:       5B 00 80 F8 FF FF  7F F8 FF FF 7F 6A 6D 70    [..........jmp
01A0: 30 00                                             0.              
```

#### Opcodes

```
  0: 0x0192 [0x5B] LOAD_EXT_SCHEDULER: Load scheduler "jmp0" with entities [EventEntity, EventEntity], work=85*
  1: 0x01A1 [0x00] END_REQSTACK()
```

### Event 65535.21

#### Metadata

| Field        | Value    |
|--------------|----------|
| Entrypoint   | 0x01A2   |
| Data Size    | 14 bytes |
| Instructions | 2        |

```
      00 01 02 03 04 05 06 07  08 09 0A 0B 0C 0D 0E 0F
      -- -- -- -- -- -- -- --  -- -- -- -- -- -- -- --
01A0:       53 F8 FF FF 7F F8  FF FF 7F 6A 6D 70 30 00    S........jmp0.
```

#### Opcodes

```
  0: 0x01A2 [0x53] WAIT_SCHEDULER_TASK: Wait for scheduler "jmp0" with entities [EventEntity, EventEntity]
  1: 0x01AF [0x00] END_REQSTACK()
```

### Event 65535.22

#### Metadata

| Field        | Value    |
|--------------|----------|
| Entrypoint   | 0x01B0   |
| Data Size    | 16 bytes |
| Instructions | 2        |

```
      00 01 02 03 04 05 06 07  08 09 0A 0B 0C 0D 0E 0F
      -- -- -- -- -- -- -- --  -- -- -- -- -- -- -- --
01B0: 5B 00 80 F8 FF FF 7F F8  FF FF 7F 70 61 6E 30 00  [..........pan0.
```

#### Opcodes

```
  0: 0x01B0 [0x5B] LOAD_EXT_SCHEDULER: Load scheduler "pan0" with entities [EventEntity, EventEntity], work=85*
  1: 0x01BF [0x00] END_REQSTACK()
```

### Event 65535.23

#### Metadata

| Field        | Value    |
|--------------|----------|
| Entrypoint   | 0x01C0   |
| Data Size    | 22 bytes |
| Instructions | 4        |

```
      00 01 02 03 04 05 06 07  08 09 0A 0B 0C 0D 0E 0F
      -- -- -- -- -- -- -- --  -- -- -- -- -- -- -- --
01C0: 53 F8 FF FF 7F F8 FF FF  7F 70 61 6E 30 5E 69 64  S........pan0^id
01D0: 6C 30 1C 01 80 00                                 l0....          
```

#### Opcodes

```
  0: 0x01C0 [0x53] WAIT_SCHEDULER_TASK: Wait for scheduler "pan0" with entities [EventEntity, EventEntity]
  1: 0x01CD [0x5E] EventEntity goes idle (kills current action) (animation: "idl0")
  2: 0x01D2 [0x1C] WAIT(30* ticks)
  3: 0x01D5 [0x00] END_REQSTACK()
```

### Event 65535.24

#### Metadata

| Field        | Value    |
|--------------|----------|
| Entrypoint   | 0x01D6   |
| Data Size    | 16 bytes |
| Instructions | 2        |

```
      00 01 02 03 04 05 06 07  08 09 0A 0B 0C 0D 0E 0F
      -- -- -- -- -- -- -- --  -- -- -- -- -- -- -- --
01D0:                   5B 00  80 F8 FF FF 7F F8 FF FF        [.........
01E0: 7F 70 61 73 30 00                                 .pas0.          
```

#### Opcodes

```
  0: 0x01D6 [0x5B] LOAD_EXT_SCHEDULER: Load scheduler "pas0" with entities [EventEntity, EventEntity], work=85*
  1: 0x01E5 [0x00] END_REQSTACK()
```

### Event 65535.25

#### Metadata

| Field        | Value    |
|--------------|----------|
| Entrypoint   | 0x01E6   |
| Data Size    | 14 bytes |
| Instructions | 2        |

```
      00 01 02 03 04 05 06 07  08 09 0A 0B 0C 0D 0E 0F
      -- -- -- -- -- -- -- --  -- -- -- -- -- -- -- --
01E0:                   53 F8  FF FF 7F F8 FF FF 7F 70        S........p
01F0: 61 73 30 00                                       as0.            
```

#### Opcodes

```
  0: 0x01E6 [0x53] WAIT_SCHEDULER_TASK: Wait for scheduler "pas0" with entities [EventEntity, EventEntity]
  1: 0x01F3 [0x00] END_REQSTACK()
```

### Event 65535.26

#### Metadata

| Field        | Value    |
|--------------|----------|
| Entrypoint   | 0x01F4   |
| Data Size    | 22 bytes |
| Instructions | 3        |

```
      00 01 02 03 04 05 06 07  08 09 0A 0B 0C 0D 0E 0F
      -- -- -- -- -- -- -- --  -- -- -- -- -- -- -- --
01F0:             7C 00 F8 FF  FF 7F 5B 00 80 F8 FF FF      |.....[.....
0200: 7F F8 FF FF 7F 62 61 6E  30 00                    .....ban0.      
```

#### Opcodes

```
  0: 0x01F4 [0x7C] EventEntity->Render.Flags2 |= 0x00
  1: 0x01FA [0x5B] LOAD_EXT_SCHEDULER: Load scheduler "ban0" with entities [EventEntity, EventEntity], work=85*
  2: 0x0209 [0x00] END_REQSTACK()
```

### Event 65535.27

#### Metadata

| Field        | Value    |
|--------------|----------|
| Entrypoint   | 0x020A   |
| Data Size    | 20 bytes |
| Instructions | 3        |

```
      00 01 02 03 04 05 06 07  08 09 0A 0B 0C 0D 0E 0F
      -- -- -- -- -- -- -- --  -- -- -- -- -- -- -- --
0200:                                53 F8 FF FF 7F F8            S.....
0210: FF FF 7F 62 61 6E 30 7C  01 F8 FF FF 7F 00        ...ban0|......  
```

#### Opcodes

```
  0: 0x020A [0x53] WAIT_SCHEDULER_TASK: Wait for scheduler "ban0" with entities [EventEntity, EventEntity]
  1: 0x0217 [0x7C] EventEntity->Render.Flags2 |= 0x01
  2: 0x021D [0x00] END_REQSTACK()
```

### Event 65535.28

#### Metadata

| Field        | Value    |
|--------------|----------|
| Entrypoint   | 0x021E   |
| Data Size    | 16 bytes |
| Instructions | 2        |

```
      00 01 02 03 04 05 06 07  08 09 0A 0B 0C 0D 0E 0F
      -- -- -- -- -- -- -- --  -- -- -- -- -- -- -- --
0210:                                            5B 02                [.
0220: 80 F8 FF FF 7F F8 FF FF  7F 66 6B 72 30 00        .........fkr0.  
```

#### Opcodes

```
  0: 0x021E [0x5B] LOAD_EXT_SCHEDULER: Load scheduler "fkr0" with entities [EventEntity, EventEntity], work=88*
  1: 0x022D [0x00] END_REQSTACK()
```

### Event 65535.29

#### Metadata

| Field        | Value    |
|--------------|----------|
| Entrypoint   | 0x022E   |
| Data Size    | 14 bytes |
| Instructions | 2        |

```
      00 01 02 03 04 05 06 07  08 09 0A 0B 0C 0D 0E 0F
      -- -- -- -- -- -- -- --  -- -- -- -- -- -- -- --
0220:                                            53 F8                S.
0230: FF FF 7F F8 FF FF 7F 66  6B 72 30 00              .......fkr0.    
```

#### Opcodes

```
  0: 0x022E [0x53] WAIT_SCHEDULER_TASK: Wait for scheduler "fkr0" with entities [EventEntity, EventEntity]
  1: 0x023B [0x00] END_REQSTACK()
```

### Event 65535.30

#### Metadata

| Field        | Value    |
|--------------|----------|
| Entrypoint   | 0x023C   |
| Data Size    | 16 bytes |
| Instructions | 2        |

```
      00 01 02 03 04 05 06 07  08 09 0A 0B 0C 0D 0E 0F
      -- -- -- -- -- -- -- --  -- -- -- -- -- -- -- --
0230:                                      5B 02 80 F8              [...
0240: FF FF 7F F8 FF FF 7F 66  6B 72 31 00              .......fkr1.    
```

#### Opcodes

```
  0: 0x023C [0x5B] LOAD_EXT_SCHEDULER: Load scheduler "fkr1" with entities [EventEntity, EventEntity], work=88*
  1: 0x024B [0x00] END_REQSTACK()
```

### Event 65535.31

#### Metadata

| Field        | Value    |
|--------------|----------|
| Entrypoint   | 0x024C   |
| Data Size    | 14 bytes |
| Instructions | 2        |

```
      00 01 02 03 04 05 06 07  08 09 0A 0B 0C 0D 0E 0F
      -- -- -- -- -- -- -- --  -- -- -- -- -- -- -- --
0240:                                      53 F8 FF FF              S...
0250: 7F F8 FF FF 7F 66 6B 72  31 00                    .....fkr1.      
```

#### Opcodes

```
  0: 0x024C [0x53] WAIT_SCHEDULER_TASK: Wait for scheduler "fkr1" with entities [EventEntity, EventEntity]
  1: 0x0259 [0x00] END_REQSTACK()
```

### Event 65535.32

#### Metadata

| Field        | Value   |
|--------------|---------|
| Entrypoint   | 0x025A  |
| Data Size    | 9 bytes |
| Instructions | 3       |

```
      00 01 02 03 04 05 06 07  08 09 0A 0B 0C 0D 0E 0F
      -- -- -- -- -- -- -- --  -- -- -- -- -- -- -- --
0250:                                5E 69 64 6C 30 1C            ^idl0.
0260: 01 80 00                                          ...             
```

#### Opcodes

```
  0: 0x025A [0x5E] EventEntity goes idle (kills current action) (animation: "idl0")
  1: 0x025F [0x1C] WAIT(30* ticks)
  2: 0x0262 [0x00] END_REQSTACK()
```

### Event 65535.33

#### Metadata

| Field        | Value    |
|--------------|----------|
| Entrypoint   | 0x0263   |
| Data Size    | 50 bytes |
| Instructions | 5        |

```
      00 01 02 03 04 05 06 07  08 09 0A 0B 0C 0D 0E 0F
      -- -- -- -- -- -- -- --  -- -- -- -- -- -- -- --
0260:          7C 00 F8 FF FF  7F 5B 00 80 F8 FF FF 7F     |.....[......
0270: F8 FF FF 7F 73 75 72 30  53 F8 FF FF 7F F8 FF FF  ....sur0S.......
0280: 7F 73 75 72 30 5B 00 80  F8 FF FF 7F F8 FF FF 7F  .sur0[..........
0290: 61 6E 67 30 00                                    ang0.           
```

#### Opcodes

```
  0: 0x0263 [0x7C] EventEntity->Render.Flags2 |= 0x00
  1: 0x0269 [0x5B] LOAD_EXT_SCHEDULER: Load scheduler "sur0" with entities [EventEntity, EventEntity], work=85*
  2: 0x0278 [0x53] WAIT_SCHEDULER_TASK: Wait for scheduler "sur0" with entities [EventEntity, EventEntity]
  3: 0x0285 [0x5B] LOAD_EXT_SCHEDULER: Load scheduler "ang0" with entities [EventEntity, EventEntity], work=85*
  4: 0x0294 [0x00] END_REQSTACK()
```

### Event 65535.34

#### Metadata

| Field        | Value    |
|--------------|----------|
| Entrypoint   | 0x0295   |
| Data Size    | 16 bytes |
| Instructions | 2        |

```
      00 01 02 03 04 05 06 07  08 09 0A 0B 0C 0D 0E 0F
      -- -- -- -- -- -- -- --  -- -- -- -- -- -- -- --
0290:                5B 03 80  F8 FF FF 7F F8 FF FF 7F       [..........
02A0: 6F 72 62 30 00                                    orb0.           
```

#### Opcodes

```
  0: 0x0295 [0x5B] LOAD_EXT_SCHEDULER: Load scheduler "orb0" with entities [EventEntity, EventEntity], work=86*
  1: 0x02A4 [0x00] END_REQSTACK()
```

### Event 65535.35

#### Metadata

| Field        | Value    |
|--------------|----------|
| Entrypoint   | 0x02A5   |
| Data Size    | 14 bytes |
| Instructions | 2        |

```
      00 01 02 03 04 05 06 07  08 09 0A 0B 0C 0D 0E 0F
      -- -- -- -- -- -- -- --  -- -- -- -- -- -- -- --
02A0:                53 F8 FF  FF 7F F8 FF FF 7F 6F 72       S........or
02B0: 62 30 00                                          b0.             
```

#### Opcodes

```
  0: 0x02A5 [0x53] WAIT_SCHEDULER_TASK: Wait for scheduler "orb0" with entities [EventEntity, EventEntity]
  1: 0x02B2 [0x00] END_REQSTACK()
```

### Event 65535.36

#### Metadata

| Field        | Value    |
|--------------|----------|
| Entrypoint   | 0x02B3   |
| Data Size    | 16 bytes |
| Instructions | 2        |

```
      00 01 02 03 04 05 06 07  08 09 0A 0B 0C 0D 0E 0F
      -- -- -- -- -- -- -- --  -- -- -- -- -- -- -- --
02B0:          5B 00 80 F8 FF  FF 7F F8 FF FF 7F 6E 61     [..........na
02C0: 69 30 00                                          i0.             
```

#### Opcodes

```
  0: 0x02B3 [0x5B] LOAD_EXT_SCHEDULER: Load scheduler "nai0" with entities [EventEntity, EventEntity], work=85*
  1: 0x02C2 [0x00] END_REQSTACK()
```

### Event 65535.37

#### Metadata

| Field        | Value    |
|--------------|----------|
| Entrypoint   | 0x02C3   |
| Data Size    | 22 bytes |
| Instructions | 4        |

```
      00 01 02 03 04 05 06 07  08 09 0A 0B 0C 0D 0E 0F
      -- -- -- -- -- -- -- --  -- -- -- -- -- -- -- --
02C0:          53 F8 FF FF 7F  F8 FF FF 7F 6E 61 69 30     S........nai0
02D0: 5E 69 64 6C 30 1C 01 80  00                       ^idl0....       
```

#### Opcodes

```
  0: 0x02C3 [0x53] WAIT_SCHEDULER_TASK: Wait for scheduler "nai0" with entities [EventEntity, EventEntity]
  1: 0x02D0 [0x5E] EventEntity goes idle (kills current action) (animation: "idl0")
  2: 0x02D5 [0x1C] WAIT(30* ticks)
  3: 0x02D8 [0x00] END_REQSTACK()
```

### Event 361

#### Metadata

| Field        | Value     |
|--------------|-----------|
| Entrypoint   | 0x02D9    |
| Data Size    | 206 bytes |
| Instructions | 54        |

```
      00 01 02 03 04 05 06 07  08 09 0A 0B 0C 0D 0E 0F
      -- -- -- -- -- -- -- --  -- -- -- -- -- -- -- --
02D0:                             13 00 00 04 80 29 08           .....).
02E0: 52 00 0F 01 12 1D 05 80  23 29 08 52 00 0F 01 13  R.......#).R....
02F0: 29 08 52 00 0F 01 10 02  00 00 06 80 80 06 03 1D  ).R.............
0300: 07 80 23 01 9C 03 02 00  00 08 80 80 15 03 1D 09  ..#.............
0310: 80 23 01 9C 03 02 00 00  0A 80 80 24 03 1D 0B 80  .#.........$....
0320: 23 01 9C 03 02 00 00 0C  80 80 33 03 1D 0D 80 23  #.........3....#
0330: 01 9C 03 02 00 00 0E 80  80 42 03 1D 0F 80 23 01  .........B....#.
0340: 9C 03 02 00 00 10 80 80  51 03 1D 11 80 23 01 9C  ........Q....#..
0350: 03 02 00 00 12 80 80 60  03 1D 13 80 23 01 9C 03  .......`....#...
0360: 02 00 00 14 80 80 6F 03  1D 15 80 23 01 9C 03 02  ......o....#....
0370: 00 00 16 80 80 7E 03 1D  17 80 23 01 9C 03 02 00  .....~....#.....
0380: 00 18 80 80 8D 03 1D 19  80 23 01 9C 03 02 00 00  .........#......
0390: 04 80 80 9C 03 1D 1A 80  23 01 9C 03 29 08 52 00  ........#...).R.
03A0: 0F 01 11 20 00 21 00                              ... .!.         
```

#### Opcodes

```
  0: 0x02D9 [0x13] ExtData[1]->WorkLocal[0] = rand() % 10*
  1: 0x02DE [0x29] REQ_SET_WAIT(priority=0x08, entity_id=Kohlo-Lakolo (ID: 17760338/0x010F0052), tag_num=0x12)
  2: 0x02E5 [0x1D] PRINT_EVENT_MESSAGE(message_id=4148*)
     "The first rule of the Star Onion Brigade..."
  3: 0x02E8 [0x23] WAIT_FOR_DIALOG_INTERACTION
  4: 0x02E9 [0x29] REQ_SET_WAIT(priority=0x08, entity_id=Kohlo-Lakolo (ID: 17760338/0x010F0052), tag_num=0x13)
  5: 0x02F0 [0x29] REQ_SET_WAIT(priority=0x08, entity_id=Kohlo-Lakolo (ID: 17760338/0x010F0052), tag_num=0x10)
  6: 0x02F7 [0x02] IF !(ExtData[1]->WorkLocal[0] == 0*) GOTO 0x0306
  7: 0x02FF [0x1D] PRINT_EVENT_MESSAGE(message_id=4149*)
     "Help those in need!"
  8: 0x0302 [0x23] WAIT_FOR_DIALOG_INTERACTION
  9: 0x0303 [0x01] GOTO 0x039C
 10: 0x0306 [0x02] IF !(ExtData[1]->WorkLocal[0] == 1*) GOTO 0x0315
 11: 0x030E [0x1D] PRINT_EVENT_MESSAGE(message_id=4150*)
     "Baddies deserve no mercy!"
 12: 0x0311 [0x23] WAIT_FOR_DIALOG_INTERACTION
 13: 0x0312 [0x01] GOTO 0x039C
 14: 0x0315 [0x02] IF !(ExtData[1]->WorkLocal[0] == 2*) GOTO 0x0324
 15: 0x031D [0x1D] PRINT_EVENT_MESSAGE(message_id=4151*)
     "Do unto others as they'd do unto you!"
 16: 0x0320 [0x23] WAIT_FOR_DIALOG_INTERACTION
 17: 0x0321 [0x01] GOTO 0x039C
 18: 0x0324 [0x02] IF !(ExtData[1]->WorkLocal[0] == 3*) GOTO 0x0333
 19: 0x032C [0x1D] PRINT_EVENT_MESSAGE(message_id=4153*)
     "Don't cry on your fellow Onions!"
 20: 0x032F [0x23] WAIT_FOR_DIALOG_INTERACTION
 21: 0x0330 [0x01] GOTO 0x039C
 22: 0x0333 [0x02] IF !(ExtData[1]->WorkLocal[0] == 4*) GOTO 0x0342
 23: 0x033B [0x1D] PRINT_EVENT_MESSAGE(message_id=4154*)
     "Always keep secrets secret!"
 24: 0x033E [0x23] WAIT_FOR_DIALOG_INTERACTION
 25: 0x033F [0x01] GOTO 0x039C
 26: 0x0342 [0x02] IF !(ExtData[1]->WorkLocal[0] == 5*) GOTO 0x0351
 27: 0x034A [0x1D] PRINT_EVENT_MESSAGE(message_id=4155*)
     "Share your fun with everyone!"
 28: 0x034D [0x23] WAIT_FOR_DIALOG_INTERACTION
 29: 0x034E [0x01] GOTO 0x039C
 30: 0x0351 [0x02] IF !(ExtData[1]->WorkLocal[0] == 6*) GOTO 0x0360
 31: 0x0359 [0x1D] PRINT_EVENT_MESSAGE(message_id=4156*)
     "Share your food with everyone!"
 32: 0x035C [0x23] WAIT_FOR_DIALOG_INTERACTION
 33: 0x035D [0x01] GOTO 0x039C
 34: 0x0360 [0x02] IF !(ExtData[1]->WorkLocal[0] == 7*) GOTO 0x036F
 35: 0x0368 [0x1D] PRINT_EVENT_MESSAGE(message_id=4157*)
     "Investigate any strange occurrences!"
 36: 0x036B [0x23] WAIT_FOR_DIALOG_INTERACTION
 37: 0x036C [0x01] GOTO 0x039C
 38: 0x036F [0x02] IF !(ExtData[1]->WorkLocal[0] == 8*) GOTO 0x037E
 39: 0x0377 [0x1D] PRINT_EVENT_MESSAGE(message_id=4158*)
     "Solve any mysteries!"
 40: 0x037A [0x23] WAIT_FOR_DIALOG_INTERACTION
 41: 0x037B [0x01] GOTO 0x039C
 42: 0x037E [0x02] IF !(ExtData[1]->WorkLocal[0] == 9*) GOTO 0x038D
 43: 0x0386 [0x1D] PRINT_EVENT_MESSAGE(message_id=4159*)
     "Always be prepared for danger!"
 44: 0x0389 [0x23] WAIT_FOR_DIALOG_INTERACTION
 45: 0x038A [0x01] GOTO 0x039C
 46: 0x038D [0x02] IF !(ExtData[1]->WorkLocal[0] == 10*) GOTO 0x039C
 47: 0x0395 [0x1D] PRINT_EVENT_MESSAGE(message_id=4160*)
     "Treat girls nicely!"
 48: 0x0398 [0x23] WAIT_FOR_DIALOG_INTERACTION
 49: 0x0399 [0x01] GOTO 0x039C

SUBROUTINE_039C:
 50: 0x039C [0x29] REQ_SET_WAIT(priority=0x08, entity_id=Kohlo-Lakolo (ID: 17760338/0x010F0052), tag_num=0x11)
 51: 0x03A3 [0x20] SET_CLI_EVENT_UC_FLAG: Unlock player control
 52: 0x03A5 [0x21] END_EVENT
 53: 0x03A6 [0x00] END_REQSTACK()
```

### Event 544

#### Metadata

| Field        | Value     |
|--------------|-----------|
| Entrypoint   | 0x03A7    |
| Data Size    | 216 bytes |
| Instructions | 57        |

```
      00 01 02 03 04 05 06 07  08 09 0A 0B 0C 0D 0E 0F
      -- -- -- -- -- -- -- --  -- -- -- -- -- -- -- --
03A0:                      29  08 52 00 0F 01 12 1D 05         ).R......
03B0: 80 23 29 08 52 00 0F 01  13 29 08 52 00 0F 01 10  .#).R....).R....
03C0: 02 05 10 06 80 80 CF 03  1D 1B 80 23 01 74 04 02  ...........#.t..
03D0: 05 10 08 80 80 DE 03 1D  07 80 23 01 74 04 02 05  ..........#.t...
03E0: 10 0A 80 80 ED 03 1D 09  80 23 01 74 04 02 05 10  .........#.t....
03F0: 0C 80 80 FC 03 1D 0B 80  23 01 74 04 02 05 10 0E  ........#.t.....
0400: 80 80 0B 04 1D 0D 80 23  01 74 04 02 05 10 10 80  .......#.t......
0410: 80 1A 04 1D 0F 80 23 01  74 04 02 05 10 12 80 80  ......#.t.......
0420: 29 04 1D 11 80 23 01 74  04 02 05 10 14 80 80 38  )....#.t.......8
0430: 04 1D 13 80 23 01 74 04  02 05 10 16 80 80 47 04  ....#.t.......G.
0440: 1D 15 80 23 01 74 04 02  05 10 18 80 80 56 04 1D  ...#.t.......V..
0450: 17 80 23 01 74 04 02 05  10 04 80 80 65 04 1D 19  ..#.t.......e...
0460: 80 23 01 74 04 02 05 10  1C 80 80 74 04 1D 1A 80  .#.t.......t....
0470: 23 01 74 04 29 08 52 00  0F 01 11 20 00 21 00     #.t.).R.... .!. 
```

#### Opcodes

```
  0: 0x03A7 [0x29] REQ_SET_WAIT(priority=0x08, entity_id=Kohlo-Lakolo (ID: 17760338/0x010F0052), tag_num=0x12)
  1: 0x03AE [0x1D] PRINT_EVENT_MESSAGE(message_id=4148*)
     "The first rule of the Star Onion Brigade..."
  2: 0x03B1 [0x23] WAIT_FOR_DIALOG_INTERACTION
  3: 0x03B2 [0x29] REQ_SET_WAIT(priority=0x08, entity_id=Kohlo-Lakolo (ID: 17760338/0x010F0052), tag_num=0x13)
  4: 0x03B9 [0x29] REQ_SET_WAIT(priority=0x08, entity_id=Kohlo-Lakolo (ID: 17760338/0x010F0052), tag_num=0x10)
  5: 0x03C0 [0x02] IF !(Work_Zone[5] == 0*) GOTO 0x03CF
  6: 0x03C8 [0x1D] PRINT_EVENT_MESSAGE(message_id=12583*)
     "I'll never break a promise!"
  7: 0x03CB [0x23] WAIT_FOR_DIALOG_INTERACTION
  8: 0x03CC [0x01] GOTO 0x0474
  9: 0x03CF [0x02] IF !(Work_Zone[5] == 1*) GOTO 0x03DE
 10: 0x03D7 [0x1D] PRINT_EVENT_MESSAGE(message_id=4149*)
     "Help those in need!"
 11: 0x03DA [0x23] WAIT_FOR_DIALOG_INTERACTION
 12: 0x03DB [0x01] GOTO 0x0474
 13: 0x03DE [0x02] IF !(Work_Zone[5] == 2*) GOTO 0x03ED
 14: 0x03E6 [0x1D] PRINT_EVENT_MESSAGE(message_id=4150*)
     "Baddies deserve no mercy!"
 15: 0x03E9 [0x23] WAIT_FOR_DIALOG_INTERACTION
 16: 0x03EA [0x01] GOTO 0x0474
 17: 0x03ED [0x02] IF !(Work_Zone[5] == 3*) GOTO 0x03FC
 18: 0x03F5 [0x1D] PRINT_EVENT_MESSAGE(message_id=4151*)
     "Do unto others as they'd do unto you!"
 19: 0x03F8 [0x23] WAIT_FOR_DIALOG_INTERACTION
 20: 0x03F9 [0x01] GOTO 0x0474
 21: 0x03FC [0x02] IF !(Work_Zone[5] == 4*) GOTO 0x040B
 22: 0x0404 [0x1D] PRINT_EVENT_MESSAGE(message_id=4153*)
     "Don't cry on your fellow Onions!"
 23: 0x0407 [0x23] WAIT_FOR_DIALOG_INTERACTION
 24: 0x0408 [0x01] GOTO 0x0474
 25: 0x040B [0x02] IF !(Work_Zone[5] == 5*) GOTO 0x041A
 26: 0x0413 [0x1D] PRINT_EVENT_MESSAGE(message_id=4154*)
     "Always keep secrets secret!"
 27: 0x0416 [0x23] WAIT_FOR_DIALOG_INTERACTION
 28: 0x0417 [0x01] GOTO 0x0474
 29: 0x041A [0x02] IF !(Work_Zone[5] == 6*) GOTO 0x0429
 30: 0x0422 [0x1D] PRINT_EVENT_MESSAGE(message_id=4155*)
     "Share your fun with everyone!"
 31: 0x0425 [0x23] WAIT_FOR_DIALOG_INTERACTION
 32: 0x0426 [0x01] GOTO 0x0474
 33: 0x0429 [0x02] IF !(Work_Zone[5] == 7*) GOTO 0x0438
 34: 0x0431 [0x1D] PRINT_EVENT_MESSAGE(message_id=4156*)
     "Share your food with everyone!"
 35: 0x0434 [0x23] WAIT_FOR_DIALOG_INTERACTION
 36: 0x0435 [0x01] GOTO 0x0474
 37: 0x0438 [0x02] IF !(Work_Zone[5] == 8*) GOTO 0x0447
 38: 0x0440 [0x1D] PRINT_EVENT_MESSAGE(message_id=4157*)
     "Investigate any strange occurrences!"
 39: 0x0443 [0x23] WAIT_FOR_DIALOG_INTERACTION
 40: 0x0444 [0x01] GOTO 0x0474
 41: 0x0447 [0x02] IF !(Work_Zone[5] == 9*) GOTO 0x0456
 42: 0x044F [0x1D] PRINT_EVENT_MESSAGE(message_id=4158*)
     "Solve any mysteries!"
 43: 0x0452 [0x23] WAIT_FOR_DIALOG_INTERACTION
 44: 0x0453 [0x01] GOTO 0x0474
 45: 0x0456 [0x02] IF !(Work_Zone[5] == 10*) GOTO 0x0465
 46: 0x045E [0x1D] PRINT_EVENT_MESSAGE(message_id=4159*)
     "Always be prepared for danger!"
 47: 0x0461 [0x23] WAIT_FOR_DIALOG_INTERACTION
 48: 0x0462 [0x01] GOTO 0x0474
 49: 0x0465 [0x02] IF !(Work_Zone[5] == 11*) GOTO 0x0474
 50: 0x046D [0x1D] PRINT_EVENT_MESSAGE(message_id=4160*)
     "Treat girls nicely!"
 51: 0x0470 [0x23] WAIT_FOR_DIALOG_INTERACTION
 52: 0x0471 [0x01] GOTO 0x0474

SUBROUTINE_0474:
 53: 0x0474 [0x29] REQ_SET_WAIT(priority=0x08, entity_id=Kohlo-Lakolo (ID: 17760338/0x010F0052), tag_num=0x11)
 54: 0x047B [0x20] SET_CLI_EVENT_UC_FLAG: Unlock player control
 55: 0x047D [0x21] END_EVENT
 56: 0x047E [0x00] END_REQSTACK()
```

### Event 65535.38

#### Metadata

| Field        | Value    |
|--------------|----------|
| Entrypoint   | 0x047F   |
| Data Size    | 35 bytes |
| Instructions | 9        |

```
      00 01 02 03 04 05 06 07  08 09 0A 0B 0C 0D 0E 0F
      -- -- -- -- -- -- -- --  -- -- -- -- -- -- -- --
0470:                                               32                 2
0480: 1D 80 1F 00 1E 80 1F 80  20 80 1F 01 1F 00 21 80  ........ .....!.
0490: 22 80 23 80 1F 01 1F 00  24 80 25 80 23 80 1F 01  ".#.....$.%.#...
04A0: 6F 00                                             o.              
```

#### Opcodes

```
  0: 0x047F [0x32] ExtData[1]->MainSpeed = 21* * 0.1
  1: 0x0482 [0x1F] MOVE_ENTITY: EventEntity moves to X=-30.093*, Z=189.759*, Y=-7.997*
  2: 0x048A [0x1F] MOVE_ENTITY: Update entity position (mode=1)
  3: 0x048C [0x1F] MOVE_ENTITY: EventEntity moves to X=-30.244*, Z=192.391*, Y=-7.000*
  4: 0x0494 [0x1F] MOVE_ENTITY: Update entity position (mode=1)
  5: 0x0496 [0x1F] MOVE_ENTITY: EventEntity moves to X=-32.517*, Z=193.258*, Y=-7.000*
  6: 0x049E [0x1F] MOVE_ENTITY: Update entity position (mode=1)
  7: 0x04A0 [0x6F] WAIT_FRAME_DELAY: Yield until WaitTime reaches zero
  8: 0x04A1 [0x00] END_REQSTACK()
```

### Event 368

#### Metadata

| Field        | Value     |
|--------------|-----------|
| Entrypoint   | 0x04A2    |
| Data Size    | 314 bytes |
| Instructions | 47        |

```
      00 01 02 03 04 05 06 07  08 09 0A 0B 0C 0D 0E 0F
      -- -- -- -- -- -- -- --  -- -- -- -- -- -- -- --
04A0:       42 46 01 5D 06 80  26 80 45 26 80 F8 FF FF    BF.]..&.E&....
04B0: 7F F8 FF FF 7F 66 64 6F  31 06 80 1C 26 80 38 27  .....fdo1...&.8'
04C0: 80 4E 01 F0 FF FF 7F 5C  00 28 80 5C 01 28 80 5D  .N.....\.(.\.(.]
04D0: 29 80 08 80 1C 2A 80 45  2B 80 F8 FF FF 7F F8 FF  )....*.E+.......
04E0: FF 7F 73 30 32 33 06 80  29 0E F0 FF FF 7F 2C 45  ..s023..).....,E
04F0: 26 80 F8 FF FF 7F F8 FF  FF 7F 66 64 69 31 06 80  &.........fdi1..
0500: 29 0B 52 00 0F 01 2A 52  2B 80 F8 FF FF 7F F8 FF  ).R...*R+.......
0510: FF 7F 73 30 32 33 45 2B  80 F8 FF FF 7F F8 FF FF  ..s023E+........
0520: 7F 73 30 32 34 06 80 4E  00 F0 FF FF 7F 29 0B 52  .s024..N.....).R
0530: 00 0F 01 2B 52 2B 80 F8  FF FF 7F F8 FF FF 7F 73  ...+R+.........s
0540: 30 32 34 45 2B 80 F0 FF  FF 7F F0 FF FF 7F 73 30  024E+.........s0
0550: 32 35 06 80 4A 52 00 0F  01 F0 FF FF 7F 27 0A 53  25..JR.......'.S
0560: 00 0F 01 19 29 0B 52 00  0F 01 2C 2A 0A 53 00 0F  ....).R...,*.S..
0570: 01 24 2C 80 06 80 06 80  25 02 00 10 06 80 00 90  .$,.....%.......
0580: 05 03 01 10 06 80 29 0E  52 00 0F 01 2F 01 A7 05  ......).R.../...
0590: 02 00 10 08 80 00 A7 05  03 01 10 08 80 29 0E 52  .............).R
05A0: 00 0F 01 2D 01 A7 05 5D  06 80 26 80 1C 26 80 5C  ...-...]..&..&.\
05B0: 00 2D 80 5C 01 2D 80 5D  29 80 08 80 1C 2A 80 4E  .-.\.-.])....*.N
05C0: 00 F0 FF FF 7F 46 00 45  26 80 F8 FF FF 7F F8 FF  .....F.E&.......
05D0: FF 7F 66 64 69 31 06 80  20 00 21 00              ..fdi1.. .!.    
```

#### Opcodes

```
  0: 0x04A2 [0x42] SET_CLI_EVENT_CANCEL_DATA()
  1: 0x04A3 [0x46] CAMERA_CONTROL: Disable user control
  2: 0x04A5 [0x5D] SET_MUSIC_VOLUME(volume=0*, fade_time=200*)
  3: 0x04AA [0x45] LOAD_SCHEDULED_TASK: Load scheduler "fdo1" with entities [EventEntity, EventEntity], work=[200*, 0*]
  4: 0x04BB [0x1C] WAIT(200* ticks)
  5: 0x04BE [0x38] SET_CLIENT_EVENT_MODE(mode=19*)
  6: 0x04C1 [0x4E] SET_ENTITY_HIDE_FLAG: Hide LocalPlayer
  7: 0x04C7 [0x5C] MUSIC_CONTROL: Set Idle (Day) music to song 163*
  8: 0x04CB [0x5C] MUSIC_CONTROL: Set Idle (Night) music to song 163*
  9: 0x04CF [0x5D] SET_MUSIC_VOLUME(volume=127*, fade_time=1*)
 10: 0x04D4 [0x1C] WAIT(120* ticks)
 11: 0x04D7 [0x45] LOAD_SCHEDULED_TASK: Load scheduler "s023" with entities [EventEntity, EventEntity], work=[140*, 0*]
 12: 0x04E8 [0x29] REQ_SET_WAIT(priority=0x0E, entity_id=LocalPlayer, tag_num=0x2C)
 13: 0x04EF [0x45] LOAD_SCHEDULED_TASK: Load scheduler "fdi1" with entities [EventEntity, EventEntity], work=[200*, 0*]
 14: 0x0500 [0x29] REQ_SET_WAIT(priority=0x0B, entity_id=Kohlo-Lakolo (ID: 17760338/0x010F0052), tag_num=0x2A)
 15: 0x0507 [0x52] END_LOAD_SCHEDULER: End scheduler "s023" with entities [EventEntity, EventEntity], work=140*
 16: 0x0516 [0x45] LOAD_SCHEDULED_TASK: Load scheduler "s024" with entities [EventEntity, EventEntity], work=[140*, 0*]
 17: 0x0527 [0x4E] SET_ENTITY_HIDE_FLAG: Show LocalPlayer
 18: 0x052D [0x29] REQ_SET_WAIT(priority=0x0B, entity_id=Kohlo-Lakolo (ID: 17760338/0x010F0052), tag_num=0x2B)
 19: 0x0534 [0x52] END_LOAD_SCHEDULER: End scheduler "s024" with entities [EventEntity, EventEntity], work=140*
 20: 0x0543 [0x45] LOAD_SCHEDULED_TASK: Load scheduler "s025" with entities [LocalPlayer, LocalPlayer], work=[140*, 0*]
 21: 0x0554 [0x4A] Kohlo-Lakolo (ID: 17760338/0x010F0052) looks at LocalPlayer
 22: 0x055D [0x27] REQ_SET(priority=0x0A, entity_id=Papo-Hopo (ID: 17760339/0x010F0053), tag_num=0x19)
 23: 0x0564 [0x29] REQ_SET_WAIT(priority=0x0B, entity_id=Kohlo-Lakolo (ID: 17760338/0x010F0052), tag_num=0x2C)
 24: 0x056B [0x2A] GET_REQ_LEVEL(level=10, entity_id=Papo-Hopo (ID: 17760339/0x010F0053))
 25: 0x0571 [0x24] CREATE_DIALOG(message_id=4172*, default_option=0*, option_flags=0*)
     "Join the ranks of the S.O.B.? [I was born to be an S.O.B.!/You've got to be kidding!]"
 26: 0x0578 [0x25] WAIT_DIALOG_SELECT()
 27: 0x0579 [0x02] IF !(Work_Zone[0] == 0*) GOTO 0x0590
 28: 0x0581 [0x03] Work_Zone[1] = 0*
 29: 0x0586 [0x29] REQ_SET_WAIT(priority=0x0E, entity_id=Kohlo-Lakolo (ID: 17760338/0x010F0052), tag_num=0x2F)
 30: 0x058D [0x01] GOTO 0x05A7
 31: 0x0590 [0x02] IF !(Work_Zone[0] == 1*) GOTO 0x05A7
 32: 0x0598 [0x03] Work_Zone[1] = 1*
 33: 0x059D [0x29] REQ_SET_WAIT(priority=0x0E, entity_id=Kohlo-Lakolo (ID: 17760338/0x010F0052), tag_num=0x2D)
 34: 0x05A4 [0x01] GOTO 0x05A7

SUBROUTINE_05A7:
 35: 0x05A7 [0x5D] SET_MUSIC_VOLUME(volume=0*, fade_time=200*)
 36: 0x05AC [0x1C] WAIT(200* ticks)
 37: 0x05AF [0x5C] MUSIC_CONTROL: Set Idle (Day) music to song 151*
 38: 0x05B3 [0x5C] MUSIC_CONTROL: Set Idle (Night) music to song 151*
 39: 0x05B7 [0x5D] SET_MUSIC_VOLUME(volume=127*, fade_time=1*)
 40: 0x05BC [0x1C] WAIT(120* ticks)
 41: 0x05BF [0x4E] SET_ENTITY_HIDE_FLAG: Show LocalPlayer
 42: 0x05C5 [0x46] CAMERA_CONTROL: Restore default settings
 43: 0x05C7 [0x45] LOAD_SCHEDULED_TASK: Load scheduler "fdi1" with entities [EventEntity, EventEntity], work=[200*, 0*]
 44: 0x05D8 [0x20] SET_CLI_EVENT_UC_FLAG: Unlock player control
 45: 0x05DA [0x21] END_EVENT
 46: 0x05DB [0x00] END_REQSTACK()
```

### Event 65535.39

#### Metadata

| Field        | Value    |
|--------------|----------|
| Entrypoint   | 0x05DC   |
| Data Size    | 55 bytes |
| Instructions | 13       |

```
      00 01 02 03 04 05 06 07  08 09 0A 0B 0C 0D 0E 0F
      -- -- -- -- -- -- -- --  -- -- -- -- -- -- -- --
05D0:                                      29 08 52 00              ).R.
05E0: 0F 01 01 1D 2E 80 23 29  08 52 00 0F 01 02 29 08  ......#).R....).
05F0: 52 00 0F 01 10 1D 2F 80  23 29 08 52 00 0F 01 11  R...../.#).R....
0600: 29 08 52 00 0F 01 12 1D  30 80 23 29 08 52 00 0F  ).R.....0.#).R..
0610: 01 13 00                                          ...             
```

#### Opcodes

```
  0: 0x05DC [0x29] REQ_SET_WAIT(priority=0x08, entity_id=Kohlo-Lakolo (ID: 17760338/0x010F0052), tag_num=0x01)
  1: 0x05E3 [0x1D] PRINT_EVENT_MESSAGE(message_id=4167*)
     "The first rule of the Star Onion Brigade..."
  2: 0x05E6 [0x23] WAIT_FOR_DIALOG_INTERACTION
  3: 0x05E7 [0x29] REQ_SET_WAIT(priority=0x08, entity_id=Kohlo-Lakolo (ID: 17760338/0x010F0052), tag_num=0x02)
  4: 0x05EE [0x29] REQ_SET_WAIT(priority=0x08, entity_id=Kohlo-Lakolo (ID: 17760338/0x010F0052), tag_num=0x10)
  5: 0x05F5 [0x1D] PRINT_EVENT_MESSAGE(message_id=4168*)
     "For those of you who don't kno`w..."
  6: 0x05F8 [0x23] WAIT_FOR_DIALOG_INTERACTION
  7: 0x05F9 [0x29] REQ_SET_WAIT(priority=0x08, entity_id=Kohlo-Lakolo (ID: 17760338/0x010F0052), tag_num=0x11)
  8: 0x0600 [0x29] REQ_SET_WAIT(priority=0x08, entity_id=Kohlo-Lakolo (ID: 17760338/0x010F0052), tag_num=0x12)
  9: 0x0607 [0x1D] PRINT_EVENT_MESSAGE(message_id=4169*)
     "Is to fight for truth, justice, and the onion way! As long as there is love and dreams...we will be the protectors of goodiness!"
 10: 0x060A [0x23] WAIT_FOR_DIALOG_INTERACTION
 11: 0x060B [0x29] REQ_SET_WAIT(priority=0x08, entity_id=Kohlo-Lakolo (ID: 17760338/0x010F0052), tag_num=0x13)
 12: 0x0612 [0x00] END_REQSTACK()
```

### Event 65535.40

#### Metadata

| Field        | Value    |
|--------------|----------|
| Entrypoint   | 0x0613   |
| Data Size    | 19 bytes |
| Instructions | 5        |

```
      00 01 02 03 04 05 06 07  08 09 0A 0B 0C 0D 0E 0F
      -- -- -- -- -- -- -- --  -- -- -- -- -- -- -- --
0610:          29 08 52 00 0F  01 14 1D 31 80 23 29 08     ).R.....1.#).
0620: 52 00 0F 01 15 00                                 R.....          
```

#### Opcodes

```
  0: 0x0613 [0x29] REQ_SET_WAIT(priority=0x08, entity_id=Kohlo-Lakolo (ID: 17760338/0x010F0052), tag_num=0x14)
  1: 0x061A [0x1D] PRINT_EVENT_MESSAGE(message_id=4170*)
     "We are the Star Onion Briga`de!"
  2: 0x061D [0x23] WAIT_FOR_DIALOG_INTERACTION
  3: 0x061E [0x29] REQ_SET_WAIT(priority=0x08, entity_id=Kohlo-Lakolo (ID: 17760338/0x010F0052), tag_num=0x15)
  4: 0x0625 [0x00] END_REQSTACK()
```

### Event 65535.41

#### Metadata

| Field        | Value    |
|--------------|----------|
| Entrypoint   | 0x0626   |
| Data Size    | 19 bytes |
| Instructions | 5        |

```
      00 01 02 03 04 05 06 07  08 09 0A 0B 0C 0D 0E 0F
      -- -- -- -- -- -- -- --  -- -- -- -- -- -- -- --
0620:                   29 08  52 00 0F 01 01 1D 32 80        ).R.....2.
0630: 23 29 08 52 00 0F 01 02  00                       #).R.....       
```

#### Opcodes

```
  0: 0x0626 [0x29] REQ_SET_WAIT(priority=0x08, entity_id=Kohlo-Lakolo (ID: 17760338/0x010F0052), tag_num=0x01)
  1: 0x062D [0x1D] PRINT_EVENT_MESSAGE(message_id=4171*)
     "Hey, you! Yes, you, the grown-up there! What are you staring at? You wanna join our Star Onion Brigade, don'taru?"
  2: 0x0630 [0x23] WAIT_FOR_DIALOG_INTERACTION
  3: 0x0631 [0x29] REQ_SET_WAIT(priority=0x08, entity_id=Kohlo-Lakolo (ID: 17760338/0x010F0052), tag_num=0x02)
  4: 0x0638 [0x00] END_REQSTACK()
```

### Event 369

#### Metadata

| Field        | Value     |
|--------------|-----------|
| Entrypoint   | 0x0639    |
| Data Size    | 165 bytes |
| Instructions | 25        |

```
      00 01 02 03 04 05 06 07  08 09 0A 0B 0C 0D 0E 0F
      -- -- -- -- -- -- -- --  -- -- -- -- -- -- -- --
0630:                             1E F0 FF FF 7F 6F 70           .....op
0640: 29 0B 52 00 0F 01 2E 27  08 54 00 0F 01 05 27 08  ).R....'.T....'.
0650: 53 00 0F 01 09 27 08 57  00 0F 01 03 27 08 56 00  S....'.W....'.V.
0660: 0F 01 03 29 0B 53 00 0F  01 1A 29 0B 54 00 0F 01  ...).S....).T...
0670: 1C 29 0B 56 00 0F 01 13  29 0B 57 00 0F 01 16 2A  .).V....).W....*
0680: 08 54 00 0F 01 2A 08 53  00 0F 01 2A 08 57 00 0F  .T...*.S...*.W..
0690: 01 2A 08 56 00 0F 01 29  08 54 00 0F 01 06 29 08  .*.V...).T....).
06A0: 53 00 0F 01 0A 29 08 57  00 0F 01 04 29 08 56 00  S....).W....).V.
06B0: 0F 01 04 29 0B 55 00 0F  01 1A 45 26 80 F8 FF FF  ...).U....E&....
06C0: 7F F8 FF FF 7F 66 64 6F  31 06 80 1C 33 80 52 2B  .....fdo1...3.R+
06D0: 80 F0 FF FF 7F F0 FF FF  7F 73 30 32 35 00        .........s025.  
```

#### Opcodes

```
  0: 0x0639 [0x1E] EventEntity looks at LocalPlayer and starts talking
  1: 0x063E [0x6F] WAIT_FRAME_DELAY: Yield until WaitTime reaches zero
  2: 0x063F [0x70] WAIT_ENTITY_RENDER_FLAG: Wait while EventEntity->Render.Flags3 bit 2 is set (cancel turn if not)
  3: 0x0640 [0x29] REQ_SET_WAIT(priority=0x0B, entity_id=Kohlo-Lakolo (ID: 17760338/0x010F0052), tag_num=0x2E)
  4: 0x0647 [0x27] REQ_SET(priority=0x08, entity_id=Gomada-Vulmada (ID: 17760340/0x010F0054), tag_num=0x05)
  5: 0x064E [0x27] REQ_SET(priority=0x08, entity_id=Papo-Hopo (ID: 17760339/0x010F0053), tag_num=0x09)
  6: 0x0655 [0x27] REQ_SET(priority=0x08, entity_id=Pyo Nzon (ID: 17760343/0x010F0057), tag_num=0x03)
  7: 0x065C [0x27] REQ_SET(priority=0x08, entity_id=Yafa Yaa (ID: 17760342/0x010F0056), tag_num=0x03)
  8: 0x0663 [0x29] REQ_SET_WAIT(priority=0x0B, entity_id=Papo-Hopo (ID: 17760339/0x010F0053), tag_num=0x1A)
  9: 0x066A [0x29] REQ_SET_WAIT(priority=0x0B, entity_id=Gomada-Vulmada (ID: 17760340/0x010F0054), tag_num=0x1C)
 10: 0x0671 [0x29] REQ_SET_WAIT(priority=0x0B, entity_id=Yafa Yaa (ID: 17760342/0x010F0056), tag_num=0x13)
 11: 0x0678 [0x29] REQ_SET_WAIT(priority=0x0B, entity_id=Pyo Nzon (ID: 17760343/0x010F0057), tag_num=0x16)
 12: 0x067F [0x2A] GET_REQ_LEVEL(level=8, entity_id=Gomada-Vulmada (ID: 17760340/0x010F0054))
 13: 0x0685 [0x2A] GET_REQ_LEVEL(level=8, entity_id=Papo-Hopo (ID: 17760339/0x010F0053))
 14: 0x068B [0x2A] GET_REQ_LEVEL(level=8, entity_id=Pyo Nzon (ID: 17760343/0x010F0057))
 15: 0x0691 [0x2A] GET_REQ_LEVEL(level=8, entity_id=Yafa Yaa (ID: 17760342/0x010F0056))
 16: 0x0697 [0x29] REQ_SET_WAIT(priority=0x08, entity_id=Gomada-Vulmada (ID: 17760340/0x010F0054), tag_num=0x06)
 17: 0x069E [0x29] REQ_SET_WAIT(priority=0x08, entity_id=Papo-Hopo (ID: 17760339/0x010F0053), tag_num=0x0A)
 18: 0x06A5 [0x29] REQ_SET_WAIT(priority=0x08, entity_id=Pyo Nzon (ID: 17760343/0x010F0057), tag_num=0x04)
 19: 0x06AC [0x29] REQ_SET_WAIT(priority=0x08, entity_id=Yafa Yaa (ID: 17760342/0x010F0056), tag_num=0x04)
 20: 0x06B3 [0x29] REQ_SET_WAIT(priority=0x0B, entity_id=Pichichi (ID: 17760341/0x010F0055), tag_num=0x1A)
 21: 0x06BA [0x45] LOAD_SCHEDULED_TASK: Load scheduler "fdo1" with entities [EventEntity, EventEntity], work=[200*, 0*]
 22: 0x06CB [0x1C] WAIT(60* ticks)
 23: 0x06CE [0x52] END_LOAD_SCHEDULER: End scheduler "s025" with entities [LocalPlayer, LocalPlayer], work=140*
