# 17760298 - Gold Skull

## Common Data

| Field            | Value                   |
|------------------|-------------------------|
| Zone             | Port Windurst (ID: 240) |
| Block Size       | 680 bytes               |
| Total Events     | 25                      |
| References Count | 32                      |

## List of Events

| Event ID                   | Entrypoint   |   Size |   Instructions |
|----------------------------|--------------|--------|----------------|
| [65535](#event-65535)      | 0x0000       |      1 |              1 |
| [65535.1](#event-655351)   | 0x0001       |     16 |              2 |
| [65535.2](#event-655352)   | 0x0011       |     22 |              4 |
| [65535.3](#event-655353)   | 0x0027       |     16 |              2 |
| [65535.4](#event-655354)   | 0x0037       |     14 |              2 |
| [65535.5](#event-655355)   | 0x0045       |      9 |              3 |
| [43](#event-43)            | 0x004E       |     33 |             12 |
| [48](#event-48)            | 0x006F       |      1 |              1 |
| [65535.6](#event-655356)   | 0x0070       |     19 |              5 |
| [65535.7](#event-655357)   | 0x0083       |     27 |              9 |
| [65535.8](#event-655358)   | 0x009E       |     23 |              7 |
| [50](#event-50)            | 0x00B5       |     33 |             12 |
| [53](#event-53)            | 0x00D6       |      1 |              1 |
| [65535.9](#event-655359)   | 0x00D7       |     10 |              2 |
| [65535.10](#event-6553510) | 0x00E1       |     15 |              5 |
| [65535.11](#event-6553511) | 0x00F0       |     19 |              5 |
| [65535.12](#event-6553512) | 0x0103       |     19 |              5 |
| [54](#event-54)            | 0x0116       |     15 |              8 |
| [57](#event-57)            | 0x0125       |     33 |             12 |
| [61](#event-61)            | 0x0146       |      1 |              1 |
| [65535.13](#event-6553513) | 0x0147       |     19 |              5 |
| [65535.14](#event-6553514) | 0x015A       |     27 |              9 |
| [62](#event-62)            | 0x0175       |     29 |             10 |
| [66](#event-66)            | 0x0192       |      1 |              1 |
| [68](#event-68)            | 0x0193       |     33 |             12 |

## DAT References (imed_data)

|   Index | Hex Value   |   Dec Value |
|---------|-------------|-------------|
|       0 | 0x003C      |          60 |
|       1 | 0x001E      |          30 |
|       2 | 0x0C8F      |        3215 |
|       3 | 0x0C90      |        3216 |
|       4 | 0x0C9C      |        3228 |
|       5 | 0x0C9D      |        3229 |
|       6 | 0x0C9E      |        3230 |
|       7 | 0x0C9F      |        3231 |
|       8 | 0x0CA5      |        3237 |
|       9 | 0x0CA6      |        3238 |
|      10 | 0x0CAB      |        3243 |
|      11 | 0x0CAC      |        3244 |
|      12 | 0xFFFED358  |  4294890328 |
|      13 | 0x26DD0     |      159184 |
|      14 | 0xFFFFEA84  |  4294961796 |
|      15 | 0x0833      |        2099 |
|      16 | 0x000D      |          13 |
|      17 | 0xFFFED571  |  4294890865 |
|      18 | 0x2819A     |      164250 |
|      19 | 0xFFFFE98E  |  4294961550 |
|      20 | 0x0CB0      |        3248 |
|      21 | 0x0CB1      |        3249 |
|      22 | 0x0CB2      |        3250 |
|      23 | 0x0CBB      |        3259 |
|      24 | 0x0CBC      |        3260 |
|      25 | 0x0CC6      |        3270 |
|      26 | 0x0CC7      |        3271 |
|      27 | 0x0CC8      |        3272 |
|      28 | 0x0CC9      |        3273 |
|      29 | 0x0CCF      |        3279 |
|      30 | 0x0CDB      |        3291 |
|      31 | 0x0CDC      |        3292 |

## String References

- **3215**: ...... What is it you want?
- **3216**: Sorry, but I'm not much of a talker. If you have no business with me, then don't speak to me.
- **3228**: Allow me to explain...
- **3229**: The mission from our comrades in Windurst entails the oblation of magic weapons to Giddeus, the frontline to the abode of the Yagudo beastmen.
- **3230**: One of the magic weapons to be dedicated to Giddeus will be handed to you at Heavens Tower, here in Windurst.
- **3231**: Your orders are to help carry those magical weapons to the Yagudo treasure chamber, deep beneath Giddeus.
- **3237**: After receiving the magical weapons from Heavens Tower in the Windurst Walls district, you are to return here to the Consulate of Bastok and present the weapons to us.
- **3238**: We will exchange these with a different weapon, which you will take to Giddeus as an offering instead.
- **3243**: You are to proceed to Heavens Tower and obtain a shipment of magical weapons. Then you are to return back here to the Consulate of Bastok at once.
- **3244**: Once we have switched the weapons, you are to head to Giddeus and offer them to the Yagudo. Dismissed!
- **3248**: Wait.
- **3249**: Take this sword to Giddeus instead. Good luck.
- **3250**: Take that sword to Giddeus. Good luck.
- **3259**: I constantly pray. I pray for the future of Bastok.
- **3260**: Today I'll also be praying for you to have a safe journey.
- **3270**: Allow me to explain...
- **3271**: The mission from our comrades in Windurst entails the extermination of a giant monster that appeared in the depths of Giddeus, the borderland to the theocracy of the Yagudo beastmen.
- **3272**: You are to receive a key from Heavens Tower in the Windurst Walls district, and head to the innermost part of Giddeus.
- **3273**: Your orders are to then defeat the heinous beast that lurks there.
- **3279**: You are to receive a key from Heavens Tower, here in Windurst, and to defeat the great monster that has appeared in the depths of Giddeus. That's all your country requires from you.
- **3291**: I constantly pray. I pray for the future of Bastok.
- **3292**: And I polish my fangs in case the days of war are near again...

## Events

### Event 65535

#### Metadata

| Field        | Value   |
|--------------|---------|
| Entrypoint   | 0x0000  |
| Data Size    | 1 bytes |
| Instructions | 1       |

```
      00 01 02 03 04 05 06 07  08 09 0A 0B 0C 0D 0E 0F
      -- -- -- -- -- -- -- --  -- -- -- -- -- -- -- --
0000: 00                                                .               
```

#### Opcodes

```
  0: 0x0000 [0x00] END_REQSTACK()
```

### Event 65535.1

#### Metadata

| Field        | Value    |
|--------------|----------|
| Entrypoint   | 0x0001   |
| Data Size    | 16 bytes |
| Instructions | 2        |

```
      00 01 02 03 04 05 06 07  08 09 0A 0B 0C 0D 0E 0F
      -- -- -- -- -- -- -- --  -- -- -- -- -- -- -- --
0000:    66 00 80 F8 FF FF 7F  F8 FF FF 7F 74 6C 6B 30   f..........tlk0
0010: 00                                                .               
```

#### Opcodes

```
  0: 0x0001 [0x66] LOAD_EXT_SCHEDULER_MAIN: Load scheduler "tlk0" with entities [EventEntity, EventEntity], work=60*
  1: 0x0010 [0x00] END_REQSTACK()
```

### Event 65535.2

#### Metadata

| Field        | Value    |
|--------------|----------|
| Entrypoint   | 0x0011   |
| Data Size    | 22 bytes |
| Instructions | 4        |

```
      00 01 02 03 04 05 06 07  08 09 0A 0B 0C 0D 0E 0F
      -- -- -- -- -- -- -- --  -- -- -- -- -- -- -- --
0010:    53 F8 FF FF 7F F8 FF  FF 7F 74 6C 6B 30 5E 69   S........tlk0^i
0020: 64 6C 30 1C 01 80 00                              dl0....         
```

#### Opcodes

```
  0: 0x0011 [0x53] WAIT_SCHEDULER_TASK: Wait for scheduler "tlk0" with entities [EventEntity, EventEntity]
  1: 0x001E [0x5E] EventEntity goes idle (kills current action) (animation: "idl0")
  2: 0x0023 [0x1C] WAIT(30* ticks)
  3: 0x0026 [0x00] END_REQSTACK()
```

### Event 65535.3

#### Metadata

| Field        | Value    |
|--------------|----------|
| Entrypoint   | 0x0027   |
| Data Size    | 16 bytes |
| Instructions | 2        |

```
      00 01 02 03 04 05 06 07  08 09 0A 0B 0C 0D 0E 0F
      -- -- -- -- -- -- -- --  -- -- -- -- -- -- -- --
0020:                      66  00 80 F8 FF FF 7F F8 FF         f........
0030: FF 7F 70 61 73 30 00                              ..pas0.         
```

#### Opcodes

```
  0: 0x0027 [0x66] LOAD_EXT_SCHEDULER_MAIN: Load scheduler "pas0" with entities [EventEntity, EventEntity], work=60*
  1: 0x0036 [0x00] END_REQSTACK()
```

### Event 65535.4

#### Metadata

| Field        | Value    |
|--------------|----------|
| Entrypoint   | 0x0037   |
| Data Size    | 14 bytes |
| Instructions | 2        |

```
      00 01 02 03 04 05 06 07  08 09 0A 0B 0C 0D 0E 0F
      -- -- -- -- -- -- -- --  -- -- -- -- -- -- -- --
0030:                      53  F8 FF FF 7F F8 FF FF 7F         S........
0040: 70 61 73 30 00                                    pas0.           
```

#### Opcodes

```
  0: 0x0037 [0x53] WAIT_SCHEDULER_TASK: Wait for scheduler "pas0" with entities [EventEntity, EventEntity]
  1: 0x0044 [0x00] END_REQSTACK()
```

### Event 65535.5

#### Metadata

| Field        | Value   |
|--------------|---------|
| Entrypoint   | 0x0045  |
| Data Size    | 9 bytes |
| Instructions | 3       |

```
      00 01 02 03 04 05 06 07  08 09 0A 0B 0C 0D 0E 0F
      -- -- -- -- -- -- -- --  -- -- -- -- -- -- -- --
0040:                5E 69 64  6C 30 1C 01 80 00             ^idl0....  
```

#### Opcodes

```
  0: 0x0045 [0x5E] EventEntity goes idle (kills current action) (animation: "idl0")
  1: 0x004A [0x1C] WAIT(30* ticks)
  2: 0x004D [0x00] END_REQSTACK()
```

### Event 43

#### Metadata

| Field        | Value    |
|--------------|----------|
| Entrypoint   | 0x004E   |
| Data Size    | 33 bytes |
| Instructions | 12       |

```
      00 01 02 03 04 05 06 07  08 09 0A 0B 0C 0D 0E 0F
      -- -- -- -- -- -- -- --  -- -- -- -- -- -- -- --
0040:                                            1E F0                ..
0050: FF FF 7F 6F 70 1D 02 80  23 29 08 2A 00 0F 01 01  ...op...#).*....
0060: 1D 03 80 23 29 08 2A 00  0F 01 05 20 00 21 00     ...#).*.... .!. 
```

#### Opcodes

```
  0: 0x004E [0x1E] EventEntity looks at LocalPlayer and starts talking
  1: 0x0053 [0x6F] WAIT_FRAME_DELAY: Yield until WaitTime reaches zero
  2: 0x0054 [0x70] WAIT_ENTITY_RENDER_FLAG: Wait while EventEntity->Render.Flags3 bit 2 is set (cancel turn if not)
  3: 0x0055 [0x1D] PRINT_EVENT_MESSAGE(message_id=3215*)
    → "...... What is it you want?"
  4: 0x0058 [0x23] WAIT_FOR_DIALOG_INTERACTION
  5: 0x0059 [0x29] REQ_SET_WAIT(priority=0x08, entity_id=Gold Skull (ID: 17760298/0x010F002A), tag_num=0x01)
  6: 0x0060 [0x1D] PRINT_EVENT_MESSAGE(message_id=3216*)
    → "Sorry, but I'm not much of a talker. If you have no business with me, then don't speak to me."
  7: 0x0063 [0x23] WAIT_FOR_DIALOG_INTERACTION
  8: 0x0064 [0x29] REQ_SET_WAIT(priority=0x08, entity_id=Gold Skull (ID: 17760298/0x010F002A), tag_num=0x05)
  9: 0x006B [0x20] SET_CLI_EVENT_UC_FLAG: Unlock player control
 10: 0x006D [0x21] END_EVENT
 11: 0x006E [0x00] END_REQSTACK()
```

### Event 48

#### Metadata

| Field        | Value   |
|--------------|---------|
| Entrypoint   | 0x006F  |
| Data Size    | 1 bytes |
| Instructions | 1       |

```
      00 01 02 03 04 05 06 07  08 09 0A 0B 0C 0D 0E 0F
      -- -- -- -- -- -- -- --  -- -- -- -- -- -- -- --
0060:                                               00                 .
```

#### Opcodes

```
  0: 0x006F [0x00] END_REQSTACK()
```

### Event 65535.6

#### Metadata

| Field        | Value    |
|--------------|----------|
| Entrypoint   | 0x0070   |
| Data Size    | 19 bytes |
| Instructions | 5        |

```
      00 01 02 03 04 05 06 07  08 09 0A 0B 0C 0D 0E 0F
      -- -- -- -- -- -- -- --  -- -- -- -- -- -- -- --
0070: 29 08 2A 00 0F 01 01 1D  04 80 23 29 08 2A 00 0F  ).*.......#).*..
0080: 01 05 00                                          ...             
```

#### Opcodes

```
  0: 0x0070 [0x29] REQ_SET_WAIT(priority=0x08, entity_id=Gold Skull (ID: 17760298/0x010F002A), tag_num=0x01)
  1: 0x0077 [0x1D] PRINT_EVENT_MESSAGE(message_id=3228*)
    → "Allow me to explain..."
  2: 0x007A [0x23] WAIT_FOR_DIALOG_INTERACTION
  3: 0x007B [0x29] REQ_SET_WAIT(priority=0x08, entity_id=Gold Skull (ID: 17760298/0x010F002A), tag_num=0x05)
  4: 0x0082 [0x00] END_REQSTACK()
```

### Event 65535.7

#### Metadata

| Field        | Value    |
|--------------|----------|
| Entrypoint   | 0x0083   |
| Data Size    | 27 bytes |
| Instructions | 9        |

```
      00 01 02 03 04 05 06 07  08 09 0A 0B 0C 0D 0E 0F
      -- -- -- -- -- -- -- --  -- -- -- -- -- -- -- --
0080:          29 08 2A 00 0F  01 01 1D 05 80 23 1D 06     ).*.......#..
0090: 80 23 1D 07 80 23 29 08  2A 00 0F 01 05 00        .#...#).*.....  
```

#### Opcodes

```
  0: 0x0083 [0x29] REQ_SET_WAIT(priority=0x08, entity_id=Gold Skull (ID: 17760298/0x010F002A), tag_num=0x01)
  1: 0x008A [0x1D] PRINT_EVENT_MESSAGE(message_id=3229*)
    → "The mission from our comrades in Windurst entails the oblation of magic weapons to Giddeus, the frontline to the abode of the Yagudo beastmen."
  2: 0x008D [0x23] WAIT_FOR_DIALOG_INTERACTION
  3: 0x008E [0x1D] PRINT_EVENT_MESSAGE(message_id=3230*)
    → "One of the magic weapons to be dedicated to Giddeus will be handed to you at Heavens Tower, here in Windurst."
  4: 0x0091 [0x23] WAIT_FOR_DIALOG_INTERACTION
  5: 0x0092 [0x1D] PRINT_EVENT_MESSAGE(message_id=3231*)
    → "Your orders are to help carry those magical weapons to the Yagudo treasure chamber, deep beneath Giddeus."
  6: 0x0095 [0x23] WAIT_FOR_DIALOG_INTERACTION
  7: 0x0096 [0x29] REQ_SET_WAIT(priority=0x08, entity_id=Gold Skull (ID: 17760298/0x010F002A), tag_num=0x05)
  8: 0x009D [0x00] END_REQSTACK()
```

### Event 65535.8

#### Metadata

| Field        | Value    |
|--------------|----------|
| Entrypoint   | 0x009E   |
| Data Size    | 23 bytes |
| Instructions | 7        |

```
      00 01 02 03 04 05 06 07  08 09 0A 0B 0C 0D 0E 0F
      -- -- -- -- -- -- -- --  -- -- -- -- -- -- -- --
0090:                                            29 08                ).
00A0: 2A 00 0F 01 01 1D 08 80  23 1D 09 80 23 29 08 2A  *.......#...#).*
00B0: 00 0F 01 05 00                                    .....           
```

#### Opcodes

```
  0: 0x009E [0x29] REQ_SET_WAIT(priority=0x08, entity_id=Gold Skull (ID: 17760298/0x010F002A), tag_num=0x01)
  1: 0x00A5 [0x1D] PRINT_EVENT_MESSAGE(message_id=3237*)
    → "After receiving the magical weapons from Heavens Tower in the Windurst Walls district, you are to return here to the Consulate of Bastok and present the weapons to us."
  2: 0x00A8 [0x23] WAIT_FOR_DIALOG_INTERACTION
  3: 0x00A9 [0x1D] PRINT_EVENT_MESSAGE(message_id=3238*)
    → "We will exchange these with a different weapon, which you will take to Giddeus as an offering instead."
  4: 0x00AC [0x23] WAIT_FOR_DIALOG_INTERACTION
  5: 0x00AD [0x29] REQ_SET_WAIT(priority=0x08, entity_id=Gold Skull (ID: 17760298/0x010F002A), tag_num=0x05)
  6: 0x00B4 [0x00] END_REQSTACK()
```

### Event 50

#### Metadata

| Field        | Value    |
|--------------|----------|
| Entrypoint   | 0x00B5   |
| Data Size    | 33 bytes |
| Instructions | 12       |

```
      00 01 02 03 04 05 06 07  08 09 0A 0B 0C 0D 0E 0F
      -- -- -- -- -- -- -- --  -- -- -- -- -- -- -- --
00B0:                1E F0 FF  FF 7F 6F 70 29 08 2A 00       .....op).*.
00C0: 0F 01 01 1D 0A 80 23 1D  0B 80 23 29 08 2A 00 0F  ......#...#).*..
00D0: 01 05 20 00 21 00                                 .. .!.          
```

#### Opcodes

```
  0: 0x00B5 [0x1E] EventEntity looks at LocalPlayer and starts talking
  1: 0x00BA [0x6F] WAIT_FRAME_DELAY: Yield until WaitTime reaches zero
  2: 0x00BB [0x70] WAIT_ENTITY_RENDER_FLAG: Wait while EventEntity->Render.Flags3 bit 2 is set (cancel turn if not)
  3: 0x00BC [0x29] REQ_SET_WAIT(priority=0x08, entity_id=Gold Skull (ID: 17760298/0x010F002A), tag_num=0x01)
  4: 0x00C3 [0x1D] PRINT_EVENT_MESSAGE(message_id=3243*)
    → "You are to proceed to Heavens Tower and obtain a shipment of magical weapons. Then you are to return back here to the Consulate of Bastok at once."
  5: 0x00C6 [0x23] WAIT_FOR_DIALOG_INTERACTION
  6: 0x00C7 [0x1D] PRINT_EVENT_MESSAGE(message_id=3244*)
    → "Once we have switched the weapons, you are to head to Giddeus and offer them to the Yagudo. Dismissed!"
  7: 0x00CA [0x23] WAIT_FOR_DIALOG_INTERACTION
  8: 0x00CB [0x29] REQ_SET_WAIT(priority=0x08, entity_id=Gold Skull (ID: 17760298/0x010F002A), tag_num=0x05)
  9: 0x00D2 [0x20] SET_CLI_EVENT_UC_FLAG: Unlock player control
 10: 0x00D4 [0x21] END_EVENT
 11: 0x00D5 [0x00] END_REQSTACK()
```

### Event 53

#### Metadata

| Field        | Value   |
|--------------|---------|
| Entrypoint   | 0x00D6  |
| Data Size    | 1 bytes |
| Instructions | 1       |

```
      00 01 02 03 04 05 06 07  08 09 0A 0B 0C 0D 0E 0F
      -- -- -- -- -- -- -- --  -- -- -- -- -- -- -- --
00D0:                   00                                    .         
```

#### Opcodes

```
  0: 0x00D6 [0x00] END_REQSTACK()
```

### Event 65535.9

#### Metadata

| Field        | Value    |
|--------------|----------|
| Entrypoint   | 0x00D7   |
| Data Size    | 10 bytes |
| Instructions | 2        |

```
      00 01 02 03 04 05 06 07  08 09 0A 0B 0C 0D 0E 0F
      -- -- -- -- -- -- -- --  -- -- -- -- -- -- -- --
00D0:                      37  0C 80 0D 80 0E 80 0F 80         7........
00E0: 00                                                .               
```

#### Opcodes

```
  0: 0x00D7 [0x37] UPDATE_EVENT_POSITION_AND_DIR: x=-76.968*, z=159.184*, y=-5.500*, direction=184.5°*
  1: 0x00E0 [0x00] END_REQSTACK()
```

### Event 65535.10

#### Metadata

| Field        | Value    |
|--------------|----------|
| Entrypoint   | 0x00E1   |
| Data Size    | 15 bytes |
| Instructions | 5        |

```
      00 01 02 03 04 05 06 07  08 09 0A 0B 0C 0D 0E 0F
      -- -- -- -- -- -- -- --  -- -- -- -- -- -- -- --
00E0:    32 10 80 1F 00 11 80  12 80 13 80 1F 01 6F 00   2............o.
```

#### Opcodes

```
  0: 0x00E1 [0x32] ExtData[1]->MainSpeed = 13* * 0.1
  1: 0x00E4 [0x1F] MOVE_ENTITY: EventEntity moves to X=-76.431*, Z=164.250*, Y=-5.746*
  2: 0x00EC [0x1F] MOVE_ENTITY: Update entity position (mode=1)
  3: 0x00EE [0x6F] WAIT_FRAME_DELAY: Yield until WaitTime reaches zero
  4: 0x00EF [0x00] END_REQSTACK()
```

### Event 65535.11

#### Metadata

| Field        | Value    |
|--------------|----------|
| Entrypoint   | 0x00F0   |
| Data Size    | 19 bytes |
| Instructions | 5        |

```
      00 01 02 03 04 05 06 07  08 09 0A 0B 0C 0D 0E 0F
      -- -- -- -- -- -- -- --  -- -- -- -- -- -- -- --
00F0: 29 08 2A 00 0F 01 01 1D  14 80 23 29 08 2A 00 0F  ).*.......#).*..
0100: 01 02 00                                          ...             
```

#### Opcodes

```
  0: 0x00F0 [0x29] REQ_SET_WAIT(priority=0x08, entity_id=Gold Skull (ID: 17760298/0x010F002A), tag_num=0x01)
  1: 0x00F7 [0x1D] PRINT_EVENT_MESSAGE(message_id=3248*)
    → "Wait."
  2: 0x00FA [0x23] WAIT_FOR_DIALOG_INTERACTION
  3: 0x00FB [0x29] REQ_SET_WAIT(priority=0x08, entity_id=Gold Skull (ID: 17760298/0x010F002A), tag_num=0x02)
  4: 0x0102 [0x00] END_REQSTACK()
```

### Event 65535.12

#### Metadata

| Field        | Value    |
|--------------|----------|
| Entrypoint   | 0x0103   |
| Data Size    | 19 bytes |
| Instructions | 5        |

```
      00 01 02 03 04 05 06 07  08 09 0A 0B 0C 0D 0E 0F
      -- -- -- -- -- -- -- --  -- -- -- -- -- -- -- --
0100:          29 08 2A 00 0F  01 03 1D 15 80 23 29 08     ).*.......#).
0110: 2A 00 0F 01 04 00                                 *.....          
```

#### Opcodes

```
  0: 0x0103 [0x29] REQ_SET_WAIT(priority=0x08, entity_id=Gold Skull (ID: 17760298/0x010F002A), tag_num=0x03)
  1: 0x010A [0x1D] PRINT_EVENT_MESSAGE(message_id=3249*)
    → "Take this sword to Giddeus instead. Good luck."
  2: 0x010D [0x23] WAIT_FOR_DIALOG_INTERACTION
  3: 0x010E [0x29] REQ_SET_WAIT(priority=0x08, entity_id=Gold Skull (ID: 17760298/0x010F002A), tag_num=0x04)
  4: 0x0115 [0x00] END_REQSTACK()
```

### Event 54

#### Metadata

| Field        | Value    |
|--------------|----------|
| Entrypoint   | 0x0116   |
| Data Size    | 15 bytes |
| Instructions | 8        |

```
      00 01 02 03 04 05 06 07  08 09 0A 0B 0C 0D 0E 0F
      -- -- -- -- -- -- -- --  -- -- -- -- -- -- -- --
0110:                   1E F0  FF FF 7F 6F 70 1D 16 80        .....op...
0120: 23 20 00 21 00                                    # .!.           
```

#### Opcodes

```
  0: 0x0116 [0x1E] EventEntity looks at LocalPlayer and starts talking
  1: 0x011B [0x6F] WAIT_FRAME_DELAY: Yield until WaitTime reaches zero
  2: 0x011C [0x70] WAIT_ENTITY_RENDER_FLAG: Wait while EventEntity->Render.Flags3 bit 2 is set (cancel turn if not)
  3: 0x011D [0x1D] PRINT_EVENT_MESSAGE(message_id=3250*)
    → "Take that sword to Giddeus. Good luck."
  4: 0x0120 [0x23] WAIT_FOR_DIALOG_INTERACTION
  5: 0x0121 [0x20] SET_CLI_EVENT_UC_FLAG: Unlock player control
  6: 0x0123 [0x21] END_EVENT
  7: 0x0124 [0x00] END_REQSTACK()
```

### Event 57

#### Metadata

| Field        | Value    |
|--------------|----------|
| Entrypoint   | 0x0125   |
| Data Size    | 33 bytes |
| Instructions | 12       |

```
      00 01 02 03 04 05 06 07  08 09 0A 0B 0C 0D 0E 0F
      -- -- -- -- -- -- -- --  -- -- -- -- -- -- -- --
0120:                1E F0 FF  FF 7F 6F 70 1D 17 80 23       .....op...#
0130: 29 08 2A 00 0F 01 01 1D  18 80 23 29 08 2A 00 0F  ).*.......#).*..
0140: 01 05 20 00 21 00                                 .. .!.          
```

#### Opcodes

```
  0: 0x0125 [0x1E] EventEntity looks at LocalPlayer and starts talking
  1: 0x012A [0x6F] WAIT_FRAME_DELAY: Yield until WaitTime reaches zero
  2: 0x012B [0x70] WAIT_ENTITY_RENDER_FLAG: Wait while EventEntity->Render.Flags3 bit 2 is set (cancel turn if not)
  3: 0x012C [0x1D] PRINT_EVENT_MESSAGE(message_id=3259*)
    → "I constantly pray. I pray for the future of Bastok."
  4: 0x012F [0x23] WAIT_FOR_DIALOG_INTERACTION
  5: 0x0130 [0x29] REQ_SET_WAIT(priority=0x08, entity_id=Gold Skull (ID: 17760298/0x010F002A), tag_num=0x01)
  6: 0x0137 [0x1D] PRINT_EVENT_MESSAGE(message_id=3260*)
    → "Today I'll also be praying for you to have a safe journey."
  7: 0x013A [0x23] WAIT_FOR_DIALOG_INTERACTION
  8: 0x013B [0x29] REQ_SET_WAIT(priority=0x08, entity_id=Gold Skull (ID: 17760298/0x010F002A), tag_num=0x05)
  9: 0x0142 [0x20] SET_CLI_EVENT_UC_FLAG: Unlock player control
 10: 0x0144 [0x21] END_EVENT
 11: 0x0145 [0x00] END_REQSTACK()
```

### Event 61

#### Metadata

| Field        | Value   |
|--------------|---------|
| Entrypoint   | 0x0146  |
| Data Size    | 1 bytes |
| Instructions | 1       |

```
      00 01 02 03 04 05 06 07  08 09 0A 0B 0C 0D 0E 0F
      -- -- -- -- -- -- -- --  -- -- -- -- -- -- -- --
0140:                   00                                    .         
```

#### Opcodes

```
  0: 0x0146 [0x00] END_REQSTACK()
```

### Event 65535.13

#### Metadata

| Field        | Value    |
|--------------|----------|
| Entrypoint   | 0x0147   |
| Data Size    | 19 bytes |
| Instructions | 5        |

```
      00 01 02 03 04 05 06 07  08 09 0A 0B 0C 0D 0E 0F
      -- -- -- -- -- -- -- --  -- -- -- -- -- -- -- --
0140:                      29  08 2A 00 0F 01 01 1D 19         ).*......
0150: 80 23 29 08 2A 00 0F 01  05 00                    .#).*.....      
```

#### Opcodes

```
  0: 0x0147 [0x29] REQ_SET_WAIT(priority=0x08, entity_id=Gold Skull (ID: 17760298/0x010F002A), tag_num=0x01)
  1: 0x014E [0x1D] PRINT_EVENT_MESSAGE(message_id=3270*)
    → "Allow me to explain..."
  2: 0x0151 [0x23] WAIT_FOR_DIALOG_INTERACTION
  3: 0x0152 [0x29] REQ_SET_WAIT(priority=0x08, entity_id=Gold Skull (ID: 17760298/0x010F002A), tag_num=0x05)
  4: 0x0159 [0x00] END_REQSTACK()
```

### Event 65535.14

#### Metadata

| Field        | Value    |
|--------------|----------|
| Entrypoint   | 0x015A   |
| Data Size    | 27 bytes |
| Instructions | 9        |

```
      00 01 02 03 04 05 06 07  08 09 0A 0B 0C 0D 0E 0F
      -- -- -- -- -- -- -- --  -- -- -- -- -- -- -- --
0150:                                29 08 2A 00 0F 01            ).*...
0160: 01 1D 1A 80 23 1D 1B 80  23 1D 1C 80 23 29 08 2A  ....#...#...#).*
0170: 00 0F 01 05 00                                    .....           
```

#### Opcodes

```
  0: 0x015A [0x29] REQ_SET_WAIT(priority=0x08, entity_id=Gold Skull (ID: 17760298/0x010F002A), tag_num=0x01)
  1: 0x0161 [0x1D] PRINT_EVENT_MESSAGE(message_id=3271*)
    → "The mission from our comrades in Windurst entails the extermination of a giant monster that appeared in the depths of Giddeus, the borderland to the theocracy of the Yagudo beastmen."
  2: 0x0164 [0x23] WAIT_FOR_DIALOG_INTERACTION
  3: 0x0165 [0x1D] PRINT_EVENT_MESSAGE(message_id=3272*)
    → "You are to receive a key from Heavens Tower in the Windurst Walls district, and head to the innermost part of Giddeus."
  4: 0x0168 [0x23] WAIT_FOR_DIALOG_INTERACTION
  5: 0x0169 [0x1D] PRINT_EVENT_MESSAGE(message_id=3273*)
    → "Your orders are to then defeat the heinous beast that lurks there."
  6: 0x016C [0x23] WAIT_FOR_DIALOG_INTERACTION
  7: 0x016D [0x29] REQ_SET_WAIT(priority=0x08, entity_id=Gold Skull (ID: 17760298/0x010F002A), tag_num=0x05)
  8: 0x0174 [0x00] END_REQSTACK()
```

### Event 62

#### Metadata

| Field        | Value    |
|--------------|----------|
| Entrypoint   | 0x0175   |
| Data Size    | 29 bytes |
| Instructions | 10       |

```
      00 01 02 03 04 05 06 07  08 09 0A 0B 0C 0D 0E 0F
      -- -- -- -- -- -- -- --  -- -- -- -- -- -- -- --
0170:                1E F0 FF  FF 7F 6F 70 29 08 2A 00       .....op).*.
0180: 0F 01 01 1D 1D 80 23 29  08 2A 00 0F 01 05 20 00  ......#).*.... .
0190: 21 00                                             !.              
```

#### Opcodes

```
  0: 0x0175 [0x1E] EventEntity looks at LocalPlayer and starts talking
  1: 0x017A [0x6F] WAIT_FRAME_DELAY: Yield until WaitTime reaches zero
  2: 0x017B [0x70] WAIT_ENTITY_RENDER_FLAG: Wait while EventEntity->Render.Flags3 bit 2 is set (cancel turn if not)
  3: 0x017C [0x29] REQ_SET_WAIT(priority=0x08, entity_id=Gold Skull (ID: 17760298/0x010F002A), tag_num=0x01)
  4: 0x0183 [0x1D] PRINT_EVENT_MESSAGE(message_id=3279*)
    → "You are to receive a key from Heavens Tower, here in Windurst, and to defeat the great monster that has appeared in the depths of Giddeus. That's all your country requires from you."
  5: 0x0186 [0x23] WAIT_FOR_DIALOG_INTERACTION
  6: 0x0187 [0x29] REQ_SET_WAIT(priority=0x08, entity_id=Gold Skull (ID: 17760298/0x010F002A), tag_num=0x05)
  7: 0x018E [0x20] SET_CLI_EVENT_UC_FLAG: Unlock player control
  8: 0x0190 [0x21] END_EVENT
  9: 0x0191 [0x00] END_REQSTACK()
```

### Event 66

#### Metadata

| Field        | Value   |
|--------------|---------|
| Entrypoint   | 0x0192  |
| Data Size    | 1 bytes |
| Instructions | 1       |

```
      00 01 02 03 04 05 06 07  08 09 0A 0B 0C 0D 0E 0F
      -- -- -- -- -- -- -- --  -- -- -- -- -- -- -- --
0190:       00                                            .             
```

#### Opcodes

```
  0: 0x0192 [0x00] END_REQSTACK()
```

### Event 68

#### Metadata

| Field        | Value    |
|--------------|----------|
| Entrypoint   | 0x0193   |
| Data Size    | 33 bytes |
| Instructions | 12       |

```
      00 01 02 03 04 05 06 07  08 09 0A 0B 0C 0D 0E 0F
      -- -- -- -- -- -- -- --  -- -- -- -- -- -- -- --
0190:          1E F0 FF FF 7F  6F 70 29 08 2A 00 0F 01     .....op).*...
01A0: 01 1D 1E 80 23 1D 1F 80  23 29 08 2A 00 0F 01 05  ....#...#).*....
01B0: 20 00 21 00                                        .!.            
```

#### Opcodes

```
  0: 0x0193 [0x1E] EventEntity looks at LocalPlayer and starts talking
  1: 0x0198 [0x6F] WAIT_FRAME_DELAY: Yield until WaitTime reaches zero
  2: 0x0199 [0x70] WAIT_ENTITY_RENDER_FLAG: Wait while EventEntity->Render.Flags3 bit 2 is set (cancel turn if not)
  3: 0x019A [0x29] REQ_SET_WAIT(priority=0x08, entity_id=Gold Skull (ID: 17760298/0x010F002A), tag_num=0x01)
  4: 0x01A1 [0x1D] PRINT_EVENT_MESSAGE(message_id=3291*)
    → "I constantly pray. I pray for the future of Bastok."
  5: 0x01A4 [0x23] WAIT_FOR_DIALOG_INTERACTION
  6: 0x01A5 [0x1D] PRINT_EVENT_MESSAGE(message_id=3292*)
    → "And I polish my fangs in case the days of war are near again..."
  7: 0x01A8 [0x23] WAIT_FOR_DIALOG_INTERACTION
  8: 0x01A9 [0x29] REQ_SET_WAIT(priority=0x08, entity_id=Gold Skull (ID: 17760298/0x010F002A), tag_num=0x05)
  9: 0x01B0 [0x20] SET_CLI_EVENT_UC_FLAG: Unlock player control
 10: 0x01B2 [0x21] END_EVENT
 11: 0x01B3 [0x00] END_REQSTACK()
```
