# 17760302 - Thubu Parohren

## Common Data

| Field            | Value                   |
|------------------|-------------------------|
| Zone             | Port Windurst (ID: 240) |
| Block Size       | 1308 bytes              |
| Total Events     | 8                       |
| References Count | 57                      |

## List of Events

| Event ID                 | Entrypoint   |   Size |   Instructions |
|--------------------------|--------------|--------|----------------|
| [65535](#event-65535)    | 0x0000       |      1 |              1 |
| [10009](#event-10009)    | 0x0001       |    782 |            217 |
| [10010](#event-10010)    | 0x030F       |    143 |             36 |
| [595](#event-595)        | 0x039E       |      1 |              1 |
| [65535.1](#event-655351) | 0x039F       |     10 |              2 |
| [65535.2](#event-655352) | 0x03A9       |     15 |              5 |
| [597](#event-597)        | 0x03B8       |      1 |              1 |
| [65535.3](#event-655353) | 0x03B9       |     76 |             14 |

## DAT References (imed_data)

|   Index | Hex Value   |   Dec Value |
|---------|-------------|-------------|
|       0 | 0x0009      |           9 |
|       1 | 0x000A      |          10 |
|       2 | 0x0000      |           0 |
|       3 | 0x006E      |         110 |
|       4 | 0x0002      |           2 |
|       5 | 0x2DFF      |       11775 |
|       6 | 0x0064      |         100 |
|       7 | 0x0001      |           1 |
|       8 | 0x16B9      |        5817 |
|       9 | 0x4262      |       16994 |
|      10 | 0x2E47      |       11847 |
|      11 | 0x2E48      |       11848 |
|      12 | 0x07BB      |        1979 |
|      13 | 0x2E45      |       11845 |
|      14 | 0x2E46      |       11846 |
|      15 | 0x0003      |           3 |
|      16 | 0x2E44      |       11844 |
|      17 | 0x2E42      |       11842 |
|      18 | 0x2E3F      |       11839 |
|      19 | 0x2E40      |       11840 |
|      20 | 0x2E41      |       11841 |
|      21 | 0x2E43      |       11843 |
|      22 | 0x000B      |          11 |
|      23 | 0x000C      |          12 |
|      24 | 0x000D      |          13 |
|      25 | 0x0004      |           4 |
|      26 | 0x2E01      |       11777 |
|      27 | 0x2E02      |       11778 |
|      28 | 0x2E00      |       11776 |
|      29 | 0x2DF8      |       11768 |
|      30 | 0x2DBE      |       11710 |
|      31 | 0x2DFA      |       11770 |
|      32 | 0x2DFB      |       11771 |
|      33 | 0x2DFC      |       11772 |
|      34 | 0x2DFD      |       11773 |
|      35 | 0x2DFE      |       11774 |
|      36 | 0x2DF9      |       11769 |
|      37 | 0x2E03      |       11779 |
|      38 | 0x0006      |           6 |
|      39 | 0x0005      |           5 |
|      40 | 0x2E04      |       11780 |
|      41 | 0x0007      |           7 |
|      42 | 0x2E05      |       11781 |
|      43 | 0x0008      |           8 |
|      44 | 0x2E06      |       11782 |
|      45 | 0x2E07      |       11783 |
|      46 | 0x2E49      |       11849 |
|      47 | 0x00C9      |         201 |
|      48 | 0x2DC1      |       11713 |
|      49 | 0xFFFD3380  |  4294783872 |
|      50 | 0x10A1D     |       68125 |
|      51 | 0xFFFFF4ED  |  4294964461 |
|      52 | 0x0BBE      |        3006 |
|      53 | 0xFFFD366A  |  4294784618 |
|      54 | 0x11708     |       71432 |
|      55 | 0x0C7B      |        3195 |
|      56 | 0x0032      |          50 |

## String References

- **11710**: Join the [Fishermen's/Carpenters'/Blacksmiths'/Goldsmiths'/Weavers'/Tanners'/Boneworkers'/Alchemists'/Culinarians'] Guild? [Sign up./That's not why you're here.]
- **11713**: You are now recognized as [an amateur/a recruit/an initiate/a novice/an apprentice/a journeyman/a craftsman/an artisan/an adept/a veteran/an expert/an authority/a luminary/a master/a grandmaster/a legend] of the [Fishermen's/Carpenters'/Blacksmiths'/Goldsmiths'/Weavers'/Tanners'/Boneworkers'/Alchemists'/Culinarians'] Guild.
- **11768**: Who do ya think ya arrre, comin' up here in our space? This is the Fishermen's Guild, so if you're not gonna buy any fish, then get the hell outta herrre.
- **11769**: Didn't I say get the hell outta herrre? Unless you wanna be sliced up and used as bait.
- **11770**: Hah hah! Adventurer, arrre we? I woulda been one too, if I didn't have to take overrr the guild after me pappy died.
- **11771**: We here ain't like those other fancy guilds. We don't use crystals and we don't make anything, but we support those who worrrk hard makin' their livin' by catchin' fish!
- **11772**: Sellin' rods n' bait, passin' on info about the hottest fishin' spots--that's how we put dinnerrr on the table!
- **11773**: Oh yeah, and if ya brrring in your catch, we'll even measurrre it n' weigh it for ya.
- **11774**: Ya need any more info, ya just ask me guild mates!
- **11775**: I once heard from me pappy that the worrrld was over eighty percent ocean. Ya know what that means? That means there's a helluva lotta fish to catch out therrre!
- **11776**: Ya brrring in another big catch? If ya did, show it to me mates. We're all waitin' for another recorrrd-breakerrr!
- **11777**: Are ya ready to try your luck at somethin' a little biggerrr? Go out and catch me $0.
- **11778**: Brrring one back, and I'll give ya a new fisherman title. How 'bout that?
- **11779**: ... Mmm, looks mighty delicious! I think you're rrready for the title of [amateur/recruit/initiate/novice/apprentice]. If ya got the rocks, ya might wanna try ferrrry fishing.
- **11780**: ... Mmm mmm! This one looks even more delicious than the last! How does the title of [journeyman/craftsman] sound? Maybe it's time ya test your skills on somethin' a little biggerrr...
- **11781**: ... Damn, that's one big fish! You're worthy of the title of artisan. All the other fisherrrmen are startin' to talk about ya like ya was some legend!
- **11782**: Unbelievable! This is the biggest f... Well, all I have t' say is, ya catch the legends that otherrr people only talk about!
- **11783**: Ya can't be serious!? How in blazes did ya even get this thing out of the waterrr? I'm awarding ya the status of veteran, but to tell the truth I think you've got a few things to teach me about fishin'!
- **11839**: As [a veteran/an expert/an authority/a luminary/a master] among anglers, I rrreckon you're on the lookout for a new challenge. Well, today's your lucky day, 'cause I've got a fish story that should be rrright up your alley.
- **11840**: Interested? [I sure am!/Not really...]
- **11841**: I knew it! Nothin' gets a fisherman's blood pumping like tales of legendary leviathans just waitin' to be hooked on your lurrre. So let's get rrright to business: head over to Fennella and get yourself a copy of $6.
- **11842**: You'll have to bait her with some guild points in exchange, but that's nothing you can't reel in, rrright?
- **11843**: So be it, but if you have a change of hearrrt, you'll want to come back quickly. There may be other fish in the sea, but with all the ardent anglers in the realm, they won't last long!
- **11844**: Let's get rrright to business: head over to Fennella and get yourself a copy of $6.
- **11845**: Read over $6, did you? So here's the deal: succeed in reeling in one of the rare specimens in its pages, and I'll give you a well-deserved prrromotion.
- **11846**: Oh, let's see... $2 should do the trick. We haven't got much to go on, but according to $6...
- **11847**: Ah yes! It claims that the $2 can be found in the Bastorrre Sea and prefers to feast on $3.
- **11848**: That's all we've got, but I'm sure you've caught more with less. May the seas smile upon you!
- **11849**: What the...! Why, this beast is big enough to swallow the both of us whole! I have no idea how you did it, but what I do know is that you're more than worthy of being called an expert. Your catch will be the talk of every dock and pier in the rrrealm before long!

## Events

### Event 65535

#### Metadata

| Field        | Value   |
|--------------|---------|
| Entrypoint   | 0x0000  |
| Data Size    | 1 bytes |
| Instructions | 1       |

```
      00 01 02 03 04 05 06 07  08 09 0A 0B 0C 0D 0E 0F
      -- -- -- -- -- -- -- --  -- -- -- -- -- -- -- --
0000: 00                                                .               
```

#### Opcodes

```
  0: 0x0000 [0x00] END_REQSTACK()
```

### Event 10009

#### Metadata

| Field        | Value     |
|--------------|-----------|
| Entrypoint   | 0x0001    |
| Data Size    | 782 bytes |
| Instructions | 217       |

```
      00 01 02 03 04 05 06 07  08 09 0A 0B 0C 0D 0E 0F
      -- -- -- -- -- -- -- --  -- -- -- -- -- -- -- --
0000:    1E F0 FF FF 7F 41 00  80 00 80 06 10 00 00 41   .....A........A
0010: 01 80 01 80 06 10 01 00  41 02 80 02 80 06 10 02  ........A.......
0020: 00 3E 05 10 02 80 BD 02  02 04 10 03 80 03 B0 02  .>..............
0030: 07 03 10 04 80 02 03 10  04 10 03 4A 00 1A C3 03  ...........J....
0040: 1D 05 80 23 1A D5 03 01  AD 02 02 04 10 06 80 00  ...#............
0050: 28 01 02 00 00 07 80 00  D4 00 02 02 00 07 80 00  (...............
0060: BE 00 02 01 00 07 80 00  85 00 1A C3 03 03 04 10  ................
0070: 08 80 03 05 10 09 80 1D  0A 80 23 1D 0B 80 23 1A  ..........#...#.
0080: D5 03 01 BB 00 42 1A C3  03 03 03 10 0C 80 1D 0D  .....B..........
0090: 80 23 03 03 10 0C 80 03  04 10 08 80 1D 0E 80 23  .#.............#
00A0: 03 04 10 08 80 03 05 10  09 80 1D 0A 80 23 1D 0B  .............#..
00B0: 80 23 1A D5 03 03 01 10  0F 80 2E 01 D1 00 1A C3  .#..............
00C0: 03 03 03 10 0C 80 1D 10  80 23 1D 11 80 23 1A D5  .........#...#..
00D0: 03 01 25 01 03 02 10 02  80 1A C3 03 1D 12 80 23  ..%............#
00E0: 1A D5 03 24 13 80 02 80  02 80 25 02 00 10 02 80  ...$......%.....
00F0: 00 10 01 42 03 03 10 0C  80 1A C3 03 1D 14 80 23  ...B...........#
0100: 1D 11 80 23 1A D5 03 03  01 10 04 80 2E 01 25 01  ...#..........%.
0110: 02 00 10 07 80 00 25 01  1A C3 03 1D 15 80 23 1A  ......%.......#.
0120: D5 03 01 25 01 01 AD 02  02 04 10 06 80 02 9F 02  ...%............
0130: 02 00 00 07 80 00 B8 01  02 02 00 07 80 00 B5 01  ................
0140: 02 01 00 07 80 00 B2 01  02 02 10 07 80 80 67 01  ..............g.
0150: 03 04 10 16 80 03 05 10  16 80 1A C3 03 1D 0A 80  ................
0160: 23 1A D5 03 01 A5 01 02  02 10 04 80 80 86 01 03  #...............
0170: 04 10 17 80 03 05 10 17  80 1A C3 03 1D 0A 80 23  ...............#
0180: 1A D5 03 01 A5 01 02 02  10 0F 80 80 A5 01 03 04  ................
0190: 10 18 80 03 05 10 18 80  1A C3 03 1D 0A 80 23 1A  ..............#.
01A0: D5 03 01 A5 01 1A C3 03  1D 0B 80 23 1A D5 03 01  ...........#....
01B0: B2 01 01 B5 01 01 9C 02  02 02 00 07 80 00 9C 02  ................
01C0: 03 02 10 04 10 08 02 10  06 80 15 02 10 01 80 1A  ................
01D0: C3 03 1D 12 80 23 1A D5  03 24 13 80 02 80 02 80  .....#...$......
01E0: 25 02 00 10 02 80 00 84  02 42 02 02 10 07 80 80  %........B......
01F0: 17 02 1A C3 03 03 03 10  0C 80 03 04 10 16 80 1D  ................
0200: 0E 80 23 03 04 10 16 80  03 05 10 16 80 1D 0A 80  ..#.............
0210: 23 1A D5 03 01 71 02 02  02 10 04 80 80 44 02 1A  #....q.......D..
0220: C3 03 03 03 10 0C 80 03  04 10 17 80 1D 0E 80 23  ...............#
0230: 03 04 10 17 80 03 05 10  17 80 1D 0A 80 23 1A D5  .............#..
0240: 03 01 71 02 02 02 10 0F  80 80 71 02 1A C3 03 03  ..q.......q.....
0250: 03 10 0C 80 03 04 10 18  80 1D 0E 80 23 03 04 10  ............#...
0260: 18 80 03 05 10 18 80 1D  0A 80 23 1A D5 03 01 71  ..........#....q
0270: 02 1A C3 03 1D 0B 80 23  1A D5 03 03 01 10 19 80  .......#........
0280: 2E 01 99 02 02 00 10 07  80 00 99 02 1A C3 03 1D  ................
0290: 15 80 23 1A D5 03 01 99  02 01 9C 02 01 AD 02 1A  ..#.............
02A0: C3 03 1D 1A 80 23 1D 1B  80 23 1A D5 03 01 BA 02  .....#...#......
02B0: 1A C3 03 1D 1C 80 23 1A  D5 03 01 0D 03 03 08 10  ......#.........
02C0: 02 80 1D 1D 80 23 24 1E  80 02 80 02 80 25 02 00  .....#$......%..
02D0: 10 02 80 00 F8 02 1A C3  03 1D 1F 80 23 1D 20 80  ............#. .
02E0: 23 1D 21 80 23 1D 22 80  23 1A D5 03 1D 23 80 23  #.!.#.".#....#.#
02F0: 03 01 10 07 80 01 0D 03  02 00 10 07 80 00 0D 03  ................
0300: 1A C3 03 1D 24 80 23 1A  D5 03 01 0D 03 21 00     ....$.#......!. 
```

#### Opcodes

```
  0: 0x0001 [0x1E] EventEntity looks at LocalPlayer and starts talking
  1: 0x0006 [0x41] ExtData[1]->WorkLocal[0] = Work_Zone[6] (bits 9*-9*)
  2: 0x000F [0x41] ExtData[1]->WorkLocal[1] = Work_Zone[6] (bits 10*-10*)
  3: 0x0018 [0x41] ExtData[1]->WorkLocal[2] = Work_Zone[6] (bits 0*-0*)
  4: 0x0021 [0x3E] IF !(Work_Zone[5] bit 0*) GOTO 0x02BD
  5: 0x0028 [0x02] IF !(Work_Zone[4] >= 110*) GOTO 0x02B0
  6: 0x0030 [0x07] Work_Zone[3] += 2*
  7: 0x0035 [0x02] IF !(Work_Zone[3] >= Work_Zone[4]) GOTO 0x004A
  8: 0x003D [0x1A] CALL_SUBROUTINE(address=0x03C3)
  9: 0x0040 [0x1D] PRINT_EVENT_MESSAGE(message_id=11775*)
    → "I once heard from me pappy that the worrrld was over eighty percent ocean. Ya know what that means? That means there's a helluva lotta fish to catch out therrre!"
 10: 0x0043 [0x23] WAIT_FOR_DIALOG_INTERACTION
 11: 0x0044 [0x1A] CALL_SUBROUTINE(address=0x03D5)
 12: 0x0047 [0x01] GOTO 0x02AD
 13: 0x004A [0x02] IF !(Work_Zone[4] == 100*) GOTO 0x0128
 14: 0x0052 [0x02] IF !(ExtData[1]->WorkLocal[0] == 1*) GOTO 0x00D4
 15: 0x005A [0x02] IF !(ExtData[1]->WorkLocal[2] == 1*) GOTO 0x00BE
 16: 0x0062 [0x02] IF !(ExtData[1]->WorkLocal[1] == 1*) GOTO 0x0085
 17: 0x006A [0x1A] CALL_SUBROUTINE(address=0x03C3)
 18: 0x006D [0x03] Work_Zone[4] = 5817*
 19: 0x0072 [0x03] Work_Zone[5] = 16994*
 20: 0x0077 [0x1D] PRINT_EVENT_MESSAGE(message_id=11847*)
    → "Ah yes! It claims that the $2 can be found in the Bastorrre Sea and prefers to feast on $3."
 21: 0x007A [0x23] WAIT_FOR_DIALOG_INTERACTION
 22: 0x007B [0x1D] PRINT_EVENT_MESSAGE(message_id=11848*)
    → "That's all we've got, but I'm sure you've caught more with less. May the seas smile upon you!"
 23: 0x007E [0x23] WAIT_FOR_DIALOG_INTERACTION
 24: 0x007F [0x1A] CALL_SUBROUTINE(address=0x03D5)
 25: 0x0082 [0x01] GOTO 0x00BB
 26: 0x0085 [0x42] SET_CLI_EVENT_CANCEL_DATA()
 27: 0x0086 [0x1A] CALL_SUBROUTINE(address=0x03C3)
 28: 0x0089 [0x03] Work_Zone[3] = 1979*
 29: 0x008E [0x1D] PRINT_EVENT_MESSAGE(message_id=11845*)
    → "Read over $6, did you? So here's the deal: succeed in reeling in one of the rare specimens in its pages, and I'll give you a well-deserved prrromotion."
 30: 0x0091 [0x23] WAIT_FOR_DIALOG_INTERACTION
 31: 0x0092 [0x03] Work_Zone[3] = 1979*
 32: 0x0097 [0x03] Work_Zone[4] = 5817*
 33: 0x009C [0x1D] PRINT_EVENT_MESSAGE(message_id=11846*)
    → "Oh, let's see... $2 should do the trick. We haven't got much to go on, but according to $6..."
 34: 0x009F [0x23] WAIT_FOR_DIALOG_INTERACTION
 35: 0x00A0 [0x03] Work_Zone[4] = 5817*
 36: 0x00A5 [0x03] Work_Zone[5] = 16994*
 37: 0x00AA [0x1D] PRINT_EVENT_MESSAGE(message_id=11847*)
    → "Ah yes! It claims that the $2 can be found in the Bastorrre Sea and prefers to feast on $3."
 38: 0x00AD [0x23] WAIT_FOR_DIALOG_INTERACTION
 39: 0x00AE [0x1D] PRINT_EVENT_MESSAGE(message_id=11848*)
    → "That's all we've got, but I'm sure you've caught more with less. May the seas smile upon you!"
 40: 0x00B1 [0x23] WAIT_FOR_DIALOG_INTERACTION
 41: 0x00B2 [0x1A] CALL_SUBROUTINE(address=0x03D5)
 42: 0x00B5 [0x03] Work_Zone[1] = 3*
 43: 0x00BA [0x2E] SET_CLI_EVENT_CANCEL_FLAGS()

SUBROUTINE_00BB:
 44: 0x00BB [0x01] GOTO 0x00D1
 45: 0x00BE [0x1A] CALL_SUBROUTINE(address=0x03C3)
 46: 0x00C1 [0x03] Work_Zone[3] = 1979*
 47: 0x00C6 [0x1D] PRINT_EVENT_MESSAGE(message_id=11844*)
    → "Let's get rrright to business: head over to Fennella and get yourself a copy of $6."
 48: 0x00C9 [0x23] WAIT_FOR_DIALOG_INTERACTION
 49: 0x00CA [0x1D] PRINT_EVENT_MESSAGE(message_id=11842*)
    → "You'll have to bait her with some guild points in exchange, but that's nothing you can't reel in, rrright?"
 50: 0x00CD [0x23] WAIT_FOR_DIALOG_INTERACTION
 51: 0x00CE [0x1A] CALL_SUBROUTINE(address=0x03D5)

SUBROUTINE_00D1:
 52: 0x00D1 [0x01] GOTO 0x0125
 53: 0x00D4 [0x03] Work_Zone[2] = 0*
 54: 0x00D9 [0x1A] CALL_SUBROUTINE(address=0x03C3)
 55: 0x00DC [0x1D] PRINT_EVENT_MESSAGE(message_id=11839*)
    → "As [a veteran/an expert/an authority/a luminary/a master] among anglers, I rrreckon you're on the lookout for a new challenge. Well, today's your lucky day, 'cause I've got a fish story that should be rrright up your alley."
 56: 0x00DF [0x23] WAIT_FOR_DIALOG_INTERACTION
 57: 0x00E0 [0x1A] CALL_SUBROUTINE(address=0x03D5)
 58: 0x00E3 [0x24] CREATE_DIALOG(message_id=11840*, default_option=0*, option_flags=0*)
    → "Interested? [I sure am!/Not really...]"
 59: 0x00EA [0x25] WAIT_DIALOG_SELECT()
 60: 0x00EB [0x02] IF !(Work_Zone[0] == 0*) GOTO 0x0110
 61: 0x00F3 [0x42] SET_CLI_EVENT_CANCEL_DATA()
 62: 0x00F4 [0x03] Work_Zone[3] = 1979*
 63: 0x00F9 [0x1A] CALL_SUBROUTINE(address=0x03C3)
 64: 0x00FC [0x1D] PRINT_EVENT_MESSAGE(message_id=11841*)
    → "I knew it! Nothin' gets a fisherman's blood pumping like tales of legendary leviathans just waitin' to be hooked on your lurrre. So let's get rrright to business: head over to Fennella and get yourself a copy of $6."
 65: 0x00FF [0x23] WAIT_FOR_DIALOG_INTERACTION
 66: 0x0100 [0x1D] PRINT_EVENT_MESSAGE(message_id=11842*)
    → "You'll have to bait her with some guild points in exchange, but that's nothing you can't reel in, rrright?"
 67: 0x0103 [0x23] WAIT_FOR_DIALOG_INTERACTION
 68: 0x0104 [0x1A] CALL_SUBROUTINE(address=0x03D5)
 69: 0x0107 [0x03] Work_Zone[1] = 2*
 70: 0x010C [0x2E] SET_CLI_EVENT_CANCEL_FLAGS()
 71: 0x010D [0x01] GOTO 0x0125
 72: 0x0110 [0x02] IF !(Work_Zone[0] == 1*) GOTO 0x0125
 73: 0x0118 [0x1A] CALL_SUBROUTINE(address=0x03C3)
 74: 0x011B [0x1D] PRINT_EVENT_MESSAGE(message_id=11843*)
    → "So be it, but if you have a change of hearrrt, you'll want to come back quickly. There may be other fish in the sea, but with all the ardent anglers in the realm, they won't last long!"
 75: 0x011E [0x23] WAIT_FOR_DIALOG_INTERACTION
 76: 0x011F [0x1A] CALL_SUBROUTINE(address=0x03D5)
 77: 0x0122 [0x01] GOTO 0x0125

SUBROUTINE_0125:
 78: 0x0125 [0x01] GOTO 0x02AD
 79: 0x0128 [0x02] IF !(Work_Zone[4] <= 100*) GOTO 0x029F
 80: 0x0130 [0x02] IF !(ExtData[1]->WorkLocal[0] == 1*) GOTO 0x01B8
 81: 0x0138 [0x02] IF !(ExtData[1]->WorkLocal[2] == 1*) GOTO 0x01B5
 82: 0x0140 [0x02] IF !(ExtData[1]->WorkLocal[1] == 1*) GOTO 0x01B2
 83: 0x0148 [0x02] IF !(Work_Zone[2] == 1*) GOTO 0x0167
 84: 0x0150 [0x03] Work_Zone[4] = 11*
 85: 0x0155 [0x03] Work_Zone[5] = 11*
 86: 0x015A [0x1A] CALL_SUBROUTINE(address=0x03C3)
 87: 0x015D [0x1D] PRINT_EVENT_MESSAGE(message_id=11847*)
    → "Ah yes! It claims that the $2 can be found in the Bastorrre Sea and prefers to feast on $3."
 88: 0x0160 [0x23] WAIT_FOR_DIALOG_INTERACTION
 89: 0x0161 [0x1A] CALL_SUBROUTINE(address=0x03D5)
 90: 0x0164 [0x01] GOTO 0x01A5
 91: 0x0167 [0x02] IF !(Work_Zone[2] == 2*) GOTO 0x0186
 92: 0x016F [0x03] Work_Zone[4] = 12*
 93: 0x0174 [0x03] Work_Zone[5] = 12*
 94: 0x0179 [0x1A] CALL_SUBROUTINE(address=0x03C3)
 95: 0x017C [0x1D] PRINT_EVENT_MESSAGE(message_id=11847*)
    → "Ah yes! It claims that the $2 can be found in the Bastorrre Sea and prefers to feast on $3."
 96: 0x017F [0x23] WAIT_FOR_DIALOG_INTERACTION
 97: 0x0180 [0x1A] CALL_SUBROUTINE(address=0x03D5)
 98: 0x0183 [0x01] GOTO 0x01A5
 99: 0x0186 [0x02] IF !(Work_Zone[2] == 3*) GOTO 0x01A5
100: 0x018E [0x03] Work_Zone[4] = 13*
101: 0x0193 [0x03] Work_Zone[5] = 13*
102: 0x0198 [0x1A] CALL_SUBROUTINE(address=0x03C3)
103: 0x019B [0x1D] PRINT_EVENT_MESSAGE(message_id=11847*)
    → "Ah yes! It claims that the $2 can be found in the Bastorrre Sea and prefers to feast on $3."
104: 0x019E [0x23] WAIT_FOR_DIALOG_INTERACTION
105: 0x019F [0x1A] CALL_SUBROUTINE(address=0x03D5)
106: 0x01A2 [0x01] GOTO 0x01A5

SUBROUTINE_01A5:
107: 0x01A5 [0x1A] CALL_SUBROUTINE(address=0x03C3)
108: 0x01A8 [0x1D] PRINT_EVENT_MESSAGE(message_id=11848*)
    → "That's all we've got, but I'm sure you've caught more with less. May the seas smile upon you!"
109: 0x01AB [0x23] WAIT_FOR_DIALOG_INTERACTION
110: 0x01AC [0x1A] CALL_SUBROUTINE(address=0x03D5)
111: 0x01AF [0x01] GOTO 0x01B2

SUBROUTINE_01B2:
112: 0x01B2 [0x01] GOTO 0x01B5

SUBROUTINE_01B5:
113: 0x01B5 [0x01] GOTO 0x029C
114: 0x01B8 [0x02] IF !(ExtData[1]->WorkLocal[2] == 1*) GOTO 0x029C
115: 0x01C0 [0x03] Work_Zone[2] = Work_Zone[4]
116: 0x01C5 [0x08] Work_Zone[2] -= 100*
117: 0x01CA [0x15] Work_Zone[2] /= 10*
118: 0x01CF [0x1A] CALL_SUBROUTINE(address=0x03C3)
119: 0x01D2 [0x1D] PRINT_EVENT_MESSAGE(message_id=11839*)
    → "As [a veteran/an expert/an authority/a luminary/a master] among anglers, I rrreckon you're on the lookout for a new challenge. Well, today's your lucky day, 'cause I've got a fish story that should be rrright up your alley."
120: 0x01D5 [0x23] WAIT_FOR_DIALOG_INTERACTION
121: 0x01D6 [0x1A] CALL_SUBROUTINE(address=0x03D5)
122: 0x01D9 [0x24] CREATE_DIALOG(message_id=11840*, default_option=0*, option_flags=0*)
    → "Interested? [I sure am!/Not really...]"
123: 0x01E0 [0x25] WAIT_DIALOG_SELECT()
124: 0x01E1 [0x02] IF !(Work_Zone[0] == 0*) GOTO 0x0284
125: 0x01E9 [0x42] SET_CLI_EVENT_CANCEL_DATA()
126: 0x01EA [0x02] IF !(Work_Zone[2] == 1*) GOTO 0x0217
127: 0x01F2 [0x1A] CALL_SUBROUTINE(address=0x03C3)
128: 0x01F5 [0x03] Work_Zone[3] = 1979*
129: 0x01FA [0x03] Work_Zone[4] = 11*
130: 0x01FF [0x1D] PRINT_EVENT_MESSAGE(message_id=11846*)
    → "Oh, let's see... $2 should do the trick. We haven't got much to go on, but according to $6..."
131: 0x0202 [0x23] WAIT_FOR_DIALOG_INTERACTION
132: 0x0203 [0x03] Work_Zone[4] = 11*
133: 0x0208 [0x03] Work_Zone[5] = 11*
134: 0x020D [0x1D] PRINT_EVENT_MESSAGE(message_id=11847*)
    → "Ah yes! It claims that the $2 can be found in the Bastorrre Sea and prefers to feast on $3."
135: 0x0210 [0x23] WAIT_FOR_DIALOG_INTERACTION
136: 0x0211 [0x1A] CALL_SUBROUTINE(address=0x03D5)
137: 0x0214 [0x01] GOTO 0x0271
138: 0x0217 [0x02] IF !(Work_Zone[2] == 2*) GOTO 0x0244
139: 0x021F [0x1A] CALL_SUBROUTINE(address=0x03C3)
140: 0x0222 [0x03] Work_Zone[3] = 1979*
141: 0x0227 [0x03] Work_Zone[4] = 12*
142: 0x022C [0x1D] PRINT_EVENT_MESSAGE(message_id=11846*)
    → "Oh, let's see... $2 should do the trick. We haven't got much to go on, but according to $6..."
143: 0x022F [0x23] WAIT_FOR_DIALOG_INTERACTION
144: 0x0230 [0x03] Work_Zone[4] = 12*
145: 0x0235 [0x03] Work_Zone[5] = 12*
146: 0x023A [0x1D] PRINT_EVENT_MESSAGE(message_id=11847*)
    → "Ah yes! It claims that the $2 can be found in the Bastorrre Sea and prefers to feast on $3."
147: 0x023D [0x23] WAIT_FOR_DIALOG_INTERACTION
148: 0x023E [0x1A] CALL_SUBROUTINE(address=0x03D5)
149: 0x0241 [0x01] GOTO 0x0271
150: 0x0244 [0x02] IF !(Work_Zone[2] == 3*) GOTO 0x0271
151: 0x024C [0x1A] CALL_SUBROUTINE(address=0x03C3)
152: 0x024F [0x03] Work_Zone[3] = 1979*
153: 0x0254 [0x03] Work_Zone[4] = 13*
154: 0x0259 [0x1D] PRINT_EVENT_MESSAGE(message_id=11846*)
    → "Oh, let's see... $2 should do the trick. We haven't got much to go on, but according to $6..."
155: 0x025C [0x23] WAIT_FOR_DIALOG_INTERACTION
156: 0x025D [0x03] Work_Zone[4] = 13*
157: 0x0262 [0x03] Work_Zone[5] = 13*
158: 0x0267 [0x1D] PRINT_EVENT_MESSAGE(message_id=11847*)
    → "Ah yes! It claims that the $2 can be found in the Bastorrre Sea and prefers to feast on $3."
159: 0x026A [0x23] WAIT_FOR_DIALOG_INTERACTION
160: 0x026B [0x1A] CALL_SUBROUTINE(address=0x03D5)
161: 0x026E [0x01] GOTO 0x0271

SUBROUTINE_0271:
162: 0x0271 [0x1A] CALL_SUBROUTINE(address=0x03C3)
163: 0x0274 [0x1D] PRINT_EVENT_MESSAGE(message_id=11848*)
    → "That's all we've got, but I'm sure you've caught more with less. May the seas smile upon you!"
164: 0x0277 [0x23] WAIT_FOR_DIALOG_INTERACTION
165: 0x0278 [0x1A] CALL_SUBROUTINE(address=0x03D5)
166: 0x027B [0x03] Work_Zone[1] = 4*
167: 0x0280 [0x2E] SET_CLI_EVENT_CANCEL_FLAGS()
168: 0x0281 [0x01] GOTO 0x0299
169: 0x0284 [0x02] IF !(Work_Zone[0] == 1*) GOTO 0x0299
170: 0x028C [0x1A] CALL_SUBROUTINE(address=0x03C3)
171: 0x028F [0x1D] PRINT_EVENT_MESSAGE(message_id=11843*)
    → "So be it, but if you have a change of hearrrt, you'll want to come back quickly. There may be other fish in the sea, but with all the ardent anglers in the realm, they won't last long!"
172: 0x0292 [0x23] WAIT_FOR_DIALOG_INTERACTION
173: 0x0293 [0x1A] CALL_SUBROUTINE(address=0x03D5)
174: 0x0296 [0x01] GOTO 0x0299

SUBROUTINE_0299:
175: 0x0299 [0x01] GOTO 0x029C

SUBROUTINE_029C:
176: 0x029C [0x01] GOTO 0x02AD
177: 0x029F [0x1A] CALL_SUBROUTINE(address=0x03C3)
178: 0x02A2 [0x1D] PRINT_EVENT_MESSAGE(message_id=11777*)
    → "Are ya ready to try your luck at somethin' a little biggerrr? Go out and catch me $0."
179: 0x02A5 [0x23] WAIT_FOR_DIALOG_INTERACTION
180: 0x02A6 [0x1D] PRINT_EVENT_MESSAGE(message_id=11778*)
    → "Brrring one back, and I'll give ya a new fisherman title. How 'bout that?"
181: 0x02A9 [0x23] WAIT_FOR_DIALOG_INTERACTION
182: 0x02AA [0x1A] CALL_SUBROUTINE(address=0x03D5)

SUBROUTINE_02AD:
183: 0x02AD [0x01] GOTO 0x02BA
184: 0x02B0 [0x1A] CALL_SUBROUTINE(address=0x03C3)
185: 0x02B3 [0x1D] PRINT_EVENT_MESSAGE(message_id=11776*)
    → "Ya brrring in another big catch? If ya did, show it to me mates. We're all waitin' for another recorrrd-breakerrr!"
186: 0x02B6 [0x23] WAIT_FOR_DIALOG_INTERACTION
187: 0x02B7 [0x1A] CALL_SUBROUTINE(address=0x03D5)

SUBROUTINE_02BA:
188: 0x02BA [0x01] GOTO 0x030D
189: 0x02BD [0x03] Work_Zone[8] = 0*
190: 0x02C2 [0x1D] PRINT_EVENT_MESSAGE(message_id=11768*)
    → "Who do ya think ya arrre, comin' up here in our space? This is the Fishermen's Guild, so if you're not gonna buy any fish, then get the hell outta herrre."
191: 0x02C5 [0x23] WAIT_FOR_DIALOG_INTERACTION
192: 0x02C6 [0x24] CREATE_DIALOG(message_id=11710*, default_option=0*, option_flags=0*)
    → "Join the [Fishermen's/Carpenters'/Blacksmiths'/Goldsmiths'/Weavers'/Tanners'/Boneworkers'/Alchemists'/Culinarians'] Guild? [Sign up./That's not why you're here.]"
193: 0x02CD [0x25] WAIT_DIALOG_SELECT()
194: 0x02CE [0x02] IF !(Work_Zone[0] == 0*) GOTO 0x02F8
195: 0x02D6 [0x1A] CALL_SUBROUTINE(address=0x03C3)
196: 0x02D9 [0x1D] PRINT_EVENT_MESSAGE(message_id=11770*)
    → "Hah hah! Adventurer, arrre we? I woulda been one too, if I didn't have to take overrr the guild after me pappy died."
197: 0x02DC [0x23] WAIT_FOR_DIALOG_INTERACTION
198: 0x02DD [0x1D] PRINT_EVENT_MESSAGE(message_id=11771*)
    → "We here ain't like those other fancy guilds. We don't use crystals and we don't make anything, but we support those who worrrk hard makin' their livin' by catchin' fish!"
199: 0x02E0 [0x23] WAIT_FOR_DIALOG_INTERACTION
200: 0x02E1 [0x1D] PRINT_EVENT_MESSAGE(message_id=11772*)
    → "Sellin' rods n' bait, passin' on info about the hottest fishin' spots--that's how we put dinnerrr on the table!"
201: 0x02E4 [0x23] WAIT_FOR_DIALOG_INTERACTION
202: 0x02E5 [0x1D] PRINT_EVENT_MESSAGE(message_id=11773*)
    → "Oh yeah, and if ya brrring in your catch, we'll even measurrre it n' weigh it for ya."
203: 0x02E8 [0x23] WAIT_FOR_DIALOG_INTERACTION
204: 0x02E9 [0x1A] CALL_SUBROUTINE(address=0x03D5)
205: 0x02EC [0x1D] PRINT_EVENT_MESSAGE(message_id=11774*)
    → "Ya need any more info, ya just ask me guild mates!"
206: 0x02EF [0x23] WAIT_FOR_DIALOG_INTERACTION
207: 0x02F0 [0x03] Work_Zone[1] = 1*
208: 0x02F5 [0x01] GOTO 0x030D
209: 0x02F8 [0x02] IF !(Work_Zone[0] == 1*) GOTO 0x030D
210: 0x0300 [0x1A] CALL_SUBROUTINE(address=0x03C3)
211: 0x0303 [0x1D] PRINT_EVENT_MESSAGE(message_id=11769*)
    → "Didn't I say get the hell outta herrre? Unless you wanna be sliced up and used as bait."
212: 0x0306 [0x23] WAIT_FOR_DIALOG_INTERACTION
213: 0x0307 [0x1A] CALL_SUBROUTINE(address=0x03D5)
214: 0x030A [0x01] GOTO 0x030D

SUBROUTINE_030D:
215: 0x030D [0x21] END_EVENT
216: 0x030E [0x00] END_REQSTACK()
```

### Event 10010

#### Metadata

| Field        | Value     |
|--------------|-----------|
| Entrypoint   | 0x030F    |
| Data Size    | 143 bytes |
| Instructions | 36        |

```
      00 01 02 03 04 05 06 07  08 09 0A 0B 0C 0D 0E 0F
      -- -- -- -- -- -- -- --  -- -- -- -- -- -- -- --
0300:                                               20                  
0310: 01 42 1E F0 FF FF 7F 1A  C3 03 02 06 10 02 80 03  .B..............
0320: 27 03 03 06 10 02 80 03  09 10 06 10 02 09 10 19  '...............
0330: 80 05 3B 03 1D 25 80 23  01 80 03 02 09 10 26 80  ..;..%.#......&.
0340: 05 4F 03 08 09 10 27 80  1D 28 80 23 01 80 03 02  .O....'..(.#....
0350: 09 10 29 80 05 5E 03 1D  2A 80 23 01 80 03 02 09  ..)..^..*.#.....
0360: 10 2B 80 05 6D 03 1D 2C  80 23 01 80 03 02 09 10  .+..m..,.#......
0370: 00 80 05 7C 03 1D 2D 80  23 01 80 03 1D 2E 80 23  ...|..-.#......#
0380: 1A D5 03 03 08 10 02 80  45 2F 80 F0 FF FF 7F F0  ........E/......
0390: FF FF 7F 71 73 74 63 02  80 48 30 80 21 00        ...qstc..H0.!.  
```

#### Opcodes

```
  0: 0x030F [0x20] SET_CLI_EVENT_UC_FLAG: Lock player control
  1: 0x0311 [0x42] SET_CLI_EVENT_CANCEL_DATA()
  2: 0x0312 [0x1E] EventEntity looks at LocalPlayer and starts talking
  3: 0x0317 [0x1A] CALL_SUBROUTINE(address=0x03C3)
  4: 0x031A [0x02] IF !(Work_Zone[6] >= 0*) GOTO 0x0327
  5: 0x0322 [0x03] Work_Zone[6] = 0*
  6: 0x0327 [0x03] Work_Zone[9] = Work_Zone[6]
  7: 0x032C [0x02] IF !(Work_Zone[9] > 4*) GOTO 0x033B
  8: 0x0334 [0x1D] PRINT_EVENT_MESSAGE(message_id=11779*)
    → "... Mmm, looks mighty delicious! I think you're rrready for the title of [amateur/recruit/initiate/novice/apprentice]. If ya got the rocks, ya might wanna try ferrrry fishing."
  9: 0x0337 [0x23] WAIT_FOR_DIALOG_INTERACTION
 10: 0x0338 [0x01] GOTO 0x0380
 11: 0x033B [0x02] IF !(Work_Zone[9] > 6*) GOTO 0x034F
 12: 0x0343 [0x08] Work_Zone[9] -= 5*
 13: 0x0348 [0x1D] PRINT_EVENT_MESSAGE(message_id=11780*)
    → "... Mmm mmm! This one looks even more delicious than the last! How does the title of [journeyman/craftsman] sound? Maybe it's time ya test your skills on somethin' a little biggerrr..."
 14: 0x034B [0x23] WAIT_FOR_DIALOG_INTERACTION
 15: 0x034C [0x01] GOTO 0x0380
 16: 0x034F [0x02] IF !(Work_Zone[9] > 7*) GOTO 0x035E
 17: 0x0357 [0x1D] PRINT_EVENT_MESSAGE(message_id=11781*)
    → "... Damn, that's one big fish! You're worthy of the title of artisan. All the other fisherrrmen are startin' to talk about ya like ya was some legend!"
 18: 0x035A [0x23] WAIT_FOR_DIALOG_INTERACTION
 19: 0x035B [0x01] GOTO 0x0380
 20: 0x035E [0x02] IF !(Work_Zone[9] > 8*) GOTO 0x036D
 21: 0x0366 [0x1D] PRINT_EVENT_MESSAGE(message_id=11782*)
    → "Unbelievable! This is the biggest f... Well, all I have t' say is, ya catch the legends that otherrr people only talk about!"
 22: 0x0369 [0x23] WAIT_FOR_DIALOG_INTERACTION
 23: 0x036A [0x01] GOTO 0x0380
 24: 0x036D [0x02] IF !(Work_Zone[9] > 9*) GOTO 0x037C
 25: 0x0375 [0x1D] PRINT_EVENT_MESSAGE(message_id=11783*)
    → "Ya can't be serious!? How in blazes did ya even get this thing out of the waterrr? I'm awarding ya the status of veteran, but to tell the truth I think you've got a few things to teach me about fishin'!"
 26: 0x0378 [0x23] WAIT_FOR_DIALOG_INTERACTION
 27: 0x0379 [0x01] GOTO 0x0380
 28: 0x037C [0x1D] PRINT_EVENT_MESSAGE(message_id=11849*)
    → "What the...! Why, this beast is big enough to swallow the both of us whole! I have no idea how you did it, but what I do know is that you're more than worthy of being called an expert. Your catch will be the talk of every dock and pier in the rrrealm before long!"
 29: 0x037F [0x23] WAIT_FOR_DIALOG_INTERACTION

SUBROUTINE_0380:
 30: 0x0380 [0x1A] CALL_SUBROUTINE(address=0x03D5)
 31: 0x0383 [0x03] Work_Zone[8] = 0*
 32: 0x0388 [0x45] LOAD_SCHEDULED_TASK: Load scheduler "qstc" with entities [LocalPlayer, LocalPlayer], work=[201*, 0*]
 33: 0x0399 [0x48] [System] [11713*]:
    → "You are now recognized as [an amateur/a recruit/an initiate/a novice/an apprentice/a journeyman/a craftsman/an artisan/an adept/a veteran/an expert/an authority/a luminary/a master/a grandmaster/a legend] of the [Fishermen's/Carpenters'/Blacksmiths'/Goldsmiths'/Weavers'/Tanners'/Boneworkers'/Alchemists'/Culinarians'] Guild."
 34: 0x039C [0x21] END_EVENT
 35: 0x039D [0x00] END_REQSTACK()
```

### Event 595

#### Metadata

| Field        | Value   |
|--------------|---------|
| Entrypoint   | 0x039E  |
| Data Size    | 1 bytes |
| Instructions | 1       |

```
      00 01 02 03 04 05 06 07  08 09 0A 0B 0C 0D 0E 0F
      -- -- -- -- -- -- -- --  -- -- -- -- -- -- -- --
0390:                                            00                   . 
```

#### Opcodes

```
  0: 0x039E [0x00] END_REQSTACK()
```

### Event 65535.1

#### Metadata

| Field        | Value    |
|--------------|----------|
| Entrypoint   | 0x039F   |
| Data Size    | 10 bytes |
| Instructions | 2        |

```
      00 01 02 03 04 05 06 07  08 09 0A 0B 0C 0D 0E 0F
      -- -- -- -- -- -- -- --  -- -- -- -- -- -- -- --
0390:                                               37                 7
03A0: 31 80 32 80 33 80 34 80  00                       1.2.3.4..       
```

#### Opcodes

```
  0: 0x039F [0x37] UPDATE_EVENT_POSITION_AND_DIR: x=-183.424*, z=68.125*, y=-2.835*, direction=264.2°*
  1: 0x03A8 [0x00] END_REQSTACK()
```

### Event 65535.2

#### Metadata

| Field        | Value    |
|--------------|----------|
| Entrypoint   | 0x03A9   |
| Data Size    | 15 bytes |
| Instructions | 5        |

```
      00 01 02 03 04 05 06 07  08 09 0A 0B 0C 0D 0E 0F
      -- -- -- -- -- -- -- --  -- -- -- -- -- -- -- --
03A0:                             32 18 80 1F 00 35 80           2....5.
03B0: 36 80 33 80 1F 01 6F 00                           6.3...o.        
```

#### Opcodes

```
  0: 0x03A9 [0x32] ExtData[1]->MainSpeed = 13* * 0.1
  1: 0x03AC [0x1F] MOVE_ENTITY: EventEntity moves to X=-182.678*, Z=71.432*, Y=-2.835*
  2: 0x03B4 [0x1F] MOVE_ENTITY: Update entity position (mode=1)
  3: 0x03B6 [0x6F] WAIT_FRAME_DELAY: Yield until WaitTime reaches zero
  4: 0x03B7 [0x00] END_REQSTACK()
```

### Event 597

#### Metadata

| Field        | Value   |
|--------------|---------|
| Entrypoint   | 0x03B8  |
| Data Size    | 1 bytes |
| Instructions | 1       |

```
      00 01 02 03 04 05 06 07  08 09 0A 0B 0C 0D 0E 0F
      -- -- -- -- -- -- -- --  -- -- -- -- -- -- -- --
03B0:                          00                               .       
```

#### Opcodes

```
  0: 0x03B8 [0x00] END_REQSTACK()
```

### Event 65535.3

#### Metadata

| Field        | Value    |
|--------------|----------|
| Entrypoint   | 0x03B9   |
| Data Size    | 76 bytes |
| Instructions | 2        |

```
      00 01 02 03 04 05 06 07  08 09 0A 0B 0C 0D 0E 0F
      -- -- -- -- -- -- -- --  -- -- -- -- -- -- -- --
03B0:                             37 35 80 36 80 33 80           75.6.3.
03C0: 37 80 00 6F 70 66 38 80  F8 FF FF 7F F8 FF FF 7F  7..opf8.........
03D0: 74 6C 6B 30 1B 66 38 80  F8 FF FF 7F F8 FF FF 7F  tlk0.f8.........
03E0: 74 6C 6B 32 1B 6F 70 66  38 80 F8 FF FF 7F F8 FF  tlk2.opf8.......
03F0: FF 7F 70 61 73 30 1B 53  F8 FF FF 7F F8 FF FF 7F  ..pas0.S........
0400: 70 61 73 30 1B                                    pas0.           
```

#### Opcodes

```
  0: 0x03B9 [0x37] UPDATE_EVENT_POSITION_AND_DIR: x=-182.678*, z=71.432*, y=-2.835*, direction=280.8°*
  1: 0x03C2 [0x00] END_REQSTACK()
```

#### Data or dead code:

```
# Dead code (unreachable instructions):
     0x03C3 [0x6F] WAIT_FRAME_DELAY: Yield until WaitTime reaches zero
     0x03C4 [0x70] WAIT_ENTITY_RENDER_FLAG: Wait while EventEntity->Render.Flags3 bit 2 is set (cancel turn if not)
     0x03C5 [0x66] LOAD_EXT_SCHEDULER_MAIN: Load scheduler "tlk0" with entities [EventEntity, EventEntity], work=50*
     0x03D4 [0x1B] RETURN
     0x03D5 [0x66] LOAD_EXT_SCHEDULER_MAIN: Load scheduler "tlk2" with entities [EventEntity, EventEntity], work=50*
     0x03E4 [0x1B] RETURN
     0x03E5 [0x6F] WAIT_FRAME_DELAY: Yield until WaitTime reaches zero
     0x03E6 [0x70] WAIT_ENTITY_RENDER_FLAG: Wait while EventEntity->Render.Flags3 bit 2 is set (cancel turn if not)
     0x03E7 [0x66] LOAD_EXT_SCHEDULER_MAIN: Load scheduler "pas0" with entities [EventEntity, EventEntity], work=50*
     0x03F6 [0x1B] RETURN
     0x03F7 [0x53] WAIT_SCHEDULER_TASK: Wait for scheduler "pas0" with entities [EventEntity, EventEntity]
     0x0404 [0x1B] RETURN
```
