# 17760339 - Papo-Hopo

## Common Data

| Field            | Value                   |
|------------------|-------------------------|
| Zone             | Port Windurst (ID: 240) |
| Block Size       | 3200 bytes              |
| Total Events     | 110                     |
| References Count | 150                     |

## List of Events

| Event ID                   | Entrypoint   |   Size |   Instructions |
|----------------------------|--------------|--------|----------------|
| [65535](#event-65535)      | 0x0000       |      1 |              1 |
| [65535.1](#event-655351)   | 0x0001       |     16 |              2 |
| [65535.2](#event-655352)   | 0x0011       |     22 |              4 |
| [65535.3](#event-655353)   | 0x0027       |     16 |              2 |
| [65535.4](#event-655354)   | 0x0037       |     14 |              2 |
| [65535.5](#event-655355)   | 0x0045       |     16 |              2 |
| [65535.6](#event-655356)   | 0x0055       |     14 |              2 |
| [65535.7](#event-655357)   | 0x0063       |     16 |              2 |
| [65535.8](#event-655358)   | 0x0073       |     22 |              4 |
| [65535.9](#event-655359)   | 0x0089       |     22 |              3 |
| [65535.10](#event-6553510) | 0x009F       |     20 |              3 |
| [65535.11](#event-6553511) | 0x00B3       |     22 |              3 |
| [65535.12](#event-6553512) | 0x00C9       |     20 |              3 |
| [65535.13](#event-6553513) | 0x00DD       |     16 |              2 |
| [65535.14](#event-6553514) | 0x00ED       |     22 |              4 |
| [65535.15](#event-6553515) | 0x0103       |     22 |              3 |
| [65535.16](#event-6553516) | 0x0119       |     20 |              3 |
| [65535.17](#event-6553517) | 0x012D       |     41 |              5 |
| [65535.18](#event-6553518) | 0x0156       |     16 |              2 |
| [65535.19](#event-6553519) | 0x0166       |     22 |              4 |
| [65535.20](#event-6553520) | 0x017C       |      9 |              3 |
| [362](#event-362)          | 0x0185       |     29 |             10 |
| [368](#event-368)          | 0x01A2       |      1 |              1 |
| [65535.21](#event-6553521) | 0x01A3       |     10 |              2 |
| [65535.22](#event-6553522) | 0x01AD       |     35 |              9 |
| [65535.23](#event-6553523) | 0x01D0       |     52 |              8 |
| [65535.24](#event-6553524) | 0x0204       |      5 |              3 |
| [65535.25](#event-6553525) | 0x0209       |     19 |              5 |
| [65535.26](#event-6553526) | 0x021C       |     23 |              7 |
| [372](#event-372)          | 0x0233       |     33 |             12 |
| [380](#event-380)          | 0x0254       |     33 |             12 |
| [378](#event-378)          | 0x0275       |      1 |              1 |
| [391](#event-391)          | 0x0276       |      1 |              1 |
| [65535.27](#event-6553527) | 0x0277       |     33 |              7 |
| [393](#event-393)          | 0x0298       |     33 |             12 |
| [65535.28](#event-6553528) | 0x02B9       |     19 |              5 |
| [65535.29](#event-6553529) | 0x02CC       |     33 |              7 |
| [400](#event-400)          | 0x02ED       |      1 |              1 |
| [402](#event-402)          | 0x02EE       |     29 |             10 |
| [403](#event-403)          | 0x030B       |     33 |             12 |
| [386](#event-386)          | 0x032C       |      1 |              1 |
| [390](#event-390)          | 0x032D       |      1 |              1 |
| [413](#event-413)          | 0x032E       |      1 |              1 |
| [416](#event-416)          | 0x032F       |     29 |             10 |
| [421](#event-421)          | 0x034C       |      1 |              1 |
| [65535.30](#event-6553530) | 0x034D       |     10 |              2 |
| [65535.31](#event-6553531) | 0x0357       |     33 |              7 |
| [424](#event-424)          | 0x0378       |     33 |             12 |
| [430](#event-430)          | 0x0399       |      1 |              1 |
| [432](#event-432)          | 0x039A       |      1 |              1 |
| [433](#event-433)          | 0x039B       |      1 |              1 |
| [434](#event-434)          | 0x039C       |     33 |             12 |
| [441](#event-441)          | 0x03BD       |     33 |             12 |
| [324](#event-324)          | 0x03DE       |      1 |              1 |
| [65535.32](#event-6553532) | 0x03DF       |     10 |              2 |
| [65535.33](#event-6553533) | 0x03E9       |     27 |              7 |
| [65535.34](#event-6553534) | 0x0404       |     49 |              9 |
| [65535.35](#event-6553535) | 0x0435       |     19 |              5 |
| [65535.36](#event-6553536) | 0x0448       |     10 |              2 |
| [65535.37](#event-6553537) | 0x0452       |     10 |              2 |
| [65535.38](#event-6553538) | 0x045C       |     24 |              6 |
| [65535.39](#event-6553539) | 0x0474       |     15 |              5 |
| [65535.40](#event-6553540) | 0x0483       |      5 |              3 |
| [65535.41](#event-6553541) | 0x0488       |      5 |              3 |
| [65535.42](#event-6553542) | 0x048D       |      9 |              5 |
| [65535.43](#event-6553543) | 0x0496       |     30 |              8 |
| [65535.44](#event-6553544) | 0x04B4       |     17 |              6 |
| [65535.45](#event-6553545) | 0x04C5       |     19 |              5 |
| [323](#event-323)          | 0x04D8       |      1 |              1 |
| [65535.46](#event-6553546) | 0x04D9       |     10 |              2 |
| [65535.47](#event-6553547) | 0x04E3       |     24 |              6 |
| [65535.48](#event-6553548) | 0x04FB       |     10 |              2 |
| [65535.49](#event-6553549) | 0x0505       |     15 |              5 |
| [65535.50](#event-6553550) | 0x0514       |     10 |              2 |
| [65535.51](#event-6553551) | 0x051E       |      5 |              3 |
| [496](#event-496)          | 0x0523       |      1 |              1 |
| [65535.52](#event-6553552) | 0x0524       |     37 |              9 |
| [497](#event-497)          | 0x0549       |      1 |              1 |
| [65535.53](#event-6553553) | 0x054A       |     10 |              2 |
| [65535.54](#event-6553554) | 0x0554       |      9 |              5 |
| [501](#event-501)          | 0x055D       |     33 |             12 |
| [508](#event-508)          | 0x057E       |     33 |             12 |
| [509](#event-509)          | 0x059F       |     37 |             14 |
| [513](#event-513)          | 0x05C4       |      1 |              1 |
| [65535.55](#event-6553555) | 0x05C5       |      5 |              3 |
| [65535.56](#event-6553556) | 0x05CA       |      5 |              3 |
| [65535.57](#event-6553557) | 0x05CF       |      5 |              3 |
| [65535.58](#event-6553558) | 0x05D4       |      9 |              5 |
| [515](#event-515)          | 0x05DD       |     47 |             14 |
| [522](#event-522)          | 0x060C       |      1 |              1 |
| [65535.59](#event-6553559) | 0x060D       |     10 |              2 |
| [525](#event-525)          | 0x0617       |     33 |             12 |
| [65535.60](#event-6553560) | 0x0638       |     88 |             10 |
| [65535.61](#event-6553561) | 0x0690       |    128 |             14 |
| [65535.62](#event-6553562) | 0x0710       |     85 |             11 |
| [65535.63](#event-6553563) | 0x0765       |    136 |             14 |
| [532](#event-532)          | 0x07ED       |      1 |              1 |
| [534](#event-534)          | 0x07EE       |      1 |              1 |
| [537](#event-537)          | 0x07EF       |     43 |             12 |
| [542](#event-542)          | 0x081A       |      1 |              1 |
| [587](#event-587)          | 0x081B       |     51 |             16 |
| [584](#event-584)          | 0x084E       |      1 |              1 |
| [65535.64](#event-6553564) | 0x084F       |     10 |              2 |
| [915](#event-915)          | 0x0859       |      1 |              1 |
| [916](#event-916)          | 0x085A       |      1 |              1 |
| [924](#event-924)          | 0x085B       |      1 |              1 |
| [918](#event-918)          | 0x085C       |      1 |              1 |
| [925](#event-925)          | 0x085D       |      1 |              1 |
| [927](#event-927)          | 0x085E       |      1 |              1 |
| [933](#event-933)          | 0x085F       |      1 |              1 |

## DAT References (imed_data)

|   Index | Hex Value   |   Dec Value |
|---------|-------------|-------------|
|       0 | 0x0055      |          85 |
|       1 | 0x001E      |          30 |
|       2 | 0x1041      |        4161 |
|       3 | 0xFFFFA5B7  |  4294944183 |
|       4 | 0x2F39D     |      193437 |
|       5 | 0xFFFFE890  |  4294961296 |
|       6 | 0x070E      |        1806 |
|       7 | 0x0007      |           7 |
|       8 | 0x07D0      |        2000 |
|       9 | 0x0032      |          50 |
|      10 | 0xFFFF8AB0  |  4294937264 |
|      11 | 0x2EDBF     |      191935 |
|      12 | 0xFFFFE4A8  |  4294960296 |
|      13 | 0xFFFF862B  |  4294936107 |
|      14 | 0x2F40A     |      193546 |
|      15 | 0x104E      |        4174 |
|      16 | 0x1055      |        4181 |
|      17 | 0x1059      |        4185 |
|      18 | 0x105A      |        4186 |
|      19 | 0x1069      |        4201 |
|      20 | 0x106A      |        4202 |
|      21 | 0x1080      |        4224 |
|      22 | 0x1081      |        4225 |
|      23 | 0x109F      |        4255 |
|      24 | 0x10AF      |        4271 |
|      25 | 0x10B0      |        4272 |
|      26 | 0x10C3      |        4291 |
|      27 | 0x10C4      |        4292 |
|      28 | 0x10C9      |        4297 |
|      29 | 0x10CA      |        4298 |
|      30 | 0x10CB      |        4299 |
|      31 | 0x10E8      |        4328 |
|      32 | 0xFFFF974E  |  4294940494 |
|      33 | 0x2EA8C     |      191116 |
|      34 | 0xFFFFE891  |  4294961297 |
|      35 | 0x0FAD      |        4013 |
|      36 | 0x10F4      |        4340 |
|      37 | 0x10FD      |        4349 |
|      38 | 0x10FE      |        4350 |
|      39 | 0x1119      |        4377 |
|      40 | 0x111A      |        4378 |
|      41 | 0x1125      |        4389 |
|      42 | 0x1126      |        4390 |
|      43 | 0xFFFF9B31  |  4294941489 |
|      44 | 0x425D2     |      271826 |
|      45 | 0xFFFFD120  |  4294955296 |
|      46 | 0x0446      |        1094 |
|      47 | 0xFFFF9BCA  |  4294941642 |
|      48 | 0x40D30     |      265520 |
|      49 | 0xFFFFCE39  |  4294954553 |
|      50 | 0x0C20      |        3104 |
|      51 | 0x0015      |          21 |
|      52 | 0xFFFFA0EF  |  4294942959 |
|      53 | 0x421DD     |      270813 |
|      54 | 0x0D79      |        3449 |
|      55 | 0x0064      |         100 |
|      56 | 0x0FA1      |        4001 |
|      57 | 0xFFFF8599  |  4294935961 |
|      58 | 0x4507E     |      282750 |
|      59 | 0xFFFFCD39  |  4294954297 |
|      60 | 0x0D14      |        3348 |
|      61 | 0xFFFF8354  |  4294935380 |
|      62 | 0x4434D     |      279373 |
|      63 | 0xFFFFCD38  |  4294954296 |
|      64 | 0x09B4      |        2484 |
|      65 | 0xFFFF8456  |  4294935638 |
|      66 | 0x45178     |      283000 |
|      67 | 0x009D      |         157 |
|      68 | 0xFFFF78F5  |  4294932725 |
|      69 | 0x003C      |          60 |
|      70 | 0xFFFFAED9  |  4294946521 |
|      71 | 0x0FB8      |        4024 |
|      72 | 0x0FBA      |        4026 |
|      73 | 0x0FBB      |        4027 |
|      74 | 0x0FBC      |        4028 |
|      75 | 0xFFFF94CD  |  4294939853 |
|      76 | 0x3FA0E     |      260622 |
|      77 | 0x04F0      |        1264 |
|      78 | 0xFFFF9646  |  4294940230 |
|      79 | 0x3D9DE     |      252382 |
|      80 | 0xFFFFCFF9  |  4294955001 |
|      81 | 0x0344      |         836 |
|      82 | 0xFFFF70B7  |  4294930615 |
|      83 | 0x3B92E     |      244014 |
|      84 | 0xFFFFCF2D  |  4294954797 |
|      85 | 0x0FD2      |        4050 |
|      86 | 0xFFFF9742  |  4294940482 |
|      87 | 0x40F78     |      266104 |
|      88 | 0xFFFFB9B0  |  4294949296 |
|      89 | 0x0304      |         772 |
|      90 | 0xFFFF7EC2  |  4294934210 |
|      91 | 0x3CEE2     |      249570 |
|      92 | 0xFFFFCFE8  |  4294954984 |
|      93 | 0x0D18      |        3352 |
|      94 | 0xFFFF95D3  |  4294940115 |
|      95 | 0x3EBF5     |      257013 |
|      96 | 0xFFFFCEA9  |  4294954665 |
|      97 | 0xFFFF98DC  |  4294940892 |
|      98 | 0x40E91     |      265873 |
|      99 | 0xFFFFB9B1  |  4294949297 |
|     100 | 0x0400      |        1024 |
|     101 | 0xFFFFB33D  |  4294947645 |
|     102 | 0x42C50     |      273488 |
|     103 | 0xFFFFBBA4  |  4294949796 |
|     104 | 0xFFFF9D01  |  4294941953 |
|     105 | 0x3F02A     |      258090 |
|     106 | 0xFFFFCDD0  |  4294954448 |
|     107 | 0x0A00      |        2560 |
|     108 | 0x0F84      |        3972 |
|     109 | 0x3082      |       12418 |
|     110 | 0x3083      |       12419 |
|     111 | 0xFFFFACD4  |  4294946004 |
|     112 | 0x2EDDE     |      191966 |
|     113 | 0x0602      |        1538 |
|     114 | 0x309E      |       12446 |
|     115 | 0x309F      |       12447 |
|     116 | 0x308F      |       12431 |
|     117 | 0x3090      |       12432 |
|     118 | 0x30AF      |       12463 |
|     119 | 0x30B0      |       12464 |
|     120 | 0x30B1      |       12465 |
|     121 | 0x30B2      |       12466 |
|     122 | 0x30B3      |       12467 |
|     123 | 0x30BD      |       12477 |
|     124 | 0x30C3      |       12483 |
|     125 | 0x30C4      |       12484 |
|     126 | 0x30C6      |       12486 |
|     127 | 0x30C7      |       12487 |
|     128 | 0x30D2      |       12498 |
|     129 | 0x30D3      |       12499 |
|     130 | 0xFFFF9C14  |  4294941716 |
|     131 | 0x2E694     |      190100 |
|     132 | 0x0000      |           0 |
|     133 | 0x30FF      |       12543 |
|     134 | 0x3100      |       12544 |
|     135 | 0x00F7      |         247 |
|     136 | 0x0096      |         150 |
|     137 | 0x00C8      |         200 |
|     138 | 0x30EA      |       12522 |
|     139 | 0x30EB      |       12523 |
|     140 | 0x30F4      |       12532 |
|     141 | 0x0078      |         120 |
|     142 | 0x30F5      |       12533 |
|     143 | 0x310E      |       12558 |
|     144 | 0x31A6      |       12710 |
|     145 | 0x31A7      |       12711 |
|     146 | 0x31A8      |       12712 |
|     147 | 0xFFFFA68B  |  4294944395 |
|     148 | 0x2EBEC     |      191468 |
|     149 | 0x0F72      |        3954 |

## String References

- **3972**: Yippee!
- **4001**: Don't ask me! I don't know...I don't pay much attention to wumors.
- **4024**: So da ghosty's twue identity was just da wind!
- **4026**: Arrrrrgggghhhyaaaa!!!
- **4027**: Dere's a c-c-corpse!
- **4028**: A corpse!
- **4050**: I thought we were goners when we were twapped in dere with dat ghosty!
- **4161**: Da first wule!
- **4174**: Da Star Onion Bwigade are invincible!
- **4181**: Evewybody gadder togeder!
- **4185**: (We can't let a gwown-up join dis gwoup!)
- **4186**: (Dis gwoup was formed to oppose selfish gwown-ups.)
- **4201**: Pichichi's mother wuns the hostelwy in Windurst Waters, wight?
- **4202**: Maybe dat's a clue as to what kind of tail she wants?
- **4224**: I told dem dat we don't need no adults in our bwigade, but dey wouldn't listen to me!
- **4225**: Dis Star Onion Bwigade was formed to cowwect da wrong-doings of adults and was supposed to be a secwet club!
- **4255**: Da ghosty house in Windurst Walls...? Wasn't dat owiginally supposed to be de doctor's wesidence for the minister of de Optistewy?
- **4271**: Dis looks like a job for my twusty Super Onion Staff--a legendawy weapon dat has been handed down in my family since my gwandfather's day!
- **4272**: Ha-haa! Just you wait, Cat Burglar! You'll be no match for me and my staff!
- **4291**: I know what dat ball is! Dat's a Mana Orb! It's da heart of a Cardian!
- **4292**: But Mana Orbs are closely contwolled by da people in charge of da Cardian workshop in da Manustewy! For it to be lying awound dere must mean dat da Cat Burglar had it in her possession...!
- **4297**: <huff><puff> Ha... Hah... I'm exhausted!
- **4298**: We oughta check into dat ghosty house a little more...
- **4299**: But we don't know how much of what gwown-ups tell us is twue or just stowies. No one can twust adults in dis sad world of ours!
- **4328**: In times like dese, you need a magnifying glass! Dat's elementawy, my dear Watson-wotson! Ahem...
- **4340**: So da cwime was committed by one of us! Dis is an intwiguing turn of events!
- **4349**: I'm disappointed dat I didn't get to show off my mega-fly magnifying glass.
- **4350**: Did you know that if I aim my magnifying glass at dwy leaves dey cwickle-cwackle until dey suddenly burst into flames!
- **4377**: We don't need any stwategies 'cause we have da twaps and other devices dat we'd been pweparing especially for dis day.
- **4378**: A-hah... I have a feeling dat we'll catch da Cat Burglar for sure today!
- **4389**: We've got dat Cardian, Joker, hiding away.
- **4390**: If any gwown-ups find him, dey'll take him away to the Manustewy. We can't allow dat to happen...not until we solve Joker's mystewy.
- **12418**: ...But our weal pwoblem is dat we don't got da Mana Orb no more.
- **12419**: Do you wemember? Dat Mana Orb got all sucked up into Joker's body.
- **12431**: Da old rich guy dat lives in Windurst Waters is called Honoi-Gomoi, I think.
- **12432**: His ancestors were supposed to be a bunch of whiz-bang wizards, so dat's why he's so rich now.
- **12446**: I don't think a grown-up is gonna fall for dat kind of thing.
- **12447**: You all know it. Adults are too smart for simple excuses.
- **12463**: I've done some digging on our Mr. Honoi-Gomoi. He's always saying tewwible things, but actually he seems wike a weally nice guy.
- **12464**: I found out dat during the Gweat War, he helped pay for twansporting suppwies and for we-building Windurst.
- **12465**: After digging a wittle more, I discovered da weason why people call Mr. Honoi-Gomoi a bad man.
- **12466**: He organized things so dat da money he lent to Windurst during da war would come back to him as even more money.
- **12467**: People whisper dat he used da war as a way of becoming even more rich.
- **12477**: But even if you don't do it, you can bet dat old meanie will find another way to dis-a-sem-bull Joker...
- **12483**: But dat plan is gonna be awful hard for us to carry out.
- **12484**: First we need to find a way to get Joker out of Windurst without anybody noticing.
- **12486**: Exactaruly. It makes it difficult with Joker being a Cardian.
- **12487**: Da gatehouse checks have been much stwicter since a bunch of Cardians kidnapped da old Manustery minister.
- **12498**: Joker's hiding spot in da House of da Hero is tip-top secwet information.
- **12499**: You never know when someone may be wistening, so don't mention it to your friends, your family, or even your pet worms!
- **12543**: I can't believe da ace Cardians came all da way into da city...!
- **12544**: Dere's no way dey could've come in through one of da gates... I wonder how dey got in?
- **12558**: No mattaru how much I wack my bwains, I can't figure out how dey got in.
- **12710**: I've heard dat Mana Orbs are filled with de energy of dis land.
- **12711**: When dat energy is weleased, it weturns to the land. I wonder if dat's why we can feel Joker's pwesence all over de place.
- **12712**: I know what I'm gonna do. I'm gonna solve dis mystery some day. And den I'm gonna spend de west of my life pwotecting dis land and its sparkling energy!

## Events

### Event 65535

#### Metadata

| Field        | Value   |
|--------------|---------|
| Entrypoint   | 0x0000  |
| Data Size    | 1 bytes |
| Instructions | 1       |

```
      00 01 02 03 04 05 06 07  08 09 0A 0B 0C 0D 0E 0F
      -- -- -- -- -- -- -- --  -- -- -- -- -- -- -- --
0000: 00                                                .               
```

#### Opcodes

```
  0: 0x0000 [0x00] END_REQSTACK()
```

### Event 65535.1

#### Metadata

| Field        | Value    |
|--------------|----------|
| Entrypoint   | 0x0001   |
| Data Size    | 16 bytes |
| Instructions | 2        |

```
      00 01 02 03 04 05 06 07  08 09 0A 0B 0C 0D 0E 0F
      -- -- -- -- -- -- -- --  -- -- -- -- -- -- -- --
0000:    5B 00 80 F8 FF FF 7F  F8 FF FF 7F 74 6C 6B 30   [..........tlk0
0010: 00                                                .               
```

#### Opcodes

```
  0: 0x0001 [0x5B] LOAD_EXT_SCHEDULER: Load scheduler "tlk0" with entities [EventEntity, EventEntity], work=85*
  1: 0x0010 [0x00] END_REQSTACK()
```

### Event 65535.2

#### Metadata

| Field        | Value    |
|--------------|----------|
| Entrypoint   | 0x0011   |
| Data Size    | 22 bytes |
| Instructions | 4        |

```
      00 01 02 03 04 05 06 07  08 09 0A 0B 0C 0D 0E 0F
      -- -- -- -- -- -- -- --  -- -- -- -- -- -- -- --
0010:    53 F8 FF FF 7F F8 FF  FF 7F 74 6C 6B 30 5E 69   S........tlk0^i
0020: 64 6C 30 1C 01 80 00                              dl0....         
```

#### Opcodes

```
  0: 0x0011 [0x53] WAIT_SCHEDULER_TASK: Wait for scheduler "tlk0" with entities [EventEntity, EventEntity]
  1: 0x001E [0x5E] EventEntity goes idle (kills current action) (animation: "idl0")
  2: 0x0023 [0x1C] WAIT(30* ticks)
  3: 0x0026 [0x00] END_REQSTACK()
```

### Event 65535.3

#### Metadata

| Field        | Value    |
|--------------|----------|
| Entrypoint   | 0x0027   |
| Data Size    | 16 bytes |
| Instructions | 2        |

```
      00 01 02 03 04 05 06 07  08 09 0A 0B 0C 0D 0E 0F
      -- -- -- -- -- -- -- --  -- -- -- -- -- -- -- --
0020:                      5B  00 80 F8 FF FF 7F F8 FF         [........
0030: FF 7F 74 68 6B 31 00                              ..thk1.         
```

#### Opcodes

```
  0: 0x0027 [0x5B] LOAD_EXT_SCHEDULER: Load scheduler "thk1" with entities [EventEntity, EventEntity], work=85*
  1: 0x0036 [0x00] END_REQSTACK()
```

### Event 65535.4

#### Metadata

| Field        | Value    |
|--------------|----------|
| Entrypoint   | 0x0037   |
| Data Size    | 14 bytes |
| Instructions | 2        |

```
      00 01 02 03 04 05 06 07  08 09 0A 0B 0C 0D 0E 0F
      -- -- -- -- -- -- -- --  -- -- -- -- -- -- -- --
0030:                      53  F8 FF FF 7F F8 FF FF 7F         S........
0040: 74 68 6B 31 00                                    thk1.           
```

#### Opcodes

```
  0: 0x0037 [0x53] WAIT_SCHEDULER_TASK: Wait for scheduler "thk1" with entities [EventEntity, EventEntity]
  1: 0x0044 [0x00] END_REQSTACK()
```

### Event 65535.5

#### Metadata

| Field        | Value    |
|--------------|----------|
| Entrypoint   | 0x0045   |
| Data Size    | 16 bytes |
| Instructions | 2        |

```
      00 01 02 03 04 05 06 07  08 09 0A 0B 0C 0D 0E 0F
      -- -- -- -- -- -- -- --  -- -- -- -- -- -- -- --
0040:                5B 00 80  F8 FF FF 7F F8 FF FF 7F       [..........
0050: 74 68 6B 32 00                                    thk2.           
```

#### Opcodes

```
  0: 0x0045 [0x5B] LOAD_EXT_SCHEDULER: Load scheduler "thk2" with entities [EventEntity, EventEntity], work=85*
  1: 0x0054 [0x00] END_REQSTACK()
```

### Event 65535.6

#### Metadata

| Field        | Value    |
|--------------|----------|
| Entrypoint   | 0x0055   |
| Data Size    | 14 bytes |
| Instructions | 2        |

```
      00 01 02 03 04 05 06 07  08 09 0A 0B 0C 0D 0E 0F
      -- -- -- -- -- -- -- --  -- -- -- -- -- -- -- --
0050:                53 F8 FF  FF 7F F8 FF FF 7F 74 68       S........th
0060: 6B 32 00                                          k2.             
```

#### Opcodes

```
  0: 0x0055 [0x53] WAIT_SCHEDULER_TASK: Wait for scheduler "thk2" with entities [EventEntity, EventEntity]
  1: 0x0062 [0x00] END_REQSTACK()
```

### Event 65535.7

#### Metadata

| Field        | Value    |
|--------------|----------|
| Entrypoint   | 0x0063   |
| Data Size    | 16 bytes |
| Instructions | 2        |

```
      00 01 02 03 04 05 06 07  08 09 0A 0B 0C 0D 0E 0F
      -- -- -- -- -- -- -- --  -- -- -- -- -- -- -- --
0060:          5B 00 80 F8 FF  FF 7F F8 FF FF 7F 6E 61     [..........na
0070: 69 30 00                                          i0.             
```

#### Opcodes

```
  0: 0x0063 [0x5B] LOAD_EXT_SCHEDULER: Load scheduler "nai0" with entities [EventEntity, EventEntity], work=85*
  1: 0x0072 [0x00] END_REQSTACK()
```

### Event 65535.8

#### Metadata

| Field        | Value    |
|--------------|----------|
| Entrypoint   | 0x0073   |
| Data Size    | 22 bytes |
| Instructions | 4        |

```
      00 01 02 03 04 05 06 07  08 09 0A 0B 0C 0D 0E 0F
      -- -- -- -- -- -- -- --  -- -- -- -- -- -- -- --
0070:          53 F8 FF FF 7F  F8 FF FF 7F 6E 61 69 30     S........nai0
0080: 5E 69 64 6C 30 1C 01 80  00                       ^idl0....       
```

#### Opcodes

```
  0: 0x0073 [0x53] WAIT_SCHEDULER_TASK: Wait for scheduler "nai0" with entities [EventEntity, EventEntity]
  1: 0x0080 [0x5E] EventEntity goes idle (kills current action) (animation: "idl0")
  2: 0x0085 [0x1C] WAIT(30* ticks)
  3: 0x0088 [0x00] END_REQSTACK()
```

### Event 65535.9

#### Metadata

| Field        | Value    |
|--------------|----------|
| Entrypoint   | 0x0089   |
| Data Size    | 22 bytes |
| Instructions | 3        |

```
      00 01 02 03 04 05 06 07  08 09 0A 0B 0C 0D 0E 0F
      -- -- -- -- -- -- -- --  -- -- -- -- -- -- -- --
0080:                             7C 00 F8 FF FF 7F 5B           |.....[
0090: 00 80 F8 FF FF 7F F8 FF  FF 7F 74 6C 6B 32 00     ..........tlk2. 
```

#### Opcodes

```
  0: 0x0089 [0x7C] EventEntity->Render.Flags2 |= 0x00
  1: 0x008F [0x5B] LOAD_EXT_SCHEDULER: Load scheduler "tlk2" with entities [EventEntity, EventEntity], work=85*
  2: 0x009E [0x00] END_REQSTACK()
```

### Event 65535.10

#### Metadata

| Field        | Value    |
|--------------|----------|
| Entrypoint   | 0x009F   |
| Data Size    | 20 bytes |
| Instructions | 3        |

```
      00 01 02 03 04 05 06 07  08 09 0A 0B 0C 0D 0E 0F
      -- -- -- -- -- -- -- --  -- -- -- -- -- -- -- --
0090:                                               53                 S
00A0: F8 FF FF 7F F8 FF FF 7F  74 6C 6B 32 7C 01 F8 FF  ........tlk2|...
00B0: FF 7F 00                                          ...             
```

#### Opcodes

```
  0: 0x009F [0x53] WAIT_SCHEDULER_TASK: Wait for scheduler "tlk2" with entities [EventEntity, EventEntity]
  1: 0x00AC [0x7C] EventEntity->Render.Flags2 |= 0x01
  2: 0x00B2 [0x00] END_REQSTACK()
```

### Event 65535.11

#### Metadata

| Field        | Value    |
|--------------|----------|
| Entrypoint   | 0x00B3   |
| Data Size    | 22 bytes |
| Instructions | 3        |

```
      00 01 02 03 04 05 06 07  08 09 0A 0B 0C 0D 0E 0F
      -- -- -- -- -- -- -- --  -- -- -- -- -- -- -- --
00B0:          7C 00 F8 FF FF  7F 5B 00 80 F8 FF FF 7F     |.....[......
00C0: F8 FF FF 7F 73 75 72 30  00                       ....sur0.       
```

#### Opcodes

```
  0: 0x00B3 [0x7C] EventEntity->Render.Flags2 |= 0x00
  1: 0x00B9 [0x5B] LOAD_EXT_SCHEDULER: Load scheduler "sur0" with entities [EventEntity, EventEntity], work=85*
  2: 0x00C8 [0x00] END_REQSTACK()
```

### Event 65535.12

#### Metadata

| Field        | Value    |
|--------------|----------|
| Entrypoint   | 0x00C9   |
| Data Size    | 20 bytes |
| Instructions | 3        |

```
      00 01 02 03 04 05 06 07  08 09 0A 0B 0C 0D 0E 0F
      -- -- -- -- -- -- -- --  -- -- -- -- -- -- -- --
00C0:                             53 F8 FF FF 7F F8 FF           S......
00D0: FF 7F 73 75 72 30 7C 01  F8 FF FF 7F 00           ..sur0|......   
```

#### Opcodes

```
  0: 0x00C9 [0x53] WAIT_SCHEDULER_TASK: Wait for scheduler "sur0" with entities [EventEntity, EventEntity]
  1: 0x00D6 [0x7C] EventEntity->Render.Flags2 |= 0x01
  2: 0x00DC [0x00] END_REQSTACK()
```

### Event 65535.13

#### Metadata

| Field        | Value    |
|--------------|----------|
| Entrypoint   | 0x00DD   |
| Data Size    | 16 bytes |
| Instructions | 2        |

```
      00 01 02 03 04 05 06 07  08 09 0A 0B 0C 0D 0E 0F
      -- -- -- -- -- -- -- --  -- -- -- -- -- -- -- --
00D0:                                         5B 00 80               [..
00E0: F8 FF FF 7F F8 FF FF 7F  74 6C 6B 31 00           ........tlk1.   
```

#### Opcodes

```
  0: 0x00DD [0x5B] LOAD_EXT_SCHEDULER: Load scheduler "tlk1" with entities [EventEntity, EventEntity], work=85*
  1: 0x00EC [0x00] END_REQSTACK()
```

### Event 65535.14

#### Metadata

| Field        | Value    |
|--------------|----------|
| Entrypoint   | 0x00ED   |
| Data Size    | 22 bytes |
| Instructions | 4        |

```
      00 01 02 03 04 05 06 07  08 09 0A 0B 0C 0D 0E 0F
      -- -- -- -- -- -- -- --  -- -- -- -- -- -- -- --
00E0:                                         53 F8 FF               S..
00F0: FF 7F F8 FF FF 7F 74 6C  6B 31 5E 69 64 6C 30 1C  ......tlk1^idl0.
0100: 01 80 00                                          ...             
```

#### Opcodes

```
  0: 0x00ED [0x53] WAIT_SCHEDULER_TASK: Wait for scheduler "tlk1" with entities [EventEntity, EventEntity]
  1: 0x00FA [0x5E] EventEntity goes idle (kills current action) (animation: "idl0")
  2: 0x00FF [0x1C] WAIT(30* ticks)
  3: 0x0102 [0x00] END_REQSTACK()
```

### Event 65535.15

#### Metadata

| Field        | Value    |
|--------------|----------|
| Entrypoint   | 0x0103   |
| Data Size    | 22 bytes |
| Instructions | 3        |

```
      00 01 02 03 04 05 06 07  08 09 0A 0B 0C 0D 0E 0F
      -- -- -- -- -- -- -- --  -- -- -- -- -- -- -- --
0100:          7C 00 F8 FF FF  7F 5B 00 80 F8 FF FF 7F     |.....[......
0110: F8 FF FF 7F 62 61 6E 30  00                       ....ban0.       
```

#### Opcodes

```
  0: 0x0103 [0x7C] EventEntity->Render.Flags2 |= 0x00
  1: 0x0109 [0x5B] LOAD_EXT_SCHEDULER: Load scheduler "ban0" with entities [EventEntity, EventEntity], work=85*
  2: 0x0118 [0x00] END_REQSTACK()
```

### Event 65535.16

#### Metadata

| Field        | Value    |
|--------------|----------|
| Entrypoint   | 0x0119   |
| Data Size    | 20 bytes |
| Instructions | 3        |

```
      00 01 02 03 04 05 06 07  08 09 0A 0B 0C 0D 0E 0F
      -- -- -- -- -- -- -- --  -- -- -- -- -- -- -- --
0110:                             53 F8 FF FF 7F F8 FF           S......
0120: FF 7F 62 61 6E 30 7C 01  F8 FF FF 7F 00           ..ban0|......   
```

#### Opcodes

```
  0: 0x0119 [0x53] WAIT_SCHEDULER_TASK: Wait for scheduler "ban0" with entities [EventEntity, EventEntity]
  1: 0x0126 [0x7C] EventEntity->Render.Flags2 |= 0x01
  2: 0x012C [0x00] END_REQSTACK()
```

### Event 65535.17

#### Metadata

| Field        | Value    |
|--------------|----------|
| Entrypoint   | 0x012D   |
| Data Size    | 41 bytes |
| Instructions | 5        |

```
      00 01 02 03 04 05 06 07  08 09 0A 0B 0C 0D 0E 0F
      -- -- -- -- -- -- -- --  -- -- -- -- -- -- -- --
0120:                                         7C 00 F8               |..
0130: FF FF 7F 5B 00 80 F8 FF  FF 7F F8 FF FF 7F 62 61  ...[..........ba
0140: 6E 30 53 F8 FF FF 7F F8  FF FF 7F 62 61 6E 30 7C  n0S........ban0|
0150: 01 F8 FF FF 7F 00                                 ......          
```

#### Opcodes

```
  0: 0x012D [0x7C] EventEntity->Render.Flags2 |= 0x00
  1: 0x0133 [0x5B] LOAD_EXT_SCHEDULER: Load scheduler "ban0" with entities [EventEntity, EventEntity], work=85*
  2: 0x0142 [0x53] WAIT_SCHEDULER_TASK: Wait for scheduler "ban0" with entities [EventEntity, EventEntity]
  3: 0x014F [0x7C] EventEntity->Render.Flags2 |= 0x01
  4: 0x0155 [0x00] END_REQSTACK()
```

### Event 65535.18

#### Metadata

| Field        | Value    |
|--------------|----------|
| Entrypoint   | 0x0156   |
| Data Size    | 16 bytes |
| Instructions | 2        |

```
      00 01 02 03 04 05 06 07  08 09 0A 0B 0C 0D 0E 0F
      -- -- -- -- -- -- -- --  -- -- -- -- -- -- -- --
0150:                   5B 00  80 F8 FF FF 7F F8 FF FF        [.........
0160: 7F 6B 6F 77 30 00                                 .kow0.          
```

#### Opcodes

```
  0: 0x0156 [0x5B] LOAD_EXT_SCHEDULER: Load scheduler "kow0" with entities [EventEntity, EventEntity], work=85*
  1: 0x0165 [0x00] END_REQSTACK()
```

### Event 65535.19

#### Metadata

| Field        | Value    |
|--------------|----------|
| Entrypoint   | 0x0166   |
| Data Size    | 22 bytes |
| Instructions | 4        |

```
      00 01 02 03 04 05 06 07  08 09 0A 0B 0C 0D 0E 0F
      -- -- -- -- -- -- -- --  -- -- -- -- -- -- -- --
0160:                   53 F8  FF FF 7F F8 FF FF 7F 6B        S........k
0170: 6F 77 30 5E 69 64 6C 30  1C 01 80 00              ow0^idl0....    
```

#### Opcodes

```
  0: 0x0166 [0x53] WAIT_SCHEDULER_TASK: Wait for scheduler "kow0" with entities [EventEntity, EventEntity]
  1: 0x0173 [0x5E] EventEntity goes idle (kills current action) (animation: "idl0")
  2: 0x0178 [0x1C] WAIT(30* ticks)
  3: 0x017B [0x00] END_REQSTACK()
```

### Event 65535.20

#### Metadata

| Field        | Value   |
|--------------|---------|
| Entrypoint   | 0x017C  |
| Data Size    | 9 bytes |
| Instructions | 3       |

```
      00 01 02 03 04 05 06 07  08 09 0A 0B 0C 0D 0E 0F
      -- -- -- -- -- -- -- --  -- -- -- -- -- -- -- --
0170:                                      5E 69 64 6C              ^idl
0180: 30 1C 01 80 00                                    0....           
```

#### Opcodes

```
  0: 0x017C [0x5E] EventEntity goes idle (kills current action) (animation: "idl0")
  1: 0x0181 [0x1C] WAIT(30* ticks)
  2: 0x0184 [0x00] END_REQSTACK()
```

### Event 362

#### Metadata

| Field        | Value    |
|--------------|----------|
| Entrypoint   | 0x0185   |
| Data Size    | 29 bytes |
| Instructions | 10       |

```
      00 01 02 03 04 05 06 07  08 09 0A 0B 0C 0D 0E 0F
      -- -- -- -- -- -- -- --  -- -- -- -- -- -- -- --
0180:                1E F0 FF  FF 7F 6F 70 29 08 53 00       .....op).S.
0190: 0F 01 09 1D 02 80 23 29  08 53 00 0F 01 0A 20 00  ......#).S.... .
01A0: 21 00                                             !.              
```

#### Opcodes

```
  0: 0x0185 [0x1E] EventEntity looks at LocalPlayer and starts talking
  1: 0x018A [0x6F] WAIT_FRAME_DELAY: Yield until WaitTime reaches zero
  2: 0x018B [0x70] WAIT_ENTITY_RENDER_FLAG: Wait while EventEntity->Render.Flags3 bit 2 is set (cancel turn if not)
  3: 0x018C [0x29] REQ_SET_WAIT(priority=0x08, entity_id=Papo-Hopo (ID: 17760339/0x010F0053), tag_num=0x09)
  4: 0x0193 [0x1D] PRINT_EVENT_MESSAGE(message_id=4161*)
    → "Da first wule!"
  5: 0x0196 [0x23] WAIT_FOR_DIALOG_INTERACTION
  6: 0x0197 [0x29] REQ_SET_WAIT(priority=0x08, entity_id=Papo-Hopo (ID: 17760339/0x010F0053), tag_num=0x0A)
  7: 0x019E [0x20] SET_CLI_EVENT_UC_FLAG: Unlock player control
  8: 0x01A0 [0x21] END_EVENT
  9: 0x01A1 [0x00] END_REQSTACK()
```

### Event 368

#### Metadata

| Field        | Value   |
|--------------|---------|
| Entrypoint   | 0x01A2  |
| Data Size    | 1 bytes |
| Instructions | 1       |

```
      00 01 02 03 04 05 06 07  08 09 0A 0B 0C 0D 0E 0F
      -- -- -- -- -- -- -- --  -- -- -- -- -- -- -- --
01A0:       00                                            .             
```

#### Opcodes

```
  0: 0x01A2 [0x00] END_REQSTACK()
```

### Event 65535.21

#### Metadata

| Field        | Value    |
|--------------|----------|
| Entrypoint   | 0x01A3   |
| Data Size    | 10 bytes |
| Instructions | 2        |

```
      00 01 02 03 04 05 06 07  08 09 0A 0B 0C 0D 0E 0F
      -- -- -- -- -- -- -- --  -- -- -- -- -- -- -- --
01A0:          37 03 80 04 80  05 80 06 80 00              7.........   
```

#### Opcodes

```
  0: 0x01A3 [0x37] UPDATE_EVENT_POSITION_AND_DIR: x=-23.113*, z=193.437*, y=-6.000*, direction=158.7°*
  1: 0x01AC [0x00] END_REQSTACK()
```

### Event 65535.22

#### Metadata

| Field        | Value    |
|--------------|----------|
| Entrypoint   | 0x01AD   |
| Data Size    | 35 bytes |
| Instructions | 9        |

```
      00 01 02 03 04 05 06 07  08 09 0A 0B 0C 0D 0E 0F
      -- -- -- -- -- -- -- --  -- -- -- -- -- -- -- --
01A0:                                         32 07 80               2..
01B0: 4B 53 00 0F 01 08 80 1C  09 80 1F 00 0A 80 0B 80  KS..............
01C0: 0C 80 1F 01 1F 00 0D 80  0E 80 0C 80 1F 01 6F 00  ..............o.
```

#### Opcodes

```
  0: 0x01AD [0x32] ExtData[1]->MainSpeed = 7* * 0.1
  1: 0x01B0 [0x4B] UPDATE_ENTITY_YAW(entity=Papo-Hopo (ID: 17760339/0x010F0053), yaw=11.0°*)
  2: 0x01B7 [0x1C] WAIT(50* ticks)
  3: 0x01BA [0x1F] MOVE_ENTITY: EventEntity moves to X=-30.032*, Z=191.935*, Y=-7.000*
  4: 0x01C2 [0x1F] MOVE_ENTITY: Update entity position (mode=1)
  5: 0x01C4 [0x1F] MOVE_ENTITY: EventEntity moves to X=-31.189*, Z=193.546*, Y=-7.000*
  6: 0x01CC [0x1F] MOVE_ENTITY: Update entity position (mode=1)
  7: 0x01CE [0x6F] WAIT_FRAME_DELAY: Yield until WaitTime reaches zero
  8: 0x01CF [0x00] END_REQSTACK()
```

### Event 65535.23

#### Metadata

| Field        | Value    |
|--------------|----------|
| Entrypoint   | 0x01D0   |
| Data Size    | 52 bytes |
| Instructions | 8        |

```
      00 01 02 03 04 05 06 07  08 09 0A 0B 0C 0D 0E 0F
      -- -- -- -- -- -- -- --  -- -- -- -- -- -- -- --
01D0: 4A 53 00 0F 01 F0 FF FF  7F 4A 54 00 0F 01 F0 FF  JS.......JT.....
01E0: FF 7F 4A 56 00 0F 01 F0  FF FF 7F 1C 09 80 4A 57  ..JV..........JW
01F0: 00 0F 01 F0 FF FF 7F 1C  09 80 4A 55 00 0F 01 F0  ..........JU....
0200: FF FF 7F 00                                       ....            
```

#### Opcodes

```
  0: 0x01D0 [0x4A] Papo-Hopo (ID: 17760339/0x010F0053) looks at LocalPlayer
  1: 0x01D9 [0x4A] Gomada-Vulmada (ID: 17760340/0x010F0054) looks at LocalPlayer
  2: 0x01E2 [0x4A] Yafa Yaa (ID: 17760342/0x010F0056) looks at LocalPlayer
  3: 0x01EB [0x1C] WAIT(50* ticks)
  4: 0x01EE [0x4A] Pyo Nzon (ID: 17760343/0x010F0057) looks at LocalPlayer
  5: 0x01F7 [0x1C] WAIT(50* ticks)
  6: 0x01FA [0x4A] Pichichi (ID: 17760341/0x010F0055) looks at LocalPlayer
  7: 0x0203 [0x00] END_REQSTACK()
```

### Event 65535.24

#### Metadata

| Field        | Value   |
|--------------|---------|
| Entrypoint   | 0x0204  |
| Data Size    | 5 bytes |
| Instructions | 3       |

```
      00 01 02 03 04 05 06 07  08 09 0A 0B 0C 0D 0E 0F
      -- -- -- -- -- -- -- --  -- -- -- -- -- -- -- --
0200:             1D 0F 80 23  00                           ...#.       
```

#### Opcodes

```
  0: 0x0204 [0x1D] PRINT_EVENT_MESSAGE(message_id=4174*)
    → "Da Star Onion Bwigade are invincible!"
  1: 0x0207 [0x23] WAIT_FOR_DIALOG_INTERACTION
  2: 0x0208 [0x00] END_REQSTACK()
```

### Event 65535.25

#### Metadata

| Field        | Value    |
|--------------|----------|
| Entrypoint   | 0x0209   |
| Data Size    | 19 bytes |
| Instructions | 5        |

```
      00 01 02 03 04 05 06 07  08 09 0A 0B 0C 0D 0E 0F
      -- -- -- -- -- -- -- --  -- -- -- -- -- -- -- --
0200:                             29 08 53 00 0F 01 01           ).S....
0210: 1D 10 80 23 29 08 53 00  0F 01 02 00              ...#).S.....    
```

#### Opcodes

```
  0: 0x0209 [0x29] REQ_SET_WAIT(priority=0x08, entity_id=Papo-Hopo (ID: 17760339/0x010F0053), tag_num=0x01)
  1: 0x0210 [0x1D] PRINT_EVENT_MESSAGE(message_id=4181*)
    → "Evewybody gadder togeder!"
  2: 0x0213 [0x23] WAIT_FOR_DIALOG_INTERACTION
  3: 0x0214 [0x29] REQ_SET_WAIT(priority=0x08, entity_id=Papo-Hopo (ID: 17760339/0x010F0053), tag_num=0x02)
  4: 0x021B [0x00] END_REQSTACK()
```

### Event 65535.26

#### Metadata

| Field        | Value    |
|--------------|----------|
| Entrypoint   | 0x021C   |
| Data Size    | 23 bytes |
| Instructions | 7        |

```
      00 01 02 03 04 05 06 07  08 09 0A 0B 0C 0D 0E 0F
      -- -- -- -- -- -- -- --  -- -- -- -- -- -- -- --
0210:                                      29 08 53 00              ).S.
0220: 0F 01 07 1D 11 80 23 1D  12 80 23 29 08 53 00 0F  ......#...#).S..
0230: 01 08 00                                          ...             
```

#### Opcodes

```
  0: 0x021C [0x29] REQ_SET_WAIT(priority=0x08, entity_id=Papo-Hopo (ID: 17760339/0x010F0053), tag_num=0x07)
  1: 0x0223 [0x1D] PRINT_EVENT_MESSAGE(message_id=4185*)
    → "(We can't let a gwown-up join dis gwoup!)"
  2: 0x0226 [0x23] WAIT_FOR_DIALOG_INTERACTION
  3: 0x0227 [0x1D] PRINT_EVENT_MESSAGE(message_id=4186*)
    → "(Dis gwoup was formed to oppose selfish gwown-ups.)"
  4: 0x022A [0x23] WAIT_FOR_DIALOG_INTERACTION
  5: 0x022B [0x29] REQ_SET_WAIT(priority=0x08, entity_id=Papo-Hopo (ID: 17760339/0x010F0053), tag_num=0x08)
  6: 0x0232 [0x00] END_REQSTACK()
```

### Event 372

#### Metadata

| Field        | Value    |
|--------------|----------|
| Entrypoint   | 0x0233   |
| Data Size    | 33 bytes |
| Instructions | 12       |

```
      00 01 02 03 04 05 06 07  08 09 0A 0B 0C 0D 0E 0F
      -- -- -- -- -- -- -- --  -- -- -- -- -- -- -- --
0230:          1E F0 FF FF 7F  6F 70 29 08 53 00 0F 01     .....op).S...
0240: 01 1D 13 80 23 1D 14 80  23 29 08 53 00 0F 01 02  ....#...#).S....
0250: 20 00 21 00                                        .!.            
```

#### Opcodes

```
  0: 0x0233 [0x1E] EventEntity looks at LocalPlayer and starts talking
  1: 0x0238 [0x6F] WAIT_FRAME_DELAY: Yield until WaitTime reaches zero
  2: 0x0239 [0x70] WAIT_ENTITY_RENDER_FLAG: Wait while EventEntity->Render.Flags3 bit 2 is set (cancel turn if not)
  3: 0x023A [0x29] REQ_SET_WAIT(priority=0x08, entity_id=Papo-Hopo (ID: 17760339/0x010F0053), tag_num=0x01)
  4: 0x0241 [0x1D] PRINT_EVENT_MESSAGE(message_id=4201*)
    → "Pichichi's mother wuns the hostelwy in Windurst Waters, wight?"
  5: 0x0244 [0x23] WAIT_FOR_DIALOG_INTERACTION
  6: 0x0245 [0x1D] PRINT_EVENT_MESSAGE(message_id=4202*)
    → "Maybe dat's a clue as to what kind of tail she wants?"
  7: 0x0248 [0x23] WAIT_FOR_DIALOG_INTERACTION
  8: 0x0249 [0x29] REQ_SET_WAIT(priority=0x08, entity_id=Papo-Hopo (ID: 17760339/0x010F0053), tag_num=0x02)
  9: 0x0250 [0x20] SET_CLI_EVENT_UC_FLAG: Unlock player control
 10: 0x0252 [0x21] END_EVENT
 11: 0x0253 [0x00] END_REQSTACK()
```

### Event 380

#### Metadata

| Field        | Value    |
|--------------|----------|
| Entrypoint   | 0x0254   |
| Data Size    | 33 bytes |
| Instructions | 12       |

```
      00 01 02 03 04 05 06 07  08 09 0A 0B 0C 0D 0E 0F
      -- -- -- -- -- -- -- --  -- -- -- -- -- -- -- --
0250:             1E F0 FF FF  7F 6F 70 29 08 53 00 0F      .....op).S..
0260: 01 01 1D 15 80 23 1D 16  80 23 29 08 53 00 0F 01  .....#...#).S...
0270: 02 20 00 21 00                                    . .!.           
```

#### Opcodes

```
  0: 0x0254 [0x1E] EventEntity looks at LocalPlayer and starts talking
  1: 0x0259 [0x6F] WAIT_FRAME_DELAY: Yield until WaitTime reaches zero
  2: 0x025A [0x70] WAIT_ENTITY_RENDER_FLAG: Wait while EventEntity->Render.Flags3 bit 2 is set (cancel turn if not)
  3: 0x025B [0x29] REQ_SET_WAIT(priority=0x08, entity_id=Papo-Hopo (ID: 17760339/0x010F0053), tag_num=0x01)
  4: 0x0262 [0x1D] PRINT_EVENT_MESSAGE(message_id=4224*)
    → "I told dem dat we don't need no adults in our bwigade, but dey wouldn't listen to me!"
  5: 0x0265 [0x23] WAIT_FOR_DIALOG_INTERACTION
  6: 0x0266 [0x1D] PRINT_EVENT_MESSAGE(message_id=4225*)
    → "Dis Star Onion Bwigade was formed to cowwect da wrong-doings of adults and was supposed to be a secwet club!"
  7: 0x0269 [0x23] WAIT_FOR_DIALOG_INTERACTION
  8: 0x026A [0x29] REQ_SET_WAIT(priority=0x08, entity_id=Papo-Hopo (ID: 17760339/0x010F0053), tag_num=0x02)
  9: 0x0271 [0x20] SET_CLI_EVENT_UC_FLAG: Unlock player control
 10: 0x0273 [0x21] END_EVENT
 11: 0x0274 [0x00] END_REQSTACK()
```

### Event 378

#### Metadata

| Field        | Value   |
|--------------|---------|
| Entrypoint   | 0x0275  |
| Data Size    | 1 bytes |
| Instructions | 1       |

```
      00 01 02 03 04 05 06 07  08 09 0A 0B 0C 0D 0E 0F
      -- -- -- -- -- -- -- --  -- -- -- -- -- -- -- --
0270:                00                                      .          
```

#### Opcodes

```
  0: 0x0275 [0x00] END_REQSTACK()
```

### Event 391

#### Metadata

| Field        | Value   |
|--------------|---------|
| Entrypoint   | 0x0276  |
| Data Size    | 1 bytes |
| Instructions | 1       |

```
      00 01 02 03 04 05 06 07  08 09 0A 0B 0C 0D 0E 0F
      -- -- -- -- -- -- -- --  -- -- -- -- -- -- -- --
0270:                   00                                    .         
```

#### Opcodes

```
  0: 0x0276 [0x00] END_REQSTACK()
```

### Event 65535.27

#### Metadata

| Field        | Value    |
|--------------|----------|
| Entrypoint   | 0x0277   |
| Data Size    | 33 bytes |
| Instructions | 7        |

```
      00 01 02 03 04 05 06 07  08 09 0A 0B 0C 0D 0E 0F
      -- -- -- -- -- -- -- --  -- -- -- -- -- -- -- --
0270:                      29  08 53 00 0F 01 03 1D 17         ).S......
0280: 80 23 29 08 53 00 0F 01  04 29 08 53 00 0F 01 05  .#).S....).S....
0290: 29 08 53 00 0F 01 06 00                           ).S.....        
```

#### Opcodes

```
  0: 0x0277 [0x29] REQ_SET_WAIT(priority=0x08, entity_id=Papo-Hopo (ID: 17760339/0x010F0053), tag_num=0x03)
  1: 0x027E [0x1D] PRINT_EVENT_MESSAGE(message_id=4255*)
    → "Da ghosty house in Windurst Walls...? Wasn't dat owiginally supposed to be de doctor's wesidence for the minister of de Optistewy?"
  2: 0x0281 [0x23] WAIT_FOR_DIALOG_INTERACTION
  3: 0x0282 [0x29] REQ_SET_WAIT(priority=0x08, entity_id=Papo-Hopo (ID: 17760339/0x010F0053), tag_num=0x04)
  4: 0x0289 [0x29] REQ_SET_WAIT(priority=0x08, entity_id=Papo-Hopo (ID: 17760339/0x010F0053), tag_num=0x05)
  5: 0x0290 [0x29] REQ_SET_WAIT(priority=0x08, entity_id=Papo-Hopo (ID: 17760339/0x010F0053), tag_num=0x06)
  6: 0x0297 [0x00] END_REQSTACK()
```

### Event 393

#### Metadata

| Field        | Value    |
|--------------|----------|
| Entrypoint   | 0x0298   |
| Data Size    | 33 bytes |
| Instructions | 12       |

```
      00 01 02 03 04 05 06 07  08 09 0A 0B 0C 0D 0E 0F
      -- -- -- -- -- -- -- --  -- -- -- -- -- -- -- --
0290:                          1E F0 FF FF 7F 6F 70 29          .....op)
02A0: 08 53 00 0F 01 01 1D 18  80 23 1D 19 80 23 29 08  .S.......#...#).
02B0: 53 00 0F 01 02 20 00 21  00                       S.... .!.       
```

#### Opcodes

```
  0: 0x0298 [0x1E] EventEntity looks at LocalPlayer and starts talking
  1: 0x029D [0x6F] WAIT_FRAME_DELAY: Yield until WaitTime reaches zero
  2: 0x029E [0x70] WAIT_ENTITY_RENDER_FLAG: Wait while EventEntity->Render.Flags3 bit 2 is set (cancel turn if not)
  3: 0x029F [0x29] REQ_SET_WAIT(priority=0x08, entity_id=Papo-Hopo (ID: 17760339/0x010F0053), tag_num=0x01)
  4: 0x02A6 [0x1D] PRINT_EVENT_MESSAGE(message_id=4271*)
    → "Dis looks like a job for my twusty Super Onion Staff--a legendawy weapon dat has been handed down in my family since my gwandfather's day!"
  5: 0x02A9 [0x23] WAIT_FOR_DIALOG_INTERACTION
  6: 0x02AA [0x1D] PRINT_EVENT_MESSAGE(message_id=4272*)
    → "Ha-haa! Just you wait, Cat Burglar! You'll be no match for me and my staff!"
  7: 0x02AD [0x23] WAIT_FOR_DIALOG_INTERACTION
  8: 0x02AE [0x29] REQ_SET_WAIT(priority=0x08, entity_id=Papo-Hopo (ID: 17760339/0x010F0053), tag_num=0x02)
  9: 0x02B5 [0x20] SET_CLI_EVENT_UC_FLAG: Unlock player control
 10: 0x02B7 [0x21] END_EVENT
 11: 0x02B8 [0x00] END_REQSTACK()
```

### Event 65535.28

#### Metadata

| Field        | Value    |
|--------------|----------|
| Entrypoint   | 0x02B9   |
| Data Size    | 19 bytes |
| Instructions | 5        |

```
      00 01 02 03 04 05 06 07  08 09 0A 0B 0C 0D 0E 0F
      -- -- -- -- -- -- -- --  -- -- -- -- -- -- -- --
02B0:                             29 08 53 00 0F 01 0D           ).S....
02C0: 1D 1A 80 23 29 08 53 00  0F 01 0E 00              ...#).S.....    
```

#### Opcodes

```
  0: 0x02B9 [0x29] REQ_SET_WAIT(priority=0x08, entity_id=Papo-Hopo (ID: 17760339/0x010F0053), tag_num=0x0D)
  1: 0x02C0 [0x1D] PRINT_EVENT_MESSAGE(message_id=4291*)
    → "I know what dat ball is! Dat's a Mana Orb! It's da heart of a Cardian!"
  2: 0x02C3 [0x23] WAIT_FOR_DIALOG_INTERACTION
  3: 0x02C4 [0x29] REQ_SET_WAIT(priority=0x08, entity_id=Papo-Hopo (ID: 17760339/0x010F0053), tag_num=0x0E)
  4: 0x02CB [0x00] END_REQSTACK()
```

### Event 65535.29

#### Metadata

| Field        | Value    |
|--------------|----------|
| Entrypoint   | 0x02CC   |
| Data Size    | 33 bytes |
| Instructions | 7        |

```
      00 01 02 03 04 05 06 07  08 09 0A 0B 0C 0D 0E 0F
      -- -- -- -- -- -- -- --  -- -- -- -- -- -- -- --
02C0:                                      29 08 53 00              ).S.
02D0: 0F 01 03 1D 1B 80 23 29  08 53 00 0F 01 04 29 08  ......#).S....).
02E0: 53 00 0F 01 05 29 08 53  00 0F 01 06 00           S....).S.....   
```

#### Opcodes

```
  0: 0x02CC [0x29] REQ_SET_WAIT(priority=0x08, entity_id=Papo-Hopo (ID: 17760339/0x010F0053), tag_num=0x03)
  1: 0x02D3 [0x1D] PRINT_EVENT_MESSAGE(message_id=4292*)
    → "But Mana Orbs are closely contwolled by da people in charge of da Cardian workshop in da Manustewy! For it to be lying awound dere must mean dat da Cat Burglar had it in her possession...!"
  2: 0x02D6 [0x23] WAIT_FOR_DIALOG_INTERACTION
  3: 0x02D7 [0x29] REQ_SET_WAIT(priority=0x08, entity_id=Papo-Hopo (ID: 17760339/0x010F0053), tag_num=0x04)
  4: 0x02DE [0x29] REQ_SET_WAIT(priority=0x08, entity_id=Papo-Hopo (ID: 17760339/0x010F0053), tag_num=0x05)
  5: 0x02E5 [0x29] REQ_SET_WAIT(priority=0x08, entity_id=Papo-Hopo (ID: 17760339/0x010F0053), tag_num=0x06)
  6: 0x02EC [0x00] END_REQSTACK()
```

### Event 400

#### Metadata

| Field        | Value   |
|--------------|---------|
| Entrypoint   | 0x02ED  |
| Data Size    | 1 bytes |
| Instructions | 1       |

```
      00 01 02 03 04 05 06 07  08 09 0A 0B 0C 0D 0E 0F
      -- -- -- -- -- -- -- --  -- -- -- -- -- -- -- --
02E0:                                         00                     .  
```

#### Opcodes

```
  0: 0x02ED [0x00] END_REQSTACK()
```

### Event 402

#### Metadata

| Field        | Value    |
|--------------|----------|
| Entrypoint   | 0x02EE   |
| Data Size    | 29 bytes |
| Instructions | 10       |

```
      00 01 02 03 04 05 06 07  08 09 0A 0B 0C 0D 0E 0F
      -- -- -- -- -- -- -- --  -- -- -- -- -- -- -- --
02E0:                                            1E F0                ..
02F0: FF FF 7F 6F 70 29 08 53  00 0F 01 01 1D 1C 80 23  ...op).S.......#
0300: 29 08 53 00 0F 01 02 20  00 21 00                 ).S.... .!.     
```

#### Opcodes

```
  0: 0x02EE [0x1E] EventEntity looks at LocalPlayer and starts talking
  1: 0x02F3 [0x6F] WAIT_FRAME_DELAY: Yield until WaitTime reaches zero
  2: 0x02F4 [0x70] WAIT_ENTITY_RENDER_FLAG: Wait while EventEntity->Render.Flags3 bit 2 is set (cancel turn if not)
  3: 0x02F5 [0x29] REQ_SET_WAIT(priority=0x08, entity_id=Papo-Hopo (ID: 17760339/0x010F0053), tag_num=0x01)
  4: 0x02FC [0x1D] PRINT_EVENT_MESSAGE(message_id=4297*)
    → "<huff><puff> Ha... Hah... I'm exhausted!"
  5: 0x02FF [0x23] WAIT_FOR_DIALOG_INTERACTION
  6: 0x0300 [0x29] REQ_SET_WAIT(priority=0x08, entity_id=Papo-Hopo (ID: 17760339/0x010F0053), tag_num=0x02)
  7: 0x0307 [0x20] SET_CLI_EVENT_UC_FLAG: Unlock player control
  8: 0x0309 [0x21] END_EVENT
  9: 0x030A [0x00] END_REQSTACK()
```

### Event 403

#### Metadata

| Field        | Value    |
|--------------|----------|
| Entrypoint   | 0x030B   |
| Data Size    | 33 bytes |
| Instructions | 12       |

```
      00 01 02 03 04 05 06 07  08 09 0A 0B 0C 0D 0E 0F
      -- -- -- -- -- -- -- --  -- -- -- -- -- -- -- --
0300:                                   1E F0 FF FF 7F             .....
0310: 6F 70 29 08 53 00 0F 01  01 1D 1D 80 23 1D 1E 80  op).S.......#...
0320: 23 29 08 53 00 0F 01 02  20 00 21 00              #).S.... .!.    
```

#### Opcodes

```
  0: 0x030B [0x1E] EventEntity looks at LocalPlayer and starts talking
  1: 0x0310 [0x6F] WAIT_FRAME_DELAY: Yield until WaitTime reaches zero
  2: 0x0311 [0x70] WAIT_ENTITY_RENDER_FLAG: Wait while EventEntity->Render.Flags3 bit 2 is set (cancel turn if not)
  3: 0x0312 [0x29] REQ_SET_WAIT(priority=0x08, entity_id=Papo-Hopo (ID: 17760339/0x010F0053), tag_num=0x01)
  4: 0x0319 [0x1D] PRINT_EVENT_MESSAGE(message_id=4298*)
    → "We oughta check into dat ghosty house a little more..."
  5: 0x031C [0x23] WAIT_FOR_DIALOG_INTERACTION
  6: 0x031D [0x1D] PRINT_EVENT_MESSAGE(message_id=4299*)
    → "But we don't know how much of what gwown-ups tell us is twue or just stowies. No one can twust adults in dis sad world of ours!"
  7: 0x0320 [0x23] WAIT_FOR_DIALOG_INTERACTION
  8: 0x0321 [0x29] REQ_SET_WAIT(priority=0x08, entity_id=Papo-Hopo (ID: 17760339/0x010F0053), tag_num=0x02)
  9: 0x0328 [0x20] SET_CLI_EVENT_UC_FLAG: Unlock player control
 10: 0x032A [0x21] END_EVENT
 11: 0x032B [0x00] END_REQSTACK()
```

### Event 386

#### Metadata

| Field        | Value   |
|--------------|---------|
| Entrypoint   | 0x032C  |
| Data Size    | 1 bytes |
| Instructions | 1       |

```
      00 01 02 03 04 05 06 07  08 09 0A 0B 0C 0D 0E 0F
      -- -- -- -- -- -- -- --  -- -- -- -- -- -- -- --
0320:                                      00                       .   
```

#### Opcodes

```
  0: 0x032C [0x00] END_REQSTACK()
```

### Event 390

#### Metadata

| Field        | Value   |
|--------------|---------|
| Entrypoint   | 0x032D  |
| Data Size    | 1 bytes |
| Instructions | 1       |

```
      00 01 02 03 04 05 06 07  08 09 0A 0B 0C 0D 0E 0F
      -- -- -- -- -- -- -- --  -- -- -- -- -- -- -- --
0320:                                         00                     .  
```

#### Opcodes

```
  0: 0x032D [0x00] END_REQSTACK()
```

### Event 413

#### Metadata

| Field        | Value   |
|--------------|---------|
| Entrypoint   | 0x032E  |
| Data Size    | 1 bytes |
| Instructions | 1       |

```
      00 01 02 03 04 05 06 07  08 09 0A 0B 0C 0D 0E 0F
      -- -- -- -- -- -- -- --  -- -- -- -- -- -- -- --
0320:                                            00                   . 
```

#### Opcodes

```
  0: 0x032E [0x00] END_REQSTACK()
```

### Event 416

#### Metadata

| Field        | Value    |
|--------------|----------|
| Entrypoint   | 0x032F   |
| Data Size    | 29 bytes |
| Instructions | 10       |

```
      00 01 02 03 04 05 06 07  08 09 0A 0B 0C 0D 0E 0F
      -- -- -- -- -- -- -- --  -- -- -- -- -- -- -- --
0320:                                               1E                 .
0330: F0 FF FF 7F 6F 70 29 08  53 00 0F 01 01 1D 1F 80  ....op).S.......
0340: 23 29 08 53 00 0F 01 02  20 00 21 00              #).S.... .!.    
```

#### Opcodes

```
  0: 0x032F [0x1E] EventEntity looks at LocalPlayer and starts talking
  1: 0x0334 [0x6F] WAIT_FRAME_DELAY: Yield until WaitTime reaches zero
  2: 0x0335 [0x70] WAIT_ENTITY_RENDER_FLAG: Wait while EventEntity->Render.Flags3 bit 2 is set (cancel turn if not)
  3: 0x0336 [0x29] REQ_SET_WAIT(priority=0x08, entity_id=Papo-Hopo (ID: 17760339/0x010F0053), tag_num=0x01)
  4: 0x033D [0x1D] PRINT_EVENT_MESSAGE(message_id=4328*)
    → "In times like dese, you need a magnifying glass! Dat's elementawy, my dear Watson-wotson! Ahem..."
  5: 0x0340 [0x23] WAIT_FOR_DIALOG_INTERACTION
  6: 0x0341 [0x29] REQ_SET_WAIT(priority=0x08, entity_id=Papo-Hopo (ID: 17760339/0x010F0053), tag_num=0x02)
  7: 0x0348 [0x20] SET_CLI_EVENT_UC_FLAG: Unlock player control
  8: 0x034A [0x21] END_EVENT
  9: 0x034B [0x00] END_REQSTACK()
```

### Event 421

#### Metadata

| Field        | Value   |
|--------------|---------|
| Entrypoint   | 0x034C  |
| Data Size    | 1 bytes |
| Instructions | 1       |

```
      00 01 02 03 04 05 06 07  08 09 0A 0B 0C 0D 0E 0F
      -- -- -- -- -- -- -- --  -- -- -- -- -- -- -- --
0340:                                      00                       .   
```

#### Opcodes

```
  0: 0x034C [0x00] END_REQSTACK()
```

### Event 65535.30

#### Metadata

| Field        | Value    |
|--------------|----------|
| Entrypoint   | 0x034D   |
| Data Size    | 10 bytes |
| Instructions | 2        |

```
      00 01 02 03 04 05 06 07  08 09 0A 0B 0C 0D 0E 0F
      -- -- -- -- -- -- -- --  -- -- -- -- -- -- -- --
0340:                                         37 20 80               7 .
0350: 21 80 22 80 23 80 00                              !.".#..         
```

#### Opcodes

```
  0: 0x034D [0x37] UPDATE_EVENT_POSITION_AND_DIR: x=-26.802*, z=191.116*, y=-5.999*, direction=352.7°*
  1: 0x0356 [0x00] END_REQSTACK()
```

### Event 65535.31

#### Metadata

| Field        | Value    |
|--------------|----------|
| Entrypoint   | 0x0357   |
| Data Size    | 33 bytes |
| Instructions | 7        |

```
      00 01 02 03 04 05 06 07  08 09 0A 0B 0C 0D 0E 0F
      -- -- -- -- -- -- -- --  -- -- -- -- -- -- -- --
0350:                      29  08 53 00 0F 01 03 1D 24         ).S.....$
0360: 80 23 29 08 53 00 0F 01  04 29 08 53 00 0F 01 05  .#).S....).S....
0370: 29 08 53 00 0F 01 06 00                           ).S.....        
```

#### Opcodes

```
  0: 0x0357 [0x29] REQ_SET_WAIT(priority=0x08, entity_id=Papo-Hopo (ID: 17760339/0x010F0053), tag_num=0x03)
  1: 0x035E [0x1D] PRINT_EVENT_MESSAGE(message_id=4340*)
    → "So da cwime was committed by one of us! Dis is an intwiguing turn of events!"
  2: 0x0361 [0x23] WAIT_FOR_DIALOG_INTERACTION
  3: 0x0362 [0x29] REQ_SET_WAIT(priority=0x08, entity_id=Papo-Hopo (ID: 17760339/0x010F0053), tag_num=0x04)
  4: 0x0369 [0x29] REQ_SET_WAIT(priority=0x08, entity_id=Papo-Hopo (ID: 17760339/0x010F0053), tag_num=0x05)
  5: 0x0370 [0x29] REQ_SET_WAIT(priority=0x08, entity_id=Papo-Hopo (ID: 17760339/0x010F0053), tag_num=0x06)
  6: 0x0377 [0x00] END_REQSTACK()
```

### Event 424

#### Metadata

| Field        | Value    |
|--------------|----------|
| Entrypoint   | 0x0378   |
| Data Size    | 33 bytes |
| Instructions | 12       |

```
      00 01 02 03 04 05 06 07  08 09 0A 0B 0C 0D 0E 0F
      -- -- -- -- -- -- -- --  -- -- -- -- -- -- -- --
0370:                          1E F0 FF FF 7F 6F 70 29          .....op)
0380: 08 53 00 0F 01 01 1D 25  80 23 1D 26 80 23 29 08  .S.....%.#.&.#).
0390: 53 00 0F 01 02 20 00 21  00                       S.... .!.       
```

#### Opcodes

```
  0: 0x0378 [0x1E] EventEntity looks at LocalPlayer and starts talking
  1: 0x037D [0x6F] WAIT_FRAME_DELAY: Yield until WaitTime reaches zero
  2: 0x037E [0x70] WAIT_ENTITY_RENDER_FLAG: Wait while EventEntity->Render.Flags3 bit 2 is set (cancel turn if not)
  3: 0x037F [0x29] REQ_SET_WAIT(priority=0x08, entity_id=Papo-Hopo (ID: 17760339/0x010F0053), tag_num=0x01)
  4: 0x0386 [0x1D] PRINT_EVENT_MESSAGE(message_id=4349*)
    → "I'm disappointed dat I didn't get to show off my mega-fly magnifying glass."
  5: 0x0389 [0x23] WAIT_FOR_DIALOG_INTERACTION
  6: 0x038A [0x1D] PRINT_EVENT_MESSAGE(message_id=4350*)
    → "Did you know that if I aim my magnifying glass at dwy leaves dey cwickle-cwackle until dey suddenly burst into flames!"
  7: 0x038D [0x23] WAIT_FOR_DIALOG_INTERACTION
  8: 0x038E [0x29] REQ_SET_WAIT(priority=0x08, entity_id=Papo-Hopo (ID: 17760339/0x010F0053), tag_num=0x02)
  9: 0x0395 [0x20] SET_CLI_EVENT_UC_FLAG: Unlock player control
 10: 0x0397 [0x21] END_EVENT
 11: 0x0398 [0x00] END_REQSTACK()
```

### Event 430

#### Metadata

| Field        | Value   |
|--------------|---------|
| Entrypoint   | 0x0399  |
| Data Size    | 1 bytes |
| Instructions | 1       |

```
      00 01 02 03 04 05 06 07  08 09 0A 0B 0C 0D 0E 0F
      -- -- -- -- -- -- -- --  -- -- -- -- -- -- -- --
0390:                             00                             .      
```

#### Opcodes

```
  0: 0x0399 [0x00] END_REQSTACK()
```

### Event 432

#### Metadata

| Field        | Value   |
|--------------|---------|
| Entrypoint   | 0x039A  |
| Data Size    | 1 bytes |
| Instructions | 1       |

```
      00 01 02 03 04 05 06 07  08 09 0A 0B 0C 0D 0E 0F
      -- -- -- -- -- -- -- --  -- -- -- -- -- -- -- --
0390:                                00                           .     
```

#### Opcodes

```
  0: 0x039A [0x00] END_REQSTACK()
```

### Event 433

#### Metadata

| Field        | Value   |
|--------------|---------|
| Entrypoint   | 0x039B  |
| Data Size    | 1 bytes |
| Instructions | 1       |

```
      00 01 02 03 04 05 06 07  08 09 0A 0B 0C 0D 0E 0F
      -- -- -- -- -- -- -- --  -- -- -- -- -- -- -- --
0390:                                   00                         .    
```

#### Opcodes

```
  0: 0x039B [0x00] END_REQSTACK()
```

### Event 434

#### Metadata

| Field        | Value    |
|--------------|----------|
| Entrypoint   | 0x039C   |
| Data Size    | 33 bytes |
| Instructions | 12       |

```
      00 01 02 03 04 05 06 07  08 09 0A 0B 0C 0D 0E 0F
      -- -- -- -- -- -- -- --  -- -- -- -- -- -- -- --
0390:                                      1E F0 FF FF              ....
03A0: 7F 6F 70 29 08 53 00 0F  01 01 1D 27 80 23 1D 28  .op).S.....'.#.(
03B0: 80 23 29 08 53 00 0F 01  02 20 00 21 00           .#).S.... .!.   
```

#### Opcodes

```
  0: 0x039C [0x1E] EventEntity looks at LocalPlayer and starts talking
  1: 0x03A1 [0x6F] WAIT_FRAME_DELAY: Yield until WaitTime reaches zero
  2: 0x03A2 [0x70] WAIT_ENTITY_RENDER_FLAG: Wait while EventEntity->Render.Flags3 bit 2 is set (cancel turn if not)
  3: 0x03A3 [0x29] REQ_SET_WAIT(priority=0x08, entity_id=Papo-Hopo (ID: 17760339/0x010F0053), tag_num=0x01)
  4: 0x03AA [0x1D] PRINT_EVENT_MESSAGE(message_id=4377*)
    → "We don't need any stwategies 'cause we have da twaps and other devices dat we'd been pweparing especially for dis day."
  5: 0x03AD [0x23] WAIT_FOR_DIALOG_INTERACTION
  6: 0x03AE [0x1D] PRINT_EVENT_MESSAGE(message_id=4378*)
    → "A-hah... I have a feeling dat we'll catch da Cat Burglar for sure today!"
  7: 0x03B1 [0x23] WAIT_FOR_DIALOG_INTERACTION
  8: 0x03B2 [0x29] REQ_SET_WAIT(priority=0x08, entity_id=Papo-Hopo (ID: 17760339/0x010F0053), tag_num=0x02)
  9: 0x03B9 [0x20] SET_CLI_EVENT_UC_FLAG: Unlock player control
 10: 0x03BB [0x21] END_EVENT
 11: 0x03BC [0x00] END_REQSTACK()
```

### Event 441

#### Metadata

| Field        | Value    |
|--------------|----------|
| Entrypoint   | 0x03BD   |
| Data Size    | 33 bytes |
| Instructions | 12       |

```
      00 01 02 03 04 05 06 07  08 09 0A 0B 0C 0D 0E 0F
      -- -- -- -- -- -- -- --  -- -- -- -- -- -- -- --
03B0:                                         1E F0 FF               ...
03C0: FF 7F 6F 70 29 08 53 00  0F 01 01 1D 29 80 23 1D  ..op).S.....).#.
03D0: 2A 80 23 29 08 53 00 0F  01 02 20 00 21 00        *.#).S.... .!.  
```

#### Opcodes

```
  0: 0x03BD [0x1E] EventEntity looks at LocalPlayer and starts talking
  1: 0x03C2 [0x6F] WAIT_FRAME_DELAY: Yield until WaitTime reaches zero
  2: 0x03C3 [0x70] WAIT_ENTITY_RENDER_FLAG: Wait while EventEntity->Render.Flags3 bit 2 is set (cancel turn if not)
  3: 0x03C4 [0x29] REQ_SET_WAIT(priority=0x08, entity_id=Papo-Hopo (ID: 17760339/0x010F0053), tag_num=0x01)
  4: 0x03CB [0x1D] PRINT_EVENT_MESSAGE(message_id=4389*)
    → "We've got dat Cardian, Joker, hiding away."
  5: 0x03CE [0x23] WAIT_FOR_DIALOG_INTERACTION
  6: 0x03CF [0x1D] PRINT_EVENT_MESSAGE(message_id=4390*)
    → "If any gwown-ups find him, dey'll take him away to the Manustewy. We can't allow dat to happen...not until we solve Joker's mystewy."
  7: 0x03D2 [0x23] WAIT_FOR_DIALOG_INTERACTION
  8: 0x03D3 [0x29] REQ_SET_WAIT(priority=0x08, entity_id=Papo-Hopo (ID: 17760339/0x010F0053), tag_num=0x02)
  9: 0x03DA [0x20] SET_CLI_EVENT_UC_FLAG: Unlock player control
 10: 0x03DC [0x21] END_EVENT
 11: 0x03DD [0x00] END_REQSTACK()
```

### Event 324

#### Metadata

| Field        | Value   |
|--------------|---------|
| Entrypoint   | 0x03DE  |
| Data Size    | 1 bytes |
| Instructions | 1       |

```
      00 01 02 03 04 05 06 07  08 09 0A 0B 0C 0D 0E 0F
      -- -- -- -- -- -- -- --  -- -- -- -- -- -- -- --
03D0:                                            00                   . 
```

#### Opcodes

```
  0: 0x03DE [0x00] END_REQSTACK()
```

### Event 65535.32

#### Metadata

| Field        | Value    |
|--------------|----------|
| Entrypoint   | 0x03DF   |
| Data Size    | 10 bytes |
| Instructions | 2        |

```
      00 01 02 03 04 05 06 07  08 09 0A 0B 0C 0D 0E 0F
      -- -- -- -- -- -- -- --  -- -- -- -- -- -- -- --
03D0:                                               37                 7
03E0: 2B 80 2C 80 2D 80 2E 80  00                       +.,.-....       
```

#### Opcodes

```
  0: 0x03DF [0x37] UPDATE_EVENT_POSITION_AND_DIR: x=-25.807*, z=271.826*, y=-12.000*, direction=96.1°*
  1: 0x03E8 [0x00] END_REQSTACK()
```

### Event 65535.33

#### Metadata

| Field        | Value    |
|--------------|----------|
| Entrypoint   | 0x03E9   |
| Data Size    | 27 bytes |
| Instructions | 7        |

```
      00 01 02 03 04 05 06 07  08 09 0A 0B 0C 0D 0E 0F
      -- -- -- -- -- -- -- --  -- -- -- -- -- -- -- --
03E0:                             37 2F 80 30 80 31 80           7/.0.1.
03F0: 32 80 32 33 80 1F 00 34  80 35 80 2D 80 1F 01 6F  2.23...4.5.-...o
0400: 39 36 80 00                                       96..            
```

#### Opcodes

```
  0: 0x03E9 [0x37] UPDATE_EVENT_POSITION_AND_DIR: x=-25.654*, z=265.520*, y=-12.743*, direction=272.8°*
  1: 0x03F2 [0x32] ExtData[1]->MainSpeed = 21* * 0.1
  2: 0x03F5 [0x1F] MOVE_ENTITY: EventEntity moves to X=-24.337*, Z=270.813*, Y=-12.000*
  3: 0x03FD [0x1F] MOVE_ENTITY: Update entity position (mode=1)
  4: 0x03FF [0x6F] WAIT_FRAME_DELAY: Yield until WaitTime reaches zero
  5: 0x0400 [0x39] SET_ENTITY_DIRECTION(direction=18.9°*)
  6: 0x0403 [0x00] END_REQSTACK()
```

### Event 65535.34

#### Metadata

| Field        | Value    |
|--------------|----------|
| Entrypoint   | 0x0404   |
| Data Size    | 49 bytes |
| Instructions | 9        |

```
      00 01 02 03 04 05 06 07  08 09 0A 0B 0C 0D 0E 0F
      -- -- -- -- -- -- -- --  -- -- -- -- -- -- -- --
0400:             1C 37 80 4A  53 00 0F 01 5A 00 0F 01      .7.JS...Z...
0410: 1C 09 80 4A 53 00 0F 01  5A 00 0F 01 1C 37 80 4A  ...JS...Z....7.J
0420: 53 00 0F 01 5A 00 0F 01  1C 09 80 4A 53 00 0F 01  S...Z......JS...
0430: 5A 00 0F 01 00                                    Z....           
```

#### Opcodes

```
  0: 0x0404 [0x1C] WAIT(100* ticks)
  1: 0x0407 [0x4A] Papo-Hopo (ID: 17760339/0x010F0053) looks at Nanaa Mihgo (ID: 17760346/0x010F005A)
  2: 0x0410 [0x1C] WAIT(50* ticks)
  3: 0x0413 [0x4A] Papo-Hopo (ID: 17760339/0x010F0053) looks at Nanaa Mihgo (ID: 17760346/0x010F005A)
  4: 0x041C [0x1C] WAIT(100* ticks)
  5: 0x041F [0x4A] Papo-Hopo (ID: 17760339/0x010F0053) looks at Nanaa Mihgo (ID: 17760346/0x010F005A)
  6: 0x0428 [0x1C] WAIT(50* ticks)
  7: 0x042B [0x4A] Papo-Hopo (ID: 17760339/0x010F0053) looks at Nanaa Mihgo (ID: 17760346/0x010F005A)
  8: 0x0434 [0x00] END_REQSTACK()
```

### Event 65535.35

#### Metadata

| Field        | Value    |
|--------------|----------|
| Entrypoint   | 0x0435   |
| Data Size    | 19 bytes |
| Instructions | 5        |

```
      00 01 02 03 04 05 06 07  08 09 0A 0B 0C 0D 0E 0F
      -- -- -- -- -- -- -- --  -- -- -- -- -- -- -- --
0430:                29 08 53  00 0F 01 01 1D 38 80 23       ).S.....8.#
0440: 29 08 53 00 0F 01 02 00                           ).S.....        
```

#### Opcodes

```
  0: 0x0435 [0x29] REQ_SET_WAIT(priority=0x08, entity_id=Papo-Hopo (ID: 17760339/0x010F0053), tag_num=0x01)
  1: 0x043C [0x1D] PRINT_EVENT_MESSAGE(message_id=4001*)
    → "Don't ask me! I don't know...I don't pay much attention to wumors."
  2: 0x043F [0x23] WAIT_FOR_DIALOG_INTERACTION
  3: 0x0440 [0x29] REQ_SET_WAIT(priority=0x08, entity_id=Papo-Hopo (ID: 17760339/0x010F0053), tag_num=0x02)
  4: 0x0447 [0x00] END_REQSTACK()
```

### Event 65535.36

#### Metadata

| Field        | Value    |
|--------------|----------|
| Entrypoint   | 0x0448   |
| Data Size    | 10 bytes |
| Instructions | 2        |

```
      00 01 02 03 04 05 06 07  08 09 0A 0B 0C 0D 0E 0F
      -- -- -- -- -- -- -- --  -- -- -- -- -- -- -- --
0440:                          37 39 80 3A 80 3B 80 3C          79.:.;.<
0450: 80 00                                             ..              
```

#### Opcodes

```
  0: 0x0448 [0x37] UPDATE_EVENT_POSITION_AND_DIR: x=-31.335*, z=282.750*, y=-12.999*, direction=294.2°*
  1: 0x0451 [0x00] END_REQSTACK()
```

### Event 65535.37

#### Metadata

| Field        | Value    |
|--------------|----------|
| Entrypoint   | 0x0452   |
| Data Size    | 10 bytes |
| Instructions | 2        |

```
      00 01 02 03 04 05 06 07  08 09 0A 0B 0C 0D 0E 0F
      -- -- -- -- -- -- -- --  -- -- -- -- -- -- -- --
0450:       37 3D 80 3E 80 3F  80 40 80 00                7=.>.?.@..    
```

#### Opcodes

```
  0: 0x0452 [0x37] UPDATE_EVENT_POSITION_AND_DIR: x=-31.916*, z=279.373*, y=-13.000*, direction=218.3°*
  1: 0x045B [0x00] END_REQSTACK()
```

### Event 65535.38

#### Metadata

| Field        | Value    |
|--------------|----------|
| Entrypoint   | 0x045C   |
| Data Size    | 24 bytes |
| Instructions | 6        |

```
      00 01 02 03 04 05 06 07  08 09 0A 0B 0C 0D 0E 0F
      -- -- -- -- -- -- -- --  -- -- -- -- -- -- -- --
0450:                                      37 41 80 42              7A.B
0460: 80 3B 80 43 80 32 07 80  1F 00 44 80 42 80 3F 80  .;.C.2....D.B.?.
0470: 1F 01 6F 00                                       ..o.            
```

#### Opcodes

```
  0: 0x045C [0x37] UPDATE_EVENT_POSITION_AND_DIR: x=-31.658*, z=283.000*, y=-12.999*, direction=13.8°*
  1: 0x0465 [0x32] ExtData[1]->MainSpeed = 7* * 0.1
  2: 0x0468 [0x1F] MOVE_ENTITY: EventEntity moves to X=-34.571*, Z=283.000*, Y=-13.000*
  3: 0x0470 [0x1F] MOVE_ENTITY: Update entity position (mode=1)
  4: 0x0472 [0x6F] WAIT_FRAME_DELAY: Yield until WaitTime reaches zero
  5: 0x0473 [0x00] END_REQSTACK()
```

### Event 65535.39

#### Metadata

| Field        | Value    |
|--------------|----------|
| Entrypoint   | 0x0474   |
| Data Size    | 15 bytes |
| Instructions | 5        |

```
      00 01 02 03 04 05 06 07  08 09 0A 0B 0C 0D 0E 0F
      -- -- -- -- -- -- -- --  -- -- -- -- -- -- -- --
0470:             32 45 80 1F  00 46 80 42 80 3B 80 1F      2E...F.B.;..
0480: 01 6F 00                                          .o.             
```

#### Opcodes

```
  0: 0x0474 [0x32] ExtData[1]->MainSpeed = 60* * 0.1
  1: 0x0477 [0x1F] MOVE_ENTITY: EventEntity moves to X=-20.775*, Z=283.000*, Y=-12.999*
  2: 0x047F [0x1F] MOVE_ENTITY: Update entity position (mode=1)
  3: 0x0481 [0x6F] WAIT_FRAME_DELAY: Yield until WaitTime reaches zero
  4: 0x0482 [0x00] END_REQSTACK()
```

### Event 65535.40

#### Metadata

| Field        | Value   |
|--------------|---------|
| Entrypoint   | 0x0483  |
| Data Size    | 5 bytes |
| Instructions | 3       |

```
      00 01 02 03 04 05 06 07  08 09 0A 0B 0C 0D 0E 0F
      -- -- -- -- -- -- -- --  -- -- -- -- -- -- -- --
0480:          1D 47 80 23 00                              .G.#.        
```

#### Opcodes

```
  0: 0x0483 [0x1D] PRINT_EVENT_MESSAGE(message_id=4024*)
    → "So da ghosty's twue identity was just da wind!"
  1: 0x0486 [0x23] WAIT_FOR_DIALOG_INTERACTION
  2: 0x0487 [0x00] END_REQSTACK()
```

### Event 65535.41

#### Metadata

| Field        | Value   |
|--------------|---------|
| Entrypoint   | 0x0488  |
| Data Size    | 5 bytes |
| Instructions | 3       |

```
      00 01 02 03 04 05 06 07  08 09 0A 0B 0C 0D 0E 0F
      -- -- -- -- -- -- -- --  -- -- -- -- -- -- -- --
0480:                          1D 48 80 23 00                   .H.#.   
```

#### Opcodes

```
  0: 0x0488 [0x1D] PRINT_EVENT_MESSAGE(message_id=4026*)
    → "Arrrrrgggghhhyaaaa!!!"
  1: 0x048B [0x23] WAIT_FOR_DIALOG_INTERACTION
  2: 0x048C [0x00] END_REQSTACK()
```

### Event 65535.42

#### Metadata

| Field        | Value   |
|--------------|---------|
| Entrypoint   | 0x048D  |
| Data Size    | 9 bytes |
| Instructions | 5       |

```
      00 01 02 03 04 05 06 07  08 09 0A 0B 0C 0D 0E 0F
      -- -- -- -- -- -- -- --  -- -- -- -- -- -- -- --
0480:                                         1D 49 80               .I.
0490: 23 1D 4A 80 23 00                                 #.J.#.          
```

#### Opcodes

```
  0: 0x048D [0x1D] PRINT_EVENT_MESSAGE(message_id=4027*)
    → "Dere's a c-c-corpse!"
  1: 0x0490 [0x23] WAIT_FOR_DIALOG_INTERACTION
  2: 0x0491 [0x1D] PRINT_EVENT_MESSAGE(message_id=4028*)
    → "A corpse!"
  3: 0x0494 [0x23] WAIT_FOR_DIALOG_INTERACTION
  4: 0x0495 [0x00] END_REQSTACK()
```

### Event 65535.43

#### Metadata

| Field        | Value    |
|--------------|----------|
| Entrypoint   | 0x0496   |
| Data Size    | 30 bytes |
| Instructions | 8        |

```
      00 01 02 03 04 05 06 07  08 09 0A 0B 0C 0D 0E 0F
      -- -- -- -- -- -- -- --  -- -- -- -- -- -- -- --
0490:                   1C 01  80 37 4B 80 4C 80 3F 80        ...7K.L.?.
04A0: 4D 80 32 33 80 1F 00 4E  80 4F 80 50 80 1F 01 6F  M.23...N.O.P...o
04B0: 39 51 80 00                                       9Q..            
```

#### Opcodes

```
  0: 0x0496 [0x1C] WAIT(30* ticks)
  1: 0x0499 [0x37] UPDATE_EVENT_POSITION_AND_DIR: x=-27.443*, z=260.622*, y=-13.000*, direction=111.1°*
  2: 0x04A2 [0x32] ExtData[1]->MainSpeed = 21* * 0.1
  3: 0x04A5 [0x1F] MOVE_ENTITY: EventEntity moves to X=-27.066*, Z=252.382*, Y=-12.295*
  4: 0x04AD [0x1F] MOVE_ENTITY: Update entity position (mode=1)
  5: 0x04AF [0x6F] WAIT_FRAME_DELAY: Yield until WaitTime reaches zero
  6: 0x04B0 [0x39] SET_ENTITY_DIRECTION(direction=4.6°*)
  7: 0x04B3 [0x00] END_REQSTACK()
```

### Event 65535.44

#### Metadata

| Field        | Value    |
|--------------|----------|
| Entrypoint   | 0x04B4   |
| Data Size    | 17 bytes |
| Instructions | 6        |

```
      00 01 02 03 04 05 06 07  08 09 0A 0B 0C 0D 0E 0F
      -- -- -- -- -- -- -- --  -- -- -- -- -- -- -- --
04B0:             32 33 80 1F  00 52 80 53 80 54 80 1F      23...R.S.T..
04C0: 01 6F 22 01 00                                    .o"..           
```

#### Opcodes

```
  0: 0x04B4 [0x32] ExtData[1]->MainSpeed = 21* * 0.1
  1: 0x04B7 [0x1F] MOVE_ENTITY: EventEntity moves to X=-36.681*, Z=244.014*, Y=-12.499*
  2: 0x04BF [0x1F] MOVE_ENTITY: Update entity position (mode=1)
  3: 0x04C1 [0x6F] WAIT_FRAME_DELAY: Yield until WaitTime reaches zero
  4: 0x04C2 [0x22] ENTITY_HIDE_FLAG(enabled=0x01)
  5: 0x04C4 [0x00] END_REQSTACK()
```

### Event 65535.45

#### Metadata

| Field        | Value    |
|--------------|----------|
| Entrypoint   | 0x04C5   |
| Data Size    | 19 bytes |
| Instructions | 5        |

```
      00 01 02 03 04 05 06 07  08 09 0A 0B 0C 0D 0E 0F
      -- -- -- -- -- -- -- --  -- -- -- -- -- -- -- --
04C0:                29 08 53  00 0F 01 01 1D 55 80 23       ).S.....U.#
04D0: 29 08 53 00 0F 01 02 00                           ).S.....        
```

#### Opcodes

```
  0: 0x04C5 [0x29] REQ_SET_WAIT(priority=0x08, entity_id=Papo-Hopo (ID: 17760339/0x010F0053), tag_num=0x01)
  1: 0x04CC [0x1D] PRINT_EVENT_MESSAGE(message_id=4050*)
    → "I thought we were goners when we were twapped in dere with dat ghosty!"
  2: 0x04CF [0x23] WAIT_FOR_DIALOG_INTERACTION
  3: 0x04D0 [0x29] REQ_SET_WAIT(priority=0x08, entity_id=Papo-Hopo (ID: 17760339/0x010F0053), tag_num=0x02)
  4: 0x04D7 [0x00] END_REQSTACK()
```

### Event 323

#### Metadata

| Field        | Value   |
|--------------|---------|
| Entrypoint   | 0x04D8  |
| Data Size    | 1 bytes |
| Instructions | 1       |

```
      00 01 02 03 04 05 06 07  08 09 0A 0B 0C 0D 0E 0F
      -- -- -- -- -- -- -- --  -- -- -- -- -- -- -- --
04D0:                          00                               .       
```

#### Opcodes

```
  0: 0x04D8 [0x00] END_REQSTACK()
```

### Event 65535.46

#### Metadata

| Field        | Value    |
|--------------|----------|
| Entrypoint   | 0x04D9   |
| Data Size    | 10 bytes |
| Instructions | 2        |

```
      00 01 02 03 04 05 06 07  08 09 0A 0B 0C 0D 0E 0F
      -- -- -- -- -- -- -- --  -- -- -- -- -- -- -- --
04D0:                             37 56 80 57 80 58 80           7V.W.X.
04E0: 59 80 00                                          Y..             
```

#### Opcodes

```
  0: 0x04D9 [0x37] UPDATE_EVENT_POSITION_AND_DIR: x=-26.814*, z=266.104*, y=-18.000*, direction=67.8°*
  1: 0x04E2 [0x00] END_REQSTACK()
```

### Event 65535.47

#### Metadata

| Field        | Value    |
|--------------|----------|
| Entrypoint   | 0x04E3   |
| Data Size    | 24 bytes |
| Instructions | 6        |

```
      00 01 02 03 04 05 06 07  08 09 0A 0B 0C 0D 0E 0F
      -- -- -- -- -- -- -- --  -- -- -- -- -- -- -- --
04E0:          37 5A 80 5B 80  5C 80 5D 80 32 33 80 1F     7Z.[.\.].23..
04F0: 00 5E 80 5F 80 60 80 1F  01 6F 00                 .^._.`...o.     
```

#### Opcodes

```
  0: 0x04E3 [0x37] UPDATE_EVENT_POSITION_AND_DIR: x=-33.086*, z=249.570*, y=-12.312*, direction=294.6°*
  1: 0x04EC [0x32] ExtData[1]->MainSpeed = 21* * 0.1
  2: 0x04EF [0x1F] MOVE_ENTITY: EventEntity moves to X=-27.181*, Z=257.013*, Y=-12.631*
  3: 0x04F7 [0x1F] MOVE_ENTITY: Update entity position (mode=1)
  4: 0x04F9 [0x6F] WAIT_FRAME_DELAY: Yield until WaitTime reaches zero
  5: 0x04FA [0x00] END_REQSTACK()
```

### Event 65535.48

#### Metadata

| Field        | Value    |
|--------------|----------|
| Entrypoint   | 0x04FB   |
| Data Size    | 10 bytes |
| Instructions | 2        |

```
      00 01 02 03 04 05 06 07  08 09 0A 0B 0C 0D 0E 0F
      -- -- -- -- -- -- -- --  -- -- -- -- -- -- -- --
04F0:                                   37 61 80 62 80             7a.b.
0500: 63 80 64 80 00                                    c.d..           
```

#### Opcodes

```
  0: 0x04FB [0x37] UPDATE_EVENT_POSITION_AND_DIR: x=-26.404*, z=265.873*, y=-17.999*, direction=90.0°*
  1: 0x0504 [0x00] END_REQSTACK()
```

### Event 65535.49

#### Metadata

| Field        | Value    |
|--------------|----------|
| Entrypoint   | 0x0505   |
| Data Size    | 15 bytes |
| Instructions | 5        |

```
      00 01 02 03 04 05 06 07  08 09 0A 0B 0C 0D 0E 0F
      -- -- -- -- -- -- -- --  -- -- -- -- -- -- -- --
0500:                32 33 80  1F 00 65 80 66 80 67 80       23...e.f.g.
0510: 1F 01 6F 00                                       ..o.            
```

#### Opcodes

```
  0: 0x0505 [0x32] ExtData[1]->MainSpeed = 21* * 0.1
  1: 0x0508 [0x1F] MOVE_ENTITY: EventEntity moves to X=-19.651*, Z=273.488*, Y=-17.500*
  2: 0x0510 [0x1F] MOVE_ENTITY: Update entity position (mode=1)
  3: 0x0512 [0x6F] WAIT_FRAME_DELAY: Yield until WaitTime reaches zero
  4: 0x0513 [0x00] END_REQSTACK()
```

### Event 65535.50

#### Metadata

| Field        | Value    |
|--------------|----------|
| Entrypoint   | 0x0514   |
| Data Size    | 10 bytes |
| Instructions | 2        |

```
      00 01 02 03 04 05 06 07  08 09 0A 0B 0C 0D 0E 0F
      -- -- -- -- -- -- -- --  -- -- -- -- -- -- -- --
0510:             37 68 80 69  80 6A 80 6B 80 00            7h.i.j.k..  
```

#### Opcodes

```
  0: 0x0514 [0x37] UPDATE_EVENT_POSITION_AND_DIR: x=-25.343*, z=258.090*, y=-12.848*, direction=225.0°*
  1: 0x051D [0x00] END_REQSTACK()
```

### Event 65535.51

#### Metadata

| Field        | Value   |
|--------------|---------|
| Entrypoint   | 0x051E  |
| Data Size    | 5 bytes |
| Instructions | 3       |

```
      00 01 02 03 04 05 06 07  08 09 0A 0B 0C 0D 0E 0F
      -- -- -- -- -- -- -- --  -- -- -- -- -- -- -- --
0510:                                            1D 6C                .l
0520: 80 23 00                                          .#.             
```

#### Opcodes

```
  0: 0x051E [0x1D] PRINT_EVENT_MESSAGE(message_id=3972*)
    → "Yippee!"
  1: 0x0521 [0x23] WAIT_FOR_DIALOG_INTERACTION
  2: 0x0522 [0x00] END_REQSTACK()
```

### Event 496

#### Metadata

| Field        | Value   |
|--------------|---------|
| Entrypoint   | 0x0523  |
| Data Size    | 1 bytes |
| Instructions | 1       |

```
      00 01 02 03 04 05 06 07  08 09 0A 0B 0C 0D 0E 0F
      -- -- -- -- -- -- -- --  -- -- -- -- -- -- -- --
0520:          00                                          .            
```

#### Opcodes

```
  0: 0x0523 [0x00] END_REQSTACK()
```

### Event 65535.52

#### Metadata

| Field        | Value    |
|--------------|----------|
| Entrypoint   | 0x0524   |
| Data Size    | 37 bytes |
| Instructions | 9        |

```
      00 01 02 03 04 05 06 07  08 09 0A 0B 0C 0D 0E 0F
      -- -- -- -- -- -- -- --  -- -- -- -- -- -- -- --
0520:             29 08 53 00  0F 01 03 1D 6D 80 23 29      ).S.....m.#)
0530: 08 53 00 0F 01 04 29 08  53 00 0F 01 05 1D 6E 80  .S....).S.....n.
0540: 23 29 08 53 00 0F 01 06  00                       #).S.....       
```

#### Opcodes

```
  0: 0x0524 [0x29] REQ_SET_WAIT(priority=0x08, entity_id=Papo-Hopo (ID: 17760339/0x010F0053), tag_num=0x03)
  1: 0x052B [0x1D] PRINT_EVENT_MESSAGE(message_id=12418*)
    → "...But our weal pwoblem is dat we don't got da Mana Orb no more."
  2: 0x052E [0x23] WAIT_FOR_DIALOG_INTERACTION
  3: 0x052F [0x29] REQ_SET_WAIT(priority=0x08, entity_id=Papo-Hopo (ID: 17760339/0x010F0053), tag_num=0x04)
  4: 0x0536 [0x29] REQ_SET_WAIT(priority=0x08, entity_id=Papo-Hopo (ID: 17760339/0x010F0053), tag_num=0x05)
  5: 0x053D [0x1D] PRINT_EVENT_MESSAGE(message_id=12419*)
    → "Do you wemember? Dat Mana Orb got all sucked up into Joker's body."
  6: 0x0540 [0x23] WAIT_FOR_DIALOG_INTERACTION
  7: 0x0541 [0x29] REQ_SET_WAIT(priority=0x08, entity_id=Papo-Hopo (ID: 17760339/0x010F0053), tag_num=0x06)
  8: 0x0548 [0x00] END_REQSTACK()
```

### Event 497

#### Metadata

| Field        | Value   |
|--------------|---------|
| Entrypoint   | 0x0549  |
| Data Size    | 1 bytes |
| Instructions | 1       |

```
      00 01 02 03 04 05 06 07  08 09 0A 0B 0C 0D 0E 0F
      -- -- -- -- -- -- -- --  -- -- -- -- -- -- -- --
0540:                             00                             .      
```

#### Opcodes

```
  0: 0x0549 [0x00] END_REQSTACK()
```

### Event 65535.53

#### Metadata

| Field        | Value    |
|--------------|----------|
| Entrypoint   | 0x054A   |
| Data Size    | 10 bytes |
| Instructions | 2        |

```
      00 01 02 03 04 05 06 07  08 09 0A 0B 0C 0D 0E 0F
      -- -- -- -- -- -- -- --  -- -- -- -- -- -- -- --
0540:                                37 6F 80 70 80 22            7o.p."
0550: 80 71 80 00                                       .q..            
```

#### Opcodes

```
  0: 0x054A [0x37] UPDATE_EVENT_POSITION_AND_DIR: x=-21.292*, z=191.966*, y=-5.999*, direction=135.2°*
  1: 0x0553 [0x00] END_REQSTACK()
```

### Event 65535.54

#### Metadata

| Field        | Value   |
|--------------|---------|
| Entrypoint   | 0x0554  |
| Data Size    | 9 bytes |
| Instructions | 5       |

```
      00 01 02 03 04 05 06 07  08 09 0A 0B 0C 0D 0E 0F
      -- -- -- -- -- -- -- --  -- -- -- -- -- -- -- --
0550:             1D 72 80 23  1D 73 80 23 00               .r.#.s.#.   
```

#### Opcodes

```
  0: 0x0554 [0x1D] PRINT_EVENT_MESSAGE(message_id=12446*)
    → "I don't think a grown-up is gonna fall for dat kind of thing."
  1: 0x0557 [0x23] WAIT_FOR_DIALOG_INTERACTION
  2: 0x0558 [0x1D] PRINT_EVENT_MESSAGE(message_id=12447*)
    → "You all know it. Adults are too smart for simple excuses."
  3: 0x055B [0x23] WAIT_FOR_DIALOG_INTERACTION
  4: 0x055C [0x00] END_REQSTACK()
```

### Event 501

#### Metadata

| Field        | Value    |
|--------------|----------|
| Entrypoint   | 0x055D   |
| Data Size    | 33 bytes |
| Instructions | 12       |

```
      00 01 02 03 04 05 06 07  08 09 0A 0B 0C 0D 0E 0F
      -- -- -- -- -- -- -- --  -- -- -- -- -- -- -- --
0550:                                         1E F0 FF               ...
0560: FF 7F 6F 70 29 08 53 00  0F 01 01 1D 74 80 23 1D  ..op).S.....t.#.
0570: 75 80 23 29 08 53 00 0F  01 02 20 00 21 00        u.#).S.... .!.  
```

#### Opcodes

```
  0: 0x055D [0x1E] EventEntity looks at LocalPlayer and starts talking
  1: 0x0562 [0x6F] WAIT_FRAME_DELAY: Yield until WaitTime reaches zero
  2: 0x0563 [0x70] WAIT_ENTITY_RENDER_FLAG: Wait while EventEntity->Render.Flags3 bit 2 is set (cancel turn if not)
  3: 0x0564 [0x29] REQ_SET_WAIT(priority=0x08, entity_id=Papo-Hopo (ID: 17760339/0x010F0053), tag_num=0x01)
  4: 0x056B [0x1D] PRINT_EVENT_MESSAGE(message_id=12431*)
    → "Da old rich guy dat lives in Windurst Waters is called Honoi-Gomoi, I think."
  5: 0x056E [0x23] WAIT_FOR_DIALOG_INTERACTION
  6: 0x056F [0x1D] PRINT_EVENT_MESSAGE(message_id=12432*)
    → "His ancestors were supposed to be a bunch of whiz-bang wizards, so dat's why he's so rich now."
  7: 0x0572 [0x23] WAIT_FOR_DIALOG_INTERACTION
  8: 0x0573 [0x29] REQ_SET_WAIT(priority=0x08, entity_id=Papo-Hopo (ID: 17760339/0x010F0053), tag_num=0x02)
  9: 0x057A [0x20] SET_CLI_EVENT_UC_FLAG: Unlock player control
 10: 0x057C [0x21] END_EVENT
 11: 0x057D [0x00] END_REQSTACK()
```

### Event 508

#### Metadata

| Field        | Value    |
|--------------|----------|
| Entrypoint   | 0x057E   |
| Data Size    | 33 bytes |
| Instructions | 12       |

```
      00 01 02 03 04 05 06 07  08 09 0A 0B 0C 0D 0E 0F
      -- -- -- -- -- -- -- --  -- -- -- -- -- -- -- --
0570:                                            1E F0                ..
0580: FF FF 7F 6F 70 29 08 53  00 0F 01 01 1D 76 80 23  ...op).S.....v.#
0590: 1D 77 80 23 29 08 53 00  0F 01 02 20 00 21 00     .w.#).S.... .!. 
```

#### Opcodes

```
  0: 0x057E [0x1E] EventEntity looks at LocalPlayer and starts talking
  1: 0x0583 [0x6F] WAIT_FRAME_DELAY: Yield until WaitTime reaches zero
  2: 0x0584 [0x70] WAIT_ENTITY_RENDER_FLAG: Wait while EventEntity->Render.Flags3 bit 2 is set (cancel turn if not)
  3: 0x0585 [0x29] REQ_SET_WAIT(priority=0x08, entity_id=Papo-Hopo (ID: 17760339/0x010F0053), tag_num=0x01)
  4: 0x058C [0x1D] PRINT_EVENT_MESSAGE(message_id=12463*)
    → "I've done some digging on our Mr. Honoi-Gomoi. He's always saying tewwible things, but actually he seems wike a weally nice guy."
  5: 0x058F [0x23] WAIT_FOR_DIALOG_INTERACTION
  6: 0x0590 [0x1D] PRINT_EVENT_MESSAGE(message_id=12464*)
    → "I found out dat during the Gweat War, he helped pay for twansporting suppwies and for we-building Windurst."
  7: 0x0593 [0x23] WAIT_FOR_DIALOG_INTERACTION
  8: 0x0594 [0x29] REQ_SET_WAIT(priority=0x08, entity_id=Papo-Hopo (ID: 17760339/0x010F0053), tag_num=0x02)
  9: 0x059B [0x20] SET_CLI_EVENT_UC_FLAG: Unlock player control
 10: 0x059D [0x21] END_EVENT
 11: 0x059E [0x00] END_REQSTACK()
```

### Event 509

#### Metadata

| Field        | Value    |
|--------------|----------|
| Entrypoint   | 0x059F   |
| Data Size    | 37 bytes |
| Instructions | 14       |

```
      00 01 02 03 04 05 06 07  08 09 0A 0B 0C 0D 0E 0F
      -- -- -- -- -- -- -- --  -- -- -- -- -- -- -- --
0590:                                               1E                 .
05A0: F0 FF FF 7F 6F 70 29 08  53 00 0F 01 01 1D 78 80  ....op).S.....x.
05B0: 23 1D 79 80 23 1D 7A 80  23 29 08 53 00 0F 01 02  #.y.#.z.#).S....
05C0: 20 00 21 00                                        .!.            
```

#### Opcodes

```
  0: 0x059F [0x1E] EventEntity looks at LocalPlayer and starts talking
  1: 0x05A4 [0x6F] WAIT_FRAME_DELAY: Yield until WaitTime reaches zero
  2: 0x05A5 [0x70] WAIT_ENTITY_RENDER_FLAG: Wait while EventEntity->Render.Flags3 bit 2 is set (cancel turn if not)
  3: 0x05A6 [0x29] REQ_SET_WAIT(priority=0x08, entity_id=Papo-Hopo (ID: 17760339/0x010F0053), tag_num=0x01)
  4: 0x05AD [0x1D] PRINT_EVENT_MESSAGE(message_id=12465*)
    → "After digging a wittle more, I discovered da weason why people call Mr. Honoi-Gomoi a bad man."
  5: 0x05B0 [0x23] WAIT_FOR_DIALOG_INTERACTION
  6: 0x05B1 [0x1D] PRINT_EVENT_MESSAGE(message_id=12466*)
    → "He organized things so dat da money he lent to Windurst during da war would come back to him as even more money."
  7: 0x05B4 [0x23] WAIT_FOR_DIALOG_INTERACTION
  8: 0x05B5 [0x1D] PRINT_EVENT_MESSAGE(message_id=12467*)
    → "People whisper dat he used da war as a way of becoming even more rich."
  9: 0x05B8 [0x23] WAIT_FOR_DIALOG_INTERACTION
 10: 0x05B9 [0x29] REQ_SET_WAIT(priority=0x08, entity_id=Papo-Hopo (ID: 17760339/0x010F0053), tag_num=0x02)
 11: 0x05C0 [0x20] SET_CLI_EVENT_UC_FLAG: Unlock player control
 12: 0x05C2 [0x21] END_EVENT
 13: 0x05C3 [0x00] END_REQSTACK()
```

### Event 513

#### Metadata

| Field        | Value   |
|--------------|---------|
| Entrypoint   | 0x05C4  |
| Data Size    | 1 bytes |
| Instructions | 1       |

```
      00 01 02 03 04 05 06 07  08 09 0A 0B 0C 0D 0E 0F
      -- -- -- -- -- -- -- --  -- -- -- -- -- -- -- --
05C0:             00                                        .           
```

#### Opcodes

```
  0: 0x05C4 [0x00] END_REQSTACK()
```

### Event 65535.55

#### Metadata

| Field        | Value   |
|--------------|---------|
| Entrypoint   | 0x05C5  |
| Data Size    | 5 bytes |
| Instructions | 3       |

```
      00 01 02 03 04 05 06 07  08 09 0A 0B 0C 0D 0E 0F
      -- -- -- -- -- -- -- --  -- -- -- -- -- -- -- --
05C0:                1D 7B 80  23 00                         .{.#.      
```

#### Opcodes

```
  0: 0x05C5 [0x1D] PRINT_EVENT_MESSAGE(message_id=12477*)
    → "But even if you don't do it, you can bet dat old meanie will find another way to dis-a-sem-bull Joker..."
  1: 0x05C8 [0x23] WAIT_FOR_DIALOG_INTERACTION
  2: 0x05C9 [0x00] END_REQSTACK()
```

### Event 65535.56

#### Metadata

| Field        | Value   |
|--------------|---------|
| Entrypoint   | 0x05CA  |
| Data Size    | 5 bytes |
| Instructions | 3       |

```
      00 01 02 03 04 05 06 07  08 09 0A 0B 0C 0D 0E 0F
      -- -- -- -- -- -- -- --  -- -- -- -- -- -- -- --
05C0:                                1D 7C 80 23 00               .|.#. 
```

#### Opcodes

```
  0: 0x05CA [0x1D] PRINT_EVENT_MESSAGE(message_id=12483*)
    → "But dat plan is gonna be awful hard for us to carry out."
  1: 0x05CD [0x23] WAIT_FOR_DIALOG_INTERACTION
  2: 0x05CE [0x00] END_REQSTACK()
```

### Event 65535.57

#### Metadata

| Field        | Value   |
|--------------|---------|
| Entrypoint   | 0x05CF  |
| Data Size    | 5 bytes |
| Instructions | 3       |

```
      00 01 02 03 04 05 06 07  08 09 0A 0B 0C 0D 0E 0F
      -- -- -- -- -- -- -- --  -- -- -- -- -- -- -- --
05C0:                                               1D                 .
05D0: 7D 80 23 00                                       }.#.            
```

#### Opcodes

```
  0: 0x05CF [0x1D] PRINT_EVENT_MESSAGE(message_id=12484*)
    → "First we need to find a way to get Joker out of Windurst without anybody noticing."
  1: 0x05D2 [0x23] WAIT_FOR_DIALOG_INTERACTION
  2: 0x05D3 [0x00] END_REQSTACK()
```

### Event 65535.58

#### Metadata

| Field        | Value   |
|--------------|---------|
| Entrypoint   | 0x05D4  |
| Data Size    | 9 bytes |
| Instructions | 5       |

```
      00 01 02 03 04 05 06 07  08 09 0A 0B 0C 0D 0E 0F
      -- -- -- -- -- -- -- --  -- -- -- -- -- -- -- --
05D0:             1D 7E 80 23  1D 7F 80 23 00               .~.#...#.   
```

#### Opcodes

```
  0: 0x05D4 [0x1D] PRINT_EVENT_MESSAGE(message_id=12486*)
    → "Exactaruly. It makes it difficult with Joker being a Cardian."
  1: 0x05D7 [0x23] WAIT_FOR_DIALOG_INTERACTION
  2: 0x05D8 [0x1D] PRINT_EVENT_MESSAGE(message_id=12487*)
    → "Da gatehouse checks have been much stwicter since a bunch of Cardians kidnapped da old Manustery minister."
  3: 0x05DB [0x23] WAIT_FOR_DIALOG_INTERACTION
  4: 0x05DC [0x00] END_REQSTACK()
```

### Event 515

#### Metadata

| Field        | Value    |
|--------------|----------|
| Entrypoint   | 0x05DD   |
| Data Size    | 47 bytes |
| Instructions | 14       |

```
      00 01 02 03 04 05 06 07  08 09 0A 0B 0C 0D 0E 0F
      -- -- -- -- -- -- -- --  -- -- -- -- -- -- -- --
05D0:                                         1E F0 FF               ...
05E0: FF 7F 6F 70 29 08 53 00  0F 01 0D 1D 80 80 23 29  ..op).S.......#)
05F0: 08 53 00 0F 01 0E 29 08  53 00 0F 01 01 1D 81 80  .S....).S.......
0600: 23 29 08 53 00 0F 01 02  20 00 21 00              #).S.... .!.    
```

#### Opcodes

```
  0: 0x05DD [0x1E] EventEntity looks at LocalPlayer and starts talking
  1: 0x05E2 [0x6F] WAIT_FRAME_DELAY: Yield until WaitTime reaches zero
  2: 0x05E3 [0x70] WAIT_ENTITY_RENDER_FLAG: Wait while EventEntity->Render.Flags3 bit 2 is set (cancel turn if not)
  3: 0x05E4 [0x29] REQ_SET_WAIT(priority=0x08, entity_id=Papo-Hopo (ID: 17760339/0x010F0053), tag_num=0x0D)
  4: 0x05EB [0x1D] PRINT_EVENT_MESSAGE(message_id=12498*)
    → "Joker's hiding spot in da House of da Hero is tip-top secwet information."
  5: 0x05EE [0x23] WAIT_FOR_DIALOG_INTERACTION
  6: 0x05EF [0x29] REQ_SET_WAIT(priority=0x08, entity_id=Papo-Hopo (ID: 17760339/0x010F0053), tag_num=0x0E)
  7: 0x05F6 [0x29] REQ_SET_WAIT(priority=0x08, entity_id=Papo-Hopo (ID: 17760339/0x010F0053), tag_num=0x01)
  8: 0x05FD [0x1D] PRINT_EVENT_MESSAGE(message_id=12499*)
    → "You never know when someone may be wistening, so don't mention it to your friends, your family, or even your pet worms!"
  9: 0x0600 [0x23] WAIT_FOR_DIALOG_INTERACTION
 10: 0x0601 [0x29] REQ_SET_WAIT(priority=0x08, entity_id=Papo-Hopo (ID: 17760339/0x010F0053), tag_num=0x02)
 11: 0x0608 [0x20] SET_CLI_EVENT_UC_FLAG: Unlock player control
 12: 0x060A [0x21] END_EVENT
 13: 0x060B [0x00] END_REQSTACK()
```

### Event 522

#### Metadata

| Field        | Value   |
|--------------|---------|
| Entrypoint   | 0x060C  |
| Data Size    | 1 bytes |
| Instructions | 1       |

```
      00 01 02 03 04 05 06 07  08 09 0A 0B 0C 0D 0E 0F
      -- -- -- -- -- -- -- --  -- -- -- -- -- -- -- --
0600:                                      00                       .   
```

#### Opcodes

```
  0: 0x060C [0x00] END_REQSTACK()
```

### Event 65535.59

#### Metadata

| Field        | Value    |
|--------------|----------|
| Entrypoint   | 0x060D   |
| Data Size    | 10 bytes |
| Instructions | 2        |

```
      00 01 02 03 04 05 06 07  08 09 0A 0B 0C 0D 0E 0F
      -- -- -- -- -- -- -- --  -- -- -- -- -- -- -- --
0600:                                         37 82 80               7..
0610: 83 80 22 80 84 80 00                              .."....         
```

#### Opcodes

```
  0: 0x060D [0x37] UPDATE_EVENT_POSITION_AND_DIR: x=-25.580*, z=190.100*, y=-5.999*, direction=0.0°*
  1: 0x0616 [0x00] END_REQSTACK()
```

### Event 525

#### Metadata

| Field        | Value    |
|--------------|----------|
| Entrypoint   | 0x0617   |
| Data Size    | 33 bytes |
| Instructions | 12       |

```
      00 01 02 03 04 05 06 07  08 09 0A 0B 0C 0D 0E 0F
      -- -- -- -- -- -- -- --  -- -- -- -- -- -- -- --
0610:                      1E  F0 FF FF 7F 6F 70 29 08         .....op).
0620: 53 00 0F 01 12 1D 85 80  23 1D 86 80 23 29 08 53  S.......#...#).S
0630: 00 0F 01 13 20 00 21 00                           .... .!.        
```

#### Opcodes

```
  0: 0x0617 [0x1E] EventEntity looks at LocalPlayer and starts talking
  1: 0x061C [0x6F] WAIT_FRAME_DELAY: Yield until WaitTime reaches zero
  2: 0x061D [0x70] WAIT_ENTITY_RENDER_FLAG: Wait while EventEntity->Render.Flags3 bit 2 is set (cancel turn if not)
  3: 0x061E [0x29] REQ_SET_WAIT(priority=0x08, entity_id=Papo-Hopo (ID: 17760339/0x010F0053), tag_num=0x12)
  4: 0x0625 [0x1D] PRINT_EVENT_MESSAGE(message_id=12543*)
    → "I can't believe da ace Cardians came all da way into da city...!"
  5: 0x0628 [0x23] WAIT_FOR_DIALOG_INTERACTION
  6: 0x0629 [0x1D] PRINT_EVENT_MESSAGE(message_id=12544*)
    → "Dere's no way dey could've come in through one of da gates... I wonder how dey got in?"
  7: 0x062C [0x23] WAIT_FOR_DIALOG_INTERACTION
  8: 0x062D [0x29] REQ_SET_WAIT(priority=0x08, entity_id=Papo-Hopo (ID: 17760339/0x010F0053), tag_num=0x13)
  9: 0x0634 [0x20] SET_CLI_EVENT_UC_FLAG: Unlock player control
 10: 0x0636 [0x21] END_EVENT
 11: 0x0637 [0x00] END_REQSTACK()
```

### Event 65535.60

#### Metadata

| Field        | Value    |
|--------------|----------|
| Entrypoint   | 0x0638   |
| Data Size    | 88 bytes |
| Instructions | 10       |

```
      00 01 02 03 04 05 06 07  08 09 0A 0B 0C 0D 0E 0F
      -- -- -- -- -- -- -- --  -- -- -- -- -- -- -- --
0630:                          45 87 80 F0 FF FF 7F F0          E.......
0640: FF FF 7F 73 30 37 35 84  80 1C 88 80 4A B1 00 0F  ...s075.....J...
0650: 01 58 00 0F 01 52 87 80  F0 FF FF 7F F0 FF FF 7F  .X...R..........
0660: 73 30 37 35 45 89 80 F0  FF FF 7F F0 FF FF 7F 6F  s075E..........o
0670: 76 6C 31 84 80 45 87 80  F0 FF FF 7F F0 FF FF 7F  vl1..E..........
0680: 73 30 37 37 84 80 6F 76  B1 00 0F 01 1C 37 80 00  s077..ov.....7..
```

#### Opcodes

```
  0: 0x0638 [0x45] LOAD_SCHEDULED_TASK: Load scheduler "s075" with entities [LocalPlayer, LocalPlayer], work=[247*, 0*]
  1: 0x0649 [0x1C] WAIT(150* ticks)
  2: 0x064C [0x4A] Ace of Wands (ID: 17760433/0x010F00B1) looks at Shanruru (ID: 17760344/0x010F0058)
  3: 0x0655 [0x52] END_LOAD_SCHEDULER: End scheduler "s075" with entities [LocalPlayer, LocalPlayer], work=247*
  4: 0x0664 [0x45] LOAD_SCHEDULED_TASK: Load scheduler "ovl1" with entities [LocalPlayer, LocalPlayer], work=[200*, 0*]
  5: 0x0675 [0x45] LOAD_SCHEDULED_TASK: Load scheduler "s077" with entities [LocalPlayer, LocalPlayer], work=[247*, 0*]
  6: 0x0686 [0x6F] WAIT_FRAME_DELAY: Yield until WaitTime reaches zero
  7: 0x0687 [0x76] CHECK_ENTITY_RENDER_FLAGS: Wait until Ace of Wands (ID: 17760433/0x010F00B1) Render.Flags0 and Render.Flags3 conditions are met
  8: 0x068C [0x1C] WAIT(100* ticks)
  9: 0x068F [0x00] END_REQSTACK()
```

### Event 65535.61

#### Metadata

| Field        | Value     |
|--------------|-----------|
| Entrypoint   | 0x0690    |
| Data Size    | 128 bytes |
| Instructions | 14        |

```
      00 01 02 03 04 05 06 07  08 09 0A 0B 0C 0D 0E 0F
      -- -- -- -- -- -- -- --  -- -- -- -- -- -- -- --
0690: 45 87 80 F0 FF FF 7F F0  FF FF 7F 73 30 38 30 84  E..........s080.
06A0: 80 45 89 80 F0 FF FF 7F  F0 FF FF 7F 66 64 69 31  .E..........fdi1
06B0: 84 80 2B 5B 00 0F 01 8A  80 23 4A B1 00 0F 01 5B  ..+[.....#J....[
06C0: 00 0F 01 4A B2 00 0F 01  5B 00 0F 01 52 87 80 F0  ...J....[...R...
06D0: FF FF 7F F0 FF FF 7F 73  30 38 30 45 89 80 F0 FF  .......s080E....
06E0: FF 7F F0 FF FF 7F 6F 76  6C 31 84 80 45 87 80 F0  ......ovl1..E...
06F0: FF FF 7F F0 FF FF 7F 73  30 38 31 84 80 1C 01 80  .......s081.....
0700: 2B 52 00 0F 01 8B 80 23  29 0B B0 00 0F 01 07 00  +R.....#).......
```

#### Opcodes

```
  0: 0x0690 [0x45] LOAD_SCHEDULED_TASK: Load scheduler "s080" with entities [LocalPlayer, LocalPlayer], work=[247*, 0*]
  1: 0x06A1 [0x45] LOAD_SCHEDULED_TASK: Load scheduler "fdi1" with entities [LocalPlayer, LocalPlayer], work=[200*, 0*]
  2: 0x06B2 [0x2B] Joker (ID: 17760347/0x010F005B) [12522*]:
    → "...Enough."
  3: 0x06B9 [0x23] WAIT_FOR_DIALOG_INTERACTION
  4: 0x06BA [0x4A] Ace of Wands (ID: 17760433/0x010F00B1) looks at Joker (ID: 17760347/0x010F005B)
  5: 0x06C3 [0x4A] Ace of Swords (ID: 17760434/0x010F00B2) looks at Joker (ID: 17760347/0x010F005B)
  6: 0x06CC [0x52] END_LOAD_SCHEDULER: End scheduler "s080" with entities [LocalPlayer, LocalPlayer], work=247*
  7: 0x06DB [0x45] LOAD_SCHEDULED_TASK: Load scheduler "ovl1" with entities [LocalPlayer, LocalPlayer], work=[200*, 0*]
  8: 0x06EC [0x45] LOAD_SCHEDULED_TASK: Load scheduler "s081" with entities [LocalPlayer, LocalPlayer], work=[247*, 0*]
  9: 0x06FD [0x1C] WAIT(30* ticks)
 10: 0x0700 [0x2B] Kohlo-Lakolo (ID: 17760338/0x010F0052) [12523*]:
    → "Joker!!!"
 11: 0x0707 [0x23] WAIT_FOR_DIALOG_INTERACTION
 12: 0x0708 [0x29] REQ_SET_WAIT(priority=0x0B, entity_id=Ace of Cups (ID: 17760432/0x010F00B0), tag_num=0x07)
 13: 0x070F [0x00] END_REQSTACK()
```

### Event 65535.62

#### Metadata

| Field        | Value    |
|--------------|----------|
| Entrypoint   | 0x0710   |
| Data Size    | 85 bytes |
| Instructions | 11       |

```
      00 01 02 03 04 05 06 07  08 09 0A 0B 0C 0D 0E 0F
      -- -- -- -- -- -- -- --  -- -- -- -- -- -- -- --
0710: 27 0D B1 00 0F 01 18 27  0D B2 00 0F 01 14 27 0D  '......'......'.
0720: B0 00 0F 01 08 45 87 80  F0 FF FF 7F F0 FF FF 7F  .....E..........
0730: 73 30 38 38 84 80 2B 52  00 0F 01 8C 80 23 1C 8D  s088..+R.....#..
0740: 80 45 89 80 F8 FF FF 7F  F8 FF FF 7F 66 64 6F 31  .E..........fdo1
0750: 84 80 1C 45 80 52 87 80  F0 FF FF 7F F0 FF FF 7F  ...E.R..........
0760: 73 30 38 38 00                                    s088.           
```

#### Opcodes

```
  0: 0x0710 [0x27] REQ_SET(priority=0x0D, entity_id=Ace of Wands (ID: 17760433/0x010F00B1), tag_num=0x18)
