# 17760328 - Kameel

## Common Data

| Field            | Value                   |
|------------------|-------------------------|
| Zone             | Port Windurst (ID: 240) |
| Block Size       | 244 bytes               |
| Total Events     | 4                       |
| References Count | 11                      |

## List of Events

| Event ID                 | Entrypoint   |   Size |   Instructions |
|--------------------------|--------------|--------|----------------|
| [65535](#event-65535)    | 0x0000       |      1 |              1 |
| [65535.1](#event-655351) | 0x0001       |     16 |              2 |
| [65535.2](#event-655352) | 0x0011       |      9 |              3 |
| [193](#event-193)        | 0x001A       |    140 |             32 |

## DAT References (imed_data)

|   Index | Hex Value   |   Dec Value |
|---------|-------------|-------------|
|       0 | 0x0005      |           5 |
|       1 | 0x001E      |          30 |
|       2 | 0x02B1      |         689 |
|       3 | 0x0000      |           0 |
|       4 | 0x033C      |         828 |
|       5 | 0x0001      |           1 |
|       6 | 0x0611      |        1553 |
|       7 | 0x003C      |          60 |
|       8 | 0x0090      |         144 |
|       9 | 0x0DF7      |        3575 |
|      10 | 0x0DF8      |        3576 |

## String References

- **3575**: Sorry to keep you waiting. The [arrival/departure] of the next airship will be in [less than an hour/about 1 hour/about 2 hours/about 3 hours/about 4 hours/about 5 hours/about 6 hours/about 7 hours] ($1 [minute/minutes] in Earth time).
- **3576**: Please hurry! The next airship will soon [arrive/depart]!

## Events

### Event 65535

#### Metadata

| Field        | Value   |
|--------------|---------|
| Entrypoint   | 0x0000  |
| Data Size    | 1 bytes |
| Instructions | 1       |

```
      00 01 02 03 04 05 06 07  08 09 0A 0B 0C 0D 0E 0F
      -- -- -- -- -- -- -- --  -- -- -- -- -- -- -- --
0000: 00                                                .               
```

#### Opcodes

```
  0: 0x0000 [0x00] END_REQSTACK()
```

### Event 65535.1

#### Metadata

| Field        | Value    |
|--------------|----------|
| Entrypoint   | 0x0001   |
| Data Size    | 16 bytes |
| Instructions | 2        |

```
      00 01 02 03 04 05 06 07  08 09 0A 0B 0C 0D 0E 0F
      -- -- -- -- -- -- -- --  -- -- -- -- -- -- -- --
0000:    5B 00 80 F8 FF FF 7F  F8 FF FF 7F 74 6C 6B 30   [..........tlk0
0010: 00                                                .               
```

#### Opcodes

```
  0: 0x0001 [0x5B] LOAD_EXT_SCHEDULER: Load scheduler "tlk0" with entities [EventEntity, EventEntity], work=5*
  1: 0x0010 [0x00] END_REQSTACK()
```

### Event 65535.2

#### Metadata

| Field        | Value   |
|--------------|---------|
| Entrypoint   | 0x0011  |
| Data Size    | 9 bytes |
| Instructions | 3       |

```
      00 01 02 03 04 05 06 07  08 09 0A 0B 0C 0D 0E 0F
      -- -- -- -- -- -- -- --  -- -- -- -- -- -- -- --
0010:    5E 69 64 6C 30 1C 01  80 00                     ^idl0....      
```

#### Opcodes

```
  0: 0x0011 [0x5E] EventEntity goes idle (kills current action) (animation: "idl0")
  1: 0x0016 [0x1C] WAIT(30* ticks)
  2: 0x0019 [0x00] END_REQSTACK()
```

### Event 193

#### Metadata

| Field        | Value     |
|--------------|-----------|
| Entrypoint   | 0x001A    |
| Data Size    | 140 bytes |
| Instructions | 32        |

```
      00 01 02 03 04 05 06 07  08 09 0A 0B 0C 0D 0E 0F
      -- -- -- -- -- -- -- --  -- -- -- -- -- -- -- --
0010:                                02 02 10 02 80 03            ......
0020: 34 00 03 03 10 02 80 08  03 10 02 10 03 04 10 03  4...............
0030: 80 01 5D 00 02 02 10 04  80 03 4E 00 03 03 10 04  ..].......N.....
0040: 80 08 03 10 02 10 03 04  10 05 80 01 5D 00 03 03  ............]...
0050: 10 06 80 08 03 10 02 10  03 04 10 03 80 1E F0 FF  ................
0060: FF 7F 6F 70 02 03 10 07  80 04 90 00 03 05 10 03  ..op............
0070: 10 15 05 10 08 80 15 03  10 07 80 29 08 48 00 0F  ...........).H..
0080: 01 01 1D 09 80 23 29 08  48 00 0F 01 02 01 A2 00  .....#).H.......
0090: 29 08 48 00 0F 01 01 1D  0A 80 23 29 08 48 00 0F  ).H.......#).H..
00A0: 01 02 20 00 21 00                                 .. .!.          
```

#### Opcodes

```
  0: 0x001A [0x02] IF !(Work_Zone[2] >= 689*) GOTO 0x0034
  1: 0x0022 [0x03] Work_Zone[3] = 689*
  2: 0x0027 [0x08] Work_Zone[3] -= Work_Zone[2]
  3: 0x002C [0x03] Work_Zone[4] = 0*
  4: 0x0031 [0x01] GOTO 0x005D
  5: 0x0034 [0x02] IF !(Work_Zone[2] >= 828*) GOTO 0x004E
  6: 0x003C [0x03] Work_Zone[3] = 828*
  7: 0x0041 [0x08] Work_Zone[3] -= Work_Zone[2]
  8: 0x0046 [0x03] Work_Zone[4] = 1*
  9: 0x004B [0x01] GOTO 0x005D
 10: 0x004E [0x03] Work_Zone[3] = 1553*
 11: 0x0053 [0x08] Work_Zone[3] -= Work_Zone[2]
 12: 0x0058 [0x03] Work_Zone[4] = 0*

SUBROUTINE_005D:
 13: 0x005D [0x1E] EventEntity looks at LocalPlayer and starts talking
 14: 0x0062 [0x6F] WAIT_FRAME_DELAY: Yield until WaitTime reaches zero
 15: 0x0063 [0x70] WAIT_ENTITY_RENDER_FLAG: Wait while EventEntity->Render.Flags3 bit 2 is set (cancel turn if not)
 16: 0x0064 [0x02] IF !(Work_Zone[3] < 60*) GOTO 0x0090
 17: 0x006C [0x03] Work_Zone[5] = Work_Zone[3]
 18: 0x0071 [0x15] Work_Zone[5] /= 144*
 19: 0x0076 [0x15] Work_Zone[3] /= 60*
 20: 0x007B [0x29] REQ_SET_WAIT(priority=0x08, entity_id=Kameel (ID: 17760328/0x010F0048), tag_num=0x01)
 21: 0x0082 [0x1D] PRINT_EVENT_MESSAGE(message_id=3575*)
    → "Sorry to keep you waiting. The [arrival/departure] of the next airship will be in [less than an hour/about 1 hour/about 2 hours/about 3 hours/about 4 hours/about 5 hours/about 6 hours/about 7 hours] ($1 [minute/minutes] in Earth time)."
 22: 0x0085 [0x23] WAIT_FOR_DIALOG_INTERACTION
 23: 0x0086 [0x29] REQ_SET_WAIT(priority=0x08, entity_id=Kameel (ID: 17760328/0x010F0048), tag_num=0x02)
 24: 0x008D [0x01] GOTO 0x00A2
 25: 0x0090 [0x29] REQ_SET_WAIT(priority=0x08, entity_id=Kameel (ID: 17760328/0x010F0048), tag_num=0x01)
 26: 0x0097 [0x1D] PRINT_EVENT_MESSAGE(message_id=3576*)
    → "Please hurry! The next airship will soon [arrive/depart]!"
 27: 0x009A [0x23] WAIT_FOR_DIALOG_INTERACTION
 28: 0x009B [0x29] REQ_SET_WAIT(priority=0x08, entity_id=Kameel (ID: 17760328/0x010F0048), tag_num=0x02)

SUBROUTINE_00A2:
 29: 0x00A2 [0x20] SET_CLI_EVENT_UC_FLAG: Unlock player control
 30: 0x00A4 [0x21] END_EVENT
 31: 0x00A5 [0x00] END_REQSTACK()
```
