# 0x7FFFFFF0 - Zone Events

## Common Data

| Field            | Value                   |
|------------------|-------------------------|
| Zone             | Port Windurst (ID: 240) |
| Block Size       | 3748 bytes              |
| Total Events     | 110                     |
| References Count | 261                     |

## List of Events

| Event ID                   | Entrypoint   |   Size |   Instructions |
|----------------------------|--------------|--------|----------------|
| [65535](#event-65535)      | 0x0000       |      1 |              1 |
| [65535.1](#event-655351)   | 0x0001       |     10 |              2 |
| [65534](#event-65534)      | 0x000B       |      1 |              1 |
| [65535.2](#event-655352)   | 0x000C       |      6 |              2 |
| [65535.3](#event-655353)   | 0x0012       |     27 |              5 |
| [65535.4](#event-655354)   | 0x002D       |     14 |              4 |
| [65535.5](#event-655355)   | 0x003B       |      1 |              1 |
| [65535.6](#event-655356)   | 0x003C       |      6 |              2 |
| [65535.7](#event-655357)   | 0x0042       |      6 |              2 |
| [65535.8](#event-655358)   | 0x0048       |      6 |              2 |
| [65535.9](#event-655359)   | 0x004E       |      6 |              2 |
| [65535.10](#event-6553510) | 0x0054       |     21 |              5 |
| [65535.11](#event-6553511) | 0x0069       |     21 |              5 |
| [65535.12](#event-6553512) | 0x007E       |     22 |              5 |
| [65535.13](#event-6553513) | 0x0094       |     54 |             11 |
| [65535.14](#event-6553514) | 0x00CA       |     13 |              3 |
| [31](#event-31)            | 0x00D7       |      1 |              1 |
| [32](#event-32)            | 0x00D8       |      1 |              1 |
| [33](#event-33)            | 0x00D9       |      1 |              1 |
| [34](#event-34)            | 0x00DA       |      1 |              1 |
| [35](#event-35)            | 0x00DB       |      1 |              1 |
| [36](#event-36)            | 0x00DC       |      1 |              1 |
| [37](#event-37)            | 0x00DD       |      1 |              1 |
| [38](#event-38)            | 0x00DE       |      1 |              1 |
| [39](#event-39)            | 0x00DF       |      1 |              1 |
| [40](#event-40)            | 0x00E0       |      1 |              1 |
| [65535.15](#event-6553515) | 0x00E1       |     13 |              3 |
| [65535.16](#event-6553516) | 0x00EE       |     13 |              3 |
| [65535.17](#event-6553517) | 0x00FB       |     13 |              3 |
| [65535.18](#event-6553518) | 0x0108       |     13 |              3 |
| [65535.19](#event-6553519) | 0x0115       |     13 |              3 |
| [65535.20](#event-6553520) | 0x0122       |     13 |              3 |
| [65535.21](#event-6553521) | 0x012F       |     13 |              3 |
| [65535.22](#event-6553522) | 0x013C       |     13 |              3 |
| [65535.23](#event-6553523) | 0x0149       |     13 |              3 |
| [65535.24](#event-6553524) | 0x0156       |     13 |              3 |
| [11](#event-11)            | 0x0163       |      1 |              1 |
| [65535.25](#event-6553525) | 0x0164       |     13 |              3 |
| [65535.26](#event-6553526) | 0x0171       |     28 |              6 |
| [65535.27](#event-6553527) | 0x018D       |     16 |              4 |
| [65535.28](#event-6553528) | 0x019D       |     18 |              4 |
| [65535.29](#event-6553529) | 0x01AF       |     16 |              4 |
| [65535.30](#event-6553530) | 0x01BF       |     13 |              3 |
| [65535.31](#event-6553531) | 0x01CC       |     10 |              2 |
| [65535.32](#event-6553532) | 0x01D6       |     10 |              2 |
| [65535.33](#event-6553533) | 0x01E0       |     10 |              2 |
| [65535.34](#event-6553534) | 0x01EA       |     10 |              2 |
| [83](#event-83)            | 0x01F4       |      1 |              1 |
| [65535.35](#event-6553535) | 0x01F5       |     10 |              2 |
| [65535.36](#event-6553536) | 0x01FF       |     10 |              2 |
| [65535.37](#event-6553537) | 0x0209       |     10 |              2 |
| [65535.38](#event-6553538) | 0x0213       |     24 |              6 |
| [65535.39](#event-6553539) | 0x022B       |     30 |              6 |
| [65535.40](#event-6553540) | 0x0249       |     10 |              2 |
| [65535.41](#event-6553541) | 0x0253       |     10 |              2 |
| [65535.42](#event-6553542) | 0x025D       |     18 |              6 |
| [65535.43](#event-6553543) | 0x026F       |     18 |              6 |
| [65535.44](#event-6553544) | 0x0281       |     18 |              6 |
| [65535.45](#event-6553545) | 0x0293       |     18 |              6 |
| [65535.46](#event-6553546) | 0x02A5       |    105 |              9 |
| [65535.47](#event-6553547) | 0x030E       |     27 |              3 |
| [65535.48](#event-6553548) | 0x0329       |     27 |              3 |
| [65535.49](#event-6553549) | 0x0344       |     13 |              3 |
| [65535.50](#event-6553550) | 0x0351       |      4 |              2 |
| [65535.51](#event-6553551) | 0x0355       |     10 |              2 |
| [65535.52](#event-6553552) | 0x035F       |     10 |              2 |
| [65535.53](#event-6553553) | 0x0369       |     10 |              2 |
| [65535.54](#event-6553554) | 0x0373       |     15 |              5 |
| [65535.55](#event-6553555) | 0x0382       |     10 |              2 |
| [65535.56](#event-6553556) | 0x038C       |     18 |              6 |
| [65535.57](#event-6553557) | 0x039E       |     12 |              3 |
| [65535.58](#event-6553558) | 0x03AA       |     10 |              2 |
| [65535.59](#event-6553559) | 0x03B4       |     18 |              6 |
| [65535.60](#event-6553560) | 0x03C6       |     46 |              8 |
| [65535.61](#event-6553561) | 0x03F4       |     10 |              2 |
| [65535.62](#event-6553562) | 0x03FE       |     10 |              2 |
| [65535.63](#event-6553563) | 0x0408       |     24 |              6 |
| [65535.64](#event-6553564) | 0x0420       |     27 |              8 |
| [65535.65](#event-6553565) | 0x043B       |     10 |              2 |
| [65535.66](#event-6553566) | 0x0445       |     10 |              2 |
| [65535.67](#event-6553567) | 0x044F       |     10 |              2 |
| [65535.68](#event-6553568) | 0x0459       |     10 |              2 |
| [65535.69](#event-6553569) | 0x0463       |     10 |              2 |
| [65535.70](#event-6553570) | 0x046D       |     10 |              2 |
| [10002](#event-10002)      | 0x0477       |     13 |              4 |
| [10003](#event-10003)      | 0x0484       |     17 |              6 |
| [10004](#event-10004)      | 0x0495       |     79 |             10 |
| [65535.71](#event-6553571) | 0x04E4       |     10 |              2 |
| [65535.72](#event-6553572) | 0x04EE       |     10 |              2 |
| [618](#event-618)          | 0x04F8       |     66 |             18 |
| [65535.73](#event-6553573) | 0x053A       |     10 |              2 |
| [65535.74](#event-6553574) | 0x0544       |     42 |              6 |
| [65535.75](#event-6553575) | 0x056E       |     37 |              5 |
| [65535.76](#event-6553576) | 0x0593       |     37 |              5 |
| [65535.77](#event-6553577) | 0x05B8       |     15 |              5 |
| [65535.78](#event-6553578) | 0x05C7       |     13 |              3 |
| [65535.79](#event-6553579) | 0x05D4       |     13 |              3 |
| [65535.80](#event-6553580) | 0x05E1       |     13 |              3 |
| [65535.81](#event-6553581) | 0x05EE       |     13 |              3 |
| [65535.82](#event-6553582) | 0x05FB       |     13 |              3 |
| [65535.83](#event-6553583) | 0x0608       |     13 |              3 |
| [65535.84](#event-6553584) | 0x0615       |     13 |              3 |
| [65535.85](#event-6553585) | 0x0622       |    161 |             35 |
| [65535.86](#event-6553586) | 0x06C3       |     15 |              5 |
| [65535.87](#event-6553587) | 0x06D2       |     41 |              9 |
| [65535.88](#event-6553588) | 0x06FB       |     29 |              5 |
| [65535.89](#event-6553589) | 0x0718       |     24 |              4 |
| [65535.90](#event-6553590) | 0x0730       |     24 |              4 |
| [65535.91](#event-6553591) | 0x0748       |    353 |             41 |
| [65535.92](#event-6553592) | 0x08A9       |     29 |              5 |

## DAT References (imed_data)

|   Index | Hex Value   |   Dec Value |
|---------|-------------|-------------|
|       0 | 0x009A      |         154 |
|       1 | 0xFFFFF98B  |  4294965643 |
|       2 | 0x0000      |           0 |
|       3 | 0x0B83      |        2947 |
|       4 | 0x000D      |          13 |
|       5 | 0xFFFE59C8  |  4294859208 |
|       6 | 0x1710A     |       94474 |
|       7 | 0xFFFFEF67  |  4294963047 |
|       8 | 0x0001      |           1 |
|       9 | 0x1B424     |      111652 |
|      10 | 0x186A0     |      100000 |
|      11 | 0x33644     |      210500 |
|      12 | 0x333EC     |      209900 |
|      13 | 0xFFFC9102  |  4294742274 |
|      14 | 0x31CB9     |      203961 |
|      15 | 0xFFFFE0C1  |  4294959297 |
|      16 | 0x0F2A      |        3882 |
|      17 | 0xFFFD7C79  |  4294802553 |
|      18 | 0x1A300     |      107264 |
|      19 | 0xFFFFF061  |  4294963297 |
|      20 | 0x0CEB      |        3307 |
|      21 | 0xFFFFF1FE  |  4294963710 |
|      22 | 0x13F4B     |       81739 |
|      23 | 0xFFFFF449  |  4294964297 |
|      24 | 0x03E2      |         994 |
|      25 | 0x300A7     |      196775 |
|      26 | 0x1FE50     |      130640 |
|      27 | 0xFFFFEB60  |  4294962016 |
|      28 | 0x01DD      |         477 |
|      29 | 0x35BA0     |      220064 |
|      30 | 0x18C13     |      101395 |
|      31 | 0xFFFFE891  |  4294961297 |
|      32 | 0x0ED1      |        3793 |
|      33 | 0x122E2     |       74466 |
|      34 | 0x1E991     |      125329 |
|      35 | 0xFFFFEC79  |  4294962297 |
|      36 | 0x03D3      |         979 |
|      37 | 0xFFFFAAC2  |  4294945474 |
|      38 | 0x2E30F     |      189199 |
|      39 | 0x0863      |        2147 |
|      40 | 0xFFFE845B  |  4294870107 |
|      41 | 0x26243     |      156227 |
|      42 | 0xFFFFEAE5  |  4294961893 |
|      43 | 0x0E59      |        3673 |
|      44 | 0xFFFE0EFB  |  4294840059 |
|      45 | 0x1D187     |      119175 |
|      46 | 0xFFFFF448  |  4294964296 |
|      47 | 0x0FC6      |        4038 |
|      48 | 0xFFFE4C6E  |  4294855790 |
|      49 | 0x138B3     |       80051 |
|      50 | 0x04C7      |        1223 |
|      51 | 0xFFFEE975  |  4294895989 |
|      52 | 0x1BC53     |      113747 |
|      53 | 0xFFFFF060  |  4294963296 |
|      54 | 0x0694      |        1684 |
|      55 | 0x365E2     |      222690 |
|      56 | 0x1ABAE     |      109486 |
|      57 | 0xFFFFE796  |  4294961046 |
|      58 | 0x0234      |         564 |
|      59 | 0x3371A     |      210714 |
|      60 | 0x181E5     |       98789 |
|      61 | 0xFFFFE71A  |  4294960922 |
|      62 | 0x0872      |        2162 |
|      63 | 0x32DA4     |      208292 |
|      64 | 0x18A45     |      100933 |
|      65 | 0xFFFFE69C  |  4294960796 |
|      66 | 0x0A19      |        2585 |
|      67 | 0x35606     |      218630 |
|      68 | 0x1BA5F     |      113247 |
|      69 | 0xFFFFE8F6  |  4294961398 |
|      70 | 0x00F0      |         240 |
|      71 | 0x35AF9     |      219897 |
|      72 | 0x1B61A     |      112154 |
|      73 | 0xFFFFE69D  |  4294960797 |
|      74 | 0x3395E     |      211294 |
|      75 | 0x17EFF     |       98047 |
|      76 | 0xFFFC879B  |  4294739867 |
|      77 | 0x2CFD1     |      184273 |
|      78 | 0x07FD      |        2045 |
|      79 | 0xFFFFA7CD  |  4294944717 |
|      80 | 0x2EAFD     |      191229 |
|      81 | 0x07B6      |        1974 |
|      82 | 0xFFFFA715  |  4294944533 |
|      83 | 0x2DFF5     |      188405 |
|      84 | 0xFFFFE890  |  4294961296 |
|      85 | 0x0975      |        2421 |
|      86 | 0xFFFF9EC4  |  4294942404 |
|      87 | 0x2E6A1     |      190113 |
|      88 | 0x07DB      |        2011 |
|      89 | 0xFFFE4AA9  |  4294855337 |
|      90 | 0x186F6     |      100086 |
|      91 | 0x0BEE      |        3054 |
|      92 | 0xFFFEC780  |  4294887296 |
|      93 | 0x26991     |      158097 |
|      94 | 0xFFFFEA85  |  4294961797 |
|      95 | 0x02C5      |         709 |
|      96 | 0xFFFECDB2  |  4294888882 |
|      97 | 0x26F5B     |      159579 |
|      98 | 0xFFFFEA84  |  4294961796 |
|      99 | 0x0FDB      |        4059 |
|     100 | 0xFFFDCE50  |  4294823504 |
|     101 | 0x2AE09     |      175625 |
|     102 | 0xFFFFE4A9  |  4294960297 |
|     103 | 0x0163      |         355 |
|     104 | 0xFFFDE802  |  4294830082 |
|     105 | 0x29E6A     |      171626 |
|     106 | 0x0032      |          50 |
|     107 | 0x0064      |         100 |
|     108 | 0x0190      |         400 |
|     109 | 0xFFFDF0A8  |  4294832296 |
|     110 | 0x29428     |      169000 |
|     111 | 0xFFFFE88F  |  4294961295 |
|     112 | 0x026D      |         621 |
|     113 | 0xFFFE4ABC  |  4294855356 |
|     114 | 0x18871     |      100465 |
|     115 | 0x0B23      |        2851 |
|     116 | 0xFFFE4EA7  |  4294856359 |
|     117 | 0x18534     |       99636 |
|     118 | 0xFFFFEF66  |  4294963046 |
|     119 | 0x07D1      |        2001 |
|     120 | 0xFFFE4ADC  |  4294855388 |
|     121 | 0x18550     |       99664 |
|     122 | 0x0B7B      |        2939 |
|     123 | 0xFFFE4EB6  |  4294856374 |
|     124 | 0x188A9     |      100521 |
|     125 | 0x03E8      |        1000 |
|     126 | 0xFFFE45FF  |  4294854143 |
|     127 | 0x18595     |       99733 |
|     128 | 0x0007      |           7 |
|     129 | 0xFFFF9D1D  |  4294941981 |
|     130 | 0x2E4B7     |      189623 |
|     131 | 0x0786      |        1926 |
|     132 | 0xFFFF9A44  |  4294941252 |
|     133 | 0x3F9FB     |      260603 |
|     134 | 0xFFFFCD39  |  4294954297 |
|     135 | 0x0BEB      |        3051 |
|     136 | 0xFFFF97F6  |  4294940662 |
|     137 | 0x4175E     |      268126 |
|     138 | 0xFFFFBBA4  |  4294949796 |
|     139 | 0x02D1      |         721 |
|     140 | 0x0028      |          40 |
|     141 | 0xFFFFB33D  |  4294947645 |
|     142 | 0x42C50     |      273488 |
|     143 | 0xFFFF9982  |  4294941058 |
|     144 | 0x3E383     |      254851 |
|     145 | 0xFFFFCF7D  |  4294954877 |
|     146 | 0x0CB2      |        3250 |
|     147 | 0xFFFFA27B  |  4294943355 |
|     148 | 0x3E081     |      254081 |
|     149 | 0xFFFFCFB1  |  4294954929 |
|     150 | 0x0700      |        1792 |
|     151 | 0xFFFF9A72  |  4294941298 |
|     152 | 0x3FCF4     |      261364 |
|     153 | 0xFFFFCD38  |  4294954296 |
|     154 | 0x049A      |        1178 |
|     155 | 0xFFFF99AD  |  4294941101 |
|     156 | 0x404BB     |      263355 |
|     157 | 0x0C76      |        3190 |
|     158 | 0xFFFF9988  |  4294941064 |
|     159 | 0x427DE     |      272350 |
|     160 | 0xFFFFD120  |  4294955296 |
|     161 | 0x0F18      |        3864 |
|     162 | 0xFFFF9083  |  4294938755 |
|     163 | 0x44596     |      279958 |
|     164 | 0x0BDC      |        3036 |
|     165 | 0xFFFF789A  |  4294932634 |
|     166 | 0x43CAF     |      277679 |
|     167 | 0x0B87      |        2951 |
|     168 | 0x3FD4F     |      261455 |
|     169 | 0x0488      |        1160 |
|     170 | 0xFFFF98FD  |  4294940925 |
|     171 | 0x3DF37     |      253751 |
|     172 | 0xFFFFCFB6  |  4294954934 |
|     173 | 0xFFFF802C  |  4294934572 |
|     174 | 0x3CD93     |      249235 |
|     175 | 0xFFFFCFF7  |  4294954999 |
|     176 | 0xFFFF6449  |  4294927433 |
|     177 | 0x3B86E     |      243822 |
|     178 | 0xFFFFCF2D  |  4294954797 |
|     179 | 0xFFFE49F3  |  4294855155 |
|     180 | 0x19B82     |      105346 |
|     181 | 0xFFFFF34F  |  4294964047 |
|     182 | 0x040D      |        1037 |
|     183 | 0xFFFE49F2  |  4294855154 |
|     184 | 0x1A658     |      108120 |
|     185 | 0x0396      |         918 |
|     186 | 0xFFFFA13E  |  4294943038 |
|     187 | 0x2E62E     |      189998 |
|     188 | 0x0E7B      |        3707 |
|     189 | 0xFFFFA2A2  |  4294943394 |
|     190 | 0x2EBAF     |      191407 |
|     191 | 0x005D      |          93 |
|     192 | 0xFFFF9C34  |  4294941748 |
|     193 | 0x2E854     |      190548 |
|     194 | 0x0774      |        1908 |
|     195 | 0xFFFE4A87  |  4294855303 |
|     196 | 0x19C92     |      105618 |
|     197 | 0x03AA      |         938 |
|     198 | 0x37F6C     |      229228 |
|     199 | 0x12484     |       74884 |
|     200 | 0xFFFFF625  |  4294964773 |
|     201 | 0x09F0      |        2544 |
|     202 | 0x00C8      |         200 |
|     203 | 0x00BE      |         190 |
|     204 | 0x0258      |         600 |
|     205 | 0x021C      |         540 |
|     206 | 0x003C      |          60 |
|     207 | 0x30C58     |      199768 |
|     208 | 0x21C7C     |      138364 |
|     209 | 0xFFFFEDAC  |  4294962604 |
|     210 | 0x0ED3      |        3795 |
|     211 | 0xFFFD3B89  |  4294785929 |
|     212 | 0x11CD3     |       72915 |
|     213 | 0xFFFFF4ED  |  4294964461 |
|     214 | 0x0964      |        2404 |
|     215 | 0x32C3      |       12995 |
|     216 | 0x32C4      |       12996 |
|     217 | 0x32C5      |       12997 |
|     218 | 0x32C6      |       12998 |
|     219 | 0x32C7      |       12999 |
|     220 | 0x32C8      |       13000 |
|     221 | 0x32C9      |       13001 |
|     222 | 0x32CA      |       13002 |
|     223 | 0xFFFD35D6  |  4294784470 |
|     224 | 0x11B86     |       72582 |
|     225 | 0x0BB1      |        2993 |
|     226 | 0xFFFF9882  |  4294940802 |
|     227 | 0x2E694     |      190100 |
|     228 | 0x002B      |          43 |
|     229 | 0x062B      |        1579 |
|     230 | 0x032B      |         811 |
|     231 | 0x042B      |        1067 |
|     232 | 0x012B      |         299 |
|     233 | 0x052B      |        1323 |
|     234 | 0x022B      |         555 |
|     235 | 0x0005      |           5 |
|     236 | 0x0002      |           2 |
|     237 | 0x000A      |          10 |
|     238 | 0x0009      |           9 |
|     239 | 0x0046      |          70 |
|     240 | 0x008C      |         140 |
|     241 | 0x00D2      |         210 |
|     242 | 0x2814C     |      164172 |
|     243 | 0x5118B     |      332171 |
|     244 | 0xFFFEA992  |  4294879634 |
|     245 | 0x27951     |      162129 |
|     246 | 0x510CC     |      331980 |
|     247 | 0xFFFEA9CB  |  4294879691 |
|     248 | 0x000F      |          15 |
|     249 | 0x0095      |         149 |
|     250 | 0x0078      |         120 |
|     251 | 0x009F      |         159 |
|     252 | 0x0003      |           3 |
|     253 | 0x00A9      |         169 |
|     254 | 0x0004      |           4 |
|     255 | 0x00B3      |         179 |
|     256 | 0x00BD      |         189 |
|     257 | 0x0006      |           6 |
|     258 | 0x00C7      |         199 |
|     259 | 0x0008      |           8 |
|     260 | 0x00D1      |         209 |

## Events

### Event 65535

#### Metadata

| Field        | Value   |
|--------------|---------|
| Entrypoint   | 0x0000  |
| Data Size    | 1 bytes |
| Instructions | 1       |

```
      00 01 02 03 04 05 06 07  08 09 0A 0B 0C 0D 0E 0F
      -- -- -- -- -- -- -- --  -- -- -- -- -- -- -- --
0000: 00                                                .               
```

#### Opcodes

```
  0: 0x0000 [0x00] END_REQSTACK()
```

### Event 65535.1

#### Metadata

| Field        | Value    |
|--------------|----------|
| Entrypoint   | 0x0001   |
| Data Size    | 10 bytes |
| Instructions | 2        |

```
      00 01 02 03 04 05 06 07  08 09 0A 0B 0C 0D 0E 0F
      -- -- -- -- -- -- -- --  -- -- -- -- -- -- -- --
0000:    37 00 80 01 80 02 80  03 80 00                  7.........     
```

#### Opcodes

```
  0: 0x0001 [0x37] UPDATE_EVENT_POSITION_AND_DIR: x=0.154*, z=-1.653*, y=0.000*, direction=259.0°*
  1: 0x000A [0x00] END_REQSTACK()
```

### Event 65534

#### Metadata

| Field        | Value   |
|--------------|---------|
| Entrypoint   | 0x000B  |
| Data Size    | 1 bytes |
| Instructions | 1       |

```
      00 01 02 03 04 05 06 07  08 09 0A 0B 0C 0D 0E 0F
      -- -- -- -- -- -- -- --  -- -- -- -- -- -- -- --
0000:                                   00                         .    
```

#### Opcodes

```
  0: 0x000B [0x00] END_REQSTACK()
```

### Event 65535.2

#### Metadata

| Field        | Value   |
|--------------|---------|
| Entrypoint   | 0x000C  |
| Data Size    | 6 bytes |
| Instructions | 2       |

```
      00 01 02 03 04 05 06 07  08 09 0A 0B 0C 0D 0E 0F
      -- -- -- -- -- -- -- --  -- -- -- -- -- -- -- --
0000:                                      03 02 10 07              ....
0010: 7F 00                                             ..              
```

#### Opcodes

```
  0: 0x000C [0x03] Work_Zone[2] = Entity->Race
  1: 0x0011 [0x00] END_REQSTACK()
```

### Event 65535.3

#### Metadata

| Field        | Value    |
|--------------|----------|
| Entrypoint   | 0x0012   |
| Data Size    | 27 bytes |
| Instructions | 5        |

```
      00 01 02 03 04 05 06 07  08 09 0A 0B 0C 0D 0E 0F
      -- -- -- -- -- -- -- --  -- -- -- -- -- -- -- --
0010:       03 03 00 07 7F 1A  54 06 0B 04 00 66 04 00    ......T....f..
0020: F8 FF FF 7F F8 FF FF 7F  70 61 73 30 00           ........pas0.   
```

#### Opcodes

```
  0: 0x0012 [0x03] ExtData[1]->WorkLocal[3] = Entity->Race
  1: 0x0017 [0x1A] CALL_SUBROUTINE(address=0x0654)
  2: 0x001A [0x0B] ExtData[1]->WorkLocal[4]++
  3: 0x001D [0x66] LOAD_EXT_SCHEDULER_MAIN: Load scheduler "pas0" with entities [EventEntity, EventEntity], work=ExtData[1]->WorkLocal[4]
  4: 0x002C [0x00] END_REQSTACK()
```

### Event 65535.4

#### Metadata

| Field        | Value    |
|--------------|----------|
| Entrypoint   | 0x002D   |
| Data Size    | 14 bytes |
| Instructions | 4        |

```
      00 01 02 03 04 05 06 07  08 09 0A 0B 0C 0D 0E 0F
      -- -- -- -- -- -- -- --  -- -- -- -- -- -- -- --
0020:                                         32 04 80               2..
0030: 1F 00 05 80 06 80 07 80  1F 01 00                 ...........     
```

#### Opcodes

```
  0: 0x002D [0x32] ExtData[1]->MainSpeed = 13* * 0.1
  1: 0x0030 [0x1F] MOVE_ENTITY: EventEntity moves to X=-108.088*, Z=94.474*, Y=-4.249*
  2: 0x0038 [0x1F] MOVE_ENTITY: Update entity position (mode=1)
  3: 0x003A [0x00] END_REQSTACK()
```

### Event 65535.5

#### Metadata

| Field        | Value   |
|--------------|---------|
| Entrypoint   | 0x003B  |
| Data Size    | 1 bytes |
| Instructions | 1       |

```
      00 01 02 03 04 05 06 07  08 09 0A 0B 0C 0D 0E 0F
      -- -- -- -- -- -- -- --  -- -- -- -- -- -- -- --
0030:                                   00                         .    
```

#### Opcodes

```
  0: 0x003B [0x00] END_REQSTACK()
```

### Event 65535.6

#### Metadata

| Field        | Value   |
|--------------|---------|
| Entrypoint   | 0x003C  |
| Data Size    | 6 bytes |
| Instructions | 2       |

```
      00 01 02 03 04 05 06 07  08 09 0A 0B 0C 0D 0E 0F
      -- -- -- -- -- -- -- --  -- -- -- -- -- -- -- --
0030:                                      03 02 10 0B              ....
0040: 7F 00                                             ..              
```

#### Opcodes

```
  0: 0x003C [0x03] Work_Zone[2] = (Entity->Render.Flags01 >> 25) & 1
  1: 0x0041 [0x00] END_REQSTACK()
```

### Event 65535.7

#### Metadata

| Field        | Value   |
|--------------|---------|
| Entrypoint   | 0x0042  |
| Data Size    | 6 bytes |
| Instructions | 2       |

```
      00 01 02 03 04 05 06 07  08 09 0A 0B 0C 0D 0E 0F
      -- -- -- -- -- -- -- --  -- -- -- -- -- -- -- --
0040:       03 03 10 0B 7F 00                             ......        
```

#### Opcodes

```
  0: 0x0042 [0x03] Work_Zone[3] = (Entity->Render.Flags01 >> 25) & 1
  1: 0x0047 [0x00] END_REQSTACK()
```

### Event 65535.8

#### Metadata

| Field        | Value   |
|--------------|---------|
| Entrypoint   | 0x0048  |
| Data Size    | 6 bytes |
| Instructions | 2       |

```
      00 01 02 03 04 05 06 07  08 09 0A 0B 0C 0D 0E 0F
      -- -- -- -- -- -- -- --  -- -- -- -- -- -- -- --
0040:                          03 09 10 0B 7F 00                ......  
```

#### Opcodes

```
  0: 0x0048 [0x03] Work_Zone[9] = (Entity->Render.Flags01 >> 25) & 1
  1: 0x004D [0x00] END_REQSTACK()
```

### Event 65535.9

#### Metadata

| Field        | Value   |
|--------------|---------|
| Entrypoint   | 0x004E  |
| Data Size    | 6 bytes |
| Instructions | 2       |

```
      00 01 02 03 04 05 06 07  08 09 0A 0B 0C 0D 0E 0F
      -- -- -- -- -- -- -- --  -- -- -- -- -- -- -- --
0040:                                            03 09                ..
0050: 10 07 7F 00                                       ....            
```

#### Opcodes

```
  0: 0x004E [0x03] Work_Zone[9] = Entity->Race
  1: 0x0053 [0x00] END_REQSTACK()
```

### Event 65535.10

#### Metadata

| Field        | Value    |
|--------------|----------|
| Entrypoint   | 0x0054   |
| Data Size    | 21 bytes |
| Instructions | 5        |

```
      00 01 02 03 04 05 06 07  08 09 0A 0B 0C 0D 0E 0F
      -- -- -- -- -- -- -- --  -- -- -- -- -- -- -- --
0050:             82 65 36 6F  30 63 00 03 07 10 08 80      .e6o0c......
0060: 01 68 00 03 07 10 02 80  00                       .h.......       
```

#### Opcodes

```
  0: 0x0054 [0x82] RECT_HIT_TEST_BRANCH: If EventEntity is NOT in rectangle 0x306F3665, GOTO 0x0063
  1: 0x005B [0x03] Work_Zone[7] = 1*
  2: 0x0060 [0x01] GOTO 0x0068
  3: 0x0063 [0x03] Work_Zone[7] = 0*

SUBROUTINE_0068:
  4: 0x0068 [0x00] END_REQSTACK()
```

### Event 65535.11

#### Metadata

| Field        | Value    |
|--------------|----------|
| Entrypoint   | 0x0069   |
| Data Size    | 21 bytes |
| Instructions | 5        |

```
      00 01 02 03 04 05 06 07  08 09 0A 0B 0C 0D 0E 0F
      -- -- -- -- -- -- -- --  -- -- -- -- -- -- -- --
0060:                             82 65 36 6F 31 78 00           .e6o1x.
0070: 03 07 10 08 80 01 7D 00  03 07 10 02 80 00        ......}.......  
```

#### Opcodes

```
  0: 0x0069 [0x82] RECT_HIT_TEST_BRANCH: If EventEntity is NOT in rectangle 0x316F3665, GOTO 0x0078
  1: 0x0070 [0x03] Work_Zone[7] = 1*
  2: 0x0075 [0x01] GOTO 0x007D
  3: 0x0078 [0x03] Work_Zone[7] = 0*

SUBROUTINE_007D:
  4: 0x007D [0x00] END_REQSTACK()
```

### Event 65535.12

#### Metadata

| Field        | Value    |
|--------------|----------|
| Entrypoint   | 0x007E   |
| Data Size    | 22 bytes |
| Instructions | 5        |

```
      00 01 02 03 04 05 06 07  08 09 0A 0B 0C 0D 0E 0F
      -- -- -- -- -- -- -- --  -- -- -- -- -- -- -- --
0070:                                            02 02                ..
0080: 7F 09 80 05 8E 00 03 08  10 08 80 01 93 00 03 08  ................
0090: 10 02 80 00                                       ....            
```

#### Opcodes

```
  0: 0x007E [0x02] IF !(ExtData[1]->EventPos[2] * 1000.0 > 111652*) GOTO 0x008E
  1: 0x0086 [0x03] Work_Zone[8] = 1*
  2: 0x008B [0x01] GOTO 0x0093
  3: 0x008E [0x03] Work_Zone[8] = 0*

SUBROUTINE_0093:
  4: 0x0093 [0x00] END_REQSTACK()
```

### Event 65535.13

#### Metadata

| Field        | Value    |
|--------------|----------|
| Entrypoint   | 0x0094   |
| Data Size    | 54 bytes |
| Instructions | 11       |

```
      00 01 02 03 04 05 06 07  08 09 0A 0B 0C 0D 0E 0F
      -- -- -- -- -- -- -- --  -- -- -- -- -- -- -- --
0090:             02 02 7F 0A  80 04 B4 00 02 00 7F 0B      ............
00A0: 80 03 AC 00 03 08 10 08  80 01 B1 00 03 08 10 02  ................
00B0: 80 01 C9 00 02 00 7F 0C  80 03 C4 00 03 08 10 08  ................
00C0: 80 01 C9 00 03 08 10 02  80 00                    ..........      
```

#### Opcodes

```
  0: 0x0094 [0x02] IF !(ExtData[1]->EventPos[2] * 1000.0 < 100000*) GOTO 0x00B4
  1: 0x009C [0x02] IF !(ExtData[1]->EventPos[0] * 1000.0 >= 210500*) GOTO 0x00AC
  2: 0x00A4 [0x03] Work_Zone[8] = 1*
  3: 0x00A9 [0x01] GOTO 0x00B1
  4: 0x00AC [0x03] Work_Zone[8] = 0*

SUBROUTINE_00B1:
  5: 0x00B1 [0x01] GOTO 0x00C9
  6: 0x00B4 [0x02] IF !(ExtData[1]->EventPos[0] * 1000.0 >= 209900*) GOTO 0x00C4
  7: 0x00BC [0x03] Work_Zone[8] = 1*
  8: 0x00C1 [0x01] GOTO 0x00C9
  9: 0x00C4 [0x03] Work_Zone[8] = 0*

SUBROUTINE_00C9:
 10: 0x00C9 [0x00] END_REQSTACK()
```

### Event 65535.14

#### Metadata

| Field        | Value    |
|--------------|----------|
| Entrypoint   | 0x00CA   |
| Data Size    | 13 bytes |
| Instructions | 3        |

```
      00 01 02 03 04 05 06 07  08 09 0A 0B 0C 0D 0E 0F
      -- -- -- -- -- -- -- --  -- -- -- -- -- -- -- --
00C0:                                47 00 0D 80 0E 80            G.....
00D0: 0F 80 10 80 47 01 00                              ....G..         
```

#### Opcodes

```
  0: 0x00CA [0x47] UPDATE_PLAYER_POS(-225.022*, 203.961*, -7.999*, yaw=341.2°*)
  1: 0x00D4 [0x47] WAIT_PLAYER_POS_UPDATE
  2: 0x00D6 [0x00] END_REQSTACK()
```

### Event 31

#### Metadata

| Field        | Value   |
|--------------|---------|
| Entrypoint   | 0x00D7  |
| Data Size    | 1 bytes |
| Instructions | 1       |

```
      00 01 02 03 04 05 06 07  08 09 0A 0B 0C 0D 0E 0F
      -- -- -- -- -- -- -- --  -- -- -- -- -- -- -- --
00D0:                      00                                  .        
```

#### Opcodes

```
  0: 0x00D7 [0x00] END_REQSTACK()
```

### Event 32

#### Metadata

| Field        | Value   |
|--------------|---------|
| Entrypoint   | 0x00D8  |
| Data Size    | 1 bytes |
| Instructions | 1       |

```
      00 01 02 03 04 05 06 07  08 09 0A 0B 0C 0D 0E 0F
      -- -- -- -- -- -- -- --  -- -- -- -- -- -- -- --
00D0:                          00                               .       
```

#### Opcodes

```
  0: 0x00D8 [0x00] END_REQSTACK()
```

### Event 33

#### Metadata

| Field        | Value   |
|--------------|---------|
| Entrypoint   | 0x00D9  |
| Data Size    | 1 bytes |
| Instructions | 1       |

```
      00 01 02 03 04 05 06 07  08 09 0A 0B 0C 0D 0E 0F
      -- -- -- -- -- -- -- --  -- -- -- -- -- -- -- --
00D0:                             00                             .      
```

#### Opcodes

```
  0: 0x00D9 [0x00] END_REQSTACK()
```

### Event 34

#### Metadata

| Field        | Value   |
|--------------|---------|
| Entrypoint   | 0x00DA  |
| Data Size    | 1 bytes |
| Instructions | 1       |

```
      00 01 02 03 04 05 06 07  08 09 0A 0B 0C 0D 0E 0F
      -- -- -- -- -- -- -- --  -- -- -- -- -- -- -- --
00D0:                                00                           .     
```

#### Opcodes

```
  0: 0x00DA [0x00] END_REQSTACK()
```

### Event 35

#### Metadata

| Field        | Value   |
|--------------|---------|
| Entrypoint   | 0x00DB  |
| Data Size    | 1 bytes |
| Instructions | 1       |

```
      00 01 02 03 04 05 06 07  08 09 0A 0B 0C 0D 0E 0F
      -- -- -- -- -- -- -- --  -- -- -- -- -- -- -- --
00D0:                                   00                         .    
```

#### Opcodes

```
  0: 0x00DB [0x00] END_REQSTACK()
```

### Event 36

#### Metadata

| Field        | Value   |
|--------------|---------|
| Entrypoint   | 0x00DC  |
| Data Size    | 1 bytes |
| Instructions | 1       |

```
      00 01 02 03 04 05 06 07  08 09 0A 0B 0C 0D 0E 0F
      -- -- -- -- -- -- -- --  -- -- -- -- -- -- -- --
00D0:                                      00                       .   
```

#### Opcodes

```
  0: 0x00DC [0x00] END_REQSTACK()
```

### Event 37

#### Metadata

| Field        | Value   |
|--------------|---------|
| Entrypoint   | 0x00DD  |
| Data Size    | 1 bytes |
| Instructions | 1       |

```
      00 01 02 03 04 05 06 07  08 09 0A 0B 0C 0D 0E 0F
      -- -- -- -- -- -- -- --  -- -- -- -- -- -- -- --
00D0:                                         00                     .  
```

#### Opcodes

```
  0: 0x00DD [0x00] END_REQSTACK()
```

### Event 38

#### Metadata

| Field        | Value   |
|--------------|---------|
| Entrypoint   | 0x00DE  |
| Data Size    | 1 bytes |
| Instructions | 1       |

```
      00 01 02 03 04 05 06 07  08 09 0A 0B 0C 0D 0E 0F
      -- -- -- -- -- -- -- --  -- -- -- -- -- -- -- --
00D0:                                            00                   . 
```

#### Opcodes

```
  0: 0x00DE [0x00] END_REQSTACK()
```

### Event 39

#### Metadata

| Field        | Value   |
|--------------|---------|
| Entrypoint   | 0x00DF  |
| Data Size    | 1 bytes |
| Instructions | 1       |

```
      00 01 02 03 04 05 06 07  08 09 0A 0B 0C 0D 0E 0F
      -- -- -- -- -- -- -- --  -- -- -- -- -- -- -- --
00D0:                                               00                 .
```

#### Opcodes

```
  0: 0x00DF [0x00] END_REQSTACK()
```

### Event 40

#### Metadata

| Field        | Value   |
|--------------|---------|
| Entrypoint   | 0x00E0  |
| Data Size    | 1 bytes |
| Instructions | 1       |

```
      00 01 02 03 04 05 06 07  08 09 0A 0B 0C 0D 0E 0F
      -- -- -- -- -- -- -- --  -- -- -- -- -- -- -- --
00E0: 00                                                .               
```

#### Opcodes

```
  0: 0x00E0 [0x00] END_REQSTACK()
```

### Event 65535.15

#### Metadata

| Field        | Value    |
|--------------|----------|
| Entrypoint   | 0x00E1   |
| Data Size    | 13 bytes |
| Instructions | 3        |

```
      00 01 02 03 04 05 06 07  08 09 0A 0B 0C 0D 0E 0F
      -- -- -- -- -- -- -- --  -- -- -- -- -- -- -- --
00E0:    47 00 11 80 12 80 13  80 14 80 47 01 00         G.........G..  
```

#### Opcodes

```
  0: 0x00E1 [0x47] UPDATE_PLAYER_POS(-164.743*, 107.264*, -3.999*, yaw=290.6°*)
  1: 0x00EB [0x47] WAIT_PLAYER_POS_UPDATE
  2: 0x00ED [0x00] END_REQSTACK()
```

### Event 65535.16

#### Metadata

| Field        | Value    |
|--------------|----------|
| Entrypoint   | 0x00EE   |
| Data Size    | 13 bytes |
| Instructions | 3        |

```
      00 01 02 03 04 05 06 07  08 09 0A 0B 0C 0D 0E 0F
      -- -- -- -- -- -- -- --  -- -- -- -- -- -- -- --
00E0:                                            47 00                G.
00F0: 15 80 16 80 17 80 18 80  47 01 00                 ........G..     
```

#### Opcodes

```
  0: 0x00EE [0x47] UPDATE_PLAYER_POS(-3.586*, 81.739*, -2.999*, yaw=87.4°*)
  1: 0x00F8 [0x47] WAIT_PLAYER_POS_UPDATE
  2: 0x00FA [0x00] END_REQSTACK()
```

### Event 65535.17

#### Metadata

| Field        | Value    |
|--------------|----------|
| Entrypoint   | 0x00FB   |
| Data Size    | 13 bytes |
| Instructions | 3        |

```
      00 01 02 03 04 05 06 07  08 09 0A 0B 0C 0D 0E 0F
      -- -- -- -- -- -- -- --  -- -- -- -- -- -- -- --
00F0:                                   47 00 19 80 1A             G....
0100: 80 1B 80 1C 80 47 01 00                           .....G..        
```

#### Opcodes

```
  0: 0x00FB [0x47] UPDATE_PLAYER_POS(196.775*, 130.640*, -5.280*, yaw=41.9°*)
  1: 0x0105 [0x47] WAIT_PLAYER_POS_UPDATE
  2: 0x0107 [0x00] END_REQSTACK()
```

### Event 65535.18

#### Metadata

| Field        | Value    |
|--------------|----------|
| Entrypoint   | 0x0108   |
| Data Size    | 13 bytes |
| Instructions | 3        |

```
      00 01 02 03 04 05 06 07  08 09 0A 0B 0C 0D 0E 0F
      -- -- -- -- -- -- -- --  -- -- -- -- -- -- -- --
0100:                          47 00 1D 80 1E 80 1F 80          G.......
0110: 20 80 47 01 00                                     .G..           
```

#### Opcodes

```
  0: 0x0108 [0x47] UPDATE_PLAYER_POS(220.064*, 101.395*, -5.999*, yaw=333.4°*)
  1: 0x0112 [0x47] WAIT_PLAYER_POS_UPDATE
  2: 0x0114 [0x00] END_REQSTACK()
```

### Event 65535.19

#### Metadata

| Field        | Value    |
|--------------|----------|
| Entrypoint   | 0x0115   |
| Data Size    | 13 bytes |
| Instructions | 3        |

```
      00 01 02 03 04 05 06 07  08 09 0A 0B 0C 0D 0E 0F
      -- -- -- -- -- -- -- --  -- -- -- -- -- -- -- --
0110:                47 00 21  80 22 80 23 80 24 80 47       G.!.".#.$.G
0120: 01 00                                             ..              
```

#### Opcodes

```
  0: 0x0115 [0x47] UPDATE_PLAYER_POS(74.466*, 125.329*, -4.999*, yaw=86.0°*)
  1: 0x011F [0x47] WAIT_PLAYER_POS_UPDATE
  2: 0x0121 [0x00] END_REQSTACK()
```

### Event 65535.20

#### Metadata

| Field        | Value    |
|--------------|----------|
| Entrypoint   | 0x0122   |
| Data Size    | 13 bytes |
| Instructions | 3        |

```
      00 01 02 03 04 05 06 07  08 09 0A 0B 0C 0D 0E 0F
      -- -- -- -- -- -- -- --  -- -- -- -- -- -- -- --
0120:       47 00 25 80 26 80  1F 80 27 80 47 01 00       G.%.&...'.G.. 
```

#### Opcodes

```
  0: 0x0122 [0x47] UPDATE_PLAYER_POS(-21.822*, 189.199*, -5.999*, yaw=188.7°*)
  1: 0x012C [0x47] WAIT_PLAYER_POS_UPDATE
  2: 0x012E [0x00] END_REQSTACK()
```

### Event 65535.21

#### Metadata

| Field        | Value    |
|--------------|----------|
| Entrypoint   | 0x012F   |
| Data Size    | 13 bytes |
| Instructions | 3        |

```
      00 01 02 03 04 05 06 07  08 09 0A 0B 0C 0D 0E 0F
      -- -- -- -- -- -- -- --  -- -- -- -- -- -- -- --
0120:                                               47                 G
0130: 00 28 80 29 80 2A 80 2B  80 47 01 00              .(.).*.+.G..    
```

#### Opcodes

```
  0: 0x012F [0x47] UPDATE_PLAYER_POS(-97.189*, 156.227*, -5.403*, yaw=322.8°*)
  1: 0x0139 [0x47] WAIT_PLAYER_POS_UPDATE
  2: 0x013B [0x00] END_REQSTACK()
```

### Event 65535.22

#### Metadata

| Field        | Value    |
|--------------|----------|
| Entrypoint   | 0x013C   |
| Data Size    | 13 bytes |
| Instructions | 3        |

```
      00 01 02 03 04 05 06 07  08 09 0A 0B 0C 0D 0E 0F
      -- -- -- -- -- -- -- --  -- -- -- -- -- -- -- --
0130:                                      47 00 2C 80              G.,.
0140: 2D 80 2E 80 2F 80 47 01  00                       -.../.G..       
```

#### Opcodes

```
  0: 0x013C [0x47] UPDATE_PLAYER_POS(-127.237*, 119.175*, -3.000*, yaw=354.9°*)
  1: 0x0146 [0x47] WAIT_PLAYER_POS_UPDATE
  2: 0x0148 [0x00] END_REQSTACK()
```

### Event 65535.23

#### Metadata

| Field        | Value    |
|--------------|----------|
| Entrypoint   | 0x0149   |
| Data Size    | 13 bytes |
| Instructions | 3        |

```
      00 01 02 03 04 05 06 07  08 09 0A 0B 0C 0D 0E 0F
      -- -- -- -- -- -- -- --  -- -- -- -- -- -- -- --
0140:                             47 00 30 80 31 80 2E           G.0.1..
0150: 80 32 80 47 01 00                                 .2.G..          
```

#### Opcodes

```
  0: 0x0149 [0x47] UPDATE_PLAYER_POS(-111.506*, 80.051*, -3.000*, yaw=107.5°*)
  1: 0x0153 [0x47] WAIT_PLAYER_POS_UPDATE
  2: 0x0155 [0x00] END_REQSTACK()
```

### Event 65535.24

#### Metadata

| Field        | Value    |
|--------------|----------|
| Entrypoint   | 0x0156   |
| Data Size    | 13 bytes |
| Instructions | 3        |

```
      00 01 02 03 04 05 06 07  08 09 0A 0B 0C 0D 0E 0F
      -- -- -- -- -- -- -- --  -- -- -- -- -- -- -- --
0150:                   47 00  33 80 34 80 35 80 36 80        G.3.4.5.6.
0160: 47 01 00                                          G..             
```

#### Opcodes

```
  0: 0x0156 [0x47] UPDATE_PLAYER_POS(-71.307*, 113.747*, -4.000*, yaw=148.0°*)
  1: 0x0160 [0x47] WAIT_PLAYER_POS_UPDATE
  2: 0x0162 [0x00] END_REQSTACK()
```

### Event 11

#### Metadata

| Field        | Value   |
|--------------|---------|
| Entrypoint   | 0x0163  |
| Data Size    | 1 bytes |
| Instructions | 1       |

```
      00 01 02 03 04 05 06 07  08 09 0A 0B 0C 0D 0E 0F
      -- -- -- -- -- -- -- --  -- -- -- -- -- -- -- --
0160:          00                                          .            
```

#### Opcodes

```
  0: 0x0163 [0x00] END_REQSTACK()
```

### Event 65535.25

#### Metadata

| Field        | Value    |
|--------------|----------|
| Entrypoint   | 0x0164   |
| Data Size    | 13 bytes |
| Instructions | 3        |

```
      00 01 02 03 04 05 06 07  08 09 0A 0B 0C 0D 0E 0F
      -- -- -- -- -- -- -- --  -- -- -- -- -- -- -- --
0160:             47 00 37 80  38 80 39 80 3A 80 47 01      G.7.8.9.:.G.
0170: 00                                                .               
```

#### Opcodes

```
  0: 0x0164 [0x47] UPDATE_PLAYER_POS(222.690*, 109.486*, -6.250*, yaw=49.6°*)
  1: 0x016E [0x47] WAIT_PLAYER_POS_UPDATE
  2: 0x0170 [0x00] END_REQSTACK()
```

### Event 65535.26

#### Metadata

| Field        | Value    |
|--------------|----------|
| Entrypoint   | 0x0171   |
| Data Size    | 28 bytes |
| Instructions | 6        |

```
      00 01 02 03 04 05 06 07  08 09 0A 0B 0C 0D 0E 0F
      -- -- -- -- -- -- -- --  -- -- -- -- -- -- -- --
0170:    47 00 3B 80 3C 80 3D  80 3E 80 47 01 1C 08 80   G.;.<.=.>.G....
0180: 47 00 3F 80 40 80 41 80  42 80 47 01 00           G.?.@.A.B.G..   
```

#### Opcodes

```
  0: 0x0171 [0x47] UPDATE_PLAYER_POS(210.714*, 98.789*, -6.374*, yaw=190.0°*)
  1: 0x017B [0x47] WAIT_PLAYER_POS_UPDATE
  2: 0x017D [0x1C] WAIT(1* ticks)
  3: 0x0180 [0x47] UPDATE_PLAYER_POS(208.292*, 100.933*, -6.500*, yaw=227.2°*)
  4: 0x018A [0x47] WAIT_PLAYER_POS_UPDATE
  5: 0x018C [0x00] END_REQSTACK()
```

### Event 65535.27

#### Metadata

| Field        | Value    |
|--------------|----------|
| Entrypoint   | 0x018D   |
| Data Size    | 16 bytes |
| Instructions | 4        |

```
      00 01 02 03 04 05 06 07  08 09 0A 0B 0C 0D 0E 0F
      -- -- -- -- -- -- -- --  -- -- -- -- -- -- -- --
0180:                                         32 04 80               2..
0190: 31 00 43 80 44 80 45 80  46 80 31 01 00           1.C.D.E.F.1..   
```

#### Opcodes

```
  0: 0x018D [0x32] ExtData[1]->MainSpeed = 13* * 0.1
  1: 0x0190 [0x31] UPDATE_ENTITY_POSITION: Set EventEntity goal position to X=218.630*, Z=113.247*, Y=-5.898*, Time=240*
  2: 0x019A [0x31] UPDATE_ENTITY_POSITION: Move EventEntity towards goal position
  3: 0x019C [0x00] END_REQSTACK()
```

### Event 65535.28

#### Metadata

| Field        | Value    |
|--------------|----------|
| Entrypoint   | 0x019D   |
| Data Size    | 18 bytes |
| Instructions | 4        |

```
      00 01 02 03 04 05 06 07  08 09 0A 0B 0C 0D 0E 0F
      -- -- -- -- -- -- -- --  -- -- -- -- -- -- -- --
0190:                                         36 43 80               6C.
01A0: 44 80 45 80 5A 00 47 80  48 80 49 80 5A 01 00     D.E.Z.G.H.I.Z.. 
```

#### Opcodes

```
  0: 0x019D [0x36] SET_ENTITY_EVENT_POSITION(pos_x=218.630*, pos_z=113.247*, pos_y=-5.898*)
  1: 0x01A4 [0x5A] UPDATE_EVENT_POSITION: Set EventEntity MovePosition to X=219.897*, Z=112.154*, Y=-6.499*
  2: 0x01AC [0x5A] UPDATE_EVENT_POSITION: Move EventEntity incrementally towards MovePosition
  3: 0x01AE [0x00] END_REQSTACK()
```

### Event 65535.29

#### Metadata

| Field        | Value    |
|--------------|----------|
| Entrypoint   | 0x01AF   |
| Data Size    | 16 bytes |
| Instructions | 4        |

```
      00 01 02 03 04 05 06 07  08 09 0A 0B 0C 0D 0E 0F
      -- -- -- -- -- -- -- --  -- -- -- -- -- -- -- --
01A0:                                               32                 2
01B0: 04 80 31 00 4A 80 4B 80  41 80 46 80 31 01 00     ..1.J.K.A.F.1.. 
```

#### Opcodes

```
  0: 0x01AF [0x32] ExtData[1]->MainSpeed = 13* * 0.1
  1: 0x01B2 [0x31] UPDATE_ENTITY_POSITION: Set EventEntity goal position to X=211.294*, Z=98.047*, Y=-6.500*, Time=240*
  2: 0x01BC [0x31] UPDATE_ENTITY_POSITION: Move EventEntity towards goal position
  3: 0x01BE [0x00] END_REQSTACK()
```

### Event 65535.30

#### Metadata

| Field        | Value    |
|--------------|----------|
| Entrypoint   | 0x01BF   |
| Data Size    | 13 bytes |
| Instructions | 3        |

```
      00 01 02 03 04 05 06 07  08 09 0A 0B 0C 0D 0E 0F
      -- -- -- -- -- -- -- --  -- -- -- -- -- -- -- --
01B0:                                               31                 1
01C0: 00 3F 80 40 80 41 80 46  80 31 01 00              .?.@.A.F.1..    
```

#### Opcodes

```
  0: 0x01BF [0x31] UPDATE_ENTITY_POSITION: Set EventEntity goal position to X=208.292*, Z=100.933*, Y=-6.500*, Time=240*
  1: 0x01C9 [0x31] UPDATE_ENTITY_POSITION: Move EventEntity towards goal position
  2: 0x01CB [0x00] END_REQSTACK()
```

### Event 65535.31

#### Metadata

| Field        | Value    |
|--------------|----------|
| Entrypoint   | 0x01CC   |
| Data Size    | 10 bytes |
| Instructions | 2        |

```
      00 01 02 03 04 05 06 07  08 09 0A 0B 0C 0D 0E 0F
      -- -- -- -- -- -- -- --  -- -- -- -- -- -- -- --
01C0:                                      37 4C 80 4D              7L.M
01D0: 80 0F 80 4E 80 00                                 ...N..          
```

#### Opcodes

```
  0: 0x01CC [0x37] UPDATE_EVENT_POSITION_AND_DIR: x=-227.429*, z=184.273*, y=-7.999*, direction=179.7°*
  1: 0x01D5 [0x00] END_REQSTACK()
```

### Event 65535.32

#### Metadata

| Field        | Value    |
|--------------|----------|
| Entrypoint   | 0x01D6   |
| Data Size    | 10 bytes |
| Instructions | 2        |

```
      00 01 02 03 04 05 06 07  08 09 0A 0B 0C 0D 0E 0F
      -- -- -- -- -- -- -- --  -- -- -- -- -- -- -- --
01D0:                   37 4F  80 50 80 1F 80 51 80 00        7O.P...Q..
```

#### Opcodes

```
  0: 0x01D6 [0x37] UPDATE_EVENT_POSITION_AND_DIR: x=-22.579*, z=191.229*, y=-5.999*, direction=173.5°*
  1: 0x01DF [0x00] END_REQSTACK()
```

### Event 65535.33

#### Metadata

| Field        | Value    |
|--------------|----------|
| Entrypoint   | 0x01E0   |
| Data Size    | 10 bytes |
| Instructions | 2        |

```
      00 01 02 03 04 05 06 07  08 09 0A 0B 0C 0D 0E 0F
      -- -- -- -- -- -- -- --  -- -- -- -- -- -- -- --
01E0: 37 52 80 53 80 54 80 55  80 00                    7R.S.T.U..      
```

#### Opcodes

```
  0: 0x01E0 [0x37] UPDATE_EVENT_POSITION_AND_DIR: x=-22.763*, z=188.405*, y=-6.000*, direction=212.8°*
  1: 0x01E9 [0x00] END_REQSTACK()
```

### Event 65535.34

#### Metadata

| Field        | Value    |
|--------------|----------|
| Entrypoint   | 0x01EA   |
| Data Size    | 10 bytes |
| Instructions | 2        |

```
      00 01 02 03 04 05 06 07  08 09 0A 0B 0C 0D 0E 0F
      -- -- -- -- -- -- -- --  -- -- -- -- -- -- -- --
01E0:                                37 56 80 57 80 1F            7V.W..
01F0: 80 58 80 00                                       .X..            
```

#### Opcodes

```
  0: 0x01EA [0x37] UPDATE_EVENT_POSITION_AND_DIR: x=-24.892*, z=190.113*, y=-5.999*, direction=176.7°*
  1: 0x01F3 [0x00] END_REQSTACK()
```

### Event 83

#### Metadata

| Field        | Value   |
|--------------|---------|
| Entrypoint   | 0x01F4  |
| Data Size    | 1 bytes |
| Instructions | 1       |

```
      00 01 02 03 04 05 06 07  08 09 0A 0B 0C 0D 0E 0F
      -- -- -- -- -- -- -- --  -- -- -- -- -- -- -- --
01F0:             00                                        .           
```

#### Opcodes

```
  0: 0x01F4 [0x00] END_REQSTACK()
```

### Event 65535.35

#### Metadata

| Field        | Value    |
|--------------|----------|
| Entrypoint   | 0x01F5   |
| Data Size    | 10 bytes |
| Instructions | 2        |

```
      00 01 02 03 04 05 06 07  08 09 0A 0B 0C 0D 0E 0F
      -- -- -- -- -- -- -- --  -- -- -- -- -- -- -- --
01F0:                37 59 80  5A 80 07 80 5B 80 00          7Y.Z...[.. 
```

#### Opcodes

```
  0: 0x01F5 [0x37] UPDATE_EVENT_POSITION_AND_DIR: x=-111.959*, z=100.086*, y=-4.249*, direction=268.4°*
  1: 0x01FE [0x00] END_REQSTACK()
```

### Event 65535.36

#### Metadata

| Field        | Value    |
|--------------|----------|
| Entrypoint   | 0x01FF   |
| Data Size    | 10 bytes |
| Instructions | 2        |

```
      00 01 02 03 04 05 06 07  08 09 0A 0B 0C 0D 0E 0F
      -- -- -- -- -- -- -- --  -- -- -- -- -- -- -- --
01F0:                                               37                 7
0200: 5C 80 5D 80 5E 80 5F 80  00                       \.].^._..       
```

#### Opcodes

```
  0: 0x01FF [0x37] UPDATE_EVENT_POSITION_AND_DIR: x=-80.000*, z=158.097*, y=-5.499*, direction=62.3°*
  1: 0x0208 [0x00] END_REQSTACK()
```

### Event 65535.37

#### Metadata

| Field        | Value    |
|--------------|----------|
| Entrypoint   | 0x0209   |
| Data Size    | 10 bytes |
| Instructions | 2        |

```
      00 01 02 03 04 05 06 07  08 09 0A 0B 0C 0D 0E 0F
      -- -- -- -- -- -- -- --  -- -- -- -- -- -- -- --
0200:                             37 60 80 61 80 62 80           7`.a.b.
0210: 63 80 00                                          c..             
```

#### Opcodes

```
  0: 0x0209 [0x37] UPDATE_EVENT_POSITION_AND_DIR: x=-78.414*, z=159.579*, y=-5.500*, direction=356.7°*
  1: 0x0212 [0x00] END_REQSTACK()
```

### Event 65535.38

#### Metadata

| Field        | Value    |
|--------------|----------|
| Entrypoint   | 0x0213   |
| Data Size    | 24 bytes |
| Instructions | 6        |

```
      00 01 02 03 04 05 06 07  08 09 0A 0B 0C 0D 0E 0F
      -- -- -- -- -- -- -- --  -- -- -- -- -- -- -- --
0210:          37 64 80 65 80  66 80 67 80 32 04 80 1F     7d.e.f.g.2...
0220: 00 68 80 69 80 66 80 1F  01 6F 00                 .h.i.f...o.     
```

#### Opcodes

```
  0: 0x0213 [0x37] UPDATE_EVENT_POSITION_AND_DIR: x=-143.792*, z=175.625*, y=-6.999*, direction=31.2°*
  1: 0x021C [0x32] ExtData[1]->MainSpeed = 13* * 0.1
  2: 0x021F [0x1F] MOVE_ENTITY: EventEntity moves to X=-137.214*, Z=171.626*, Y=-6.999*
  3: 0x0227 [0x1F] MOVE_ENTITY: Update entity position (mode=1)
  4: 0x0229 [0x6F] WAIT_FRAME_DELAY: Yield until WaitTime reaches zero
  5: 0x022A [0x00] END_REQSTACK()
```

### Event 65535.39

#### Metadata

| Field        | Value    |
|--------------|----------|
| Entrypoint   | 0x022B   |
| Data Size    | 30 bytes |
| Instructions | 6        |

```
      00 01 02 03 04 05 06 07  08 09 0A 0B 0C 0D 0E 0F
      -- -- -- -- -- -- -- --  -- -- -- -- -- -- -- --
0220:                                   1C 6A 80 4B F0             .j.K.
0230: FF FF 7F 6B 80 1C 6A 80  4B F0 FF FF 7F 6C 80 37  ...k..j.K....l.7
0240: 6D 80 6E 80 6F 80 70 80  00                       m.n.o.p..       
```

#### Opcodes

```
  0: 0x022B [0x1C] WAIT(50* ticks)
  1: 0x022E [0x4B] UPDATE_ENTITY_YAW(entity=LocalPlayer, yaw=0.5°*)
  2: 0x0235 [0x1C] WAIT(50* ticks)
  3: 0x0238 [0x4B] UPDATE_ENTITY_YAW(entity=LocalPlayer, yaw=2.2°*)
  4: 0x023F [0x37] UPDATE_EVENT_POSITION_AND_DIR: x=-135.000*, z=169.000*, y=-6.001*, direction=54.6°*
  5: 0x0248 [0x00] END_REQSTACK()
```

### Event 65535.40

#### Metadata

| Field        | Value    |
|--------------|----------|
| Entrypoint   | 0x0249   |
| Data Size    | 10 bytes |
| Instructions | 2        |

```
      00 01 02 03 04 05 06 07  08 09 0A 0B 0C 0D 0E 0F
      -- -- -- -- -- -- -- --  -- -- -- -- -- -- -- --
0240:                             37 71 80 72 80 07 80           7q.r...
0250: 73 80 00                                          s..             
```

#### Opcodes

```
  0: 0x0249 [0x37] UPDATE_EVENT_POSITION_AND_DIR: x=-111.940*, z=100.465*, y=-4.249*, direction=250.6°*
  1: 0x0252 [0x00] END_REQSTACK()
```

### Event 65535.41

#### Metadata

| Field        | Value    |
|--------------|----------|
| Entrypoint   | 0x0253   |
| Data Size    | 10 bytes |
| Instructions | 2        |

```
      00 01 02 03 04 05 06 07  08 09 0A 0B 0C 0D 0E 0F
      -- -- -- -- -- -- -- --  -- -- -- -- -- -- -- --
0250:          37 74 80 75 80  76 80 77 80 00              7t.u.v.w..   
```

#### Opcodes

```
  0: 0x0253 [0x37] UPDATE_EVENT_POSITION_AND_DIR: x=-110.937*, z=99.636*, y=-4.250*, direction=175.9°*
  1: 0x025C [0x00] END_REQSTACK()
```

### Event 65535.42

#### Metadata

| Field        | Value    |
|--------------|----------|
| Entrypoint   | 0x025D   |
| Data Size    | 18 bytes |
| Instructions | 6        |

```
      00 01 02 03 04 05 06 07  08 09 0A 0B 0C 0D 0E 0F
      -- -- -- -- -- -- -- --  -- -- -- -- -- -- -- --
0250:                                         32 04 80               2..
0260: 1F 00 74 80 75 80 76 80  1F 01 6F 39 77 80 00     ..t.u.v...o9w.. 
```

#### Opcodes

```
  0: 0x025D [0x32] ExtData[1]->MainSpeed = 13* * 0.1
  1: 0x0260 [0x1F] MOVE_ENTITY: EventEntity moves to X=-110.937*, Z=99.636*, Y=-4.250*
  2: 0x0268 [0x1F] MOVE_ENTITY: Update entity position (mode=1)
  3: 0x026A [0x6F] WAIT_FRAME_DELAY: Yield until WaitTime reaches zero
  4: 0x026B [0x39] SET_ENTITY_DIRECTION(direction=11.0°*)
  5: 0x026E [0x00] END_REQSTACK()
```

### Event 65535.43

#### Metadata

| Field        | Value    |
|--------------|----------|
| Entrypoint   | 0x026F   |
| Data Size    | 18 bytes |
| Instructions | 6        |

```
      00 01 02 03 04 05 06 07  08 09 0A 0B 0C 0D 0E 0F
      -- -- -- -- -- -- -- --  -- -- -- -- -- -- -- --
0260:                                               32                 2
0270: 04 80 1F 00 78 80 79 80  07 80 1F 01 6F 39 7A 80  ....x.y.....o9z.
0280: 00                                                .               
```

#### Opcodes

```
  0: 0x026F [0x32] ExtData[1]->MainSpeed = 13* * 0.1
  1: 0x0272 [0x1F] MOVE_ENTITY: EventEntity moves to X=-111.908*, Z=99.664*, Y=-4.249*
  2: 0x027A [0x1F] MOVE_ENTITY: Update entity position (mode=1)
  3: 0x027C [0x6F] WAIT_FRAME_DELAY: Yield until WaitTime reaches zero
  4: 0x027D [0x39] SET_ENTITY_DIRECTION(direction=16.1°*)
  5: 0x0280 [0x00] END_REQSTACK()
```

### Event 65535.44

#### Metadata

| Field        | Value    |
|--------------|----------|
| Entrypoint   | 0x0281   |
| Data Size    | 18 bytes |
| Instructions | 6        |

```
      00 01 02 03 04 05 06 07  08 09 0A 0B 0C 0D 0E 0F
      -- -- -- -- -- -- -- --  -- -- -- -- -- -- -- --
0280:    32 04 80 1F 00 7B 80  7C 80 07 80 1F 01 6F 39   2....{.|.....o9
0290: 7D 80 00                                          }..             
```

#### Opcodes

```
  0: 0x0281 [0x32] ExtData[1]->MainSpeed = 13* * 0.1
  1: 0x0284 [0x1F] MOVE_ENTITY: EventEntity moves to X=-110.922*, Z=100.521*, Y=-4.249*
  2: 0x028C [0x1F] MOVE_ENTITY: Update entity position (mode=1)
  3: 0x028E [0x6F] WAIT_FRAME_DELAY: Yield until WaitTime reaches zero
  4: 0x028F [0x39] SET_ENTITY_DIRECTION(direction=5.5°*)
  5: 0x0292 [0x00] END_REQSTACK()
```

### Event 65535.45

#### Metadata

| Field        | Value    |
|--------------|----------|
| Entrypoint   | 0x0293   |
| Data Size    | 18 bytes |
| Instructions | 6        |

```
      00 01 02 03 04 05 06 07  08 09 0A 0B 0C 0D 0E 0F
      -- -- -- -- -- -- -- --  -- -- -- -- -- -- -- --
0290:          32 04 80 1F 00  7E 80 7F 80 07 80 1F 01     2....~.......
02A0: 6F 39 02 80 00                                    o9...           
```

#### Opcodes

```
  0: 0x0293 [0x32] ExtData[1]->MainSpeed = 13* * 0.1
  1: 0x0296 [0x1F] MOVE_ENTITY: EventEntity moves to X=-113.153*, Z=99.733*, Y=-4.249*
  2: 0x029E [0x1F] MOVE_ENTITY: Update entity position (mode=1)
  3: 0x02A0 [0x6F] WAIT_FRAME_DELAY: Yield until WaitTime reaches zero
  4: 0x02A1 [0x39] SET_ENTITY_DIRECTION(direction=0.0°*)
  5: 0x02A4 [0x00] END_REQSTACK()
```

### Event 65535.46

#### Metadata

| Field        | Value     |
|--------------|-----------|
| Entrypoint   | 0x02A5    |
| Data Size    | 105 bytes |
| Instructions | 9         |

```
      00 01 02 03 04 05 06 07  08 09 0A 0B 0C 0D 0E 0F
      -- -- -- -- -- -- -- --  -- -- -- -- -- -- -- --
02A0:                2C F0 FF  FF 7F F0 FF FF 7F 67 75       ,........gu
02B0: 72 64 53 F0 FF FF 7F F0  FF FF 7F 67 75 72 64 2C  rdS........gurd,
02C0: 1A 00 0F 01 F0 FF FF 7F  64 61 6D 67 53 F8 FF FF  ........damgS...
02D0: 7F F0 FF FF 7F 64 61 6D  67 2C F0 FF FF 7F F0 FF  .....damg,......
02E0: FF 7F 64 65 61 64 53 F0  FF FF 7F F0 FF FF 7F 64  ..deadS........d
02F0: 65 61 64 2C F0 FF FF 7F  F0 FF FF 7F 63 6F 72 70  ead,........corp
0300: 53 F0 FF FF 7F F0 FF FF  7F 63 6F 72 70 00        S........corp.  
```

#### Opcodes

```
  0: 0x02A5 [0x2C] CREATE_SCHEDULER_TASK: Create scheduler "gurd" with entities [LocalPlayer, LocalPlayer]
  1: 0x02B2 [0x53] WAIT_SCHEDULER_TASK: Wait for scheduler "gurd" with entities [LocalPlayer, LocalPlayer]
  2: 0x02BF [0x2C] CREATE_SCHEDULER_TASK: Create scheduler "damg" with entities [Shantotto (ID: 17760282/0x010F001A), LocalPlayer]
  3: 0x02CC [0x53] WAIT_SCHEDULER_TASK: Wait for scheduler "damg" with entities [EventEntity, LocalPlayer]
  4: 0x02D9 [0x2C] CREATE_SCHEDULER_TASK: Create scheduler "dead" with entities [LocalPlayer, LocalPlayer]
  5: 0x02E6 [0x53] WAIT_SCHEDULER_TASK: Wait for scheduler "dead" with entities [LocalPlayer, LocalPlayer]
  6: 0x02F3 [0x2C] CREATE_SCHEDULER_TASK: Create scheduler "corp" with entities [LocalPlayer, LocalPlayer]
  7: 0x0300 [0x53] WAIT_SCHEDULER_TASK: Wait for scheduler "corp" with entities [LocalPlayer, LocalPlayer]
  8: 0x030D [0x00] END_REQSTACK()
```

### Event 65535.47

#### Metadata

| Field        | Value    |
|--------------|----------|
| Entrypoint   | 0x030E   |
| Data Size    | 27 bytes |
| Instructions | 3        |

```
      00 01 02 03 04 05 06 07  08 09 0A 0B 0C 0D 0E 0F
      -- -- -- -- -- -- -- --  -- -- -- -- -- -- -- --
0300:                                            2C F0                ,.
0310: FF FF 7F F0 FF FF 7F 72  65 73 30 53 F8 FF FF 7F  .......res0S....
0320: F8 FF FF 7F 72 65 73 30  00                       ....res0.       
```

#### Opcodes

```
  0: 0x030E [0x2C] CREATE_SCHEDULER_TASK: Create scheduler "res0" with entities [LocalPlayer, LocalPlayer]
  1: 0x031B [0x53] WAIT_SCHEDULER_TASK: Wait for scheduler "res0" with entities [EventEntity, EventEntity]
  2: 0x0328 [0x00] END_REQSTACK()
```

### Event 65535.48

#### Metadata

| Field        | Value    |
|--------------|----------|
| Entrypoint   | 0x0329   |
| Data Size    | 27 bytes |
| Instructions | 3        |

```
      00 01 02 03 04 05 06 07  08 09 0A 0B 0C 0D 0E 0F
      -- -- -- -- -- -- -- --  -- -- -- -- -- -- -- --
0320:                             2C F0 FF FF 7F F0 FF           ,......
0330: FF 7F 72 65 73 32 53 F8  FF FF 7F F8 FF FF 7F 72  ..res2S........r
0340: 65 73 32 00                                       es2.            
```

#### Opcodes

```
  0: 0x0329 [0x2C] CREATE_SCHEDULER_TASK: Create scheduler "res2" with entities [LocalPlayer, LocalPlayer]
  1: 0x0336 [0x53] WAIT_SCHEDULER_TASK: Wait for scheduler "res2" with entities [EventEntity, EventEntity]
  2: 0x0343 [0x00] END_REQSTACK()
```

### Event 65535.49

#### Metadata

| Field        | Value    |
|--------------|----------|
| Entrypoint   | 0x0344   |
| Data Size    | 13 bytes |
| Instructions | 3        |

```
      00 01 02 03 04 05 06 07  08 09 0A 0B 0C 0D 0E 0F
      -- -- -- -- -- -- -- --  -- -- -- -- -- -- -- --
0340:             6E F0 FF FF  7F 80 80 99 F0 FF FF 7F      n...........
0350: 00                                                .               
```

#### Opcodes

```
  0: 0x0344 [0x6E] LocalPlayer uses emote 7*
  1: 0x034B [0x99] Wait for LocalPlayer animation to complete
  2: 0x0350 [0x00] END_REQSTACK()
```

### Event 65535.50

#### Metadata

| Field        | Value   |
|--------------|---------|
| Entrypoint   | 0x0351  |
| Data Size    | 4 bytes |
| Instructions | 2       |

```
      00 01 02 03 04 05 06 07  08 09 0A 0B 0C 0D 0E 0F
      -- -- -- -- -- -- -- --  -- -- -- -- -- -- -- --
0350:    1C 6B 80 00                                     .k..           
```

#### Opcodes

```
  0: 0x0351 [0x1C] WAIT(100* ticks)
  1: 0x0354 [0x00] END_REQSTACK()
```

### Event 65535.51

#### Metadata

| Field        | Value    |
|--------------|----------|
| Entrypoint   | 0x0355   |
| Data Size    | 10 bytes |
| Instructions | 2        |

```
      00 01 02 03 04 05 06 07  08 09 0A 0B 0C 0D 0E 0F
      -- -- -- -- -- -- -- --  -- -- -- -- -- -- -- --
0350:                37 81 80  82 80 1F 80 83 80 00          7......... 
```

#### Opcodes

```
  0: 0x0355 [0x37] UPDATE_EVENT_POSITION_AND_DIR: x=-25.315*, z=189.623*, y=-5.999*, direction=169.3°*
  1: 0x035E [0x00] END_REQSTACK()
```

### Event 65535.52

#### Metadata

| Field        | Value    |
|--------------|----------|
| Entrypoint   | 0x035F   |
| Data Size    | 10 bytes |
| Instructions | 2        |

```
      00 01 02 03 04 05 06 07  08 09 0A 0B 0C 0D 0E 0F
      -- -- -- -- -- -- -- --  -- -- -- -- -- -- -- --
0350:                                               37                 7
0360: 84 80 85 80 86 80 87 80  00                       .........       
```

#### Opcodes

```
  0: 0x035F [0x37] UPDATE_EVENT_POSITION_AND_DIR: x=-26.044*, z=260.603*, y=-12.999*, direction=268.1°*
  1: 0x0368 [0x00] END_REQSTACK()
```

### Event 65535.53

#### Metadata

| Field        | Value    |
|--------------|----------|
| Entrypoint   | 0x0369   |
| Data Size    | 10 bytes |
| Instructions | 2        |

```
      00 01 02 03 04 05 06 07  08 09 0A 0B 0C 0D 0E 0F
      -- -- -- -- -- -- -- --  -- -- -- -- -- -- -- --
0360:                             37 88 80 89 80 8A 80           7......
0370: 8B 80 00                                          ...             
```

#### Opcodes

```
  0: 0x0369 [0x37] UPDATE_EVENT_POSITION_AND_DIR: x=-26.634*, z=268.126*, y=-17.500*, direction=63.4°*
  1: 0x0372 [0x00] END_REQSTACK()
```

### Event 65535.54

#### Metadata

| Field        | Value    |
|--------------|----------|
| Entrypoint   | 0x0373   |
| Data Size    | 15 bytes |
| Instructions | 5        |

```
      00 01 02 03 04 05 06 07  08 09 0A 0B 0C 0D 0E 0F
      -- -- -- -- -- -- -- --  -- -- -- -- -- -- -- --
0370:          32 8C 80 1F 00  8D 80 8E 80 8A 80 1F 01     2............
0380: 6F 00                                             o.              
```

#### Opcodes

```
  0: 0x0373 [0x32] ExtData[1]->MainSpeed = 40* * 0.1
  1: 0x0376 [0x1F] MOVE_ENTITY: EventEntity moves to X=-19.651*, Z=273.488*, Y=-17.500*
  2: 0x037E [0x1F] MOVE_ENTITY: Update entity position (mode=1)
  3: 0x0380 [0x6F] WAIT_FRAME_DELAY: Yield until WaitTime reaches zero
  4: 0x0381 [0x00] END_REQSTACK()
```

### Event 65535.55

#### Metadata

| Field        | Value    |
|--------------|----------|
| Entrypoint   | 0x0382   |
| Data Size    | 10 bytes |
| Instructions | 2        |

```
      00 01 02 03 04 05 06 07  08 09 0A 0B 0C 0D 0E 0F
      -- -- -- -- -- -- -- --  -- -- -- -- -- -- -- --
0380:       37 8F 80 90 80 91  80 92 80 00                7.........    
```

#### Opcodes

```
  0: 0x0382 [0x37] UPDATE_EVENT_POSITION_AND_DIR: x=-26.238*, z=254.851*, y=-12.419*, direction=285.6°*
  1: 0x038B [0x00] END_REQSTACK()
```

### Event 65535.56

#### Metadata

| Field        | Value    |
|--------------|----------|
| Entrypoint   | 0x038C   |
| Data Size    | 18 bytes |
| Instructions | 6        |

```
      00 01 02 03 04 05 06 07  08 09 0A 0B 0C 0D 0E 0F
      -- -- -- -- -- -- -- --  -- -- -- -- -- -- -- --
0380:                                      32 8C 80 1F              2...
0390: 00 93 80 94 80 95 80 1F  01 6F 39 96 80 00        .........o9...  
```

#### Opcodes

```
  0: 0x038C [0x32] ExtData[1]->MainSpeed = 40* * 0.1
  1: 0x038F [0x1F] MOVE_ENTITY: EventEntity moves to X=-23.941*, Z=254.081*, Y=-12.367*
  2: 0x0397 [0x1F] MOVE_ENTITY: Update entity position (mode=1)
  3: 0x0399 [0x6F] WAIT_FRAME_DELAY: Yield until WaitTime reaches zero
  4: 0x039A [0x39] SET_ENTITY_DIRECTION(direction=9.8°*)
  5: 0x039D [0x00] END_REQSTACK()
```

### Event 65535.57

#### Metadata

| Field        | Value    |
|--------------|----------|
| Entrypoint   | 0x039E   |
| Data Size    | 12 bytes |
| Instructions | 3        |

```
      00 01 02 03 04 05 06 07  08 09 0A 0B 0C 0D 0E 0F
      -- -- -- -- -- -- -- --  -- -- -- -- -- -- -- --
0390:                                            22 01                ".
03A0: 37 97 80 98 80 99 80 9A  80 00                    7.........      
```

#### Opcodes

```
  0: 0x039E [0x22] ENTITY_HIDE_FLAG(enabled=0x01)
  1: 0x03A0 [0x37] UPDATE_EVENT_POSITION_AND_DIR: x=-25.998*, z=261.364*, y=-13.000*, direction=103.5°*
  2: 0x03A9 [0x00] END_REQSTACK()
```

### Event 65535.58

#### Metadata

| Field        | Value    |
|--------------|----------|
| Entrypoint   | 0x03AA   |
| Data Size    | 10 bytes |
| Instructions | 2        |

```
      00 01 02 03 04 05 06 07  08 09 0A 0B 0C 0D 0E 0F
      -- -- -- -- -- -- -- --  -- -- -- -- -- -- -- --
03A0:                                37 9B 80 9C 80 99            7.....
03B0: 80 9D 80 00                                       ....            
```

#### Opcodes

```
  0: 0x03AA [0x37] UPDATE_EVENT_POSITION_AND_DIR: x=-26.195*, z=263.355*, y=-13.000*, direction=280.4°*
  1: 0x03B3 [0x00] END_REQSTACK()
```

### Event 65535.59

#### Metadata

| Field        | Value    |
|--------------|----------|
| Entrypoint   | 0x03B4   |
| Data Size    | 18 bytes |
| Instructions | 6        |

```
      00 01 02 03 04 05 06 07  08 09 0A 0B 0C 0D 0E 0F
      -- -- -- -- -- -- -- --  -- -- -- -- -- -- -- --
03B0:             32 04 80 1F  00 9E 80 9F 80 A0 80 1F      2...........
03C0: 01 6F 39 A1 80 00                                 .o9...          
```

#### Opcodes

```
  0: 0x03B4 [0x32] ExtData[1]->MainSpeed = 13* * 0.1
  1: 0x03B7 [0x1F] MOVE_ENTITY: EventEntity moves to X=-26.232*, Z=272.350*, Y=-12.000*
  2: 0x03BF [0x1F] MOVE_ENTITY: Update entity position (mode=1)
  3: 0x03C1 [0x6F] WAIT_FRAME_DELAY: Yield until WaitTime reaches zero
  4: 0x03C2 [0x39] SET_ENTITY_DIRECTION(direction=21.2°*)
  5: 0x03C5 [0x00] END_REQSTACK()
```

### Event 65535.60

#### Metadata

| Field        | Value    |
|--------------|----------|
| Entrypoint   | 0x03C6   |
| Data Size    | 46 bytes |
| Instructions | 8        |

```
      00 01 02 03 04 05 06 07  08 09 0A 0B 0C 0D 0E 0F
      -- -- -- -- -- -- -- --  -- -- -- -- -- -- -- --
03C0:                   4A 52  00 0F 01 5A 00 0F 01 1C        JR...Z....
03D0: 6A 80 4A 52 00 0F 01 5A  00 0F 01 1C 6B 80 4A 52  j.JR...Z....k.JR
03E0: 00 0F 01 5A 00 0F 01 1C  6B 80 4A 52 00 0F 01 5A  ...Z....k.JR...Z
03F0: 00 0F 01 00                                       ....            
```

#### Opcodes

```
  0: 0x03C6 [0x4A] Kohlo-Lakolo (ID: 17760338/0x010F0052) looks at Nanaa Mihgo (ID: 17760346/0x010F005A)
  1: 0x03CF [0x1C] WAIT(50* ticks)
  2: 0x03D2 [0x4A] Kohlo-Lakolo (ID: 17760338/0x010F0052) looks at Nanaa Mihgo (ID: 17760346/0x010F005A)
  3: 0x03DB [0x1C] WAIT(100* ticks)
  4: 0x03DE [0x4A] Kohlo-Lakolo (ID: 17760338/0x010F0052) looks at Nanaa Mihgo (ID: 17760346/0x010F005A)
  5: 0x03E7 [0x1C] WAIT(100* ticks)
  6: 0x03EA [0x4A] Kohlo-Lakolo (ID: 17760338/0x010F0052) looks at Nanaa Mihgo (ID: 17760346/0x010F005A)
  7: 0x03F3 [0x00] END_REQSTACK()
```

### Event 65535.61

#### Metadata

| Field        | Value    |
|--------------|----------|
| Entrypoint   | 0x03F4   |
| Data Size    | 10 bytes |
| Instructions | 2        |

```
      00 01 02 03 04 05 06 07  08 09 0A 0B 0C 0D 0E 0F
      -- -- -- -- -- -- -- --  -- -- -- -- -- -- -- --
03F0:             37 A2 80 A3  80 86 80 A4 80 00            7.........  
```

#### Opcodes

```
  0: 0x03F4 [0x37] UPDATE_EVENT_POSITION_AND_DIR: x=-28.541*, z=279.958*, y=-12.999*, direction=266.8°*
  1: 0x03FD [0x00] END_REQSTACK()
```

### Event 65535.62

#### Metadata

| Field        | Value    |
|--------------|----------|
| Entrypoint   | 0x03FE   |
| Data Size    | 10 bytes |
| Instructions | 2        |

```
      00 01 02 03 04 05 06 07  08 09 0A 0B 0C 0D 0E 0F
      -- -- -- -- -- -- -- --  -- -- -- -- -- -- -- --
03F0:                                            37 A5                7.
0400: 80 A6 80 99 80 A7 80 00                           ........        
```

#### Opcodes

```
  0: 0x03FE [0x37] UPDATE_EVENT_POSITION_AND_DIR: x=-34.662*, z=277.679*, y=-13.000*, direction=259.4°*
  1: 0x0407 [0x00] END_REQSTACK()
```

### Event 65535.63

#### Metadata

| Field        | Value    |
|--------------|----------|
| Entrypoint   | 0x0408   |
| Data Size    | 24 bytes |
| Instructions | 6        |

```
      00 01 02 03 04 05 06 07  08 09 0A 0B 0C 0D 0E 0F
      -- -- -- -- -- -- -- --  -- -- -- -- -- -- -- --
0400:                          37 84 80 A8 80 86 80 A9          7.......
0410: 80 32 04 80 1F 00 AA 80  AB 80 AC 80 1F 01 6F 00  .2............o.
```

#### Opcodes

```
  0: 0x0408 [0x37] UPDATE_EVENT_POSITION_AND_DIR: x=-26.044*, z=261.455*, y=-12.999*, direction=102.0°*
  1: 0x0411 [0x32] ExtData[1]->MainSpeed = 13* * 0.1
  2: 0x0414 [0x1F] MOVE_ENTITY: EventEntity moves to X=-26.371*, Z=253.751*, Y=-12.362*
  3: 0x041C [0x1F] MOVE_ENTITY: Update entity position (mode=1)
  4: 0x041E [0x6F] WAIT_FRAME_DELAY: Yield until WaitTime reaches zero
  5: 0x041F [0x00] END_REQSTACK()
```

### Event 65535.64

#### Metadata

| Field        | Value    |
|--------------|----------|
| Entrypoint   | 0x0420   |
| Data Size    | 27 bytes |
| Instructions | 8        |

```
      00 01 02 03 04 05 06 07  08 09 0A 0B 0C 0D 0E 0F
      -- -- -- -- -- -- -- --  -- -- -- -- -- -- -- --
0420: 32 04 80 1F 00 AD 80 AE  80 AF 80 1F 01 1F 00 B0  2...............
0430: 80 B1 80 B2 80 1F 01 6F  22 01 00                 .......o"..     
```

#### Opcodes

```
  0: 0x0420 [0x32] ExtData[1]->MainSpeed = 13* * 0.1
  1: 0x0423 [0x1F] MOVE_ENTITY: EventEntity moves to X=-32.724*, Z=249.235*, Y=-12.297*
  2: 0x042B [0x1F] MOVE_ENTITY: Update entity position (mode=1)
  3: 0x042D [0x1F] MOVE_ENTITY: EventEntity moves to X=-39.863*, Z=243.822*, Y=-12.499*
  4: 0x0435 [0x1F] MOVE_ENTITY: Update entity position (mode=1)
  5: 0x0437 [0x6F] WAIT_FRAME_DELAY: Yield until WaitTime reaches zero
  6: 0x0438 [0x22] ENTITY_HIDE_FLAG(enabled=0x01)
  7: 0x043A [0x00] END_REQSTACK()
```

### Event 65535.65

#### Metadata

| Field        | Value    |
|--------------|----------|
| Entrypoint   | 0x043B   |
| Data Size    | 10 bytes |
| Instructions | 2        |

```
      00 01 02 03 04 05 06 07  08 09 0A 0B 0C 0D 0E 0F
      -- -- -- -- -- -- -- --  -- -- -- -- -- -- -- --
0430:                                   37 B3 80 B4 80             7....
0440: B5 80 B6 80 00                                    .....           
```

#### Opcodes

```
  0: 0x043B [0x37] UPDATE_EVENT_POSITION_AND_DIR: x=-112.141*, z=105.346*, y=-3.249*, direction=91.1°*
  1: 0x0444 [0x00] END_REQSTACK()
```

### Event 65535.66

#### Metadata

| Field        | Value    |
|--------------|----------|
| Entrypoint   | 0x0445   |
| Data Size    | 10 bytes |
| Instructions | 2        |

```
      00 01 02 03 04 05 06 07  08 09 0A 0B 0C 0D 0E 0F
      -- -- -- -- -- -- -- --  -- -- -- -- -- -- -- --
0440:                37 B7 80  B8 80 B5 80 B9 80 00          7......... 
```

#### Opcodes

```
  0: 0x0445 [0x37] UPDATE_EVENT_POSITION_AND_DIR: x=-112.142*, z=108.120*, y=-3.249*, direction=80.7°*
  1: 0x044E [0x00] END_REQSTACK()
```

### Event 65535.67

#### Metadata

| Field        | Value    |
|--------------|----------|
| Entrypoint   | 0x044F   |
| Data Size    | 10 bytes |
| Instructions | 2        |

```
      00 01 02 03 04 05 06 07  08 09 0A 0B 0C 0D 0E 0F
      -- -- -- -- -- -- -- --  -- -- -- -- -- -- -- --
0440:                                               37                 7
0450: BA 80 BB 80 54 80 BC 80  00                       ....T....       
```

#### Opcodes

```
  0: 0x044F [0x37] UPDATE_EVENT_POSITION_AND_DIR: x=-24.258*, z=189.998*, y=-6.000*, direction=325.8°*
  1: 0x0458 [0x00] END_REQSTACK()
```

### Event 65535.68

#### Metadata

| Field        | Value    |
|--------------|----------|
| Entrypoint   | 0x0459   |
| Data Size    | 10 bytes |
| Instructions | 2        |

```
      00 01 02 03 04 05 06 07  08 09 0A 0B 0C 0D 0E 0F
      -- -- -- -- -- -- -- --  -- -- -- -- -- -- -- --
0450:                             37 BD 80 BE 80 54 80           7....T.
0460: BF 80 00                                          ...             
```

#### Opcodes

```
  0: 0x0459 [0x37] UPDATE_EVENT_POSITION_AND_DIR: x=-23.902*, z=191.407*, y=-6.000*, direction=8.2°*
  1: 0x0462 [0x00] END_REQSTACK()
```

### Event 65535.69

#### Metadata

| Field        | Value    |
|--------------|----------|
| Entrypoint   | 0x0463   |
| Data Size    | 10 bytes |
| Instructions | 2        |

```
      00 01 02 03 04 05 06 07  08 09 0A 0B 0C 0D 0E 0F
      -- -- -- -- -- -- -- --  -- -- -- -- -- -- -- --
0460:          37 C0 80 C1 80  54 80 C2 80 00              7....T....   
```

#### Opcodes

```
  0: 0x0463 [0x37] UPDATE_EVENT_POSITION_AND_DIR: x=-25.548*, z=190.548*, y=-6.000*, direction=167.7°*
  1: 0x046C [0x00] END_REQSTACK()
```

### Event 65535.70

#### Metadata

| Field        | Value    |
|--------------|----------|
| Entrypoint   | 0x046D   |
| Data Size    | 10 bytes |
| Instructions | 2        |

```
      00 01 02 03 04 05 06 07  08 09 0A 0B 0C 0D 0E 0F
      -- -- -- -- -- -- -- --  -- -- -- -- -- -- -- --
0460:                                         37 C3 80               7..
0470: C4 80 B5 80 C5 80 00                              .......         
```

#### Opcodes

```
  0: 0x046D [0x37] UPDATE_EVENT_POSITION_AND_DIR: x=-111.993*, z=105.618*, y=-3.249*, direction=82.4°*
  1: 0x0476 [0x00] END_REQSTACK()
```

### Event 10002

#### Metadata

| Field        | Value    |
|--------------|----------|
| Entrypoint   | 0x0477   |
| Data Size    | 13 bytes |
| Instructions | 4        |

```
      00 01 02 03 04 05 06 07  08 09 0A 0B 0C 0D 0E 0F
      -- -- -- -- -- -- -- --  -- -- -- -- -- -- -- --
0470:                      42  22 01 37 C6 80 C7 80 C8         B".7.....
0480: 80 C9 80 00                                       ....            
```

#### Opcodes

```
  0: 0x0477 [0x42] SET_CLI_EVENT_CANCEL_DATA()
  1: 0x0478 [0x22] ENTITY_HIDE_FLAG(enabled=0x01)
  2: 0x047A [0x37] UPDATE_EVENT_POSITION_AND_DIR: x=229.228*, z=74.884*, y=-2.523*, direction=223.6°*
  3: 0x0483 [0x00] END_REQSTACK()
```

### Event 10003

#### Metadata

| Field        | Value    |
|--------------|----------|
| Entrypoint   | 0x0484   |
| Data Size    | 17 bytes |
| Instructions | 6        |

```
      00 01 02 03 04 05 06 07  08 09 0A 0B 0C 0D 0E 0F
      -- -- -- -- -- -- -- --  -- -- -- -- -- -- -- --
0480:             42 22 01 47  00 C6 80 C7 80 C8 80 C9      B".G........
0490: 80 47 01 21 00                                    .G.!.           
```

#### Opcodes

```
  0: 0x0484 [0x42] SET_CLI_EVENT_CANCEL_DATA()
  1: 0x0485 [0x22] ENTITY_HIDE_FLAG(enabled=0x01)
  2: 0x0487 [0x47] UPDATE_PLAYER_POS(229.228*, 74.884*, -2.523*, yaw=223.6°*)
  3: 0x0491 [0x47] WAIT_PLAYER_POS_UPDATE
  4: 0x0493 [0x21] END_EVENT
  5: 0x0494 [0x00] END_REQSTACK()
```

### Event 10004

#### Metadata

| Field        | Value    |
|--------------|----------|
| Entrypoint   | 0x0495   |
| Data Size    | 79 bytes |
| Instructions | 10       |

```
      00 01 02 03 04 05 06 07  08 09 0A 0B 0C 0D 0E 0F
      -- -- -- -- -- -- -- --  -- -- -- -- -- -- -- --
0490:                42 45 CA  80 F0 FF FF 7F F0 FF FF       BE.........
04A0: 7F 66 64 69 32 02 80 45  CB 80 F8 FF FF 7F F8 FF  .fdi2..E........
04B0: FF 7F 73 77 73 73 CC 80  1C CD 80 45 CA 80 F0 FF  ..swss.....E....
04C0: FF 7F F0 FF FF 7F 66 64  6F 31 02 80 1C CE 80 46  ......fdo1.....F
04D0: 00 45 CA 80 F0 FF FF 7F  F0 FF FF 7F 66 64 69 31  .E..........fdi1
04E0: 02 80 21 00                                       ..!.            
```

#### Opcodes

```
  0: 0x0495 [0x42] SET_CLI_EVENT_CANCEL_DATA()
  1: 0x0496 [0x45] LOAD_SCHEDULED_TASK: Load scheduler "fdi2" with entities [LocalPlayer, LocalPlayer], work=[200*, 0*]
  2: 0x04A7 [0x45] LOAD_SCHEDULED_TASK: Load scheduler "swss" with entities [EventEntity, EventEntity], work=[190*, 600*]
  3: 0x04B8 [0x1C] WAIT(540* ticks)
  4: 0x04BB [0x45] LOAD_SCHEDULED_TASK: Load scheduler "fdo1" with entities [LocalPlayer, LocalPlayer], work=[200*, 0*]
  5: 0x04CC [0x1C] WAIT(60* ticks)
  6: 0x04CF [0x46] CAMERA_CONTROL: Restore default settings
  7: 0x04D1 [0x45] LOAD_SCHEDULED_TASK: Load scheduler "fdi1" with entities [LocalPlayer, LocalPlayer], work=[200*, 0*]
  8: 0x04E2 [0x21] END_EVENT
  9: 0x04E3 [0x00] END_REQSTACK()
```

### Event 65535.71

#### Metadata

| Field        | Value    |
|--------------|----------|
| Entrypoint   | 0x04E4   |
| Data Size    | 10 bytes |
| Instructions | 2        |

```
      00 01 02 03 04 05 06 07  08 09 0A 0B 0C 0D 0E 0F
      -- -- -- -- -- -- -- --  -- -- -- -- -- -- -- --
04E0:             37 CF 80 D0  80 D1 80 D2 80 00            7.........  
```

#### Opcodes

```
  0: 0x04E4 [0x37] UPDATE_EVENT_POSITION_AND_DIR: x=199.768*, z=138.364*, y=-4.692*, direction=333.5°*
  1: 0x04ED [0x00] END_REQSTACK()
```

### Event 65535.72

#### Metadata

| Field        | Value    |
|--------------|----------|
| Entrypoint   | 0x04EE   |
| Data Size    | 10 bytes |
| Instructions | 2        |

```
      00 01 02 03 04 05 06 07  08 09 0A 0B 0C 0D 0E 0F
      -- -- -- -- -- -- -- --  -- -- -- -- -- -- -- --
04E0:                                            37 D3                7.
04F0: 80 D4 80 D5 80 D6 80 00                           ........        
```

#### Opcodes

```
  0: 0x04EE [0x37] UPDATE_EVENT_POSITION_AND_DIR: x=-181.367*, z=72.915*, y=-2.835*, direction=211.3°*
  1: 0x04F7 [0x00] END_REQSTACK()
```

### Event 618

#### Metadata

| Field        | Value    |
|--------------|----------|
| Entrypoint   | 0x04F8   |
| Data Size    | 66 bytes |
| Instructions | 18       |

```
      00 01 02 03 04 05 06 07  08 09 0A 0B 0C 0D 0E 0F
      -- -- -- -- -- -- -- --  -- -- -- -- -- -- -- --
04F0:                          2B C1 00 0F 01 D7 80 23          +......#
0500: 2B C1 00 0F 01 D8 80 23  2B C1 00 0F 01 D9 80 23  +......#+......#
0510: 2B C1 00 0F 01 DA 80 23  2B C1 00 0F 01 DB 80 23  +......#+......#
0520: 2B C1 00 0F 01 DC 80 23  2B C1 00 0F 01 DD 80 23  +......#+......#
0530: 2B C1 00 0F 01 DE 80 23  21 00                    +......#!.      
```

#### Opcodes

```
  0: 0x04F8 [0x2B] Laughing Lizard (ID: 17760449/0x010F00C1) [12995*]:
    → "Eh? You say somethin'? Hmph! You dang kids these days ain't got no respect for your elders. Can't you see I'm tryin' to learn this new fandangled fishin' method? In my day, all we had to do was cast a line and wait for the baby to tug. Why, back then it was so easy, I could catch fish while I was sleepin'!"
  1: 0x04FF [0x23] WAIT_FOR_DIALOG_INTERACTION
  2: 0x0500 [0x2B] Laughing Lizard (ID: 17760449/0x010F00C1) [12996*]:
    → "But now you gotta work for your meal! Let me tell you how it's done... First, you fix a little bait on your line, toss it into the water, and wait for somethin' to bite. Eh? What's changed? Well, nothing yet! Would you just hold your horses and let me get to the good part?"
  3: 0x0507 [0x23] WAIT_FOR_DIALOG_INTERACTION
  4: 0x0508 [0x2B] Laughing Lizard (ID: 17760449/0x010F00C1) [12997*]:
    → "Now, once you feel the pull is where the real battle begins--and I say battle because that fish is not going to let you get him without a fight! If he starts tuggin' to the left, you've gotta pull to the right. If he starts tuggin' to the right, you've gotta pull to the left."
  5: 0x050F [0x23] WAIT_FOR_DIALOG_INTERACTION
  6: 0x0510 [0x2B] Laughing Lizard (ID: 17760449/0x010F00C1) [12998*]:
    → "Keepin' centered--that's the key to tirin' out that old puppy! And once you think you've softened him up enough, that's when you reel him in. If you confirm a little too early, the fish may still have enough pep to run off with your bait. But if you spend too much time playin' with him, he might just get bored and be on his way."
  7: 0x0517 [0x23] WAIT_FOR_DIALOG_INTERACTION
  8: 0x0518 [0x2B] Laughing Lizard (ID: 17760449/0x010F00C1) [12999*]:
    → "Of course, if you ever get a bad feeling that whatever's on the end of your line's fixin' to snap your rod in two, you could always cancel your way out of things......sissy!"
  9: 0x051F [0x23] WAIT_FOR_DIALOG_INTERACTION
 10: 0x0520 [0x2B] Laughing Lizard (ID: 17760449/0x010F00C1) [13000*]:
    → "Alright, did you get all that? Well, keep listenin', 'cause I'm not done yet. This new type o' fishin' works differently with different types of rods."
 11: 0x0527 [0x23] WAIT_FOR_DIALOG_INTERACTION
 12: 0x0528 [0x2B] Laughing Lizard (ID: 17760449/0x010F00C1) [13001*]:
    → "Those fancy carbon and glass rods may have what it takes to keep a fish on your line for a long time, but the flexibility of good old-fashioned wooden rods packs enough punch to tire out any fish in the blink of an eye."
 13: 0x052F [0x23] WAIT_FOR_DIALOG_INTERACTION
 14: 0x0530 [0x2B] Laughing Lizard (ID: 17760449/0x010F00C1) [13002*]:
    → "But enough of this chitchat. If I don't catch somethin' for tonight's dinner, my wife'll clean me, gut me, and have me in a fryin' pan faster than you can say Galka meuniere!"
 15: 0x0537 [0x23] WAIT_FOR_DIALOG_INTERACTION
 16: 0x0538 [0x21] END_EVENT
 17: 0x0539 [0x00] END_REQSTACK()
```

### Event 65535.73

#### Metadata

| Field        | Value    |
|--------------|----------|
| Entrypoint   | 0x053A   |
| Data Size    | 10 bytes |
| Instructions | 2        |

```
      00 01 02 03 04 05 06 07  08 09 0A 0B 0C 0D 0E 0F
      -- -- -- -- -- -- -- --  -- -- -- -- -- -- -- --
0530:                                37 DF 80 E0 80 D5            7.....
0540: 80 E1 80 00                                       ....            
```

#### Opcodes

```
  0: 0x053A [0x37] UPDATE_EVENT_POSITION_AND_DIR: x=-182.826*, z=72.582*, y=-2.835*, direction=263.0°*
  1: 0x0543 [0x00] END_REQSTACK()
```

### Event 65535.74

#### Metadata

| Field        | Value    |
|--------------|----------|
| Entrypoint   | 0x0544   |
| Data Size    | 42 bytes |
| Instructions | 6        |

```
      00 01 02 03 04 05 06 07  08 09 0A 0B 0C 0D 0E 0F
      -- -- -- -- -- -- -- --  -- -- -- -- -- -- -- --
0540:             03 03 00 07  7F 1A 2F 06 66 04 00 F8      ....../.f...
0550: FF FF 7F F8 FF FF 7F 74  6C 6B 30 1C CE 80 66 04  .......tlk0...f.
0560: 00 F8 FF FF 7F F8 FF FF  7F 74 6C 6B 31 00        .........tlk1.  
```

#### Opcodes

```
  0: 0x0544 [0x03] ExtData[1]->WorkLocal[3] = Entity->Race
  1: 0x0549 [0x1A] CALL_SUBROUTINE(address=0x062F)
  2: 0x054C [0x66] LOAD_EXT_SCHEDULER_MAIN: Load scheduler "tlk0" with entities [EventEntity, EventEntity], work=ExtData[1]->WorkLocal[4]
  3: 0x055B [0x1C] WAIT(60* ticks)
  4: 0x055E [0x66] LOAD_EXT_SCHEDULER_MAIN: Load scheduler "tlk1" with entities [EventEntity, EventEntity], work=ExtData[1]->WorkLocal[4]
  5: 0x056D [0x00] END_REQSTACK()
```

### Event 65535.75

#### Metadata

| Field        | Value    |
|--------------|----------|
| Entrypoint   | 0x056E   |
| Data Size    | 37 bytes |
| Instructions | 5        |

```
      00 01 02 03 04 05 06 07  08 09 0A 0B 0C 0D 0E 0F
      -- -- -- -- -- -- -- --  -- -- -- -- -- -- -- --
0560:                                            03 03                ..
0570: 00 07 7F 1A 2F 06 66 04  00 F8 FF FF 7F F8 FF FF  ..../.f.........
0580: 7F 73 68 61 30 53 F8 FF  FF 7F F8 FF FF 7F 73 68  .sha0S........sh
0590: 61 30 00                                          a0.             
```

#### Opcodes

```
  0: 0x056E [0x03] ExtData[1]->WorkLocal[3] = Entity->Race
  1: 0x0573 [0x1A] CALL_SUBROUTINE(address=0x062F)
  2: 0x0576 [0x66] LOAD_EXT_SCHEDULER_MAIN: Load scheduler "sha0" with entities [EventEntity, EventEntity], work=ExtData[1]->WorkLocal[4]
  3: 0x0585 [0x53] WAIT_SCHEDULER_TASK: Wait for scheduler "sha0" with entities [EventEntity, EventEntity]
  4: 0x0592 [0x00] END_REQSTACK()
```

### Event 65535.76

#### Metadata

| Field        | Value    |
|--------------|----------|
| Entrypoint   | 0x0593   |
| Data Size    | 37 bytes |
| Instructions | 5        |

```
      00 01 02 03 04 05 06 07  08 09 0A 0B 0C 0D 0E 0F
      -- -- -- -- -- -- -- --  -- -- -- -- -- -- -- --
0590:          03 03 00 07 7F  1A 2F 06 66 04 00 F8 FF     ....../.f....
05A0: FF 7F F8 FF FF 7F 73 68  61 31 53 F8 FF FF 7F F8  ......sha1S.....
05B0: FF FF 7F 73 68 61 31 00                           ...sha1.        
```

#### Opcodes

```
  0: 0x0593 [0x03] ExtData[1]->WorkLocal[3] = Entity->Race
  1: 0x0598 [0x1A] CALL_SUBROUTINE(address=0x062F)
  2: 0x059B [0x66] LOAD_EXT_SCHEDULER_MAIN: Load scheduler "sha1" with entities [EventEntity, EventEntity], work=ExtData[1]->WorkLocal[4]
  3: 0x05AA [0x53] WAIT_SCHEDULER_TASK: Wait for scheduler "sha1" with entities [EventEntity, EventEntity]
  4: 0x05B7 [0x00] END_REQSTACK()
```

### Event 65535.77

#### Metadata

| Field        | Value    |
|--------------|----------|
| Entrypoint   | 0x05B8   |
| Data Size    | 15 bytes |
| Instructions | 5        |

```
      00 01 02 03 04 05 06 07  08 09 0A 0B 0C 0D 0E 0F
      -- -- -- -- -- -- -- --  -- -- -- -- -- -- -- --
05B0:                          32 04 80 1F 00 E2 80 E3          2.......
05C0: 80 1F 80 1F 01 6F 00                              .....o.         
```

#### Opcodes

```
  0: 0x05B8 [0x32] ExtData[1]->MainSpeed = 13* * 0.1
  1: 0x05BB [0x1F] MOVE_ENTITY: EventEntity moves to X=-26.494*, Z=190.100*, Y=-5.999*
  2: 0x05C3 [0x1F] MOVE_ENTITY: Update entity position (mode=1)
  3: 0x05C5 [0x6F] WAIT_FRAME_DELAY: Yield until WaitTime reaches zero
  4: 0x05C6 [0x00] END_REQSTACK()
```

### Event 65535.78

#### Metadata

| Field        | Value    |
|--------------|----------|
| Entrypoint   | 0x05C7   |
| Data Size    | 13 bytes |
| Instructions | 3        |

```
      00 01 02 03 04 05 06 07  08 09 0A 0B 0C 0D 0E 0F
      -- -- -- -- -- -- -- --  -- -- -- -- -- -- -- --
05C0:                      6E  F0 FF FF 7F E4 80 99 F0         n........
05D0: FF FF 7F 00                                       ....            
```

#### Opcodes

```
  0: 0x05C7 [0x6E] LocalPlayer uses emote 43*
  1: 0x05CE [0x99] Wait for LocalPlayer animation to complete
  2: 0x05D3 [0x00] END_REQSTACK()
```

### Event 65535.79

#### Metadata

| Field        | Value    |
|--------------|----------|
| Entrypoint   | 0x05D4   |
| Data Size    | 13 bytes |
| Instructions | 3        |

```
      00 01 02 03 04 05 06 07  08 09 0A 0B 0C 0D 0E 0F
      -- -- -- -- -- -- -- --  -- -- -- -- -- -- -- --
05D0:             6E F0 FF FF  7F E5 80 99 F0 FF FF 7F      n...........
05E0: 00                                                .               
```

#### Opcodes

```
  0: 0x05D4 [0x6E] LocalPlayer uses emote 1579*
  1: 0x05DB [0x99] Wait for LocalPlayer animation to complete
  2: 0x05E0 [0x00] END_REQSTACK()
```

### Event 65535.80

#### Metadata

| Field        | Value    |
|--------------|----------|
| Entrypoint   | 0x05E1   |
| Data Size    | 13 bytes |
| Instructions | 3        |

```
      00 01 02 03 04 05 06 07  08 09 0A 0B 0C 0D 0E 0F
      -- -- -- -- -- -- -- --  -- -- -- -- -- -- -- --
05E0:    6E F0 FF FF 7F E6 80  99 F0 FF FF 7F 00         n............  
```

#### Opcodes

```
  0: 0x05E1 [0x6E] LocalPlayer uses emote 811*
  1: 0x05E8 [0x99] Wait for LocalPlayer animation to complete
  2: 0x05ED [0x00] END_REQSTACK()
```

### Event 65535.81

#### Metadata

| Field        | Value    |
|--------------|----------|
| Entrypoint   | 0x05EE   |
| Data Size    | 13 bytes |
| Instructions | 3        |

```
      00 01 02 03 04 05 06 07  08 09 0A 0B 0C 0D 0E 0F
      -- -- -- -- -- -- -- --  -- -- -- -- -- -- -- --
05E0:                                            6E F0                n.
05F0: FF FF 7F E4 80 99 F0 FF  FF 7F 00                 ...........     
```

#### Opcodes

```
  0: 0x05EE [0x6E] LocalPlayer uses emote 43*
  1: 0x05F5 [0x99] Wait for LocalPlayer animation to complete
  2: 0x05FA [0x00] END_REQSTACK()
```

### Event 65535.82

#### Metadata

| Field        | Value    |
|--------------|----------|
| Entrypoint   | 0x05FB   |
| Data Size    | 13 bytes |
| Instructions | 3        |

```
      00 01 02 03 04 05 06 07  08 09 0A 0B 0C 0D 0E 0F
      -- -- -- -- -- -- -- --  -- -- -- -- -- -- -- --
05F0:                                   6E F0 FF FF 7F             n....
0600: E7 80 99 F0 FF FF 7F 00                           ........        
```

#### Opcodes

```
  0: 0x05FB [0x6E] LocalPlayer uses emote 1067*
  1: 0x0602 [0x99] Wait for LocalPlayer animation to complete
  2: 0x0607 [0x00] END_REQSTACK()
```

### Event 65535.83

#### Metadata

| Field        | Value    |
|--------------|----------|
| Entrypoint   | 0x0608   |
| Data Size    | 13 bytes |
| Instructions | 3        |

```
      00 01 02 03 04 05 06 07  08 09 0A 0B 0C 0D 0E 0F
      -- -- -- -- -- -- -- --  -- -- -- -- -- -- -- --
0600:                          6E F0 FF FF 7F E8 80 99          n.......
0610: F0 FF FF 7F 00                                    .....           
```

#### Opcodes

```
  0: 0x0608 [0x6E] LocalPlayer uses emote 299*
  1: 0x060F [0x99] Wait for LocalPlayer animation to complete
  2: 0x0614 [0x00] END_REQSTACK()
```

### Event 65535.84

#### Metadata

| Field        | Value    |
|--------------|----------|
| Entrypoint   | 0x0615   |
| Data Size    | 13 bytes |
| Instructions | 3        |

```
      00 01 02 03 04 05 06 07  08 09 0A 0B 0C 0D 0E 0F
      -- -- -- -- -- -- -- --  -- -- -- -- -- -- -- --
0610:                6E F0 FF  FF 7F E9 80 99 F0 FF FF       n..........
0620: 7F 00                                             ..              
```

#### Opcodes

```
  0: 0x0615 [0x6E] LocalPlayer uses emote 1323*
  1: 0x061C [0x99] Wait for LocalPlayer animation to complete
  2: 0x0621 [0x00] END_REQSTACK()
```

### Event 65535.85

#### Metadata

| Field        | Value     |
|--------------|-----------|
| Entrypoint   | 0x0622    |
| Data Size    | 161 bytes |
| Instructions | 3         |

```
      00 01 02 03 04 05 06 07  08 09 0A 0B 0C 0D 0E 0F
      -- -- -- -- -- -- -- --  -- -- -- -- -- -- -- --
0620:       6E F0 FF FF 7F EA  80 99 F0 FF FF 7F 00 03    n.............
0630: 04 00 03 00 02 04 00 EB  80 05 44 06 08 04 00 08  ..........D.....
0640: 80 01 49 06 08 04 00 EC  80 14 04 00 ED 80 07 04  ..I.............
0650: 00 EE 80 1B 03 04 00 03  00 02 04 00 EB 80 05 69  ...............i
0660: 06 08 04 00 08 80 01 6E  06 08 04 00 EC 80 14 04  .......n........
0670: 00 ED 80 07 04 00 EF 80  1B 03 04 00 03 00 02 04  ................
0680: 00 EB 80 05 8E 06 08 04  00 08 80 01 93 06 08 04  ................
0690: 00 EC 80 14 04 00 ED 80  07 04 00 F0 80 1B 03 04  ................
06A0: 00 03 00 02 04 00 EB 80  05 B3 06 08 04 00 08 80  ................
06B0: 01 B8 06 08 04 00 EC 80  14 04 00 ED 80 07 04 00  ................
06C0: F1 80 1B                                          ...             
```

#### Opcodes

```
  0: 0x0622 [0x6E] LocalPlayer uses emote 555*
  1: 0x0629 [0x99] Wait for LocalPlayer animation to complete
  2: 0x062E [0x00] END_REQSTACK()
```

#### Data or dead code:

```
# Dead code (unreachable instructions):
     0x062F [0x03] ExtData[1]->WorkLocal[4] = ExtData[1]->WorkLocal[3]
     0x0634 [0x02] IF !(ExtData[1]->WorkLocal[4] > 5*) GOTO 0x0644
     0x063C [0x08] ExtData[1]->WorkLocal[4] -= 1*
     0x0641 [0x01] GOTO 0x0649
     0x0644 [0x08] ExtData[1]->WorkLocal[4] -= 2*
     0x0649 [0x14] ExtData[1]->WorkLocal[4] *= 10*
     0x064E [0x07] ExtData[1]->WorkLocal[4] += 9*
     0x0653 [0x1B] RETURN
     0x0654 [0x03] ExtData[1]->WorkLocal[4] = ExtData[1]->WorkLocal[3]
     0x0659 [0x02] IF !(ExtData[1]->WorkLocal[4] > 5*) GOTO 0x0669
     0x0661 [0x08] ExtData[1]->WorkLocal[4] -= 1*
     0x0666 [0x01] GOTO 0x066E
     0x0669 [0x08] ExtData[1]->WorkLocal[4] -= 2*
     0x066E [0x14] ExtData[1]->WorkLocal[4] *= 10*
     0x0673 [0x07] ExtData[1]->WorkLocal[4] += 70*
     0x0678 [0x1B] RETURN
     0x0679 [0x03] ExtData[1]->WorkLocal[4] = ExtData[1]->WorkLocal[3]
     0x067E [0x02] IF !(ExtData[1]->WorkLocal[4] > 5*) GOTO 0x068E
     0x0686 [0x08] ExtData[1]->WorkLocal[4] -= 1*
     0x068B [0x01] GOTO 0x0693
     0x068E [0x08] ExtData[1]->WorkLocal[4] -= 2*
     0x0693 [0x14] ExtData[1]->WorkLocal[4] *= 10*
     0x0698 [0x07] ExtData[1]->WorkLocal[4] += 140*
     0x069D [0x1B] RETURN
     0x069E [0x03] ExtData[1]->WorkLocal[4] = ExtData[1]->WorkLocal[3]
     0x06A3 [0x02] IF !(ExtData[1]->WorkLocal[4] > 5*) GOTO 0x06B3
     0x06AB [0x08] ExtData[1]->WorkLocal[4] -= 1*
     0x06B0 [0x01] GOTO 0x06B8
     0x06B3 [0x08] ExtData[1]->WorkLocal[4] -= 2*
     0x06B8 [0x14] ExtData[1]->WorkLocal[4] *= 10*
     0x06BD [0x07] ExtData[1]->WorkLocal[4] += 210*
     0x06C2 [0x1B] RETURN
```

### Event 65535.86

#### Metadata

| Field        | Value    |
|--------------|----------|
| Entrypoint   | 0x06C3   |
| Data Size    | 15 bytes |
| Instructions | 5        |

```
      00 01 02 03 04 05 06 07  08 09 0A 0B 0C 0D 0E 0F
      -- -- -- -- -- -- -- --  -- -- -- -- -- -- -- --
06C0:          32 8C 80 1F 00  F2 80 F3 80 F4 80 1F 01     2............
06D0: 6F 00                                             o.              
```

#### Opcodes

```
  0: 0x06C3 [0x32] ExtData[1]->MainSpeed = 40* * 0.1
  1: 0x06C6 [0x1F] MOVE_ENTITY: EventEntity moves to X=164.172*, Z=332.171*, Y=-87.662*
  2: 0x06CE [0x1F] MOVE_ENTITY: Update entity position (mode=1)
  3: 0x06D0 [0x6F] WAIT_FRAME_DELAY: Yield until WaitTime reaches zero
  4: 0x06D1 [0x00] END_REQSTACK()
```

### Event 65535.87

#### Metadata

| Field        | Value    |
|--------------|----------|
| Entrypoint   | 0x06D2   |
| Data Size    | 41 bytes |
| Instructions | 9        |

```
      00 01 02 03 04 05 06 07  08 09 0A 0B 0C 0D 0E 0F
      -- -- -- -- -- -- -- --  -- -- -- -- -- -- -- --
06D0:       32 04 80 1F 00 F5  80 F6 80 F7 80 1F 01 6F    2............o
06E0: 1C F8 80 03 03 00 07 7F  1A 2F 06 66 04 00 F8 FF  ........./.f....
06F0: FF 7F F8 FF FF 7F 73 68  61 30 00                 ......sha0.     
```

#### Opcodes

```
  0: 0x06D2 [0x32] ExtData[1]->MainSpeed = 13* * 0.1
  1: 0x06D5 [0x1F] MOVE_ENTITY: EventEntity moves to X=162.129*, Z=331.980*, Y=-87.605*
  2: 0x06DD [0x1F] MOVE_ENTITY: Update entity position (mode=1)
  3: 0x06DF [0x6F] WAIT_FRAME_DELAY: Yield until WaitTime reaches zero
  4: 0x06E0 [0x1C] WAIT(15* ticks)
  5: 0x06E3 [0x03] ExtData[1]->WorkLocal[3] = Entity->Race
  6: 0x06E8 [0x1A] CALL_SUBROUTINE(address=0x062F)
  7: 0x06EB [0x66] LOAD_EXT_SCHEDULER_MAIN: Load scheduler "sha0" with entities [EventEntity, EventEntity], work=ExtData[1]->WorkLocal[4]
  8: 0x06FA [0x00] END_REQSTACK()
```

### Event 65535.88

#### Metadata

| Field        | Value    |
|--------------|----------|
| Entrypoint   | 0x06FB   |
| Data Size    | 29 bytes |
| Instructions | 5        |

```
      00 01 02 03 04 05 06 07  08 09 0A 0B 0C 0D 0E 0F
      -- -- -- -- -- -- -- --  -- -- -- -- -- -- -- --
06F0:                                   03 03 00 07 7F             .....
0700: 1A 9E 06 07 04 00 EC 80  66 04 00 F8 FF FF 7F F8  ........f.......
0710: FF FF 7F 72 75 6E 30 00                           ...run0.        
```

#### Opcodes

```
  0: 0x06FB [0x03] ExtData[1]->WorkLocal[3] = Entity->Race
  1: 0x0700 [0x1A] CALL_SUBROUTINE(address=0x069E)
  2: 0x0703 [0x07] ExtData[1]->WorkLocal[4] += 2*
  3: 0x0708 [0x66] LOAD_EXT_SCHEDULER_MAIN: Load scheduler "run0" with entities [EventEntity, EventEntity], work=ExtData[1]->WorkLocal[4]
  4: 0x0717 [0x00] END_REQSTACK()
```

### Event 65535.89

#### Metadata

| Field        | Value    |
|--------------|----------|
| Entrypoint   | 0x0718   |
| Data Size    | 24 bytes |
| Instructions | 4        |

```
      00 01 02 03 04 05 06 07  08 09 0A 0B 0C 0D 0E 0F
      -- -- -- -- -- -- -- --  -- -- -- -- -- -- -- --
0710:                          03 03 00 07 7F 1A 79 06          ......y.
0720: 66 04 00 F8 FF FF 7F F8  FF FF 7F 6D 61 62 30 00  f..........mab0.
```

#### Opcodes

```
  0: 0x0718 [0x03] ExtData[1]->WorkLocal[3] = Entity->Race
  1: 0x071D [0x1A] CALL_SUBROUTINE(address=0x0679)
  2: 0x0720 [0x66] LOAD_EXT_SCHEDULER_MAIN: Load scheduler "mab0" with entities [EventEntity, EventEntity], work=ExtData[1]->WorkLocal[4]
  3: 0x072F [0x00] END_REQSTACK()
```

### Event 65535.90

#### Metadata

| Field        | Value    |
|--------------|----------|
| Entrypoint   | 0x0730   |
| Data Size    | 24 bytes |
| Instructions | 4        |

```
      00 01 02 03 04 05 06 07  08 09 0A 0B 0C 0D 0E 0F
      -- -- -- -- -- -- -- --  -- -- -- -- -- -- -- --
0730: 03 03 00 07 7F 1A 79 06  66 04 00 F8 FF FF 7F F8  ......y.f.......
0740: FF FF 7F 6F 72 7A 30 00                           ...orz0.        
```

#### Opcodes

```
  0: 0x0730 [0x03] ExtData[1]->WorkLocal[3] = Entity->Race
  1: 0x0735 [0x1A] CALL_SUBROUTINE(address=0x0679)
  2: 0x0738 [0x66] LOAD_EXT_SCHEDULER_MAIN: Load scheduler "orz0" with entities [EventEntity, EventEntity], work=ExtData[1]->WorkLocal[4]
  3: 0x0747 [0x00] END_REQSTACK()
```

### Event 65535.91

#### Metadata

| Field        | Value     |
|--------------|-----------|
| Entrypoint   | 0x0748    |
| Data Size    | 353 bytes |
| Instructions | 41        |

```
      00 01 02 03 04 05 06 07  08 09 0A 0B 0C 0D 0E 0F
      -- -- -- -- -- -- -- --  -- -- -- -- -- -- -- --
0740:                          02 07 7F 08 80 80 74 07          ......t.
0750: 66 F9 80 F8 FF FF 7F F8  FF FF 7F 74 6C 6B 30 1C  f..........tlk0.
0760: FA 80 66 F9 80 F8 FF FF  7F F8 FF FF 7F 74 6C 6B  ..f..........tlk
0770: 31 01 A8 08 02 07 7F EC  80 80 A0 07 66 FB 80 F8  1...........f...
0780: FF FF 7F F8 FF FF 7F 74  6C 6B 30 1C FA 80 66 FB  .......tlk0...f.
0790: 80 F8 FF FF 7F F8 FF FF  7F 74 6C 6B 31 01 A8 08  .........tlk1...
07A0: 02 07 7F FC 80 80 CC 07  66 FD 80 F8 FF FF 7F F8  ........f.......
07B0: FF FF 7F 74 6C 6B 30 1C  FA 80 66 FD 80 F8 FF FF  ...tlk0...f.....
07C0: 7F F8 FF FF 7F 74 6C 6B  31 01 A8 08 02 07 7F FE  .....tlk1.......
07D0: 80 80 F8 07 66 FF 80 F8  FF FF 7F F8 FF FF 7F 74  ....f..........t
07E0: 6C 6B 30 1C FA 80 66 FF  80 F8 FF FF 7F F8 FF FF  lk0...f.........
07F0: 7F 74 6C 6B 31 01 A8 08  02 07 7F EB 80 80 24 08  .tlk1.........$.
0800: 66 00 81 F8 FF FF 7F F8  FF FF 7F 74 6C 6B 30 1C  f..........tlk0.
0810: FA 80 66 00 81 F8 FF FF  7F F8 FF FF 7F 74 6C 6B  ..f..........tlk
0820: 31 01 A8 08 02 07 7F 01  81 80 50 08 66 00 81 F8  1.........P.f...
0830: FF FF 7F F8 FF FF 7F 74  6C 6B 30 1C FA 80 66 00  .......tlk0...f.
0840: 81 F8 FF FF 7F F8 FF FF  7F 74 6C 6B 31 01 A8 08  .........tlk1...
0850: 02 07 7F 80 80 80 7C 08  66 02 81 F8 FF FF 7F F8  ......|.f.......
0860: FF FF 7F 74 6C 6B 30 1C  FA 80 66 02 81 F8 FF FF  ...tlk0...f.....
0870: 7F F8 FF FF 7F 74 6C 6B  31 01 A8 08 02 07 7F 03  .....tlk1.......
0880: 81 80 A8 08 66 04 81 F8  FF FF 7F F8 FF FF 7F 74  ....f..........t
0890: 6C 6B 30 1C FA 80 66 04  81 F8 FF FF 7F F8 FF FF  lk0...f.........
08A0: 7F 74 6C 6B 31 01 A8 08  00                       .tlk1....       
```

#### Opcodes

```
  0: 0x0748 [0x02] IF !(Entity->Race == 1*) GOTO 0x0774
  1: 0x0750 [0x66] LOAD_EXT_SCHEDULER_MAIN: Load scheduler "tlk0" with entities [EventEntity, EventEntity], work=149*
  2: 0x075F [0x1C] WAIT(120* ticks)
  3: 0x0762 [0x66] LOAD_EXT_SCHEDULER_MAIN: Load scheduler "tlk1" with entities [EventEntity, EventEntity], work=149*
  4: 0x0771 [0x01] GOTO 0x08A8
  5: 0x0774 [0x02] IF !(Entity->Race == 2*) GOTO 0x07A0
  6: 0x077C [0x66] LOAD_EXT_SCHEDULER_MAIN: Load scheduler "tlk0" with entities [EventEntity, EventEntity], work=159*
  7: 0x078B [0x1C] WAIT(120* ticks)
  8: 0x078E [0x66] LOAD_EXT_SCHEDULER_MAIN: Load scheduler "tlk1" with entities [EventEntity, EventEntity], work=159*
  9: 0x079D [0x01] GOTO 0x08A8
 10: 0x07A0 [0x02] IF !(Entity->Race == 3*) GOTO 0x07CC
 11: 0x07A8 [0x66] LOAD_EXT_SCHEDULER_MAIN: Load scheduler "tlk0" with entities [EventEntity, EventEntity], work=169*
 12: 0x07B7 [0x1C] WAIT(120* ticks)
 13: 0x07BA [0x66] LOAD_EXT_SCHEDULER_MAIN: Load scheduler "tlk1" with entities [EventEntity, EventEntity], work=169*
 14: 0x07C9 [0x01] GOTO 0x08A8
 15: 0x07CC [0x02] IF !(Entity->Race == 4*) GOTO 0x07F8
 16: 0x07D4 [0x66] LOAD_EXT_SCHEDULER_MAIN: Load scheduler "tlk0" with entities [EventEntity, EventEntity], work=179*
 17: 0x07E3 [0x1C] WAIT(120* ticks)
 18: 0x07E6 [0x66] LOAD_EXT_SCHEDULER_MAIN: Load scheduler "tlk1" with entities [EventEntity, EventEntity], work=179*
 19: 0x07F5 [0x01] GOTO 0x08A8
 20: 0x07F8 [0x02] IF !(Entity->Race == 5*) GOTO 0x0824
 21: 0x0800 [0x66] LOAD_EXT_SCHEDULER_MAIN: Load scheduler "tlk0" with entities [EventEntity, EventEntity], work=189*
 22: 0x080F [0x1C] WAIT(120* ticks)
 23: 0x0812 [0x66] LOAD_EXT_SCHEDULER_MAIN: Load scheduler "tlk1" with entities [EventEntity, EventEntity], work=189*
 24: 0x0821 [0x01] GOTO 0x08A8
 25: 0x0824 [0x02] IF !(Entity->Race == 6*) GOTO 0x0850
 26: 0x082C [0x66] LOAD_EXT_SCHEDULER_MAIN: Load scheduler "tlk0" with entities [EventEntity, EventEntity], work=189*
 27: 0x083B [0x1C] WAIT(120* ticks)
 28: 0x083E [0x66] LOAD_EXT_SCHEDULER_MAIN: Load scheduler "tlk1" with entities [EventEntity, EventEntity], work=189*
 29: 0x084D [0x01] GOTO 0x08A8
