# Event 209

## Metadata

| Field           | Value    |
|-----------------|----------|
| Event Index     | 16/19    |
| Offset          | 0x0108   |
| Data Size       | 33 bytes |
| Calculated Size | 33 bytes |
| Instructions    | 12       |

```
      00 01 02 03 04 05 06 07  08 09 0A 0B 0C 0D 0E 0F
      -- -- -- -- -- -- -- --  -- -- -- -- -- -- -- --
0100:                          1E F0 FF FF 7F 6F 70 29          .....op)
0110: 08 34 00 0F 01 01 1D 08  80 23 1D 09 80 23 29 08  .4.......#...#).
0120: 34 00 0F 01 09 20 00 21  00                       4.... .!.       
```

## Opcodes

```
  0: 0x0108 [0x1E] EventEntity looks at LocalPlayer and starts talking
  1: 0x010D [0x6F] WAIT_FRAME_DELAY: Yield until WaitTime reaches zero
  2: 0x010E [0x70] WAIT_ENTITY_RENDER_FLAG: Wait while EventEntity->Render.Flags3 bit 2 is set (cancel turn if not)
  3: 0x010F [0x29] REQ_SET_WAIT(priority=0x08, entity_id=Tokaka (ID: 17760308/0x010F0034), tag_num=0x01)
  4: 0x0116 [0x1D] PRINT_EVENT_MESSAGE(message_id=3613*)
    → "Depending on how big the \u0001\u0005%\u0002\u0001\u0000\u0000 are, I can work out the best place for us to cast our lines next.\u007F1\u0000\u0007"
  5: 0x0119 [0x23] WAIT_FOR_DIALOG_INTERACTION
  6: 0x011A [0x1D] PRINT_EVENT_MESSAGE(message_id=3614*)
    → "If you catch \u0001\u0001\u0001 \u0001\u0005$\u0002\u0001\u0000\u0000, I'd be gratarueful if you gave it to me to check.\u007F1\u0000\u0007"
  7: 0x011D [0x23] WAIT_FOR_DIALOG_INTERACTION
  8: 0x011E [0x29] REQ_SET_WAIT(priority=0x08, entity_id=Tokaka (ID: 17760308/0x010F0034), tag_num=0x09)
  9: 0x0125 [0x20] SET_CLI_EVENT_UC_FLAG: Unlock player control
 10: 0x0127 [0x21] END_EVENT
 11: 0x0128 [0x00] END_REQSTACK()
```
