# 17236384 - Cornelia

## Common Data

| Field            | Value               |
|------------------|---------------------|
| Zone             | Xarcabard (ID: 112) |
| Block Size       | 180 bytes           |
| Total Events     | 4                   |
| References Count | 8                   |

## List of Events

| Event ID                 | Entrypoint   |   Size |   Instructions |
|--------------------------|--------------|--------|----------------|
| [65535](#event-65535)    | 0x0000       |      1 |              1 |
| [65](#event-65)          | 0x0001       |      7 |              2 |
| [65535.1](#event-655351) | 0x0008       |     79 |              7 |
| [65535.2](#event-655352) | 0x0057       |     27 |              3 |

## DAT References (imed_data)

|   Index | Hex Value   |   Dec Value |
|---------|-------------|-------------|
|       0 | 0x0041      |          65 |
|       1 | 0x0000      |           0 |
|       2 | 0x000C      |          12 |
|       3 | 0x0024      |          36 |
|       4 | 0x000F      |          15 |
|       5 | 0x0048      |          72 |
|       6 | 0x00A5      |         165 |
|       7 | 0x005A      |          90 |

## Events

### Event 65535

#### Metadata

| Field        | Value   |
|--------------|---------|
| Entrypoint   | 0x0000  |
| Data Size    | 1 bytes |
| Instructions | 1       |

```
      00 01 02 03 04 05 06 07  08 09 0A 0B 0C 0D 0E 0F
      -- -- -- -- -- -- -- --  -- -- -- -- -- -- -- --
0000: 00                                                .               
```

#### Opcodes

```
  0: 0x0000 [0x00] END_REQSTACK()
```

### Event 65

#### Metadata

| Field        | Value   |
|--------------|---------|
| Entrypoint   | 0x0001  |
| Data Size    | 7 bytes |
| Instructions | 2       |

```
      00 01 02 03 04 05 06 07  08 09 0A 0B 0C 0D 0E 0F
      -- -- -- -- -- -- -- --  -- -- -- -- -- -- -- --
0000:    92 01 F8 FF FF 7F 00                            .......        
```

#### Opcodes

```
  0: 0x0001 [0x92] EventEntity->Render.Flags3 ^= 0x01
  1: 0x0007 [0x00] END_REQSTACK()
```

### Event 65535.1

#### Metadata

| Field        | Value    |
|--------------|----------|
| Entrypoint   | 0x0008   |
| Data Size    | 79 bytes |
| Instructions | 7        |

```
      00 01 02 03 04 05 06 07  08 09 0A 0B 0C 0D 0E 0F
      -- -- -- -- -- -- -- --  -- -- -- -- -- -- -- --
0000:                          62 00 80 F8 FF FF 7F F8          b.......
0010: FF FF 7F 6D 61 69 6E 01  80 66 02 80 F8 FF FF 7F  ...main..f......
0020: F8 FF FF 7F 66 75 77 30  6C F8 FF FF 7F 03 80 04  ....fuw0l.......
0030: 80 6C F8 FF FF 7F 05 80  06 80 53 F8 FF FF 7F F8  .l........S.....
0040: FF FF 7F 66 75 77 30 66  02 80 F8 FF FF 7F F8 FF  ...fuw0f........
0050: FF 7F 64 6B 30 30 00                              ..dk00.         
```

#### Opcodes

```
  0: 0x0008 [0x62] LOAD_EVENT_SCHEDULER: Load scheduler "main" with entities [EventEntity, EventEntity], work=[65*, 0*]
  1: 0x0019 [0x66] LOAD_EXT_SCHEDULER_MAIN: Load scheduler "fuw0" with entities [EventEntity, EventEntity], work=12*
  2: 0x0028 [0x6C] FADE_ENTITY_COLOR(entity_id=EventEntity, end_alpha=36*, fade_time=15*)
  3: 0x0031 [0x6C] FADE_ENTITY_COLOR(entity_id=EventEntity, end_alpha=72*, fade_time=165*)
  4: 0x003A [0x53] WAIT_SCHEDULER_TASK: Wait for scheduler "fuw0" with entities [EventEntity, EventEntity]
  5: 0x0047 [0x66] LOAD_EXT_SCHEDULER_MAIN: Load scheduler "dk00" with entities [EventEntity, EventEntity], work=12*
  6: 0x0056 [0x00] END_REQSTACK()
```

### Event 65535.2

#### Metadata

| Field        | Value    |
|--------------|----------|
| Entrypoint   | 0x0057   |
| Data Size    | 27 bytes |
| Instructions | 3        |

```
      00 01 02 03 04 05 06 07  08 09 0A 0B 0C 0D 0E 0F
      -- -- -- -- -- -- -- --  -- -- -- -- -- -- -- --
0050:                      62  00 80 A0 01 07 01 A0 01         b........
0060: 07 01 73 67 30 31 01 80  6C F8 FF FF 7F 01 80 07  ..sg01..l.......
0070: 80 00                                             ..              
```

#### Opcodes

```
  0: 0x0057 [0x62] LOAD_EVENT_SCHEDULER: Load scheduler "sg01" with entities [Cornelia (ID: 17236384/0x010701A0), Cornelia (ID: 17236384/0x010701A0)], work=[65*, 0*]
  1: 0x0068 [0x6C] FADE_ENTITY_COLOR(entity_id=EventEntity, end_alpha=0*, fade_time=90*)
  2: 0x0071 [0x00] END_REQSTACK()
```
