# 17236318 - Semih Lafihna

## Common Data

| Field            | Value               |
|------------------|---------------------|
| Zone             | Xarcabard (ID: 112) |
| Block Size       | 1580 bytes          |
| Total Events     | 76                  |
| References Count | 72                  |

## List of Events

| Event ID                   | Entrypoint   |   Size |   Instructions |
|----------------------------|--------------|--------|----------------|
| [65535](#event-65535)      | 0x0000       |      1 |              1 |
| [65535.1](#event-655351)   | 0x0001       |     16 |              2 |
| [65535.2](#event-655352)   | 0x0011       |     14 |              2 |
| [65535.3](#event-655353)   | 0x001F       |     37 |              5 |
| [65535.4](#event-655354)   | 0x0044       |     16 |              2 |
| [65535.5](#event-655355)   | 0x0054       |     14 |              2 |
| [65535.6](#event-655356)   | 0x0062       |     16 |              2 |
| [65535.7](#event-655357)   | 0x0072       |     14 |              2 |
| [65535.8](#event-655358)   | 0x0080       |     16 |              2 |
| [65535.9](#event-655359)   | 0x0090       |     14 |              2 |
| [65535.10](#event-6553510) | 0x009E       |     16 |              2 |
| [65535.11](#event-6553511) | 0x00AE       |     14 |              2 |
| [65535.12](#event-6553512) | 0x00BC       |     22 |              3 |
| [65535.13](#event-6553513) | 0x00D2       |     20 |              3 |
| [65535.14](#event-6553514) | 0x00E6       |     16 |              2 |
| [65535.15](#event-6553515) | 0x00F6       |     14 |              2 |
| [65535.16](#event-6553516) | 0x0104       |     16 |              2 |
| [65535.17](#event-6553517) | 0x0114       |     14 |              2 |
| [65535.18](#event-6553518) | 0x0122       |     29 |              3 |
| [65535.19](#event-6553519) | 0x013F       |     29 |              3 |
| [65535.20](#event-6553520) | 0x015C       |     29 |              3 |
| [65535.21](#event-6553521) | 0x0179       |     16 |              2 |
| [65535.22](#event-6553522) | 0x0189       |     14 |              2 |
| [65535.23](#event-6553523) | 0x0197       |     29 |              3 |
| [65535.24](#event-6553524) | 0x01B4       |     16 |              2 |
| [65535.25](#event-6553525) | 0x01C4       |     14 |              2 |
| [65535.26](#event-6553526) | 0x01D2       |     29 |              3 |
| [65535.27](#event-6553527) | 0x01EF       |     29 |              3 |
| [65535.28](#event-6553528) | 0x020C       |     16 |              2 |
| [65535.29](#event-6553529) | 0x021C       |     14 |              2 |
| [65535.30](#event-6553530) | 0x022A       |     16 |              2 |
| [65535.31](#event-6553531) | 0x023A       |     14 |              2 |
| [65535.32](#event-6553532) | 0x0248       |     16 |              2 |
| [65535.33](#event-6553533) | 0x0258       |     14 |              2 |
| [65535.34](#event-6553534) | 0x0266       |     16 |              2 |
| [65535.35](#event-6553535) | 0x0276       |     14 |              2 |
| [65535.36](#event-6553536) | 0x0284       |     16 |              2 |
| [65535.37](#event-6553537) | 0x0294       |     14 |              2 |
| [65535.38](#event-6553538) | 0x02A2       |     16 |              2 |
| [65535.39](#event-6553539) | 0x02B2       |     14 |              2 |
| [65535.40](#event-6553540) | 0x02C0       |      9 |              3 |
| [4](#event-4)              | 0x02C9       |      1 |              1 |
| [5](#event-5)              | 0x02CA       |      1 |              1 |
| [65535.41](#event-6553541) | 0x02CB       |     14 |              4 |
| [65535.42](#event-6553542) | 0x02D9       |     17 |              5 |
| [65535.43](#event-6553543) | 0x02EA       |     10 |              2 |
| [65535.44](#event-6553544) | 0x02F4       |     10 |              2 |
| [65535.45](#event-6553545) | 0x02FE       |     14 |              4 |
| [65535.46](#event-6553546) | 0x030C       |     17 |              5 |
| [65535.47](#event-6553547) | 0x031D       |      5 |              3 |
| [65535.48](#event-6553548) | 0x0322       |      5 |              3 |
| [65535.49](#event-6553549) | 0x0327       |      9 |              5 |
| [65535.50](#event-6553550) | 0x0330       |      5 |              3 |
| [65535.51](#event-6553551) | 0x0335       |      5 |              3 |
| [65535.52](#event-6553552) | 0x033A       |      5 |              3 |
| [6](#event-6)              | 0x033F       |      1 |              1 |
| [65535.53](#event-6553553) | 0x0340       |     10 |              2 |
| [65535.54](#event-6553554) | 0x034A       |     10 |              2 |
| [65535.55](#event-6553555) | 0x0354       |     10 |              2 |
| [65535.56](#event-6553556) | 0x035E       |     10 |              2 |
| [65535.57](#event-6553557) | 0x0368       |     14 |              4 |
| [65535.58](#event-6553558) | 0x0376       |     14 |              4 |
| [65535.59](#event-6553559) | 0x0384       |      5 |              3 |
| [65535.60](#event-6553560) | 0x0389       |      5 |              3 |
| [65535.61](#event-6553561) | 0x038E       |      5 |              3 |
| [65535.62](#event-6553562) | 0x0393       |      5 |              3 |
| [65535.63](#event-6553563) | 0x0398       |      5 |              3 |
| [65535.64](#event-6553564) | 0x039D       |      5 |              3 |
| [65535.65](#event-6553565) | 0x03A2       |      5 |              3 |
| [65535.66](#event-6553566) | 0x03A7       |      5 |              3 |
| [65535.67](#event-6553567) | 0x03AC       |      5 |              3 |
| [65535.68](#event-6553568) | 0x03B1       |      5 |              3 |
| [65535.69](#event-6553569) | 0x03B6       |      5 |              3 |
| [65535.70](#event-6553570) | 0x03BB       |      5 |              3 |
| [65535.71](#event-6553571) | 0x03C0       |      5 |              3 |
| [65535.72](#event-6553572) | 0x03C5       |      5 |              3 |

## DAT References (imed_data)

|   Index | Hex Value   |   Dec Value |
|---------|-------------|-------------|
|       0 | 0x0175      |         373 |
|       1 | 0x001E      |          30 |
|       2 | 0x018F      |         399 |
|       3 | 0x0165      |         357 |
|       4 | 0x0169      |         361 |
|       5 | 0x016D      |         365 |
|       6 | 0x0167      |         359 |
|       7 | 0x000D      |          13 |
|       8 | 0x8F1D5     |      586197 |
|       9 | 0xFFFC0088  |  4294705288 |
|      10 | 0xFFFFFFB4  |  4294967220 |
|      11 | 0x0064      |         100 |
|      12 | 0x8CCAB     |      576683 |
|      13 | 0xFFFBFA1B  |  4294703643 |
|      14 | 0x0000      |           0 |
|      15 | 0x24340     |      148288 |
|      16 | 0xFFFF34C7  |  4294915271 |
|      17 | 0xFFFFC18E  |  4294951310 |
|      18 | 0x05FE      |        1534 |
|      19 | 0x8E933     |      583987 |
|      20 | 0xFFFBFA19  |  4294703641 |
|      21 | 0x0008      |           8 |
|      22 | 0x0759      |        1881 |
|      23 | 0x24775     |      149365 |
|      24 | 0xFFFF400B  |  4294918155 |
|      25 | 0xFFFFC272  |  4294951538 |
|      26 | 0x238C7     |      145607 |
|      27 | 0xFFFF2ED6  |  4294913750 |
|      28 | 0xFFFFBE6B  |  4294950507 |
|      29 | 0x1E3E      |        7742 |
|      30 | 0x1E3F      |        7743 |
|      31 | 0x1E40      |        7744 |
|      32 | 0x1E41      |        7745 |
|      33 | 0x1E42      |        7746 |
|      34 | 0x1E44      |        7748 |
|      35 | 0x1E45      |        7749 |
|      36 | 0xFFFC1D71  |  4294712689 |
|      37 | 0xFFFDEB87  |  4294830983 |
|      38 | 0xFFFFC687  |  4294952583 |
|      39 | 0x03EA      |        1002 |
|      40 | 0xFFFC1C1A  |  4294712346 |
|      41 | 0xFFFDBFF3  |  4294819827 |
|      42 | 0xFFFFC5B2  |  4294952370 |
|      43 | 0x0400      |        1024 |
|      44 | 0xFFFC14D8  |  4294710488 |
|      45 | 0xFFFD6F1A  |  4294799130 |
|      46 | 0xFFFFBA73  |  4294949491 |
|      47 | 0x03E3      |         995 |
|      48 | 0xFFFC0A32  |  4294707762 |
|      49 | 0xFFFDD565  |  4294825317 |
|      50 | 0xFFFFC282  |  4294951554 |
|      51 | 0x0351      |         849 |
|      52 | 0xFFFC1D51  |  4294712657 |
|      53 | 0xFFFDC9BC  |  4294822332 |
|      54 | 0xFFFFC5BF  |  4294952383 |
|      55 | 0xFFFC1EAA  |  4294713002 |
|      56 | 0xFFFDBE3A  |  4294819386 |
|      57 | 0xFFFFC63F  |  4294952511 |
|      58 | 0x1E46      |        7750 |
|      59 | 0x1E47      |        7751 |
|      60 | 0x1E48      |        7752 |
|      61 | 0x1E49      |        7753 |
|      62 | 0x1E4C      |        7756 |
|      63 | 0x1E4D      |        7757 |
|      64 | 0x1E4F      |        7759 |
|      65 | 0x1E51      |        7761 |
|      66 | 0x1E5D      |        7773 |
|      67 | 0x1E60      |        7776 |
|      68 | 0x1E63      |        7779 |
|      69 | 0x1E66      |        7782 |
|      70 | 0x1E6A      |        7786 |
|      71 | 0x1E6E      |        7790 |

## String References

- **7742**: <Player>!
- **7743**: Why have you come? You don't need to be here.
- **7744**: This is a drrreadful land. A place where even a person alone can barely sneak through.
- **7745**: That someone could be living in this accursed, godforsaken place is difficult to believe...
- **7746**: Only, I found this on one of the monsters from around here.
- **7748**: This arrow may have been loosed from the Bow of Light... Which means the Bow of Light would also be here somewhere...
- **7749**: In any case, I must get closer to Castle Zvahl. Take care of yourself, <Player>.
- **7750**: <Player>, do you find anything strrrange about that cave?
- **7751**: I can't imagine that anyone would be in there, but still, there's something... I feel some sort of prrresence from within.
- **7752**: ...!
- **7753**: Who's there!?
- **7756**: I am Semih Lafihna, Sibyl Guard of Windurst!
- **7757**: That voice...we are of the same tribe!? If you're not an enemy, then show yourself!
- **7759**: ...!? ...You, you're...!?
- **7761**: The daughter of...!? You were supposed to have died twenty years ago!
- **7773**: Thirty years ago...Yow Rabntah... She was a member of the team sent to investigate this area, wasn't she?
- **7776**: ...... She was captured by the Yagudo before she reached her destination...
- **7779**: ...... ...You will never accomplish that alone.
- **7782**: ......
- **7786**: I would be...? What did you just say?
- **7790**: ...It matches!

## Events

### Event 65535

#### Metadata

| Field        | Value   |
|--------------|---------|
| Entrypoint   | 0x0000  |
| Data Size    | 1 bytes |
| Instructions | 1       |

```
      00 01 02 03 04 05 06 07  08 09 0A 0B 0C 0D 0E 0F
      -- -- -- -- -- -- -- --  -- -- -- -- -- -- -- --
0000: 00                                                .               
```

#### Opcodes

```
  0: 0x0000 [0x00] END_REQSTACK()
```

### Event 65535.1

#### Metadata

| Field        | Value    |
|--------------|----------|
| Entrypoint   | 0x0001   |
| Data Size    | 16 bytes |
| Instructions | 2        |

```
      00 01 02 03 04 05 06 07  08 09 0A 0B 0C 0D 0E 0F
      -- -- -- -- -- -- -- --  -- -- -- -- -- -- -- --
0000:    5B 00 80 F8 FF FF 7F  F8 FF FF 7F 74 6C 6B 30   [..........tlk0
0010: 00                                                .               
```

#### Opcodes

```
  0: 0x0001 [0x5B] LOAD_EXT_SCHEDULER: Load scheduler "tlk0" with entities [EventEntity, EventEntity], work=373*
  1: 0x0010 [0x00] END_REQSTACK()
```

### Event 65535.2

#### Metadata

| Field        | Value    |
|--------------|----------|
| Entrypoint   | 0x0011   |
| Data Size    | 14 bytes |
| Instructions | 2        |

```
      00 01 02 03 04 05 06 07  08 09 0A 0B 0C 0D 0E 0F
      -- -- -- -- -- -- -- --  -- -- -- -- -- -- -- --
0010:    53 F8 FF FF 7F F8 FF  FF 7F 74 6C 6B 30 00      S........tlk0. 
```

#### Opcodes

```
  0: 0x0011 [0x53] WAIT_SCHEDULER_TASK: Wait for scheduler "tlk0" with entities [EventEntity, EventEntity]
  1: 0x001E [0x00] END_REQSTACK()
```

### Event 65535.3

#### Metadata

| Field        | Value    |
|--------------|----------|
| Entrypoint   | 0x001F   |
| Data Size    | 37 bytes |
| Instructions | 5        |

```
      00 01 02 03 04 05 06 07  08 09 0A 0B 0C 0D 0E 0F
      -- -- -- -- -- -- -- --  -- -- -- -- -- -- -- --
0010:                                               5B                 [
0020: 00 80 F8 FF FF 7F F8 FF  FF 7F 74 6C 6B 30 53 F8  ..........tlk0S.
0030: FF FF 7F F8 FF FF 7F 74  6C 6B 30 5E 69 64 6C 30  .......tlk0^idl0
0040: 1C 01 80 00                                       ....            
```

#### Opcodes

```
  0: 0x001F [0x5B] LOAD_EXT_SCHEDULER: Load scheduler "tlk0" with entities [EventEntity, EventEntity], work=373*
  1: 0x002E [0x53] WAIT_SCHEDULER_TASK: Wait for scheduler "tlk0" with entities [EventEntity, EventEntity]
  2: 0x003B [0x5E] EventEntity goes idle (kills current action) (animation: "idl0")
  3: 0x0040 [0x1C] WAIT(30* ticks)
  4: 0x0043 [0x00] END_REQSTACK()
```

### Event 65535.4

#### Metadata

| Field        | Value    |
|--------------|----------|
| Entrypoint   | 0x0044   |
| Data Size    | 16 bytes |
| Instructions | 2        |

```
      00 01 02 03 04 05 06 07  08 09 0A 0B 0C 0D 0E 0F
      -- -- -- -- -- -- -- --  -- -- -- -- -- -- -- --
0040:             5B 00 80 F8  FF FF 7F F8 FF FF 7F 74      [..........t
0050: 6C 6B 31 00                                       lk1.            
```

#### Opcodes

```
  0: 0x0044 [0x5B] LOAD_EXT_SCHEDULER: Load scheduler "tlk1" with entities [EventEntity, EventEntity], work=373*
  1: 0x0053 [0x00] END_REQSTACK()
```

### Event 65535.5

#### Metadata

| Field        | Value    |
|--------------|----------|
| Entrypoint   | 0x0054   |
| Data Size    | 14 bytes |
| Instructions | 2        |

```
      00 01 02 03 04 05 06 07  08 09 0A 0B 0C 0D 0E 0F
      -- -- -- -- -- -- -- --  -- -- -- -- -- -- -- --
0050:             53 F8 FF FF  7F F8 FF FF 7F 74 6C 6B      S........tlk
0060: 31 00                                             1.              
```

#### Opcodes

```
  0: 0x0054 [0x53] WAIT_SCHEDULER_TASK: Wait for scheduler "tlk1" with entities [EventEntity, EventEntity]
  1: 0x0061 [0x00] END_REQSTACK()
```

### Event 65535.6

#### Metadata

| Field        | Value    |
|--------------|----------|
| Entrypoint   | 0x0062   |
| Data Size    | 16 bytes |
| Instructions | 2        |

```
      00 01 02 03 04 05 06 07  08 09 0A 0B 0C 0D 0E 0F
      -- -- -- -- -- -- -- --  -- -- -- -- -- -- -- --
0060:       5B 00 80 F8 FF FF  7F F8 FF FF 7F 62 6F 6B    [..........bok
0070: 30 00                                             0.              
```

#### Opcodes

```
  0: 0x0062 [0x5B] LOAD_EXT_SCHEDULER: Load scheduler "bok0" with entities [EventEntity, EventEntity], work=373*
  1: 0x0071 [0x00] END_REQSTACK()
```

### Event 65535.7

#### Metadata

| Field        | Value    |
|--------------|----------|
| Entrypoint   | 0x0072   |
| Data Size    | 14 bytes |
| Instructions | 2        |

```
      00 01 02 03 04 05 06 07  08 09 0A 0B 0C 0D 0E 0F
      -- -- -- -- -- -- -- --  -- -- -- -- -- -- -- --
0070:       53 F8 FF FF 7F F8  FF FF 7F 62 6F 6B 30 00    S........bok0.
```

#### Opcodes

```
  0: 0x0072 [0x53] WAIT_SCHEDULER_TASK: Wait for scheduler "bok0" with entities [EventEntity, EventEntity]
  1: 0x007F [0x00] END_REQSTACK()
```

### Event 65535.8

#### Metadata

| Field        | Value    |
|--------------|----------|
| Entrypoint   | 0x0080   |
| Data Size    | 16 bytes |
| Instructions | 2        |

```
      00 01 02 03 04 05 06 07  08 09 0A 0B 0C 0D 0E 0F
      -- -- -- -- -- -- -- --  -- -- -- -- -- -- -- --
0080: 5B 00 80 F8 FF FF 7F F8  FF FF 7F 62 6F 6B 31 00  [..........bok1.
```

#### Opcodes

```
  0: 0x0080 [0x5B] LOAD_EXT_SCHEDULER: Load scheduler "bok1" with entities [EventEntity, EventEntity], work=373*
  1: 0x008F [0x00] END_REQSTACK()
```

### Event 65535.9

#### Metadata

| Field        | Value    |
|--------------|----------|
| Entrypoint   | 0x0090   |
| Data Size    | 14 bytes |
| Instructions | 2        |

```
      00 01 02 03 04 05 06 07  08 09 0A 0B 0C 0D 0E 0F
      -- -- -- -- -- -- -- --  -- -- -- -- -- -- -- --
0090: 53 F8 FF FF 7F F8 FF FF  7F 62 6F 6B 31 00        S........bok1.  
```

#### Opcodes

```
  0: 0x0090 [0x53] WAIT_SCHEDULER_TASK: Wait for scheduler "bok1" with entities [EventEntity, EventEntity]
  1: 0x009D [0x00] END_REQSTACK()
```

### Event 65535.10

#### Metadata

| Field        | Value    |
|--------------|----------|
| Entrypoint   | 0x009E   |
| Data Size    | 16 bytes |
| Instructions | 2        |

```
      00 01 02 03 04 05 06 07  08 09 0A 0B 0C 0D 0E 0F
      -- -- -- -- -- -- -- --  -- -- -- -- -- -- -- --
0090:                                            5B 00                [.
00A0: 80 F8 FF FF 7F F8 FF FF  7F 69 62 6F 30 00        .........ibo0.  
```

#### Opcodes

```
  0: 0x009E [0x5B] LOAD_EXT_SCHEDULER: Load scheduler "ibo0" with entities [EventEntity, EventEntity], work=373*
  1: 0x00AD [0x00] END_REQSTACK()
```

### Event 65535.11

#### Metadata

| Field        | Value    |
|--------------|----------|
| Entrypoint   | 0x00AE   |
| Data Size    | 14 bytes |
| Instructions | 2        |

```
      00 01 02 03 04 05 06 07  08 09 0A 0B 0C 0D 0E 0F
      -- -- -- -- -- -- -- --  -- -- -- -- -- -- -- --
00A0:                                            53 F8                S.
00B0: FF FF 7F F8 FF FF 7F 69  62 6F 30 00              .......ibo0.    
```

#### Opcodes

```
  0: 0x00AE [0x53] WAIT_SCHEDULER_TASK: Wait for scheduler "ibo0" with entities [EventEntity, EventEntity]
  1: 0x00BB [0x00] END_REQSTACK()
```

### Event 65535.12

#### Metadata

| Field        | Value    |
|--------------|----------|
| Entrypoint   | 0x00BC   |
| Data Size    | 22 bytes |
| Instructions | 3        |

```
      00 01 02 03 04 05 06 07  08 09 0A 0B 0C 0D 0E 0F
      -- -- -- -- -- -- -- --  -- -- -- -- -- -- -- --
00B0:                                      81 00 F8 FF              ....
00C0: FF 7F 5B 00 80 F8 FF FF  7F F8 FF FF 7F 75 6E 61  ..[..........una
00D0: 30 00                                             0.              
```

#### Opcodes

```
  0: 0x00BC [0x81] SET_ENTITY_BLINKING(blink_flag=0x00, entity=EventEntity)
  1: 0x00C2 [0x5B] LOAD_EXT_SCHEDULER: Load scheduler "una0" with entities [EventEntity, EventEntity], work=373*
  2: 0x00D1 [0x00] END_REQSTACK()
```

### Event 65535.13

#### Metadata

| Field        | Value    |
|--------------|----------|
| Entrypoint   | 0x00D2   |
| Data Size    | 20 bytes |
| Instructions | 3        |

```
      00 01 02 03 04 05 06 07  08 09 0A 0B 0C 0D 0E 0F
      -- -- -- -- -- -- -- --  -- -- -- -- -- -- -- --
00D0:       53 F8 FF FF 7F F8  FF FF 7F 75 6E 61 30 81    S........una0.
00E0: 01 F8 FF FF 7F 00                                 ......          
```

#### Opcodes

```
  0: 0x00D2 [0x53] WAIT_SCHEDULER_TASK: Wait for scheduler "una0" with entities [EventEntity, EventEntity]
  1: 0x00DF [0x81] SET_ENTITY_BLINKING(blink_flag=0x01, entity=EventEntity)
  2: 0x00E5 [0x00] END_REQSTACK()
```

### Event 65535.14

#### Metadata

| Field        | Value    |
|--------------|----------|
| Entrypoint   | 0x00E6   |
| Data Size    | 16 bytes |
| Instructions | 2        |

```
      00 01 02 03 04 05 06 07  08 09 0A 0B 0C 0D 0E 0F
      -- -- -- -- -- -- -- --  -- -- -- -- -- -- -- --
00E0:                   5B 00  80 F8 FF FF 7F F8 FF FF        [.........
00F0: 7F 65 76 30 30 00                                 .ev00.          
```

#### Opcodes

```
  0: 0x00E6 [0x5B] LOAD_EXT_SCHEDULER: Load scheduler "ev00" with entities [EventEntity, EventEntity], work=373*
  1: 0x00F5 [0x00] END_REQSTACK()
```

### Event 65535.15

#### Metadata

| Field        | Value    |
|--------------|----------|
| Entrypoint   | 0x00F6   |
| Data Size    | 14 bytes |
| Instructions | 2        |

```
      00 01 02 03 04 05 06 07  08 09 0A 0B 0C 0D 0E 0F
      -- -- -- -- -- -- -- --  -- -- -- -- -- -- -- --
00F0:                   53 F8  FF FF 7F F8 FF FF 7F 65        S........e
0100: 76 30 30 00                                       v00.            
```

#### Opcodes

```
  0: 0x00F6 [0x53] WAIT_SCHEDULER_TASK: Wait for scheduler "ev00" with entities [EventEntity, EventEntity]
  1: 0x0103 [0x00] END_REQSTACK()
```

### Event 65535.16

#### Metadata

| Field        | Value    |
|--------------|----------|
| Entrypoint   | 0x0104   |
| Data Size    | 16 bytes |
| Instructions | 2        |

```
      00 01 02 03 04 05 06 07  08 09 0A 0B 0C 0D 0E 0F
      -- -- -- -- -- -- -- --  -- -- -- -- -- -- -- --
0100:             5B 00 80 F8  FF FF 7F F8 FF FF 7F 65      [..........e
0110: 76 30 31 00                                       v01.            
```

#### Opcodes

```
  0: 0x0104 [0x5B] LOAD_EXT_SCHEDULER: Load scheduler "ev01" with entities [EventEntity, EventEntity], work=373*
  1: 0x0113 [0x00] END_REQSTACK()
```

### Event 65535.17

#### Metadata

| Field        | Value    |
|--------------|----------|
| Entrypoint   | 0x0114   |
| Data Size    | 14 bytes |
| Instructions | 2        |

```
      00 01 02 03 04 05 06 07  08 09 0A 0B 0C 0D 0E 0F
      -- -- -- -- -- -- -- --  -- -- -- -- -- -- -- --
0110:             53 F8 FF FF  7F F8 FF FF 7F 65 76 30      S........ev0
0120: 31 00                                             1.              
```

#### Opcodes

```
  0: 0x0114 [0x53] WAIT_SCHEDULER_TASK: Wait for scheduler "ev01" with entities [EventEntity, EventEntity]
  1: 0x0121 [0x00] END_REQSTACK()
```

### Event 65535.18

#### Metadata

| Field        | Value    |
|--------------|----------|
| Entrypoint   | 0x0122   |
| Data Size    | 29 bytes |
| Instructions | 3        |

```
      00 01 02 03 04 05 06 07  08 09 0A 0B 0C 0D 0E 0F
      -- -- -- -- -- -- -- --  -- -- -- -- -- -- -- --
0120:       5B 00 80 F8 FF FF  7F F8 FF FF 7F 65 76 30    [..........ev0
0130: 31 53 F8 FF FF 7F F8 FF  FF 7F 65 76 30 31 00     1S........ev01. 
```

#### Opcodes

```
  0: 0x0122 [0x5B] LOAD_EXT_SCHEDULER: Load scheduler "ev01" with entities [EventEntity, EventEntity], work=373*
  1: 0x0131 [0x53] WAIT_SCHEDULER_TASK: Wait for scheduler "ev01" with entities [EventEntity, EventEntity]
  2: 0x013E [0x00] END_REQSTACK()
```

### Event 65535.19

#### Metadata

| Field        | Value    |
|--------------|----------|
| Entrypoint   | 0x013F   |
| Data Size    | 29 bytes |
| Instructions | 3        |

```
      00 01 02 03 04 05 06 07  08 09 0A 0B 0C 0D 0E 0F
      -- -- -- -- -- -- -- --  -- -- -- -- -- -- -- --
0130:                                               5B                 [
0140: 02 80 F8 FF FF 7F F8 FF  FF 7F 65 76 30 32 53 F8  ..........ev02S.
0150: FF FF 7F F8 FF FF 7F 65  76 30 32 00              .......ev02.    
```

#### Opcodes

```
  0: 0x013F [0x5B] LOAD_EXT_SCHEDULER: Load scheduler "ev02" with entities [EventEntity, EventEntity], work=399*
  1: 0x014E [0x53] WAIT_SCHEDULER_TASK: Wait for scheduler "ev02" with entities [EventEntity, EventEntity]
  2: 0x015B [0x00] END_REQSTACK()
```

### Event 65535.20

#### Metadata

| Field        | Value    |
|--------------|----------|
| Entrypoint   | 0x015C   |
| Data Size    | 29 bytes |
| Instructions | 3        |

```
      00 01 02 03 04 05 06 07  08 09 0A 0B 0C 0D 0E 0F
      -- -- -- -- -- -- -- --  -- -- -- -- -- -- -- --
0150:                                      5B 02 80 F8              [...
0160: FF FF 7F F8 FF FF 7F 65  76 30 33 53 F8 FF FF 7F  .......ev03S....
0170: F8 FF FF 7F 65 76 30 33  00                       ....ev03.       
```

#### Opcodes

```
  0: 0x015C [0x5B] LOAD_EXT_SCHEDULER: Load scheduler "ev03" with entities [EventEntity, EventEntity], work=399*
  1: 0x016B [0x53] WAIT_SCHEDULER_TASK: Wait for scheduler "ev03" with entities [EventEntity, EventEntity]
  2: 0x0178 [0x00] END_REQSTACK()
```

### Event 65535.21

#### Metadata

| Field        | Value    |
|--------------|----------|
| Entrypoint   | 0x0179   |
| Data Size    | 16 bytes |
| Instructions | 2        |

```
      00 01 02 03 04 05 06 07  08 09 0A 0B 0C 0D 0E 0F
      -- -- -- -- -- -- -- --  -- -- -- -- -- -- -- --
0170:                             5B 03 80 F8 FF FF 7F           [......
0180: F8 FF FF 7F 74 68 6B 31  00                       ....thk1.       
```

#### Opcodes

```
  0: 0x0179 [0x5B] LOAD_EXT_SCHEDULER: Load scheduler "thk1" with entities [EventEntity, EventEntity], work=357*
  1: 0x0188 [0x00] END_REQSTACK()
```

### Event 65535.22

#### Metadata

| Field        | Value    |
|--------------|----------|
| Entrypoint   | 0x0189   |
| Data Size    | 14 bytes |
| Instructions | 2        |

```
      00 01 02 03 04 05 06 07  08 09 0A 0B 0C 0D 0E 0F
      -- -- -- -- -- -- -- --  -- -- -- -- -- -- -- --
0180:                             53 F8 FF FF 7F F8 FF           S......
0190: FF 7F 74 68 6B 31 00                              ..thk1.         
```

#### Opcodes

```
  0: 0x0189 [0x53] WAIT_SCHEDULER_TASK: Wait for scheduler "thk1" with entities [EventEntity, EventEntity]
  1: 0x0196 [0x00] END_REQSTACK()
```

### Event 65535.23

#### Metadata

| Field        | Value    |
|--------------|----------|
| Entrypoint   | 0x0197   |
| Data Size    | 29 bytes |
| Instructions | 3        |

```
      00 01 02 03 04 05 06 07  08 09 0A 0B 0C 0D 0E 0F
      -- -- -- -- -- -- -- --  -- -- -- -- -- -- -- --
0190:                      5B  03 80 F8 FF FF 7F F8 FF         [........
01A0: FF 7F 74 68 6B 31 53 F8  FF FF 7F F8 FF FF 7F 74  ..thk1S........t
01B0: 68 6B 31 00                                       hk1.            
```

#### Opcodes

```
  0: 0x0197 [0x5B] LOAD_EXT_SCHEDULER: Load scheduler "thk1" with entities [EventEntity, EventEntity], work=357*
  1: 0x01A6 [0x53] WAIT_SCHEDULER_TASK: Wait for scheduler "thk1" with entities [EventEntity, EventEntity]
  2: 0x01B3 [0x00] END_REQSTACK()
```

### Event 65535.24

#### Metadata

| Field        | Value    |
|--------------|----------|
| Entrypoint   | 0x01B4   |
| Data Size    | 16 bytes |
| Instructions | 2        |

```
      00 01 02 03 04 05 06 07  08 09 0A 0B 0C 0D 0E 0F
      -- -- -- -- -- -- -- --  -- -- -- -- -- -- -- --
01B0:             5B 03 80 F8  FF FF 7F F8 FF FF 7F 74      [..........t
01C0: 68 6B 32 00                                       hk2.            
```

#### Opcodes

```
  0: 0x01B4 [0x5B] LOAD_EXT_SCHEDULER: Load scheduler "thk2" with entities [EventEntity, EventEntity], work=357*
  1: 0x01C3 [0x00] END_REQSTACK()
```

### Event 65535.25

#### Metadata

| Field        | Value    |
|--------------|----------|
| Entrypoint   | 0x01C4   |
| Data Size    | 14 bytes |
| Instructions | 2        |

```
      00 01 02 03 04 05 06 07  08 09 0A 0B 0C 0D 0E 0F
      -- -- -- -- -- -- -- --  -- -- -- -- -- -- -- --
01C0:             53 F8 FF FF  7F F8 FF FF 7F 74 68 6B      S........thk
01D0: 32 00                                             2.              
```

#### Opcodes

```
  0: 0x01C4 [0x53] WAIT_SCHEDULER_TASK: Wait for scheduler "thk2" with entities [EventEntity, EventEntity]
  1: 0x01D1 [0x00] END_REQSTACK()
```

### Event 65535.26

#### Metadata

| Field        | Value    |
|--------------|----------|
| Entrypoint   | 0x01D2   |
| Data Size    | 29 bytes |
| Instructions | 3        |

```
      00 01 02 03 04 05 06 07  08 09 0A 0B 0C 0D 0E 0F
      -- -- -- -- -- -- -- --  -- -- -- -- -- -- -- --
01D0:       5B 03 80 F8 FF FF  7F F8 FF FF 7F 74 68 6B    [..........thk
01E0: 32 53 F8 FF FF 7F F8 FF  FF 7F 74 68 6B 32 00     2S........thk2. 
```

#### Opcodes

```
  0: 0x01D2 [0x5B] LOAD_EXT_SCHEDULER: Load scheduler "thk2" with entities [EventEntity, EventEntity], work=357*
  1: 0x01E1 [0x53] WAIT_SCHEDULER_TASK: Wait for scheduler "thk2" with entities [EventEntity, EventEntity]
  2: 0x01EE [0x00] END_REQSTACK()
```

### Event 65535.27

#### Metadata

| Field        | Value    |
|--------------|----------|
| Entrypoint   | 0x01EF   |
| Data Size    | 29 bytes |
| Instructions | 3        |

```
      00 01 02 03 04 05 06 07  08 09 0A 0B 0C 0D 0E 0F
      -- -- -- -- -- -- -- --  -- -- -- -- -- -- -- --
01E0:                                               5B                 [
01F0: 04 80 F8 FF FF 7F F8 FF  FF 7F 70 6F 69 30 53 F8  ..........poi0S.
0200: FF FF 7F F8 FF FF 7F 70  6F 69 30 00              .......poi0.    
```

#### Opcodes

```
  0: 0x01EF [0x5B] LOAD_EXT_SCHEDULER: Load scheduler "poi0" with entities [EventEntity, EventEntity], work=361*
  1: 0x01FE [0x53] WAIT_SCHEDULER_TASK: Wait for scheduler "poi0" with entities [EventEntity, EventEntity]
  2: 0x020B [0x00] END_REQSTACK()
```

### Event 65535.28

#### Metadata

| Field        | Value    |
|--------------|----------|
| Entrypoint   | 0x020C   |
| Data Size    | 16 bytes |
| Instructions | 2        |

```
      00 01 02 03 04 05 06 07  08 09 0A 0B 0C 0D 0E 0F
      -- -- -- -- -- -- -- --  -- -- -- -- -- -- -- --
0200:                                      5B 03 80 F8              [...
0210: FF FF 7F F8 FF FF 7F 64  69 73 30 00              .......dis0.    
```

#### Opcodes

```
  0: 0x020C [0x5B] LOAD_EXT_SCHEDULER: Load scheduler "dis0" with entities [EventEntity, EventEntity], work=357*
  1: 0x021B [0x00] END_REQSTACK()
```

### Event 65535.29

#### Metadata

| Field        | Value    |
|--------------|----------|
| Entrypoint   | 0x021C   |
| Data Size    | 14 bytes |
| Instructions | 2        |

```
      00 01 02 03 04 05 06 07  08 09 0A 0B 0C 0D 0E 0F
      -- -- -- -- -- -- -- --  -- -- -- -- -- -- -- --
0210:                                      53 F8 FF FF              S...
0220: 7F F8 FF FF 7F 64 69 73  30 00                    .....dis0.      
```

#### Opcodes

```
  0: 0x021C [0x53] WAIT_SCHEDULER_TASK: Wait for scheduler "dis0" with entities [EventEntity, EventEntity]
  1: 0x0229 [0x00] END_REQSTACK()
```

### Event 65535.30

#### Metadata

| Field        | Value    |
|--------------|----------|
| Entrypoint   | 0x022A   |
| Data Size    | 16 bytes |
| Instructions | 2        |

```
      00 01 02 03 04 05 06 07  08 09 0A 0B 0C 0D 0E 0F
      -- -- -- -- -- -- -- --  -- -- -- -- -- -- -- --
0220:                                5B 05 80 F8 FF FF            [.....
0230: 7F F8 FF FF 7F 74 6C 62  30 00                    .....tlb0.      
```

#### Opcodes

```
  0: 0x022A [0x5B] LOAD_EXT_SCHEDULER: Load scheduler "tlb0" with entities [EventEntity, EventEntity], work=365*
  1: 0x0239 [0x00] END_REQSTACK()
```

### Event 65535.31

#### Metadata

| Field        | Value    |
|--------------|----------|
| Entrypoint   | 0x023A   |
| Data Size    | 14 bytes |
| Instructions | 2        |

```
      00 01 02 03 04 05 06 07  08 09 0A 0B 0C 0D 0E 0F
      -- -- -- -- -- -- -- --  -- -- -- -- -- -- -- --
0230:                                53 F8 FF FF 7F F8            S.....
0240: FF FF 7F 74 6C 62 30 00                           ...tlb0.        
```

#### Opcodes

```
  0: 0x023A [0x53] WAIT_SCHEDULER_TASK: Wait for scheduler "tlb0" with entities [EventEntity, EventEntity]
  1: 0x0247 [0x00] END_REQSTACK()
```

### Event 65535.32

#### Metadata

| Field        | Value    |
|--------------|----------|
| Entrypoint   | 0x0248   |
| Data Size    | 16 bytes |
| Instructions | 2        |

```
      00 01 02 03 04 05 06 07  08 09 0A 0B 0C 0D 0E 0F
      -- -- -- -- -- -- -- --  -- -- -- -- -- -- -- --
0240:                          5B 05 80 F8 FF FF 7F F8          [.......
0250: FF FF 7F 74 6C 62 31 00                           ...tlb1.        
```

#### Opcodes

```
  0: 0x0248 [0x5B] LOAD_EXT_SCHEDULER: Load scheduler "tlb1" with entities [EventEntity, EventEntity], work=365*
  1: 0x0257 [0x00] END_REQSTACK()
```

### Event 65535.33

#### Metadata

| Field        | Value    |
|--------------|----------|
| Entrypoint   | 0x0258   |
| Data Size    | 14 bytes |
| Instructions | 2        |

```
      00 01 02 03 04 05 06 07  08 09 0A 0B 0C 0D 0E 0F
      -- -- -- -- -- -- -- --  -- -- -- -- -- -- -- --
0250:                          53 F8 FF FF 7F F8 FF FF          S.......
0260: 7F 74 6C 62 31 00                                 .tlb1.          
```

#### Opcodes

```
  0: 0x0258 [0x53] WAIT_SCHEDULER_TASK: Wait for scheduler "tlb1" with entities [EventEntity, EventEntity]
  1: 0x0265 [0x00] END_REQSTACK()
```

### Event 65535.34

#### Metadata

| Field        | Value    |
|--------------|----------|
| Entrypoint   | 0x0266   |
| Data Size    | 16 bytes |
| Instructions | 2        |

```
      00 01 02 03 04 05 06 07  08 09 0A 0B 0C 0D 0E 0F
      -- -- -- -- -- -- -- --  -- -- -- -- -- -- -- --
0260:                   5B 06  80 F8 FF FF 7F F8 FF FF        [.........
0270: 7F 74 6C 6B 30 00                                 .tlk0.          
```

#### Opcodes

```
  0: 0x0266 [0x5B] LOAD_EXT_SCHEDULER: Load scheduler "tlk0" with entities [EventEntity, EventEntity], work=359*
  1: 0x0275 [0x00] END_REQSTACK()
```

### Event 65535.35

#### Metadata

| Field        | Value    |
|--------------|----------|
| Entrypoint   | 0x0276   |
| Data Size    | 14 bytes |
| Instructions | 2        |

```
      00 01 02 03 04 05 06 07  08 09 0A 0B 0C 0D 0E 0F
      -- -- -- -- -- -- -- --  -- -- -- -- -- -- -- --
0270:                   53 F8  FF FF 7F F8 FF FF 7F 74        S........t
0280: 6C 6B 30 00                                       lk0.            
```

#### Opcodes

```
  0: 0x0276 [0x53] WAIT_SCHEDULER_TASK: Wait for scheduler "tlk0" with entities [EventEntity, EventEntity]
  1: 0x0283 [0x00] END_REQSTACK()
```

### Event 65535.36

#### Metadata

| Field        | Value    |
|--------------|----------|
| Entrypoint   | 0x0284   |
| Data Size    | 16 bytes |
| Instructions | 2        |

```
      00 01 02 03 04 05 06 07  08 09 0A 0B 0C 0D 0E 0F
      -- -- -- -- -- -- -- --  -- -- -- -- -- -- -- --
0280:             5B 06 80 F8  FF FF 7F F8 FF FF 7F 74      [..........t
0290: 6C 6B 32 00                                       lk2.            
```

#### Opcodes

```
  0: 0x0284 [0x5B] LOAD_EXT_SCHEDULER: Load scheduler "tlk2" with entities [EventEntity, EventEntity], work=359*
  1: 0x0293 [0x00] END_REQSTACK()
```

### Event 65535.37

#### Metadata

| Field        | Value    |
|--------------|----------|
| Entrypoint   | 0x0294   |
| Data Size    | 14 bytes |
| Instructions | 2        |

```
      00 01 02 03 04 05 06 07  08 09 0A 0B 0C 0D 0E 0F
      -- -- -- -- -- -- -- --  -- -- -- -- -- -- -- --
0290:             53 F8 FF FF  7F F8 FF FF 7F 74 6C 6B      S........tlk
02A0: 32 00                                             2.              
```

#### Opcodes

```
  0: 0x0294 [0x53] WAIT_SCHEDULER_TASK: Wait for scheduler "tlk2" with entities [EventEntity, EventEntity]
  1: 0x02A1 [0x00] END_REQSTACK()
```

### Event 65535.38

#### Metadata

| Field        | Value    |
|--------------|----------|
| Entrypoint   | 0x02A2   |
| Data Size    | 16 bytes |
| Instructions | 2        |

```
      00 01 02 03 04 05 06 07  08 09 0A 0B 0C 0D 0E 0F
      -- -- -- -- -- -- -- --  -- -- -- -- -- -- -- --
02A0:       5B 05 80 F8 FF FF  7F F8 FF FF 7F 70 61 73    [..........pas
02B0: 30 00                                             0.              
```

#### Opcodes

```
  0: 0x02A2 [0x5B] LOAD_EXT_SCHEDULER: Load scheduler "pas0" with entities [EventEntity, EventEntity], work=365*
  1: 0x02B1 [0x00] END_REQSTACK()
```

### Event 65535.39

#### Metadata

| Field        | Value    |
|--------------|----------|
| Entrypoint   | 0x02B2   |
| Data Size    | 14 bytes |
| Instructions | 2        |

```
      00 01 02 03 04 05 06 07  08 09 0A 0B 0C 0D 0E 0F
      -- -- -- -- -- -- -- --  -- -- -- -- -- -- -- --
02B0:       53 F8 FF FF 7F F8  FF FF 7F 70 61 73 30 00    S........pas0.
```

#### Opcodes

```
  0: 0x02B2 [0x53] WAIT_SCHEDULER_TASK: Wait for scheduler "pas0" with entities [EventEntity, EventEntity]
  1: 0x02BF [0x00] END_REQSTACK()
```

### Event 65535.40

#### Metadata

| Field        | Value   |
|--------------|---------|
| Entrypoint   | 0x02C0  |
| Data Size    | 9 bytes |
| Instructions | 3       |

```
      00 01 02 03 04 05 06 07  08 09 0A 0B 0C 0D 0E 0F
      -- -- -- -- -- -- -- --  -- -- -- -- -- -- -- --
02C0: 5E 69 64 6C 30 1C 01 80  00                       ^idl0....       
```

#### Opcodes

```
  0: 0x02C0 [0x5E] EventEntity goes idle (kills current action) (animation: "idl0")
  1: 0x02C5 [0x1C] WAIT(30* ticks)
  2: 0x02C8 [0x00] END_REQSTACK()
```

### Event 4

#### Metadata

| Field        | Value   |
|--------------|---------|
| Entrypoint   | 0x02C9  |
| Data Size    | 1 bytes |
| Instructions | 1       |

```
      00 01 02 03 04 05 06 07  08 09 0A 0B 0C 0D 0E 0F
      -- -- -- -- -- -- -- --  -- -- -- -- -- -- -- --
02C0:                             00                             .      
```

#### Opcodes

```
  0: 0x02C9 [0x00] END_REQSTACK()
```

### Event 5

#### Metadata

| Field        | Value   |
|--------------|---------|
| Entrypoint   | 0x02CA  |
| Data Size    | 1 bytes |
| Instructions | 1       |

```
      00 01 02 03 04 05 06 07  08 09 0A 0B 0C 0D 0E 0F
      -- -- -- -- -- -- -- --  -- -- -- -- -- -- -- --
02C0:                                00                           .     
```

#### Opcodes

```
  0: 0x02CA [0x00] END_REQSTACK()
```

### Event 65535.41

#### Metadata

| Field        | Value    |
|--------------|----------|
| Entrypoint   | 0x02CB   |
| Data Size    | 14 bytes |
| Instructions | 4        |

```
      00 01 02 03 04 05 06 07  08 09 0A 0B 0C 0D 0E 0F
      -- -- -- -- -- -- -- --  -- -- -- -- -- -- -- --
02C0:                                   32 07 80 1F 00             2....
02D0: 08 80 09 80 0A 80 1F 01  00                       .........       
```

#### Opcodes

```
  0: 0x02CB [0x32] ExtData[1]->MainSpeed = 13* * 0.1
  1: 0x02CE [0x1F] MOVE_ENTITY: EventEntity moves to X=586.197*, Z=-262.008*, Y=-0.076*
  2: 0x02D6 [0x1F] MOVE_ENTITY: Update entity position (mode=1)
  3: 0x02D8 [0x00] END_REQSTACK()
```

### Event 65535.42

#### Metadata

| Field        | Value    |
|--------------|----------|
| Entrypoint   | 0x02D9   |
| Data Size    | 17 bytes |
| Instructions | 5        |

```
      00 01 02 03 04 05 06 07  08 09 0A 0B 0C 0D 0E 0F
      -- -- -- -- -- -- -- --  -- -- -- -- -- -- -- --
02D0:                             1C 0B 80 32 07 80 1F           ...2...
02E0: 00 0C 80 0D 80 0E 80 1F  01 00                    ..........      
```

#### Opcodes

```
  0: 0x02D9 [0x1C] WAIT(100* ticks)
  1: 0x02DC [0x32] ExtData[1]->MainSpeed = 13* * 0.1
  2: 0x02DF [0x1F] MOVE_ENTITY: EventEntity moves to X=576.683*, Z=-263.653*, Y=0.000*
  3: 0x02E7 [0x1F] MOVE_ENTITY: Update entity position (mode=1)
  4: 0x02E9 [0x00] END_REQSTACK()
```

### Event 65535.43

#### Metadata

| Field        | Value    |
|--------------|----------|
| Entrypoint   | 0x02EA   |
| Data Size    | 10 bytes |
| Instructions | 2        |

```
      00 01 02 03 04 05 06 07  08 09 0A 0B 0C 0D 0E 0F
      -- -- -- -- -- -- -- --  -- -- -- -- -- -- -- --
02E0:                                37 0F 80 10 80 11            7.....
02F0: 80 12 80 00                                       ....            
```

#### Opcodes

```
  0: 0x02EA [0x37] UPDATE_EVENT_POSITION_AND_DIR: x=148.288*, z=-52.025*, y=-15.986*, direction=134.8°*
  1: 0x02F3 [0x00] END_REQSTACK()
```

### Event 65535.44

#### Metadata

| Field        | Value    |
|--------------|----------|
| Entrypoint   | 0x02F4   |
| Data Size    | 10 bytes |
| Instructions | 2        |

```
      00 01 02 03 04 05 06 07  08 09 0A 0B 0C 0D 0E 0F
      -- -- -- -- -- -- -- --  -- -- -- -- -- -- -- --
02F0:             37 13 80 14  80 15 80 16 80 00            7.........  
```

#### Opcodes

```
  0: 0x02F4 [0x37] UPDATE_EVENT_POSITION_AND_DIR: x=583.987*, z=-263.655*, y=0.008*, direction=165.3°*
  1: 0x02FD [0x00] END_REQSTACK()
```

### Event 65535.45

#### Metadata

| Field        | Value    |
|--------------|----------|
| Entrypoint   | 0x02FE   |
| Data Size    | 14 bytes |
| Instructions | 4        |

```
      00 01 02 03 04 05 06 07  08 09 0A 0B 0C 0D 0E 0F
      -- -- -- -- -- -- -- --  -- -- -- -- -- -- -- --
02F0:                                            32 07                2.
0300: 80 1F 00 17 80 18 80 19  80 1F 01 00              ............    
```

#### Opcodes

```
  0: 0x02FE [0x32] ExtData[1]->MainSpeed = 13* * 0.1
  1: 0x0301 [0x1F] MOVE_ENTITY: EventEntity moves to X=149.365*, Z=-49.141*, Y=-15.758*
  2: 0x0309 [0x1F] MOVE_ENTITY: Update entity position (mode=1)
  3: 0x030B [0x00] END_REQSTACK()
```

### Event 65535.46

#### Metadata

| Field        | Value    |
|--------------|----------|
| Entrypoint   | 0x030C   |
| Data Size    | 17 bytes |
| Instructions | 5        |

```
      00 01 02 03 04 05 06 07  08 09 0A 0B 0C 0D 0E 0F
      -- -- -- -- -- -- -- --  -- -- -- -- -- -- -- --
0300:                                      1C 0B 80 32              ...2
0310: 07 80 1F 00 1A 80 1B 80  1C 80 1F 01 00           .............   
```

#### Opcodes

```
  0: 0x030C [0x1C] WAIT(100* ticks)
  1: 0x030F [0x32] ExtData[1]->MainSpeed = 13* * 0.1
  2: 0x0312 [0x1F] MOVE_ENTITY: EventEntity moves to X=145.607*, Z=-53.546*, Y=-16.789*
  3: 0x031A [0x1F] MOVE_ENTITY: Update entity position (mode=1)
  4: 0x031C [0x00] END_REQSTACK()
```

### Event 65535.47

#### Metadata

| Field        | Value   |
|--------------|---------|
| Entrypoint   | 0x031D  |
| Data Size    | 5 bytes |
| Instructions | 3       |

```
      00 01 02 03 04 05 06 07  08 09 0A 0B 0C 0D 0E 0F
      -- -- -- -- -- -- -- --  -- -- -- -- -- -- -- --
0310:                                         1D 1D 80               ...
0320: 23 00                                             #.              
```

#### Opcodes

```
  0: 0x031D [0x1D] PRINT_EVENT_MESSAGE(message_id=7742*)
    → "<Player>!"
  1: 0x0320 [0x23] WAIT_FOR_DIALOG_INTERACTION
  2: 0x0321 [0x00] END_REQSTACK()
```

### Event 65535.48

#### Metadata

| Field        | Value   |
|--------------|---------|
| Entrypoint   | 0x0322  |
| Data Size    | 5 bytes |
| Instructions | 3       |

```
      00 01 02 03 04 05 06 07  08 09 0A 0B 0C 0D 0E 0F
      -- -- -- -- -- -- -- --  -- -- -- -- -- -- -- --
0320:       1D 1E 80 23 00                                ...#.         
```

#### Opcodes

```
  0: 0x0322 [0x1D] PRINT_EVENT_MESSAGE(message_id=7743*)
    → "Why have you come? You don't need to be here."
  1: 0x0325 [0x23] WAIT_FOR_DIALOG_INTERACTION
  2: 0x0326 [0x00] END_REQSTACK()
```

### Event 65535.49

#### Metadata

| Field        | Value   |
|--------------|---------|
| Entrypoint   | 0x0327  |
| Data Size    | 9 bytes |
| Instructions | 5       |

```
      00 01 02 03 04 05 06 07  08 09 0A 0B 0C 0D 0E 0F
      -- -- -- -- -- -- -- --  -- -- -- -- -- -- -- --
0320:                      1D  1F 80 23 1D 20 80 23 00         ...#. .#.
```

#### Opcodes

```
  0: 0x0327 [0x1D] PRINT_EVENT_MESSAGE(message_id=7744*)
    → "This is a drrreadful land. A place where even a person alone can barely sneak through."
  1: 0x032A [0x23] WAIT_FOR_DIALOG_INTERACTION
  2: 0x032B [0x1D] PRINT_EVENT_MESSAGE(message_id=7745*)
    → "That someone could be living in this accursed, godforsaken place is difficult to believe..."
  3: 0x032E [0x23] WAIT_FOR_DIALOG_INTERACTION
  4: 0x032F [0x00] END_REQSTACK()
```

### Event 65535.50

#### Metadata

| Field        | Value   |
|--------------|---------|
| Entrypoint   | 0x0330  |
| Data Size    | 5 bytes |
| Instructions | 3       |

```
      00 01 02 03 04 05 06 07  08 09 0A 0B 0C 0D 0E 0F
      -- -- -- -- -- -- -- --  -- -- -- -- -- -- -- --
0330: 1D 21 80 23 00                                    .!.#.           
```

#### Opcodes

```
  0: 0x0330 [0x1D] PRINT_EVENT_MESSAGE(message_id=7746*)
    → "Only, I found this on one of the monsters from around here."
  1: 0x0333 [0x23] WAIT_FOR_DIALOG_INTERACTION
  2: 0x0334 [0x00] END_REQSTACK()
```

### Event 65535.51

#### Metadata

| Field        | Value   |
|--------------|---------|
| Entrypoint   | 0x0335  |
| Data Size    | 5 bytes |
| Instructions | 3       |

```
      00 01 02 03 04 05 06 07  08 09 0A 0B 0C 0D 0E 0F
      -- -- -- -- -- -- -- --  -- -- -- -- -- -- -- --
0330:                1D 22 80  23 00                         .".#.      
```

#### Opcodes

```
  0: 0x0335 [0x1D] PRINT_EVENT_MESSAGE(message_id=7748*)
    → "This arrow may have been loosed from the Bow of Light... Which means the Bow of Light would also be here somewhere..."
  1: 0x0338 [0x23] WAIT_FOR_DIALOG_INTERACTION
  2: 0x0339 [0x00] END_REQSTACK()
```

### Event 65535.52

#### Metadata

| Field        | Value   |
|--------------|---------|
| Entrypoint   | 0x033A  |
| Data Size    | 5 bytes |
| Instructions | 3       |

```
      00 01 02 03 04 05 06 07  08 09 0A 0B 0C 0D 0E 0F
      -- -- -- -- -- -- -- --  -- -- -- -- -- -- -- --
0330:                                1D 23 80 23 00               .#.#. 
```

#### Opcodes

```
  0: 0x033A [0x1D] PRINT_EVENT_MESSAGE(message_id=7749*)
    → "In any case, I must get closer to Castle Zvahl. Take care of yourself, <Player>."
  1: 0x033D [0x23] WAIT_FOR_DIALOG_INTERACTION
  2: 0x033E [0x00] END_REQSTACK()
```

### Event 6

#### Metadata

| Field        | Value   |
|--------------|---------|
| Entrypoint   | 0x033F  |
| Data Size    | 1 bytes |
| Instructions | 1       |

```
      00 01 02 03 04 05 06 07  08 09 0A 0B 0C 0D 0E 0F
      -- -- -- -- -- -- -- --  -- -- -- -- -- -- -- --
0330:                                               00                 .
```

#### Opcodes

```
  0: 0x033F [0x00] END_REQSTACK()
```

### Event 65535.53

#### Metadata

| Field        | Value    |
|--------------|----------|
| Entrypoint   | 0x0340   |
| Data Size    | 10 bytes |
| Instructions | 2        |

```
      00 01 02 03 04 05 06 07  08 09 0A 0B 0C 0D 0E 0F
      -- -- -- -- -- -- -- --  -- -- -- -- -- -- -- --
0340: 37 24 80 25 80 26 80 27  80 00                    7$.%.&.'..      
```

#### Opcodes

```
  0: 0x0340 [0x37] UPDATE_EVENT_POSITION_AND_DIR: x=-254.607*, z=-136.313*, y=-14.713*, direction=88.1°*
  1: 0x0349 [0x00] END_REQSTACK()
```

### Event 65535.54

#### Metadata

| Field        | Value    |
|--------------|----------|
| Entrypoint   | 0x034A   |
| Data Size    | 10 bytes |
| Instructions | 2        |

```
      00 01 02 03 04 05 06 07  08 09 0A 0B 0C 0D 0E 0F
      -- -- -- -- -- -- -- --  -- -- -- -- -- -- -- --
0340:                                37 28 80 29 80 2A            7(.).*
0350: 80 2B 80 00                                       .+..            
```

#### Opcodes

```
  0: 0x034A [0x37] UPDATE_EVENT_POSITION_AND_DIR: x=-254.950*, z=-147.469*, y=-14.926*, direction=90.0°*
  1: 0x0353 [0x00] END_REQSTACK()
```

### Event 65535.55

#### Metadata

| Field        | Value    |
|--------------|----------|
| Entrypoint   | 0x0354   |
| Data Size    | 10 bytes |
| Instructions | 2        |

```
      00 01 02 03 04 05 06 07  08 09 0A 0B 0C 0D 0E 0F
      -- -- -- -- -- -- -- --  -- -- -- -- -- -- -- --
0350:             37 2C 80 2D  80 2E 80 2F 80 00            7,.-.../..  
```

#### Opcodes

```
  0: 0x0354 [0x37] UPDATE_EVENT_POSITION_AND_DIR: x=-256.808*, z=-168.166*, y=-17.805*, direction=87.4°*
  1: 0x035D [0x00] END_REQSTACK()
```

### Event 65535.56

#### Metadata

| Field        | Value    |
|--------------|----------|
| Entrypoint   | 0x035E   |
| Data Size    | 10 bytes |
| Instructions | 2        |

```
      00 01 02 03 04 05 06 07  08 09 0A 0B 0C 0D 0E 0F
      -- -- -- -- -- -- -- --  -- -- -- -- -- -- -- --
0350:                                            37 30                70
0360: 80 31 80 32 80 33 80 00                           .1.2.3..        
```

#### Opcodes

```
  0: 0x035E [0x37] UPDATE_EVENT_POSITION_AND_DIR: x=-259.534*, z=-141.979*, y=-15.742*, direction=74.6°*
  1: 0x0367 [0x00] END_REQSTACK()
```

### Event 65535.57

#### Metadata

| Field        | Value    |
|--------------|----------|
| Entrypoint   | 0x0368   |
| Data Size    | 14 bytes |
| Instructions | 4        |

```
      00 01 02 03 04 05 06 07  08 09 0A 0B 0C 0D 0E 0F
      -- -- -- -- -- -- -- --  -- -- -- -- -- -- -- --
0360:                          32 07 80 1F 00 34 80 35          2....4.5
0370: 80 36 80 1F 01 00                                 .6....          
```

#### Opcodes

```
  0: 0x0368 [0x32] ExtData[1]->MainSpeed = 13* * 0.1
  1: 0x036B [0x1F] MOVE_ENTITY: EventEntity moves to X=-254.639*, Z=-144.964*, Y=-14.913*
  2: 0x0373 [0x1F] MOVE_ENTITY: Update entity position (mode=1)
  3: 0x0375 [0x00] END_REQSTACK()
```

### Event 65535.58

#### Metadata

| Field        | Value    |
|--------------|----------|
| Entrypoint   | 0x0376   |
| Data Size    | 14 bytes |
| Instructions | 4        |

```
      00 01 02 03 04 05 06 07  08 09 0A 0B 0C 0D 0E 0F
      -- -- -- -- -- -- -- --  -- -- -- -- -- -- -- --
0370:                   32 07  80 1F 00 37 80 38 80 39        2....7.8.9
0380: 80 1F 01 00                                       ....            
```

#### Opcodes

```
  0: 0x0376 [0x32] ExtData[1]->MainSpeed = 13* * 0.1
  1: 0x0379 [0x1F] MOVE_ENTITY: EventEntity moves to X=-254.294*, Z=-147.910*, Y=-14.785*
  2: 0x0381 [0x1F] MOVE_ENTITY: Update entity position (mode=1)
  3: 0x0383 [0x00] END_REQSTACK()
```

### Event 65535.59

#### Metadata

| Field        | Value   |
|--------------|---------|
| Entrypoint   | 0x0384  |
| Data Size    | 5 bytes |
| Instructions | 3       |

```
      00 01 02 03 04 05 06 07  08 09 0A 0B 0C 0D 0E 0F
      -- -- -- -- -- -- -- --  -- -- -- -- -- -- -- --
0380:             1D 3A 80 23  00                           .:.#.       
```

#### Opcodes

```
  0: 0x0384 [0x1D] PRINT_EVENT_MESSAGE(message_id=7750*)
    → "<Player>, do you find anything strrrange about that cave?"
  1: 0x0387 [0x23] WAIT_FOR_DIALOG_INTERACTION
  2: 0x0388 [0x00] END_REQSTACK()
```

### Event 65535.60

#### Metadata

| Field        | Value   |
|--------------|---------|
| Entrypoint   | 0x0389  |
| Data Size    | 5 bytes |
| Instructions | 3       |

```
      00 01 02 03 04 05 06 07  08 09 0A 0B 0C 0D 0E 0F
      -- -- -- -- -- -- -- --  -- -- -- -- -- -- -- --
0380:                             1D 3B 80 23 00                 .;.#.  
```

#### Opcodes

```
  0: 0x0389 [0x1D] PRINT_EVENT_MESSAGE(message_id=7751*)
    → "I can't imagine that anyone would be in there, but still, there's something... I feel some sort of prrresence from within."
  1: 0x038C [0x23] WAIT_FOR_DIALOG_INTERACTION
  2: 0x038D [0x00] END_REQSTACK()
```

### Event 65535.61

#### Metadata

| Field        | Value   |
|--------------|---------|
| Entrypoint   | 0x038E  |
| Data Size    | 5 bytes |
| Instructions | 3       |

```
      00 01 02 03 04 05 06 07  08 09 0A 0B 0C 0D 0E 0F
      -- -- -- -- -- -- -- --  -- -- -- -- -- -- -- --
0380:                                            1D 3C                .<
0390: 80 23 00                                          .#.             
```

#### Opcodes

```
  0: 0x038E [0x1D] PRINT_EVENT_MESSAGE(message_id=7752*)
    → "...!"
  1: 0x0391 [0x23] WAIT_FOR_DIALOG_INTERACTION
  2: 0x0392 [0x00] END_REQSTACK()
```

### Event 65535.62

#### Metadata

| Field        | Value   |
|--------------|---------|
| Entrypoint   | 0x0393  |
| Data Size    | 5 bytes |
| Instructions | 3       |

```
      00 01 02 03 04 05 06 07  08 09 0A 0B 0C 0D 0E 0F
      -- -- -- -- -- -- -- --  -- -- -- -- -- -- -- --
0390:          1D 3D 80 23 00                              .=.#.        
```

#### Opcodes

```
  0: 0x0393 [0x1D] PRINT_EVENT_MESSAGE(message_id=7753*)
    → "Who's there!?"
  1: 0x0396 [0x23] WAIT_FOR_DIALOG_INTERACTION
  2: 0x0397 [0x00] END_REQSTACK()
```

### Event 65535.63

#### Metadata

| Field        | Value   |
|--------------|---------|
| Entrypoint   | 0x0398  |
| Data Size    | 5 bytes |
| Instructions | 3       |

```
      00 01 02 03 04 05 06 07  08 09 0A 0B 0C 0D 0E 0F
      -- -- -- -- -- -- -- --  -- -- -- -- -- -- -- --
0390:                          1D 3E 80 23 00                   .>.#.   
```

#### Opcodes

```
  0: 0x0398 [0x1D] PRINT_EVENT_MESSAGE(message_id=7756*)
    → "I am Semih Lafihna, Sibyl Guard of Windurst!"
  1: 0x039B [0x23] WAIT_FOR_DIALOG_INTERACTION
  2: 0x039C [0x00] END_REQSTACK()
```

### Event 65535.64

#### Metadata

| Field        | Value   |
|--------------|---------|
| Entrypoint   | 0x039D  |
| Data Size    | 5 bytes |
| Instructions | 3       |

```
      00 01 02 03 04 05 06 07  08 09 0A 0B 0C 0D 0E 0F
      -- -- -- -- -- -- -- --  -- -- -- -- -- -- -- --
0390:                                         1D 3F 80               .?.
03A0: 23 00                                             #.              
```

#### Opcodes

```
  0: 0x039D [0x1D] PRINT_EVENT_MESSAGE(message_id=7757*)
    → "That voice...we are of the same tribe!? If you're not an enemy, then show yourself!"
  1: 0x03A0 [0x23] WAIT_FOR_DIALOG_INTERACTION
  2: 0x03A1 [0x00] END_REQSTACK()
```

### Event 65535.65

#### Metadata

| Field        | Value   |
|--------------|---------|
| Entrypoint   | 0x03A2  |
| Data Size    | 5 bytes |
| Instructions | 3       |

```
      00 01 02 03 04 05 06 07  08 09 0A 0B 0C 0D 0E 0F
      -- -- -- -- -- -- -- --  -- -- -- -- -- -- -- --
03A0:       1D 40 80 23 00                                .@.#.         
```

#### Opcodes

```
  0: 0x03A2 [0x1D] PRINT_EVENT_MESSAGE(message_id=7759*)
    → "...!? ...You, you're...!?"
  1: 0x03A5 [0x23] WAIT_FOR_DIALOG_INTERACTION
  2: 0x03A6 [0x00] END_REQSTACK()
```

### Event 65535.66

#### Metadata

| Field        | Value   |
|--------------|---------|
| Entrypoint   | 0x03A7  |
| Data Size    | 5 bytes |
| Instructions | 3       |

```
      00 01 02 03 04 05 06 07  08 09 0A 0B 0C 0D 0E 0F
      -- -- -- -- -- -- -- --  -- -- -- -- -- -- -- --
03A0:                      1D  41 80 23 00                     .A.#.    
```

#### Opcodes

```
  0: 0x03A7 [0x1D] PRINT_EVENT_MESSAGE(message_id=7761*)
    → "The daughter of...!? You were supposed to have died twenty years ago!"
  1: 0x03AA [0x23] WAIT_FOR_DIALOG_INTERACTION
  2: 0x03AB [0x00] END_REQSTACK()
```

### Event 65535.67

#### Metadata

| Field        | Value   |
|--------------|---------|
| Entrypoint   | 0x03AC  |
| Data Size    | 5 bytes |
| Instructions | 3       |

```
      00 01 02 03 04 05 06 07  08 09 0A 0B 0C 0D 0E 0F
      -- -- -- -- -- -- -- --  -- -- -- -- -- -- -- --
03A0:                                      1D 42 80 23              .B.#
03B0: 00                                                .               
```

#### Opcodes

```
  0: 0x03AC [0x1D] PRINT_EVENT_MESSAGE(message_id=7773*)
    → "Thirty years ago...Yow Rabntah... She was a member of the team sent to investigate this area, wasn't she?"
  1: 0x03AF [0x23] WAIT_FOR_DIALOG_INTERACTION
  2: 0x03B0 [0x00] END_REQSTACK()
```

### Event 65535.68

#### Metadata

| Field        | Value   |
|--------------|---------|
| Entrypoint   | 0x03B1  |
| Data Size    | 5 bytes |
| Instructions | 3       |

```
      00 01 02 03 04 05 06 07  08 09 0A 0B 0C 0D 0E 0F
      -- -- -- -- -- -- -- --  -- -- -- -- -- -- -- --
03B0:    1D 43 80 23 00                                  .C.#.          
```

#### Opcodes

```
  0: 0x03B1 [0x1D] PRINT_EVENT_MESSAGE(message_id=7776*)
    → "...... She was captured by the Yagudo before she reached her destination..."
  1: 0x03B4 [0x23] WAIT_FOR_DIALOG_INTERACTION
  2: 0x03B5 [0x00] END_REQSTACK()
```

### Event 65535.69

#### Metadata

| Field        | Value   |
|--------------|---------|
| Entrypoint   | 0x03B6  |
| Data Size    | 5 bytes |
| Instructions | 3       |

```
      00 01 02 03 04 05 06 07  08 09 0A 0B 0C 0D 0E 0F
      -- -- -- -- -- -- -- --  -- -- -- -- -- -- -- --
03B0:                   1D 44  80 23 00                       .D.#.     
```

#### Opcodes

```
  0: 0x03B6 [0x1D] PRINT_EVENT_MESSAGE(message_id=7779*)
    → "...... ...You will never accomplish that alone."
  1: 0x03B9 [0x23] WAIT_FOR_DIALOG_INTERACTION
  2: 0x03BA [0x00] END_REQSTACK()
```

### Event 65535.70

#### Metadata

| Field        | Value   |
|--------------|---------|
| Entrypoint   | 0x03BB  |
| Data Size    | 5 bytes |
| Instructions | 3       |

```
      00 01 02 03 04 05 06 07  08 09 0A 0B 0C 0D 0E 0F
      -- -- -- -- -- -- -- --  -- -- -- -- -- -- -- --
03B0:                                   1D 45 80 23 00             .E.#.
```

#### Opcodes

```
  0: 0x03BB [0x1D] PRINT_EVENT_MESSAGE(message_id=7782*)
    → "......"
  1: 0x03BE [0x23] WAIT_FOR_DIALOG_INTERACTION
  2: 0x03BF [0x00] END_REQSTACK()
```

### Event 65535.71

#### Metadata

| Field        | Value   |
|--------------|---------|
| Entrypoint   | 0x03C0  |
| Data Size    | 5 bytes |
| Instructions | 3       |

```
      00 01 02 03 04 05 06 07  08 09 0A 0B 0C 0D 0E 0F
      -- -- -- -- -- -- -- --  -- -- -- -- -- -- -- --
03C0: 1D 46 80 23 00                                    .F.#.           
```

#### Opcodes

```
  0: 0x03C0 [0x1D] PRINT_EVENT_MESSAGE(message_id=7786*)
    → "I would be...? What did you just say?"
  1: 0x03C3 [0x23] WAIT_FOR_DIALOG_INTERACTION
  2: 0x03C4 [0x00] END_REQSTACK()
```

### Event 65535.72

#### Metadata

| Field        | Value   |
|--------------|---------|
| Entrypoint   | 0x03C5  |
| Data Size    | 5 bytes |
| Instructions | 3       |

```
      00 01 02 03 04 05 06 07  08 09 0A 0B 0C 0D 0E 0F
      -- -- -- -- -- -- -- --  -- -- -- -- -- -- -- --
03C0:                1D 47 80  23 00                         .G.#.      
```

#### Opcodes

```
  0: 0x03C5 [0x1D] PRINT_EVENT_MESSAGE(message_id=7790*)
    → "...It matches!"
  1: 0x03C8 [0x23] WAIT_FOR_DIALOG_INTERACTION
  2: 0x03C9 [0x00] END_REQSTACK()
```
