# 17236282

## Common Data

| Field            | Value               |
|------------------|---------------------|
| Zone             | Xarcabard (ID: 112) |
| Block Size       | 896 bytes           |
| Total Events     | 2                   |
| References Count | 18                  |

## List of Events

| Event ID              | Entrypoint   |   Size |   Instructions |
|-----------------------|--------------|--------|----------------|
| [65535](#event-65535) | 0x0000       |      1 |              1 |
| [60](#event-60)       | 0x0001       |    799 |            155 |

## DAT References (imed_data)

|   Index | Hex Value   |   Dec Value |
|---------|-------------|-------------|
|       0 | 0x006F      |         111 |
|       1 | 0x18E7      |        6375 |
|       2 | 0xFFFFFFFF  |  4294967295 |
|       3 | 0x0000      |           0 |
|       4 | 0x0001      |           1 |
|       5 | 0x0002      |           2 |
|       6 | 0x0003      |           3 |
|       7 | 0x0004      |           4 |
|       8 | 0x0005      |           5 |
|       9 | 0x0006      |           6 |
|      10 | 0x0007      |           7 |
|      11 | 0x18E8      |        6376 |
|      12 | 0x18EA      |        6378 |
|      13 | 0x18E9      |        6377 |
|      14 | 0x000F      |          15 |
|      15 | 0x0010      |          16 |
|      16 | 0x001F      |          31 |
|      17 | 0x18F0      |        6384 |

## String References

- **6375**: The chest will vanish into worlds beyond in $0 second[/s].
- **6376**: Obtain which treasure? [None./#./$1./$2./$3./$4./$5./Dispose of the chest.]
- **6377**: Obtain the $0? [Yes./No.]
- **6378**: Truly obtain that treasure?
- **6384**: Truly dispose of the chest? [Yes./No.]

## Events

### Event 65535

#### Metadata

| Field        | Value   |
|--------------|---------|
| Entrypoint   | 0x0000  |
| Data Size    | 1 bytes |
| Instructions | 1       |

```
      00 01 02 03 04 05 06 07  08 09 0A 0B 0C 0D 0E 0F
      -- -- -- -- -- -- -- --  -- -- -- -- -- -- -- --
0000: 00                                                .               
```

#### Opcodes

```
  0: 0x0000 [0x00] END_REQSTACK()
```

### Event 60

#### Metadata

| Field        | Value     |
|--------------|-----------|
| Entrypoint   | 0x0001    |
| Data Size    | 799 bytes |
| Instructions | 155       |

```
      00 01 02 03 04 05 06 07  08 09 0A 0B 0C 0D 0E 0F
      -- -- -- -- -- -- -- --  -- -- -- -- -- -- -- --
0000:    03 0E 00 02 10 03 03  00 03 10 03 04 00 04 10   ...............
0010: 03 01 10 00 80 43 00 43  01 03 01 00 02 10 03 05  .....C.C........
0020: 00 03 10 03 06 00 04 10  03 07 00 05 10 03 08 00  ................
0030: 06 10 03 09 00 07 10 03  0A 00 08 10 03 02 10 04  ................
0040: 00 48 01 80 23 03 0D 00  02 80 3D 0D 00 03 80 04  .H..#.....=.....
0050: 80 05 0F 00 02 0F 00 03  80 02 1E 03 03 02 10 03  ................
0060: 80 03 03 10 03 80 03 04  10 03 80 03 05 10 03 80  ................
0070: 03 06 10 03 80 03 07 10  03 80 03 08 10 03 80 03  ................
0080: 09 10 03 80 03 10 00 03  80 03 16 00 03 80 03 10  ................
0090: 00 03 80 02 0E 00 04 80  01 28 01 02 05 00 03 80  .........(......
00A0: 02 B2 00 3D 0D 00 04 80  04 80 03 02 10 05 00 0B  ...=............
00B0: 10 00 02 06 00 03 80 02  C9 00 3D 0D 00 05 80 04  ..........=.....
00C0: 80 03 03 10 06 00 0B 10  00 02 07 00 03 80 02 E0  ................
00D0: 00 3D 0D 00 06 80 04 80  03 04 10 07 00 0B 10 00  .=..............
00E0: 02 08 00 03 80 02 F7 00  3D 0D 00 07 80 04 80 03  ........=.......
00F0: 05 10 08 00 0B 10 00 02  09 00 03 80 02 0E 01 3D  ...............=
0100: 0D 00 08 80 04 80 03 06  10 09 00 0B 10 00 02 0A  ................
0110: 00 03 80 02 25 01 3D 0D  00 09 80 04 80 03 07 10  ....%.=.........
0120: 0A 00 0B 10 00 01 3F 01  02 05 00 03 80 02 3F 01  ......?.......?.
0130: 3D 0D 00 04 80 04 80 03  02 10 05 00 0B 10 00 02  =...............
0140: 10 00 03 80 02 18 03 03  11 00 03 80 03 12 00 03  ................
0150: 80 3D 0D 00 0A 80 04 80  24 0B 80 03 80 0D 00 25  .=......$......%
0160: 02 00 10 03 80 00 78 01  03 11 00 03 80 03 12 00  ......x.........
0170: 03 80 06 0F 00 01 29 02  02 00 10 04 80 00 9C 01  ......).........
0180: 03 11 00 04 80 03 12 00  05 00 03 13 00 06 00 03  ................
0190: 14 00 07 00 03 15 00 08  00 01 29 02 02 00 10 05  ..........).....
01A0: 80 00 B1 01 03 11 00 05  80 03 12 00 06 00 01 29  ...............)
01B0: 02 02 00 10 06 80 00 C6  01 03 11 00 06 80 03 12  ................
01C0: 00 07 00 01 29 02 02 00  10 07 80 00 DB 01 03 11  ....)...........
01D0: 00 07 80 03 12 00 08 00  01 29 02 02 00 10 08 80  .........)......
01E0: 00 F0 01 03 11 00 08 80  03 12 00 09 00 01 29 02  ..............).
01F0: 02 00 10 09 80 00 05 02  03 11 00 09 80 03 12 00  ................
0200: 0A 00 01 29 02 02 00 10  0A 80 00 29 02 03 11 00  ...).......)....
0210: 0A 80 03 12 00 03 80 03  13 00 03 80 03 14 00 03  ................
0220: 80 03 15 00 03 80 01 29  02 02 11 00 03 80 02 15  .......)........
0230: 03 02 11 00 0A 80 01 E2  02 02 11 00 04 80 00 95  ................
0240: 02 02 12 00 03 80 02 92  02 CC 01 12 00 13 00 14  ................
0250: 00 15 00 48 0C 80 23 93  03 80 03 02 10 12 00 24  ...H..#........$
0260: 0D 80 04 80 03 80 25 02  00 10 03 80 00 87 02 40  ......%........@
0270: 03 80 0E 80 01 10 04 80  40 0F 80 10 80 01 10 11  ........@.......
0280: 00 06 0F 00 01 92 02 02  00 10 04 80 00 92 02 01  ................
0290: 92 02 01 DF 02 02 12 00  03 80 02 DF 02 93 12 00  ................
02A0: 48 0C 80 23 93 03 80 03  02 10 12 00 24 0D 80 04  H..#........$...
02B0: 80 03 80 25 02 00 10 03  80 00 D4 02 40 03 80 0E  ...%........@...
02C0: 80 01 10 04 80 40 0F 80  10 80 01 10 11 00 06 0F  .....@..........
02D0: 00 01 DF 02 02 00 10 04  80 00 DF 02 01 DF 02 01  ................
02E0: 15 03 24 11 80 04 80 03  80 25 02 00 10 03 80 00  ..$......%......
02F0: 0A 03 40 03 80 0E 80 01  10 05 80 40 0F 80 10 80  ..@........@....
0300: 01 10 11 00 06 0F 00 01  15 03 02 00 10 04 80 00  ................
0310: 15 03 01 15 03 01 1B 03  06 0F 00 01 54 00 21 00  ............T.!.
```

#### Opcodes

```
  0: 0x0001 [0x03] ExtData[1]->WorkLocal[14] = Work_Zone[2]
  1: 0x0006 [0x03] ExtData[1]->WorkLocal[3] = Work_Zone[3]
  2: 0x000B [0x03] ExtData[1]->WorkLocal[4] = Work_Zone[4]
  3: 0x0010 [0x03] Work_Zone[1] = 111*
  4: 0x0015 [0x43] SEND_EVENT_UPDATE: Send pending tag to server (packet 0x005B)
  5: 0x0017 [0x43] SEND_EVENT_UPDATE: Check pending flag (skip if not pending)
  6: 0x0019 [0x03] ExtData[1]->WorkLocal[1] = Work_Zone[2]
  7: 0x001E [0x03] ExtData[1]->WorkLocal[5] = Work_Zone[3]
  8: 0x0023 [0x03] ExtData[1]->WorkLocal[6] = Work_Zone[4]
  9: 0x0028 [0x03] ExtData[1]->WorkLocal[7] = Work_Zone[5]
 10: 0x002D [0x03] ExtData[1]->WorkLocal[8] = Work_Zone[6]
 11: 0x0032 [0x03] ExtData[1]->WorkLocal[9] = Work_Zone[7]
 12: 0x0037 [0x03] ExtData[1]->WorkLocal[10] = Work_Zone[8]
 13: 0x003C [0x03] Work_Zone[2] = ExtData[1]->WorkLocal[4]
 14: 0x0041 [0x48] [System] [6375*]:
    → "The chest will vanish into worlds beyond in $0 second[/s]."
 15: 0x0044 [0x23] WAIT_FOR_DIALOG_INTERACTION
 16: 0x0045 [0x03] ExtData[1]->WorkLocal[13] = 4294967295*
 17: 0x004A [0x3D] CLEAR_BIT_FLAG_CONDITIONAL(target_work_offset=ExtData[1]->WorkLocal[13], bit_index_work_offset=0*, condition_work_offset=1*)
 18: 0x0051 [0x05] ExtData[1]->WorkLocal[15] = 1
 19: 0x0054 [0x02] IF !(ExtData[1]->WorkLocal[15] <= 0*) GOTO 0x031E
 20: 0x005C [0x03] Work_Zone[2] = 0*
 21: 0x0061 [0x03] Work_Zone[3] = 0*
 22: 0x0066 [0x03] Work_Zone[4] = 0*
 23: 0x006B [0x03] Work_Zone[5] = 0*
 24: 0x0070 [0x03] Work_Zone[6] = 0*
 25: 0x0075 [0x03] Work_Zone[7] = 0*
 26: 0x007A [0x03] Work_Zone[8] = 0*
 27: 0x007F [0x03] Work_Zone[9] = 0*
 28: 0x0084 [0x03] ExtData[1]->WorkLocal[16] = 0*
 29: 0x0089 [0x03] ExtData[1]->WorkLocal[22] = 0*
 30: 0x008E [0x03] ExtData[1]->WorkLocal[16] = 0*
 31: 0x0093 [0x02] IF !(ExtData[1]->WorkLocal[14] == 1*) GOTO 0x0128
 32: 0x009B [0x02] IF !(ExtData[1]->WorkLocal[5] <= 0*) GOTO 0x00B2
 33: 0x00A3 [0x3D] CLEAR_BIT_FLAG_CONDITIONAL(target_work_offset=ExtData[1]->WorkLocal[13], bit_index_work_offset=1*, condition_work_offset=1*)
 34: 0x00AA [0x03] Work_Zone[2] = ExtData[1]->WorkLocal[5]
 35: 0x00AF [0x0B] ExtData[1]->WorkLocal[16]++
 36: 0x00B2 [0x02] IF !(ExtData[1]->WorkLocal[6] <= 0*) GOTO 0x00C9
 37: 0x00BA [0x3D] CLEAR_BIT_FLAG_CONDITIONAL(target_work_offset=ExtData[1]->WorkLocal[13], bit_index_work_offset=2*, condition_work_offset=1*)
 38: 0x00C1 [0x03] Work_Zone[3] = ExtData[1]->WorkLocal[6]
 39: 0x00C6 [0x0B] ExtData[1]->WorkLocal[16]++
 40: 0x00C9 [0x02] IF !(ExtData[1]->WorkLocal[7] <= 0*) GOTO 0x00E0
 41: 0x00D1 [0x3D] CLEAR_BIT_FLAG_CONDITIONAL(target_work_offset=ExtData[1]->WorkLocal[13], bit_index_work_offset=3*, condition_work_offset=1*)
 42: 0x00D8 [0x03] Work_Zone[4] = ExtData[1]->WorkLocal[7]
 43: 0x00DD [0x0B] ExtData[1]->WorkLocal[16]++
 44: 0x00E0 [0x02] IF !(ExtData[1]->WorkLocal[8] <= 0*) GOTO 0x00F7
 45: 0x00E8 [0x3D] CLEAR_BIT_FLAG_CONDITIONAL(target_work_offset=ExtData[1]->WorkLocal[13], bit_index_work_offset=4*, condition_work_offset=1*)
 46: 0x00EF [0x03] Work_Zone[5] = ExtData[1]->WorkLocal[8]
 47: 0x00F4 [0x0B] ExtData[1]->WorkLocal[16]++
 48: 0x00F7 [0x02] IF !(ExtData[1]->WorkLocal[9] <= 0*) GOTO 0x010E
 49: 0x00FF [0x3D] CLEAR_BIT_FLAG_CONDITIONAL(target_work_offset=ExtData[1]->WorkLocal[13], bit_index_work_offset=5*, condition_work_offset=1*)
 50: 0x0106 [0x03] Work_Zone[6] = ExtData[1]->WorkLocal[9]
 51: 0x010B [0x0B] ExtData[1]->WorkLocal[16]++
 52: 0x010E [0x02] IF !(ExtData[1]->WorkLocal[10] <= 0*) GOTO 0x0125
 53: 0x0116 [0x3D] CLEAR_BIT_FLAG_CONDITIONAL(target_work_offset=ExtData[1]->WorkLocal[13], bit_index_work_offset=6*, condition_work_offset=1*)
 54: 0x011D [0x03] Work_Zone[7] = ExtData[1]->WorkLocal[10]
 55: 0x0122 [0x0B] ExtData[1]->WorkLocal[16]++
 56: 0x0125 [0x01] GOTO 0x013F
 57: 0x0128 [0x02] IF !(ExtData[1]->WorkLocal[5] <= 0*) GOTO 0x013F
 58: 0x0130 [0x3D] CLEAR_BIT_FLAG_CONDITIONAL(target_work_offset=ExtData[1]->WorkLocal[13], bit_index_work_offset=1*, condition_work_offset=1*)
 59: 0x0137 [0x03] Work_Zone[2] = ExtData[1]->WorkLocal[5]
 60: 0x013C [0x0B] ExtData[1]->WorkLocal[16]++

SUBROUTINE_013F:
 61: 0x013F [0x02] IF !(ExtData[1]->WorkLocal[16] <= 0*) GOTO 0x0318
 62: 0x0147 [0x03] ExtData[1]->WorkLocal[17] = 0*
 63: 0x014C [0x03] ExtData[1]->WorkLocal[18] = 0*
 64: 0x0151 [0x3D] CLEAR_BIT_FLAG_CONDITIONAL(target_work_offset=ExtData[1]->WorkLocal[13], bit_index_work_offset=7*, condition_work_offset=1*)
 65: 0x0158 [0x24] CREATE_DIALOG(message_id=6376*, default_option=0*, option_flags=ExtData[1]->WorkLocal[13])
    → "Obtain which treasure? [None./#./$1./$2./$3./$4./$5./Dispose of the chest.]"
 66: 0x015F [0x25] WAIT_DIALOG_SELECT()
 67: 0x0160 [0x02] IF !(Work_Zone[0] == 0*) GOTO 0x0178
 68: 0x0168 [0x03] ExtData[1]->WorkLocal[17] = 0*
 69: 0x016D [0x03] ExtData[1]->WorkLocal[18] = 0*
 70: 0x0172 [0x06] ExtData[1]->WorkLocal[15] = 0
 71: 0x0175 [0x01] GOTO 0x0229
 72: 0x0178 [0x02] IF !(Work_Zone[0] == 1*) GOTO 0x019C
 73: 0x0180 [0x03] ExtData[1]->WorkLocal[17] = 1*
 74: 0x0185 [0x03] ExtData[1]->WorkLocal[18] = ExtData[1]->WorkLocal[5]
 75: 0x018A [0x03] ExtData[1]->WorkLocal[19] = ExtData[1]->WorkLocal[6]
 76: 0x018F [0x03] ExtData[1]->WorkLocal[20] = ExtData[1]->WorkLocal[7]
 77: 0x0194 [0x03] ExtData[1]->WorkLocal[21] = ExtData[1]->WorkLocal[8]
 78: 0x0199 [0x01] GOTO 0x0229
 79: 0x019C [0x02] IF !(Work_Zone[0] == 2*) GOTO 0x01B1
 80: 0x01A4 [0x03] ExtData[1]->WorkLocal[17] = 2*
 81: 0x01A9 [0x03] ExtData[1]->WorkLocal[18] = ExtData[1]->WorkLocal[6]
 82: 0x01AE [0x01] GOTO 0x0229
 83: 0x01B1 [0x02] IF !(Work_Zone[0] == 3*) GOTO 0x01C6
 84: 0x01B9 [0x03] ExtData[1]->WorkLocal[17] = 3*
 85: 0x01BE [0x03] ExtData[1]->WorkLocal[18] = ExtData[1]->WorkLocal[7]
 86: 0x01C3 [0x01] GOTO 0x0229
 87: 0x01C6 [0x02] IF !(Work_Zone[0] == 4*) GOTO 0x01DB
 88: 0x01CE [0x03] ExtData[1]->WorkLocal[17] = 4*
 89: 0x01D3 [0x03] ExtData[1]->WorkLocal[18] = ExtData[1]->WorkLocal[8]
 90: 0x01D8 [0x01] GOTO 0x0229
 91: 0x01DB [0x02] IF !(Work_Zone[0] == 5*) GOTO 0x01F0
 92: 0x01E3 [0x03] ExtData[1]->WorkLocal[17] = 5*
 93: 0x01E8 [0x03] ExtData[1]->WorkLocal[18] = ExtData[1]->WorkLocal[9]
 94: 0x01ED [0x01] GOTO 0x0229
 95: 0x01F0 [0x02] IF !(Work_Zone[0] == 6*) GOTO 0x0205
 96: 0x01F8 [0x03] ExtData[1]->WorkLocal[17] = 6*
 97: 0x01FD [0x03] ExtData[1]->WorkLocal[18] = ExtData[1]->WorkLocal[10]
 98: 0x0202 [0x01] GOTO 0x0229
 99: 0x0205 [0x02] IF !(Work_Zone[0] == 7*) GOTO 0x0229
100: 0x020D [0x03] ExtData[1]->WorkLocal[17] = 7*
101: 0x0212 [0x03] ExtData[1]->WorkLocal[18] = 0*
102: 0x0217 [0x03] ExtData[1]->WorkLocal[19] = 0*
103: 0x021C [0x03] ExtData[1]->WorkLocal[20] = 0*
104: 0x0221 [0x03] ExtData[1]->WorkLocal[21] = 0*
105: 0x0226 [0x01] GOTO 0x0229

SUBROUTINE_0229:
106: 0x0229 [0x02] IF !(ExtData[1]->WorkLocal[17] <= 0*) GOTO 0x0315
107: 0x0231 [0x02] IF !(ExtData[1]->WorkLocal[17] == 7*) GOTO 0x02E2
108: 0x0239 [0x02] IF !(ExtData[1]->WorkLocal[17] == 1*) GOTO 0x0295
109: 0x0241 [0x02] IF !(ExtData[1]->WorkLocal[18] <= 0*) GOTO 0x0292
110: 0x0249 [0xCC] ITEM_INFO_WINDOW_HANDLER(case=0x01 - Open item info window (with chase), check_value=ExtData[1]->WorkLocal[18], buffer1=ExtData[1]->WorkLocal[19], buffer2=ExtData[1]->WorkLocal[20], buffer3=ExtData[1]->WorkLocal[21])
111: 0x0253 [0x48] [System] [6378*]:
    → "Truly obtain that treasure?"
112: 0x0256 [0x23] WAIT_FOR_DIALOG_INTERACTION
113: 0x0257 [0x93] DISPLAY_ITEM_INFO(item_id=0*)
114: 0x025A [0x03] Work_Zone[2] = ExtData[1]->WorkLocal[18]
115: 0x025F [0x24] CREATE_DIALOG(message_id=6377*, default_option=1*, option_flags=0*)
    → "Obtain the $0? [Yes./No.]"
116: 0x0266 [0x25] WAIT_DIALOG_SELECT()
117: 0x0267 [0x02] IF !(Work_Zone[0] == 0*) GOTO 0x0287
118: 0x026F [0x40] SET_BIT_WORK_RANGE(start_bit=0*, end_bit=15*, target=Work_Zone[1], source=1*)
119: 0x0278 [0x40] SET_BIT_WORK_RANGE(start_bit=16*, end_bit=31*, target=Work_Zone[1], source=ExtData[1]->WorkLocal[17])
120: 0x0281 [0x06] ExtData[1]->WorkLocal[15] = 0
121: 0x0284 [0x01] GOTO 0x0292
122: 0x0287 [0x02] IF !(Work_Zone[0] == 1*) GOTO 0x0292
123: 0x028F [0x01] GOTO 0x0292

SUBROUTINE_0292:
124: 0x0292 [0x01] GOTO 0x02DF
125: 0x0295 [0x02] IF !(ExtData[1]->WorkLocal[18] <= 0*) GOTO 0x02DF
126: 0x029D [0x93] DISPLAY_ITEM_INFO(item_id=ExtData[1]->WorkLocal[18])
127: 0x02A0 [0x48] [System] [6378*]:
    → "Truly obtain that treasure?"
128: 0x02A3 [0x23] WAIT_FOR_DIALOG_INTERACTION
129: 0x02A4 [0x93] DISPLAY_ITEM_INFO(item_id=0*)
130: 0x02A7 [0x03] Work_Zone[2] = ExtData[1]->WorkLocal[18]
131: 0x02AC [0x24] CREATE_DIALOG(message_id=6377*, default_option=1*, option_flags=0*)
    → "Obtain the $0? [Yes./No.]"
132: 0x02B3 [0x25] WAIT_DIALOG_SELECT()
133: 0x02B4 [0x02] IF !(Work_Zone[0] == 0*) GOTO 0x02D4
134: 0x02BC [0x40] SET_BIT_WORK_RANGE(start_bit=0*, end_bit=15*, target=Work_Zone[1], source=1*)
135: 0x02C5 [0x40] SET_BIT_WORK_RANGE(start_bit=16*, end_bit=31*, target=Work_Zone[1], source=ExtData[1]->WorkLocal[17])
136: 0x02CE [0x06] ExtData[1]->WorkLocal[15] = 0
137: 0x02D1 [0x01] GOTO 0x02DF
138: 0x02D4 [0x02] IF !(Work_Zone[0] == 1*) GOTO 0x02DF
139: 0x02DC [0x01] GOTO 0x02DF

SUBROUTINE_02DF:
140: 0x02DF [0x01] GOTO 0x0315
141: 0x02E2 [0x24] CREATE_DIALOG(message_id=6384*, default_option=1*, option_flags=0*)
    → "Truly dispose of the chest? [Yes./No.]"
142: 0x02E9 [0x25] WAIT_DIALOG_SELECT()
143: 0x02EA [0x02] IF !(Work_Zone[0] == 0*) GOTO 0x030A
144: 0x02F2 [0x40] SET_BIT_WORK_RANGE(start_bit=0*, end_bit=15*, target=Work_Zone[1], source=2*)
145: 0x02FB [0x40] SET_BIT_WORK_RANGE(start_bit=16*, end_bit=31*, target=Work_Zone[1], source=ExtData[1]->WorkLocal[17])
146: 0x0304 [0x06] ExtData[1]->WorkLocal[15] = 0
147: 0x0307 [0x01] GOTO 0x0315
148: 0x030A [0x02] IF !(Work_Zone[0] == 1*) GOTO 0x0315
149: 0x0312 [0x01] GOTO 0x0315

SUBROUTINE_0315:
150: 0x0315 [0x01] GOTO 0x031B
151: 0x0318 [0x06] ExtData[1]->WorkLocal[15] = 0

SUBROUTINE_031B:
152: 0x031B [0x01] GOTO 0x0054
153: 0x031E [0x21] END_EVENT
154: 0x031F [0x00] END_REQSTACK()
```
