# 17236386

## Common Data

| Field            | Value               |
|------------------|---------------------|
| Zone             | Xarcabard (ID: 112) |
| Block Size       | 240 bytes           |
| Total Events     | 10                  |
| References Count | 19                  |

## List of Events

| Event ID                 | Entrypoint   |   Size |   Instructions |
|--------------------------|--------------|--------|----------------|
| [65535](#event-65535)    | 0x0000       |      1 |              1 |
| [62](#event-62)          | 0x0001       |      7 |              2 |
| [65535.1](#event-655351) | 0x0008       |     14 |              4 |
| [65535.2](#event-655352) | 0x0016       |     14 |              4 |
| [65535.3](#event-655353) | 0x0024       |     10 |              2 |
| [65535.4](#event-655354) | 0x002E       |     10 |              2 |
| [66](#event-66)          | 0x0038       |      7 |              2 |
| [65535.5](#event-655355) | 0x003F       |     14 |              4 |
| [65535.6](#event-655356) | 0x004D       |     14 |              4 |
| [65535.7](#event-655357) | 0x005B       |     14 |              4 |

## DAT References (imed_data)

|   Index | Hex Value   |   Dec Value |
|---------|-------------|-------------|
|       0 | 0x89702     |      562946 |
|       1 | 0xFFFBC793  |  4294690707 |
|       2 | 0x01F4      |         500 |
|       3 | 0x0D6A      |        3434 |
|       4 | 0x88EEA     |      560874 |
|       5 | 0xFFFBBE41  |  4294688321 |
|       6 | 0x0C83      |        3203 |
|       7 | 0x0000      |           0 |
|       8 | 0x0001      |           1 |
|       9 | 0x09A0      |        2464 |
|      10 | 0x8986F     |      563311 |
|      11 | 0xFFFBC1C0  |  4294689216 |
|      12 | 0x0070      |         112 |
|      13 | 0x02B5      |         693 |
|      14 | 0x8A1C9     |      565705 |
|      15 | 0xFFFBB8BF  |  4294686911 |
|      16 | 0x0069      |         105 |
|      17 | 0x89E87     |      564871 |
|      18 | 0xFFFBAE8B  |  4294684299 |

## Events

### Event 65535

#### Metadata

| Field        | Value   |
|--------------|---------|
| Entrypoint   | 0x0000  |
| Data Size    | 1 bytes |
| Instructions | 1       |

```
      00 01 02 03 04 05 06 07  08 09 0A 0B 0C 0D 0E 0F
      -- -- -- -- -- -- -- --  -- -- -- -- -- -- -- --
0000: 00                                                .               
```

#### Opcodes

```
  0: 0x0000 [0x00] END_REQSTACK()
```

### Event 62

#### Metadata

| Field        | Value   |
|--------------|---------|
| Entrypoint   | 0x0001  |
| Data Size    | 7 bytes |
| Instructions | 2       |

```
      00 01 02 03 04 05 06 07  08 09 0A 0B 0C 0D 0E 0F
      -- -- -- -- -- -- -- --  -- -- -- -- -- -- -- --
0000:    92 01 F8 FF FF 7F 00                            .......        
```

#### Opcodes

```
  0: 0x0001 [0x92] EventEntity->Render.Flags3 ^= 0x01
  1: 0x0007 [0x00] END_REQSTACK()
```

### Event 65535.1

#### Metadata

| Field        | Value    |
|--------------|----------|
| Entrypoint   | 0x0008   |
| Data Size    | 14 bytes |
| Instructions | 4        |

```
      00 01 02 03 04 05 06 07  08 09 0A 0B 0C 0D 0E 0F
      -- -- -- -- -- -- -- --  -- -- -- -- -- -- -- --
0000:                          33 01 37 00 80 01 80 02          3.7.....
0010: 80 03 80 22 00 00                                 ..."..          
```

#### Opcodes

```
  0: 0x0008 [0x33] EventEntity->Render.Flags0 |= 0x200000 // Bit 21 (flag=0x01)
  1: 0x000A [0x37] UPDATE_EVENT_POSITION_AND_DIR: x=562.946*, z=-276.589*, y=0.500*, direction=301.8°*
  2: 0x0013 [0x22] ENTITY_HIDE_FLAG(enabled=0x00)
  3: 0x0015 [0x00] END_REQSTACK()
```

### Event 65535.2

#### Metadata

| Field        | Value    |
|--------------|----------|
| Entrypoint   | 0x0016   |
| Data Size    | 14 bytes |
| Instructions | 4        |

```
      00 01 02 03 04 05 06 07  08 09 0A 0B 0C 0D 0E 0F
      -- -- -- -- -- -- -- --  -- -- -- -- -- -- -- --
0010:                   33 01  37 04 80 05 80 02 80 06        3.7.......
0020: 80 22 00 00                                       ."..            
```

#### Opcodes

```
  0: 0x0016 [0x33] EventEntity->Render.Flags0 |= 0x200000 // Bit 21 (flag=0x01)
  1: 0x0018 [0x37] UPDATE_EVENT_POSITION_AND_DIR: x=560.874*, z=-278.975*, y=0.500*, direction=281.5°*
  2: 0x0021 [0x22] ENTITY_HIDE_FLAG(enabled=0x00)
  3: 0x0023 [0x00] END_REQSTACK()
```

### Event 65535.3

#### Metadata

| Field        | Value    |
|--------------|----------|
| Entrypoint   | 0x0024   |
| Data Size    | 10 bytes |
| Instructions | 2        |

```
      00 01 02 03 04 05 06 07  08 09 0A 0B 0C 0D 0E 0F
      -- -- -- -- -- -- -- --  -- -- -- -- -- -- -- --
0020:             6C F8 FF FF  7F 07 80 08 80 00            l.........  
```

#### Opcodes

```
  0: 0x0024 [0x6C] FADE_ENTITY_COLOR(entity_id=EventEntity, end_alpha=0*, fade_time=1*)
  1: 0x002D [0x00] END_REQSTACK()
```

### Event 65535.4

#### Metadata

| Field        | Value    |
|--------------|----------|
| Entrypoint   | 0x002E   |
| Data Size    | 10 bytes |
| Instructions | 2        |

```
      00 01 02 03 04 05 06 07  08 09 0A 0B 0C 0D 0E 0F
      -- -- -- -- -- -- -- --  -- -- -- -- -- -- -- --
0020:                                            37 07                7.
0030: 80 07 80 07 80 09 80 00                           ........        
```

#### Opcodes

```
  0: 0x002E [0x37] UPDATE_EVENT_POSITION_AND_DIR: x=0.000*, z=0.000*, y=0.000*, direction=216.6°*
  1: 0x0037 [0x00] END_REQSTACK()
```

### Event 66

#### Metadata

| Field        | Value   |
|--------------|---------|
| Entrypoint   | 0x0038  |
| Data Size    | 7 bytes |
| Instructions | 2       |

```
      00 01 02 03 04 05 06 07  08 09 0A 0B 0C 0D 0E 0F
      -- -- -- -- -- -- -- --  -- -- -- -- -- -- -- --
0030:                          92 01 F8 FF FF 7F 00             ....... 
```

#### Opcodes

```
  0: 0x0038 [0x92] EventEntity->Render.Flags3 ^= 0x01
  1: 0x003E [0x00] END_REQSTACK()
```

### Event 65535.5

#### Metadata

| Field        | Value    |
|--------------|----------|
| Entrypoint   | 0x003F   |
| Data Size    | 14 bytes |
| Instructions | 4        |

```
      00 01 02 03 04 05 06 07  08 09 0A 0B 0C 0D 0E 0F
      -- -- -- -- -- -- -- --  -- -- -- -- -- -- -- --
0030:                                               33                 3
0040: 01 37 0A 80 0B 80 0C 80  0D 80 22 00 00           .7........"..   
```

#### Opcodes

```
  0: 0x003F [0x33] EventEntity->Render.Flags0 |= 0x200000 // Bit 21 (flag=0x01)
  1: 0x0041 [0x37] UPDATE_EVENT_POSITION_AND_DIR: x=563.311*, z=-278.080*, y=0.112*, direction=60.9°*
  2: 0x004A [0x22] ENTITY_HIDE_FLAG(enabled=0x00)
  3: 0x004C [0x00] END_REQSTACK()
```

### Event 65535.6

#### Metadata

| Field        | Value    |
|--------------|----------|
| Entrypoint   | 0x004D   |
| Data Size    | 14 bytes |
| Instructions | 4        |

```
      00 01 02 03 04 05 06 07  08 09 0A 0B 0C 0D 0E 0F
      -- -- -- -- -- -- -- --  -- -- -- -- -- -- -- --
0040:                                         33 01 37               3.7
0050: 0E 80 0F 80 10 80 0D 80  22 00 00                 ........"..     
```

#### Opcodes

```
  0: 0x004D [0x33] EventEntity->Render.Flags0 |= 0x200000 // Bit 21 (flag=0x01)
  1: 0x004F [0x37] UPDATE_EVENT_POSITION_AND_DIR: x=565.705*, z=-280.385*, y=0.105*, direction=60.9°*
  2: 0x0058 [0x22] ENTITY_HIDE_FLAG(enabled=0x00)
  3: 0x005A [0x00] END_REQSTACK()
```

### Event 65535.7

#### Metadata

| Field        | Value    |
|--------------|----------|
| Entrypoint   | 0x005B   |
| Data Size    | 14 bytes |
| Instructions | 4        |

```
      00 01 02 03 04 05 06 07  08 09 0A 0B 0C 0D 0E 0F
      -- -- -- -- -- -- -- --  -- -- -- -- -- -- -- --
0050:                                   33 01 37 11 80             3.7..
0060: 12 80 0C 80 0D 80 22 00  00                       ......"..       
```

#### Opcodes

```
  0: 0x005B [0x33] EventEntity->Render.Flags0 |= 0x200000 // Bit 21 (flag=0x01)
  1: 0x005D [0x37] UPDATE_EVENT_POSITION_AND_DIR: x=564.871*, z=-282.997*, y=0.112*, direction=60.9°*
  2: 0x0066 [0x22] ENTITY_HIDE_FLAG(enabled=0x00)
  3: 0x0068 [0x00] END_REQSTACK()
```
