# 17236418

## Common Data

| Field            | Value               |
|------------------|---------------------|
| Zone             | Xarcabard (ID: 112) |
| Block Size       | 216 bytes           |
| Total Events     | 8                   |
| References Count | 14                  |

## List of Events

| Event ID                 | Entrypoint   |   Size |   Instructions |
|--------------------------|--------------|--------|----------------|
| [65535](#event-65535)    | 0x0000       |      1 |              1 |
| [68](#event-68)          | 0x0001       |      7 |              2 |
| [65535.1](#event-655351) | 0x0008       |     21 |              2 |
| [65535.2](#event-655352) | 0x001D       |     21 |              2 |
| [65535.3](#event-655353) | 0x0032       |     21 |              2 |
| [65535.4](#event-655354) | 0x0047       |     21 |              2 |
| [65535.5](#event-655355) | 0x005C       |     10 |              2 |
| [65535.6](#event-655356) | 0x0066       |     10 |              2 |

## DAT References (imed_data)

|   Index | Hex Value   |   Dec Value |
|---------|-------------|-------------|
|       0 | 0x0006      |           6 |
|       1 | 0x0000      |           0 |
|       2 | 0x0013      |          19 |
|       3 | 0x0002      |           2 |
|       4 | 0x0014      |          20 |
|       5 | 0x0068      |         104 |
|       6 | 0x0008      |           8 |
|       7 | 0x000A      |          10 |
|       8 | 0x0005      |           5 |
|       9 | 0x0017      |          23 |
|      10 | 0x0015      |          21 |
|      11 | 0x0016      |          22 |
|      12 | 0x0001      |           1 |
|      13 | 0x0080      |         128 |

## Events

### Event 65535

#### Metadata

| Field        | Value   |
|--------------|---------|
| Entrypoint   | 0x0000  |
| Data Size    | 1 bytes |
| Instructions | 1       |

```
      00 01 02 03 04 05 06 07  08 09 0A 0B 0C 0D 0E 0F
      -- -- -- -- -- -- -- --  -- -- -- -- -- -- -- --
0000: 00                                                .               
```

#### Opcodes

```
  0: 0x0000 [0x00] END_REQSTACK()
```

### Event 68

#### Metadata

| Field        | Value   |
|--------------|---------|
| Entrypoint   | 0x0001  |
| Data Size    | 7 bytes |
| Instructions | 2       |

```
      00 01 02 03 04 05 06 07  08 09 0A 0B 0C 0D 0E 0F
      -- -- -- -- -- -- -- --  -- -- -- -- -- -- -- --
0000:    92 01 F8 FF FF 7F 00                            .......        
```

#### Opcodes

```
  0: 0x0001 [0x92] EventEntity->Render.Flags3 ^= 0x01
  1: 0x0007 [0x00] END_REQSTACK()
```

### Event 65535.1

#### Metadata

| Field        | Value    |
|--------------|----------|
| Entrypoint   | 0x0008   |
| Data Size    | 21 bytes |
| Instructions | 2        |

```
      00 01 02 03 04 05 06 07  08 09 0A 0B 0C 0D 0E 0F
      -- -- -- -- -- -- -- --  -- -- -- -- -- -- -- --
0000:                          B6 0B 00 80 01 80 01 80          ........
0010: 02 80 02 80 02 80 02 80  01 80 01 80 00           .............   
```

#### Opcodes

```
  0: 0x0008 [0xB6] ENTITY_APPEARANCE_HANDLER(case=Full entity look, race=6*, hair=0*, head=0*, body=19*, hands=19*, legs=19*, feet=19*, main=0*, sub=0*)
  1: 0x001C [0x00] END_REQSTACK()
```

### Event 65535.2

#### Metadata

| Field        | Value    |
|--------------|----------|
| Entrypoint   | 0x001D   |
| Data Size    | 21 bytes |
| Instructions | 2        |

```
      00 01 02 03 04 05 06 07  08 09 0A 0B 0C 0D 0E 0F
      -- -- -- -- -- -- -- --  -- -- -- -- -- -- -- --
0010:                                         B6 0B 03               ...
0020: 80 03 80 01 80 04 80 05  80 06 80 07 80 01 80 01  ................
0030: 80 00                                             ..              
```

#### Opcodes

```
  0: 0x001D [0xB6] ENTITY_APPEARANCE_HANDLER(case=Full entity look, race=2*, hair=2*, head=0*, body=20*, hands=104*, legs=8*, feet=10*, main=0*, sub=0*)
  1: 0x0031 [0x00] END_REQSTACK()
```

### Event 65535.3

#### Metadata

| Field        | Value    |
|--------------|----------|
| Entrypoint   | 0x0032   |
| Data Size    | 21 bytes |
| Instructions | 2        |

```
      00 01 02 03 04 05 06 07  08 09 0A 0B 0C 0D 0E 0F
      -- -- -- -- -- -- -- --  -- -- -- -- -- -- -- --
0030:       B6 0B 06 80 08 80  04 80 09 80 0A 80 0B 80    ..............
0040: 02 80 01 80 01 80 00                              .......         
```

#### Opcodes

```
  0: 0x0032 [0xB6] ENTITY_APPEARANCE_HANDLER(case=Full entity look, race=8*, hair=5*, head=20*, body=23*, hands=21*, legs=22*, feet=19*, main=0*, sub=0*)
  1: 0x0046 [0x00] END_REQSTACK()
```

### Event 65535.4

#### Metadata

| Field        | Value    |
|--------------|----------|
| Entrypoint   | 0x0047   |
| Data Size    | 21 bytes |
| Instructions | 2        |

```
      00 01 02 03 04 05 06 07  08 09 0A 0B 0C 0D 0E 0F
      -- -- -- -- -- -- -- --  -- -- -- -- -- -- -- --
0040:                      B6  0B 0C 80 01 80 01 80 01         .........
0050: 80 01 80 01 80 01 80 01  80 01 80 00              ............    
```

#### Opcodes

```
  0: 0x0047 [0xB6] ENTITY_APPEARANCE_HANDLER(case=Full entity look, race=1*, hair=0*, head=0*, body=0*, hands=0*, legs=0*, feet=0*, main=0*, sub=0*)
  1: 0x005B [0x00] END_REQSTACK()
```

### Event 65535.5

#### Metadata

| Field        | Value    |
|--------------|----------|
| Entrypoint   | 0x005C   |
| Data Size    | 10 bytes |
| Instructions | 2        |

```
      00 01 02 03 04 05 06 07  08 09 0A 0B 0C 0D 0E 0F
      -- -- -- -- -- -- -- --  -- -- -- -- -- -- -- --
0050:                                      6C F8 FF FF              l...
0060: 7F 01 80 0C 80 00                                 ......          
```

#### Opcodes

```
  0: 0x005C [0x6C] FADE_ENTITY_COLOR(entity_id=EventEntity, end_alpha=0*, fade_time=1*)
  1: 0x0065 [0x00] END_REQSTACK()
```

### Event 65535.6

#### Metadata

| Field        | Value    |
|--------------|----------|
| Entrypoint   | 0x0066   |
| Data Size    | 10 bytes |
| Instructions | 2        |

```
      00 01 02 03 04 05 06 07  08 09 0A 0B 0C 0D 0E 0F
      -- -- -- -- -- -- -- --  -- -- -- -- -- -- -- --
0060:                   6C F8  FF FF 7F 0D 80 0C 80 00        l.........
```

#### Opcodes

```
  0: 0x0066 [0x6C] FADE_ENTITY_COLOR(entity_id=EventEntity, end_alpha=128*, fade_time=1*)
  1: 0x006F [0x00] END_REQSTACK()
```
