# 17236350

## Common Data

| Field            | Value               |
|------------------|---------------------|
| Zone             | Xarcabard (ID: 112) |
| Block Size       | 2952 bytes          |
| Total Events     | 3                   |
| References Count | 56                  |

## List of Events

| Event ID              | Entrypoint   |   Size |   Instructions |
|-----------------------|--------------|--------|----------------|
| [65535](#event-65535) | 0x0000       |      1 |              1 |
| [44](#event-44)       | 0x0001       |   1617 |            192 |
| [46](#event-46)       | 0x0652       |   1081 |            111 |

## DAT References (imed_data)

|   Index | Hex Value   |   Dec Value |
|---------|-------------|-------------|
|       0 | 0x0000      |           0 |
|       1 | 0x0013      |          19 |
|       2 | 0x0002      |           2 |
|       3 | 0x001E      |          30 |
|       4 | 0x19B8D     |      105357 |
|       5 | 0xFFFE39F4  |  4294851060 |
|       6 | 0xFFFFA4D4  |  4294943956 |
|       7 | 0x0608      |        1544 |
|       8 | 0x000F      |          15 |
|       9 | 0x054A      |        1354 |
|      10 | 0x052B      |        1323 |
|      11 | 0x017C      |         380 |
|      12 | 0x00B4      |         180 |
|      13 | 0x00F0      |         240 |
|      14 | 0x003C      |          60 |
|      15 | 0x1FA6      |        8102 |
|      16 | 0x005A      |          90 |
|      17 | 0x007F      |         127 |
|      18 | 0x1FA8      |        8104 |
|      19 | 0x1FA9      |        8105 |
|      20 | 0x1FAA      |        8106 |
|      21 | 0x0001      |           1 |
|      22 | 0x0003      |           3 |
|      23 | 0x0004      |           4 |
|      24 | 0x0005      |           5 |
|      25 | 0x0006      |           6 |
|      26 | 0x0007      |           7 |
|      27 | 0x0008      |           8 |
|      28 | 0x1FAB      |        8107 |
|      29 | 0x1FAC      |        8108 |
|      30 | 0x0078      |         120 |
|      31 | 0x1FAD      |        8109 |
|      32 | 0x1FAE      |        8110 |
|      33 | 0x1FAF      |        8111 |
|      34 | 0x05C2      |        1474 |
|      35 | 0x1FB0      |        8112 |
|      36 | 0x00A9      |         169 |
|      37 | 0x1FB1      |        8113 |
|      38 | 0x1FB2      |        8114 |
|      39 | 0x09FD      |        2557 |
|      40 | 0x1FB3      |        8115 |
|      41 | 0x1FB4      |        8116 |
|      42 | 0x1FB5      |        8117 |
|      43 | 0x012C      |         300 |
|      44 | 0x00A4      |         164 |
|      45 | 0x0065      |         101 |
|      46 | 0x0067      |         103 |
|      47 | 0x00C8      |         200 |
|      48 | 0x1CEF8     |      118520 |
|      49 | 0xFFFE32E7  |  4294849255 |
|      50 | 0xFFFF9007  |  4294938631 |
|      51 | 0x000B      |          11 |
|      52 | 0x0096      |         150 |
|      53 | 0x00C9      |         201 |
|      54 | 0x002D      |          45 |
|      55 | 0x00D7      |         215 |

## Events

### Event 65535

#### Metadata

| Field        | Value   |
|--------------|---------|
| Entrypoint   | 0x0000  |
| Data Size    | 1 bytes |
| Instructions | 1       |

```
      00 01 02 03 04 05 06 07  08 09 0A 0B 0C 0D 0E 0F
      -- -- -- -- -- -- -- --  -- -- -- -- -- -- -- --
0000: 00                                                .               
```

#### Opcodes

```
  0: 0x0000 [0x00] END_REQSTACK()
```

### Event 44

#### Metadata

| Field        | Value      |
|--------------|------------|
| Entrypoint   | 0x0001     |
| Data Size    | 1617 bytes |
| Instructions | 192        |

```
      00 01 02 03 04 05 06 07  08 09 0A 0B 0C 0D 0E 0F
      -- -- -- -- -- -- -- --  -- -- -- -- -- -- -- --
0000:    42 5C 00 00 80 5C 01  00 80 5C 02 00 80 5C 03   B\...\...\...\.
0010: 00 80 1A 5D 08 46 01 38  01 80 4E 00 F0 FF FF 7F  ...].F.8..N.....
0020: 77 02 80 01 80 1C 03 80  AB 09 27 10 7F 01 07 01  w.........'.....
0030: 04 27 10 80 01 07 01 04  92 01 7F 01 07 01 94 01  .'..............
0040: F0 FF FF 7F 94 01 7F 01  07 01 94 01 80 01 07 01  ................
0050: 94 01 81 01 07 01 BA F0  FF FF 7F 04 80 05 80 06  ................
0060: 80 07 80 29 10 7F 01 07  01 0A 29 10 80 01 07 01  ...)......).....
0070: 0A 80 F0 FF FF 7F 80 7F  01 07 01 80 80 01 07 01  ................
0080: 80 81 01 07 01 1C 08 80  5B 09 80 7F 01 07 01 7F  ........[.......
0090: 01 07 01 67 65 6E 30 5B  0A 80 80 01 07 01 80 01  ...gen0[........
00A0: 07 01 67 65 6E 30 45 0B  80 F0 FF FF 7F F0 FF FF  ..gen0E.........
00B0: 7F 78 72 31 30 00 80 1A  3C 08 1C 0C 80 52 0B 80  .xr10...<....R..
00C0: F0 FF FF 7F F0 FF FF 7F  78 72 31 30 45 0B 80 F0  ........xr10E...
00D0: FF FF 7F F0 FF FF 7F 78  72 30 30 00 80 1C 0D 80  .......xr00.....
00E0: 52 0B 80 F0 FF FF 7F F0  FF FF 7F 78 72 30 30 45  R..........xr00E
00F0: 0B 80 F0 FF FF 7F F0 FF  FF 7F 78 72 30 31 00 80  ..........xr01..
0100: 1C 0E 80 2B 7C 01 07 01  0F 80 23 4A F0 FF FF 7F  ...+|.....#J....
0110: 7F 01 07 01 6F 76 F0 FF  FF 7F 27 10 F0 FF FF 7F  ....ov....'.....
0120: 2C 1C 10 80 52 0B 80 F0  FF FF 7F F0 FF FF 7F 78  ,...R..........x
0130: 72 30 31 45 0B 80 F0 FF  FF 7F F0 FF FF 7F 78 72  r01E..........xr
0140: 30 32 00 80 1C 03 80 5C  00 11 80 5C 01 11 80 5C  02.....\...\...\
0150: 02 11 80 5C 03 11 80 9A  52 0B 80 F0 FF FF 7F F0  ...\....R.......
0160: FF FF 7F 78 72 30 32 45  0B 80 F0 FF FF 7F F0 FF  ...xr02E........
0170: FF 7F 78 72 30 33 00 80  5B 09 80 7F 01 07 01 7F  ..xr03..[.......
0180: 01 07 01 67 65 6E 31 5B  0A 80 80 01 07 01 80 01  ...gen1[........
0190: 07 01 67 65 6E 31 1C 0E  80 2B 7F 01 07 01 12 80  ..gen1...+......
01A0: 23 2B 7F 01 07 01 13 80  23 2B 7F 01 07 01 14 80  #+......#+......
01B0: 23 29 10 F0 FF FF 7F 2E  02 02 10 15 80 80 E3 01  #)..............
01C0: 52 0B 80 F0 FF FF 7F F0  FF FF 7F 78 72 30 33 45  R..........xr03E
01D0: 0B 80 F0 FF FF 7F F0 FF  FF 7F 78 68 6D 30 00 80  ..........xhm0..
01E0: 01 10 03 02 02 10 02 80  80 0E 02 52 0B 80 F0 FF  ...........R....
01F0: FF 7F F0 FF FF 7F 78 72  30 33 45 0B 80 F0 FF FF  ......xr03E.....
0200: 7F F0 FF FF 7F 78 68 66  30 00 80 01 10 03 02 02  .....xhf0.......
0210: 10 16 80 80 39 02 52 0B  80 F0 FF FF 7F F0 FF FF  ....9.R.........
0220: 7F 78 72 30 33 45 0B 80  F0 FF FF 7F F0 FF FF 7F  .xr03E..........
0230: 78 65 6D 30 00 80 01 10  03 02 02 10 17 80 80 64  xem0...........d
0240: 02 52 0B 80 F0 FF FF 7F  F0 FF FF 7F 78 72 30 33  .R..........xr03
0250: 45 0B 80 F0 FF FF 7F F0  FF FF 7F 78 65 66 30 00  E..........xef0.
0260: 80 01 10 03 02 02 10 18  80 80 8F 02 52 0B 80 F0  ............R...
0270: FF FF 7F F0 FF FF 7F 78  72 30 33 45 0B 80 F0 FF  .......xr03E....
0280: FF 7F F0 FF FF 7F 78 74  72 30 00 80 01 10 03 02  ......xtr0......
0290: 02 10 19 80 80 BA 02 52  0B 80 F0 FF FF 7F F0 FF  .......R........
02A0: FF 7F 78 72 30 33 45 0B  80 F0 FF FF 7F F0 FF FF  ..xr03E.........
02B0: 7F 78 74 72 30 00 80 01  10 03 02 02 10 1A 80 80  .xtr0...........
02C0: E5 02 52 0B 80 F0 FF FF  7F F0 FF FF 7F 78 72 30  ..R..........xr0
02D0: 33 45 0B 80 F0 FF FF 7F  F0 FF FF 7F 78 6D 74 30  3E..........xmt0
02E0: 00 80 01 10 03 02 02 10  1B 80 80 10 03 52 0B 80  .............R..
02F0: F0 FF FF 7F F0 FF FF 7F  78 72 30 33 45 0B 80 F0  ........xr03E...
0300: FF FF 7F F0 FF FF 7F 78  67 6C 30 00 80 01 10 03  .......xgl0.....
0310: 53 7F 01 07 01 7F 01 07  01 67 65 6E 31 5B 09 80  S........gen1[..
0320: 7F 01 07 01 7F 01 07 01  67 65 6E 30 5B 0A 80 80  ........gen0[...
0330: 01 07 01 80 01 07 01 67  65 6E 30 2B 7F 01 07 01  .......gen0+....
0340: 1C 80 23 2B 7F 01 07 01  1D 80 23 52 0B 80 F0 FF  ..#+......#R....
0350: FF 7F F0 FF FF 7F 78 68  6D 30 52 0B 80 F0 FF FF  ......xhm0R.....
0360: 7F F0 FF FF 7F 78 68 66  30 52 0B 80 F0 FF FF 7F  .....xhf0R......
0370: F0 FF FF 7F 78 65 6D 30  52 0B 80 F0 FF FF 7F F0  ....xem0R.......
0380: FF FF 7F 78 65 66 30 52  0B 80 F0 FF FF 7F F0 FF  ...xef0R........
0390: FF 7F 78 74 72 30 52 0B  80 F0 FF FF 7F F0 FF FF  ..xtr0R.........
03A0: 7F 78 6D 74 30 52 0B 80  F0 FF FF 7F F0 FF FF 7F  .xmt0R..........
03B0: 78 67 6C 30 45 0B 80 F0  FF FF 7F F0 FF FF 7F 78  xgl0E..........x
03C0: 72 30 34 00 80 5B 09 80  7F 01 07 01 7F 01 07 01  r04..[..........
03D0: 67 65 6E 32 5B 0A 80 80  01 07 01 80 01 07 01 67  gen2[..........g
03E0: 65 6E 32 1C 1E 80 2B 7F  01 07 01 1F 80 23 52 0B  en2...+......#R.
03F0: 80 F0 FF FF 7F F0 FF FF  7F 78 72 30 34 45 0B 80  .........xr04E..
0400: F0 FF FF 7F F0 FF FF 7F  78 72 30 35 00 80 2B 7F  ........xr05..+.
0410: 01 07 01 20 80 23 53 7F  01 07 01 7F 01 07 01 67  ... .#S........g
0420: 65 6E 32 5B 09 80 7F 01  07 01 7F 01 07 01 67 65  en2[..........ge
0430: 6E 33 5B 0A 80 80 01 07  01 80 01 07 01 67 65 6E  n3[..........gen
0440: 33 1C 03 80 52 0B 80 F0  FF FF 7F F0 FF FF 7F 78  3...R..........x
0450: 72 30 35 45 0B 80 F0 FF  FF 7F F0 FF FF 7F 78 72  r05E..........xr
0460: 30 36 00 80 2B 7F 01 07  01 21 80 23 53 7F 01 07  06..+....!.#S...
0470: 01 7F 01 07 01 67 65 6E  33 5B 22 80 7F 01 07 01  .....gen3[".....
0480: 7F 01 07 01 67 65 6E 34  5B 0A 80 80 01 07 01 80  ....gen4[.......
0490: 01 07 01 67 65 6E 34 1C  03 80 2B 7F 01 07 01 23  ...gen4...+....#
04A0: 80 23 52 0B 80 F0 FF FF  7F F0 FF FF 7F 78 72 30  .#R..........xr0
04B0: 36 45 0B 80 F0 FF FF 7F  F0 FF FF 7F 78 72 30 38  6E..........xr08
04C0: 00 80 1C 03 80 45 0B 80  81 01 07 01 F0 FF FF 7F  .....E..........
04D0: 73 77 70 30 00 80 BB 24  80 81 01 07 01 7F 01 07  swp0...$........
04E0: 01 73 74 30 31 00 80 1C  0C 80 2B 7F 01 07 01 25  .st01.....+....%
04F0: 80 23 2B 7F 01 07 01 26  80 23 03 02 10 27 80 2B  .#+....&.#...'.+
0500: 7F 01 07 01 28 80 23 52  0B 80 F0 FF FF 7F F0 FF  ....(.#R........
0510: FF 7F 78 72 30 38 45 0B  80 F0 FF FF 7F F0 FF FF  ..xr08E.........
0520: 7F 78 72 30 37 00 80 1C  03 80 5B 22 80 7F 01 07  .xr07.....["....
0530: 01 7F 01 07 01 67 65 6E  35 5B 0A 80 80 01 07 01  .....gen5[......
0540: 80 01 07 01 67 65 6E 35  1C 0E 80 03 02 10 27 80  ....gen5......'.
0550: 2B 7F 01 07 01 29 80 23  52 0B 80 F0 FF FF 7F F0  +....).#R.......
0560: FF FF 7F 78 72 30 37 45  0B 80 F0 FF FF 7F F0 FF  ...xr07E........
0570: FF 7F 78 72 30 39 00 80  45 0B 80 81 01 07 01 F0  ..xr09..E.......
0580: FF FF 7F 73 77 70 31 00  80 BB 24 80 81 01 07 01  ...swp1...$.....
0590: 7F 01 07 01 73 74 30 32  00 80 1C 0E 80 2B 7F 01  ....st02.....+..
05A0: 07 01 2A 80 23 5D 00 80  2B 80 45 0B 80 81 01 07  ..*.#]..+.E.....
05B0: 01 F0 FF FF 7F 73 77 70  32 00 80 BB 24 80 81 01  .....swp2...$...
05C0: 07 01 7F 01 07 01 73 74  30 33 00 80 1C 03 80 27  ......st03.....'
05D0: 10 7D 01 07 01 02 27 10  F0 FF FF 7F 2D 1C 1E 80  .}....'.....-...
05E0: 1A 9F 08 2A 10 F0 FF FF  7F 1C 1E 80 52 0B 80 F0  ...*........R...
05F0: FF FF 7F F0 FF FF 7F 78  72 30 39 45 0B 80 F0 FF  .......xr09E....
0600: FF 7F F0 FF FF 7F 30 62  6C 66 00 80 BB 24 80 81  ......0blf...$..
0610: 01 07 01 7F 01 07 01 6B  69 6C 61 00 80 1C 08 80  .......kila.....
0620: 1A 5D 08 1A 7E 08 78 1C  15 80 AB 0A 5C 00 2C 80  .]..~.x.....\.,.
0630: 5C 01 2C 80 5C 02 2D 80  5C 03 2E 80 9A 46 00 45  \.,.\.-.\....F.E
0640: 2F 80 F0 FF FF 7F F0 FF  FF 7F 66 64 69 32 00 80  /.........fdi2..
0650: 21 00                                             !.              
```

#### Opcodes

```
  0: 0x0001 [0x42] SET_CLI_EVENT_CANCEL_DATA()
  1: 0x0002 [0x5C] MUSIC_CONTROL: Set Idle (Day) music to song 0*
  2: 0x0006 [0x5C] MUSIC_CONTROL: Set Idle (Night) music to song 0*
  3: 0x000A [0x5C] MUSIC_CONTROL: Set Combat (Solo) music to song 0*
  4: 0x000E [0x5C] MUSIC_CONTROL: Set Combat (Party) music to song 0*
  5: 0x0012 [0x1A] CALL_SUBROUTINE(address=0x085D)
  6: 0x0015 [0x46] CAMERA_CONTROL: Disable user control
  7: 0x0017 [0x38] SET_CLIENT_EVENT_MODE(mode=19*)
  8: 0x001A [0x4E] SET_ENTITY_HIDE_FLAG: Show LocalPlayer
  9: 0x0020 [0x77] SET_EVENT_TIME_WEATHER(hour=2*, weather=19*)
 10: 0x0025 [0x1C] WAIT(30* ticks)
 11: 0x0028 [0xAB] EventEntity->UnknownFlag = 1 // Enable unknown flag
 12: 0x002A [0x27] REQ_SET(priority=0x10, entity_id=Schultz (ID: 17236351/0x0107017F), tag_num=0x04)
 13: 0x0031 [0x27] REQ_SET(priority=0x10, entity_id=Unnamed NPC (ID: 17236352/0x01070180), tag_num=0x04)
 14: 0x0038 [0x92] Schultz (ID: 17236351/0x0107017F)->Render.Flags3 ^= 0x01
 15: 0x003E [0x94] LocalPlayer->Render.Flags3 ^= 0x01
 16: 0x0044 [0x94] Schultz (ID: 17236351/0x0107017F)->Render.Flags3 ^= 0x01
 17: 0x004A [0x94] Unnamed NPC (ID: 17236352/0x01070180)->Render.Flags3 ^= 0x01
 18: 0x0050 [0x94] Indescript Markings (ID: 17236353/0x01070181)->Render.Flags3 ^= 0x01
 19: 0x0056 [0xBA] SET_ENTITY_POSITION(entity_id=LocalPlayer, pos_x=105.357*, pos_z=-116.236*, pos_y=-23.340*, direction=135.7°*)
 20: 0x0063 [0x29] REQ_SET_WAIT(priority=0x10, entity_id=Schultz (ID: 17236351/0x0107017F), tag_num=0x0A)
 21: 0x006A [0x29] REQ_SET_WAIT(priority=0x10, entity_id=Unnamed NPC (ID: 17236352/0x01070180), tag_num=0x0A)
 22: 0x0071 [0x80] LOAD_WAIT(entity=LocalPlayer)
 23: 0x0076 [0x80] LOAD_WAIT(entity=Schultz (ID: 17236351/0x0107017F))
 24: 0x007B [0x80] LOAD_WAIT(entity=Unnamed NPC (ID: 17236352/0x01070180))
 25: 0x0080 [0x80] LOAD_WAIT(entity=Indescript Markings (ID: 17236353/0x01070181))
 26: 0x0085 [0x1C] WAIT(15* ticks)
 27: 0x0088 [0x5B] LOAD_EXT_SCHEDULER: Load scheduler "gen0" with entities [Schultz (ID: 17236351/0x0107017F), Schultz (ID: 17236351/0x0107017F)], work=1354*
 28: 0x0097 [0x5B] LOAD_EXT_SCHEDULER: Load scheduler "gen0" with entities [Unnamed NPC (ID: 17236352/0x01070180), Unnamed NPC (ID: 17236352/0x01070180)], work=1323*
 29: 0x00A6 [0x45] LOAD_SCHEDULED_TASK: Load scheduler "xr10" with entities [LocalPlayer, LocalPlayer], work=[380*, 0*]
 30: 0x00B7 [0x1A] CALL_SUBROUTINE(address=0x083C)
 31: 0x00BA [0x1C] WAIT(180* ticks)
 32: 0x00BD [0x52] END_LOAD_SCHEDULER: End scheduler "xr10" with entities [LocalPlayer, LocalPlayer], work=380*
 33: 0x00CC [0x45] LOAD_SCHEDULED_TASK: Load scheduler "xr00" with entities [LocalPlayer, LocalPlayer], work=[380*, 0*]
 34: 0x00DD [0x1C] WAIT(240* ticks)
 35: 0x00E0 [0x52] END_LOAD_SCHEDULER: End scheduler "xr00" with entities [LocalPlayer, LocalPlayer], work=380*
 36: 0x00EF [0x45] LOAD_SCHEDULED_TASK: Load scheduler "xr01" with entities [LocalPlayer, LocalPlayer], work=[380*, 0*]
 37: 0x0100 [0x1C] WAIT(60* ticks)
 38: 0x0103 [0x2B] ??? (ID: 17236348/0x0107017C) [8102*]:
    → "<Player>! A most pleasant surprise to see you again!"
 39: 0x010A [0x23] WAIT_FOR_DIALOG_INTERACTION
 40: 0x010B [0x4A] LocalPlayer looks at Schultz (ID: 17236351/0x0107017F)
 41: 0x0114 [0x6F] WAIT_FRAME_DELAY: Yield until WaitTime reaches zero
 42: 0x0115 [0x76] CHECK_ENTITY_RENDER_FLAGS: Wait until LocalPlayer Render.Flags0 and Render.Flags3 conditions are met
 43: 0x011A [0x27] REQ_SET(priority=0x10, entity_id=LocalPlayer, tag_num=0x2C)
 44: 0x0121 [0x1C] WAIT(90* ticks)
 45: 0x0124 [0x52] END_LOAD_SCHEDULER: End scheduler "xr01" with entities [LocalPlayer, LocalPlayer], work=380*
 46: 0x0133 [0x45] LOAD_SCHEDULED_TASK: Load scheduler "xr02" with entities [LocalPlayer, LocalPlayer], work=[380*, 0*]
 47: 0x0144 [0x1C] WAIT(30* ticks)
 48: 0x0147 [0x5C] MUSIC_CONTROL: Set Idle (Day) music to song 127*
 49: 0x014B [0x5C] MUSIC_CONTROL: Set Idle (Night) music to song 127*
 50: 0x014F [0x5C] MUSIC_CONTROL: Set Combat (Solo) music to song 127*
 51: 0x0153 [0x5C] MUSIC_CONTROL: Set Combat (Party) music to song 127*
 52: 0x0157 [0x9A] WAIT_MUSIC_SERVER()
 53: 0x0158 [0x52] END_LOAD_SCHEDULER: End scheduler "xr02" with entities [LocalPlayer, LocalPlayer], work=380*
 54: 0x0167 [0x45] LOAD_SCHEDULED_TASK: Load scheduler "xr03" with entities [LocalPlayer, LocalPlayer], work=[380*, 0*]
 55: 0x0178 [0x5B] LOAD_EXT_SCHEDULER: Load scheduler "gen1" with entities [Schultz (ID: 17236351/0x0107017F), Schultz (ID: 17236351/0x0107017F)], work=1354*
 56: 0x0187 [0x5B] LOAD_EXT_SCHEDULER: Load scheduler "gen1" with entities [Unnamed NPC (ID: 17236352/0x01070180), Unnamed NPC (ID: 17236352/0x01070180)], work=1323*
 57: 0x0196 [0x1C] WAIT(60* ticks)
 58: 0x0199 [0x2B] Schultz (ID: 17236351/0x0107017F) [8104*]:
    → "What's that? Oh, you didn't think that I..."
 59: 0x01A0 [0x23] WAIT_FOR_DIALOG_INTERACTION
 60: 0x01A1 [0x2B] Schultz (ID: 17236351/0x0107017F) [8105*]:
    → "Oh, don't be ridiculous. I simply feigned my death using a classic magical technique. An old favorite of mine."
 61: 0x01A8 [0x23] WAIT_FOR_DIALOG_INTERACTION
 62: 0x01A9 [0x2B] Schultz (ID: 17236351/0x0107017F) [8106*]:
    → "The ensuing chaos certainly was most entertaining. I sure do wish that you could have been there to see it with your own eyes."
 63: 0x01B0 [0x23] WAIT_FOR_DIALOG_INTERACTION
 64: 0x01B1 [0x29] REQ_SET_WAIT(priority=0x10, entity_id=LocalPlayer, tag_num=0x2E)
 65: 0x01B8 [0x02] IF !(Work_Zone[2] == 1*) GOTO 0x01E3
 66: 0x01C0 [0x52] END_LOAD_SCHEDULER: End scheduler "xr03" with entities [LocalPlayer, LocalPlayer], work=380*
 67: 0x01CF [0x45] LOAD_SCHEDULED_TASK: Load scheduler "xhm0" with entities [LocalPlayer, LocalPlayer], work=[380*, 0*]
 68: 0x01E0 [0x01] GOTO 0x0310
 69: 0x01E3 [0x02] IF !(Work_Zone[2] == 2*) GOTO 0x020E
 70: 0x01EB [0x52] END_LOAD_SCHEDULER: End scheduler "xr03" with entities [LocalPlayer, LocalPlayer], work=380*
 71: 0x01FA [0x45] LOAD_SCHEDULED_TASK: Load scheduler "xhf0" with entities [LocalPlayer, LocalPlayer], work=[380*, 0*]
 72: 0x020B [0x01] GOTO 0x0310
 73: 0x020E [0x02] IF !(Work_Zone[2] == 3*) GOTO 0x0239
 74: 0x0216 [0x52] END_LOAD_SCHEDULER: End scheduler "xr03" with entities [LocalPlayer, LocalPlayer], work=380*
 75: 0x0225 [0x45] LOAD_SCHEDULED_TASK: Load scheduler "xem0" with entities [LocalPlayer, LocalPlayer], work=[380*, 0*]
 76: 0x0236 [0x01] GOTO 0x0310
 77: 0x0239 [0x02] IF !(Work_Zone[2] == 4*) GOTO 0x0264
 78: 0x0241 [0x52] END_LOAD_SCHEDULER: End scheduler "xr03" with entities [LocalPlayer, LocalPlayer], work=380*
 79: 0x0250 [0x45] LOAD_SCHEDULED_TASK: Load scheduler "xef0" with entities [LocalPlayer, LocalPlayer], work=[380*, 0*]
 80: 0x0261 [0x01] GOTO 0x0310
 81: 0x0264 [0x02] IF !(Work_Zone[2] == 5*) GOTO 0x028F
 82: 0x026C [0x52] END_LOAD_SCHEDULER: End scheduler "xr03" with entities [LocalPlayer, LocalPlayer], work=380*
 83: 0x027B [0x45] LOAD_SCHEDULED_TASK: Load scheduler "xtr0" with entities [LocalPlayer, LocalPlayer], work=[380*, 0*]
 84: 0x028C [0x01] GOTO 0x0310
 85: 0x028F [0x02] IF !(Work_Zone[2] == 6*) GOTO 0x02BA
 86: 0x0297 [0x52] END_LOAD_SCHEDULER: End scheduler "xr03" with entities [LocalPlayer, LocalPlayer], work=380*
 87: 0x02A6 [0x45] LOAD_SCHEDULED_TASK: Load scheduler "xtr0" with entities [LocalPlayer, LocalPlayer], work=[380*, 0*]
 88: 0x02B7 [0x01] GOTO 0x0310
 89: 0x02BA [0x02] IF !(Work_Zone[2] == 7*) GOTO 0x02E5
 90: 0x02C2 [0x52] END_LOAD_SCHEDULER: End scheduler "xr03" with entities [LocalPlayer, LocalPlayer], work=380*
 91: 0x02D1 [0x45] LOAD_SCHEDULED_TASK: Load scheduler "xmt0" with entities [LocalPlayer, LocalPlayer], work=[380*, 0*]
 92: 0x02E2 [0x01] GOTO 0x0310
 93: 0x02E5 [0x02] IF !(Work_Zone[2] == 8*) GOTO 0x0310
 94: 0x02ED [0x52] END_LOAD_SCHEDULER: End scheduler "xr03" with entities [LocalPlayer, LocalPlayer], work=380*
 95: 0x02FC [0x45] LOAD_SCHEDULED_TASK: Load scheduler "xgl0" with entities [LocalPlayer, LocalPlayer], work=[380*, 0*]
 96: 0x030D [0x01] GOTO 0x0310

SUBROUTINE_0310:
 97: 0x0310 [0x53] WAIT_SCHEDULER_TASK: Wait for scheduler "gen1" with entities [Schultz (ID: 17236351/0x0107017F), Schultz (ID: 17236351/0x0107017F)]
 98: 0x031D [0x5B] LOAD_EXT_SCHEDULER: Load scheduler "gen0" with entities [Schultz (ID: 17236351/0x0107017F), Schultz (ID: 17236351/0x0107017F)], work=1354*
 99: 0x032C [0x5B] LOAD_EXT_SCHEDULER: Load scheduler "gen0" with entities [Unnamed NPC (ID: 17236352/0x01070180), Unnamed NPC (ID: 17236352/0x01070180)], work=1323*
100: 0x033B [0x2B] Schultz (ID: 17236351/0x0107017F) [8107*]:
    → "<Sigh>... That takes me back. That must have been...what? Some twenty years ago, if I'm not mistaken."
101: 0x0342 [0x23] WAIT_FOR_DIALOG_INTERACTION
102: 0x0343 [0x2B] Schultz (ID: 17236351/0x0107017F) [8108*]:
    → "Oh, I do beg your pardon. I suppose for you it feels as though all of this occurred no more in the past than yesterday."
103: 0x034A [0x23] WAIT_FOR_DIALOG_INTERACTION
104: 0x034B [0x52] END_LOAD_SCHEDULER: End scheduler "xhm0" with entities [LocalPlayer, LocalPlayer], work=380*
105: 0x035A [0x52] END_LOAD_SCHEDULER: End scheduler "xhf0" with entities [LocalPlayer, LocalPlayer], work=380*
106: 0x0369 [0x52] END_LOAD_SCHEDULER: End scheduler "xem0" with entities [LocalPlayer, LocalPlayer], work=380*
107: 0x0378 [0x52] END_LOAD_SCHEDULER: End scheduler "xef0" with entities [LocalPlayer, LocalPlayer], work=380*
108: 0x0387 [0x52] END_LOAD_SCHEDULER: End scheduler "xtr0" with entities [LocalPlayer, LocalPlayer], work=380*
109: 0x0396 [0x52] END_LOAD_SCHEDULER: End scheduler "xmt0" with entities [LocalPlayer, LocalPlayer], work=380*
110: 0x03A5 [0x52] END_LOAD_SCHEDULER: End scheduler "xgl0" with entities [LocalPlayer, LocalPlayer], work=380*
111: 0x03B4 [0x45] LOAD_SCHEDULED_TASK: Load scheduler "xr04" with entities [LocalPlayer, LocalPlayer], work=[380*, 0*]
112: 0x03C5 [0x5B] LOAD_EXT_SCHEDULER: Load scheduler "gen2" with entities [Schultz (ID: 17236351/0x0107017F), Schultz (ID: 17236351/0x0107017F)], work=1354*
113: 0x03D4 [0x5B] LOAD_EXT_SCHEDULER: Load scheduler "gen2" with entities [Unnamed NPC (ID: 17236352/0x01070180), Unnamed NPC (ID: 17236352/0x01070180)], work=1323*
114: 0x03E3 [0x1C] WAIT(120* ticks)
115: 0x03E6 [0x2B] Schultz (ID: 17236351/0x0107017F) [8109*]:
    → "Well, that's enough reminiscing for now."
116: 0x03ED [0x23] WAIT_FOR_DIALOG_INTERACTION
117: 0x03EE [0x52] END_LOAD_SCHEDULER: End scheduler "xr04" with entities [LocalPlayer, LocalPlayer], work=380*
118: 0x03FD [0x45] LOAD_SCHEDULED_TASK: Load scheduler "xr05" with entities [LocalPlayer, LocalPlayer], work=[380*, 0*]
119: 0x040E [0x2B] Schultz (ID: 17236351/0x0107017F) [8110*]:
    → "It's high time we charge you with your first test, and last as it were, as a scholar of the Schultz School."
120: 0x0415 [0x23] WAIT_FOR_DIALOG_INTERACTION
121: 0x0416 [0x53] WAIT_SCHEDULER_TASK: Wait for scheduler "gen2" with entities [Schultz (ID: 17236351/0x0107017F), Schultz (ID: 17236351/0x0107017F)]
122: 0x0423 [0x5B] LOAD_EXT_SCHEDULER: Load scheduler "gen3" with entities [Schultz (ID: 17236351/0x0107017F), Schultz (ID: 17236351/0x0107017F)], work=1354*
123: 0x0432 [0x5B] LOAD_EXT_SCHEDULER: Load scheduler "gen3" with entities [Unnamed NPC (ID: 17236352/0x01070180), Unnamed NPC (ID: 17236352/0x01070180)], work=1323*
124: 0x0441 [0x1C] WAIT(30* ticks)
125: 0x0444 [0x52] END_LOAD_SCHEDULER: End scheduler "xr05" with entities [LocalPlayer, LocalPlayer], work=380*
126: 0x0453 [0x45] LOAD_SCHEDULED_TASK: Load scheduler "xr06" with entities [LocalPlayer, LocalPlayer], work=[380*, 0*]
127: 0x0464 [0x2B] Schultz (ID: 17236351/0x0107017F) [8111*]:
    → "I must ascertain for myself whether you are worthy of bearing the title "Herald of the Grimoire." That is to say, whether or not you are worthy of being the one to champion our school's legacy."
128: 0x046B [0x23] WAIT_FOR_DIALOG_INTERACTION
129: 0x046C [0x53] WAIT_SCHEDULER_TASK: Wait for scheduler "gen3" with entities [Schultz (ID: 17236351/0x0107017F), Schultz (ID: 17236351/0x0107017F)]
130: 0x0479 [0x5B] LOAD_EXT_SCHEDULER: Load scheduler "gen4" with entities [Schultz (ID: 17236351/0x0107017F), Schultz (ID: 17236351/0x0107017F)], work=1474*
131: 0x0488 [0x5B] LOAD_EXT_SCHEDULER: Load scheduler "gen4" with entities [Unnamed NPC (ID: 17236352/0x01070180), Unnamed NPC (ID: 17236352/0x01070180)], work=1323*
132: 0x0497 [0x1C] WAIT(30* ticks)
133: 0x049A [0x2B] Schultz (ID: 17236351/0x0107017F) [8112*]:
    → "Have a look, there. You see?"
134: 0x04A1 [0x23] WAIT_FOR_DIALOG_INTERACTION
135: 0x04A2 [0x52] END_LOAD_SCHEDULER: End scheduler "xr06" with entities [LocalPlayer, LocalPlayer], work=380*
136: 0x04B1 [0x45] LOAD_SCHEDULED_TASK: Load scheduler "xr08" with entities [LocalPlayer, LocalPlayer], work=[380*, 0*]
137: 0x04C2 [0x1C] WAIT(30* ticks)
138: 0x04C5 [0x45] LOAD_SCHEDULED_TASK: Load scheduler "swp0" with entities [Indescript Markings (ID: 17236353/0x01070181), LocalPlayer], work=[380*, 0*]
139: 0x04D6 [0xBB] LOAD_EVENT_SCHEDULER_ALT: Load scheduler "st01" with entities [Indescript Markings (ID: 17236353/0x01070181), Schultz (ID: 17236351/0x0107017F)], work=[169*, 0*]
140: 0x04E7 [0x1C] WAIT(180* ticks)
141: 0x04EA [0x2B] Schultz (ID: 17236351/0x0107017F) [8113*]:
    → "Written before you is what is known as a formula of porting."
142: 0x04F1 [0x23] WAIT_FOR_DIALOG_INTERACTION
143: 0x04F2 [0x2B] Schultz (ID: 17236351/0x0107017F) [8114*]:
    → "You may recall like formulations from your studies. This one, however, differs from convention in one regard."
144: 0x04F9 [0x23] WAIT_FOR_DIALOG_INTERACTION
145: 0x04FA [0x03] Work_Zone[2] = 2557*
146: 0x04FF [0x2B] Schultz (ID: 17236351/0x0107017F) [8115*]:
    → "It has been formulated in a manner that will allow it to act in concert with $0. It falls upon you, <Player>, to find one."
147: 0x0506 [0x23] WAIT_FOR_DIALOG_INTERACTION
148: 0x0507 [0x52] END_LOAD_SCHEDULER: End scheduler "xr08" with entities [LocalPlayer, LocalPlayer], work=380*
149: 0x0516 [0x45] LOAD_SCHEDULED_TASK: Load scheduler "xr07" with entities [LocalPlayer, LocalPlayer], work=[380*, 0*]
150: 0x0527 [0x1C] WAIT(30* ticks)
151: 0x052A [0x5B] LOAD_EXT_SCHEDULER: Load scheduler "gen5" with entities [Schultz (ID: 17236351/0x0107017F), Schultz (ID: 17236351/0x0107017F)], work=1474*
152: 0x0539 [0x5B] LOAD_EXT_SCHEDULER: Load scheduler "gen5" with entities [Unnamed NPC (ID: 17236352/0x01070180), Unnamed NPC (ID: 17236352/0x01070180)], work=1323*
153: 0x0548 [0x1C] WAIT(60* ticks)
154: 0x054B [0x03] Work_Zone[2] = 2557*
155: 0x0550 [0x2B] Schultz (ID: 17236351/0x0107017F) [8116*]:
    → "Should you locate $0, all that remains is to raise it ahigh, and the formula will carry you to the royal tomb. It is there where I shall be waiting."
156: 0x0557 [0x23] WAIT_FOR_DIALOG_INTERACTION
157: 0x0558 [0x52] END_LOAD_SCHEDULER: End scheduler "xr07" with entities [LocalPlayer, LocalPlayer], work=380*
158: 0x0567 [0x45] LOAD_SCHEDULED_TASK: Load scheduler "xr09" with entities [LocalPlayer, LocalPlayer], work=[380*, 0*]
159: 0x0578 [0x45] LOAD_SCHEDULED_TASK: Load scheduler "swp1" with entities [Indescript Markings (ID: 17236353/0x01070181), LocalPlayer], work=[380*, 0*]
160: 0x0589 [0xBB] LOAD_EVENT_SCHEDULER_ALT: Load scheduler "st02" with entities [Indescript Markings (ID: 17236353/0x01070181), Schultz (ID: 17236351/0x0107017F)], work=[169*, 0*]
161: 0x059A [0x1C] WAIT(60* ticks)
162: 0x059D [0x2B] Schultz (ID: 17236351/0x0107017F) [8117*]:
    → "Be sure not to keep your teacher waiting, <Player>. Until our next lesson, then."
163: 0x05A4 [0x23] WAIT_FOR_DIALOG_INTERACTION
164: 0x05A5 [0x5D] SET_MUSIC_VOLUME(volume=0*, fade_time=300*)
165: 0x05AA [0x45] LOAD_SCHEDULED_TASK: Load scheduler "swp2" with entities [Indescript Markings (ID: 17236353/0x01070181), LocalPlayer], work=[380*, 0*]
166: 0x05BB [0xBB] LOAD_EVENT_SCHEDULER_ALT: Load scheduler "st03" with entities [Indescript Markings (ID: 17236353/0x01070181), Schultz (ID: 17236351/0x0107017F)], work=[169*, 0*]
167: 0x05CC [0x1C] WAIT(30* ticks)
168: 0x05CF [0x27] REQ_SET(priority=0x10, entity_id=Unnamed NPC (ID: 17236349/0x0107017D), tag_num=0x02)
169: 0x05D6 [0x27] REQ_SET(priority=0x10, entity_id=LocalPlayer, tag_num=0x2D)
170: 0x05DD [0x1C] WAIT(120* ticks)
171: 0x05E0 [0x1A] CALL_SUBROUTINE(address=0x089F)
172: 0x05E3 [0x2A] GET_REQ_LEVEL(level=16, entity_id=LocalPlayer)
173: 0x05E9 [0x1C] WAIT(120* ticks)
174: 0x05EC [0x52] END_LOAD_SCHEDULER: End scheduler "xr09" with entities [LocalPlayer, LocalPlayer], work=380*
175: 0x05FB [0x45] LOAD_SCHEDULED_TASK: Load scheduler "0blf" with entities [LocalPlayer, LocalPlayer], work=[380*, 0*]
176: 0x060C [0xBB] LOAD_EVENT_SCHEDULER_ALT: Load scheduler "kila" with entities [Indescript Markings (ID: 17236353/0x01070181), Schultz (ID: 17236351/0x0107017F)], work=[169*, 0*]
177: 0x061D [0x1C] WAIT(15* ticks)
178: 0x0620 [0x1A] CALL_SUBROUTINE(address=0x085D)
179: 0x0623 [0x1A] CALL_SUBROUTINE(address=0x087E)
180: 0x0626 [0x78] ENABLE_GAME_TIMER_RESET_WEATHER()
181: 0x0627 [0x1C] WAIT(1* ticks)
182: 0x062A [0xAB] EventEntity->UnknownFlag = 0 // Disable unknown flag
183: 0x062C [0x5C] MUSIC_CONTROL: Set Idle (Day) music to song 164*
184: 0x0630 [0x5C] MUSIC_CONTROL: Set Idle (Night) music to song 164*
185: 0x0634 [0x5C] MUSIC_CONTROL: Set Combat (Solo) music to song 101*
186: 0x0638 [0x5C] MUSIC_CONTROL: Set Combat (Party) music to song 103*
187: 0x063C [0x9A] WAIT_MUSIC_SERVER()
188: 0x063D [0x46] CAMERA_CONTROL: Restore default settings
189: 0x063F [0x45] LOAD_SCHEDULED_TASK: Load scheduler "fdi2" with entities [LocalPlayer, LocalPlayer], work=[200*, 0*]
190: 0x0650 [0x21] END_EVENT
191: 0x0651 [0x00] END_REQSTACK()
```

### Event 46

#### Metadata

| Field        | Value      |
|--------------|------------|
| Entrypoint   | 0x0652     |
| Data Size    | 1081 bytes |
| Instructions | 62         |

```
      00 01 02 03 04 05 06 07  08 09 0A 0B 0C 0D 0E 0F
      -- -- -- -- -- -- -- --  -- -- -- -- -- -- -- --
0650:       42 03 00 00 09 10  1A 5D 08 46 01 38 01 80    B......].F.8..
0660: 4E 00 F0 FF FF 7F 94 01  81 01 07 01 BA F0 FF FF  N...............
0670: 7F 30 80 31 80 32 80 33  80 80 F0 FF FF 7F 80 81  .0.1.2.3........
0680: 01 07 01 1C 08 80 27 10  F0 FF FF 7F 30 45 0B 80  ......'.....0E..
0690: F0 FF FF 7F F0 FF FF 7F  77 70 30 30 00 80 1A 3C  ........wp00...<
06A0: 08 1C 0C 80 52 0B 80 F0  FF FF 7F F0 FF FF 7F 77  ....R..........w
06B0: 70 30 30 45 0B 80 F0 FF  FF 7F F0 FF FF 7F 77 70  p00E..........wp
06C0: 30 31 00 80 2A 10 F0 FF  FF 7F 45 0B 80 81 01 07  01..*.....E.....
06D0: 01 F0 FF FF 7F 73 77 70  30 00 80 BB 24 80 81 01  .....swp0...$...
06E0: 07 01 F0 FF FF 7F 73 74  30 31 00 80 1C 0C 80 52  ......st01.....R
06F0: 0B 80 F0 FF FF 7F F0 FF  FF 7F 77 70 30 31 45 0B  ..........wp01E.
0700: 80 F0 FF FF 7F F0 FF FF  7F 77 70 30 32 00 80 45  .........wp02..E
0710: 0B 80 81 01 07 01 F0 FF  FF 7F 73 77 70 31 00 80  ..........swp1..
0720: BB 24 80 81 01 07 01 F0  FF FF 7F 73 74 30 32 00  .$.........st02.
0730: 80 1C 1E 80 92 01 F0 FF  FF 7F 45 0B 80 81 01 07  ..........E.....
0740: 01 F0 FF FF 7F 73 77 70  32 00 80 BB 24 80 81 01  .....swp2...$...
0750: 07 01 F0 FF FF 7F 73 74  30 33 00 80 1C 34 80 52  ......st03...4.R
0760: 0B 80 F0 FF FF 7F F0 FF  FF 7F 77 70 30 32 45 0B  ..........wp02E.
0770: 80 F0 FF FF 7F F0 FF FF  7F 77 70 30 33 00 80 1C  .........wp03...
0780: 0C 80 1A 9F 08 1C 08 80  52 0B 80 F0 FF FF 7F F0  ........R.......
0790: FF FF 7F 77 70 30 33 45  0B 80 F0 FF FF 7F F0 FF  ...wp03E........
07A0: FF 7F 30 62 6C 66 00 80  1C 03 80 92 00 F0 FF FF  ..0blf..........
07B0: 7F BB 24 80 81 01 07 01  F0 FF FF 7F 6B 69 6C 61  ..$.........kila
07C0: 00 80 BB 24 80 81 01 07  01 F0 FF FF 7F 61 31 32  ...$.........a12
07D0: 38 00 80 1A 5D 08 1A 7E  08 46 00 02 00 00 00 80  8...]..~.F......
07E0: 00 E7 07 30 01 F8 07 45  2F 80 F0 FF FF 7F F0 FF  ...0...E/.......
07F0: FF 7F 66 64 69 32 00 80  21 00 45 2F 80 F0 FF FF  ..fdi2..!.E/....
0800: 7F F0 FF FF 7F 66 64 69  30 00 80 55 2F 80 F0 FF  .....fdi0..U/...
0810: FF 7F F0 FF FF 7F 66 64  69 30 1B 45 2F 80 F0 FF  ......fdi0.E/...
0820: FF 7F F0 FF FF 7F 66 64  6F 30 00 80 55 2F 80 F0  ......fdo0..U/..
0830: FF FF 7F F0 FF FF 7F 66  64 6F 30 1B 45 2F 80 F0  .......fdo0.E/..
0840: FF FF 7F F0 FF FF 7F 66  64 69 31 00 80 55 2F 80  .......fdi1..U/.
0850: F0 FF FF 7F F0 FF FF 7F  66 64 69 31 1B 45 2F 80  ........fdi1.E/.
0860: F0 FF FF 7F F0 FF FF 7F  66 64 6F 31 00 80 55 2F  ........fdo1..U/
0870: 80 F0 FF FF 7F F0 FF FF  7F 66 64 6F 31 1B 45 35  .........fdo1.E5
0880: 80 F0 FF FF 7F F0 FF FF  7F 77 68 69 31 00 80 55  .........whi1..U
0890: 35 80 F0 FF FF 7F F0 FF  FF 7F 77 68 69 31 1B 45  5.........whi1.E
08A0: 35 80 F0 FF FF 7F F0 FF  FF 7F 77 68 6F 31 00 80  5.........who1..
08B0: 55 35 80 F0 FF FF 7F F0  FF FF 7F 77 68 6F 31 1B  U5.........who1.
08C0: 45 35 80 F0 FF FF 7F F0  FF FF 7F 77 68 6F 32 00  E5.........who2.
08D0: 80 55 35 80 F0 FF FF 7F  F0 FF FF 7F 77 68 6F 32  .U5.........who2
08E0: 1B 45 35 80 F0 FF FF 7F  F0 FF FF 7F 77 68 6F 33  .E5.........who3
08F0: 00 80 55 35 80 F0 FF FF  7F F0 FF FF 7F 77 68 6F  ..U5.........who
0900: 33 1B 62 15 80 F0 FF FF  7F F0 FF FF 7F 6D 61 69  3.b..........mai
0910: 6E 00 80 1C 36 80 45 2F  80 F0 FF FF 7F F0 FF FF  n...6.E/........
0920: 7F 66 64 6F 31 00 80 55  2F 80 F0 FF FF 7F F0 FF  .fdo1..U/.......
0930: FF 7F 66 64 6F 31 1B 45  2F 80 F0 FF FF 7F F0 FF  ..fdo1.E/.......
0940: FF 7F 66 64 69 31 00 80  62 02 80 F0 FF FF 7F F0  ..fdi1..b.......
0950: FF FF 7F 6D 61 69 6E 00  80 1C 03 80 55 2F 80 F0  ...main.....U/..
0960: FF FF 7F F0 FF FF 7F 66  64 69 31 1B 45 2F 80 F0  .......fdi1.E/..
0970: FF FF 7F F0 FF FF 7F 62  6C 6F 6E 00 80 45 35 80  .......blon..E5.
0980: F0 FF FF 7F F0 FF FF 7F  62 6C 6F 6E 00 80 1B 45  ........blon...E
0990: 35 80 F0 FF FF 7F F0 FF  FF 7F 77 68 69 30 00 80  5.........whi0..
09A0: 55 35 80 F0 FF FF 7F F0  FF FF 7F 77 68 69 30 1B  U5.........whi0.
09B0: 45 35 80 F0 FF FF 7F F0  FF FF 7F 77 68 6F 30 00  E5.........who0.
09C0: 80 55 35 80 F0 FF FF 7F  F0 FF FF 7F 77 68 6F 30  .U5.........who0
09D0: 1B 45 37 80 F0 FF FF 7F  F0 FF FF 7F 65 66 6F 6E  .E7.........efon
09E0: 00 80 55 37 80 F0 FF FF  7F F0 FF FF 7F 65 66 6F  ..U7.........efo
09F0: 6E 1B 45 2F 80 F0 FF FF  7F F0 FF FF 7F 66 64 69  n.E/.........fdi
0A00: 73 00 80 1B 45 2F 80 F0  FF FF 7F F0 FF FF 7F 66  s...E/.........f
0A10: 64 6F 73 00 80 55 2F 80  F0 FF FF 7F F0 FF FF 7F  dos..U/.........
0A20: 66 64 6F 73 1B 45 2F 80  F0 FF FF 7F F0 FF FF 7F  fdos.E/.........
0A30: 66 64 69 66 00 80 1B 45  2F 80 F0 FF FF 7F F0 FF  fdif...E/.......
0A40: FF 7F 66 64 6F 66 00 80  55 2F 80 F0 FF FF 7F F0  ..fdof..U/......
0A50: FF FF 7F 66 64 6F 66 1B  45 2F 80 F0 FF FF 7F F0  ...fdof.E/......
0A60: FF FF 7F 66 64 69 70 00  80 1B 45 2F 80 F0 FF FF  ...fdip...E/....
0A70: 7F F0 FF FF 7F 66 64 6F  70 00 80 55 2F 80 F0 FF  .....fdop..U/...
0A80: FF 7F F0 FF FF 7F 66 64  6F 70 1B                 ......fdop.     
```

#### Opcodes

```
  0: 0x0652 [0x42] SET_CLI_EVENT_CANCEL_DATA()
  1: 0x0653 [0x03] ExtData[1]->WorkLocal[0] = Work_Zone[9]
  2: 0x0658 [0x1A] CALL_SUBROUTINE(address=0x085D)
  3: 0x065B [0x46] CAMERA_CONTROL: Disable user control
  4: 0x065D [0x38] SET_CLIENT_EVENT_MODE(mode=19*)
  5: 0x0660 [0x4E] SET_ENTITY_HIDE_FLAG: Show LocalPlayer
  6: 0x0666 [0x94] Indescript Markings (ID: 17236353/0x01070181)->Render.Flags3 ^= 0x01
  7: 0x066C [0xBA] SET_ENTITY_POSITION(entity_id=LocalPlayer, pos_x=118.520*, pos_z=-118.041*, pos_y=-28.665*, direction=1.0°*)
  8: 0x0679 [0x80] LOAD_WAIT(entity=LocalPlayer)
  9: 0x067E [0x80] LOAD_WAIT(entity=Indescript Markings (ID: 17236353/0x01070181))
 10: 0x0683 [0x1C] WAIT(15* ticks)
 11: 0x0686 [0x27] REQ_SET(priority=0x10, entity_id=LocalPlayer, tag_num=0x30)
 12: 0x068D [0x45] LOAD_SCHEDULED_TASK: Load scheduler "wp00" with entities [LocalPlayer, LocalPlayer], work=[380*, 0*]
 13: 0x069E [0x1A] CALL_SUBROUTINE(address=0x083C)
 14: 0x06A1 [0x1C] WAIT(180* ticks)
 15: 0x06A4 [0x52] END_LOAD_SCHEDULER: End scheduler "wp00" with entities [LocalPlayer, LocalPlayer], work=380*
 16: 0x06B3 [0x45] LOAD_SCHEDULED_TASK: Load scheduler "wp01" with entities [LocalPlayer, LocalPlayer], work=[380*, 0*]
 17: 0x06C4 [0x2A] GET_REQ_LEVEL(level=16, entity_id=LocalPlayer)
 18: 0x06CA [0x45] LOAD_SCHEDULED_TASK: Load scheduler "swp0" with entities [Indescript Markings (ID: 17236353/0x01070181), LocalPlayer], work=[380*, 0*]
 19: 0x06DB [0xBB] LOAD_EVENT_SCHEDULER_ALT: Load scheduler "st01" with entities [Indescript Markings (ID: 17236353/0x01070181), LocalPlayer], work=[169*, 0*]
 20: 0x06EC [0x1C] WAIT(180* ticks)
 21: 0x06EF [0x52] END_LOAD_SCHEDULER: End scheduler "wp01" with entities [LocalPlayer, LocalPlayer], work=380*
 22: 0x06FE [0x45] LOAD_SCHEDULED_TASK: Load scheduler "wp02" with entities [LocalPlayer, LocalPlayer], work=[380*, 0*]
 23: 0x070F [0x45] LOAD_SCHEDULED_TASK: Load scheduler "swp1" with entities [Indescript Markings (ID: 17236353/0x01070181), LocalPlayer], work=[380*, 0*]
 24: 0x0720 [0xBB] LOAD_EVENT_SCHEDULER_ALT: Load scheduler "st02" with entities [Indescript Markings (ID: 17236353/0x01070181), LocalPlayer], work=[169*, 0*]
 25: 0x0731 [0x1C] WAIT(120* ticks)
 26: 0x0734 [0x92] LocalPlayer->Render.Flags3 ^= 0x01
 27: 0x073A [0x45] LOAD_SCHEDULED_TASK: Load scheduler "swp2" with entities [Indescript Markings (ID: 17236353/0x01070181), LocalPlayer], work=[380*, 0*]
 28: 0x074B [0xBB] LOAD_EVENT_SCHEDULER_ALT: Load scheduler "st03" with entities [Indescript Markings (ID: 17236353/0x01070181), LocalPlayer], work=[169*, 0*]
 29: 0x075C [0x1C] WAIT(150* ticks)
 30: 0x075F [0x52] END_LOAD_SCHEDULER: End scheduler "wp02" with entities [LocalPlayer, LocalPlayer], work=380*
 31: 0x076E [0x45] LOAD_SCHEDULED_TASK: Load scheduler "wp03" with entities [LocalPlayer, LocalPlayer], work=[380*, 0*]
 32: 0x077F [0x1C] WAIT(180* ticks)
 33: 0x0782 [0x1A] CALL_SUBROUTINE(address=0x089F)
 34: 0x0785 [0x1C] WAIT(15* ticks)
 35: 0x0788 [0x52] END_LOAD_SCHEDULER: End scheduler "wp03" with entities [LocalPlayer, LocalPlayer], work=380*
 36: 0x0797 [0x45] LOAD_SCHEDULED_TASK: Load scheduler "0blf" with entities [LocalPlayer, LocalPlayer], work=[380*, 0*]
 37: 0x07A8 [0x1C] WAIT(30* ticks)
 38: 0x07AB [0x92] LocalPlayer->Render.Flags3 = Flags3  // No change (flag=0)
 39: 0x07B1 [0xBB] LOAD_EVENT_SCHEDULER_ALT: Load scheduler "kila" with entities [Indescript Markings (ID: 17236353/0x01070181), LocalPlayer], work=[169*, 0*]
 40: 0x07C2 [0xBB] LOAD_EVENT_SCHEDULER_ALT: Load scheduler "a128" with entities [Indescript Markings (ID: 17236353/0x01070181), LocalPlayer], work=[169*, 0*]
 41: 0x07D3 [0x1A] CALL_SUBROUTINE(address=0x085D)
 42: 0x07D6 [0x1A] CALL_SUBROUTINE(address=0x087E)
 43: 0x07D9 [0x46] CAMERA_CONTROL: Restore default settings
 44: 0x07DB [0x02] IF !(ExtData[1]->WorkLocal[0] == 0*) GOTO 0x07E7
 45: 0x07E3 [0x30] SET_UCOFF_CONTINUE_ZERO()
 46: 0x07E4 [0x01] GOTO 0x07F8
 47: 0x07E7 [0x45] LOAD_SCHEDULED_TASK: Load scheduler "fdi2" with entities [LocalPlayer, LocalPlayer], work=[200*, 0*]

SUBROUTINE_07F8:
 48: 0x07F8 [0x21] END_EVENT
 49: 0x07F9 [0x00] END_REQSTACK()

SUBROUTINE_083C:
 50: 0x083C [0x45] LOAD_SCHEDULED_TASK: Load scheduler "fdi1" with entities [LocalPlayer, LocalPlayer], work=[200*, 0*]
 51: 0x084D [0x55] WAIT_LOAD_SCHEDULER: Wait for scheduler "fdi1" with entities [LocalPlayer, LocalPlayer], work=200*
 52: 0x085C [0x1B] RETURN

SUBROUTINE_085D:
 53: 0x085D [0x45] LOAD_SCHEDULED_TASK: Load scheduler "fdo1" with entities [LocalPlayer, LocalPlayer], work=[200*, 0*]
 54: 0x086E [0x55] WAIT_LOAD_SCHEDULER: Wait for scheduler "fdo1" with entities [LocalPlayer, LocalPlayer], work=200*
 55: 0x087D [0x1B] RETURN

SUBROUTINE_087E:
 56: 0x087E [0x45] LOAD_SCHEDULED_TASK: Load scheduler "whi1" with entities [LocalPlayer, LocalPlayer], work=[201*, 0*]
 57: 0x088F [0x55] WAIT_LOAD_SCHEDULER: Wait for scheduler "whi1" with entities [LocalPlayer, LocalPlayer], work=201*
 58: 0x089E [0x1B] RETURN

SUBROUTINE_089F:
 59: 0x089F [0x45] LOAD_SCHEDULED_TASK: Load scheduler "who1" with entities [LocalPlayer, LocalPlayer], work=[201*, 0*]
 60: 0x08B0 [0x55] WAIT_LOAD_SCHEDULER: Wait for scheduler "who1" with entities [LocalPlayer, LocalPlayer], work=201*
 61: 0x08BF [0x1B] RETURN
```

#### Data or dead code:

```
# Dead code (unreachable instructions):
     0x07FA [0x45] LOAD_SCHEDULED_TASK: Load scheduler "fdi0" with entities [LocalPlayer, LocalPlayer], work=[200*, 0*]
     0x080B [0x55] WAIT_LOAD_SCHEDULER: Wait for scheduler "fdi0" with entities [LocalPlayer, LocalPlayer], work=200*
     0x081A [0x1B] RETURN
     0x081B [0x45] LOAD_SCHEDULED_TASK: Load scheduler "fdo0" with entities [LocalPlayer, LocalPlayer], work=[200*, 0*]
     0x082C [0x55] WAIT_LOAD_SCHEDULER: Wait for scheduler "fdo0" with entities [LocalPlayer, LocalPlayer], work=200*
     0x083B [0x1B] RETURN
# Dead code (unreachable instructions):
     0x08C0 [0x45] LOAD_SCHEDULED_TASK: Load scheduler "who2" with entities [LocalPlayer, LocalPlayer], work=[201*, 0*]
     0x08D1 [0x55] WAIT_LOAD_SCHEDULER: Wait for scheduler "who2" with entities [LocalPlayer, LocalPlayer], work=201*
     0x08E0 [0x1B] RETURN
     0x08E1 [0x45] LOAD_SCHEDULED_TASK: Load scheduler "who3" with entities [LocalPlayer, LocalPlayer], work=[201*, 0*]
     0x08F2 [0x55] WAIT_LOAD_SCHEDULER: Wait for scheduler "who3" with entities [LocalPlayer, LocalPlayer], work=201*
     0x0901 [0x1B] RETURN
     0x0902 [0x62] LOAD_EVENT_SCHEDULER: Load scheduler "main" with entities [LocalPlayer, LocalPlayer], work=[1*, 0*]
     0x0913 [0x1C] WAIT(45* ticks)
     0x0916 [0x45] LOAD_SCHEDULED_TASK: Load scheduler "fdo1" with entities [LocalPlayer, LocalPlayer], work=[200*, 0*]
     0x0927 [0x55] WAIT_LOAD_SCHEDULER: Wait for scheduler "fdo1" with entities [LocalPlayer, LocalPlayer], work=200*
     0x0936 [0x1B] RETURN
     0x0937 [0x45] LOAD_SCHEDULED_TASK: Load scheduler "fdi1" with entities [LocalPlayer, LocalPlayer], work=[200*, 0*]
     0x0948 [0x62] LOAD_EVENT_SCHEDULER: Load scheduler "main" with entities [LocalPlayer, LocalPlayer], work=[2*, 0*]
     0x0959 [0x1C] WAIT(30* ticks)
     0x095C [0x55] WAIT_LOAD_SCHEDULER: Wait for scheduler "fdi1" with entities [LocalPlayer, LocalPlayer], work=200*
     0x096B [0x1B] RETURN
     0x096C [0x45] LOAD_SCHEDULED_TASK: Load scheduler "blon" with entities [LocalPlayer, LocalPlayer], work=[200*, 0*]
     0x097D [0x45] LOAD_SCHEDULED_TASK: Load scheduler "blon" with entities [LocalPlayer, LocalPlayer], work=[201*, 0*]
     0x098E [0x1B] RETURN
     0x098F [0x45] LOAD_SCHEDULED_TASK: Load scheduler "whi0" with entities [LocalPlayer, LocalPlayer], work=[201*, 0*]
     0x09A0 [0x55] WAIT_LOAD_SCHEDULER: Wait for scheduler "whi0" with entities [LocalPlayer, LocalPlayer], work=201*
     0x09AF [0x1B] RETURN
     0x09B0 [0x45] LOAD_SCHEDULED_TASK: Load scheduler "who0" with entities [LocalPlayer, LocalPlayer], work=[201*, 0*]
     0x09C1 [0x55] WAIT_LOAD_SCHEDULER: Wait for scheduler "who0" with entities [LocalPlayer, LocalPlayer], work=201*
     0x09D0 [0x1B] RETURN
     0x09D1 [0x45] LOAD_SCHEDULED_TASK: Load scheduler "efon" with entities [LocalPlayer, LocalPlayer], work=[215*, 0*]
     0x09E2 [0x55] WAIT_LOAD_SCHEDULER: Wait for scheduler "efon" with entities [LocalPlayer, LocalPlayer], work=215*
     0x09F1 [0x1B] RETURN
     0x09F2 [0x45] LOAD_SCHEDULED_TASK: Load scheduler "fdis" with entities [LocalPlayer, LocalPlayer], work=[200*, 0*]
     0x0A03 [0x1B] RETURN
     0x0A04 [0x45] LOAD_SCHEDULED_TASK: Load scheduler "fdos" with entities [LocalPlayer, LocalPlayer], work=[200*, 0*]
     0x0A15 [0x55] WAIT_LOAD_SCHEDULER: Wait for scheduler "fdos" with entities [LocalPlayer, LocalPlayer], work=200*
     0x0A24 [0x1B] RETURN
     0x0A25 [0x45] LOAD_SCHEDULED_TASK: Load scheduler "fdif" with entities [LocalPlayer, LocalPlayer], work=[200*, 0*]
     0x0A36 [0x1B] RETURN
     0x0A37 [0x45] LOAD_SCHEDULED_TASK: Load scheduler "fdof" with entities [LocalPlayer, LocalPlayer], work=[200*, 0*]
     0x0A48 [0x55] WAIT_LOAD_SCHEDULER: Wait for scheduler "fdof" with entities [LocalPlayer, LocalPlayer], work=200*
     0x0A57 [0x1B] RETURN
     0x0A58 [0x45] LOAD_SCHEDULED_TASK: Load scheduler "fdip" with entities [LocalPlayer, LocalPlayer], work=[200*, 0*]
     0x0A69 [0x1B] RETURN
     0x0A6A [0x45] LOAD_SCHEDULED_TASK: Load scheduler "fdop" with entities [LocalPlayer, LocalPlayer], work=[200*, 0*]
     0x0A7B [0x55] WAIT_LOAD_SCHEDULER: Wait for scheduler "fdop" with entities [LocalPlayer, LocalPlayer], work=200*
     0x0A8A [0x1B] RETURN
```
