# 17236333

## Common Data

| Field            | Value               |
|------------------|---------------------|
| Zone             | Xarcabard (ID: 112) |
| Block Size       | 120 bytes           |
| Total Events     | 6                   |
| References Count | 7                   |

## List of Events

| Event ID                 | Entrypoint   |   Size |   Instructions |
|--------------------------|--------------|--------|----------------|
| [65535](#event-65535)    | 0x0000       |      1 |              1 |
| [100](#event-100)        | 0x0001       |      1 |              1 |
| [13](#event-13)          | 0x0002       |      1 |              1 |
| [65535.1](#event-655351) | 0x0003       |     27 |              3 |
| [65535.2](#event-655352) | 0x001E       |     10 |              2 |
| [65535.3](#event-655353) | 0x0028       |     10 |              2 |

## DAT References (imed_data)

|   Index | Hex Value   |   Dec Value |
|---------|-------------|-------------|
|       0 | 0x0080      |         128 |
|       1 | 0x0078      |         120 |
|       2 | 0x0026      |          38 |
|       3 | 0x0000      |           0 |
|       4 | 0x0048      |          72 |
|       5 | 0x0096      |         150 |
|       6 | 0x00B4      |         180 |

## Events

### Event 65535

#### Metadata

| Field        | Value   |
|--------------|---------|
| Entrypoint   | 0x0000  |
| Data Size    | 1 bytes |
| Instructions | 1       |

```
      00 01 02 03 04 05 06 07  08 09 0A 0B 0C 0D 0E 0F
      -- -- -- -- -- -- -- --  -- -- -- -- -- -- -- --
0000: 00                                                .               
```

#### Opcodes

```
  0: 0x0000 [0x00] END_REQSTACK()
```

### Event 100

#### Metadata

| Field        | Value   |
|--------------|---------|
| Entrypoint   | 0x0001  |
| Data Size    | 1 bytes |
| Instructions | 1       |

```
      00 01 02 03 04 05 06 07  08 09 0A 0B 0C 0D 0E 0F
      -- -- -- -- -- -- -- --  -- -- -- -- -- -- -- --
0000:    00                                              .              
```

#### Opcodes

```
  0: 0x0001 [0x00] END_REQSTACK()
```

### Event 13

#### Metadata

| Field        | Value   |
|--------------|---------|
| Entrypoint   | 0x0002  |
| Data Size    | 1 bytes |
| Instructions | 1       |

```
      00 01 02 03 04 05 06 07  08 09 0A 0B 0C 0D 0E 0F
      -- -- -- -- -- -- -- --  -- -- -- -- -- -- -- --
0000:       00                                            .             
```

#### Opcodes

```
  0: 0x0002 [0x00] END_REQSTACK()
```

### Event 65535.1

#### Metadata

| Field        | Value    |
|--------------|----------|
| Entrypoint   | 0x0003   |
| Data Size    | 27 bytes |
| Instructions | 3        |

```
      00 01 02 03 04 05 06 07  08 09 0A 0B 0C 0D 0E 0F
      -- -- -- -- -- -- -- --  -- -- -- -- -- -- -- --
0000:          6C 6C 01 07 01  00 80 01 80 9F 02 80 6C     ll..........l
0010: 01 07 01 6C 01 07 01 6D  61 69 6E 03 80 00        ...l...main...  
```

#### Opcodes

```
  0: 0x0003 [0x6C] FADE_ENTITY_COLOR(entity_id=Raogrimm (ID: 17236332/0x0107016C), end_alpha=128*, fade_time=120*)
  1: 0x000C [0x9F] LOAD_SCHEDULED_TASK_ALT: Load scheduler "main" with entities [Raogrimm (ID: 17236332/0x0107016C), Raogrimm (ID: 17236332/0x0107016C)], work=[38*, 0*]
  2: 0x001D [0x00] END_REQSTACK()
```

### Event 65535.2

#### Metadata

| Field        | Value    |
|--------------|----------|
| Entrypoint   | 0x001E   |
| Data Size    | 10 bytes |
| Instructions | 2        |

```
      00 01 02 03 04 05 06 07  08 09 0A 0B 0C 0D 0E 0F
      -- -- -- -- -- -- -- --  -- -- -- -- -- -- -- --
0010:                                            6C F0                l.
0020: FF FF 7F 04 80 05 80 00                           ........        
```

#### Opcodes

```
  0: 0x001E [0x6C] FADE_ENTITY_COLOR(entity_id=LocalPlayer, end_alpha=72*, fade_time=150*)
  1: 0x0027 [0x00] END_REQSTACK()
```

### Event 65535.3

#### Metadata

| Field        | Value    |
|--------------|----------|
| Entrypoint   | 0x0028   |
| Data Size    | 10 bytes |
| Instructions | 2        |

```
      00 01 02 03 04 05 06 07  08 09 0A 0B 0C 0D 0E 0F
      -- -- -- -- -- -- -- --  -- -- -- -- -- -- -- --
0020:                          6C F0 FF FF 7F 03 80 06          l.......
0030: 80 00                                             ..              
```

#### Opcodes

```
  0: 0x0028 [0x6C] FADE_ENTITY_COLOR(entity_id=LocalPlayer, end_alpha=0*, fade_time=180*)
  1: 0x0031 [0x00] END_REQSTACK()
```
