# 17236411

## Common Data

| Field            | Value               |
|------------------|---------------------|
| Zone             | Xarcabard (ID: 112) |
| Block Size       | 544 bytes           |
| Total Events     | 17                  |
| References Count | 39                  |

## List of Events

| Event ID                   | Entrypoint   |   Size |   Instructions |
|----------------------------|--------------|--------|----------------|
| [65535](#event-65535)      | 0x0000       |      1 |              1 |
| [68](#event-68)            | 0x0001       |      7 |              2 |
| [65535.1](#event-655351)   | 0x0008       |     21 |              2 |
| [65535.2](#event-655352)   | 0x001D       |     21 |              2 |
| [65535.3](#event-655353)   | 0x0032       |     21 |              2 |
| [65535.4](#event-655354)   | 0x0047       |     21 |              2 |
| [65535.5](#event-655355)   | 0x005C       |     21 |              2 |
| [65535.6](#event-655356)   | 0x0071       |     21 |              2 |
| [65535.7](#event-655357)   | 0x0086       |     21 |              2 |
| [65535.8](#event-655358)   | 0x009B       |     21 |              2 |
| [65535.9](#event-655359)   | 0x00B0       |     21 |              2 |
| [65535.10](#event-6553510) | 0x00C5       |     21 |              2 |
| [65535.11](#event-6553511) | 0x00DA       |     21 |              2 |
| [65535.12](#event-6553512) | 0x00EF       |     21 |              2 |
| [65535.13](#event-6553513) | 0x0104       |     21 |              2 |
| [65535.14](#event-6553514) | 0x0119       |     10 |              2 |
| [65535.15](#event-6553515) | 0x0123       |     10 |              2 |

## DAT References (imed_data)

|   Index | Hex Value   |   Dec Value |
|---------|-------------|-------------|
|       0 | 0x0001      |           1 |
|       1 | 0x0006      |           6 |
|       2 | 0x0000      |           0 |
|       3 | 0x00A5      |         165 |
|       4 | 0x00AB      |         171 |
|       5 | 0x0177      |         375 |
|       6 | 0x0007      |           7 |
|       7 | 0x0019      |          25 |
|       8 | 0x015A      |         346 |
|       9 | 0x0186      |         390 |
|      10 | 0x0005      |           5 |
|      11 | 0x0077      |         119 |
|      12 | 0x00AD      |         173 |
|      13 | 0x0087      |         135 |
|      14 | 0x00AC      |         172 |
|      15 | 0x0004      |           4 |
|      16 | 0x000B      |          11 |
|      17 | 0x0023      |          35 |
|      18 | 0x0064      |         100 |
|      19 | 0x000A      |          10 |
|      20 | 0x0057      |          87 |
|      21 | 0x0154      |         340 |
|      22 | 0x0073      |         115 |
|      23 | 0x00D6      |         214 |
|      24 | 0x00C9      |         201 |
|      25 | 0x00B9      |         185 |
|      26 | 0x0018      |          24 |
|      27 | 0x01D9      |         473 |
|      28 | 0x0065      |         101 |
|      29 | 0x0378      |         888 |
|      30 | 0x0013      |          19 |
|      31 | 0x002E      |          46 |
|      32 | 0x0003      |           3 |
|      33 | 0x0017      |          23 |
|      34 | 0x0008      |           8 |
|      35 | 0x0011      |          17 |
|      36 | 0x0002      |           2 |
|      37 | 0x000F      |          15 |
|      38 | 0x0080      |         128 |

## Events

### Event 65535

#### Metadata

| Field        | Value   |
|--------------|---------|
| Entrypoint   | 0x0000  |
| Data Size    | 1 bytes |
| Instructions | 1       |

```
      00 01 02 03 04 05 06 07  08 09 0A 0B 0C 0D 0E 0F
      -- -- -- -- -- -- -- --  -- -- -- -- -- -- -- --
0000: 00                                                .               
```

#### Opcodes

```
  0: 0x0000 [0x00] END_REQSTACK()
```

### Event 68

#### Metadata

| Field        | Value   |
|--------------|---------|
| Entrypoint   | 0x0001  |
| Data Size    | 7 bytes |
| Instructions | 2       |

```
      00 01 02 03 04 05 06 07  08 09 0A 0B 0C 0D 0E 0F
      -- -- -- -- -- -- -- --  -- -- -- -- -- -- -- --
0000:    92 01 F8 FF FF 7F 00                            .......        
```

#### Opcodes

```
  0: 0x0001 [0x92] EventEntity->Render.Flags3 ^= 0x01
  1: 0x0007 [0x00] END_REQSTACK()
```

### Event 65535.1

#### Metadata

| Field        | Value    |
|--------------|----------|
| Entrypoint   | 0x0008   |
| Data Size    | 21 bytes |
| Instructions | 2        |

```
      00 01 02 03 04 05 06 07  08 09 0A 0B 0C 0D 0E 0F
      -- -- -- -- -- -- -- --  -- -- -- -- -- -- -- --
0000:                          B6 0B 00 80 01 80 02 80          ........
0010: 03 80 04 80 03 80 04 80  05 80 02 80 00           .............   
```

#### Opcodes

```
  0: 0x0008 [0xB6] ENTITY_APPEARANCE_HANDLER(case=Full entity look, race=1*, hair=6*, head=0*, body=165*, hands=171*, legs=165*, feet=171*, main=375*, sub=0*)
  1: 0x001C [0x00] END_REQSTACK()
```

### Event 65535.2

#### Metadata

| Field        | Value    |
|--------------|----------|
| Entrypoint   | 0x001D   |
| Data Size    | 21 bytes |
| Instructions | 2        |

```
      00 01 02 03 04 05 06 07  08 09 0A 0B 0C 0D 0E 0F
      -- -- -- -- -- -- -- --  -- -- -- -- -- -- -- --
0010:                                         B6 0B 06               ...
0020: 80 07 80 02 80 08 80 09  80 09 80 09 80 02 80 02  ................
0030: 80 00                                             ..              
```

#### Opcodes

```
  0: 0x001D [0xB6] ENTITY_APPEARANCE_HANDLER(case=Full entity look, race=7*, hair=25*, head=0*, body=346*, hands=390*, legs=390*, feet=390*, main=0*, sub=0*)
  1: 0x0031 [0x00] END_REQSTACK()
```

### Event 65535.3

#### Metadata

| Field        | Value    |
|--------------|----------|
| Entrypoint   | 0x0032   |
| Data Size    | 21 bytes |
| Instructions | 2        |

```
      00 01 02 03 04 05 06 07  08 09 0A 0B 0C 0D 0E 0F
      -- -- -- -- -- -- -- --  -- -- -- -- -- -- -- --
0030:       B6 0B 00 80 0A 80  0B 80 0C 80 0D 80 0E 80    ..............
0040: 0C 80 02 80 02 80 00                              .......         
```

#### Opcodes

```
  0: 0x0032 [0xB6] ENTITY_APPEARANCE_HANDLER(case=Full entity look, race=1*, hair=5*, head=119*, body=173*, hands=135*, legs=172*, feet=173*, main=0*, sub=0*)
  1: 0x0046 [0x00] END_REQSTACK()
```

### Event 65535.4

#### Metadata

| Field        | Value    |
|--------------|----------|
| Entrypoint   | 0x0047   |
| Data Size    | 21 bytes |
| Instructions | 2        |

```
      00 01 02 03 04 05 06 07  08 09 0A 0B 0C 0D 0E 0F
      -- -- -- -- -- -- -- --  -- -- -- -- -- -- -- --
0040:                      B6  0B 0F 80 10 80 02 80 11         .........
0050: 80 02 80 12 80 12 80 02  80 02 80 00              ............    
```

#### Opcodes

```
  0: 0x0047 [0xB6] ENTITY_APPEARANCE_HANDLER(case=Full entity look, race=4*, hair=11*, head=0*, body=35*, hands=0*, legs=100*, feet=100*, main=0*, sub=0*)
  1: 0x005B [0x00] END_REQSTACK()
```

### Event 65535.5

#### Metadata

| Field        | Value    |
|--------------|----------|
| Entrypoint   | 0x005C   |
| Data Size    | 21 bytes |
| Instructions | 2        |

```
      00 01 02 03 04 05 06 07  08 09 0A 0B 0C 0D 0E 0F
      -- -- -- -- -- -- -- --  -- -- -- -- -- -- -- --
0050:                                      B6 0B 0F 80              ....
0060: 13 80 14 80 14 80 14 80  14 80 14 80 15 80 02 80  ................
0070: 00                                                .               
```

#### Opcodes

```
  0: 0x005C [0xB6] ENTITY_APPEARANCE_HANDLER(case=Full entity look, race=4*, hair=10*, head=87*, body=87*, hands=87*, legs=87*, feet=87*, main=340*, sub=0*)
  1: 0x0070 [0x00] END_REQSTACK()
```

### Event 65535.6

#### Metadata

| Field        | Value    |
|--------------|----------|
| Entrypoint   | 0x0071   |
| Data Size    | 21 bytes |
| Instructions | 2        |

```
      00 01 02 03 04 05 06 07  08 09 0A 0B 0C 0D 0E 0F
      -- -- -- -- -- -- -- --  -- -- -- -- -- -- -- --
0070:    B6 0B 00 80 00 80 16  80 17 80 18 80 19 80 17   ...............
0080: 80 02 80 02 80 00                                 ......          
```

#### Opcodes

```
  0: 0x0071 [0xB6] ENTITY_APPEARANCE_HANDLER(case=Full entity look, race=1*, hair=1*, head=115*, body=214*, hands=201*, legs=185*, feet=214*, main=0*, sub=0*)
  1: 0x0085 [0x00] END_REQSTACK()
```

### Event 65535.7

#### Metadata

| Field        | Value    |
|--------------|----------|
| Entrypoint   | 0x0086   |
| Data Size    | 21 bytes |
| Instructions | 2        |

```
      00 01 02 03 04 05 06 07  08 09 0A 0B 0C 0D 0E 0F
      -- -- -- -- -- -- -- --  -- -- -- -- -- -- -- --
0080:                   B6 0B  0A 80 1A 80 02 80 1B 80        ..........
0090: 1C 80 1B 80 1C 80 1D 80  02 80 00                 ...........     
```

#### Opcodes

```
  0: 0x0086 [0xB6] ENTITY_APPEARANCE_HANDLER(case=Full entity look, race=5*, hair=24*, head=0*, body=473*, hands=101*, legs=473*, feet=101*, main=888*, sub=0*)
  1: 0x009A [0x00] END_REQSTACK()
```

### Event 65535.8

#### Metadata

| Field        | Value    |
|--------------|----------|
| Entrypoint   | 0x009B   |
| Data Size    | 21 bytes |
| Instructions | 2        |

```
      00 01 02 03 04 05 06 07  08 09 0A 0B 0C 0D 0E 0F
      -- -- -- -- -- -- -- --  -- -- -- -- -- -- -- --
0090:                                   B6 0B 01 80 01             .....
00A0: 80 02 80 1E 80 1E 80 1E  80 1E 80 02 80 02 80 00  ................
```

#### Opcodes

```
  0: 0x009B [0xB6] ENTITY_APPEARANCE_HANDLER(case=Full entity look, race=6*, hair=6*, head=0*, body=19*, hands=19*, legs=19*, feet=19*, main=0*, sub=0*)
  1: 0x00AF [0x00] END_REQSTACK()
```

### Event 65535.9

#### Metadata

| Field        | Value    |
|--------------|----------|
| Entrypoint   | 0x00B0   |
| Data Size    | 21 bytes |
| Instructions | 2        |

```
      00 01 02 03 04 05 06 07  08 09 0A 0B 0C 0D 0E 0F
      -- -- -- -- -- -- -- --  -- -- -- -- -- -- -- --
00B0: B6 0B 0A 80 0F 80 02 80  1F 80 1F 80 1F 80 1F 80  ................
00C0: 02 80 02 80 00                                    .....           
```

#### Opcodes

```
  0: 0x00B0 [0xB6] ENTITY_APPEARANCE_HANDLER(case=Full entity look, race=5*, hair=4*, head=0*, body=46*, hands=46*, legs=46*, feet=46*, main=0*, sub=0*)
  1: 0x00C4 [0x00] END_REQSTACK()
```

### Event 65535.10

#### Metadata

| Field        | Value    |
|--------------|----------|
| Entrypoint   | 0x00C5   |
| Data Size    | 21 bytes |
| Instructions | 2        |

```
      00 01 02 03 04 05 06 07  08 09 0A 0B 0C 0D 0E 0F
      -- -- -- -- -- -- -- --  -- -- -- -- -- -- -- --
00C0:                B6 0B 20  80 06 80 02 80 21 80 02       .. .....!..
00D0: 80 22 80 22 80 02 80 02  80 00                    ."."......      
```

#### Opcodes

```
  0: 0x00C5 [0xB6] ENTITY_APPEARANCE_HANDLER(case=Full entity look, race=3*, hair=7*, head=0*, body=23*, hands=0*, legs=8*, feet=8*, main=0*, sub=0*)
  1: 0x00D9 [0x00] END_REQSTACK()
```

### Event 65535.11

#### Metadata

| Field        | Value    |
|--------------|----------|
| Entrypoint   | 0x00DA   |
| Data Size    | 21 bytes |
| Instructions | 2        |

```
      00 01 02 03 04 05 06 07  08 09 0A 0B 0C 0D 0E 0F
      -- -- -- -- -- -- -- --  -- -- -- -- -- -- -- --
00D0:                                B6 0B 22 80 20 80            ..". .
00E0: 23 80 23 80 23 80 23 80  23 80 02 80 02 80 00     #.#.#.#.#...... 
```

#### Opcodes

```
  0: 0x00DA [0xB6] ENTITY_APPEARANCE_HANDLER(case=Full entity look, race=8*, hair=3*, head=17*, body=17*, hands=17*, legs=17*, feet=17*, main=0*, sub=0*)
  1: 0x00EE [0x00] END_REQSTACK()
```

### Event 65535.12

#### Metadata

| Field        | Value    |
|--------------|----------|
| Entrypoint   | 0x00EF   |
| Data Size    | 21 bytes |
| Instructions | 2        |

```
      00 01 02 03 04 05 06 07  08 09 0A 0B 0C 0D 0E 0F
      -- -- -- -- -- -- -- --  -- -- -- -- -- -- -- --
00E0:                                               B6                 .
00F0: 0B 24 80 25 80 0F 80 1A  80 23 80 23 80 23 80 02  .$.%.....#.#.#..
0100: 80 02 80 00                                       ....            
```

#### Opcodes

```
  0: 0x00EF [0xB6] ENTITY_APPEARANCE_HANDLER(case=Full entity look, race=2*, hair=15*, head=4*, body=24*, hands=17*, legs=17*, feet=17*, main=0*, sub=0*)
  1: 0x0103 [0x00] END_REQSTACK()
```

### Event 65535.13

#### Metadata

| Field        | Value    |
|--------------|----------|
| Entrypoint   | 0x0104   |
| Data Size    | 21 bytes |
| Instructions | 2        |

```
      00 01 02 03 04 05 06 07  08 09 0A 0B 0C 0D 0E 0F
      -- -- -- -- -- -- -- --  -- -- -- -- -- -- -- --
0100:             B6 0B 00 80  02 80 02 80 02 80 02 80      ............
0110: 02 80 02 80 02 80 02 80  00                       .........       
```

#### Opcodes

```
  0: 0x0104 [0xB6] ENTITY_APPEARANCE_HANDLER(case=Full entity look, race=1*, hair=0*, head=0*, body=0*, hands=0*, legs=0*, feet=0*, main=0*, sub=0*)
  1: 0x0118 [0x00] END_REQSTACK()
```

### Event 65535.14

#### Metadata

| Field        | Value    |
|--------------|----------|
| Entrypoint   | 0x0119   |
| Data Size    | 10 bytes |
| Instructions | 2        |

```
      00 01 02 03 04 05 06 07  08 09 0A 0B 0C 0D 0E 0F
      -- -- -- -- -- -- -- --  -- -- -- -- -- -- -- --
0110:                             6C F8 FF FF 7F 02 80           l......
0120: 00 80 00                                          ...             
```

#### Opcodes

```
  0: 0x0119 [0x6C] FADE_ENTITY_COLOR(entity_id=EventEntity, end_alpha=0*, fade_time=1*)
  1: 0x0122 [0x00] END_REQSTACK()
```

### Event 65535.15

#### Metadata

| Field        | Value    |
|--------------|----------|
| Entrypoint   | 0x0123   |
| Data Size    | 10 bytes |
| Instructions | 2        |

```
      00 01 02 03 04 05 06 07  08 09 0A 0B 0C 0D 0E 0F
      -- -- -- -- -- -- -- --  -- -- -- -- -- -- -- --
0120:          6C F8 FF FF 7F  26 80 00 80 00              l....&....   
```

#### Opcodes

```
  0: 0x0123 [0x6C] FADE_ENTITY_COLOR(entity_id=EventEntity, end_alpha=128*, fade_time=1*)
  1: 0x012C [0x00] END_REQSTACK()
```
