# 17236368

## Common Data

| Field            | Value               |
|------------------|---------------------|
| Zone             | Xarcabard (ID: 112) |
| Block Size       | 2876 bytes          |
| Total Events     | 3                   |
| References Count | 83                  |

## List of Events

| Event ID              | Entrypoint   |   Size |   Instructions |
|-----------------------|--------------|--------|----------------|
| [65535](#event-65535) | 0x0000       |      1 |              1 |
| [58](#event-58)       | 0x0001       |   1056 |            150 |
| [59](#event-59)       | 0x0421       |   1459 |            176 |

## DAT References (imed_data)

|   Index | Hex Value   |   Dec Value |
|---------|-------------|-------------|
|       0 | 0x0013      |          19 |
|       1 | 0x41E75     |      269941 |
|       2 | 0xFFFED8E5  |  4294891749 |
|       3 | 0xFFFFE1D6  |  4294959574 |
|       4 | 0x0BFE      |        3070 |
|       5 | 0x400E5     |      262373 |
|       6 | 0xFFFEB206  |  4294881798 |
|       7 | 0xFFFFDF2D  |  4294958893 |
|       8 | 0x0DA7      |        3495 |
|       9 | 0x173A7     |       95143 |
|      10 | 0xFFF6F220  |  4294373920 |
|      11 | 0xFFFEE4CC  |  4294894796 |
|      12 | 0x0396      |         918 |
|      13 | 0x4289D     |      272541 |
|      14 | 0xFFFEB4C6  |  4294882502 |
|      15 | 0xFFFF7393  |  4294931347 |
|      16 | 0x02D8      |         728 |
|      17 | 0x001E      |          30 |
|      18 | 0x01EA      |         490 |
|      19 | 0x0000      |           0 |
|      20 | 0x0078      |         120 |
|      21 | 0x003C      |          60 |
|      22 | 0x000A      |          10 |
|      23 | 0x0014      |          20 |
|      24 | 0x2CF8      |       11512 |
|      25 | 0x000F      |          15 |
|      26 | 0x2CF9      |       11513 |
|      27 | 0x2CFA      |       11514 |
|      28 | 0x2CFB      |       11515 |
|      29 | 0x002C      |          44 |
|      30 | 0x002D      |          45 |
|      31 | 0x04F7      |        1271 |
|      32 | 0x2CFC      |       11516 |
|      33 | 0x2CFD      |       11517 |
|      34 | 0x2CFE      |       11518 |
|      35 | 0x2CFF      |       11519 |
|      36 | 0x0096      |         150 |
|      37 | 0x2D00      |       11520 |
|      38 | 0x2D01      |       11521 |
|      39 | 0x00D5      |         213 |
|      40 | 0x2D02      |       11522 |
|      41 | 0x00FF      |         255 |
|      42 | 0x2D03      |       11523 |
|      43 | 0x2D04      |       11524 |
|      44 | 0x0023      |          35 |
|      45 | 0x2D05      |       11525 |
|      46 | 0x00B4      |         180 |
|      47 | 0x2D06      |       11526 |
|      48 | 0x0007      |           7 |
|      49 | 0x2D07      |       11527 |
|      50 | 0x00A4      |         164 |
|      51 | 0x00C8      |         200 |
|      52 | 0x012C      |         300 |
|      53 | 0x41E7A     |      269946 |
|      54 | 0xFFFED412  |  4294890514 |
|      55 | 0xFFFFE1ED  |  4294959597 |
|      56 | 0x0413      |        1043 |
|      57 | 0x41E2A     |      269866 |
|      58 | 0xFFFEC73C  |  4294887228 |
|      59 | 0xFFFFE1EC  |  4294959596 |
|      60 | 0x0C0C      |        3084 |
|      61 | 0x0001      |           1 |
|      62 | 0x0050      |          80 |
|      63 | 0x2D08      |       11528 |
|      64 | 0x2D09      |       11529 |
|      65 | 0x0006      |           6 |
|      66 | 0x2D0A      |       11530 |
|      67 | 0x0091      |         145 |
|      68 | 0x2D0B      |       11531 |
|      69 | 0x005B      |          91 |
|      70 | 0x2D0C      |       11532 |
|      71 | 0x2D0D      |       11533 |
|      72 | 0x2D0E      |       11534 |
|      73 | 0x001D      |          29 |
|      74 | 0x2D0F      |       11535 |
|      75 | 0x2D10      |       11536 |
|      76 | 0x2D11      |       11537 |
|      77 | 0x2D12      |       11538 |
|      78 | 0x2D13      |       11539 |
|      79 | 0x2D14      |       11540 |
|      80 | 0x00C9      |         201 |
|      81 | 0x0002      |           2 |
|      82 | 0x00D7      |         215 |

## Events

### Event 65535

#### Metadata

| Field        | Value   |
|--------------|---------|
| Entrypoint   | 0x0000  |
| Data Size    | 1 bytes |
| Instructions | 1       |

```
      00 01 02 03 04 05 06 07  08 09 0A 0B 0C 0D 0E 0F
      -- -- -- -- -- -- -- --  -- -- -- -- -- -- -- --
0000: 00                                                .               
```

#### Opcodes

```
  0: 0x0000 [0x00] END_REQSTACK()
```

### Event 58

#### Metadata

| Field        | Value      |
|--------------|------------|
| Entrypoint   | 0x0001     |
| Data Size    | 1056 bytes |
| Instructions | 150        |

```
      00 01 02 03 04 05 06 07  08 09 0A 0B 0C 0D 0E 0F
      -- -- -- -- -- -- -- --  -- -- -- -- -- -- -- --
0000:    42 1A A6 07 46 01 38  00 80 27 10 91 01 07 01   B...F.8..'.....
0010: 04 27 10 92 01 07 01 04  4E 00 7D 01 07 01 4E 00  .'......N.}...N.
0020: 7C 01 07 01 92 01 91 01  07 01 94 01 F0 FF FF 7F  |...............
0030: 94 01 91 01 07 01 94 01  7B 01 07 01 94 01 7D 01  ........{.....}.
0040: 07 01 94 01 7C 01 07 01  94 01 92 01 07 01 BA F0  ....|...........
0050: FF FF 7F 01 80 02 80 03  80 04 80 BA 91 01 07 01  ................
0060: 05 80 06 80 07 80 08 80  59 05 7D 01 07 01 01 BA  ........Y.}.....
0070: 7D 01 07 01 09 80 0A 80  0B 80 0C 80 59 05 7C 01  }...........Y.|.
0080: 07 01 01 BA 7C 01 07 01  0D 80 0E 80 0F 80 10 80  ....|...........
0090: 59 05 92 01 07 01 01 BA  92 01 07 01 0D 80 0E 80  Y...............
00A0: 0F 80 10 80 29 10 91 01  07 01 0A 29 10 92 01 07  ....)......)....
00B0: 01 09 80 F0 FF FF 7F 80  91 01 07 01 80 7B 01 07  .............{..
00C0: 01 80 92 01 07 01 1C 11  80 45 12 80 F0 FF FF 7F  .........E......
00D0: F0 FF FF 7F 37 37 30 30  13 80 1A 85 07 1C 14 80  ....7700........
00E0: 52 12 80 F0 FF FF 7F F0  FF FF 7F 37 37 30 30 45  R..........7700E
00F0: 12 80 F0 FF FF 7F F0 FF  FF 7F 37 37 30 31 13 80  ..........7701..
0100: 1C 11 80 79 00 F0 FF FF  7F 7B 01 07 01 1C 15 80  ...y.....{......
0110: 27 10 91 01 07 01 0C 1C  16 80 5D 13 80 14 80 52  '.........]....R
0120: 12 80 F0 FF FF 7F F0 FF  FF 7F 37 37 30 31 45 12  ..........7701E.
0130: 80 F0 FF FF 7F F0 FF FF  7F 37 37 30 32 13 80 1C  .........7702...
0140: 17 80 2B 91 01 07 01 18  80 1C 19 80 4A F0 FF FF  ..+.........J...
0150: 7F 91 01 07 01 1C 11 80  23 2A 10 91 01 07 01 52  ........#*.....R
0160: 12 80 F0 FF FF 7F F0 FF  FF 7F 37 37 30 32 45 12  ..........7702E.
0170: 80 F0 FF FF 7F F0 FF FF  7F 37 37 30 33 13 80 29  .........7703..)
0180: 10 91 01 07 01 0B 2B 91  01 07 01 1A 80 23 2B 91  ......+......#+.
0190: 01 07 01 1B 80 23 2B 91  01 07 01 1C 80 23 5C 00  .....#+......#\.
01A0: 1D 80 5C 01 1D 80 9A 27  10 91 01 07 01 0D 1C 19  ..\....'........
01B0: 80 52 12 80 F0 FF FF 7F  F0 FF FF 7F 37 37 30 33  .R..........7703
01C0: 45 12 80 F0 FF FF 7F F0  FF FF 7F 37 37 30 34 13  E..........7704.
01D0: 80 1C 1E 80 03 02 10 1F  80 2B 91 01 07 01 20 80  .........+.... .
01E0: 23 2A 10 91 01 07 01 52  12 80 F0 FF FF 7F F0 FF  #*.....R........
01F0: FF 7F 37 37 30 34 45 12  80 F0 FF FF 7F F0 FF FF  ..7704E.........
0200: 7F 37 37 30 35 13 80 79  00 91 01 07 01 7B 01 07  .7705..y.....{..
0210: 01 1C 1E 80 2B 91 01 07  01 21 80 23 2B 91 01 07  ....+....!.#+...
0220: 01 22 80 23 52 12 80 F0  FF FF 7F F0 FF FF 7F 37  .".#R..........7
0230: 37 30 35 45 12 80 F0 FF  FF 7F F0 FF FF 7F 37 37  705E..........77
0240: 31 32 13 80 79 00 91 01  07 01 F0 FF FF 7F 2B 91  12..y.........+.
0250: 01 07 01 23 80 1C 24 80  23 4A 91 01 07 01 F0 FF  ...#..$.#J......
0260: FF 7F 52 12 80 F0 FF FF  7F F0 FF FF 7F 37 37 31  ..R..........771
0270: 32 45 12 80 F0 FF FF 7F  F0 FF FF 7F 37 37 30 36  2E..........7706
0280: 13 80 6F 76 91 01 07 01  2B 91 01 07 01 25 80 23  ..ov....+....%.#
0290: 2B 91 01 07 01 26 80 23  C5 27 80 7C 01 07 01 7C  +....&.#.'.|...|
02A0: 01 07 01 73 30 30 30 13  80 52 12 80 F0 FF FF 7F  ...s000..R......
02B0: F0 FF FF 7F 37 37 30 36  45 12 80 F0 FF FF 7F F0  ....7706E.......
02C0: FF FF 7F 37 37 30 37 13  80 2B 91 01 07 01 28 80  ...7707..+....(.
02D0: 1C 14 80 23 52 12 80 F0  FF FF 7F F0 FF FF 7F 37  ...#R..........7
02E0: 37 30 37 45 12 80 F0 FF  FF 7F F0 FF FF 7F 37 37  707E..........77
02F0: 30 39 13 80 77 29 80 00  80 AB 09 1C 15 80 2B 91  09..w)........+.
0300: 01 07 01 2A 80 23 52 12  80 F0 FF FF 7F F0 FF FF  ...*.#R.........
0310: 7F 37 37 30 39 45 12 80  F0 FF FF 7F F0 FF FF 7F  .7709E..........
0320: 37 37 30 38 13 80 1C 15  80 2B 91 01 07 01 2B 80  7708.....+....+.
0330: 23 52 12 80 F0 FF FF 7F  F0 FF FF 7F 37 37 30 38  #R..........7708
0340: 45 12 80 F0 FF FF 7F F0  FF FF 7F 37 37 31 30 13  E..........7710.
0350: 80 AB 0A 78 1C 11 80 C5  27 80 7C 01 07 01 7C 01  ...x....'.|...|.
0360: 07 01 6B 69 6C 30 13 80  1C 11 80 4E 01 92 01 07  ..kil0.....N....
0370: 01 6E 91 01 07 01 2C 80  99 91 01 07 01 2B 91 01  .n....,......+..
0380: 07 01 2D 80 1C 2E 80 23  79 00 91 01 07 01 7B 01  ..-....#y.....{.
0390: 07 01 1C 11 80 2B 91 01  07 01 2F 80 23 1C 14 80  .....+..../.#...
03A0: 23 52 12 80 F0 FF FF 7F  F0 FF FF 7F 37 37 31 30  #R..........7710
03B0: 45 12 80 F0 FF FF 7F F0  FF FF 7F 37 37 31 31 13  E..........7711.
03C0: 80 7B 91 01 07 01 1C 1E  80 6E 91 01 07 01 30 80  .{.......n....0.
03D0: 99 91 01 07 01 2B 91 01  07 01 31 80 23 1A A6 07  .....+....1.#...
03E0: 1C 11 80 52 12 80 F0 FF  FF 7F F0 FF FF 7F 37 37  ...R..........77
03F0: 31 31 45 12 80 F0 FF FF  7F F0 FF FF 7F 30 62 6C  11E..........0bl
0400: 66 13 80 5C 00 32 80 5C  01 32 80 9A 46 00 45 33  f..\.2.\.2..F.E3
0410: 80 F0 FF FF 7F F0 FF FF  7F 66 64 69 32 13 80 21  .........fdi2..!
0420: 00                                                .               
```

#### Opcodes

```
  0: 0x0001 [0x42] SET_CLI_EVENT_CANCEL_DATA()
  1: 0x0002 [0x1A] CALL_SUBROUTINE(address=0x07A6)
  2: 0x0005 [0x46] CAMERA_CONTROL: Disable user control
  3: 0x0007 [0x38] SET_CLIENT_EVENT_MODE(mode=19*)
  4: 0x000A [0x27] REQ_SET(priority=0x10, entity_id=Alberic (ID: 17236369/0x01070191), tag_num=0x04)
  5: 0x0011 [0x27] REQ_SET(priority=0x10, entity_id=Unnamed NPC (ID: 17236370/0x01070192), tag_num=0x04)
  6: 0x0018 [0x4E] SET_ENTITY_HIDE_FLAG: Show Unnamed NPC (ID: 17236349/0x0107017D)
  7: 0x001E [0x4E] SET_ENTITY_HIDE_FLAG: Show ??? (ID: 17236348/0x0107017C)
  8: 0x0024 [0x92] Alberic (ID: 17236369/0x01070191)->Render.Flags3 ^= 0x01
  9: 0x002A [0x94] LocalPlayer->Render.Flags3 ^= 0x01
 10: 0x0030 [0x94] Alberic (ID: 17236369/0x01070191)->Render.Flags3 ^= 0x01
 11: 0x0036 [0x94] Cavernous Maw (ID: 17236347/0x0107017B)->Render.Flags3 ^= 0x01
 12: 0x003C [0x94] Unnamed NPC (ID: 17236349/0x0107017D)->Render.Flags3 ^= 0x01
 13: 0x0042 [0x94] ??? (ID: 17236348/0x0107017C)->Render.Flags3 ^= 0x01
 14: 0x0048 [0x94] Unnamed NPC (ID: 17236370/0x01070192)->Render.Flags3 ^= 0x01
 15: 0x004E [0xBA] SET_ENTITY_POSITION(entity_id=LocalPlayer, pos_x=269.941*, pos_z=-75.547*, pos_y=-7.722*, direction=269.8°*)
 16: 0x005B [0xBA] SET_ENTITY_POSITION(entity_id=Alberic (ID: 17236369/0x01070191), pos_x=262.373*, pos_z=-85.498*, pos_y=-8.403*, direction=307.2°*)
 17: 0x0068 [0x59] UPDATE_ENTITY_DATA: Unnamed NPC (ID: 17236349/0x0107017D)->Render.Flags0 |= 0x200000
 18: 0x006F [0xBA] SET_ENTITY_POSITION(entity_id=Unnamed NPC (ID: 17236349/0x0107017D), pos_x=95.143*, pos_z=-593.376*, pos_y=-72.500*, direction=80.7°*)
 19: 0x007C [0x59] UPDATE_ENTITY_DATA: ??? (ID: 17236348/0x0107017C)->Render.Flags0 |= 0x200000
 20: 0x0083 [0xBA] SET_ENTITY_POSITION(entity_id=??? (ID: 17236348/0x0107017C), pos_x=272.541*, pos_z=-84.794*, pos_y=-35.949*, direction=64.0°*)
 21: 0x0090 [0x59] UPDATE_ENTITY_DATA: Unnamed NPC (ID: 17236370/0x01070192)->Render.Flags0 |= 0x200000
 22: 0x0097 [0xBA] SET_ENTITY_POSITION(entity_id=Unnamed NPC (ID: 17236370/0x01070192), pos_x=272.541*, pos_z=-84.794*, pos_y=-35.949*, direction=64.0°*)
 23: 0x00A4 [0x29] REQ_SET_WAIT(priority=0x10, entity_id=Alberic (ID: 17236369/0x01070191), tag_num=0x0A)
 24: 0x00AB [0x29] REQ_SET_WAIT(priority=0x10, entity_id=Unnamed NPC (ID: 17236370/0x01070192), tag_num=0x09)
 25: 0x00B2 [0x80] LOAD_WAIT(entity=LocalPlayer)
 26: 0x00B7 [0x80] LOAD_WAIT(entity=Alberic (ID: 17236369/0x01070191))
 27: 0x00BC [0x80] LOAD_WAIT(entity=Cavernous Maw (ID: 17236347/0x0107017B))
 28: 0x00C1 [0x80] LOAD_WAIT(entity=Unnamed NPC (ID: 17236370/0x01070192))
 29: 0x00C6 [0x1C] WAIT(30* ticks)
 30: 0x00C9 [0x45] LOAD_SCHEDULED_TASK: Load scheduler "7700" with entities [LocalPlayer, LocalPlayer], work=[490*, 0*]
 31: 0x00DA [0x1A] CALL_SUBROUTINE(address=0x0785)
 32: 0x00DD [0x1C] WAIT(120* ticks)
 33: 0x00E0 [0x52] END_LOAD_SCHEDULER: End scheduler "7700" with entities [LocalPlayer, LocalPlayer], work=490*
 34: 0x00EF [0x45] LOAD_SCHEDULED_TASK: Load scheduler "7701" with entities [LocalPlayer, LocalPlayer], work=[490*, 0*]
 35: 0x0100 [0x1C] WAIT(30* ticks)
 36: 0x0103 [0x79] LocalPlayer looks at Cavernous Maw (ID: 17236347/0x0107017B) (Basic look)
 37: 0x010D [0x1C] WAIT(60* ticks)
 38: 0x0110 [0x27] REQ_SET(priority=0x10, entity_id=Alberic (ID: 17236369/0x01070191), tag_num=0x0C)
 39: 0x0117 [0x1C] WAIT(10* ticks)
 40: 0x011A [0x5D] SET_MUSIC_VOLUME(volume=0*, fade_time=120*)
 41: 0x011F [0x52] END_LOAD_SCHEDULER: End scheduler "7701" with entities [LocalPlayer, LocalPlayer], work=490*
 42: 0x012E [0x45] LOAD_SCHEDULED_TASK: Load scheduler "7702" with entities [LocalPlayer, LocalPlayer], work=[490*, 0*]
 43: 0x013F [0x1C] WAIT(20* ticks)
 44: 0x0142 [0x2B] Alberic (ID: 17236369/0x01070191) [11512*]:
    → "<Ahem>! <Player>, I presume."
 45: 0x0149 [0x1C] WAIT(15* ticks)
 46: 0x014C [0x4A] LocalPlayer looks at Alberic (ID: 17236369/0x01070191)
 47: 0x0155 [0x1C] WAIT(30* ticks)
 48: 0x0158 [0x23] WAIT_FOR_DIALOG_INTERACTION
 49: 0x0159 [0x2A] GET_REQ_LEVEL(level=16, entity_id=Alberic (ID: 17236369/0x01070191))
 50: 0x015F [0x52] END_LOAD_SCHEDULER: End scheduler "7702" with entities [LocalPlayer, LocalPlayer], work=490*
 51: 0x016E [0x45] LOAD_SCHEDULED_TASK: Load scheduler "7703" with entities [LocalPlayer, LocalPlayer], work=[490*, 0*]
 52: 0x017F [0x29] REQ_SET_WAIT(priority=0x10, entity_id=Alberic (ID: 17236369/0x01070191), tag_num=0x0B)
 53: 0x0186 [0x2B] Alberic (ID: 17236369/0x01070191) [11513*]:
    → "Well met, good [sir/madam]. My name is Alberic, and I have the pleasure of being Joachim's compatriot from Abyssea."
 54: 0x018D [0x23] WAIT_FOR_DIALOG_INTERACTION
 55: 0x018E [0x2B] Alberic (ID: 17236369/0x01070191) [11514*]:
    → "As I am pressed for time, you must forgive me for forgoing pleasantries."
 56: 0x0195 [0x23] WAIT_FOR_DIALOG_INTERACTION
 57: 0x0196 [0x2B] Alberic (ID: 17236369/0x01070191) [11515*]:
    → "The Northlands of our two worlds are not dissimilar: they both are shrouded in mystery and held in trepidation by folk."
 58: 0x019D [0x23] WAIT_FOR_DIALOG_INTERACTION
 59: 0x019E [0x5C] MUSIC_CONTROL: Set Idle (Day) music to song 44*
 60: 0x01A2 [0x5C] MUSIC_CONTROL: Set Idle (Night) music to song 44*
 61: 0x01A6 [0x9A] WAIT_MUSIC_SERVER()
 62: 0x01A7 [0x27] REQ_SET(priority=0x10, entity_id=Alberic (ID: 17236369/0x01070191), tag_num=0x0D)
 63: 0x01AE [0x1C] WAIT(15* ticks)
 64: 0x01B1 [0x52] END_LOAD_SCHEDULER: End scheduler "7703" with entities [LocalPlayer, LocalPlayer], work=490*
 65: 0x01C0 [0x45] LOAD_SCHEDULED_TASK: Load scheduler "7704" with entities [LocalPlayer, LocalPlayer], work=[490*, 0*]
 66: 0x01D1 [0x1C] WAIT(45* ticks)
 67: 0x01D4 [0x03] Work_Zone[2] = 1271*
 68: 0x01D9 [0x2B] Alberic (ID: 17236369/0x01070191) [11516*]:
    → "That you now stand before this cavernous maw, $3 in hand, is silent affirmation of your intent."
 69: 0x01E0 [0x23] WAIT_FOR_DIALOG_INTERACTION
 70: 0x01E1 [0x2A] GET_REQ_LEVEL(level=16, entity_id=Alberic (ID: 17236369/0x01070191))
 71: 0x01E7 [0x52] END_LOAD_SCHEDULER: End scheduler "7704" with entities [LocalPlayer, LocalPlayer], work=490*
 72: 0x01F6 [0x45] LOAD_SCHEDULED_TASK: Load scheduler "7705" with entities [LocalPlayer, LocalPlayer], work=[490*, 0*]
 73: 0x0207 [0x79] Alberic (ID: 17236369/0x01070191) looks at Cavernous Maw (ID: 17236347/0x0107017B) (Basic look)
 74: 0x0211 [0x1C] WAIT(45* ticks)
 75: 0x0214 [0x2B] Alberic (ID: 17236369/0x01070191) [11517*]:
    → "Firstly, you would do well to remember that the portal, despite its location in Xarcabard, leads in fact to the Uleguerand Range."
 76: 0x021B [0x23] WAIT_FOR_DIALOG_INTERACTION
 77: 0x021C [0x2B] Alberic (ID: 17236369/0x01070191) [11518*]:
    → "Reports suggest that such maws exiting into alternate locales are not altogether uncommon, although the scientific explanation for this phenomenon eludes our researchers still."
 78: 0x0223 [0x23] WAIT_FOR_DIALOG_INTERACTION
 79: 0x0224 [0x52] END_LOAD_SCHEDULER: End scheduler "7705" with entities [LocalPlayer, LocalPlayer], work=490*
 80: 0x0233 [0x45] LOAD_SCHEDULED_TASK: Load scheduler "7712" with entities [LocalPlayer, LocalPlayer], work=[490*, 0*]
 81: 0x0244 [0x79] Alberic (ID: 17236369/0x01070191) looks at LocalPlayer (Basic look)
 82: 0x024E [0x2B] Alberic (ID: 17236369/0x01070191) [11519*]:
    → "For our intents and purposes, however, such matters are of small import."
 83: 0x0255 [0x1C] WAIT(150* ticks)
 84: 0x0258 [0x23] WAIT_FOR_DIALOG_INTERACTION
 85: 0x0259 [0x4A] Alberic (ID: 17236369/0x01070191) looks at LocalPlayer
 86: 0x0262 [0x52] END_LOAD_SCHEDULER: End scheduler "7712" with entities [LocalPlayer, LocalPlayer], work=490*
 87: 0x0271 [0x45] LOAD_SCHEDULED_TASK: Load scheduler "7706" with entities [LocalPlayer, LocalPlayer], work=[490*, 0*]
 88: 0x0282 [0x6F] WAIT_FRAME_DELAY: Yield until WaitTime reaches zero
 89: 0x0283 [0x76] CHECK_ENTITY_RENDER_FLAGS: Wait until Alberic (ID: 17236369/0x01070191) Render.Flags0 and Render.Flags3 conditions are met
 90: 0x0288 [0x2B] Alberic (ID: 17236369/0x01070191) [11520*]:
    → "The problems that want for our solving are far more urgent and dire in nature."
 91: 0x028F [0x23] WAIT_FOR_DIALOG_INTERACTION
 92: 0x0290 [0x2B] Alberic (ID: 17236369/0x01070191) [11521*]:
    → "The Uleguerand Range... 'Twould be no exaggeration to call that place a frozen hell on Abyssea. There, 'tis as if nature herself desires the eradication of mankind."
 93: 0x0297 [0x23] WAIT_FOR_DIALOG_INTERACTION
 94: 0x0298 [0xC5] LOAD_SCHEDULED_TASK_ALT3: Load scheduler 0x80133030 for entities [??? (ID: 17236348/0x0107017C), ??? (ID: 17236348/0x0107017C)], work=213*, param=12403
 95: 0x02A9 [0x52] END_LOAD_SCHEDULER: End scheduler "7706" with entities [LocalPlayer, LocalPlayer], work=490*
 96: 0x02B8 [0x45] LOAD_SCHEDULED_TASK: Load scheduler "7707" with entities [LocalPlayer, LocalPlayer], work=[490*, 0*]
 97: 0x02C9 [0x2B] Alberic (ID: 17236369/0x01070191) [11522*]:
    → "The strength your folk possess is fabled among my people. Nevertheless, one can never be too prudent when one's life is at stake. I urge you to practice due caution as you traverse Uleguerand's white fields of death."
 98: 0x02D0 [0x1C] WAIT(120* ticks)
 99: 0x02D3 [0x23] WAIT_FOR_DIALOG_INTERACTION
100: 0x02D4 [0x52] END_LOAD_SCHEDULER: End scheduler "7707" with entities [LocalPlayer, LocalPlayer], work=490*
101: 0x02E3 [0x45] LOAD_SCHEDULED_TASK: Load scheduler "7709" with entities [LocalPlayer, LocalPlayer], work=[490*, 0*]
102: 0x02F4 [0x77] SET_EVENT_TIME_WEATHER(hour=255*, weather=19*)
103: 0x02F9 [0xAB] EventEntity->UnknownFlag = 1 // Enable unknown flag
104: 0x02FB [0x1C] WAIT(60* ticks)
105: 0x02FE [0x2B] Alberic (ID: 17236369/0x01070191) [11523*]:
    → "In particular, you would do well to stay on constant alert for a grotesquely overlarge diremite."
106: 0x0305 [0x23] WAIT_FOR_DIALOG_INTERACTION
107: 0x0306 [0x52] END_LOAD_SCHEDULER: End scheduler "7709" with entities [LocalPlayer, LocalPlayer], work=490*
108: 0x0315 [0x45] LOAD_SCHEDULED_TASK: Load scheduler "7708" with entities [LocalPlayer, LocalPlayer], work=[490*, 0*]
109: 0x0326 [0x1C] WAIT(60* ticks)
110: 0x0329 [0x2B] Alberic (ID: 17236369/0x01070191) [11524*]:
    → "Of a size to dwarf its cousins, this vermin has a spine-chilling relish for man-flesh. Needless to say, this predilection is proving to be highly unfortunate for folk who subsist in the range."
111: 0x0330 [0x23] WAIT_FOR_DIALOG_INTERACTION
112: 0x0331 [0x52] END_LOAD_SCHEDULER: End scheduler "7708" with entities [LocalPlayer, LocalPlayer], work=490*
113: 0x0340 [0x45] LOAD_SCHEDULED_TASK: Load scheduler "7710" with entities [LocalPlayer, LocalPlayer], work=[490*, 0*]
114: 0x0351 [0xAB] EventEntity->UnknownFlag = 0 // Disable unknown flag
115: 0x0353 [0x78] ENABLE_GAME_TIMER_RESET_WEATHER()
116: 0x0354 [0x1C] WAIT(30* ticks)
117: 0x0357 [0xC5] LOAD_SCHEDULED_TASK_ALT3: Load scheduler 0x8013306C for entities [??? (ID: 17236348/0x0107017C), ??? (ID: 17236348/0x0107017C)], work=213*, param=26987
118: 0x0368 [0x1C] WAIT(30* ticks)
119: 0x036B [0x4E] SET_ENTITY_HIDE_FLAG: Hide Unnamed NPC (ID: 17236370/0x01070192)
120: 0x0371 [0x6E] Alberic (ID: 17236369/0x01070191) uses emote 35*
121: 0x0378 [0x99] Wait for Alberic (ID: 17236369/0x01070191) animation to complete
122: 0x037D [0x2B] Alberic (ID: 17236369/0x01070191) [11525*]:
    → "All efforts to slay the savage fiend have thus far proven fruitless...and costly. To compound matters, the difficult terrain hinders our attempts to devise effective strategies. Be ever wary out there, <Player>, lest you be caught unawares by this nightmare creature."
123: 0x0384 [0x1C] WAIT(180* ticks)
124: 0x0387 [0x23] WAIT_FOR_DIALOG_INTERACTION
125: 0x0388 [0x79] Alberic (ID: 17236369/0x01070191) looks at Cavernous Maw (ID: 17236347/0x0107017B) (Basic look)
126: 0x0392 [0x1C] WAIT(30* ticks)
127: 0x0395 [0x2B] Alberic (ID: 17236369/0x01070191) [11526*]:
    → "Hmm, 'twould appear my visit is at an end. I must needs return to Abyssea."
128: 0x039C [0x23] WAIT_FOR_DIALOG_INTERACTION
129: 0x039D [0x1C] WAIT(120* ticks)
130: 0x03A0 [0x23] WAIT_FOR_DIALOG_INTERACTION
131: 0x03A1 [0x52] END_LOAD_SCHEDULER: End scheduler "7710" with entities [LocalPlayer, LocalPlayer], work=490*
132: 0x03B0 [0x45] LOAD_SCHEDULED_TASK: Load scheduler "7711" with entities [LocalPlayer, LocalPlayer], work=[490*, 0*]
133: 0x03C1 [0x7B] Alberic (ID: 17236369/0x01070191) stops talking
134: 0x03C6 [0x1C] WAIT(45* ticks)
135: 0x03C9 [0x6E] Alberic (ID: 17236369/0x01070191) uses emote 7*
136: 0x03D0 [0x99] Wait for Alberic (ID: 17236369/0x01070191) animation to complete
137: 0x03D5 [0x2B] Alberic (ID: 17236369/0x01070191) [11527*]:
    → "I pray that the heavens shall grant us another meeting. Fare you well."
138: 0x03DC [0x23] WAIT_FOR_DIALOG_INTERACTION
139: 0x03DD [0x1A] CALL_SUBROUTINE(address=0x07A6)
140: 0x03E0 [0x1C] WAIT(30* ticks)
141: 0x03E3 [0x52] END_LOAD_SCHEDULER: End scheduler "7711" with entities [LocalPlayer, LocalPlayer], work=490*
142: 0x03F2 [0x45] LOAD_SCHEDULED_TASK: Load scheduler "0blf" with entities [LocalPlayer, LocalPlayer], work=[490*, 0*]
143: 0x0403 [0x5C] MUSIC_CONTROL: Set Idle (Day) music to song 164*
144: 0x0407 [0x5C] MUSIC_CONTROL: Set Idle (Night) music to song 164*
145: 0x040B [0x9A] WAIT_MUSIC_SERVER()
146: 0x040C [0x46] CAMERA_CONTROL: Restore default settings
147: 0x040E [0x45] LOAD_SCHEDULED_TASK: Load scheduler "fdi2" with entities [LocalPlayer, LocalPlayer], work=[200*, 0*]
148: 0x041F [0x21] END_EVENT
149: 0x0420 [0x00] END_REQSTACK()
```

### Event 59

#### Metadata

| Field        | Value      |
|--------------|------------|
| Entrypoint   | 0x0421     |
| Data Size    | 1459 bytes |
| Instructions | 121        |

```
      00 01 02 03 04 05 06 07  08 09 0A 0B 0C 0D 0E 0F
      -- -- -- -- -- -- -- --  -- -- -- -- -- -- -- --
0420:    42 1A A6 07 46 01 38  00 80 4E 00 F0 FF FF 7F   B...F.8..N.....
0430: 5D 13 80 34 80 27 10 91  01 07 01 04 4E 00 7D 01  ]..4.'......N.}.
0440: 07 01 4E 00 7C 01 07 01  92 01 F0 FF FF 7F 92 01  ..N.|...........
0450: 91 01 07 01 94 01 F0 FF  FF 7F 94 01 91 01 07 01  ................
0460: 94 01 7B 01 07 01 94 01  7D 01 07 01 94 01 7C 01  ..{.....}.....|.
0470: 07 01 BA F0 FF FF 7F 35  80 36 80 37 80 38 80 BA  .......5.6.7.8..
0480: 91 01 07 01 39 80 3A 80  3B 80 3C 80 80 F0 FF FF  ....9.:.;.<.....
0490: 7F 80 91 01 07 01 80 7B  01 07 01 6C F0 FF FF 7F  .......{...l....
04A0: 13 80 3D 80 29 10 F0 FF  FF 7F 2A 1C 11 80 45 12  ..=.).....*...E.
04B0: 80 F0 FF FF 7F F0 FF FF  7F 37 37 32 30 13 80 1A  .........7720...
04C0: 85 07 CD 3E 80 F0 FF FF  7F F0 FF FF 7F 6D 61 69  ...>.........mai
04D0: 6E 13 80 1C 14 80 92 00  F0 FF FF 7F 1C 11 80 79  n..............y
04E0: 00 F0 FF FF 7F 91 01 07  01 27 10 F0 FF FF 7F 2B  .........'.....+
04F0: 1C 11 80 2B 91 01 07 01  3F 80 23 52 12 80 F0 FF  ...+....?.#R....
0500: FF 7F F0 FF FF 7F 37 37  32 30 45 12 80 F0 FF FF  ......7720E.....
0510: 7F F0 FF FF 7F 37 37 32  31 13 80 2B 91 01 07 01  .....7721..+....
0520: 40 80 23 6E 91 01 07 01  41 80 99 91 01 07 01 2B  @.#n....A......+
0530: 91 01 07 01 42 80 1C 24  80 23 5C 00 43 80 5C 01  ....B..$.#\.C.\.
0540: 43 80 9A 27 10 91 01 07  01 0E 1C 17 80 52 12 80  C..'.........R..
0550: F0 FF FF 7F F0 FF FF 7F  37 37 32 31 45 12 80 F0  ........7721E...
0560: FF FF 7F F0 FF FF 7F 37  37 32 32 13 80 2A 10 91  .......7722..*..
0570: 01 07 01 1C 11 80 2B 91  01 07 01 44 80 23 7B 91  ......+....D.#{.
0580: 01 07 01 66 45 80 91 01  07 01 91 01 07 01 70 61  ...fE.........pa
0590: 73 30 53 91 01 07 01 91  01 07 01 70 61 73 30 2B  s0S........pas0+
05A0: 91 01 07 01 46 80 23 52  12 80 F0 FF FF 7F F0 FF  ....F.#R........
05B0: FF 7F 37 37 32 32 45 12  80 F0 FF FF 7F F0 FF FF  ..7722E.........
05C0: 7F 37 37 32 33 13 80 03  01 10 3D 80 43 00 43 01  .7723.....=.C.C.
05D0: 2B 91 01 07 01 47 80 23  2B 91 01 07 01 48 80 23  +....G.#+....H.#
05E0: 52 12 80 F0 FF FF 7F F0  FF FF 7F 37 37 32 33 45  R..........7723E
05F0: 12 80 F0 FF FF 7F F0 FF  FF 7F 37 37 32 34 13 80  ..........7724..
0600: 66 49 80 91 01 07 01 91  01 07 01 74 6C 6B 30 2B  fI.........tlk0+
0610: 91 01 07 01 4A 80 23 2B  91 01 07 01 4B 80 23 52  ....J.#+....K.#R
0620: 12 80 F0 FF FF 7F F0 FF  FF 7F 37 37 32 34 45 12  ..........7724E.
0630: 80 F0 FF FF 7F F0 FF FF  7F 37 37 32 35 13 80 66  .........7725..f
0640: 49 80 91 01 07 01 91 01  07 01 74 6C 6B 31 1C 11  I.........tlk1..
0650: 80 2B 91 01 07 01 4C 80  23 53 91 01 07 01 91 01  .+....L.#S......
0660: 07 01 74 6C 6B 31 29 10  91 01 07 01 0F 1C 15 80  ..tlk1).........
0670: 52 12 80 F0 FF FF 7F F0  FF FF 7F 37 37 32 35 45  R..........7725E
0680: 12 80 F0 FF FF 7F F0 FF  FF 7F 37 37 32 36 13 80  ..........7726..
0690: 1C 11 80 2B 91 01 07 01  4D 80 23 7B 91 01 07 01  ...+....M.#{....
06A0: 1C 1E 80 2B 91 01 07 01  4E 80 23 52 12 80 F0 FF  ...+....N.#R....
06B0: FF 7F F0 FF FF 7F 37 37  32 36 45 12 80 F0 FF FF  ......7726E.....
06C0: 7F F0 FF FF 7F 37 37 32  37 13 80 1C 11 80 4A 91  .....7727.....J.
06D0: 01 07 01 F0 FF FF 7F 6F  76 91 01 07 01 4A F0 FF  .......ov....J..
06E0: FF 7F 91 01 07 01 2B 91  01 07 01 4F 80 23 1A A6  ......+....O.#..
06F0: 07 1C 11 80 52 12 80 F0  FF FF 7F F0 FF FF 7F 37  ....R..........7
0700: 37 32 37 45 12 80 F0 FF  FF 7F F0 FF FF 7F 30 62  727E..........0b
0710: 6C 66 13 80 5C 00 32 80  5C 01 32 80 9A 46 00 45  lf..\.2.\.2..F.E
0720: 50 80 F8 FF FF 7F F8 FF  FF 7F 71 73 74 63 13 80  P.........qstc..
0730: 45 33 80 F0 FF FF 7F F0  FF FF 7F 66 64 69 32 13  E3.........fdi2.
0740: 80 21 00 45 33 80 F0 FF  FF 7F F0 FF FF 7F 66 64  .!.E3.........fd
0750: 69 30 13 80 55 33 80 F0  FF FF 7F F0 FF FF 7F 66  i0..U3.........f
0760: 64 69 30 1B 45 33 80 F0  FF FF 7F F0 FF FF 7F 66  di0.E3.........f
0770: 64 6F 30 13 80 55 33 80  F0 FF FF 7F F0 FF FF 7F  do0..U3.........
0780: 66 64 6F 30 1B 45 33 80  F0 FF FF 7F F0 FF FF 7F  fdo0.E3.........
0790: 66 64 69 31 13 80 55 33  80 F0 FF FF 7F F0 FF FF  fdi1..U3........
07A0: 7F 66 64 69 31 1B 45 33  80 F0 FF FF 7F F0 FF FF  .fdi1.E3........
07B0: 7F 66 64 6F 31 13 80 55  33 80 F0 FF FF 7F F0 FF  .fdo1..U3.......
07C0: FF 7F 66 64 6F 31 1B 45  50 80 F0 FF FF 7F F0 FF  ..fdo1.EP.......
07D0: FF 7F 77 68 69 31 13 80  55 50 80 F0 FF FF 7F F0  ..whi1..UP......
07E0: FF FF 7F 77 68 69 31 1B  45 50 80 F0 FF FF 7F F0  ...whi1.EP......
07F0: FF FF 7F 77 68 6F 31 13  80 55 50 80 F0 FF FF 7F  ...who1..UP.....
0800: F0 FF FF 7F 77 68 6F 31  1B 45 50 80 F0 FF FF 7F  ....who1.EP.....
0810: F0 FF FF 7F 77 68 6F 32  13 80 55 50 80 F0 FF FF  ....who2..UP....
0820: 7F F0 FF FF 7F 77 68 6F  32 1B 45 50 80 F0 FF FF  .....who2.EP....
0830: 7F F0 FF FF 7F 77 68 6F  33 13 80 55 50 80 F0 FF  .....who3..UP...
0840: FF 7F F0 FF FF 7F 77 68  6F 33 1B 62 3D 80 F0 FF  ......who3.b=...
0850: FF 7F F0 FF FF 7F 6D 61  69 6E 13 80 1C 1E 80 45  ......main.....E
0860: 33 80 F0 FF FF 7F F0 FF  FF 7F 66 64 6F 31 13 80  3.........fdo1..
0870: 55 33 80 F0 FF FF 7F F0  FF FF 7F 66 64 6F 31 1B  U3.........fdo1.
0880: 45 33 80 F0 FF FF 7F F0  FF FF 7F 66 64 69 31 13  E3.........fdi1.
0890: 80 62 51 80 F0 FF FF 7F  F0 FF FF 7F 6D 61 69 6E  .bQ.........main
08A0: 13 80 1C 11 80 55 33 80  F0 FF FF 7F F0 FF FF 7F  .....U3.........
08B0: 66 64 69 31 1B 45 33 80  F0 FF FF 7F F0 FF FF 7F  fdi1.E3.........
08C0: 62 6C 6F 6E 13 80 45 50  80 F0 FF FF 7F F0 FF FF  blon..EP........
08D0: 7F 62 6C 6F 6E 13 80 1B  45 50 80 F0 FF FF 7F F0  .blon...EP......
08E0: FF FF 7F 77 68 69 30 13  80 55 50 80 F0 FF FF 7F  ...whi0..UP.....
08F0: F0 FF FF 7F 77 68 69 30  1B 45 50 80 F0 FF FF 7F  ....whi0.EP.....
0900: F0 FF FF 7F 77 68 6F 30  13 80 55 50 80 F0 FF FF  ....who0..UP....
0910: 7F F0 FF FF 7F 77 68 6F  30 1B 45 52 80 F0 FF FF  .....who0.ER....
0920: 7F F0 FF FF 7F 65 66 6F  6E 13 80 55 52 80 F0 FF  .....efon..UR...
0930: FF 7F F0 FF FF 7F 65 66  6F 6E 1B 45 33 80 F0 FF  ......efon.E3...
0940: FF 7F F0 FF FF 7F 66 64  69 73 13 80 1B 45 33 80  ......fdis...E3.
0950: F0 FF FF 7F F0 FF FF 7F  66 64 6F 73 13 80 55 33  ........fdos..U3
0960: 80 F0 FF FF 7F F0 FF FF  7F 66 64 6F 73 1B 45 33  .........fdos.E3
0970: 80 F0 FF FF 7F F0 FF FF  7F 66 64 69 66 13 80 1B  .........fdif...
0980: 45 33 80 F0 FF FF 7F F0  FF FF 7F 66 64 6F 66 13  E3.........fdof.
0990: 80 55 33 80 F0 FF FF 7F  F0 FF FF 7F 66 64 6F 66  .U3.........fdof
09A0: 1B 45 33 80 F0 FF FF 7F  F0 FF FF 7F 66 64 69 70  .E3.........fdip
09B0: 13 80 1B 45 33 80 F0 FF  FF 7F F0 FF FF 7F 66 64  ...E3.........fd
09C0: 6F 70 13 80 55 33 80 F0  FF FF 7F F0 FF FF 7F 66  op..U3.........f
09D0: 64 6F 70 1B                                       dop.            
```

#### Opcodes

```
  0: 0x0421 [0x42] SET_CLI_EVENT_CANCEL_DATA()
  1: 0x0422 [0x1A] CALL_SUBROUTINE(address=0x07A6)
  2: 0x0425 [0x46] CAMERA_CONTROL: Disable user control
  3: 0x0427 [0x38] SET_CLIENT_EVENT_MODE(mode=19*)
  4: 0x042A [0x4E] SET_ENTITY_HIDE_FLAG: Show LocalPlayer
  5: 0x0430 [0x5D] SET_MUSIC_VOLUME(volume=0*, fade_time=300*)
  6: 0x0435 [0x27] REQ_SET(priority=0x10, entity_id=Alberic (ID: 17236369/0x01070191), tag_num=0x04)
  7: 0x043C [0x4E] SET_ENTITY_HIDE_FLAG: Show Unnamed NPC (ID: 17236349/0x0107017D)
  8: 0x0442 [0x4E] SET_ENTITY_HIDE_FLAG: Show ??? (ID: 17236348/0x0107017C)
  9: 0x0448 [0x92] LocalPlayer->Render.Flags3 ^= 0x01
 10: 0x044E [0x92] Alberic (ID: 17236369/0x01070191)->Render.Flags3 ^= 0x01
 11: 0x0454 [0x94] LocalPlayer->Render.Flags3 ^= 0x01
 12: 0x045A [0x94] Alberic (ID: 17236369/0x01070191)->Render.Flags3 ^= 0x01
 13: 0x0460 [0x94] Cavernous Maw (ID: 17236347/0x0107017B)->Render.Flags3 ^= 0x01
 14: 0x0466 [0x94] Unnamed NPC (ID: 17236349/0x0107017D)->Render.Flags3 ^= 0x01
 15: 0x046C [0x94] ??? (ID: 17236348/0x0107017C)->Render.Flags3 ^= 0x01
 16: 0x0472 [0xBA] SET_ENTITY_POSITION(entity_id=LocalPlayer, pos_x=269.946*, pos_z=-76.782*, pos_y=-7.699*, direction=91.7°*)
 17: 0x047F [0xBA] SET_ENTITY_POSITION(entity_id=Alberic (ID: 17236369/0x01070191), pos_x=269.866*, pos_z=-80.068*, pos_y=-7.700*, direction=271.0°*)
 18: 0x048C [0x80] LOAD_WAIT(entity=LocalPlayer)
 19: 0x0491 [0x80] LOAD_WAIT(entity=Alberic (ID: 17236369/0x01070191))
 20: 0x0496 [0x80] LOAD_WAIT(entity=Cavernous Maw (ID: 17236347/0x0107017B))
 21: 0x049B [0x6C] FADE_ENTITY_COLOR(entity_id=LocalPlayer, end_alpha=0*, fade_time=1*)
 22: 0x04A4 [0x29] REQ_SET_WAIT(priority=0x10, entity_id=LocalPlayer, tag_num=0x2A)
 23: 0x04AB [0x1C] WAIT(30* ticks)
 24: 0x04AE [0x45] LOAD_SCHEDULED_TASK: Load scheduler "7720" with entities [LocalPlayer, LocalPlayer], work=[490*, 0*]
 25: 0x04BF [0x1A] CALL_SUBROUTINE(address=0x0785)
 26: 0x04C2 [0xCD] LOAD_SCHEDULED_TASK_ALT4: Load scheduler "main" with entities [LocalPlayer, LocalPlayer], work=[80*, 0*]
 27: 0x04D3 [0x1C] WAIT(120* ticks)
 28: 0x04D6 [0x92] LocalPlayer->Render.Flags3 = Flags3  // No change (flag=0)
 29: 0x04DC [0x1C] WAIT(30* ticks)
 30: 0x04DF [0x79] LocalPlayer looks at Alberic (ID: 17236369/0x01070191) (Basic look)
 31: 0x04E9 [0x27] REQ_SET(priority=0x10, entity_id=LocalPlayer, tag_num=0x2B)
 32: 0x04F0 [0x1C] WAIT(30* ticks)
 33: 0x04F3 [0x2B] Alberic (ID: 17236369/0x01070191) [11528*]:
    → "Ah, the hero of the hour makes [his/her] triumphant return!"
 34: 0x04FA [0x23] WAIT_FOR_DIALOG_INTERACTION
 35: 0x04FB [0x52] END_LOAD_SCHEDULER: End scheduler "7720" with entities [LocalPlayer, LocalPlayer], work=490*
 36: 0x050A [0x45] LOAD_SCHEDULED_TASK: Load scheduler "7721" with entities [LocalPlayer, LocalPlayer], work=[490*, 0*]
 37: 0x051B [0x2B] Alberic (ID: 17236369/0x01070191) [11529*]:
    → "Reports reached me but moments ago of your epic victory over the menace of Uleguerand. Of your people's exceptional strength I was well aware, but you truly shine above the rest."
 38: 0x0522 [0x23] WAIT_FOR_DIALOG_INTERACTION
 39: 0x0523 [0x6E] Alberic (ID: 17236369/0x01070191) uses emote 6*
 40: 0x052A [0x99] Wait for Alberic (ID: 17236369/0x01070191) animation to complete
 41: 0x052F [0x2B] Alberic (ID: 17236369/0x01070191) [11530*]:
    → "Now the souls of my comrades who fell to the vile beast may rest in peace. My boundless gratitude is yours, <Player>."
 42: 0x0536 [0x1C] WAIT(150* ticks)
 43: 0x0539 [0x23] WAIT_FOR_DIALOG_INTERACTION
 44: 0x053A [0x5C] MUSIC_CONTROL: Set Idle (Day) music to song 145*
 45: 0x053E [0x5C] MUSIC_CONTROL: Set Idle (Night) music to song 145*
 46: 0x0542 [0x9A] WAIT_MUSIC_SERVER()
 47: 0x0543 [0x27] REQ_SET(priority=0x10, entity_id=Alberic (ID: 17236369/0x01070191), tag_num=0x0E)
 48: 0x054A [0x1C] WAIT(20* ticks)
 49: 0x054D [0x52] END_LOAD_SCHEDULER: End scheduler "7721" with entities [LocalPlayer, LocalPlayer], work=490*
 50: 0x055C [0x45] LOAD_SCHEDULED_TASK: Load scheduler "7722" with entities [LocalPlayer, LocalPlayer], work=[490*, 0*]
 51: 0x056D [0x2A] GET_REQ_LEVEL(level=16, entity_id=Alberic (ID: 17236369/0x01070191))
 52: 0x0573 [0x1C] WAIT(30* ticks)
 53: 0x0576 [0x2B] Alberic (ID: 17236369/0x01070191) [11531*]:
    → "I should be honored if you would accept this gift."
 54: 0x057D [0x23] WAIT_FOR_DIALOG_INTERACTION
 55: 0x057E [0x7B] Alberic (ID: 17236369/0x01070191) stops talking
 56: 0x0583 [0x66] LOAD_EXT_SCHEDULER_MAIN: Load scheduler "pas0" with entities [Alberic (ID: 17236369/0x01070191), Alberic (ID: 17236369/0x01070191)], work=91*
 57: 0x0592 [0x53] WAIT_SCHEDULER_TASK: Wait for scheduler "pas0" with entities [Alberic (ID: 17236369/0x01070191), Alberic (ID: 17236369/0x01070191)]
 58: 0x059F [0x2B] Alberic (ID: 17236369/0x01070191) [11532*]:
    → "Consider it a small token of my gratitude."
 59: 0x05A6 [0x23] WAIT_FOR_DIALOG_INTERACTION
 60: 0x05A7 [0x52] END_LOAD_SCHEDULER: End scheduler "7722" with entities [LocalPlayer, LocalPlayer], work=490*
 61: 0x05B6 [0x45] LOAD_SCHEDULED_TASK: Load scheduler "7723" with entities [LocalPlayer, LocalPlayer], work=[490*, 0*]
 62: 0x05C7 [0x03] Work_Zone[1] = 1*
 63: 0x05CC [0x43] SEND_EVENT_UPDATE: Send pending tag to server (packet 0x005B)
 64: 0x05CE [0x43] SEND_EVENT_UPDATE: Check pending flag (skip if not pending)
 65: 0x05D0 [0x2B] Alberic (ID: 17236369/0x01070191) [11533*]:
    → "6, 'tis called."
 66: 0x05D7 [0x23] WAIT_FOR_DIALOG_INTERACTION
 67: 0x05D8 [0x2B] Alberic (ID: 17236369/0x01070191) [11534*]:
    → "An uncommon variety of the stone, 'tis known to unleash its full potential when wielded by a native of your world. It should serve you well in the battles to come."
 68: 0x05DF [0x23] WAIT_FOR_DIALOG_INTERACTION
 69: 0x05E0 [0x52] END_LOAD_SCHEDULER: End scheduler "7723" with entities [LocalPlayer, LocalPlayer], work=490*
 70: 0x05EF [0x45] LOAD_SCHEDULED_TASK: Load scheduler "7724" with entities [LocalPlayer, LocalPlayer], work=[490*, 0*]
 71: 0x0600 [0x66] LOAD_EXT_SCHEDULER_MAIN: Load scheduler "tlk0" with entities [Alberic (ID: 17236369/0x01070191), Alberic (ID: 17236369/0x01070191)], work=29*
 72: 0x060F [0x2B] Alberic (ID: 17236369/0x01070191) [11535*]:
    → "Your valorous deed has allowed hope to take root again within the barren snowfields of Uleguerand. Yet our journey to salvation is far from over."
 73: 0x0616 [0x23] WAIT_FOR_DIALOG_INTERACTION
 74: 0x0617 [0x2B] Alberic (ID: 17236369/0x01070191) [11536*]:
    → "The great cataclysm tore across the land as steel rips through flesh, deeply scarring our world and the hearts of those who call it home."
 75: 0x061E [0x23] WAIT_FOR_DIALOG_INTERACTION
 76: 0x061F [0x52] END_LOAD_SCHEDULER: End scheduler "7724" with entities [LocalPlayer, LocalPlayer], work=490*
 77: 0x062E [0x45] LOAD_SCHEDULED_TASK: Load scheduler "7725" with entities [LocalPlayer, LocalPlayer], work=[490*, 0*]
 78: 0x063F [0x66] LOAD_EXT_SCHEDULER_MAIN: Load scheduler "tlk1" with entities [Alberic (ID: 17236369/0x01070191), Alberic (ID: 17236369/0x01070191)], work=29*
 79: 0x064E [0x1C] WAIT(30* ticks)
 80: 0x0651 [0x2B] Alberic (ID: 17236369/0x01070191) [11537*]:
    → "The wound I bear within bleeds to this day, yet I continue to fight in the hopes that the suffering can be ended."
 81: 0x0658 [0x23] WAIT_FOR_DIALOG_INTERACTION
 82: 0x0659 [0x53] WAIT_SCHEDULER_TASK: Wait for scheduler "tlk1" with entities [Alberic (ID: 17236369/0x01070191), Alberic (ID: 17236369/0x01070191)]
 83: 0x0666 [0x29] REQ_SET_WAIT(priority=0x10, entity_id=Alberic (ID: 17236369/0x01070191), tag_num=0x0F)
 84: 0x066D [0x1C] WAIT(60* ticks)
 85: 0x0670 [0x52] END_LOAD_SCHEDULER: End scheduler "7725" with entities [LocalPlayer, LocalPlayer], work=490*
 86: 0x067F [0x45] LOAD_SCHEDULED_TASK: Load scheduler "7726" with entities [LocalPlayer, LocalPlayer], work=[490*, 0*]
 87: 0x0690 [0x1C] WAIT(30* ticks)
 88: 0x0693 [0x2B] Alberic (ID: 17236369/0x01070191) [11538*]:
    → "In this age of unending torment, many are those who hurl curses at the heavens for what they regard as abandonment. I, for one, believe that man has always shaped his own destiny, and must continue to do so."
 89: 0x069A [0x23] WAIT_FOR_DIALOG_INTERACTION
 90: 0x069B [0x7B] Alberic (ID: 17236369/0x01070191) stops talking
 91: 0x06A0 [0x1C] WAIT(45* ticks)
 92: 0x06A3 [0x2B] Alberic (ID: 17236369/0x01070191) [11539*]:
    → "The fate of my home world shall not be one of destruction, this I solemnly vow. Even should my body turn to dust, I shall fight on."
 93: 0x06AA [0x23] WAIT_FOR_DIALOG_INTERACTION
 94: 0x06AB [0x52] END_LOAD_SCHEDULER: End scheduler "7726" with entities [LocalPlayer, LocalPlayer], work=490*
 95: 0x06BA [0x45] LOAD_SCHEDULED_TASK: Load scheduler "7727" with entities [LocalPlayer, LocalPlayer], work=[490*, 0*]
 96: 0x06CB [0x1C] WAIT(30* ticks)
 97: 0x06CE [0x4A] Alberic (ID: 17236369/0x01070191) looks at LocalPlayer
 98: 0x06D7 [0x6F] WAIT_FRAME_DELAY: Yield until WaitTime reaches zero
 99: 0x06D8 [0x76] CHECK_ENTITY_RENDER_FLAGS: Wait until Alberic (ID: 17236369/0x01070191) Render.Flags0 and Render.Flags3 conditions are met
100: 0x06DD [0x4A] LocalPlayer looks at Alberic (ID: 17236369/0x01070191)
101: 0x06E6 [0x2B] Alberic (ID: 17236369/0x01070191) [11540*]:
    → "Countless mysteries remain unsolved, yet one thing is clear: the people of Abyssea cannot survive without the aid of you and yours. I beseech you, <Player>. Stand with us in our darkest hour."
102: 0x06ED [0x23] WAIT_FOR_DIALOG_INTERACTION
103: 0x06EE [0x1A] CALL_SUBROUTINE(address=0x07A6)
104: 0x06F1 [0x1C] WAIT(30* ticks)
105: 0x06F4 [0x52] END_LOAD_SCHEDULER: End scheduler "7727" with entities [LocalPlayer, LocalPlayer], work=490*
106: 0x0703 [0x45] LOAD_SCHEDULED_TASK: Load scheduler "0blf" with entities [LocalPlayer, LocalPlayer], work=[490*, 0*]
107: 0x0714 [0x5C] MUSIC_CONTROL: Set Idle (Day) music to song 164*
108: 0x0718 [0x5C] MUSIC_CONTROL: Set Idle (Night) music to song 164*
109: 0x071C [0x9A] WAIT_MUSIC_SERVER()
110: 0x071D [0x46] CAMERA_CONTROL: Restore default settings
111: 0x071F [0x45] LOAD_SCHEDULED_TASK: Load scheduler "qstc" with entities [EventEntity, EventEntity], work=[201*, 0*]
112: 0x0730 [0x45] LOAD_SCHEDULED_TASK: Load scheduler "fdi2" with entities [LocalPlayer, LocalPlayer], work=[200*, 0*]
113: 0x0741 [0x21] END_EVENT
114: 0x0742 [0x00] END_REQSTACK()

SUBROUTINE_0785:
115: 0x0785 [0x45] LOAD_SCHEDULED_TASK: Load scheduler "fdi1" with entities [LocalPlayer, LocalPlayer], work=[200*, 0*]
116: 0x0796 [0x55] WAIT_LOAD_SCHEDULER: Wait for scheduler "fdi1" with entities [LocalPlayer, LocalPlayer], work=200*
117: 0x07A5 [0x1B] RETURN

SUBROUTINE_07A6:
118: 0x07A6 [0x45] LOAD_SCHEDULED_TASK: Load scheduler "fdo1" with entities [LocalPlayer, LocalPlayer], work=[200*, 0*]
119: 0x07B7 [0x55] WAIT_LOAD_SCHEDULER: Wait for scheduler "fdo1" with entities [LocalPlayer, LocalPlayer], work=200*
120: 0x07C6 [0x1B] RETURN
```

#### Data or dead code:

```
# Dead code (unreachable instructions):
     0x0743 [0x45] LOAD_SCHEDULED_TASK: Load scheduler "fdi0" with entities [LocalPlayer, LocalPlayer], work=[200*, 0*]
     0x0754 [0x55] WAIT_LOAD_SCHEDULER: Wait for scheduler "fdi0" with entities [LocalPlayer, LocalPlayer], work=200*
     0x0763 [0x1B] RETURN
     0x0764 [0x45] LOAD_SCHEDULED_TASK: Load scheduler "fdo0" with entities [LocalPlayer, LocalPlayer], work=[200*, 0*]
     0x0775 [0x55] WAIT_LOAD_SCHEDULER: Wait for scheduler "fdo0" with entities [LocalPlayer, LocalPlayer], work=200*
     0x0784 [0x1B] RETURN
# Dead code (unreachable instructions):
     0x07C7 [0x45] LOAD_SCHEDULED_TASK: Load scheduler "whi1" with entities [LocalPlayer, LocalPlayer], work=[201*, 0*]
     0x07D8 [0x55] WAIT_LOAD_SCHEDULER: Wait for scheduler "whi1" with entities [LocalPlayer, LocalPlayer], work=201*
     0x07E7 [0x1B] RETURN
     0x07E8 [0x45] LOAD_SCHEDULED_TASK: Load scheduler "who1" with entities [LocalPlayer, LocalPlayer], work=[201*, 0*]
     0x07F9 [0x55] WAIT_LOAD_SCHEDULER: Wait for scheduler "who1" with entities [LocalPlayer, LocalPlayer], work=201*
     0x0808 [0x1B] RETURN
     0x0809 [0x45] LOAD_SCHEDULED_TASK: Load scheduler "who2" with entities [LocalPlayer, LocalPlayer], work=[201*, 0*]
     0x081A [0x55] WAIT_LOAD_SCHEDULER: Wait for scheduler "who2" with entities [LocalPlayer, LocalPlayer], work=201*
     0x0829 [0x1B] RETURN
     0x082A [0x45] LOAD_SCHEDULED_TASK: Load scheduler "who3" with entities [LocalPlayer, LocalPlayer], work=[201*, 0*]
     0x083B [0x55] WAIT_LOAD_SCHEDULER: Wait for scheduler "who3" with entities [LocalPlayer, LocalPlayer], work=201*
     0x084A [0x1B] RETURN
     0x084B [0x62] LOAD_EVENT_SCHEDULER: Load scheduler "main" with entities [LocalPlayer, LocalPlayer], work=[1*, 0*]
     0x085C [0x1C] WAIT(45* ticks)
     0x085F [0x45] LOAD_SCHEDULED_TASK: Load scheduler "fdo1" with entities [LocalPlayer, LocalPlayer], work=[200*, 0*]
     0x0870 [0x55] WAIT_LOAD_SCHEDULER: Wait for scheduler "fdo1" with entities [LocalPlayer, LocalPlayer], work=200*
     0x087F [0x1B] RETURN
     0x0880 [0x45] LOAD_SCHEDULED_TASK: Load scheduler "fdi1" with entities [LocalPlayer, LocalPlayer], work=[200*, 0*]
     0x0891 [0x62] LOAD_EVENT_SCHEDULER: Load scheduler "main" with entities [LocalPlayer, LocalPlayer], work=[2*, 0*]
     0x08A2 [0x1C] WAIT(30* ticks)
     0x08A5 [0x55] WAIT_LOAD_SCHEDULER: Wait for scheduler "fdi1" with entities [LocalPlayer, LocalPlayer], work=200*
     0x08B4 [0x1B] RETURN
     0x08B5 [0x45] LOAD_SCHEDULED_TASK: Load scheduler "blon" with entities [LocalPlayer, LocalPlayer], work=[200*, 0*]
     0x08C6 [0x45] LOAD_SCHEDULED_TASK: Load scheduler "blon" with entities [LocalPlayer, LocalPlayer], work=[201*, 0*]
     0x08D7 [0x1B] RETURN
     0x08D8 [0x45] LOAD_SCHEDULED_TASK: Load scheduler "whi0" with entities [LocalPlayer, LocalPlayer], work=[201*, 0*]
     0x08E9 [0x55] WAIT_LOAD_SCHEDULER: Wait for scheduler "whi0" with entities [LocalPlayer, LocalPlayer], work=201*
     0x08F8 [0x1B] RETURN
     0x08F9 [0x45] LOAD_SCHEDULED_TASK: Load scheduler "who0" with entities [LocalPlayer, LocalPlayer], work=[201*, 0*]
     0x090A [0x55] WAIT_LOAD_SCHEDULER: Wait for scheduler "who0" with entities [LocalPlayer, LocalPlayer], work=201*
     0x0919 [0x1B] RETURN
     0x091A [0x45] LOAD_SCHEDULED_TASK: Load scheduler "efon" with entities [LocalPlayer, LocalPlayer], work=[215*, 0*]
     0x092B [0x55] WAIT_LOAD_SCHEDULER: Wait for scheduler "efon" with entities [LocalPlayer, LocalPlayer], work=215*
     0x093A [0x1B] RETURN
     0x093B [0x45] LOAD_SCHEDULED_TASK: Load scheduler "fdis" with entities [LocalPlayer, LocalPlayer], work=[200*, 0*]
     0x094C [0x1B] RETURN
     0x094D [0x45] LOAD_SCHEDULED_TASK: Load scheduler "fdos" with entities [LocalPlayer, LocalPlayer], work=[200*, 0*]
     0x095E [0x55] WAIT_LOAD_SCHEDULER: Wait for scheduler "fdos" with entities [LocalPlayer, LocalPlayer], work=200*
     0x096D [0x1B] RETURN
     0x096E [0x45] LOAD_SCHEDULED_TASK: Load scheduler "fdif" with entities [LocalPlayer, LocalPlayer], work=[200*, 0*]
     0x097F [0x1B] RETURN
     0x0980 [0x45] LOAD_SCHEDULED_TASK: Load scheduler "fdof" with entities [LocalPlayer, LocalPlayer], work=[200*, 0*]
     0x0991 [0x55] WAIT_LOAD_SCHEDULER: Wait for scheduler "fdof" with entities [LocalPlayer, LocalPlayer], work=200*
     0x09A0 [0x1B] RETURN
     0x09A1 [0x45] LOAD_SCHEDULED_TASK: Load scheduler "fdip" with entities [LocalPlayer, LocalPlayer], work=[200*, 0*]
     0x09B2 [0x1B] RETURN
     0x09B3 [0x45] LOAD_SCHEDULED_TASK: Load scheduler "fdop" with entities [LocalPlayer, LocalPlayer], work=[200*, 0*]
     0x09C4 [0x55] WAIT_LOAD_SCHEDULER: Wait for scheduler "fdop" with entities [LocalPlayer, LocalPlayer], work=200*
     0x09D3 [0x1B] RETURN
```
