# 17236330

## Common Data

| Field            | Value               |
|------------------|---------------------|
| Zone             | Xarcabard (ID: 112) |
| Block Size       | 1404 bytes          |
| Total Events     | 2                   |
| References Count | 30                  |

## List of Events

| Event ID              | Entrypoint   |   Size |   Instructions |
|-----------------------|--------------|--------|----------------|
| [65535](#event-65535) | 0x0000       |      1 |              1 |
| [13](#event-13)       | 0x0001       |   1256 |            146 |

## DAT References (imed_data)

|   Index | Hex Value   |   Dec Value |
|---------|-------------|-------------|
|       0 | 0x0013      |          19 |
|       1 | 0x0087      |         135 |
|       2 | 0x0016      |          22 |
|       3 | 0x000F      |          15 |
|       4 | 0x0079      |         121 |
|       5 | 0x0000      |           0 |
|       6 | 0x0001      |           1 |
|       7 | 0x00E8      |         232 |
|       8 | 0x1EBB      |        7867 |
|       9 | 0x003C      |          60 |
|      10 | 0x002D      |          45 |
|      11 | 0x1EBC      |        7868 |
|      12 | 0x1EBD      |        7869 |
|      13 | 0x003F      |          63 |
|      14 | 0x1EBE      |        7870 |
|      15 | 0x1EBF      |        7871 |
|      16 | 0x00B4      |         180 |
|      17 | 0x1EC0      |        7872 |
|      18 | 0x1EC1      |        7873 |
|      19 | 0x0096      |         150 |
|      20 | 0x0026      |          38 |
|      21 | 0x001E      |          30 |
|      22 | 0x0070      |         112 |
|      23 | 0x00A4      |         164 |
|      24 | 0x0065      |         101 |
|      25 | 0x0067      |         103 |
|      26 | 0x00C8      |         200 |
|      27 | 0x00C9      |         201 |
|      28 | 0x0002      |           2 |
|      29 | 0x00D7      |         215 |

## Events

### Event 65535

#### Metadata

| Field        | Value   |
|--------------|---------|
| Entrypoint   | 0x0000  |
| Data Size    | 1 bytes |
| Instructions | 1       |

```
      00 01 02 03 04 05 06 07  08 09 0A 0B 0C 0D 0E 0F
      -- -- -- -- -- -- -- --  -- -- -- -- -- -- -- --
0000: 00                                                .               
```

#### Opcodes

```
  0: 0x0000 [0x00] END_REQSTACK()
```

### Event 13

#### Metadata

| Field        | Value      |
|--------------|------------|
| Entrypoint   | 0x0001     |
| Data Size    | 1256 bytes |
| Instructions | 100        |

```
      00 01 02 03 04 05 06 07  08 09 0A 0B 0C 0D 0E 0F
      -- -- -- -- -- -- -- --  -- -- -- -- -- -- -- --
0000:    42 1A 79 02 46 01 38  00 80 4E 00 F0 FF FF 7F   B.y.F.8..N.....
0010: 80 F0 FF FF 7F 27 10 6B  01 07 01 04 92 01 6B 01  .....'.k......k.
0020: 07 01 34 01 80 77 02 80  00 80 1C 03 80 5C 00 04  ..4..w.......\..
0030: 80 5C 01 04 80 5C 02 04  80 5C 03 04 80 9A 27 10  .\...\...\....'.
0040: F0 FF FF 7F 13 27 10 6B  01 07 01 09 6C 6B 01 07  .....'.k....lk..
0050: 01 05 80 06 80 80 6B 01  07 01 45 07 80 F0 FF FF  ......k...E.....
0060: 7F F0 FF FF 7F 75 72 30  31 05 80 1A 9A 02 55 07  .....ur01.....U.
0070: 80 F0 FF FF 7F F0 FF FF  7F 75 72 30 31 2B 6B 01  .........ur01+k.
0080: 07 01 08 80 27 10 6C 01  07 01 03 27 10 6B 01 07  ....'.l....'.k..
0090: 01 0A 45 07 80 F0 FF FF  7F F0 FF FF 7F 75 72 30  ..E..........ur0
00A0: 32 05 80 1C 09 80 4A F0  FF FF 7F 6B 01 07 01 2A  2.....J....k...*
00B0: 10 6B 01 07 01 1C 0A 80  52 07 80 F0 FF FF 7F F0  .k......R.......
00C0: FF FF 7F 75 72 30 32 45  07 80 F0 FF FF 7F F0 FF  ...ur02E........
00D0: FF 7F 75 72 30 33 05 80  2B 6B 01 07 01 0B 80 23  ..ur03..+k.....#
00E0: 2B 6B 01 07 01 0C 80 23  52 07 80 F0 FF FF 7F F0  +k.....#R.......
00F0: FF FF 7F 75 72 30 33 45  07 80 F0 FF FF 7F F0 FF  ...ur03E........
0100: FF 7F 75 72 30 35 05 80  66 0D 80 6B 01 07 01 6B  ..ur05..f..k...k
0110: 01 07 01 72 67 6D 33 53  6B 01 07 01 6B 01 07 01  ...rgm3Sk...k...
0120: 72 67 6D 33 52 07 80 F0  FF FF 7F F0 FF FF 7F 75  rgm3R..........u
0130: 72 30 35 45 07 80 F0 FF  FF 7F F0 FF FF 7F 75 72  r05E..........ur
0140: 30 36 05 80 66 0D 80 6B  01 07 01 6B 01 07 01 72  06..f..k...k...r
0150: 67 6D 32 2B 6B 01 07 01  0E 80 23 66 0D 80 6B 01  gm2+k.....#f..k.
0160: 07 01 6B 01 07 01 72 67  6D 33 2B 6B 01 07 01 0F  ..k...rgm3+k....
0170: 80 23 52 07 80 F0 FF FF  7F F0 FF FF 7F 75 72 30  .#R..........ur0
0180: 36 45 07 80 F0 FF FF 7F  F0 FF FF 7F 75 72 30 34  6E..........ur04
0190: 05 80 6B 69 64 6C 30 6B  01 07 01 27 10 6C 01 07  ..kidl0k...'.l..
01A0: 01 04 62 02 80 F0 FF FF  7F F0 FF FF 7F 6B 6F 6E  ..b..........kon
01B0: 65 05 80 1C 10 80 2B 6B  01 07 01 11 80 23 2B 6B  e.....+k.....#+k
01C0: 01 07 01 12 80 23 27 10  6C 01 07 01 05 62 02 80  .....#'.l....b..
01D0: F0 FF FF 7F F0 FF FF 7F  6B 6F 6E 31 05 80 1C 13  ........kon1....
01E0: 80 1A FD 02 1C 09 80 9F  14 80 6B 01 07 01 6B 01  ..........k...k.
01F0: 07 01 73 74 6F 70 05 80  52 07 80 F0 FF FF 7F F0  ..stop..R.......
0200: FF FF 7F 75 72 30 34 45  07 80 F0 FF FF 7F F0 FF  ...ur04E........
0210: FF 7F 75 72 65 64 05 80  1C 15 80 1A BB 02 1A DC  ..ured..........
0220: 02 1C 15 80 AB 11 05 80  1C 15 80 35 16 80 78 1C  ...........5..x.
0230: 03 80 5C 00 17 80 5C 01  17 80 5C 02 18 80 5C 03  ..\...\...\...\.
0240: 19 80 9A 46 00 45 1A 80  F0 FF FF 7F F0 FF FF 7F  ...F.E..........
0250: 66 64 69 32 05 80 21 00  45 1A 80 F0 FF FF 7F F0  fdi2..!.E.......
0260: FF FF 7F 66 64 69 30 05  80 55 1A 80 F0 FF FF 7F  ...fdi0..U......
0270: F0 FF FF 7F 66 64 69 30  1B 45 1A 80 F0 FF FF 7F  ....fdi0.E......
0280: F0 FF FF 7F 66 64 6F 30  05 80 55 1A 80 F0 FF FF  ....fdo0..U.....
0290: 7F F0 FF FF 7F 66 64 6F  30 1B 45 1A 80 F0 FF FF  .....fdo0.E.....
02A0: 7F F0 FF FF 7F 66 64 69  31 05 80 55 1A 80 F0 FF  .....fdi1..U....
02B0: FF 7F F0 FF FF 7F 66 64  69 31 1B 45 1A 80 F0 FF  ......fdi1.E....
02C0: FF 7F F0 FF FF 7F 66 64  6F 31 05 80 55 1A 80 F0  ......fdo1..U...
02D0: FF FF 7F F0 FF FF 7F 66  64 6F 31 1B 45 1B 80 F0  .......fdo1.E...
02E0: FF FF 7F F0 FF FF 7F 77  68 69 31 05 80 55 1B 80  .......whi1..U..
02F0: F0 FF FF 7F F0 FF FF 7F  77 68 69 31 1B 45 1B 80  ........whi1.E..
0300: F0 FF FF 7F F0 FF FF 7F  77 68 6F 31 05 80 55 1B  ........who1..U.
0310: 80 F0 FF FF 7F F0 FF FF  7F 77 68 6F 31 1B 45 1B  .........who1.E.
0320: 80 F0 FF FF 7F F0 FF FF  7F 77 68 6F 32 05 80 55  .........who2..U
0330: 1B 80 F0 FF FF 7F F0 FF  FF 7F 77 68 6F 32 1B 45  ..........who2.E
0340: 1B 80 F0 FF FF 7F F0 FF  FF 7F 77 68 6F 33 05 80  ..........who3..
0350: 55 1B 80 F0 FF FF 7F F0  FF FF 7F 77 68 6F 33 1B  U..........who3.
0360: 62 06 80 F0 FF FF 7F F0  FF FF 7F 6D 61 69 6E 05  b..........main.
0370: 80 1C 0A 80 45 1A 80 F0  FF FF 7F F0 FF FF 7F 66  ....E..........f
0380: 64 6F 31 05 80 55 1A 80  F0 FF FF 7F F0 FF FF 7F  do1..U..........
0390: 66 64 6F 31 1B 45 1A 80  F0 FF FF 7F F0 FF FF 7F  fdo1.E..........
03A0: 66 64 69 31 05 80 62 1C  80 F0 FF FF 7F F0 FF FF  fdi1..b.........
03B0: 7F 6D 61 69 6E 05 80 1C  15 80 55 1A 80 F0 FF FF  .main.....U.....
03C0: 7F F0 FF FF 7F 66 64 69  31 1B 45 1A 80 F0 FF FF  .....fdi1.E.....
03D0: 7F F0 FF FF 7F 62 6C 6F  6E 05 80 45 1B 80 F0 FF  .....blon..E....
03E0: FF 7F F0 FF FF 7F 62 6C  6F 6E 05 80 1B 45 1B 80  ......blon...E..
03F0: F0 FF FF 7F F0 FF FF 7F  77 68 69 30 05 80 55 1B  ........whi0..U.
0400: 80 F0 FF FF 7F F0 FF FF  7F 77 68 69 30 1B 45 1B  .........whi0.E.
0410: 80 F0 FF FF 7F F0 FF FF  7F 77 68 6F 30 05 80 55  .........who0..U
0420: 1B 80 F0 FF FF 7F F0 FF  FF 7F 77 68 6F 30 1B 45  ..........who0.E
0430: 1D 80 F0 FF FF 7F F0 FF  FF 7F 65 66 6F 6E 05 80  ..........efon..
0440: 55 1D 80 F0 FF FF 7F F0  FF FF 7F 65 66 6F 6E 1B  U..........efon.
0450: 45 1A 80 F0 FF FF 7F F0  FF FF 7F 66 64 69 73 05  E..........fdis.
0460: 80 1B 45 1A 80 F0 FF FF  7F F0 FF FF 7F 66 64 6F  ..E..........fdo
0470: 73 05 80 55 1A 80 F0 FF  FF 7F F0 FF FF 7F 66 64  s..U..........fd
0480: 6F 73 1B 45 1A 80 F0 FF  FF 7F F0 FF FF 7F 66 64  os.E..........fd
0490: 69 66 05 80 1B 45 1A 80  F0 FF FF 7F F0 FF FF 7F  if...E..........
04A0: 66 64 6F 66 05 80 55 1A  80 F0 FF FF 7F F0 FF FF  fdof..U.........
04B0: 7F 66 64 6F 66 1B 45 1A  80 F0 FF FF 7F F0 FF FF  .fdof.E.........
04C0: 7F 66 64 69 70 05 80 1B  45 1A 80 F0 FF FF 7F F0  .fdip...E.......
04D0: FF FF 7F 66 64 6F 70 05  80 55 1A 80 F0 FF FF 7F  ...fdop..U......
04E0: F0 FF FF 7F 66 64 6F 70  1B                       ....fdop.       
```

#### Opcodes

```
  0: 0x0001 [0x42] SET_CLI_EVENT_CANCEL_DATA()
  1: 0x0002 [0x1A] CALL_SUBROUTINE(address=0x0279)
  2: 0x0005 [0x46] CAMERA_CONTROL: Disable user control
  3: 0x0007 [0x38] SET_CLIENT_EVENT_MODE(mode=19*)
  4: 0x000A [0x4E] SET_ENTITY_HIDE_FLAG: Show LocalPlayer
  5: 0x0010 [0x80] LOAD_WAIT(entity=LocalPlayer)
  6: 0x0015 [0x27] REQ_SET(priority=0x10, entity_id=Raogrimm (ID: 17236331/0x0107016B), tag_num=0x04)
  7: 0x001C [0x92] Raogrimm (ID: 17236331/0x0107016B)->Render.Flags3 ^= 0x01
  8: 0x0022 [0x34] LOAD_UNLOAD_ZONE(zone_id=135*)
  9: 0x0025 [0x77] SET_EVENT_TIME_WEATHER(hour=22*, weather=19*)
 10: 0x002A [0x1C] WAIT(15* ticks)
 11: 0x002D [0x5C] MUSIC_CONTROL: Set Idle (Day) music to song 121*
 12: 0x0031 [0x5C] MUSIC_CONTROL: Set Idle (Night) music to song 121*
 13: 0x0035 [0x5C] MUSIC_CONTROL: Set Combat (Solo) music to song 121*
 14: 0x0039 [0x5C] MUSIC_CONTROL: Set Combat (Party) music to song 121*
 15: 0x003D [0x9A] WAIT_MUSIC_SERVER()
 16: 0x003E [0x27] REQ_SET(priority=0x10, entity_id=LocalPlayer, tag_num=0x13)
 17: 0x0045 [0x27] REQ_SET(priority=0x10, entity_id=Raogrimm (ID: 17236331/0x0107016B), tag_num=0x09)
 18: 0x004C [0x6C] FADE_ENTITY_COLOR(entity_id=Raogrimm (ID: 17236331/0x0107016B), end_alpha=0*, fade_time=1*)
 19: 0x0055 [0x80] LOAD_WAIT(entity=Raogrimm (ID: 17236331/0x0107016B))
 20: 0x005A [0x45] LOAD_SCHEDULED_TASK: Load scheduler "ur01" with entities [LocalPlayer, LocalPlayer], work=[232*, 0*]
 21: 0x006B [0x1A] CALL_SUBROUTINE(address=0x029A)
 22: 0x006E [0x55] WAIT_LOAD_SCHEDULER: Wait for scheduler "ur01" with entities [LocalPlayer, LocalPlayer], work=232*
 23: 0x007D [0x2B] Raogrimm (ID: 17236331/0x0107016B) [7867*]:
    → "<Player>... Now that I have passed from the mortal realm, I have only you to turn to. The time left to me is short."
 24: 0x0084 [0x27] REQ_SET(priority=0x10, entity_id=Unnamed NPC (ID: 17236332/0x0107016C), tag_num=0x03)
 25: 0x008B [0x27] REQ_SET(priority=0x10, entity_id=Raogrimm (ID: 17236331/0x0107016B), tag_num=0x0A)
 26: 0x0092 [0x45] LOAD_SCHEDULED_TASK: Load scheduler "ur02" with entities [LocalPlayer, LocalPlayer], work=[232*, 0*]
 27: 0x00A3 [0x1C] WAIT(60* ticks)
 28: 0x00A6 [0x4A] LocalPlayer looks at Raogrimm (ID: 17236331/0x0107016B)
 29: 0x00AF [0x2A] GET_REQ_LEVEL(level=16, entity_id=Raogrimm (ID: 17236331/0x0107016B))
 30: 0x00B5 [0x1C] WAIT(45* ticks)
 31: 0x00B8 [0x52] END_LOAD_SCHEDULER: End scheduler "ur02" with entities [LocalPlayer, LocalPlayer], work=232*
 32: 0x00C7 [0x45] LOAD_SCHEDULED_TASK: Load scheduler "ur03" with entities [LocalPlayer, LocalPlayer], work=[232*, 0*]
 33: 0x00D8 [0x2B] Raogrimm (ID: 17236331/0x0107016B) [7868*]:
    → "Thirty years ago, I came into contact with the insidious power of this land, and rose from the grave. However, at the same time, this world laid claim to a part of my soul..."
 34: 0x00DF [0x23] WAIT_FOR_DIALOG_INTERACTION
 35: 0x00E0 [0x2B] Raogrimm (ID: 17236331/0x0107016B) [7869*]:
    → "I have been released from the hate that consumed me, but the half of my soul that was taken captive all those years ago is calling to me... It has become a towering darkness. A raging hatred, spawned from the depths of my being..."
 36: 0x00E7 [0x23] WAIT_FOR_DIALOG_INTERACTION
 37: 0x00E8 [0x52] END_LOAD_SCHEDULER: End scheduler "ur03" with entities [LocalPlayer, LocalPlayer], work=232*
 38: 0x00F7 [0x45] LOAD_SCHEDULED_TASK: Load scheduler "ur05" with entities [LocalPlayer, LocalPlayer], work=[232*, 0*]
 39: 0x0108 [0x66] LOAD_EXT_SCHEDULER_MAIN: Load scheduler "rgm3" with entities [Raogrimm (ID: 17236331/0x0107016B), Raogrimm (ID: 17236331/0x0107016B)], work=63*
 40: 0x0117 [0x53] WAIT_SCHEDULER_TASK: Wait for scheduler "rgm3" with entities [Raogrimm (ID: 17236331/0x0107016B), Raogrimm (ID: 17236331/0x0107016B)]
 41: 0x0124 [0x52] END_LOAD_SCHEDULER: End scheduler "ur05" with entities [LocalPlayer, LocalPlayer], work=232*
 42: 0x0133 [0x45] LOAD_SCHEDULED_TASK: Load scheduler "ur06" with entities [LocalPlayer, LocalPlayer], work=[232*, 0*]
 43: 0x0144 [0x66] LOAD_EXT_SCHEDULER_MAIN: Load scheduler "rgm2" with entities [Raogrimm (ID: 17236331/0x0107016B), Raogrimm (ID: 17236331/0x0107016B)], work=63*
 44: 0x0153 [0x2B] Raogrimm (ID: 17236331/0x0107016B) [7870*]:
    → "Very soon I will be drawn into that soul. I no longer have the strength to resist. The soul that was divided will become whole once more, and that rage will take on physical form."
 45: 0x015A [0x23] WAIT_FOR_DIALOG_INTERACTION
 46: 0x015B [0x66] LOAD_EXT_SCHEDULER_MAIN: Load scheduler "rgm3" with entities [Raogrimm (ID: 17236331/0x0107016B), Raogrimm (ID: 17236331/0x0107016B)], work=63*
 47: 0x016A [0x2B] Raogrimm (ID: 17236331/0x0107016B) [7871*]:
    → "A new Shadow Lord will be born. Surely you have sensed the growing evil? The beastman armies that are imprisoned here are massing for battle. They plan a return to the world of their origin, the realm that exists beneath the light of hope."
 48: 0x0171 [0x23] WAIT_FOR_DIALOG_INTERACTION
 49: 0x0172 [0x52] END_LOAD_SCHEDULER: End scheduler "ur06" with entities [LocalPlayer, LocalPlayer], work=232*
 50: 0x0181 [0x45] LOAD_SCHEDULED_TASK: Load scheduler "ur04" with entities [LocalPlayer, LocalPlayer], work=[232*, 0*]
 51: 0x0192 [0x6B] STOP_AND_IDLE: Raogrimm (ID: 17236331/0x0107016B) stops current action and resets to idle (animation="idl0")
 52: 0x019B [0x27] REQ_SET(priority=0x10, entity_id=Unnamed NPC (ID: 17236332/0x0107016C), tag_num=0x04)
 53: 0x01A2 [0x62] LOAD_EVENT_SCHEDULER: Load scheduler "kone" with entities [LocalPlayer, LocalPlayer], work=[22*, 0*]
 54: 0x01B3 [0x1C] WAIT(180* ticks)
 55: 0x01B6 [0x2B] Raogrimm (ID: 17236331/0x0107016B) [7872*]:
    → "My link to you will soon be severed, so listen carefully. Thirty years ago, an expeditionary squad formed from the elite soldiers of each nation was sent to investigate the Northlands. You must have seen their memories when you first laid your hand upon the chunks of magicite."
 56: 0x01BD [0x23] WAIT_FOR_DIALOG_INTERACTION
 57: 0x01BE [0x2B] Raogrimm (ID: 17236331/0x0107016B) [7873*]:
    → "Seek out the markings that the expedition members left behind. They will aid you in gaining entrance to this world. You must defeat the Shadow Lord before our unification is complete. My hopes go with you, <Player>."
 58: 0x01C5 [0x23] WAIT_FOR_DIALOG_INTERACTION
 59: 0x01C6 [0x27] REQ_SET(priority=0x10, entity_id=Unnamed NPC (ID: 17236332/0x0107016C), tag_num=0x05)
 60: 0x01CD [0x62] LOAD_EVENT_SCHEDULER: Load scheduler "kon1" with entities [LocalPlayer, LocalPlayer], work=[22*, 0*]
 61: 0x01DE [0x1C] WAIT(150* ticks)
 62: 0x01E1 [0x1A] CALL_SUBROUTINE(address=0x02FD)
 63: 0x01E4 [0x1C] WAIT(60* ticks)
 64: 0x01E7 [0x9F] LOAD_SCHEDULED_TASK_ALT: Load scheduler "stop" with entities [Raogrimm (ID: 17236331/0x0107016B), Raogrimm (ID: 17236331/0x0107016B)], work=[38*, 0*]
 65: 0x01F8 [0x52] END_LOAD_SCHEDULER: End scheduler "ur04" with entities [LocalPlayer, LocalPlayer], work=232*
 66: 0x0207 [0x45] LOAD_SCHEDULED_TASK: Load scheduler "ured" with entities [LocalPlayer, LocalPlayer], work=[232*, 0*]
 67: 0x0218 [0x1C] WAIT(30* ticks)
 68: 0x021B [0x1A] CALL_SUBROUTINE(address=0x02BB)
 69: 0x021E [0x1A] CALL_SUBROUTINE(address=0x02DC)
 70: 0x0221 [0x1C] WAIT(30* ticks)
 71: 0x0224 [0xAB] EventEntity->DespawnValue = 0* // Set despawn value
 72: 0x0228 [0x1C] WAIT(30* ticks)
 73: 0x022B [0x35] LOAD_ZONE_NO_CLOSE(zone_id=112*)
 74: 0x022E [0x78] ENABLE_GAME_TIMER_RESET_WEATHER()
 75: 0x022F [0x1C] WAIT(15* ticks)
 76: 0x0232 [0x5C] MUSIC_CONTROL: Set Idle (Day) music to song 164*
 77: 0x0236 [0x5C] MUSIC_CONTROL: Set Idle (Night) music to song 164*
 78: 0x023A [0x5C] MUSIC_CONTROL: Set Combat (Solo) music to song 101*
 79: 0x023E [0x5C] MUSIC_CONTROL: Set Combat (Party) music to song 103*
 80: 0x0242 [0x9A] WAIT_MUSIC_SERVER()
 81: 0x0243 [0x46] CAMERA_CONTROL: Restore default settings
 82: 0x0245 [0x45] LOAD_SCHEDULED_TASK: Load scheduler "fdi2" with entities [LocalPlayer, LocalPlayer], work=[200*, 0*]
 83: 0x0256 [0x21] END_EVENT
 84: 0x0257 [0x00] END_REQSTACK()

SUBROUTINE_0279:
 85: 0x0279 [0x45] LOAD_SCHEDULED_TASK: Load scheduler "fdo0" with entities [LocalPlayer, LocalPlayer], work=[200*, 0*]
 86: 0x028A [0x55] WAIT_LOAD_SCHEDULER: Wait for scheduler "fdo0" with entities [LocalPlayer, LocalPlayer], work=200*
 87: 0x0299 [0x1B] RETURN

SUBROUTINE_029A:
 88: 0x029A [0x45] LOAD_SCHEDULED_TASK: Load scheduler "fdi1" with entities [LocalPlayer, LocalPlayer], work=[200*, 0*]
 89: 0x02AB [0x55] WAIT_LOAD_SCHEDULER: Wait for scheduler "fdi1" with entities [LocalPlayer, LocalPlayer], work=200*
 90: 0x02BA [0x1B] RETURN

SUBROUTINE_02BB:
 91: 0x02BB [0x45] LOAD_SCHEDULED_TASK: Load scheduler "fdo1" with entities [LocalPlayer, LocalPlayer], work=[200*, 0*]
 92: 0x02CC [0x55] WAIT_LOAD_SCHEDULER: Wait for scheduler "fdo1" with entities [LocalPlayer, LocalPlayer], work=200*
 93: 0x02DB [0x1B] RETURN

SUBROUTINE_02DC:
 94: 0x02DC [0x45] LOAD_SCHEDULED_TASK: Load scheduler "whi1" with entities [LocalPlayer, LocalPlayer], work=[201*, 0*]
 95: 0x02ED [0x55] WAIT_LOAD_SCHEDULER: Wait for scheduler "whi1" with entities [LocalPlayer, LocalPlayer], work=201*
 96: 0x02FC [0x1B] RETURN

SUBROUTINE_02FD:
 97: 0x02FD [0x45] LOAD_SCHEDULED_TASK: Load scheduler "who1" with entities [LocalPlayer, LocalPlayer], work=[201*, 0*]
 98: 0x030E [0x55] WAIT_LOAD_SCHEDULER: Wait for scheduler "who1" with entities [LocalPlayer, LocalPlayer], work=201*
 99: 0x031D [0x1B] RETURN
```

#### Data or dead code:

```
# Dead code (unreachable instructions):
     0x0258 [0x45] LOAD_SCHEDULED_TASK: Load scheduler "fdi0" with entities [LocalPlayer, LocalPlayer], work=[200*, 0*]
     0x0269 [0x55] WAIT_LOAD_SCHEDULER: Wait for scheduler "fdi0" with entities [LocalPlayer, LocalPlayer], work=200*
     0x0278 [0x1B] RETURN
# Dead code (unreachable instructions):
     0x031E [0x45] LOAD_SCHEDULED_TASK: Load scheduler "who2" with entities [LocalPlayer, LocalPlayer], work=[201*, 0*]
     0x032F [0x55] WAIT_LOAD_SCHEDULER: Wait for scheduler "who2" with entities [LocalPlayer, LocalPlayer], work=201*
     0x033E [0x1B] RETURN
     0x033F [0x45] LOAD_SCHEDULED_TASK: Load scheduler "who3" with entities [LocalPlayer, LocalPlayer], work=[201*, 0*]
     0x0350 [0x55] WAIT_LOAD_SCHEDULER: Wait for scheduler "who3" with entities [LocalPlayer, LocalPlayer], work=201*
     0x035F [0x1B] RETURN
     0x0360 [0x62] LOAD_EVENT_SCHEDULER: Load scheduler "main" with entities [LocalPlayer, LocalPlayer], work=[1*, 0*]
     0x0371 [0x1C] WAIT(45* ticks)
     0x0374 [0x45] LOAD_SCHEDULED_TASK: Load scheduler "fdo1" with entities [LocalPlayer, LocalPlayer], work=[200*, 0*]
     0x0385 [0x55] WAIT_LOAD_SCHEDULER: Wait for scheduler "fdo1" with entities [LocalPlayer, LocalPlayer], work=200*
     0x0394 [0x1B] RETURN
     0x0395 [0x45] LOAD_SCHEDULED_TASK: Load scheduler "fdi1" with entities [LocalPlayer, LocalPlayer], work=[200*, 0*]
     0x03A6 [0x62] LOAD_EVENT_SCHEDULER: Load scheduler "main" with entities [LocalPlayer, LocalPlayer], work=[2*, 0*]
     0x03B7 [0x1C] WAIT(30* ticks)
     0x03BA [0x55] WAIT_LOAD_SCHEDULER: Wait for scheduler "fdi1" with entities [LocalPlayer, LocalPlayer], work=200*
     0x03C9 [0x1B] RETURN
     0x03CA [0x45] LOAD_SCHEDULED_TASK: Load scheduler "blon" with entities [LocalPlayer, LocalPlayer], work=[200*, 0*]
     0x03DB [0x45] LOAD_SCHEDULED_TASK: Load scheduler "blon" with entities [LocalPlayer, LocalPlayer], work=[201*, 0*]
     0x03EC [0x1B] RETURN
     0x03ED [0x45] LOAD_SCHEDULED_TASK: Load scheduler "whi0" with entities [LocalPlayer, LocalPlayer], work=[201*, 0*]
     0x03FE [0x55] WAIT_LOAD_SCHEDULER: Wait for scheduler "whi0" with entities [LocalPlayer, LocalPlayer], work=201*
     0x040D [0x1B] RETURN
     0x040E [0x45] LOAD_SCHEDULED_TASK: Load scheduler "who0" with entities [LocalPlayer, LocalPlayer], work=[201*, 0*]
     0x041F [0x55] WAIT_LOAD_SCHEDULER: Wait for scheduler "who0" with entities [LocalPlayer, LocalPlayer], work=201*
     0x042E [0x1B] RETURN
     0x042F [0x45] LOAD_SCHEDULED_TASK: Load scheduler "efon" with entities [LocalPlayer, LocalPlayer], work=[215*, 0*]
     0x0440 [0x55] WAIT_LOAD_SCHEDULER: Wait for scheduler "efon" with entities [LocalPlayer, LocalPlayer], work=215*
     0x044F [0x1B] RETURN
     0x0450 [0x45] LOAD_SCHEDULED_TASK: Load scheduler "fdis" with entities [LocalPlayer, LocalPlayer], work=[200*, 0*]
     0x0461 [0x1B] RETURN
     0x0462 [0x45] LOAD_SCHEDULED_TASK: Load scheduler "fdos" with entities [LocalPlayer, LocalPlayer], work=[200*, 0*]
     0x0473 [0x55] WAIT_LOAD_SCHEDULER: Wait for scheduler "fdos" with entities [LocalPlayer, LocalPlayer], work=200*
     0x0482 [0x1B] RETURN
     0x0483 [0x45] LOAD_SCHEDULED_TASK: Load scheduler "fdif" with entities [LocalPlayer, LocalPlayer], work=[200*, 0*]
     0x0494 [0x1B] RETURN
     0x0495 [0x45] LOAD_SCHEDULED_TASK: Load scheduler "fdof" with entities [LocalPlayer, LocalPlayer], work=[200*, 0*]
     0x04A6 [0x55] WAIT_LOAD_SCHEDULER: Wait for scheduler "fdof" with entities [LocalPlayer, LocalPlayer], work=200*
     0x04B5 [0x1B] RETURN
     0x04B6 [0x45] LOAD_SCHEDULED_TASK: Load scheduler "fdip" with entities [LocalPlayer, LocalPlayer], work=[200*, 0*]
     0x04C7 [0x1B] RETURN
     0x04C8 [0x45] LOAD_SCHEDULED_TASK: Load scheduler "fdop" with entities [LocalPlayer, LocalPlayer], work=[200*, 0*]
     0x04D9 [0x55] WAIT_LOAD_SCHEDULER: Wait for scheduler "fdop" with entities [LocalPlayer, LocalPlayer], work=200*
     0x04E8 [0x1B] RETURN
```
