# 17236388

## Common Data

| Field            | Value               |
|------------------|---------------------|
| Zone             | Xarcabard (ID: 112) |
| Block Size       | 252 bytes           |
| Total Events     | 10                  |
| References Count | 15                  |

## List of Events

| Event ID                 | Entrypoint   |   Size |   Instructions |
|--------------------------|--------------|--------|----------------|
| [65535](#event-65535)    | 0x0000       |      1 |              1 |
| [68](#event-68)          | 0x0001       |      7 |              2 |
| [65535.1](#event-655351) | 0x0008       |     16 |              3 |
| [65535.2](#event-655352) | 0x0018       |     16 |              3 |
| [65535.3](#event-655353) | 0x0028       |     16 |              3 |
| [65535.4](#event-655354) | 0x0038       |     16 |              3 |
| [65535.5](#event-655355) | 0x0048       |     16 |              3 |
| [65535.6](#event-655356) | 0x0058       |     16 |              3 |
| [65535.7](#event-655357) | 0x0068       |     16 |              3 |
| [65535.8](#event-655358) | 0x0078       |     16 |              3 |

## DAT References (imed_data)

|   Index | Hex Value   |   Dec Value |
|---------|-------------|-------------|
|       0 | 0xFFFFFF0E  |  4294967054 |
|       1 | 0x3F002     |      258050 |
|       2 | 0x4E0C      |       19980 |
|       3 | 0x01E0      |         480 |
|       4 | 0x0000      |           0 |
|       5 | 0x0081      |         129 |
|       6 | 0xFFFFFF0D  |  4294967053 |
|       7 | 0xFFFFFF0C  |  4294967052 |
|       8 | 0xFFFFFF0B  |  4294967051 |
|       9 | 0xFFFFFF08  |  4294967048 |
|      10 | 0xFFFFFF0A  |  4294967050 |
|      11 | 0xFFFFFF09  |  4294967049 |
|      12 | 0xFFFFFF07  |  4294967047 |
|      13 | 0x03E8      |        1000 |
|      14 | 0x01F4      |         500 |

## Events

### Event 65535

#### Metadata

| Field        | Value   |
|--------------|---------|
| Entrypoint   | 0x0000  |
| Data Size    | 1 bytes |
| Instructions | 1       |

```
      00 01 02 03 04 05 06 07  08 09 0A 0B 0C 0D 0E 0F
      -- -- -- -- -- -- -- --  -- -- -- -- -- -- -- --
0000: 00                                                .               
```

#### Opcodes

```
  0: 0x0000 [0x00] END_REQSTACK()
```

### Event 68

#### Metadata

| Field        | Value   |
|--------------|---------|
| Entrypoint   | 0x0001  |
| Data Size    | 7 bytes |
| Instructions | 2       |

```
      00 01 02 03 04 05 06 07  08 09 0A 0B 0C 0D 0E 0F
      -- -- -- -- -- -- -- --  -- -- -- -- -- -- -- --
0000:    92 01 F8 FF FF 7F 00                            .......        
```

#### Opcodes

```
  0: 0x0001 [0x92] EventEntity->Render.Flags3 ^= 0x01
  1: 0x0007 [0x00] END_REQSTACK()
```

### Event 65535.1

#### Metadata

| Field        | Value    |
|--------------|----------|
| Entrypoint   | 0x0008   |
| Data Size    | 16 bytes |
| Instructions | 3        |

```
      00 01 02 03 04 05 06 07  08 09 0A 0B 0C 0D 0E 0F
      -- -- -- -- -- -- -- --  -- -- -- -- -- -- -- --
0000:                          89 00 80 B4 14 01 80 02          ........
0010: 80 03 80 04 80 05 80 00                           ........        
```

#### Opcodes

```
  0: 0x0008 [0x89] OPEN_MAP(map_id=0x00008000)
  1: 0x000B [0xB4] UI_WINDOW_STRING_HANDLER(case=0x14 - Update map window values, work_offset1=258050*, work_offset2=19980*, work_offset3=480*, work_offset4=0*, work_offset5=129*)
  2: 0x0017 [0x00] END_REQSTACK()
```

### Event 65535.2

#### Metadata

| Field        | Value    |
|--------------|----------|
| Entrypoint   | 0x0018   |
| Data Size    | 16 bytes |
| Instructions | 3        |

```
      00 01 02 03 04 05 06 07  08 09 0A 0B 0C 0D 0E 0F
      -- -- -- -- -- -- -- --  -- -- -- -- -- -- -- --
0010:                          89 06 80 B4 14 01 80 02          ........
0020: 80 03 80 04 80 05 80 00                           ........        
```

#### Opcodes

```
  0: 0x0018 [0x89] OPEN_MAP(map_id=0x00008006)
  1: 0x001B [0xB4] UI_WINDOW_STRING_HANDLER(case=0x14 - Update map window values, work_offset1=258050*, work_offset2=19980*, work_offset3=480*, work_offset4=0*, work_offset5=129*)
  2: 0x0027 [0x00] END_REQSTACK()
```

### Event 65535.3

#### Metadata

| Field        | Value    |
|--------------|----------|
| Entrypoint   | 0x0028   |
| Data Size    | 16 bytes |
| Instructions | 3        |

```
      00 01 02 03 04 05 06 07  08 09 0A 0B 0C 0D 0E 0F
      -- -- -- -- -- -- -- --  -- -- -- -- -- -- -- --
0020:                          89 07 80 B4 14 01 80 02          ........
0030: 80 03 80 04 80 05 80 00                           ........        
```

#### Opcodes

```
  0: 0x0028 [0x89] OPEN_MAP(map_id=0x00008007)
  1: 0x002B [0xB4] UI_WINDOW_STRING_HANDLER(case=0x14 - Update map window values, work_offset1=258050*, work_offset2=19980*, work_offset3=480*, work_offset4=0*, work_offset5=129*)
  2: 0x0037 [0x00] END_REQSTACK()
```

### Event 65535.4

#### Metadata

| Field        | Value    |
|--------------|----------|
| Entrypoint   | 0x0038   |
| Data Size    | 16 bytes |
| Instructions | 3        |

```
      00 01 02 03 04 05 06 07  08 09 0A 0B 0C 0D 0E 0F
      -- -- -- -- -- -- -- --  -- -- -- -- -- -- -- --
0030:                          89 08 80 B4 14 01 80 02          ........
0040: 80 03 80 04 80 05 80 00                           ........        
```

#### Opcodes

```
  0: 0x0038 [0x89] OPEN_MAP(map_id=0x00008008)
  1: 0x003B [0xB4] UI_WINDOW_STRING_HANDLER(case=0x14 - Update map window values, work_offset1=258050*, work_offset2=19980*, work_offset3=480*, work_offset4=0*, work_offset5=129*)
  2: 0x0047 [0x00] END_REQSTACK()
```

### Event 65535.5

#### Metadata

| Field        | Value    |
|--------------|----------|
| Entrypoint   | 0x0048   |
| Data Size    | 16 bytes |
| Instructions | 3        |

```
      00 01 02 03 04 05 06 07  08 09 0A 0B 0C 0D 0E 0F
      -- -- -- -- -- -- -- --  -- -- -- -- -- -- -- --
0040:                          89 09 80 B4 14 01 80 02          ........
0050: 80 03 80 04 80 05 80 00                           ........        
```

#### Opcodes

```
  0: 0x0048 [0x89] OPEN_MAP(map_id=0x00008009)
  1: 0x004B [0xB4] UI_WINDOW_STRING_HANDLER(case=0x14 - Update map window values, work_offset1=258050*, work_offset2=19980*, work_offset3=480*, work_offset4=0*, work_offset5=129*)
  2: 0x0057 [0x00] END_REQSTACK()
```

### Event 65535.6

#### Metadata

| Field        | Value    |
|--------------|----------|
| Entrypoint   | 0x0058   |
| Data Size    | 16 bytes |
| Instructions | 3        |

```
      00 01 02 03 04 05 06 07  08 09 0A 0B 0C 0D 0E 0F
      -- -- -- -- -- -- -- --  -- -- -- -- -- -- -- --
0050:                          89 0A 80 B4 14 01 80 02          ........
0060: 80 03 80 04 80 05 80 00                           ........        
```

#### Opcodes

```
  0: 0x0058 [0x89] OPEN_MAP(map_id=0x0000800A)
  1: 0x005B [0xB4] UI_WINDOW_STRING_HANDLER(case=0x14 - Update map window values, work_offset1=258050*, work_offset2=19980*, work_offset3=480*, work_offset4=0*, work_offset5=129*)
  2: 0x0067 [0x00] END_REQSTACK()
```

### Event 65535.7

#### Metadata

| Field        | Value    |
|--------------|----------|
| Entrypoint   | 0x0068   |
| Data Size    | 16 bytes |
| Instructions | 3        |

```
      00 01 02 03 04 05 06 07  08 09 0A 0B 0C 0D 0E 0F
      -- -- -- -- -- -- -- --  -- -- -- -- -- -- -- --
0060:                          89 0B 80 B4 14 01 80 02          ........
0070: 80 03 80 04 80 05 80 00                           ........        
```

#### Opcodes

```
  0: 0x0068 [0x89] OPEN_MAP(map_id=0x0000800B)
  1: 0x006B [0xB4] UI_WINDOW_STRING_HANDLER(case=0x14 - Update map window values, work_offset1=258050*, work_offset2=19980*, work_offset3=480*, work_offset4=0*, work_offset5=129*)
  2: 0x0077 [0x00] END_REQSTACK()
```

### Event 65535.8

#### Metadata

| Field        | Value    |
|--------------|----------|
| Entrypoint   | 0x0078   |
| Data Size    | 16 bytes |
| Instructions | 3        |

```
      00 01 02 03 04 05 06 07  08 09 0A 0B 0C 0D 0E 0F
      -- -- -- -- -- -- -- --  -- -- -- -- -- -- -- --
0070:                          89 0C 80 B4 14 0D 80 0D          ........
0080: 80 0E 80 04 80 05 80 00                           ........        
```

#### Opcodes

```
  0: 0x0078 [0x89] OPEN_MAP(map_id=0x0000800C)
  1: 0x007B [0xB4] UI_WINDOW_STRING_HANDLER(case=0x14 - Update map window values, work_offset1=1000*, work_offset2=1000*, work_offset3=500*, work_offset4=0*, work_offset5=129*)
  2: 0x0087 [0x00] END_REQSTACK()
```
