# 17236414

## Common Data

| Field            | Value               |
|------------------|---------------------|
| Zone             | Xarcabard (ID: 112) |
| Block Size       | 376 bytes           |
| Total Events     | 12                  |
| References Count | 29                  |

## List of Events

| Event ID                   | Entrypoint   |   Size |   Instructions |
|----------------------------|--------------|--------|----------------|
| [65535](#event-65535)      | 0x0000       |      1 |              1 |
| [68](#event-68)            | 0x0001       |      7 |              2 |
| [65535.1](#event-655351)   | 0x0008       |     21 |              2 |
| [65535.2](#event-655352)   | 0x001D       |     21 |              2 |
| [65535.3](#event-655353)   | 0x0032       |     21 |              2 |
| [65535.4](#event-655354)   | 0x0047       |     21 |              2 |
| [65535.5](#event-655355)   | 0x005C       |     21 |              2 |
| [65535.6](#event-655356)   | 0x0071       |     21 |              2 |
| [65535.7](#event-655357)   | 0x0086       |     21 |              2 |
| [65535.8](#event-655358)   | 0x009B       |     21 |              2 |
| [65535.9](#event-655359)   | 0x00B0       |     10 |              2 |
| [65535.10](#event-6553510) | 0x00BA       |     10 |              2 |

## DAT References (imed_data)

|   Index | Hex Value   |   Dec Value |
|---------|-------------|-------------|
|       0 | 0x0006      |           6 |
|       1 | 0x001B      |          27 |
|       2 | 0x0077      |         119 |
|       3 | 0x0061      |          97 |
|       4 | 0x0014      |          20 |
|       5 | 0x03A9      |         937 |
|       6 | 0x0000      |           0 |
|       7 | 0x0001      |           1 |
|       8 | 0x0007      |           7 |
|       9 | 0x0085      |         133 |
|      10 | 0x0010      |          16 |
|      11 | 0x0002      |           2 |
|      12 | 0x015E      |         350 |
|      13 | 0x0052      |          82 |
|      14 | 0x0005      |           5 |
|      15 | 0x000D      |          13 |
|      16 | 0x0013      |          19 |
|      17 | 0x0017      |          23 |
|      18 | 0x001D      |          29 |
|      19 | 0x0003      |           3 |
|      20 | 0x0004      |           4 |
|      21 | 0x003E      |          62 |
|      22 | 0x003C      |          60 |
|      23 | 0x0008      |           8 |
|      24 | 0x0016      |          22 |
|      25 | 0x0019      |          25 |
|      26 | 0x000C      |          12 |
|      27 | 0x005C      |          92 |
|      28 | 0x0080      |         128 |

## Events

### Event 65535

#### Metadata

| Field        | Value   |
|--------------|---------|
| Entrypoint   | 0x0000  |
| Data Size    | 1 bytes |
| Instructions | 1       |

```
      00 01 02 03 04 05 06 07  08 09 0A 0B 0C 0D 0E 0F
      -- -- -- -- -- -- -- --  -- -- -- -- -- -- -- --
0000: 00                                                .               
```

#### Opcodes

```
  0: 0x0000 [0x00] END_REQSTACK()
```

### Event 68

#### Metadata

| Field        | Value   |
|--------------|---------|
| Entrypoint   | 0x0001  |
| Data Size    | 7 bytes |
| Instructions | 2       |

```
      00 01 02 03 04 05 06 07  08 09 0A 0B 0C 0D 0E 0F
      -- -- -- -- -- -- -- --  -- -- -- -- -- -- -- --
0000:    92 01 F8 FF FF 7F 00                            .......        
```

#### Opcodes

```
  0: 0x0001 [0x92] EventEntity->Render.Flags3 ^= 0x01
  1: 0x0007 [0x00] END_REQSTACK()
```

### Event 65535.1

#### Metadata

| Field        | Value    |
|--------------|----------|
| Entrypoint   | 0x0008   |
| Data Size    | 21 bytes |
| Instructions | 2        |

```
      00 01 02 03 04 05 06 07  08 09 0A 0B 0C 0D 0E 0F
      -- -- -- -- -- -- -- --  -- -- -- -- -- -- -- --
0000:                          B6 0B 00 80 01 80 02 80          ........
0010: 03 80 04 80 04 80 04 80  05 80 06 80 00           .............   
```

#### Opcodes

```
  0: 0x0008 [0xB6] ENTITY_APPEARANCE_HANDLER(case=Full entity look, race=6*, hair=27*, head=119*, body=97*, hands=20*, legs=20*, feet=20*, main=937*, sub=0*)
  1: 0x001C [0x00] END_REQSTACK()
```

### Event 65535.2

#### Metadata

| Field        | Value    |
|--------------|----------|
| Entrypoint   | 0x001D   |
| Data Size    | 21 bytes |
| Instructions | 2        |

```
      00 01 02 03 04 05 06 07  08 09 0A 0B 0C 0D 0E 0F
      -- -- -- -- -- -- -- --  -- -- -- -- -- -- -- --
0010:                                         B6 0B 07               ...
0020: 80 08 80 06 80 09 80 06  80 0A 80 0A 80 06 80 06  ................
0030: 80 00                                             ..              
```

#### Opcodes

```
  0: 0x001D [0xB6] ENTITY_APPEARANCE_HANDLER(case=Full entity look, race=1*, hair=7*, head=0*, body=133*, hands=0*, legs=16*, feet=16*, main=0*, sub=0*)
  1: 0x0031 [0x00] END_REQSTACK()
```

### Event 65535.3

#### Metadata

| Field        | Value    |
|--------------|----------|
| Entrypoint   | 0x0032   |
| Data Size    | 21 bytes |
| Instructions | 2        |

```
      00 01 02 03 04 05 06 07  08 09 0A 0B 0C 0D 0E 0F
      -- -- -- -- -- -- -- --  -- -- -- -- -- -- -- --
0030:       B6 0B 00 80 0B 80  02 80 0C 80 0D 80 0C 80    ..............
0040: 0C 80 06 80 06 80 00                              .......         
```

#### Opcodes

```
  0: 0x0032 [0xB6] ENTITY_APPEARANCE_HANDLER(case=Full entity look, race=6*, hair=2*, head=119*, body=350*, hands=82*, legs=350*, feet=350*, main=0*, sub=0*)
  1: 0x0046 [0x00] END_REQSTACK()
```

### Event 65535.4

#### Metadata

| Field        | Value    |
|--------------|----------|
| Entrypoint   | 0x0047   |
| Data Size    | 21 bytes |
| Instructions | 2        |

```
      00 01 02 03 04 05 06 07  08 09 0A 0B 0C 0D 0E 0F
      -- -- -- -- -- -- -- --  -- -- -- -- -- -- -- --
0040:                      B6  0B 0E 80 0F 80 10 80 11         .........
0050: 80 11 80 11 80 11 80 06  80 06 80 00              ............    
```

#### Opcodes

```
  0: 0x0047 [0xB6] ENTITY_APPEARANCE_HANDLER(case=Full entity look, race=5*, hair=13*, head=19*, body=23*, hands=23*, legs=23*, feet=23*, main=0*, sub=0*)
  1: 0x005B [0x00] END_REQSTACK()
```

### Event 65535.5

#### Metadata

| Field        | Value    |
|--------------|----------|
| Entrypoint   | 0x005C   |
| Data Size    | 21 bytes |
| Instructions | 2        |

```
      00 01 02 03 04 05 06 07  08 09 0A 0B 0C 0D 0E 0F
      -- -- -- -- -- -- -- --  -- -- -- -- -- -- -- --
0050:                                      B6 0B 12 80              ....
0060: 13 80 06 80 14 80 06 80  06 80 13 80 13 80 13 80  ................
0070: 00                                                .               
```

#### Opcodes

```
  0: 0x005C [0xB6] ENTITY_APPEARANCE_HANDLER(case=Full entity look, race=29*, hair=3*, head=0*, body=4*, hands=0*, legs=0*, feet=3*, main=3*, sub=3*)
  1: 0x0070 [0x00] END_REQSTACK()
```

### Event 65535.6

#### Metadata

| Field        | Value    |
|--------------|----------|
| Entrypoint   | 0x0071   |
| Data Size    | 21 bytes |
| Instructions | 2        |

```
      00 01 02 03 04 05 06 07  08 09 0A 0B 0C 0D 0E 0F
      -- -- -- -- -- -- -- --  -- -- -- -- -- -- -- --
0070:    B6 0B 13 80 0B 80 06  80 15 80 15 80 16 80 16   ...............
0080: 80 06 80 06 80 00                                 ......          
```

#### Opcodes

```
  0: 0x0071 [0xB6] ENTITY_APPEARANCE_HANDLER(case=Full entity look, race=3*, hair=2*, head=0*, body=62*, hands=62*, legs=60*, feet=60*, main=0*, sub=0*)
  1: 0x0085 [0x00] END_REQSTACK()
```

### Event 65535.7

#### Metadata

| Field        | Value    |
|--------------|----------|
| Entrypoint   | 0x0086   |
| Data Size    | 21 bytes |
| Instructions | 2        |

```
      00 01 02 03 04 05 06 07  08 09 0A 0B 0C 0D 0E 0F
      -- -- -- -- -- -- -- --  -- -- -- -- -- -- -- --
0080:                   B6 0B  17 80 0F 80 07 80 18 80        ..........
0090: 0E 80 19 80 1A 80 1B 80  06 80 00                 ...........     
```

#### Opcodes

```
  0: 0x0086 [0xB6] ENTITY_APPEARANCE_HANDLER(case=Full entity look, race=8*, hair=13*, head=1*, body=22*, hands=5*, legs=25*, feet=12*, main=92*, sub=0*)
  1: 0x009A [0x00] END_REQSTACK()
```

### Event 65535.8

#### Metadata

| Field        | Value    |
|--------------|----------|
| Entrypoint   | 0x009B   |
| Data Size    | 21 bytes |
| Instructions | 2        |

```
      00 01 02 03 04 05 06 07  08 09 0A 0B 0C 0D 0E 0F
      -- -- -- -- -- -- -- --  -- -- -- -- -- -- -- --
0090:                                   B6 0B 07 80 06             .....
00A0: 80 06 80 06 80 06 80 06  80 06 80 06 80 06 80 00  ................
```

#### Opcodes

```
  0: 0x009B [0xB6] ENTITY_APPEARANCE_HANDLER(case=Full entity look, race=1*, hair=0*, head=0*, body=0*, hands=0*, legs=0*, feet=0*, main=0*, sub=0*)
  1: 0x00AF [0x00] END_REQSTACK()
```

### Event 65535.9

#### Metadata

| Field        | Value    |
|--------------|----------|
| Entrypoint   | 0x00B0   |
| Data Size    | 10 bytes |
| Instructions | 2        |

```
      00 01 02 03 04 05 06 07  08 09 0A 0B 0C 0D 0E 0F
      -- -- -- -- -- -- -- --  -- -- -- -- -- -- -- --
00B0: 6C F8 FF FF 7F 06 80 07  80 00                    l.........      
```

#### Opcodes

```
  0: 0x00B0 [0x6C] FADE_ENTITY_COLOR(entity_id=EventEntity, end_alpha=0*, fade_time=1*)
  1: 0x00B9 [0x00] END_REQSTACK()
```

### Event 65535.10

#### Metadata

| Field        | Value    |
|--------------|----------|
| Entrypoint   | 0x00BA   |
| Data Size    | 10 bytes |
| Instructions | 2        |

```
      00 01 02 03 04 05 06 07  08 09 0A 0B 0C 0D 0E 0F
      -- -- -- -- -- -- -- --  -- -- -- -- -- -- -- --
00B0:                                6C F8 FF FF 7F 1C            l.....
00C0: 80 07 80 00                                       ....            
```

#### Opcodes

```
  0: 0x00BA [0x6C] FADE_ENTITY_COLOR(entity_id=EventEntity, end_alpha=128*, fade_time=1*)
  1: 0x00C3 [0x00] END_REQSTACK()
```
