# 17236390

## Common Data

| Field            | Value               |
|------------------|---------------------|
| Zone             | Xarcabard (ID: 112) |
| Block Size       | 9112 bytes          |
| Total Events     | 114                 |
| References Count | 139                 |

## List of Events

| Event ID                     | Entrypoint   |   Size |   Instructions |
|------------------------------|--------------|--------|----------------|
| [65535](#event-65535)        | 0x0000       |      1 |              1 |
| [68](#event-68)              | 0x0001       |      7 |              2 |
| [65535.1](#event-655351)     | 0x0008       |    176 |             26 |
| [65535.2](#event-655352)     | 0x00B8       |     18 |              2 |
| [65535.3](#event-655353)     | 0x00CA       |     33 |              3 |
| [65535.4](#event-655354)     | 0x00EB       |    265 |             45 |
| [65535.5](#event-655355)     | 0x01F4       |     15 |              3 |
| [65535.6](#event-655356)     | 0x0203       |    193 |             23 |
| [65535.7](#event-655357)     | 0x02C4       |     15 |              3 |
| [65535.8](#event-655358)     | 0x02D3       |     22 |              4 |
| [65535.9](#event-655359)     | 0x02E9       |    193 |             23 |
| [65535.10](#event-6553510)   | 0x03AA       |     22 |              4 |
| [65535.11](#event-6553511)   | 0x03C0       |     22 |              4 |
| [65535.12](#event-6553512)   | 0x03D6       |    275 |             33 |
| [65535.13](#event-6553513)   | 0x04E9       |     22 |              4 |
| [65535.14](#event-6553514)   | 0x04FF       |     36 |              6 |
| [65535.15](#event-6553515)   | 0x0523       |     14 |              2 |
| [65535.16](#event-6553516)   | 0x0531       |    221 |             29 |
| [65535.17](#event-6553517)   | 0x060E       |     50 |              8 |
| [65535.18](#event-6553518)   | 0x0640       |     43 |              7 |
| [65535.19](#event-6553519)   | 0x066B       |    113 |             15 |
| [65535.20](#event-6553520)   | 0x06DC       |     57 |              9 |
| [65535.21](#event-6553521)   | 0x0715       |     15 |              3 |
| [65535.22](#event-6553522)   | 0x0724       |    170 |             20 |
| [65535.23](#event-6553523)   | 0x07CE       |     15 |              3 |
| [65535.24](#event-6553524)   | 0x07DD       |     29 |              5 |
| [65535.25](#event-6553525)   | 0x07FA       |     13 |              3 |
| [65535.26](#event-6553526)   | 0x0807       |    170 |             20 |
| [65535.27](#event-6553527)   | 0x08B1       |     29 |              5 |
| [65535.28](#event-6553528)   | 0x08CE       |     29 |              5 |
| [65535.29](#event-6553529)   | 0x08EB       |    113 |             15 |
| [65535.30](#event-6553530)   | 0x095C       |     29 |              5 |
| [65535.31](#event-6553531)   | 0x0979       |     15 |              3 |
| [65535.32](#event-6553532)   | 0x0988       |    233 |             27 |
| [65535.33](#event-6553533)   | 0x0A71       |     15 |              3 |
| [65535.34](#event-6553534)   | 0x0A80       |     36 |              6 |
| [65535.35](#event-6553535)   | 0x0AA4       |    113 |             15 |
| [65535.36](#event-6553536)   | 0x0B15       |     36 |              6 |
| [65535.37](#event-6553537)   | 0x0B39       |     15 |              3 |
| [65535.38](#event-6553538)   | 0x0B48       |    170 |             20 |
| [65535.39](#event-6553539)   | 0x0BF2       |     15 |              3 |
| [65535.40](#event-6553540)   | 0x0C01       |     29 |              5 |
| [65535.41](#event-6553541)   | 0x0C1E       |     31 |              5 |
| [65535.42](#event-6553542)   | 0x0C3D       |    233 |             27 |
| [65535.43](#event-6553543)   | 0x0D26       |     29 |              5 |
| [65535.44](#event-6553544)   | 0x0D43       |     36 |              6 |
| [65535.45](#event-6553545)   | 0x0D67       |    250 |             28 |
| [65535.46](#event-6553546)   | 0x0E61       |     13 |              3 |
| [65535.47](#event-6553547)   | 0x0E6E       |     36 |              6 |
| [65535.48](#event-6553548)   | 0x0E92       |     43 |              7 |
| [65535.49](#event-6553549)   | 0x0EBD       |    173 |             21 |
| [65535.50](#event-6553550)   | 0x0F6A       |     43 |              7 |
| [65535.51](#event-6553551)   | 0x0F95       |     22 |              4 |
| [65535.52](#event-6553552)   | 0x0FAB       |    153 |             19 |
| [65535.53](#event-6553553)   | 0x1044       |     22 |              4 |
| [65535.54](#event-6553554)   | 0x105A       |     22 |              4 |
| [65535.55](#event-6553555)   | 0x1070       |     16 |              2 |
| [65535.56](#event-6553556)   | 0x1080       |    105 |             15 |
| [65535.57](#event-6553557)   | 0x10E9       |     22 |              4 |
| [65535.58](#event-6553558)   | 0x10FF       |     15 |              3 |
| [65535.59](#event-6553559)   | 0x110E       |    173 |             21 |
| [65535.60](#event-6553560)   | 0x11BB       |     22 |              4 |
| [65535.61](#event-6553561)   | 0x11D1       |     22 |              4 |
| [65535.62](#event-6553562)   | 0x11E7       |     93 |             15 |
| [65535.63](#event-6553563)   | 0x1244       |     22 |              4 |
| [65535.64](#event-6553564)   | 0x125A       |      8 |              2 |
| [65535.65](#event-6553565)   | 0x1262       |     93 |             15 |
| [65535.66](#event-6553566)   | 0x12BF       |      8 |              2 |
| [65535.67](#event-6553567)   | 0x12C7       |      8 |              2 |
| [65535.68](#event-6553568)   | 0x12CF       |     16 |              2 |
| [65535.69](#event-6553569)   | 0x12DF       |    253 |             29 |
| [65535.70](#event-6553570)   | 0x13DC       |      8 |              2 |
| [65535.71](#event-6553571)   | 0x13E4       |     29 |              5 |
| [65535.72](#event-6553572)   | 0x1401       |    173 |             21 |
| [65535.73](#event-6553573)   | 0x14AE       |     29 |              5 |
| [65535.74](#event-6553574)   | 0x14CB       |     22 |              4 |
| [65535.75](#event-6553575)   | 0x14E1       |    139 |             18 |
| [65535.76](#event-6553576)   | 0x156C       |     22 |              4 |
| [65535.77](#event-6553577)   | 0x1582       |     21 |              4 |
| [65535.78](#event-6553578)   | 0x1597       |    473 |             51 |
| [65535.79](#event-6553579)   | 0x1770       |     15 |              3 |
| [65535.80](#event-6553580)   | 0x177F       |     57 |              9 |
| [65535.81](#event-6553581)   | 0x17B8       |    109 |              9 |
| [65535.82](#event-6553582)   | 0x1825       |     90 |             12 |
| [65535.83](#event-6553583)   | 0x187F       |     57 |              9 |
| [65535.84](#event-6553584)   | 0x18B8       |     15 |              3 |
| [65535.85](#event-6553585)   | 0x18C7       |    130 |             16 |
| [65535.86](#event-6553586)   | 0x1949       |     15 |              3 |
| [65535.87](#event-6553587)   | 0x1958       |     50 |              8 |
| [65535.88](#event-6553588)   | 0x198A       |    170 |             20 |
| [65535.89](#event-6553589)   | 0x1A34       |     22 |              4 |
| [65535.90](#event-6553590)   | 0x1A4A       |     29 |              5 |
| [65535.91](#event-6553591)   | 0x1A67       |    153 |             19 |
| [65535.92](#event-6553592)   | 0x1B00       |     29 |              5 |
| [65535.93](#event-6553593)   | 0x1B1D       |     36 |              6 |
| [65535.94](#event-6553594)   | 0x1B41       |     16 |              2 |
| [65535.95](#event-6553595)   | 0x1B51       |    170 |             20 |
| [65535.96](#event-6553596)   | 0x1BFB       |     22 |              4 |
| [65535.97](#event-6553597)   | 0x1C11       |     29 |              5 |
| [65535.98](#event-6553598)   | 0x1C2E       |     28 |              6 |
| [65535.99](#event-6553599)   | 0x1C4A       |    210 |             24 |
| [65535.100](#event-65535100) | 0x1D1C       |     29 |              5 |
| [65535.101](#event-65535101) | 0x1D39       |     36 |              6 |
| [65535.102](#event-65535102) | 0x1D5D       |     86 |             12 |
| [65535.103](#event-65535103) | 0x1DB3       |     36 |              6 |
| [65535.104](#event-65535104) | 0x1DD7       |      8 |              2 |
| [65535.105](#event-65535105) | 0x1DDF       |     90 |             12 |
| [65535.106](#event-65535106) | 0x1E39       |      8 |              2 |
| [65535.107](#event-65535107) | 0x1E41       |     15 |              3 |
| [65535.108](#event-65535108) | 0x1E50       |    223 |             33 |
| [65535.109](#event-65535109) | 0x1F2F       |     15 |              3 |
| [65535.110](#event-65535110) | 0x1F3E       |     22 |              4 |
| [65535.111](#event-65535111) | 0x1F54       |     42 |              4 |
| [65535.112](#event-65535112) | 0x1F7E       |     22 |              4 |

## DAT References (imed_data)

|   Index | Hex Value   |   Dec Value |
|---------|-------------|-------------|
|       0 | 0x00C8      |         200 |
|       1 | 0x0000      |           0 |
|       2 | 0x0001      |           1 |
|       3 | 0xFFFFFE70  |  4294966896 |
|       4 | 0x0010      |          16 |
|       5 | 0x0002      |           2 |
|       6 | 0xFFFFFF38  |  4294967096 |
|       7 | 0xFFFFFFF0  |  4294967280 |
|       8 | 0x0003      |           3 |
|       9 | 0xFFFFFF06  |  4294967046 |
|      10 | 0xFFFFFFC0  |  4294967232 |
|      11 | 0x0004      |           4 |
|      12 | 0x0005      |           5 |
|      13 | 0x0BB8      |        3000 |
|      14 | 0xFFFFFCE0  |  4294966496 |
|      15 | 0x1AAF4     |      109300 |
|      16 | 0x0020      |          32 |
|      17 | 0x001E      |          30 |
|      18 | 0x0A55      |        2645 |
|      19 | 0xFFFFF060  |  4294963296 |
|      20 | 0x0190      |         400 |
|      21 | 0x1B198     |      111000 |
|      22 | 0xFFFFEC78  |  4294962296 |
|      23 | 0xFFFFFBB4  |  4294966196 |
|      24 | 0x1AE78     |      110200 |
|      25 | 0xFFFFFFE0  |  4294967264 |
|      26 | 0x04B0      |        1200 |
|      27 | 0x0040      |          64 |
|      28 | 0x0A23      |        2595 |
|      29 | 0x04F2      |        1266 |
|      30 | 0x04F0      |        1264 |
|      31 | 0x09C4      |        2500 |
|      32 | 0x1A964     |      108900 |
|      33 | 0xFFFFFED4  |  4294966996 |
|      34 | 0x1A9C8     |      109000 |
|      35 | 0x0371      |         881 |
|      36 | 0xFFFFFDDA  |  4294966746 |
|      37 | 0xFFFFFC18  |  4294966296 |
|      38 | 0x1AEDC     |      110300 |
|      39 | 0x0258      |         600 |
|      40 | 0xFFFFF830  |  4294965296 |
|      41 | 0xFFFFF380  |  4294964096 |
|      42 | 0x03E8      |        1000 |
|      43 | 0x1AFA4     |      110500 |
|      44 | 0x02D8      |         728 |
|      45 | 0xFFFFF63C  |  4294964796 |
|      46 | 0x1B134     |      110900 |
|      47 | 0xFFFFE69C  |  4294960796 |
|      48 | 0xFFFFF254  |  4294963796 |
|      49 | 0xFFFFFC7C  |  4294966396 |
|      50 | 0xFFFFEE6C  |  4294962796 |
|      51 | 0x044C      |        1100 |
|      52 | 0xFFFFE0C0  |  4294959296 |
|      53 | 0x0514      |        1300 |
|      54 | 0x1B5E4     |      112100 |
|      55 | 0x0100      |         256 |
|      56 | 0xFFFFFE0C  |  4294966796 |
|      57 | 0x1B3F0     |      111600 |
|      58 | 0x0ABB      |        2747 |
|      59 | 0xFFFFFD44  |  4294966596 |
|      60 | 0x1AA90     |      109200 |
|      61 | 0x0032      |          50 |
|      62 | 0x0080      |         128 |
|      63 | 0x0008      |           8 |
|      64 | 0x07D0      |        2000 |
|      65 | 0x0DAC      |        3500 |
|      66 | 0x1ABBC     |      109500 |
|      67 | 0x05DC      |        1500 |
|      68 | 0x0ED8      |        3800 |
|      69 | 0x0FA0      |        4000 |
|      70 | 0x0343      |         835 |
|      71 | 0xFFFFFA24  |  4294965796 |
|      72 | 0x01F4      |         500 |
|      73 | 0x1AC84     |      109700 |
|      74 | 0xFFFFFF80  |  4294967168 |
|      75 | 0x0384      |         900 |
|      76 | 0x00C0      |         192 |
|      77 | 0x00D8      |         216 |
|      78 | 0x1AA2C     |      109100 |
|      79 | 0x0CE4      |        3300 |
|      80 | 0x0356      |         854 |
|      81 | 0xFFFFFFA0  |  4294967200 |
|      82 | 0x1AB58     |      109400 |
|      83 | 0x0353      |         851 |
|      84 | 0x0078      |         120 |
|      85 | 0x000B      |          11 |
|      86 | 0x0060      |          96 |
|      87 | 0x0096      |         150 |
|      88 | 0xFFFFFD12  |  4294966546 |
|      89 | 0x0362      |         866 |
|      90 | 0x012C      |         300 |
|      91 | 0xFFFFFF9C  |  4294967196 |
|      92 | 0x096A      |        2410 |
|      93 | 0x08B2      |        2226 |
|      94 | 0xFFFFFDA8  |  4294966696 |
|      95 | 0x0029      |          41 |
|      96 | 0xFFFFE890  |  4294961296 |
|      97 | 0x1B38C     |      111500 |
|      98 | 0x1ADB0     |      110000 |
|      99 | 0xFFFFFB1E  |  4294966046 |
|     100 | 0x1388      |        5000 |
|     101 | 0x1A7D4     |      108500 |
|     102 | 0x055D      |        1373 |
|     103 | 0xFFFFF448  |  4294964296 |
|     104 | 0xFFFFDCD8  |  4294958296 |
|     105 | 0x1D8A8     |      121000 |
|     106 | 0x01F5      |         501 |
|     107 | 0xFFFFFEA2  |  4294966946 |
|     108 | 0x0E74      |        3700 |
|     109 | 0x0F3C      |        3900 |
|     110 | 0x0028      |          40 |
|     111 | 0x00FC      |         252 |
|     112 | 0x0C80      |        3200 |
|     113 | 0x0C1C      |        3100 |
|     114 | 0x002A      |          42 |
|     115 | 0x00B5      |         181 |
|     116 | 0x0E10      |        3600 |
|     117 | 0x1A900     |      108800 |
|     118 | 0x00A0      |         160 |
|     119 | 0x000F      |          15 |
|     120 | 0xFFFFFD76  |  4294966646 |
|     121 | 0x00FA      |         250 |
|     122 | 0x0AF0      |        2800 |
|     123 | 0x0226      |         550 |
|     124 | 0x0055      |          85 |
|     125 | 0x0051      |          81 |
|     126 | 0x005A      |          90 |
|     127 | 0x0A8C      |        2700 |
|     128 | 0x0708      |        1800 |
|     129 | 0x009C      |         156 |
|     130 | 0x076C      |        1900 |
|     131 | 0x000C      |          12 |
|     132 | 0x003C      |          60 |
|     133 | 0x001D      |          29 |
|     134 | 0x1AC20     |      109600 |
|     135 | 0x1B580     |      112000 |
|     136 | 0xFFFFF4AC  |  4294964396 |
|     137 | 0xFFFFFF00  |  4294967040 |
|     138 | 0x0866      |        2150 |

## Events

### Event 65535

#### Metadata

| Field        | Value   |
|--------------|---------|
| Entrypoint   | 0x0000  |
| Data Size    | 1 bytes |
| Instructions | 1       |

```
      00 01 02 03 04 05 06 07  08 09 0A 0B 0C 0D 0E 0F
      -- -- -- -- -- -- -- --  -- -- -- -- -- -- -- --
0000: 00                                                .               
```

#### Opcodes

```
  0: 0x0000 [0x00] END_REQSTACK()
```

### Event 68

#### Metadata

| Field        | Value   |
|--------------|---------|
| Entrypoint   | 0x0001  |
| Data Size    | 7 bytes |
| Instructions | 2       |

```
      00 01 02 03 04 05 06 07  08 09 0A 0B 0C 0D 0E 0F
      -- -- -- -- -- -- -- --  -- -- -- -- -- -- -- --
0000:    92 01 F8 FF FF 7F 00                            .......        
```

#### Opcodes

```
  0: 0x0001 [0x92] EventEntity->Render.Flags3 ^= 0x01
  1: 0x0007 [0x00] END_REQSTACK()
```

### Event 65535.1

#### Metadata

| Field        | Value     |
|--------------|-----------|
| Entrypoint   | 0x0008    |
| Data Size    | 176 bytes |
| Instructions | 26        |

```
      00 01 02 03 04 05 06 07  08 09 0A 0B 0C 0D 0E 0F
      -- -- -- -- -- -- -- --  -- -- -- -- -- -- -- --
0000:                          27 10 A7 01 07 01 06 27          '......'
0010: 10 A8 01 07 01 04 27 10  A9 01 07 01 04 27 10 AA  ......'......'..
0020: 01 07 01 11 27 10 AB 01  07 01 0F 27 10 AC 01 07  ....'......'....
0030: 01 0C 27 10 AD 01 07 01  07 27 10 AE 01 07 01 06  ..'......'......
0040: 27 10 AF 01 07 01 06 27  10 B0 01 07 01 04 27 10  '......'......'.
0050: B1 01 07 01 04 27 10 B2  01 07 01 04 27 10 B3 01  .....'......'...
0060: 07 01 07 27 10 B4 01 07  01 05 27 10 B5 01 07 01  ...'......'.....
0070: 05 27 10 B6 01 07 01 04  27 10 B7 01 07 01 04 27  .'......'......'
0080: 10 B8 01 07 01 04 27 10  B9 01 07 01 04 27 10 BA  ......'......'..
0090: 01 07 01 07 27 10 BC 01  07 01 0F 27 10 BD 01 07  ....'......'....
00A0: 01 0D 27 10 BE 01 07 01  0A 27 10 BF 01 07 01 06  ..'......'......
00B0: 27 10 C2 01 07 01 06 00                           '.......        
```

#### Opcodes

```
  0: 0x0008 [0x27] REQ_SET(priority=0x10, entity_id=Unnamed NPC (ID: 17236391/0x010701A7), tag_num=0x06)
  1: 0x000F [0x27] REQ_SET(priority=0x10, entity_id=Unnamed NPC (ID: 17236392/0x010701A8), tag_num=0x04)
  2: 0x0016 [0x27] REQ_SET(priority=0x10, entity_id=Unnamed NPC (ID: 17236393/0x010701A9), tag_num=0x04)
  3: 0x001D [0x27] REQ_SET(priority=0x10, entity_id=Unnamed NPC (ID: 17236394/0x010701AA), tag_num=0x11)
  4: 0x0024 [0x27] REQ_SET(priority=0x10, entity_id=Unnamed NPC (ID: 17236395/0x010701AB), tag_num=0x0F)
  5: 0x002B [0x27] REQ_SET(priority=0x10, entity_id=Unnamed NPC (ID: 17236396/0x010701AC), tag_num=0x0C)
  6: 0x0032 [0x27] REQ_SET(priority=0x10, entity_id=Unnamed NPC (ID: 17236397/0x010701AD), tag_num=0x07)
  7: 0x0039 [0x27] REQ_SET(priority=0x10, entity_id=Unnamed NPC (ID: 17236398/0x010701AE), tag_num=0x06)
  8: 0x0040 [0x27] REQ_SET(priority=0x10, entity_id=Unnamed NPC (ID: 17236399/0x010701AF), tag_num=0x06)
  9: 0x0047 [0x27] REQ_SET(priority=0x10, entity_id=Unnamed NPC (ID: 17236400/0x010701B0), tag_num=0x04)
 10: 0x004E [0x27] REQ_SET(priority=0x10, entity_id=Unnamed NPC (ID: 17236401/0x010701B1), tag_num=0x04)
 11: 0x0055 [0x27] REQ_SET(priority=0x10, entity_id=Unnamed NPC (ID: 17236402/0x010701B2), tag_num=0x04)
 12: 0x005C [0x27] REQ_SET(priority=0x10, entity_id=Unnamed NPC (ID: 17236403/0x010701B3), tag_num=0x07)
 13: 0x0063 [0x27] REQ_SET(priority=0x10, entity_id=Unnamed NPC (ID: 17236404/0x010701B4), tag_num=0x05)
 14: 0x006A [0x27] REQ_SET(priority=0x10, entity_id=Unnamed NPC (ID: 17236405/0x010701B5), tag_num=0x05)
 15: 0x0071 [0x27] REQ_SET(priority=0x10, entity_id=Unnamed NPC (ID: 17236406/0x010701B6), tag_num=0x04)
 16: 0x0078 [0x27] REQ_SET(priority=0x10, entity_id=Unnamed NPC (ID: 17236407/0x010701B7), tag_num=0x04)
 17: 0x007F [0x27] REQ_SET(priority=0x10, entity_id=Unnamed NPC (ID: 17236408/0x010701B8), tag_num=0x04)
 18: 0x0086 [0x27] REQ_SET(priority=0x10, entity_id=Unnamed NPC (ID: 17236409/0x010701B9), tag_num=0x04)
 19: 0x008D [0x27] REQ_SET(priority=0x10, entity_id=Unnamed NPC (ID: 17236410/0x010701BA), tag_num=0x07)
 20: 0x0094 [0x27] REQ_SET(priority=0x10, entity_id=Unnamed NPC (ID: 17236412/0x010701BC), tag_num=0x0F)
 21: 0x009B [0x27] REQ_SET(priority=0x10, entity_id=Unnamed NPC (ID: 17236413/0x010701BD), tag_num=0x0D)
 22: 0x00A2 [0x27] REQ_SET(priority=0x10, entity_id=Unnamed NPC (ID: 17236414/0x010701BE), tag_num=0x0A)
 23: 0x00A9 [0x27] REQ_SET(priority=0x10, entity_id=Unnamed NPC (ID: 17236415/0x010701BF), tag_num=0x06)
 24: 0x00B0 [0x27] REQ_SET(priority=0x10, entity_id=Unnamed NPC (ID: 17236418/0x010701C2), tag_num=0x06)
 25: 0x00B7 [0x00] END_REQSTACK()
```

### Event 65535.2

#### Metadata

| Field        | Value    |
|--------------|----------|
| Entrypoint   | 0x00B8   |
| Data Size    | 18 bytes |
| Instructions | 2        |

```
      00 01 02 03 04 05 06 07  08 09 0A 0B 0C 0D 0E 0F
      -- -- -- -- -- -- -- --  -- -- -- -- -- -- -- --
00B0:                          45 00 80 F8 FF FF 7F F8          E.......
00C0: FF FF 7F 66 64 69 32 01  80 00                    ...fdi2...      
```

#### Opcodes

```
  0: 0x00B8 [0x45] LOAD_SCHEDULED_TASK: Load scheduler "fdi2" with entities [EventEntity, EventEntity], work=[200*, 0*]
  1: 0x00C9 [0x00] END_REQSTACK()
```

### Event 65535.3

#### Metadata

| Field        | Value    |
|--------------|----------|
| Entrypoint   | 0x00CA   |
| Data Size    | 33 bytes |
| Instructions | 3        |

```
      00 01 02 03 04 05 06 07  08 09 0A 0B 0C 0D 0E 0F
      -- -- -- -- -- -- -- --  -- -- -- -- -- -- -- --
00C0:                                45 00 80 F8 FF FF            E.....
00D0: 7F F8 FF FF 7F 66 64 6F  32 01 80 55 00 80 F8 FF  .....fdo2..U....
00E0: FF 7F F8 FF FF 7F 66 64  6F 32 00                 ......fdo2.     
```

#### Opcodes

```
  0: 0x00CA [0x45] LOAD_SCHEDULED_TASK: Load scheduler "fdo2" with entities [EventEntity, EventEntity], work=[200*, 0*]
  1: 0x00DB [0x55] WAIT_LOAD_SCHEDULER: Wait for scheduler "fdo2" with entities [EventEntity, EventEntity], work=200*
  2: 0x00EA [0x00] END_REQSTACK()
```

### Event 65535.4

#### Metadata

| Field        | Value     |
|--------------|-----------|
| Entrypoint   | 0x00EB    |
| Data Size    | 265 bytes |
| Instructions | 3         |

```
      00 01 02 03 04 05 06 07  08 09 0A 0B 0C 0D 0E 0F
      -- -- -- -- -- -- -- --  -- -- -- -- -- -- -- --
00E0:                                   03 01 00 01 80             .....
00F0: DA 00 00 02 00 00 01 80  80 08 01 03 01 00 01 80  ................
0100: 03 04 00 01 80 01 71 01  02 00 00 02 80 80 1D 01  ......q.........
0110: 03 01 00 03 80 03 02 00  04 80 01 71 01 02 00 00  ...........q....
0120: 05 80 80 32 01 03 01 00  06 80 03 02 00 07 80 01  ...2............
0130: 71 01 02 00 00 08 80 80  47 01 03 01 00 09 80 03  q.......G.......
0140: 02 00 0A 80 01 71 01 02  00 00 0B 80 80 5C 01 03  .....q.......\..
0150: 01 00 09 80 03 02 00 07  80 01 71 01 02 00 00 0C  ..........q.....
0160: 80 80 71 01 03 01 00 01  80 03 04 00 01 80 01 71  ..q............q
0170: 01 BA AA 01 07 01 01 80  01 80 01 80 01 80 BA AB  ................
0180: 01 07 01 01 80 01 80 01  80 01 80 1C 0C 80 27 10  ..............'.
0190: AA 01 07 01 02 27 10 AB  01 07 01 02 1C 02 80 27  .....'.........'
01A0: 10 AA 01 07 01 11 27 10  AB 01 07 01 0F 1C 0C 80  ......'.........
01B0: BA AA 01 07 01 0D 80 0E  80 0F 80 01 80 BA AB 01  ................
01C0: 07 01 0D 80 01 80 0F 80  10 80 80 AA 01 07 01 80  ................
01D0: AB 01 07 01 1C 11 80 2C  AA 01 07 01 AA 01 07 01  .......,........
01E0: 68 61 70 30 5B 12 80 AB  01 07 01 AB 01 07 01 72  hap0[..........r
01F0: 63 73 64 00                                       csd.            
```

#### Opcodes

```
  0: 0x00EB [0x03] ExtData[1]->WorkLocal[1] = 0*
  1: 0x00F0 [0xDA] UNKNOWN_OPCODE_0xDA
  2: 0x00F1 [0x00] END_REQSTACK()
```

#### Data or dead code:

```
# Dead code (unreachable instructions):
     0x00F2 [0x00] END_REQSTACK()
     0x00F3 [0x02] IF !(ExtData[1]->WorkLocal[0] == 0*) GOTO 0x0108
     0x00FB [0x03] ExtData[1]->WorkLocal[1] = 0*
     0x0100 [0x03] ExtData[1]->WorkLocal[4] = 0*
     0x0105 [0x01] GOTO 0x0171
     0x0108 [0x02] IF !(ExtData[1]->WorkLocal[0] == 1*) GOTO 0x011D
     0x0110 [0x03] ExtData[1]->WorkLocal[1] = 4294966896*
     0x0115 [0x03] ExtData[1]->WorkLocal[2] = 16*
     0x011A [0x01] GOTO 0x0171
     0x011D [0x02] IF !(ExtData[1]->WorkLocal[0] == 2*) GOTO 0x0132
     0x0125 [0x03] ExtData[1]->WorkLocal[1] = 4294967096*
     0x012A [0x03] ExtData[1]->WorkLocal[2] = 4294967280*
     0x012F [0x01] GOTO 0x0171
     0x0132 [0x02] IF !(ExtData[1]->WorkLocal[0] == 3*) GOTO 0x0147
     0x013A [0x03] ExtData[1]->WorkLocal[1] = 4294967046*
     0x013F [0x03] ExtData[1]->WorkLocal[2] = 4294967232*
     0x0144 [0x01] GOTO 0x0171
     0x0147 [0x02] IF !(ExtData[1]->WorkLocal[0] == 4*) GOTO 0x015C
     0x014F [0x03] ExtData[1]->WorkLocal[1] = 4294967046*
     0x0154 [0x03] ExtData[1]->WorkLocal[2] = 4294967280*
     0x0159 [0x01] GOTO 0x0171
     0x015C [0x02] IF !(ExtData[1]->WorkLocal[0] == 5*) GOTO 0x0171
     0x0164 [0x03] ExtData[1]->WorkLocal[1] = 0*
     0x0169 [0x03] ExtData[1]->WorkLocal[4] = 0*
     0x016E [0x01] GOTO 0x0171
     0x0171 [0xBA] SET_ENTITY_POSITION(entity_id=Unnamed NPC (ID: 17236394/0x010701AA), pos_x=0.000*, pos_z=0.000*, pos_y=0.000*, direction=0.0°*)
     0x017E [0xBA] SET_ENTITY_POSITION(entity_id=Unnamed NPC (ID: 17236395/0x010701AB), pos_x=0.000*, pos_z=0.000*, pos_y=0.000*, direction=0.0°*)
     0x018B [0x1C] WAIT(5* ticks)
     0x018E [0x27] REQ_SET(priority=0x10, entity_id=Unnamed NPC (ID: 17236394/0x010701AA), tag_num=0x02)
     0x0195 [0x27] REQ_SET(priority=0x10, entity_id=Unnamed NPC (ID: 17236395/0x010701AB), tag_num=0x02)
     0x019C [0x1C] WAIT(1* ticks)
     0x019F [0x27] REQ_SET(priority=0x10, entity_id=Unnamed NPC (ID: 17236394/0x010701AA), tag_num=0x11)
     0x01A6 [0x27] REQ_SET(priority=0x10, entity_id=Unnamed NPC (ID: 17236395/0x010701AB), tag_num=0x0F)
     0x01AD [0x1C] WAIT(5* ticks)
     0x01B0 [0xBA] SET_ENTITY_POSITION(entity_id=Unnamed NPC (ID: 17236394/0x010701AA), pos_x=3.000*, pos_z=-0.800*, pos_y=109.300*, direction=0.0°*)
     0x01BD [0xBA] SET_ENTITY_POSITION(entity_id=Unnamed NPC (ID: 17236395/0x010701AB), pos_x=3.000*, pos_z=0.000*, pos_y=109.300*, direction=2.8°*)
     0x01CA [0x80] LOAD_WAIT(entity=Unnamed NPC (ID: 17236394/0x010701AA))
     0x01CF [0x80] LOAD_WAIT(entity=Unnamed NPC (ID: 17236395/0x010701AB))
     0x01D4 [0x1C] WAIT(30* ticks)
     0x01D7 [0x2C] CREATE_SCHEDULER_TASK: Create scheduler "hap0" with entities [Unnamed NPC (ID: 17236394/0x010701AA), Unnamed NPC (ID: 17236394/0x010701AA)]
     0x01E4 [0x5B] LOAD_EXT_SCHEDULER: Load scheduler "rcsd" with entities [Unnamed NPC (ID: 17236395/0x010701AB), Unnamed NPC (ID: 17236395/0x010701AB)], work=2645*
     0x01F3 [0x00] END_REQSTACK()
```

### Event 65535.5

#### Metadata

| Field        | Value    |
|--------------|----------|
| Entrypoint   | 0x01F4   |
| Data Size    | 15 bytes |
| Instructions | 3        |

```
      00 01 02 03 04 05 06 07  08 09 0A 0B 0C 0D 0E 0F
      -- -- -- -- -- -- -- --  -- -- -- -- -- -- -- --
01F0:             27 10 AA 01  07 01 12 27 10 AB 01 07      '......'....
0200: 01 10 00                                          ...             
```

#### Opcodes

```
  0: 0x01F4 [0x27] REQ_SET(priority=0x10, entity_id=Unnamed NPC (ID: 17236394/0x010701AA), tag_num=0x12)
  1: 0x01FB [0x27] REQ_SET(priority=0x10, entity_id=Unnamed NPC (ID: 17236395/0x010701AB), tag_num=0x10)
  2: 0x0202 [0x00] END_REQSTACK()
```

### Event 65535.6

#### Metadata

| Field        | Value     |
|--------------|-----------|
| Entrypoint   | 0x0203    |
| Data Size    | 193 bytes |
| Instructions | 23        |

```
      00 01 02 03 04 05 06 07  08 09 0A 0B 0C 0D 0E 0F
      -- -- -- -- -- -- -- --  -- -- -- -- -- -- -- --
0200:          BA B3 01 07 01  01 80 01 80 01 80 01 80     .............
0210: BA B4 01 07 01 01 80 01  80 01 80 01 80 BA B5 01  ................
0220: 07 01 01 80 01 80 01 80  01 80 1C 0C 80 27 10 B3  .............'..
0230: 01 07 01 02 27 10 B4 01  07 01 02 27 10 B5 01 07  ....'......'....
0240: 01 02 1C 02 80 27 10 B3  01 07 01 07 27 10 B4 01  .....'......'...
0250: 07 01 05 27 10 B5 01 07  01 05 1C 0C 80 BA B3 01  ...'............
0260: 07 01 13 80 14 80 15 80  10 80 BA B4 01 07 01 16  ................
0270: 80 17 80 18 80 19 80 BA  B5 01 07 01 16 80 1A 80  ................
0280: 18 80 1B 80 80 B3 01 07  01 80 B4 01 07 01 80 B5  ................
0290: 01 07 01 1C 02 80 5B 1C  80 B3 01 07 01 B3 01 07  ......[.........
02A0: 01 61 6E 67 30 5B 1D 80  B4 01 07 01 B4 01 07 01  .ang0[..........
02B0: 70 76 30 30 5B 1E 80 B5  01 07 01 B5 01 07 01 70  pv00[..........p
02C0: 76 30 30 00                                       v00.            
```

#### Opcodes

```
  0: 0x0203 [0xBA] SET_ENTITY_POSITION(entity_id=Unnamed NPC (ID: 17236403/0x010701B3), pos_x=0.000*, pos_z=0.000*, pos_y=0.000*, direction=0.0°*)
  1: 0x0210 [0xBA] SET_ENTITY_POSITION(entity_id=Unnamed NPC (ID: 17236404/0x010701B4), pos_x=0.000*, pos_z=0.000*, pos_y=0.000*, direction=0.0°*)
  2: 0x021D [0xBA] SET_ENTITY_POSITION(entity_id=Unnamed NPC (ID: 17236405/0x010701B5), pos_x=0.000*, pos_z=0.000*, pos_y=0.000*, direction=0.0°*)
  3: 0x022A [0x1C] WAIT(5* ticks)
  4: 0x022D [0x27] REQ_SET(priority=0x10, entity_id=Unnamed NPC (ID: 17236403/0x010701B3), tag_num=0x02)
  5: 0x0234 [0x27] REQ_SET(priority=0x10, entity_id=Unnamed NPC (ID: 17236404/0x010701B4), tag_num=0x02)
  6: 0x023B [0x27] REQ_SET(priority=0x10, entity_id=Unnamed NPC (ID: 17236405/0x010701B5), tag_num=0x02)
  7: 0x0242 [0x1C] WAIT(1* ticks)
  8: 0x0245 [0x27] REQ_SET(priority=0x10, entity_id=Unnamed NPC (ID: 17236403/0x010701B3), tag_num=0x07)
  9: 0x024C [0x27] REQ_SET(priority=0x10, entity_id=Unnamed NPC (ID: 17236404/0x010701B4), tag_num=0x05)
 10: 0x0253 [0x27] REQ_SET(priority=0x10, entity_id=Unnamed NPC (ID: 17236405/0x010701B5), tag_num=0x05)
 11: 0x025A [0x1C] WAIT(5* ticks)
 12: 0x025D [0xBA] SET_ENTITY_POSITION(entity_id=Unnamed NPC (ID: 17236403/0x010701B3), pos_x=-4.000*, pos_z=0.400*, pos_y=111.000*, direction=2.8°*)
 13: 0x026A [0xBA] SET_ENTITY_POSITION(entity_id=Unnamed NPC (ID: 17236404/0x010701B4), pos_x=-5.000*, pos_z=-1.100*, pos_y=110.200*, direction=377476216.4°*)
 14: 0x0277 [0xBA] SET_ENTITY_POSITION(entity_id=Unnamed NPC (ID: 17236405/0x010701B5), pos_x=-5.000*, pos_z=1.200*, pos_y=110.200*, direction=5.6°*)
 15: 0x0284 [0x80] LOAD_WAIT(entity=Unnamed NPC (ID: 17236403/0x010701B3))
 16: 0x0289 [0x80] LOAD_WAIT(entity=Unnamed NPC (ID: 17236404/0x010701B4))
 17: 0x028E [0x80] LOAD_WAIT(entity=Unnamed NPC (ID: 17236405/0x010701B5))
 18: 0x0293 [0x1C] WAIT(1* ticks)
 19: 0x0296 [0x5B] LOAD_EXT_SCHEDULER: Load scheduler "ang0" with entities [Unnamed NPC (ID: 17236403/0x010701B3), Unnamed NPC (ID: 17236403/0x010701B3)], work=2595*
 20: 0x02A5 [0x5B] LOAD_EXT_SCHEDULER: Load scheduler "pv00" with entities [Unnamed NPC (ID: 17236404/0x010701B4), Unnamed NPC (ID: 17236404/0x010701B4)], work=1266*
 21: 0x02B4 [0x5B] LOAD_EXT_SCHEDULER: Load scheduler "pv00" with entities [Unnamed NPC (ID: 17236405/0x010701B5), Unnamed NPC (ID: 17236405/0x010701B5)], work=1264*
 22: 0x02C3 [0x00] END_REQSTACK()
```

### Event 65535.7

#### Metadata

| Field        | Value    |
|--------------|----------|
| Entrypoint   | 0x02C4   |
| Data Size    | 15 bytes |
| Instructions | 3        |

```
      00 01 02 03 04 05 06 07  08 09 0A 0B 0C 0D 0E 0F
      -- -- -- -- -- -- -- --  -- -- -- -- -- -- -- --
02C0:             27 10 AA 01  07 01 11 27 10 AB 01 07      '......'....
02D0: 01 0F 00                                          ...             
```

#### Opcodes

```
  0: 0x02C4 [0x27] REQ_SET(priority=0x10, entity_id=Unnamed NPC (ID: 17236394/0x010701AA), tag_num=0x11)
  1: 0x02CB [0x27] REQ_SET(priority=0x10, entity_id=Unnamed NPC (ID: 17236395/0x010701AB), tag_num=0x0F)
  2: 0x02D2 [0x00] END_REQSTACK()
```

### Event 65535.8

#### Metadata

| Field        | Value    |
|--------------|----------|
| Entrypoint   | 0x02D3   |
| Data Size    | 22 bytes |
| Instructions | 4        |

```
      00 01 02 03 04 05 06 07  08 09 0A 0B 0C 0D 0E 0F
      -- -- -- -- -- -- -- --  -- -- -- -- -- -- -- --
02D0:          27 10 B3 01 07  01 08 27 10 B4 01 07 01     '......'.....
02E0: 06 27 10 B5 01 07 01 06  00                       .'.......       
```

#### Opcodes

```
  0: 0x02D3 [0x27] REQ_SET(priority=0x10, entity_id=Unnamed NPC (ID: 17236403/0x010701B3), tag_num=0x08)
  1: 0x02DA [0x27] REQ_SET(priority=0x10, entity_id=Unnamed NPC (ID: 17236404/0x010701B4), tag_num=0x06)
  2: 0x02E1 [0x27] REQ_SET(priority=0x10, entity_id=Unnamed NPC (ID: 17236405/0x010701B5), tag_num=0x06)
  3: 0x02E8 [0x00] END_REQSTACK()
```

### Event 65535.9

#### Metadata

| Field        | Value     |
|--------------|-----------|
| Entrypoint   | 0x02E9    |
| Data Size    | 193 bytes |
| Instructions | 23        |

```
      00 01 02 03 04 05 06 07  08 09 0A 0B 0C 0D 0E 0F
      -- -- -- -- -- -- -- --  -- -- -- -- -- -- -- --
02E0:                             BA A7 01 07 01 01 80           .......
02F0: 01 80 01 80 01 80 BA A8  01 07 01 01 80 01 80 01  ................
0300: 80 01 80 BA A9 01 07 01  01 80 01 80 01 80 01 80  ................
0310: 1C 0C 80 27 10 A7 01 07  01 02 27 10 A8 01 07 01  ...'......'.....
0320: 02 27 10 A9 01 07 01 02  1C 02 80 27 10 A7 01 07  .'.........'....
0330: 01 06 27 10 A8 01 07 01  04 27 10 A9 01 07 01 04  ..'......'......
0340: 1C 0C 80 BA A7 01 07 01  1F 80 0E 80 20 80 01 80  ............ ...
0350: BA A8 01 07 01 0D 80 21  80 22 80 10 80 BA A9 01  .......!."......
0360: 07 01 1F 80 00 80 20 80  1B 80 80 A7 01 07 01 80  ...... .........
0370: A8 01 07 01 80 A9 01 07  01 1C 02 80 5B 23 80 A7  ............[#..
0380: 01 07 01 A7 01 07 01 75  72 61 30 5B 23 80 A8 01  .......ura0[#...
0390: 07 01 A8 01 07 01 75 72  61 30 5B 23 80 A9 01 07  ......ura0[#....
03A0: 01 A9 01 07 01 75 72 61  30 00                    .....ura0.      
```

#### Opcodes

```
  0: 0x02E9 [0xBA] SET_ENTITY_POSITION(entity_id=Unnamed NPC (ID: 17236391/0x010701A7), pos_x=0.000*, pos_z=0.000*, pos_y=0.000*, direction=0.0°*)
  1: 0x02F6 [0xBA] SET_ENTITY_POSITION(entity_id=Unnamed NPC (ID: 17236392/0x010701A8), pos_x=0.000*, pos_z=0.000*, pos_y=0.000*, direction=0.0°*)
  2: 0x0303 [0xBA] SET_ENTITY_POSITION(entity_id=Unnamed NPC (ID: 17236393/0x010701A9), pos_x=0.000*, pos_z=0.000*, pos_y=0.000*, direction=0.0°*)
  3: 0x0310 [0x1C] WAIT(5* ticks)
  4: 0x0313 [0x27] REQ_SET(priority=0x10, entity_id=Unnamed NPC (ID: 17236391/0x010701A7), tag_num=0x02)
  5: 0x031A [0x27] REQ_SET(priority=0x10, entity_id=Unnamed NPC (ID: 17236392/0x010701A8), tag_num=0x02)
  6: 0x0321 [0x27] REQ_SET(priority=0x10, entity_id=Unnamed NPC (ID: 17236393/0x010701A9), tag_num=0x02)
  7: 0x0328 [0x1C] WAIT(1* ticks)
  8: 0x032B [0x27] REQ_SET(priority=0x10, entity_id=Unnamed NPC (ID: 17236391/0x010701A7), tag_num=0x06)
  9: 0x0332 [0x27] REQ_SET(priority=0x10, entity_id=Unnamed NPC (ID: 17236392/0x010701A8), tag_num=0x04)
 10: 0x0339 [0x27] REQ_SET(priority=0x10, entity_id=Unnamed NPC (ID: 17236393/0x010701A9), tag_num=0x04)
 11: 0x0340 [0x1C] WAIT(5* ticks)
 12: 0x0343 [0xBA] SET_ENTITY_POSITION(entity_id=Unnamed NPC (ID: 17236391/0x010701A7), pos_x=2.500*, pos_z=-0.800*, pos_y=108.900*, direction=0.0°*)
 13: 0x0350 [0xBA] SET_ENTITY_POSITION(entity_id=Unnamed NPC (ID: 17236392/0x010701A8), pos_x=3.000*, pos_z=-0.300*, pos_y=109.000*, direction=2.8°*)
 14: 0x035D [0xBA] SET_ENTITY_POSITION(entity_id=Unnamed NPC (ID: 17236393/0x010701A9), pos_x=2.500*, pos_z=0.200*, pos_y=108.900*, direction=5.6°*)
 15: 0x036A [0x80] LOAD_WAIT(entity=Unnamed NPC (ID: 17236391/0x010701A7))
 16: 0x036F [0x80] LOAD_WAIT(entity=Unnamed NPC (ID: 17236392/0x010701A8))
 17: 0x0374 [0x80] LOAD_WAIT(entity=Unnamed NPC (ID: 17236393/0x010701A9))
 18: 0x0379 [0x1C] WAIT(1* ticks)
 19: 0x037C [0x5B] LOAD_EXT_SCHEDULER: Load scheduler "ura0" with entities [Unnamed NPC (ID: 17236391/0x010701A7), Unnamed NPC (ID: 17236391/0x010701A7)], work=881*
 20: 0x038B [0x5B] LOAD_EXT_SCHEDULER: Load scheduler "ura0" with entities [Unnamed NPC (ID: 17236392/0x010701A8), Unnamed NPC (ID: 17236392/0x010701A8)], work=881*
 21: 0x039A [0x5B] LOAD_EXT_SCHEDULER: Load scheduler "ura0" with entities [Unnamed NPC (ID: 17236393/0x010701A9), Unnamed NPC (ID: 17236393/0x010701A9)], work=881*
 22: 0x03A9 [0x00] END_REQSTACK()
```

### Event 65535.10

#### Metadata

| Field        | Value    |
|--------------|----------|
| Entrypoint   | 0x03AA   |
| Data Size    | 22 bytes |
| Instructions | 4        |

```
      00 01 02 03 04 05 06 07  08 09 0A 0B 0C 0D 0E 0F
      -- -- -- -- -- -- -- --  -- -- -- -- -- -- -- --
03A0:                                27 10 B3 01 07 01            '.....
03B0: 07 27 10 B4 01 07 01 05  27 10 B5 01 07 01 05 00  .'......'.......
```

#### Opcodes

```
  0: 0x03AA [0x27] REQ_SET(priority=0x10, entity_id=Unnamed NPC (ID: 17236403/0x010701B3), tag_num=0x07)
  1: 0x03B1 [0x27] REQ_SET(priority=0x10, entity_id=Unnamed NPC (ID: 17236404/0x010701B4), tag_num=0x05)
  2: 0x03B8 [0x27] REQ_SET(priority=0x10, entity_id=Unnamed NPC (ID: 17236405/0x010701B5), tag_num=0x05)
  3: 0x03BF [0x00] END_REQSTACK()
```

### Event 65535.11

#### Metadata

| Field        | Value    |
|--------------|----------|
| Entrypoint   | 0x03C0   |
| Data Size    | 22 bytes |
| Instructions | 4        |

```
      00 01 02 03 04 05 06 07  08 09 0A 0B 0C 0D 0E 0F
      -- -- -- -- -- -- -- --  -- -- -- -- -- -- -- --
03C0: 27 10 A7 01 07 01 07 27  10 A8 01 07 01 05 27 10  '......'......'.
03D0: A9 01 07 01 05 00                                 ......          
```

#### Opcodes

```
  0: 0x03C0 [0x27] REQ_SET(priority=0x10, entity_id=Unnamed NPC (ID: 17236391/0x010701A7), tag_num=0x07)
  1: 0x03C7 [0x27] REQ_SET(priority=0x10, entity_id=Unnamed NPC (ID: 17236392/0x010701A8), tag_num=0x05)
  2: 0x03CE [0x27] REQ_SET(priority=0x10, entity_id=Unnamed NPC (ID: 17236393/0x010701A9), tag_num=0x05)
  3: 0x03D5 [0x00] END_REQSTACK()
```

### Event 65535.12

#### Metadata

| Field        | Value     |
|--------------|-----------|
| Entrypoint   | 0x03D6    |
| Data Size    | 275 bytes |
| Instructions | 33        |

```
      00 01 02 03 04 05 06 07  08 09 0A 0B 0C 0D 0E 0F
      -- -- -- -- -- -- -- --  -- -- -- -- -- -- -- --
03D0:                   BA B3  01 07 01 01 80 01 80 01        ..........
03E0: 80 01 80 BA AA 01 07 01  01 80 01 80 01 80 01 80  ................
03F0: BA B8 01 07 01 01 80 01  80 01 80 01 80 BA B4 01  ................
0400: 07 01 01 80 01 80 01 80  01 80 BA B5 01 07 01 01  ................
0410: 80 01 80 01 80 01 80 1C  0C 80 27 10 B3 01 07 01  ..........'.....
0420: 03 27 10 AA 01 07 01 03  27 10 B8 01 07 01 02 27  .'......'......'
0430: 10 B4 01 07 01 03 27 10  B5 01 07 01 03 1C 02 80  ......'.........
0440: 27 10 B3 01 07 01 07 27  10 AA 01 07 01 11 27 10  '......'......'.
0450: B8 01 07 01 04 27 10 B4  01 07 01 05 27 10 B5 01  .....'......'...
0460: 07 01 05 1C 0C 80 BA B3  01 07 01 01 80 03 80 18  ................
0470: 80 10 80 BA AA 01 07 01  24 80 25 80 26 80 01 80  ........$.%.&...
0480: BA B8 01 07 01 25 80 27  80 18 80 1B 80 BA B4 01  .....%.'........
0490: 07 01 28 80 0E 80 26 80  01 80 BA B5 01 07 01 29  ..(...&........)
04A0: 80 2A 80 2B 80 01 80 80  B3 01 07 01 80 B4 01 07  .*.+............
04B0: 01 80 B8 01 07 01 80 B5  01 07 01 1C 02 80 2C B3  ..............,.
04C0: 01 07 01 B3 01 07 01 78  78 78 00 5B 2C 80 B4 01  .......xxx.[,...
04D0: 07 01 B4 01 07 01 75 64  65 30 27 10 B8 01 07 01  ......ude0'.....
04E0: 06 27 10 B5 01 07 01 07  00                       .'.......       
```

#### Opcodes

```
  0: 0x03D6 [0xBA] SET_ENTITY_POSITION(entity_id=Unnamed NPC (ID: 17236403/0x010701B3), pos_x=0.000*, pos_z=0.000*, pos_y=0.000*, direction=0.0°*)
  1: 0x03E3 [0xBA] SET_ENTITY_POSITION(entity_id=Unnamed NPC (ID: 17236394/0x010701AA), pos_x=0.000*, pos_z=0.000*, pos_y=0.000*, direction=0.0°*)
  2: 0x03F0 [0xBA] SET_ENTITY_POSITION(entity_id=Unnamed NPC (ID: 17236408/0x010701B8), pos_x=0.000*, pos_z=0.000*, pos_y=0.000*, direction=0.0°*)
  3: 0x03FD [0xBA] SET_ENTITY_POSITION(entity_id=Unnamed NPC (ID: 17236404/0x010701B4), pos_x=0.000*, pos_z=0.000*, pos_y=0.000*, direction=0.0°*)
  4: 0x040A [0xBA] SET_ENTITY_POSITION(entity_id=Unnamed NPC (ID: 17236405/0x010701B5), pos_x=0.000*, pos_z=0.000*, pos_y=0.000*, direction=0.0°*)
  5: 0x0417 [0x1C] WAIT(5* ticks)
  6: 0x041A [0x27] REQ_SET(priority=0x10, entity_id=Unnamed NPC (ID: 17236403/0x010701B3), tag_num=0x03)
  7: 0x0421 [0x27] REQ_SET(priority=0x10, entity_id=Unnamed NPC (ID: 17236394/0x010701AA), tag_num=0x03)
  8: 0x0428 [0x27] REQ_SET(priority=0x10, entity_id=Unnamed NPC (ID: 17236408/0x010701B8), tag_num=0x02)
  9: 0x042F [0x27] REQ_SET(priority=0x10, entity_id=Unnamed NPC (ID: 17236404/0x010701B4), tag_num=0x03)
 10: 0x0436 [0x27] REQ_SET(priority=0x10, entity_id=Unnamed NPC (ID: 17236405/0x010701B5), tag_num=0x03)
 11: 0x043D [0x1C] WAIT(1* ticks)
 12: 0x0440 [0x27] REQ_SET(priority=0x10, entity_id=Unnamed NPC (ID: 17236403/0x010701B3), tag_num=0x07)
 13: 0x0447 [0x27] REQ_SET(priority=0x10, entity_id=Unnamed NPC (ID: 17236394/0x010701AA), tag_num=0x11)
 14: 0x044E [0x27] REQ_SET(priority=0x10, entity_id=Unnamed NPC (ID: 17236408/0x010701B8), tag_num=0x04)
 15: 0x0455 [0x27] REQ_SET(priority=0x10, entity_id=Unnamed NPC (ID: 17236404/0x010701B4), tag_num=0x05)
 16: 0x045C [0x27] REQ_SET(priority=0x10, entity_id=Unnamed NPC (ID: 17236405/0x010701B5), tag_num=0x05)
 17: 0x0463 [0x1C] WAIT(5* ticks)
 18: 0x0466 [0xBA] SET_ENTITY_POSITION(entity_id=Unnamed NPC (ID: 17236403/0x010701B3), pos_x=0.000*, pos_z=-0.400*, pos_y=110.200*, direction=2.8°*)
 19: 0x0473 [0xBA] SET_ENTITY_POSITION(entity_id=Unnamed NPC (ID: 17236394/0x010701AA), pos_x=-0.550*, pos_z=-1.000*, pos_y=110.300*, direction=0.0°*)
 20: 0x0480 [0xBA] SET_ENTITY_POSITION(entity_id=Unnamed NPC (ID: 17236408/0x010701B8), pos_x=-1.000*, pos_z=0.600*, pos_y=110.200*, direction=5.6°*)
 21: 0x048D [0xBA] SET_ENTITY_POSITION(entity_id=Unnamed NPC (ID: 17236404/0x010701B4), pos_x=-2.000*, pos_z=-0.800*, pos_y=110.300*, direction=0.0°*)
 22: 0x049A [0xBA] SET_ENTITY_POSITION(entity_id=Unnamed NPC (ID: 17236405/0x010701B5), pos_x=-3.200*, pos_z=1.000*, pos_y=110.500*, direction=0.0°*)
 23: 0x04A7 [0x80] LOAD_WAIT(entity=Unnamed NPC (ID: 17236403/0x010701B3))
 24: 0x04AC [0x80] LOAD_WAIT(entity=Unnamed NPC (ID: 17236404/0x010701B4))
 25: 0x04B1 [0x80] LOAD_WAIT(entity=Unnamed NPC (ID: 17236408/0x010701B8))
 26: 0x04B6 [0x80] LOAD_WAIT(entity=Unnamed NPC (ID: 17236405/0x010701B5))
 27: 0x04BB [0x1C] WAIT(1* ticks)
 28: 0x04BE [0x2C] CREATE_SCHEDULER_TASK: Create scheduler "xxx" with entities [Unnamed NPC (ID: 17236403/0x010701B3), Unnamed NPC (ID: 17236403/0x010701B3)]
 29: 0x04CB [0x5B] LOAD_EXT_SCHEDULER: Load scheduler "ude0" with entities [Unnamed NPC (ID: 17236404/0x010701B4), Unnamed NPC (ID: 17236404/0x010701B4)], work=728*
 30: 0x04DA [0x27] REQ_SET(priority=0x10, entity_id=Unnamed NPC (ID: 17236408/0x010701B8), tag_num=0x06)
 31: 0x04E1 [0x27] REQ_SET(priority=0x10, entity_id=Unnamed NPC (ID: 17236405/0x010701B5), tag_num=0x07)
 32: 0x04E8 [0x00] END_REQSTACK()
```

### Event 65535.13

#### Metadata

| Field        | Value    |
|--------------|----------|
| Entrypoint   | 0x04E9   |
| Data Size    | 22 bytes |
| Instructions | 4        |

```
      00 01 02 03 04 05 06 07  08 09 0A 0B 0C 0D 0E 0F
      -- -- -- -- -- -- -- --  -- -- -- -- -- -- -- --
04E0:                             27 10 A7 01 07 01 06           '......
04F0: 27 10 A8 01 07 01 04 27  10 A9 01 07 01 04 00     '......'....... 
```

#### Opcodes

```
  0: 0x04E9 [0x27] REQ_SET(priority=0x10, entity_id=Unnamed NPC (ID: 17236391/0x010701A7), tag_num=0x06)
  1: 0x04F0 [0x27] REQ_SET(priority=0x10, entity_id=Unnamed NPC (ID: 17236392/0x010701A8), tag_num=0x04)
  2: 0x04F7 [0x27] REQ_SET(priority=0x10, entity_id=Unnamed NPC (ID: 17236393/0x010701A9), tag_num=0x04)
  3: 0x04FE [0x00] END_REQSTACK()
```

### Event 65535.14

#### Metadata

| Field        | Value    |
|--------------|----------|
| Entrypoint   | 0x04FF   |
| Data Size    | 36 bytes |
| Instructions | 6        |

```
      00 01 02 03 04 05 06 07  08 09 0A 0B 0C 0D 0E 0F
      -- -- -- -- -- -- -- --  -- -- -- -- -- -- -- --
04F0:                                               27                 '
0500: 10 B3 01 07 01 08 27 10  AA 01 07 01 12 27 10 B8  ......'......'..
0510: 01 07 01 05 27 10 B4 01  07 01 06 27 10 B5 01 07  ....'......'....
0520: 01 06 00                                          ...             
```

#### Opcodes

```
  0: 0x04FF [0x27] REQ_SET(priority=0x10, entity_id=Unnamed NPC (ID: 17236403/0x010701B3), tag_num=0x08)
  1: 0x0506 [0x27] REQ_SET(priority=0x10, entity_id=Unnamed NPC (ID: 17236394/0x010701AA), tag_num=0x12)
  2: 0x050D [0x27] REQ_SET(priority=0x10, entity_id=Unnamed NPC (ID: 17236408/0x010701B8), tag_num=0x05)
  3: 0x0514 [0x27] REQ_SET(priority=0x10, entity_id=Unnamed NPC (ID: 17236404/0x010701B4), tag_num=0x06)
  4: 0x051B [0x27] REQ_SET(priority=0x10, entity_id=Unnamed NPC (ID: 17236405/0x010701B5), tag_num=0x06)
  5: 0x0522 [0x00] END_REQSTACK()
```

### Event 65535.15

#### Metadata

| Field        | Value    |
|--------------|----------|
| Entrypoint   | 0x0523   |
| Data Size    | 14 bytes |
| Instructions | 2        |

```
      00 01 02 03 04 05 06 07  08 09 0A 0B 0C 0D 0E 0F
      -- -- -- -- -- -- -- --  -- -- -- -- -- -- -- --
0520:          2C B3 01 07 01  B3 01 07 01 73 70 30 31     ,........sp01
0530: 00                                                .               
```

#### Opcodes

```
  0: 0x0523 [0x2C] CREATE_SCHEDULER_TASK: Create scheduler "sp01" with entities [Unnamed NPC (ID: 17236403/0x010701B3), Unnamed NPC (ID: 17236403/0x010701B3)]
  1: 0x0530 [0x00] END_REQSTACK()
```

### Event 65535.16

#### Metadata

| Field        | Value     |
|--------------|-----------|
| Entrypoint   | 0x0531    |
| Data Size    | 221 bytes |
| Instructions | 29        |

```
      00 01 02 03 04 05 06 07  08 09 0A 0B 0C 0D 0E 0F
      -- -- -- -- -- -- -- --  -- -- -- -- -- -- -- --
0530:    BA B6 01 07 01 01 80  01 80 01 80 01 80 BA AB   ...............
0540: 01 07 01 01 80 01 80 01  80 01 80 BA B7 01 07 01  ................
0550: 01 80 01 80 01 80 01 80  BA B9 01 07 01 01 80 01  ................
0560: 80 01 80 01 80 1C 0C 80  27 10 B6 01 07 01 02 27  ........'......'
0570: 10 AB 01 07 01 03 27 10  B7 01 07 01 02 27 10 B9  ......'......'..
0580: 01 07 01 02 1C 11 80 27  10 B6 01 07 01 04 27 10  .......'......'.
0590: AB 01 07 01 0F 27 10 B7  01 07 01 04 27 10 B9 01  .....'......'...
05A0: 07 01 04 1C 0C 80 BA B6  01 07 01 2D 80 27 80 2E  ...........-.'..
05B0: 80 1B 80 BA AB 01 07 01  2F 80 03 80 2E 80 19 80  ......../.......
05C0: BA B7 01 07 01 30 80 31  80 2E 80 01 80 BA B9 01  .....0.1........
05D0: 07 01 32 80 33 80 2E 80  10 80 80 B6 01 07 01 80  ..2.3...........
05E0: AB 01 07 01 80 B7 01 07  01 80 B9 01 07 01 1C 02  ................
05F0: 80 27 10 B6 01 07 01 06  27 10 AB 01 07 01 12 27  .'......'......'
0600: 10 B7 01 07 01 06 27 10  B9 01 07 01 06 00        ......'.......  
```

#### Opcodes

```
  0: 0x0531 [0xBA] SET_ENTITY_POSITION(entity_id=Unnamed NPC (ID: 17236406/0x010701B6), pos_x=0.000*, pos_z=0.000*, pos_y=0.000*, direction=0.0°*)
  1: 0x053E [0xBA] SET_ENTITY_POSITION(entity_id=Unnamed NPC (ID: 17236395/0x010701AB), pos_x=0.000*, pos_z=0.000*, pos_y=0.000*, direction=0.0°*)
  2: 0x054B [0xBA] SET_ENTITY_POSITION(entity_id=Unnamed NPC (ID: 17236407/0x010701B7), pos_x=0.000*, pos_z=0.000*, pos_y=0.000*, direction=0.0°*)
  3: 0x0558 [0xBA] SET_ENTITY_POSITION(entity_id=Unnamed NPC (ID: 17236409/0x010701B9), pos_x=0.000*, pos_z=0.000*, pos_y=0.000*, direction=0.0°*)
  4: 0x0565 [0x1C] WAIT(5* ticks)
  5: 0x0568 [0x27] REQ_SET(priority=0x10, entity_id=Unnamed NPC (ID: 17236406/0x010701B6), tag_num=0x02)
  6: 0x056F [0x27] REQ_SET(priority=0x10, entity_id=Unnamed NPC (ID: 17236395/0x010701AB), tag_num=0x03)
  7: 0x0576 [0x27] REQ_SET(priority=0x10, entity_id=Unnamed NPC (ID: 17236407/0x010701B7), tag_num=0x02)
  8: 0x057D [0x27] REQ_SET(priority=0x10, entity_id=Unnamed NPC (ID: 17236409/0x010701B9), tag_num=0x02)
  9: 0x0584 [0x1C] WAIT(30* ticks)
 10: 0x0587 [0x27] REQ_SET(priority=0x10, entity_id=Unnamed NPC (ID: 17236406/0x010701B6), tag_num=0x04)
 11: 0x058E [0x27] REQ_SET(priority=0x10, entity_id=Unnamed NPC (ID: 17236395/0x010701AB), tag_num=0x0F)
 12: 0x0595 [0x27] REQ_SET(priority=0x10, entity_id=Unnamed NPC (ID: 17236407/0x010701B7), tag_num=0x04)
 13: 0x059C [0x27] REQ_SET(priority=0x10, entity_id=Unnamed NPC (ID: 17236409/0x010701B9), tag_num=0x04)
 14: 0x05A3 [0x1C] WAIT(5* ticks)
 15: 0x05A6 [0xBA] SET_ENTITY_POSITION(entity_id=Unnamed NPC (ID: 17236406/0x010701B6), pos_x=-2.500*, pos_z=0.600*, pos_y=110.900*, direction=5.6°*)
 16: 0x05B3 [0xBA] SET_ENTITY_POSITION(entity_id=Unnamed NPC (ID: 17236395/0x010701AB), pos_x=-6.500*, pos_z=-0.400*, pos_y=110.900*, direction=377476216.4°*)
 17: 0x05C0 [0xBA] SET_ENTITY_POSITION(entity_id=Unnamed NPC (ID: 17236407/0x010701B7), pos_x=-3.500*, pos_z=-0.900*, pos_y=110.900*, direction=0.0°*)
 18: 0x05CD [0xBA] SET_ENTITY_POSITION(entity_id=Unnamed NPC (ID: 17236409/0x010701B9), pos_x=-4.500*, pos_z=1.100*, pos_y=110.900*, direction=2.8°*)
 19: 0x05DA [0x80] LOAD_WAIT(entity=Unnamed NPC (ID: 17236406/0x010701B6))
 20: 0x05DF [0x80] LOAD_WAIT(entity=Unnamed NPC (ID: 17236395/0x010701AB))
 21: 0x05E4 [0x80] LOAD_WAIT(entity=Unnamed NPC (ID: 17236407/0x010701B7))
 22: 0x05E9 [0x80] LOAD_WAIT(entity=Unnamed NPC (ID: 17236409/0x010701B9))
 23: 0x05EE [0x1C] WAIT(1* ticks)
 24: 0x05F1 [0x27] REQ_SET(priority=0x10, entity_id=Unnamed NPC (ID: 17236406/0x010701B6), tag_num=0x06)
 25: 0x05F8 [0x27] REQ_SET(priority=0x10, entity_id=Unnamed NPC (ID: 17236395/0x010701AB), tag_num=0x12)
 26: 0x05FF [0x27] REQ_SET(priority=0x10, entity_id=Unnamed NPC (ID: 17236407/0x010701B7), tag_num=0x06)
 27: 0x0606 [0x27] REQ_SET(priority=0x10, entity_id=Unnamed NPC (ID: 17236409/0x010701B9), tag_num=0x06)
 28: 0x060D [0x00] END_REQSTACK()
```

### Event 65535.17

#### Metadata

| Field        | Value    |
|--------------|----------|
| Entrypoint   | 0x060E   |
| Data Size    | 50 bytes |
| Instructions | 8        |

```
      00 01 02 03 04 05 06 07  08 09 0A 0B 0C 0D 0E 0F
      -- -- -- -- -- -- -- --  -- -- -- -- -- -- -- --
0600:                                            27 10                '.
0610: B3 01 07 01 07 27 10 AA  01 07 01 11 27 10 B8 01  .....'......'...
0620: 07 01 04 27 10 B4 01 07  01 05 27 10 B5 01 07 01  ...'......'.....
0630: 05 27 10 B8 01 07 01 07  27 10 B5 01 07 01 08 00  .'......'.......
```

#### Opcodes

```
  0: 0x060E [0x27] REQ_SET(priority=0x10, entity_id=Unnamed NPC (ID: 17236403/0x010701B3), tag_num=0x07)
  1: 0x0615 [0x27] REQ_SET(priority=0x10, entity_id=Unnamed NPC (ID: 17236394/0x010701AA), tag_num=0x11)
  2: 0x061C [0x27] REQ_SET(priority=0x10, entity_id=Unnamed NPC (ID: 17236408/0x010701B8), tag_num=0x04)
  3: 0x0623 [0x27] REQ_SET(priority=0x10, entity_id=Unnamed NPC (ID: 17236404/0x010701B4), tag_num=0x05)
  4: 0x062A [0x27] REQ_SET(priority=0x10, entity_id=Unnamed NPC (ID: 17236405/0x010701B5), tag_num=0x05)
  5: 0x0631 [0x27] REQ_SET(priority=0x10, entity_id=Unnamed NPC (ID: 17236408/0x010701B8), tag_num=0x07)
  6: 0x0638 [0x27] REQ_SET(priority=0x10, entity_id=Unnamed NPC (ID: 17236405/0x010701B5), tag_num=0x08)
  7: 0x063F [0x00] END_REQSTACK()
```

### Event 65535.18

#### Metadata

| Field        | Value    |
|--------------|----------|
| Entrypoint   | 0x0640   |
| Data Size    | 43 bytes |
| Instructions | 7        |

```
      00 01 02 03 04 05 06 07  08 09 0A 0B 0C 0D 0E 0F
      -- -- -- -- -- -- -- --  -- -- -- -- -- -- -- --
0640: 27 10 B6 01 07 01 05 27  10 AB 01 07 01 11 27 10  '......'......'.
0650: AB 01 07 01 0F 27 10 AB  01 07 01 10 27 10 B7 01  .....'......'...
0660: 07 01 05 27 10 B9 01 07  01 05 00                 ...'.......     
```

#### Opcodes

```
  0: 0x0640 [0x27] REQ_SET(priority=0x10, entity_id=Unnamed NPC (ID: 17236406/0x010701B6), tag_num=0x05)
  1: 0x0647 [0x27] REQ_SET(priority=0x10, entity_id=Unnamed NPC (ID: 17236395/0x010701AB), tag_num=0x11)
  2: 0x064E [0x27] REQ_SET(priority=0x10, entity_id=Unnamed NPC (ID: 17236395/0x010701AB), tag_num=0x0F)
  3: 0x0655 [0x27] REQ_SET(priority=0x10, entity_id=Unnamed NPC (ID: 17236395/0x010701AB), tag_num=0x10)
  4: 0x065C [0x27] REQ_SET(priority=0x10, entity_id=Unnamed NPC (ID: 17236407/0x010701B7), tag_num=0x05)
  5: 0x0663 [0x27] REQ_SET(priority=0x10, entity_id=Unnamed NPC (ID: 17236409/0x010701B9), tag_num=0x05)
  6: 0x066A [0x00] END_REQSTACK()
```

### Event 65535.19

#### Metadata

| Field        | Value     |
|--------------|-----------|
| Entrypoint   | 0x066B    |
| Data Size    | 113 bytes |
| Instructions | 15        |

```
      00 01 02 03 04 05 06 07  08 09 0A 0B 0C 0D 0E 0F
      -- -- -- -- -- -- -- --  -- -- -- -- -- -- -- --
0660:                                   BA AA 01 07 01             .....
0670: 01 80 01 80 01 80 01 80  BA AC 01 07 01 01 80 01  ................
0680: 80 01 80 01 80 1C 0C 80  27 10 AA 01 07 01 04 27  ........'......'
0690: 10 AC 01 07 01 02 1C 02  80 27 10 AA 01 07 01 11  .........'......
06A0: 27 10 AC 01 07 01 0C 1C  0C 80 BA AA 01 07 01 34  '..............4
06B0: 80 35 80 36 80 37 80 BA  AC 01 07 01 13 80 38 80  .5.6.7........8.
06C0: 39 80 01 80 80 AC 01 07  01 1C 02 80 5B 3A 80 AC  9...........[:..
06D0: 01 07 01 AC 01 07 01 73  74 64 62 00              .......stdb.    
```

#### Opcodes

```
  0: 0x066B [0xBA] SET_ENTITY_POSITION(entity_id=Unnamed NPC (ID: 17236394/0x010701AA), pos_x=0.000*, pos_z=0.000*, pos_y=0.000*, direction=0.0°*)
  1: 0x0678 [0xBA] SET_ENTITY_POSITION(entity_id=Unnamed NPC (ID: 17236396/0x010701AC), pos_x=0.000*, pos_z=0.000*, pos_y=0.000*, direction=0.0°*)
  2: 0x0685 [0x1C] WAIT(5* ticks)
  3: 0x0688 [0x27] REQ_SET(priority=0x10, entity_id=Unnamed NPC (ID: 17236394/0x010701AA), tag_num=0x04)
  4: 0x068F [0x27] REQ_SET(priority=0x10, entity_id=Unnamed NPC (ID: 17236396/0x010701AC), tag_num=0x02)
  5: 0x0696 [0x1C] WAIT(1* ticks)
  6: 0x0699 [0x27] REQ_SET(priority=0x10, entity_id=Unnamed NPC (ID: 17236394/0x010701AA), tag_num=0x11)
  7: 0x06A0 [0x27] REQ_SET(priority=0x10, entity_id=Unnamed NPC (ID: 17236396/0x010701AC), tag_num=0x0C)
  8: 0x06A7 [0x1C] WAIT(5* ticks)
  9: 0x06AA [0xBA] SET_ENTITY_POSITION(entity_id=Unnamed NPC (ID: 17236394/0x010701AA), pos_x=-8.000*, pos_z=1.300*, pos_y=112.100*, direction=22.5°*)
 10: 0x06B7 [0xBA] SET_ENTITY_POSITION(entity_id=Unnamed NPC (ID: 17236396/0x010701AC), pos_x=-4.000*, pos_z=-0.500*, pos_y=111.600*, direction=0.0°*)
 11: 0x06C4 [0x80] LOAD_WAIT(entity=Unnamed NPC (ID: 17236396/0x010701AC))
 12: 0x06C9 [0x1C] WAIT(1* ticks)
 13: 0x06CC [0x5B] LOAD_EXT_SCHEDULER: Load scheduler "stdb" with entities [Unnamed NPC (ID: 17236396/0x010701AC), Unnamed NPC (ID: 17236396/0x010701AC)], work=2747*
 14: 0x06DB [0x00] END_REQSTACK()
```

### Event 65535.20

#### Metadata

| Field        | Value    |
|--------------|----------|
| Entrypoint   | 0x06DC   |
| Data Size    | 57 bytes |
| Instructions | 9        |

```
      00 01 02 03 04 05 06 07  08 09 0A 0B 0C 0D 0E 0F
      -- -- -- -- -- -- -- --  -- -- -- -- -- -- -- --
06D0:                                      27 10 B6 01              '...
06E0: 07 01 04 27 10 AB 01 07  01 0F 27 10 B7 01 07 01  ...'......'.....
06F0: 04 27 10 B9 01 07 01 04  27 10 B6 01 07 01 07 27  .'......'......'
0700: 10 AB 01 07 01 13 27 10  B7 01 07 01 07 27 10 B9  ......'......'..
0710: 01 07 01 07 00                                    .....           
```

#### Opcodes

```
  0: 0x06DC [0x27] REQ_SET(priority=0x10, entity_id=Unnamed NPC (ID: 17236406/0x010701B6), tag_num=0x04)
  1: 0x06E3 [0x27] REQ_SET(priority=0x10, entity_id=Unnamed NPC (ID: 17236395/0x010701AB), tag_num=0x0F)
  2: 0x06EA [0x27] REQ_SET(priority=0x10, entity_id=Unnamed NPC (ID: 17236407/0x010701B7), tag_num=0x04)
  3: 0x06F1 [0x27] REQ_SET(priority=0x10, entity_id=Unnamed NPC (ID: 17236409/0x010701B9), tag_num=0x04)
  4: 0x06F8 [0x27] REQ_SET(priority=0x10, entity_id=Unnamed NPC (ID: 17236406/0x010701B6), tag_num=0x07)
  5: 0x06FF [0x27] REQ_SET(priority=0x10, entity_id=Unnamed NPC (ID: 17236395/0x010701AB), tag_num=0x13)
  6: 0x0706 [0x27] REQ_SET(priority=0x10, entity_id=Unnamed NPC (ID: 17236407/0x010701B7), tag_num=0x07)
  7: 0x070D [0x27] REQ_SET(priority=0x10, entity_id=Unnamed NPC (ID: 17236409/0x010701B9), tag_num=0x07)
  8: 0x0714 [0x00] END_REQSTACK()
```

### Event 65535.21

#### Metadata

| Field        | Value    |
|--------------|----------|
| Entrypoint   | 0x0715   |
| Data Size    | 15 bytes |
| Instructions | 3        |

```
      00 01 02 03 04 05 06 07  08 09 0A 0B 0C 0D 0E 0F
      -- -- -- -- -- -- -- --  -- -- -- -- -- -- -- --
0710:                27 10 AA  01 07 01 12 27 10 AC 01       '......'...
0720: 07 01 0D 00                                       ....            
```

#### Opcodes

```
  0: 0x0715 [0x27] REQ_SET(priority=0x10, entity_id=Unnamed NPC (ID: 17236394/0x010701AA), tag_num=0x12)
  1: 0x071C [0x27] REQ_SET(priority=0x10, entity_id=Unnamed NPC (ID: 17236396/0x010701AC), tag_num=0x0D)
  2: 0x0723 [0x00] END_REQSTACK()
```

### Event 65535.22

#### Metadata

| Field        | Value     |
|--------------|-----------|
| Entrypoint   | 0x0724    |
| Data Size    | 170 bytes |
| Instructions | 20        |

```
      00 01 02 03 04 05 06 07  08 09 0A 0B 0C 0D 0E 0F
      -- -- -- -- -- -- -- --  -- -- -- -- -- -- -- --
0720:             BA BC 01 07  01 01 80 01 80 01 80 01      ............
0730: 80 BA BA 01 07 01 01 80  01 80 01 80 01 80 BA BD  ................
0740: 01 07 01 01 80 01 80 01  80 01 80 BA BE 01 07 01  ................
0750: 01 80 01 80 01 80 01 80  1C 0C 80 27 10 BC 01 07  ...........'....
0760: 01 02 27 10 BA 01 07 01  02 27 10 BD 01 07 01 02  ..'......'......
0770: 27 10 BE 01 07 01 02 1C  02 80 27 10 BC 01 07 01  '.........'.....
0780: 0F 27 10 BA 01 07 01 07  27 10 BD 01 07 01 0D 27  .'......'......'
0790: 10 BE 01 07 01 0A 1C 0C  80 BA BC 01 07 01 1F 80  ................
07A0: 3B 80 3C 80 19 80 BA BA  01 07 01 1F 80 3D 80 3C  ;.<..........=.<
07B0: 80 1B 80 BA BD 01 07 01  0D 80 25 80 3C 80 0A 80  ..........%.<...
07C0: BA BE 01 07 01 0D 80 00  80 3C 80 3E 80 00        .........<.>..  
```

#### Opcodes

```
  0: 0x0724 [0xBA] SET_ENTITY_POSITION(entity_id=Unnamed NPC (ID: 17236412/0x010701BC), pos_x=0.000*, pos_z=0.000*, pos_y=0.000*, direction=0.0°*)
  1: 0x0731 [0xBA] SET_ENTITY_POSITION(entity_id=Unnamed NPC (ID: 17236410/0x010701BA), pos_x=0.000*, pos_z=0.000*, pos_y=0.000*, direction=0.0°*)
  2: 0x073E [0xBA] SET_ENTITY_POSITION(entity_id=Unnamed NPC (ID: 17236413/0x010701BD), pos_x=0.000*, pos_z=0.000*, pos_y=0.000*, direction=0.0°*)
  3: 0x074B [0xBA] SET_ENTITY_POSITION(entity_id=Unnamed NPC (ID: 17236414/0x010701BE), pos_x=0.000*, pos_z=0.000*, pos_y=0.000*, direction=0.0°*)
  4: 0x0758 [0x1C] WAIT(5* ticks)
  5: 0x075B [0x27] REQ_SET(priority=0x10, entity_id=Unnamed NPC (ID: 17236412/0x010701BC), tag_num=0x02)
  6: 0x0762 [0x27] REQ_SET(priority=0x10, entity_id=Unnamed NPC (ID: 17236410/0x010701BA), tag_num=0x02)
  7: 0x0769 [0x27] REQ_SET(priority=0x10, entity_id=Unnamed NPC (ID: 17236413/0x010701BD), tag_num=0x02)
  8: 0x0770 [0x27] REQ_SET(priority=0x10, entity_id=Unnamed NPC (ID: 17236414/0x010701BE), tag_num=0x02)
  9: 0x0777 [0x1C] WAIT(1* ticks)
 10: 0x077A [0x27] REQ_SET(priority=0x10, entity_id=Unnamed NPC (ID: 17236412/0x010701BC), tag_num=0x0F)
 11: 0x0781 [0x27] REQ_SET(priority=0x10, entity_id=Unnamed NPC (ID: 17236410/0x010701BA), tag_num=0x07)
 12: 0x0788 [0x27] REQ_SET(priority=0x10, entity_id=Unnamed NPC (ID: 17236413/0x010701BD), tag_num=0x0D)
 13: 0x078F [0x27] REQ_SET(priority=0x10, entity_id=Unnamed NPC (ID: 17236414/0x010701BE), tag_num=0x0A)
 14: 0x0796 [0x1C] WAIT(5* ticks)
 15: 0x0799 [0xBA] SET_ENTITY_POSITION(entity_id=Unnamed NPC (ID: 17236412/0x010701BC), pos_x=2.500*, pos_z=-0.700*, pos_y=109.200*, direction=377476216.4°*)
 16: 0x07A6 [0xBA] SET_ENTITY_POSITION(entity_id=Unnamed NPC (ID: 17236410/0x010701BA), pos_x=2.500*, pos_z=0.050*, pos_y=109.200*, direction=5.6°*)
 17: 0x07B3 [0xBA] SET_ENTITY_POSITION(entity_id=Unnamed NPC (ID: 17236413/0x010701BD), pos_x=3.000*, pos_z=-1.000*, pos_y=109.200*, direction=377476213.6°*)
 18: 0x07C0 [0xBA] SET_ENTITY_POSITION(entity_id=Unnamed NPC (ID: 17236414/0x010701BE), pos_x=3.000*, pos_z=0.200*, pos_y=109.200*, direction=11.2°*)
 19: 0x07CD [0x00] END_REQSTACK()
```

### Event 65535.23

#### Metadata

| Field        | Value    |
|--------------|----------|
| Entrypoint   | 0x07CE   |
| Data Size    | 15 bytes |
| Instructions | 3        |

```
      00 01 02 03 04 05 06 07  08 09 0A 0B 0C 0D 0E 0F
      -- -- -- -- -- -- -- --  -- -- -- -- -- -- -- --
07C0:                                            27 10                '.
07D0: AA 01 07 01 11 27 10 AC  01 07 01 0C 00           .....'.......   
```

#### Opcodes

```
  0: 0x07CE [0x27] REQ_SET(priority=0x10, entity_id=Unnamed NPC (ID: 17236394/0x010701AA), tag_num=0x11)
  1: 0x07D5 [0x27] REQ_SET(priority=0x10, entity_id=Unnamed NPC (ID: 17236396/0x010701AC), tag_num=0x0C)
  2: 0x07DC [0x00] END_REQSTACK()
```

### Event 65535.24

#### Metadata

| Field        | Value    |
|--------------|----------|
| Entrypoint   | 0x07DD   |
| Data Size    | 29 bytes |
| Instructions | 5        |

```
      00 01 02 03 04 05 06 07  08 09 0A 0B 0C 0D 0E 0F
      -- -- -- -- -- -- -- --  -- -- -- -- -- -- -- --
07D0:                                         27 10 BC               '..
07E0: 01 07 01 10 27 10 BA 01  07 01 08 27 10 BD 01 07  ....'......'....
07F0: 01 0E 27 10 BE 01 07 01  0B 00                    ..'.......      
```

#### Opcodes

```
  0: 0x07DD [0x27] REQ_SET(priority=0x10, entity_id=Unnamed NPC (ID: 17236412/0x010701BC), tag_num=0x10)
  1: 0x07E4 [0x27] REQ_SET(priority=0x10, entity_id=Unnamed NPC (ID: 17236410/0x010701BA), tag_num=0x08)
  2: 0x07EB [0x27] REQ_SET(priority=0x10, entity_id=Unnamed NPC (ID: 17236413/0x010701BD), tag_num=0x0E)
  3: 0x07F2 [0x27] REQ_SET(priority=0x10, entity_id=Unnamed NPC (ID: 17236414/0x010701BE), tag_num=0x0B)
  4: 0x07F9 [0x00] END_REQSTACK()
```

### Event 65535.25

#### Metadata

| Field        | Value    |
|--------------|----------|
| Entrypoint   | 0x07FA   |
| Data Size    | 13 bytes |
| Instructions | 3        |

```
      00 01 02 03 04 05 06 07  08 09 0A 0B 0C 0D 0E 0F
      -- -- -- -- -- -- -- --  -- -- -- -- -- -- -- --
07F0:                                6E BC 01 07 01 3F            n....?
0800: 80 99 BC 01 07 01 00                              .......         
```

#### Opcodes

```
  0: 0x07FA [0x6E] Unnamed NPC (ID: 17236412/0x010701BC) uses emote 8*
  1: 0x0801 [0x99] Wait for Unnamed NPC (ID: 17236412/0x010701BC) animation to complete
  2: 0x0806 [0x00] END_REQSTACK()
```

### Event 65535.26

#### Metadata

| Field        | Value     |
|--------------|-----------|
| Entrypoint   | 0x0807    |
| Data Size    | 170 bytes |
| Instructions | 20        |

```
      00 01 02 03 04 05 06 07  08 09 0A 0B 0C 0D 0E 0F
      -- -- -- -- -- -- -- --  -- -- -- -- -- -- -- --
0800:                      BA  AA 01 07 01 01 80 01 80         .........
0810: 01 80 01 80 BA AB 01 07  01 01 80 01 80 01 80 01  ................
0820: 80 BA AC 01 07 01 01 80  01 80 01 80 01 80 BA AD  ................
0830: 01 07 01 01 80 01 80 01  80 01 80 1C 0C 80 27 10  ..............'.
0840: AA 01 07 01 05 27 10 AB  01 07 01 04 27 10 AC 01  .....'......'...
0850: 07 01 03 27 10 AD 01 07  01 02 1C 02 80 27 10 AA  ...'.........'..
0860: 01 07 01 11 27 10 AB 01  07 01 0F 27 10 AC 01 07  ....'......'....
0870: 01 0C 27 10 AD 01 07 01  07 1C 0C 80 BA AA 01 07  ..'.............
0880: 01 40 80 0E 80 3C 80 10  80 BA AB 01 07 01 41 80  .@...<........A.
0890: 00 80 3C 80 1B 80 BA AC  01 07 01 1F 80 0E 80 42  ..<............B
08A0: 80 01 80 BA AD 01 07 01  43 80 00 80 3C 80 3E 80  ........C...<.>.
08B0: 00                                                .               
```

#### Opcodes

```
  0: 0x0807 [0xBA] SET_ENTITY_POSITION(entity_id=Unnamed NPC (ID: 17236394/0x010701AA), pos_x=0.000*, pos_z=0.000*, pos_y=0.000*, direction=0.0°*)
  1: 0x0814 [0xBA] SET_ENTITY_POSITION(entity_id=Unnamed NPC (ID: 17236395/0x010701AB), pos_x=0.000*, pos_z=0.000*, pos_y=0.000*, direction=0.0°*)
  2: 0x0821 [0xBA] SET_ENTITY_POSITION(entity_id=Unnamed NPC (ID: 17236396/0x010701AC), pos_x=0.000*, pos_z=0.000*, pos_y=0.000*, direction=0.0°*)
  3: 0x082E [0xBA] SET_ENTITY_POSITION(entity_id=Unnamed NPC (ID: 17236397/0x010701AD), pos_x=0.000*, pos_z=0.000*, pos_y=0.000*, direction=0.0°*)
  4: 0x083B [0x1C] WAIT(5* ticks)
  5: 0x083E [0x27] REQ_SET(priority=0x10, entity_id=Unnamed NPC (ID: 17236394/0x010701AA), tag_num=0x05)
  6: 0x0845 [0x27] REQ_SET(priority=0x10, entity_id=Unnamed NPC (ID: 17236395/0x010701AB), tag_num=0x04)
  7: 0x084C [0x27] REQ_SET(priority=0x10, entity_id=Unnamed NPC (ID: 17236396/0x010701AC), tag_num=0x03)
  8: 0x0853 [0x27] REQ_SET(priority=0x10, entity_id=Unnamed NPC (ID: 17236397/0x010701AD), tag_num=0x02)
  9: 0x085A [0x1C] WAIT(1* ticks)
 10: 0x085D [0x27] REQ_SET(priority=0x10, entity_id=Unnamed NPC (ID: 17236394/0x010701AA), tag_num=0x11)
 11: 0x0864 [0x27] REQ_SET(priority=0x10, entity_id=Unnamed NPC (ID: 17236395/0x010701AB), tag_num=0x0F)
 12: 0x086B [0x27] REQ_SET(priority=0x10, entity_id=Unnamed NPC (ID: 17236396/0x010701AC), tag_num=0x0C)
 13: 0x0872 [0x27] REQ_SET(priority=0x10, entity_id=Unnamed NPC (ID: 17236397/0x010701AD), tag_num=0x07)
 14: 0x0879 [0x1C] WAIT(5* ticks)
 15: 0x087C [0xBA] SET_ENTITY_POSITION(entity_id=Unnamed NPC (ID: 17236394/0x010701AA), pos_x=2.000*, pos_z=-0.800*, pos_y=109.200*, direction=2.8°*)
 16: 0x0889 [0xBA] SET_ENTITY_POSITION(entity_id=Unnamed NPC (ID: 17236395/0x010701AB), pos_x=3.500*, pos_z=0.200*, pos_y=109.200*, direction=5.6°*)
 17: 0x0896 [0xBA] SET_ENTITY_POSITION(entity_id=Unnamed NPC (ID: 17236396/0x010701AC), pos_x=2.500*, pos_z=-0.800*, pos_y=109.500*, direction=0.0°*)
 18: 0x08A3 [0xBA] SET_ENTITY_POSITION(entity_id=Unnamed NPC (ID: 17236397/0x010701AD), pos_x=1.500*, pos_z=0.200*, pos_y=109.200*, direction=11.2°*)
 19: 0x08B0 [0x00] END_REQSTACK()
```

### Event 65535.27

#### Metadata

| Field        | Value    |
|--------------|----------|
| Entrypoint   | 0x08B1   |
| Data Size    | 29 bytes |
| Instructions | 5        |

```
      00 01 02 03 04 05 06 07  08 09 0A 0B 0C 0D 0E 0F
      -- -- -- -- -- -- -- --  -- -- -- -- -- -- -- --
08B0:    27 10 BC 01 07 01 0F  27 10 BA 01 07 01 07 27   '......'......'
08C0: 10 BD 01 07 01 0D 27 10  BE 01 07 01 0A 00        ......'.......  
```

#### Opcodes

```
  0: 0x08B1 [0x27] REQ_SET(priority=0x10, entity_id=Unnamed NPC (ID: 17236412/0x010701BC), tag_num=0x0F)
  1: 0x08B8 [0x27] REQ_SET(priority=0x10, entity_id=Unnamed NPC (ID: 17236410/0x010701BA), tag_num=0x07)
  2: 0x08BF [0x27] REQ_SET(priority=0x10, entity_id=Unnamed NPC (ID: 17236413/0x010701BD), tag_num=0x0D)
  3: 0x08C6 [0x27] REQ_SET(priority=0x10, entity_id=Unnamed NPC (ID: 17236414/0x010701BE), tag_num=0x0A)
  4: 0x08CD [0x00] END_REQSTACK()
```

### Event 65535.28

#### Metadata

| Field        | Value    |
|--------------|----------|
| Entrypoint   | 0x08CE   |
| Data Size    | 29 bytes |
| Instructions | 5        |

```
      00 01 02 03 04 05 06 07  08 09 0A 0B 0C 0D 0E 0F
      -- -- -- -- -- -- -- --  -- -- -- -- -- -- -- --
08C0:                                            27 10                '.
08D0: AA 01 07 01 12 27 10 AB  01 07 01 10 27 10 AC 01  .....'......'...
08E0: 07 01 0D 27 10 AD 01 07  01 08 00                 ...'.......     
```

#### Opcodes

```
  0: 0x08CE [0x27] REQ_SET(priority=0x10, entity_id=Unnamed NPC (ID: 17236394/0x010701AA), tag_num=0x12)
  1: 0x08D5 [0x27] REQ_SET(priority=0x10, entity_id=Unnamed NPC (ID: 17236395/0x010701AB), tag_num=0x10)
  2: 0x08DC [0x27] REQ_SET(priority=0x10, entity_id=Unnamed NPC (ID: 17236396/0x010701AC), tag_num=0x0D)
  3: 0x08E3 [0x27] REQ_SET(priority=0x10, entity_id=Unnamed NPC (ID: 17236397/0x010701AD), tag_num=0x08)
  4: 0x08EA [0x00] END_REQSTACK()
```

### Event 65535.29

#### Metadata

| Field        | Value     |
|--------------|-----------|
| Entrypoint   | 0x08EB    |
| Data Size    | 113 bytes |
| Instructions | 15        |

```
      00 01 02 03 04 05 06 07  08 09 0A 0B 0C 0D 0E 0F
      -- -- -- -- -- -- -- --  -- -- -- -- -- -- -- --
08E0:                                   BA BC 01 07 01             .....
08F0: 01 80 01 80 01 80 01 80  BA BD 01 07 01 01 80 01  ................
0900: 80 01 80 01 80 1C 0C 80  27 10 BC 01 07 01 03 27  ........'......'
0910: 10 BD 01 07 01 03 1C 02  80 27 10 BC 01 07 01 0F  .........'......
0920: 27 10 BD 01 07 01 0D 1C  0C 80 BA BC 01 07 01 44  '..............D
0930: 80 21 80 20 80 37 80 BA  BD 01 07 01 45 80 3B 80  .!. .7......E.;.
0940: 20 80 01 80 80 BC 01 07  01 1C 02 80 5B 46 80 BC   ...........[F..
0950: 01 07 01 BC 01 07 01 68  61 70 30 00              .......hap0.    
```

#### Opcodes

```
  0: 0x08EB [0xBA] SET_ENTITY_POSITION(entity_id=Unnamed NPC (ID: 17236412/0x010701BC), pos_x=0.000*, pos_z=0.000*, pos_y=0.000*, direction=0.0°*)
  1: 0x08F8 [0xBA] SET_ENTITY_POSITION(entity_id=Unnamed NPC (ID: 17236413/0x010701BD), pos_x=0.000*, pos_z=0.000*, pos_y=0.000*, direction=0.0°*)
  2: 0x0905 [0x1C] WAIT(5* ticks)
  3: 0x0908 [0x27] REQ_SET(priority=0x10, entity_id=Unnamed NPC (ID: 17236412/0x010701BC), tag_num=0x03)
  4: 0x090F [0x27] REQ_SET(priority=0x10, entity_id=Unnamed NPC (ID: 17236413/0x010701BD), tag_num=0x03)
  5: 0x0916 [0x1C] WAIT(1* ticks)
  6: 0x0919 [0x27] REQ_SET(priority=0x10, entity_id=Unnamed NPC (ID: 17236412/0x010701BC), tag_num=0x0F)
  7: 0x0920 [0x27] REQ_SET(priority=0x10, entity_id=Unnamed NPC (ID: 17236413/0x010701BD), tag_num=0x0D)
  8: 0x0927 [0x1C] WAIT(5* ticks)
  9: 0x092A [0xBA] SET_ENTITY_POSITION(entity_id=Unnamed NPC (ID: 17236412/0x010701BC), pos_x=3.800*, pos_z=-0.300*, pos_y=108.900*, direction=22.5°*)
 10: 0x0937 [0xBA] SET_ENTITY_POSITION(entity_id=Unnamed NPC (ID: 17236413/0x010701BD), pos_x=4.000*, pos_z=-0.700*, pos_y=108.900*, direction=0.0°*)
 11: 0x0944 [0x80] LOAD_WAIT(entity=Unnamed NPC (ID: 17236412/0x010701BC))
 12: 0x0949 [0x1C] WAIT(1* ticks)
 13: 0x094C [0x5B] LOAD_EXT_SCHEDULER: Load scheduler "hap0" with entities [Unnamed NPC (ID: 17236412/0x010701BC), Unnamed NPC (ID: 17236412/0x010701BC)], work=835*
 14: 0x095B [0x00] END_REQSTACK()
```

### Event 65535.30

#### Metadata

| Field        | Value    |
|--------------|----------|
| Entrypoint   | 0x095C   |
| Data Size    | 29 bytes |
| Instructions | 5        |

```
      00 01 02 03 04 05 06 07  08 09 0A 0B 0C 0D 0E 0F
      -- -- -- -- -- -- -- --  -- -- -- -- -- -- -- --
0950:                                      27 10 AA 01              '...
0960: 07 01 11 27 10 AB 01 07  01 0F 27 10 AC 01 07 01  ...'......'.....
0970: 0C 27 10 AD 01 07 01 07  00                       .'.......       
```

#### Opcodes

```
  0: 0x095C [0x27] REQ_SET(priority=0x10, entity_id=Unnamed NPC (ID: 17236394/0x010701AA), tag_num=0x11)
  1: 0x0963 [0x27] REQ_SET(priority=0x10, entity_id=Unnamed NPC (ID: 17236395/0x010701AB), tag_num=0x0F)
  2: 0x096A [0x27] REQ_SET(priority=0x10, entity_id=Unnamed NPC (ID: 17236396/0x010701AC), tag_num=0x0C)
  3: 0x0971 [0x27] REQ_SET(priority=0x10, entity_id=Unnamed NPC (ID: 17236397/0x010701AD), tag_num=0x07)
  4: 0x0978 [0x00] END_REQSTACK()
```

### Event 65535.31

#### Metadata

| Field        | Value    |
|--------------|----------|
| Entrypoint   | 0x0979   |
| Data Size    | 15 bytes |
| Instructions | 3        |

```
      00 01 02 03 04 05 06 07  08 09 0A 0B 0C 0D 0E 0F
      -- -- -- -- -- -- -- --  -- -- -- -- -- -- -- --
0970:                             27 10 BC 01 07 01 10           '......
0980: 27 10 BD 01 07 01 0E 00                           '.......        
```

#### Opcodes

```
  0: 0x0979 [0x27] REQ_SET(priority=0x10, entity_id=Unnamed NPC (ID: 17236412/0x010701BC), tag_num=0x10)
  1: 0x0980 [0x27] REQ_SET(priority=0x10, entity_id=Unnamed NPC (ID: 17236413/0x010701BD), tag_num=0x0E)
  2: 0x0987 [0x00] END_REQSTACK()
```

### Event 65535.32

#### Metadata

| Field        | Value     |
|--------------|-----------|
| Entrypoint   | 0x0988    |
| Data Size    | 233 bytes |
| Instructions | 27        |

```
      00 01 02 03 04 05 06 07  08 09 0A 0B 0C 0D 0E 0F
      -- -- -- -- -- -- -- --  -- -- -- -- -- -- -- --
0980:                          BA AA 01 07 01 01 80 01          ........
0990: 80 01 80 01 80 BA AB 01  07 01 01 80 01 80 01 80  ................
09A0: 01 80 BA AC 01 07 01 01  80 01 80 01 80 01 80 BA  ................
09B0: AD 01 07 01 01 80 01 80  01 80 01 80 BA AE 01 07  ................
09C0: 01 01 80 01 80 01 80 01  80 1C 0C 80 27 10 AA 01  ............'...
09D0: 07 01 06 27 10 AB 01 07  01 05 27 10 AC 01 07 01  ...'......'.....
09E0: 04 27 10 AD 01 07 01 03  27 10 AE 01 07 01 02 1C  .'......'.......
09F0: 02 80 27 10 AA 01 07 01  11 27 10 AB 01 07 01 0F  ..'......'......
0A00: 27 10 AC 01 07 01 0C 27  10 AD 01 07 01 07 27 10  '......'......'.
0A10: AE 01 07 01 06 1C 0C 80  BA AA 01 07 01 47 80 38  .............G.8
0A20: 80 0F 80 0A 80 BA AB 01  07 01 25 80 48 80 0F 80  ..........%.H...
0A30: 3E 80 BA AC 01 07 01 01  80 31 80 49 80 4A 80 BA  >........1.I.J..
0A40: AD 01 07 01 01 80 4B 80  49 80 4C 80 BA AE 01 07  ......K.I.L.....
0A50: 01 2A 80 06 80 49 80 01  80 80 AE 01 07 01 1C 02  .*...I..........
0A60: 80 5B 4D 80 AE 01 07 01  AE 01 07 01 68 61 70 30  .[M.........hap0
0A70: 00                                                .               
```

#### Opcodes

```
  0: 0x0988 [0xBA] SET_ENTITY_POSITION(entity_id=Unnamed NPC (ID: 17236394/0x010701AA), pos_x=0.000*, pos_z=0.000*, pos_y=0.000*, direction=0.0°*)
  1: 0x0995 [0xBA] SET_ENTITY_POSITION(entity_id=Unnamed NPC (ID: 17236395/0x010701AB), pos_x=0.000*, pos_z=0.000*, pos_y=0.000*, direction=0.0°*)
  2: 0x09A2 [0xBA] SET_ENTITY_POSITION(entity_id=Unnamed NPC (ID: 17236396/0x010701AC), pos_x=0.000*, pos_z=0.000*, pos_y=0.000*, direction=0.0°*)
  3: 0x09AF [0xBA] SET_ENTITY_POSITION(entity_id=Unnamed NPC (ID: 17236397/0x010701AD), pos_x=0.000*, pos_z=0.000*, pos_y=0.000*, direction=0.0°*)
  4: 0x09BC [0xBA] SET_ENTITY_POSITION(entity_id=Unnamed NPC (ID: 17236398/0x010701AE), pos_x=0.000*, pos_z=0.000*, pos_y=0.000*, direction=0.0°*)
  5: 0x09C9 [0x1C] WAIT(5* ticks)
  6: 0x09CC [0x27] REQ_SET(priority=0x10, entity_id=Unnamed NPC (ID: 17236394/0x010701AA), tag_num=0x06)
  7: 0x09D3 [0x27] REQ_SET(priority=0x10, entity_id=Unnamed NPC (ID: 17236395/0x010701AB), tag_num=0x05)
  8: 0x09DA [0x27] REQ_SET(priority=0x10, entity_id=Unnamed NPC (ID: 17236396/0x010701AC), tag_num=0x04)
  9: 0x09E1 [0x27] REQ_SET(priority=0x10, entity_id=Unnamed NPC (ID: 17236397/0x010701AD), tag_num=0x03)
 10: 0x09E8 [0x27] REQ_SET(priority=0x10, entity_id=Unnamed NPC (ID: 17236398/0x010701AE), tag_num=0x02)
 11: 0x09EF [0x1C] WAIT(1* ticks)
 12: 0x09F2 [0x27] REQ_SET(priority=0x10, entity_id=Unnamed NPC (ID: 17236394/0x010701AA), tag_num=0x11)
 13: 0x09F9 [0x27] REQ_SET(priority=0x10, entity_id=Unnamed NPC (ID: 17236395/0x010701AB), tag_num=0x0F)
 14: 0x0A00 [0x27] REQ_SET(priority=0x10, entity_id=Unnamed NPC (ID: 17236396/0x010701AC), tag_num=0x0C)
 15: 0x0A07 [0x27] REQ_SET(priority=0x10, entity_id=Unnamed NPC (ID: 17236397/0x010701AD), tag_num=0x07)
 16: 0x0A0E [0x27] REQ_SET(priority=0x10, entity_id=Unnamed NPC (ID: 17236398/0x010701AE), tag_num=0x06)
 17: 0x0A15 [0x1C] WAIT(5* ticks)
 18: 0x0A18 [0xBA] SET_ENTITY_POSITION(entity_id=Unnamed NPC (ID: 17236394/0x010701AA), pos_x=-1.500*, pos_z=-0.500*, pos_y=109.300*, direction=377476213.6°*)
 19: 0x0A25 [0xBA] SET_ENTITY_POSITION(entity_id=Unnamed NPC (ID: 17236395/0x010701AB), pos_x=-1.000*, pos_z=0.500*, pos_y=109.300*, direction=11.2°*)
 20: 0x0A32 [0xBA] SET_ENTITY_POSITION(entity_id=Unnamed NPC (ID: 17236396/0x010701AC), pos_x=0.000*, pos_z=-0.900*, pos_y=109.700*, direction=377476208.0°*)
 21: 0x0A3F [0xBA] SET_ENTITY_POSITION(entity_id=Unnamed NPC (ID: 17236397/0x010701AD), pos_x=0.000*, pos_z=0.900*, pos_y=109.700*, direction=16.9°*)
 22: 0x0A4C [0xBA] SET_ENTITY_POSITION(entity_id=Unnamed NPC (ID: 17236398/0x010701AE), pos_x=1.000*, pos_z=-0.200*, pos_y=109.700*, direction=0.0°*)
 23: 0x0A59 [0x80] LOAD_WAIT(entity=Unnamed NPC (ID: 17236398/0x010701AE))
 24: 0x0A5E [0x1C] WAIT(1* ticks)
 25: 0x0A61 [0x5B] LOAD_EXT_SCHEDULER: Load scheduler "hap0" with entities [Unnamed NPC (ID: 17236398/0x010701AE), Unnamed NPC (ID: 17236398/0x010701AE)], work=216*
 26: 0x0A70 [0x00] END_REQSTACK()
```

### Event 65535.33

#### Metadata

| Field        | Value    |
|--------------|----------|
| Entrypoint   | 0x0A71   |
| Data Size    | 15 bytes |
| Instructions | 3        |

```
      00 01 02 03 04 05 06 07  08 09 0A 0B 0C 0D 0E 0F
      -- -- -- -- -- -- -- --  -- -- -- -- -- -- -- --
0A70:    27 10 BC 01 07 01 0F  27 10 BD 01 07 01 0D 00   '......'.......
```

#### Opcodes

```
  0: 0x0A71 [0x27] REQ_SET(priority=0x10, entity_id=Unnamed NPC (ID: 17236412/0x010701BC), tag_num=0x0F)
  1: 0x0A78 [0x27] REQ_SET(priority=0x10, entity_id=Unnamed NPC (ID: 17236413/0x010701BD), tag_num=0x0D)
  2: 0x0A7F [0x00] END_REQSTACK()
```

### Event 65535.34

#### Metadata

| Field        | Value    |
|--------------|----------|
| Entrypoint   | 0x0A80   |
| Data Size    | 36 bytes |
| Instructions | 6        |

```
      00 01 02 03 04 05 06 07  08 09 0A 0B 0C 0D 0E 0F
      -- -- -- -- -- -- -- --  -- -- -- -- -- -- -- --
0A80: 27 10 AA 01 07 01 12 27  10 AB 01 07 01 10 27 10  '......'......'.
0A90: AC 01 07 01 0D 27 10 AD  01 07 01 08 27 10 AE 01  .....'......'...
0AA0: 07 01 07 00                                       ....            
```

#### Opcodes

```
  0: 0x0A80 [0x27] REQ_SET(priority=0x10, entity_id=Unnamed NPC (ID: 17236394/0x010701AA), tag_num=0x12)
  1: 0x0A87 [0x27] REQ_SET(priority=0x10, entity_id=Unnamed NPC (ID: 17236395/0x010701AB), tag_num=0x10)
  2: 0x0A8E [0x27] REQ_SET(priority=0x10, entity_id=Unnamed NPC (ID: 17236396/0x010701AC), tag_num=0x0D)
  3: 0x0A95 [0x27] REQ_SET(priority=0x10, entity_id=Unnamed NPC (ID: 17236397/0x010701AD), tag_num=0x08)
  4: 0x0A9C [0x27] REQ_SET(priority=0x10, entity_id=Unnamed NPC (ID: 17236398/0x010701AE), tag_num=0x07)
  5: 0x0AA3 [0x00] END_REQSTACK()
```

### Event 65535.35

#### Metadata

| Field        | Value     |
|--------------|-----------|
| Entrypoint   | 0x0AA4    |
| Data Size    | 113 bytes |
| Instructions | 15        |

```
      00 01 02 03 04 05 06 07  08 09 0A 0B 0C 0D 0E 0F
      -- -- -- -- -- -- -- --  -- -- -- -- -- -- -- --
0AA0:             BA AF 01 07  01 01 80 01 80 01 80 01      ............
0AB0: 80 BA BC 01 07 01 01 80  01 80 01 80 01 80 1C 0C  ................
0AC0: 80 27 10 AF 01 07 01 02  27 10 BC 01 07 01 04 1C  .'......'.......
0AD0: 02 80 27 10 AF 01 07 01  06 27 10 BC 01 07 01 0F  ..'......'......
0AE0: 1C 0C 80 BA AF 01 07 01  41 80 3B 80 4E 80 01 80  ........A.;.N...
0AF0: BA BC 01 07 01 4F 80 06  80 4E 80 3E 80 80 AF 01  .....O...N.>....
0B00: 07 01 1C 02 80 5B 50 80  AF 01 07 01 AF 01 07 01  .....[P.........
0B10: 74 6C 63 30 00                                    tlc0.           
```

#### Opcodes

```
  0: 0x0AA4 [0xBA] SET_ENTITY_POSITION(entity_id=Unnamed NPC (ID: 17236399/0x010701AF), pos_x=0.000*, pos_z=0.000*, pos_y=0.000*, direction=0.0°*)
  1: 0x0AB1 [0xBA] SET_ENTITY_POSITION(entity_id=Unnamed NPC (ID: 17236412/0x010701BC), pos_x=0.000*, pos_z=0.000*, pos_y=0.000*, direction=0.0°*)
  2: 0x0ABE [0x1C] WAIT(5* ticks)
  3: 0x0AC1 [0x27] REQ_SET(priority=0x10, entity_id=Unnamed NPC (ID: 17236399/0x010701AF), tag_num=0x02)
  4: 0x0AC8 [0x27] REQ_SET(priority=0x10, entity_id=Unnamed NPC (ID: 17236412/0x010701BC), tag_num=0x04)
  5: 0x0ACF [0x1C] WAIT(1* ticks)
  6: 0x0AD2 [0x27] REQ_SET(priority=0x10, entity_id=Unnamed NPC (ID: 17236399/0x010701AF), tag_num=0x06)
  7: 0x0AD9 [0x27] REQ_SET(priority=0x10, entity_id=Unnamed NPC (ID: 17236412/0x010701BC), tag_num=0x0F)
  8: 0x0AE0 [0x1C] WAIT(5* ticks)
  9: 0x0AE3 [0xBA] SET_ENTITY_POSITION(entity_id=Unnamed NPC (ID: 17236399/0x010701AF), pos_x=3.500*, pos_z=-0.700*, pos_y=109.100*, direction=0.0°*)
 10: 0x0AF0 [0xBA] SET_ENTITY_POSITION(entity_id=Unnamed NPC (ID: 17236412/0x010701BC), pos_x=3.300*, pos_z=-0.200*, pos_y=109.100*, direction=11.2°*)
 11: 0x0AFD [0x80] LOAD_WAIT(entity=Unnamed NPC (ID: 17236399/0x010701AF))
 12: 0x0B02 [0x1C] WAIT(1* ticks)
 13: 0x0B05 [0x5B] LOAD_EXT_SCHEDULER: Load scheduler "tlc0" with entities [Unnamed NPC (ID: 17236399/0x010701AF), Unnamed NPC (ID: 17236399/0x010701AF)], work=854*
 14: 0x0B14 [0x00] END_REQSTACK()
```

### Event 65535.36

#### Metadata

| Field        | Value    |
|--------------|----------|
| Entrypoint   | 0x0B15   |
| Data Size    | 36 bytes |
| Instructions | 6        |

```
      00 01 02 03 04 05 06 07  08 09 0A 0B 0C 0D 0E 0F
      -- -- -- -- -- -- -- --  -- -- -- -- -- -- -- --
0B10:                27 10 AA  01 07 01 11 27 10 AB 01       '......'...
0B20: 07 01 0F 27 10 AC 01 07  01 0C 27 10 AD 01 07 01  ...'......'.....
0B30: 07 27 10 AE 01 07 01 06  00                       .'.......       
```

#### Opcodes

```
  0: 0x0B15 [0x27] REQ_SET(priority=0x10, entity_id=Unnamed NPC (ID: 17236394/0x010701AA), tag_num=0x11)
  1: 0x0B1C [0x27] REQ_SET(priority=0x10, entity_id=Unnamed NPC (ID: 17236395/0x010701AB), tag_num=0x0F)
  2: 0x0B23 [0x27] REQ_SET(priority=0x10, entity_id=Unnamed NPC (ID: 17236396/0x010701AC), tag_num=0x0C)
  3: 0x0B2A [0x27] REQ_SET(priority=0x10, entity_id=Unnamed NPC (ID: 17236397/0x010701AD), tag_num=0x07)
  4: 0x0B31 [0x27] REQ_SET(priority=0x10, entity_id=Unnamed NPC (ID: 17236398/0x010701AE), tag_num=0x06)
  5: 0x0B38 [0x00] END_REQSTACK()
```

### Event 65535.37

#### Metadata

| Field        | Value    |
|--------------|----------|
| Entrypoint   | 0x0B39   |
| Data Size    | 15 bytes |
| Instructions | 3        |

```
      00 01 02 03 04 05 06 07  08 09 0A 0B 0C 0D 0E 0F
      -- -- -- -- -- -- -- --  -- -- -- -- -- -- -- --
0B30:                             27 10 AF 01 07 01 07           '......
0B40: 27 10 BC 01 07 01 10 00                           '.......        
```

#### Opcodes

```
  0: 0x0B39 [0x27] REQ_SET(priority=0x10, entity_id=Unnamed NPC (ID: 17236399/0x010701AF), tag_num=0x07)
  1: 0x0B40 [0x27] REQ_SET(priority=0x10, entity_id=Unnamed NPC (ID: 17236412/0x010701BC), tag_num=0x10)
  2: 0x0B47 [0x00] END_REQSTACK()
```

### Event 65535.38

#### Metadata

| Field        | Value     |
|--------------|-----------|
| Entrypoint   | 0x0B48    |
| Data Size    | 170 bytes |
| Instructions | 20        |

```
      00 01 02 03 04 05 06 07  08 09 0A 0B 0C 0D 0E 0F
      -- -- -- -- -- -- -- --  -- -- -- -- -- -- -- --
0B40:                          BA BA 01 07 01 01 80 01          ........
0B50: 80 01 80 01 80 BA BB 01  07 01 01 80 01 80 01 80  ................
0B60: 01 80 BA BD 01 07 01 01  80 01 80 01 80 01 80 BA  ................
0B70: A7 01 07 01 01 80 01 80  01 80 01 80 1C 0C 80 27  ...............'
0B80: 10 BA 01 07 01 03 27 10  BB 01 07 01 02 27 10 BD  ......'......'..
0B90: 01 07 01 04 27 10 A7 01  07 01 03 1C 02 80 27 10  ....'.........'.
0BA0: BA 01 07 01 07 27 10 BB  01 07 01 04 27 10 BD 01  .....'......'...
0BB0: 07 01 0D 27 10 A7 01 07  01 06 1C 0C 80 BA BA 01  ...'............
0BC0: 07 01 40 80 06 80 0F 80  10 80 BA BB 01 07 01 1F  ..@.............
0BD0: 80 00 80 0F 80 3E 80 BA  BD 01 07 01 1F 80 0E 80  .....>..........
0BE0: 0F 80 51 80 BA A7 01 07  01 0D 80 03 80 52 80 10  ..Q..........R..
0BF0: 80 00                                             ..              
```

#### Opcodes

```
  0: 0x0B48 [0xBA] SET_ENTITY_POSITION(entity_id=Unnamed NPC (ID: 17236410/0x010701BA), pos_x=0.000*, pos_z=0.000*, pos_y=0.000*, direction=0.0°*)
  1: 0x0B55 [0xBA] SET_ENTITY_POSITION(entity_id=Unnamed NPC (ID: 17236411/0x010701BB), pos_x=0.000*, pos_z=0.000*, pos_y=0.000*, direction=0.0°*)
  2: 0x0B62 [0xBA] SET_ENTITY_POSITION(entity_id=Unnamed NPC (ID: 17236413/0x010701BD), pos_x=0.000*, pos_z=0.000*, pos_y=0.000*, direction=0.0°*)
  3: 0x0B6F [0xBA] SET_ENTITY_POSITION(entity_id=Unnamed NPC (ID: 17236391/0x010701A7), pos_x=0.000*, pos_z=0.000*, pos_y=0.000*, direction=0.0°*)
  4: 0x0B7C [0x1C] WAIT(5* ticks)
  5: 0x0B7F [0x27] REQ_SET(priority=0x10, entity_id=Unnamed NPC (ID: 17236410/0x010701BA), tag_num=0x03)
  6: 0x0B86 [0x27] REQ_SET(priority=0x10, entity_id=Unnamed NPC (ID: 17236411/0x010701BB), tag_num=0x02)
  7: 0x0B8D [0x27] REQ_SET(priority=0x10, entity_id=Unnamed NPC (ID: 17236413/0x010701BD), tag_num=0x04)
  8: 0x0B94 [0x27] REQ_SET(priority=0x10, entity_id=Unnamed NPC (ID: 17236391/0x010701A7), tag_num=0x03)
  9: 0x0B9B [0x1C] WAIT(1* ticks)
 10: 0x0B9E [0x27] REQ_SET(priority=0x10, entity_id=Unnamed NPC (ID: 17236410/0x010701BA), tag_num=0x07)
 11: 0x0BA5 [0x27] REQ_SET(priority=0x10, entity_id=Unnamed NPC (ID: 17236411/0x010701BB), tag_num=0x04)
 12: 0x0BAC [0x27] REQ_SET(priority=0x10, entity_id=Unnamed NPC (ID: 17236413/0x010701BD), tag_num=0x0D)
 13: 0x0BB3 [0x27] REQ_SET(priority=0x10, entity_id=Unnamed NPC (ID: 17236391/0x010701A7), tag_num=0x06)
 14: 0x0BBA [0x1C] WAIT(5* ticks)
 15: 0x0BBD [0xBA] SET_ENTITY_POSITION(entity_id=Unnamed NPC (ID: 17236410/0x010701BA), pos_x=2.000*, pos_z=-0.200*, pos_y=109.300*, direction=2.8°*)
 16: 0x0BCA [0xBA] SET_ENTITY_POSITION(entity_id=Unnamed NPC (ID: 17236411/0x010701BB), pos_x=2.500*, pos_z=0.200*, pos_y=109.300*, direction=11.2°*)
 17: 0x0BD7 [0xBA] SET_ENTITY_POSITION(entity_id=Unnamed NPC (ID: 17236413/0x010701BD), pos_x=2.500*, pos_z=-0.800*, pos_y=109.300*, direction=377476210.8°*)
 18: 0x0BE4 [0xBA] SET_ENTITY_POSITION(entity_id=Unnamed NPC (ID: 17236391/0x010701A7), pos_x=3.000*, pos_z=-0.400*, pos_y=109.400*, direction=2.8°*)
 19: 0x0BF1 [0x00] END_REQSTACK()
```

### Event 65535.39

#### Metadata

| Field        | Value    |
|--------------|----------|
| Entrypoint   | 0x0BF2   |
| Data Size    | 15 bytes |
| Instructions | 3        |

```
      00 01 02 03 04 05 06 07  08 09 0A 0B 0C 0D 0E 0F
      -- -- -- -- -- -- -- --  -- -- -- -- -- -- -- --
0BF0:       27 10 AF 01 07 01  06 27 10 BC 01 07 01 0F    '......'......
0C00: 00                                                .               
```

#### Opcodes

```
  0: 0x0BF2 [0x27] REQ_SET(priority=0x10, entity_id=Unnamed NPC (ID: 17236399/0x010701AF), tag_num=0x06)
  1: 0x0BF9 [0x27] REQ_SET(priority=0x10, entity_id=Unnamed NPC (ID: 17236412/0x010701BC), tag_num=0x0F)
  2: 0x0C00 [0x00] END_REQSTACK()
```

### Event 65535.40

#### Metadata

| Field        | Value    |
|--------------|----------|
| Entrypoint   | 0x0C01   |
| Data Size    | 29 bytes |
| Instructions | 5        |

```
      00 01 02 03 04 05 06 07  08 09 0A 0B 0C 0D 0E 0F
      -- -- -- -- -- -- -- --  -- -- -- -- -- -- -- --
0C00:    27 10 BA 01 07 01 08  27 10 BB 01 07 01 05 27   '......'......'
0C10: 10 BD 01 07 01 0E 27 10  A7 01 07 01 07 00        ......'.......  
```

#### Opcodes

```
  0: 0x0C01 [0x27] REQ_SET(priority=0x10, entity_id=Unnamed NPC (ID: 17236410/0x010701BA), tag_num=0x08)
  1: 0x0C08 [0x27] REQ_SET(priority=0x10, entity_id=Unnamed NPC (ID: 17236411/0x010701BB), tag_num=0x05)
  2: 0x0C0F [0x27] REQ_SET(priority=0x10, entity_id=Unnamed NPC (ID: 17236413/0x010701BD), tag_num=0x0E)
  3: 0x0C16 [0x27] REQ_SET(priority=0x10, entity_id=Unnamed NPC (ID: 17236391/0x010701A7), tag_num=0x07)
  4: 0x0C1D [0x00] END_REQSTACK()
```

### Event 65535.41

#### Metadata

| Field        | Value    |
|--------------|----------|
| Entrypoint   | 0x0C1E   |
| Data Size    | 31 bytes |
| Instructions | 5        |

```
      00 01 02 03 04 05 06 07  08 09 0A 0B 0C 0D 0E 0F
      -- -- -- -- -- -- -- --  -- -- -- -- -- -- -- --
0C10:                                            5B 53                [S
0C20: 80 A7 01 07 01 A7 01 07  01 77 61 76 30 1C 54 80  .........wav0.T.
0C30: 6E BB 01 07 01 55 80 99  BB 01 07 01 00           n....U.......   
```

#### Opcodes

```
  0: 0x0C1E [0x5B] LOAD_EXT_SCHEDULER: Load scheduler "wav0" with entities [Unnamed NPC (ID: 17236391/0x010701A7), Unnamed NPC (ID: 17236391/0x010701A7)], work=851*
  1: 0x0C2D [0x1C] WAIT(120* ticks)
  2: 0x0C30 [0x6E] Unnamed NPC (ID: 17236411/0x010701BB) uses emote 11*
  3: 0x0C37 [0x99] Wait for Unnamed NPC (ID: 17236411/0x010701BB) animation to complete
  4: 0x0C3C [0x00] END_REQSTACK()
```

### Event 65535.42

#### Metadata

| Field        | Value     |
|--------------|-----------|
| Entrypoint   | 0x0C3D    |
| Data Size    | 233 bytes |
| Instructions | 27        |

```
      00 01 02 03 04 05 06 07  08 09 0A 0B 0C 0D 0E 0F
      -- -- -- -- -- -- -- --  -- -- -- -- -- -- -- --
0C30:                                         BA AA 01               ...
0C40: 07 01 01 80 01 80 01 80  01 80 BA BC 01 07 01 01  ................
0C50: 80 01 80 01 80 01 80 BA  BE 01 07 01 01 80 01 80  ................
0C60: 01 80 01 80 BA BF 01 07  01 01 80 01 80 01 80 01  ................
0C70: 80 BA C0 01 07 01 01 80  01 80 01 80 01 80 1C 0C  ................
0C80: 80 27 10 AA 01 07 01 07  27 10 BC 01 07 01 05 27  .'......'......'
0C90: 10 BE 01 07 01 03 27 10  BF 01 07 01 02 27 10 C0  ......'......'..
0CA0: 01 07 01 02 1C 02 80 27  10 AA 01 07 01 11 27 10  .......'......'.
0CB0: BC 01 07 01 0F 27 10 BE  01 07 01 0A 27 10 BF 01  .....'......'...
0CC0: 07 01 06 27 10 C0 01 07  01 05 1C 0C 80 BA AA 01  ...'............
0CD0: 07 01 1F 80 21 80 52 80  10 80 BA BC 01 07 01 43  ....!.R........C
0CE0: 80 48 80 0F 80 56 80 BA  BE 01 07 01 40 80 57 80  .H...V......@.W.
0CF0: 52 80 3E 80 BA BF 01 07  01 43 80 25 80 0F 80 4A  R.>......C.%...J
0D00: 80 BA C0 01 07 01 40 80  58 80 52 80 19 80 80 AA  ......@.X.R.....
0D10: 01 07 01 1C 02 80 5B 59  80 AA 01 07 01 AA 01 07  ......[Y........
0D20: 01 63 72 31 31 00                                 .cr11.          
```

#### Opcodes

```
  0: 0x0C3D [0xBA] SET_ENTITY_POSITION(entity_id=Unnamed NPC (ID: 17236394/0x010701AA), pos_x=0.000*, pos_z=0.000*, pos_y=0.000*, direction=0.0°*)
  1: 0x0C4A [0xBA] SET_ENTITY_POSITION(entity_id=Unnamed NPC (ID: 17236412/0x010701BC), pos_x=0.000*, pos_z=0.000*, pos_y=0.000*, direction=0.0°*)
  2: 0x0C57 [0xBA] SET_ENTITY_POSITION(entity_id=Unnamed NPC (ID: 17236414/0x010701BE), pos_x=0.000*, pos_z=0.000*, pos_y=0.000*, direction=0.0°*)
  3: 0x0C64 [0xBA] SET_ENTITY_POSITION(entity_id=Unnamed NPC (ID: 17236415/0x010701BF), pos_x=0.000*, pos_z=0.000*, pos_y=0.000*, direction=0.0°*)
  4: 0x0C71 [0xBA] SET_ENTITY_POSITION(entity_id=Unnamed NPC (ID: 17236416/0x010701C0), pos_x=0.000*, pos_z=0.000*, pos_y=0.000*, direction=0.0°*)
  5: 0x0C7E [0x1C] WAIT(5* ticks)
  6: 0x0C81 [0x27] REQ_SET(priority=0x10, entity_id=Unnamed NPC (ID: 17236394/0x010701AA), tag_num=0x07)
  7: 0x0C88 [0x27] REQ_SET(priority=0x10, entity_id=Unnamed NPC (ID: 17236412/0x010701BC), tag_num=0x05)
  8: 0x0C8F [0x27] REQ_SET(priority=0x10, entity_id=Unnamed NPC (ID: 17236414/0x010701BE), tag_num=0x03)
  9: 0x0C96 [0x27] REQ_SET(priority=0x10, entity_id=Unnamed NPC (ID: 17236415/0x010701BF), tag_num=0x02)
 10: 0x0C9D [0x27] REQ_SET(priority=0x10, entity_id=Unnamed NPC (ID: 17236416/0x010701C0), tag_num=0x02)
 11: 0x0CA4 [0x1C] WAIT(1* ticks)
 12: 0x0CA7 [0x27] REQ_SET(priority=0x10, entity_id=Unnamed NPC (ID: 17236394/0x010701AA), tag_num=0x11)
 13: 0x0CAE [0x27] REQ_SET(priority=0x10, entity_id=Unnamed NPC (ID: 17236412/0x010701BC), tag_num=0x0F)
 14: 0x0CB5 [0x27] REQ_SET(priority=0x10, entity_id=Unnamed NPC (ID: 17236414/0x010701BE), tag_num=0x0A)
 15: 0x0CBC [0x27] REQ_SET(priority=0x10, entity_id=Unnamed NPC (ID: 17236415/0x010701BF), tag_num=0x06)
 16: 0x0CC3 [0x27] REQ_SET(priority=0x10, entity_id=Unnamed NPC (ID: 17236416/0x010701C0), tag_num=0x05)
 17: 0x0CCA [0x1C] WAIT(5* ticks)
 18: 0x0CCD [0xBA] SET_ENTITY_POSITION(entity_id=Unnamed NPC (ID: 17236394/0x010701AA), pos_x=2.500*, pos_z=-0.300*, pos_y=109.400*, direction=2.8°*)
 19: 0x0CDA [0xBA] SET_ENTITY_POSITION(entity_id=Unnamed NPC (ID: 17236412/0x010701BC), pos_x=1.500*, pos_z=0.500*, pos_y=109.300*, direction=8.4°*)
 20: 0x0CE7 [0xBA] SET_ENTITY_POSITION(entity_id=Unnamed NPC (ID: 17236414/0x010701BE), pos_x=2.000*, pos_z=0.150*, pos_y=109.400*, direction=11.2°*)
 21: 0x0CF4 [0xBA] SET_ENTITY_POSITION(entity_id=Unnamed NPC (ID: 17236415/0x010701BF), pos_x=1.500*, pos_z=-1.000*, pos_y=109.300*, direction=377476208.0°*)
 22: 0x0D01 [0xBA] SET_ENTITY_POSITION(entity_id=Unnamed NPC (ID: 17236416/0x010701C0), pos_x=2.000*, pos_z=-0.750*, pos_y=109.400*, direction=377476216.4°*)
 23: 0x0D0E [0x80] LOAD_WAIT(entity=Unnamed NPC (ID: 17236394/0x010701AA))
 24: 0x0D13 [0x1C] WAIT(1* ticks)
 25: 0x0D16 [0x5B] LOAD_EXT_SCHEDULER: Load scheduler "cr11" with entities [Unnamed NPC (ID: 17236394/0x010701AA), Unnamed NPC (ID: 17236394/0x010701AA)], work=866*
 26: 0x0D25 [0x00] END_REQSTACK()
```

### Event 65535.43

#### Metadata

| Field        | Value    |
|--------------|----------|
| Entrypoint   | 0x0D26   |
| Data Size    | 29 bytes |
| Instructions | 5        |

```
      00 01 02 03 04 05 06 07  08 09 0A 0B 0C 0D 0E 0F
      -- -- -- -- -- -- -- --  -- -- -- -- -- -- -- --
0D20:                   27 10  BA 01 07 01 07 27 10 BB        '......'..
0D30: 01 07 01 04 27 10 BD 01  07 01 0D 27 10 A7 01 07  ....'......'....
0D40: 01 06 00                                          ...             
```

#### Opcodes

```
  0: 0x0D26 [0x27] REQ_SET(priority=0x10, entity_id=Unnamed NPC (ID: 17236410/0x010701BA), tag_num=0x07)
  1: 0x0D2D [0x27] REQ_SET(priority=0x10, entity_id=Unnamed NPC (ID: 17236411/0x010701BB), tag_num=0x04)
  2: 0x0D34 [0x27] REQ_SET(priority=0x10, entity_id=Unnamed NPC (ID: 17236413/0x010701BD), tag_num=0x0D)
  3: 0x0D3B [0x27] REQ_SET(priority=0x10, entity_id=Unnamed NPC (ID: 17236391/0x010701A7), tag_num=0x06)
  4: 0x0D42 [0x00] END_REQSTACK()
```

### Event 65535.44

#### Metadata

| Field        | Value    |
|--------------|----------|
| Entrypoint   | 0x0D43   |
| Data Size    | 36 bytes |
| Instructions | 6        |

```
      00 01 02 03 04 05 06 07  08 09 0A 0B 0C 0D 0E 0F
      -- -- -- -- -- -- -- --  -- -- -- -- -- -- -- --
0D40:          27 10 AA 01 07  01 12 27 10 BC 01 07 01     '......'.....
0D50: 10 27 10 BE 01 07 01 0B  27 10 BF 01 07 01 07 27  .'......'......'
0D60: 10 C0 01 07 01 06 00                              .......         
```

#### Opcodes

```
  0: 0x0D43 [0x27] REQ_SET(priority=0x10, entity_id=Unnamed NPC (ID: 17236394/0x010701AA), tag_num=0x12)
  1: 0x0D4A [0x27] REQ_SET(priority=0x10, entity_id=Unnamed NPC (ID: 17236412/0x010701BC), tag_num=0x10)
  2: 0x0D51 [0x27] REQ_SET(priority=0x10, entity_id=Unnamed NPC (ID: 17236414/0x010701BE), tag_num=0x0B)
  3: 0x0D58 [0x27] REQ_SET(priority=0x10, entity_id=Unnamed NPC (ID: 17236415/0x010701BF), tag_num=0x07)
  4: 0x0D5F [0x27] REQ_SET(priority=0x10, entity_id=Unnamed NPC (ID: 17236416/0x010701C0), tag_num=0x06)
  5: 0x0D66 [0x00] END_REQSTACK()
```

### Event 65535.45

#### Metadata

| Field        | Value     |
|--------------|-----------|
| Entrypoint   | 0x0D67    |
| Data Size    | 250 bytes |
| Instructions | 28        |

```
      00 01 02 03 04 05 06 07  08 09 0A 0B 0C 0D 0E 0F
      -- -- -- -- -- -- -- --  -- -- -- -- -- -- -- --
0D60:                      BA  AB 01 07 01 01 80 01 80         .........
0D70: 01 80 01 80 BA BD 01 07  01 01 80 01 80 01 80 01  ................
0D80: 80 BA AC 01 07 01 01 80  01 80 01 80 01 80 BA AD  ................
0D90: 01 07 01 01 80 01 80 01  80 01 80 BA AE 01 07 01  ................
0DA0: 01 80 01 80 01 80 01 80  BA C1 01 07 01 01 80 01  ................
0DB0: 80 01 80 01 80 1C 0C 80  27 10 AB 01 07 01 06 27  ........'......'
0DC0: 10 BD 01 07 01 05 27 10  AC 01 07 01 05 27 10 AD  ......'......'..
0DD0: 01 07 01 04 27 10 AE 01  07 01 03 27 10 C1 01 07  ....'......'....
0DE0: 01 02 1C 02 80 27 10 AB  01 07 01 0F 27 10 BD 01  .....'......'...
0DF0: 07 01 0D 27 10 AC 01 07  01 0C 27 10 AD 01 07 01  ...'......'.....
0E00: 07 27 10 AE 01 07 01 06  27 10 C1 01 07 01 04 1C  .'......'.......
0E10: 0C 80 BA AB 01 07 01 1F  80 31 80 3C 80 10 80 BA  .........1.<....
0E20: BD 01 07 01 1F 80 06 80  3C 80 1B 80 BA AC 01 07  ........<.......
0E30: 01 40 80 14 80 0F 80 3E  80 BA AD 01 07 01 40 80  .@.....>......@.
0E40: 38 80 4E 80 01 80 BA AE  01 07 01 40 80 17 80 3C  8.N........@...<
0E50: 80 4A 80 BA C1 01 07 01  43 80 5A 80 3C 80 56 80  .J......C.Z.<.V.
0E60: 00                                                .               
```

#### Opcodes

```
  0: 0x0D67 [0xBA] SET_ENTITY_POSITION(entity_id=Unnamed NPC (ID: 17236395/0x010701AB), pos_x=0.000*, pos_z=0.000*, pos_y=0.000*, direction=0.0°*)
  1: 0x0D74 [0xBA] SET_ENTITY_POSITION(entity_id=Unnamed NPC (ID: 17236413/0x010701BD), pos_x=0.000*, pos_z=0.000*, pos_y=0.000*, direction=0.0°*)
  2: 0x0D81 [0xBA] SET_ENTITY_POSITION(entity_id=Unnamed NPC (ID: 17236396/0x010701AC), pos_x=0.000*, pos_z=0.000*, pos_y=0.000*, direction=0.0°*)
  3: 0x0D8E [0xBA] SET_ENTITY_POSITION(entity_id=Unnamed NPC (ID: 17236397/0x010701AD), pos_x=0.000*, pos_z=0.000*, pos_y=0.000*, direction=0.0°*)
  4: 0x0D9B [0xBA] SET_ENTITY_POSITION(entity_id=Unnamed NPC (ID: 17236398/0x010701AE), pos_x=0.000*, pos_z=0.000*, pos_y=0.000*, direction=0.0°*)
  5: 0x0DA8 [0xBA] SET_ENTITY_POSITION(entity_id=Unnamed NPC (ID: 17236417/0x010701C1), pos_x=0.000*, pos_z=0.000*, pos_y=0.000*, direction=0.0°*)
  6: 0x0DB5 [0x1C] WAIT(5* ticks)
  7: 0x0DB8 [0x27] REQ_SET(priority=0x10, entity_id=Unnamed NPC (ID: 17236395/0x010701AB), tag_num=0x06)
  8: 0x0DBF [0x27] REQ_SET(priority=0x10, entity_id=Unnamed NPC (ID: 17236413/0x010701BD), tag_num=0x05)
  9: 0x0DC6 [0x27] REQ_SET(priority=0x10, entity_id=Unnamed NPC (ID: 17236396/0x010701AC), tag_num=0x05)
 10: 0x0DCD [0x27] REQ_SET(priority=0x10, entity_id=Unnamed NPC (ID: 17236397/0x010701AD), tag_num=0x04)
 11: 0x0DD4 [0x27] REQ_SET(priority=0x10, entity_id=Unnamed NPC (ID: 17236398/0x010701AE), tag_num=0x03)
 12: 0x0DDB [0x27] REQ_SET(priority=0x10, entity_id=Unnamed NPC (ID: 17236417/0x010701C1), tag_num=0x02)
 13: 0x0DE2 [0x1C] WAIT(1* ticks)
 14: 0x0DE5 [0x27] REQ_SET(priority=0x10, entity_id=Unnamed NPC (ID: 17236395/0x010701AB), tag_num=0x0F)
 15: 0x0DEC [0x27] REQ_SET(priority=0x10, entity_id=Unnamed NPC (ID: 17236413/0x010701BD), tag_num=0x0D)
 16: 0x0DF3 [0x27] REQ_SET(priority=0x10, entity_id=Unnamed NPC (ID: 17236396/0x010701AC), tag_num=0x0C)
 17: 0x0DFA [0x27] REQ_SET(priority=0x10, entity_id=Unnamed NPC (ID: 17236397/0x010701AD), tag_num=0x07)
 18: 0x0E01 [0x27] REQ_SET(priority=0x10, entity_id=Unnamed NPC (ID: 17236398/0x010701AE), tag_num=0x06)
 19: 0x0E08 [0x27] REQ_SET(priority=0x10, entity_id=Unnamed NPC (ID: 17236417/0x010701C1), tag_num=0x04)
 20: 0x0E0F [0x1C] WAIT(5* ticks)
 21: 0x0E12 [0xBA] SET_ENTITY_POSITION(entity_id=Unnamed NPC (ID: 17236395/0x010701AB), pos_x=2.500*, pos_z=-0.900*, pos_y=109.200*, direction=2.8°*)
 22: 0x0E1F [0xBA] SET_ENTITY_POSITION(entity_id=Unnamed NPC (ID: 17236413/0x010701BD), pos_x=2.500*, pos_z=-0.200*, pos_y=109.200*, direction=5.6°*)
 23: 0x0E2C [0xBA] SET_ENTITY_POSITION(entity_id=Unnamed NPC (ID: 17236396/0x010701AC), pos_x=2.000*, pos_z=0.400*, pos_y=109.300*, direction=11.2°*)
 24: 0x0E39 [0xBA] SET_ENTITY_POSITION(entity_id=Unnamed NPC (ID: 17236397/0x010701AD), pos_x=2.000*, pos_z=-0.500*, pos_y=109.100*, direction=0.0°*)
 25: 0x0E46 [0xBA] SET_ENTITY_POSITION(entity_id=Unnamed NPC (ID: 17236398/0x010701AE), pos_x=2.000*, pos_z=-1.100*, pos_y=109.200*, direction=377476208.0°*)
 26: 0x0E53 [0xBA] SET_ENTITY_POSITION(entity_id=Unnamed NPC (ID: 17236417/0x010701C1), pos_x=1.500*, pos_z=0.300*, pos_y=109.200*, direction=8.4°*)
 27: 0x0E60 [0x00] END_REQSTACK()
```

### Event 65535.46

#### Metadata

| Field        | Value    |
|--------------|----------|
| Entrypoint   | 0x0E61   |
| Data Size    | 13 bytes |
| Instructions | 3        |

```
      00 01 02 03 04 05 06 07  08 09 0A 0B 0C 0D 0E 0F
      -- -- -- -- -- -- -- --  -- -- -- -- -- -- -- --
0E60:    6E BD 01 07 01 02 80  99 BD 01 07 01 00         n............  
```

#### Opcodes

```
  0: 0x0E61 [0x6E] Unnamed NPC (ID: 17236413/0x010701BD) uses emote 1*
  1: 0x0E68 [0x99] Wait for Unnamed NPC (ID: 17236413/0x010701BD) animation to complete
  2: 0x0E6D [0x00] END_REQSTACK()
```

### Event 65535.47

#### Metadata

| Field        | Value    |
|--------------|----------|
| Entrypoint   | 0x0E6E   |
| Data Size    | 36 bytes |
| Instructions | 6        |

```
      00 01 02 03 04 05 06 07  08 09 0A 0B 0C 0D 0E 0F
      -- -- -- -- -- -- -- --  -- -- -- -- -- -- -- --
0E60:                                            27 10                '.
0E70: AA 01 07 01 11 27 10 BC  01 07 01 0F 27 10 BE 01  .....'......'...
0E80: 07 01 0A 27 10 BF 01 07  01 06 27 10 C0 01 07 01  ...'......'.....
0E90: 05 00                                             ..              
```

#### Opcodes

```
  0: 0x0E6E [0x27] REQ_SET(priority=0x10, entity_id=Unnamed NPC (ID: 17236394/0x010701AA), tag_num=0x11)
  1: 0x0E75 [0x27] REQ_SET(priority=0x10, entity_id=Unnamed NPC (ID: 17236412/0x010701BC), tag_num=0x0F)
