# 17236318

## Common Data

| Field            | Value               |
|------------------|---------------------|
| Zone             | Xarcabard (ID: 112) |
| Block Size       | 4624 bytes          |
| Total Events     | 6                   |
| References Count | 55                  |

## List of Events

| Event ID              | Entrypoint   |   Size |   Instructions |
|-----------------------|--------------|--------|----------------|
| [65535](#event-65535) | 0x0000       |      1 |              1 |
| [4](#event-4)         | 0x0001       |    533 |             67 |
| [5](#event-5)         | 0x0216       |    545 |             69 |
| [6](#event-6)         | 0x0437       |   2616 |            270 |
| [7](#event-7)         | 0x0E6F       |    279 |             36 |
| [8](#event-8)         | 0x0F86       |    388 |             49 |

## DAT References (imed_data)

|   Index | Hex Value   |   Dec Value |
|---------|-------------|-------------|
|       0 | 0x00C8      |         200 |
|       1 | 0x0013      |          19 |
|       2 | 0x0010      |          16 |
|       3 | 0x0000      |           0 |
|       4 | 0x0096      |         150 |
|       5 | 0x1E3E      |        7742 |
|       6 | 0x0032      |          50 |
|       7 | 0x1E3F      |        7743 |
|       8 | 0x1E43      |        7747 |
|       9 | 0x079C      |        1948 |
|      10 | 0x1E45      |        7749 |
|      11 | 0x012C      |         300 |
|      12 | 0x067A      |        1658 |
|      13 | 0x00B4      |         180 |
|      14 | 0x005A      |          90 |
|      15 | 0x001E      |          30 |
|      16 | 0x1E47      |        7751 |
|      17 | 0x0064      |         100 |
|      18 | 0x00C9      |         201 |
|      19 | 0x0014      |          20 |
|      20 | 0x001F      |          31 |
|      21 | 0xFFFC1E40  |  4294712896 |
|      22 | 0xFFFDC493  |  4294821011 |
|      23 | 0xFFFFC5FF  |  4294952447 |
|      24 | 0x07B5      |        1973 |
|      25 | 0x050A      |        1290 |
|      26 | 0x1E48      |        7752 |
|      27 | 0x0021      |          33 |
|      28 | 0x003C      |          60 |
|      29 | 0xFFFC1B12  |  4294712082 |
|      30 | 0xFFFDB243  |  4294816323 |
|      31 | 0xFFFFB5C8  |  4294948296 |
|      32 | 0x0400      |        1024 |
|      33 | 0x1E49      |        7753 |
|      34 | 0x000A      |          10 |
|      35 | 0x0028      |          40 |
|      36 | 0x0020      |          32 |
|      37 | 0x1E4E      |        7758 |
|      38 | 0x009F      |         159 |
|      39 | 0x007F      |         127 |
|      40 | 0x0001      |           1 |
|      41 | 0x1E50      |        7760 |
|      42 | 0x0050      |          80 |
|      43 | 0x0002      |           2 |
|      44 | 0x0104      |         260 |
|      45 | 0x1E54      |        7764 |
|      46 | 0xFFFC1138  |  4294709560 |
|      47 | 0x10035     |       65589 |
|      48 | 0x02BA      |         698 |
|      49 | 0x04F5      |        1269 |
|      50 | 0x0003      |           3 |
|      51 | 0x0012      |          18 |
|      52 | 0x1E6F      |        7791 |
|      53 | 0x00A4      |         164 |
|      54 | 0x0067      |         103 |

## Events

### Event 65535

#### Metadata

| Field        | Value   |
|--------------|---------|
| Entrypoint   | 0x0000  |
| Data Size    | 1 bytes |
| Instructions | 1       |

```
      00 01 02 03 04 05 06 07  08 09 0A 0B 0C 0D 0E 0F
      -- -- -- -- -- -- -- --  -- -- -- -- -- -- -- --
0000: 00                                                .               
```

#### Opcodes

```
  0: 0x0000 [0x00] END_REQSTACK()
```

### Event 4

#### Metadata

| Field        | Value     |
|--------------|-----------|
| Entrypoint   | 0x0001    |
| Data Size    | 533 bytes |
| Instructions | 67        |

```
      00 01 02 03 04 05 06 07  08 09 0A 0B 0C 0D 0E 0F
      -- -- -- -- -- -- -- --  -- -- -- -- -- -- -- --
0000:    42 46 01 1C 00 80 38  01 80 29 08 F0 FF FF 7F   BF....8..).....
0010: 10 29 0B F0 FF FF 7F 05  29 0B 5F 01 07 01 2E 4E  .)......)._....N
0020: 00 F0 FF FF 7F 4E 00 5F  01 07 01 80 5F 01 07 01  .....N._...._...
0030: 80 F0 FF FF 7F 79 00 F0  FF FF 7F 5F 01 07 01 22  .....y....._..."
0040: 01 27 0B F0 FF FF 7F 06  45 02 80 F8 FF FF 7F F8  .'......E.......
0050: FF FF 7F 73 30 37 35 03  80 45 00 80 F8 FF FF 7F  ...s075..E......
0060: F8 FF FF 7F 66 64 69 31  03 80 1C 04 80 4A 5F 01  ....fdi1.....J_.
0070: 07 01 F0 FF FF 7F 6F 76  5F 01 07 01 2B 5F 01 07  ......ov_...+_..
0080: 01 05 80 23 1C 06 80 52  02 80 F8 FF FF 7F F8 FF  ...#...R........
0090: FF 7F 73 30 37 35 45 00  80 F0 FF FF 7F F0 FF FF  ..s075E.........
00A0: 7F 6F 76 6C 31 03 80 45  02 80 F8 FF FF 7F F8 FF  .ovl1..E........
00B0: FF 7F 73 30 37 36 03 80  27 0B 5F 01 07 01 2B 2B  ..s076..'._...++
00C0: 5F 01 07 01 07 80 23 2A  0B 5F 01 07 01 2A 0B F0  _.....#*._...*..
00D0: FF FF 7F 4A F0 FF FF 7F  5F 01 07 01 52 02 80 F8  ...J...._...R...
00E0: FF FF 7F F8 FF FF 7F 73  30 37 36 45 00 80 F0 FF  .......s076E....
00F0: FF 7F F0 FF FF 7F 6F 76  6C 31 03 80 45 02 80 F8  ......ovl1..E...
0100: FF FF 7F F8 FF FF 7F 73  30 37 37 03 80 29 08 5F  .......s077..)._
0110: 01 07 01 04 29 0B 5F 01  07 01 33 29 08 5F 01 07  ....)._...3)._..
0120: 01 05 52 02 80 F8 FF FF  7F F8 FF FF 7F 73 30 37  ..R..........s07
0130: 37 45 00 80 F0 FF FF 7F  F0 FF FF 7F 6F 76 6C 31  7E..........ovl1
0140: 03 80 45 02 80 F8 FF FF  7F F8 FF FF 7F 73 30 37  ..E..........s07
0150: 38 03 80 29 08 5F 01 07  01 26 29 0B 5F 01 07 01  8..)._...&)._...
0160: 34 29 08 5F 01 07 01 27  2B 5F 01 07 01 08 80 23  4)._...'+_.....#
0170: 52 02 80 F8 FF FF 7F F8  FF FF 7F 73 30 37 38 45  R..........s078E
0180: 02 80 F8 FF FF 7F F8 FF  FF 7F 73 30 38 30 03 80  ..........s080..
0190: 29 0B 5F 01 07 01 35 52  02 80 F8 FF FF 7F F8 FF  )._...5R........
01A0: FF 7F 73 30 38 30 45 02  80 F8 FF FF 7F F8 FF FF  ..s080E.........
01B0: 7F 73 30 37 39 03 80 4B  5F 01 07 01 09 80 6F 76  .s079..K_.....ov
01C0: 5F 01 07 01 27 0B 5F 01  07 01 2C 2B 5F 01 07 01  _...'._...,+_...
01D0: 0A 80 23 1C 00 80 45 00  80 F0 FF FF 7F F0 FF FF  ..#...E.........
01E0: 7F 66 64 6F 30 03 80 1C  0B 80 2A 0B 5F 01 07 01  .fdo0.....*._...
01F0: 52 02 80 F8 FF FF 7F F8  FF FF 7F 73 30 37 39 46  R..........s079F
0200: 00 45 00 80 F0 FF FF 7F  F0 FF FF 7F 66 64 69 30  .E..........fdi0
0210: 03 80 20 00 21 00                                 .. .!.          
```

#### Opcodes

```
  0: 0x0001 [0x42] SET_CLI_EVENT_CANCEL_DATA()
  1: 0x0002 [0x46] CAMERA_CONTROL: Disable user control
  2: 0x0004 [0x1C] WAIT(200* ticks)
  3: 0x0007 [0x38] SET_CLIENT_EVENT_MODE(mode=19*)
  4: 0x000A [0x29] REQ_SET_WAIT(priority=0x08, entity_id=LocalPlayer, tag_num=0x10)
  5: 0x0011 [0x29] REQ_SET_WAIT(priority=0x0B, entity_id=LocalPlayer, tag_num=0x05)
  6: 0x0018 [0x29] REQ_SET_WAIT(priority=0x0B, entity_id=Semih Lafihna (ID: 17236319/0x0107015F), tag_num=0x2E)
  7: 0x001F [0x4E] SET_ENTITY_HIDE_FLAG: Show LocalPlayer
  8: 0x0025 [0x4E] SET_ENTITY_HIDE_FLAG: Show Semih Lafihna (ID: 17236319/0x0107015F)
  9: 0x002B [0x80] LOAD_WAIT(entity=Semih Lafihna (ID: 17236319/0x0107015F))
 10: 0x0030 [0x80] LOAD_WAIT(entity=LocalPlayer)
 11: 0x0035 [0x79] LocalPlayer looks at Semih Lafihna (ID: 17236319/0x0107015F) (Basic look)
 12: 0x003F [0x22] ENTITY_HIDE_FLAG(enabled=0x01)
 13: 0x0041 [0x27] REQ_SET(priority=0x0B, entity_id=LocalPlayer, tag_num=0x06)
 14: 0x0048 [0x45] LOAD_SCHEDULED_TASK: Load scheduler "s075" with entities [EventEntity, EventEntity], work=[16*, 0*]
 15: 0x0059 [0x45] LOAD_SCHEDULED_TASK: Load scheduler "fdi1" with entities [EventEntity, EventEntity], work=[200*, 0*]
 16: 0x006A [0x1C] WAIT(150* ticks)
 17: 0x006D [0x4A] Semih Lafihna (ID: 17236319/0x0107015F) looks at LocalPlayer
 18: 0x0076 [0x6F] WAIT_FRAME_DELAY: Yield until WaitTime reaches zero
 19: 0x0077 [0x76] CHECK_ENTITY_RENDER_FLAGS: Wait until Semih Lafihna (ID: 17236319/0x0107015F) Render.Flags0 and Render.Flags3 conditions are met
 20: 0x007C [0x2B] Semih Lafihna (ID: 17236319/0x0107015F) [7742*]:
    → "<Player>!"
 21: 0x0083 [0x23] WAIT_FOR_DIALOG_INTERACTION
 22: 0x0084 [0x1C] WAIT(50* ticks)
 23: 0x0087 [0x52] END_LOAD_SCHEDULER: End scheduler "s075" with entities [EventEntity, EventEntity], work=16*
 24: 0x0096 [0x45] LOAD_SCHEDULED_TASK: Load scheduler "ovl1" with entities [LocalPlayer, LocalPlayer], work=[200*, 0*]
 25: 0x00A7 [0x45] LOAD_SCHEDULED_TASK: Load scheduler "s076" with entities [EventEntity, EventEntity], work=[16*, 0*]
 26: 0x00B8 [0x27] REQ_SET(priority=0x0B, entity_id=Semih Lafihna (ID: 17236319/0x0107015F), tag_num=0x2B)
 27: 0x00BF [0x2B] Semih Lafihna (ID: 17236319/0x0107015F) [7743*]:
    → "Why have you come? You don't need to be here."
 28: 0x00C6 [0x23] WAIT_FOR_DIALOG_INTERACTION
 29: 0x00C7 [0x2A] GET_REQ_LEVEL(level=11, entity_id=Semih Lafihna (ID: 17236319/0x0107015F))
 30: 0x00CD [0x2A] GET_REQ_LEVEL(level=11, entity_id=LocalPlayer)
 31: 0x00D3 [0x4A] LocalPlayer looks at Semih Lafihna (ID: 17236319/0x0107015F)
 32: 0x00DC [0x52] END_LOAD_SCHEDULER: End scheduler "s076" with entities [EventEntity, EventEntity], work=16*
 33: 0x00EB [0x45] LOAD_SCHEDULED_TASK: Load scheduler "ovl1" with entities [LocalPlayer, LocalPlayer], work=[200*, 0*]
 34: 0x00FC [0x45] LOAD_SCHEDULED_TASK: Load scheduler "s077" with entities [EventEntity, EventEntity], work=[16*, 0*]
 35: 0x010D [0x29] REQ_SET_WAIT(priority=0x08, entity_id=Semih Lafihna (ID: 17236319/0x0107015F), tag_num=0x04)
 36: 0x0114 [0x29] REQ_SET_WAIT(priority=0x0B, entity_id=Semih Lafihna (ID: 17236319/0x0107015F), tag_num=0x33)
 37: 0x011B [0x29] REQ_SET_WAIT(priority=0x08, entity_id=Semih Lafihna (ID: 17236319/0x0107015F), tag_num=0x05)
 38: 0x0122 [0x52] END_LOAD_SCHEDULER: End scheduler "s077" with entities [EventEntity, EventEntity], work=16*
 39: 0x0131 [0x45] LOAD_SCHEDULED_TASK: Load scheduler "ovl1" with entities [LocalPlayer, LocalPlayer], work=[200*, 0*]
 40: 0x0142 [0x45] LOAD_SCHEDULED_TASK: Load scheduler "s078" with entities [EventEntity, EventEntity], work=[16*, 0*]
 41: 0x0153 [0x29] REQ_SET_WAIT(priority=0x08, entity_id=Semih Lafihna (ID: 17236319/0x0107015F), tag_num=0x26)
 42: 0x015A [0x29] REQ_SET_WAIT(priority=0x0B, entity_id=Semih Lafihna (ID: 17236319/0x0107015F), tag_num=0x34)
 43: 0x0161 [0x29] REQ_SET_WAIT(priority=0x08, entity_id=Semih Lafihna (ID: 17236319/0x0107015F), tag_num=0x27)
 44: 0x0168 [0x2B] Semih Lafihna (ID: 17236319/0x0107015F) [7747*]:
    → "It's a broken arrow, but it glows strangely in a way that I have never seen in Windurst, or anywhere else for that matter."
 45: 0x016F [0x23] WAIT_FOR_DIALOG_INTERACTION
 46: 0x0170 [0x52] END_LOAD_SCHEDULER: End scheduler "s078" with entities [EventEntity, EventEntity], work=16*
 47: 0x017F [0x45] LOAD_SCHEDULED_TASK: Load scheduler "s080" with entities [EventEntity, EventEntity], work=[16*, 0*]
 48: 0x0190 [0x29] REQ_SET_WAIT(priority=0x0B, entity_id=Semih Lafihna (ID: 17236319/0x0107015F), tag_num=0x35)
 49: 0x0197 [0x52] END_LOAD_SCHEDULER: End scheduler "s080" with entities [EventEntity, EventEntity], work=16*
 50: 0x01A6 [0x45] LOAD_SCHEDULED_TASK: Load scheduler "s079" with entities [EventEntity, EventEntity], work=[16*, 0*]
 51: 0x01B7 [0x4B] UPDATE_ENTITY_YAW(entity=Semih Lafihna (ID: 17236319/0x0107015F), yaw=10.7°*)
 52: 0x01BE [0x6F] WAIT_FRAME_DELAY: Yield until WaitTime reaches zero
 53: 0x01BF [0x76] CHECK_ENTITY_RENDER_FLAGS: Wait until Semih Lafihna (ID: 17236319/0x0107015F) Render.Flags0 and Render.Flags3 conditions are met
 54: 0x01C4 [0x27] REQ_SET(priority=0x0B, entity_id=Semih Lafihna (ID: 17236319/0x0107015F), tag_num=0x2C)
 55: 0x01CB [0x2B] Semih Lafihna (ID: 17236319/0x0107015F) [7749*]:
    → "In any case, I must get closer to Castle Zvahl. Take care of yourself, <Player>."
 56: 0x01D2 [0x23] WAIT_FOR_DIALOG_INTERACTION
 57: 0x01D3 [0x1C] WAIT(200* ticks)
 58: 0x01D6 [0x45] LOAD_SCHEDULED_TASK: Load scheduler "fdo0" with entities [LocalPlayer, LocalPlayer], work=[200*, 0*]
 59: 0x01E7 [0x1C] WAIT(300* ticks)
 60: 0x01EA [0x2A] GET_REQ_LEVEL(level=11, entity_id=Semih Lafihna (ID: 17236319/0x0107015F))
 61: 0x01F0 [0x52] END_LOAD_SCHEDULER: End scheduler "s079" with entities [EventEntity, EventEntity], work=16*
 62: 0x01FF [0x46] CAMERA_CONTROL: Restore default settings
 63: 0x0201 [0x45] LOAD_SCHEDULED_TASK: Load scheduler "fdi0" with entities [LocalPlayer, LocalPlayer], work=[200*, 0*]
 64: 0x0212 [0x20] SET_CLI_EVENT_UC_FLAG: Unlock player control
 65: 0x0214 [0x21] END_EVENT
 66: 0x0215 [0x00] END_REQSTACK()
```

### Event 5

#### Metadata

| Field        | Value     |
|--------------|-----------|
| Entrypoint   | 0x0216    |
| Data Size    | 545 bytes |
| Instructions | 69        |

```
      00 01 02 03 04 05 06 07  08 09 0A 0B 0C 0D 0E 0F
      -- -- -- -- -- -- -- --  -- -- -- -- -- -- -- --
0210:                   42 46  01 1C 00 80 38 01 80 29        BF....8..)
0220: 08 F0 FF FF 7F 10 29 0B  5F 01 07 01 2D 29 0B F0  ......)._...-)..
0230: FF FF 7F 07 4E 00 F0 FF  FF 7F 4E 00 5F 01 07 01  ....N.....N._...
0240: 80 5F 01 07 01 80 F0 FF  FF 7F 79 00 F0 FF FF 7F  ._........y.....
0250: 5F 01 07 01 22 01 27 0B  F0 FF FF 7F 09 45 02 80  _...".'......E..
0260: F8 FF FF 7F F8 FF FF 7F  73 30 38 31 03 80 45 00  ........s081..E.
0270: 80 F8 FF FF 7F F8 FF FF  7F 66 64 69 31 03 80 1C  .........fdi1...
0280: 04 80 4A 5F 01 07 01 F0  FF FF 7F 6F 76 5F 01 07  ..J_.......ov_..
0290: 01 2B 5F 01 07 01 05 80  23 1C 06 80 52 02 80 F8  .+_.....#...R...
02A0: FF FF 7F F8 FF FF 7F 73  30 38 31 45 00 80 F0 FF  .......s081E....
02B0: FF 7F F0 FF FF 7F 6F 76  6C 31 03 80 45 02 80 F8  ......ovl1..E...
02C0: FF FF 7F F8 FF FF 7F 73  30 38 32 03 80 27 0B 5F  .......s082..'._
02D0: 01 07 01 2F 2B 5F 01 07  01 07 80 23 2A 0B 5F 01  .../+_.....#*._.
02E0: 07 01 2A 0B F0 FF FF 7F  4A F0 FF FF 7F 5F 01 07  ..*.....J...._..
02F0: 01 52 02 80 F8 FF FF 7F  F8 FF FF 7F 73 30 38 32  .R..........s082
0300: 45 00 80 F0 FF FF 7F F0  FF FF 7F 6F 76 6C 31 03  E..........ovl1.
0310: 80 45 02 80 F8 FF FF 7F  F8 FF FF 7F 73 30 38 33  .E..........s083
0320: 03 80 29 0B F0 FF FF 7F  08 7B 5F 01 07 01 29 08  ..)......{_...).
0330: 5F 01 07 01 04 29 0B 5F  01 07 01 33 29 08 5F 01  _....)._...3)._.
0340: 07 01 05 52 02 80 F8 FF  FF 7F F8 FF FF 7F 73 30  ...R..........s0
0350: 38 33 45 00 80 F0 FF FF  7F F0 FF FF 7F 6F 76 6C  83E..........ovl
0360: 31 03 80 45 02 80 F8 FF  FF 7F F8 FF FF 7F 73 30  1..E..........s0
0370: 38 34 03 80 29 08 5F 01  07 01 26 29 0B 5F 01 07  84..)._...&)._..
0380: 01 34 29 08 5F 01 07 01  27 2B 5F 01 07 01 08 80  .4)._...'+_.....
0390: 23 52 02 80 F8 FF FF 7F  F8 FF FF 7F 73 30 37 38  #R..........s078
03A0: 45 02 80 F8 FF FF 7F F8  FF FF 7F 73 30 38 35 03  E..........s085.
03B0: 80 29 0B 5F 01 07 01 35  52 02 80 F8 FF FF 7F F8  .)._...5R.......
03C0: FF FF 7F 73 30 38 35 45  02 80 F8 FF FF 7F F8 FF  ...s085E........
03D0: FF 7F 73 30 38 36 03 80  4B 5F 01 07 01 0C 80 6F  ..s086..K_.....o
03E0: 76 5F 01 07 01 27 0B 5F  01 07 01 30 2B 5F 01 07  v_...'._...0+_..
03F0: 01 0A 80 23 1C 00 80 45  00 80 F0 FF FF 7F F0 FF  ...#...E........
0400: FF 7F 66 64 6F 30 03 80  1C 0B 80 2A 0B 5F 01 07  ..fdo0.....*._..
0410: 01 52 02 80 F8 FF FF 7F  F8 FF FF 7F 73 30 38 36  .R..........s086
0420: 46 00 45 00 80 F0 FF FF  7F F0 FF FF 7F 66 64 69  F.E..........fdi
0430: 30 03 80 20 00 21 00                              0.. .!.         
```

#### Opcodes

```
  0: 0x0216 [0x42] SET_CLI_EVENT_CANCEL_DATA()
  1: 0x0217 [0x46] CAMERA_CONTROL: Disable user control
  2: 0x0219 [0x1C] WAIT(200* ticks)
  3: 0x021C [0x38] SET_CLIENT_EVENT_MODE(mode=19*)
  4: 0x021F [0x29] REQ_SET_WAIT(priority=0x08, entity_id=LocalPlayer, tag_num=0x10)
  5: 0x0226 [0x29] REQ_SET_WAIT(priority=0x0B, entity_id=Semih Lafihna (ID: 17236319/0x0107015F), tag_num=0x2D)
  6: 0x022D [0x29] REQ_SET_WAIT(priority=0x0B, entity_id=LocalPlayer, tag_num=0x07)
  7: 0x0234 [0x4E] SET_ENTITY_HIDE_FLAG: Show LocalPlayer
  8: 0x023A [0x4E] SET_ENTITY_HIDE_FLAG: Show Semih Lafihna (ID: 17236319/0x0107015F)
  9: 0x0240 [0x80] LOAD_WAIT(entity=Semih Lafihna (ID: 17236319/0x0107015F))
 10: 0x0245 [0x80] LOAD_WAIT(entity=LocalPlayer)
 11: 0x024A [0x79] LocalPlayer looks at Semih Lafihna (ID: 17236319/0x0107015F) (Basic look)
 12: 0x0254 [0x22] ENTITY_HIDE_FLAG(enabled=0x01)
 13: 0x0256 [0x27] REQ_SET(priority=0x0B, entity_id=LocalPlayer, tag_num=0x09)
 14: 0x025D [0x45] LOAD_SCHEDULED_TASK: Load scheduler "s081" with entities [EventEntity, EventEntity], work=[16*, 0*]
 15: 0x026E [0x45] LOAD_SCHEDULED_TASK: Load scheduler "fdi1" with entities [EventEntity, EventEntity], work=[200*, 0*]
 16: 0x027F [0x1C] WAIT(150* ticks)
 17: 0x0282 [0x4A] Semih Lafihna (ID: 17236319/0x0107015F) looks at LocalPlayer
 18: 0x028B [0x6F] WAIT_FRAME_DELAY: Yield until WaitTime reaches zero
 19: 0x028C [0x76] CHECK_ENTITY_RENDER_FLAGS: Wait until Semih Lafihna (ID: 17236319/0x0107015F) Render.Flags0 and Render.Flags3 conditions are met
 20: 0x0291 [0x2B] Semih Lafihna (ID: 17236319/0x0107015F) [7742*]:
    → "<Player>!"
 21: 0x0298 [0x23] WAIT_FOR_DIALOG_INTERACTION
 22: 0x0299 [0x1C] WAIT(50* ticks)
 23: 0x029C [0x52] END_LOAD_SCHEDULER: End scheduler "s081" with entities [EventEntity, EventEntity], work=16*
 24: 0x02AB [0x45] LOAD_SCHEDULED_TASK: Load scheduler "ovl1" with entities [LocalPlayer, LocalPlayer], work=[200*, 0*]
 25: 0x02BC [0x45] LOAD_SCHEDULED_TASK: Load scheduler "s082" with entities [EventEntity, EventEntity], work=[16*, 0*]
 26: 0x02CD [0x27] REQ_SET(priority=0x0B, entity_id=Semih Lafihna (ID: 17236319/0x0107015F), tag_num=0x2F)
 27: 0x02D4 [0x2B] Semih Lafihna (ID: 17236319/0x0107015F) [7743*]:
    → "Why have you come? You don't need to be here."
 28: 0x02DB [0x23] WAIT_FOR_DIALOG_INTERACTION
 29: 0x02DC [0x2A] GET_REQ_LEVEL(level=11, entity_id=Semih Lafihna (ID: 17236319/0x0107015F))
 30: 0x02E2 [0x2A] GET_REQ_LEVEL(level=11, entity_id=LocalPlayer)
 31: 0x02E8 [0x4A] LocalPlayer looks at Semih Lafihna (ID: 17236319/0x0107015F)
 32: 0x02F1 [0x52] END_LOAD_SCHEDULER: End scheduler "s082" with entities [EventEntity, EventEntity], work=16*
 33: 0x0300 [0x45] LOAD_SCHEDULED_TASK: Load scheduler "ovl1" with entities [LocalPlayer, LocalPlayer], work=[200*, 0*]
 34: 0x0311 [0x45] LOAD_SCHEDULED_TASK: Load scheduler "s083" with entities [EventEntity, EventEntity], work=[16*, 0*]
 35: 0x0322 [0x29] REQ_SET_WAIT(priority=0x0B, entity_id=LocalPlayer, tag_num=0x08)
 36: 0x0329 [0x7B] Semih Lafihna (ID: 17236319/0x0107015F) stops talking
 37: 0x032E [0x29] REQ_SET_WAIT(priority=0x08, entity_id=Semih Lafihna (ID: 17236319/0x0107015F), tag_num=0x04)
 38: 0x0335 [0x29] REQ_SET_WAIT(priority=0x0B, entity_id=Semih Lafihna (ID: 17236319/0x0107015F), tag_num=0x33)
 39: 0x033C [0x29] REQ_SET_WAIT(priority=0x08, entity_id=Semih Lafihna (ID: 17236319/0x0107015F), tag_num=0x05)
 40: 0x0343 [0x52] END_LOAD_SCHEDULER: End scheduler "s083" with entities [EventEntity, EventEntity], work=16*
 41: 0x0352 [0x45] LOAD_SCHEDULED_TASK: Load scheduler "ovl1" with entities [LocalPlayer, LocalPlayer], work=[200*, 0*]
 42: 0x0363 [0x45] LOAD_SCHEDULED_TASK: Load scheduler "s084" with entities [EventEntity, EventEntity], work=[16*, 0*]
 43: 0x0374 [0x29] REQ_SET_WAIT(priority=0x08, entity_id=Semih Lafihna (ID: 17236319/0x0107015F), tag_num=0x26)
 44: 0x037B [0x29] REQ_SET_WAIT(priority=0x0B, entity_id=Semih Lafihna (ID: 17236319/0x0107015F), tag_num=0x34)
 45: 0x0382 [0x29] REQ_SET_WAIT(priority=0x08, entity_id=Semih Lafihna (ID: 17236319/0x0107015F), tag_num=0x27)
 46: 0x0389 [0x2B] Semih Lafihna (ID: 17236319/0x0107015F) [7747*]:
    → "It's a broken arrow, but it glows strangely in a way that I have never seen in Windurst, or anywhere else for that matter."
 47: 0x0390 [0x23] WAIT_FOR_DIALOG_INTERACTION
 48: 0x0391 [0x52] END_LOAD_SCHEDULER: End scheduler "s078" with entities [EventEntity, EventEntity], work=16*
 49: 0x03A0 [0x45] LOAD_SCHEDULED_TASK: Load scheduler "s085" with entities [EventEntity, EventEntity], work=[16*, 0*]
 50: 0x03B1 [0x29] REQ_SET_WAIT(priority=0x0B, entity_id=Semih Lafihna (ID: 17236319/0x0107015F), tag_num=0x35)
 51: 0x03B8 [0x52] END_LOAD_SCHEDULER: End scheduler "s085" with entities [EventEntity, EventEntity], work=16*
 52: 0x03C7 [0x45] LOAD_SCHEDULED_TASK: Load scheduler "s086" with entities [EventEntity, EventEntity], work=[16*, 0*]
 53: 0x03D8 [0x4B] UPDATE_ENTITY_YAW(entity=Semih Lafihna (ID: 17236319/0x0107015F), yaw=9.1°*)
 54: 0x03DF [0x6F] WAIT_FRAME_DELAY: Yield until WaitTime reaches zero
 55: 0x03E0 [0x76] CHECK_ENTITY_RENDER_FLAGS: Wait until Semih Lafihna (ID: 17236319/0x0107015F) Render.Flags0 and Render.Flags3 conditions are met
 56: 0x03E5 [0x27] REQ_SET(priority=0x0B, entity_id=Semih Lafihna (ID: 17236319/0x0107015F), tag_num=0x30)
 57: 0x03EC [0x2B] Semih Lafihna (ID: 17236319/0x0107015F) [7749*]:
    → "In any case, I must get closer to Castle Zvahl. Take care of yourself, <Player>."
 58: 0x03F3 [0x23] WAIT_FOR_DIALOG_INTERACTION
 59: 0x03F4 [0x1C] WAIT(200* ticks)
 60: 0x03F7 [0x45] LOAD_SCHEDULED_TASK: Load scheduler "fdo0" with entities [LocalPlayer, LocalPlayer], work=[200*, 0*]
 61: 0x0408 [0x1C] WAIT(300* ticks)
 62: 0x040B [0x2A] GET_REQ_LEVEL(level=11, entity_id=Semih Lafihna (ID: 17236319/0x0107015F))
 63: 0x0411 [0x52] END_LOAD_SCHEDULER: End scheduler "s086" with entities [EventEntity, EventEntity], work=16*
 64: 0x0420 [0x46] CAMERA_CONTROL: Restore default settings
 65: 0x0422 [0x45] LOAD_SCHEDULED_TASK: Load scheduler "fdi0" with entities [LocalPlayer, LocalPlayer], work=[200*, 0*]
 66: 0x0433 [0x20] SET_CLI_EVENT_UC_FLAG: Unlock player control
 67: 0x0435 [0x21] END_EVENT
 68: 0x0436 [0x00] END_REQSTACK()
```

### Event 6

#### Metadata

| Field        | Value      |
|--------------|------------|
| Entrypoint   | 0x0437     |
| Data Size    | 2616 bytes |
| Instructions | 270        |

```
      00 01 02 03 04 05 06 07  08 09 0A 0B 0C 0D 0E 0F
      -- -- -- -- -- -- -- --  -- -- -- -- -- -- -- --
0430:                      42  46 01 45 00 80 F8 FF FF         BF.E.....
0440: 7F F8 FF FF 7F 66 64 6F  31 03 80 1C 00 80 38 01  .....fdo1.....8.
0450: 80 29 08 F0 FF FF 7F 10  29 0B F0 FF FF 7F 0A 29  .)......)......)
0460: 0B 5F 01 07 01 38 4E 00  5F 01 07 01 4E 00 61 01  ._...8N._...N.a.
0470: 07 01 4E 01 60 01 07 01  80 5F 01 07 01 22 01 27  ..N.`...._...".'
0480: 0B 5F 01 07 01 3C 45 02  80 F8 FF FF 7F F8 FF FF  ._...<E.........
0490: 7F 73 30 38 37 03 80 45  00 80 F8 FF FF 7F F8 FF  .s087..E........
04A0: FF 7F 66 64 69 31 03 80  1C 0D 80 52 02 80 F8 FF  ..fdi1.....R....
04B0: FF 7F F8 FF FF 7F 73 30  38 37 45 02 80 F8 FF FF  ......s087E.....
04C0: 7F F8 FF FF 7F 73 30 38  38 03 80 1C 0E 80 52 02  .....s088.....R.
04D0: 80 F8 FF FF 7F F8 FF FF  7F 73 30 38 38 45 00 80  .........s088E..
04E0: F0 FF FF 7F F0 FF FF 7F  6F 76 6C 31 03 80 45 02  ........ovl1..E.
04F0: 80 F8 FF FF 7F F8 FF FF  7F 73 30 39 33 03 80 79  .........s093..y
0500: 00 5F 01 07 01 F0 FF FF  7F 2A 0B 5F 01 07 01 29  ._.......*._...)
0510: 0B 5F 01 07 01 3E 4A F0  FF FF 7F 5F 01 07 01 6F  ._...>J...._...o
0520: 76 F0 FF FF 7F 52 02 80  F8 FF FF 7F F8 FF FF 7F  v....R..........
0530: 73 30 39 33 45 02 80 F8  FF FF 7F F8 FF FF 7F 73  s093E..........s
0540: 30 38 39 03 80 4E 00 60  01 07 01 27 0B 5F 01 07  089..N.`...'._..
0550: 01 3D 1C 0F 80 4A F0 FF  FF 7F 5F 01 07 01 2B 5F  .=...J...._...+_
0560: 01 07 01 10 80 23 2A 0B  5F 01 07 01 80 60 01 07  .....#*._....`..
0570: 01 52 02 80 F8 FF FF 7F  F8 FF FF 7F 73 30 38 39  .R..........s089
0580: 5D 03 80 11 80 45 00 80  F8 FF FF 7F F8 FF FF 7F  ]....E..........
0590: 62 6C 6F 6E 03 80 45 12  80 F0 FF FF 7F F0 FF FF  blon..E.........
05A0: 7F 62 6C 6F 6E 03 80 45  02 80 F8 FF FF 7F F8 FF  .blon..E........
05B0: FF 7F 73 30 39 30 03 80  1C 13 80 62 14 80 60 01  ..s090.....b..`.
05C0: 07 01 60 01 07 01 6D 61  69 6E 03 80 37 15 80 16  ..`...main..7...
05D0: 80 17 80 18 80 4E 00 5E  01 07 01 29 0B 5F 01 07  .....N.^...)._..
05E0: 01 3B 27 0B 5F 01 07 01  13 4B F0 FF FF 7F 19 80  .;'._....K......
05F0: 2B 5F 01 07 01 1A 80 23  55 02 80 F8 FF FF 7F F8  +_.....#U.......
0600: FF FF 7F 73 30 39 30 45  00 80 F8 FF FF 7F F8 FF  ...s090E........
0610: FF 7F 62 6C 6F 66 03 80  4E 01 60 01 07 01 45 00  ..blof..N.`...E.
0620: 80 F0 FF FF 7F F0 FF FF  7F 6F 76 6C 31 03 80 45  .........ovl1..E
0630: 02 80 F8 FF FF 7F F8 FF  FF 7F 73 30 39 31 03 80  ..........s091..
0640: 62 1B 80 5E 01 07 01 5E  01 07 01 6D 61 69 6E 03  b..^...^...main.
0650: 80 79 00 F0 FF FF 7F 5E  01 07 01 79 00 5F 01 07  .y.....^...y._..
0660: 01 5E 01 07 01 1C 1C 80  45 12 80 F0 FF FF 7F F0  .^......E.......
0670: FF FF 7F 77 68 6F 31 03  80 1C 1C 80 37 1D 80 1E  ...who1.....7...
0680: 80 1F 80 20 80 29 0B 5F  01 07 01 39 4E 00 5F 01  ... .)._...9N._.
0690: 07 01 52 02 80 F8 FF FF  7F F8 FF FF 7F 73 30 39  ..R..........s09
06A0: 31 45 02 80 F8 FF FF 7F  F8 FF FF 7F 73 30 39 32  1E..........s092
06B0: 03 80 45 12 80 F0 FF FF  7F F0 FF FF 7F 77 68 69  ..E..........whi
06C0: 31 03 80 79 00 F0 FF FF  7F 60 01 07 01 2B 5F 01  1..y.....`...+_.
06D0: 07 01 21 80 23 2A 0B 5F  01 07 01 55 02 80 F8 FF  ..!.#*._...U....
06E0: FF 7F F8 FF FF 7F 73 30  39 32 27 0B 5F 01 07 01  ......s092'._...
06F0: 14 1C 22 80 45 12 80 F0  FF FF 7F F0 FF FF 7F 77  ..".E..........w
0700: 68 6F 31 03 80 1C 1C 80  52 02 80 F8 FF FF 7F F8  ho1.....R.......
0710: FF FF 7F 73 30 39 32 45  02 80 F8 FF FF 7F F8 FF  ...s092E........
0720: FF 7F 73 30 39 34 03 80  45 12 80 F0 FF FF 7F F0  ..s094..E.......
0730: FF FF 7F 77 68 69 31 03  80 27 0B 5F 01 07 01 13  ...whi1..'._....
0740: 4A F0 FF FF 7F 60 01 07  01 1C 23 80 62 24 80 5E  J....`....#.b$.^
0750: 01 07 01 5E 01 07 01 6D  61 69 6E 03 80 55 02 80  ...^...main..U..
0760: F8 FF FF 7F F8 FF FF 7F  73 30 39 34 29 0B 60 01  ........s094).`.
0770: 07 01 11 29 0B 60 01 07  01 12 2A 0B 5F 01 07 01  ...).`....*._...
0780: 45 02 80 F8 FF FF 7F F8  FF FF 7F 73 30 39 35 03  E..........s095.
0790: 80 22 01 4E 00 60 01 07  01 29 0B 5F 01 07 01 42  .".N.`...)._...B
07A0: 29 0B 5F 01 07 01 43 80  60 01 07 01 27 0B 60 01  )._...C.`...'.`.
07B0: 07 01 0A 1C 0F 80 52 02  80 F8 FF FF 7F F8 FF FF  ......R.........
07C0: 7F 73 30 39 35 45 02 80  F8 FF FF 7F F8 FF FF 7F  .s095E..........
07D0: 73 30 39 36 03 80 29 08  5F 01 07 01 28 1C 0E 80  s096..)._...(...
07E0: 2B 60 01 07 01 25 80 23  5C 00 26 80 5C 01 26 80  +`...%.#\.&.\.&.
07F0: 5D 27 80 28 80 1C 0E 80  52 02 80 F8 FF FF 7F F8  ]'.(....R.......
0800: FF FF 7F 73 30 39 36 45  00 80 F0 FF FF 7F F0 FF  ...s096E........
0810: FF 7F 6F 76 6C 31 03 80  45 02 80 F8 FF FF 7F F8  ..ovl1..E.......
0820: FF FF 7F 73 30 39 38 03  80 1C 1C 80 29 0B 5F 01  ...s098.....)._.
0830: 07 01 44 52 02 80 F8 FF  FF 7F F8 FF FF 7F 73 30  ..DR..........s0
0840: 39 38 45 00 80 F0 FF FF  7F F0 FF FF 7F 6F 76 6C  98E..........ovl
0850: 31 03 80 45 02 80 F8 FF  FF 7F F8 FF FF 7F 73 30  1..E..........s0
0860: 39 37 03 80 2B 60 01 07  01 29 80 23 2A 0B 60 01  97..+`...).#*.`.
0870: 07 01 29 0B 5F 01 07 01  45 52 02 80 F8 FF FF 7F  ..)._...ER......
0880: F8 FF FF 7F 73 30 39 37  45 00 80 F0 FF FF 7F F0  ....s097E.......
0890: FF FF 7F 6F 76 6C 31 03  80 45 02 80 F8 FF FF 7F  ...ovl1..E......
08A0: F8 FF FF 7F 73 30 39 39  03 80 29 08 60 01 07 01  ....s099..).`...
08B0: 01 29 0B 60 01 07 01 15  52 02 80 F8 FF FF 7F F8  .).`....R.......
08C0: FF FF 7F 73 30 39 39 45  00 80 F0 FF FF 7F F0 FF  ...s099E........
08D0: FF 7F 6F 76 6C 31 03 80  45 02 80 F8 FF FF 7F F8  ..ovl1..E.......
08E0: FF FF 7F 73 31 30 30 03  80 1C 2A 80 29 08 60 01  ...s100...*.).`.
08F0: 07 01 02 29 0B 60 01 07  01 16 45 00 80 F8 FF FF  ...).`....E.....
0900: 7F F8 FF FF 7F 66 64 6F  31 03 80 1C 11 80 77 01  .....fdo1.....w.
0910: 80 2B 80 29 0B 5F 01 07  01 3A 29 0B F0 FF FF 7F  .+.)._...:).....
0920: 0B 29 0B 60 01 07 01 09  79 00 F0 FF FF 7F 60 01  .).`....y.....`.
0930: 07 01 79 00 5F 01 07 01  60 01 07 01 52 02 80 F8  ..y._...`...R...
0940: FF FF 7F F8 FF FF 7F 73  31 30 30 1C 11 80 45 02  .......s100...E.
0950: 80 F8 FF FF 7F F8 FF FF  7F 73 31 30 36 03 80 45  .........s106..E
0960: 00 80 F8 FF FF 7F F8 FF  FF 7F 66 64 69 31 03 80  ..........fdi1..
0970: 1C 2C 80 52 02 80 F8 FF  FF 7F F8 FF FF 7F 73 31  .,.R..........s1
0980: 30 36 45 00 80 F0 FF FF  7F F0 FF FF 7F 6F 76 6C  06E..........ovl
0990: 31 03 80 45 02 80 F8 FF  FF 7F F8 FF FF 7F 73 31  1..E..........s1
09A0: 30 31 03 80 2B 60 01 07  01 2D 80 23 29 0B 60 01  01..+`...-.#).`.
09B0: 07 01 17 52 02 80 F8 FF  FF 7F F8 FF FF 7F 73 31  ...R..........s1
09C0: 30 31 45 00 80 F8 FF FF  7F F8 FF FF 7F 66 64 6F  01E..........fdo
09D0: 31 03 80 1C 11 80 45 02  80 F8 FF FF 7F F8 FF FF  1.....E.........
09E0: 7F 73 31 31 35 03 80 45  00 80 F8 FF FF 7F F8 FF  .s115..E........
09F0: FF 7F 66 64 69 31 03 80  27 0B 61 01 07 01 02 77  ..fdi1..'.a....w
0A00: 01 80 01 80 29 0B 60 01  07 01 18 37 2E 80 2F 80  ....).`....7../.
0A10: 30 80 31 80 52 02 80 F8  FF FF 7F F8 FF FF 7F 73  0.1.R..........s
0A20: 31 31 35 45 02 80 F8 FF  FF 7F F8 FF FF 7F 73 31  115E..........s1
0A30: 31 37 03 80 2A 0B 61 01  07 01 62 32 80 5E 01 07  17..*.a...b2.^..
0A40: 01 5E 01 07 01 6D 61 69  6E 03 80 79 00 61 01 07  .^...main..y.a..
0A50: 01 5E 01 07 01 1C 11 80  45 00 80 F8 FF FF 7F F8  .^......E.......
0A60: FF FF 7F 66 64 6F 31 03  80 1C 1C 80 52 02 80 F8  ...fdo1.....R...
0A70: FF FF 7F F8 FF FF 7F 73  31 31 37 45 02 80 F8 FF  .......s117E....
0A80: FF 7F F8 FF FF 7F 73 31  30 32 03 80 45 00 80 F8  ......s102..E...
0A90: FF FF 7F F8 FF FF 7F 66  64 69 31 03 80 29 0B 60  .......fdi1..).`
0AA0: 01 07 01 19 29 0B 60 01  07 01 1A 52 02 80 F8 FF  ....).`....R....
0AB0: FF 7F F8 FF FF 7F 73 31  30 32 45 00 80 F0 FF FF  ......s102E.....
0AC0: 7F F0 FF FF 7F 6F 76 6C  31 03 80 45 02 80 F8 FF  .....ovl1..E....
0AD0: FF 7F F8 FF FF 7F 73 31  30 33 03 80 29 08 60 01  ......s103..).`.
0AE0: 07 01 01 29 0B 60 01 07  01 1B 29 0B 60 01 07 01  ...).`....).`...
0AF0: 1C 45 00 80 F8 FF FF 7F  F8 FF FF 7F 66 64 6F 31  .E..........fdo1
0B00: 03 80 1C 1C 80 29 08 60  01 07 01 02 52 02 80 F8  .....).`....R...
0B10: FF FF 7F F8 FF FF 7F 73  31 30 33 29 0B 60 01 07  .......s103).`..
0B20: 01 1D 29 0B 60 01 07 01  1E 45 02 80 F8 FF FF 7F  ..).`....E......
0B30: F8 FF FF 7F 73 31 30 34  03 80 45 00 80 F8 FF FF  ....s104..E.....
0B40: 7F F8 FF FF 7F 66 64 69  31 03 80 77 01 80 33 80  .....fdi1..w..3.
0B50: 29 0B 5F 01 07 01 46 52  02 80 F8 FF FF 7F F8 FF  )._...FR........
0B60: FF 7F 73 31 30 34 45 00  80 F0 FF FF 7F F0 FF FF  ..s104E.........
0B70: 7F 6F 76 6C 31 03 80 45  02 80 F8 FF FF 7F F8 FF  .ovl1..E........
0B80: FF 7F 73 31 30 35 03 80  29 0B 60 01 07 01 1F 29  ..s105..).`....)
0B90: 0B 60 01 07 01 20 45 12  80 F0 FF FF 7F F0 FF FF  .`... E.........
0BA0: 7F 77 68 6F 31 03 80 1C  1C 80 52 02 80 F8 FF FF  .who1.....R.....
0BB0: 7F F8 FF FF 7F 73 31 30  35 45 00 80 F8 FF FF 7F  .....s105E......
0BC0: F8 FF FF 7F 66 64 6F 31  03 80 1C 1C 80 29 0B 5F  ....fdo1.....)._
0BD0: 01 07 01 47 45 12 80 F0  FF FF 7F F0 FF FF 7F 77  ...GE..........w
0BE0: 68 69 31 03 80 1C 1C 80  45 02 80 F8 FF FF 7F F8  hi1.....E.......
0BF0: FF FF 7F 73 31 30 37 03  80 45 00 80 F8 FF FF 7F  ...s107..E......
0C00: F8 FF FF 7F 66 64 69 31  03 80 29 0B 60 01 07 01  ....fdi1..).`...
0C10: 21 52 02 80 F8 FF FF 7F  F8 FF FF 7F 73 31 30 37  !R..........s107
0C20: 45 00 80 F8 FF FF 7F F8  FF FF 7F 66 64 6F 31 03  E..........fdo1.
0C30: 80 1C 1C 80 45 02 80 F8  FF FF 7F F8 FF FF 7F 73  ....E..........s
0C40: 31 30 38 03 80 45 00 80  F8 FF FF 7F F8 FF FF 7F  108..E..........
0C50: 66 64 69 31 03 80 29 0B  60 01 07 01 22 45 00 80  fdi1..).`..."E..
0C60: F8 FF FF 7F F8 FF FF 7F  66 64 6F 31 03 80 1C 0E  ........fdo1....
0C70: 80 77 01 80 2B 80 79 00  60 01 07 01 5F 01 07 01  .w..+.y.`..._...
0C80: 52 02 80 F8 FF FF 7F F8  FF FF 7F 73 31 30 38 45  R..........s108E
0C90: 02 80 F8 FF FF 7F F8 FF  FF 7F 73 31 30 39 03 80  ..........s109..
0CA0: 45 00 80 F8 FF FF 7F F8  FF FF 7F 66 64 69 31 03  E..........fdi1.
0CB0: 80 29 0B 5F 01 07 01 48  29 0B 60 01 07 01 23 52  .)._...H).`...#R
0CC0: 02 80 F8 FF FF 7F F8 FF  FF 7F 73 31 30 39 45 02  ..........s109E.
0CD0: 80 F8 FF FF 7F F8 FF FF  7F 73 31 31 36 03 80 29  .........s116..)
0CE0: 08 60 01 07 01 01 29 0B  60 01 07 01 24 29 08 60  .`....).`...$).`
0CF0: 01 07 01 02 29 0B 5F 01  07 01 49 52 02 80 F8 FF  ....)._...IR....
0D00: FF 7F F8 FF FF 7F 73 31  31 36 45 02 80 F8 FF FF  ......s116E.....
0D10: 7F F8 FF FF 7F 73 31 31  30 03 80 29 0B 60 01 07  .....s110..).`..
0D20: 01 25 52 02 80 F8 FF FF  7F F8 FF FF 7F 73 31 31  .%R..........s11
0D30: 30 45 02 80 F8 FF FF 7F  F8 FF FF 7F 73 31 31 31  0E..........s111
0D40: 03 80 29 0B 60 01 07 01  26 29 0B 60 01 07 01 27  ..).`...&).`...'
0D50: 29 0B 5F 01 07 01 4A 52  02 80 F8 FF FF 7F F8 FF  )._...JR........
0D60: FF 7F 73 31 31 31 45 02  80 F8 FF FF 7F F8 FF FF  ..s111E.........
0D70: 7F 73 31 31 32 03 80 29  0B 60 01 07 01 0C 29 08  .s112..).`....).
0D80: 60 01 07 01 03 29 0B 60  01 07 01 28 29 08 60 01  `....).`...().`.
0D90: 07 01 04 52 02 80 F8 FF  FF 7F F8 FF FF 7F 73 31  ...R..........s1
0DA0: 31 32 45 02 80 F8 FF FF  7F F8 FF FF 7F 73 31 31  12E..........s11
0DB0: 34 03 80 29 08 60 01 07  01 03 29 0B 60 01 07 01  4..).`....).`...
0DC0: 29 29 08 60 01 07 01 04  29 0B 60 01 07 01 2A 29  )).`....).`...*)
0DD0: 08 5F 01 07 01 0C 29 0B  5F 01 07 01 4B 29 08 5F  ._....)._...K)._
0DE0: 01 07 01 0D 52 02 80 F8  FF FF 7F F8 FF FF 7F 73  ....R..........s
0DF0: 31 31 34 45 02 80 F8 FF  FF 7F F8 FF FF 7F 73 31  114E..........s1
0E00: 31 33 03 80 2B 60 01 07  01 34 80 23 1C 04 80 27  13..+`...4.#...'
0E10: 0B 60 01 07 01 0D 1C 11  80 5D 03 80 00 80 45 00  .`.......]....E.
0E20: 80 F0 FF FF 7F F0 FF FF  7F 66 64 6F 30 03 80 1C  .........fdo0...
0E30: 0B 80 78 2A 0B 60 01 07  01 52 02 80 F8 FF FF 7F  ..x*.`...R......
0E40: F8 FF FF 7F 73 31 31 33  5C 00 35 80 5C 01 35 80  ....s113\.5.\.5.
0E50: 5D 27 80 28 80 46 00 1C  00 80 45 00 80 F0 FF FF  ]'.(.F....E.....
0E60: 7F F0 FF FF 7F 66 64 69  30 03 80 20 00 21 00     .....fdi0.. .!. 
```

#### Opcodes

```
  0: 0x0437 [0x42] SET_CLI_EVENT_CANCEL_DATA()
  1: 0x0438 [0x46] CAMERA_CONTROL: Disable user control
  2: 0x043A [0x45] LOAD_SCHEDULED_TASK: Load scheduler "fdo1" with entities [EventEntity, EventEntity], work=[200*, 0*]
  3: 0x044B [0x1C] WAIT(200* ticks)
  4: 0x044E [0x38] SET_CLIENT_EVENT_MODE(mode=19*)
  5: 0x0451 [0x29] REQ_SET_WAIT(priority=0x08, entity_id=LocalPlayer, tag_num=0x10)
  6: 0x0458 [0x29] REQ_SET_WAIT(priority=0x0B, entity_id=LocalPlayer, tag_num=0x0A)
  7: 0x045F [0x29] REQ_SET_WAIT(priority=0x0B, entity_id=Semih Lafihna (ID: 17236319/0x0107015F), tag_num=0x38)
  8: 0x0466 [0x4E] SET_ENTITY_HIDE_FLAG: Show Semih Lafihna (ID: 17236319/0x0107015F)
  9: 0x046C [0x4E] SET_ENTITY_HIDE_FLAG: Show Yow Rabntah (ID: 17236321/0x01070161)
 10: 0x0472 [0x4E] SET_ENTITY_HIDE_FLAG: Hide Syu Befrathi (ID: 17236320/0x01070160)
 11: 0x0478 [0x80] LOAD_WAIT(entity=Semih Lafihna (ID: 17236319/0x0107015F))
 12: 0x047D [0x22] ENTITY_HIDE_FLAG(enabled=0x01)
 13: 0x047F [0x27] REQ_SET(priority=0x0B, entity_id=Semih Lafihna (ID: 17236319/0x0107015F), tag_num=0x3C)
 14: 0x0486 [0x45] LOAD_SCHEDULED_TASK: Load scheduler "s087" with entities [EventEntity, EventEntity], work=[16*, 0*]
 15: 0x0497 [0x45] LOAD_SCHEDULED_TASK: Load scheduler "fdi1" with entities [EventEntity, EventEntity], work=[200*, 0*]
 16: 0x04A8 [0x1C] WAIT(180* ticks)
 17: 0x04AB [0x52] END_LOAD_SCHEDULER: End scheduler "s087" with entities [EventEntity, EventEntity], work=16*
 18: 0x04BA [0x45] LOAD_SCHEDULED_TASK: Load scheduler "s088" with entities [EventEntity, EventEntity], work=[16*, 0*]
 19: 0x04CB [0x1C] WAIT(90* ticks)
 20: 0x04CE [0x52] END_LOAD_SCHEDULER: End scheduler "s088" with entities [EventEntity, EventEntity], work=16*
 21: 0x04DD [0x45] LOAD_SCHEDULED_TASK: Load scheduler "ovl1" with entities [LocalPlayer, LocalPlayer], work=[200*, 0*]
 22: 0x04EE [0x45] LOAD_SCHEDULED_TASK: Load scheduler "s093" with entities [EventEntity, EventEntity], work=[16*, 0*]
 23: 0x04FF [0x79] Semih Lafihna (ID: 17236319/0x0107015F) looks at LocalPlayer (Basic look)
 24: 0x0509 [0x2A] GET_REQ_LEVEL(level=11, entity_id=Semih Lafihna (ID: 17236319/0x0107015F))
 25: 0x050F [0x29] REQ_SET_WAIT(priority=0x0B, entity_id=Semih Lafihna (ID: 17236319/0x0107015F), tag_num=0x3E)
 26: 0x0516 [0x4A] LocalPlayer looks at Semih Lafihna (ID: 17236319/0x0107015F)
 27: 0x051F [0x6F] WAIT_FRAME_DELAY: Yield until WaitTime reaches zero
 28: 0x0520 [0x76] CHECK_ENTITY_RENDER_FLAGS: Wait until LocalPlayer Render.Flags0 and Render.Flags3 conditions are met
 29: 0x0525 [0x52] END_LOAD_SCHEDULER: End scheduler "s093" with entities [EventEntity, EventEntity], work=16*
 30: 0x0534 [0x45] LOAD_SCHEDULED_TASK: Load scheduler "s089" with entities [EventEntity, EventEntity], work=[16*, 0*]
 31: 0x0545 [0x4E] SET_ENTITY_HIDE_FLAG: Show Syu Befrathi (ID: 17236320/0x01070160)
 32: 0x054B [0x27] REQ_SET(priority=0x0B, entity_id=Semih Lafihna (ID: 17236319/0x0107015F), tag_num=0x3D)
 33: 0x0552 [0x1C] WAIT(30* ticks)
 34: 0x0555 [0x4A] LocalPlayer looks at Semih Lafihna (ID: 17236319/0x0107015F)
 35: 0x055E [0x2B] Semih Lafihna (ID: 17236319/0x0107015F) [7751*]:
    → "I can't imagine that anyone would be in there, but still, there's something... I feel some sort of prrresence from within."
 36: 0x0565 [0x23] WAIT_FOR_DIALOG_INTERACTION
 37: 0x0566 [0x2A] GET_REQ_LEVEL(level=11, entity_id=Semih Lafihna (ID: 17236319/0x0107015F))
 38: 0x056C [0x80] LOAD_WAIT(entity=Syu Befrathi (ID: 17236320/0x01070160))
 39: 0x0571 [0x52] END_LOAD_SCHEDULER: End scheduler "s089" with entities [EventEntity, EventEntity], work=16*
 40: 0x0580 [0x5D] SET_MUSIC_VOLUME(volume=0*, fade_time=100*)
 41: 0x0585 [0x45] LOAD_SCHEDULED_TASK: Load scheduler "blon" with entities [EventEntity, EventEntity], work=[200*, 0*]
 42: 0x0596 [0x45] LOAD_SCHEDULED_TASK: Load scheduler "blon" with entities [LocalPlayer, LocalPlayer], work=[201*, 0*]
 43: 0x05A7 [0x45] LOAD_SCHEDULED_TASK: Load scheduler "s090" with entities [EventEntity, EventEntity], work=[16*, 0*]
 44: 0x05B8 [0x1C] WAIT(20* ticks)
 45: 0x05BB [0x62] LOAD_EVENT_SCHEDULER: Load scheduler "main" with entities [Syu Befrathi (ID: 17236320/0x01070160), Syu Befrathi (ID: 17236320/0x01070160)], work=[31*, 0*]
 46: 0x05CC [0x37] UPDATE_EVENT_POSITION_AND_DIR: x=-254.400*, z=-146.285*, y=-14.849*, direction=173.4°*
 47: 0x05D5 [0x4E] SET_ENTITY_HIDE_FLAG: Show ??? (ID: 17236318/0x0107015E)
 48: 0x05DB [0x29] REQ_SET_WAIT(priority=0x0B, entity_id=Semih Lafihna (ID: 17236319/0x0107015F), tag_num=0x3B)
 49: 0x05E2 [0x27] REQ_SET(priority=0x0B, entity_id=Semih Lafihna (ID: 17236319/0x0107015F), tag_num=0x13)
 50: 0x05E9 [0x4B] UPDATE_ENTITY_YAW(entity=LocalPlayer, yaw=7.1°*)
 51: 0x05F0 [0x2B] Semih Lafihna (ID: 17236319/0x0107015F) [7752*]:
    → "...!"
 52: 0x05F7 [0x23] WAIT_FOR_DIALOG_INTERACTION
 53: 0x05F8 [0x55] WAIT_LOAD_SCHEDULER: Wait for scheduler "s090" with entities [EventEntity, EventEntity], work=16*
 54: 0x0607 [0x45] LOAD_SCHEDULED_TASK: Load scheduler "blof" with entities [EventEntity, EventEntity], work=[200*, 0*]
 55: 0x0618 [0x4E] SET_ENTITY_HIDE_FLAG: Hide Syu Befrathi (ID: 17236320/0x01070160)
 56: 0x061E [0x45] LOAD_SCHEDULED_TASK: Load scheduler "ovl1" with entities [LocalPlayer, LocalPlayer], work=[200*, 0*]
 57: 0x062F [0x45] LOAD_SCHEDULED_TASK: Load scheduler "s091" with entities [EventEntity, EventEntity], work=[16*, 0*]
 58: 0x0640 [0x62] LOAD_EVENT_SCHEDULER: Load scheduler "main" with entities [??? (ID: 17236318/0x0107015E), ??? (ID: 17236318/0x0107015E)], work=[33*, 0*]
 59: 0x0651 [0x79] LocalPlayer looks at ??? (ID: 17236318/0x0107015E) (Basic look)
 60: 0x065B [0x79] Semih Lafihna (ID: 17236319/0x0107015F) looks at ??? (ID: 17236318/0x0107015E) (Basic look)
 61: 0x0665 [0x1C] WAIT(60* ticks)
 62: 0x0668 [0x45] LOAD_SCHEDULED_TASK: Load scheduler "who1" with entities [LocalPlayer, LocalPlayer], work=[201*, 0*]
 63: 0x0679 [0x1C] WAIT(60* ticks)
 64: 0x067C [0x37] UPDATE_EVENT_POSITION_AND_DIR: x=-255.214*, z=-150.973*, y=-19.000*, direction=90.0°*
 65: 0x0685 [0x29] REQ_SET_WAIT(priority=0x0B, entity_id=Semih Lafihna (ID: 17236319/0x0107015F), tag_num=0x39)
 66: 0x068C [0x4E] SET_ENTITY_HIDE_FLAG: Show Semih Lafihna (ID: 17236319/0x0107015F)
 67: 0x0692 [0x52] END_LOAD_SCHEDULER: End scheduler "s091" with entities [EventEntity, EventEntity], work=16*
 68: 0x06A1 [0x45] LOAD_SCHEDULED_TASK: Load scheduler "s092" with entities [EventEntity, EventEntity], work=[16*, 0*]
 69: 0x06B2 [0x45] LOAD_SCHEDULED_TASK: Load scheduler "whi1" with entities [LocalPlayer, LocalPlayer], work=[201*, 0*]
 70: 0x06C3 [0x79] LocalPlayer looks at Syu Befrathi (ID: 17236320/0x01070160) (Basic look)
 71: 0x06CD [0x2B] Semih Lafihna (ID: 17236319/0x0107015F) [7753*]:
    → "Who's there!?"
 72: 0x06D4 [0x23] WAIT_FOR_DIALOG_INTERACTION
 73: 0x06D5 [0x2A] GET_REQ_LEVEL(level=11, entity_id=Semih Lafihna (ID: 17236319/0x0107015F))
 74: 0x06DB [0x55] WAIT_LOAD_SCHEDULER: Wait for scheduler "s092" with entities [EventEntity, EventEntity], work=16*
 75: 0x06EA [0x27] REQ_SET(priority=0x0B, entity_id=Semih Lafihna (ID: 17236319/0x0107015F), tag_num=0x14)
 76: 0x06F1 [0x1C] WAIT(10* ticks)
 77: 0x06F4 [0x45] LOAD_SCHEDULED_TASK: Load scheduler "who1" with entities [LocalPlayer, LocalPlayer], work=[201*, 0*]
 78: 0x0705 [0x1C] WAIT(60* ticks)
 79: 0x0708 [0x52] END_LOAD_SCHEDULER: End scheduler "s092" with entities [EventEntity, EventEntity], work=16*
 80: 0x0717 [0x45] LOAD_SCHEDULED_TASK: Load scheduler "s094" with entities [EventEntity, EventEntity], work=[16*, 0*]
 81: 0x0728 [0x45] LOAD_SCHEDULED_TASK: Load scheduler "whi1" with entities [LocalPlayer, LocalPlayer], work=[201*, 0*]
 82: 0x0739 [0x27] REQ_SET(priority=0x0B, entity_id=Semih Lafihna (ID: 17236319/0x0107015F), tag_num=0x13)
 83: 0x0740 [0x4A] LocalPlayer looks at Syu Befrathi (ID: 17236320/0x01070160)
 84: 0x0749 [0x1C] WAIT(40* ticks)
 85: 0x074C [0x62] LOAD_EVENT_SCHEDULER: Load scheduler "main" with entities [??? (ID: 17236318/0x0107015E), ??? (ID: 17236318/0x0107015E)], work=[32*, 0*]
 86: 0x075D [0x55] WAIT_LOAD_SCHEDULER: Wait for scheduler "s094" with entities [EventEntity, EventEntity], work=16*
 87: 0x076C [0x29] REQ_SET_WAIT(priority=0x0B, entity_id=Syu Befrathi (ID: 17236320/0x01070160), tag_num=0x11)
 88: 0x0773 [0x29] REQ_SET_WAIT(priority=0x0B, entity_id=Syu Befrathi (ID: 17236320/0x01070160), tag_num=0x12)
 89: 0x077A [0x2A] GET_REQ_LEVEL(level=11, entity_id=Semih Lafihna (ID: 17236319/0x0107015F))
 90: 0x0780 [0x45] LOAD_SCHEDULED_TASK: Load scheduler "s095" with entities [EventEntity, EventEntity], work=[16*, 0*]
 91: 0x0791 [0x22] ENTITY_HIDE_FLAG(enabled=0x01)
 92: 0x0793 [0x4E] SET_ENTITY_HIDE_FLAG: Show Syu Befrathi (ID: 17236320/0x01070160)
 93: 0x0799 [0x29] REQ_SET_WAIT(priority=0x0B, entity_id=Semih Lafihna (ID: 17236319/0x0107015F), tag_num=0x42)
 94: 0x07A0 [0x29] REQ_SET_WAIT(priority=0x0B, entity_id=Semih Lafihna (ID: 17236319/0x0107015F), tag_num=0x43)
 95: 0x07A7 [0x80] LOAD_WAIT(entity=Syu Befrathi (ID: 17236320/0x01070160))
 96: 0x07AC [0x27] REQ_SET(priority=0x0B, entity_id=Syu Befrathi (ID: 17236320/0x01070160), tag_num=0x0A)
 97: 0x07B3 [0x1C] WAIT(30* ticks)
 98: 0x07B6 [0x52] END_LOAD_SCHEDULER: End scheduler "s095" with entities [EventEntity, EventEntity], work=16*
 99: 0x07C5 [0x45] LOAD_SCHEDULED_TASK: Load scheduler "s096" with entities [EventEntity, EventEntity], work=[16*, 0*]
100: 0x07D6 [0x29] REQ_SET_WAIT(priority=0x08, entity_id=Semih Lafihna (ID: 17236319/0x0107015F), tag_num=0x28)
101: 0x07DD [0x1C] WAIT(90* ticks)
102: 0x07E0 [0x2B] Syu Befrathi (ID: 17236320/0x01070160) [7758*]:
    → "...... Semih Lafihna..."
103: 0x07E7 [0x23] WAIT_FOR_DIALOG_INTERACTION
104: 0x07E8 [0x5C] MUSIC_CONTROL: Set Idle (Day) music to song 159*
105: 0x07EC [0x5C] MUSIC_CONTROL: Set Idle (Night) music to song 159*
106: 0x07F0 [0x5D] SET_MUSIC_VOLUME(volume=127*, fade_time=1*)
107: 0x07F5 [0x1C] WAIT(90* ticks)
108: 0x07F8 [0x52] END_LOAD_SCHEDULER: End scheduler "s096" with entities [EventEntity, EventEntity], work=16*
109: 0x0807 [0x45] LOAD_SCHEDULED_TASK: Load scheduler "ovl1" with entities [LocalPlayer, LocalPlayer], work=[200*, 0*]
110: 0x0818 [0x45] LOAD_SCHEDULED_TASK: Load scheduler "s098" with entities [EventEntity, EventEntity], work=[16*, 0*]
111: 0x0829 [0x1C] WAIT(60* ticks)
112: 0x082C [0x29] REQ_SET_WAIT(priority=0x0B, entity_id=Semih Lafihna (ID: 17236319/0x0107015F), tag_num=0x44)
113: 0x0833 [0x52] END_LOAD_SCHEDULER: End scheduler "s098" with entities [EventEntity, EventEntity], work=16*
114: 0x0842 [0x45] LOAD_SCHEDULED_TASK: Load scheduler "ovl1" with entities [LocalPlayer, LocalPlayer], work=[200*, 0*]
115: 0x0853 [0x45] LOAD_SCHEDULED_TASK: Load scheduler "s097" with entities [EventEntity, EventEntity], work=[16*, 0*]
116: 0x0864 [0x2B] Syu Befrathi (ID: 17236320/0x01070160) [7760*]:
    → "Yes. I am the daughter of Nhev Befrathi, the Fire Tribe chieftainness. I am Syu Befrathi."
117: 0x086B [0x23] WAIT_FOR_DIALOG_INTERACTION
118: 0x086C [0x2A] GET_REQ_LEVEL(level=11, entity_id=Syu Befrathi (ID: 17236320/0x01070160))
119: 0x0872 [0x29] REQ_SET_WAIT(priority=0x0B, entity_id=Semih Lafihna (ID: 17236319/0x0107015F), tag_num=0x45)
120: 0x0879 [0x52] END_LOAD_SCHEDULER: End scheduler "s097" with entities [EventEntity, EventEntity], work=16*
121: 0x0888 [0x45] LOAD_SCHEDULED_TASK: Load scheduler "ovl1" with entities [LocalPlayer, LocalPlayer], work=[200*, 0*]
122: 0x0899 [0x45] LOAD_SCHEDULED_TASK: Load scheduler "s099" with entities [EventEntity, EventEntity], work=[16*, 0*]
123: 0x08AA [0x29] REQ_SET_WAIT(priority=0x08, entity_id=Syu Befrathi (ID: 17236320/0x01070160), tag_num=0x01)
124: 0x08B1 [0x29] REQ_SET_WAIT(priority=0x0B, entity_id=Syu Befrathi (ID: 17236320/0x01070160), tag_num=0x15)
125: 0x08B8 [0x52] END_LOAD_SCHEDULER: End scheduler "s099" with entities [EventEntity, EventEntity], work=16*
126: 0x08C7 [0x45] LOAD_SCHEDULED_TASK: Load scheduler "ovl1" with entities [LocalPlayer, LocalPlayer], work=[200*, 0*]
127: 0x08D8 [0x45] LOAD_SCHEDULED_TASK: Load scheduler "s100" with entities [EventEntity, EventEntity], work=[16*, 0*]
128: 0x08E9 [0x1C] WAIT(80* ticks)
129: 0x08EC [0x29] REQ_SET_WAIT(priority=0x08, entity_id=Syu Befrathi (ID: 17236320/0x01070160), tag_num=0x02)
130: 0x08F3 [0x29] REQ_SET_WAIT(priority=0x0B, entity_id=Syu Befrathi (ID: 17236320/0x01070160), tag_num=0x16)
131: 0x08FA [0x45] LOAD_SCHEDULED_TASK: Load scheduler "fdo1" with entities [EventEntity, EventEntity], work=[200*, 0*]
132: 0x090B [0x1C] WAIT(100* ticks)
133: 0x090E [0x77] SET_EVENT_TIME_WEATHER(hour=19*, weather=2*)
134: 0x0913 [0x29] REQ_SET_WAIT(priority=0x0B, entity_id=Semih Lafihna (ID: 17236319/0x0107015F), tag_num=0x3A)
135: 0x091A [0x29] REQ_SET_WAIT(priority=0x0B, entity_id=LocalPlayer, tag_num=0x0B)
136: 0x0921 [0x29] REQ_SET_WAIT(priority=0x0B, entity_id=Syu Befrathi (ID: 17236320/0x01070160), tag_num=0x09)
137: 0x0928 [0x79] LocalPlayer looks at Syu Befrathi (ID: 17236320/0x01070160) (Basic look)
138: 0x0932 [0x79] Semih Lafihna (ID: 17236319/0x0107015F) looks at Syu Befrathi (ID: 17236320/0x01070160) (Basic look)
139: 0x093C [0x52] END_LOAD_SCHEDULER: End scheduler "s100" with entities [EventEntity, EventEntity], work=16*
140: 0x094B [0x1C] WAIT(100* ticks)
141: 0x094E [0x45] LOAD_SCHEDULED_TASK: Load scheduler "s106" with entities [EventEntity, EventEntity], work=[16*, 0*]
142: 0x095F [0x45] LOAD_SCHEDULED_TASK: Load scheduler "fdi1" with entities [EventEntity, EventEntity], work=[200*, 0*]
143: 0x0970 [0x1C] WAIT(260* ticks)
144: 0x0973 [0x52] END_LOAD_SCHEDULER: End scheduler "s106" with entities [EventEntity, EventEntity], work=16*
145: 0x0982 [0x45] LOAD_SCHEDULED_TASK: Load scheduler "ovl1" with entities [LocalPlayer, LocalPlayer], work=[200*, 0*]
146: 0x0993 [0x45] LOAD_SCHEDULED_TASK: Load scheduler "s101" with entities [EventEntity, EventEntity], work=[16*, 0*]
147: 0x09A4 [0x2B] Syu Befrathi (ID: 17236320/0x01070160) [7764*]:
    → "...I will tell you what you wish to know. First, let me speak of the Bow of Light..."
148: 0x09AB [0x23] WAIT_FOR_DIALOG_INTERACTION
149: 0x09AC [0x29] REQ_SET_WAIT(priority=0x0B, entity_id=Syu Befrathi (ID: 17236320/0x01070160), tag_num=0x17)
150: 0x09B3 [0x52] END_LOAD_SCHEDULER: End scheduler "s101" with entities [EventEntity, EventEntity], work=16*
151: 0x09C2 [0x45] LOAD_SCHEDULED_TASK: Load scheduler "fdo1" with entities [EventEntity, EventEntity], work=[200*, 0*]
152: 0x09D3 [0x1C] WAIT(100* ticks)
153: 0x09D6 [0x45] LOAD_SCHEDULED_TASK: Load scheduler "s115" with entities [EventEntity, EventEntity], work=[16*, 0*]
154: 0x09E7 [0x45] LOAD_SCHEDULED_TASK: Load scheduler "fdi1" with entities [EventEntity, EventEntity], work=[200*, 0*]
155: 0x09F8 [0x27] REQ_SET(priority=0x0B, entity_id=Yow Rabntah (ID: 17236321/0x01070161), tag_num=0x02)
156: 0x09FF [0x77] SET_EVENT_TIME_WEATHER(hour=19*, weather=19*)
157: 0x0A04 [0x29] REQ_SET_WAIT(priority=0x0B, entity_id=Syu Befrathi (ID: 17236320/0x01070160), tag_num=0x18)
158: 0x0A0B [0x37] UPDATE_EVENT_POSITION_AND_DIR: x=-257.736*, z=65.589*, y=0.698*, direction=111.5°*
159: 0x0A14 [0x52] END_LOAD_SCHEDULER: End scheduler "s115" with entities [EventEntity, EventEntity], work=16*
160: 0x0A23 [0x45] LOAD_SCHEDULED_TASK: Load scheduler "s117" with entities [EventEntity, EventEntity], work=[16*, 0*]
161: 0x0A34 [0x2A] GET_REQ_LEVEL(level=11, entity_id=Yow Rabntah (ID: 17236321/0x01070161))
162: 0x0A3A [0x62] LOAD_EVENT_SCHEDULER: Load scheduler "main" with entities [??? (ID: 17236318/0x0107015E), ??? (ID: 17236318/0x0107015E)], work=[3*, 0*]
163: 0x0A4B [0x79] Yow Rabntah (ID: 17236321/0x01070161) looks at ??? (ID: 17236318/0x0107015E) (Basic look)
164: 0x0A55 [0x1C] WAIT(100* ticks)
165: 0x0A58 [0x45] LOAD_SCHEDULED_TASK: Load scheduler "fdo1" with entities [EventEntity, EventEntity], work=[200*, 0*]
166: 0x0A69 [0x1C] WAIT(60* ticks)
167: 0x0A6C [0x52] END_LOAD_SCHEDULER: End scheduler "s117" with entities [EventEntity, EventEntity], work=16*
168: 0x0A7B [0x45] LOAD_SCHEDULED_TASK: Load scheduler "s102" with entities [EventEntity, EventEntity], work=[16*, 0*]
169: 0x0A8C [0x45] LOAD_SCHEDULED_TASK: Load scheduler "fdi1" with entities [EventEntity, EventEntity], work=[200*, 0*]
170: 0x0A9D [0x29] REQ_SET_WAIT(priority=0x0B, entity_id=Syu Befrathi (ID: 17236320/0x01070160), tag_num=0x19)
171: 0x0AA4 [0x29] REQ_SET_WAIT(priority=0x0B, entity_id=Syu Befrathi (ID: 17236320/0x01070160), tag_num=0x1A)
172: 0x0AAB [0x52] END_LOAD_SCHEDULER: End scheduler "s102" with entities [EventEntity, EventEntity], work=16*
173: 0x0ABA [0x45] LOAD_SCHEDULED_TASK: Load scheduler "ovl1" with entities [LocalPlayer, LocalPlayer], work=[200*, 0*]
174: 0x0ACB [0x45] LOAD_SCHEDULED_TASK: Load scheduler "s103" with entities [EventEntity, EventEntity], work=[16*, 0*]
175: 0x0ADC [0x29] REQ_SET_WAIT(priority=0x08, entity_id=Syu Befrathi (ID: 17236320/0x01070160), tag_num=0x01)
176: 0x0AE3 [0x29] REQ_SET_WAIT(priority=0x0B, entity_id=Syu Befrathi (ID: 17236320/0x01070160), tag_num=0x1B)
177: 0x0AEA [0x29] REQ_SET_WAIT(priority=0x0B, entity_id=Syu Befrathi (ID: 17236320/0x01070160), tag_num=0x1C)
178: 0x0AF1 [0x45] LOAD_SCHEDULED_TASK: Load scheduler "fdo1" with entities [EventEntity, EventEntity], work=[200*, 0*]
179: 0x0B02 [0x1C] WAIT(60* ticks)
180: 0x0B05 [0x29] REQ_SET_WAIT(priority=0x08, entity_id=Syu Befrathi (ID: 17236320/0x01070160), tag_num=0x02)
181: 0x0B0C [0x52] END_LOAD_SCHEDULER: End scheduler "s103" with entities [EventEntity, EventEntity], work=16*
182: 0x0B1B [0x29] REQ_SET_WAIT(priority=0x0B, entity_id=Syu Befrathi (ID: 17236320/0x01070160), tag_num=0x1D)
183: 0x0B22 [0x29] REQ_SET_WAIT(priority=0x0B, entity_id=Syu Befrathi (ID: 17236320/0x01070160), tag_num=0x1E)
184: 0x0B29 [0x45] LOAD_SCHEDULED_TASK: Load scheduler "s104" with entities [EventEntity, EventEntity], work=[16*, 0*]
185: 0x0B3A [0x45] LOAD_SCHEDULED_TASK: Load scheduler "fdi1" with entities [EventEntity, EventEntity], work=[200*, 0*]
186: 0x0B4B [0x77] SET_EVENT_TIME_WEATHER(hour=19*, weather=18*)
187: 0x0B50 [0x29] REQ_SET_WAIT(priority=0x0B, entity_id=Semih Lafihna (ID: 17236319/0x0107015F), tag_num=0x46)
188: 0x0B57 [0x52] END_LOAD_SCHEDULER: End scheduler "s104" with entities [EventEntity, EventEntity], work=16*
189: 0x0B66 [0x45] LOAD_SCHEDULED_TASK: Load scheduler "ovl1" with entities [LocalPlayer, LocalPlayer], work=[200*, 0*]
190: 0x0B77 [0x45] LOAD_SCHEDULED_TASK: Load scheduler "s105" with entities [EventEntity, EventEntity], work=[16*, 0*]
191: 0x0B88 [0x29] REQ_SET_WAIT(priority=0x0B, entity_id=Syu Befrathi (ID: 17236320/0x01070160), tag_num=0x1F)
192: 0x0B8F [0x29] REQ_SET_WAIT(priority=0x0B, entity_id=Syu Befrathi (ID: 17236320/0x01070160), tag_num=0x20)
193: 0x0B96 [0x45] LOAD_SCHEDULED_TASK: Load scheduler "who1" with entities [LocalPlayer, LocalPlayer], work=[201*, 0*]
194: 0x0BA7 [0x1C] WAIT(60* ticks)
195: 0x0BAA [0x52] END_LOAD_SCHEDULER: End scheduler "s105" with entities [EventEntity, EventEntity], work=16*
196: 0x0BB9 [0x45] LOAD_SCHEDULED_TASK: Load scheduler "fdo1" with entities [EventEntity, EventEntity], work=[200*, 0*]
197: 0x0BCA [0x1C] WAIT(60* ticks)
198: 0x0BCD [0x29] REQ_SET_WAIT(priority=0x0B, entity_id=Semih Lafihna (ID: 17236319/0x0107015F), tag_num=0x47)
199: 0x0BD4 [0x45] LOAD_SCHEDULED_TASK: Load scheduler "whi1" with entities [LocalPlayer, LocalPlayer], work=[201*, 0*]
200: 0x0BE5 [0x1C] WAIT(60* ticks)
201: 0x0BE8 [0x45] LOAD_SCHEDULED_TASK: Load scheduler "s107" with entities [EventEntity, EventEntity], work=[16*, 0*]
202: 0x0BF9 [0x45] LOAD_SCHEDULED_TASK: Load scheduler "fdi1" with entities [EventEntity, EventEntity], work=[200*, 0*]
203: 0x0C0A [0x29] REQ_SET_WAIT(priority=0x0B, entity_id=Syu Befrathi (ID: 17236320/0x01070160), tag_num=0x21)
204: 0x0C11 [0x52] END_LOAD_SCHEDULER: End scheduler "s107" with entities [EventEntity, EventEntity], work=16*
205: 0x0C20 [0x45] LOAD_SCHEDULED_TASK: Load scheduler "fdo1" with entities [EventEntity, EventEntity], work=[200*, 0*]
206: 0x0C31 [0x1C] WAIT(60* ticks)
207: 0x0C34 [0x45] LOAD_SCHEDULED_TASK: Load scheduler "s108" with entities [EventEntity, EventEntity], work=[16*, 0*]
208: 0x0C45 [0x45] LOAD_SCHEDULED_TASK: Load scheduler "fdi1" with entities [EventEntity, EventEntity], work=[200*, 0*]
209: 0x0C56 [0x29] REQ_SET_WAIT(priority=0x0B, entity_id=Syu Befrathi (ID: 17236320/0x01070160), tag_num=0x22)
210: 0x0C5D [0x45] LOAD_SCHEDULED_TASK: Load scheduler "fdo1" with entities [EventEntity, EventEntity], work=[200*, 0*]
211: 0x0C6E [0x1C] WAIT(90* ticks)
212: 0x0C71 [0x77] SET_EVENT_TIME_WEATHER(hour=19*, weather=2*)
213: 0x0C76 [0x79] Syu Befrathi (ID: 17236320/0x01070160) looks at Semih Lafihna (ID: 17236319/0x0107015F) (Basic look)
214: 0x0C80 [0x52] END_LOAD_SCHEDULER: End scheduler "s108" with entities [EventEntity, EventEntity], work=16*
215: 0x0C8F [0x45] LOAD_SCHEDULED_TASK: Load scheduler "s109" with entities [EventEntity, EventEntity], work=[16*, 0*]
216: 0x0CA0 [0x45] LOAD_SCHEDULED_TASK: Load scheduler "fdi1" with entities [EventEntity, EventEntity], work=[200*, 0*]
217: 0x0CB1 [0x29] REQ_SET_WAIT(priority=0x0B, entity_id=Semih Lafihna (ID: 17236319/0x0107015F), tag_num=0x48)
218: 0x0CB8 [0x29] REQ_SET_WAIT(priority=0x0B, entity_id=Syu Befrathi (ID: 17236320/0x01070160), tag_num=0x23)
219: 0x0CBF [0x52] END_LOAD_SCHEDULER: End scheduler "s109" with entities [EventEntity, EventEntity], work=16*
220: 0x0CCE [0x45] LOAD_SCHEDULED_TASK: Load scheduler "s116" with entities [EventEntity, EventEntity], work=[16*, 0*]
221: 0x0CDF [0x29] REQ_SET_WAIT(priority=0x08, entity_id=Syu Befrathi (ID: 17236320/0x01070160), tag_num=0x01)
222: 0x0CE6 [0x29] REQ_SET_WAIT(priority=0x0B, entity_id=Syu Befrathi (ID: 17236320/0x01070160), tag_num=0x24)
223: 0x0CED [0x29] REQ_SET_WAIT(priority=0x08, entity_id=Syu Befrathi (ID: 17236320/0x01070160), tag_num=0x02)
224: 0x0CF4 [0x29] REQ_SET_WAIT(priority=0x0B, entity_id=Semih Lafihna (ID: 17236319/0x0107015F), tag_num=0x49)
225: 0x0CFB [0x52] END_LOAD_SCHEDULER: End scheduler "s116" with entities [EventEntity, EventEntity], work=16*
226: 0x0D0A [0x45] LOAD_SCHEDULED_TASK: Load scheduler "s110" with entities [EventEntity, EventEntity], work=[16*, 0*]
227: 0x0D1B [0x29] REQ_SET_WAIT(priority=0x0B, entity_id=Syu Befrathi (ID: 17236320/0x01070160), tag_num=0x25)
228: 0x0D22 [0x52] END_LOAD_SCHEDULER: End scheduler "s110" with entities [EventEntity, EventEntity], work=16*
229: 0x0D31 [0x45] LOAD_SCHEDULED_TASK: Load scheduler "s111" with entities [EventEntity, EventEntity], work=[16*, 0*]
230: 0x0D42 [0x29] REQ_SET_WAIT(priority=0x0B, entity_id=Syu Befrathi (ID: 17236320/0x01070160), tag_num=0x26)
231: 0x0D49 [0x29] REQ_SET_WAIT(priority=0x0B, entity_id=Syu Befrathi (ID: 17236320/0x01070160), tag_num=0x27)
232: 0x0D50 [0x29] REQ_SET_WAIT(priority=0x0B, entity_id=Semih Lafihna (ID: 17236319/0x0107015F), tag_num=0x4A)
233: 0x0D57 [0x52] END_LOAD_SCHEDULER: End scheduler "s111" with entities [EventEntity, EventEntity], work=16*
234: 0x0D66 [0x45] LOAD_SCHEDULED_TASK: Load scheduler "s112" with entities [EventEntity, EventEntity], work=[16*, 0*]
235: 0x0D77 [0x29] REQ_SET_WAIT(priority=0x0B, entity_id=Syu Befrathi (ID: 17236320/0x01070160), tag_num=0x0C)
236: 0x0D7E [0x29] REQ_SET_WAIT(priority=0x08, entity_id=Syu Befrathi (ID: 17236320/0x01070160), tag_num=0x03)
237: 0x0D85 [0x29] REQ_SET_WAIT(priority=0x0B, entity_id=Syu Befrathi (ID: 17236320/0x01070160), tag_num=0x28)
238: 0x0D8C [0x29] REQ_SET_WAIT(priority=0x08, entity_id=Syu Befrathi (ID: 17236320/0x01070160), tag_num=0x04)
239: 0x0D93 [0x52] END_LOAD_SCHEDULER: End scheduler "s112" with entities [EventEntity, EventEntity], work=16*
240: 0x0DA2 [0x45] LOAD_SCHEDULED_TASK: Load scheduler "s114" with entities [EventEntity, EventEntity], work=[16*, 0*]
241: 0x0DB3 [0x29] REQ_SET_WAIT(priority=0x08, entity_id=Syu Befrathi (ID: 17236320/0x01070160), tag_num=0x03)
242: 0x0DBA [0x29] REQ_SET_WAIT(priority=0x0B, entity_id=Syu Befrathi (ID: 17236320/0x01070160), tag_num=0x29)
243: 0x0DC1 [0x29] REQ_SET_WAIT(priority=0x08, entity_id=Syu Befrathi (ID: 17236320/0x01070160), tag_num=0x04)
244: 0x0DC8 [0x29] REQ_SET_WAIT(priority=0x0B, entity_id=Syu Befrathi (ID: 17236320/0x01070160), tag_num=0x2A)
245: 0x0DCF [0x29] REQ_SET_WAIT(priority=0x08, entity_id=Semih Lafihna (ID: 17236319/0x0107015F), tag_num=0x0C)
246: 0x0DD6 [0x29] REQ_SET_WAIT(priority=0x0B, entity_id=Semih Lafihna (ID: 17236319/0x0107015F), tag_num=0x4B)
247: 0x0DDD [0x29] REQ_SET_WAIT(priority=0x08, entity_id=Semih Lafihna (ID: 17236319/0x0107015F), tag_num=0x0D)
248: 0x0DE4 [0x52] END_LOAD_SCHEDULER: End scheduler "s114" with entities [EventEntity, EventEntity], work=16*
249: 0x0DF3 [0x45] LOAD_SCHEDULED_TASK: Load scheduler "s113" with entities [EventEntity, EventEntity], work=[16*, 0*]
250: 0x0E04 [0x2B] Syu Befrathi (ID: 17236320/0x01070160) [7791*]:
    → "My mother and I...we owe you and your mother our eternal gratitude. Goodbye, Semih Lafihna."
251: 0x0E0B [0x23] WAIT_FOR_DIALOG_INTERACTION
252: 0x0E0C [0x1C] WAIT(150* ticks)
253: 0x0E0F [0x27] REQ_SET(priority=0x0B, entity_id=Syu Befrathi (ID: 17236320/0x01070160), tag_num=0x0D)
254: 0x0E16 [0x1C] WAIT(100* ticks)
255: 0x0E19 [0x5D] SET_MUSIC_VOLUME(volume=0*, fade_time=200*)
256: 0x0E1E [0x45] LOAD_SCHEDULED_TASK: Load scheduler "fdo0" with entities [LocalPlayer, LocalPlayer], work=[200*, 0*]
257: 0x0E2F [0x1C] WAIT(300* ticks)
258: 0x0E32 [0x78] ENABLE_GAME_TIMER_RESET_WEATHER()
259: 0x0E33 [0x2A] GET_REQ_LEVEL(level=11, entity_id=Syu Befrathi (ID: 17236320/0x01070160))
260: 0x0E39 [0x52] END_LOAD_SCHEDULER: End scheduler "s113" with entities [EventEntity, EventEntity], work=16*
261: 0x0E48 [0x5C] MUSIC_CONTROL: Set Idle (Day) music to song 164*
262: 0x0E4C [0x5C] MUSIC_CONTROL: Set Idle (Night) music to song 164*
263: 0x0E50 [0x5D] SET_MUSIC_VOLUME(volume=127*, fade_time=1*)
264: 0x0E55 [0x46] CAMERA_CONTROL: Restore default settings
265: 0x0E57 [0x1C] WAIT(200* ticks)
266: 0x0E5A [0x45] LOAD_SCHEDULED_TASK: Load scheduler "fdi0" with entities [LocalPlayer, LocalPlayer], work=[200*, 0*]
267: 0x0E6B [0x20] SET_CLI_EVENT_UC_FLAG: Unlock player control
268: 0x0E6D [0x21] END_EVENT
269: 0x0E6E [0x00] END_REQSTACK()
```

### Event 7

#### Metadata

| Field        | Value     |
|--------------|-----------|
| Entrypoint   | 0x0E6F    |
| Data Size    | 279 bytes |
| Instructions | 36        |

```
      00 01 02 03 04 05 06 07  08 09 0A 0B 0C 0D 0E 0F
      -- -- -- -- -- -- -- --  -- -- -- -- -- -- -- --
0E60:                                               42                 B
0E70: 46 01 45 00 80 F8 FF FF  7F F8 FF FF 7F 66 64 6F  F.E..........fdo
0E80: 31 03 80 1C 00 80 38 01  80 29 08 F0 FF FF 7F 10  1.....8..)......
0E90: 29 0B F0 FF FF 7F 0A 22  01 45 02 80 F8 FF FF 7F  )......".E......
0EA0: F8 FF FF 7F 73 31 31 38  03 80 45 00 80 F8 FF FF  ....s118..E.....
0EB0: 7F F8 FF FF 7F 66 64 69  31 03 80 1C 00 80 29 0B  .....fdi1.....).
0EC0: 60 01 07 01 2D 45 00 80  F8 FF FF 7F F8 FF FF 7F  `...-E..........
0ED0: 66 64 6F 31 03 80 1C 11  80 52 02 80 F8 FF FF 7F  fdo1.....R......
0EE0: F8 FF FF 7F 73 31 31 38  77 01 80 2B 80 4E 00 60  ....s118w..+.N.`
0EF0: 01 07 01 80 60 01 07 01  29 0B F0 FF FF 7F 0C 29  ....`...)......)
0F00: 0B 60 01 07 01 2E 4A 60  01 07 01 F0 FF FF 7F 6F  .`....J`.......o
0F10: 76 60 01 07 01 45 02 80  F8 FF FF 7F F8 FF FF 7F  v`...E..........
0F20: 73 31 31 39 03 80 45 00  80 F8 FF FF 7F F8 FF FF  s119..E.........
0F30: 7F 66 64 69 31 03 80 29  08 60 01 07 01 03 29 0B  .fdi1..).`....).
0F40: 60 01 07 01 2F 29 08 60  01 07 01 04 45 00 80 F0  `.../).`....E...
0F50: FF FF 7F F0 FF FF 7F 66  64 6F 30 03 80 1C 11 80  .......fdo0.....
0F60: 52 02 80 F8 FF FF 7F F8  FF FF 7F 73 31 31 39 46  R..........s119F
0F70: 00 45 00 80 F0 FF FF 7F  F0 FF FF 7F 66 64 69 30  .E..........fdi0
0F80: 03 80 20 00 21 00                                 .. .!.          
```

#### Opcodes

```
  0: 0x0E6F [0x42] SET_CLI_EVENT_CANCEL_DATA()
  1: 0x0E70 [0x46] CAMERA_CONTROL: Disable user control
  2: 0x0E72 [0x45] LOAD_SCHEDULED_TASK: Load scheduler "fdo1" with entities [EventEntity, EventEntity], work=[200*, 0*]
  3: 0x0E83 [0x1C] WAIT(200* ticks)
  4: 0x0E86 [0x38] SET_CLIENT_EVENT_MODE(mode=19*)
  5: 0x0E89 [0x29] REQ_SET_WAIT(priority=0x08, entity_id=LocalPlayer, tag_num=0x10)
  6: 0x0E90 [0x29] REQ_SET_WAIT(priority=0x0B, entity_id=LocalPlayer, tag_num=0x0A)
  7: 0x0E97 [0x22] ENTITY_HIDE_FLAG(enabled=0x01)
  8: 0x0E99 [0x45] LOAD_SCHEDULED_TASK: Load scheduler "s118" with entities [EventEntity, EventEntity], work=[16*, 0*]
  9: 0x0EAA [0x45] LOAD_SCHEDULED_TASK: Load scheduler "fdi1" with entities [EventEntity, EventEntity], work=[200*, 0*]
 10: 0x0EBB [0x1C] WAIT(200* ticks)
 11: 0x0EBE [0x29] REQ_SET_WAIT(priority=0x0B, entity_id=Syu Befrathi (ID: 17236320/0x01070160), tag_num=0x2D)
 12: 0x0EC5 [0x45] LOAD_SCHEDULED_TASK: Load scheduler "fdo1" with entities [EventEntity, EventEntity], work=[200*, 0*]
 13: 0x0ED6 [0x1C] WAIT(100* ticks)
 14: 0x0ED9 [0x52] END_LOAD_SCHEDULER: End scheduler "s118" with entities [EventEntity, EventEntity], work=16*
 15: 0x0EE8 [0x77] SET_EVENT_TIME_WEATHER(hour=19*, weather=2*)
 16: 0x0EED [0x4E] SET_ENTITY_HIDE_FLAG: Show Syu Befrathi (ID: 17236320/0x01070160)
 17: 0x0EF3 [0x80] LOAD_WAIT(entity=Syu Befrathi (ID: 17236320/0x01070160))
 18: 0x0EF8 [0x29] REQ_SET_WAIT(priority=0x0B, entity_id=LocalPlayer, tag_num=0x0C)
 19: 0x0EFF [0x29] REQ_SET_WAIT(priority=0x0B, entity_id=Syu Befrathi (ID: 17236320/0x01070160), tag_num=0x2E)
 20: 0x0F06 [0x4A] Syu Befrathi (ID: 17236320/0x01070160) looks at LocalPlayer
 21: 0x0F0F [0x6F] WAIT_FRAME_DELAY: Yield until WaitTime reaches zero
 22: 0x0F10 [0x76] CHECK_ENTITY_RENDER_FLAGS: Wait until Syu Befrathi (ID: 17236320/0x01070160) Render.Flags0 and Render.Flags3 conditions are met
 23: 0x0F15 [0x45] LOAD_SCHEDULED_TASK: Load scheduler "s119" with entities [EventEntity, EventEntity], work=[16*, 0*]
 24: 0x0F26 [0x45] LOAD_SCHEDULED_TASK: Load scheduler "fdi1" with entities [EventEntity, EventEntity], work=[200*, 0*]
 25: 0x0F37 [0x29] REQ_SET_WAIT(priority=0x08, entity_id=Syu Befrathi (ID: 17236320/0x01070160), tag_num=0x03)
 26: 0x0F3E [0x29] REQ_SET_WAIT(priority=0x0B, entity_id=Syu Befrathi (ID: 17236320/0x01070160), tag_num=0x2F)
 27: 0x0F45 [0x29] REQ_SET_WAIT(priority=0x08, entity_id=Syu Befrathi (ID: 17236320/0x01070160), tag_num=0x04)
 28: 0x0F4C [0x45] LOAD_SCHEDULED_TASK: Load scheduler "fdo0" with entities [LocalPlayer, LocalPlayer], work=[200*, 0*]
 29: 0x0F5D [0x1C] WAIT(100* ticks)
 30: 0x0F60 [0x52] END_LOAD_SCHEDULER: End scheduler "s119" with entities [EventEntity, EventEntity], work=16*
 31: 0x0F6F [0x46] CAMERA_CONTROL: Restore default settings
 32: 0x0F71 [0x45] LOAD_SCHEDULED_TASK: Load scheduler "fdi0" with entities [LocalPlayer, LocalPlayer], work=[200*, 0*]
 33: 0x0F82 [0x20] SET_CLI_EVENT_UC_FLAG: Unlock player control
 34: 0x0F84 [0x21] END_EVENT
 35: 0x0F85 [0x00] END_REQSTACK()
```

### Event 8

#### Metadata

| Field        | Value     |
|--------------|-----------|
| Entrypoint   | 0x0F86    |
| Data Size    | 388 bytes |
| Instructions | 49        |

```
      00 01 02 03 04 05 06 07  08 09 0A 0B 0C 0D 0E 0F
      -- -- -- -- -- -- -- --  -- -- -- -- -- -- -- --
0F80:                   42 46  01 5D 03 80 00 80 45 00        BF.]....E.
0F90: 80 F8 FF FF 7F F8 FF FF  7F 66 64 6F 31 03 80 1C  .........fdo1...
0FA0: 00 80 38 01 80 29 08 F0  FF FF 7F 10 29 0B F0 FF  ..8..)......)...
0FB0: FF 7F 0D 29 0B 60 01 07  01 10 4E 00 60 01 07 01  ...).`....N.`...
0FC0: 4E 00 62 01 07 01 80 60  01 07 01 80 62 01 07 01  N.b....`....b...
0FD0: 92 01 62 01 07 01 5C 00  36 80 5C 01 36 80 5D 27  ..b...\.6.\.6.]'
0FE0: 80 28 80 22 01 27 0B 62  01 07 01 02 45 00 80 F8  .(.".'.b....E...
0FF0: FF FF 7F F8 FF FF 7F 62  6C 6F 6E 03 80 45 12 80  .......blon..E..
1000: F0 FF FF 7F F0 FF FF 7F  62 6C 6F 6E 03 80 45 02  ........blon..E.
1010: 80 F8 FF FF 7F F8 FF FF  7F 73 31 32 30 03 80 45  .........s120..E
1020: 00 80 F8 FF FF 7F F8 FF  FF 7F 66 64 69 31 03 80  ..........fdi1..
1030: 1C 2A 80 52 02 80 F8 FF  FF 7F F8 FF FF 7F 73 31  .*.R..........s1
1040: 32 30 45 02 80 F8 FF FF  7F F8 FF FF 7F 73 31 32  20E..........s12
1050: 31 03 80 1C 2A 80 52 02  80 F8 FF FF 7F F8 FF FF  1...*.R.........
1060: 7F 73 31 32 31 45 02 80  F8 FF FF 7F F8 FF FF 7F  .s121E..........
1070: 73 31 32 32 03 80 27 08  60 01 07 01 0F 1C 2A 80  s122..'.`.....*.
1080: 52 02 80 F8 FF FF 7F F8  FF FF 7F 73 31 32 32 45  R..........s122E
1090: 02 80 F8 FF FF 7F F8 FF  FF 7F 73 31 32 34 03 80  ..........s124..
10A0: 1C 1C 80 52 02 80 F8 FF  FF 7F F8 FF FF 7F 73 31  ...R..........s1
10B0: 32 34 45 12 80 F0 FF FF  7F F0 FF FF 7F 77 68 6F  24E..........who
10C0: 31 03 80 1C 11 80 2A 08  60 01 07 01 2A 0B 62 01  1.....*.`...*.b.
10D0: 07 01 45 00 80 F8 FF FF  7F F8 FF FF 7F 62 6C 6F  ..E..........blo
10E0: 66 03 80 5C 00 35 80 5C  01 35 80 5D 27 80 28 80  f..\.5.\.5.]'.(.
10F0: 46 00 1C 00 80 45 12 80  F0 FF FF 7F F0 FF FF 7F  F....E..........
1100: 77 68 69 31 03 80 20 00  21 00                    whi1.. .!.      
```

#### Opcodes

```
  0: 0x0F86 [0x42] SET_CLI_EVENT_CANCEL_DATA()
  1: 0x0F87 [0x46] CAMERA_CONTROL: Disable user control
  2: 0x0F89 [0x5D] SET_MUSIC_VOLUME(volume=0*, fade_time=200*)
  3: 0x0F8E [0x45] LOAD_SCHEDULED_TASK: Load scheduler "fdo1" with entities [EventEntity, EventEntity], work=[200*, 0*]
  4: 0x0F9F [0x1C] WAIT(200* ticks)
  5: 0x0FA2 [0x38] SET_CLIENT_EVENT_MODE(mode=19*)
  6: 0x0FA5 [0x29] REQ_SET_WAIT(priority=0x08, entity_id=LocalPlayer, tag_num=0x10)
  7: 0x0FAC [0x29] REQ_SET_WAIT(priority=0x0B, entity_id=LocalPlayer, tag_num=0x0D)
  8: 0x0FB3 [0x29] REQ_SET_WAIT(priority=0x0B, entity_id=Syu Befrathi (ID: 17236320/0x01070160), tag_num=0x10)
  9: 0x0FBA [0x4E] SET_ENTITY_HIDE_FLAG: Show Syu Befrathi (ID: 17236320/0x01070160)
 10: 0x0FC0 [0x4E] SET_ENTITY_HIDE_FLAG: Show TIGER (ID: 17236322/0x01070162)
 11: 0x0FC6 [0x80] LOAD_WAIT(entity=Syu Befrathi (ID: 17236320/0x01070160))
 12: 0x0FCB [0x80] LOAD_WAIT(entity=TIGER (ID: 17236322/0x01070162))
 13: 0x0FD0 [0x92] TIGER (ID: 17236322/0x01070162)->Render.Flags3 ^= 0x01
 14: 0x0FD6 [0x5C] MUSIC_CONTROL: Set Idle (Day) music to song 103*
 15: 0x0FDA [0x5C] MUSIC_CONTROL: Set Idle (Night) music to song 103*
 16: 0x0FDE [0x5D] SET_MUSIC_VOLUME(volume=127*, fade_time=1*)
 17: 0x0FE3 [0x22] ENTITY_HIDE_FLAG(enabled=0x01)
 18: 0x0FE5 [0x27] REQ_SET(priority=0x0B, entity_id=TIGER (ID: 17236322/0x01070162), tag_num=0x02)
 19: 0x0FEC [0x45] LOAD_SCHEDULED_TASK: Load scheduler "blon" with entities [EventEntity, EventEntity], work=[200*, 0*]
 20: 0x0FFD [0x45] LOAD_SCHEDULED_TASK: Load scheduler "blon" with entities [LocalPlayer, LocalPlayer], work=[201*, 0*]
 21: 0x100E [0x45] LOAD_SCHEDULED_TASK: Load scheduler "s120" with entities [EventEntity, EventEntity], work=[16*, 0*]
 22: 0x101F [0x45] LOAD_SCHEDULED_TASK: Load scheduler "fdi1" with entities [EventEntity, EventEntity], work=[200*, 0*]
 23: 0x1030 [0x1C] WAIT(80* ticks)
 24: 0x1033 [0x52] END_LOAD_SCHEDULER: End scheduler "s120" with entities [EventEntity, EventEntity], work=16*
 25: 0x1042 [0x45] LOAD_SCHEDULED_TASK: Load scheduler "s121" with entities [EventEntity, EventEntity], work=[16*, 0*]
 26: 0x1053 [0x1C] WAIT(80* ticks)
 27: 0x1056 [0x52] END_LOAD_SCHEDULER: End scheduler "s121" with entities [EventEntity, EventEntity], work=16*
 28: 0x1065 [0x45] LOAD_SCHEDULED_TASK: Load scheduler "s122" with entities [EventEntity, EventEntity], work=[16*, 0*]
 29: 0x1076 [0x27] REQ_SET(priority=0x08, entity_id=Syu Befrathi (ID: 17236320/0x01070160), tag_num=0x0F)
 30: 0x107D [0x1C] WAIT(80* ticks)
 31: 0x1080 [0x52] END_LOAD_SCHEDULER: End scheduler "s122" with entities [EventEntity, EventEntity], work=16*
 32: 0x108F [0x45] LOAD_SCHEDULED_TASK: Load scheduler "s124" with entities [EventEntity, EventEntity], work=[16*, 0*]
 33: 0x10A0 [0x1C] WAIT(60* ticks)
 34: 0x10A3 [0x52] END_LOAD_SCHEDULER: End scheduler "s124" with entities [EventEntity, EventEntity], work=16*
 35: 0x10B2 [0x45] LOAD_SCHEDULED_TASK: Load scheduler "who1" with entities [LocalPlayer, LocalPlayer], work=[201*, 0*]
 36: 0x10C3 [0x1C] WAIT(100* ticks)
 37: 0x10C6 [0x2A] GET_REQ_LEVEL(level=8, entity_id=Syu Befrathi (ID: 17236320/0x01070160))
 38: 0x10CC [0x2A] GET_REQ_LEVEL(level=11, entity_id=TIGER (ID: 17236322/0x01070162))
 39: 0x10D2 [0x45] LOAD_SCHEDULED_TASK: Load scheduler "blof" with entities [EventEntity, EventEntity], work=[200*, 0*]
 40: 0x10E3 [0x5C] MUSIC_CONTROL: Set Idle (Day) music to song 164*
 41: 0x10E7 [0x5C] MUSIC_CONTROL: Set Idle (Night) music to song 164*
 42: 0x10EB [0x5D] SET_MUSIC_VOLUME(volume=127*, fade_time=1*)
 43: 0x10F0 [0x46] CAMERA_CONTROL: Restore default settings
 44: 0x10F2 [0x1C] WAIT(200* ticks)
 45: 0x10F5 [0x45] LOAD_SCHEDULED_TASK: Load scheduler "whi1" with entities [LocalPlayer, LocalPlayer], work=[201*, 0*]
 46: 0x1106 [0x20] SET_CLI_EVENT_UC_FLAG: Unlock player control
 47: 0x1108 [0x21] END_EVENT
 48: 0x1109 [0x00] END_REQSTACK()
```
