# 17236412

## Common Data

| Field            | Value               |
|------------------|---------------------|
| Zone             | Xarcabard (ID: 112) |
| Block Size       | 460 bytes           |
| Total Events     | 15                  |
| References Count | 31                  |

## List of Events

| Event ID                   | Entrypoint   |   Size |   Instructions |
|----------------------------|--------------|--------|----------------|
| [65535](#event-65535)      | 0x0000       |      1 |              1 |
| [68](#event-68)            | 0x0001       |      7 |              2 |
| [65535.1](#event-655351)   | 0x0008       |     21 |              2 |
| [65535.2](#event-655352)   | 0x001D       |     21 |              2 |
| [65535.3](#event-655353)   | 0x0032       |     21 |              2 |
| [65535.4](#event-655354)   | 0x0047       |     21 |              2 |
| [65535.5](#event-655355)   | 0x005C       |     21 |              2 |
| [65535.6](#event-655356)   | 0x0071       |     21 |              2 |
| [65535.7](#event-655357)   | 0x0086       |     21 |              2 |
| [65535.8](#event-655358)   | 0x009B       |     21 |              2 |
| [65535.9](#event-655359)   | 0x00B0       |     21 |              2 |
| [65535.10](#event-6553510) | 0x00C5       |     21 |              2 |
| [65535.11](#event-6553511) | 0x00DA       |     21 |              2 |
| [65535.12](#event-6553512) | 0x00EF       |     10 |              2 |
| [65535.13](#event-6553513) | 0x00F9       |     10 |              2 |

## DAT References (imed_data)

|   Index | Hex Value   |   Dec Value |
|---------|-------------|-------------|
|       0 | 0x0005      |           5 |
|       1 | 0x0008      |           8 |
|       2 | 0x007D      |         125 |
|       3 | 0x0016      |          22 |
|       4 | 0x0014      |          20 |
|       5 | 0x03A2      |         930 |
|       6 | 0x0000      |           0 |
|       7 | 0x000D      |          13 |
|       8 | 0x01E0      |         480 |
|       9 | 0x0002      |           2 |
|      10 | 0x0004      |           4 |
|      11 | 0x000F      |          15 |
|      12 | 0x000E      |          14 |
|      13 | 0x0198      |         408 |
|      14 | 0x02F3      |         755 |
|      15 | 0x0003      |           3 |
|      16 | 0x001A      |          26 |
|      17 | 0x0157      |         343 |
|      18 | 0x0073      |         115 |
|      19 | 0x006A      |         106 |
|      20 | 0x005E      |          94 |
|      21 | 0x000A      |          10 |
|      22 | 0x0017      |          23 |
|      23 | 0x000B      |          11 |
|      24 | 0x0001      |           1 |
|      25 | 0x002E      |          46 |
|      26 | 0x0021      |          33 |
|      27 | 0x000C      |          12 |
|      28 | 0x001D      |          29 |
|      29 | 0x001E      |          30 |
|      30 | 0x0080      |         128 |

## Events

### Event 65535

#### Metadata

| Field        | Value   |
|--------------|---------|
| Entrypoint   | 0x0000  |
| Data Size    | 1 bytes |
| Instructions | 1       |

```
      00 01 02 03 04 05 06 07  08 09 0A 0B 0C 0D 0E 0F
      -- -- -- -- -- -- -- --  -- -- -- -- -- -- -- --
0000: 00                                                .               
```

#### Opcodes

```
  0: 0x0000 [0x00] END_REQSTACK()
```

### Event 68

#### Metadata

| Field        | Value   |
|--------------|---------|
| Entrypoint   | 0x0001  |
| Data Size    | 7 bytes |
| Instructions | 2       |

```
      00 01 02 03 04 05 06 07  08 09 0A 0B 0C 0D 0E 0F
      -- -- -- -- -- -- -- --  -- -- -- -- -- -- -- --
0000:    92 01 F8 FF FF 7F 00                            .......        
```

#### Opcodes

```
  0: 0x0001 [0x92] EventEntity->Render.Flags3 ^= 0x01
  1: 0x0007 [0x00] END_REQSTACK()
```

### Event 65535.1

#### Metadata

| Field        | Value    |
|--------------|----------|
| Entrypoint   | 0x0008   |
| Data Size    | 21 bytes |
| Instructions | 2        |

```
      00 01 02 03 04 05 06 07  08 09 0A 0B 0C 0D 0E 0F
      -- -- -- -- -- -- -- --  -- -- -- -- -- -- -- --
0000:                          B6 0B 00 80 01 80 02 80          ........
0010: 03 80 04 80 04 80 04 80  05 80 06 80 00           .............   
```

#### Opcodes

```
  0: 0x0008 [0xB6] ENTITY_APPEARANCE_HANDLER(case=Full entity look, race=5*, hair=8*, head=125*, body=22*, hands=20*, legs=20*, feet=20*, main=930*, sub=0*)
  1: 0x001C [0x00] END_REQSTACK()
```

### Event 65535.2

#### Metadata

| Field        | Value    |
|--------------|----------|
| Entrypoint   | 0x001D   |
| Data Size    | 21 bytes |
| Instructions | 2        |

```
      00 01 02 03 04 05 06 07  08 09 0A 0B 0C 0D 0E 0F
      -- -- -- -- -- -- -- --  -- -- -- -- -- -- -- --
0010:                                         B6 0B 00               ...
0020: 80 07 80 08 80 08 80 08  80 08 80 08 80 06 80 06  ................
0030: 80 00                                             ..              
```

#### Opcodes

```
  0: 0x001D [0xB6] ENTITY_APPEARANCE_HANDLER(case=Full entity look, race=5*, hair=13*, head=480*, body=480*, hands=480*, legs=480*, feet=480*, main=0*, sub=0*)
  1: 0x0031 [0x00] END_REQSTACK()
```

### Event 65535.3

#### Metadata

| Field        | Value    |
|--------------|----------|
| Entrypoint   | 0x0032   |
| Data Size    | 21 bytes |
| Instructions | 2        |

```
      00 01 02 03 04 05 06 07  08 09 0A 0B 0C 0D 0E 0F
      -- -- -- -- -- -- -- --  -- -- -- -- -- -- -- --
0030:       B6 0B 09 80 0A 80  02 80 02 80 06 80 0B 80    ..............
0040: 0B 80 06 80 06 80 00                              .......         
```

#### Opcodes

```
  0: 0x0032 [0xB6] ENTITY_APPEARANCE_HANDLER(case=Full entity look, race=2*, hair=4*, head=125*, body=125*, hands=0*, legs=15*, feet=15*, main=0*, sub=0*)
  1: 0x0046 [0x00] END_REQSTACK()
```

### Event 65535.4

#### Metadata

| Field        | Value    |
|--------------|----------|
| Entrypoint   | 0x0047   |
| Data Size    | 21 bytes |
| Instructions | 2        |

```
      00 01 02 03 04 05 06 07  08 09 0A 0B 0C 0D 0E 0F
      -- -- -- -- -- -- -- --  -- -- -- -- -- -- -- --
0040:                      B6  0B 09 80 0C 80 0D 80 0D         .........
0050: 80 0D 80 0D 80 0D 80 0E  80 0E 80 00              ............    
```

#### Opcodes

```
  0: 0x0047 [0xB6] ENTITY_APPEARANCE_HANDLER(case=Full entity look, race=2*, hair=14*, head=408*, body=408*, hands=408*, legs=408*, feet=408*, main=755*, sub=755*)
  1: 0x005B [0x00] END_REQSTACK()
```

### Event 65535.5

#### Metadata

| Field        | Value    |
|--------------|----------|
| Entrypoint   | 0x005C   |
| Data Size    | 21 bytes |
| Instructions | 2        |

```
      00 01 02 03 04 05 06 07  08 09 0A 0B 0C 0D 0E 0F
      -- -- -- -- -- -- -- --  -- -- -- -- -- -- -- --
0050:                                      B6 0B 0F 80              ....
0060: 10 80 06 80 11 80 11 80  11 80 11 80 06 80 06 80  ................
0070: 00                                                .               
```

#### Opcodes

```
  0: 0x005C [0xB6] ENTITY_APPEARANCE_HANDLER(case=Full entity look, race=3*, hair=26*, head=0*, body=343*, hands=343*, legs=343*, feet=343*, main=0*, sub=0*)
  1: 0x0070 [0x00] END_REQSTACK()
```

### Event 65535.6

#### Metadata

| Field        | Value    |
|--------------|----------|
| Entrypoint   | 0x0071   |
| Data Size    | 21 bytes |
| Instructions | 2        |

```
      00 01 02 03 04 05 06 07  08 09 0A 0B 0C 0D 0E 0F
      -- -- -- -- -- -- -- --  -- -- -- -- -- -- -- --
0070:    B6 0B 01 80 01 80 06  80 12 80 09 80 13 80 06   ...............
0080: 80 14 80 06 80 00                                 ......          
```

#### Opcodes

```
  0: 0x0071 [0xB6] ENTITY_APPEARANCE_HANDLER(case=Full entity look, race=8*, hair=8*, head=0*, body=115*, hands=2*, legs=106*, feet=0*, main=94*, sub=0*)
  1: 0x0085 [0x00] END_REQSTACK()
```

### Event 65535.7

#### Metadata

| Field        | Value    |
|--------------|----------|
| Entrypoint   | 0x0086   |
| Data Size    | 21 bytes |
| Instructions | 2        |

```
      00 01 02 03 04 05 06 07  08 09 0A 0B 0C 0D 0E 0F
      -- -- -- -- -- -- -- --  -- -- -- -- -- -- -- --
0080:                   B6 0B  00 80 15 80 06 80 16 80        ..........
0090: 16 80 16 80 17 80 06 80  06 80 00                 ...........     
```

#### Opcodes

```
  0: 0x0086 [0xB6] ENTITY_APPEARANCE_HANDLER(case=Full entity look, race=5*, hair=10*, head=0*, body=23*, hands=23*, legs=23*, feet=11*, main=0*, sub=0*)
  1: 0x009A [0x00] END_REQSTACK()
```

### Event 65535.8

#### Metadata

| Field        | Value    |
|--------------|----------|
| Entrypoint   | 0x009B   |
| Data Size    | 21 bytes |
| Instructions | 2        |

```
      00 01 02 03 04 05 06 07  08 09 0A 0B 0C 0D 0E 0F
      -- -- -- -- -- -- -- --  -- -- -- -- -- -- -- --
0090:                                   B6 0B 00 80 18             .....
00A0: 80 06 80 19 80 19 80 19  80 19 80 06 80 06 80 00  ................
```

#### Opcodes

```
  0: 0x009B [0xB6] ENTITY_APPEARANCE_HANDLER(case=Full entity look, race=5*, hair=1*, head=0*, body=46*, hands=46*, legs=46*, feet=46*, main=0*, sub=0*)
  1: 0x00AF [0x00] END_REQSTACK()
```

### Event 65535.9

#### Metadata

| Field        | Value    |
|--------------|----------|
| Entrypoint   | 0x00B0   |
| Data Size    | 21 bytes |
| Instructions | 2        |

```
      00 01 02 03 04 05 06 07  08 09 0A 0B 0C 0D 0E 0F
      -- -- -- -- -- -- -- --  -- -- -- -- -- -- -- --
00B0: B6 0B 0A 80 0A 80 04 80  1A 80 1B 80 1C 80 1B 80  ................
00C0: 06 80 06 80 00                                    .....           
```

#### Opcodes

```
  0: 0x00B0 [0xB6] ENTITY_APPEARANCE_HANDLER(case=Full entity look, race=4*, hair=4*, head=20*, body=33*, hands=12*, legs=29*, feet=12*, main=0*, sub=0*)
  1: 0x00C4 [0x00] END_REQSTACK()
```

### Event 65535.10

#### Metadata

| Field        | Value    |
|--------------|----------|
| Entrypoint   | 0x00C5   |
| Data Size    | 21 bytes |
| Instructions | 2        |

```
      00 01 02 03 04 05 06 07  08 09 0A 0B 0C 0D 0E 0F
      -- -- -- -- -- -- -- --  -- -- -- -- -- -- -- --
00C0:                B6 0B 1D  80 06 80 06 80 06 80 06       ...........
00D0: 80 06 80 06 80 06 80 06  80 00                    ..........      
```

#### Opcodes

```
  0: 0x00C5 [0xB6] ENTITY_APPEARANCE_HANDLER(case=Full entity look, race=30*, hair=0*, head=0*, body=0*, hands=0*, legs=0*, feet=0*, main=0*, sub=0*)
  1: 0x00D9 [0x00] END_REQSTACK()
```

### Event 65535.11

#### Metadata

| Field        | Value    |
|--------------|----------|
| Entrypoint   | 0x00DA   |
| Data Size    | 21 bytes |
| Instructions | 2        |

```
      00 01 02 03 04 05 06 07  08 09 0A 0B 0C 0D 0E 0F
      -- -- -- -- -- -- -- --  -- -- -- -- -- -- -- --
00D0:                                B6 0B 18 80 06 80            ......
00E0: 06 80 06 80 06 80 06 80  06 80 06 80 06 80 00     ............... 
```

#### Opcodes

```
  0: 0x00DA [0xB6] ENTITY_APPEARANCE_HANDLER(case=Full entity look, race=1*, hair=0*, head=0*, body=0*, hands=0*, legs=0*, feet=0*, main=0*, sub=0*)
  1: 0x00EE [0x00] END_REQSTACK()
```

### Event 65535.12

#### Metadata

| Field        | Value    |
|--------------|----------|
| Entrypoint   | 0x00EF   |
| Data Size    | 10 bytes |
| Instructions | 2        |

```
      00 01 02 03 04 05 06 07  08 09 0A 0B 0C 0D 0E 0F
      -- -- -- -- -- -- -- --  -- -- -- -- -- -- -- --
00E0:                                               6C                 l
00F0: F8 FF FF 7F 06 80 18 80  00                       .........       
```

#### Opcodes

```
  0: 0x00EF [0x6C] FADE_ENTITY_COLOR(entity_id=EventEntity, end_alpha=0*, fade_time=1*)
  1: 0x00F8 [0x00] END_REQSTACK()
```

### Event 65535.13

#### Metadata

| Field        | Value    |
|--------------|----------|
| Entrypoint   | 0x00F9   |
| Data Size    | 10 bytes |
| Instructions | 2        |

```
      00 01 02 03 04 05 06 07  08 09 0A 0B 0C 0D 0E 0F
      -- -- -- -- -- -- -- --  -- -- -- -- -- -- -- --
00F0:                             6C F8 FF FF 7F 1E 80           l......
0100: 18 80 00                                          ...             
```

#### Opcodes

```
  0: 0x00F9 [0x6C] FADE_ENTITY_COLOR(entity_id=EventEntity, end_alpha=128*, fade_time=1*)
  1: 0x0102 [0x00] END_REQSTACK()
```
