# 0x7FFFFFF0 - Zone Events

## Common Data

| Field            | Value               |
|------------------|---------------------|
| Zone             | Xarcabard (ID: 112) |
| Block Size       | 3320 bytes          |
| Total Events     | 75                  |
| References Count | 192                 |

## List of Events

| Event ID                   | Entrypoint   |   Size |   Instructions |
|----------------------------|--------------|--------|----------------|
| [65535](#event-65535)      | 0x0000       |      1 |              1 |
| [65534](#event-65534)      | 0x0001       |      1 |              1 |
| [12](#event-12)            | 0x0002       |    276 |             30 |
| [3](#event-3)              | 0x0116       |    404 |             41 |
| [2](#event-2)              | 0x02AA       |    382 |             40 |
| [65535.1](#event-655351)   | 0x0428       |     10 |              2 |
| [65535.2](#event-655352)   | 0x0432       |     14 |              4 |
| [65535.3](#event-655353)   | 0x0440       |     10 |              2 |
| [65535.4](#event-655354)   | 0x044A       |     10 |              2 |
| [65535.5](#event-655355)   | 0x0454       |     27 |              7 |
| [65535.6](#event-655356)   | 0x046F       |     10 |              2 |
| [65535.7](#event-655357)   | 0x0479       |     10 |              2 |
| [65535.8](#event-655358)   | 0x0483       |     10 |              2 |
| [65535.9](#event-655359)   | 0x048D       |     10 |              2 |
| [65535.10](#event-6553510) | 0x0497       |      6 |              2 |
| [65535.11](#event-6553511) | 0x049D       |      6 |              2 |
| [65535.12](#event-6553512) | 0x04A3       |      6 |              2 |
| [65535.13](#event-6553513) | 0x04A9       |      6 |              2 |
| [65535.14](#event-6553514) | 0x04AF       |      6 |              2 |
| [65535.15](#event-6553515) | 0x04B5       |     10 |              2 |
| [65535.16](#event-6553516) | 0x04BF       |     10 |              2 |
| [65535.17](#event-6553517) | 0x04C9       |     10 |              2 |
| [65535.18](#event-6553518) | 0x04D3       |     10 |              2 |
| [65535.19](#event-6553519) | 0x04DD       |     10 |              2 |
| [65535.20](#event-6553520) | 0x04E7       |     10 |              2 |
| [65535.21](#event-6553521) | 0x04F1       |     10 |              2 |
| [65535.22](#event-6553522) | 0x04FB       |     10 |              2 |
| [65535.23](#event-6553523) | 0x0505       |     10 |              2 |
| [65535.24](#event-6553524) | 0x050F       |     10 |              2 |
| [65535.25](#event-6553525) | 0x0519       |     10 |              2 |
| [65535.26](#event-6553526) | 0x0523       |     10 |              2 |
| [65535.27](#event-6553527) | 0x052D       |     10 |              2 |
| [65535.28](#event-6553528) | 0x0537       |     10 |              2 |
| [65535.29](#event-6553529) | 0x0541       |     10 |              2 |
| [65535.30](#event-6553530) | 0x054B       |     10 |              2 |
| [65535.31](#event-6553531) | 0x0555       |     10 |              2 |
| [65535.32](#event-6553532) | 0x055F       |     10 |              2 |
| [65535.33](#event-6553533) | 0x0569       |     10 |              2 |
| [65535.34](#event-6553534) | 0x0573       |     10 |              2 |
| [65535.35](#event-6553535) | 0x057D       |     10 |              2 |
| [65535.36](#event-6553536) | 0x0587       |     12 |              3 |
| [65535.37](#event-6553537) | 0x0593       |     10 |              2 |
| [65535.38](#event-6553538) | 0x059D       |     37 |              5 |
| [65535.39](#event-6553539) | 0x05C2       |    185 |             37 |
| [65535.40](#event-6553540) | 0x067B       |      7 |              3 |
| [65535.41](#event-6553541) | 0x0682       |      7 |              3 |
| [65535.42](#event-6553542) | 0x0689       |      6 |              2 |
| [65535.43](#event-6553543) | 0x068F       |      6 |              2 |
| [65535.44](#event-6553544) | 0x0695       |     12 |              4 |
| [65535.45](#event-6553545) | 0x06A1       |     16 |              3 |
| [65535.46](#event-6553546) | 0x06B1       |     41 |              5 |
| [65535.47](#event-6553547) | 0x06DA       |     24 |              4 |
| [65535.48](#event-6553548) | 0x06F2       |     24 |              4 |
| [65535.49](#event-6553549) | 0x070A       |     37 |              5 |
| [65535.50](#event-6553550) | 0x072F       |     37 |              5 |
| [65535.51](#event-6553551) | 0x0754       |     42 |              6 |
| [65535.52](#event-6553552) | 0x077E       |     29 |              5 |
| [65535.53](#event-6553553) | 0x079B       |     15 |              5 |
| [65535.54](#event-6553554) | 0x07AA       |     15 |              5 |
| [65535.55](#event-6553555) | 0x07B9       |     15 |              5 |
| [65535.56](#event-6553556) | 0x07C8       |     17 |              7 |
| [65535.57](#event-6553557) | 0x07D9       |     17 |              7 |
| [65535.58](#event-6553558) | 0x07EA       |     15 |              5 |
| [65535.59](#event-6553559) | 0x07F9       |     17 |              7 |
| [65535.60](#event-6553560) | 0x080A       |     15 |              5 |
| [65535.61](#event-6553561) | 0x0819       |     13 |              3 |
| [65535.62](#event-6553562) | 0x0826       |     13 |              3 |
| [65535.63](#event-6553563) | 0x0833       |     13 |              3 |
| [65535.64](#event-6553564) | 0x0840       |     13 |              3 |
| [65535.65](#event-6553565) | 0x084D       |     13 |              3 |
| [65535.66](#event-6553566) | 0x085A       |     13 |              3 |
| [65535.67](#event-6553567) | 0x0867       |     13 |              3 |
| [65535.68](#event-6553568) | 0x0874       |     22 |              8 |
| [65535.69](#event-6553569) | 0x088A       |     22 |              8 |
| [65535.70](#event-6553570) | 0x08A0       |     26 |              7 |

## DAT References (imed_data)

|   Index | Hex Value   |   Dec Value |
|---------|-------------|-------------|
|       0 | 0x00C8      |         200 |
|       1 | 0x0000      |           0 |
|       2 | 0x0013      |          19 |
|       3 | 0x2BCB3     |      179379 |
|       4 | 0x14120     |       82208 |
|       5 | 0xFFFF7F3D  |  4294934333 |
|       6 | 0x07AF      |        1967 |
|       7 | 0x0001      |           1 |
|       8 | 0x000C      |          12 |
|       9 | 0x0078      |         120 |
|      10 | 0x0003      |           3 |
|      11 | 0x52534     |      337204 |
|      12 | 0xFFFA41D3  |  4294590931 |
|      13 | 0xFFFFFF75  |  4294967157 |
|      14 | 0x0288      |         648 |
|      15 | 0x00D0      |         208 |
|      16 | 0x000D      |          13 |
|      17 | 0x52A17     |      338455 |
|      18 | 0xFFFA3A66  |  4294589030 |
|      19 | 0x009D      |         157 |
|      20 | 0x003C      |          60 |
|      21 | 0x00E1      |         225 |
|      22 | 0x1E3B      |        7739 |
|      23 | 0x000A      |          10 |
|      24 | 0x1E3D      |        7741 |
|      25 | 0x911ED     |      594413 |
|      26 | 0xFFFC09BD  |  4294707645 |
|      27 | 0x0110      |         272 |
|      28 | 0x081E      |        2078 |
|      29 | 0x8FB34     |      588596 |
|      30 | 0xFFFC05EF  |  4294706671 |
|      31 | 0xFFFFFF28  |  4294967080 |
|      32 | 0x25029     |      151593 |
|      33 | 0xFFFF698A  |  4294928778 |
|      34 | 0xFFFFADC8  |  4294946248 |
|      35 | 0x01C9      |         457 |
|      36 | 0x24AD6     |      150230 |
|      37 | 0xFFFF49CE  |  4294920654 |
|      38 | 0xFFFFC285  |  4294951557 |
|      39 | 0x065D      |        1629 |
|      40 | 0x25ACC     |      154316 |
|      41 | 0xFFFF5F60  |  4294926176 |
|      42 | 0xFFFFAE1D  |  4294946333 |
|      43 | 0x067A      |        1658 |
|      44 | 0xFFFC2123  |  4294713635 |
|      45 | 0xFFFDC672  |  4294821490 |
|      46 | 0xFFFFC63A  |  4294952506 |
|      47 | 0x0420      |        1056 |
|      48 | 0xFFFC1A6D  |  4294711917 |
|      49 | 0xFFFD7268  |  4294799976 |
|      50 | 0xFFFFBB8E  |  4294949774 |
|      51 | 0x055B      |        1371 |
|      52 | 0xFFFC1869  |  4294711401 |
|      53 | 0xFFFD6886  |  4294797446 |
|      54 | 0xFFFFBBA7  |  4294949799 |
|      55 | 0x0489      |        1161 |
|      56 | 0xFFFB830A  |  4294673162 |
|      57 | 0x221F1     |      139761 |
|      58 | 0xFFFFA738  |  4294944568 |
|      59 | 0x0C34      |        3124 |
|      60 | 0x30CBF     |      199871 |
|      61 | 0xFFFE2219  |  4294844953 |
|      62 | 0xFFFFA240  |  4294943296 |
|      63 | 0x0227      |         551 |
|      64 | 0x21D4A     |      138570 |
|      65 | 0x1DC79     |      121977 |
|      66 | 0xFFFFF830  |  4294965296 |
|      67 | 0x086F      |        2159 |
|      68 | 0x1807D     |       98429 |
|      69 | 0xFFFEFF25  |  4294901541 |
|      70 | 0x03E4      |         996 |
|      71 | 0x04E3      |        1251 |
|      72 | 0xFFFCB26E  |  4294750830 |
|      73 | 0xFFFE9627  |  4294874663 |
|      74 | 0xFFFFFF0B  |  4294967051 |
|      75 | 0x09F7      |        2551 |
|      76 | 0x8B2F      |       35631 |
|      77 | 0xFFFF3AAD  |  4294916781 |
|      78 | 0x2329      |        9001 |
|      79 | 0x09EC      |        2540 |
|      80 | 0x27692     |      161426 |
|      81 | 0x274F7     |      161015 |
|      82 | 0x05F8      |        1528 |
|      83 | 0x1C843     |      116803 |
|      84 | 0xFFFEE69B  |  4294895259 |
|      85 | 0x07F9      |        2041 |
|      86 | 0xFFFC8339  |  4294738745 |
|      87 | 0xFFFE2B86  |  4294847366 |
|      88 | 0xFFFFFF07  |  4294967047 |
|      89 | 0x0FFD      |        4093 |
|      90 | 0xBF7E      |       49022 |
|      91 | 0xFFFEE2B4  |  4294894260 |
|      92 | 0x2712      |       10002 |
|      93 | 0x0C0F      |        3087 |
|      94 | 0x185ED     |       99821 |
|      95 | 0xFFFEFF9F  |  4294901663 |
|      96 | 0x0312      |         786 |
|      97 | 0x21BAA     |      138154 |
|      98 | 0x1D514     |      120084 |
|      99 | 0x0E96      |        3734 |
|     100 | 0xFFFCB3AF  |  4294751151 |
|     101 | 0xFFFE90C0  |  4294873280 |
|     102 | 0xFFFFFF72  |  4294967154 |
|     103 | 0x084B      |        2123 |
|     104 | 0x8B65      |       35685 |
|     105 | 0xFFFF3C2F  |  4294917167 |
|     106 | 0x065B      |        1627 |
|     107 | 0xFFFBBF41  |  4294688577 |
|     108 | 0xFFF9A232  |  4294550066 |
|     109 | 0xFFFF641B  |  4294927387 |
|     110 | 0x0AA6      |        2726 |
|     111 | 0x8B7BE     |      571326 |
|     112 | 0xFFFBD923  |  4294695203 |
|     113 | 0xFFFFFEA3  |  4294966947 |
|     114 | 0x01A6      |         422 |
|     115 | 0xFFFBB61F  |  4294686239 |
|     116 | 0xFFF9928F  |  4294546063 |
|     117 | 0xFFFF648E  |  4294927502 |
|     118 | 0x0704      |        1796 |
|     119 | 0x88F90     |      561040 |
|     120 | 0xFFFBC607  |  4294690311 |
|     121 | 0x06C5      |        1733 |
|     122 | 0xFFFA88AC  |  4294609068 |
|     123 | 0x4DDD      |       19933 |
|     124 | 0xFFFF7744  |  4294932292 |
|     125 | 0x0831      |        2097 |
|     126 | 0x1DA71     |      121457 |
|     127 | 0x1C391     |      115601 |
|     128 | 0xFFFFE0D3  |  4294959315 |
|     129 | 0x0DA9      |        3497 |
|     130 | 0x25BC9     |      154569 |
|     131 | 0xFFFD5734  |  4294793012 |
|     132 | 0x091C      |        2332 |
|     133 | 0xFFFFC3F3  |  4294951923 |
|     134 | 0x19656     |      104022 |
|     135 | 0xFFFFBC6C  |  4294949996 |
|     136 | 0x0379      |         889 |
|     137 | 0x0286      |         646 |
|     138 | 0xFFFF97B9  |  4294940601 |
|     139 | 0xFFFFE43B  |  4294960187 |
|     140 | 0x0689      |        1673 |
|     141 | 0xFFFFFFD1  |  4294967249 |
|     142 | 0xFFFF80F7  |  4294934775 |
|     143 | 0xFFFFA435  |  4294943797 |
|     144 | 0x03FD      |        1021 |
|     145 | 0x0005      |           5 |
|     146 | 0x0002      |           2 |
|     147 | 0x0009      |           9 |
|     148 | 0x0046      |          70 |
|     149 | 0x008C      |         140 |
|     150 | 0x00D2      |         210 |
|     151 | 0x1D6F4     |      120564 |
|     152 | 0xFFFE3309  |  4294849289 |
|     153 | 0xFFFF8F9A  |  4294938522 |
|     154 | 0x41E75     |      269941 |
|     155 | 0xFFFED8E5  |  4294891749 |
|     156 | 0xFFFFE1D6  |  4294959574 |
|     157 | 0x0BFE      |        3070 |
|     158 | 0x0094      |         148 |
|     159 | 0x00F0      |         240 |
|     160 | 0x86E10     |      552464 |
|     161 | 0xFFFBC99F  |  4294691231 |
|     162 | 0x00AF      |         175 |
|     163 | 0x877D1     |      554961 |
|     164 | 0xFFFBABE8  |  4294683624 |
|     165 | 0x0032      |          50 |
|     166 | 0x887D7     |      559063 |
|     167 | 0xFFFBAB85  |  4294683525 |
|     168 | 0x8786B     |      555115 |
|     169 | 0xFFFBABC0  |  4294683584 |
|     170 | 0x002B      |          43 |
|     171 | 0x8943D     |      562237 |
|     172 | 0xFFFBACB2  |  4294683826 |
|     173 | 0x8AFE7     |      569319 |
|     174 | 0xFFFBC9A5  |  4294691237 |
|     175 | 0xFFFFFDFA  |  4294966778 |
|     176 | 0x8A333     |      566067 |
|     177 | 0xFFFBCA3F  |  4294691391 |
|     178 | 0xFFFFFF98  |  4294967192 |
|     179 | 0xFFF9D1F9  |  4294562297 |
|     180 | 0x4E1A      |       19994 |
|     181 | 0xFFFF57BB  |  4294924219 |
|     182 | 0x062B      |        1579 |
|     183 | 0x032B      |         811 |
|     184 | 0x042B      |        1067 |
|     185 | 0x012B      |         299 |
|     186 | 0x052B      |        1323 |
|     187 | 0x022B      |         555 |
|     188 | 0x895DD     |      562653 |
|     189 | 0xFFFBAB0C  |  4294683404 |
|     190 | 0x89105     |      561413 |
|     191 | 0xFFFBB025  |  4294684709 |

## String References

- **7739**: You bury the $3 in the snow. It will take some time for it to become purified.
- **7741**: The $3 you buried has become purified! Something is engraved on the ring, but you cannot read it.

## Events

### Event 65535

#### Metadata

| Field        | Value   |
|--------------|---------|
| Entrypoint   | 0x0000  |
| Data Size    | 1 bytes |
| Instructions | 1       |

```
      00 01 02 03 04 05 06 07  08 09 0A 0B 0C 0D 0E 0F
      -- -- -- -- -- -- -- --  -- -- -- -- -- -- -- --
0000: 00                                                .               
```

#### Opcodes

```
  0: 0x0000 [0x00] END_REQSTACK()
```

### Event 65534

#### Metadata

| Field        | Value   |
|--------------|---------|
| Entrypoint   | 0x0001  |
| Data Size    | 1 bytes |
| Instructions | 1       |

```
      00 01 02 03 04 05 06 07  08 09 0A 0B 0C 0D 0E 0F
      -- -- -- -- -- -- -- --  -- -- -- -- -- -- -- --
0000:    00                                              .              
```

#### Opcodes

```
  0: 0x0001 [0x00] END_REQSTACK()
```

### Event 12

#### Metadata

| Field        | Value     |
|--------------|-----------|
| Entrypoint   | 0x0002    |
| Data Size    | 276 bytes |
| Instructions | 30        |

```
      00 01 02 03 04 05 06 07  08 09 0A 0B 0C 0D 0E 0F
      -- -- -- -- -- -- -- --  -- -- -- -- -- -- -- --
0000:       20 01 42 46 01 45  00 80 F0 FF FF 7F F0 FF     .BF.E........
0010: FF 7F 66 64 6F 31 01 80  55 00 80 F0 FF FF 7F F0  ..fdo1..U.......
0020: FF FF 7F 66 64 6F 31 38  02 80 79 00 F0 FF FF 7F  ...fdo18..y.....
0030: 5C 01 07 01 37 03 80 04  80 05 80 06 80 97 01 80  \...7...........
0040: 07 80 45 08 80 F0 FF FF  7F F0 FF FF 7F 61 30 30  ..E..........a00
0050: 30 01 80 55 08 80 F0 FF  FF 7F F0 FF FF 7F 61 30  0..U..........a0
0060: 30 30 45 00 80 F0 FF FF  7F F0 FF FF 7F 66 64 69  00E..........fdi
0070: 31 01 80 55 00 80 F0 FF  FF 7F F0 FF FF 7F 66 64  1..U..........fd
0080: 69 31 03 00 00 07 7F 1A  E7 05 66 01 00 F0 FF FF  i1........f.....
0090: 7F F0 FF FF 7F 73 68 61  30 53 F0 FF FF 7F F0 FF  .....sha0S......
00A0: FF 7F 73 68 61 30 1C 09  80 62 0A 80 5C 01 07 01  ..sha0...b..\...
00B0: 5C 01 07 01 6D 61 69 6E  01 80 1C 09 80 03 00 00  \...main........
00C0: 07 7F 1A E7 05 66 01 00  F0 FF FF 7F F0 FF FF 7F  .....f..........
00D0: 73 68 61 31 53 F0 FF FF  7F F0 FF FF 7F 73 68 61  sha1S........sha
00E0: 31 45 00 80 F0 FF FF 7F  F0 FF FF 7F 66 64 6F 32  1E..........fdo2
00F0: 01 80 55 00 80 F0 FF FF  7F F0 FF FF 7F 66 64 6F  ..U..........fdo
0100: 32 46 00 45 00 80 F0 FF  FF 7F F0 FF FF 7F 66 64  2F.E..........fd
0110: 69 32 01 80 21 00                                 i2..!.          
```

#### Opcodes

```
  0: 0x0002 [0x20] SET_CLI_EVENT_UC_FLAG: Lock player control
  1: 0x0004 [0x42] SET_CLI_EVENT_CANCEL_DATA()
  2: 0x0005 [0x46] CAMERA_CONTROL: Disable user control
  3: 0x0007 [0x45] LOAD_SCHEDULED_TASK: Load scheduler "fdo1" with entities [LocalPlayer, LocalPlayer], work=[200*, 0*]
  4: 0x0018 [0x55] WAIT_LOAD_SCHEDULER: Wait for scheduler "fdo1" with entities [LocalPlayer, LocalPlayer], work=200*
  5: 0x0027 [0x38] SET_CLIENT_EVENT_MODE(mode=19*)
  6: 0x002A [0x79] LocalPlayer looks at ??? (ID: 17236316/0x0107015C) (Basic look)
  7: 0x0034 [0x37] UPDATE_EVENT_POSITION_AND_DIR: x=179.379*, z=82.208*, y=-32.963*, direction=172.9°*
  8: 0x003D [0x97] SAVE_SET_WIND_VALUES(wind_base=0x8001, wind_width=0x8007)
  9: 0x0042 [0x45] LOAD_SCHEDULED_TASK: Load scheduler "a000" with entities [LocalPlayer, LocalPlayer], work=[12*, 0*]
 10: 0x0053 [0x55] WAIT_LOAD_SCHEDULER: Wait for scheduler "a000" with entities [LocalPlayer, LocalPlayer], work=12*
 11: 0x0062 [0x45] LOAD_SCHEDULED_TASK: Load scheduler "fdi1" with entities [LocalPlayer, LocalPlayer], work=[200*, 0*]
 12: 0x0073 [0x55] WAIT_LOAD_SCHEDULER: Wait for scheduler "fdi1" with entities [LocalPlayer, LocalPlayer], work=200*
 13: 0x0082 [0x03] ExtData[1]->WorkLocal[0] = Entity->Race
 14: 0x0087 [0x1A] CALL_SUBROUTINE(address=0x05E7)
 15: 0x008A [0x66] LOAD_EXT_SCHEDULER_MAIN: Load scheduler "sha0" with entities [LocalPlayer, LocalPlayer], work=ExtData[1]->WorkLocal[1]
 16: 0x0099 [0x53] WAIT_SCHEDULER_TASK: Wait for scheduler "sha0" with entities [LocalPlayer, LocalPlayer]
 17: 0x00A6 [0x1C] WAIT(120* ticks)
 18: 0x00A9 [0x62] LOAD_EVENT_SCHEDULER: Load scheduler "main" with entities [??? (ID: 17236316/0x0107015C), ??? (ID: 17236316/0x0107015C)], work=[3*, 0*]
 19: 0x00BA [0x1C] WAIT(120* ticks)
 20: 0x00BD [0x03] ExtData[1]->WorkLocal[0] = Entity->Race
 21: 0x00C2 [0x1A] CALL_SUBROUTINE(address=0x05E7)
 22: 0x00C5 [0x66] LOAD_EXT_SCHEDULER_MAIN: Load scheduler "sha1" with entities [LocalPlayer, LocalPlayer], work=ExtData[1]->WorkLocal[1]
 23: 0x00D4 [0x53] WAIT_SCHEDULER_TASK: Wait for scheduler "sha1" with entities [LocalPlayer, LocalPlayer]
 24: 0x00E1 [0x45] LOAD_SCHEDULED_TASK: Load scheduler "fdo2" with entities [LocalPlayer, LocalPlayer], work=[200*, 0*]
 25: 0x00F2 [0x55] WAIT_LOAD_SCHEDULER: Wait for scheduler "fdo2" with entities [LocalPlayer, LocalPlayer], work=200*
 26: 0x0101 [0x46] CAMERA_CONTROL: Restore default settings
 27: 0x0103 [0x45] LOAD_SCHEDULED_TASK: Load scheduler "fdi2" with entities [LocalPlayer, LocalPlayer], work=[200*, 0*]
 28: 0x0114 [0x21] END_EVENT
 29: 0x0115 [0x00] END_REQSTACK()
```

### Event 3

#### Metadata

| Field        | Value     |
|--------------|-----------|
| Entrypoint   | 0x0116    |
| Data Size    | 404 bytes |
| Instructions | 41        |

```
      00 01 02 03 04 05 06 07  08 09 0A 0B 0C 0D 0E 0F
      -- -- -- -- -- -- -- --  -- -- -- -- -- -- -- --
0110:                   20 01  42 46 01 45 00 80 F0 FF         .BF.E....
0120: FF 7F F0 FF FF 7F 66 64  6F 31 01 80 55 00 80 F0  ......fdo1..U...
0130: FF FF 7F F0 FF FF 7F 66  64 6F 31 38 02 80 37 0B  .......fdo18..7.
0140: 80 0C 80 0D 80 0E 80 45  0F 80 F0 FF FF 7F F0 FF  .......E........
0150: FF 7F 74 30 30 30 01 80  55 0F 80 F0 FF FF 7F F0  ..t000..U.......
0160: FF FF 7F 74 30 30 30 45  00 80 F0 FF FF 7F F0 FF  ...t000E........
0170: FF 7F 66 64 69 31 01 80  55 00 80 F0 FF FF 7F F0  ..fdi1..U.......
0180: FF FF 7F 66 64 69 31 32  10 80 1F 00 11 80 12 80  ...fdi12........
0190: 13 80 1F 01 6F 03 00 00  07 7F 1A E7 05 66 01 00  ....o........f..
01A0: F0 FF FF 7F F0 FF FF 7F  73 68 61 30 53 F0 FF FF  ........sha0S...
01B0: 7F F0 FF FF 7F 73 68 61  30 45 00 80 F0 FF FF 7F  .....sha0E......
01C0: F0 FF FF 7F 66 64 6F 31  01 80 55 00 80 F0 FF FF  ....fdo1..U.....
01D0: 7F F0 FF FF 7F 66 64 6F  31 1C 14 80 45 0F 80 F0  .....fdo1...E...
01E0: FF FF 7F F0 FF FF 7F 74  30 30 31 01 80 55 0F 80  .......t001..U..
01F0: F0 FF FF 7F F0 FF FF 7F  74 30 30 31 45 00 80 F0  ........t001E...
0200: FF FF 7F F0 FF FF 7F 66  64 69 31 01 80 55 00 80  .......fdi1..U..
0210: F0 FF FF 7F F0 FF FF 7F  66 64 69 31 62 0A 80 5B  ........fdi1b..[
0220: 01 07 01 5B 01 07 01 6D  61 69 6E 01 80 1C 14 80  ...[...main.....
0230: 45 0F 80 F0 FF FF 7F F0  FF FF 7F 74 30 31 33 01  E..........t013.
0240: 80 66 01 00 F0 FF FF 7F  F0 FF FF 7F 73 68 61 31  .f..........sha1
0250: 53 F0 FF FF 7F F0 FF FF  7F 73 68 61 31 55 0F 80  S........sha1U..
0260: F0 FF FF 7F F0 FF FF 7F  74 30 31 33 03 02 10 15  ........t013....
0270: 80 48 16 80 23 45 00 80  F0 FF FF 7F F0 FF FF 7F  .H..#E..........
0280: 66 64 6F 32 01 80 55 00  80 F0 FF FF 7F F0 FF FF  fdo2..U.........
0290: 7F 66 64 6F 32 46 00 45  00 80 F0 FF FF 7F F0 FF  .fdo2F.E........
02A0: FF 7F 66 64 69 32 01 80  21 00                    ..fdi2..!.      
```

#### Opcodes

```
  0: 0x0116 [0x20] SET_CLI_EVENT_UC_FLAG: Lock player control
  1: 0x0118 [0x42] SET_CLI_EVENT_CANCEL_DATA()
  2: 0x0119 [0x46] CAMERA_CONTROL: Disable user control
  3: 0x011B [0x45] LOAD_SCHEDULED_TASK: Load scheduler "fdo1" with entities [LocalPlayer, LocalPlayer], work=[200*, 0*]
  4: 0x012C [0x55] WAIT_LOAD_SCHEDULER: Wait for scheduler "fdo1" with entities [LocalPlayer, LocalPlayer], work=200*
  5: 0x013B [0x38] SET_CLIENT_EVENT_MODE(mode=19*)
  6: 0x013E [0x37] UPDATE_EVENT_POSITION_AND_DIR: x=337.204*, z=-376.365*, y=-0.139*, direction=57.0°*
  7: 0x0147 [0x45] LOAD_SCHEDULED_TASK: Load scheduler "t000" with entities [LocalPlayer, LocalPlayer], work=[208*, 0*]
  8: 0x0158 [0x55] WAIT_LOAD_SCHEDULER: Wait for scheduler "t000" with entities [LocalPlayer, LocalPlayer], work=208*
  9: 0x0167 [0x45] LOAD_SCHEDULED_TASK: Load scheduler "fdi1" with entities [LocalPlayer, LocalPlayer], work=[200*, 0*]
 10: 0x0178 [0x55] WAIT_LOAD_SCHEDULER: Wait for scheduler "fdi1" with entities [LocalPlayer, LocalPlayer], work=200*
 11: 0x0187 [0x32] ExtData[1]->MainSpeed = 13* * 0.1
 12: 0x018A [0x1F] MOVE_ENTITY: EventEntity moves to X=338.455*, Z=-378.266*, Y=0.157*
 13: 0x0192 [0x1F] MOVE_ENTITY: Update entity position (mode=1)
 14: 0x0194 [0x6F] WAIT_FRAME_DELAY: Yield until WaitTime reaches zero
 15: 0x0195 [0x03] ExtData[1]->WorkLocal[0] = Entity->Race
 16: 0x019A [0x1A] CALL_SUBROUTINE(address=0x05E7)
 17: 0x019D [0x66] LOAD_EXT_SCHEDULER_MAIN: Load scheduler "sha0" with entities [LocalPlayer, LocalPlayer], work=ExtData[1]->WorkLocal[1]
 18: 0x01AC [0x53] WAIT_SCHEDULER_TASK: Wait for scheduler "sha0" with entities [LocalPlayer, LocalPlayer]
 19: 0x01B9 [0x45] LOAD_SCHEDULED_TASK: Load scheduler "fdo1" with entities [LocalPlayer, LocalPlayer], work=[200*, 0*]
 20: 0x01CA [0x55] WAIT_LOAD_SCHEDULER: Wait for scheduler "fdo1" with entities [LocalPlayer, LocalPlayer], work=200*
 21: 0x01D9 [0x1C] WAIT(60* ticks)
 22: 0x01DC [0x45] LOAD_SCHEDULED_TASK: Load scheduler "t001" with entities [LocalPlayer, LocalPlayer], work=[208*, 0*]
 23: 0x01ED [0x55] WAIT_LOAD_SCHEDULER: Wait for scheduler "t001" with entities [LocalPlayer, LocalPlayer], work=208*
 24: 0x01FC [0x45] LOAD_SCHEDULED_TASK: Load scheduler "fdi1" with entities [LocalPlayer, LocalPlayer], work=[200*, 0*]
 25: 0x020D [0x55] WAIT_LOAD_SCHEDULER: Wait for scheduler "fdi1" with entities [LocalPlayer, LocalPlayer], work=200*
 26: 0x021C [0x62] LOAD_EVENT_SCHEDULER: Load scheduler "main" with entities [Perennial Snow (ID: 17236315/0x0107015B), Perennial Snow (ID: 17236315/0x0107015B)], work=[3*, 0*]
 27: 0x022D [0x1C] WAIT(60* ticks)
 28: 0x0230 [0x45] LOAD_SCHEDULED_TASK: Load scheduler "t013" with entities [LocalPlayer, LocalPlayer], work=[208*, 0*]
 29: 0x0241 [0x66] LOAD_EXT_SCHEDULER_MAIN: Load scheduler "sha1" with entities [LocalPlayer, LocalPlayer], work=ExtData[1]->WorkLocal[1]
 30: 0x0250 [0x53] WAIT_SCHEDULER_TASK: Wait for scheduler "sha1" with entities [LocalPlayer, LocalPlayer]
 31: 0x025D [0x55] WAIT_LOAD_SCHEDULER: Wait for scheduler "t013" with entities [LocalPlayer, LocalPlayer], work=208*
 32: 0x026C [0x03] Work_Zone[2] = 225*
 33: 0x0271 [0x48] [System] [7739*]:
    → "You bury the $3 in the snow. It will take some time for it to become purified."
 34: 0x0274 [0x23] WAIT_FOR_DIALOG_INTERACTION
 35: 0x0275 [0x45] LOAD_SCHEDULED_TASK: Load scheduler "fdo2" with entities [LocalPlayer, LocalPlayer], work=[200*, 0*]
 36: 0x0286 [0x55] WAIT_LOAD_SCHEDULER: Wait for scheduler "fdo2" with entities [LocalPlayer, LocalPlayer], work=200*
 37: 0x0295 [0x46] CAMERA_CONTROL: Restore default settings
 38: 0x0297 [0x45] LOAD_SCHEDULED_TASK: Load scheduler "fdi2" with entities [LocalPlayer, LocalPlayer], work=[200*, 0*]
 39: 0x02A8 [0x21] END_EVENT
 40: 0x02A9 [0x00] END_REQSTACK()
```

### Event 2

#### Metadata

| Field        | Value     |
|--------------|-----------|
| Entrypoint   | 0x02AA    |
| Data Size    | 382 bytes |
| Instructions | 40        |

```
      00 01 02 03 04 05 06 07  08 09 0A 0B 0C 0D 0E 0F
      -- -- -- -- -- -- -- --  -- -- -- -- -- -- -- --
02A0:                                20 01 42 46 01 45             .BF.E
02B0: 00 80 F0 FF FF 7F F0 FF  FF 7F 66 64 6F 31 01 80  ..........fdo1..
02C0: 55 00 80 F0 FF FF 7F F0  FF FF 7F 66 64 6F 31 38  U..........fdo18
02D0: 02 80 37 0B 80 0C 80 0D  80 0E 80 45 0F 80 F0 FF  ..7........E....
02E0: FF 7F F0 FF FF 7F 74 30  30 32 01 80 55 0F 80 F0  ......t002..U...
02F0: FF FF 7F F0 FF FF 7F 74  30 30 32 45 00 80 F0 FF  .......t002E....
0300: FF 7F F0 FF FF 7F 66 64  69 31 01 80 55 00 80 F0  ......fdi1..U...
0310: FF FF 7F F0 FF FF 7F 66  64 69 31 32 10 80 1F 00  .......fdi12....
0320: 11 80 12 80 13 80 1F 01  6F 03 00 00 07 7F 1A E7  ........o.......
0330: 05 66 01 00 F0 FF FF 7F  F0 FF FF 7F 73 68 61 30  .f..........sha0
0340: 53 F0 FF FF 7F F0 FF FF  7F 73 68 61 30 1C 17 80  S........sha0...
0350: 62 0A 80 5B 01 07 01 5B  01 07 01 6D 61 69 6E 01  b..[...[...main.
0360: 80 1C 14 80 45 00 80 F0  FF FF 7F F0 FF FF 7F 66  ....E..........f
0370: 64 6F 31 01 80 55 00 80  F0 FF FF 7F F0 FF FF 7F  do1..U..........
0380: 66 64 6F 31 79 00 F0 FF  FF 7F F0 FF FF 7F 45 0F  fdo1y.........E.
0390: 80 F0 FF FF 7F F0 FF FF  7F 74 30 30 33 01 80 55  .........t003..U
03A0: 0F 80 F0 FF FF 7F F0 FF  FF 7F 74 30 30 33 45 00  ..........t003E.
03B0: 80 F0 FF FF 7F F0 FF FF  7F 66 64 69 31 01 80 55  .........fdi1..U
03C0: 00 80 F0 FF FF 7F F0 FF  FF 7F 66 64 69 31 66 01  ..........fdi1f.
03D0: 00 F0 FF FF 7F F0 FF FF  7F 73 68 61 31 53 F0 FF  .........sha1S..
03E0: FF 7F F0 FF FF 7F 73 68  61 31 03 02 10 15 80 48  ......sha1.....H
03F0: 18 80 23 45 00 80 F0 FF  FF 7F F0 FF FF 7F 66 64  ..#E..........fd
0400: 6F 32 01 80 55 00 80 F0  FF FF 7F F0 FF FF 7F 66  o2..U..........f
0410: 64 6F 32 46 00 45 00 80  F0 FF FF 7F F0 FF FF 7F  do2F.E..........
0420: 66 64 69 32 01 80 21 00                           fdi2..!.        
```

#### Opcodes

```
  0: 0x02AA [0x20] SET_CLI_EVENT_UC_FLAG: Lock player control
  1: 0x02AC [0x42] SET_CLI_EVENT_CANCEL_DATA()
  2: 0x02AD [0x46] CAMERA_CONTROL: Disable user control
  3: 0x02AF [0x45] LOAD_SCHEDULED_TASK: Load scheduler "fdo1" with entities [LocalPlayer, LocalPlayer], work=[200*, 0*]
  4: 0x02C0 [0x55] WAIT_LOAD_SCHEDULER: Wait for scheduler "fdo1" with entities [LocalPlayer, LocalPlayer], work=200*
  5: 0x02CF [0x38] SET_CLIENT_EVENT_MODE(mode=19*)
  6: 0x02D2 [0x37] UPDATE_EVENT_POSITION_AND_DIR: x=337.204*, z=-376.365*, y=-0.139*, direction=57.0°*
  7: 0x02DB [0x45] LOAD_SCHEDULED_TASK: Load scheduler "t002" with entities [LocalPlayer, LocalPlayer], work=[208*, 0*]
  8: 0x02EC [0x55] WAIT_LOAD_SCHEDULER: Wait for scheduler "t002" with entities [LocalPlayer, LocalPlayer], work=208*
  9: 0x02FB [0x45] LOAD_SCHEDULED_TASK: Load scheduler "fdi1" with entities [LocalPlayer, LocalPlayer], work=[200*, 0*]
 10: 0x030C [0x55] WAIT_LOAD_SCHEDULER: Wait for scheduler "fdi1" with entities [LocalPlayer, LocalPlayer], work=200*
 11: 0x031B [0x32] ExtData[1]->MainSpeed = 13* * 0.1
 12: 0x031E [0x1F] MOVE_ENTITY: EventEntity moves to X=338.455*, Z=-378.266*, Y=0.157*
 13: 0x0326 [0x1F] MOVE_ENTITY: Update entity position (mode=1)
 14: 0x0328 [0x6F] WAIT_FRAME_DELAY: Yield until WaitTime reaches zero
 15: 0x0329 [0x03] ExtData[1]->WorkLocal[0] = Entity->Race
 16: 0x032E [0x1A] CALL_SUBROUTINE(address=0x05E7)
 17: 0x0331 [0x66] LOAD_EXT_SCHEDULER_MAIN: Load scheduler "sha0" with entities [LocalPlayer, LocalPlayer], work=ExtData[1]->WorkLocal[1]
 18: 0x0340 [0x53] WAIT_SCHEDULER_TASK: Wait for scheduler "sha0" with entities [LocalPlayer, LocalPlayer]
 19: 0x034D [0x1C] WAIT(10* ticks)
 20: 0x0350 [0x62] LOAD_EVENT_SCHEDULER: Load scheduler "main" with entities [Perennial Snow (ID: 17236315/0x0107015B), Perennial Snow (ID: 17236315/0x0107015B)], work=[3*, 0*]
 21: 0x0361 [0x1C] WAIT(60* ticks)
 22: 0x0364 [0x45] LOAD_SCHEDULED_TASK: Load scheduler "fdo1" with entities [LocalPlayer, LocalPlayer], work=[200*, 0*]
 23: 0x0375 [0x55] WAIT_LOAD_SCHEDULER: Wait for scheduler "fdo1" with entities [LocalPlayer, LocalPlayer], work=200*
 24: 0x0384 [0x79] LocalPlayer looks at LocalPlayer (Basic look)
 25: 0x038E [0x45] LOAD_SCHEDULED_TASK: Load scheduler "t003" with entities [LocalPlayer, LocalPlayer], work=[208*, 0*]
 26: 0x039F [0x55] WAIT_LOAD_SCHEDULER: Wait for scheduler "t003" with entities [LocalPlayer, LocalPlayer], work=208*
 27: 0x03AE [0x45] LOAD_SCHEDULED_TASK: Load scheduler "fdi1" with entities [LocalPlayer, LocalPlayer], work=[200*, 0*]
 28: 0x03BF [0x55] WAIT_LOAD_SCHEDULER: Wait for scheduler "fdi1" with entities [LocalPlayer, LocalPlayer], work=200*
 29: 0x03CE [0x66] LOAD_EXT_SCHEDULER_MAIN: Load scheduler "sha1" with entities [LocalPlayer, LocalPlayer], work=ExtData[1]->WorkLocal[1]
 30: 0x03DD [0x53] WAIT_SCHEDULER_TASK: Wait for scheduler "sha1" with entities [LocalPlayer, LocalPlayer]
 31: 0x03EA [0x03] Work_Zone[2] = 225*
 32: 0x03EF [0x48] [System] [7741*]:
    → "The $3 you buried has become purified! Something is engraved on the ring, but you cannot read it."
 33: 0x03F2 [0x23] WAIT_FOR_DIALOG_INTERACTION
 34: 0x03F3 [0x45] LOAD_SCHEDULED_TASK: Load scheduler "fdo2" with entities [LocalPlayer, LocalPlayer], work=[200*, 0*]
 35: 0x0404 [0x55] WAIT_LOAD_SCHEDULER: Wait for scheduler "fdo2" with entities [LocalPlayer, LocalPlayer], work=200*
 36: 0x0413 [0x46] CAMERA_CONTROL: Restore default settings
 37: 0x0415 [0x45] LOAD_SCHEDULED_TASK: Load scheduler "fdi2" with entities [LocalPlayer, LocalPlayer], work=[200*, 0*]
 38: 0x0426 [0x21] END_EVENT
 39: 0x0427 [0x00] END_REQSTACK()
```

### Event 65535.1

#### Metadata

| Field        | Value    |
|--------------|----------|
| Entrypoint   | 0x0428   |
| Data Size    | 10 bytes |
| Instructions | 2        |

```
      00 01 02 03 04 05 06 07  08 09 0A 0B 0C 0D 0E 0F
      -- -- -- -- -- -- -- --  -- -- -- -- -- -- -- --
0420:                          37 19 80 1A 80 1B 80 1C          7.......
0430: 80 00                                             ..              
```

#### Opcodes

```
  0: 0x0428 [0x37] UPDATE_EVENT_POSITION_AND_DIR: x=594.413*, z=-259.651*, y=0.272*, direction=182.6°*
  1: 0x0431 [0x00] END_REQSTACK()
```

### Event 65535.2

#### Metadata

| Field        | Value    |
|--------------|----------|
| Entrypoint   | 0x0432   |
| Data Size    | 14 bytes |
| Instructions | 4        |

```
      00 01 02 03 04 05 06 07  08 09 0A 0B 0C 0D 0E 0F
      -- -- -- -- -- -- -- --  -- -- -- -- -- -- -- --
0430:       32 10 80 1F 00 1D  80 1E 80 1F 80 1F 01 00    2.............
```

#### Opcodes

```
  0: 0x0432 [0x32] ExtData[1]->MainSpeed = 13* * 0.1
  1: 0x0435 [0x1F] MOVE_ENTITY: EventEntity moves to X=588.596*, Z=-260.625*, Y=-0.216*
  2: 0x043D [0x1F] MOVE_ENTITY: Update entity position (mode=1)
  3: 0x043F [0x00] END_REQSTACK()
```

### Event 65535.3

#### Metadata

| Field        | Value    |
|--------------|----------|
| Entrypoint   | 0x0440   |
| Data Size    | 10 bytes |
| Instructions | 2        |

```
      00 01 02 03 04 05 06 07  08 09 0A 0B 0C 0D 0E 0F
      -- -- -- -- -- -- -- --  -- -- -- -- -- -- -- --
0440: 37 20 80 21 80 22 80 23  80 00                    7 .!.".#..      
```

#### Opcodes

```
  0: 0x0440 [0x37] UPDATE_EVENT_POSITION_AND_DIR: x=151.593*, z=-38.518*, y=-21.048*, direction=40.2°*
  1: 0x0449 [0x00] END_REQSTACK()
```

### Event 65535.4

#### Metadata

| Field        | Value    |
|--------------|----------|
| Entrypoint   | 0x044A   |
| Data Size    | 10 bytes |
| Instructions | 2        |

```
      00 01 02 03 04 05 06 07  08 09 0A 0B 0C 0D 0E 0F
      -- -- -- -- -- -- -- --  -- -- -- -- -- -- -- --
0440:                                37 24 80 25 80 26            7$.%.&
0450: 80 27 80 00                                       .'..            
```

#### Opcodes

```
  0: 0x044A [0x37] UPDATE_EVENT_POSITION_AND_DIR: x=150.230*, z=-46.642*, y=-15.739*, direction=143.2°*
  1: 0x0453 [0x00] END_REQSTACK()
```

### Event 65535.5

#### Metadata

| Field        | Value    |
|--------------|----------|
| Entrypoint   | 0x0454   |
| Data Size    | 27 bytes |
| Instructions | 7        |

```
      00 01 02 03 04 05 06 07  08 09 0A 0B 0C 0D 0E 0F
      -- -- -- -- -- -- -- --  -- -- -- -- -- -- -- --
0450:             32 10 80 1F  00 28 80 29 80 2A 80 1F      2....(.).*..
0460: 01 4B F0 FF FF 7F 2B 80  6F 76 F0 FF FF 7F 00     .K....+.ov..... 
```

#### Opcodes

```
  0: 0x0454 [0x32] ExtData[1]->MainSpeed = 13* * 0.1
  1: 0x0457 [0x1F] MOVE_ENTITY: EventEntity moves to X=154.316*, Z=-41.120*, Y=-20.963*
  2: 0x045F [0x1F] MOVE_ENTITY: Update entity position (mode=1)
  3: 0x0461 [0x4B] UPDATE_ENTITY_YAW(entity=LocalPlayer, yaw=9.1°*)
  4: 0x0468 [0x6F] WAIT_FRAME_DELAY: Yield until WaitTime reaches zero
  5: 0x0469 [0x76] CHECK_ENTITY_RENDER_FLAGS: Wait until LocalPlayer Render.Flags0 and Render.Flags3 conditions are met
  6: 0x046E [0x00] END_REQSTACK()
```

### Event 65535.6

#### Metadata

| Field        | Value    |
|--------------|----------|
| Entrypoint   | 0x046F   |
| Data Size    | 10 bytes |
| Instructions | 2        |

```
      00 01 02 03 04 05 06 07  08 09 0A 0B 0C 0D 0E 0F
      -- -- -- -- -- -- -- --  -- -- -- -- -- -- -- --
0460:                                               37                 7
0470: 2C 80 2D 80 2E 80 2F 80  00                       ,.-.../..       
```

#### Opcodes

```
  0: 0x046F [0x37] UPDATE_EVENT_POSITION_AND_DIR: x=-253.661*, z=-145.806*, y=-14.790*, direction=92.8°*
  1: 0x0478 [0x00] END_REQSTACK()
```

### Event 65535.7

#### Metadata

| Field        | Value    |
|--------------|----------|
| Entrypoint   | 0x0479   |
| Data Size    | 10 bytes |
| Instructions | 2        |

```
      00 01 02 03 04 05 06 07  08 09 0A 0B 0C 0D 0E 0F
      -- -- -- -- -- -- -- --  -- -- -- -- -- -- -- --
0470:                             37 30 80 31 80 32 80           70.1.2.
0480: 33 80 00                                          3..             
```

#### Opcodes

```
  0: 0x0479 [0x37] UPDATE_EVENT_POSITION_AND_DIR: x=-255.379*, z=-167.320*, y=-17.522*, direction=120.5°*
  1: 0x0482 [0x00] END_REQSTACK()
```

### Event 65535.8

#### Metadata

| Field        | Value    |
|--------------|----------|
| Entrypoint   | 0x0483   |
| Data Size    | 10 bytes |
| Instructions | 2        |

```
      00 01 02 03 04 05 06 07  08 09 0A 0B 0C 0D 0E 0F
      -- -- -- -- -- -- -- --  -- -- -- -- -- -- -- --
0480:          37 34 80 35 80  36 80 37 80 00              74.5.6.7..   
```

#### Opcodes

```
  0: 0x0483 [0x37] UPDATE_EVENT_POSITION_AND_DIR: x=-255.895*, z=-169.850*, y=-17.497*, direction=102.0°*
  1: 0x048C [0x00] END_REQSTACK()
```

### Event 65535.9

#### Metadata

| Field        | Value    |
|--------------|----------|
| Entrypoint   | 0x048D   |
| Data Size    | 10 bytes |
| Instructions | 2        |

```
      00 01 02 03 04 05 06 07  08 09 0A 0B 0C 0D 0E 0F
      -- -- -- -- -- -- -- --  -- -- -- -- -- -- -- --
0480:                                         37 38 80               78.
0490: 39 80 3A 80 3B 80 00                              9.:.;..         
```

#### Opcodes

```
  0: 0x048D [0x37] UPDATE_EVENT_POSITION_AND_DIR: x=-294.134*, z=139.761*, y=-22.728*, direction=274.6°*
  1: 0x0496 [0x00] END_REQSTACK()
```

### Event 65535.10

#### Metadata

| Field        | Value   |
|--------------|---------|
| Entrypoint   | 0x0497  |
| Data Size    | 6 bytes |
| Instructions | 2       |

```
      00 01 02 03 04 05 06 07  08 09 0A 0B 0C 0D 0E 0F
      -- -- -- -- -- -- -- --  -- -- -- -- -- -- -- --
0490:                      03  02 10 0B 7F 00                  ......   
```

#### Opcodes

```
  0: 0x0497 [0x03] Work_Zone[2] = (Entity->Render.Flags01 >> 25) & 1
  1: 0x049C [0x00] END_REQSTACK()
```

### Event 65535.11

#### Metadata

| Field        | Value   |
|--------------|---------|
| Entrypoint   | 0x049D  |
| Data Size    | 6 bytes |
| Instructions | 2       |

```
      00 01 02 03 04 05 06 07  08 09 0A 0B 0C 0D 0E 0F
      -- -- -- -- -- -- -- --  -- -- -- -- -- -- -- --
0490:                                         03 02 10               ...
04A0: 07 7F 00                                          ...             
```

#### Opcodes

```
  0: 0x049D [0x03] Work_Zone[2] = Entity->Race
  1: 0x04A2 [0x00] END_REQSTACK()
```

### Event 65535.12

#### Metadata

| Field        | Value   |
|--------------|---------|
| Entrypoint   | 0x04A3  |
| Data Size    | 6 bytes |
| Instructions | 2       |

```
      00 01 02 03 04 05 06 07  08 09 0A 0B 0C 0D 0E 0F
      -- -- -- -- -- -- -- --  -- -- -- -- -- -- -- --
04A0:          03 09 10 07 7F  00                          ......       
```

#### Opcodes

```
  0: 0x04A3 [0x03] Work_Zone[9] = Entity->Race
  1: 0x04A8 [0x00] END_REQSTACK()
```

### Event 65535.13

#### Metadata

| Field        | Value   |
|--------------|---------|
| Entrypoint   | 0x04A9  |
| Data Size    | 6 bytes |
| Instructions | 2       |

```
      00 01 02 03 04 05 06 07  08 09 0A 0B 0C 0D 0E 0F
      -- -- -- -- -- -- -- --  -- -- -- -- -- -- -- --
04A0:                             03 09 10 06 7F 00              ...... 
```

#### Opcodes

```
  0: 0x04A9 [0x03] Work_Zone[9] = Entity->JobId (if LocalPlayer)
  1: 0x04AE [0x00] END_REQSTACK()
```

### Event 65535.14

#### Metadata

| Field        | Value   |
|--------------|---------|
| Entrypoint   | 0x04AF  |
| Data Size    | 6 bytes |
| Instructions | 2       |

```
      00 01 02 03 04 05 06 07  08 09 0A 0B 0C 0D 0E 0F
      -- -- -- -- -- -- -- --  -- -- -- -- -- -- -- --
04A0:                                               03                 .
04B0: 08 10 06 7F 00                                    .....           
```

#### Opcodes

```
  0: 0x04AF [0x03] Work_Zone[8] = Entity->JobId (if LocalPlayer)
  1: 0x04B4 [0x00] END_REQSTACK()
```

### Event 65535.15

#### Metadata

| Field        | Value    |
|--------------|----------|
| Entrypoint   | 0x04B5   |
| Data Size    | 10 bytes |
| Instructions | 2        |

```
      00 01 02 03 04 05 06 07  08 09 0A 0B 0C 0D 0E 0F
      -- -- -- -- -- -- -- --  -- -- -- -- -- -- -- --
04B0:                37 3C 80  3D 80 3E 80 3F 80 00          7<.=.>.?.. 
```

#### Opcodes

```
  0: 0x04B5 [0x37] UPDATE_EVENT_POSITION_AND_DIR: x=199.871*, z=-122.343*, y=-24.000*, direction=48.4°*
  1: 0x04BE [0x00] END_REQSTACK()
```

### Event 65535.16

#### Metadata

| Field        | Value    |
|--------------|----------|
| Entrypoint   | 0x04BF   |
| Data Size    | 10 bytes |
| Instructions | 2        |

```
      00 01 02 03 04 05 06 07  08 09 0A 0B 0C 0D 0E 0F
      -- -- -- -- -- -- -- --  -- -- -- -- -- -- -- --
04B0:                                               37                 7
04C0: 40 80 41 80 42 80 43 80  00                       @.A.B.C..       
```

#### Opcodes

```
  0: 0x04BF [0x37] UPDATE_EVENT_POSITION_AND_DIR: x=138.570*, z=121.977*, y=-2.000*, direction=189.8°*
  1: 0x04C8 [0x00] END_REQSTACK()
```

### Event 65535.17

#### Metadata

| Field        | Value    |
|--------------|----------|
| Entrypoint   | 0x04C9   |
| Data Size    | 10 bytes |
| Instructions | 2        |

```
      00 01 02 03 04 05 06 07  08 09 0A 0B 0C 0D 0E 0F
      -- -- -- -- -- -- -- --  -- -- -- -- -- -- -- --
04C0:                             37 44 80 45 80 46 80           7D.E.F.
04D0: 47 80 00                                          G..             
```

#### Opcodes

```
  0: 0x04C9 [0x37] UPDATE_EVENT_POSITION_AND_DIR: x=98.429*, z=-65.755*, y=0.996*, direction=109.9°*
  1: 0x04D2 [0x00] END_REQSTACK()
```

### Event 65535.18

#### Metadata

| Field        | Value    |
|--------------|----------|
| Entrypoint   | 0x04D3   |
| Data Size    | 10 bytes |
| Instructions | 2        |

```
      00 01 02 03 04 05 06 07  08 09 0A 0B 0C 0D 0E 0F
      -- -- -- -- -- -- -- --  -- -- -- -- -- -- -- --
04D0:          37 48 80 49 80  4A 80 4B 80 00              7H.I.J.K..   
```

#### Opcodes

```
  0: 0x04D3 [0x37] UPDATE_EVENT_POSITION_AND_DIR: x=-216.466*, z=-92.633*, y=-0.245*, direction=224.2°*
  1: 0x04DC [0x00] END_REQSTACK()
```

### Event 65535.19

#### Metadata

| Field        | Value    |
|--------------|----------|
| Entrypoint   | 0x04DD   |
| Data Size    | 10 bytes |
| Instructions | 2        |

```
      00 01 02 03 04 05 06 07  08 09 0A 0B 0C 0D 0E 0F
      -- -- -- -- -- -- -- --  -- -- -- -- -- -- -- --
04D0:                                         37 4C 80               7L.
04E0: 4D 80 4E 80 4F 80 00                              M.N.O..         
```

#### Opcodes

```
  0: 0x04DD [0x37] UPDATE_EVENT_POSITION_AND_DIR: x=35.631*, z=-50.515*, y=9.001*, direction=223.2°*
  1: 0x04E6 [0x00] END_REQSTACK()
```

### Event 65535.20

#### Metadata

| Field        | Value    |
|--------------|----------|
| Entrypoint   | 0x04E7   |
| Data Size    | 10 bytes |
| Instructions | 2        |

```
      00 01 02 03 04 05 06 07  08 09 0A 0B 0C 0D 0E 0F
      -- -- -- -- -- -- -- --  -- -- -- -- -- -- -- --
04E0:                      37  50 80 51 80 42 80 52 80         7P.Q.B.R.
04F0: 00                                                .               
```

#### Opcodes

```
  0: 0x04E7 [0x37] UPDATE_EVENT_POSITION_AND_DIR: x=161.426*, z=161.015*, y=-2.000*, direction=134.3°*
  1: 0x04F0 [0x00] END_REQSTACK()
```

### Event 65535.21

#### Metadata

| Field        | Value    |
|--------------|----------|
| Entrypoint   | 0x04F1   |
| Data Size    | 10 bytes |
| Instructions | 2        |

```
      00 01 02 03 04 05 06 07  08 09 0A 0B 0C 0D 0E 0F
      -- -- -- -- -- -- -- --  -- -- -- -- -- -- -- --
04F0:    37 53 80 54 80 46 80  55 80 00                  7S.T.F.U..     
```

#### Opcodes

```
  0: 0x04F1 [0x37] UPDATE_EVENT_POSITION_AND_DIR: x=116.803*, z=-72.037*, y=0.996*, direction=179.4°*
  1: 0x04FA [0x00] END_REQSTACK()
```

### Event 65535.22

#### Metadata

| Field        | Value    |
|--------------|----------|
| Entrypoint   | 0x04FB   |
| Data Size    | 10 bytes |
| Instructions | 2        |

```
      00 01 02 03 04 05 06 07  08 09 0A 0B 0C 0D 0E 0F
      -- -- -- -- -- -- -- --  -- -- -- -- -- -- -- --
04F0:                                   37 56 80 57 80             7V.W.
0500: 58 80 59 80 00                                    X.Y..           
```

#### Opcodes

```
  0: 0x04FB [0x37] UPDATE_EVENT_POSITION_AND_DIR: x=-228.551*, z=-119.930*, y=-0.249*, direction=359.7°*
  1: 0x0504 [0x00] END_REQSTACK()
```

### Event 65535.23

#### Metadata

| Field        | Value    |
|--------------|----------|
| Entrypoint   | 0x0505   |
| Data Size    | 10 bytes |
| Instructions | 2        |

```
      00 01 02 03 04 05 06 07  08 09 0A 0B 0C 0D 0E 0F
      -- -- -- -- -- -- -- --  -- -- -- -- -- -- -- --
0500:                37 5A 80  5B 80 5C 80 5D 80 00          7Z.[.\.].. 
```

#### Opcodes

```
  0: 0x0505 [0x37] UPDATE_EVENT_POSITION_AND_DIR: x=49.022*, z=-73.036*, y=10.002*, direction=271.3°*
  1: 0x050E [0x00] END_REQSTACK()
```

### Event 65535.24

#### Metadata

| Field        | Value    |
|--------------|----------|
| Entrypoint   | 0x050F   |
| Data Size    | 10 bytes |
| Instructions | 2        |

```
      00 01 02 03 04 05 06 07  08 09 0A 0B 0C 0D 0E 0F
      -- -- -- -- -- -- -- --  -- -- -- -- -- -- -- --
0500:                                               37                 7
0510: 5E 80 5F 80 46 80 60 80  00                       ^._.F.`..       
```

#### Opcodes

```
  0: 0x050F [0x37] UPDATE_EVENT_POSITION_AND_DIR: x=99.821*, z=-65.633*, y=0.996*, direction=69.1°*
  1: 0x0518 [0x00] END_REQSTACK()
```

### Event 65535.25

#### Metadata

| Field        | Value    |
|--------------|----------|
| Entrypoint   | 0x0519   |
| Data Size    | 10 bytes |
| Instructions | 2        |

```
      00 01 02 03 04 05 06 07  08 09 0A 0B 0C 0D 0E 0F
      -- -- -- -- -- -- -- --  -- -- -- -- -- -- -- --
0510:                             37 61 80 62 80 42 80           7a.b.B.
0520: 63 80 00                                          c..             
```

#### Opcodes

```
  0: 0x0519 [0x37] UPDATE_EVENT_POSITION_AND_DIR: x=138.154*, z=120.084*, y=-2.000*, direction=328.2°*
  1: 0x0522 [0x00] END_REQSTACK()
```

### Event 65535.26

#### Metadata

| Field        | Value    |
|--------------|----------|
| Entrypoint   | 0x0523   |
| Data Size    | 10 bytes |
| Instructions | 2        |

```
      00 01 02 03 04 05 06 07  08 09 0A 0B 0C 0D 0E 0F
      -- -- -- -- -- -- -- --  -- -- -- -- -- -- -- --
0520:          37 64 80 65 80  66 80 67 80 00              7d.e.f.g..   
```

#### Opcodes

```
  0: 0x0523 [0x37] UPDATE_EVENT_POSITION_AND_DIR: x=-216.145*, z=-94.016*, y=-0.142*, direction=186.6°*
  1: 0x052C [0x00] END_REQSTACK()
```

### Event 65535.27

#### Metadata

| Field        | Value    |
|--------------|----------|
| Entrypoint   | 0x052D   |
| Data Size    | 10 bytes |
| Instructions | 2        |

```
      00 01 02 03 04 05 06 07  08 09 0A 0B 0C 0D 0E 0F
      -- -- -- -- -- -- -- --  -- -- -- -- -- -- -- --
0520:                                         37 68 80               7h.
0530: 69 80 4E 80 6A 80 00                              i.N.j..         
```

#### Opcodes

```
  0: 0x052D [0x37] UPDATE_EVENT_POSITION_AND_DIR: x=35.685*, z=-50.129*, y=9.001*, direction=143.0°*
  1: 0x0536 [0x00] END_REQSTACK()
```

### Event 65535.28

#### Metadata

| Field        | Value    |
|--------------|----------|
| Entrypoint   | 0x0537   |
| Data Size    | 10 bytes |
| Instructions | 2        |

```
      00 01 02 03 04 05 06 07  08 09 0A 0B 0C 0D 0E 0F
      -- -- -- -- -- -- -- --  -- -- -- -- -- -- -- --
0530:                      37  6B 80 6C 80 6D 80 6E 80         7k.l.m.n.
0540: 00                                                .               
```

#### Opcodes

```
  0: 0x0537 [0x37] UPDATE_EVENT_POSITION_AND_DIR: x=-278.719*, z=-417.230*, y=-39.909*, direction=239.6°*
  1: 0x0540 [0x00] END_REQSTACK()
```

### Event 65535.29

#### Metadata

| Field        | Value    |
|--------------|----------|
| Entrypoint   | 0x0541   |
| Data Size    | 10 bytes |
| Instructions | 2        |

```
      00 01 02 03 04 05 06 07  08 09 0A 0B 0C 0D 0E 0F
      -- -- -- -- -- -- -- --  -- -- -- -- -- -- -- --
0540:    37 6F 80 70 80 71 80  72 80 00                  7o.p.q.r..     
```

#### Opcodes

```
  0: 0x0541 [0x37] UPDATE_EVENT_POSITION_AND_DIR: x=571.326*, z=-272.093*, y=-0.349*, direction=37.1°*
  1: 0x054A [0x00] END_REQSTACK()
```

### Event 65535.30

#### Metadata

| Field        | Value    |
|--------------|----------|
| Entrypoint   | 0x054B   |
| Data Size    | 10 bytes |
| Instructions | 2        |

```
      00 01 02 03 04 05 06 07  08 09 0A 0B 0C 0D 0E 0F
      -- -- -- -- -- -- -- --  -- -- -- -- -- -- -- --
0540:                                   37 73 80 74 80             7s.t.
0550: 75 80 76 80 00                                    u.v..           
```

#### Opcodes

```
  0: 0x054B [0x37] UPDATE_EVENT_POSITION_AND_DIR: x=-281.057*, z=-421.233*, y=-39.794*, direction=157.8°*
  1: 0x0554 [0x00] END_REQSTACK()
```

### Event 65535.31

#### Metadata

| Field        | Value    |
|--------------|----------|
| Entrypoint   | 0x0555   |
| Data Size    | 10 bytes |
| Instructions | 2        |

```
      00 01 02 03 04 05 06 07  08 09 0A 0B 0C 0D 0E 0F
      -- -- -- -- -- -- -- --  -- -- -- -- -- -- -- --
0550:                37 77 80  78 80 01 80 79 80 00          7w.x...y.. 
```

#### Opcodes

```
  0: 0x0555 [0x37] UPDATE_EVENT_POSITION_AND_DIR: x=561.040*, z=-276.985*, y=0.000*, direction=152.3°*
  1: 0x055E [0x00] END_REQSTACK()
```

### Event 65535.32

#### Metadata

| Field        | Value    |
|--------------|----------|
| Entrypoint   | 0x055F   |
| Data Size    | 10 bytes |
| Instructions | 2        |

```
      00 01 02 03 04 05 06 07  08 09 0A 0B 0C 0D 0E 0F
      -- -- -- -- -- -- -- --  -- -- -- -- -- -- -- --
0550:                                               37                 7
0560: 7A 80 7B 80 7C 80 7D 80  00                       z.{.|.}..       
```

#### Opcodes

```
  0: 0x055F [0x37] UPDATE_EVENT_POSITION_AND_DIR: x=-358.228*, z=19.933*, y=-35.004*, direction=184.3°*
  1: 0x0568 [0x00] END_REQSTACK()
```

### Event 65535.33

#### Metadata

| Field        | Value    |
|--------------|----------|
| Entrypoint   | 0x0569   |
| Data Size    | 10 bytes |
| Instructions | 2        |

```
      00 01 02 03 04 05 06 07  08 09 0A 0B 0C 0D 0E 0F
      -- -- -- -- -- -- -- --  -- -- -- -- -- -- -- --
0560:                             37 7E 80 7F 80 80 80           7~.....
0570: 81 80 00                                          ...             
```

#### Opcodes

```
  0: 0x0569 [0x37] UPDATE_EVENT_POSITION_AND_DIR: x=121.457*, z=115.601*, y=-7.981*, direction=307.3°*
  1: 0x0572 [0x00] END_REQSTACK()
```

### Event 65535.34

#### Metadata

| Field        | Value    |
|--------------|----------|
| Entrypoint   | 0x0573   |
| Data Size    | 10 bytes |
| Instructions | 2        |

```
      00 01 02 03 04 05 06 07  08 09 0A 0B 0C 0D 0E 0F
      -- -- -- -- -- -- -- --  -- -- -- -- -- -- -- --
0570:          37 82 80 83 80  3F 80 84 80 00              7....?....   
```

#### Opcodes

```
  0: 0x0573 [0x37] UPDATE_EVENT_POSITION_AND_DIR: x=154.569*, z=-174.284*, y=0.551*, direction=205.0°*
  1: 0x057C [0x00] END_REQSTACK()
```

### Event 65535.35

#### Metadata

| Field        | Value    |
|--------------|----------|
| Entrypoint   | 0x057D   |
| Data Size    | 10 bytes |
| Instructions | 2        |

```
      00 01 02 03 04 05 06 07  08 09 0A 0B 0C 0D 0E 0F
      -- -- -- -- -- -- -- --  -- -- -- -- -- -- -- --
0570:                                         37 85 80               7..
0580: 86 80 87 80 88 80 00                              .......         
```

#### Opcodes

```
  0: 0x057D [0x37] UPDATE_EVENT_POSITION_AND_DIR: x=-15.373*, z=104.022*, y=-17.300*, direction=78.1°*
  1: 0x0586 [0x00] END_REQSTACK()
```

### Event 65535.36

#### Metadata

| Field        | Value    |
|--------------|----------|
| Entrypoint   | 0x0587   |
| Data Size    | 12 bytes |
| Instructions | 3        |

```
      00 01 02 03 04 05 06 07  08 09 0A 0B 0C 0D 0E 0F
      -- -- -- -- -- -- -- --  -- -- -- -- -- -- -- --
0580:                      33  01 37 89 80 8A 80 8B 80         3.7......
0590: 8C 80 00                                          ...             
```

#### Opcodes

```
  0: 0x0587 [0x33] EventEntity->Render.Flags0 |= 0x200000 // Bit 21 (flag=0x01)
  1: 0x0589 [0x37] UPDATE_EVENT_POSITION_AND_DIR: x=0.646*, z=-26.695*, y=-7.109*, direction=147.0°*
  2: 0x0592 [0x00] END_REQSTACK()
```

### Event 65535.37

#### Metadata

| Field        | Value    |
|--------------|----------|
| Entrypoint   | 0x0593   |
| Data Size    | 10 bytes |
| Instructions | 2        |

```
      00 01 02 03 04 05 06 07  08 09 0A 0B 0C 0D 0E 0F
      -- -- -- -- -- -- -- --  -- -- -- -- -- -- -- --
0590:          37 8D 80 8E 80  8F 80 90 80 00              7.........   
```

#### Opcodes

```
  0: 0x0593 [0x37] UPDATE_EVENT_POSITION_AND_DIR: x=-0.047*, z=-32.521*, y=-23.499*, direction=89.7°*
  1: 0x059C [0x00] END_REQSTACK()
```

### Event 65535.38

#### Metadata

| Field        | Value    |
|--------------|----------|
| Entrypoint   | 0x059D   |
| Data Size    | 37 bytes |
| Instructions | 5        |

```
      00 01 02 03 04 05 06 07  08 09 0A 0B 0C 0D 0E 0F
      -- -- -- -- -- -- -- --  -- -- -- -- -- -- -- --
0590:                                         03 00 00               ...
05A0: 07 7F 1A E7 05 66 01 00  F8 FF FF 7F F8 FF FF 7F  .....f..........
05B0: 73 68 61 30 53 F8 FF FF  7F F8 FF FF 7F 73 68 61  sha0S........sha
05C0: 30 00                                             0.              
```

#### Opcodes

```
  0: 0x059D [0x03] ExtData[1]->WorkLocal[0] = Entity->Race
  1: 0x05A2 [0x1A] CALL_SUBROUTINE(address=0x05E7)
  2: 0x05A5 [0x66] LOAD_EXT_SCHEDULER_MAIN: Load scheduler "sha0" with entities [EventEntity, EventEntity], work=ExtData[1]->WorkLocal[1]
  3: 0x05B4 [0x53] WAIT_SCHEDULER_TASK: Wait for scheduler "sha0" with entities [EventEntity, EventEntity]
  4: 0x05C1 [0x00] END_REQSTACK()
```

### Event 65535.39

#### Metadata

| Field        | Value     |
|--------------|-----------|
| Entrypoint   | 0x05C2    |
| Data Size    | 185 bytes |
| Instructions | 13        |

```
      00 01 02 03 04 05 06 07  08 09 0A 0B 0C 0D 0E 0F
      -- -- -- -- -- -- -- --  -- -- -- -- -- -- -- --
05C0:       03 00 00 07 7F 1A  E7 05 66 01 00 F8 FF FF    ........f.....
05D0: 7F F8 FF FF 7F 73 68 61  31 53 F8 FF FF 7F F8 FF  .....sha1S......
05E0: FF 7F 73 68 61 31 00 03  01 00 00 00 02 01 00 91  ..sha1..........
05F0: 80 05 FC 05 08 01 00 07  80 01 01 06 08 01 00 92  ................
0600: 80 14 01 00 17 80 07 01  00 93 80 1B 03 01 00 00  ................
0610: 00 02 01 00 91 80 05 21  06 08 01 00 07 80 01 26  .......!.......&
0620: 06 08 01 00 92 80 14 01  00 17 80 07 01 00 94 80  ................
0630: 1B 03 01 00 00 00 02 01  00 91 80 05 46 06 08 01  ............F...
0640: 00 07 80 01 4B 06 08 01  00 92 80 14 01 00 17 80  ....K...........
0650: 07 01 00 95 80 1B 03 01  00 00 00 02 01 00 91 80  ................
0660: 05 6B 06 08 01 00 07 80  01 70 06 08 01 00 92 80  .k.......p......
0670: 14 01 00 17 80 07 01 00  96 80 1B                 ...........     
```

#### Opcodes

```
  0: 0x05C2 [0x03] ExtData[1]->WorkLocal[0] = Entity->Race
  1: 0x05C7 [0x1A] CALL_SUBROUTINE(address=0x05E7)
  2: 0x05CA [0x66] LOAD_EXT_SCHEDULER_MAIN: Load scheduler "sha1" with entities [EventEntity, EventEntity], work=ExtData[1]->WorkLocal[1]
  3: 0x05D9 [0x53] WAIT_SCHEDULER_TASK: Wait for scheduler "sha1" with entities [EventEntity, EventEntity]
  4: 0x05E6 [0x00] END_REQSTACK()

SUBROUTINE_05E7:
  5: 0x05E7 [0x03] ExtData[1]->WorkLocal[1] = ExtData[1]->WorkLocal[0]
  6: 0x05EC [0x02] IF !(ExtData[1]->WorkLocal[1] > 5*) GOTO 0x05FC
  7: 0x05F4 [0x08] ExtData[1]->WorkLocal[1] -= 1*
  8: 0x05F9 [0x01] GOTO 0x0601
  9: 0x05FC [0x08] ExtData[1]->WorkLocal[1] -= 2*

SUBROUTINE_0601:
 10: 0x0601 [0x14] ExtData[1]->WorkLocal[1] *= 10*
 11: 0x0606 [0x07] ExtData[1]->WorkLocal[1] += 9*
 12: 0x060B [0x1B] RETURN
```

#### Data or dead code:

```
# Dead code (unreachable instructions):
     0x060C [0x03] ExtData[1]->WorkLocal[1] = ExtData[1]->WorkLocal[0]
     0x0611 [0x02] IF !(ExtData[1]->WorkLocal[1] > 5*) GOTO 0x0621
     0x0619 [0x08] ExtData[1]->WorkLocal[1] -= 1*
     0x061E [0x01] GOTO 0x0626
     0x0621 [0x08] ExtData[1]->WorkLocal[1] -= 2*
     0x0626 [0x14] ExtData[1]->WorkLocal[1] *= 10*
     0x062B [0x07] ExtData[1]->WorkLocal[1] += 70*
     0x0630 [0x1B] RETURN
     0x0631 [0x03] ExtData[1]->WorkLocal[1] = ExtData[1]->WorkLocal[0]
     0x0636 [0x02] IF !(ExtData[1]->WorkLocal[1] > 5*) GOTO 0x0646
     0x063E [0x08] ExtData[1]->WorkLocal[1] -= 1*
     0x0643 [0x01] GOTO 0x064B
     0x0646 [0x08] ExtData[1]->WorkLocal[1] -= 2*
     0x064B [0x14] ExtData[1]->WorkLocal[1] *= 10*
     0x0650 [0x07] ExtData[1]->WorkLocal[1] += 140*
     0x0655 [0x1B] RETURN
     0x0656 [0x03] ExtData[1]->WorkLocal[1] = ExtData[1]->WorkLocal[0]
     0x065B [0x02] IF !(ExtData[1]->WorkLocal[1] > 5*) GOTO 0x066B
     0x0663 [0x08] ExtData[1]->WorkLocal[1] -= 1*
     0x0668 [0x01] GOTO 0x0670
     0x066B [0x08] ExtData[1]->WorkLocal[1] -= 2*
     0x0670 [0x14] ExtData[1]->WorkLocal[1] *= 10*
     0x0675 [0x07] ExtData[1]->WorkLocal[1] += 210*
     0x067A [0x1B] RETURN
```

### Event 65535.40

#### Metadata

| Field        | Value   |
|--------------|---------|
| Entrypoint   | 0x067B  |
| Data Size    | 7 bytes |
| Instructions | 3       |

```
      00 01 02 03 04 05 06 07  08 09 0A 0B 0C 0D 0E 0F
      -- -- -- -- -- -- -- --  -- -- -- -- -- -- -- --
0670:                                   AB 03 AC 01 07             .....
0680: 80 00                                             ..              
```

#### Opcodes

```
  0: 0x067B [0xAB] EventEntity->Render.Flags0 ^= 0x20000 // Toggle bit 17
  1: 0x067D [0xAC] EventEntity->StatusEvent = 1*
  2: 0x0681 [0x00] END_REQSTACK()
```

### Event 65535.41

#### Metadata

| Field        | Value   |
|--------------|---------|
| Entrypoint   | 0x0682  |
| Data Size    | 7 bytes |
| Instructions | 3       |

```
      00 01 02 03 04 05 06 07  08 09 0A 0B 0C 0D 0E 0F
      -- -- -- -- -- -- -- --  -- -- -- -- -- -- -- --
0680:       AC 01 01 80 AB 04  00                         .......       
```

#### Opcodes

```
  0: 0x0682 [0xAC] EventEntity->StatusEvent = 0*
  1: 0x0686 [0xAB] EventEntity->Render.Flags0 |= 0x40000 // Set bit 18
  2: 0x0688 [0x00] END_REQSTACK()
```

### Event 65535.42

#### Metadata

| Field        | Value   |
|--------------|---------|
| Entrypoint   | 0x0689  |
| Data Size    | 6 bytes |
| Instructions | 2       |

```
      00 01 02 03 04 05 06 07  08 09 0A 0B 0C 0D 0E 0F
      -- -- -- -- -- -- -- --  -- -- -- -- -- -- -- --
0680:                             03 02 10 07 7F 00              ...... 
```

#### Opcodes

```
  0: 0x0689 [0x03] Work_Zone[2] = Entity->Race
  1: 0x068E [0x00] END_REQSTACK()
```

### Event 65535.43

#### Metadata

| Field        | Value   |
|--------------|---------|
| Entrypoint   | 0x068F  |
| Data Size    | 6 bytes |
| Instructions | 2       |

```
      00 01 02 03 04 05 06 07  08 09 0A 0B 0C 0D 0E 0F
      -- -- -- -- -- -- -- --  -- -- -- -- -- -- -- --
0680:                                               03                 .
0690: 02 10 0B 7F 00                                    .....           
```

#### Opcodes

```
  0: 0x068F [0x03] Work_Zone[2] = (Entity->Render.Flags01 >> 25) & 1
  1: 0x0694 [0x00] END_REQSTACK()
```

### Event 65535.44

#### Metadata

| Field        | Value    |
|--------------|----------|
| Entrypoint   | 0x0695   |
| Data Size    | 12 bytes |
| Instructions | 4        |

```
      00 01 02 03 04 05 06 07  08 09 0A 0B 0C 0D 0E 0F
      -- -- -- -- -- -- -- --  -- -- -- -- -- -- -- --
0690:                1F 00 97  80 98 80 99 80 1F 01 6F       ..........o
06A0: 00                                                .               
```

#### Opcodes

```
  0: 0x0695 [0x1F] MOVE_ENTITY: EventEntity moves to X=120.564*, Z=-118.007*, Y=-28.774*
  1: 0x069D [0x1F] MOVE_ENTITY: Update entity position (mode=1)
  2: 0x069F [0x6F] WAIT_FRAME_DELAY: Yield until WaitTime reaches zero
  3: 0x06A0 [0x00] END_REQSTACK()
```

### Event 65535.45

#### Metadata

| Field        | Value    |
|--------------|----------|
| Entrypoint   | 0x06A1   |
| Data Size    | 16 bytes |
| Instructions | 3        |

```
      00 01 02 03 04 05 06 07  08 09 0A 0B 0C 0D 0E 0F
      -- -- -- -- -- -- -- --  -- -- -- -- -- -- -- --
06A0:    92 01 F0 FF FF 7F 37  9A 80 9B 80 9C 80 9D 80   ......7........
06B0: 00                                                .               
```

#### Opcodes

```
  0: 0x06A1 [0x92] LocalPlayer->Render.Flags3 ^= 0x01
  1: 0x06A7 [0x37] UPDATE_EVENT_POSITION_AND_DIR: x=269.941*, z=-75.547*, y=-7.722*, direction=269.8°*
  2: 0x06B0 [0x00] END_REQSTACK()
```

### Event 65535.46

#### Metadata

| Field        | Value    |
|--------------|----------|
| Entrypoint   | 0x06B1   |
| Data Size    | 41 bytes |
| Instructions | 5        |

```
      00 01 02 03 04 05 06 07  08 09 0A 0B 0C 0D 0E 0F
      -- -- -- -- -- -- -- --  -- -- -- -- -- -- -- --
06B0:    BB 9E 80 F0 FF FF 7F  7B 01 07 01 6D 61 69 6E   .......{...main
06C0: 01 80 1C 9F 80 45 00 80  F0 FF FF 7F F0 FF FF 7F  .....E..........
06D0: 66 64 6F 31 01 80 1C 14  80 00                    fdo1......      
```

#### Opcodes

```
  0: 0x06B1 [0xBB] LOAD_EVENT_SCHEDULER_ALT: Load scheduler "main" with entities [LocalPlayer, Cavernous Maw (ID: 17236347/0x0107017B)], work=[148*, 0*]
  1: 0x06C2 [0x1C] WAIT(240* ticks)
  2: 0x06C5 [0x45] LOAD_SCHEDULED_TASK: Load scheduler "fdo1" with entities [LocalPlayer, LocalPlayer], work=[200*, 0*]
  3: 0x06D6 [0x1C] WAIT(60* ticks)
  4: 0x06D9 [0x00] END_REQSTACK()
```

### Event 65535.47

#### Metadata

| Field        | Value    |
|--------------|----------|
| Entrypoint   | 0x06DA   |
| Data Size    | 24 bytes |
| Instructions | 4        |

```
      00 01 02 03 04 05 06 07  08 09 0A 0B 0C 0D 0E 0F
      -- -- -- -- -- -- -- --  -- -- -- -- -- -- -- --
06D0:                                03 00 00 07 7F 1A            ......
06E0: E7 05 66 01 00 F8 FF FF  7F F8 FF FF 7F 74 6C 6B  ..f..........tlk
06F0: 30 00                                             0.              
```

#### Opcodes

```
  0: 0x06DA [0x03] ExtData[1]->WorkLocal[0] = Entity->Race
  1: 0x06DF [0x1A] CALL_SUBROUTINE(address=0x05E7)
  2: 0x06E2 [0x66] LOAD_EXT_SCHEDULER_MAIN: Load scheduler "tlk0" with entities [EventEntity, EventEntity], work=ExtData[1]->WorkLocal[1]
  3: 0x06F1 [0x00] END_REQSTACK()
```

### Event 65535.48

#### Metadata

| Field        | Value    |
|--------------|----------|
| Entrypoint   | 0x06F2   |
| Data Size    | 24 bytes |
| Instructions | 4        |

```
      00 01 02 03 04 05 06 07  08 09 0A 0B 0C 0D 0E 0F
      -- -- -- -- -- -- -- --  -- -- -- -- -- -- -- --
06F0:       03 00 00 07 7F 1A  E7 05 66 01 00 F8 FF FF    ........f.....
0700: 7F F8 FF FF 7F 74 6C 6B  31 00                    .....tlk1.      
```

#### Opcodes

```
  0: 0x06F2 [0x03] ExtData[1]->WorkLocal[0] = Entity->Race
  1: 0x06F7 [0x1A] CALL_SUBROUTINE(address=0x05E7)
  2: 0x06FA [0x66] LOAD_EXT_SCHEDULER_MAIN: Load scheduler "tlk1" with entities [EventEntity, EventEntity], work=ExtData[1]->WorkLocal[1]
  3: 0x0709 [0x00] END_REQSTACK()
```

### Event 65535.49

#### Metadata

| Field        | Value    |
|--------------|----------|
| Entrypoint   | 0x070A   |
| Data Size    | 37 bytes |
| Instructions | 5        |

```
      00 01 02 03 04 05 06 07  08 09 0A 0B 0C 0D 0E 0F
      -- -- -- -- -- -- -- --  -- -- -- -- -- -- -- --
0700:                                03 00 00 07 7F 1A            ......
0710: E7 05 66 01 00 F8 FF FF  7F F8 FF FF 7F 73 69 74  ..f..........sit
0720: 30 53 F8 FF FF 7F F8 FF  FF 7F 73 69 74 30 00     0S........sit0. 
```

#### Opcodes

```
  0: 0x070A [0x03] ExtData[1]->WorkLocal[0] = Entity->Race
  1: 0x070F [0x1A] CALL_SUBROUTINE(address=0x05E7)
  2: 0x0712 [0x66] LOAD_EXT_SCHEDULER_MAIN: Load scheduler "sit0" with entities [EventEntity, EventEntity], work=ExtData[1]->WorkLocal[1]
  3: 0x0721 [0x53] WAIT_SCHEDULER_TASK: Wait for scheduler "sit0" with entities [EventEntity, EventEntity]
  4: 0x072E [0x00] END_REQSTACK()
```

### Event 65535.50

#### Metadata

| Field        | Value    |
|--------------|----------|
| Entrypoint   | 0x072F   |
| Data Size    | 37 bytes |
| Instructions | 5        |

```
      00 01 02 03 04 05 06 07  08 09 0A 0B 0C 0D 0E 0F
      -- -- -- -- -- -- -- --  -- -- -- -- -- -- -- --
0720:                                               03                 .
0730: 00 00 07 7F 1A E7 05 66  01 00 F8 FF FF 7F F8 FF  .......f........
0740: FF 7F 73 69 74 31 53 F8  FF FF 7F F8 FF FF 7F 73  ..sit1S........s
0750: 69 74 31 00                                       it1.            
```

#### Opcodes

```
  0: 0x072F [0x03] ExtData[1]->WorkLocal[0] = Entity->Race
  1: 0x0734 [0x1A] CALL_SUBROUTINE(address=0x05E7)
  2: 0x0737 [0x66] LOAD_EXT_SCHEDULER_MAIN: Load scheduler "sit1" with entities [EventEntity, EventEntity], work=ExtData[1]->WorkLocal[1]
  3: 0x0746 [0x53] WAIT_SCHEDULER_TASK: Wait for scheduler "sit1" with entities [EventEntity, EventEntity]
  4: 0x0753 [0x00] END_REQSTACK()
```

### Event 65535.51

#### Metadata

| Field        | Value    |
|--------------|----------|
| Entrypoint   | 0x0754   |
| Data Size    | 42 bytes |
| Instructions | 6        |

```
      00 01 02 03 04 05 06 07  08 09 0A 0B 0C 0D 0E 0F
      -- -- -- -- -- -- -- --  -- -- -- -- -- -- -- --
0750:             03 00 00 07  7F 1A E7 05 66 01 00 F8      ........f...
0760: FF FF 7F F8 FF FF 7F 74  6C 6B 30 1C 14 80 66 01  .......tlk0...f.
0770: 00 F8 FF FF 7F F8 FF FF  7F 74 6C 6B 31 00        .........tlk1.  
```

#### Opcodes

```
  0: 0x0754 [0x03] ExtData[1]->WorkLocal[0] = Entity->Race
  1: 0x0759 [0x1A] CALL_SUBROUTINE(address=0x05E7)
  2: 0x075C [0x66] LOAD_EXT_SCHEDULER_MAIN: Load scheduler "tlk0" with entities [EventEntity, EventEntity], work=ExtData[1]->WorkLocal[1]
  3: 0x076B [0x1C] WAIT(60* ticks)
  4: 0x076E [0x66] LOAD_EXT_SCHEDULER_MAIN: Load scheduler "tlk1" with entities [EventEntity, EventEntity], work=ExtData[1]->WorkLocal[1]
  5: 0x077D [0x00] END_REQSTACK()
```

### Event 65535.52

#### Metadata

| Field        | Value    |
|--------------|----------|
| Entrypoint   | 0x077E   |
| Data Size    | 29 bytes |
| Instructions | 5        |

```
      00 01 02 03 04 05 06 07  08 09 0A 0B 0C 0D 0E 0F
      -- -- -- -- -- -- -- --  -- -- -- -- -- -- -- --
0770:                                            03 00                ..
0780: 00 07 7F 1A 0C 06 07 01  00 07 80 66 01 00 F8 FF  ...........f....
0790: FF 7F F8 FF FF 7F 70 61  73 30 00                 ......pas0.     
```

#### Opcodes

```
  0: 0x077E [0x03] ExtData[1]->WorkLocal[0] = Entity->Race
  1: 0x0783 [0x1A] CALL_SUBROUTINE(address=0x060C)
  2: 0x0786 [0x07] ExtData[1]->WorkLocal[1] += 1*
  3: 0x078B [0x66] LOAD_EXT_SCHEDULER_MAIN: Load scheduler "pas0" with entities [EventEntity, EventEntity], work=ExtData[1]->WorkLocal[1]
  4: 0x079A [0x00] END_REQSTACK()
```

### Event 65535.53

#### Metadata

| Field        | Value    |
|--------------|----------|
| Entrypoint   | 0x079B   |
| Data Size    | 15 bytes |
| Instructions | 5        |

```
      00 01 02 03 04 05 06 07  08 09 0A 0B 0C 0D 0E 0F
      -- -- -- -- -- -- -- --  -- -- -- -- -- -- -- --
0790:                                   32 10 80 1F 00             2....
07A0: A0 80 A1 80 A2 80 1F 01  6F 00                    ........o.      
```

#### Opcodes

```
  0: 0x079B [0x32] ExtData[1]->MainSpeed = 13* * 0.1
  1: 0x079E [0x1F] MOVE_ENTITY: EventEntity moves to X=552.464*, Z=-276.065*, Y=0.175*
  2: 0x07A6 [0x1F] MOVE_ENTITY: Update entity position (mode=1)
  3: 0x07A8 [0x6F] WAIT_FRAME_DELAY: Yield until WaitTime reaches zero
  4: 0x07A9 [0x00] END_REQSTACK()
```

### Event 65535.54

#### Metadata

| Field        | Value    |
|--------------|----------|
| Entrypoint   | 0x07AA   |
| Data Size    | 15 bytes |
| Instructions | 5        |

```
      00 01 02 03 04 05 06 07  08 09 0A 0B 0C 0D 0E 0F
      -- -- -- -- -- -- -- --  -- -- -- -- -- -- -- --
07A0:                                32 10 80 1F 00 A3            2.....
07B0: 80 A4 80 A5 80 1F 01 6F  00                       .......o.       
```

#### Opcodes

```
  0: 0x07AA [0x32] ExtData[1]->MainSpeed = 13* * 0.1
  1: 0x07AD [0x1F] MOVE_ENTITY: EventEntity moves to X=554.961*, Z=-283.672*, Y=0.050*
  2: 0x07B5 [0x1F] MOVE_ENTITY: Update entity position (mode=1)
  3: 0x07B7 [0x6F] WAIT_FRAME_DELAY: Yield until WaitTime reaches zero
  4: 0x07B8 [0x00] END_REQSTACK()
```

### Event 65535.55

#### Metadata

| Field        | Value    |
|--------------|----------|
| Entrypoint   | 0x07B9   |
| Data Size    | 15 bytes |
| Instructions | 5        |

```
      00 01 02 03 04 05 06 07  08 09 0A 0B 0C 0D 0E 0F
      -- -- -- -- -- -- -- --  -- -- -- -- -- -- -- --
07B0:                             32 10 80 1F 00 A6 80           2......
07C0: A7 80 01 80 1F 01 6F 00                           ......o.        
```

#### Opcodes

```
  0: 0x07B9 [0x32] ExtData[1]->MainSpeed = 13* * 0.1
  1: 0x07BC [0x1F] MOVE_ENTITY: EventEntity moves to X=559.063*, Z=-283.771*, Y=0.000*
  2: 0x07C4 [0x1F] MOVE_ENTITY: Update entity position (mode=1)
  3: 0x07C6 [0x6F] WAIT_FRAME_DELAY: Yield until WaitTime reaches zero
  4: 0x07C7 [0x00] END_REQSTACK()
```

### Event 65535.56

#### Metadata

| Field        | Value    |
|--------------|----------|
| Entrypoint   | 0x07C8   |
| Data Size    | 17 bytes |
| Instructions | 7        |

```
      00 01 02 03 04 05 06 07  08 09 0A 0B 0C 0D 0E 0F
      -- -- -- -- -- -- -- --  -- -- -- -- -- -- -- --
07C0:                          32 10 80 1F 00 A8 80 A9          2.......
07D0: 80 AA 80 1F 01 6F 6F 70  00                       .....oop.       
```

#### Opcodes

```
  0: 0x07C8 [0x32] ExtData[1]->MainSpeed = 13* * 0.1
  1: 0x07CB [0x1F] MOVE_ENTITY: EventEntity moves to X=555.115*, Z=-283.712*, Y=0.043*
  2: 0x07D3 [0x1F] MOVE_ENTITY: Update entity position (mode=1)
  3: 0x07D5 [0x6F] WAIT_FRAME_DELAY: Yield until WaitTime reaches zero
  4: 0x07D6 [0x6F] WAIT_FRAME_DELAY: Yield until WaitTime reaches zero
  5: 0x07D7 [0x70] WAIT_ENTITY_RENDER_FLAG: Wait while EventEntity->Render.Flags3 bit 2 is set (cancel turn if not)
  6: 0x07D8 [0x00] END_REQSTACK()
```

### Event 65535.57

#### Metadata

| Field        | Value    |
|--------------|----------|
| Entrypoint   | 0x07D9   |
| Data Size    | 17 bytes |
| Instructions | 7        |

```
      00 01 02 03 04 05 06 07  08 09 0A 0B 0C 0D 0E 0F
      -- -- -- -- -- -- -- --  -- -- -- -- -- -- -- --
07D0:                             32 10 80 1F 00 AB 80           2......
07E0: AC 80 01 80 1F 01 6F 6F  70 00                    ......oop.      
```

#### Opcodes

```
  0: 0x07D9 [0x32] ExtData[1]->MainSpeed = 13* * 0.1
  1: 0x07DC [0x1F] MOVE_ENTITY: EventEntity moves to X=562.237*, Z=-283.470*, Y=0.000*
  2: 0x07E4 [0x1F] MOVE_ENTITY: Update entity position (mode=1)
  3: 0x07E6 [0x6F] WAIT_FRAME_DELAY: Yield until WaitTime reaches zero
  4: 0x07E7 [0x6F] WAIT_FRAME_DELAY: Yield until WaitTime reaches zero
  5: 0x07E8 [0x70] WAIT_ENTITY_RENDER_FLAG: Wait while EventEntity->Render.Flags3 bit 2 is set (cancel turn if not)
  6: 0x07E9 [0x00] END_REQSTACK()
```

### Event 65535.58

#### Metadata

| Field        | Value    |
|--------------|----------|
| Entrypoint   | 0x07EA   |
| Data Size    | 15 bytes |
| Instructions | 5        |

```
      00 01 02 03 04 05 06 07  08 09 0A 0B 0C 0D 0E 0F
      -- -- -- -- -- -- -- --  -- -- -- -- -- -- -- --
07E0:                                32 10 80 1F 00 AD            2.....
07F0: 80 AE 80 AF 80 1F 01 6F  00                       .......o.       
```

#### Opcodes

```
  0: 0x07EA [0x32] ExtData[1]->MainSpeed = 13* * 0.1
  1: 0x07ED [0x1F] MOVE_ENTITY: EventEntity moves to X=569.319*, Z=-276.059*, Y=-0.518*
  2: 0x07F5 [0x1F] MOVE_ENTITY: Update entity position (mode=1)
  3: 0x07F7 [0x6F] WAIT_FRAME_DELAY: Yield until WaitTime reaches zero
  4: 0x07F8 [0x00] END_REQSTACK()
```

### Event 65535.59

#### Metadata

| Field        | Value    |
|--------------|----------|
| Entrypoint   | 0x07F9   |
| Data Size    | 17 bytes |
| Instructions | 7        |

```
      00 01 02 03 04 05 06 07  08 09 0A 0B 0C 0D 0E 0F
      -- -- -- -- -- -- -- --  -- -- -- -- -- -- -- --
07F0:                             32 10 80 1F 00 B0 80           2......
0800: B1 80 B2 80 1F 01 6F 6F  70 00                    ......oop.      
```

#### Opcodes

```
  0: 0x07F9 [0x32] ExtData[1]->MainSpeed = 13* * 0.1
  1: 0x07FC [0x1F] MOVE_ENTITY: EventEntity moves to X=566.067*, Z=-275.905*, Y=-0.104*
  2: 0x0804 [0x1F] MOVE_ENTITY: Update entity position (mode=1)
  3: 0x0806 [0x6F] WAIT_FRAME_DELAY: Yield until WaitTime reaches zero
  4: 0x0807 [0x6F] WAIT_FRAME_DELAY: Yield until WaitTime reaches zero
  5: 0x0808 [0x70] WAIT_ENTITY_RENDER_FLAG: Wait while EventEntity->Render.Flags3 bit 2 is set (cancel turn if not)
  6: 0x0809 [0x00] END_REQSTACK()
```

### Event 65535.60

#### Metadata

| Field        | Value    |
|--------------|----------|
| Entrypoint   | 0x080A   |
| Data Size    | 15 bytes |
| Instructions | 5        |

```
      00 01 02 03 04 05 06 07  08 09 0A 0B 0C 0D 0E 0F
      -- -- -- -- -- -- -- --  -- -- -- -- -- -- -- --
0800:                                32 10 80 1F 00 B3            2.....
0810: 80 B4 80 B5 80 1F 01 6F  00                       .......o.       
```

#### Opcodes

```
  0: 0x080A [0x32] ExtData[1]->MainSpeed = 13* * 0.1
  1: 0x080D [0x1F] MOVE_ENTITY: EventEntity moves to X=-404.999*, Z=19.994*, Y=-43.077*
  2: 0x0815 [0x1F] MOVE_ENTITY: Update entity position (mode=1)
  3: 0x0817 [0x6F] WAIT_FRAME_DELAY: Yield until WaitTime reaches zero
  4: 0x0818 [0x00] END_REQSTACK()
```

### Event 65535.61

#### Metadata

| Field        | Value    |
|--------------|----------|
| Entrypoint   | 0x0819   |
| Data Size    | 13 bytes |
| Instructions | 3        |

```
      00 01 02 03 04 05 06 07  08 09 0A 0B 0C 0D 0E 0F
      -- -- -- -- -- -- -- --  -- -- -- -- -- -- -- --
0810:                             6E F0 FF FF 7F B6 80           n......
0820: 99 F0 FF FF 7F 00                                 ......          
```

#### Opcodes

```
  0: 0x0819 [0x6E] LocalPlayer uses emote 1579*
  1: 0x0820 [0x99] Wait for LocalPlayer animation to complete
  2: 0x0825 [0x00] END_REQSTACK()
```

### Event 65535.62

#### Metadata

| Field        | Value    |
|--------------|----------|
| Entrypoint   | 0x0826   |
| Data Size    | 13 bytes |
| Instructions | 3        |

```
      00 01 02 03 04 05 06 07  08 09 0A 0B 0C 0D 0E 0F
      -- -- -- -- -- -- -- --  -- -- -- -- -- -- -- --
0820:                   6E F0  FF FF 7F B7 80 99 F0 FF        n.........
0830: FF 7F 00                                          ...             
```

#### Opcodes

```
  0: 0x0826 [0x6E] LocalPlayer uses emote 811*
  1: 0x082D [0x99] Wait for LocalPlayer animation to complete
  2: 0x0832 [0x00] END_REQSTACK()
```

### Event 65535.63

#### Metadata

| Field        | Value    |
|--------------|----------|
| Entrypoint   | 0x0833   |
| Data Size    | 13 bytes |
| Instructions | 3        |

```
      00 01 02 03 04 05 06 07  08 09 0A 0B 0C 0D 0E 0F
      -- -- -- -- -- -- -- --  -- -- -- -- -- -- -- --
0830:          6E F0 FF FF 7F  AA 80 99 F0 FF FF 7F 00     n............
```

#### Opcodes

```
  0: 0x0833 [0x6E] LocalPlayer uses emote 43*
  1: 0x083A [0x99] Wait for LocalPlayer animation to complete
  2: 0x083F [0x00] END_REQSTACK()
```

### Event 65535.64

#### Metadata

| Field        | Value    |
|--------------|----------|
| Entrypoint   | 0x0840   |
| Data Size    | 13 bytes |
| Instructions | 3        |

```
      00 01 02 03 04 05 06 07  08 09 0A 0B 0C 0D 0E 0F
      -- -- -- -- -- -- -- --  -- -- -- -- -- -- -- --
0840: 6E F0 FF FF 7F B8 80 99  F0 FF FF 7F 00           n............   
```

#### Opcodes

```
  0: 0x0840 [0x6E] LocalPlayer uses emote 1067*
  1: 0x0847 [0x99] Wait for LocalPlayer animation to complete
  2: 0x084C [0x00] END_REQSTACK()
```

### Event 65535.65

#### Metadata

| Field        | Value    |
|--------------|----------|
| Entrypoint   | 0x084D   |
| Data Size    | 13 bytes |
| Instructions | 3        |

```
      00 01 02 03 04 05 06 07  08 09 0A 0B 0C 0D 0E 0F
      -- -- -- -- -- -- -- --  -- -- -- -- -- -- -- --
0840:                                         6E F0 FF               n..
0850: FF 7F B9 80 99 F0 FF FF  7F 00                    ..........      
```

#### Opcodes

```
  0: 0x084D [0x6E] LocalPlayer uses emote 299*
  1: 0x0854 [0x99] Wait for LocalPlayer animation to complete
  2: 0x0859 [0x00] END_REQSTACK()
```

### Event 65535.66

#### Metadata

| Field        | Value    |
|--------------|----------|
| Entrypoint   | 0x085A   |
| Data Size    | 13 bytes |
| Instructions | 3        |

```
      00 01 02 03 04 05 06 07  08 09 0A 0B 0C 0D 0E 0F
      -- -- -- -- -- -- -- --  -- -- -- -- -- -- -- --
0850:                                6E F0 FF FF 7F BA            n.....
0860: 80 99 F0 FF FF 7F 00                              .......         
```

#### Opcodes

```
  0: 0x085A [0x6E] LocalPlayer uses emote 1323*
  1: 0x0861 [0x99] Wait for LocalPlayer animation to complete
  2: 0x0866 [0x00] END_REQSTACK()
```

### Event 65535.67

#### Metadata

| Field        | Value    |
|--------------|----------|
| Entrypoint   | 0x0867   |
| Data Size    | 13 bytes |
| Instructions | 3        |

```
      00 01 02 03 04 05 06 07  08 09 0A 0B 0C 0D 0E 0F
      -- -- -- -- -- -- -- --  -- -- -- -- -- -- -- --
0860:                      6E  F0 FF FF 7F BB 80 99 F0         n........
0870: FF FF 7F 00                                       ....            
```

#### Opcodes

```
  0: 0x0867 [0x6E] LocalPlayer uses emote 555*
  1: 0x086E [0x99] Wait for LocalPlayer animation to complete
  2: 0x0873 [0x00] END_REQSTACK()
```

### Event 65535.68

#### Metadata

| Field        | Value    |
|--------------|----------|
| Entrypoint   | 0x0874   |
| Data Size    | 22 bytes |
| Instructions | 8        |

```
      00 01 02 03 04 05 06 07  08 09 0A 0B 0C 0D 0E 0F
      -- -- -- -- -- -- -- --  -- -- -- -- -- -- -- --
0870:             32 10 80 1F  00 BC 80 BD 80 01 80 1F      2...........
0880: 01 6F 1E 9C 01 07 01 6F  70 00                    .o.....op.      
```

#### Opcodes

```
  0: 0x0874 [0x32] ExtData[1]->MainSpeed = 13* * 0.1
  1: 0x0877 [0x1F] MOVE_ENTITY: EventEntity moves to X=562.653*, Z=-283.892*, Y=0.000*
  2: 0x087F [0x1F] MOVE_ENTITY: Update entity position (mode=1)
  3: 0x0881 [0x6F] WAIT_FRAME_DELAY: Yield until WaitTime reaches zero
  4: 0x0882 [0x1E] EventEntity looks at Duke Alloces (ID: 17236380/0x0107019C) and starts talking
  5: 0x0887 [0x6F] WAIT_FRAME_DELAY: Yield until WaitTime reaches zero
  6: 0x0888 [0x70] WAIT_ENTITY_RENDER_FLAG: Wait while EventEntity->Render.Flags3 bit 2 is set (cancel turn if not)
  7: 0x0889 [0x00] END_REQSTACK()
```

### Event 65535.69

#### Metadata

| Field        | Value    |
|--------------|----------|
| Entrypoint   | 0x088A   |
| Data Size    | 22 bytes |
| Instructions | 8        |

```
      00 01 02 03 04 05 06 07  08 09 0A 0B 0C 0D 0E 0F
      -- -- -- -- -- -- -- --  -- -- -- -- -- -- -- --
0880:                                32 10 80 1F 00 BE            2.....
0890: 80 BF 80 01 80 1F 01 6F  1E 9C 01 07 01 6F 70 00  .......o.....op.
```

#### Opcodes

```
  0: 0x088A [0x32] ExtData[1]->MainSpeed = 13* * 0.1
  1: 0x088D [0x1F] MOVE_ENTITY: EventEntity moves to X=561.413*, Z=-282.587*, Y=0.000*
  2: 0x0895 [0x1F] MOVE_ENTITY: Update entity position (mode=1)
  3: 0x0897 [0x6F] WAIT_FRAME_DELAY: Yield until WaitTime reaches zero
  4: 0x0898 [0x1E] EventEntity looks at Duke Alloces (ID: 17236380/0x0107019C) and starts talking
  5: 0x089D [0x6F] WAIT_FRAME_DELAY: Yield until WaitTime reaches zero
  6: 0x089E [0x70] WAIT_ENTITY_RENDER_FLAG: Wait while EventEntity->Render.Flags3 bit 2 is set (cancel turn if not)
  7: 0x089F [0x00] END_REQSTACK()
```

### Event 65535.70

#### Metadata

| Field        | Value    |
|--------------|----------|
| Entrypoint   | 0x08A0   |
| Data Size    | 26 bytes |
| Instructions | 7        |

```
      00 01 02 03 04 05 06 07  08 09 0A 0B 0C 0D 0E 0F
      -- -- -- -- -- -- -- --  -- -- -- -- -- -- -- --
08A0: 03 03 00 04 10 06 02 00  02 02 00 03 00 03 B9 08  ................
08B0: 1C 07 80 57 02 00 01 A8  08 00                    ...W......      
```

#### Opcodes

```
  0: 0x08A0 [0x03] ExtData[1]->WorkLocal[3] = Work_Zone[4]
  1: 0x08A5 [0x06] ExtData[1]->WorkLocal[2] = 0
  2: 0x08A8 [0x02] IF !(ExtData[1]->WorkLocal[2] >= ExtData[1]->WorkLocal[3]) GOTO 0x08B9
  3: 0x08B0 [0x1C] WAIT(1* ticks)
  4: 0x08B3 [0x57] CREATE_FRAME_DELAY(delay=ExtData[1]->WorkLocal[2])
  5: 0x08B6 [0x01] GOTO 0x08A8
  6: 0x08B9 [0x00] END_REQSTACK()
```
