# 17347130 - Lion

## Common Data

| Field            | Value                  |
|------------------|------------------------|
| Zone             | Horlais Peak (ID: 139) |
| Block Size       | 300 bytes              |
| Total Events     | 9                      |
| References Count | 30                     |

## List of Events

| Event ID                 | Entrypoint   |   Size |   Instructions |
|--------------------------|--------------|--------|----------------|
| [65535](#event-65535)    | 0x0000       |      1 |              1 |
| [32001](#event-32001)    | 0x0001       |      7 |              2 |
| [65535.1](#event-655351) | 0x0008       |     14 |              4 |
| [65535.2](#event-655352) | 0x0016       |     23 |              5 |
| [65535.3](#event-655353) | 0x002D       |     24 |              6 |
| [65535.4](#event-655354) | 0x0045       |     14 |              4 |
| [65535.5](#event-655355) | 0x0053       |     19 |              3 |
| [65535.6](#event-655356) | 0x0066       |     10 |              2 |
| [65535.7](#event-655357) | 0x0070       |     14 |              4 |

## DAT References (imed_data)

|   Index | Hex Value   |   Dec Value |
|---------|-------------|-------------|
|       0 | 0x000F      |          15 |
|       1 | 0xFFFA192D  |  4294580525 |
|       2 | 0xFFFEBD20  |  4294884640 |
|       3 | 0x16B0D     |       92941 |
|       4 | 0xFFF9FA75  |  4294572661 |
|       5 | 0xFFFEFBBA  |  4294900666 |
|       6 | 0x1725C     |       94812 |
|       7 | 0x0A2A      |        2602 |
|       8 | 0xFFF9F21C  |  4294570524 |
|       9 | 0xFFFF0636  |  4294903350 |
|      10 | 0x171F6     |       94710 |
|      11 | 0xFFFA02E8  |  4294574824 |
|      12 | 0xFFFEF48D  |  4294898829 |
|      13 | 0x17131     |       94513 |
|      14 | 0x0143      |         323 |
|      15 | 0x000C      |          12 |
|      16 | 0xFFFA0ACA  |  4294576842 |
|      17 | 0xFFFEEF86  |  4294897542 |
|      18 | 0x17061     |       94305 |
|      19 | 0x000D      |          13 |
|      20 | 0xFFF9F202  |  4294570498 |
|      21 | 0xFFFF06A2  |  4294903458 |
|      22 | 0x09F9      |        2553 |
|      23 | 0xFFF9DBD0  |  4294564816 |
|      24 | 0xFFFF2E48  |  4294913608 |
|      25 | 0x16F8B     |       94091 |
|      26 | 0x0B05      |        2821 |
|      27 | 0x0028      |          40 |
|      28 | 0xFFF9ECCD  |  4294569165 |
|      29 | 0xFFFF0C5D  |  4294904925 |

## Events

### Event 65535

#### Metadata

| Field        | Value   |
|--------------|---------|
| Entrypoint   | 0x0000  |
| Data Size    | 1 bytes |
| Instructions | 1       |

```
      00 01 02 03 04 05 06 07  08 09 0A 0B 0C 0D 0E 0F
      -- -- -- -- -- -- -- --  -- -- -- -- -- -- -- --
0000: 00                                                .               
```

#### Opcodes

```
  0: 0x0000 [0x00] END_REQSTACK()
```

### Event 32001

#### Metadata

| Field        | Value   |
|--------------|---------|
| Entrypoint   | 0x0001  |
| Data Size    | 7 bytes |
| Instructions | 2       |

```
      00 01 02 03 04 05 06 07  08 09 0A 0B 0C 0D 0E 0F
      -- -- -- -- -- -- -- --  -- -- -- -- -- -- -- --
0000:    2F 00 F8 FF FF 7F 00                            /......        
```

#### Opcodes

```
  0: 0x0001 [0x2F] EventEntity->Render.Flags0 &= ~0x80000 // Bit 19
  1: 0x0007 [0x00] END_REQSTACK()
```

### Event 65535.1

#### Metadata

| Field        | Value    |
|--------------|----------|
| Entrypoint   | 0x0008   |
| Data Size    | 14 bytes |
| Instructions | 4        |

```
      00 01 02 03 04 05 06 07  08 09 0A 0B 0C 0D 0E 0F
      -- -- -- -- -- -- -- --  -- -- -- -- -- -- -- --
0000:                          32 00 80 1F 00 01 80 02          2.......
0010: 80 03 80 1F 01 00                                 ......          
```

#### Opcodes

```
  0: 0x0008 [0x32] ExtData[1]->MainSpeed = 15* * 0.1
  1: 0x000B [0x1F] MOVE_ENTITY: EventEntity moves to X=-386.771*, Z=-82.656*, Y=92.941*
  2: 0x0013 [0x1F] MOVE_ENTITY: Update entity position (mode=1)
  3: 0x0015 [0x00] END_REQSTACK()
```

### Event 65535.2

#### Metadata

| Field        | Value    |
|--------------|----------|
| Entrypoint   | 0x0016   |
| Data Size    | 23 bytes |
| Instructions | 5        |

```
      00 01 02 03 04 05 06 07  08 09 0A 0B 0C 0D 0E 0F
      -- -- -- -- -- -- -- --  -- -- -- -- -- -- -- --
0010:                   37 04  80 05 80 06 80 07 80 32        7........2
0020: 00 80 1F 00 08 80 09 80  0A 80 1F 01 00           .............   
```

#### Opcodes

```
  0: 0x0016 [0x37] UPDATE_EVENT_POSITION_AND_DIR: x=-394.635*, z=-66.630*, y=94.812*, direction=228.7째*
  1: 0x001F [0x32] ExtData[1]->MainSpeed = 15* * 0.1
  2: 0x0022 [0x1F] MOVE_ENTITY: EventEntity moves to X=-396.772*, Z=-63.946*, Y=94.710*
  3: 0x002A [0x1F] MOVE_ENTITY: Update entity position (mode=1)
  4: 0x002C [0x00] END_REQSTACK()
```

### Event 65535.3

#### Metadata

| Field        | Value    |
|--------------|----------|
| Entrypoint   | 0x002D   |
| Data Size    | 24 bytes |
| Instructions | 6        |

```
      00 01 02 03 04 05 06 07  08 09 0A 0B 0C 0D 0E 0F
      -- -- -- -- -- -- -- --  -- -- -- -- -- -- -- --
0020:                                         37 0B 80               7..
0030: 0C 80 0D 80 0E 80 32 0F  80 1F 00 10 80 11 80 12  ......2.........
0040: 80 1F 01 6F 00                                    ...o.           
```

#### Opcodes

```
  0: 0x002D [0x37] UPDATE_EVENT_POSITION_AND_DIR: x=-392.472*, z=-68.467*, y=94.513*, direction=28.4째*
  1: 0x0036 [0x32] ExtData[1]->MainSpeed = 12* * 0.1
  2: 0x0039 [0x1F] MOVE_ENTITY: EventEntity moves to X=-390.454*, Z=-69.754*, Y=94.305*
  3: 0x0041 [0x1F] MOVE_ENTITY: Update entity position (mode=1)
  4: 0x0043 [0x6F] WAIT_FRAME_DELAY: Yield until WaitTime reaches zero
  5: 0x0044 [0x00] END_REQSTACK()
```

### Event 65535.4

#### Metadata

| Field        | Value    |
|--------------|----------|
| Entrypoint   | 0x0045   |
| Data Size    | 14 bytes |
| Instructions | 4        |

```
      00 01 02 03 04 05 06 07  08 09 0A 0B 0C 0D 0E 0F
      -- -- -- -- -- -- -- --  -- -- -- -- -- -- -- --
0040:                32 13 80  1F 00 14 80 15 80 0A 80       2..........
0050: 1F 01 00                                          ...             
```

#### Opcodes

```
  0: 0x0045 [0x32] ExtData[1]->MainSpeed = 13* * 0.1
  1: 0x0048 [0x1F] MOVE_ENTITY: EventEntity moves to X=-396.798*, Z=-63.838*, Y=94.710*
  2: 0x0050 [0x1F] MOVE_ENTITY: Update entity position (mode=1)
  3: 0x0052 [0x00] END_REQSTACK()
```

### Event 65535.5

#### Metadata

| Field        | Value    |
|--------------|----------|
| Entrypoint   | 0x0053   |
| Data Size    | 19 bytes |
| Instructions | 3        |

```
      00 01 02 03 04 05 06 07  08 09 0A 0B 0C 0D 0E 0F
      -- -- -- -- -- -- -- --  -- -- -- -- -- -- -- --
0050:          37 08 80 09 80  0A 80 16 80 4A F8 FF FF     7........J...
0060: 7F F0 FF FF 7F 00                                 ......          
```

#### Opcodes

```
  0: 0x0053 [0x37] UPDATE_EVENT_POSITION_AND_DIR: x=-396.772*, z=-63.946*, y=94.710*, direction=224.4째*
  1: 0x005C [0x4A] EventEntity looks at LocalPlayer
  2: 0x0065 [0x00] END_REQSTACK()
```

### Event 65535.6

#### Metadata

| Field        | Value    |
|--------------|----------|
| Entrypoint   | 0x0066   |
| Data Size    | 10 bytes |
| Instructions | 2        |

```
      00 01 02 03 04 05 06 07  08 09 0A 0B 0C 0D 0E 0F
      -- -- -- -- -- -- -- --  -- -- -- -- -- -- -- --
0060:                   37 17  80 18 80 19 80 1A 80 00        7.........
```

#### Opcodes

```
  0: 0x0066 [0x37] UPDATE_EVENT_POSITION_AND_DIR: x=-402.480*, z=-53.688*, y=94.091*, direction=247.9째*
  1: 0x006F [0x00] END_REQSTACK()
```

### Event 65535.7

#### Metadata

| Field        | Value    |
|--------------|----------|
| Entrypoint   | 0x0070   |
| Data Size    | 14 bytes |
| Instructions | 4        |

```
      00 01 02 03 04 05 06 07  08 09 0A 0B 0C 0D 0E 0F
      -- -- -- -- -- -- -- --  -- -- -- -- -- -- -- --
0070: 32 1B 80 1F 00 1C 80 1D  80 06 80 1F 01 00        2.............  
```

#### Opcodes

```
  0: 0x0070 [0x32] ExtData[1]->MainSpeed = 40* * 0.1
  1: 0x0073 [0x1F] MOVE_ENTITY: EventEntity moves to X=-398.131*, Z=-62.371*, Y=94.812*
  2: 0x007B [0x1F] MOVE_ENTITY: Update entity position (mode=1)
  3: 0x007D [0x00] END_REQSTACK()
```
