# 17347128 - Spotter

## Common Data

| Field            | Value                  |
|------------------|------------------------|
| Zone             | Horlais Peak (ID: 139) |
| Block Size       | 164 bytes              |
| Total Events     | 4                      |
| References Count | 15                     |

## List of Events

| Event ID                 | Entrypoint   |   Size |   Instructions |
|--------------------------|--------------|--------|----------------|
| [65535](#event-65535)    | 0x0000       |      1 |              1 |
| [32000](#event-32000)    | 0x0001       |     25 |              4 |
| [32001](#event-32001)    | 0x001A       |      7 |              2 |
| [65535.1](#event-655351) | 0x0021       |     37 |              6 |

## DAT References (imed_data)

|   Index | Hex Value   |   Dec Value |
|---------|-------------|-------------|
|       0 | 0x0000      |           0 |
|       1 | 0x0001      |           1 |
|       2 | 0xFFF9D005  |  4294561797 |
|       3 | 0xFFFF4B73  |  4294921075 |
|       4 | 0x16B20     |       92960 |
|       5 | 0x02D4      |         724 |
|       6 | 0xFFF9FEDC  |  4294573788 |
|       7 | 0xFFFF0CA6  |  4294904998 |
|       8 | 0x172BD     |       94909 |
|       9 | 0x0382      |         898 |
|      10 | 0x000F      |          15 |
|      11 | 0x0040      |          64 |
|      12 | 0x005A      |          90 |
|      13 | 0x007F      |         127 |
|      14 | 0x0096      |         150 |

## Events

### Event 65535

#### Metadata

| Field        | Value   |
|--------------|---------|
| Entrypoint   | 0x0000  |
| Data Size    | 1 bytes |
| Instructions | 1       |

```
      00 01 02 03 04 05 06 07  08 09 0A 0B 0C 0D 0E 0F
      -- -- -- -- -- -- -- --  -- -- -- -- -- -- -- --
0000: 00                                                .               
```

#### Opcodes

```
  0: 0x0000 [0x00] END_REQSTACK()
```

### Event 32000

#### Metadata

| Field        | Value    |
|--------------|----------|
| Entrypoint   | 0x0001   |
| Data Size    | 25 bytes |
| Instructions | 4        |

```
      00 01 02 03 04 05 06 07  08 09 0A 0B 0C 0D 0E 0F
      -- -- -- -- -- -- -- --  -- -- -- -- -- -- -- --
0000:    92 01 F8 FF FF 7F 6C  F8 FF FF 7F 00 80 01 80   ......l........
0010: 37 02 80 03 80 04 80 05  80 00                    7.........      
```

#### Opcodes

```
  0: 0x0001 [0x92] EventEntity->Render.Flags3 ^= 0x01
  1: 0x0007 [0x6C] FADE_ENTITY_COLOR(entity_id=EventEntity, end_alpha=0*, fade_time=1*)
  2: 0x0010 [0x37] UPDATE_EVENT_POSITION_AND_DIR: x=-405.499*, z=-46.221*, y=92.960*, direction=63.6°*
  3: 0x0019 [0x00] END_REQSTACK()
```

### Event 32001

#### Metadata

| Field        | Value   |
|--------------|---------|
| Entrypoint   | 0x001A  |
| Data Size    | 7 bytes |
| Instructions | 2       |

```
      00 01 02 03 04 05 06 07  08 09 0A 0B 0C 0D 0E 0F
      -- -- -- -- -- -- -- --  -- -- -- -- -- -- -- --
0010:                                2F 00 F8 FF FF 7F            /.....
0020: 00                                                .               
```

#### Opcodes

```
  0: 0x001A [0x2F] EventEntity->Render.Flags0 &= ~0x80000 // Bit 19
  1: 0x0020 [0x00] END_REQSTACK()
```

### Event 65535.1

#### Metadata

| Field        | Value    |
|--------------|----------|
| Entrypoint   | 0x0021   |
| Data Size    | 37 bytes |
| Instructions | 6        |

```
      00 01 02 03 04 05 06 07  08 09 0A 0B 0C 0D 0E 0F
      -- -- -- -- -- -- -- --  -- -- -- -- -- -- -- --
0020:    37 06 80 07 80 08 80  09 80 92 00 F8 FF FF 7F   7..............
0030: 1C 0A 80 6C F8 FF FF 7F  0B 80 0C 80 6C F8 FF FF  ...l........l...
0040: 7F 0D 80 0E 80 00                                 ......          
```

#### Opcodes

```
  0: 0x0021 [0x37] UPDATE_EVENT_POSITION_AND_DIR: x=-393.508*, z=-62.298*, y=94.909*, direction=78.9°*
  1: 0x002A [0x92] EventEntity->Render.Flags3 = Flags3  // No change (flag=0)
  2: 0x0030 [0x1C] WAIT(15* ticks)
  3: 0x0033 [0x6C] FADE_ENTITY_COLOR(entity_id=EventEntity, end_alpha=64*, fade_time=90*)
  4: 0x003C [0x6C] FADE_ENTITY_COLOR(entity_id=EventEntity, end_alpha=127*, fade_time=150*)
  5: 0x0045 [0x00] END_REQSTACK()
```
