# 0x7FFFFFF0 - Zone Events

## Common Data

| Field            | Value                  |
|------------------|------------------------|
| Zone             | Horlais Peak (ID: 139) |
| Block Size       | 12180 bytes            |
| Total Events     | 28                     |
| References Count | 379                    |

## List of Events

| Event ID                   | Entrypoint   |   Size |   Instructions |
|----------------------------|--------------|--------|----------------|
| [65535](#event-65535)      | 0x0000       |      1 |              1 |
| [65534](#event-65534)      | 0x0001       |      1 |              1 |
| [65535.1](#event-655351)   | 0x0002       |     14 |              4 |
| [65535.2](#event-655352)   | 0x0010       |     37 |              7 |
| [32000](#event-32000)      | 0x0035       |   2116 |            412 |
| [32002](#event-32002)      | 0x0879       |    494 |             83 |
| [32001](#event-32001)      | 0x0A67       |   1033 |            179 |
| [32003](#event-32003)      | 0x0E70       |    435 |             77 |
| [32004](#event-32004)      | 0x1023       |      6 |              4 |
| [65535.3](#event-655353)   | 0x1029       |      7 |              3 |
| [65535.4](#event-655354)   | 0x1030       |      7 |              3 |
| [65535.5](#event-655355)   | 0x1037       |     24 |              4 |
| [65535.6](#event-655356)   | 0x104F       |   6209 |            844 |
| [65535.7](#event-655357)   | 0x2890       |     10 |              2 |
| [65535.8](#event-655358)   | 0x289A       |     10 |              2 |
| [65535.9](#event-655359)   | 0x28A4       |     10 |              2 |
| [65535.10](#event-6553510) | 0x28AE       |     10 |              2 |
| [65535.11](#event-6553511) | 0x28B8       |     10 |              2 |
| [65535.12](#event-6553512) | 0x28C2       |     10 |              2 |
| [65535.13](#event-6553513) | 0x28CC       |     10 |              2 |
| [65535.14](#event-6553514) | 0x28D6       |     10 |              2 |
| [65535.15](#event-6553515) | 0x28E0       |     10 |              2 |
| [65535.16](#event-6553516) | 0x28EA       |     10 |              2 |
| [65535.17](#event-6553517) | 0x28F4       |     10 |              2 |
| [65535.18](#event-6553518) | 0x28FE       |     10 |              2 |
| [65535.19](#event-6553519) | 0x2908       |     10 |              2 |
| [65535.20](#event-6553520) | 0x2912       |     10 |              2 |
| [65535.21](#event-6553521) | 0x291C       |     10 |              2 |

## DAT References (imed_data)

|   Index | Hex Value   |   Dec Value |
|---------|-------------|-------------|
|       0 | 0x000C      |          12 |
|       1 | 0xFFF9F22B  |  4294570539 |
|       2 | 0xFFFF0BBB  |  4294904763 |
|       3 | 0x1716D     |       94573 |
|       4 | 0xFFFA0982  |  4294576514 |
|       5 | 0xFFFEF678  |  4294899320 |
|       6 | 0x170CE     |       94414 |
|       7 | 0x017A      |         378 |
|       8 | 0xFFFA1070  |  4294578288 |
|       9 | 0xFFFEF09B  |  4294897819 |
|      10 | 0x1707B     |       94331 |
|      11 | 0x0000      |           0 |
|      12 | 0x000F      |          15 |
|      13 | 0x0010      |          16 |
|      14 | 0x001F      |          31 |
|      15 | 0xFFFFFFFF  |  4294967295 |
|      16 | 0x0001      |           1 |
|      17 | 0x1DB6      |        7606 |
|      18 | 0x1DA8      |        7592 |
|      19 | 0x0005      |           5 |
|      20 | 0x0002      |           2 |
|      21 | 0x0003      |           3 |
|      22 | 0x0004      |           4 |
|      23 | 0x1C3B      |        7227 |
|      24 | 0x00FF      |         255 |
|      25 | 0x00C8      |         200 |
|      26 | 0x0013      |          19 |
|      27 | 0x0008      |           8 |
|      28 | 0x0009      |           9 |
|      29 | 0x000B      |          11 |
|      30 | 0x1C46      |        7238 |
|      31 | 0x1C47      |        7239 |
|      32 | 0x1C48      |        7240 |
|      33 | 0x1C49      |        7241 |
|      34 | 0x1C6D      |        7277 |
|      35 | 0x0006      |           6 |
|      36 | 0x0007      |           7 |
|      37 | 0x000A      |          10 |
|      38 | 0x0012      |          18 |
|      39 | 0x000D      |          13 |
|      40 | 0x000E      |          14 |
|      41 | 0x0011      |          17 |
|      42 | 0x0014      |          20 |
|      43 | 0x0015      |          21 |
|      44 | 0x0016      |          22 |
|      45 | 0x0017      |          23 |
|      46 | 0x0018      |          24 |
|      47 | 0x0019      |          25 |
|      48 | 0x001A      |          26 |
|      49 | 0x001B      |          27 |
|      50 | 0x001C      |          28 |
|      51 | 0x001D      |          29 |
|      52 | 0x001E      |          30 |
|      53 | 0x1DA2      |        7586 |
|      54 | 0x1DA7      |        7591 |
|      55 | 0x1DA6      |        7590 |
|      56 | 0x003C      |          60 |
|      57 | 0x1DB4      |        7604 |
|      58 | 0x1DB3      |        7603 |
|      59 | 0x0064      |         100 |
|      60 | 0x1D8E      |        7566 |
|      61 | 0x007D      |         125 |
|      62 | 0x1C3E      |        7230 |
|      63 | 0x00C9      |         201 |
|      64 | 0x2BE00     |      179712 |
|      65 | 0x5163E     |      333374 |
|      66 | 0x2EBC      |       11964 |
|      67 | 0x03C9      |         969 |
|      68 | 0x00B4      |         180 |
|      69 | 0xFFF6C42B  |  4294362155 |
|      70 | 0x752B9     |      479929 |
|      71 | 0xFFFFA767  |  4294944615 |
|      72 | 0x03E0      |         992 |
|      73 | 0xFFFBFE43  |  4294704707 |
|      74 | 0x5C401     |      377857 |
|      75 | 0xFFFDE79F  |  4294829983 |
|      76 | 0x0D92      |        3474 |
|      77 | 0x47AC      |       18348 |
|      78 | 0x76E1C     |      486940 |
|      79 | 0xFFFC93B2  |  4294742962 |
|      80 | 0x00C2      |         194 |
|      81 | 0x388A9     |      231593 |
|      82 | 0x57E9E     |      360094 |
|      83 | 0xFFFD59FC  |  4294793724 |
|      84 | 0x0726      |        1830 |
|      85 | 0x872C0     |      553664 |
|      86 | 0x7FEA3     |      523939 |
|      87 | 0xFFFF6AC3  |  4294929091 |
|      88 | 0x0A65      |        2661 |
|      89 | 0xFFF818D3  |  4294449363 |
|      90 | 0xFFFCCBE5  |  4294757349 |
|      91 | 0x2702D     |      159789 |
|      92 | 0x07E1      |        2017 |
|      93 | 0xFFF2A593  |  4294092179 |
|      94 | 0xFFFF548C  |  4294923404 |
|      95 | 0xFFFF442C  |  4294919212 |
|      96 | 0x0201      |         513 |
|      97 | 0xFFF478D5  |  4294211797 |
|      98 | 0x89AEB     |      563947 |
|      99 | 0xFFFE4A5D  |  4294855261 |
|     100 | 0x0DEF      |        3567 |
|     101 | 0x1E173     |      123251 |
|     102 | 0xB8221     |      754209 |
|     103 | 0xFFFD5FA4  |  4294795172 |
|     104 | 0x01B8      |         440 |
|     105 | 0xFFF81ECC  |  4294450892 |
|     106 | 0xFFF3BE05  |  4294163973 |
|     107 | 0x5E8E      |       24206 |
|     108 | 0x01B5      |         437 |
|     109 | 0x012C      |         300 |
|     110 | 0x0080      |         128 |
|     111 | 0xFFF690A7  |  4294348967 |
|     112 | 0xFFF62CE4  |  4294323428 |
|     113 | 0xFFFF9B33  |  4294941491 |
|     114 | 0x0EB1      |        3761 |
|     115 | 0xFFFAEE7D  |  4294635133 |
|     116 | 0xFFF941C6  |  4294525382 |
|     117 | 0xFFFE8CB1  |  4294872241 |
|     118 | 0x0EB0      |        3760 |
|     119 | 0xFFFFCF50  |  4294954832 |
|     120 | 0xFFF61B47  |  4294318919 |
|     121 | 0xFFFD07BB  |  4294772667 |
|     122 | 0x0EBA      |        3770 |
|     123 | 0x4EF35     |      323381 |
|     124 | 0xFFF93A6F  |  4294523503 |
|     125 | 0xFFFE5868  |  4294858856 |
|     126 | 0x0EA0      |        3744 |
|     127 | 0x92763     |      599907 |
|     128 | 0xFFF5AB97  |  4294290327 |
|     129 | 0xFFFFA837  |  4294944823 |
|     130 | 0x0EB3      |        3763 |
|     131 | 0x6EAFA     |      453370 |
|     132 | 0xFFFFE64A  |  4294960714 |
|     133 | 0xFFFF69D6  |  4294928854 |
|     134 | 0x0BA8      |        2984 |
|     135 | 0x00A8      |         168 |
|     136 | 0x30D7B     |      200059 |
|     137 | 0xFFFFAA3A  |  4294945338 |
|     138 | 0xFFFFFF06  |  4294967046 |
|     139 | 0x0411      |        1041 |
|     140 | 0x00CA      |         202 |
|     141 | 0x837EC     |      538604 |
|     142 | 0x7A88C     |      501900 |
|     143 | 0xFFFFC98A  |  4294953354 |
|     144 | 0x0CBC      |        3260 |
|     145 | 0x00CB      |         203 |
|     146 | 0x870F5     |      553205 |
|     147 | 0x8FF41     |      589633 |
|     148 | 0xFFFFFFEB  |  4294967275 |
|     149 | 0x0587      |        1415 |
|     150 | 0x00D3      |         211 |
|     151 | 0x8AF88     |      569224 |
|     152 | 0x85E6E     |      548462 |
|     153 | 0x8FE5      |       36837 |
|     154 | 0x02A1      |         673 |
|     155 | 0x0024      |          36 |
|     156 | 0x1D90      |        7568 |
|     157 | 0x1D8F      |        7567 |
|     158 | 0x1DB2      |        7602 |
|     159 | 0x1D92      |        7570 |
|     160 | 0x1D91      |        7569 |
|     161 | 0x1D7E      |        7550 |
|     162 | 0x0027      |          39 |
|     163 | 0xFFF83FFD  |  4294459389 |
|     164 | 0xFFFCC28E  |  4294754958 |
|     165 | 0x26B89     |      158601 |
|     166 | 0x002B      |          43 |
|     167 | 0xFFF85106  |  4294463750 |
|     168 | 0xFFFCC127  |  4294754599 |
|     169 | 0x26A52     |      158290 |
|     170 | 0x087A      |        2170 |
|     171 | 0xFFF9A1F4  |  4294550004 |
|     172 | 0xFFFF95A3  |  4294940067 |
|     173 | 0x1CE12     |      118290 |
|     174 | 0x0028      |          40 |
|     175 | 0xFFF9C86D  |  4294559853 |
|     176 | 0xFFFF8B93  |  4294937491 |
|     177 | 0x1D170     |      119152 |
|     178 | 0x002D      |          45 |
|     179 | 0x1DBD      |        7613 |
|     180 | 0x1DBE      |        7614 |
|     181 | 0x1DBF      |        7615 |
|     182 | 0x1DC0      |        7616 |
|     183 | 0x0258      |         600 |
|     184 | 0x1DC1      |        7617 |
|     185 | 0x1DC2      |        7618 |
|     186 | 0x1DC3      |        7619 |
|     187 | 0x1DC4      |        7620 |
|     188 | 0x1DC5      |        7621 |
|     189 | 0x1DC6      |        7622 |
|     190 | 0x1DC7      |        7623 |
|     191 | 0x1DC8      |        7624 |
|     192 | 0x007F      |         127 |
|     193 | 0x1DC9      |        7625 |
|     194 | 0x007A      |         122 |
|     195 | 0x1DCA      |        7626 |
|     196 | 0x0078      |         120 |
|     197 | 0x1E41      |        7745 |
|     198 | 0x1E42      |        7746 |
|     199 | 0x1E43      |        7747 |
|     200 | 0x1E44      |        7748 |
|     201 | 0x1E45      |        7749 |
|     202 | 0xFFFB2C6F  |  4294650991 |
|     203 | 0xFFFE6F54  |  4294864724 |
|     204 | 0x1B9C9     |      113097 |
|     205 | 0x05C1      |        1473 |
|     206 | 0xFFFED5AE  |  4294890926 |
|     207 | 0x12E56     |       77398 |
|     208 | 0xFFFFE501  |  4294960385 |
|     209 | 0x05B7      |        1463 |
|     210 | 0x27F27     |      163623 |
|     211 | 0x3ECD0     |      257232 |
|     212 | 0xFFFE1031  |  4294840369 |
|     213 | 0xFFFDA405  |  4294812677 |
|     214 | 0x1B1BE     |      111038 |
|     215 | 0xFFFF9D9D  |  4294942109 |
|     216 | 0x0A46      |        2630 |
|     217 | 0xFFFD9DBB  |  4294811067 |
|     218 | 0x1C3C5     |      115653 |
|     219 | 0xFFFF9D2B  |  4294941995 |
|     220 | 0x028C      |         652 |
|     221 | 0x022B      |         555 |
|     222 | 0x1F16      |        7958 |
|     223 | 0x0075      |         117 |
|     224 | 0x007E      |         126 |
|     225 | 0x1F17      |        7959 |
|     226 | 0x0032      |          50 |
|     227 | 0x009D      |         157 |
|     228 | 0x005F      |          95 |
|     229 | 0x0060      |          96 |
|     230 | 0xFFF9F2A1  |  4294570657 |
|     231 | 0xFFFF162B  |  4294907435 |
|     232 | 0x1725C     |       94812 |
|     233 | 0x09CE      |        2510 |
|     234 | 0x1DCB      |        7627 |
|     235 | 0x1DCC      |        7628 |
|     236 | 0x1DCD      |        7629 |
|     237 | 0x1DCE      |        7630 |
|     238 | 0x1DCF      |        7631 |
|     239 | 0x1DD0      |        7632 |
|     240 | 0x1DD1      |        7633 |
|     241 | 0x1DD2      |        7634 |
|     242 | 0x1DD3      |        7635 |
|     243 | 0x1DD4      |        7636 |
|     244 | 0x1DD5      |        7637 |
|     245 | 0x1DD6      |        7638 |
|     246 | 0x1DD7      |        7639 |
|     247 | 0x1DD8      |        7640 |
|     248 | 0xFFF9E393  |  4294566803 |
|     249 | 0xFFFF2CD7  |  4294913239 |
|     250 | 0x17021     |       94241 |
|     251 | 0x09EF      |        2543 |
|     252 | 0x1DD9      |        7641 |
|     253 | 0x0287      |         647 |
|     254 | 0x1DDA      |        7642 |
|     255 | 0x6EAF9     |      453369 |
|     256 | 0xFFFF69D7  |  4294928855 |
|     257 | 0x0BA1      |        2977 |
|     258 | 0x00A3      |         163 |
|     259 | 0xFFF9FA7A  |  4294572666 |
|     260 | 0xFFFEF4F0  |  4294898928 |
|     261 | 0x0AF6      |        2806 |
|     262 | 0xFFF9F5AF  |  4294571439 |
|     263 | 0xFFFF0211  |  4294902289 |
|     264 | 0x171F6     |       94710 |
|     265 | 0x1E46      |        7750 |
|     266 | 0x1E47      |        7751 |
|     267 | 0x1E48      |        7752 |
|     268 | 0x1E49      |        7753 |
|     269 | 0x1E4A      |        7754 |
|     270 | 0x1E4B      |        7755 |
|     271 | 0x1E4C      |        7756 |
|     272 | 0x1E4D      |        7757 |
|     273 | 0x1E4E      |        7758 |
|     274 | 0x1E4F      |        7759 |
|     275 | 0x1E50      |        7760 |
|     276 | 0x1E51      |        7761 |
|     277 | 0xFFFDAEE6  |  4294815462 |
|     278 | 0x19D17     |      105751 |
|     279 | 0xFFFF9A38  |  4294941240 |
|     280 | 0x0AEF      |        2799 |
|     281 | 0xFFFDBB8C  |  4294818700 |
|     282 | 0x19D05     |      105733 |
|     283 | 0xFFFF9AAD  |  4294941357 |
|     284 | 0x02BC      |         700 |
|     285 | 0x0031      |          49 |
|     286 | 0x0062      |          98 |
|     287 | 0x0023      |          35 |
|     288 | 0x005A      |          90 |
|     289 | 0x0804      |        2052 |
|     290 | 0x1F18      |        7960 |
|     291 | 0x1F19      |        7961 |
|     292 | 0x1F1A      |        7962 |
|     293 | 0x1F1B      |        7963 |
|     294 | 0x0020      |          32 |
|     295 | 0x1F1C      |        7964 |
|     296 | 0x1F1D      |        7965 |
|     297 | 0x0805      |        2053 |
|     298 | 0x1F1E      |        7966 |
|     299 | 0x0050      |          80 |
|     300 | 0x1F1F      |        7967 |
|     301 | 0x1F20      |        7968 |
|     302 | 0x1F21      |        7969 |
|     303 | 0x1F22      |        7970 |
|     304 | 0x1F23      |        7971 |
|     305 | 0x0046      |          70 |
|     306 | 0x008C      |         140 |
|     307 | 0x00D2      |         210 |
|     308 | 0x1C3C      |        7228 |
|     309 | 0x0800      |        2048 |
|     310 | 0xFFF818D4  |  4294449364 |
|     311 | 0x07E0      |        2016 |
|     312 | 0x0065      |         101 |
|     313 | 0x0068      |         104 |
|     314 | 0x006B      |         107 |
|     315 | 0x0067      |         103 |
|     316 | 0x006A      |         106 |
|     317 | 0x006D      |         109 |
|     318 | 0x0077      |         119 |
|     319 | 0x0081      |         129 |
|     320 | 0xFFFE6D84  |  4294864260 |
|     321 | 0x1521D     |       86557 |
|     322 | 0xFFFEE6C0  |  4294895296 |
|     323 | 0x064C      |        1612 |
|     324 | 0x9DC49     |      646217 |
|     325 | 0xFFFD6E64  |  4294798948 |
|     326 | 0x00A1      |         161 |
|     327 | 0x0C85      |        3205 |
|     328 | 0xFFFFADA3  |  4294946211 |
|     329 | 0xE9CA      |       59850 |
|     330 | 0xFFFFF799  |  4294965145 |
|     331 | 0x0D28      |        3368 |
|     332 | 0xFFFEABF4  |  4294880244 |
|     333 | 0xFFFA4EB6  |  4294594230 |
|     334 | 0x012D      |         301 |
|     335 | 0x06A4      |        1700 |
|     336 | 0xFFFDB3A7  |  4294816679 |
|     337 | 0x4EF1      |       20209 |
|     338 | 0xFFFFBFF4  |  4294950900 |
|     339 | 0x084E      |        2126 |
|     340 | 0xFFFF6A35  |  4294928949 |
|     341 | 0x2327      |        8999 |
|     342 | 0x03ED      |        1005 |
|     343 | 0xFFFCAEE9  |  4294749929 |
|     344 | 0x70C05     |      461829 |
|     345 | 0x17BF0     |       97264 |
|     346 | 0x08E7      |        2279 |
|     347 | 0xFFFC4F0B  |  4294725387 |
|     348 | 0x51564     |      333156 |
|     349 | 0xFFFFD0E8  |  4294955240 |
|     350 | 0x0278      |         632 |
|     351 | 0xFFFA9423  |  4294612003 |
|     352 | 0xFFFE6DB2  |  4294864306 |
|     353 | 0x3C71      |       15473 |
|     354 | 0x08EC      |        2284 |
|     355 | 0x6D91F     |      448799 |
|     356 | 0xFFFF8D5B  |  4294937947 |
|     357 | 0xFFFF64E1  |  4294927585 |
|     358 | 0x0240      |         576 |
|     359 | 0xFFFFBB04  |  4294949636 |
|     360 | 0xD3E9      |       54249 |
|     361 | 0xFFFFFE47  |  4294966855 |
|     362 | 0x0AC4      |        2756 |
|     363 | 0xFFFFB53C  |  4294948156 |
|     364 | 0x4B66      |       19302 |
|     365 | 0x9EA9      |       40617 |
|     366 | 0x03A7      |         935 |
|     367 | 0x11D84     |       73092 |
|     368 | 0xFFFD607B  |  4294795387 |
|     369 | 0x0F9F      |        3999 |
|     370 | 0x0402      |        1026 |
|     371 | 0xFFFFB137  |  4294947127 |
|     372 | 0x7A43      |       31299 |
|     373 | 0xFFFFD8F2  |  4294957298 |
|     374 | 0x0D4B      |        3403 |
|     375 | 0xFFFFC860  |  4294953056 |
|     376 | 0xD01B      |       53275 |
|     377 | 0xFFFFFD7F  |  4294966655 |
|     378 | 0x0BF0      |        3056 |

## String References

- **7227**: Enter the battlefield? [Enter./Decline.]
- **7228**: Leave the battlefield? [Run away./Stay.]
- **7230**: You cannot enter the battlefield at present. Please wait a little longer.
- **7238**: You are cleared to enter the battlefield, but you cannot while party members are engaged in combat.
- **7239**: You are cleared to enter the battlefield, but you cannot while party members are engaged in combat.
- **7240**: You are cleared to enter the battlefield, but you cannot while party members are engaged in combat.
- **7241**: You are cleared to enter the battlefield, but you cannot while party members are engaged in combat.
- **7277**: You do not meet the requirements to enter the battlefield. Access is denied.
- **7550**: iDEBUG$3998261$3{$3X$3|$3b$3vB
- **7566**: Skip the event? [Yes./No.]
- **7567**: Battlefield clear time: $3 second[/s]!
- **7568**: Battlefield clear time: $3 minute[/s], $2 second[/s]!
- **7569**: The current battlefield clear time record is $3 second[/s].
- **7570**: The current battlefield clear time record is $3 minute[/s] $2 second[/s].
- **7586**: Only $3 [member/members] have clearance to enter the battlefield. This room has reached its maximum capacity.
- **7590**: That record is held by $5 adventurers, including %0!
- **7591**: That record is held by %0!
- **7592**: Select difficulty. [Very difficult. (Level: ???)/Difficult. (Level: ???)/Normal. (Level: $18)/Easy. (Level: $17)/Very Easy. (Level: $16)/Leave.]
- **7602**: You have broken the clear time record for "[The Rank 2 Final Mission/Tails of Woe/Dismemberment Brigade/The Secret Weapon/Hostile Herbivores/Shattering Stars (WAR)/Shattering Stars (BLM)/Shattering Stars (RNG)/Carapace Combatants/Shooting Fish/Dropping Like Flies/Horns of War/Under Observation/Eye of the Tiger/Shots in the Dark/Double Dragonian/Today's Horoscope/Contaminated Colosseum/Kindergarten Cap/Last Orc-Shunned Hero/Beyond Infinity/$26Tails of Woe/$26Dismemberment Brigade/A Feast Most Dire/A.M.A.N. Trove (Mars)/A.M.A.N. Trove (Venus)/Inv. from Excenmille/Inv. from Excenmille and Co.]"!
- **7603**: The current battlefield clear time record for "[The Rank 2 Final Mission/Tails of Woe/Dismemberment Brigade/The Secret Weapon/Hostile Herbivores/Shattering Stars (WAR)/Shattering Stars (BLM)/Shattering Stars (RNG)/Carapace Combatants/Shooting Fish/Dropping Like Flies/Horns of War/Under Observation/Eye of the Tiger/Shots in the Dark/Double Dragonian/Today's Horoscope/Contaminated Colosseum/Kindergarten Cap/Last Orc-Shunned Hero/Beyond Infinity/$26Tails of Woe/$26Dismemberment Brigade/A Feast Most Dire/A.M.A.N. Trove (Mars)/A.M.A.N. Trove (Venus)/Inv. from Excenmille/Inv. from Excenmille and Co.]" is $3 second[/s].
- **7604**: The current battlefield clear time record for "[The Rank 2 Final Mission/Tails of Woe/Dismemberment Brigadee/The Secret Weapon/Hostile Herbivores/Shattering Stars (WAR)/Shattering Stars (BLM)/Shattering Stars (RNG)/Carapace Combatants/Shooting Fish/Dropping Like Flies/Horns of War/Under Observation/Eye of the Tiger/Shots in the Dark/Double Dragonian/Today's Horoscope/Contaminated Colosseum/Kindergarten Cap/Last Orc-Shunned Hero/Beyond Infinity/$26Tails of Woe/$26Dismemberment Brigade/A Feast Most Dire/A.M.A.N. Trove (Mars)/A.M.A.N. Trove (Venus)/Inv. from Excenmille/Inv. from Excenmille and Co.]" is $3 minute[/s] $2 second[/s].
- **7606**: Which battlefield will you enter? [None./The Rank 2 Final Mission./Tails of Woe./Dismemberment Brigade./The Secret Weapon./Hostile Herbivores./Shattering Stars (WAR)./Shattering Stars (BLM)./Shattering Stars (RNG)./Carapace Combatants./Shooting Fish./Dropping Like Flies./Horns of War./Under Observation./Eye of the Tiger./Shots in the Dark./Double Dragonian./Today's Horoscope./Contaminated Colosseum./Kindergarten Cap./Last Orc-Shunned Hero./Beyond Infinity./$26Tails of Woe/$26Dismemberment Brigade/A Feast Most Dire./A.M.A.N. Trove (Mars)./A.M.A.N. Trove (Venus)./Inv. from Excenmille./Inv. from Excenmille and Co./././././.]
- **7960**: The $3 dematerializes before your eyes!

## Events

### Event 65535

#### Metadata

| Field        | Value   |
|--------------|---------|
| Entrypoint   | 0x0000  |
| Data Size    | 1 bytes |
| Instructions | 1       |

```
      00 01 02 03 04 05 06 07  08 09 0A 0B 0C 0D 0E 0F
      -- -- -- -- -- -- -- --  -- -- -- -- -- -- -- --
0000: 00                                                .               
```

#### Opcodes

```
  0: 0x0000 [0x00] END_REQSTACK()
```

### Event 65534

#### Metadata

| Field        | Value   |
|--------------|---------|
| Entrypoint   | 0x0001  |
| Data Size    | 1 bytes |
| Instructions | 1       |

```
      00 01 02 03 04 05 06 07  08 09 0A 0B 0C 0D 0E 0F
      -- -- -- -- -- -- -- --  -- -- -- -- -- -- -- --
0000:    00                                              .              
```

#### Opcodes

```
  0: 0x0001 [0x00] END_REQSTACK()
```

### Event 65535.1

#### Metadata

| Field        | Value    |
|--------------|----------|
| Entrypoint   | 0x0002   |
| Data Size    | 14 bytes |
| Instructions | 4        |

```
      00 01 02 03 04 05 06 07  08 09 0A 0B 0C 0D 0E 0F
      -- -- -- -- -- -- -- --  -- -- -- -- -- -- -- --
0000:       32 00 80 1F 00 01  80 02 80 03 80 1F 01 00    2.............
```

#### Opcodes

```
  0: 0x0002 [0x32] ExtData[1]->MainSpeed = 12* * 0.1
  1: 0x0005 [0x1F] MOVE_ENTITY: EventEntity moves to X=-396.757*, Z=-62.533*, Y=94.573*
  2: 0x000D [0x1F] MOVE_ENTITY: Update entity position (mode=1)
  3: 0x000F [0x00] END_REQSTACK()
```

### Event 65535.2

#### Metadata

| Field        | Value    |
|--------------|----------|
| Entrypoint   | 0x0010   |
| Data Size    | 37 bytes |
| Instructions | 7        |

```
      00 01 02 03 04 05 06 07  08 09 0A 0B 0C 0D 0E 0F
      -- -- -- -- -- -- -- --  -- -- -- -- -- -- -- --
0010: 37 04 80 05 80 06 80 07  80 32 00 80 1F 00 08 80  7........2......
0020: 09 80 0A 80 1F 01 6F 2C  F0 FF FF 7F F0 FF FF 7F  ......o,........
0030: 72 65 73 30 00                                    res0.           
```

#### Opcodes

```
  0: 0x0010 [0x37] UPDATE_EVENT_POSITION_AND_DIR: x=-390.782*, z=-67.976*, y=94.414*, direction=33.2°*
  1: 0x0019 [0x32] ExtData[1]->MainSpeed = 12* * 0.1
  2: 0x001C [0x1F] MOVE_ENTITY: EventEntity moves to X=-389.008*, Z=-69.477*, Y=94.331*
  3: 0x0024 [0x1F] MOVE_ENTITY: Update entity position (mode=1)
  4: 0x0026 [0x6F] WAIT_FRAME_DELAY: Yield until WaitTime reaches zero
  5: 0x0027 [0x2C] CREATE_SCHEDULER_TASK: Create scheduler "res0" with entities [LocalPlayer, LocalPlayer]
  6: 0x0034 [0x00] END_REQSTACK()
```

### Event 32000

#### Metadata

| Field        | Value      |
|--------------|------------|
| Entrypoint   | 0x0035     |
| Data Size    | 2116 bytes |
| Instructions | 279        |

```
      00 01 02 03 04 05 06 07  08 09 0A 0B 0C 0D 0E 0F
      -- -- -- -- -- -- -- --  -- -- -- -- -- -- -- --
0030:                20 01 79  00 F0 FF FF 7F F0 FF FF        .y........
0040: 7F 03 02 00 02 10 03 03  00 03 10 03 05 00 04 10  ................
0050: 03 06 00 05 10 03 0F 00  06 10 03 10 00 07 10 03  ................
0060: 11 00 08 10 41 0B 80 0C  80 09 10 07 00 41 0D 80  ....A........A..
0070: 0E 80 09 10 06 10 06 01  00 02 07 00 0B 80 00 78  ...............x
0080: 01 03 08 00 0F 80 0F 08  00 06 00 10 08 00 10 80  ................
0090: 24 11 80 0B 80 08 00 25  02 00 10 0B 80 00 A6 00  $......%........
00A0: 01 5E 08 01 78 01 03 03  00 00 10 0C 03 00 06 16  .^..x...........
00B0: 00 06 13 00 3E 0F 00 03  00 54 01 06 0F 00 06 08  ....>....T......
00C0: 00 3E 11 00 03 00 CB 00  01 D2 00 3C 08 00 0B 80  .>.........<....
00D0: 10 80 3E 10 00 03 00 DC  00 01 E3 00 3C 08 00 10  ..>.........<...
00E0: 80 10 80 1A B9 26 24 12  80 13 80 08 00 25 02 00  .....&$......%..
00F0: 10 0B 80 00 FE 00 03 0F  00 10 80 01 51 01 02 00  ............Q...
0100: 10 10 80 00 0E 01 03 0F  00 14 80 01 51 01 02 00  ............Q...
0110: 10 14 80 00 1E 01 03 0F  00 15 80 01 51 01 02 00  ............Q...
0120: 10 15 80 00 2E 01 03 0F  00 16 80 01 51 01 02 00  ............Q...
0130: 10 16 80 00 3E 01 03 0F  00 13 80 01 51 01 02 00  ....>.......Q...
0140: 10 13 80 00 4C 01 01 5E  08 01 51 01 03 0F 00 15  ....L..^..Q.....
0150: 80 01 78 01 06 0F 00 1A  78 08 02 16 00 10 80 00  ..x.....x.......
0160: 78 01 24 17 80 10 80 0B  80 25 02 00 10 10 80 00  x.$......%......
0170: 78 01 01 5E 08 01 78 01  42 03 01 10 18 80 43 00  x..^..x.B.....C.
0180: 43 01 06 01 10 45 19 80  F0 FF FF 7F F0 FF FF 7F  C....E..........
0190: 66 64 6F 31 0B 80 55 19  80 F0 FF FF 7F F0 FF FF  fdo1..U.........
01A0: 7F 66 64 6F 31 3B F0 FF  FF 7F 20 10 21 10 22 10  .fdo1;.... .!.".
01B0: 38 1A 80 02 07 00 10 80  00 D2 01 03 00 00 10 80  8...............
01C0: 03 04 00 03 00 03 02 00  0B 80 03 1C 00 0B 80 01  ................
01D0: 92 05 03 00 00 10 80 02  00 00 15 80 05 27 08 02  .............'..
01E0: 0B 80 10 80 00 EC 01 03  00 00 05 00 40 0B 80 15  ............@...
01F0: 80 01 10 00 00 40 16 80  1B 80 01 10 03 00 40 1C  .....@........@.
0200: 80 1D 80 01 10 0F 00 06  02 10 06 03 10 06 04 10  ................
0210: 1A 13 28 47 00 09 00 0A  00 0B 00 0C 00 47 01 03  ..(G.........G..
0220: 04 00 03 10 03 02 00 04  10 03 1A 00 05 10 03 0D  ................
0230: 00 06 10 03 0E 00 07 10  03 1C 00 09 10 02 02 10  ................
0240: 10 80 80 48 02 01 14 08  02 02 10 16 80 80 92 02  ...H............
0250: 02 00 00 10 80 80 5F 02  48 1E 80 23 01 8C 02 02  ......_.H..#....
0260: 00 00 14 80 80 6E 02 48  1F 80 23 01 8C 02 02 00  .....n.H..#.....
0270: 00 15 80 80 7D 02 48 20  80 23 01 8C 02 02 00 00  ....}.H .#......
0280: 16 80 80 8C 02 48 21 80  23 01 8C 02 01 2B 08 01  .....H!.#....+..
0290: 14 08 02 02 10 13 80 80  A4 02 48 22 80 23 01 2B  ..........H".#.+
02A0: 08 01 14 08 02 02 10 23  80 80 A6 04 02 04 00 0B  .......#........
02B0: 80 80 BC 02 03 05 10 23  80 01 9C 04 02 04 00 10  .......#........
02C0: 80 80 CC 02 03 05 10 23  80 01 9C 04 02 04 00 14  .......#........
02D0: 80 80 DC 02 03 05 10 23  80 01 9C 04 02 04 00 15  .......#........
02E0: 80 80 EC 02 03 05 10 23  80 01 9C 04 02 04 00 16  .......#........
02F0: 80 80 FC 02 03 05 10 23  80 01 9C 04 02 04 00 13  .......#........
0300: 80 80 0C 03 03 05 10 10  80 01 9C 04 02 04 00 23  ...............#
0310: 80 80 1C 03 03 05 10 10  80 01 9C 04 02 04 00 24  ...............$
0320: 80 80 2C 03 03 05 10 10  80 01 9C 04 02 04 00 1B  ..,.............
0330: 80 80 3C 03 03 05 10 15  80 01 9C 04 02 04 00 1C  ..<.............
0340: 80 80 4C 03 03 05 10 15  80 01 9C 04 02 04 00 25  ..L............%
0350: 80 80 5C 03 03 05 10 23  80 01 9C 04 02 04 00 1D  ..\....#........
0360: 80 80 6C 03 03 05 10 26  80 01 9C 04 02 04 00 00  ..l....&........
0370: 80 80 7C 03 03 05 10 15  80 01 9C 04 02 04 00 27  ..|............'
0380: 80 80 8C 03 03 05 10 15  80 01 9C 04 02 04 00 28  ...............(
0390: 80 80 9C 03 03 05 10 15  80 01 9C 04 02 04 00 0C  ................
03A0: 80 80 AC 03 03 05 10 23  80 01 9C 04 02 04 00 0D  .......#........
03B0: 80 80 BC 03 03 05 10 23  80 01 9C 04 02 04 00 29  .......#.......)
03C0: 80 80 CC 03 03 05 10 23  80 01 9C 04 02 04 00 26  .......#.......&
03D0: 80 80 DC 03 03 05 10 15  80 01 9C 04 02 04 00 1A  ................
03E0: 80 80 EC 03 03 05 10 23  80 01 9C 04 02 04 00 2A  .......#.......*
03F0: 80 80 FC 03 03 05 10 23  80 01 9C 04 02 04 00 2B  .......#.......+
0400: 80 80 0C 04 03 05 10 23  80 01 9C 04 02 04 00 2C  .......#.......,
0410: 80 80 1C 04 03 05 10 23  80 01 9C 04 02 04 00 2D  .......#.......-
0420: 80 80 2C 04 03 05 10 23  80 01 9C 04 02 04 00 2E  ..,....#........
0430: 80 80 3C 04 03 05 10 23  80 01 9C 04 02 04 00 2F  ..<....#......./
0440: 80 80 4C 04 03 05 10 23  80 01 9C 04 02 04 00 30  ..L....#.......0
0450: 80 80 5C 04 03 05 10 23  80 01 9C 04 02 04 00 31  ..\....#.......1
0460: 80 80 6C 04 03 05 10 23  80 01 9C 04 02 04 00 32  ..l....#.......2
0470: 80 80 7C 04 03 05 10 0B  80 01 9C 04 02 04 00 33  ..|............3
0480: 80 80 8C 04 03 05 10 0B  80 01 9C 04 02 04 00 34  ...............4
0490: 80 80 9C 04 03 05 10 0B  80 01 9C 04 48 35 80 23  ............H5.#
04A0: 01 2B 08 01 14 08 02 02  10 15 80 80 B4 04 01 D2  .+..............
04B0: 01 01 14 08 02 02 10 14  80 80 14 08 02 0D 00 0B  ................
04C0: 80 01 48 05 02 13 00 0B  80 01 FC 04 03 05 10 1A  ..H.............
04D0: 00 02 1A 00 0B 80 02 D9  04 02 0D 00 10 80 05 E8  ................
04E0: 04 48 36 80 23 01 F9 04  03 06 10 0D 00 0C 06 10  .H6.#...........
04F0: 03 07 10 0D 00 48 37 80  23 01 48 05 03 05 10 1A  .....H7.#.H.....
0500: 00 02 1A 00 0B 80 02 28  05 02 1A 00 38 80 04 24  .......(....8..$
0510: 05 3F 04 10 05 10 38 80  15 05 10 38 80 48 39 80  .?....8....8.H9.
0520: 23 01 28 05 48 3A 80 23  02 0D 00 10 80 05 37 05  #.(.H:.#......7.
0530: 48 36 80 23 01 48 05 03  06 10 0D 00 0C 06 10 03  H6.#.H..........
0540: 07 10 0D 00 48 37 80 23  03 03 00 04 00 03 14 00  ....H7.#........
0550: 3B 80 07 14 00 03 00 02  02 00 14 00 00 67 05 03  ;............g..
0560: 02 00 10 80 01 6C 05 03  02 00 0B 80 02 02 00 0B  .....l..........
0570: 80 00 92 05 02 0E 00 10  80 00 92 05 24 3C 80 10  ............$<..
0580: 80 0B 80 25 02 00 10 0B  80 00 92 05 05 02 00 01  ...%............
0590: 92 05 06 15 00 02 04 00  0B 80 80 A5 05 03 15 00  ................
05A0: 0B 80 01 8A 07 02 04 00  10 80 80 B5 05 03 15 00  ................
05B0: 0B 80 01 8A 07 02 04 00  14 80 80 C5 05 03 15 00  ................
05C0: 0B 80 01 8A 07 02 04 00  15 80 80 D5 05 03 15 00  ................
05D0: 0B 80 01 8A 07 02 04 00  16 80 80 E5 05 03 15 00  ................
05E0: 0B 80 01 8A 07 02 04 00  13 80 80 F5 05 03 15 00  ................
05F0: 0B 80 01 8A 07 02 04 00  23 80 80 05 06 03 15 00  ........#.......
0600: 0B 80 01 8A 07 02 04 00  24 80 80 15 06 03 15 00  ........$.......
0610: 0B 80 01 8A 07 02 04 00  1B 80 80 25 06 03 15 00  ...........%....
0620: 0B 80 01 8A 07 02 04 00  1C 80 80 35 06 03 15 00  ...........5....
0630: 0B 80 01 8A 07 02 04 00  25 80 80 45 06 03 15 00  ........%..E....
0640: 0B 80 01 8A 07 02 04 00  1D 80 80 55 06 03 15 00  ...........U....
0650: 0B 80 01 8A 07 02 04 00  00 80 80 65 06 03 15 00  ...........e....
0660: 0B 80 01 8A 07 02 04 00  27 80 80 75 06 03 15 00  ........'..u....
0670: 0B 80 01 8A 07 02 04 00  28 80 80 85 06 03 15 00  ........(.......
0680: 0B 80 01 8A 07 02 04 00  0C 80 80 95 06 03 15 00  ................
0690: 0B 80 01 8A 07 02 04 00  0D 80 80 A5 06 03 15 00  ................
06A0: 0B 80 01 8A 07 02 04 00  29 80 80 B5 06 03 15 00  ........).......
06B0: 0B 80 01 8A 07 02 04 00  26 80 80 C5 06 03 15 00  ........&.......
06C0: 0B 80 01 8A 07 02 04 00  1A 80 80 D5 06 03 15 00  ................
06D0: 0B 80 01 8A 07 02 04 00  2A 80 80 E5 06 03 15 00  ........*.......
06E0: 0B 80 01 8A 07 02 04 00  2B 80 80 F5 06 03 15 00  ........+.......
06F0: 0B 80 01 8A 07 02 04 00  2C 80 80 05 07 03 15 00  ........,.......
0700: 0B 80 01 8A 07 02 04 00  2D 80 80 15 07 03 15 00  ........-.......
0710: 0B 80 01 8A 07 02 04 00  2E 80 80 25 07 03 15 00  ...........%....
0720: 0B 80 01 8A 07 02 04 00  2F 80 80 35 07 03 15 00  ......../..5....
0730: 0B 80 01 8A 07 02 04 00  30 80 80 45 07 03 15 00  ........0..E....
0740: 0B 80 01 8A 07 02 04 00  31 80 80 55 07 03 15 00  ........1..U....
0750: 0B 80 01 8A 07 02 04 00  32 80 80 65 07 03 15 00  ........2..e....
0760: 0B 80 01 8A 07 02 04 00  33 80 80 75 07 03 15 00  ........3..u....
0770: 0B 80 01 8A 07 02 04 00  34 80 80 85 07 03 15 00  ........4.......
0780: 0B 80 01 8A 07 03 15 00  0B 80 02 02 00 10 80 00  ................
0790: A5 07 5C 00 3D 80 5C 01  3D 80 5C 02 3D 80 5C 03  ..\.=.\.=.\.=.\.
07A0: 3D 80 01 BD 07 02 15 00  0B 80 00 BD 07 5C 00 3D  =............\.=
07B0: 80 5C 01 3D 80 5C 02 3D  80 5C 03 3D 80 02 02 00  .\.=.\.=.\.=....
07C0: 0B 80 00 CB 07 1A 7E 10  01 04 08 6C F0 FF FF 7F  ......~....l....
07D0: 0B 80 10 80 62 14 80 F0  FF FF 7F F0 FF FF 7F 6D  ....b..........m
07E0: 61 69 6E 0B 80 45 19 80  F0 FF FF 7F F0 FF FF 7F  ain..E..........
07F0: 6F 76 6C 31 0B 80 46 02  12 00 02 12 00 0B 80 00  ovl1..F.........
0800: 04 08 46 00 03 01 10 3B  80 07 01 10 03 00 01 2B  ..F....;.......+
0810: 08 01 14 08 0B 00 00 02  0B 80 10 80 00 24 08 03  .............$..
0820: 00 00 16 80 01 D7 01 48  3E 80 23 45 3F 80 F0 FF  .......H>.#E?...
0830: FF 7F F0 FF FF 7F 77 68  69 31 0B 80 45 19 80 F0  ......whi1..E...
0840: FF FF 7F F0 FF FF 7F 62  6C 6F 66 0B 80 45 19 80  .......blof..E..
0850: F0 FF FF 7F F0 FF FF 7F  66 64 69 30 0B 80 02 07  ........fdi0....
0860: 00 10 80 00 76 08 5C 00  0B 80 5C 01 0B 80 5C 02  ....v.\...\...\.
0870: 3D 80 5C 03 3D 80 21 00  1B                       =.\.=.!..       
```

#### Opcodes

```
  0: 0x0035 [0x20] SET_CLI_EVENT_UC_FLAG: Lock player control
  1: 0x0037 [0x79] LocalPlayer looks at LocalPlayer (Basic look)
  2: 0x0041 [0x03] ExtData[1]->WorkLocal[2] = Work_Zone[2]
  3: 0x0046 [0x03] ExtData[1]->WorkLocal[3] = Work_Zone[3]
  4: 0x004B [0x03] ExtData[1]->WorkLocal[5] = Work_Zone[4]
  5: 0x0050 [0x03] ExtData[1]->WorkLocal[6] = Work_Zone[5]
  6: 0x0055 [0x03] ExtData[1]->WorkLocal[15] = Work_Zone[6]
  7: 0x005A [0x03] ExtData[1]->WorkLocal[16] = Work_Zone[7]
  8: 0x005F [0x03] ExtData[1]->WorkLocal[17] = Work_Zone[8]
  9: 0x0064 [0x41] ExtData[1]->WorkLocal[7] = Work_Zone[9] (bits 0*-15*)
 10: 0x006D [0x41] Work_Zone[6] = Work_Zone[9] (bits 16*-31*)
 11: 0x0076 [0x06] ExtData[1]->WorkLocal[1] = 0
 12: 0x0079 [0x02] IF !(ExtData[1]->WorkLocal[7] == 0*) GOTO 0x0178
 13: 0x0081 [0x03] ExtData[1]->WorkLocal[8] = 4294967295*
 14: 0x0086 [0x0F] ExtData[1]->WorkLocal[8] ^= ExtData[1]->WorkLocal[6]
 15: 0x008B [0x10] ExtData[1]->WorkLocal[8] <<= 1*
 16: 0x0090 [0x24] CREATE_DIALOG(message_id=7606*, default_option=0*, option_flags=ExtData[1]->WorkLocal[8])
    → "Which battlefield will you enter? [None./The Rank 2 Final Mission./Tails of Woe./Dismemberment Brigade./The Secret Weapon./Hostile Herbivores./Shattering Stars (WAR)./Shattering Stars (BLM)./Shattering Stars (RNG)./Carapace Combatants./Shooting Fish./Dropping Like Flies./Horns of War./Under Observation./Eye of the Tiger./Shots in the Dark./Double Dragonian./Today's Horoscope./Contaminated Colosseum./Kindergarten Cap./Last Orc-Shunned Hero./Beyond Infinity./$26Tails of Woe/$26Dismemberment Brigade/A Feast Most Dire./A.M.A.N. Trove (Mars)./A.M.A.N. Trove (Venus)./Inv. from Excenmille./Inv. from Excenmille and Co./././././.]"
 17: 0x0097 [0x25] WAIT_DIALOG_SELECT()
 18: 0x0098 [0x02] IF !(Work_Zone[0] == 0*) GOTO 0x00A6
 19: 0x00A0 [0x01] GOTO 0x085E

SUBROUTINE_00D2:
 20: 0x00D2 [0x3E] IF !(ExtData[1]->WorkLocal[16] bit ExtData[1]->WorkLocal[3]) GOTO 0x00DC
 21: 0x00D9 [0x01] GOTO 0x00E3
 22: 0x00DC [0x3C] SET_BIT_FLAG_CONDITIONAL(target_work_offset=ExtData[1]->WorkLocal[8], bit_index_work_offset=1*, condition_work_offset=1*)

SUBROUTINE_00E3:
 23: 0x00E3 [0x1A] CALL_SUBROUTINE(address=0x26B9)
 24: 0x00E6 [0x24] CREATE_DIALOG(message_id=7592*, default_option=5*, option_flags=ExtData[1]->WorkLocal[8])
    → "Select difficulty. [Very difficult. (Level: ???)/Difficult. (Level: ???)/Normal. (Level: $18)/Easy. (Level: $17)/Very Easy. (Level: $16)/Leave.]"
 25: 0x00ED [0x25] WAIT_DIALOG_SELECT()
 26: 0x00EE [0x02] IF !(Work_Zone[0] == 0*) GOTO 0x00FE
 27: 0x00F6 [0x03] ExtData[1]->WorkLocal[15] = 1*
 28: 0x00FB [0x01] GOTO 0x0151
 29: 0x00FE [0x02] IF !(Work_Zone[0] == 1*) GOTO 0x010E
 30: 0x0106 [0x03] ExtData[1]->WorkLocal[15] = 2*
 31: 0x010B [0x01] GOTO 0x0151
 32: 0x010E [0x02] IF !(Work_Zone[0] == 2*) GOTO 0x011E
 33: 0x0116 [0x03] ExtData[1]->WorkLocal[15] = 3*
 34: 0x011B [0x01] GOTO 0x0151
 35: 0x011E [0x02] IF !(Work_Zone[0] == 3*) GOTO 0x012E
 36: 0x0126 [0x03] ExtData[1]->WorkLocal[15] = 4*
 37: 0x012B [0x01] GOTO 0x0151
 38: 0x012E [0x02] IF !(Work_Zone[0] == 4*) GOTO 0x013E
 39: 0x0136 [0x03] ExtData[1]->WorkLocal[15] = 5*
 40: 0x013B [0x01] GOTO 0x0151
 41: 0x013E [0x02] IF !(Work_Zone[0] == 5*) GOTO 0x014C
 42: 0x0146 [0x01] GOTO 0x085E

SUBROUTINE_0151:
 43: 0x0151 [0x01] GOTO 0x0178
 44: 0x0154 [0x06] ExtData[1]->WorkLocal[15] = 0
 45: 0x0157 [0x1A] CALL_SUBROUTINE(address=0x0878)
 46: 0x015A [0x02] IF !(ExtData[1]->WorkLocal[22] == 1*) GOTO 0x0178
 47: 0x0162 [0x24] CREATE_DIALOG(message_id=7227*, default_option=1*, option_flags=0*)
    → "Enter the battlefield? [Enter./Decline.]"
 48: 0x0169 [0x25] WAIT_DIALOG_SELECT()
 49: 0x016A [0x02] IF !(Work_Zone[0] == 1*) GOTO 0x0178
 50: 0x0172 [0x01] GOTO 0x085E

SUBROUTINE_0178:
 51: 0x0178 [0x42] SET_CLI_EVENT_CANCEL_DATA()
 52: 0x0179 [0x03] Work_Zone[1] = 255*
 53: 0x017E [0x43] SEND_EVENT_UPDATE: Send pending tag to server (packet 0x005B)
 54: 0x0180 [0x43] SEND_EVENT_UPDATE: Check pending flag (skip if not pending)
 55: 0x0182 [0x06] Work_Zone[1] = 0
 56: 0x0185 [0x45] LOAD_SCHEDULED_TASK: Load scheduler "fdo1" with entities [LocalPlayer, LocalPlayer], work=[200*, 0*]
 57: 0x0196 [0x55] WAIT_LOAD_SCHEDULER: Wait for scheduler "fdo1" with entities [LocalPlayer, LocalPlayer], work=200*
 58: 0x01A5 [0x3B] GET_ENTITY_POSITION(entity=LocalPlayer, x_destination=Work_Zone[32], y_destination=Work_Zone[33], z_destination=Work_Zone[34])
 59: 0x01B0 [0x38] SET_CLIENT_EVENT_MODE(mode=19*)
 60: 0x01B3 [0x02] IF !(ExtData[1]->WorkLocal[7] == 1*) GOTO 0x01D2
 61: 0x01BB [0x03] ExtData[1]->WorkLocal[0] = 1*
 62: 0x01C0 [0x03] ExtData[1]->WorkLocal[4] = ExtData[1]->WorkLocal[3]
 63: 0x01C5 [0x03] ExtData[1]->WorkLocal[2] = 0*
 64: 0x01CA [0x03] ExtData[1]->WorkLocal[28] = 0*
 65: 0x01CF [0x01] GOTO 0x0592

SUBROUTINE_01D2:
 66: 0x01D2 [0x03] ExtData[1]->WorkLocal[0] = 1*

SUBROUTINE_01D7:
 67: 0x01D7 [0x02] IF !(ExtData[1]->WorkLocal[0] > 3*) GOTO 0x0827
 68: 0x01DF [0x02] IF !(0* == 1*) GOTO 0x01EC
 69: 0x01E7 [0x03] ExtData[1]->WorkLocal[0] = ExtData[1]->WorkLocal[5]
 70: 0x01EC [0x40] SET_BIT_WORK_RANGE(start_bit=0*, end_bit=3*, target=Work_Zone[1], source=ExtData[1]->WorkLocal[0])
 71: 0x01F5 [0x40] SET_BIT_WORK_RANGE(start_bit=4*, end_bit=8*, target=Work_Zone[1], source=ExtData[1]->WorkLocal[3])
 72: 0x01FE [0x40] SET_BIT_WORK_RANGE(start_bit=9*, end_bit=11*, target=Work_Zone[1], source=ExtData[1]->WorkLocal[15])
 73: 0x0207 [0x06] Work_Zone[2] = 0
 74: 0x020A [0x06] Work_Zone[3] = 0
 75: 0x020D [0x06] Work_Zone[4] = 0
 76: 0x0210 [0x1A] CALL_SUBROUTINE(address=0x2813)
 77: 0x0213 [0x47] UPDATE_PLAYER_POS(ExtData[1]->WorkLocal[9], ExtData[1]->WorkLocal[10], ExtData[1]->WorkLocal[11], yaw=ExtData[1]->WorkLocal[12])
 78: 0x021D [0x47] WAIT_PLAYER_POS_UPDATE
 79: 0x021F [0x03] ExtData[1]->WorkLocal[4] = Work_Zone[3]
 80: 0x0224 [0x03] ExtData[1]->WorkLocal[2] = Work_Zone[4]
 81: 0x0229 [0x03] ExtData[1]->WorkLocal[26] = Work_Zone[5]
 82: 0x022E [0x03] ExtData[1]->WorkLocal[13] = Work_Zone[6]
 83: 0x0233 [0x03] ExtData[1]->WorkLocal[14] = Work_Zone[7]
 84: 0x0238 [0x03] ExtData[1]->WorkLocal[28] = Work_Zone[9]
 85: 0x023D [0x02] IF !(Work_Zone[2] == 1*) GOTO 0x0248
 86: 0x0245 [0x01] GOTO 0x0814
 87: 0x0248 [0x02] IF !(Work_Zone[2] == 4*) GOTO 0x0292
 88: 0x0250 [0x02] IF !(ExtData[1]->WorkLocal[0] == 1*) GOTO 0x025F
 89: 0x0258 [0x48] [System] [7238*]:
    → "You are cleared to enter the battlefield, but you cannot while party members are engaged in combat."
 90: 0x025B [0x23] WAIT_FOR_DIALOG_INTERACTION
 91: 0x025C [0x01] GOTO 0x028C
 92: 0x025F [0x02] IF !(ExtData[1]->WorkLocal[0] == 2*) GOTO 0x026E
 93: 0x0267 [0x48] [System] [7239*]:
    → "You are cleared to enter the battlefield, but you cannot while party members are engaged in combat."
 94: 0x026A [0x23] WAIT_FOR_DIALOG_INTERACTION
 95: 0x026B [0x01] GOTO 0x028C
 96: 0x026E [0x02] IF !(ExtData[1]->WorkLocal[0] == 3*) GOTO 0x027D
 97: 0x0276 [0x48] [System] [7240*]:
    → "You are cleared to enter the battlefield, but you cannot while party members are engaged in combat."
 98: 0x0279 [0x23] WAIT_FOR_DIALOG_INTERACTION
 99: 0x027A [0x01] GOTO 0x028C
100: 0x027D [0x02] IF !(ExtData[1]->WorkLocal[0] == 4*) GOTO 0x028C
101: 0x0285 [0x48] [System] [7241*]:
    → "You are cleared to enter the battlefield, but you cannot while party members are engaged in combat."
102: 0x0288 [0x23] WAIT_FOR_DIALOG_INTERACTION
103: 0x0289 [0x01] GOTO 0x028C

SUBROUTINE_028C:
104: 0x028C [0x01] GOTO 0x082B

SUBROUTINE_049C:
105: 0x049C [0x48] [System] [7586*]:
    → "Only $3 [member/members] have clearance to enter the battlefield. This room has reached its maximum capacity."
106: 0x049F [0x23] WAIT_FOR_DIALOG_INTERACTION
107: 0x04A0 [0x01] GOTO 0x082B

SUBROUTINE_04F9:
108: 0x04F9 [0x01] GOTO 0x0548
109: 0x04FC [0x03] Work_Zone[5] = ExtData[1]->WorkLocal[26]
110: 0x0501 [0x02] IF !(ExtData[1]->WorkLocal[26] <= 0*) GOTO 0x0528
111: 0x0509 [0x02] IF !(ExtData[1]->WorkLocal[26] < 60*) GOTO 0x0524
112: 0x0511 [0x3F] Work_Zone[4] = Work_Zone[5] % 60*
113: 0x0518 [0x15] Work_Zone[5] /= 60*
114: 0x051D [0x48] [System] [7604*]:
    → "The current battlefield clear time record for "[The Rank 2 Final Mission/Tails of Woe/Dismemberment Brigadee/The Secret Weapon/Hostile Herbivores/Shattering Stars (WAR)/Shattering Stars (BLM)/Shattering Stars (RNG)/Carapace Combatants/Shooting Fish/Dropping Like Flies/Horns of War/Under Observation/Eye of the Tiger/Shots in the Dark/Double Dragonian/Today's Horoscope/Contaminated Colosseum/Kindergarten Cap/Last Orc-Shunned Hero/Beyond Infinity/$26Tails of Woe/$26Dismemberment Brigade/A Feast Most Dire/A.M.A.N. Trove (Mars)/A.M.A.N. Trove (Venus)/Inv. from Excenmille/Inv. from Excenmille and Co.]" is $3 minute[/s] $2 second[/s]."
115: 0x0520 [0x23] WAIT_FOR_DIALOG_INTERACTION
116: 0x0521 [0x01] GOTO 0x0528
117: 0x0524 [0x48] [System] [7603*]:
    → "The current battlefield clear time record for "[The Rank 2 Final Mission/Tails of Woe/Dismemberment Brigade/The Secret Weapon/Hostile Herbivores/Shattering Stars (WAR)/Shattering Stars (BLM)/Shattering Stars (RNG)/Carapace Combatants/Shooting Fish/Dropping Like Flies/Horns of War/Under Observation/Eye of the Tiger/Shots in the Dark/Double Dragonian/Today's Horoscope/Contaminated Colosseum/Kindergarten Cap/Last Orc-Shunned Hero/Beyond Infinity/$26Tails of Woe/$26Dismemberment Brigade/A Feast Most Dire/A.M.A.N. Trove (Mars)/A.M.A.N. Trove (Venus)/Inv. from Excenmille/Inv. from Excenmille and Co.]" is $3 second[/s]."
118: 0x0527 [0x23] WAIT_FOR_DIALOG_INTERACTION

SUBROUTINE_0528:
119: 0x0528 [0x02] IF !(ExtData[1]->WorkLocal[13] > 1*) GOTO 0x0537
120: 0x0530 [0x48] [System] [7591*]:
    → "That record is held by %0!"
121: 0x0533 [0x23] WAIT_FOR_DIALOG_INTERACTION
122: 0x0534 [0x01] GOTO 0x0548
123: 0x0537 [0x03] Work_Zone[6] = ExtData[1]->WorkLocal[13]
124: 0x053C [0x0C] Work_Zone[6]--
125: 0x053F [0x03] Work_Zone[7] = ExtData[1]->WorkLocal[13]
126: 0x0544 [0x48] [System] [7590*]:
    → "That record is held by $5 adventurers, including %0!"
127: 0x0547 [0x23] WAIT_FOR_DIALOG_INTERACTION

SUBROUTINE_0548:
128: 0x0548 [0x03] ExtData[1]->WorkLocal[3] = ExtData[1]->WorkLocal[4]
129: 0x054D [0x03] ExtData[1]->WorkLocal[20] = 100*
130: 0x0552 [0x07] ExtData[1]->WorkLocal[20] += ExtData[1]->WorkLocal[3]
131: 0x0557 [0x02] IF !(ExtData[1]->WorkLocal[2] == ExtData[1]->WorkLocal[20]) GOTO 0x0567
132: 0x055F [0x03] ExtData[1]->WorkLocal[2] = 1*
133: 0x0564 [0x01] GOTO 0x056C
134: 0x0567 [0x03] ExtData[1]->WorkLocal[2] = 0*

SUBROUTINE_056C:
135: 0x056C [0x02] IF !(ExtData[1]->WorkLocal[2] == 0*) GOTO 0x0592
136: 0x0574 [0x02] IF !(ExtData[1]->WorkLocal[14] == 1*) GOTO 0x0592
137: 0x057C [0x24] CREATE_DIALOG(message_id=7566*, default_option=1*, option_flags=0*)
    → "Skip the event? [Yes./No.]"
138: 0x0583 [0x25] WAIT_DIALOG_SELECT()
139: 0x0584 [0x02] IF !(Work_Zone[0] == 0*) GOTO 0x0592
140: 0x058C [0x05] ExtData[1]->WorkLocal[2] = 1
141: 0x058F [0x01] GOTO 0x0592

SUBROUTINE_0592:
142: 0x0592 [0x06] ExtData[1]->WorkLocal[21] = 0
143: 0x0595 [0x02] IF !(ExtData[1]->WorkLocal[4] == 0*) GOTO 0x05A5
144: 0x059D [0x03] ExtData[1]->WorkLocal[21] = 0*
145: 0x05A2 [0x01] GOTO 0x078A
146: 0x05A5 [0x02] IF !(ExtData[1]->WorkLocal[4] == 1*) GOTO 0x05B5
147: 0x05AD [0x03] ExtData[1]->WorkLocal[21] = 0*
148: 0x05B2 [0x01] GOTO 0x078A
149: 0x05B5 [0x02] IF !(ExtData[1]->WorkLocal[4] == 2*) GOTO 0x05C5
150: 0x05BD [0x03] ExtData[1]->WorkLocal[21] = 0*
151: 0x05C2 [0x01] GOTO 0x078A
152: 0x05C5 [0x02] IF !(ExtData[1]->WorkLocal[4] == 3*) GOTO 0x05D5
153: 0x05CD [0x03] ExtData[1]->WorkLocal[21] = 0*
154: 0x05D2 [0x01] GOTO 0x078A
155: 0x05D5 [0x02] IF !(ExtData[1]->WorkLocal[4] == 4*) GOTO 0x05E5
156: 0x05DD [0x03] ExtData[1]->WorkLocal[21] = 0*
157: 0x05E2 [0x01] GOTO 0x078A
158: 0x05E5 [0x02] IF !(ExtData[1]->WorkLocal[4] == 5*) GOTO 0x05F5
159: 0x05ED [0x03] ExtData[1]->WorkLocal[21] = 0*
160: 0x05F2 [0x01] GOTO 0x078A
161: 0x05F5 [0x02] IF !(ExtData[1]->WorkLocal[4] == 6*) GOTO 0x0605
162: 0x05FD [0x03] ExtData[1]->WorkLocal[21] = 0*
163: 0x0602 [0x01] GOTO 0x078A
164: 0x0605 [0x02] IF !(ExtData[1]->WorkLocal[4] == 7*) GOTO 0x0615
165: 0x060D [0x03] ExtData[1]->WorkLocal[21] = 0*
166: 0x0612 [0x01] GOTO 0x078A
167: 0x0615 [0x02] IF !(ExtData[1]->WorkLocal[4] == 8*) GOTO 0x0625
168: 0x061D [0x03] ExtData[1]->WorkLocal[21] = 0*
169: 0x0622 [0x01] GOTO 0x078A
170: 0x0625 [0x02] IF !(ExtData[1]->WorkLocal[4] == 9*) GOTO 0x0635
171: 0x062D [0x03] ExtData[1]->WorkLocal[21] = 0*
172: 0x0632 [0x01] GOTO 0x078A
173: 0x0635 [0x02] IF !(ExtData[1]->WorkLocal[4] == 10*) GOTO 0x0645
174: 0x063D [0x03] ExtData[1]->WorkLocal[21] = 0*
175: 0x0642 [0x01] GOTO 0x078A
176: 0x0645 [0x02] IF !(ExtData[1]->WorkLocal[4] == 11*) GOTO 0x0655
177: 0x064D [0x03] ExtData[1]->WorkLocal[21] = 0*
178: 0x0652 [0x01] GOTO 0x078A
179: 0x0655 [0x02] IF !(ExtData[1]->WorkLocal[4] == 12*) GOTO 0x0665
180: 0x065D [0x03] ExtData[1]->WorkLocal[21] = 0*
181: 0x0662 [0x01] GOTO 0x078A
182: 0x0665 [0x02] IF !(ExtData[1]->WorkLocal[4] == 13*) GOTO 0x0675
183: 0x066D [0x03] ExtData[1]->WorkLocal[21] = 0*
184: 0x0672 [0x01] GOTO 0x078A
185: 0x0675 [0x02] IF !(ExtData[1]->WorkLocal[4] == 14*) GOTO 0x0685
186: 0x067D [0x03] ExtData[1]->WorkLocal[21] = 0*
187: 0x0682 [0x01] GOTO 0x078A
188: 0x0685 [0x02] IF !(ExtData[1]->WorkLocal[4] == 15*) GOTO 0x0695
189: 0x068D [0x03] ExtData[1]->WorkLocal[21] = 0*
190: 0x0692 [0x01] GOTO 0x078A
191: 0x0695 [0x02] IF !(ExtData[1]->WorkLocal[4] == 16*) GOTO 0x06A5
192: 0x069D [0x03] ExtData[1]->WorkLocal[21] = 0*
193: 0x06A2 [0x01] GOTO 0x078A
194: 0x06A5 [0x02] IF !(ExtData[1]->WorkLocal[4] == 17*) GOTO 0x06B5
195: 0x06AD [0x03] ExtData[1]->WorkLocal[21] = 0*
196: 0x06B2 [0x01] GOTO 0x078A
197: 0x06B5 [0x02] IF !(ExtData[1]->WorkLocal[4] == 18*) GOTO 0x06C5
198: 0x06BD [0x03] ExtData[1]->WorkLocal[21] = 0*
199: 0x06C2 [0x01] GOTO 0x078A
200: 0x06C5 [0x02] IF !(ExtData[1]->WorkLocal[4] == 19*) GOTO 0x06D5
201: 0x06CD [0x03] ExtData[1]->WorkLocal[21] = 0*
202: 0x06D2 [0x01] GOTO 0x078A
203: 0x06D5 [0x02] IF !(ExtData[1]->WorkLocal[4] == 20*) GOTO 0x06E5
204: 0x06DD [0x03] ExtData[1]->WorkLocal[21] = 0*
205: 0x06E2 [0x01] GOTO 0x078A
206: 0x06E5 [0x02] IF !(ExtData[1]->WorkLocal[4] == 21*) GOTO 0x06F5
207: 0x06ED [0x03] ExtData[1]->WorkLocal[21] = 0*
208: 0x06F2 [0x01] GOTO 0x078A
209: 0x06F5 [0x02] IF !(ExtData[1]->WorkLocal[4] == 22*) GOTO 0x0705
210: 0x06FD [0x03] ExtData[1]->WorkLocal[21] = 0*
211: 0x0702 [0x01] GOTO 0x078A
212: 0x0705 [0x02] IF !(ExtData[1]->WorkLocal[4] == 23*) GOTO 0x0715
213: 0x070D [0x03] ExtData[1]->WorkLocal[21] = 0*
214: 0x0712 [0x01] GOTO 0x078A
215: 0x0715 [0x02] IF !(ExtData[1]->WorkLocal[4] == 24*) GOTO 0x0725
216: 0x071D [0x03] ExtData[1]->WorkLocal[21] = 0*
217: 0x0722 [0x01] GOTO 0x078A
218: 0x0725 [0x02] IF !(ExtData[1]->WorkLocal[4] == 25*) GOTO 0x0735
219: 0x072D [0x03] ExtData[1]->WorkLocal[21] = 0*
220: 0x0732 [0x01] GOTO 0x078A
221: 0x0735 [0x02] IF !(ExtData[1]->WorkLocal[4] == 26*) GOTO 0x0745
222: 0x073D [0x03] ExtData[1]->WorkLocal[21] = 0*
223: 0x0742 [0x01] GOTO 0x078A
224: 0x0745 [0x02] IF !(ExtData[1]->WorkLocal[4] == 27*) GOTO 0x0755
225: 0x074D [0x03] ExtData[1]->WorkLocal[21] = 0*
226: 0x0752 [0x01] GOTO 0x078A
227: 0x0755 [0x02] IF !(ExtData[1]->WorkLocal[4] == 28*) GOTO 0x0765
228: 0x075D [0x03] ExtData[1]->WorkLocal[21] = 0*
229: 0x0762 [0x01] GOTO 0x078A
230: 0x0765 [0x02] IF !(ExtData[1]->WorkLocal[4] == 29*) GOTO 0x0775
231: 0x076D [0x03] ExtData[1]->WorkLocal[21] = 0*
232: 0x0772 [0x01] GOTO 0x078A
233: 0x0775 [0x02] IF !(ExtData[1]->WorkLocal[4] == 30*) GOTO 0x0785
234: 0x077D [0x03] ExtData[1]->WorkLocal[21] = 0*
235: 0x0782 [0x01] GOTO 0x078A
236: 0x0785 [0x03] ExtData[1]->WorkLocal[21] = 0*

SUBROUTINE_078A:
237: 0x078A [0x02] IF !(ExtData[1]->WorkLocal[2] == 1*) GOTO 0x07A5
238: 0x0792 [0x5C] MUSIC_CONTROL: Set Idle (Day) music to song 125*
239: 0x0796 [0x5C] MUSIC_CONTROL: Set Idle (Night) music to song 125*
240: 0x079A [0x5C] MUSIC_CONTROL: Set Combat (Solo) music to song 125*
241: 0x079E [0x5C] MUSIC_CONTROL: Set Combat (Party) music to song 125*
242: 0x07A2 [0x01] GOTO 0x07BD
243: 0x07A5 [0x02] IF !(ExtData[1]->WorkLocal[21] == 0*) GOTO 0x07BD
244: 0x07AD [0x5C] MUSIC_CONTROL: Set Idle (Day) music to song 125*
245: 0x07B1 [0x5C] MUSIC_CONTROL: Set Idle (Night) music to song 125*
246: 0x07B5 [0x5C] MUSIC_CONTROL: Set Combat (Solo) music to song 125*
247: 0x07B9 [0x5C] MUSIC_CONTROL: Set Combat (Party) music to song 125*

SUBROUTINE_07BD:
248: 0x07BD [0x02] IF !(ExtData[1]->WorkLocal[2] == 0*) GOTO 0x07CB
249: 0x07C5 [0x1A] CALL_SUBROUTINE(address=0x107E)
250: 0x07C8 [0x01] GOTO 0x0804
251: 0x07CB [0x6C] FADE_ENTITY_COLOR(entity_id=LocalPlayer, end_alpha=0*, fade_time=1*)
252: 0x07D4 [0x62] LOAD_EVENT_SCHEDULER: Load scheduler "main" with entities [LocalPlayer, LocalPlayer], work=[2*, 0*]
253: 0x07E5 [0x45] LOAD_SCHEDULED_TASK: Load scheduler "ovl1" with entities [LocalPlayer, LocalPlayer], work=[200*, 0*]
254: 0x07F6 [0x46] CAMERA_CONTROL: Query status
255: 0x07F8 [0x12] 0x0200 = rand()
256: 0x07FB [0x12] 0x0B00 = rand()
257: 0x07FE [0x80] LOAD_WAIT(entity=Unknown NPC (ID: 1174930432/0x46080400))
258: 0x0803 [0x00] END_REQSTACK()

SUBROUTINE_0804:
259: 0x0804 [0x03] Work_Zone[1] = 100*
260: 0x0809 [0x07] Work_Zone[1] += ExtData[1]->WorkLocal[3]
261: 0x080E [0x01] GOTO 0x082B

SUBROUTINE_0814:
262: 0x0814 [0x0B] ExtData[1]->WorkLocal[0]++
263: 0x0817 [0x02] IF !(0* == 1*) GOTO 0x0824
264: 0x081F [0x03] ExtData[1]->WorkLocal[0] = 4*
265: 0x0824 [0x01] GOTO 0x01D7
266: 0x0827 [0x48] [System] [7230*]:
    → "You cannot enter the battlefield at present. Please wait a little longer."
267: 0x082A [0x23] WAIT_FOR_DIALOG_INTERACTION

SUBROUTINE_082B:
268: 0x082B [0x45] LOAD_SCHEDULED_TASK: Load scheduler "whi1" with entities [LocalPlayer, LocalPlayer], work=[201*, 0*]
269: 0x083C [0x45] LOAD_SCHEDULED_TASK: Load scheduler "blof" with entities [LocalPlayer, LocalPlayer], work=[200*, 0*]
270: 0x084D [0x45] LOAD_SCHEDULED_TASK: Load scheduler "fdi0" with entities [LocalPlayer, LocalPlayer], work=[200*, 0*]

SUBROUTINE_085E:
271: 0x085E [0x02] IF !(ExtData[1]->WorkLocal[7] == 1*) GOTO 0x0876
272: 0x0866 [0x5C] MUSIC_CONTROL: Set Idle (Day) music to song 0*
273: 0x086A [0x5C] MUSIC_CONTROL: Set Idle (Night) music to song 0*
274: 0x086E [0x5C] MUSIC_CONTROL: Set Combat (Solo) music to song 125*
275: 0x0872 [0x5C] MUSIC_CONTROL: Set Combat (Party) music to song 125*
276: 0x0876 [0x21] END_EVENT
277: 0x0877 [0x00] END_REQSTACK()

SUBROUTINE_0878:
278: 0x0878 [0x1B] RETURN
```

#### Data or dead code:

```
# Dead code (unreachable instructions):
     0x00A3 [0x01] GOTO 0x0178
# Dead code (unreachable instructions):
     0x0149 [0x01] GOTO 0x0151
# Dead code (unreachable instructions):
     0x0175 [0x01] GOTO 0x0178
# Dead code (unreachable instructions):
     0x028F [0x01] GOTO 0x0814
     0x02A1 [0x01] GOTO 0x0814
# Dead code (unreachable instructions):
     0x04A3 [0x01] GOTO 0x0814
     0x04B1 [0x01] GOTO 0x0814
# Dead code (unreachable instructions):
     0x0811 [0x01] GOTO 0x0814
```

### Event 32002

#### Metadata

| Field        | Value     |
|--------------|-----------|
| Entrypoint   | 0x0879    |
| Data Size    | 494 bytes |
| Instructions | 83        |

```
      00 01 02 03 04 05 06 07  08 09 0A 0B 0C 0D 0E 0F
      -- -- -- -- -- -- -- --  -- -- -- -- -- -- -- --
0870:                             03 05 00 06 10 03 21           ......!
0880: 00 07 10 03 20 00 08 10  20 01 42 3B F0 FF FF 7F  .... ... .B;....
0890: 20 10 21 10 22 10 3A F0  FF FF 7F 23 10 45 19 80   .!.".:....#.E..
08A0: F0 FF FF 7F F0 FF FF 7F  66 64 6F 31 0B 80 55 19  ........fdo1..U.
08B0: 80 F0 FF FF 7F F0 FF FF  7F 66 64 6F 31 02 0B 80  .........fdo1...
08C0: 10 80 00 24 09 02 05 00  10 80 80 DC 08 47 00 40  ...$.........G.@
08D0: 80 41 80 42 80 43 80 47  01 01 21 09 02 05 00 14  .A.B.C.G..!.....
08E0: 80 80 F3 08 47 00 40 80  41 80 42 80 43 80 47 01  ....G.@.A.B.C.G.
08F0: 01 21 09 02 05 00 15 80  80 0A 09 47 00 40 80 41  .!.........G.@.A
0900: 80 42 80 43 80 47 01 01  21 09 02 05 00 16 80 80  .B.C.G..!.......
0910: 21 09 47 00 40 80 41 80  42 80 43 80 47 01 01 21  !.G.@.A.B.C.G..!
0920: 09 01 2D 0A 02 20 00 44  80 80 AE 09 02 21 00 0B  ..-.. .D.....!..
0930: 80 80 43 09 47 00 45 80  46 80 47 80 48 80 47 01  ..C.G.E.F.G.H.G.
0940: 01 AB 09 02 21 00 10 80  80 5A 09 47 00 49 80 4A  ....!....Z.G.I.J
0950: 80 4B 80 4C 80 47 01 01  AB 09 02 21 00 14 80 80  .K.L.G.....!....
0960: 71 09 47 00 4D 80 4E 80  4F 80 50 80 47 01 01 AB  q.G.M.N.O.P.G...
0970: 09 02 21 00 15 80 80 88  09 47 00 51 80 52 80 53  ..!......G.Q.R.S
0980: 80 54 80 47 01 01 AB 09  02 21 00 16 80 80 9F 09  .T.G.....!......
0990: 47 00 55 80 56 80 57 80  58 80 47 01 01 AB 09 47  G.U.V.W.X.G....G
09A0: 00 59 80 5A 80 5B 80 5C  80 47 01 01 2D 0A 02 20  .Y.Z.[.\.G..-.. 
09B0: 00 23 80 80 21 0A 02 21  00 10 80 80 CD 09 47 00  .#..!..!......G.
09C0: 5D 80 5E 80 5F 80 60 80  47 01 01 1E 0A 02 21 00  ].^._.`.G.....!.
09D0: 14 80 80 E4 09 47 00 61  80 62 80 63 80 64 80 47  .....G.a.b.c.d.G
09E0: 01 01 1E 0A 02 21 00 15  80 80 FB 09 47 00 65 80  .....!......G.e.
09F0: 66 80 67 80 68 80 47 01  01 1E 0A 02 21 00 16 80  f.g.h.G.....!...
0A00: 80 12 0A 47 00 69 80 6A  80 6B 80 6C 80 47 01 01  ...G.i.j.k.l.G..
0A10: 1E 0A 47 00 59 80 5A 80  5B 80 5C 80 47 01 01 2D  ..G.Y.Z.[.\.G..-
0A20: 0A 47 00 59 80 5A 80 5B  80 5C 80 47 01 38 1A 80  .G.Y.Z.[.\.G.8..
0A30: 1A 7A 26 45 3F 80 F0 FF  FF 7F F0 FF FF 7F 77 68  .z&E?.........wh
0A40: 69 31 0B 80 45 19 80 F0  FF FF 7F F0 FF FF 7F 62  i1..E..........b
0A50: 6C 6F 66 0B 80 5C 00 0B  80 5C 01 0B 80 5C 02 3D  lof..\...\...\.=
0A60: 80 5C 03 3D 80 21 00                              .\.=.!.         
```

#### Opcodes

```
  0: 0x0879 [0x03] ExtData[1]->WorkLocal[5] = Work_Zone[6]
  1: 0x087E [0x03] ExtData[1]->WorkLocal[33] = Work_Zone[7]
  2: 0x0883 [0x03] ExtData[1]->WorkLocal[32] = Work_Zone[8]
  3: 0x0888 [0x20] SET_CLI_EVENT_UC_FLAG: Lock player control
  4: 0x088A [0x42] SET_CLI_EVENT_CANCEL_DATA()
  5: 0x088B [0x3B] GET_ENTITY_POSITION(entity=LocalPlayer, x_destination=Work_Zone[32], y_destination=Work_Zone[33], z_destination=Work_Zone[34])
  6: 0x0896 [0x3A] CONVERT_YAW_TO_BYTE(entity=LocalPlayer, result_destination=Work_Zone[35])
  7: 0x089D [0x45] LOAD_SCHEDULED_TASK: Load scheduler "fdo1" with entities [LocalPlayer, LocalPlayer], work=[200*, 0*]
  8: 0x08AE [0x55] WAIT_LOAD_SCHEDULER: Wait for scheduler "fdo1" with entities [LocalPlayer, LocalPlayer], work=200*
  9: 0x08BD [0x02] IF !(0* == 1*) GOTO 0x0924
 10: 0x08C5 [0x02] IF !(ExtData[1]->WorkLocal[5] == 1*) GOTO 0x08DC
 11: 0x08CD [0x47] UPDATE_PLAYER_POS(179.712*, 333.374*, 11.964*, yaw=85.2°*)
 12: 0x08D7 [0x47] WAIT_PLAYER_POS_UPDATE
 13: 0x08D9 [0x01] GOTO 0x0921
 14: 0x08DC [0x02] IF !(ExtData[1]->WorkLocal[5] == 2*) GOTO 0x08F3
 15: 0x08E4 [0x47] UPDATE_PLAYER_POS(179.712*, 333.374*, 11.964*, yaw=85.2°*)
 16: 0x08EE [0x47] WAIT_PLAYER_POS_UPDATE
 17: 0x08F0 [0x01] GOTO 0x0921
 18: 0x08F3 [0x02] IF !(ExtData[1]->WorkLocal[5] == 3*) GOTO 0x090A
 19: 0x08FB [0x47] UPDATE_PLAYER_POS(179.712*, 333.374*, 11.964*, yaw=85.2°*)
 20: 0x0905 [0x47] WAIT_PLAYER_POS_UPDATE
 21: 0x0907 [0x01] GOTO 0x0921
 22: 0x090A [0x02] IF !(ExtData[1]->WorkLocal[5] == 4*) GOTO 0x0921
 23: 0x0912 [0x47] UPDATE_PLAYER_POS(179.712*, 333.374*, 11.964*, yaw=85.2°*)
 24: 0x091C [0x47] WAIT_PLAYER_POS_UPDATE
 25: 0x091E [0x01] GOTO 0x0921

SUBROUTINE_0921:
 26: 0x0921 [0x01] GOTO 0x0A2D
 27: 0x0924 [0x02] IF !(ExtData[1]->WorkLocal[32] == 180*) GOTO 0x09AE
 28: 0x092C [0x02] IF !(ExtData[1]->WorkLocal[33] == 0*) GOTO 0x0943
 29: 0x0934 [0x47] UPDATE_PLAYER_POS(-605.141*, 479.929*, -22.681*, yaw=87.2°*)
 30: 0x093E [0x47] WAIT_PLAYER_POS_UPDATE
 31: 0x0940 [0x01] GOTO 0x09AB
 32: 0x0943 [0x02] IF !(ExtData[1]->WorkLocal[33] == 1*) GOTO 0x095A
 33: 0x094B [0x47] UPDATE_PLAYER_POS(-262.589*, 377.857*, -137.313*, yaw=305.3°*)
 34: 0x0955 [0x47] WAIT_PLAYER_POS_UPDATE
 35: 0x0957 [0x01] GOTO 0x09AB
 36: 0x095A [0x02] IF !(ExtData[1]->WorkLocal[33] == 2*) GOTO 0x0971
 37: 0x0962 [0x47] UPDATE_PLAYER_POS(18.348*, 486.940*, -224.334*, yaw=17.1°*)
 38: 0x096C [0x47] WAIT_PLAYER_POS_UPDATE
 39: 0x096E [0x01] GOTO 0x09AB
 40: 0x0971 [0x02] IF !(ExtData[1]->WorkLocal[33] == 3*) GOTO 0x0988
 41: 0x0979 [0x47] UPDATE_PLAYER_POS(231.593*, 360.094*, -173.572*, yaw=160.8°*)
 42: 0x0983 [0x47] WAIT_PLAYER_POS_UPDATE
 43: 0x0985 [0x01] GOTO 0x09AB
 44: 0x0988 [0x02] IF !(ExtData[1]->WorkLocal[33] == 4*) GOTO 0x099F
 45: 0x0990 [0x47] UPDATE_PLAYER_POS(553.664*, 523.939*, -38.205*, yaw=233.9°*)
 46: 0x099A [0x47] WAIT_PLAYER_POS_UPDATE
 47: 0x099C [0x01] GOTO 0x09AB
 48: 0x099F [0x47] UPDATE_PLAYER_POS(-517.933*, -209.947*, 159.789*, yaw=177.3°*)
 49: 0x09A9 [0x47] WAIT_PLAYER_POS_UPDATE

SUBROUTINE_09AB:
 50: 0x09AB [0x01] GOTO 0x0A2D
 51: 0x09AE [0x02] IF !(ExtData[1]->WorkLocal[32] == 6*) GOTO 0x0A21
 52: 0x09B6 [0x02] IF !(ExtData[1]->WorkLocal[33] == 1*) GOTO 0x09CD
 53: 0x09BE [0x47] UPDATE_PLAYER_POS(-875.117*, -43.892*, -48.084*, yaw=45.1°*)
 54: 0x09C8 [0x47] WAIT_PLAYER_POS_UPDATE
 55: 0x09CA [0x01] GOTO 0x0A1E
 56: 0x09CD [0x02] IF !(ExtData[1]->WorkLocal[33] == 2*) GOTO 0x09E4
 57: 0x09D5 [0x47] UPDATE_PLAYER_POS(-755.499*, 563.947*, -112.035*, yaw=313.5°*)
 58: 0x09DF [0x47] WAIT_PLAYER_POS_UPDATE
 59: 0x09E1 [0x01] GOTO 0x0A1E
 60: 0x09E4 [0x02] IF !(ExtData[1]->WorkLocal[33] == 3*) GOTO 0x09FB
 61: 0x09EC [0x47] UPDATE_PLAYER_POS(123.251*, 754.209*, -172.124*, yaw=38.7°*)
 62: 0x09F6 [0x47] WAIT_PLAYER_POS_UPDATE
 63: 0x09F8 [0x01] GOTO 0x0A1E
 64: 0x09FB [0x02] IF !(ExtData[1]->WorkLocal[33] == 4*) GOTO 0x0A12
 65: 0x0A03 [0x47] UPDATE_PLAYER_POS(-516.404*, -803.323*, 24.206*, yaw=38.4°*)
 66: 0x0A0D [0x47] WAIT_PLAYER_POS_UPDATE
 67: 0x0A0F [0x01] GOTO 0x0A1E
 68: 0x0A12 [0x47] UPDATE_PLAYER_POS(-517.933*, -209.947*, 159.789*, yaw=177.3°*)
 69: 0x0A1C [0x47] WAIT_PLAYER_POS_UPDATE

SUBROUTINE_0A1E:
 70: 0x0A1E [0x01] GOTO 0x0A2D
 71: 0x0A21 [0x47] UPDATE_PLAYER_POS(-517.933*, -209.947*, 159.789*, yaw=177.3°*)
 72: 0x0A2B [0x47] WAIT_PLAYER_POS_UPDATE

SUBROUTINE_0A2D:
 73: 0x0A2D [0x38] SET_CLIENT_EVENT_MODE(mode=19*)
 74: 0x0A30 [0x1A] CALL_SUBROUTINE(address=0x267A)
 75: 0x0A33 [0x45] LOAD_SCHEDULED_TASK: Load scheduler "whi1" with entities [LocalPlayer, LocalPlayer], work=[201*, 0*]
 76: 0x0A44 [0x45] LOAD_SCHEDULED_TASK: Load scheduler "blof" with entities [LocalPlayer, LocalPlayer], work=[200*, 0*]
 77: 0x0A55 [0x5C] MUSIC_CONTROL: Set Idle (Day) music to song 0*
 78: 0x0A59 [0x5C] MUSIC_CONTROL: Set Idle (Night) music to song 0*
 79: 0x0A5D [0x5C] MUSIC_CONTROL: Set Combat (Solo) music to song 125*
 80: 0x0A61 [0x5C] MUSIC_CONTROL: Set Combat (Party) music to song 125*
 81: 0x0A65 [0x21] END_EVENT
 82: 0x0A66 [0x00] END_REQSTACK()
```

### Event 32001

#### Metadata

| Field        | Value      |
|--------------|------------|
| Entrypoint   | 0x0A67     |
| Data Size    | 1033 bytes |
| Instructions | 177        |

```
      00 01 02 03 04 05 06 07  08 09 0A 0B 0C 0D 0E 0F
      -- -- -- -- -- -- -- --  -- -- -- -- -- -- -- --
0A60:                      79  00 F0 FF FF 7F F0 FF FF         y........
0A70: 7F 03 21 00 02 10 03 1A  00 03 10 03 1B 00 05 10  ..!.............
0A80: 03 20 00 06 10 03 19 00  07 10 03 17 00 08 10 02  . ..............
0A90: 17 00 15 80 04 9C 0A 03  17 00 0B 80 03 1C 00 09  ................
0AA0: 10 20 01 42 3B F0 FF FF  7F 20 10 21 10 22 10 3A  . .B;.... .!.".:
0AB0: F0 FF FF 7F 23 10 02 20  00 44 80 01 C1 0A 1C 6D  ....#.. .D.....m
0AC0: 80 45 3F 80 F0 FF FF 7F  F0 FF FF 7F 77 68 69 31  .E?.........whi1
0AD0: 0B 80 45 19 80 F0 FF FF  7F F0 FF FF 7F 62 6C 6F  ..E..........blo
0AE0: 66 0B 80 45 19 80 F0 FF  FF 7F F0 FF FF 7F 66 64  f..E..........fd
0AF0: 6F 31 0B 80 55 19 80 F0  FF FF 7F F0 FF FF 7F 66  o1..U..........f
0B00: 64 6F 31 6C F0 FF FF 7F  6E 80 10 80 06 01 10 02  do1l....n.......
0B10: 17 00 0B 80 03 1A 0B 01  68 0C 02 20 00 44 80 80  ........h.. .D..
0B20: A4 0B 02 21 00 0B 80 80  39 0B 47 00 6F 80 70 80  ...!....9.G.o.p.
0B30: 71 80 72 80 47 01 01 A1  0B 02 21 00 10 80 80 50  q.r.G.....!....P
0B40: 0B 47 00 73 80 74 80 75  80 76 80 47 01 01 A1 0B  .G.s.t.u.v.G....
0B50: 02 21 00 14 80 80 67 0B  47 00 77 80 78 80 79 80  .!....g.G.w.x.y.
0B60: 7A 80 47 01 01 A1 0B 02  21 00 15 80 80 7E 0B 47  z.G.....!....~.G
0B70: 00 7B 80 7C 80 7D 80 7E  80 47 01 01 A1 0B 02 21  .{.|.}.~.G.....!
0B80: 00 16 80 80 95 0B 47 00  7F 80 80 80 81 80 82 80  ......G.........
0B90: 47 01 01 A1 0B 47 00 83  80 84 80 85 80 86 80 47  G....G.........G
0BA0: 01 01 68 0C 02 20 00 87  80 80 D2 0B 02 19 00 0B  ..h.. ..........
0BB0: 80 80 C3 0B 47 00 83 80  84 80 85 80 86 80 47 01  ....G.........G.
0BC0: 01 CF 0B 47 00 88 80 89  80 8A 80 8B 80 47 01 01  ...G.........G..
0BD0: 68 0C 02 20 00 8C 80 80  00 0C 02 19 00 16 80 80  h.. ............
0BE0: F1 0B 47 00 8D 80 8E 80  8F 80 90 80 47 01 01 FD  ..G.........G...
0BF0: 0B 47 00 83 80 84 80 85  80 86 80 47 01 01 68 0C  .G.........G..h.
0C00: 02 20 00 91 80 80 2E 0C  02 19 00 16 80 80 1F 0C  . ..............
0C10: 47 00 92 80 93 80 94 80  95 80 47 01 01 2B 0C 47  G.........G..+.G
0C20: 00 83 80 84 80 85 80 86  80 47 01 01 68 0C 02 20  .........G..h.. 
0C30: 00 96 80 80 5C 0C 02 19  00 15 80 80 4D 0C 47 00  ....\.......M.G.
0C40: 97 80 98 80 99 80 9A 80  47 01 01 59 0C 47 00 83  ........G..Y.G..
0C50: 80 84 80 85 80 86 80 47  01 01 68 0C 47 00 83 80  .......G..h.G...
0C60: 84 80 85 80 86 80 47 01  38 1A 80 02 17 00 14 80  ......G.8.......
0C70: 00 76 0C 01 91 0C 02 17  00 10 80 00 41 0D 1C 0C  .v..........A...
0C80: 80 24 3C 80 10 80 0B 80  25 02 00 10 0B 80 00 41  .$<.....%......A
0C90: 0D 02 20 00 44 80 00 FD  0C 02 21 00 0B 80 80 AB  .. .D.....!.....
0CA0: 0C 36 6F 80 70 80 71 80  01 FA 0C 02 21 00 10 80  .6o.p.q.....!...
0CB0: 80 BD 0C 36 73 80 74 80  75 80 01 FA 0C 02 21 00  ...6s.t.u.....!.
0CC0: 14 80 80 CF 0C 36 77 80  78 80 79 80 01 FA 0C 02  .....6w.x.y.....
0CD0: 21 00 15 80 80 E1 0C 36  7B 80 7C 80 7D 80 01 FA  !......6{.|.}...
0CE0: 0C 02 21 00 16 80 80 F3  0C 36 7F 80 80 80 81 80  ..!......6......
0CF0: 01 FA 0C 36 83 80 84 80  85 80 01 06 0D 37 83 80  ...6.........7..
0D00: 84 80 85 80 86 80 80 F0  FF FF 7F 62 14 80 F0 FF  ...........b....
0D10: FF 7F F0 FF FF 7F 6D 61  69 6E 0B 80 45 19 80 F0  ......main..E...
0D20: FF FF 7F F0 FF FF 7F 66  64 69 32 0B 80 46 02 12  .......fdi2..F..
0D30: 00 02 12 00 0B 80 00 3B  0D 46 00 01 68 0D 01 41  .......;.F..h..A
0D40: 0D 02 17 00 0F 80 04 5A  0D 5C 00 3D 80 5C 01 3D  .......Z.\.=.\.=
0D50: 80 5C 02 3D 80 5C 03 3D  80 9A 1A 12 1B 02 17 00  .\.=.\.=........
0D60: 0B 80 03 68 0D 01 08 0E  02 20 00 9B 80 80 73 0D  ...h..... ....s.
0D70: 01 73 0D 02 20 00 29 80  80 7E 0D 01 08 0E 02 20  .s.. .)..~..... 
0D80: 00 1A 80 80 89 0D 01 08  0E 02 20 00 2B 80 80 94  .......... .+...
0D90: 0D 01 08 0E 02 20 00 2D  80 80 9F 0D 01 08 0E 03  ..... .-........
0DA0: 05 10 1B 00 02 05 10 0B  80 02 08 0E 02 05 10 38  ...............8
0DB0: 80 04 C7 0D 3F 04 10 05  10 38 80 15 05 10 38 80  ....?....8....8.
0DC0: 48 9C 80 23 01 CB 0D 48  9D 80 23 02 1B 00 1A 00  H..#...H..#.....
0DD0: 05 DF 0D 03 07 10 19 00  48 9E 80 23 01 08 0E 02  ........H..#....
0DE0: 1A 00 38 80 04 FF 0D 03  05 10 1A 00 3F 04 10 05  ..8.........?...
0DF0: 10 38 80 15 05 10 38 80  48 9F 80 23 01 08 0E 03  .8....8.H..#....
0E00: 05 10 1A 00 48 A0 80 23  02 18 00 0B 80 00 20 0E  ....H..#...... .
0E10: 5C 00 0B 80 5C 01 0B 80  5C 02 3D 80 5C 03 3D 80  \...\...\.=.\.=.
0E20: 02 17 00 0B 80 03 49 0E  45 19 80 F0 FF FF 7F F0  ......I.E.......
0E30: FF FF 7F 66 64 69 32 0B  80 5C 00 0B 80 5C 01 0B  ...fdi2..\...\..
0E40: 80 5C 02 3D 80 5C 03 3D  80 06 18 00 45 3F 80 F0  .\.=.\.=....E?..
0E50: FF FF 7F F0 FF FF 7F 77  68 69 31 0B 80 45 19 80  .......whi1..E..
0E60: F0 FF FF 7F F0 FF FF 7F  62 6C 6F 66 0B 80 21 00  ........blof..!.
```

#### Opcodes

```
  0: 0x0A67 [0x79] LocalPlayer looks at LocalPlayer (Basic look)
  1: 0x0A71 [0x03] ExtData[1]->WorkLocal[33] = Work_Zone[2]
  2: 0x0A76 [0x03] ExtData[1]->WorkLocal[26] = Work_Zone[3]
  3: 0x0A7B [0x03] ExtData[1]->WorkLocal[27] = Work_Zone[5]
  4: 0x0A80 [0x03] ExtData[1]->WorkLocal[32] = Work_Zone[6]
  5: 0x0A85 [0x03] ExtData[1]->WorkLocal[25] = Work_Zone[7]
  6: 0x0A8A [0x03] ExtData[1]->WorkLocal[23] = Work_Zone[8]
  7: 0x0A8F [0x02] IF !(ExtData[1]->WorkLocal[23] < 3*) GOTO 0x0A9C
  8: 0x0A97 [0x03] ExtData[1]->WorkLocal[23] = 0*
  9: 0x0A9C [0x03] ExtData[1]->WorkLocal[28] = Work_Zone[9]
 10: 0x0AA1 [0x20] SET_CLI_EVENT_UC_FLAG: Lock player control
 11: 0x0AA3 [0x42] SET_CLI_EVENT_CANCEL_DATA()
 12: 0x0AA4 [0x3B] GET_ENTITY_POSITION(entity=LocalPlayer, x_destination=Work_Zone[32], y_destination=Work_Zone[33], z_destination=Work_Zone[34])
 13: 0x0AAF [0x3A] CONVERT_YAW_TO_BYTE(entity=LocalPlayer, result_destination=Work_Zone[35])
 14: 0x0AB6 [0x02] IF !(ExtData[1]->WorkLocal[32] == 180*) GOTO 0x0AC1
 15: 0x0ABE [0x1C] WAIT(300* ticks)
 16: 0x0AC1 [0x45] LOAD_SCHEDULED_TASK: Load scheduler "whi1" with entities [LocalPlayer, LocalPlayer], work=[201*, 0*]
 17: 0x0AD2 [0x45] LOAD_SCHEDULED_TASK: Load scheduler "blof" with entities [LocalPlayer, LocalPlayer], work=[200*, 0*]
 18: 0x0AE3 [0x45] LOAD_SCHEDULED_TASK: Load scheduler "fdo1" with entities [LocalPlayer, LocalPlayer], work=[200*, 0*]
 19: 0x0AF4 [0x55] WAIT_LOAD_SCHEDULER: Wait for scheduler "fdo1" with entities [LocalPlayer, LocalPlayer], work=200*
 20: 0x0B03 [0x6C] FADE_ENTITY_COLOR(entity_id=LocalPlayer, end_alpha=128*, fade_time=1*)
 21: 0x0B0C [0x06] Work_Zone[1] = 0
 22: 0x0B0F [0x02] IF !(ExtData[1]->WorkLocal[23] >= 0*) GOTO 0x0B1A
 23: 0x0B17 [0x01] GOTO 0x0C68
 24: 0x0B1A [0x02] IF !(ExtData[1]->WorkLocal[32] == 180*) GOTO 0x0BA4
 25: 0x0B22 [0x02] IF !(ExtData[1]->WorkLocal[33] == 0*) GOTO 0x0B39
 26: 0x0B2A [0x47] UPDATE_PLAYER_POS(-618.329*, -643.868*, -25.805*, yaw=330.5°*)
 27: 0x0B34 [0x47] WAIT_PLAYER_POS_UPDATE
 28: 0x0B36 [0x01] GOTO 0x0BA1
 29: 0x0B39 [0x02] IF !(ExtData[1]->WorkLocal[33] == 1*) GOTO 0x0B50
 30: 0x0B41 [0x47] UPDATE_PLAYER_POS(-332.163*, -441.914*, -95.055*, yaw=330.5°*)
 31: 0x0B4B [0x47] WAIT_PLAYER_POS_UPDATE
 32: 0x0B4D [0x01] GOTO 0x0BA1
 33: 0x0B50 [0x02] IF !(ExtData[1]->WorkLocal[33] == 2*) GOTO 0x0B67
 34: 0x0B58 [0x47] UPDATE_PLAYER_POS(-12.464*, -648.377*, -194.629*, yaw=331.3°*)
 35: 0x0B62 [0x47] WAIT_PLAYER_POS_UPDATE
 36: 0x0B64 [0x01] GOTO 0x0BA1
 37: 0x0B67 [0x02] IF !(ExtData[1]->WorkLocal[33] == 3*) GOTO 0x0B7E
 38: 0x0B6F [0x47] UPDATE_PLAYER_POS(323.381*, -443.793*, -108.440*, yaw=329.1°*)
 39: 0x0B79 [0x47] WAIT_PLAYER_POS_UPDATE
 40: 0x0B7B [0x01] GOTO 0x0BA1
 41: 0x0B7E [0x02] IF !(ExtData[1]->WorkLocal[33] == 4*) GOTO 0x0B95
 42: 0x0B86 [0x47] UPDATE_PLAYER_POS(599.907*, -676.969*, -22.473*, yaw=330.7°*)
 43: 0x0B90 [0x47] WAIT_PLAYER_POS_UPDATE
 44: 0x0B92 [0x01] GOTO 0x0BA1
 45: 0x0B95 [0x47] UPDATE_PLAYER_POS(453.370*, -6.582*, -38.442*, yaw=262.3°*)
 46: 0x0B9F [0x47] WAIT_PLAYER_POS_UPDATE

SUBROUTINE_0BA1:
 47: 0x0BA1 [0x01] GOTO 0x0C68
 48: 0x0BA4 [0x02] IF !(ExtData[1]->WorkLocal[32] == 168*) GOTO 0x0BD2
 49: 0x0BAC [0x02] IF !(ExtData[1]->WorkLocal[25] == 0*) GOTO 0x0BC3
 50: 0x0BB4 [0x47] UPDATE_PLAYER_POS(453.370*, -6.582*, -38.442*, yaw=262.3°*)
 51: 0x0BBE [0x47] WAIT_PLAYER_POS_UPDATE
 52: 0x0BC0 [0x01] GOTO 0x0BCF
 53: 0x0BC3 [0x47] UPDATE_PLAYER_POS(200.059*, -21.958*, -0.250*, yaw=91.5°*)
 54: 0x0BCD [0x47] WAIT_PLAYER_POS_UPDATE

SUBROUTINE_0BCF:
 55: 0x0BCF [0x01] GOTO 0x0C68
 56: 0x0BD2 [0x02] IF !(ExtData[1]->WorkLocal[32] == 202*) GOTO 0x0C00
 57: 0x0BDA [0x02] IF !(ExtData[1]->WorkLocal[25] == 4*) GOTO 0x0BF1
 58: 0x0BE2 [0x47] UPDATE_PLAYER_POS(538.604*, 501.900*, -13.942*, yaw=286.5°*)
 59: 0x0BEC [0x47] WAIT_PLAYER_POS_UPDATE
 60: 0x0BEE [0x01] GOTO 0x0BFD
 61: 0x0BF1 [0x47] UPDATE_PLAYER_POS(453.370*, -6.582*, -38.442*, yaw=262.3°*)
 62: 0x0BFB [0x47] WAIT_PLAYER_POS_UPDATE

SUBROUTINE_0BFD:
 63: 0x0BFD [0x01] GOTO 0x0C68
 64: 0x0C00 [0x02] IF !(ExtData[1]->WorkLocal[32] == 203*) GOTO 0x0C2E
 65: 0x0C08 [0x02] IF !(ExtData[1]->WorkLocal[25] == 4*) GOTO 0x0C1F
 66: 0x0C10 [0x47] UPDATE_PLAYER_POS(553.205*, 589.633*, -0.021*, yaw=124.4°*)
 67: 0x0C1A [0x47] WAIT_PLAYER_POS_UPDATE
 68: 0x0C1C [0x01] GOTO 0x0C2B
 69: 0x0C1F [0x47] UPDATE_PLAYER_POS(453.370*, -6.582*, -38.442*, yaw=262.3°*)
 70: 0x0C29 [0x47] WAIT_PLAYER_POS_UPDATE

SUBROUTINE_0C2B:
 71: 0x0C2B [0x01] GOTO 0x0C68
 72: 0x0C2E [0x02] IF !(ExtData[1]->WorkLocal[32] == 211*) GOTO 0x0C5C
 73: 0x0C36 [0x02] IF !(ExtData[1]->WorkLocal[25] == 3*) GOTO 0x0C4D
 74: 0x0C3E [0x47] UPDATE_PLAYER_POS(569.224*, 548.462*, 36.837*, yaw=59.1°*)
 75: 0x0C48 [0x47] WAIT_PLAYER_POS_UPDATE
 76: 0x0C4A [0x01] GOTO 0x0C59
 77: 0x0C4D [0x47] UPDATE_PLAYER_POS(453.370*, -6.582*, -38.442*, yaw=262.3°*)
 78: 0x0C57 [0x47] WAIT_PLAYER_POS_UPDATE

SUBROUTINE_0C59:
 79: 0x0C59 [0x01] GOTO 0x0C68
 80: 0x0C5C [0x47] UPDATE_PLAYER_POS(453.370*, -6.582*, -38.442*, yaw=262.3°*)
 81: 0x0C66 [0x47] WAIT_PLAYER_POS_UPDATE

SUBROUTINE_0C68:
 82: 0x0C68 [0x38] SET_CLIENT_EVENT_MODE(mode=19*)
 83: 0x0C6B [0x02] IF !(ExtData[1]->WorkLocal[23] == 2*) GOTO 0x0C76
 84: 0x0C73 [0x01] GOTO 0x0C91
 85: 0x0C76 [0x02] IF !(ExtData[1]->WorkLocal[23] == 1*) GOTO 0x0D41
 86: 0x0C7E [0x1C] WAIT(15* ticks)
 87: 0x0C81 [0x24] CREATE_DIALOG(message_id=7566*, default_option=1*, option_flags=0*)
    → "Skip the event? [Yes./No.]"
 88: 0x0C88 [0x25] WAIT_DIALOG_SELECT()
 89: 0x0C89 [0x02] IF !(Work_Zone[0] == 0*) GOTO 0x0D41

SUBROUTINE_0C91:
 90: 0x0C91 [0x02] IF !(ExtData[1]->WorkLocal[32] == 180*) GOTO 0x0CFD
 91: 0x0C99 [0x02] IF !(ExtData[1]->WorkLocal[33] == 0*) GOTO 0x0CAB
 92: 0x0CA1 [0x36] SET_ENTITY_EVENT_POSITION(pos_x=-618.329*, pos_z=-643.868*, pos_y=-25.805*)
 93: 0x0CA8 [0x01] GOTO 0x0CFA
 94: 0x0CAB [0x02] IF !(ExtData[1]->WorkLocal[33] == 1*) GOTO 0x0CBD
 95: 0x0CB3 [0x36] SET_ENTITY_EVENT_POSITION(pos_x=-332.163*, pos_z=-441.914*, pos_y=-95.055*)
 96: 0x0CBA [0x01] GOTO 0x0CFA
 97: 0x0CBD [0x02] IF !(ExtData[1]->WorkLocal[33] == 2*) GOTO 0x0CCF
 98: 0x0CC5 [0x36] SET_ENTITY_EVENT_POSITION(pos_x=-12.464*, pos_z=-648.377*, pos_y=-194.629*)
 99: 0x0CCC [0x01] GOTO 0x0CFA
100: 0x0CCF [0x02] IF !(ExtData[1]->WorkLocal[33] == 3*) GOTO 0x0CE1
101: 0x0CD7 [0x36] SET_ENTITY_EVENT_POSITION(pos_x=323.381*, pos_z=-443.793*, pos_y=-108.440*)
102: 0x0CDE [0x01] GOTO 0x0CFA
103: 0x0CE1 [0x02] IF !(ExtData[1]->WorkLocal[33] == 4*) GOTO 0x0CF3
104: 0x0CE9 [0x36] SET_ENTITY_EVENT_POSITION(pos_x=599.907*, pos_z=-676.969*, pos_y=-22.473*)
105: 0x0CF0 [0x01] GOTO 0x0CFA
106: 0x0CF3 [0x36] SET_ENTITY_EVENT_POSITION(pos_x=453.370*, pos_z=-6.582*, pos_y=-38.442*)

SUBROUTINE_0CFA:
107: 0x0CFA [0x01] GOTO 0x0D06
108: 0x0CFD [0x37] UPDATE_EVENT_POSITION_AND_DIR: x=453.370*, z=-6.582*, y=-38.442*, direction=262.3°*

SUBROUTINE_0D06:
109: 0x0D06 [0x80] LOAD_WAIT(entity=LocalPlayer)
110: 0x0D0B [0x62] LOAD_EVENT_SCHEDULER: Load scheduler "main" with entities [LocalPlayer, LocalPlayer], work=[2*, 0*]
111: 0x0D1C [0x45] LOAD_SCHEDULED_TASK: Load scheduler "fdi2" with entities [LocalPlayer, LocalPlayer], work=[200*, 0*]
112: 0x0D2D [0x46] CAMERA_CONTROL: Query status
113: 0x0D2F [0x12] 0x0200 = rand()
114: 0x0D32 [0x12] 0x0B00 = rand()
115: 0x0D35 [0x80] LOAD_WAIT(entity=Unknown NPC (ID: 1175272192/0x460D3B00))
116: 0x0D3A [0x00] END_REQSTACK()

SUBROUTINE_0D41:
117: 0x0D41 [0x02] IF !(ExtData[1]->WorkLocal[23] < 4294967295*) GOTO 0x0D5A
118: 0x0D49 [0x5C] MUSIC_CONTROL: Set Idle (Day) music to song 125*
119: 0x0D4D [0x5C] MUSIC_CONTROL: Set Idle (Night) music to song 125*
120: 0x0D51 [0x5C] MUSIC_CONTROL: Set Combat (Solo) music to song 125*
121: 0x0D55 [0x5C] MUSIC_CONTROL: Set Combat (Party) music to song 125*
122: 0x0D59 [0x9A] WAIT_MUSIC_SERVER()
123: 0x0D5A [0x1A] CALL_SUBROUTINE(address=0x1B12)
124: 0x0D5D [0x02] IF !(ExtData[1]->WorkLocal[23] >= 0*) GOTO 0x0D68
125: 0x0D65 [0x01] GOTO 0x0E08

SUBROUTINE_0D68:
126: 0x0D68 [0x02] IF !(ExtData[1]->WorkLocal[32] == 36*) GOTO 0x0D73
127: 0x0D70 [0x01] GOTO 0x0D73

SUBROUTINE_0D73:
128: 0x0D73 [0x02] IF !(ExtData[1]->WorkLocal[32] == 17*) GOTO 0x0D7E
129: 0x0D7B [0x01] GOTO 0x0E08
130: 0x0D7E [0x02] IF !(ExtData[1]->WorkLocal[32] == 19*) GOTO 0x0D89
131: 0x0D86 [0x01] GOTO 0x0E08
132: 0x0D89 [0x02] IF !(ExtData[1]->WorkLocal[32] == 21*) GOTO 0x0D94
133: 0x0D91 [0x01] GOTO 0x0E08
134: 0x0D94 [0x02] IF !(ExtData[1]->WorkLocal[32] == 23*) GOTO 0x0D9F
135: 0x0D9C [0x01] GOTO 0x0E08
136: 0x0D9F [0x03] Work_Zone[5] = ExtData[1]->WorkLocal[27]
137: 0x0DA4 [0x02] IF !(Work_Zone[5] <= 0*) GOTO 0x0E08
138: 0x0DAC [0x02] IF !(Work_Zone[5] < 60*) GOTO 0x0DC7
139: 0x0DB4 [0x3F] Work_Zone[4] = Work_Zone[5] % 60*
140: 0x0DBB [0x15] Work_Zone[5] /= 60*
141: 0x0DC0 [0x48] [System] [7568*]:
    → "Battlefield clear time: $3 minute[/s], $2 second[/s]!"
142: 0x0DC3 [0x23] WAIT_FOR_DIALOG_INTERACTION
143: 0x0DC4 [0x01] GOTO 0x0DCB
144: 0x0DC7 [0x48] [System] [7567*]:
    → "Battlefield clear time: $3 second[/s]!"
145: 0x0DCA [0x23] WAIT_FOR_DIALOG_INTERACTION

SUBROUTINE_0DCB:
146: 0x0DCB [0x02] IF !(ExtData[1]->WorkLocal[27] > ExtData[1]->WorkLocal[26]) GOTO 0x0DDF
147: 0x0DD3 [0x03] Work_Zone[7] = ExtData[1]->WorkLocal[25]
148: 0x0DD8 [0x48] [System] [7602*]:
    → "You have broken the clear time record for "[The Rank 2 Final Mission/Tails of Woe/Dismemberment Brigade/The Secret Weapon/Hostile Herbivores/Shattering Stars (WAR)/Shattering Stars (BLM)/Shattering Stars (RNG)/Carapace Combatants/Shooting Fish/Dropping Like Flies/Horns of War/Under Observation/Eye of the Tiger/Shots in the Dark/Double Dragonian/Today's Horoscope/Contaminated Colosseum/Kindergarten Cap/Last Orc-Shunned Hero/Beyond Infinity/$26Tails of Woe/$26Dismemberment Brigade/A Feast Most Dire/A.M.A.N. Trove (Mars)/A.M.A.N. Trove (Venus)/Inv. from Excenmille/Inv. from Excenmille and Co.]"!"
149: 0x0DDB [0x23] WAIT_FOR_DIALOG_INTERACTION
150: 0x0DDC [0x01] GOTO 0x0E08
151: 0x0DDF [0x02] IF !(ExtData[1]->WorkLocal[26] < 60*) GOTO 0x0DFF
152: 0x0DE7 [0x03] Work_Zone[5] = ExtData[1]->WorkLocal[26]
153: 0x0DEC [0x3F] Work_Zone[4] = Work_Zone[5] % 60*
154: 0x0DF3 [0x15] Work_Zone[5] /= 60*
155: 0x0DF8 [0x48] [System] [7570*]:
    → "The current battlefield clear time record is $3 minute[/s] $2 second[/s]."
156: 0x0DFB [0x23] WAIT_FOR_DIALOG_INTERACTION
157: 0x0DFC [0x01] GOTO 0x0E08
158: 0x0DFF [0x03] Work_Zone[5] = ExtData[1]->WorkLocal[26]
159: 0x0E04 [0x48] [System] [7569*]:
    → "The current battlefield clear time record is $3 second[/s]."
160: 0x0E07 [0x23] WAIT_FOR_DIALOG_INTERACTION

SUBROUTINE_0E08:
161: 0x0E08 [0x02] IF !(ExtData[1]->WorkLocal[24] == 0*) GOTO 0x0E20
162: 0x0E10 [0x5C] MUSIC_CONTROL: Set Idle (Day) music to song 0*
163: 0x0E14 [0x5C] MUSIC_CONTROL: Set Idle (Night) music to song 0*
164: 0x0E18 [0x5C] MUSIC_CONTROL: Set Combat (Solo) music to song 125*
165: 0x0E1C [0x5C] MUSIC_CONTROL: Set Combat (Party) music to song 125*
166: 0x0E20 [0x02] IF !(ExtData[1]->WorkLocal[23] >= 0*) GOTO 0x0E49
167: 0x0E28 [0x45] LOAD_SCHEDULED_TASK: Load scheduler "fdi2" with entities [LocalPlayer, LocalPlayer], work=[200*, 0*]
168: 0x0E39 [0x5C] MUSIC_CONTROL: Set Idle (Day) music to song 0*
169: 0x0E3D [0x5C] MUSIC_CONTROL: Set Idle (Night) music to song 0*
170: 0x0E41 [0x5C] MUSIC_CONTROL: Set Combat (Solo) music to song 125*
171: 0x0E45 [0x5C] MUSIC_CONTROL: Set Combat (Party) music to song 125*
172: 0x0E49 [0x06] ExtData[1]->WorkLocal[24] = 0
173: 0x0E4C [0x45] LOAD_SCHEDULED_TASK: Load scheduler "whi1" with entities [LocalPlayer, LocalPlayer], work=[201*, 0*]
174: 0x0E5D [0x45] LOAD_SCHEDULED_TASK: Load scheduler "blof" with entities [LocalPlayer, LocalPlayer], work=[200*, 0*]
175: 0x0E6E [0x21] END_EVENT
176: 0x0E6F [0x00] END_REQSTACK()
```

#### Data or dead code:

```
# Dead code (unreachable instructions):
     0x0D3B [0x01] GOTO 0x0D68
     0x0D3E [0x01] GOTO 0x0D41
```

### Event 32003

#### Metadata

| Field        | Value     |
|--------------|-----------|
| Entrypoint   | 0x0E70    |
| Data Size    | 435 bytes |
| Instructions | 77        |

```
      00 01 02 03 04 05 06 07  08 09 0A 0B 0C 0D 0E 0F
      -- -- -- -- -- -- -- --  -- -- -- -- -- -- -- --
0E70: 06 1D 00 06 1E 00 03 21  00 06 10 03 20 00 07 10  .......!.... ...
0E80: 03 1F 00 08 10 06 01 10  1A EB 25 02 1D 00 10 80  ..........%.....
0E90: 00 21 10 42 03 01 10 14  80 43 00 43 01 03 01 10  .!.B.....C.C....
0EA0: 15 80 43 00 43 01 1A 02  26 02 1E 00 10 80 00 21  ..C.C...&......!
0EB0: 10 45 19 80 F0 FF FF 7F  F0 FF FF 7F 66 64 6F 31  .E..........fdo1
0EC0: 0B 80 55 19 80 F0 FF FF  7F F0 FF FF 7F 66 64 6F  ..U..........fdo
0ED0: 31 03 01 10 16 80 02 20  00 44 80 80 60 0F 02 21  1...... .D..`..!
0EE0: 00 0B 80 80 F5 0E 47 00  45 80 46 80 47 80 48 80  ......G.E.F.G.H.
0EF0: 47 01 01 5D 0F 02 21 00  10 80 80 0C 0F 47 00 49  G..]..!......G.I
0F00: 80 4A 80 4B 80 4C 80 47  01 01 5D 0F 02 21 00 14  .J.K.L.G..]..!..
0F10: 80 80 23 0F 47 00 4D 80  4E 80 4F 80 50 80 47 01  ..#.G.M.N.O.P.G.
0F20: 01 5D 0F 02 21 00 15 80  80 3A 0F 47 00 51 80 52  .]..!....:.G.Q.R
0F30: 80 53 80 54 80 47 01 01  5D 0F 02 21 00 16 80 80  .S.T.G..]..!....
0F40: 51 0F 47 00 55 80 56 80  57 80 58 80 47 01 01 5D  Q.G.U.V.W.X.G..]
0F50: 0F 47 00 59 80 5A 80 5B  80 5C 80 47 01 01 DF 0F  .G.Y.Z.[.\.G....
0F60: 02 20 00 23 80 80 D3 0F  02 1F 00 10 80 80 7F 0F  . .#............
0F70: 47 00 5D 80 5E 80 5F 80  60 80 47 01 01 D0 0F 02  G.].^._.`.G.....
0F80: 1F 00 14 80 80 96 0F 47  00 61 80 62 80 63 80 64  .......G.a.b.c.d
0F90: 80 47 01 01 D0 0F 02 1F  00 15 80 80 AD 0F 47 00  .G............G.
0FA0: 65 80 66 80 67 80 68 80  47 01 01 D0 0F 02 1F 00  e.f.g.h.G.......
0FB0: 16 80 80 C4 0F 47 00 69  80 6A 80 6B 80 6C 80 47  .....G.i.j.k.l.G
0FC0: 01 01 D0 0F 47 00 59 80  5A 80 5B 80 5C 80 47 01  ....G.Y.Z.[.\.G.
0FD0: 01 DF 0F 47 00 59 80 5A  80 5B 80 5C 80 47 01 38  ...G.Y.Z.[.\.G.8
0FE0: 1A 80 79 00 F0 FF FF 7F  F0 FF FF 7F 1A 06 26 45  ..y...........&E
0FF0: 3F 80 F0 FF FF 7F F0 FF  FF 7F 77 68 69 31 0B 80  ?.........whi1..
1000: 45 19 80 F0 FF FF 7F F0  FF FF 7F 62 6C 6F 66 0B  E..........blof.
1010: 80 5C 00 0B 80 5C 01 0B  80 5C 02 3D 80 5C 03 3D  .\...\...\.=.\.=
1020: 80 21 00                                          .!.             
```

#### Opcodes

```
  0: 0x0E70 [0x06] ExtData[1]->WorkLocal[29] = 0
  1: 0x0E73 [0x06] ExtData[1]->WorkLocal[30] = 0
  2: 0x0E76 [0x03] ExtData[1]->WorkLocal[33] = Work_Zone[6]
  3: 0x0E7B [0x03] ExtData[1]->WorkLocal[32] = Work_Zone[7]
  4: 0x0E80 [0x03] ExtData[1]->WorkLocal[31] = Work_Zone[8]
  5: 0x0E85 [0x06] Work_Zone[1] = 0
  6: 0x0E88 [0x1A] CALL_SUBROUTINE(address=0x25EB)
  7: 0x0E8B [0x02] IF !(ExtData[1]->WorkLocal[29] == 1*) GOTO 0x1021
  8: 0x0E93 [0x42] SET_CLI_EVENT_CANCEL_DATA()
  9: 0x0E94 [0x03] Work_Zone[1] = 2*
 10: 0x0E99 [0x43] SEND_EVENT_UPDATE: Send pending tag to server (packet 0x005B)
 11: 0x0E9B [0x43] SEND_EVENT_UPDATE: Check pending flag (skip if not pending)
 12: 0x0E9D [0x03] Work_Zone[1] = 3*
 13: 0x0EA2 [0x43] SEND_EVENT_UPDATE: Send pending tag to server (packet 0x005B)
 14: 0x0EA4 [0x43] SEND_EVENT_UPDATE: Check pending flag (skip if not pending)
 15: 0x0EA6 [0x1A] CALL_SUBROUTINE(address=0x2602)
 16: 0x0EA9 [0x02] IF !(ExtData[1]->WorkLocal[30] == 1*) GOTO 0x1021
 17: 0x0EB1 [0x45] LOAD_SCHEDULED_TASK: Load scheduler "fdo1" with entities [LocalPlayer, LocalPlayer], work=[200*, 0*]
 18: 0x0EC2 [0x55] WAIT_LOAD_SCHEDULER: Wait for scheduler "fdo1" with entities [LocalPlayer, LocalPlayer], work=200*
 19: 0x0ED1 [0x03] Work_Zone[1] = 4*
 20: 0x0ED6 [0x02] IF !(ExtData[1]->WorkLocal[32] == 180*) GOTO 0x0F60
 21: 0x0EDE [0x02] IF !(ExtData[1]->WorkLocal[33] == 0*) GOTO 0x0EF5
 22: 0x0EE6 [0x47] UPDATE_PLAYER_POS(-605.141*, 479.929*, -22.681*, yaw=87.2°*)
 23: 0x0EF0 [0x47] WAIT_PLAYER_POS_UPDATE
 24: 0x0EF2 [0x01] GOTO 0x0F5D
 25: 0x0EF5 [0x02] IF !(ExtData[1]->WorkLocal[33] == 1*) GOTO 0x0F0C
 26: 0x0EFD [0x47] UPDATE_PLAYER_POS(-262.589*, 377.857*, -137.313*, yaw=305.3°*)
 27: 0x0F07 [0x47] WAIT_PLAYER_POS_UPDATE
 28: 0x0F09 [0x01] GOTO 0x0F5D
 29: 0x0F0C [0x02] IF !(ExtData[1]->WorkLocal[33] == 2*) GOTO 0x0F23
 30: 0x0F14 [0x47] UPDATE_PLAYER_POS(18.348*, 486.940*, -224.334*, yaw=17.1°*)
 31: 0x0F1E [0x47] WAIT_PLAYER_POS_UPDATE
 32: 0x0F20 [0x01] GOTO 0x0F5D
 33: 0x0F23 [0x02] IF !(ExtData[1]->WorkLocal[33] == 3*) GOTO 0x0F3A
 34: 0x0F2B [0x47] UPDATE_PLAYER_POS(231.593*, 360.094*, -173.572*, yaw=160.8°*)
 35: 0x0F35 [0x47] WAIT_PLAYER_POS_UPDATE
 36: 0x0F37 [0x01] GOTO 0x0F5D
 37: 0x0F3A [0x02] IF !(ExtData[1]->WorkLocal[33] == 4*) GOTO 0x0F51
 38: 0x0F42 [0x47] UPDATE_PLAYER_POS(553.664*, 523.939*, -38.205*, yaw=233.9°*)
 39: 0x0F4C [0x47] WAIT_PLAYER_POS_UPDATE
 40: 0x0F4E [0x01] GOTO 0x0F5D
 41: 0x0F51 [0x47] UPDATE_PLAYER_POS(-517.933*, -209.947*, 159.789*, yaw=177.3°*)
 42: 0x0F5B [0x47] WAIT_PLAYER_POS_UPDATE

SUBROUTINE_0F5D:
 43: 0x0F5D [0x01] GOTO 0x0FDF
 44: 0x0F60 [0x02] IF !(ExtData[1]->WorkLocal[32] == 6*) GOTO 0x0FD3
 45: 0x0F68 [0x02] IF !(ExtData[1]->WorkLocal[31] == 1*) GOTO 0x0F7F
 46: 0x0F70 [0x47] UPDATE_PLAYER_POS(-875.117*, -43.892*, -48.084*, yaw=45.1°*)
 47: 0x0F7A [0x47] WAIT_PLAYER_POS_UPDATE
 48: 0x0F7C [0x01] GOTO 0x0FD0
 49: 0x0F7F [0x02] IF !(ExtData[1]->WorkLocal[31] == 2*) GOTO 0x0F96
 50: 0x0F87 [0x47] UPDATE_PLAYER_POS(-755.499*, 563.947*, -112.035*, yaw=313.5°*)
 51: 0x0F91 [0x47] WAIT_PLAYER_POS_UPDATE
 52: 0x0F93 [0x01] GOTO 0x0FD0
 53: 0x0F96 [0x02] IF !(ExtData[1]->WorkLocal[31] == 3*) GOTO 0x0FAD
 54: 0x0F9E [0x47] UPDATE_PLAYER_POS(123.251*, 754.209*, -172.124*, yaw=38.7°*)
 55: 0x0FA8 [0x47] WAIT_PLAYER_POS_UPDATE
 56: 0x0FAA [0x01] GOTO 0x0FD0
 57: 0x0FAD [0x02] IF !(ExtData[1]->WorkLocal[31] == 4*) GOTO 0x0FC4
 58: 0x0FB5 [0x47] UPDATE_PLAYER_POS(-516.404*, -803.323*, 24.206*, yaw=38.4°*)
 59: 0x0FBF [0x47] WAIT_PLAYER_POS_UPDATE
 60: 0x0FC1 [0x01] GOTO 0x0FD0
 61: 0x0FC4 [0x47] UPDATE_PLAYER_POS(-517.933*, -209.947*, 159.789*, yaw=177.3°*)
 62: 0x0FCE [0x47] WAIT_PLAYER_POS_UPDATE

SUBROUTINE_0FD0:
 63: 0x0FD0 [0x01] GOTO 0x0FDF
 64: 0x0FD3 [0x47] UPDATE_PLAYER_POS(-517.933*, -209.947*, 159.789*, yaw=177.3°*)
 65: 0x0FDD [0x47] WAIT_PLAYER_POS_UPDATE

SUBROUTINE_0FDF:
 66: 0x0FDF [0x38] SET_CLIENT_EVENT_MODE(mode=19*)
 67: 0x0FE2 [0x79] LocalPlayer looks at LocalPlayer (Basic look)
 68: 0x0FEC [0x1A] CALL_SUBROUTINE(address=0x2606)
 69: 0x0FEF [0x45] LOAD_SCHEDULED_TASK: Load scheduler "whi1" with entities [LocalPlayer, LocalPlayer], work=[201*, 0*]
 70: 0x1000 [0x45] LOAD_SCHEDULED_TASK: Load scheduler "blof" with entities [LocalPlayer, LocalPlayer], work=[200*, 0*]
 71: 0x1011 [0x5C] MUSIC_CONTROL: Set Idle (Day) music to song 0*
 72: 0x1015 [0x5C] MUSIC_CONTROL: Set Idle (Night) music to song 0*
 73: 0x1019 [0x5C] MUSIC_CONTROL: Set Combat (Solo) music to song 125*
 74: 0x101D [0x5C] MUSIC_CONTROL: Set Combat (Party) music to song 125*
 75: 0x1021 [0x21] END_EVENT
 76: 0x1022 [0x00] END_REQSTACK()
```

### Event 32004

#### Metadata

| Field        | Value   |
|--------------|---------|
| Entrypoint   | 0x1023  |
| Data Size    | 6 bytes |
| Instructions | 4       |

```
      00 01 02 03 04 05 06 07  08 09 0A 0B 0C 0D 0E 0F
      -- -- -- -- -- -- -- --  -- -- -- -- -- -- -- --
1020:          1D A1 80 23 21  00                          ...#!.       
```

#### Opcodes

```
  0: 0x1023 [0x1D] PRINT_EVENT_MESSAGE(message_id=7550*)
    → "iDEBUG$3998261$3{$3X$3|$3b$3vB"
  1: 0x1026 [0x23] WAIT_FOR_DIALOG_INTERACTION
  2: 0x1027 [0x21] END_EVENT
  3: 0x1028 [0x00] END_REQSTACK()
```

### Event 65535.3

#### Metadata

| Field        | Value   |
|--------------|---------|
| Entrypoint   | 0x1029  |
| Data Size    | 7 bytes |
| Instructions | 3       |

```
      00 01 02 03 04 05 06 07  08 09 0A 0B 0C 0D 0E 0F
      -- -- -- -- -- -- -- --  -- -- -- -- -- -- -- --
1020:                             AB 03 AC 01 10 80 00           .......
```

#### Opcodes

```
  0: 0x1029 [0xAB] EventEntity->Render.Flags0 ^= 0x20000 // Toggle bit 17
  1: 0x102B [0xAC] EventEntity->StatusEvent = 1*
  2: 0x102F [0x00] END_REQSTACK()
```

### Event 65535.4

#### Metadata

| Field        | Value   |
|--------------|---------|
| Entrypoint   | 0x1030  |
| Data Size    | 7 bytes |
| Instructions | 3       |

```
      00 01 02 03 04 05 06 07  08 09 0A 0B 0C 0D 0E 0F
      -- -- -- -- -- -- -- --  -- -- -- -- -- -- -- --
1030: AC 01 0B 80 AB 04 00                              .......         
```

#### Opcodes

```
  0: 0x1030 [0xAC] EventEntity->StatusEvent = 0*
  1: 0x1034 [0xAB] EventEntity->Render.Flags0 |= 0x40000 // Set bit 18
  2: 0x1036 [0x00] END_REQSTACK()
```

### Event 65535.5

#### Metadata

| Field        | Value    |
|--------------|----------|
| Entrypoint   | 0x1037   |
| Data Size    | 24 bytes |
| Instructions | 4        |

```
      00 01 02 03 04 05 06 07  08 09 0A 0B 0C 0D 0E 0F
      -- -- -- -- -- -- -- --  -- -- -- -- -- -- -- --
1030:                      03  22 00 07 7F 1A 57 25 66         ."....W%f
1040: 23 00 F8 FF FF 7F F8 FF  FF 7F 74 6C 6B 30 00     #.........tlk0. 
```

#### Opcodes

```
  0: 0x1037 [0x03] ExtData[1]->WorkLocal[34] = Entity->Race
  1: 0x103C [0x1A] CALL_SUBROUTINE(address=0x2557)
  2: 0x103F [0x66] LOAD_EXT_SCHEDULER_MAIN: Load scheduler "tlk0" with entities [EventEntity, EventEntity], work=ExtData[1]->WorkLocal[35]
  3: 0x104E [0x00] END_REQSTACK()
```

### Event 65535.6

#### Metadata

| Field        | Value      |
|--------------|------------|
| Entrypoint   | 0x104F     |
| Data Size    | 6209 bytes |
| Instructions | 12         |

```
      00 01 02 03 04 05 06 07  08 09 0A 0B 0C 0D 0E 0F
      -- -- -- -- -- -- -- --  -- -- -- -- -- -- -- --
1040:                                               03                 .
1050: 22 00 07 7F 1A 57 25 66  23 00 F8 FF FF 7F F8 FF  "....W%f#.......
1060: FF 7F 74 6C 6B 31 00 24  17 80 10 80 0B 80 25 02  ..tlk1.$......%.
1070: 00 10 0B 80 00 7D 10 05  01 00 01 7D 10 1B 79 00  .....}.....}..y.
1080: F0 FF FF 7F F0 FF FF 7F  02 03 00 0B 80 80 EE 14  ................
1090: 4E 00 3B B2 08 01 4E 00  3C B2 08 01 4E 00 38 B2  N.;...N.<...N.8.
10A0: 08 01 4E 00 39 B2 08 01  4E 00 3D B2 08 01 4E 00  ..N.9...N.=...N.
10B0: 3E B2 08 01 4E 00 3F B2  08 01 4E 00 40 B2 08 01  >...N.?...N.@...
10C0: 02 02 00 10 80 00 CB 10  01 51 11 42 1A 23 27 62  .........Q.B.#'b
10D0: 10 80 F0 FF FF 7F F0 FF  FF 7F 00 FE FE FE 0B 80  ................
10E0: 62 14 80 F0 FF FF 7F F0  FF FF 7F 00 FE FE FE 0B  b...............
10F0: 80 62 28 80 38 B2 08 01  38 B2 08 01 00 FE FE FE  .b(.8...8.......
1100: 0B 80 62 26 80 39 B2 08  01 39 B2 08 01 00 FE FE  ..b&.9...9......
1110: FE 0B 80 45 A2 80 F0 FF  FF 7F F0 FF FF 7F 00 FE  ...E............
1120: FE FE 0B 80 45 19 80 F0  FF FF 7F F0 FF FF 7F 00  ....E...........
1130: FE FE FE 0B 80 2C 38 B2  08 01 38 B2 08 01 00 FE  .....,8...8.....
1140: FE FE 66 2E 80 3B B2 08  01 3B B2 08 01 00 FE FE  ..f..;...;......
1150: FE 46 01 37 A3 80 A4 80  A5 80 A6 80 45 A2 80 F0  .F.7........E...
1160: FF FF 7F F0 FF FF 7F 73  67 30 77 0B 80 1A 02 27  .......sg0w....'
1170: 32 27 80 7B F0 FF FF 7F  1F 00 A7 80 A8 80 A9 80  2'.{............
1180: 1F 01 6F 4B F0 FF FF 7F  AA 80 6F 70 62 10 80 F0  ..oK......opb...
1190: FF FF 7F F0 FF FF 7F 6D  61 69 6E 0B 80 1C 34 80  .......main...4.
11A0: 1A 65 27 37 AB 80 AC 80  AD 80 9B 80 1C 38 80 45  .e'7.........8.E
11B0: A2 80 F0 FF FF 7F F0 FF  FF 7F 73 67 30 61 0B 80  ..........sg0a..
11C0: 1A BB 27 55 A2 80 F0 FF  FF 7F F0 FF FF 7F 73 67  ..'U..........sg
11D0: 30 61 27 10 30 B2 08 01  02 32 AE 80 1F 00 AF 80  0a'.0....2......
11E0: B0 80 B1 80 1F 01 6F 55  19 80 F0 FF FF 7F F0 FF  ......oU........
11F0: FF 7F 66 64 6F 31 02 02  00 10 80 00 07 12 2A 10  ..fdo1........*.
1200: 30 B2 08 01 01 E5 14 27  10 3B B2 08 01 03 45 A2  0......'.;....E.
1210: 80 F0 FF FF 7F F0 FF FF  7F 73 67 33 30 0B 80 1A  .........sg30...
1220: 44 27 1C 38 80 45 A2 80  F0 FF FF 7F F0 FF FF 7F  D'.8.E..........
1230: 73 67 33 31 0B 80 2A 10  3B B2 08 01 55 A2 80 F0  sg31..*.;...U...
1240: FF FF 7F F0 FF FF 7F 73  67 33 31 79 00 3B B2 08  .......sg31y.;..
1250: 01 3C B2 08 01 1C 34 80  27 10 3C B2 08 01 02 45  .<....4.'.<....E
1260: A2 80 F0 FF FF 7F F0 FF  FF 7F 73 67 33 32 0B 80  ..........sg32..
1270: 1C B2 80 2B 3C B2 08 01  B3 80 23 7B 3B B2 08 01  ...+<.....#{;...
1280: 2B 3B B2 08 01 B4 80 23  45 A2 80 F0 FF FF 7F F0  +;.....#E.......
1290: FF FF 7F 73 67 33 33 0B  80 2B 3C B2 08 01 B5 80  ...sg33..+<.....
12A0: 23 55 A2 80 F0 FF FF 7F  F0 FF FF 7F 73 67 33 33  #U..........sg33
12B0: 2B 38 B2 08 01 B6 80 23  27 10 39 B2 08 01 03 45  +8.....#'.9....E
12C0: A2 80 F0 FF FF 7F F0 FF  FF 7F 73 67 33 34 0B 80  ..........sg34..
12D0: 62 26 80 39 B2 08 01 39  B2 08 01 6D 61 69 6E 0B  b&.9...9...main.
12E0: 80 1C B7 80 45 19 80 F0  FF FF 7F F0 FF FF 7F 62  ....E..........b
12F0: 6C 6F 6E 0B 80 55 A2 80  F0 FF FF 7F F0 FF FF 7F  lon..U..........
1300: 73 67 33 34 1A 23 27 45  19 80 F0 FF FF 7F F0 FF  sg34.#'E........
1310: FF 7F 62 6C 6F 66 0B 80  45 A2 80 F0 FF FF 7F F0  ..blof..E.......
1320: FF FF 7F 73 67 33 35 0B  80 1A 02 27 7C 00 3C B2  ...sg35....'|.<.
1330: 08 01 2B 3C B2 08 01 B8  80 23 7C 01 3C B2 08 01  ..+<.....#|.<...
1340: 66 2E 80 3B B2 08 01 3B  B2 08 01 31 72 64 79 2B  f..;...;...1rdy+
1350: 3B B2 08 01 B9 80 23 2B  3C B2 08 01 BA 80 23 52  ;.....#+<.....#R
1360: A2 80 F0 FF FF 7F F0 FF  FF 7F 73 67 33 35 45 A2  ..........sg35E.
1370: 80 F0 FF FF 7F F0 FF FF  7F 73 67 33 36 0B 80 62  .........sg36..b
1380: 28 80 38 B2 08 01 38 B2  08 01 6D 61 69 6E 0B 80  (.8...8...main..
1390: 27 10 38 B2 08 01 03 2B  38 B2 08 01 BB 80 23 2B  '.8....+8.....#+
13A0: 38 B2 08 01 BC 80 23 52  A2 80 F0 FF FF 7F F0 FF  8.....#R........
13B0: FF 7F 73 67 33 36 45 A2  80 F0 FF FF 7F F0 FF FF  ..sg36E.........
13C0: 7F 73 67 33 37 0B 80 2B  3C B2 08 01 BD 80 23 45  .sg37..+<.....#E
13D0: A2 80 F0 FF FF 7F F0 FF  FF 7F 73 67 33 38 0B 80  ..........sg38..
13E0: 79 00 3B B2 08 01 3C B2  08 01 1C 38 80 66 2E 80  y.;...<....8.f..
13F0: 3B B2 08 01 3B B2 08 01  31 72 74 6E 2B 3B B2 08  ;...;...1rtn+;..
1400: 01 BE 80 23 79 00 3C B2  08 01 3B B2 08 01 2B 3C  ...#y.<...;...+<
1410: B2 08 01 BF 80 23 1A 23  27 52 A2 80 F0 FF FF 7F  .....#.#'R......
1420: F0 FF FF 7F 73 67 33 38  6C 3E B2 08 01 C0 80 10  ....sg38l>......
1430: 80 1C 10 80 6C 3C B2 08  01 0B 80 10 80 1C 10 80  ....l<..........
1440: 2C 3E B2 08 01 3E B2 08  01 63 61 77 68 45 A2 80  ,>...>...cawhE..
1450: F0 FF FF 7F F0 FF FF 7F  73 67 33 39 0B 80 1A 02  ........sg39....
1460: 27 2B 3E B2 08 01 C1 80  23 2C 3E B2 08 01 3E B2  '+>.....#,>...>.
1470: 08 01 73 68 77 68 1C 13  80 27 10 3E B2 08 01 02  ..shwh...'.>....
1480: 73 C2 80 3F B2 08 01 3C  B2 08 01 1C 34 80 27 10  s..?...<....4.'.
1490: 3B B2 08 01 04 73 C2 80  40 B2 08 01 3D B2 08 01  ;....s..@...=...
14A0: 2A 10 3B B2 08 01 45 A2  80 F0 FF FF 7F F0 FF FF  *.;...E.........
14B0: 7F 73 67 34 30 0B 80 2B  38 B2 08 01 C3 80 23 45  .sg40..+8.....#E
14C0: A2 80 F0 FF FF 7F F0 FF  FF 7F 73 67 73 65 0B 80  ..........sgse..
14D0: 1A 65 27 1C C4 80 52 A2  80 F0 FF FF 7F F0 FF FF  .e'...R.........
14E0: 7F 73 67 34 30 1C 34 80  1A F0 27 01 EB 18 02 03  .sg40.4...'.....
14F0: 00 15 80 80 98 17 42 1A  23 27 46 01 37 A3 80 A4  ......B.#'F.7...
1500: 80 A5 80 A6 80 45 A2 80  F0 FF FF 7F F0 FF FF 7F  .....E..........
1510: 73 67 30 77 0B 80 1A 02  27 32 27 80 1F 00 A7 80  sg0w....'2'.....
1520: A8 80 A9 80 1F 01 6F 4B  F0 FF FF 7F AA 80 6F 70  ......oK......op
1530: 62 10 80 F0 FF FF 7F F0  FF FF 7F 6D 61 69 6E 0B  b..........main.
1540: 80 1C 34 80 1A 65 27 4E  00 42 B2 08 01 4E 00 43  ..4..e'N.B...N.C
1550: B2 08 01 4E 00 44 B2 08  01 4E 00 45 B2 08 01 4E  ...N.D...N.E...N
1560: 00 46 B2 08 01 80 42 B2  08 01 80 43 B2 08 01 80  .F....B....C....
1570: 44 B2 08 01 80 45 B2 08  01 80 46 B2 08 01 37 AB  D....E....F...7.
1580: 80 AC 80 AD 80 9B 80 1C  38 80 45 A2 80 F0 FF FF  ........8.E.....
1590: 7F F0 FF FF 7F 73 67 30  61 0B 80 1A BB 27 55 A2  .....sg0a....'U.
15A0: 80 F0 FF FF 7F F0 FF FF  7F 73 67 30 61 27 10 30  .........sg0a'.0
15B0: B2 08 01 02 32 AE 80 1F  00 AF 80 B0 80 B1 80 1F  ....2...........
15C0: 01 6F 45 A2 80 F0 FF FF  7F F0 FF FF 7F 72 30 30  .oE..........r00
15D0: 30 0B 80 55 A2 80 F0 FF  FF 7F F0 FF FF 7F 72 30  0..U..........r0
15E0: 30 30 45 19 80 F0 FF FF  7F F0 FF FF 7F 66 64 69  00E..........fdi
15F0: 31 0B 80 55 19 80 F0 FF  FF 7F F0 FF FF 7F 66 64  1..U..........fd
1600: 69 31 4A 43 B2 08 01 42  B2 08 01 6F 76 43 B2 08  i1JC...B...ovC..
1610: 01 2B 43 B2 08 01 C5 80  23 45 A2 80 F0 FF FF 7F  .+C.....#E......
1620: F0 FF FF 7F 72 30 30 31  0B 80 55 A2 80 F0 FF FF  ....r001..U.....
1630: 7F F0 FF FF 7F 72 30 30  31 2B 42 B2 08 01 C6 80  .....r001+B.....
1640: 23 45 A2 80 F0 FF FF 7F  F0 FF FF 7F 72 30 30 32  #E..........r002
1650: 0B 80 55 A2 80 F0 FF FF  7F F0 FF FF 7F 72 30 30  ..U..........r00
1660: 32 4A 43 B2 08 01 31 B2  08 01 6F 76 43 B2 08 01  2JC...1...ovC...
1670: 2B 43 B2 08 01 C7 80 23  4A 43 B2 08 01 45 B2 08  +C.....#JC...E..
1680: 01 1C 25 80 45 A2 80 F0  FF FF 7F F0 FF FF 7F 72  ..%.E..........r
1690: 30 30 33 0B 80 2B 43 B2  08 01 C8 80 23 6F 76 43  003..+C.....#ovC
16A0: B2 08 01 55 A2 80 F0 FF  FF 7F F0 FF FF 7F 72 30  ...U..........r0
16B0: 30 33 1C 38 80 45 A2 80  F0 FF FF 7F F0 FF FF 7F  03.8.E..........
16C0: 72 30 30 34 0B 80 2B 44  B2 08 01 C9 80 23 55 A2  r004..+D.....#U.
16D0: 80 F0 FF FF 7F F0 FF FF  7F 72 30 30 34 45 19 80  .........r004E..
16E0: F0 FF FF 7F F0 FF FF 7F  62 6C 6F 6E 0B 80 45 A2  ........blon..E.
16F0: 80 F0 FF FF 7F F0 FF FF  7F 72 30 30 36 0B 80 27  .........r006..'
1700: 03 43 B2 08 01 02 1C 2A  80 27 03 42 B2 08 01 02  .C.....*.'.B....
1710: 55 A2 80 F0 FF FF 7F F0  FF FF 7F 72 30 30 36 45  U..........r006E
1720: A2 80 F0 FF FF 7F F0 FF  FF 7F 72 30 30 35 0B 80  ..........r005..
1730: 45 3F 80 44 B2 08 01 44  B2 08 01 00 FE FE FE 0B  E?.D...D........
1740: 80 1C 38 80 45 3F 80 44  B2 08 01 44 B2 08 01 77  ..8.E?.D...D...w
1750: 68 6F 31 0B 80 55 A2 80  F0 FF FF 7F F0 FF FF 7F  ho1..U..........
1760: 72 30 30 35 55 3F 80 F0  FF FF 7F F0 FF FF 7F 77  r005U?.........w
1770: 68 6F 31 45 19 80 F0 FF  FF 7F F0 FF FF 7F 62 6C  ho1E..........bl
1780: 6F 66 0B 80 45 3F 80 F0  FF FF 7F F0 FF FF 7F 77  of..E?.........w
1790: 68 69 31 0B 80 01 EB 18  02 03 00 2A 80 80 4A 18  hi1........*..J.
17A0: 42 1A 23 27 46 01 37 A3  80 A4 80 A5 80 A6 80 45  B.#'F.7........E
17B0: A2 80 F0 FF FF 7F F0 FF  FF 7F 73 67 30 77 0B 80  ..........sg0w..
17C0: 1A 02 27 32 27 80 1F 00  A7 80 A8 80 A9 80 1F 01  ..'2'...........
17D0: 6F 4B F0 FF FF 7F AA 80  6F 70 62 10 80 F0 FF FF  oK......opb.....
17E0: 7F F0 FF FF 7F 6D 61 69  6E 0B 80 1C 34 80 1A 65  .....main...4..e
17F0: 27 37 AB 80 AC 80 AD 80  9B 80 1C 38 80 45 A2 80  '7.........8.E..
1800: F0 FF FF 7F F0 FF FF 7F  73 67 30 61 0B 80 1A BB  ........sg0a....
1810: 27 55 A2 80 F0 FF FF 7F  F0 FF FF 7F 73 67 30 61  'U..........sg0a
1820: 27 10 30 B2 08 01 02 32  AE 80 1F 00 AF 80 B0 80  '.0....2........
1830: B1 80 1F 01 6F 55 19 80  F0 FF FF 7F F0 FF FF 7F  ....oU..........
1840: 66 64 6F 31 1A BB 19 01  EB 18 42 46 01 37 A3 80  fdo1......BF.7..
1850: A4 80 A5 80 A6 80 45 A2  80 F0 FF FF 7F F0 FF FF  ......E.........
1860: 7F 73 67 30 77 0B 80 1A  02 27 32 27 80 1F 00 A7  .sg0w....'2'....
1870: 80 A8 80 A9 80 1F 01 6F  4B F0 FF FF 7F AA 80 6F  .......oK......o
1880: 70 62 10 80 F0 FF FF 7F  F0 FF FF 7F 6D 61 69 6E  pb..........main
1890: 0B 80 1C 34 80 1A 65 27  37 AB 80 AC 80 AD 80 9B  ...4..e'7.......
18A0: 80 1C 38 80 45 A2 80 F0  FF FF 7F F0 FF FF 7F 73  ..8.E..........s
18B0: 67 30 61 0B 80 1A BB 27  55 A2 80 F0 FF FF 7F F0  g0a....'U.......
18C0: FF FF 7F 73 67 30 61 27  10 30 B2 08 01 02 32 AE  ...sg0a'.0....2.
18D0: 80 1F 00 AF 80 B0 80 B1  80 1F 01 6F 55 19 80 F0  ...........oU...
18E0: FF FF 7F F0 FF FF 7F 66  64 6F 31 02 00 00 10 80  .......fdo1.....
18F0: 80 22 19 37 CA 80 CB 80  CC 80 CD 80 45 A2 80 F0  .".7........E...
1900: FF FF 7F F0 FF FF 7F 73  67 31 61 0B 80 1A 44 27  .......sg1a...D'
1910: 55 A2 80 F0 FF FF 7F F0  FF FF 7F 73 67 31 61 01  U..........sg1a.
1920: A7 19 02 00 00 14 80 80  59 19 37 CE 80 CF 80 D0  ........Y.7.....
1930: 80 D1 80 45 A2 80 F0 FF  FF 7F F0 FF FF 7F 73 67  ...E..........sg
1940: 31 62 0B 80 1A 44 27 55  A2 80 F0 FF FF 7F F0 FF  1b...D'U........
1950: FF 7F 73 67 31 62 01 A7  19 02 00 00 15 80 80 90  ..sg1b..........
1960: 19 37 D2 80 D3 80 D4 80  D1 80 45 A2 80 F0 FF FF  .7........E.....
1970: 7F F0 FF FF 7F 73 67 31  63 0B 80 1A 44 27 55 A2  .....sg1c...D'U.
1980: 80 F0 FF FF 7F F0 FF FF  7F 73 67 31 63 01 A7 19  .........sg1c...
1990: 02 00 00 16 80 80 A7 19  37 0B 80 0B 80 0B 80 0B  ........7.......
19A0: 80 1A BB 27 01 A7 19 45  19 80 F0 FF FF 7F F0 FF  ...'...E........
19B0: FF 7F 62 6C 6F 66 0B 80  46 00 1B 97 0B 80 10 80  ..blof..F.......
19C0: 59 05 F8 FF FF 7F 01 37  D5 80 D6 80 D7 80 D8 80  Y......7........
19D0: 38 1A 80 92 01 64 B2 08  01 2F 00 64 B2 08 01 4E  8....d.../.d...N
19E0: 00 64 B2 08 01 22 00 94  01 64 B2 08 01 59 05 64  .d..."...d...Y.d
19F0: B2 08 01 01 BA 64 B2 08  01 D9 80 DA 80 DB 80 DC  .....d..........
1A00: 80 80 64 B2 08 01 80 F0  FF FF 7F 4A 64 B2 08 01  ..d........Jd...
1A10: F0 FF FF 7F 1E 64 B2 08  01 1C 34 80 45 DD 80 F0  .....d....4.E...
1A20: FF FF 7F F0 FF FF 7F 73  31 32 31 0B 80 1A 44 27  .......s121...D'
1A30: 2B 64 B2 08 01 DE 80 23  52 DD 80 F0 FF FF 7F F0  +d.....#R.......
1A40: FF FF 7F 73 31 32 31 45  DD 80 F0 FF FF 7F F0 FF  ...s121E........
1A50: FF 7F 73 31 32 32 0B 80  66 DF 80 64 B2 08 01 64  ..s122..f..d...d
1A60: B2 08 01 6D 6E 6B 30 CD  E0 80 64 B2 08 01 64 B2  ...mnk0...d...d.
1A70: 08 01 73 30 30 30 0B 80  1C 3B 80 CD E0 80 64 B2  ..s000...;....d.
1A80: 08 01 64 B2 08 01 73 74  6F 70 0B 80 27 05 F0 FF  ..d...stop..'...
