# Event 65535

## Metadata

| Field           | Value    |
|-----------------|----------|
| Event Index     | 192/192  |
| Offset          | 0xF908   |
| Data Size       | 27 bytes |
| Calculated Size | 27 bytes |
| Instructions    | 11       |

```
      00 01 02 03 04 05 06 07  08 09 0A 0B 0C 0D 0E 0F
      -- -- -- -- -- -- -- --  -- -- -- -- -- -- -- --
F900:                          39 77 87 6F 70 32 61 80          9w.op2a.
F910: 1F 00 78 87 79 87 A4 80  1F 01 1C 39 80 39 7A 87  ..x.y......9.9z.
F920: 6F 70 00                                          op.             
```

## Opcodes

```
  0: 0xF908 [0x39] SET_ENTITY_DIRECTION(direction=6.3°*)
  1: 0xF90B [0x6F] WAIT_FRAME_DELAY: Yield until WaitTime reaches zero
  2: 0xF90C [0x70] WAIT_ENTITY_RENDER_FLAG: Wait while EventEntity->Render.Flags3 bit 2 is set (cancel turn if not)
  3: 0xF90D [0x32] ExtData[1]->MainSpeed = 13* * 0.1
  4: 0xF910 [0x1F] MOVE_ENTITY: EventEntity moves to X=-47.270*, Z=-1.970*, Y=-10.000*
  5: 0xF918 [0x1F] MOVE_ENTITY: Update entity position (mode=1)
  6: 0xF91A [0x1C] WAIT(15* ticks)
  7: 0xF91D [0x39] SET_ENTITY_DIRECTION(direction=355.1°*)
  8: 0xF920 [0x6F] WAIT_FRAME_DELAY: Yield until WaitTime reaches zero
  9: 0xF921 [0x70] WAIT_ENTITY_RENDER_FLAG: Wait while EventEntity->Render.Flags3 bit 2 is set (cancel turn if not)
 10: 0xF922 [0x00] END_REQSTACK()
```
