# Event 65535

## Metadata

| Field           | Value    |
|-----------------|----------|
| Event Index     | 179/192  |
| Offset          | 0xF53D   |
| Data Size       | 42 bytes |
| Calculated Size | 42 bytes |
| Instructions    | 10       |

```
      00 01 02 03 04 05 06 07  08 09 0A 0B 0C 0D 0E 0F
      -- -- -- -- -- -- -- --  -- -- -- -- -- -- -- --
F530:                                         1F 00 64               ..d
F540: 87 65 87 64 80 1F 01 6F  1E 30 D0 0E 01 6F 70 03  .e.d...o.0...op.
F550: 04 00 07 7F 1A A9 F4 66  05 00 F8 FF FF 7F F8 FF  .......f........
F560: FF 7F 74 6C 6B 30 00                              ..tlk0.         
```

## Opcodes

```
  0: 0xF53D [0x1F] MOVE_ENTITY: EventEntity moves to X=90.025*, Z=1.434*, Y=-19.532*
  1: 0xF545 [0x1F] MOVE_ENTITY: Update entity position (mode=1)
  2: 0xF547 [0x6F] WAIT_FRAME_DELAY: Yield until WaitTime reaches zero
  3: 0xF548 [0x1E] EventEntity looks at Iron Eater (ID: 17748016/0x010ED030) and starts talking
  4: 0xF54D [0x6F] WAIT_FRAME_DELAY: Yield until WaitTime reaches zero
  5: 0xF54E [0x70] WAIT_ENTITY_RENDER_FLAG: Wait while EventEntity->Render.Flags3 bit 2 is set (cancel turn if not)
  6: 0xF54F [0x03] ExtData[1]->WorkLocal[4] = Entity->Race
  7: 0xF554 [0x1A] CALL_SUBROUTINE(address=0xF4A9)
  8: 0xF557 [0x66] LOAD_EXT_SCHEDULER_MAIN: Load scheduler "tlk0" with entities [EventEntity, EventEntity], work=ExtData[1]->WorkLocal[5]
  9: 0xF566 [0x00] END_REQSTACK()
```
