# Event 65535

## Metadata

| Field           | Value    |
|-----------------|----------|
| Event Index     | 31/192   |
| Offset          | 0x2E8D   |
| Data Size       | 40 bytes |
| Calculated Size | 40 bytes |
| Instructions    | 6        |

```
      00 01 02 03 04 05 06 07  08 09 0A 0B 0C 0D 0E 0F
      -- -- -- -- -- -- -- --  -- -- -- -- -- -- -- --
2E80:                                         37 AB 81               7..
2E90: 02 80 7F 80 02 80 45 AC  81 F0 FF FF 7F F0 FF FF  ......E.........
2EA0: 7F 63 30 36 69 09 80 32  61 80 1F 00 AD 81 02 80  .c06i..2a.......
2EB0: 5F 80 1F 01 00                                    _....           
```

## Opcodes

```
  0: 0x2E8D [0x37] UPDATE_EVENT_POSITION_AND_DIR: x=94.568*, z=0.000*, y=-20.168*, direction=0.0°*
  1: 0x2E96 [0x45] LOAD_SCHEDULED_TASK: Load scheduler "c06i" with entities [LocalPlayer, LocalPlayer], work=[202*, 120*]
  2: 0x2EA7 [0x32] ExtData[1]->MainSpeed = 13* * 0.1
  3: 0x2EAA [0x1F] MOVE_ENTITY: EventEntity moves to X=97.274*, Z=0.000*, Y=-20.170*
  4: 0x2EB2 [0x1F] MOVE_ENTITY: Update entity position (mode=1)
  5: 0x2EB4 [0x00] END_REQSTACK()
```
