# Event 65535

## Metadata

| Field           | Value    |
|-----------------|----------|
| Event Index     | 15/15    |
| Offset          | 0x017D   |
| Data Size       | 97 bytes |
| Calculated Size | 97 bytes |
| Instructions    | 4        |

```
      00 01 02 03 04 05 06 07  08 09 0A 0B 0C 0D 0E 0F
      -- -- -- -- -- -- -- --  -- -- -- -- -- -- -- --
0170:                                         66 1D 80               f..
0180: F8 FF FF 7F F8 FF FF 7F  74 68 6B 32 53 F8 FF FF  ........thk2S...
0190: 7F F8 FF FF 7F 74 68 6B  32 00 3B F8 FF FF 7F 05  .....thk2.;.....
01A0: 00 06 00 07 00 3A F8 FF  FF 7F 08 00 17 09 00 08  .....:..........
01B0: 00 04 00 16 0A 00 08 00  04 00 07 05 00 09 00 07  ................
01C0: 06 00 0A 00 1B 17 09 00  08 00 04 00 16 0A 00 08  ................
01D0: 00 04 00 07 05 00 09 00  07 06 00 0A 00 1B        ..............  
```

## Opcodes

```
  0: 0x017D [0x66] LOAD_EXT_SCHEDULER_MAIN(work_offset=29*, entity1=EventEntity, entity2=EventEntity, action="thk2")
  1: 0x018C [0x53] WAIT_SCHEDULER_TASK(entity1=EventEntity, entity2=EventEntity, action_id="thk2")
  2: 0x0199 [0x00] END_REQSTACK()
```

## Data or dead code:

```
# Data Section: 0x019A (68 bytes)
     0x019A: 3B F8 FF FF 7F 05 00 06 00 07 00 3A F8 FF FF 7F
     0x01AA: 08 00 17 09 00 08 00 04 00 16 0A 00 08 00 04 00
     0x01BA: 07 05 00 09 00 07 06 00 0A 00 1B 17 09 00 08 00
     0x01CA: 04 00 16 0A 00 08 00 04 00 07 05 00 09 00 07 06
     0x01DA: 00 0A 00 1B
```