# Event 65535

## Metadata

| Field           | Value    |
|-----------------|----------|
| Event Index     | 15/15    |
| Offset          | 0x017D   |
| Data Size       | 97 bytes |
| Calculated Size | 97 bytes |
| Instructions    | 3        |

```
      00 01 02 03 04 05 06 07  08 09 0A 0B 0C 0D 0E 0F
      -- -- -- -- -- -- -- --  -- -- -- -- -- -- -- --
0170:                                         66 1D 80               f..
0180: F8 FF FF 7F F8 FF FF 7F  74 68 6B 32 53 F8 FF FF  ........thk2S...
0190: 7F F8 FF FF 7F 74 68 6B  32 00 3B F8 FF FF 7F 05  .....thk2.;.....
01A0: 00 06 00 07 00 3A F8 FF  FF 7F 08 00 17 09 00 08  .....:..........
01B0: 00 04 00 16 0A 00 08 00  04 00 07 05 00 09 00 07  ................
01C0: 06 00 0A 00 1B 17 09 00  08 00 04 00 16 0A 00 08  ................
01D0: 00 04 00 07 05 00 09 00  07 06 00 0A 00 1B        ..............  
```

## Opcodes

```
  0: 0x017D [0x66] LOAD_EXT_SCHEDULER_MAIN: Load scheduler "thk2" with entities [EventEntity, EventEntity], work=29*
  1: 0x018C [0x53] WAIT_SCHEDULER_TASK: Wait for scheduler "thk2" with entities [EventEntity, EventEntity]
  2: 0x0199 [0x00] END_REQSTACK()
```

## Data or dead code:

```
# Dead code (unreachable instructions):
     0x019A [0x3B] GET_ENTITY_POSITION(entity=EventEntity, x_destination=ExtData[1]->WorkLocal[5], y_destination=ExtData[1]->WorkLocal[6], z_destination=ExtData[1]->WorkLocal[7])
     0x01A5 [0x3A] CONVERT_YAW_TO_BYTE(entity=EventEntity, result_destination=ExtData[1]->WorkLocal[8])
     0x01AC [0x17] ExtData[1]->WorkLocal[9] = cos(ExtData[1]->WorkLocal[8]) * ExtData[1]->WorkLocal[4]
     0x01B3 [0x16] ExtData[1]->WorkLocal[10] = sin(ExtData[1]->WorkLocal[8]) * ExtData[1]->WorkLocal[4]
     0x01BA [0x07] ExtData[1]->WorkLocal[5] += ExtData[1]->WorkLocal[9]
     0x01BF [0x07] ExtData[1]->WorkLocal[6] += ExtData[1]->WorkLocal[10]
     0x01C4 [0x1B] RETURN
     0x01C5 [0x17] ExtData[1]->WorkLocal[9] = cos(ExtData[1]->WorkLocal[8]) * ExtData[1]->WorkLocal[4]
     0x01CC [0x16] ExtData[1]->WorkLocal[10] = sin(ExtData[1]->WorkLocal[8]) * ExtData[1]->WorkLocal[4]
     0x01D3 [0x07] ExtData[1]->WorkLocal[5] += ExtData[1]->WorkLocal[9]
     0x01D8 [0x07] ExtData[1]->WorkLocal[6] += ExtData[1]->WorkLocal[10]
     0x01DD [0x1B] RETURN
```