# Event 539

## Metadata

| Field           | Value    |
|-----------------|----------|
| Event Index     | 14/16    |
| Offset          | 0x00B5   |
| Data Size       | 32 bytes |
| Calculated Size | 32 bytes |
| Instructions    | 10       |

```
      00 01 02 03 04 05 06 07  08 09 0A 0B 0C 0D 0E 0F
      -- -- -- -- -- -- -- --  -- -- -- -- -- -- -- --
00B0:                1E F0 FF  FF 7F 6F 70 66 01 80 F8       .....opf...
00C0: FF FF 7F F8 FF FF 7F 64  69 73 30 1D 02 80 23 1D  .......dis0...#.
00D0: 03 80 23 21 00                                    ..#!.           
```

## Opcodes

```
  0: 0x00B5 [0x1E] EventEntity looks at LocalPlayer and starts talking
  1: 0x00BA [0x6F] WAIT_FRAME_DELAY: Yield until WaitTime reaches zero
  2: 0x00BB [0x70] WAIT_ENTITY_RENDER_FLAG: Wait while EventEntity->Render.Flags3 bit 2 is set (cancel turn if not)
  3: 0x00BC [0x66] LOAD_EXT_SCHEDULER_MAIN: Load scheduler "dis0" with entities [EventEntity, EventEntity], work=21*
  4: 0x00CB [0x1D] PRINT_EVENT_MESSAGE(message_id=10525*)
    → "Know you the Silver Knife, \u007F\u0005[Sir/Madame] Pioneer?\u007F1\u0000\u0007"
  5: 0x00CE [0x23] WAIT_FOR_DIALOG_INTERACTION
  6: 0x00CF [0x1D] PRINT_EVENT_MESSAGE(message_id=10526*)
    → "It is a special club which only those born with a silver spoon in their mouths may enter--I don't know why \u00072Knife,\u00073 though. Sadly, even as a member of the Elvaan race, I lack the upbringing to gain access to the wonders within its walls.\u007F1\u0000\u0007"
  7: 0x00D2 [0x23] WAIT_FOR_DIALOG_INTERACTION
  8: 0x00D3 [0x21] END_EVENT
  9: 0x00D4 [0x00] END_REQSTACK()
```
