# Event 65535

## Metadata

| Field           | Value    |
|-----------------|----------|
| Event Index     | 8/10     |
| Offset          | 0x0072   |
| Data Size       | 52 bytes |
| Calculated Size | 52 bytes |
| Instructions    | 12       |

```
      00 01 02 03 04 05 06 07  08 09 0A 0B 0C 0D 0E 0F
      -- -- -- -- -- -- -- --  -- -- -- -- -- -- -- --
0070:       1F 00 11 80 12 80  07 80 1F 01 1F 00 13 80    ..............
0080: 14 80 07 80 1F 01 6F 1E  AF 70 0E 01 6F 70 2B B4  ......o..p..op+.
0090: 70 0E 01 15 80 23 66 16  80 F8 FF FF 7F F8 FF FF  p....#f.........
00A0: 7F 31 72 64 79 00                                 .1rdy.          
```

## Opcodes

```
  0: 0x0072 [0x1F] MOVE_ENTITY: EventEntity moves to X=95.448*, Z=86.371*, Y=1.749*
  1: 0x007A [0x1F] MOVE_ENTITY: Update entity position (mode=1)
  2: 0x007C [0x1F] MOVE_ENTITY: EventEntity moves to X=98.462*, Z=85.490*, Y=1.749*
  3: 0x0084 [0x1F] MOVE_ENTITY: Update entity position (mode=1)
  4: 0x0086 [0x6F] WAIT_FRAME_DELAY: Yield until WaitTime reaches zero
  5: 0x0087 [0x1E] EventEntity looks at Rainemard (ID: 17723567/0x010E70AF) and starts talking
  6: 0x008C [0x6F] WAIT_FRAME_DELAY: Yield until WaitTime reaches zero
  7: 0x008D [0x70] WAIT_ENTITY_RENDER_FLAG: Wait while EventEntity->Render.Flags3 bit 2 is set (cancel turn if not)
  8: 0x008E [0x2B] Ferdechiond (ID: 17723572/0x010E70B4) [12230*]:
    → "The enemy is here! Knights, to arms!\u007F4\u0000\u007F1\u0000\u0007"
  9: 0x0095 [0x23] WAIT_FOR_DIALOG_INTERACTION
 10: 0x0096 [0x66] LOAD_EXT_SCHEDULER_MAIN(work_offset=24*, entity1=EventEntity, entity2=EventEntity, action="1rdy")
 11: 0x00A5 [0x00] END_REQSTACK()
```
