# 17879399

## Common Data

| Field            | Value               |
|------------------|---------------------|
| Zone             | Moh Gates (ID: 269) |
| Block Size       | 3708 bytes          |
| Total Events     | 3                   |
| References Count | 108                 |

## List of Events

| Event ID              | Entrypoint   |   Size |   Instructions |
|-----------------------|--------------|--------|----------------|
| [65535](#event-65535) | 0x0000       |    658 |             62 |
| [102](#event-102)     | 0x0292       |    959 |            149 |
| [103](#event-103)     | 0x0651       |   1629 |            206 |

## DAT References (imed_data)

|   Index | Hex Value   |   Dec Value |
|---------|-------------|-------------|
|       0 | 0x00C8      |         200 |
|       1 | 0x0000      |           0 |
|       2 | 0x00C9      |         201 |
|       3 | 0x0001      |           1 |
|       4 | 0x002D      |          45 |
|       5 | 0x0002      |           2 |
|       6 | 0x001E      |          30 |
|       7 | 0x00D7      |         215 |
|       8 | 0x0013      |          19 |
|       9 | 0x5EC71     |      388209 |
|      10 | 0xFFFDA0AE  |  4294811822 |
|      11 | 0x752F      |       29999 |
|      12 | 0x06B6      |        1718 |
|      13 | 0x60E42     |      396866 |
|      14 | 0xFFFD74C6  |  4294800582 |
|      15 | 0x753D      |       30013 |
|      16 | 0x094A      |        2378 |
|      17 | 0x0265      |         613 |
|      18 | 0x004B      |          75 |
|      19 | 0x0DC0      |        3520 |
|      20 | 0x1D76      |        7542 |
|      21 | 0x0933      |        2355 |
|      22 | 0x1D77      |        7543 |
|      23 | 0x000F      |          15 |
|      24 | 0x000A      |          10 |
|      25 | 0x00B6      |         182 |
|      26 | 0x0046      |          70 |
|      27 | 0x0934      |        2356 |
|      28 | 0x1D78      |        7544 |
|      29 | 0x0028      |          40 |
|      30 | 0x00A3      |         163 |
|      31 | 0x005F      |          95 |
|      32 | 0x0018      |          24 |
|      33 | 0x1D79      |        7545 |
|      34 | 0x610DA     |      397530 |
|      35 | 0xFFFD644F  |  4294796367 |
|      36 | 0x7559      |       30041 |
|      37 | 0x0C8F      |        3215 |
|      38 | 0x00BD      |         189 |
|      39 | 0x1D7A      |        7546 |
|      40 | 0x0014      |          20 |
|      41 | 0x0015      |          21 |
|      42 | 0x1D7B      |        7547 |
|      43 | 0x0041      |          65 |
|      44 | 0x0055      |          85 |
|      45 | 0x005A      |          90 |
|      46 | 0x0039      |          57 |
|      47 | 0x007F      |         127 |
|      48 | 0x0078      |         120 |
|      49 | 0x0262      |         610 |
|      50 | 0x0003      |           3 |
|      51 | 0x0004      |           4 |
|      52 | 0x0005      |           5 |
|      53 | 0x0006      |           6 |
|      54 | 0x0008      |           8 |
|      55 | 0x001B      |          27 |
|      56 | 0x6819F     |      426399 |
|      57 | 0xFFFABB2D  |  4294621997 |
|      58 | 0x6E28      |       28200 |
|      59 | 0x14862     |       84066 |
|      60 | 0xFFFFD515  |  4294956309 |
|      61 | 0x4D51      |       19793 |
|      62 | 0x0116      |         278 |
|      63 | 0x13FC8     |       81864 |
|      64 | 0xFFFFCCF2  |  4294954226 |
|      65 | 0x4D2C      |       19756 |
|      66 | 0x0F9C      |        3996 |
|      67 | 0x1552C     |       87340 |
|      68 | 0xFFFFCDD0  |  4294954448 |
|      69 | 0x4FD6      |       20438 |
|      70 | 0x010F      |         271 |
|      71 | 0x14637     |       83511 |
|      72 | 0xFFFFDC9F  |  4294958239 |
|      73 | 0x4D98      |       19864 |
|      74 | 0x0141      |         321 |
|      75 | 0x16161     |       90465 |
|      76 | 0xFFFFD326  |  4294955814 |
|      77 | 0x4F8A      |       20362 |
|      78 | 0x00FE      |         254 |
|      79 | 0x13F31     |       81713 |
|      80 | 0xFFFF9FF7  |  4294942711 |
|      81 | 0x32A2      |       12962 |
|      82 | 0x0D33      |        3379 |
|      83 | 0x16245     |       90693 |
|      84 | 0xFFFFC920  |  4294953248 |
|      85 | 0x4F39      |       20281 |
|      86 | 0x081D      |        2077 |
|      87 | 0x6831A     |      426778 |
|      88 | 0xFFFAC273  |  4294623859 |
|      89 | 0x6F84      |       28548 |
|      90 | 0x0483      |        1155 |
|      91 | 0x026B      |         619 |
|      92 | 0x0096      |         150 |
|      93 | 0x0044      |          68 |
|      94 | 0x003D      |          61 |
|      95 | 0x03F2      |        1010 |
|      96 | 0x1D88      |        7560 |
|      97 | 0x1D89      |        7561 |
|      98 | 0x0050      |          80 |
|      99 | 0x00AC      |         172 |
|     100 | 0x003C      |          60 |
|     101 | 0x00B4      |         180 |
|     102 | 0x1D8A      |        7562 |
|     103 | 0x1D8B      |        7563 |
|     104 | 0x007C      |         124 |
|     105 | 0x1D8C      |        7564 |
|     106 | 0x00D1      |         209 |
|     107 | 0x0030      |          48 |

## String References

- **7542**: Placing the $1 in the fissure causes its vermilion surface to deepen multiple shades.
- **7543**: Pouring the $3 on the $1 as it begins to melt shrouds the cavern in a thick plume of breath-stealing vapor!
- **7544**: Zurko-Bazurko endeavors to steal the $3, but fails miserably.

## Events

### Event 65535

#### Metadata

| Field        | Value     |
|--------------|-----------|
| Entrypoint   | 0x0000    |
| Data Size    | 658 bytes |
| Instructions | 1         |

```
      00 01 02 03 04 05 06 07  08 09 0A 0B 0C 0D 0E 0F
      -- -- -- -- -- -- -- --  -- -- -- -- -- -- -- --
0000: 00 45 00 80 F0 FF FF 7F  F0 FF FF 7F 66 64 69 30  .E..........fdi0
0010: 01 80 55 00 80 F0 FF FF  7F F0 FF FF 7F 66 64 69  ..U..........fdi
0020: 30 1B 45 00 80 F0 FF FF  7F F0 FF FF 7F 66 64 6F  0.E..........fdo
0030: 30 01 80 55 00 80 F0 FF  FF 7F F0 FF FF 7F 66 64  0..U..........fd
0040: 6F 30 1B 45 00 80 F0 FF  FF 7F F0 FF FF 7F 66 64  o0.E..........fd
0050: 69 31 01 80 55 00 80 F0  FF FF 7F F0 FF FF 7F 66  i1..U..........f
0060: 64 69 31 1B 45 00 80 F0  FF FF 7F F0 FF FF 7F 66  di1.E..........f
0070: 64 6F 31 01 80 55 00 80  F0 FF FF 7F F0 FF FF 7F  do1..U..........
0080: 66 64 6F 31 1B 45 02 80  F0 FF FF 7F F0 FF FF 7F  fdo1.E..........
0090: 77 68 69 31 01 80 55 02  80 F0 FF FF 7F F0 FF FF  whi1..U.........
00A0: 7F 77 68 69 31 1B 45 02  80 F0 FF FF 7F F0 FF FF  .whi1.E.........
00B0: 7F 77 68 6F 31 01 80 55  02 80 F0 FF FF 7F F0 FF  .who1..U........
00C0: FF 7F 77 68 6F 31 1B 45  02 80 F0 FF FF 7F F0 FF  ..who1.E........
00D0: FF 7F 77 68 6F 32 01 80  55 02 80 F0 FF FF 7F F0  ..who2..U.......
00E0: FF FF 7F 77 68 6F 32 1B  45 02 80 F0 FF FF 7F F0  ...who2.E.......
00F0: FF FF 7F 77 68 6F 33 01  80 55 02 80 F0 FF FF 7F  ...who3..U......
0100: F0 FF FF 7F 77 68 6F 33  1B 62 03 80 F0 FF FF 7F  ....who3.b......
0110: F0 FF FF 7F 6D 61 69 6E  01 80 1C 04 80 45 00 80  ....main.....E..
0120: F0 FF FF 7F F0 FF FF 7F  66 64 6F 31 01 80 55 00  ........fdo1..U.
0130: 80 F0 FF FF 7F F0 FF FF  7F 66 64 6F 31 1B 45 00  .........fdo1.E.
0140: 80 F0 FF FF 7F F0 FF FF  7F 66 64 69 31 01 80 62  .........fdi1..b
0150: 05 80 F0 FF FF 7F F0 FF  FF 7F 6D 61 69 6E 01 80  ..........main..
0160: 1C 06 80 55 00 80 F0 FF  FF 7F F0 FF FF 7F 66 64  ...U..........fd
0170: 69 31 1B 45 00 80 F0 FF  FF 7F F0 FF FF 7F 62 6C  i1.E..........bl
0180: 6F 6E 01 80 45 02 80 F0  FF FF 7F F0 FF FF 7F 62  on..E..........b
0190: 6C 6F 6E 01 80 1B 45 02  80 F0 FF FF 7F F0 FF FF  lon...E.........
01A0: 7F 77 68 69 30 01 80 55  02 80 F0 FF FF 7F F0 FF  .whi0..U........
01B0: FF 7F 77 68 69 30 1B 45  02 80 F0 FF FF 7F F0 FF  ..whi0.E........
01C0: FF 7F 77 68 6F 30 01 80  55 02 80 F0 FF FF 7F F0  ..who0..U.......
01D0: FF FF 7F 77 68 6F 30 1B  45 07 80 F0 FF FF 7F F0  ...who0.E.......
01E0: FF FF 7F 65 66 6F 6E 01  80 55 07 80 F0 FF FF 7F  ...efon..U......
01F0: F0 FF FF 7F 65 66 6F 6E  1B 45 00 80 F0 FF FF 7F  ....efon.E......
0200: F0 FF FF 7F 66 64 69 73  01 80 1B 45 00 80 F0 FF  ....fdis...E....
0210: FF 7F F0 FF FF 7F 66 64  6F 73 01 80 55 00 80 F0  ......fdos..U...
0220: FF FF 7F F0 FF FF 7F 66  64 6F 73 1B 45 00 80 F0  .......fdos.E...
0230: FF FF 7F F0 FF FF 7F 66  64 69 66 01 80 1B 45 00  .......fdif...E.
0240: 80 F0 FF FF 7F F0 FF FF  7F 66 64 6F 66 01 80 55  .........fdof..U
0250: 00 80 F0 FF FF 7F F0 FF  FF 7F 66 64 6F 66 1B 45  ..........fdof.E
0260: 00 80 F0 FF FF 7F F0 FF  FF 7F 66 64 69 70 01 80  ..........fdip..
0270: 1B 45 00 80 F0 FF FF 7F  F0 FF FF 7F 66 64 6F 70  .E..........fdop
0280: 01 80 55 00 80 F0 FF FF  7F F0 FF FF 7F 66 64 6F  ..U..........fdo
0290: 70 1B                                             p.              
```

#### Opcodes

```
  0: 0x0000 [0x00] END_REQSTACK()
```

#### Data or dead code:

```
# Dead code (unreachable instructions):
     0x0001 [0x45] LOAD_SCHEDULED_TASK: Load scheduler "fdi0" with entities [LocalPlayer, LocalPlayer], work=[200*, 0*]
     0x0012 [0x55] WAIT_LOAD_SCHEDULER: Wait for scheduler "fdi0" with entities [LocalPlayer, LocalPlayer], work=200*
     0x0021 [0x1B] RETURN
     0x0022 [0x45] LOAD_SCHEDULED_TASK: Load scheduler "fdo0" with entities [LocalPlayer, LocalPlayer], work=[200*, 0*]
     0x0033 [0x55] WAIT_LOAD_SCHEDULER: Wait for scheduler "fdo0" with entities [LocalPlayer, LocalPlayer], work=200*
     0x0042 [0x1B] RETURN
     0x0043 [0x45] LOAD_SCHEDULED_TASK: Load scheduler "fdi1" with entities [LocalPlayer, LocalPlayer], work=[200*, 0*]
     0x0054 [0x55] WAIT_LOAD_SCHEDULER: Wait for scheduler "fdi1" with entities [LocalPlayer, LocalPlayer], work=200*
     0x0063 [0x1B] RETURN
     0x0064 [0x45] LOAD_SCHEDULED_TASK: Load scheduler "fdo1" with entities [LocalPlayer, LocalPlayer], work=[200*, 0*]
     0x0075 [0x55] WAIT_LOAD_SCHEDULER: Wait for scheduler "fdo1" with entities [LocalPlayer, LocalPlayer], work=200*
     0x0084 [0x1B] RETURN
     0x0085 [0x45] LOAD_SCHEDULED_TASK: Load scheduler "whi1" with entities [LocalPlayer, LocalPlayer], work=[201*, 0*]
     0x0096 [0x55] WAIT_LOAD_SCHEDULER: Wait for scheduler "whi1" with entities [LocalPlayer, LocalPlayer], work=201*
     0x00A5 [0x1B] RETURN
     0x00A6 [0x45] LOAD_SCHEDULED_TASK: Load scheduler "who1" with entities [LocalPlayer, LocalPlayer], work=[201*, 0*]
     0x00B7 [0x55] WAIT_LOAD_SCHEDULER: Wait for scheduler "who1" with entities [LocalPlayer, LocalPlayer], work=201*
     0x00C6 [0x1B] RETURN
     0x00C7 [0x45] LOAD_SCHEDULED_TASK: Load scheduler "who2" with entities [LocalPlayer, LocalPlayer], work=[201*, 0*]
     0x00D8 [0x55] WAIT_LOAD_SCHEDULER: Wait for scheduler "who2" with entities [LocalPlayer, LocalPlayer], work=201*
     0x00E7 [0x1B] RETURN
     0x00E8 [0x45] LOAD_SCHEDULED_TASK: Load scheduler "who3" with entities [LocalPlayer, LocalPlayer], work=[201*, 0*]
     0x00F9 [0x55] WAIT_LOAD_SCHEDULER: Wait for scheduler "who3" with entities [LocalPlayer, LocalPlayer], work=201*
     0x0108 [0x1B] RETURN
     0x0109 [0x62] LOAD_EVENT_SCHEDULER: Load scheduler "main" with entities [LocalPlayer, LocalPlayer], work=[1*, 0*]
     0x011A [0x1C] WAIT(45* ticks)
     0x011D [0x45] LOAD_SCHEDULED_TASK: Load scheduler "fdo1" with entities [LocalPlayer, LocalPlayer], work=[200*, 0*]
     0x012E [0x55] WAIT_LOAD_SCHEDULER: Wait for scheduler "fdo1" with entities [LocalPlayer, LocalPlayer], work=200*
     0x013D [0x1B] RETURN
     0x013E [0x45] LOAD_SCHEDULED_TASK: Load scheduler "fdi1" with entities [LocalPlayer, LocalPlayer], work=[200*, 0*]
     0x014F [0x62] LOAD_EVENT_SCHEDULER: Load scheduler "main" with entities [LocalPlayer, LocalPlayer], work=[2*, 0*]
     0x0160 [0x1C] WAIT(30* ticks)
     0x0163 [0x55] WAIT_LOAD_SCHEDULER: Wait for scheduler "fdi1" with entities [LocalPlayer, LocalPlayer], work=200*
     0x0172 [0x1B] RETURN
     0x0173 [0x45] LOAD_SCHEDULED_TASK: Load scheduler "blon" with entities [LocalPlayer, LocalPlayer], work=[200*, 0*]
     0x0184 [0x45] LOAD_SCHEDULED_TASK: Load scheduler "blon" with entities [LocalPlayer, LocalPlayer], work=[201*, 0*]
     0x0195 [0x1B] RETURN
     0x0196 [0x45] LOAD_SCHEDULED_TASK: Load scheduler "whi0" with entities [LocalPlayer, LocalPlayer], work=[201*, 0*]
     0x01A7 [0x55] WAIT_LOAD_SCHEDULER: Wait for scheduler "whi0" with entities [LocalPlayer, LocalPlayer], work=201*
     0x01B6 [0x1B] RETURN
     0x01B7 [0x45] LOAD_SCHEDULED_TASK: Load scheduler "who0" with entities [LocalPlayer, LocalPlayer], work=[201*, 0*]
     0x01C8 [0x55] WAIT_LOAD_SCHEDULER: Wait for scheduler "who0" with entities [LocalPlayer, LocalPlayer], work=201*
     0x01D7 [0x1B] RETURN
     0x01D8 [0x45] LOAD_SCHEDULED_TASK: Load scheduler "efon" with entities [LocalPlayer, LocalPlayer], work=[215*, 0*]
     0x01E9 [0x55] WAIT_LOAD_SCHEDULER: Wait for scheduler "efon" with entities [LocalPlayer, LocalPlayer], work=215*
     0x01F8 [0x1B] RETURN
     0x01F9 [0x45] LOAD_SCHEDULED_TASK: Load scheduler "fdis" with entities [LocalPlayer, LocalPlayer], work=[200*, 0*]
     0x020A [0x1B] RETURN
     0x020B [0x45] LOAD_SCHEDULED_TASK: Load scheduler "fdos" with entities [LocalPlayer, LocalPlayer], work=[200*, 0*]
     0x021C [0x55] WAIT_LOAD_SCHEDULER: Wait for scheduler "fdos" with entities [LocalPlayer, LocalPlayer], work=200*
     0x022B [0x1B] RETURN
     0x022C [0x45] LOAD_SCHEDULED_TASK: Load scheduler "fdif" with entities [LocalPlayer, LocalPlayer], work=[200*, 0*]
     0x023D [0x1B] RETURN
     0x023E [0x45] LOAD_SCHEDULED_TASK: Load scheduler "fdof" with entities [LocalPlayer, LocalPlayer], work=[200*, 0*]
     0x024F [0x55] WAIT_LOAD_SCHEDULER: Wait for scheduler "fdof" with entities [LocalPlayer, LocalPlayer], work=200*
     0x025E [0x1B] RETURN
     0x025F [0x45] LOAD_SCHEDULED_TASK: Load scheduler "fdip" with entities [LocalPlayer, LocalPlayer], work=[200*, 0*]
     0x0270 [0x1B] RETURN
     0x0271 [0x45] LOAD_SCHEDULED_TASK: Load scheduler "fdop" with entities [LocalPlayer, LocalPlayer], work=[200*, 0*]
     0x0282 [0x55] WAIT_LOAD_SCHEDULER: Wait for scheduler "fdop" with entities [LocalPlayer, LocalPlayer], work=200*
     0x0291 [0x1B] RETURN
```

### Event 102

#### Metadata

| Field        | Value     |
|--------------|-----------|
| Entrypoint   | 0x0292    |
| Data Size    | 959 bytes |
| Instructions | 149       |

```
      00 01 02 03 04 05 06 07  08 09 0A 0B 0C 0D 0E 0F
      -- -- -- -- -- -- -- --  -- -- -- -- -- -- -- --
0290:       42 1A 64 00 46 01  38 08 80 27 10 69 D1 10    B.d.F.8..'.i..
02A0: 01 04 29 10 69 D1 10 01  09 92 01 69 D1 10 01 94  ..).i......i....
02B0: 01 69 D1 10 01 BA 69 D1  10 01 09 80 0A 80 0B 80  .i....i.........
02C0: 0C 80 BA F0 FF FF 7F 0D  80 0E 80 0F 80 10 80 4E  ...............N
02D0: 01 69 D1 10 01 4A F0 FF  FF 7F 68 D1 10 01 80 69  .i...J....h....i
02E0: D1 10 01 80 6A D1 10 01  80 F0 FF FF 7F 45 11 80  ....j........E..
02F0: F0 FF FF 7F F0 FF FF 7F  73 30 31 32 01 80 1A 43  ........s012...C
0300: 00 1C 00 80 27 10 F0 FF  FF 7F 04 1C 12 80 52 11  ....'.........R.
0310: 80 F0 FF FF 7F F0 FF FF  7F 73 30 31 32 45 11 80  .........s012E..
0320: F0 FF FF 7F F0 FF FF 7F  73 30 31 33 01 80 03 03  ........s013....
0330: 10 13 80 48 14 80 23 03  02 10 15 80 03 03 10 13  ...H..#.........
0340: 80 48 16 80 23 27 10 F0  FF FF 7F 05 1C 17 80 52  .H..#'.........R
0350: 11 80 F0 FF FF 7F F0 FF  FF 7F 73 30 31 33 45 11  ..........s013E.
0360: 80 F0 FF FF 7F F0 FF FF  7F 73 30 31 34 01 80 1C  .........s014...
0370: 18 80 1A B7 01 52 11 80  F0 FF FF 7F F0 FF FF 7F  .....R..........
0380: 73 30 31 34 1A E2 05 1C  17 80 4E 00 69 D1 10 01  s014......N.i...
0390: 29 10 69 D1 10 01 0A 4A  69 D1 10 01 68 D1 10 01  ).i....Ji...h...
03A0: 6F 70 C4 00 19 80 69 D1  10 01 68 D1 10 01 1C 1A  op....i...h.....
03B0: 80 45 11 80 F0 FF FF 7F  F0 FF FF 7F 73 30 31 35  .E..........s015
03C0: 01 80 1A 96 01 03 04 10  1B 80 48 1C 80 23 4A F0  ..........H..#J.
03D0: FF FF 7F 69 D1 10 01 6F  70 1C 1D 80 4A 69 D1 10  ...i...op...Ji..
03E0: 01 F0 FF FF 7F 6F 70 5C  00 1E 80 5C 01 1E 80 1C  .....op\...\....
03F0: 1F 80 9A 52 11 80 F0 FF  FF 7F F0 FF FF 7F 73 30  ...R..........s0
0400: 31 35 45 11 80 F0 FF FF  7F F0 FF FF 7F 73 30 31  15E..........s01
0410: 36 01 80 6E 69 D1 10 01  20 80 99 69 D1 10 01 2B  6..ni... ..i...+
0420: 69 D1 10 01 21 80 23 27  10 6A D1 10 01 04 92 01  i...!.#'.j......
0430: 6A D1 10 01 94 01 6A D1  10 01 BA 6A D1 10 01 22  j.....j....j..."
0440: 80 23 80 24 80 25 80 1C  04 80 52 11 80 F0 FF FF  .#.$.%....R.....
0450: 7F F0 FF FF 7F 73 30 31  36 1A 03 06 02 01 00 03  .....s016.......
0460: 80 00 78 04 45 11 80 F0  FF FF 7F F0 FF FF 7F 73  ..x.E..........s
0470: 30 31 38 01 80 01 89 04  45 11 80 F0 FF FF 7F F0  018.....E.......
0480: FF FF 7F 73 30 31 37 01  80 66 26 80 69 D1 10 01  ...s017..f&.i...
0490: 69 D1 10 01 74 6C 6B 30  2B 69 D1 10 01 27 80 23  i...tlk0+i...'.#
04A0: 1C 06 80 66 26 80 69 D1  10 01 69 D1 10 01 74 6C  ...f&.i...i...tl
04B0: 6B 31 1C 06 80 4A 69 D1  10 01 6A D1 10 01 6F 70  k1...Ji...j...op
04C0: 1C 28 80 6E 69 D1 10 01  29 80 99 69 D1 10 01 1C  .(.ni...)..i....
04D0: 17 80 52 11 80 F0 FF FF  7F F0 FF FF 7F 73 30 31  ..R..........s01
04E0: 38 52 11 80 F0 FF FF 7F  F0 FF FF 7F 73 30 31 37  8R..........s017
04F0: 45 11 80 F0 FF FF 7F F0  FF FF 7F 73 30 31 39 01  E..........s019.
0500: 80 5D 01 80 01 80 2B 69  D1 10 01 2A 80 23 1C 06  .]....+i...*.#..
0510: 80 27 10 6A D1 10 01 09  52 11 80 F0 FF FF 7F F0  .'.j....R.......
0520: FF FF 7F 73 30 31 39 1A  03 06 02 01 00 03 80 00  ...s019.........
0530: 46 05 45 11 80 F0 FF FF  7F F0 FF FF 7F 73 30 32  F.E..........s02
0540: 31 01 80 01 57 05 45 11  80 F0 FF FF 7F F0 FF FF  1...W.E.........
0550: 7F 73 30 32 30 01 80 1C  2B 80 27 10 69 D1 10 01  .s020...+.'.i...
0560: 0B 1C 2C 80 52 11 80 F0  FF FF 7F F0 FF FF 7F 73  ..,.R..........s
0570: 30 32 31 52 11 80 F0 FF  FF 7F F0 FF FF 7F 73 30  021R..........s0
0580: 32 30 45 11 80 F0 FF FF  7F F0 FF FF 7F 73 30 32  20E..........s02
0590: 32 01 80 1C 2D 80 1A 64  00 1C 06 80 52 11 80 F0  2...-..d....R...
05A0: FF FF 7F F0 FF FF 7F 73  30 32 32 5C 00 01 80 5C  .......s022\...\
05B0: 01 01 80 5C 02 2E 80 5C  03 2E 80 9A 5D 2F 80 30  ...\...\....]/.0
05C0: 80 1C 17 80 AB 11 01 80  1C 03 80 AB 0A 46 00 45  .............F.E
05D0: 00 80 F0 FF FF 7F F0 FF  FF 7F 66 64 69 32 01 80  ..........fdi2..
05E0: 21 00 45 31 80 F0 FF FF  7F F0 FF FF 7F 30 30 62  !.E1.........00b
05F0: 6C 01 80 55 31 80 F0 FF  FF 7F F0 FF FF 7F 30 30  l..U1.........00
0600: 62 6C 1B 29 10 F0 FF FF  7F 02 02 02 10 32 80 80  bl.).........2..
0610: 18 06 05 00 00 01 50 06  02 02 10 33 80 80 26 06  ......P....3..&.
0620: 05 00 00 01 50 06 02 02  10 34 80 80 34 06 05 01  ....P....4..4...
0630: 00 01 50 06 02 02 10 35  80 80 42 06 05 01 00 01  ..P....5..B.....
0640: 50 06 02 02 10 36 80 80  50 06 05 00 00 01 50 06  P....6..P.....P.
0650: 1B                                                .               
```

#### Opcodes

```
  0: 0x0292 [0x42] SET_CLI_EVENT_CANCEL_DATA()
  1: 0x0293 [0x1A] CALL_SUBROUTINE(address=0x0064)
  2: 0x0296 [0x46] CAMERA_CONTROL: Disable user control
  3: 0x0298 [0x38] SET_CLIENT_EVENT_MODE(mode=19*)
  4: 0x029B [0x27] REQ_SET(priority=0x10, entity_id=Unnamed NPC (ID: 17879401/0x0110D169), tag_num=0x04)
  5: 0x02A2 [0x29] REQ_SET_WAIT(priority=0x10, entity_id=Unnamed NPC (ID: 17879401/0x0110D169), tag_num=0x09)
  6: 0x02A9 [0x92] Unnamed NPC (ID: 17879401/0x0110D169)->Render.Flags3 ^= 0x01
  7: 0x02AF [0x94] Unnamed NPC (ID: 17879401/0x0110D169)->Render.Flags3 ^= 0x01
  8: 0x02B5 [0xBA] SET_ENTITY_POSITION(entity_id=Unnamed NPC (ID: 17879401/0x0110D169), pos_x=388.209*, pos_z=-155.474*, pos_y=29.999*, direction=151.0°*)
  9: 0x02C2 [0xBA] SET_ENTITY_POSITION(entity_id=LocalPlayer, pos_x=396.866*, pos_z=-166.714*, pos_y=30.013*, direction=209.0°*)
 10: 0x02CF [0x4E] SET_ENTITY_HIDE_FLAG: Hide Unnamed NPC (ID: 17879401/0x0110D169)
 11: 0x02D5 [0x4A] LocalPlayer looks at Molten Rift (ID: 17879400/0x0110D168)
 12: 0x02DE [0x80] LOAD_WAIT(entity=Unnamed NPC (ID: 17879401/0x0110D169))
 13: 0x02E3 [0x80] LOAD_WAIT(entity=Staumarth (ID: 17879402/0x0110D16A))
 14: 0x02E8 [0x80] LOAD_WAIT(entity=LocalPlayer)
 15: 0x02ED [0x45] LOAD_SCHEDULED_TASK: Load scheduler "s012" with entities [LocalPlayer, LocalPlayer], work=[613*, 0*]
 16: 0x02FE [0x1A] CALL_SUBROUTINE(address=0x0043)
 17: 0x0301 [0x1C] WAIT(200* ticks)
 18: 0x0304 [0x27] REQ_SET(priority=0x10, entity_id=LocalPlayer, tag_num=0x04)
 19: 0x030B [0x1C] WAIT(75* ticks)
 20: 0x030E [0x52] END_LOAD_SCHEDULER: End scheduler "s012" with entities [LocalPlayer, LocalPlayer], work=613*
 21: 0x031D [0x45] LOAD_SCHEDULED_TASK: Load scheduler "s013" with entities [LocalPlayer, LocalPlayer], work=[613*, 0*]
 22: 0x032E [0x03] Work_Zone[3] = 3520*
 23: 0x0333 [0x48] [System] [7542*]:
    → "Placing the $1 in the fissure causes its vermilion surface to deepen multiple shades."
 24: 0x0336 [0x23] WAIT_FOR_DIALOG_INTERACTION
 25: 0x0337 [0x03] Work_Zone[2] = 2355*
 26: 0x033C [0x03] Work_Zone[3] = 3520*
 27: 0x0341 [0x48] [System] [7543*]:
    → "Pouring the $3 on the $1 as it begins to melt shrouds the cavern in a thick plume of breath-stealing vapor!"
 28: 0x0344 [0x23] WAIT_FOR_DIALOG_INTERACTION
 29: 0x0345 [0x27] REQ_SET(priority=0x10, entity_id=LocalPlayer, tag_num=0x05)
 30: 0x034C [0x1C] WAIT(15* ticks)
 31: 0x034F [0x52] END_LOAD_SCHEDULER: End scheduler "s013" with entities [LocalPlayer, LocalPlayer], work=613*
 32: 0x035E [0x45] LOAD_SCHEDULED_TASK: Load scheduler "s014" with entities [LocalPlayer, LocalPlayer], work=[613*, 0*]
 33: 0x036F [0x1C] WAIT(10* ticks)
 34: 0x0372 [0x1A] CALL_SUBROUTINE(address=0x01B7)
 35: 0x0375 [0x52] END_LOAD_SCHEDULER: End scheduler "s014" with entities [LocalPlayer, LocalPlayer], work=613*
 36: 0x0384 [0x1A] CALL_SUBROUTINE(address=0x05E2)
 37: 0x0387 [0x1C] WAIT(15* ticks)
 38: 0x038A [0x4E] SET_ENTITY_HIDE_FLAG: Show Unnamed NPC (ID: 17879401/0x0110D169)
 39: 0x0390 [0x29] REQ_SET_WAIT(priority=0x10, entity_id=Unnamed NPC (ID: 17879401/0x0110D169), tag_num=0x0A)
 40: 0x0397 [0x4A] Unnamed NPC (ID: 17879401/0x0110D169) looks at Molten Rift (ID: 17879400/0x0110D168)
 41: 0x03A0 [0x6F] WAIT_FRAME_DELAY: Yield until WaitTime reaches zero
 42: 0x03A1 [0x70] WAIT_ENTITY_RENDER_FLAG: Wait while EventEntity->Render.Flags3 bit 2 is set (cancel turn if not)
 43: 0x03A2 [0xC4] SCHEDULE_MAGIC_CASTING_ALT (arg=16): Unnamed NPC (ID: 17879401/0x0110D169) casts magic 182* on Molten Rift (ID: 17879400/0x0110D168)
 44: 0x03AE [0x1C] WAIT(70* ticks)
 45: 0x03B1 [0x45] LOAD_SCHEDULED_TASK: Load scheduler "s015" with entities [LocalPlayer, LocalPlayer], work=[613*, 0*]
 46: 0x03C2 [0x1A] CALL_SUBROUTINE(address=0x0196)
 47: 0x03C5 [0x03] Work_Zone[4] = 2356*
 48: 0x03CA [0x48] [System] [7544*]:
    → "Zurko-Bazurko endeavors to steal the $3, but fails miserably."
 49: 0x03CD [0x23] WAIT_FOR_DIALOG_INTERACTION
 50: 0x03CE [0x4A] LocalPlayer looks at Unnamed NPC (ID: 17879401/0x0110D169)
 51: 0x03D7 [0x6F] WAIT_FRAME_DELAY: Yield until WaitTime reaches zero
 52: 0x03D8 [0x70] WAIT_ENTITY_RENDER_FLAG: Wait while EventEntity->Render.Flags3 bit 2 is set (cancel turn if not)
 53: 0x03D9 [0x1C] WAIT(40* ticks)
 54: 0x03DC [0x4A] Unnamed NPC (ID: 17879401/0x0110D169) looks at LocalPlayer
 55: 0x03E5 [0x6F] WAIT_FRAME_DELAY: Yield until WaitTime reaches zero
 56: 0x03E6 [0x70] WAIT_ENTITY_RENDER_FLAG: Wait while EventEntity->Render.Flags3 bit 2 is set (cancel turn if not)
 57: 0x03E7 [0x5C] MUSIC_CONTROL: Set Idle (Day) music to song 163*
 58: 0x03EB [0x5C] MUSIC_CONTROL: Set Idle (Night) music to song 163*
 59: 0x03EF [0x1C] WAIT(95* ticks)
 60: 0x03F2 [0x9A] WAIT_MUSIC_SERVER()
 61: 0x03F3 [0x52] END_LOAD_SCHEDULER: End scheduler "s015" with entities [LocalPlayer, LocalPlayer], work=613*
 62: 0x0402 [0x45] LOAD_SCHEDULED_TASK: Load scheduler "s016" with entities [LocalPlayer, LocalPlayer], work=[613*, 0*]
 63: 0x0413 [0x6E] Unnamed NPC (ID: 17879401/0x0110D169) uses emote 24*
 64: 0x041A [0x99] Wait for Unnamed NPC (ID: 17879401/0x0110D169) animation to complete
 65: 0x041F [0x2B] Unnamed NPC (ID: 17879401/0x0110D169) [7545*]:
    → "The darkness that dwells deep within the Zurk's soul began to broil and churn with ill portentaru, so he's come to see how you fare, pioneer."
 66: 0x0426 [0x23] WAIT_FOR_DIALOG_INTERACTION
 67: 0x0427 [0x27] REQ_SET(priority=0x10, entity_id=Staumarth (ID: 17879402/0x0110D16A), tag_num=0x04)
 68: 0x042E [0x92] Staumarth (ID: 17879402/0x0110D16A)->Render.Flags3 ^= 0x01
 69: 0x0434 [0x94] Staumarth (ID: 17879402/0x0110D16A)->Render.Flags3 ^= 0x01
 70: 0x043A [0xBA] SET_ENTITY_POSITION(entity_id=Staumarth (ID: 17879402/0x0110D16A), pos_x=397.530*, pos_z=-170.929*, pos_y=30.041*, direction=282.6°*)
 71: 0x0447 [0x1C] WAIT(45* ticks)
 72: 0x044A [0x52] END_LOAD_SCHEDULER: End scheduler "s016" with entities [LocalPlayer, LocalPlayer], work=613*
 73: 0x0459 [0x1A] CALL_SUBROUTINE(address=0x0603)
 74: 0x045C [0x02] IF !(ExtData[1]->WorkLocal[1] == 1*) GOTO 0x0478
 75: 0x0464 [0x45] LOAD_SCHEDULED_TASK: Load scheduler "s018" with entities [LocalPlayer, LocalPlayer], work=[613*, 0*]
 76: 0x0475 [0x01] GOTO 0x0489
 77: 0x0478 [0x45] LOAD_SCHEDULED_TASK: Load scheduler "s017" with entities [LocalPlayer, LocalPlayer], work=[613*, 0*]

SUBROUTINE_0489:
 78: 0x0489 [0x66] LOAD_EXT_SCHEDULER_MAIN: Load scheduler "tlk0" with entities [Unnamed NPC (ID: 17879401/0x0110D169), Unnamed NPC (ID: 17879401/0x0110D169)], work=189*
 79: 0x0498 [0x2B] Unnamed NPC (ID: 17879401/0x0110D169) [7546*]:
    → "However, it seems his fatherly-watherly concerns were unfounded and he needs not resort to enacting Operation: Marjami. Since such is the case, the Zurk bids you ad--"
 80: 0x049F [0x23] WAIT_FOR_DIALOG_INTERACTION
 81: 0x04A0 [0x1C] WAIT(30* ticks)
 82: 0x04A3 [0x66] LOAD_EXT_SCHEDULER_MAIN: Load scheduler "tlk1" with entities [Unnamed NPC (ID: 17879401/0x0110D169), Unnamed NPC (ID: 17879401/0x0110D169)], work=189*
 83: 0x04B2 [0x1C] WAIT(30* ticks)
 84: 0x04B5 [0x4A] Unnamed NPC (ID: 17879401/0x0110D169) looks at Staumarth (ID: 17879402/0x0110D16A)
 85: 0x04BE [0x6F] WAIT_FRAME_DELAY: Yield until WaitTime reaches zero
 86: 0x04BF [0x70] WAIT_ENTITY_RENDER_FLAG: Wait while EventEntity->Render.Flags3 bit 2 is set (cancel turn if not)
 87: 0x04C0 [0x1C] WAIT(20* ticks)
 88: 0x04C3 [0x6E] Unnamed NPC (ID: 17879401/0x0110D169) uses emote 21*
 89: 0x04CA [0x99] Wait for Unnamed NPC (ID: 17879401/0x0110D169) animation to complete
 90: 0x04CF [0x1C] WAIT(15* ticks)
 91: 0x04D2 [0x52] END_LOAD_SCHEDULER: End scheduler "s018" with entities [LocalPlayer, LocalPlayer], work=613*
 92: 0x04E1 [0x52] END_LOAD_SCHEDULER: End scheduler "s017" with entities [LocalPlayer, LocalPlayer], work=613*
 93: 0x04F0 [0x45] LOAD_SCHEDULED_TASK: Load scheduler "s019" with entities [LocalPlayer, LocalPlayer], work=[613*, 0*]
 94: 0x0501 [0x5D] SET_MUSIC_VOLUME(volume=0*, fade_time=0*)
 95: 0x0506 [0x2B] Unnamed NPC (ID: 17879401/0x0110D169) [7547*]:
    → "<Player>! Behind you!"
 96: 0x050D [0x23] WAIT_FOR_DIALOG_INTERACTION
 97: 0x050E [0x1C] WAIT(30* ticks)
 98: 0x0511 [0x27] REQ_SET(priority=0x10, entity_id=Staumarth (ID: 17879402/0x0110D16A), tag_num=0x09)
 99: 0x0518 [0x52] END_LOAD_SCHEDULER: End scheduler "s019" with entities [LocalPlayer, LocalPlayer], work=613*
100: 0x0527 [0x1A] CALL_SUBROUTINE(address=0x0603)
101: 0x052A [0x02] IF !(ExtData[1]->WorkLocal[1] == 1*) GOTO 0x0546
102: 0x0532 [0x45] LOAD_SCHEDULED_TASK: Load scheduler "s021" with entities [LocalPlayer, LocalPlayer], work=[613*, 0*]
103: 0x0543 [0x01] GOTO 0x0557
104: 0x0546 [0x45] LOAD_SCHEDULED_TASK: Load scheduler "s020" with entities [LocalPlayer, LocalPlayer], work=[613*, 0*]

SUBROUTINE_0557:
105: 0x0557 [0x1C] WAIT(65* ticks)
106: 0x055A [0x27] REQ_SET(priority=0x10, entity_id=Unnamed NPC (ID: 17879401/0x0110D169), tag_num=0x0B)
107: 0x0561 [0x1C] WAIT(85* ticks)
108: 0x0564 [0x52] END_LOAD_SCHEDULER: End scheduler "s021" with entities [LocalPlayer, LocalPlayer], work=613*
109: 0x0573 [0x52] END_LOAD_SCHEDULER: End scheduler "s020" with entities [LocalPlayer, LocalPlayer], work=613*
110: 0x0582 [0x45] LOAD_SCHEDULED_TASK: Load scheduler "s022" with entities [LocalPlayer, LocalPlayer], work=[613*, 0*]
111: 0x0593 [0x1C] WAIT(90* ticks)
112: 0x0596 [0x1A] CALL_SUBROUTINE(address=0x0064)
113: 0x0599 [0x1C] WAIT(30* ticks)
114: 0x059C [0x52] END_LOAD_SCHEDULER: End scheduler "s022" with entities [LocalPlayer, LocalPlayer], work=613*
115: 0x05AB [0x5C] MUSIC_CONTROL: Set Idle (Day) music to song 0*
116: 0x05AF [0x5C] MUSIC_CONTROL: Set Idle (Night) music to song 0*
117: 0x05B3 [0x5C] MUSIC_CONTROL: Set Combat (Solo) music to song 57*
118: 0x05B7 [0x5C] MUSIC_CONTROL: Set Combat (Party) music to song 57*
119: 0x05BB [0x9A] WAIT_MUSIC_SERVER()
120: 0x05BC [0x5D] SET_MUSIC_VOLUME(volume=127*, fade_time=120*)
121: 0x05C1 [0x1C] WAIT(15* ticks)
122: 0x05C4 [0xAB] EventEntity->DespawnValue = 0* // Set despawn value
123: 0x05C8 [0x1C] WAIT(1* ticks)
124: 0x05CB [0xAB] EventEntity->UnknownFlag = 0 // Disable unknown flag
125: 0x05CD [0x46] CAMERA_CONTROL: Restore default settings
126: 0x05CF [0x45] LOAD_SCHEDULED_TASK: Load scheduler "fdi2" with entities [LocalPlayer, LocalPlayer], work=[200*, 0*]
127: 0x05E0 [0x21] END_EVENT
128: 0x05E1 [0x00] END_REQSTACK()

SUBROUTINE_05E2:
129: 0x05E2 [0x45] LOAD_SCHEDULED_TASK: Load scheduler "00bl" with entities [LocalPlayer, LocalPlayer], work=[610*, 0*]
130: 0x05F3 [0x55] WAIT_LOAD_SCHEDULER: Wait for scheduler "00bl" with entities [LocalPlayer, LocalPlayer], work=610*
131: 0x0602 [0x1B] RETURN

SUBROUTINE_0603:
132: 0x0603 [0x29] REQ_SET_WAIT(priority=0x10, entity_id=LocalPlayer, tag_num=0x02)
133: 0x060A [0x02] IF !(Work_Zone[2] == 3*) GOTO 0x0618
134: 0x0612 [0x05] ExtData[1]->WorkLocal[0] = 1
135: 0x0615 [0x01] GOTO 0x0650
136: 0x0618 [0x02] IF !(Work_Zone[2] == 4*) GOTO 0x0626
137: 0x0620 [0x05] ExtData[1]->WorkLocal[0] = 1
138: 0x0623 [0x01] GOTO 0x0650
139: 0x0626 [0x02] IF !(Work_Zone[2] == 5*) GOTO 0x0634
140: 0x062E [0x05] ExtData[1]->WorkLocal[1] = 1
141: 0x0631 [0x01] GOTO 0x0650
142: 0x0634 [0x02] IF !(Work_Zone[2] == 6*) GOTO 0x0642
143: 0x063C [0x05] ExtData[1]->WorkLocal[1] = 1
144: 0x063F [0x01] GOTO 0x0650
145: 0x0642 [0x02] IF !(Work_Zone[2] == 8*) GOTO 0x0650
146: 0x064A [0x05] ExtData[1]->WorkLocal[0] = 1
147: 0x064D [0x01] GOTO 0x0650

SUBROUTINE_0650:
148: 0x0650 [0x1B] RETURN
```

### Event 103

#### Metadata

| Field        | Value      |
|--------------|------------|
| Entrypoint   | 0x0651     |
| Data Size    | 1629 bytes |
| Instructions | 206        |

```
      00 01 02 03 04 05 06 07  08 09 0A 0B 0C 0D 0E 0F
      -- -- -- -- -- -- -- --  -- -- -- -- -- -- -- --
0650:    42 03 02 00 02 10 45  00 80 F0 FF FF 7F F0 FF   B.....E........
0660: FF 7F 66 64 6F 31 01 80  55 00 80 F0 FF FF 7F F0  ..fdo1..U.......
0670: FF FF 7F 66 64 6F 31 46  01 38 37 80 4E 00 F0 FF  ...fdo1F.87.N...
0680: FF 7F 27 08 6B D1 10 01  05 27 08 6C D1 10 01 07  ..'.k....'.l....
0690: 27 08 6D D1 10 01 08 27  08 6E D1 10 01 0A 27 08  '.m....'.n....'.
06A0: 6F D1 10 01 08 27 08 70  D1 10 01 06 27 08 71 D1  o....'.p....'.q.
06B0: 10 01 06 27 08 72 D1 10  01 06 27 08 73 D1 10 01  ...'.r....'.s...
06C0: 07 27 08 74 D1 10 01 08  27 08 75 D1 10 01 08 27  .'.t....'.u....'
06D0: 08 76 D1 10 01 08 94 01  6B D1 10 01 94 01 6C D1  .v......k.....l.
06E0: 10 01 94 01 6D D1 10 01  94 01 6E D1 10 01 94 01  ....m.....n.....
06F0: 6F D1 10 01 94 01 70 D1  10 01 94 01 71 D1 10 01  o.....p.....q...
0700: 94 01 72 D1 10 01 94 01  73 D1 10 01 94 01 74 D1  ..r.....s.....t.
0710: 10 01 94 01 75 D1 10 01  94 01 76 D1 10 01 94 01  ....u.....v.....
0720: F0 FF FF 7F BA 6B D1 10  01 38 80 39 80 3A 80 01  .....k...8.9.:..
0730: 80 BA 6C D1 10 01 3B 80  3C 80 3D 80 3E 80 BA 70  ..l...;.<.=.>..p
0740: D1 10 01 3B 80 3C 80 3D  80 3E 80 BA 6D D1 10 01  ...;.<.=.>..m...
0750: 3F 80 40 80 41 80 42 80  BA 6E D1 10 01 43 80 44  ?.@.A.B..n...C.D
0760: 80 45 80 46 80 BA 6F D1  10 01 47 80 48 80 49 80  .E.F..o...G.H.I.
0770: 4A 80 BA 71 D1 10 01 4B  80 4C 80 4D 80 4E 80 BA  J..q...K.L.M.N..
0780: 72 D1 10 01 4B 80 4C 80  4D 80 4E 80 BA 73 D1 10  r...K.L.M.N..s..
0790: 01 4F 80 50 80 51 80 52  80 BA 74 D1 10 01 53 80  .O.P.Q.R..t...S.
07A0: 54 80 55 80 56 80 BA F0  FF FF 7F 57 80 58 80 59  T.U.V......W.X.Y
07B0: 80 5A 80 27 08 6D D1 10  01 02 27 08 6E D1 10 01  .Z.'.m....'.n...
07C0: 02 27 08 6F D1 10 01 02  27 08 70 D1 10 01 02 27  .'.o....'.p....'
07D0: 08 71 D1 10 01 02 27 08  72 D1 10 01 02 27 08 73  .q....'.r....'.s
07E0: D1 10 01 02 27 08 74 D1  10 01 02 27 08 75 D1 10  ....'.t....'.u..
07F0: 01 02 27 08 76 D1 10 01  02 4A 73 D1 10 01 6E D1  ..'.v....Js...n.
0800: 10 01 4A 6D D1 10 01 74  D1 10 01 4A 6E D1 10 01  ..Jm...t...Jn...
0810: 74 D1 10 01 4A 6F D1 10  01 74 D1 10 01 80 6B D1  t...Jo...t....k.
0820: 10 01 80 6C D1 10 01 80  6D D1 10 01 80 6E D1 10  ...l....m....n..
0830: 01 80 6F D1 10 01 80 70  D1 10 01 80 71 D1 10 01  ..o....p....q...
0840: 80 72 D1 10 01 80 73 D1  10 01 80 74 D1 10 01 80  .r....s....t....
0850: 75 D1 10 01 80 76 D1 10  01 80 F0 FF FF 7F 45 5B  u....v........E[
0860: 80 F8 FF FF 7F F8 FF FF  7F 73 30 32 37 01 80 1C  .........s027...
0870: 17 80 45 00 80 F0 FF FF  7F F0 FF FF 7F 66 64 69  ..E..........fdi
0880: 31 01 80 1C 2D 80 27 08  6E D1 10 01 03 2C 71 D1  1...-.'.n....,q.
0890: 10 01 71 D1 10 01 6B 69  6C 6C 2C 72 D1 10 01 72  ..q...kill,r...r
08A0: D1 10 01 6B 69 6C 6C 4E  01 75 D1 10 01 4E 01 76  ...killN.u...N.v
08B0: D1 10 01 29 08 F0 FF FF  7F 04 1C 5C 80 2A 08 6E  ...).......\.*.n
08C0: D1 10 01 53 71 D1 10 01  71 D1 10 01 6B 69 6C 6C  ...Sq...q...kill
08D0: 53 72 D1 10 01 72 D1 10  01 6B 69 6C 6C 1A C7 00  Sr...r...kill...
08E0: 1C 17 80 52 5B 80 F8 FF  FF 7F F8 FF FF 7F 73 30  ...R[.........s0
08F0: 32 37 5C 00 5D 80 5C 01  5D 80 9A 45 5B 80 F8 FF  27\.].\.]..E[...
0900: FF 7F F8 FF FF 7F 73 30  32 38 01 80 02 02 00 03  ......s028......
0910: 80 00 1A 09 1A D8 01 01  2B 09 9F 5E 80 F8 FF FF  ........+..^....
0920: 7F F8 FF FF 7F 73 74 72  30 01 80 27 08 6D D1 10  .....str0..'.m..
0930: 01 03 27 08 6E D1 10 01  05 27 08 6F D1 10 01 03  ..'.n....'.o....
0940: 27 08 74 D1 10 01 03 1C  17 80 1A 85 00 1C 5C 80  '.t...........\.
0950: 52 5B 80 F8 FF FF 7F F8  FF FF 7F 73 30 32 38 45  R[.........s028E
0960: 5B 80 F8 FF FF 7F F8 FF  FF 7F 73 30 32 39 01 80  [.........s029..
0970: 6F 76 73 D1 10 01 1C 06  80 4B 6C D1 10 01 5F 80  ovs......Kl..._.
0980: 6F 76 6C D1 10 01 2B 6C  D1 10 01 60 80 23 27 08  ovl...+l...`.#'.
0990: 6C D1 10 01 02 27 08 73  D1 10 01 03 52 5B 80 F8  l....'.s....R[..
09A0: FF FF 7F F8 FF FF 7F 73  30 32 39 45 5B 80 F8 FF  .......s029E[...
09B0: FF 7F F8 FF FF 7F 73 30  33 30 01 80 2B 6C D1 10  ......s030..+l..
09C0: 01 61 80 23 1C 62 80 27  08 6C D1 10 01 03 73 63  .a.#.b.'.l....sc
09D0: 80 6B D1 10 01 73 D1 10  01 1C 64 80 52 5B 80 F8  .k...s....d.R[..
09E0: FF FF 7F F8 FF FF 7F 73  30 33 30 45 5B 80 F8 FF  .......s030E[...
09F0: FF 7F F8 FF FF 7F 73 30  33 31 01 80 1C 65 80 2C  ......s031...e.,
0A00: 74 D1 10 01 74 D1 10 01  63 61 62 6B 1C 1A 80 4A  t...t...cabk...J
0A10: 6C D1 10 01 74 D1 10 01  6F 76 6C D1 10 01 1C 30  l...t...ovl....0
0A20: 80 52 5B 80 F8 FF FF 7F  F8 FF FF 7F 73 30 33 31  .R[.........s031
0A30: 45 5B 80 F8 FF FF 7F F8  FF FF 7F 73 30 33 32 01  E[.........s032.
0A40: 80 2C 6C D1 10 01 6C D1  10 01 63 61 67 65 1C 5C  .,l...l...cage.\
0A50: 80 2C 6C D1 10 01 6C D1  10 01 73 68 67 65 1C 1D  .,l...l...shge..
0A60: 80 52 5B 80 F8 FF FF 7F  F8 FF FF 7F 73 30 33 32  .R[.........s032
0A70: 45 5B 80 F8 FF FF 7F F8  FF FF 7F 73 30 33 33 01  E[.........s033.
0A80: 80 2C 71 D1 10 01 71 D1  10 01 73 74 61 72 2C 72  .,q...q...star,r
0A90: D1 10 01 72 D1 10 01 73  74 61 72 1C 00 80 05 20  ...r...star.... 
0AA0: 10 27 08 74 D1 10 01 04  1C 2D 80 2B 6C D1 10 01  .'.t.....-.+l...
0AB0: 66 80 23 52 5B 80 F8 FF  FF 7F F8 FF FF 7F 73 30  f.#R[.........s0
0AC0: 33 33 45 5B 80 F8 FF FF  7F F8 FF FF 7F 73 30 33  33E[.........s03
0AD0: 34 01 80 1C 06 80 27 08  75 D1 10 01 03 27 08 76  4.....'.u....'.v
0AE0: D1 10 01 03 2B 6C D1 10  01 67 80 23 66 68 80 6C  ....+l...g.#fh.l
0AF0: D1 10 01 6C D1 10 01 70  6F 73 30 2B 6C D1 10 01  ...l...pos0+l...
0B00: 69 80 23 53 6C D1 10 01  6C D1 10 01 70 6F 73 30  i.#Sl...l...pos0
0B10: 6B 69 64 6C 30 6C D1 10  01 52 5B 80 F8 FF FF 7F  kidl0l...R[.....
0B20: F8 FF FF 7F 73 30 33 34  45 31 80 F0 FF FF 7F F0  ....s034E1......
0B30: FF FF 7F 30 30 62 6C 01  80 55 31 80 F0 FF FF 7F  ...00bl..U1.....
0B40: F0 FF FF 7F 30 30 62 6C  45 5B 80 F8 FF FF 7F F8  ....00blE[......
0B50: FF FF 7F 73 30 33 35 01  80 2C 6C D1 10 01 6C D1  ...s035..,l...l.
0B60: 10 01 63 61 67 65 27 08  6D D1 10 01 04 27 08 6E  ..cage'.m....'.n
0B70: D1 10 01 06 27 08 6F D1  10 01 04 27 08 75 D1 10  ....'.o....'.u..
0B80: 01 04 27 08 76 D1 10 01  04 1C 30 80 1A E8 00 1C  ..'.v.....0.....
0B90: 17 80 52 5B 80 F8 FF FF  7F F8 FF FF 7F 73 30 33  ..R[.........s03
0BA0: 35 02 02 00 03 80 00 CC  0B 45 07 80 F0 FF FF 7F  5........E......
0BB0: F0 FF FF 7F 65 66 6F 66  01 80 55 07 80 F0 FF FF  ....efof..U.....
0BC0: 7F F0 FF FF 7F 65 66 6F  66 01 DD 0B 9F 5E 80 F8  .....efof....^..
0BD0: FF FF 7F F8 FF FF 7F 6B  69 6C 6C 01 80 29 08 F0  .......kill..)..
0BE0: FF FF 7F 04 5C 00 01 80  5C 01 01 80 9A 45 5B 80  ....\...\....E[.
0BF0: F8 FF FF 7F F8 FF FF 7F  73 30 32 37 01 80 9F 6A  ........s027...j
0C00: 80 F0 FF FF 7F F0 FF FF  7F 69 6E 30 30 01 80 1C  .........in00...
0C10: 06 80 1A 85 00 1C 6B 80  45 5B 80 F8 FF FF 7F F8  ......k.E[......
0C20: FF FF 7F 73 30 36 35 01  80 1C 5C 80 9F 6A 80 F0  ...s065...\..j..
0C30: FF FF 7F F0 FF FF 7F 69  6B 69 6C 01 80 1C 5C 80  .......ikil...\.
0C40: 29 08 F0 FF FF 7F 05 1C  62 80 45 00 80 F0 FF FF  ).......b.E.....
0C50: 7F F0 FF FF 7F 66 64 6F  31 01 80 55 00 80 F0 FF  .....fdo1..U....
0C60: FF 7F F0 FF FF 7F 66 64  6F 31 52 5B 80 F8 FF FF  ......fdo1R[....
0C70: 7F F8 FF FF 7F 73 30 32  37 1C 17 80 1C 17 80 AB  .....s027.......
0C80: 11 01 80 1C 03 80 AB 0A  46 00 45 02 80 F8 FF FF  ........F.E.....
0C90: 7F F8 FF FF 7F 71 73 74  63 01 80 45 00 80 F0 FF  .....qstc..E....
0CA0: FF 7F F0 FF FF 7F 66 64  69 32 01 80 21 00        ......fdi2..!.  
```

#### Opcodes

```
  0: 0x0651 [0x42] SET_CLI_EVENT_CANCEL_DATA()
  1: 0x0652 [0x03] ExtData[1]->WorkLocal[2] = Work_Zone[2]
  2: 0x0657 [0x45] LOAD_SCHEDULED_TASK: Load scheduler "fdo1" with entities [LocalPlayer, LocalPlayer], work=[200*, 0*]
  3: 0x0668 [0x55] WAIT_LOAD_SCHEDULER: Wait for scheduler "fdo1" with entities [LocalPlayer, LocalPlayer], work=200*
  4: 0x0677 [0x46] CAMERA_CONTROL: Disable user control
  5: 0x0679 [0x38] SET_CLIENT_EVENT_MODE(mode=27*)
  6: 0x067C [0x4E] SET_ENTITY_HIDE_FLAG: Show LocalPlayer
  7: 0x0682 [0x27] REQ_SET(priority=0x08, entity_id=Unnamed NPC (ID: 17879403/0x0110D16B), tag_num=0x05)
  8: 0x0689 [0x27] REQ_SET(priority=0x08, entity_id=??? (ID: 17879404/0x0110D16C), tag_num=0x07)
  9: 0x0690 [0x27] REQ_SET(priority=0x08, entity_id=Unnamed NPC (ID: 17879405/0x0110D16D), tag_num=0x08)
 10: 0x0697 [0x27] REQ_SET(priority=0x08, entity_id=Unnamed NPC (ID: 17879406/0x0110D16E), tag_num=0x0A)
 11: 0x069E [0x27] REQ_SET(priority=0x08, entity_id=Unnamed NPC (ID: 17879407/0x0110D16F), tag_num=0x08)
 12: 0x06A5 [0x27] REQ_SET(priority=0x08, entity_id=Unnamed NPC (ID: 17879408/0x0110D170), tag_num=0x06)
 13: 0x06AC [0x27] REQ_SET(priority=0x08, entity_id=Unnamed NPC (ID: 17879409/0x0110D171), tag_num=0x06)
 14: 0x06B3 [0x27] REQ_SET(priority=0x08, entity_id=Unnamed NPC (ID: 17879410/0x0110D172), tag_num=0x06)
 15: 0x06BA [0x27] REQ_SET(priority=0x08, entity_id=Unnamed NPC (ID: 17879411/0x0110D173), tag_num=0x07)
 16: 0x06C1 [0x27] REQ_SET(priority=0x08, entity_id=Unnamed NPC (ID: 17879412/0x0110D174), tag_num=0x08)
 17: 0x06C8 [0x27] REQ_SET(priority=0x08, entity_id=Unnamed NPC (ID: 17879413/0x0110D175), tag_num=0x08)
 18: 0x06CF [0x27] REQ_SET(priority=0x08, entity_id=Unnamed NPC (ID: 17879414/0x0110D176), tag_num=0x08)
 19: 0x06D6 [0x94] Unnamed NPC (ID: 17879403/0x0110D16B)->Render.Flags3 ^= 0x01
 20: 0x06DC [0x94] ??? (ID: 17879404/0x0110D16C)->Render.Flags3 ^= 0x01
 21: 0x06E2 [0x94] Unnamed NPC (ID: 17879405/0x0110D16D)->Render.Flags3 ^= 0x01
 22: 0x06E8 [0x94] Unnamed NPC (ID: 17879406/0x0110D16E)->Render.Flags3 ^= 0x01
 23: 0x06EE [0x94] Unnamed NPC (ID: 17879407/0x0110D16F)->Render.Flags3 ^= 0x01
 24: 0x06F4 [0x94] Unnamed NPC (ID: 17879408/0x0110D170)->Render.Flags3 ^= 0x01
 25: 0x06FA [0x94] Unnamed NPC (ID: 17879409/0x0110D171)->Render.Flags3 ^= 0x01
 26: 0x0700 [0x94] Unnamed NPC (ID: 17879410/0x0110D172)->Render.Flags3 ^= 0x01
 27: 0x0706 [0x94] Unnamed NPC (ID: 17879411/0x0110D173)->Render.Flags3 ^= 0x01
 28: 0x070C [0x94] Unnamed NPC (ID: 17879412/0x0110D174)->Render.Flags3 ^= 0x01
 29: 0x0712 [0x94] Unnamed NPC (ID: 17879413/0x0110D175)->Render.Flags3 ^= 0x01
 30: 0x0718 [0x94] Unnamed NPC (ID: 17879414/0x0110D176)->Render.Flags3 ^= 0x01
 31: 0x071E [0x94] LocalPlayer->Render.Flags3 ^= 0x01
 32: 0x0724 [0xBA] SET_ENTITY_POSITION(entity_id=Unnamed NPC (ID: 17879403/0x0110D16B), pos_x=426.399*, pos_z=-345.299*, pos_y=28.200*, direction=0.0°*)
 33: 0x0731 [0xBA] SET_ENTITY_POSITION(entity_id=??? (ID: 17879404/0x0110D16C), pos_x=84.066*, pos_z=-10.987*, pos_y=19.793*, direction=24.4°*)
 34: 0x073E [0xBA] SET_ENTITY_POSITION(entity_id=Unnamed NPC (ID: 17879408/0x0110D170), pos_x=84.066*, pos_z=-10.987*, pos_y=19.793*, direction=24.4°*)
 35: 0x074B [0xBA] SET_ENTITY_POSITION(entity_id=Unnamed NPC (ID: 17879405/0x0110D16D), pos_x=81.864*, pos_z=-13.070*, pos_y=19.756*, direction=351.2°*)
 36: 0x0758 [0xBA] SET_ENTITY_POSITION(entity_id=Unnamed NPC (ID: 17879406/0x0110D16E), pos_x=87.340*, pos_z=-12.848*, pos_y=20.438*, direction=23.8°*)
 37: 0x0765 [0xBA] SET_ENTITY_POSITION(entity_id=Unnamed NPC (ID: 17879407/0x0110D16F), pos_x=83.511*, pos_z=-9.057*, pos_y=19.864*, direction=28.2°*)
 38: 0x0772 [0xBA] SET_ENTITY_POSITION(entity_id=Unnamed NPC (ID: 17879409/0x0110D171), pos_x=90.465*, pos_z=-11.482*, pos_y=20.362*, direction=22.3°*)
 39: 0x077F [0xBA] SET_ENTITY_POSITION(entity_id=Unnamed NPC (ID: 17879410/0x0110D172), pos_x=90.465*, pos_z=-11.482*, pos_y=20.362*, direction=22.3°*)
 40: 0x078C [0xBA] SET_ENTITY_POSITION(entity_id=Unnamed NPC (ID: 17879411/0x0110D173), pos_x=81.713*, pos_z=-24.585*, pos_y=12.962*, direction=297.0°*)
 41: 0x0799 [0xBA] SET_ENTITY_POSITION(entity_id=Unnamed NPC (ID: 17879412/0x0110D174), pos_x=90.693*, pos_z=-14.048*, pos_y=20.281*, direction=182.5°*)
 42: 0x07A6 [0xBA] SET_ENTITY_POSITION(entity_id=LocalPlayer, pos_x=426.778*, pos_z=-343.437*, pos_y=28.548*, direction=101.5°*)
 43: 0x07B3 [0x27] REQ_SET(priority=0x08, entity_id=Unnamed NPC (ID: 17879405/0x0110D16D), tag_num=0x02)
 44: 0x07BA [0x27] REQ_SET(priority=0x08, entity_id=Unnamed NPC (ID: 17879406/0x0110D16E), tag_num=0x02)
 45: 0x07C1 [0x27] REQ_SET(priority=0x08, entity_id=Unnamed NPC (ID: 17879407/0x0110D16F), tag_num=0x02)
 46: 0x07C8 [0x27] REQ_SET(priority=0x08, entity_id=Unnamed NPC (ID: 17879408/0x0110D170), tag_num=0x02)
 47: 0x07CF [0x27] REQ_SET(priority=0x08, entity_id=Unnamed NPC (ID: 17879409/0x0110D171), tag_num=0x02)
 48: 0x07D6 [0x27] REQ_SET(priority=0x08, entity_id=Unnamed NPC (ID: 17879410/0x0110D172), tag_num=0x02)
 49: 0x07DD [0x27] REQ_SET(priority=0x08, entity_id=Unnamed NPC (ID: 17879411/0x0110D173), tag_num=0x02)
 50: 0x07E4 [0x27] REQ_SET(priority=0x08, entity_id=Unnamed NPC (ID: 17879412/0x0110D174), tag_num=0x02)
 51: 0x07EB [0x27] REQ_SET(priority=0x08, entity_id=Unnamed NPC (ID: 17879413/0x0110D175), tag_num=0x02)
 52: 0x07F2 [0x27] REQ_SET(priority=0x08, entity_id=Unnamed NPC (ID: 17879414/0x0110D176), tag_num=0x02)
 53: 0x07F9 [0x4A] Unnamed NPC (ID: 17879411/0x0110D173) looks at Unnamed NPC (ID: 17879406/0x0110D16E)
 54: 0x0802 [0x4A] Unnamed NPC (ID: 17879405/0x0110D16D) looks at Unnamed NPC (ID: 17879412/0x0110D174)
 55: 0x080B [0x4A] Unnamed NPC (ID: 17879406/0x0110D16E) looks at Unnamed NPC (ID: 17879412/0x0110D174)
 56: 0x0814 [0x4A] Unnamed NPC (ID: 17879407/0x0110D16F) looks at Unnamed NPC (ID: 17879412/0x0110D174)
 57: 0x081D [0x80] LOAD_WAIT(entity=Unnamed NPC (ID: 17879403/0x0110D16B))
 58: 0x0822 [0x80] LOAD_WAIT(entity=??? (ID: 17879404/0x0110D16C))
 59: 0x0827 [0x80] LOAD_WAIT(entity=Unnamed NPC (ID: 17879405/0x0110D16D))
 60: 0x082C [0x80] LOAD_WAIT(entity=Unnamed NPC (ID: 17879406/0x0110D16E))
 61: 0x0831 [0x80] LOAD_WAIT(entity=Unnamed NPC (ID: 17879407/0x0110D16F))
 62: 0x0836 [0x80] LOAD_WAIT(entity=Unnamed NPC (ID: 17879408/0x0110D170))
 63: 0x083B [0x80] LOAD_WAIT(entity=Unnamed NPC (ID: 17879409/0x0110D171))
 64: 0x0840 [0x80] LOAD_WAIT(entity=Unnamed NPC (ID: 17879410/0x0110D172))
 65: 0x0845 [0x80] LOAD_WAIT(entity=Unnamed NPC (ID: 17879411/0x0110D173))
 66: 0x084A [0x80] LOAD_WAIT(entity=Unnamed NPC (ID: 17879412/0x0110D174))
 67: 0x084F [0x80] LOAD_WAIT(entity=Unnamed NPC (ID: 17879413/0x0110D175))
 68: 0x0854 [0x80] LOAD_WAIT(entity=Unnamed NPC (ID: 17879414/0x0110D176))
 69: 0x0859 [0x80] LOAD_WAIT(entity=LocalPlayer)
 70: 0x085E [0x45] LOAD_SCHEDULED_TASK: Load scheduler "s027" with entities [EventEntity, EventEntity], work=[619*, 0*]
 71: 0x086F [0x1C] WAIT(15* ticks)
 72: 0x0872 [0x45] LOAD_SCHEDULED_TASK: Load scheduler "fdi1" with entities [LocalPlayer, LocalPlayer], work=[200*, 0*]
 73: 0x0883 [0x1C] WAIT(90* ticks)
 74: 0x0886 [0x27] REQ_SET(priority=0x08, entity_id=Unnamed NPC (ID: 17879406/0x0110D16E), tag_num=0x03)
 75: 0x088D [0x2C] CREATE_SCHEDULER_TASK: Create scheduler "kill" with entities [Unnamed NPC (ID: 17879409/0x0110D171), Unnamed NPC (ID: 17879409/0x0110D171)]
 76: 0x089A [0x2C] CREATE_SCHEDULER_TASK: Create scheduler "kill" with entities [Unnamed NPC (ID: 17879410/0x0110D172), Unnamed NPC (ID: 17879410/0x0110D172)]
 77: 0x08A7 [0x4E] SET_ENTITY_HIDE_FLAG: Hide Unnamed NPC (ID: 17879413/0x0110D175)
 78: 0x08AD [0x4E] SET_ENTITY_HIDE_FLAG: Hide Unnamed NPC (ID: 17879414/0x0110D176)
 79: 0x08B3 [0x29] REQ_SET_WAIT(priority=0x08, entity_id=LocalPlayer, tag_num=0x04)
 80: 0x08BA [0x1C] WAIT(150* ticks)
 81: 0x08BD [0x2A] GET_REQ_LEVEL(level=8, entity_id=Unnamed NPC (ID: 17879406/0x0110D16E))
 82: 0x08C3 [0x53] WAIT_SCHEDULER_TASK: Wait for scheduler "kill" with entities [Unnamed NPC (ID: 17879409/0x0110D171), Unnamed NPC (ID: 17879409/0x0110D171)]
 83: 0x08D0 [0x53] WAIT_SCHEDULER_TASK: Wait for scheduler "kill" with entities [Unnamed NPC (ID: 17879410/0x0110D172), Unnamed NPC (ID: 17879410/0x0110D172)]
 84: 0x08DD [0x1A] CALL_SUBROUTINE(address=0x00C7)
 85: 0x08E0 [0x1C] WAIT(15* ticks)
 86: 0x08E3 [0x52] END_LOAD_SCHEDULER: End scheduler "s027" with entities [EventEntity, EventEntity], work=619*
 87: 0x08F2 [0x5C] MUSIC_CONTROL: Set Idle (Day) music to song 68*
 88: 0x08F6 [0x5C] MUSIC_CONTROL: Set Idle (Night) music to song 68*
 89: 0x08FA [0x9A] WAIT_MUSIC_SERVER()
 90: 0x08FB [0x45] LOAD_SCHEDULED_TASK: Load scheduler "s028" with entities [EventEntity, EventEntity], work=[619*, 0*]
 91: 0x090C [0x02] IF !(ExtData[1]->WorkLocal[2] == 1*) GOTO 0x091A
 92: 0x0914 [0x1A] CALL_SUBROUTINE(address=0x01D8)
 93: 0x0917 [0x01] GOTO 0x092B
 94: 0x091A [0x9F] LOAD_SCHEDULED_TASK_ALT: Load scheduler "str0" with entities [EventEntity, EventEntity], work=[61*, 0*]

SUBROUTINE_092B:
 95: 0x092B [0x27] REQ_SET(priority=0x08, entity_id=Unnamed NPC (ID: 17879405/0x0110D16D), tag_num=0x03)
 96: 0x0932 [0x27] REQ_SET(priority=0x08, entity_id=Unnamed NPC (ID: 17879406/0x0110D16E), tag_num=0x05)
 97: 0x0939 [0x27] REQ_SET(priority=0x08, entity_id=Unnamed NPC (ID: 17879407/0x0110D16F), tag_num=0x03)
 98: 0x0940 [0x27] REQ_SET(priority=0x08, entity_id=Unnamed NPC (ID: 17879412/0x0110D174), tag_num=0x03)
 99: 0x0947 [0x1C] WAIT(15* ticks)
100: 0x094A [0x1A] CALL_SUBROUTINE(address=0x0085)
101: 0x094D [0x1C] WAIT(150* ticks)
102: 0x0950 [0x52] END_LOAD_SCHEDULER: End scheduler "s028" with entities [EventEntity, EventEntity], work=619*
103: 0x095F [0x45] LOAD_SCHEDULED_TASK: Load scheduler "s029" with entities [EventEntity, EventEntity], work=[619*, 0*]
104: 0x0970 [0x6F] WAIT_FRAME_DELAY: Yield until WaitTime reaches zero
105: 0x0971 [0x76] CHECK_ENTITY_RENDER_FLAGS: Wait until Unnamed NPC (ID: 17879411/0x0110D173) Render.Flags0 and Render.Flags3 conditions are met
106: 0x0976 [0x1C] WAIT(30* ticks)
107: 0x0979 [0x4B] UPDATE_ENTITY_YAW(entity=??? (ID: 17879404/0x0110D16C), yaw=5.5°*)
108: 0x0980 [0x6F] WAIT_FRAME_DELAY: Yield until WaitTime reaches zero
109: 0x0981 [0x76] CHECK_ENTITY_RENDER_FLAGS: Wait until ??? (ID: 17879404/0x0110D16C) Render.Flags0 and Render.Flags3 conditions are met
110: 0x0986 [0x2B] ??? (ID: 17879404/0x0110D16C) [7560*]:
    → "To your rrright!"
111: 0x098D [0x23] WAIT_FOR_DIALOG_INTERACTION
112: 0x098E [0x27] REQ_SET(priority=0x08, entity_id=??? (ID: 17879404/0x0110D16C), tag_num=0x02)
113: 0x0995 [0x27] REQ_SET(priority=0x08, entity_id=Unnamed NPC (ID: 17879411/0x0110D173), tag_num=0x03)
114: 0x099C [0x52] END_LOAD_SCHEDULER: End scheduler "s029" with entities [EventEntity, EventEntity], work=619*
115: 0x09AB [0x45] LOAD_SCHEDULED_TASK: Load scheduler "s030" with entities [EventEntity, EventEntity], work=[619*, 0*]
116: 0x09BC [0x2B] ??? (ID: 17879404/0x0110D16C) [7561*]:
    → "No! I might not make it!"
117: 0x09C3 [0x23] WAIT_FOR_DIALOG_INTERACTION
118: 0x09C4 [0x1C] WAIT(80* ticks)
119: 0x09C7 [0x27] REQ_SET(priority=0x08, entity_id=??? (ID: 17879404/0x0110D16C), tag_num=0x03)
120: 0x09CE [0x73] Unnamed NPC (ID: 17879403/0x0110D16B) casts magic 172* on Unnamed NPC (ID: 17879411/0x0110D173)
121: 0x09D9 [0x1C] WAIT(60* ticks)
122: 0x09DC [0x52] END_LOAD_SCHEDULER: End scheduler "s030" with entities [EventEntity, EventEntity], work=619*
123: 0x09EB [0x45] LOAD_SCHEDULED_TASK: Load scheduler "s031" with entities [EventEntity, EventEntity], work=[619*, 0*]
124: 0x09FC [0x1C] WAIT(180* ticks)
125: 0x09FF [0x2C] CREATE_SCHEDULER_TASK: Create scheduler "cabk" with entities [Unnamed NPC (ID: 17879412/0x0110D174), Unnamed NPC (ID: 17879412/0x0110D174)]
126: 0x0A0C [0x1C] WAIT(70* ticks)
127: 0x0A0F [0x4A] ??? (ID: 17879404/0x0110D16C) looks at Unnamed NPC (ID: 17879412/0x0110D174)
128: 0x0A18 [0x6F] WAIT_FRAME_DELAY: Yield until WaitTime reaches zero
129: 0x0A19 [0x76] CHECK_ENTITY_RENDER_FLAGS: Wait until ??? (ID: 17879404/0x0110D16C) Render.Flags0 and Render.Flags3 conditions are met
130: 0x0A1E [0x1C] WAIT(120* ticks)
131: 0x0A21 [0x52] END_LOAD_SCHEDULER: End scheduler "s031" with entities [EventEntity, EventEntity], work=619*
132: 0x0A30 [0x45] LOAD_SCHEDULED_TASK: Load scheduler "s032" with entities [EventEntity, EventEntity], work=[619*, 0*]
133: 0x0A41 [0x2C] CREATE_SCHEDULER_TASK: Create scheduler "cage" with entities [??? (ID: 17879404/0x0110D16C), ??? (ID: 17879404/0x0110D16C)]
134: 0x0A4E [0x1C] WAIT(150* ticks)
135: 0x0A51 [0x2C] CREATE_SCHEDULER_TASK: Create scheduler "shge" with entities [??? (ID: 17879404/0x0110D16C), ??? (ID: 17879404/0x0110D16C)]
136: 0x0A5E [0x1C] WAIT(40* ticks)
137: 0x0A61 [0x52] END_LOAD_SCHEDULER: End scheduler "s032" with entities [EventEntity, EventEntity], work=619*
138: 0x0A70 [0x45] LOAD_SCHEDULED_TASK: Load scheduler "s033" with entities [EventEntity, EventEntity], work=[619*, 0*]
139: 0x0A81 [0x2C] CREATE_SCHEDULER_TASK: Create scheduler "star" with entities [Unnamed NPC (ID: 17879409/0x0110D171), Unnamed NPC (ID: 17879409/0x0110D171)]
140: 0x0A8E [0x2C] CREATE_SCHEDULER_TASK: Create scheduler "star" with entities [Unnamed NPC (ID: 17879410/0x0110D172), Unnamed NPC (ID: 17879410/0x0110D172)]
141: 0x0A9B [0x1C] WAIT(200* ticks)
142: 0x0A9E [0x05] Work_Zone[32] = 1
143: 0x0AA1 [0x27] REQ_SET(priority=0x08, entity_id=Unnamed NPC (ID: 17879412/0x0110D174), tag_num=0x04)
144: 0x0AA8 [0x1C] WAIT(90* ticks)
145: 0x0AAB [0x2B] ??? (ID: 17879404/0x0110D16C) [7562*]:
    → "...Just under the wirrre!"
146: 0x0AB2 [0x23] WAIT_FOR_DIALOG_INTERACTION
147: 0x0AB3 [0x52] END_LOAD_SCHEDULER: End scheduler "s033" with entities [EventEntity, EventEntity], work=619*
148: 0x0AC2 [0x45] LOAD_SCHEDULED_TASK: Load scheduler "s034" with entities [EventEntity, EventEntity], work=[619*, 0*]
149: 0x0AD3 [0x1C] WAIT(30* ticks)
150: 0x0AD6 [0x27] REQ_SET(priority=0x08, entity_id=Unnamed NPC (ID: 17879413/0x0110D175), tag_num=0x03)
151: 0x0ADD [0x27] REQ_SET(priority=0x08, entity_id=Unnamed NPC (ID: 17879414/0x0110D176), tag_num=0x03)
152: 0x0AE4 [0x2B] ??? (ID: 17879404/0x0110D16C) [7563*]:
    → "Now! Let our battle crrries echo far and wide!"
153: 0x0AEB [0x23] WAIT_FOR_DIALOG_INTERACTION
154: 0x0AEC [0x66] LOAD_EXT_SCHEDULER_MAIN: Load scheduler "pos0" with entities [??? (ID: 17879404/0x0110D16C), ??? (ID: 17879404/0x0110D16C)], work=124*
155: 0x0AFB [0x2B] ??? (ID: 17879404/0x0110D16C) [7564*]:
    → "Cut them down!!!"
156: 0x0B02 [0x23] WAIT_FOR_DIALOG_INTERACTION
157: 0x0B03 [0x53] WAIT_SCHEDULER_TASK: Wait for scheduler "pos0" with entities [??? (ID: 17879404/0x0110D16C), ??? (ID: 17879404/0x0110D16C)]
158: 0x0B10 [0x6B] STOP_AND_IDLE: ??? (ID: 17879404/0x0110D16C) stops current action and resets to idle (animation="idl0")
159: 0x0B19 [0x52] END_LOAD_SCHEDULER: End scheduler "s034" with entities [EventEntity, EventEntity], work=619*
160: 0x0B28 [0x45] LOAD_SCHEDULED_TASK: Load scheduler "00bl" with entities [LocalPlayer, LocalPlayer], work=[610*, 0*]
161: 0x0B39 [0x55] WAIT_LOAD_SCHEDULER: Wait for scheduler "00bl" with entities [LocalPlayer, LocalPlayer], work=610*
162: 0x0B48 [0x45] LOAD_SCHEDULED_TASK: Load scheduler "s035" with entities [EventEntity, EventEntity], work=[619*, 0*]
163: 0x0B59 [0x2C] CREATE_SCHEDULER_TASK: Create scheduler "cage" with entities [??? (ID: 17879404/0x0110D16C), ??? (ID: 17879404/0x0110D16C)]
164: 0x0B66 [0x27] REQ_SET(priority=0x08, entity_id=Unnamed NPC (ID: 17879405/0x0110D16D), tag_num=0x04)
165: 0x0B6D [0x27] REQ_SET(priority=0x08, entity_id=Unnamed NPC (ID: 17879406/0x0110D16E), tag_num=0x06)
166: 0x0B74 [0x27] REQ_SET(priority=0x08, entity_id=Unnamed NPC (ID: 17879407/0x0110D16F), tag_num=0x04)
167: 0x0B7B [0x27] REQ_SET(priority=0x08, entity_id=Unnamed NPC (ID: 17879413/0x0110D175), tag_num=0x04)
168: 0x0B82 [0x27] REQ_SET(priority=0x08, entity_id=Unnamed NPC (ID: 17879414/0x0110D176), tag_num=0x04)
169: 0x0B89 [0x1C] WAIT(120* ticks)
170: 0x0B8C [0x1A] CALL_SUBROUTINE(address=0x00E8)
171: 0x0B8F [0x1C] WAIT(15* ticks)
172: 0x0B92 [0x52] END_LOAD_SCHEDULER: End scheduler "s035" with entities [EventEntity, EventEntity], work=619*
173: 0x0BA1 [0x02] IF !(ExtData[1]->WorkLocal[2] == 1*) GOTO 0x0BCC
174: 0x0BA9 [0x45] LOAD_SCHEDULED_TASK: Load scheduler "efof" with entities [LocalPlayer, LocalPlayer], work=[215*, 0*]
175: 0x0BBA [0x55] WAIT_LOAD_SCHEDULER: Wait for scheduler "efof" with entities [LocalPlayer, LocalPlayer], work=215*
176: 0x0BC9 [0x01] GOTO 0x0BDD
177: 0x0BCC [0x9F] LOAD_SCHEDULED_TASK_ALT: Load scheduler "kill" with entities [EventEntity, EventEntity], work=[61*, 0*]

SUBROUTINE_0BDD:
178: 0x0BDD [0x29] REQ_SET_WAIT(priority=0x08, entity_id=LocalPlayer, tag_num=0x04)
179: 0x0BE4 [0x5C] MUSIC_CONTROL: Set Idle (Day) music to song 0*
180: 0x0BE8 [0x5C] MUSIC_CONTROL: Set Idle (Night) music to song 0*
181: 0x0BEC [0x9A] WAIT_MUSIC_SERVER()
182: 0x0BED [0x45] LOAD_SCHEDULED_TASK: Load scheduler "s027" with entities [EventEntity, EventEntity], work=[619*, 0*]
183: 0x0BFE [0x9F] LOAD_SCHEDULED_TASK_ALT: Load scheduler "in00" with entities [LocalPlayer, LocalPlayer], work=[209*, 0*]
184: 0x0C0F [0x1C] WAIT(30* ticks)
185: 0x0C12 [0x1A] CALL_SUBROUTINE(address=0x0085)
186: 0x0C15 [0x1C] WAIT(48* ticks)
187: 0x0C18 [0x45] LOAD_SCHEDULED_TASK: Load scheduler "s065" with entities [EventEntity, EventEntity], work=[619*, 0*]
188: 0x0C29 [0x1C] WAIT(150* ticks)
189: 0x0C2C [0x9F] LOAD_SCHEDULED_TASK_ALT: Load scheduler "ikil" with entities [LocalPlayer, LocalPlayer], work=[209*, 0*]
190: 0x0C3D [0x1C] WAIT(150* ticks)
191: 0x0C40 [0x29] REQ_SET_WAIT(priority=0x08, entity_id=LocalPlayer, tag_num=0x05)
192: 0x0C47 [0x1C] WAIT(80* ticks)
193: 0x0C4A [0x45] LOAD_SCHEDULED_TASK: Load scheduler "fdo1" with entities [LocalPlayer, LocalPlayer], work=[200*, 0*]
194: 0x0C5B [0x55] WAIT_LOAD_SCHEDULER: Wait for scheduler "fdo1" with entities [LocalPlayer, LocalPlayer], work=200*
195: 0x0C6A [0x52] END_LOAD_SCHEDULER: End scheduler "s027" with entities [EventEntity, EventEntity], work=619*
196: 0x0C79 [0x1C] WAIT(15* ticks)
197: 0x0C7C [0x1C] WAIT(15* ticks)
198: 0x0C7F [0xAB] EventEntity->DespawnValue = 0* // Set despawn value
199: 0x0C83 [0x1C] WAIT(1* ticks)
200: 0x0C86 [0xAB] EventEntity->UnknownFlag = 0 // Disable unknown flag
201: 0x0C88 [0x46] CAMERA_CONTROL: Restore default settings
202: 0x0C8A [0x45] LOAD_SCHEDULED_TASK: Load scheduler "qstc" with entities [EventEntity, EventEntity], work=[201*, 0*]
203: 0x0C9B [0x45] LOAD_SCHEDULED_TASK: Load scheduler "fdi2" with entities [LocalPlayer, LocalPlayer], work=[200*, 0*]
204: 0x0CAC [0x21] END_EVENT
205: 0x0CAD [0x00] END_REQSTACK()
```
