# 17879405

## Common Data

| Field            | Value               |
|------------------|---------------------|
| Zone             | Moh Gates (ID: 269) |
| Block Size       | 488 bytes           |
| Total Events     | 12                  |
| References Count | 26                  |

## List of Events

| Event ID                   | Entrypoint   |   Size |   Instructions |
|----------------------------|--------------|--------|----------------|
| [65535](#event-65535)      | 0x0000       |      1 |              1 |
| [103](#event-103)          | 0x0001       |      7 |              2 |
| [65535.1](#event-655351)   | 0x0008       |     21 |              2 |
| [65535.2](#event-655352)   | 0x001D       |    183 |             33 |
| [65535.3](#event-655353)   | 0x00D4       |     38 |             10 |
| [65535.4](#event-655354)   | 0x00FA       |      1 |              1 |
| [65535.5](#event-655355)   | 0x00FB       |     18 |              4 |
| [65535.6](#event-655356)   | 0x010D       |     10 |              2 |
| [65535.7](#event-655357)   | 0x0117       |      9 |              3 |
| [65535.8](#event-655358)   | 0x0120       |      9 |              3 |
| [65535.9](#event-655359)   | 0x0129       |     10 |              2 |
| [65535.10](#event-6553510) | 0x0133       |     10 |              2 |

## DAT References (imed_data)

|   Index | Hex Value   |   Dec Value |
|---------|-------------|-------------|
|       0 | 0x0007      |           7 |
|       1 | 0x000C      |          12 |
|       2 | 0x0164      |         356 |
|       3 | 0x0263      |         611 |
|       4 | 0x0000      |           0 |
|       5 | 0x0032      |          50 |
|       6 | 0x0037      |          55 |
|       7 | 0x0005      |           5 |
|       8 | 0x0091      |         145 |
|       9 | 0x0001      |           1 |
|      10 | 0x0096      |         150 |
|      11 | 0x0002      |           2 |
|      12 | 0x009B      |         155 |
|      13 | 0x0003      |           3 |
|      14 | 0x00A0      |         160 |
|      15 | 0x0004      |           4 |
|      16 | 0x00A5      |         165 |
|      17 | 0x00AA      |         170 |
|      18 | 0x008C      |         140 |
|      19 | 0x015E      |         350 |
|      20 | 0x0028      |          40 |
|      21 | 0x15C95     |       89237 |
|      22 | 0xFFFFBF4C  |  4294950732 |
|      23 | 0x5013      |       20499 |
|      24 | 0x000A      |          10 |
|      25 | 0x0080      |         128 |

## Events

### Event 65535

#### Metadata

| Field        | Value   |
|--------------|---------|
| Entrypoint   | 0x0000  |
| Data Size    | 1 bytes |
| Instructions | 1       |

```
      00 01 02 03 04 05 06 07  08 09 0A 0B 0C 0D 0E 0F
      -- -- -- -- -- -- -- --  -- -- -- -- -- -- -- --
0000: 00                                                .               
```

#### Opcodes

```
  0: 0x0000 [0x00] END_REQSTACK()
```

### Event 103

#### Metadata

| Field        | Value   |
|--------------|---------|
| Entrypoint   | 0x0001  |
| Data Size    | 7 bytes |
| Instructions | 2       |

```
      00 01 02 03 04 05 06 07  08 09 0A 0B 0C 0D 0E 0F
      -- -- -- -- -- -- -- --  -- -- -- -- -- -- -- --
0000:    92 01 F8 FF FF 7F 00                            .......        
```

#### Opcodes

```
  0: 0x0001 [0x92] EventEntity->Render.Flags3 ^= 0x01
  1: 0x0007 [0x00] END_REQSTACK()
```

### Event 65535.1

#### Metadata

| Field        | Value    |
|--------------|----------|
| Entrypoint   | 0x0008   |
| Data Size    | 21 bytes |
| Instructions | 2        |

```
      00 01 02 03 04 05 06 07  08 09 0A 0B 0C 0D 0E 0F
      -- -- -- -- -- -- -- --  -- -- -- -- -- -- -- --
0000:                          B6 0B 00 80 01 80 02 80          ........
0010: 02 80 02 80 02 80 02 80  03 80 04 80 00           .............   
```

#### Opcodes

```
  0: 0x0008 [0xB6] ENTITY_APPEARANCE_HANDLER(case=Full entity look, race=7*, hair=12*, head=356*, body=356*, hands=356*, legs=356*, feet=356*, main=611*, sub=0*)
  1: 0x001C [0x00] END_REQSTACK()
```

### Event 65535.2

#### Metadata

| Field        | Value     |
|--------------|-----------|
| Entrypoint   | 0x001D    |
| Data Size    | 183 bytes |
| Instructions | 33        |

```
      00 01 02 03 04 05 06 07  08 09 0A 0B 0C 0D 0E 0F
      -- -- -- -- -- -- -- --  -- -- -- -- -- -- -- --
0010:                                         06 00 00               ...
0020: 02 00 00 04 80 00 D3 00  1C 05 80 2C F8 FF FF 7F  ...........,....
0030: F8 FF FF 7F 63 61 62 6B  1C 06 80 13 02 10 07 80  ....cabk........
0040: 02 02 10 04 80 80 50 00  03 02 10 08 80 01 A0 00  ......P.........
0050: 02 02 10 09 80 80 60 00  03 02 10 0A 80 01 A0 00  ......`.........
0060: 02 02 10 0B 80 80 70 00  03 02 10 0C 80 01 A0 00  ......p.........
0070: 02 02 10 0D 80 80 80 00  03 02 10 0E 80 01 A0 00  ................
0080: 02 02 10 0F 80 80 90 00  03 02 10 10 80 01 A0 00  ................
0090: 02 02 10 07 80 80 A0 00  03 02 10 11 80 01 A0 00  ................
00A0: 2C F8 FF FF 7F F8 FF FF  7F 73 74 62 6B 73 02 10  ,........stbks..
00B0: F8 FF FF 7F 74 D1 10 01  13 02 10 12 80 07 02 10  ....t...........
00C0: 13 80 1C 02 10 02 20 10  09 80 00 D0 00 05 00 00  ...... .........
00D0: 01 20 00 00                                       . ..            
```

#### Opcodes

```
  0: 0x001D [0x06] ExtData[1]->WorkLocal[0] = 0
  1: 0x0020 [0x02] IF !(ExtData[1]->WorkLocal[0] == 0*) GOTO 0x00D3
  2: 0x0028 [0x1C] WAIT(50* ticks)
  3: 0x002B [0x2C] CREATE_SCHEDULER_TASK: Create scheduler "cabk" with entities [EventEntity, EventEntity]
  4: 0x0038 [0x1C] WAIT(55* ticks)
  5: 0x003B [0x13] Work_Zone[2] = rand() % 5*
  6: 0x0040 [0x02] IF !(Work_Zone[2] == 0*) GOTO 0x0050
  7: 0x0048 [0x03] Work_Zone[2] = 145*
  8: 0x004D [0x01] GOTO 0x00A0
  9: 0x0050 [0x02] IF !(Work_Zone[2] == 1*) GOTO 0x0060
 10: 0x0058 [0x03] Work_Zone[2] = 150*
 11: 0x005D [0x01] GOTO 0x00A0
 12: 0x0060 [0x02] IF !(Work_Zone[2] == 2*) GOTO 0x0070
 13: 0x0068 [0x03] Work_Zone[2] = 155*
 14: 0x006D [0x01] GOTO 0x00A0
 15: 0x0070 [0x02] IF !(Work_Zone[2] == 3*) GOTO 0x0080
 16: 0x0078 [0x03] Work_Zone[2] = 160*
 17: 0x007D [0x01] GOTO 0x00A0
 18: 0x0080 [0x02] IF !(Work_Zone[2] == 4*) GOTO 0x0090
 19: 0x0088 [0x03] Work_Zone[2] = 165*
 20: 0x008D [0x01] GOTO 0x00A0
 21: 0x0090 [0x02] IF !(Work_Zone[2] == 5*) GOTO 0x00A0
 22: 0x0098 [0x03] Work_Zone[2] = 170*
 23: 0x009D [0x01] GOTO 0x00A0

SUBROUTINE_00A0:
 24: 0x00A0 [0x2C] CREATE_SCHEDULER_TASK: Create scheduler "stbk" with entities [EventEntity, EventEntity]
 25: 0x00AD [0x73] EventEntity casts magic Work_Zone[2] on Unnamed NPC (ID: 17879412/0x0110D174)
 26: 0x00B8 [0x13] Work_Zone[2] = rand() % 140*
 27: 0x00BD [0x07] Work_Zone[2] += 350*
 28: 0x00C2 [0x1C] WAIT(Work_Zone[2] ticks)
 29: 0x00C5 [0x02] IF !(Work_Zone[32] == 1*) GOTO 0x00D0
 30: 0x00CD [0x05] ExtData[1]->WorkLocal[0] = 1
 31: 0x00D0 [0x01] GOTO 0x0020
 32: 0x00D3 [0x00] END_REQSTACK()
```

### Event 65535.3

#### Metadata

| Field        | Value    |
|--------------|----------|
| Entrypoint   | 0x00D4   |
| Data Size    | 38 bytes |
| Instructions | 10       |

```
      00 01 02 03 04 05 06 07  08 09 0A 0B 0C 0D 0E 0F
      -- -- -- -- -- -- -- --  -- -- -- -- -- -- -- --
00D0:             32 14 80 1F  00 15 80 16 80 17 80 1F      2...........
00E0: 01 6F 1E 75 D1 10 01 6F  70 1C 18 80 2C F8 FF FF  .o.u...op...,...
00F0: 7F F8 FF FF 7F 63 61 62  6B 00                    .....cabk.      
```

#### Opcodes

```
  0: 0x00D4 [0x32] ExtData[1]->MainSpeed = 40* * 0.1
  1: 0x00D7 [0x1F] MOVE_ENTITY: EventEntity moves to X=89.237*, Z=-16.564*, Y=20.499*
  2: 0x00DF [0x1F] MOVE_ENTITY: Update entity position (mode=1)
  3: 0x00E1 [0x6F] WAIT_FRAME_DELAY: Yield until WaitTime reaches zero
  4: 0x00E2 [0x1E] EventEntity looks at Unnamed NPC (ID: 17879413/0x0110D175) and starts talking
  5: 0x00E7 [0x6F] WAIT_FRAME_DELAY: Yield until WaitTime reaches zero
  6: 0x00E8 [0x70] WAIT_ENTITY_RENDER_FLAG: Wait while EventEntity->Render.Flags3 bit 2 is set (cancel turn if not)
  7: 0x00E9 [0x1C] WAIT(10* ticks)
  8: 0x00EC [0x2C] CREATE_SCHEDULER_TASK: Create scheduler "cabk" with entities [EventEntity, EventEntity]
  9: 0x00F9 [0x00] END_REQSTACK()
```

### Event 65535.4

#### Metadata

| Field        | Value   |
|--------------|---------|
| Entrypoint   | 0x00FA  |
| Data Size    | 1 bytes |
| Instructions | 1       |

```
      00 01 02 03 04 05 06 07  08 09 0A 0B 0C 0D 0E 0F
      -- -- -- -- -- -- -- --  -- -- -- -- -- -- -- --
00F0:                                00                           .     
```

#### Opcodes

```
  0: 0x00FA [0x00] END_REQSTACK()
```

### Event 65535.5

#### Metadata

| Field        | Value    |
|--------------|----------|
| Entrypoint   | 0x00FB   |
| Data Size    | 18 bytes |
| Instructions | 4        |

```
      00 01 02 03 04 05 06 07  08 09 0A 0B 0C 0D 0E 0F
      -- -- -- -- -- -- -- --  -- -- -- -- -- -- -- --
00F0:                                   22 00 2F 00 F8             "./..
0100: FF FF 7F 6C F8 FF FF 7F  04 80 09 80 00           ...l.........   
```

#### Opcodes

```
  0: 0x00FB [0x22] ENTITY_HIDE_FLAG(enabled=0x00)
  1: 0x00FD [0x2F] EventEntity->Render.Flags0 &= ~0x80000 // Bit 19
  2: 0x0103 [0x6C] FADE_ENTITY_COLOR(entity_id=EventEntity, end_alpha=0*, fade_time=1*)
  3: 0x010C [0x00] END_REQSTACK()
```

### Event 65535.6

#### Metadata

| Field        | Value    |
|--------------|----------|
| Entrypoint   | 0x010D   |
| Data Size    | 10 bytes |
| Instructions | 2        |

```
      00 01 02 03 04 05 06 07  08 09 0A 0B 0C 0D 0E 0F
      -- -- -- -- -- -- -- --  -- -- -- -- -- -- -- --
0100:                                         6C F8 FF               l..
0110: FF 7F 19 80 09 80 00                              .......         
```

#### Opcodes

```
  0: 0x010D [0x6C] FADE_ENTITY_COLOR(entity_id=EventEntity, end_alpha=128*, fade_time=1*)
  1: 0x0116 [0x00] END_REQSTACK()
```

### Event 65535.7

#### Metadata

| Field        | Value   |
|--------------|---------|
| Entrypoint   | 0x0117  |
| Data Size    | 9 bytes |
| Instructions | 3       |

```
      00 01 02 03 04 05 06 07  08 09 0A 0B 0C 0D 0E 0F
      -- -- -- -- -- -- -- --  -- -- -- -- -- -- -- --
0110:                      22  00 2F 00 F8 FF FF 7F 00         "./......
```

#### Opcodes

```
  0: 0x0117 [0x22] ENTITY_HIDE_FLAG(enabled=0x00)
  1: 0x0119 [0x2F] EventEntity->Render.Flags0 &= ~0x80000 // Bit 19
  2: 0x011F [0x00] END_REQSTACK()
```

### Event 65535.8

#### Metadata

| Field        | Value   |
|--------------|---------|
| Entrypoint   | 0x0120  |
| Data Size    | 9 bytes |
| Instructions | 3       |

```
      00 01 02 03 04 05 06 07  08 09 0A 0B 0C 0D 0E 0F
      -- -- -- -- -- -- -- --  -- -- -- -- -- -- -- --
0120: 22 01 2F 01 F8 FF FF 7F  00                       "./......       
```

#### Opcodes

```
  0: 0x0120 [0x22] ENTITY_HIDE_FLAG(enabled=0x01)
  1: 0x0122 [0x2F] EventEntity->Render.Flags0 |= 0x80000 // Bit 19
  2: 0x0128 [0x00] END_REQSTACK()
```

### Event 65535.9

#### Metadata

| Field        | Value    |
|--------------|----------|
| Entrypoint   | 0x0129   |
| Data Size    | 10 bytes |
| Instructions | 2        |

```
      00 01 02 03 04 05 06 07  08 09 0A 0B 0C 0D 0E 0F
      -- -- -- -- -- -- -- --  -- -- -- -- -- -- -- --
0120:                             6C F8 FF FF 7F 04 80           l......
0130: 09 80 00                                          ...             
```

#### Opcodes

```
  0: 0x0129 [0x6C] FADE_ENTITY_COLOR(entity_id=EventEntity, end_alpha=0*, fade_time=1*)
  1: 0x0132 [0x00] END_REQSTACK()
```

### Event 65535.10

#### Metadata

| Field        | Value    |
|--------------|----------|
| Entrypoint   | 0x0133   |
| Data Size    | 10 bytes |
| Instructions | 2        |

```
      00 01 02 03 04 05 06 07  08 09 0A 0B 0C 0D 0E 0F
      -- -- -- -- -- -- -- --  -- -- -- -- -- -- -- --
0130:          6C F8 FF FF 7F  19 80 09 80 00              l.........   
```

#### Opcodes

```
  0: 0x0133 [0x6C] FADE_ENTITY_COLOR(entity_id=EventEntity, end_alpha=128*, fade_time=1*)
  1: 0x013C [0x00] END_REQSTACK()
```
