# 17879407

## Common Data

| Field            | Value               |
|------------------|---------------------|
| Zone             | Moh Gates (ID: 269) |
| Block Size       | 480 bytes           |
| Total Events     | 12                  |
| References Count | 25                  |

## List of Events

| Event ID                   | Entrypoint   |   Size |   Instructions |
|----------------------------|--------------|--------|----------------|
| [65535](#event-65535)      | 0x0000       |      1 |              1 |
| [103](#event-103)          | 0x0001       |      7 |              2 |
| [65535.1](#event-655351)   | 0x0008       |     21 |              2 |
| [65535.2](#event-655352)   | 0x001D       |    180 |             32 |
| [65535.3](#event-655353)   | 0x00D1       |     38 |             10 |
| [65535.4](#event-655354)   | 0x00F7       |      1 |              1 |
| [65535.5](#event-655355)   | 0x00F8       |     18 |              4 |
| [65535.6](#event-655356)   | 0x010A       |     10 |              2 |
| [65535.7](#event-655357)   | 0x0114       |      9 |              3 |
| [65535.8](#event-655358)   | 0x011D       |      9 |              3 |
| [65535.9](#event-655359)   | 0x0126       |     10 |              2 |
| [65535.10](#event-6553510) | 0x0130       |     10 |              2 |

## DAT References (imed_data)

|   Index | Hex Value   |   Dec Value |
|---------|-------------|-------------|
|       0 | 0x0007      |           7 |
|       1 | 0x0000      |           0 |
|       2 | 0x0164      |         356 |
|       3 | 0x0136      |         310 |
|       4 | 0x0279      |         633 |
|       5 | 0x0050      |          80 |
|       6 | 0x0005      |           5 |
|       7 | 0x0092      |         146 |
|       8 | 0x0001      |           1 |
|       9 | 0x0097      |         151 |
|      10 | 0x0002      |           2 |
|      11 | 0x009C      |         156 |
|      12 | 0x0003      |           3 |
|      13 | 0x00A1      |         161 |
|      14 | 0x0004      |           4 |
|      15 | 0x00A6      |         166 |
|      16 | 0x00AB      |         171 |
|      17 | 0x008C      |         140 |
|      18 | 0x0190      |         400 |
|      19 | 0x0028      |          40 |
|      20 | 0x15F65     |       89957 |
|      21 | 0xFFFFDAAB  |  4294957739 |
|      22 | 0x4E6D      |       20077 |
|      23 | 0x000A      |          10 |
|      24 | 0x0080      |         128 |

## Events

### Event 65535

#### Metadata

| Field        | Value   |
|--------------|---------|
| Entrypoint   | 0x0000  |
| Data Size    | 1 bytes |
| Instructions | 1       |

```
      00 01 02 03 04 05 06 07  08 09 0A 0B 0C 0D 0E 0F
      -- -- -- -- -- -- -- --  -- -- -- -- -- -- -- --
0000: 00                                                .               
```

#### Opcodes

```
  0: 0x0000 [0x00] END_REQSTACK()
```

### Event 103

#### Metadata

| Field        | Value   |
|--------------|---------|
| Entrypoint   | 0x0001  |
| Data Size    | 7 bytes |
| Instructions | 2       |

```
      00 01 02 03 04 05 06 07  08 09 0A 0B 0C 0D 0E 0F
      -- -- -- -- -- -- -- --  -- -- -- -- -- -- -- --
0000:    92 01 F8 FF FF 7F 00                            .......        
```

#### Opcodes

```
  0: 0x0001 [0x92] EventEntity->Render.Flags3 ^= 0x01
  1: 0x0007 [0x00] END_REQSTACK()
```

### Event 65535.1

#### Metadata

| Field        | Value    |
|--------------|----------|
| Entrypoint   | 0x0008   |
| Data Size    | 21 bytes |
| Instructions | 2        |

```
      00 01 02 03 04 05 06 07  08 09 0A 0B 0C 0D 0E 0F
      -- -- -- -- -- -- -- --  -- -- -- -- -- -- -- --
0000:                          B6 0B 00 80 01 80 02 80          ........
0010: 03 80 02 80 02 80 02 80  04 80 01 80 00           .............   
```

#### Opcodes

```
  0: 0x0008 [0xB6] ENTITY_APPEARANCE_HANDLER(case=Full entity look, race=7*, hair=0*, head=356*, body=310*, hands=356*, legs=356*, feet=356*, main=633*, sub=0*)
  1: 0x001C [0x00] END_REQSTACK()
```

### Event 65535.2

#### Metadata

| Field        | Value     |
|--------------|-----------|
| Entrypoint   | 0x001D    |
| Data Size    | 180 bytes |
| Instructions | 32        |

```
      00 01 02 03 04 05 06 07  08 09 0A 0B 0C 0D 0E 0F
      -- -- -- -- -- -- -- --  -- -- -- -- -- -- -- --
0010:                                         06 00 00               ...
0020: 02 00 00 01 80 00 D0 00  2C F8 FF FF 7F F8 FF FF  ........,.......
0030: 7F 63 61 62 6B 1C 05 80  13 02 10 06 80 02 02 10  .cabk...........
0040: 01 80 80 4D 00 03 02 10  07 80 01 9D 00 02 02 10  ...M............
0050: 08 80 80 5D 00 03 02 10  09 80 01 9D 00 02 02 10  ...]............
0060: 0A 80 80 6D 00 03 02 10  0B 80 01 9D 00 02 02 10  ...m............
0070: 0C 80 80 7D 00 03 02 10  0D 80 01 9D 00 02 02 10  ...}............
0080: 0E 80 80 8D 00 03 02 10  0F 80 01 9D 00 02 02 10  ................
0090: 06 80 80 9D 00 03 02 10  10 80 01 9D 00 2C F8 FF  .............,..
00A0: FF 7F F8 FF FF 7F 73 74  62 6B 73 02 10 F8 FF FF  ......stbks.....
00B0: 7F 74 D1 10 01 13 02 10  11 80 07 02 10 12 80 1C  .t..............
00C0: 02 10 02 20 10 08 80 00  CD 00 05 00 00 01 20 00  ... .......... .
00D0: 00                                                .               
```

#### Opcodes

```
  0: 0x001D [0x06] ExtData[1]->WorkLocal[0] = 0
  1: 0x0020 [0x02] IF !(ExtData[1]->WorkLocal[0] == 0*) GOTO 0x00D0
  2: 0x0028 [0x2C] CREATE_SCHEDULER_TASK: Create scheduler "cabk" with entities [EventEntity, EventEntity]
  3: 0x0035 [0x1C] WAIT(80* ticks)
  4: 0x0038 [0x13] Work_Zone[2] = rand() % 5*
  5: 0x003D [0x02] IF !(Work_Zone[2] == 0*) GOTO 0x004D
  6: 0x0045 [0x03] Work_Zone[2] = 146*
  7: 0x004A [0x01] GOTO 0x009D
  8: 0x004D [0x02] IF !(Work_Zone[2] == 1*) GOTO 0x005D
  9: 0x0055 [0x03] Work_Zone[2] = 151*
 10: 0x005A [0x01] GOTO 0x009D
 11: 0x005D [0x02] IF !(Work_Zone[2] == 2*) GOTO 0x006D
 12: 0x0065 [0x03] Work_Zone[2] = 156*
 13: 0x006A [0x01] GOTO 0x009D
 14: 0x006D [0x02] IF !(Work_Zone[2] == 3*) GOTO 0x007D
 15: 0x0075 [0x03] Work_Zone[2] = 161*
 16: 0x007A [0x01] GOTO 0x009D
 17: 0x007D [0x02] IF !(Work_Zone[2] == 4*) GOTO 0x008D
 18: 0x0085 [0x03] Work_Zone[2] = 166*
 19: 0x008A [0x01] GOTO 0x009D
 20: 0x008D [0x02] IF !(Work_Zone[2] == 5*) GOTO 0x009D
 21: 0x0095 [0x03] Work_Zone[2] = 171*
 22: 0x009A [0x01] GOTO 0x009D

SUBROUTINE_009D:
 23: 0x009D [0x2C] CREATE_SCHEDULER_TASK: Create scheduler "stbk" with entities [EventEntity, EventEntity]
 24: 0x00AA [0x73] EventEntity casts magic Work_Zone[2] on Unnamed NPC (ID: 17879412/0x0110D174)
 25: 0x00B5 [0x13] Work_Zone[2] = rand() % 140*
 26: 0x00BA [0x07] Work_Zone[2] += 400*
 27: 0x00BF [0x1C] WAIT(Work_Zone[2] ticks)
 28: 0x00C2 [0x02] IF !(Work_Zone[32] == 1*) GOTO 0x00CD
 29: 0x00CA [0x05] ExtData[1]->WorkLocal[0] = 1
 30: 0x00CD [0x01] GOTO 0x0020
 31: 0x00D0 [0x00] END_REQSTACK()
```

### Event 65535.3

#### Metadata

| Field        | Value    |
|--------------|----------|
| Entrypoint   | 0x00D1   |
| Data Size    | 38 bytes |
| Instructions | 10       |

```
      00 01 02 03 04 05 06 07  08 09 0A 0B 0C 0D 0E 0F
      -- -- -- -- -- -- -- --  -- -- -- -- -- -- -- --
00D0:    32 13 80 1F 00 14 80  15 80 16 80 1F 01 6F 1E   2............o.
00E0: 76 D1 10 01 6F 70 1C 17  80 2C F8 FF FF 7F F8 FF  v...op...,......
00F0: FF 7F 63 61 62 6B 00                              ..cabk.         
```

#### Opcodes

```
  0: 0x00D1 [0x32] ExtData[1]->MainSpeed = 40* * 0.1
  1: 0x00D4 [0x1F] MOVE_ENTITY: EventEntity moves to X=89.957*, Z=-9.557*, Y=20.077*
  2: 0x00DC [0x1F] MOVE_ENTITY: Update entity position (mode=1)
  3: 0x00DE [0x6F] WAIT_FRAME_DELAY: Yield until WaitTime reaches zero
  4: 0x00DF [0x1E] EventEntity looks at Unnamed NPC (ID: 17879414/0x0110D176) and starts talking
  5: 0x00E4 [0x6F] WAIT_FRAME_DELAY: Yield until WaitTime reaches zero
  6: 0x00E5 [0x70] WAIT_ENTITY_RENDER_FLAG: Wait while EventEntity->Render.Flags3 bit 2 is set (cancel turn if not)
  7: 0x00E6 [0x1C] WAIT(10* ticks)
  8: 0x00E9 [0x2C] CREATE_SCHEDULER_TASK: Create scheduler "cabk" with entities [EventEntity, EventEntity]
  9: 0x00F6 [0x00] END_REQSTACK()
```

### Event 65535.4

#### Metadata

| Field        | Value   |
|--------------|---------|
| Entrypoint   | 0x00F7  |
| Data Size    | 1 bytes |
| Instructions | 1       |

```
      00 01 02 03 04 05 06 07  08 09 0A 0B 0C 0D 0E 0F
      -- -- -- -- -- -- -- --  -- -- -- -- -- -- -- --
00F0:                      00                                  .        
```

#### Opcodes

```
  0: 0x00F7 [0x00] END_REQSTACK()
```

### Event 65535.5

#### Metadata

| Field        | Value    |
|--------------|----------|
| Entrypoint   | 0x00F8   |
| Data Size    | 18 bytes |
| Instructions | 4        |

```
      00 01 02 03 04 05 06 07  08 09 0A 0B 0C 0D 0E 0F
      -- -- -- -- -- -- -- --  -- -- -- -- -- -- -- --
00F0:                          22 00 2F 00 F8 FF FF 7F          "./.....
0100: 6C F8 FF FF 7F 01 80 08  80 00                    l.........      
```

#### Opcodes

```
  0: 0x00F8 [0x22] ENTITY_HIDE_FLAG(enabled=0x00)
  1: 0x00FA [0x2F] EventEntity->Render.Flags0 &= ~0x80000 // Bit 19
  2: 0x0100 [0x6C] FADE_ENTITY_COLOR(entity_id=EventEntity, end_alpha=0*, fade_time=1*)
  3: 0x0109 [0x00] END_REQSTACK()
```

### Event 65535.6

#### Metadata

| Field        | Value    |
|--------------|----------|
| Entrypoint   | 0x010A   |
| Data Size    | 10 bytes |
| Instructions | 2        |

```
      00 01 02 03 04 05 06 07  08 09 0A 0B 0C 0D 0E 0F
      -- -- -- -- -- -- -- --  -- -- -- -- -- -- -- --
0100:                                6C F8 FF FF 7F 18            l.....
0110: 80 08 80 00                                       ....            
```

#### Opcodes

```
  0: 0x010A [0x6C] FADE_ENTITY_COLOR(entity_id=EventEntity, end_alpha=128*, fade_time=1*)
  1: 0x0113 [0x00] END_REQSTACK()
```

### Event 65535.7

#### Metadata

| Field        | Value   |
|--------------|---------|
| Entrypoint   | 0x0114  |
| Data Size    | 9 bytes |
| Instructions | 3       |

```
      00 01 02 03 04 05 06 07  08 09 0A 0B 0C 0D 0E 0F
      -- -- -- -- -- -- -- --  -- -- -- -- -- -- -- --
0110:             22 00 2F 00  F8 FF FF 7F 00               "./......   
```

#### Opcodes

```
  0: 0x0114 [0x22] ENTITY_HIDE_FLAG(enabled=0x00)
  1: 0x0116 [0x2F] EventEntity->Render.Flags0 &= ~0x80000 // Bit 19
  2: 0x011C [0x00] END_REQSTACK()
```

### Event 65535.8

#### Metadata

| Field        | Value   |
|--------------|---------|
| Entrypoint   | 0x011D  |
| Data Size    | 9 bytes |
| Instructions | 3       |

```
      00 01 02 03 04 05 06 07  08 09 0A 0B 0C 0D 0E 0F
      -- -- -- -- -- -- -- --  -- -- -- -- -- -- -- --
0110:                                         22 01 2F               "./
0120: 01 F8 FF FF 7F 00                                 ......          
```

#### Opcodes

```
  0: 0x011D [0x22] ENTITY_HIDE_FLAG(enabled=0x01)
  1: 0x011F [0x2F] EventEntity->Render.Flags0 |= 0x80000 // Bit 19
  2: 0x0125 [0x00] END_REQSTACK()
```

### Event 65535.9

#### Metadata

| Field        | Value    |
|--------------|----------|
| Entrypoint   | 0x0126   |
| Data Size    | 10 bytes |
| Instructions | 2        |

```
      00 01 02 03 04 05 06 07  08 09 0A 0B 0C 0D 0E 0F
      -- -- -- -- -- -- -- --  -- -- -- -- -- -- -- --
0120:                   6C F8  FF FF 7F 01 80 08 80 00        l.........
```

#### Opcodes

```
  0: 0x0126 [0x6C] FADE_ENTITY_COLOR(entity_id=EventEntity, end_alpha=0*, fade_time=1*)
  1: 0x012F [0x00] END_REQSTACK()
```

### Event 65535.10

#### Metadata

| Field        | Value    |
|--------------|----------|
| Entrypoint   | 0x0130   |
| Data Size    | 10 bytes |
| Instructions | 2        |

```
      00 01 02 03 04 05 06 07  08 09 0A 0B 0C 0D 0E 0F
      -- -- -- -- -- -- -- --  -- -- -- -- -- -- -- --
0130: 6C F8 FF FF 7F 18 80 08  80 00                    l.........      
```

#### Opcodes

```
  0: 0x0130 [0x6C] FADE_ENTITY_COLOR(entity_id=EventEntity, end_alpha=128*, fade_time=1*)
  1: 0x0139 [0x00] END_REQSTACK()
```
