# 17105613

## Common Data

| Field            | Value                            |
|------------------|----------------------------------|
| Zone             | Southern San d'Oria [S] (ID: 80) |
| Block Size       | 5784 bytes                       |
| Total Events     | 3                                |
| References Count | 134                              |

## List of Events

| Event ID              | Entrypoint   |   Size |   Instructions |
|-----------------------|--------------|--------|----------------|
| [65535](#event-65535) | 0x0000       |      1 |              1 |
| [81](#event-81)       | 0x0001       |    242 |             33 |
| [82](#event-82)       | 0x00F3       |   4975 |            615 |

## DAT References (imed_data)

|   Index | Hex Value   |   Dec Value |
|---------|-------------|-------------|
|       0 | 0x0013      |          19 |
|       1 | 0xFFFD671E  |  4294797086 |
|       2 | 0xDC8D      |       56461 |
|       3 | 0xFFFFF830  |  4294965296 |
|       4 | 0x01E6      |         486 |
|       5 | 0xFFFD6DA1  |  4294798753 |
|       6 | 0xD8BC      |       55484 |
|       7 | 0x093F      |        2367 |
|       8 | 0x000F      |          15 |
|       9 | 0x01B2      |         434 |
|      10 | 0x0000      |           0 |
|      11 | 0x0513      |        1299 |
|      12 | 0x0515      |        1301 |
|      13 | 0x3543      |       13635 |
|      14 | 0x3544      |       13636 |
|      15 | 0x0014      |          20 |
|      16 | 0x001E      |          30 |
|      17 | 0x00C8      |         200 |
|      18 | 0x0015      |          21 |
|      19 | 0x04F8      |        1272 |
|      20 | 0x3545      |       13637 |
|      21 | 0x0028      |          40 |
|      22 | 0x059D      |        1437 |
|      23 | 0x3546      |       13638 |
|      24 | 0xFFFD564C  |  4294792780 |
|      25 | 0xE2E4      |       58084 |
|      26 | 0xFFFFF769  |  4294965097 |
|      27 | 0x0F94      |        3988 |
|      28 | 0x0064      |         100 |
|      29 | 0x0D2A      |        3370 |
|      30 | 0x003C      |          60 |
|      31 | 0x0032      |          50 |
|      32 | 0x0EB4      |        3764 |
|      33 | 0x00E6      |         230 |
|      34 | 0x3547      |       13639 |
|      35 | 0xFFFD7CAA  |  4294802602 |
|      36 | 0xF9A2      |       63906 |
|      37 | 0x015E      |         350 |
|      38 | 0xFFFD704F  |  4294799439 |
|      39 | 0xF381      |       62337 |
|      40 | 0x0FA0      |        4000 |
|      41 | 0xFFFD8769  |  4294805353 |
|      42 | 0xE51E      |       58654 |
|      43 | 0x09A8      |        2472 |
|      44 | 0xFFFD840D  |  4294804493 |
|      45 | 0xF408      |       62472 |
|      46 | 0x0710      |        1808 |
|      47 | 0xFFFD7054  |  4294799444 |
|      48 | 0xE921      |       59681 |
|      49 | 0x0EE0      |        3808 |
|      50 | 0xFFFD77DE  |  4294801374 |
|      51 | 0xE318      |       58136 |
|      52 | 0x0C88      |        3208 |
|      53 | 0x0050      |          80 |
|      54 | 0x3331      |       13105 |
|      55 | 0x3548      |       13640 |
|      56 | 0x0005      |           5 |
|      57 | 0x000A      |          10 |
|      58 | 0x04F9      |        1273 |
|      59 | 0x3549      |       13641 |
|      60 | 0x354A      |       13642 |
|      61 | 0x092E      |        2350 |
|      62 | 0x354B      |       13643 |
|      63 | 0x354C      |       13644 |
|      64 | 0x05DF      |        1503 |
|      65 | 0x354D      |       13645 |
|      66 | 0x354E      |       13646 |
|      67 | 0x354F      |       13647 |
|      68 | 0x3550      |       13648 |
|      69 | 0x04B0      |        1200 |
|      70 | 0x3551      |       13649 |
|      71 | 0x3552      |       13650 |
|      72 | 0x092D      |        2349 |
|      73 | 0x3553      |       13651 |
|      74 | 0x3554      |       13652 |
|      75 | 0x05E4      |        1508 |
|      76 | 0x005A      |          90 |
|      77 | 0x0096      |         150 |
|      78 | 0xFFFD64FD  |  4294796541 |
|      79 | 0xECFE      |       60670 |
|      80 | 0x0EDF      |        3807 |
|      81 | 0xFFFD8EC7  |  4294807239 |
|      82 | 0xE74E      |       59214 |
|      83 | 0x017C      |         380 |
|      84 | 0x08A0      |        2208 |
|      85 | 0x3555      |       13653 |
|      86 | 0x3556      |       13654 |
|      87 | 0x3557      |       13655 |
|      88 | 0x05E0      |        1504 |
|      89 | 0x3558      |       13656 |
|      90 | 0x3559      |       13657 |
|      91 | 0x01FE      |         510 |
|      92 | 0x355A      |       13658 |
|      93 | 0x0067      |         103 |
|      94 | 0x9193      |       37267 |
|      95 | 0xFFFFD5D8  |  4294956504 |
|      96 | 0xFFFFFFD2  |  4294967250 |
|      97 | 0xFFFD8EB4  |  4294807220 |
|      98 | 0xDA83      |       55939 |
|      99 | 0xFFFFFA1F  |  4294965791 |
|     100 | 0xFFFD52D6  |  4294791894 |
|     101 | 0xEB33      |       60211 |
|     102 | 0xFFFFFD10  |  4294966544 |
|     103 | 0x08D1      |        2257 |
|     104 | 0x0812      |        2066 |
|     105 | 0x0929      |        2345 |
|     106 | 0x0811      |        2065 |
|     107 | 0x355B      |       13659 |
|     108 | 0x355C      |       13660 |
|     109 | 0x355D      |       13661 |
|     110 | 0x355E      |       13662 |
|     111 | 0x355F      |       13663 |
|     112 | 0xFFFEC6D5  |  4294887125 |
|     113 | 0x93A2      |       37794 |
|     114 | 0xFFFFFFFF  |  4294967295 |
|     115 | 0xFFFEA595  |  4294878613 |
|     116 | 0xA8F9      |       43257 |
|     117 | 0xFFFFFF92  |  4294967186 |
|     118 | 0xFFFE90F6  |  4294873334 |
|     119 | 0x9C94      |       40084 |
|     120 | 0x0237      |         567 |
|     121 | 0xFFFE905E  |  4294873182 |
|     122 | 0x811C      |       33052 |
|     123 | 0xFFFFFF52  |  4294967122 |
|     124 | 0xFFFE78B6  |  4294867126 |
|     125 | 0x8E12      |       36370 |
|     126 | 0x006F      |         111 |
|     127 | 0x0046      |          70 |
|     128 | 0x00A1      |         161 |
|     129 | 0x0007      |           7 |
|     130 | 0x0003      |           3 |
|     131 | 0x008C      |         140 |
|     132 | 0x0001      |           1 |
|     133 | 0x00C9      |         201 |

## String References

- **13105**: @@

## Events

### Event 65535

#### Metadata

| Field        | Value   |
|--------------|---------|
| Entrypoint   | 0x0000  |
| Data Size    | 1 bytes |
| Instructions | 1       |

```
      00 01 02 03 04 05 06 07  08 09 0A 0B 0C 0D 0E 0F
      -- -- -- -- -- -- -- --  -- -- -- -- -- -- -- --
0000: 00                                                .               
```

#### Opcodes

```
  0: 0x0000 [0x00] END_REQSTACK()
```

### Event 81

#### Metadata

| Field        | Value     |
|--------------|-----------|
| Entrypoint   | 0x0001    |
| Data Size    | 242 bytes |
| Instructions | 33        |

```
      00 01 02 03 04 05 06 07  08 09 0A 0B 0C 0D 0E 0F
      -- -- -- -- -- -- -- --  -- -- -- -- -- -- -- --
0000:    42 1A FF 13 46 01 38  00 80 79 00 F0 FF FF 7F   B...F.8..y.....
0010: F0 FF FF 7F 79 00 07 02  05 01 07 02 05 01 92 01  ....y...........
0020: 07 02 05 01 94 01 F0 FF  FF 7F 94 01 07 02 05 01  ................
0030: 80 F0 FF FF 7F 80 07 02  05 01 BA F0 FF FF 7F 01  ................
0040: 80 02 80 03 80 04 80 BA  07 02 05 01 05 80 06 80  ................
0050: 03 80 07 80 1C 08 80 45  09 80 F0 FF FF 7F F0 FF  .......E........
0060: FF 7F 73 30 30 30 0A 80  5B 0B 80 07 02 05 01 07  ..s000..[.......
0070: 02 05 01 66 64 30 31 5B  0C 80 07 02 05 01 07 02  ...fd01[........
0080: 05 01 6B 65 69 30 1A DE  13 2B 07 02 05 01 0D 80  ..kei0...+......
0090: 23 2B 07 02 05 01 0E 80  23 5B 0B 80 07 02 05 01  #+......#[......
00A0: 07 02 05 01 66 64 30 30  1C 0F 80 1A FF 13 52 09  ....fd00......R.
00B0: 80 F0 FF FF 7F F0 FF FF  7F 73 30 30 30 5B 0C 80  .........s000[..
00C0: 07 02 05 01 07 02 05 01  6B 65 69 31 5B 0B 80 07  ........kei1[...
00D0: 02 05 01 07 02 05 01 66  30 30 30 1C 10 80 46 00  .......f000...F.
00E0: 45 11 80 F0 FF FF 7F F0  FF FF 7F 66 64 69 32 0A  E..........fdi2.
00F0: 80 21 00                                          .!.             
```

#### Opcodes

```
  0: 0x0001 [0x42] SET_CLI_EVENT_CANCEL_DATA()
  1: 0x0002 [0x1A] CALL_SUBROUTINE(address=0x13FF)
  2: 0x0005 [0x46] CAMERA_CONTROL: Disable user control
  3: 0x0007 [0x38] SET_CLIENT_EVENT_MODE(mode=19*)
  4: 0x000A [0x79] LocalPlayer looks at LocalPlayer (Basic look)
  5: 0x0014 [0x79] Rholont (ID: 17105415/0x01050207) looks at Rholont (ID: 17105415/0x01050207) (Basic look)
  6: 0x001E [0x92] Rholont (ID: 17105415/0x01050207)->Render.Flags3 ^= 0x01
  7: 0x0024 [0x94] LocalPlayer->Render.Flags3 ^= 0x01
  8: 0x002A [0x94] Rholont (ID: 17105415/0x01050207)->Render.Flags3 ^= 0x01
  9: 0x0030 [0x80] LOAD_WAIT(entity=LocalPlayer)
 10: 0x0035 [0x80] LOAD_WAIT(entity=Rholont (ID: 17105415/0x01050207))
 11: 0x003A [0xBA] SET_ENTITY_POSITION(entity_id=LocalPlayer, pos_x=-170.210*, pos_z=56.461*, pos_y=-2.000*, direction=42.7°*)
 12: 0x0047 [0xBA] SET_ENTITY_POSITION(entity_id=Rholont (ID: 17105415/0x01050207), pos_x=-168.543*, pos_z=55.484*, pos_y=-2.000*, direction=208.0°*)
 13: 0x0054 [0x1C] WAIT(15* ticks)
 14: 0x0057 [0x45] LOAD_SCHEDULED_TASK: Load scheduler "s000" with entities [LocalPlayer, LocalPlayer], work=[434*, 0*]
 15: 0x0068 [0x5B] LOAD_EXT_SCHEDULER: Load scheduler "fd01" with entities [Rholont (ID: 17105415/0x01050207), Rholont (ID: 17105415/0x01050207)], work=1299*
 16: 0x0077 [0x5B] LOAD_EXT_SCHEDULER: Load scheduler "kei0" with entities [Rholont (ID: 17105415/0x01050207), Rholont (ID: 17105415/0x01050207)], work=1301*
 17: 0x0086 [0x1A] CALL_SUBROUTINE(address=0x13DE)
 18: 0x0089 [0x2B] Rholont (ID: 17105415/0x01050207) [13635*]:
    → "I bear a message from Captain Rahal:"
 19: 0x0090 [0x23] WAIT_FOR_DIALOG_INTERACTION
 20: 0x0091 [0x2B] Rholont (ID: 17105415/0x01050207) [13636*]:
    → ""The Knights of the Swiftwing Griffin are to convene at headquarters from sundown.""
 21: 0x0098 [0x23] WAIT_FOR_DIALOG_INTERACTION
 22: 0x0099 [0x5B] LOAD_EXT_SCHEDULER: Load scheduler "fd00" with entities [Rholont (ID: 17105415/0x01050207), Rholont (ID: 17105415/0x01050207)], work=1299*
 23: 0x00A8 [0x1C] WAIT(20* ticks)
 24: 0x00AB [0x1A] CALL_SUBROUTINE(address=0x13FF)
 25: 0x00AE [0x52] END_LOAD_SCHEDULER: End scheduler "s000" with entities [LocalPlayer, LocalPlayer], work=434*
 26: 0x00BD [0x5B] LOAD_EXT_SCHEDULER: Load scheduler "kei1" with entities [Rholont (ID: 17105415/0x01050207), Rholont (ID: 17105415/0x01050207)], work=1301*
 27: 0x00CC [0x5B] LOAD_EXT_SCHEDULER: Load scheduler "f000" with entities [Rholont (ID: 17105415/0x01050207), Rholont (ID: 17105415/0x01050207)], work=1299*
 28: 0x00DB [0x1C] WAIT(30* ticks)
 29: 0x00DE [0x46] CAMERA_CONTROL: Restore default settings
 30: 0x00E0 [0x45] LOAD_SCHEDULED_TASK: Load scheduler "fdi2" with entities [LocalPlayer, LocalPlayer], work=[200*, 0*]
 31: 0x00F1 [0x21] END_EVENT
 32: 0x00F2 [0x00] END_REQSTACK()
```

### Event 82

#### Metadata

| Field        | Value      |
|--------------|------------|
| Entrypoint   | 0x00F3     |
| Data Size    | 4975 bytes |
| Instructions | 609        |

```
      00 01 02 03 04 05 06 07  08 09 0A 0B 0C 0D 0E 0F
      -- -- -- -- -- -- -- --  -- -- -- -- -- -- -- --
00F0:          42 1A FF 13 46  01 38 00 80 79 00 F0 FF     B...F.8..y...
0100: FF 7F F0 FF FF 7F 79 00  07 02 05 01 07 02 05 01  ......y.........
0110: 92 01 07 02 05 01 92 01  0F 02 05 01 92 01 39 02  ..............9.
0120: 05 01 92 01 09 02 05 01  92 01 27 02 05 01 92 01  ..........'.....
0130: 28 02 05 01 92 01 10 02  05 01 92 01 CF 02 05 01  (...............
0140: 92 01 0A 02 05 01 92 01  CE 02 05 01 92 01 2B 02  ..............+.
0150: 05 01 92 01 2C 02 05 01  92 01 2D 02 05 01 92 01  ....,.....-.....
0160: 2E 02 05 01 92 01 2F 02  05 01 94 01 F0 FF FF 7F  ....../.........
0170: 94 01 07 02 05 01 94 01  39 02 05 01 94 01 09 02  ........9.......
0180: 05 01 94 01 27 02 05 01  94 01 28 02 05 01 94 01  ....'.....(.....
0190: 10 02 05 01 94 01 CF 02  05 01 94 01 0A 02 05 01  ................
01A0: 94 01 CE 02 05 01 94 01  2B 02 05 01 94 01 2C 02  ........+.....,.
01B0: 05 01 94 01 2D 02 05 01  94 01 2E 02 05 01 94 01  ....-...........
01C0: 2F 02 05 01 4E 00 39 02  05 01 4E 00 09 02 05 01  /...N.9...N.....
01D0: 4E 00 27 02 05 01 4E 00  28 02 05 01 4E 00 10 02  N.'...N.(...N...
01E0: 05 01 4E 00 CF 02 05 01  4E 00 0A 02 05 01 4E 00  ..N.....N.....N.
01F0: CE 02 05 01 4E 00 2B 02  05 01 4E 00 2C 02 05 01  ....N.+...N.,...
0200: 4E 00 2D 02 05 01 4E 00  2E 02 05 01 4E 00 2F 02  N.-...N.....N./.
0210: 05 01 BA F0 FF FF 7F 01  80 02 80 03 80 04 80 BA  ................
0220: 07 02 05 01 05 80 06 80  03 80 07 80 BA 0F 02 05  ................
0230: 01 0A 80 0A 80 0A 80 0A  80 BA 39 02 05 01 0A 80  ..........9.....
0240: 0A 80 0A 80 0A 80 BA 09  02 05 01 0A 80 0A 80 0A  ................
0250: 80 0A 80 BA 27 02 05 01  0A 80 0A 80 0A 80 0A 80  ....'...........
0260: BA 28 02 05 01 0A 80 0A  80 0A 80 0A 80 BA 10 02  .(..............
0270: 05 01 0A 80 0A 80 0A 80  0A 80 BA 0A 02 05 01 0A  ................
0280: 80 0A 80 0A 80 0A 80 BA  2B 02 05 01 0A 80 0A 80  ........+.......
0290: 0A 80 0A 80 BA 2C 02 05  01 0A 80 0A 80 0A 80 0A  .....,..........
02A0: 80 BA 2D 02 05 01 0A 80  0A 80 0A 80 0A 80 BA 2E  ..-.............
02B0: 02 05 01 0A 80 0A 80 0A  80 0A 80 BA 2F 02 05 01  ............/...
02C0: 0A 80 0A 80 0A 80 0A 80  80 F0 FF FF 7F 80 07 02  ................
02D0: 05 01 80 39 02 05 01 80  09 02 05 01 80 27 02 05  ...9.........'..
02E0: 01 80 28 02 05 01 80 10  02 05 01 80 0A 02 05 01  ..(.............
02F0: 80 2B 02 05 01 80 2C 02  05 01 80 2D 02 05 01 80  .+....,....-....
0300: 2E 02 05 01 80 2F 02 05  01 79 00 F0 FF FF 7F F0  ...../...y......
0310: FF FF 7F 79 00 07 02 05  01 07 02 05 01 4A F0 FF  ...y.........J..
0320: FF 7F 07 02 05 01 6F 76  F0 FF FF 7F 7B F0 FF FF  ......ov....{...
0330: 7F 77 12 80 0A 80 1C 10  80 AB 09 1C 08 80 45 09  .w............E.
0340: 80 F0 FF FF 7F F0 FF FF  7F 73 30 30 31 0A 80 5B  .........s001..[
0350: 0B 80 07 02 05 01 07 02  05 01 00 FE FE FE 5B 0C  ..............[.
0360: 80 07 02 05 01 07 02 05  01 00 FE FE FE 5B 0B 80  .............[..
0370: 07 02 05 01 07 02 05 01  66 68 30 31 5B 13 80 07  ........fh01[...
0380: 02 05 01 07 02 05 01 74  6C 61 30 1A DE 13 2B 07  .......tla0...+.
0390: 02 05 01 14 80 23 53 07  02 05 01 07 02 05 01 74  .....#S........t
03A0: 6C 61 30 5B 0B 80 07 02  05 01 07 02 05 01 66 68  la0[..........fh
03B0: 30 30 1C 15 80 52 09 80  F0 FF FF 7F F0 FF FF 7F  00...R..........
03C0: 73 30 30 31 45 09 80 F0  FF FF 7F F0 FF FF 7F 73  s001E..........s
03D0: 30 31 34 0A 80 5B 13 80  07 02 05 01 07 02 05 01  014..[..........
03E0: 74 6C 61 31 5B 16 80 07  02 05 01 07 02 05 01 73  tla1[..........s
03F0: 61 67 30 2B 07 02 05 01  17 80 23 BA 09 02 05 01  ag0+......#.....
0400: 18 80 19 80 1A 80 1B 80  80 09 02 05 01 7B 09 02  .............{..
0410: 05 01 55 09 80 F0 FF FF  7F F0 FF FF 7F 73 30 31  ..U..........s01
0420: 34 52 09 80 F0 FF FF 7F  F0 FF FF 7F 73 30 31 34  4R..........s014
0430: 45 09 80 F0 FF FF 7F F0  FF FF 7F 73 30 31 39 0A  E..........s019.
0440: 80 5B 0B 80 07 02 05 01  07 02 05 01 66 30 30 30  .[..........f000
0450: 5B 0C 80 07 02 05 01 07  02 05 01 73 74 64 30 27  [..........std0'
0460: 0F 09 02 05 01 15 1C 1C  80 59 01 07 02 05 01 15  .........Y......
0470: 80 4B 07 02 05 01 1D 80  7B 07 02 05 01 1C 1E 80  .K......{.......
0480: 59 01 F0 FF FF 7F 1F 80  4B F0 FF FF 7F 20 80 6F  Y.......K.... .o
0490: 76 F0 FF FF 7F 7B F0 FF  FF 7F 1C 21 80 59 01 07  v....{.....!.Y..
04A0: 02 05 01 15 80 4B 07 02  05 01 07 80 7B 07 02 05  .....K......{...
04B0: 01 1C 0F 80 52 09 80 F0  FF FF 7F F0 FF FF 7F 73  ....R..........s
04C0: 30 31 39 45 09 80 F0 FF  FF 7F F0 FF FF 7F 73 30  019E..........s0
04D0: 34 33 0A 80 1C 1F 80 59  01 F0 FF FF 7F 1F 80 4B  43.....Y.......K
04E0: F0 FF FF 7F 04 80 6F 76  F0 FF FF 7F 7B F0 FF FF  ......ov....{...
04F0: 7F 5B 0B 80 07 02 05 01  07 02 05 01 66 64 30 31  .[..........fd01
0500: 5B 0C 80 07 02 05 01 07  02 05 01 6B 65 69 30 52  [..........kei0R
0510: 09 80 F0 FF FF 7F F0 FF  FF 7F 73 30 34 33 45 09  ..........s043E.
0520: 80 F0 FF FF 7F F0 FF FF  7F 73 30 30 30 0A 80 2B  .........s000..+
0530: 07 02 05 01 22 80 23 53  07 02 05 01 07 02 05 01  ....".#S........
0540: 6B 65 69 30 5B 0B 80 07  02 05 01 07 02 05 01 66  kei0[..........f
0550: 64 30 30 1C 10 80 1A FF  13 52 09 80 F0 FF FF 7F  d00......R......
0560: F0 FF FF 7F 73 30 30 30  5B 0C 80 07 02 05 01 07  ....s000[.......
0570: 02 05 01 6B 65 69 31 5B  0B 80 07 02 05 01 07 02  ...kei1[........
0580: 05 01 66 30 30 30 7A 00  09 02 05 01 BA F0 FF FF  ..f000z.........
0590: 7F 23 80 24 80 03 80 25  80 BA 07 02 05 01 26 80  .#.$...%......&.
05A0: 27 80 03 80 28 80 BA 39  02 05 01 29 80 2A 80 03  '...(..9...).*..
05B0: 80 2B 80 BA 09 02 05 01  2C 80 2D 80 03 80 2E 80  .+......,.-.....
05C0: BA 27 02 05 01 2F 80 30  80 03 80 31 80 BA 28 02  .'.../.0...1..(.
05D0: 05 01 32 80 33 80 03 80  34 80 7B F0 FF FF 7F 7B  ..2.3...4.{....{
05E0: 07 02 05 01 7B 39 02 05  01 7B 09 02 05 01 7B 27  ....{9...{....{'
05F0: 02 05 01 7B 28 02 05 01  80 F0 FF FF 7F 80 07 02  ...{(...........
0600: 05 01 80 39 02 05 01 80  09 02 05 01 80 27 02 05  ...9.........'..
0610: 01 80 28 02 05 01 4A F0  FF FF 7F 09 02 05 01 7B  ..(...J........{
0620: F0 FF FF 7F 6F 76 F0 FF  FF 7F 1C 35 80 48 36 80  ....ov.....5.H6.
0630: 23 45 09 80 F0 FF FF 7F  F0 FF FF 7F 73 30 31 30  #E..........s010
0640: 0A 80 1A DE 13 5B 13 80  09 02 05 01 09 02 05 01  .....[..........
0650: 74 6C 62 30 2B 09 02 05  01 37 80 23 5B 13 80 09  tlb0+....7.#[...
0660: 02 05 01 09 02 05 01 74  6C 62 31 4A F0 FF FF 7F  .......tlb1J....
0670: 09 02 05 01 4A 07 02 05  01 09 02 05 01 1C 38 80  ....J.........8.
0680: 4A 27 02 05 01 09 02 05  01 1C 38 80 4A 28 02 05  J'........8.J(..
0690: 01 09 02 05 01 1C 39 80  7B F0 FF FF 7F 7B 07 02  ......9.{....{..
06A0: 05 01 7B 27 02 05 01 7B  28 02 05 01 6F 76 F0 FF  ..{'...{(...ov..
06B0: FF 7F 6F 76 07 02 05 01  6F 76 27 02 05 01 6F 76  ..ov....ov'...ov
06C0: 28 02 05 01 1C 10 80 52  09 80 F0 FF FF 7F F0 FF  (......R........
06D0: FF 7F 73 30 31 30 45 09  80 F0 FF FF 7F F0 FF FF  ..s010E.........
06E0: 7F 73 30 32 38 0A 80 5B  3A 80 09 02 05 01 09 02  .s028..[:.......
06F0: 05 01 74 68 61 30 2B 09  02 05 01 3B 80 23 5B 3A  ..tha0+....;.#[:
0700: 80 09 02 05 01 09 02 05  01 74 68 61 31 5B 0B 80  .........tha1[..
0710: 28 02 05 01 28 02 05 01  66 68 30 30 5B 16 80 28  (...(...fh00[..(
0720: 02 05 01 28 02 05 01 67  6D 65 30 1C 15 80 52 09  ...(...gme0...R.
0730: 80 F0 FF FF 7F F0 FF FF  7F 73 30 32 38 45 09 80  .........s028E..
0740: F0 FF FF 7F F0 FF FF 7F  73 30 30 32 0A 80 2B 28  ........s002..+(
0750: 02 05 01 3C 80 23 1C 0F  80 52 09 80 F0 FF FF 7F  ...<.#...R......
0760: F0 FF FF 7F 73 30 30 32  45 09 80 F0 FF FF 7F F0  ....s002E.......
0770: FF FF 7F 73 30 32 39 0A  80 1C 35 80 5B 3D 80 27  ...s029...5.[=.'
0780: 02 05 01 27 02 05 01 73  68 74 30 2B 27 02 05 01  ...'...sht0+'...
0790: 3E 80 23 53 27 02 05 01  27 02 05 01 73 68 74 30  >.#S'...'...sht0
07A0: 1C 0F 80 52 09 80 F0 FF  FF 7F F0 FF FF 7F 73 30  ...R..........s0
07B0: 32 39 45 09 80 F0 FF FF  7F F0 FF FF 7F 73 30 31  29E..........s01
07C0: 31 0A 80 5B 3D 80 27 02  05 01 27 02 05 01 73 68  1..[=.'...'...sh
07D0: 74 31 5B 0B 80 28 02 05  01 28 02 05 01 66 30 30  t1[..(...(...f00
07E0: 30 5B 0C 80 28 02 05 01  28 02 05 01 73 74 64 30  0[..(...(...std0
07F0: 53 09 02 05 01 09 02 05  01 74 68 61 31 5B 0B 80  S........tha1[..
0800: 09 02 05 01 09 02 05 01  66 64 30 31 5B 13 80 09  ........fd01[...
0810: 02 05 01 09 02 05 01 74  6C 62 30 2B 09 02 05 01  .......tlb0+....
0820: 3F 80 23 5B 13 80 09 02  05 01 09 02 05 01 74 6C  ?.#[..........tl
0830: 62 31 5B 0B 80 09 02 05  01 09 02 05 01 66 30 30  b1[..........f00
0840: 30 5B 40 80 07 02 05 01  07 02 05 01 72 6F 68 30  0[@.........roh0
0850: 1C 0F 80 52 09 80 F0 FF  FF 7F F0 FF FF 7F 73 30  ...R..........s0
0860: 31 31 45 09 80 F0 FF FF  7F F0 FF FF 7F 73 30 32  11E..........s02
0870: 37 0A 80 5B 40 80 07 02  05 01 07 02 05 01 72 6F  7..[@.........ro
0880: 68 31 1C 0F 80 4A 09 02  05 01 07 02 05 01 7B 09  h1...J........{.
0890: 02 05 01 1C 10 80 4A F0  FF FF 7F 07 02 05 01 7B  ......J........{
08A0: F0 FF FF 7F 2B 07 02 05  01 41 80 23 1C 0F 80 52  ....+....A.#...R
08B0: 09 80 F0 FF FF 7F F0 FF  FF 7F 73 30 32 37 45 09  ..........s027E.
08C0: 80 F0 FF FF 7F F0 FF FF  7F 73 30 31 33 0A 80 2B  .........s013..+
08D0: 07 02 05 01 42 80 23 27  10 09 02 05 01 17 2B 09  ....B.#'......+.
08E0: 02 05 01 43 80 23 2A 10  09 02 05 01 52 09 80 F0  ...C.#*.....R...
08F0: FF FF 7F F0 FF FF 7F 73  30 31 33 45 09 80 F0 FF  .......s013E....
0900: FF 7F F0 FF FF 7F 73 30  31 32 0A 80 5B 0C 80 07  ......s012..[...
0910: 02 05 01 07 02 05 01 73  74 64 30 2B 0F 02 05 01  .......std0+....
0920: 44 80 23 1C 0F 80 53 09  02 05 01 09 02 05 01 6C  D.#...S........l
0930: 61 75 30 1C 10 80 59 01  09 02 05 01 1E 80 4B 09  au0...Y.......K.
0940: 02 05 01 45 80 6F 76 09  02 05 01 79 00 09 02 05  ...E.ov....y....
0950: 01 39 02 05 01 1C 08 80  4A F0 FF FF 7F 39 02 05  .9......J....9..
0960: 01 7B F0 FF FF 7F 4A 07  02 05 01 39 02 05 01 6F  .{....J....9...o
0970: 76 07 02 05 01 79 00 07  02 05 01 39 02 05 01 2B  v....y.....9...+
0980: 09 02 05 01 46 80 23 1C  10 80 52 09 80 F0 FF FF  ....F.#...R.....
0990: 7F F0 FF FF 7F 73 30 31  32 45 09 80 F0 FF FF 7F  .....s012E......
09A0: F0 FF FF 7F 73 30 32 30  0A 80 2B 0F 02 05 01 47  ....s020..+....G
09B0: 80 23 1C 10 80 52 09 80  F0 FF FF 7F F0 FF FF 7F  .#...R..........
09C0: 73 30 32 30 45 09 80 F0  FF FF 7F F0 FF FF 7F 30  s020E..........0
09D0: 30 30 30 0A 80 55 09 80  F0 FF FF 7F F0 FF FF 7F  000..U..........
09E0: 30 30 30 30 52 09 80 F0  FF FF 7F F0 FF FF 7F 30  0000R..........0
09F0: 30 30 30 45 09 80 F0 FF  FF 7F F0 FF FF 7F 73 30  000E..........s0
0A00: 32 35 0A 80 1C 0F 80 4A  09 02 05 01 F0 FF FF 7F  25.....J........
0A10: 7B 09 02 05 01 6F 76 09  02 05 01 1C 39 80 4A F0  {....ov.....9.J.
0A20: FF FF 7F 09 02 05 01 7B  F0 FF FF 7F 4A 07 02 05  .......{....J...
0A30: 01 09 02 05 01 6F 76 07  02 05 01 7B 07 02 05 01  .....ov....{....
0A40: 5B 48 80 09 02 05 01 09  02 05 01 70 61 73 30 27  [H.........pas0'
0A50: 10 D0 02 05 01 02 2B 09  02 05 01 49 80 23 1C 0F  ......+....I.#..
0A60: 80 2A 10 D0 02 05 01 53  09 02 05 01 09 02 05 01  .*.....S........
0A70: 70 61 73 30 52 09 80 F0  FF FF 7F F0 FF FF 7F 73  pas0R..........s
0A80: 30 32 35 45 09 80 F0 FF  FF 7F F0 FF FF 7F 73 30  025E..........s0
0A90: 32 36 0A 80 5B 0B 80 09  02 05 01 09 02 05 01 66  26..[..........f
0AA0: 64 30 31 2B 09 02 05 01  4A 80 23 5B 0B 80 09 02  d01+....J.#[....
0AB0: 05 01 09 02 05 01 66 64  30 30 1C 1F 80 5B 0C 80  ......fd00...[..
0AC0: 07 02 05 01 07 02 05 01  00 FE FE FE 5B 0C 80 27  ............[..'
0AD0: 02 05 01 27 02 05 01 00  FE FE FE 5B 0C 80 28 02  ...'.......[..(.
0AE0: 05 01 28 02 05 01 00 FE  FE FE 52 09 80 F0 FF FF  ..(.......R.....
0AF0: 7F F0 FF FF 7F 73 30 32  36 45 09 80 F0 FF FF 7F  .....s026E......
0B00: F0 FF FF 7F 73 30 32 32  0A 80 5B 0B 80 09 02 05  ....s022..[.....
0B10: 01 09 02 05 01 66 30 30  30 1C 10 80 59 01 09 02  .....f000...Y...
0B20: 05 01 1E 80 4B 09 02 05  01 2E 80 6F 76 09 02 05  ....K......ov...
0B30: 01 7B 09 02 05 01 1C 0F  80 59 01 F0 FF FF 7F 1F  .{.......Y......
0B40: 80 4B F0 FF FF 7F 4B 80  6F 76 F0 FF FF 7F 7B F0  .K....K.ov....{.
0B50: FF FF 7F 5B 13 80 09 02  05 01 09 02 05 01 74 6C  ...[..........tl
0B60: 62 30 1C 1E 80 5B 13 80  09 02 05 01 09 02 05 01  b0...[..........
0B70: 74 6C 62 31 1C 1E 80 5B  0C 80 07 02 05 01 07 02  tlb1...[........
0B80: 05 01 6B 65 69 30 5B 0C  80 27 02 05 01 27 02 05  ..kei0[..'...'..
0B90: 01 6B 65 69 30 5B 0C 80  28 02 05 01 28 02 05 01  .kei0[..(...(...
0BA0: 6B 65 69 30 1C 1F 80 5B  0C 80 07 02 05 01 07 02  kei0...[........
0BB0: 05 01 6B 65 69 31 5B 0C  80 27 02 05 01 27 02 05  ..kei1[..'...'..
0BC0: 01 6B 65 69 31 5B 0C 80  28 02 05 01 28 02 05 01  .kei1[..(...(...
0BD0: 6B 65 69 31 1C 4C 80 59  01 09 02 05 01 1F 80 4B  kei1.L.Y.......K
0BE0: 09 02 05 01 31 80 6F 76  09 02 05 01 7B 09 02 05  ....1.ov....{...
0BF0: 01 27 0F 09 02 05 01 16  5D 1E 80 25 80 1C 1F 80  .'......]..%....
0C00: 4A 07 02 05 01 39 02 05  01 7B 07 02 05 01 6F 76  J....9...{....ov
0C10: 07 02 05 01 27 0F 07 02  05 01 94 1C 39 80 4A 27  ....'.......9.J'
0C20: 02 05 01 28 02 05 01 7B  27 02 05 01 6F 76 27 02  ...(...{'...ov'.
0C30: 05 01 5B 13 80 27 02 05  01 27 02 05 01 74 6C 62  ..[..'...'...tlb
0C40: 30 1C 08 80 4A 28 02 05  01 27 02 05 01 7B 28 02  0...J(...'...{(.
0C50: 05 01 6F 76 28 02 05 01  5B 13 80 27 02 05 01 27  ..ov(...[..'...'
0C60: 02 05 01 74 6C 62 31 1C  39 80 5B 13 80 28 02 05  ...tlb1.9.[..(..
0C70: 01 28 02 05 01 74 6C 61  30 4A F0 FF FF 7F 09 02  .(...tla0J......
0C80: 05 01 7B F0 FF FF 7F 1C  08 80 5B 13 80 28 02 05  ..{.......[..(..
0C90: 01 28 02 05 01 74 6C 61  31 52 09 80 F0 FF FF 7F  .(...tla1R......
0CA0: F0 FF FF 7F 73 30 32 32  45 09 80 F0 FF FF 7F F0  ....s022E.......
0CB0: FF FF 7F 73 30 32 33 0A  80 1C 4D 80 1A FF 13 7A  ...s023...M....z
0CC0: 00 09 02 05 01 52 09 80  F0 FF FF 7F F0 FF FF 7F  .....R..........
0CD0: 73 30 32 33 5B 0B 80 07  02 05 01 07 02 05 01 66  s023[..........f
0CE0: 30 30 30 5B 0B 80 09 02  05 01 09 02 05 01 66 30  000[..........f0
0CF0: 30 30 4A 09 02 05 01 09  02 05 01 4A F0 FF FF 7F  00J........J....
0D00: F0 FF FF 7F 7B 09 02 05  01 7B F0 FF FF 7F 6F 76  ....{....{....ov
0D10: 09 02 05 01 6F 76 F0 FF  FF 7F BA F0 FF FF 7F 4E  ....ov.........N
0D20: 80 4F 80 03 80 50 80 BA  07 02 05 01 0A 80 0A 80  .O...P..........
0D30: 0A 80 0A 80 BA 39 02 05  01 0A 80 0A 80 0A 80 0A  .....9..........
0D40: 80 BA 09 02 05 01 51 80  52 80 03 80 31 80 BA 27  ......Q.R...1..'
0D50: 02 05 01 0A 80 0A 80 0A  80 0A 80 BA 28 02 05 01  ............(...
0D60: 0A 80 0A 80 0A 80 0A 80  4A F0 FF FF 7F 09 02 05  ........J.......
0D70: 01 79 00 F0 FF FF 7F F0  FF FF 7F 7B F0 FF FF 7F  .y.........{....
0D80: 7B 09 02 05 01 80 F0 FF  FF 7F 80 09 02 05 01 1C  {...............
0D90: 35 80 48 36 80 23 45 09  80 F0 FF FF 7F F0 FF FF  5.H6.#E.........
0DA0: 7F 73 30 32 34 0A 80 1A  DE 13 1C 1C 80 27 10 F0  .s024........'..
0DB0: FF FF 7F 33 52 09 80 F0  FF FF 7F F0 FF FF 7F 73  ...3R..........s
0DC0: 30 32 34 45 09 80 F0 FF  FF 7F F0 FF FF 7F 73 30  024E..........s0
0DD0: 31 38 0A 80 1C 53 80 2A  10 F0 FF FF 7F 59 01 F0  18...S.*.....Y..
0DE0: FF FF 7F 1F 80 4A F0 FF  FF 7F 09 02 05 01 7B F0  .....J........{.
0DF0: FF FF 7F 6F 76 F0 FF FF  7F 59 01 09 02 05 01 1F  ...ov....Y......
0E00: 80 4B 09 02 05 01 54 80  7B 09 02 05 01 6F 76 09  .K....T.{....ov.
0E10: 02 05 01 1C 10 80 2B 09  02 05 01 55 80 23 1C 0F  ......+....U.#..
0E20: 80 52 09 80 F0 FF FF 7F  F0 FF FF 7F 73 30 31 38  .R..........s018
0E30: 45 09 80 F0 FF FF 7F F0  FF FF 7F 73 30 31 37 0A  E..........s017.
0E40: 80 2B 09 02 05 01 56 80  23 2B 09 02 05 01 57 80  .+....V.#+....W.
0E50: 23 5B 58 80 09 02 05 01  09 02 05 01 6B 61 69 30  #[X.........kai0
0E60: 1C 39 80 52 09 80 F0 FF  FF 7F F0 FF FF 7F 73 30  .9.R..........s0
0E70: 31 37 45 09 80 F0 FF FF  7F F0 FF FF 7F 73 30 33  17E..........s03
0E80: 34 0A 80 1C 0F 80 2B 09  02 05 01 59 80 23 53 09  4.....+....Y.#S.
0E90: 02 05 01 09 02 05 01 6B  61 69 30 1C 10 80 52 09  .......kai0...R.
0EA0: 80 F0 FF FF 7F F0 FF FF  7F 73 30 33 34 45 09 80  .........s034E..
0EB0: F0 FF FF 7F F0 FF FF 7F  73 30 31 35 0A 80 1C 10  ........s015....
0EC0: 80 2B 09 02 05 01 5A 80  23 1C 08 80 5B 58 80 09  .+....Z.#...[X..
0ED0: 02 05 01 09 02 05 01 6B  61 69 31 1C 1E 80 5D 0A  .......kai1...].
0EE0: 80 5B 80 55 09 80 F0 FF  FF 7F F0 FF FF 7F 73 30  .[.U..........s0
0EF0: 31 35 52 09 80 F0 FF FF  7F F0 FF FF 7F 73 30 31  15R..........s01
0F00: 35 45 09 80 F0 FF FF 7F  F0 FF FF 7F 73 30 30 33  5E..........s003
0F10: 0A 80 1C 39 80 2B 09 02  05 01 5C 80 23 55 09 80  ...9.+....\.#U..
0F20: F0 FF FF 7F F0 FF FF 7F  73 30 30 33 1A FF 13 52  ........s003...R
0F30: 09 80 F0 FF FF 7F F0 FF  FF 7F 73 30 30 33 5B 58  ..........s003[X
0F40: 80 09 02 05 01 09 02 05  01 6B 61 69 32 4A F0 FF  .........kai2J..
0F50: FF 7F F0 FF FF 7F 34 5D  80 77 12 80 0A 80 1C 10  ......4].w......
0F60: 80 AB 09 5C 00 0A 80 5C  01 0A 80 9A 4E 01 07 02  ...\...\....N...
0F70: 05 01 4E 01 39 02 05 01  4E 01 09 02 05 01 4E 01  ..N.9...N.....N.
0F80: 27 02 05 01 4E 01 28 02  05 01 BA F0 FF FF 7F 5E  '...N.(........^
0F90: 80 5F 80 60 80 0A 80 BA  10 02 05 01 61 80 62 80  ._.`........a.b.
0FA0: 63 80 0A 80 BA CF 02 05  01 61 80 62 80 63 80 0A  c........a.b.c..
0FB0: 80 BA 0A 02 05 01 64 80  65 80 66 80 0A 80 BA CE  ......d.e.f.....
0FC0: 02 05 01 64 80 65 80 66  80 0A 80 80 F0 FF FF 7F  ...d.e.f........
0FD0: 80 09 02 05 01 80 10 02  05 01 80 CF 02 05 01 80  ................
0FE0: 0A 02 05 01 80 CE 02 05  01 29 0F 0A 02 05 01 17  .........)......
0FF0: 29 0F CE 02 05 01 04 79  00 F0 FF FF 7F F0 FF FF  )......y........
1000: 7F 7B F0 FF FF 7F 7B 09  02 05 01 7B 10 02 05 01  .{....{....{....
1010: 7B CF 02 05 01 7B 0A 02  05 01 7B CE 02 05 01 5B  {....{....{....[
1020: 67 80 10 02 05 01 10 02  05 01 00 FE FE FE 5B 68  g.............[h
1030: 80 CF 02 05 01 CF 02 05  01 00 FE FE FE 5B 69 80  .............[i.
1040: 0A 02 05 01 0A 02 05 01  00 FE FE FE 5B 6A 80 CE  ............[j..
1050: 02 05 01 CE 02 05 01 00  FE FE FE 5B 67 80 10 02  ...........[g...
1060: 05 01 10 02 05 01 6D 6F  66 30 5B 68 80 CF 02 05  ......mof0[h....
1070: 01 CF 02 05 01 6D 6F 66  30 5B 69 80 0A 02 05 01  .....mof0[i.....
1080: 0A 02 05 01 6D 6F 65 30  5B 6A 80 CE 02 05 01 CE  ....moe0[j......
1090: 02 05 01 6D 6F 65 30 48  36 80 23 45 09 80 F0 FF  ...moe0H6.#E....
10A0: FF 7F F0 FF FF 7F 73 30  30 34 0A 80 1A DE 13 55  ......s004.....U
10B0: 09 80 F0 FF FF 7F F0 FF  FF 7F 73 30 30 34 1C 10  ..........s004..
10C0: 80 52 09 80 F0 FF FF 7F  F0 FF FF 7F 73 30 30 34  .R..........s004
10D0: 45 09 80 F0 FF FF 7F F0  FF FF 7F 73 30 30 35 0A  E..........s005.
10E0: 80 5B 67 80 10 02 05 01  10 02 05 01 6D 6F 66 31  .[g.........mof1
10F0: 5B 68 80 CF 02 05 01 CF  02 05 01 6D 6F 66 31 1C  [h.........mof1.
1100: 1C 80 2B 10 02 05 01 6B  80 23 52 09 80 F0 FF FF  ..+....k.#R.....
1110: 7F F0 FF FF 7F 73 30 30  35 45 09 80 F0 FF FF 7F  .....s005E......
1120: F0 FF FF 7F 73 30 33 30  0A 80 1C 1F 80 5B 69 80  ....s030.....[i.
1130: 0A 02 05 01 0A 02 05 01  6D 6F 65 31 5B 6A 80 CE  ........moe1[j..
1140: 02 05 01 CE 02 05 01 6D  6F 65 31 1C 10 80 2B 0A  .......moe1...+.
1150: 02 05 01 6C 80 23 53 0A  02 05 01 0A 02 05 01 6D  ...l.#S........m
1160: 6F 65 31 1C 10 80 52 09  80 F0 FF FF 7F F0 FF FF  oe1...R.........
1170: 7F 73 30 33 30 45 09 80  F0 FF FF 7F F0 FF FF 7F  .s030E..........
1180: 73 30 30 36 0A 80 2B 10  02 05 01 6D 80 23 1C 08  s006..+....m.#..
1190: 80 52 09 80 F0 FF FF 7F  F0 FF FF 7F 73 30 30 36  .R..........s006
11A0: 45 09 80 F0 FF FF 7F F0  FF FF 7F 73 30 30 37 0A  E..........s007.
11B0: 80 2B 0A 02 05 01 6E 80  23 1C 08 80 52 09 80 F0  .+....n.#...R...
11C0: FF FF 7F F0 FF FF 7F 73  30 30 37 45 09 80 F0 FF  .......s007E....
11D0: FF 7F F0 FF FF 7F 73 30  33 31 0A 80 1C 10 80 2B  ......s031.....+
11E0: 10 02 05 01 6F 80 23 1C  1F 80 BA 2B 02 05 01 70  ....o.#....+...p
11F0: 80 71 80 72 80 0A 80 BA  2C 02 05 01 73 80 74 80  .q.r....,...s.t.
1200: 75 80 0A 80 BA 2D 02 05  01 76 80 77 80 78 80 0A  u....-...v.w.x..
1210: 80 BA 2E 02 05 01 79 80  7A 80 7B 80 0A 80 BA 2F  ......y.z.{..../
1220: 02 05 01 7C 80 7D 80 7E  80 0A 80 80 2B 02 05 01  ...|.}.~....+...
1230: 80 2C 02 05 01 80 2D 02  05 01 80 2E 02 05 01 80  .,....-.........
1240: 2F 02 05 01 7B 2B 02 05  01 7B 2C 02 05 01 7B 2D  /...{+...{,...{-
1250: 02 05 01 7B 2E 02 05 01  7B 2F 02 05 01 27 0F 2B  ...{....{/...'.+
1260: 02 05 01 08 27 0F 2C 02  05 01 08 27 0F 2D 02 05  ....'.,....'.-..
1270: 01 08 27 0F 2E 02 05 01  08 27 0F 2F 02 05 01 08  ..'......'./....
1280: 52 09 80 F0 FF FF 7F F0  FF FF 7F 73 30 33 31 45  R..........s031E
1290: 09 80 F0 FF FF 7F F0 FF  FF 7F 73 30 33 32 0A 80  ..........s032..
12A0: 5B 67 80 10 02 05 01 10  02 05 01 6D 6F 66 32 5B  [g.........mof2[
12B0: 68 80 CF 02 05 01 CF 02  05 01 6D 6F 66 32 5B 0B  h.........mof2[.
12C0: 80 0A 02 05 01 0A 02 05  01 66 30 30 30 55 09 80  .........f000U..
12D0: F0 FF FF 7F F0 FF FF 7F  73 30 33 32 5B 69 80 0A  ........s032[i..
12E0: 02 05 01 0A 02 05 01 6D  6F 65 32 5B 6A 80 CE 02  .......moe2[j...
12F0: 05 01 CE 02 05 01 6D 6F  65 32 1C 7F 80 52 09 80  ......moe2...R..
1300: F0 FF FF 7F F0 FF FF 7F  73 30 33 32 45 09 80 F0  ........s032E...
1310: FF FF 7F F0 FF FF 7F 73  30 34 30 0A 80 5B 67 80  .......s040..[g.
1320: 10 02 05 01 10 02 05 01  6D 6F 66 32 5B 68 80 CF  ........mof2[h..
1330: 02 05 01 CF 02 05 01 6D  6F 66 32 1C 80 80 27 0F  .......mof2...'.
1340: 2B 02 05 01 09 1C 38 80  27 0F 2C 02 05 01 09 1C  +.....8.'.,.....
1350: 81 80 27 0F 2D 02 05 01  09 1C 82 80 27 0F 2E 02  ..'.-.......'...
1360: 05 01 09 1C 39 80 27 0F  2F 02 05 01 09 1C 4C 80  ....9.'./.....L.
1370: 52 09 80 F0 FF FF 7F F0  FF FF 7F 73 30 34 30 45  R..........s040E
1380: 09 80 F0 FF FF 7F F0 FF  FF 7F 73 30 30 39 0A 80  ..........s009..
1390: 1C 83 80 1A FF 13 35 35  80 78 1C 84 80 AB 0A 1C  ......55.x......
13A0: 10 80 29 0F 0A 02 05 01  16 52 09 80 F0 FF FF 7F  ..)......R......
13B0: F0 FF FF 7F 73 30 30 39  46 00 45 11 80 F0 FF FF  ....s009F.E.....
13C0: 7F F0 FF FF 7F 66 64 69  32 0A 80 45 85 80 F8 FF  .....fdi2..E....
13D0: FF 7F F8 FF FF 7F 71 73  74 63 0A 80 21 00 45 11  ......qstc..!.E.
13E0: 80 F0 FF FF 7F F0 FF FF  7F 66 64 69 31 0A 80 55  .........fdi1..U
13F0: 11 80 F0 FF FF 7F F0 FF  FF 7F 66 64 69 31 1B 45  ..........fdi1.E
1400: 11 80 F0 FF FF 7F F0 FF  FF 7F 66 64 6F 31 0A 80  ..........fdo1..
1410: 55 11 80 F0 FF FF 7F F0  FF FF 7F 66 64 6F 31 1B  U..........fdo1.
1420: 45 85 80 F0 FF FF 7F F0  FF FF 7F 77 68 69 31 0A  E..........whi1.
1430: 80 55 85 80 F0 FF FF 7F  F0 FF FF 7F 77 68 69 31  .U..........whi1
1440: 1B 45 85 80 F0 FF FF 7F  F0 FF FF 7F 77 68 6F 31  .E..........who1
1450: 0A 80 55 85 80 F0 FF FF  7F F0 FF FF 7F 77 68 6F  ..U..........who
1460: 31 1B                                             1.              
```

#### Opcodes

```
  0: 0x00F3 [0x42] SET_CLI_EVENT_CANCEL_DATA()
  1: 0x00F4 [0x1A] CALL_SUBROUTINE(address=0x13FF)
  2: 0x00F7 [0x46] CAMERA_CONTROL: Disable user control
  3: 0x00F9 [0x38] SET_CLIENT_EVENT_MODE(mode=19*)
  4: 0x00FC [0x79] LocalPlayer looks at LocalPlayer (Basic look)
  5: 0x0106 [0x79] Rholont (ID: 17105415/0x01050207) looks at Rholont (ID: 17105415/0x01050207) (Basic look)
  6: 0x0110 [0x92] Rholont (ID: 17105415/0x01050207)->Render.Flags3 ^= 0x01
  7: 0x0116 [0x92] Bistillot (ID: 17105423/0x0105020F)->Render.Flags3 ^= 0x01
  8: 0x011C [0x92] ??? Warmachine (ID: 17105465/0x01050239)->Render.Flags3 ^= 0x01
  9: 0x0122 [0x92] Rahal (ID: 17105417/0x01050209)->Render.Flags3 ^= 0x01
 10: 0x0128 [0x92] Cyranuce (ID: 17105447/0x01050227)->Render.Flags3 ^= 0x01
 11: 0x012E [0x92] Machegue (ID: 17105448/0x01050228)->Render.Flags3 ^= 0x01
 12: 0x0134 [0x92] Alphonimile (ID: 17105424/0x01050210)->Render.Flags3 ^= 0x01
 13: 0x013A [0x92] Unknown NPC (ID: 17105615/0x010502CF)->Render.Flags3 ^= 0x01
 14: 0x0140 [0x92] Excenmille (ID: 17105418/0x0105020A)->Render.Flags3 ^= 0x01
 15: 0x0146 [0x92] Unknown NPC (ID: 17105614/0x010502CE)->Render.Flags3 ^= 0x01
 16: 0x014C [0x92] kisiA (ID: 17105451/0x0105022B)->Render.Flags3 ^= 0x01
 17: 0x0152 [0x92] kisiB (ID: 17105452/0x0105022C)->Render.Flags3 ^= 0x01
 18: 0x0158 [0x92] kisiC (ID: 17105453/0x0105022D)->Render.Flags3 ^= 0x01
 19: 0x015E [0x92] kisiD (ID: 17105454/0x0105022E)->Render.Flags3 ^= 0x01
 20: 0x0164 [0x92] kisiE (ID: 17105455/0x0105022F)->Render.Flags3 ^= 0x01
 21: 0x016A [0x94] LocalPlayer->Render.Flags3 ^= 0x01
 22: 0x0170 [0x94] Rholont (ID: 17105415/0x01050207)->Render.Flags3 ^= 0x01
 23: 0x0176 [0x94] ??? Warmachine (ID: 17105465/0x01050239)->Render.Flags3 ^= 0x01
 24: 0x017C [0x94] Rahal (ID: 17105417/0x01050209)->Render.Flags3 ^= 0x01
 25: 0x0182 [0x94] Cyranuce (ID: 17105447/0x01050227)->Render.Flags3 ^= 0x01
 26: 0x0188 [0x94] Machegue (ID: 17105448/0x01050228)->Render.Flags3 ^= 0x01
 27: 0x018E [0x94] Alphonimile (ID: 17105424/0x01050210)->Render.Flags3 ^= 0x01
 28: 0x0194 [0x94] Unknown NPC (ID: 17105615/0x010502CF)->Render.Flags3 ^= 0x01
 29: 0x019A [0x94] Excenmille (ID: 17105418/0x0105020A)->Render.Flags3 ^= 0x01
 30: 0x01A0 [0x94] Unknown NPC (ID: 17105614/0x010502CE)->Render.Flags3 ^= 0x01
 31: 0x01A6 [0x94] kisiA (ID: 17105451/0x0105022B)->Render.Flags3 ^= 0x01
 32: 0x01AC [0x94] kisiB (ID: 17105452/0x0105022C)->Render.Flags3 ^= 0x01
 33: 0x01B2 [0x94] kisiC (ID: 17105453/0x0105022D)->Render.Flags3 ^= 0x01
 34: 0x01B8 [0x94] kisiD (ID: 17105454/0x0105022E)->Render.Flags3 ^= 0x01
 35: 0x01BE [0x94] kisiE (ID: 17105455/0x0105022F)->Render.Flags3 ^= 0x01
 36: 0x01C4 [0x4E] SET_ENTITY_HIDE_FLAG: Show ??? Warmachine (ID: 17105465/0x01050239)
 37: 0x01CA [0x4E] SET_ENTITY_HIDE_FLAG: Show Rahal (ID: 17105417/0x01050209)
 38: 0x01D0 [0x4E] SET_ENTITY_HIDE_FLAG: Show Cyranuce (ID: 17105447/0x01050227)
 39: 0x01D6 [0x4E] SET_ENTITY_HIDE_FLAG: Show Machegue (ID: 17105448/0x01050228)
 40: 0x01DC [0x4E] SET_ENTITY_HIDE_FLAG: Show Alphonimile (ID: 17105424/0x01050210)
 41: 0x01E2 [0x4E] SET_ENTITY_HIDE_FLAG: Show Unknown NPC (ID: 17105615/0x010502CF)
 42: 0x01E8 [0x4E] SET_ENTITY_HIDE_FLAG: Show Excenmille (ID: 17105418/0x0105020A)
 43: 0x01EE [0x4E] SET_ENTITY_HIDE_FLAG: Show Unknown NPC (ID: 17105614/0x010502CE)
 44: 0x01F4 [0x4E] SET_ENTITY_HIDE_FLAG: Show kisiA (ID: 17105451/0x0105022B)
 45: 0x01FA [0x4E] SET_ENTITY_HIDE_FLAG: Show kisiB (ID: 17105452/0x0105022C)
 46: 0x0200 [0x4E] SET_ENTITY_HIDE_FLAG: Show kisiC (ID: 17105453/0x0105022D)
 47: 0x0206 [0x4E] SET_ENTITY_HIDE_FLAG: Show kisiD (ID: 17105454/0x0105022E)
 48: 0x020C [0x4E] SET_ENTITY_HIDE_FLAG: Show kisiE (ID: 17105455/0x0105022F)
 49: 0x0212 [0xBA] SET_ENTITY_POSITION(entity_id=LocalPlayer, pos_x=-170.210*, pos_z=56.461*, pos_y=-2.000*, direction=42.7°*)
 50: 0x021F [0xBA] SET_ENTITY_POSITION(entity_id=Rholont (ID: 17105415/0x01050207), pos_x=-168.543*, pos_z=55.484*, pos_y=-2.000*, direction=208.0°*)
 51: 0x022C [0xBA] SET_ENTITY_POSITION(entity_id=Bistillot (ID: 17105423/0x0105020F), pos_x=0.000*, pos_z=0.000*, pos_y=0.000*, direction=0.0°*)
 52: 0x0239 [0xBA] SET_ENTITY_POSITION(entity_id=??? Warmachine (ID: 17105465/0x01050239), pos_x=0.000*, pos_z=0.000*, pos_y=0.000*, direction=0.0°*)
 53: 0x0246 [0xBA] SET_ENTITY_POSITION(entity_id=Rahal (ID: 17105417/0x01050209), pos_x=0.000*, pos_z=0.000*, pos_y=0.000*, direction=0.0°*)
 54: 0x0253 [0xBA] SET_ENTITY_POSITION(entity_id=Cyranuce (ID: 17105447/0x01050227), pos_x=0.000*, pos_z=0.000*, pos_y=0.000*, direction=0.0°*)
 55: 0x0260 [0xBA] SET_ENTITY_POSITION(entity_id=Machegue (ID: 17105448/0x01050228), pos_x=0.000*, pos_z=0.000*, pos_y=0.000*, direction=0.0°*)
 56: 0x026D [0xBA] SET_ENTITY_POSITION(entity_id=Alphonimile (ID: 17105424/0x01050210), pos_x=0.000*, pos_z=0.000*, pos_y=0.000*, direction=0.0°*)
 57: 0x027A [0xBA] SET_ENTITY_POSITION(entity_id=Excenmille (ID: 17105418/0x0105020A), pos_x=0.000*, pos_z=0.000*, pos_y=0.000*, direction=0.0°*)
 58: 0x0287 [0xBA] SET_ENTITY_POSITION(entity_id=kisiA (ID: 17105451/0x0105022B), pos_x=0.000*, pos_z=0.000*, pos_y=0.000*, direction=0.0°*)
 59: 0x0294 [0xBA] SET_ENTITY_POSITION(entity_id=kisiB (ID: 17105452/0x0105022C), pos_x=0.000*, pos_z=0.000*, pos_y=0.000*, direction=0.0°*)
 60: 0x02A1 [0xBA] SET_ENTITY_POSITION(entity_id=kisiC (ID: 17105453/0x0105022D), pos_x=0.000*, pos_z=0.000*, pos_y=0.000*, direction=0.0°*)
 61: 0x02AE [0xBA] SET_ENTITY_POSITION(entity_id=kisiD (ID: 17105454/0x0105022E), pos_x=0.000*, pos_z=0.000*, pos_y=0.000*, direction=0.0°*)
 62: 0x02BB [0xBA] SET_ENTITY_POSITION(entity_id=kisiE (ID: 17105455/0x0105022F), pos_x=0.000*, pos_z=0.000*, pos_y=0.000*, direction=0.0°*)
 63: 0x02C8 [0x80] LOAD_WAIT(entity=LocalPlayer)
 64: 0x02CD [0x80] LOAD_WAIT(entity=Rholont (ID: 17105415/0x01050207))
 65: 0x02D2 [0x80] LOAD_WAIT(entity=??? Warmachine (ID: 17105465/0x01050239))
 66: 0x02D7 [0x80] LOAD_WAIT(entity=Rahal (ID: 17105417/0x01050209))
 67: 0x02DC [0x80] LOAD_WAIT(entity=Cyranuce (ID: 17105447/0x01050227))
 68: 0x02E1 [0x80] LOAD_WAIT(entity=Machegue (ID: 17105448/0x01050228))
 69: 0x02E6 [0x80] LOAD_WAIT(entity=Alphonimile (ID: 17105424/0x01050210))
 70: 0x02EB [0x80] LOAD_WAIT(entity=Excenmille (ID: 17105418/0x0105020A))
 71: 0x02F0 [0x80] LOAD_WAIT(entity=kisiA (ID: 17105451/0x0105022B))
 72: 0x02F5 [0x80] LOAD_WAIT(entity=kisiB (ID: 17105452/0x0105022C))
 73: 0x02FA [0x80] LOAD_WAIT(entity=kisiC (ID: 17105453/0x0105022D))
 74: 0x02FF [0x80] LOAD_WAIT(entity=kisiD (ID: 17105454/0x0105022E))
 75: 0x0304 [0x80] LOAD_WAIT(entity=kisiE (ID: 17105455/0x0105022F))
 76: 0x0309 [0x79] LocalPlayer looks at LocalPlayer (Basic look)
 77: 0x0313 [0x79] Rholont (ID: 17105415/0x01050207) looks at Rholont (ID: 17105415/0x01050207) (Basic look)
 78: 0x031D [0x4A] LocalPlayer looks at Rholont (ID: 17105415/0x01050207)
 79: 0x0326 [0x6F] WAIT_FRAME_DELAY: Yield until WaitTime reaches zero
 80: 0x0327 [0x76] CHECK_ENTITY_RENDER_FLAGS: Wait until LocalPlayer Render.Flags0 and Render.Flags3 conditions are met
 81: 0x032C [0x7B] LocalPlayer stops talking
 82: 0x0331 [0x77] SET_EVENT_TIME_WEATHER(hour=21*, weather=0*)
 83: 0x0336 [0x1C] WAIT(30* ticks)
 84: 0x0339 [0xAB] EventEntity->UnknownFlag = 1 // Enable unknown flag
 85: 0x033B [0x1C] WAIT(15* ticks)
 86: 0x033E [0x45] LOAD_SCHEDULED_TASK: Load scheduler "s001" with entities [LocalPlayer, LocalPlayer], work=[434*, 0*]
 87: 0x034F [0x5B] LOAD_EXT_SCHEDULER: Load scheduler 0xFEFEFE00 with entities [Rholont (ID: 17105415/0x01050207), Rholont (ID: 17105415/0x01050207)], work=1299*
 88: 0x035E [0x5B] LOAD_EXT_SCHEDULER: Load scheduler 0xFEFEFE00 with entities [Rholont (ID: 17105415/0x01050207), Rholont (ID: 17105415/0x01050207)], work=1301*
 89: 0x036D [0x5B] LOAD_EXT_SCHEDULER: Load scheduler "fh01" with entities [Rholont (ID: 17105415/0x01050207), Rholont (ID: 17105415/0x01050207)], work=1299*
 90: 0x037C [0x5B] LOAD_EXT_SCHEDULER: Load scheduler "tla0" with entities [Rholont (ID: 17105415/0x01050207), Rholont (ID: 17105415/0x01050207)], work=1272*
 91: 0x038B [0x1A] CALL_SUBROUTINE(address=0x13DE)
 92: 0x038E [0x2B] Rholont (ID: 17105415/0x01050207) [13637*]:
    → "Captain Rahal has informed me of what transpired at the Garlaige Citadel..."
 93: 0x0395 [0x23] WAIT_FOR_DIALOG_INTERACTION
 94: 0x0396 [0x53] WAIT_SCHEDULER_TASK: Wait for scheduler "tla0" with entities [Rholont (ID: 17105415/0x01050207), Rholont (ID: 17105415/0x01050207)]
 95: 0x03A3 [0x5B] LOAD_EXT_SCHEDULER: Load scheduler "fh00" with entities [Rholont (ID: 17105415/0x01050207), Rholont (ID: 17105415/0x01050207)], work=1299*
 96: 0x03B2 [0x1C] WAIT(40* ticks)
 97: 0x03B5 [0x52] END_LOAD_SCHEDULER: End scheduler "s001" with entities [LocalPlayer, LocalPlayer], work=434*
 98: 0x03C4 [0x45] LOAD_SCHEDULED_TASK: Load scheduler "s014" with entities [LocalPlayer, LocalPlayer], work=[434*, 0*]
 99: 0x03D5 [0x5B] LOAD_EXT_SCHEDULER: Load scheduler "tla1" with entities [Rholont (ID: 17105415/0x01050207), Rholont (ID: 17105415/0x01050207)], work=1272*
100: 0x03E4 [0x5B] LOAD_EXT_SCHEDULER: Load scheduler "sag0" with entities [Rholont (ID: 17105415/0x01050207), Rholont (ID: 17105415/0x01050207)], work=1437*
101: 0x03F3 [0x2B] Rholont (ID: 17105415/0x01050207) [13638*]:
    → "...And of Sir Vailanice's passing. The beastmen must be made to pay--I myself shall strike back and exact revenge! Er...after I become a proper knight, that is."
102: 0x03FA [0x23] WAIT_FOR_DIALOG_INTERACTION
103: 0x03FB [0xBA] SET_ENTITY_POSITION(entity_id=Rahal (ID: 17105417/0x01050209), pos_x=-174.516*, pos_z=58.084*, pos_y=-2.199*, direction=350.5°*)
104: 0x0408 [0x80] LOAD_WAIT(entity=Rahal (ID: 17105417/0x01050209))
105: 0x040D [0x7B] Rahal (ID: 17105417/0x01050209) stops talking
106: 0x0412 [0x55] WAIT_LOAD_SCHEDULER: Wait for scheduler "s014" with entities [LocalPlayer, LocalPlayer], work=434*
107: 0x0421 [0x52] END_LOAD_SCHEDULER: End scheduler "s014" with entities [LocalPlayer, LocalPlayer], work=434*
108: 0x0430 [0x45] LOAD_SCHEDULED_TASK: Load scheduler "s019" with entities [LocalPlayer, LocalPlayer], work=[434*, 0*]
109: 0x0441 [0x5B] LOAD_EXT_SCHEDULER: Load scheduler "f000" with entities [Rholont (ID: 17105415/0x01050207), Rholont (ID: 17105415/0x01050207)], work=1299*
110: 0x0450 [0x5B] LOAD_EXT_SCHEDULER: Load scheduler "std0" with entities [Rholont (ID: 17105415/0x01050207), Rholont (ID: 17105415/0x01050207)], work=1301*
111: 0x045F [0x27] REQ_SET(priority=0x0F, entity_id=Rahal (ID: 17105417/0x01050209), tag_num=0x15)
112: 0x0466 [0x1C] WAIT(100* ticks)
113: 0x0469 [0x59] UPDATE_ENTITY_DATA: Set Rholont (ID: 17105415/0x01050207) turn speed = 40*
114: 0x0471 [0x4B] UPDATE_ENTITY_YAW(entity=Rholont (ID: 17105415/0x01050207), yaw=18.5°*)
115: 0x0478 [0x7B] Rholont (ID: 17105415/0x01050207) stops talking
116: 0x047D [0x1C] WAIT(60* ticks)
117: 0x0480 [0x59] UPDATE_ENTITY_DATA: Set LocalPlayer turn speed = 50*
118: 0x0488 [0x4B] UPDATE_ENTITY_YAW(entity=LocalPlayer, yaw=20.7°*)
119: 0x048F [0x6F] WAIT_FRAME_DELAY: Yield until WaitTime reaches zero
120: 0x0490 [0x76] CHECK_ENTITY_RENDER_FLAGS: Wait until LocalPlayer Render.Flags0 and Render.Flags3 conditions are met
121: 0x0495 [0x7B] LocalPlayer stops talking
122: 0x049A [0x1C] WAIT(230* ticks)
123: 0x049D [0x59] UPDATE_ENTITY_DATA: Set Rholont (ID: 17105415/0x01050207) turn speed = 40*
124: 0x04A5 [0x4B] UPDATE_ENTITY_YAW(entity=Rholont (ID: 17105415/0x01050207), yaw=13.0°*)
125: 0x04AC [0x7B] Rholont (ID: 17105415/0x01050207) stops talking
126: 0x04B1 [0x1C] WAIT(20* ticks)
127: 0x04B4 [0x52] END_LOAD_SCHEDULER: End scheduler "s019" with entities [LocalPlayer, LocalPlayer], work=434*
128: 0x04C3 [0x45] LOAD_SCHEDULED_TASK: Load scheduler "s043" with entities [LocalPlayer, LocalPlayer], work=[434*, 0*]
129: 0x04D4 [0x1C] WAIT(50* ticks)
130: 0x04D7 [0x59] UPDATE_ENTITY_DATA: Set LocalPlayer turn speed = 50*
131: 0x04DF [0x4B] UPDATE_ENTITY_YAW(entity=LocalPlayer, yaw=2.7°*)
132: 0x04E6 [0x6F] WAIT_FRAME_DELAY: Yield until WaitTime reaches zero
133: 0x04E7 [0x76] CHECK_ENTITY_RENDER_FLAGS: Wait until LocalPlayer Render.Flags0 and Render.Flags3 conditions are met
134: 0x04EC [0x7B] LocalPlayer stops talking
135: 0x04F1 [0x5B] LOAD_EXT_SCHEDULER: Load scheduler "fd01" with entities [Rholont (ID: 17105415/0x01050207), Rholont (ID: 17105415/0x01050207)], work=1299*
136: 0x0500 [0x5B] LOAD_EXT_SCHEDULER: Load scheduler "kei0" with entities [Rholont (ID: 17105415/0x01050207), Rholont (ID: 17105415/0x01050207)], work=1301*
137: 0x050F [0x52] END_LOAD_SCHEDULER: End scheduler "s043" with entities [LocalPlayer, LocalPlayer], work=434*
138: 0x051E [0x45] LOAD_SCHEDULED_TASK: Load scheduler "s000" with entities [LocalPlayer, LocalPlayer], work=[434*, 0*]
139: 0x052F [0x2B] Rholont (ID: 17105415/0x01050207) [13639*]:
    → "The War Council is about to commence. Please take your place."
140: 0x0536 [0x23] WAIT_FOR_DIALOG_INTERACTION
141: 0x0537 [0x53] WAIT_SCHEDULER_TASK: Wait for scheduler "kei0" with entities [Rholont (ID: 17105415/0x01050207), Rholont (ID: 17105415/0x01050207)]
142: 0x0544 [0x5B] LOAD_EXT_SCHEDULER: Load scheduler "fd00" with entities [Rholont (ID: 17105415/0x01050207), Rholont (ID: 17105415/0x01050207)], work=1299*
143: 0x0553 [0x1C] WAIT(30* ticks)
144: 0x0556 [0x1A] CALL_SUBROUTINE(address=0x13FF)
145: 0x0559 [0x52] END_LOAD_SCHEDULER: End scheduler "s000" with entities [LocalPlayer, LocalPlayer], work=434*
146: 0x0568 [0x5B] LOAD_EXT_SCHEDULER: Load scheduler "kei1" with entities [Rholont (ID: 17105415/0x01050207), Rholont (ID: 17105415/0x01050207)], work=1301*
147: 0x0577 [0x5B] LOAD_EXT_SCHEDULER: Load scheduler "f000" with entities [Rholont (ID: 17105415/0x01050207), Rholont (ID: 17105415/0x01050207)], work=1299*
148: 0x0586 [0x7A] VM_CONTROL: Reset VM for Rahal (ID: 17105417/0x01050209)
149: 0x058C [0xBA] SET_ENTITY_POSITION(entity_id=LocalPlayer, pos_x=-164.694*, pos_z=63.906*, pos_y=-2.000*, direction=30.8°*)
150: 0x0599 [0xBA] SET_ENTITY_POSITION(entity_id=Rholont (ID: 17105415/0x01050207), pos_x=-167.857*, pos_z=62.337*, pos_y=-2.000*, direction=351.6°*)
151: 0x05A6 [0xBA] SET_ENTITY_POSITION(entity_id=??? Warmachine (ID: 17105465/0x01050239), pos_x=-161.943*, pos_z=58.654*, pos_y=-2.000*, direction=217.3°*)
152: 0x05B3 [0xBA] SET_ENTITY_POSITION(entity_id=Rahal (ID: 17105417/0x01050209), pos_x=-162.803*, pos_z=62.472*, pos_y=-2.000*, direction=158.9°*)
153: 0x05C0 [0xBA] SET_ENTITY_POSITION(entity_id=Cyranuce (ID: 17105447/0x01050227), pos_x=-167.852*, pos_z=59.681*, pos_y=-2.000*, direction=334.7°*)
154: 0x05CD [0xBA] SET_ENTITY_POSITION(entity_id=Machegue (ID: 17105448/0x01050228), pos_x=-165.922*, pos_z=58.136*, pos_y=-2.000*, direction=281.9°*)
155: 0x05DA [0x7B] LocalPlayer stops talking
156: 0x05DF [0x7B] Rholont (ID: 17105415/0x01050207) stops talking
157: 0x05E4 [0x7B] ??? Warmachine (ID: 17105465/0x01050239) stops talking
158: 0x05E9 [0x7B] Rahal (ID: 17105417/0x01050209) stops talking
159: 0x05EE [0x7B] Cyranuce (ID: 17105447/0x01050227) stops talking
160: 0x05F3 [0x7B] Machegue (ID: 17105448/0x01050228) stops talking
161: 0x05F8 [0x80] LOAD_WAIT(entity=LocalPlayer)
162: 0x05FD [0x80] LOAD_WAIT(entity=Rholont (ID: 17105415/0x01050207))
163: 0x0602 [0x80] LOAD_WAIT(entity=??? Warmachine (ID: 17105465/0x01050239))
164: 0x0607 [0x80] LOAD_WAIT(entity=Rahal (ID: 17105417/0x01050209))
165: 0x060C [0x80] LOAD_WAIT(entity=Cyranuce (ID: 17105447/0x01050227))
166: 0x0611 [0x80] LOAD_WAIT(entity=Machegue (ID: 17105448/0x01050228))
167: 0x0616 [0x4A] LocalPlayer looks at Rahal (ID: 17105417/0x01050209)
168: 0x061F [0x7B] LocalPlayer stops talking
169: 0x0624 [0x6F] WAIT_FRAME_DELAY: Yield until WaitTime reaches zero
170: 0x0625 [0x76] CHECK_ENTITY_RENDER_FLAGS: Wait until LocalPlayer Render.Flags0 and Render.Flags3 conditions are met
171: 0x062A [0x1C] WAIT(80* ticks)
172: 0x062D [0x48] [System] [13105*]:
    → "@@"
173: 0x0630 [0x23] WAIT_FOR_DIALOG_INTERACTION
174: 0x0631 [0x45] LOAD_SCHEDULED_TASK: Load scheduler "s010" with entities [LocalPlayer, LocalPlayer], work=[434*, 0*]
175: 0x0642 [0x1A] CALL_SUBROUTINE(address=0x13DE)
176: 0x0645 [0x5B] LOAD_EXT_SCHEDULER: Load scheduler "tlb0" with entities [Rahal (ID: 17105417/0x01050209), Rahal (ID: 17105417/0x01050209)], work=1272*
177: 0x0654 [0x2B] Rahal (ID: 17105417/0x01050209) [13640*]:
    → "Listen up, everyone."
178: 0x065B [0x23] WAIT_FOR_DIALOG_INTERACTION
179: 0x065C [0x5B] LOAD_EXT_SCHEDULER: Load scheduler "tlb1" with entities [Rahal (ID: 17105417/0x01050209), Rahal (ID: 17105417/0x01050209)], work=1272*
180: 0x066B [0x4A] LocalPlayer looks at Rahal (ID: 17105417/0x01050209)
181: 0x0674 [0x4A] Rholont (ID: 17105415/0x01050207) looks at Rahal (ID: 17105417/0x01050209)
182: 0x067D [0x1C] WAIT(5* ticks)
183: 0x0680 [0x4A] Cyranuce (ID: 17105447/0x01050227) looks at Rahal (ID: 17105417/0x01050209)
184: 0x0689 [0x1C] WAIT(5* ticks)
185: 0x068C [0x4A] Machegue (ID: 17105448/0x01050228) looks at Rahal (ID: 17105417/0x01050209)
186: 0x0695 [0x1C] WAIT(10* ticks)
187: 0x0698 [0x7B] LocalPlayer stops talking
188: 0x069D [0x7B] Rholont (ID: 17105415/0x01050207) stops talking
189: 0x06A2 [0x7B] Cyranuce (ID: 17105447/0x01050227) stops talking
190: 0x06A7 [0x7B] Machegue (ID: 17105448/0x01050228) stops talking
191: 0x06AC [0x6F] WAIT_FRAME_DELAY: Yield until WaitTime reaches zero
192: 0x06AD [0x76] CHECK_ENTITY_RENDER_FLAGS: Wait until LocalPlayer Render.Flags0 and Render.Flags3 conditions are met
193: 0x06B2 [0x6F] WAIT_FRAME_DELAY: Yield until WaitTime reaches zero
194: 0x06B3 [0x76] CHECK_ENTITY_RENDER_FLAGS: Wait until Rholont (ID: 17105415/0x01050207) Render.Flags0 and Render.Flags3 conditions are met
195: 0x06B8 [0x6F] WAIT_FRAME_DELAY: Yield until WaitTime reaches zero
196: 0x06B9 [0x76] CHECK_ENTITY_RENDER_FLAGS: Wait until Cyranuce (ID: 17105447/0x01050227) Render.Flags0 and Render.Flags3 conditions are met
197: 0x06BE [0x6F] WAIT_FRAME_DELAY: Yield until WaitTime reaches zero
198: 0x06BF [0x76] CHECK_ENTITY_RENDER_FLAGS: Wait until Machegue (ID: 17105448/0x01050228) Render.Flags0 and Render.Flags3 conditions are met
199: 0x06C4 [0x1C] WAIT(30* ticks)
200: 0x06C7 [0x52] END_LOAD_SCHEDULER: End scheduler "s010" with entities [LocalPlayer, LocalPlayer], work=434*
201: 0x06D6 [0x45] LOAD_SCHEDULED_TASK: Load scheduler "s028" with entities [LocalPlayer, LocalPlayer], work=[434*, 0*]
202: 0x06E7 [0x5B] LOAD_EXT_SCHEDULER: Load scheduler "tha0" with entities [Rahal (ID: 17105417/0x01050209), Rahal (ID: 17105417/0x01050209)], work=1273*
203: 0x06F6 [0x2B] Rahal (ID: 17105417/0x01050209) [13641*]:
    → "It was as I had expected. We were not allowed to officially join the ranks of the Iron Rams."
204: 0x06FD [0x23] WAIT_FOR_DIALOG_INTERACTION
205: 0x06FE [0x5B] LOAD_EXT_SCHEDULER: Load scheduler "tha1" with entities [Rahal (ID: 17105417/0x01050209), Rahal (ID: 17105417/0x01050209)], work=1273*
206: 0x070D [0x5B] LOAD_EXT_SCHEDULER: Load scheduler "fh00" with entities [Machegue (ID: 17105448/0x01050228), Machegue (ID: 17105448/0x01050228)], work=1299*
207: 0x071C [0x5B] LOAD_EXT_SCHEDULER: Load scheduler "gme0" with entities [Machegue (ID: 17105448/0x01050228), Machegue (ID: 17105448/0x01050228)], work=1437*
208: 0x072B [0x1C] WAIT(40* ticks)
209: 0x072E [0x52] END_LOAD_SCHEDULER: End scheduler "s028" with entities [LocalPlayer, LocalPlayer], work=434*
210: 0x073D [0x45] LOAD_SCHEDULED_TASK: Load scheduler "s002" with entities [LocalPlayer, LocalPlayer], work=[434*, 0*]
211: 0x074E [0x2B] Machegue (ID: 17105448/0x01050228) [13642*]:
    → "Awww..."
212: 0x0755 [0x23] WAIT_FOR_DIALOG_INTERACTION
213: 0x0756 [0x1C] WAIT(20* ticks)
214: 0x0759 [0x52] END_LOAD_SCHEDULER: End scheduler "s002" with entities [LocalPlayer, LocalPlayer], work=434*
215: 0x0768 [0x45] LOAD_SCHEDULED_TASK: Load scheduler "s029" with entities [LocalPlayer, LocalPlayer], work=[434*, 0*]
216: 0x0779 [0x1C] WAIT(80* ticks)
217: 0x077C [0x5B] LOAD_EXT_SCHEDULER: Load scheduler "sht0" with entities [Cyranuce (ID: 17105447/0x01050227), Cyranuce (ID: 17105447/0x01050227)], work=2350*
218: 0x078B [0x2B] Cyranuce (ID: 17105447/0x01050227) [13643*]:
    → "Curses! That captain's skull is more rigid than granite!"
219: 0x0792 [0x23] WAIT_FOR_DIALOG_INTERACTION
220: 0x0793 [0x53] WAIT_SCHEDULER_TASK: Wait for scheduler "sht0" with entities [Cyranuce (ID: 17105447/0x01050227), Cyranuce (ID: 17105447/0x01050227)]
221: 0x07A0 [0x1C] WAIT(20* ticks)
222: 0x07A3 [0x52] END_LOAD_SCHEDULER: End scheduler "s029" with entities [LocalPlayer, LocalPlayer], work=434*
223: 0x07B2 [0x45] LOAD_SCHEDULED_TASK: Load scheduler "s011" with entities [LocalPlayer, LocalPlayer], work=[434*, 0*]
224: 0x07C3 [0x5B] LOAD_EXT_SCHEDULER: Load scheduler "sht1" with entities [Cyranuce (ID: 17105447/0x01050227), Cyranuce (ID: 17105447/0x01050227)], work=2350*
225: 0x07D2 [0x5B] LOAD_EXT_SCHEDULER: Load scheduler "f000" with entities [Machegue (ID: 17105448/0x01050228), Machegue (ID: 17105448/0x01050228)], work=1299*
226: 0x07E1 [0x5B] LOAD_EXT_SCHEDULER: Load scheduler "std0" with entities [Machegue (ID: 17105448/0x01050228), Machegue (ID: 17105448/0x01050228)], work=1301*
227: 0x07F0 [0x53] WAIT_SCHEDULER_TASK: Wait for scheduler "tha1" with entities [Rahal (ID: 17105417/0x01050209), Rahal (ID: 17105417/0x01050209)]
228: 0x07FD [0x5B] LOAD_EXT_SCHEDULER: Load scheduler "fd01" with entities [Rahal (ID: 17105417/0x01050209), Rahal (ID: 17105417/0x01050209)], work=1299*
229: 0x080C [0x5B] LOAD_EXT_SCHEDULER: Load scheduler "tlb0" with entities [Rahal (ID: 17105417/0x01050209), Rahal (ID: 17105417/0x01050209)], work=1272*
230: 0x081B [0x2B] Rahal (ID: 17105417/0x01050209) [13644*]:
    → "However, permission has been granted for us to partake in all their drills, should we wish it."
231: 0x0822 [0x23] WAIT_FOR_DIALOG_INTERACTION
232: 0x0823 [0x5B] LOAD_EXT_SCHEDULER: Load scheduler "tlb1" with entities [Rahal (ID: 17105417/0x01050209), Rahal (ID: 17105417/0x01050209)], work=1272*
233: 0x0832 [0x5B] LOAD_EXT_SCHEDULER: Load scheduler "f000" with entities [Rahal (ID: 17105417/0x01050209), Rahal (ID: 17105417/0x01050209)], work=1299*
234: 0x0841 [0x5B] LOAD_EXT_SCHEDULER: Load scheduler "roh0" with entities [Rholont (ID: 17105415/0x01050207), Rholont (ID: 17105415/0x01050207)], work=1503*
235: 0x0850 [0x1C] WAIT(20* ticks)
236: 0x0853 [0x52] END_LOAD_SCHEDULER: End scheduler "s011" with entities [LocalPlayer, LocalPlayer], work=434*
237: 0x0862 [0x45] LOAD_SCHEDULED_TASK: Load scheduler "s027" with entities [LocalPlayer, LocalPlayer], work=[434*, 0*]
238: 0x0873 [0x5B] LOAD_EXT_SCHEDULER: Load scheduler "roh1" with entities [Rholont (ID: 17105415/0x01050207), Rholont (ID: 17105415/0x01050207)], work=1503*
239: 0x0882 [0x1C] WAIT(20* ticks)
240: 0x0885 [0x4A] Rahal (ID: 17105417/0x01050209) looks at Rholont (ID: 17105415/0x01050207)
241: 0x088E [0x7B] Rahal (ID: 17105417/0x01050209) stops talking
242: 0x0893 [0x1C] WAIT(30* ticks)
243: 0x0896 [0x4A] LocalPlayer looks at Rholont (ID: 17105415/0x01050207)
244: 0x089F [0x7B] LocalPlayer stops talking
245: 0x08A4 [0x2B] Rholont (ID: 17105415/0x01050207) [13645*]:
    → "Iron Ram-style murderous military drills under the watchful, sadistic eye of Captain Rongelouts..."
246: 0x08AB [0x23] WAIT_FOR_DIALOG_INTERACTION
247: 0x08AC [0x1C] WAIT(20* ticks)
248: 0x08AF [0x52] END_LOAD_SCHEDULER: End scheduler "s027" with entities [LocalPlayer, LocalPlayer], work=434*
249: 0x08BE [0x45] LOAD_SCHEDULED_TASK: Load scheduler "s013" with entities [LocalPlayer, LocalPlayer], work=[434*, 0*]
250: 0x08CF [0x2B] Rholont (ID: 17105415/0x01050207) [13646*]:
    → "Uhhhn... My stomach is churning at the mere thought of it..."
251: 0x08D6 [0x23] WAIT_FOR_DIALOG_INTERACTION
252: 0x08D7 [0x27] REQ_SET(priority=0x10, entity_id=Rahal (ID: 17105417/0x01050209), tag_num=0x17)
253: 0x08DE [0x2B] Rahal (ID: 17105417/0x01050209) [13647*]:
    → "Hahaha, my feelings exactly. All the same, this is a grand opportunity for us to demonstrate to Captain Rongelouts that we're much more than squirming maggots."
254: 0x08E5 [0x23] WAIT_FOR_DIALOG_INTERACTION
255: 0x08E6 [0x2A] GET_REQ_LEVEL(level=16, entity_id=Rahal (ID: 17105417/0x01050209))
256: 0x08EC [0x52] END_LOAD_SCHEDULER: End scheduler "s013" with entities [LocalPlayer, LocalPlayer], work=434*
257: 0x08FB [0x45] LOAD_SCHEDULED_TASK: Load scheduler "s012" with entities [LocalPlayer, LocalPlayer], work=[434*, 0*]
258: 0x090C [0x5B] LOAD_EXT_SCHEDULER: Load scheduler "std0" with entities [Rholont (ID: 17105415/0x01050207), Rholont (ID: 17105415/0x01050207)], work=1301*
259: 0x091B [0x2B] Bistillot (ID: 17105423/0x0105020F) [13648*]:
    → "Captain. Was there...no mention of me?"
260: 0x0922 [0x23] WAIT_FOR_DIALOG_INTERACTION
261: 0x0923 [0x1C] WAIT(20* ticks)
262: 0x0926 [0x53] WAIT_SCHEDULER_TASK: Wait for scheduler "lau0" with entities [Rahal (ID: 17105417/0x01050209), Rahal (ID: 17105417/0x01050209)]
263: 0x0933 [0x1C] WAIT(30* ticks)
264: 0x0936 [0x59] UPDATE_ENTITY_DATA: Set Rahal (ID: 17105417/0x01050209) turn speed = 60*
265: 0x093E [0x4B] UPDATE_ENTITY_YAW(entity=Rahal (ID: 17105417/0x01050209), yaw=6.6°*)
266: 0x0945 [0x6F] WAIT_FRAME_DELAY: Yield until WaitTime reaches zero
267: 0x0946 [0x76] CHECK_ENTITY_RENDER_FLAGS: Wait until Rahal (ID: 17105417/0x01050209) Render.Flags0 and Render.Flags3 conditions are met
268: 0x094B [0x79] Rahal (ID: 17105417/0x01050209) looks at ??? Warmachine (ID: 17105465/0x01050239) (Basic look)
269: 0x0955 [0x1C] WAIT(15* ticks)
270: 0x0958 [0x4A] LocalPlayer looks at ??? Warmachine (ID: 17105465/0x01050239)
271: 0x0961 [0x7B] LocalPlayer stops talking
272: 0x0966 [0x4A] Rholont (ID: 17105415/0x01050207) looks at ??? Warmachine (ID: 17105465/0x01050239)
273: 0x096F [0x6F] WAIT_FRAME_DELAY: Yield until WaitTime reaches zero
274: 0x0970 [0x76] CHECK_ENTITY_RENDER_FLAGS: Wait until Rholont (ID: 17105415/0x01050207) Render.Flags0 and Render.Flags3 conditions are met
275: 0x0975 [0x79] Rholont (ID: 17105415/0x01050207) looks at ??? Warmachine (ID: 17105465/0x01050239) (Basic look)
276: 0x097F [0x2B] Rahal (ID: 17105417/0x01050209) [13649*]:
    → "You needn't fret, Bistillot. You were specifically singled out and requested to assist with their research on the Orcish warmachine."
277: 0x0986 [0x23] WAIT_FOR_DIALOG_INTERACTION
278: 0x0987 [0x1C] WAIT(30* ticks)
279: 0x098A [0x52] END_LOAD_SCHEDULER: End scheduler "s012" with entities [LocalPlayer, LocalPlayer], work=434*
280: 0x0999 [0x45] LOAD_SCHEDULED_TASK: Load scheduler "s020" with entities [LocalPlayer, LocalPlayer], work=[434*, 0*]
281: 0x09AA [0x2B] Bistillot (ID: 17105423/0x0105020F) [13650*]:
    → "Research!? You...you jest not!? I shall do my utmost to earn glory and respect for the Swiftwing Griffins!"
282: 0x09B1 [0x23] WAIT_FOR_DIALOG_INTERACTION
283: 0x09B2 [0x1C] WAIT(30* ticks)
284: 0x09B5 [0x52] END_LOAD_SCHEDULER: End scheduler "s020" with entities [LocalPlayer, LocalPlayer], work=434*
285: 0x09C4 [0x45] LOAD_SCHEDULED_TASK: Load scheduler "0000" with entities [LocalPlayer, LocalPlayer], work=[434*, 0*]
286: 0x09D5 [0x55] WAIT_LOAD_SCHEDULER: Wait for scheduler "0000" with entities [LocalPlayer, LocalPlayer], work=434*
287: 0x09E4 [0x52] END_LOAD_SCHEDULER: End scheduler "0000" with entities [LocalPlayer, LocalPlayer], work=434*
288: 0x09F3 [0x45] LOAD_SCHEDULED_TASK: Load scheduler "s025" with entities [LocalPlayer, LocalPlayer], work=[434*, 0*]
289: 0x0A04 [0x1C] WAIT(20* ticks)
290: 0x0A07 [0x4A] Rahal (ID: 17105417/0x01050209) looks at LocalPlayer
291: 0x0A10 [0x7B] Rahal (ID: 17105417/0x01050209) stops talking
292: 0x0A15 [0x6F] WAIT_FRAME_DELAY: Yield until WaitTime reaches zero
293: 0x0A16 [0x76] CHECK_ENTITY_RENDER_FLAGS: Wait until Rahal (ID: 17105417/0x01050209) Render.Flags0 and Render.Flags3 conditions are met
294: 0x0A1B [0x1C] WAIT(10* ticks)
295: 0x0A1E [0x4A] LocalPlayer looks at Rahal (ID: 17105417/0x01050209)
296: 0x0A27 [0x7B] LocalPlayer stops talking
297: 0x0A2C [0x4A] Rholont (ID: 17105415/0x01050207) looks at Rahal (ID: 17105417/0x01050209)
298: 0x0A35 [0x6F] WAIT_FRAME_DELAY: Yield until WaitTime reaches zero
299: 0x0A36 [0x76] CHECK_ENTITY_RENDER_FLAGS: Wait until Rholont (ID: 17105415/0x01050207) Render.Flags0 and Render.Flags3 conditions are met
300: 0x0A3B [0x7B] Rholont (ID: 17105415/0x01050207) stops talking
301: 0x0A40 [0x5B] LOAD_EXT_SCHEDULER: Load scheduler "pas0" with entities [Rahal (ID: 17105417/0x01050209), Rahal (ID: 17105417/0x01050209)], work=2349*
302: 0x0A4F [0x27] REQ_SET(priority=0x10, entity_id=??? (ID: 17105616/0x010502D0), tag_num=0x02)
303: 0x0A56 [0x2B] Rahal (ID: 17105417/0x01050209) [13651*]:
    → "And <Player>. I've brought something for you."
304: 0x0A5D [0x23] WAIT_FOR_DIALOG_INTERACTION
305: 0x0A5E [0x1C] WAIT(20* ticks)
306: 0x0A61 [0x2A] GET_REQ_LEVEL(level=16, entity_id=??? (ID: 17105616/0x010502D0))
307: 0x0A67 [0x53] WAIT_SCHEDULER_TASK: Wait for scheduler "pas0" with entities [Rahal (ID: 17105417/0x01050209), Rahal (ID: 17105417/0x01050209)]
308: 0x0A74 [0x52] END_LOAD_SCHEDULER: End scheduler "s025" with entities [LocalPlayer, LocalPlayer], work=434*
309: 0x0A83 [0x45] LOAD_SCHEDULED_TASK: Load scheduler "s026" with entities [LocalPlayer, LocalPlayer], work=[434*, 0*]
310: 0x0A94 [0x5B] LOAD_EXT_SCHEDULER: Load scheduler "fd01" with entities [Rahal (ID: 17105417/0x01050209), Rahal (ID: 17105417/0x01050209)], work=1299*
311: 0x0AA3 [0x2B] Rahal (ID: 17105417/0x01050209) [13652*]:
    → "It's from Captain Rongelouts himself."
312: 0x0AAA [0x23] WAIT_FOR_DIALOG_INTERACTION
313: 0x0AAB [0x5B] LOAD_EXT_SCHEDULER: Load scheduler "fd00" with entities [Rahal (ID: 17105417/0x01050209), Rahal (ID: 17105417/0x01050209)], work=1299*
314: 0x0ABA [0x1C] WAIT(50* ticks)
315: 0x0ABD [0x5B] LOAD_EXT_SCHEDULER: Load scheduler 0xFEFEFE00 with entities [Rholont (ID: 17105415/0x01050207), Rholont (ID: 17105415/0x01050207)], work=1301*
316: 0x0ACC [0x5B] LOAD_EXT_SCHEDULER: Load scheduler 0xFEFEFE00 with entities [Cyranuce (ID: 17105447/0x01050227), Cyranuce (ID: 17105447/0x01050227)], work=1301*
317: 0x0ADB [0x5B] LOAD_EXT_SCHEDULER: Load scheduler 0xFEFEFE00 with entities [Machegue (ID: 17105448/0x01050228), Machegue (ID: 17105448/0x01050228)], work=1301*
318: 0x0AEA [0x52] END_LOAD_SCHEDULER: End scheduler "s026" with entities [LocalPlayer, LocalPlayer], work=434*
319: 0x0AF9 [0x45] LOAD_SCHEDULED_TASK: Load scheduler "s022" with entities [LocalPlayer, LocalPlayer], work=[434*, 0*]
320: 0x0B0A [0x5B] LOAD_EXT_SCHEDULER: Load scheduler "f000" with entities [Rahal (ID: 17105417/0x01050209), Rahal (ID: 17105417/0x01050209)], work=1299*
321: 0x0B19 [0x1C] WAIT(30* ticks)
322: 0x0B1C [0x59] UPDATE_ENTITY_DATA: Set Rahal (ID: 17105417/0x01050209) turn speed = 60*
323: 0x0B24 [0x4B] UPDATE_ENTITY_YAW(entity=Rahal (ID: 17105417/0x01050209), yaw=9.9°*)
324: 0x0B2B [0x6F] WAIT_FRAME_DELAY: Yield until WaitTime reaches zero
325: 0x0B2C [0x76] CHECK_ENTITY_RENDER_FLAGS: Wait until Rahal (ID: 17105417/0x01050209) Render.Flags0 and Render.Flags3 conditions are met
326: 0x0B31 [0x7B] Rahal (ID: 17105417/0x01050209) stops talking
327: 0x0B36 [0x1C] WAIT(20* ticks)
328: 0x0B39 [0x59] UPDATE_ENTITY_DATA: Set LocalPlayer turn speed = 50*
329: 0x0B41 [0x4B] UPDATE_ENTITY_YAW(entity=LocalPlayer, yaw=8.3°*)
330: 0x0B48 [0x6F] WAIT_FRAME_DELAY: Yield until WaitTime reaches zero
331: 0x0B49 [0x76] CHECK_ENTITY_RENDER_FLAGS: Wait until LocalPlayer Render.Flags0 and Render.Flags3 conditions are met
332: 0x0B4E [0x7B] LocalPlayer stops talking
333: 0x0B53 [0x5B] LOAD_EXT_SCHEDULER: Load scheduler "tlb0" with entities [Rahal (ID: 17105417/0x01050209), Rahal (ID: 17105417/0x01050209)], work=1272*
334: 0x0B62 [0x1C] WAIT(60* ticks)
335: 0x0B65 [0x5B] LOAD_EXT_SCHEDULER: Load scheduler "tlb1" with entities [Rahal (ID: 17105417/0x01050209), Rahal (ID: 17105417/0x01050209)], work=1272*
336: 0x0B74 [0x1C] WAIT(60* ticks)
337: 0x0B77 [0x5B] LOAD_EXT_SCHEDULER: Load scheduler "kei0" with entities [Rholont (ID: 17105415/0x01050207), Rholont (ID: 17105415/0x01050207)], work=1301*
338: 0x0B86 [0x5B] LOAD_EXT_SCHEDULER: Load scheduler "kei0" with entities [Cyranuce (ID: 17105447/0x01050227), Cyranuce (ID: 17105447/0x01050227)], work=1301*
339: 0x0B95 [0x5B] LOAD_EXT_SCHEDULER: Load scheduler "kei0" with entities [Machegue (ID: 17105448/0x01050228), Machegue (ID: 17105448/0x01050228)], work=1301*
340: 0x0BA4 [0x1C] WAIT(50* ticks)
341: 0x0BA7 [0x5B] LOAD_EXT_SCHEDULER: Load scheduler "kei1" with entities [Rholont (ID: 17105415/0x01050207), Rholont (ID: 17105415/0x01050207)], work=1301*
342: 0x0BB6 [0x5B] LOAD_EXT_SCHEDULER: Load scheduler "kei1" with entities [Cyranuce (ID: 17105447/0x01050227), Cyranuce (ID: 17105447/0x01050227)], work=1301*
343: 0x0BC5 [0x5B] LOAD_EXT_SCHEDULER: Load scheduler "kei1" with entities [Machegue (ID: 17105448/0x01050228), Machegue (ID: 17105448/0x01050228)], work=1301*
344: 0x0BD4 [0x1C] WAIT(90* ticks)
345: 0x0BD7 [0x59] UPDATE_ENTITY_DATA: Set Rahal (ID: 17105417/0x01050209) turn speed = 50*
346: 0x0BDF [0x4B] UPDATE_ENTITY_YAW(entity=Rahal (ID: 17105417/0x01050209), yaw=20.9°*)
347: 0x0BE6 [0x6F] WAIT_FRAME_DELAY: Yield until WaitTime reaches zero
348: 0x0BE7 [0x76] CHECK_ENTITY_RENDER_FLAGS: Wait until Rahal (ID: 17105417/0x01050209) Render.Flags0 and Render.Flags3 conditions are met
349: 0x0BEC [0x7B] Rahal (ID: 17105417/0x01050209) stops talking
350: 0x0BF1 [0x27] REQ_SET(priority=0x0F, entity_id=Rahal (ID: 17105417/0x01050209), tag_num=0x16)
351: 0x0BF8 [0x5D] SET_MUSIC_VOLUME(volume=60*, fade_time=350*)
352: 0x0BFD [0x1C] WAIT(50* ticks)
353: 0x0C00 [0x4A] Rholont (ID: 17105415/0x01050207) looks at ??? Warmachine (ID: 17105465/0x01050239)
354: 0x0C09 [0x7B] Rholont (ID: 17105415/0x01050207) stops talking
355: 0x0C0E [0x6F] WAIT_FRAME_DELAY: Yield until WaitTime reaches zero
356: 0x0C0F [0x76] CHECK_ENTITY_RENDER_FLAGS: Wait until Rholont (ID: 17105415/0x01050207) Render.Flags0 and Render.Flags3 conditions are met
357: 0x0C14 [0x27] REQ_SET(priority=0x0F, entity_id=Rholont (ID: 17105415/0x01050207), tag_num=0x94)
358: 0x0C1B [0x1C] WAIT(10* ticks)
359: 0x0C1E [0x4A] Cyranuce (ID: 17105447/0x01050227) looks at Machegue (ID: 17105448/0x01050228)
360: 0x0C27 [0x7B] Cyranuce (ID: 17105447/0x01050227) stops talking
361: 0x0C2C [0x6F] WAIT_FRAME_DELAY: Yield until WaitTime reaches zero
362: 0x0C2D [0x76] CHECK_ENTITY_RENDER_FLAGS: Wait until Cyranuce (ID: 17105447/0x01050227) Render.Flags0 and Render.Flags3 conditions are met
363: 0x0C32 [0x5B] LOAD_EXT_SCHEDULER: Load scheduler "tlb0" with entities [Cyranuce (ID: 17105447/0x01050227), Cyranuce (ID: 17105447/0x01050227)], work=1272*
364: 0x0C41 [0x1C] WAIT(15* ticks)
365: 0x0C44 [0x4A] Machegue (ID: 17105448/0x01050228) looks at Cyranuce (ID: 17105447/0x01050227)
366: 0x0C4D [0x7B] Machegue (ID: 17105448/0x01050228) stops talking
367: 0x0C52 [0x6F] WAIT_FRAME_DELAY: Yield until WaitTime reaches zero
368: 0x0C53 [0x76] CHECK_ENTITY_RENDER_FLAGS: Wait until Machegue (ID: 17105448/0x01050228) Render.Flags0 and Render.Flags3 conditions are met
369: 0x0C58 [0x5B] LOAD_EXT_SCHEDULER: Load scheduler "tlb1" with entities [Cyranuce (ID: 17105447/0x01050227), Cyranuce (ID: 17105447/0x01050227)], work=1272*
370: 0x0C67 [0x1C] WAIT(10* ticks)
371: 0x0C6A [0x5B] LOAD_EXT_SCHEDULER: Load scheduler "tla0" with entities [Machegue (ID: 17105448/0x01050228), Machegue (ID: 17105448/0x01050228)], work=1272*
372: 0x0C79 [0x4A] LocalPlayer looks at Rahal (ID: 17105417/0x01050209)
373: 0x0C82 [0x7B] LocalPlayer stops talking
374: 0x0C87 [0x1C] WAIT(15* ticks)
375: 0x0C8A [0x5B] LOAD_EXT_SCHEDULER: Load scheduler "tla1" with entities [Machegue (ID: 17105448/0x01050228), Machegue (ID: 17105448/0x01050228)], work=1272*
376: 0x0C99 [0x52] END_LOAD_SCHEDULER: End scheduler "s022" with entities [LocalPlayer, LocalPlayer], work=434*
377: 0x0CA8 [0x45] LOAD_SCHEDULED_TASK: Load scheduler "s023" with entities [LocalPlayer, LocalPlayer], work=[434*, 0*]
378: 0x0CB9 [0x1C] WAIT(150* ticks)
379: 0x0CBC [0x1A] CALL_SUBROUTINE(address=0x13FF)
380: 0x0CBF [0x7A] VM_CONTROL: Reset VM for Rahal (ID: 17105417/0x01050209)
381: 0x0CC5 [0x52] END_LOAD_SCHEDULER: End scheduler "s023" with entities [LocalPlayer, LocalPlayer], work=434*
382: 0x0CD4 [0x5B] LOAD_EXT_SCHEDULER: Load scheduler "f000" with entities [Rholont (ID: 17105415/0x01050207), Rholont (ID: 17105415/0x01050207)], work=1299*
383: 0x0CE3 [0x5B] LOAD_EXT_SCHEDULER: Load scheduler "f000" with entities [Rahal (ID: 17105417/0x01050209), Rahal (ID: 17105417/0x01050209)], work=1299*
384: 0x0CF2 [0x4A] Rahal (ID: 17105417/0x01050209) looks at Rahal (ID: 17105417/0x01050209)
385: 0x0CFB [0x4A] LocalPlayer looks at LocalPlayer
386: 0x0D04 [0x7B] Rahal (ID: 17105417/0x01050209) stops talking
387: 0x0D09 [0x7B] LocalPlayer stops talking
388: 0x0D0E [0x6F] WAIT_FRAME_DELAY: Yield until WaitTime reaches zero
389: 0x0D0F [0x76] CHECK_ENTITY_RENDER_FLAGS: Wait until Rahal (ID: 17105417/0x01050209) Render.Flags0 and Render.Flags3 conditions are met
390: 0x0D14 [0x6F] WAIT_FRAME_DELAY: Yield until WaitTime reaches zero
391: 0x0D15 [0x76] CHECK_ENTITY_RENDER_FLAGS: Wait until LocalPlayer Render.Flags0 and Render.Flags3 conditions are met
392: 0x0D1A [0xBA] SET_ENTITY_POSITION(entity_id=LocalPlayer, pos_x=-170.755*, pos_z=60.670*, pos_y=-2.000*, direction=334.6°*)
393: 0x0D27 [0xBA] SET_ENTITY_POSITION(entity_id=Rholont (ID: 17105415/0x01050207), pos_x=0.000*, pos_z=0.000*, pos_y=0.000*, direction=0.0°*)
394: 0x0D34 [0xBA] SET_ENTITY_POSITION(entity_id=??? Warmachine (ID: 17105465/0x01050239), pos_x=0.000*, pos_z=0.000*, pos_y=0.000*, direction=0.0°*)
395: 0x0D41 [0xBA] SET_ENTITY_POSITION(entity_id=Rahal (ID: 17105417/0x01050209), pos_x=-160.057*, pos_z=59.214*, pos_y=-2.000*, direction=334.7°*)
396: 0x0D4E [0xBA] SET_ENTITY_POSITION(entity_id=Cyranuce (ID: 17105447/0x01050227), pos_x=0.000*, pos_z=0.000*, pos_y=0.000*, direction=0.0°*)
397: 0x0D5B [0xBA] SET_ENTITY_POSITION(entity_id=Machegue (ID: 17105448/0x01050228), pos_x=0.000*, pos_z=0.000*, pos_y=0.000*, direction=0.0°*)
398: 0x0D68 [0x4A] LocalPlayer looks at Rahal (ID: 17105417/0x01050209)
399: 0x0D71 [0x79] LocalPlayer looks at LocalPlayer (Basic look)
400: 0x0D7B [0x7B] LocalPlayer stops talking
401: 0x0D80 [0x7B] Rahal (ID: 17105417/0x01050209) stops talking
402: 0x0D85 [0x80] LOAD_WAIT(entity=LocalPlayer)
403: 0x0D8A [0x80] LOAD_WAIT(entity=Rahal (ID: 17105417/0x01050209))
404: 0x0D8F [0x1C] WAIT(80* ticks)
405: 0x0D92 [0x48] [System] [13105*]:
    → "@@"
406: 0x0D95 [0x23] WAIT_FOR_DIALOG_INTERACTION
407: 0x0D96 [0x45] LOAD_SCHEDULED_TASK: Load scheduler "s024" with entities [LocalPlayer, LocalPlayer], work=[434*, 0*]
408: 0x0DA7 [0x1A] CALL_SUBROUTINE(address=0x13DE)
409: 0x0DAA [0x1C] WAIT(100* ticks)
410: 0x0DAD [0x27] REQ_SET(priority=0x10, entity_id=LocalPlayer, tag_num=0x33)
411: 0x0DB4 [0x52] END_LOAD_SCHEDULER: End scheduler "s024" with entities [LocalPlayer, LocalPlayer], work=434*
412: 0x0DC3 [0x45] LOAD_SCHEDULED_TASK: Load scheduler "s018" with entities [LocalPlayer, LocalPlayer], work=[434*, 0*]
413: 0x0DD4 [0x1C] WAIT(380* ticks)
414: 0x0DD7 [0x2A] GET_REQ_LEVEL(level=16, entity_id=LocalPlayer)
415: 0x0DDD [0x59] UPDATE_ENTITY_DATA: Set LocalPlayer turn speed = 50*
416: 0x0DE5 [0x4A] LocalPlayer looks at Rahal (ID: 17105417/0x01050209)
417: 0x0DEE [0x7B] LocalPlayer stops talking
418: 0x0DF3 [0x6F] WAIT_FRAME_DELAY: Yield until WaitTime reaches zero
419: 0x0DF4 [0x76] CHECK_ENTITY_RENDER_FLAGS: Wait until LocalPlayer Render.Flags0 and Render.Flags3 conditions are met
420: 0x0DF9 [0x59] UPDATE_ENTITY_DATA: Set Rahal (ID: 17105417/0x01050209) turn speed = 50*
421: 0x0E01 [0x4B] UPDATE_ENTITY_YAW(entity=Rahal (ID: 17105417/0x01050209), yaw=12.1°*)
422: 0x0E08 [0x7B] Rahal (ID: 17105417/0x01050209) stops talking
423: 0x0E0D [0x6F] WAIT_FRAME_DELAY: Yield until WaitTime reaches zero
424: 0x0E0E [0x76] CHECK_ENTITY_RENDER_FLAGS: Wait until Rahal (ID: 17105417/0x01050209) Render.Flags0 and Render.Flags3 conditions are met
425: 0x0E13 [0x1C] WAIT(30* ticks)
426: 0x0E16 [0x2B] Rahal (ID: 17105417/0x01050209) [13653*]:
    → "<Player>, I've been wanting to speak with you in private for some time now."
427: 0x0E1D [0x23] WAIT_FOR_DIALOG_INTERACTION
428: 0x0E1E [0x1C] WAIT(20* ticks)
429: 0x0E21 [0x52] END_LOAD_SCHEDULER: End scheduler "s018" with entities [LocalPlayer, LocalPlayer], work=434*
430: 0x0E30 [0x45] LOAD_SCHEDULED_TASK: Load scheduler "s017" with entities [LocalPlayer, LocalPlayer], work=[434*, 0*]
431: 0x0E41 [0x2B] Rahal (ID: 17105417/0x01050209) [13654*]:
    → "Have you...ever been to Tavnazia?"
432: 0x0E48 [0x23] WAIT_FOR_DIALOG_INTERACTION
433: 0x0E49 [0x2B] Rahal (ID: 17105417/0x01050209) [13655*]:
    → "Or, even if you haven't, perhaps you've some knowledge of it?"
434: 0x0E50 [0x23] WAIT_FOR_DIALOG_INTERACTION
435: 0x0E51 [0x5B] LOAD_EXT_SCHEDULER: Load scheduler "kai0" with entities [Rahal (ID: 17105417/0x01050209), Rahal (ID: 17105417/0x01050209)], work=1504*
436: 0x0E60 [0x1C] WAIT(10* ticks)
437: 0x0E63 [0x52] END_LOAD_SCHEDULER: End scheduler "s017" with entities [LocalPlayer, LocalPlayer], work=434*
438: 0x0E72 [0x45] LOAD_SCHEDULED_TASK: Load scheduler "s034" with entities [LocalPlayer, LocalPlayer], work=[434*, 0*]
439: 0x0E83 [0x1C] WAIT(20* ticks)
440: 0x0E86 [0x2B] Rahal (ID: 17105417/0x01050209) [13656*]:
    → "A-actually, never mind... You needn't tell me."
441: 0x0E8D [0x23] WAIT_FOR_DIALOG_INTERACTION
442: 0x0E8E [0x53] WAIT_SCHEDULER_TASK: Wait for scheduler "kai0" with entities [Rahal (ID: 17105417/0x01050209), Rahal (ID: 17105417/0x01050209)]
443: 0x0E9B [0x1C] WAIT(30* ticks)
444: 0x0E9E [0x52] END_LOAD_SCHEDULER: End scheduler "s034" with entities [LocalPlayer, LocalPlayer], work=434*
445: 0x0EAD [0x45] LOAD_SCHEDULED_TASK: Load scheduler "s015" with entities [LocalPlayer, LocalPlayer], work=[434*, 0*]
446: 0x0EBE [0x1C] WAIT(30* ticks)
447: 0x0EC1 [0x2B] Rahal (ID: 17105417/0x01050209) [13657*]:
    → "I've much to talk about with Excenmille the next time he and I meet..."
448: 0x0EC8 [0x23] WAIT_FOR_DIALOG_INTERACTION
449: 0x0EC9 [0x1C] WAIT(15* ticks)
450: 0x0ECC [0x5B] LOAD_EXT_SCHEDULER: Load scheduler "kai1" with entities [Rahal (ID: 17105417/0x01050209), Rahal (ID: 17105417/0x01050209)], work=1504*
451: 0x0EDB [0x1C] WAIT(60* ticks)
452: 0x0EDE [0x5D] SET_MUSIC_VOLUME(volume=0*, fade_time=510*)
453: 0x0EE3 [0x55] WAIT_LOAD_SCHEDULER: Wait for scheduler "s015" with entities [LocalPlayer, LocalPlayer], work=434*
454: 0x0EF2 [0x52] END_LOAD_SCHEDULER: End scheduler "s015" with entities [LocalPlayer, LocalPlayer], work=434*
455: 0x0F01 [0x45] LOAD_SCHEDULED_TASK: Load scheduler "s003" with entities [LocalPlayer, LocalPlayer], work=[434*, 0*]
456: 0x0F12 [0x1C] WAIT(10* ticks)
457: 0x0F15 [0x2B] Rahal (ID: 17105417/0x01050209) [13658*]:
    → "And then I'll put things right between us..."
458: 0x0F1C [0x23] WAIT_FOR_DIALOG_INTERACTION
459: 0x0F1D [0x55] WAIT_LOAD_SCHEDULER: Wait for scheduler "s003" with entities [LocalPlayer, LocalPlayer], work=434*
460: 0x0F2C [0x1A] CALL_SUBROUTINE(address=0x13FF)
461: 0x0F2F [0x52] END_LOAD_SCHEDULER: End scheduler "s003" with entities [LocalPlayer, LocalPlayer], work=434*
462: 0x0F3E [0x5B] LOAD_EXT_SCHEDULER: Load scheduler "kai2" with entities [Rahal (ID: 17105417/0x01050209), Rahal (ID: 17105417/0x01050209)], work=1504*
463: 0x0F4D [0x4A] LocalPlayer looks at LocalPlayer
464: 0x0F56 [0x34] LOAD_UNLOAD_ZONE(zone_id=103*)
465: 0x0F59 [0x77] SET_EVENT_TIME_WEATHER(hour=21*, weather=0*)
466: 0x0F5E [0x1C] WAIT(30* ticks)
467: 0x0F61 [0xAB] EventEntity->UnknownFlag = 1 // Enable unknown flag
468: 0x0F63 [0x5C] MUSIC_CONTROL: Set Idle (Day) music to song 0*
469: 0x0F67 [0x5C] MUSIC_CONTROL: Set Idle (Night) music to song 0*
470: 0x0F6B [0x9A] WAIT_MUSIC_SERVER()
471: 0x0F6C [0x4E] SET_ENTITY_HIDE_FLAG: Hide Rholont (ID: 17105415/0x01050207)
472: 0x0F72 [0x4E] SET_ENTITY_HIDE_FLAG: Hide ??? Warmachine (ID: 17105465/0x01050239)
473: 0x0F78 [0x4E] SET_ENTITY_HIDE_FLAG: Hide Rahal (ID: 17105417/0x01050209)
474: 0x0F7E [0x4E] SET_ENTITY_HIDE_FLAG: Hide Cyranuce (ID: 17105447/0x01050227)
475: 0x0F84 [0x4E] SET_ENTITY_HIDE_FLAG: Hide Machegue (ID: 17105448/0x01050228)
476: 0x0F8A [0xBA] SET_ENTITY_POSITION(entity_id=LocalPlayer, pos_x=37.267*, pos_z=-10.792*, pos_y=-0.046*, direction=0.0°*)
477: 0x0F97 [0xBA] SET_ENTITY_POSITION(entity_id=Alphonimile (ID: 17105424/0x01050210), pos_x=-160.076*, pos_z=55.939*, pos_y=-1.505*, direction=0.0°*)
478: 0x0FA4 [0xBA] SET_ENTITY_POSITION(entity_id=Unknown NPC (ID: 17105615/0x010502CF), pos_x=-160.076*, pos_z=55.939*, pos_y=-1.505*, direction=0.0°*)
479: 0x0FB1 [0xBA] SET_ENTITY_POSITION(entity_id=Excenmille (ID: 17105418/0x0105020A), pos_x=-175.402*, pos_z=60.211*, pos_y=-0.752*, direction=0.0°*)
480: 0x0FBE [0xBA] SET_ENTITY_POSITION(entity_id=Unknown NPC (ID: 17105614/0x010502CE), pos_x=-175.402*, pos_z=60.211*, pos_y=-0.752*, direction=0.0°*)
481: 0x0FCB [0x80] LOAD_WAIT(entity=LocalPlayer)
482: 0x0FD0 [0x80] LOAD_WAIT(entity=Rahal (ID: 17105417/0x01050209))
483: 0x0FD5 [0x80] LOAD_WAIT(entity=Alphonimile (ID: 17105424/0x01050210))
484: 0x0FDA [0x80] LOAD_WAIT(entity=Unknown NPC (ID: 17105615/0x010502CF))
485: 0x0FDF [0x80] LOAD_WAIT(entity=Excenmille (ID: 17105418/0x0105020A))
486: 0x0FE4 [0x80] LOAD_WAIT(entity=Unknown NPC (ID: 17105614/0x010502CE))
487: 0x0FE9 [0x29] REQ_SET_WAIT(priority=0x0F, entity_id=Excenmille (ID: 17105418/0x0105020A), tag_num=0x17)
488: 0x0FF0 [0x29] REQ_SET_WAIT(priority=0x0F, entity_id=Unknown NPC (ID: 17105614/0x010502CE), tag_num=0x04)
489: 0x0FF7 [0x79] LocalPlayer looks at LocalPlayer (Basic look)
490: 0x1001 [0x7B] LocalPlayer stops talking
491: 0x1006 [0x7B] Rahal (ID: 17105417/0x01050209) stops talking
492: 0x100B [0x7B] Alphonimile (ID: 17105424/0x01050210) stops talking
493: 0x1010 [0x7B] Unknown NPC (ID: 17105615/0x010502CF) stops talking
494: 0x1015 [0x7B] Excenmille (ID: 17105418/0x0105020A) stops talking
495: 0x101A [0x7B] Unknown NPC (ID: 17105614/0x010502CE) stops talking
496: 0x101F [0x5B] LOAD_EXT_SCHEDULER: Load scheduler 0xFEFEFE00 with entities [Alphonimile (ID: 17105424/0x01050210), Alphonimile (ID: 17105424/0x01050210)], work=2257*
497: 0x102E [0x5B] LOAD_EXT_SCHEDULER: Load scheduler 0xFEFEFE00 with entities [Unknown NPC (ID: 17105615/0x010502CF), Unknown NPC (ID: 17105615/0x010502CF)], work=2066*
498: 0x103D [0x5B] LOAD_EXT_SCHEDULER: Load scheduler 0xFEFEFE00 with entities [Excenmille (ID: 17105418/0x0105020A), Excenmille (ID: 17105418/0x0105020A)], work=2345*
499: 0x104C [0x5B] LOAD_EXT_SCHEDULER: Load scheduler 0xFEFEFE00 with entities [Unknown NPC (ID: 17105614/0x010502CE), Unknown NPC (ID: 17105614/0x010502CE)], work=2065*
500: 0x105B [0x5B] LOAD_EXT_SCHEDULER: Load scheduler "mof0" with entities [Alphonimile (ID: 17105424/0x01050210), Alphonimile (ID: 17105424/0x01050210)], work=2257*
501: 0x106A [0x5B] LOAD_EXT_SCHEDULER: Load scheduler "mof0" with entities [Unknown NPC (ID: 17105615/0x010502CF), Unknown NPC (ID: 17105615/0x010502CF)], work=2066*
502: 0x1079 [0x5B] LOAD_EXT_SCHEDULER: Load scheduler "moe0" with entities [Excenmille (ID: 17105418/0x0105020A), Excenmille (ID: 17105418/0x0105020A)], work=2345*
503: 0x1088 [0x5B] LOAD_EXT_SCHEDULER: Load scheduler "moe0" with entities [Unknown NPC (ID: 17105614/0x010502CE), Unknown NPC (ID: 17105614/0x010502CE)], work=2065*
504: 0x1097 [0x48] [System] [13105*]:
    → "@@"
505: 0x109A [0x23] WAIT_FOR_DIALOG_INTERACTION
506: 0x109B [0x45] LOAD_SCHEDULED_TASK: Load scheduler "s004" with entities [LocalPlayer, LocalPlayer], work=[434*, 0*]
507: 0x10AC [0x1A] CALL_SUBROUTINE(address=0x13DE)
508: 0x10AF [0x55] WAIT_LOAD_SCHEDULER: Wait for scheduler "s004" with entities [LocalPlayer, LocalPlayer], work=434*
509: 0x10BE [0x1C] WAIT(30* ticks)
510: 0x10C1 [0x52] END_LOAD_SCHEDULER: End scheduler "s004" with entities [LocalPlayer, LocalPlayer], work=434*
511: 0x10D0 [0x45] LOAD_SCHEDULED_TASK: Load scheduler "s005" with entities [LocalPlayer, LocalPlayer], work=[434*, 0*]
512: 0x10E1 [0x5B] LOAD_EXT_SCHEDULER: Load scheduler "mof1" with entities [Alphonimile (ID: 17105424/0x01050210), Alphonimile (ID: 17105424/0x01050210)], work=2257*
513: 0x10F0 [0x5B] LOAD_EXT_SCHEDULER: Load scheduler "mof1" with entities [Unknown NPC (ID: 17105615/0x010502CF), Unknown NPC (ID: 17105615/0x010502CF)], work=2066*
514: 0x10FF [0x1C] WAIT(100* ticks)
515: 0x1102 [0x2B] Alphonimile (ID: 17105424/0x01050210) [13659*]:
    → "What's the matter? Already beset with homesickness?"
516: 0x1109 [0x23] WAIT_FOR_DIALOG_INTERACTION
517: 0x110A [0x52] END_LOAD_SCHEDULER: End scheduler "s005" with entities [LocalPlayer, LocalPlayer], work=434*
518: 0x1119 [0x45] LOAD_SCHEDULED_TASK: Load scheduler "s030" with entities [LocalPlayer, LocalPlayer], work=[434*, 0*]
519: 0x112A [0x1C] WAIT(50* ticks)
520: 0x112D [0x5B] LOAD_EXT_SCHEDULER: Load scheduler "moe1" with entities [Excenmille (ID: 17105418/0x0105020A), Excenmille (ID: 17105418/0x0105020A)], work=2345*
521: 0x113C [0x5B] LOAD_EXT_SCHEDULER: Load scheduler "moe1" with entities [Unknown NPC (ID: 17105614/0x010502CE), Unknown NPC (ID: 17105614/0x010502CE)], work=2065*
522: 0x114B [0x1C] WAIT(30* ticks)
523: 0x114E [0x2B] Excenmille (ID: 17105418/0x0105020A) [13660*]:
    → "It...it's nothing, sir."
524: 0x1155 [0x23] WAIT_FOR_DIALOG_INTERACTION
525: 0x1156 [0x53] WAIT_SCHEDULER_TASK: Wait for scheduler "moe1" with entities [Excenmille (ID: 17105418/0x0105020A), Excenmille (ID: 17105418/0x0105020A)]
526: 0x1163 [0x1C] WAIT(30* ticks)
527: 0x1166 [0x52] END_LOAD_SCHEDULER: End scheduler "s030" with entities [LocalPlayer, LocalPlayer], work=434*
528: 0x1175 [0x45] LOAD_SCHEDULED_TASK: Load scheduler "s006" with entities [LocalPlayer, LocalPlayer], work=[434*, 0*]
529: 0x1186 [0x2B] Alphonimile (ID: 17105424/0x01050210) [13661*]:
    → "Need I remind you the consequence of not passing beyond these dunes by the night's end? The beastmen have amassed a force of unprecedented scale. Should they arrive first and lay siege to Tavnazia before we can come to her aid, all would be lost."
530: 0x118D [0x23] WAIT_FOR_DIALOG_INTERACTION
531: 0x118E [0x1C] WAIT(15* ticks)
532: 0x1191 [0x52] END_LOAD_SCHEDULER: End scheduler "s006" with entities [LocalPlayer, LocalPlayer], work=434*
533: 0x11A0 [0x45] LOAD_SCHEDULED_TASK: Load scheduler "s007" with entities [LocalPlayer, LocalPlayer], work=[434*, 0*]
534: 0x11B1 [0x2B] Excenmille (ID: 17105418/0x0105020A) [13662*]:
    → "...Yes, sir. I beg your pardon, sir."
535: 0x11B8 [0x23] WAIT_FOR_DIALOG_INTERACTION
536: 0x11B9 [0x1C] WAIT(15* ticks)
537: 0x11BC [0x52] END_LOAD_SCHEDULER: End scheduler "s007" with entities [LocalPlayer, LocalPlayer], work=434*
538: 0x11CB [0x45] LOAD_SCHEDULED_TASK: Load scheduler "s031" with entities [LocalPlayer, LocalPlayer], work=[434*, 0*]
539: 0x11DC [0x1C] WAIT(30* ticks)
540: 0x11DF [0x2B] Alphonimile (ID: 17105424/0x01050210) [13663*]:
    → "Keep pace, soldier. We've much distance to cover yet."
541: 0x11E6 [0x23] WAIT_FOR_DIALOG_INTERACTION
542: 0x11E7 [0x1C] WAIT(50* ticks)
543: 0x11EA [0xBA] SET_ENTITY_POSITION(entity_id=kisiA (ID: 17105451/0x0105022B), pos_x=-80.171*, pos_z=37.794*, pos_y=-0.001*, direction=0.0°*)
544: 0x11F7 [0xBA] SET_ENTITY_POSITION(entity_id=kisiB (ID: 17105452/0x0105022C), pos_x=-88.683*, pos_z=43.257*, pos_y=-0.110*, direction=0.0°*)
545: 0x1204 [0xBA] SET_ENTITY_POSITION(entity_id=kisiC (ID: 17105453/0x0105022D), pos_x=-93.962*, pos_z=40.084*, pos_y=0.567*, direction=0.0°*)
546: 0x1211 [0xBA] SET_ENTITY_POSITION(entity_id=kisiD (ID: 17105454/0x0105022E), pos_x=-94.114*, pos_z=33.052*, pos_y=-0.174*, direction=0.0°*)
547: 0x121E [0xBA] SET_ENTITY_POSITION(entity_id=kisiE (ID: 17105455/0x0105022F), pos_x=-100.170*, pos_z=36.370*, pos_y=0.111*, direction=0.0°*)
548: 0x122B [0x80] LOAD_WAIT(entity=kisiA (ID: 17105451/0x0105022B))
549: 0x1230 [0x80] LOAD_WAIT(entity=kisiB (ID: 17105452/0x0105022C))
550: 0x1235 [0x80] LOAD_WAIT(entity=kisiC (ID: 17105453/0x0105022D))
551: 0x123A [0x80] LOAD_WAIT(entity=kisiD (ID: 17105454/0x0105022E))
552: 0x123F [0x80] LOAD_WAIT(entity=kisiE (ID: 17105455/0x0105022F))
553: 0x1244 [0x7B] kisiA (ID: 17105451/0x0105022B) stops talking
554: 0x1249 [0x7B] kisiB (ID: 17105452/0x0105022C) stops talking
555: 0x124E [0x7B] kisiC (ID: 17105453/0x0105022D) stops talking
556: 0x1253 [0x7B] kisiD (ID: 17105454/0x0105022E) stops talking
557: 0x1258 [0x7B] kisiE (ID: 17105455/0x0105022F) stops talking
558: 0x125D [0x27] REQ_SET(priority=0x0F, entity_id=kisiA (ID: 17105451/0x0105022B), tag_num=0x08)
559: 0x1264 [0x27] REQ_SET(priority=0x0F, entity_id=kisiB (ID: 17105452/0x0105022C), tag_num=0x08)
560: 0x126B [0x27] REQ_SET(priority=0x0F, entity_id=kisiC (ID: 17105453/0x0105022D), tag_num=0x08)
561: 0x1272 [0x27] REQ_SET(priority=0x0F, entity_id=kisiD (ID: 17105454/0x0105022E), tag_num=0x08)
562: 0x1279 [0x27] REQ_SET(priority=0x0F, entity_id=kisiE (ID: 17105455/0x0105022F), tag_num=0x08)
563: 0x1280 [0x52] END_LOAD_SCHEDULER: End scheduler "s031" with entities [LocalPlayer, LocalPlayer], work=434*
564: 0x128F [0x45] LOAD_SCHEDULED_TASK: Load scheduler "s032" with entities [LocalPlayer, LocalPlayer], work=[434*, 0*]
565: 0x12A0 [0x5B] LOAD_EXT_SCHEDULER: Load scheduler "mof2" with entities [Alphonimile (ID: 17105424/0x01050210), Alphonimile (ID: 17105424/0x01050210)], work=2257*
566: 0x12AF [0x5B] LOAD_EXT_SCHEDULER: Load scheduler "mof2" with entities [Unknown NPC (ID: 17105615/0x010502CF), Unknown NPC (ID: 17105615/0x010502CF)], work=2066*
567: 0x12BE [0x5B] LOAD_EXT_SCHEDULER: Load scheduler "f000" with entities [Excenmille (ID: 17105418/0x0105020A), Excenmille (ID: 17105418/0x0105020A)], work=1299*
568: 0x12CD [0x55] WAIT_LOAD_SCHEDULER: Wait for scheduler "s032" with entities [LocalPlayer, LocalPlayer], work=434*
569: 0x12DC [0x5B] LOAD_EXT_SCHEDULER: Load scheduler "moe2" with entities [Excenmille (ID: 17105418/0x0105020A), Excenmille (ID: 17105418/0x0105020A)], work=2345*
570: 0x12EB [0x5B] LOAD_EXT_SCHEDULER: Load scheduler "moe2" with entities [Unknown NPC (ID: 17105614/0x010502CE), Unknown NPC (ID: 17105614/0x010502CE)], work=2065*
571: 0x12FA [0x1C] WAIT(70* ticks)
572: 0x12FD [0x52] END_LOAD_SCHEDULER: End scheduler "s032" with entities [LocalPlayer, LocalPlayer], work=434*
573: 0x130C [0x45] LOAD_SCHEDULED_TASK: Load scheduler "s040" with entities [LocalPlayer, LocalPlayer], work=[434*, 0*]
574: 0x131D [0x5B] LOAD_EXT_SCHEDULER: Load scheduler "mof2" with entities [Alphonimile (ID: 17105424/0x01050210), Alphonimile (ID: 17105424/0x01050210)], work=2257*
575: 0x132C [0x5B] LOAD_EXT_SCHEDULER: Load scheduler "mof2" with entities [Unknown NPC (ID: 17105615/0x010502CF), Unknown NPC (ID: 17105615/0x010502CF)], work=2066*
576: 0x133B [0x1C] WAIT(161* ticks)
577: 0x133E [0x27] REQ_SET(priority=0x0F, entity_id=kisiA (ID: 17105451/0x0105022B), tag_num=0x09)
578: 0x1345 [0x1C] WAIT(5* ticks)
579: 0x1348 [0x27] REQ_SET(priority=0x0F, entity_id=kisiB (ID: 17105452/0x0105022C), tag_num=0x09)
580: 0x134F [0x1C] WAIT(7* ticks)
581: 0x1352 [0x27] REQ_SET(priority=0x0F, entity_id=kisiC (ID: 17105453/0x0105022D), tag_num=0x09)
582: 0x1359 [0x1C] WAIT(3* ticks)
583: 0x135C [0x27] REQ_SET(priority=0x0F, entity_id=kisiD (ID: 17105454/0x0105022E), tag_num=0x09)
584: 0x1363 [0x1C] WAIT(10* ticks)
585: 0x1366 [0x27] REQ_SET(priority=0x0F, entity_id=kisiE (ID: 17105455/0x0105022F), tag_num=0x09)
586: 0x136D [0x1C] WAIT(90* ticks)
587: 0x1370 [0x52] END_LOAD_SCHEDULER: End scheduler "s040" with entities [LocalPlayer, LocalPlayer], work=434*
588: 0x137F [0x45] LOAD_SCHEDULED_TASK: Load scheduler "s009" with entities [LocalPlayer, LocalPlayer], work=[434*, 0*]
589: 0x1390 [0x1C] WAIT(140* ticks)
590: 0x1393 [0x1A] CALL_SUBROUTINE(address=0x13FF)
591: 0x1396 [0x35] LOAD_ZONE_NO_CLOSE(zone_id=80*)
592: 0x1399 [0x78] ENABLE_GAME_TIMER_RESET_WEATHER()
593: 0x139A [0x1C] WAIT(1* ticks)
594: 0x139D [0xAB] EventEntity->UnknownFlag = 0 // Disable unknown flag
595: 0x139F [0x1C] WAIT(30* ticks)
596: 0x13A2 [0x29] REQ_SET_WAIT(priority=0x0F, entity_id=Excenmille (ID: 17105418/0x0105020A), tag_num=0x16)
597: 0x13A9 [0x52] END_LOAD_SCHEDULER: End scheduler "s009" with entities [LocalPlayer, LocalPlayer], work=434*
598: 0x13B8 [0x46] CAMERA_CONTROL: Restore default settings
599: 0x13BA [0x45] LOAD_SCHEDULED_TASK: Load scheduler "fdi2" with entities [LocalPlayer, LocalPlayer], work=[200*, 0*]
600: 0x13CB [0x45] LOAD_SCHEDULED_TASK: Load scheduler "qstc" with entities [EventEntity, EventEntity], work=[201*, 0*]
601: 0x13DC [0x21] END_EVENT
602: 0x13DD [0x00] END_REQSTACK()

SUBROUTINE_13DE:
603: 0x13DE [0x45] LOAD_SCHEDULED_TASK: Load scheduler "fdi1" with entities [LocalPlayer, LocalPlayer], work=[200*, 0*]
604: 0x13EF [0x55] WAIT_LOAD_SCHEDULER: Wait for scheduler "fdi1" with entities [LocalPlayer, LocalPlayer], work=200*
605: 0x13FE [0x1B] RETURN

SUBROUTINE_13FF:
606: 0x13FF [0x45] LOAD_SCHEDULED_TASK: Load scheduler "fdo1" with entities [LocalPlayer, LocalPlayer], work=[200*, 0*]
607: 0x1410 [0x55] WAIT_LOAD_SCHEDULER: Wait for scheduler "fdo1" with entities [LocalPlayer, LocalPlayer], work=200*
608: 0x141F [0x1B] RETURN
```

#### Data or dead code:

```
# Dead code (unreachable instructions):
     0x1420 [0x45] LOAD_SCHEDULED_TASK: Load scheduler "whi1" with entities [LocalPlayer, LocalPlayer], work=[201*, 0*]
     0x1431 [0x55] WAIT_LOAD_SCHEDULER: Wait for scheduler "whi1" with entities [LocalPlayer, LocalPlayer], work=201*
     0x1440 [0x1B] RETURN
     0x1441 [0x45] LOAD_SCHEDULED_TASK: Load scheduler "who1" with entities [LocalPlayer, LocalPlayer], work=[201*, 0*]
     0x1452 [0x55] WAIT_LOAD_SCHEDULER: Wait for scheduler "who1" with entities [LocalPlayer, LocalPlayer], work=201*
     0x1461 [0x1B] RETURN
```
