# 17105254 - Choh Moui

## Common Data

| Field            | Value                            |
|------------------|----------------------------------|
| Zone             | Southern San d'Oria [S] (ID: 80) |
| Block Size       | 392 bytes                        |
| Total Events     | 2                                |
| References Count | 10                               |

## List of Events

| Event ID              | Entrypoint   |   Size |   Instructions |
|-----------------------|--------------|--------|----------------|
| [65535](#event-65535) | 0x0000       |      1 |              1 |
| [506](#event-506)     | 0x0001       |    325 |             88 |

## DAT References (imed_data)

|   Index | Hex Value   |   Dec Value |
|---------|-------------|-------------|
|       0 | 0x2BFD      |       11261 |
|       1 | 0x0000      |           0 |
|       2 | 0x2BFE      |       11262 |
|       3 | 0x0001      |           1 |
|       4 | 0x2BFF      |       11263 |
|       5 | 0x2C00      |       11264 |
|       6 | 0x0002      |           2 |
|       7 | 0x0003      |           3 |
|       8 | 0x2C01      |       11265 |
|       9 | 0x2C02      |       11266 |

## String References

- **11261**: Wheheheheheheh...
- **11262**: Wheheheh... This musty place's filled with tasty eats for my babies.
- **11263**: Whahahahah! He's a plump one, eh? Had 'is fill bitin' the ankles of all the pretty nobles now, did he?
- **11264**: The chigoe jumps into Choh Moui's satchel.
- **11265**: Oooh! With these I can make me and my babies some tasty fixins, ya!
- **11266**: Wha-wha? Moui don't know nothing 'bout no pet food. Why this smell like my breakfast?

## Events

### Event 65535

#### Metadata

| Field        | Value   |
|--------------|---------|
| Entrypoint   | 0x0000  |
| Data Size    | 1 bytes |
| Instructions | 1       |

```
      00 01 02 03 04 05 06 07  08 09 0A 0B 0C 0D 0E 0F
      -- -- -- -- -- -- -- --  -- -- -- -- -- -- -- --
0000: 00                                                .               
```

#### Opcodes

```
  0: 0x0000 [0x00] END_REQSTACK()
```

### Event 506

#### Metadata

| Field        | Value     |
|--------------|-----------|
| Entrypoint   | 0x0001    |
| Data Size    | 325 bytes |
| Instructions | 88        |

```
      00 01 02 03 04 05 06 07  08 09 0A 0B 0C 0D 0E 0F
      -- -- -- -- -- -- -- --  -- -- -- -- -- -- -- --
0000:    20 01 42 1E F0 FF FF  7F 03 00 00 02 10 03 01    .B............
0010: 00 03 10 03 02 00 04 10  03 03 00 05 10 03 04 00  ................
0020: 06 10 1D 00 80 23 02 02  10 01 80 00 3A 01 02 03  .....#......:...
0030: 00 01 80 80 3D 00 1D 02  80 23 01 37 01 02 03 00  ....=....#.7....
0040: 03 80 80 AE 00 02 02 00  03 80 00 A7 00 02 01 00  ................
0050: 01 80 80 5C 00 1D 02 80  23 01 A4 00 02 01 00 03  ...\....#.......
0060: 80 80 74 00 03 02 10 01  80 1D 04 80 23 48 05 80  ..t.........#H..
0070: 23 01 A4 00 02 01 00 06  80 80 8C 00 03 02 10 03  #...............
0080: 80 1D 04 80 23 48 05 80  23 01 A4 00 02 01 00 07  ....#H..#.......
0090: 80 80 A4 00 03 02 10 06  80 1D 04 80 23 48 05 80  ............#H..
00A0: 23 01 A4 00 01 AB 00 1D  02 80 23 01 37 01 02 03  #.........#.7...
00B0: 00 06 80 80 28 01 02 01  00 01 80 80 C5 00 1D 02  ....(...........
00C0: 80 23 01 25 01 02 01 00  03 80 80 E5 00 03 02 10  .#.%............
00D0: 01 80 1D 08 80 23 02 02  00 03 80 00 E2 00 1D 04  .....#..........
00E0: 80 23 01 25 01 02 01 00  06 80 80 05 01 03 02 10  .#.%............
00F0: 03 80 1D 08 80 23 02 02  00 03 80 00 02 01 1D 04  .....#..........
0100: 80 23 01 25 01 02 01 00  07 80 80 25 01 03 02 10  .#.%.......%....
0110: 06 80 1D 08 80 23 02 02  00 03 80 00 22 01 1D 04  .....#......"...
0120: 80 23 01 25 01 01 37 01  02 03 00 07 80 80 37 01  .#.%..7.......7.
0130: 1D 09 80 23 01 37 01 01  3E 01 1D 02 80 23 1D 00  ...#.7..>....#..
0140: 80 23 20 00 21 00                                 .# .!.          
```

#### Opcodes

```
  0: 0x0001 [0x20] SET_CLI_EVENT_UC_FLAG: Lock player control
  1: 0x0003 [0x42] SET_CLI_EVENT_CANCEL_DATA()
  2: 0x0004 [0x1E] EventEntity looks at LocalPlayer and starts talking
  3: 0x0009 [0x03] ExtData[1]->WorkLocal[0] = Work_Zone[2]
  4: 0x000E [0x03] ExtData[1]->WorkLocal[1] = Work_Zone[3]
  5: 0x0013 [0x03] ExtData[1]->WorkLocal[2] = Work_Zone[4]
  6: 0x0018 [0x03] ExtData[1]->WorkLocal[3] = Work_Zone[5]
  7: 0x001D [0x03] ExtData[1]->WorkLocal[4] = Work_Zone[6]
  8: 0x0022 [0x1D] PRINT_EVENT_MESSAGE(message_id=11261*)
    → "Wheheheheheheh..."
  9: 0x0025 [0x23] WAIT_FOR_DIALOG_INTERACTION
 10: 0x0026 [0x02] IF !(Work_Zone[2] == 0*) GOTO 0x013A
 11: 0x002E [0x02] IF !(ExtData[1]->WorkLocal[3] == 0*) GOTO 0x003D
 12: 0x0036 [0x1D] PRINT_EVENT_MESSAGE(message_id=11262*)
    → "Wheheheh... This musty place's filled with tasty eats for my babies."
 13: 0x0039 [0x23] WAIT_FOR_DIALOG_INTERACTION
 14: 0x003A [0x01] GOTO 0x0137
 15: 0x003D [0x02] IF !(ExtData[1]->WorkLocal[3] == 1*) GOTO 0x00AE
 16: 0x0045 [0x02] IF !(ExtData[1]->WorkLocal[2] == 1*) GOTO 0x00A7
 17: 0x004D [0x02] IF !(ExtData[1]->WorkLocal[1] == 0*) GOTO 0x005C
 18: 0x0055 [0x1D] PRINT_EVENT_MESSAGE(message_id=11262*)
    → "Wheheheh... This musty place's filled with tasty eats for my babies."
 19: 0x0058 [0x23] WAIT_FOR_DIALOG_INTERACTION
 20: 0x0059 [0x01] GOTO 0x00A4
 21: 0x005C [0x02] IF !(ExtData[1]->WorkLocal[1] == 1*) GOTO 0x0074
 22: 0x0064 [0x03] Work_Zone[2] = 0*
 23: 0x0069 [0x1D] PRINT_EVENT_MESSAGE(message_id=11263*)
    → "Whahahahah! He's a plump one, eh? Had 'is fill bitin' the ankles of all the pretty nobles now, did he?"
 24: 0x006C [0x23] WAIT_FOR_DIALOG_INTERACTION
 25: 0x006D [0x48] [System] [11264*]:
    → "The chigoe jumps into Choh Moui's satchel."
 26: 0x0070 [0x23] WAIT_FOR_DIALOG_INTERACTION
 27: 0x0071 [0x01] GOTO 0x00A4
 28: 0x0074 [0x02] IF !(ExtData[1]->WorkLocal[1] == 2*) GOTO 0x008C
 29: 0x007C [0x03] Work_Zone[2] = 1*
 30: 0x0081 [0x1D] PRINT_EVENT_MESSAGE(message_id=11263*)
    → "Whahahahah! He's a plump one, eh? Had 'is fill bitin' the ankles of all the pretty nobles now, did he?"
 31: 0x0084 [0x23] WAIT_FOR_DIALOG_INTERACTION
 32: 0x0085 [0x48] [System] [11264*]:
    → "The chigoe jumps into Choh Moui's satchel."
 33: 0x0088 [0x23] WAIT_FOR_DIALOG_INTERACTION
 34: 0x0089 [0x01] GOTO 0x00A4
 35: 0x008C [0x02] IF !(ExtData[1]->WorkLocal[1] == 3*) GOTO 0x00A4
 36: 0x0094 [0x03] Work_Zone[2] = 2*
 37: 0x0099 [0x1D] PRINT_EVENT_MESSAGE(message_id=11263*)
    → "Whahahahah! He's a plump one, eh? Had 'is fill bitin' the ankles of all the pretty nobles now, did he?"
 38: 0x009C [0x23] WAIT_FOR_DIALOG_INTERACTION
 39: 0x009D [0x48] [System] [11264*]:
    → "The chigoe jumps into Choh Moui's satchel."
 40: 0x00A0 [0x23] WAIT_FOR_DIALOG_INTERACTION
 41: 0x00A1 [0x01] GOTO 0x00A4

SUBROUTINE_00A4:
 42: 0x00A4 [0x01] GOTO 0x00AB
 43: 0x00A7 [0x1D] PRINT_EVENT_MESSAGE(message_id=11262*)
    → "Wheheheh... This musty place's filled with tasty eats for my babies."
 44: 0x00AA [0x23] WAIT_FOR_DIALOG_INTERACTION

SUBROUTINE_00AB:
 45: 0x00AB [0x01] GOTO 0x0137
 46: 0x00AE [0x02] IF !(ExtData[1]->WorkLocal[3] == 2*) GOTO 0x0128
 47: 0x00B6 [0x02] IF !(ExtData[1]->WorkLocal[1] == 0*) GOTO 0x00C5
 48: 0x00BE [0x1D] PRINT_EVENT_MESSAGE(message_id=11262*)
    → "Wheheheh... This musty place's filled with tasty eats for my babies."
 49: 0x00C1 [0x23] WAIT_FOR_DIALOG_INTERACTION
 50: 0x00C2 [0x01] GOTO 0x0125
 51: 0x00C5 [0x02] IF !(ExtData[1]->WorkLocal[1] == 1*) GOTO 0x00E5
 52: 0x00CD [0x03] Work_Zone[2] = 0*
 53: 0x00D2 [0x1D] PRINT_EVENT_MESSAGE(message_id=11265*)
    → "Oooh! With these I can make me and my babies some tasty fixins, ya!"
 54: 0x00D5 [0x23] WAIT_FOR_DIALOG_INTERACTION
 55: 0x00D6 [0x02] IF !(ExtData[1]->WorkLocal[2] == 1*) GOTO 0x00E2
 56: 0x00DE [0x1D] PRINT_EVENT_MESSAGE(message_id=11263*)
    → "Whahahahah! He's a plump one, eh? Had 'is fill bitin' the ankles of all the pretty nobles now, did he?"
 57: 0x00E1 [0x23] WAIT_FOR_DIALOG_INTERACTION
 58: 0x00E2 [0x01] GOTO 0x0125
 59: 0x00E5 [0x02] IF !(ExtData[1]->WorkLocal[1] == 2*) GOTO 0x0105
 60: 0x00ED [0x03] Work_Zone[2] = 1*
 61: 0x00F2 [0x1D] PRINT_EVENT_MESSAGE(message_id=11265*)
    → "Oooh! With these I can make me and my babies some tasty fixins, ya!"
 62: 0x00F5 [0x23] WAIT_FOR_DIALOG_INTERACTION
 63: 0x00F6 [0x02] IF !(ExtData[1]->WorkLocal[2] == 1*) GOTO 0x0102
 64: 0x00FE [0x1D] PRINT_EVENT_MESSAGE(message_id=11263*)
    → "Whahahahah! He's a plump one, eh? Had 'is fill bitin' the ankles of all the pretty nobles now, did he?"
 65: 0x0101 [0x23] WAIT_FOR_DIALOG_INTERACTION
 66: 0x0102 [0x01] GOTO 0x0125
 67: 0x0105 [0x02] IF !(ExtData[1]->WorkLocal[1] == 3*) GOTO 0x0125
 68: 0x010D [0x03] Work_Zone[2] = 2*
 69: 0x0112 [0x1D] PRINT_EVENT_MESSAGE(message_id=11265*)
    → "Oooh! With these I can make me and my babies some tasty fixins, ya!"
 70: 0x0115 [0x23] WAIT_FOR_DIALOG_INTERACTION
 71: 0x0116 [0x02] IF !(ExtData[1]->WorkLocal[2] == 1*) GOTO 0x0122
 72: 0x011E [0x1D] PRINT_EVENT_MESSAGE(message_id=11263*)
    → "Whahahahah! He's a plump one, eh? Had 'is fill bitin' the ankles of all the pretty nobles now, did he?"
 73: 0x0121 [0x23] WAIT_FOR_DIALOG_INTERACTION
 74: 0x0122 [0x01] GOTO 0x0125

SUBROUTINE_0125:
 75: 0x0125 [0x01] GOTO 0x0137
 76: 0x0128 [0x02] IF !(ExtData[1]->WorkLocal[3] == 3*) GOTO 0x0137
 77: 0x0130 [0x1D] PRINT_EVENT_MESSAGE(message_id=11266*)
    → "Wha-wha? Moui don't know nothing 'bout no pet food. Why this smell like my breakfast?"
 78: 0x0133 [0x23] WAIT_FOR_DIALOG_INTERACTION
 79: 0x0134 [0x01] GOTO 0x0137

SUBROUTINE_0137:
 80: 0x0137 [0x01] GOTO 0x013E
 81: 0x013A [0x1D] PRINT_EVENT_MESSAGE(message_id=11262*)
    → "Wheheheh... This musty place's filled with tasty eats for my babies."
 82: 0x013D [0x23] WAIT_FOR_DIALOG_INTERACTION

SUBROUTINE_013E:
 83: 0x013E [0x1D] PRINT_EVENT_MESSAGE(message_id=11261*)
    → "Wheheheheheheh..."
 84: 0x0141 [0x23] WAIT_FOR_DIALOG_INTERACTION
 85: 0x0142 [0x20] SET_CLI_EVENT_UC_FLAG: Unlock player control
 86: 0x0144 [0x21] END_EVENT
 87: 0x0145 [0x00] END_REQSTACK()
```
