# 17105469

## Common Data

| Field            | Value                            |
|------------------|----------------------------------|
| Zone             | Southern San d'Oria [S] (ID: 80) |
| Block Size       | 244 bytes                        |
| Total Events     | 6                                |
| References Count | 22                               |

## List of Events

| Event ID                 | Entrypoint   |   Size |   Instructions |
|--------------------------|--------------|--------|----------------|
| [65535](#event-65535)    | 0x0000       |      1 |              1 |
| [21](#event-21)          | 0x0001       |      1 |              1 |
| [65535.1](#event-655351) | 0x0002       |     26 |              8 |
| [65535.2](#event-655352) | 0x001C       |     15 |              5 |
| [65535.3](#event-655353) | 0x002B       |     28 |              6 |
| [65535.4](#event-655354) | 0x0047       |     45 |             12 |

## DAT References (imed_data)

|   Index | Hex Value   |   Dec Value |
|---------|-------------|-------------|
|       0 | 0x000D      |          13 |
|       1 | 0xFFFE8D82  |  4294872450 |
|       2 | 0x125D3     |       75219 |
|       3 | 0xFFFFE891  |  4294961297 |
|       4 | 0xFFFE8C07  |  4294872071 |
|       5 | 0x121D3     |       74195 |
|       6 | 0xFFFE8A67  |  4294871655 |
|       7 | 0xF7FD      |       63485 |
|       8 | 0xFFFEA154  |  4294877524 |
|       9 | 0xD227      |       53799 |
|      10 | 0xFFFFEBB7  |  4294962103 |
|      11 | 0x0FED      |        4077 |
|      12 | 0xFFFEA254  |  4294877780 |
|      13 | 0xA2AC      |       41644 |
|      14 | 0xFFFFF060  |  4294963296 |
|      15 | 0x003C      |          60 |
|      16 | 0xFFFE6C18  |  4294863896 |
|      17 | 0x8299      |       33433 |
|      18 | 0xFFFFF830  |  4294965296 |
|      19 | 0xFFFE814B  |  4294869323 |
|      20 | 0x4F9D      |       20381 |
|      21 | 0xFFFFF769  |  4294965097 |

## Events

### Event 65535

#### Metadata

| Field        | Value   |
|--------------|---------|
| Entrypoint   | 0x0000  |
| Data Size    | 1 bytes |
| Instructions | 1       |

```
      00 01 02 03 04 05 06 07  08 09 0A 0B 0C 0D 0E 0F
      -- -- -- -- -- -- -- --  -- -- -- -- -- -- -- --
0000: 00                                                .               
```

#### Opcodes

```
  0: 0x0000 [0x00] END_REQSTACK()
```

### Event 21

#### Metadata

| Field        | Value   |
|--------------|---------|
| Entrypoint   | 0x0001  |
| Data Size    | 1 bytes |
| Instructions | 1       |

```
      00 01 02 03 04 05 06 07  08 09 0A 0B 0C 0D 0E 0F
      -- -- -- -- -- -- -- --  -- -- -- -- -- -- -- --
0000:    00                                              .              
```

#### Opcodes

```
  0: 0x0001 [0x00] END_REQSTACK()
```

### Event 65535.1

#### Metadata

| Field        | Value    |
|--------------|----------|
| Entrypoint   | 0x0002   |
| Data Size    | 26 bytes |
| Instructions | 8        |

```
      00 01 02 03 04 05 06 07  08 09 0A 0B 0C 0D 0E 0F
      -- -- -- -- -- -- -- --  -- -- -- -- -- -- -- --
0000:       32 00 80 1F 00 01  80 02 80 03 80 1F 01 6F    2............o
0010: 1F 00 04 80 05 80 03 80  1F 01 6F 00              ..........o.    
```

#### Opcodes

```
  0: 0x0002 [0x32] ExtData[1]->MainSpeed = 13* * 0.1
  1: 0x0005 [0x1F] MOVE_ENTITY: EventEntity moves to X=-94.846*, Z=75.219*, Y=-5.999*
  2: 0x000D [0x1F] MOVE_ENTITY: Update entity position (mode=1)
  3: 0x000F [0x6F] WAIT_FRAME_DELAY: Yield until WaitTime reaches zero
  4: 0x0010 [0x1F] MOVE_ENTITY: EventEntity moves to X=-95.225*, Z=74.195*, Y=-5.999*
  5: 0x0018 [0x1F] MOVE_ENTITY: Update entity position (mode=1)
  6: 0x001A [0x6F] WAIT_FRAME_DELAY: Yield until WaitTime reaches zero
  7: 0x001B [0x00] END_REQSTACK()
```

### Event 65535.2

#### Metadata

| Field        | Value    |
|--------------|----------|
| Entrypoint   | 0x001C   |
| Data Size    | 15 bytes |
| Instructions | 5        |

```
      00 01 02 03 04 05 06 07  08 09 0A 0B 0C 0D 0E 0F
      -- -- -- -- -- -- -- --  -- -- -- -- -- -- -- --
0010:                                      32 00 80 1F              2...
0020: 00 06 80 07 80 03 80 1F  01 6F 00                 .........o.     
```

#### Opcodes

```
  0: 0x001C [0x32] ExtData[1]->MainSpeed = 13* * 0.1
  1: 0x001F [0x1F] MOVE_ENTITY: EventEntity moves to X=-95.641*, Z=63.485*, Y=-5.999*
  2: 0x0027 [0x1F] MOVE_ENTITY: Update entity position (mode=1)
  3: 0x0029 [0x6F] WAIT_FRAME_DELAY: Yield until WaitTime reaches zero
  4: 0x002A [0x00] END_REQSTACK()
```

### Event 65535.3

#### Metadata

| Field        | Value    |
|--------------|----------|
| Entrypoint   | 0x002B   |
| Data Size    | 28 bytes |
| Instructions | 6        |

```
      00 01 02 03 04 05 06 07  08 09 0A 0B 0C 0D 0E 0F
      -- -- -- -- -- -- -- --  -- -- -- -- -- -- -- --
0020:                                   BA 3D 02 05 01             .=...
0030: 08 80 09 80 0A 80 0B 80  32 00 80 1F 00 0C 80 0D  ........2.......
0040: 80 0E 80 1F 01 6F 00                              .....o.         
```

#### Opcodes

```
  0: 0x002B [0xBA] SET_ENTITY_POSITION(entity_id=Unnamed NPC (ID: 17105469/0x0105023D), pos_x=-89.772*, pos_z=53.799*, pos_y=-5.193*, direction=358.3°*)
  1: 0x0038 [0x32] ExtData[1]->MainSpeed = 13* * 0.1
  2: 0x003B [0x1F] MOVE_ENTITY: EventEntity moves to X=-89.516*, Z=41.644*, Y=-4.000*
  3: 0x0043 [0x1F] MOVE_ENTITY: Update entity position (mode=1)
  4: 0x0045 [0x6F] WAIT_FRAME_DELAY: Yield until WaitTime reaches zero
  5: 0x0046 [0x00] END_REQSTACK()
```

### Event 65535.4

#### Metadata

| Field        | Value    |
|--------------|----------|
| Entrypoint   | 0x0047   |
| Data Size    | 45 bytes |
| Instructions | 12       |

```
      00 01 02 03 04 05 06 07  08 09 0A 0B 0C 0D 0E 0F
      -- -- -- -- -- -- -- --  -- -- -- -- -- -- -- --
0040:                      1C  0F 80 29 0F B4 01 05 01         ...).....
0050: 03 32 00 80 1F 00 10 80  11 80 12 80 1F 01 6F 1F  .2............o.
0060: 00 13 80 14 80 15 80 1F  01 6F 29 0F B4 01 05 01  .........o).....
0070: 04 22 01 00                                       ."..            
```

#### Opcodes

```
  0: 0x0047 [0x1C] WAIT(60* ticks)
  1: 0x004A [0x29] REQ_SET_WAIT(priority=0x0F, entity_id=Portcullis (ID: 17105332/0x010501B4), tag_num=0x03)
  2: 0x0051 [0x32] ExtData[1]->MainSpeed = 13* * 0.1
  3: 0x0054 [0x1F] MOVE_ENTITY: EventEntity moves to X=-103.400*, Z=33.433*, Y=-2.000*
  4: 0x005C [0x1F] MOVE_ENTITY: Update entity position (mode=1)
  5: 0x005E [0x6F] WAIT_FRAME_DELAY: Yield until WaitTime reaches zero
  6: 0x005F [0x1F] MOVE_ENTITY: EventEntity moves to X=-97.973*, Z=20.381*, Y=-2.199*
  7: 0x0067 [0x1F] MOVE_ENTITY: Update entity position (mode=1)
  8: 0x0069 [0x6F] WAIT_FRAME_DELAY: Yield until WaitTime reaches zero
  9: 0x006A [0x29] REQ_SET_WAIT(priority=0x0F, entity_id=Portcullis (ID: 17105332/0x010501B4), tag_num=0x04)
 10: 0x0071 [0x22] ENTITY_HIDE_FLAG(enabled=0x01)
 11: 0x0073 [0x00] END_REQSTACK()
```
