# 17105547 - Mayakov

## Common Data

| Field            | Value                            |
|------------------|----------------------------------|
| Zone             | Southern San d'Oria [S] (ID: 80) |
| Block Size       | 1636 bytes                       |
| Total Events     | 48                               |
| References Count | 66                               |

## List of Events

| Event ID                   | Entrypoint   |   Size |   Instructions |
|----------------------------|--------------|--------|----------------|
| [65535](#event-65535)      | 0x0000       |      1 |              1 |
| [65535.1](#event-655351)   | 0x0001       |      1 |              1 |
| [65535.2](#event-655352)   | 0x0002       |     18 |              4 |
| [65535.3](#event-655353)   | 0x0014       |     10 |              2 |
| [65535.4](#event-655354)   | 0x001E       |      9 |              3 |
| [65535.5](#event-655355)   | 0x0027       |      9 |              3 |
| [65535.6](#event-655356)   | 0x0030       |     10 |              2 |
| [65535.7](#event-655357)   | 0x003A       |     10 |              2 |
| [68](#event-68)            | 0x0044       |      1 |              1 |
| [70](#event-70)            | 0x0045       |      1 |              1 |
| [153](#event-153)          | 0x0046       |      1 |              1 |
| [85](#event-85)            | 0x0047       |      1 |              1 |
| [65535.8](#event-655358)   | 0x0048       |     35 |              9 |
| [65535.9](#event-655359)   | 0x006B       |     35 |              9 |
| [65535.10](#event-6553510) | 0x008E       |      3 |              2 |
| [65535.11](#event-6553511) | 0x0091       |     27 |              5 |
| [65535.12](#event-6553512) | 0x00AC       |     31 |              5 |
| [146](#event-146)          | 0x00CB       |      1 |              1 |
| [151](#event-151)          | 0x00CC       |      1 |              1 |
| [154](#event-154)          | 0x00CD       |      1 |              1 |
| [155](#event-155)          | 0x00CE       |      1 |              1 |
| [65535.13](#event-6553513) | 0x00CF       |     47 |              8 |
| [65535.14](#event-6553514) | 0x00FE       |     59 |             12 |
| [65535.15](#event-6553515) | 0x0139       |     68 |             13 |
| [65535.16](#event-6553516) | 0x017D       |     48 |              9 |
| [65535.17](#event-6553517) | 0x01AD       |     57 |              5 |
| [65535.18](#event-6553518) | 0x01E6       |     49 |              7 |
| [65535.19](#event-6553519) | 0x0217       |     45 |              9 |
| [65535.20](#event-6553520) | 0x0244       |     50 |              9 |
| [65535.21](#event-6553521) | 0x0276       |     65 |             12 |
| [65535.22](#event-6553522) | 0x02B7       |     39 |              6 |
| [65535.23](#event-6553523) | 0x02DE       |     34 |              5 |
| [65535.24](#event-6553524) | 0x0300       |     40 |              7 |
| [65535.25](#event-6553525) | 0x0328       |     20 |              5 |
| [65535.26](#event-6553526) | 0x033C       |     21 |              2 |
| [65535.27](#event-6553527) | 0x0351       |     45 |              4 |
| [65535.28](#event-6553528) | 0x037E       |     29 |              3 |
| [65535.29](#event-6553529) | 0x039B       |     57 |              5 |
| [65535.30](#event-6553530) | 0x03D4       |     29 |              3 |
| [65535.31](#event-6553531) | 0x03F1       |     34 |              7 |
| [65535.32](#event-6553532) | 0x0413       |     20 |              5 |
| [65535.33](#event-6553533) | 0x0427       |      3 |              2 |
| [65535.34](#event-6553534) | 0x042A       |      3 |              2 |
| [65535.35](#event-6553535) | 0x042D       |     70 |             13 |
| [65535.36](#event-6553536) | 0x0473       |     21 |              2 |
| [166](#event-166)          | 0x0488       |      1 |              1 |
| [176](#event-176)          | 0x0489       |      1 |              1 |
| [175](#event-175)          | 0x048A       |      1 |              1 |

## DAT References (imed_data)

|   Index | Hex Value   |   Dec Value |
|---------|-------------|-------------|
|       0 | 0x0000      |           0 |
|       1 | 0x0001      |           1 |
|       2 | 0x0080      |         128 |
|       3 | 0x0028      |          40 |
|       4 | 0x000D      |          13 |
|       5 | 0x183CD     |       99277 |
|       6 | 0x1992B     |      104747 |
|       7 | 0x03E7      |         999 |
|       8 | 0x087D      |        2173 |
|       9 | 0x000F      |          15 |
|      10 | 0x18711     |      100113 |
|      11 | 0x1C777     |      116599 |
|      12 | 0xFFFFE958  |  4294961496 |
|      13 | 0x001E      |          30 |
|      14 | 0x17B95     |       97173 |
|      15 | 0x1D4B5     |      119989 |
|      16 | 0x1798D     |       96653 |
|      17 | 0x1DA46     |      121414 |
|      18 | 0x179F1     |       96753 |
|      19 | 0x1E017     |      122903 |
|      20 | 0x1910F     |      102671 |
|      21 | 0x1FA8D     |      129677 |
|      22 | 0xFFFFFF9B  |  4294967195 |
|      23 | 0x17480     |       95360 |
|      24 | 0x1A815     |      108565 |
|      25 | 0x176D7     |       95959 |
|      26 | 0x1B09D     |      110749 |
|      27 | 0x1720D     |       94733 |
|      28 | 0x1B229     |      111145 |
|      29 | 0x0A28      |        2600 |
|      30 | 0x15D2A     |       89386 |
|      31 | 0x1CF42     |      118594 |
|      32 | 0x03E8      |        1000 |
|      33 | 0x02CA      |         714 |
|      34 | 0x087E      |        2174 |
|      35 | 0x16151     |       90449 |
|      36 | 0x1D771     |      120689 |
|      37 | 0x1CBB1     |      117681 |
|      38 | 0x16911     |       92433 |
|      39 | 0x07D0      |        2000 |
|      40 | 0x1CA05     |      117253 |
|      41 | 0x16BE2     |       93154 |
|      42 | 0x0D54      |        3412 |
|      43 | 0x1C867     |      116839 |
|      44 | 0x16E8D     |       93837 |
|      45 | 0x0E74      |        3700 |
|      46 | 0x0017      |          23 |
|      47 | 0x1A0CA     |      106698 |
|      48 | 0x17FEE     |       98286 |
|      49 | 0x0003      |           3 |
|      50 | 0x0006      |           6 |
|      51 | 0x000C      |          12 |
|      52 | 0x00D2      |         210 |
|      53 | 0x0002      |           2 |
|      54 | 0x09BF      |        2495 |
|      55 | 0x09BE      |        2494 |
|      56 | 0x15F4D     |       89933 |
|      57 | 0x1DE7F     |      122495 |
|      58 | 0x1737A     |       95098 |
|      59 | 0x1A71A     |      108314 |
|      60 | 0x163CA     |       91082 |
|      61 | 0x1DEDC     |      122588 |
|      62 | 0x15E4F     |       89679 |
|      63 | 0x1D524     |      120100 |
|      64 | 0x15994     |       88468 |
|      65 | 0x1CA57     |      117335 |

## Events

### Event 65535

#### Metadata

| Field        | Value   |
|--------------|---------|
| Entrypoint   | 0x0000  |
| Data Size    | 1 bytes |
| Instructions | 1       |

```
      00 01 02 03 04 05 06 07  08 09 0A 0B 0C 0D 0E 0F
      -- -- -- -- -- -- -- --  -- -- -- -- -- -- -- --
0000: 00                                                .               
```

#### Opcodes

```
  0: 0x0000 [0x00] END_REQSTACK()
```

### Event 65535.1

#### Metadata

| Field        | Value   |
|--------------|---------|
| Entrypoint   | 0x0001  |
| Data Size    | 1 bytes |
| Instructions | 1       |

```
      00 01 02 03 04 05 06 07  08 09 0A 0B 0C 0D 0E 0F
      -- -- -- -- -- -- -- --  -- -- -- -- -- -- -- --
0000:    00                                              .              
```

#### Opcodes

```
  0: 0x0001 [0x00] END_REQSTACK()
```

### Event 65535.2

#### Metadata

| Field        | Value    |
|--------------|----------|
| Entrypoint   | 0x0002   |
| Data Size    | 18 bytes |
| Instructions | 4        |

```
      00 01 02 03 04 05 06 07  08 09 0A 0B 0C 0D 0E 0F
      -- -- -- -- -- -- -- --  -- -- -- -- -- -- -- --
0000:       22 00 2F 00 F8 FF  FF 7F 6C F8 FF FF 7F 00    "./.....l.....
0010: 80 01 80 00                                       ....            
```

#### Opcodes

```
  0: 0x0002 [0x22] ENTITY_HIDE_FLAG(enabled=0x00)
  1: 0x0004 [0x2F] EventEntity->Render.Flags0 &= ~0x80000 // Bit 19
  2: 0x000A [0x6C] FADE_ENTITY_COLOR(entity_id=EventEntity, end_alpha=0*, fade_time=1*)
  3: 0x0013 [0x00] END_REQSTACK()
```

### Event 65535.3

#### Metadata

| Field        | Value    |
|--------------|----------|
| Entrypoint   | 0x0014   |
| Data Size    | 10 bytes |
| Instructions | 2        |

```
      00 01 02 03 04 05 06 07  08 09 0A 0B 0C 0D 0E 0F
      -- -- -- -- -- -- -- --  -- -- -- -- -- -- -- --
0010:             6C F8 FF FF  7F 02 80 01 80 00            l.........  
```

#### Opcodes

```
  0: 0x0014 [0x6C] FADE_ENTITY_COLOR(entity_id=EventEntity, end_alpha=128*, fade_time=1*)
  1: 0x001D [0x00] END_REQSTACK()
```

### Event 65535.4

#### Metadata

| Field        | Value   |
|--------------|---------|
| Entrypoint   | 0x001E  |
| Data Size    | 9 bytes |
| Instructions | 3       |

```
      00 01 02 03 04 05 06 07  08 09 0A 0B 0C 0D 0E 0F
      -- -- -- -- -- -- -- --  -- -- -- -- -- -- -- --
0010:                                            22 00                ".
0020: 2F 00 F8 FF FF 7F 00                              /......         
```

#### Opcodes

```
  0: 0x001E [0x22] ENTITY_HIDE_FLAG(enabled=0x00)
  1: 0x0020 [0x2F] EventEntity->Render.Flags0 &= ~0x80000 // Bit 19
  2: 0x0026 [0x00] END_REQSTACK()
```

### Event 65535.5

#### Metadata

| Field        | Value   |
|--------------|---------|
| Entrypoint   | 0x0027  |
| Data Size    | 9 bytes |
| Instructions | 3       |

```
      00 01 02 03 04 05 06 07  08 09 0A 0B 0C 0D 0E 0F
      -- -- -- -- -- -- -- --  -- -- -- -- -- -- -- --
0020:                      22  01 2F 01 F8 FF FF 7F 00         "./......
```

#### Opcodes

```
  0: 0x0027 [0x22] ENTITY_HIDE_FLAG(enabled=0x01)
  1: 0x0029 [0x2F] EventEntity->Render.Flags0 |= 0x80000 // Bit 19
  2: 0x002F [0x00] END_REQSTACK()
```

### Event 65535.6

#### Metadata

| Field        | Value    |
|--------------|----------|
| Entrypoint   | 0x0030   |
| Data Size    | 10 bytes |
| Instructions | 2        |

```
      00 01 02 03 04 05 06 07  08 09 0A 0B 0C 0D 0E 0F
      -- -- -- -- -- -- -- --  -- -- -- -- -- -- -- --
0030: 6C F8 FF FF 7F 00 80 01  80 00                    l.........      
```

#### Opcodes

```
  0: 0x0030 [0x6C] FADE_ENTITY_COLOR(entity_id=EventEntity, end_alpha=0*, fade_time=1*)
  1: 0x0039 [0x00] END_REQSTACK()
```

### Event 65535.7

#### Metadata

| Field        | Value    |
|--------------|----------|
| Entrypoint   | 0x003A   |
| Data Size    | 10 bytes |
| Instructions | 2        |

```
      00 01 02 03 04 05 06 07  08 09 0A 0B 0C 0D 0E 0F
      -- -- -- -- -- -- -- --  -- -- -- -- -- -- -- --
0030:                                6C F8 FF FF 7F 02            l.....
0040: 80 01 80 00                                       ....            
```

#### Opcodes

```
  0: 0x003A [0x6C] FADE_ENTITY_COLOR(entity_id=EventEntity, end_alpha=128*, fade_time=1*)
  1: 0x0043 [0x00] END_REQSTACK()
```

### Event 68

#### Metadata

| Field        | Value   |
|--------------|---------|
| Entrypoint   | 0x0044  |
| Data Size    | 1 bytes |
| Instructions | 1       |

```
      00 01 02 03 04 05 06 07  08 09 0A 0B 0C 0D 0E 0F
      -- -- -- -- -- -- -- --  -- -- -- -- -- -- -- --
0040:             00                                        .           
```

#### Opcodes

```
  0: 0x0044 [0x00] END_REQSTACK()
```

### Event 70

#### Metadata

| Field        | Value   |
|--------------|---------|
| Entrypoint   | 0x0045  |
| Data Size    | 1 bytes |
| Instructions | 1       |

```
      00 01 02 03 04 05 06 07  08 09 0A 0B 0C 0D 0E 0F
      -- -- -- -- -- -- -- --  -- -- -- -- -- -- -- --
0040:                00                                      .          
```

#### Opcodes

```
  0: 0x0045 [0x00] END_REQSTACK()
```

### Event 153

#### Metadata

| Field        | Value   |
|--------------|---------|
| Entrypoint   | 0x0046  |
| Data Size    | 1 bytes |
| Instructions | 1       |

```
      00 01 02 03 04 05 06 07  08 09 0A 0B 0C 0D 0E 0F
      -- -- -- -- -- -- -- --  -- -- -- -- -- -- -- --
0040:                   00                                    .         
```

#### Opcodes

```
  0: 0x0046 [0x00] END_REQSTACK()
```

### Event 85

#### Metadata

| Field        | Value   |
|--------------|---------|
| Entrypoint   | 0x0047  |
| Data Size    | 1 bytes |
| Instructions | 1       |

```
      00 01 02 03 04 05 06 07  08 09 0A 0B 0C 0D 0E 0F
      -- -- -- -- -- -- -- --  -- -- -- -- -- -- -- --
0040:                      00                                  .        
```

#### Opcodes

```
  0: 0x0047 [0x00] END_REQSTACK()
```

### Event 65535.8

#### Metadata

| Field        | Value    |
|--------------|----------|
| Entrypoint   | 0x0048   |
| Data Size    | 35 bytes |
| Instructions | 9        |

```
      00 01 02 03 04 05 06 07  08 09 0A 0B 0C 0D 0E 0F
      -- -- -- -- -- -- -- --  -- -- -- -- -- -- -- --
0040:                          03 00 00 25 10 03 02 00          ...%....
0050: 27 10 03 01 00 26 10 03  03 00 28 10 32 03 80 1F  '....&....(.2...
0060: 00 00 00 02 00 01 00 1F  01 6F 00                 .........o.     
```

#### Opcodes

```
  0: 0x0048 [0x03] ExtData[1]->WorkLocal[0] = Work_Zone[37]
  1: 0x004D [0x03] ExtData[1]->WorkLocal[2] = Work_Zone[39]
  2: 0x0052 [0x03] ExtData[1]->WorkLocal[1] = Work_Zone[38]
  3: 0x0057 [0x03] ExtData[1]->WorkLocal[3] = Work_Zone[40]
  4: 0x005C [0x32] ExtData[1]->MainSpeed = 40* * 0.1
  5: 0x005F [0x1F] MOVE_ENTITY: EventEntity moves to X=ExtData[1]->WorkLocal[0], Z=ExtData[1]->WorkLocal[2], Y=ExtData[1]->WorkLocal[1]
  6: 0x0067 [0x1F] MOVE_ENTITY: Update entity position (mode=1)
  7: 0x0069 [0x6F] WAIT_FRAME_DELAY: Yield until WaitTime reaches zero
  8: 0x006A [0x00] END_REQSTACK()
```

### Event 65535.9

#### Metadata

| Field        | Value    |
|--------------|----------|
| Entrypoint   | 0x006B   |
| Data Size    | 35 bytes |
| Instructions | 9        |

```
      00 01 02 03 04 05 06 07  08 09 0A 0B 0C 0D 0E 0F
      -- -- -- -- -- -- -- --  -- -- -- -- -- -- -- --
0060:                                   03 00 00 25 10             ...%.
0070: 03 02 00 27 10 03 01 00  26 10 03 03 00 28 10 32  ...'....&....(.2
0080: 04 80 1F 00 00 00 02 00  01 00 1F 01 6F 00        ............o.  
```

#### Opcodes

```
  0: 0x006B [0x03] ExtData[1]->WorkLocal[0] = Work_Zone[37]
  1: 0x0070 [0x03] ExtData[1]->WorkLocal[2] = Work_Zone[39]
  2: 0x0075 [0x03] ExtData[1]->WorkLocal[1] = Work_Zone[38]
  3: 0x007A [0x03] ExtData[1]->WorkLocal[3] = Work_Zone[40]
  4: 0x007F [0x32] ExtData[1]->MainSpeed = 13* * 0.1
  5: 0x0082 [0x1F] MOVE_ENTITY: EventEntity moves to X=ExtData[1]->WorkLocal[0], Z=ExtData[1]->WorkLocal[2], Y=ExtData[1]->WorkLocal[1]
  6: 0x008A [0x1F] MOVE_ENTITY: Update entity position (mode=1)
  7: 0x008C [0x6F] WAIT_FRAME_DELAY: Yield until WaitTime reaches zero
  8: 0x008D [0x00] END_REQSTACK()
```

### Event 65535.10

#### Metadata

| Field        | Value   |
|--------------|---------|
| Entrypoint   | 0x008E  |
| Data Size    | 3 bytes |
| Instructions | 2       |

```
      00 01 02 03 04 05 06 07  08 09 0A 0B 0C 0D 0E 0F
      -- -- -- -- -- -- -- --  -- -- -- -- -- -- -- --
0080:                                            33 00                3.
0090: 00                                                .               
```

#### Opcodes

```
  0: 0x008E [0x33] EventEntity->Render.Flags0 &= ~ 0x200000 // Bit 21 (flag=0x00)
  1: 0x0090 [0x00] END_REQSTACK()
```

### Event 65535.11

#### Metadata

| Field        | Value    |
|--------------|----------|
| Entrypoint   | 0x0091   |
| Data Size    | 27 bytes |
| Instructions | 5        |

```
      00 01 02 03 04 05 06 07  08 09 0A 0B 0C 0D 0E 0F
      -- -- -- -- -- -- -- --  -- -- -- -- -- -- -- --
0090:    1F 00 05 80 06 80 07  80 1F 01 6F 5B 08 80 8B   ..........o[...
00A0: 02 05 01 8B 02 05 01 6D  73 64 30 00              .......msd0.    
```

#### Opcodes

```
  0: 0x0091 [0x1F] MOVE_ENTITY: EventEntity moves to X=99.277*, Z=104.747*, Y=0.999*
  1: 0x0099 [0x1F] MOVE_ENTITY: Update entity position (mode=1)
  2: 0x009B [0x6F] WAIT_FRAME_DELAY: Yield until WaitTime reaches zero
  3: 0x009C [0x5B] LOAD_EXT_SCHEDULER: Load scheduler "msd0" with entities [Mayakov (ID: 17105547/0x0105028B), Mayakov (ID: 17105547/0x0105028B)], work=2173*
  4: 0x00AB [0x00] END_REQSTACK()
```

### Event 65535.12

#### Metadata

| Field        | Value    |
|--------------|----------|
| Entrypoint   | 0x00AC   |
| Data Size    | 31 bytes |
| Instructions | 5        |

```
      00 01 02 03 04 05 06 07  08 09 0A 0B 0C 0D 0E 0F
      -- -- -- -- -- -- -- --  -- -- -- -- -- -- -- --
00A0:                                      4A 8B 02 05              J...
00B0: 01 F0 FF FF 7F 6F 76 8B  02 05 01 5B 08 80 8B 02  .....ov....[....
00C0: 05 01 8B 02 05 01 6D 73  64 30 00                 ......msd0.     
```

#### Opcodes

```
  0: 0x00AC [0x4A] Mayakov (ID: 17105547/0x0105028B) looks at LocalPlayer
  1: 0x00B5 [0x6F] WAIT_FRAME_DELAY: Yield until WaitTime reaches zero
  2: 0x00B6 [0x76] CHECK_ENTITY_RENDER_FLAGS: Wait until Mayakov (ID: 17105547/0x0105028B) Render.Flags0 and Render.Flags3 conditions are met
  3: 0x00BB [0x5B] LOAD_EXT_SCHEDULER: Load scheduler "msd0" with entities [Mayakov (ID: 17105547/0x0105028B), Mayakov (ID: 17105547/0x0105028B)], work=2173*
  4: 0x00CA [0x00] END_REQSTACK()
```

### Event 146

#### Metadata

| Field        | Value   |
|--------------|---------|
| Entrypoint   | 0x00CB  |
| Data Size    | 1 bytes |
| Instructions | 1       |

```
      00 01 02 03 04 05 06 07  08 09 0A 0B 0C 0D 0E 0F
      -- -- -- -- -- -- -- --  -- -- -- -- -- -- -- --
00C0:                                   00                         .    
```

#### Opcodes

```
  0: 0x00CB [0x00] END_REQSTACK()
```

### Event 151

#### Metadata

| Field        | Value   |
|--------------|---------|
| Entrypoint   | 0x00CC  |
| Data Size    | 1 bytes |
| Instructions | 1       |

```
      00 01 02 03 04 05 06 07  08 09 0A 0B 0C 0D 0E 0F
      -- -- -- -- -- -- -- --  -- -- -- -- -- -- -- --
00C0:                                      00                       .   
```

#### Opcodes

```
  0: 0x00CC [0x00] END_REQSTACK()
```

### Event 154

#### Metadata

| Field        | Value   |
|--------------|---------|
| Entrypoint   | 0x00CD  |
| Data Size    | 1 bytes |
| Instructions | 1       |

```
      00 01 02 03 04 05 06 07  08 09 0A 0B 0C 0D 0E 0F
      -- -- -- -- -- -- -- --  -- -- -- -- -- -- -- --
00C0:                                         00                     .  
```

#### Opcodes

```
  0: 0x00CD [0x00] END_REQSTACK()
```

### Event 155

#### Metadata

| Field        | Value   |
|--------------|---------|
| Entrypoint   | 0x00CE  |
| Data Size    | 1 bytes |
| Instructions | 1       |

```
      00 01 02 03 04 05 06 07  08 09 0A 0B 0C 0D 0E 0F
      -- -- -- -- -- -- -- --  -- -- -- -- -- -- -- --
00C0:                                            00                   . 
```

#### Opcodes

```
  0: 0x00CE [0x00] END_REQSTACK()
```

### Event 65535.13

#### Metadata

| Field        | Value    |
|--------------|----------|
| Entrypoint   | 0x00CF   |
| Data Size    | 47 bytes |
| Instructions | 8        |

```
      00 01 02 03 04 05 06 07  08 09 0A 0B 0C 0D 0E 0F
      -- -- -- -- -- -- -- --  -- -- -- -- -- -- -- --
00C0:                                               59                 Y
00D0: 04 F8 FF FF 7F 09 80 1F  00 0A 80 0B 80 0C 80 1F  ................
00E0: 01 6F 4A F8 FF FF 7F 83  02 05 01 1C 0D 80 5B 08  .oJ...........[.
00F0: 80 F8 FF FF 7F F8 FF FF  7F 6D 73 64 30 00        .........msd0.  
```

#### Opcodes

```
  0: 0x00CF [0x59] UPDATE_ENTITY_DATA: Set EventEntity main speed = 15* * 0.1
  1: 0x00D7 [0x1F] MOVE_ENTITY: EventEntity moves to X=100.113*, Z=116.599*, Y=-5.800*
  2: 0x00DF [0x1F] MOVE_ENTITY: Update entity position (mode=1)
  3: 0x00E1 [0x6F] WAIT_FRAME_DELAY: Yield until WaitTime reaches zero
  4: 0x00E2 [0x4A] EventEntity looks at Lilisette (ID: 17105539/0x01050283)
  5: 0x00EB [0x1C] WAIT(30* ticks)
  6: 0x00EE [0x5B] LOAD_EXT_SCHEDULER: Load scheduler "msd0" with entities [EventEntity, EventEntity], work=2173*
  7: 0x00FD [0x00] END_REQSTACK()
```

### Event 65535.14

#### Metadata

| Field        | Value    |
|--------------|----------|
| Entrypoint   | 0x00FE   |
| Data Size    | 59 bytes |
| Instructions | 12       |

```
      00 01 02 03 04 05 06 07  08 09 0A 0B 0C 0D 0E 0F
      -- -- -- -- -- -- -- --  -- -- -- -- -- -- -- --
00F0:                                            6B 69                ki
0100: 64 6C 30 F8 FF FF 7F 59  04 F8 FF FF 7F 09 80 1F  dl0....Y........
0110: 00 0E 80 0F 80 0C 80 1F  01 1F 00 10 80 11 80 0C  ................
0120: 80 1F 01 1F 00 12 80 13  80 0C 80 1F 01 1F 00 14  ................
0130: 80 15 80 16 80 1F 01 6F  00                       .......o.       
```

#### Opcodes

```
  0: 0x00FE [0x6B] STOP_AND_IDLE: EventEntity stops current action and resets to idle (animation="idl0")
  1: 0x0107 [0x59] UPDATE_ENTITY_DATA: Set EventEntity main speed = 15* * 0.1
  2: 0x010F [0x1F] MOVE_ENTITY: EventEntity moves to X=97.173*, Z=119.989*, Y=-5.800*
  3: 0x0117 [0x1F] MOVE_ENTITY: Update entity position (mode=1)
  4: 0x0119 [0x1F] MOVE_ENTITY: EventEntity moves to X=96.653*, Z=121.414*, Y=-5.800*
  5: 0x0121 [0x1F] MOVE_ENTITY: Update entity position (mode=1)
  6: 0x0123 [0x1F] MOVE_ENTITY: EventEntity moves to X=96.753*, Z=122.903*, Y=-5.800*
  7: 0x012B [0x1F] MOVE_ENTITY: Update entity position (mode=1)
  8: 0x012D [0x1F] MOVE_ENTITY: EventEntity moves to X=102.671*, Z=129.677*, Y=-0.101*
  9: 0x0135 [0x1F] MOVE_ENTITY: Update entity position (mode=1)
 10: 0x0137 [0x6F] WAIT_FRAME_DELAY: Yield until WaitTime reaches zero
 11: 0x0138 [0x00] END_REQSTACK()
```

### Event 65535.15

#### Metadata

| Field        | Value    |
|--------------|----------|
| Entrypoint   | 0x0139   |
| Data Size    | 68 bytes |
| Instructions | 13       |

```
      00 01 02 03 04 05 06 07  08 09 0A 0B 0C 0D 0E 0F
      -- -- -- -- -- -- -- --  -- -- -- -- -- -- -- --
0130:                             59 04 F8 FF FF 7F 04           Y......
0140: 80 1F 00 17 80 18 80 00  80 1F 01 1F 00 19 80 1A  ................
0150: 80 00 80 1F 01 1F 00 1B  80 1C 80 00 80 1F 01 6F  ...............o
0160: 4B F8 FF FF 7F 1D 80 6F  76 F8 FF FF 7F 5B 08 80  K......ov....[..
0170: 8B 02 05 01 8B 02 05 01  6D 73 64 30 00           ........msd0.   
```

#### Opcodes

```
  0: 0x0139 [0x59] UPDATE_ENTITY_DATA: Set EventEntity main speed = 13* * 0.1
  1: 0x0141 [0x1F] MOVE_ENTITY: EventEntity moves to X=95.360*, Z=108.565*, Y=0.000*
  2: 0x0149 [0x1F] MOVE_ENTITY: Update entity position (mode=1)
  3: 0x014B [0x1F] MOVE_ENTITY: EventEntity moves to X=95.959*, Z=110.749*, Y=0.000*
  4: 0x0153 [0x1F] MOVE_ENTITY: Update entity position (mode=1)
  5: 0x0155 [0x1F] MOVE_ENTITY: EventEntity moves to X=94.733*, Z=111.145*, Y=0.000*
  6: 0x015D [0x1F] MOVE_ENTITY: Update entity position (mode=1)
  7: 0x015F [0x6F] WAIT_FRAME_DELAY: Yield until WaitTime reaches zero
  8: 0x0160 [0x4B] UPDATE_ENTITY_YAW(entity=EventEntity, yaw=14.3°*)
  9: 0x0167 [0x6F] WAIT_FRAME_DELAY: Yield until WaitTime reaches zero
 10: 0x0168 [0x76] CHECK_ENTITY_RENDER_FLAGS: Wait until EventEntity Render.Flags0 and Render.Flags3 conditions are met
 11: 0x016D [0x5B] LOAD_EXT_SCHEDULER: Load scheduler "msd0" with entities [Mayakov (ID: 17105547/0x0105028B), Mayakov (ID: 17105547/0x0105028B)], work=2173*
 12: 0x017C [0x00] END_REQSTACK()
```

### Event 65535.16

#### Metadata

| Field        | Value    |
|--------------|----------|
| Entrypoint   | 0x017D   |
| Data Size    | 48 bytes |
| Instructions | 9        |

```
      00 01 02 03 04 05 06 07  08 09 0A 0B 0C 0D 0E 0F
      -- -- -- -- -- -- -- --  -- -- -- -- -- -- -- --
0170:                                         59 04 F8               Y..
0180: FF FF 7F 04 80 1F 00 1E  80 1F 80 20 80 1F 01 6F  ........... ...o
0190: 4B F8 FF FF 7F 21 80 6F  76 F8 FF FF 7F 5B 08 80  K....!.ov....[..
01A0: 8B 02 05 01 8B 02 05 01  6D 73 64 30 00           ........msd0.   
```

#### Opcodes

```
  0: 0x017D [0x59] UPDATE_ENTITY_DATA: Set EventEntity main speed = 13* * 0.1
  1: 0x0185 [0x1F] MOVE_ENTITY: EventEntity moves to X=89.386*, Z=118.594*, Y=1.000*
  2: 0x018D [0x1F] MOVE_ENTITY: Update entity position (mode=1)
  3: 0x018F [0x6F] WAIT_FRAME_DELAY: Yield until WaitTime reaches zero
  4: 0x0190 [0x4B] UPDATE_ENTITY_YAW(entity=EventEntity, yaw=3.9°*)
  5: 0x0197 [0x6F] WAIT_FRAME_DELAY: Yield until WaitTime reaches zero
  6: 0x0198 [0x76] CHECK_ENTITY_RENDER_FLAGS: Wait until EventEntity Render.Flags0 and Render.Flags3 conditions are met
  7: 0x019D [0x5B] LOAD_EXT_SCHEDULER: Load scheduler "msd0" with entities [Mayakov (ID: 17105547/0x0105028B), Mayakov (ID: 17105547/0x0105028B)], work=2173*
  8: 0x01AC [0x00] END_REQSTACK()
```

### Event 65535.17

#### Metadata

| Field        | Value    |
|--------------|----------|
| Entrypoint   | 0x01AD   |
| Data Size    | 57 bytes |
| Instructions | 5        |

```
      00 01 02 03 04 05 06 07  08 09 0A 0B 0C 0D 0E 0F
      -- -- -- -- -- -- -- --  -- -- -- -- -- -- -- --
01A0:                                         5B 22 80               [".
01B0: F8 FF FF 7F F8 FF FF 7F  6F 68 6F 30 53 F8 FF FF  ........oho0S...
01C0: 7F F8 FF FF 7F 6F 68 6F  30 5B 22 80 F8 FF FF 7F  .....oho0[".....
01D0: F8 FF FF 7F 6F 68 6F 31  53 F8 FF FF 7F F8 FF FF  ....oho1S.......
01E0: 7F 6F 68 6F 31 00                                 .oho1.          
```

#### Opcodes

```
  0: 0x01AD [0x5B] LOAD_EXT_SCHEDULER: Load scheduler "oho0" with entities [EventEntity, EventEntity], work=2174*
  1: 0x01BC [0x53] WAIT_SCHEDULER_TASK: Wait for scheduler "oho0" with entities [EventEntity, EventEntity]
  2: 0x01C9 [0x5B] LOAD_EXT_SCHEDULER: Load scheduler "oho1" with entities [EventEntity, EventEntity], work=2174*
  3: 0x01D8 [0x53] WAIT_SCHEDULER_TASK: Wait for scheduler "oho1" with entities [EventEntity, EventEntity]
  4: 0x01E5 [0x00] END_REQSTACK()
```

### Event 65535.18

#### Metadata

| Field        | Value    |
|--------------|----------|
| Entrypoint   | 0x01E6   |
| Data Size    | 49 bytes |
| Instructions | 7        |

```
      00 01 02 03 04 05 06 07  08 09 0A 0B 0C 0D 0E 0F
      -- -- -- -- -- -- -- --  -- -- -- -- -- -- -- --
01E0:                   4A F8  FF FF 7F F0 FF FF 7F 7B        J........{
01F0: F8 FF FF 7F 6F 76 F8 FF  FF 7F 5B 08 80 8B 02 05  ....ov....[.....
0200: 01 8B 02 05 01 6D 73 64  30 53 8B 02 05 01 8B 02  .....msd0S......
0210: 05 01 6D 73 64 30 00                              ..msd0.         
```

#### Opcodes

```
  0: 0x01E6 [0x4A] EventEntity looks at LocalPlayer
  1: 0x01EF [0x7B] EventEntity stops talking
  2: 0x01F4 [0x6F] WAIT_FRAME_DELAY: Yield until WaitTime reaches zero
  3: 0x01F5 [0x76] CHECK_ENTITY_RENDER_FLAGS: Wait until EventEntity Render.Flags0 and Render.Flags3 conditions are met
  4: 0x01FA [0x5B] LOAD_EXT_SCHEDULER: Load scheduler "msd0" with entities [Mayakov (ID: 17105547/0x0105028B), Mayakov (ID: 17105547/0x0105028B)], work=2173*
  5: 0x0209 [0x53] WAIT_SCHEDULER_TASK: Wait for scheduler "msd0" with entities [Mayakov (ID: 17105547/0x0105028B), Mayakov (ID: 17105547/0x0105028B)]
  6: 0x0216 [0x00] END_REQSTACK()
```

### Event 65535.19

#### Metadata

| Field        | Value    |
|--------------|----------|
| Entrypoint   | 0x0217   |
| Data Size    | 45 bytes |
| Instructions | 9        |

```
      00 01 02 03 04 05 06 07  08 09 0A 0B 0C 0D 0E 0F
      -- -- -- -- -- -- -- --  -- -- -- -- -- -- -- --
0210:                      79  00 F8 FF FF 7F 83 02 05         y........
0220: 01 59 04 F8 FF FF 7F 04  80 1F 00 23 80 24 80 20  .Y.........#.$. 
0230: 80 1F 01 6F 4A F8 FF FF  7F 86 02 05 01 6F 76 F8  ...oJ........ov.
0240: FF FF 7F 00                                       ....            
```

#### Opcodes

```
  0: 0x0217 [0x79] EventEntity looks at Lilisette (ID: 17105539/0x01050283) (Basic look)
  1: 0x0221 [0x59] UPDATE_ENTITY_DATA: Set EventEntity main speed = 13* * 0.1
  2: 0x0229 [0x1F] MOVE_ENTITY: EventEntity moves to X=90.449*, Z=120.689*, Y=1.000*
  3: 0x0231 [0x1F] MOVE_ENTITY: Update entity position (mode=1)
  4: 0x0233 [0x6F] WAIT_FRAME_DELAY: Yield until WaitTime reaches zero
  5: 0x0234 [0x4A] EventEntity looks at Ragelise (ID: 17105542/0x01050286)
  6: 0x023D [0x6F] WAIT_FRAME_DELAY: Yield until WaitTime reaches zero
  7: 0x023E [0x76] CHECK_ENTITY_RENDER_FLAGS: Wait until EventEntity Render.Flags0 and Render.Flags3 conditions are met
  8: 0x0243 [0x00] END_REQSTACK()
```

### Event 65535.20

#### Metadata

| Field        | Value    |
|--------------|----------|
| Entrypoint   | 0x0244   |
| Data Size    | 50 bytes |
| Instructions | 9        |

```
      00 01 02 03 04 05 06 07  08 09 0A 0B 0C 0D 0E 0F
      -- -- -- -- -- -- -- --  -- -- -- -- -- -- -- --
0240:             59 04 F8 FF  FF 7F 04 80 1F 00 25 80      Y.........%.
0250: 26 80 00 80 1F 01 6F 4A  F8 FF FF 7F 83 02 05 01  &.....oJ........
0260: 6F 76 F8 FF FF 7F 5B 08  80 8B 02 05 01 8B 02 05  ov....[.........
0270: 01 6D 73 64 30 00                                 .msd0.          
```

#### Opcodes

```
  0: 0x0244 [0x59] UPDATE_ENTITY_DATA: Set EventEntity main speed = 13* * 0.1
  1: 0x024C [0x1F] MOVE_ENTITY: EventEntity moves to X=117.681*, Z=92.433*, Y=0.000*
  2: 0x0254 [0x1F] MOVE_ENTITY: Update entity position (mode=1)
  3: 0x0256 [0x6F] WAIT_FRAME_DELAY: Yield until WaitTime reaches zero
  4: 0x0257 [0x4A] EventEntity looks at Lilisette (ID: 17105539/0x01050283)
  5: 0x0260 [0x6F] WAIT_FRAME_DELAY: Yield until WaitTime reaches zero
  6: 0x0261 [0x76] CHECK_ENTITY_RENDER_FLAGS: Wait until EventEntity Render.Flags0 and Render.Flags3 conditions are met
  7: 0x0266 [0x5B] LOAD_EXT_SCHEDULER: Load scheduler "msd0" with entities [Mayakov (ID: 17105547/0x0105028B), Mayakov (ID: 17105547/0x0105028B)], work=2173*
  8: 0x0275 [0x00] END_REQSTACK()
```

### Event 65535.21

#### Metadata

| Field        | Value    |
|--------------|----------|
| Entrypoint   | 0x0276   |
| Data Size    | 65 bytes |
| Instructions | 12       |

```
      00 01 02 03 04 05 06 07  08 09 0A 0B 0C 0D 0E 0F
      -- -- -- -- -- -- -- --  -- -- -- -- -- -- -- --
0270:                   7B F8  FF FF 7F 59 04 F8 FF FF        {....Y....
0280: 7F 04 80 3A F8 FF FF 7F  05 10 07 05 10 27 80 4B  ...:.........'.K
0290: F8 FF FF 7F 05 10 6F 76  F8 FF FF 7F 1F 00 28 80  ......ov......(.
02A0: 29 80 00 80 1F 01 6F 5B  08 80 8B 02 05 01 8B 02  ).....o[........
02B0: 05 01 6D 73 64 30 00                              ..msd0.         
```

#### Opcodes

```
  0: 0x0276 [0x7B] EventEntity stops talking
  1: 0x027B [0x59] UPDATE_ENTITY_DATA: Set EventEntity main speed = 13* * 0.1
  2: 0x0283 [0x3A] CONVERT_YAW_TO_BYTE(entity=EventEntity, result_destination=Work_Zone[5])
  3: 0x028A [0x07] Work_Zone[5] += 2000*
  4: 0x028F [0x4B] UPDATE_ENTITY_YAW(entity=EventEntity, yaw=Work_Zone[5])
  5: 0x0296 [0x6F] WAIT_FRAME_DELAY: Yield until WaitTime reaches zero
  6: 0x0297 [0x76] CHECK_ENTITY_RENDER_FLAGS: Wait until EventEntity Render.Flags0 and Render.Flags3 conditions are met
  7: 0x029C [0x1F] MOVE_ENTITY: EventEntity moves to X=117.253*, Z=93.154*, Y=0.000*
  8: 0x02A4 [0x1F] MOVE_ENTITY: Update entity position (mode=1)
  9: 0x02A6 [0x6F] WAIT_FRAME_DELAY: Yield until WaitTime reaches zero
 10: 0x02A7 [0x5B] LOAD_EXT_SCHEDULER: Load scheduler "msd0" with entities [Mayakov (ID: 17105547/0x0105028B), Mayakov (ID: 17105547/0x0105028B)], work=2173*
 11: 0x02B6 [0x00] END_REQSTACK()
```

### Event 65535.22

#### Metadata

| Field        | Value    |
|--------------|----------|
| Entrypoint   | 0x02B7   |
| Data Size    | 39 bytes |
| Instructions | 6        |

```
      00 01 02 03 04 05 06 07  08 09 0A 0B 0C 0D 0E 0F
      -- -- -- -- -- -- -- --  -- -- -- -- -- -- -- --
02B0:                      59  04 F8 FF FF 7F 04 80 4A         Y.......J
02C0: F8 FF FF 7F 83 02 05 01  6F 76 F8 FF FF 7F 5B 08  ........ov....[.
02D0: 80 8B 02 05 01 8B 02 05  01 6D 73 64 30 00        .........msd0.  
```

#### Opcodes

```
  0: 0x02B7 [0x59] UPDATE_ENTITY_DATA: Set EventEntity main speed = 13* * 0.1
  1: 0x02BF [0x4A] EventEntity looks at Lilisette (ID: 17105539/0x01050283)
  2: 0x02C8 [0x6F] WAIT_FRAME_DELAY: Yield until WaitTime reaches zero
  3: 0x02C9 [0x76] CHECK_ENTITY_RENDER_FLAGS: Wait until EventEntity Render.Flags0 and Render.Flags3 conditions are met
  4: 0x02CE [0x5B] LOAD_EXT_SCHEDULER: Load scheduler "msd0" with entities [Mayakov (ID: 17105547/0x0105028B), Mayakov (ID: 17105547/0x0105028B)], work=2173*
  5: 0x02DD [0x00] END_REQSTACK()
```

### Event 65535.23

#### Metadata

| Field        | Value    |
|--------------|----------|
| Entrypoint   | 0x02DE   |
| Data Size    | 34 bytes |
| Instructions | 5        |

```
      00 01 02 03 04 05 06 07  08 09 0A 0B 0C 0D 0E 0F
      -- -- -- -- -- -- -- --  -- -- -- -- -- -- -- --
02D0:                                            59 04                Y.
02E0: F8 FF FF 7F 04 80 3A F8  FF FF 7F 05 10 07 05 10  ......:.........
02F0: 2A 80 BA F8 FF FF 7F 2B  80 2C 80 00 80 2D 80 00  *......+.,...-..
```

#### Opcodes

```
  0: 0x02DE [0x59] UPDATE_ENTITY_DATA: Set EventEntity main speed = 13* * 0.1
  1: 0x02E6 [0x3A] CONVERT_YAW_TO_BYTE(entity=EventEntity, result_destination=Work_Zone[5])
  2: 0x02ED [0x07] Work_Zone[5] += 3412*
  3: 0x02F2 [0xBA] SET_ENTITY_POSITION(entity_id=EventEntity, pos_x=116.839*, pos_z=93.837*, pos_y=0.000*, direction=325.2°*)
  4: 0x02FF [0x00] END_REQSTACK()
```

### Event 65535.24

#### Metadata

| Field        | Value    |
|--------------|----------|
| Entrypoint   | 0x0300   |
| Data Size    | 40 bytes |
| Instructions | 7        |

```
      00 01 02 03 04 05 06 07  08 09 0A 0B 0C 0D 0E 0F
      -- -- -- -- -- -- -- --  -- -- -- -- -- -- -- --
0300: 7B F8 FF FF 7F 59 04 F8  FF FF 7F 2E 80 1F 00 28  {....Y.........(
0310: 80 29 80 00 80 1F 01 6F  5B 08 80 8B 02 05 01 8B  .).....o[.......
0320: 02 05 01 6D 73 64 6C 00                           ...msdl.        
```

#### Opcodes

```
  0: 0x0300 [0x7B] EventEntity stops talking
  1: 0x0305 [0x59] UPDATE_ENTITY_DATA: Set EventEntity main speed = 23* * 0.1
  2: 0x030D [0x1F] MOVE_ENTITY: EventEntity moves to X=117.253*, Z=93.154*, Y=0.000*
  3: 0x0315 [0x1F] MOVE_ENTITY: Update entity position (mode=1)
  4: 0x0317 [0x6F] WAIT_FRAME_DELAY: Yield until WaitTime reaches zero
  5: 0x0318 [0x5B] LOAD_EXT_SCHEDULER: Load scheduler "msdl" with entities [Mayakov (ID: 17105547/0x0105028B), Mayakov (ID: 17105547/0x0105028B)], work=2173*
  6: 0x0327 [0x00] END_REQSTACK()
```

### Event 65535.25

#### Metadata

| Field        | Value    |
|--------------|----------|
| Entrypoint   | 0x0328   |
| Data Size    | 20 bytes |
| Instructions | 5        |

```
      00 01 02 03 04 05 06 07  08 09 0A 0B 0C 0D 0E 0F
      -- -- -- -- -- -- -- --  -- -- -- -- -- -- -- --
0320:                          59 04 F8 FF FF 7F 04 80          Y.......
0330: 1F 00 2F 80 30 80 00 80  1F 01 6F 00              ../.0.....o.    
```

#### Opcodes

```
  0: 0x0328 [0x59] UPDATE_ENTITY_DATA: Set EventEntity main speed = 13* * 0.1
  1: 0x0330 [0x1F] MOVE_ENTITY: EventEntity moves to X=106.698*, Z=98.286*, Y=0.000*
  2: 0x0338 [0x1F] MOVE_ENTITY: Update entity position (mode=1)
  3: 0x033A [0x6F] WAIT_FRAME_DELAY: Yield until WaitTime reaches zero
  4: 0x033B [0x00] END_REQSTACK()
```

### Event 65535.26

#### Metadata

| Field        | Value    |
|--------------|----------|
| Entrypoint   | 0x033C   |
| Data Size    | 21 bytes |
| Instructions | 2        |

```
      00 01 02 03 04 05 06 07  08 09 0A 0B 0C 0D 0E 0F
      -- -- -- -- -- -- -- --  -- -- -- -- -- -- -- --
0330:                                      B6 0B 31 80              ..1.
0340: 32 80 33 80 33 80 33 80  33 80 34 80 00 80 00 80  2.3.3.3.3.4.....
0350: 00                                                .               
```

#### Opcodes

```
  0: 0x033C [0xB6] ENTITY_APPEARANCE_HANDLER(case=Full entity look, race=3*, hair=6*, head=12*, body=12*, hands=12*, legs=12*, feet=210*, main=0*, sub=0*)
  1: 0x0350 [0x00] END_REQSTACK()
```

### Event 65535.27

#### Metadata

| Field        | Value    |
|--------------|----------|
| Entrypoint   | 0x0351   |
| Data Size    | 45 bytes |
| Instructions | 4        |

```
      00 01 02 03 04 05 06 07  08 09 0A 0B 0C 0D 0E 0F
      -- -- -- -- -- -- -- --  -- -- -- -- -- -- -- --
0350:    B4 00 04 00 4D 61 79  61 6B 6F 76 00 00 00 00   ....Mayakov....
0360: 00 00 00 00 00 B5 00 04  00 B6 0B 01 80 35 80 34  .............5.4
0370: 80 34 80 34 80 34 80 34  80 00 80 00 80 00        .4.4.4.4......  
```

#### Opcodes

```
  0: 0x0351 [0xB4] UI_WINDOW_STRING_HANDLER(case=0x00 - Copy string from opcode, work_offset=ExtData[1]->WorkLocal[4], string="Mayakov")
  1: 0x0365 [0xB5] SET_EVENT_ENTITY_NAME: Change EventEntity name to ExtData[1]->WorkLocal[4]
  2: 0x0369 [0xB6] ENTITY_APPEARANCE_HANDLER(case=Full entity look, race=1*, hair=2*, head=210*, body=210*, hands=210*, legs=210*, feet=210*, main=0*, sub=0*)
  3: 0x037D [0x00] END_REQSTACK()
```

### Event 65535.28

#### Metadata

| Field        | Value    |
|--------------|----------|
| Entrypoint   | 0x037E   |
| Data Size    | 29 bytes |
| Instructions | 3        |

```
      00 01 02 03 04 05 06 07  08 09 0A 0B 0C 0D 0E 0F
      -- -- -- -- -- -- -- --  -- -- -- -- -- -- -- --
0370:                                            5B 36                [6
0380: 80 8B 02 05 01 8B 02 05  01 72 73 6E 30 53 8B 02  .........rsn0S..
0390: 05 01 8B 02 05 01 72 73  6E 30 00                 ......rsn0.     
```

#### Opcodes

```
  0: 0x037E [0x5B] LOAD_EXT_SCHEDULER: Load scheduler "rsn0" with entities [Mayakov (ID: 17105547/0x0105028B), Mayakov (ID: 17105547/0x0105028B)], work=2495*
  1: 0x038D [0x53] WAIT_SCHEDULER_TASK: Wait for scheduler "rsn0" with entities [Mayakov (ID: 17105547/0x0105028B), Mayakov (ID: 17105547/0x0105028B)]
  2: 0x039A [0x00] END_REQSTACK()
```

### Event 65535.29

#### Metadata

| Field        | Value    |
|--------------|----------|
| Entrypoint   | 0x039B   |
| Data Size    | 57 bytes |
| Instructions | 5        |

```
      00 01 02 03 04 05 06 07  08 09 0A 0B 0C 0D 0E 0F
      -- -- -- -- -- -- -- --  -- -- -- -- -- -- -- --
0390:                                   5B 37 80 8B 02             [7...
03A0: 05 01 8B 02 05 01 64 6E  63 30 53 8B 02 05 01 8B  ......dnc0S.....
03B0: 02 05 01 64 6E 63 30 5B  37 80 8B 02 05 01 8B 02  ...dnc0[7.......
03C0: 05 01 64 6E 63 31 53 8B  02 05 01 8B 02 05 01 64  ..dnc1S........d
03D0: 6E 63 31 00                                       nc1.            
```

#### Opcodes

```
  0: 0x039B [0x5B] LOAD_EXT_SCHEDULER: Load scheduler "dnc0" with entities [Mayakov (ID: 17105547/0x0105028B), Mayakov (ID: 17105547/0x0105028B)], work=2494*
  1: 0x03AA [0x53] WAIT_SCHEDULER_TASK: Wait for scheduler "dnc0" with entities [Mayakov (ID: 17105547/0x0105028B), Mayakov (ID: 17105547/0x0105028B)]
  2: 0x03B7 [0x5B] LOAD_EXT_SCHEDULER: Load scheduler "dnc1" with entities [Mayakov (ID: 17105547/0x0105028B), Mayakov (ID: 17105547/0x0105028B)], work=2494*
  3: 0x03C6 [0x53] WAIT_SCHEDULER_TASK: Wait for scheduler "dnc1" with entities [Mayakov (ID: 17105547/0x0105028B), Mayakov (ID: 17105547/0x0105028B)]
  4: 0x03D3 [0x00] END_REQSTACK()
```

### Event 65535.30

#### Metadata

| Field        | Value    |
|--------------|----------|
| Entrypoint   | 0x03D4   |
| Data Size    | 29 bytes |
| Instructions | 3        |

```
      00 01 02 03 04 05 06 07  08 09 0A 0B 0C 0D 0E 0F
      -- -- -- -- -- -- -- --  -- -- -- -- -- -- -- --
03D0:             5B 37 80 8B  02 05 01 8B 02 05 01 64      [7.........d
03E0: 6E 63 32 53 8B 02 05 01  8B 02 05 01 64 6E 63 32  nc2S........dnc2
03F0: 00                                                .               
```

#### Opcodes

```
  0: 0x03D4 [0x5B] LOAD_EXT_SCHEDULER: Load scheduler "dnc2" with entities [Mayakov (ID: 17105547/0x0105028B), Mayakov (ID: 17105547/0x0105028B)], work=2494*
  1: 0x03E3 [0x53] WAIT_SCHEDULER_TASK: Wait for scheduler "dnc2" with entities [Mayakov (ID: 17105547/0x0105028B), Mayakov (ID: 17105547/0x0105028B)]
  2: 0x03F0 [0x00] END_REQSTACK()
```

### Event 65535.31

#### Metadata

| Field        | Value    |
|--------------|----------|
| Entrypoint   | 0x03F1   |
| Data Size    | 34 bytes |
| Instructions | 7        |

```
      00 01 02 03 04 05 06 07  08 09 0A 0B 0C 0D 0E 0F
      -- -- -- -- -- -- -- --  -- -- -- -- -- -- -- --
03F0:    59 04 F8 FF FF 7F 04  80 1F 00 38 80 39 80 20   Y.........8.9. 
0400: 80 1F 01 6F 4A F8 FF FF  7F F0 FF FF 7F 7B F8 FF  ...oJ........{..
0410: FF 7F 00                                          ...             
```

#### Opcodes

```
  0: 0x03F1 [0x59] UPDATE_ENTITY_DATA: Set EventEntity main speed = 13* * 0.1
  1: 0x03F9 [0x1F] MOVE_ENTITY: EventEntity moves to X=89.933*, Z=122.495*, Y=1.000*
  2: 0x0401 [0x1F] MOVE_ENTITY: Update entity position (mode=1)
  3: 0x0403 [0x6F] WAIT_FRAME_DELAY: Yield until WaitTime reaches zero
  4: 0x0404 [0x4A] EventEntity looks at LocalPlayer
  5: 0x040D [0x7B] EventEntity stops talking
  6: 0x0412 [0x00] END_REQSTACK()
```

### Event 65535.32

#### Metadata

| Field        | Value    |
|--------------|----------|
| Entrypoint   | 0x0413   |
| Data Size    | 20 bytes |
| Instructions | 5        |

```
      00 01 02 03 04 05 06 07  08 09 0A 0B 0C 0D 0E 0F
      -- -- -- -- -- -- -- --  -- -- -- -- -- -- -- --
0410:          59 04 F8 FF FF  7F 04 80 1F 00 3A 80 3B     Y.........:.;
0420: 80 00 80 1F 01 6F 00                              .....o.         
```

#### Opcodes

```
  0: 0x0413 [0x59] UPDATE_ENTITY_DATA: Set EventEntity main speed = 13* * 0.1
  1: 0x041B [0x1F] MOVE_ENTITY: EventEntity moves to X=95.098*, Z=108.314*, Y=0.000*
  2: 0x0423 [0x1F] MOVE_ENTITY: Update entity position (mode=1)
  3: 0x0425 [0x6F] WAIT_FRAME_DELAY: Yield until WaitTime reaches zero
  4: 0x0426 [0x00] END_REQSTACK()
```

### Event 65535.33

#### Metadata

| Field        | Value   |
|--------------|---------|
| Entrypoint   | 0x0427  |
| Data Size    | 3 bytes |
| Instructions | 2       |

```
      00 01 02 03 04 05 06 07  08 09 0A 0B 0C 0D 0E 0F
      -- -- -- -- -- -- -- --  -- -- -- -- -- -- -- --
0420:                      A5  01 00                           ...      
```

#### Opcodes

```
  0: 0x0427 [0xA5] EventEntity->Flags3.BallistaTeam |= 0x08  // Set bit 3 of BallistaTeam
  1: 0x0429 [0x00] END_REQSTACK()
```

### Event 65535.34

#### Metadata

| Field        | Value   |
|--------------|---------|
| Entrypoint   | 0x042A  |
| Data Size    | 3 bytes |
| Instructions | 2       |

```
      00 01 02 03 04 05 06 07  08 09 0A 0B 0C 0D 0E 0F
      -- -- -- -- -- -- -- --  -- -- -- -- -- -- -- --
0420:                                A5 00 00                     ...   
```

#### Opcodes

```
  0: 0x042A [0xA5] EventEntity->Flags3.BallistaTeam &= ~0x08  // Clear bit 3 of BallistaTeam
  1: 0x042C [0x00] END_REQSTACK()
```

### Event 65535.35

#### Metadata

| Field        | Value    |
|--------------|----------|
| Entrypoint   | 0x042D   |
| Data Size    | 70 bytes |
| Instructions | 13       |

```
      00 01 02 03 04 05 06 07  08 09 0A 0B 0C 0D 0E 0F
      -- -- -- -- -- -- -- --  -- -- -- -- -- -- -- --
0420:                                         59 04 F8               Y..
0430: FF FF 7F 09 80 1F 00 3C  80 3D 80 20 80 1F 01 1F  .......<.=. ....
0440: 00 3E 80 3F 80 20 80 1F  01 1F 00 40 80 41 80 20  .>.?. .....@.A. 
0450: 80 1F 01 6F 4A F8 FF FF  7F F0 FF FF 7F 6F 76 F8  ...oJ........ov.
0460: FF FF 7F 5B 08 80 F8 FF  FF 7F F8 FF FF 7F 6D 73  ...[..........ms
0470: 64 30 00                                          d0.             
```

#### Opcodes

```
  0: 0x042D [0x59] UPDATE_ENTITY_DATA: Set EventEntity main speed = 15* * 0.1
  1: 0x0435 [0x1F] MOVE_ENTITY: EventEntity moves to X=91.082*, Z=122.588*, Y=1.000*
  2: 0x043D [0x1F] MOVE_ENTITY: Update entity position (mode=1)
  3: 0x043F [0x1F] MOVE_ENTITY: EventEntity moves to X=89.679*, Z=120.100*, Y=1.000*
  4: 0x0447 [0x1F] MOVE_ENTITY: Update entity position (mode=1)
  5: 0x0449 [0x1F] MOVE_ENTITY: EventEntity moves to X=88.468*, Z=117.335*, Y=1.000*
  6: 0x0451 [0x1F] MOVE_ENTITY: Update entity position (mode=1)
  7: 0x0453 [0x6F] WAIT_FRAME_DELAY: Yield until WaitTime reaches zero
  8: 0x0454 [0x4A] EventEntity looks at LocalPlayer
  9: 0x045D [0x6F] WAIT_FRAME_DELAY: Yield until WaitTime reaches zero
 10: 0x045E [0x76] CHECK_ENTITY_RENDER_FLAGS: Wait until EventEntity Render.Flags0 and Render.Flags3 conditions are met
 11: 0x0463 [0x5B] LOAD_EXT_SCHEDULER: Load scheduler "msd0" with entities [EventEntity, EventEntity], work=2173*
 12: 0x0472 [0x00] END_REQSTACK()
```

### Event 65535.36

#### Metadata

| Field        | Value    |
|--------------|----------|
| Entrypoint   | 0x0473   |
| Data Size    | 21 bytes |
| Instructions | 2        |

```
      00 01 02 03 04 05 06 07  08 09 0A 0B 0C 0D 0E 0F
      -- -- -- -- -- -- -- --  -- -- -- -- -- -- -- --
0470:          B6 0B 01 80 35  80 34 80 34 80 34 80 34     ....5.4.4.4.4
0480: 80 34 80 00 80 00 80 00                           .4......        
```

#### Opcodes

```
  0: 0x0473 [0xB6] ENTITY_APPEARANCE_HANDLER(case=Full entity look, race=1*, hair=2*, head=210*, body=210*, hands=210*, legs=210*, feet=210*, main=0*, sub=0*)
  1: 0x0487 [0x00] END_REQSTACK()
```

### Event 166

#### Metadata

| Field        | Value   |
|--------------|---------|
| Entrypoint   | 0x0488  |
| Data Size    | 1 bytes |
| Instructions | 1       |

```
      00 01 02 03 04 05 06 07  08 09 0A 0B 0C 0D 0E 0F
      -- -- -- -- -- -- -- --  -- -- -- -- -- -- -- --
0480:                          00                               .       
```

#### Opcodes

```
  0: 0x0488 [0x00] END_REQSTACK()
```

### Event 176

#### Metadata

| Field        | Value   |
|--------------|---------|
| Entrypoint   | 0x0489  |
| Data Size    | 1 bytes |
| Instructions | 1       |

```
      00 01 02 03 04 05 06 07  08 09 0A 0B 0C 0D 0E 0F
      -- -- -- -- -- -- -- --  -- -- -- -- -- -- -- --
0480:                             00                             .      
```

#### Opcodes

```
  0: 0x0489 [0x00] END_REQSTACK()
```

### Event 175

#### Metadata

| Field        | Value   |
|--------------|---------|
| Entrypoint   | 0x048A  |
| Data Size    | 1 bytes |
| Instructions | 1       |

```
      00 01 02 03 04 05 06 07  08 09 0A 0B 0C 0D 0E 0F
      -- -- -- -- -- -- -- --  -- -- -- -- -- -- -- --
0480:                                00                           .     
```

#### Opcodes

```
  0: 0x048A [0x00] END_REQSTACK()
```
