# 17105687 - 03

## Common Data

| Field            | Value                            |
|------------------|----------------------------------|
| Zone             | Southern San d'Oria [S] (ID: 80) |
| Block Size       | 1948 bytes                       |
| Total Events     | 60                               |
| References Count | 89                               |

## List of Events

| Event ID                   | Entrypoint   |   Size |   Instructions |
|----------------------------|--------------|--------|----------------|
| [65535](#event-65535)      | 0x0000       |      1 |              1 |
| [65535.1](#event-655351)   | 0x0001       |      1 |              1 |
| [65535.2](#event-655352)   | 0x0002       |     18 |              4 |
| [65535.3](#event-655353)   | 0x0014       |     10 |              2 |
| [65535.4](#event-655354)   | 0x001E       |      9 |              3 |
| [65535.5](#event-655355)   | 0x0027       |      9 |              3 |
| [65535.6](#event-655356)   | 0x0030       |     10 |              2 |
| [65535.7](#event-655357)   | 0x003A       |     10 |              2 |
| [151](#event-151)          | 0x0044       |      1 |              1 |
| [154](#event-154)          | 0x0045       |      1 |              1 |
| [65535.8](#event-655358)   | 0x0046       |     20 |              5 |
| [65535.9](#event-655359)   | 0x005A       |     19 |              4 |
| [65535.10](#event-6553510) | 0x006D       |     19 |              3 |
| [65535.11](#event-6553511) | 0x0080       |     21 |              3 |
| [65535.12](#event-6553512) | 0x0095       |     21 |              3 |
| [65535.13](#event-6553513) | 0x00AA       |     45 |             10 |
| [65535.14](#event-6553514) | 0x00D7       |     45 |             10 |
| [65535.15](#event-6553515) | 0x0104       |     69 |             14 |
| [65535.16](#event-6553516) | 0x0149       |     11 |              3 |
| [65535.17](#event-6553517) | 0x0154       |     13 |              3 |
| [65535.18](#event-6553518) | 0x0161       |     13 |              3 |
| [65535.19](#event-6553519) | 0x016E       |     58 |             14 |
| [65535.20](#event-6553520) | 0x01A8       |    128 |             22 |
| [65535.21](#event-6553521) | 0x0228       |     45 |             10 |
| [65535.22](#event-6553522) | 0x0255       |     35 |              8 |
| [65535.23](#event-6553523) | 0x0278       |     21 |              2 |
| [65535.24](#event-6553524) | 0x028D       |     21 |              2 |
| [65535.25](#event-6553525) | 0x02A2       |     21 |              2 |
| [65535.26](#event-6553526) | 0x02B7       |     21 |              2 |
| [65535.27](#event-6553527) | 0x02CC       |     21 |              2 |
| [65535.28](#event-6553528) | 0x02E1       |     21 |              2 |
| [65535.29](#event-6553529) | 0x02F6       |     21 |              2 |
| [65535.30](#event-6553530) | 0x030B       |     21 |              2 |
| [65535.31](#event-6553531) | 0x0320       |     21 |              2 |
| [65535.32](#event-6553532) | 0x0335       |     21 |              2 |
| [65535.33](#event-6553533) | 0x034A       |     21 |              2 |
| [65535.34](#event-6553534) | 0x035F       |     21 |              2 |
| [65535.35](#event-6553535) | 0x0374       |     21 |              2 |
| [65535.36](#event-6553536) | 0x0389       |     21 |              2 |
| [65535.37](#event-6553537) | 0x039E       |     21 |              2 |
| [65535.38](#event-6553538) | 0x03B3       |     21 |              2 |
| [65535.39](#event-6553539) | 0x03C8       |     21 |              2 |
| [65535.40](#event-6553540) | 0x03DD       |     21 |              2 |
| [65535.41](#event-6553541) | 0x03F2       |     21 |              2 |
| [65535.42](#event-6553542) | 0x0407       |     21 |              2 |
| [65535.43](#event-6553543) | 0x041C       |     21 |              2 |
| [65535.44](#event-6553544) | 0x0431       |     21 |              2 |
| [65535.45](#event-6553545) | 0x0446       |     21 |              2 |
| [65535.46](#event-6553546) | 0x045B       |     21 |              2 |
| [65535.47](#event-6553547) | 0x0470       |     21 |              2 |
| [65535.48](#event-6553548) | 0x0485       |     21 |              2 |
| [65535.49](#event-6553549) | 0x049A       |     21 |              2 |
| [65535.50](#event-6553550) | 0x04AF       |     21 |              2 |
| [65535.51](#event-6553551) | 0x04C4       |     21 |              2 |
| [65535.52](#event-6553552) | 0x04D9       |     21 |              2 |
| [65535.53](#event-6553553) | 0x04EE       |     21 |              2 |
| [65535.54](#event-6553554) | 0x0503       |     21 |              2 |
| [65535.55](#event-6553555) | 0x0518       |      3 |              2 |
| [65535.56](#event-6553556) | 0x051B       |      3 |              2 |
| [65535.57](#event-6553557) | 0x051E       |     26 |              3 |

## DAT References (imed_data)

|   Index | Hex Value   |   Dec Value |
|---------|-------------|-------------|
|       0 | 0x0000      |           0 |
|       1 | 0x0001      |           1 |
|       2 | 0x0080      |         128 |
|       3 | 0x000D      |          13 |
|       4 | 0x156B4     |       87732 |
|       5 | 0x1C4EE     |      115950 |
|       6 | 0x03E8      |        1000 |
|       7 | 0x18C87     |      101511 |
|       8 | 0x189B0     |      100784 |
|       9 | 0x03E7      |         999 |
|      10 | 0x003C      |          60 |
|      11 | 0x000B      |          11 |
|      12 | 0x148C5     |       84165 |
|      13 | 0x1D413     |      119827 |
|      14 | 0x0200      |         512 |
|      15 | 0x147DF     |       83935 |
|      16 | 0x1DA56     |      121430 |
|      17 | 0x150EE     |       86254 |
|      18 | 0x1BBE7     |      113639 |
|      19 | 0x14B01     |       84737 |
|      20 | 0x1B917     |      112919 |
|      21 | 0x14373     |       82803 |
|      22 | 0x1B869     |      112745 |
|      23 | 0x1615C     |       90460 |
|      24 | 0x1B0BB     |      110779 |
|      25 | 0x16B7C     |       93052 |
|      26 | 0x1B930     |      112944 |
|      27 | 0x1746D     |       95341 |
|      28 | 0x1BC23     |      113699 |
|      29 | 0x15F48     |       89928 |
|      30 | 0x1B5C5     |      112069 |
|      31 | 0x15BC3     |       89027 |
|      32 | 0x1C9CF     |      117199 |
|      33 | 0x02EE      |         750 |
|      34 | 0x15B58     |       88920 |
|      35 | 0x1CCAE     |      117934 |
|      36 | 0x15CE7     |       89319 |
|      37 | 0x1D3BA     |      119738 |
|      38 | 0x171B4     |       94644 |
|      39 | 0x1C020     |      114720 |
|      40 | 0x062B      |        1579 |
|      41 | 0x00B4      |         180 |
|      42 | 0x001E      |          30 |
|      43 | 0x0007      |           7 |
|      44 | 0x005A      |          90 |
|      45 | 0x0050      |          80 |
|      46 | 0x0024      |          36 |
|      47 | 0x0064      |         100 |
|      48 | 0x0005      |           5 |
|      49 | 0x000E      |          14 |
|      50 | 0x162A9     |       90793 |
|      51 | 0x1B7C9     |      112585 |
|      52 | 0x15933     |       88371 |
|      53 | 0x1BEAB     |      114347 |
|      54 | 0x01F4      |         500 |
|      55 | 0x14A19     |       84505 |
|      56 | 0x1BCE0     |      113888 |
|      57 | 0x15A3C     |       88636 |
|      58 | 0x1B838     |      112696 |
|      59 | 0x0003      |           3 |
|      60 | 0x0017      |          23 |
|      61 | 0x0002      |           2 |
|      62 | 0x0068      |         104 |
|      63 | 0x0018      |          24 |
|      64 | 0x0006      |           6 |
|      65 | 0x0004      |           4 |
|      66 | 0x0015      |          21 |
|      67 | 0x0008      |           8 |
|      68 | 0x007D      |         125 |
|      69 | 0x0060      |          96 |
|      70 | 0x000F      |          15 |
|      71 | 0x0038      |          56 |
|      72 | 0x0029      |          41 |
|      73 | 0x00D9      |         217 |
|      74 | 0x000C      |          12 |
|      75 | 0x00DD      |         221 |
|      76 | 0x0028      |          40 |
|      77 | 0x0097      |         151 |
|      78 | 0x0009      |           9 |
|      79 | 0x00D3      |         211 |
|      80 | 0x00A4      |         164 |
|      81 | 0x0045      |          69 |
|      82 | 0x002F      |          47 |
|      83 | 0x001A      |          26 |
|      84 | 0x0072      |         114 |
|      85 | 0x003A      |          58 |
|      86 | 0x00D2      |         210 |
|      87 | 0x00FB      |         251 |
|      88 | 0x004C      |          76 |

## Events

### Event 65535

#### Metadata

| Field        | Value   |
|--------------|---------|
| Entrypoint   | 0x0000  |
| Data Size    | 1 bytes |
| Instructions | 1       |

```
      00 01 02 03 04 05 06 07  08 09 0A 0B 0C 0D 0E 0F
      -- -- -- -- -- -- -- --  -- -- -- -- -- -- -- --
0000: 00                                                .               
```

#### Opcodes

```
  0: 0x0000 [0x00] END_REQSTACK()
```

### Event 65535.1

#### Metadata

| Field        | Value   |
|--------------|---------|
| Entrypoint   | 0x0001  |
| Data Size    | 1 bytes |
| Instructions | 1       |

```
      00 01 02 03 04 05 06 07  08 09 0A 0B 0C 0D 0E 0F
      -- -- -- -- -- -- -- --  -- -- -- -- -- -- -- --
0000:    00                                              .              
```

#### Opcodes

```
  0: 0x0001 [0x00] END_REQSTACK()
```

### Event 65535.2

#### Metadata

| Field        | Value    |
|--------------|----------|
| Entrypoint   | 0x0002   |
| Data Size    | 18 bytes |
| Instructions | 4        |

```
      00 01 02 03 04 05 06 07  08 09 0A 0B 0C 0D 0E 0F
      -- -- -- -- -- -- -- --  -- -- -- -- -- -- -- --
0000:       22 00 2F 00 F8 FF  FF 7F 6C F8 FF FF 7F 00    "./.....l.....
0010: 80 01 80 00                                       ....            
```

#### Opcodes

```
  0: 0x0002 [0x22] ENTITY_HIDE_FLAG(enabled=0x00)
  1: 0x0004 [0x2F] EventEntity->Render.Flags0 &= ~0x80000 // Bit 19
  2: 0x000A [0x6C] FADE_ENTITY_COLOR(entity_id=EventEntity, end_alpha=0*, fade_time=1*)
  3: 0x0013 [0x00] END_REQSTACK()
```

### Event 65535.3

#### Metadata

| Field        | Value    |
|--------------|----------|
| Entrypoint   | 0x0014   |
| Data Size    | 10 bytes |
| Instructions | 2        |

```
      00 01 02 03 04 05 06 07  08 09 0A 0B 0C 0D 0E 0F
      -- -- -- -- -- -- -- --  -- -- -- -- -- -- -- --
0010:             6C F8 FF FF  7F 02 80 01 80 00            l.........  
```

#### Opcodes

```
  0: 0x0014 [0x6C] FADE_ENTITY_COLOR(entity_id=EventEntity, end_alpha=128*, fade_time=1*)
  1: 0x001D [0x00] END_REQSTACK()
```

### Event 65535.4

#### Metadata

| Field        | Value   |
|--------------|---------|
| Entrypoint   | 0x001E  |
| Data Size    | 9 bytes |
| Instructions | 3       |

```
      00 01 02 03 04 05 06 07  08 09 0A 0B 0C 0D 0E 0F
      -- -- -- -- -- -- -- --  -- -- -- -- -- -- -- --
0010:                                            22 00                ".
0020: 2F 00 F8 FF FF 7F 00                              /......         
```

#### Opcodes

```
  0: 0x001E [0x22] ENTITY_HIDE_FLAG(enabled=0x00)
  1: 0x0020 [0x2F] EventEntity->Render.Flags0 &= ~0x80000 // Bit 19
  2: 0x0026 [0x00] END_REQSTACK()
```

### Event 65535.5

#### Metadata

| Field        | Value   |
|--------------|---------|
| Entrypoint   | 0x0027  |
| Data Size    | 9 bytes |
| Instructions | 3       |

```
      00 01 02 03 04 05 06 07  08 09 0A 0B 0C 0D 0E 0F
      -- -- -- -- -- -- -- --  -- -- -- -- -- -- -- --
0020:                      22  01 2F 01 F8 FF FF 7F 00         "./......
```

#### Opcodes

```
  0: 0x0027 [0x22] ENTITY_HIDE_FLAG(enabled=0x01)
  1: 0x0029 [0x2F] EventEntity->Render.Flags0 |= 0x80000 // Bit 19
  2: 0x002F [0x00] END_REQSTACK()
```

### Event 65535.6

#### Metadata

| Field        | Value    |
|--------------|----------|
| Entrypoint   | 0x0030   |
| Data Size    | 10 bytes |
| Instructions | 2        |

```
      00 01 02 03 04 05 06 07  08 09 0A 0B 0C 0D 0E 0F
      -- -- -- -- -- -- -- --  -- -- -- -- -- -- -- --
0030: 6C F8 FF FF 7F 00 80 01  80 00                    l.........      
```

#### Opcodes

```
  0: 0x0030 [0x6C] FADE_ENTITY_COLOR(entity_id=EventEntity, end_alpha=0*, fade_time=1*)
  1: 0x0039 [0x00] END_REQSTACK()
```

### Event 65535.7

#### Metadata

| Field        | Value    |
|--------------|----------|
| Entrypoint   | 0x003A   |
| Data Size    | 10 bytes |
| Instructions | 2        |

```
      00 01 02 03 04 05 06 07  08 09 0A 0B 0C 0D 0E 0F
      -- -- -- -- -- -- -- --  -- -- -- -- -- -- -- --
0030:                                6C F8 FF FF 7F 02            l.....
0040: 80 01 80 00                                       ....            
```

#### Opcodes

```
  0: 0x003A [0x6C] FADE_ENTITY_COLOR(entity_id=EventEntity, end_alpha=128*, fade_time=1*)
  1: 0x0043 [0x00] END_REQSTACK()
```

### Event 151

#### Metadata

| Field        | Value   |
|--------------|---------|
| Entrypoint   | 0x0044  |
| Data Size    | 1 bytes |
| Instructions | 1       |

```
      00 01 02 03 04 05 06 07  08 09 0A 0B 0C 0D 0E 0F
      -- -- -- -- -- -- -- --  -- -- -- -- -- -- -- --
0040:             00                                        .           
```

#### Opcodes

```
  0: 0x0044 [0x00] END_REQSTACK()
```

### Event 154

#### Metadata

| Field        | Value   |
|--------------|---------|
| Entrypoint   | 0x0045  |
| Data Size    | 1 bytes |
| Instructions | 1       |

```
      00 01 02 03 04 05 06 07  08 09 0A 0B 0C 0D 0E 0F
      -- -- -- -- -- -- -- --  -- -- -- -- -- -- -- --
0040:                00                                      .          
```

#### Opcodes

```
  0: 0x0045 [0x00] END_REQSTACK()
```

### Event 65535.8

#### Metadata

| Field        | Value    |
|--------------|----------|
| Entrypoint   | 0x0046   |
| Data Size    | 20 bytes |
| Instructions | 5        |

```
      00 01 02 03 04 05 06 07  08 09 0A 0B 0C 0D 0E 0F
      -- -- -- -- -- -- -- --  -- -- -- -- -- -- -- --
0040:                   59 04  F8 FF FF 7F 03 80 1F 00        Y.........
0050: 04 80 05 80 06 80 1F 01  6F 00                    ........o.      
```

#### Opcodes

```
  0: 0x0046 [0x59] UPDATE_ENTITY_DATA: Set EventEntity main speed = 13* * 0.1
  1: 0x004E [0x1F] MOVE_ENTITY: EventEntity moves to X=87.732*, Z=115.950*, Y=1.000*
  2: 0x0056 [0x1F] MOVE_ENTITY: Update entity position (mode=1)
  3: 0x0058 [0x6F] WAIT_FRAME_DELAY: Yield until WaitTime reaches zero
  4: 0x0059 [0x00] END_REQSTACK()
```

### Event 65535.9

#### Metadata

| Field        | Value    |
|--------------|----------|
| Entrypoint   | 0x005A   |
| Data Size    | 19 bytes |
| Instructions | 4        |

```
      00 01 02 03 04 05 06 07  08 09 0A 0B 0C 0D 0E 0F
      -- -- -- -- -- -- -- --  -- -- -- -- -- -- -- --
0050:                                59 04 F8 FF FF 7F            Y.....
0060: 03 80 1F 00 07 80 08 80  09 80 1F 01 00           .............   
```

#### Opcodes

```
  0: 0x005A [0x59] UPDATE_ENTITY_DATA: Set EventEntity main speed = 13* * 0.1
  1: 0x0062 [0x1F] MOVE_ENTITY: EventEntity moves to X=101.511*, Z=100.784*, Y=0.999*
  2: 0x006A [0x1F] MOVE_ENTITY: Update entity position (mode=1)
  3: 0x006C [0x00] END_REQSTACK()
```

### Event 65535.10

#### Metadata

| Field        | Value    |
|--------------|----------|
| Entrypoint   | 0x006D   |
| Data Size    | 19 bytes |
| Instructions | 3        |

```
      00 01 02 03 04 05 06 07  08 09 0A 0B 0C 0D 0E 0F
      -- -- -- -- -- -- -- --  -- -- -- -- -- -- -- --
0060:                                         1C 0A 80               ...
0070: 5B 0B 80 88 02 05 01 88  02 05 01 6D 61 65 31 00  [..........mae1.
```

#### Opcodes

```
  0: 0x006D [0x1C] WAIT(60* ticks)
  1: 0x0070 [0x5B] LOAD_EXT_SCHEDULER: Load scheduler "mae1" with entities [Hegouard (ID: 17105544/0x01050288), Hegouard (ID: 17105544/0x01050288)], work=11*
  2: 0x007F [0x00] END_REQSTACK()
```

### Event 65535.11

#### Metadata

| Field        | Value    |
|--------------|----------|
| Entrypoint   | 0x0080   |
| Data Size    | 21 bytes |
| Instructions | 3        |

```
      00 01 02 03 04 05 06 07  08 09 0A 0B 0C 0D 0E 0F
      -- -- -- -- -- -- -- --  -- -- -- -- -- -- -- --
0080: 59 05 EC 02 05 01 01 BA  EC 02 05 01 0C 80 0D 80  Y...............
0090: 00 80 0E 80 00                                    .....           
```

#### Opcodes

```
  0: 0x0080 [0x59] UPDATE_ENTITY_DATA: Tanja (ID: 17105644/0x010502EC)->Render.Flags0 |= 0x200000
  1: 0x0087 [0xBA] SET_ENTITY_POSITION(entity_id=Tanja (ID: 17105644/0x010502EC), pos_x=84.165*, pos_z=119.827*, pos_y=0.000*, direction=45.0°*)
  2: 0x0094 [0x00] END_REQSTACK()
```

### Event 65535.12

#### Metadata

| Field        | Value    |
|--------------|----------|
| Entrypoint   | 0x0095   |
| Data Size    | 21 bytes |
| Instructions | 3        |

```
      00 01 02 03 04 05 06 07  08 09 0A 0B 0C 0D 0E 0F
      -- -- -- -- -- -- -- --  -- -- -- -- -- -- -- --
0090:                59 05 ED  02 05 01 01 BA ED 02 05       Y..........
00A0: 01 0F 80 10 80 00 80 0E  80 00                    ..........      
```

#### Opcodes

```
  0: 0x0095 [0x59] UPDATE_ENTITY_DATA: Raina (ID: 17105645/0x010502ED)->Render.Flags0 |= 0x200000
  1: 0x009C [0xBA] SET_ENTITY_POSITION(entity_id=Raina (ID: 17105645/0x010502ED), pos_x=83.935*, pos_z=121.430*, pos_y=0.000*, direction=45.0°*)
  2: 0x00A9 [0x00] END_REQSTACK()
```

### Event 65535.13

#### Metadata

| Field        | Value    |
|--------------|----------|
| Entrypoint   | 0x00AA   |
| Data Size    | 45 bytes |
| Instructions | 10       |

```
      00 01 02 03 04 05 06 07  08 09 0A 0B 0C 0D 0E 0F
      -- -- -- -- -- -- -- --  -- -- -- -- -- -- -- --
00A0:                                7B F8 FF FF 7F 59            {....Y
00B0: 04 F8 FF FF 7F 03 80 1F  00 11 80 12 80 06 80 1F  ................
00C0: 01 1F 00 13 80 14 80 06  80 1F 01 1F 00 15 80 16  ................
00D0: 80 06 80 1F 01 6F 00                              .....o.         
```

#### Opcodes

```
  0: 0x00AA [0x7B] EventEntity stops talking
  1: 0x00AF [0x59] UPDATE_ENTITY_DATA: Set EventEntity main speed = 13* * 0.1
  2: 0x00B7 [0x1F] MOVE_ENTITY: EventEntity moves to X=86.254*, Z=113.639*, Y=1.000*
  3: 0x00BF [0x1F] MOVE_ENTITY: Update entity position (mode=1)
  4: 0x00C1 [0x1F] MOVE_ENTITY: EventEntity moves to X=84.737*, Z=112.919*, Y=1.000*
  5: 0x00C9 [0x1F] MOVE_ENTITY: Update entity position (mode=1)
  6: 0x00CB [0x1F] MOVE_ENTITY: EventEntity moves to X=82.803*, Z=112.745*, Y=1.000*
  7: 0x00D3 [0x1F] MOVE_ENTITY: Update entity position (mode=1)
  8: 0x00D5 [0x6F] WAIT_FRAME_DELAY: Yield until WaitTime reaches zero
  9: 0x00D6 [0x00] END_REQSTACK()
```

### Event 65535.14

#### Metadata

| Field        | Value    |
|--------------|----------|
| Entrypoint   | 0x00D7   |
| Data Size    | 45 bytes |
| Instructions | 10       |

```
      00 01 02 03 04 05 06 07  08 09 0A 0B 0C 0D 0E 0F
      -- -- -- -- -- -- -- --  -- -- -- -- -- -- -- --
00D0:                      7B  F8 FF FF 7F 59 04 F8 FF         {....Y...
00E0: FF 7F 03 80 1F 00 17 80  18 80 00 80 1F 01 1F 00  ................
00F0: 19 80 1A 80 00 80 1F 01  1F 00 1B 80 1C 80 00 80  ................
0100: 1F 01 6F 00                                       ..o.            
```

#### Opcodes

```
  0: 0x00D7 [0x7B] EventEntity stops talking
  1: 0x00DC [0x59] UPDATE_ENTITY_DATA: Set EventEntity main speed = 13* * 0.1
  2: 0x00E4 [0x1F] MOVE_ENTITY: EventEntity moves to X=90.460*, Z=110.779*, Y=0.000*
  3: 0x00EC [0x1F] MOVE_ENTITY: Update entity position (mode=1)
  4: 0x00EE [0x1F] MOVE_ENTITY: EventEntity moves to X=93.052*, Z=112.944*, Y=0.000*
  5: 0x00F6 [0x1F] MOVE_ENTITY: Update entity position (mode=1)
  6: 0x00F8 [0x1F] MOVE_ENTITY: EventEntity moves to X=95.341*, Z=113.699*, Y=0.000*
  7: 0x0100 [0x1F] MOVE_ENTITY: Update entity position (mode=1)
  8: 0x0102 [0x6F] WAIT_FRAME_DELAY: Yield until WaitTime reaches zero
  9: 0x0103 [0x00] END_REQSTACK()
```

### Event 65535.15

#### Metadata

| Field        | Value    |
|--------------|----------|
| Entrypoint   | 0x0104   |
| Data Size    | 69 bytes |
| Instructions | 14       |

```
      00 01 02 03 04 05 06 07  08 09 0A 0B 0C 0D 0E 0F
      -- -- -- -- -- -- -- --  -- -- -- -- -- -- -- --
0100:             7B F8 FF FF  7F 59 04 F8 FF FF 7F 03      {....Y......
0110: 80 1F 00 1D 80 1E 80 00  80 1F 01 1F 00 1F 80 20  ............... 
0120: 80 21 80 1F 01 1F 00 22  80 23 80 09 80 1F 01 1F  .!.....".#......
0130: 00 24 80 25 80 06 80 1F  01 6F 4A F8 FF FF 7F AE  .$.%.....oJ.....
0140: 02 05 01 7B F8 FF FF 7F  00                       ...{.....       
```

#### Opcodes

```
  0: 0x0104 [0x7B] EventEntity stops talking
  1: 0x0109 [0x59] UPDATE_ENTITY_DATA: Set EventEntity main speed = 13* * 0.1
  2: 0x0111 [0x1F] MOVE_ENTITY: EventEntity moves to X=89.928*, Z=112.069*, Y=0.000*
  3: 0x0119 [0x1F] MOVE_ENTITY: Update entity position (mode=1)
  4: 0x011B [0x1F] MOVE_ENTITY: EventEntity moves to X=89.027*, Z=117.199*, Y=0.750*
  5: 0x0123 [0x1F] MOVE_ENTITY: Update entity position (mode=1)
  6: 0x0125 [0x1F] MOVE_ENTITY: EventEntity moves to X=88.920*, Z=117.934*, Y=0.999*
  7: 0x012D [0x1F] MOVE_ENTITY: Update entity position (mode=1)
  8: 0x012F [0x1F] MOVE_ENTITY: EventEntity moves to X=89.319*, Z=119.738*, Y=1.000*
  9: 0x0137 [0x1F] MOVE_ENTITY: Update entity position (mode=1)
 10: 0x0139 [0x6F] WAIT_FRAME_DELAY: Yield until WaitTime reaches zero
 11: 0x013A [0x4A] EventEntity looks at Vestillet (ID: 17105582/0x010502AE)
 12: 0x0143 [0x7B] EventEntity stops talking
 13: 0x0148 [0x00] END_REQSTACK()
```

### Event 65535.16

#### Metadata

| Field        | Value    |
|--------------|----------|
| Entrypoint   | 0x0149   |
| Data Size    | 11 bytes |
| Instructions | 3        |

```
      00 01 02 03 04 05 06 07  08 09 0A 0B 0C 0D 0E 0F
      -- -- -- -- -- -- -- --  -- -- -- -- -- -- -- --
0140:                             1F 00 26 80 27 80 00           ..&.'..
0150: 80 1F 01 00                                       ....            
```

#### Opcodes

```
  0: 0x0149 [0x1F] MOVE_ENTITY: EventEntity moves to X=94.644*, Z=114.720*, Y=0.000*
  1: 0x0151 [0x1F] MOVE_ENTITY: Update entity position (mode=1)
  2: 0x0153 [0x00] END_REQSTACK()
```

### Event 65535.17

#### Metadata

| Field        | Value    |
|--------------|----------|
| Entrypoint   | 0x0154   |
| Data Size    | 13 bytes |
| Instructions | 3        |

```
      00 01 02 03 04 05 06 07  08 09 0A 0B 0C 0D 0E 0F
      -- -- -- -- -- -- -- --  -- -- -- -- -- -- -- --
0150:             6E F8 FF FF  7F 03 80 99 F8 FF FF 7F      n...........
0160: 00                                                .               
```

#### Opcodes

```
  0: 0x0154 [0x6E] EventEntity uses emote 13*
  1: 0x015B [0x99] Wait for EventEntity animation to complete
  2: 0x0160 [0x00] END_REQSTACK()
```

### Event 65535.18

#### Metadata

| Field        | Value    |
|--------------|----------|
| Entrypoint   | 0x0161   |
| Data Size    | 13 bytes |
| Instructions | 3        |

```
      00 01 02 03 04 05 06 07  08 09 0A 0B 0C 0D 0E 0F
      -- -- -- -- -- -- -- --  -- -- -- -- -- -- -- --
0160:    6E F8 FF FF 7F 28 80  99 F8 FF FF 7F 00         n....(.......  
```

#### Opcodes

```
  0: 0x0161 [0x6E] EventEntity uses emote 1579*
  1: 0x0168 [0x99] Wait for EventEntity animation to complete
  2: 0x016D [0x00] END_REQSTACK()
```

### Event 65535.19

#### Metadata

| Field        | Value    |
|--------------|----------|
| Entrypoint   | 0x016E   |
| Data Size    | 58 bytes |
| Instructions | 14       |

```
      00 01 02 03 04 05 06 07  08 09 0A 0B 0C 0D 0E 0F
      -- -- -- -- -- -- -- --  -- -- -- -- -- -- -- --
0160:                                            1C 29                .)
0170: 80 1C 2A 80 6E 0E 03 05  01 2B 80 99 0E 03 05 01  ..*.n....+......
0180: 1C 0A 80 6E 12 03 05 01  2B 80 99 12 03 05 01 1C  ...n....+.......
0190: 2C 80 1C 2D 80 6E 18 03  05 01 2E 80 99 18 03 05  ,..-.n..........
01A0: 01 1C 2F 80 1C 29 80 00                           ../..)..        
```

#### Opcodes

```
  0: 0x016E [0x1C] WAIT(180* ticks)
  1: 0x0171 [0x1C] WAIT(30* ticks)
  2: 0x0174 [0x6E] Leonoyne (ID: 17105678/0x0105030E) uses emote 7*
  3: 0x017B [0x99] Wait for Leonoyne (ID: 17105678/0x0105030E) animation to complete
  4: 0x0180 [0x1C] WAIT(60* ticks)
  5: 0x0183 [0x6E] Febrenard C Brunnaut (ID: 17105682/0x01050312) uses emote 7*
  6: 0x018A [0x99] Wait for Febrenard C Brunnaut (ID: 17105682/0x01050312) animation to complete
  7: 0x018F [0x1C] WAIT(90* ticks)
  8: 0x0192 [0x1C] WAIT(80* ticks)
  9: 0x0195 [0x6E] 04 (ID: 17105688/0x01050318) uses emote 36*
 10: 0x019C [0x99] Wait for 04 (ID: 17105688/0x01050318) animation to complete
 11: 0x01A1 [0x1C] WAIT(100* ticks)
 12: 0x01A4 [0x1C] WAIT(180* ticks)
 13: 0x01A7 [0x00] END_REQSTACK()
```

### Event 65535.20

#### Metadata

| Field        | Value     |
|--------------|-----------|
| Entrypoint   | 0x01A8    |
| Data Size    | 128 bytes |
| Instructions | 22        |

```
      00 01 02 03 04 05 06 07  08 09 0A 0B 0C 0D 0E 0F
      -- -- -- -- -- -- -- --  -- -- -- -- -- -- -- --
01A0:                          27 10 14 03 05 01 14 1C          '.......
01B0: 30 80 27 10 12 03 05 01  12 27 10 18 03 05 01 14  0.'......'......
01C0: 27 10 10 03 05 01 12 6E  ED 02 05 01 31 80 99 ED  '......n....1...
01D0: 02 05 01 27 10 19 03 05  01 13 27 10 1B 03 05 01  ...'......'.....
01E0: 14 6E 17 03 05 01 03 80  99 17 03 05 01 27 10 1A  .n...........'..
01F0: 03 05 01 13 6E 13 03 05  01 03 80 99 13 03 05 01  ....n...........
0200: 1C 30 80 27 10 11 03 05  01 12 27 10 0F 03 05 01  .0.'......'.....
0210: 12 1C 30 80 27 10 0E 03  05 01 12 6E AE 02 05 01  ..0.'......n....
0220: 03 80 99 AE 02 05 01 00                           ........        
```

#### Opcodes

```
  0: 0x01A8 [0x27] REQ_SET(priority=0x10, entity_id=Unnamed NPC (ID: 17105684/0x01050314), tag_num=0x14)
  1: 0x01AF [0x1C] WAIT(5* ticks)
  2: 0x01B2 [0x27] REQ_SET(priority=0x10, entity_id=Febrenard C Brunnaut (ID: 17105682/0x01050312), tag_num=0x12)
  3: 0x01B9 [0x27] REQ_SET(priority=0x10, entity_id=04 (ID: 17105688/0x01050318), tag_num=0x14)
  4: 0x01C0 [0x27] REQ_SET(priority=0x10, entity_id=Laisavie X Berlends (ID: 17105680/0x01050310), tag_num=0x12)
  5: 0x01C7 [0x6E] Raina (ID: 17105645/0x010502ED) uses emote 14*
  6: 0x01CE [0x99] Wait for Raina (ID: 17105645/0x010502ED) animation to complete
  7: 0x01D3 [0x27] REQ_SET(priority=0x10, entity_id=05 (ID: 17105689/0x01050319), tag_num=0x13)
  8: 0x01DA [0x27] REQ_SET(priority=0x10, entity_id=07 (ID: 17105691/0x0105031B), tag_num=0x14)
  9: 0x01E1 [0x6E] 03 (ID: 17105687/0x01050317) uses emote 13*
 10: 0x01E8 [0x99] Wait for 03 (ID: 17105687/0x01050317) animation to complete
 11: 0x01ED [0x27] REQ_SET(priority=0x10, entity_id=06 (ID: 17105690/0x0105031A), tag_num=0x13)
 12: 0x01F4 [0x6E] Noillurie (ID: 17105683/0x01050313) uses emote 13*
 13: 0x01FB [0x99] Wait for Noillurie (ID: 17105683/0x01050313) animation to complete
 14: 0x0200 [0x1C] WAIT(5* ticks)
 15: 0x0203 [0x27] REQ_SET(priority=0x10, entity_id=Mieuseloir B Enchelles (ID: 17105681/0x01050311), tag_num=0x12)
 16: 0x020A [0x27] REQ_SET(priority=0x10, entity_id=Feldrautte I Rouhent (ID: 17105679/0x0105030F), tag_num=0x12)
 17: 0x0211 [0x1C] WAIT(5* ticks)
 18: 0x0214 [0x27] REQ_SET(priority=0x10, entity_id=Leonoyne (ID: 17105678/0x0105030E), tag_num=0x12)
 19: 0x021B [0x6E] Vestillet (ID: 17105582/0x010502AE) uses emote 13*
 20: 0x0222 [0x99] Wait for Vestillet (ID: 17105582/0x010502AE) animation to complete
 21: 0x0227 [0x00] END_REQSTACK()
```

### Event 65535.21

#### Metadata

| Field        | Value    |
|--------------|----------|
| Entrypoint   | 0x0228   |
| Data Size    | 45 bytes |
| Instructions | 10       |

```
      00 01 02 03 04 05 06 07  08 09 0A 0B 0C 0D 0E 0F
      -- -- -- -- -- -- -- --  -- -- -- -- -- -- -- --
0220:                          7B F8 FF FF 7F 59 04 F8          {....Y..
0230: FF FF 7F 03 80 1F 00 32  80 33 80 00 80 1F 01 1F  .......2.3......
0240: 00 34 80 35 80 36 80 1F  01 1F 00 37 80 38 80 06  .4.5.6.....7.8..
0250: 80 1F 01 6F 00                                    ...o.           
```

#### Opcodes

```
  0: 0x0228 [0x7B] EventEntity stops talking
  1: 0x022D [0x59] UPDATE_ENTITY_DATA: Set EventEntity main speed = 13* * 0.1
  2: 0x0235 [0x1F] MOVE_ENTITY: EventEntity moves to X=90.793*, Z=112.585*, Y=0.000*
  3: 0x023D [0x1F] MOVE_ENTITY: Update entity position (mode=1)
  4: 0x023F [0x1F] MOVE_ENTITY: EventEntity moves to X=88.371*, Z=114.347*, Y=0.500*
  5: 0x0247 [0x1F] MOVE_ENTITY: Update entity position (mode=1)
  6: 0x0249 [0x1F] MOVE_ENTITY: EventEntity moves to X=84.505*, Z=113.888*, Y=1.000*
  7: 0x0251 [0x1F] MOVE_ENTITY: Update entity position (mode=1)
  8: 0x0253 [0x6F] WAIT_FRAME_DELAY: Yield until WaitTime reaches zero
  9: 0x0254 [0x00] END_REQSTACK()
```

### Event 65535.22

#### Metadata

| Field        | Value    |
|--------------|----------|
| Entrypoint   | 0x0255   |
| Data Size    | 35 bytes |
| Instructions | 8        |

```
      00 01 02 03 04 05 06 07  08 09 0A 0B 0C 0D 0E 0F
      -- -- -- -- -- -- -- --  -- -- -- -- -- -- -- --
0250:                4A F8 FF  FF 7F EC 02 05 01 6F 76       J........ov
0260: F8 FF FF 7F 59 04 F8 FF  FF 7F 03 80 1F 00 39 80  ....Y.........9.
0270: 3A 80 00 80 1F 01 6F 00                           :.....o.        
```

#### Opcodes

```
  0: 0x0255 [0x4A] EventEntity looks at Tanja (ID: 17105644/0x010502EC)
  1: 0x025E [0x6F] WAIT_FRAME_DELAY: Yield until WaitTime reaches zero
  2: 0x025F [0x76] CHECK_ENTITY_RENDER_FLAGS: Wait until EventEntity Render.Flags0 and Render.Flags3 conditions are met
  3: 0x0264 [0x59] UPDATE_ENTITY_DATA: Set EventEntity main speed = 13* * 0.1
  4: 0x026C [0x1F] MOVE_ENTITY: EventEntity moves to X=88.636*, Z=112.696*, Y=0.000*
  5: 0x0274 [0x1F] MOVE_ENTITY: Update entity position (mode=1)
  6: 0x0276 [0x6F] WAIT_FRAME_DELAY: Yield until WaitTime reaches zero
  7: 0x0277 [0x00] END_REQSTACK()
```

### Event 65535.23

#### Metadata

| Field        | Value    |
|--------------|----------|
| Entrypoint   | 0x0278   |
| Data Size    | 21 bytes |
| Instructions | 2        |

```
      00 01 02 03 04 05 06 07  08 09 0A 0B 0C 0D 0E 0F
      -- -- -- -- -- -- -- --  -- -- -- -- -- -- -- --
0270:                          B6 0B 3B 80 0B 80 3C 80          ..;...<.
0280: 3C 80 3C 80 3C 80 3C 80  00 80 00 80 00           <.<.<.<......   
```

#### Opcodes

```
  0: 0x0278 [0xB6] ENTITY_APPEARANCE_HANDLER(case=Full entity look, race=3*, hair=11*, head=23*, body=23*, hands=23*, legs=23*, feet=23*, main=0*, sub=0*)
  1: 0x028C [0x00] END_REQSTACK()
```

### Event 65535.24

#### Metadata

| Field        | Value    |
|--------------|----------|
| Entrypoint   | 0x028D   |
| Data Size    | 21 bytes |
| Instructions | 2        |

```
      00 01 02 03 04 05 06 07  08 09 0A 0B 0C 0D 0E 0F
      -- -- -- -- -- -- -- --  -- -- -- -- -- -- -- --
0280:                                         B6 0B 3D               ..=
0290: 80 3B 80 3C 80 3E 80 3C  80 3C 80 3C 80 00 80 00  .;.<.>.<.<.<....
02A0: 80 00                                             ..              
```

#### Opcodes

```
  0: 0x028D [0xB6] ENTITY_APPEARANCE_HANDLER(case=Full entity look, race=2*, hair=3*, head=23*, body=104*, hands=23*, legs=23*, feet=23*, main=0*, sub=0*)
  1: 0x02A1 [0x00] END_REQSTACK()
```

### Event 65535.25

#### Metadata

| Field        | Value    |
|--------------|----------|
| Entrypoint   | 0x02A2   |
| Data Size    | 21 bytes |
| Instructions | 2        |

```
      00 01 02 03 04 05 06 07  08 09 0A 0B 0C 0D 0E 0F
      -- -- -- -- -- -- -- --  -- -- -- -- -- -- -- --
02A0:       B6 0B 30 80 30 80  3F 80 3F 80 3F 80 3F 80    ..0.0.?.?.?.?.
02B0: 3F 80 00 80 00 80 00                              ?......         
```

#### Opcodes

```
  0: 0x02A2 [0xB6] ENTITY_APPEARANCE_HANDLER(case=Full entity look, race=5*, hair=5*, head=24*, body=24*, hands=24*, legs=24*, feet=24*, main=0*, sub=0*)
  1: 0x02B6 [0x00] END_REQSTACK()
```

### Event 65535.26

#### Metadata

| Field        | Value    |
|--------------|----------|
| Entrypoint   | 0x02B7   |
| Data Size    | 21 bytes |
| Instructions | 2        |

```
      00 01 02 03 04 05 06 07  08 09 0A 0B 0C 0D 0E 0F
      -- -- -- -- -- -- -- --  -- -- -- -- -- -- -- --
02B0:                      B6  0B 2B 80 40 80 3C 80 3C         ..+.@.<.<
02C0: 80 3C 80 3C 80 3C 80 00  80 00 80 00              .<.<.<......    
```

#### Opcodes

```
  0: 0x02B7 [0xB6] ENTITY_APPEARANCE_HANDLER(case=Full entity look, race=7*, hair=6*, head=23*, body=23*, hands=23*, legs=23*, feet=23*, main=0*, sub=0*)
  1: 0x02CB [0x00] END_REQSTACK()
```

### Event 65535.27

#### Metadata

| Field        | Value    |
|--------------|----------|
| Entrypoint   | 0x02CC   |
| Data Size    | 21 bytes |
| Instructions | 2        |

```
      00 01 02 03 04 05 06 07  08 09 0A 0B 0C 0D 0E 0F
      -- -- -- -- -- -- -- --  -- -- -- -- -- -- -- --
02C0:                                      B6 0B 41 80              ..A.
02D0: 3B 80 00 80 42 80 42 80  42 80 42 80 00 80 00 80  ;...B.B.B.B.....
02E0: 00                                                .               
```

#### Opcodes

```
  0: 0x02CC [0xB6] ENTITY_APPEARANCE_HANDLER(case=Full entity look, race=4*, hair=3*, head=0*, body=21*, hands=21*, legs=21*, feet=21*, main=0*, sub=0*)
  1: 0x02E0 [0x00] END_REQSTACK()
```

### Event 65535.28

#### Metadata

| Field        | Value    |
|--------------|----------|
| Entrypoint   | 0x02E1   |
| Data Size    | 21 bytes |
| Instructions | 2        |

```
      00 01 02 03 04 05 06 07  08 09 0A 0B 0C 0D 0E 0F
      -- -- -- -- -- -- -- --  -- -- -- -- -- -- -- --
02E0:    B6 0B 43 80 00 80 44  80 45 80 45 80 45 80 45   ..C...D.E.E.E.E
02F0: 80 00 80 00 80 00                                 ......          
```

#### Opcodes

```
  0: 0x02E1 [0xB6] ENTITY_APPEARANCE_HANDLER(case=Full entity look, race=8*, hair=0*, head=125*, body=96*, hands=96*, legs=96*, feet=96*, main=0*, sub=0*)
  1: 0x02F5 [0x00] END_REQSTACK()
```

### Event 65535.29

#### Metadata

| Field        | Value    |
|--------------|----------|
| Entrypoint   | 0x02F6   |
| Data Size    | 21 bytes |
| Instructions | 2        |

```
      00 01 02 03 04 05 06 07  08 09 0A 0B 0C 0D 0E 0F
      -- -- -- -- -- -- -- --  -- -- -- -- -- -- -- --
02F0:                   B6 0B  43 80 3B 80 44 80 45 80        ..C.;.D.E.
0300: 45 80 45 80 45 80 00 80  00 80 00                 E.E.E......     
```

#### Opcodes

```
  0: 0x02F6 [0xB6] ENTITY_APPEARANCE_HANDLER(case=Full entity look, race=8*, hair=3*, head=125*, body=96*, hands=96*, legs=96*, feet=96*, main=0*, sub=0*)
  1: 0x030A [0x00] END_REQSTACK()
```

### Event 65535.30

#### Metadata

| Field        | Value    |
|--------------|----------|
| Entrypoint   | 0x030B   |
| Data Size    | 21 bytes |
| Instructions | 2        |

```
      00 01 02 03 04 05 06 07  08 09 0A 0B 0C 0D 0E 0F
      -- -- -- -- -- -- -- --  -- -- -- -- -- -- -- --
0300:                                   B6 0B 3B 80 46             ..;.F
0310: 80 47 80 48 80 49 80 4A  80 4A 80 00 80 00 80 00  .G.H.I.J.J......
```

#### Opcodes

```
  0: 0x030B [0xB6] ENTITY_APPEARANCE_HANDLER(case=Full entity look, race=3*, hair=15*, head=56*, body=41*, hands=217*, legs=12*, feet=12*, main=0*, sub=0*)
  1: 0x031F [0x00] END_REQSTACK()
```

### Event 65535.31

#### Metadata

| Field        | Value    |
|--------------|----------|
| Entrypoint   | 0x0320   |
| Data Size    | 21 bytes |
| Instructions | 2        |

```
      00 01 02 03 04 05 06 07  08 09 0A 0B 0C 0D 0E 0F
      -- -- -- -- -- -- -- --  -- -- -- -- -- -- -- --
0320: B6 0B 3B 80 0B 80 47 80  4B 80 4A 80 4A 80 4A 80  ..;...G.K.J.J.J.
0330: 00 80 00 80 00                                    .....           
```

#### Opcodes

```
  0: 0x0320 [0xB6] ENTITY_APPEARANCE_HANDLER(case=Full entity look, race=3*, hair=11*, head=56*, body=221*, hands=12*, legs=12*, feet=12*, main=0*, sub=0*)
  1: 0x0334 [0x00] END_REQSTACK()
```

### Event 65535.32

#### Metadata

| Field        | Value    |
|--------------|----------|
| Entrypoint   | 0x0335   |
| Data Size    | 21 bytes |
| Instructions | 2        |

```
      00 01 02 03 04 05 06 07  08 09 0A 0B 0C 0D 0E 0F
      -- -- -- -- -- -- -- --  -- -- -- -- -- -- -- --
0330:                B6 0B 3B  80 01 80 47 80 4B 80 4A       ..;...G.K.J
0340: 80 4A 80 4A 80 00 80 00  80 00                    .J.J......      
```

#### Opcodes

```
  0: 0x0335 [0xB6] ENTITY_APPEARANCE_HANDLER(case=Full entity look, race=3*, hair=1*, head=56*, body=221*, hands=12*, legs=12*, feet=12*, main=0*, sub=0*)
  1: 0x0349 [0x00] END_REQSTACK()
```

### Event 65535.33

#### Metadata

| Field        | Value    |
|--------------|----------|
| Entrypoint   | 0x034A   |
| Data Size    | 21 bytes |
| Instructions | 2        |

```
      00 01 02 03 04 05 06 07  08 09 0A 0B 0C 0D 0E 0F
      -- -- -- -- -- -- -- --  -- -- -- -- -- -- -- --
0340:                                B6 0B 41 80 30 80            ..A.0.
0350: 00 80 4C 80 4D 80 4D 80  4D 80 00 80 00 80 00     ..L.M.M.M...... 
```

#### Opcodes

```
  0: 0x034A [0xB6] ENTITY_APPEARANCE_HANDLER(case=Full entity look, race=4*, hair=5*, head=0*, body=40*, hands=151*, legs=151*, feet=151*, main=0*, sub=0*)
  1: 0x035E [0x00] END_REQSTACK()
```

### Event 65535.34

#### Metadata

| Field        | Value    |
|--------------|----------|
| Entrypoint   | 0x035F   |
| Data Size    | 21 bytes |
| Instructions | 2        |

```
      00 01 02 03 04 05 06 07  08 09 0A 0B 0C 0D 0E 0F
      -- -- -- -- -- -- -- --  -- -- -- -- -- -- -- --
0350:                                               B6                 .
0360: 0B 41 80 00 80 00 80 4C  80 4D 80 4D 80 4D 80 00  .A.....L.M.M.M..
0370: 80 00 80 00                                       ....            
```

#### Opcodes

```
  0: 0x035F [0xB6] ENTITY_APPEARANCE_HANDLER(case=Full entity look, race=4*, hair=0*, head=0*, body=40*, hands=151*, legs=151*, feet=151*, main=0*, sub=0*)
  1: 0x0373 [0x00] END_REQSTACK()
```

### Event 65535.35

#### Metadata

| Field        | Value    |
|--------------|----------|
| Entrypoint   | 0x0374   |
| Data Size    | 21 bytes |
| Instructions | 2        |

```
      00 01 02 03 04 05 06 07  08 09 0A 0B 0C 0D 0E 0F
      -- -- -- -- -- -- -- --  -- -- -- -- -- -- -- --
0370:             B6 0B 3D 80  4E 80 4F 80 4F 80 4F 80      ..=.N.O.O.O.
0380: 4F 80 4F 80 00 80 00 80  00                       O.O......       
```

#### Opcodes

```
  0: 0x0374 [0xB6] ENTITY_APPEARANCE_HANDLER(case=Full entity look, race=2*, hair=9*, head=211*, body=211*, hands=211*, legs=211*, feet=211*, main=0*, sub=0*)
  1: 0x0388 [0x00] END_REQSTACK()
```

### Event 65535.36

#### Metadata

| Field        | Value    |
|--------------|----------|
| Entrypoint   | 0x0389   |
| Data Size    | 21 bytes |
| Instructions | 2        |

```
      00 01 02 03 04 05 06 07  08 09 0A 0B 0C 0D 0E 0F
      -- -- -- -- -- -- -- --  -- -- -- -- -- -- -- --
0380:                             B6 0B 3D 80 40 80 4F           ..=.@.O
0390: 80 4F 80 4F 80 4F 80 4F  80 00 80 00 80 00        .O.O.O.O......  
```

#### Opcodes

```
  0: 0x0389 [0xB6] ENTITY_APPEARANCE_HANDLER(case=Full entity look, race=2*, hair=6*, head=211*, body=211*, hands=211*, legs=211*, feet=211*, main=0*, sub=0*)
  1: 0x039D [0x00] END_REQSTACK()
```

### Event 65535.37

#### Metadata

| Field        | Value    |
|--------------|----------|
| Entrypoint   | 0x039E   |
| Data Size    | 21 bytes |
| Instructions | 2        |

```
      00 01 02 03 04 05 06 07  08 09 0A 0B 0C 0D 0E 0F
      -- -- -- -- -- -- -- --  -- -- -- -- -- -- -- --
0390:                                            B6 0B                ..
03A0: 3D 80 01 80 4F 80 4F 80  4F 80 4F 80 4F 80 00 80  =...O.O.O.O.O...
03B0: 00 80 00                                          ...             
```

#### Opcodes

```
  0: 0x039E [0xB6] ENTITY_APPEARANCE_HANDLER(case=Full entity look, race=2*, hair=1*, head=211*, body=211*, hands=211*, legs=211*, feet=211*, main=0*, sub=0*)
  1: 0x03B2 [0x00] END_REQSTACK()
```

### Event 65535.38

#### Metadata

| Field        | Value    |
|--------------|----------|
| Entrypoint   | 0x03B3   |
| Data Size    | 21 bytes |
| Instructions | 2        |

```
      00 01 02 03 04 05 06 07  08 09 0A 0B 0C 0D 0E 0F
      -- -- -- -- -- -- -- --  -- -- -- -- -- -- -- --
03B0:          B6 0B 3B 80 4A  80 50 80 51 80 50 80 50     ..;.J.P.Q.P.P
03C0: 80 50 80 00 80 00 80 00                           .P......        
```

#### Opcodes

```
  0: 0x03B3 [0xB6] ENTITY_APPEARANCE_HANDLER(case=Full entity look, race=3*, hair=12*, head=164*, body=69*, hands=164*, legs=164*, feet=164*, main=0*, sub=0*)
  1: 0x03C7 [0x00] END_REQSTACK()
```

### Event 65535.39

#### Metadata

| Field        | Value    |
|--------------|----------|
| Entrypoint   | 0x03C8   |
| Data Size    | 21 bytes |
| Instructions | 2        |

```
      00 01 02 03 04 05 06 07  08 09 0A 0B 0C 0D 0E 0F
      -- -- -- -- -- -- -- --  -- -- -- -- -- -- -- --
03C0:                          B6 0B 41 80 30 80 00 80          ..A.0...
03D0: 52 80 53 80 53 80 53 80  00 80 00 80 00           R.S.S.S......   
```

#### Opcodes

```
  0: 0x03C8 [0xB6] ENTITY_APPEARANCE_HANDLER(case=Full entity look, race=4*, hair=5*, head=0*, body=47*, hands=26*, legs=26*, feet=26*, main=0*, sub=0*)
  1: 0x03DC [0x00] END_REQSTACK()
```

### Event 65535.40

#### Metadata

| Field        | Value    |
|--------------|----------|
| Entrypoint   | 0x03DD   |
| Data Size    | 21 bytes |
| Instructions | 2        |

```
      00 01 02 03 04 05 06 07  08 09 0A 0B 0C 0D 0E 0F
      -- -- -- -- -- -- -- --  -- -- -- -- -- -- -- --
03D0:                                         B6 0B 41               ..A
03E0: 80 3D 80 00 80 49 80 49  80 49 80 49 80 00 80 00  .=...I.I.I.I....
03F0: 80 00                                             ..              
```

#### Opcodes

```
  0: 0x03DD [0xB6] ENTITY_APPEARANCE_HANDLER(case=Full entity look, race=4*, hair=2*, head=0*, body=217*, hands=217*, legs=217*, feet=217*, main=0*, sub=0*)
  1: 0x03F1 [0x00] END_REQSTACK()
```

### Event 65535.41

#### Metadata

| Field        | Value    |
|--------------|----------|
| Entrypoint   | 0x03F2   |
| Data Size    | 21 bytes |
| Instructions | 2        |

```
      00 01 02 03 04 05 06 07  08 09 0A 0B 0C 0D 0E 0F
      -- -- -- -- -- -- -- --  -- -- -- -- -- -- -- --
03F0:       B6 0B 3B 80 31 80  00 80 49 80 49 80 49 80    ..;.1...I.I.I.
0400: 49 80 00 80 00 80 00                              I......         
```

#### Opcodes

```
  0: 0x03F2 [0xB6] ENTITY_APPEARANCE_HANDLER(case=Full entity look, race=3*, hair=14*, head=0*, body=217*, hands=217*, legs=217*, feet=217*, main=0*, sub=0*)
  1: 0x0406 [0x00] END_REQSTACK()
```

### Event 65535.42

#### Metadata

| Field        | Value    |
|--------------|----------|
| Entrypoint   | 0x0407   |
| Data Size    | 21 bytes |
| Instructions | 2        |

```
      00 01 02 03 04 05 06 07  08 09 0A 0B 0C 0D 0E 0F
      -- -- -- -- -- -- -- --  -- -- -- -- -- -- -- --
0400:                      B6  0B 3B 80 41 80 00 80 4A         ..;.A...J
0410: 80 4A 80 4A 80 4A 80 00  80 00 80 00              .J.J.J......    
```

#### Opcodes

```
  0: 0x0407 [0xB6] ENTITY_APPEARANCE_HANDLER(case=Full entity look, race=3*, hair=4*, head=0*, body=12*, hands=12*, legs=12*, feet=12*, main=0*, sub=0*)
  1: 0x041B [0x00] END_REQSTACK()
```

### Event 65535.43

#### Metadata

| Field        | Value    |
|--------------|----------|
| Entrypoint   | 0x041C   |
| Data Size    | 21 bytes |
| Instructions | 2        |

```
      00 01 02 03 04 05 06 07  08 09 0A 0B 0C 0D 0E 0F
      -- -- -- -- -- -- -- --  -- -- -- -- -- -- -- --
0410:                                      B6 0B 3B 80              ..;.
0420: 00 80 00 80 4B 80 49 80  4A 80 4A 80 00 80 00 80  ....K.I.J.J.....
0430: 00                                                .               
```

#### Opcodes

```
  0: 0x041C [0xB6] ENTITY_APPEARANCE_HANDLER(case=Full entity look, race=3*, hair=0*, head=0*, body=221*, hands=217*, legs=12*, feet=12*, main=0*, sub=0*)
  1: 0x0430 [0x00] END_REQSTACK()
```

### Event 65535.44

#### Metadata

| Field        | Value    |
|--------------|----------|
| Entrypoint   | 0x0431   |
| Data Size    | 21 bytes |
| Instructions | 2        |

```
      00 01 02 03 04 05 06 07  08 09 0A 0B 0C 0D 0E 0F
      -- -- -- -- -- -- -- --  -- -- -- -- -- -- -- --
0430:    B6 0B 3B 80 41 80 00  80 54 80 54 80 03 80 03   ..;.A...T.T....
0440: 80 00 80 00 80 00                                 ......          
```

#### Opcodes

```
  0: 0x0431 [0xB6] ENTITY_APPEARANCE_HANDLER(case=Full entity look, race=3*, hair=4*, head=0*, body=114*, hands=114*, legs=13*, feet=13*, main=0*, sub=0*)
  1: 0x0445 [0x00] END_REQSTACK()
```

### Event 65535.45

#### Metadata

| Field        | Value    |
|--------------|----------|
| Entrypoint   | 0x0446   |
| Data Size    | 21 bytes |
| Instructions | 2        |

```
      00 01 02 03 04 05 06 07  08 09 0A 0B 0C 0D 0E 0F
      -- -- -- -- -- -- -- --  -- -- -- -- -- -- -- --
0440:                   B6 0B  3B 80 3D 80 00 80 55 80        ..;.=...U.
0450: 55 80 55 80 55 80 00 80  00 80 00                 U.U.U......     
```

#### Opcodes

```
  0: 0x0446 [0xB6] ENTITY_APPEARANCE_HANDLER(case=Full entity look, race=3*, hair=2*, head=0*, body=58*, hands=58*, legs=58*, feet=58*, main=0*, sub=0*)
  1: 0x045A [0x00] END_REQSTACK()
```

### Event 65535.46

#### Metadata

| Field        | Value    |
|--------------|----------|
| Entrypoint   | 0x045B   |
| Data Size    | 21 bytes |
| Instructions | 2        |

```
      00 01 02 03 04 05 06 07  08 09 0A 0B 0C 0D 0E 0F
      -- -- -- -- -- -- -- --  -- -- -- -- -- -- -- --
0450:                                   B6 0B 01 80 3D             ....=
0460: 80 56 80 56 80 56 80 56  80 56 80 00 80 00 80 00  .V.V.V.V.V......
```

#### Opcodes

```
  0: 0x045B [0xB6] ENTITY_APPEARANCE_HANDLER(case=Full entity look, race=1*, hair=2*, head=210*, body=210*, hands=210*, legs=210*, feet=210*, main=0*, sub=0*)
  1: 0x046F [0x00] END_REQSTACK()
```

### Event 65535.47

#### Metadata

| Field        | Value    |
|--------------|----------|
| Entrypoint   | 0x0470   |
| Data Size    | 21 bytes |
| Instructions | 2        |

```
      00 01 02 03 04 05 06 07  08 09 0A 0B 0C 0D 0E 0F
      -- -- -- -- -- -- -- --  -- -- -- -- -- -- -- --
0470: B6 0B 3B 80 00 80 00 80  4B 80 4A 80 4B 80 03 80  ..;.....K.J.K...
0480: 00 80 00 80 00                                    .....           
```

#### Opcodes

```
  0: 0x0470 [0xB6] ENTITY_APPEARANCE_HANDLER(case=Full entity look, race=3*, hair=0*, head=0*, body=221*, hands=12*, legs=221*, feet=13*, main=0*, sub=0*)
  1: 0x0484 [0x00] END_REQSTACK()
```

### Event 65535.48

#### Metadata

| Field        | Value    |
|--------------|----------|
| Entrypoint   | 0x0485   |
| Data Size    | 21 bytes |
| Instructions | 2        |

```
      00 01 02 03 04 05 06 07  08 09 0A 0B 0C 0D 0E 0F
      -- -- -- -- -- -- -- --  -- -- -- -- -- -- -- --
0480:                B6 0B 3B  80 3D 80 00 80 03 80 4B       ..;.=.....K
0490: 80 03 80 4B 80 00 80 00  80 00                    ...K......      
```

#### Opcodes

```
  0: 0x0485 [0xB6] ENTITY_APPEARANCE_HANDLER(case=Full entity look, race=3*, hair=2*, head=0*, body=13*, hands=221*, legs=13*, feet=221*, main=0*, sub=0*)
  1: 0x0499 [0x00] END_REQSTACK()
```

### Event 65535.49

#### Metadata

| Field        | Value    |
|--------------|----------|
| Entrypoint   | 0x049A   |
| Data Size    | 21 bytes |
| Instructions | 2        |

```
      00 01 02 03 04 05 06 07  08 09 0A 0B 0C 0D 0E 0F
      -- -- -- -- -- -- -- --  -- -- -- -- -- -- -- --
0490:                                B6 0B 3B 80 40 80            ..;.@.
04A0: 00 80 4A 80 4A 80 4A 80  56 80 00 80 00 80 00     ..J.J.J.V...... 
```

#### Opcodes

```
  0: 0x049A [0xB6] ENTITY_APPEARANCE_HANDLER(case=Full entity look, race=3*, hair=6*, head=0*, body=12*, hands=12*, legs=12*, feet=210*, main=0*, sub=0*)
  1: 0x04AE [0x00] END_REQSTACK()
```

### Event 65535.50

#### Metadata

| Field        | Value    |
|--------------|----------|
| Entrypoint   | 0x04AF   |
| Data Size    | 21 bytes |
| Instructions | 2        |

```
      00 01 02 03 04 05 06 07  08 09 0A 0B 0C 0D 0E 0F
      -- -- -- -- -- -- -- --  -- -- -- -- -- -- -- --
04A0:                                               B6                 .
04B0: 0B 3B 80 4A 80 00 80 4A  80 4A 80 4A 80 57 80 00  .;.J...J.J.J.W..
04C0: 80 00 80 00                                       ....            
```

#### Opcodes

```
  0: 0x04AF [0xB6] ENTITY_APPEARANCE_HANDLER(case=Full entity look, race=3*, hair=12*, head=0*, body=12*, hands=12*, legs=12*, feet=251*, main=0*, sub=0*)
  1: 0x04C3 [0x00] END_REQSTACK()
```

### Event 65535.51

#### Metadata

| Field        | Value    |
|--------------|----------|
| Entrypoint   | 0x04C4   |
| Data Size    | 21 bytes |
| Instructions | 2        |

```
      00 01 02 03 04 05 06 07  08 09 0A 0B 0C 0D 0E 0F
      -- -- -- -- -- -- -- --  -- -- -- -- -- -- -- --
04C0:             B6 0B 3B 80  31 80 00 80 58 80 49 80      ..;.1...X.I.
04D0: 49 80 49 80 00 80 00 80  00                       I.I......       
```

#### Opcodes

```
  0: 0x04C4 [0xB6] ENTITY_APPEARANCE_HANDLER(case=Full entity look, race=3*, hair=14*, head=0*, body=76*, hands=217*, legs=217*, feet=217*, main=0*, sub=0*)
  1: 0x04D8 [0x00] END_REQSTACK()
```

### Event 65535.52

#### Metadata

| Field        | Value    |
|--------------|----------|
| Entrypoint   | 0x04D9   |
| Data Size    | 21 bytes |
| Instructions | 2        |

```
      00 01 02 03 04 05 06 07  08 09 0A 0B 0C 0D 0E 0F
      -- -- -- -- -- -- -- --  -- -- -- -- -- -- -- --
04D0:                             B6 0B 3B 80 4E 80 00           ..;.N..
04E0: 80 4A 80 4A 80 4A 80 57  80 00 80 00 80 00        .J.J.J.W......  
```

#### Opcodes

```
  0: 0x04D9 [0xB6] ENTITY_APPEARANCE_HANDLER(case=Full entity look, race=3*, hair=9*, head=0*, body=12*, hands=12*, legs=12*, feet=251*, main=0*, sub=0*)
  1: 0x04ED [0x00] END_REQSTACK()
```

### Event 65535.53

#### Metadata

| Field        | Value    |
|--------------|----------|
| Entrypoint   | 0x04EE   |
| Data Size    | 21 bytes |
| Instructions | 2        |

```
      00 01 02 03 04 05 06 07  08 09 0A 0B 0C 0D 0E 0F
      -- -- -- -- -- -- -- --  -- -- -- -- -- -- -- --
04E0:                                            B6 0B                ..
04F0: 3B 80 3D 80 00 80 0B 80  53 80 53 80 53 80 00 80  ;.=.....S.S.S...
0500: 00 80 00                                          ...             
```

#### Opcodes

```
  0: 0x04EE [0xB6] ENTITY_APPEARANCE_HANDLER(case=Full entity look, race=3*, hair=2*, head=0*, body=11*, hands=26*, legs=26*, feet=26*, main=0*, sub=0*)
  1: 0x0502 [0x00] END_REQSTACK()
```

### Event 65535.54

#### Metadata

| Field        | Value    |
|--------------|----------|
| Entrypoint   | 0x0503   |
| Data Size    | 21 bytes |
| Instructions | 2        |

```
      00 01 02 03 04 05 06 07  08 09 0A 0B 0C 0D 0E 0F
      -- -- -- -- -- -- -- --  -- -- -- -- -- -- -- --
0500:          B6 0B 41 80 03  80 00 80 4B 80 4A 80 4A     ..A.....K.J.J
0510: 80 4A 80 57 80 00 80 00                           .J.W....        
```

#### Opcodes

```
  0: 0x0503 [0xB6] ENTITY_APPEARANCE_HANDLER(case=Full entity look, race=4*, hair=13*, head=0*, body=221*, hands=12*, legs=12*, feet=12*, main=251*, sub=0*)
  1: 0x0517 [0x00] END_REQSTACK()
```

### Event 65535.55

#### Metadata

| Field        | Value   |
|--------------|---------|
| Entrypoint   | 0x0518  |
| Data Size    | 3 bytes |
| Instructions | 2       |

```
      00 01 02 03 04 05 06 07  08 09 0A 0B 0C 0D 0E 0F
      -- -- -- -- -- -- -- --  -- -- -- -- -- -- -- --
0510:                          A5 01 00                         ...     
```

#### Opcodes

```
  0: 0x0518 [0xA5] EventEntity->Flags3.BallistaTeam |= 0x08  // Set bit 3 of BallistaTeam
  1: 0x051A [0x00] END_REQSTACK()
```

### Event 65535.56

#### Metadata

| Field        | Value   |
|--------------|---------|
| Entrypoint   | 0x051B  |
| Data Size    | 3 bytes |
| Instructions | 2       |

```
      00 01 02 03 04 05 06 07  08 09 0A 0B 0C 0D 0E 0F
      -- -- -- -- -- -- -- --  -- -- -- -- -- -- -- --
0510:                                   A5 00 00                   ...  
```

#### Opcodes

```
  0: 0x051B [0xA5] EventEntity->Flags3.BallistaTeam &= ~0x08  // Clear bit 3 of BallistaTeam
  1: 0x051D [0x00] END_REQSTACK()
```

### Event 65535.57

#### Metadata

| Field        | Value    |
|--------------|----------|
| Entrypoint   | 0x051E   |
| Data Size    | 26 bytes |
| Instructions | 3        |

```
      00 01 02 03 04 05 06 07  08 09 0A 0B 0C 0D 0E 0F
      -- -- -- -- -- -- -- --  -- -- -- -- -- -- -- --
0510:                                            B6 0B                ..
0520: 30 80 30 80 3F 80 3F 80  3F 80 3F 80 3F 80 00 80  0.0.?.?.?.?.?...
0530: 00 80 80 F8 FF FF 7F 00                           ........        
```

#### Opcodes

```
  0: 0x051E [0xB6] ENTITY_APPEARANCE_HANDLER(case=Full entity look, race=5*, hair=5*, head=24*, body=24*, hands=24*, legs=24*, feet=24*, main=0*, sub=0*)
  1: 0x0532 [0x80] LOAD_WAIT(entity=EventEntity)
  2: 0x0537 [0x00] END_REQSTACK()
```
