# 17105703

## Common Data

| Field            | Value                            |
|------------------|----------------------------------|
| Zone             | Southern San d'Oria [S] (ID: 80) |
| Block Size       | 5396 bytes                       |
| Total Events     | 4                                |
| References Count | 125                              |

## List of Events

| Event ID              | Entrypoint   |   Size |   Instructions |
|-----------------------|--------------|--------|----------------|
| [65535](#event-65535) | 0x0000       |      1 |              1 |
| [185](#event-185)     | 0x0001       |     39 |              8 |
| [183](#event-183)     | 0x0028       |   4159 |            494 |
| [184](#event-184)     | 0x1067       |    663 |             65 |

## DAT References (imed_data)

|   Index | Hex Value   |   Dec Value |
|---------|-------------|-------------|
|       0 | 0x00C8      |         200 |
|       1 | 0x0000      |           0 |
|       2 | 0x0002      |           2 |
|       3 | 0x1B88      |        7048 |
|       4 | 0x0001      |           1 |
|       5 | 0x001B      |          27 |
|       6 | 0x0005      |           5 |
|       7 | 0x0006      |           6 |
|       8 | 0x0007      |           7 |
|       9 | 0x0008      |           8 |
|      10 | 0x23949     |      145737 |
|      11 | 0x1BBFD     |      113661 |
|      12 | 0xFFFFF830  |  4294965296 |
|      13 | 0x0619      |        1561 |
|      14 | 0x224A8     |      140456 |
|      15 | 0x1A824     |      108580 |
|      16 | 0xFFFFF769  |  4294965097 |
|      17 | 0x0658      |        1624 |
|      18 | 0x21893     |      137363 |
|      19 | 0x19C55     |      105557 |
|      20 | 0x0E09      |        3593 |
|      21 | 0x224C1     |      140481 |
|      22 | 0x19E66     |      106086 |
|      23 | 0xFFFFF381  |  4294964097 |
|      24 | 0x0E1A      |        3610 |
|      25 | 0x0003      |           3 |
|      26 | 0x218F7     |      137463 |
|      27 | 0x19BF1     |      105457 |
|      28 | 0xFFFFF2B9  |  4294963897 |
|      29 | 0x0004      |           4 |
|      30 | 0x218B8     |      137400 |
|      31 | 0xFFFFF63D  |  4294964797 |
|      32 | 0x19C1C     |      105500 |
|      33 | 0xFFFFF3B2  |  4294964146 |
|      34 | 0x001E      |          30 |
|      35 | 0x0F26      |        3878 |
|      36 | 0x02FD      |         765 |
|      37 | 0x000F      |          15 |
|      38 | 0x0078      |         120 |
|      39 | 0x3D7A      |       15738 |
|      40 | 0x3D7B      |       15739 |
|      41 | 0x005A      |          90 |
|      42 | 0x0857      |        2135 |
|      43 | 0x0854      |        2132 |
|      44 | 0x000A      |          10 |
|      45 | 0x3D7C      |       15740 |
|      46 | 0x0050      |          80 |
|      47 | 0x3D85      |       15749 |
|      48 | 0x3D86      |       15750 |
|      49 | 0x3D87      |       15751 |
|      50 | 0x3D88      |       15752 |
|      51 | 0x3D89      |       15753 |
|      52 | 0x00B4      |         180 |
|      53 | 0x00D5      |         213 |
|      54 | 0x00FF      |         255 |
|      55 | 0x2214A     |      139594 |
|      56 | 0x1A2BE     |      107198 |
|      57 | 0xFFFE8CE8  |  4294872296 |
|      58 | 0x004F      |          79 |
|      59 | 0x0024      |          36 |
|      60 | 0x3D8A      |       15754 |
|      61 | 0x01E0      |         480 |
|      62 | 0x3D8B      |       15755 |
|      63 | 0x012C      |         300 |
|      64 | 0xFFFFFF52  |  4294967122 |
|      65 | 0x003C      |          60 |
|      66 | 0x03E8      |        1000 |
|      67 | 0x0514      |        1300 |
|      68 | 0x0096      |         150 |
|      69 | 0x3D8C      |       15756 |
|      70 | 0x0855      |        2133 |
|      71 | 0x3D8D      |       15757 |
|      72 | 0x0028      |          40 |
|      73 | 0x0856      |        2134 |
|      74 | 0x3D8E      |       15758 |
|      75 | 0x3D8F      |       15759 |
|      76 | 0x085B      |        2139 |
|      77 | 0x3D90      |       15760 |
|      78 | 0x00A0      |         160 |
|      79 | 0x0850      |        2128 |
|      80 | 0x3D91      |       15761 |
|      81 | 0x0046      |          70 |
|      82 | 0x3D92      |       15762 |
|      83 | 0x3D93      |       15763 |
|      84 | 0x3D94      |       15764 |
|      85 | 0x3D98      |       15768 |
|      86 | 0x3D99      |       15769 |
|      87 | 0x3D9A      |       15770 |
|      88 | 0x3D9E      |       15774 |
|      89 | 0x3D9F      |       15775 |
|      90 | 0x3DA0      |       15776 |
|      91 | 0x0067      |         103 |
|      92 | 0x3DA4      |       15780 |
|      93 | 0x0F3A      |        3898 |
|      94 | 0x0075      |         117 |
|      95 | 0x00C9      |         201 |
|      96 | 0x008C      |         140 |
|      97 | 0x3DA5      |       15781 |
|      98 | 0x3DA6      |       15782 |
|      99 | 0x3DA7      |       15783 |
|     100 | 0x00FA      |         250 |
|     101 | 0x0033      |          51 |
|     102 | 0x3DAA      |       15786 |
|     103 | 0x3DAB      |       15787 |
|     104 | 0x3DAC      |       15788 |
|     105 | 0x3DAD      |       15789 |
|     106 | 0x3DAE      |       15790 |
|     107 | 0x2247F     |      140415 |
|     108 | 0x19FD1     |      106449 |
|     109 | 0xFFFFF448  |  4294964296 |
|     110 | 0x0F93      |        3987 |
|     111 | 0x3DAF      |       15791 |
|     112 | 0x3DB0      |       15792 |
|     113 | 0x3DB1      |       15793 |
|     114 | 0x3DB4      |       15796 |
|     115 | 0x3DB2      |       15794 |
|     116 | 0x3DB3      |       15795 |
|     117 | 0x3DB6      |       15798 |
|     118 | 0x3DB7      |       15799 |
|     119 | 0x3DB8      |       15800 |
|     120 | 0x3DB9      |       15801 |
|     121 | 0x3DBA      |       15802 |
|     122 | 0x00FE      |         254 |
|     123 | 0x002D      |          45 |
|     124 | 0x00D7      |         215 |

## String References

- **7048**: You are unable to make further progress in Rhapsodies of Vana'diel due to an event occurring in the [Chains of Promathia/Treasures of Aht Urhgan/Wings of the Goddess/Seekers of Adoulin/Rise of the Zilart] missions.
- **15749**: Have you had odd dreams? [Not dreams, but visions.../Not really.]
- **15762**: How do you respond? [I'll think of something./I need your help./...]

## Events

### Event 65535

#### Metadata

| Field        | Value   |
|--------------|---------|
| Entrypoint   | 0x0000  |
| Data Size    | 1 bytes |
| Instructions | 1       |

```
      00 01 02 03 04 05 06 07  08 09 0A 0B 0C 0D 0E 0F
      -- -- -- -- -- -- -- --  -- -- -- -- -- -- -- --
0000: 00                                                .               
```

#### Opcodes

```
  0: 0x0000 [0x00] END_REQSTACK()
```

### Event 185

#### Metadata

| Field        | Value    |
|--------------|----------|
| Entrypoint   | 0x0001   |
| Data Size    | 39 bytes |
| Instructions | 8        |

```
      00 01 02 03 04 05 06 07  08 09 0A 0B 0C 0D 0E 0F
      -- -- -- -- -- -- -- --  -- -- -- -- -- -- -- --
0000:    42 4E 00 F0 FF FF 7F  80 F0 FF FF 7F 45 00 80   BN..........E..
0010: F8 FF FF 7F F8 FF FF 7F  66 64 69 31 01 80 03 03  ........fdi1....
0020: 10 02 80 48 03 80 21 00                           ...H..!.        
```

#### Opcodes

```
  0: 0x0001 [0x42] SET_CLI_EVENT_CANCEL_DATA()
  1: 0x0002 [0x4E] SET_ENTITY_HIDE_FLAG: Show LocalPlayer
  2: 0x0008 [0x80] LOAD_WAIT(entity=LocalPlayer)
  3: 0x000D [0x45] LOAD_SCHEDULED_TASK: Load scheduler "fdi1" with entities [EventEntity, EventEntity], work=[200*, 0*]
  4: 0x001E [0x03] Work_Zone[3] = 2*
  5: 0x0023 [0x48] [System] [7048*]:
    → "You are unable to make further progress in Rhapsodies of Vana'diel due to an event occurring in the [Chains of Promathia/Treasures of Aht Urhgan/Wings of the Goddess/Seekers of Adoulin/Rise of the Zilart] missions."
  6: 0x0026 [0x21] END_EVENT
  7: 0x0027 [0x00] END_REQSTACK()
```

### Event 183

#### Metadata

| Field        | Value      |
|--------------|------------|
| Entrypoint   | 0x0028     |
| Data Size    | 4159 bytes |
| Instructions | 494        |

```
      00 01 02 03 04 05 06 07  08 09 0A 0B 0C 0D 0E 0F
      -- -- -- -- -- -- -- --  -- -- -- -- -- -- -- --
0020:                          42 03 01 10 04 80 43 00          B.....C.
0030: 43 01 1A 37 00 21 00 03  00 00 02 10 03 02 00 03  C..7.!..........
0040: 10 03 01 00 04 10 45 00  80 F8 FF FF 7F F8 FF FF  ......E.........
0050: 7F 66 64 6F 31 01 80 55  00 80 F8 FF FF 7F F8 FF  .fdo1..U........
0060: FF 7F 66 64 6F 31 46 01  38 05 80 2F 00 83 02 05  ..fdo1F.8../....
0070: 01 2F 00 87 02 05 01 2F  00 28 03 05 01 2F 00 29  ./...../.(.../.)
0080: 03 05 01 4E 00 28 03 05  01 4E 00 29 03 05 01 4E  ...N.(...N.)...N
0090: 00 83 02 05 01 4E 00 F0  FF FF 7F 4E 00 87 02 05  .....N.....N....
00A0: 01 92 01 83 02 05 01 92  01 87 02 05 01 94 01 83  ................
00B0: 02 05 01 94 01 F0 FF FF  7F 94 01 29 03 05 01 94  ...........)....
00C0: 01 28 03 05 01 94 01 87  02 05 01 02 87 7F 06 80  .(..............
00D0: 80 DD 00 27 05 F0 FF FF  7F A4 01 1A 01 02 87 7F  ...'............
00E0: 07 80 80 EF 00 27 05 F0  FF FF 7F A4 01 1A 01 02  .....'..........
00F0: 87 7F 08 80 80 01 01 27  05 F0 FF FF 7F A5 01 1A  .......'........
0100: 01 02 87 7F 09 80 80 13  01 27 05 F0 FF FF 7F A6  .........'......
0110: 01 1A 01 27 05 F0 FF FF  7F A7 59 05 29 03 05 01  ...'......Y.)...
0120: 01 59 05 87 02 05 01 01  02 01 00 04 80 00 37 01  .Y............7.
0130: 27 05 87 02 05 01 29 BA  83 02 05 01 0A 80 0B 80  '.....).........
0140: 0C 80 0D 80 BA F0 FF FF  7F 0E 80 0F 80 10 80 11  ................
0150: 80 BA 28 03 05 01 12 80  13 80 10 80 14 80 BA 87  ..(.............
0160: 02 05 01 15 80 16 80 17  80 18 80 02 87 7F 19 80  ................
0170: 80 83 01 BA 29 03 05 01  1A 80 1B 80 1C 80 14 80  ....)...........
0180: 01 08 02 02 87 7F 1D 80  80 9B 01 BA 29 03 05 01  ............)...
0190: 1A 80 1B 80 1C 80 14 80  01 08 02 02 87 7F 06 80  ................
01A0: 80 B3 01 BA 29 03 05 01  1E 80 1B 80 1F 80 14 80  ....)...........
01B0: 01 08 02 02 87 7F 07 80  80 CB 01 BA 29 03 05 01  ............)...
01C0: 1E 80 1B 80 1F 80 14 80  01 08 02 02 87 7F 08 80  ................
01D0: 80 E3 01 BA 29 03 05 01  1A 80 20 80 21 80 14 80  ....)..... .!...
01E0: 01 08 02 02 87 7F 09 80  80 FB 01 BA 29 03 05 01  ............)...
01F0: 1A 80 1B 80 1C 80 14 80  01 08 02 BA 29 03 05 01  ............)...
0200: 1A 80 1B 80 17 80 14 80  80 F0 FF FF 7F 80 83 02  ................
0210: 05 01 80 28 03 05 01 1C  22 80 02 87 7F 04 80 80  ...(....".......
0220: 35 02 5F 03 23 80 28 03  05 01 28 03 05 01 68 6D  5._.#.(...(...hm
0230: 6D 6C 01 F2 02 02 87 7F  02 80 80 50 02 5F 03 23  ml.........P._.#
0240: 80 28 03 05 01 28 03 05  01 68 66 6D 6C 01 F2 02  .(...(...hfml...
0250: 02 87 7F 19 80 80 6B 02  5F 03 23 80 28 03 05 01  ......k._.#.(...
0260: 28 03 05 01 65 6D 6D 6C  01 F2 02 02 87 7F 1D 80  (...emml........
0270: 80 86 02 5F 03 23 80 28  03 05 01 28 03 05 01 65  ..._.#.(...(...e
0280: 66 6D 6C 01 F2 02 02 87  7F 06 80 80 A1 02 5F 03  fml..........._.
0290: 23 80 28 03 05 01 28 03  05 01 74 6D 61 6C 01 F2  #.(...(...tmal..
02A0: 02 02 87 7F 07 80 80 BC  02 5F 03 23 80 28 03 05  ........._.#.(..
02B0: 01 28 03 05 01 74 6D 61  6C 01 F2 02 02 87 7F 08  .(...tmal.......
02C0: 80 80 D7 02 5F 03 23 80  28 03 05 01 28 03 05 01  ...._.#.(...(...
02D0: 6D 6D 61 6C 01 F2 02 02  87 7F 09 80 80 F2 02 5F  mmal..........._
02E0: 03 23 80 28 03 05 01 28  03 05 01 67 6D 61 6C 01  .#.(...(...gmal.
02F0: F2 02 27 05 F0 FF FF 7F  AA 1C 22 80 45 24 80 F8  ..'.......".E$..
0300: FF FF 7F F8 FF FF 7F 73  30 30 30 01 80 1C 25 80  .......s000...%.
0310: 45 00 80 F8 FF FF 7F F8  FF FF 7F 66 64 69 31 01  E..........fdi1.
0320: 80 1C 26 80 27 05 83 02  05 01 41 1C 22 80 52 24  ..&.'.....A.".R$
0330: 80 F8 FF FF 7F F8 FF FF  7F 73 30 30 30 45 24 80  .........s000E$.
0340: F8 FF FF 7F F8 FF FF 7F  73 30 30 31 01 80 2B 83  ........s001..+.
0350: 02 05 01 27 80 1C 22 80  4A F0 FF FF 7F 83 02 05  ...'..".J.......
0360: 01 1C 22 80 02 00 00 01  80 00 74 03 03 04 10 01  ..".......t.....
0370: 80 01 79 03 03 04 10 04  80 2B 83 02 05 01 28 80  ..y......+....(.
0380: 23 2A 05 83 02 05 01 6E  F0 FF FF 7F 07 80 99 F0  #*.....n........
0390: FF FF 7F 1C 29 80 81 00  83 02 05 01 7C 00 83 02  ....).......|...
03A0: 05 01 5B 2A 80 83 02 05  01 83 02 05 01 66 6D 30  ..[*.........fm0
03B0: 31 5B 2B 80 83 02 05 01  83 02 05 01 74 6C 65 30  1[+.........tle0
03C0: 1C 2C 80 52 24 80 F8 FF  FF 7F F8 FF FF 7F 73 30  .,.R$.........s0
03D0: 30 31 45 24 80 F8 FF FF  7F F8 FF FF 7F 73 30 30  01E$.........s00
03E0: 32 01 80 2B 83 02 05 01  2D 80 1C 2E 80 23 5B 2A  2..+....-....#[*
03F0: 80 83 02 05 01 83 02 05  01 66 62 30 30 52 24 80  .........fb00R$.
0400: F8 FF FF 7F F8 FF FF 7F  73 30 30 32 45 24 80 F8  ........s002E$..
0410: FF FF 7F F8 FF FF 7F 73  30 30 33 01 80 24 2F 80  .......s003..$/.
0420: 01 80 01 80 25 02 00 10  01 80 00 81 04 5B 2A 80  ....%........[*.
0430: 83 02 05 01 83 02 05 01  66 6D 30 31 5B 2B 80 83  ........fm01[+..
0440: 02 05 01 83 02 05 01 74  6C 65 31 1C 06 80 52 24  .......tle1...R$
0450: 80 F8 FF FF 7F F8 FF FF  7F 73 30 30 33 45 24 80  .........s003E$.
0460: F8 FF FF 7F F8 FF FF 7F  73 30 30 34 01 80 2B 83  ........s004..+.
0470: 02 05 01 30 80 23 2B 83  02 05 01 31 80 23 01 DD  ...0.#+....1.#..
0480: 04 02 00 10 04 80 00 DD  04 5B 2A 80 83 02 05 01  .........[*.....
0490: 83 02 05 01 66 6D 30 31  5B 2B 80 83 02 05 01 83  ....fm01[+......
04A0: 02 05 01 74 6C 65 31 1C  06 80 52 24 80 F8 FF FF  ...tle1...R$....
04B0: 7F F8 FF FF 7F 73 30 30  33 45 24 80 F8 FF FF 7F  .....s003E$.....
04C0: F8 FF FF 7F 73 30 30 34  01 80 2B 83 02 05 01 32  ....s004..+....2
04D0: 80 23 2B 83 02 05 01 33  80 23 01 DD 04 5D 01 80  .#+....3.#...]..
04E0: 34 80 45 00 80 F8 FF FF  7F F8 FF FF 7F 66 64 6F  4.E..........fdo
04F0: 31 01 80 55 00 80 F8 FF  FF 7F F8 FF FF 7F 66 64  1..U..........fd
0500: 6F 31 52 24 80 F8 FF FF  7F F8 FF FF 7F 73 30 30  o1R$.........s00
0510: 34 C5 35 80 83 02 05 01  83 02 05 01 73 30 30 30  4.5.........s000
0520: 01 80 77 01 80 36 80 D3  00 83 02 05 01 59 05 83  ..w..6.......Y..
0530: 02 05 01 01 BA 83 02 05  01 37 80 38 80 39 80 14  .........7.8.9..
0540: 80 80 83 02 05 01 1C 22  80 5C 00 3A 80 5C 01 3A  .......".\.:.\.:
0550: 80 9A CD 3B 80 83 02 05  01 83 02 05 01 73 30 30  ...;.........s00
0560: 30 01 80 45 24 80 F8 FF  FF 7F F8 FF FF 7F 73 30  0..E$.........s0
0570: 30 35 01 80 1C 25 80 45  00 80 F8 FF FF 7F F8 FF  05...%.E........
0580: FF 7F 66 64 69 31 01 80  2B 83 02 05 01 3C 80 1C  ..fdi1..+....<..
0590: 3D 80 23 52 24 80 F8 FF  FF 7F F8 FF FF 7F 73 30  =.#R$.........s0
05A0: 30 35 45 24 80 F8 FF FF  7F F8 FF FF 7F 73 30 33  05E$.........s03
05B0: 33 01 80 2B 83 02 05 01  3E 80 1C 3F 80 23 55 24  3..+....>..?.#U$
05C0: 80 F8 FF FF 7F F8 FF FF  7F 73 30 33 33 45 00 80  .........s033E..
05D0: F8 FF FF 7F F8 FF FF 7F  66 64 6F 31 01 80 55 00  ........fdo1..U.
05E0: 80 F8 FF FF 7F F8 FF FF  7F 66 64 6F 31 C9 C5 35  .........fdo1..5
05F0: 80 83 02 05 01 83 02 05  01 6B 69 6C 30 01 80 6B  .........kil0..k
0600: 69 64 6C 30 83 02 05 01  27 05 83 02 05 01 42 81  idl0....'.....B.
0610: 01 83 02 05 01 7C 01 83  02 05 01 BA 83 02 05 01  .....|..........
0620: 37 80 38 80 10 80 14 80  80 83 02 05 01 4A 83 02  7.8..........J..
0630: 05 01 F0 FF FF 7F 7B 83  02 05 01 1A 77 12 89 40  ......{.....w..@
0640: 80 1C 41 80 B4 14 42 80  42 80 43 80 01 80 04 80  ..A...B.B.C.....
0650: 1C 22 80 B4 14 42 80 42  80 42 80 3F 80 04 80 03  ."...B.B.B.?....
0660: 02 10 44 80 27 10 46 02  05 01 01 1A 65 12 2B 83  ..D.'.F.....e.+.
0670: 02 05 01 45 80 23 2A 10  46 02 05 01 1A 77 12 8A  ...E.#*.F....w..
0680: B4 15 1A 65 12 45 24 80  F8 FF FF 7F F8 FF FF 7F  ...e.E$.........
0690: 73 30 30 36 01 80 1C 25  80 45 00 80 F8 FF FF 7F  s006...%.E......
06A0: F8 FF FF 7F 66 64 69 31  01 80 5B 46 80 83 02 05  ....fdi1..[F....
06B0: 01 83 02 05 01 74 68 62  30 2B 83 02 05 01 47 80  .....thb0+....G.
06C0: 23 6E F0 FF FF 7F 08 80  99 F0 FF FF 7F 1C 29 80  #n............).
06D0: 27 05 F0 FF FF 7F 1D 1C  2E 80 45 00 80 F8 FF FF  '.........E.....
06E0: 7F F8 FF FF 7F 66 64 6F  31 01 80 55 00 80 F8 FF  .....fdo1..U....
06F0: FF 7F F8 FF FF 7F 66 64  6F 31 52 24 80 F8 FF FF  ......fdo1R$....
0700: 7F F8 FF FF 7F 73 30 30  36 6B 69 64 6C 30 83 02  .....s006kidl0..
0710: 05 01 27 05 F0 FF FF 7F  1E 1C 48 80 81 00 83 02  ..'.......H.....
0720: 05 01 7C 00 83 02 05 01  5B 49 80 83 02 05 01 83  ..|.....[I......
0730: 02 05 01 6F 64 6F 30 45  24 80 F8 FF FF 7F F8 FF  ...odo0E$.......
0740: FF 7F 73 30 30 37 01 80  1C 04 80 45 00 80 F8 FF  ..s007.....E....
0750: FF 7F F8 FF FF 7F 66 64  69 31 01 80 2B 83 02 05  ......fdi1..+...
0760: 01 4A 80 23 55 24 80 F8  FF FF 7F F8 FF FF 7F 73  .J.#U$.........s
0770: 30 30 37 45 24 80 F8 FF  FF 7F F8 FF FF 7F 73 30  007E$.........s0
0780: 30 38 01 80 81 01 83 02  05 01 7C 01 83 02 05 01  08........|.....
0790: 2B 83 02 05 01 4B 80 23  5B 4C 80 83 02 05 01 83  +....K.#[L......
07A0: 02 05 01 6E 6F 30 30 2B  83 02 05 01 4D 80 1C 4E  ...no00+....M..N
07B0: 80 23 5B 4F 80 83 02 05  01 83 02 05 01 68 64 62  .#[O.........hdb
07C0: 30 2B 83 02 05 01 50 80  1C 51 80 23 5B 4F 80 83  0+....P..Q.#[O..
07D0: 02 05 01 83 02 05 01 68  64 62 31 1C 41 80 52 24  .......hdb1.A.R$
07E0: 80 F8 FF FF 7F F8 FF FF  7F 73 30 30 38 45 24 80  .........s008E$.
07F0: F8 FF FF 7F F8 FF FF 7F  73 30 30 39 01 80 24 52  ........s009..$R
0800: 80 01 80 01 80 25 02 00  10 01 80 00 79 08 5B 46  .....%......y.[F
0810: 80 83 02 05 01 83 02 05  01 74 6C 62 30 1C 25 80  .........tlb0.%.
0820: 52 24 80 F8 FF FF 7F F8  FF FF 7F 73 30 30 39 45  R$.........s009E
0830: 24 80 F8 FF FF 7F F8 FF  FF 7F 73 30 31 30 01 80  $.........s010..
0840: 2B 83 02 05 01 53 80 23  2B 83 02 05 01 54 80 23  +....S.#+....T.#
0850: 2B 83 02 05 01 55 80 23  5B 46 80 83 02 05 01 83  +....U.#[F......
0860: 02 05 01 74 6C 62 31 52  24 80 F8 FF FF 7F F8 FF  ...tlb1R$.......
0870: FF 7F 73 30 31 30 01 B0  09 02 00 10 04 80 00 0B  ..s010..........
0880: 09 81 00 83 02 05 01 7C  00 83 02 05 01 5B 2A 80  .......|.....[*.
0890: 83 02 05 01 83 02 05 01  66 6D 30 31 5B 49 80 83  ........fm01[I..
08A0: 02 05 01 83 02 05 01 74  68 61 30 52 24 80 F8 FF  .......tha0R$...
08B0: FF 7F F8 FF FF 7F 73 30  30 39 45 24 80 F8 FF FF  ......s009E$....
08C0: 7F F8 FF FF 7F 73 30 31  31 01 80 2B 83 02 05 01  .....s011..+....
08D0: 56 80 23 2B 83 02 05 01  57 80 23 5B 2A 80 83 02  V.#+....W.#[*...
08E0: 05 01 83 02 05 01 66 6D  30 30 5B 49 80 83 02 05  ......fm00[I....
08F0: 01 83 02 05 01 74 68 61  31 52 24 80 F8 FF FF 7F  .....tha1R$.....
0900: F8 FF FF 7F 73 30 31 31  01 B0 09 02 00 10 02 80  ....s011........
0910: 00 B0 09 52 24 80 F8 FF  FF 7F F8 FF FF 7F 73 30  ...R$.........s0
0920: 30 39 45 24 80 F8 FF FF  7F F8 FF FF 7F 73 30 31  09E$.........s01
0930: 32 01 80 2B 83 02 05 01  58 80 23 5B 4C 80 83 02  2..+....X.#[L...
0940: 05 01 83 02 05 01 79 65  73 30 1C 2C 80 2B 83 02  ......yes0.,.+..
0950: 05 01 59 80 1C 34 80 23  52 24 80 F8 FF FF 7F F8  ..Y..4.#R$......
0960: FF FF 7F 73 30 31 32 45  24 80 F8 FF FF 7F F8 FF  ...s012E$.......
0970: FF 7F 73 30 31 33 01 80  5B 49 80 83 02 05 01 83  ..s013..[I......
0980: 02 05 01 74 6C 61 30 2B  83 02 05 01 5A 80 23 5B  ...tla0+....Z.#[
0990: 49 80 83 02 05 01 83 02  05 01 74 6C 61 31 52 24  I.........tla1R$
09A0: 80 F8 FF FF 7F F8 FF FF  7F 73 30 31 33 01 B0 09  .........s013...
09B0: 5D 01 80 34 80 02 87 7F  19 80 80 D1 09 45 24 80  ]..4.........E$.
09C0: F8 FF FF 7F F8 FF FF 7F  73 30 31 35 01 80 01 52  ........s015...R
09D0: 0A 02 87 7F 1D 80 80 ED  09 45 24 80 F8 FF FF 7F  .........E$.....
09E0: F8 FF FF 7F 73 30 31 36  01 80 01 52 0A 02 87 7F  ....s016...R....
09F0: 06 80 80 09 0A 45 24 80  F8 FF FF 7F F8 FF FF 7F  .....E$.........
0A00: 73 30 31 37 01 80 01 52  0A 02 87 7F 07 80 80 25  s017...R.......%
0A10: 0A 45 24 80 F8 FF FF 7F  F8 FF FF 7F 73 30 31 37  .E$.........s017
0A20: 01 80 01 52 0A 02 87 7F  09 80 80 41 0A 45 24 80  ...R.......A.E$.
0A30: F8 FF FF 7F F8 FF FF 7F  73 30 31 35 01 80 01 52  ........s015...R
0A40: 0A 45 24 80 F8 FF FF 7F  F8 FF FF 7F 73 30 31 34  .E$.........s014
0A50: 01 80 D0 5B 80 29 03 05  01 29 03 05 01 73 74 61  ...[.)...)...sta
0A60: 31 01 80 7B F0 FF FF 7F  D3 00 83 02 05 01 81 01  1..{............
0A70: 83 02 05 01 7C 01 83 02  05 01 1C 26 80 52 24 80  ....|......&.R$.
0A80: F8 FF FF 7F F8 FF FF 7F  73 30 31 34 52 24 80 F8  ........s014R$..
0A90: FF FF 7F F8 FF FF 7F 73  30 31 35 52 24 80 F8 FF  .......s015R$...
0AA0: FF 7F F8 FF FF 7F 73 30  31 36 52 24 80 F8 FF FF  ......s016R$....
0AB0: 7F F8 FF FF 7F 73 30 31  37 45 24 80 F8 FF FF 7F  .....s017E$.....
0AC0: F8 FF FF 7F 73 30 31 38  01 80 2B 83 02 05 01 5C  ....s018..+....\
0AD0: 80 1C 22 80 D0 5B 80 29  03 05 01 29 03 05 01 6B  .."..[.)...)...k
0AE0: 69 6C 32 01 80 27 05 F0  FF FF 7F A8 1C 29 80 52  il2..'.......).R
0AF0: 24 80 F8 FF FF 7F F8 FF  FF 7F 73 30 31 38 02 87  $.........s018..
0B00: 7F 06 80 80 1A 0B 45 24  80 F8 FF FF 7F F8 FF FF  ......E$........
0B10: 7F 73 31 37 35 01 80 01  47 0B 02 87 7F 07 80 80  .s175...G.......
0B20: 36 0B 45 24 80 F8 FF FF  7F F8 FF FF 7F 73 31 37  6.E$.........s17
0B30: 35 01 80 01 47 0B 45 24  80 F8 FF FF 7F F8 FF FF  5...G.E$........
0B40: 7F 73 31 37 34 01 80 D0  44 80 28 03 05 01 28 03  .s174...D.(...(.
0B50: 05 01 6D 61 78 30 01 80  1C 2E 80 81 00 83 02 05  ..max0..........
0B60: 01 7C 01 83 02 05 01 5B  5D 80 83 02 05 01 83 02  .|.....[].......
0B70: 05 01 68 61 6E 30 52 24  80 F8 FF FF 7F F8 FF FF  ..han0R$........
0B80: 7F 73 31 37 34 52 24 80  F8 FF FF 7F F8 FF FF 7F  .s174R$.........
0B90: 73 31 37 35 45 24 80 F8  FF FF 7F F8 FF FF 7F 73  s175E$.........s
0BA0: 31 37 36 01 80 1C 29 80  D0 5B 80 28 03 05 01 28  176...)..[.(...(
0BB0: 03 05 01 73 74 61 72 01  80 1C 22 80 52 24 80 F8  ...star...".R$..
0BC0: FF FF 7F F8 FF FF 7F 73  31 37 36 45 24 80 F8 FF  .......s176E$...
0BD0: FF 7F F8 FF FF 7F 73 30  31 39 01 80 D0 5E 80 F0  ......s019...^..
0BE0: FF FF 7F F0 FF FF 7F 74  67 74 30 01 80 1C 00 80  .......tgt0.....
0BF0: 45 5F 80 F0 FF FF 7F F0  FF FF 7F 77 68 6F 31 01  E_.........who1.
0C00: 80 55 5F 80 F0 FF FF 7F  F0 FF FF 7F 77 68 6F 31  .U_.........who1
0C10: 1C 41 80 52 24 80 F8 FF  FF 7F F8 FF FF 7F 73 30  .A.R$.........s0
0C20: 31 39 45 24 80 F8 FF FF  7F F8 FF FF 7F 73 30 32  19E$.........s02
0C30: 30 01 80 1C 25 80 45 5F  80 F0 FF FF 7F F0 FF FF  0...%.E_........
0C40: 7F 77 68 69 31 01 80 5B  5D 80 83 02 05 01 83 02  .whi1..[].......
0C50: 05 01 68 61 6E 31 81 01  83 02 05 01 1C 60 80 5B  ..han1.......`.[
0C60: 4F 80 83 02 05 01 83 02  05 01 68 64 62 30 1C 2C  O.........hdb0.,
0C70: 80 2B 83 02 05 01 61 80  23 2B 83 02 05 01 62 80  .+....a.#+....b.
0C80: 23 D0 5B 80 28 03 05 01  28 03 05 01 6B 69 6C 6C  #.[.(...(...kill
0C90: 01 80 27 05 F0 FF FF 7F  A9 1C 22 80 52 24 80 F8  ..'.......".R$..
0CA0: FF FF 7F F8 FF FF 7F 73  30 32 30 45 24 80 F8 FF  .......s020E$...
0CB0: FF 7F F8 FF FF 7F 73 30  32 31 01 80 5B 4F 80 83  ......s021..[O..
0CC0: 02 05 01 83 02 05 01 68  64 62 31 2B 83 02 05 01  .......hdb1+....
0CD0: 63 80 23 5C 00 64 80 5C  01 64 80 9A 52 24 80 F8  c.#\.d.\.d..R$..
0CE0: FF FF 7F F8 FF FF 7F 73  30 32 31 45 24 80 F8 FF  .......s021E$...
0CF0: FF 7F F8 FF FF 7F 73 30  32 33 01 80 CD 65 80 87  ......s023...e..
0D00: 02 05 01 87 02 05 01 73  30 30 30 01 80 2B 46 02  .......s000..+F.
0D10: 05 01 66 80 1C 22 80 6B  69 64 6C 30 F0 FF FF 7F  ..f..".kidl0....
0D20: 4E 01 28 03 05 01 1C 41  80 4A 83 02 05 01 87 02  N.(....A.J......
0D30: 05 01 4A F0 FF FF 7F 87  02 05 01 02 00 00 01 80  ..J.............
0D40: 00 4D 0D 2B 83 02 05 01  67 80 01 54 0D 2B 83 02  .M.+....g..T.+..
0D50: 05 01 68 80 1C 26 80 52  24 80 F8 FF FF 7F F8 FF  ..h..&.R$.......
0D60: FF 7F 73 30 32 33 45 24  80 F8 FF FF 7F F8 FF FF  ..s023E$........
0D70: 7F 73 30 32 34 01 80 2B  87 02 05 01 69 80 23 03  .s024..+....i.#.
0D80: 04 10 04 80 2B 87 02 05  01 6A 80 23 52 24 80 F8  ....+....j.#R$..
0D90: FF FF 7F F8 FF FF 7F 73  30 32 34 02 02 00 01 80  .......s024.....
0DA0: 00 45 0E 45 24 80 F8 FF  FF 7F F8 FF FF 7F 73 30  .E.E$.........s0
0DB0: 32 35 01 80 5B 46 80 83  02 05 01 83 02 05 01 74  25..[F.........t
0DC0: 68 62 30 BA 29 03 05 01  6B 80 6C 80 6D 80 6E 80  hb0.)...k.l.m.n.
0DD0: 2B 83 02 05 01 6F 80 23  5B 46 80 83 02 05 01 83  +....o.#[F......
0DE0: 02 05 01 74 68 62 31 52  24 80 F8 FF FF 7F F8 FF  ...thb1R$.......
0DF0: FF 7F 73 30 32 35 45 24  80 F8 FF FF 7F F8 FF FF  ..s025E$........
0E00: 7F 73 30 32 36 01 80 2B  87 02 05 01 70 80 1C 41  .s026..+....p..A
0E10: 80 62 19 80 29 03 05 01  29 03 05 01 6D 61 69 6E  .b..)...)...main
0E20: 01 80 23 2B 87 02 05 01  71 80 23 2B 87 02 05 01  ..#+....q.#+....
0E30: 72 80 23 52 24 80 F8 FF  FF 7F F8 FF FF 7F 73 30  r.#R$.........s0
0E40: 32 36 01 C0 0E 45 24 80  F8 FF FF 7F F8 FF FF 7F  26...E$.........
0E50: 73 30 32 37 01 80 5B 2B  80 83 02 05 01 83 02 05  s027..[+........
0E60: 01 74 6C 63 30 03 03 10  04 80 2B 83 02 05 01 73  .tlc0.....+....s
0E70: 80 23 5B 2B 80 83 02 05  01 83 02 05 01 74 6C 63  .#[+.........tlc
0E80: 31 52 24 80 F8 FF FF 7F  F8 FF FF 7F 73 30 32 37  1R$.........s027
0E90: 45 24 80 F8 FF FF 7F F8  FF FF 7F 73 30 32 38 01  E$.........s028.
0EA0: 80 2B 87 02 05 01 74 80  23 2B 87 02 05 01 72 80  .+....t.#+....r.
0EB0: 23 52 24 80 F8 FF FF 7F  F8 FF FF 7F 73 30 32 38  #R$.........s028
0EC0: 45 24 80 F8 FF FF 7F F8  FF FF 7F 73 30 32 39 01  E$.........s029.
0ED0: 80 CD 65 80 87 02 05 01  87 02 05 01 73 74 30 30  ..e.........st00
0EE0: 01 80 1C 44 80 52 24 80  F8 FF FF 7F F8 FF FF 7F  ...D.R$.........
0EF0: 73 30 32 39 45 24 80 F8  FF FF 7F F8 FF FF 7F 73  s029E$.........s
0F00: 30 33 30 01 80 4A 83 02  05 01 F0 FF FF 7F 7B 83  030..J........{.
0F10: 02 05 01 1C 22 80 4A F0  FF FF 7F 83 02 05 01 5B  ....".J........[
0F20: 2B 80 83 02 05 01 83 02  05 01 74 6C 65 30 2B 83  +.........tle0+.
0F30: 02 05 01 75 80 23 2B 83  02 05 01 76 80 23 5B 2B  ...u.#+....v.#[+
0F40: 80 83 02 05 01 83 02 05  01 74 6C 65 31 02 02 00  .........tle1...
0F50: 04 80 00 83 0F 1C 22 80  52 24 80 F8 FF FF 7F F8  ......".R$......
0F60: FF FF 7F 73 30 33 30 45  24 80 F8 FF FF 7F F8 FF  ...s030E$.......
0F70: FF 7F 73 30 33 31 01 80  2B 83 02 05 01 77 80 23  ..s031..+....w.#
0F80: 01 D6 0F 27 05 F0 FF FF  7F 1D 1C 2E 80 27 05 F0  ...'.........'..
0F90: FF FF 7F 1E 1C 48 80 52  24 80 F8 FF FF 7F F8 FF  .....H.R$.......
0FA0: FF 7F 73 30 33 30 45 24  80 F8 FF FF 7F F8 FF FF  ..s030E$........
0FB0: 7F 73 30 33 31 01 80 5B  4C 80 83 02 05 01 83 02  .s031..[L.......
0FC0: 05 01 79 65 73 30 2B 83  02 05 01 78 80 23 2B 83  ..yes0+....x.#+.
0FD0: 02 05 01 79 80 23 52 24  80 F8 FF FF 7F F8 FF FF  ...y.#R$........
0FE0: 7F 73 30 33 31 45 24 80  F8 FF FF 7F F8 FF FF 7F  .s031E$.........
0FF0: 73 30 33 34 01 80 27 05  83 02 05 01 43 1C 26 80  s034..'.....C.&.
1000: 5D 01 80 34 80 45 00 80  F8 FF FF 7F F8 FF FF 7F  ]..4.E..........
1010: 66 64 6F 31 01 80 55 00  80 F8 FF FF 7F F8 FF FF  fdo1..U.........
1020: 7F 66 64 6F 31 52 24 80  F8 FF FF 7F F8 FF FF 7F  .fdo1R$.........
1030: 73 30 33 34 27 05 87 02  05 01 28 02 01 00 04 80  s034'.....(.....
1040: 00 4A 10 27 05 87 02 05  01 2A 5C 00 7A 80 5C 01  .J.'.....*\.z.\.
1050: 7A 80 9A 46 00 45 00 80  F8 FF FF 7F F8 FF FF 7F  z..F.E..........
1060: 66 64 69 32 01 80 1B                              fdi2...         
```

#### Opcodes

```
  0: 0x0028 [0x42] SET_CLI_EVENT_CANCEL_DATA()
  1: 0x0029 [0x03] Work_Zone[1] = 1*
  2: 0x002E [0x43] SEND_EVENT_UPDATE: Send pending tag to server (packet 0x005B)
  3: 0x0030 [0x43] SEND_EVENT_UPDATE: Check pending flag (skip if not pending)
  4: 0x0032 [0x1A] CALL_SUBROUTINE(address=0x0037)
  5: 0x0035 [0x21] END_EVENT
  6: 0x0036 [0x00] END_REQSTACK()

SUBROUTINE_0037:
  7: 0x0037 [0x03] ExtData[1]->WorkLocal[0] = Work_Zone[2]
  8: 0x003C [0x03] ExtData[1]->WorkLocal[2] = Work_Zone[3]
  9: 0x0041 [0x03] ExtData[1]->WorkLocal[1] = Work_Zone[4]
 10: 0x0046 [0x45] LOAD_SCHEDULED_TASK: Load scheduler "fdo1" with entities [EventEntity, EventEntity], work=[200*, 0*]
 11: 0x0057 [0x55] WAIT_LOAD_SCHEDULER: Wait for scheduler "fdo1" with entities [EventEntity, EventEntity], work=200*
 12: 0x0066 [0x46] CAMERA_CONTROL: Disable user control
 13: 0x0068 [0x38] SET_CLIENT_EVENT_MODE(mode=27*)
 14: 0x006B [0x2F] Lilisette (ID: 17105539/0x01050283)->Render.Flags0 &= ~0x80000 // Bit 19
 15: 0x0071 [0x2F] Cait Sith (ID: 17105543/0x01050287)->Render.Flags0 &= ~0x80000 // Bit 19
 16: 0x0077 [0x2F] Unnamed NPC (ID: 17105704/0x01050328)->Render.Flags0 &= ~0x80000 // Bit 19
 17: 0x007D [0x2F] Unnamed NPC (ID: 17105705/0x01050329)->Render.Flags0 &= ~0x80000 // Bit 19
 18: 0x0083 [0x4E] SET_ENTITY_HIDE_FLAG: Show Unnamed NPC (ID: 17105704/0x01050328)
 19: 0x0089 [0x4E] SET_ENTITY_HIDE_FLAG: Show Unnamed NPC (ID: 17105705/0x01050329)
 20: 0x008F [0x4E] SET_ENTITY_HIDE_FLAG: Show Lilisette (ID: 17105539/0x01050283)
 21: 0x0095 [0x4E] SET_ENTITY_HIDE_FLAG: Show LocalPlayer
 22: 0x009B [0x4E] SET_ENTITY_HIDE_FLAG: Show Cait Sith (ID: 17105543/0x01050287)
 23: 0x00A1 [0x92] Lilisette (ID: 17105539/0x01050283)->Render.Flags3 ^= 0x01
 24: 0x00A7 [0x92] Cait Sith (ID: 17105543/0x01050287)->Render.Flags3 ^= 0x01
 25: 0x00AD [0x94] Lilisette (ID: 17105539/0x01050283)->Render.Flags3 ^= 0x01
 26: 0x00B3 [0x94] LocalPlayer->Render.Flags3 ^= 0x01
 27: 0x00B9 [0x94] Unnamed NPC (ID: 17105705/0x01050329)->Render.Flags3 ^= 0x01
 28: 0x00BF [0x94] Unnamed NPC (ID: 17105704/0x01050328)->Render.Flags3 ^= 0x01
 29: 0x00C5 [0x94] Cait Sith (ID: 17105543/0x01050287)->Render.Flags3 ^= 0x01
 30: 0x00CB [0x02] IF !(LocalPlayer->Race == 5*) GOTO 0x00DD
 31: 0x00D3 [0x27] REQ_SET(priority=0x05, entity_id=LocalPlayer, tag_num=0xA4)
 32: 0x00DA [0x01] GOTO 0x011A
 33: 0x00DD [0x02] IF !(LocalPlayer->Race == 6*) GOTO 0x00EF
 34: 0x00E5 [0x27] REQ_SET(priority=0x05, entity_id=LocalPlayer, tag_num=0xA4)
 35: 0x00EC [0x01] GOTO 0x011A
 36: 0x00EF [0x02] IF !(LocalPlayer->Race == 7*) GOTO 0x0101
 37: 0x00F7 [0x27] REQ_SET(priority=0x05, entity_id=LocalPlayer, tag_num=0xA5)
 38: 0x00FE [0x01] GOTO 0x011A
 39: 0x0101 [0x02] IF !(LocalPlayer->Race == 8*) GOTO 0x0113
 40: 0x0109 [0x27] REQ_SET(priority=0x05, entity_id=LocalPlayer, tag_num=0xA6)
 41: 0x0110 [0x01] GOTO 0x011A
 42: 0x0113 [0x27] REQ_SET(priority=0x05, entity_id=LocalPlayer, tag_num=0xA7)

SUBROUTINE_011A:
 43: 0x011A [0x59] UPDATE_ENTITY_DATA: Unnamed NPC (ID: 17105705/0x01050329)->Render.Flags0 |= 0x200000
 44: 0x0121 [0x59] UPDATE_ENTITY_DATA: Cait Sith (ID: 17105543/0x01050287)->Render.Flags0 |= 0x200000
 45: 0x0128 [0x02] IF !(ExtData[1]->WorkLocal[1] == 1*) GOTO 0x0137
 46: 0x0130 [0x27] REQ_SET(priority=0x05, entity_id=Cait Sith (ID: 17105543/0x01050287), tag_num=0x29)
 47: 0x0137 [0xBA] SET_ENTITY_POSITION(entity_id=Lilisette (ID: 17105539/0x01050283), pos_x=145.737*, pos_z=113.661*, pos_y=-2.000*, direction=137.2°*)
 48: 0x0144 [0xBA] SET_ENTITY_POSITION(entity_id=LocalPlayer, pos_x=140.456*, pos_z=108.580*, pos_y=-2.199*, direction=142.7°*)
 49: 0x0151 [0xBA] SET_ENTITY_POSITION(entity_id=Unnamed NPC (ID: 17105704/0x01050328), pos_x=137.363*, pos_z=105.557*, pos_y=-2.199*, direction=315.8°*)
 50: 0x015E [0xBA] SET_ENTITY_POSITION(entity_id=Cait Sith (ID: 17105543/0x01050287), pos_x=140.481*, pos_z=106.086*, pos_y=-3.199*, direction=317.3°*)
 51: 0x016B [0x02] IF !(LocalPlayer->Race == 3*) GOTO 0x0183
 52: 0x0173 [0xBA] SET_ENTITY_POSITION(entity_id=Unnamed NPC (ID: 17105705/0x01050329), pos_x=137.463*, pos_z=105.457*, pos_y=-3.399*, direction=315.8°*)
 53: 0x0180 [0x01] GOTO 0x0208
 54: 0x0183 [0x02] IF !(LocalPlayer->Race == 4*) GOTO 0x019B
 55: 0x018B [0xBA] SET_ENTITY_POSITION(entity_id=Unnamed NPC (ID: 17105705/0x01050329), pos_x=137.463*, pos_z=105.457*, pos_y=-3.399*, direction=315.8°*)
 56: 0x0198 [0x01] GOTO 0x0208
 57: 0x019B [0x02] IF !(LocalPlayer->Race == 5*) GOTO 0x01B3
 58: 0x01A3 [0xBA] SET_ENTITY_POSITION(entity_id=Unnamed NPC (ID: 17105705/0x01050329), pos_x=137.400*, pos_z=105.457*, pos_y=-2.499*, direction=315.8°*)
 59: 0x01B0 [0x01] GOTO 0x0208
 60: 0x01B3 [0x02] IF !(LocalPlayer->Race == 6*) GOTO 0x01CB
 61: 0x01BB [0xBA] SET_ENTITY_POSITION(entity_id=Unnamed NPC (ID: 17105705/0x01050329), pos_x=137.400*, pos_z=105.457*, pos_y=-2.499*, direction=315.8°*)
 62: 0x01C8 [0x01] GOTO 0x0208
 63: 0x01CB [0x02] IF !(LocalPlayer->Race == 7*) GOTO 0x01E3
 64: 0x01D3 [0xBA] SET_ENTITY_POSITION(entity_id=Unnamed NPC (ID: 17105705/0x01050329), pos_x=137.463*, pos_z=105.500*, pos_y=-3.150*, direction=315.8°*)
 65: 0x01E0 [0x01] GOTO 0x0208
 66: 0x01E3 [0x02] IF !(LocalPlayer->Race == 8*) GOTO 0x01FB
 67: 0x01EB [0xBA] SET_ENTITY_POSITION(entity_id=Unnamed NPC (ID: 17105705/0x01050329), pos_x=137.463*, pos_z=105.457*, pos_y=-3.399*, direction=315.8°*)
 68: 0x01F8 [0x01] GOTO 0x0208
 69: 0x01FB [0xBA] SET_ENTITY_POSITION(entity_id=Unnamed NPC (ID: 17105705/0x01050329), pos_x=137.463*, pos_z=105.457*, pos_y=-3.199*, direction=315.8°*)

SUBROUTINE_0208:
 70: 0x0208 [0x80] LOAD_WAIT(entity=LocalPlayer)
 71: 0x020D [0x80] LOAD_WAIT(entity=Lilisette (ID: 17105539/0x01050283))
 72: 0x0212 [0x80] LOAD_WAIT(entity=Unnamed NPC (ID: 17105704/0x01050328))
 73: 0x0217 [0x1C] WAIT(30* ticks)
 74: 0x021A [0x02] IF !(LocalPlayer->Race == 1*) GOTO 0x0235
 75: 0x0222 [0x5F] MULTI_HANDLER_COMPLEX(mode=0x03 - Load ext scheduler (OpCode 0x5B mode 0), ref=3878*, entity1=Unnamed NPC (ID: 17105704/0x01050328), entity2=Unnamed NPC (ID: 17105704/0x01050328), string="hmml")
 76: 0x0232 [0x01] GOTO 0x02F2
 77: 0x0235 [0x02] IF !(LocalPlayer->Race == 2*) GOTO 0x0250
 78: 0x023D [0x5F] MULTI_HANDLER_COMPLEX(mode=0x03 - Load ext scheduler (OpCode 0x5B mode 0), ref=3878*, entity1=Unnamed NPC (ID: 17105704/0x01050328), entity2=Unnamed NPC (ID: 17105704/0x01050328), string="hfml")
 79: 0x024D [0x01] GOTO 0x02F2
 80: 0x0250 [0x02] IF !(LocalPlayer->Race == 3*) GOTO 0x026B
 81: 0x0258 [0x5F] MULTI_HANDLER_COMPLEX(mode=0x03 - Load ext scheduler (OpCode 0x5B mode 0), ref=3878*, entity1=Unnamed NPC (ID: 17105704/0x01050328), entity2=Unnamed NPC (ID: 17105704/0x01050328), string="emml")
 82: 0x0268 [0x01] GOTO 0x02F2
 83: 0x026B [0x02] IF !(LocalPlayer->Race == 4*) GOTO 0x0286
 84: 0x0273 [0x5F] MULTI_HANDLER_COMPLEX(mode=0x03 - Load ext scheduler (OpCode 0x5B mode 0), ref=3878*, entity1=Unnamed NPC (ID: 17105704/0x01050328), entity2=Unnamed NPC (ID: 17105704/0x01050328), string="efml")
 85: 0x0283 [0x01] GOTO 0x02F2
 86: 0x0286 [0x02] IF !(LocalPlayer->Race == 5*) GOTO 0x02A1
 87: 0x028E [0x5F] MULTI_HANDLER_COMPLEX(mode=0x03 - Load ext scheduler (OpCode 0x5B mode 0), ref=3878*, entity1=Unnamed NPC (ID: 17105704/0x01050328), entity2=Unnamed NPC (ID: 17105704/0x01050328), string="tmal")
 88: 0x029E [0x01] GOTO 0x02F2
 89: 0x02A1 [0x02] IF !(LocalPlayer->Race == 6*) GOTO 0x02BC
 90: 0x02A9 [0x5F] MULTI_HANDLER_COMPLEX(mode=0x03 - Load ext scheduler (OpCode 0x5B mode 0), ref=3878*, entity1=Unnamed NPC (ID: 17105704/0x01050328), entity2=Unnamed NPC (ID: 17105704/0x01050328), string="tmal")
 91: 0x02B9 [0x01] GOTO 0x02F2
 92: 0x02BC [0x02] IF !(LocalPlayer->Race == 7*) GOTO 0x02D7
 93: 0x02C4 [0x5F] MULTI_HANDLER_COMPLEX(mode=0x03 - Load ext scheduler (OpCode 0x5B mode 0), ref=3878*, entity1=Unnamed NPC (ID: 17105704/0x01050328), entity2=Unnamed NPC (ID: 17105704/0x01050328), string="mmal")
 94: 0x02D4 [0x01] GOTO 0x02F2
 95: 0x02D7 [0x02] IF !(LocalPlayer->Race == 8*) GOTO 0x02F2
 96: 0x02DF [0x5F] MULTI_HANDLER_COMPLEX(mode=0x03 - Load ext scheduler (OpCode 0x5B mode 0), ref=3878*, entity1=Unnamed NPC (ID: 17105704/0x01050328), entity2=Unnamed NPC (ID: 17105704/0x01050328), string="gmal")
 97: 0x02EF [0x01] GOTO 0x02F2

SUBROUTINE_02F2:
 98: 0x02F2 [0x27] REQ_SET(priority=0x05, entity_id=LocalPlayer, tag_num=0xAA)
 99: 0x02F9 [0x1C] WAIT(30* ticks)
100: 0x02FC [0x45] LOAD_SCHEDULED_TASK: Load scheduler "s000" with entities [EventEntity, EventEntity], work=[765*, 0*]
101: 0x030D [0x1C] WAIT(15* ticks)
102: 0x0310 [0x45] LOAD_SCHEDULED_TASK: Load scheduler "fdi1" with entities [EventEntity, EventEntity], work=[200*, 0*]
103: 0x0321 [0x1C] WAIT(120* ticks)
104: 0x0324 [0x27] REQ_SET(priority=0x05, entity_id=Lilisette (ID: 17105539/0x01050283), tag_num=0x41)
105: 0x032B [0x1C] WAIT(30* ticks)
106: 0x032E [0x52] END_LOAD_SCHEDULER: End scheduler "s000" with entities [EventEntity, EventEntity], work=765*
107: 0x033D [0x45] LOAD_SCHEDULED_TASK: Load scheduler "s001" with entities [EventEntity, EventEntity], work=[765*, 0*]
108: 0x034E [0x2B] Lilisette (ID: 17105539/0x01050283) [15738*]:
    → "Aha!"
109: 0x0355 [0x1C] WAIT(30* ticks)
110: 0x0358 [0x4A] LocalPlayer looks at Lilisette (ID: 17105539/0x01050283)
111: 0x0361 [0x1C] WAIT(30* ticks)
112: 0x0364 [0x02] IF !(ExtData[1]->WorkLocal[0] == 0*) GOTO 0x0374
113: 0x036C [0x03] Work_Zone[4] = 0*
114: 0x0371 [0x01] GOTO 0x0379
115: 0x0374 [0x03] Work_Zone[4] = 1*

SUBROUTINE_0379:
116: 0x0379 [0x2B] Lilisette (ID: 17105539/0x01050283) [15739*]:
    → "<Player>, it's you! Did you happen upon [that regal cat/Cait Sith] again?"
117: 0x0380 [0x23] WAIT_FOR_DIALOG_INTERACTION
118: 0x0381 [0x2A] GET_REQ_LEVEL(level=5, entity_id=Lilisette (ID: 17105539/0x01050283))
119: 0x0387 [0x6E] LocalPlayer uses emote 6*
120: 0x038E [0x99] Wait for LocalPlayer animation to complete
121: 0x0393 [0x1C] WAIT(90* ticks)
122: 0x0396 [0x81] SET_ENTITY_BLINKING(blink_flag=0x00, entity=Lilisette (ID: 17105539/0x01050283))
123: 0x039C [0x7C] Lilisette (ID: 17105539/0x01050283)->Render.Flags2 |= 0x00
124: 0x03A2 [0x5B] LOAD_EXT_SCHEDULER: Load scheduler "fm01" with entities [Lilisette (ID: 17105539/0x01050283), Lilisette (ID: 17105539/0x01050283)], work=2135*
125: 0x03B1 [0x5B] LOAD_EXT_SCHEDULER: Load scheduler "tle0" with entities [Lilisette (ID: 17105539/0x01050283), Lilisette (ID: 17105539/0x01050283)], work=2132*
126: 0x03C0 [0x1C] WAIT(10* ticks)
127: 0x03C3 [0x52] END_LOAD_SCHEDULER: End scheduler "s001" with entities [EventEntity, EventEntity], work=765*
128: 0x03D2 [0x45] LOAD_SCHEDULED_TASK: Load scheduler "s002" with entities [EventEntity, EventEntity], work=[765*, 0*]
129: 0x03E3 [0x2B] Lilisette (ID: 17105539/0x01050283) [15740*]:
    → "Hmmm... Then I have a stranger question: have you been having any odd dreams lately?"
130: 0x03EA [0x1C] WAIT(80* ticks)
131: 0x03ED [0x23] WAIT_FOR_DIALOG_INTERACTION
132: 0x03EE [0x5B] LOAD_EXT_SCHEDULER: Load scheduler "fb00" with entities [Lilisette (ID: 17105539/0x01050283), Lilisette (ID: 17105539/0x01050283)], work=2135*
133: 0x03FD [0x52] END_LOAD_SCHEDULER: End scheduler "s002" with entities [EventEntity, EventEntity], work=765*
134: 0x040C [0x45] LOAD_SCHEDULED_TASK: Load scheduler "s003" with entities [EventEntity, EventEntity], work=[765*, 0*]
135: 0x041D [0x24] CREATE_DIALOG(message_id=15749*, default_option=0*, option_flags=0*)
    → "Have you had odd dreams? [Not dreams, but visions.../Not really.]"
136: 0x0424 [0x25] WAIT_DIALOG_SELECT()
137: 0x0425 [0x02] IF !(Work_Zone[0] == 0*) GOTO 0x0481
138: 0x042D [0x5B] LOAD_EXT_SCHEDULER: Load scheduler "fm01" with entities [Lilisette (ID: 17105539/0x01050283), Lilisette (ID: 17105539/0x01050283)], work=2135*
139: 0x043C [0x5B] LOAD_EXT_SCHEDULER: Load scheduler "tle1" with entities [Lilisette (ID: 17105539/0x01050283), Lilisette (ID: 17105539/0x01050283)], work=2132*
140: 0x044B [0x1C] WAIT(5* ticks)
141: 0x044E [0x52] END_LOAD_SCHEDULER: End scheduler "s003" with entities [EventEntity, EventEntity], work=765*
142: 0x045D [0x45] LOAD_SCHEDULED_TASK: Load scheduler "s004" with entities [EventEntity, EventEntity], work=[765*, 0*]
143: 0x046E [0x2B] Lilisette (ID: 17105539/0x01050283) [15750*]:
    → "I knew I couldn't have been the only one!"
144: 0x0475 [0x23] WAIT_FOR_DIALOG_INTERACTION
145: 0x0476 [0x2B] Lilisette (ID: 17105539/0x01050283) [15751*]:
    → "They shook me to the core. A blackness deeper than a starless night enveloped the world, and the screams of a thousand souls pierced the air."
146: 0x047D [0x23] WAIT_FOR_DIALOG_INTERACTION
147: 0x047E [0x01] GOTO 0x04DD
148: 0x0481 [0x02] IF !(Work_Zone[0] == 1*) GOTO 0x04DD
149: 0x0489 [0x5B] LOAD_EXT_SCHEDULER: Load scheduler "fm01" with entities [Lilisette (ID: 17105539/0x01050283), Lilisette (ID: 17105539/0x01050283)], work=2135*
150: 0x0498 [0x5B] LOAD_EXT_SCHEDULER: Load scheduler "tle1" with entities [Lilisette (ID: 17105539/0x01050283), Lilisette (ID: 17105539/0x01050283)], work=2132*
151: 0x04A7 [0x1C] WAIT(5* ticks)
152: 0x04AA [0x52] END_LOAD_SCHEDULER: End scheduler "s003" with entities [EventEntity, EventEntity], work=765*
153: 0x04B9 [0x45] LOAD_SCHEDULED_TASK: Load scheduler "s004" with entities [EventEntity, EventEntity], work=[765*, 0*]
154: 0x04CA [0x2B] Lilisette (ID: 17105539/0x01050283) [15752*]:
    → "Are you quite sure?"
155: 0x04D1 [0x23] WAIT_FOR_DIALOG_INTERACTION
156: 0x04D2 [0x2B] Lilisette (ID: 17105539/0x01050283) [15753*]:
    → "They shook me to the core. A blackness deeper than a starless night enveloped the world, and the screams of a thousand souls pierced the air."
157: 0x04D9 [0x23] WAIT_FOR_DIALOG_INTERACTION
158: 0x04DA [0x01] GOTO 0x04DD

SUBROUTINE_04DD:
159: 0x04DD [0x5D] SET_MUSIC_VOLUME(volume=0*, fade_time=180*)
160: 0x04E2 [0x45] LOAD_SCHEDULED_TASK: Load scheduler "fdo1" with entities [EventEntity, EventEntity], work=[200*, 0*]
161: 0x04F3 [0x55] WAIT_LOAD_SCHEDULER: Wait for scheduler "fdo1" with entities [EventEntity, EventEntity], work=200*
162: 0x0502 [0x52] END_LOAD_SCHEDULER: End scheduler "s004" with entities [EventEntity, EventEntity], work=765*
163: 0x0511 [0xC5] LOAD_SCHEDULED_TASK_ALT3: Load scheduler 0x80013030 for entities [Lilisette (ID: 17105539/0x01050283), Lilisette (ID: 17105539/0x01050283)], work=213*, param=12403
164: 0x0522 [0x77] SET_EVENT_TIME_WEATHER(hour=0*, weather=255*)
165: 0x0527 [0xD3] CLEAR_ENTITY_MOTION_QUEUE(condition_flag=0x00, entity_server_id=0x01050283)
166: 0x052D [0x59] UPDATE_ENTITY_DATA: Lilisette (ID: 17105539/0x01050283)->Render.Flags0 |= 0x200000
167: 0x0534 [0xBA] SET_ENTITY_POSITION(entity_id=Lilisette (ID: 17105539/0x01050283), pos_x=139.594*, pos_z=107.198*, pos_y=-95.000*, direction=315.8°*)
168: 0x0541 [0x80] LOAD_WAIT(entity=Lilisette (ID: 17105539/0x01050283))
169: 0x0546 [0x1C] WAIT(30* ticks)
170: 0x0549 [0x5C] MUSIC_CONTROL: Set Idle (Day) music to song 79*
171: 0x054D [0x5C] MUSIC_CONTROL: Set Idle (Night) music to song 79*
172: 0x0551 [0x9A] WAIT_MUSIC_SERVER()
173: 0x0552 [0xCD] LOAD_SCHEDULED_TASK_ALT4: Load scheduler "s000" with entities [Lilisette (ID: 17105539/0x01050283), Lilisette (ID: 17105539/0x01050283)], work=[36*, 0*]
174: 0x0563 [0x45] LOAD_SCHEDULED_TASK: Load scheduler "s005" with entities [EventEntity, EventEntity], work=[765*, 0*]
175: 0x0574 [0x1C] WAIT(15* ticks)
176: 0x0577 [0x45] LOAD_SCHEDULED_TASK: Load scheduler "fdi1" with entities [EventEntity, EventEntity], work=[200*, 0*]
177: 0x0588 [0x2B] Lilisette (ID: 17105539/0x01050283) [15754*]:
    → "I wanted to reach out to them, but instead of grasping their hands I began to float upward, my form bound by light."
178: 0x058F [0x1C] WAIT(480* ticks)
179: 0x0592 [0x23] WAIT_FOR_DIALOG_INTERACTION
180: 0x0593 [0x52] END_LOAD_SCHEDULER: End scheduler "s005" with entities [EventEntity, EventEntity], work=765*
181: 0x05A2 [0x45] LOAD_SCHEDULED_TASK: Load scheduler "s033" with entities [EventEntity, EventEntity], work=[765*, 0*]
182: 0x05B3 [0x2B] Lilisette (ID: 17105539/0x01050283) [15755*]:
    → "I became one with that selfsame light...and the last thing I saw was your face."
183: 0x05BA [0x1C] WAIT(300* ticks)
184: 0x05BD [0x23] WAIT_FOR_DIALOG_INTERACTION
185: 0x05BE [0x55] WAIT_LOAD_SCHEDULER: Wait for scheduler "s033" with entities [EventEntity, EventEntity], work=765*
186: 0x05CD [0x45] LOAD_SCHEDULED_TASK: Load scheduler "fdo1" with entities [EventEntity, EventEntity], work=[200*, 0*]
187: 0x05DE [0x55] WAIT_LOAD_SCHEDULER: Wait for scheduler "fdo1" with entities [EventEntity, EventEntity], work=200*
188: 0x05ED [0xC9] ENABLE_GAME_TIMER()
189: 0x05EE [0xC5] LOAD_SCHEDULED_TASK_ALT3: Load scheduler 0x8001306C for entities [Lilisette (ID: 17105539/0x01050283), Lilisette (ID: 17105539/0x01050283)], work=213*, param=26987
190: 0x05FF [0x6B] STOP_AND_IDLE: Lilisette (ID: 17105539/0x01050283) stops current action and resets to idle (animation="idl0")
191: 0x0608 [0x27] REQ_SET(priority=0x05, entity_id=Lilisette (ID: 17105539/0x01050283), tag_num=0x42)
192: 0x060F [0x81] SET_ENTITY_BLINKING(blink_flag=0x01, entity=Lilisette (ID: 17105539/0x01050283))
193: 0x0615 [0x7C] Lilisette (ID: 17105539/0x01050283)->Render.Flags2 |= 0x01
194: 0x061B [0xBA] SET_ENTITY_POSITION(entity_id=Lilisette (ID: 17105539/0x01050283), pos_x=139.594*, pos_z=107.198*, pos_y=-2.199*, direction=315.8°*)
195: 0x0628 [0x80] LOAD_WAIT(entity=Lilisette (ID: 17105539/0x01050283))
196: 0x062D [0x4A] Lilisette (ID: 17105539/0x01050283) looks at LocalPlayer
197: 0x0636 [0x7B] Lilisette (ID: 17105539/0x01050283) stops talking
198: 0x063B [0x1A] CALL_SUBROUTINE(address=0x1277)
199: 0x063E [0x89] OPEN_MAP(map_id=0x00008040)
200: 0x0641 [0x1C] WAIT(60* ticks)
201: 0x0644 [0xB4] UI_WINDOW_STRING_HANDLER(case=0x14 - Update map window values, work_offset1=1000*, work_offset2=1000*, work_offset3=1300*, work_offset4=0*, work_offset5=1*)
202: 0x0650 [0x1C] WAIT(30* ticks)
203: 0x0653 [0xB4] UI_WINDOW_STRING_HANDLER(case=0x14 - Update map window values, work_offset1=1000*, work_offset2=1000*, work_offset3=1000*, work_offset4=300*, work_offset5=1*)
204: 0x065F [0x03] Work_Zone[2] = 150*
205: 0x0664 [0x27] REQ_SET(priority=0x10, entity_id=??? (ID: 17105478/0x01050246), tag_num=0x01)
206: 0x066B [0x1A] CALL_SUBROUTINE(address=0x1265)
207: 0x066E [0x2B] Lilisette (ID: 17105539/0x01050283) [15756*]:
    → "Your visage was even more noble than usual, and you had become...a god."
208: 0x0675 [0x23] WAIT_FOR_DIALOG_INTERACTION
209: 0x0676 [0x2A] GET_REQ_LEVEL(level=16, entity_id=??? (ID: 17105478/0x01050246))
210: 0x067C [0x1A] CALL_SUBROUTINE(address=0x1277)
211: 0x067F [0x8A] CLOSE_MAP()
212: 0x0680 [0xB4] UI_WINDOW_STRING_HANDLER(case=0x15 - Test map window validity)
213: 0x0682 [0x1A] CALL_SUBROUTINE(address=0x1265)
214: 0x0685 [0x45] LOAD_SCHEDULED_TASK: Load scheduler "s006" with entities [EventEntity, EventEntity], work=[765*, 0*]
215: 0x0696 [0x1C] WAIT(15* ticks)
216: 0x0699 [0x45] LOAD_SCHEDULED_TASK: Load scheduler "fdi1" with entities [EventEntity, EventEntity], work=[200*, 0*]
217: 0x06AA [0x5B] LOAD_EXT_SCHEDULER: Load scheduler "thb0" with entities [Lilisette (ID: 17105539/0x01050283), Lilisette (ID: 17105539/0x01050283)], work=2133*
218: 0x06B9 [0x2B] Lilisette (ID: 17105539/0x01050283) [15757*]:
    → "Huh? You had a different dream?"
219: 0x06C0 [0x23] WAIT_FOR_DIALOG_INTERACTION
220: 0x06C1 [0x6E] LocalPlayer uses emote 7*
221: 0x06C8 [0x99] Wait for LocalPlayer animation to complete
222: 0x06CD [0x1C] WAIT(90* ticks)
223: 0x06D0 [0x27] REQ_SET(priority=0x05, entity_id=LocalPlayer, tag_num=0x1D)
224: 0x06D7 [0x1C] WAIT(80* ticks)
225: 0x06DA [0x45] LOAD_SCHEDULED_TASK: Load scheduler "fdo1" with entities [EventEntity, EventEntity], work=[200*, 0*]
226: 0x06EB [0x55] WAIT_LOAD_SCHEDULER: Wait for scheduler "fdo1" with entities [EventEntity, EventEntity], work=200*
227: 0x06FA [0x52] END_LOAD_SCHEDULER: End scheduler "s006" with entities [EventEntity, EventEntity], work=765*
228: 0x0709 [0x6B] STOP_AND_IDLE: Lilisette (ID: 17105539/0x01050283) stops current action and resets to idle (animation="idl0")
229: 0x0712 [0x27] REQ_SET(priority=0x05, entity_id=LocalPlayer, tag_num=0x1E)
230: 0x0719 [0x1C] WAIT(40* ticks)
231: 0x071C [0x81] SET_ENTITY_BLINKING(blink_flag=0x00, entity=Lilisette (ID: 17105539/0x01050283))
232: 0x0722 [0x7C] Lilisette (ID: 17105539/0x01050283)->Render.Flags2 |= 0x00
233: 0x0728 [0x5B] LOAD_EXT_SCHEDULER: Load scheduler "odo0" with entities [Lilisette (ID: 17105539/0x01050283), Lilisette (ID: 17105539/0x01050283)], work=2134*
234: 0x0737 [0x45] LOAD_SCHEDULED_TASK: Load scheduler "s007" with entities [EventEntity, EventEntity], work=[765*, 0*]
235: 0x0748 [0x1C] WAIT(1* ticks)
236: 0x074B [0x45] LOAD_SCHEDULED_TASK: Load scheduler "fdi1" with entities [EventEntity, EventEntity], work=[200*, 0*]
237: 0x075C [0x2B] Lilisette (ID: 17105539/0x01050283) [15758*]:
    → "Wh-what!? That's an ill omen if I ever heard one!"
238: 0x0763 [0x23] WAIT_FOR_DIALOG_INTERACTION
239: 0x0764 [0x55] WAIT_LOAD_SCHEDULER: Wait for scheduler "s007" with entities [EventEntity, EventEntity], work=765*
240: 0x0773 [0x45] LOAD_SCHEDULED_TASK: Load scheduler "s008" with entities [EventEntity, EventEntity], work=[765*, 0*]
241: 0x0784 [0x81] SET_ENTITY_BLINKING(blink_flag=0x01, entity=Lilisette (ID: 17105539/0x01050283))
242: 0x078A [0x7C] Lilisette (ID: 17105539/0x01050283)->Render.Flags2 |= 0x01
243: 0x0790 [0x2B] Lilisette (ID: 17105539/0x01050283) [15759*]:
    → "Could such terror truly be what the world has in store for us?"
244: 0x0797 [0x23] WAIT_FOR_DIALOG_INTERACTION
245: 0x0798 [0x5B] LOAD_EXT_SCHEDULER: Load scheduler "no00" with entities [Lilisette (ID: 17105539/0x01050283), Lilisette (ID: 17105539/0x01050283)], work=2139*
246: 0x07A7 [0x2B] Lilisette (ID: 17105539/0x01050283) [15760*]:
    → "Then in my dreams...all that light... Was it just a fraud, and I'm totally powerless!?"
247: 0x07AE [0x1C] WAIT(160* ticks)
248: 0x07B1 [0x23] WAIT_FOR_DIALOG_INTERACTION
249: 0x07B2 [0x5B] LOAD_EXT_SCHEDULER: Load scheduler "hdb0" with entities [Lilisette (ID: 17105539/0x01050283), Lilisette (ID: 17105539/0x01050283)], work=2128*
250: 0x07C1 [0x2B] Lilisette (ID: 17105539/0x01050283) [15761*]:
    → "What kind of trickery is this!?"
251: 0x07C8 [0x1C] WAIT(70* ticks)
252: 0x07CB [0x23] WAIT_FOR_DIALOG_INTERACTION
253: 0x07CC [0x5B] LOAD_EXT_SCHEDULER: Load scheduler "hdb1" with entities [Lilisette (ID: 17105539/0x01050283), Lilisette (ID: 17105539/0x01050283)], work=2128*
254: 0x07DB [0x1C] WAIT(60* ticks)
255: 0x07DE [0x52] END_LOAD_SCHEDULER: End scheduler "s008" with entities [EventEntity, EventEntity], work=765*
256: 0x07ED [0x45] LOAD_SCHEDULED_TASK: Load scheduler "s009" with entities [EventEntity, EventEntity], work=[765*, 0*]
257: 0x07FE [0x24] CREATE_DIALOG(message_id=15762*, default_option=0*, option_flags=0*)
    → "How do you respond? [I'll think of something./I need your help./...]"
258: 0x0805 [0x25] WAIT_DIALOG_SELECT()
259: 0x0806 [0x02] IF !(Work_Zone[0] == 0*) GOTO 0x0879
260: 0x080E [0x5B] LOAD_EXT_SCHEDULER: Load scheduler "tlb0" with entities [Lilisette (ID: 17105539/0x01050283), Lilisette (ID: 17105539/0x01050283)], work=2133*
261: 0x081D [0x1C] WAIT(15* ticks)
262: 0x0820 [0x52] END_LOAD_SCHEDULER: End scheduler "s009" with entities [EventEntity, EventEntity], work=765*
263: 0x082F [0x45] LOAD_SCHEDULED_TASK: Load scheduler "s010" with entities [EventEntity, EventEntity], work=[765*, 0*]
264: 0x0840 [0x2B] Lilisette (ID: 17105539/0x01050283) [15763*]:
    → "Oh, I see how it is. You're going to run off and save the world!"
265: 0x0847 [0x23] WAIT_FOR_DIALOG_INTERACTION
266: 0x0848 [0x2B] Lilisette (ID: 17105539/0x01050283) [15764*]:
    → "Hehe! I knew I should have had more confidence in you!"
267: 0x084F [0x23] WAIT_FOR_DIALOG_INTERACTION
268: 0x0850 [0x2B] Lilisette (ID: 17105539/0x01050283) [15768*]:
    → "<Player>, you're really something else."
269: 0x0857 [0x23] WAIT_FOR_DIALOG_INTERACTION
270: 0x0858 [0x5B] LOAD_EXT_SCHEDULER: Load scheduler "tlb1" with entities [Lilisette (ID: 17105539/0x01050283), Lilisette (ID: 17105539/0x01050283)], work=2133*
271: 0x0867 [0x52] END_LOAD_SCHEDULER: End scheduler "s010" with entities [EventEntity, EventEntity], work=765*
272: 0x0876 [0x01] GOTO 0x09B0
273: 0x0879 [0x02] IF !(Work_Zone[0] == 1*) GOTO 0x090B
274: 0x0881 [0x81] SET_ENTITY_BLINKING(blink_flag=0x00, entity=Lilisette (ID: 17105539/0x01050283))
275: 0x0887 [0x7C] Lilisette (ID: 17105539/0x01050283)->Render.Flags2 |= 0x00
276: 0x088D [0x5B] LOAD_EXT_SCHEDULER: Load scheduler "fm01" with entities [Lilisette (ID: 17105539/0x01050283), Lilisette (ID: 17105539/0x01050283)], work=2135*
277: 0x089C [0x5B] LOAD_EXT_SCHEDULER: Load scheduler "tha0" with entities [Lilisette (ID: 17105539/0x01050283), Lilisette (ID: 17105539/0x01050283)], work=2134*
278: 0x08AB [0x52] END_LOAD_SCHEDULER: End scheduler "s009" with entities [EventEntity, EventEntity], work=765*
279: 0x08BA [0x45] LOAD_SCHEDULED_TASK: Load scheduler "s011" with entities [EventEntity, EventEntity], work=[765*, 0*]
280: 0x08CB [0x2B] Lilisette (ID: 17105539/0x01050283) [15769*]:
    → "You're right. Maybe we can come up with something if we put our heads together."
281: 0x08D2 [0x23] WAIT_FOR_DIALOG_INTERACTION
282: 0x08D3 [0x2B] Lilisette (ID: 17105539/0x01050283) [15770*]:
    → "I'm not sure exactly how to go about it, though."
283: 0x08DA [0x23] WAIT_FOR_DIALOG_INTERACTION
284: 0x08DB [0x5B] LOAD_EXT_SCHEDULER: Load scheduler "fm00" with entities [Lilisette (ID: 17105539/0x01050283), Lilisette (ID: 17105539/0x01050283)], work=2135*
285: 0x08EA [0x5B] LOAD_EXT_SCHEDULER: Load scheduler "tha1" with entities [Lilisette (ID: 17105539/0x01050283), Lilisette (ID: 17105539/0x01050283)], work=2134*
286: 0x08F9 [0x52] END_LOAD_SCHEDULER: End scheduler "s011" with entities [EventEntity, EventEntity], work=765*
287: 0x0908 [0x01] GOTO 0x09B0
288: 0x090B [0x02] IF !(Work_Zone[0] == 2*) GOTO 0x09B0
289: 0x0913 [0x52] END_LOAD_SCHEDULER: End scheduler "s009" with entities [EventEntity, EventEntity], work=765*
290: 0x0922 [0x45] LOAD_SCHEDULED_TASK: Load scheduler "s012" with entities [EventEntity, EventEntity], work=[765*, 0*]
291: 0x0933 [0x2B] Lilisette (ID: 17105539/0x01050283) [15774*]:
    → "S-sorry for stepping out of line."
292: 0x093A [0x23] WAIT_FOR_DIALOG_INTERACTION
293: 0x093B [0x5B] LOAD_EXT_SCHEDULER: Load scheduler "yes0" with entities [Lilisette (ID: 17105539/0x01050283), Lilisette (ID: 17105539/0x01050283)], work=2139*
294: 0x094A [0x1C] WAIT(10* ticks)
295: 0x094D [0x2B] Lilisette (ID: 17105539/0x01050283) [15775*]:
    → "I might not be the sharpest knife in the drawer, but that doesn't mean I can't try my best to come up with something."
296: 0x0954 [0x1C] WAIT(180* ticks)
297: 0x0957 [0x23] WAIT_FOR_DIALOG_INTERACTION
298: 0x0958 [0x52] END_LOAD_SCHEDULER: End scheduler "s012" with entities [EventEntity, EventEntity], work=765*
299: 0x0967 [0x45] LOAD_SCHEDULED_TASK: Load scheduler "s013" with entities [EventEntity, EventEntity], work=[765*, 0*]
300: 0x0978 [0x5B] LOAD_EXT_SCHEDULER: Load scheduler "tla0" with entities [Lilisette (ID: 17105539/0x01050283), Lilisette (ID: 17105539/0x01050283)], work=2134*
301: 0x0987 [0x2B] Lilisette (ID: 17105539/0x01050283) [15776*]:
    → "After all, it's up to us to protect both the future and the past--and I hope you'd expect nothing less of me!"
302: 0x098E [0x23] WAIT_FOR_DIALOG_INTERACTION
303: 0x098F [0x5B] LOAD_EXT_SCHEDULER: Load scheduler "tla1" with entities [Lilisette (ID: 17105539/0x01050283), Lilisette (ID: 17105539/0x01050283)], work=2134*
304: 0x099E [0x52] END_LOAD_SCHEDULER: End scheduler "s013" with entities [EventEntity, EventEntity], work=765*
305: 0x09AD [0x01] GOTO 0x09B0

SUBROUTINE_09B0:
306: 0x09B0 [0x5D] SET_MUSIC_VOLUME(volume=0*, fade_time=180*)
307: 0x09B5 [0x02] IF !(LocalPlayer->Race == 3*) GOTO 0x09D1
308: 0x09BD [0x45] LOAD_SCHEDULED_TASK: Load scheduler "s015" with entities [EventEntity, EventEntity], work=[765*, 0*]
309: 0x09CE [0x01] GOTO 0x0A52
310: 0x09D1 [0x02] IF !(LocalPlayer->Race == 4*) GOTO 0x09ED
311: 0x09D9 [0x45] LOAD_SCHEDULED_TASK: Load scheduler "s016" with entities [EventEntity, EventEntity], work=[765*, 0*]
312: 0x09EA [0x01] GOTO 0x0A52
313: 0x09ED [0x02] IF !(LocalPlayer->Race == 5*) GOTO 0x0A09
314: 0x09F5 [0x45] LOAD_SCHEDULED_TASK: Load scheduler "s017" with entities [EventEntity, EventEntity], work=[765*, 0*]
315: 0x0A06 [0x01] GOTO 0x0A52
316: 0x0A09 [0x02] IF !(LocalPlayer->Race == 6*) GOTO 0x0A25
317: 0x0A11 [0x45] LOAD_SCHEDULED_TASK: Load scheduler "s017" with entities [EventEntity, EventEntity], work=[765*, 0*]
318: 0x0A22 [0x01] GOTO 0x0A52
319: 0x0A25 [0x02] IF !(LocalPlayer->Race == 8*) GOTO 0x0A41
320: 0x0A2D [0x45] LOAD_SCHEDULED_TASK: Load scheduler "s015" with entities [EventEntity, EventEntity], work=[765*, 0*]
321: 0x0A3E [0x01] GOTO 0x0A52
322: 0x0A41 [0x45] LOAD_SCHEDULED_TASK: Load scheduler "s014" with entities [EventEntity, EventEntity], work=[765*, 0*]

SUBROUTINE_0A52:
323: 0x0A52 [0xD0] LOAD_SCHEDULED_TASK_ALT5: Load scheduler "sta1" with entities [Unnamed NPC (ID: 17105705/0x01050329), Unnamed NPC (ID: 17105705/0x01050329)], work=[103*, 0*]
324: 0x0A63 [0x7B] LocalPlayer stops talking
325: 0x0A68 [0xD3] CLEAR_ENTITY_MOTION_QUEUE(condition_flag=0x00, entity_server_id=0x01050283)
326: 0x0A6E [0x81] SET_ENTITY_BLINKING(blink_flag=0x01, entity=Lilisette (ID: 17105539/0x01050283))
327: 0x0A74 [0x7C] Lilisette (ID: 17105539/0x01050283)->Render.Flags2 |= 0x01
328: 0x0A7A [0x1C] WAIT(120* ticks)
329: 0x0A7D [0x52] END_LOAD_SCHEDULER: End scheduler "s014" with entities [EventEntity, EventEntity], work=765*
330: 0x0A8C [0x52] END_LOAD_SCHEDULER: End scheduler "s015" with entities [EventEntity, EventEntity], work=765*
331: 0x0A9B [0x52] END_LOAD_SCHEDULER: End scheduler "s016" with entities [EventEntity, EventEntity], work=765*
332: 0x0AAA [0x52] END_LOAD_SCHEDULER: End scheduler "s017" with entities [EventEntity, EventEntity], work=765*
333: 0x0AB9 [0x45] LOAD_SCHEDULED_TASK: Load scheduler "s018" with entities [EventEntity, EventEntity], work=[765*, 0*]
334: 0x0ACA [0x2B] Lilisette (ID: 17105539/0x01050283) [15780*]:
    → "Oh? What is..."
335: 0x0AD1 [0x1C] WAIT(30* ticks)
336: 0x0AD4 [0xD0] LOAD_SCHEDULED_TASK_ALT5: Load scheduler "kil2" with entities [Unnamed NPC (ID: 17105705/0x01050329), Unnamed NPC (ID: 17105705/0x01050329)], work=[103*, 0*]
337: 0x0AE5 [0x27] REQ_SET(priority=0x05, entity_id=LocalPlayer, tag_num=0xA8)
338: 0x0AEC [0x1C] WAIT(90* ticks)
339: 0x0AEF [0x52] END_LOAD_SCHEDULER: End scheduler "s018" with entities [EventEntity, EventEntity], work=765*
340: 0x0AFE [0x02] IF !(LocalPlayer->Race == 5*) GOTO 0x0B1A
341: 0x0B06 [0x45] LOAD_SCHEDULED_TASK: Load scheduler "s175" with entities [EventEntity, EventEntity], work=[765*, 0*]
342: 0x0B17 [0x01] GOTO 0x0B47
343: 0x0B1A [0x02] IF !(LocalPlayer->Race == 6*) GOTO 0x0B36
344: 0x0B22 [0x45] LOAD_SCHEDULED_TASK: Load scheduler "s175" with entities [EventEntity, EventEntity], work=[765*, 0*]
345: 0x0B33 [0x01] GOTO 0x0B47
346: 0x0B36 [0x45] LOAD_SCHEDULED_TASK: Load scheduler "s174" with entities [EventEntity, EventEntity], work=[765*, 0*]

SUBROUTINE_0B47:
347: 0x0B47 [0xD0] LOAD_SCHEDULED_TASK_ALT5: Load scheduler "max0" with entities [Unnamed NPC (ID: 17105704/0x01050328), Unnamed NPC (ID: 17105704/0x01050328)], work=[150*, 0*]
348: 0x0B58 [0x1C] WAIT(80* ticks)
349: 0x0B5B [0x81] SET_ENTITY_BLINKING(blink_flag=0x00, entity=Lilisette (ID: 17105539/0x01050283))
350: 0x0B61 [0x7C] Lilisette (ID: 17105539/0x01050283)->Render.Flags2 |= 0x01
351: 0x0B67 [0x5B] LOAD_EXT_SCHEDULER: Load scheduler "han0" with entities [Lilisette (ID: 17105539/0x01050283), Lilisette (ID: 17105539/0x01050283)], work=3898*
352: 0x0B76 [0x52] END_LOAD_SCHEDULER: End scheduler "s174" with entities [EventEntity, EventEntity], work=765*
353: 0x0B85 [0x52] END_LOAD_SCHEDULER: End scheduler "s175" with entities [EventEntity, EventEntity], work=765*
354: 0x0B94 [0x45] LOAD_SCHEDULED_TASK: Load scheduler "s176" with entities [EventEntity, EventEntity], work=[765*, 0*]
355: 0x0BA5 [0x1C] WAIT(90* ticks)
356: 0x0BA8 [0xD0] LOAD_SCHEDULED_TASK_ALT5: Load scheduler "star" with entities [Unnamed NPC (ID: 17105704/0x01050328), Unnamed NPC (ID: 17105704/0x01050328)], work=[103*, 0*]
357: 0x0BB9 [0x1C] WAIT(30* ticks)
358: 0x0BBC [0x52] END_LOAD_SCHEDULER: End scheduler "s176" with entities [EventEntity, EventEntity], work=765*
359: 0x0BCB [0x45] LOAD_SCHEDULED_TASK: Load scheduler "s019" with entities [EventEntity, EventEntity], work=[765*, 0*]
360: 0x0BDC [0xD0] LOAD_SCHEDULED_TASK_ALT5: Load scheduler "tgt0" with entities [LocalPlayer, LocalPlayer], work=[117*, 0*]
361: 0x0BED [0x1C] WAIT(200* ticks)
362: 0x0BF0 [0x45] LOAD_SCHEDULED_TASK: Load scheduler "who1" with entities [LocalPlayer, LocalPlayer], work=[201*, 0*]
363: 0x0C01 [0x55] WAIT_LOAD_SCHEDULER: Wait for scheduler "who1" with entities [LocalPlayer, LocalPlayer], work=201*
364: 0x0C10 [0x1C] WAIT(60* ticks)
365: 0x0C13 [0x52] END_LOAD_SCHEDULER: End scheduler "s019" with entities [EventEntity, EventEntity], work=765*
366: 0x0C22 [0x45] LOAD_SCHEDULED_TASK: Load scheduler "s020" with entities [EventEntity, EventEntity], work=[765*, 0*]
367: 0x0C33 [0x1C] WAIT(15* ticks)
368: 0x0C36 [0x45] LOAD_SCHEDULED_TASK: Load scheduler "whi1" with entities [LocalPlayer, LocalPlayer], work=[201*, 0*]
369: 0x0C47 [0x5B] LOAD_EXT_SCHEDULER: Load scheduler "han1" with entities [Lilisette (ID: 17105539/0x01050283), Lilisette (ID: 17105539/0x01050283)], work=3898*
370: 0x0C56 [0x81] SET_ENTITY_BLINKING(blink_flag=0x01, entity=Lilisette (ID: 17105539/0x01050283))
371: 0x0C5C [0x1C] WAIT(140* ticks)
372: 0x0C5F [0x5B] LOAD_EXT_SCHEDULER: Load scheduler "hdb0" with entities [Lilisette (ID: 17105539/0x01050283), Lilisette (ID: 17105539/0x01050283)], work=2128*
373: 0x0C6E [0x1C] WAIT(10* ticks)
374: 0x0C71 [0x2B] Lilisette (ID: 17105539/0x01050283) [15781*]:
    → "Goodness! By the stars, what just happened!?"
375: 0x0C78 [0x23] WAIT_FOR_DIALOG_INTERACTION
376: 0x0C79 [0x2B] Lilisette (ID: 17105539/0x01050283) [15782*]:
    → "That was no dream, right? Or was it? I...I saw the future!"
377: 0x0C80 [0x23] WAIT_FOR_DIALOG_INTERACTION
378: 0x0C81 [0xD0] LOAD_SCHEDULED_TASK_ALT5: Load scheduler "kill" with entities [Unnamed NPC (ID: 17105704/0x01050328), Unnamed NPC (ID: 17105704/0x01050328)], work=[103*, 0*]
379: 0x0C92 [0x27] REQ_SET(priority=0x05, entity_id=LocalPlayer, tag_num=0xA9)
380: 0x0C99 [0x1C] WAIT(30* ticks)
381: 0x0C9C [0x52] END_LOAD_SCHEDULER: End scheduler "s020" with entities [EventEntity, EventEntity], work=765*
382: 0x0CAB [0x45] LOAD_SCHEDULED_TASK: Load scheduler "s021" with entities [EventEntity, EventEntity], work=[765*, 0*]
383: 0x0CBC [0x5B] LOAD_EXT_SCHEDULER: Load scheduler "hdb1" with entities [Lilisette (ID: 17105539/0x01050283), Lilisette (ID: 17105539/0x01050283)], work=2128*
384: 0x0CCB [0x2B] Lilisette (ID: 17105539/0x01050283) [15783*]:
    → "Nothing super far away, mind you, but something close that the two of us can bring about together!"
385: 0x0CD2 [0x23] WAIT_FOR_DIALOG_INTERACTION
386: 0x0CD3 [0x5C] MUSIC_CONTROL: Set Idle (Day) music to song 250*
387: 0x0CD7 [0x5C] MUSIC_CONTROL: Set Idle (Night) music to song 250*
388: 0x0CDB [0x9A] WAIT_MUSIC_SERVER()
389: 0x0CDC [0x52] END_LOAD_SCHEDULER: End scheduler "s021" with entities [EventEntity, EventEntity], work=765*
390: 0x0CEB [0x45] LOAD_SCHEDULED_TASK: Load scheduler "s023" with entities [EventEntity, EventEntity], work=[765*, 0*]
391: 0x0CFC [0xCD] LOAD_SCHEDULED_TASK_ALT4: Load scheduler "s000" with entities [Cait Sith (ID: 17105543/0x01050287), Cait Sith (ID: 17105543/0x01050287)], work=[51*, 0*]
392: 0x0D0D [0x2B] ??? (ID: 17105478/0x01050246) [15786*]:
    → "Something awful's happened! Not good at all!"
393: 0x0D14 [0x1C] WAIT(30* ticks)
394: 0x0D17 [0x6B] STOP_AND_IDLE: LocalPlayer stops current action and resets to idle (animation="idl0")
395: 0x0D20 [0x4E] SET_ENTITY_HIDE_FLAG: Hide Unnamed NPC (ID: 17105704/0x01050328)
396: 0x0D26 [0x1C] WAIT(60* ticks)
397: 0x0D29 [0x4A] Lilisette (ID: 17105539/0x01050283) looks at Cait Sith (ID: 17105543/0x01050287)
398: 0x0D32 [0x4A] LocalPlayer looks at Cait Sith (ID: 17105543/0x01050287)
399: 0x0D3B [0x02] IF !(ExtData[1]->WorkLocal[0] == 0*) GOTO 0x0D4D
400: 0x0D43 [0x2B] Lilisette (ID: 17105539/0x01050283) [15787*]:
    → "If it isn't that odd kitty cat!"
401: 0x0D4A [0x01] GOTO 0x0D54
402: 0x0D4D [0x2B] Lilisette (ID: 17105539/0x01050283) [15788*]:
    → "Cait Sith...? What's wrong?"

SUBROUTINE_0D54:
403: 0x0D54 [0x1C] WAIT(120* ticks)
404: 0x0D57 [0x52] END_LOAD_SCHEDULER: End scheduler "s023" with entities [EventEntity, EventEntity], work=765*
405: 0x0D66 [0x45] LOAD_SCHEDULED_TASK: Load scheduler "s024" with entities [EventEntity, EventEntity], work=[765*, 0*]
406: 0x0D77 [0x2B] Cait Sith (ID: 17105543/0x01050287) [15789*]:
    → "<Player>, it's about that ambassador "friend" of yours. The person you've been looking for."
407: 0x0D7E [0x23] WAIT_FOR_DIALOG_INTERACTION
408: 0x0D7F [0x03] Work_Zone[4] = 1*
409: 0x0D84 [0x2B] Cait Sith (ID: 17105543/0x01050287) [15790*]:
    → "He found his way [here/to the Walk of Echoes]!"
410: 0x0D8B [0x23] WAIT_FOR_DIALOG_INTERACTION
411: 0x0D8C [0x52] END_LOAD_SCHEDULER: End scheduler "s024" with entities [EventEntity, EventEntity], work=765*
412: 0x0D9B [0x02] IF !(ExtData[1]->WorkLocal[2] == 0*) GOTO 0x0E45
413: 0x0DA3 [0x45] LOAD_SCHEDULED_TASK: Load scheduler "s025" with entities [EventEntity, EventEntity], work=[765*, 0*]
414: 0x0DB4 [0x5B] LOAD_EXT_SCHEDULER: Load scheduler "thb0" with entities [Lilisette (ID: 17105539/0x01050283), Lilisette (ID: 17105539/0x01050283)], work=2133*
415: 0x0DC3 [0xBA] SET_ENTITY_POSITION(entity_id=Unnamed NPC (ID: 17105705/0x01050329), pos_x=140.415*, pos_z=106.449*, pos_y=-3.000*, direction=350.4°*)
416: 0x0DD0 [0x2B] Lilisette (ID: 17105539/0x01050283) [15791*]:
    → "The Walk of Echoes?"
417: 0x0DD7 [0x23] WAIT_FOR_DIALOG_INTERACTION
418: 0x0DD8 [0x5B] LOAD_EXT_SCHEDULER: Load scheduler "thb1" with entities [Lilisette (ID: 17105539/0x01050283), Lilisette (ID: 17105539/0x01050283)], work=2133*
419: 0x0DE7 [0x52] END_LOAD_SCHEDULER: End scheduler "s025" with entities [EventEntity, EventEntity], work=765*
420: 0x0DF6 [0x45] LOAD_SCHEDULED_TASK: Load scheduler "s026" with entities [EventEntity, EventEntity], work=[765*, 0*]
421: 0x0E07 [0x2B] Cait Sith (ID: 17105543/0x01050287) [15792*]:
    → "Oh dear. Here. I'll let <Player> explain the rest. Fill you in on the particulars."
422: 0x0E0E [0x1C] WAIT(60* ticks)
423: 0x0E11 [0x62] LOAD_EVENT_SCHEDULER: Load scheduler "main" with entities [Unnamed NPC (ID: 17105705/0x01050329), Unnamed NPC (ID: 17105705/0x01050329)], work=[3*, 0*]
424: 0x0E22 [0x23] WAIT_FOR_DIALOG_INTERACTION
425: 0x0E23 [0x2B] Cait Sith (ID: 17105543/0x01050287) [15793*]:
    → "I need you to make haste! Move like the wind!"
426: 0x0E2A [0x23] WAIT_FOR_DIALOG_INTERACTION
427: 0x0E2B [0x2B] Cait Sith (ID: 17105543/0x01050287) [15796*]:
    → "Quick! I'll open up a passage for you!"
428: 0x0E32 [0x23] WAIT_FOR_DIALOG_INTERACTION
429: 0x0E33 [0x52] END_LOAD_SCHEDULER: End scheduler "s026" with entities [EventEntity, EventEntity], work=765*
430: 0x0E42 [0x01] GOTO 0x0EC0
431: 0x0E45 [0x45] LOAD_SCHEDULED_TASK: Load scheduler "s027" with entities [EventEntity, EventEntity], work=[765*, 0*]
432: 0x0E56 [0x5B] LOAD_EXT_SCHEDULER: Load scheduler "tlc0" with entities [Lilisette (ID: 17105539/0x01050283), Lilisette (ID: 17105539/0x01050283)], work=2132*
433: 0x0E65 [0x03] Work_Zone[3] = 1*
434: 0x0E6A [0x2B] Lilisette (ID: 17105539/0x01050283) [15794*]:
    → "How terrible must this foe be if he's managed to make his way [to this world/to the Walk of Echoes]?"
435: 0x0E71 [0x23] WAIT_FOR_DIALOG_INTERACTION
436: 0x0E72 [0x5B] LOAD_EXT_SCHEDULER: Load scheduler "tlc1" with entities [Lilisette (ID: 17105539/0x01050283), Lilisette (ID: 17105539/0x01050283)], work=2132*
437: 0x0E81 [0x52] END_LOAD_SCHEDULER: End scheduler "s027" with entities [EventEntity, EventEntity], work=765*
438: 0x0E90 [0x45] LOAD_SCHEDULED_TASK: Load scheduler "s028" with entities [EventEntity, EventEntity], work=[765*, 0*]
439: 0x0EA1 [0x2B] Cait Sith (ID: 17105543/0x01050287) [15795*]:
    → "<Player>, I need you to make haste! Move like the wind!"
440: 0x0EA8 [0x23] WAIT_FOR_DIALOG_INTERACTION
441: 0x0EA9 [0x2B] Cait Sith (ID: 17105543/0x01050287) [15796*]:
    → "Quick! I'll open up a passage for you!"
442: 0x0EB0 [0x23] WAIT_FOR_DIALOG_INTERACTION
443: 0x0EB1 [0x52] END_LOAD_SCHEDULER: End scheduler "s028" with entities [EventEntity, EventEntity], work=765*

SUBROUTINE_0EC0:
444: 0x0EC0 [0x45] LOAD_SCHEDULED_TASK: Load scheduler "s029" with entities [EventEntity, EventEntity], work=[765*, 0*]
445: 0x0ED1 [0xCD] LOAD_SCHEDULED_TASK_ALT4: Load scheduler "st00" with entities [Cait Sith (ID: 17105543/0x01050287), Cait Sith (ID: 17105543/0x01050287)], work=[51*, 0*]
446: 0x0EE2 [0x1C] WAIT(150* ticks)
447: 0x0EE5 [0x52] END_LOAD_SCHEDULER: End scheduler "s029" with entities [EventEntity, EventEntity], work=765*
448: 0x0EF4 [0x45] LOAD_SCHEDULED_TASK: Load scheduler "s030" with entities [EventEntity, EventEntity], work=[765*, 0*]
449: 0x0F05 [0x4A] Lilisette (ID: 17105539/0x01050283) looks at LocalPlayer
450: 0x0F0E [0x7B] Lilisette (ID: 17105539/0x01050283) stops talking
451: 0x0F13 [0x1C] WAIT(30* ticks)
452: 0x0F16 [0x4A] LocalPlayer looks at Lilisette (ID: 17105539/0x01050283)
453: 0x0F1F [0x5B] LOAD_EXT_SCHEDULER: Load scheduler "tle0" with entities [Lilisette (ID: 17105539/0x01050283), Lilisette (ID: 17105539/0x01050283)], work=2132*
454: 0x0F2E [0x2B] Lilisette (ID: 17105539/0x01050283) [15798*]:
    → "That orb you carry...the light erased all my doubts and fears. I'm ready for whatever may come to pass."
455: 0x0F35 [0x23] WAIT_FOR_DIALOG_INTERACTION
456: 0x0F36 [0x2B] Lilisette (ID: 17105539/0x01050283) [15799*]:
    → "Together we have the strength to conquer the darkness!"
457: 0x0F3D [0x23] WAIT_FOR_DIALOG_INTERACTION
458: 0x0F3E [0x5B] LOAD_EXT_SCHEDULER: Load scheduler "tle1" with entities [Lilisette (ID: 17105539/0x01050283), Lilisette (ID: 17105539/0x01050283)], work=2132*
459: 0x0F4D [0x02] IF !(ExtData[1]->WorkLocal[2] == 1*) GOTO 0x0F83
460: 0x0F55 [0x1C] WAIT(30* ticks)
461: 0x0F58 [0x52] END_LOAD_SCHEDULER: End scheduler "s030" with entities [EventEntity, EventEntity], work=765*
462: 0x0F67 [0x45] LOAD_SCHEDULED_TASK: Load scheduler "s031" with entities [EventEntity, EventEntity], work=[765*, 0*]
463: 0x0F78 [0x2B] Lilisette (ID: 17105539/0x01050283) [15800*]:
    → "I'll be waiting for you in the Walk of Echoes."
464: 0x0F7F [0x23] WAIT_FOR_DIALOG_INTERACTION
465: 0x0F80 [0x01] GOTO 0x0FD6
466: 0x0F83 [0x27] REQ_SET(priority=0x05, entity_id=LocalPlayer, tag_num=0x1D)
467: 0x0F8A [0x1C] WAIT(80* ticks)
468: 0x0F8D [0x27] REQ_SET(priority=0x05, entity_id=LocalPlayer, tag_num=0x1E)
469: 0x0F94 [0x1C] WAIT(40* ticks)
470: 0x0F97 [0x52] END_LOAD_SCHEDULER: End scheduler "s030" with entities [EventEntity, EventEntity], work=765*
471: 0x0FA6 [0x45] LOAD_SCHEDULED_TASK: Load scheduler "s031" with entities [EventEntity, EventEntity], work=[765*, 0*]
472: 0x0FB7 [0x5B] LOAD_EXT_SCHEDULER: Load scheduler "yes0" with entities [Lilisette (ID: 17105539/0x01050283), Lilisette (ID: 17105539/0x01050283)], work=2139*
473: 0x0FC6 [0x2B] Lilisette (ID: 17105539/0x01050283) [15801*]:
    → "And this Walk of Echoes...we can get there from a cavernous maw?"
474: 0x0FCD [0x23] WAIT_FOR_DIALOG_INTERACTION
475: 0x0FCE [0x2B] Lilisette (ID: 17105539/0x01050283) [15802*]:
    → "Got it! I'll meet you there!"
476: 0x0FD5 [0x23] WAIT_FOR_DIALOG_INTERACTION

SUBROUTINE_0FD6:
477: 0x0FD6 [0x52] END_LOAD_SCHEDULER: End scheduler "s031" with entities [EventEntity, EventEntity], work=765*
478: 0x0FE5 [0x45] LOAD_SCHEDULED_TASK: Load scheduler "s034" with entities [EventEntity, EventEntity], work=[765*, 0*]
479: 0x0FF6 [0x27] REQ_SET(priority=0x05, entity_id=Lilisette (ID: 17105539/0x01050283), tag_num=0x43)
480: 0x0FFD [0x1C] WAIT(120* ticks)
481: 0x1000 [0x5D] SET_MUSIC_VOLUME(volume=0*, fade_time=180*)
482: 0x1005 [0x45] LOAD_SCHEDULED_TASK: Load scheduler "fdo1" with entities [EventEntity, EventEntity], work=[200*, 0*]
483: 0x1016 [0x55] WAIT_LOAD_SCHEDULER: Wait for scheduler "fdo1" with entities [EventEntity, EventEntity], work=200*
484: 0x1025 [0x52] END_LOAD_SCHEDULER: End scheduler "s034" with entities [EventEntity, EventEntity], work=765*
485: 0x1034 [0x27] REQ_SET(priority=0x05, entity_id=Cait Sith (ID: 17105543/0x01050287), tag_num=0x28)
486: 0x103B [0x02] IF !(ExtData[1]->WorkLocal[1] == 1*) GOTO 0x104A
487: 0x1043 [0x27] REQ_SET(priority=0x05, entity_id=Cait Sith (ID: 17105543/0x01050287), tag_num=0x2A)
488: 0x104A [0x5C] MUSIC_CONTROL: Set Idle (Day) music to song 254*
489: 0x104E [0x5C] MUSIC_CONTROL: Set Idle (Night) music to song 254*
490: 0x1052 [0x9A] WAIT_MUSIC_SERVER()
491: 0x1053 [0x46] CAMERA_CONTROL: Restore default settings
492: 0x1055 [0x45] LOAD_SCHEDULED_TASK: Load scheduler "fdi2" with entities [EventEntity, EventEntity], work=[200*, 0*]
493: 0x1066 [0x1B] RETURN
```

### Event 184

#### Metadata

| Field        | Value     |
|--------------|-----------|
| Entrypoint   | 0x1067    |
| Data Size    | 663 bytes |
| Instructions | 4         |

```
      00 01 02 03 04 05 06 07  08 09 0A 0B 0C 0D 0E 0F
      -- -- -- -- -- -- -- --  -- -- -- -- -- -- -- --
1060:                      42  1A 37 00 21 00 45 00 80         B.7.!.E..
1070: F0 FF FF 7F F0 FF FF 7F  66 64 69 30 01 80 55 00  ........fdi0..U.
1080: 80 F0 FF FF 7F F0 FF FF  7F 66 64 69 30 1B 45 00  .........fdi0.E.
1090: 80 F0 FF FF 7F F0 FF FF  7F 66 64 6F 30 01 80 55  .........fdo0..U
10A0: 00 80 F0 FF FF 7F F0 FF  FF 7F 66 64 6F 30 1B 45  ..........fdo0.E
10B0: 00 80 F0 FF FF 7F F0 FF  FF 7F 66 64 69 31 01 80  ..........fdi1..
10C0: 55 00 80 F0 FF FF 7F F0  FF FF 7F 66 64 69 31 1B  U..........fdi1.
10D0: 45 00 80 F0 FF FF 7F F0  FF FF 7F 66 64 6F 31 01  E..........fdo1.
10E0: 80 55 00 80 F0 FF FF 7F  F0 FF FF 7F 66 64 6F 31  .U..........fdo1
10F0: 1B 45 5F 80 F0 FF FF 7F  F0 FF FF 7F 77 68 69 31  .E_.........whi1
1100: 01 80 55 5F 80 F0 FF FF  7F F0 FF FF 7F 77 68 69  ..U_.........whi
1110: 31 1B 45 5F 80 F0 FF FF  7F F0 FF FF 7F 77 68 6F  1.E_.........who
1120: 31 01 80 55 5F 80 F0 FF  FF 7F F0 FF FF 7F 77 68  1..U_.........wh
1130: 6F 31 1B 45 5F 80 F0 FF  FF 7F F0 FF FF 7F 77 68  o1.E_.........wh
1140: 6F 32 01 80 55 5F 80 F0  FF FF 7F F0 FF FF 7F 77  o2..U_.........w
1150: 68 6F 32 1B 45 5F 80 F0  FF FF 7F F0 FF FF 7F 77  ho2.E_.........w
1160: 68 6F 33 01 80 55 5F 80  F0 FF FF 7F F0 FF FF 7F  ho3..U_.........
1170: 77 68 6F 33 1B 62 04 80  F0 FF FF 7F F0 FF FF 7F  who3.b..........
1180: 6D 61 69 6E 01 80 1C 7B  80 45 00 80 F0 FF FF 7F  main...{.E......
1190: F0 FF FF 7F 66 64 6F 31  01 80 55 00 80 F0 FF FF  ....fdo1..U.....
11A0: 7F F0 FF FF 7F 66 64 6F  31 1B 45 00 80 F0 FF FF  .....fdo1.E.....
11B0: 7F F0 FF FF 7F 66 64 69  31 01 80 62 02 80 F0 FF  .....fdi1..b....
11C0: FF 7F F0 FF FF 7F 6D 61  69 6E 01 80 1C 22 80 55  ......main...".U
11D0: 00 80 F0 FF FF 7F F0 FF  FF 7F 66 64 69 31 1B 45  ..........fdi1.E
11E0: 00 80 F0 FF FF 7F F0 FF  FF 7F 62 6C 6F 6E 01 80  ..........blon..
11F0: 45 5F 80 F0 FF FF 7F F0  FF FF 7F 62 6C 6F 6E 01  E_.........blon.
1200: 80 1B 45 5F 80 F0 FF FF  7F F0 FF FF 7F 77 68 69  ..E_.........whi
1210: 30 01 80 55 5F 80 F0 FF  FF 7F F0 FF FF 7F 77 68  0..U_.........wh
1220: 69 30 1B 45 5F 80 F0 FF  FF 7F F0 FF FF 7F 77 68  i0.E_.........wh
1230: 6F 30 01 80 55 5F 80 F0  FF FF 7F F0 FF FF 7F 77  o0..U_.........w
1240: 68 6F 30 1B 45 7C 80 F0  FF FF 7F F0 FF FF 7F 65  ho0.E|.........e
1250: 66 6F 6E 01 80 55 7C 80  F0 FF FF 7F F0 FF FF 7F  fon..U|.........
1260: 65 66 6F 6E 1B 45 00 80  F0 FF FF 7F F0 FF FF 7F  efon.E..........
1270: 66 64 69 73 01 80 1B 45  00 80 F0 FF FF 7F F0 FF  fdis...E........
1280: FF 7F 66 64 6F 73 01 80  55 00 80 F0 FF FF 7F F0  ..fdos..U.......
1290: FF FF 7F 66 64 6F 73 1B  45 00 80 F0 FF FF 7F F0  ...fdos.E.......
12A0: FF FF 7F 66 64 69 66 01  80 1B 45 00 80 F0 FF FF  ...fdif...E.....
12B0: 7F F0 FF FF 7F 66 64 6F  66 01 80 55 00 80 F0 FF  .....fdof..U....
12C0: FF 7F F0 FF FF 7F 66 64  6F 66 1B 45 00 80 F0 FF  ......fdof.E....
12D0: FF 7F F0 FF FF 7F 66 64  69 70 01 80 1B 45 00 80  ......fdip...E..
12E0: F0 FF FF 7F F0 FF FF 7F  66 64 6F 70 01 80 55 00  ........fdop..U.
12F0: 80 F0 FF FF 7F F0 FF FF  7F 66 64 6F 70 1B        .........fdop.  
```

#### Opcodes

```
  0: 0x1067 [0x42] SET_CLI_EVENT_CANCEL_DATA()
  1: 0x1068 [0x1A] CALL_SUBROUTINE(address=0x0037)
  2: 0x106B [0x21] END_EVENT
  3: 0x106C [0x00] END_REQSTACK()
```

#### Data or dead code:

```
# Dead code (unreachable instructions):
     0x106D [0x45] LOAD_SCHEDULED_TASK: Load scheduler "fdi0" with entities [LocalPlayer, LocalPlayer], work=[200*, 0*]
     0x107E [0x55] WAIT_LOAD_SCHEDULER: Wait for scheduler "fdi0" with entities [LocalPlayer, LocalPlayer], work=200*
     0x108D [0x1B] RETURN
     0x108E [0x45] LOAD_SCHEDULED_TASK: Load scheduler "fdo0" with entities [LocalPlayer, LocalPlayer], work=[200*, 0*]
     0x109F [0x55] WAIT_LOAD_SCHEDULER: Wait for scheduler "fdo0" with entities [LocalPlayer, LocalPlayer], work=200*
     0x10AE [0x1B] RETURN
     0x10AF [0x45] LOAD_SCHEDULED_TASK: Load scheduler "fdi1" with entities [LocalPlayer, LocalPlayer], work=[200*, 0*]
     0x10C0 [0x55] WAIT_LOAD_SCHEDULER: Wait for scheduler "fdi1" with entities [LocalPlayer, LocalPlayer], work=200*
     0x10CF [0x1B] RETURN
     0x10D0 [0x45] LOAD_SCHEDULED_TASK: Load scheduler "fdo1" with entities [LocalPlayer, LocalPlayer], work=[200*, 0*]
     0x10E1 [0x55] WAIT_LOAD_SCHEDULER: Wait for scheduler "fdo1" with entities [LocalPlayer, LocalPlayer], work=200*
     0x10F0 [0x1B] RETURN
     0x10F1 [0x45] LOAD_SCHEDULED_TASK: Load scheduler "whi1" with entities [LocalPlayer, LocalPlayer], work=[201*, 0*]
     0x1102 [0x55] WAIT_LOAD_SCHEDULER: Wait for scheduler "whi1" with entities [LocalPlayer, LocalPlayer], work=201*
     0x1111 [0x1B] RETURN
     0x1112 [0x45] LOAD_SCHEDULED_TASK: Load scheduler "who1" with entities [LocalPlayer, LocalPlayer], work=[201*, 0*]
     0x1123 [0x55] WAIT_LOAD_SCHEDULER: Wait for scheduler "who1" with entities [LocalPlayer, LocalPlayer], work=201*
     0x1132 [0x1B] RETURN
     0x1133 [0x45] LOAD_SCHEDULED_TASK: Load scheduler "who2" with entities [LocalPlayer, LocalPlayer], work=[201*, 0*]
     0x1144 [0x55] WAIT_LOAD_SCHEDULER: Wait for scheduler "who2" with entities [LocalPlayer, LocalPlayer], work=201*
     0x1153 [0x1B] RETURN
     0x1154 [0x45] LOAD_SCHEDULED_TASK: Load scheduler "who3" with entities [LocalPlayer, LocalPlayer], work=[201*, 0*]
     0x1165 [0x55] WAIT_LOAD_SCHEDULER: Wait for scheduler "who3" with entities [LocalPlayer, LocalPlayer], work=201*
     0x1174 [0x1B] RETURN
     0x1175 [0x62] LOAD_EVENT_SCHEDULER: Load scheduler "main" with entities [LocalPlayer, LocalPlayer], work=[1*, 0*]
     0x1186 [0x1C] WAIT(45* ticks)
     0x1189 [0x45] LOAD_SCHEDULED_TASK: Load scheduler "fdo1" with entities [LocalPlayer, LocalPlayer], work=[200*, 0*]
     0x119A [0x55] WAIT_LOAD_SCHEDULER: Wait for scheduler "fdo1" with entities [LocalPlayer, LocalPlayer], work=200*
     0x11A9 [0x1B] RETURN
     0x11AA [0x45] LOAD_SCHEDULED_TASK: Load scheduler "fdi1" with entities [LocalPlayer, LocalPlayer], work=[200*, 0*]
     0x11BB [0x62] LOAD_EVENT_SCHEDULER: Load scheduler "main" with entities [LocalPlayer, LocalPlayer], work=[2*, 0*]
     0x11CC [0x1C] WAIT(30* ticks)
     0x11CF [0x55] WAIT_LOAD_SCHEDULER: Wait for scheduler "fdi1" with entities [LocalPlayer, LocalPlayer], work=200*
     0x11DE [0x1B] RETURN
     0x11DF [0x45] LOAD_SCHEDULED_TASK: Load scheduler "blon" with entities [LocalPlayer, LocalPlayer], work=[200*, 0*]
     0x11F0 [0x45] LOAD_SCHEDULED_TASK: Load scheduler "blon" with entities [LocalPlayer, LocalPlayer], work=[201*, 0*]
     0x1201 [0x1B] RETURN
     0x1202 [0x45] LOAD_SCHEDULED_TASK: Load scheduler "whi0" with entities [LocalPlayer, LocalPlayer], work=[201*, 0*]
     0x1213 [0x55] WAIT_LOAD_SCHEDULER: Wait for scheduler "whi0" with entities [LocalPlayer, LocalPlayer], work=201*
     0x1222 [0x1B] RETURN
     0x1223 [0x45] LOAD_SCHEDULED_TASK: Load scheduler "who0" with entities [LocalPlayer, LocalPlayer], work=[201*, 0*]
     0x1234 [0x55] WAIT_LOAD_SCHEDULER: Wait for scheduler "who0" with entities [LocalPlayer, LocalPlayer], work=201*
     0x1243 [0x1B] RETURN
     0x1244 [0x45] LOAD_SCHEDULED_TASK: Load scheduler "efon" with entities [LocalPlayer, LocalPlayer], work=[215*, 0*]
     0x1255 [0x55] WAIT_LOAD_SCHEDULER: Wait for scheduler "efon" with entities [LocalPlayer, LocalPlayer], work=215*
     0x1264 [0x1B] RETURN
     0x1265 [0x45] LOAD_SCHEDULED_TASK: Load scheduler "fdis" with entities [LocalPlayer, LocalPlayer], work=[200*, 0*]
     0x1276 [0x1B] RETURN
     0x1277 [0x45] LOAD_SCHEDULED_TASK: Load scheduler "fdos" with entities [LocalPlayer, LocalPlayer], work=[200*, 0*]
     0x1288 [0x55] WAIT_LOAD_SCHEDULER: Wait for scheduler "fdos" with entities [LocalPlayer, LocalPlayer], work=200*
     0x1297 [0x1B] RETURN
     0x1298 [0x45] LOAD_SCHEDULED_TASK: Load scheduler "fdif" with entities [LocalPlayer, LocalPlayer], work=[200*, 0*]
     0x12A9 [0x1B] RETURN
     0x12AA [0x45] LOAD_SCHEDULED_TASK: Load scheduler "fdof" with entities [LocalPlayer, LocalPlayer], work=[200*, 0*]
     0x12BB [0x55] WAIT_LOAD_SCHEDULER: Wait for scheduler "fdof" with entities [LocalPlayer, LocalPlayer], work=200*
     0x12CA [0x1B] RETURN
     0x12CB [0x45] LOAD_SCHEDULED_TASK: Load scheduler "fdip" with entities [LocalPlayer, LocalPlayer], work=[200*, 0*]
     0x12DC [0x1B] RETURN
     0x12DD [0x45] LOAD_SCHEDULED_TASK: Load scheduler "fdop" with entities [LocalPlayer, LocalPlayer], work=[200*, 0*]
     0x12EE [0x55] WAIT_LOAD_SCHEDULER: Wait for scheduler "fdop" with entities [LocalPlayer, LocalPlayer], work=200*
     0x12FD [0x1B] RETURN
```
