# 17105617

## Common Data

| Field            | Value                            |
|------------------|----------------------------------|
| Zone             | Southern San d'Oria [S] (ID: 80) |
| Block Size       | 28204 bytes                      |
| Total Events     | 7                                |
| References Count | 543                              |

## List of Events

| Event ID              | Entrypoint   |   Size |   Instructions |
|-----------------------|--------------|--------|----------------|
| [65535](#event-65535) | 0x0000       |      1 |              1 |
| [89](#event-89)       | 0x0001       |  10369 |           1273 |
| [90](#event-90)       | 0x2882       |   2945 |            363 |
| [92](#event-92)       | 0x3403       |      1 |              1 |
| [145](#event-145)     | 0x3404       |   2444 |            281 |
| [146](#event-146)     | 0x3D90       |   8334 |            881 |
| [165](#event-165)     | 0x5E1E       |   1894 |            221 |

## DAT References (imed_data)

|   Index | Hex Value   |   Dec Value |
|---------|-------------|-------------|
|       0 | 0x0013      |          19 |
|       1 | 0x01E6      |         486 |
|       2 | 0x965B      |       38491 |
|       3 | 0xFFFFF922  |  4294965538 |
|       4 | 0x0CDA      |        3290 |
|       5 | 0x001E      |          30 |
|       6 | 0x0984      |        2436 |
|       7 | 0xA348      |       41800 |
|       8 | 0xFFFFF830  |  4294965296 |
|       9 | 0x0C29      |        3113 |
|      10 | 0x01C4      |         452 |
|      11 | 0x0000      |           0 |
|      12 | 0x00C8      |         200 |
|      13 | 0x0078      |         120 |
|      14 | 0x0001      |           1 |
|      15 | 0x317A      |       12666 |
|      16 | 0x317B      |       12667 |
|      17 | 0x00B4      |         180 |
|      18 | 0x00E9      |         233 |
|      19 | 0x00FF      |         255 |
|      20 | 0xFFFFFF63  |  4294967139 |
|      21 | 0xFFFFCD7C  |  4294954364 |
|      22 | 0x0BCF      |        3023 |
|      23 | 0xFFFFFF81  |  4294967169 |
|      24 | 0x226E      |        8814 |
|      25 | 0xFFFFFA25  |  4294965797 |
|      26 | 0x03D3      |         979 |
|      27 | 0x0569      |        1385 |
|      28 | 0x26B4      |        9908 |
|      29 | 0x03D2      |         978 |
|      30 | 0x08D4      |        2260 |
|      31 | 0x029C      |         668 |
|      32 | 0x0976      |        2422 |
|      33 | 0xFFFFF921  |  4294965537 |
|      34 | 0x0884      |        2180 |
|      35 | 0xFFFFF107  |  4294963463 |
|      36 | 0x0950      |        2384 |
|      37 | 0xFFFFE9C5  |  4294961605 |
|      38 | 0x08AB      |        2219 |
|      39 | 0xFFFFE398  |  4294960024 |
|      40 | 0x005F      |          95 |
|      41 | 0x018E      |         398 |
|      42 | 0x00DA      |         218 |
|      43 | 0xFFFFF88D  |  4294965389 |
|      44 | 0x004F      |          79 |
|      45 | 0xFFFFF0FB  |  4294963451 |
|      46 | 0x0096      |         150 |
|      47 | 0xFFFFE934  |  4294961460 |
|      48 | 0xFFFFF476  |  4294964342 |
|      49 | 0x022F      |         559 |
|      50 | 0x0BD0      |        3024 |
|      51 | 0xFFFFF158  |  4294963544 |
|      52 | 0xFFFFF947  |  4294965575 |
|      53 | 0xFFFFF820  |  4294965280 |
|      54 | 0xFFFFF7CC  |  4294965196 |
|      55 | 0xFFFFF152  |  4294963538 |
|      56 | 0xFFFFF7FC  |  4294965244 |
|      57 | 0xFFFFEB7C  |  4294962044 |
|      58 | 0xFFFFF83E  |  4294965310 |
|      59 | 0xFFFFE524  |  4294960420 |
|      60 | 0x0B56      |        2902 |
|      61 | 0x009C      |         156 |
|      62 | 0x000F      |          15 |
|      63 | 0x001D      |          29 |
|      64 | 0x317C      |       12668 |
|      65 | 0x0155      |         341 |
|      66 | 0x003C      |          60 |
|      67 | 0x05A2      |        1442 |
|      68 | 0x0942      |        2370 |
|      69 | 0x0002      |           2 |
|      70 | 0x0003      |           3 |
|      71 | 0x0004      |           4 |
|      72 | 0x0005      |           5 |
|      73 | 0x0006      |           6 |
|      74 | 0x0007      |           7 |
|      75 | 0x0008      |           8 |
|      76 | 0xFFFFF4A6  |  4294964390 |
|      77 | 0xFFFFD226  |  4294955558 |
|      78 | 0x317D      |       12669 |
|      79 | 0xFFFFF218  |  4294963736 |
|      80 | 0xFFFFF275  |  4294963829 |
|      81 | 0x317E      |       12670 |
|      82 | 0x317F      |       12671 |
|      83 | 0x3180      |       12672 |
|      84 | 0x3181      |       12673 |
|      85 | 0x3182      |       12674 |
|      86 | 0x3183      |       12675 |
|      87 | 0x3184      |       12676 |
|      88 | 0x008C      |         140 |
|      89 | 0x3185      |       12677 |
|      90 | 0x0024      |          36 |
|      91 | 0x0028      |          40 |
|      92 | 0x0064      |         100 |
|      93 | 0x3186      |       12678 |
|      94 | 0x3187      |       12679 |
|      95 | 0x3188      |       12680 |
|      96 | 0x00F0      |         240 |
|      97 | 0x3189      |       12681 |
|      98 | 0x0099      |         153 |
|      99 | 0x318A      |       12682 |
|     100 | 0x318B      |       12683 |
|     101 | 0x318C      |       12684 |
|     102 | 0x0051      |          81 |
|     103 | 0x204CE     |      132302 |
|     104 | 0x45E53     |      286291 |
|     105 | 0xFFFF16E0  |  4294907616 |
|     106 | 0x016E      |         366 |
|     107 | 0x1F8C6     |      129222 |
|     108 | 0x45DA0     |      286112 |
|     109 | 0xFFFF16DB  |  4294907611 |
|     110 | 0x016F      |         367 |
|     111 | 0x20022     |      131106 |
|     112 | 0x47440     |      291904 |
|     113 | 0xFFFF1652  |  4294907474 |
|     114 | 0x1F4FA     |      128250 |
|     115 | 0x46B7B     |      289659 |
|     116 | 0xFFFF160C  |  4294907404 |
|     117 | 0x1EAFE     |      125694 |
|     118 | 0x461B9     |      287161 |
|     119 | 0xFFFF15CB  |  4294907339 |
|     120 | 0x1F5A5     |      128421 |
|     121 | 0x47D6E     |      294254 |
|     122 | 0xFFFF15D7  |  4294907351 |
|     123 | 0x1E7ED     |      124909 |
|     124 | 0x47546     |      292166 |
|     125 | 0xFFFF15B3  |  4294907315 |
|     126 | 0x1DFC0     |      122816 |
|     127 | 0x4686A     |      288874 |
|     128 | 0xFFFF15A1  |  4294907297 |
|     129 | 0x1C968     |      117096 |
|     130 | 0x416FD     |      268029 |
|     131 | 0xFFFF1794  |  4294907796 |
|     132 | 0x1D535     |      120117 |
|     133 | 0x43F83     |      278403 |
|     134 | 0x1DE02     |      122370 |
|     135 | 0x44CAA     |      281770 |
|     136 | 0x1CF58     |      118616 |
|     137 | 0x43775     |      276341 |
|     138 | 0xFFFF1571  |  4294907249 |
|     139 | 0x1B906     |      112902 |
|     140 | 0x3FCC8     |      261320 |
|     141 | 0xFFFF15D4  |  4294907348 |
|     142 | 0x1D955     |      121173 |
|     143 | 0x450D7     |      282839 |
|     144 | 0xFFFF15A0  |  4294907296 |
|     145 | 0x1D3E1     |      119777 |
|     146 | 0x44BB1     |      281521 |
|     147 | 0x1CF11     |      118545 |
|     148 | 0x445B8     |      279992 |
|     149 | 0x1D1D5     |      119253 |
|     150 | 0x4565A     |      284250 |
|     151 | 0x1CCAB     |      117931 |
|     152 | 0x451AE     |      283054 |
|     153 | 0x1C634     |      116276 |
|     154 | 0x44CE5     |      281829 |
|     155 | 0x0943      |        2371 |
|     156 | 0x05D3      |        1491 |
|     157 | 0x00FB      |         251 |
|     158 | 0x00A0      |         160 |
|     159 | 0x0014      |          20 |
|     160 | 0x318D      |       12685 |
|     161 | 0x000A      |          10 |
|     162 | 0x0031      |          49 |
|     163 | 0x318E      |       12686 |
|     164 | 0x0089      |         137 |
|     165 | 0x000C      |          12 |
|     166 | 0xFFFDD0CA  |  4294824138 |
|     167 | 0x9EE4      |       40676 |
|     168 | 0xFFFF74E7  |  4294931687 |
|     169 | 0x0791      |        1937 |
|     170 | 0xFFFDD492  |  4294825106 |
|     171 | 0xA9AC      |       43436 |
|     172 | 0xFFFF746C  |  4294931564 |
|     173 | 0x00A4      |         164 |
|     174 | 0x318F      |       12687 |
|     175 | 0x3190      |       12688 |
|     176 | 0x3191      |       12689 |
|     177 | 0x0026      |          38 |
|     178 | 0x1DEED     |      122605 |
|     179 | 0x44324     |      279332 |
|     180 | 0x1DC97     |      122007 |
|     181 | 0x4368D     |      276109 |
|     182 | 0xFFFF158F  |  4294907279 |
|     183 | 0x3192      |       12690 |
|     184 | 0x3193      |       12691 |
|     185 | 0x00CC      |         204 |
|     186 | 0x3194      |       12692 |
|     187 | 0x00BA      |         186 |
|     188 | 0x007D      |         125 |
|     189 | 0x0560      |        1376 |
|     190 | 0x3195      |       12693 |
|     191 | 0x3196      |       12694 |
|     192 | 0x3197      |       12695 |
|     193 | 0x3198      |       12696 |
|     194 | 0x3199      |       12697 |
|     195 | 0x319A      |       12698 |
|     196 | 0x319B      |       12699 |
|     197 | 0x319C      |       12700 |
|     198 | 0x319D      |       12701 |
|     199 | 0x00FA      |         250 |
|     200 | 0x319E      |       12702 |
|     201 | 0x319F      |       12703 |
|     202 | 0x31A0      |       12704 |
|     203 | 0x31A1      |       12705 |
|     204 | 0x31A2      |       12706 |
|     205 | 0x31A3      |       12707 |
|     206 | 0x31A4      |       12708 |
|     207 | 0x1FD0A     |      130314 |
|     208 | 0x45564     |      284004 |
|     209 | 0xFFFF1791  |  4294907793 |
|     210 | 0x0694      |        1684 |
|     211 | 0x31A5      |       12709 |
|     212 | 0x31A6      |       12710 |
|     213 | 0x31A7      |       12711 |
|     214 | 0x31A8      |       12712 |
|     215 | 0x31A9      |       12713 |
|     216 | 0x31AA      |       12714 |
|     217 | 0x0050      |          80 |
|     218 | 0x1812B     |       98603 |
|     219 | 0xFFFF4C3F  |  4294921279 |
|     220 | 0x03E8      |        1000 |
|     221 | 0x18085     |       98437 |
|     222 | 0xFFFF552E  |  4294923566 |
|     223 | 0x0AA0      |        2720 |
|     224 | 0x18D96     |      101782 |
|     225 | 0xFFFF5902  |  4294924546 |
|     226 | 0x03E7      |         999 |
|     227 | 0x0B1F      |        2847 |
|     228 | 0xFFFF1AE9  |  4294908649 |
|     229 | 0xFFFFE1C6  |  4294959558 |
|     230 | 0x07CF      |        1999 |
|     231 | 0x02F4      |         756 |
|     232 | 0x00FE      |         254 |
|     233 | 0x000D      |          13 |
|     234 | 0x05A3      |        1443 |
|     235 | 0x31AB      |       12715 |
|     236 | 0x31AC      |       12716 |
|     237 | 0x31AD      |       12717 |
|     238 | 0x05A6      |        1446 |
|     239 | 0x31AE      |       12718 |
|     240 | 0x0434      |        1076 |
|     241 | 0x0435      |        1077 |
|     242 | 0x31AF      |       12719 |
|     243 | 0x00A3      |         163 |
|     244 | 0x31B0      |       12720 |
|     245 | 0x052F      |        1327 |
|     246 | 0x31B1      |       12721 |
|     247 | 0x31B2      |       12722 |
|     248 | 0x003B      |          59 |
|     249 | 0x31B3      |       12723 |
|     250 | 0x31B4      |       12724 |
|     251 | 0x31B5      |       12725 |
|     252 | 0x31B6      |       12726 |
|     253 | 0x31B7      |       12727 |
|     254 | 0x31B8      |       12728 |
|     255 | 0x31B9      |       12729 |
|     256 | 0x31BA      |       12730 |
|     257 | 0x0180      |         384 |
|     258 | 0xFFFF3293  |  4294914707 |
|     259 | 0xFFFFD377  |  4294955895 |
|     260 | 0x08F4      |        2292 |
|     261 | 0xFFFF30AC  |  4294914220 |
|     262 | 0xFFFFC969  |  4294953321 |
|     263 | 0xFFFF38A1  |  4294916257 |
|     264 | 0xFFFFCB07  |  4294953735 |
|     265 | 0x31BB      |       12731 |
|     266 | 0x31BC      |       12732 |
|     267 | 0x31BD      |       12733 |
|     268 | 0x31BE      |       12734 |
|     269 | 0x31BF      |       12735 |
|     270 | 0x31C0      |       12736 |
|     271 | 0x31C1      |       12737 |
|     272 | 0x00D8      |         216 |
|     273 | 0x31C2      |       12738 |
|     274 | 0x31C3      |       12739 |
|     275 | 0x0020      |          32 |
|     276 | 0x31C4      |       12740 |
|     277 | 0x31C5      |       12741 |
|     278 | 0x0025      |          37 |
|     279 | 0x31C6      |       12742 |
|     280 | 0x31C7      |       12743 |
|     281 | 0x0009      |           9 |
|     282 | 0x0010      |          16 |
|     283 | 0x31C8      |       12744 |
|     284 | 0x31C9      |       12745 |
|     285 | 0x000B      |          11 |
|     286 | 0x31CA      |       12746 |
|     287 | 0x31CB      |       12747 |
|     288 | 0x000E      |          14 |
|     289 | 0x0016      |          22 |
|     290 | 0x31CC      |       12748 |
|     291 | 0x31CD      |       12749 |
|     292 | 0x0011      |          17 |
|     293 | 0x0012      |          18 |
|     294 | 0x31CE      |       12750 |
|     295 | 0x0052      |          82 |
|     296 | 0x0055      |          85 |
|     297 | 0x31CF      |       12751 |
|     298 | 0xFFFF2465  |  4294911077 |
|     299 | 0xFFFFD9C0  |  4294957504 |
|     300 | 0x0479      |        1145 |
|     301 | 0xFFFF1C2E  |  4294908974 |
|     302 | 0xFFFFD571  |  4294956401 |
|     303 | 0x09CA      |        2506 |
|     304 | 0xFFFF21D2  |  4294910418 |
|     305 | 0xFFFFD1D0  |  4294955472 |
|     306 | 0x31D0      |       12752 |
|     307 | 0x31D3      |       12755 |
|     308 | 0x31D4      |       12756 |
|     309 | 0x31D5      |       12757 |
|     310 | 0x31D6      |       12758 |
|     311 | 0x15073     |       86131 |
|     312 | 0xFFFFCCD0  |  4294954192 |
|     313 | 0x09EB      |        2539 |
|     314 | 0x177E4     |       96228 |
|     315 | 0x7C6D      |       31853 |
|     316 | 0x0F9F      |        3999 |
|     317 | 0x046C      |        1132 |
|     318 | 0x01EB      |         491 |
|     319 | 0x16DF8     |       93688 |
|     320 | 0x5210      |       21008 |
|     321 | 0x13F4C     |       81740 |
|     322 | 0xFFFFDDFE  |  4294958590 |
|     323 | 0x361A      |       13850 |
|     324 | 0x140D0     |       82128 |
|     325 | 0xFFFFDCBF  |  4294958271 |
|     326 | 0x09EC      |        2540 |
|     327 | 0x13C3C     |       80956 |
|     328 | 0xFFFFE133  |  4294959411 |
|     329 | 0x0857      |        2135 |
|     330 | 0x0ADF      |        2783 |
|     331 | 0x361B      |       13851 |
|     332 | 0x361C      |       13852 |
|     333 | 0x361D      |       13853 |
|     334 | 0x3620      |       13856 |
|     335 | 0x3621      |       13857 |
|     336 | 0x0258      |         600 |
|     337 | 0x139FD     |       80381 |
|     338 | 0xFFFFE362  |  4294959970 |
|     339 | 0x0197      |         407 |
|     340 | 0x3331      |       13105 |
|     341 | 0x0850      |        2128 |
|     342 | 0x361E      |       13854 |
|     343 | 0x361F      |       13855 |
|     344 | 0x3622      |       13858 |
|     345 | 0x0856      |        2134 |
|     346 | 0x3623      |       13859 |
|     347 | 0x3624      |       13860 |
|     348 | 0x3625      |       13861 |
|     349 | 0x1562E     |       87598 |
|     350 | 0x2D2B      |       11563 |
|     351 | 0x0887      |        2183 |
|     352 | 0x1877C     |      100220 |
|     353 | 0x189E4     |      100836 |
|     354 | 0x0CA3      |        3235 |
|     355 | 0x17F49     |       98121 |
|     356 | 0x18A0E     |      100878 |
|     357 | 0x161D7     |       90583 |
|     358 | 0x11AD0     |       72400 |
|     359 | 0x0ED8      |        3800 |
|     360 | 0x0CA2      |        3234 |
|     361 | 0x181AB     |       98731 |
|     362 | 0x19A9D     |      105117 |
|     363 | 0x0320      |         800 |
|     364 | 0x0C2A      |        3114 |
|     365 | 0x17F46     |       98118 |
|     366 | 0x19A1A     |      104986 |
|     367 | 0x0259      |         601 |
|     368 | 0x18182     |       98690 |
|     369 | 0x19ECD     |      106189 |
|     370 | 0x0C2B      |        3115 |
|     371 | 0x1BE49     |      114249 |
|     372 | 0x19A74     |      105076 |
|     373 | 0xFFFFFB50  |  4294966096 |
|     374 | 0x0CA1      |        3233 |
|     375 | 0x1C8A2     |      116898 |
|     376 | 0x194AC     |      103596 |
|     377 | 0x1C01F     |      114719 |
|     378 | 0x1930D     |      103181 |
|     379 | 0x006E      |         110 |
|     380 | 0x005A      |          90 |
|     381 | 0x3626      |       13862 |
|     382 | 0x0855      |        2133 |
|     383 | 0x3627      |       13863 |
|     384 | 0x3628      |       13864 |
|     385 | 0x3629      |       13865 |
|     386 | 0x001A      |          26 |
|     387 | 0x362A      |       13866 |
|     388 | 0x08C0      |        2240 |
|     389 | 0x362B      |       13867 |
|     390 | 0x0022      |          34 |
|     391 | 0x362C      |       13868 |
|     392 | 0x0080      |         128 |
|     393 | 0x007F      |         127 |
|     394 | 0x362D      |       13869 |
|     395 | 0x362E      |       13870 |
|     396 | 0x362F      |       13871 |
|     397 | 0x3630      |       13872 |
|     398 | 0x3631      |       13873 |
|     399 | 0x3632      |       13874 |
|     400 | 0x1A937     |      108855 |
|     401 | 0x19874     |      104564 |
|     402 | 0x01F3      |         499 |
|     403 | 0x0FF4      |        4084 |
|     404 | 0x1A33C     |      107324 |
|     405 | 0x193DB     |      103387 |
|     406 | 0x01F7      |         503 |
|     407 | 0x0017      |          23 |
|     408 | 0x1A5F2     |      108018 |
|     409 | 0x19BD1     |      105425 |
|     410 | 0x02ED      |         749 |
|     411 | 0x3633      |       13875 |
|     412 | 0x3634      |       13876 |
|     413 | 0x3635      |       13877 |
|     414 | 0x3636      |       13878 |
|     415 | 0x3637      |       13879 |
|     416 | 0x04E4      |        1252 |
|     417 | 0x08F5      |        2293 |
|     418 | 0x0AF2      |        2802 |
|     419 | 0x3638      |       13880 |
|     420 | 0x3639      |       13881 |
|     421 | 0x012C      |         300 |
|     422 | 0x00E6      |         230 |
|     423 | 0x0149      |         329 |
|     424 | 0x153DF     |       87007 |
|     425 | 0x1AC6D     |      109677 |
|     426 | 0x0190      |         400 |
|     427 | 0x15ABC     |       88764 |
|     428 | 0x1A614     |      108052 |
|     429 | 0x09C4      |        2500 |
|     430 | 0x172C5     |       94917 |
|     431 | 0x1A7E5     |      108517 |
|     432 | 0x0C89      |        3209 |
|     433 | 0x087D      |        2173 |
|     434 | 0x363A      |       13882 |
|     435 | 0x363B      |       13883 |
|     436 | 0x363C      |       13884 |
|     437 | 0x363D      |       13885 |
|     438 | 0x15C08     |       89096 |
|     439 | 0x1B490     |      111760 |
|     440 | 0x05DC      |        1500 |
|     441 | 0x15DDE     |       89566 |
|     442 | 0x1AF48     |      110408 |
|     443 | 0x04B0      |        1200 |
|     444 | 0x363E      |       13886 |
|     445 | 0x00CE      |         206 |
|     446 | 0x0082      |         130 |
|     447 | 0x0ADD      |        2781 |
|     448 | 0x363F      |       13887 |
|     449 | 0x3640      |       13888 |
|     450 | 0x0058      |          88 |
|     451 | 0x3641      |       13889 |
|     452 | 0x3642      |       13890 |
|     453 | 0x3643      |       13891 |
|     454 | 0x3644      |       13892 |
|     455 | 0x08F8      |        2296 |
|     456 | 0x3645      |       13893 |
|     457 | 0x0880      |        2176 |
|     458 | 0x0C8A      |        3210 |
|     459 | 0x009F      |         159 |
|     460 | 0x3646      |       13894 |
|     461 | 0x085B      |        2139 |
|     462 | 0x3647      |       13895 |
|     463 | 0x0859      |        2137 |
|     464 | 0x3648      |       13896 |
|     465 | 0x3649      |       13897 |
|     466 | 0x364A      |       13898 |
|     467 | 0x364B      |       13899 |
|     468 | 0x364C      |       13900 |
|     469 | 0x364D      |       13901 |
|     470 | 0x364E      |       13902 |
|     471 | 0x364F      |       13903 |
|     472 | 0x3650      |       13904 |
|     473 | 0x3651      |       13905 |
|     474 | 0x3652      |       13906 |
|     475 | 0x3653      |       13907 |
|     476 | 0x3654      |       13908 |
|     477 | 0x3655      |       13909 |
|     478 | 0x3656      |       13910 |
|     479 | 0x3657      |       13911 |
|     480 | 0x08C5      |        2245 |
|     481 | 0x3658      |       13912 |
|     482 | 0x3659      |       13913 |
|     483 | 0x365A      |       13914 |
|     484 | 0x365B      |       13915 |
|     485 | 0x365C      |       13916 |
|     486 | 0x365D      |       13917 |
|     487 | 0x365E      |       13918 |
|     488 | 0x365F      |       13919 |
|     489 | 0x3660      |       13920 |
|     490 | 0x3661      |       13921 |
|     491 | 0x0854      |        2132 |
|     492 | 0x3662      |       13922 |
|     493 | 0x3663      |       13923 |
|     494 | 0x3664      |       13924 |
|     495 | 0x3665      |       13925 |
|     496 | 0x18166     |       98662 |
|     497 | 0x19A9F     |      105119 |
|     498 | 0x02D6      |         726 |
|     499 | 0x09B8      |        2488 |
|     500 | 0x3666      |       13926 |
|     501 | 0x00D2      |         210 |
|     502 | 0x3667      |       13927 |
|     503 | 0x3668      |       13928 |
|     504 | 0x3669      |       13929 |
|     505 | 0x0964      |        2404 |
|     506 | 0x366A      |       13930 |
|     507 | 0x366B      |       13931 |
|     508 | 0x163AB     |       91051 |
|     509 | 0x1A5E2     |      108002 |
|     510 | 0x07CD      |        1997 |
|     511 | 0x366C      |       13932 |
|     512 | 0x366D      |       13933 |
|     513 | 0x166D0     |       91856 |
|     514 | 0x1A5D6     |      107990 |
|     515 | 0x366E      |       13934 |
|     516 | 0x366F      |       13935 |
|     517 | 0x3670      |       13936 |
|     518 | 0xFFFFE8A3  |  4294961315 |
|     519 | 0xFFFFC1CE  |  4294951374 |
|     520 | 0x0400      |        1024 |
|     521 | 0xFFFFAA0A  |  4294945290 |
|     522 | 0x0C03      |        3075 |
|     523 | 0x05D6      |        1494 |
|     524 | 0x01FD      |         509 |
|     525 | 0x08D2      |        2258 |
|     526 | 0xFFFFCE43  |  4294954563 |
|     527 | 0xFFFFAA3D  |  4294945341 |
|     528 | 0x3827      |       14375 |
|     529 | 0xFFFFF510  |  4294964496 |
|     530 | 0x3828      |       14376 |
|     531 | 0x081B      |        2075 |
|     532 | 0x0018      |          24 |
|     533 | 0x3829      |       14377 |
|     534 | 0xFFFFF553  |  4294964563 |
|     535 | 0x382A      |       14378 |
|     536 | 0x382B      |       14379 |
|     537 | 0x382C      |       14380 |
|     538 | 0x382D      |       14381 |
|     539 | 0x382E      |       14382 |
|     540 | 0x382F      |       14383 |
|     541 | 0x3830      |       14384 |
|     542 | 0x00C9      |         201 |

## String References

- **12739**: We fight for... [The War Warlocks./The Mithra Mercenaries./The Future Fighters.]
- **12741**: Our duties are... [To slay our foes with magic./To cut down enemies with our swords./To travel through time.]
- **12743**: You serve the Allied Forces? [Our lives for the Goddess!/Yes, we're giving our all./Eh, more or less.]
- **12745**: How will the Great War end? [The Allied Forces will triumph!/The Beastman Confederate will prevail./How should I know?]
- **12747**: The key to the conflict is... [Robel-Akbel's true identity./The Shadow Lord's true identity./Our visitor from the future.]
- **12749**: Why do you need the supplies? [To save Windurst!/To save the world!/To save our future!]
- **13105**: @@
- **13853**: Do you remember? [How could I ever forget?/You got the wrong person, lady.]

## Events

### Event 65535

#### Metadata

| Field        | Value   |
|--------------|---------|
| Entrypoint   | 0x0000  |
| Data Size    | 1 bytes |
| Instructions | 1       |

```
      00 01 02 03 04 05 06 07  08 09 0A 0B 0C 0D 0E 0F
      -- -- -- -- -- -- -- --  -- -- -- -- -- -- -- --
0000: 00                                                .               
```

#### Opcodes

```
  0: 0x0000 [0x00] END_REQSTACK()
```

### Event 89

#### Metadata

| Field        | Value       |
|--------------|-------------|
| Entrypoint   | 0x0001      |
| Data Size    | 10369 bytes |
| Instructions | 1273        |

```
      00 01 02 03 04 05 06 07  08 09 0A 0B 0C 0D 0E 0F
      -- -- -- -- -- -- -- --  -- -- -- -- -- -- -- --
0000:    42 1A 21 65 46 01 38  00 80 4E 00 EE 01 05 01   B.!eF.8..N.....
0010: 4E 00 EF 01 05 01 92 01  EE 01 05 01 92 01 EF 01  N...............
0020: 05 01 94 01 F0 FF FF 7F  BA F0 FF FF 7F 01 80 02  ................
0030: 80 03 80 04 80 80 F0 FF  FF 7F 80 EE 01 05 01 80  ................
0040: EF 01 05 01 1C 05 80 03  25 10 06 80 03 27 10 07  ........%....'..
0050: 80 03 26 10 08 80 03 28  10 09 80 27 10 F0 FF FF  ..&....(...'....
0060: 7F 16 45 0A 80 F0 FF FF  7F F0 FF FF 7F 70 31 30  ..E..........p10
0070: 31 0B 80 45 0C 80 F0 FF  FF 7F F0 FF FF 7F 66 64  1..E..........fd
0080: 69 32 0B 80 55 0C 80 F0  FF FF 7F F0 FF FF 7F 66  i2..U..........f
0090: 64 69 32 1C 0D 80 52 0A  80 F0 FF FF 7F F0 FF FF  di2...R.........
00A0: 7F 70 31 30 31 45 0A 80  F0 FF FF 7F F0 FF FF 7F  .p101E..........
00B0: 70 31 30 32 0B 80 6E EF  01 05 01 0E 80 99 EF 01  p102..n.........
00C0: 05 01 1C 05 80 2B EF 01  05 01 0F 80 23 2B EF 01  .....+......#+..
00D0: 05 01 10 80 23 5D 0B 80  11 80 45 0C 80 F0 FF FF  ....#]....E.....
00E0: 7F F0 FF FF 7F 66 64 6F  32 0B 80 55 0C 80 F0 FF  .....fdo2..U....
00F0: FF 7F F0 FF FF 7F 66 64  6F 32 52 0A 80 F0 FF FF  ......fdo2R.....
0100: 7F F0 FF FF 7F 70 31 30  32 34 12 80 77 13 80 0E  .....p1024..w...
0110: 80 AB 09 27 10 DA 02 05  01 04 27 10 DB 02 05 01  ...'......'.....
0120: 04 27 10 DC 02 05 01 04  27 10 DD 02 05 01 04 27  .'......'......'
0130: 10 DE 02 05 01 04 27 10  DF 02 05 01 04 27 10 E0  ......'......'..
0140: 02 05 01 04 27 10 E1 02  05 01 04 27 10 E2 02 05  ....'......'....
0150: 01 04 27 10 E3 02 05 01  04 27 10 D2 02 05 01 04  ..'......'......
0160: 27 10 AE 02 05 01 04 27  10 D3 02 05 01 04 27 10  '......'......'.
0170: D4 02 05 01 04 27 10 D5  02 05 01 04 27 10 D6 02  .....'......'...
0180: 05 01 04 4E 00 5F 02 05  01 27 10 DA 02 05 01 0E  ...N._...'......
0190: 27 10 DB 02 05 01 0E 27  10 DC 02 05 01 0E 27 10  '......'......'.
01A0: DD 02 05 01 0E 27 10 DE  02 05 01 0E 27 10 DF 02  .....'......'...
01B0: 05 01 0E 27 10 E0 02 05  01 0E 27 10 E1 02 05 01  ...'......'.....
01C0: 0E 27 10 E2 02 05 01 0E  27 10 E3 02 05 01 0E 92  .'......'.......
01D0: 01 DA 02 05 01 92 01 DB  02 05 01 92 01 DC 02 05  ................
01E0: 01 92 01 DD 02 05 01 92  01 DE 02 05 01 92 01 DF  ................
01F0: 02 05 01 92 01 E0 02 05  01 92 01 E1 02 05 01 92  ................
0200: 01 E2 02 05 01 92 01 E3  02 05 01 92 01 D2 02 05  ................
0210: 01 92 01 AE 02 05 01 92  01 D3 02 05 01 92 01 D4  ................
0220: 02 05 01 92 01 D5 02 05  01 92 01 D6 02 05 01 92  ................
0230: 01 5F 02 05 01 94 01 F0  FF FF 7F 94 01 E3 02 05  ._..............
0240: 01 94 01 D2 02 05 01 94  01 D4 02 05 01 94 01 D5  ................
0250: 02 05 01 94 01 D6 02 05  01 BA F0 FF FF 7F 14 80  ................
0260: 15 80 0B 80 16 80 BA D2  02 05 01 17 80 18 80 19  ................
0270: 80 1A 80 BA DD 02 05 01  1B 80 1C 80 19 80 1D 80  ................
0280: BA DE 02 05 01 1E 80 1F  80 0B 80 16 80 BA DF 02  ................
0290: 05 01 20 80 21 80 0B 80  16 80 BA E0 02 05 01 22  .. .!.........."
02A0: 80 23 80 0B 80 16 80 BA  E1 02 05 01 24 80 25 80  .#..........$.%.
02B0: 0B 80 16 80 BA AE 02 05  01 26 80 27 80 0B 80 16  .........&.'....
02C0: 80 BA E3 02 05 01 28 80  29 80 0B 80 16 80 BA DC  ......(.).......
02D0: 02 05 01 2A 80 2B 80 0B  80 16 80 BA E2 02 05 01  ...*.+..........
02E0: 2C 80 2D 80 0B 80 16 80  BA D3 02 05 01 2E 80 2F  ,.-............/
02F0: 80 0B 80 16 80 BA D4 02  05 01 30 80 31 80 0B 80  ..........0.1...
0300: 32 80 BA D5 02 05 01 33  80 34 80 0B 80 32 80 BA  2......3.4...2..
0310: 5F 02 05 01 35 80 03 80  0B 80 16 80 BA DA 02 05  _...5...........
0320: 01 36 80 37 80 0B 80 32  80 BA DB 02 05 01 38 80  .6.7...2......8.
0330: 39 80 0B 80 16 80 BA D6  02 05 01 3A 80 3B 80 0B  9..........:.;..
0340: 80 3C 80 80 F0 FF FF 7F  80 D2 02 05 01 80 DD 02  .<..............
0350: 05 01 80 DE 02 05 01 80  DF 02 05 01 80 E0 02 05  ................
0360: 01 80 E1 02 05 01 80 AE  02 05 01 80 E2 02 05 01  ................
0370: 80 E3 02 05 01 80 DC 02  05 01 80 D3 02 05 01 80  ................
0380: D4 02 05 01 80 D5 02 05  01 80 D6 02 05 01 4A DE  ..............J.
0390: 02 05 01 D2 02 05 01 4A  DF 02 05 01 D2 02 05 01  .......J........
03A0: 4A E0 02 05 01 D2 02 05  01 4A E1 02 05 01 D2 02  J........J......
03B0: 05 01 4A AE 02 05 01 D2  02 05 01 4A E2 02 05 01  ..J........J....
03C0: D2 02 05 01 4A E3 02 05  01 D2 02 05 01 4A DC 02  ....J........J..
03D0: 05 01 D2 02 05 01 4A D3  02 05 01 D2 02 05 01 4A  ......J........J
03E0: D4 02 05 01 D2 02 05 01  4A D5 02 05 01 D2 02 05  ........J.......
03F0: 01 4A D6 02 05 01 D2 02  05 01 5C 00 3D 80 5C 01  .J........\.=.\.
0400: 3D 80 9A 1C 3E 80 45 0A  80 F0 FF FF 7F F0 FF FF  =...>.E.........
0410: 7F 70 32 30 31 0B 80 45  0C 80 F0 FF FF 7F F0 FF  .p201..E........
0420: FF 7F 66 64 69 32 0B 80  55 0C 80 F0 FF FF 7F F0  ..fdi2..U.......
0430: FF FF 7F 66 64 69 32 1C  0D 80 52 0A 80 F0 FF FF  ...fdi2...R.....
0440: 7F F0 FF FF 7F 70 32 30  31 45 0A 80 F0 FF FF 7F  .....p201E......
0450: F0 FF FF 7F 70 32 30 32  0B 80 66 3F 80 D2 02 05  ....p202..f?....
0460: 01 D2 02 05 01 74 77 61  30 2B D2 02 05 01 40 80  .....twa0+....@.
0470: 23 66 3F 80 D2 02 05 01  D2 02 05 01 74 77 61 31  #f?.........twa1
0480: 45 41 80 F8 FF FF 7F F8  FF FF 7F 64 6F 70 6E 0B  EA.........dopn.
0490: 80 1C 42 80 79 00 D2 02  05 01 E3 02 05 01 4A D4  ..B.y.........J.
04A0: 02 05 01 F0 FF FF 7F 45  41 80 F8 FF FF 7F F8 FF  .......EA.......
04B0: FF 7F 64 63 6C 73 0B 80  1C 0D 80 52 0A 80 F0 FF  ..dcls.....R....
04C0: FF 7F F0 FF FF 7F 70 32  30 32 45 0A 80 F0 FF FF  ......p202E.....
04D0: 7F F0 FF FF 7F 70 32 30  33 0B 80 1C 0D 80 29 10  .....p203.....).
04E0: F0 FF FF 7F 1B 02 02 10  0E 80 80 6C 05 52 0A 80  ...........l.R..
04F0: F0 FF FF 7F F0 FF FF 7F  70 32 30 33 45 0A 80 F0  ........p203E...
0500: FF FF 7F F0 FF FF 7F 70  68 6D 31 0B 80 6E F0 FF  .......phm1..n..
0510: FF 7F 0E 80 99 F0 FF FF  7F 5B 43 80 D5 02 05 01  .........[C.....
0520: D5 02 05 01 66 62 30 30  1C 0D 80 5B 43 80 D5 02  ....fb00...[C...
0530: 05 01 D5 02 05 01 66 62  30 31 5B 44 80 D5 02 05  ......fb01[D....
0540: 01 D5 02 05 01 75 64 61  30 52 0A 80 F0 FF FF 7F  .....uda0R......
0550: F0 FF FF 7F 70 68 6D 31  45 0A 80 F0 FF FF 7F F0  ....phm1E.......
0560: FF FF 7F 70 68 6D 32 0B  80 01 1D 09 02 02 10 45  ...phm2........E
0570: 80 80 F3 05 52 0A 80 F0  FF FF 7F F0 FF FF 7F 70  ....R..........p
0580: 32 30 33 45 0A 80 F0 FF  FF 7F F0 FF FF 7F 70 68  203E..........ph
0590: 6D 31 0B 80 6E F0 FF FF  7F 0E 80 99 F0 FF FF 7F  m1..n...........
05A0: 5B 43 80 D5 02 05 01 D5  02 05 01 66 62 30 30 1C  [C.........fb00.
05B0: 0D 80 5B 43 80 D5 02 05  01 D5 02 05 01 66 62 30  ..[C.........fb0
05C0: 31 5B 44 80 D5 02 05 01  D5 02 05 01 75 64 61 30  1[D.........uda0
05D0: 52 0A 80 F0 FF FF 7F F0  FF FF 7F 70 68 6D 31 45  R..........phm1E
05E0: 0A 80 F0 FF FF 7F F0 FF  FF 7F 70 68 6D 32 0B 80  ..........phm2..
05F0: 01 1D 09 02 02 10 46 80  80 7A 06 52 0A 80 F0 FF  ......F..z.R....
0600: FF 7F F0 FF FF 7F 70 32  30 33 45 0A 80 F0 FF FF  ......p203E.....
0610: 7F F0 FF FF 7F 70 65 6D  31 0B 80 6E F0 FF FF 7F  .....pem1..n....
0620: 0E 80 99 F0 FF FF 7F 5B  43 80 D5 02 05 01 D5 02  .......[C.......
0630: 05 01 66 62 30 30 1C 0D  80 5B 43 80 D5 02 05 01  ..fb00...[C.....
0640: D5 02 05 01 66 62 30 31  5B 44 80 D5 02 05 01 D5  ....fb01[D......
0650: 02 05 01 75 64 61 30 52  0A 80 F0 FF FF 7F F0 FF  ...uda0R........
0660: FF 7F 70 65 6D 31 45 0A  80 F0 FF FF 7F F0 FF FF  ..pem1E.........
0670: 7F 70 65 6D 32 0B 80 01  1D 09 02 02 10 47 80 80  .pem2........G..
0680: 01 07 52 0A 80 F0 FF FF  7F F0 FF FF 7F 70 32 30  ..R..........p20
0690: 33 45 0A 80 F0 FF FF 7F  F0 FF FF 7F 70 65 6D 31  3E..........pem1
06A0: 0B 80 6E F0 FF FF 7F 0E  80 99 F0 FF FF 7F 5B 43  ..n...........[C
06B0: 80 D5 02 05 01 D5 02 05  01 66 62 30 30 1C 0D 80  .........fb00...
06C0: 5B 43 80 D5 02 05 01 D5  02 05 01 66 62 30 31 5B  [C.........fb01[
06D0: 44 80 D5 02 05 01 D5 02  05 01 75 64 61 30 52 0A  D.........uda0R.
06E0: 80 F0 FF FF 7F F0 FF FF  7F 70 65 6D 31 45 0A 80  .........pem1E..
06F0: F0 FF FF 7F F0 FF FF 7F  70 65 6D 32 0B 80 01 1D  ........pem2....
0700: 09 02 02 10 48 80 80 88  07 52 0A 80 F0 FF FF 7F  ....H....R......
0710: F0 FF FF 7F 70 32 30 33  45 0A 80 F0 FF FF 7F F0  ....p203E.......
0720: FF FF 7F 70 74 72 31 0B  80 6E F0 FF FF 7F 0E 80  ...ptr1..n......
0730: 99 F0 FF FF 7F 5B 43 80  D5 02 05 01 D5 02 05 01  .....[C.........
0740: 66 62 30 30 1C 0D 80 5B  43 80 D5 02 05 01 D5 02  fb00...[C.......
0750: 05 01 66 62 30 31 5B 44  80 D5 02 05 01 D5 02 05  ..fb01[D........
0760: 01 75 64 61 30 52 0A 80  F0 FF FF 7F F0 FF FF 7F  .uda0R..........
0770: 70 74 72 31 45 0A 80 F0  FF FF 7F F0 FF FF 7F 70  ptr1E..........p
0780: 74 72 32 0B 80 01 1D 09  02 02 10 49 80 80 0F 08  tr2........I....
0790: 52 0A 80 F0 FF FF 7F F0  FF FF 7F 70 32 30 33 45  R..........p203E
07A0: 0A 80 F0 FF FF 7F F0 FF  FF 7F 70 74 72 31 0B 80  ..........ptr1..
07B0: 6E F0 FF FF 7F 0E 80 99  F0 FF FF 7F 5B 43 80 D5  n...........[C..
07C0: 02 05 01 D5 02 05 01 66  62 30 30 1C 0D 80 5B 43  .......fb00...[C
07D0: 80 D5 02 05 01 D5 02 05  01 66 62 30 31 5B 44 80  .........fb01[D.
07E0: D5 02 05 01 D5 02 05 01  75 64 61 30 52 0A 80 F0  ........uda0R...
07F0: FF FF 7F F0 FF FF 7F 70  74 72 31 45 0A 80 F0 FF  .......ptr1E....
0800: FF 7F F0 FF FF 7F 70 74  72 32 0B 80 01 1D 09 02  ......ptr2......
0810: 02 10 4A 80 80 96 08 52  0A 80 F0 FF FF 7F F0 FF  ..J....R........
0820: FF 7F 70 32 30 33 45 0A  80 F0 FF FF 7F F0 FF FF  ..p203E.........
0830: 7F 70 6D 74 31 0B 80 6E  F0 FF FF 7F 0E 80 99 F0  .pmt1..n........
0840: FF FF 7F 5B 43 80 D5 02  05 01 D5 02 05 01 66 62  ...[C.........fb
0850: 30 30 1C 0D 80 5B 43 80  D5 02 05 01 D5 02 05 01  00...[C.........
0860: 66 62 30 31 5B 44 80 D5  02 05 01 D5 02 05 01 75  fb01[D.........u
0870: 64 61 30 52 0A 80 F0 FF  FF 7F F0 FF FF 7F 70 6D  da0R..........pm
0880: 74 31 45 0A 80 F0 FF FF  7F F0 FF FF 7F 70 6D 74  t1E..........pmt
0890: 32 0B 80 01 1D 09 02 02  10 4B 80 80 1D 09 52 0A  2........K....R.
08A0: 80 F0 FF FF 7F F0 FF FF  7F 70 32 30 33 45 0A 80  .........p203E..
08B0: F0 FF FF 7F F0 FF FF 7F  70 67 6C 31 0B 80 6E F0  ........pgl1..n.
08C0: FF FF 7F 0E 80 99 F0 FF  FF 7F 5B 43 80 D5 02 05  ..........[C....
08D0: 01 D5 02 05 01 66 62 30  30 1C 0D 80 5B 43 80 D5  .....fb00...[C..
08E0: 02 05 01 D5 02 05 01 66  62 30 31 5B 44 80 D5 02  .......fb01[D...
08F0: 05 01 D5 02 05 01 75 64  61 30 52 0A 80 F0 FF FF  ......uda0R.....
0900: 7F F0 FF FF 7F 70 67 6C  31 45 0A 80 F0 FF FF 7F  .....pgl1E......
0910: F0 FF FF 7F 70 67 6C 32  0B 80 01 1D 09 1C 2E 80  ....pgl2........
0920: 52 0A 80 F0 FF FF 7F F0  FF FF 7F 70 68 6D 32 52  R..........phm2R
0930: 0A 80 F0 FF FF 7F F0 FF  FF 7F 70 65 6D 32 52 0A  ..........pem2R.
0940: 80 F0 FF FF 7F F0 FF FF  7F 70 74 72 32 52 0A 80  .........ptr2R..
0950: F0 FF FF 7F F0 FF FF 7F  70 6D 74 32 52 0A 80 F0  ........pmt2R...
0960: FF FF 7F F0 FF FF 7F 70  67 6C 32 45 0A 80 F0 FF  .......pgl2E....
0970: FF 7F F0 FF FF 7F 70 32  30 35 0B 80 BA F0 FF FF  ......p205......
0980: 7F 4C 80 4D 80 0B 80 16  80 2B D5 02 05 01 4E 80  .L.M.....+....N.
0990: 23 03 25 10 4F 80 03 27  10 50 80 03 26 10 0B 80  #.%.O..'.P..&...
09A0: 03 28 10 16 80 27 10 F0  FF FF 7F 16 52 0A 80 F0  .(...'......R...
09B0: FF FF 7F F0 FF FF 7F 70  32 30 35 45 0A 80 F0 FF  .......p205E....
09C0: FF 7F F0 FF FF 7F 70 32  30 36 0B 80 2B D2 02 05  ......p206..+...
09D0: 01 51 80 23 27 10 D4 02  05 01 09 52 0A 80 F0 FF  .Q.#'......R....
09E0: FF 7F F0 FF FF 7F 70 32  30 36 45 0A 80 F0 FF FF  ......p206E.....
09F0: 7F F0 FF FF 7F 70 32 30  37 0B 80 4A F0 FF FF 7F  .....p207..J....
0A00: D2 02 05 01 4A DE 02 05  01 D2 02 05 01 4A DF 02  ....J........J..
0A10: 05 01 D2 02 05 01 4A E0  02 05 01 D2 02 05 01 4A  ......J........J
0A20: E1 02 05 01 D2 02 05 01  4A AE 02 05 01 D2 02 05  ........J.......
0A30: 01 4A E2 02 05 01 D2 02  05 01 4A E3 02 05 01 D2  .J........J.....
0A40: 02 05 01 4A DC 02 05 01  D2 02 05 01 4A D3 02 05  ...J........J...
0A50: 01 D2 02 05 01 4A D6 02  05 01 D2 02 05 01 1C 05  .....J..........
0A60: 80 02 08 10 0E 80 00 74  0A 2B D4 02 05 01 52 80  .......t.+....R.
0A70: 23 01 7C 0A 2B D4 02 05  01 53 80 23 52 0A 80 F0  #.|.+....S.#R...
0A80: FF FF 7F F0 FF FF 7F 70  32 30 37 45 0A 80 F0 FF  .......p207E....
0A90: FF 7F F0 FF FF 7F 70 32  30 38 0B 80 7B D2 02 05  ......p208..{...
0AA0: 01 2B D5 02 05 01 54 80  23 5B 43 80 D5 02 05 01  .+....T.#[C.....
0AB0: D5 02 05 01 66 62 30 30  5B 44 80 D5 02 05 01 D5  ....fb00[D......
0AC0: 02 05 01 75 64 61 31 1C  42 80 52 0A 80 F0 FF FF  ...uda1.B.R.....
0AD0: 7F F0 FF FF 7F 70 32 30  38 45 0A 80 F0 FF FF 7F  .....p208E......
0AE0: F0 FF FF 7F 70 32 30 39  0B 80 5B 43 80 D5 02 05  ....p209..[C....
0AF0: 01 D5 02 05 01 66 30 30  30 5D 0B 80 11 80 4A D5  .....f000]....J.
0B00: 02 05 01 D2 02 05 01 6E  D2 02 05 01 4A 80 99 D2  .......n....J...
0B10: 02 05 01 1C 42 80 2B D2  02 05 01 55 80 23 66 3F  ....B.+....U.#f?
0B20: 80 D2 02 05 01 D2 02 05  01 74 77 61 30 2B D2 02  .........twa0+..
0B30: 05 01 56 80 23 52 0A 80  F0 FF FF 7F F0 FF FF 7F  ..V.#R..........
0B40: 70 32 30 39 45 0A 80 F0  FF FF 7F F0 FF FF 7F 70  p209E..........p
0B50: 32 31 30 0B 80 2B D2 02  05 01 57 80 23 66 3F 80  210..+....W.#f?.
0B60: D2 02 05 01 D2 02 05 01  74 77 61 31 5C 00 58 80  ........twa1\.X.
0B70: 5C 01 58 80 9A 52 0A 80  F0 FF FF 7F F0 FF FF 7F  \.X..R..........
0B80: 70 32 31 30 45 0A 80 F0  FF FF 7F F0 FF FF 7F 70  p210E..........p
0B90: 32 32 31 0B 80 2B D2 02  05 01 59 80 23 27 08 5F  221..+....Y.#'._
0BA0: 02 05 01 07 27 07 DA 02  05 01 0F 27 07 DB 02 05  ....'......'....
0BB0: 01 0F 27 10 D6 02 05 01  0B 1C 05 80 52 0A 80 F0  ..'.........R...
0BC0: FF FF 7F F0 FF FF 7F 70  32 32 31 45 0A 80 F0 FF  .......p221E....
0BD0: FF 7F F0 FF FF 7F 70 32  31 31 0B 80 6E F0 FF FF  ......p211..n...
0BE0: 7F 5A 80 99 F0 FF FF 7F  5B 44 80 D5 02 05 01 D5  .Z......[D......
0BF0: 02 05 01 6B 65 69 30 1C  5B 80 27 0E AE 02 05 01  ...kei0.[.'.....
0C00: 0C 27 0D E1 02 05 01 10  27 0B D3 02 05 01 0A 27  .'......'......'
0C10: 09 E2 02 05 01 10 27 0F  DC 02 05 01 10 1C 42 80  ......'.......B.
0C20: 52 0A 80 F0 FF FF 7F F0  FF FF 7F 70 32 31 31 45  R..........p211E
0C30: 0A 80 F0 FF FF 7F F0 FF  FF 7F 70 32 31 32 0B 80  ..........p212..
0C40: 1C 5B 80 27 0A E3 02 05  01 10 27 0C E0 02 05 01  .[.'......'.....
0C50: 10 27 08 DF 02 05 01 10  27 07 DE 02 05 01 10 1C  .'......'.......
0C60: 42 80 52 0A 80 F0 FF FF  7F F0 FF FF 7F 70 32 31  B.R..........p21
0C70: 32 45 0A 80 F0 FF FF 7F  F0 FF FF 7F 70 32 31 33  2E..........p213
0C80: 0B 80 1C 5C 80 52 0A 80  F0 FF FF 7F F0 FF FF 7F  ...\.R..........
0C90: 70 32 31 33 45 0A 80 F0  FF FF 7F F0 FF FF 7F 70  p213E..........p
0CA0: 32 31 34 0B 80 66 3F 80  D2 02 05 01 D2 02 05 01  214..f?.........
0CB0: 74 77 62 30 2B D2 02 05  01 5D 80 23 2B D2 02 05  twb0+....].#+...
0CC0: 01 5E 80 23 52 0A 80 F0  FF FF 7F F0 FF FF 7F 70  .^.#R..........p
0CD0: 32 31 34 45 0A 80 F0 FF  FF 7F F0 FF FF 7F 70 32  214E..........p2
0CE0: 31 35 0B 80 66 3F 80 D2  02 05 01 D2 02 05 01 74  15..f?.........t
0CF0: 77 62 31 2B D2 02 05 01  5F 80 5B 44 80 D5 02 05  wb1+...._.[D....
0D00: 01 D5 02 05 01 6B 65 69  30 27 04 DE 02 05 01 0F  .....kei0'......
0D10: 27 05 DF 02 05 01 0F 27  06 E0 02 05 01 0F 27 07  '......'......'.
0D20: E1 02 05 01 0F 27 08 AE  02 05 01 0B 27 0A E3 02  .....'......'...
0D30: 05 01 0F 27 0B DC 02 05  01 0F 1C 60 80 23 5D 0B  ...'.......`.#].
0D40: 80 11 80 52 0A 80 F0 FF  FF 7F F0 FF FF 7F 70 32  ...R..........p2
0D50: 31 35 45 0A 80 F0 FF FF  7F F0 FF FF 7F 70 32 31  15E..........p21
0D60: 36 0B 80 2B D2 02 05 01  61 80 23 5C 00 62 80 5C  6..+....a.#\.b.\
0D70: 01 62 80 9A 52 0A 80 F0  FF FF 7F F0 FF FF 7F 70  .b..R..........p
0D80: 32 31 36 45 0A 80 F0 FF  FF 7F F0 FF FF 7F 70 32  216E..........p2
0D90: 31 37 0B 80 2B D2 02 05  01 63 80 23 2B D2 02 05  17..+....c.#+...
0DA0: 01 64 80 23 52 0A 80 F0  FF FF 7F F0 FF FF 7F 70  .d.#R..........p
0DB0: 32 31 37 45 0A 80 F0 FF  FF 7F F0 FF FF 7F 70 32  217E..........p2
0DC0: 31 39 0B 80 27 10 D2 02  05 01 09 1C 0D 80 2B D2  19..'.........+.
0DD0: 02 05 01 65 80 23 45 0C  80 F0 FF FF 7F F0 FF FF  ...e.#E.........
0DE0: 7F 66 64 6F 32 0B 80 55  0C 80 F0 FF FF 7F F0 FF  .fdo2..U........
0DF0: FF 7F 66 64 6F 32 52 0A  80 F0 FF FF 7F F0 FF FF  ..fdo2R.........
0E00: 7F 70 32 31 39 1C 0D 80  5D 0B 80 11 80 4E 01 D3  .p219...]....N..
0E10: 02 05 01 34 66 80 77 13  80 0E 80 AB 09 03 00 00  ...4f.w.........
0E20: 09 10 27 10 D3 02 05 01  04 27 10 D2 02 05 01 04  ..'......'......
0E30: 27 10 AE 02 05 01 04 27  10 D4 02 05 01 04 27 10  '......'......'.
0E40: D5 02 05 01 04 27 10 E6  02 05 01 04 27 10 D6 02  .....'......'...
0E50: 05 01 04 4E 00 5F 02 05  01 27 10 DA 02 05 01 04  ...N._...'......
0E60: 27 10 DB 02 05 01 04 27  10 DC 02 05 01 04 27 10  '......'......'.
0E70: DD 02 05 01 04 27 10 DE  02 05 01 04 27 10 DF 02  .....'......'...
0E80: 05 01 04 27 10 E0 02 05  01 04 27 10 E1 02 05 01  ...'......'.....
0E90: 04 27 10 E2 02 05 01 04  27 10 E3 02 05 01 04 27  .'......'......'
0EA0: 10 E4 02 05 01 04 27 10  E5 02 05 01 04 7B F0 FF  ......'......{..
0EB0: FF 7F 7B E6 02 05 01 7B  D3 02 05 01 7B D2 02 05  ..{....{....{...
0EC0: 01 7B AE 02 05 01 7B D4  02 05 01 7B D5 02 05 01  .{....{....{....
0ED0: 7B D6 02 05 01 7B 5F 02  05 01 7B DA 02 05 01 7B  {....{_...{....{
0EE0: DB 02 05 01 7B DC 02 05  01 7B DD 02 05 01 7B DE  ....{....{....{.
0EF0: 02 05 01 7B DF 02 05 01  7B E0 02 05 01 7B E1 02  ...{....{....{..
0F00: 05 01 7B E2 02 05 01 7B  E3 02 05 01 7B E4 02 05  ..{....{....{...
0F10: 01 7B E5 02 05 01 92 01  E6 02 05 01 92 01 D3 02  .{..............
0F20: 05 01 92 01 D2 02 05 01  92 01 AE 02 05 01 92 01  ................
0F30: D4 02 05 01 92 01 D5 02  05 01 92 01 D6 02 05 01  ................
0F40: 92 01 5F 02 05 01 92 01  DA 02 05 01 92 01 DB 02  .._.............
0F50: 05 01 92 01 DC 02 05 01  92 01 DD 02 05 01 92 01  ................
0F60: DE 02 05 01 92 01 DF 02  05 01 92 01 E0 02 05 01  ................
0F70: 92 01 E1 02 05 01 92 01  E2 02 05 01 92 01 E3 02  ................
0F80: 05 01 92 01 E4 02 05 01  92 01 E5 02 05 01 94 01  ................
0F90: F0 FF FF 7F 94 01 E6 02  05 01 94 01 D2 02 05 01  ................
0FA0: 94 01 D4 02 05 01 94 01  D5 02 05 01 94 01 D6 02  ................
0FB0: 05 01 94 01 5F 02 05 01  BA D2 02 05 01 67 80 68  ...._........g.h
0FC0: 80 69 80 6A 80 BA AE 02  05 01 6B 80 6C 80 6D 80  .i.j......k.l.m.
0FD0: 6E 80 BA DA 02 05 01 6F  80 70 80 71 80 6A 80 BA  n......o.p.q.j..
0FE0: DB 02 05 01 72 80 73 80  74 80 6A 80 BA DC 02 05  ....r.s.t.j.....
0FF0: 01 75 80 76 80 77 80 6E  80 BA DD 02 05 01 78 80  .u.v.w.n......x.
1000: 79 80 7A 80 6E 80 BA DE  02 05 01 7B 80 7C 80 7D  y.z.n......{.|.}
1010: 80 6A 80 BA DF 02 05 01  7E 80 7F 80 80 80 6E 80  .j......~.....n.
1020: BA D4 02 05 01 81 80 82  80 83 80 6E 80 BA D5 02  ...........n....
1030: 05 01 84 80 85 80 80 80  6E 80 BA E6 02 05 01 84  ........n.......
1040: 80 85 80 80 80 6E 80 BA  F0 FF FF 7F 86 80 87 80  .....n..........
1050: 80 80 6E 80 BA D6 02 05  01 88 80 89 80 8A 80 6A  ..n............j
1060: 80 BA 5F 02 05 01 8B 80  8C 80 8D 80 6A 80 BA E0  .._.........j...
1070: 02 05 01 8E 80 8F 80 90  80 6E 80 BA E1 02 05 01  .........n......
1080: 91 80 92 80 90 80 6A 80  BA E2 02 05 01 93 80 94  ......j.........
1090: 80 90 80 6E 80 BA E3 02  05 01 95 80 96 80 90 80  ...n............
10A0: 6A 80 BA E4 02 05 01 97  80 98 80 90 80 6A 80 BA  j............j..
10B0: E5 02 05 01 99 80 9A 80  90 80 6A 80 5B 9B 80 D5  ..........j.[...
10C0: 02 05 01 D5 02 05 01 00  FE FE FE 5B 9C 80 E6 02  ...........[....
10D0: 05 01 E6 02 05 01 00 FE  FE FE 27 10 DA 02 05 01  ..........'.....
10E0: 0B 27 10 DB 02 05 01 0B  27 10 DC 02 05 01 0B 27  .'......'......'
10F0: 10 DD 02 05 01 0B 27 10  DE 02 05 01 0B 27 10 DF  ......'......'..
1100: 02 05 01 0B 27 10 E0 02  05 01 0C 27 10 E1 02 05  ....'......'....
1110: 01 0B 27 10 E2 02 05 01  0B 27 10 E3 02 05 01 0B  ..'......'......
1120: 27 10 E4 02 05 01 0B 27  10 E5 02 05 01 0B 29 10  '......'......).
1130: DA 02 05 01 0C 29 10 DB  02 05 01 0C 29 10 DC 02  .....)......)...
1140: 05 01 0C 29 10 DD 02 05  01 0C 29 10 DE 02 05 01  ...)......).....
1150: 0C 29 10 DF 02 05 01 0C  29 10 E0 02 05 01 0D 29  .)......)......)
1160: 10 E1 02 05 01 0C 29 10  E2 02 05 01 0C 29 10 E3  ......)......)..
1170: 02 05 01 0C 29 10 E4 02  05 01 0C 29 10 E5 02 05  ....)......)....
1180: 01 0C 80 F0 FF FF 7F 80  D2 02 05 01 80 AE 02 05  ................
1190: 01 80 D3 02 05 01 80 D4  02 05 01 80 D5 02 05 01  ................
11A0: 80 E6 02 05 01 80 D6 02  05 01 5B 9B 80 D5 02 05  ..........[.....
11B0: 01 D5 02 05 01 63 68 6F  30 5B 9C 80 E6 02 05 01  .....cho0[......
11C0: E6 02 05 01 63 68 6F 30  27 10 D4 02 05 01 0A 27  ....cho0'......'
11D0: 10 D6 02 05 01 0C 29 10  D2 02 05 01 0A 29 10 AE  ......)......)..
11E0: 02 05 01 0D 29 10 D3 02  05 01 0B 29 10 F0 FF FF  ....)......)....
11F0: 7F 1B 02 02 10 0E 80 80  04 12 27 10 F0 FF FF 7F  ..........'.....
1200: 36 01 82 12 02 02 10 45  80 80 16 12 27 10 F0 FF  6......E....'...
1210: FF 7F 36 01 82 12 02 02  10 46 80 80 28 12 27 10  ..6......F..(.'.
1220: F0 FF FF 7F 37 01 82 12  02 02 10 47 80 80 3A 12  ....7......G..:.
1230: 27 10 F0 FF FF 7F 37 01  82 12 02 02 10 48 80 80  '.....7......H..
1240: 4C 12 27 10 F0 FF FF 7F  38 01 82 12 02 02 10 49  L.'.....8......I
1250: 80 80 5E 12 27 10 F0 FF  FF 7F 38 01 82 12 02 02  ..^.'.....8.....
1260: 10 4A 80 80 70 12 27 10  F0 FF FF 7F 39 01 82 12  .J..p.'.....9...
1270: 02 02 10 4B 80 80 82 12  27 10 F0 FF FF 7F 3A 01  ...K....'.....:.
1280: 82 12 5C 00 9D 80 5C 01  9D 80 9A 45 0A 80 F0 FF  ..\...\....E....
1290: FF 7F F0 FF FF 7F 70 33  30 31 0B 80 45 0C 80 F0  ......p301..E...
12A0: FF FF 7F F0 FF FF 7F 66  64 69 32 0B 80 55 0C 80  .......fdi2..U..
12B0: F0 FF FF 7F F0 FF FF 7F  66 64 69 32 27 10 D4 02  ........fdi2'...
12C0: 05 01 0B 1C 9E 80 52 0A  80 F0 FF FF 7F F0 FF FF  ......R.........
12D0: 7F 70 33 30 31 45 0A 80  F0 FF FF 7F F0 FF FF 7F  .p301E..........
12E0: 70 33 30 34 0B 80 1C 2E  80 59 04 5F 02 05 01 5B  p304.....Y._...[
12F0: 80 27 10 5F 02 05 01 06  1C 9F 80 52 0A 80 F0 FF  .'._.......R....
1300: FF 7F F0 FF FF 7F 70 33  30 34 45 0A 80 F0 FF FF  ......p304E.....
1310: 7F F0 FF FF 7F 70 33 30  35 0B 80 1C 0D 80 52 0A  .....p305.....R.
1320: 80 F0 FF FF 7F F0 FF FF  7F 70 33 30 35 45 0A 80  .........p305E..
1330: F0 FF FF 7F F0 FF FF 7F  70 33 30 36 0B 80 79 00  ........p306..y.
1340: D5 02 05 01 5F 02 05 01  79 00 D4 02 05 01 5F 02  ...._...y....._.
1350: 05 01 2B 5F 02 05 01 A0  80 23 2A 10 5F 02 05 01  ..+_.....#*._...
1360: 1C A1 80 66 A2 80 5F 02  05 01 5F 02 05 01 74 6C  ...f.._..._...tl
1370: 6B 30 2B 5F 02 05 01 A3  80 23 66 A2 80 5F 02 05  k0+_.....#f.._..
1380: 01 5F 02 05 01 74 6C 6B  31 5D 0B 80 11 80 1A 21  ._...tlk1].....!
1390: 65 52 0A 80 F0 FF FF 7F  F0 FF FF 7F 70 33 30 36  eR..........p306
13A0: 4E 01 E6 02 05 01 4E 01  D3 02 05 01 4E 01 D2 02  N.....N.....N...
13B0: 05 01 4E 01 AE 02 05 01  4E 01 D4 02 05 01 4E 01  ..N.....N.....N.
13C0: D5 02 05 01 4E 01 D6 02  05 01 4E 01 5F 02 05 01  ....N.....N._...
13D0: 4E 01 DA 02 05 01 4E 01  DB 02 05 01 4E 01 DC 02  N.....N.....N...
13E0: 05 01 4E 01 DD 02 05 01  4E 01 DE 02 05 01 4E 01  ..N.....N.....N.
13F0: DF 02 05 01 4E 01 E0 02  05 01 4E 01 E1 02 05 01  ....N.....N.....
1400: 4E 01 E2 02 05 01 4E 01  E3 02 05 01 4E 01 E4 02  N.....N.....N...
1410: 05 01 4E 01 E5 02 05 01  34 A4 80 AB 09 77 13 80  ..N.....4....w..
1420: A5 80 1C 3E 80 27 10 F0  FF FF 7F 3F 27 10 EA 02  ...>.'.....?'...
1430: 05 01 04 27 10 D8 02 05  01 04 92 01 EA 02 05 01  ...'............
1440: 92 01 D8 02 05 01 BA EA  02 05 01 A6 80 A7 80 A8  ................
1450: 80 A9 80 BA D8 02 05 01  AA 80 AB 80 AC 80 A9 80  ................
1460: 80 EA 02 05 01 80 D8 02  05 01 5C 00 AD 80 5C 01  ..........\...\.
1470: AD 80 9A 1C 3E 80 45 0A  80 F0 FF FF 7F F0 FF FF  ....>.E.........
1480: 7F 70 35 30 31 0B 80 1A  00 65 2B D8 02 05 01 AE  .p501....e+.....
1490: 80 23 2B D4 02 05 01 AF  80 23 2B D8 02 05 01 B0  .#+......#+.....
14A0: 80 5D 0B 80 42 80 6E D8  02 05 01 B1 80 99 D8 02  .]..B.n.........
14B0: 05 01 1C 05 80 1A 21 65  5D 0B 80 2E 80 1C 0D 80  ......!e].......
14C0: 23 52 0A 80 F0 FF FF 7F  F0 FF FF 7F 70 35 30 31  #R..........p501
14D0: 4E 01 D8 02 05 01 4E 01  EA 02 05 01 34 66 80 77  N.....N.....4f.w
14E0: 13 80 0E 80 AB 09 03 00  00 09 10 27 10 D2 02 05  ...........'....
14F0: 01 04 27 10 AE 02 05 01  04 27 10 D4 02 05 01 04  ..'......'......
1500: 27 10 D5 02 05 01 04 27  10 E6 02 05 01 04 27 10  '......'......'.
1510: D6 02 05 01 04 4E 00 5F  02 05 01 27 10 DA 02 05  .....N._...'....
1520: 01 04 27 10 DB 02 05 01  04 27 10 DC 02 05 01 04  ..'......'......
1530: 27 10 DD 02 05 01 04 27  10 DE 02 05 01 04 27 10  '......'......'.
1540: DF 02 05 01 04 27 10 E0  02 05 01 04 27 10 E1 02  .....'......'...
1550: 05 01 04 27 10 E2 02 05  01 04 27 10 E3 02 05 01  ...'......'.....
1560: 04 27 10 E4 02 05 01 04  27 10 E5 02 05 01 04 92  .'......'.......
1570: 01 E6 02 05 01 92 01 D3  02 05 01 92 01 D2 02 05  ................
1580: 01 92 01 AE 02 05 01 92  01 D4 02 05 01 92 01 D5  ................
1590: 02 05 01 92 01 D6 02 05  01 92 01 5F 02 05 01 92  ..........._....
15A0: 01 DA 02 05 01 92 01 DB  02 05 01 92 01 DC 02 05  ................
15B0: 01 92 01 DD 02 05 01 92  01 DE 02 05 01 92 01 DF  ................
15C0: 02 05 01 92 01 E0 02 05  01 92 01 E1 02 05 01 92  ................
15D0: 01 E2 02 05 01 92 01 E3  02 05 01 92 01 E4 02 05  ................
15E0: 01 92 01 E5 02 05 01 94  01 F0 FF FF 7F 94 01 E6  ................
15F0: 02 05 01 94 01 D2 02 05  01 94 01 D4 02 05 01 94  ................
1600: 01 D5 02 05 01 94 01 D6  02 05 01 94 01 5F 02 05  ............._..
1610: 01 27 10 DA 02 05 01 0B  27 10 DB 02 05 01 0B 27  .'......'......'
1620: 10 DC 02 05 01 0B 27 10  DD 02 05 01 0B 27 10 DE  ......'......'..
1630: 02 05 01 0B 27 10 DF 02  05 01 0B 27 10 E0 02 05  ....'......'....
1640: 01 0C 27 10 E1 02 05 01  0B 27 10 E2 02 05 01 0B  ..'......'......
1650: 27 10 E3 02 05 01 0B 27  10 E4 02 05 01 0B 27 10  '......'......'.
1660: E5 02 05 01 0B 29 10 DA  02 05 01 0C 29 10 DB 02  .....)......)...
1670: 05 01 0C 29 10 DC 02 05  01 0C 29 10 DD 02 05 01  ...)......).....
1680: 0C 29 10 DE 02 05 01 0C  29 10 DF 02 05 01 0C 29  .)......)......)
1690: 10 E0 02 05 01 0D 29 10  E1 02 05 01 0C 29 10 E2  ......)......)..
16A0: 02 05 01 0C 29 10 E3 02  05 01 0C 29 10 E4 02 05  ....)......)....
16B0: 01 0C 29 10 E5 02 05 01  0C BA DA 02 05 01 6F 80  ..)...........o.
16C0: 70 80 71 80 6A 80 BA DB  02 05 01 72 80 73 80 74  p.q.j......r.s.t
16D0: 80 6A 80 BA DC 02 05 01  75 80 76 80 77 80 6E 80  .j......u.v.w.n.
16E0: BA DD 02 05 01 78 80 79  80 7A 80 6E 80 BA DE 02  .....x.y.z.n....
16F0: 05 01 7B 80 7C 80 7D 80  6A 80 BA DF 02 05 01 7E  ..{.|.}.j......~
1700: 80 7F 80 80 80 6E 80 BA  E0 02 05 01 8E 80 8F 80  .....n..........
1710: 90 80 6E 80 BA E1 02 05  01 91 80 92 80 90 80 6A  ..n............j
1720: 80 BA E2 02 05 01 93 80  94 80 90 80 6E 80 BA E3  ............n...
1730: 02 05 01 95 80 96 80 90  80 6A 80 BA E4 02 05 01  .........j......
1740: 97 80 98 80 90 80 6A 80  BA E5 02 05 01 99 80 9A  ......j.........
1750: 80 90 80 6A 80 BA D2 02  05 01 67 80 68 80 69 80  ...j......g.h.i.
1760: 6A 80 BA AE 02 05 01 6B  80 6C 80 6D 80 6E 80 BA  j......k.l.m.n..
1770: D4 02 05 01 B2 80 B3 80  80 80 6E 80 BA D5 02 05  ..........n.....
1780: 01 84 80 85 80 80 80 6E  80 BA E6 02 05 01 84 80  .......n........
1790: 85 80 80 80 6E 80 BA F0  FF FF 7F 86 80 87 80 80  ....n...........
17A0: 80 6E 80 BA D6 02 05 01  88 80 89 80 8A 80 6A 80  .n............j.
17B0: BA 5F 02 05 01 B4 80 B5  80 B6 80 6A 80 4A 5F 02  ._.........j.J_.
17C0: 05 01 D4 02 05 01 4A D6  02 05 01 D4 02 05 01 4A  ......J........J
17D0: F0 FF FF 7F D4 02 05 01  5B 9B 80 D5 02 05 01 D5  ........[.......
17E0: 02 05 01 00 FE FE FE 5B  9C 80 E6 02 05 01 E6 02  .......[........
17F0: 05 01 00 FE FE FE 80 F0  FF FF 7F 80 D2 02 05 01  ................
1800: 80 AE 02 05 01 80 D4 02  05 01 80 D5 02 05 01 80  ................
1810: E6 02 05 01 80 D6 02 05  01 5B 9B 80 D5 02 05 01  .........[......
1820: D5 02 05 01 63 68 6F 30  5B 9C 80 E6 02 05 01 E6  ....cho0[.......
1830: 02 05 01 63 68 6F 30 27  10 D4 02 05 01 0A 27 10  ...cho0'......'.
1840: D6 02 05 01 0C 29 10 D2  02 05 01 0A 29 10 AE 02  .....)......)...
1850: 05 01 0D 29 10 F0 FF FF  7F 1B 02 02 10 0E 80 80  ...)............
1860: 6C 18 27 10 F0 FF FF 7F  36 01 EA 18 02 02 10 45  l.'.....6......E
1870: 80 80 7E 18 27 10 F0 FF  FF 7F 36 01 EA 18 02 02  ..~.'.....6.....
1880: 10 46 80 80 90 18 27 10  F0 FF FF 7F 37 01 EA 18  .F....'.....7...
1890: 02 02 10 47 80 80 A2 18  27 10 F0 FF FF 7F 37 01  ...G....'.....7.
18A0: EA 18 02 02 10 48 80 80  B4 18 27 10 F0 FF FF 7F  .....H....'.....
18B0: 38 01 EA 18 02 02 10 49  80 80 C6 18 27 10 F0 FF  8......I....'...
18C0: FF 7F 38 01 EA 18 02 02  10 4A 80 80 D8 18 27 10  ..8......J....'.
18D0: F0 FF FF 7F 39 01 EA 18  02 02 10 4B 80 80 EA 18  ....9......K....
18E0: 27 10 F0 FF FF 7F 3A 01  EA 18 1C 42 80 45 0A 80  '.....:....B.E..
18F0: F0 FF FF 7F F0 FF FF 7F  70 33 30 39 0B 80 1A 00  ........p309....
1900: 65 7C 00 D4 02 05 01 2B  D4 02 05 01 B7 80 23 7C  e|.....+......#|
1910: 01 D4 02 05 01 52 0A 80  F0 FF FF 7F F0 FF FF 7F  .....R..........
1920: 70 33 30 39 45 0A 80 F0  FF FF 7F F0 FF FF 7F 70  p309E..........p
1930: 33 31 30 0B 80 81 00 5F  02 05 01 66 A2 80 5F 02  310...._...f.._.
1940: 05 01 5F 02 05 01 74 68  6B 31 2B 5F 02 05 01 B8  .._...thk1+_....
1950: 80 23 1A 21 65 5D 0B 80  2E 80 52 0A 80 F0 FF FF  .#.!e]....R.....
1960: 7F F0 FF FF 7F 70 33 31  30 4E 01 E6 02 05 01 4E  .....p310N.....N
1970: 01 D3 02 05 01 4E 01 D2  02 05 01 4E 01 AE 02 05  .....N.....N....
1980: 01 4E 01 D4 02 05 01 4E  01 D5 02 05 01 4E 01 D6  .N.....N.....N..
1990: 02 05 01 4E 01 5F 02 05  01 4E 01 DA 02 05 01 4E  ...N._...N.....N
19A0: 01 DB 02 05 01 4E 01 DC  02 05 01 4E 01 DD 02 05  .....N.....N....
19B0: 01 4E 01 DE 02 05 01 4E  01 DF 02 05 01 4E 01 E0  .N.....N.....N..
19C0: 02 05 01 4E 01 E1 02 05  01 4E 01 E2 02 05 01 4E  ...N.....N.....N
19D0: 01 E3 02 05 01 4E 01 E4  02 05 01 4E 01 E5 02 05  .....N.....N....
19E0: 01 34 A4 80 AB 09 77 13  80 A5 80 1C 3E 80 03 00  .4....w.....>...
19F0: 00 09 10 27 10 EA 02 05  01 04 27 10 D8 02 05 01  ...'......'.....
1A00: 04 27 10 F0 FF FF 7F 3F  92 01 EA 02 05 01 92 01  .'.....?........
1A10: D8 02 05 01 BA EA 02 05  01 A6 80 A7 80 A8 80 A9  ................
1A20: 80 BA D8 02 05 01 AA 80  AB 80 AC 80 A9 80 80 EA  ................
1A30: 02 05 01 80 D8 02 05 01  1C 42 80 1C 3E 80 45 0A  .........B..>.E.
1A40: 80 F0 FF FF 7F F0 FF FF  7F 70 35 30 33 0B 80 73  .........p503..s
1A50: B9 80 EA 02 05 01 D8 02  05 01 1A 00 65 1C 60 80  ............e.`.
1A60: 2C D8 02 05 01 D8 02 05  01 64 65 61 64 2B D8 02  ,........dead+..
1A70: 05 01 BA 80 23 02 00 00  0E 80 00 88 1A 5C 00 BB  ....#........\..
1A80: 80 5C 01 BB 80 01 90 1A  5C 00 BC 80 5C 01 BC 80  .\......\...\...
1A90: 5B BD 80 EA 02 05 01 EA  02 05 01 68 6F 6B 30 9A  [..........hok0.
1AA0: 52 0A 80 F0 FF FF 7F F0  FF FF 7F 70 35 30 33 45  R..........p503E
1AB0: 0A 80 F0 FF FF 7F F0 FF  FF 7F 70 35 30 34 0B 80  ..........p504..
1AC0: 2B 46 02 05 01 BE 80 23  27 10 D8 02 05 01 09 2B  +F.....#'......+
1AD0: 46 02 05 01 BF 80 23 2B  5F 02 05 01 C0 80 23 52  F.....#+_.....#R
1AE0: 0A 80 F0 FF FF 7F F0 FF  FF 7F 70 35 30 34 45 0A  ..........p504E.
1AF0: 80 F0 FF FF 7F F0 FF FF  7F 70 35 30 35 0B 80 2B  .........p505..+
1B00: 46 02 05 01 C1 80 23 2A  10 D8 02 05 01 59 04 D8  F.....#*.....Y..
1B10: 02 05 01 5B 80 27 10 D8  02 05 01 0A 2B 46 02 05  ...[.'......+F..
1B20: 01 C2 80 23 52 0A 80 F0  FF FF 7F F0 FF FF 7F 70  ...#R..........p
1B30: 35 30 35 45 0A 80 F0 FF  FF 7F F0 FF FF 7F 70 35  505E..........p5
1B40: 30 36 0B 80 2B 46 02 05  01 C3 80 23 52 0A 80 F0  06..+F.....#R...
1B50: FF FF 7F F0 FF FF 7F 70  35 30 36 45 0A 80 F0 FF  .......p506E....
1B60: FF 7F F0 FF FF 7F 70 35  30 37 0B 80 2B D4 02 05  ......p507..+...
1B70: 01 C4 80 23 52 0A 80 F0  FF FF 7F F0 FF FF 7F 70  ...#R..........p
1B80: 35 30 37 45 0A 80 F0 FF  FF 7F F0 FF FF 7F 70 35  507E..........p5
1B90: 30 38 0B 80 2B 46 02 05  01 C5 80 23 2B 46 02 05  08..+F.....#+F..
1BA0: 01 C6 80 23 5D 0B 80 11  80 1A 21 65 52 0A 80 F0  ...#].....!eR...
1BB0: FF FF 7F F0 FF FF 7F 70  35 30 38 4E 01 D8 02 05  .......p508N....
1BC0: 01 4E 01 EA 02 05 01 34  66 80 77 13 80 0E 80 AB  .N.....4f.w.....
1BD0: 09 03 00 00 09 10 27 10  D2 02 05 01 04 27 10 AE  ......'......'..
1BE0: 02 05 01 04 27 10 D4 02  05 01 04 27 10 D5 02 05  ....'......'....
1BF0: 01 04 27 10 E6 02 05 01  04 27 10 D6 02 05 01 04  ..'......'......
1C00: 4E 00 5F 02 05 01 27 10  DA 02 05 01 04 27 10 DB  N._...'......'..
1C10: 02 05 01 04 27 10 DC 02  05 01 04 27 10 DD 02 05  ....'......'....
1C20: 01 04 27 10 DE 02 05 01  04 27 10 DF 02 05 01 04  ..'......'......
1C30: 27 10 E0 02 05 01 04 27  10 E1 02 05 01 04 27 10  '......'......'.
1C40: E2 02 05 01 04 27 10 E3  02 05 01 04 27 10 E4 02  .....'......'...
1C50: 05 01 04 27 10 E5 02 05  01 04 92 01 E6 02 05 01  ...'............
1C60: 92 01 D3 02 05 01 92 01  D2 02 05 01 92 01 AE 02  ................
1C70: 05 01 92 01 D4 02 05 01  92 01 D5 02 05 01 92 01  ................
1C80: D6 02 05 01 92 01 5F 02  05 01 92 01 DA 02 05 01  ......_.........
1C90: 92 01 DB 02 05 01 92 01  DC 02 05 01 92 01 DD 02  ................
1CA0: 05 01 92 01 DE 02 05 01  92 01 DF 02 05 01 92 01  ................
1CB0: E0 02 05 01 92 01 E1 02  05 01 92 01 E2 02 05 01  ................
1CC0: 92 01 E3 02 05 01 92 01  E4 02 05 01 92 01 E5 02  ................
1CD0: 05 01 94 01 F0 FF FF 7F  94 01 E6 02 05 01 94 01  ................
1CE0: D2 02 05 01 94 01 D4 02  05 01 94 01 D5 02 05 01  ................
1CF0: 94 01 D6 02 05 01 94 01  5F 02 05 01 27 10 DA 02  ........_...'...
1D00: 05 01 0B 27 10 DB 02 05  01 0B 27 10 DC 02 05 01  ...'......'.....
1D10: 0B 27 10 DD 02 05 01 0B  27 10 DE 02 05 01 0B 27  .'......'......'
1D20: 10 DF 02 05 01 0B 27 10  E0 02 05 01 0C 27 10 E1  ......'......'..
1D30: 02 05 01 0B 27 10 E2 02  05 01 0B 27 10 E3 02 05  ....'......'....
1D40: 01 0B 27 10 E4 02 05 01  0B 27 10 E5 02 05 01 0B  ..'......'......
1D50: 29 10 DA 02 05 01 0C 29  10 DB 02 05 01 0C 29 10  )......)......).
1D60: DC 02 05 01 0C 29 10 DD  02 05 01 0C 29 10 DE 02  .....)......)...
1D70: 05 01 0C 29 10 DF 02 05  01 0C 29 10 E0 02 05 01  ...)......).....
1D80: 0D 29 10 E1 02 05 01 0C  29 10 E2 02 05 01 0C 29  .)......)......)
1D90: 10 E3 02 05 01 0C 29 10  E4 02 05 01 0C 29 10 E5  ......)......)..
1DA0: 02 05 01 0C BA DA 02 05  01 6F 80 70 80 71 80 6A  .........o.p.q.j
1DB0: 80 BA DB 02 05 01 72 80  73 80 74 80 6A 80 BA DC  ......r.s.t.j...
1DC0: 02 05 01 75 80 76 80 77  80 6E 80 BA DD 02 05 01  ...u.v.w.n......
1DD0: 78 80 79 80 7A 80 6E 80  BA DE 02 05 01 7B 80 7C  x.y.z.n......{.|
1DE0: 80 7D 80 6A 80 BA DF 02  05 01 7E 80 7F 80 80 80  .}.j......~.....
1DF0: 6E 80 BA E0 02 05 01 8E  80 8F 80 90 80 6E 80 BA  n............n..
1E00: E1 02 05 01 91 80 92 80  90 80 6A 80 BA E2 02 05  ..........j.....
1E10: 01 93 80 94 80 90 80 6E  80 BA E3 02 05 01 95 80  .......n........
1E20: 96 80 90 80 6A 80 BA E4  02 05 01 97 80 98 80 90  ....j...........
1E30: 80 6A 80 BA E5 02 05 01  99 80 9A 80 90 80 6A 80  .j............j.
1E40: BA D2 02 05 01 67 80 68  80 69 80 6A 80 BA AE 02  .....g.h.i.j....
1E50: 05 01 6B 80 6C 80 6D 80  6E 80 BA D4 02 05 01 B2  ..k.l.m.n.......
1E60: 80 B3 80 80 80 6E 80 BA  D5 02 05 01 84 80 85 80  .....n..........
1E70: 80 80 6E 80 BA E6 02 05  01 84 80 85 80 80 80 6E  ..n............n
1E80: 80 BA F0 FF FF 7F 86 80  87 80 80 80 6E 80 BA D6  ............n...
1E90: 02 05 01 88 80 89 80 8A  80 6A 80 BA 5F 02 05 01  .........j.._...
1EA0: B4 80 B5 80 B6 80 6A 80  4A 5F 02 05 01 D4 02 05  ......j.J_......
1EB0: 01 4A D6 02 05 01 D4 02  05 01 4A F0 FF FF 7F D4  .J........J.....
1EC0: 02 05 01 4A D5 02 05 01  D4 02 05 01 4A E6 02 05  ...J........J...
1ED0: 01 D4 02 05 01 5B 9B 80  D5 02 05 01 D5 02 05 01  .....[..........
1EE0: 00 FE FE FE 5B 9C 80 E6  02 05 01 E6 02 05 01 00  ....[...........
1EF0: FE FE FE 80 F0 FF FF 7F  80 D2 02 05 01 80 AE 02  ................
1F00: 05 01 80 D4 02 05 01 80  D5 02 05 01 80 E6 02 05  ................
1F10: 01 80 D6 02 05 01 5B 9B  80 D5 02 05 01 D5 02 05  ......[.........
1F20: 01 63 68 6F 30 5B 9C 80  E6 02 05 01 E6 02 05 01  .cho0[..........
1F30: 63 68 6F 30 27 10 D4 02  05 01 0A 27 10 D6 02 05  cho0'......'....
1F40: 01 0C 29 10 D2 02 05 01  0A 29 10 AE 02 05 01 0D  ..)......)......
1F50: 29 10 F0 FF FF 7F 1B 02  02 10 0E 80 80 69 1F 27  )............i.'
1F60: 10 F0 FF FF 7F 36 01 E7  1F 02 02 10 45 80 80 7B  .....6......E..{
1F70: 1F 27 10 F0 FF FF 7F 36  01 E7 1F 02 02 10 46 80  .'.....6......F.
1F80: 80 8D 1F 27 10 F0 FF FF  7F 37 01 E7 1F 02 02 10  ...'.....7......
1F90: 47 80 80 9F 1F 27 10 F0  FF FF 7F 37 01 E7 1F 02  G....'.....7....
1FA0: 02 10 48 80 80 B1 1F 27  10 F0 FF FF 7F 38 01 E7  ..H....'.....8..
1FB0: 1F 02 02 10 49 80 80 C3  1F 27 10 F0 FF FF 7F 38  ....I....'.....8
1FC0: 01 E7 1F 02 02 10 4A 80  80 D5 1F 27 10 F0 FF FF  ......J....'....
1FD0: 7F 39 01 E7 1F 02 02 10  4B 80 80 E7 1F 27 10 F0  .9......K....'..
1FE0: FF FF 7F 3A 01 E7 1F 1C  05 80 5C 00 C7 80 5C 01  ...:......\...\.
1FF0: C7 80 9A 45 0A 80 F0 FF  FF 7F F0 FF FF 7F 70 33  ...E..........p3
2000: 31 38 0B 80 1A 00 65 2B  D4 02 05 01 C8 80 23 2B  18....e+......#+
2010: D4 02 05 01 C9 80 23 52  0A 80 F0 FF FF 7F F0 FF  ......#R........
2020: FF 7F 70 33 31 38 45 0A  80 F0 FF FF 7F F0 FF FF  ..p318E.........
2030: 7F 70 33 31 35 0B 80 2B  46 02 05 01 CA 80 23 52  .p315..+F.....#R
2040: 0A 80 F0 FF FF 7F F0 FF  FF 7F 70 33 31 35 45 0A  ..........p315E.
2050: 80 F0 FF FF 7F F0 FF FF  7F 70 33 31 39 0B 80 4A  .........p319..J
2060: D4 02 05 01 D5 02 05 01  6F 76 D4 02 05 01 2B D4  ........ov....+.
2070: 02 05 01 CB 80 23 4A F0  FF FF 7F D4 02 05 01 52  .....#J........R
2080: 0A 80 F0 FF FF 7F F0 FF  FF 7F 70 33 31 39 45 0A  ..........p319E.
2090: 80 F0 FF FF 7F F0 FF FF  7F 70 33 32 31 0B 80 5B  .........p321..[
20A0: 43 80 D5 02 05 01 D5 02  05 01 66 63 30 30 2B D4  C.........fc00+.
20B0: 02 05 01 CC 80 23 2B D4  02 05 01 CD 80 23 52 0A  .....#+......#R.
20C0: 80 F0 FF FF 7F F0 FF FF  7F 70 33 32 31 45 0A 80  .........p321E..
20D0: F0 FF FF 7F F0 FF FF 7F  70 33 32 32 0B 80 5B 43  ........p322..[C
20E0: 80 D5 02 05 01 D5 02 05  01 66 63 30 31 2B D5 02  .........fc01+..
20F0: 05 01 CE 80 23 5B 43 80  D5 02 05 01 D5 02 05 01  ....#[C.........
2100: 66 63 30 30 BA D2 02 05  01 CF 80 D0 80 D1 80 D2  fc00............
2110: 80 52 0A 80 F0 FF FF 7F  F0 FF FF 7F 70 33 32 32  .R..........p322
2120: 45 0A 80 F0 FF FF 7F F0  FF FF 7F 70 33 32 33 0B  E..........p323.
2130: 80 27 10 D2 02 05 01 0B  1C 0D 80 52 0A 80 F0 FF  .'.........R....
2140: FF 7F F0 FF FF 7F 70 33  32 33 45 0A 80 F0 FF FF  ......p323E.....
2150: 7F F0 FF FF 7F 70 33 32  30 0B 80 2B D2 02 05 01  .....p320..+....
2160: D3 80 23 4A D4 02 05 01  D2 02 05 01 52 0A 80 F0  ..#J........R...
2170: FF FF 7F F0 FF FF 7F 70  33 32 30 45 0A 80 F0 FF  .......p320E....
2180: FF 7F F0 FF FF 7F 70 33  32 34 0B 80 4A F0 FF FF  ......p324..J...
2190: 7F D5 02 05 01 7B F0 FF  FF 7F 6F 76 D4 02 05 01  .....{....ov....
21A0: 2B D4 02 05 01 D4 80 23  52 0A 80 F0 FF FF 7F F0  +......#R.......
21B0: FF FF 7F 70 33 32 34 45  0A 80 F0 FF FF 7F F0 FF  ...p324E........
21C0: FF 7F 70 33 32 35 0B 80  2B D2 02 05 01 D5 80 23  ..p325..+......#
21D0: 2B D2 02 05 01 D6 80 23  52 0A 80 F0 FF FF 7F F0  +......#R.......
21E0: FF FF 7F 70 33 32 35 45  0A 80 F0 FF FF 7F F0 FF  ...p325E........
21F0: FF 7F 70 33 32 36 0B 80  5B 43 80 D5 02 05 01 D5  ..p326..[C......
2200: 02 05 01 66 63 30 31 2B  D5 02 05 01 D7 80 23 5B  ...fc01+......#[
2210: 43 80 D5 02 05 01 D5 02  05 01 66 63 30 30 4A D5  C.........fc00J.
2220: 02 05 01 D6 02 05 01 4A  E6 02 05 01 D6 02 05 01  .......J........
2230: 52 0A 80 F0 FF FF 7F F0  FF FF 7F 70 33 32 36 45  R..........p326E
2240: 0A 80 F0 FF FF 7F F0 FF  FF 7F 70 33 32 37 0B 80  ..........p327..
2250: 6F 76 D5 02 05 01 2B D5  02 05 01 D8 80 23 45 0C  ov....+......#E.
2260: 80 F0 FF FF 7F F0 FF FF  7F 66 64 6F 32 0B 80 5D  .........fdo2..]
2270: 0B 80 11 80 55 0C 80 F0  FF FF 7F F0 FF FF 7F 66  ....U..........f
2280: 64 6F 32 52 0A 80 F0 FF  FF 7F F0 FF FF 7F 70 33  do2R..........p3
2290: 32 37 35 D9 80 77 13 80  0E 80 AB 09 27 10 D5 02  275..w......'...
22A0: 05 01 04 27 10 D6 02 05  01 04 4E 00 67 02 05 01  ...'......N.g...
22B0: 92 01 D5 02 05 01 92 01  D6 02 05 01 92 01 67 02  ..............g.
22C0: 05 01 94 01 F0 FF FF 7F  94 01 D5 02 05 01 94 01  ................
22D0: D6 02 05 01 BA F0 FF FF  7F DA 80 DB 80 DC 80 16  ................
22E0: 80 BA D5 02 05 01 DD 80  DE 80 DC 80 DF 80 BA D6  ................
22F0: 02 05 01 E0 80 E1 80 E2  80 E3 80 BA 67 02 05 01  ............g...
2300: E4 80 E5 80 E6 80 E7 80  29 10 D6 02 05 01 0F 29  ........)......)
2310: 10 F0 FF FF 7F 3C 80 F0  FF FF 7F 80 D5 02 05 01  .....<..........
2320: 80 D6 02 05 01 80 67 02  05 01 5C 00 E8 80 5C 01  ......g...\...\.
2330: E8 80 9A 59 04 F0 FF FF  7F E9 80 59 04 D5 02 05  ...Y.......Y....
2340: 01 E9 80 59 04 D6 02 05  01 E9 80 27 10 D5 02 05  ...Y.......'....
2350: 01 0C 1C 3E 80 27 10 F0  FF FF 7F 3B 1C 3E 80 27  ...>.'.....;.>.'
2360: 10 D6 02 05 01 0E 1C 3E  80 45 0A 80 F0 FF FF 7F  .......>.E......
2370: F0 FF FF 7F 70 34 30 31  0B 80 45 0C 80 F0 FF FF  ....p401..E.....
2380: 7F F0 FF FF 7F 66 64 69  32 0B 80 55 0C 80 F0 FF  .....fdi2..U....
2390: FF 7F F0 FF FF 7F 66 64  69 32 5B 43 80 D5 02 05  ......fdi2[C....
23A0: 01 D5 02 05 01 66 64 30  30 1C 0D 80 52 0A 80 F0  .....fd00...R...
23B0: FF FF 7F F0 FF FF 7F 70  34 30 31 45 0A 80 F0 FF  .......p401E....
23C0: FF 7F F0 FF FF 7F 70 34  30 32 0B 80 5B 43 80 D5  ......p402..[C..
23D0: 02 05 01 D5 02 05 01 66  64 30 31 5B EA 80 D5 02  .......fd01[....
23E0: 05 01 D5 02 05 01 74 68  61 30 2B D5 02 05 01 EB  ......tha0+.....
23F0: 80 23 52 0A 80 F0 FF FF  7F F0 FF FF 7F 70 34 30  .#R..........p40
2400: 32 45 0A 80 F0 FF FF 7F  F0 FF FF 7F 70 34 31 35  2E..........p415
2410: 0B 80 7C 00 D5 02 05 01  81 00 D5 02 05 01 5B 43  ..|...........[C
2420: 80 D5 02 05 01 D5 02 05  01 66 64 30 31 5B EA 80  .........fd01[..
2430: D5 02 05 01 D5 02 05 01  74 68 61 31 2B D5 02 05  ........tha1+...
2440: 01 EC 80 23 5B 43 80 D5  02 05 01 D5 02 05 01 66  ...#[C.........f
2450: 64 30 30 52 0A 80 F0 FF  FF 7F F0 FF FF 7F 70 34  d00R..........p4
2460: 31 35 45 0A 80 F0 FF FF  7F F0 FF FF 7F 70 34 30  15E..........p40
2470: 33 0B 80 2B D6 02 05 01  ED 80 23 5B 43 80 D5 02  3..+......#[C...
2480: 05 01 D5 02 05 01 66 64  30 31 5B EE 80 D5 02 05  ......fd01[.....
2490: 01 D5 02 05 01 74 68 62  30 52 0A 80 F0 FF FF 7F  .....thb0R......
24A0: F0 FF FF 7F 70 34 30 33  45 0A 80 F0 FF FF 7F F0  ....p403E.......
24B0: FF FF 7F 70 34 30 34 0B  80 5D 0B 80 42 80 2B D5  ...p404..]..B.+.
24C0: 02 05 01 EF 80 23 53 D5  02 05 01 D5 02 05 01 74  .....#S........t
24D0: 68 62 30 5B EE 80 D5 02  05 01 D5 02 05 01 74 68  hb0[..........th
24E0: 62 31 03 02 10 F0 80 03  03 10 F1 80 2B D5 02 05  b1..........+...
24F0: 01 F2 80 23 53 D5 02 05  01 D5 02 05 01 74 68 62  ...#S........thb
2500: 31 5C 00 F3 80 5C 01 F3  80 9A 52 0A 80 F0 FF FF  1\...\....R.....
2510: 7F F0 FF FF 7F 70 34 30  34 45 0A 80 F0 FF FF 7F  .....p404E......
2520: F0 FF FF 7F 70 34 30 35  0B 80 2B D5 02 05 01 F4  ....p405..+.....
2530: 80 23 5B 43 80 D5 02 05  01 D5 02 05 01 66 64 30  .#[C.........fd0
2540: 31 52 0A 80 F0 FF FF 7F  F0 FF FF 7F 70 34 30 35  1R..........p405
2550: 45 0A 80 F0 FF FF 7F F0  FF FF 7F 70 34 30 36 0B  E..........p406.
2560: 80 5B F5 80 D6 02 05 01  D6 02 05 01 73 74 61 30  .[..........sta0
2570: 2B D6 02 05 01 F6 80 23  5B F5 80 D6 02 05 01 D6  +......#[.......
2580: 02 05 01 73 74 61 31 52  0A 80 F0 FF FF 7F F0 FF  ...sta1R........
2590: FF 7F 70 34 30 36 45 0A  80 F0 FF FF 7F F0 FF FF  ..p406E.........
25A0: 7F 70 34 30 37 0B 80 5B  43 80 D5 02 05 01 D5 02  .p407..[C.......
25B0: 05 01 66 64 30 31 5B EA  80 D5 02 05 01 D5 02 05  ..fd01[.........
25C0: 01 74 6C 61 30 2B D5 02  05 01 F7 80 23 52 0A 80  .tla0+......#R..
25D0: F0 FF FF 7F F0 FF FF 7F  70 34 30 37 45 0A 80 F0  ........p407E...
25E0: FF FF 7F F0 FF FF 7F 70  34 30 38 0B 80 5B 43 80  .......p408..[C.
25F0: D5 02 05 01 D5 02 05 01  66 30 30 30 5B EA 80 D5  ........f000[...
2600: 02 05 01 D5 02 05 01 74  6C 61 31 7C 01 D5 02 05  .......tla1|....
2610: 01 81 01 D5 02 05 01 66  F8 80 D6 02 05 01 D6 02  .......f........
2620: 05 01 74 68 6B 31 2B D6  02 05 01 F9 80 23 5B EA  ..thk1+......#[.
2630: 80 D5 02 05 01 D5 02 05  01 74 6C 62 30 52 0A 80  .........tlb0R..
2640: F0 FF FF 7F F0 FF FF 7F  70 34 30 38 45 0A 80 F0  ........p408E...
2650: FF FF 7F F0 FF FF 7F 70  34 30 39 0B 80 66 F8 80  .......p409..f..
2660: D6 02 05 01 D6 02 05 01  74 68 6B 32 2B D5 02 05  ........thk2+...
2670: 01 FA 80 23 5B EA 80 D5  02 05 01 D5 02 05 01 74  ...#[..........t
2680: 6C 62 31 2B D5 02 05 01  FB 80 23 53 D5 02 05 01  lb1+......#S....
2690: D5 02 05 01 74 6C 62 31  52 0A 80 F0 FF FF 7F F0  ....tlb1R.......
26A0: FF FF 7F 70 34 30 39 45  0A 80 F0 FF FF 7F F0 FF  ...p409E........
26B0: FF 7F 70 34 31 30 0B 80  5B EE 80 D5 02 05 01 D5  ..p410..[.......
26C0: 02 05 01 74 68 62 30 03  02 10 F0 80 03 03 10 F1  ...thb0.........
26D0: 80 2B D5 02 05 01 FC 80  23 2B D5 02 05 01 FD 80  .+......#+......
26E0: 23 52 0A 80 F0 FF FF 7F  F0 FF FF 7F 70 34 31 30  #R..........p410
26F0: 45 0A 80 F0 FF FF 7F F0  FF FF 7F 70 34 31 31 0B  E..........p411.
2700: 80 5B EE 80 D5 02 05 01  D5 02 05 01 74 68 62 31  .[..........thb1
2710: 6E D6 02 05 01 4A 80 99  D6 02 05 01 2B D6 02 05  n....J......+...
2720: 01 FE 80 23 53 D5 02 05  01 D5 02 05 01 74 68 62  ...#S........thb
2730: 31 52 0A 80 F0 FF FF 7F  F0 FF FF 7F 70 34 31 31  1R..........p411
2740: 45 0A 80 F0 FF FF 7F F0  FF FF 7F 70 34 31 32 0B  E..........p412.
2750: 80 7C 00 D5 02 05 01 81  00 D5 02 05 01 5B 43 80  .|...........[C.
2760: D5 02 05 01 D5 02 05 01  66 64 30 31 5B 44 80 D5  ........fd01[D..
2770: 02 05 01 D5 02 05 01 6F  6B 30 30 2B D5 02 05 01  .......ok00+....
2780: FF 80 23 7C 01 D5 02 05  01 81 01 D5 02 05 01 53  ..#|...........S
2790: D5 02 05 01 D5 02 05 01  6F 6B 30 30 52 0A 80 F0  ........ok00R...
27A0: FF FF 7F F0 FF FF 7F 70  34 31 32 45 0A 80 F0 FF  .......p412E....
27B0: FF 7F F0 FF FF 7F 70 34  31 33 0B 80 5B 43 80 D5  ......p413..[C..
27C0: 02 05 01 D5 02 05 01 66  64 30 30 2B D5 02 05 01  .......fd00+....
27D0: 00 81 23 52 0A 80 F0 FF  FF 7F F0 FF FF 7F 70 34  ..#R..........p4
27E0: 31 33 45 0A 80 F0 FF FF  7F F0 FF FF 7F 70 34 31  13E..........p41
27F0: 34 0B 80 1C 0D 80 5D 0B  80 2E 80 45 0C 80 F0 FF  4.....]....E....
2800: FF 7F F0 FF FF 7F 66 64  6F 32 0B 80 55 0C 80 F0  ......fdo2..U...
2810: FF FF 7F F0 FF FF 7F 66  64 6F 32 52 0A 80 F0 FF  .......fdo2R....
2820: FF 7F F0 FF FF 7F 70 34  31 34 1C 3E 80 5C 00 E8  ......p414.>.\..
2830: 80 5C 01 E8 80 9A 1C 3E  80 AB 11 0B 80 1C 0E 80  .\.....>........
2840: 78 1C 3E 80 AB 0A AB 11  0B 80 1C 05 80 52 01 81  x.>..........R..
2850: F0 FF FF 7F F0 FF FF 7F  6C 73 39 39 45 01 81 F0  ........ls99E...
2860: FF FF 7F F0 FF FF 7F 30  62 6C 66 0B 80 46 00 45  .......0blf..F.E
2870: 0C 80 F0 FF FF 7F F0 FF  FF 7F 66 64 69 32 0B 80  ..........fdi2..
2880: 21 00                                             !.              
```

#### Opcodes

```
  0: 0x0001 [0x42] SET_CLI_EVENT_CANCEL_DATA()
  1: 0x0002 [0x1A] CALL_SUBROUTINE(address=0x6521)
  2: 0x0005 [0x46] CAMERA_CONTROL: Disable user control
  3: 0x0007 [0x38] SET_CLIENT_EVENT_MODE(mode=19*)
  4: 0x000A [0x4E] SET_ENTITY_HIDE_FLAG: Show Aissaville (ID: 17105390/0x010501EE)
  5: 0x0010 [0x4E] SET_ENTITY_HIDE_FLAG: Show Raustigne (ID: 17105391/0x010501EF)
  6: 0x0016 [0x92] Aissaville (ID: 17105390/0x010501EE)->Render.Flags3 ^= 0x01
  7: 0x001C [0x92] Raustigne (ID: 17105391/0x010501EF)->Render.Flags3 ^= 0x01
  8: 0x0022 [0x94] LocalPlayer->Render.Flags3 ^= 0x01
  9: 0x0028 [0xBA] SET_ENTITY_POSITION(entity_id=LocalPlayer, pos_x=0.486*, pos_z=38.491*, pos_y=-1.758*, direction=289.2*)
 10: 0x0035 [0x80] LOAD_WAIT(entity=LocalPlayer)
 11: 0x003A [0x80] LOAD_WAIT(entity=Aissaville (ID: 17105390/0x010501EE))
 12: 0x003F [0x80] LOAD_WAIT(entity=Raustigne (ID: 17105391/0x010501EF))
 13: 0x0044 [0x1C] WAIT(30* ticks)
 14: 0x0047 [0x03] Work_Zone[37] = 2436*
 15: 0x004C [0x03] Work_Zone[39] = 41800*
 16: 0x0051 [0x03] Work_Zone[38] = 4294965296*
 17: 0x0056 [0x03] Work_Zone[40] = 3113*
 18: 0x005B [0x27] REQ_SET(priority=0x10, entity_id=LocalPlayer, tag_num=0x16)
 19: 0x0062 [0x45] LOAD_SCHEDULED_TASK: Load scheduler "p101" with entities [LocalPlayer, LocalPlayer], work=[452*, 0*]
 20: 0x0073 [0x45] LOAD_SCHEDULED_TASK: Load scheduler "fdi2" with entities [LocalPlayer, LocalPlayer], work=[200*, 0*]
 21: 0x0084 [0x55] WAIT_LOAD_SCHEDULER: Wait for scheduler "fdi2" with entities [LocalPlayer, LocalPlayer], work=200*
 22: 0x0093 [0x1C] WAIT(120* ticks)
 23: 0x0096 [0x52] END_LOAD_SCHEDULER: End scheduler "p101" with entities [LocalPlayer, LocalPlayer], work=452*
 24: 0x00A5 [0x45] LOAD_SCHEDULED_TASK: Load scheduler "p102" with entities [LocalPlayer, LocalPlayer], work=[452*, 0*]
 25: 0x00B6 [0x6E] Raustigne (ID: 17105391/0x010501EF) uses emote 1*
 26: 0x00BD [0x99] Wait for Raustigne (ID: 17105391/0x010501EF) animation to complete
 27: 0x00C2 [0x1C] WAIT(30* ticks)
 28: 0x00C5 [0x2B] Raustigne (ID: 17105391/0x010501EF) [12666*]:
     "Ho there! <Player> from fair Windurst, are you not? Well met!"
 29: 0x00CC [0x23] WAIT_FOR_DIALOG_INTERACTION
 30: 0x00CD [0x2B] Raustigne (ID: 17105391/0x010501EF) [12667*]:
     "No doubt your legs are weary from the road, but I have orders to escort you to the castle at once. All parties have assembled, and there is much that needs be discussed."
 31: 0x00D4 [0x23] WAIT_FOR_DIALOG_INTERACTION
 32: 0x00D5 [0x5D] SET_MUSIC_VOLUME(volume=0*, fade_time=180*)
 33: 0x00DA [0x45] LOAD_SCHEDULED_TASK: Load scheduler "fdo2" with entities [LocalPlayer, LocalPlayer], work=[200*, 0*]
 34: 0x00EB [0x55] WAIT_LOAD_SCHEDULER: Wait for scheduler "fdo2" with entities [LocalPlayer, LocalPlayer], work=200*
 35: 0x00FA [0x52] END_LOAD_SCHEDULER: End scheduler "p102" with entities [LocalPlayer, LocalPlayer], work=452*
 36: 0x0109 [0x34] LOAD_UNLOAD_ZONE(zone_id=233*)
 37: 0x010C [0x77] SET_EVENT_TIME_WEATHER(hour=255*, weather=1*)
 38: 0x0111 [0xAB] EventEntity->UnknownFlag = 1 // Enable unknown flag
 39: 0x0113 [0x27] REQ_SET(priority=0x10, entity_id=hei1 (ID: 17105626/0x010502DA), tag_num=0x04)
 40: 0x011A [0x27] REQ_SET(priority=0x10, entity_id=hei2 (ID: 17105627/0x010502DB), tag_num=0x04)
 41: 0x0121 [0x27] REQ_SET(priority=0x10, entity_id=hei3 (ID: 17105628/0x010502DC), tag_num=0x04)
 42: 0x0128 [0x27] REQ_SET(priority=0x10, entity_id=hei4 (ID: 17105629/0x010502DD), tag_num=0x04)
 43: 0x012F [0x27] REQ_SET(priority=0x10, entity_id=hei5 (ID: 17105630/0x010502DE), tag_num=0x04)
 44: 0x0136 [0x27] REQ_SET(priority=0x10, entity_id=hei6 (ID: 17105631/0x010502DF), tag_num=0x04)
 45: 0x013D [0x27] REQ_SET(priority=0x10, entity_id=hei7 (ID: 17105632/0x010502E0), tag_num=0x04)
 46: 0x0144 [0x27] REQ_SET(priority=0x10, entity_id=hei8 (ID: 17105633/0x010502E1), tag_num=0x04)
 47: 0x014B [0x27] REQ_SET(priority=0x10, entity_id=hei9 (ID: 17105634/0x010502E2), tag_num=0x04)
 48: 0x0152 [0x27] REQ_SET(priority=0x10, entity_id=hei10 (ID: 17105635/0x010502E3), tag_num=0x04)
 49: 0x0159 [0x27] REQ_SET(priority=0x10, entity_id=Valaineral R Davilles (ID: 17105618/0x010502D2), tag_num=0x04)
 50: 0x0160 [0x27] REQ_SET(priority=0x10, entity_id=Vestillet (ID: 17105582/0x010502AE), tag_num=0x04)
 51: 0x0167 [0x27] REQ_SET(priority=0x10, entity_id=Invincible Shield (ID: 17105619/0x010502D3), tag_num=0x04)
 52: 0x016E [0x27] REQ_SET(priority=0x10, entity_id=Robel-Akbel (ID: 17105620/0x010502D4), tag_num=0x04)
 53: 0x0175 [0x27] REQ_SET(priority=0x10, entity_id=Lehko Habhoka (ID: 17105621/0x010502D5), tag_num=0x04)
 54: 0x017C [0x27] REQ_SET(priority=0x10, entity_id=Romaa Mihgo (ID: 17105622/0x010502D6), tag_num=0x04)
 55: 0x0183 [0x4E] SET_ENTITY_HIDE_FLAG: Show Pattna-Ottna (ID: 17105503/0x0105025F)
 56: 0x0189 [0x27] REQ_SET(priority=0x10, entity_id=hei1 (ID: 17105626/0x010502DA), tag_num=0x0E)
 57: 0x0190 [0x27] REQ_SET(priority=0x10, entity_id=hei2 (ID: 17105627/0x010502DB), tag_num=0x0E)
 58: 0x0197 [0x27] REQ_SET(priority=0x10, entity_id=hei3 (ID: 17105628/0x010502DC), tag_num=0x0E)
 59: 0x019E [0x27] REQ_SET(priority=0x10, entity_id=hei4 (ID: 17105629/0x010502DD), tag_num=0x0E)
 60: 0x01A5 [0x27] REQ_SET(priority=0x10, entity_id=hei5 (ID: 17105630/0x010502DE), tag_num=0x0E)
 61: 0x01AC [0x27] REQ_SET(priority=0x10, entity_id=hei6 (ID: 17105631/0x010502DF), tag_num=0x0E)
 62: 0x01B3 [0x27] REQ_SET(priority=0x10, entity_id=hei7 (ID: 17105632/0x010502E0), tag_num=0x0E)
 63: 0x01BA [0x27] REQ_SET(priority=0x10, entity_id=hei8 (ID: 17105633/0x010502E1), tag_num=0x0E)
 64: 0x01C1 [0x27] REQ_SET(priority=0x10, entity_id=hei9 (ID: 17105634/0x010502E2), tag_num=0x0E)
 65: 0x01C8 [0x27] REQ_SET(priority=0x10, entity_id=hei10 (ID: 17105635/0x010502E3), tag_num=0x0E)
 66: 0x01CF [0x92] hei1 (ID: 17105626/0x010502DA)->Render.Flags3 ^= 0x01
 67: 0x01D5 [0x92] hei2 (ID: 17105627/0x010502DB)->Render.Flags3 ^= 0x01
 68: 0x01DB [0x92] hei3 (ID: 17105628/0x010502DC)->Render.Flags3 ^= 0x01
 69: 0x01E1 [0x92] hei4 (ID: 17105629/0x010502DD)->Render.Flags3 ^= 0x01
 70: 0x01E7 [0x92] hei5 (ID: 17105630/0x010502DE)->Render.Flags3 ^= 0x01
 71: 0x01ED [0x92] hei6 (ID: 17105631/0x010502DF)->Render.Flags3 ^= 0x01
 72: 0x01F3 [0x92] hei7 (ID: 17105632/0x010502E0)->Render.Flags3 ^= 0x01
 73: 0x01F9 [0x92] hei8 (ID: 17105633/0x010502E1)->Render.Flags3 ^= 0x01
 74: 0x01FF [0x92] hei9 (ID: 17105634/0x010502E2)->Render.Flags3 ^= 0x01
 75: 0x0205 [0x92] hei10 (ID: 17105635/0x010502E3)->Render.Flags3 ^= 0x01
 76: 0x020B [0x92] Valaineral R Davilles (ID: 17105618/0x010502D2)->Render.Flags3 ^= 0x01
 77: 0x0211 [0x92] Vestillet (ID: 17105582/0x010502AE)->Render.Flags3 ^= 0x01
 78: 0x0217 [0x92] Invincible Shield (ID: 17105619/0x010502D3)->Render.Flags3 ^= 0x01
 79: 0x021D [0x92] Robel-Akbel (ID: 17105620/0x010502D4)->Render.Flags3 ^= 0x01
 80: 0x0223 [0x92] Lehko Habhoka (ID: 17105621/0x010502D5)->Render.Flags3 ^= 0x01
 81: 0x0229 [0x92] Romaa Mihgo (ID: 17105622/0x010502D6)->Render.Flags3 ^= 0x01
 82: 0x022F [0x92] Pattna-Ottna (ID: 17105503/0x0105025F)->Render.Flags3 ^= 0x01
 83: 0x0235 [0x94] LocalPlayer->Render.Flags3 ^= 0x01
 84: 0x023B [0x94] hei10 (ID: 17105635/0x010502E3)->Render.Flags3 ^= 0x01
 85: 0x0241 [0x94] Valaineral R Davilles (ID: 17105618/0x010502D2)->Render.Flags3 ^= 0x01
 86: 0x0247 [0x94] Robel-Akbel (ID: 17105620/0x010502D4)->Render.Flags3 ^= 0x01
 87: 0x024D [0x94] Lehko Habhoka (ID: 17105621/0x010502D5)->Render.Flags3 ^= 0x01
 88: 0x0253 [0x94] Romaa Mihgo (ID: 17105622/0x010502D6)->Render.Flags3 ^= 0x01
 89: 0x0259 [0xBA] SET_ENTITY_POSITION(entity_id=LocalPlayer, pos_x=-0.157*, pos_z=-12.932*, pos_y=0.000*, direction=265.7*)
 90: 0x0266 [0xBA] SET_ENTITY_POSITION(entity_id=Valaineral R Davilles (ID: 17105618/0x010502D2), pos_x=-0.127*, pos_z=8.814*, pos_y=-1.499*, direction=86.0*)
 91: 0x0273 [0xBA] SET_ENTITY_POSITION(entity_id=hei4 (ID: 17105629/0x010502DD), pos_x=1.385*, pos_z=9.908*, pos_y=-1.499*, direction=86.0*)
 92: 0x0280 [0xBA] SET_ENTITY_POSITION(entity_id=hei5 (ID: 17105630/0x010502DE), pos_x=2.260*, pos_z=0.668*, pos_y=0.000*, direction=265.7*)
 93: 0x028D [0xBA] SET_ENTITY_POSITION(entity_id=hei6 (ID: 17105631/0x010502DF), pos_x=2.422*, pos_z=-1.759*, pos_y=0.000*, direction=265.7*)
 94: 0x029A [0xBA] SET_ENTITY_POSITION(entity_id=hei7 (ID: 17105632/0x010502E0), pos_x=2.180*, pos_z=-3.833*, pos_y=0.000*, direction=265.7*)
 95: 0x02A7 [0xBA] SET_ENTITY_POSITION(entity_id=hei8 (ID: 17105633/0x010502E1), pos_x=2.384*, pos_z=-5.691*, pos_y=0.000*, direction=265.7*)
 96: 0x02B4 [0xBA] SET_ENTITY_POSITION(entity_id=Vestillet (ID: 17105582/0x010502AE), pos_x=2.219*, pos_z=-7.272*, pos_y=0.000*, direction=265.7*)
 97: 0x02C1 [0xBA] SET_ENTITY_POSITION(entity_id=hei10 (ID: 17105635/0x010502E3), pos_x=0.095*, pos_z=0.398*, pos_y=0.000*, direction=265.7*)
 98: 0x02CE [0xBA] SET_ENTITY_POSITION(entity_id=hei3 (ID: 17105628/0x010502DC), pos_x=0.218*, pos_z=-1.907*, pos_y=0.000*, direction=265.7*)
 99: 0x02DB [0xBA] SET_ENTITY_POSITION(entity_id=hei9 (ID: 17105634/0x010502E2), pos_x=0.079*, pos_z=-3.845*, pos_y=0.000*, direction=265.7*)
100: 0x02E8 [0xBA] SET_ENTITY_POSITION(entity_id=Invincible Shield (ID: 17105619/0x010502D3), pos_x=0.150*, pos_z=-5.836*, pos_y=0.000*, direction=265.7*)
101: 0x02F5 [0xBA] SET_ENTITY_POSITION(entity_id=Robel-Akbel (ID: 17105620/0x010502D4), pos_x=-2.954*, pos_z=0.559*, pos_y=0.000*, direction=265.8*)
102: 0x0302 [0xBA] SET_ENTITY_POSITION(entity_id=Lehko Habhoka (ID: 17105621/0x010502D5), pos_x=-3.752*, pos_z=-1.721*, pos_y=0.000*, direction=265.8*)
103: 0x030F [0xBA] SET_ENTITY_POSITION(entity_id=Pattna-Ottna (ID: 17105503/0x0105025F), pos_x=-2.016*, pos_z=-1.758*, pos_y=0.000*, direction=265.7*)
104: 0x031C [0xBA] SET_ENTITY_POSITION(entity_id=hei1 (ID: 17105626/0x010502DA), pos_x=-2.100*, pos_z=-3.758*, pos_y=0.000*, direction=265.8*)
105: 0x0329 [0xBA] SET_ENTITY_POSITION(entity_id=hei2 (ID: 17105627/0x010502DB), pos_x=-2.052*, pos_z=-5.252*, pos_y=0.000*, direction=265.7*)
106: 0x0336 [0xBA] SET_ENTITY_POSITION(entity_id=Romaa Mihgo (ID: 17105622/0x010502D6), pos_x=-1.986*, pos_z=-6.876*, pos_y=0.000*, direction=255.1*)
107: 0x0343 [0x80] LOAD_WAIT(entity=LocalPlayer)
108: 0x0348 [0x80] LOAD_WAIT(entity=Valaineral R Davilles (ID: 17105618/0x010502D2))
109: 0x034D [0x80] LOAD_WAIT(entity=hei4 (ID: 17105629/0x010502DD))
110: 0x0352 [0x80] LOAD_WAIT(entity=hei5 (ID: 17105630/0x010502DE))
111: 0x0357 [0x80] LOAD_WAIT(entity=hei6 (ID: 17105631/0x010502DF))
112: 0x035C [0x80] LOAD_WAIT(entity=hei7 (ID: 17105632/0x010502E0))
113: 0x0361 [0x80] LOAD_WAIT(entity=hei8 (ID: 17105633/0x010502E1))
114: 0x0366 [0x80] LOAD_WAIT(entity=Vestillet (ID: 17105582/0x010502AE))
115: 0x036B [0x80] LOAD_WAIT(entity=hei9 (ID: 17105634/0x010502E2))
116: 0x0370 [0x80] LOAD_WAIT(entity=hei10 (ID: 17105635/0x010502E3))
117: 0x0375 [0x80] LOAD_WAIT(entity=hei3 (ID: 17105628/0x010502DC))
118: 0x037A [0x80] LOAD_WAIT(entity=Invincible Shield (ID: 17105619/0x010502D3))
119: 0x037F [0x80] LOAD_WAIT(entity=Robel-Akbel (ID: 17105620/0x010502D4))
120: 0x0384 [0x80] LOAD_WAIT(entity=Lehko Habhoka (ID: 17105621/0x010502D5))
121: 0x0389 [0x80] LOAD_WAIT(entity=Romaa Mihgo (ID: 17105622/0x010502D6))
122: 0x038E [0x4A] hei5 (ID: 17105630/0x010502DE) looks at Valaineral R Davilles (ID: 17105618/0x010502D2)
123: 0x0397 [0x4A] hei6 (ID: 17105631/0x010502DF) looks at Valaineral R Davilles (ID: 17105618/0x010502D2)
124: 0x03A0 [0x4A] hei7 (ID: 17105632/0x010502E0) looks at Valaineral R Davilles (ID: 17105618/0x010502D2)
125: 0x03A9 [0x4A] hei8 (ID: 17105633/0x010502E1) looks at Valaineral R Davilles (ID: 17105618/0x010502D2)
126: 0x03B2 [0x4A] Vestillet (ID: 17105582/0x010502AE) looks at Valaineral R Davilles (ID: 17105618/0x010502D2)
127: 0x03BB [0x4A] hei9 (ID: 17105634/0x010502E2) looks at Valaineral R Davilles (ID: 17105618/0x010502D2)
128: 0x03C4 [0x4A] hei10 (ID: 17105635/0x010502E3) looks at Valaineral R Davilles (ID: 17105618/0x010502D2)
129: 0x03CD [0x4A] hei3 (ID: 17105628/0x010502DC) looks at Valaineral R Davilles (ID: 17105618/0x010502D2)
130: 0x03D6 [0x4A] Invincible Shield (ID: 17105619/0x010502D3) looks at Valaineral R Davilles (ID: 17105618/0x010502D2)
131: 0x03DF [0x4A] Robel-Akbel (ID: 17105620/0x010502D4) looks at Valaineral R Davilles (ID: 17105618/0x010502D2)
132: 0x03E8 [0x4A] Lehko Habhoka (ID: 17105621/0x010502D5) looks at Valaineral R Davilles (ID: 17105618/0x010502D2)
133: 0x03F1 [0x4A] Romaa Mihgo (ID: 17105622/0x010502D6) looks at Valaineral R Davilles (ID: 17105618/0x010502D2)
134: 0x03FA [0x5C] MUSIC_CONTROL: Set Idle (Day) music to song 156*
135: 0x03FE [0x5C] MUSIC_CONTROL: Set Idle (Night) music to song 156*
136: 0x0402 [0x9A] WAIT_MUSIC_SERVER()
137: 0x0403 [0x1C] WAIT(15* ticks)
138: 0x0406 [0x45] LOAD_SCHEDULED_TASK: Load scheduler "p201" with entities [LocalPlayer, LocalPlayer], work=[452*, 0*]
139: 0x0417 [0x45] LOAD_SCHEDULED_TASK: Load scheduler "fdi2" with entities [LocalPlayer, LocalPlayer], work=[200*, 0*]
140: 0x0428 [0x55] WAIT_LOAD_SCHEDULER: Wait for scheduler "fdi2" with entities [LocalPlayer, LocalPlayer], work=200*
141: 0x0437 [0x1C] WAIT(120* ticks)
142: 0x043A [0x52] END_LOAD_SCHEDULER: End scheduler "p201" with entities [LocalPlayer, LocalPlayer], work=452*
143: 0x0449 [0x45] LOAD_SCHEDULED_TASK: Load scheduler "p202" with entities [LocalPlayer, LocalPlayer], work=[452*, 0*]
144: 0x045A [0x66] LOAD_EXT_SCHEDULER_MAIN: Load scheduler "twa0" with entities [Valaineral R Davilles (ID: 17105618/0x010502D2), Valaineral R Davilles (ID: 17105618/0x010502D2)], work=29*
145: 0x0469 [0x2B] Valaineral R Davilles (ID: 17105618/0x010502D2) [12668*]:
     "...As has been confirmed by the Kingdom's elite scouts..."
146: 0x0470 [0x23] WAIT_FOR_DIALOG_INTERACTION
147: 0x0471 [0x66] LOAD_EXT_SCHEDULER_MAIN: Load scheduler "twa1" with entities [Valaineral R Davilles (ID: 17105618/0x010502D2), Valaineral R Davilles (ID: 17105618/0x010502D2)], work=29*
148: 0x0480 [0x45] LOAD_SCHEDULED_TASK: Load scheduler "dopn" with entities [EventEntity, EventEntity], work=[341*, 0*]
149: 0x0491 [0x1C] WAIT(60* ticks)
150: 0x0494 [0x79] Valaineral R Davilles (ID: 17105618/0x010502D2) looks at hei10 (ID: 17105635/0x010502E3) (Basic look)
151: 0x049E [0x4A] Robel-Akbel (ID: 17105620/0x010502D4) looks at LocalPlayer
152: 0x04A7 [0x45] LOAD_SCHEDULED_TASK: Load scheduler "dcls" with entities [EventEntity, EventEntity], work=[341*, 0*]
153: 0x04B8 [0x1C] WAIT(120* ticks)
154: 0x04BB [0x52] END_LOAD_SCHEDULER: End scheduler "p202" with entities [LocalPlayer, LocalPlayer], work=452*
155: 0x04CA [0x45] LOAD_SCHEDULED_TASK: Load scheduler "p203" with entities [LocalPlayer, LocalPlayer], work=[452*, 0*]
156: 0x04DB [0x1C] WAIT(120* ticks)
157: 0x04DE [0x29] REQ_SET_WAIT(priority=0x10, entity_id=LocalPlayer, tag_num=0x1B)
158: 0x04E5 [0x02] IF !(Work_Zone[2] == 1*) GOTO 0x056C
159: 0x04ED [0x52] END_LOAD_SCHEDULER: End scheduler "p203" with entities [LocalPlayer, LocalPlayer], work=452*
160: 0x04FC [0x45] LOAD_SCHEDULED_TASK: Load scheduler "phm1" with entities [LocalPlayer, LocalPlayer], work=[452*, 0*]
161: 0x050D [0x6E] LocalPlayer uses emote 1*
162: 0x0514 [0x99] Wait for LocalPlayer animation to complete
163: 0x0519 [0x5B] LOAD_EXT_SCHEDULER: Load scheduler "fb00" with entities [Lehko Habhoka (ID: 17105621/0x010502D5), Lehko Habhoka (ID: 17105621/0x010502D5)], work=1442*
164: 0x0528 [0x1C] WAIT(120* ticks)
165: 0x052B [0x5B] LOAD_EXT_SCHEDULER: Load scheduler "fb01" with entities [Lehko Habhoka (ID: 17105621/0x010502D5), Lehko Habhoka (ID: 17105621/0x010502D5)], work=1442*
166: 0x053A [0x5B] LOAD_EXT_SCHEDULER: Load scheduler "uda0" with entities [Lehko Habhoka (ID: 17105621/0x010502D5), Lehko Habhoka (ID: 17105621/0x010502D5)], work=2370*
167: 0x0549 [0x52] END_LOAD_SCHEDULER: End scheduler "phm1" with entities [LocalPlayer, LocalPlayer], work=452*
168: 0x0558 [0x45] LOAD_SCHEDULED_TASK: Load scheduler "phm2" with entities [LocalPlayer, LocalPlayer], work=[452*, 0*]
169: 0x0569 [0x01] GOTO 0x091D
170: 0x056C [0x02] IF !(Work_Zone[2] == 2*) GOTO 0x05F3
171: 0x0574 [0x52] END_LOAD_SCHEDULER: End scheduler "p203" with entities [LocalPlayer, LocalPlayer], work=452*
172: 0x0583 [0x45] LOAD_SCHEDULED_TASK: Load scheduler "phm1" with entities [LocalPlayer, LocalPlayer], work=[452*, 0*]
173: 0x0594 [0x6E] LocalPlayer uses emote 1*
174: 0x059B [0x99] Wait for LocalPlayer animation to complete
175: 0x05A0 [0x5B] LOAD_EXT_SCHEDULER: Load scheduler "fb00" with entities [Lehko Habhoka (ID: 17105621/0x010502D5), Lehko Habhoka (ID: 17105621/0x010502D5)], work=1442*
176: 0x05AF [0x1C] WAIT(120* ticks)
177: 0x05B2 [0x5B] LOAD_EXT_SCHEDULER: Load scheduler "fb01" with entities [Lehko Habhoka (ID: 17105621/0x010502D5), Lehko Habhoka (ID: 17105621/0x010502D5)], work=1442*
178: 0x05C1 [0x5B] LOAD_EXT_SCHEDULER: Load scheduler "uda0" with entities [Lehko Habhoka (ID: 17105621/0x010502D5), Lehko Habhoka (ID: 17105621/0x010502D5)], work=2370*
179: 0x05D0 [0x52] END_LOAD_SCHEDULER: End scheduler "phm1" with entities [LocalPlayer, LocalPlayer], work=452*
180: 0x05DF [0x45] LOAD_SCHEDULED_TASK: Load scheduler "phm2" with entities [LocalPlayer, LocalPlayer], work=[452*, 0*]
181: 0x05F0 [0x01] GOTO 0x091D
182: 0x05F3 [0x02] IF !(Work_Zone[2] == 3*) GOTO 0x067A
183: 0x05FB [0x52] END_LOAD_SCHEDULER: End scheduler "p203" with entities [LocalPlayer, LocalPlayer], work=452*
184: 0x060A [0x45] LOAD_SCHEDULED_TASK: Load scheduler "pem1" with entities [LocalPlayer, LocalPlayer], work=[452*, 0*]
185: 0x061B [0x6E] LocalPlayer uses emote 1*
186: 0x0622 [0x99] Wait for LocalPlayer animation to complete
187: 0x0627 [0x5B] LOAD_EXT_SCHEDULER: Load scheduler "fb00" with entities [Lehko Habhoka (ID: 17105621/0x010502D5), Lehko Habhoka (ID: 17105621/0x010502D5)], work=1442*
188: 0x0636 [0x1C] WAIT(120* ticks)
189: 0x0639 [0x5B] LOAD_EXT_SCHEDULER: Load scheduler "fb01" with entities [Lehko Habhoka (ID: 17105621/0x010502D5), Lehko Habhoka (ID: 17105621/0x010502D5)], work=1442*
190: 0x0648 [0x5B] LOAD_EXT_SCHEDULER: Load scheduler "uda0" with entities [Lehko Habhoka (ID: 17105621/0x010502D5), Lehko Habhoka (ID: 17105621/0x010502D5)], work=2370*
191: 0x0657 [0x52] END_LOAD_SCHEDULER: End scheduler "pem1" with entities [LocalPlayer, LocalPlayer], work=452*
192: 0x0666 [0x45] LOAD_SCHEDULED_TASK: Load scheduler "pem2" with entities [LocalPlayer, LocalPlayer], work=[452*, 0*]
193: 0x0677 [0x01] GOTO 0x091D
194: 0x067A [0x02] IF !(Work_Zone[2] == 4*) GOTO 0x0701
195: 0x0682 [0x52] END_LOAD_SCHEDULER: End scheduler "p203" with entities [LocalPlayer, LocalPlayer], work=452*
196: 0x0691 [0x45] LOAD_SCHEDULED_TASK: Load scheduler "pem1" with entities [LocalPlayer, LocalPlayer], work=[452*, 0*]
197: 0x06A2 [0x6E] LocalPlayer uses emote 1*
198: 0x06A9 [0x99] Wait for LocalPlayer animation to complete
199: 0x06AE [0x5B] LOAD_EXT_SCHEDULER: Load scheduler "fb00" with entities [Lehko Habhoka (ID: 17105621/0x010502D5), Lehko Habhoka (ID: 17105621/0x010502D5)], work=1442*
200: 0x06BD [0x1C] WAIT(120* ticks)
201: 0x06C0 [0x5B] LOAD_EXT_SCHEDULER: Load scheduler "fb01" with entities [Lehko Habhoka (ID: 17105621/0x010502D5), Lehko Habhoka (ID: 17105621/0x010502D5)], work=1442*
202: 0x06CF [0x5B] LOAD_EXT_SCHEDULER: Load scheduler "uda0" with entities [Lehko Habhoka (ID: 17105621/0x010502D5), Lehko Habhoka (ID: 17105621/0x010502D5)], work=2370*
203: 0x06DE [0x52] END_LOAD_SCHEDULER: End scheduler "pem1" with entities [LocalPlayer, LocalPlayer], work=452*
204: 0x06ED [0x45] LOAD_SCHEDULED_TASK: Load scheduler "pem2" with entities [LocalPlayer, LocalPlayer], work=[452*, 0*]
205: 0x06FE [0x01] GOTO 0x091D
206: 0x0701 [0x02] IF !(Work_Zone[2] == 5*) GOTO 0x0788
207: 0x0709 [0x52] END_LOAD_SCHEDULER: End scheduler "p203" with entities [LocalPlayer, LocalPlayer], work=452*
208: 0x0718 [0x45] LOAD_SCHEDULED_TASK: Load scheduler "ptr1" with entities [LocalPlayer, LocalPlayer], work=[452*, 0*]
209: 0x0729 [0x6E] LocalPlayer uses emote 1*
210: 0x0730 [0x99] Wait for LocalPlayer animation to complete
211: 0x0735 [0x5B] LOAD_EXT_SCHEDULER: Load scheduler "fb00" with entities [Lehko Habhoka (ID: 17105621/0x010502D5), Lehko Habhoka (ID: 17105621/0x010502D5)], work=1442*
212: 0x0744 [0x1C] WAIT(120* ticks)
213: 0x0747 [0x5B] LOAD_EXT_SCHEDULER: Load scheduler "fb01" with entities [Lehko Habhoka (ID: 17105621/0x010502D5), Lehko Habhoka (ID: 17105621/0x010502D5)], work=1442*
214: 0x0756 [0x5B] LOAD_EXT_SCHEDULER: Load scheduler "uda0" with entities [Lehko Habhoka (ID: 17105621/0x010502D5), Lehko Habhoka (ID: 17105621/0x010502D5)], work=2370*
215: 0x0765 [0x52] END_LOAD_SCHEDULER: End scheduler "ptr1" with entities [LocalPlayer, LocalPlayer], work=452*
216: 0x0774 [0x45] LOAD_SCHEDULED_TASK: Load scheduler "ptr2" with entities [LocalPlayer, LocalPlayer], work=[452*, 0*]
217: 0x0785 [0x01] GOTO 0x091D
218: 0x0788 [0x02] IF !(Work_Zone[2] == 6*) GOTO 0x080F
219: 0x0790 [0x52] END_LOAD_SCHEDULER: End scheduler "p203" with entities [LocalPlayer, LocalPlayer], work=452*
220: 0x079F [0x45] LOAD_SCHEDULED_TASK: Load scheduler "ptr1" with entities [LocalPlayer, LocalPlayer], work=[452*, 0*]
221: 0x07B0 [0x6E] LocalPlayer uses emote 1*
222: 0x07B7 [0x99] Wait for LocalPlayer animation to complete
223: 0x07BC [0x5B] LOAD_EXT_SCHEDULER: Load scheduler "fb00" with entities [Lehko Habhoka (ID: 17105621/0x010502D5), Lehko Habhoka (ID: 17105621/0x010502D5)], work=1442*
224: 0x07CB [0x1C] WAIT(120* ticks)
225: 0x07CE [0x5B] LOAD_EXT_SCHEDULER: Load scheduler "fb01" with entities [Lehko Habhoka (ID: 17105621/0x010502D5), Lehko Habhoka (ID: 17105621/0x010502D5)], work=1442*
226: 0x07DD [0x5B] LOAD_EXT_SCHEDULER: Load scheduler "uda0" with entities [Lehko Habhoka (ID: 17105621/0x010502D5), Lehko Habhoka (ID: 17105621/0x010502D5)], work=2370*
227: 0x07EC [0x52] END_LOAD_SCHEDULER: End scheduler "ptr1" with entities [LocalPlayer, LocalPlayer], work=452*
228: 0x07FB [0x45] LOAD_SCHEDULED_TASK: Load scheduler "ptr2" with entities [LocalPlayer, LocalPlayer], work=[452*, 0*]
229: 0x080C [0x01] GOTO 0x091D
230: 0x080F [0x02] IF !(Work_Zone[2] == 7*) GOTO 0x0896
231: 0x0817 [0x52] END_LOAD_SCHEDULER: End scheduler "p203" with entities [LocalPlayer, LocalPlayer], work=452*
232: 0x0826 [0x45] LOAD_SCHEDULED_TASK: Load scheduler "pmt1" with entities [LocalPlayer, LocalPlayer], work=[452*, 0*]
233: 0x0837 [0x6E] LocalPlayer uses emote 1*
234: 0x083E [0x99] Wait for LocalPlayer animation to complete
235: 0x0843 [0x5B] LOAD_EXT_SCHEDULER: Load scheduler "fb00" with entities [Lehko Habhoka (ID: 17105621/0x010502D5), Lehko Habhoka (ID: 17105621/0x010502D5)], work=1442*
236: 0x0852 [0x1C] WAIT(120* ticks)
237: 0x0855 [0x5B] LOAD_EXT_SCHEDULER: Load scheduler "fb01" with entities [Lehko Habhoka (ID: 17105621/0x010502D5), Lehko Habhoka (ID: 17105621/0x010502D5)], work=1442*
238: 0x0864 [0x5B] LOAD_EXT_SCHEDULER: Load scheduler "uda0" with entities [Lehko Habhoka (ID: 17105621/0x010502D5), Lehko Habhoka (ID: 17105621/0x010502D5)], work=2370*
239: 0x0873 [0x52] END_LOAD_SCHEDULER: End scheduler "pmt1" with entities [LocalPlayer, LocalPlayer], work=452*
240: 0x0882 [0x45] LOAD_SCHEDULED_TASK: Load scheduler "pmt2" with entities [LocalPlayer, LocalPlayer], work=[452*, 0*]
241: 0x0893 [0x01] GOTO 0x091D
242: 0x0896 [0x02] IF !(Work_Zone[2] == 8*) GOTO 0x091D
243: 0x089E [0x52] END_LOAD_SCHEDULER: End scheduler "p203" with entities [LocalPlayer, LocalPlayer], work=452*
244: 0x08AD [0x45] LOAD_SCHEDULED_TASK: Load scheduler "pgl1" with entities [LocalPlayer, LocalPlayer], work=[452*, 0*]
245: 0x08BE [0x6E] LocalPlayer uses emote 1*
246: 0x08C5 [0x99] Wait for LocalPlayer animation to complete
247: 0x08CA [0x5B] LOAD_EXT_SCHEDULER: Load scheduler "fb00" with entities [Lehko Habhoka (ID: 17105621/0x010502D5), Lehko Habhoka (ID: 17105621/0x010502D5)], work=1442*
248: 0x08D9 [0x1C] WAIT(120* ticks)
249: 0x08DC [0x5B] LOAD_EXT_SCHEDULER: Load scheduler "fb01" with entities [Lehko Habhoka (ID: 17105621/0x010502D5), Lehko Habhoka (ID: 17105621/0x010502D5)], work=1442*
250: 0x08EB [0x5B] LOAD_EXT_SCHEDULER: Load scheduler "uda0" with entities [Lehko Habhoka (ID: 17105621/0x010502D5), Lehko Habhoka (ID: 17105621/0x010502D5)], work=2370*
251: 0x08FA [0x52] END_LOAD_SCHEDULER: End scheduler "pgl1" with entities [LocalPlayer, LocalPlayer], work=452*
252: 0x0909 [0x45] LOAD_SCHEDULED_TASK: Load scheduler "pgl2" with entities [LocalPlayer, LocalPlayer], work=[452*, 0*]
253: 0x091A [0x01] GOTO 0x091D

SUBROUTINE_091D:
254: 0x091D [0x1C] WAIT(150* ticks)
255: 0x0920 [0x52] END_LOAD_SCHEDULER: End scheduler "phm2" with entities [LocalPlayer, LocalPlayer], work=452*
256: 0x092F [0x52] END_LOAD_SCHEDULER: End scheduler "pem2" with entities [LocalPlayer, LocalPlayer], work=452*
257: 0x093E [0x52] END_LOAD_SCHEDULER: End scheduler "ptr2" with entities [LocalPlayer, LocalPlayer], work=452*
258: 0x094D [0x52] END_LOAD_SCHEDULER: End scheduler "pmt2" with entities [LocalPlayer, LocalPlayer], work=452*
259: 0x095C [0x52] END_LOAD_SCHEDULER: End scheduler "pgl2" with entities [LocalPlayer, LocalPlayer], work=452*
260: 0x096B [0x45] LOAD_SCHEDULED_TASK: Load scheduler "p205" with entities [LocalPlayer, LocalPlayer], work=[452*, 0*]
261: 0x097C [0xBA] SET_ENTITY_POSITION(entity_id=LocalPlayer, pos_x=-2.906*, pos_z=-11.738*, pos_y=0.000*, direction=265.7*)
262: 0x0989 [0x2B] Lehko Habhoka (ID: 17105621/0x010502D5) [12669*]:
     "(Ah, <Player>, I was wondering when you'd show up! Quickly, over here...the meeting's already begun!)"
263: 0x0990 [0x23] WAIT_FOR_DIALOG_INTERACTION
264: 0x0991 [0x03] Work_Zone[37] = 4294963736*
265: 0x0996 [0x03] Work_Zone[39] = 4294963829*
266: 0x099B [0x03] Work_Zone[38] = 0*
267: 0x09A0 [0x03] Work_Zone[40] = 3023*
268: 0x09A5 [0x27] REQ_SET(priority=0x10, entity_id=LocalPlayer, tag_num=0x16)
269: 0x09AC [0x52] END_LOAD_SCHEDULER: End scheduler "p205" with entities [LocalPlayer, LocalPlayer], work=452*
270: 0x09BB [0x45] LOAD_SCHEDULED_TASK: Load scheduler "p206" with entities [LocalPlayer, LocalPlayer], work=[452*, 0*]
271: 0x09CC [0x2B] Valaineral R Davilles (ID: 17105618/0x010502D2) [12670*]:
     "And who might this [gentleman/lady] be?"
272: 0x09D3 [0x23] WAIT_FOR_DIALOG_INTERACTION
273: 0x09D4 [0x27] REQ_SET(priority=0x10, entity_id=Robel-Akbel (ID: 17105620/0x010502D4), tag_num=0x09)
274: 0x09DB [0x52] END_LOAD_SCHEDULER: End scheduler "p206" with entities [LocalPlayer, LocalPlayer], work=452*
275: 0x09EA [0x45] LOAD_SCHEDULED_TASK: Load scheduler "p207" with entities [LocalPlayer, LocalPlayer], work=[452*, 0*]
276: 0x09FB [0x4A] LocalPlayer looks at Valaineral R Davilles (ID: 17105618/0x010502D2)
277: 0x0A04 [0x4A] hei5 (ID: 17105630/0x010502DE) looks at Valaineral R Davilles (ID: 17105618/0x010502D2)
278: 0x0A0D [0x4A] hei6 (ID: 17105631/0x010502DF) looks at Valaineral R Davilles (ID: 17105618/0x010502D2)
279: 0x0A16 [0x4A] hei7 (ID: 17105632/0x010502E0) looks at Valaineral R Davilles (ID: 17105618/0x010502D2)
280: 0x0A1F [0x4A] hei8 (ID: 17105633/0x010502E1) looks at Valaineral R Davilles (ID: 17105618/0x010502D2)
281: 0x0A28 [0x4A] Vestillet (ID: 17105582/0x010502AE) looks at Valaineral R Davilles (ID: 17105618/0x010502D2)
282: 0x0A31 [0x4A] hei9 (ID: 17105634/0x010502E2) looks at Valaineral R Davilles (ID: 17105618/0x010502D2)
283: 0x0A3A [0x4A] hei10 (ID: 17105635/0x010502E3) looks at Valaineral R Davilles (ID: 17105618/0x010502D2)
284: 0x0A43 [0x4A] hei3 (ID: 17105628/0x010502DC) looks at Valaineral R Davilles (ID: 17105618/0x010502D2)
285: 0x0A4C [0x4A] Invincible Shield (ID: 17105619/0x010502D3) looks at Valaineral R Davilles (ID: 17105618/0x010502D2)
286: 0x0A55 [0x4A] Romaa Mihgo (ID: 17105622/0x010502D6) looks at Valaineral R Davilles (ID: 17105618/0x010502D2)
287: 0x0A5E [0x1C] WAIT(30* ticks)
288: 0x0A61 [0x02] IF !(Work_Zone[8] == 1*) GOTO 0x0A74
289: 0x0A69 [0x2B] Robel-Akbel (ID: 17105620/0x010502D4) [12671*]:
     "A mercenary under our command. Pardon the interruption. Please continue."
290: 0x0A70 [0x23] WAIT_FOR_DIALOG_INTERACTION
291: 0x0A71 [0x01] GOTO 0x0A7C
292: 0x0A74 [0x2B] Robel-Akbel (ID: 17105620/0x010502D4) [12672*]:
     "An ally of Windurst. Pardon the interruption. Please continue."
293: 0x0A7B [0x23] WAIT_FOR_DIALOG_INTERACTION

SUBROUTINE_0A7C:
