# 17105497

## Common Data

| Field            | Value                            |
|------------------|----------------------------------|
| Zone             | Southern San d'Oria [S] (ID: 80) |
| Block Size       | 4924 bytes                       |
| Total Events     | 4                                |
| References Count | 166                              |

## List of Events

| Event ID              | Entrypoint   |   Size |   Instructions |
|-----------------------|--------------|--------|----------------|
| [65535](#event-65535) | 0x0000       |      1 |              1 |
| [62](#event-62)       | 0x0001       |   1909 |            238 |
| [63](#event-63)       | 0x0776       |   2295 |            280 |
| [64](#event-64)       | 0x106D       |     22 |              6 |

## DAT References (imed_data)

|   Index | Hex Value   |   Dec Value |
|---------|-------------|-------------|
|       0 | 0x00C8      |         200 |
|       1 | 0x0000      |           0 |
|       2 | 0x0013      |          19 |
|       3 | 0x17A81     |       96897 |
|       4 | 0xFFFF6A5B  |  4294928987 |
|       5 | 0x03E8      |        1000 |
|       6 | 0x024E      |         590 |
|       7 | 0x19C9F     |      105631 |
|       8 | 0xFFFF3903  |  4294916355 |
|       9 | 0x0A0E      |        2574 |
|      10 | 0x199DB     |      104923 |
|      11 | 0xFFFF314E  |  4294914382 |
|      12 | 0x0B43      |        2883 |
|      13 | 0x1A54D     |      107853 |
|      14 | 0xFFFF35DE  |  4294915550 |
|      15 | 0x1A3FD     |      107517 |
|      16 | 0xFFFF3C7C  |  4294917244 |
|      17 | 0x003C      |          60 |
|      18 | 0x00B6      |         182 |
|      19 | 0x0174      |         372 |
|      20 | 0x005A      |          90 |
|      21 | 0x0005      |           5 |
|      22 | 0x313C      |       12604 |
|      23 | 0x313D      |       12605 |
|      24 | 0x0014      |          20 |
|      25 | 0x0031      |          49 |
|      26 | 0x313E      |       12606 |
|      27 | 0x0078      |         120 |
|      28 | 0x00E9      |         233 |
|      29 | 0x001E      |          30 |
|      30 | 0xFFFFEAFA  |  4294961914 |
|      31 | 0x0C15      |        3093 |
|      32 | 0x00C7      |         199 |
|      33 | 0x0A0D      |        2573 |
|      34 | 0x041A      |        1050 |
|      35 | 0x098E      |        2446 |
|      36 | 0x0849      |        2121 |
|      37 | 0x0A21      |        2593 |
|      38 | 0xFFFFFDD0  |  4294966736 |
|      39 | 0xFFFFE60C  |  4294960652 |
|      40 | 0x0C16      |        3094 |
|      41 | 0x02E3      |         739 |
|      42 | 0xFFFFE5F8  |  4294960632 |
|      43 | 0x02A1      |         673 |
|      44 | 0xFFFFE00C  |  4294959116 |
|      45 | 0xFFFFFD79  |  4294966649 |
|      46 | 0xFFFFE020  |  4294959136 |
|      47 | 0x0C12      |        3090 |
|      48 | 0x009C      |         156 |
|      49 | 0x0050      |          80 |
|      50 | 0x313F      |       12607 |
|      51 | 0x3140      |       12608 |
|      52 | 0x3141      |       12609 |
|      53 | 0x001D      |          29 |
|      54 | 0x3142      |       12610 |
|      55 | 0x000A      |          10 |
|      56 | 0x3143      |       12611 |
|      57 | 0x0027      |          39 |
|      58 | 0x3144      |       12612 |
|      59 | 0x0019      |          25 |
|      60 | 0x3145      |       12613 |
|      61 | 0x3146      |       12614 |
|      62 | 0x3147      |       12615 |
|      63 | 0x3148      |       12616 |
|      64 | 0x3149      |       12617 |
|      65 | 0x0003      |           3 |
|      66 | 0x18B80     |      101248 |
|      67 | 0xFFFF557D  |  4294923645 |
|      68 | 0x03E7      |         999 |
|      69 | 0x0A2C      |        2604 |
|      70 | 0x18060     |       98400 |
|      71 | 0xFFFF5F09  |  4294926089 |
|      72 | 0x17BA6     |       97190 |
|      73 | 0xFFFF5B04  |  4294925060 |
|      74 | 0x0A2A      |        2602 |
|      75 | 0x17FF8     |       98296 |
|      76 | 0xFFFF643B  |  4294927419 |
|      77 | 0x17A82     |       96898 |
|      78 | 0xFFFF5FC2  |  4294926274 |
|      79 | 0x314A      |       12618 |
|      80 | 0x0016      |          22 |
|      81 | 0x314B      |       12619 |
|      82 | 0x314C      |       12620 |
|      83 | 0x0006      |           6 |
|      84 | 0x314D      |       12621 |
|      85 | 0x314E      |       12622 |
|      86 | 0x314F      |       12623 |
|      87 | 0x00FE      |         254 |
|      88 | 0x238AF     |      145583 |
|      89 | 0x71E6      |       29158 |
|      90 | 0x017C      |         380 |
|      91 | 0x2356A     |      144746 |
|      92 | 0x702E      |       28718 |
|      93 | 0x233C1     |      144321 |
|      94 | 0x6BCB      |       27595 |
|      95 | 0x036F      |         879 |
|      96 | 0x2307C     |      143484 |
|      97 | 0x66F6      |       26358 |
|      98 | 0x2407B     |      147579 |
|      99 | 0x5FF1      |       24561 |
|     100 | 0xFFFFFD12  |  4294966546 |
|     101 | 0x0AA6      |        2726 |
|     102 | 0x21226     |      135718 |
|     103 | 0x4A7C      |       19068 |
|     104 | 0x0E36      |        3638 |
|     105 | 0x3150      |       12624 |
|     106 | 0x3151      |       12625 |
|     107 | 0x3152      |       12626 |
|     108 | 0x0530      |        1328 |
|     109 | 0x3153      |       12627 |
|     110 | 0x3154      |       12628 |
|     111 | 0x0001      |           1 |
|     112 | 0x3155      |       12629 |
|     113 | 0x3156      |       12630 |
|     114 | 0x3157      |       12631 |
|     115 | 0x3158      |       12632 |
|     116 | 0x3159      |       12633 |
|     117 | 0x315A      |       12634 |
|     118 | 0x0007      |           7 |
|     119 | 0x315B      |       12635 |
|     120 | 0x315C      |       12636 |
|     121 | 0x002C      |          44 |
|     122 | 0x315D      |       12637 |
|     123 | 0x315E      |       12638 |
|     124 | 0x315F      |       12639 |
|     125 | 0x3160      |       12640 |
|     126 | 0x3161      |       12641 |
|     127 | 0x3162      |       12642 |
|     128 | 0x3163      |       12643 |
|     129 | 0x001A      |          26 |
|     130 | 0x3164      |       12644 |
|     131 | 0x3165      |       12645 |
|     132 | 0x3166      |       12646 |
|     133 | 0x3167      |       12647 |
|     134 | 0x002D      |          45 |
|     135 | 0x3168      |       12648 |
|     136 | 0x3169      |       12649 |
|     137 | 0x316A      |       12650 |
|     138 | 0x316B      |       12651 |
|     139 | 0x316C      |       12652 |
|     140 | 0x316D      |       12653 |
|     141 | 0x02EF      |         751 |
|     142 | 0x316E      |       12654 |
|     143 | 0x2349C     |      144540 |
|     144 | 0x7390      |       29584 |
|     145 | 0x0C86      |        3206 |
|     146 | 0x23A8F     |      146063 |
|     147 | 0x6DF6      |       28150 |
|     148 | 0x0C84      |        3204 |
|     149 | 0x23376     |      144246 |
|     150 | 0x6928      |       26920 |
|     151 | 0x0C9D      |        3229 |
|     152 | 0x316F      |       12655 |
|     153 | 0x3170      |       12656 |
|     154 | 0x3171      |       12657 |
|     155 | 0x3172      |       12658 |
|     156 | 0x3173      |       12659 |
|     157 | 0x0020      |          32 |
|     158 | 0x3174      |       12660 |
|     159 | 0x0026      |          38 |
|     160 | 0x3175      |       12661 |
|     161 | 0x3176      |       12662 |
|     162 | 0x3177      |       12663 |
|     163 | 0x0170      |         368 |
|     164 | 0x00C9      |         201 |
|     165 | 0x3178      |       12664 |

## Events

### Event 65535

#### Metadata

| Field        | Value   |
|--------------|---------|
| Entrypoint   | 0x0000  |
| Data Size    | 1 bytes |
| Instructions | 1       |

```
      00 01 02 03 04 05 06 07  08 09 0A 0B 0C 0D 0E 0F
      -- -- -- -- -- -- -- --  -- -- -- -- -- -- -- --
0000: 00                                                .               
```

#### Opcodes

```
  0: 0x0000 [0x00] END_REQSTACK()
```

### Event 62

#### Metadata

| Field        | Value      |
|--------------|------------|
| Entrypoint   | 0x0001     |
| Data Size    | 1909 bytes |
| Instructions | 238        |

```
      00 01 02 03 04 05 06 07  08 09 0A 0B 0C 0D 0E 0F
      -- -- -- -- -- -- -- --  -- -- -- -- -- -- -- --
0000:    42 45 00 80 F8 FF FF  7F F8 FF FF 7F 66 64 6F   BE..........fdo
0010: 31 01 80 55 00 80 F8 FF  FF 7F F8 FF FF 7F 66 64  1..U..........fd
0020: 6F 31 46 01 38 02 80 92  01 5C 02 05 01 92 01 5D  o1F.8....\.....]
0030: 02 05 01 92 01 5F 02 05  01 92 01 5E 02 05 01 92  ....._.....^....
0040: 01 61 02 05 01 92 01 60  02 05 01 4E 00 5F 02 05  .a.....`...N._..
0050: 01 4E 00 63 02 05 01 4E  00 64 02 05 01 4E 00 65  .N.c...N.d...N.e
0060: 02 05 01 4E 00 66 02 05  01 4E 00 5C 02 05 01 4E  ...N.f...N.\...N
0070: 00 5D 02 05 01 4E 00 5E  02 05 01 BA 5F 02 05 01  .]...N.^...._...
0080: 03 80 04 80 05 80 06 80  BA 5C 02 05 01 07 80 08  .........\......
0090: 80 01 80 09 80 BA 5D 02  05 01 0A 80 0B 80 01 80  ......].........
00A0: 0C 80 BA 5E 02 05 01 0D  80 0E 80 01 80 0C 80 BA  ...^............
00B0: F0 FF FF 7F 0F 80 10 80  01 80 0C 80 80 5C 02 05  .............\..
00C0: 01 80 5D 02 05 01 80 5E  02 05 01 80 5F 02 05 01  ..]....^...._...
00D0: 80 63 02 05 01 80 64 02  05 01 80 65 02 05 01 80  .c....d....e....
00E0: 66 02 05 01 94 01 F0 FF  FF 7F 94 01 5C 02 05 01  f...........\...
00F0: 94 01 61 02 05 01 94 01  5F 02 05 01 94 01 60 02  ..a....._.....`.
0100: 05 01 94 01 5E 02 05 01  5D 01 80 11 80 1C 11 80  ....^...].......
0110: 5C 00 12 80 5C 01 12 80  27 10 5C 02 05 01 03 27  \...\...'.\....'
0120: 10 F0 FF FF 7F 13 27 10  5D 02 05 01 03 27 10 5E  ......'.]....'.^
0130: 02 05 01 03 45 13 80 F0  FF FF 7F F0 FF FF 7F 7A  ....E..........z
0140: 30 30 30 01 80 45 00 80  F0 FF FF 7F F0 FF FF 7F  000..E..........
0150: 66 64 69 31 01 80 1C 14  80 27 10 5F 02 05 01 03  fdi1.....'._....
0160: 27 10 63 02 05 01 02 27  10 64 02 05 01 02 27 10  '.c....'.d....'.
0170: 65 02 05 01 02 27 10 66  02 05 01 02 1C 15 80 52  e....'.f.......R
0180: 13 80 F0 FF FF 7F F0 FF  FF 7F 7A 30 30 30 45 13  ..........z000E.
0190: 80 F0 FF FF 7F F0 FF FF  7F 7A 30 30 31 01 80 1C  .........z001...
01A0: 11 80 2B 5F 02 05 01 16  80 23 2B 5C 02 05 01 17  ..+_.....#+\....
01B0: 80 23 2A 10 5F 02 05 01  52 13 80 F0 FF FF 7F F0  .#*._...R.......
01C0: FF FF 7F 7A 30 30 31 45  13 80 F0 FF FF 7F F0 FF  ...z001E........
01D0: FF 7F 7A 30 30 32 01 80  1C 18 80 66 19 80 5F 02  ..z002.....f.._.
01E0: 05 01 5F 02 05 01 74 6C  6B 30 2B 5F 02 05 01 1A  .._...tlk0+_....
01F0: 80 23 1C 11 80 2A 10 66  02 05 01 5D 01 80 1B 80  .#...*.f...]....
0200: 45 00 80 F8 FF FF 7F F8  FF FF 7F 66 64 6F 31 01  E..........fdo1.
0210: 80 55 00 80 F8 FF FF 7F  F8 FF FF 7F 66 64 6F 31  .U..........fdo1
0220: 52 13 80 F0 FF FF 7F F0  FF FF 7F 7A 30 30 32 34  R..........z0024
0230: 1C 80 77 01 80 01 80 AB  09 1C 1D 80 4E 00 60 02  ..w.........N.`.
0240: 05 01 4E 00 61 02 05 01  80 60 02 05 01 80 61 02  ..N.a....`....a.
0250: 05 01 BA 5F 02 05 01 01  80 1E 80 01 80 1F 80 BA  ..._............
0260: 60 02 05 01 20 80 21 80  01 80 22 80 BA 61 02 05  `... .!..."..a..
0270: 01 23 80 24 80 01 80 25  80 BA 63 02 05 01 26 80  .#.$...%..c...&.
0280: 27 80 01 80 28 80 BA 64  02 05 01 29 80 2A 80 01  '...(..d...).*..
0290: 80 28 80 BA 65 02 05 01  2B 80 2C 80 01 80 1F 80  .(..e...+.,.....
02A0: BA 66 02 05 01 2D 80 2E  80 01 80 2F 80 4A 61 02  .f...-...../.Ja.
02B0: 05 01 60 02 05 01 66 19  80 5F 02 05 01 5F 02 05  ..`...f.._..._..
02C0: 01 73 68 61 30 66 19 80  63 02 05 01 63 02 05 01  .sha0f..c...c...
02D0: 73 68 61 30 66 19 80 64  02 05 01 64 02 05 01 73  sha0f..d...d...s
02E0: 68 61 30 66 19 80 65 02  05 01 65 02 05 01 73 68  ha0f..e...e...sh
02F0: 61 30 66 19 80 66 02 05  01 66 02 05 01 73 68 61  a0f..f...f...sha
0300: 30 1C 11 80 5C 00 30 80  5C 01 30 80 45 13 80 F0  0...\.0.\.0.E...
0310: FF FF 7F F0 FF FF 7F 7A  30 30 34 01 80 45 00 80  .......z004..E..
0320: F0 FF FF 7F F0 FF FF 7F  66 64 69 31 01 80 1C 31  ........fdi1...1
0330: 80 2B 5F 02 05 01 32 80  23 52 13 80 F0 FF FF 7F  .+_...2.#R......
0340: F0 FF FF 7F 7A 30 30 34  45 13 80 F0 FF FF 7F F0  ....z004E.......
0350: FF FF 7F 7A 30 30 38 01  80 1C 11 80 2B 5F 02 05  ...z008.....+_..
0360: 01 33 80 23 52 13 80 F0  FF FF 7F F0 FF FF 7F 7A  .3.#R..........z
0370: 30 30 38 45 13 80 F0 FF  FF 7F F0 FF FF 7F 7A 30  008E..........z0
0380: 30 35 01 80 1C 1D 80 2B  60 02 05 01 34 80 23 66  05.....+`...4.#f
0390: 35 80 60 02 05 01 60 02  05 01 74 68 6B 31 2B 60  5.`...`...thk1+`
03A0: 02 05 01 36 80 23 52 13  80 F0 FF FF 7F F0 FF FF  ...6.#R.........
03B0: 7F 7A 30 30 35 45 13 80  F0 FF FF 7F F0 FF FF 7F  .z005E..........
03C0: 7A 30 31 34 01 80 1C 37  80 2B 60 02 05 01 38 80  z014...7.+`...8.
03D0: 23 66 35 80 60 02 05 01  60 02 05 01 74 68 6B 32  #f5.`...`...thk2
03E0: 52 13 80 F0 FF FF 7F F0  FF FF 7F 7A 30 31 34 45  R..........z014E
03F0: 13 80 F0 FF FF 7F F0 FF  FF 7F 7A 30 30 36 01 80  ..........z006..
0400: 66 39 80 61 02 05 01 61  02 05 01 74 6C 6B 30 2B  f9.a...a...tlk0+
0410: 61 02 05 01 3A 80 23 66  39 80 61 02 05 01 61 02  a...:.#f9.a...a.
0420: 05 01 74 6C 6B 31 79 00  60 02 05 01 61 02 05 01  ..tlk1y.`...a...
0430: 6E 60 02 05 01 3B 80 99  60 02 05 01 2B 60 02 05  n`...;..`...+`..
0440: 01 3C 80 23 99 60 02 05  01 52 13 80 F0 FF FF 7F  .<.#.`...R......
0450: F0 FF FF 7F 7A 30 30 36  45 13 80 F0 FF FF 7F F0  ....z006E.......
0460: FF FF 7F 7A 30 31 35 01  80 1C 37 80 2B 60 02 05  ...z015...7.+`..
0470: 01 3D 80 23 52 13 80 F0  FF FF 7F F0 FF FF 7F 7A  .=.#R..........z
0480: 30 31 35 45 13 80 F0 FF  FF 7F F0 FF FF 7F 7A 30  015E..........z0
0490: 30 37 01 80 1C 1D 80 79  00 60 02 05 01 5F 02 05  07.....y.`..._..
04A0: 01 66 35 80 60 02 05 01  60 02 05 01 74 77 62 30  .f5.`...`...twb0
04B0: 2B 60 02 05 01 3E 80 23  2B 60 02 05 01 3F 80 23  +`...>.#+`...?.#
04C0: 66 35 80 60 02 05 01 60  02 05 01 74 77 62 31 52  f5.`...`...twb1R
04D0: 13 80 F0 FF FF 7F F0 FF  FF 7F 7A 30 30 37 45 13  ..........z007E.
04E0: 80 F0 FF FF 7F F0 FF FF  7F 7A 30 30 38 01 80 1C  .........z008...
04F0: 1D 80 2B 5F 02 05 01 40  80 23 1C 11 80 45 00 80  ..+_...@.#...E..
0500: F8 FF FF 7F F8 FF FF 7F  66 64 6F 31 01 80 55 00  ........fdo1..U.
0510: 80 F8 FF FF 7F F8 FF FF  7F 66 64 6F 31 52 13 80  .........fdo1R..
0520: F0 FF FF 7F F0 FF FF 7F  7A 30 30 38 4E 01 60 02  ........z008N.`.
0530: 05 01 4E 01 61 02 05 01  35 31 80 78 1C 41 80 22  ..N.a...51.x.A."
0540: 00 AB 0A 2D F0 FF FF 7F  F0 FF FF 7F 31 70 62 31  ...-........1pb1
0550: 1C 1D 80 BA 5F 02 05 01  42 80 43 80 44 80 45 80  ...._...B.C.D.E.
0560: BA 63 02 05 01 46 80 47  80 44 80 45 80 BA 64 02  .c...F.G.D.E..d.
0570: 05 01 48 80 49 80 44 80  4A 80 BA 65 02 05 01 4B  ..H.I.D.J..e...K
0580: 80 4C 80 44 80 45 80 BA  66 02 05 01 4D 80 4E 80  .L.D.E..f...M.N.
0590: 44 80 45 80 4A 5F 02 05  01 5C 02 05 01 4A 5C 02  D.E.J_...\...J\.
05A0: 05 01 5F 02 05 01 4A 5D  02 05 01 5F 02 05 01 4A  .._...J]..._...J
05B0: F0 FF FF 7F 5F 02 05 01  80 5C 02 05 01 80 5D 02  ...._....\....].
05C0: 05 01 80 5F 02 05 01 66  19 80 5F 02 05 01 5F 02  ..._...f.._..._.
05D0: 05 01 74 6C 6B 30 1C 11  80 45 13 80 F0 FF FF 7F  ..tlk0...E......
05E0: F0 FF FF 7F 7A 30 30 39  01 80 45 00 80 F0 FF FF  ....z009..E.....
05F0: 7F F0 FF FF 7F 66 64 69  31 01 80 5C 00 12 80 5C  .....fdi1..\...\
0600: 01 12 80 1C 31 80 2B 5F  02 05 01 4F 80 23 66 19  ....1.+_...O.#f.
0610: 80 5F 02 05 01 5F 02 05  01 74 6C 6B 31 1C 1D 80  ._..._...tlk1...
0620: 52 13 80 F0 FF FF 7F F0  FF FF 7F 7A 30 30 39 45  R..........z009E
0630: 13 80 F0 FF FF 7F F0 FF  FF 7F 7A 30 31 30 01 80  ..........z010..
0640: 1C 1D 80 6E 5C 02 05 01  50 80 99 5C 02 05 01 2B  ...n\...P..\...+
0650: 5C 02 05 01 51 80 23 52  13 80 F0 FF FF 7F F0 FF  \...Q.#R........
0660: FF 7F 7A 30 31 30 45 13  80 F0 FF FF 7F F0 FF FF  ..z010E.........
0670: 7F 7A 30 31 31 01 80 2B  5F 02 05 01 52 80 23 6E  .z011..+_...R.#n
0680: 5F 02 05 01 53 80 99 5F  02 05 01 2B 5F 02 05 01  _...S.._...+_...
0690: 54 80 23 99 5F 02 05 01  27 10 5F 02 05 01 04 1C  T.#._...'._.....
06A0: 1D 80 27 10 63 02 05 01  03 1C 1D 80 27 10 64 02  ..'.c.......'.d.
06B0: 05 01 03 1C 1D 80 52 13  80 F0 FF FF 7F F0 FF FF  ......R.........
06C0: 7F 7A 30 31 31 27 10 65  02 05 01 03 45 13 80 F0  .z011'.e....E...
06D0: FF FF 7F F0 FF FF 7F 7A  30 31 32 01 80 1C 1D 80  .......z012.....
06E0: 27 10 66 02 05 01 03 2B  5E 02 05 01 55 80 23 52  '.f....+^...U.#R
06F0: 13 80 F0 FF FF 7F F0 FF  FF 7F 7A 30 31 32 45 13  ..........z012E.
0700: 80 F0 FF FF 7F F0 FF FF  7F 7A 30 31 33 01 80 1C  .........z013...
0710: 1D 80 2B 5E 02 05 01 56  80 23 27 10 5E 02 05 01  ..+^...V.#'.^...
0720: 04 1C 14 80 5D 01 80 1B  80 45 00 80 F8 FF FF 7F  ....]....E......
0730: F8 FF FF 7F 66 64 6F 31  01 80 55 00 80 F8 FF FF  ....fdo1..U.....
0740: 7F F8 FF FF 7F 66 64 6F  31 52 13 80 F0 FF FF 7F  .....fdo1R......
0750: F0 FF FF 7F 7A 30 31 33  5C 00 57 80 5C 01 57 80  ....z013\.W.\.W.
0760: 9A 46 00 45 00 80 F0 FF  FF 7F F0 FF FF 7F 66 64  .F.E..........fd
0770: 69 32 01 80 21 00                                 i2..!.          
```

#### Opcodes

```
  0: 0x0001 [0x42] SET_CLI_EVENT_CANCEL_DATA()
  1: 0x0002 [0x45] LOAD_SCHEDULED_TASK: Load scheduler "fdo1" with entities [EventEntity, EventEntity], work=[200*, 0*]
  2: 0x0013 [0x55] WAIT_LOAD_SCHEDULER: Wait for scheduler "fdo1" with entities [EventEntity, EventEntity], work=200*
  3: 0x0022 [0x46] CAMERA_CONTROL: Disable user control
  4: 0x0024 [0x38] SET_CLIENT_EVENT_MODE(mode=19*)
  5: 0x0027 [0x92] Tihl Midurhi (ID: 17105500/0x0105025C)->Render.Flags3 ^= 0x01
  6: 0x002D [0x92] Mihl Pakorhma (ID: 17105501/0x0105025D)->Render.Flags3 ^= 0x01
  7: 0x0033 [0x92] Pattna-Ottna (ID: 17105503/0x0105025F)->Render.Flags3 ^= 0x01
  8: 0x0039 [0x92] Rachemace (ID: 17105502/0x0105025E)->Render.Flags3 ^= 0x01
  9: 0x003F [0x92] Ashmea B Greinner (ID: 17105505/0x01050261)->Render.Flags3 ^= 0x01
 10: 0x0045 [0x92] Yrvaulair S Cousseraux (ID: 17105504/0x01050260)->Render.Flags3 ^= 0x01
 11: 0x004B [0x4E] SET_ENTITY_HIDE_FLAG: Show Pattna-Ottna (ID: 17105503/0x0105025F)
 12: 0x0051 [0x4E] SET_ENTITY_HIDE_FLAG: Show Unnamed NPC (ID: 17105507/0x01050263)
 13: 0x0057 [0x4E] SET_ENTITY_HIDE_FLAG: Show Unnamed NPC (ID: 17105508/0x01050264)
 14: 0x005D [0x4E] SET_ENTITY_HIDE_FLAG: Show Unnamed NPC (ID: 17105509/0x01050265)
 15: 0x0063 [0x4E] SET_ENTITY_HIDE_FLAG: Show Unnamed NPC (ID: 17105510/0x01050266)
 16: 0x0069 [0x4E] SET_ENTITY_HIDE_FLAG: Show Tihl Midurhi (ID: 17105500/0x0105025C)
 17: 0x006F [0x4E] SET_ENTITY_HIDE_FLAG: Show Mihl Pakorhma (ID: 17105501/0x0105025D)
 18: 0x0075 [0x4E] SET_ENTITY_HIDE_FLAG: Show Rachemace (ID: 17105502/0x0105025E)
 19: 0x007B [0xBA] SET_ENTITY_POSITION(entity_id=Pattna-Ottna (ID: 17105503/0x0105025F), pos_x=96.897*, pos_z=-38.309*, pos_y=1.000*, direction=51.9°*)
 20: 0x0088 [0xBA] SET_ENTITY_POSITION(entity_id=Tihl Midurhi (ID: 17105500/0x0105025C), pos_x=105.631*, pos_z=-50.941*, pos_y=0.000*, direction=226.2°*)
 21: 0x0095 [0xBA] SET_ENTITY_POSITION(entity_id=Mihl Pakorhma (ID: 17105501/0x0105025D), pos_x=104.923*, pos_z=-52.914*, pos_y=0.000*, direction=253.4°*)
 22: 0x00A2 [0xBA] SET_ENTITY_POSITION(entity_id=Rachemace (ID: 17105502/0x0105025E), pos_x=107.853*, pos_z=-51.746*, pos_y=0.000*, direction=253.4°*)
 23: 0x00AF [0xBA] SET_ENTITY_POSITION(entity_id=LocalPlayer, pos_x=107.517*, pos_z=-50.052*, pos_y=0.000*, direction=253.4°*)
 24: 0x00BC [0x80] LOAD_WAIT(entity=Tihl Midurhi (ID: 17105500/0x0105025C))
 25: 0x00C1 [0x80] LOAD_WAIT(entity=Mihl Pakorhma (ID: 17105501/0x0105025D))
 26: 0x00C6 [0x80] LOAD_WAIT(entity=Rachemace (ID: 17105502/0x0105025E))
 27: 0x00CB [0x80] LOAD_WAIT(entity=Pattna-Ottna (ID: 17105503/0x0105025F))
 28: 0x00D0 [0x80] LOAD_WAIT(entity=Unnamed NPC (ID: 17105507/0x01050263))
 29: 0x00D5 [0x80] LOAD_WAIT(entity=Unnamed NPC (ID: 17105508/0x01050264))
 30: 0x00DA [0x80] LOAD_WAIT(entity=Unnamed NPC (ID: 17105509/0x01050265))
 31: 0x00DF [0x80] LOAD_WAIT(entity=Unnamed NPC (ID: 17105510/0x01050266))
 32: 0x00E4 [0x94] LocalPlayer->Render.Flags3 ^= 0x01
 33: 0x00EA [0x94] Tihl Midurhi (ID: 17105500/0x0105025C)->Render.Flags3 ^= 0x01
 34: 0x00F0 [0x94] Ashmea B Greinner (ID: 17105505/0x01050261)->Render.Flags3 ^= 0x01
 35: 0x00F6 [0x94] Pattna-Ottna (ID: 17105503/0x0105025F)->Render.Flags3 ^= 0x01
 36: 0x00FC [0x94] Yrvaulair S Cousseraux (ID: 17105504/0x01050260)->Render.Flags3 ^= 0x01
 37: 0x0102 [0x94] Rachemace (ID: 17105502/0x0105025E)->Render.Flags3 ^= 0x01
 38: 0x0108 [0x5D] SET_MUSIC_VOLUME(volume=0*, fade_time=60*)
 39: 0x010D [0x1C] WAIT(60* ticks)
 40: 0x0110 [0x5C] MUSIC_CONTROL: Set Idle (Day) music to song 182*
 41: 0x0114 [0x5C] MUSIC_CONTROL: Set Idle (Night) music to song 182*
 42: 0x0118 [0x27] REQ_SET(priority=0x10, entity_id=Tihl Midurhi (ID: 17105500/0x0105025C), tag_num=0x03)
 43: 0x011F [0x27] REQ_SET(priority=0x10, entity_id=LocalPlayer, tag_num=0x13)
 44: 0x0126 [0x27] REQ_SET(priority=0x10, entity_id=Mihl Pakorhma (ID: 17105501/0x0105025D), tag_num=0x03)
 45: 0x012D [0x27] REQ_SET(priority=0x10, entity_id=Rachemace (ID: 17105502/0x0105025E), tag_num=0x03)
 46: 0x0134 [0x45] LOAD_SCHEDULED_TASK: Load scheduler "z000" with entities [LocalPlayer, LocalPlayer], work=[372*, 0*]
 47: 0x0145 [0x45] LOAD_SCHEDULED_TASK: Load scheduler "fdi1" with entities [LocalPlayer, LocalPlayer], work=[200*, 0*]
 48: 0x0156 [0x1C] WAIT(90* ticks)
 49: 0x0159 [0x27] REQ_SET(priority=0x10, entity_id=Pattna-Ottna (ID: 17105503/0x0105025F), tag_num=0x03)
 50: 0x0160 [0x27] REQ_SET(priority=0x10, entity_id=Unnamed NPC (ID: 17105507/0x01050263), tag_num=0x02)
 51: 0x0167 [0x27] REQ_SET(priority=0x10, entity_id=Unnamed NPC (ID: 17105508/0x01050264), tag_num=0x02)
 52: 0x016E [0x27] REQ_SET(priority=0x10, entity_id=Unnamed NPC (ID: 17105509/0x01050265), tag_num=0x02)
 53: 0x0175 [0x27] REQ_SET(priority=0x10, entity_id=Unnamed NPC (ID: 17105510/0x01050266), tag_num=0x02)
 54: 0x017C [0x1C] WAIT(5* ticks)
 55: 0x017F [0x52] END_LOAD_SCHEDULER: End scheduler "z000" with entities [LocalPlayer, LocalPlayer], work=372*
 56: 0x018E [0x45] LOAD_SCHEDULED_TASK: Load scheduler "z001" with entities [LocalPlayer, LocalPlayer], work=[372*, 0*]
 57: 0x019F [0x1C] WAIT(60* ticks)
 58: 0x01A2 [0x2B] Pattna-Ottna (ID: 17105503/0x0105025F) [12604*]:
    → "Wait, aren't you ladies members of the Cobra Unit...?"
 59: 0x01A9 [0x23] WAIT_FOR_DIALOG_INTERACTION
 60: 0x01AA [0x2B] Tihl Midurhi (ID: 17105500/0x0105025C) [12605*]:
    → "Who wants to know...? Oh, it's Taurean Master Caster Pattna-Ottna! What are you doing here!?"
 61: 0x01B1 [0x23] WAIT_FOR_DIALOG_INTERACTION
 62: 0x01B2 [0x2A] GET_REQ_LEVEL(level=16, entity_id=Pattna-Ottna (ID: 17105503/0x0105025F))
 63: 0x01B8 [0x52] END_LOAD_SCHEDULER: End scheduler "z001" with entities [LocalPlayer, LocalPlayer], work=372*
 64: 0x01C7 [0x45] LOAD_SCHEDULED_TASK: Load scheduler "z002" with entities [LocalPlayer, LocalPlayer], work=[372*, 0*]
 65: 0x01D8 [0x1C] WAIT(20* ticks)
 66: 0x01DB [0x66] LOAD_EXT_SCHEDULER_MAIN: Load scheduler "tlk0" with entities [Pattna-Ottna (ID: 17105503/0x0105025F), Pattna-Ottna (ID: 17105503/0x0105025F)], work=49*
 67: 0x01EA [0x2B] Pattna-Ottna (ID: 17105503/0x0105025F) [12606*]:
    → "Now that's an interesting story. You see, I was sentaru here to request Royal Knight reinforcements..."
 68: 0x01F1 [0x23] WAIT_FOR_DIALOG_INTERACTION
 69: 0x01F2 [0x1C] WAIT(60* ticks)
 70: 0x01F5 [0x2A] GET_REQ_LEVEL(level=16, entity_id=Unnamed NPC (ID: 17105510/0x01050266))
 71: 0x01FB [0x5D] SET_MUSIC_VOLUME(volume=0*, fade_time=120*)
 72: 0x0200 [0x45] LOAD_SCHEDULED_TASK: Load scheduler "fdo1" with entities [EventEntity, EventEntity], work=[200*, 0*]
 73: 0x0211 [0x55] WAIT_LOAD_SCHEDULER: Wait for scheduler "fdo1" with entities [EventEntity, EventEntity], work=200*
 74: 0x0220 [0x52] END_LOAD_SCHEDULER: End scheduler "z002" with entities [LocalPlayer, LocalPlayer], work=372*
 75: 0x022F [0x34] LOAD_UNLOAD_ZONE(zone_id=233*)
 76: 0x0232 [0x77] SET_EVENT_TIME_WEATHER(hour=0*, weather=0*)
 77: 0x0237 [0xAB] EventEntity->UnknownFlag = 1 // Enable unknown flag
 78: 0x0239 [0x1C] WAIT(30* ticks)
 79: 0x023C [0x4E] SET_ENTITY_HIDE_FLAG: Show Yrvaulair S Cousseraux (ID: 17105504/0x01050260)
 80: 0x0242 [0x4E] SET_ENTITY_HIDE_FLAG: Show Ashmea B Greinner (ID: 17105505/0x01050261)
 81: 0x0248 [0x80] LOAD_WAIT(entity=Yrvaulair S Cousseraux (ID: 17105504/0x01050260))
 82: 0x024D [0x80] LOAD_WAIT(entity=Ashmea B Greinner (ID: 17105505/0x01050261))
 83: 0x0252 [0xBA] SET_ENTITY_POSITION(entity_id=Pattna-Ottna (ID: 17105503/0x0105025F), pos_x=0.000*, pos_z=-5.382*, pos_y=0.000*, direction=271.8°*)
 84: 0x025F [0xBA] SET_ENTITY_POSITION(entity_id=Yrvaulair S Cousseraux (ID: 17105504/0x01050260), pos_x=0.199*, pos_z=2.573*, pos_y=0.000*, direction=92.3°*)
 85: 0x026C [0xBA] SET_ENTITY_POSITION(entity_id=Ashmea B Greinner (ID: 17105505/0x01050261), pos_x=2.446*, pos_z=2.121*, pos_y=0.000*, direction=227.9°*)
 86: 0x0279 [0xBA] SET_ENTITY_POSITION(entity_id=Unnamed NPC (ID: 17105507/0x01050263), pos_x=-0.560*, pos_z=-6.644*, pos_y=0.000*, direction=271.9°*)
 87: 0x0286 [0xBA] SET_ENTITY_POSITION(entity_id=Unnamed NPC (ID: 17105508/0x01050264), pos_x=0.739*, pos_z=-6.664*, pos_y=0.000*, direction=271.9°*)
 88: 0x0293 [0xBA] SET_ENTITY_POSITION(entity_id=Unnamed NPC (ID: 17105509/0x01050265), pos_x=0.673*, pos_z=-8.180*, pos_y=0.000*, direction=271.8°*)
 89: 0x02A0 [0xBA] SET_ENTITY_POSITION(entity_id=Unnamed NPC (ID: 17105510/0x01050266), pos_x=-0.647*, pos_z=-8.160*, pos_y=0.000*, direction=271.6°*)
 90: 0x02AD [0x4A] Ashmea B Greinner (ID: 17105505/0x01050261) looks at Yrvaulair S Cousseraux (ID: 17105504/0x01050260)
 91: 0x02B6 [0x66] LOAD_EXT_SCHEDULER_MAIN: Load scheduler "sha0" with entities [Pattna-Ottna (ID: 17105503/0x0105025F), Pattna-Ottna (ID: 17105503/0x0105025F)], work=49*
 92: 0x02C5 [0x66] LOAD_EXT_SCHEDULER_MAIN: Load scheduler "sha0" with entities [Unnamed NPC (ID: 17105507/0x01050263), Unnamed NPC (ID: 17105507/0x01050263)], work=49*
 93: 0x02D4 [0x66] LOAD_EXT_SCHEDULER_MAIN: Load scheduler "sha0" with entities [Unnamed NPC (ID: 17105508/0x01050264), Unnamed NPC (ID: 17105508/0x01050264)], work=49*
 94: 0x02E3 [0x66] LOAD_EXT_SCHEDULER_MAIN: Load scheduler "sha0" with entities [Unnamed NPC (ID: 17105509/0x01050265), Unnamed NPC (ID: 17105509/0x01050265)], work=49*
 95: 0x02F2 [0x66] LOAD_EXT_SCHEDULER_MAIN: Load scheduler "sha0" with entities [Unnamed NPC (ID: 17105510/0x01050266), Unnamed NPC (ID: 17105510/0x01050266)], work=49*
 96: 0x0301 [0x1C] WAIT(60* ticks)
 97: 0x0304 [0x5C] MUSIC_CONTROL: Set Idle (Day) music to song 156*
 98: 0x0308 [0x5C] MUSIC_CONTROL: Set Idle (Night) music to song 156*
 99: 0x030C [0x45] LOAD_SCHEDULED_TASK: Load scheduler "z004" with entities [LocalPlayer, LocalPlayer], work=[372*, 0*]
100: 0x031D [0x45] LOAD_SCHEDULED_TASK: Load scheduler "fdi1" with entities [LocalPlayer, LocalPlayer], work=[200*, 0*]
101: 0x032E [0x1C] WAIT(80* ticks)
102: 0x0331 [0x2B] Pattna-Ottna (ID: 17105503/0x0105025F) [12607*]:
    → "I come before you to formally requestaru Royal Knight reinforcements for Fort Karugo-Narugo."
103: 0x0338 [0x23] WAIT_FOR_DIALOG_INTERACTION
104: 0x0339 [0x52] END_LOAD_SCHEDULER: End scheduler "z004" with entities [LocalPlayer, LocalPlayer], work=372*
105: 0x0348 [0x45] LOAD_SCHEDULED_TASK: Load scheduler "z008" with entities [LocalPlayer, LocalPlayer], work=[372*, 0*]
106: 0x0359 [0x1C] WAIT(60* ticks)
107: 0x035C [0x2B] Pattna-Ottna (ID: 17105503/0x0105025F) [12608*]:
    → "Our beleaguered federation humbly-wumbly begs for your aid..."
108: 0x0363 [0x23] WAIT_FOR_DIALOG_INTERACTION
109: 0x0364 [0x52] END_LOAD_SCHEDULER: End scheduler "z008" with entities [LocalPlayer, LocalPlayer], work=372*
110: 0x0373 [0x45] LOAD_SCHEDULED_TASK: Load scheduler "z005" with entities [LocalPlayer, LocalPlayer], work=[372*, 0*]
111: 0x0384 [0x1C] WAIT(30* ticks)
112: 0x0387 [0x2B] Yrvaulair S Cousseraux (ID: 17105504/0x01050260) [12609*]:
    → "I understand your situation, and I would dearly love to be of assistance."
113: 0x038E [0x23] WAIT_FOR_DIALOG_INTERACTION
114: 0x038F [0x66] LOAD_EXT_SCHEDULER_MAIN: Load scheduler "thk1" with entities [Yrvaulair S Cousseraux (ID: 17105504/0x01050260), Yrvaulair S Cousseraux (ID: 17105504/0x01050260)], work=29*
115: 0x039E [0x2B] Yrvaulair S Cousseraux (ID: 17105504/0x01050260) [12610*]:
    → "However, the logistics involved in preparing troops for cross-continent travel..."
116: 0x03A5 [0x23] WAIT_FOR_DIALOG_INTERACTION
117: 0x03A6 [0x52] END_LOAD_SCHEDULER: End scheduler "z005" with entities [LocalPlayer, LocalPlayer], work=372*
118: 0x03B5 [0x45] LOAD_SCHEDULED_TASK: Load scheduler "z014" with entities [LocalPlayer, LocalPlayer], work=[372*, 0*]
119: 0x03C6 [0x1C] WAIT(10* ticks)
120: 0x03C9 [0x2B] Yrvaulair S Cousseraux (ID: 17105504/0x01050260) [12611*]:
    → "I am afraid it would be most impossible to find a unit capable of undertaking the journey at such short notice."
121: 0x03D0 [0x23] WAIT_FOR_DIALOG_INTERACTION
122: 0x03D1 [0x66] LOAD_EXT_SCHEDULER_MAIN: Load scheduler "thk2" with entities [Yrvaulair S Cousseraux (ID: 17105504/0x01050260), Yrvaulair S Cousseraux (ID: 17105504/0x01050260)], work=29*
123: 0x03E0 [0x52] END_LOAD_SCHEDULER: End scheduler "z014" with entities [LocalPlayer, LocalPlayer], work=372*
124: 0x03EF [0x45] LOAD_SCHEDULED_TASK: Load scheduler "z006" with entities [LocalPlayer, LocalPlayer], work=[372*, 0*]
125: 0x0400 [0x66] LOAD_EXT_SCHEDULER_MAIN: Load scheduler "tlk0" with entities [Ashmea B Greinner (ID: 17105505/0x01050261), Ashmea B Greinner (ID: 17105505/0x01050261)], work=39*
126: 0x040F [0x2B] Ashmea B Greinner (ID: 17105505/0x01050261) [12612*]:
    → "General Cousseraux. If I may be so bold, I believe my own unit would not be incapable of making such a trek..."
127: 0x0416 [0x23] WAIT_FOR_DIALOG_INTERACTION
128: 0x0417 [0x66] LOAD_EXT_SCHEDULER_MAIN: Load scheduler "tlk1" with entities [Ashmea B Greinner (ID: 17105505/0x01050261), Ashmea B Greinner (ID: 17105505/0x01050261)], work=39*
129: 0x0426 [0x79] Yrvaulair S Cousseraux (ID: 17105504/0x01050260) looks at Ashmea B Greinner (ID: 17105505/0x01050261) (Basic look)
130: 0x0430 [0x6E] Yrvaulair S Cousseraux (ID: 17105504/0x01050260) uses emote 25*
131: 0x0437 [0x99] Wait for Yrvaulair S Cousseraux (ID: 17105504/0x01050260) animation to complete
132: 0x043C [0x2B] Yrvaulair S Cousseraux (ID: 17105504/0x01050260) [12613*]:
    → "Out of the question! Your troops have an important mission before them."
133: 0x0443 [0x23] WAIT_FOR_DIALOG_INTERACTION
134: 0x0444 [0x99] Wait for Yrvaulair S Cousseraux (ID: 17105504/0x01050260) animation to complete
135: 0x0449 [0x52] END_LOAD_SCHEDULER: End scheduler "z006" with entities [LocalPlayer, LocalPlayer], work=372*
136: 0x0458 [0x45] LOAD_SCHEDULED_TASK: Load scheduler "z015" with entities [LocalPlayer, LocalPlayer], work=[372*, 0*]
137: 0x0469 [0x1C] WAIT(10* ticks)
138: 0x046C [0x2B] Yrvaulair S Cousseraux (ID: 17105504/0x01050260) [12614*]:
    → "I will abide no unnecessary impediments to our plans for the Sauromugue Champaign."
139: 0x0473 [0x23] WAIT_FOR_DIALOG_INTERACTION
140: 0x0474 [0x52] END_LOAD_SCHEDULER: End scheduler "z015" with entities [LocalPlayer, LocalPlayer], work=372*
141: 0x0483 [0x45] LOAD_SCHEDULED_TASK: Load scheduler "z007" with entities [LocalPlayer, LocalPlayer], work=[372*, 0*]
142: 0x0494 [0x1C] WAIT(30* ticks)
143: 0x0497 [0x79] Yrvaulair S Cousseraux (ID: 17105504/0x01050260) looks at Pattna-Ottna (ID: 17105503/0x0105025F) (Basic look)
144: 0x04A1 [0x66] LOAD_EXT_SCHEDULER_MAIN: Load scheduler "twb0" with entities [Yrvaulair S Cousseraux (ID: 17105504/0x01050260), Yrvaulair S Cousseraux (ID: 17105504/0x01050260)], work=29*
145: 0x04B0 [0x2B] Yrvaulair S Cousseraux (ID: 17105504/0x01050260) [12615*]:
    → "I hope you understand my position, Master Caster."
146: 0x04B7 [0x23] WAIT_FOR_DIALOG_INTERACTION
147: 0x04B8 [0x2B] Yrvaulair S Cousseraux (ID: 17105504/0x01050260) [12616*]:
    → "Please inform your Warlock Warlord that the Royal Knights will do what they can. However, nothing can be promised at this time."
148: 0x04BF [0x23] WAIT_FOR_DIALOG_INTERACTION
149: 0x04C0 [0x66] LOAD_EXT_SCHEDULER_MAIN: Load scheduler "twb1" with entities [Yrvaulair S Cousseraux (ID: 17105504/0x01050260), Yrvaulair S Cousseraux (ID: 17105504/0x01050260)], work=29*
150: 0x04CF [0x52] END_LOAD_SCHEDULER: End scheduler "z007" with entities [LocalPlayer, LocalPlayer], work=372*
151: 0x04DE [0x45] LOAD_SCHEDULED_TASK: Load scheduler "z008" with entities [LocalPlayer, LocalPlayer], work=[372*, 0*]
152: 0x04EF [0x1C] WAIT(30* ticks)
153: 0x04F2 [0x2B] Pattna-Ottna (ID: 17105503/0x0105025F) [12617*]:
    → "..."
154: 0x04F9 [0x23] WAIT_FOR_DIALOG_INTERACTION
155: 0x04FA [0x1C] WAIT(60* ticks)
156: 0x04FD [0x45] LOAD_SCHEDULED_TASK: Load scheduler "fdo1" with entities [EventEntity, EventEntity], work=[200*, 0*]
157: 0x050E [0x55] WAIT_LOAD_SCHEDULER: Wait for scheduler "fdo1" with entities [EventEntity, EventEntity], work=200*
158: 0x051D [0x52] END_LOAD_SCHEDULER: End scheduler "z008" with entities [LocalPlayer, LocalPlayer], work=372*
159: 0x052C [0x4E] SET_ENTITY_HIDE_FLAG: Hide Yrvaulair S Cousseraux (ID: 17105504/0x01050260)
160: 0x0532 [0x4E] SET_ENTITY_HIDE_FLAG: Hide Ashmea B Greinner (ID: 17105505/0x01050261)
161: 0x0538 [0x35] LOAD_ZONE_NO_CLOSE(zone_id=80*)
162: 0x053B [0x78] ENABLE_GAME_TIMER_RESET_WEATHER()
163: 0x053C [0x1C] WAIT(3* ticks)
164: 0x053F [0x22] ENTITY_HIDE_FLAG(enabled=0x00)
165: 0x0541 [0xAB] EventEntity->UnknownFlag = 0 // Disable unknown flag
166: 0x0543 [0x2D] CREATE_ZONE_SCHEDULER_TASK: Create scheduler "1pb1" with entities [LocalPlayer, LocalPlayer]
167: 0x0550 [0x1C] WAIT(30* ticks)
168: 0x0553 [0xBA] SET_ENTITY_POSITION(entity_id=Pattna-Ottna (ID: 17105503/0x0105025F), pos_x=101.248*, pos_z=-43.651*, pos_y=0.999*, direction=228.9°*)
169: 0x0560 [0xBA] SET_ENTITY_POSITION(entity_id=Unnamed NPC (ID: 17105507/0x01050263), pos_x=98.400*, pos_z=-41.207*, pos_y=0.999*, direction=228.9°*)
170: 0x056D [0xBA] SET_ENTITY_POSITION(entity_id=Unnamed NPC (ID: 17105508/0x01050264), pos_x=97.190*, pos_z=-42.236*, pos_y=0.999*, direction=228.7°*)
171: 0x057A [0xBA] SET_ENTITY_POSITION(entity_id=Unnamed NPC (ID: 17105509/0x01050265), pos_x=98.296*, pos_z=-39.877*, pos_y=0.999*, direction=228.9°*)
172: 0x0587 [0xBA] SET_ENTITY_POSITION(entity_id=Unnamed NPC (ID: 17105510/0x01050266), pos_x=96.898*, pos_z=-41.022*, pos_y=0.999*, direction=228.9°*)
173: 0x0594 [0x4A] Pattna-Ottna (ID: 17105503/0x0105025F) looks at Tihl Midurhi (ID: 17105500/0x0105025C)
174: 0x059D [0x4A] Tihl Midurhi (ID: 17105500/0x0105025C) looks at Pattna-Ottna (ID: 17105503/0x0105025F)
175: 0x05A6 [0x4A] Mihl Pakorhma (ID: 17105501/0x0105025D) looks at Pattna-Ottna (ID: 17105503/0x0105025F)
176: 0x05AF [0x4A] LocalPlayer looks at Pattna-Ottna (ID: 17105503/0x0105025F)
177: 0x05B8 [0x80] LOAD_WAIT(entity=Tihl Midurhi (ID: 17105500/0x0105025C))
178: 0x05BD [0x80] LOAD_WAIT(entity=Mihl Pakorhma (ID: 17105501/0x0105025D))
179: 0x05C2 [0x80] LOAD_WAIT(entity=Pattna-Ottna (ID: 17105503/0x0105025F))
180: 0x05C7 [0x66] LOAD_EXT_SCHEDULER_MAIN: Load scheduler "tlk0" with entities [Pattna-Ottna (ID: 17105503/0x0105025F), Pattna-Ottna (ID: 17105503/0x0105025F)], work=49*
181: 0x05D6 [0x1C] WAIT(60* ticks)
182: 0x05D9 [0x45] LOAD_SCHEDULED_TASK: Load scheduler "z009" with entities [LocalPlayer, LocalPlayer], work=[372*, 0*]
183: 0x05EA [0x45] LOAD_SCHEDULED_TASK: Load scheduler "fdi1" with entities [LocalPlayer, LocalPlayer], work=[200*, 0*]
184: 0x05FB [0x5C] MUSIC_CONTROL: Set Idle (Day) music to song 182*
185: 0x05FF [0x5C] MUSIC_CONTROL: Set Idle (Night) music to song 182*
186: 0x0603 [0x1C] WAIT(80* ticks)
187: 0x0606 [0x2B] Pattna-Ottna (ID: 17105503/0x0105025F) [12618*]:
    → "And that was the endy-wend of that."
188: 0x060D [0x23] WAIT_FOR_DIALOG_INTERACTION
189: 0x060E [0x66] LOAD_EXT_SCHEDULER_MAIN: Load scheduler "tlk1" with entities [Pattna-Ottna (ID: 17105503/0x0105025F), Pattna-Ottna (ID: 17105503/0x0105025F)], work=49*
190: 0x061D [0x1C] WAIT(30* ticks)
191: 0x0620 [0x52] END_LOAD_SCHEDULER: End scheduler "z009" with entities [LocalPlayer, LocalPlayer], work=372*
192: 0x062F [0x45] LOAD_SCHEDULED_TASK: Load scheduler "z010" with entities [LocalPlayer, LocalPlayer], work=[372*, 0*]
193: 0x0640 [0x1C] WAIT(30* ticks)
194: 0x0643 [0x6E] Tihl Midurhi (ID: 17105500/0x0105025C) uses emote 22*
195: 0x064A [0x99] Wait for Tihl Midurhi (ID: 17105500/0x0105025C) animation to complete
196: 0x064F [0x2B] Tihl Midurhi (ID: 17105500/0x0105025C) [12619*]:
    → "Huh... Um, actually, isn't this kind of talk confidential or something?"
197: 0x0656 [0x23] WAIT_FOR_DIALOG_INTERACTION
198: 0x0657 [0x52] END_LOAD_SCHEDULER: End scheduler "z010" with entities [LocalPlayer, LocalPlayer], work=372*
199: 0x0666 [0x45] LOAD_SCHEDULED_TASK: Load scheduler "z011" with entities [LocalPlayer, LocalPlayer], work=[372*, 0*]
200: 0x0677 [0x2B] Pattna-Ottna (ID: 17105503/0x0105025F) [12620*]:
    → "It's no secretaru. And I appreciate having a shoulder to gripey-wipe on."
201: 0x067E [0x23] WAIT_FOR_DIALOG_INTERACTION
202: 0x067F [0x6E] Pattna-Ottna (ID: 17105503/0x0105025F) uses emote 6*
203: 0x0686 [0x99] Wait for Pattna-Ottna (ID: 17105503/0x0105025F) animation to complete
204: 0x068B [0x2B] Pattna-Ottna (ID: 17105503/0x0105025F) [12621*]:
    → "I'm afraid the Elvaan bear a grudge for the time we ruled the continent--their pride preventarus them from lending us the help we need."
205: 0x0692 [0x23] WAIT_FOR_DIALOG_INTERACTION
206: 0x0693 [0x99] Wait for Pattna-Ottna (ID: 17105503/0x0105025F) animation to complete
207: 0x0698 [0x27] REQ_SET(priority=0x10, entity_id=Pattna-Ottna (ID: 17105503/0x0105025F), tag_num=0x04)
208: 0x069F [0x1C] WAIT(30* ticks)
209: 0x06A2 [0x27] REQ_SET(priority=0x10, entity_id=Unnamed NPC (ID: 17105507/0x01050263), tag_num=0x03)
210: 0x06A9 [0x1C] WAIT(30* ticks)
211: 0x06AC [0x27] REQ_SET(priority=0x10, entity_id=Unnamed NPC (ID: 17105508/0x01050264), tag_num=0x03)
212: 0x06B3 [0x1C] WAIT(30* ticks)
213: 0x06B6 [0x52] END_LOAD_SCHEDULER: End scheduler "z011" with entities [LocalPlayer, LocalPlayer], work=372*
214: 0x06C5 [0x27] REQ_SET(priority=0x10, entity_id=Unnamed NPC (ID: 17105509/0x01050265), tag_num=0x03)
215: 0x06CC [0x45] LOAD_SCHEDULED_TASK: Load scheduler "z012" with entities [LocalPlayer, LocalPlayer], work=[372*, 0*]
216: 0x06DD [0x1C] WAIT(30* ticks)
217: 0x06E0 [0x27] REQ_SET(priority=0x10, entity_id=Unnamed NPC (ID: 17105510/0x01050266), tag_num=0x03)
218: 0x06E7 [0x2B] Rachemace (ID: 17105502/0x0105025E) [12622*]:
    → "..."
219: 0x06EE [0x23] WAIT_FOR_DIALOG_INTERACTION
220: 0x06EF [0x52] END_LOAD_SCHEDULER: End scheduler "z012" with entities [LocalPlayer, LocalPlayer], work=372*
221: 0x06FE [0x45] LOAD_SCHEDULED_TASK: Load scheduler "z013" with entities [LocalPlayer, LocalPlayer], work=[372*, 0*]
222: 0x070F [0x1C] WAIT(30* ticks)
223: 0x0712 [0x2B] Rachemace (ID: 17105502/0x0105025E) [12623*]:
    → "Sir Joseaneaut, the Temple Knight I spoke of, is currently staying in Squire Alley. Let us be on our way..."
224: 0x0719 [0x23] WAIT_FOR_DIALOG_INTERACTION
225: 0x071A [0x27] REQ_SET(priority=0x10, entity_id=Rachemace (ID: 17105502/0x0105025E), tag_num=0x04)
226: 0x0721 [0x1C] WAIT(90* ticks)
227: 0x0724 [0x5D] SET_MUSIC_VOLUME(volume=0*, fade_time=120*)
228: 0x0729 [0x45] LOAD_SCHEDULED_TASK: Load scheduler "fdo1" with entities [EventEntity, EventEntity], work=[200*, 0*]
229: 0x073A [0x55] WAIT_LOAD_SCHEDULER: Wait for scheduler "fdo1" with entities [EventEntity, EventEntity], work=200*
230: 0x0749 [0x52] END_LOAD_SCHEDULER: End scheduler "z013" with entities [LocalPlayer, LocalPlayer], work=372*
231: 0x0758 [0x5C] MUSIC_CONTROL: Set Idle (Day) music to song 254*
232: 0x075C [0x5C] MUSIC_CONTROL: Set Idle (Night) music to song 254*
233: 0x0760 [0x9A] WAIT_MUSIC_SERVER()
234: 0x0761 [0x46] CAMERA_CONTROL: Restore default settings
235: 0x0763 [0x45] LOAD_SCHEDULED_TASK: Load scheduler "fdi2" with entities [LocalPlayer, LocalPlayer], work=[200*, 0*]
236: 0x0774 [0x21] END_EVENT
237: 0x0775 [0x00] END_REQSTACK()
```

### Event 63

#### Metadata

| Field        | Value      |
|--------------|------------|
| Entrypoint   | 0x0776     |
| Data Size    | 2295 bytes |
| Instructions | 280        |

```
      00 01 02 03 04 05 06 07  08 09 0A 0B 0C 0D 0E 0F
      -- -- -- -- -- -- -- --  -- -- -- -- -- -- -- --
0770:                   42 45  00 80 F8 FF FF 7F F8 FF        BE........
0780: FF 7F 66 64 6F 31 01 80  55 00 80 F8 FF FF 7F F8  ..fdo1..U.......
0790: FF FF 7F 66 64 6F 31 46  01 38 02 80 92 01 5C 02  ...fdo1F.8....\.
07A0: 05 01 92 01 5D 02 05 01  92 01 5F 02 05 01 92 01  ....]....._.....
07B0: 5E 02 05 01 92 01 62 02  05 01 92 01 5B 02 05 01  ^.....b.....[...
07C0: 4E 00 5F 02 05 01 4E 00  5C 02 05 01 4E 00 5D 02  N._...N.\...N.].
07D0: 05 01 4E 00 5E 02 05 01  4E 00 5B 02 05 01 BA 5F  ..N.^...N.[...._
07E0: 02 05 01 03 80 04 80 05  80 06 80 BA 5C 02 05 01  ............\...
07F0: 58 80 59 80 01 80 5A 80  BA 5D 02 05 01 5B 80 5C  X.Y...Z..]...[.\
0800: 80 01 80 5A 80 BA 5E 02  05 01 5D 80 5E 80 01 80  ...Z..^...].^...
0810: 5F 80 BA F0 FF FF 7F 60  80 61 80 01 80 5A 80 BA  _......`.a...Z..
0820: 5B 02 05 01 62 80 63 80  64 80 65 80 BA 62 02 05  [...b.c.d.e..b..
0830: 01 66 80 67 80 01 80 68  80 80 5C 02 05 01 80 5D  .f.g...h..\....]
0840: 02 05 01 80 5E 02 05 01  80 5F 02 05 01 80 5B 02  ....^...._....[.
0850: 05 01 4A 5C 02 05 01 5B  02 05 01 4A 5D 02 05 01  ..J\...[...J]...
0860: 5B 02 05 01 4A 5E 02 05  01 5B 02 05 01 4A F0 FF  [...J^...[...J..
0870: FF 7F 5B 02 05 01 94 01  F0 FF FF 7F 94 01 5B 02  ..[...........[.
0880: 05 01 94 01 5C 02 05 01  94 01 62 02 05 01 94 01  ....\.....b.....
0890: 5E 02 05 01 1C 11 80 45  13 80 F0 FF FF 7F F0 FF  ^......E........
08A0: FF 7F 79 30 30 30 01 80  45 00 80 F0 FF FF 7F F0  ..y000..E.......
08B0: FF FF 7F 66 64 69 31 01  80 27 10 5B 02 05 01 03  ...fdi1..'.[....
08C0: 1C 11 80 2B 5B 02 05 01  69 80 23 52 13 80 F0 FF  ...+[...i.#R....
08D0: FF 7F F0 FF FF 7F 79 30  30 30 45 13 80 F0 FF FF  ......y000E.....
08E0: 7F F0 FF FF 7F 79 30 30  31 01 80 2B 5B 02 05 01  .....y001..+[...
08F0: 6A 80 23 66 35 80 5E 02  05 01 5E 02 05 01 74 77  j.#f5.^...^...tw
0900: 61 30 2B 5E 02 05 01 6B  80 23 66 35 80 5E 02 05  a0+^...k.#f5.^..
0910: 01 5E 02 05 01 74 77 61  31 52 13 80 F0 FF FF 7F  .^...twa1R......
0920: F0 FF FF 7F 79 30 30 31  45 13 80 F0 FF FF 7F F0  ....y001E.......
0930: FF FF 7F 79 30 30 32 01  80 5B 6C 80 5C 02 05 01  ...y002..[l.\...
0940: 5C 02 05 01 69 72 6F 30  4A 5B 02 05 01 5C 02 05  \...iro0J[...\..
0950: 01 2B 5C 02 05 01 6D 80  23 79 00 5D 02 05 01 5C  .+\...m.#y.]...\
0960: 02 05 01 2B 5D 02 05 01  6E 80 23 52 13 80 F0 FF  ...+]...n.#R....
0970: FF 7F F0 FF FF 7F 79 30  30 32 45 13 80 F0 FF FF  ......y002E.....
0980: 7F F0 FF FF 7F 79 30 30  33 01 80 79 00 5D 02 05  .....y003..y.]..
0990: 01 5B 02 05 01 6E 5B 02  05 01 6F 80 99 5B 02 05  .[...n[...o..[..
09A0: 01 2B 5B 02 05 01 70 80  23 66 35 80 5E 02 05 01  .+[...p.#f5.^...
09B0: 5E 02 05 01 74 77 61 30  2B 5E 02 05 01 71 80 23  ^...twa0+^...q.#
09C0: 66 35 80 5E 02 05 01 5E  02 05 01 74 77 61 31 52  f5.^...^...twa1R
09D0: 13 80 F0 FF FF 7F F0 FF  FF 7F 79 30 30 33 45 13  ..........y003E.
09E0: 80 F0 FF FF 7F F0 FF FF  7F 79 30 30 34 01 80 4E  .........y004..N
09F0: 00 62 02 05 01 80 62 02  05 01 2B 5B 02 05 01 72  .b....b...+[...r
0A00: 80 23 99 5B 02 05 01 4A  5B 02 05 01 62 02 05 01  .#.[...J[...b...
0A10: 27 10 62 02 05 01 02 1C  37 80 52 13 80 F0 FF FF  '.b.....7.R.....
0A20: 7F F0 FF FF 7F 79 30 30  34 45 13 80 F0 FF FF 7F  .....y004E......
0A30: F0 FF FF 7F 79 30 30 35  01 80 1C 11 80 2B 62 02  ....y005.....+b.
0A40: 05 01 73 80 23 52 13 80  F0 FF FF 7F F0 FF FF 7F  ..s.#R..........
0A50: 79 30 30 35 45 13 80 F0  FF FF 7F F0 FF FF 7F 79  y005E..........y
0A60: 30 30 36 01 80 4A 5B 02  05 01 62 02 05 01 6F 76  006..J[...b...ov
0A70: 5B 02 05 01 66 35 80 5B  02 05 01 5B 02 05 01 74  [...f5.[...[...t
0A80: 77 62 30 2B 5B 02 05 01  74 80 23 66 35 80 5B 02  wb0+[...t.#f5.[.
0A90: 05 01 5B 02 05 01 74 77  62 31 2A 10 62 02 05 01  ..[...twb1*.b...
0AA0: 4A 5B 02 05 01 62 02 05  01 2B 62 02 05 01 75 80  J[...b...+b...u.
0AB0: 23 52 13 80 F0 FF FF 7F  F0 FF FF 7F 79 30 30 36  #R..........y006
0AC0: 45 13 80 F0 FF FF 7F F0  FF FF 7F 79 30 30 37 01  E..........y007.
0AD0: 80 6E 5B 02 05 01 76 80  99 5B 02 05 01 2B 5B 02  .n[...v..[...+[.
0AE0: 05 01 77 80 23 2B 62 02  05 01 78 80 23 5D 01 80  ..w.#+b...x.#]..
0AF0: 1B 80 1C 11 80 45 00 80  F8 FF FF 7F F8 FF FF 7F  .....E..........
0B00: 66 64 6F 31 01 80 55 00  80 F8 FF FF 7F F8 FF FF  fdo1..U.........
0B10: 7F 66 64 6F 31 52 13 80  F0 FF FF 7F F0 FF FF 7F  .fdo1R..........
0B20: 79 30 30 37 4A 5E 02 05  01 62 02 05 01 4A 5C 02  y007J^...b...J\.
0B30: 05 01 62 02 05 01 4A 5D  02 05 01 62 02 05 01 4A  ..b...J]...b...J
0B40: F0 FF FF 7F 62 02 05 01  6B 69 64 6C 30 5C 02 05  ....b...kidl0\..
0B50: 01 1C 14 80 45 13 80 F0  FF FF 7F F0 FF FF 7F 79  ....E..........y
0B60: 30 30 39 01 80 45 00 80  F0 FF FF 7F F0 FF FF 7F  009..E..........
0B70: 66 64 69 31 01 80 5C 00  79 80 5C 01 79 80 1C 11  fdi1..\.y.\.y...
0B80: 80 2B 62 02 05 01 7A 80  23 52 13 80 F0 FF FF 7F  .+b...z.#R......
0B90: F0 FF FF 7F 79 30 30 39  45 13 80 F0 FF FF 7F F0  ....y009E.......
0BA0: FF FF 7F 79 30 31 30 01  80 66 35 80 5B 02 05 01  ...y010..f5.[...
0BB0: 5B 02 05 01 74 68 6B 31  2B 5B 02 05 01 7B 80 23  [...thk1+[...{.#
0BC0: 2B 62 02 05 01 7C 80 23  2B 5B 02 05 01 7D 80 23  +b...|.#+[...}.#
0BD0: 66 35 80 5B 02 05 01 5B  02 05 01 74 68 6B 32 52  f5.[...[...thk2R
0BE0: 13 80 F0 FF FF 7F F0 FF  FF 7F 79 30 31 30 45 13  ..........y010E.
0BF0: 80 F0 FF FF 7F F0 FF FF  7F 79 30 31 31 01 80 4A  .........y011..J
0C00: 5E 02 05 01 5B 02 05 01  6F 76 5E 02 05 01 66 35  ^...[...ov^...f5
0C10: 80 5E 02 05 01 5E 02 05  01 74 77 61 30 2B 5E 02  .^...^...twa0+^.
0C20: 05 01 7E 80 23 66 35 80  5E 02 05 01 5E 02 05 01  ..~.#f5.^...^...
0C30: 74 77 61 31 1C 1D 80 52  13 80 F0 FF FF 7F F0 FF  twa1...R........
0C40: FF 7F 79 30 31 31 45 13  80 F0 FF FF 7F F0 FF FF  ..y011E.........
0C50: 7F 79 30 31 32 01 80 1C  1D 80 2B 62 02 05 01 7F  .y012.....+b....
0C60: 80 23 52 13 80 F0 FF FF  7F F0 FF FF 7F 79 30 31  .#R..........y01
0C70: 32 45 13 80 F0 FF FF 7F  F0 FF FF 7F 79 30 31 33  2E..........y013
0C80: 01 80 2B 5B 02 05 01 80  80 23 6E 5C 02 05 01 81  ..+[.....#n\....
0C90: 80 99 5C 02 05 01 2B 5C  02 05 01 82 80 23 66 35  ..\...+\.....#f5
0CA0: 80 5E 02 05 01 5E 02 05  01 74 77 61 30 2B 5E 02  .^...^...twa0+^.
0CB0: 05 01 83 80 23 66 35 80  5E 02 05 01 5E 02 05 01  ....#f5.^...^...
0CC0: 74 77 61 31 52 13 80 F0  FF FF 7F F0 FF FF 7F 79  twa1R..........y
0CD0: 30 31 33 45 13 80 F0 FF  FF 7F F0 FF FF 7F 79 30  013E..........y0
0CE0: 31 34 01 80 4A 5B 02 05  01 5E 02 05 01 2B 5B 02  14..J[...^...+[.
0CF0: 05 01 84 80 23 2B 5E 02  05 01 85 80 23 1C 86 80  ....#+^.....#...
0D00: 45 00 80 F8 FF FF 7F F8  FF FF 7F 66 64 6F 31 01  E..........fdo1.
0D10: 80 55 00 80 F8 FF FF 7F  F8 FF FF 7F 66 64 6F 31  .U..........fdo1
0D20: 52 13 80 F0 FF FF 7F F0  FF FF 7F 79 30 31 34 4E  R..........y014N
0D30: 01 62 02 05 01 4A F0 FF  FF 7F 5B 02 05 01 1C 11  .b...J....[.....
0D40: 80 45 13 80 F0 FF FF 7F  F0 FF FF 7F 79 30 31 35  .E..........y015
0D50: 01 80 45 00 80 F0 FF FF  7F F0 FF FF 7F 66 64 69  ..E..........fdi
0D60: 31 01 80 1C 11 80 2B 5B  02 05 01 87 80 23 52 13  1.....+[.....#R.
0D70: 80 F0 FF FF 7F F0 FF FF  7F 79 30 31 35 45 13 80  .........y015E..
0D80: F0 FF FF 7F F0 FF FF 7F  79 30 31 36 01 80 66 35  ........y016..f5
0D90: 80 5E 02 05 01 5E 02 05  01 74 77 61 30 2B 5E 02  .^...^...twa0+^.
0DA0: 05 01 88 80 23 2B 5E 02  05 01 89 80 23 66 35 80  ....#+^.....#f5.
0DB0: 5E 02 05 01 5E 02 05 01  74 77 61 31 52 13 80 F0  ^...^...twa1R...
0DC0: FF FF 7F F0 FF FF 7F 79  30 31 36 45 13 80 F0 FF  .......y016E....
0DD0: FF 7F F0 FF FF 7F 79 30  31 37 01 80 4A 5B 02 05  ......y017..J[..
0DE0: 01 F0 FF FF 7F 6F 76 5B  02 05 01 6E 5B 02 05 01  .....ov[...n[...
0DF0: 76 80 99 5B 02 05 01 2B  5B 02 05 01 8A 80 23 2B  v..[...+[.....#+
0E00: 5B 02 05 01 8B 80 23 6E  5C 02 05 01 76 80 99 5C  [.....#n\...v..\
0E10: 02 05 01 6E 5D 02 05 01  76 80 99 5D 02 05 01 2B  ...n]...v..]...+
0E20: 5C 02 05 01 8C 80 23 52  13 80 F0 FF FF 7F F0 FF  \.....#R........
0E30: FF 7F 79 30 31 37 45 13  80 F0 FF FF 7F F0 FF FF  ..y017E.........
0E40: 7F 79 30 31 38 01 80 03  02 10 8D 80 66 35 80 5B  .y018.......f5.[
0E50: 02 05 01 5B 02 05 01 74  77 61 30 2B 5B 02 05 01  ...[...twa0+[...
0E60: 8E 80 23 66 35 80 5B 02  05 01 5B 02 05 01 74 77  ..#f5.[...[...tw
0E70: 61 31 1C 11 80 5D 01 80  1B 80 45 00 80 F8 FF FF  a1...]....E.....
0E80: 7F F8 FF FF 7F 66 64 6F  31 01 80 55 00 80 F8 FF  .....fdo1..U....
0E90: FF 7F F8 FF FF 7F 66 64  6F 31 52 13 80 F0 FF FF  ......fdo1R.....
0EA0: 7F F0 FF FF 7F 79 30 31  38 4E 01 5B 02 05 01 4E  .....y018N.[...N
0EB0: 01 5E 02 05 01 1C 11 80  BA 5C 02 05 01 8F 80 90  .^.......\......
0EC0: 80 01 80 91 80 BA 5D 02  05 01 92 80 93 80 01 80  ......].........
0ED0: 94 80 BA F0 FF FF 7F 95  80 96 80 01 80 97 80 45  ...............E
0EE0: 13 80 F0 FF FF 7F F0 FF  FF 7F 79 30 31 39 01 80  ..........y019..
0EF0: 45 00 80 F0 FF FF 7F F0  FF FF 7F 66 64 69 31 01  E..........fdi1.
0F00: 80 5C 00 57 80 5C 01 57  80 27 10 5C 02 05 01 04  .\.W.\.W.'.\....
0F10: 27 10 5D 02 05 01 04 1C  18 80 27 10 F0 FF FF 7F  '.].......'.....
0F20: 14 1C 1D 80 2B 5D 02 05  01 98 80 23 2B 5D 02 05  ....+].....#+]..
0F30: 01 99 80 23 2B 5C 02 05  01 9A 80 23 2A 10 5C 02  ...#+\.....#*.\.
0F40: 05 01 52 13 80 F0 FF FF  7F F0 FF FF 7F 79 30 31  ..R..........y01
0F50: 39 45 13 80 F0 FF FF 7F  F0 FF FF 7F 79 30 32 30  9E..........y020
0F60: 01 80 2B 5D 02 05 01 9B  80 23 2B 5C 02 05 01 9C  ..+].....#+\....
0F70: 80 23 52 13 80 F0 FF FF  7F F0 FF FF 7F 79 30 32  .#R..........y02
0F80: 30 45 13 80 F0 FF FF 7F  F0 FF FF 7F 79 30 32 31  0E..........y021
0F90: 01 80 2A 10 5C 02 05 01  6E 5D 02 05 01 9D 80 99  ..*.\...n]......
0FA0: 5D 02 05 01 2B 5D 02 05  01 9E 80 23 4A 5C 02 05  ]...+].....#J\..
0FB0: 01 5D 02 05 01 6F 76 5C  02 05 01 6E 5C 02 05 01  .]...ov\...n\...
0FC0: 9F 80 99 5C 02 05 01 2B  5C 02 05 01 A0 80 23 2B  ...\...+\.....#+
0FD0: 5C 02 05 01 A1 80 23 52  13 80 F0 FF FF 7F F0 FF  \.....#R........
0FE0: FF 7F 79 30 32 31 45 13  80 F0 FF FF 7F F0 FF FF  ..y021E.........
0FF0: 7F 79 30 32 32 01 80 4A  5D 02 05 01 F0 FF FF 7F  .y022..J].......
1000: 6E F0 FF FF 7F 76 80 99  F0 FF FF 7F 2B 5D 02 05  n....v......+]..
1010: 01 A2 80 23 1C 11 80 45  00 80 F8 FF FF 7F F8 FF  ...#...E........
1020: FF 7F 66 64 6F 31 01 80  55 00 80 F8 FF FF 7F F8  ..fdo1..U.......
1030: FF FF 7F 66 64 6F 31 52  A3 80 F0 FF FF 7F F0 FF  ...fdo1R........
1040: FF 7F 6F 70 31 33 9A 46  00 45 A4 80 F8 FF FF 7F  ..op13.F.E......
1050: F8 FF FF 7F 71 73 74 63  01 80 45 00 80 F0 FF FF  ....qstc..E.....
1060: 7F F0 FF FF 7F 66 64 69  32 01 80 21 00           .....fdi2..!.   
```

#### Opcodes

```
  0: 0x0776 [0x42] SET_CLI_EVENT_CANCEL_DATA()
  1: 0x0777 [0x45] LOAD_SCHEDULED_TASK: Load scheduler "fdo1" with entities [EventEntity, EventEntity], work=[200*, 0*]
  2: 0x0788 [0x55] WAIT_LOAD_SCHEDULER: Wait for scheduler "fdo1" with entities [EventEntity, EventEntity], work=200*
  3: 0x0797 [0x46] CAMERA_CONTROL: Disable user control
  4: 0x0799 [0x38] SET_CLIENT_EVENT_MODE(mode=19*)
  5: 0x079C [0x92] Tihl Midurhi (ID: 17105500/0x0105025C)->Render.Flags3 ^= 0x01
  6: 0x07A2 [0x92] Mihl Pakorhma (ID: 17105501/0x0105025D)->Render.Flags3 ^= 0x01
  7: 0x07A8 [0x92] Pattna-Ottna (ID: 17105503/0x0105025F)->Render.Flags3 ^= 0x01
  8: 0x07AE [0x92] Rachemace (ID: 17105502/0x0105025E)->Render.Flags3 ^= 0x01
  9: 0x07B4 [0x92] Leadavox (ID: 17105506/0x01050262)->Render.Flags3 ^= 0x01
 10: 0x07BA [0x92] Joseaneaut (ID: 17105499/0x0105025B)->Render.Flags3 ^= 0x01
 11: 0x07C0 [0x4E] SET_ENTITY_HIDE_FLAG: Show Pattna-Ottna (ID: 17105503/0x0105025F)
 12: 0x07C6 [0x4E] SET_ENTITY_HIDE_FLAG: Show Tihl Midurhi (ID: 17105500/0x0105025C)
 13: 0x07CC [0x4E] SET_ENTITY_HIDE_FLAG: Show Mihl Pakorhma (ID: 17105501/0x0105025D)
 14: 0x07D2 [0x4E] SET_ENTITY_HIDE_FLAG: Show Rachemace (ID: 17105502/0x0105025E)
 15: 0x07D8 [0x4E] SET_ENTITY_HIDE_FLAG: Show Joseaneaut (ID: 17105499/0x0105025B)
 16: 0x07DE [0xBA] SET_ENTITY_POSITION(entity_id=Pattna-Ottna (ID: 17105503/0x0105025F), pos_x=96.897*, pos_z=-38.309*, pos_y=1.000*, direction=51.9°*)
 17: 0x07EB [0xBA] SET_ENTITY_POSITION(entity_id=Tihl Midurhi (ID: 17105500/0x0105025C), pos_x=145.583*, pos_z=29.158*, pos_y=0.000*, direction=33.4°*)
 18: 0x07F8 [0xBA] SET_ENTITY_POSITION(entity_id=Mihl Pakorhma (ID: 17105501/0x0105025D), pos_x=144.746*, pos_z=28.718*, pos_y=0.000*, direction=33.4°*)
 19: 0x0805 [0xBA] SET_ENTITY_POSITION(entity_id=Rachemace (ID: 17105502/0x0105025E), pos_x=144.321*, pos_z=27.595*, pos_y=0.000*, direction=77.3°*)
 20: 0x0812 [0xBA] SET_ENTITY_POSITION(entity_id=LocalPlayer, pos_x=143.484*, pos_z=26.358*, pos_y=0.000*, direction=33.4°*)
 21: 0x081F [0xBA] SET_ENTITY_POSITION(entity_id=Joseaneaut (ID: 17105499/0x0105025B), pos_x=147.579*, pos_z=24.561*, pos_y=-0.750*, direction=239.6°*)
 22: 0x082C [0xBA] SET_ENTITY_POSITION(entity_id=Leadavox (ID: 17105506/0x01050262), pos_x=135.718*, pos_z=19.068*, pos_y=0.000*, direction=319.7°*)
 23: 0x0839 [0x80] LOAD_WAIT(entity=Tihl Midurhi (ID: 17105500/0x0105025C))
 24: 0x083E [0x80] LOAD_WAIT(entity=Mihl Pakorhma (ID: 17105501/0x0105025D))
 25: 0x0843 [0x80] LOAD_WAIT(entity=Rachemace (ID: 17105502/0x0105025E))
 26: 0x0848 [0x80] LOAD_WAIT(entity=Pattna-Ottna (ID: 17105503/0x0105025F))
 27: 0x084D [0x80] LOAD_WAIT(entity=Joseaneaut (ID: 17105499/0x0105025B))
 28: 0x0852 [0x4A] Tihl Midurhi (ID: 17105500/0x0105025C) looks at Joseaneaut (ID: 17105499/0x0105025B)
 29: 0x085B [0x4A] Mihl Pakorhma (ID: 17105501/0x0105025D) looks at Joseaneaut (ID: 17105499/0x0105025B)
 30: 0x0864 [0x4A] Rachemace (ID: 17105502/0x0105025E) looks at Joseaneaut (ID: 17105499/0x0105025B)
 31: 0x086D [0x4A] LocalPlayer looks at Joseaneaut (ID: 17105499/0x0105025B)
 32: 0x0876 [0x94] LocalPlayer->Render.Flags3 ^= 0x01
 33: 0x087C [0x94] Joseaneaut (ID: 17105499/0x0105025B)->Render.Flags3 ^= 0x01
 34: 0x0882 [0x94] Tihl Midurhi (ID: 17105500/0x0105025C)->Render.Flags3 ^= 0x01
 35: 0x0888 [0x94] Leadavox (ID: 17105506/0x01050262)->Render.Flags3 ^= 0x01
 36: 0x088E [0x94] Rachemace (ID: 17105502/0x0105025E)->Render.Flags3 ^= 0x01
 37: 0x0894 [0x1C] WAIT(60* ticks)
 38: 0x0897 [0x45] LOAD_SCHEDULED_TASK: Load scheduler "y000" with entities [LocalPlayer, LocalPlayer], work=[372*, 0*]
 39: 0x08A8 [0x45] LOAD_SCHEDULED_TASK: Load scheduler "fdi1" with entities [LocalPlayer, LocalPlayer], work=[200*, 0*]
 40: 0x08B9 [0x27] REQ_SET(priority=0x10, entity_id=Joseaneaut (ID: 17105499/0x0105025B), tag_num=0x03)
 41: 0x08C0 [0x1C] WAIT(60* ticks)
 42: 0x08C3 [0x2B] Joseaneaut (ID: 17105499/0x0105025B) [12624*]:
    → "Rachemace! How glad I am to see you safely returned. You were reported as missing by your unit."
 43: 0x08CA [0x23] WAIT_FOR_DIALOG_INTERACTION
 44: 0x08CB [0x52] END_LOAD_SCHEDULER: End scheduler "y000" with entities [LocalPlayer, LocalPlayer], work=372*
 45: 0x08DA [0x45] LOAD_SCHEDULED_TASK: Load scheduler "y001" with entities [LocalPlayer, LocalPlayer], work=[372*, 0*]
 46: 0x08EB [0x2B] Joseaneaut (ID: 17105499/0x0105025B) [12625*]:
    → "And who might your companions be?"
 47: 0x08F2 [0x23] WAIT_FOR_DIALOG_INTERACTION
 48: 0x08F3 [0x66] LOAD_EXT_SCHEDULER_MAIN: Load scheduler "twa0" with entities [Rachemace (ID: 17105502/0x0105025E), Rachemace (ID: 17105502/0x0105025E)], work=29*
 49: 0x0902 [0x2B] Rachemace (ID: 17105502/0x0105025E) [12626*]:
    → "These fine individuals are citizens of Windurst that extricated me from a rather harrowing predicament."
 50: 0x0909 [0x23] WAIT_FOR_DIALOG_INTERACTION
 51: 0x090A [0x66] LOAD_EXT_SCHEDULER_MAIN: Load scheduler "twa1" with entities [Rachemace (ID: 17105502/0x0105025E), Rachemace (ID: 17105502/0x0105025E)], work=29*
 52: 0x0919 [0x52] END_LOAD_SCHEDULER: End scheduler "y001" with entities [LocalPlayer, LocalPlayer], work=372*
 53: 0x0928 [0x45] LOAD_SCHEDULED_TASK: Load scheduler "y002" with entities [LocalPlayer, LocalPlayer], work=[372*, 0*]
 54: 0x0939 [0x5B] LOAD_EXT_SCHEDULER: Load scheduler "iro0" with entities [Tihl Midurhi (ID: 17105500/0x0105025C), Tihl Midurhi (ID: 17105500/0x0105025C)], work=1328*
 55: 0x0948 [0x4A] Joseaneaut (ID: 17105499/0x0105025B) looks at Tihl Midurhi (ID: 17105500/0x0105025C)
 56: 0x0951 [0x2B] Tihl Midurhi (ID: 17105500/0x0105025C) [12627*]:
    → "So honest and humble..."
 57: 0x0958 [0x23] WAIT_FOR_DIALOG_INTERACTION
 58: 0x0959 [0x79] Mihl Pakorhma (ID: 17105501/0x0105025D) looks at Tihl Midurhi (ID: 17105500/0x0105025C) (Basic look)
 59: 0x0963 [0x2B] Mihl Pakorhma (ID: 17105501/0x0105025D) [12628*]:
    → "Tihl, give it a rrrest..."
 60: 0x096A [0x23] WAIT_FOR_DIALOG_INTERACTION
 61: 0x096B [0x52] END_LOAD_SCHEDULER: End scheduler "y002" with entities [LocalPlayer, LocalPlayer], work=372*
 62: 0x097A [0x45] LOAD_SCHEDULED_TASK: Load scheduler "y003" with entities [LocalPlayer, LocalPlayer], work=[372*, 0*]
 63: 0x098B [0x79] Mihl Pakorhma (ID: 17105501/0x0105025D) looks at Joseaneaut (ID: 17105499/0x0105025B) (Basic look)
 64: 0x0995 [0x6E] Joseaneaut (ID: 17105499/0x0105025B) uses emote 1*
 65: 0x099C [0x99] Wait for Joseaneaut (ID: 17105499/0x0105025B) animation to complete
 66: 0x09A1 [0x2B] Joseaneaut (ID: 17105499/0x0105025B) [12629*]:
    → "Well then, I offer up my most heartfelt gratitude. May the Goddess watch over you all..."
 67: 0x09A8 [0x23] WAIT_FOR_DIALOG_INTERACTION
 68: 0x09A9 [0x66] LOAD_EXT_SCHEDULER_MAIN: Load scheduler "twa0" with entities [Rachemace (ID: 17105502/0x0105025E), Rachemace (ID: 17105502/0x0105025E)], work=29*
 69: 0x09B8 [0x2B] Rachemace (ID: 17105502/0x0105025E) [12630*]:
    → "Joseaneaut, I actually come to you with an urgent request. Would you by any chance be able to decipher this Yagudo rope message?"
 70: 0x09BF [0x23] WAIT_FOR_DIALOG_INTERACTION
 71: 0x09C0 [0x66] LOAD_EXT_SCHEDULER_MAIN: Load scheduler "twa1" with entities [Rachemace (ID: 17105502/0x0105025E), Rachemace (ID: 17105502/0x0105025E)], work=29*
 72: 0x09CF [0x52] END_LOAD_SCHEDULER: End scheduler "y003" with entities [LocalPlayer, LocalPlayer], work=372*
 73: 0x09DE [0x45] LOAD_SCHEDULED_TASK: Load scheduler "y004" with entities [LocalPlayer, LocalPlayer], work=[372*, 0*]
 74: 0x09EF [0x4E] SET_ENTITY_HIDE_FLAG: Show Leadavox (ID: 17105506/0x01050262)
 75: 0x09F5 [0x80] LOAD_WAIT(entity=Leadavox (ID: 17105506/0x01050262))
 76: 0x09FA [0x2B] Joseaneaut (ID: 17105499/0x0105025B) [12631*]:
    → "A rope message? Perhaps my Goblin friend will have some insight. Leada! Could you take a look at this?"
 77: 0x0A01 [0x23] WAIT_FOR_DIALOG_INTERACTION
 78: 0x0A02 [0x99] Wait for Joseaneaut (ID: 17105499/0x0105025B) animation to complete
 79: 0x0A07 [0x4A] Joseaneaut (ID: 17105499/0x0105025B) looks at Leadavox (ID: 17105506/0x01050262)
 80: 0x0A10 [0x27] REQ_SET(priority=0x10, entity_id=Leadavox (ID: 17105506/0x01050262), tag_num=0x02)
 81: 0x0A17 [0x1C] WAIT(10* ticks)
 82: 0x0A1A [0x52] END_LOAD_SCHEDULER: End scheduler "y004" with entities [LocalPlayer, LocalPlayer], work=372*
 83: 0x0A29 [0x45] LOAD_SCHEDULED_TASK: Load scheduler "y005" with entities [LocalPlayer, LocalPlayer], work=[372*, 0*]
 84: 0x0A3A [0x1C] WAIT(60* ticks)
 85: 0x0A3D [0x2B] Leadavox (ID: 17105506/0x01050262) [12632*]:
    → "A gold piece for the guide.t A gold piece for the Goblin.t"
 86: 0x0A44 [0x23] WAIT_FOR_DIALOG_INTERACTION
 87: 0x0A45 [0x52] END_LOAD_SCHEDULER: End scheduler "y005" with entities [LocalPlayer, LocalPlayer], work=372*
 88: 0x0A54 [0x45] LOAD_SCHEDULED_TASK: Load scheduler "y006" with entities [LocalPlayer, LocalPlayer], work=[372*, 0*]
 89: 0x0A65 [0x4A] Joseaneaut (ID: 17105499/0x0105025B) looks at Leadavox (ID: 17105506/0x01050262)
 90: 0x0A6E [0x6F] WAIT_FRAME_DELAY: Yield until WaitTime reaches zero
 91: 0x0A6F [0x76] CHECK_ENTITY_RENDER_FLAGS: Wait until Joseaneaut (ID: 17105499/0x0105025B) Render.Flags0 and Render.Flags3 conditions are met
 92: 0x0A74 [0x66] LOAD_EXT_SCHEDULER_MAIN: Load scheduler "twb0" with entities [Joseaneaut (ID: 17105499/0x0105025B), Joseaneaut (ID: 17105499/0x0105025B)], work=29*
 93: 0x0A83 [0x2B] Joseaneaut (ID: 17105499/0x0105025B) [12633*]:
    → "Can you decipher these knots? It appears to be some sort of Yagudo code..."
 94: 0x0A8A [0x23] WAIT_FOR_DIALOG_INTERACTION
 95: 0x0A8B [0x66] LOAD_EXT_SCHEDULER_MAIN: Load scheduler "twb1" with entities [Joseaneaut (ID: 17105499/0x0105025B), Joseaneaut (ID: 17105499/0x0105025B)], work=29*
 96: 0x0A9A [0x2A] GET_REQ_LEVEL(level=16, entity_id=Leadavox (ID: 17105506/0x01050262))
 97: 0x0AA0 [0x4A] Joseaneaut (ID: 17105499/0x0105025B) looks at Leadavox (ID: 17105506/0x01050262)
 98: 0x0AA9 [0x2B] Leadavox (ID: 17105506/0x01050262) [12634*]:
    → "Leada is as bright as a box of brass tacks. Piece of crab cake. One gold beastcoin each."
 99: 0x0AB0 [0x23] WAIT_FOR_DIALOG_INTERACTION
100: 0x0AB1 [0x52] END_LOAD_SCHEDULER: End scheduler "y006" with entities [LocalPlayer, LocalPlayer], work=372*
101: 0x0AC0 [0x45] LOAD_SCHEDULED_TASK: Load scheduler "y007" with entities [LocalPlayer, LocalPlayer], work=[372*, 0*]
102: 0x0AD1 [0x6E] Joseaneaut (ID: 17105499/0x0105025B) uses emote 7*
103: 0x0AD8 [0x99] Wait for Joseaneaut (ID: 17105499/0x0105025B) animation to complete
104: 0x0ADD [0x2B] Joseaneaut (ID: 17105499/0x0105025B) [12635*]:
    → "Very well, but allow me to collect the fee a little later. It seems our guests are in a hurry."
105: 0x0AE4 [0x23] WAIT_FOR_DIALOG_INTERACTION
106: 0x0AE5 [0x2B] Leadavox (ID: 17105506/0x01050262) [12636*]:
    → "You got no business sense, Josea. Well, I'll get my gold one way or another. Let's see this rope..."
107: 0x0AEC [0x23] WAIT_FOR_DIALOG_INTERACTION
108: 0x0AED [0x5D] SET_MUSIC_VOLUME(volume=0*, fade_time=120*)
109: 0x0AF2 [0x1C] WAIT(60* ticks)
110: 0x0AF5 [0x45] LOAD_SCHEDULED_TASK: Load scheduler "fdo1" with entities [EventEntity, EventEntity], work=[200*, 0*]
111: 0x0B06 [0x55] WAIT_LOAD_SCHEDULER: Wait for scheduler "fdo1" with entities [EventEntity, EventEntity], work=200*
112: 0x0B15 [0x52] END_LOAD_SCHEDULER: End scheduler "y007" with entities [LocalPlayer, LocalPlayer], work=372*
113: 0x0B24 [0x4A] Rachemace (ID: 17105502/0x0105025E) looks at Leadavox (ID: 17105506/0x01050262)
114: 0x0B2D [0x4A] Tihl Midurhi (ID: 17105500/0x0105025C) looks at Leadavox (ID: 17105506/0x01050262)
115: 0x0B36 [0x4A] Mihl Pakorhma (ID: 17105501/0x0105025D) looks at Leadavox (ID: 17105506/0x01050262)
116: 0x0B3F [0x4A] LocalPlayer looks at Leadavox (ID: 17105506/0x01050262)
117: 0x0B48 [0x6B] STOP_AND_IDLE: Tihl Midurhi (ID: 17105500/0x0105025C) stops current action and resets to idle (animation="idl0")
118: 0x0B51 [0x1C] WAIT(90* ticks)
119: 0x0B54 [0x45] LOAD_SCHEDULED_TASK: Load scheduler "y009" with entities [LocalPlayer, LocalPlayer], work=[372*, 0*]
120: 0x0B65 [0x45] LOAD_SCHEDULED_TASK: Load scheduler "fdi1" with entities [LocalPlayer, LocalPlayer], work=[200*, 0*]
121: 0x0B76 [0x5C] MUSIC_CONTROL: Set Idle (Day) music to song 44*
122: 0x0B7A [0x5C] MUSIC_CONTROL: Set Idle (Night) music to song 44*
123: 0x0B7E [0x1C] WAIT(60* ticks)
124: 0x0B81 [0x2B] Leadavox (ID: 17105506/0x01050262) [12637*]:
    → "Hmm...hmm? Somethin' about magic gear?"
125: 0x0B88 [0x23] WAIT_FOR_DIALOG_INTERACTION
126: 0x0B89 [0x52] END_LOAD_SCHEDULER: End scheduler "y009" with entities [LocalPlayer, LocalPlayer], work=372*
127: 0x0B98 [0x45] LOAD_SCHEDULED_TASK: Load scheduler "y010" with entities [LocalPlayer, LocalPlayer], work=[372*, 0*]
128: 0x0BA9 [0x66] LOAD_EXT_SCHEDULER_MAIN: Load scheduler "thk1" with entities [Joseaneaut (ID: 17105499/0x0105025B), Joseaneaut (ID: 17105499/0x0105025B)], work=29*
129: 0x0BB8 [0x2B] Joseaneaut (ID: 17105499/0x0105025B) [12638*]:
    → "Magical equipment?"
130: 0x0BBF [0x23] WAIT_FOR_DIALOG_INTERACTION
131: 0x0BC0 [0x2B] Leadavox (ID: 17105506/0x01050262) [12639*]:
    → "Gear that makes magic useless. The Yagudo have made some, it says."
132: 0x0BC7 [0x23] WAIT_FOR_DIALOG_INTERACTION
133: 0x0BC8 [0x2B] Joseaneaut (ID: 17105499/0x0105025B) [12640*]:
    → "The Yagudo have developed equipment that renders magic ineffective!?"
134: 0x0BCF [0x23] WAIT_FOR_DIALOG_INTERACTION
135: 0x0BD0 [0x66] LOAD_EXT_SCHEDULER_MAIN: Load scheduler "thk2" with entities [Joseaneaut (ID: 17105499/0x0105025B), Joseaneaut (ID: 17105499/0x0105025B)], work=29*
136: 0x0BDF [0x52] END_LOAD_SCHEDULER: End scheduler "y010" with entities [LocalPlayer, LocalPlayer], work=372*
137: 0x0BEE [0x45] LOAD_SCHEDULED_TASK: Load scheduler "y011" with entities [LocalPlayer, LocalPlayer], work=[372*, 0*]
138: 0x0BFF [0x4A] Rachemace (ID: 17105502/0x0105025E) looks at Joseaneaut (ID: 17105499/0x0105025B)
139: 0x0C08 [0x6F] WAIT_FRAME_DELAY: Yield until WaitTime reaches zero
140: 0x0C09 [0x76] CHECK_ENTITY_RENDER_FLAGS: Wait until Rachemace (ID: 17105502/0x0105025E) Render.Flags0 and Render.Flags3 conditions are met
141: 0x0C0E [0x66] LOAD_EXT_SCHEDULER_MAIN: Load scheduler "twa0" with entities [Rachemace (ID: 17105502/0x0105025E), Rachemace (ID: 17105502/0x0105025E)], work=29*
142: 0x0C1D [0x2B] Rachemace (ID: 17105502/0x0105025E) [12641*]:
    → "Magic-resistant armor? San d'Oria also once attempted to create such equipment in our own conflict with Windurst... Have the Yagudo been successful where our artisans have failed!?"
143: 0x0C24 [0x23] WAIT_FOR_DIALOG_INTERACTION
144: 0x0C25 [0x66] LOAD_EXT_SCHEDULER_MAIN: Load scheduler "twa1" with entities [Rachemace (ID: 17105502/0x0105025E), Rachemace (ID: 17105502/0x0105025E)], work=29*
145: 0x0C34 [0x1C] WAIT(30* ticks)
146: 0x0C37 [0x52] END_LOAD_SCHEDULER: End scheduler "y011" with entities [LocalPlayer, LocalPlayer], work=372*
147: 0x0C46 [0x45] LOAD_SCHEDULED_TASK: Load scheduler "y012" with entities [LocalPlayer, LocalPlayer], work=[372*, 0*]
148: 0x0C57 [0x1C] WAIT(30* ticks)
149: 0x0C5A [0x2B] Leadavox (ID: 17105506/0x01050262) [12642*]:
    → "There's more. "Manifest, lead us to the city. Windurst...will fall.""
150: 0x0C61 [0x23] WAIT_FOR_DIALOG_INTERACTION
151: 0x0C62 [0x52] END_LOAD_SCHEDULER: End scheduler "y012" with entities [LocalPlayer, LocalPlayer], work=372*
152: 0x0C71 [0x45] LOAD_SCHEDULED_TASK: Load scheduler "y013" with entities [LocalPlayer, LocalPlayer], work=[372*, 0*]
153: 0x0C82 [0x2B] Joseaneaut (ID: 17105499/0x0105025B) [12643*]:
    → "Windurst will fall? A prophecy, mayhap?"
154: 0x0C89 [0x23] WAIT_FOR_DIALOG_INTERACTION
155: 0x0C8A [0x6E] Tihl Midurhi (ID: 17105500/0x0105025C) uses emote 26*
156: 0x0C91 [0x99] Wait for Tihl Midurhi (ID: 17105500/0x0105025C) animation to complete
157: 0x0C96 [0x2B] Tihl Midurhi (ID: 17105500/0x0105025C) [12644*]:
    → "Ugh, gives me the chills..."
158: 0x0C9D [0x23] WAIT_FOR_DIALOG_INTERACTION
159: 0x0C9E [0x66] LOAD_EXT_SCHEDULER_MAIN: Load scheduler "twa0" with entities [Rachemace (ID: 17105502/0x0105025E), Rachemace (ID: 17105502/0x0105025E)], work=29*
160: 0x0CAD [0x2B] Rachemace (ID: 17105502/0x0105025E) [12645*]:
    → "This is ominous news. It seems those Royal Knight reinforcements are even more vital than our Tarutaru friends anticipated..."
161: 0x0CB4 [0x23] WAIT_FOR_DIALOG_INTERACTION
162: 0x0CB5 [0x66] LOAD_EXT_SCHEDULER_MAIN: Load scheduler "twa1" with entities [Rachemace (ID: 17105502/0x0105025E), Rachemace (ID: 17105502/0x0105025E)], work=29*
163: 0x0CC4 [0x52] END_LOAD_SCHEDULER: End scheduler "y013" with entities [LocalPlayer, LocalPlayer], work=372*
164: 0x0CD3 [0x45] LOAD_SCHEDULED_TASK: Load scheduler "y014" with entities [LocalPlayer, LocalPlayer], work=[372*, 0*]
165: 0x0CE4 [0x4A] Joseaneaut (ID: 17105499/0x0105025B) looks at Rachemace (ID: 17105502/0x0105025E)
166: 0x0CED [0x2B] Joseaneaut (ID: 17105499/0x0105025B) [12646*]:
    → "Reinforcements? What talk is this?"
167: 0x0CF4 [0x23] WAIT_FOR_DIALOG_INTERACTION
168: 0x0CF5 [0x2B] Rachemace (ID: 17105502/0x0105025E) [12647*]:
    → "It seems a request was made recently..."
169: 0x0CFC [0x23] WAIT_FOR_DIALOG_INTERACTION
170: 0x0CFD [0x1C] WAIT(45* ticks)
171: 0x0D00 [0x45] LOAD_SCHEDULED_TASK: Load scheduler "fdo1" with entities [EventEntity, EventEntity], work=[200*, 0*]
172: 0x0D11 [0x55] WAIT_LOAD_SCHEDULER: Wait for scheduler "fdo1" with entities [EventEntity, EventEntity], work=200*
173: 0x0D20 [0x52] END_LOAD_SCHEDULER: End scheduler "y014" with entities [LocalPlayer, LocalPlayer], work=372*
174: 0x0D2F [0x4E] SET_ENTITY_HIDE_FLAG: Hide Leadavox (ID: 17105506/0x01050262)
175: 0x0D35 [0x4A] LocalPlayer looks at Joseaneaut (ID: 17105499/0x0105025B)
176: 0x0D3E [0x1C] WAIT(60* ticks)
177: 0x0D41 [0x45] LOAD_SCHEDULED_TASK: Load scheduler "y015" with entities [LocalPlayer, LocalPlayer], work=[372*, 0*]
178: 0x0D52 [0x45] LOAD_SCHEDULED_TASK: Load scheduler "fdi1" with entities [LocalPlayer, LocalPlayer], work=[200*, 0*]
179: 0x0D63 [0x1C] WAIT(60* ticks)
180: 0x0D66 [0x2B] Joseaneaut (ID: 17105499/0x0105025B) [12648*]:
    → "And General Cousseraux refused this request? How callous..."
181: 0x0D6D [0x23] WAIT_FOR_DIALOG_INTERACTION
182: 0x0D6E [0x52] END_LOAD_SCHEDULER: End scheduler "y015" with entities [LocalPlayer, LocalPlayer], work=372*
183: 0x0D7D [0x45] LOAD_SCHEDULED_TASK: Load scheduler "y016" with entities [LocalPlayer, LocalPlayer], work=[372*, 0*]
184: 0x0D8E [0x66] LOAD_EXT_SCHEDULER_MAIN: Load scheduler "twa0" with entities [Rachemace (ID: 17105502/0x0105025E), Rachemace (ID: 17105502/0x0105025E)], work=29*
185: 0x0D9D [0x2B] Rachemace (ID: 17105502/0x0105025E) [12649*]:
    → "Joseaneaut. I mean to somehow convince the general to reconsider his decision to lend troops to our allies."
186: 0x0DA4 [0x23] WAIT_FOR_DIALOG_INTERACTION
187: 0x0DA5 [0x2B] Rachemace (ID: 17105502/0x0105025E) [12650*]:
    → "And if it means aiding my newfound saviors, I will travel to Windurst alone, at the cost of my knighthood..."
188: 0x0DAC [0x23] WAIT_FOR_DIALOG_INTERACTION
189: 0x0DAD [0x66] LOAD_EXT_SCHEDULER_MAIN: Load scheduler "twa1" with entities [Rachemace (ID: 17105502/0x0105025E), Rachemace (ID: 17105502/0x0105025E)], work=29*
190: 0x0DBC [0x52] END_LOAD_SCHEDULER: End scheduler "y016" with entities [LocalPlayer, LocalPlayer], work=372*
191: 0x0DCB [0x45] LOAD_SCHEDULED_TASK: Load scheduler "y017" with entities [LocalPlayer, LocalPlayer], work=[372*, 0*]
192: 0x0DDC [0x4A] Joseaneaut (ID: 17105499/0x0105025B) looks at LocalPlayer
193: 0x0DE5 [0x6F] WAIT_FRAME_DELAY: Yield until WaitTime reaches zero
194: 0x0DE6 [0x76] CHECK_ENTITY_RENDER_FLAGS: Wait until Joseaneaut (ID: 17105499/0x0105025B) Render.Flags0 and Render.Flags3 conditions are met
195: 0x0DEB [0x6E] Joseaneaut (ID: 17105499/0x0105025B) uses emote 7*
196: 0x0DF2 [0x99] Wait for Joseaneaut (ID: 17105499/0x0105025B) animation to complete
197: 0x0DF7 [0x2B] Joseaneaut (ID: 17105499/0x0105025B) [12651*]:
    → "Though I hold little sway in military matters, I shall add my voice to your plea."
198: 0x0DFE [0x23] WAIT_FOR_DIALOG_INTERACTION
199: 0x0DFF [0x2B] Joseaneaut (ID: 17105499/0x0105025B) [12652*]:
    → "And I think it best that you return to Windurst. It will not help our cause if we are thought part of some Tarutaru conspiracy."
200: 0x0E06 [0x23] WAIT_FOR_DIALOG_INTERACTION
201: 0x0E07 [0x6E] Tihl Midurhi (ID: 17105500/0x0105025C) uses emote 7*
202: 0x0E0E [0x99] Wait for Tihl Midurhi (ID: 17105500/0x0105025C) animation to complete
203: 0x0E13 [0x6E] Mihl Pakorhma (ID: 17105501/0x0105025D) uses emote 7*
204: 0x0E1A [0x99] Wait for Mihl Pakorhma (ID: 17105501/0x0105025D) animation to complete
205: 0x0E1F [0x2B] Tihl Midurhi (ID: 17105500/0x0105025C) [12653*]:
    → "I'll never understand politics..."
206: 0x0E26 [0x23] WAIT_FOR_DIALOG_INTERACTION
207: 0x0E27 [0x52] END_LOAD_SCHEDULER: End scheduler "y017" with entities [LocalPlayer, LocalPlayer], work=372*
208: 0x0E36 [0x45] LOAD_SCHEDULED_TASK: Load scheduler "y018" with entities [LocalPlayer, LocalPlayer], work=[372*, 0*]
209: 0x0E47 [0x03] Work_Zone[2] = 751*
210: 0x0E4C [0x66] LOAD_EXT_SCHEDULER_MAIN: Load scheduler "twa0" with entities [Joseaneaut (ID: 17105499/0x0105025B), Joseaneaut (ID: 17105499/0x0105025B)], work=29*
211: 0x0E5B [0x2B] Joseaneaut (ID: 17105499/0x0105025B) [12654*]:
    → "One moment. Please accept this $0 as a token of my gratitude. May it alleviate some of the cost of your journey."
212: 0x0E62 [0x23] WAIT_FOR_DIALOG_INTERACTION
213: 0x0E63 [0x66] LOAD_EXT_SCHEDULER_MAIN: Load scheduler "twa1" with entities [Joseaneaut (ID: 17105499/0x0105025B), Joseaneaut (ID: 17105499/0x0105025B)], work=29*
214: 0x0E72 [0x1C] WAIT(60* ticks)
215: 0x0E75 [0x5D] SET_MUSIC_VOLUME(volume=0*, fade_time=120*)
216: 0x0E7A [0x45] LOAD_SCHEDULED_TASK: Load scheduler "fdo1" with entities [EventEntity, EventEntity], work=[200*, 0*]
217: 0x0E8B [0x55] WAIT_LOAD_SCHEDULER: Wait for scheduler "fdo1" with entities [EventEntity, EventEntity], work=200*
218: 0x0E9A [0x52] END_LOAD_SCHEDULER: End scheduler "y018" with entities [LocalPlayer, LocalPlayer], work=372*
219: 0x0EA9 [0x4E] SET_ENTITY_HIDE_FLAG: Hide Joseaneaut (ID: 17105499/0x0105025B)
220: 0x0EAF [0x4E] SET_ENTITY_HIDE_FLAG: Hide Rachemace (ID: 17105502/0x0105025E)
221: 0x0EB5 [0x1C] WAIT(60* ticks)
222: 0x0EB8 [0xBA] SET_ENTITY_POSITION(entity_id=Tihl Midurhi (ID: 17105500/0x0105025C), pos_x=144.540*, pos_z=29.584*, pos_y=0.000*, direction=281.8°*)
223: 0x0EC5 [0xBA] SET_ENTITY_POSITION(entity_id=Mihl Pakorhma (ID: 17105501/0x0105025D), pos_x=146.063*, pos_z=28.150*, pos_y=0.000*, direction=281.6°*)
224: 0x0ED2 [0xBA] SET_ENTITY_POSITION(entity_id=LocalPlayer, pos_x=144.246*, pos_z=26.920*, pos_y=0.000*, direction=283.8°*)
225: 0x0EDF [0x45] LOAD_SCHEDULED_TASK: Load scheduler "y019" with entities [LocalPlayer, LocalPlayer], work=[372*, 0*]
226: 0x0EF0 [0x45] LOAD_SCHEDULED_TASK: Load scheduler "fdi1" with entities [LocalPlayer, LocalPlayer], work=[200*, 0*]
227: 0x0F01 [0x5C] MUSIC_CONTROL: Set Idle (Day) music to song 254*
228: 0x0F05 [0x5C] MUSIC_CONTROL: Set Idle (Night) music to song 254*
229: 0x0F09 [0x27] REQ_SET(priority=0x10, entity_id=Tihl Midurhi (ID: 17105500/0x0105025C), tag_num=0x04)
230: 0x0F10 [0x27] REQ_SET(priority=0x10, entity_id=Mihl Pakorhma (ID: 17105501/0x0105025D), tag_num=0x04)
231: 0x0F17 [0x1C] WAIT(20* ticks)
232: 0x0F1A [0x27] REQ_SET(priority=0x10, entity_id=LocalPlayer, tag_num=0x14)
233: 0x0F21 [0x1C] WAIT(30* ticks)
234: 0x0F24 [0x2B] Mihl Pakorhma (ID: 17105501/0x0105025D) [12655*]:
    → "Looks like your nose for trrrouble landed us right in the thick of it, Tihl."
235: 0x0F2B [0x23] WAIT_FOR_DIALOG_INTERACTION
236: 0x0F2C [0x2B] Mihl Pakorhma (ID: 17105501/0x0105025D) [12656*]:
    → "Is Windurst going to come through this okay, you think? Maybe I should be making plans to board the next ship out..."
237: 0x0F33 [0x23] WAIT_FOR_DIALOG_INTERACTION
238: 0x0F34 [0x2B] Tihl Midurhi (ID: 17105500/0x0105025C) [12657*]:
    → "Bite your tongue. Magic-rrresistant armor isn't gonna help the Yagudo against Mithran blades and arrows!"
239: 0x0F3B [0x23] WAIT_FOR_DIALOG_INTERACTION
240: 0x0F3C [0x2A] GET_REQ_LEVEL(level=16, entity_id=Tihl Midurhi (ID: 17105500/0x0105025C))
241: 0x0F42 [0x52] END_LOAD_SCHEDULER: End scheduler "y019" with entities [LocalPlayer, LocalPlayer], work=372*
242: 0x0F51 [0x45] LOAD_SCHEDULED_TASK: Load scheduler "y020" with entities [LocalPlayer, LocalPlayer], work=[372*, 0*]
243: 0x0F62 [0x2B] Mihl Pakorhma (ID: 17105501/0x0105025D) [12658*]:
    → "I guess you're rrright. Hmm, I wonder if Rachemace and his friar buddy will be alright."
244: 0x0F69 [0x23] WAIT_FOR_DIALOG_INTERACTION
245: 0x0F6A [0x2B] Tihl Midurhi (ID: 17105500/0x0105025C) [12659*]:
    → "I'm sure they'll be fine. I mean, how could anyone rrresist the charms of two such handsome lads?"
246: 0x0F71 [0x23] WAIT_FOR_DIALOG_INTERACTION
247: 0x0F72 [0x52] END_LOAD_SCHEDULER: End scheduler "y020" with entities [LocalPlayer, LocalPlayer], work=372*
248: 0x0F81 [0x45] LOAD_SCHEDULED_TASK: Load scheduler "y021" with entities [LocalPlayer, LocalPlayer], work=[372*, 0*]
249: 0x0F92 [0x2A] GET_REQ_LEVEL(level=16, entity_id=Tihl Midurhi (ID: 17105500/0x0105025C))
250: 0x0F98 [0x6E] Mihl Pakorhma (ID: 17105501/0x0105025D) uses emote 32*
251: 0x0F9F [0x99] Wait for Mihl Pakorhma (ID: 17105501/0x0105025D) animation to complete
252: 0x0FA4 [0x2B] Mihl Pakorhma (ID: 17105501/0x0105025D) [12660*]:
    → "Those Royal Knights are a stubborn lot according to the Tarutaru. I hear they put people to the sword for stepping out of line."
253: 0x0FAB [0x23] WAIT_FOR_DIALOG_INTERACTION
254: 0x0FAC [0x4A] Tihl Midurhi (ID: 17105500/0x0105025C) looks at Mihl Pakorhma (ID: 17105501/0x0105025D)
255: 0x0FB5 [0x6F] WAIT_FRAME_DELAY: Yield until WaitTime reaches zero
256: 0x0FB6 [0x76] CHECK_ENTITY_RENDER_FLAGS: Wait until Tihl Midurhi (ID: 17105500/0x0105025C) Render.Flags0 and Render.Flags3 conditions are met
257: 0x0FBB [0x6E] Tihl Midurhi (ID: 17105500/0x0105025C) uses emote 38*
258: 0x0FC2 [0x99] Wait for Tihl Midurhi (ID: 17105500/0x0105025C) animation to complete
259: 0x0FC7 [0x2B] Tihl Midurhi (ID: 17105500/0x0105025C) [12661*]:
    → "P-put them to the sword!? But that would be such a waste!"
260: 0x0FCE [0x23] WAIT_FOR_DIALOG_INTERACTION
261: 0x0FCF [0x2B] Tihl Midurhi (ID: 17105500/0x0105025C) [12662*]:
    → "We gotta hurry back to Karugo-Narugo and rrreport to the boss!"
262: 0x0FD6 [0x23] WAIT_FOR_DIALOG_INTERACTION
263: 0x0FD7 [0x52] END_LOAD_SCHEDULER: End scheduler "y021" with entities [LocalPlayer, LocalPlayer], work=372*
264: 0x0FE6 [0x45] LOAD_SCHEDULED_TASK: Load scheduler "y022" with entities [LocalPlayer, LocalPlayer], work=[372*, 0*]
265: 0x0FF7 [0x4A] Mihl Pakorhma (ID: 17105501/0x0105025D) looks at LocalPlayer
266: 0x1000 [0x6E] LocalPlayer uses emote 7*
267: 0x1007 [0x99] Wait for LocalPlayer animation to complete
268: 0x100C [0x2B] Mihl Pakorhma (ID: 17105501/0x0105025D) [12663*]:
    → "Yeah, about time we were heading out. We'll see you there, <Player>!"
269: 0x1013 [0x23] WAIT_FOR_DIALOG_INTERACTION
270: 0x1014 [0x1C] WAIT(60* ticks)
271: 0x1017 [0x45] LOAD_SCHEDULED_TASK: Load scheduler "fdo1" with entities [EventEntity, EventEntity], work=[200*, 0*]
272: 0x1028 [0x55] WAIT_LOAD_SCHEDULER: Wait for scheduler "fdo1" with entities [EventEntity, EventEntity], work=200*
273: 0x1037 [0x52] END_LOAD_SCHEDULER: End scheduler "op13" with entities [LocalPlayer, LocalPlayer], work=368*
274: 0x1046 [0x9A] WAIT_MUSIC_SERVER()
275: 0x1047 [0x46] CAMERA_CONTROL: Restore default settings
276: 0x1049 [0x45] LOAD_SCHEDULED_TASK: Load scheduler "qstc" with entities [EventEntity, EventEntity], work=[201*, 0*]
277: 0x105A [0x45] LOAD_SCHEDULED_TASK: Load scheduler "fdi2" with entities [LocalPlayer, LocalPlayer], work=[200*, 0*]
278: 0x106B [0x21] END_EVENT
279: 0x106C [0x00] END_REQSTACK()
```

### Event 64

#### Metadata

| Field        | Value    |
|--------------|----------|
| Entrypoint   | 0x106D   |
| Data Size    | 22 bytes |
| Instructions | 6        |

```
      00 01 02 03 04 05 06 07  08 09 0A 0B 0C 0D 0E 0F
      -- -- -- -- -- -- -- --  -- -- -- -- -- -- -- --
1060:                                         4A 5B 02               J[.
1070: 05 01 F0 FF FF 7F 1C 1D  80 2B 5B 02 05 01 A5 80  .........+[.....
1080: 23 21 00                                          #!.             
```

#### Opcodes

```
  0: 0x106D [0x4A] Joseaneaut (ID: 17105499/0x0105025B) looks at LocalPlayer
  1: 0x1076 [0x1C] WAIT(30* ticks)
  2: 0x1079 [0x2B] Joseaneaut (ID: 17105499/0x0105025B) [12664*]:
    → "Great Altana, grant your mercy to all your children..."
  3: 0x1080 [0x23] WAIT_FOR_DIALOG_INTERACTION
  4: 0x1081 [0x21] END_EVENT
  5: 0x1082 [0x00] END_REQSTACK()
```
