# 17105674

## Common Data

| Field            | Value                            |
|------------------|----------------------------------|
| Zone             | Southern San d'Oria [S] (ID: 80) |
| Block Size       | 24244 bytes                      |
| Total Events     | 5                                |
| References Count | 434                              |

## List of Events

| Event ID              | Entrypoint   |   Size |   Instructions |
|-----------------------|--------------|--------|----------------|
| [65535](#event-65535) | 0x0000       |      1 |              1 |
| [149](#event-149)     | 0x0001       |  12210 |           1471 |
| [170](#event-170)     | 0x2FB3       |   2002 |            221 |
| [171](#event-171)     | 0x3785       |   1947 |            223 |
| [172](#event-172)     | 0x3F20       |   6309 |            743 |

## DAT References (imed_data)

|   Index | Hex Value   |   Dec Value |
|---------|-------------|-------------|
|       0 | 0x0013      |          19 |
|       1 | 0x0001      |           1 |
|       2 | 0x0201      |         513 |
|       3 | 0x0000      |           0 |
|       4 | 0x0003      |           3 |
|       5 | 0x0004      |           4 |
|       6 | 0x0008      |           8 |
|       7 | 0x0002      |           2 |
|       8 | 0x00C8      |         200 |
|       9 | 0x001E      |          30 |
|      10 | 0x377B      |       14203 |
|      11 | 0x0A90      |        2704 |
|      12 | 0x377C      |       14204 |
|      13 | 0x000A      |          10 |
|      14 | 0x003C      |          60 |
|      15 | 0x0050      |          80 |
|      16 | 0x000F      |          15 |
|      17 | 0x0014      |          20 |
|      18 | 0x00E6      |         230 |
|      19 | 0x0064      |         100 |
|      20 | 0xFFFFBCED  |  4294950125 |
|      21 | 0xFFFFF191  |  4294963601 |
|      22 | 0x07D0      |        2000 |
|      23 | 0x0857      |        2135 |
|      24 | 0x0AEB      |        2795 |
|      25 | 0x0005      |           5 |
|      26 | 0x0006      |           6 |
|      27 | 0x0032      |          50 |
|      28 | 0x377D      |       14205 |
|      29 | 0x0078      |         120 |
|      30 | 0x377E      |       14206 |
|      31 | 0x00A0      |         160 |
|      32 | 0x0046      |          70 |
|      33 | 0x377F      |       14207 |
|      34 | 0x001D      |          29 |
|      35 | 0x006E      |         110 |
|      36 | 0x0082      |         130 |
|      37 | 0x3780      |       14208 |
|      38 | 0x00AA      |         170 |
|      39 | 0x3781      |       14209 |
|      40 | 0x0028      |          40 |
|      41 | 0x3782      |       14210 |
|      42 | 0x0007      |           7 |
|      43 | 0x008C      |         140 |
|      44 | 0x051F      |        1311 |
|      45 | 0x3783      |       14211 |
|      46 | 0x0015      |          21 |
|      47 | 0x076C      |        1900 |
|      48 | 0x005A      |          90 |
|      49 | 0x109A      |        4250 |
|      50 | 0x3784      |       14212 |
|      51 | 0x3785      |       14213 |
|      52 | 0x3786      |       14214 |
|      53 | 0x0023      |          35 |
|      54 | 0x0258      |         600 |
|      55 | 0x0202      |         514 |
|      56 | 0x0244      |         580 |
|      57 | 0x00B4      |         180 |
|      58 | 0x00FA      |         250 |
|      59 | 0x394B      |       14667 |
|      60 | 0x153BE     |       86974 |
|      61 | 0xFFFFFF39  |  4294967097 |
|      62 | 0x032B      |         811 |
|      63 | 0x3535      |       13621 |
|      64 | 0x14E39     |       85561 |
|      65 | 0x009F      |         159 |
|      66 | 0x3331      |       13105 |
|      67 | 0x3787      |       14215 |
|      68 | 0x3788      |       14216 |
|      69 | 0x3789      |       14217 |
|      70 | 0x378A      |       14218 |
|      71 | 0x378B      |       14219 |
|      72 | 0x0584      |        1412 |
|      73 | 0x378C      |       14220 |
|      74 | 0x378D      |       14221 |
|      75 | 0x378E      |       14222 |
|      76 | 0x3CE5      |       15589 |
|      77 | 0x1465E     |       83550 |
|      78 | 0x378F      |       14223 |
|      79 | 0x3790      |       14224 |
|      80 | 0x3791      |       14225 |
|      81 | 0x3792      |       14226 |
|      82 | 0x09C4      |        2500 |
|      83 | 0xFFFFD01F  |  4294955039 |
|      84 | 0xA64F      |       42575 |
|      85 | 0xFFFFF449  |  4294964297 |
|      86 | 0x3793      |       14227 |
|      87 | 0x3794      |       14228 |
|      88 | 0x3795      |       14229 |
|      89 | 0x0096      |         150 |
|      90 | 0xFFFFBF5A  |  4294950746 |
|      91 | 0xBDD7      |       48599 |
|      92 | 0xFFFFF448  |  4294964296 |
|      93 | 0x06A4      |        1700 |
|      94 | 0x3796      |       14230 |
|      95 | 0x3797      |       14231 |
|      96 | 0x3798      |       14232 |
|      97 | 0x3799      |       14233 |
|      98 | 0x379A      |       14234 |
|      99 | 0x379B      |       14235 |
|     100 | 0x379C      |       14236 |
|     101 | 0x379D      |       14237 |
|     102 | 0x379E      |       14238 |
|     103 | 0x379F      |       14239 |
|     104 | 0x37A0      |       14240 |
|     105 | 0x37A1      |       14241 |
|     106 | 0x37A2      |       14242 |
|     107 | 0x0FA0      |        4000 |
|     108 | 0x37A3      |       14243 |
|     109 | 0x00F0      |         240 |
|     110 | 0x37A4      |       14244 |
|     111 | 0x00B9      |         185 |
|     112 | 0x37A5      |       14245 |
|     113 | 0x37A6      |       14246 |
|     114 | 0x09DF      |        2527 |
|     115 | 0x0B11      |        2833 |
|     116 | 0x4637      |       17975 |
|     117 | 0x14932     |       84274 |
|     118 | 0x0578      |        1400 |
|     119 | 0x37A7      |       14247 |
|     120 | 0x37A8      |       14248 |
|     121 | 0x37A9      |       14249 |
|     122 | 0x3E28      |       15912 |
|     123 | 0x1411C     |       82204 |
|     124 | 0x37AA      |       14250 |
|     125 | 0x37AB      |       14251 |
|     126 | 0x400A      |       16394 |
|     127 | 0x141A9     |       82345 |
|     128 | 0x0DAC      |        3500 |
|     129 | 0x012C      |         300 |
|     130 | 0x37AC      |       14252 |
|     131 | 0x00AF      |         175 |
|     132 | 0x37AD      |       14253 |
|     133 | 0x37AE      |       14254 |
|     134 | 0x0024      |          36 |
|     135 | 0x401B      |       16411 |
|     136 | 0x14577     |       83319 |
|     137 | 0x43AB      |       17323 |
|     138 | 0x14ED2     |       85714 |
|     139 | 0x03E8      |        1000 |
|     140 | 0x0118      |         280 |
|     141 | 0x00D2      |         210 |
|     142 | 0x37AF      |       14255 |
|     143 | 0x37B0      |       14256 |
|     144 | 0x00BE      |         190 |
|     145 | 0x0856      |        2134 |
|     146 | 0x37B1      |       14257 |
|     147 | 0x37B2      |       14258 |
|     148 | 0x37B3      |       14259 |
|     149 | 0x05DC      |        1500 |
|     150 | 0x37B4      |       14260 |
|     151 | 0x37B5      |       14261 |
|     152 | 0x37B6      |       14262 |
|     153 | 0x37B7      |       14263 |
|     154 | 0x0019      |          25 |
|     155 | 0x37B9      |       14265 |
|     156 | 0x37BA      |       14266 |
|     157 | 0x0854      |        2132 |
|     158 | 0x37BB      |       14267 |
|     159 | 0x37BC      |       14268 |
|     160 | 0x37BD      |       14269 |
|     161 | 0x37BE      |       14270 |
|     162 | 0x37BF      |       14271 |
|     163 | 0x37C0      |       14272 |
|     164 | 0x0088      |         136 |
|     165 | 0x00FF      |         255 |
|     166 | 0x000C      |          12 |
|     167 | 0xFFFF2E2E  |  4294913582 |
|     168 | 0xFFFCF270  |  4294767216 |
|     169 | 0xFFFF65F8  |  4294927864 |
|     170 | 0x0092      |         146 |
|     171 | 0xFFFF2CBC  |  4294913212 |
|     172 | 0xFFFCF4C6  |  4294767814 |
|     173 | 0xFFFF6424  |  4294927396 |
|     174 | 0x08B4      |        2228 |
|     175 | 0x05B4      |        1460 |
|     176 | 0x0203      |         515 |
|     177 | 0x00B1      |         177 |
|     178 | 0x0136      |         310 |
|     179 | 0x37C1      |       14273 |
|     180 | 0x37C2      |       14274 |
|     181 | 0x189B1     |      100785 |
|     182 | 0x19291     |      103057 |
|     183 | 0x03E7      |         999 |
|     184 | 0x0C2F      |        3119 |
|     185 | 0x1877C     |      100220 |
|     186 | 0x189E4     |      100836 |
|     187 | 0x0CA3      |        3235 |
|     188 | 0x17F49     |       98121 |
|     189 | 0x18A0E     |      100878 |
|     190 | 0x1BE49     |      114249 |
|     191 | 0x19A74     |      105076 |
|     192 | 0xFFFFFB50  |  4294966096 |
|     193 | 0x0CA1      |        3233 |
|     194 | 0x1C8A2     |      116898 |
|     195 | 0x194AC     |      103596 |
|     196 | 0x1C01F     |      114719 |
|     197 | 0x1930D     |      103181 |
|     198 | 0x1C8AA     |      116906 |
|     199 | 0x194E9     |      103657 |
|     200 | 0x1C00D     |      114701 |
|     201 | 0x19390     |      103312 |
|     202 | 0x1BE7C     |      114300 |
|     203 | 0x19AFB     |      105211 |
|     204 | 0x0850      |        2128 |
|     205 | 0x01EB      |         491 |
|     206 | 0x04E4      |        1252 |
|     207 | 0x08F5      |        2293 |
|     208 | 0x0AF2      |        2802 |
|     209 | 0x0320      |         800 |
|     210 | 0x00E7      |         231 |
|     211 | 0x4C93      |       19603 |
|     212 | 0x1584C     |       88140 |
|     213 | 0x01F4      |         500 |
|     214 | 0x54BD      |       21693 |
|     215 | 0x1531A     |       86810 |
|     216 | 0x4DDF      |       19935 |
|     217 | 0x14C7A     |       85114 |
|     218 | 0x0BB8      |        3000 |
|     219 | 0x37C3      |       14275 |
|     220 | 0x37C4      |       14276 |
|     221 | 0x37C5      |       14277 |
|     222 | 0x37C6      |       14278 |
|     223 | 0x37C7      |       14279 |
|     224 | 0x37C8      |       14280 |
|     225 | 0x0037      |          55 |
|     226 | 0x37C9      |       14281 |
|     227 | 0x37CA      |       14282 |
|     228 | 0x051E      |        1310 |
|     229 | 0x37CB      |       14283 |
|     230 | 0x37CC      |       14284 |
|     231 | 0x37CD      |       14285 |
|     232 | 0x37CE      |       14286 |
|     233 | 0x0855      |        2133 |
|     234 | 0x004B      |          75 |
|     235 | 0x37CF      |       14287 |
|     236 | 0x085B      |        2139 |
|     237 | 0x37D0      |       14288 |
|     238 | 0x37D1      |       14289 |
|     239 | 0x09CD      |        2509 |
|     240 | 0x0073      |         115 |
|     241 | 0x010E      |         270 |
|     242 | 0x0B1B      |        2843 |
|     243 | 0x37D2      |       14290 |
|     244 | 0xFFFAC6D6  |  4294624982 |
|     245 | 0xFFFE6AF2  |  4294863602 |
|     246 | 0xFFFEC22D  |  4294885933 |
|     247 | 0x37D3      |       14291 |
|     248 | 0x37B8      |       14264 |
|     249 | 0x1A88A     |      108682 |
|     250 | 0xFFFF2AC9  |  4294912713 |
|     251 | 0x09FE      |        2558 |
|     252 | 0x19ACB     |      105163 |
|     253 | 0xFFFF310C  |  4294914316 |
|     254 | 0x0A3C      |        2620 |
|     255 | 0x1A668     |      108136 |
|     256 | 0xFFFF353E  |  4294915390 |
|     257 | 0x0A04      |        2564 |
|     258 | 0x1AA97     |      109207 |
|     259 | 0xFFFF410E  |  4294918414 |
|     260 | 0x09D0      |        2512 |
|     261 | 0x18ED4     |      102100 |
|     262 | 0xFFFF4D8A  |  4294921610 |
|     263 | 0xFFFFF9C0  |  4294965696 |
|     264 | 0x09FD      |        2557 |
|     265 | 0x70C0      |       28864 |
|     266 | 0xFFFFBA0E  |  4294949390 |
|     267 | 0x07CF      |        1999 |
|     268 | 0x0CDB      |        3291 |
|     269 | 0x0223      |         547 |
|     270 | 0x1915F     |      102751 |
|     271 | 0xFFFF4441  |  4294919233 |
|     272 | 0x18BC4     |      101316 |
|     273 | 0xFFFF4A06  |  4294920710 |
|     274 | 0x09FF      |        2559 |
|     275 | 0x0708      |        1800 |
|     276 | 0x0898      |        2200 |
|     277 | 0x002D      |          45 |
|     278 | 0xEB04      |       60164 |
|     279 | 0xFFFF985F  |  4294940767 |
|     280 | 0xFFFFCDD1  |  4294954449 |
|     281 | 0xFFFF8D9C  |  4294938012 |
|     282 | 0x0576      |        1398 |
|     283 | 0x073A      |        1850 |
|     284 | 0xFFFFC40B  |  4294951947 |
|     285 | 0xFFFF8960  |  4294936928 |
|     286 | 0x0BF9      |        3065 |
|     287 | 0x09E9      |        2537 |
|     288 | 0x388A      |       14474 |
|     289 | 0x388B      |       14475 |
|     290 | 0x0399      |         921 |
|     291 | 0x388C      |       14476 |
|     292 | 0x388D      |       14477 |
|     293 | 0x388E      |       14478 |
|     294 | 0x388F      |       14479 |
|     295 | 0x3890      |       14480 |
|     296 | 0x3891      |       14481 |
|     297 | 0x3892      |       14482 |
|     298 | 0x3893      |       14483 |
|     299 | 0x3894      |       14484 |
|     300 | 0x3895      |       14485 |
|     301 | 0x3896      |       14486 |
|     302 | 0x0016      |          22 |
|     303 | 0x3897      |       14487 |
|     304 | 0x3898      |       14488 |
|     305 | 0x3899      |       14489 |
|     306 | 0xFFFFCB77  |  4294953847 |
|     307 | 0xFFFF8D95  |  4294938005 |
|     308 | 0x06F5      |        1781 |
|     309 | 0xFFFFD233  |  4294955571 |
|     310 | 0xFFFFAB52  |  4294945618 |
|     311 | 0x06F4      |        1780 |
|     312 | 0xFFFFCE7C  |  4294954620 |
|     313 | 0xFFFFB058  |  4294946904 |
|     314 | 0xFFFFDF3F  |  4294958911 |
|     315 | 0xFFFF915E  |  4294938974 |
|     316 | 0x05D6      |        1494 |
|     317 | 0x389B      |       14491 |
|     318 | 0x389C      |       14492 |
|     319 | 0x389D      |       14493 |
|     320 | 0x389E      |       14494 |
|     321 | 0x389F      |       14495 |
|     322 | 0x08C1      |        2241 |
|     323 | 0x38A0      |       14496 |
|     324 | 0x38A1      |       14497 |
|     325 | 0x38A2      |       14498 |
|     326 | 0x38A3      |       14499 |
|     327 | 0x38A5      |       14501 |
|     328 | 0x38A4      |       14500 |
|     329 | 0x38A6      |       14502 |
|     330 | 0x0012      |          18 |
|     331 | 0x38A7      |       14503 |
|     332 | 0x38A8      |       14504 |
|     333 | 0x38A9      |       14505 |
|     334 | 0x38AA      |       14506 |
|     335 | 0x38AB      |       14507 |
|     336 | 0x38AC      |       14508 |
|     337 | 0x015E      |         350 |
|     338 | 0x38AD      |       14509 |
|     339 | 0x38AE      |       14510 |
|     340 | 0x38AF      |       14511 |
|     341 | 0x38B0      |       14512 |
|     342 | 0x38B1      |       14513 |
|     343 | 0x38B2      |       14514 |
|     344 | 0x38B3      |       14515 |
|     345 | 0x38B4      |       14516 |
|     346 | 0x38B5      |       14517 |
|     347 | 0x38B6      |       14518 |
|     348 | 0x38B7      |       14519 |
|     349 | 0x38B8      |       14520 |
|     350 | 0x08C2      |        2242 |
|     351 | 0x38B9      |       14521 |
|     352 | 0x001A      |          26 |
|     353 | 0x38BA      |       14522 |
|     354 | 0x0EC5      |        3781 |
|     355 | 0x08C5      |        2245 |
|     356 | 0xFFFFC91A  |  4294953242 |
|     357 | 0xFFFF8C58  |  4294937688 |
|     358 | 0x0190      |         400 |
|     359 | 0xFFFFCDF4  |  4294954484 |
|     360 | 0xFFFF8D5C  |  4294937948 |
|     361 | 0x00C9      |         201 |
|     362 | 0x00D7      |         215 |
|     363 | 0x0DB7      |        3511 |
|     364 | 0xA139      |       41273 |
|     365 | 0xFFFFF830  |  4294965296 |
|     366 | 0x0C4D      |        3149 |
|     367 | 0x0AE7      |        2791 |
|     368 | 0xA498      |       42136 |
|     369 | 0xFFFFF831  |  4294965297 |
|     370 | 0x0C80      |        3200 |
|     371 | 0x1275      |        4725 |
|     372 | 0x9C91      |       40081 |
|     373 | 0xFFFFF818  |  4294965272 |
|     374 | 0x0040      |          64 |
|     375 | 0x0F8B      |        3979 |
|     376 | 0xADA8      |       44456 |
|     377 | 0x044C      |        1100 |
|     378 | 0x00E9      |         233 |
|     379 | 0x0174      |         372 |
|     380 | 0xFFFFCBE6  |  4294953958 |
|     381 | 0xFFFFF2A9  |  4294963881 |
|     382 | 0xFFFFC946  |  4294953286 |
|     383 | 0xFFFFEE67  |  4294962791 |
|     384 | 0xFFFFD5C4  |  4294956484 |
|     385 | 0xFFFFEE36  |  4294962742 |
|     386 | 0x00CC      |         204 |
|     387 | 0xFFFF9541  |  4294939969 |
|     388 | 0xFFFFEE8A  |  4294962826 |
|     389 | 0x0AF0      |        2800 |
|     390 | 0xFFFFBEC0  |  4294950592 |
|     391 | 0xFFFFF2EB  |  4294963947 |
|     392 | 0x0080      |         128 |
|     393 | 0x009C      |         156 |
|     394 | 0x0367      |         871 |
|     395 | 0x1DAAA     |      121514 |
|     396 | 0x0405      |        1029 |
|     397 | 0x4106      |       16646 |
|     398 | 0x13EF4     |       81652 |
|     399 | 0x0E10      |        3600 |
|     400 | 0x02A1      |         673 |
|     401 | 0x1EF31     |      126769 |
|     402 | 0x0404      |        1028 |
|     403 | 0xFFFFBFE0  |  4294950880 |
|     404 | 0xA45F      |       42079 |
|     405 | 0x04AB      |        1195 |
|     406 | 0xFFFFBCFB  |  4294950139 |
|     407 | 0xAF20      |       44832 |
|     408 | 0xFFFFF128  |  4294963496 |
|     409 | 0x007F      |         127 |
|     410 | 0x47AB      |       18347 |
|     411 | 0x1473C     |       83772 |
|     412 | 0x00FE      |         254 |
|     413 | 0x0089      |         137 |
|     414 | 0xFFFABE30  |  4294622768 |
|     415 | 0xFFFE77F5  |  4294866933 |
|     416 | 0xFFFEC22C  |  4294885932 |
|     417 | 0x0960      |        2400 |
|     418 | 0xFFFAC5CD  |  4294624717 |
|     419 | 0xFFFE7AFE  |  4294867710 |
|     420 | 0x0866      |        2150 |
|     421 | 0xFFFACD0E  |  4294626574 |
|     422 | 0xFFFE73F0  |  4294865904 |
|     423 | 0xFFFABD2D  |  4294622509 |
|     424 | 0xFFFE6EBF  |  4294864575 |
|     425 | 0x0A71      |        2673 |
|     426 | 0xFFFACB57  |  4294626135 |
|     427 | 0xFFFE6A6C  |  4294863468 |
|     428 | 0xFFFAC5EC  |  4294624748 |
|     429 | 0xFFFE71F7  |  4294865399 |
|     430 | 0x00A4      |         164 |
|     431 | 0x055D      |        1373 |
|     432 | 0x0890      |        2192 |
|     433 | 0x002B      |          43 |

## String References

- **13105**: @@
- **14250**: What will you do? [Offer words of encouragement./Give her a royal scolding.]
- **14254**: What will you say? [We'll get through this together!/Stick with me and it'll be okay./I'll be beside you to the bitter end...]
- **14263**: Lady Lilith is from... [Present day Vana'diel./The Vana'diel of the past./The Vana'diel of the future.]
- **14266**: It's a world where... [War has yet to begin./War has yet to end./War has ended.]
- **14268**: The key to victory lies with... [Lady Lilith's scanty attire./The number of Spitewardens./The Crystal War.]

## Events

### Event 65535

#### Metadata

| Field        | Value   |
|--------------|---------|
| Entrypoint   | 0x0000  |
| Data Size    | 1 bytes |
| Instructions | 1       |

```
      00 01 02 03 04 05 06 07  08 09 0A 0B 0C 0D 0E 0F
      -- -- -- -- -- -- -- --  -- -- -- -- -- -- -- --
0000: 00                                                .               
```

#### Opcodes

```
  0: 0x0000 [0x00] END_REQSTACK()
```

### Event 149

#### Metadata

| Field        | Value       |
|--------------|-------------|
| Entrypoint   | 0x0001      |
| Data Size    | 12210 bytes |
| Instructions | 1442        |

```
      00 01 02 03 04 05 06 07  08 09 0A 0B 0C 0D 0E 0F
      -- -- -- -- -- -- -- --  -- -- -- -- -- -- -- --
0000:    42 1A C0 4F 46 01 38  00 80 27 10 83 02 05 01   B..OF.8..'.....
0010: 04 27 10 87 02 05 01 04  2F 00 EF 01 05 01 4E 00  .'....../.....N.
0020: EF 01 05 01 80 F0 FF FF  7F 80 83 02 05 01 80 87  ................
0030: 02 05 01 80 EF 01 05 01  92 01 83 02 05 01 92 01  ................
0040: 87 02 05 01 92 01 EF 01  05 01 94 01 F0 FF FF 7F  ................
0050: 94 01 83 02 05 01 94 01  87 02 05 01 94 01 EF 01  ................
0060: 05 01 1A EE 51 29 10 F0  FF FF 7F 1B 02 02 10 01  ....Q)..........
0070: 80 80 88 00 45 02 80 F0  FF FF 7F F0 FF FF 7F 77  ....E..........w
0080: 67 30 31 03 80 01 ED 00  02 02 10 04 80 80 A4 00  g01.............
0090: 45 02 80 F0 FF FF 7F F0  FF FF 7F 77 67 30 31 03  E..........wg01.
00A0: 80 01 ED 00 02 02 10 05  80 80 C0 00 45 02 80 F0  ............E...
00B0: FF FF 7F F0 FF FF 7F 77  67 30 31 03 80 01 ED 00  .......wg01.....
00C0: 02 02 10 06 80 80 DC 00  45 02 80 F0 FF FF 7F F0  ........E.......
00D0: FF FF 7F 77 67 30 31 03  80 01 ED 00 45 02 80 F0  ...wg01.....E...
00E0: FF FF 7F F0 FF FF 7F 77  30 30 31 03 80 1A 9F 4F  .......w001....O
00F0: 6E EF 01 05 01 07 80 99  EF 01 05 01 03 02 10 08  n...............
0100: 80 27 10 F0 FF FF 7F 82  1C 09 80 2B EF 01 05 01  .'.........+....
0110: 0A 80 23 2A 10 F0 FF FF  7F 52 02 80 F0 FF FF 7F  ..#*.....R......
0120: F0 FF FF 7F 77 67 30 31  52 02 80 F0 FF FF 7F F0  ....wg01R.......
0130: FF FF 7F 77 30 30 31 45  02 80 F0 FF FF 7F F0 FF  ...w001E........
0140: FF 7F 77 31 30 32 03 80  4B EF 01 05 01 0B 80 1C  ..w102..K.......
0150: 09 80 2B EF 01 05 01 0C  80 27 10 EF 01 05 01 0B  ..+......'......
0160: 1C 0D 80 27 10 F0 FF FF  7F 76 27 10 83 02 05 01  ...'.....v'.....
0170: 20 27 10 87 02 05 01 0D  2A 10 83 02 05 01 1C 0E   '......*.......
0180: 80 27 10 B8 01 05 01 03  1C 0E 80 1A C0 4F 1C 09  .'...........O..
0190: 80 27 10 B8 01 05 01 04  52 02 80 F0 FF FF 7F F0  .'......R.......
01A0: FF FF 7F 77 31 30 32 1A  56 52 45 02 80 F0 FF FF  ...w102.VRE.....
01B0: 7F F0 FF FF 7F 61 30 30  30 03 80 27 10 83 02 05  .....a000..'....
01C0: 01 21 1A 9F 4F 27 10 87  02 05 01 0E 27 10 F0 FF  .!..O'......'...
01D0: FF 7F 77 1C 0F 80 52 02  80 F0 FF FF 7F F0 FF FF  ..w...R.........
01E0: 7F 61 30 30 30 45 02 80  F0 FF FF 7F F0 FF FF 7F  .a000E..........
01F0: 61 30 30 31 03 80 1C 10  80 27 10 83 02 05 01 22  a001.....'....."
0200: 27 10 F0 FF FF 7F 78 1C  11 80 29 10 AF 02 05 01  '.....x...).....
0210: 0A 1C 12 80 52 02 80 F0  FF FF 7F F0 FF FF 7F 61  ....R..........a
0220: 30 30 31 45 02 80 F0 FF  FF 7F F0 FF FF 7F 61 30  001E..........a0
0230: 30 32 03 80 2A 10 83 02  05 01 1C 13 80 52 02 80  02..*........R..
0240: F0 FF FF 7F F0 FF FF 7F  61 30 30 32 45 02 80 F0  ........a002E...
0250: FF FF 7F F0 FF FF 7F 77  30 30 33 03 80 BA 87 02  .......w003.....
0260: 05 01 14 80 15 80 03 80  16 80 81 00 83 02 05 01  ................
0270: 7C 01 83 02 05 01 5B 17  80 83 02 05 01 83 02 05  |.....[.........
0280: 01 66 30 30 30 5B 18 80  83 02 05 01 83 02 05 01  .f000[..........
0290: 73 68 6E 30 1C 08 80 29  10 F0 FF FF 7F 1B 52 02  shn0...)......R.
02A0: 80 F0 FF FF 7F F0 FF FF  7F 77 30 30 33 02 02 10  .........w003...
02B0: 19 80 80 C9 02 45 02 80  F0 FF FF 7F F0 FF FF 7F  .....E..........
02C0: 77 30 30 34 03 80 01 F6  02 02 02 10 1A 80 80 E5  w004............
02D0: 02 45 02 80 F0 FF FF 7F  F0 FF FF 7F 77 30 30 34  .E..........w004
02E0: 03 80 01 F6 02 45 02 80  F0 FF FF 7F F0 FF FF 7F  .....E..........
02F0: 77 30 30 34 03 80 27 10  87 02 05 01 0F 27 10 F0  w004..'......'..
0300: FF FF 7F 79 1C 1B 80 2B  83 02 05 01 1C 80 1C 1D  ...y...+........
0310: 80 23 59 01 86 02 05 01  1B 80 4B 86 02 05 01 03  .#Y.......K.....
0320: 80 1C 0E 80 52 02 80 F0  FF FF 7F F0 FF FF 7F 77  ....R..........w
0330: 74 30 34 52 02 80 F0 FF  FF 7F F0 FF FF 7F 77 30  t04R..........w0
0340: 30 34 45 02 80 F0 FF FF  7F F0 FF FF 7F 77 30 30  04E..........w00
0350: 35 03 80 1C 0F 80 2B 83  02 05 01 1E 80 1C 1F 80  5.....+.........
0360: 4E 00 B7 02 05 01 23 52  02 80 F0 FF FF 7F F0 FF  N.....#R........
0370: FF 7F 77 30 30 35 45 02  80 F0 FF FF 7F F0 FF FF  ..w005E.........
0380: 7F 77 30 30 36 03 80 5B  18 80 83 02 05 01 83 02  .w006..[........
0390: 05 01 73 68 6E 31 03 02  10 08 80 27 10 F0 FF FF  ..shn1.....'....
03A0: 7F 82 1C 20 80 2B 83 02  05 01 21 80 23 2A 10 F0  ... .+....!.#*..
03B0: FF FF 7F 66 22 80 86 02  05 01 86 02 05 01 74 68  ...f".........th
03C0: 6B 31 1C 23 80 52 02 80  F0 FF FF 7F F0 FF FF 7F  k1.#.R..........
03D0: 77 30 30 36 45 02 80 F0  FF FF 7F F0 FF FF 7F 77  w006E..........w
03E0: 30 30 37 03 80 5D 03 80  08 80 1C 08 80 66 22 80  007..].......f".
03F0: 86 02 05 01 86 02 05 01  74 68 6B 32 1C 24 80 2B  ........thk2.$.+
0400: 86 02 05 01 25 80 23 1C  09 80 52 02 80 F0 FF FF  ....%.#...R.....
0410: 7F F0 FF FF 7F 77 30 30  37 45 02 80 F0 FF FF 7F  .....w007E......
0420: F0 FF FF 7F 77 30 30 38  03 80 7B 86 02 05 01 03  ....w008..{.....
0430: 02 10 26 80 27 10 F0 FF  FF 7F 82 7C 00 83 02 05  ..&.'......|....
0440: 01 5B 18 80 83 02 05 01  83 02 05 01 73 68 6E 32  .[..........shn2
0450: 1C 09 80 2B 83 02 05 01  27 80 23 5C 00 28 80 5C  ...+....'.#\.(.\
0460: 01 28 80 9A 2A 10 F0 FF  FF 7F 52 02 80 F0 FF FF  .(..*.....R.....
0470: 7F F0 FF FF 7F 77 30 30  38 45 02 80 F0 FF FF 7F  .....w008E......
0480: F0 FF FF 7F 77 30 30 39  03 80 1C 28 80 03 02 10  ....w009...(....
0490: 1D 80 27 10 F0 FF FF 7F  82 66 22 80 86 02 05 01  ..'......f".....
04A0: 86 02 05 01 74 77 61 30  1C 0E 80 2B 86 02 05 01  ....twa0...+....
04B0: 29 80 23 2A 10 F0 FF FF  7F 5B 18 80 83 02 05 01  ).#*.....[......
04C0: 83 02 05 01 73 68 6E 33  1C 28 80 29 10 F0 FF FF  ....shn3.(.)....
04D0: 7F 1B 52 02 80 F0 FF FF  7F F0 FF FF 7F 77 30 30  ..R..........w00
04E0: 39 02 02 10 04 80 80 FD  04 45 02 80 F0 FF FF 7F  9........E......
04F0: F0 FF FF 7F 77 65 31 30  03 80 01 9A 05 02 02 10  ....we10........
0500: 05 80 80 19 05 45 02 80  F0 FF FF 7F F0 FF FF 7F  .....E..........
0510: 77 65 31 30 03 80 01 9A  05 02 02 10 19 80 80 35  we10...........5
0520: 05 45 02 80 F0 FF FF 7F  F0 FF FF 7F 77 74 31 30  .E..........wt10
0530: 03 80 01 9A 05 02 02 10  1A 80 80 51 05 45 02 80  ...........Q.E..
0540: F0 FF FF 7F F0 FF FF 7F  77 74 31 30 03 80 01 9A  ........wt10....
0550: 05 02 02 10 2A 80 80 6D  05 45 02 80 F0 FF FF 7F  ....*..m.E......
0560: F0 FF FF 7F 77 6D 31 30  03 80 01 9A 05 02 02 10  ....wm10........
0570: 06 80 80 89 05 45 02 80  F0 FF FF 7F F0 FF FF 7F  .....E..........
0580: 77 67 31 30 03 80 01 9A  05 45 02 80 F0 FF FF 7F  wg10.....E......
0590: F0 FF FF 7F 77 30 31 30  03 80 03 02 10 2B 80 27  ....w010.....+.'
05A0: 10 F0 FF FF 7F 82 5B 2C  80 87 02 05 01 87 02 05  ......[,........
05B0: 01 62 69 6B 30 81 00 83  02 05 01 7C 00 83 02 05  .bik0......|....
05C0: 01 2B 83 02 05 01 2D 80  6E F0 FF FF 7F 2E 80 99  .+....-.n.......
05D0: F0 FF FF 7F 23 7C 01 83  02 05 01 2A 10 F0 FF FF  ....#|.....*....
05E0: 7F 29 10 F0 FF FF 7F 1B  52 02 80 F0 FF FF 7F F0  .)......R.......
05F0: FF FF 7F 77 30 31 30 52  02 80 F0 FF FF 7F F0 FF  ...w010R........
0600: FF 7F 77 65 31 30 52 02  80 F0 FF FF 7F F0 FF FF  ..we10R.........
0610: 7F 77 6D 31 30 52 02 80  F0 FF FF 7F F0 FF FF 7F  .wm10R..........
0620: 77 67 31 30 52 02 80 F0  FF FF 7F F0 FF FF 7F 77  wg10R..........w
0630: 74 31 30 45 02 80 F0 FF  FF 7F F0 FF FF 7F 6F 66  t10E..........of
0640: 66 62 03 80 02 02 10 01  80 80 60 06 45 02 80 F0  fb........`.E...
0650: FF FF 7F F0 FF FF 7F 77  30 31 31 03 80 01 24 07  .......w011...$.
0660: 02 02 10 07 80 80 7C 06  45 02 80 F0 FF FF 7F F0  ......|.E.......
0670: FF FF 7F 77 6D 31 31 03  80 01 24 07 02 02 10 04  ...wm11...$.....
0680: 80 80 98 06 45 02 80 F0  FF FF 7F F0 FF FF 7F 77  ....E..........w
0690: 67 31 31 03 80 01 24 07  02 02 10 05 80 80 B4 06  g11...$.........
06A0: 45 02 80 F0 FF FF 7F F0  FF FF 7F 77 67 31 31 03  E..........wg11.
06B0: 80 01 24 07 02 02 10 19  80 80 D0 06 45 02 80 F0  ..$.........E...
06C0: FF FF 7F F0 FF FF 7F 77  74 31 31 03 80 01 24 07  .......wt11...$.
06D0: 02 02 10 1A 80 80 EC 06  45 02 80 F0 FF FF 7F F0  ........E.......
06E0: FF FF 7F 77 74 31 31 03  80 01 24 07 02 02 10 2A  ...wt11...$....*
06F0: 80 80 08 07 45 02 80 F0  FF FF 7F F0 FF FF 7F 77  ....E..........w
0700: 6D 31 31 03 80 01 24 07  02 02 10 06 80 80 24 07  m11...$.......$.
0710: 45 02 80 F0 FF FF 7F F0  FF FF 7F 77 67 31 31 03  E..........wg11.
0720: 80 01 24 07 1C 28 80 29  10 AF 02 05 01 0A 27 10  ..$..(.)......'.
0730: B7 02 05 01 09 66 22 80  86 02 05 01 86 02 05 01  .....f".........
0740: 74 77 61 31 4A 87 02 05  01 B7 02 05 01 1C 28 80  twa1J.........(.
0750: 27 10 87 02 05 01 10 1C  19 80 4A F0 FF FF 7F B7  '.........J.....
0760: 02 05 01 1C 1B 80 52 02  80 F0 FF FF 7F F0 FF FF  ......R.........
0770: 7F 77 74 31 31 52 02 80  F0 FF FF 7F F0 FF FF 7F  .wt11R..........
0780: 77 67 31 31 52 02 80 F0  FF FF 7F F0 FF FF 7F 77  wg11R..........w
0790: 6D 31 31 52 02 80 F0 FF  FF 7F F0 FF FF 7F 77 30  m11R..........w0
07A0: 31 31 45 02 80 F0 FF FF  7F F0 FF FF 7F 77 30 31  11E..........w01
07B0: 32 03 80 2A 10 B7 02 05  01 1C 28 80 4B B7 02 05  2..*......(.K...
07C0: 01 2F 80 7B F0 FF FF 7F  4A 86 02 05 01 B7 02 05  ./.{....J.......
07D0: 01 4A 87 02 05 01 86 02  05 01 1C 09 80 6E B7 02  .J...........n..
07E0: 05 01 07 80 99 B7 02 05  01 1C 30 80 52 02 80 F0  ..........0.R...
07F0: FF FF 7F F0 FF FF 7F 77  30 31 32 45 02 80 F0 FF  .......w012E....
0800: FF 7F F0 FF FF 7F 77 30  31 33 03 80 1C 0D 80 27  ......w013.....'
0810: 10 F0 FF FF 7F 7A 2A 10  F0 FF FF 7F 6E 86 02 05  .....z*.....n...
0820: 01 2A 80 99 86 02 05 01  1C 20 80 59 01 86 02 05  .*....... .Y....
0830: 01 1B 80 79 00 86 02 05  01 83 02 05 01 4B 86 02  ...y.........K..
0840: 05 01 31 80 1C 0E 80 66  22 80 86 02 05 01 86 02  ..1....f".......
0850: 05 01 74 77 62 30 1C 1B  80 52 02 80 F0 FF FF 7F  ..twb0...R......
0860: F0 FF FF 7F 77 30 31 33  45 02 80 F0 FF FF 7F F0  ....w013E.......
0870: FF FF 7F 77 31 31 33 03  80 1C 28 80 03 02 10 1F  ...w113...(.....
0880: 80 27 10 F0 FF FF 7F 82  2B 86 02 05 01 32 80 23  .'......+....2.#
0890: 2A 10 F0 FF FF 7F 52 02  80 F0 FF FF 7F F0 FF FF  *.....R.........
08A0: 7F 77 31 31 33 45 02 80  F0 FF FF 7F F0 FF FF 7F  .w113E..........
08B0: 77 30 31 35 03 80 1C 28  80 03 02 10 2B 80 27 10  w015...(....+.'.
08C0: F0 FF FF 7F 82 2B 86 02  05 01 33 80 23 2A 10 F0  .....+....3.#*..
08D0: FF FF 7F 5B 18 80 83 02  05 01 83 02 05 01 73 68  ...[..........sh
08E0: 6E 34 2B 83 02 05 01 34  80 1C 26 80 52 02 80 F0  n4+....4..&.R...
08F0: FF FF 7F F0 FF FF 7F 77  30 31 35 45 02 80 F0 FF  .......w015E....
0900: FF 7F F0 FF FF 7F 77 30  31 36 03 80 27 10 F0 FF  ......w016..'...
0910: FF 7F 7B 1C 35 80 4B B7  02 05 01 36 80 1C 23 80  ..{.5.K....6..#.
0920: 1A C0 4F 5D 03 80 1D 80  1C 09 80 52 02 80 F0 FF  ..O].......R....
0930: FF 7F F0 FF FF 7F 77 30  31 36 4E 01 B7 02 05 01  ......w016N.....
0940: 1A 51 53 29 10 F0 FF FF  7F 1B 1C 01 80 27 10 F0  .QS).........'..
0950: FF FF 7F 7C 27 10 87 02  05 01 11 45 37 80 F0 FF  ...|'......E7...
0960: FF 7F F0 FF FF 7F 79 30  30 30 03 80 1A 9F 4F 1C  ......y000....O.
0970: 24 80 52 37 80 F0 FF FF  7F F0 FF FF 7F 79 30 30  $.R7.........y00
0980: 30 02 02 10 04 80 80 9D  09 45 37 80 F0 FF FF 7F  0........E7.....
0990: F0 FF FF 7F 79 67 30 31  03 80 01 1E 0A 02 02 10  ....yg01........
09A0: 19 80 80 B9 09 45 37 80  F0 FF FF 7F F0 FF FF 7F  .....E7.........
09B0: 79 74 30 31 03 80 01 1E  0A 02 02 10 1A 80 80 D5  yt01............
09C0: 09 45 37 80 F0 FF FF 7F  F0 FF FF 7F 79 74 30 31  .E7.........yt01
09D0: 03 80 01 1E 0A 02 02 10  2A 80 80 F1 09 45 37 80  ........*....E7.
09E0: F0 FF FF 7F F0 FF FF 7F  79 6D 30 31 03 80 01 1E  ........ym01....
09F0: 0A 02 02 10 06 80 80 0D  0A 45 37 80 F0 FF FF 7F  .........E7.....
0A00: F0 FF FF 7F 79 67 30 31  03 80 01 1E 0A 45 37 80  ....yg01.....E7.
0A10: F0 FF FF 7F F0 FF FF 7F  79 30 30 31 03 80 2A 10  ........y001..*.
0A20: F0 FF FF 7F 1C 11 80 4B  F0 FF FF 7F 38 80 2A 10  .......K....8.*.
0A30: 87 02 05 01 1C 0E 80 52  37 80 F0 FF FF 7F F0 FF  .......R7.......
0A40: FF 7F 79 6D 30 31 52 37  80 F0 FF FF 7F F0 FF FF  ..ym01R7........
0A50: 7F 79 74 30 31 52 37 80  F0 FF FF 7F F0 FF FF 7F  .yt01R7.........
0A60: 79 67 30 31 52 37 80 F0  FF FF 7F F0 FF FF 7F 79  yg01R7.........y
0A70: 30 30 31 02 02 10 19 80  80 8F 0A 45 37 80 F0 FF  001........E7...
0A80: FF 7F F0 FF FF 7F 79 74  30 32 03 80 01 D8 0A 02  ......yt02......
0A90: 02 10 1A 80 80 AB 0A 45  37 80 F0 FF FF 7F F0 FF  .......E7.......
0AA0: FF 7F 79 74 30 32 03 80  01 D8 0A 02 02 10 2A 80  ..yt02........*.
0AB0: 80 C7 0A 45 37 80 F0 FF  FF 7F F0 FF FF 7F 79 74  ...E7.........yt
0AC0: 30 32 03 80 01 D8 0A 45  37 80 F0 FF FF 7F F0 FF  02.....E7.......
0AD0: FF 7F 79 30 30 32 03 80  1C 39 80 52 37 80 F0 FF  ..y002...9.R7...
0AE0: FF 7F F0 FF FF 7F 79 74  30 32 52 37 80 F0 FF FF  ......yt02R7....
0AF0: 7F F0 FF FF 7F 79 30 30  32 45 37 80 F0 FF FF 7F  .....y002E7.....
0B00: F0 FF FF 7F 79 31 30 32  03 80 1C 3A 80 1A C0 4F  ....y102...:...O
0B10: 1C 09 80 52 37 80 F0 FF  FF 7F F0 FF FF 7F 79 31  ...R7.........y1
0B20: 30 32 03 02 10 26 80 27  10 F0 FF FF 7F 82 BA F0  02...&.'........
0B30: FF FF 7F 3B 80 3C 80 3D  80 3E 80 BA 87 02 05 01  ...;.<.=.>......
0B40: 3F 80 40 80 3D 80 3E 80  81 00 87 02 05 01 5B 2C  ?.@.=.>.......[,
0B50: 80 87 02 05 01 87 02 05  01 66 65 30 30 7B F0 FF  .........fe00{..
0B60: FF 7F 5C 00 41 80 5C 01  41 80 9A 2A 10 F0 FF FF  ..\.A.\.A..*....
0B70: 7F 29 10 F0 FF FF 7F 1B  48 42 80 23 45 37 80 F0  .)......HB.#E7..
0B80: FF FF 7F F0 FF FF 7F 79  32 30 32 03 80 1A 9F 4F  .......y202....O
0B90: 1C 1D 80 27 10 87 02 05  01 12 27 10 F0 FF FF 7F  ...'......'.....
0BA0: 7E 1C 0E 80 52 37 80 F0  FF FF 7F F0 FF FF 7F 79  ~...R7.........y
0BB0: 32 30 32 02 02 10 06 80  80 CF 0B 45 37 80 F0 FF  202........E7...
0BC0: FF 7F F0 FF FF 7F 79 67  30 33 03 80 01 E0 0B 45  ......yg03.....E
0BD0: 37 80 F0 FF FF 7F F0 FF  FF 7F 79 30 30 33 03 80  7.........y003..
0BE0: 2A 10 F0 FF FF 7F 1C 0D  80 4A F0 FF FF 7F 83 02  *........J......
0BF0: 05 01 1C 09 80 2B 83 02  05 01 43 80 1C 1D 80 23  .....+....C....#
0C00: 52 37 80 F0 FF FF 7F F0  FF FF 7F 79 30 30 33 52  R7.........y003R
0C10: 37 80 F0 FF FF 7F F0 FF  FF 7F 79 67 30 33 02 02  7.........yg03..
0C20: 10 19 80 80 3A 0C 45 37  80 F0 FF FF 7F F0 FF FF  ....:.E7........
0C30: 7F 79 74 30 34 03 80 01  83 0C 02 02 10 1A 80 80  .yt04...........
0C40: 56 0C 45 37 80 F0 FF FF  7F F0 FF FF 7F 79 74 30  V.E7.........yt0
0C50: 34 03 80 01 83 0C 02 02  10 06 80 80 72 0C 45 37  4...........r.E7
0C60: 80 F0 FF FF 7F F0 FF FF  7F 79 67 30 34 03 80 01  .........yg04...
0C70: 83 0C 45 37 80 F0 FF FF  7F F0 FF FF 7F 79 30 30  ..E7.........y00
0C80: 34 03 80 1C 13 80 2B 83  02 05 01 44 80 23 2B 83  4.....+....D.#+.
0C90: 02 05 01 45 80 23 52 37  80 F0 FF FF 7F F0 FF FF  ...E.#R7........
0CA0: 7F 79 67 30 34 52 37 80  F0 FF FF 7F F0 FF FF 7F  .yg04R7.........
0CB0: 79 74 30 34 52 37 80 F0  FF FF 7F F0 FF FF 7F 79  yt04R7.........y
0CC0: 30 30 34 45 37 80 F0 FF  FF 7F F0 FF FF 7F 79 30  004E7.........y0
0CD0: 30 35 03 80 1C 0F 80 2B  83 02 05 01 46 80 23 2B  05.....+....F.#+
0CE0: 83 02 05 01 47 80 23 52  37 80 F0 FF FF 7F F0 FF  ....G.#R7.......
0CF0: FF 7F 79 30 30 35 02 02  10 04 80 80 12 0D 45 37  ..y005........E7
0D00: 80 F0 FF FF 7F F0 FF FF  7F 79 67 30 36 03 80 01  .........yg06...
0D10: 77 0D 02 02 10 19 80 80  2E 0D 45 37 80 F0 FF FF  w.........E7....
0D20: 7F F0 FF FF 7F 79 74 30  36 03 80 01 77 0D 02 02  .....yt06...w...
0D30: 10 1A 80 80 4A 0D 45 37  80 F0 FF FF 7F F0 FF FF  ....J.E7........
0D40: 7F 79 74 30 36 03 80 01  77 0D 02 02 10 06 80 80  .yt06...w.......
0D50: 66 0D 45 37 80 F0 FF FF  7F F0 FF FF 7F 79 67 30  f.E7.........yg0
0D60: 36 03 80 01 77 0D 45 37  80 F0 FF FF 7F F0 FF FF  6...w.E7........
0D70: 7F 79 30 30 36 03 80 1C  28 80 5B 48 80 87 02 05  .y006...(.[H....
0D80: 01 87 02 05 01 74 6C 61  30 1C 0E 80 2B 87 02 05  .....tla0...+...
0D90: 01 49 80 23 1C 0E 80 52  37 80 F0 FF FF 7F F0 FF  .I.#...R7.......
0DA0: FF 7F 79 74 30 36 52 37  80 F0 FF FF 7F F0 FF FF  ..yt06R7........
0DB0: 7F 79 67 30 36 52 37 80  F0 FF FF 7F F0 FF FF 7F  .yg06R7.........
0DC0: 79 30 30 36 45 37 80 F0  FF FF 7F F0 FF FF 7F 79  y006E7.........y
0DD0: 30 30 37 03 80 1C 28 80  2B 87 02 05 01 4A 80 23  007...(.+....J.#
0DE0: 1C 0E 80 52 37 80 F0 FF  FF 7F F0 FF FF 7F 79 30  ...R7.........y0
0DF0: 30 37 45 37 80 F0 FF FF  7F F0 FF FF 7F 79 30 30  07E7.........y00
0E00: 38 03 80 1C 0E 80 2B 87  02 05 01 4B 80 1C 01 80  8.....+....K....
0E10: BA 87 02 05 01 4C 80 4D  80 3D 80 36 80 1C 08 80  .....L.M.=.6....
0E20: 23 52 37 80 F0 FF FF 7F  F0 FF FF 7F 79 30 30 38  #R7.........y008
0E30: 45 37 80 F0 FF FF 7F F0  FF FF 7F 79 30 30 39 03  E7.........y009.
0E40: 80 1C 1B 80 2B 83 02 05  01 4E 80 23 2B 83 02 05  ....+....N.#+...
0E50: 01 4F 80 23 52 37 80 F0  FF FF 7F F0 FF FF 7F 79  .O.#R7.........y
0E60: 30 30 39 45 37 80 F0 FF  FF 7F F0 FF FF 7F 79 30  009E7.........y0
0E70: 31 30 03 80 1C 28 80 2B  83 02 05 01 50 80 23 03  10...(.+....P.#.
0E80: 02 10 08 80 27 10 F0 FF  FF 7F 82 2B 83 02 05 01  ....'......+....
0E90: 51 80 23 2A 10 F0 FF FF  7F 1A C0 4F 1C 09 80 52  Q.#*.......O...R
0EA0: 37 80 F0 FF FF 7F F0 FF  FF 7F 79 30 31 30 6B 69  7.........y010ki
0EB0: 64 6C 30 87 02 05 01 1A  DA 53 48 42 80 23 27 10  dl0......SHB.#'.
0EC0: 86 02 05 01 20 1C 01 80  45 02 80 F0 FF FF 7F F0  .... ...E.......
0ED0: FF FF 7F 72 30 30 30 03  80 1A 9F 4F 1C 1F 80 52  ...r000....O...R
0EE0: 02 80 F0 FF FF 7F F0 FF  FF 7F 72 30 30 30 45 02  ..........r000E.
0EF0: 80 F0 FF FF 7F F0 FF FF  7F 72 30 30 31 03 80 2A  .........r001..*
0F00: 10 86 02 05 01 1C 28 80  59 01 86 02 05 01 1B 80  ......(.Y.......
0F10: 4B 86 02 05 01 52 80 1C  1B 80 52 02 80 F0 FF FF  K....R....R.....
0F20: 7F F0 FF FF 7F 72 30 30  31 45 02 80 F0 FF FF 7F  .....r001E......
0F30: F0 FF FF 7F 72 31 30 30  03 80 BA B2 02 05 01 53  ....r100.......S
0F40: 80 54 80 55 80 52 80 1C  39 80 52 02 80 F0 FF FF  .T.U.R..9.R.....
0F50: 7F F0 FF FF 7F 72 31 30  30 45 02 80 F0 FF FF 7F  .....r100E......
0F60: F0 FF FF 7F 72 30 30 32  03 80 29 10 B2 02 05 01  ....r002..).....
0F70: 0D 1C 0E 80 29 10 B2 02  05 01 0E 1C 0D 80 66 22  ....).........f"
0F80: 80 B2 02 05 01 B2 02 05  01 74 77 61 30 1C 09 80  .........twa0...
0F90: 2B B2 02 05 01 56 80 23  66 22 80 B2 02 05 01 B2  +....V.#f"......
0FA0: 02 05 01 74 77 61 31 1C  11 80 52 02 80 F0 FF FF  ...twa1...R.....
0FB0: 7F F0 FF FF 7F 72 30 30  32 45 02 80 F0 FF FF 7F  .....r002E......
0FC0: F0 FF FF 7F 72 30 30 33  03 80 6E 86 02 05 01 2A  ....r003..n....*
0FD0: 80 99 86 02 05 01 1C 28  80 2B 86 02 05 01 57 80  .......(.+....W.
0FE0: 23 66 22 80 86 02 05 01  86 02 05 01 74 77 62 30  #f".........twb0
0FF0: 2B 86 02 05 01 58 80 23  52 02 80 F0 FF FF 7F F0  +....X.#R.......
1000: FF FF 7F 72 30 30 33 45  02 80 F0 FF FF 7F F0 FF  ...r003E........
1010: FF 7F 72 30 30 34 03 80  03 02 10 59 80 27 10 F0  ..r004.....Y.'..
1020: FF FF 7F 82 1C 0E 80 BA  86 02 05 01 5A 80 5B 80  ............Z.[.
1030: 5C 80 5D 80 2B B2 02 05  01 5E 80 23 2A 10 F0 FF  \.].+....^.#*...
1040: FF 7F 52 02 80 F0 FF FF  7F F0 FF FF 7F 72 30 30  ..R..........r00
1050: 34 45 02 80 F0 FF FF 7F  F0 FF FF 7F 72 30 30 35  4E..........r005
1060: 03 80 66 22 80 86 02 05  01 86 02 05 01 74 77 62  ..f".........twb
1070: 31 1C 20 80 59 01 86 02  05 01 28 80 03 02 10 13  1. .Y.....(.....
1080: 80 27 10 F0 FF FF 7F 82  4A 86 02 05 01 B2 02 05  .'......J.......
1090: 01 1C 1B 80 7C 00 86 02  05 01 2B 86 02 05 01 5F  ....|.....+...._
10A0: 80 23 7C 01 86 02 05 01  6F 76 86 02 05 01 2A 10  .#|.....ov....*.
10B0: F0 FF FF 7F 52 02 80 F0  FF FF 7F F0 FF FF 7F 72  ....R..........r
10C0: 30 30 35 45 02 80 F0 FF  FF 7F F0 FF FF 7F 72 30  005E..........r0
10D0: 30 36 03 80 2B B2 02 05  01 60 80 23 1C 20 80 59  06..+....`.#. .Y
10E0: 01 86 02 05 01 28 80 59  03 86 02 05 01 28 80 4A  .....(.Y.....(.J
10F0: 86 02 05 01 BC 02 05 01  1C 30 80 2B 86 02 05 01  .........0.+....
1100: 61 80 23 52 02 80 F0 FF  FF 7F F0 FF FF 7F 72 30  a.#R..........r0
1110: 30 36 45 02 80 F0 FF FF  7F F0 FF FF 7F 72 30 30  06E..........r00
1120: 37 03 80 66 22 80 B2 02  05 01 B2 02 05 01 74 77  7..f".........tw
1130: 61 30 2B B2 02 05 01 62  80 23 2B B2 02 05 01 63  a0+....b.#+....c
1140: 80 23 66 22 80 B2 02 05  01 B2 02 05 01 74 77 61  .#f".........twa
1150: 31 6E 86 02 05 01 1A 80  99 86 02 05 01 59 03 86  1n...........Y..
1160: 02 05 01 13 80 1C 0F 80  2B 86 02 05 01 64 80 23  ........+....d.#
1170: 52 02 80 F0 FF FF 7F F0  FF FF 7F 72 30 30 37 45  R..........r007E
1180: 02 80 F0 FF FF 7F F0 FF  FF 7F 72 30 30 38 03 80  ..........r008..
1190: 1C 09 80 29 10 B2 02 05  01 0F 2B B2 02 05 01 65  ...)......+....e
11A0: 80 23 52 02 80 F0 FF FF  7F F0 FF FF 7F 72 30 30  .#R..........r00
11B0: 38 45 02 80 F0 FF FF 7F  F0 FF FF 7F 72 30 30 39  8E..........r009
11C0: 03 80 1C 1B 80 2B B2 02  05 01 66 80 1C 28 80 4A  .....+....f..(.J
11D0: 86 02 05 01 B2 02 05 01  1C 20 80 23 52 02 80 F0  ......... .#R...
11E0: FF FF 7F F0 FF FF 7F 72  30 30 39 45 02 80 F0 FF  .......r009E....
11F0: FF 7F F0 FF FF 7F 72 30  31 30 03 80 1C 1B 80 2B  ......r010.....+
1200: B2 02 05 01 67 80 23 52  02 80 F0 FF FF 7F F0 FF  ....g.#R........
1210: FF 7F 72 30 31 30 45 02  80 F0 FF FF 7F F0 FF FF  ..r010E.........
1220: 7F 72 30 31 31 03 80 1C  1B 80 2B B2 02 05 01 68  .r011.....+....h
1230: 80 23 7B 86 02 05 01 03  02 10 13 80 27 10 F0 FF  .#{.........'...
1240: FF 7F 82 1C 09 80 7C 00  86 02 05 01 2B 86 02 05  ......|.....+...
1250: 01 69 80 23 7C 01 86 02  05 01 2A 10 F0 FF FF 7F  .i.#|.....*.....
1260: 52 02 80 F0 FF FF 7F F0  FF FF 7F 72 30 31 31 45  R..........r011E
1270: 02 80 F0 FF FF 7F F0 FF  FF 7F 72 30 31 32 03 80  ..........r012..
1280: 66 22 80 B2 02 05 01 B2  02 05 01 74 77 61 30 2B  f".........twa0+
1290: B2 02 05 01 6A 80 23 66  22 80 B2 02 05 01 B2 02  ....j.#f".......
12A0: 05 01 74 77 61 31 1C 11  80 4B 86 02 05 01 6B 80  ..twa1...K....k.
12B0: 1C 0D 80 6E 86 02 05 01  1A 80 99 86 02 05 01 1C  ...n............
12C0: 10 80 2B 86 02 05 01 6C  80 23 1C 28 80 52 02 80  ..+....l.#.(.R..
12D0: F0 FF FF 7F F0 FF FF 7F  72 30 31 32 45 02 80 F0  ........r012E...
12E0: FF FF 7F F0 FF FF 7F 72  30 31 33 03 80 03 02 10  .......r013.....
12F0: 6D 80 27 10 F0 FF FF 7F  82 1C 1B 80 2B B2 02 05  m.'.........+...
1300: 01 6E 80 2A 10 F0 FF FF  7F 23 52 02 80 F0 FF FF  .n.*.....#R.....
1310: 7F F0 FF FF 7F 72 30 31  33 45 02 80 F0 FF FF 7F  .....r013E......
1320: F0 FF FF 7F 72 30 31 34  03 80 1C 20 80 66 22 80  ....r014... .f".
1330: B2 02 05 01 B2 02 05 01  74 6C 6B 30 59 01 86 02  ........tlk0Y...
1340: 05 01 0F 80 1C 6F 80 4A  86 02 05 01 B2 02 05 01  .....o.J........
1350: 1C 10 80 1A C0 4F 5D 03  80 1D 80 1C 09 80 52 02  .....O].......R.
1360: 80 F0 FF FF 7F F0 FF FF  7F 72 30 31 34 53 B2 02  .........r014S..
1370: 05 01 B2 02 05 01 74 6C  6B 30 4E 01 BC 02 05 01  ......tlk0N.....
1380: 1A 90 54 48 42 80 23 45  02 80 F0 FF FF 7F F0 FF  ..THB.#E........
1390: FF 7F 73 30 30 30 03 80  1A 9F 4F 1C 39 80 52 02  ..s000....O.9.R.
13A0: 80 F0 FF FF 7F F0 FF FF  7F 73 30 30 30 45 02 80  .........s000E..
13B0: F0 FF FF 7F F0 FF FF 7F  73 30 30 31 03 80 1C 6D  ........s001...m
13C0: 80 29 10 F0 FF FF 7F 1B  52 02 80 F0 FF FF 7F F0  .)......R.......
13D0: FF FF 7F 73 30 30 31 02  02 10 04 80 80 F3 13 45  ...s001........E
13E0: 02 80 F0 FF FF 7F F0 FF  FF 7F 73 65 30 32 03 80  ..........se02..
13F0: 01 74 14 02 02 10 05 80  80 0F 14 45 02 80 F0 FF  .t.........E....
1400: FF 7F F0 FF FF 7F 73 65  30 32 03 80 01 74 14 02  ......se02...t..
1410: 02 10 19 80 80 2B 14 45  02 80 F0 FF FF 7F F0 FF  .....+.E........
1420: FF 7F 73 74 30 32 03 80  01 74 14 02 02 10 1A 80  ..st02...t......
1430: 80 47 14 45 02 80 F0 FF  FF 7F F0 FF FF 7F 73 74  .G.E..........st
1440: 30 32 03 80 01 74 14 02  02 10 06 80 80 63 14 45  02...t.......c.E
1450: 02 80 F0 FF FF 7F F0 FF  FF 7F 73 67 30 32 03 80  ..........sg02..
1460: 01 74 14 45 02 80 F0 FF  FF 7F F0 FF FF 7F 73 30  .t.E..........s0
1470: 30 32 03 80 1C 30 80 03  02 10 6D 80 27 10 F0 FF  02...0....m.'...
1480: FF 7F 82 2B 87 02 05 01  70 80 23 1C 28 80 2B 83  ...+....p.#.(.+.
1490: 02 05 01 71 80 23 2A 10  F0 FF FF 7F 52 02 80 F0  ...q.#*.....R...
14A0: FF FF 7F F0 FF FF 7F 73  67 30 32 52 02 80 F0 FF  .......sg02R....
14B0: FF 7F F0 FF FF 7F 73 65  30 32 52 02 80 F0 FF FF  ......se02R.....
14C0: 7F F0 FF FF 7F 73 74 30  32 52 02 80 F0 FF FF 7F  .....st02R......
14D0: F0 FF FF 7F 73 30 30 32  45 02 80 F0 FF FF 7F F0  ....s002E.......
14E0: FF FF 7F 73 30 30 33 03  80 1C 1B 80 5B 72 80 87  ...s003.....[r..
14F0: 02 05 01 87 02 05 01 6E  61 67 31 5B 73 80 83 02  .......nag1[s...
1500: 05 01 83 02 05 01 6E 61  67 31 BA F0 FF FF 7F 74  ......nag1.....t
1510: 80 75 80 3D 80 76 80 1C  0E 80 2B 87 02 05 01 77  .u.=.v....+....w
1520: 80 1C 30 80 23 52 02 80  F0 FF FF 7F F0 FF FF 7F  ..0.#R..........
1530: 73 30 30 33 45 02 80 F0  FF FF 7F F0 FF FF 7F 73  s003E..........s
1540: 30 30 34 03 80 03 02 10  1F 80 27 10 F0 FF FF 7F  004.......'.....
1550: 82 1C 28 80 2B 87 02 05  01 78 80 23 2A 10 F0 FF  ..(.+....x.#*...
1560: FF 7F 29 10 F0 FF FF 7F  1B 52 02 80 F0 FF FF 7F  ..)......R......
1570: F0 FF FF 7F 73 30 30 34  02 02 10 04 80 80 94 15  ....s004........
1580: 45 02 80 F0 FF FF 7F F0  FF FF 7F 73 65 30 35 03  E..........se05.
1590: 80 01 15 16 02 02 10 05  80 80 B0 15 45 02 80 F0  ............E...
15A0: FF FF 7F F0 FF FF 7F 73  65 30 35 03 80 01 15 16  .......se05.....
15B0: 02 02 10 19 80 80 CC 15  45 02 80 F0 FF FF 7F F0  ........E.......
15C0: FF FF 7F 73 74 30 35 03  80 01 15 16 02 02 10 1A  ...st05.........
15D0: 80 80 E8 15 45 02 80 F0  FF FF 7F F0 FF FF 7F 73  ....E..........s
15E0: 74 30 35 03 80 01 15 16  02 02 10 06 80 80 04 16  t05.............
15F0: 45 02 80 F0 FF FF 7F F0  FF FF 7F 73 67 30 35 03  E..........sg05.
1600: 80 01 15 16 45 02 80 F0  FF FF 7F F0 FF FF 7F 73  ....E..........s
1610: 30 30 35 03 80 5B 72 80  87 02 05 01 87 02 05 01  005..[r.........
1620: 6E 61 67 32 4A F0 FF FF  7F 83 02 05 01 2B 87 02  nag2J........+..
1630: 05 01 79 80 1C 39 80 23  52 02 80 F0 FF FF 7F F0  ..y..9.#R.......
1640: FF FF 7F 73 74 30 35 52  02 80 F0 FF FF 7F F0 FF  ...st05R........
1650: FF 7F 73 67 30 35 52 02  80 F0 FF FF 7F F0 FF FF  ..sg05R.........
1660: 7F 73 65 30 35 52 02 80  F0 FF FF 7F F0 FF FF 7F  .se05R..........
1670: 73 30 30 35 02 02 10 07  80 80 90 16 45 02 80 F0  s005........E...
1680: FF FF 7F F0 FF FF 7F 73  66 30 36 03 80 01 49 17  .......sf06...I.
1690: 02 02 10 04 80 80 AC 16  45 02 80 F0 FF FF 7F F0  ........E.......
16A0: FF FF 7F 73 65 30 36 03  80 01 49 17 02 02 10 05  ...se06...I.....
16B0: 80 80 C8 16 45 02 80 F0  FF FF 7F F0 FF FF 7F 73  ....E..........s
16C0: 65 30 36 03 80 01 49 17  02 02 10 19 80 80 E4 16  e06...I.........
16D0: 45 02 80 F0 FF FF 7F F0  FF FF 7F 73 74 30 36 03  E..........st06.
16E0: 80 01 49 17 02 02 10 1A  80 80 00 17 45 02 80 F0  ..I.........E...
16F0: FF FF 7F F0 FF FF 7F 73  74 30 36 03 80 01 49 17  .......st06...I.
1700: 02 02 10 2A 80 80 1C 17  45 02 80 F0 FF FF 7F F0  ...*....E.......
1710: FF FF 7F 73 6D 30 36 03  80 01 49 17 02 02 10 06  ...sm06...I.....
1720: 80 80 38 17 45 02 80 F0  FF FF 7F F0 FF FF 7F 73  ..8.E..........s
1730: 67 30 36 03 80 01 49 17  45 02 80 F0 FF FF 7F F0  g06...I.E.......
1740: FF FF 7F 73 30 30 36 03  80 BA 87 02 05 01 7A 80  ...s006.......z.
1750: 7B 80 3D 80 36 80 6B 69  64 6C 30 87 02 05 01 24  {.=.6.kidl0....$
1760: 7C 80 03 80 03 80 25 02  00 10 01 80 00 8C 18 52  |.....%........R
1770: 02 80 F0 FF FF 7F F0 FF  FF 7F 73 66 30 36 52 02  ..........sf06R.
1780: 80 F0 FF FF 7F F0 FF FF  7F 73 74 30 36 52 02 80  .........st06R..
1790: F0 FF FF 7F F0 FF FF 7F  73 67 30 36 52 02 80 F0  ........sg06R...
17A0: FF FF 7F F0 FF FF 7F 73  6D 30 36 52 02 80 F0 FF  .......sm06R....
17B0: FF 7F F0 FF FF 7F 73 65  30 36 52 02 80 F0 FF FF  ......se06R.....
17C0: 7F F0 FF FF 7F 73 30 30  36 02 02 10 19 80 80 E5  .....s006.......
17D0: 17 45 02 80 F0 FF FF 7F  F0 FF FF 7F 73 73 74 36  .E..........sst6
17E0: 03 80 01 12 18 02 02 10  1A 80 80 01 18 45 02 80  .............E..
17F0: F0 FF FF 7F F0 FF FF 7F  73 73 74 36 03 80 01 12  ........sst6....
1800: 18 45 02 80 F0 FF FF 7F  F0 FF FF 7F 73 73 30 36  .E..........ss06
1810: 03 80 59 01 F0 FF FF 7F  0E 80 5B 72 80 87 02 05  ..Y.......[r....
1820: 01 87 02 05 01 6B 73 6F  30 03 02 10 59 80 27 10  .....kso0...Y.'.
1830: F0 FF FF 7F 82 1C 09 80  2B 87 02 05 01 7D 80 1C  ........+....}..
1840: 11 80 4A F0 FF FF 7F 87  02 05 01 23 2A 10 F0 FF  ..J........#*...
1850: FF 7F 4A F0 FF FF 7F 83  02 05 01 6F 76 F0 FF FF  ..J........ov...
1860: 7F 29 10 F0 FF FF 7F 1B  52 02 80 F0 FF FF 7F F0  .)......R.......
1870: FF FF 7F 73 73 74 36 52  02 80 F0 FF FF 7F F0 FF  ...sst6R........
1880: FF 7F 73 73 30 36 01 74  16 01 8C 18 BA 87 02 05  ..ss06.t........
1890: 01 7E 80 7F 80 3D 80 80  80 1C 09 80 29 10 F0 FF  .~...=......)...
18A0: FF 7F 1B 52 02 80 F0 FF  FF 7F F0 FF FF 7F 73 74  ...R..........st
18B0: 30 36 52 02 80 F0 FF FF  7F F0 FF FF 7F 73 67 30  06R..........sg0
18C0: 36 52 02 80 F0 FF FF 7F  F0 FF FF 7F 73 6D 30 36  6R..........sm06
18D0: 52 02 80 F0 FF FF 7F F0  FF FF 7F 73 65 30 36 52  R..........se06R
18E0: 02 80 F0 FF FF 7F F0 FF  FF 7F 73 30 30 36 02 02  ..........s006..
18F0: 10 19 80 80 0A 19 45 02  80 F0 FF FF 7F F0 FF FF  ......E.........
1900: 7F 73 74 30 37 03 80 01  53 19 02 02 10 1A 80 80  .st07...S.......
1910: 26 19 45 02 80 F0 FF FF  7F F0 FF FF 7F 73 74 30  &.E..........st0
1920: 37 03 80 01 53 19 02 02  10 06 80 80 42 19 45 02  7...S.......B.E.
1930: 80 F0 FF FF 7F F0 FF FF  7F 73 67 30 37 03 80 01  .........sg07...
1940: 53 19 45 02 80 F0 FF FF  7F F0 FF FF 7F 73 30 30  S.E..........s00
1950: 37 03 80 6E F0 FF FF 7F  11 80 99 F0 FF FF 7F 1C  7..n............
1960: 1D 80 59 01 87 02 05 01  0E 80 4B 87 02 05 01 81  ..Y.......K.....
1970: 80 1C 0E 80 03 02 10 2B  80 27 10 F0 FF FF 7F 82  .......+.'......
1980: 1C 0D 80 1C 1B 80 2B 83  02 05 01 82 80 23 2A 10  ......+......#*.
1990: F0 FF FF 7F 29 10 F0 FF  FF 7F 1B 52 02 80 F0 FF  ....)......R....
19A0: FF 7F F0 FF FF 7F 73 74  30 37 52 02 80 F0 FF FF  ......st07R.....
19B0: 7F F0 FF FF 7F 73 67 30  37 52 02 80 F0 FF FF 7F  .....sg07R......
19C0: F0 FF FF 7F 73 30 30 37  02 02 10 19 80 80 E4 19  ....s007........
19D0: 45 02 80 F0 FF FF 7F F0  FF FF 7F 73 30 30 39 03  E..........s009.
19E0: 80 01 11 1A 02 02 10 1A  80 80 00 1A 45 02 80 F0  ............E...
19F0: FF FF 7F F0 FF FF 7F 73  30 30 39 03 80 01 11 1A  .......s009.....
1A00: 45 02 80 F0 FF FF 7F F0  FF FF 7F 73 30 30 39 03  E..........s009.
1A10: 80 C5 83 80 83 02 05 01  83 02 05 01 6B 69 6C 6C  ............kill
1A20: 03 80 5B 72 80 87 02 05  01 87 02 05 01 6B 73 6F  ..[r.........kso
1A30: 30 1C 09 80 2B 87 02 05  01 84 80 23 24 85 80 03  0...+......#$...
1A40: 80 03 80 25 02 00 10 03  80 00 5F 1A 27 10 F0 FF  ...%......_.'...
1A50: FF 7F 28 2A 10 F0 FF FF  7F 1C 13 80 01 94 1A 02  ..(*............
1A60: 00 10 01 80 00 79 1A 6E  F0 FF FF 7F 86 80 99 F0  .....y.n........
1A70: FF FF 7F 1C 13 80 01 94  1A 02 00 10 07 80 00 94  ................
1A80: 1A 27 10 F0 FF FF 7F 28  2A 10 F0 FF FF 7F 1C 13  .'.....(*.......
1A90: 80 01 94 1A 1C 09 80 52  02 80 F0 FF FF 7F F0 FF  .......R........
1AA0: FF 7F 73 30 30 39 45 02  80 F0 FF FF 7F F0 FF FF  ..s009E.........
1AB0: 7F 73 30 31 30 03 80 1C  01 80 6B 69 64 6C 30 87  .s010.....kidl0.
1AC0: 02 05 01 BA 87 02 05 01  87 80 88 80 3D 80 80 80  ............=...
1AD0: BA F0 FF FF 7F 89 80 8A  80 3D 80 8B 80 1C 01 80  .........=......
1AE0: 4A 87 02 05 01 83 02 05  01 4A F0 FF FF 7F 83 02  J........J......
1AF0: 05 01 1C 08 80 52 02 80  F0 FF FF 7F F0 FF FF 7F  .....R..........
1B00: 73 30 31 30 45 02 80 F0  FF FF 7F F0 FF FF 7F 73  s010E..........s
1B10: 30 31 31 03 80 1C 30 80  C5 83 80 83 02 05 01 83  011...0.........
1B20: 02 05 01 73 30 30 30 03  80 5B 73 80 83 02 05 01  ...s000..[s.....
1B30: 83 02 05 01 73 68 6E 33  03 02 10 8C 80 27 10 F0  ....shn3.....'..
1B40: FF FF 7F 82 1C 11 80 27  10 87 02 05 01 13 1C 1D  .......'........
1B50: 80 52 02 80 F0 FF FF 7F  F0 FF FF 7F 73 30 31 31  .R..........s011
1B60: 45 02 80 F0 FF FF 7F F0  FF FF 7F 73 30 31 32 03  E..........s012.
1B70: 80 1C 8D 80 2A 10 F0 FF  FF 7F 29 10 F0 FF FF 7F  ....*.....).....
1B80: 1B 52 02 80 F0 FF FF 7F  F0 FF FF 7F 73 30 31 32  .R..........s012
1B90: 02 02 10 04 80 80 AC 1B  45 02 80 F0 FF FF 7F F0  ........E.......
1BA0: FF FF 7F 73 67 31 33 03  80 01 2D 1C 02 02 10 05  ...sg13...-.....
1BB0: 80 80 C8 1B 45 02 80 F0  FF FF 7F F0 FF FF 7F 73  ....E..........s
1BC0: 67 31 33 03 80 01 2D 1C  02 02 10 19 80 80 E4 1B  g13...-.........
1BD0: 45 02 80 F0 FF FF 7F F0  FF FF 7F 73 74 31 33 03  E..........st13.
1BE0: 80 01 2D 1C 02 02 10 1A  80 80 00 1C 45 02 80 F0  ..-.........E...
1BF0: FF FF 7F F0 FF FF 7F 73  74 31 33 03 80 01 2D 1C  .......st13...-.
1C00: 02 02 10 06 80 80 1C 1C  45 02 80 F0 FF FF 7F F0  ........E.......
1C10: FF FF 7F 73 67 31 33 03  80 01 2D 1C 45 02 80 F0  ...sg13...-.E...
1C20: FF FF 7F F0 FF FF 7F 73  30 31 33 03 80 1C 08 80  .......s013.....
1C30: 52 02 80 F0 FF FF 7F F0  FF FF 7F 73 30 31 33 52  R..........s013R
1C40: 02 80 F0 FF FF 7F F0 FF  FF 7F 73 74 31 33 52 02  ..........st13R.
1C50: 80 F0 FF FF 7F F0 FF FF  7F 73 67 31 33 45 02 80  .........sg13E..
1C60: F0 FF FF 7F F0 FF FF 7F  73 30 31 34 03 80 1C 28  ........s014...(
1C70: 80 5B 73 80 83 02 05 01  83 02 05 01 73 68 6E 34  .[s.........shn4
1C80: 1C 1B 80 2B 83 02 05 01  8E 80 1C 09 80 1C 13 80  ...+............
1C90: 23 52 02 80 F0 FF FF 7F  F0 FF FF 7F 73 30 31 34  #R..........s014
1CA0: 45 02 80 F0 FF FF 7F F0  FF FF 7F 73 30 31 36 03  E..........s016.
1CB0: 80 5B 73 80 83 02 05 01  83 02 05 01 66 73 68 30  .[s.........fsh0
1CC0: 1C 28 80 5B 73 80 83 02  05 01 83 02 05 01 66 73  .(.[s.........fs
1CD0: 68 31 2B 83 02 05 01 8F  80 1C 13 80 5B 73 80 83  h1+.........[s..
1CE0: 02 05 01 83 02 05 01 66  73 68 30 1C 28 80 23 52  .......fsh0.(.#R
1CF0: 02 80 F0 FF FF 7F F0 FF  FF 7F 73 30 31 36 45 02  ..........s016E.
1D00: 80 F0 FF FF 7F F0 FF FF  7F 73 30 31 37 03 80 1C  .........s017...
1D10: 0E 80 6E F0 FF FF 7F 2A  80 99 F0 FF FF 7F 1C 13  ..n....*........
1D20: 80 27 10 F0 FF FF 7F 7F  1C 30 80 27 10 87 02 05  .'.......0.'....
1D30: 01 15 1C 09 80 1A C0 4F  1C 09 80 52 02 80 F0 FF  .......O...R....
1D40: FF 7F F0 FF FF 7F 73 30  31 37 C5 83 80 83 02 05  ......s017......
1D50: 01 83 02 05 01 6B 69 6C  6C 03 80 5D 03 80 08 80  .....kill..]....
1D60: 1C 1D 80 1A 7D 55 48 42  80 23 45 37 80 F0 FF FF  ....}UHB.#E7....
1D70: 7F F0 FF FF 7F 7A 31 30  31 03 80 1A 9F 4F 1C 90  .....z101....O..
1D80: 80 52 37 80 F0 FF FF 7F  F0 FF FF 7F 7A 31 30 31  .R7.........z101
1D90: 45 37 80 F0 FF FF 7F F0  FF FF 7F 78 30 30 31 03  E7.........x001.
1DA0: 80 1C 0F 80 5B 91 80 83  02 05 01 83 02 05 01 74  ....[..........t
1DB0: 68 61 31 53 83 02 05 01  83 02 05 01 74 68 61 31  ha1S........tha1
1DC0: 52 37 80 F0 FF FF 7F F0  FF FF 7F 78 30 30 30 45  R7.........x000E
1DD0: 37 80 F0 FF FF 7F F0 FF  FF 7F 7A 30 30 31 03 80  7.........z001..
1DE0: 5B 91 80 83 02 05 01 83  02 05 01 74 6C 61 30 1C  [..........tla0.
1DF0: 09 80 6F 76 83 02 05 01  2B 83 02 05 01 92 80 23  ..ov....+......#
1E00: 5B 91 80 83 02 05 01 83  02 05 01 74 6C 61 31 5B  [..........tla1[
1E10: 48 80 87 02 05 01 87 02  05 01 74 6C 61 30 1C 10  H.........tla0..
1E20: 80 2B 87 02 05 01 93 80  1C 23 80 23 29 10 F0 FF  .+.......#.#)...
1E30: FF 7F 1B 52 37 80 F0 FF  FF 7F F0 FF FF 7F 7A 30  ...R7.........z0
1E40: 30 31 02 02 10 06 80 80  5E 1E 45 37 80 F0 FF FF  01......^.E7....
1E50: 7F F0 FF FF 7F 7A 67 30  33 03 80 01 A7 1E 02 02  .....zg03.......
1E60: 10 19 80 80 7A 1E 45 37  80 F0 FF FF 7F F0 FF FF  ....z.E7........
1E70: 7F 7A 74 30 33 03 80 01  A7 1E 02 02 10 1A 80 80  .zt03...........
1E80: 96 1E 45 37 80 F0 FF FF  7F F0 FF FF 7F 7A 74 30  ..E7.........zt0
1E90: 33 03 80 01 A7 1E 45 37  80 F0 FF FF 7F F0 FF FF  3.....E7........
1EA0: 7F 7A 30 30 33 03 80 5B  17 80 83 02 05 01 83 02  .z003..[........
1EB0: 05 01 66 61 30 31 2B 83  02 05 01 94 80 1C 30 80  ..fa01+.......0.
1EC0: 5B 17 80 83 02 05 01 83  02 05 01 66 61 30 30 23  [..........fa00#
1ED0: 59 01 83 02 05 01 20 80  4B 83 02 05 01 95 80 2B  Y..... .K......+
1EE0: 83 02 05 01 96 80 1C 1B  80 4A F0 FF FF 7F 83 02  .........J......
1EF0: 05 01 6F 76 83 02 05 01  5B 17 80 83 02 05 01 83  ..ov....[.......
1F00: 02 05 01 66 30 30 30 1C  09 80 23 7C 01 83 02 05  ...f000...#|....
1F10: 01 6B 69 64 6C 30 87 02  05 01 52 37 80 F0 FF FF  .kidl0....R7....
1F20: 7F F0 FF FF 7F 7A 74 30  33 52 37 80 F0 FF FF 7F  .....zt03R7.....
1F30: F0 FF FF 7F 7A 67 30 33  52 37 80 F0 FF FF 7F F0  ....zg03R7......
1F40: FF FF 7F 7A 30 30 33 45  37 80 F0 FF FF 7F F0 FF  ...z003E7.......
1F50: FF 7F 7A 30 30 34 03 80  5B 91 80 83 02 05 01 83  ..z004..[.......
1F60: 02 05 01 74 6C 61 30 2B  83 02 05 01 97 80 23 2B  ...tla0+......#+
1F70: 83 02 05 01 98 80 23 24  99 80 03 80 03 80 25 02  ......#$......%.
1F80: 00 10 03 80 00 CE 1F 5B  91 80 83 02 05 01 83 02  .......[........
1F90: 05 01 74 6C 61 31 52 37  80 F0 FF FF 7F F0 FF FF  ..tla1R7........
1FA0: 7F 7A 30 30 34 1A 89 2E  5B 91 80 83 02 05 01 83  .z004...[.......
1FB0: 02 05 01 74 6C 61 30 45  37 80 F0 FF FF 7F F0 FF  ...tla0E7.......
1FC0: FF 7F 7A 30 30 34 03 80  01 77 1F 01 28 20 02 00  ..z004...w..( ..
1FD0: 10 01 80 00 1D 20 5B 91  80 83 02 05 01 83 02 05  ..... [.........
1FE0: 01 74 6C 61 31 52 37 80  F0 FF FF 7F F0 FF FF 7F  .tla1R7.........
1FF0: 7A 30 30 34 1A 89 2E 5B  91 80 83 02 05 01 83 02  z004...[........
2000: 05 01 74 6C 61 30 45 37  80 F0 FF FF 7F F0 FF FF  ..tla0E7........
2010: 7F 7A 30 30 34 03 80 01  77 1F 01 28 20 02 00 10  .z004...w..( ...
2020: 07 80 00 28 20 01 28 20  5B 91 80 83 02 05 01 83  ...( .( [.......
2030: 02 05 01 74 6C 61 31 1C  9A 80 52 37 80 F0 FF FF  ...tla1...R7....
2040: 7F F0 FF FF 7F 7A 30 30  34 02 02 10 04 80 80 65  .....z004......e
2050: 20 45 37 80 F0 FF FF 7F  F0 FF FF 7F 7A 67 30 36   E7.........zg06
2060: 03 80 01 CA 20 02 02 10  19 80 80 81 20 45 37 80  .... ....... E7.
2070: F0 FF FF 7F F0 FF FF 7F  7A 74 30 36 03 80 01 CA  ........zt06....
2080: 20 02 02 10 1A 80 80 9D  20 45 37 80 F0 FF FF 7F   ....... E7.....
2090: F0 FF FF 7F 7A 74 30 36  03 80 01 CA 20 02 02 10  ....zt06.... ...
20A0: 06 80 80 B9 20 45 37 80  F0 FF FF 7F F0 FF FF 7F  .... E7.........
20B0: 7A 67 30 36 03 80 01 CA  20 45 37 80 F0 FF FF 7F  zg06.... E7.....
20C0: F0 FF FF 7F 7A 30 30 36  03 80 1C 11 80 5B 91 80  ....z006.....[..
20D0: 83 02 05 01 83 02 05 01  74 68 61 30 1C 1B 80 2B  ........tha0...+
20E0: 83 02 05 01 9B 80 23 1C  0D 80 24 9C 80 03 80 03  ......#...$.....
20F0: 80 25 02 00 10 03 80 00  03 21 1A B8 2E 01 E7 20  .%.......!..... 
2100: 01 1F 21 02 00 10 01 80  00 0E 21 01 1F 21 02 00  ..!.......!..!..
2110: 10 07 80 00 1F 21 1A B8  2E 01 E7 20 01 1F 21 5B  .....!..... ..![
2120: 91 80 83 02 05 01 83 02  05 01 74 68 61 31 1C 9A  ..........tha1..
2130: 80 52 37 80 F0 FF FF 7F  F0 FF FF 7F 7A 67 30 36  .R7.........zg06
2140: 52 37 80 F0 FF FF 7F F0  FF FF 7F 7A 74 30 36 52  R7.........zt06R
2150: 37 80 F0 FF FF 7F F0 FF  FF 7F 7A 30 30 36 45 37  7.........z006E7
2160: 80 F0 FF FF 7F F0 FF FF  7F 7A 30 30 37 03 80 1C  .........z007...
2170: 11 80 5B 9D 80 83 02 05  01 83 02 05 01 74 6C 63  ..[..........tlc
2180: 30 1C 0E 80 2B 83 02 05  01 9E 80 23 1C 0D 80 24  0...+......#...$
2190: 9F 80 03 80 03 80 25 02  00 10 03 80 00 D7 21 5B  ......%.......![
21A0: 9D 80 83 02 05 01 83 02  05 01 74 6C 63 31 1A 89  ..........tlc1..
21B0: 2E 45 37 80 F0 FF FF 7F  F0 FF FF 7F 7A 30 30 37  .E7.........z007
21C0: 03 80 5B 9D 80 83 02 05  01 83 02 05 01 74 6C 63  ..[..........tlc
21D0: 30 01 8C 21 01 22 22 02  00 10 01 80 00 17 22 5B  0..!.""......."[
21E0: 9D 80 83 02 05 01 83 02  05 01 74 6C 63 31 1A 89  ..........tlc1..
21F0: 2E 45 37 80 F0 FF FF 7F  F0 FF FF 7F 7A 30 30 37  .E7.........z007
2200: 03 80 5B 9D 80 83 02 05  01 83 02 05 01 74 6C 63  ..[..........tlc
2210: 30 01 8C 21 01 22 22 02  00 10 07 80 00 22 22 01  0..!.""......"".
2220: 22 22 5B 9D 80 83 02 05  01 83 02 05 01 74 6C 63  ""[..........tlc
2230: 31 1C 1B 80 52 37 80 F0  FF FF 7F F0 FF FF 7F 7A  1...R7.........z
2240: 30 30 37 45 37 80 F0 FF  FF 7F F0 FF FF 7F 7A 30  007E7.........z0
2250: 30 31 03 80 1C 11 80 2B  83 02 05 01 A0 80 23 4A  01.....+......#J
2260: 83 02 05 01 87 02 05 01  6F 76 83 02 05 01 5B 91  ........ov....[.
2270: 80 83 02 05 01 83 02 05  01 74 6C 61 30 1C 28 80  .........tla0.(.
2280: 2B 83 02 05 01 A1 80 23  4A F0 FF FF 7F 87 02 05  +......#J.......
2290: 01 5B 48 80 87 02 05 01  87 02 05 01 74 6C 61 30  .[H.........tla0
22A0: 7C 01 87 02 05 01 2B 87  02 05 01 A2 80 23 52 37  |.....+......#R7
22B0: 80 F0 FF FF 7F F0 FF FF  7F 7A 30 30 31 45 37 80  .........z001E7.
22C0: F0 FF FF 7F F0 FF FF 7F  7A 31 30 38 03 80 1C 1B  ........z108....
22D0: 80 2B 87 02 05 01 A3 80  23 1A C0 4F 1C 09 80 53  .+......#..O...S
22E0: 87 02 05 01 87 02 05 01  74 6C 61 30 7B F0 FF FF  ........tla0{...
22F0: 7F 7B 83 02 05 01 6B 69  64 6C 30 F0 FF FF 7F 6B  .{....kidl0....k
2300: 69 64 6C 30 83 02 05 01  52 37 80 F0 FF FF 7F F0  idl0....R7......
2310: FF FF 7F 7A 31 30 38 1C  01 80 34 A4 80 77 A5 80  ...z108...4..w..
2320: A6 80 AB 09 1C 01 80 BA  BF 02 05 01 A7 80 A8 80  ................
2330: A9 80 AA 80 59 05 BC 02  05 01 01 BA BC 02 05 01  ....Y...........
2340: AB 80 AC 80 AD 80 59 80  27 10 BC 02 05 01 06 27  ......Y.'......'
2350: 10 BF 02 05 01 05 92 01  BF 02 05 01 92 01 BC 02  ................
2360: 05 01 94 01 BF 02 05 01  94 01 BC 02 05 01 80 BF  ................
2370: 02 05 01 80 BC 02 05 01  5B AE 80 BF 02 05 01 BF  ........[.......
2380: 02 05 01 63 72 67 34 5B  AF 80 BC 02 05 01 BC 02  ...crg4[........
2390: 05 01 66 6C 79 6C 6C BC  02 05 01 03 80 01 80 53  ..flyll........S
23A0: BF 02 05 01 BF 02 05 01  63 72 67 34 45 B0 80 F0  ........crg4E...
23B0: FF FF 7F F0 FF FF 7F 7A  30 30 35 03 80 1A 34 51  .......z005...4Q
23C0: 1C 59 80 C5 B1 80 BC 02  05 01 BC 02 05 01 73 30  .Y............s0
23D0: 30 32 03 80 1C B2 80 52  B0 80 F0 FF FF 7F F0 FF  02.....R........
23E0: FF 7F 7A 30 30 35 45 B0  80 F0 FF FF 7F F0 FF FF  ..z005E.........
23F0: 7F 7A 30 30 36 03 80 1C  90 80 1A C0 4F 1C 09 80  .z006.......O...
2400: 2B 87 02 05 01 B3 80 23  2B 83 02 05 01 B4 80 23  +......#+......#
2410: 52 B0 80 F0 FF FF 7F F0  FF FF 7F 7A 30 30 36 4E  R..........z006N
2420: 01 BF 02 05 01 1C 01 80  34 0F 80 77 A5 80 01 80  ........4..w....
2430: AB 09 1C 01 80 4E 00 BC  02 05 01 27 10 BC 02 05  .....N.....'....
2440: 01 06 27 10 BD 02 05 01  04 27 10 BE 02 05 01 04  ..'......'......
2450: 27 10 EC 02 05 01 04 27  10 ED 02 05 01 04 27 10  '......'......'.
2460: 85 02 05 01 04 1C 01 80  92 01 BC 02 05 01 92 01  ................
2470: BD 02 05 01 92 01 BE 02  05 01 92 01 EC 02 05 01  ................
2480: 92 01 ED 02 05 01 92 01  85 02 05 01 94 01 BC 02  ................
2490: 05 01 94 01 BD 02 05 01  94 01 BE 02 05 01 94 01  ................
24A0: EC 02 05 01 94 01 ED 02  05 01 94 01 85 02 05 01  ................
24B0: 80 BC 02 05 01 80 BD 02  05 01 80 BE 02 05 01 80  ................
24C0: F0 FF FF 7F 80 83 02 05  01 80 EC 02 05 01 80 ED  ................
24D0: 02 05 01 80 85 02 05 01  BA EC 02 05 01 B5 80 B6  ................
24E0: 80 B7 80 B8 80 BA F0 FF  FF 7F B9 80 BA 80 B7 80  ................
24F0: BB 80 BA 83 02 05 01 BC  80 BD 80 B7 80 BB 80 4A  ...............J
2500: F0 FF FF 7F EC 02 05 01  4A 83 02 05 01 EC 02 05  ........J.......
2510: 01 1C 0D 80 59 05 BC 02  05 01 01 59 05 BD 02 05  ....Y......Y....
2520: 01 01 59 05 BE 02 05 01  01 BA BC 02 05 01 BE 80  ..Y.............
2530: BF 80 C0 80 C1 80 BA BD  02 05 01 C2 80 C3 80 C0  ................
2540: 80 C1 80 BA BE 02 05 01  C4 80 C5 80 C0 80 C1 80  ................
2550: BA EC 02 05 01 C6 80 C7  80 03 80 BB 80 BA ED 02  ................
2560: 05 01 C8 80 C9 80 03 80  BB 80 BA 85 02 05 01 CA  ................
2570: 80 CB 80 03 80 BB 80 4A  EC 02 05 01 ED 02 05 01  .......J........
2580: 4A ED 02 05 01 EC 02 05  01 4A 85 02 05 01 EC 02  J........J......
2590: 05 01 6F 76 85 02 05 01  59 04 83 02 05 01 28 80  ..ov....Y.....(.
25A0: 59 04 F0 FF FF 7F 28 80  5B 17 80 83 02 05 01 83  Y.....(.[.......
25B0: 02 05 01 66 68 30 30 5B  CC 80 83 02 05 01 83 02  ...fh00[........
25C0: 05 01 75 74 75 30 45 CD  80 F0 FF FF 7F F0 FF FF  ..utu0E.........
25D0: 7F 72 31 31 36 03 80 1A  34 51 1C 2B 80 5B CC 80  .r116...4Q.+.[..
25E0: 83 02 05 01 83 02 05 01  75 74 75 31 5B CE 80 EC  ........utu1[...
25F0: 02 05 01 EC 02 05 01 66  75 6E 6C 5B CF 80 85 02  .......funl[....
2600: 05 01 85 02 05 01 6B 79  6F 6C 5B D0 80 ED 02 05  ......kyol[.....
2610: 01 ED 02 05 01 6B 61 65  30 52 CD 80 F0 FF FF 7F  .....kae0R......
2620: F0 FF FF 7F 72 31 31 36  45 CD 80 F0 FF FF 7F F0  ....r116E.......
2630: FF FF 7F 72 31 31 37 03  80 53 83 02 05 01 83 02  ...r117..S......
2640: 05 01 75 74 75 31 5B 91  80 83 02 05 01 83 02 05  ..utu1[.........
2650: 01 74 68 61 30 1C 1F 80  27 10 47 02 05 01 0B 03  .tha0...'.G.....
2660: 02 10 D1 80 27 10 46 02  05 01 01 52 CD 80 F0 FF  ....'.F....R....
2670: FF 7F F0 FF FF 7F 72 31  31 37 45 CD 80 F0 FF FF  ......r117E.....
2680: 7F F0 FF FF 7F 72 31 31  38 03 80 1C 09 80 5B 17  .....r118.....[.
2690: 80 83 02 05 01 83 02 05  01 66 6A 30 30 1C 13 80  .........fj00...
26A0: 79 00 F0 FF FF 7F 83 02  05 01 52 CD 80 F0 FF FF  y.........R.....
26B0: 7F F0 FF FF 7F 72 31 31  38 45 CD 80 F0 FF FF 7F  .....r118E......
26C0: F0 FF FF 7F 72 31 31 39  03 80 27 10 83 02 05 01  ....r119..'.....
26D0: 2C 5B 17 80 83 02 05 01  83 02 05 01 66 6A 30 30  ,[..........fj00
26E0: 7C 01 83 02 05 01 81 01  83 02 05 01 1C 09 80 52  |..............R
26F0: CD 80 F0 FF FF 7F F0 FF  FF 7F 72 31 31 39 45 CD  ..........r119E.
2700: 80 F0 FF FF 7F F0 FF FF  7F 72 31 32 30 03 80 27  .........r120..'
2710: 10 F0 FF FF 7F 2A 1C 0E  80 5B 17 80 83 02 05 01  .....*...[......
2720: 83 02 05 01 66 63 30 30  7A 00 83 02 05 01 1C 1D  ....fc00z.......
2730: 80 52 CD 80 F0 FF FF 7F  F0 FF FF 7F 72 31 32 30  .R..........r120
2740: 45 37 80 F0 FF FF 7F F0  FF FF 7F 76 30 30 30 03  E7.........v000.
2750: 80 1C 39 80 52 37 80 F0  FF FF 7F F0 FF FF 7F 76  ..9.R7.........v
2760: 30 30 30 45 CD 80 F0 FF  FF 7F F0 FF FF 7F 72 31  000E..........r1
2770: 32 31 03 80 1C 39 80 1A  C0 4F 1C 09 80 2A 10 46  21...9...O...*.F
2780: 02 05 01 7A 00 F0 FF FF  7F 52 CD 80 F0 FF FF 7F  ...z.....R......
2790: F0 FF FF 7F 72 31 32 31  45 CD 80 F0 FF FF 7F F0  ....r121E.......
27A0: FF FF 7F 30 62 6C 66 03  80 4E 01 EC 02 05 01 4E  ...0blf..N.....N
27B0: 01 ED 02 05 01 4E 01 85  02 05 01 4E 01 BC 02 05  .....N.....N....
27C0: 01 4E 01 BD 02 05 01 4E  01 BE 02 05 01 1C 0E 80  .N.....N........
27D0: 1C 01 80 34 D2 80 77 A5  80 01 80 AB 09 1C 01 80  ...4..w.........
27E0: BA 87 02 05 01 D3 80 D4  80 3D 80 D5 80 BA 83 02  .........=......
27F0: 05 01 D6 80 D7 80 3D 80  52 80 BA F0 FF FF 7F D8  ......=.R.......
2800: 80 D9 80 3D 80 DA 80 80  F0 FF FF 7F 80 83 02 05  ...=............
2810: 01 80 87 02 05 01 4A F0  FF FF 7F 87 02 05 01 4A  ......J........J
2820: 87 02 05 01 83 02 05 01  81 00 83 02 05 01 7C 00  ..............|.
2830: 83 02 05 01 5B 17 80 83  02 05 01 83 02 05 01 66  ....[..........f
2840: 63 30 30 7C 01 87 02 05  01 1C 19 80 45 37 80 F0  c00|........E7..
2850: FF FF 7F F0 FF FF 7F 7A  30 30 39 03 80 1A 9F 4F  .......z009....O
2860: 03 02 10 2B 80 27 10 F0  FF FF 7F 82 7B 83 02 05  ...+.'......{...
2870: 01 1C 09 80 6B 69 64 6C  30 83 02 05 01 2B 87 02  ....kidl0....+..
2880: 05 01 DB 80 23 2A 10 F0  FF FF 7F 52 37 80 F0 FF  ....#*.....R7...
2890: FF 7F F0 FF FF 7F 7A 30  30 39 45 37 80 F0 FF FF  ......z009E7....
28A0: 7F F0 FF FF 7F 7A 30 31  30 03 80 03 02 10 39 80  .....z010.....9.
28B0: 27 10 F0 FF FF 7F 82 1C  28 80 5B 17 80 83 02 05  '.......(.[.....
28C0: 01 83 02 05 01 66 63 30  31 2B 83 02 05 01 DC 80  .....fc01+......
28D0: 23 2B 83 02 05 01 DD 80  2A 10 F0 FF FF 7F 5B 17  #+......*.....[.
28E0: 80 83 02 05 01 83 02 05  01 66 63 30 30 23 5B 48  .........fc00#[H
28F0: 80 87 02 05 01 87 02 05  01 74 6C 61 32 52 37 80  .........tla2R7.
2900: F0 FF FF 7F F0 FF FF 7F  7A 30 31 30 45 37 80 F0  ........z010E7..
2910: FF FF 7F F0 FF FF 7F 7A  30 31 31 03 80 2B 87 02  .......z011..+..
2920: 05 01 DE 80 23 81 00 83  02 05 01 7C 00 83 02 05  ....#......|....
2930: 01 5B 17 80 83 02 05 01  83 02 05 01 66 63 30 30  .[..........fc00
2940: 2B 83 02 05 01 DF 80 23  5B 48 80 87 02 05 01 87  +......#[H......
2950: 02 05 01 74 6C 61 33 2B  87 02 05 01 E0 80 23 5B  ...tla3+......#[
2960: 9D 80 83 02 05 01 83 02  05 01 74 6C 63 30 1C 11  ..........tlc0..
2970: 80 52 37 80 F0 FF FF 7F  F0 FF FF 7F 7A 30 31 31  .R7.........z011
2980: 45 37 80 F0 FF FF 7F F0  FF FF 7F 7A 30 31 32 03  E7.........z012.
2990: 80 1C E1 80 6B 69 64 6C  30 87 02 05 01 5B 17 80  ....kidl0....[..
29A0: 83 02 05 01 83 02 05 01  66 63 30 31 2B 83 02 05  ........fc01+...
29B0: 01 E2 80 1C 0E 80 5B 17  80 83 02 05 01 83 02 05  ......[.........
29C0: 01 66 63 30 30 23 52 37  80 F0 FF FF 7F F0 FF FF  .fc00#R7........
29D0: 7F 7A 30 31 32 45 37 80  F0 FF FF 7F F0 FF FF 7F  .z012E7.........
29E0: 7A 30 31 33 03 80 1C 28  80 2B 83 02 05 01 E3 80  z013...(.+......
29F0: 23 5B 17 80 83 02 05 01  83 02 05 01 66 30 30 30  #[..........f000
2A00: 7C 01 83 02 05 01 5B E4  80 87 02 05 01 87 02 05  |.....[.........
2A10: 01 74 6C 6B 30 1C 1B 80  2B 87 02 05 01 E5 80 23  .tlk0...+......#
2A20: 1C 28 80 52 37 80 F0 FF  FF 7F F0 FF FF 7F 7A 30  .(.R7.........z0
2A30: 31 33 45 37 80 F0 FF FF  7F F0 FF FF 7F 7A 30 31  13E7.........z01
2A40: 34 03 80 1C 28 80 6B 69  64 6C 30 87 02 05 01 5B  4...(.kidl0....[
2A50: 9D 80 83 02 05 01 83 02  05 01 74 6C 63 31 53 83  ..........tlc1S.
2A60: 02 05 01 83 02 05 01 74  6C 63 31 1C 0E 80 2B 83  .......tlc1...+.
2A70: 02 05 01 E6 80 23 52 37  80 F0 FF FF 7F F0 FF FF  .....#R7........
2A80: 7F 7A 30 31 34 45 37 80  F0 FF FF 7F F0 FF FF 7F  .z014E7.........
2A90: 7A 30 31 35 03 80 1C 0F  80 2B 83 02 05 01 E7 80  z015.....+......
2AA0: 23 52 37 80 F0 FF FF 7F  F0 FF FF 7F 7A 30 31 35  #R7.........z015
2AB0: 45 37 80 F0 FF FF 7F F0  FF FF 7F 7A 30 31 36 03  E7.........z016.
2AC0: 80 5B E4 80 87 02 05 01  87 02 05 01 74 68 6B 30  .[..........thk0
2AD0: 1C 0F 80 2B 87 02 05 01  E8 80 23 81 00 83 02 05  ...+......#.....
2AE0: 01 7C 00 83 02 05 01 5B  17 80 83 02 05 01 83 02  .|.....[........
2AF0: 05 01 66 63 30 30 5B E9  80 83 02 05 01 83 02 05  ..fc00[.........
2B00: 01 74 68 62 30 1C EA 80  2B 83 02 05 01 EB 80 1C  .thb0...+.......
2B10: 59 80 23 52 37 80 F0 FF  FF 7F F0 FF FF 7F 7A 30  Y.#R7.........z0
2B20: 31 36 45 37 80 F0 FF FF  7F F0 FF FF 7F 7A 31 31  16E7.........z11
2B30: 36 03 80 1C 23 80 5B E9  80 83 02 05 01 83 02 05  6...#.[.........
2B40: 01 74 68 62 31 1C 13 80  53 83 02 05 01 83 02 05  .thb1...S.......
2B50: 01 74 68 62 31 5B 17 80  83 02 05 01 83 02 05 01  .thb1[..........
2B60: 66 63 30 31 5B EC 80 83  02 05 01 83 02 05 01 79  fc01[..........y
2B70: 65 73 30 03 02 10 6F 80  27 10 F0 FF FF 7F 82 2B  es0...o.'......+
2B80: 83 02 05 01 ED 80 2A 10  F0 FF FF 7F 5B 17 80 83  ......*.....[...
2B90: 02 05 01 83 02 05 01 66  63 30 30 23 52 37 80 F0  .......fc00#R7..
2BA0: FF FF 7F F0 FF FF 7F 7A  31 31 36 45 37 80 F0 FF  .......z116E7...
2BB0: FF 7F F0 FF FF 7F 7A 30  31 37 03 80 1C 28 80 2A  ......z017...(.*
2BC0: 10 F0 FF FF 7F 5B 17 80  83 02 05 01 83 02 05 01  .....[..........
2BD0: 66 69 30 31 2B 83 02 05  01 EE 80 1C 39 80 5B 17  fi01+.......9.[.
2BE0: 80 83 02 05 01 83 02 05  01 66 69 30 30 1C 2B 80  .........fi00.+.
2BF0: 23 1A C0 4F 1C 09 80 52  37 80 F0 FF FF 7F F0 FF  #..O...R7.......
2C00: FF 7F 7A 30 31 37 1A 30  56 48 42 80 23 45 37 80  ..z017.0VHB.#E7.
2C10: F0 FF FF 7F F0 FF FF 7F  77 30 30 30 03 80 1A 9F  ........w000....
2C20: 4F 1C 20 80 5B EF 80 B8  02 05 01 B8 02 05 01 77  O. .[..........w
2C30: 6C 6B 64 27 10 B8 02 05  01 09 1C F0 80 52 37 80  lkd'.........R7.
2C40: F0 FF FF 7F F0 FF FF 7F  77 30 30 30 45 37 80 F0  ........w000E7..
2C50: FF FF 7F F0 FF FF 7F 77  31 30 31 03 80 53 B8 02  .......w101..S..
2C60: 05 01 B8 02 05 01 77 6C  6B 64 1C 39 80 52 37 80  ......wlkd.9.R7.
2C70: F0 FF FF 7F F0 FF FF 7F  77 31 30 31 45 37 80 F0  ........w101E7..
2C80: FF FF 7F F0 FF FF 7F 77  30 30 32 03 80 1C F1 80  .......w002.....
2C90: 52 37 80 F0 FF FF 7F F0  FF FF 7F 77 30 30 32 45  R7.........w002E
2CA0: 37 80 F0 FF FF 7F F0 FF  FF 7F 77 30 30 35 03 80  7.........w005..
2CB0: 1C 1D 80 52 37 80 F0 FF  FF 7F F0 FF FF 7F 77 30  ...R7.........w0
2CC0: 30 35 45 37 80 F0 FF FF  7F F0 FF FF 7F 77 30 30  05E7.........w00
2CD0: 38 03 80 5B F2 80 B8 02  05 01 B8 02 05 01 66 63  8..[..........fc
2CE0: 30 30 1C 20 80 5B F2 80  B8 02 05 01 B8 02 05 01  00. .[..........
2CF0: 66 64 30 30 1C 20 80 5B  F2 80 B8 02 05 01 B8 02  fd00. .[........
2D00: 05 01 66 64 30 31 2B B8  02 05 01 F3 80 1C 0F 80  ..fd01+.........
2D10: 5B F2 80 B8 02 05 01 B8  02 05 01 66 64 30 30 BA  [..........fd00.
2D20: BB 02 05 01 F4 80 F5 80  F6 80 52 80 1C 0E 80 23  ..........R....#
2D30: 52 37 80 F0 FF FF 7F F0  FF FF 7F 77 30 30 38 45  R7.........w008E
2D40: 37 80 F0 FF FF 7F F0 FF  FF 7F 77 30 30 31 03 80  7.........w001..
2D50: 1C 08 80 52 37 80 F0 FF  FF 7F F0 FF FF 7F 77 30  ...R7.........w0
2D60: 30 31 45 37 80 F0 FF FF  7F F0 FF FF 7F 77 31 30  01E7.........w10
2D70: 32 03 80 1C 08 80 52 37  80 F0 FF FF 7F F0 FF FF  2.....R7........
2D80: 7F 77 31 30 32 45 37 80  F0 FF FF 7F F0 FF FF 7F  .w102E7.........
2D90: 77 30 30 33 03 80 1C 08  80 52 37 80 F0 FF FF 7F  w003.....R7.....
2DA0: F0 FF FF 7F 77 30 30 33  45 37 80 F0 FF FF 7F F0  ....w003E7......
2DB0: FF FF 7F 77 30 30 34 03  80 1C 39 80 5B F2 80 B8  ...w004...9.[...
2DC0: 02 05 01 B8 02 05 01 66  64 30 31 2B B8 02 05 01  .......fd01+....
2DD0: F7 80 1C 13 80 5B F2 80  B8 02 05 01 B8 02 05 01  .....[..........
2DE0: 66 64 30 30 1C 09 80 23  52 37 80 F0 FF FF 7F F0  fd00...#R7......
2DF0: FF FF 7F 77 30 30 34 45  37 80 F0 FF FF 7F F0 FF  ...w004E7.......
2E00: FF 7F 77 30 30 36 03 80  1C 08 80 52 37 80 F0 FF  ..w006.....R7...
2E10: FF 7F F0 FF FF 7F 77 30  30 36 45 37 80 F0 FF FF  ......w006E7....
2E20: 7F F0 FF FF 7F 77 30 30  37 03 80 1C 8C 80 1A C0  .....w007.......
2E30: 4F 1C 09 80 45 37 80 F0  FF FF 7F F0 FF FF 7F 30  O...E7.........0
2E40: 62 6C 72 03 80 52 37 80  F0 FF FF 7F F0 FF FF 7F  blr..R7.........
2E50: 77 30 30 37 5D 03 80 08  80 4E 00 F0 FF FF 7F 1C  w007]....N......
2E60: 10 80 AB 11 03 80 1C 01  80 35 0F 80 78 1C 10 80  .........5..x...
2E70: AB 0A 46 00 45 08 80 F0  FF FF 7F F0 FF FF 7F 66  ..F.E..........f
2E80: 64 69 32 03 80 AB 10 21  00 45 37 80 F0 FF FF 7F  di2....!.E7.....
2E90: F0 FF FF 7F 7A 66 30 30  03 80 1C 1B 80 2B 83 02  ....zf00.....+..
2EA0: 05 01 F8 80 23 1C 09 80  52 37 80 F0 FF FF 7F F0  ....#...R7......
2EB0: FF FF 7F 7A 66 30 30 1B  5B 91 80 83 02 05 01 83  ...zf00.[.......
2EC0: 02 05 01 74 68 61 31 52  37 80 F0 FF FF 7F F0 FF  ...tha1R7.......
2ED0: FF 7F 7A 67 30 36 52 37  80 F0 FF FF 7F F0 FF FF  ..zg06R7........
2EE0: 7F 7A 74 30 36 52 37 80  F0 FF FF 7F F0 FF FF 7F  .zt06R7.........
2EF0: 7A 30 30 36 45 37 80 F0  FF FF 7F F0 FF FF 7F 7A  z006E7.........z
2F00: 66 30 30 03 80 1C 1B 80  2B 83 02 05 01 F8 80 23  f00.....+......#
2F10: 1C 09 80 52 37 80 F0 FF  FF 7F F0 FF FF 7F 7A 66  ...R7.........zf
2F20: 30 30 02 02 10 04 80 80  3E 2F 45 37 80 F0 FF FF  00......>/E7....
2F30: 7F F0 FF FF 7F 7A 67 30  36 03 80 01 A3 2F 02 02  .....zg06..../..
2F40: 10 19 80 80 5A 2F 45 37  80 F0 FF FF 7F F0 FF FF  ....Z/E7........
2F50: 7F 7A 74 30 36 03 80 01  A3 2F 02 02 10 1A 80 80  .zt06..../......
2F60: 76 2F 45 37 80 F0 FF FF  7F F0 FF FF 7F 7A 74 30  v/E7.........zt0
2F70: 36 03 80 01 A3 2F 02 02  10 06 80 80 92 2F 45 37  6..../......./E7
2F80: 80 F0 FF FF 7F F0 FF FF  7F 7A 67 30 36 03 80 01  .........zg06...
2F90: A3 2F 45 37 80 F0 FF FF  7F F0 FF FF 7F 7A 30 30  ./E7.........z00
2FA0: 36 03 80 5B 91 80 83 02  05 01 83 02 05 01 74 68  6..[..........th
2FB0: 61 30 1B                                          a0.             
```

#### Opcodes

```
  0: 0x0001 [0x42] SET_CLI_EVENT_CANCEL_DATA()
  1: 0x0002 [0x1A] CALL_SUBROUTINE(address=0x4FC0)
  2: 0x0005 [0x46] CAMERA_CONTROL: Disable user control
  3: 0x0007 [0x38] SET_CLIENT_EVENT_MODE(mode=19*)
  4: 0x000A [0x27] REQ_SET(priority=0x10, entity_id=Lilisette (ID: 17105539/0x01050283), tag_num=0x04)
  5: 0x0011 [0x27] REQ_SET(priority=0x10, entity_id=Cait Sith (ID: 17105543/0x01050287), tag_num=0x04)
  6: 0x0018 [0x2F] Raustigne (ID: 17105391/0x010501EF)->Render.Flags0 &= ~0x80000 // Bit 19
  7: 0x001E [0x4E] SET_ENTITY_HIDE_FLAG: Show Raustigne (ID: 17105391/0x010501EF)
  8: 0x0024 [0x80] LOAD_WAIT(entity=LocalPlayer)
  9: 0x0029 [0x80] LOAD_WAIT(entity=Lilisette (ID: 17105539/0x01050283))
 10: 0x002E [0x80] LOAD_WAIT(entity=Cait Sith (ID: 17105543/0x01050287))
 11: 0x0033 [0x80] LOAD_WAIT(entity=Raustigne (ID: 17105391/0x010501EF))
 12: 0x0038 [0x92] Lilisette (ID: 17105539/0x01050283)->Render.Flags3 ^= 0x01
 13: 0x003E [0x92] Cait Sith (ID: 17105543/0x01050287)->Render.Flags3 ^= 0x01
 14: 0x0044 [0x92] Raustigne (ID: 17105391/0x010501EF)->Render.Flags3 ^= 0x01
 15: 0x004A [0x94] LocalPlayer->Render.Flags3 ^= 0x01
 16: 0x0050 [0x94] Lilisette (ID: 17105539/0x01050283)->Render.Flags3 ^= 0x01
 17: 0x0056 [0x94] Cait Sith (ID: 17105543/0x01050287)->Render.Flags3 ^= 0x01
 18: 0x005C [0x94] Raustigne (ID: 17105391/0x010501EF)->Render.Flags3 ^= 0x01
 19: 0x0062 [0x1A] CALL_SUBROUTINE(address=0x51EE)
 20: 0x0065 [0x29] REQ_SET_WAIT(priority=0x10, entity_id=LocalPlayer, tag_num=0x1B)
 21: 0x006C [0x02] IF !(Work_Zone[2] == 1*) GOTO 0x0088
 22: 0x0074 [0x45] LOAD_SCHEDULED_TASK: Load scheduler "wg01" with entities [LocalPlayer, LocalPlayer], work=[513*, 0*]
 23: 0x0085 [0x01] GOTO 0x00ED
 24: 0x0088 [0x02] IF !(Work_Zone[2] == 3*) GOTO 0x00A4
 25: 0x0090 [0x45] LOAD_SCHEDULED_TASK: Load scheduler "wg01" with entities [LocalPlayer, LocalPlayer], work=[513*, 0*]
 26: 0x00A1 [0x01] GOTO 0x00ED
 27: 0x00A4 [0x02] IF !(Work_Zone[2] == 4*) GOTO 0x00C0
 28: 0x00AC [0x45] LOAD_SCHEDULED_TASK: Load scheduler "wg01" with entities [LocalPlayer, LocalPlayer], work=[513*, 0*]
 29: 0x00BD [0x01] GOTO 0x00ED
 30: 0x00C0 [0x02] IF !(Work_Zone[2] == 8*) GOTO 0x00DC
 31: 0x00C8 [0x45] LOAD_SCHEDULED_TASK: Load scheduler "wg01" with entities [LocalPlayer, LocalPlayer], work=[513*, 0*]
 32: 0x00D9 [0x01] GOTO 0x00ED
 33: 0x00DC [0x45] LOAD_SCHEDULED_TASK: Load scheduler "w001" with entities [LocalPlayer, LocalPlayer], work=[513*, 0*]

SUBROUTINE_00ED:
 34: 0x00ED [0x1A] CALL_SUBROUTINE(address=0x4F9F)
 35: 0x00F0 [0x6E] Raustigne (ID: 17105391/0x010501EF) uses emote 2*
 36: 0x00F7 [0x99] Wait for Raustigne (ID: 17105391/0x010501EF) animation to complete
 37: 0x00FC [0x03] Work_Zone[2] = 200*
 38: 0x0101 [0x27] REQ_SET(priority=0x10, entity_id=LocalPlayer, tag_num=0x82)
 39: 0x0108 [0x1C] WAIT(30* ticks)
 40: 0x010B [0x2B] Raustigne (ID: 17105391/0x010501EF) [14203*]:
     "Ah, greetings, <Player>. Glad am I to see you returned unscathed."
 41: 0x0112 [0x23] WAIT_FOR_DIALOG_INTERACTION
 42: 0x0113 [0x2A] GET_REQ_LEVEL(level=16, entity_id=LocalPlayer)
 43: 0x0119 [0x52] END_LOAD_SCHEDULER: End scheduler "wg01" with entities [LocalPlayer, LocalPlayer], work=513*
 44: 0x0128 [0x52] END_LOAD_SCHEDULER: End scheduler "w001" with entities [LocalPlayer, LocalPlayer], work=513*
 45: 0x0137 [0x45] LOAD_SCHEDULED_TASK: Load scheduler "w102" with entities [LocalPlayer, LocalPlayer], work=[513*, 0*]
 46: 0x0148 [0x4B] UPDATE_ENTITY_YAW(entity=Raustigne (ID: 17105391/0x010501EF), yaw=14.9*)
 47: 0x014F [0x1C] WAIT(30* ticks)
 48: 0x0152 [0x2B] Raustigne (ID: 17105391/0x010501EF) [14204*]:
     "Sir Ragelise awaits within. Please come with me, if you will."
 49: 0x0159 [0x27] REQ_SET(priority=0x10, entity_id=Raustigne (ID: 17105391/0x010501EF), tag_num=0x0B)
 50: 0x0160 [0x1C] WAIT(10* ticks)
 51: 0x0163 [0x27] REQ_SET(priority=0x10, entity_id=LocalPlayer, tag_num=0x76)
 52: 0x016A [0x27] REQ_SET(priority=0x10, entity_id=Lilisette (ID: 17105539/0x01050283), tag_num=0x20)
 53: 0x0171 [0x27] REQ_SET(priority=0x10, entity_id=Cait Sith (ID: 17105543/0x01050287), tag_num=0x0D)
 54: 0x0178 [0x2A] GET_REQ_LEVEL(level=16, entity_id=Lilisette (ID: 17105539/0x01050283))
 55: 0x017E [0x1C] WAIT(60* ticks)
 56: 0x0181 [0x27] REQ_SET(priority=0x10, entity_id=_288 (ID: 17105336/0x010501B8), tag_num=0x03)
 57: 0x0188 [0x1C] WAIT(60* ticks)
 58: 0x018B [0x1A] CALL_SUBROUTINE(address=0x4FC0)
 59: 0x018E [0x1C] WAIT(30* ticks)
 60: 0x0191 [0x27] REQ_SET(priority=0x10, entity_id=_288 (ID: 17105336/0x010501B8), tag_num=0x04)
 61: 0x0198 [0x52] END_LOAD_SCHEDULER: End scheduler "w102" with entities [LocalPlayer, LocalPlayer], work=513*
 62: 0x01A7 [0x1A] CALL_SUBROUTINE(address=0x5256)
 63: 0x01AA [0x45] LOAD_SCHEDULED_TASK: Load scheduler "a000" with entities [LocalPlayer, LocalPlayer], work=[513*, 0*]
 64: 0x01BB [0x27] REQ_SET(priority=0x10, entity_id=Lilisette (ID: 17105539/0x01050283), tag_num=0x21)
 65: 0x01C2 [0x1A] CALL_SUBROUTINE(address=0x4F9F)
 66: 0x01C5 [0x27] REQ_SET(priority=0x10, entity_id=Cait Sith (ID: 17105543/0x01050287), tag_num=0x0E)
 67: 0x01CC [0x27] REQ_SET(priority=0x10, entity_id=LocalPlayer, tag_num=0x77)
 68: 0x01D3 [0x1C] WAIT(80* ticks)
 69: 0x01D6 [0x52] END_LOAD_SCHEDULER: End scheduler "a000" with entities [LocalPlayer, LocalPlayer], work=513*
 70: 0x01E5 [0x45] LOAD_SCHEDULED_TASK: Load scheduler "a001" with entities [LocalPlayer, LocalPlayer], work=[513*, 0*]
 71: 0x01F6 [0x1C] WAIT(15* ticks)
 72: 0x01F9 [0x27] REQ_SET(priority=0x10, entity_id=Lilisette (ID: 17105539/0x01050283), tag_num=0x22)
 73: 0x0200 [0x27] REQ_SET(priority=0x10, entity_id=LocalPlayer, tag_num=0x78)
 74: 0x0207 [0x1C] WAIT(20* ticks)
 75: 0x020A [0x29] REQ_SET_WAIT(priority=0x10, entity_id=Unknown NPC (ID: 17105583/0x010502AF), tag_num=0x0A)
 76: 0x0211 [0x1C] WAIT(230* ticks)
 77: 0x0214 [0x52] END_LOAD_SCHEDULER: End scheduler "a001" with entities [LocalPlayer, LocalPlayer], work=513*
 78: 0x0223 [0x45] LOAD_SCHEDULED_TASK: Load scheduler "a002" with entities [LocalPlayer, LocalPlayer], work=[513*, 0*]
 79: 0x0234 [0x2A] GET_REQ_LEVEL(level=16, entity_id=Lilisette (ID: 17105539/0x01050283))
 80: 0x023A [0x1C] WAIT(100* ticks)
 81: 0x023D [0x52] END_LOAD_SCHEDULER: End scheduler "a002" with entities [LocalPlayer, LocalPlayer], work=513*
 82: 0x024C [0x45] LOAD_SCHEDULED_TASK: Load scheduler "w003" with entities [LocalPlayer, LocalPlayer], work=[513*, 0*]
 83: 0x025D [0xBA] SET_ENTITY_POSITION(entity_id=Cait Sith (ID: 17105543/0x01050287), pos_x=-17.171*, pos_z=-3.695*, pos_y=0.000*, direction=175.8*)
 84: 0x026A [0x81] SET_ENTITY_BLINKING(blink_flag=0x00, entity=Lilisette (ID: 17105539/0x01050283))
 85: 0x0270 [0x7C] Lilisette (ID: 17105539/0x01050283)->Render.Flags2 |= 0x01
 86: 0x0276 [0x5B] LOAD_EXT_SCHEDULER: Load scheduler "f000" with entities [Lilisette (ID: 17105539/0x01050283), Lilisette (ID: 17105539/0x01050283)], work=2135*
 87: 0x0285 [0x5B] LOAD_EXT_SCHEDULER: Load scheduler "shn0" with entities [Lilisette (ID: 17105539/0x01050283), Lilisette (ID: 17105539/0x01050283)], work=2795*
 88: 0x0294 [0x1C] WAIT(200* ticks)
 89: 0x0297 [0x29] REQ_SET_WAIT(priority=0x10, entity_id=LocalPlayer, tag_num=0x1B)
 90: 0x029E [0x52] END_LOAD_SCHEDULER: End scheduler "w003" with entities [LocalPlayer, LocalPlayer], work=513*
 91: 0x02AD [0x02] IF !(Work_Zone[2] == 5*) GOTO 0x02C9
 92: 0x02B5 [0x45] LOAD_SCHEDULED_TASK: Load scheduler "w004" with entities [LocalPlayer, LocalPlayer], work=[513*, 0*]
 93: 0x02C6 [0x01] GOTO 0x02F6
 94: 0x02C9 [0x02] IF !(Work_Zone[2] == 6*) GOTO 0x02E5
 95: 0x02D1 [0x45] LOAD_SCHEDULED_TASK: Load scheduler "w004" with entities [LocalPlayer, LocalPlayer], work=[513*, 0*]
 96: 0x02E2 [0x01] GOTO 0x02F6
 97: 0x02E5 [0x45] LOAD_SCHEDULED_TASK: Load scheduler "w004" with entities [LocalPlayer, LocalPlayer], work=[513*, 0*]

SUBROUTINE_02F6:
 98: 0x02F6 [0x27] REQ_SET(priority=0x10, entity_id=Cait Sith (ID: 17105543/0x01050287), tag_num=0x0F)
 99: 0x02FD [0x27] REQ_SET(priority=0x10, entity_id=LocalPlayer, tag_num=0x79)
100: 0x0304 [0x1C] WAIT(50* ticks)
101: 0x0307 [0x2B] Lilisette (ID: 17105539/0x01050283) [14205*]:
     "Um...Sir Ragelise..."
102: 0x030E [0x1C] WAIT(120* ticks)
103: 0x0311 [0x23] WAIT_FOR_DIALOG_INTERACTION
104: 0x0312 [0x59] UPDATE_ENTITY_DATA: Set Ragelise (ID: 17105542/0x01050286) turn speed = 50*
105: 0x031A [0x4B] UPDATE_ENTITY_YAW(entity=Ragelise (ID: 17105542/0x01050286), yaw=0.0*)
106: 0x0321 [0x1C] WAIT(60* ticks)
107: 0x0324 [0x52] END_LOAD_SCHEDULER: End scheduler "wt04" with entities [LocalPlayer, LocalPlayer], work=513*
108: 0x0333 [0x52] END_LOAD_SCHEDULER: End scheduler "w004" with entities [LocalPlayer, LocalPlayer], work=513*
109: 0x0342 [0x45] LOAD_SCHEDULED_TASK: Load scheduler "w005" with entities [LocalPlayer, LocalPlayer], work=[513*, 0*]
110: 0x0353 [0x1C] WAIT(80* ticks)
111: 0x0356 [0x2B] Lilisette (ID: 17105539/0x01050283) [14206*]:
     "Please forgive us. We...we failed to rescue Portia."
112: 0x035D [0x1C] WAIT(160* ticks)
113: 0x0360 [0x4E] SET_ENTITY_HIDE_FLAG: Show Kishi1 (ID: 17105591/0x010502B7)
114: 0x0366 [0x23] WAIT_FOR_DIALOG_INTERACTION
115: 0x0367 [0x52] END_LOAD_SCHEDULER: End scheduler "w005" with entities [LocalPlayer, LocalPlayer], work=513*
116: 0x0376 [0x45] LOAD_SCHEDULED_TASK: Load scheduler "w006" with entities [LocalPlayer, LocalPlayer], work=[513*, 0*]
117: 0x0387 [0x5B] LOAD_EXT_SCHEDULER: Load scheduler "shn1" with entities [Lilisette (ID: 17105539/0x01050283), Lilisette (ID: 17105539/0x01050283)], work=2795*
118: 0x0396 [0x03] Work_Zone[2] = 200*
119: 0x039B [0x27] REQ_SET(priority=0x10, entity_id=LocalPlayer, tag_num=0x82)
120: 0x03A2 [0x1C] WAIT(70* ticks)
121: 0x03A5 [0x2B] Lilisette (ID: 17105539/0x01050283) [14207*]:
     "Well, that's a half-truth of sorts, to be honest. She was deceived and willingly--"
122: 0x03AC [0x23] WAIT_FOR_DIALOG_INTERACTION
123: 0x03AD [0x2A] GET_REQ_LEVEL(level=16, entity_id=LocalPlayer)
124: 0x03B3 [0x66] LOAD_EXT_SCHEDULER_MAIN: Load scheduler "thk1" with entities [Ragelise (ID: 17105542/0x01050286), Ragelise (ID: 17105542/0x01050286)], work=29*
125: 0x03C2 [0x1C] WAIT(110* ticks)
126: 0x03C5 [0x52] END_LOAD_SCHEDULER: End scheduler "w006" with entities [LocalPlayer, LocalPlayer], work=513*
127: 0x03D4 [0x45] LOAD_SCHEDULED_TASK: Load scheduler "w007" with entities [LocalPlayer, LocalPlayer], work=[513*, 0*]
128: 0x03E5 [0x5D] SET_MUSIC_VOLUME(volume=0*, fade_time=200*)
129: 0x03EA [0x1C] WAIT(200* ticks)
130: 0x03ED [0x66] LOAD_EXT_SCHEDULER_MAIN: Load scheduler "thk2" with entities [Ragelise (ID: 17105542/0x01050286), Ragelise (ID: 17105542/0x01050286)], work=29*
131: 0x03FC [0x1C] WAIT(130* ticks)
132: 0x03FF [0x2B] Ragelise (ID: 17105542/0x01050286) [14208*]:
     "Beg your pardons, but have we met?"
133: 0x0406 [0x23] WAIT_FOR_DIALOG_INTERACTION
134: 0x0407 [0x1C] WAIT(30* ticks)
135: 0x040A [0x52] END_LOAD_SCHEDULER: End scheduler "w007" with entities [LocalPlayer, LocalPlayer], work=513*
136: 0x0419 [0x45] LOAD_SCHEDULED_TASK: Load scheduler "w008" with entities [LocalPlayer, LocalPlayer], work=[513*, 0*]
137: 0x042A [0x7B] Ragelise (ID: 17105542/0x01050286) stops talking
138: 0x042F [0x03] Work_Zone[2] = 170*
139: 0x0434 [0x27] REQ_SET(priority=0x10, entity_id=LocalPlayer, tag_num=0x82)
140: 0x043B [0x7C] Lilisette (ID: 17105539/0x01050283)->Render.Flags2 |= 0x00
141: 0x0441 [0x5B] LOAD_EXT_SCHEDULER: Load scheduler "shn2" with entities [Lilisette (ID: 17105539/0x01050283), Lilisette (ID: 17105539/0x01050283)], work=2795*
142: 0x0450 [0x1C] WAIT(30* ticks)
143: 0x0453 [0x2B] Lilisette (ID: 17105539/0x01050283) [14209*]:
     "What?"
144: 0x045A [0x23] WAIT_FOR_DIALOG_INTERACTION
145: 0x045B [0x5C] MUSIC_CONTROL: Set Idle (Day) music to song 40*
146: 0x045F [0x5C] MUSIC_CONTROL: Set Idle (Night) music to song 40*
147: 0x0463 [0x9A] WAIT_MUSIC_SERVER()
148: 0x0464 [0x2A] GET_REQ_LEVEL(level=16, entity_id=LocalPlayer)
149: 0x046A [0x52] END_LOAD_SCHEDULER: End scheduler "w008" with entities [LocalPlayer, LocalPlayer], work=513*
150: 0x0479 [0x45] LOAD_SCHEDULED_TASK: Load scheduler "w009" with entities [LocalPlayer, LocalPlayer], work=[513*, 0*]
151: 0x048A [0x1C] WAIT(40* ticks)
152: 0x048D [0x03] Work_Zone[2] = 120*
153: 0x0492 [0x27] REQ_SET(priority=0x10, entity_id=LocalPlayer, tag_num=0x82)
154: 0x0499 [0x66] LOAD_EXT_SCHEDULER_MAIN: Load scheduler "twa0" with entities [Ragelise (ID: 17105542/0x01050286), Ragelise (ID: 17105542/0x01050286)], work=29*
155: 0x04A8 [0x1C] WAIT(60* ticks)
156: 0x04AB [0x2B] Ragelise (ID: 17105542/0x01050286) [14210*]:
     "Your outfit tells me you're a dancer from Troupe Mayakov, though I must confess, I do not recall having had the pleasure of seeing you on stage."
157: 0x04B2 [0x23] WAIT_FOR_DIALOG_INTERACTION
158: 0x04B3 [0x2A] GET_REQ_LEVEL(level=16, entity_id=LocalPlayer)
159: 0x04B9 [0x5B] LOAD_EXT_SCHEDULER: Load scheduler "shn3" with entities [Lilisette (ID: 17105539/0x01050283), Lilisette (ID: 17105539/0x01050283)], work=2795*
160: 0x04C8 [0x1C] WAIT(40* ticks)
161: 0x04CB [0x29] REQ_SET_WAIT(priority=0x10, entity_id=LocalPlayer, tag_num=0x1B)
162: 0x04D2 [0x52] END_LOAD_SCHEDULER: End scheduler "w009" with entities [LocalPlayer, LocalPlayer], work=513*
163: 0x04E1 [0x02] IF !(Work_Zone[2] == 3*) GOTO 0x04FD
164: 0x04E9 [0x45] LOAD_SCHEDULED_TASK: Load scheduler "we10" with entities [LocalPlayer, LocalPlayer], work=[513*, 0*]
165: 0x04FA [0x01] GOTO 0x059A
166: 0x04FD [0x02] IF !(Work_Zone[2] == 4*) GOTO 0x0519
167: 0x0505 [0x45] LOAD_SCHEDULED_TASK: Load scheduler "we10" with entities [LocalPlayer, LocalPlayer], work=[513*, 0*]
168: 0x0516 [0x01] GOTO 0x059A
169: 0x0519 [0x02] IF !(Work_Zone[2] == 5*) GOTO 0x0535
170: 0x0521 [0x45] LOAD_SCHEDULED_TASK: Load scheduler "wt10" with entities [LocalPlayer, LocalPlayer], work=[513*, 0*]
171: 0x0532 [0x01] GOTO 0x059A
172: 0x0535 [0x02] IF !(Work_Zone[2] == 6*) GOTO 0x0551
173: 0x053D [0x45] LOAD_SCHEDULED_TASK: Load scheduler "wt10" with entities [LocalPlayer, LocalPlayer], work=[513*, 0*]
174: 0x054E [0x01] GOTO 0x059A
175: 0x0551 [0x02] IF !(Work_Zone[2] == 7*) GOTO 0x056D
176: 0x0559 [0x45] LOAD_SCHEDULED_TASK: Load scheduler "wm10" with entities [LocalPlayer, LocalPlayer], work=[513*, 0*]
177: 0x056A [0x01] GOTO 0x059A
178: 0x056D [0x02] IF !(Work_Zone[2] == 8*) GOTO 0x0589
179: 0x0575 [0x45] LOAD_SCHEDULED_TASK: Load scheduler "wg10" with entities [LocalPlayer, LocalPlayer], work=[513*, 0*]
180: 0x0586 [0x01] GOTO 0x059A
181: 0x0589 [0x45] LOAD_SCHEDULED_TASK: Load scheduler "w010" with entities [LocalPlayer, LocalPlayer], work=[513*, 0*]

SUBROUTINE_059A:
182: 0x059A [0x03] Work_Zone[2] = 140*
183: 0x059F [0x27] REQ_SET(priority=0x10, entity_id=LocalPlayer, tag_num=0x82)
184: 0x05A6 [0x5B] LOAD_EXT_SCHEDULER: Load scheduler "bik0" with entities [Cait Sith (ID: 17105543/0x01050287), Cait Sith (ID: 17105543/0x01050287)], work=1311*
185: 0x05B5 [0x81] SET_ENTITY_BLINKING(blink_flag=0x00, entity=Lilisette (ID: 17105539/0x01050283))
186: 0x05BB [0x7C] Lilisette (ID: 17105539/0x01050283)->Render.Flags2 |= 0x00
187: 0x05C1 [0x2B] Lilisette (ID: 17105539/0x01050283) [14211*]:
     "!?"
188: 0x05C8 [0x6E] LocalPlayer uses emote 21*
189: 0x05CF [0x99] Wait for LocalPlayer animation to complete
190: 0x05D4 [0x23] WAIT_FOR_DIALOG_INTERACTION
191: 0x05D5 [0x7C] Lilisette (ID: 17105539/0x01050283)->Render.Flags2 |= 0x01
192: 0x05DB [0x2A] GET_REQ_LEVEL(level=16, entity_id=LocalPlayer)
193: 0x05E1 [0x29] REQ_SET_WAIT(priority=0x10, entity_id=LocalPlayer, tag_num=0x1B)
194: 0x05E8 [0x52] END_LOAD_SCHEDULER: End scheduler "w010" with entities [LocalPlayer, LocalPlayer], work=513*
195: 0x05F7 [0x52] END_LOAD_SCHEDULER: End scheduler "we10" with entities [LocalPlayer, LocalPlayer], work=513*
196: 0x0606 [0x52] END_LOAD_SCHEDULER: End scheduler "wm10" with entities [LocalPlayer, LocalPlayer], work=513*
197: 0x0615 [0x52] END_LOAD_SCHEDULER: End scheduler "wg10" with entities [LocalPlayer, LocalPlayer], work=513*
198: 0x0624 [0x52] END_LOAD_SCHEDULER: End scheduler "wt10" with entities [LocalPlayer, LocalPlayer], work=513*
199: 0x0633 [0x45] LOAD_SCHEDULED_TASK: Load scheduler "offb" with entities [LocalPlayer, LocalPlayer], work=[513*, 0*]
200: 0x0644 [0x02] IF !(Work_Zone[2] == 1*) GOTO 0x0660
201: 0x064C [0x45] LOAD_SCHEDULED_TASK: Load scheduler "w011" with entities [LocalPlayer, LocalPlayer], work=[513*, 0*]
202: 0x065D [0x01] GOTO 0x0724
203: 0x0660 [0x02] IF !(Work_Zone[2] == 2*) GOTO 0x067C
204: 0x0668 [0x45] LOAD_SCHEDULED_TASK: Load scheduler "wm11" with entities [LocalPlayer, LocalPlayer], work=[513*, 0*]
205: 0x0679 [0x01] GOTO 0x0724
206: 0x067C [0x02] IF !(Work_Zone[2] == 3*) GOTO 0x0698
207: 0x0684 [0x45] LOAD_SCHEDULED_TASK: Load scheduler "wg11" with entities [LocalPlayer, LocalPlayer], work=[513*, 0*]
208: 0x0695 [0x01] GOTO 0x0724
209: 0x0698 [0x02] IF !(Work_Zone[2] == 4*) GOTO 0x06B4
210: 0x06A0 [0x45] LOAD_SCHEDULED_TASK: Load scheduler "wg11" with entities [LocalPlayer, LocalPlayer], work=[513*, 0*]
211: 0x06B1 [0x01] GOTO 0x0724
212: 0x06B4 [0x02] IF !(Work_Zone[2] == 5*) GOTO 0x06D0
213: 0x06BC [0x45] LOAD_SCHEDULED_TASK: Load scheduler "wt11" with entities [LocalPlayer, LocalPlayer], work=[513*, 0*]
214: 0x06CD [0x01] GOTO 0x0724
215: 0x06D0 [0x02] IF !(Work_Zone[2] == 6*) GOTO 0x06EC
216: 0x06D8 [0x45] LOAD_SCHEDULED_TASK: Load scheduler "wt11" with entities [LocalPlayer, LocalPlayer], work=[513*, 0*]
217: 0x06E9 [0x01] GOTO 0x0724
218: 0x06EC [0x02] IF !(Work_Zone[2] == 7*) GOTO 0x0708
219: 0x06F4 [0x45] LOAD_SCHEDULED_TASK: Load scheduler "wm11" with entities [LocalPlayer, LocalPlayer], work=[513*, 0*]
220: 0x0705 [0x01] GOTO 0x0724
221: 0x0708 [0x02] IF !(Work_Zone[2] == 8*) GOTO 0x0724
222: 0x0710 [0x45] LOAD_SCHEDULED_TASK: Load scheduler "wg11" with entities [LocalPlayer, LocalPlayer], work=[513*, 0*]
223: 0x0721 [0x01] GOTO 0x0724

SUBROUTINE_0724:
224: 0x0724 [0x1C] WAIT(40* ticks)
225: 0x0727 [0x29] REQ_SET_WAIT(priority=0x10, entity_id=Unknown NPC (ID: 17105583/0x010502AF), tag_num=0x0A)
226: 0x072E [0x27] REQ_SET(priority=0x10, entity_id=Kishi1 (ID: 17105591/0x010502B7), tag_num=0x09)
227: 0x0735 [0x66] LOAD_EXT_SCHEDULER_MAIN: Load scheduler "twa1" with entities [Ragelise (ID: 17105542/0x01050286), Ragelise (ID: 17105542/0x01050286)], work=29*
228: 0x0744 [0x4A] Cait Sith (ID: 17105543/0x01050287) looks at Kishi1 (ID: 17105591/0x010502B7)
229: 0x074D [0x1C] WAIT(40* ticks)
230: 0x0750 [0x27] REQ_SET(priority=0x10, entity_id=Cait Sith (ID: 17105543/0x01050287), tag_num=0x10)
231: 0x0757 [0x1C] WAIT(5* ticks)
232: 0x075A [0x4A] LocalPlayer looks at Kishi1 (ID: 17105591/0x010502B7)
233: 0x0763 [0x1C] WAIT(50* ticks)
234: 0x0766 [0x52] END_LOAD_SCHEDULER: End scheduler "wt11" with entities [LocalPlayer, LocalPlayer], work=513*
235: 0x0775 [0x52] END_LOAD_SCHEDULER: End scheduler "wg11" with entities [LocalPlayer, LocalPlayer], work=513*
236: 0x0784 [0x52] END_LOAD_SCHEDULER: End scheduler "wm11" with entities [LocalPlayer, LocalPlayer], work=513*
237: 0x0793 [0x52] END_LOAD_SCHEDULER: End scheduler "w011" with entities [LocalPlayer, LocalPlayer], work=513*
238: 0x07A2 [0x45] LOAD_SCHEDULED_TASK: Load scheduler "w012" with entities [LocalPlayer, LocalPlayer], work=[513*, 0*]
239: 0x07B3 [0x2A] GET_REQ_LEVEL(level=16, entity_id=Kishi1 (ID: 17105591/0x010502B7))
240: 0x07B9 [0x1C] WAIT(40* ticks)
241: 0x07BC [0x4B] UPDATE_ENTITY_YAW(entity=Kishi1 (ID: 17105591/0x010502B7), yaw=10.4*)
242: 0x07C3 [0x7B] LocalPlayer stops talking
243: 0x07C8 [0x4A] Ragelise (ID: 17105542/0x01050286) looks at Kishi1 (ID: 17105591/0x010502B7)
244: 0x07D1 [0x4A] Cait Sith (ID: 17105543/0x01050287) looks at Ragelise (ID: 17105542/0x01050286)
245: 0x07DA [0x1C] WAIT(30* ticks)
246: 0x07DD [0x6E] Kishi1 (ID: 17105591/0x010502B7) uses emote 2*
247: 0x07E4 [0x99] Wait for Kishi1 (ID: 17105591/0x010502B7) animation to complete
248: 0x07E9 [0x1C] WAIT(90* ticks)
249: 0x07EC [0x52] END_LOAD_SCHEDULER: End scheduler "w012" with entities [LocalPlayer, LocalPlayer], work=513*
250: 0x07FB [0x45] LOAD_SCHEDULED_TASK: Load scheduler "w013" with entities [LocalPlayer, LocalPlayer], work=[513*, 0*]
251: 0x080C [0x1C] WAIT(10* ticks)
252: 0x080F [0x27] REQ_SET(priority=0x10, entity_id=LocalPlayer, tag_num=0x7A)
253: 0x0816 [0x2A] GET_REQ_LEVEL(level=16, entity_id=LocalPlayer)
254: 0x081C [0x6E] Ragelise (ID: 17105542/0x01050286) uses emote 7*
255: 0x0823 [0x99] Wait for Ragelise (ID: 17105542/0x01050286) animation to complete
256: 0x0828 [0x1C] WAIT(70* ticks)
257: 0x082B [0x59] UPDATE_ENTITY_DATA: Set Ragelise (ID: 17105542/0x01050286) turn speed = 50*
258: 0x0833 [0x79] Ragelise (ID: 17105542/0x01050286) looks at Lilisette (ID: 17105539/0x01050283) (Basic look)
259: 0x083D [0x4B] UPDATE_ENTITY_YAW(entity=Ragelise (ID: 17105542/0x01050286), yaw=23.3*)
260: 0x0844 [0x1C] WAIT(60* ticks)
261: 0x0847 [0x66] LOAD_EXT_SCHEDULER_MAIN: Load scheduler "twb0" with entities [Ragelise (ID: 17105542/0x01050286), Ragelise (ID: 17105542/0x01050286)], work=29*
262: 0x0856 [0x1C] WAIT(50* ticks)
263: 0x0859 [0x52] END_LOAD_SCHEDULER: End scheduler "w013" with entities [LocalPlayer, LocalPlayer], work=513*
264: 0x0868 [0x45] LOAD_SCHEDULED_TASK: Load scheduler "w113" with entities [LocalPlayer, LocalPlayer], work=[513*, 0*]
265: 0x0879 [0x1C] WAIT(40* ticks)
266: 0x087C [0x03] Work_Zone[2] = 160*
267: 0x0881 [0x27] REQ_SET(priority=0x10, entity_id=LocalPlayer, tag_num=0x82)
268: 0x0888 [0x2B] Ragelise (ID: 17105542/0x01050286) [14212*]:
     "With regards to Portia, Sir Vestillet came and briefed me on the situation but a moment ago."
269: 0x088F [0x23] WAIT_FOR_DIALOG_INTERACTION
270: 0x0890 [0x2A] GET_REQ_LEVEL(level=16, entity_id=LocalPlayer)
271: 0x0896 [0x52] END_LOAD_SCHEDULER: End scheduler "w113" with entities [LocalPlayer, LocalPlayer], work=513*
272: 0x08A5 [0x45] LOAD_SCHEDULED_TASK: Load scheduler "w015" with entities [LocalPlayer, LocalPlayer], work=[513*, 0*]
273: 0x08B6 [0x1C] WAIT(40* ticks)
274: 0x08B9 [0x03] Work_Zone[2] = 140*
275: 0x08BE [0x27] REQ_SET(priority=0x10, entity_id=LocalPlayer, tag_num=0x82)
276: 0x08C5 [0x2B] Ragelise (ID: 17105542/0x01050286) [14213*]:
     "On behalf of the Royal Knights, I apologize that a civilian has been put in harm's way. On my honor, I swear I shall not rest until she is safely returned to within the Kingdom's walls."
277: 0x08CC [0x23] WAIT_FOR_DIALOG_INTERACTION
278: 0x08CD [0x2A] GET_REQ_LEVEL(level=16, entity_id=LocalPlayer)
279: 0x08D3 [0x5B] LOAD_EXT_SCHEDULER: Load scheduler "shn4" with entities [Lilisette (ID: 17105539/0x01050283), Lilisette (ID: 17105539/0x01050283)], work=2795*
280: 0x08E2 [0x2B] Lilisette (ID: 17105539/0x01050283) [14214*]:
     "No..."
281: 0x08E9 [0x1C] WAIT(170* ticks)
282: 0x08EC [0x52] END_LOAD_SCHEDULER: End scheduler "w015" with entities [LocalPlayer, LocalPlayer], work=513*
283: 0x08FB [0x45] LOAD_SCHEDULED_TASK: Load scheduler "w016" with entities [LocalPlayer, LocalPlayer], work=[513*, 0*]
284: 0x090C [0x27] REQ_SET(priority=0x10, entity_id=LocalPlayer, tag_num=0x7B)
285: 0x0913 [0x1C] WAIT(35* ticks)
286: 0x0916 [0x4B] UPDATE_ENTITY_YAW(entity=Kishi1 (ID: 17105591/0x010502B7), yaw=3.3*)
287: 0x091D [0x1C] WAIT(110* ticks)
288: 0x0920 [0x1A] CALL_SUBROUTINE(address=0x4FC0)
289: 0x0923 [0x5D] SET_MUSIC_VOLUME(volume=0*, fade_time=120*)
290: 0x0928 [0x1C] WAIT(30* ticks)
291: 0x092B [0x52] END_LOAD_SCHEDULER: End scheduler "w016" with entities [LocalPlayer, LocalPlayer], work=513*
292: 0x093A [0x4E] SET_ENTITY_HIDE_FLAG: Hide Kishi1 (ID: 17105591/0x010502B7)
293: 0x0940 [0x1A] CALL_SUBROUTINE(address=0x5351)
294: 0x0943 [0x29] REQ_SET_WAIT(priority=0x10, entity_id=LocalPlayer, tag_num=0x1B)
295: 0x094A [0x1C] WAIT(1* ticks)
296: 0x094D [0x27] REQ_SET(priority=0x10, entity_id=LocalPlayer, tag_num=0x7C)
297: 0x0954 [0x27] REQ_SET(priority=0x10, entity_id=Cait Sith (ID: 17105543/0x01050287), tag_num=0x11)
298: 0x095B [0x45] LOAD_SCHEDULED_TASK: Load scheduler "y000" with entities [LocalPlayer, LocalPlayer], work=[514*, 0*]
299: 0x096C [0x1A] CALL_SUBROUTINE(address=0x4F9F)
300: 0x096F [0x1C] WAIT(130* ticks)
301: 0x0972 [0x52] END_LOAD_SCHEDULER: End scheduler "y000" with entities [LocalPlayer, LocalPlayer], work=514*
302: 0x0981 [0x02] IF !(Work_Zone[2] == 3*) GOTO 0x099D
303: 0x0989 [0x45] LOAD_SCHEDULED_TASK: Load scheduler "yg01" with entities [LocalPlayer, LocalPlayer], work=[514*, 0*]
304: 0x099A [0x01] GOTO 0x0A1E
305: 0x099D [0x02] IF !(Work_Zone[2] == 5*) GOTO 0x09B9
