# 17105644 - Tanja

## Common Data

| Field            | Value                            |
|------------------|----------------------------------|
| Zone             | Southern San d'Oria [S] (ID: 80) |
| Block Size       | 1996 bytes                       |
| Total Events     | 63                               |
| References Count | 93                               |

## List of Events

| Event ID                   | Entrypoint   |   Size |   Instructions |
|----------------------------|--------------|--------|----------------|
| [65535](#event-65535)      | 0x0000       |      1 |              1 |
| [65535.1](#event-655351)   | 0x0001       |      1 |              1 |
| [65535.2](#event-655352)   | 0x0002       |     18 |              4 |
| [65535.3](#event-655353)   | 0x0014       |     10 |              2 |
| [65535.4](#event-655354)   | 0x001E       |      9 |              3 |
| [65535.5](#event-655355)   | 0x0027       |      9 |              3 |
| [65535.6](#event-655356)   | 0x0030       |     10 |              2 |
| [65535.7](#event-655357)   | 0x003A       |     10 |              2 |
| [146](#event-146)          | 0x0044       |      1 |              1 |
| [65535.8](#event-655358)   | 0x0045       |     21 |              5 |
| [65535.9](#event-655359)   | 0x005A       |     21 |              5 |
| [149](#event-149)          | 0x006F       |      1 |              1 |
| [154](#event-154)          | 0x0070       |      1 |              1 |
| [65535.10](#event-6553510) | 0x0071       |     20 |              5 |
| [65535.11](#event-6553511) | 0x0085       |     19 |              4 |
| [65535.12](#event-6553512) | 0x0098       |     19 |              3 |
| [65535.13](#event-6553513) | 0x00AB       |     21 |              3 |
| [65535.14](#event-6553514) | 0x00C0       |     21 |              3 |
| [65535.15](#event-6553515) | 0x00D5       |     45 |             10 |
| [65535.16](#event-6553516) | 0x0102       |     45 |             10 |
| [65535.17](#event-6553517) | 0x012F       |     69 |             14 |
| [65535.18](#event-6553518) | 0x0174       |     11 |              3 |
| [65535.19](#event-6553519) | 0x017F       |     13 |              3 |
| [65535.20](#event-6553520) | 0x018C       |     13 |              3 |
| [65535.21](#event-6553521) | 0x0199       |     58 |             14 |
| [65535.22](#event-6553522) | 0x01D3       |    128 |             22 |
| [65535.23](#event-6553523) | 0x0253       |     45 |             10 |
| [65535.24](#event-6553524) | 0x0280       |     35 |              8 |
| [65535.25](#event-6553525) | 0x02A3       |     21 |              2 |
| [65535.26](#event-6553526) | 0x02B8       |     21 |              2 |
| [65535.27](#event-6553527) | 0x02CD       |     21 |              2 |
| [65535.28](#event-6553528) | 0x02E2       |     21 |              2 |
| [65535.29](#event-6553529) | 0x02F7       |     21 |              2 |
| [65535.30](#event-6553530) | 0x030C       |     21 |              2 |
| [65535.31](#event-6553531) | 0x0321       |     21 |              2 |
| [65535.32](#event-6553532) | 0x0336       |     21 |              2 |
| [65535.33](#event-6553533) | 0x034B       |     21 |              2 |
| [65535.34](#event-6553534) | 0x0360       |     21 |              2 |
| [65535.35](#event-6553535) | 0x0375       |     21 |              2 |
| [65535.36](#event-6553536) | 0x038A       |     21 |              2 |
| [65535.37](#event-6553537) | 0x039F       |     21 |              2 |
| [65535.38](#event-6553538) | 0x03B4       |     21 |              2 |
| [65535.39](#event-6553539) | 0x03C9       |     21 |              2 |
| [65535.40](#event-6553540) | 0x03DE       |     21 |              2 |
| [65535.41](#event-6553541) | 0x03F3       |     21 |              2 |
| [65535.42](#event-6553542) | 0x0408       |     21 |              2 |
| [65535.43](#event-6553543) | 0x041D       |     21 |              2 |
| [65535.44](#event-6553544) | 0x0432       |     21 |              2 |
| [65535.45](#event-6553545) | 0x0447       |     21 |              2 |
| [65535.46](#event-6553546) | 0x045C       |     21 |              2 |
| [65535.47](#event-6553547) | 0x0471       |     21 |              2 |
| [65535.48](#event-6553548) | 0x0486       |     21 |              2 |
| [65535.49](#event-6553549) | 0x049B       |     21 |              2 |
| [65535.50](#event-6553550) | 0x04B0       |     21 |              2 |
| [65535.51](#event-6553551) | 0x04C5       |     21 |              2 |
| [65535.52](#event-6553552) | 0x04DA       |     21 |              2 |
| [65535.53](#event-6553553) | 0x04EF       |     21 |              2 |
| [65535.54](#event-6553554) | 0x0504       |     21 |              2 |
| [65535.55](#event-6553555) | 0x0519       |     21 |              2 |
| [65535.56](#event-6553556) | 0x052E       |     21 |              2 |
| [65535.57](#event-6553557) | 0x0543       |      3 |              2 |
| [65535.58](#event-6553558) | 0x0546       |      3 |              2 |
| [166](#event-166)          | 0x0549       |      1 |              1 |

## DAT References (imed_data)

|   Index | Hex Value   |   Dec Value |
|---------|-------------|-------------|
|       0 | 0x0000      |           0 |
|       1 | 0x0001      |           1 |
|       2 | 0x0080      |         128 |
|       3 | 0x189B1     |      100785 |
|       4 | 0x19291     |      103057 |
|       5 | 0x03E7      |         999 |
|       6 | 0x1C8AA     |      116906 |
|       7 | 0x194E9     |      103657 |
|       8 | 0x000D      |          13 |
|       9 | 0x156B4     |       87732 |
|      10 | 0x1C4EE     |      115950 |
|      11 | 0x03E8      |        1000 |
|      12 | 0x18C87     |      101511 |
|      13 | 0x189B0     |      100784 |
|      14 | 0x003C      |          60 |
|      15 | 0x000B      |          11 |
|      16 | 0x148C5     |       84165 |
|      17 | 0x1D413     |      119827 |
|      18 | 0x0200      |         512 |
|      19 | 0x147DF     |       83935 |
|      20 | 0x1DA56     |      121430 |
|      21 | 0x150EE     |       86254 |
|      22 | 0x1BBE7     |      113639 |
|      23 | 0x14B01     |       84737 |
|      24 | 0x1B917     |      112919 |
|      25 | 0x14373     |       82803 |
|      26 | 0x1B869     |      112745 |
|      27 | 0x1615C     |       90460 |
|      28 | 0x1B0BB     |      110779 |
|      29 | 0x16B7C     |       93052 |
|      30 | 0x1B930     |      112944 |
|      31 | 0x1746D     |       95341 |
|      32 | 0x1BC23     |      113699 |
|      33 | 0x15F48     |       89928 |
|      34 | 0x1B5C5     |      112069 |
|      35 | 0x15BC3     |       89027 |
|      36 | 0x1C9CF     |      117199 |
|      37 | 0x02EE      |         750 |
|      38 | 0x15B58     |       88920 |
|      39 | 0x1CCAE     |      117934 |
|      40 | 0x15CE7     |       89319 |
|      41 | 0x1D3BA     |      119738 |
|      42 | 0x171B4     |       94644 |
|      43 | 0x1C020     |      114720 |
|      44 | 0x062B      |        1579 |
|      45 | 0x00B4      |         180 |
|      46 | 0x001E      |          30 |
|      47 | 0x0007      |           7 |
|      48 | 0x005A      |          90 |
|      49 | 0x0050      |          80 |
|      50 | 0x0024      |          36 |
|      51 | 0x0064      |         100 |
|      52 | 0x0005      |           5 |
|      53 | 0x000E      |          14 |
|      54 | 0x162A9     |       90793 |
|      55 | 0x1B7C9     |      112585 |
|      56 | 0x15933     |       88371 |
|      57 | 0x1BEAB     |      114347 |
|      58 | 0x01F4      |         500 |
|      59 | 0x14A19     |       84505 |
|      60 | 0x1BCE0     |      113888 |
|      61 | 0x15A3C     |       88636 |
|      62 | 0x1B838     |      112696 |
|      63 | 0x0003      |           3 |
|      64 | 0x0017      |          23 |
|      65 | 0x0002      |           2 |
|      66 | 0x0068      |         104 |
|      67 | 0x0018      |          24 |
|      68 | 0x0006      |           6 |
|      69 | 0x0004      |           4 |
|      70 | 0x0015      |          21 |
|      71 | 0x0008      |           8 |
|      72 | 0x007D      |         125 |
|      73 | 0x0060      |          96 |
|      74 | 0x000F      |          15 |
|      75 | 0x0038      |          56 |
|      76 | 0x0029      |          41 |
|      77 | 0x00D9      |         217 |
|      78 | 0x000C      |          12 |
|      79 | 0x00DD      |         221 |
|      80 | 0x0028      |          40 |
|      81 | 0x0097      |         151 |
|      82 | 0x0009      |           9 |
|      83 | 0x00D3      |         211 |
|      84 | 0x00A4      |         164 |
|      85 | 0x0045      |          69 |
|      86 | 0x002F      |          47 |
|      87 | 0x001A      |          26 |
|      88 | 0x0072      |         114 |
|      89 | 0x003A      |          58 |
|      90 | 0x00D2      |         210 |
|      91 | 0x00FB      |         251 |
|      92 | 0x004C      |          76 |

## Events

### Event 65535

#### Metadata

| Field        | Value   |
|--------------|---------|
| Entrypoint   | 0x0000  |
| Data Size    | 1 bytes |
| Instructions | 1       |

```
      00 01 02 03 04 05 06 07  08 09 0A 0B 0C 0D 0E 0F
      -- -- -- -- -- -- -- --  -- -- -- -- -- -- -- --
0000: 00                                                .               
```

#### Opcodes

```
  0: 0x0000 [0x00] END_REQSTACK()
```

### Event 65535.1

#### Metadata

| Field        | Value   |
|--------------|---------|
| Entrypoint   | 0x0001  |
| Data Size    | 1 bytes |
| Instructions | 1       |

```
      00 01 02 03 04 05 06 07  08 09 0A 0B 0C 0D 0E 0F
      -- -- -- -- -- -- -- --  -- -- -- -- -- -- -- --
0000:    00                                              .              
```

#### Opcodes

```
  0: 0x0001 [0x00] END_REQSTACK()
```

### Event 65535.2

#### Metadata

| Field        | Value    |
|--------------|----------|
| Entrypoint   | 0x0002   |
| Data Size    | 18 bytes |
| Instructions | 4        |

```
      00 01 02 03 04 05 06 07  08 09 0A 0B 0C 0D 0E 0F
      -- -- -- -- -- -- -- --  -- -- -- -- -- -- -- --
0000:       22 00 2F 00 F8 FF  FF 7F 6C F8 FF FF 7F 00    "./.....l.....
0010: 80 01 80 00                                       ....            
```

#### Opcodes

```
  0: 0x0002 [0x22] ENTITY_HIDE_FLAG(enabled=0x00)
  1: 0x0004 [0x2F] EventEntity->Render.Flags0 &= ~0x80000 // Bit 19
  2: 0x000A [0x6C] FADE_ENTITY_COLOR(entity_id=EventEntity, end_alpha=0*, fade_time=1*)
  3: 0x0013 [0x00] END_REQSTACK()
```

### Event 65535.3

#### Metadata

| Field        | Value    |
|--------------|----------|
| Entrypoint   | 0x0014   |
| Data Size    | 10 bytes |
| Instructions | 2        |

```
      00 01 02 03 04 05 06 07  08 09 0A 0B 0C 0D 0E 0F
      -- -- -- -- -- -- -- --  -- -- -- -- -- -- -- --
0010:             6C F8 FF FF  7F 02 80 01 80 00            l.........  
```

#### Opcodes

```
  0: 0x0014 [0x6C] FADE_ENTITY_COLOR(entity_id=EventEntity, end_alpha=128*, fade_time=1*)
  1: 0x001D [0x00] END_REQSTACK()
```

### Event 65535.4

#### Metadata

| Field        | Value   |
|--------------|---------|
| Entrypoint   | 0x001E  |
| Data Size    | 9 bytes |
| Instructions | 3       |

```
      00 01 02 03 04 05 06 07  08 09 0A 0B 0C 0D 0E 0F
      -- -- -- -- -- -- -- --  -- -- -- -- -- -- -- --
0010:                                            22 00                ".
0020: 2F 00 F8 FF FF 7F 00                              /......         
```

#### Opcodes

```
  0: 0x001E [0x22] ENTITY_HIDE_FLAG(enabled=0x00)
  1: 0x0020 [0x2F] EventEntity->Render.Flags0 &= ~0x80000 // Bit 19
  2: 0x0026 [0x00] END_REQSTACK()
```

### Event 65535.5

#### Metadata

| Field        | Value   |
|--------------|---------|
| Entrypoint   | 0x0027  |
| Data Size    | 9 bytes |
| Instructions | 3       |

```
      00 01 02 03 04 05 06 07  08 09 0A 0B 0C 0D 0E 0F
      -- -- -- -- -- -- -- --  -- -- -- -- -- -- -- --
0020:                      22  01 2F 01 F8 FF FF 7F 00         "./......
```

#### Opcodes

```
  0: 0x0027 [0x22] ENTITY_HIDE_FLAG(enabled=0x01)
  1: 0x0029 [0x2F] EventEntity->Render.Flags0 |= 0x80000 // Bit 19
  2: 0x002F [0x00] END_REQSTACK()
```

### Event 65535.6

#### Metadata

| Field        | Value    |
|--------------|----------|
| Entrypoint   | 0x0030   |
| Data Size    | 10 bytes |
| Instructions | 2        |

```
      00 01 02 03 04 05 06 07  08 09 0A 0B 0C 0D 0E 0F
      -- -- -- -- -- -- -- --  -- -- -- -- -- -- -- --
0030: 6C F8 FF FF 7F 00 80 01  80 00                    l.........      
```

#### Opcodes

```
  0: 0x0030 [0x6C] FADE_ENTITY_COLOR(entity_id=EventEntity, end_alpha=0*, fade_time=1*)
  1: 0x0039 [0x00] END_REQSTACK()
```

### Event 65535.7

#### Metadata

| Field        | Value    |
|--------------|----------|
| Entrypoint   | 0x003A   |
| Data Size    | 10 bytes |
| Instructions | 2        |

```
      00 01 02 03 04 05 06 07  08 09 0A 0B 0C 0D 0E 0F
      -- -- -- -- -- -- -- --  -- -- -- -- -- -- -- --
0030:                                6C F8 FF FF 7F 02            l.....
0040: 80 01 80 00                                       ....            
```

#### Opcodes

```
  0: 0x003A [0x6C] FADE_ENTITY_COLOR(entity_id=EventEntity, end_alpha=128*, fade_time=1*)
  1: 0x0043 [0x00] END_REQSTACK()
```

### Event 146

#### Metadata

| Field        | Value   |
|--------------|---------|
| Entrypoint   | 0x0044  |
| Data Size    | 1 bytes |
| Instructions | 1       |

```
      00 01 02 03 04 05 06 07  08 09 0A 0B 0C 0D 0E 0F
      -- -- -- -- -- -- -- --  -- -- -- -- -- -- -- --
0040:             00                                        .           
```

#### Opcodes

```
  0: 0x0044 [0x00] END_REQSTACK()
```

### Event 65535.8

#### Metadata

| Field        | Value    |
|--------------|----------|
| Entrypoint   | 0x0045   |
| Data Size    | 21 bytes |
| Instructions | 5        |

```
      00 01 02 03 04 05 06 07  08 09 0A 0B 0C 0D 0E 0F
      -- -- -- -- -- -- -- --  -- -- -- -- -- -- -- --
0040:                1F 00 03  80 04 80 05 80 1F 01 6F       ..........o
0050: 4A EC 02 05 01 F0 FF FF  7F 00                    J.........      
```

#### Opcodes

```
  0: 0x0045 [0x1F] MOVE_ENTITY: EventEntity moves to X=100.785*, Z=103.057*, Y=0.999*
  1: 0x004D [0x1F] MOVE_ENTITY: Update entity position (mode=1)
  2: 0x004F [0x6F] WAIT_FRAME_DELAY: Yield until WaitTime reaches zero
  3: 0x0050 [0x4A] Tanja (ID: 17105644/0x010502EC) looks at LocalPlayer
  4: 0x0059 [0x00] END_REQSTACK()
```

### Event 65535.9

#### Metadata

| Field        | Value    |
|--------------|----------|
| Entrypoint   | 0x005A   |
| Data Size    | 21 bytes |
| Instructions | 5        |

```
      00 01 02 03 04 05 06 07  08 09 0A 0B 0C 0D 0E 0F
      -- -- -- -- -- -- -- --  -- -- -- -- -- -- -- --
0050:                                1F 00 06 80 07 80            ......
0060: 00 80 1F 01 6F 4A EC 02  05 01 ED 02 05 01 00     ....oJ......... 
```

#### Opcodes

```
  0: 0x005A [0x1F] MOVE_ENTITY: EventEntity moves to X=116.906*, Z=103.657*, Y=0.000*
  1: 0x0062 [0x1F] MOVE_ENTITY: Update entity position (mode=1)
  2: 0x0064 [0x6F] WAIT_FRAME_DELAY: Yield until WaitTime reaches zero
  3: 0x0065 [0x4A] Tanja (ID: 17105644/0x010502EC) looks at Raina (ID: 17105645/0x010502ED)
  4: 0x006E [0x00] END_REQSTACK()
```

### Event 149

#### Metadata

| Field        | Value   |
|--------------|---------|
| Entrypoint   | 0x006F  |
| Data Size    | 1 bytes |
| Instructions | 1       |

```
      00 01 02 03 04 05 06 07  08 09 0A 0B 0C 0D 0E 0F
      -- -- -- -- -- -- -- --  -- -- -- -- -- -- -- --
0060:                                               00                 .
```

#### Opcodes

```
  0: 0x006F [0x00] END_REQSTACK()
```

### Event 154

#### Metadata

| Field        | Value   |
|--------------|---------|
| Entrypoint   | 0x0070  |
| Data Size    | 1 bytes |
| Instructions | 1       |

```
      00 01 02 03 04 05 06 07  08 09 0A 0B 0C 0D 0E 0F
      -- -- -- -- -- -- -- --  -- -- -- -- -- -- -- --
0070: 00                                                .               
```

#### Opcodes

```
  0: 0x0070 [0x00] END_REQSTACK()
```

### Event 65535.10

#### Metadata

| Field        | Value    |
|--------------|----------|
| Entrypoint   | 0x0071   |
| Data Size    | 20 bytes |
| Instructions | 5        |

```
      00 01 02 03 04 05 06 07  08 09 0A 0B 0C 0D 0E 0F
      -- -- -- -- -- -- -- --  -- -- -- -- -- -- -- --
0070:    59 04 F8 FF FF 7F 08  80 1F 00 09 80 0A 80 0B   Y..............
0080: 80 1F 01 6F 00                                    ...o.           
```

#### Opcodes

```
  0: 0x0071 [0x59] UPDATE_ENTITY_DATA: Set EventEntity main speed = 13* * 0.1
  1: 0x0079 [0x1F] MOVE_ENTITY: EventEntity moves to X=87.732*, Z=115.950*, Y=1.000*
  2: 0x0081 [0x1F] MOVE_ENTITY: Update entity position (mode=1)
  3: 0x0083 [0x6F] WAIT_FRAME_DELAY: Yield until WaitTime reaches zero
  4: 0x0084 [0x00] END_REQSTACK()
```

### Event 65535.11

#### Metadata

| Field        | Value    |
|--------------|----------|
| Entrypoint   | 0x0085   |
| Data Size    | 19 bytes |
| Instructions | 4        |

```
      00 01 02 03 04 05 06 07  08 09 0A 0B 0C 0D 0E 0F
      -- -- -- -- -- -- -- --  -- -- -- -- -- -- -- --
0080:                59 04 F8  FF FF 7F 08 80 1F 00 0C       Y..........
0090: 80 0D 80 05 80 1F 01 00                           ........        
```

#### Opcodes

```
  0: 0x0085 [0x59] UPDATE_ENTITY_DATA: Set EventEntity main speed = 13* * 0.1
  1: 0x008D [0x1F] MOVE_ENTITY: EventEntity moves to X=101.511*, Z=100.784*, Y=0.999*
  2: 0x0095 [0x1F] MOVE_ENTITY: Update entity position (mode=1)
  3: 0x0097 [0x00] END_REQSTACK()
```

### Event 65535.12

#### Metadata

| Field        | Value    |
|--------------|----------|
| Entrypoint   | 0x0098   |
| Data Size    | 19 bytes |
| Instructions | 3        |

```
      00 01 02 03 04 05 06 07  08 09 0A 0B 0C 0D 0E 0F
      -- -- -- -- -- -- -- --  -- -- -- -- -- -- -- --
0090:                          1C 0E 80 5B 0F 80 88 02          ...[....
00A0: 05 01 88 02 05 01 6D 61  65 31 00                 ......mae1.     
```

#### Opcodes

```
  0: 0x0098 [0x1C] WAIT(60* ticks)
  1: 0x009B [0x5B] LOAD_EXT_SCHEDULER: Load scheduler "mae1" with entities [Hegouard (ID: 17105544/0x01050288), Hegouard (ID: 17105544/0x01050288)], work=11*
  2: 0x00AA [0x00] END_REQSTACK()
```

### Event 65535.13

#### Metadata

| Field        | Value    |
|--------------|----------|
| Entrypoint   | 0x00AB   |
| Data Size    | 21 bytes |
| Instructions | 3        |

```
      00 01 02 03 04 05 06 07  08 09 0A 0B 0C 0D 0E 0F
      -- -- -- -- -- -- -- --  -- -- -- -- -- -- -- --
00A0:                                   59 05 EC 02 05             Y....
00B0: 01 01 BA EC 02 05 01 10  80 11 80 00 80 12 80 00  ................
```

#### Opcodes

```
  0: 0x00AB [0x59] UPDATE_ENTITY_DATA: Tanja (ID: 17105644/0x010502EC)->Render.Flags0 |= 0x200000
  1: 0x00B2 [0xBA] SET_ENTITY_POSITION(entity_id=Tanja (ID: 17105644/0x010502EC), pos_x=84.165*, pos_z=119.827*, pos_y=0.000*, direction=45.0°*)
  2: 0x00BF [0x00] END_REQSTACK()
```

### Event 65535.14

#### Metadata

| Field        | Value    |
|--------------|----------|
| Entrypoint   | 0x00C0   |
| Data Size    | 21 bytes |
| Instructions | 3        |

```
      00 01 02 03 04 05 06 07  08 09 0A 0B 0C 0D 0E 0F
      -- -- -- -- -- -- -- --  -- -- -- -- -- -- -- --
00C0: 59 05 ED 02 05 01 01 BA  ED 02 05 01 13 80 14 80  Y...............
00D0: 00 80 12 80 00                                    .....           
```

#### Opcodes

```
  0: 0x00C0 [0x59] UPDATE_ENTITY_DATA: Raina (ID: 17105645/0x010502ED)->Render.Flags0 |= 0x200000
  1: 0x00C7 [0xBA] SET_ENTITY_POSITION(entity_id=Raina (ID: 17105645/0x010502ED), pos_x=83.935*, pos_z=121.430*, pos_y=0.000*, direction=45.0°*)
  2: 0x00D4 [0x00] END_REQSTACK()
```

### Event 65535.15

#### Metadata

| Field        | Value    |
|--------------|----------|
| Entrypoint   | 0x00D5   |
| Data Size    | 45 bytes |
| Instructions | 10       |

```
      00 01 02 03 04 05 06 07  08 09 0A 0B 0C 0D 0E 0F
      -- -- -- -- -- -- -- --  -- -- -- -- -- -- -- --
00D0:                7B F8 FF  FF 7F 59 04 F8 FF FF 7F       {....Y.....
00E0: 08 80 1F 00 15 80 16 80  0B 80 1F 01 1F 00 17 80  ................
00F0: 18 80 0B 80 1F 01 1F 00  19 80 1A 80 0B 80 1F 01  ................
0100: 6F 00                                             o.              
```

#### Opcodes

```
  0: 0x00D5 [0x7B] EventEntity stops talking
  1: 0x00DA [0x59] UPDATE_ENTITY_DATA: Set EventEntity main speed = 13* * 0.1
  2: 0x00E2 [0x1F] MOVE_ENTITY: EventEntity moves to X=86.254*, Z=113.639*, Y=1.000*
  3: 0x00EA [0x1F] MOVE_ENTITY: Update entity position (mode=1)
  4: 0x00EC [0x1F] MOVE_ENTITY: EventEntity moves to X=84.737*, Z=112.919*, Y=1.000*
  5: 0x00F4 [0x1F] MOVE_ENTITY: Update entity position (mode=1)
  6: 0x00F6 [0x1F] MOVE_ENTITY: EventEntity moves to X=82.803*, Z=112.745*, Y=1.000*
  7: 0x00FE [0x1F] MOVE_ENTITY: Update entity position (mode=1)
  8: 0x0100 [0x6F] WAIT_FRAME_DELAY: Yield until WaitTime reaches zero
  9: 0x0101 [0x00] END_REQSTACK()
```

### Event 65535.16

#### Metadata

| Field        | Value    |
|--------------|----------|
| Entrypoint   | 0x0102   |
| Data Size    | 45 bytes |
| Instructions | 10       |

```
      00 01 02 03 04 05 06 07  08 09 0A 0B 0C 0D 0E 0F
      -- -- -- -- -- -- -- --  -- -- -- -- -- -- -- --
0100:       7B F8 FF FF 7F 59  04 F8 FF FF 7F 08 80 1F    {....Y........
0110: 00 1B 80 1C 80 00 80 1F  01 1F 00 1D 80 1E 80 00  ................
0120: 80 1F 01 1F 00 1F 80 20  80 00 80 1F 01 6F 00     ....... .....o. 
```

#### Opcodes

```
  0: 0x0102 [0x7B] EventEntity stops talking
  1: 0x0107 [0x59] UPDATE_ENTITY_DATA: Set EventEntity main speed = 13* * 0.1
  2: 0x010F [0x1F] MOVE_ENTITY: EventEntity moves to X=90.460*, Z=110.779*, Y=0.000*
  3: 0x0117 [0x1F] MOVE_ENTITY: Update entity position (mode=1)
  4: 0x0119 [0x1F] MOVE_ENTITY: EventEntity moves to X=93.052*, Z=112.944*, Y=0.000*
  5: 0x0121 [0x1F] MOVE_ENTITY: Update entity position (mode=1)
  6: 0x0123 [0x1F] MOVE_ENTITY: EventEntity moves to X=95.341*, Z=113.699*, Y=0.000*
  7: 0x012B [0x1F] MOVE_ENTITY: Update entity position (mode=1)
  8: 0x012D [0x6F] WAIT_FRAME_DELAY: Yield until WaitTime reaches zero
  9: 0x012E [0x00] END_REQSTACK()
```

### Event 65535.17

#### Metadata

| Field        | Value    |
|--------------|----------|
| Entrypoint   | 0x012F   |
| Data Size    | 69 bytes |
| Instructions | 14       |

```
      00 01 02 03 04 05 06 07  08 09 0A 0B 0C 0D 0E 0F
      -- -- -- -- -- -- -- --  -- -- -- -- -- -- -- --
0120:                                               7B                 {
0130: F8 FF FF 7F 59 04 F8 FF  FF 7F 08 80 1F 00 21 80  ....Y.........!.
0140: 22 80 00 80 1F 01 1F 00  23 80 24 80 25 80 1F 01  ".......#.$.%...
0150: 1F 00 26 80 27 80 05 80  1F 01 1F 00 28 80 29 80  ..&.'.......(.).
0160: 0B 80 1F 01 6F 4A F8 FF  FF 7F AE 02 05 01 7B F8  ....oJ........{.
0170: FF FF 7F 00                                       ....            
```

#### Opcodes

```
  0: 0x012F [0x7B] EventEntity stops talking
  1: 0x0134 [0x59] UPDATE_ENTITY_DATA: Set EventEntity main speed = 13* * 0.1
  2: 0x013C [0x1F] MOVE_ENTITY: EventEntity moves to X=89.928*, Z=112.069*, Y=0.000*
  3: 0x0144 [0x1F] MOVE_ENTITY: Update entity position (mode=1)
  4: 0x0146 [0x1F] MOVE_ENTITY: EventEntity moves to X=89.027*, Z=117.199*, Y=0.750*
  5: 0x014E [0x1F] MOVE_ENTITY: Update entity position (mode=1)
  6: 0x0150 [0x1F] MOVE_ENTITY: EventEntity moves to X=88.920*, Z=117.934*, Y=0.999*
  7: 0x0158 [0x1F] MOVE_ENTITY: Update entity position (mode=1)
  8: 0x015A [0x1F] MOVE_ENTITY: EventEntity moves to X=89.319*, Z=119.738*, Y=1.000*
  9: 0x0162 [0x1F] MOVE_ENTITY: Update entity position (mode=1)
 10: 0x0164 [0x6F] WAIT_FRAME_DELAY: Yield until WaitTime reaches zero
 11: 0x0165 [0x4A] EventEntity looks at Vestillet (ID: 17105582/0x010502AE)
 12: 0x016E [0x7B] EventEntity stops talking
 13: 0x0173 [0x00] END_REQSTACK()
```

### Event 65535.18

#### Metadata

| Field        | Value    |
|--------------|----------|
| Entrypoint   | 0x0174   |
| Data Size    | 11 bytes |
| Instructions | 3        |

```
      00 01 02 03 04 05 06 07  08 09 0A 0B 0C 0D 0E 0F
      -- -- -- -- -- -- -- --  -- -- -- -- -- -- -- --
0170:             1F 00 2A 80  2B 80 00 80 1F 01 00         ..*.+...... 
```

#### Opcodes

```
  0: 0x0174 [0x1F] MOVE_ENTITY: EventEntity moves to X=94.644*, Z=114.720*, Y=0.000*
  1: 0x017C [0x1F] MOVE_ENTITY: Update entity position (mode=1)
  2: 0x017E [0x00] END_REQSTACK()
```

### Event 65535.19

#### Metadata

| Field        | Value    |
|--------------|----------|
| Entrypoint   | 0x017F   |
| Data Size    | 13 bytes |
| Instructions | 3        |

```
      00 01 02 03 04 05 06 07  08 09 0A 0B 0C 0D 0E 0F
      -- -- -- -- -- -- -- --  -- -- -- -- -- -- -- --
0170:                                               6E                 n
0180: F8 FF FF 7F 08 80 99 F8  FF FF 7F 00              ............    
```

#### Opcodes

```
  0: 0x017F [0x6E] EventEntity uses emote 13*
  1: 0x0186 [0x99] Wait for EventEntity animation to complete
  2: 0x018B [0x00] END_REQSTACK()
```

### Event 65535.20

#### Metadata

| Field        | Value    |
|--------------|----------|
| Entrypoint   | 0x018C   |
| Data Size    | 13 bytes |
| Instructions | 3        |

```
      00 01 02 03 04 05 06 07  08 09 0A 0B 0C 0D 0E 0F
      -- -- -- -- -- -- -- --  -- -- -- -- -- -- -- --
0180:                                      6E F8 FF FF              n...
0190: 7F 2C 80 99 F8 FF FF 7F  00                       .,.......       
```

#### Opcodes

```
  0: 0x018C [0x6E] EventEntity uses emote 1579*
  1: 0x0193 [0x99] Wait for EventEntity animation to complete
  2: 0x0198 [0x00] END_REQSTACK()
```

### Event 65535.21

#### Metadata

| Field        | Value    |
|--------------|----------|
| Entrypoint   | 0x0199   |
| Data Size    | 58 bytes |
| Instructions | 14       |

```
      00 01 02 03 04 05 06 07  08 09 0A 0B 0C 0D 0E 0F
      -- -- -- -- -- -- -- --  -- -- -- -- -- -- -- --
0190:                             1C 2D 80 1C 2E 80 6E           .-....n
01A0: 0E 03 05 01 2F 80 99 0E  03 05 01 1C 0E 80 6E 12  ..../.........n.
01B0: 03 05 01 2F 80 99 12 03  05 01 1C 30 80 1C 31 80  .../.......0..1.
01C0: 6E 18 03 05 01 32 80 99  18 03 05 01 1C 33 80 1C  n....2.......3..
01D0: 2D 80 00                                          -..             
```

#### Opcodes

```
  0: 0x0199 [0x1C] WAIT(180* ticks)
  1: 0x019C [0x1C] WAIT(30* ticks)
  2: 0x019F [0x6E] Leonoyne (ID: 17105678/0x0105030E) uses emote 7*
  3: 0x01A6 [0x99] Wait for Leonoyne (ID: 17105678/0x0105030E) animation to complete
  4: 0x01AB [0x1C] WAIT(60* ticks)
  5: 0x01AE [0x6E] Febrenard C Brunnaut (ID: 17105682/0x01050312) uses emote 7*
  6: 0x01B5 [0x99] Wait for Febrenard C Brunnaut (ID: 17105682/0x01050312) animation to complete
  7: 0x01BA [0x1C] WAIT(90* ticks)
  8: 0x01BD [0x1C] WAIT(80* ticks)
  9: 0x01C0 [0x6E] 04 (ID: 17105688/0x01050318) uses emote 36*
 10: 0x01C7 [0x99] Wait for 04 (ID: 17105688/0x01050318) animation to complete
 11: 0x01CC [0x1C] WAIT(100* ticks)
 12: 0x01CF [0x1C] WAIT(180* ticks)
 13: 0x01D2 [0x00] END_REQSTACK()
```

### Event 65535.22

#### Metadata

| Field        | Value     |
|--------------|-----------|
| Entrypoint   | 0x01D3    |
| Data Size    | 128 bytes |
| Instructions | 22        |

```
      00 01 02 03 04 05 06 07  08 09 0A 0B 0C 0D 0E 0F
      -- -- -- -- -- -- -- --  -- -- -- -- -- -- -- --
01D0:          27 10 14 03 05  01 14 1C 34 80 27 10 12     '.......4.'..
01E0: 03 05 01 12 27 10 18 03  05 01 14 27 10 10 03 05  ....'......'....
01F0: 01 12 6E ED 02 05 01 35  80 99 ED 02 05 01 27 10  ..n....5......'.
0200: 19 03 05 01 13 27 10 1B  03 05 01 14 6E 17 03 05  .....'......n...
0210: 01 08 80 99 17 03 05 01  27 10 1A 03 05 01 13 6E  ........'......n
0220: 13 03 05 01 08 80 99 13  03 05 01 1C 34 80 27 10  ............4.'.
0230: 11 03 05 01 12 27 10 0F  03 05 01 12 1C 34 80 27  .....'.......4.'
0240: 10 0E 03 05 01 12 6E AE  02 05 01 08 80 99 AE 02  ......n.........
0250: 05 01 00                                          ...             
```

#### Opcodes

```
  0: 0x01D3 [0x27] REQ_SET(priority=0x10, entity_id=Unnamed NPC (ID: 17105684/0x01050314), tag_num=0x14)
  1: 0x01DA [0x1C] WAIT(5* ticks)
  2: 0x01DD [0x27] REQ_SET(priority=0x10, entity_id=Febrenard C Brunnaut (ID: 17105682/0x01050312), tag_num=0x12)
  3: 0x01E4 [0x27] REQ_SET(priority=0x10, entity_id=04 (ID: 17105688/0x01050318), tag_num=0x14)
  4: 0x01EB [0x27] REQ_SET(priority=0x10, entity_id=Laisavie X Berlends (ID: 17105680/0x01050310), tag_num=0x12)
  5: 0x01F2 [0x6E] Raina (ID: 17105645/0x010502ED) uses emote 14*
  6: 0x01F9 [0x99] Wait for Raina (ID: 17105645/0x010502ED) animation to complete
  7: 0x01FE [0x27] REQ_SET(priority=0x10, entity_id=05 (ID: 17105689/0x01050319), tag_num=0x13)
  8: 0x0205 [0x27] REQ_SET(priority=0x10, entity_id=07 (ID: 17105691/0x0105031B), tag_num=0x14)
  9: 0x020C [0x6E] 03 (ID: 17105687/0x01050317) uses emote 13*
 10: 0x0213 [0x99] Wait for 03 (ID: 17105687/0x01050317) animation to complete
 11: 0x0218 [0x27] REQ_SET(priority=0x10, entity_id=06 (ID: 17105690/0x0105031A), tag_num=0x13)
 12: 0x021F [0x6E] Noillurie (ID: 17105683/0x01050313) uses emote 13*
 13: 0x0226 [0x99] Wait for Noillurie (ID: 17105683/0x01050313) animation to complete
 14: 0x022B [0x1C] WAIT(5* ticks)
 15: 0x022E [0x27] REQ_SET(priority=0x10, entity_id=Mieuseloir B Enchelles (ID: 17105681/0x01050311), tag_num=0x12)
 16: 0x0235 [0x27] REQ_SET(priority=0x10, entity_id=Feldrautte I Rouhent (ID: 17105679/0x0105030F), tag_num=0x12)
 17: 0x023C [0x1C] WAIT(5* ticks)
 18: 0x023F [0x27] REQ_SET(priority=0x10, entity_id=Leonoyne (ID: 17105678/0x0105030E), tag_num=0x12)
 19: 0x0246 [0x6E] Vestillet (ID: 17105582/0x010502AE) uses emote 13*
 20: 0x024D [0x99] Wait for Vestillet (ID: 17105582/0x010502AE) animation to complete
 21: 0x0252 [0x00] END_REQSTACK()
```

### Event 65535.23

#### Metadata

| Field        | Value    |
|--------------|----------|
| Entrypoint   | 0x0253   |
| Data Size    | 45 bytes |
| Instructions | 10       |

```
      00 01 02 03 04 05 06 07  08 09 0A 0B 0C 0D 0E 0F
      -- -- -- -- -- -- -- --  -- -- -- -- -- -- -- --
0250:          7B F8 FF FF 7F  59 04 F8 FF FF 7F 08 80     {....Y.......
0260: 1F 00 36 80 37 80 00 80  1F 01 1F 00 38 80 39 80  ..6.7.......8.9.
0270: 3A 80 1F 01 1F 00 3B 80  3C 80 0B 80 1F 01 6F 00  :.....;.<.....o.
```

#### Opcodes

```
  0: 0x0253 [0x7B] EventEntity stops talking
  1: 0x0258 [0x59] UPDATE_ENTITY_DATA: Set EventEntity main speed = 13* * 0.1
  2: 0x0260 [0x1F] MOVE_ENTITY: EventEntity moves to X=90.793*, Z=112.585*, Y=0.000*
  3: 0x0268 [0x1F] MOVE_ENTITY: Update entity position (mode=1)
  4: 0x026A [0x1F] MOVE_ENTITY: EventEntity moves to X=88.371*, Z=114.347*, Y=0.500*
  5: 0x0272 [0x1F] MOVE_ENTITY: Update entity position (mode=1)
  6: 0x0274 [0x1F] MOVE_ENTITY: EventEntity moves to X=84.505*, Z=113.888*, Y=1.000*
  7: 0x027C [0x1F] MOVE_ENTITY: Update entity position (mode=1)
  8: 0x027E [0x6F] WAIT_FRAME_DELAY: Yield until WaitTime reaches zero
  9: 0x027F [0x00] END_REQSTACK()
```

### Event 65535.24

#### Metadata

| Field        | Value    |
|--------------|----------|
| Entrypoint   | 0x0280   |
| Data Size    | 35 bytes |
| Instructions | 8        |

```
      00 01 02 03 04 05 06 07  08 09 0A 0B 0C 0D 0E 0F
      -- -- -- -- -- -- -- --  -- -- -- -- -- -- -- --
0280: 4A F8 FF FF 7F EC 02 05  01 6F 76 F8 FF FF 7F 59  J........ov....Y
0290: 04 F8 FF FF 7F 08 80 1F  00 3D 80 3E 80 00 80 1F  .........=.>....
02A0: 01 6F 00                                          .o.             
```

#### Opcodes

```
  0: 0x0280 [0x4A] EventEntity looks at Tanja (ID: 17105644/0x010502EC)
  1: 0x0289 [0x6F] WAIT_FRAME_DELAY: Yield until WaitTime reaches zero
  2: 0x028A [0x76] CHECK_ENTITY_RENDER_FLAGS: Wait until EventEntity Render.Flags0 and Render.Flags3 conditions are met
  3: 0x028F [0x59] UPDATE_ENTITY_DATA: Set EventEntity main speed = 13* * 0.1
  4: 0x0297 [0x1F] MOVE_ENTITY: EventEntity moves to X=88.636*, Z=112.696*, Y=0.000*
  5: 0x029F [0x1F] MOVE_ENTITY: Update entity position (mode=1)
  6: 0x02A1 [0x6F] WAIT_FRAME_DELAY: Yield until WaitTime reaches zero
  7: 0x02A2 [0x00] END_REQSTACK()
```

### Event 65535.25

#### Metadata

| Field        | Value    |
|--------------|----------|
| Entrypoint   | 0x02A3   |
| Data Size    | 21 bytes |
| Instructions | 2        |

```
      00 01 02 03 04 05 06 07  08 09 0A 0B 0C 0D 0E 0F
      -- -- -- -- -- -- -- --  -- -- -- -- -- -- -- --
02A0:          B6 0B 3F 80 0F  80 40 80 40 80 40 80 40     ..?...@.@.@.@
02B0: 80 40 80 00 80 00 80 00                           .@......        
```

#### Opcodes

```
  0: 0x02A3 [0xB6] ENTITY_APPEARANCE_HANDLER(case=Full entity look, race=3*, hair=11*, head=23*, body=23*, hands=23*, legs=23*, feet=23*, main=0*, sub=0*)
  1: 0x02B7 [0x00] END_REQSTACK()
```

### Event 65535.26

#### Metadata

| Field        | Value    |
|--------------|----------|
| Entrypoint   | 0x02B8   |
| Data Size    | 21 bytes |
| Instructions | 2        |

```
      00 01 02 03 04 05 06 07  08 09 0A 0B 0C 0D 0E 0F
      -- -- -- -- -- -- -- --  -- -- -- -- -- -- -- --
02B0:                          B6 0B 41 80 3F 80 40 80          ..A.?.@.
02C0: 42 80 40 80 40 80 40 80  00 80 00 80 00           B.@.@.@......   
```

#### Opcodes

```
  0: 0x02B8 [0xB6] ENTITY_APPEARANCE_HANDLER(case=Full entity look, race=2*, hair=3*, head=23*, body=104*, hands=23*, legs=23*, feet=23*, main=0*, sub=0*)
  1: 0x02CC [0x00] END_REQSTACK()
```

### Event 65535.27

#### Metadata

| Field        | Value    |
|--------------|----------|
| Entrypoint   | 0x02CD   |
| Data Size    | 21 bytes |
| Instructions | 2        |

```
      00 01 02 03 04 05 06 07  08 09 0A 0B 0C 0D 0E 0F
      -- -- -- -- -- -- -- --  -- -- -- -- -- -- -- --
02C0:                                         B6 0B 34               ..4
02D0: 80 34 80 43 80 43 80 43  80 43 80 43 80 00 80 00  .4.C.C.C.C.C....
02E0: 80 00                                             ..              
```

#### Opcodes

```
  0: 0x02CD [0xB6] ENTITY_APPEARANCE_HANDLER(case=Full entity look, race=5*, hair=5*, head=24*, body=24*, hands=24*, legs=24*, feet=24*, main=0*, sub=0*)
  1: 0x02E1 [0x00] END_REQSTACK()
```

### Event 65535.28

#### Metadata

| Field        | Value    |
|--------------|----------|
| Entrypoint   | 0x02E2   |
| Data Size    | 21 bytes |
| Instructions | 2        |

```
      00 01 02 03 04 05 06 07  08 09 0A 0B 0C 0D 0E 0F
      -- -- -- -- -- -- -- --  -- -- -- -- -- -- -- --
02E0:       B6 0B 2F 80 44 80  40 80 40 80 40 80 40 80    ../.D.@.@.@.@.
02F0: 40 80 00 80 00 80 00                              @......         
```

#### Opcodes

```
  0: 0x02E2 [0xB6] ENTITY_APPEARANCE_HANDLER(case=Full entity look, race=7*, hair=6*, head=23*, body=23*, hands=23*, legs=23*, feet=23*, main=0*, sub=0*)
  1: 0x02F6 [0x00] END_REQSTACK()
```

### Event 65535.29

#### Metadata

| Field        | Value    |
|--------------|----------|
| Entrypoint   | 0x02F7   |
| Data Size    | 21 bytes |
| Instructions | 2        |

```
      00 01 02 03 04 05 06 07  08 09 0A 0B 0C 0D 0E 0F
      -- -- -- -- -- -- -- --  -- -- -- -- -- -- -- --
02F0:                      B6  0B 45 80 3F 80 00 80 46         ..E.?...F
0300: 80 46 80 46 80 46 80 00  80 00 80 00              .F.F.F......    
```

#### Opcodes

```
  0: 0x02F7 [0xB6] ENTITY_APPEARANCE_HANDLER(case=Full entity look, race=4*, hair=3*, head=0*, body=21*, hands=21*, legs=21*, feet=21*, main=0*, sub=0*)
  1: 0x030B [0x00] END_REQSTACK()
```

### Event 65535.30

#### Metadata

| Field        | Value    |
|--------------|----------|
| Entrypoint   | 0x030C   |
| Data Size    | 21 bytes |
| Instructions | 2        |

```
      00 01 02 03 04 05 06 07  08 09 0A 0B 0C 0D 0E 0F
      -- -- -- -- -- -- -- --  -- -- -- -- -- -- -- --
0300:                                      B6 0B 47 80              ..G.
0310: 00 80 48 80 49 80 49 80  49 80 49 80 00 80 00 80  ..H.I.I.I.I.....
0320: 00                                                .               
```

#### Opcodes

```
  0: 0x030C [0xB6] ENTITY_APPEARANCE_HANDLER(case=Full entity look, race=8*, hair=0*, head=125*, body=96*, hands=96*, legs=96*, feet=96*, main=0*, sub=0*)
  1: 0x0320 [0x00] END_REQSTACK()
```

### Event 65535.31

#### Metadata

| Field        | Value    |
|--------------|----------|
| Entrypoint   | 0x0321   |
| Data Size    | 21 bytes |
| Instructions | 2        |

```
      00 01 02 03 04 05 06 07  08 09 0A 0B 0C 0D 0E 0F
      -- -- -- -- -- -- -- --  -- -- -- -- -- -- -- --
0320:    B6 0B 47 80 3F 80 48  80 49 80 49 80 49 80 49   ..G.?.H.I.I.I.I
0330: 80 00 80 00 80 00                                 ......          
```

#### Opcodes

```
  0: 0x0321 [0xB6] ENTITY_APPEARANCE_HANDLER(case=Full entity look, race=8*, hair=3*, head=125*, body=96*, hands=96*, legs=96*, feet=96*, main=0*, sub=0*)
  1: 0x0335 [0x00] END_REQSTACK()
```

### Event 65535.32

#### Metadata

| Field        | Value    |
|--------------|----------|
| Entrypoint   | 0x0336   |
| Data Size    | 21 bytes |
| Instructions | 2        |

```
      00 01 02 03 04 05 06 07  08 09 0A 0B 0C 0D 0E 0F
      -- -- -- -- -- -- -- --  -- -- -- -- -- -- -- --
0330:                   B6 0B  3F 80 4A 80 4B 80 4C 80        ..?.J.K.L.
0340: 4D 80 4E 80 4E 80 00 80  00 80 00                 M.N.N......     
```

#### Opcodes

```
  0: 0x0336 [0xB6] ENTITY_APPEARANCE_HANDLER(case=Full entity look, race=3*, hair=15*, head=56*, body=41*, hands=217*, legs=12*, feet=12*, main=0*, sub=0*)
  1: 0x034A [0x00] END_REQSTACK()
```

### Event 65535.33

#### Metadata

| Field        | Value    |
|--------------|----------|
| Entrypoint   | 0x034B   |
| Data Size    | 21 bytes |
| Instructions | 2        |

```
      00 01 02 03 04 05 06 07  08 09 0A 0B 0C 0D 0E 0F
      -- -- -- -- -- -- -- --  -- -- -- -- -- -- -- --
0340:                                   B6 0B 3F 80 0F             ..?..
0350: 80 4B 80 4F 80 4E 80 4E  80 4E 80 00 80 00 80 00  .K.O.N.N.N......
```

#### Opcodes

```
  0: 0x034B [0xB6] ENTITY_APPEARANCE_HANDLER(case=Full entity look, race=3*, hair=11*, head=56*, body=221*, hands=12*, legs=12*, feet=12*, main=0*, sub=0*)
  1: 0x035F [0x00] END_REQSTACK()
```

### Event 65535.34

#### Metadata

| Field        | Value    |
|--------------|----------|
| Entrypoint   | 0x0360   |
| Data Size    | 21 bytes |
| Instructions | 2        |

```
      00 01 02 03 04 05 06 07  08 09 0A 0B 0C 0D 0E 0F
      -- -- -- -- -- -- -- --  -- -- -- -- -- -- -- --
0360: B6 0B 3F 80 01 80 4B 80  4F 80 4E 80 4E 80 4E 80  ..?...K.O.N.N.N.
0370: 00 80 00 80 00                                    .....           
```

#### Opcodes

```
  0: 0x0360 [0xB6] ENTITY_APPEARANCE_HANDLER(case=Full entity look, race=3*, hair=1*, head=56*, body=221*, hands=12*, legs=12*, feet=12*, main=0*, sub=0*)
  1: 0x0374 [0x00] END_REQSTACK()
```

### Event 65535.35

#### Metadata

| Field        | Value    |
|--------------|----------|
| Entrypoint   | 0x0375   |
| Data Size    | 21 bytes |
| Instructions | 2        |

```
      00 01 02 03 04 05 06 07  08 09 0A 0B 0C 0D 0E 0F
      -- -- -- -- -- -- -- --  -- -- -- -- -- -- -- --
0370:                B6 0B 45  80 34 80 00 80 50 80 51       ..E.4...P.Q
0380: 80 51 80 51 80 00 80 00  80 00                    .Q.Q......      
```

#### Opcodes

```
  0: 0x0375 [0xB6] ENTITY_APPEARANCE_HANDLER(case=Full entity look, race=4*, hair=5*, head=0*, body=40*, hands=151*, legs=151*, feet=151*, main=0*, sub=0*)
  1: 0x0389 [0x00] END_REQSTACK()
```

### Event 65535.36

#### Metadata

| Field        | Value    |
|--------------|----------|
| Entrypoint   | 0x038A   |
| Data Size    | 21 bytes |
| Instructions | 2        |

```
      00 01 02 03 04 05 06 07  08 09 0A 0B 0C 0D 0E 0F
      -- -- -- -- -- -- -- --  -- -- -- -- -- -- -- --
0380:                                B6 0B 45 80 00 80            ..E...
0390: 00 80 50 80 51 80 51 80  51 80 00 80 00 80 00     ..P.Q.Q.Q...... 
```

#### Opcodes

```
  0: 0x038A [0xB6] ENTITY_APPEARANCE_HANDLER(case=Full entity look, race=4*, hair=0*, head=0*, body=40*, hands=151*, legs=151*, feet=151*, main=0*, sub=0*)
  1: 0x039E [0x00] END_REQSTACK()
```

### Event 65535.37

#### Metadata

| Field        | Value    |
|--------------|----------|
| Entrypoint   | 0x039F   |
| Data Size    | 21 bytes |
| Instructions | 2        |

```
      00 01 02 03 04 05 06 07  08 09 0A 0B 0C 0D 0E 0F
      -- -- -- -- -- -- -- --  -- -- -- -- -- -- -- --
0390:                                               B6                 .
03A0: 0B 41 80 52 80 53 80 53  80 53 80 53 80 53 80 00  .A.R.S.S.S.S.S..
03B0: 80 00 80 00                                       ....            
```

#### Opcodes

```
  0: 0x039F [0xB6] ENTITY_APPEARANCE_HANDLER(case=Full entity look, race=2*, hair=9*, head=211*, body=211*, hands=211*, legs=211*, feet=211*, main=0*, sub=0*)
  1: 0x03B3 [0x00] END_REQSTACK()
```

### Event 65535.38

#### Metadata

| Field        | Value    |
|--------------|----------|
| Entrypoint   | 0x03B4   |
| Data Size    | 21 bytes |
| Instructions | 2        |

```
      00 01 02 03 04 05 06 07  08 09 0A 0B 0C 0D 0E 0F
      -- -- -- -- -- -- -- --  -- -- -- -- -- -- -- --
03B0:             B6 0B 41 80  44 80 53 80 53 80 53 80      ..A.D.S.S.S.
03C0: 53 80 53 80 00 80 00 80  00                       S.S......       
```

#### Opcodes

```
  0: 0x03B4 [0xB6] ENTITY_APPEARANCE_HANDLER(case=Full entity look, race=2*, hair=6*, head=211*, body=211*, hands=211*, legs=211*, feet=211*, main=0*, sub=0*)
  1: 0x03C8 [0x00] END_REQSTACK()
```

### Event 65535.39

#### Metadata

| Field        | Value    |
|--------------|----------|
| Entrypoint   | 0x03C9   |
| Data Size    | 21 bytes |
| Instructions | 2        |

```
      00 01 02 03 04 05 06 07  08 09 0A 0B 0C 0D 0E 0F
      -- -- -- -- -- -- -- --  -- -- -- -- -- -- -- --
03C0:                             B6 0B 41 80 01 80 53           ..A...S
03D0: 80 53 80 53 80 53 80 53  80 00 80 00 80 00        .S.S.S.S......  
```

#### Opcodes

```
  0: 0x03C9 [0xB6] ENTITY_APPEARANCE_HANDLER(case=Full entity look, race=2*, hair=1*, head=211*, body=211*, hands=211*, legs=211*, feet=211*, main=0*, sub=0*)
  1: 0x03DD [0x00] END_REQSTACK()
```

### Event 65535.40

#### Metadata

| Field        | Value    |
|--------------|----------|
| Entrypoint   | 0x03DE   |
| Data Size    | 21 bytes |
| Instructions | 2        |

```
      00 01 02 03 04 05 06 07  08 09 0A 0B 0C 0D 0E 0F
      -- -- -- -- -- -- -- --  -- -- -- -- -- -- -- --
03D0:                                            B6 0B                ..
03E0: 3F 80 4E 80 54 80 55 80  54 80 54 80 54 80 00 80  ?.N.T.U.T.T.T...
03F0: 00 80 00                                          ...             
```

#### Opcodes

```
  0: 0x03DE [0xB6] ENTITY_APPEARANCE_HANDLER(case=Full entity look, race=3*, hair=12*, head=164*, body=69*, hands=164*, legs=164*, feet=164*, main=0*, sub=0*)
  1: 0x03F2 [0x00] END_REQSTACK()
```

### Event 65535.41

#### Metadata

| Field        | Value    |
|--------------|----------|
| Entrypoint   | 0x03F3   |
| Data Size    | 21 bytes |
| Instructions | 2        |

```
      00 01 02 03 04 05 06 07  08 09 0A 0B 0C 0D 0E 0F
      -- -- -- -- -- -- -- --  -- -- -- -- -- -- -- --
03F0:          B6 0B 45 80 34  80 00 80 56 80 57 80 57     ..E.4...V.W.W
0400: 80 57 80 00 80 00 80 00                           .W......        
```

#### Opcodes

```
  0: 0x03F3 [0xB6] ENTITY_APPEARANCE_HANDLER(case=Full entity look, race=4*, hair=5*, head=0*, body=47*, hands=26*, legs=26*, feet=26*, main=0*, sub=0*)
  1: 0x0407 [0x00] END_REQSTACK()
```

### Event 65535.42

#### Metadata

| Field        | Value    |
|--------------|----------|
| Entrypoint   | 0x0408   |
| Data Size    | 21 bytes |
| Instructions | 2        |

```
      00 01 02 03 04 05 06 07  08 09 0A 0B 0C 0D 0E 0F
      -- -- -- -- -- -- -- --  -- -- -- -- -- -- -- --
0400:                          B6 0B 45 80 41 80 00 80          ..E.A...
0410: 4D 80 4D 80 4D 80 4D 80  00 80 00 80 00           M.M.M.M......   
```

#### Opcodes

```
  0: 0x0408 [0xB6] ENTITY_APPEARANCE_HANDLER(case=Full entity look, race=4*, hair=2*, head=0*, body=217*, hands=217*, legs=217*, feet=217*, main=0*, sub=0*)
  1: 0x041C [0x00] END_REQSTACK()
```

### Event 65535.43

#### Metadata

| Field        | Value    |
|--------------|----------|
| Entrypoint   | 0x041D   |
| Data Size    | 21 bytes |
| Instructions | 2        |

```
      00 01 02 03 04 05 06 07  08 09 0A 0B 0C 0D 0E 0F
      -- -- -- -- -- -- -- --  -- -- -- -- -- -- -- --
0410:                                         B6 0B 3F               ..?
0420: 80 35 80 00 80 4D 80 4D  80 4D 80 4D 80 00 80 00  .5...M.M.M.M....
0430: 80 00                                             ..              
```

#### Opcodes

```
  0: 0x041D [0xB6] ENTITY_APPEARANCE_HANDLER(case=Full entity look, race=3*, hair=14*, head=0*, body=217*, hands=217*, legs=217*, feet=217*, main=0*, sub=0*)
  1: 0x0431 [0x00] END_REQSTACK()
```

### Event 65535.44

#### Metadata

| Field        | Value    |
|--------------|----------|
| Entrypoint   | 0x0432   |
| Data Size    | 21 bytes |
| Instructions | 2        |

```
      00 01 02 03 04 05 06 07  08 09 0A 0B 0C 0D 0E 0F
      -- -- -- -- -- -- -- --  -- -- -- -- -- -- -- --
0430:       B6 0B 3F 80 45 80  00 80 4E 80 4E 80 4E 80    ..?.E...N.N.N.
0440: 4E 80 00 80 00 80 00                              N......         
```

#### Opcodes

```
  0: 0x0432 [0xB6] ENTITY_APPEARANCE_HANDLER(case=Full entity look, race=3*, hair=4*, head=0*, body=12*, hands=12*, legs=12*, feet=12*, main=0*, sub=0*)
  1: 0x0446 [0x00] END_REQSTACK()
```

### Event 65535.45

#### Metadata

| Field        | Value    |
|--------------|----------|
| Entrypoint   | 0x0447   |
| Data Size    | 21 bytes |
| Instructions | 2        |

```
      00 01 02 03 04 05 06 07  08 09 0A 0B 0C 0D 0E 0F
      -- -- -- -- -- -- -- --  -- -- -- -- -- -- -- --
0440:                      B6  0B 3F 80 00 80 00 80 4F         ..?.....O
0450: 80 4D 80 4E 80 4E 80 00  80 00 80 00              .M.N.N......    
```

#### Opcodes

```
  0: 0x0447 [0xB6] ENTITY_APPEARANCE_HANDLER(case=Full entity look, race=3*, hair=0*, head=0*, body=221*, hands=217*, legs=12*, feet=12*, main=0*, sub=0*)
  1: 0x045B [0x00] END_REQSTACK()
```

### Event 65535.46

#### Metadata

| Field        | Value    |
|--------------|----------|
| Entrypoint   | 0x045C   |
| Data Size    | 21 bytes |
| Instructions | 2        |

```
      00 01 02 03 04 05 06 07  08 09 0A 0B 0C 0D 0E 0F
      -- -- -- -- -- -- -- --  -- -- -- -- -- -- -- --
0450:                                      B6 0B 3F 80              ..?.
0460: 45 80 00 80 58 80 58 80  08 80 08 80 00 80 00 80  E...X.X.........
0470: 00                                                .               
```

#### Opcodes

```
  0: 0x045C [0xB6] ENTITY_APPEARANCE_HANDLER(case=Full entity look, race=3*, hair=4*, head=0*, body=114*, hands=114*, legs=13*, feet=13*, main=0*, sub=0*)
  1: 0x0470 [0x00] END_REQSTACK()
```

### Event 65535.47

#### Metadata

| Field        | Value    |
|--------------|----------|
| Entrypoint   | 0x0471   |
| Data Size    | 21 bytes |
| Instructions | 2        |

```
      00 01 02 03 04 05 06 07  08 09 0A 0B 0C 0D 0E 0F
      -- -- -- -- -- -- -- --  -- -- -- -- -- -- -- --
0470:    B6 0B 3F 80 41 80 00  80 59 80 59 80 59 80 59   ..?.A...Y.Y.Y.Y
0480: 80 00 80 00 80 00                                 ......          
```

#### Opcodes

```
  0: 0x0471 [0xB6] ENTITY_APPEARANCE_HANDLER(case=Full entity look, race=3*, hair=2*, head=0*, body=58*, hands=58*, legs=58*, feet=58*, main=0*, sub=0*)
  1: 0x0485 [0x00] END_REQSTACK()
```

### Event 65535.48

#### Metadata

| Field        | Value    |
|--------------|----------|
| Entrypoint   | 0x0486   |
| Data Size    | 21 bytes |
| Instructions | 2        |

```
      00 01 02 03 04 05 06 07  08 09 0A 0B 0C 0D 0E 0F
      -- -- -- -- -- -- -- --  -- -- -- -- -- -- -- --
0480:                   B6 0B  01 80 41 80 5A 80 5A 80        ....A.Z.Z.
0490: 5A 80 5A 80 5A 80 00 80  00 80 00                 Z.Z.Z......     
```

#### Opcodes

```
  0: 0x0486 [0xB6] ENTITY_APPEARANCE_HANDLER(case=Full entity look, race=1*, hair=2*, head=210*, body=210*, hands=210*, legs=210*, feet=210*, main=0*, sub=0*)
  1: 0x049A [0x00] END_REQSTACK()
```

### Event 65535.49

#### Metadata

| Field        | Value    |
|--------------|----------|
| Entrypoint   | 0x049B   |
| Data Size    | 21 bytes |
| Instructions | 2        |

```
      00 01 02 03 04 05 06 07  08 09 0A 0B 0C 0D 0E 0F
      -- -- -- -- -- -- -- --  -- -- -- -- -- -- -- --
0490:                                   B6 0B 3F 80 00             ..?..
04A0: 80 00 80 4F 80 4E 80 4F  80 08 80 00 80 00 80 00  ...O.N.O........
```

#### Opcodes

```
  0: 0x049B [0xB6] ENTITY_APPEARANCE_HANDLER(case=Full entity look, race=3*, hair=0*, head=0*, body=221*, hands=12*, legs=221*, feet=13*, main=0*, sub=0*)
  1: 0x04AF [0x00] END_REQSTACK()
```

### Event 65535.50

#### Metadata

| Field        | Value    |
|--------------|----------|
| Entrypoint   | 0x04B0   |
| Data Size    | 21 bytes |
| Instructions | 2        |

```
      00 01 02 03 04 05 06 07  08 09 0A 0B 0C 0D 0E 0F
      -- -- -- -- -- -- -- --  -- -- -- -- -- -- -- --
04B0: B6 0B 3F 80 41 80 00 80  08 80 4F 80 08 80 4F 80  ..?.A.....O...O.
04C0: 00 80 00 80 00                                    .....           
```

#### Opcodes

```
  0: 0x04B0 [0xB6] ENTITY_APPEARANCE_HANDLER(case=Full entity look, race=3*, hair=2*, head=0*, body=13*, hands=221*, legs=13*, feet=221*, main=0*, sub=0*)
  1: 0x04C4 [0x00] END_REQSTACK()
```

### Event 65535.51

#### Metadata

| Field        | Value    |
|--------------|----------|
| Entrypoint   | 0x04C5   |
| Data Size    | 21 bytes |
| Instructions | 2        |

```
      00 01 02 03 04 05 06 07  08 09 0A 0B 0C 0D 0E 0F
      -- -- -- -- -- -- -- --  -- -- -- -- -- -- -- --
04C0:                B6 0B 3F  80 44 80 00 80 4E 80 4E       ..?.D...N.N
04D0: 80 4E 80 5A 80 00 80 00  80 00                    .N.Z......      
```

#### Opcodes

```
  0: 0x04C5 [0xB6] ENTITY_APPEARANCE_HANDLER(case=Full entity look, race=3*, hair=6*, head=0*, body=12*, hands=12*, legs=12*, feet=210*, main=0*, sub=0*)
  1: 0x04D9 [0x00] END_REQSTACK()
```

### Event 65535.52

#### Metadata

| Field        | Value    |
|--------------|----------|
| Entrypoint   | 0x04DA   |
| Data Size    | 21 bytes |
| Instructions | 2        |

```
      00 01 02 03 04 05 06 07  08 09 0A 0B 0C 0D 0E 0F
      -- -- -- -- -- -- -- --  -- -- -- -- -- -- -- --
04D0:                                B6 0B 3F 80 4E 80            ..?.N.
04E0: 00 80 4E 80 4E 80 4E 80  5B 80 00 80 00 80 00     ..N.N.N.[...... 
```

#### Opcodes

```
  0: 0x04DA [0xB6] ENTITY_APPEARANCE_HANDLER(case=Full entity look, race=3*, hair=12*, head=0*, body=12*, hands=12*, legs=12*, feet=251*, main=0*, sub=0*)
  1: 0x04EE [0x00] END_REQSTACK()
```

### Event 65535.53

#### Metadata

| Field        | Value    |
|--------------|----------|
| Entrypoint   | 0x04EF   |
| Data Size    | 21 bytes |
| Instructions | 2        |

```
      00 01 02 03 04 05 06 07  08 09 0A 0B 0C 0D 0E 0F
      -- -- -- -- -- -- -- --  -- -- -- -- -- -- -- --
04E0:                                               B6                 .
04F0: 0B 3F 80 35 80 00 80 5C  80 4D 80 4D 80 4D 80 00  .?.5...\.M.M.M..
0500: 80 00 80 00                                       ....            
```

#### Opcodes

```
  0: 0x04EF [0xB6] ENTITY_APPEARANCE_HANDLER(case=Full entity look, race=3*, hair=14*, head=0*, body=76*, hands=217*, legs=217*, feet=217*, main=0*, sub=0*)
  1: 0x0503 [0x00] END_REQSTACK()
```

### Event 65535.54

#### Metadata

| Field        | Value    |
|--------------|----------|
| Entrypoint   | 0x0504   |
| Data Size    | 21 bytes |
| Instructions | 2        |

```
      00 01 02 03 04 05 06 07  08 09 0A 0B 0C 0D 0E 0F
      -- -- -- -- -- -- -- --  -- -- -- -- -- -- -- --
0500:             B6 0B 3F 80  52 80 00 80 4E 80 4E 80      ..?.R...N.N.
0510: 4E 80 5B 80 00 80 00 80  00                       N.[......       
```

#### Opcodes

```
  0: 0x0504 [0xB6] ENTITY_APPEARANCE_HANDLER(case=Full entity look, race=3*, hair=9*, head=0*, body=12*, hands=12*, legs=12*, feet=251*, main=0*, sub=0*)
  1: 0x0518 [0x00] END_REQSTACK()
```

### Event 65535.55

#### Metadata

| Field        | Value    |
|--------------|----------|
| Entrypoint   | 0x0519   |
| Data Size    | 21 bytes |
| Instructions | 2        |

```
      00 01 02 03 04 05 06 07  08 09 0A 0B 0C 0D 0E 0F
      -- -- -- -- -- -- -- --  -- -- -- -- -- -- -- --
0510:                             B6 0B 3F 80 41 80 00           ..?.A..
0520: 80 0F 80 57 80 57 80 57  80 00 80 00 80 00        ...W.W.W......  
```

#### Opcodes

```
  0: 0x0519 [0xB6] ENTITY_APPEARANCE_HANDLER(case=Full entity look, race=3*, hair=2*, head=0*, body=11*, hands=26*, legs=26*, feet=26*, main=0*, sub=0*)
  1: 0x052D [0x00] END_REQSTACK()
```

### Event 65535.56

#### Metadata

| Field        | Value    |
|--------------|----------|
| Entrypoint   | 0x052E   |
| Data Size    | 21 bytes |
| Instructions | 2        |

```
      00 01 02 03 04 05 06 07  08 09 0A 0B 0C 0D 0E 0F
      -- -- -- -- -- -- -- --  -- -- -- -- -- -- -- --
0520:                                            B6 0B                ..
0530: 45 80 08 80 00 80 4F 80  4E 80 4E 80 4E 80 5B 80  E.....O.N.N.N.[.
0540: 00 80 00                                          ...             
```

#### Opcodes

```
  0: 0x052E [0xB6] ENTITY_APPEARANCE_HANDLER(case=Full entity look, race=4*, hair=13*, head=0*, body=221*, hands=12*, legs=12*, feet=12*, main=251*, sub=0*)
  1: 0x0542 [0x00] END_REQSTACK()
```

### Event 65535.57

#### Metadata

| Field        | Value   |
|--------------|---------|
| Entrypoint   | 0x0543  |
| Data Size    | 3 bytes |
| Instructions | 2       |

```
      00 01 02 03 04 05 06 07  08 09 0A 0B 0C 0D 0E 0F
      -- -- -- -- -- -- -- --  -- -- -- -- -- -- -- --
0540:          A5 01 00                                    ...          
```

#### Opcodes

```
  0: 0x0543 [0xA5] EventEntity->Flags3.BallistaTeam |= 0x08  // Set bit 3 of BallistaTeam
  1: 0x0545 [0x00] END_REQSTACK()
```

### Event 65535.58

#### Metadata

| Field        | Value   |
|--------------|---------|
| Entrypoint   | 0x0546  |
| Data Size    | 3 bytes |
| Instructions | 2       |

```
      00 01 02 03 04 05 06 07  08 09 0A 0B 0C 0D 0E 0F
      -- -- -- -- -- -- -- --  -- -- -- -- -- -- -- --
0540:                   A5 00  00                             ...       
```

#### Opcodes

```
  0: 0x0546 [0xA5] EventEntity->Flags3.BallistaTeam &= ~0x08  // Clear bit 3 of BallistaTeam
  1: 0x0548 [0x00] END_REQSTACK()
```

### Event 166

#### Metadata

| Field        | Value   |
|--------------|---------|
| Entrypoint   | 0x0549  |
| Data Size    | 1 bytes |
| Instructions | 1       |

```
      00 01 02 03 04 05 06 07  08 09 0A 0B 0C 0D 0E 0F
      -- -- -- -- -- -- -- --  -- -- -- -- -- -- -- --
0540:                             00                             .      
```

#### Opcodes

```
  0: 0x0549 [0x00] END_REQSTACK()
```
