# 17105542 - Ragelise

## Common Data

| Field            | Value                            |
|------------------|----------------------------------|
| Zone             | Southern San d'Oria [S] (ID: 80) |
| Block Size       | 1212 bytes                       |
| Total Events     | 44                               |
| References Count | 80                               |

## List of Events

| Event ID                   | Entrypoint   |   Size |   Instructions |
|----------------------------|--------------|--------|----------------|
| [65535](#event-65535)      | 0x0000       |      1 |              1 |
| [65535.1](#event-655351)   | 0x0001       |      1 |              1 |
| [65535.2](#event-655352)   | 0x0002       |     18 |              4 |
| [65535.3](#event-655353)   | 0x0014       |     10 |              2 |
| [65535.4](#event-655354)   | 0x001E       |      9 |              3 |
| [65535.5](#event-655355)   | 0x0027       |      9 |              3 |
| [65535.6](#event-655356)   | 0x0030       |     10 |              2 |
| [65535.7](#event-655357)   | 0x003A       |     10 |              2 |
| [70](#event-70)            | 0x0044       |      1 |              1 |
| [152](#event-152)          | 0x0045       |      1 |              1 |
| [153](#event-153)          | 0x0046       |      1 |              1 |
| [86](#event-86)            | 0x0047       |      1 |              1 |
| [87](#event-87)            | 0x0048       |      1 |              1 |
| [65535.8](#event-655358)   | 0x0049       |     12 |              3 |
| [65535.9](#event-655359)   | 0x0055       |     21 |              2 |
| [65535.10](#event-6553510) | 0x006A       |     21 |              2 |
| [65535.11](#event-6553511) | 0x007F       |     35 |              9 |
| [65535.12](#event-6553512) | 0x00A2       |     35 |              9 |
| [65535.13](#event-6553513) | 0x00C5       |      3 |              2 |
| [65535.14](#event-6553514) | 0x00C8       |     13 |              3 |
| [65535.15](#event-6553515) | 0x00D5       |     21 |              5 |
| [65535.16](#event-6553516) | 0x00EA       |     11 |              3 |
| [65535.17](#event-6553517) | 0x00F5       |     21 |              5 |
| [65535.18](#event-6553518) | 0x010A       |     12 |              4 |
| [65535.19](#event-6553519) | 0x0116       |     14 |              4 |
| [65535.20](#event-6553520) | 0x0124       |      5 |              2 |
| [65535.21](#event-6553521) | 0x0129       |     25 |              7 |
| [151](#event-151)          | 0x0142       |      1 |              1 |
| [154](#event-154)          | 0x0143       |      1 |              1 |
| [169](#event-169)          | 0x0144       |      1 |              1 |
| [176](#event-176)          | 0x0145       |      1 |              1 |
| [149](#event-149)          | 0x0146       |      1 |              1 |
| [65535.22](#event-6553522) | 0x0147       |     14 |              4 |
| [65535.23](#event-6553523) | 0x0155       |     14 |              4 |
| [147](#event-147)          | 0x0163       |      7 |              2 |
| [65535.24](#event-6553524) | 0x016A       |     15 |              5 |
| [65535.25](#event-6553525) | 0x0179       |     14 |              4 |
| [65535.26](#event-6553526) | 0x0187       |     19 |              4 |
| [65535.27](#event-6553527) | 0x019A       |     39 |              8 |
| [65535.28](#event-6553528) | 0x01C1       |    122 |             24 |
| [65535.29](#event-6553529) | 0x023B       |     43 |              7 |
| [65535.30](#event-6553530) | 0x0266       |     43 |              7 |
| [65535.31](#event-6553531) | 0x0291       |     10 |              4 |
| [65535.32](#event-6553532) | 0x029B       |     32 |              7 |

## DAT References (imed_data)

|   Index | Hex Value   |   Dec Value |
|---------|-------------|-------------|
|       0 | 0x0000      |           0 |
|       1 | 0x0001      |           1 |
|       2 | 0x0080      |         128 |
|       3 | 0x15568     |       87400 |
|       4 | 0x1C520     |      116000 |
|       5 | 0x03E8      |        1000 |
|       6 | 0x0A00      |        2560 |
|       7 | 0x0003      |           3 |
|       8 | 0x000B      |          11 |
|       9 | 0x00D9      |         217 |
|      10 | 0x00FA      |         250 |
|      11 | 0x001B      |          27 |
|      12 | 0x0028      |          40 |
|      13 | 0x000D      |          13 |
|      14 | 0x002B      |          43 |
|      15 | 0xFFFFA841  |  4294944833 |
|      16 | 0xFFFFF0C8  |  4294963400 |
|      17 | 0xFFFF8781  |  4294936449 |
|      18 | 0xFFFFE9B6  |  4294961590 |
|      19 | 0xFFFF984D  |  4294940749 |
|      20 | 0xFFFFEAE7  |  4294961895 |
|      21 | 0xFFFF8E59  |  4294938201 |
|      22 | 0xFFFFE47F  |  4294960255 |
|      23 | 0xFFFFBECE  |  4294950606 |
|      24 | 0xFFFFF32F  |  4294964015 |
|      25 | 0x012C      |         300 |
|      26 | 0x1050286   |    17105542 |
|      27 | 0x1939F     |      103327 |
|      28 | 0x18906     |      100614 |
|      29 | 0x02EE      |         750 |
|      30 | 0x18E63     |      101987 |
|      31 | 0x18E90     |      102032 |
|      32 | 0x03E7      |         999 |
|      33 | 0xFFFFBF5A  |  4294950746 |
|      34 | 0xBDD7      |       48599 |
|      35 | 0xFFFFF448  |  4294964296 |
|      36 | 0x000C      |          12 |
|      37 | 0xFFFFC249  |  4294951497 |
|      38 | 0xBD7D      |       48509 |
|      39 | 0xFFFFF449  |  4294964297 |
|      40 | 0xFFFF9A1E  |  4294941214 |
|      41 | 0xFFFFE8D7  |  4294961367 |
|      42 | 0xFFFFAB8B  |  4294945675 |
|      43 | 0xFFFFEE83  |  4294962819 |
|      44 | 0x156B4     |       87732 |
|      45 | 0x1C4EE     |      115950 |
|      46 | 0x1737E     |       95102 |
|      47 | 0x1A90F     |      108815 |
|      48 | 0x17753     |       96083 |
|      49 | 0x1B4D9     |      111833 |
|      50 | 0x171B4     |       94644 |
|      51 | 0x1C020     |      114720 |
|      52 | 0x0010      |          16 |
|      53 | 0x15660     |       87648 |
|      54 | 0x1D6D6     |      120534 |
|      55 | 0x15686     |       87686 |
|      56 | 0x1DAFD     |      121597 |
|      57 | 0x15A19     |       88601 |
|      58 | 0x1E036     |      122934 |
|      59 | 0x15761     |       87905 |
|      60 | 0x1E41C     |      123932 |
|      61 | 0x1505C     |       86108 |
|      62 | 0x1EA71     |      125553 |
|      63 | 0x1447E     |       83070 |
|      64 | 0x1DFC7     |      122823 |
|      65 | 0x143ED     |       82925 |
|      66 | 0x1DC19     |      121881 |
|      67 | 0x14534     |       83252 |
|      68 | 0x1D79B     |      120731 |
|      69 | 0xFFFFFFF5  |  4294967285 |
|      70 | 0x1475F     |       83807 |
|      71 | 0x1D53B     |      120123 |
|      72 | 0x02DD      |         733 |
|      73 | 0x0B62      |        2914 |
|      74 | 0x0074      |         116 |
|      75 | 0x0082      |         130 |
|      76 | 0x01F4      |         500 |
|      77 | 0x15C8C     |       89228 |
|      78 | 0x1CD46     |      118086 |
|      79 | 0x0D6A      |        3434 |

## Events

### Event 65535

#### Metadata

| Field        | Value   |
|--------------|---------|
| Entrypoint   | 0x0000  |
| Data Size    | 1 bytes |
| Instructions | 1       |

```
      00 01 02 03 04 05 06 07  08 09 0A 0B 0C 0D 0E 0F
      -- -- -- -- -- -- -- --  -- -- -- -- -- -- -- --
0000: 00                                                .               
```

#### Opcodes

```
  0: 0x0000 [0x00] END_REQSTACK()
```

### Event 65535.1

#### Metadata

| Field        | Value   |
|--------------|---------|
| Entrypoint   | 0x0001  |
| Data Size    | 1 bytes |
| Instructions | 1       |

```
      00 01 02 03 04 05 06 07  08 09 0A 0B 0C 0D 0E 0F
      -- -- -- -- -- -- -- --  -- -- -- -- -- -- -- --
0000:    00                                              .              
```

#### Opcodes

```
  0: 0x0001 [0x00] END_REQSTACK()
```

### Event 65535.2

#### Metadata

| Field        | Value    |
|--------------|----------|
| Entrypoint   | 0x0002   |
| Data Size    | 18 bytes |
| Instructions | 4        |

```
      00 01 02 03 04 05 06 07  08 09 0A 0B 0C 0D 0E 0F
      -- -- -- -- -- -- -- --  -- -- -- -- -- -- -- --
0000:       22 00 2F 00 F8 FF  FF 7F 6C F8 FF FF 7F 00    "./.....l.....
0010: 80 01 80 00                                       ....            
```

#### Opcodes

```
  0: 0x0002 [0x22] ENTITY_HIDE_FLAG(enabled=0x00)
  1: 0x0004 [0x2F] EventEntity->Render.Flags0 &= ~0x80000 // Bit 19
  2: 0x000A [0x6C] FADE_ENTITY_COLOR(entity_id=EventEntity, end_alpha=0*, fade_time=1*)
  3: 0x0013 [0x00] END_REQSTACK()
```

### Event 65535.3

#### Metadata

| Field        | Value    |
|--------------|----------|
| Entrypoint   | 0x0014   |
| Data Size    | 10 bytes |
| Instructions | 2        |

```
      00 01 02 03 04 05 06 07  08 09 0A 0B 0C 0D 0E 0F
      -- -- -- -- -- -- -- --  -- -- -- -- -- -- -- --
0010:             6C F8 FF FF  7F 02 80 01 80 00            l.........  
```

#### Opcodes

```
  0: 0x0014 [0x6C] FADE_ENTITY_COLOR(entity_id=EventEntity, end_alpha=128*, fade_time=1*)
  1: 0x001D [0x00] END_REQSTACK()
```

### Event 65535.4

#### Metadata

| Field        | Value   |
|--------------|---------|
| Entrypoint   | 0x001E  |
| Data Size    | 9 bytes |
| Instructions | 3       |

```
      00 01 02 03 04 05 06 07  08 09 0A 0B 0C 0D 0E 0F
      -- -- -- -- -- -- -- --  -- -- -- -- -- -- -- --
0010:                                            22 00                ".
0020: 2F 00 F8 FF FF 7F 00                              /......         
```

#### Opcodes

```
  0: 0x001E [0x22] ENTITY_HIDE_FLAG(enabled=0x00)
  1: 0x0020 [0x2F] EventEntity->Render.Flags0 &= ~0x80000 // Bit 19
  2: 0x0026 [0x00] END_REQSTACK()
```

### Event 65535.5

#### Metadata

| Field        | Value   |
|--------------|---------|
| Entrypoint   | 0x0027  |
| Data Size    | 9 bytes |
| Instructions | 3       |

```
      00 01 02 03 04 05 06 07  08 09 0A 0B 0C 0D 0E 0F
      -- -- -- -- -- -- -- --  -- -- -- -- -- -- -- --
0020:                      22  01 2F 01 F8 FF FF 7F 00         "./......
```

#### Opcodes

```
  0: 0x0027 [0x22] ENTITY_HIDE_FLAG(enabled=0x01)
  1: 0x0029 [0x2F] EventEntity->Render.Flags0 |= 0x80000 // Bit 19
  2: 0x002F [0x00] END_REQSTACK()
```

### Event 65535.6

#### Metadata

| Field        | Value    |
|--------------|----------|
| Entrypoint   | 0x0030   |
| Data Size    | 10 bytes |
| Instructions | 2        |

```
      00 01 02 03 04 05 06 07  08 09 0A 0B 0C 0D 0E 0F
      -- -- -- -- -- -- -- --  -- -- -- -- -- -- -- --
0030: 6C F8 FF FF 7F 00 80 01  80 00                    l.........      
```

#### Opcodes

```
  0: 0x0030 [0x6C] FADE_ENTITY_COLOR(entity_id=EventEntity, end_alpha=0*, fade_time=1*)
  1: 0x0039 [0x00] END_REQSTACK()
```

### Event 65535.7

#### Metadata

| Field        | Value    |
|--------------|----------|
| Entrypoint   | 0x003A   |
| Data Size    | 10 bytes |
| Instructions | 2        |

```
      00 01 02 03 04 05 06 07  08 09 0A 0B 0C 0D 0E 0F
      -- -- -- -- -- -- -- --  -- -- -- -- -- -- -- --
0030:                                6C F8 FF FF 7F 02            l.....
0040: 80 01 80 00                                       ....            
```

#### Opcodes

```
  0: 0x003A [0x6C] FADE_ENTITY_COLOR(entity_id=EventEntity, end_alpha=128*, fade_time=1*)
  1: 0x0043 [0x00] END_REQSTACK()
```

### Event 70

#### Metadata

| Field        | Value   |
|--------------|---------|
| Entrypoint   | 0x0044  |
| Data Size    | 1 bytes |
| Instructions | 1       |

```
      00 01 02 03 04 05 06 07  08 09 0A 0B 0C 0D 0E 0F
      -- -- -- -- -- -- -- --  -- -- -- -- -- -- -- --
0040:             00                                        .           
```

#### Opcodes

```
  0: 0x0044 [0x00] END_REQSTACK()
```

### Event 152

#### Metadata

| Field        | Value   |
|--------------|---------|
| Entrypoint   | 0x0045  |
| Data Size    | 1 bytes |
| Instructions | 1       |

```
      00 01 02 03 04 05 06 07  08 09 0A 0B 0C 0D 0E 0F
      -- -- -- -- -- -- -- --  -- -- -- -- -- -- -- --
0040:                00                                      .          
```

#### Opcodes

```
  0: 0x0045 [0x00] END_REQSTACK()
```

### Event 153

#### Metadata

| Field        | Value   |
|--------------|---------|
| Entrypoint   | 0x0046  |
| Data Size    | 1 bytes |
| Instructions | 1       |

```
      00 01 02 03 04 05 06 07  08 09 0A 0B 0C 0D 0E 0F
      -- -- -- -- -- -- -- --  -- -- -- -- -- -- -- --
0040:                   00                                    .         
```

#### Opcodes

```
  0: 0x0046 [0x00] END_REQSTACK()
```

### Event 86

#### Metadata

| Field        | Value   |
|--------------|---------|
| Entrypoint   | 0x0047  |
| Data Size    | 1 bytes |
| Instructions | 1       |

```
      00 01 02 03 04 05 06 07  08 09 0A 0B 0C 0D 0E 0F
      -- -- -- -- -- -- -- --  -- -- -- -- -- -- -- --
0040:                      00                                  .        
```

#### Opcodes

```
  0: 0x0047 [0x00] END_REQSTACK()
```

### Event 87

#### Metadata

| Field        | Value   |
|--------------|---------|
| Entrypoint   | 0x0048  |
| Data Size    | 1 bytes |
| Instructions | 1       |

```
      00 01 02 03 04 05 06 07  08 09 0A 0B 0C 0D 0E 0F
      -- -- -- -- -- -- -- --  -- -- -- -- -- -- -- --
0040:                          00                               .       
```

#### Opcodes

```
  0: 0x0048 [0x00] END_REQSTACK()
```

### Event 65535.8

#### Metadata

| Field        | Value    |
|--------------|----------|
| Entrypoint   | 0x0049   |
| Data Size    | 12 bytes |
| Instructions | 3        |

```
      00 01 02 03 04 05 06 07  08 09 0A 0B 0C 0D 0E 0F
      -- -- -- -- -- -- -- --  -- -- -- -- -- -- -- --
0040:                             33 01 37 03 80 04 80           3.7....
0050: 05 80 06 80 00                                    .....           
```

#### Opcodes

```
  0: 0x0049 [0x33] EventEntity->Render.Flags0 |= 0x200000 // Bit 21 (flag=0x01)
  1: 0x004B [0x37] UPDATE_EVENT_POSITION_AND_DIR: x=87.400*, z=116.000*, y=1.000*, direction=225.0°*
  2: 0x0054 [0x00] END_REQSTACK()
```

### Event 65535.9

#### Metadata

| Field        | Value    |
|--------------|----------|
| Entrypoint   | 0x0055   |
| Data Size    | 21 bytes |
| Instructions | 2        |

```
      00 01 02 03 04 05 06 07  08 09 0A 0B 0C 0D 0E 0F
      -- -- -- -- -- -- -- --  -- -- -- -- -- -- -- --
0050:                B6 0B 07  80 08 80 00 80 09 80 09       ...........
0060: 80 09 80 09 80 0A 80 0B  80 00                    ..........      
```

#### Opcodes

```
  0: 0x0055 [0xB6] ENTITY_APPEARANCE_HANDLER(case=Full entity look, race=3*, hair=11*, head=0*, body=217*, hands=217*, legs=217*, feet=217*, main=250*, sub=27*)
  1: 0x0069 [0x00] END_REQSTACK()
```

### Event 65535.10

#### Metadata

| Field        | Value    |
|--------------|----------|
| Entrypoint   | 0x006A   |
| Data Size    | 21 bytes |
| Instructions | 2        |

```
      00 01 02 03 04 05 06 07  08 09 0A 0B 0C 0D 0E 0F
      -- -- -- -- -- -- -- --  -- -- -- -- -- -- -- --
0060:                                B6 0B 07 80 08 80            ......
0070: 00 80 09 80 09 80 09 80  09 80 00 80 00 80 00     ............... 
```

#### Opcodes

```
  0: 0x006A [0xB6] ENTITY_APPEARANCE_HANDLER(case=Full entity look, race=3*, hair=11*, head=0*, body=217*, hands=217*, legs=217*, feet=217*, main=0*, sub=0*)
  1: 0x007E [0x00] END_REQSTACK()
```

### Event 65535.11

#### Metadata

| Field        | Value    |
|--------------|----------|
| Entrypoint   | 0x007F   |
| Data Size    | 35 bytes |
| Instructions | 9        |

```
      00 01 02 03 04 05 06 07  08 09 0A 0B 0C 0D 0E 0F
      -- -- -- -- -- -- -- --  -- -- -- -- -- -- -- --
0070:                                               03                 .
0080: 00 00 25 10 03 02 00 27  10 03 01 00 26 10 03 03  ..%....'....&...
0090: 00 28 10 32 0C 80 1F 00  00 00 02 00 01 00 1F 01  .(.2............
00A0: 6F 00                                             o.              
```

#### Opcodes

```
  0: 0x007F [0x03] ExtData[1]->WorkLocal[0] = Work_Zone[37]
  1: 0x0084 [0x03] ExtData[1]->WorkLocal[2] = Work_Zone[39]
  2: 0x0089 [0x03] ExtData[1]->WorkLocal[1] = Work_Zone[38]
  3: 0x008E [0x03] ExtData[1]->WorkLocal[3] = Work_Zone[40]
  4: 0x0093 [0x32] ExtData[1]->MainSpeed = 40* * 0.1
  5: 0x0096 [0x1F] MOVE_ENTITY: EventEntity moves to X=ExtData[1]->WorkLocal[0], Z=ExtData[1]->WorkLocal[2], Y=ExtData[1]->WorkLocal[1]
  6: 0x009E [0x1F] MOVE_ENTITY: Update entity position (mode=1)
  7: 0x00A0 [0x6F] WAIT_FRAME_DELAY: Yield until WaitTime reaches zero
  8: 0x00A1 [0x00] END_REQSTACK()
```

### Event 65535.12

#### Metadata

| Field        | Value    |
|--------------|----------|
| Entrypoint   | 0x00A2   |
| Data Size    | 35 bytes |
| Instructions | 9        |

```
      00 01 02 03 04 05 06 07  08 09 0A 0B 0C 0D 0E 0F
      -- -- -- -- -- -- -- --  -- -- -- -- -- -- -- --
00A0:       03 00 00 25 10 03  02 00 27 10 03 01 00 26    ...%....'....&
00B0: 10 03 03 00 28 10 32 0D  80 1F 00 00 00 02 00 01  ....(.2.........
00C0: 00 1F 01 6F 00                                    ...o.           
```

#### Opcodes

```
  0: 0x00A2 [0x03] ExtData[1]->WorkLocal[0] = Work_Zone[37]
  1: 0x00A7 [0x03] ExtData[1]->WorkLocal[2] = Work_Zone[39]
  2: 0x00AC [0x03] ExtData[1]->WorkLocal[1] = Work_Zone[38]
  3: 0x00B1 [0x03] ExtData[1]->WorkLocal[3] = Work_Zone[40]
  4: 0x00B6 [0x32] ExtData[1]->MainSpeed = 13* * 0.1
  5: 0x00B9 [0x1F] MOVE_ENTITY: EventEntity moves to X=ExtData[1]->WorkLocal[0], Z=ExtData[1]->WorkLocal[2], Y=ExtData[1]->WorkLocal[1]
  6: 0x00C1 [0x1F] MOVE_ENTITY: Update entity position (mode=1)
  7: 0x00C3 [0x6F] WAIT_FRAME_DELAY: Yield until WaitTime reaches zero
  8: 0x00C4 [0x00] END_REQSTACK()
```

### Event 65535.13

#### Metadata

| Field        | Value   |
|--------------|---------|
| Entrypoint   | 0x00C5  |
| Data Size    | 3 bytes |
| Instructions | 2       |

```
      00 01 02 03 04 05 06 07  08 09 0A 0B 0C 0D 0E 0F
      -- -- -- -- -- -- -- --  -- -- -- -- -- -- -- --
00C0:                33 00 00                                3..        
```

#### Opcodes

```
  0: 0x00C5 [0x33] EventEntity->Render.Flags0 &= ~ 0x200000 // Bit 21 (flag=0x00)
  1: 0x00C7 [0x00] END_REQSTACK()
```

### Event 65535.14

#### Metadata

| Field        | Value    |
|--------------|----------|
| Entrypoint   | 0x00C8   |
| Data Size    | 13 bytes |
| Instructions | 3        |

```
      00 01 02 03 04 05 06 07  08 09 0A 0B 0C 0D 0E 0F
      -- -- -- -- -- -- -- --  -- -- -- -- -- -- -- --
00C0:                          6E 86 02 05 01 0E 80 99          n.......
00D0: 86 02 05 01 00                                    .....           
```

#### Opcodes

```
  0: 0x00C8 [0x6E] Ragelise (ID: 17105542/0x01050286) uses emote 43*
  1: 0x00CF [0x99] Wait for Ragelise (ID: 17105542/0x01050286) animation to complete
  2: 0x00D4 [0x00] END_REQSTACK()
```

### Event 65535.15

#### Metadata

| Field        | Value    |
|--------------|----------|
| Entrypoint   | 0x00D5   |
| Data Size    | 21 bytes |
| Instructions | 5        |

```
      00 01 02 03 04 05 06 07  08 09 0A 0B 0C 0D 0E 0F
      -- -- -- -- -- -- -- --  -- -- -- -- -- -- -- --
00D0:                1F 00 0F  80 10 80 00 80 1F 01 6F       ..........o
00E0: 4A 86 02 05 01 84 02 05  01 00                    J.........      
```

#### Opcodes

```
  0: 0x00D5 [0x1F] MOVE_ENTITY: EventEntity moves to X=-22.463*, Z=-3.896*, Y=0.000*
  1: 0x00DD [0x1F] MOVE_ENTITY: Update entity position (mode=1)
  2: 0x00DF [0x6F] WAIT_FRAME_DELAY: Yield until WaitTime reaches zero
  3: 0x00E0 [0x4A] Ragelise (ID: 17105542/0x01050286) looks at Portia (ID: 17105540/0x01050284)
  4: 0x00E9 [0x00] END_REQSTACK()
```

### Event 65535.16

#### Metadata

| Field        | Value    |
|--------------|----------|
| Entrypoint   | 0x00EA   |
| Data Size    | 11 bytes |
| Instructions | 3        |

```
      00 01 02 03 04 05 06 07  08 09 0A 0B 0C 0D 0E 0F
      -- -- -- -- -- -- -- --  -- -- -- -- -- -- -- --
00E0:                                1F 00 11 80 12 80            ......
00F0: 00 80 1F 01 00                                    .....           
```

#### Opcodes

```
  0: 0x00EA [0x1F] MOVE_ENTITY: EventEntity moves to X=-30.847*, Z=-5.706*, Y=0.000*
  1: 0x00F2 [0x1F] MOVE_ENTITY: Update entity position (mode=1)
  2: 0x00F4 [0x00] END_REQSTACK()
```

### Event 65535.17

#### Metadata

| Field        | Value    |
|--------------|----------|
| Entrypoint   | 0x00F5   |
| Data Size    | 21 bytes |
| Instructions | 5        |

```
      00 01 02 03 04 05 06 07  08 09 0A 0B 0C 0D 0E 0F
      -- -- -- -- -- -- -- --  -- -- -- -- -- -- -- --
00F0:                1F 00 13  80 14 80 00 80 1F 01 6F       ..........o
0100: 4A 86 02 05 01 F0 FF FF  7F 00                    J.........      
```

#### Opcodes

```
  0: 0x00F5 [0x1F] MOVE_ENTITY: EventEntity moves to X=-26.547*, Z=-5.401*, Y=0.000*
  1: 0x00FD [0x1F] MOVE_ENTITY: Update entity position (mode=1)
  2: 0x00FF [0x6F] WAIT_FRAME_DELAY: Yield until WaitTime reaches zero
  3: 0x0100 [0x4A] Ragelise (ID: 17105542/0x01050286) looks at LocalPlayer
  4: 0x0109 [0x00] END_REQSTACK()
```

### Event 65535.18

#### Metadata

| Field        | Value    |
|--------------|----------|
| Entrypoint   | 0x010A   |
| Data Size    | 12 bytes |
| Instructions | 4        |

```
      00 01 02 03 04 05 06 07  08 09 0A 0B 0C 0D 0E 0F
      -- -- -- -- -- -- -- --  -- -- -- -- -- -- -- --
0100:                                1F 00 15 80 16 80            ......
0110: 00 80 1F 01 6F 00                                 ....o.          
```

#### Opcodes

```
  0: 0x010A [0x1F] MOVE_ENTITY: EventEntity moves to X=-29.095*, Z=-7.041*, Y=0.000*
  1: 0x0112 [0x1F] MOVE_ENTITY: Update entity position (mode=1)
  2: 0x0114 [0x6F] WAIT_FRAME_DELAY: Yield until WaitTime reaches zero
  3: 0x0115 [0x00] END_REQSTACK()
```

### Event 65535.19

#### Metadata

| Field        | Value    |
|--------------|----------|
| Entrypoint   | 0x0116   |
| Data Size    | 14 bytes |
| Instructions | 4        |

```
      00 01 02 03 04 05 06 07  08 09 0A 0B 0C 0D 0E 0F
      -- -- -- -- -- -- -- --  -- -- -- -- -- -- -- --
0110:                   1F 00  17 80 18 80 00 80 1F 01        ..........
0120: 1C 19 80 00                                       ....            
```

#### Opcodes

```
  0: 0x0116 [0x1F] MOVE_ENTITY: EventEntity moves to X=-16.690*, Z=-3.281*, Y=0.000*
  1: 0x011E [0x1F] MOVE_ENTITY: Update entity position (mode=1)
  2: 0x0120 [0x1C] WAIT(300* ticks)
  3: 0x0123 [0x00] END_REQSTACK()
```

### Event 65535.20

#### Metadata

| Field        | Value   |
|--------------|---------|
| Entrypoint   | 0x0124  |
| Data Size    | 5 bytes |
| Instructions | 2       |

```
      00 01 02 03 04 05 06 07  08 09 0A 0B 0C 0D 0E 0F
      -- -- -- -- -- -- -- --  -- -- -- -- -- -- -- --
0120:             B6 09 1A 80  00                           .....       
```

#### Opcodes

```
  0: 0x0124 [0xB6] ENTITY_APPEARANCE_HANDLER(case=Sub, value=17105542*)
  1: 0x0128 [0x00] END_REQSTACK()
```

### Event 65535.21

#### Metadata

| Field        | Value    |
|--------------|----------|
| Entrypoint   | 0x0129   |
| Data Size    | 25 bytes |
| Instructions | 7        |

```
      00 01 02 03 04 05 06 07  08 09 0A 0B 0C 0D 0E 0F
      -- -- -- -- -- -- -- --  -- -- -- -- -- -- -- --
0120:                             32 0D 80 1F 00 1B 80           2......
0130: 1C 80 1D 80 1F 01 1F 00  1E 80 1F 80 20 80 1F 01  ............ ...
0140: 6F 00                                             o.              
```

#### Opcodes

```
  0: 0x0129 [0x32] ExtData[1]->MainSpeed = 13* * 0.1
  1: 0x012C [0x1F] MOVE_ENTITY: EventEntity moves to X=103.327*, Z=100.614*, Y=0.750*
  2: 0x0134 [0x1F] MOVE_ENTITY: Update entity position (mode=1)
  3: 0x0136 [0x1F] MOVE_ENTITY: EventEntity moves to X=101.987*, Z=102.032*, Y=0.999*
  4: 0x013E [0x1F] MOVE_ENTITY: Update entity position (mode=1)
  5: 0x0140 [0x6F] WAIT_FRAME_DELAY: Yield until WaitTime reaches zero
  6: 0x0141 [0x00] END_REQSTACK()
```

### Event 151

#### Metadata

| Field        | Value   |
|--------------|---------|
| Entrypoint   | 0x0142  |
| Data Size    | 1 bytes |
| Instructions | 1       |

```
      00 01 02 03 04 05 06 07  08 09 0A 0B 0C 0D 0E 0F
      -- -- -- -- -- -- -- --  -- -- -- -- -- -- -- --
0140:       00                                            .             
```

#### Opcodes

```
  0: 0x0142 [0x00] END_REQSTACK()
```

### Event 154

#### Metadata

| Field        | Value   |
|--------------|---------|
| Entrypoint   | 0x0143  |
| Data Size    | 1 bytes |
| Instructions | 1       |

```
      00 01 02 03 04 05 06 07  08 09 0A 0B 0C 0D 0E 0F
      -- -- -- -- -- -- -- --  -- -- -- -- -- -- -- --
0140:          00                                          .            
```

#### Opcodes

```
  0: 0x0143 [0x00] END_REQSTACK()
```

### Event 169

#### Metadata

| Field        | Value   |
|--------------|---------|
| Entrypoint   | 0x0144  |
| Data Size    | 1 bytes |
| Instructions | 1       |

```
      00 01 02 03 04 05 06 07  08 09 0A 0B 0C 0D 0E 0F
      -- -- -- -- -- -- -- --  -- -- -- -- -- -- -- --
0140:             00                                        .           
```

#### Opcodes

```
  0: 0x0144 [0x00] END_REQSTACK()
```

### Event 176

#### Metadata

| Field        | Value   |
|--------------|---------|
| Entrypoint   | 0x0145  |
| Data Size    | 1 bytes |
| Instructions | 1       |

```
      00 01 02 03 04 05 06 07  08 09 0A 0B 0C 0D 0E 0F
      -- -- -- -- -- -- -- --  -- -- -- -- -- -- -- --
0140:                00                                      .          
```

#### Opcodes

```
  0: 0x0145 [0x00] END_REQSTACK()
```

### Event 149

#### Metadata

| Field        | Value   |
|--------------|---------|
| Entrypoint   | 0x0146  |
| Data Size    | 1 bytes |
| Instructions | 1       |

```
      00 01 02 03 04 05 06 07  08 09 0A 0B 0C 0D 0E 0F
      -- -- -- -- -- -- -- --  -- -- -- -- -- -- -- --
0140:                   00                                    .         
```

#### Opcodes

```
  0: 0x0146 [0x00] END_REQSTACK()
```

### Event 65535.22

#### Metadata

| Field        | Value    |
|--------------|----------|
| Entrypoint   | 0x0147   |
| Data Size    | 14 bytes |
| Instructions | 4        |

```
      00 01 02 03 04 05 06 07  08 09 0A 0B 0C 0D 0E 0F
      -- -- -- -- -- -- -- --  -- -- -- -- -- -- -- --
0140:                      32  0D 80 1F 00 21 80 22 80         2....!.".
0150: 23 80 1F 01 00                                    #....           
```

#### Opcodes

```
  0: 0x0147 [0x32] ExtData[1]->MainSpeed = 13* * 0.1
  1: 0x014A [0x1F] MOVE_ENTITY: EventEntity moves to X=-16.550*, Z=48.599*, Y=-3.000*
  2: 0x0152 [0x1F] MOVE_ENTITY: Update entity position (mode=1)
  3: 0x0154 [0x00] END_REQSTACK()
```

### Event 65535.23

#### Metadata

| Field        | Value    |
|--------------|----------|
| Entrypoint   | 0x0155   |
| Data Size    | 14 bytes |
| Instructions | 4        |

```
      00 01 02 03 04 05 06 07  08 09 0A 0B 0C 0D 0E 0F
      -- -- -- -- -- -- -- --  -- -- -- -- -- -- -- --
0150:                32 24 80  1F 00 25 80 26 80 27 80       2$...%.&.'.
0160: 1F 01 00                                          ...             
```

#### Opcodes

```
  0: 0x0155 [0x32] ExtData[1]->MainSpeed = 12* * 0.1
  1: 0x0158 [0x1F] MOVE_ENTITY: EventEntity moves to X=-15.799*, Z=48.509*, Y=-2.999*
  2: 0x0160 [0x1F] MOVE_ENTITY: Update entity position (mode=1)
  3: 0x0162 [0x00] END_REQSTACK()
```

### Event 147

#### Metadata

| Field        | Value   |
|--------------|---------|
| Entrypoint   | 0x0163  |
| Data Size    | 7 bytes |
| Instructions | 2       |

```
      00 01 02 03 04 05 06 07  08 09 0A 0B 0C 0D 0E 0F
      -- -- -- -- -- -- -- --  -- -- -- -- -- -- -- --
0160:          92 01 F8 FF FF  7F 00                       .......      
```

#### Opcodes

```
  0: 0x0163 [0x92] EventEntity->Render.Flags3 ^= 0x01
  1: 0x0169 [0x00] END_REQSTACK()
```

### Event 65535.24

#### Metadata

| Field        | Value    |
|--------------|----------|
| Entrypoint   | 0x016A   |
| Data Size    | 15 bytes |
| Instructions | 5        |

```
      00 01 02 03 04 05 06 07  08 09 0A 0B 0C 0D 0E 0F
      -- -- -- -- -- -- -- --  -- -- -- -- -- -- -- --
0160:                                32 0D 80 1F 00 28            2....(
0170: 80 29 80 00 80 1F 01 6F  00                       .).....o.       
```

#### Opcodes

```
  0: 0x016A [0x32] ExtData[1]->MainSpeed = 13* * 0.1
  1: 0x016D [0x1F] MOVE_ENTITY: EventEntity moves to X=-26.082*, Z=-5.929*, Y=0.000*
  2: 0x0175 [0x1F] MOVE_ENTITY: Update entity position (mode=1)
  3: 0x0177 [0x6F] WAIT_FRAME_DELAY: Yield until WaitTime reaches zero
  4: 0x0178 [0x00] END_REQSTACK()
```

### Event 65535.25

#### Metadata

| Field        | Value    |
|--------------|----------|
| Entrypoint   | 0x0179   |
| Data Size    | 14 bytes |
| Instructions | 4        |

```
      00 01 02 03 04 05 06 07  08 09 0A 0B 0C 0D 0E 0F
      -- -- -- -- -- -- -- --  -- -- -- -- -- -- -- --
0170:                             32 0D 80 1F 00 2A 80           2....*.
0180: 2B 80 00 80 1F 01 00                              +......         
```

#### Opcodes

```
  0: 0x0179 [0x32] ExtData[1]->MainSpeed = 13* * 0.1
  1: 0x017C [0x1F] MOVE_ENTITY: EventEntity moves to X=-21.621*, Z=-4.477*, Y=0.000*
  2: 0x0184 [0x1F] MOVE_ENTITY: Update entity position (mode=1)
  3: 0x0186 [0x00] END_REQSTACK()
```

### Event 65535.26

#### Metadata

| Field        | Value    |
|--------------|----------|
| Entrypoint   | 0x0187   |
| Data Size    | 19 bytes |
| Instructions | 4        |

```
      00 01 02 03 04 05 06 07  08 09 0A 0B 0C 0D 0E 0F
      -- -- -- -- -- -- -- --  -- -- -- -- -- -- -- --
0180:                      59  04 F8 FF FF 7F 0D 80 1F         Y........
0190: 00 2C 80 2D 80 05 80 1F  01 00                    .,.-......      
```

#### Opcodes

```
  0: 0x0187 [0x59] UPDATE_ENTITY_DATA: Set EventEntity main speed = 13* * 0.1
  1: 0x018F [0x1F] MOVE_ENTITY: EventEntity moves to X=87.732*, Z=115.950*, Y=1.000*
  2: 0x0197 [0x1F] MOVE_ENTITY: Update entity position (mode=1)
  3: 0x0199 [0x00] END_REQSTACK()
```

### Event 65535.27

#### Metadata

| Field        | Value    |
|--------------|----------|
| Entrypoint   | 0x019A   |
| Data Size    | 39 bytes |
| Instructions | 8        |

```
      00 01 02 03 04 05 06 07  08 09 0A 0B 0C 0D 0E 0F
      -- -- -- -- -- -- -- --  -- -- -- -- -- -- -- --
0190:                                59 04 F8 FF FF 7F            Y.....
01A0: 0D 80 1F 00 2E 80 2F 80  00 80 1F 01 1F 00 30 80  ....../.......0.
01B0: 31 80 00 80 1F 01 1F 00  32 80 33 80 00 80 1F 01  1.......2.3.....
01C0: 00                                                .               
```

#### Opcodes

```
  0: 0x019A [0x59] UPDATE_ENTITY_DATA: Set EventEntity main speed = 13* * 0.1
  1: 0x01A2 [0x1F] MOVE_ENTITY: EventEntity moves to X=95.102*, Z=108.815*, Y=0.000*
  2: 0x01AA [0x1F] MOVE_ENTITY: Update entity position (mode=1)
  3: 0x01AC [0x1F] MOVE_ENTITY: EventEntity moves to X=96.083*, Z=111.833*, Y=0.000*
  4: 0x01B4 [0x1F] MOVE_ENTITY: Update entity position (mode=1)
  5: 0x01B6 [0x1F] MOVE_ENTITY: EventEntity moves to X=94.644*, Z=114.720*, Y=0.000*
  6: 0x01BE [0x1F] MOVE_ENTITY: Update entity position (mode=1)
  7: 0x01C0 [0x00] END_REQSTACK()
```

### Event 65535.28

#### Metadata

| Field        | Value     |
|--------------|-----------|
| Entrypoint   | 0x01C1    |
| Data Size    | 122 bytes |
| Instructions | 24        |

```
      00 01 02 03 04 05 06 07  08 09 0A 0B 0C 0D 0E 0F
      -- -- -- -- -- -- -- --  -- -- -- -- -- -- -- --
01C0:    7B F8 FF FF 7F 59 04  F8 FF FF 7F 34 80 1F 00   {....Y.....4...
01D0: 35 80 36 80 05 80 1F 01  1F 00 37 80 38 80 05 80  5.6.......7.8...
01E0: 1F 01 1F 00 39 80 3A 80  05 80 1F 01 1F 00 3B 80  ....9.:.......;.
01F0: 3C 80 05 80 1F 01 1F 00  3D 80 3E 80 05 80 1F 01  <.......=.>.....
0200: 1F 00 3F 80 40 80 00 80  1F 01 1F 00 41 80 42 80  ..?.@.......A.B.
0210: 00 80 1F 01 1F 00 43 80  44 80 45 80 1F 01 79 00  ......C.D.E...y.
0220: F8 FF FF 7F EF 02 05 01  1F 00 46 80 47 80 45 80  ..........F.G.E.
0230: 1F 01 6F 4B F8 FF FF 7F  48 80 00                 ..oK....H..     
```

#### Opcodes

```
  0: 0x01C1 [0x7B] EventEntity stops talking
  1: 0x01C6 [0x59] UPDATE_ENTITY_DATA: Set EventEntity main speed = 16* * 0.1
  2: 0x01CE [0x1F] MOVE_ENTITY: EventEntity moves to X=87.648*, Z=120.534*, Y=1.000*
  3: 0x01D6 [0x1F] MOVE_ENTITY: Update entity position (mode=1)
  4: 0x01D8 [0x1F] MOVE_ENTITY: EventEntity moves to X=87.686*, Z=121.597*, Y=1.000*
  5: 0x01E0 [0x1F] MOVE_ENTITY: Update entity position (mode=1)
  6: 0x01E2 [0x1F] MOVE_ENTITY: EventEntity moves to X=88.601*, Z=122.934*, Y=1.000*
  7: 0x01EA [0x1F] MOVE_ENTITY: Update entity position (mode=1)
  8: 0x01EC [0x1F] MOVE_ENTITY: EventEntity moves to X=87.905*, Z=123.932*, Y=1.000*
  9: 0x01F4 [0x1F] MOVE_ENTITY: Update entity position (mode=1)
 10: 0x01F6 [0x1F] MOVE_ENTITY: EventEntity moves to X=86.108*, Z=125.553*, Y=1.000*
 11: 0x01FE [0x1F] MOVE_ENTITY: Update entity position (mode=1)
 12: 0x0200 [0x1F] MOVE_ENTITY: EventEntity moves to X=83.070*, Z=122.823*, Y=0.000*
 13: 0x0208 [0x1F] MOVE_ENTITY: Update entity position (mode=1)
 14: 0x020A [0x1F] MOVE_ENTITY: EventEntity moves to X=82.925*, Z=121.881*, Y=0.000*
 15: 0x0212 [0x1F] MOVE_ENTITY: Update entity position (mode=1)
 16: 0x0214 [0x1F] MOVE_ENTITY: EventEntity moves to X=83.252*, Z=120.731*, Y=-0.011*
 17: 0x021C [0x1F] MOVE_ENTITY: Update entity position (mode=1)
 18: 0x021E [0x79] EventEntity looks at Door Lion" (ID: 17105647/0x010502EF) (Basic look)
 19: 0x0228 [0x1F] MOVE_ENTITY: EventEntity moves to X=83.807*, Z=120.123*, Y=-0.011*
 20: 0x0230 [0x1F] MOVE_ENTITY: Update entity position (mode=1)
 21: 0x0232 [0x6F] WAIT_FRAME_DELAY: Yield until WaitTime reaches zero
 22: 0x0233 [0x4B] UPDATE_ENTITY_YAW(entity=EventEntity, yaw=4.0°*)
 23: 0x023A [0x00] END_REQSTACK()
```

### Event 65535.29

#### Metadata

| Field        | Value    |
|--------------|----------|
| Entrypoint   | 0x023B   |
| Data Size    | 43 bytes |
| Instructions | 7        |

```
      00 01 02 03 04 05 06 07  08 09 0A 0B 0C 0D 0E 0F
      -- -- -- -- -- -- -- --  -- -- -- -- -- -- -- --
0230:                                   06 09 10 5B 49             ...[I
0240: 80 86 02 05 01 86 02 05  01 74 65 6C 30 1C 4A 80  .........tel0.J.
0250: 5B 49 80 86 02 05 01 86  02 05 01 74 65 6C 31 1C  [I.........tel1.
0260: 4B 80 05 09 10 00                                 K.....          
```

#### Opcodes

```
  0: 0x023B [0x06] Work_Zone[9] = 0
  1: 0x023E [0x5B] LOAD_EXT_SCHEDULER: Load scheduler "tel0" with entities [Ragelise (ID: 17105542/0x01050286), Ragelise (ID: 17105542/0x01050286)], work=2914*
  2: 0x024D [0x1C] WAIT(116* ticks)
  3: 0x0250 [0x5B] LOAD_EXT_SCHEDULER: Load scheduler "tel1" with entities [Ragelise (ID: 17105542/0x01050286), Ragelise (ID: 17105542/0x01050286)], work=2914*
  4: 0x025F [0x1C] WAIT(130* ticks)
  5: 0x0262 [0x05] Work_Zone[9] = 1
  6: 0x0265 [0x00] END_REQSTACK()
```

### Event 65535.30

#### Metadata

| Field        | Value    |
|--------------|----------|
| Entrypoint   | 0x0266   |
| Data Size    | 43 bytes |
| Instructions | 7        |

```
      00 01 02 03 04 05 06 07  08 09 0A 0B 0C 0D 0E 0F
      -- -- -- -- -- -- -- --  -- -- -- -- -- -- -- --
0260:                   06 09  10 5B 49 80 86 02 05 01        ...[I.....
0270: 86 02 05 01 74 65 6C 30  1C 4A 80 5B 49 80 86 02  ....tel0.J.[I...
0280: 05 01 86 02 05 01 74 65  6C 31 1C 4B 80 05 09 10  ......tel1.K....
0290: 00                                                .               
```

#### Opcodes

```
  0: 0x0266 [0x06] Work_Zone[9] = 0
  1: 0x0269 [0x5B] LOAD_EXT_SCHEDULER: Load scheduler "tel0" with entities [Ragelise (ID: 17105542/0x01050286), Ragelise (ID: 17105542/0x01050286)], work=2914*
  2: 0x0278 [0x1C] WAIT(116* ticks)
  3: 0x027B [0x5B] LOAD_EXT_SCHEDULER: Load scheduler "tel1" with entities [Ragelise (ID: 17105542/0x01050286), Ragelise (ID: 17105542/0x01050286)], work=2914*
  4: 0x028A [0x1C] WAIT(130* ticks)
  5: 0x028D [0x05] Work_Zone[9] = 1
  6: 0x0290 [0x00] END_REQSTACK()
```

### Event 65535.31

#### Metadata

| Field        | Value    |
|--------------|----------|
| Entrypoint   | 0x0291   |
| Data Size    | 10 bytes |
| Instructions | 4        |

```
      00 01 02 03 04 05 06 07  08 09 0A 0B 0C 0D 0E 0F
      -- -- -- -- -- -- -- --  -- -- -- -- -- -- -- --
0290:    06 09 10 1C 4C 80 05  09 10 00                  ....L.....     
```

#### Opcodes

```
  0: 0x0291 [0x06] Work_Zone[9] = 0
  1: 0x0294 [0x1C] WAIT(500* ticks)
  2: 0x0297 [0x05] Work_Zone[9] = 1
  3: 0x029A [0x00] END_REQSTACK()
```

### Event 65535.32

#### Metadata

| Field        | Value    |
|--------------|----------|
| Entrypoint   | 0x029B   |
| Data Size    | 32 bytes |
| Instructions | 7        |

```
      00 01 02 03 04 05 06 07  08 09 0A 0B 0C 0D 0E 0F
      -- -- -- -- -- -- -- --  -- -- -- -- -- -- -- --
0290:                                   7B F8 FF FF 7F             {....
02A0: 59 04 F8 FF FF 7F 08 80  1F 00 4D 80 4E 80 05 80  Y.........M.N...
02B0: 1F 01 6F 4B F8 FF FF 7F  4F 80 00                 ..oK....O..     
```

#### Opcodes

```
  0: 0x029B [0x7B] EventEntity stops talking
  1: 0x02A0 [0x59] UPDATE_ENTITY_DATA: Set EventEntity main speed = 11* * 0.1
  2: 0x02A8 [0x1F] MOVE_ENTITY: EventEntity moves to X=89.228*, Z=118.086*, Y=1.000*
  3: 0x02B0 [0x1F] MOVE_ENTITY: Update entity position (mode=1)
  4: 0x02B2 [0x6F] WAIT_FRAME_DELAY: Yield until WaitTime reaches zero
  5: 0x02B3 [0x4B] UPDATE_ENTITY_YAW(entity=EventEntity, yaw=18.9°*)
  6: 0x02BA [0x00] END_REQSTACK()
```
