# 17105605

## Common Data

| Field            | Value                            |
|------------------|----------------------------------|
| Zone             | Southern San d'Oria [S] (ID: 80) |
| Block Size       | 7236 bytes                       |
| Total Events     | 10                               |
| References Count | 194                              |

## List of Events

| Event ID              | Entrypoint   |   Size |   Instructions |
|-----------------------|--------------|--------|----------------|
| [65535](#event-65535) | 0x0000       |      1 |              1 |
| [71](#event-71)       | 0x0001       |   1332 |            191 |
| [177](#event-177)     | 0x0535       |    568 |             94 |
| [178](#event-178)     | 0x076D       |    776 |            100 |
| [73](#event-73)       | 0x0A75       |    483 |             81 |
| [179](#event-179)     | 0x0C58       |    499 |             85 |
| [180](#event-180)     | 0x0E4B       |    590 |             88 |
| [181](#event-181)     | 0x1099       |    475 |             84 |
| [182](#event-182)     | 0x1274       |    431 |             68 |
| [78](#event-78)       | 0x1423       |   1249 |            171 |

## DAT References (imed_data)

|   Index | Hex Value   |   Dec Value |
|---------|-------------|-------------|
|       0 | 0x0000      |           0 |
|       1 | 0x012C      |         300 |
|       2 | 0x0078      |         120 |
|       3 | 0x0005      |           5 |
|       4 | 0x0013      |          19 |
|       5 | 0x20A9C     |      133788 |
|       6 | 0x13554     |       79188 |
|       7 | 0x0DAB      |        3499 |
|       8 | 0x20585     |      132485 |
|       9 | 0x13938     |       80184 |
|      10 | 0xFFFFFFF1  |  4294967281 |
|      11 | 0x0E47      |        3655 |
|      12 | 0x1E4B0     |      124080 |
|      13 | 0x1446D     |       83053 |
|      14 | 0x07D0      |        2000 |
|      15 | 0x000F      |          15 |
|      16 | 0x001D      |          29 |
|      17 | 0x00FE      |         254 |
|      18 | 0x0184      |         388 |
|      19 | 0x34FA      |       13562 |
|      20 | 0x0008      |           8 |
|      21 | 0x00E6      |         230 |
|      22 | 0x005A      |          90 |
|      23 | 0x0015      |          21 |
|      24 | 0x03ED      |        1005 |
|      25 | 0x34FB      |       13563 |
|      26 | 0x0018      |          24 |
|      27 | 0x34FC      |       13564 |
|      28 | 0x0041      |          65 |
|      29 | 0x34FD      |       13565 |
|      30 | 0x34FE      |       13566 |
|      31 | 0x0001      |           1 |
|      32 | 0x34FF      |       13567 |
|      33 | 0x004B      |          75 |
|      34 | 0x0019      |          25 |
|      35 | 0x21811     |      137233 |
|      36 | 0x13AA6     |       80550 |
|      37 | 0xFFFFFFE2  |  4294967266 |
|      38 | 0x0E94      |        3732 |
|      39 | 0x008C      |         140 |
|      40 | 0x3500      |       13568 |
|      41 | 0x3501      |       13569 |
|      42 | 0x003C      |          60 |
|      43 | 0x3502      |       13570 |
|      44 | 0x3503      |       13571 |
|      45 | 0x3504      |       13572 |
|      46 | 0x0027      |          39 |
|      47 | 0x0007      |           7 |
|      48 | 0x3505      |       13573 |
|      49 | 0x0032      |          50 |
|      50 | 0x001E      |          30 |
|      51 | 0x008E      |         142 |
|      52 | 0x0014      |          20 |
|      53 | 0x3506      |       13574 |
|      54 | 0x3507      |       13575 |
|      55 | 0x007F      |         127 |
|      56 | 0x03E7      |         999 |
|      57 | 0x00C8      |         200 |
|      58 | 0x007A      |         122 |
|      59 | 0x0059      |          89 |
|      60 | 0x0011      |          17 |
|      61 | 0xFFF8A06A  |  4294484074 |
|      62 | 0xFFF71772  |  4294383474 |
|      63 | 0x446B      |       17515 |
|      64 | 0x0EE0      |        3808 |
|      65 | 0xFFFD63EE  |  4294796270 |
|      66 | 0xFFFABDBE  |  4294622654 |
|      67 | 0xFFFF9A5F  |  4294941279 |
|      68 | 0x02C9      |         713 |
|      69 | 0xFFFDA56E  |  4294813038 |
|      70 | 0xFFFAB6B0  |  4294620848 |
|      71 | 0xFFFFA5BC  |  4294944188 |
|      72 | 0x0846      |        2118 |
|      73 | 0x3508      |       13576 |
|      74 | 0x3509      |       13577 |
|      75 | 0x0708      |        1800 |
|      76 | 0x0082      |         130 |
|      77 | 0x350A      |       13578 |
|      78 | 0x0064      |         100 |
|      79 | 0x0040      |          64 |
|      80 | 0x350B      |       13579 |
|      81 | 0x0087      |         135 |
|      82 | 0x0050      |          80 |
|      83 | 0x350C      |       13580 |
|      84 | 0x350D      |       13581 |
|      85 | 0x350E      |       13582 |
|      86 | 0x350F      |       13583 |
|      87 | 0x02BC      |         700 |
|      88 | 0x0003      |           3 |
|      89 | 0x3510      |       13584 |
|      90 | 0x21FD3     |      139219 |
|      91 | 0xDDF0      |       56816 |
|      92 | 0x0A33      |        2611 |
|      93 | 0x1E471     |      124017 |
|      94 | 0x148C9     |       84169 |
|      95 | 0x0238      |         568 |
|      96 | 0x3511      |       13585 |
|      97 | 0x3512      |       13586 |
|      98 | 0x03EA      |        1002 |
|      99 | 0x3513      |       13587 |
|     100 | 0x3514      |       13588 |
|     101 | 0x1FEDB     |      130779 |
|     102 | 0x13C26     |       80934 |
|     103 | 0x00E1      |         225 |
|     104 | 0x0823      |        2083 |
|     105 | 0x002D      |          45 |
|     106 | 0x3515      |       13589 |
|     107 | 0x3516      |       13590 |
|     108 | 0x3517      |       13591 |
|     109 | 0x00AA      |         170 |
|     110 | 0x3518      |       13592 |
|     111 | 0x0BA9      |        2985 |
|     112 | 0x3519      |       13593 |
|     113 | 0x351A      |       13594 |
|     114 | 0x0096      |         150 |
|     115 | 0xFFFD90C4  |  4294807748 |
|     116 | 0xFFFAC648  |  4294624840 |
|     117 | 0xFFFF6119  |  4294926617 |
|     118 | 0x0E06      |        3590 |
|     119 | 0xFFF7FBC5  |  4294441925 |
|     120 | 0x377B2     |      227250 |
|     121 | 0xFFFD63A9  |  4294796201 |
|     122 | 0x0BB8      |        3000 |
|     123 | 0x00BE      |         190 |
|     124 | 0x351B      |       13595 |
|     125 | 0x351C      |       13596 |
|     126 | 0x351D      |       13597 |
|     127 | 0x00F0      |         240 |
|     128 | 0x14A1F     |       84511 |
|     129 | 0xFFFCF918  |  4294768920 |
|     130 | 0xFFFEB33F  |  4294882111 |
|     131 | 0x0E51      |        3665 |
|     132 | 0x351E      |       13598 |
|     133 | 0x20078     |      131192 |
|     134 | 0x13003     |       77827 |
|     135 | 0x00E0      |         224 |
|     136 | 0x351F      |       13599 |
|     137 | 0x3520      |       13600 |
|     138 | 0x3521      |       13601 |
|     139 | 0x3522      |       13602 |
|     140 | 0x3523      |       13603 |
|     141 | 0x3524      |       13604 |
|     142 | 0x3525      |       13605 |
|     143 | 0x3526      |       13606 |
|     144 | 0xFFFD690F  |  4294797583 |
|     145 | 0xFFFA9087  |  4294611079 |
|     146 | 0xFFFF9C97  |  4294941847 |
|     147 | 0x03A9      |         937 |
|     148 | 0xFFFD8589  |  4294804873 |
|     149 | 0xFFFAA920  |  4294617376 |
|     150 | 0xFFFFA343  |  4294943555 |
|     151 | 0x062F      |        1583 |
|     152 | 0x0E2F      |        3631 |
|     153 | 0x00E7      |         231 |
|     154 | 0x1F018     |      127000 |
|     155 | 0x1AF1B     |      110363 |
|     156 | 0x1964      |        6500 |
|     157 | 0x01F4      |         500 |
|     158 | 0x052B      |        1323 |
|     159 | 0x3527      |       13607 |
|     160 | 0x3528      |       13608 |
|     161 | 0x00A0      |         160 |
|     162 | 0x3529      |       13609 |
|     163 | 0x352A      |       13610 |
|     164 | 0x09C4      |        2500 |
|     165 | 0x352B      |       13611 |
|     166 | 0x352C      |       13612 |
|     167 | 0x352D      |       13613 |
|     168 | 0x352E      |       13614 |
|     169 | 0x20387     |      131975 |
|     170 | 0x13D13     |       81171 |
|     171 | 0x0890      |        2192 |
|     172 | 0x43F5      |       17397 |
|     173 | 0x3536      |       13622 |
|     174 | 0x3537      |       13623 |
|     175 | 0x3538      |       13624 |
|     176 | 0x3539      |       13625 |
|     177 | 0x353A      |       13626 |
|     178 | 0x005C      |          92 |
|     179 | 0x0006      |           6 |
|     180 | 0xFFFCB041  |  4294750273 |
|     181 | 0xFFFFD740  |  4294956864 |
|     182 | 0x0533      |        1331 |
|     183 | 0x0E79      |        3705 |
|     184 | 0x353B      |       13627 |
|     185 | 0x00C3      |         195 |
|     186 | 0x05DC      |        1500 |
|     187 | 0x353C      |       13628 |
|     188 | 0x353D      |       13629 |
|     189 | 0x353E      |       13630 |
|     190 | 0x353F      |       13631 |
|     191 | 0x0069      |         105 |
|     192 | 0x00C9      |         201 |
|     193 | 0x00D7      |         215 |

## String References

- **13566**: Does this talk interest you? [Immensely, yes./Not in the least, no.]

## Events

### Event 65535

#### Metadata

| Field        | Value   |
|--------------|---------|
| Entrypoint   | 0x0000  |
| Data Size    | 1 bytes |
| Instructions | 1       |

```
      00 01 02 03 04 05 06 07  08 09 0A 0B 0C 0D 0E 0F
      -- -- -- -- -- -- -- --  -- -- -- -- -- -- -- --
0000: 00                                                .               
```

#### Opcodes

```
  0: 0x0000 [0x00] END_REQSTACK()
```

### Event 71

#### Metadata

| Field        | Value      |
|--------------|------------|
| Entrypoint   | 0x0001     |
| Data Size    | 1332 bytes |
| Instructions | 190        |

```
      00 01 02 03 04 05 06 07  08 09 0A 0B 0C 0D 0E 0F
      -- -- -- -- -- -- -- --  -- -- -- -- -- -- -- --
0000:    42 03 01 10 00 80 03  00 00 09 10 6A 01 80 02   B..........j...
0010: 80 03 80 1A 8C 18 46 01  38 04 80 94 01 F0 FF FF  ......F.8.......
0020: 7F 94 01 C7 02 05 01 92  01 C7 02 05 01 92 01 F0  ................
0030: 01 05 01 92 01 E6 01 05  01 92 01 FE 01 05 01 92  ................
0040: 01 FF 01 05 01 BA F0 FF  FF 7F 05 80 06 80 00 80  ................
0050: 07 80 BA C6 02 05 01 08  80 09 80 0A 80 0B 80 80  ................
0060: F0 FF FF 7F 80 C6 02 05  01 80 F0 01 05 01 80 E6  ................
0070: 01 05 01 BA FE 01 05 01  0C 80 0D 80 00 80 0E 80  ................
0080: 80 FE 01 05 01 1C 0F 80  80 FF 01 05 01 4A F0 FF  .............J..
0090: FF 7F C7 02 05 01 6F 76  F0 FF FF 7F 80 C7 02 05  ......ov........
00A0: 01 79 00 C7 02 05 01 C6  02 05 01 4A E6 01 05 01  .y.........J....
00B0: FE 01 05 01 4A FE 01 05  01 E6 01 05 01 6F 76 E6  ....J........ov.
00C0: 01 05 01 6F 76 FE 01 05  01 7B FE 01 05 01 7B E6  ...ov....{....{.
00D0: 01 05 01 66 10 80 C7 02  05 01 C7 02 05 01 74 68  ...f..........th
00E0: 6B 31 53 C7 02 05 01 C7  02 05 01 74 68 6B 31 5C  k1S........thk1\
00F0: 00 11 80 5C 01 11 80 9A  45 12 80 F8 FF FF 7F F8  ...\....E.......
0100: FF FF 7F 73 30 33 32 00  80 1A D1 18 2B C7 02 05  ...s032.....+...
0110: 01 13 80 23 55 12 80 F8  FF FF 7F F8 FF FF 7F 73  ...#U..........s
0120: 30 33 32 45 12 80 F8 FF  FF 7F F8 FF FF 7F 73 30  032E..........s0
0130: 31 31 00 80 6E F0 FF FF  7F 14 80 99 F0 FF FF 7F  11..n...........
0140: 1C 15 80 52 12 80 F8 FF  FF 7F F8 FF FF 7F 73 30  ...R..........s0
0150: 31 31 45 12 80 F8 FF FF  7F F8 FF FF 7F 73 30 33  11E..........s03
0160: 33 00 80 1C 16 80 6E C7  02 05 01 17 80 99 C7 02  3.....n.........
0170: 05 01 52 12 80 F8 FF FF  7F F8 FF FF 7F 73 30 33  ..R..........s03
0180: 33 45 12 80 F8 FF FF 7F  F8 FF FF 7F 73 31 36 37  3E..........s167
0190: 00 80 99 C7 02 05 01 7B  C7 02 05 01 4B C7 02 05  .......{....K...
01A0: 01 18 80 6F 76 C7 02 05  01 2B C7 02 05 01 19 80  ...ov....+......
01B0: 23 7C 00 C7 02 05 01 52  12 80 F8 FF FF 7F F8 FF  #|.....R........
01C0: FF 7F 73 31 36 37 45 12  80 F8 FF FF 7F F8 FF FF  ..s167E.........
01D0: 7F 62 6C 6F 66 00 80 45  12 80 F8 FF FF 7F F8 FF  .blof..E........
01E0: FF 7F 73 30 33 35 00 80  6E C7 02 05 01 1A 80 99  ..s035..n.......
01F0: C7 02 05 01 7C 01 C7 02  05 01 2B C7 02 05 01 1B  ....|.....+.....
0200: 80 23 1C 1C 80 99 C7 02  05 01 52 12 80 F8 FF FF  .#........R.....
0210: 7F F8 FF FF 7F 73 30 33  35 45 12 80 F8 FF FF 7F  .....s035E......
0220: F8 FF FF 7F 73 30 31 36  00 80 66 10 80 C7 02 05  ....s016..f.....
0230: 01 C7 02 05 01 74 6C 6B  30 2B C7 02 05 01 1D 80  .....tlk0+......
0240: 23 24 1E 80 00 80 00 80  25 02 00 10 1F 80 00 3E  #$......%......>
0250: 03 66 10 80 C7 02 05 01  C7 02 05 01 74 6C 6B 31  .f..........tlk1
0260: 53 C7 02 05 01 C7 02 05  01 74 6C 6B 31 1C 0F 80  S........tlk1...
0270: 6E C7 02 05 01 1F 80 99  C7 02 05 01 2B C7 02 05  n...........+...
0280: 01 20 80 23 1C 21 80 99  C7 02 05 01 1C 22 80 66  . .#.!.......".f
0290: 10 80 C7 02 05 01 C7 02  05 01 74 68 6B 31 BA C6  ..........thk1..
02A0: 02 05 01 23 80 24 80 25  80 26 80 80 C6 02 05 01  ...#.$.%.&......
02B0: 79 00 C7 02 05 01 C6 02  05 01 1C 27 80 66 10 80  y..........'.f..
02C0: C7 02 05 01 C7 02 05 01  74 68 6B 32 53 C7 02 05  ........thk2S...
02D0: 01 C7 02 05 01 74 68 6B  32 2B C7 02 05 01 28 80  .....thk2+....(.
02E0: 23 7C 00 C7 02 05 01 52  12 80 F8 FF FF 7F F8 FF  #|.....R........
02F0: FF 7F 73 30 31 36 45 12  80 F8 FF FF 7F F8 FF FF  ..s016E.........
0300: 7F 73 30 31 37 00 80 6E  C7 02 05 01 04 80 99 C7  .s017..n........
0310: 02 05 01 2B C7 02 05 01  29 80 1C 2A 80 52 12 80  ...+....)..*.R..
0320: F8 FF FF 7F F8 FF FF 7F  73 30 31 37 1A 8C 18 46  ........s017...F
0330: 00 7B C7 02 05 01 1A D1  18 21 00 01 3E 03 03 01  .{.......!..>...
0340: 10 1F 80 66 10 80 C7 02  05 01 C7 02 05 01 74 6C  ...f..........tl
0350: 6B 31 53 C7 02 05 01 C7  02 05 01 74 6C 6B 31 1C  k1S........tlk1.
0360: 0F 80 6E C7 02 05 01 1F  80 99 C7 02 05 01 2B C7  ..n...........+.
0370: 02 05 01 2B 80 23 1C 21  80 99 C7 02 05 01 2B C7  ...+.#.!......+.
0380: 02 05 01 2C 80 23 1C 22  80 66 10 80 C7 02 05 01  ...,.#.".f......
0390: C7 02 05 01 74 6C 6B 30  2B C7 02 05 01 2D 80 23  ....tlk0+....-.#
03A0: 53 C7 02 05 01 C7 02 05  01 74 6C 6B 30 1C 0F 80  S........tlk0...
03B0: 66 10 80 C7 02 05 01 C7  02 05 01 74 6C 6B 31 52  f..........tlk1R
03C0: 12 80 F8 FF FF 7F F8 FF  FF 7F 73 30 31 36 45 12  ..........s016E.
03D0: 80 F8 FF FF 7F F8 FF FF  7F 73 30 33 34 00 80 66  .........s034..f
03E0: 2E 80 FE 01 05 01 FE 01  05 01 74 6C 6B 30 53 C7  ..........tlk0S.
03F0: 02 05 01 C7 02 05 01 74  6C 6B 31 6E F0 FF FF 7F  .......tlk1n....
0400: 2F 80 99 F0 FF FF 7F 99  F0 FF FF 7F 1C 0F 80 6E  /..............n
0410: C7 02 05 01 1F 80 99 C7  02 05 01 1C 21 80 99 C7  ............!...
0420: 02 05 01 2B C7 02 05 01  30 80 23 1C 31 80 27 10  ...+....0.#.1.'.
0430: C7 02 05 01 10 1C 32 80  52 12 80 F8 FF FF 7F F8  ......2.R.......
0440: FF FF 7F 73 30 33 34 45  12 80 F8 FF FF 7F F8 FF  ...s034E........
0450: FF 7F 73 30 33 36 00 80  2A 10 C7 02 05 01 4B C7  ..s036..*.....K.
0460: 02 05 01 33 80 1C 34 80  66 2E 80 FE 01 05 01 FE  ...3..4.f.......
0470: 01 05 01 74 6C 6B 31 6F  76 C7 02 05 01 2B C7 02  ...tlk1ov....+..
0480: 05 01 35 80 23 4A F0 FF  FF 7F C7 02 05 01 1C 0F  ..5.#J..........
0490: 80 52 12 80 F8 FF FF 7F  F8 FF FF 7F 73 30 33 36  .R..........s036
04A0: 45 12 80 F8 FF FF 7F F8  FF FF 7F 73 30 33 31 00  E..........s031.
04B0: 80 66 10 80 C7 02 05 01  C7 02 05 01 74 6C 6B 30  .f..........tlk0
04C0: 2B C7 02 05 01 36 80 23  53 C7 02 05 01 C7 02 05  +....6.#S.......
04D0: 01 74 6C 6B 30 5D 00 80  02 80 6A 00 80 02 80 03  .tlk0]....j.....
04E0: 80 1C 02 80 1A 6B 18 52  12 80 F8 FF FF 7F F8 FF  .....k.R........
04F0: FF 7F 73 30 33 31 6B 69  64 6C 30 C7 02 05 01 1C  ..s031kidl0.....
0500: 0F 80 AB 11 00 80 1C 1F  80 02 00 00 00 80 00 14  ................
0510: 05 30 21 00 5D 37 80 02  80 6A 38 80 02 80 2F 80  .0!.]7...j8.../.
0520: 46 00 45 39 80 F0 FF FF  7F F0 FF FF 7F 66 64 69  F.E9.........fdi
0530: 32 00 80 21 00                                    2..!.           
```

#### Opcodes

```
  0: 0x0001 [0x42] SET_CLI_EVENT_CANCEL_DATA()
  1: 0x0002 [0x03] Work_Zone[1] = 0*
  2: 0x0007 [0x03] ExtData[1]->WorkLocal[0] = Work_Zone[9]
  3: 0x000C [0x6A] CHANGE_SOUND_VOLUME: Set (Effects/Zone)* volume to 300*, fade_time=120*
  4: 0x0013 [0x1A] CALL_SUBROUTINE(address=0x188C)
  5: 0x0016 [0x46] CAMERA_CONTROL: Disable user control
  6: 0x0018 [0x38] SET_CLIENT_EVENT_MODE(mode=19*)
  7: 0x001B [0x94] LocalPlayer->Render.Flags3 ^= 0x01
  8: 0x0021 [0x94] Nichais (ID: 17105607/0x010502C7)->Render.Flags3 ^= 0x01
  9: 0x0027 [0x92] Nichais (ID: 17105607/0x010502C7)->Render.Flags3 ^= 0x01
 10: 0x002D [0x92] Ysayle (ID: 17105392/0x010501F0)->Render.Flags3 ^= 0x01
 11: 0x0033 [0x92] Wyatt (ID: 17105382/0x010501E6)->Render.Flags3 ^= 0x01
 12: 0x0039 [0x92] Autouria (ID: 17105406/0x010501FE)->Render.Flags3 ^= 0x01
 13: 0x003F [0x92] Contie (ID: 17105407/0x010501FF)->Render.Flags3 ^= 0x01
 14: 0x0045 [0xBA] SET_ENTITY_POSITION(entity_id=LocalPlayer, pos_x=133.788*, pos_z=79.188*, pos_y=0.000*, direction=307.5°*)
 15: 0x0052 [0xBA] SET_ENTITY_POSITION(entity_id=Unnamed NPC (ID: 17105606/0x010502C6), pos_x=132.485*, pos_z=80.184*, pos_y=-0.015*, direction=321.2°*)
 16: 0x005F [0x80] LOAD_WAIT(entity=LocalPlayer)
 17: 0x0064 [0x80] LOAD_WAIT(entity=Unnamed NPC (ID: 17105606/0x010502C6))
 18: 0x0069 [0x80] LOAD_WAIT(entity=Ysayle (ID: 17105392/0x010501F0))
 19: 0x006E [0x80] LOAD_WAIT(entity=Wyatt (ID: 17105382/0x010501E6))
 20: 0x0073 [0xBA] SET_ENTITY_POSITION(entity_id=Autouria (ID: 17105406/0x010501FE), pos_x=124.080*, pos_z=83.053*, pos_y=0.000*, direction=175.8°*)
 21: 0x0080 [0x80] LOAD_WAIT(entity=Autouria (ID: 17105406/0x010501FE))
 22: 0x0085 [0x1C] WAIT(15* ticks)
 23: 0x0088 [0x80] LOAD_WAIT(entity=Contie (ID: 17105407/0x010501FF))
 24: 0x008D [0x4A] LocalPlayer looks at Nichais (ID: 17105607/0x010502C7)
 25: 0x0096 [0x6F] WAIT_FRAME_DELAY: Yield until WaitTime reaches zero
 26: 0x0097 [0x76] CHECK_ENTITY_RENDER_FLAGS: Wait until LocalPlayer Render.Flags0 and Render.Flags3 conditions are met
 27: 0x009C [0x80] LOAD_WAIT(entity=Nichais (ID: 17105607/0x010502C7))
 28: 0x00A1 [0x79] Nichais (ID: 17105607/0x010502C7) looks at Unnamed NPC (ID: 17105606/0x010502C6) (Basic look)
 29: 0x00AB [0x4A] Wyatt (ID: 17105382/0x010501E6) looks at Autouria (ID: 17105406/0x010501FE)
 30: 0x00B4 [0x4A] Autouria (ID: 17105406/0x010501FE) looks at Wyatt (ID: 17105382/0x010501E6)
 31: 0x00BD [0x6F] WAIT_FRAME_DELAY: Yield until WaitTime reaches zero
 32: 0x00BE [0x76] CHECK_ENTITY_RENDER_FLAGS: Wait until Wyatt (ID: 17105382/0x010501E6) Render.Flags0 and Render.Flags3 conditions are met
 33: 0x00C3 [0x6F] WAIT_FRAME_DELAY: Yield until WaitTime reaches zero
 34: 0x00C4 [0x76] CHECK_ENTITY_RENDER_FLAGS: Wait until Autouria (ID: 17105406/0x010501FE) Render.Flags0 and Render.Flags3 conditions are met
 35: 0x00C9 [0x7B] Autouria (ID: 17105406/0x010501FE) stops talking
 36: 0x00CE [0x7B] Wyatt (ID: 17105382/0x010501E6) stops talking
 37: 0x00D3 [0x66] LOAD_EXT_SCHEDULER_MAIN: Load scheduler "thk1" with entities [Nichais (ID: 17105607/0x010502C7), Nichais (ID: 17105607/0x010502C7)], work=29*
 38: 0x00E2 [0x53] WAIT_SCHEDULER_TASK: Wait for scheduler "thk1" with entities [Nichais (ID: 17105607/0x010502C7), Nichais (ID: 17105607/0x010502C7)]
 39: 0x00EF [0x5C] MUSIC_CONTROL: Set Idle (Day) music to song 254*
 40: 0x00F3 [0x5C] MUSIC_CONTROL: Set Idle (Night) music to song 254*
 41: 0x00F7 [0x9A] WAIT_MUSIC_SERVER()
 42: 0x00F8 [0x45] LOAD_SCHEDULED_TASK: Load scheduler "s032" with entities [EventEntity, EventEntity], work=[388*, 0*]
 43: 0x0109 [0x1A] CALL_SUBROUTINE(address=0x18D1)
 44: 0x010C [0x2B] Nichais (ID: 17105607/0x010502C7) [13562*]:
    → "I wonder if perhaps... No, it couldn't be..."
 45: 0x0113 [0x23] WAIT_FOR_DIALOG_INTERACTION
 46: 0x0114 [0x55] WAIT_LOAD_SCHEDULER: Wait for scheduler "s032" with entities [EventEntity, EventEntity], work=388*
 47: 0x0123 [0x45] LOAD_SCHEDULED_TASK: Load scheduler "s011" with entities [EventEntity, EventEntity], work=[388*, 0*]
 48: 0x0134 [0x6E] LocalPlayer uses emote 8*
 49: 0x013B [0x99] Wait for LocalPlayer animation to complete
 50: 0x0140 [0x1C] WAIT(230* ticks)
 51: 0x0143 [0x52] END_LOAD_SCHEDULER: End scheduler "s011" with entities [EventEntity, EventEntity], work=388*
 52: 0x0152 [0x45] LOAD_SCHEDULED_TASK: Load scheduler "s033" with entities [EventEntity, EventEntity], work=[388*, 0*]
 53: 0x0163 [0x1C] WAIT(90* ticks)
 54: 0x0166 [0x6E] Nichais (ID: 17105607/0x010502C7) uses emote 21*
 55: 0x016D [0x99] Wait for Nichais (ID: 17105607/0x010502C7) animation to complete
 56: 0x0172 [0x52] END_LOAD_SCHEDULER: End scheduler "s033" with entities [EventEntity, EventEntity], work=388*
 57: 0x0181 [0x45] LOAD_SCHEDULED_TASK: Load scheduler "s167" with entities [EventEntity, EventEntity], work=[388*, 0*]
 58: 0x0192 [0x99] Wait for Nichais (ID: 17105607/0x010502C7) animation to complete
 59: 0x0197 [0x7B] Nichais (ID: 17105607/0x010502C7) stops talking
 60: 0x019C [0x4B] UPDATE_ENTITY_YAW(entity=Nichais (ID: 17105607/0x010502C7), yaw=5.5°*)
 61: 0x01A3 [0x6F] WAIT_FRAME_DELAY: Yield until WaitTime reaches zero
 62: 0x01A4 [0x76] CHECK_ENTITY_RENDER_FLAGS: Wait until Nichais (ID: 17105607/0x010502C7) Render.Flags0 and Render.Flags3 conditions are met
 63: 0x01A9 [0x2B] Nichais (ID: 17105607/0x010502C7) [13563*]:
    → "Wh--!? My apologies, [sir/ma'am]. You gave me a bit of a start, is all."
 64: 0x01B0 [0x23] WAIT_FOR_DIALOG_INTERACTION
 65: 0x01B1 [0x7C] Nichais (ID: 17105607/0x010502C7)->Render.Flags2 |= 0x00
 66: 0x01B7 [0x52] END_LOAD_SCHEDULER: End scheduler "s167" with entities [EventEntity, EventEntity], work=388*
 67: 0x01C6 [0x45] LOAD_SCHEDULED_TASK: Load scheduler "blof" with entities [EventEntity, EventEntity], work=[388*, 0*]
 68: 0x01D7 [0x45] LOAD_SCHEDULED_TASK: Load scheduler "s035" with entities [EventEntity, EventEntity], work=[388*, 0*]
 69: 0x01E8 [0x6E] Nichais (ID: 17105607/0x010502C7) uses emote 24*
 70: 0x01EF [0x99] Wait for Nichais (ID: 17105607/0x010502C7) animation to complete
 71: 0x01F4 [0x7C] Nichais (ID: 17105607/0x010502C7)->Render.Flags2 |= 0x01
 72: 0x01FA [0x2B] Nichais (ID: 17105607/0x010502C7) [13564*]:
    → "I beg your indulgence. My mind wanders and is ill at ease. If you would please be so kind as to excuse me."
 73: 0x0201 [0x23] WAIT_FOR_DIALOG_INTERACTION
 74: 0x0202 [0x1C] WAIT(65* ticks)
 75: 0x0205 [0x99] Wait for Nichais (ID: 17105607/0x010502C7) animation to complete
 76: 0x020A [0x52] END_LOAD_SCHEDULER: End scheduler "s035" with entities [EventEntity, EventEntity], work=388*
 77: 0x0219 [0x45] LOAD_SCHEDULED_TASK: Load scheduler "s016" with entities [EventEntity, EventEntity], work=[388*, 0*]
 78: 0x022A [0x66] LOAD_EXT_SCHEDULER_MAIN: Load scheduler "tlk0" with entities [Nichais (ID: 17105607/0x010502C7), Nichais (ID: 17105607/0x010502C7)], work=29*
 79: 0x0239 [0x2B] Nichais (ID: 17105607/0x010502C7) [13565*]:
    → "Unless... If I may be so bold as to impose upon you, [sir/ma'am]. A certain dilemma of sorts has been plaguing me for quite some time now. It has me up at nights, truth be told."
 80: 0x0240 [0x23] WAIT_FOR_DIALOG_INTERACTION
 81: 0x0241 [0x24] CREATE_DIALOG(message_id=13566*, default_option=0*, option_flags=0*)
    → "Does this talk interest you? [Immensely, yes./Not in the least, no.]"
 82: 0x0248 [0x25] WAIT_DIALOG_SELECT()
 83: 0x0249 [0x02] IF !(Work_Zone[0] == 1*) GOTO 0x033E
 84: 0x0251 [0x66] LOAD_EXT_SCHEDULER_MAIN: Load scheduler "tlk1" with entities [Nichais (ID: 17105607/0x010502C7), Nichais (ID: 17105607/0x010502C7)], work=29*
 85: 0x0260 [0x53] WAIT_SCHEDULER_TASK: Wait for scheduler "tlk1" with entities [Nichais (ID: 17105607/0x010502C7), Nichais (ID: 17105607/0x010502C7)]
 86: 0x026D [0x1C] WAIT(15* ticks)
 87: 0x0270 [0x6E] Nichais (ID: 17105607/0x010502C7) uses emote 1*
 88: 0x0277 [0x99] Wait for Nichais (ID: 17105607/0x010502C7) animation to complete
 89: 0x027C [0x2B] Nichais (ID: 17105607/0x010502C7) [13567*]:
    → "Very well. I would humbly ask that you leave me to my own devices, then. I bid you good day, [sir/ma'am]."
 90: 0x0283 [0x23] WAIT_FOR_DIALOG_INTERACTION
 91: 0x0284 [0x1C] WAIT(75* ticks)
 92: 0x0287 [0x99] Wait for Nichais (ID: 17105607/0x010502C7) animation to complete
 93: 0x028C [0x1C] WAIT(25* ticks)
 94: 0x028F [0x66] LOAD_EXT_SCHEDULER_MAIN: Load scheduler "thk1" with entities [Nichais (ID: 17105607/0x010502C7), Nichais (ID: 17105607/0x010502C7)], work=29*
 95: 0x029E [0xBA] SET_ENTITY_POSITION(entity_id=Unnamed NPC (ID: 17105606/0x010502C6), pos_x=137.233*, pos_z=80.550*, pos_y=-0.030*, direction=328.0°*)
 96: 0x02AB [0x80] LOAD_WAIT(entity=Unnamed NPC (ID: 17105606/0x010502C6))
 97: 0x02B0 [0x79] Nichais (ID: 17105607/0x010502C7) looks at Unnamed NPC (ID: 17105606/0x010502C6) (Basic look)
 98: 0x02BA [0x1C] WAIT(140* ticks)
 99: 0x02BD [0x66] LOAD_EXT_SCHEDULER_MAIN: Load scheduler "thk2" with entities [Nichais (ID: 17105607/0x010502C7), Nichais (ID: 17105607/0x010502C7)], work=29*
100: 0x02CC [0x53] WAIT_SCHEDULER_TASK: Wait for scheduler "thk2" with entities [Nichais (ID: 17105607/0x010502C7), Nichais (ID: 17105607/0x010502C7)]
101: 0x02D9 [0x2B] Nichais (ID: 17105607/0x010502C7) [13568*]:
    → "That could only mean..."
102: 0x02E0 [0x23] WAIT_FOR_DIALOG_INTERACTION
103: 0x02E1 [0x7C] Nichais (ID: 17105607/0x010502C7)->Render.Flags2 |= 0x00
104: 0x02E7 [0x52] END_LOAD_SCHEDULER: End scheduler "s016" with entities [EventEntity, EventEntity], work=388*
105: 0x02F6 [0x45] LOAD_SCHEDULED_TASK: Load scheduler "s017" with entities [EventEntity, EventEntity], work=[388*, 0*]
106: 0x0307 [0x6E] Nichais (ID: 17105607/0x010502C7) uses emote 19*
107: 0x030E [0x99] Wait for Nichais (ID: 17105607/0x010502C7) animation to complete
108: 0x0313 [0x2B] Nichais (ID: 17105607/0x010502C7) [13569*]:
    → "No, no. By Altana, that simply cannot be..."
109: 0x031A [0x1C] WAIT(60* ticks)
110: 0x031D [0x52] END_LOAD_SCHEDULER: End scheduler "s017" with entities [EventEntity, EventEntity], work=388*
111: 0x032C [0x1A] CALL_SUBROUTINE(address=0x188C)
112: 0x032F [0x46] CAMERA_CONTROL: Restore default settings
113: 0x0331 [0x7B] Nichais (ID: 17105607/0x010502C7) stops talking
114: 0x0336 [0x1A] CALL_SUBROUTINE(address=0x18D1)
115: 0x0339 [0x21] END_EVENT
116: 0x033A [0x00] END_REQSTACK()

SUBROUTINE_033E:
117: 0x033E [0x03] Work_Zone[1] = 1*
118: 0x0343 [0x66] LOAD_EXT_SCHEDULER_MAIN: Load scheduler "tlk1" with entities [Nichais (ID: 17105607/0x010502C7), Nichais (ID: 17105607/0x010502C7)], work=29*
119: 0x0352 [0x53] WAIT_SCHEDULER_TASK: Wait for scheduler "tlk1" with entities [Nichais (ID: 17105607/0x010502C7), Nichais (ID: 17105607/0x010502C7)]
120: 0x035F [0x1C] WAIT(15* ticks)
121: 0x0362 [0x6E] Nichais (ID: 17105607/0x010502C7) uses emote 1*
122: 0x0369 [0x99] Wait for Nichais (ID: 17105607/0x010502C7) animation to complete
123: 0x036E [0x2B] Nichais (ID: 17105607/0x010502C7) [13570*]:
    → "Ah, but first, do allow me to introduce myself. My name is Nichais, the humble and most junior of sons born to a countryside lord of no notable circumstance."
124: 0x0375 [0x23] WAIT_FOR_DIALOG_INTERACTION
125: 0x0376 [0x1C] WAIT(75* ticks)
126: 0x0379 [0x99] Wait for Nichais (ID: 17105607/0x010502C7) animation to complete
127: 0x037E [0x2B] Nichais (ID: 17105607/0x010502C7) [13571*]:
    → "I made the journey to the capital here with hopes of studying under the most prestigious historians in the Kingdom. I have been fortunate enough to secure such a post, interning at the private residence of a very well-known scholar."
128: 0x0385 [0x23] WAIT_FOR_DIALOG_INTERACTION
129: 0x0386 [0x1C] WAIT(25* ticks)
130: 0x0389 [0x66] LOAD_EXT_SCHEDULER_MAIN: Load scheduler "tlk0" with entities [Nichais (ID: 17105607/0x010502C7), Nichais (ID: 17105607/0x010502C7)], work=29*
131: 0x0398 [0x2B] Nichais (ID: 17105607/0x010502C7) [13572*]:
    → "And may I ask your name, kind adventurer?"
132: 0x039F [0x23] WAIT_FOR_DIALOG_INTERACTION
133: 0x03A0 [0x53] WAIT_SCHEDULER_TASK: Wait for scheduler "tlk0" with entities [Nichais (ID: 17105607/0x010502C7), Nichais (ID: 17105607/0x010502C7)]
134: 0x03AD [0x1C] WAIT(15* ticks)
135: 0x03B0 [0x66] LOAD_EXT_SCHEDULER_MAIN: Load scheduler "tlk1" with entities [Nichais (ID: 17105607/0x010502C7), Nichais (ID: 17105607/0x010502C7)], work=29*
136: 0x03BF [0x52] END_LOAD_SCHEDULER: End scheduler "s016" with entities [EventEntity, EventEntity], work=388*
137: 0x03CE [0x45] LOAD_SCHEDULED_TASK: Load scheduler "s034" with entities [EventEntity, EventEntity], work=[388*, 0*]
138: 0x03DF [0x66] LOAD_EXT_SCHEDULER_MAIN: Load scheduler "tlk0" with entities [Autouria (ID: 17105406/0x010501FE), Autouria (ID: 17105406/0x010501FE)], work=39*
139: 0x03EE [0x53] WAIT_SCHEDULER_TASK: Wait for scheduler "tlk1" with entities [Nichais (ID: 17105607/0x010502C7), Nichais (ID: 17105607/0x010502C7)]
140: 0x03FB [0x6E] LocalPlayer uses emote 7*
141: 0x0402 [0x99] Wait for LocalPlayer animation to complete
142: 0x0407 [0x99] Wait for LocalPlayer animation to complete
143: 0x040C [0x1C] WAIT(15* ticks)
144: 0x040F [0x6E] Nichais (ID: 17105607/0x010502C7) uses emote 1*
145: 0x0416 [0x99] Wait for Nichais (ID: 17105607/0x010502C7) animation to complete
146: 0x041B [0x1C] WAIT(75* ticks)
147: 0x041E [0x99] Wait for Nichais (ID: 17105607/0x010502C7) animation to complete
148: 0x0423 [0x2B] Nichais (ID: 17105607/0x010502C7) [13573*]:
    → "It is both an honor and a privilege to make your acquaintance, <Player>."
149: 0x042A [0x23] WAIT_FOR_DIALOG_INTERACTION
150: 0x042B [0x1C] WAIT(50* ticks)
151: 0x042E [0x27] REQ_SET(priority=0x10, entity_id=Nichais (ID: 17105607/0x010502C7), tag_num=0x10)
152: 0x0435 [0x1C] WAIT(30* ticks)
153: 0x0438 [0x52] END_LOAD_SCHEDULER: End scheduler "s034" with entities [EventEntity, EventEntity], work=388*
154: 0x0447 [0x45] LOAD_SCHEDULED_TASK: Load scheduler "s036" with entities [EventEntity, EventEntity], work=[388*, 0*]
155: 0x0458 [0x2A] GET_REQ_LEVEL(level=16, entity_id=Nichais (ID: 17105607/0x010502C7))
156: 0x045E [0x4B] UPDATE_ENTITY_YAW(entity=Nichais (ID: 17105607/0x010502C7), yaw=0.8°*)
157: 0x0465 [0x1C] WAIT(20* ticks)
158: 0x0468 [0x66] LOAD_EXT_SCHEDULER_MAIN: Load scheduler "tlk1" with entities [Autouria (ID: 17105406/0x010501FE), Autouria (ID: 17105406/0x010501FE)], work=39*
159: 0x0477 [0x6F] WAIT_FRAME_DELAY: Yield until WaitTime reaches zero
160: 0x0478 [0x76] CHECK_ENTITY_RENDER_FLAGS: Wait until Nichais (ID: 17105607/0x010502C7) Render.Flags0 and Render.Flags3 conditions are met
161: 0x047D [0x2B] Nichais (ID: 17105607/0x010502C7) [13574*]:
    → "Well, I shall not presume to waste any more of your time than I absolutely must. Tell me, does the topic of the great wyrms interest you? For it is they I wish to speak to you about this day!"
162: 0x0484 [0x23] WAIT_FOR_DIALOG_INTERACTION
163: 0x0485 [0x4A] LocalPlayer looks at Nichais (ID: 17105607/0x010502C7)
164: 0x048E [0x1C] WAIT(15* ticks)
165: 0x0491 [0x52] END_LOAD_SCHEDULER: End scheduler "s036" with entities [EventEntity, EventEntity], work=388*
166: 0x04A0 [0x45] LOAD_SCHEDULED_TASK: Load scheduler "s031" with entities [EventEntity, EventEntity], work=[388*, 0*]
167: 0x04B1 [0x66] LOAD_EXT_SCHEDULER_MAIN: Load scheduler "tlk0" with entities [Nichais (ID: 17105607/0x010502C7), Nichais (ID: 17105607/0x010502C7)], work=29*
168: 0x04C0 [0x2B] Nichais (ID: 17105607/0x010502C7) [13575*]:
    → "Pray tell, have you heard the legends of the so-called "Eastdrake"? It is believed the beast resides somewhere in the craggy, cavernous expanses of Grauberg, though any such accounts are of course no more than hearsay."
169: 0x04C7 [0x23] WAIT_FOR_DIALOG_INTERACTION
170: 0x04C8 [0x53] WAIT_SCHEDULER_TASK: Wait for scheduler "tlk0" with entities [Nichais (ID: 17105607/0x010502C7), Nichais (ID: 17105607/0x010502C7)]
171: 0x04D5 [0x5D] SET_MUSIC_VOLUME(volume=0*, fade_time=120*)
172: 0x04DA [0x6A] CHANGE_SOUND_VOLUME: Set (Effects/Zone)* volume to 0*, fade_time=120*
173: 0x04E1 [0x1C] WAIT(120* ticks)
174: 0x04E4 [0x1A] CALL_SUBROUTINE(address=0x186B)
175: 0x04E7 [0x52] END_LOAD_SCHEDULER: End scheduler "s031" with entities [EventEntity, EventEntity], work=388*
176: 0x04F6 [0x6B] STOP_AND_IDLE: Nichais (ID: 17105607/0x010502C7) stops current action and resets to idle (animation="idl0")
177: 0x04FF [0x1C] WAIT(15* ticks)
178: 0x0502 [0xAB] EventEntity->DespawnValue = 0* // Set despawn value
179: 0x0506 [0x1C] WAIT(1* ticks)
180: 0x0509 [0x02] IF !(ExtData[1]->WorkLocal[0] == 0*) GOTO 0x0514
181: 0x0511 [0x30] SET_UCOFF_CONTINUE_ZERO()
182: 0x0512 [0x21] END_EVENT
183: 0x0513 [0x00] END_REQSTACK()
184: 0x0514 [0x5D] SET_MUSIC_VOLUME(volume=127*, fade_time=120*)
185: 0x0519 [0x6A] CHANGE_SOUND_VOLUME: Set (Effects/System/Zone)* volume to 999*, fade_time=120*
186: 0x0520 [0x46] CAMERA_CONTROL: Restore default settings
187: 0x0522 [0x45] LOAD_SCHEDULED_TASK: Load scheduler "fdi2" with entities [LocalPlayer, LocalPlayer], work=[200*, 0*]
188: 0x0533 [0x21] END_EVENT
189: 0x0534 [0x00] END_REQSTACK()
```

#### Data or dead code:

```
# Dead code (unreachable instructions):
     0x033B [0x01] GOTO 0x033E
```

### Event 177

#### Metadata

| Field        | Value     |
|--------------|-----------|
| Entrypoint   | 0x0535    |
| Data Size    | 568 bytes |
| Instructions | 94        |

```
      00 01 02 03 04 05 06 07  08 09 0A 0B 0C 0D 0E 0F
      -- -- -- -- -- -- -- --  -- -- -- -- -- -- -- --
0530:                42 1A 8C  18 46 01 38 04 80 43 00       B...F.8..C.
0540: 43 01 03 00 00 09 10 6A  00 80 02 80 03 80 5C 00  C......j......\.
0550: 3A 80 5C 01 3A 80 9A 34  3B 80 77 3C 80 1F 80 1C  :.\.:..4;.w<....
0560: 1F 80 AB 09 2F 00 C9 02  05 01 2F 00 C8 02 05 01  ..../...../.....
0570: 2F 00 CA 02 05 01 4E 00  C9 02 05 01 4E 00 C8 02  /.....N.....N...
0580: 05 01 4E 00 CA 02 05 01  92 01 C9 02 05 01 92 01  ..N.............
0590: C8 02 05 01 92 01 CA 02  05 01 BA C9 02 05 01 3D  ...............=
05A0: 80 3E 80 3F 80 40 80 BA  C8 02 05 01 41 80 42 80  .>.?.@......A.B.
05B0: 43 80 44 80 BA CA 02 05  01 45 80 46 80 47 80 44  C.D......E.F.G.D
05C0: 80 94 01 C9 02 05 01 94  01 C8 02 05 01 94 01 CA  ................
05D0: 02 05 01 4B CA 02 05 01  48 80 6F 76 CA 02 05 01  ...K....H.ov....
05E0: 80 C9 02 05 01 80 C8 02  05 01 80 CA 02 05 01 1C  ................
05F0: 0F 80 45 12 80 F8 FF FF  7F F8 FF FF 7F 73 30 34  ..E..........s04
0600: 30 00 80 1A E3 18 2B C7  02 05 01 49 80 23 55 12  0.....+....I.#U.
0610: 80 F8 FF FF 7F F8 FF FF  7F 73 30 34 30 45 12 80  .........s040E..
0620: F8 FF FF 7F F8 FF FF 7F  73 30 34 31 00 80 2B C7  ........s041..+.
0630: 02 05 01 4A 80 23 55 12  80 F8 FF FF 7F F8 FF FF  ...J.#U.........
0640: 7F 73 30 34 31 45 12 80  F8 FF FF 7F F8 FF FF 7F  .s041E..........
0650: 73 31 32 34 00 80 4B C8  02 05 01 4B 80 6F 76 C8  s124..K....K.ov.
0660: 02 05 01 66 2E 80 C8 02  05 01 C8 02 05 01 73 68  ...f..........sh
0670: 61 30 1C 4C 80 53 C8 02  05 01 C8 02 05 01 73 68  a0.L.S........sh
0680: 61 30 52 12 80 F8 FF FF  7F F8 FF FF 7F 73 31 32  a0R..........s12
0690: 34 45 12 80 F8 FF FF 7F  F8 FF FF 7F 73 30 33 38  4E..........s038
06A0: 00 80 2B C7 02 05 01 4D  80 23 1C 4E 80 1A 4A 18  ..+....M.#.N..J.
06B0: 27 10 CA 02 05 01 04 52  12 80 F8 FF FF 7F F8 FF  '......R........
06C0: FF 7F 73 30 33 38 45 12  80 F8 FF FF 7F F8 FF FF  ..s038E.........
06D0: 7F 73 30 33 39 00 80 1A  E3 18 1C 4E 80 66 2E 80  .s039......N.f..
06E0: C8 02 05 01 C8 02 05 01  73 68 61 31 53 C8 02 05  ........sha1S...
06F0: 01 C8 02 05 01 73 68 61  31 1C 22 80 4B C8 02 05  .....sha1.".K...
0700: 01 4F 80 6F 76 C8 02 05  01 1C 32 80 2B C7 02 05  .O.ov.....2.+...
0710: 01 50 80 23 1C 51 80 5D  00 80 02 80 55 12 80 F8  .P.#.Q.]....U...
0720: FF FF 7F F8 FF FF 7F 73  30 33 39 1A 6B 18 1C 0F  .......s039.k...
0730: 80 AB 11 00 80 1C 1F 80  35 52 80 78 1C 0F 80 AB  ........5R.x....
0740: 0A 02 00 00 00 80 00 4C  07 30 21 00 5D 37 80 02  .......L.0!.]7..
0750: 80 6A 38 80 02 80 2F 80  46 00 45 39 80 F0 FF FF  .j8.../.F.E9....
0760: 7F F0 FF FF 7F 66 64 69  32 00 80 21 00           .....fdi2..!.   
```

#### Opcodes

```
  0: 0x0535 [0x42] SET_CLI_EVENT_CANCEL_DATA()
  1: 0x0536 [0x1A] CALL_SUBROUTINE(address=0x188C)
  2: 0x0539 [0x46] CAMERA_CONTROL: Disable user control
  3: 0x053B [0x38] SET_CLIENT_EVENT_MODE(mode=19*)
  4: 0x053E [0x43] SEND_EVENT_UPDATE: Send pending tag to server (packet 0x005B)
  5: 0x0540 [0x43] SEND_EVENT_UPDATE: Check pending flag (skip if not pending)
  6: 0x0542 [0x03] ExtData[1]->WorkLocal[0] = Work_Zone[9]
  7: 0x0547 [0x6A] CHANGE_SOUND_VOLUME: Set (Effects/Zone)* volume to 0*, fade_time=120*
  8: 0x054E [0x5C] MUSIC_CONTROL: Set Idle (Day) music to song 122*
  9: 0x0552 [0x5C] MUSIC_CONTROL: Set Idle (Night) music to song 122*
 10: 0x0556 [0x9A] WAIT_MUSIC_SERVER()
 11: 0x0557 [0x34] LOAD_UNLOAD_ZONE(zone_id=89*)
 12: 0x055A [0x77] SET_EVENT_TIME_WEATHER(hour=17*, weather=1*)
 13: 0x055F [0x1C] WAIT(1* ticks)
 14: 0x0562 [0xAB] EventEntity->UnknownFlag = 1 // Enable unknown flag
 15: 0x0564 [0x2F] Unnamed NPC (ID: 17105609/0x010502C9)->Render.Flags0 &= ~0x80000 // Bit 19
 16: 0x056A [0x2F] Unnamed NPC (ID: 17105608/0x010502C8)->Render.Flags0 &= ~0x80000 // Bit 19
 17: 0x0570 [0x2F] Unnamed NPC (ID: 17105610/0x010502CA)->Render.Flags0 &= ~0x80000 // Bit 19
 18: 0x0576 [0x4E] SET_ENTITY_HIDE_FLAG: Show Unnamed NPC (ID: 17105609/0x010502C9)
 19: 0x057C [0x4E] SET_ENTITY_HIDE_FLAG: Show Unnamed NPC (ID: 17105608/0x010502C8)
 20: 0x0582 [0x4E] SET_ENTITY_HIDE_FLAG: Show Unnamed NPC (ID: 17105610/0x010502CA)
 21: 0x0588 [0x92] Unnamed NPC (ID: 17105609/0x010502C9)->Render.Flags3 ^= 0x01
 22: 0x058E [0x92] Unnamed NPC (ID: 17105608/0x010502C8)->Render.Flags3 ^= 0x01
 23: 0x0594 [0x92] Unnamed NPC (ID: 17105610/0x010502CA)->Render.Flags3 ^= 0x01
 24: 0x059A [0xBA] SET_ENTITY_POSITION(entity_id=Unnamed NPC (ID: 17105609/0x010502C9), pos_x=-483.222*, pos_z=-583.822*, pos_y=17.515*, direction=334.7°*)
 25: 0x05A7 [0xBA] SET_ENTITY_POSITION(entity_id=Unnamed NPC (ID: 17105608/0x010502C8), pos_x=-171.026*, pos_z=-344.642*, pos_y=-26.017*, direction=62.7°*)
 26: 0x05B4 [0xBA] SET_ENTITY_POSITION(entity_id=Unnamed NPC (ID: 17105610/0x010502CA), pos_x=-154.258*, pos_z=-346.448*, pos_y=-23.108*, direction=62.7°*)
 27: 0x05C1 [0x94] Unnamed NPC (ID: 17105609/0x010502C9)->Render.Flags3 ^= 0x01
 28: 0x05C7 [0x94] Unnamed NPC (ID: 17105608/0x010502C8)->Render.Flags3 ^= 0x01
 29: 0x05CD [0x94] Unnamed NPC (ID: 17105610/0x010502CA)->Render.Flags3 ^= 0x01
 30: 0x05D3 [0x4B] UPDATE_ENTITY_YAW(entity=Unnamed NPC (ID: 17105610/0x010502CA), yaw=11.6°*)
 31: 0x05DA [0x6F] WAIT_FRAME_DELAY: Yield until WaitTime reaches zero
 32: 0x05DB [0x76] CHECK_ENTITY_RENDER_FLAGS: Wait until Unnamed NPC (ID: 17105610/0x010502CA) Render.Flags0 and Render.Flags3 conditions are met
 33: 0x05E0 [0x80] LOAD_WAIT(entity=Unnamed NPC (ID: 17105609/0x010502C9))
 34: 0x05E5 [0x80] LOAD_WAIT(entity=Unnamed NPC (ID: 17105608/0x010502C8))
 35: 0x05EA [0x80] LOAD_WAIT(entity=Unnamed NPC (ID: 17105610/0x010502CA))
 36: 0x05EF [0x1C] WAIT(15* ticks)
 37: 0x05F2 [0x45] LOAD_SCHEDULED_TASK: Load scheduler "s040" with entities [EventEntity, EventEntity], work=[388*, 0*]
 38: 0x0603 [0x1A] CALL_SUBROUTINE(address=0x18E3)
 39: 0x0606 [0x2B] Nichais (ID: 17105607/0x010502C7) [13576*]:
    → "The legend itself has been passed down for hundreds of years now. The oldest existing literature on the subject claims that the wyrm's ancestral home lies somewhere in the Far East."
 40: 0x060D [0x23] WAIT_FOR_DIALOG_INTERACTION
 41: 0x060E [0x55] WAIT_LOAD_SCHEDULER: Wait for scheduler "s040" with entities [EventEntity, EventEntity], work=388*
 42: 0x061D [0x45] LOAD_SCHEDULED_TASK: Load scheduler "s041" with entities [EventEntity, EventEntity], work=[388*, 0*]
 43: 0x062E [0x2B] Nichais (ID: 17105607/0x010502C7) [13577*]:
    → "Many finer details of the stories differ from one another, but one astonishing fact seems to be agreed upon by all the sources I have had the chance to study. They say that the wyrm relished in taking on the form of an elegant young Elvaan maiden, under the guise of which she would call upon villages and hamlets."
 44: 0x0635 [0x23] WAIT_FOR_DIALOG_INTERACTION
 45: 0x0636 [0x55] WAIT_LOAD_SCHEDULER: Wait for scheduler "s041" with entities [EventEntity, EventEntity], work=388*
 46: 0x0645 [0x45] LOAD_SCHEDULED_TASK: Load scheduler "s124" with entities [EventEntity, EventEntity], work=[388*, 0*]
 47: 0x0656 [0x4B] UPDATE_ENTITY_YAW(entity=Unnamed NPC (ID: 17105608/0x010502C8), yaw=9.9°*)
 48: 0x065D [0x6F] WAIT_FRAME_DELAY: Yield until WaitTime reaches zero
 49: 0x065E [0x76] CHECK_ENTITY_RENDER_FLAGS: Wait until Unnamed NPC (ID: 17105608/0x010502C8) Render.Flags0 and Render.Flags3 conditions are met
 50: 0x0663 [0x66] LOAD_EXT_SCHEDULER_MAIN: Load scheduler "sha0" with entities [Unnamed NPC (ID: 17105608/0x010502C8), Unnamed NPC (ID: 17105608/0x010502C8)], work=39*
 51: 0x0672 [0x1C] WAIT(130* ticks)
 52: 0x0675 [0x53] WAIT_SCHEDULER_TASK: Wait for scheduler "sha0" with entities [Unnamed NPC (ID: 17105608/0x010502C8), Unnamed NPC (ID: 17105608/0x010502C8)]
 53: 0x0682 [0x52] END_LOAD_SCHEDULER: End scheduler "s124" with entities [EventEntity, EventEntity], work=388*
 54: 0x0691 [0x45] LOAD_SCHEDULED_TASK: Load scheduler "s038" with entities [EventEntity, EventEntity], work=[388*, 0*]
 55: 0x06A2 [0x2B] Nichais (ID: 17105607/0x010502C7) [13578*]:
    → "Until one day she capriciously took wing and bore the high winds to our continent of Quon, settling in the harsh environs of Grauberg. There she met a great and mighty warrior, and they bound themselves to their words and to each other, entering into a noble and timeless oath."
 56: 0x06A9 [0x23] WAIT_FOR_DIALOG_INTERACTION
 57: 0x06AA [0x1C] WAIT(100* ticks)
 58: 0x06AD [0x1A] CALL_SUBROUTINE(address=0x184A)
 59: 0x06B0 [0x27] REQ_SET(priority=0x10, entity_id=Unnamed NPC (ID: 17105610/0x010502CA), tag_num=0x04)
 60: 0x06B7 [0x52] END_LOAD_SCHEDULER: End scheduler "s038" with entities [EventEntity, EventEntity], work=388*
 61: 0x06C6 [0x45] LOAD_SCHEDULED_TASK: Load scheduler "s039" with entities [EventEntity, EventEntity], work=[388*, 0*]
 62: 0x06D7 [0x1A] CALL_SUBROUTINE(address=0x18E3)
 63: 0x06DA [0x1C] WAIT(100* ticks)
 64: 0x06DD [0x66] LOAD_EXT_SCHEDULER_MAIN: Load scheduler "sha1" with entities [Unnamed NPC (ID: 17105608/0x010502C8), Unnamed NPC (ID: 17105608/0x010502C8)], work=39*
 65: 0x06EC [0x53] WAIT_SCHEDULER_TASK: Wait for scheduler "sha1" with entities [Unnamed NPC (ID: 17105608/0x010502C8), Unnamed NPC (ID: 17105608/0x010502C8)]
 66: 0x06F9 [0x1C] WAIT(25* ticks)
 67: 0x06FC [0x4B] UPDATE_ENTITY_YAW(entity=Unnamed NPC (ID: 17105608/0x010502C8), yaw=0.4°*)
 68: 0x0703 [0x6F] WAIT_FRAME_DELAY: Yield until WaitTime reaches zero
 69: 0x0704 [0x76] CHECK_ENTITY_RENDER_FLAGS: Wait until Unnamed NPC (ID: 17105608/0x010502C8) Render.Flags0 and Render.Flags3 conditions are met
 70: 0x0709 [0x1C] WAIT(30* ticks)
 71: 0x070C [0x2B] Nichais (ID: 17105607/0x010502C7) [13579*]:
    → "A pact born of honor, and swearing protection. The Eastdrake thus became the "Mountain's Eye," vowing to give her life in defense of the peak, the warrior, and his line, for all of time."
 72: 0x0713 [0x23] WAIT_FOR_DIALOG_INTERACTION
 73: 0x0714 [0x1C] WAIT(135* ticks)
 74: 0x0717 [0x5D] SET_MUSIC_VOLUME(volume=0*, fade_time=120*)
 75: 0x071C [0x55] WAIT_LOAD_SCHEDULER: Wait for scheduler "s039" with entities [EventEntity, EventEntity], work=388*
 76: 0x072B [0x1A] CALL_SUBROUTINE(address=0x186B)
 77: 0x072E [0x1C] WAIT(15* ticks)
 78: 0x0731 [0xAB] EventEntity->DespawnValue = 0* // Set despawn value
 79: 0x0735 [0x1C] WAIT(1* ticks)
 80: 0x0738 [0x35] LOAD_ZONE_NO_CLOSE(zone_id=80*)
 81: 0x073B [0x78] ENABLE_GAME_TIMER_RESET_WEATHER()
 82: 0x073C [0x1C] WAIT(15* ticks)
 83: 0x073F [0xAB] EventEntity->UnknownFlag = 0 // Disable unknown flag
 84: 0x0741 [0x02] IF !(ExtData[1]->WorkLocal[0] == 0*) GOTO 0x074C
 85: 0x0749 [0x30] SET_UCOFF_CONTINUE_ZERO()
 86: 0x074A [0x21] END_EVENT
 87: 0x074B [0x00] END_REQSTACK()
 88: 0x074C [0x5D] SET_MUSIC_VOLUME(volume=127*, fade_time=120*)
 89: 0x0751 [0x6A] CHANGE_SOUND_VOLUME: Set (Effects/System/Zone)* volume to 999*, fade_time=120*
 90: 0x0758 [0x46] CAMERA_CONTROL: Restore default settings
 91: 0x075A [0x45] LOAD_SCHEDULED_TASK: Load scheduler "fdi2" with entities [LocalPlayer, LocalPlayer], work=[200*, 0*]
 92: 0x076B [0x21] END_EVENT
 93: 0x076C [0x00] END_REQSTACK()
```

### Event 178

#### Metadata

| Field        | Value     |
|--------------|-----------|
| Entrypoint   | 0x076D    |
| Data Size    | 776 bytes |
| Instructions | 100       |

```
      00 01 02 03 04 05 06 07  08 09 0A 0B 0C 0D 0E 0F
      -- -- -- -- -- -- -- --  -- -- -- -- -- -- -- --
0760:                                         42 1A 8C               B..
0770: 18 46 01 38 04 80 6A 00  80 02 80 03 80 4E 00 F0  .F.8..j......N..
0780: FF FF 7F 94 01 F0 FF FF  7F 94 01 C7 02 05 01 92  ................
0790: 01 C7 02 05 01 92 01 F0  01 05 01 92 01 E6 01 05  ................
07A0: 01 92 01 FE 01 05 01 92  01 FF 01 05 01 BA F0 FF  ................
07B0: FF 7F 05 80 06 80 00 80  07 80 BA C6 02 05 01 08  ................
07C0: 80 09 80 0A 80 0B 80 BA  FE 01 05 01 0C 80 0D 80  ................
07D0: 00 80 0E 80 80 F0 FF FF  7F 80 C6 02 05 01 80 F0  ................
07E0: 01 05 01 80 E6 01 05 01  80 C7 02 05 01 80 FE 01  ................
07F0: 05 01 80 FF 01 05 01 4A  F0 FF FF 7F C7 02 05 01  .......J........
0800: 5D 37 80 02 80 5C 00 11  80 5C 01 11 80 9A 45 12  ]7...\...\....E.
0810: 80 F8 FF FF 7F F8 FF FF  7F 73 30 34 33 00 80 1A  .........s043...
0820: BF 18 6A 01 80 02 80 03  80 55 12 80 F8 FF FF 7F  ..j......U......
0830: F8 FF FF 7F 73 30 34 33  45 12 80 F8 FF FF 7F F8  ....s043E.......
0840: FF FF 7F 73 30 34 32 00  80 2B C7 02 05 01 53 80  ...s042..+....S.
0850: 23 52 12 80 F8 FF FF 7F  F8 FF FF 7F 73 30 34 32  #R..........s042
0860: 45 12 80 F8 FF FF 7F F8  FF FF 7F 73 30 34 35 00  E..........s045.
0870: 80 2B C7 02 05 01 54 80  23 66 10 80 C7 02 05 01  .+....T.#f......
0880: C7 02 05 01 74 6C 6B 30  2B C7 02 05 01 55 80 23  ....tlk0+....U.#
0890: 53 C7 02 05 01 C7 02 05  01 74 6C 6B 30 52 12 80  S........tlk0R..
08A0: F8 FF FF 7F F8 FF FF 7F  73 30 34 35 45 12 80 F8  ........s045E...
08B0: FF FF 7F F8 FF FF 7F 73  30 34 34 00 80 2B C7 02  .......s044..+..
08C0: 05 01 56 80 23 55 12 80  F8 FF FF 7F F8 FF FF 7F  ..V.#U..........
08D0: 73 30 34 34 45 12 80 F8  FF FF 7F F8 FF FF 7F 73  s044E..........s
08E0: 31 36 32 00 80 66 10 80  C7 02 05 01 C7 02 05 01  162..f..........
08F0: 74 6C 6B 31 53 C7 02 05  01 C7 02 05 01 74 6C 6B  tlk1S........tlk
0900: 31 4B FE 01 05 01 57 80  27 10 FE 01 05 01 07 1C  1K....W.'.......
0910: 34 80 66 58 80 E6 01 05  01 E6 01 05 01 77 61 76  4.fX.........wav
0920: 30 2B C7 02 05 01 59 80  23 53 C7 02 05 01 C7 02  0+....Y.#S......
0930: 05 01 77 61 76 30 1C 34  80 55 12 80 F8 FF FF 7F  ..wav0.4.U......
0940: F8 FF FF 7F 73 31 36 32  45 12 80 F8 FF FF 7F F8  ....s162E.......
0950: FF FF 7F 73 30 34 36 00  80 7A 00 FE 01 05 01 BA  ...s046..z......
0960: FE 01 05 01 5A 80 5B 80  00 80 5C 80 BA E6 01 05  ....Z.[...\.....
0970: 01 5D 80 5E 80 00 80 5F  80 2B C7 02 05 01 60 80  .].^..._.+....`.
0980: 23 80 E6 01 05 01 80 FE  01 05 01 52 12 80 F8 FF  #..........R....
0990: FF 7F F8 FF FF 7F 73 30  34 36 45 12 80 F8 FF FF  ......s046E.....
09A0: 7F F8 FF FF 7F 73 30 34  37 00 80 1C 03 80 27 10  .....s047.....'.
09B0: C7 02 05 01 11 2A 10 C7  02 05 01 66 10 80 C7 02  .....*.....f....
09C0: 05 01 C7 02 05 01 74 68  6B 31 2B C7 02 05 01 61  ......thk1+....a
09D0: 80 23 53 C7 02 05 01 C7  02 05 01 74 68 6B 31 52  .#S........thk1R
09E0: 12 80 F8 FF FF 7F F8 FF  FF 7F 73 30 34 37 45 12  ..........s047E.
09F0: 80 F8 FF FF 7F F8 FF FF  7F 73 30 39 36 00 80 6B  .........s096..k
0A00: 69 64 6C 30 C7 02 05 01  4B C7 02 05 01 62 80 2B  idl0....K....b.+
0A10: C7 02 05 01 63 80 23 6F  76 C7 02 05 01 66 10 80  ....c.#ov....f..
0A20: C7 02 05 01 C7 02 05 01  74 6C 6B 30 2B C7 02 05  ........tlk0+...
0A30: 01 64 80 23 53 C7 02 05  01 C7 02 05 01 74 6C 6B  .d.#S........tlk
0A40: 30 6E C7 02 05 01 1F 80  99 C7 02 05 01 99 C7 02  0n..............
0A50: 05 01 1C 21 80 1A 8C 18  52 12 80 F8 FF FF 7F F8  ...!....R.......
0A60: FF FF 7F 73 30 39 36 46  00 6A 38 80 02 80 2F 80  ...s096F.j8.../.
0A70: 1A D1 18 21 00                                    ...!.           
```

#### Opcodes

```
  0: 0x076D [0x42] SET_CLI_EVENT_CANCEL_DATA()
  1: 0x076E [0x1A] CALL_SUBROUTINE(address=0x188C)
  2: 0x0771 [0x46] CAMERA_CONTROL: Disable user control
  3: 0x0773 [0x38] SET_CLIENT_EVENT_MODE(mode=19*)
  4: 0x0776 [0x6A] CHANGE_SOUND_VOLUME: Set (Effects/Zone)* volume to 0*, fade_time=120*
  5: 0x077D [0x4E] SET_ENTITY_HIDE_FLAG: Show LocalPlayer
  6: 0x0783 [0x94] LocalPlayer->Render.Flags3 ^= 0x01
  7: 0x0789 [0x94] Nichais (ID: 17105607/0x010502C7)->Render.Flags3 ^= 0x01
  8: 0x078F [0x92] Nichais (ID: 17105607/0x010502C7)->Render.Flags3 ^= 0x01
  9: 0x0795 [0x92] Ysayle (ID: 17105392/0x010501F0)->Render.Flags3 ^= 0x01
 10: 0x079B [0x92] Wyatt (ID: 17105382/0x010501E6)->Render.Flags3 ^= 0x01
 11: 0x07A1 [0x92] Autouria (ID: 17105406/0x010501FE)->Render.Flags3 ^= 0x01
 12: 0x07A7 [0x92] Contie (ID: 17105407/0x010501FF)->Render.Flags3 ^= 0x01
 13: 0x07AD [0xBA] SET_ENTITY_POSITION(entity_id=LocalPlayer, pos_x=133.788*, pos_z=79.188*, pos_y=0.000*, direction=307.5°*)
 14: 0x07BA [0xBA] SET_ENTITY_POSITION(entity_id=Unnamed NPC (ID: 17105606/0x010502C6), pos_x=132.485*, pos_z=80.184*, pos_y=-0.015*, direction=321.2°*)
 15: 0x07C7 [0xBA] SET_ENTITY_POSITION(entity_id=Autouria (ID: 17105406/0x010501FE), pos_x=124.080*, pos_z=83.053*, pos_y=0.000*, direction=175.8°*)
 16: 0x07D4 [0x80] LOAD_WAIT(entity=LocalPlayer)
 17: 0x07D9 [0x80] LOAD_WAIT(entity=Unnamed NPC (ID: 17105606/0x010502C6))
 18: 0x07DE [0x80] LOAD_WAIT(entity=Ysayle (ID: 17105392/0x010501F0))
 19: 0x07E3 [0x80] LOAD_WAIT(entity=Wyatt (ID: 17105382/0x010501E6))
 20: 0x07E8 [0x80] LOAD_WAIT(entity=Nichais (ID: 17105607/0x010502C7))
 21: 0x07ED [0x80] LOAD_WAIT(entity=Autouria (ID: 17105406/0x010501FE))
 22: 0x07F2 [0x80] LOAD_WAIT(entity=Contie (ID: 17105407/0x010501FF))
 23: 0x07F7 [0x4A] LocalPlayer looks at Nichais (ID: 17105607/0x010502C7)
 24: 0x0800 [0x5D] SET_MUSIC_VOLUME(volume=127*, fade_time=120*)
 25: 0x0805 [0x5C] MUSIC_CONTROL: Set Idle (Day) music to song 254*
 26: 0x0809 [0x5C] MUSIC_CONTROL: Set Idle (Night) music to song 254*
 27: 0x080D [0x9A] WAIT_MUSIC_SERVER()
 28: 0x080E [0x45] LOAD_SCHEDULED_TASK: Load scheduler "s043" with entities [EventEntity, EventEntity], work=[388*, 0*]
 29: 0x081F [0x1A] CALL_SUBROUTINE(address=0x18BF)
 30: 0x0822 [0x6A] CHANGE_SOUND_VOLUME: Set (Effects/Zone)* volume to 300*, fade_time=120*
 31: 0x0829 [0x55] WAIT_LOAD_SCHEDULER: Wait for scheduler "s043" with entities [EventEntity, EventEntity], work=388*
 32: 0x0838 [0x45] LOAD_SCHEDULED_TASK: Load scheduler "s042" with entities [EventEntity, EventEntity], work=[388*, 0*]
 33: 0x0849 [0x2B] Nichais (ID: 17105607/0x010502C7) [13580*]:
    → "I have since been to Grauberg to bear witness for myself. The only vestiges now left of this ancient tradition are the scattered Elvaan settlements which still hold true to the cult of the great wyrm."
 34: 0x0850 [0x23] WAIT_FOR_DIALOG_INTERACTION
 35: 0x0851 [0x52] END_LOAD_SCHEDULER: End scheduler "s042" with entities [EventEntity, EventEntity], work=388*
 36: 0x0860 [0x45] LOAD_SCHEDULED_TASK: Load scheduler "s045" with entities [EventEntity, EventEntity], work=[388*, 0*]
 37: 0x0871 [0x2B] Nichais (ID: 17105607/0x010502C7) [13581*]:
    → "Even so, the mere thought of a wyrm what takes on the shape of an Elvaan maiden... Surely the stuff of fairy tales. Until now, most all of the pundits here in the capital who occupy themselves with the study of such topics, myself included, had simply written the entire account off as a mummer's farce. Or at the very best, an anachronistic myth."
 38: 0x0878 [0x23] WAIT_FOR_DIALOG_INTERACTION
 39: 0x0879 [0x66] LOAD_EXT_SCHEDULER_MAIN: Load scheduler "tlk0" with entities [Nichais (ID: 17105607/0x010502C7), Nichais (ID: 17105607/0x010502C7)], work=29*
 40: 0x0888 [0x2B] Nichais (ID: 17105607/0x010502C7) [13582*]:
    → "But something has happened recently which has given me cause to reconsider my views."
 41: 0x088F [0x23] WAIT_FOR_DIALOG_INTERACTION
 42: 0x0890 [0x53] WAIT_SCHEDULER_TASK: Wait for scheduler "tlk0" with entities [Nichais (ID: 17105607/0x010502C7), Nichais (ID: 17105607/0x010502C7)]
 43: 0x089D [0x52] END_LOAD_SCHEDULER: End scheduler "s045" with entities [EventEntity, EventEntity], work=388*
 44: 0x08AC [0x45] LOAD_SCHEDULED_TASK: Load scheduler "s044" with entities [EventEntity, EventEntity], work=[388*, 0*]
 45: 0x08BD [0x2B] Nichais (ID: 17105607/0x010502C7) [13583*]:
    → "Soldiers of our own Allied Forces returning from campaigns in Grauberg bring back most intriguing tales! Eyewitness accounts of an enormous dragon in the region!"
 46: 0x08C4 [0x23] WAIT_FOR_DIALOG_INTERACTION
 47: 0x08C5 [0x55] WAIT_LOAD_SCHEDULER: Wait for scheduler "s044" with entities [EventEntity, EventEntity], work=388*
 48: 0x08D4 [0x45] LOAD_SCHEDULED_TASK: Load scheduler "s162" with entities [EventEntity, EventEntity], work=[388*, 0*]
 49: 0x08E5 [0x66] LOAD_EXT_SCHEDULER_MAIN: Load scheduler "tlk1" with entities [Nichais (ID: 17105607/0x010502C7), Nichais (ID: 17105607/0x010502C7)], work=29*
 50: 0x08F4 [0x53] WAIT_SCHEDULER_TASK: Wait for scheduler "tlk1" with entities [Nichais (ID: 17105607/0x010502C7), Nichais (ID: 17105607/0x010502C7)]
 51: 0x0901 [0x4B] UPDATE_ENTITY_YAW(entity=Autouria (ID: 17105406/0x010501FE), yaw=3.8°*)
 52: 0x0908 [0x27] REQ_SET(priority=0x10, entity_id=Autouria (ID: 17105406/0x010501FE), tag_num=0x07)
 53: 0x090F [0x1C] WAIT(20* ticks)
 54: 0x0912 [0x66] LOAD_EXT_SCHEDULER_MAIN: Load scheduler "wav0" with entities [Wyatt (ID: 17105382/0x010501E6), Wyatt (ID: 17105382/0x010501E6)], work=3*
 55: 0x0921 [0x2B] Nichais (ID: 17105607/0x010502C7) [13584*]:
    → "Upon hearing this, my thoughts went immediately to the legend of the Mountain's Eye, and my hope of proving the myth was rekindled."
 56: 0x0928 [0x23] WAIT_FOR_DIALOG_INTERACTION
 57: 0x0929 [0x53] WAIT_SCHEDULER_TASK: Wait for scheduler "wav0" with entities [Nichais (ID: 17105607/0x010502C7), Nichais (ID: 17105607/0x010502C7)]
 58: 0x0936 [0x1C] WAIT(20* ticks)
 59: 0x0939 [0x55] WAIT_LOAD_SCHEDULER: Wait for scheduler "s162" with entities [EventEntity, EventEntity], work=388*
 60: 0x0948 [0x45] LOAD_SCHEDULED_TASK: Load scheduler "s046" with entities [EventEntity, EventEntity], work=[388*, 0*]
 61: 0x0959 [0x7A] VM_CONTROL: Reset VM for Autouria (ID: 17105406/0x010501FE)
 62: 0x095F [0xBA] SET_ENTITY_POSITION(entity_id=Autouria (ID: 17105406/0x010501FE), pos_x=139.219*, pos_z=56.816*, pos_y=0.000*, direction=229.5°*)
 63: 0x096C [0xBA] SET_ENTITY_POSITION(entity_id=Wyatt (ID: 17105382/0x010501E6), pos_x=124.017*, pos_z=84.169*, pos_y=0.000*, direction=49.9°*)
 64: 0x0979 [0x2B] Nichais (ID: 17105607/0x010502C7) [13585*]:
    → "And so we come to my present dilemma. Please forgive the brevity of my synopsis, but you must admit it is a rather intriguing story, yes?"
 65: 0x0980 [0x23] WAIT_FOR_DIALOG_INTERACTION
 66: 0x0981 [0x80] LOAD_WAIT(entity=Wyatt (ID: 17105382/0x010501E6))
 67: 0x0986 [0x80] LOAD_WAIT(entity=Autouria (ID: 17105406/0x010501FE))
 68: 0x098B [0x52] END_LOAD_SCHEDULER: End scheduler "s046" with entities [EventEntity, EventEntity], work=388*
 69: 0x099A [0x45] LOAD_SCHEDULED_TASK: Load scheduler "s047" with entities [EventEntity, EventEntity], work=[388*, 0*]
 70: 0x09AB [0x1C] WAIT(5* ticks)
 71: 0x09AE [0x27] REQ_SET(priority=0x10, entity_id=Nichais (ID: 17105607/0x010502C7), tag_num=0x11)
 72: 0x09B5 [0x2A] GET_REQ_LEVEL(level=16, entity_id=Nichais (ID: 17105607/0x010502C7))
 73: 0x09BB [0x66] LOAD_EXT_SCHEDULER_MAIN: Load scheduler "thk1" with entities [Nichais (ID: 17105607/0x010502C7), Nichais (ID: 17105607/0x010502C7)], work=29*
 74: 0x09CA [0x2B] Nichais (ID: 17105607/0x010502C7) [13586*]:
    → "I cannot help but wonder whether or not there is some way of confirming if this wyrm actually exists. And if so, could it truly be the Mountain's Eye of which the legends speak? The "wyrm who walks as an Elvaan," as the books say?"
 75: 0x09D1 [0x23] WAIT_FOR_DIALOG_INTERACTION
 76: 0x09D2 [0x53] WAIT_SCHEDULER_TASK: Wait for scheduler "thk1" with entities [Nichais (ID: 17105607/0x010502C7), Nichais (ID: 17105607/0x010502C7)]
 77: 0x09DF [0x52] END_LOAD_SCHEDULER: End scheduler "s047" with entities [EventEntity, EventEntity], work=388*
 78: 0x09EE [0x45] LOAD_SCHEDULED_TASK: Load scheduler "s096" with entities [EventEntity, EventEntity], work=[388*, 0*]
 79: 0x09FF [0x6B] STOP_AND_IDLE: Nichais (ID: 17105607/0x010502C7) stops current action and resets to idle (animation="idl0")
 80: 0x0A08 [0x4B] UPDATE_ENTITY_YAW(entity=Nichais (ID: 17105607/0x010502C7), yaw=5.5°*)
 81: 0x0A0F [0x2B] Nichais (ID: 17105607/0x010502C7) [13587*]:
    → "I implore you, if your travels ever happen to take you within the vicinity of Grauberg, would you mind investigating the premises for me?"
 82: 0x0A16 [0x23] WAIT_FOR_DIALOG_INTERACTION
 83: 0x0A17 [0x6F] WAIT_FRAME_DELAY: Yield until WaitTime reaches zero
 84: 0x0A18 [0x76] CHECK_ENTITY_RENDER_FLAGS: Wait until Nichais (ID: 17105607/0x010502C7) Render.Flags0 and Render.Flags3 conditions are met
 85: 0x0A1D [0x66] LOAD_EXT_SCHEDULER_MAIN: Load scheduler "tlk0" with entities [Nichais (ID: 17105607/0x010502C7), Nichais (ID: 17105607/0x010502C7)], work=29*
 86: 0x0A2C [0x2B] Nichais (ID: 17105607/0x010502C7) [13588*]:
    → "I would forever be in your debt, <Player>."
 87: 0x0A33 [0x23] WAIT_FOR_DIALOG_INTERACTION
 88: 0x0A34 [0x53] WAIT_SCHEDULER_TASK: Wait for scheduler "tlk0" with entities [Nichais (ID: 17105607/0x010502C7), Nichais (ID: 17105607/0x010502C7)]
 89: 0x0A41 [0x6E] Nichais (ID: 17105607/0x010502C7) uses emote 1*
 90: 0x0A48 [0x99] Wait for Nichais (ID: 17105607/0x010502C7) animation to complete
 91: 0x0A4D [0x99] Wait for Nichais (ID: 17105607/0x010502C7) animation to complete
 92: 0x0A52 [0x1C] WAIT(75* ticks)
 93: 0x0A55 [0x1A] CALL_SUBROUTINE(address=0x188C)
 94: 0x0A58 [0x52] END_LOAD_SCHEDULER: End scheduler "s096" with entities [EventEntity, EventEntity], work=388*
 95: 0x0A67 [0x46] CAMERA_CONTROL: Restore default settings
 96: 0x0A69 [0x6A] CHANGE_SOUND_VOLUME: Set (Effects/System/Zone)* volume to 999*, fade_time=120*
 97: 0x0A70 [0x1A] CALL_SUBROUTINE(address=0x18D1)
 98: 0x0A73 [0x21] END_EVENT
 99: 0x0A74 [0x00] END_REQSTACK()
```

### Event 73

#### Metadata

| Field        | Value     |
|--------------|-----------|
| Entrypoint   | 0x0A75    |
| Data Size    | 483 bytes |
| Instructions | 81        |

```
      00 01 02 03 04 05 06 07  08 09 0A 0B 0C 0D 0E 0F
      -- -- -- -- -- -- -- --  -- -- -- -- -- -- -- --
0A70:                42 6A 01  80 02 80 03 80 1A 8C 18       Bj.........
0A80: 46 01 38 04 80 03 00 00  09 10 94 01 F0 FF FF 7F  F.8.............
0A90: 94 01 C7 02 05 01 92 01  C7 02 05 01 92 01 F0 01  ................
0AA0: 05 01 92 01 E6 01 05 01  92 01 FE 01 05 01 92 01  ................
0AB0: FF 01 05 01 BA F0 FF FF  7F 65 80 66 80 00 80 67  .........e.f...g
0AC0: 80 80 F0 FF FF 7F 80 F0  01 05 01 80 E6 01 05 01  ................
0AD0: 80 FE 01 05 01 80 FF 01  05 01 80 C7 02 05 01 4B  ...............K
0AE0: C7 02 05 01 68 80 6F 76  C7 02 05 01 5C 00 11 80  ....h.ov....\...
0AF0: 5C 01 11 80 9A 45 12 80  F8 FF FF 7F F8 FF FF 7F  \....E..........
0B00: 73 30 34 39 00 80 1A D1  18 1C 69 80 2B C7 02 05  s049......i.+...
0B10: 01 6A 80 23 6E C7 02 05  01 1F 80 99 C7 02 05 01  .j.#n...........
0B20: 2B C7 02 05 01 6B 80 23  99 C7 02 05 01 1C 22 80  +....k.#......".
0B30: 52 12 80 F8 FF FF 7F F8  FF FF 7F 73 30 34 39 45  R..........s049E
0B40: 12 80 F8 FF FF 7F F8 FF  FF 7F 73 30 34 38 00 80  ..........s048..
0B50: 2B C7 02 05 01 6C 80 23  52 12 80 F8 FF FF 7F F8  +....l.#R.......
0B60: FF FF 7F 73 30 34 38 45  12 80 F8 FF FF 7F F8 FF  ...s048E........
0B70: FF 7F 73 30 35 30 00 80  27 10 C7 02 05 01 12 1C  ..s050..'.......
0B80: 6D 80 52 12 80 F8 FF FF  7F F8 FF FF 7F 73 30 35  m.R..........s05
0B90: 30 2A 10 C7 02 05 01 4A  F0 FF FF 7F C7 02 05 01  0*.....J........
0BA0: 6F 76 F0 FF FF 7F 2B C7  02 05 01 6E 80 23 45 12  ov....+....n.#E.
0BB0: 80 F8 FF FF 7F F8 FF FF  7F 73 30 35 36 00 80 4B  .........s056..K
0BC0: C7 02 05 01 6F 80 6F 76  C7 02 05 01 2B C7 02 05  ....o.ov....+...
0BD0: 01 70 80 23 66 10 80 C7  02 05 01 C7 02 05 01 74  .p.#f..........t
0BE0: 6C 6B 30 2B C7 02 05 01  71 80 23 53 C7 02 05 01  lk0+....q.#S....
0BF0: C7 02 05 01 74 6C 6B 30  5D 00 80 72 80 1C 72 80  ....tlk0]..r..r.
0C00: 52 12 80 F8 FF FF 7F F8  FF FF 7F 73 30 35 36 1A  R..........s056.
0C10: 6B 18 6A 00 80 02 80 03  80 6B 69 64 6C 30 C7 02  k.j......kidl0..
0C20: 05 01 1C 0F 80 AB 11 00  80 1C 1F 80 02 00 00 00  ................
0C30: 80 00 37 0C 30 21 00 5D  37 80 02 80 6A 38 80 02  ..7.0!.]7...j8..
0C40: 80 2F 80 46 00 45 39 80  F0 FF FF 7F F0 FF FF 7F  ./.F.E9.........
0C50: 66 64 69 32 00 80 21 00                           fdi2..!.        
```

#### Opcodes

```
  0: 0x0A75 [0x42] SET_CLI_EVENT_CANCEL_DATA()
  1: 0x0A76 [0x6A] CHANGE_SOUND_VOLUME: Set (Effects/Zone)* volume to 300*, fade_time=120*
  2: 0x0A7D [0x1A] CALL_SUBROUTINE(address=0x188C)
  3: 0x0A80 [0x46] CAMERA_CONTROL: Disable user control
  4: 0x0A82 [0x38] SET_CLIENT_EVENT_MODE(mode=19*)
  5: 0x0A85 [0x03] ExtData[1]->WorkLocal[0] = Work_Zone[9]
  6: 0x0A8A [0x94] LocalPlayer->Render.Flags3 ^= 0x01
  7: 0x0A90 [0x94] Nichais (ID: 17105607/0x010502C7)->Render.Flags3 ^= 0x01
  8: 0x0A96 [0x92] Nichais (ID: 17105607/0x010502C7)->Render.Flags3 ^= 0x01
  9: 0x0A9C [0x92] Ysayle (ID: 17105392/0x010501F0)->Render.Flags3 ^= 0x01
 10: 0x0AA2 [0x92] Wyatt (ID: 17105382/0x010501E6)->Render.Flags3 ^= 0x01
 11: 0x0AA8 [0x92] Autouria (ID: 17105406/0x010501FE)->Render.Flags3 ^= 0x01
 12: 0x0AAE [0x92] Contie (ID: 17105407/0x010501FF)->Render.Flags3 ^= 0x01
 13: 0x0AB4 [0xBA] SET_ENTITY_POSITION(entity_id=LocalPlayer, pos_x=130.779*, pos_z=80.934*, pos_y=0.000*, direction=19.8°*)
 14: 0x0AC1 [0x80] LOAD_WAIT(entity=LocalPlayer)
 15: 0x0AC6 [0x80] LOAD_WAIT(entity=Ysayle (ID: 17105392/0x010501F0))
 16: 0x0ACB [0x80] LOAD_WAIT(entity=Wyatt (ID: 17105382/0x010501E6))
 17: 0x0AD0 [0x80] LOAD_WAIT(entity=Autouria (ID: 17105406/0x010501FE))
 18: 0x0AD5 [0x80] LOAD_WAIT(entity=Contie (ID: 17105407/0x010501FF))
 19: 0x0ADA [0x80] LOAD_WAIT(entity=Nichais (ID: 17105607/0x010502C7))
 20: 0x0ADF [0x4B] UPDATE_ENTITY_YAW(entity=Nichais (ID: 17105607/0x010502C7), yaw=11.4°*)
 21: 0x0AE6 [0x6F] WAIT_FRAME_DELAY: Yield until WaitTime reaches zero
 22: 0x0AE7 [0x76] CHECK_ENTITY_RENDER_FLAGS: Wait until Nichais (ID: 17105607/0x010502C7) Render.Flags0 and Render.Flags3 conditions are met
 23: 0x0AEC [0x5C] MUSIC_CONTROL: Set Idle (Day) music to song 254*
 24: 0x0AF0 [0x5C] MUSIC_CONTROL: Set Idle (Night) music to song 254*
 25: 0x0AF4 [0x9A] WAIT_MUSIC_SERVER()
 26: 0x0AF5 [0x45] LOAD_SCHEDULED_TASK: Load scheduler "s049" with entities [EventEntity, EventEntity], work=[388*, 0*]
 27: 0x0B06 [0x1A] CALL_SUBROUTINE(address=0x18D1)
 28: 0x0B09 [0x1C] WAIT(45* ticks)
 29: 0x0B0C [0x2B] Nichais (ID: 17105607/0x010502C7) [13589*]:
    → "<Player>! How very good to see you again!"
 30: 0x0B13 [0x23] WAIT_FOR_DIALOG_INTERACTION
 31: 0x0B14 [0x6E] Nichais (ID: 17105607/0x010502C7) uses emote 1*
 32: 0x0B1B [0x99] Wait for Nichais (ID: 17105607/0x010502C7) animation to complete
 33: 0x0B20 [0x2B] Nichais (ID: 17105607/0x010502C7) [13590*]:
    → "I truly hope you can forgive my abrupt parting back in Grauberg. But it was not without good reason that I felt the need to return to the city's walls at once, I promise you."
 34: 0x0B27 [0x23] WAIT_FOR_DIALOG_INTERACTION
 35: 0x0B28 [0x99] Wait for Nichais (ID: 17105607/0x010502C7) animation to complete
 36: 0x0B2D [0x1C] WAIT(25* ticks)
 37: 0x0B30 [0x52] END_LOAD_SCHEDULER: End scheduler "s049" with entities [EventEntity, EventEntity], work=388*
 38: 0x0B3F [0x45] LOAD_SCHEDULED_TASK: Load scheduler "s048" with entities [EventEntity, EventEntity], work=[388*, 0*]
 39: 0x0B50 [0x2B] Nichais (ID: 17105607/0x010502C7) [13591*]:
    → "It concerns the wyrm we saw taking flight, and the young girl those hooded callers were referring to as "Areuhat.""
 40: 0x0B57 [0x23] WAIT_FOR_DIALOG_INTERACTION
 41: 0x0B58 [0x52] END_LOAD_SCHEDULER: End scheduler "s048" with entities [EventEntity, EventEntity], work=388*
 42: 0x0B67 [0x45] LOAD_SCHEDULED_TASK: Load scheduler "s050" with entities [EventEntity, EventEntity], work=[388*, 0*]
 43: 0x0B78 [0x27] REQ_SET(priority=0x10, entity_id=Nichais (ID: 17105607/0x010502C7), tag_num=0x12)
 44: 0x0B7F [0x1C] WAIT(170* ticks)
 45: 0x0B82 [0x52] END_LOAD_SCHEDULER: End scheduler "s050" with entities [EventEntity, EventEntity], work=388*
 46: 0x0B91 [0x2A] GET_REQ_LEVEL(level=16, entity_id=Nichais (ID: 17105607/0x010502C7))
 47: 0x0B97 [0x4A] LocalPlayer looks at Nichais (ID: 17105607/0x010502C7)
 48: 0x0BA0 [0x6F] WAIT_FRAME_DELAY: Yield until WaitTime reaches zero
 49: 0x0BA1 [0x76] CHECK_ENTITY_RENDER_FLAGS: Wait until LocalPlayer Render.Flags0 and Render.Flags3 conditions are met
 50: 0x0BA6 [0x2B] Nichais (ID: 17105607/0x010502C7) [13592*]:
    → "I gather that your powers of reason are sound enough to reach the obvious conclusion."
 51: 0x0BAD [0x23] WAIT_FOR_DIALOG_INTERACTION
 52: 0x0BAE [0x45] LOAD_SCHEDULED_TASK: Load scheduler "s056" with entities [EventEntity, EventEntity], work=[388*, 0*]
 53: 0x0BBF [0x4B] UPDATE_ENTITY_YAW(entity=Nichais (ID: 17105607/0x010502C7), yaw=16.4°*)
 54: 0x0BC6 [0x6F] WAIT_FRAME_DELAY: Yield until WaitTime reaches zero
 55: 0x0BC7 [0x76] CHECK_ENTITY_RENDER_FLAGS: Wait until Nichais (ID: 17105607/0x010502C7) Render.Flags0 and Render.Flags3 conditions are met
 56: 0x0BCC [0x2B] Nichais (ID: 17105607/0x010502C7) [13593*]:
    → "Yes, I can now state without the slightest doubt that the creature we saw was indeed the Mountain's Eye of Grauberg! And the young Elvaan maiden named Areuhat, none other than the same wyrm in its mortal guise!"
 57: 0x0BD3 [0x23] WAIT_FOR_DIALOG_INTERACTION
 58: 0x0BD4 [0x66] LOAD_EXT_SCHEDULER_MAIN: Load scheduler "tlk0" with entities [Nichais (ID: 17105607/0x010502C7), Nichais (ID: 17105607/0x010502C7)], work=29*
 59: 0x0BE3 [0x2B] Nichais (ID: 17105607/0x010502C7) [13594*]:
    → "According to the recorded legends which I have been poring over..."
 60: 0x0BEA [0x23] WAIT_FOR_DIALOG_INTERACTION
 61: 0x0BEB [0x53] WAIT_SCHEDULER_TASK: Wait for scheduler "tlk0" with entities [Nichais (ID: 17105607/0x010502C7), Nichais (ID: 17105607/0x010502C7)]
 62: 0x0BF8 [0x5D] SET_MUSIC_VOLUME(volume=0*, fade_time=150*)
 63: 0x0BFD [0x1C] WAIT(150* ticks)
 64: 0x0C00 [0x52] END_LOAD_SCHEDULER: End scheduler "s056" with entities [EventEntity, EventEntity], work=388*
 65: 0x0C0F [0x1A] CALL_SUBROUTINE(address=0x186B)
 66: 0x0C12 [0x6A] CHANGE_SOUND_VOLUME: Set (Effects/Zone)* volume to 0*, fade_time=120*
 67: 0x0C19 [0x6B] STOP_AND_IDLE: Nichais (ID: 17105607/0x010502C7) stops current action and resets to idle (animation="idl0")
 68: 0x0C22 [0x1C] WAIT(15* ticks)
 69: 0x0C25 [0xAB] EventEntity->DespawnValue = 0* // Set despawn value
 70: 0x0C29 [0x1C] WAIT(1* ticks)
 71: 0x0C2C [0x02] IF !(ExtData[1]->WorkLocal[0] == 0*) GOTO 0x0C37
 72: 0x0C34 [0x30] SET_UCOFF_CONTINUE_ZERO()
 73: 0x0C35 [0x21] END_EVENT
 74: 0x0C36 [0x00] END_REQSTACK()
 75: 0x0C37 [0x5D] SET_MUSIC_VOLUME(volume=127*, fade_time=120*)
 76: 0x0C3C [0x6A] CHANGE_SOUND_VOLUME: Set (Effects/System/Zone)* volume to 999*, fade_time=120*
 77: 0x0C43 [0x46] CAMERA_CONTROL: Restore default settings
 78: 0x0C45 [0x45] LOAD_SCHEDULED_TASK: Load scheduler "fdi2" with entities [LocalPlayer, LocalPlayer], work=[200*, 0*]
 79: 0x0C56 [0x21] END_EVENT
 80: 0x0C57 [0x00] END_REQSTACK()
```

### Event 179

#### Metadata

| Field        | Value     |
|--------------|-----------|
| Entrypoint   | 0x0C58    |
| Data Size    | 499 bytes |
| Instructions | 85        |

```
      00 01 02 03 04 05 06 07  08 09 0A 0B 0C 0D 0E 0F
      -- -- -- -- -- -- -- --  -- -- -- -- -- -- -- --
0C50:                          42 6A 01 80 02 80 03 80          Bj......
0C60: 1A 8C 18 46 01 38 04 80  43 00 43 01 03 00 00 09  ...F.8..C.C.....
0C70: 10 34 3B 80 AB 09 77 3C  80 1F 80 1C 1F 80 2F 00  .4;...w<....../.
0C80: C9 02 05 01 2F 00 C8 02  05 01 29 10 C9 02 05 01  ..../.....).....
0C90: 04 6B 31 74 6C 30 C9 02  05 01 4E 00 C9 02 05 01  .k1tl0....N.....
0CA0: 4E 00 C8 02 05 01 92 01  C9 02 05 01 92 01 C8 02  N...............
0CB0: 05 01 BA C9 02 05 01 73  80 74 80 75 80 76 80 BA  .......s.t.u.v..
0CC0: C8 02 05 01 77 80 78 80  79 80 7A 80 94 01 C9 02  ....w.x.y.z.....
0CD0: 05 01 94 01 C8 02 05 01  80 C9 02 05 01 80 C8 02  ................
0CE0: 05 01 1C 0F 80 5C 00 3A  80 5C 01 3A 80 9A 45 12  .....\.:.\.:..E.
0CF0: 80 F8 FF FF 7F F8 FF FF  7F 73 30 35 33 00 80 1A  .........s053...
0D00: E3 18 1C 7B 80 52 12 80  F8 FF FF 7F F8 FF FF 7F  ...{.R..........
0D10: 73 30 35 33 45 12 80 F8  FF FF 7F F8 FF FF 7F 73  s053E..........s
0D20: 31 35 37 00 80 1C 2A 80  2B C7 02 05 01 7C 80 23  157...*.+....|.#
0D30: 1C 16 80 52 12 80 F8 FF  FF 7F F8 FF FF 7F 73 31  ...R..........s1
0D40: 35 37 1A 4A 18 45 12 80  F8 FF FF 7F F8 FF FF 7F  57.J.E..........
0D50: 73 30 35 34 00 80 1A E3  18 2B C7 02 05 01 7D 80  s054.....+....}.
0D60: 23 1C 21 80 2B C7 02 05  01 7E 80 23 1C 02 80 27  #.!.+....~.#...'
0D70: 10 C9 02 05 01 06 1C 0F  80 52 12 80 F8 FF FF 7F  .........R......
0D80: F8 FF FF 7F 73 30 35 34  45 12 80 F8 FF FF 7F F8  ....s054E.......
0D90: FF FF 7F 73 31 36 39 00  80 1C 7F 80 7A 00 C9 02  ...s169.....z...
0DA0: 05 01 BA C9 02 05 01 80  80 81 80 82 80 83 80 27  ...............'
0DB0: 10 C9 02 05 01 07 1C 22  80 52 12 80 F8 FF FF 7F  .......".R......
0DC0: F8 FF FF 7F 73 31 36 39  45 12 80 F8 FF FF 7F F8  ....s169E.......
0DD0: FF FF 7F 73 30 35 35 00  80 2B C7 02 05 01 84 80  ...s055..+......
0DE0: 1C 6D 80 52 12 80 F8 FF  FF 7F F8 FF FF 7F 30 35  .m.R..........05
0DF0: 35 00 1A 4A 18 1C 02 80  5D 00 80 72 80 2A 10 C9  5..J....]..r.*..
0E00: 02 05 01 6A 01 80 02 80  03 80 29 10 C9 02 05 01  ...j......).....
0E10: 05 1C 0F 80 AB 11 00 80  1C 1F 80 35 52 80 78 1C  ...........5R.x.
0E20: 0F 80 AB 0A 02 00 00 00  80 00 2F 0E 30 21 00 6A  ........../.0!.j
0E30: 38 80 02 80 2F 80 46 00  45 39 80 F0 FF FF 7F F0  8.../.F.E9......
0E40: FF FF 7F 66 64 69 32 00  80 21 00                 ...fdi2..!.     
```

#### Opcodes

```
  0: 0x0C58 [0x42] SET_CLI_EVENT_CANCEL_DATA()
  1: 0x0C59 [0x6A] CHANGE_SOUND_VOLUME: Set (Effects/Zone)* volume to 300*, fade_time=120*
  2: 0x0C60 [0x1A] CALL_SUBROUTINE(address=0x188C)
  3: 0x0C63 [0x46] CAMERA_CONTROL: Disable user control
  4: 0x0C65 [0x38] SET_CLIENT_EVENT_MODE(mode=19*)
  5: 0x0C68 [0x43] SEND_EVENT_UPDATE: Send pending tag to server (packet 0x005B)
  6: 0x0C6A [0x43] SEND_EVENT_UPDATE: Check pending flag (skip if not pending)
  7: 0x0C6C [0x03] ExtData[1]->WorkLocal[0] = Work_Zone[9]
  8: 0x0C71 [0x34] LOAD_UNLOAD_ZONE(zone_id=89*)
  9: 0x0C74 [0xAB] EventEntity->UnknownFlag = 1 // Enable unknown flag
 10: 0x0C76 [0x77] SET_EVENT_TIME_WEATHER(hour=17*, weather=1*)
 11: 0x0C7B [0x1C] WAIT(1* ticks)
 12: 0x0C7E [0x2F] Unnamed NPC (ID: 17105609/0x010502C9)->Render.Flags0 &= ~0x80000 // Bit 19
 13: 0x0C84 [0x2F] Unnamed NPC (ID: 17105608/0x010502C8)->Render.Flags0 &= ~0x80000 // Bit 19
 14: 0x0C8A [0x29] REQ_SET_WAIT(priority=0x10, entity_id=Unnamed NPC (ID: 17105609/0x010502C9), tag_num=0x04)
 15: 0x0C91 [0x6B] STOP_AND_IDLE: Unnamed NPC (ID: 17105609/0x010502C9) stops current action and resets to idle (animation="1tl0")
 16: 0x0C9A [0x4E] SET_ENTITY_HIDE_FLAG: Show Unnamed NPC (ID: 17105609/0x010502C9)
 17: 0x0CA0 [0x4E] SET_ENTITY_HIDE_FLAG: Show Unnamed NPC (ID: 17105608/0x010502C8)
 18: 0x0CA6 [0x92] Unnamed NPC (ID: 17105609/0x010502C9)->Render.Flags3 ^= 0x01
 19: 0x0CAC [0x92] Unnamed NPC (ID: 17105608/0x010502C8)->Render.Flags3 ^= 0x01
 20: 0x0CB2 [0xBA] SET_ENTITY_POSITION(entity_id=Unnamed NPC (ID: 17105609/0x010502C9), pos_x=-159.548*, pos_z=-342.456*, pos_y=-40.679*, direction=315.5°*)
 21: 0x0CBF [0xBA] SET_ENTITY_POSITION(entity_id=Unnamed NPC (ID: 17105608/0x010502C8), pos_x=-525.371*, pos_z=227.250*, pos_y=-171.095*, direction=263.7°*)
 22: 0x0CCC [0x94] Unnamed NPC (ID: 17105609/0x010502C9)->Render.Flags3 ^= 0x01
 23: 0x0CD2 [0x94] Unnamed NPC (ID: 17105608/0x010502C8)->Render.Flags3 ^= 0x01
 24: 0x0CD8 [0x80] LOAD_WAIT(entity=Unnamed NPC (ID: 17105609/0x010502C9))
 25: 0x0CDD [0x80] LOAD_WAIT(entity=Unnamed NPC (ID: 17105608/0x010502C8))
 26: 0x0CE2 [0x1C] WAIT(15* ticks)
 27: 0x0CE5 [0x5C] MUSIC_CONTROL: Set Idle (Day) music to song 122*
 28: 0x0CE9 [0x5C] MUSIC_CONTROL: Set Idle (Night) music to song 122*
 29: 0x0CED [0x9A] WAIT_MUSIC_SERVER()
 30: 0x0CEE [0x45] LOAD_SCHEDULED_TASK: Load scheduler "s053" with entities [EventEntity, EventEntity], work=[388*, 0*]
 31: 0x0CFF [0x1A] CALL_SUBROUTINE(address=0x18E3)
 32: 0x0D02 [0x1C] WAIT(190* ticks)
 33: 0x0D05 [0x52] END_LOAD_SCHEDULER: End scheduler "s053" with entities [EventEntity, EventEntity], work=388*
 34: 0x0D14 [0x45] LOAD_SCHEDULED_TASK: Load scheduler "s157" with entities [EventEntity, EventEntity], work=[388*, 0*]
 35: 0x0D25 [0x1C] WAIT(60* ticks)
 36: 0x0D28 [0x2B] Nichais (ID: 17105607/0x010502C7) [13595*]:
    → "Her supplicants had dubbed her Odzmanouk, which for whatever reason she found to be too harsh for her liking. Instead, she insisted that her followers refer to her as Areuhat, and Areuhat alone, and so it was."
 37: 0x0D2F [0x23] WAIT_FOR_DIALOG_INTERACTION
 38: 0x0D30 [0x1C] WAIT(90* ticks)
 39: 0x0D33 [0x52] END_LOAD_SCHEDULER: End scheduler "s157" with entities [EventEntity, EventEntity], work=388*
 40: 0x0D42 [0x1A] CALL_SUBROUTINE(address=0x184A)
 41: 0x0D45 [0x45] LOAD_SCHEDULED_TASK: Load scheduler "s054" with entities [EventEntity, EventEntity], work=[388*, 0*]
 42: 0x0D56 [0x1A] CALL_SUBROUTINE(address=0x18E3)
 43: 0x0D59 [0x2B] Nichais (ID: 17105607/0x010502C7) [13596*]:
    → "All of the signs I took note of back in Grauberg I have confirmed here in the annals. The angel-like hair with its platinum brilliance, the ornate eastern fineries and garments, the manner of speech. And that unmistakable Elvaan maiden..."
 44: 0x0D60 [0x23] WAIT_FOR_DIALOG_INTERACTION
 45: 0x0D61 [0x1C] WAIT(75* ticks)
 46: 0x0D64 [0x2B] Nichais (ID: 17105607/0x010502C7) [13597*]:
    → "I concede it is a bit much to absorb all at once, and perhaps difficult to believe. But as you well saw for yourself, the splendor that being possessed was nothing short of a bona fide deity. Never before have I witnessed such radiance, nor felt such presence."
 47: 0x0D6B [0x23] WAIT_FOR_DIALOG_INTERACTION
 48: 0x0D6C [0x1C] WAIT(120* ticks)
 49: 0x0D6F [0x27] REQ_SET(priority=0x10, entity_id=Unnamed NPC (ID: 17105609/0x010502C9), tag_num=0x06)
 50: 0x0D76 [0x1C] WAIT(15* ticks)
 51: 0x0D79 [0x52] END_LOAD_SCHEDULER: End scheduler "s054" with entities [EventEntity, EventEntity], work=388*
 52: 0x0D88 [0x45] LOAD_SCHEDULED_TASK: Load scheduler "s169" with entities [EventEntity, EventEntity], work=[388*, 0*]
 53: 0x0D99 [0x1C] WAIT(240* ticks)
 54: 0x0D9C [0x7A] VM_CONTROL: Reset VM for Unnamed NPC (ID: 17105609/0x010502C9)
 55: 0x0DA2 [0xBA] SET_ENTITY_POSITION(entity_id=Unnamed NPC (ID: 17105609/0x010502C9), pos_x=84.511*, pos_z=-198.376*, pos_y=-85.185*, direction=322.1°*)
 56: 0x0DAF [0x27] REQ_SET(priority=0x10, entity_id=Unnamed NPC (ID: 17105609/0x010502C9), tag_num=0x07)
 57: 0x0DB6 [0x1C] WAIT(25* ticks)
 58: 0x0DB9 [0x52] END_LOAD_SCHEDULER: End scheduler "s169" with entities [EventEntity, EventEntity], work=388*
 59: 0x0DC8 [0x45] LOAD_SCHEDULED_TASK: Load scheduler "s055" with entities [EventEntity, EventEntity], work=[388*, 0*]
 60: 0x0DD9 [0x2B] Nichais (ID: 17105607/0x010502C7) [13598*]:
    → "The grace with which her wings embraced the sky, and the solemn, divine aura about her. The books had not prepared me, they made no mention of this...this sublime majesty."
 61: 0x0DE0 [0x1C] WAIT(170* ticks)
 62: 0x0DE3 [0x52] END_LOAD_SCHEDULER: End scheduler "055" with entities [EventEntity, EventEntity], work=388*
 63: 0x0DF2 [0x1A] CALL_SUBROUTINE(address=0x184A)
 64: 0x0DF5 [0x1C] WAIT(120* ticks)
 65: 0x0DF8 [0x5D] SET_MUSIC_VOLUME(volume=0*, fade_time=150*)
 66: 0x0DFD [0x2A] GET_REQ_LEVEL(level=16, entity_id=Unnamed NPC (ID: 17105609/0x010502C9))
 67: 0x0E03 [0x6A] CHANGE_SOUND_VOLUME: Set (Effects/Zone)* volume to 300*, fade_time=120*
 68: 0x0E0A [0x29] REQ_SET_WAIT(priority=0x10, entity_id=Unnamed NPC (ID: 17105609/0x010502C9), tag_num=0x05)
 69: 0x0E11 [0x1C] WAIT(15* ticks)
 70: 0x0E14 [0xAB] EventEntity->DespawnValue = 0* // Set despawn value
 71: 0x0E18 [0x1C] WAIT(1* ticks)
 72: 0x0E1B [0x35] LOAD_ZONE_NO_CLOSE(zone_id=80*)
 73: 0x0E1E [0x78] ENABLE_GAME_TIMER_RESET_WEATHER()
 74: 0x0E1F [0x1C] WAIT(15* ticks)
 75: 0x0E22 [0xAB] EventEntity->UnknownFlag = 0 // Disable unknown flag
 76: 0x0E24 [0x02] IF !(ExtData[1]->WorkLocal[0] == 0*) GOTO 0x0E2F
 77: 0x0E2C [0x30] SET_UCOFF_CONTINUE_ZERO()
 78: 0x0E2D [0x21] END_EVENT
 79: 0x0E2E [0x00] END_REQSTACK()
 80: 0x0E2F [0x6A] CHANGE_SOUND_VOLUME: Set (Effects/System/Zone)* volume to 999*, fade_time=120*
 81: 0x0E36 [0x46] CAMERA_CONTROL: Restore default settings
 82: 0x0E38 [0x45] LOAD_SCHEDULED_TASK: Load scheduler "fdi2" with entities [LocalPlayer, LocalPlayer], work=[200*, 0*]
 83: 0x0E49 [0x21] END_EVENT
 84: 0x0E4A [0x00] END_REQSTACK()
```

### Event 180

#### Metadata

| Field        | Value     |
|--------------|-----------|
| Entrypoint   | 0x0E4B    |
| Data Size    | 590 bytes |
| Instructions | 88        |

```
      00 01 02 03 04 05 06 07  08 09 0A 0B 0C 0D 0E 0F
      -- -- -- -- -- -- -- --  -- -- -- -- -- -- -- --
0E40:                                   42 6A 01 80 02             Bj...
0E50: 80 03 80 1A 8C 18 46 01  38 04 80 43 00 43 01 03  ......F.8..C.C..
0E60: 00 00 09 10 4E 00 F0 FF  FF 7F 94 01 F0 FF FF 7F  ....N...........
0E70: 94 01 C7 02 05 01 92 01  C7 02 05 01 92 01 F0 01  ................
0E80: 05 01 92 01 E6 01 05 01  92 01 FE 01 05 01 92 01  ................
0E90: FF 01 05 01 BA F0 FF FF  7F 65 80 66 80 00 80 67  .........e.f...g
0EA0: 80 BA C7 02 05 01 85 80  86 80 00 80 6F 80 2F 00  ............o./.
0EB0: C6 02 05 01 BA C6 02 05  01 85 80 86 80 25 80 87  .............%..
0EC0: 80 80 F0 FF FF 7F 80 C7  02 05 01 80 E6 01 05 01  ................
0ED0: 80 F0 01 05 01 80 FE 01  05 01 80 FF 01 05 01 80  ................
0EE0: C6 02 05 01 79 00 C7 02  05 01 C6 02 05 01 4A F0  ....y.........J.
0EF0: FF FF 7F C7 02 05 01 5D  37 80 02 80 5C 00 11 80  .......]7...\...
0F00: 5C 01 11 80 9A 45 12 80  F8 FF FF 7F F8 FF FF 7F  \....E..........
0F10: 73 31 35 38 00 80 1A BF  18 1C 32 80 66 10 80 C7  s158......2.f...
0F20: 02 05 01 C7 02 05 01 74  6C 6B 30 2B C7 02 05 01  .......tlk0+....
0F30: 88 80 23 52 12 80 F8 FF  FF 7F F8 FF FF 7F 73 31  ..#R..........s1
0F40: 35 38 45 12 80 F8 FF FF  7F F8 FF FF 7F 73 30 35  58E..........s05
0F50: 31 00 80 53 C7 02 05 01  C7 02 05 01 74 6C 6B 30  1..S........tlk0
0F60: 2B C7 02 05 01 89 80 23  66 10 80 C7 02 05 01 C7  +......#f.......
0F70: 02 05 01 74 6C 6B 31 2B  C7 02 05 01 8A 80 23 53  ...tlk1+......#S
0F80: C7 02 05 01 C7 02 05 01  74 6C 6B 31 1C 32 80 6E  ........tlk1.2.n
0F90: C7 02 05 01 04 80 99 C7  02 05 01 2B C7 02 05 01  ...........+....
0FA0: 8B 80 23 99 C7 02 05 01  1C 2A 80 66 10 80 C7 02  ..#......*.f....
0FB0: 05 01 C7 02 05 01 74 6C  6B 30 2B C7 02 05 01 8C  ......tlk0+.....
0FC0: 80 23 53 C7 02 05 01 C7  02 05 01 74 6C 6B 30 52  .#S........tlk0R
0FD0: 12 80 F8 FF FF 7F F8 FF  FF 7F 73 30 35 31 45 12  ..........s051E.
0FE0: 80 F8 FF FF 7F F8 FF FF  7F 73 30 35 39 00 80 2B  .........s059..+
0FF0: C7 02 05 01 8D 80 23 52  12 80 F8 FF FF 7F F8 FF  ......#R........
1000: FF 7F 73 30 35 39 45 12  80 F8 FF FF 7F F8 FF FF  ..s059E.........
1010: 7F 73 30 36 32 00 80 2B  C7 02 05 01 8E 80 23 66  .s062..+......#f
1020: 10 80 C7 02 05 01 C7 02  05 01 74 68 6B 31 2B C7  ..........thk1+.
1030: 02 05 01 8F 80 23 53 C7  02 05 01 C7 02 05 01 74  .....#S........t
1040: 68 6B 31 1C 21 80 52 12  80 F8 FF FF 7F F8 FF FF  hk1.!.R.........
1050: 7F 73 30 36 32 1A 6B 18  6A 00 80 02 80 03 80 6B  .s062.k.j......k
1060: 69 64 6C 30 C7 02 05 01  1C 0F 80 AB 11 00 80 1C  idl0............
1070: 1F 80 02 00 00 00 80 00  7D 10 30 21 00 6A 38 80  ........}.0!.j8.
1080: 02 80 2F 80 46 00 45 39  80 F0 FF FF 7F F0 FF FF  ../.F.E9........
1090: 7F 66 64 69 32 00 80 21  00                       .fdi2..!.       
```

#### Opcodes

```
  0: 0x0E4B [0x42] SET_CLI_EVENT_CANCEL_DATA()
  1: 0x0E4C [0x6A] CHANGE_SOUND_VOLUME: Set (Effects/Zone)* volume to 300*, fade_time=120*
  2: 0x0E53 [0x1A] CALL_SUBROUTINE(address=0x188C)
  3: 0x0E56 [0x46] CAMERA_CONTROL: Disable user control
  4: 0x0E58 [0x38] SET_CLIENT_EVENT_MODE(mode=19*)
  5: 0x0E5B [0x43] SEND_EVENT_UPDATE: Send pending tag to server (packet 0x005B)
  6: 0x0E5D [0x43] SEND_EVENT_UPDATE: Check pending flag (skip if not pending)
  7: 0x0E5F [0x03] ExtData[1]->WorkLocal[0] = Work_Zone[9]
  8: 0x0E64 [0x4E] SET_ENTITY_HIDE_FLAG: Show LocalPlayer
  9: 0x0E6A [0x94] LocalPlayer->Render.Flags3 ^= 0x01
 10: 0x0E70 [0x94] Nichais (ID: 17105607/0x010502C7)->Render.Flags3 ^= 0x01
 11: 0x0E76 [0x92] Nichais (ID: 17105607/0x010502C7)->Render.Flags3 ^= 0x01
 12: 0x0E7C [0x92] Ysayle (ID: 17105392/0x010501F0)->Render.Flags3 ^= 0x01
 13: 0x0E82 [0x92] Wyatt (ID: 17105382/0x010501E6)->Render.Flags3 ^= 0x01
 14: 0x0E88 [0x92] Autouria (ID: 17105406/0x010501FE)->Render.Flags3 ^= 0x01
 15: 0x0E8E [0x92] Contie (ID: 17105407/0x010501FF)->Render.Flags3 ^= 0x01
 16: 0x0E94 [0xBA] SET_ENTITY_POSITION(entity_id=LocalPlayer, pos_x=130.779*, pos_z=80.934*, pos_y=0.000*, direction=19.8°*)
 17: 0x0EA1 [0xBA] SET_ENTITY_POSITION(entity_id=Nichais (ID: 17105607/0x010502C7), pos_x=131.192*, pos_z=77.827*, pos_y=0.000*, direction=262.3°*)
 18: 0x0EAE [0x2F] Unnamed NPC (ID: 17105606/0x010502C6)->Render.Flags0 &= ~0x80000 // Bit 19
 19: 0x0EB4 [0xBA] SET_ENTITY_POSITION(entity_id=Unnamed NPC (ID: 17105606/0x010502C6), pos_x=131.192*, pos_z=77.827*, pos_y=-0.030*, direction=19.7°*)
 20: 0x0EC1 [0x80] LOAD_WAIT(entity=LocalPlayer)
 21: 0x0EC6 [0x80] LOAD_WAIT(entity=Nichais (ID: 17105607/0x010502C7))
 22: 0x0ECB [0x80] LOAD_WAIT(entity=Wyatt (ID: 17105382/0x010501E6))
 23: 0x0ED0 [0x80] LOAD_WAIT(entity=Ysayle (ID: 17105392/0x010501F0))
 24: 0x0ED5 [0x80] LOAD_WAIT(entity=Autouria (ID: 17105406/0x010501FE))
 25: 0x0EDA [0x80] LOAD_WAIT(entity=Contie (ID: 17105407/0x010501FF))
 26: 0x0EDF [0x80] LOAD_WAIT(entity=Unnamed NPC (ID: 17105606/0x010502C6))
 27: 0x0EE4 [0x79] Nichais (ID: 17105607/0x010502C7) looks at Unnamed NPC (ID: 17105606/0x010502C6) (Basic look)
 28: 0x0EEE [0x4A] LocalPlayer looks at Nichais (ID: 17105607/0x010502C7)
 29: 0x0EF7 [0x5D] SET_MUSIC_VOLUME(volume=127*, fade_time=120*)
 30: 0x0EFC [0x5C] MUSIC_CONTROL: Set Idle (Day) music to song 254*
 31: 0x0F00 [0x5C] MUSIC_CONTROL: Set Idle (Night) music to song 254*
 32: 0x0F04 [0x9A] WAIT_MUSIC_SERVER()
 33: 0x0F05 [0x45] LOAD_SCHEDULED_TASK: Load scheduler "s158" with entities [EventEntity, EventEntity], work=[388*, 0*]
 34: 0x0F16 [0x1A] CALL_SUBROUTINE(address=0x18BF)
 35: 0x0F19 [0x1C] WAIT(30* ticks)
 36: 0x0F1C [0x66] LOAD_EXT_SCHEDULER_MAIN: Load scheduler "tlk0" with entities [Nichais (ID: 17105607/0x010502C7), Nichais (ID: 17105607/0x010502C7)], work=29*
 37: 0x0F2B [0x2B] Nichais (ID: 17105607/0x010502C7) [13599*]:
    → "Still, even if that young Elvaan should prove to be the Eastdrake, it is no cause to rejoice."
 38: 0x0F32 [0x23] WAIT_FOR_DIALOG_INTERACTION
 39: 0x0F33 [0x52] END_LOAD_SCHEDULER: End scheduler "s158" with entities [EventEntity, EventEntity], work=388*
 40: 0x0F42 [0x45] LOAD_SCHEDULED_TASK: Load scheduler "s051" with entities [EventEntity, EventEntity], work=[388*, 0*]
 41: 0x0F53 [0x53] WAIT_SCHEDULER_TASK: Wait for scheduler "tlk0" with entities [Nichais (ID: 17105607/0x010502C7), Nichais (ID: 17105607/0x010502C7)]
 42: 0x0F60 [0x2B] Nichais (ID: 17105607/0x010502C7) [13600*]:
    → "The men accompanying her appeared to me to be emissaries dispatched from the east, seeking her audience. I cannot be sure of their motives, but no doubt they are seizing upon this opportunity while Grauberg is racked by the maelstrom of war."
 43: 0x0F67 [0x23] WAIT_FOR_DIALOG_INTERACTION
 44: 0x0F68 [0x66] LOAD_EXT_SCHEDULER_MAIN: Load scheduler "tlk1" with entities [Nichais (ID: 17105607/0x010502C7), Nichais (ID: 17105607/0x010502C7)], work=29*
 45: 0x0F77 [0x2B] Nichais (ID: 17105607/0x010502C7) [13601*]:
    → "It sounded as though they were attempting to persuade the Mountain's Eye to relinquish her post and return to the East. And from the looks of it, she was not entirely opposed to the idea. I fear we haven't much time!"
 46: 0x0F7E [0x23] WAIT_FOR_DIALOG_INTERACTION
 47: 0x0F7F [0x53] WAIT_SCHEDULER_TASK: Wait for scheduler "tlk1" with entities [Nichais (ID: 17105607/0x010502C7), Nichais (ID: 17105607/0x010502C7)]
 48: 0x0F8C [0x1C] WAIT(30* ticks)
 49: 0x0F8F [0x6E] Nichais (ID: 17105607/0x010502C7) uses emote 19*
 50: 0x0F96 [0x99] Wait for Nichais (ID: 17105607/0x010502C7) animation to complete
 51: 0x0F9B [0x2B] Nichais (ID: 17105607/0x010502C7) [13602*]:
    → "To think I have come this far, only to lose sight of my goal now! But no, I must not give myself to despair just yet."
 52: 0x0FA2 [0x23] WAIT_FOR_DIALOG_INTERACTION
 53: 0x0FA3 [0x99] Wait for Nichais (ID: 17105607/0x010502C7) animation to complete
 54: 0x0FA8 [0x1C] WAIT(60* ticks)
 55: 0x0FAB [0x66] LOAD_EXT_SCHEDULER_MAIN: Load scheduler "tlk0" with entities [Nichais (ID: 17105607/0x010502C7), Nichais (ID: 17105607/0x010502C7)], work=29*
 56: 0x0FBA [0x2B] Nichais (ID: 17105607/0x010502C7) [13603*]:
    → "There may still be a chance to remedy the situation."
 57: 0x0FC1 [0x23] WAIT_FOR_DIALOG_INTERACTION
 58: 0x0FC2 [0x53] WAIT_SCHEDULER_TASK: Wait for scheduler "tlk0" with entities [Nichais (ID: 17105607/0x010502C7), Nichais (ID: 17105607/0x010502C7)]
 59: 0x0FCF [0x52] END_LOAD_SCHEDULER: End scheduler "s051" with entities [EventEntity, EventEntity], work=388*
 60: 0x0FDE [0x45] LOAD_SCHEDULED_TASK: Load scheduler "s059" with entities [EventEntity, EventEntity], work=[388*, 0*]
 61: 0x0FEF [0x2B] Nichais (ID: 17105607/0x010502C7) [13604*]:
    → "Countless hours spent in the cathedral's libraries laboring over the archives have not gone unrewarded. I uncovered a mere whisper of a clue, lost to the ages beneath stacks of papyrus and parchment."
 62: 0x0FF6 [0x23] WAIT_FOR_DIALOG_INTERACTION
 63: 0x0FF7 [0x52] END_LOAD_SCHEDULER: End scheduler "s059" with entities [EventEntity, EventEntity], work=388*
 64: 0x1006 [0x45] LOAD_SCHEDULED_TASK: Load scheduler "s062" with entities [EventEntity, EventEntity], work=[388*, 0*]
 65: 0x1017 [0x2B] Nichais (ID: 17105607/0x010502C7) [13605*]:
    → "It would seem that keeping the peace around Grauberg was not the only charge put to the Elvaan warrior by the Mountain's Eye in their pact with one another."
 66: 0x101E [0x23] WAIT_FOR_DIALOG_INTERACTION
 67: 0x101F [0x66] LOAD_EXT_SCHEDULER_MAIN: Load scheduler "thk1" with entities [Nichais (ID: 17105607/0x010502C7), Nichais (ID: 17105607/0x010502C7)], work=29*
 68: 0x102E [0x2B] Nichais (ID: 17105607/0x010502C7) [13606*]:
    → "There is mention of a certain "fancy" of Areuhat's, which was agreed to be given to her as an offering on a daily basis."
 69: 0x1035 [0x23] WAIT_FOR_DIALOG_INTERACTION
 70: 0x1036 [0x53] WAIT_SCHEDULER_TASK: Wait for scheduler "thk1" with entities [Nichais (ID: 17105607/0x010502C7), Nichais (ID: 17105607/0x010502C7)]
 71: 0x1043 [0x1C] WAIT(75* ticks)
 72: 0x1046 [0x52] END_LOAD_SCHEDULER: End scheduler "s062" with entities [EventEntity, EventEntity], work=388*
 73: 0x1055 [0x1A] CALL_SUBROUTINE(address=0x186B)
 74: 0x1058 [0x6A] CHANGE_SOUND_VOLUME: Set (Effects/Zone)* volume to 0*, fade_time=120*
 75: 0x105F [0x6B] STOP_AND_IDLE: Nichais (ID: 17105607/0x010502C7) stops current action and resets to idle (animation="idl0")
 76: 0x1068 [0x1C] WAIT(15* ticks)
 77: 0x106B [0xAB] EventEntity->DespawnValue = 0* // Set despawn value
 78: 0x106F [0x1C] WAIT(1* ticks)
 79: 0x1072 [0x02] IF !(ExtData[1]->WorkLocal[0] == 0*) GOTO 0x107D
 80: 0x107A [0x30] SET_UCOFF_CONTINUE_ZERO()
 81: 0x107B [0x21] END_EVENT
 82: 0x107C [0x00] END_REQSTACK()
 83: 0x107D [0x6A] CHANGE_SOUND_VOLUME: Set (Effects/System/Zone)* volume to 999*, fade_time=120*
 84: 0x1084 [0x46] CAMERA_CONTROL: Restore default settings
 85: 0x1086 [0x45] LOAD_SCHEDULED_TASK: Load scheduler "fdi2" with entities [LocalPlayer, LocalPlayer], work=[200*, 0*]
 86: 0x1097 [0x21] END_EVENT
 87: 0x1098 [0x00] END_REQSTACK()
```

### Event 181

#### Metadata

| Field        | Value     |
|--------------|-----------|
| Entrypoint   | 0x1099    |
| Data Size    | 475 bytes |
| Instructions | 84        |

```
      00 01 02 03 04 05 06 07  08 09 0A 0B 0C 0D 0E 0F
      -- -- -- -- -- -- -- --  -- -- -- -- -- -- -- --
1090:                             42 6A 01 80 02 80 03           Bj.....
10A0: 80 1A 8C 18 46 01 38 04  80 43 00 43 01 03 00 00  ....F.8..C.C....
10B0: 09 10 5C 00 11 80 5C 01  11 80 9A 34 3B 80 AB 09  ..\...\....4;...
10C0: 77 3C 80 1F 80 1C 1F 80  2F 00 C8 02 05 01 2F 00  w<....../...../.
10D0: CA 02 05 01 4E 00 C8 02  05 01 4E 00 CA 02 05 01  ....N.....N.....
10E0: 92 01 C8 02 05 01 92 01  CA 02 05 01 BA C8 02 05  ................
10F0: 01 90 80 91 80 92 80 93  80 BA CA 02 05 01 94 80  ................
1100: 95 80 96 80 93 80 94 01  C8 02 05 01 94 01 CA 02  ................
1110: 05 01 80 C8 02 05 01 80  CA 02 05 01 1C 22 80 4B  .............".K
1120: CA 02 05 01 97 80 6F 76  CA 02 05 01 4B C8 02 05  ......ov....K...
1130: 01 98 80 6F 76 C8 02 05  01 45 12 80 F8 FF FF 7F  ...ov....E......
1140: F8 FF FF 7F 73 30 35 32  00 80 1A E3 18 55 12 80  ....s052.....U..
1150: F8 FF FF 7F F8 FF FF 7F  73 30 35 32 45 12 80 F8  ........s052E...
1160: FF FF 7F F8 FF FF 7F 73  30 36 33 00 80 29 10 CA  .......s063..)..
1170: 02 05 01 05 1C 0F 80 66  10 80 CA 02 05 01 CA 02  .......f........
1180: 05 01 73 68 61 30 53 CA  02 05 01 CA 02 05 01 73  ..sha0S........s
1190: 68 61 30 1C 16 80 52 12  80 F8 FF FF 7F F8 FF FF  ha0...R.........
11A0: 7F 73 30 36 33 1A 6B 18  34 99 80 AB 09 77 3C 80  .s063.k.4....w<.
11B0: 1F 80 1C 1F 80 2F 00 CB  02 05 01 4E 00 CB 02 05  ...../.....N....
11C0: 01 92 01 CB 02 05 01 94  01 CB 02 05 01 BA CB 02  ................
11D0: 05 01 9A 80 9B 80 9C 80  9D 80 80 CB 02 05 01 1C  ................
11E0: 0F 80 5B 9E 80 CB 02 05  01 CB 02 05 01 30 73 63  ..[..........0sc
11F0: 30 53 CB 02 05 01 CB 02  05 01 30 73 63 30 1C 34  0S........0sc0.4
1200: 80 45 12 80 F8 FF FF 7F  F8 FF FF 7F 73 30 35 37  .E..........s057
1210: 00 80 1A E3 18 2B C7 02  05 01 9F 80 23 2B C7 02  .....+......#+..
1220: 05 01 A0 80 23 1C A1 80  52 12 80 F8 FF FF 7F F8  ....#...R.......
1230: FF FF 7F 73 30 35 37 1A  4A 18 1C 0F 80 AB 11 00  ...s057.J.......
1240: 80 1C 1F 80 35 52 80 78  1C 0F 80 AB 0A 02 00 00  ....5R.x........
1250: 00 80 00 58 12 30 21 00  6A 38 80 02 80 2F 80 46  ...X.0!.j8.../.F
1260: 00 45 39 80 F0 FF FF 7F  F0 FF FF 7F 66 64 69 32  .E9.........fdi2
1270: 00 80 21 00                                       ..!.            
```

#### Opcodes

```
  0: 0x1099 [0x42] SET_CLI_EVENT_CANCEL_DATA()
  1: 0x109A [0x6A] CHANGE_SOUND_VOLUME: Set (Effects/Zone)* volume to 300*, fade_time=120*
  2: 0x10A1 [0x1A] CALL_SUBROUTINE(address=0x188C)
  3: 0x10A4 [0x46] CAMERA_CONTROL: Disable user control
  4: 0x10A6 [0x38] SET_CLIENT_EVENT_MODE(mode=19*)
  5: 0x10A9 [0x43] SEND_EVENT_UPDATE: Send pending tag to server (packet 0x005B)
  6: 0x10AB [0x43] SEND_EVENT_UPDATE: Check pending flag (skip if not pending)
  7: 0x10AD [0x03] ExtData[1]->WorkLocal[0] = Work_Zone[9]
  8: 0x10B2 [0x5C] MUSIC_CONTROL: Set Idle (Day) music to song 254*
  9: 0x10B6 [0x5C] MUSIC_CONTROL: Set Idle (Night) music to song 254*
 10: 0x10BA [0x9A] WAIT_MUSIC_SERVER()
 11: 0x10BB [0x34] LOAD_UNLOAD_ZONE(zone_id=89*)
 12: 0x10BE [0xAB] EventEntity->UnknownFlag = 1 // Enable unknown flag
 13: 0x10C0 [0x77] SET_EVENT_TIME_WEATHER(hour=17*, weather=1*)
 14: 0x10C5 [0x1C] WAIT(1* ticks)
 15: 0x10C8 [0x2F] Unnamed NPC (ID: 17105608/0x010502C8)->Render.Flags0 &= ~0x80000 // Bit 19
 16: 0x10CE [0x2F] Unnamed NPC (ID: 17105610/0x010502CA)->Render.Flags0 &= ~0x80000 // Bit 19
 17: 0x10D4 [0x4E] SET_ENTITY_HIDE_FLAG: Show Unnamed NPC (ID: 17105608/0x010502C8)
 18: 0x10DA [0x4E] SET_ENTITY_HIDE_FLAG: Show Unnamed NPC (ID: 17105610/0x010502CA)
 19: 0x10E0 [0x92] Unnamed NPC (ID: 17105608/0x010502C8)->Render.Flags3 ^= 0x01
 20: 0x10E6 [0x92] Unnamed NPC (ID: 17105610/0x010502CA)->Render.Flags3 ^= 0x01
 21: 0x10EC [0xBA] SET_ENTITY_POSITION(entity_id=Unnamed NPC (ID: 17105608/0x010502C8), pos_x=-169.713*, pos_z=-356.217*, pos_y=-25.449*, direction=82.4°*)
 22: 0x10F9 [0xBA] SET_ENTITY_POSITION(entity_id=Unnamed NPC (ID: 17105610/0x010502CA), pos_x=-162.423*, pos_z=-349.920*, pos_y=-23.741*, direction=82.4°*)
 23: 0x1106 [0x94] Unnamed NPC (ID: 17105608/0x010502C8)->Render.Flags3 ^= 0x01
 24: 0x110C [0x94] Unnamed NPC (ID: 17105610/0x010502CA)->Render.Flags3 ^= 0x01
 25: 0x1112 [0x80] LOAD_WAIT(entity=Unnamed NPC (ID: 17105608/0x010502C8))
 26: 0x1117 [0x80] LOAD_WAIT(entity=Unnamed NPC (ID: 17105610/0x010502CA))
 27: 0x111C [0x1C] WAIT(25* ticks)
 28: 0x111F [0x4B] UPDATE_ENTITY_YAW(entity=Unnamed NPC (ID: 17105610/0x010502CA), yaw=8.7°*)
 29: 0x1126 [0x6F] WAIT_FRAME_DELAY: Yield until WaitTime reaches zero
 30: 0x1127 [0x76] CHECK_ENTITY_RENDER_FLAGS: Wait until Unnamed NPC (ID: 17105610/0x010502CA) Render.Flags0 and Render.Flags3 conditions are met
 31: 0x112C [0x4B] UPDATE_ENTITY_YAW(entity=Unnamed NPC (ID: 17105608/0x010502C8), yaw=19.9°*)
 32: 0x1133 [0x6F] WAIT_FRAME_DELAY: Yield until WaitTime reaches zero
 33: 0x1134 [0x76] CHECK_ENTITY_RENDER_FLAGS: Wait until Unnamed NPC (ID: 17105608/0x010502C8) Render.Flags0 and Render.Flags3 conditions are met
 34: 0x1139 [0x45] LOAD_SCHEDULED_TASK: Load scheduler "s052" with entities [EventEntity, EventEntity], work=[388*, 0*]
 35: 0x114A [0x1A] CALL_SUBROUTINE(address=0x18E3)
 36: 0x114D [0x55] WAIT_LOAD_SCHEDULER: Wait for scheduler "s052" with entities [EventEntity, EventEntity], work=388*
 37: 0x115C [0x45] LOAD_SCHEDULED_TASK: Load scheduler "s063" with entities [EventEntity, EventEntity], work=[388*, 0*]
 38: 0x116D [0x29] REQ_SET_WAIT(priority=0x10, entity_id=Unnamed NPC (ID: 17105610/0x010502CA), tag_num=0x05)
 39: 0x1174 [0x1C] WAIT(15* ticks)
 40: 0x1177 [0x66] LOAD_EXT_SCHEDULER_MAIN: Load scheduler "sha0" with entities [Unnamed NPC (ID: 17105610/0x010502CA), Unnamed NPC (ID: 17105610/0x010502CA)], work=29*
 41: 0x1186 [0x53] WAIT_SCHEDULER_TASK: Wait for scheduler "sha0" with entities [Unnamed NPC (ID: 17105610/0x010502CA), Unnamed NPC (ID: 17105610/0x010502CA)]
 42: 0x1193 [0x1C] WAIT(90* ticks)
 43: 0x1196 [0x52] END_LOAD_SCHEDULER: End scheduler "s063" with entities [EventEntity, EventEntity], work=388*
 44: 0x11A5 [0x1A] CALL_SUBROUTINE(address=0x186B)
 45: 0x11A8 [0x34] LOAD_UNLOAD_ZONE(zone_id=231*)
 46: 0x11AB [0xAB] EventEntity->UnknownFlag = 1 // Enable unknown flag
 47: 0x11AD [0x77] SET_EVENT_TIME_WEATHER(hour=17*, weather=1*)
 48: 0x11B2 [0x1C] WAIT(1* ticks)
 49: 0x11B5 [0x2F] Unnamed NPC (ID: 17105611/0x010502CB)->Render.Flags0 &= ~0x80000 // Bit 19
 50: 0x11BB [0x4E] SET_ENTITY_HIDE_FLAG: Show Unnamed NPC (ID: 17105611/0x010502CB)
 51: 0x11C1 [0x92] Unnamed NPC (ID: 17105611/0x010502CB)->Render.Flags3 ^= 0x01
 52: 0x11C7 [0x94] Unnamed NPC (ID: 17105611/0x010502CB)->Render.Flags3 ^= 0x01
 53: 0x11CD [0xBA] SET_ENTITY_POSITION(entity_id=Unnamed NPC (ID: 17105611/0x010502CB), pos_x=127.000*, pos_z=110.363*, pos_y=6.500*, direction=43.9°*)
 54: 0x11DA [0x80] LOAD_WAIT(entity=Unnamed NPC (ID: 17105611/0x010502CB))
 55: 0x11DF [0x1C] WAIT(15* ticks)
 56: 0x11E2 [0x5B] LOAD_EXT_SCHEDULER: Load scheduler "0sc0" with entities [Unnamed NPC (ID: 17105611/0x010502CB), Unnamed NPC (ID: 17105611/0x010502CB)], work=1323*
 57: 0x11F1 [0x53] WAIT_SCHEDULER_TASK: Wait for scheduler "0sc0" with entities [Unnamed NPC (ID: 17105611/0x010502CB), Unnamed NPC (ID: 17105611/0x010502CB)]
 58: 0x11FE [0x1C] WAIT(20* ticks)
 59: 0x1201 [0x45] LOAD_SCHEDULED_TASK: Load scheduler "s057" with entities [EventEntity, EventEntity], work=[388*, 0*]
 60: 0x1212 [0x1A] CALL_SUBROUTINE(address=0x18E3)
 61: 0x1215 [0x2B] Nichais (ID: 17105607/0x010502C7) [13607*]:
    → "The text I discovered, however, was extremely cryptic. A riddle, one might say... Do listen."
 62: 0x121C [0x23] WAIT_FOR_DIALOG_INTERACTION
 63: 0x121D [0x2B] Nichais (ID: 17105607/0x010502C7) [13608*]:
    → "It read, "An ageless armor, impenetrable, and yet of no metal wrought. To lay at rest only the comfort of anvil-hard beds are sought. Protected from without, protecting from within, yielding naught.""
 64: 0x1224 [0x23] WAIT_FOR_DIALOG_INTERACTION
 65: 0x1225 [0x1C] WAIT(160* ticks)
 66: 0x1228 [0x52] END_LOAD_SCHEDULER: End scheduler "s057" with entities [EventEntity, EventEntity], work=388*
 67: 0x1237 [0x1A] CALL_SUBROUTINE(address=0x184A)
 68: 0x123A [0x1C] WAIT(15* ticks)
 69: 0x123D [0xAB] EventEntity->DespawnValue = 0* // Set despawn value
 70: 0x1241 [0x1C] WAIT(1* ticks)
 71: 0x1244 [0x35] LOAD_ZONE_NO_CLOSE(zone_id=80*)
 72: 0x1247 [0x78] ENABLE_GAME_TIMER_RESET_WEATHER()
 73: 0x1248 [0x1C] WAIT(15* ticks)
 74: 0x124B [0xAB] EventEntity->UnknownFlag = 0 // Disable unknown flag
 75: 0x124D [0x02] IF !(ExtData[1]->WorkLocal[0] == 0*) GOTO 0x1258
 76: 0x1255 [0x30] SET_UCOFF_CONTINUE_ZERO()
 77: 0x1256 [0x21] END_EVENT
 78: 0x1257 [0x00] END_REQSTACK()
 79: 0x1258 [0x6A] CHANGE_SOUND_VOLUME: Set (Effects/System/Zone)* volume to 999*, fade_time=120*
 80: 0x125F [0x46] CAMERA_CONTROL: Restore default settings
 81: 0x1261 [0x45] LOAD_SCHEDULED_TASK: Load scheduler "fdi2" with entities [LocalPlayer, LocalPlayer], work=[200*, 0*]
 82: 0x1272 [0x21] END_EVENT
 83: 0x1273 [0x00] END_REQSTACK()
```

### Event 182

#### Metadata

| Field        | Value     |
|--------------|-----------|
| Entrypoint   | 0x1274    |
| Data Size    | 431 bytes |
| Instructions | 68        |

```
      00 01 02 03 04 05 06 07  08 09 0A 0B 0C 0D 0E 0F
      -- -- -- -- -- -- -- --  -- -- -- -- -- -- -- --
1270:             42 6A 01 80  02 80 03 80 1A 8C 18 46      Bj.........F
1280: 01 38 04 80 5C 00 11 80  5C 01 11 80 9A 4E 00 F0  .8..\...\....N..
1290: FF FF 7F 94 01 F0 FF FF  7F 94 01 C7 02 05 01 92  ................
12A0: 01 C7 02 05 01 92 01 F0  01 05 01 92 01 E6 01 05  ................
12B0: 01 92 01 FE 01 05 01 92  01 FF 01 05 01 BA F0 FF  ................
12C0: FF 7F 65 80 66 80 00 80  67 80 BA C7 02 05 01 85  ..e.f...g.......
12D0: 80 86 80 00 80 6F 80 80  F0 FF FF 7F 80 F0 01 05  .....o..........
12E0: 01 80 E6 01 05 01 80 FE  01 05 01 80 FF 01 05 01  ................
12F0: 80 C7 02 05 01 4A F0 FF  FF 7F C7 02 05 01 6B 69  .....J........ki
1300: 64 6C 30 C7 02 05 01 45  12 80 F8 FF FF 7F F8 FF  dl0....E........
1310: FF 7F 73 30 35 38 00 80  1A BF 18 66 10 80 C7 02  ..s058.....f....
1320: 05 01 C7 02 05 01 74 6C  6B 30 2B C7 02 05 01 A2  ......tlk0+.....
1330: 80 23 53 C7 02 05 01 C7  02 05 01 74 6C 6B 30 52  .#S........tlk0R
1340: 12 80 F8 FF FF 7F F8 FF  FF 7F 73 30 35 38 45 12  ..........s058E.
1350: 80 F8 FF FF 7F F8 FF FF  7F 73 30 36 30 00 80 27  .........s060..'
1360: 10 C7 02 05 01 13 2B C7  02 05 01 A3 80 23 2A 10  ......+......#*.
1370: C7 02 05 01 1C 69 80 4A  F0 FF FF 7F C7 02 05 01  .....i.J........
1380: 1C 32 80 4B C7 02 05 01  A4 80 52 12 80 F8 FF FF  .2.K......R.....
1390: 7F F8 FF FF 7F 73 30 36  30 45 12 80 F8 FF FF 7F  .....s060E......
13A0: F8 FF FF 7F 73 30 36 31  00 80 6F 76 C7 02 05 01  ....s061..ov....
