# 17105422 - Altennia

## Common Data

| Field            | Value                            |
|------------------|----------------------------------|
| Zone             | Southern San d'Oria [S] (ID: 80) |
| Block Size       | 780 bytes                        |
| Total Events     | 33                               |
| References Count | 49                               |

## List of Events

| Event ID                   | Entrypoint   |   Size |   Instructions |
|----------------------------|--------------|--------|----------------|
| [65535](#event-65535)      | 0x0000       |      2 |              2 |
| [23](#event-23)            | 0x0002       |      1 |              1 |
| [24](#event-24)            | 0x0003       |      1 |              1 |
| [47](#event-47)            | 0x0004       |      1 |              1 |
| [65535.1](#event-655351)   | 0x0005       |     30 |              7 |
| [65535.2](#event-655352)   | 0x0023       |     28 |              6 |
| [65535.3](#event-655353)   | 0x003F       |     28 |              6 |
| [65535.4](#event-655354)   | 0x005B       |     26 |              8 |
| [65535.5](#event-655355)   | 0x0075       |     15 |              5 |
| [65535.6](#event-655356)   | 0x0084       |     15 |              5 |
| [65535.7](#event-655357)   | 0x0093       |     28 |              9 |
| [55](#event-55)            | 0x00AF       |      1 |              1 |
| [65535.8](#event-655358)   | 0x00B0       |     27 |              9 |
| [65535.9](#event-655359)   | 0x00CB       |     27 |              9 |
| [65535.10](#event-6553510) | 0x00E6       |     15 |              5 |
| [65535.11](#event-6553511) | 0x00F5       |     15 |              5 |
| [59](#event-59)            | 0x0104       |      1 |              1 |
| [60](#event-60)            | 0x0105       |      1 |              1 |
| [65535.12](#event-6553512) | 0x0106       |     35 |              9 |
| [65535.13](#event-6553513) | 0x0129       |     35 |              9 |
| [630](#event-630)          | 0x014C       |      1 |              1 |
| [631](#event-631)          | 0x014D       |      1 |              1 |
| [113](#event-113)          | 0x014E       |      1 |              1 |
| [114](#event-114)          | 0x014F       |      1 |              1 |
| [65535.14](#event-6553514) | 0x0150       |     21 |              5 |
| [65535.15](#event-6553515) | 0x0165       |     11 |              3 |
| [65535.16](#event-6553516) | 0x0170       |      1 |              1 |
| [65535.17](#event-6553517) | 0x0171       |     18 |              4 |
| [65535.18](#event-6553518) | 0x0183       |     10 |              2 |
| [65535.19](#event-6553519) | 0x018D       |      9 |              3 |
| [65535.20](#event-6553520) | 0x0196       |      9 |              3 |
| [65535.21](#event-6553521) | 0x019F       |     10 |              2 |
| [65535.22](#event-6553522) | 0x01A9       |     10 |              2 |

## DAT References (imed_data)

|   Index | Hex Value   |   Dec Value |
|---------|-------------|-------------|
|       0 | 0xFFFD519E  |  4294791582 |
|       1 | 0xE1D0      |       57808 |
|       2 | 0xFFFFF769  |  4294965097 |
|       3 | 0x0036      |          54 |
|       4 | 0x000D      |          13 |
|       5 | 0xFFFD592A  |  4294793514 |
|       6 | 0xE675      |       58997 |
|       7 | 0xFFFD5CBC  |  4294794428 |
|       8 | 0xE505      |       58629 |
|       9 | 0x0FE9      |        4073 |
|      10 | 0xFFFD699B  |  4294797723 |
|      11 | 0xE951      |       59729 |
|      12 | 0xFFFFF830  |  4294965296 |
|      13 | 0xFFFD72C7  |  4294800071 |
|      14 | 0xF0B6      |       61622 |
|      15 | 0x0F42      |        3906 |
|      16 | 0xFFFD78A9  |  4294801577 |
|      17 | 0xF27A      |       62074 |
|      18 | 0xFFFD4FC5  |  4294791109 |
|      19 | 0xE219      |       57881 |
|      20 | 0xFFFD3A83  |  4294785667 |
|      21 | 0xE04F      |       57423 |
|      22 | 0xFFFD765C  |  4294800988 |
|      23 | 0xF44E      |       62542 |
|      24 | 0xFFFD7A23  |  4294801955 |
|      25 | 0xF623      |       63011 |
|      26 | 0xFFFD6863  |  4294797411 |
|      27 | 0xE756      |       59222 |
|      28 | 0xFFFD4B95  |  4294790037 |
|      29 | 0xE316      |       58134 |
|      30 | 0x0AB7      |        2743 |
|      31 | 0xA23D      |       41533 |
|      32 | 0xFFFFFFBE  |  4294967230 |
|      33 | 0xA7A2      |       42914 |
|      34 | 0xFFFFF831  |  4294965297 |
|      35 | 0x0279      |         633 |
|      36 | 0xA0E4      |       41188 |
|      37 | 0x00A6      |         166 |
|      38 | 0x800C      |       32780 |
|      39 | 0xFFFFFCD8  |  4294966488 |
|      40 | 0x0028      |          40 |
|      41 | 0xFFFFF45E  |  4294964318 |
|      42 | 0xFFFEAF3D  |  4294881085 |
|      43 | 0x07CF      |        1999 |
|      44 | 0x343F      |       13375 |
|      45 | 0xFFFEC6A3  |  4294887075 |
|      46 | 0x0000      |           0 |
|      47 | 0x0001      |           1 |
|      48 | 0x0080      |         128 |

## Events

### Event 65535

#### Metadata

| Field        | Value   |
|--------------|---------|
| Entrypoint   | 0x0000  |
| Data Size    | 2 bytes |
| Instructions | 1       |

```
      00 01 02 03 04 05 06 07  08 09 0A 0B 0C 0D 0E 0F
      -- -- -- -- -- -- -- --  -- -- -- -- -- -- -- --
0000: 00 00                                             ..              
```

#### Opcodes

```
  0: 0x0000 [0x00] END_REQSTACK()
```

#### Data or dead code:

```
# Dead code (unreachable instructions):
     0x0001 [0x00] END_REQSTACK()
```

### Event 23

#### Metadata

| Field        | Value   |
|--------------|---------|
| Entrypoint   | 0x0002  |
| Data Size    | 1 bytes |
| Instructions | 1       |

```
      00 01 02 03 04 05 06 07  08 09 0A 0B 0C 0D 0E 0F
      -- -- -- -- -- -- -- --  -- -- -- -- -- -- -- --
0000:       00                                            .             
```

#### Opcodes

```
  0: 0x0002 [0x00] END_REQSTACK()
```

### Event 24

#### Metadata

| Field        | Value   |
|--------------|---------|
| Entrypoint   | 0x0003  |
| Data Size    | 1 bytes |
| Instructions | 1       |

```
      00 01 02 03 04 05 06 07  08 09 0A 0B 0C 0D 0E 0F
      -- -- -- -- -- -- -- --  -- -- -- -- -- -- -- --
0000:          00                                          .            
```

#### Opcodes

```
  0: 0x0003 [0x00] END_REQSTACK()
```

### Event 47

#### Metadata

| Field        | Value   |
|--------------|---------|
| Entrypoint   | 0x0004  |
| Data Size    | 1 bytes |
| Instructions | 1       |

```
      00 01 02 03 04 05 06 07  08 09 0A 0B 0C 0D 0E 0F
      -- -- -- -- -- -- -- --  -- -- -- -- -- -- -- --
0000:             00                                        .           
```

#### Opcodes

```
  0: 0x0004 [0x00] END_REQSTACK()
```

### Event 65535.1

#### Metadata

| Field        | Value    |
|--------------|----------|
| Entrypoint   | 0x0005   |
| Data Size    | 30 bytes |
| Instructions | 7        |

```
      00 01 02 03 04 05 06 07  08 09 0A 0B 0C 0D 0E 0F
      -- -- -- -- -- -- -- --  -- -- -- -- -- -- -- --
0000:                22 00 BA  0E 02 05 01 00 80 01 80       "..........
0010: 02 80 03 80 32 04 80 1F  00 05 80 06 80 02 80 1F  ....2...........
0020: 01 6F 00                                          .o.             
```

#### Opcodes

```
  0: 0x0005 [0x22] ENTITY_HIDE_FLAG(enabled=0x00)
  1: 0x0007 [0xBA] SET_ENTITY_POSITION(entity_id=Altennia (ID: 17105422/0x0105020E), pos_x=-175.714*, pos_z=57.808*, pos_y=-2.199*, direction=4.7°*)
  2: 0x0014 [0x32] ExtData[1]->MainSpeed = 13* * 0.1
  3: 0x0017 [0x1F] MOVE_ENTITY: EventEntity moves to X=-173.782*, Z=58.997*, Y=-2.199*
  4: 0x001F [0x1F] MOVE_ENTITY: Update entity position (mode=1)
  5: 0x0021 [0x6F] WAIT_FRAME_DELAY: Yield until WaitTime reaches zero
  6: 0x0022 [0x00] END_REQSTACK()
```

### Event 65535.2

#### Metadata

| Field        | Value    |
|--------------|----------|
| Entrypoint   | 0x0023   |
| Data Size    | 28 bytes |
| Instructions | 6        |

```
      00 01 02 03 04 05 06 07  08 09 0A 0B 0C 0D 0E 0F
      -- -- -- -- -- -- -- --  -- -- -- -- -- -- -- --
0020:          BA 0E 02 05 01  07 80 08 80 02 80 09 80     .............
0030: 32 04 80 1F 00 0A 80 0B  80 0C 80 1F 01 6F 00     2............o. 
```

#### Opcodes

```
  0: 0x0023 [0xBA] SET_ENTITY_POSITION(entity_id=Altennia (ID: 17105422/0x0105020E), pos_x=-172.868*, pos_z=58.629*, pos_y=-2.199*, direction=358.0°*)
  1: 0x0030 [0x32] ExtData[1]->MainSpeed = 13* * 0.1
  2: 0x0033 [0x1F] MOVE_ENTITY: EventEntity moves to X=-169.573*, Z=59.729*, Y=-2.000*
  3: 0x003B [0x1F] MOVE_ENTITY: Update entity position (mode=1)
  4: 0x003D [0x6F] WAIT_FRAME_DELAY: Yield until WaitTime reaches zero
  5: 0x003E [0x00] END_REQSTACK()
```

### Event 65535.3

#### Metadata

| Field        | Value    |
|--------------|----------|
| Entrypoint   | 0x003F   |
| Data Size    | 28 bytes |
| Instructions | 6        |

```
      00 01 02 03 04 05 06 07  08 09 0A 0B 0C 0D 0E 0F
      -- -- -- -- -- -- -- --  -- -- -- -- -- -- -- --
0030:                                               BA                 .
0040: 0E 02 05 01 0D 80 0E 80  0C 80 0F 80 32 04 80 1F  ............2...
0050: 00 10 80 11 80 0C 80 1F  01 6F 00                 .........o.     
```

#### Opcodes

```
  0: 0x003F [0xBA] SET_ENTITY_POSITION(entity_id=Altennia (ID: 17105422/0x0105020E), pos_x=-167.225*, pos_z=61.622*, pos_y=-2.000*, direction=343.3°*)
  1: 0x004C [0x32] ExtData[1]->MainSpeed = 13* * 0.1
  2: 0x004F [0x1F] MOVE_ENTITY: EventEntity moves to X=-165.719*, Z=62.074*, Y=-2.000*
  3: 0x0057 [0x1F] MOVE_ENTITY: Update entity position (mode=1)
  4: 0x0059 [0x6F] WAIT_FRAME_DELAY: Yield until WaitTime reaches zero
  5: 0x005A [0x00] END_REQSTACK()
```

### Event 65535.4

#### Metadata

| Field        | Value    |
|--------------|----------|
| Entrypoint   | 0x005B   |
| Data Size    | 26 bytes |
| Instructions | 8        |

```
      00 01 02 03 04 05 06 07  08 09 0A 0B 0C 0D 0E 0F
      -- -- -- -- -- -- -- --  -- -- -- -- -- -- -- --
0050:                                   32 04 80 1F 00             2....
0060: 12 80 13 80 02 80 1F 01  6F 1F 00 14 80 15 80 02  ........o.......
0070: 80 1F 01 6F 00                                    ...o.           
```

#### Opcodes

```
  0: 0x005B [0x32] ExtData[1]->MainSpeed = 13* * 0.1
  1: 0x005E [0x1F] MOVE_ENTITY: EventEntity moves to X=-176.187*, Z=57.881*, Y=-2.199*
  2: 0x0066 [0x1F] MOVE_ENTITY: Update entity position (mode=1)
  3: 0x0068 [0x6F] WAIT_FRAME_DELAY: Yield until WaitTime reaches zero
  4: 0x0069 [0x1F] MOVE_ENTITY: EventEntity moves to X=-181.629*, Z=57.423*, Y=-2.199*
  5: 0x0071 [0x1F] MOVE_ENTITY: Update entity position (mode=1)
  6: 0x0073 [0x6F] WAIT_FRAME_DELAY: Yield until WaitTime reaches zero
  7: 0x0074 [0x00] END_REQSTACK()
```

### Event 65535.5

#### Metadata

| Field        | Value    |
|--------------|----------|
| Entrypoint   | 0x0075   |
| Data Size    | 15 bytes |
| Instructions | 5        |

```
      00 01 02 03 04 05 06 07  08 09 0A 0B 0C 0D 0E 0F
      -- -- -- -- -- -- -- --  -- -- -- -- -- -- -- --
0070:                32 04 80  1F 00 16 80 17 80 0C 80       2..........
0080: 1F 01 6F 00                                       ..o.            
```

#### Opcodes

```
  0: 0x0075 [0x32] ExtData[1]->MainSpeed = 13* * 0.1
  1: 0x0078 [0x1F] MOVE_ENTITY: EventEntity moves to X=-166.308*, Z=62.542*, Y=-2.000*
  2: 0x0080 [0x1F] MOVE_ENTITY: Update entity position (mode=1)
  3: 0x0082 [0x6F] WAIT_FRAME_DELAY: Yield until WaitTime reaches zero
  4: 0x0083 [0x00] END_REQSTACK()
```

### Event 65535.6

#### Metadata

| Field        | Value    |
|--------------|----------|
| Entrypoint   | 0x0084   |
| Data Size    | 15 bytes |
| Instructions | 5        |

```
      00 01 02 03 04 05 06 07  08 09 0A 0B 0C 0D 0E 0F
      -- -- -- -- -- -- -- --  -- -- -- -- -- -- -- --
0080:             32 04 80 1F  00 18 80 19 80 0C 80 1F      2...........
0090: 01 6F 00                                          .o.             
```

#### Opcodes

```
  0: 0x0084 [0x32] ExtData[1]->MainSpeed = 13* * 0.1
  1: 0x0087 [0x1F] MOVE_ENTITY: EventEntity moves to X=-165.341*, Z=63.011*, Y=-2.000*
  2: 0x008F [0x1F] MOVE_ENTITY: Update entity position (mode=1)
  3: 0x0091 [0x6F] WAIT_FRAME_DELAY: Yield until WaitTime reaches zero
  4: 0x0092 [0x00] END_REQSTACK()
```

### Event 65535.7

#### Metadata

| Field        | Value    |
|--------------|----------|
| Entrypoint   | 0x0093   |
| Data Size    | 28 bytes |
| Instructions | 9        |

```
      00 01 02 03 04 05 06 07  08 09 0A 0B 0C 0D 0E 0F
      -- -- -- -- -- -- -- --  -- -- -- -- -- -- -- --
0090:          32 04 80 1F 00  1A 80 1B 80 0C 80 1F 01     2............
00A0: 6F 1F 00 1C 80 1D 80 02  80 1F 01 6F 22 01 00     o..........o".. 
```

#### Opcodes

```
  0: 0x0093 [0x32] ExtData[1]->MainSpeed = 13* * 0.1
  1: 0x0096 [0x1F] MOVE_ENTITY: EventEntity moves to X=-169.885*, Z=59.222*, Y=-2.000*
  2: 0x009E [0x1F] MOVE_ENTITY: Update entity position (mode=1)
  3: 0x00A0 [0x6F] WAIT_FRAME_DELAY: Yield until WaitTime reaches zero
  4: 0x00A1 [0x1F] MOVE_ENTITY: EventEntity moves to X=-177.259*, Z=58.134*, Y=-2.199*
  5: 0x00A9 [0x1F] MOVE_ENTITY: Update entity position (mode=1)
  6: 0x00AB [0x6F] WAIT_FRAME_DELAY: Yield until WaitTime reaches zero
  7: 0x00AC [0x22] ENTITY_HIDE_FLAG(enabled=0x01)
  8: 0x00AE [0x00] END_REQSTACK()
```

### Event 55

#### Metadata

| Field        | Value   |
|--------------|---------|
| Entrypoint   | 0x00AF  |
| Data Size    | 1 bytes |
| Instructions | 1       |

```
      00 01 02 03 04 05 06 07  08 09 0A 0B 0C 0D 0E 0F
      -- -- -- -- -- -- -- --  -- -- -- -- -- -- -- --
00A0:                                               00                 .
```

#### Opcodes

```
  0: 0x00AF [0x00] END_REQSTACK()
```

### Event 65535.8

#### Metadata

| Field        | Value    |
|--------------|----------|
| Entrypoint   | 0x00B0   |
| Data Size    | 27 bytes |
| Instructions | 9        |

```
      00 01 02 03 04 05 06 07  08 09 0A 0B 0C 0D 0E 0F
      -- -- -- -- -- -- -- --  -- -- -- -- -- -- -- --
00B0: 32 04 80 1F 00 1E 80 1F  80 0C 80 1F 01 6F 1E EF  2............o..
00C0: 01 05 01 6F 70 7B 0E 02  05 01 00                 ...op{.....     
```

#### Opcodes

```
  0: 0x00B0 [0x32] ExtData[1]->MainSpeed = 13* * 0.1
  1: 0x00B3 [0x1F] MOVE_ENTITY: EventEntity moves to X=2.743*, Z=41.533*, Y=-2.000*
  2: 0x00BB [0x1F] MOVE_ENTITY: Update entity position (mode=1)
  3: 0x00BD [0x6F] WAIT_FRAME_DELAY: Yield until WaitTime reaches zero
  4: 0x00BE [0x1E] EventEntity looks at Raustigne (ID: 17105391/0x010501EF) and starts talking
  5: 0x00C3 [0x6F] WAIT_FRAME_DELAY: Yield until WaitTime reaches zero
  6: 0x00C4 [0x70] WAIT_ENTITY_RENDER_FLAG: Wait while EventEntity->Render.Flags3 bit 2 is set (cancel turn if not)
  7: 0x00C5 [0x7B] Altennia (ID: 17105422/0x0105020E) stops talking
  8: 0x00CA [0x00] END_REQSTACK()
```

### Event 65535.9

#### Metadata

| Field        | Value    |
|--------------|----------|
| Entrypoint   | 0x00CB   |
| Data Size    | 27 bytes |
| Instructions | 9        |

```
      00 01 02 03 04 05 06 07  08 09 0A 0B 0C 0D 0E 0F
      -- -- -- -- -- -- -- --  -- -- -- -- -- -- -- --
00C0:                                   32 04 80 1F 00             2....
00D0: 20 80 21 80 22 80 1F 01  6F 1E 17 02 05 01 7B 0E   .!."...o.....{.
00E0: 02 05 01 6F 70 00                                 ...op.          
```

#### Opcodes

```
  0: 0x00CB [0x32] ExtData[1]->MainSpeed = 13* * 0.1
  1: 0x00CE [0x1F] MOVE_ENTITY: EventEntity moves to X=-0.066*, Z=42.914*, Y=-1.999*
  2: 0x00D6 [0x1F] MOVE_ENTITY: Update entity position (mode=1)
  3: 0x00D8 [0x6F] WAIT_FRAME_DELAY: Yield until WaitTime reaches zero
  4: 0x00D9 [0x1E] EventEntity looks at Phillieulais S Dieuffon (ID: 17105431/0x01050217) and starts talking
  5: 0x00DE [0x7B] Altennia (ID: 17105422/0x0105020E) stops talking
  6: 0x00E3 [0x6F] WAIT_FRAME_DELAY: Yield until WaitTime reaches zero
  7: 0x00E4 [0x70] WAIT_ENTITY_RENDER_FLAG: Wait while EventEntity->Render.Flags3 bit 2 is set (cancel turn if not)
  8: 0x00E5 [0x00] END_REQSTACK()
```

### Event 65535.10

#### Metadata

| Field        | Value    |
|--------------|----------|
| Entrypoint   | 0x00E6   |
| Data Size    | 15 bytes |
| Instructions | 5        |

```
      00 01 02 03 04 05 06 07  08 09 0A 0B 0C 0D 0E 0F
      -- -- -- -- -- -- -- --  -- -- -- -- -- -- -- --
00E0:                   32 04  80 1F 00 23 80 24 80 0C        2....#.$..
00F0: 80 1F 01 6F 00                                    ...o.           
```

#### Opcodes

```
  0: 0x00E6 [0x32] ExtData[1]->MainSpeed = 13* * 0.1
  1: 0x00E9 [0x1F] MOVE_ENTITY: EventEntity moves to X=0.633*, Z=41.188*, Y=-2.000*
  2: 0x00F1 [0x1F] MOVE_ENTITY: Update entity position (mode=1)
  3: 0x00F3 [0x6F] WAIT_FRAME_DELAY: Yield until WaitTime reaches zero
  4: 0x00F4 [0x00] END_REQSTACK()
```

### Event 65535.11

#### Metadata

| Field        | Value    |
|--------------|----------|
| Entrypoint   | 0x00F5   |
| Data Size    | 15 bytes |
| Instructions | 5        |

```
      00 01 02 03 04 05 06 07  08 09 0A 0B 0C 0D 0E 0F
      -- -- -- -- -- -- -- --  -- -- -- -- -- -- -- --
00F0:                32 04 80  1F 00 25 80 26 80 27 80       2....%.&.'.
0100: 1F 01 6F 00                                       ..o.            
```

#### Opcodes

```
  0: 0x00F5 [0x32] ExtData[1]->MainSpeed = 13* * 0.1
  1: 0x00F8 [0x1F] MOVE_ENTITY: EventEntity moves to X=0.166*, Z=32.780*, Y=-0.808*
  2: 0x0100 [0x1F] MOVE_ENTITY: Update entity position (mode=1)
  3: 0x0102 [0x6F] WAIT_FRAME_DELAY: Yield until WaitTime reaches zero
  4: 0x0103 [0x00] END_REQSTACK()
```

### Event 59

#### Metadata

| Field        | Value   |
|--------------|---------|
| Entrypoint   | 0x0104  |
| Data Size    | 1 bytes |
| Instructions | 1       |

```
      00 01 02 03 04 05 06 07  08 09 0A 0B 0C 0D 0E 0F
      -- -- -- -- -- -- -- --  -- -- -- -- -- -- -- --
0100:             00                                        .           
```

#### Opcodes

```
  0: 0x0104 [0x00] END_REQSTACK()
```

### Event 60

#### Metadata

| Field        | Value   |
|--------------|---------|
| Entrypoint   | 0x0105  |
| Data Size    | 1 bytes |
| Instructions | 1       |

```
      00 01 02 03 04 05 06 07  08 09 0A 0B 0C 0D 0E 0F
      -- -- -- -- -- -- -- --  -- -- -- -- -- -- -- --
0100:                00                                      .          
```

#### Opcodes

```
  0: 0x0105 [0x00] END_REQSTACK()
```

### Event 65535.12

#### Metadata

| Field        | Value    |
|--------------|----------|
| Entrypoint   | 0x0106   |
| Data Size    | 35 bytes |
| Instructions | 9        |

```
      00 01 02 03 04 05 06 07  08 09 0A 0B 0C 0D 0E 0F
      -- -- -- -- -- -- -- --  -- -- -- -- -- -- -- --
0100:                   03 00  00 25 10 03 02 00 27 10        ...%....'.
0110: 03 01 00 26 10 03 03 00  28 10 32 28 80 1F 00 00  ...&....(.2(....
0120: 00 02 00 01 00 1F 01 6F  00                       .......o.       
```

#### Opcodes

```
  0: 0x0106 [0x03] ExtData[1]->WorkLocal[0] = Work_Zone[37]
  1: 0x010B [0x03] ExtData[1]->WorkLocal[2] = Work_Zone[39]
  2: 0x0110 [0x03] ExtData[1]->WorkLocal[1] = Work_Zone[38]
  3: 0x0115 [0x03] ExtData[1]->WorkLocal[3] = Work_Zone[40]
  4: 0x011A [0x32] ExtData[1]->MainSpeed = 40* * 0.1
  5: 0x011D [0x1F] MOVE_ENTITY: EventEntity moves to X=ExtData[1]->WorkLocal[0], Z=ExtData[1]->WorkLocal[2], Y=ExtData[1]->WorkLocal[1]
  6: 0x0125 [0x1F] MOVE_ENTITY: Update entity position (mode=1)
  7: 0x0127 [0x6F] WAIT_FRAME_DELAY: Yield until WaitTime reaches zero
  8: 0x0128 [0x00] END_REQSTACK()
```

### Event 65535.13

#### Metadata

| Field        | Value    |
|--------------|----------|
| Entrypoint   | 0x0129   |
| Data Size    | 35 bytes |
| Instructions | 9        |

```
      00 01 02 03 04 05 06 07  08 09 0A 0B 0C 0D 0E 0F
      -- -- -- -- -- -- -- --  -- -- -- -- -- -- -- --
0120:                             03 00 00 25 10 03 02           ...%...
0130: 00 27 10 03 01 00 26 10  03 03 00 28 10 32 04 80  .'....&....(.2..
0140: 1F 00 00 00 02 00 01 00  1F 01 6F 00              ..........o.    
```

#### Opcodes

```
  0: 0x0129 [0x03] ExtData[1]->WorkLocal[0] = Work_Zone[37]
  1: 0x012E [0x03] ExtData[1]->WorkLocal[2] = Work_Zone[39]
  2: 0x0133 [0x03] ExtData[1]->WorkLocal[1] = Work_Zone[38]
  3: 0x0138 [0x03] ExtData[1]->WorkLocal[3] = Work_Zone[40]
  4: 0x013D [0x32] ExtData[1]->MainSpeed = 13* * 0.1
  5: 0x0140 [0x1F] MOVE_ENTITY: EventEntity moves to X=ExtData[1]->WorkLocal[0], Z=ExtData[1]->WorkLocal[2], Y=ExtData[1]->WorkLocal[1]
  6: 0x0148 [0x1F] MOVE_ENTITY: Update entity position (mode=1)
  7: 0x014A [0x6F] WAIT_FRAME_DELAY: Yield until WaitTime reaches zero
  8: 0x014B [0x00] END_REQSTACK()
```

### Event 630

#### Metadata

| Field        | Value   |
|--------------|---------|
| Entrypoint   | 0x014C  |
| Data Size    | 1 bytes |
| Instructions | 1       |

```
      00 01 02 03 04 05 06 07  08 09 0A 0B 0C 0D 0E 0F
      -- -- -- -- -- -- -- --  -- -- -- -- -- -- -- --
0140:                                      00                       .   
```

#### Opcodes

```
  0: 0x014C [0x00] END_REQSTACK()
```

### Event 631

#### Metadata

| Field        | Value   |
|--------------|---------|
| Entrypoint   | 0x014D  |
| Data Size    | 1 bytes |
| Instructions | 1       |

```
      00 01 02 03 04 05 06 07  08 09 0A 0B 0C 0D 0E 0F
      -- -- -- -- -- -- -- --  -- -- -- -- -- -- -- --
0140:                                         00                     .  
```

#### Opcodes

```
  0: 0x014D [0x00] END_REQSTACK()
```

### Event 113

#### Metadata

| Field        | Value   |
|--------------|---------|
| Entrypoint   | 0x014E  |
| Data Size    | 1 bytes |
| Instructions | 1       |

```
      00 01 02 03 04 05 06 07  08 09 0A 0B 0C 0D 0E 0F
      -- -- -- -- -- -- -- --  -- -- -- -- -- -- -- --
0140:                                            00                   . 
```

#### Opcodes

```
  0: 0x014E [0x00] END_REQSTACK()
```

### Event 114

#### Metadata

| Field        | Value   |
|--------------|---------|
| Entrypoint   | 0x014F  |
| Data Size    | 1 bytes |
| Instructions | 1       |

```
      00 01 02 03 04 05 06 07  08 09 0A 0B 0C 0D 0E 0F
      -- -- -- -- -- -- -- --  -- -- -- -- -- -- -- --
0140:                                               00                 .
```

#### Opcodes

```
  0: 0x014F [0x00] END_REQSTACK()
```

### Event 65535.14

#### Metadata

| Field        | Value    |
|--------------|----------|
| Entrypoint   | 0x0150   |
| Data Size    | 21 bytes |
| Instructions | 5        |

```
      00 01 02 03 04 05 06 07  08 09 0A 0B 0C 0D 0E 0F
      -- -- -- -- -- -- -- --  -- -- -- -- -- -- -- --
0150: 1F 00 29 80 2A 80 2B 80  1F 01 6F 4A 0E 02 05 01  ..).*.+...oJ....
0160: F0 FF FF 7F 00                                    .....           
```

#### Opcodes

```
  0: 0x0150 [0x1F] MOVE_ENTITY: EventEntity moves to X=-2.978*, Z=-86.211*, Y=1.999*
  1: 0x0158 [0x1F] MOVE_ENTITY: Update entity position (mode=1)
  2: 0x015A [0x6F] WAIT_FRAME_DELAY: Yield until WaitTime reaches zero
  3: 0x015B [0x4A] Altennia (ID: 17105422/0x0105020E) looks at LocalPlayer
  4: 0x0164 [0x00] END_REQSTACK()
```

### Event 65535.15

#### Metadata

| Field        | Value    |
|--------------|----------|
| Entrypoint   | 0x0165   |
| Data Size    | 11 bytes |
| Instructions | 3        |

```
      00 01 02 03 04 05 06 07  08 09 0A 0B 0C 0D 0E 0F
      -- -- -- -- -- -- -- --  -- -- -- -- -- -- -- --
0160:                1F 00 2C  80 2D 80 2B 80 1F 01 00       ..,.-.+....
```

#### Opcodes

```
  0: 0x0165 [0x1F] MOVE_ENTITY: EventEntity moves to X=13.375*, Z=-80.221*, Y=1.999*
  1: 0x016D [0x1F] MOVE_ENTITY: Update entity position (mode=1)
  2: 0x016F [0x00] END_REQSTACK()
```

### Event 65535.16

#### Metadata

| Field        | Value   |
|--------------|---------|
| Entrypoint   | 0x0170  |
| Data Size    | 1 bytes |
| Instructions | 1       |

```
      00 01 02 03 04 05 06 07  08 09 0A 0B 0C 0D 0E 0F
      -- -- -- -- -- -- -- --  -- -- -- -- -- -- -- --
0170: 00                                                .               
```

#### Opcodes

```
  0: 0x0170 [0x00] END_REQSTACK()
```

### Event 65535.17

#### Metadata

| Field        | Value    |
|--------------|----------|
| Entrypoint   | 0x0171   |
| Data Size    | 18 bytes |
| Instructions | 4        |

```
      00 01 02 03 04 05 06 07  08 09 0A 0B 0C 0D 0E 0F
      -- -- -- -- -- -- -- --  -- -- -- -- -- -- -- --
0170:    22 00 2F 00 F8 FF FF  7F 6C F8 FF FF 7F 2E 80   "./.....l......
0180: 2F 80 00                                          /..             
```

#### Opcodes

```
  0: 0x0171 [0x22] ENTITY_HIDE_FLAG(enabled=0x00)
  1: 0x0173 [0x2F] EventEntity->Render.Flags0 &= ~0x80000 // Bit 19
  2: 0x0179 [0x6C] FADE_ENTITY_COLOR(entity_id=EventEntity, end_alpha=0*, fade_time=1*)
  3: 0x0182 [0x00] END_REQSTACK()
```

### Event 65535.18

#### Metadata

| Field        | Value    |
|--------------|----------|
| Entrypoint   | 0x0183   |
| Data Size    | 10 bytes |
| Instructions | 2        |

```
      00 01 02 03 04 05 06 07  08 09 0A 0B 0C 0D 0E 0F
      -- -- -- -- -- -- -- --  -- -- -- -- -- -- -- --
0180:          6C F8 FF FF 7F  30 80 2F 80 00              l....0./..   
```

#### Opcodes

```
  0: 0x0183 [0x6C] FADE_ENTITY_COLOR(entity_id=EventEntity, end_alpha=128*, fade_time=1*)
  1: 0x018C [0x00] END_REQSTACK()
```

### Event 65535.19

#### Metadata

| Field        | Value   |
|--------------|---------|
| Entrypoint   | 0x018D  |
| Data Size    | 9 bytes |
| Instructions | 3       |

```
      00 01 02 03 04 05 06 07  08 09 0A 0B 0C 0D 0E 0F
      -- -- -- -- -- -- -- --  -- -- -- -- -- -- -- --
0180:                                         22 00 2F               "./
0190: 00 F8 FF FF 7F 00                                 ......          
```

#### Opcodes

```
  0: 0x018D [0x22] ENTITY_HIDE_FLAG(enabled=0x00)
  1: 0x018F [0x2F] EventEntity->Render.Flags0 &= ~0x80000 // Bit 19
  2: 0x0195 [0x00] END_REQSTACK()
```

### Event 65535.20

#### Metadata

| Field        | Value   |
|--------------|---------|
| Entrypoint   | 0x0196  |
| Data Size    | 9 bytes |
| Instructions | 3       |

```
      00 01 02 03 04 05 06 07  08 09 0A 0B 0C 0D 0E 0F
      -- -- -- -- -- -- -- --  -- -- -- -- -- -- -- --
0190:                   22 01  2F 01 F8 FF FF 7F 00           "./...... 
```

#### Opcodes

```
  0: 0x0196 [0x22] ENTITY_HIDE_FLAG(enabled=0x01)
  1: 0x0198 [0x2F] EventEntity->Render.Flags0 |= 0x80000 // Bit 19
  2: 0x019E [0x00] END_REQSTACK()
```

### Event 65535.21

#### Metadata

| Field        | Value    |
|--------------|----------|
| Entrypoint   | 0x019F   |
| Data Size    | 10 bytes |
| Instructions | 2        |

```
      00 01 02 03 04 05 06 07  08 09 0A 0B 0C 0D 0E 0F
      -- -- -- -- -- -- -- --  -- -- -- -- -- -- -- --
0190:                                               6C                 l
01A0: F8 FF FF 7F 2E 80 2F 80  00                       ....../..       
```

#### Opcodes

```
  0: 0x019F [0x6C] FADE_ENTITY_COLOR(entity_id=EventEntity, end_alpha=0*, fade_time=1*)
  1: 0x01A8 [0x00] END_REQSTACK()
```

### Event 65535.22

#### Metadata

| Field        | Value    |
|--------------|----------|
| Entrypoint   | 0x01A9   |
| Data Size    | 10 bytes |
| Instructions | 2        |

```
      00 01 02 03 04 05 06 07  08 09 0A 0B 0C 0D 0E 0F
      -- -- -- -- -- -- -- --  -- -- -- -- -- -- -- --
01A0:                             6C F8 FF FF 7F 30 80           l....0.
01B0: 2F 80 00                                          /..             
```

#### Opcodes

```
  0: 0x01A9 [0x6C] FADE_ENTITY_COLOR(entity_id=EventEntity, end_alpha=128*, fade_time=1*)
  1: 0x01B2 [0x00] END_REQSTACK()
```
