# 17105663 - 05

## Common Data

| Field            | Value                            |
|------------------|----------------------------------|
| Zone             | Southern San d'Oria [S] (ID: 80) |
| Block Size       | 180 bytes                        |
| Total Events     | 6                                |
| References Count | 12                               |

## List of Events

| Event ID                 | Entrypoint   |   Size |   Instructions |
|--------------------------|--------------|--------|----------------|
| [65535](#event-65535)    | 0x0000       |      1 |              1 |
| [176](#event-176)        | 0x0001       |      1 |              1 |
| [65535.1](#event-655351) | 0x0002       |     21 |              2 |
| [65535.2](#event-655352) | 0x0017       |     25 |              3 |
| [65535.3](#event-655353) | 0x0030       |     21 |              2 |
| [65535.4](#event-655354) | 0x0045       |     21 |              2 |

## DAT References (imed_data)

|   Index | Hex Value   |   Dec Value |
|---------|-------------|-------------|
|       0 | 0x0004      |           4 |
|       1 | 0x0003      |           3 |
|       2 | 0x0000      |           0 |
|       3 | 0x0015      |          21 |
|       4 | 0x0001      |           1 |
|       5 | 0x0064      |         100 |
|       6 | 0x002C      |          44 |
|       7 | 0x000C      |          12 |
|       8 | 0x000D      |          13 |
|       9 | 0x0002      |           2 |
|      10 | 0x0009      |           9 |
|      11 | 0x00D3      |         211 |

## Events

### Event 65535

#### Metadata

| Field        | Value   |
|--------------|---------|
| Entrypoint   | 0x0000  |
| Data Size    | 1 bytes |
| Instructions | 1       |

```
      00 01 02 03 04 05 06 07  08 09 0A 0B 0C 0D 0E 0F
      -- -- -- -- -- -- -- --  -- -- -- -- -- -- -- --
0000: 00                                                .               
```

#### Opcodes

```
  0: 0x0000 [0x00] END_REQSTACK()
```

### Event 176

#### Metadata

| Field        | Value   |
|--------------|---------|
| Entrypoint   | 0x0001  |
| Data Size    | 1 bytes |
| Instructions | 1       |

```
      00 01 02 03 04 05 06 07  08 09 0A 0B 0C 0D 0E 0F
      -- -- -- -- -- -- -- --  -- -- -- -- -- -- -- --
0000:    00                                              .              
```

#### Opcodes

```
  0: 0x0001 [0x00] END_REQSTACK()
```

### Event 65535.1

#### Metadata

| Field        | Value    |
|--------------|----------|
| Entrypoint   | 0x0002   |
| Data Size    | 21 bytes |
| Instructions | 2        |

```
      00 01 02 03 04 05 06 07  08 09 0A 0B 0C 0D 0E 0F
      -- -- -- -- -- -- -- --  -- -- -- -- -- -- -- --
0000:       B6 0B 00 80 01 80  02 80 03 80 03 80 03 80    ..............
0010: 03 80 02 80 02 80 00                              .......         
```

#### Opcodes

```
  0: 0x0002 [0xB6] ENTITY_APPEARANCE_HANDLER(case=Full entity look, race=4*, hair=3*, head=0*, body=21*, hands=21*, legs=21*, feet=21*, main=0*, sub=0*)
  1: 0x0016 [0x00] END_REQSTACK()
```

### Event 65535.2

#### Metadata

| Field        | Value    |
|--------------|----------|
| Entrypoint   | 0x0017   |
| Data Size    | 25 bytes |
| Instructions | 3        |

```
      00 01 02 03 04 05 06 07  08 09 0A 0B 0C 0D 0E 0F
      -- -- -- -- -- -- -- --  -- -- -- -- -- -- -- --
0010:                      B6  0B 04 80 02 80 02 80 02         .........
0020: 80 02 80 02 80 02 80 02  80 02 80 B6 0F 05 80 00  ................
```

#### Opcodes

```
  0: 0x0017 [0xB6] ENTITY_APPEARANCE_HANDLER(case=Full entity look, race=1*, hair=0*, head=0*, body=0*, hands=0*, legs=0*, feet=0*, main=0*, sub=0*)
  1: 0x002B [0xB6] ENTITY_APPEARANCE_HANDLER(case=Model size, value=100*)
  2: 0x002F [0x00] END_REQSTACK()
```

### Event 65535.3

#### Metadata

| Field        | Value    |
|--------------|----------|
| Entrypoint   | 0x0030   |
| Data Size    | 21 bytes |
| Instructions | 2        |

```
      00 01 02 03 04 05 06 07  08 09 0A 0B 0C 0D 0E 0F
      -- -- -- -- -- -- -- --  -- -- -- -- -- -- -- --
0030: B6 0B 01 80 01 80 02 80  06 80 07 80 08 80 08 80  ................
0040: 02 80 02 80 00                                    .....           
```

#### Opcodes

```
  0: 0x0030 [0xB6] ENTITY_APPEARANCE_HANDLER(case=Full entity look, race=3*, hair=3*, head=0*, body=44*, hands=12*, legs=13*, feet=13*, main=0*, sub=0*)
  1: 0x0044 [0x00] END_REQSTACK()
```

### Event 65535.4

#### Metadata

| Field        | Value    |
|--------------|----------|
| Entrypoint   | 0x0045   |
| Data Size    | 21 bytes |
| Instructions | 2        |

```
      00 01 02 03 04 05 06 07  08 09 0A 0B 0C 0D 0E 0F
      -- -- -- -- -- -- -- --  -- -- -- -- -- -- -- --
0040:                B6 0B 09  80 0A 80 0B 80 0B 80 0B       ...........
0050: 80 0B 80 0B 80 02 80 02  80 00                    ..........      
```

#### Opcodes

```
  0: 0x0045 [0xB6] ENTITY_APPEARANCE_HANDLER(case=Full entity look, race=2*, hair=9*, head=211*, body=211*, hands=211*, legs=211*, feet=211*, main=0*, sub=0*)
  1: 0x0059 [0x00] END_REQSTACK()
```
