# 17105389 - Rongelouts N Distaud

## Common Data

| Field            | Value                            |
|------------------|----------------------------------|
| Zone             | Southern San d'Oria [S] (ID: 80) |
| Block Size       | 2648 bytes                       |
| Total Events     | 92                               |
| References Count | 120                              |

## List of Events

| Event ID                   | Entrypoint   |   Size |   Instructions |
|----------------------------|--------------|--------|----------------|
| [65535](#event-65535)      | 0x0000       |      1 |              1 |
| [604](#event-604)          | 0x0001       |     11 |              5 |
| [25](#event-25)            | 0x000C       |     20 |             10 |
| [12](#event-12)            | 0x0020       |      1 |              1 |
| [624](#event-624)          | 0x0021       |      1 |              1 |
| [628](#event-628)          | 0x0022       |     23 |              7 |
| [632](#event-632)          | 0x0039       |      1 |              1 |
| [633](#event-633)          | 0x003A       |      1 |              1 |
| [65535.1](#event-655351)   | 0x003B       |     35 |              9 |
| [65535.2](#event-655352)   | 0x005E       |     35 |              9 |
| [649](#event-649)          | 0x0081       |      1 |              1 |
| [650](#event-650)          | 0x0082       |      1 |              1 |
| [644](#event-644)          | 0x0083       |     39 |             11 |
| [646](#event-646)          | 0x00AA       |     23 |              7 |
| [652](#event-652)          | 0x00C1       |     29 |              9 |
| [654](#event-654)          | 0x00DE       |     37 |             11 |
| [65535.3](#event-655353)   | 0x0103       |     21 |              2 |
| [65535.4](#event-655354)   | 0x0118       |     21 |              2 |
| [168](#event-168)          | 0x012D       |     11 |              5 |
| [137](#event-137)          | 0x0138       |      1 |              1 |
| [143](#event-143)          | 0x0139       |      1 |              1 |
| [144](#event-144)          | 0x013A       |      1 |              1 |
| [150](#event-150)          | 0x013B       |      1 |              1 |
| [138](#event-138)          | 0x013C       |      1 |              1 |
| [65535.5](#event-655355)   | 0x013D       |     20 |              6 |
| [65535.6](#event-655356)   | 0x0151       |     20 |              6 |
| [65535.7](#event-655357)   | 0x0165       |     10 |              2 |
| [65535.8](#event-655358)   | 0x016F       |     10 |              2 |
| [151](#event-151)          | 0x0179       |      1 |              1 |
| [171](#event-171)          | 0x017A       |      1 |              1 |
| [172](#event-172)          | 0x017B       |      1 |              1 |
| [174](#event-174)          | 0x017C       |     25 |              9 |
| [65535.9](#event-655359)   | 0x0195       |     15 |              5 |
| [65535.10](#event-6553510) | 0x01A4       |     34 |              8 |
| [65535.11](#event-6553511) | 0x01C6       |     10 |              2 |
| [65535.12](#event-6553512) | 0x01D0       |     10 |              2 |
| [65535.13](#event-6553513) | 0x01DA       |     20 |              5 |
| [65535.14](#event-6553514) | 0x01EE       |     19 |              4 |
| [65535.15](#event-6553515) | 0x0201       |     19 |              3 |
| [65535.16](#event-6553516) | 0x0214       |     21 |              3 |
| [65535.17](#event-6553517) | 0x0229       |     21 |              3 |
| [65535.18](#event-6553518) | 0x023E       |     45 |             10 |
| [65535.19](#event-6553519) | 0x026B       |     45 |             10 |
| [65535.20](#event-6553520) | 0x0298       |     69 |             14 |
| [65535.21](#event-6553521) | 0x02DD       |     11 |              3 |
| [65535.22](#event-6553522) | 0x02E8       |     13 |              3 |
| [65535.23](#event-6553523) | 0x02F5       |     13 |              3 |
| [65535.24](#event-6553524) | 0x0302       |     58 |             14 |
| [65535.25](#event-6553525) | 0x033C       |    128 |             22 |
| [65535.26](#event-6553526) | 0x03BC       |     45 |             10 |
| [65535.27](#event-6553527) | 0x03E9       |     35 |              8 |
| [65535.28](#event-6553528) | 0x040C       |     21 |              2 |
| [65535.29](#event-6553529) | 0x0421       |     21 |              2 |
| [65535.30](#event-6553530) | 0x0436       |     21 |              2 |
| [65535.31](#event-6553531) | 0x044B       |     21 |              2 |
| [65535.32](#event-6553532) | 0x0460       |     21 |              2 |
| [65535.33](#event-6553533) | 0x0475       |     21 |              2 |
| [65535.34](#event-6553534) | 0x048A       |     21 |              2 |
| [65535.35](#event-6553535) | 0x049F       |     21 |              2 |
| [65535.36](#event-6553536) | 0x04B4       |     21 |              2 |
| [65535.37](#event-6553537) | 0x04C9       |     21 |              2 |
| [65535.38](#event-6553538) | 0x04DE       |     21 |              2 |
| [65535.39](#event-6553539) | 0x04F3       |     21 |              2 |
| [65535.40](#event-6553540) | 0x0508       |     21 |              2 |
| [65535.41](#event-6553541) | 0x051D       |     21 |              2 |
| [65535.42](#event-6553542) | 0x0532       |     21 |              2 |
| [65535.43](#event-6553543) | 0x0547       |     21 |              2 |
| [65535.44](#event-6553544) | 0x055C       |     21 |              2 |
| [65535.45](#event-6553545) | 0x0571       |     21 |              2 |
| [65535.46](#event-6553546) | 0x0586       |     21 |              2 |
| [65535.47](#event-6553547) | 0x059B       |     21 |              2 |
| [65535.48](#event-6553548) | 0x05B0       |     21 |              2 |
| [65535.49](#event-6553549) | 0x05C5       |     21 |              2 |
| [65535.50](#event-6553550) | 0x05DA       |     21 |              2 |
| [65535.51](#event-6553551) | 0x05EF       |     21 |              2 |
| [65535.52](#event-6553552) | 0x0604       |     21 |              2 |
| [65535.53](#event-6553553) | 0x0619       |     21 |              2 |
| [65535.54](#event-6553554) | 0x062E       |     21 |              2 |
| [65535.55](#event-6553555) | 0x0643       |     21 |              2 |
| [65535.56](#event-6553556) | 0x0658       |     21 |              2 |
| [65535.57](#event-6553557) | 0x066D       |     21 |              2 |
| [65535.58](#event-6553558) | 0x0682       |     21 |              2 |
| [65535.59](#event-6553559) | 0x0697       |     21 |              2 |
| [65535.60](#event-6553560) | 0x06AC       |      3 |              2 |
| [65535.61](#event-6553561) | 0x06AF       |      3 |              2 |
| [65535.62](#event-6553562) | 0x06B2       |      1 |              1 |
| [65535.63](#event-6553563) | 0x06B3       |     18 |              4 |
| [65535.64](#event-6553564) | 0x06C5       |     10 |              2 |
| [65535.65](#event-6553565) | 0x06CF       |      9 |              3 |
| [65535.66](#event-6553566) | 0x06D8       |      9 |              3 |
| [65535.67](#event-6553567) | 0x06E1       |     10 |              2 |
| [65535.68](#event-6553568) | 0x06EB       |     10 |              2 |

## DAT References (imed_data)

|   Index | Hex Value   |   Dec Value |
|---------|-------------|-------------|
|       0 | 0x2F40      |       12096 |
|       1 | 0x2AC7      |       10951 |
|       2 | 0x2AC8      |       10952 |
|       3 | 0x2AC9      |       10953 |
|       4 | 0x3117      |       12567 |
|       5 | 0x3118      |       12568 |
|       6 | 0x0028      |          40 |
|       7 | 0x000D      |          13 |
|       8 | 0x2FB5      |       12213 |
|       9 | 0x2FB6      |       12214 |
|      10 | 0x2FB7      |       12215 |
|      11 | 0x2FB9      |       12217 |
|      12 | 0x2FE7      |       12263 |
|      13 | 0x300A      |       12298 |
|      14 | 0x300B      |       12299 |
|      15 | 0x0003      |           3 |
|      16 | 0x000F      |          15 |
|      17 | 0x0038      |          56 |
|      18 | 0x0029      |          41 |
|      19 | 0x00D9      |         217 |
|      20 | 0x000C      |          12 |
|      21 | 0x0000      |           0 |
|      22 | 0x011F      |         287 |
|      23 | 0x3830      |       14384 |
|      24 | 0x1408      |        5128 |
|      25 | 0xFFFFA959  |  4294945113 |
|      26 | 0x07CF      |        1999 |
|      27 | 0xFFFFAA0A  |  4294945290 |
|      28 | 0x0080      |         128 |
|      29 | 0x0001      |           1 |
|      30 | 0x38BB      |       14523 |
|      31 | 0x38BC      |       14524 |
|      32 | 0xFFFFD4E1  |  4294956257 |
|      33 | 0xFFFF894F  |  4294936911 |
|      34 | 0x0576      |        1398 |
|      35 | 0x000A      |          10 |
|      36 | 0xFFFFE093  |  4294959251 |
|      37 | 0xFFFF92A9  |  4294939305 |
|      38 | 0xFFFFE464  |  4294960228 |
|      39 | 0xFFFFA288  |  4294943368 |
|      40 | 0x031E      |         798 |
|      41 | 0xFFFFAC03  |  4294945795 |
|      42 | 0x156B4     |       87732 |
|      43 | 0x1C4EE     |      115950 |
|      44 | 0x03E8      |        1000 |
|      45 | 0x18C87     |      101511 |
|      46 | 0x189B0     |      100784 |
|      47 | 0x03E7      |         999 |
|      48 | 0x003C      |          60 |
|      49 | 0x000B      |          11 |
|      50 | 0x148C5     |       84165 |
|      51 | 0x1D413     |      119827 |
|      52 | 0x0200      |         512 |
|      53 | 0x147DF     |       83935 |
|      54 | 0x1DA56     |      121430 |
|      55 | 0x150EE     |       86254 |
|      56 | 0x1BBE7     |      113639 |
|      57 | 0x14B01     |       84737 |
|      58 | 0x1B917     |      112919 |
|      59 | 0x14373     |       82803 |
|      60 | 0x1B869     |      112745 |
|      61 | 0x1615C     |       90460 |
|      62 | 0x1B0BB     |      110779 |
|      63 | 0x16B7C     |       93052 |
|      64 | 0x1B930     |      112944 |
|      65 | 0x1746D     |       95341 |
|      66 | 0x1BC23     |      113699 |
|      67 | 0x15F48     |       89928 |
|      68 | 0x1B5C5     |      112069 |
|      69 | 0x15BC3     |       89027 |
|      70 | 0x1C9CF     |      117199 |
|      71 | 0x02EE      |         750 |
|      72 | 0x15B58     |       88920 |
|      73 | 0x1CCAE     |      117934 |
|      74 | 0x15CE7     |       89319 |
|      75 | 0x1D3BA     |      119738 |
|      76 | 0x171B4     |       94644 |
|      77 | 0x1C020     |      114720 |
|      78 | 0x062B      |        1579 |
|      79 | 0x00B4      |         180 |
|      80 | 0x001E      |          30 |
|      81 | 0x0007      |           7 |
|      82 | 0x005A      |          90 |
|      83 | 0x0050      |          80 |
|      84 | 0x0024      |          36 |
|      85 | 0x0064      |         100 |
|      86 | 0x0005      |           5 |
|      87 | 0x000E      |          14 |
|      88 | 0x162A9     |       90793 |
|      89 | 0x1B7C9     |      112585 |
|      90 | 0x15933     |       88371 |
|      91 | 0x1BEAB     |      114347 |
|      92 | 0x01F4      |         500 |
|      93 | 0x14A19     |       84505 |
|      94 | 0x1BCE0     |      113888 |
|      95 | 0x15A3C     |       88636 |
|      96 | 0x1B838     |      112696 |
|      97 | 0x0017      |          23 |
|      98 | 0x0002      |           2 |
|      99 | 0x0068      |         104 |
|     100 | 0x0018      |          24 |
|     101 | 0x0006      |           6 |
|     102 | 0x0004      |           4 |
|     103 | 0x0015      |          21 |
|     104 | 0x0008      |           8 |
|     105 | 0x007D      |         125 |
|     106 | 0x0060      |          96 |
|     107 | 0x00DD      |         221 |
|     108 | 0x0097      |         151 |
|     109 | 0x0009      |           9 |
|     110 | 0x00D3      |         211 |
|     111 | 0x00A4      |         164 |
|     112 | 0x0045      |          69 |
|     113 | 0x002F      |          47 |
|     114 | 0x001A      |          26 |
|     115 | 0x0072      |         114 |
|     116 | 0x003A      |          58 |
|     117 | 0x00D2      |         210 |
|     118 | 0x00FB      |         251 |
|     119 | 0x004C      |          76 |

## String References

- **10951**: A good luck charm from the Young Griffons?
- **10952**: I need nothing more than my sword arm to protect me from harm! And you can pass that on to those impudent young maggots!
- **10953**: Hmph, I suppose it was offered in good faith. I shall take it, then.
- **12096**: I am Rongelouts, commander of the Knights of the Iron Ram of the Royal Knights of San d'Oria. I shall personally set straight any cowards in our ranks. It would not be long before they would come to fear my sword more than beastman claw!
- **14384**: Make haste to Xarcabard, <Player>, to the Cardinal Stags' encampment. Dubious rumors aside, I would know the soundness of their morale.

## Events

### Event 65535

#### Metadata

| Field        | Value   |
|--------------|---------|
| Entrypoint   | 0x0000  |
| Data Size    | 1 bytes |
| Instructions | 1       |

```
      00 01 02 03 04 05 06 07  08 09 0A 0B 0C 0D 0E 0F
      -- -- -- -- -- -- -- --  -- -- -- -- -- -- -- --
0000: 00                                                .               
```

#### Opcodes

```
  0: 0x0000 [0x00] END_REQSTACK()
```

### Event 604

#### Metadata

| Field        | Value    |
|--------------|----------|
| Entrypoint   | 0x0001   |
| Data Size    | 11 bytes |
| Instructions | 5        |

```
      00 01 02 03 04 05 06 07  08 09 0A 0B 0C 0D 0E 0F
      -- -- -- -- -- -- -- --  -- -- -- -- -- -- -- --
0000:    1E F0 FF FF 7F 1D 00  80 23 21 00               ........#!.    
```

#### Opcodes

```
  0: 0x0001 [0x1E] EventEntity looks at LocalPlayer and starts talking
  1: 0x0006 [0x1D] PRINT_EVENT_MESSAGE(message_id=12096*)
    → "I am Rongelouts, commander of the Knights of the Iron Ram of the Royal Knights of San d'Oria. I shall personally set straight any cowards in our ranks. It would not be long before they would come to fear my sword more than beastman claw!"
  2: 0x0009 [0x23] WAIT_FOR_DIALOG_INTERACTION
  3: 0x000A [0x21] END_EVENT
  4: 0x000B [0x00] END_REQSTACK()
```

### Event 25

#### Metadata

| Field        | Value    |
|--------------|----------|
| Entrypoint   | 0x000C   |
| Data Size    | 20 bytes |
| Instructions | 10       |

```
      00 01 02 03 04 05 06 07  08 09 0A 0B 0C 0D 0E 0F
      -- -- -- -- -- -- -- --  -- -- -- -- -- -- -- --
0000:                                      42 1E F0 FF              B...
0010: FF 7F 1D 01 80 23 1D 02  80 23 1D 03 80 23 21 00  .....#...#...#!.
```

#### Opcodes

```
  0: 0x000C [0x42] SET_CLI_EVENT_CANCEL_DATA()
  1: 0x000D [0x1E] EventEntity looks at LocalPlayer and starts talking
  2: 0x0012 [0x1D] PRINT_EVENT_MESSAGE(message_id=10951*)
    → "A good luck charm from the Young Griffons?"
  3: 0x0015 [0x23] WAIT_FOR_DIALOG_INTERACTION
  4: 0x0016 [0x1D] PRINT_EVENT_MESSAGE(message_id=10952*)
    → "I need nothing more than my sword arm to protect me from harm! And you can pass that on to those impudent young maggots!"
  5: 0x0019 [0x23] WAIT_FOR_DIALOG_INTERACTION
  6: 0x001A [0x1D] PRINT_EVENT_MESSAGE(message_id=10953*)
    → "Hmph, I suppose it was offered in good faith. I shall take it, then."
  7: 0x001D [0x23] WAIT_FOR_DIALOG_INTERACTION
  8: 0x001E [0x21] END_EVENT
  9: 0x001F [0x00] END_REQSTACK()
```

### Event 12

#### Metadata

| Field        | Value   |
|--------------|---------|
| Entrypoint   | 0x0020  |
| Data Size    | 1 bytes |
| Instructions | 1       |

```
      00 01 02 03 04 05 06 07  08 09 0A 0B 0C 0D 0E 0F
      -- -- -- -- -- -- -- --  -- -- -- -- -- -- -- --
0020: 00                                                .               
```

#### Opcodes

```
  0: 0x0020 [0x00] END_REQSTACK()
```

### Event 624

#### Metadata

| Field        | Value   |
|--------------|---------|
| Entrypoint   | 0x0021  |
| Data Size    | 1 bytes |
| Instructions | 1       |

```
      00 01 02 03 04 05 06 07  08 09 0A 0B 0C 0D 0E 0F
      -- -- -- -- -- -- -- --  -- -- -- -- -- -- -- --
0020:    00                                              .              
```

#### Opcodes

```
  0: 0x0021 [0x00] END_REQSTACK()
```

### Event 628

#### Metadata

| Field        | Value    |
|--------------|----------|
| Entrypoint   | 0x0022   |
| Data Size    | 23 bytes |
| Instructions | 7        |

```
      00 01 02 03 04 05 06 07  08 09 0A 0B 0C 0D 0E 0F
      -- -- -- -- -- -- -- --  -- -- -- -- -- -- -- --
0020:       1E F0 FF FF 7F 2B  ED 01 05 01 04 80 23 2B    .....+......#+
0030: ED 01 05 01 05 80 23 21  00                       ......#!.       
```

#### Opcodes

```
  0: 0x0022 [0x1E] EventEntity looks at LocalPlayer and starts talking
  1: 0x0027 [0x2B] Rongelouts N Distaud (ID: 17105389/0x010501ED) [12567*]:
    → "Conspiring with those young maggots to plant an eavesdropping device on a superior officer!? Absolutely unforgivable!"
  2: 0x002E [0x23] WAIT_FOR_DIALOG_INTERACTION
  3: 0x002F [0x2B] Rongelouts N Distaud (ID: 17105389/0x010501ED) [12568*]:
    → "Hmph... Considering the outcome, I shall pardon your transgression just this once."
  4: 0x0036 [0x23] WAIT_FOR_DIALOG_INTERACTION
  5: 0x0037 [0x21] END_EVENT
  6: 0x0038 [0x00] END_REQSTACK()
```

### Event 632

#### Metadata

| Field        | Value   |
|--------------|---------|
| Entrypoint   | 0x0039  |
| Data Size    | 1 bytes |
| Instructions | 1       |

```
      00 01 02 03 04 05 06 07  08 09 0A 0B 0C 0D 0E 0F
      -- -- -- -- -- -- -- --  -- -- -- -- -- -- -- --
0030:                             00                             .      
```

#### Opcodes

```
  0: 0x0039 [0x00] END_REQSTACK()
```

### Event 633

#### Metadata

| Field        | Value   |
|--------------|---------|
| Entrypoint   | 0x003A  |
| Data Size    | 1 bytes |
| Instructions | 1       |

```
      00 01 02 03 04 05 06 07  08 09 0A 0B 0C 0D 0E 0F
      -- -- -- -- -- -- -- --  -- -- -- -- -- -- -- --
0030:                                00                           .     
```

#### Opcodes

```
  0: 0x003A [0x00] END_REQSTACK()
```

### Event 65535.1

#### Metadata

| Field        | Value    |
|--------------|----------|
| Entrypoint   | 0x003B   |
| Data Size    | 35 bytes |
| Instructions | 9        |

```
      00 01 02 03 04 05 06 07  08 09 0A 0B 0C 0D 0E 0F
      -- -- -- -- -- -- -- --  -- -- -- -- -- -- -- --
0030:                                   03 00 00 25 10             ...%.
0040: 03 02 00 27 10 03 01 00  26 10 03 03 00 28 10 32  ...'....&....(.2
0050: 06 80 1F 00 00 00 02 00  01 00 1F 01 6F 00        ............o.  
```

#### Opcodes

```
  0: 0x003B [0x03] ExtData[1]->WorkLocal[0] = Work_Zone[37]
  1: 0x0040 [0x03] ExtData[1]->WorkLocal[2] = Work_Zone[39]
  2: 0x0045 [0x03] ExtData[1]->WorkLocal[1] = Work_Zone[38]
  3: 0x004A [0x03] ExtData[1]->WorkLocal[3] = Work_Zone[40]
  4: 0x004F [0x32] ExtData[1]->MainSpeed = 40* * 0.1
  5: 0x0052 [0x1F] MOVE_ENTITY: EventEntity moves to X=ExtData[1]->WorkLocal[0], Z=ExtData[1]->WorkLocal[2], Y=ExtData[1]->WorkLocal[1]
  6: 0x005A [0x1F] MOVE_ENTITY: Update entity position (mode=1)
  7: 0x005C [0x6F] WAIT_FRAME_DELAY: Yield until WaitTime reaches zero
  8: 0x005D [0x00] END_REQSTACK()
```

### Event 65535.2

#### Metadata

| Field        | Value    |
|--------------|----------|
| Entrypoint   | 0x005E   |
| Data Size    | 35 bytes |
| Instructions | 9        |

```
      00 01 02 03 04 05 06 07  08 09 0A 0B 0C 0D 0E 0F
      -- -- -- -- -- -- -- --  -- -- -- -- -- -- -- --
0050:                                            03 00                ..
0060: 00 25 10 03 02 00 27 10  03 01 00 26 10 03 03 00  .%....'....&....
0070: 28 10 32 07 80 1F 00 00  00 02 00 01 00 1F 01 6F  (.2............o
0080: 00                                                .               
```

#### Opcodes

```
  0: 0x005E [0x03] ExtData[1]->WorkLocal[0] = Work_Zone[37]
  1: 0x0063 [0x03] ExtData[1]->WorkLocal[2] = Work_Zone[39]
  2: 0x0068 [0x03] ExtData[1]->WorkLocal[1] = Work_Zone[38]
  3: 0x006D [0x03] ExtData[1]->WorkLocal[3] = Work_Zone[40]
  4: 0x0072 [0x32] ExtData[1]->MainSpeed = 13* * 0.1
  5: 0x0075 [0x1F] MOVE_ENTITY: EventEntity moves to X=ExtData[1]->WorkLocal[0], Z=ExtData[1]->WorkLocal[2], Y=ExtData[1]->WorkLocal[1]
  6: 0x007D [0x1F] MOVE_ENTITY: Update entity position (mode=1)
  7: 0x007F [0x6F] WAIT_FRAME_DELAY: Yield until WaitTime reaches zero
  8: 0x0080 [0x00] END_REQSTACK()
```

### Event 649

#### Metadata

| Field        | Value   |
|--------------|---------|
| Entrypoint   | 0x0081  |
| Data Size    | 1 bytes |
| Instructions | 1       |

```
      00 01 02 03 04 05 06 07  08 09 0A 0B 0C 0D 0E 0F
      -- -- -- -- -- -- -- --  -- -- -- -- -- -- -- --
0080:    00                                              .              
```

#### Opcodes

```
  0: 0x0081 [0x00] END_REQSTACK()
```

### Event 650

#### Metadata

| Field        | Value   |
|--------------|---------|
| Entrypoint   | 0x0082  |
| Data Size    | 1 bytes |
| Instructions | 1       |

```
      00 01 02 03 04 05 06 07  08 09 0A 0B 0C 0D 0E 0F
      -- -- -- -- -- -- -- --  -- -- -- -- -- -- -- --
0080:       00                                            .             
```

#### Opcodes

```
  0: 0x0082 [0x00] END_REQSTACK()
```

### Event 644

#### Metadata

| Field        | Value    |
|--------------|----------|
| Entrypoint   | 0x0083   |
| Data Size    | 39 bytes |
| Instructions | 11       |

```
      00 01 02 03 04 05 06 07  08 09 0A 0B 0C 0D 0E 0F
      -- -- -- -- -- -- -- --  -- -- -- -- -- -- -- --
0080:          20 01 4A ED 01  05 01 F0 FF FF 7F 2B ED      .J........+.
0090: 01 05 01 08 80 23 2B ED  01 05 01 09 80 23 2B ED  .....#+......#+.
00A0: 01 05 01 0A 80 23 20 00  21 00                    .....# .!.      
```

#### Opcodes

```
  0: 0x0083 [0x20] SET_CLI_EVENT_UC_FLAG: Lock player control
  1: 0x0085 [0x4A] Rongelouts N Distaud (ID: 17105389/0x010501ED) looks at LocalPlayer
  2: 0x008E [0x2B] Rongelouts N Distaud (ID: 17105389/0x010501ED) [12213*]:
    → "What? You would know my opinion of the Swiftwing Griffins?"
  3: 0x0095 [0x23] WAIT_FOR_DIALOG_INTERACTION
  4: 0x0096 [0x2B] Rongelouts N Distaud (ID: 17105389/0x010501ED) [12214*]:
    → "The have unexpectedly rigid backbones...for a bunch of maggots. But many more indignities must be overcome on their part if they hope to become anything more than ankle weights."
  5: 0x009D [0x23] WAIT_FOR_DIALOG_INTERACTION
  6: 0x009E [0x2B] Rongelouts N Distaud (ID: 17105389/0x010501ED) [12215*]:
    → "Now then. How do you explain your dawdling here? For every minute you stand in idle inactivity, the Kingdom loses ground to the enemy."
  7: 0x00A5 [0x23] WAIT_FOR_DIALOG_INTERACTION
  8: 0x00A6 [0x20] SET_CLI_EVENT_UC_FLAG: Unlock player control
  9: 0x00A8 [0x21] END_EVENT
 10: 0x00A9 [0x00] END_REQSTACK()
```

### Event 646

#### Metadata

| Field        | Value    |
|--------------|----------|
| Entrypoint   | 0x00AA   |
| Data Size    | 23 bytes |
| Instructions | 7        |

```
      00 01 02 03 04 05 06 07  08 09 0A 0B 0C 0D 0E 0F
      -- -- -- -- -- -- -- --  -- -- -- -- -- -- -- --
00A0:                                20 01 4A ED 01 05             .J...
00B0: 01 F0 FF FF 7F 2B ED 01  05 01 0B 80 23 20 00 21  .....+......# .!
00C0: 00                                                .               
```

#### Opcodes

```
  0: 0x00AA [0x20] SET_CLI_EVENT_UC_FLAG: Lock player control
  1: 0x00AC [0x4A] Rongelouts N Distaud (ID: 17105389/0x010501ED) looks at LocalPlayer
  2: 0x00B5 [0x2B] Rongelouts N Distaud (ID: 17105389/0x010501ED) [12217*]:
    → "I have a unit of knights to oversee. If you've nothing of import to discuss, then away with you."
  3: 0x00BC [0x23] WAIT_FOR_DIALOG_INTERACTION
  4: 0x00BD [0x20] SET_CLI_EVENT_UC_FLAG: Unlock player control
  5: 0x00BF [0x21] END_EVENT
  6: 0x00C0 [0x00] END_REQSTACK()
```

### Event 652

#### Metadata

| Field        | Value    |
|--------------|----------|
| Entrypoint   | 0x00C1   |
| Data Size    | 29 bytes |
| Instructions | 9        |

```
      00 01 02 03 04 05 06 07  08 09 0A 0B 0C 0D 0E 0F
      -- -- -- -- -- -- -- --  -- -- -- -- -- -- -- --
00C0:    20 01 4A ED 01 05 01  F0 FF FF 7F 6F 76 ED 01    .J........ov..
00D0: 05 01 2B ED 01 05 01 0C  80 23 20 00 21 00        ..+......# .!.  
```

#### Opcodes

```
  0: 0x00C1 [0x20] SET_CLI_EVENT_UC_FLAG: Lock player control
  1: 0x00C3 [0x4A] Rongelouts N Distaud (ID: 17105389/0x010501ED) looks at LocalPlayer
  2: 0x00CC [0x6F] WAIT_FRAME_DELAY: Yield until WaitTime reaches zero
  3: 0x00CD [0x76] CHECK_ENTITY_RENDER_FLAGS: Wait until Rongelouts N Distaud (ID: 17105389/0x010501ED) Render.Flags0 and Render.Flags3 conditions are met
  4: 0x00D2 [0x2B] Rongelouts N Distaud (ID: 17105389/0x010501ED) [12263*]:
    → "Best you deliver the letter to Alphonimile while the Cardinal Stags have yet to depart the Pashhow Marshlands. I'm counting on you."
  5: 0x00D9 [0x23] WAIT_FOR_DIALOG_INTERACTION
  6: 0x00DA [0x20] SET_CLI_EVENT_UC_FLAG: Unlock player control
  7: 0x00DC [0x21] END_EVENT
  8: 0x00DD [0x00] END_REQSTACK()
```

### Event 654

#### Metadata

| Field        | Value    |
|--------------|----------|
| Entrypoint   | 0x00DE   |
| Data Size    | 37 bytes |
| Instructions | 11       |

```
      00 01 02 03 04 05 06 07  08 09 0A 0B 0C 0D 0E 0F
      -- -- -- -- -- -- -- --  -- -- -- -- -- -- -- --
00D0:                                            20 01                 .
00E0: 4A ED 01 05 01 F0 FF FF  7F 6F 76 ED 01 05 01 2B  J........ov....+
00F0: ED 01 05 01 0D 80 23 2B  ED 01 05 01 0E 80 23 20  ......#+......# 
0100: 00 21 00                                          .!.             
```

#### Opcodes

```
  0: 0x00DE [0x20] SET_CLI_EVENT_UC_FLAG: Lock player control
  1: 0x00E0 [0x4A] Rongelouts N Distaud (ID: 17105389/0x010501ED) looks at LocalPlayer
  2: 0x00E9 [0x6F] WAIT_FRAME_DELAY: Yield until WaitTime reaches zero
  3: 0x00EA [0x76] CHECK_ENTITY_RENDER_FLAGS: Wait until Rongelouts N Distaud (ID: 17105389/0x010501ED) Render.Flags0 and Render.Flags3 conditions are met
  4: 0x00EF [0x2B] Rongelouts N Distaud (ID: 17105389/0x010501ED) [12298*]:
    → "All communication with the Marquisate has ceased since that unexplained occurrence..."
  5: 0x00F6 [0x23] WAIT_FOR_DIALOG_INTERACTION
  6: 0x00F7 [0x2B] Rongelouts N Distaud (ID: 17105389/0x010501ED) [12299*]:
    → "Confound it! Had only we conclusive evidence, I would have stopped at nothing to prevent him from continuing on to Tavnazia!"
  7: 0x00FE [0x23] WAIT_FOR_DIALOG_INTERACTION
  8: 0x00FF [0x20] SET_CLI_EVENT_UC_FLAG: Unlock player control
  9: 0x0101 [0x21] END_EVENT
 10: 0x0102 [0x00] END_REQSTACK()
```

### Event 65535.3

#### Metadata

| Field        | Value    |
|--------------|----------|
| Entrypoint   | 0x0103   |
| Data Size    | 21 bytes |
| Instructions | 2        |

```
      00 01 02 03 04 05 06 07  08 09 0A 0B 0C 0D 0E 0F
      -- -- -- -- -- -- -- --  -- -- -- -- -- -- -- --
0100:          B6 0B 0F 80 10  80 11 80 12 80 13 80 14     .............
0110: 80 14 80 15 80 15 80 00                           ........        
```

#### Opcodes

```
  0: 0x0103 [0xB6] ENTITY_APPEARANCE_HANDLER(case=Full entity look, race=3*, hair=15*, head=56*, body=41*, hands=217*, legs=12*, feet=12*, main=0*, sub=0*)
  1: 0x0117 [0x00] END_REQSTACK()
```

### Event 65535.4

#### Metadata

| Field        | Value    |
|--------------|----------|
| Entrypoint   | 0x0118   |
| Data Size    | 21 bytes |
| Instructions | 2        |

```
      00 01 02 03 04 05 06 07  08 09 0A 0B 0C 0D 0E 0F
      -- -- -- -- -- -- -- --  -- -- -- -- -- -- -- --
0110:                          B6 0B 0F 80 10 80 11 80          ........
0120: 12 80 13 80 14 80 14 80  16 80 15 80 00           .............   
```

#### Opcodes

```
  0: 0x0118 [0xB6] ENTITY_APPEARANCE_HANDLER(case=Full entity look, race=3*, hair=15*, head=56*, body=41*, hands=217*, legs=12*, feet=12*, main=287*, sub=0*)
  1: 0x012C [0x00] END_REQSTACK()
```

### Event 168

#### Metadata

| Field        | Value    |
|--------------|----------|
| Entrypoint   | 0x012D   |
| Data Size    | 11 bytes |
| Instructions | 5        |

```
      00 01 02 03 04 05 06 07  08 09 0A 0B 0C 0D 0E 0F
      -- -- -- -- -- -- -- --  -- -- -- -- -- -- -- --
0120:                                         1E F0 FF               ...
0130: FF 7F 1D 17 80 23 21 00                           .....#!.        
```

#### Opcodes

```
  0: 0x012D [0x1E] EventEntity looks at LocalPlayer and starts talking
  1: 0x0132 [0x1D] PRINT_EVENT_MESSAGE(message_id=14384*)
    → "Make haste to Xarcabard, <Player>, to the Cardinal Stags' encampment. Dubious rumors aside, I would know the soundness of their morale."
  2: 0x0135 [0x23] WAIT_FOR_DIALOG_INTERACTION
  3: 0x0136 [0x21] END_EVENT
  4: 0x0137 [0x00] END_REQSTACK()
```

### Event 137

#### Metadata

| Field        | Value   |
|--------------|---------|
| Entrypoint   | 0x0138  |
| Data Size    | 1 bytes |
| Instructions | 1       |

```
      00 01 02 03 04 05 06 07  08 09 0A 0B 0C 0D 0E 0F
      -- -- -- -- -- -- -- --  -- -- -- -- -- -- -- --
0130:                          00                               .       
```

#### Opcodes

```
  0: 0x0138 [0x00] END_REQSTACK()
```

### Event 143

#### Metadata

| Field        | Value   |
|--------------|---------|
| Entrypoint   | 0x0139  |
| Data Size    | 1 bytes |
| Instructions | 1       |

```
      00 01 02 03 04 05 06 07  08 09 0A 0B 0C 0D 0E 0F
      -- -- -- -- -- -- -- --  -- -- -- -- -- -- -- --
0130:                             00                             .      
```

#### Opcodes

```
  0: 0x0139 [0x00] END_REQSTACK()
```

### Event 144

#### Metadata

| Field        | Value   |
|--------------|---------|
| Entrypoint   | 0x013A  |
| Data Size    | 1 bytes |
| Instructions | 1       |

```
      00 01 02 03 04 05 06 07  08 09 0A 0B 0C 0D 0E 0F
      -- -- -- -- -- -- -- --  -- -- -- -- -- -- -- --
0130:                                00                           .     
```

#### Opcodes

```
  0: 0x013A [0x00] END_REQSTACK()
```

### Event 150

#### Metadata

| Field        | Value   |
|--------------|---------|
| Entrypoint   | 0x013B  |
| Data Size    | 1 bytes |
| Instructions | 1       |

```
      00 01 02 03 04 05 06 07  08 09 0A 0B 0C 0D 0E 0F
      -- -- -- -- -- -- -- --  -- -- -- -- -- -- -- --
0130:                                   00                         .    
```

#### Opcodes

```
  0: 0x013B [0x00] END_REQSTACK()
```

### Event 138

#### Metadata

| Field        | Value   |
|--------------|---------|
| Entrypoint   | 0x013C  |
| Data Size    | 1 bytes |
| Instructions | 1       |

```
      00 01 02 03 04 05 06 07  08 09 0A 0B 0C 0D 0E 0F
      -- -- -- -- -- -- -- --  -- -- -- -- -- -- -- --
0130:                                      00                       .   
```

#### Opcodes

```
  0: 0x013C [0x00] END_REQSTACK()
```

### Event 65535.5

#### Metadata

| Field        | Value    |
|--------------|----------|
| Entrypoint   | 0x013D   |
| Data Size    | 20 bytes |
| Instructions | 6        |

```
      00 01 02 03 04 05 06 07  08 09 0A 0B 0C 0D 0E 0F
      -- -- -- -- -- -- -- --  -- -- -- -- -- -- -- --
0130:                                         32 07 80               2..
0140: 1F 00 18 80 19 80 1A 80  1F 01 6F 1E F0 FF FF 7F  ..........o.....
0150: 00                                                .               
```

#### Opcodes

```
  0: 0x013D [0x32] ExtData[1]->MainSpeed = 13* * 0.1
  1: 0x0140 [0x1F] MOVE_ENTITY: EventEntity moves to X=5.128*, Z=-22.183*, Y=1.999*
  2: 0x0148 [0x1F] MOVE_ENTITY: Update entity position (mode=1)
  3: 0x014A [0x6F] WAIT_FRAME_DELAY: Yield until WaitTime reaches zero
  4: 0x014B [0x1E] EventEntity looks at LocalPlayer and starts talking
  5: 0x0150 [0x00] END_REQSTACK()
```

### Event 65535.6

#### Metadata

| Field        | Value    |
|--------------|----------|
| Entrypoint   | 0x0151   |
| Data Size    | 20 bytes |
| Instructions | 6        |

```
      00 01 02 03 04 05 06 07  08 09 0A 0B 0C 0D 0E 0F
      -- -- -- -- -- -- -- --  -- -- -- -- -- -- -- --
0150:    32 07 80 1F 00 15 80  1B 80 1A 80 1F 01 6F 1E   2............o.
0160: F0 FF FF 7F 00                                    .....           
```

#### Opcodes

```
  0: 0x0151 [0x32] ExtData[1]->MainSpeed = 13* * 0.1
  1: 0x0154 [0x1F] MOVE_ENTITY: EventEntity moves to X=0.000*, Z=-22.006*, Y=1.999*
  2: 0x015C [0x1F] MOVE_ENTITY: Update entity position (mode=1)
  3: 0x015E [0x6F] WAIT_FRAME_DELAY: Yield until WaitTime reaches zero
  4: 0x015F [0x1E] EventEntity looks at LocalPlayer and starts talking
  5: 0x0164 [0x00] END_REQSTACK()
```

### Event 65535.7

#### Metadata

| Field        | Value    |
|--------------|----------|
| Entrypoint   | 0x0165   |
| Data Size    | 10 bytes |
| Instructions | 2        |

```
      00 01 02 03 04 05 06 07  08 09 0A 0B 0C 0D 0E 0F
      -- -- -- -- -- -- -- --  -- -- -- -- -- -- -- --
0160:                6C ED 01  05 01 1C 80 1D 80 00          l......... 
```

#### Opcodes

```
  0: 0x0165 [0x6C] FADE_ENTITY_COLOR(entity_id=Rongelouts N Distaud (ID: 17105389/0x010501ED), end_alpha=128*, fade_time=1*)
  1: 0x016E [0x00] END_REQSTACK()
```

### Event 65535.8

#### Metadata

| Field        | Value    |
|--------------|----------|
| Entrypoint   | 0x016F   |
| Data Size    | 10 bytes |
| Instructions | 2        |

```
      00 01 02 03 04 05 06 07  08 09 0A 0B 0C 0D 0E 0F
      -- -- -- -- -- -- -- --  -- -- -- -- -- -- -- --
0160:                                               6C                 l
0170: ED 01 05 01 15 80 1D 80  00                       .........       
```

#### Opcodes

```
  0: 0x016F [0x6C] FADE_ENTITY_COLOR(entity_id=Rongelouts N Distaud (ID: 17105389/0x010501ED), end_alpha=0*, fade_time=1*)
  1: 0x0178 [0x00] END_REQSTACK()
```

### Event 151

#### Metadata

| Field        | Value   |
|--------------|---------|
| Entrypoint   | 0x0179  |
| Data Size    | 1 bytes |
| Instructions | 1       |

```
      00 01 02 03 04 05 06 07  08 09 0A 0B 0C 0D 0E 0F
      -- -- -- -- -- -- -- --  -- -- -- -- -- -- -- --
0170:                             00                             .      
```

#### Opcodes

```
  0: 0x0179 [0x00] END_REQSTACK()
```

### Event 171

#### Metadata

| Field        | Value   |
|--------------|---------|
| Entrypoint   | 0x017A  |
| Data Size    | 1 bytes |
| Instructions | 1       |

```
      00 01 02 03 04 05 06 07  08 09 0A 0B 0C 0D 0E 0F
      -- -- -- -- -- -- -- --  -- -- -- -- -- -- -- --
0170:                                00                           .     
```

#### Opcodes

```
  0: 0x017A [0x00] END_REQSTACK()
```

### Event 172

#### Metadata

| Field        | Value   |
|--------------|---------|
| Entrypoint   | 0x017B  |
| Data Size    | 1 bytes |
| Instructions | 1       |

```
      00 01 02 03 04 05 06 07  08 09 0A 0B 0C 0D 0E 0F
      -- -- -- -- -- -- -- --  -- -- -- -- -- -- -- --
0170:                                   00                         .    
```

#### Opcodes

```
  0: 0x017B [0x00] END_REQSTACK()
```

### Event 174

#### Metadata

| Field        | Value    |
|--------------|----------|
| Entrypoint   | 0x017C   |
| Data Size    | 25 bytes |
| Instructions | 9        |

```
      00 01 02 03 04 05 06 07  08 09 0A 0B 0C 0D 0E 0F
      -- -- -- -- -- -- -- --  -- -- -- -- -- -- -- --
0170:                                      1E F0 FF FF              ....
0180: 7F 6F 70 2B F8 FF FF 7F  1E 80 23 2B F8 FF FF 7F  .op+......#+....
0190: 1F 80 23 21 00                                    ..#!.           
```

#### Opcodes

```
  0: 0x017C [0x1E] EventEntity looks at LocalPlayer and starts talking
  1: 0x0181 [0x6F] WAIT_FRAME_DELAY: Yield until WaitTime reaches zero
  2: 0x0182 [0x70] WAIT_ENTITY_RENDER_FLAG: Wait while EventEntity->Render.Flags3 bit 2 is set (cancel turn if not)
  3: 0x0183 [0x2B] EventEntity [14523*]:
    → "What? You seek the red-haired girl? Who do you take me for? The keeper of maggots!?"
  4: 0x018A [0x23] WAIT_FOR_DIALOG_INTERACTION
  5: 0x018B [0x2B] EventEntity [14524*]:
    → "Should you find her, though, you'd do well to see her back to where she belongs. We've enough maggots squirming hereabouts as it is."
  6: 0x0192 [0x23] WAIT_FOR_DIALOG_INTERACTION
  7: 0x0193 [0x21] END_EVENT
  8: 0x0194 [0x00] END_REQSTACK()
```

### Event 65535.9

#### Metadata

| Field        | Value    |
|--------------|----------|
| Entrypoint   | 0x0195   |
| Data Size    | 15 bytes |
| Instructions | 5        |

```
      00 01 02 03 04 05 06 07  08 09 0A 0B 0C 0D 0E 0F
      -- -- -- -- -- -- -- --  -- -- -- -- -- -- -- --
0190:                32 07 80  1F 00 20 80 21 80 22 80       2.... .!.".
01A0: 1F 01 6F 00                                       ..o.            
```

#### Opcodes

```
  0: 0x0195 [0x32] ExtData[1]->MainSpeed = 13* * 0.1
  1: 0x0198 [0x1F] MOVE_ENTITY: EventEntity moves to X=-11.039*, Z=-30.385*, Y=1.398*
  2: 0x01A0 [0x1F] MOVE_ENTITY: Update entity position (mode=1)
  3: 0x01A2 [0x6F] WAIT_FRAME_DELAY: Yield until WaitTime reaches zero
  4: 0x01A3 [0x00] END_REQSTACK()
```

### Event 65535.10

#### Metadata

| Field        | Value    |
|--------------|----------|
| Entrypoint   | 0x01A4   |
| Data Size    | 34 bytes |
| Instructions | 8        |

```
      00 01 02 03 04 05 06 07  08 09 0A 0B 0C 0D 0E 0F
      -- -- -- -- -- -- -- --  -- -- -- -- -- -- -- --
01A0:             32 23 80 1F  00 24 80 25 80 22 80 1F      2#...$.%."..
01B0: 01 1F 00 26 80 27 80 1A  80 1F 01 1F 00 28 80 29  ...&.'.......(.)
01C0: 80 1A 80 1F 01 00                                 ......          
```

#### Opcodes

```
  0: 0x01A4 [0x32] ExtData[1]->MainSpeed = 10* * 0.1
  1: 0x01A7 [0x1F] MOVE_ENTITY: EventEntity moves to X=-8.045*, Z=-27.991*, Y=1.398*
  2: 0x01AF [0x1F] MOVE_ENTITY: Update entity position (mode=1)
  3: 0x01B1 [0x1F] MOVE_ENTITY: EventEntity moves to X=-7.068*, Z=-23.928*, Y=1.999*
  4: 0x01B9 [0x1F] MOVE_ENTITY: Update entity position (mode=1)
  5: 0x01BB [0x1F] MOVE_ENTITY: EventEntity moves to X=0.798*, Z=-21.501*, Y=1.999*
  6: 0x01C3 [0x1F] MOVE_ENTITY: Update entity position (mode=1)
  7: 0x01C5 [0x00] END_REQSTACK()
```

### Event 65535.11

#### Metadata

| Field        | Value    |
|--------------|----------|
| Entrypoint   | 0x01C6   |
| Data Size    | 10 bytes |
| Instructions | 2        |

```
      00 01 02 03 04 05 06 07  08 09 0A 0B 0C 0D 0E 0F
      -- -- -- -- -- -- -- --  -- -- -- -- -- -- -- --
01C0:                   6C F8  FF FF 7F 15 80 1D 80 00        l.........
```

#### Opcodes

```
  0: 0x01C6 [0x6C] FADE_ENTITY_COLOR(entity_id=EventEntity, end_alpha=0*, fade_time=1*)
  1: 0x01CF [0x00] END_REQSTACK()
```

### Event 65535.12

#### Metadata

| Field        | Value    |
|--------------|----------|
| Entrypoint   | 0x01D0   |
| Data Size    | 10 bytes |
| Instructions | 2        |

```
      00 01 02 03 04 05 06 07  08 09 0A 0B 0C 0D 0E 0F
      -- -- -- -- -- -- -- --  -- -- -- -- -- -- -- --
01D0: 6C F8 FF FF 7F 1C 80 1D  80 00                    l.........      
```

#### Opcodes

```
  0: 0x01D0 [0x6C] FADE_ENTITY_COLOR(entity_id=EventEntity, end_alpha=128*, fade_time=1*)
  1: 0x01D9 [0x00] END_REQSTACK()
```

### Event 65535.13

#### Metadata

| Field        | Value    |
|--------------|----------|
| Entrypoint   | 0x01DA   |
| Data Size    | 20 bytes |
| Instructions | 5        |

```
      00 01 02 03 04 05 06 07  08 09 0A 0B 0C 0D 0E 0F
      -- -- -- -- -- -- -- --  -- -- -- -- -- -- -- --
01D0:                                59 04 F8 FF FF 7F            Y.....
01E0: 07 80 1F 00 2A 80 2B 80  2C 80 1F 01 6F 00        ....*.+.,...o.  
```

#### Opcodes

```
  0: 0x01DA [0x59] UPDATE_ENTITY_DATA: Set EventEntity main speed = 13* * 0.1
  1: 0x01E2 [0x1F] MOVE_ENTITY: EventEntity moves to X=87.732*, Z=115.950*, Y=1.000*
  2: 0x01EA [0x1F] MOVE_ENTITY: Update entity position (mode=1)
  3: 0x01EC [0x6F] WAIT_FRAME_DELAY: Yield until WaitTime reaches zero
  4: 0x01ED [0x00] END_REQSTACK()
```

### Event 65535.14

#### Metadata

| Field        | Value    |
|--------------|----------|
| Entrypoint   | 0x01EE   |
| Data Size    | 19 bytes |
| Instructions | 4        |

```
      00 01 02 03 04 05 06 07  08 09 0A 0B 0C 0D 0E 0F
      -- -- -- -- -- -- -- --  -- -- -- -- -- -- -- --
01E0:                                            59 04                Y.
01F0: F8 FF FF 7F 07 80 1F 00  2D 80 2E 80 2F 80 1F 01  ........-.../...
0200: 00                                                .               
```

#### Opcodes

```
  0: 0x01EE [0x59] UPDATE_ENTITY_DATA: Set EventEntity main speed = 13* * 0.1
  1: 0x01F6 [0x1F] MOVE_ENTITY: EventEntity moves to X=101.511*, Z=100.784*, Y=0.999*
  2: 0x01FE [0x1F] MOVE_ENTITY: Update entity position (mode=1)
  3: 0x0200 [0x00] END_REQSTACK()
```

### Event 65535.15

#### Metadata

| Field        | Value    |
|--------------|----------|
| Entrypoint   | 0x0201   |
| Data Size    | 19 bytes |
| Instructions | 3        |

```
      00 01 02 03 04 05 06 07  08 09 0A 0B 0C 0D 0E 0F
      -- -- -- -- -- -- -- --  -- -- -- -- -- -- -- --
0200:    1C 30 80 5B 31 80 88  02 05 01 88 02 05 01 6D   .0.[1.........m
0210: 61 65 31 00                                       ae1.            
```

#### Opcodes

```
  0: 0x0201 [0x1C] WAIT(60* ticks)
  1: 0x0204 [0x5B] LOAD_EXT_SCHEDULER: Load scheduler "mae1" with entities [Hegouard (ID: 17105544/0x01050288), Hegouard (ID: 17105544/0x01050288)], work=11*
  2: 0x0213 [0x00] END_REQSTACK()
```

### Event 65535.16

#### Metadata

| Field        | Value    |
|--------------|----------|
| Entrypoint   | 0x0214   |
| Data Size    | 21 bytes |
| Instructions | 3        |

```
      00 01 02 03 04 05 06 07  08 09 0A 0B 0C 0D 0E 0F
      -- -- -- -- -- -- -- --  -- -- -- -- -- -- -- --
0210:             59 05 EC 02  05 01 01 BA EC 02 05 01      Y...........
0220: 32 80 33 80 15 80 34 80  00                       2.3...4..       
```

#### Opcodes

```
  0: 0x0214 [0x59] UPDATE_ENTITY_DATA: Tanja (ID: 17105644/0x010502EC)->Render.Flags0 |= 0x200000
  1: 0x021B [0xBA] SET_ENTITY_POSITION(entity_id=Tanja (ID: 17105644/0x010502EC), pos_x=84.165*, pos_z=119.827*, pos_y=0.000*, direction=45.0°*)
  2: 0x0228 [0x00] END_REQSTACK()
```

### Event 65535.17

#### Metadata

| Field        | Value    |
|--------------|----------|
| Entrypoint   | 0x0229   |
| Data Size    | 21 bytes |
| Instructions | 3        |

```
      00 01 02 03 04 05 06 07  08 09 0A 0B 0C 0D 0E 0F
      -- -- -- -- -- -- -- --  -- -- -- -- -- -- -- --
0220:                             59 05 ED 02 05 01 01           Y......
0230: BA ED 02 05 01 35 80 36  80 15 80 34 80 00        .....5.6...4..  
```

#### Opcodes

```
  0: 0x0229 [0x59] UPDATE_ENTITY_DATA: Raina (ID: 17105645/0x010502ED)->Render.Flags0 |= 0x200000
  1: 0x0230 [0xBA] SET_ENTITY_POSITION(entity_id=Raina (ID: 17105645/0x010502ED), pos_x=83.935*, pos_z=121.430*, pos_y=0.000*, direction=45.0°*)
  2: 0x023D [0x00] END_REQSTACK()
```

### Event 65535.18

#### Metadata

| Field        | Value    |
|--------------|----------|
| Entrypoint   | 0x023E   |
| Data Size    | 45 bytes |
| Instructions | 10       |

```
      00 01 02 03 04 05 06 07  08 09 0A 0B 0C 0D 0E 0F
      -- -- -- -- -- -- -- --  -- -- -- -- -- -- -- --
0230:                                            7B F8                {.
0240: FF FF 7F 59 04 F8 FF FF  7F 07 80 1F 00 37 80 38  ...Y.........7.8
0250: 80 2C 80 1F 01 1F 00 39  80 3A 80 2C 80 1F 01 1F  .,.....9.:.,....
0260: 00 3B 80 3C 80 2C 80 1F  01 6F 00                 .;.<.,...o.     
```

#### Opcodes

```
  0: 0x023E [0x7B] EventEntity stops talking
  1: 0x0243 [0x59] UPDATE_ENTITY_DATA: Set EventEntity main speed = 13* * 0.1
  2: 0x024B [0x1F] MOVE_ENTITY: EventEntity moves to X=86.254*, Z=113.639*, Y=1.000*
  3: 0x0253 [0x1F] MOVE_ENTITY: Update entity position (mode=1)
  4: 0x0255 [0x1F] MOVE_ENTITY: EventEntity moves to X=84.737*, Z=112.919*, Y=1.000*
  5: 0x025D [0x1F] MOVE_ENTITY: Update entity position (mode=1)
  6: 0x025F [0x1F] MOVE_ENTITY: EventEntity moves to X=82.803*, Z=112.745*, Y=1.000*
  7: 0x0267 [0x1F] MOVE_ENTITY: Update entity position (mode=1)
  8: 0x0269 [0x6F] WAIT_FRAME_DELAY: Yield until WaitTime reaches zero
  9: 0x026A [0x00] END_REQSTACK()
```

### Event 65535.19

#### Metadata

| Field        | Value    |
|--------------|----------|
| Entrypoint   | 0x026B   |
| Data Size    | 45 bytes |
| Instructions | 10       |

```
      00 01 02 03 04 05 06 07  08 09 0A 0B 0C 0D 0E 0F
      -- -- -- -- -- -- -- --  -- -- -- -- -- -- -- --
0260:                                   7B F8 FF FF 7F             {....
0270: 59 04 F8 FF FF 7F 07 80  1F 00 3D 80 3E 80 15 80  Y.........=.>...
0280: 1F 01 1F 00 3F 80 40 80  15 80 1F 01 1F 00 41 80  ....?.@.......A.
0290: 42 80 15 80 1F 01 6F 00                           B.....o.        
```

#### Opcodes

```
  0: 0x026B [0x7B] EventEntity stops talking
  1: 0x0270 [0x59] UPDATE_ENTITY_DATA: Set EventEntity main speed = 13* * 0.1
  2: 0x0278 [0x1F] MOVE_ENTITY: EventEntity moves to X=90.460*, Z=110.779*, Y=0.000*
  3: 0x0280 [0x1F] MOVE_ENTITY: Update entity position (mode=1)
  4: 0x0282 [0x1F] MOVE_ENTITY: EventEntity moves to X=93.052*, Z=112.944*, Y=0.000*
  5: 0x028A [0x1F] MOVE_ENTITY: Update entity position (mode=1)
  6: 0x028C [0x1F] MOVE_ENTITY: EventEntity moves to X=95.341*, Z=113.699*, Y=0.000*
  7: 0x0294 [0x1F] MOVE_ENTITY: Update entity position (mode=1)
  8: 0x0296 [0x6F] WAIT_FRAME_DELAY: Yield until WaitTime reaches zero
  9: 0x0297 [0x00] END_REQSTACK()
```

### Event 65535.20

#### Metadata

| Field        | Value    |
|--------------|----------|
| Entrypoint   | 0x0298   |
| Data Size    | 69 bytes |
| Instructions | 14       |

```
      00 01 02 03 04 05 06 07  08 09 0A 0B 0C 0D 0E 0F
      -- -- -- -- -- -- -- --  -- -- -- -- -- -- -- --
0290:                          7B F8 FF FF 7F 59 04 F8          {....Y..
02A0: FF FF 7F 07 80 1F 00 43  80 44 80 15 80 1F 01 1F  .......C.D......
02B0: 00 45 80 46 80 47 80 1F  01 1F 00 48 80 49 80 2F  .E.F.G.....H.I./
02C0: 80 1F 01 1F 00 4A 80 4B  80 2C 80 1F 01 6F 4A F8  .....J.K.,...oJ.
02D0: FF FF 7F AE 02 05 01 7B  F8 FF FF 7F 00           .......{.....   
```

#### Opcodes

```
  0: 0x0298 [0x7B] EventEntity stops talking
  1: 0x029D [0x59] UPDATE_ENTITY_DATA: Set EventEntity main speed = 13* * 0.1
  2: 0x02A5 [0x1F] MOVE_ENTITY: EventEntity moves to X=89.928*, Z=112.069*, Y=0.000*
  3: 0x02AD [0x1F] MOVE_ENTITY: Update entity position (mode=1)
  4: 0x02AF [0x1F] MOVE_ENTITY: EventEntity moves to X=89.027*, Z=117.199*, Y=0.750*
  5: 0x02B7 [0x1F] MOVE_ENTITY: Update entity position (mode=1)
  6: 0x02B9 [0x1F] MOVE_ENTITY: EventEntity moves to X=88.920*, Z=117.934*, Y=0.999*
  7: 0x02C1 [0x1F] MOVE_ENTITY: Update entity position (mode=1)
  8: 0x02C3 [0x1F] MOVE_ENTITY: EventEntity moves to X=89.319*, Z=119.738*, Y=1.000*
  9: 0x02CB [0x1F] MOVE_ENTITY: Update entity position (mode=1)
 10: 0x02CD [0x6F] WAIT_FRAME_DELAY: Yield until WaitTime reaches zero
 11: 0x02CE [0x4A] EventEntity looks at Vestillet (ID: 17105582/0x010502AE)
 12: 0x02D7 [0x7B] EventEntity stops talking
 13: 0x02DC [0x00] END_REQSTACK()
```

### Event 65535.21

#### Metadata

| Field        | Value    |
|--------------|----------|
| Entrypoint   | 0x02DD   |
| Data Size    | 11 bytes |
| Instructions | 3        |

```
      00 01 02 03 04 05 06 07  08 09 0A 0B 0C 0D 0E 0F
      -- -- -- -- -- -- -- --  -- -- -- -- -- -- -- --
02D0:                                         1F 00 4C               ..L
02E0: 80 4D 80 15 80 1F 01 00                           .M......        
```

#### Opcodes

```
  0: 0x02DD [0x1F] MOVE_ENTITY: EventEntity moves to X=94.644*, Z=114.720*, Y=0.000*
  1: 0x02E5 [0x1F] MOVE_ENTITY: Update entity position (mode=1)
  2: 0x02E7 [0x00] END_REQSTACK()
```

### Event 65535.22

#### Metadata

| Field        | Value    |
|--------------|----------|
| Entrypoint   | 0x02E8   |
| Data Size    | 13 bytes |
| Instructions | 3        |

```
      00 01 02 03 04 05 06 07  08 09 0A 0B 0C 0D 0E 0F
      -- -- -- -- -- -- -- --  -- -- -- -- -- -- -- --
02E0:                          6E F8 FF FF 7F 07 80 99          n.......
02F0: F8 FF FF 7F 00                                    .....           
```

#### Opcodes

```
  0: 0x02E8 [0x6E] EventEntity uses emote 13*
  1: 0x02EF [0x99] Wait for EventEntity animation to complete
  2: 0x02F4 [0x00] END_REQSTACK()
```

### Event 65535.23

#### Metadata

| Field        | Value    |
|--------------|----------|
| Entrypoint   | 0x02F5   |
| Data Size    | 13 bytes |
| Instructions | 3        |

```
      00 01 02 03 04 05 06 07  08 09 0A 0B 0C 0D 0E 0F
      -- -- -- -- -- -- -- --  -- -- -- -- -- -- -- --
02F0:                6E F8 FF  FF 7F 4E 80 99 F8 FF FF       n....N.....
0300: 7F 00                                             ..              
```

#### Opcodes

```
  0: 0x02F5 [0x6E] EventEntity uses emote 1579*
  1: 0x02FC [0x99] Wait for EventEntity animation to complete
  2: 0x0301 [0x00] END_REQSTACK()
```

### Event 65535.24

#### Metadata

| Field        | Value    |
|--------------|----------|
| Entrypoint   | 0x0302   |
| Data Size    | 58 bytes |
| Instructions | 14       |

```
      00 01 02 03 04 05 06 07  08 09 0A 0B 0C 0D 0E 0F
      -- -- -- -- -- -- -- --  -- -- -- -- -- -- -- --
0300:       1C 4F 80 1C 50 80  6E 0E 03 05 01 51 80 99    .O..P.n....Q..
0310: 0E 03 05 01 1C 30 80 6E  12 03 05 01 51 80 99 12  .....0.n....Q...
0320: 03 05 01 1C 52 80 1C 53  80 6E 18 03 05 01 54 80  ....R..S.n....T.
0330: 99 18 03 05 01 1C 55 80  1C 4F 80 00              ......U..O..    
```

#### Opcodes

```
  0: 0x0302 [0x1C] WAIT(180* ticks)
  1: 0x0305 [0x1C] WAIT(30* ticks)
  2: 0x0308 [0x6E] Leonoyne (ID: 17105678/0x0105030E) uses emote 7*
  3: 0x030F [0x99] Wait for Leonoyne (ID: 17105678/0x0105030E) animation to complete
  4: 0x0314 [0x1C] WAIT(60* ticks)
  5: 0x0317 [0x6E] Febrenard C Brunnaut (ID: 17105682/0x01050312) uses emote 7*
  6: 0x031E [0x99] Wait for Febrenard C Brunnaut (ID: 17105682/0x01050312) animation to complete
  7: 0x0323 [0x1C] WAIT(90* ticks)
  8: 0x0326 [0x1C] WAIT(80* ticks)
  9: 0x0329 [0x6E] 04 (ID: 17105688/0x01050318) uses emote 36*
 10: 0x0330 [0x99] Wait for 04 (ID: 17105688/0x01050318) animation to complete
 11: 0x0335 [0x1C] WAIT(100* ticks)
 12: 0x0338 [0x1C] WAIT(180* ticks)
 13: 0x033B [0x00] END_REQSTACK()
```

### Event 65535.25

#### Metadata

| Field        | Value     |
|--------------|-----------|
| Entrypoint   | 0x033C    |
| Data Size    | 128 bytes |
| Instructions | 22        |

```
      00 01 02 03 04 05 06 07  08 09 0A 0B 0C 0D 0E 0F
      -- -- -- -- -- -- -- --  -- -- -- -- -- -- -- --
0330:                                      27 10 14 03              '...
0340: 05 01 14 1C 56 80 27 10  12 03 05 01 12 27 10 18  ....V.'......'..
0350: 03 05 01 14 27 10 10 03  05 01 12 6E ED 02 05 01  ....'......n....
0360: 57 80 99 ED 02 05 01 27  10 19 03 05 01 13 27 10  W......'......'.
0370: 1B 03 05 01 14 6E 17 03  05 01 07 80 99 17 03 05  .....n..........
0380: 01 27 10 1A 03 05 01 13  6E 13 03 05 01 07 80 99  .'......n.......
0390: 13 03 05 01 1C 56 80 27  10 11 03 05 01 12 27 10  .....V.'......'.
03A0: 0F 03 05 01 12 1C 56 80  27 10 0E 03 05 01 12 6E  ......V.'......n
03B0: AE 02 05 01 07 80 99 AE  02 05 01 00              ............    
```

#### Opcodes

```
  0: 0x033C [0x27] REQ_SET(priority=0x10, entity_id=Unnamed NPC (ID: 17105684/0x01050314), tag_num=0x14)
  1: 0x0343 [0x1C] WAIT(5* ticks)
  2: 0x0346 [0x27] REQ_SET(priority=0x10, entity_id=Febrenard C Brunnaut (ID: 17105682/0x01050312), tag_num=0x12)
  3: 0x034D [0x27] REQ_SET(priority=0x10, entity_id=04 (ID: 17105688/0x01050318), tag_num=0x14)
  4: 0x0354 [0x27] REQ_SET(priority=0x10, entity_id=Laisavie X Berlends (ID: 17105680/0x01050310), tag_num=0x12)
  5: 0x035B [0x6E] Raina (ID: 17105645/0x010502ED) uses emote 14*
  6: 0x0362 [0x99] Wait for Raina (ID: 17105645/0x010502ED) animation to complete
  7: 0x0367 [0x27] REQ_SET(priority=0x10, entity_id=05 (ID: 17105689/0x01050319), tag_num=0x13)
  8: 0x036E [0x27] REQ_SET(priority=0x10, entity_id=07 (ID: 17105691/0x0105031B), tag_num=0x14)
  9: 0x0375 [0x6E] 03 (ID: 17105687/0x01050317) uses emote 13*
 10: 0x037C [0x99] Wait for 03 (ID: 17105687/0x01050317) animation to complete
 11: 0x0381 [0x27] REQ_SET(priority=0x10, entity_id=06 (ID: 17105690/0x0105031A), tag_num=0x13)
 12: 0x0388 [0x6E] Noillurie (ID: 17105683/0x01050313) uses emote 13*
 13: 0x038F [0x99] Wait for Noillurie (ID: 17105683/0x01050313) animation to complete
 14: 0x0394 [0x1C] WAIT(5* ticks)
 15: 0x0397 [0x27] REQ_SET(priority=0x10, entity_id=Mieuseloir B Enchelles (ID: 17105681/0x01050311), tag_num=0x12)
 16: 0x039E [0x27] REQ_SET(priority=0x10, entity_id=Feldrautte I Rouhent (ID: 17105679/0x0105030F), tag_num=0x12)
 17: 0x03A5 [0x1C] WAIT(5* ticks)
 18: 0x03A8 [0x27] REQ_SET(priority=0x10, entity_id=Leonoyne (ID: 17105678/0x0105030E), tag_num=0x12)
 19: 0x03AF [0x6E] Vestillet (ID: 17105582/0x010502AE) uses emote 13*
 20: 0x03B6 [0x99] Wait for Vestillet (ID: 17105582/0x010502AE) animation to complete
 21: 0x03BB [0x00] END_REQSTACK()
```

### Event 65535.26

#### Metadata

| Field        | Value    |
|--------------|----------|
| Entrypoint   | 0x03BC   |
| Data Size    | 45 bytes |
| Instructions | 10       |

```
      00 01 02 03 04 05 06 07  08 09 0A 0B 0C 0D 0E 0F
      -- -- -- -- -- -- -- --  -- -- -- -- -- -- -- --
03B0:                                      7B F8 FF FF              {...
03C0: 7F 59 04 F8 FF FF 7F 07  80 1F 00 58 80 59 80 15  .Y.........X.Y..
03D0: 80 1F 01 1F 00 5A 80 5B  80 5C 80 1F 01 1F 00 5D  .....Z.[.\.....]
03E0: 80 5E 80 2C 80 1F 01 6F  00                       .^.,...o.       
```

#### Opcodes

```
  0: 0x03BC [0x7B] EventEntity stops talking
  1: 0x03C1 [0x59] UPDATE_ENTITY_DATA: Set EventEntity main speed = 13* * 0.1
  2: 0x03C9 [0x1F] MOVE_ENTITY: EventEntity moves to X=90.793*, Z=112.585*, Y=0.000*
  3: 0x03D1 [0x1F] MOVE_ENTITY: Update entity position (mode=1)
  4: 0x03D3 [0x1F] MOVE_ENTITY: EventEntity moves to X=88.371*, Z=114.347*, Y=0.500*
  5: 0x03DB [0x1F] MOVE_ENTITY: Update entity position (mode=1)
  6: 0x03DD [0x1F] MOVE_ENTITY: EventEntity moves to X=84.505*, Z=113.888*, Y=1.000*
  7: 0x03E5 [0x1F] MOVE_ENTITY: Update entity position (mode=1)
  8: 0x03E7 [0x6F] WAIT_FRAME_DELAY: Yield until WaitTime reaches zero
  9: 0x03E8 [0x00] END_REQSTACK()
```

### Event 65535.27

#### Metadata

| Field        | Value    |
|--------------|----------|
| Entrypoint   | 0x03E9   |
| Data Size    | 35 bytes |
| Instructions | 8        |

```
      00 01 02 03 04 05 06 07  08 09 0A 0B 0C 0D 0E 0F
      -- -- -- -- -- -- -- --  -- -- -- -- -- -- -- --
03E0:                             4A F8 FF FF 7F EC 02           J......
03F0: 05 01 6F 76 F8 FF FF 7F  59 04 F8 FF FF 7F 07 80  ..ov....Y.......
0400: 1F 00 5F 80 60 80 15 80  1F 01 6F 00              .._.`.....o.    
```

#### Opcodes

```
  0: 0x03E9 [0x4A] EventEntity looks at Tanja (ID: 17105644/0x010502EC)
  1: 0x03F2 [0x6F] WAIT_FRAME_DELAY: Yield until WaitTime reaches zero
  2: 0x03F3 [0x76] CHECK_ENTITY_RENDER_FLAGS: Wait until EventEntity Render.Flags0 and Render.Flags3 conditions are met
  3: 0x03F8 [0x59] UPDATE_ENTITY_DATA: Set EventEntity main speed = 13* * 0.1
  4: 0x0400 [0x1F] MOVE_ENTITY: EventEntity moves to X=88.636*, Z=112.696*, Y=0.000*
  5: 0x0408 [0x1F] MOVE_ENTITY: Update entity position (mode=1)
  6: 0x040A [0x6F] WAIT_FRAME_DELAY: Yield until WaitTime reaches zero
  7: 0x040B [0x00] END_REQSTACK()
```

### Event 65535.28

#### Metadata

| Field        | Value    |
|--------------|----------|
| Entrypoint   | 0x040C   |
| Data Size    | 21 bytes |
| Instructions | 2        |

```
      00 01 02 03 04 05 06 07  08 09 0A 0B 0C 0D 0E 0F
      -- -- -- -- -- -- -- --  -- -- -- -- -- -- -- --
0400:                                      B6 0B 0F 80              ....
0410: 31 80 61 80 61 80 61 80  61 80 61 80 15 80 15 80  1.a.a.a.a.a.....
0420: 00                                                .               
```

#### Opcodes

```
  0: 0x040C [0xB6] ENTITY_APPEARANCE_HANDLER(case=Full entity look, race=3*, hair=11*, head=23*, body=23*, hands=23*, legs=23*, feet=23*, main=0*, sub=0*)
  1: 0x0420 [0x00] END_REQSTACK()
```

### Event 65535.29

#### Metadata

| Field        | Value    |
|--------------|----------|
| Entrypoint   | 0x0421   |
| Data Size    | 21 bytes |
| Instructions | 2        |

```
      00 01 02 03 04 05 06 07  08 09 0A 0B 0C 0D 0E 0F
      -- -- -- -- -- -- -- --  -- -- -- -- -- -- -- --
0420:    B6 0B 62 80 0F 80 61  80 63 80 61 80 61 80 61   ..b...a.c.a.a.a
0430: 80 15 80 15 80 00                                 ......          
```

#### Opcodes

```
  0: 0x0421 [0xB6] ENTITY_APPEARANCE_HANDLER(case=Full entity look, race=2*, hair=3*, head=23*, body=104*, hands=23*, legs=23*, feet=23*, main=0*, sub=0*)
  1: 0x0435 [0x00] END_REQSTACK()
```

### Event 65535.30

#### Metadata

| Field        | Value    |
|--------------|----------|
| Entrypoint   | 0x0436   |
| Data Size    | 21 bytes |
| Instructions | 2        |

```
      00 01 02 03 04 05 06 07  08 09 0A 0B 0C 0D 0E 0F
      -- -- -- -- -- -- -- --  -- -- -- -- -- -- -- --
0430:                   B6 0B  56 80 56 80 64 80 64 80        ..V.V.d.d.
0440: 64 80 64 80 64 80 15 80  15 80 00                 d.d.d......     
```

#### Opcodes

```
  0: 0x0436 [0xB6] ENTITY_APPEARANCE_HANDLER(case=Full entity look, race=5*, hair=5*, head=24*, body=24*, hands=24*, legs=24*, feet=24*, main=0*, sub=0*)
  1: 0x044A [0x00] END_REQSTACK()
```

### Event 65535.31

#### Metadata

| Field        | Value    |
|--------------|----------|
| Entrypoint   | 0x044B   |
| Data Size    | 21 bytes |
| Instructions | 2        |

```
      00 01 02 03 04 05 06 07  08 09 0A 0B 0C 0D 0E 0F
      -- -- -- -- -- -- -- --  -- -- -- -- -- -- -- --
0440:                                   B6 0B 51 80 65             ..Q.e
0450: 80 61 80 61 80 61 80 61  80 61 80 15 80 15 80 00  .a.a.a.a.a......
```

#### Opcodes

```
  0: 0x044B [0xB6] ENTITY_APPEARANCE_HANDLER(case=Full entity look, race=7*, hair=6*, head=23*, body=23*, hands=23*, legs=23*, feet=23*, main=0*, sub=0*)
  1: 0x045F [0x00] END_REQSTACK()
```

### Event 65535.32

#### Metadata

| Field        | Value    |
|--------------|----------|
| Entrypoint   | 0x0460   |
| Data Size    | 21 bytes |
| Instructions | 2        |

```
      00 01 02 03 04 05 06 07  08 09 0A 0B 0C 0D 0E 0F
      -- -- -- -- -- -- -- --  -- -- -- -- -- -- -- --
0460: B6 0B 66 80 0F 80 15 80  67 80 67 80 67 80 67 80  ..f.....g.g.g.g.
0470: 15 80 15 80 00                                    .....           
```

#### Opcodes

```
  0: 0x0460 [0xB6] ENTITY_APPEARANCE_HANDLER(case=Full entity look, race=4*, hair=3*, head=0*, body=21*, hands=21*, legs=21*, feet=21*, main=0*, sub=0*)
  1: 0x0474 [0x00] END_REQSTACK()
```

### Event 65535.33

#### Metadata

| Field        | Value    |
|--------------|----------|
| Entrypoint   | 0x0475   |
| Data Size    | 21 bytes |
| Instructions | 2        |

```
      00 01 02 03 04 05 06 07  08 09 0A 0B 0C 0D 0E 0F
      -- -- -- -- -- -- -- --  -- -- -- -- -- -- -- --
0470:                B6 0B 68  80 15 80 69 80 6A 80 6A       ..h...i.j.j
0480: 80 6A 80 6A 80 15 80 15  80 00                    .j.j......      
```

#### Opcodes

```
  0: 0x0475 [0xB6] ENTITY_APPEARANCE_HANDLER(case=Full entity look, race=8*, hair=0*, head=125*, body=96*, hands=96*, legs=96*, feet=96*, main=0*, sub=0*)
  1: 0x0489 [0x00] END_REQSTACK()
```

### Event 65535.34

#### Metadata

| Field        | Value    |
|--------------|----------|
| Entrypoint   | 0x048A   |
| Data Size    | 21 bytes |
| Instructions | 2        |

```
      00 01 02 03 04 05 06 07  08 09 0A 0B 0C 0D 0E 0F
      -- -- -- -- -- -- -- --  -- -- -- -- -- -- -- --
0480:                                B6 0B 68 80 0F 80            ..h...
0490: 69 80 6A 80 6A 80 6A 80  6A 80 15 80 15 80 00     i.j.j.j.j...... 
```

#### Opcodes

```
  0: 0x048A [0xB6] ENTITY_APPEARANCE_HANDLER(case=Full entity look, race=8*, hair=3*, head=125*, body=96*, hands=96*, legs=96*, feet=96*, main=0*, sub=0*)
  1: 0x049E [0x00] END_REQSTACK()
```

### Event 65535.35

#### Metadata

| Field        | Value    |
|--------------|----------|
| Entrypoint   | 0x049F   |
| Data Size    | 21 bytes |
| Instructions | 2        |

```
      00 01 02 03 04 05 06 07  08 09 0A 0B 0C 0D 0E 0F
      -- -- -- -- -- -- -- --  -- -- -- -- -- -- -- --
0490:                                               B6                 .
04A0: 0B 0F 80 10 80 11 80 12  80 13 80 14 80 14 80 15  ................
04B0: 80 15 80 00                                       ....            
```

#### Opcodes

```
  0: 0x049F [0xB6] ENTITY_APPEARANCE_HANDLER(case=Full entity look, race=3*, hair=15*, head=56*, body=41*, hands=217*, legs=12*, feet=12*, main=0*, sub=0*)
  1: 0x04B3 [0x00] END_REQSTACK()
```

### Event 65535.36

#### Metadata

| Field        | Value    |
|--------------|----------|
| Entrypoint   | 0x04B4   |
| Data Size    | 21 bytes |
| Instructions | 2        |

```
      00 01 02 03 04 05 06 07  08 09 0A 0B 0C 0D 0E 0F
      -- -- -- -- -- -- -- --  -- -- -- -- -- -- -- --
04B0:             B6 0B 0F 80  31 80 11 80 6B 80 14 80      ....1...k...
04C0: 14 80 14 80 15 80 15 80  00                       .........       
```

#### Opcodes

```
  0: 0x04B4 [0xB6] ENTITY_APPEARANCE_HANDLER(case=Full entity look, race=3*, hair=11*, head=56*, body=221*, hands=12*, legs=12*, feet=12*, main=0*, sub=0*)
  1: 0x04C8 [0x00] END_REQSTACK()
```

### Event 65535.37

#### Metadata

| Field        | Value    |
|--------------|----------|
| Entrypoint   | 0x04C9   |
| Data Size    | 21 bytes |
| Instructions | 2        |

```
      00 01 02 03 04 05 06 07  08 09 0A 0B 0C 0D 0E 0F
      -- -- -- -- -- -- -- --  -- -- -- -- -- -- -- --
04C0:                             B6 0B 0F 80 1D 80 11           .......
04D0: 80 6B 80 14 80 14 80 14  80 15 80 15 80 00        .k............  
```

#### Opcodes

```
  0: 0x04C9 [0xB6] ENTITY_APPEARANCE_HANDLER(case=Full entity look, race=3*, hair=1*, head=56*, body=221*, hands=12*, legs=12*, feet=12*, main=0*, sub=0*)
  1: 0x04DD [0x00] END_REQSTACK()
```

### Event 65535.38

#### Metadata

| Field        | Value    |
|--------------|----------|
| Entrypoint   | 0x04DE   |
| Data Size    | 21 bytes |
| Instructions | 2        |

```
      00 01 02 03 04 05 06 07  08 09 0A 0B 0C 0D 0E 0F
      -- -- -- -- -- -- -- --  -- -- -- -- -- -- -- --
04D0:                                            B6 0B                ..
04E0: 66 80 56 80 15 80 06 80  6C 80 6C 80 6C 80 15 80  f.V.....l.l.l...
04F0: 15 80 00                                          ...             
```

#### Opcodes

```
  0: 0x04DE [0xB6] ENTITY_APPEARANCE_HANDLER(case=Full entity look, race=4*, hair=5*, head=0*, body=40*, hands=151*, legs=151*, feet=151*, main=0*, sub=0*)
  1: 0x04F2 [0x00] END_REQSTACK()
```

### Event 65535.39

#### Metadata

| Field        | Value    |
|--------------|----------|
| Entrypoint   | 0x04F3   |
| Data Size    | 21 bytes |
| Instructions | 2        |

```
      00 01 02 03 04 05 06 07  08 09 0A 0B 0C 0D 0E 0F
      -- -- -- -- -- -- -- --  -- -- -- -- -- -- -- --
04F0:          B6 0B 66 80 15  80 15 80 06 80 6C 80 6C     ..f.......l.l
0500: 80 6C 80 15 80 15 80 00                           .l......        
```

#### Opcodes

```
  0: 0x04F3 [0xB6] ENTITY_APPEARANCE_HANDLER(case=Full entity look, race=4*, hair=0*, head=0*, body=40*, hands=151*, legs=151*, feet=151*, main=0*, sub=0*)
  1: 0x0507 [0x00] END_REQSTACK()
```

### Event 65535.40

#### Metadata

| Field        | Value    |
|--------------|----------|
| Entrypoint   | 0x0508   |
| Data Size    | 21 bytes |
| Instructions | 2        |

```
      00 01 02 03 04 05 06 07  08 09 0A 0B 0C 0D 0E 0F
      -- -- -- -- -- -- -- --  -- -- -- -- -- -- -- --
0500:                          B6 0B 62 80 6D 80 6E 80          ..b.m.n.
0510: 6E 80 6E 80 6E 80 6E 80  15 80 15 80 00           n.n.n.n......   
```

#### Opcodes

```
  0: 0x0508 [0xB6] ENTITY_APPEARANCE_HANDLER(case=Full entity look, race=2*, hair=9*, head=211*, body=211*, hands=211*, legs=211*, feet=211*, main=0*, sub=0*)
  1: 0x051C [0x00] END_REQSTACK()
```

### Event 65535.41

#### Metadata

| Field        | Value    |
|--------------|----------|
| Entrypoint   | 0x051D   |
| Data Size    | 21 bytes |
| Instructions | 2        |

```
      00 01 02 03 04 05 06 07  08 09 0A 0B 0C 0D 0E 0F
      -- -- -- -- -- -- -- --  -- -- -- -- -- -- -- --
0510:                                         B6 0B 62               ..b
0520: 80 65 80 6E 80 6E 80 6E  80 6E 80 6E 80 15 80 15  .e.n.n.n.n.n....
0530: 80 00                                             ..              
```

#### Opcodes

```
  0: 0x051D [0xB6] ENTITY_APPEARANCE_HANDLER(case=Full entity look, race=2*, hair=6*, head=211*, body=211*, hands=211*, legs=211*, feet=211*, main=0*, sub=0*)
  1: 0x0531 [0x00] END_REQSTACK()
```

### Event 65535.42

#### Metadata

| Field        | Value    |
|--------------|----------|
| Entrypoint   | 0x0532   |
| Data Size    | 21 bytes |
| Instructions | 2        |

```
      00 01 02 03 04 05 06 07  08 09 0A 0B 0C 0D 0E 0F
      -- -- -- -- -- -- -- --  -- -- -- -- -- -- -- --
0530:       B6 0B 62 80 1D 80  6E 80 6E 80 6E 80 6E 80    ..b...n.n.n.n.
0540: 6E 80 15 80 15 80 00                              n......         
```

#### Opcodes

```
  0: 0x0532 [0xB6] ENTITY_APPEARANCE_HANDLER(case=Full entity look, race=2*, hair=1*, head=211*, body=211*, hands=211*, legs=211*, feet=211*, main=0*, sub=0*)
  1: 0x0546 [0x00] END_REQSTACK()
```

### Event 65535.43

#### Metadata

| Field        | Value    |
|--------------|----------|
| Entrypoint   | 0x0547   |
| Data Size    | 21 bytes |
| Instructions | 2        |

```
      00 01 02 03 04 05 06 07  08 09 0A 0B 0C 0D 0E 0F
      -- -- -- -- -- -- -- --  -- -- -- -- -- -- -- --
0540:                      B6  0B 0F 80 14 80 6F 80 70         ......o.p
0550: 80 6F 80 6F 80 6F 80 15  80 15 80 00              .o.o.o......    
```

#### Opcodes

```
  0: 0x0547 [0xB6] ENTITY_APPEARANCE_HANDLER(case=Full entity look, race=3*, hair=12*, head=164*, body=69*, hands=164*, legs=164*, feet=164*, main=0*, sub=0*)
  1: 0x055B [0x00] END_REQSTACK()
```

### Event 65535.44

#### Metadata

| Field        | Value    |
|--------------|----------|
| Entrypoint   | 0x055C   |
| Data Size    | 21 bytes |
| Instructions | 2        |

```
      00 01 02 03 04 05 06 07  08 09 0A 0B 0C 0D 0E 0F
      -- -- -- -- -- -- -- --  -- -- -- -- -- -- -- --
0550:                                      B6 0B 66 80              ..f.
0560: 56 80 15 80 71 80 72 80  72 80 72 80 15 80 15 80  V...q.r.r.r.....
0570: 00                                                .               
```

#### Opcodes

```
  0: 0x055C [0xB6] ENTITY_APPEARANCE_HANDLER(case=Full entity look, race=4*, hair=5*, head=0*, body=47*, hands=26*, legs=26*, feet=26*, main=0*, sub=0*)
  1: 0x0570 [0x00] END_REQSTACK()
```

### Event 65535.45

#### Metadata

| Field        | Value    |
|--------------|----------|
| Entrypoint   | 0x0571   |
| Data Size    | 21 bytes |
| Instructions | 2        |

```
      00 01 02 03 04 05 06 07  08 09 0A 0B 0C 0D 0E 0F
      -- -- -- -- -- -- -- --  -- -- -- -- -- -- -- --
0570:    B6 0B 66 80 62 80 15  80 13 80 13 80 13 80 13   ..f.b..........
0580: 80 15 80 15 80 00                                 ......          
```

#### Opcodes

```
  0: 0x0571 [0xB6] ENTITY_APPEARANCE_HANDLER(case=Full entity look, race=4*, hair=2*, head=0*, body=217*, hands=217*, legs=217*, feet=217*, main=0*, sub=0*)
  1: 0x0585 [0x00] END_REQSTACK()
```

### Event 65535.46

#### Metadata

| Field        | Value    |
|--------------|----------|
| Entrypoint   | 0x0586   |
| Data Size    | 21 bytes |
| Instructions | 2        |

```
      00 01 02 03 04 05 06 07  08 09 0A 0B 0C 0D 0E 0F
      -- -- -- -- -- -- -- --  -- -- -- -- -- -- -- --
0580:                   B6 0B  0F 80 57 80 15 80 13 80        ....W.....
0590: 13 80 13 80 13 80 15 80  15 80 00                 ...........     
```

#### Opcodes

```
  0: 0x0586 [0xB6] ENTITY_APPEARANCE_HANDLER(case=Full entity look, race=3*, hair=14*, head=0*, body=217*, hands=217*, legs=217*, feet=217*, main=0*, sub=0*)
  1: 0x059A [0x00] END_REQSTACK()
```

### Event 65535.47

#### Metadata

| Field        | Value    |
|--------------|----------|
| Entrypoint   | 0x059B   |
| Data Size    | 21 bytes |
| Instructions | 2        |

```
      00 01 02 03 04 05 06 07  08 09 0A 0B 0C 0D 0E 0F
      -- -- -- -- -- -- -- --  -- -- -- -- -- -- -- --
0590:                                   B6 0B 0F 80 66             ....f
05A0: 80 15 80 14 80 14 80 14  80 14 80 15 80 15 80 00  ................
```

#### Opcodes

```
  0: 0x059B [0xB6] ENTITY_APPEARANCE_HANDLER(case=Full entity look, race=3*, hair=4*, head=0*, body=12*, hands=12*, legs=12*, feet=12*, main=0*, sub=0*)
  1: 0x05AF [0x00] END_REQSTACK()
```

### Event 65535.48

#### Metadata

| Field        | Value    |
|--------------|----------|
| Entrypoint   | 0x05B0   |
| Data Size    | 21 bytes |
| Instructions | 2        |

```
      00 01 02 03 04 05 06 07  08 09 0A 0B 0C 0D 0E 0F
      -- -- -- -- -- -- -- --  -- -- -- -- -- -- -- --
05B0: B6 0B 0F 80 15 80 15 80  6B 80 13 80 14 80 14 80  ........k.......
05C0: 15 80 15 80 00                                    .....           
```

#### Opcodes

```
  0: 0x05B0 [0xB6] ENTITY_APPEARANCE_HANDLER(case=Full entity look, race=3*, hair=0*, head=0*, body=221*, hands=217*, legs=12*, feet=12*, main=0*, sub=0*)
  1: 0x05C4 [0x00] END_REQSTACK()
```

### Event 65535.49

#### Metadata

| Field        | Value    |
|--------------|----------|
| Entrypoint   | 0x05C5   |
| Data Size    | 21 bytes |
| Instructions | 2        |

```
      00 01 02 03 04 05 06 07  08 09 0A 0B 0C 0D 0E 0F
      -- -- -- -- -- -- -- --  -- -- -- -- -- -- -- --
05C0:                B6 0B 0F  80 66 80 15 80 73 80 73       ....f...s.s
05D0: 80 07 80 07 80 15 80 15  80 00                    ..........      
```

#### Opcodes

```
  0: 0x05C5 [0xB6] ENTITY_APPEARANCE_HANDLER(case=Full entity look, race=3*, hair=4*, head=0*, body=114*, hands=114*, legs=13*, feet=13*, main=0*, sub=0*)
  1: 0x05D9 [0x00] END_REQSTACK()
```

### Event 65535.50

#### Metadata

| Field        | Value    |
|--------------|----------|
| Entrypoint   | 0x05DA   |
| Data Size    | 21 bytes |
| Instructions | 2        |

```
      00 01 02 03 04 05 06 07  08 09 0A 0B 0C 0D 0E 0F
      -- -- -- -- -- -- -- --  -- -- -- -- -- -- -- --
05D0:                                B6 0B 0F 80 62 80            ....b.
05E0: 15 80 74 80 74 80 74 80  74 80 15 80 15 80 00     ..t.t.t.t...... 
```

#### Opcodes

```
  0: 0x05DA [0xB6] ENTITY_APPEARANCE_HANDLER(case=Full entity look, race=3*, hair=2*, head=0*, body=58*, hands=58*, legs=58*, feet=58*, main=0*, sub=0*)
  1: 0x05EE [0x00] END_REQSTACK()
```

### Event 65535.51

#### Metadata

| Field        | Value    |
|--------------|----------|
| Entrypoint   | 0x05EF   |
| Data Size    | 21 bytes |
| Instructions | 2        |

```
      00 01 02 03 04 05 06 07  08 09 0A 0B 0C 0D 0E 0F
      -- -- -- -- -- -- -- --  -- -- -- -- -- -- -- --
05E0:                                               B6                 .
05F0: 0B 1D 80 62 80 75 80 75  80 75 80 75 80 75 80 15  ...b.u.u.u.u.u..
0600: 80 15 80 00                                       ....            
```

#### Opcodes

```
  0: 0x05EF [0xB6] ENTITY_APPEARANCE_HANDLER(case=Full entity look, race=1*, hair=2*, head=210*, body=210*, hands=210*, legs=210*, feet=210*, main=0*, sub=0*)
  1: 0x0603 [0x00] END_REQSTACK()
```

### Event 65535.52

#### Metadata

| Field        | Value    |
|--------------|----------|
| Entrypoint   | 0x0604   |
| Data Size    | 21 bytes |
| Instructions | 2        |

```
      00 01 02 03 04 05 06 07  08 09 0A 0B 0C 0D 0E 0F
      -- -- -- -- -- -- -- --  -- -- -- -- -- -- -- --
0600:             B6 0B 0F 80  15 80 15 80 6B 80 14 80      ........k...
0610: 6B 80 07 80 15 80 15 80  00                       k........       
```

#### Opcodes

```
  0: 0x0604 [0xB6] ENTITY_APPEARANCE_HANDLER(case=Full entity look, race=3*, hair=0*, head=0*, body=221*, hands=12*, legs=221*, feet=13*, main=0*, sub=0*)
  1: 0x0618 [0x00] END_REQSTACK()
```

### Event 65535.53

#### Metadata

| Field        | Value    |
|--------------|----------|
| Entrypoint   | 0x0619   |
| Data Size    | 21 bytes |
| Instructions | 2        |

```
      00 01 02 03 04 05 06 07  08 09 0A 0B 0C 0D 0E 0F
      -- -- -- -- -- -- -- --  -- -- -- -- -- -- -- --
0610:                             B6 0B 0F 80 62 80 15           ....b..
0620: 80 07 80 6B 80 07 80 6B  80 15 80 15 80 00        ...k...k......  
```

#### Opcodes

```
  0: 0x0619 [0xB6] ENTITY_APPEARANCE_HANDLER(case=Full entity look, race=3*, hair=2*, head=0*, body=13*, hands=221*, legs=13*, feet=221*, main=0*, sub=0*)
  1: 0x062D [0x00] END_REQSTACK()
```

### Event 65535.54

#### Metadata

| Field        | Value    |
|--------------|----------|
| Entrypoint   | 0x062E   |
| Data Size    | 21 bytes |
| Instructions | 2        |

```
      00 01 02 03 04 05 06 07  08 09 0A 0B 0C 0D 0E 0F
      -- -- -- -- -- -- -- --  -- -- -- -- -- -- -- --
0620:                                            B6 0B                ..
0630: 0F 80 65 80 15 80 14 80  14 80 14 80 75 80 15 80  ..e.........u...
0640: 15 80 00                                          ...             
```

#### Opcodes

```
  0: 0x062E [0xB6] ENTITY_APPEARANCE_HANDLER(case=Full entity look, race=3*, hair=6*, head=0*, body=12*, hands=12*, legs=12*, feet=210*, main=0*, sub=0*)
  1: 0x0642 [0x00] END_REQSTACK()
```

### Event 65535.55

#### Metadata

| Field        | Value    |
|--------------|----------|
| Entrypoint   | 0x0643   |
| Data Size    | 21 bytes |
| Instructions | 2        |

```
      00 01 02 03 04 05 06 07  08 09 0A 0B 0C 0D 0E 0F
      -- -- -- -- -- -- -- --  -- -- -- -- -- -- -- --
0640:          B6 0B 0F 80 14  80 15 80 14 80 14 80 14     .............
0650: 80 76 80 15 80 15 80 00                           .v......        
```

#### Opcodes

```
  0: 0x0643 [0xB6] ENTITY_APPEARANCE_HANDLER(case=Full entity look, race=3*, hair=12*, head=0*, body=12*, hands=12*, legs=12*, feet=251*, main=0*, sub=0*)
  1: 0x0657 [0x00] END_REQSTACK()
```

### Event 65535.56

#### Metadata

| Field        | Value    |
|--------------|----------|
| Entrypoint   | 0x0658   |
| Data Size    | 21 bytes |
| Instructions | 2        |

```
      00 01 02 03 04 05 06 07  08 09 0A 0B 0C 0D 0E 0F
      -- -- -- -- -- -- -- --  -- -- -- -- -- -- -- --
0650:                          B6 0B 0F 80 57 80 15 80          ....W...
0660: 77 80 13 80 13 80 13 80  15 80 15 80 00           w............   
```

#### Opcodes

```
  0: 0x0658 [0xB6] ENTITY_APPEARANCE_HANDLER(case=Full entity look, race=3*, hair=14*, head=0*, body=76*, hands=217*, legs=217*, feet=217*, main=0*, sub=0*)
  1: 0x066C [0x00] END_REQSTACK()
```

### Event 65535.57

#### Metadata

| Field        | Value    |
|--------------|----------|
| Entrypoint   | 0x066D   |
| Data Size    | 21 bytes |
| Instructions | 2        |

```
      00 01 02 03 04 05 06 07  08 09 0A 0B 0C 0D 0E 0F
      -- -- -- -- -- -- -- --  -- -- -- -- -- -- -- --
0660:                                         B6 0B 0F               ...
0670: 80 6D 80 15 80 14 80 14  80 14 80 76 80 15 80 15  .m.........v....
0680: 80 00                                             ..              
```

#### Opcodes

```
  0: 0x066D [0xB6] ENTITY_APPEARANCE_HANDLER(case=Full entity look, race=3*, hair=9*, head=0*, body=12*, hands=12*, legs=12*, feet=251*, main=0*, sub=0*)
  1: 0x0681 [0x00] END_REQSTACK()
```

### Event 65535.58

#### Metadata

| Field        | Value    |
|--------------|----------|
| Entrypoint   | 0x0682   |
| Data Size    | 21 bytes |
| Instructions | 2        |

```
      00 01 02 03 04 05 06 07  08 09 0A 0B 0C 0D 0E 0F
      -- -- -- -- -- -- -- --  -- -- -- -- -- -- -- --
0680:       B6 0B 0F 80 62 80  15 80 31 80 72 80 72 80    ....b...1.r.r.
0690: 72 80 15 80 15 80 00                              r......         
```

#### Opcodes

```
  0: 0x0682 [0xB6] ENTITY_APPEARANCE_HANDLER(case=Full entity look, race=3*, hair=2*, head=0*, body=11*, hands=26*, legs=26*, feet=26*, main=0*, sub=0*)
  1: 0x0696 [0x00] END_REQSTACK()
```

### Event 65535.59

#### Metadata

| Field        | Value    |
|--------------|----------|
| Entrypoint   | 0x0697   |
| Data Size    | 21 bytes |
| Instructions | 2        |

```
      00 01 02 03 04 05 06 07  08 09 0A 0B 0C 0D 0E 0F
      -- -- -- -- -- -- -- --  -- -- -- -- -- -- -- --
0690:                      B6  0B 66 80 07 80 15 80 6B         ..f.....k
06A0: 80 14 80 14 80 14 80 76  80 15 80 00              .......v....    
```

#### Opcodes

```
  0: 0x0697 [0xB6] ENTITY_APPEARANCE_HANDLER(case=Full entity look, race=4*, hair=13*, head=0*, body=221*, hands=12*, legs=12*, feet=12*, main=251*, sub=0*)
  1: 0x06AB [0x00] END_REQSTACK()
```

### Event 65535.60

#### Metadata

| Field        | Value   |
|--------------|---------|
| Entrypoint   | 0x06AC  |
| Data Size    | 3 bytes |
| Instructions | 2       |

```
      00 01 02 03 04 05 06 07  08 09 0A 0B 0C 0D 0E 0F
      -- -- -- -- -- -- -- --  -- -- -- -- -- -- -- --
06A0:                                      A5 01 00                 ... 
```

#### Opcodes

```
  0: 0x06AC [0xA5] EventEntity->Flags3.BallistaTeam |= 0x08  // Set bit 3 of BallistaTeam
  1: 0x06AE [0x00] END_REQSTACK()
```

### Event 65535.61

#### Metadata

| Field        | Value   |
|--------------|---------|
| Entrypoint   | 0x06AF  |
| Data Size    | 3 bytes |
| Instructions | 2       |

```
      00 01 02 03 04 05 06 07  08 09 0A 0B 0C 0D 0E 0F
      -- -- -- -- -- -- -- --  -- -- -- -- -- -- -- --
06A0:                                               A5                 .
06B0: 00 00                                             ..              
```

#### Opcodes

```
  0: 0x06AF [0xA5] EventEntity->Flags3.BallistaTeam &= ~0x08  // Clear bit 3 of BallistaTeam
  1: 0x06B1 [0x00] END_REQSTACK()
```

### Event 65535.62

#### Metadata

| Field        | Value   |
|--------------|---------|
| Entrypoint   | 0x06B2  |
| Data Size    | 1 bytes |
| Instructions | 1       |

```
      00 01 02 03 04 05 06 07  08 09 0A 0B 0C 0D 0E 0F
      -- -- -- -- -- -- -- --  -- -- -- -- -- -- -- --
06B0:       00                                            .             
```

#### Opcodes

```
  0: 0x06B2 [0x00] END_REQSTACK()
```

### Event 65535.63

#### Metadata

| Field        | Value    |
|--------------|----------|
| Entrypoint   | 0x06B3   |
| Data Size    | 18 bytes |
| Instructions | 4        |

```
      00 01 02 03 04 05 06 07  08 09 0A 0B 0C 0D 0E 0F
      -- -- -- -- -- -- -- --  -- -- -- -- -- -- -- --
06B0:          22 00 2F 00 F8  FF FF 7F 6C F8 FF FF 7F     "./.....l....
06C0: 15 80 1D 80 00                                    .....           
```

#### Opcodes

```
  0: 0x06B3 [0x22] ENTITY_HIDE_FLAG(enabled=0x00)
  1: 0x06B5 [0x2F] EventEntity->Render.Flags0 &= ~0x80000 // Bit 19
  2: 0x06BB [0x6C] FADE_ENTITY_COLOR(entity_id=EventEntity, end_alpha=0*, fade_time=1*)
  3: 0x06C4 [0x00] END_REQSTACK()
```

### Event 65535.64

#### Metadata

| Field        | Value    |
|--------------|----------|
| Entrypoint   | 0x06C5   |
| Data Size    | 10 bytes |
| Instructions | 2        |

```
      00 01 02 03 04 05 06 07  08 09 0A 0B 0C 0D 0E 0F
      -- -- -- -- -- -- -- --  -- -- -- -- -- -- -- --
06C0:                6C F8 FF  FF 7F 1C 80 1D 80 00          l......... 
```

#### Opcodes

```
  0: 0x06C5 [0x6C] FADE_ENTITY_COLOR(entity_id=EventEntity, end_alpha=128*, fade_time=1*)
  1: 0x06CE [0x00] END_REQSTACK()
```

### Event 65535.65

#### Metadata

| Field        | Value   |
|--------------|---------|
| Entrypoint   | 0x06CF  |
| Data Size    | 9 bytes |
| Instructions | 3       |

```
      00 01 02 03 04 05 06 07  08 09 0A 0B 0C 0D 0E 0F
      -- -- -- -- -- -- -- --  -- -- -- -- -- -- -- --
06C0:                                               22                 "
06D0: 00 2F 00 F8 FF FF 7F 00                           ./......        
```

#### Opcodes

```
  0: 0x06CF [0x22] ENTITY_HIDE_FLAG(enabled=0x00)
  1: 0x06D1 [0x2F] EventEntity->Render.Flags0 &= ~0x80000 // Bit 19
  2: 0x06D7 [0x00] END_REQSTACK()
```

### Event 65535.66

#### Metadata

| Field        | Value   |
|--------------|---------|
| Entrypoint   | 0x06D8  |
| Data Size    | 9 bytes |
| Instructions | 3       |

```
      00 01 02 03 04 05 06 07  08 09 0A 0B 0C 0D 0E 0F
      -- -- -- -- -- -- -- --  -- -- -- -- -- -- -- --
06D0:                          22 01 2F 01 F8 FF FF 7F          "./.....
06E0: 00                                                .               
```

#### Opcodes

```
  0: 0x06D8 [0x22] ENTITY_HIDE_FLAG(enabled=0x01)
  1: 0x06DA [0x2F] EventEntity->Render.Flags0 |= 0x80000 // Bit 19
  2: 0x06E0 [0x00] END_REQSTACK()
```

### Event 65535.67

#### Metadata

| Field        | Value    |
|--------------|----------|
| Entrypoint   | 0x06E1   |
| Data Size    | 10 bytes |
| Instructions | 2        |

```
      00 01 02 03 04 05 06 07  08 09 0A 0B 0C 0D 0E 0F
      -- -- -- -- -- -- -- --  -- -- -- -- -- -- -- --
06E0:    6C F8 FF FF 7F 15 80  1D 80 00                  l.........     
```

#### Opcodes

```
  0: 0x06E1 [0x6C] FADE_ENTITY_COLOR(entity_id=EventEntity, end_alpha=0*, fade_time=1*)
  1: 0x06EA [0x00] END_REQSTACK()
```

### Event 65535.68

#### Metadata

| Field        | Value    |
|--------------|----------|
| Entrypoint   | 0x06EB   |
| Data Size    | 10 bytes |
| Instructions | 2        |

```
      00 01 02 03 04 05 06 07  08 09 0A 0B 0C 0D 0E 0F
      -- -- -- -- -- -- -- --  -- -- -- -- -- -- -- --
06E0:                                   6C F8 FF FF 7F             l....
06F0: 1C 80 1D 80 00                                    .....           
```

#### Opcodes

```
  0: 0x06EB [0x6C] FADE_ENTITY_COLOR(entity_id=EventEntity, end_alpha=128*, fade_time=1*)
  1: 0x06F4 [0x00] END_REQSTACK()
```
