# 17105649

## Common Data

| Field            | Value                            |
|------------------|----------------------------------|
| Zone             | Southern San d'Oria [S] (ID: 80) |
| Block Size       | 7756 bytes                       |
| Total Events     | 3                                |
| References Count | 151                              |

## List of Events

| Event ID              | Entrypoint   |   Size |   Instructions |
|-----------------------|--------------|--------|----------------|
| [65535](#event-65535) | 0x0000       |      1 |              1 |
| [113](#event-113)     | 0x0001       |   2739 |            336 |
| [114](#event-114)     | 0x0AB4       |   4384 |            478 |

## DAT References (imed_data)

|   Index | Hex Value   |   Dec Value |
|---------|-------------|-------------|
|       0 | 0x0013      |          19 |
|       1 | 0xFFFD578F  |  4294793103 |
|       2 | 0xDFF5      |       57333 |
|       3 | 0xFFFFF769  |  4294965097 |
|       4 | 0x008D      |         141 |
|       5 | 0xFFFD289D  |  4294781085 |
|       6 | 0xCFD1      |       53201 |
|       7 | 0x00A0      |         160 |
|       8 | 0xFFFD6D89  |  4294798729 |
|       9 | 0xE2D8      |       58072 |
|      10 | 0xFFFFF830  |  4294965296 |
|      11 | 0x000F      |          15 |
|      12 | 0x01C5      |         453 |
|      13 | 0x0000      |           0 |
|      14 | 0xFFFD6390  |  4294796176 |
|      15 | 0xDCF0      |       56560 |
|      16 | 0x000A      |          10 |
|      17 | 0x0078      |         120 |
|      18 | 0x300C      |       12300 |
|      19 | 0x0536      |        1334 |
|      20 | 0x300D      |       12301 |
|      21 | 0x04F8      |        1272 |
|      22 | 0x300E      |       12302 |
|      23 | 0x300F      |       12303 |
|      24 | 0x3010      |       12304 |
|      25 | 0xFFFD51B2  |  4294791602 |
|      26 | 0xE3CE      |       58318 |
|      27 | 0x0EA4      |        3748 |
|      28 | 0x3011      |       12305 |
|      29 | 0x3012      |       12306 |
|      30 | 0x3013      |       12307 |
|      31 | 0x007F      |         127 |
|      32 | 0x3014      |       12308 |
|      33 | 0x3015      |       12309 |
|      34 | 0xFFFD62B5  |  4294795957 |
|      35 | 0xE36F      |       58223 |
|      36 | 0x0C29      |        3113 |
|      37 | 0x00B4      |         180 |
|      38 | 0x3016      |       12310 |
|      39 | 0x00FE      |         254 |
|      40 | 0xFFFD654D  |  4294796621 |
|      41 | 0xE6A6      |       59046 |
|      42 | 0x3017      |       12311 |
|      43 | 0x0001      |           1 |
|      44 | 0x3018      |       12312 |
|      45 | 0x001D      |          29 |
|      46 | 0x3019      |       12313 |
|      47 | 0x301A      |       12314 |
|      48 | 0x301B      |       12315 |
|      49 | 0x301C      |       12316 |
|      50 | 0x301D      |       12317 |
|      51 | 0x003C      |          60 |
|      52 | 0x301E      |       12318 |
|      53 | 0x0014      |          20 |
|      54 | 0x301F      |       12319 |
|      55 | 0x3020      |       12320 |
|      56 | 0x3021      |       12321 |
|      57 | 0x3022      |       12322 |
|      58 | 0x3023      |       12323 |
|      59 | 0x3024      |       12324 |
|      60 | 0x3025      |       12325 |
|      61 | 0x3026      |       12326 |
|      62 | 0x3027      |       12327 |
|      63 | 0x3028      |       12328 |
|      64 | 0x0007      |           7 |
|      65 | 0x3029      |       12329 |
|      66 | 0x302A      |       12330 |
|      67 | 0x302B      |       12331 |
|      68 | 0x302C      |       12332 |
|      69 | 0x0515      |        1301 |
|      70 | 0x302D      |       12333 |
|      71 | 0xFFFD41FC  |  4294787580 |
|      72 | 0xE200      |       57856 |
|      73 | 0x0032      |          50 |
|      74 | 0x00AA      |         170 |
|      75 | 0x059D      |        1437 |
|      76 | 0x302E      |       12334 |
|      77 | 0x302F      |       12335 |
|      78 | 0x001E      |          30 |
|      79 | 0x3030      |       12336 |
|      80 | 0x3031      |       12337 |
|      81 | 0x00C8      |         200 |
|      82 | 0xFFFFF79B  |  4294965147 |
|      83 | 0xFFFEB2AE  |  4294881966 |
|      84 | 0x07CF      |        1999 |
|      85 | 0x0204      |         516 |
|      86 | 0xFFFFCC10  |  4294954000 |
|      87 | 0xFFFEC59C  |  4294886812 |
|      88 | 0x012B      |         299 |
|      89 | 0xFFFFC0D4  |  4294951124 |
|      90 | 0xFFFECFE4  |  4294889444 |
|      91 | 0x0270      |         624 |
|      92 | 0x3AAC      |       15020 |
|      93 | 0xFFFE80B7  |  4294869175 |
|      94 | 0x0897      |        2199 |
|      95 | 0x033B      |         827 |
|      96 | 0x0B4B      |        2891 |
|      97 | 0xFFFFE9F8  |  4294961656 |
|      98 | 0xFFFEA97A  |  4294879610 |
|      99 | 0x3032      |       12338 |
|     100 | 0x000C      |          12 |
|     101 | 0x3033      |       12339 |
|     102 | 0x0028      |          40 |
|     103 | 0x0064      |         100 |
|     104 | 0xFFFFEF67  |  4294963047 |
|     105 | 0xFFFEA1DC  |  4294877660 |
|     106 | 0x0908      |        2312 |
|     107 | 0x3034      |       12340 |
|     108 | 0x0002      |           2 |
|     109 | 0x0003      |           3 |
|     110 | 0x0004      |           4 |
|     111 | 0x0005      |           5 |
|     112 | 0x0006      |           6 |
|     113 | 0x0008      |           8 |
|     114 | 0x0B4A      |        2890 |
|     115 | 0x3035      |       12341 |
|     116 | 0x0027      |          39 |
|     117 | 0x0CDA      |        3290 |
|     118 | 0x3036      |       12342 |
|     119 | 0x3037      |       12343 |
|     120 | 0x3038      |       12344 |
|     121 | 0x3039      |       12345 |
|     122 | 0x303A      |       12346 |
|     123 | 0x303B      |       12347 |
|     124 | 0x303C      |       12348 |
|     125 | 0x303D      |       12349 |
|     126 | 0x0E24      |        3620 |
|     127 | 0x303E      |       12350 |
|     128 | 0x303F      |       12351 |
|     129 | 0x3040      |       12352 |
|     130 | 0x3041      |       12353 |
|     131 | 0x3042      |       12354 |
|     132 | 0x3043      |       12355 |
|     133 | 0x3044      |       12356 |
|     134 | 0x3045      |       12357 |
|     135 | 0x0080      |         128 |
|     136 | 0x3046      |       12358 |
|     137 | 0x3047      |       12359 |
|     138 | 0x3048      |       12360 |
|     139 | 0x3049      |       12361 |
|     140 | 0x0024      |          36 |
|     141 | 0x006E      |         110 |
|     142 | 0x304A      |       12362 |
|     143 | 0x304B      |       12363 |
|     144 | 0x304C      |       12364 |
|     145 | 0x304D      |       12365 |
|     146 | 0x0DF0      |        3568 |
|     147 | 0x304E      |       12366 |
|     148 | 0x00C9      |         201 |
|     149 | 0x002D      |          45 |
|     150 | 0x00D7      |         215 |

## String References

- **12361**: Participate in the ambush? [You can count on me!/Mayhap another time...]

## Events

### Event 65535

#### Metadata

| Field        | Value   |
|--------------|---------|
| Entrypoint   | 0x0000  |
| Data Size    | 1 bytes |
| Instructions | 1       |

```
      00 01 02 03 04 05 06 07  08 09 0A 0B 0C 0D 0E 0F
      -- -- -- -- -- -- -- --  -- -- -- -- -- -- -- --
0000: 00                                                .               
```

#### Opcodes

```
  0: 0x0000 [0x00] END_REQSTACK()
```

### Event 113

#### Metadata

| Field        | Value      |
|--------------|------------|
| Entrypoint   | 0x0001     |
| Data Size    | 2739 bytes |
| Instructions | 336        |

```
      00 01 02 03 04 05 06 07  08 09 0A 0B 0C 0D 0E 0F
      -- -- -- -- -- -- -- --  -- -- -- -- -- -- -- --
0000:    42 20 01 46 01 1A A6  19 46 01 38 00 80 4E 00   B .F....F.8..N.
0010: F0 FF FF 7F 27 10 24 02  05 01 09 27 10 0E 02 05  ....'.$....'....
0020: 01 1D 4E 00 07 02 05 01  4E 00 39 02 05 01 4E 00  ..N.....N.9...N.
0030: F6 01 05 01 4E 00 F7 01  05 01 4E 00 F8 01 05 01  ....N.....N.....
0040: 92 01 07 02 05 01 92 01  24 02 05 01 92 01 0E 02  ........$.......
0050: 05 01 92 01 39 02 05 01  92 01 F6 01 05 01 92 01  ....9...........
0060: F7 01 05 01 92 01 F8 01  05 01 94 01 F0 FF FF 7F  ................
0070: 94 01 07 02 05 01 94 01  24 02 05 01 94 01 0E 02  ........$.......
0080: 05 01 94 01 39 02 05 01  BA F0 FF FF 7F 01 80 02  ....9...........
0090: 80 03 80 04 80 BA 24 02  05 01 05 80 06 80 03 80  ......$.........
00A0: 07 80 BA 0E 02 05 01 08  80 09 80 0A 80 07 80 80  ................
00B0: F0 FF FF 7F 80 07 02 05  01 80 24 02 05 01 80 0E  ..........$.....
00C0: 02 05 01 80 39 02 05 01  80 F6 01 05 01 80 F7 01  ....9...........
00D0: 05 01 80 F8 01 05 01 4A  07 02 05 01 0E 02 05 01  .......J........
00E0: 4A 0E 02 05 01 07 02 05  01 6F 76 0E 02 05 01 1C  J........ov.....
00F0: 0B 80 45 0C 80 F0 FF FF  7F F0 FF FF 7F 71 31 30  ..E..........q10
0100: 31 0D 80 03 25 10 0E 80  03 27 10 0F 80 03 26 10  1...%....'....&.
0110: 0A 80 03 28 10 04 80 27  10 F0 FF FF 7F 16 1C 10  ...(...'........
0120: 80 1A 85 19 1C 11 80 4A  07 02 05 01 F0 FF FF 7F  .......J........
0130: 1C 10 80 52 0C 80 F0 FF  FF 7F F0 FF FF 7F 71 31  ...R..........q1
0140: 30 31 45 0C 80 F0 FF FF  7F F0 FF FF 7F 71 31 30  01E..........q10
0150: 35 0D 80 6F 76 07 02 05  01 2B 07 02 05 01 12 80  5..ov....+......
0160: 1C 10 80 4A 0E 02 05 01  F0 FF FF 7F 23 1C 10 80  ...J........#...
0170: 52 0C 80 F0 FF FF 7F F0  FF FF 7F 71 31 30 35 45  R..........q105E
0180: 0C 80 F0 FF FF 7F F0 FF  FF 7F 71 31 30 37 0D 80  ..........q107..
0190: 4A F0 FF FF 7F 0E 02 05  01 6F 76 0E 02 05 01 5B  J........ov....[
01A0: 13 80 0E 02 05 01 0E 02  05 01 74 6C 6B 30 2B 0E  ..........tlk0+.
01B0: 02 05 01 14 80 23 52 0C  80 F0 FF FF 7F F0 FF FF  .....#R.........
01C0: 7F 71 31 30 37 45 0C 80  F0 FF FF 7F F0 FF FF 7F  .q107E..........
01D0: 71 31 30 36 0D 80 5B 15  80 07 02 05 01 07 02 05  q106..[.........
01E0: 01 74 6C 61 30 2B 07 02  05 01 16 80 23 52 0C 80  .tla0+......#R..
01F0: F0 FF FF 7F F0 FF FF 7F  71 31 30 36 45 0C 80 F0  ........q106E...
0200: FF FF 7F F0 FF FF 7F 71  31 31 38 0D 80 2B 0E 02  .......q118..+..
0210: 05 01 17 80 23 2B 0E 02  05 01 18 80 23 5B 15 80  ....#+......#[..
0220: 07 02 05 01 07 02 05 01  74 6C 61 31 BA 24 02 05  ........tla1.$..
0230: 01 19 80 1A 80 03 80 1B  80 53 0E 02 05 01 0E 02  .........S......
0240: 05 01 74 6C 6B 30 52 0C  80 F0 FF FF 7F F0 FF FF  ..tlk0R.........
0250: 7F 71 31 31 38 45 0C 80  F0 FF FF 7F F0 FF FF 7F  .q118E..........
0260: 71 31 30 39 0D 80 7B 0E  02 05 01 5B 13 80 0E 02  q109..{....[....
0270: 05 01 0E 02 05 01 74 6C  6B 31 2B 0E 02 05 01 1C  ......tlk1+.....
0280: 80 23 53 0E 02 05 01 0E  02 05 01 74 6C 6B 31 4A  .#S........tlk1J
0290: 07 02 05 01 0E 02 05 01  1C 10 80 5D 0D 80 11 80  ...........]....
02A0: 52 0C 80 F0 FF FF 7F F0  FF FF 7F 71 31 30 39 45  R..........q109E
02B0: 0C 80 F0 FF FF 7F F0 FF  FF 7F 71 31 32 37 0D 80  ..........q127..
02C0: 2B 07 02 05 01 1D 80 23  52 0C 80 F0 FF FF 7F F0  +......#R.......
02D0: FF FF 7F 71 31 32 37 45  0C 80 F0 FF FF 7F F0 FF  ...q127E........
02E0: FF 7F 71 31 32 38 0D 80  5B 13 80 0E 02 05 01 0E  ..q128..[.......
02F0: 02 05 01 74 6C 61 30 2B  0E 02 05 01 1E 80 23 5C  ...tla0+......#\
0300: 00 1F 80 5C 01 1F 80 9A  52 0C 80 F0 FF FF 7F F0  ...\....R.......
0310: FF FF 7F 71 31 32 38 45  0C 80 F0 FF FF 7F F0 FF  ...q128E........
0320: FF 7F 71 31 32 39 0D 80  4A 0E 02 05 01 07 02 05  ..q129..J.......
0330: 01 53 0E 02 05 01 0E 02  05 01 74 6C 61 30 2B 07  .S........tla0+.
0340: 02 05 01 20 80 23 6F 76  0E 02 05 01 52 0C 80 F0  ... .#ov....R...
0350: FF FF 7F F0 FF FF 7F 71  31 32 39 45 0C 80 F0 FF  .......q129E....
0360: FF 7F F0 FF FF 7F 71 31  33 30 0D 80 5B 13 80 0E  ......q130..[...
0370: 02 05 01 0E 02 05 01 74  6C 61 30 2B 0E 02 05 01  .......tla0+....
0380: 21 80 23 03 25 10 22 80  03 27 10 23 80 03 26 10  !.#.%."..'.#..&.
0390: 0A 80 03 28 10 24 80 27  10 24 02 05 01 02 1C 10  ...(.$.'.$......
03A0: 80 52 0C 80 F0 FF FF 7F  F0 FF FF 7F 71 31 33 30  .R..........q130
03B0: 45 0C 80 F0 FF FF 7F F0  FF FF 7F 71 31 31 30 0D  E..........q110.
03C0: 80 5D 0D 80 11 80 1C 25  80 52 0C 80 F0 FF FF 7F  .].....%.R......
03D0: F0 FF FF 7F 71 31 31 30  45 0C 80 F0 FF FF 7F F0  ....q110E.......
03E0: FF FF 7F 71 31 31 31 0D  80 1C 10 80 4A 0E 02 05  ...q111.....J...
03F0: 01 24 02 05 01 4A F0 FF  FF 7F 24 02 05 01 2B 24  .$...J....$...+$
0400: 02 05 01 26 80 23 5C 00  27 80 5C 01 27 80 9A 52  ...&.#\.'.\.'..R
0410: 0C 80 F0 FF FF 7F F0 FF  FF 7F 71 31 31 31 45 0C  ..........q111E.
0420: 80 F0 FF FF 7F F0 FF FF  7F 71 31 31 32 0D 80 1C  .........q112...
0430: 10 80 6F 76 0E 02 05 01  BA 24 02 05 01 28 80 29  ..ov.....$...(.)
0440: 80 0A 80 07 80 5B 13 80  0E 02 05 01 0E 02 05 01  .....[..........
0450: 74 6C 6B 30 2B 0E 02 05  01 2A 80 23 4A 24 02 05  tlk0+....*.#J$..
0460: 01 F0 FF FF 7F 1C 10 80  52 0C 80 F0 FF FF 7F F0  ........R.......
0470: FF FF 7F 71 31 31 32 45  0C 80 F0 FF FF 7F F0 FF  ...q112E........
0480: FF 7F 71 31 31 33 0D 80  5B 13 80 0E 02 05 01 0E  ..q113..[.......
0490: 02 05 01 74 6C 6B 31 6F  76 24 02 05 01 6E 24 02  ...tlk1ov$...n$.
04A0: 05 01 2B 80 99 24 02 05  01 03 02 10 11 80 27 10  ..+..$........'.
04B0: D9 02 05 01 0A 2B 24 02  05 01 2C 80 23 2A 10 D9  .....+$...,.#*..
04C0: 02 05 01 52 0C 80 F0 FF  FF 7F F0 FF FF 7F 71 31  ...R..........q1
04D0: 31 33 45 0C 80 F0 FF FF  7F F0 FF FF 7F 71 31 31  13E..........q11
04E0: 34 0D 80 66 2D 80 24 02  05 01 24 02 05 01 74 6C  4..f-.$...$...tl
04F0: 6B 30 2B 24 02 05 01 2E  80 23 2B 24 02 05 01 2F  k0+$.....#+$.../
0500: 80 23 52 0C 80 F0 FF FF  7F F0 FF FF 7F 71 31 31  .#R..........q11
0510: 34 45 0C 80 F0 FF FF 7F  F0 FF FF 7F 71 31 31 35  4E..........q115
0520: 0D 80 66 2D 80 24 02 05  01 24 02 05 01 74 6C 6B  ..f-.$...$...tlk
0530: 31 5B 13 80 0E 02 05 01  0E 02 05 01 74 6C 61 30  1[..........tla0
0540: 2B 0E 02 05 01 30 80 23  1C 11 80 4A 24 02 05 01  +....0.#...J$...
0550: 0E 02 05 01 53 0E 02 05  01 0E 02 05 01 74 6C 61  ....S........tla
0560: 30 52 0C 80 F0 FF FF 7F  F0 FF FF 7F 71 31 31 35  0R..........q115
0570: 45 0C 80 F0 FF FF 7F F0  FF FF 7F 71 31 31 36 0D  E..........q116.
0580: 80 6F 76 24 02 05 01 2B  24 02 05 01 31 80 23 66  .ov$...+$...1.#f
0590: 2D 80 24 02 05 01 24 02  05 01 74 6C 6B 30 2B 24  -.$...$...tlk0+$
05A0: 02 05 01 32 80 23 52 0C  80 F0 FF FF 7F F0 FF FF  ...2.#R.........
05B0: 7F 71 31 31 36 45 0C 80  F0 FF FF 7F F0 FF FF 7F  .q116E..........
05C0: 71 31 31 37 0D 80 03 02  10 33 80 27 10 D9 02 05  q117.....3.'....
05D0: 01 0A 66 2D 80 24 02 05  01 24 02 05 01 74 6C 6B  ..f-.$...$...tlk
05E0: 31 2B 0E 02 05 01 34 80  23 53 24 02 05 01 24 02  1+....4.#S$...$.
05F0: 05 01 74 6C 6B 31 2A 10  D9 02 05 01 52 0C 80 F0  ..tlk1*.....R...
0600: FF FF 7F F0 FF FF 7F 71  31 31 37 45 0C 80 F0 FF  .......q117E....
0610: FF 7F F0 FF FF 7F 71 31  30 32 0D 80 6E 24 02 05  ......q102..n$..
0620: 01 35 80 99 24 02 05 01  2B 24 02 05 01 36 80 23  .5..$...+$...6.#
0630: 2B 24 02 05 01 37 80 23  52 0C 80 F0 FF FF 7F F0  +$...7.#R.......
0640: FF FF 7F 71 31 30 32 45  0C 80 F0 FF FF 7F F0 FF  ...q102E........
0650: FF 7F 71 31 33 32 0D 80  5B 15 80 07 02 05 01 07  ..q132..[.......
0660: 02 05 01 74 6C 61 30 2B  07 02 05 01 38 80 23 52  ...tla0+....8.#R
0670: 0C 80 F0 FF FF 7F F0 FF  FF 7F 71 31 33 32 45 0C  ..........q132E.
0680: 80 F0 FF FF 7F F0 FF FF  7F 71 31 33 33 0D 80 5B  .........q133..[
0690: 15 80 07 02 05 01 07 02  05 01 74 6C 61 31 2B 24  ..........tla1+$
06A0: 02 05 01 39 80 23 99 24  02 05 01 52 0C 80 F0 FF  ...9.#.$...R....
06B0: FF 7F F0 FF FF 7F 71 31  33 33 45 0C 80 F0 FF FF  ......q133E.....
06C0: 7F F0 FF FF 7F 71 31 31  39 0D 80 2B 0E 02 05 01  .....q119..+....
06D0: 3A 80 23 5B 13 80 0E 02  05 01 0E 02 05 01 74 6C  :.#[..........tl
06E0: 61 31 2B 0E 02 05 01 3B  80 23 52 0C 80 F0 FF FF  a1+....;.#R.....
06F0: 7F F0 FF FF 7F 71 31 31  39 45 0C 80 F0 FF FF 7F  .....q119E......
0700: F0 FF FF 7F 71 31 32 30  0D 80 66 2D 80 24 02 05  ....q120..f-.$..
0710: 01 24 02 05 01 74 6C 6B  30 2B 24 02 05 01 3C 80  .$...tlk0+$...<.
0720: 23 53 0E 02 05 01 0E 02  05 01 74 6C 61 31 52 0C  #S........tla1R.
0730: 80 F0 FF FF 7F F0 FF FF  7F 71 31 32 30 45 0C 80  .........q120E..
0740: F0 FF FF 7F F0 FF FF 7F  71 31 32 31 0D 80 66 2D  ........q121..f-
0750: 80 24 02 05 01 24 02 05  01 74 6C 6B 31 5B 13 80  .$...$...tlk1[..
0760: 0E 02 05 01 0E 02 05 01  74 68 6B 30 2B 0E 02 05  ........thk0+...
0770: 01 3D 80 23 52 0C 80 F0  FF FF 7F F0 FF FF 7F 71  .=.#R..........q
0780: 31 32 31 45 0C 80 F0 FF  FF 7F F0 FF FF 7F 71 31  121E..........q1
0790: 32 32 0D 80 5B 13 80 0E  02 05 01 0E 02 05 01 74  22..[..........t
07A0: 68 6B 31 2B 24 02 05 01  3E 80 23 99 24 02 05 01  hk1+$...>.#.$...
07B0: 52 0C 80 F0 FF FF 7F F0  FF FF 7F 71 31 32 32 45  R..........q122E
07C0: 0C 80 F0 FF FF 7F F0 FF  FF 7F 71 31 32 33 0D 80  ..........q123..
07D0: 2B 0E 02 05 01 3F 80 23  52 0C 80 F0 FF FF 7F F0  +....?.#R.......
07E0: FF FF 7F 71 31 32 33 45  0C 80 F0 FF FF 7F F0 FF  ...q123E........
07F0: FF 7F 71 31 32 34 0D 80  6E 24 02 05 01 40 80 99  ..q124..n$...@..
0800: 24 02 05 01 2B 24 02 05  01 41 80 23 4A 0E 02 05  $...+$...A.#J...
0810: 01 07 02 05 01 1C 10 80  52 0C 80 F0 FF FF 7F F0  ........R.......
0820: FF FF 7F 71 31 32 34 45  0C 80 F0 FF FF 7F F0 FF  ...q124E........
0830: FF 7F 71 31 33 34 0D 80  6F 76 0E 02 05 01 2B 0E  ..q134..ov....+.
0840: 02 05 01 42 80 23 1C 10  80 52 0C 80 F0 FF FF 7F  ...B.#...R......
0850: F0 FF FF 7F 71 31 33 34  45 0C 80 F0 FF FF 7F F0  ....q134E.......
0860: FF FF 7F 71 31 33 35 0D  80 5B 15 80 07 02 05 01  ...q135..[......
0870: 07 02 05 01 74 6C 61 30  2B 07 02 05 01 43 80 23  ....tla0+....C.#
0880: 52 0C 80 F0 FF FF 7F F0  FF FF 7F 71 31 33 35 45  R..........q135E
0890: 0C 80 F0 FF FF 7F F0 FF  FF 7F 71 31 33 36 0D 80  ..........q136..
08A0: 7B 07 02 05 01 6B 69 64  6C 30 07 02 05 01 2B 0E  {....kidl0....+.
08B0: 02 05 01 44 80 23 52 0C  80 F0 FF FF 7F F0 FF FF  ...D.#R.........
08C0: 7F 71 31 33 36 45 0C 80  F0 FF FF 7F F0 FF FF 7F  .q136E..........
08D0: 71 31 33 37 0D 80 81 00  07 02 05 01 5B 45 80 07  q137........[E..
08E0: 02 05 01 07 02 05 01 6B  65 69 30 2B 07 02 05 01  .......kei0+....
08F0: 46 80 23 03 25 10 47 80  03 27 10 48 80 03 26 10  F.#.%.G..'.H..&.
0900: 03 80 03 28 10 24 80 27  10 24 02 05 01 02 1C 10  ...(.$.'.$......
0910: 80 52 0C 80 F0 FF FF 7F  F0 FF FF 7F 71 31 33 37  .R..........q137
0920: 45 0C 80 F0 FF FF 7F F0  FF FF 7F 71 31 32 35 0D  E..........q125.
0930: 80 5B 45 80 07 02 05 01  07 02 05 01 6B 65 69 31  .[E.........kei1
0940: 81 01 07 02 05 01 7B 07  02 05 01 27 10 0E 02 05  ......{....'....
0950: 01 13 1C 25 80 1A A6 19  52 0C 80 F0 FF FF 7F F0  ...%....R.......
0960: FF FF 7F 71 31 32 35 4E  01 0E 02 05 01 4E 01 24  ...q125N.....N.$
0970: 02 05 01 1C 49 80 45 0C  80 F0 FF FF 7F F0 FF FF  ....I.E.........
0980: 7F 71 31 33 31 0D 80 1A  85 19 1C 4A 80 5B 4B 80  .q131......J.[K.
0990: 07 02 05 01 07 02 05 01  67 6D 65 30 1C 10 80 52  ........gme0...R
09A0: 0C 80 F0 FF FF 7F F0 FF  FF 7F 71 31 33 31 45 0C  ..........q131E.
09B0: 80 F0 FF FF 7F F0 FF FF  7F 71 31 32 36 0D 80 2B  .........q126..+
09C0: 07 02 05 01 4C 80 23 2B  07 02 05 01 4D 80 23 1A  ....L.#+....M.#.
09D0: A6 19 52 0C 80 F0 FF FF  7F F0 FF FF 7F 71 31 32  ..R..........q12
09E0: 36 6B 69 64 6C 30 07 02  05 01 4A 07 02 05 01 F0  6kidl0....J.....
09F0: FF FF 7F 4A F0 FF FF 7F  07 02 05 01 7B F0 FF FF  ...J........{...
0A00: 7F 7B 07 02 05 01 1C 33  80 45 0C 80 F0 FF FF 7F  .{.....3.E......
0A10: F0 FF FF 7F 71 31 33 38  0D 80 1A 85 19 1C 4E 80  ....q138......N.
0A20: 2B 07 02 05 01 4F 80 23  1C 4E 80 1A A6 19 52 0C  +....O.#.N....R.
0A30: 80 F0 FF FF 7F F0 FF FF  7F 71 31 33 38 1C 33 80  .........q138.3.
0A40: 45 0C 80 F0 FF FF 7F F0  FF FF 7F 71 31 33 39 0D  E..........q139.
0A50: 80 1A 85 19 5B 15 80 07  02 05 01 07 02 05 01 74  ....[..........t
0A60: 6C 61 30 2B 07 02 05 01  50 80 23 45 51 80 F0 FF  la0+....P.#EQ...
0A70: FF 7F F0 FF FF 7F 66 64  6F 32 0D 80 55 51 80 F0  ......fdo2..UQ..
0A80: FF FF 7F F0 FF FF 7F 66  64 6F 32 52 0C 80 F0 FF  .......fdo2R....
0A90: FF 7F F0 FF FF 7F 71 31  33 39 1C 4E 80 20 00 46  ......q139.N. .F
0AA0: 00 45 51 80 F8 FF FF 7F  F8 FF FF 7F 66 64 69 32  .EQ.........fdi2
0AB0: 0D 80 21 00                                       ..!.            
```

#### Opcodes

```
  0: 0x0001 [0x42] SET_CLI_EVENT_CANCEL_DATA()
  1: 0x0002 [0x20] SET_CLI_EVENT_UC_FLAG: Lock player control
  2: 0x0004 [0x46] CAMERA_CONTROL: Disable user control
  3: 0x0006 [0x1A] CALL_SUBROUTINE(address=0x19A6)
  4: 0x0009 [0x46] CAMERA_CONTROL: Disable user control
  5: 0x000B [0x38] SET_CLIENT_EVENT_MODE(mode=19*)
  6: 0x000E [0x4E] SET_ENTITY_HIDE_FLAG: Show LocalPlayer
  7: 0x0014 [0x27] REQ_SET(priority=0x10, entity_id=Phillieulais (ID: 17105444/0x01050224), tag_num=0x09)
  8: 0x001B [0x27] REQ_SET(priority=0x10, entity_id=Altennia (ID: 17105422/0x0105020E), tag_num=0x1D)
  9: 0x0022 [0x4E] SET_ENTITY_HIDE_FLAG: Show Rholont (ID: 17105415/0x01050207)
 10: 0x0028 [0x4E] SET_ENTITY_HIDE_FLAG: Show ??? Warmachine (ID: 17105465/0x01050239)
 11: 0x002E [0x4E] SET_ENTITY_HIDE_FLAG: Show Chocobo (ID: 17105398/0x010501F6)
 12: 0x0034 [0x4E] SET_ENTITY_HIDE_FLAG: Show Chocobo (ID: 17105399/0x010501F7)
 13: 0x003A [0x4E] SET_ENTITY_HIDE_FLAG: Show Chocobo (ID: 17105400/0x010501F8)
 14: 0x0040 [0x92] Rholont (ID: 17105415/0x01050207)->Render.Flags3 ^= 0x01
 15: 0x0046 [0x92] Phillieulais (ID: 17105444/0x01050224)->Render.Flags3 ^= 0x01
 16: 0x004C [0x92] Altennia (ID: 17105422/0x0105020E)->Render.Flags3 ^= 0x01
 17: 0x0052 [0x92] ??? Warmachine (ID: 17105465/0x01050239)->Render.Flags3 ^= 0x01
 18: 0x0058 [0x92] Chocobo (ID: 17105398/0x010501F6)->Render.Flags3 ^= 0x01
 19: 0x005E [0x92] Chocobo (ID: 17105399/0x010501F7)->Render.Flags3 ^= 0x01
 20: 0x0064 [0x92] Chocobo (ID: 17105400/0x010501F8)->Render.Flags3 ^= 0x01
 21: 0x006A [0x94] LocalPlayer->Render.Flags3 ^= 0x01
 22: 0x0070 [0x94] Rholont (ID: 17105415/0x01050207)->Render.Flags3 ^= 0x01
 23: 0x0076 [0x94] Phillieulais (ID: 17105444/0x01050224)->Render.Flags3 ^= 0x01
 24: 0x007C [0x94] Altennia (ID: 17105422/0x0105020E)->Render.Flags3 ^= 0x01
 25: 0x0082 [0x94] ??? Warmachine (ID: 17105465/0x01050239)->Render.Flags3 ^= 0x01
 26: 0x0088 [0xBA] SET_ENTITY_POSITION(entity_id=LocalPlayer, pos_x=-174.193*, pos_z=57.333*, pos_y=-2.199*, direction=12.4°*)
 27: 0x0095 [0xBA] SET_ENTITY_POSITION(entity_id=Phillieulais (ID: 17105444/0x01050224), pos_x=-186.211*, pos_z=53.201*, pos_y=-2.199*, direction=14.1°*)
 28: 0x00A2 [0xBA] SET_ENTITY_POSITION(entity_id=Altennia (ID: 17105422/0x0105020E), pos_x=-168.567*, pos_z=58.072*, pos_y=-2.000*, direction=14.1°*)
 29: 0x00AF [0x80] LOAD_WAIT(entity=LocalPlayer)
 30: 0x00B4 [0x80] LOAD_WAIT(entity=Rholont (ID: 17105415/0x01050207))
 31: 0x00B9 [0x80] LOAD_WAIT(entity=Phillieulais (ID: 17105444/0x01050224))
 32: 0x00BE [0x80] LOAD_WAIT(entity=Altennia (ID: 17105422/0x0105020E))
 33: 0x00C3 [0x80] LOAD_WAIT(entity=??? Warmachine (ID: 17105465/0x01050239))
 34: 0x00C8 [0x80] LOAD_WAIT(entity=Chocobo (ID: 17105398/0x010501F6))
 35: 0x00CD [0x80] LOAD_WAIT(entity=Chocobo (ID: 17105399/0x010501F7))
 36: 0x00D2 [0x80] LOAD_WAIT(entity=Chocobo (ID: 17105400/0x010501F8))
 37: 0x00D7 [0x4A] Rholont (ID: 17105415/0x01050207) looks at Altennia (ID: 17105422/0x0105020E)
 38: 0x00E0 [0x4A] Altennia (ID: 17105422/0x0105020E) looks at Rholont (ID: 17105415/0x01050207)
 39: 0x00E9 [0x6F] WAIT_FRAME_DELAY: Yield until WaitTime reaches zero
 40: 0x00EA [0x76] CHECK_ENTITY_RENDER_FLAGS: Wait until Altennia (ID: 17105422/0x0105020E) Render.Flags0 and Render.Flags3 conditions are met
 41: 0x00EF [0x1C] WAIT(15* ticks)
 42: 0x00F2 [0x45] LOAD_SCHEDULED_TASK: Load scheduler "q101" with entities [LocalPlayer, LocalPlayer], work=[453*, 0*]
 43: 0x0103 [0x03] Work_Zone[37] = 4294796176*
 44: 0x0108 [0x03] Work_Zone[39] = 56560*
 45: 0x010D [0x03] Work_Zone[38] = 4294965296*
 46: 0x0112 [0x03] Work_Zone[40] = 141*
 47: 0x0117 [0x27] REQ_SET(priority=0x10, entity_id=LocalPlayer, tag_num=0x16)
 48: 0x011E [0x1C] WAIT(10* ticks)
 49: 0x0121 [0x1A] CALL_SUBROUTINE(address=0x1985)
 50: 0x0124 [0x1C] WAIT(120* ticks)
 51: 0x0127 [0x4A] Rholont (ID: 17105415/0x01050207) looks at LocalPlayer
 52: 0x0130 [0x1C] WAIT(10* ticks)
 53: 0x0133 [0x52] END_LOAD_SCHEDULER: End scheduler "q101" with entities [LocalPlayer, LocalPlayer], work=453*
 54: 0x0142 [0x45] LOAD_SCHEDULED_TASK: Load scheduler "q105" with entities [LocalPlayer, LocalPlayer], work=[453*, 0*]
 55: 0x0153 [0x6F] WAIT_FRAME_DELAY: Yield until WaitTime reaches zero
 56: 0x0154 [0x76] CHECK_ENTITY_RENDER_FLAGS: Wait until Rholont (ID: 17105415/0x01050207) Render.Flags0 and Render.Flags3 conditions are met
 57: 0x0159 [0x2B] Rholont (ID: 17105415/0x01050207) [12300*]:
    → "Ah, Squire Altennia! <Player> approaches!"
 58: 0x0160 [0x1C] WAIT(10* ticks)
 59: 0x0163 [0x4A] Altennia (ID: 17105422/0x0105020E) looks at LocalPlayer
 60: 0x016C [0x23] WAIT_FOR_DIALOG_INTERACTION
 61: 0x016D [0x1C] WAIT(10* ticks)
 62: 0x0170 [0x52] END_LOAD_SCHEDULER: End scheduler "q105" with entities [LocalPlayer, LocalPlayer], work=453*
 63: 0x017F [0x45] LOAD_SCHEDULED_TASK: Load scheduler "q107" with entities [LocalPlayer, LocalPlayer], work=[453*, 0*]
 64: 0x0190 [0x4A] LocalPlayer looks at Altennia (ID: 17105422/0x0105020E)
 65: 0x0199 [0x6F] WAIT_FRAME_DELAY: Yield until WaitTime reaches zero
 66: 0x019A [0x76] CHECK_ENTITY_RENDER_FLAGS: Wait until Altennia (ID: 17105422/0x0105020E) Render.Flags0 and Render.Flags3 conditions are met
 67: 0x019F [0x5B] LOAD_EXT_SCHEDULER: Load scheduler "tlk0" with entities [Altennia (ID: 17105422/0x0105020E), Altennia (ID: 17105422/0x0105020E)], work=1334*
 68: 0x01AE [0x2B] Altennia (ID: 17105422/0x0105020E) [12301*]:
    → "Well met, <Player>. It does my spirit well to see you again."
 69: 0x01B5 [0x23] WAIT_FOR_DIALOG_INTERACTION
 70: 0x01B6 [0x52] END_LOAD_SCHEDULER: End scheduler "q107" with entities [LocalPlayer, LocalPlayer], work=453*
 71: 0x01C5 [0x45] LOAD_SCHEDULED_TASK: Load scheduler "q106" with entities [LocalPlayer, LocalPlayer], work=[453*, 0*]
 72: 0x01D6 [0x5B] LOAD_EXT_SCHEDULER: Load scheduler "tla0" with entities [Rholont (ID: 17105415/0x01050207), Rholont (ID: 17105415/0x01050207)], work=1272*
 73: 0x01E5 [0x2B] Rholont (ID: 17105415/0x01050207) [12302*]:
    → "You come at a good time. Squire Altennia is presently briefing me on the latest developments on the war front."
 74: 0x01EC [0x23] WAIT_FOR_DIALOG_INTERACTION
 75: 0x01ED [0x52] END_LOAD_SCHEDULER: End scheduler "q106" with entities [LocalPlayer, LocalPlayer], work=453*
 76: 0x01FC [0x45] LOAD_SCHEDULED_TASK: Load scheduler "q118" with entities [LocalPlayer, LocalPlayer], work=[453*, 0*]
 77: 0x020D [0x2B] Altennia (ID: 17105422/0x0105020E) [12303*]:
    → "The main host of the Allied Forces' northern expedition now marches for Xarcabard."
 78: 0x0214 [0x23] WAIT_FOR_DIALOG_INTERACTION
 79: 0x0215 [0x2B] Altennia (ID: 17105422/0x0105020E) [12304*]:
    → "My unit, the Carmine Swallows, has been recalled from furlough and will shortly depart to merge with them."
 80: 0x021C [0x23] WAIT_FOR_DIALOG_INTERACTION
 81: 0x021D [0x5B] LOAD_EXT_SCHEDULER: Load scheduler "tla1" with entities [Rholont (ID: 17105415/0x01050207), Rholont (ID: 17105415/0x01050207)], work=1272*
 82: 0x022C [0xBA] SET_ENTITY_POSITION(entity_id=Phillieulais (ID: 17105444/0x01050224), pos_x=-175.694*, pos_z=58.318*, pos_y=-2.199*, direction=329.4°*)
 83: 0x0239 [0x53] WAIT_SCHEDULER_TASK: Wait for scheduler "tlk0" with entities [Altennia (ID: 17105422/0x0105020E), Altennia (ID: 17105422/0x0105020E)]
 84: 0x0246 [0x52] END_LOAD_SCHEDULER: End scheduler "q118" with entities [LocalPlayer, LocalPlayer], work=453*
 85: 0x0255 [0x45] LOAD_SCHEDULED_TASK: Load scheduler "q109" with entities [LocalPlayer, LocalPlayer], work=[453*, 0*]
 86: 0x0266 [0x7B] Altennia (ID: 17105422/0x0105020E) stops talking
 87: 0x026B [0x5B] LOAD_EXT_SCHEDULER: Load scheduler "tlk1" with entities [Altennia (ID: 17105422/0x0105020E), Altennia (ID: 17105422/0x0105020E)], work=1334*
 88: 0x027A [0x2B] Altennia (ID: 17105422/0x0105020E) [12305*]:
    → "And that is why I come here today...to say my farewells. In this age of tumult, we know not when a meeting with loved ones may prove to be the last."
 89: 0x0281 [0x23] WAIT_FOR_DIALOG_INTERACTION
 90: 0x0282 [0x53] WAIT_SCHEDULER_TASK: Wait for scheduler "tlk1" with entities [Altennia (ID: 17105422/0x0105020E), Altennia (ID: 17105422/0x0105020E)]
 91: 0x028F [0x4A] Rholont (ID: 17105415/0x01050207) looks at Altennia (ID: 17105422/0x0105020E)
 92: 0x0298 [0x1C] WAIT(10* ticks)
 93: 0x029B [0x5D] SET_MUSIC_VOLUME(volume=0*, fade_time=120*)
 94: 0x02A0 [0x52] END_LOAD_SCHEDULER: End scheduler "q109" with entities [LocalPlayer, LocalPlayer], work=453*
 95: 0x02AF [0x45] LOAD_SCHEDULED_TASK: Load scheduler "q127" with entities [LocalPlayer, LocalPlayer], work=[453*, 0*]
 96: 0x02C0 [0x2B] Rholont (ID: 17105415/0x01050207) [12306*]:
    → "All will be well, surely. From the bits and pieces of rumor I've scavenged from Kingdom knights, the beastman force is in decline, and far from the menacing presence it once was."
 97: 0x02C7 [0x23] WAIT_FOR_DIALOG_INTERACTION
 98: 0x02C8 [0x52] END_LOAD_SCHEDULER: End scheduler "q127" with entities [LocalPlayer, LocalPlayer], work=453*
 99: 0x02D7 [0x45] LOAD_SCHEDULED_TASK: Load scheduler "q128" with entities [LocalPlayer, LocalPlayer], work=[453*, 0*]
100: 0x02E8 [0x5B] LOAD_EXT_SCHEDULER: Load scheduler "tla0" with entities [Altennia (ID: 17105422/0x0105020E), Altennia (ID: 17105422/0x0105020E)], work=1334*
101: 0x02F7 [0x2B] Altennia (ID: 17105422/0x0105020E) [12307*]:
    → "The Griffin's nose for intelligence is as keen as ever, I see. But a mystery lies amidst this trend of decline, to be sure. Many an eyebrow has been raised over why a great many Orcs survived Tavnazia and now prowl the Northlands in force when other beastman units were nigh annihilated."
102: 0x02FE [0x23] WAIT_FOR_DIALOG_INTERACTION
103: 0x02FF [0x5C] MUSIC_CONTROL: Set Idle (Day) music to song 127*
104: 0x0303 [0x5C] MUSIC_CONTROL: Set Idle (Night) music to song 127*
105: 0x0307 [0x9A] WAIT_MUSIC_SERVER()
106: 0x0308 [0x52] END_LOAD_SCHEDULER: End scheduler "q128" with entities [LocalPlayer, LocalPlayer], work=453*
107: 0x0317 [0x45] LOAD_SCHEDULED_TASK: Load scheduler "q129" with entities [LocalPlayer, LocalPlayer], work=[453*, 0*]
108: 0x0328 [0x4A] Altennia (ID: 17105422/0x0105020E) looks at Rholont (ID: 17105415/0x01050207)
109: 0x0331 [0x53] WAIT_SCHEDULER_TASK: Wait for scheduler "tla0" with entities [Altennia (ID: 17105422/0x0105020E), Altennia (ID: 17105422/0x0105020E)]
110: 0x033E [0x2B] Rholont (ID: 17105415/0x01050207) [12308*]:
    → "Tavnazia...? Annihilated...?"
111: 0x0345 [0x23] WAIT_FOR_DIALOG_INTERACTION
112: 0x0346 [0x6F] WAIT_FRAME_DELAY: Yield until WaitTime reaches zero
113: 0x0347 [0x76] CHECK_ENTITY_RENDER_FLAGS: Wait until Altennia (ID: 17105422/0x0105020E) Render.Flags0 and Render.Flags3 conditions are met
114: 0x034C [0x52] END_LOAD_SCHEDULER: End scheduler "q129" with entities [LocalPlayer, LocalPlayer], work=453*
115: 0x035B [0x45] LOAD_SCHEDULED_TASK: Load scheduler "q130" with entities [LocalPlayer, LocalPlayer], work=[453*, 0*]
116: 0x036C [0x5B] LOAD_EXT_SCHEDULER: Load scheduler "tla0" with entities [Altennia (ID: 17105422/0x0105020E), Altennia (ID: 17105422/0x0105020E)], work=1334*
117: 0x037B [0x2B] Altennia (ID: 17105422/0x0105020E) [12309*]:
    → "Oh, um...never mind that. 'Tis nothing of significance."
118: 0x0382 [0x23] WAIT_FOR_DIALOG_INTERACTION
119: 0x0383 [0x03] Work_Zone[37] = 4294795957*
120: 0x0388 [0x03] Work_Zone[39] = 58223*
121: 0x038D [0x03] Work_Zone[38] = 4294965296*
122: 0x0392 [0x03] Work_Zone[40] = 3113*
123: 0x0397 [0x27] REQ_SET(priority=0x10, entity_id=Phillieulais (ID: 17105444/0x01050224), tag_num=0x02)
124: 0x039E [0x1C] WAIT(10* ticks)
125: 0x03A1 [0x52] END_LOAD_SCHEDULER: End scheduler "q130" with entities [LocalPlayer, LocalPlayer], work=453*
126: 0x03B0 [0x45] LOAD_SCHEDULED_TASK: Load scheduler "q110" with entities [LocalPlayer, LocalPlayer], work=[453*, 0*]
127: 0x03C1 [0x5D] SET_MUSIC_VOLUME(volume=0*, fade_time=120*)
128: 0x03C6 [0x1C] WAIT(180* ticks)
129: 0x03C9 [0x52] END_LOAD_SCHEDULER: End scheduler "q110" with entities [LocalPlayer, LocalPlayer], work=453*
130: 0x03D8 [0x45] LOAD_SCHEDULED_TASK: Load scheduler "q111" with entities [LocalPlayer, LocalPlayer], work=[453*, 0*]
131: 0x03E9 [0x1C] WAIT(10* ticks)
132: 0x03EC [0x4A] Altennia (ID: 17105422/0x0105020E) looks at Phillieulais (ID: 17105444/0x01050224)
133: 0x03F5 [0x4A] LocalPlayer looks at Phillieulais (ID: 17105444/0x01050224)
134: 0x03FE [0x2B] Phillieulais (ID: 17105444/0x01050224) [12310*]:
    → "That will be quite enough, Altennia. Military secrets are more burden than privilege, and I would remind you not to afflict others with them."
135: 0x0405 [0x23] WAIT_FOR_DIALOG_INTERACTION
136: 0x0406 [0x5C] MUSIC_CONTROL: Set Idle (Day) music to song 254*
137: 0x040A [0x5C] MUSIC_CONTROL: Set Idle (Night) music to song 254*
138: 0x040E [0x9A] WAIT_MUSIC_SERVER()
139: 0x040F [0x52] END_LOAD_SCHEDULER: End scheduler "q111" with entities [LocalPlayer, LocalPlayer], work=453*
140: 0x041E [0x45] LOAD_SCHEDULED_TASK: Load scheduler "q112" with entities [LocalPlayer, LocalPlayer], work=[453*, 0*]
141: 0x042F [0x1C] WAIT(10* ticks)
142: 0x0432 [0x6F] WAIT_FRAME_DELAY: Yield until WaitTime reaches zero
143: 0x0433 [0x76] CHECK_ENTITY_RENDER_FLAGS: Wait until Altennia (ID: 17105422/0x0105020E) Render.Flags0 and Render.Flags3 conditions are met
144: 0x0438 [0xBA] SET_ENTITY_POSITION(entity_id=Phillieulais (ID: 17105444/0x01050224), pos_x=-170.675*, pos_z=59.046*, pos_y=-2.000*, direction=14.1°*)
145: 0x0445 [0x5B] LOAD_EXT_SCHEDULER: Load scheduler "tlk0" with entities [Altennia (ID: 17105422/0x0105020E), Altennia (ID: 17105422/0x0105020E)], work=1334*
146: 0x0454 [0x2B] Altennia (ID: 17105422/0x0105020E) [12311*]:
    → "V-Viscount Dieuffon... Please forgive me, sir. I shall practice more caution from now on."
147: 0x045B [0x23] WAIT_FOR_DIALOG_INTERACTION
148: 0x045C [0x4A] Phillieulais (ID: 17105444/0x01050224) looks at LocalPlayer
149: 0x0465 [0x1C] WAIT(10* ticks)
150: 0x0468 [0x52] END_LOAD_SCHEDULER: End scheduler "q112" with entities [LocalPlayer, LocalPlayer], work=453*
151: 0x0477 [0x45] LOAD_SCHEDULED_TASK: Load scheduler "q113" with entities [LocalPlayer, LocalPlayer], work=[453*, 0*]
152: 0x0488 [0x5B] LOAD_EXT_SCHEDULER: Load scheduler "tlk1" with entities [Altennia (ID: 17105422/0x0105020E), Altennia (ID: 17105422/0x0105020E)], work=1334*
153: 0x0497 [0x6F] WAIT_FRAME_DELAY: Yield until WaitTime reaches zero
154: 0x0498 [0x76] CHECK_ENTITY_RENDER_FLAGS: Wait until Phillieulais (ID: 17105444/0x01050224) Render.Flags0 and Render.Flags3 conditions are met
155: 0x049D [0x6E] Phillieulais (ID: 17105444/0x01050224) uses emote 1*
156: 0x04A4 [0x99] Wait for Phillieulais (ID: 17105444/0x01050224) animation to complete
157: 0x04A9 [0x03] Work_Zone[2] = 120*
158: 0x04AE [0x27] REQ_SET(priority=0x10, entity_id=??? (ID: 17105625/0x010502D9), tag_num=0x0A)
159: 0x04B5 [0x2B] Phillieulais (ID: 17105444/0x01050224) [12312*]:
    → "It has been a while, <Player>."
160: 0x04BC [0x23] WAIT_FOR_DIALOG_INTERACTION
161: 0x04BD [0x2A] GET_REQ_LEVEL(level=16, entity_id=??? (ID: 17105625/0x010502D9))
162: 0x04C3 [0x52] END_LOAD_SCHEDULER: End scheduler "q113" with entities [LocalPlayer, LocalPlayer], work=453*
163: 0x04D2 [0x45] LOAD_SCHEDULED_TASK: Load scheduler "q114" with entities [LocalPlayer, LocalPlayer], work=[453*, 0*]
164: 0x04E3 [0x66] LOAD_EXT_SCHEDULER_MAIN: Load scheduler "tlk0" with entities [Phillieulais (ID: 17105444/0x01050224), Phillieulais (ID: 17105444/0x01050224)], work=29*
165: 0x04F2 [0x2B] Phillieulais (ID: 17105444/0x01050224) [12313*]:
    → "Word of your heroic feat against the notorious Bloodwing Horde out in Jugner has been battering my ears without cease."
166: 0x04F9 [0x23] WAIT_FOR_DIALOG_INTERACTION
167: 0x04FA [0x2B] Phillieulais (ID: 17105444/0x01050224) [12314*]:
    → "Ah, would that I were there to behold the moment the Orcs turned tail and ran! Do you not agree, Altennia?"
168: 0x0501 [0x23] WAIT_FOR_DIALOG_INTERACTION
169: 0x0502 [0x52] END_LOAD_SCHEDULER: End scheduler "q114" with entities [LocalPlayer, LocalPlayer], work=453*
170: 0x0511 [0x45] LOAD_SCHEDULED_TASK: Load scheduler "q115" with entities [LocalPlayer, LocalPlayer], work=[453*, 0*]
171: 0x0522 [0x66] LOAD_EXT_SCHEDULER_MAIN: Load scheduler "tlk1" with entities [Phillieulais (ID: 17105444/0x01050224), Phillieulais (ID: 17105444/0x01050224)], work=29*
172: 0x0531 [0x5B] LOAD_EXT_SCHEDULER: Load scheduler "tla0" with entities [Altennia (ID: 17105422/0x0105020E), Altennia (ID: 17105422/0x0105020E)], work=1334*
173: 0x0540 [0x2B] Altennia (ID: 17105422/0x0105020E) [12315*]:
    → "...Eh? Oh, um, yes... <Player> was magnificent in battle...so I'm told."
174: 0x0547 [0x23] WAIT_FOR_DIALOG_INTERACTION
175: 0x0548 [0x1C] WAIT(120* ticks)
176: 0x054B [0x4A] Phillieulais (ID: 17105444/0x01050224) looks at Altennia (ID: 17105422/0x0105020E)
177: 0x0554 [0x53] WAIT_SCHEDULER_TASK: Wait for scheduler "tla0" with entities [Altennia (ID: 17105422/0x0105020E), Altennia (ID: 17105422/0x0105020E)]
178: 0x0561 [0x52] END_LOAD_SCHEDULER: End scheduler "q115" with entities [LocalPlayer, LocalPlayer], work=453*
179: 0x0570 [0x45] LOAD_SCHEDULED_TASK: Load scheduler "q116" with entities [LocalPlayer, LocalPlayer], work=[453*, 0*]
180: 0x0581 [0x6F] WAIT_FRAME_DELAY: Yield until WaitTime reaches zero
181: 0x0582 [0x76] CHECK_ENTITY_RENDER_FLAGS: Wait until Phillieulais (ID: 17105444/0x01050224) Render.Flags0 and Render.Flags3 conditions are met
182: 0x0587 [0x2B] Phillieulais (ID: 17105444/0x01050224) [12316*]:
    → "Hmmm..."
183: 0x058E [0x23] WAIT_FOR_DIALOG_INTERACTION
184: 0x058F [0x66] LOAD_EXT_SCHEDULER_MAIN: Load scheduler "tlk0" with entities [Phillieulais (ID: 17105444/0x01050224), Phillieulais (ID: 17105444/0x01050224)], work=29*
185: 0x059E [0x2B] Phillieulais (ID: 17105444/0x01050224) [12317*]:
    → "Excenmille's welfare still weighs heavily on your mind, understandably."
186: 0x05A5 [0x23] WAIT_FOR_DIALOG_INTERACTION
187: 0x05A6 [0x52] END_LOAD_SCHEDULER: End scheduler "q116" with entities [LocalPlayer, LocalPlayer], work=453*
188: 0x05B5 [0x45] LOAD_SCHEDULED_TASK: Load scheduler "q117" with entities [LocalPlayer, LocalPlayer], work=[453*, 0*]
189: 0x05C6 [0x03] Work_Zone[2] = 60*
190: 0x05CB [0x27] REQ_SET(priority=0x10, entity_id=??? (ID: 17105625/0x010502D9), tag_num=0x0A)
191: 0x05D2 [0x66] LOAD_EXT_SCHEDULER_MAIN: Load scheduler "tlk1" with entities [Phillieulais (ID: 17105444/0x01050224), Phillieulais (ID: 17105444/0x01050224)], work=29*
192: 0x05E1 [0x2B] Altennia (ID: 17105422/0x0105020E) [12318*]:
    → "...Yes, sir."
193: 0x05E8 [0x23] WAIT_FOR_DIALOG_INTERACTION
194: 0x05E9 [0x53] WAIT_SCHEDULER_TASK: Wait for scheduler "tlk1" with entities [Phillieulais (ID: 17105444/0x01050224), Phillieulais (ID: 17105444/0x01050224)]
195: 0x05F6 [0x2A] GET_REQ_LEVEL(level=16, entity_id=??? (ID: 17105625/0x010502D9))
196: 0x05FC [0x52] END_LOAD_SCHEDULER: End scheduler "q117" with entities [LocalPlayer, LocalPlayer], work=453*
197: 0x060B [0x45] LOAD_SCHEDULED_TASK: Load scheduler "q102" with entities [LocalPlayer, LocalPlayer], work=[453*, 0*]
198: 0x061C [0x6E] Phillieulais (ID: 17105444/0x01050224) uses emote 20*
199: 0x0623 [0x99] Wait for Phillieulais (ID: 17105444/0x01050224) animation to complete
200: 0x0628 [0x2B] Phillieulais (ID: 17105444/0x01050224) [12319*]:
    → "We've yet to determine the location of the Cardinal Stags, 'tis true, but take heart, for the hour is still young. The current geomantic disturbance obstructs all means of communication, or so the scholars say. That would explain why we've been unable to regain contact with Count Aurchiat and his knights."
201: 0x062F [0x23] WAIT_FOR_DIALOG_INTERACTION
202: 0x0630 [0x2B] Phillieulais (ID: 17105444/0x01050224) [12320*]:
    → "But under the count's astute leadership, 'tis like as not the Cardinal Stags already strike out for Xarcabard as we speak."
203: 0x0637 [0x23] WAIT_FOR_DIALOG_INTERACTION
204: 0x0638 [0x52] END_LOAD_SCHEDULER: End scheduler "q102" with entities [LocalPlayer, LocalPlayer], work=453*
205: 0x0647 [0x45] LOAD_SCHEDULED_TASK: Load scheduler "q132" with entities [LocalPlayer, LocalPlayer], work=[453*, 0*]
206: 0x0658 [0x5B] LOAD_EXT_SCHEDULER: Load scheduler "tla0" with entities [Rholont (ID: 17105415/0x01050207), Rholont (ID: 17105415/0x01050207)], work=1272*
207: 0x0667 [0x2B] Rholont (ID: 17105415/0x01050207) [12321*]:
    → "I, too, am inclined to optimism. Action before thought is the key to survival, and Excenmille has always held fervently to this belief."
208: 0x066E [0x23] WAIT_FOR_DIALOG_INTERACTION
209: 0x066F [0x52] END_LOAD_SCHEDULER: End scheduler "q132" with entities [LocalPlayer, LocalPlayer], work=453*
210: 0x067E [0x45] LOAD_SCHEDULED_TASK: Load scheduler "q133" with entities [LocalPlayer, LocalPlayer], work=[453*, 0*]
211: 0x068F [0x5B] LOAD_EXT_SCHEDULER: Load scheduler "tla1" with entities [Rholont (ID: 17105415/0x01050207), Rholont (ID: 17105415/0x01050207)], work=1272*
212: 0x069E [0x2B] Phillieulais (ID: 17105444/0x01050224) [12322*]:
    → "Hahaha, the same was true of his father, lad. I'm pleased to hear the blood of House Aurchiat runs strongly still."
213: 0x06A5 [0x23] WAIT_FOR_DIALOG_INTERACTION
214: 0x06A6 [0x99] Wait for Phillieulais (ID: 17105444/0x01050224) animation to complete
215: 0x06AB [0x52] END_LOAD_SCHEDULER: End scheduler "q133" with entities [LocalPlayer, LocalPlayer], work=453*
216: 0x06BA [0x45] LOAD_SCHEDULED_TASK: Load scheduler "q119" with entities [LocalPlayer, LocalPlayer], work=[453*, 0*]
217: 0x06CB [0x2B] Altennia (ID: 17105422/0x0105020E) [12323*]:
    → "Hehehe... Thank you for your words, Viscount Dieuffon. You, too, Rholont. I shall try not to worry beyond reason."
218: 0x06D2 [0x23] WAIT_FOR_DIALOG_INTERACTION
219: 0x06D3 [0x5B] LOAD_EXT_SCHEDULER: Load scheduler "tla1" with entities [Altennia (ID: 17105422/0x0105020E), Altennia (ID: 17105422/0x0105020E)], work=1334*
220: 0x06E2 [0x2B] Altennia (ID: 17105422/0x0105020E) [12324*]:
    → "But if I might ask, sir, to what do we owe the pleasure of your company?"
221: 0x06E9 [0x23] WAIT_FOR_DIALOG_INTERACTION
222: 0x06EA [0x52] END_LOAD_SCHEDULER: End scheduler "q119" with entities [LocalPlayer, LocalPlayer], work=453*
223: 0x06F9 [0x45] LOAD_SCHEDULED_TASK: Load scheduler "q120" with entities [LocalPlayer, LocalPlayer], work=[453*, 0*]
224: 0x070A [0x66] LOAD_EXT_SCHEDULER_MAIN: Load scheduler "tlk0" with entities [Phillieulais (ID: 17105444/0x01050224), Phillieulais (ID: 17105444/0x01050224)], work=29*
225: 0x0719 [0x2B] Phillieulais (ID: 17105444/0x01050224) [12325*]:
    → "Ah, yes. That had escaped my mind momentarily. I seek a word with Gissenne. Have you not seen her?"
226: 0x0720 [0x23] WAIT_FOR_DIALOG_INTERACTION
227: 0x0721 [0x53] WAIT_SCHEDULER_TASK: Wait for scheduler "tla1" with entities [Altennia (ID: 17105422/0x0105020E), Altennia (ID: 17105422/0x0105020E)]
228: 0x072E [0x52] END_LOAD_SCHEDULER: End scheduler "q120" with entities [LocalPlayer, LocalPlayer], work=453*
229: 0x073D [0x45] LOAD_SCHEDULED_TASK: Load scheduler "q121" with entities [LocalPlayer, LocalPlayer], work=[453*, 0*]
230: 0x074E [0x66] LOAD_EXT_SCHEDULER_MAIN: Load scheduler "tlk1" with entities [Phillieulais (ID: 17105444/0x01050224), Phillieulais (ID: 17105444/0x01050224)], work=29*
231: 0x075D [0x5B] LOAD_EXT_SCHEDULER: Load scheduler "thk0" with entities [Altennia (ID: 17105422/0x0105020E), Altennia (ID: 17105422/0x0105020E)], work=1334*
232: 0x076C [0x2B] Altennia (ID: 17105422/0x0105020E) [12326*]:
    → "The captain? She left to have reserve chocobos issued for our unit's journey north, though naught was mentioned of location..."
233: 0x0773 [0x23] WAIT_FOR_DIALOG_INTERACTION
234: 0x0774 [0x52] END_LOAD_SCHEDULER: End scheduler "q121" with entities [LocalPlayer, LocalPlayer], work=453*
235: 0x0783 [0x45] LOAD_SCHEDULED_TASK: Load scheduler "q122" with entities [LocalPlayer, LocalPlayer], work=[453*, 0*]
236: 0x0794 [0x5B] LOAD_EXT_SCHEDULER: Load scheduler "thk1" with entities [Altennia (ID: 17105422/0x0105020E), Altennia (ID: 17105422/0x0105020E)], work=1334*
237: 0x07A3 [0x2B] Phillieulais (ID: 17105444/0x01050224) [12327*]:
    → "That is information enough. I've an inkling as to her whereabouts: Blackbird Lane."
238: 0x07AA [0x23] WAIT_FOR_DIALOG_INTERACTION
239: 0x07AB [0x99] Wait for Phillieulais (ID: 17105444/0x01050224) animation to complete
240: 0x07B0 [0x52] END_LOAD_SCHEDULER: End scheduler "q122" with entities [LocalPlayer, LocalPlayer], work=453*
241: 0x07BF [0x45] LOAD_SCHEDULED_TASK: Load scheduler "q123" with entities [LocalPlayer, LocalPlayer], work=[453*, 0*]
242: 0x07D0 [0x2B] Altennia (ID: 17105422/0x0105020E) [12328*]:
    → "Sir, there is time still before my unit's scheduled departure. Might I accompany you in the search for the captain?"
243: 0x07D7 [0x23] WAIT_FOR_DIALOG_INTERACTION
244: 0x07D8 [0x52] END_LOAD_SCHEDULER: End scheduler "q123" with entities [LocalPlayer, LocalPlayer], work=453*
245: 0x07E7 [0x45] LOAD_SCHEDULED_TASK: Load scheduler "q124" with entities [LocalPlayer, LocalPlayer], work=[453*, 0*]
246: 0x07F8 [0x6E] Phillieulais (ID: 17105444/0x01050224) uses emote 7*
247: 0x07FF [0x99] Wait for Phillieulais (ID: 17105444/0x01050224) animation to complete
248: 0x0804 [0x2B] Phillieulais (ID: 17105444/0x01050224) [12329*]:
    → "Why, your company would be most welcome, Altennia."
249: 0x080B [0x23] WAIT_FOR_DIALOG_INTERACTION
250: 0x080C [0x4A] Altennia (ID: 17105422/0x0105020E) looks at Rholont (ID: 17105415/0x01050207)
251: 0x0815 [0x1C] WAIT(10* ticks)
252: 0x0818 [0x52] END_LOAD_SCHEDULER: End scheduler "q124" with entities [LocalPlayer, LocalPlayer], work=453*
253: 0x0827 [0x45] LOAD_SCHEDULED_TASK: Load scheduler "q134" with entities [LocalPlayer, LocalPlayer], work=[453*, 0*]
254: 0x0838 [0x6F] WAIT_FRAME_DELAY: Yield until WaitTime reaches zero
255: 0x0839 [0x76] CHECK_ENTITY_RENDER_FLAGS: Wait until Altennia (ID: 17105422/0x0105020E) Render.Flags0 and Render.Flags3 conditions are met
256: 0x083E [0x2B] Altennia (ID: 17105422/0x0105020E) [12330*]:
    → "Farewell, <Player>, Rholont. Promise me you'll not do anything rash. Understood?"
257: 0x0845 [0x23] WAIT_FOR_DIALOG_INTERACTION
258: 0x0846 [0x1C] WAIT(10* ticks)
259: 0x0849 [0x52] END_LOAD_SCHEDULER: End scheduler "q134" with entities [LocalPlayer, LocalPlayer], work=453*
260: 0x0858 [0x45] LOAD_SCHEDULED_TASK: Load scheduler "q135" with entities [LocalPlayer, LocalPlayer], work=[453*, 0*]
261: 0x0869 [0x5B] LOAD_EXT_SCHEDULER: Load scheduler "tla0" with entities [Rholont (ID: 17105415/0x01050207), Rholont (ID: 17105415/0x01050207)], work=1272*
262: 0x0878 [0x2B] Rholont (ID: 17105415/0x01050207) [12331*]:
    → "We promise! Farewell, Squire Altennia..."
263: 0x087F [0x23] WAIT_FOR_DIALOG_INTERACTION
264: 0x0880 [0x52] END_LOAD_SCHEDULER: End scheduler "q135" with entities [LocalPlayer, LocalPlayer], work=453*
265: 0x088F [0x45] LOAD_SCHEDULED_TASK: Load scheduler "q136" with entities [LocalPlayer, LocalPlayer], work=[453*, 0*]
266: 0x08A0 [0x7B] Rholont (ID: 17105415/0x01050207) stops talking
267: 0x08A5 [0x6B] STOP_AND_IDLE: Rholont (ID: 17105415/0x01050207) stops current action and resets to idle (animation="idl0")
268: 0x08AE [0x2B] Altennia (ID: 17105422/0x0105020E) [12332*]:
    → "Oh, and should you perchance catch sight of Captain Gissenne, let her know to seek us out at Blackbird Lane."
269: 0x08B5 [0x23] WAIT_FOR_DIALOG_INTERACTION
270: 0x08B6 [0x52] END_LOAD_SCHEDULER: End scheduler "q136" with entities [LocalPlayer, LocalPlayer], work=453*
271: 0x08C5 [0x45] LOAD_SCHEDULED_TASK: Load scheduler "q137" with entities [LocalPlayer, LocalPlayer], work=[453*, 0*]
272: 0x08D6 [0x81] SET_ENTITY_BLINKING(blink_flag=0x00, entity=Rholont (ID: 17105415/0x01050207))
273: 0x08DC [0x5B] LOAD_EXT_SCHEDULER: Load scheduler "kei0" with entities [Rholont (ID: 17105415/0x01050207), Rholont (ID: 17105415/0x01050207)], work=1301*
274: 0x08EB [0x2B] Rholont (ID: 17105415/0x01050207) [12333*]:
    → "Ma'am, yes, ma'am!"
275: 0x08F2 [0x23] WAIT_FOR_DIALOG_INTERACTION
276: 0x08F3 [0x03] Work_Zone[37] = 4294787580*
277: 0x08F8 [0x03] Work_Zone[39] = 57856*
278: 0x08FD [0x03] Work_Zone[38] = 4294965097*
279: 0x0902 [0x03] Work_Zone[40] = 3113*
280: 0x0907 [0x27] REQ_SET(priority=0x10, entity_id=Phillieulais (ID: 17105444/0x01050224), tag_num=0x02)
281: 0x090E [0x1C] WAIT(10* ticks)
282: 0x0911 [0x52] END_LOAD_SCHEDULER: End scheduler "q137" with entities [LocalPlayer, LocalPlayer], work=453*
283: 0x0920 [0x45] LOAD_SCHEDULED_TASK: Load scheduler "q125" with entities [LocalPlayer, LocalPlayer], work=[453*, 0*]
284: 0x0931 [0x5B] LOAD_EXT_SCHEDULER: Load scheduler "kei1" with entities [Rholont (ID: 17105415/0x01050207), Rholont (ID: 17105415/0x01050207)], work=1301*
285: 0x0940 [0x81] SET_ENTITY_BLINKING(blink_flag=0x01, entity=Rholont (ID: 17105415/0x01050207))
286: 0x0946 [0x7B] Rholont (ID: 17105415/0x01050207) stops talking
287: 0x094B [0x27] REQ_SET(priority=0x10, entity_id=Altennia (ID: 17105422/0x0105020E), tag_num=0x13)
288: 0x0952 [0x1C] WAIT(180* ticks)
289: 0x0955 [0x1A] CALL_SUBROUTINE(address=0x19A6)
290: 0x0958 [0x52] END_LOAD_SCHEDULER: End scheduler "q125" with entities [LocalPlayer, LocalPlayer], work=453*
291: 0x0967 [0x4E] SET_ENTITY_HIDE_FLAG: Hide Altennia (ID: 17105422/0x0105020E)
292: 0x096D [0x4E] SET_ENTITY_HIDE_FLAG: Hide Phillieulais (ID: 17105444/0x01050224)
293: 0x0973 [0x1C] WAIT(50* ticks)
294: 0x0976 [0x45] LOAD_SCHEDULED_TASK: Load scheduler "q131" with entities [LocalPlayer, LocalPlayer], work=[453*, 0*]
295: 0x0987 [0x1A] CALL_SUBROUTINE(address=0x1985)
296: 0x098A [0x1C] WAIT(170* ticks)
297: 0x098D [0x5B] LOAD_EXT_SCHEDULER: Load scheduler "gme0" with entities [Rholont (ID: 17105415/0x01050207), Rholont (ID: 17105415/0x01050207)], work=1437*
298: 0x099C [0x1C] WAIT(10* ticks)
299: 0x099F [0x52] END_LOAD_SCHEDULER: End scheduler "q131" with entities [LocalPlayer, LocalPlayer], work=453*
300: 0x09AE [0x45] LOAD_SCHEDULED_TASK: Load scheduler "q126" with entities [LocalPlayer, LocalPlayer], work=[453*, 0*]
301: 0x09BF [0x2B] Rholont (ID: 17105415/0x01050207) [12334*]:
    → "...Egads!"
302: 0x09C6 [0x23] WAIT_FOR_DIALOG_INTERACTION
303: 0x09C7 [0x2B] Rholont (ID: 17105415/0x01050207) [12335*]:
    → "It just occurred to me that I'm not familiar with Captain Gissenne's appearance..."
304: 0x09CE [0x23] WAIT_FOR_DIALOG_INTERACTION
305: 0x09CF [0x1A] CALL_SUBROUTINE(address=0x19A6)
306: 0x09D2 [0x52] END_LOAD_SCHEDULER: End scheduler "q126" with entities [LocalPlayer, LocalPlayer], work=453*
307: 0x09E1 [0x6B] STOP_AND_IDLE: Rholont (ID: 17105415/0x01050207) stops current action and resets to idle (animation="idl0")
308: 0x09EA [0x4A] Rholont (ID: 17105415/0x01050207) looks at LocalPlayer
309: 0x09F3 [0x4A] LocalPlayer looks at Rholont (ID: 17105415/0x01050207)
310: 0x09FC [0x7B] LocalPlayer stops talking
311: 0x0A01 [0x7B] Rholont (ID: 17105415/0x01050207) stops talking
312: 0x0A06 [0x1C] WAIT(60* ticks)
313: 0x0A09 [0x45] LOAD_SCHEDULED_TASK: Load scheduler "q138" with entities [LocalPlayer, LocalPlayer], work=[453*, 0*]
314: 0x0A1A [0x1A] CALL_SUBROUTINE(address=0x1985)
315: 0x0A1D [0x1C] WAIT(30* ticks)
316: 0x0A20 [0x2B] Rholont (ID: 17105415/0x01050207) [12336*]:
    → "However, a short while prior, I did observe a female knight of seemly demeanor conversing with the stable master by the corral."
317: 0x0A27 [0x23] WAIT_FOR_DIALOG_INTERACTION
318: 0x0A28 [0x1C] WAIT(30* ticks)
319: 0x0A2B [0x1A] CALL_SUBROUTINE(address=0x19A6)
320: 0x0A2E [0x52] END_LOAD_SCHEDULER: End scheduler "q138" with entities [LocalPlayer, LocalPlayer], work=453*
321: 0x0A3D [0x1C] WAIT(60* ticks)
322: 0x0A40 [0x45] LOAD_SCHEDULED_TASK: Load scheduler "q139" with entities [LocalPlayer, LocalPlayer], work=[453*, 0*]
323: 0x0A51 [0x1A] CALL_SUBROUTINE(address=0x1985)
324: 0x0A54 [0x5B] LOAD_EXT_SCHEDULER: Load scheduler "tla0" with entities [Rholont (ID: 17105415/0x01050207), Rholont (ID: 17105415/0x01050207)], work=1272*
325: 0x0A63 [0x2B] Rholont (ID: 17105415/0x01050207) [12337*]:
    → "She concerned herself with the number of sure-legged chocobos. Could that possibly have been the captain?"
326: 0x0A6A [0x23] WAIT_FOR_DIALOG_INTERACTION
327: 0x0A6B [0x45] LOAD_SCHEDULED_TASK: Load scheduler "fdo2" with entities [LocalPlayer, LocalPlayer], work=[200*, 0*]
328: 0x0A7C [0x55] WAIT_LOAD_SCHEDULER: Wait for scheduler "fdo2" with entities [LocalPlayer, LocalPlayer], work=200*
329: 0x0A8B [0x52] END_LOAD_SCHEDULER: End scheduler "q139" with entities [LocalPlayer, LocalPlayer], work=453*
330: 0x0A9A [0x1C] WAIT(30* ticks)
331: 0x0A9D [0x20] SET_CLI_EVENT_UC_FLAG: Unlock player control
332: 0x0A9F [0x46] CAMERA_CONTROL: Restore default settings
333: 0x0AA1 [0x45] LOAD_SCHEDULED_TASK: Load scheduler "fdi2" with entities [EventEntity, EventEntity], work=[200*, 0*]
334: 0x0AB2 [0x21] END_EVENT
335: 0x0AB3 [0x00] END_REQSTACK()
```

### Event 114

#### Metadata

| Field        | Value      |
|--------------|------------|
| Entrypoint   | 0x0AB4     |
| Data Size    | 4384 bytes |
| Instructions | 423        |

```
      00 01 02 03 04 05 06 07  08 09 0A 0B 0C 0D 0E 0F
      -- -- -- -- -- -- -- --  -- -- -- -- -- -- -- --
0AB0:             42 1A A6 19  46 01 38 00 80 4E 00 F0      B...F.8..N..
0AC0: FF FF 7F 27 10 24 02 05  01 09 27 10 0E 02 05 01  ...'.$....'.....
0AD0: 1D 27 10 EB 02 05 01 04  4E 00 02 02 05 01 4E 00  .'......N.....N.
0AE0: F6 01 05 01 4E 00 F7 01  05 01 4E 00 F8 01 05 01  ....N.....N.....
0AF0: 92 01 24 02 05 01 92 01  0E 02 05 01 92 01 02 02  ..$.............
0B00: 05 01 92 01 EB 02 05 01  92 01 F6 01 05 01 92 01  ................
0B10: F7 01 05 01 92 01 F8 01  05 01 94 01 F0 FF FF 7F  ................
0B20: 94 01 24 02 05 01 94 01  0E 02 05 01 94 01 02 02  ..$.............
0B30: 05 01 94 01 EB 02 05 01  94 01 F6 01 05 01 94 01  ................
0B40: F7 01 05 01 94 01 F8 01  05 01 BA F0 FF FF 7F 52  ...............R
0B50: 80 53 80 54 80 55 80 BA  24 02 05 01 56 80 57 80  .S.T.U..$...V.W.
0B60: 54 80 58 80 BA 0E 02 05  01 59 80 5A 80 54 80 5B  T.X......Y.Z.T.[
0B70: 80 BA EB 02 05 01 5C 80  5D 80 5E 80 5F 80 4A EB  ......\.].^._.J.
0B80: 02 05 01 02 02 05 01 6F  76 EB 02 05 01 5B 60 80  .......ov....[`.
0B90: EB 02 05 01 EB 02 05 01  67 73 74 64 80 F0 FF FF  ........gstd....
0BA0: 7F 80 24 02 05 01 80 0E  02 05 01 80 02 02 05 01  ..$.............
0BB0: 80 EB 02 05 01 80 F6 01  05 01 80 F7 01 05 01 80  ................
0BC0: F8 01 05 01 1C 0B 80 45  0C 80 F0 FF FF 7F F0 FF  .......E........
0BD0: FF 7F 70 31 30 31 0D 80  03 25 10 61 80 03 27 10  ..p101...%.a..'.
0BE0: 62 80 03 26 10 0A 80 03  28 10 24 80 27 10 F0 FF  b..&....(.$.'...
0BF0: FF 7F 16 1C 10 80 1A 85  19 1C 11 80 4A 02 02 05  ............J...
0C00: 01 F0 FF FF 7F 2A 10 F0  FF FF 7F 27 10 F0 FF FF  .....*.....'....
0C10: 7F 28 1C 25 80 52 0C 80  F0 FF FF 7F F0 FF FF 7F  .(.%.R..........
0C20: 70 31 30 31 45 0C 80 F0  FF FF 7F F0 FF FF 7F 70  p101E..........p
0C30: 31 30 32 0D 80 2B 02 02  05 01 63 80 23 4A 02 02  102..+....c.#J..
0C40: 05 01 EB 02 05 01 1C 10  80 6F 76 02 02 05 01 6E  .........ov....n
0C50: 02 02 05 01 64 80 99 02  02 05 01 2B 02 02 05 01  ....d......+....
0C60: 65 80 23 1C 33 80 52 0C  80 F0 FF FF 7F F0 FF FF  e.#.3.R.........
0C70: 7F 70 31 30 32 45 0C 80  F0 FF FF 7F F0 FF FF 7F  .p102E..........
0C80: 70 31 30 33 0D 80 1C 11  80 52 0C 80 F0 FF FF 7F  p103.....R......
0C90: F0 FF FF 7F 70 31 30 33  45 0C 80 F0 FF FF 7F F0  ....p103E.......
0CA0: FF FF 7F 70 31 33 30 0D  80 6B 69 64 6C 30 F0 FF  ...p130..kidl0..
0CB0: FF 7F 5B 60 80 EB 02 05  01 EB 02 05 01 67 77 6B  ..[`.........gwk
0CC0: 30 1C 66 80 1C 67 80 5B  60 80 EB 02 05 01 EB 02  0.f..g.[`.......
0CD0: 05 01 67 77 6B 31 BA EB  02 05 01 68 80 69 80 54  ..gwk1.....h.i.T
0CE0: 80 6A 80 5B 60 80 EB 02  05 01 EB 02 05 01 67 77  .j.[`.........gw
0CF0: 6B 32 7B EB 02 05 01 1C  10 80 52 0C 80 F0 FF FF  k2{.......R.....
0D00: 7F F0 FF FF 7F 70 31 33  30 45 0C 80 F0 FF FF 7F  .....p130E......
0D10: F0 FF FF 7F 70 31 30 37  0D 80 1C 33 80 2B EB 02  ....p107...3.+..
0D20: 05 01 6B 80 23 2A 10 EB  02 05 01 4A F0 FF FF 7F  ..k.#*.....J....
0D30: EB 02 05 01 4A 02 02 05  01 EB 02 05 01 1C 10 80  ....J...........
0D40: 52 0C 80 F0 FF FF 7F F0  FF FF 7F 70 31 30 37 29  R..........p107)
0D50: 10 F0 FF FF 7F 1B 02 02  10 2B 80 80 87 0D 52 0C  .........+....R.
0D60: 80 F0 FF FF 7F F0 FF FF  7F 70 31 30 32 45 0C 80  .........p102E..
0D70: F0 FF FF 7F F0 FF FF 7F  70 68 6D 31 0D 80 2A 10  ........phm1..*.
0D80: F0 FF FF 7F 01 DE 0E 02  02 10 6C 80 80 B8 0D 52  ..........l....R
0D90: 0C 80 F0 FF FF 7F F0 FF  FF 7F 70 31 30 32 45 0C  ..........p102E.
0DA0: 80 F0 FF FF 7F F0 FF FF  7F 70 68 6D 31 0D 80 2A  .........phm1..*
0DB0: 10 F0 FF FF 7F 01 DE 0E  02 02 10 6D 80 80 E9 0D  ...........m....
0DC0: 52 0C 80 F0 FF FF 7F F0  FF FF 7F 70 31 30 32 45  R..........p102E
0DD0: 0C 80 F0 FF FF 7F F0 FF  FF 7F 70 65 6D 31 0D 80  ..........pem1..
0DE0: 2A 10 F0 FF FF 7F 01 DE  0E 02 02 10 6E 80 80 1A  *...........n...
0DF0: 0E 52 0C 80 F0 FF FF 7F  F0 FF FF 7F 70 31 30 32  .R..........p102
0E00: 45 0C 80 F0 FF FF 7F F0  FF FF 7F 70 65 6D 31 0D  E..........pem1.
0E10: 80 2A 10 F0 FF FF 7F 01  DE 0E 02 02 10 6F 80 80  .*...........o..
0E20: 4B 0E 52 0C 80 F0 FF FF  7F F0 FF FF 7F 70 31 30  K.R..........p10
0E30: 32 45 0C 80 F0 FF FF 7F  F0 FF FF 7F 70 74 72 31  2E..........ptr1
0E40: 0D 80 2A 10 F0 FF FF 7F  01 DE 0E 02 02 10 70 80  ..*...........p.
0E50: 80 7C 0E 52 0C 80 F0 FF  FF 7F F0 FF FF 7F 70 31  .|.R..........p1
0E60: 30 32 45 0C 80 F0 FF FF  7F F0 FF FF 7F 70 74 72  02E..........ptr
0E70: 31 0D 80 2A 10 F0 FF FF  7F 01 DE 0E 02 02 10 40  1..*...........@
0E80: 80 80 AD 0E 52 0C 80 F0  FF FF 7F F0 FF FF 7F 70  ....R..........p
0E90: 31 30 32 45 0C 80 F0 FF  FF 7F F0 FF FF 7F 70 6D  102E..........pm
0EA0: 74 31 0D 80 2A 10 F0 FF  FF 7F 01 DE 0E 02 02 10  t1..*...........
0EB0: 71 80 80 DE 0E 52 0C 80  F0 FF FF 7F F0 FF FF 7F  q....R..........
0EC0: 70 31 30 32 45 0C 80 F0  FF FF 7F F0 FF FF 7F 70  p102E..........p
0ED0: 67 6C 31 0D 80 2A 10 F0  FF FF 7F 01 DE 0E 27 10  gl1..*........'.
0EE0: F0 FF FF 7F 1D 1C 11 80  4A EB 02 05 01 F0 FF FF  ........J.......
0EF0: 7F 6F 76 EB 02 05 01 5B  60 80 EB 02 05 01 EB 02  .ov....[`.......
0F00: 05 01 67 73 74 64 1C 11  80 52 0C 80 F0 FF FF 7F  ..gstd...R......
0F10: F0 FF FF 7F 70 68 6D 31  52 0C 80 F0 FF FF 7F F0  ....phm1R.......
0F20: FF FF 7F 70 65 6D 31 52  0C 80 F0 FF FF 7F F0 FF  ...pem1R........
0F30: FF 7F 70 74 72 31 52 0C  80 F0 FF FF 7F F0 FF FF  ..ptr1R.........
0F40: 7F 70 6D 74 31 52 0C 80  F0 FF FF 7F F0 FF FF 7F  .pmt1R..........
0F50: 70 67 6C 31 45 0C 80 F0  FF FF 7F F0 FF FF 7F 70  pgl1E..........p
0F60: 31 30 38 0D 80 5B 72 80  EB 02 05 01 EB 02 05 01  108..[r.........
0F70: 67 74 6B 30 27 10 F0 FF  FF 7F 1E 2B EB 02 05 01  gtk0'......+....
0F80: 73 80 23 5B 72 80 EB 02  05 01 EB 02 05 01 67 74  s.#[r.........gt
0F90: 6B 31 59 04 24 02 05 01  66 80 59 04 0E 02 05 01  k1Y.$...f.Y.....
0FA0: 66 80 27 10 24 02 05 01  05 1C 10 80 27 10 0E 02  f.'.$.......'...
0FB0: 05 01 18 52 0C 80 F0 FF  FF 7F F0 FF FF 7F 70 31  ...R..........p1
0FC0: 30 38 45 0C 80 F0 FF FF  7F F0 FF FF 7F 70 31 30  08E..........p10
0FD0: 39 0D 80 66 74 80 EB 02  05 01 EB 02 05 01 74 68  9..ft.........th
0FE0: 6B 32 4B EB 02 05 01 75  80 7B EB 02 05 01 1C 11  k2K....u.{......
0FF0: 80 5B 60 80 EB 02 05 01  EB 02 05 01 67 73 74 64  .[`.........gstd
1000: 52 0C 80 F0 FF FF 7F F0  FF FF 7F 70 31 30 39 45  R..........p109E
1010: 0C 80 F0 FF FF 7F F0 FF  FF 7F 70 31 32 35 0D 80  ..........p125..
1020: 2B 0E 02 05 01 76 80 23  52 0C 80 F0 FF FF 7F F0  +....v.#R.......
1030: FF FF 7F 70 31 32 35 45  0C 80 F0 FF FF 7F F0 FF  ...p125E........
1040: FF 7F 70 31 33 34 0D 80  2A 10 0E 02 05 01 4A 0E  ..p134..*.....J.
1050: 02 05 01 EB 02 05 01 2B  0E 02 05 01 77 80 23 6F  .......+....w.#o
1060: 76 0E 02 05 01 52 0C 80  F0 FF FF 7F F0 FF FF 7F  v....R..........
1070: 70 31 33 34 45 0C 80 F0  FF FF 7F F0 FF FF 7F 70  p134E..........p
1080: 31 31 30 0D 80 6F 76 EB  02 05 01 2B EB 02 05 01  110..ov....+....
1090: 78 80 23 2B EB 02 05 01  79 80 23 4A 24 02 05 01  x.#+....y.#J$...
10A0: F0 FF FF 7F 52 0C 80 F0  FF FF 7F F0 FF FF 7F 70  ....R..........p
10B0: 31 31 30 45 0C 80 F0 FF  FF 7F F0 FF FF 7F 70 31  110E..........p1
10C0: 33 31 0D 80 7B F0 FF FF  7F 4A 24 02 05 01 EB 02  31..{....J$.....
10D0: 05 01 2B EB 02 05 01 7A  80 23 52 0C 80 F0 FF FF  ..+....z.#R.....
10E0: 7F F0 FF FF 7F 70 31 33  31 45 0C 80 F0 FF FF 7F  .....p131E......
10F0: F0 FF FF 7F 70 31 30 36  0D 80 2B 0E 02 05 01 7B  ....p106..+....{
1100: 80 23 1C 10 80 52 0C 80  F0 FF FF 7F F0 FF FF 7F  .#...R..........
1110: 70 31 30 36 45 0C 80 F0  FF FF 7F F0 FF FF 7F 70  p106E..........p
1120: 31 31 32 0D 80 5B 72 80  EB 02 05 01 EB 02 05 01  112..[r.........
1130: 67 74 6B 30 2B EB 02 05  01 7C 80 23 5B 72 80 EB  gtk0+....|.#[r..
1140: 02 05 01 EB 02 05 01 67  74 6B 31 52 0C 80 F0 FF  .......gtk1R....
1150: FF 7F F0 FF FF 7F 70 31  31 32 45 0C 80 F0 FF FF  ......p112E.....
1160: 7F F0 FF FF 7F 70 31 33  35 0D 80 5B 13 80 0E 02  .....p135..[....
1170: 05 01 0E 02 05 01 74 6C  6B 30 2B 0E 02 05 01 7D  ......tlk0+....}
1180: 80 23 52 0C 80 F0 FF FF  7F F0 FF FF 7F 70 31 33  .#R..........p13
1190: 35 45 0C 80 F0 FF FF 7F  F0 FF FF 7F 70 31 31 33  5E..........p113
11A0: 0D 80 5B 13 80 0E 02 05  01 0E 02 05 01 74 6C 6B  ..[..........tlk
11B0: 31 4B EB 02 05 01 7E 80  66 2D 80 24 02 05 01 24  1K....~.f-.$...$
11C0: 02 05 01 74 6C 6B 30 2B  24 02 05 01 7F 80 23 5B  ...tlk0+$.....#[
11D0: 60 80 EB 02 05 01 EB 02  05 01 67 73 74 64 52 0C  `.........gstdR.
11E0: 80 F0 FF FF 7F F0 FF FF  7F 70 31 31 33 45 0C 80  .........p113E..
11F0: F0 FF FF 7F F0 FF FF 7F  70 31 31 34 0D 80 66 2D  ........p114..f-
1200: 80 24 02 05 01 24 02 05  01 74 6C 6B 31 2B EB 02  .$...$...tlk1+..
1210: 05 01 80 80 23 52 0C 80  F0 FF FF 7F F0 FF FF 7F  ....#R..........
1220: 70 31 31 34 45 0C 80 F0  FF FF 7F F0 FF FF 7F 70  p114E..........p
1230: 31 31 35 0D 80 4A 0E 02  05 01 24 02 05 01 6E 24  115..J....$...n$
1240: 02 05 01 40 80 99 24 02  05 01 2B 24 02 05 01 81  ...@..$...+$....
1250: 80 23 6F 76 0E 02 05 01  52 0C 80 F0 FF FF 7F F0  .#ov....R.......
1260: FF FF 7F 70 31 31 35 45  0C 80 F0 FF FF 7F F0 FF  ...p115E........
1270: FF 7F 70 31 30 35 0D 80  2B 0E 02 05 01 82 80 23  ..p105..+......#
1280: 52 0C 80 F0 FF FF 7F F0  FF FF 7F 70 31 30 35 45  R..........p105E
1290: 0C 80 F0 FF FF 7F F0 FF  FF 7F 70 31 31 36 0D 80  ..........p116..
12A0: 2B EB 02 05 01 83 80 23  52 0C 80 F0 FF FF 7F F0  +......#R.......
12B0: FF FF 7F 70 31 31 36 45  0C 80 F0 FF FF 7F F0 FF  ...p116E........
12C0: FF 7F 70 31 31 37 0D 80  2B 24 02 05 01 84 80 23  ..p117..+$.....#
12D0: 52 0C 80 F0 FF FF 7F F0  FF FF 7F 70 31 31 37 45  R..........p117E
12E0: 0C 80 F0 FF FF 7F F0 FF  FF 7F 70 31 31 31 0D 80  ..........p111..
12F0: 4A 0E 02 05 01 EB 02 05  01 2B EB 02 05 01 85 80  J........+......
1300: 23 6F 76 0E 02 05 01 52  0C 80 F0 FF FF 7F F0 FF  #ov....R........
1310: FF 7F 70 31 31 31 45 0C  80 F0 FF FF 7F F0 FF FF  ..p111E.........
1320: 7F 70 31 31 38 0D 80 79  00 EB 02 05 01 0E 02 05  .p118..y........
1330: 01 5B 72 80 EB 02 05 01  EB 02 05 01 67 74 6B 30  .[r.........gtk0
1340: 2B EB 02 05 01 86 80 23  5B 72 80 EB 02 05 01 EB  +......#[r......
1350: 02 05 01 67 74 6B 31 52  0C 80 F0 FF FF 7F F0 FF  ...gtk1R........
1360: FF 7F 70 31 31 38 45 0C  80 F0 FF FF 7F F0 FF FF  ..p118E.........
1370: 7F 70 31 31 39 0D 80 79  00 EB 02 05 01 24 02 05  .p119..y.....$..
1380: 01 6C F0 FF FF 7F 87 80  2B 80 2B 0E 02 05 01 88  .l......+.+.....
1390: 80 23 27 10 0E 02 05 01  19 1C 10 80 52 0C 80 F0  .#'.........R...
13A0: FF FF 7F F0 FF FF 7F 70  31 31 39 45 0C 80 F0 FF  .......p119E....
13B0: FF 7F F0 FF FF 7F 70 31  32 30 0D 80 4A EB 02 05  ......p120..J...
13C0: 01 F0 FF FF 7F 1C 11 80  52 0C 80 F0 FF FF 7F F0  ........R.......
13D0: FF FF 7F 70 31 32 30 45  0C 80 F0 FF FF 7F F0 FF  ...p120E........
13E0: FF 7F 70 31 32 37 0D 80  4E 01 0E 02 05 01 5B 72  ..p127..N.....[r
13F0: 80 EB 02 05 01 EB 02 05  01 67 74 6B 30 4A 24 02  .........gtk0J$.
1400: 05 01 F0 FF FF 7F 2B EB  02 05 01 89 80 23 5B 72  ......+......#[r
1410: 80 EB 02 05 01 EB 02 05  01 67 74 6B 31 1C 10 80  .........gtk1...
1420: 52 0C 80 F0 FF FF 7F F0  FF FF 7F 70 31 32 37 45  R..........p127E
1430: 0C 80 F0 FF FF 7F F0 FF  FF 7F 70 31 32 38 0D 80  ..........p128..
1440: 6F 76 24 02 05 01 66 2D  80 24 02 05 01 24 02 05  ov$...f-.$...$..
1450: 01 74 6C 6B 30 4A EB 02  05 01 F0 FF FF 7F 4A F0  .tlk0J........J.
1460: FF FF 7F 24 02 05 01 2B  24 02 05 01 8A 80 66 2D  ...$...+$.....f-
1470: 80 24 02 05 01 24 02 05  01 74 6C 6B 31 23 24 8B  .$...$...tlk1#$.
1480: 80 0D 80 0D 80 25 6F 76  F0 FF FF 7F 52 0C 80 F0  .....%ov....R...
1490: FF FF 7F F0 FF FF 7F 70  31 32 38 02 00 10 0D 80  .......p128.....
14A0: 00 AD 16 29 10 F0 FF FF  7F 1B 02 02 10 2B 80 80  ...).........+..
14B0: D5 14 52 0C 80 F0 FF FF  7F F0 FF FF 7F 70 31 32  ..R..........p12
14C0: 38 45 0C 80 F0 FF FF 7F  F0 FF FF 7F 70 68 6D 32  8E..........phm2
14D0: 0D 80 01 02 16 02 02 10  6C 80 80 00 15 52 0C 80  ........l....R..
14E0: F0 FF FF 7F F0 FF FF 7F  70 31 32 38 45 0C 80 F0  ........p128E...
14F0: FF FF 7F F0 FF FF 7F 70  68 6D 32 0D 80 01 02 16  .......phm2.....
1500: 02 02 10 6D 80 80 2B 15  52 0C 80 F0 FF FF 7F F0  ...m..+.R.......
1510: FF FF 7F 70 31 32 38 45  0C 80 F0 FF FF 7F F0 FF  ...p128E........
1520: FF 7F 70 65 6D 32 0D 80  01 02 16 02 02 10 6E 80  ..pem2........n.
1530: 80 56 15 52 0C 80 F0 FF  FF 7F F0 FF FF 7F 70 31  .V.R..........p1
1540: 32 38 45 0C 80 F0 FF FF  7F F0 FF FF 7F 70 65 6D  28E..........pem
1550: 32 0D 80 01 02 16 02 02  10 6F 80 80 81 15 52 0C  2........o....R.
1560: 80 F0 FF FF 7F F0 FF FF  7F 70 31 32 38 45 0C 80  .........p128E..
1570: F0 FF FF 7F F0 FF FF 7F  70 74 72 32 0D 80 01 02  ........ptr2....
1580: 16 02 02 10 70 80 80 AC  15 52 0C 80 F0 FF FF 7F  ....p....R......
1590: F0 FF FF 7F 70 31 32 38  45 0C 80 F0 FF FF 7F F0  ....p128E.......
15A0: FF FF 7F 70 74 72 32 0D  80 01 02 16 02 02 10 40  ...ptr2........@
15B0: 80 80 D7 15 52 0C 80 F0  FF FF 7F F0 FF FF 7F 70  ....R..........p
15C0: 31 32 38 45 0C 80 F0 FF  FF 7F F0 FF FF 7F 70 6D  128E..........pm
15D0: 74 32 0D 80 01 02 16 02  02 10 71 80 80 02 16 52  t2........q....R
15E0: 0C 80 F0 FF FF 7F F0 FF  FF 7F 70 31 32 38 45 0C  ..........p128E.
15F0: 80 F0 FF FF 7F F0 FF FF  7F 70 67 6C 32 0D 80 01  .........pgl2...
1600: 02 16 6E F0 FF FF 7F 8C  80 99 F0 FF FF 7F 1C 8D  ..n.............
1610: 80 5B 72 80 EB 02 05 01  EB 02 05 01 67 6B 65 69  .[r.........gkei
1620: 1C 10 80 52 0C 80 F0 FF  FF 7F F0 FF FF 7F 70 68  ...R..........ph
1630: 6D 32 52 0C 80 F0 FF FF  7F F0 FF FF 7F 70 65 6D  m2R..........pem
1640: 32 52 0C 80 F0 FF FF 7F  F0 FF FF 7F 70 74 72 32  2R..........ptr2
1650: 52 0C 80 F0 FF FF 7F F0  FF FF 7F 70 6D 74 32 52  R..........pmt2R
1660: 0C 80 F0 FF FF 7F F0 FF  FF 7F 70 67 6C 32 45 0C  ..........pgl2E.
1670: 80 F0 FF FF 7F F0 FF FF  7F 70 31 33 32 0D 80 6E  .........p132..n
1680: 24 02 05 01 6C 80 99 24  02 05 01 2B 24 02 05 01  $...l..$...+$...
1690: 8E 80 23 2B 24 02 05 01  8F 80 23 52 0C 80 F0 FF  ..#+$.....#R....
16A0: FF 7F F0 FF FF 7F 70 31  33 32 01 FE 18 02 00 10  ......p132......
16B0: 2B 80 00 FE 18 29 10 F0  FF FF 7F 1B 02 02 10 2B  +....).........+
16C0: 80 80 E7 16 52 0C 80 F0  FF FF 7F F0 FF FF 7F 70  ....R..........p
16D0: 31 32 38 45 0C 80 F0 FF  FF 7F F0 FF FF 7F 70 68  128E..........ph
16E0: 6D 32 0D 80 01 14 18 02  02 10 6C 80 80 12 17 52  m2........l....R
16F0: 0C 80 F0 FF FF 7F F0 FF  FF 7F 70 31 32 38 45 0C  ..........p128E.
1700: 80 F0 FF FF 7F F0 FF FF  7F 70 68 6D 32 0D 80 01  .........phm2...
1710: 14 18 02 02 10 6D 80 80  3D 17 52 0C 80 F0 FF FF  .....m..=.R.....
1720: 7F F0 FF FF 7F 70 31 32  38 45 0C 80 F0 FF FF 7F  .....p128E......
1730: F0 FF FF 7F 70 65 6D 32  0D 80 01 14 18 02 02 10  ....pem2........
1740: 6E 80 80 68 17 52 0C 80  F0 FF FF 7F F0 FF FF 7F  n..h.R..........
1750: 70 31 32 38 45 0C 80 F0  FF FF 7F F0 FF FF 7F 70  p128E..........p
1760: 65 6D 32 0D 80 01 14 18  02 02 10 6F 80 80 93 17  em2........o....
1770: 52 0C 80 F0 FF FF 7F F0  FF FF 7F 70 31 32 38 45  R..........p128E
1780: 0C 80 F0 FF FF 7F F0 FF  FF 7F 70 74 72 32 0D 80  ..........ptr2..
1790: 01 14 18 02 02 10 70 80  80 BE 17 52 0C 80 F0 FF  ......p....R....
17A0: FF 7F F0 FF FF 7F 70 31  32 38 45 0C 80 F0 FF FF  ......p128E.....
17B0: 7F F0 FF FF 7F 70 74 72  32 0D 80 01 14 18 02 02  .....ptr2.......
17C0: 10 40 80 80 E9 17 52 0C  80 F0 FF FF 7F F0 FF FF  .@....R.........
17D0: 7F 70 31 32 38 45 0C 80  F0 FF FF 7F F0 FF FF 7F  .p128E..........
17E0: 70 6D 74 32 0D 80 01 14  18 02 02 10 71 80 80 14  pmt2........q...
17F0: 18 52 0C 80 F0 FF FF 7F  F0 FF FF 7F 70 31 32 38  .R..........p128
1800: 45 0C 80 F0 FF FF 7F F0  FF FF 7F 70 67 6C 32 0D  E..........pgl2.
1810: 80 01 14 18 6E F0 FF FF  7F 70 80 99 F0 FF FF 7F  ....n....p......
1820: 1C 11 80 52 0C 80 F0 FF  FF 7F F0 FF FF 7F 70 68  ...R..........ph
1830: 6D 32 52 0C 80 F0 FF FF  7F F0 FF FF 7F 70 65 6D  m2R..........pem
1840: 32 52 0C 80 F0 FF FF 7F  F0 FF FF 7F 70 74 72 32  2R..........ptr2
1850: 52 0C 80 F0 FF FF 7F F0  FF FF 7F 70 6D 74 32 52  R..........pmt2R
1860: 0C 80 F0 FF FF 7F F0 FF  FF 7F 70 67 6C 32 45 0C  ..........pgl2E.
1870: 80 F0 FF FF 7F F0 FF FF  7F 70 31 32 39 0D 80 6E  .........p129..n
1880: 24 02 05 01 35 80 99 24  02 05 01 2B 24 02 05 01  $...5..$...+$...
1890: 90 80 23 79 00 24 02 05  01 EB 02 05 01 2B 24 02  ..#y.$.......+$.
18A0: 05 01 91 80 23 4B EB 02  05 01 92 80 6F 76 EB 02  ....#K......ov..
18B0: 05 01 5B 60 80 EB 02 05  01 EB 02 05 01 67 73 74  ..[`.........gst
18C0: 64 1C 10 80 52 0C 80 F0  FF FF 7F F0 FF FF 7F 70  d...R..........p
18D0: 31 32 39 45 0C 80 F0 FF  FF 7F F0 FF FF 7F 70 31  129E..........p1
18E0: 32 36 0D 80 2B EB 02 05  01 93 80 23 52 0C 80 F0  26..+......#R...
18F0: FF FF 7F F0 FF FF 7F 70  31 32 36 01 FE 18 45 0C  .......p126...E.
1900: 80 F0 FF FF 7F F0 FF FF  7F 70 31 33 33 0D 80 7B  .........p133..{
1910: 24 02 05 01 1C 11 80 1A  A6 19 1C 4E 80 52 0C 80  $..........N.R..
1920: F0 FF FF 7F F0 FF FF 7F  70 31 33 33 20 00 46 00  ........p133 .F.
1930: 45 51 80 F8 FF FF 7F F8  FF FF 7F 66 64 69 32 0D  EQ.........fdi2.
1940: 80 21 00 45 51 80 F0 FF  FF 7F F0 FF FF 7F 66 64  .!.EQ.........fd
1950: 69 30 0D 80 55 51 80 F0  FF FF 7F F0 FF FF 7F 66  i0..UQ.........f
1960: 64 69 30 1B 45 51 80 F0  FF FF 7F F0 FF FF 7F 66  di0.EQ.........f
1970: 64 6F 30 0D 80 55 51 80  F0 FF FF 7F F0 FF FF 7F  do0..UQ.........
1980: 66 64 6F 30 1B 45 51 80  F0 FF FF 7F F0 FF FF 7F  fdo0.EQ.........
1990: 66 64 69 31 0D 80 55 51  80 F0 FF FF 7F F0 FF FF  fdi1..UQ........
19A0: 7F 66 64 69 31 1B 45 51  80 F0 FF FF 7F F0 FF FF  .fdi1.EQ........
19B0: 7F 66 64 6F 31 0D 80 55  51 80 F0 FF FF 7F F0 FF  .fdo1..UQ.......
19C0: FF 7F 66 64 6F 31 1B 45  94 80 F0 FF FF 7F F0 FF  ..fdo1.E........
19D0: FF 7F 77 68 69 31 0D 80  55 94 80 F0 FF FF 7F F0  ..whi1..U.......
19E0: FF FF 7F 77 68 69 31 1B  45 94 80 F0 FF FF 7F F0  ...whi1.E.......
19F0: FF FF 7F 77 68 6F 31 0D  80 55 94 80 F0 FF FF 7F  ...who1..U......
1A00: F0 FF FF 7F 77 68 6F 31  1B 45 94 80 F0 FF FF 7F  ....who1.E......
1A10: F0 FF FF 7F 77 68 6F 32  0D 80 55 94 80 F0 FF FF  ....who2..U.....
1A20: 7F F0 FF FF 7F 77 68 6F  32 1B 45 94 80 F0 FF FF  .....who2.E.....
1A30: 7F F0 FF FF 7F 77 68 6F  33 0D 80 55 94 80 F0 FF  .....who3..U....
1A40: FF 7F F0 FF FF 7F 77 68  6F 33 1B 62 2B 80 F0 FF  ......who3.b+...
1A50: FF 7F F0 FF FF 7F 6D 61  69 6E 0D 80 1C 95 80 45  ......main.....E
1A60: 51 80 F0 FF FF 7F F0 FF  FF 7F 66 64 6F 31 0D 80  Q.........fdo1..
1A70: 55 51 80 F0 FF FF 7F F0  FF FF 7F 66 64 6F 31 1B  UQ.........fdo1.
1A80: 45 51 80 F0 FF FF 7F F0  FF FF 7F 66 64 69 31 0D  EQ.........fdi1.
1A90: 80 62 6C 80 F0 FF FF 7F  F0 FF FF 7F 6D 61 69 6E  .bl.........main
1AA0: 0D 80 1C 4E 80 55 51 80  F0 FF FF 7F F0 FF FF 7F  ...N.UQ.........
1AB0: 66 64 69 31 1B 45 51 80  F0 FF FF 7F F0 FF FF 7F  fdi1.EQ.........
1AC0: 62 6C 6F 6E 0D 80 45 94  80 F0 FF FF 7F F0 FF FF  blon..E.........
1AD0: 7F 62 6C 6F 6E 0D 80 1B  45 94 80 F0 FF FF 7F F0  .blon...E.......
1AE0: FF FF 7F 77 68 69 30 0D  80 55 94 80 F0 FF FF 7F  ...whi0..U......
1AF0: F0 FF FF 7F 77 68 69 30  1B 45 94 80 F0 FF FF 7F  ....whi0.E......
1B00: F0 FF FF 7F 77 68 6F 30  0D 80 55 94 80 F0 FF FF  ....who0..U.....
1B10: 7F F0 FF FF 7F 77 68 6F  30 1B 45 96 80 F0 FF FF  .....who0.E.....
1B20: 7F F0 FF FF 7F 65 66 6F  6E 0D 80 55 96 80 F0 FF  .....efon..U....
1B30: FF 7F F0 FF FF 7F 65 66  6F 6E 1B 45 51 80 F0 FF  ......efon.EQ...
1B40: FF 7F F0 FF FF 7F 66 64  69 73 0D 80 1B 45 51 80  ......fdis...EQ.
1B50: F0 FF FF 7F F0 FF FF 7F  66 64 6F 73 0D 80 55 51  ........fdos..UQ
1B60: 80 F0 FF FF 7F F0 FF FF  7F 66 64 6F 73 1B 45 51  .........fdos.EQ
1B70: 80 F0 FF FF 7F F0 FF FF  7F 66 64 69 66 0D 80 1B  .........fdif...
1B80: 45 51 80 F0 FF FF 7F F0  FF FF 7F 66 64 6F 66 0D  EQ.........fdof.
1B90: 80 55 51 80 F0 FF FF 7F  F0 FF FF 7F 66 64 6F 66  .UQ.........fdof
1BA0: 1B 45 51 80 F0 FF FF 7F  F0 FF FF 7F 66 64 69 70  .EQ.........fdip
1BB0: 0D 80 1B 45 51 80 F0 FF  FF 7F F0 FF FF 7F 66 64  ...EQ.........fd
1BC0: 6F 70 0D 80 55 51 80 F0  FF FF 7F F0 FF FF 7F 66  op..UQ.........f
1BD0: 64 6F 70 1B                                       dop.            
```

#### Opcodes

```
  0: 0x0AB4 [0x42] SET_CLI_EVENT_CANCEL_DATA()
  1: 0x0AB5 [0x1A] CALL_SUBROUTINE(address=0x19A6)
  2: 0x0AB8 [0x46] CAMERA_CONTROL: Disable user control
  3: 0x0ABA [0x38] SET_CLIENT_EVENT_MODE(mode=19*)
  4: 0x0ABD [0x4E] SET_ENTITY_HIDE_FLAG: Show LocalPlayer
  5: 0x0AC3 [0x27] REQ_SET(priority=0x10, entity_id=Phillieulais (ID: 17105444/0x01050224), tag_num=0x09)
  6: 0x0ACA [0x27] REQ_SET(priority=0x10, entity_id=Altennia (ID: 17105422/0x0105020E), tag_num=0x1D)
  7: 0x0AD1 [0x27] REQ_SET(priority=0x10, entity_id=Gissenne (ID: 17105643/0x010502EB), tag_num=0x04)
  8: 0x0AD8 [0x4E] SET_ENTITY_HIDE_FLAG: Show Daigraffeaux (ID: 17105410/0x01050202)
  9: 0x0ADE [0x4E] SET_ENTITY_HIDE_FLAG: Show Chocobo (ID: 17105398/0x010501F6)
 10: 0x0AE4 [0x4E] SET_ENTITY_HIDE_FLAG: Show Chocobo (ID: 17105399/0x010501F7)
 11: 0x0AEA [0x4E] SET_ENTITY_HIDE_FLAG: Show Chocobo (ID: 17105400/0x010501F8)
 12: 0x0AF0 [0x92] Phillieulais (ID: 17105444/0x01050224)->Render.Flags3 ^= 0x01
 13: 0x0AF6 [0x92] Altennia (ID: 17105422/0x0105020E)->Render.Flags3 ^= 0x01
 14: 0x0AFC [0x92] Daigraffeaux (ID: 17105410/0x01050202)->Render.Flags3 ^= 0x01
 15: 0x0B02 [0x92] Gissenne (ID: 17105643/0x010502EB)->Render.Flags3 ^= 0x01
 16: 0x0B08 [0x92] Chocobo (ID: 17105398/0x010501F6)->Render.Flags3 ^= 0x01
 17: 0x0B0E [0x92] Chocobo (ID: 17105399/0x010501F7)->Render.Flags3 ^= 0x01
 18: 0x0B14 [0x92] Chocobo (ID: 17105400/0x010501F8)->Render.Flags3 ^= 0x01
 19: 0x0B1A [0x94] LocalPlayer->Render.Flags3 ^= 0x01
 20: 0x0B20 [0x94] Phillieulais (ID: 17105444/0x01050224)->Render.Flags3 ^= 0x01
 21: 0x0B26 [0x94] Altennia (ID: 17105422/0x0105020E)->Render.Flags3 ^= 0x01
 22: 0x0B2C [0x94] Daigraffeaux (ID: 17105410/0x01050202)->Render.Flags3 ^= 0x01
 23: 0x0B32 [0x94] Gissenne (ID: 17105643/0x010502EB)->Render.Flags3 ^= 0x01
 24: 0x0B38 [0x94] Chocobo (ID: 17105398/0x010501F6)->Render.Flags3 ^= 0x01
 25: 0x0B3E [0x94] Chocobo (ID: 17105399/0x010501F7)->Render.Flags3 ^= 0x01
 26: 0x0B44 [0x94] Chocobo (ID: 17105400/0x010501F8)->Render.Flags3 ^= 0x01
 27: 0x0B4A [0xBA] SET_ENTITY_POSITION(entity_id=LocalPlayer, pos_x=-2.149*, pos_z=-85.330*, pos_y=1.999*, direction=45.4°*)
 28: 0x0B57 [0xBA] SET_ENTITY_POSITION(entity_id=Phillieulais (ID: 17105444/0x01050224), pos_x=-13.296*, pos_z=-80.484*, pos_y=1.999*, direction=26.3°*)
 29: 0x0B64 [0xBA] SET_ENTITY_POSITION(entity_id=Altennia (ID: 17105422/0x0105020E), pos_x=-16.172*, pos_z=-77.852*, pos_y=1.999*, direction=54.8°*)
 30: 0x0B71 [0xBA] SET_ENTITY_POSITION(entity_id=Gissenne (ID: 17105643/0x010502EB), pos_x=15.020*, pos_z=-98.121*, pos_y=2.199*, direction=72.7°*)
 31: 0x0B7E [0x4A] Gissenne (ID: 17105643/0x010502EB) looks at Daigraffeaux (ID: 17105410/0x01050202)
 32: 0x0B87 [0x6F] WAIT_FRAME_DELAY: Yield until WaitTime reaches zero
 33: 0x0B88 [0x76] CHECK_ENTITY_RENDER_FLAGS: Wait until Gissenne (ID: 17105643/0x010502EB) Render.Flags0 and Render.Flags3 conditions are met
 34: 0x0B8D [0x5B] LOAD_EXT_SCHEDULER: Load scheduler "gstd" with entities [Gissenne (ID: 17105643/0x010502EB), Gissenne (ID: 17105643/0x010502EB)], work=2891*
 35: 0x0B9C [0x80] LOAD_WAIT(entity=LocalPlayer)
 36: 0x0BA1 [0x80] LOAD_WAIT(entity=Phillieulais (ID: 17105444/0x01050224))
 37: 0x0BA6 [0x80] LOAD_WAIT(entity=Altennia (ID: 17105422/0x0105020E))
 38: 0x0BAB [0x80] LOAD_WAIT(entity=Daigraffeaux (ID: 17105410/0x01050202))
 39: 0x0BB0 [0x80] LOAD_WAIT(entity=Gissenne (ID: 17105643/0x010502EB))
 40: 0x0BB5 [0x80] LOAD_WAIT(entity=Chocobo (ID: 17105398/0x010501F6))
 41: 0x0BBA [0x80] LOAD_WAIT(entity=Chocobo (ID: 17105399/0x010501F7))
 42: 0x0BBF [0x80] LOAD_WAIT(entity=Chocobo (ID: 17105400/0x010501F8))
 43: 0x0BC4 [0x1C] WAIT(15* ticks)
 44: 0x0BC7 [0x45] LOAD_SCHEDULED_TASK: Load scheduler "p101" with entities [LocalPlayer, LocalPlayer], work=[453*, 0*]
 45: 0x0BD8 [0x03] Work_Zone[37] = 4294961656*
 46: 0x0BDD [0x03] Work_Zone[39] = 4294879610*
 47: 0x0BE2 [0x03] Work_Zone[38] = 4294965296*
 48: 0x0BE7 [0x03] Work_Zone[40] = 3113*
 49: 0x0BEC [0x27] REQ_SET(priority=0x10, entity_id=LocalPlayer, tag_num=0x16)
 50: 0x0BF3 [0x1C] WAIT(10* ticks)
 51: 0x0BF6 [0x1A] CALL_SUBROUTINE(address=0x1985)
 52: 0x0BF9 [0x1C] WAIT(120* ticks)
 53: 0x0BFC [0x4A] Daigraffeaux (ID: 17105410/0x01050202) looks at LocalPlayer
 54: 0x0C05 [0x2A] GET_REQ_LEVEL(level=16, entity_id=LocalPlayer)
 55: 0x0C0B [0x27] REQ_SET(priority=0x10, entity_id=LocalPlayer, tag_num=0x28)
 56: 0x0C12 [0x1C] WAIT(180* ticks)
 57: 0x0C15 [0x52] END_LOAD_SCHEDULER: End scheduler "p101" with entities [LocalPlayer, LocalPlayer], work=453*
 58: 0x0C24 [0x45] LOAD_SCHEDULED_TASK: Load scheduler "p102" with entities [LocalPlayer, LocalPlayer], work=[453*, 0*]
 59: 0x0C35 [0x2B] Daigraffeaux (ID: 17105410/0x01050202) [12338*]:
    → "What's that? Looking for Captain Gissenne, are we? Well then, in that case..."
 60: 0x0C3C [0x23] WAIT_FOR_DIALOG_INTERACTION
 61: 0x0C3D [0x4A] Daigraffeaux (ID: 17105410/0x01050202) looks at Gissenne (ID: 17105643/0x010502EB)
 62: 0x0C46 [0x1C] WAIT(10* ticks)
 63: 0x0C49 [0x6F] WAIT_FRAME_DELAY: Yield until WaitTime reaches zero
 64: 0x0C4A [0x76] CHECK_ENTITY_RENDER_FLAGS: Wait until Daigraffeaux (ID: 17105410/0x01050202) Render.Flags0 and Render.Flags3 conditions are met
 65: 0x0C4F [0x6E] Daigraffeaux (ID: 17105410/0x01050202) uses emote 12*
 66: 0x0C56 [0x99] Wait for Daigraffeaux (ID: 17105410/0x01050202) animation to complete
 67: 0x0C5B [0x2B] Daigraffeaux (ID: 17105410/0x01050202) [12339*]:
    → "Captain Gissenne! Visitors to see you, ma'am!"
 68: 0x0C62 [0x23] WAIT_FOR_DIALOG_INTERACTION
 69: 0x0C63 [0x1C] WAIT(60* ticks)
 70: 0x0C66 [0x52] END_LOAD_SCHEDULER: End scheduler "p102" with entities [LocalPlayer, LocalPlayer], work=453*
 71: 0x0C75 [0x45] LOAD_SCHEDULED_TASK: Load scheduler "p103" with entities [LocalPlayer, LocalPlayer], work=[453*, 0*]
 72: 0x0C86 [0x1C] WAIT(120* ticks)
 73: 0x0C89 [0x52] END_LOAD_SCHEDULER: End scheduler "p103" with entities [LocalPlayer, LocalPlayer], work=453*
 74: 0x0C98 [0x45] LOAD_SCHEDULED_TASK: Load scheduler "p130" with entities [LocalPlayer, LocalPlayer], work=[453*, 0*]
 75: 0x0CA9 [0x6B] STOP_AND_IDLE: LocalPlayer stops current action and resets to idle (animation="idl0")
 76: 0x0CB2 [0x5B] LOAD_EXT_SCHEDULER: Load scheduler "gwk0" with entities [Gissenne (ID: 17105643/0x010502EB), Gissenne (ID: 17105643/0x010502EB)], work=2891*
 77: 0x0CC1 [0x1C] WAIT(40* ticks)
 78: 0x0CC4 [0x1C] WAIT(100* ticks)
 79: 0x0CC7 [0x5B] LOAD_EXT_SCHEDULER: Load scheduler "gwk1" with entities [Gissenne (ID: 17105643/0x010502EB), Gissenne (ID: 17105643/0x010502EB)], work=2891*
 80: 0x0CD6 [0xBA] SET_ENTITY_POSITION(entity_id=Gissenne (ID: 17105643/0x010502EB), pos_x=-4.249*, pos_z=-89.636*, pos_y=1.999*, direction=203.2°*)
 81: 0x0CE3 [0x5B] LOAD_EXT_SCHEDULER: Load scheduler "gwk2" with entities [Gissenne (ID: 17105643/0x010502EB), Gissenne (ID: 17105643/0x010502EB)], work=2891*
 82: 0x0CF2 [0x7B] Gissenne (ID: 17105643/0x010502EB) stops talking
 83: 0x0CF7 [0x1C] WAIT(10* ticks)
 84: 0x0CFA [0x52] END_LOAD_SCHEDULER: End scheduler "p130" with entities [LocalPlayer, LocalPlayer], work=453*
 85: 0x0D09 [0x45] LOAD_SCHEDULED_TASK: Load scheduler "p107" with entities [LocalPlayer, LocalPlayer], work=[453*, 0*]
 86: 0x0D1A [0x1C] WAIT(60* ticks)
 87: 0x0D1D [0x2B] Gissenne (ID: 17105643/0x010502EB) [12340*]:
    → "I don't believe we've met. What would you have of me?"
 88: 0x0D24 [0x23] WAIT_FOR_DIALOG_INTERACTION
 89: 0x0D25 [0x2A] GET_REQ_LEVEL(level=16, entity_id=Gissenne (ID: 17105643/0x010502EB))
 90: 0x0D2B [0x4A] LocalPlayer looks at Gissenne (ID: 17105643/0x010502EB)
 91: 0x0D34 [0x4A] Daigraffeaux (ID: 17105410/0x01050202) looks at Gissenne (ID: 17105643/0x010502EB)
 92: 0x0D3D [0x1C] WAIT(10* ticks)
 93: 0x0D40 [0x52] END_LOAD_SCHEDULER: End scheduler "p107" with entities [LocalPlayer, LocalPlayer], work=453*
 94: 0x0D4F [0x29] REQ_SET_WAIT(priority=0x10, entity_id=LocalPlayer, tag_num=0x1B)
 95: 0x0D56 [0x02] IF !(Work_Zone[2] == 1*) GOTO 0x0D87
 96: 0x0D5E [0x52] END_LOAD_SCHEDULER: End scheduler "p102" with entities [LocalPlayer, LocalPlayer], work=453*
 97: 0x0D6D [0x45] LOAD_SCHEDULED_TASK: Load scheduler "phm1" with entities [LocalPlayer, LocalPlayer], work=[453*, 0*]
 98: 0x0D7E [0x2A] GET_REQ_LEVEL(level=16, entity_id=LocalPlayer)
 99: 0x0D84 [0x01] GOTO 0x0EDE
100: 0x0D87 [0x02] IF !(Work_Zone[2] == 2*) GOTO 0x0DB8
101: 0x0D8F [0x52] END_LOAD_SCHEDULER: End scheduler "p102" with entities [LocalPlayer, LocalPlayer], work=453*
102: 0x0D9E [0x45] LOAD_SCHEDULED_TASK: Load scheduler "phm1" with entities [LocalPlayer, LocalPlayer], work=[453*, 0*]
103: 0x0DAF [0x2A] GET_REQ_LEVEL(level=16, entity_id=LocalPlayer)
104: 0x0DB5 [0x01] GOTO 0x0EDE
105: 0x0DB8 [0x02] IF !(Work_Zone[2] == 3*) GOTO 0x0DE9
106: 0x0DC0 [0x52] END_LOAD_SCHEDULER: End scheduler "p102" with entities [LocalPlayer, LocalPlayer], work=453*
107: 0x0DCF [0x45] LOAD_SCHEDULED_TASK: Load scheduler "pem1" with entities [LocalPlayer, LocalPlayer], work=[453*, 0*]
108: 0x0DE0 [0x2A] GET_REQ_LEVEL(level=16, entity_id=LocalPlayer)
109: 0x0DE6 [0x01] GOTO 0x0EDE
110: 0x0DE9 [0x02] IF !(Work_Zone[2] == 4*) GOTO 0x0E1A
111: 0x0DF1 [0x52] END_LOAD_SCHEDULER: End scheduler "p102" with entities [LocalPlayer, LocalPlayer], work=453*
112: 0x0E00 [0x45] LOAD_SCHEDULED_TASK: Load scheduler "pem1" with entities [LocalPlayer, LocalPlayer], work=[453*, 0*]
113: 0x0E11 [0x2A] GET_REQ_LEVEL(level=16, entity_id=LocalPlayer)
114: 0x0E17 [0x01] GOTO 0x0EDE
115: 0x0E1A [0x02] IF !(Work_Zone[2] == 5*) GOTO 0x0E4B
116: 0x0E22 [0x52] END_LOAD_SCHEDULER: End scheduler "p102" with entities [LocalPlayer, LocalPlayer], work=453*
117: 0x0E31 [0x45] LOAD_SCHEDULED_TASK: Load scheduler "ptr1" with entities [LocalPlayer, LocalPlayer], work=[453*, 0*]
118: 0x0E42 [0x2A] GET_REQ_LEVEL(level=16, entity_id=LocalPlayer)
119: 0x0E48 [0x01] GOTO 0x0EDE
120: 0x0E4B [0x02] IF !(Work_Zone[2] == 6*) GOTO 0x0E7C
121: 0x0E53 [0x52] END_LOAD_SCHEDULER: End scheduler "p102" with entities [LocalPlayer, LocalPlayer], work=453*
122: 0x0E62 [0x45] LOAD_SCHEDULED_TASK: Load scheduler "ptr1" with entities [LocalPlayer, LocalPlayer], work=[453*, 0*]
123: 0x0E73 [0x2A] GET_REQ_LEVEL(level=16, entity_id=LocalPlayer)
124: 0x0E79 [0x01] GOTO 0x0EDE
125: 0x0E7C [0x02] IF !(Work_Zone[2] == 7*) GOTO 0x0EAD
126: 0x0E84 [0x52] END_LOAD_SCHEDULER: End scheduler "p102" with entities [LocalPlayer, LocalPlayer], work=453*
127: 0x0E93 [0x45] LOAD_SCHEDULED_TASK: Load scheduler "pmt1" with entities [LocalPlayer, LocalPlayer], work=[453*, 0*]
128: 0x0EA4 [0x2A] GET_REQ_LEVEL(level=16, entity_id=LocalPlayer)
129: 0x0EAA [0x01] GOTO 0x0EDE
130: 0x0EAD [0x02] IF !(Work_Zone[2] == 8*) GOTO 0x0EDE
131: 0x0EB5 [0x52] END_LOAD_SCHEDULER: End scheduler "p102" with entities [LocalPlayer, LocalPlayer], work=453*
132: 0x0EC4 [0x45] LOAD_SCHEDULED_TASK: Load scheduler "pgl1" with entities [LocalPlayer, LocalPlayer], work=[453*, 0*]
133: 0x0ED5 [0x2A] GET_REQ_LEVEL(level=16, entity_id=LocalPlayer)
134: 0x0EDB [0x01] GOTO 0x0EDE

SUBROUTINE_0EDE:
135: 0x0EDE [0x27] REQ_SET(priority=0x10, entity_id=LocalPlayer, tag_num=0x1D)
136: 0x0EE5 [0x1C] WAIT(120* ticks)
137: 0x0EE8 [0x4A] Gissenne (ID: 17105643/0x010502EB) looks at LocalPlayer
138: 0x0EF1 [0x6F] WAIT_FRAME_DELAY: Yield until WaitTime reaches zero
139: 0x0EF2 [0x76] CHECK_ENTITY_RENDER_FLAGS: Wait until Gissenne (ID: 17105643/0x010502EB) Render.Flags0 and Render.Flags3 conditions are met
140: 0x0EF7 [0x5B] LOAD_EXT_SCHEDULER: Load scheduler "gstd" with entities [Gissenne (ID: 17105643/0x010502EB), Gissenne (ID: 17105643/0x010502EB)], work=2891*
141: 0x0F06 [0x1C] WAIT(120* ticks)
142: 0x0F09 [0x52] END_LOAD_SCHEDULER: End scheduler "phm1" with entities [LocalPlayer, LocalPlayer], work=453*
143: 0x0F18 [0x52] END_LOAD_SCHEDULER: End scheduler "pem1" with entities [LocalPlayer, LocalPlayer], work=453*
144: 0x0F27 [0x52] END_LOAD_SCHEDULER: End scheduler "ptr1" with entities [LocalPlayer, LocalPlayer], work=453*
145: 0x0F36 [0x52] END_LOAD_SCHEDULER: End scheduler "pmt1" with entities [LocalPlayer, LocalPlayer], work=453*
146: 0x0F45 [0x52] END_LOAD_SCHEDULER: End scheduler "pgl1" with entities [LocalPlayer, LocalPlayer], work=453*
147: 0x0F54 [0x45] LOAD_SCHEDULED_TASK: Load scheduler "p108" with entities [LocalPlayer, LocalPlayer], work=[453*, 0*]
148: 0x0F65 [0x5B] LOAD_EXT_SCHEDULER: Load scheduler "gtk0" with entities [Gissenne (ID: 17105643/0x010502EB), Gissenne (ID: 17105643/0x010502EB)], work=2890*
149: 0x0F74 [0x27] REQ_SET(priority=0x10, entity_id=LocalPlayer, tag_num=0x1E)
150: 0x0F7B [0x2B] Gissenne (ID: 17105643/0x010502EB) [12341*]:
    → "The lieutenant wishes to have a word, you say?"
151: 0x0F82 [0x23] WAIT_FOR_DIALOG_INTERACTION
152: 0x0F83 [0x5B] LOAD_EXT_SCHEDULER: Load scheduler "gtk1" with entities [Gissenne (ID: 17105643/0x010502EB), Gissenne (ID: 17105643/0x010502EB)], work=2890*
153: 0x0F92 [0x59] UPDATE_ENTITY_DATA: Set Phillieulais (ID: 17105444/0x01050224) main speed = 40* * 0.1
154: 0x0F9A [0x59] UPDATE_ENTITY_DATA: Set Altennia (ID: 17105422/0x0105020E) main speed = 40* * 0.1
155: 0x0FA2 [0x27] REQ_SET(priority=0x10, entity_id=Phillieulais (ID: 17105444/0x01050224), tag_num=0x05)
156: 0x0FA9 [0x1C] WAIT(10* ticks)
157: 0x0FAC [0x27] REQ_SET(priority=0x10, entity_id=Altennia (ID: 17105422/0x0105020E), tag_num=0x18)
158: 0x0FB3 [0x52] END_LOAD_SCHEDULER: End scheduler "p108" with entities [LocalPlayer, LocalPlayer], work=453*
159: 0x0FC2 [0x45] LOAD_SCHEDULED_TASK: Load scheduler "p109" with entities [LocalPlayer, LocalPlayer], work=[453*, 0*]
160: 0x0FD3 [0x66] LOAD_EXT_SCHEDULER_MAIN: Load scheduler "thk2" with entities [Gissenne (ID: 17105643/0x010502EB), Gissenne (ID: 17105643/0x010502EB)], work=39*
161: 0x0FE2 [0x4B] UPDATE_ENTITY_YAW(entity=Gissenne (ID: 17105643/0x010502EB), yaw=18.1°*)
162: 0x0FE9 [0x7B] Gissenne (ID: 17105643/0x010502EB) stops talking
163: 0x0FEE [0x1C] WAIT(120* ticks)
164: 0x0FF1 [0x5B] LOAD_EXT_SCHEDULER: Load scheduler "gstd" with entities [Gissenne (ID: 17105643/0x010502EB), Gissenne (ID: 17105643/0x010502EB)], work=2891*
165: 0x1000 [0x52] END_LOAD_SCHEDULER: End scheduler "p109" with entities [LocalPlayer, LocalPlayer], work=453*
166: 0x100F [0x45] LOAD_SCHEDULED_TASK: Load scheduler "p125" with entities [LocalPlayer, LocalPlayer], work=[453*, 0*]
167: 0x1020 [0x2B] Altennia (ID: 17105422/0x0105020E) [12342*]:
    → "<Player>! Rholont told us we could find you here..."
168: 0x1027 [0x23] WAIT_FOR_DIALOG_INTERACTION
169: 0x1028 [0x52] END_LOAD_SCHEDULER: End scheduler "p125" with entities [LocalPlayer, LocalPlayer], work=453*
170: 0x1037 [0x45] LOAD_SCHEDULED_TASK: Load scheduler "p134" with entities [LocalPlayer, LocalPlayer], work=[453*, 0*]
171: 0x1048 [0x2A] GET_REQ_LEVEL(level=16, entity_id=Altennia (ID: 17105422/0x0105020E))
172: 0x104E [0x4A] Altennia (ID: 17105422/0x0105020E) looks at Gissenne (ID: 17105643/0x010502EB)
173: 0x1057 [0x2B] Altennia (ID: 17105422/0x0105020E) [12343*]:
    → "Ah, Captain! We've been searching for you."
174: 0x105E [0x23] WAIT_FOR_DIALOG_INTERACTION
175: 0x105F [0x6F] WAIT_FRAME_DELAY: Yield until WaitTime reaches zero
176: 0x1060 [0x76] CHECK_ENTITY_RENDER_FLAGS: Wait until Altennia (ID: 17105422/0x0105020E) Render.Flags0 and Render.Flags3 conditions are met
177: 0x1065 [0x52] END_LOAD_SCHEDULER: End scheduler "p134" with entities [LocalPlayer, LocalPlayer], work=453*
178: 0x1074 [0x45] LOAD_SCHEDULED_TASK: Load scheduler "p110" with entities [LocalPlayer, LocalPlayer], work=[453*, 0*]
179: 0x1085 [0x6F] WAIT_FRAME_DELAY: Yield until WaitTime reaches zero
180: 0x1086 [0x76] CHECK_ENTITY_RENDER_FLAGS: Wait until Gissenne (ID: 17105643/0x010502EB) Render.Flags0 and Render.Flags3 conditions are met
181: 0x108B [0x2B] Gissenne (ID: 17105643/0x010502EB) [12344*]:
    → "Squire Altennia."
182: 0x1092 [0x23] WAIT_FOR_DIALOG_INTERACTION
183: 0x1093 [0x2B] Gissenne (ID: 17105643/0x010502EB) [12345*]:
    → "See that you express your thanks to <Player> here."
184: 0x109A [0x23] WAIT_FOR_DIALOG_INTERACTION
185: 0x109B [0x4A] Phillieulais (ID: 17105444/0x01050224) looks at LocalPlayer
186: 0x10A4 [0x52] END_LOAD_SCHEDULER: End scheduler "p110" with entities [LocalPlayer, LocalPlayer], work=453*
187: 0x10B3 [0x45] LOAD_SCHEDULED_TASK: Load scheduler "p131" with entities [LocalPlayer, LocalPlayer], work=[453*, 0*]
188: 0x10C4 [0x7B] LocalPlayer stops talking
189: 0x10C9 [0x4A] Phillieulais (ID: 17105444/0x01050224) looks at Gissenne (ID: 17105643/0x010502EB)
190: 0x10D2 [0x2B] Gissenne (ID: 17105643/0x010502EB) [12346*]:
    → "I had a mind to go to Pikeman's Way to make arrangements for provisions, and am only here still because [he/she] came calling."
191: 0x10D9 [0x23] WAIT_FOR_DIALOG_INTERACTION
192: 0x10DA [0x52] END_LOAD_SCHEDULER: End scheduler "p131" with entities [LocalPlayer, LocalPlayer], work=453*
193: 0x10E9 [0x45] LOAD_SCHEDULED_TASK: Load scheduler "p106" with entities [LocalPlayer, LocalPlayer], work=[453*, 0*]
194: 0x10FA [0x2B] Altennia (ID: 17105422/0x0105020E) [12347*]:
    → "So the chocobos..."
195: 0x1101 [0x23] WAIT_FOR_DIALOG_INTERACTION
196: 0x1102 [0x1C] WAIT(10* ticks)
197: 0x1105 [0x52] END_LOAD_SCHEDULER: End scheduler "p106" with entities [LocalPlayer, LocalPlayer], work=453*
198: 0x1114 [0x45] LOAD_SCHEDULED_TASK: Load scheduler "p112" with entities [LocalPlayer, LocalPlayer], work=[453*, 0*]
199: 0x1125 [0x5B] LOAD_EXT_SCHEDULER: Load scheduler "gtk0" with entities [Gissenne (ID: 17105643/0x010502EB), Gissenne (ID: 17105643/0x010502EB)], work=2890*
200: 0x1134 [0x2B] Gissenne (ID: 17105643/0x010502EB) [12348*]:
    → "Aye, all the healthy mounts needed for the journey have been procured. They're being barded up as we speak."
201: 0x113B [0x23] WAIT_FOR_DIALOG_INTERACTION
202: 0x113C [0x5B] LOAD_EXT_SCHEDULER: Load scheduler "gtk1" with entities [Gissenne (ID: 17105643/0x010502EB), Gissenne (ID: 17105643/0x010502EB)], work=2890*
203: 0x114B [0x52] END_LOAD_SCHEDULER: End scheduler "p112" with entities [LocalPlayer, LocalPlayer], work=453*
204: 0x115A [0x45] LOAD_SCHEDULED_TASK: Load scheduler "p135" with entities [LocalPlayer, LocalPlayer], work=[453*, 0*]
205: 0x116B [0x5B] LOAD_EXT_SCHEDULER: Load scheduler "tlk0" with entities [Altennia (ID: 17105422/0x0105020E), Altennia (ID: 17105422/0x0105020E)], work=1334*
206: 0x117A [0x2B] Altennia (ID: 17105422/0x0105020E) [12349*]:
    → "That's wonderful!"
207: 0x1181 [0x23] WAIT_FOR_DIALOG_INTERACTION
208: 0x1182 [0x52] END_LOAD_SCHEDULER: End scheduler "p135" with entities [LocalPlayer, LocalPlayer], work=453*
209: 0x1191 [0x45] LOAD_SCHEDULED_TASK: Load scheduler "p113" with entities [LocalPlayer, LocalPlayer], work=[453*, 0*]
210: 0x11A2 [0x5B] LOAD_EXT_SCHEDULER: Load scheduler "tlk1" with entities [Altennia (ID: 17105422/0x0105020E), Altennia (ID: 17105422/0x0105020E)], work=1334*
211: 0x11B1 [0x4B] UPDATE_ENTITY_YAW(entity=Gissenne (ID: 17105643/0x010502EB), yaw=19.9°*)
212: 0x11B8 [0x66] LOAD_EXT_SCHEDULER_MAIN: Load scheduler "tlk0" with entities [Phillieulais (ID: 17105444/0x01050224), Phillieulais (ID: 17105444/0x01050224)], work=29*
213: 0x11C7 [0x2B] Phillieulais (ID: 17105444/0x01050224) [12350*]:
    → "That is welcome tidings indeed. For we may have need of them sooner than planned."
214: 0x11CE [0x23] WAIT_FOR_DIALOG_INTERACTION
215: 0x11CF [0x5B] LOAD_EXT_SCHEDULER: Load scheduler "gstd" with entities [Gissenne (ID: 17105643/0x010502EB), Gissenne (ID: 17105643/0x010502EB)], work=2891*
216: 0x11DE [0x52] END_LOAD_SCHEDULER: End scheduler "p113" with entities [LocalPlayer, LocalPlayer], work=453*
217: 0x11ED [0x45] LOAD_SCHEDULED_TASK: Load scheduler "p114" with entities [LocalPlayer, LocalPlayer], work=[453*, 0*]
218: 0x11FE [0x66] LOAD_EXT_SCHEDULER_MAIN: Load scheduler "tlk1" with entities [Phillieulais (ID: 17105444/0x01050224), Phillieulais (ID: 17105444/0x01050224)], work=29*
219: 0x120D [0x2B] Gissenne (ID: 17105643/0x010502EB) [12351*]:
    → "I presume 'tis for that reason you wish a word with me, Lieutenant."
220: 0x1214 [0x23] WAIT_FOR_DIALOG_INTERACTION
221: 0x1215 [0x52] END_LOAD_SCHEDULER: End scheduler "p114" with entities [LocalPlayer, LocalPlayer], work=453*
222: 0x1224 [0x45] LOAD_SCHEDULED_TASK: Load scheduler "p115" with entities [LocalPlayer, LocalPlayer], work=[453*, 0*]
223: 0x1235 [0x4A] Altennia (ID: 17105422/0x0105020E) looks at Phillieulais (ID: 17105444/0x01050224)
224: 0x123E [0x6E] Phillieulais (ID: 17105444/0x01050224) uses emote 7*
225: 0x1245 [0x99] Wait for Phillieulais (ID: 17105444/0x01050224) animation to complete
226: 0x124A [0x2B] Phillieulais (ID: 17105444/0x01050224) [12352*]:
    → "Your perceptiveness serves you well, Captain Gissenne. Indeed, in the black of morn, a royal messenger delivered word of an enemy spotting--a large beastman host passing through Batallia Downs at speed."
227: 0x1251 [0x23] WAIT_FOR_DIALOG_INTERACTION
228: 0x1252 [0x6F] WAIT_FRAME_DELAY: Yield until WaitTime reaches zero
229: 0x1253 [0x76] CHECK_ENTITY_RENDER_FLAGS: Wait until Altennia (ID: 17105422/0x0105020E) Render.Flags0 and Render.Flags3 conditions are met
230: 0x1258 [0x52] END_LOAD_SCHEDULER: End scheduler "p115" with entities [LocalPlayer, LocalPlayer], work=453*
231: 0x1267 [0x45] LOAD_SCHEDULED_TASK: Load scheduler "p105" with entities [LocalPlayer, LocalPlayer], work=[453*, 0*]
232: 0x1278 [0x2B] Altennia (ID: 17105422/0x0105020E) [12353*]:
    → "Batallia Downs?"
233: 0x127F [0x23] WAIT_FOR_DIALOG_INTERACTION
234: 0x1280 [0x52] END_LOAD_SCHEDULER: End scheduler "p105" with entities [LocalPlayer, LocalPlayer], work=453*
235: 0x128F [0x45] LOAD_SCHEDULED_TASK: Load scheduler "p116" with entities [LocalPlayer, LocalPlayer], work=[453*, 0*]
236: 0x12A0 [0x2B] Gissenne (ID: 17105643/0x010502EB) [12354*]:
    → "But has the region not already been swept clean of beastman presence? Elsewise, the enemy's objective is..."
237: 0x12A7 [0x23] WAIT_FOR_DIALOG_INTERACTION
238: 0x12A8 [0x52] END_LOAD_SCHEDULER: End scheduler "p116" with entities [LocalPlayer, LocalPlayer], work=453*
239: 0x12B7 [0x45] LOAD_SCHEDULED_TASK: Load scheduler "p117" with entities [LocalPlayer, LocalPlayer], work=[453*, 0*]
240: 0x12C8 [0x2B] Phillieulais (ID: 17105444/0x01050224) [12355*]:
    → "...The sparsely defended rearguard of our Xarcabard-bound host, yes. As much as I fear it, few explanations make for a better fit."
241: 0x12CF [0x23] WAIT_FOR_DIALOG_INTERACTION
242: 0x12D0 [0x52] END_LOAD_SCHEDULER: End scheduler "p117" with entities [LocalPlayer, LocalPlayer], work=453*
243: 0x12DF [0x45] LOAD_SCHEDULED_TASK: Load scheduler "p111" with entities [LocalPlayer, LocalPlayer], work=[453*, 0*]
244: 0x12F0 [0x4A] Altennia (ID: 17105422/0x0105020E) looks at Gissenne (ID: 17105643/0x010502EB)
245: 0x12F9 [0x2B] Gissenne (ID: 17105643/0x010502EB) [12356*]:
    → "...Very well. A change of plans, then, for the Carmine Swallows. Departure shall be pushed forward to the earliest hour possible."
246: 0x1300 [0x23] WAIT_FOR_DIALOG_INTERACTION
247: 0x1301 [0x6F] WAIT_FRAME_DELAY: Yield until WaitTime reaches zero
248: 0x1302 [0x76] CHECK_ENTITY_RENDER_FLAGS: Wait until Altennia (ID: 17105422/0x0105020E) Render.Flags0 and Render.Flags3 conditions are met
249: 0x1307 [0x52] END_LOAD_SCHEDULER: End scheduler "p111" with entities [LocalPlayer, LocalPlayer], work=453*
250: 0x1316 [0x45] LOAD_SCHEDULED_TASK: Load scheduler "p118" with entities [LocalPlayer, LocalPlayer], work=[453*, 0*]
251: 0x1327 [0x79] Gissenne (ID: 17105643/0x010502EB) looks at Altennia (ID: 17105422/0x0105020E) (Basic look)
252: 0x1331 [0x5B] LOAD_EXT_SCHEDULER: Load scheduler "gtk0" with entities [Gissenne (ID: 17105643/0x010502EB), Gissenne (ID: 17105643/0x010502EB)], work=2890*
253: 0x1340 [0x2B] Gissenne (ID: 17105643/0x010502EB) [12357*]:
    → "We shall strike out for Beaucedine and lie in wait to intercept the beastmen. Altennia, relay the news to all squires and have them make ready to march immediately."
254: 0x1347 [0x23] WAIT_FOR_DIALOG_INTERACTION
255: 0x1348 [0x5B] LOAD_EXT_SCHEDULER: Load scheduler "gtk1" with entities [Gissenne (ID: 17105643/0x010502EB), Gissenne (ID: 17105643/0x010502EB)], work=2890*
256: 0x1357 [0x52] END_LOAD_SCHEDULER: End scheduler "p118" with entities [LocalPlayer, LocalPlayer], work=453*
257: 0x1366 [0x45] LOAD_SCHEDULED_TASK: Load scheduler "p119" with entities [LocalPlayer, LocalPlayer], work=[453*, 0*]
258: 0x1377 [0x79] Gissenne (ID: 17105643/0x010502EB) looks at Phillieulais (ID: 17105444/0x01050224) (Basic look)
259: 0x1381 [0x6C] FADE_ENTITY_COLOR(entity_id=LocalPlayer, end_alpha=128*, fade_time=1*)
260: 0x138A [0x2B] Altennia (ID: 17105422/0x0105020E) [12358*]:
    → "Yes, ma'am!"
261: 0x1391 [0x23] WAIT_FOR_DIALOG_INTERACTION
262: 0x1392 [0x27] REQ_SET(priority=0x10, entity_id=Altennia (ID: 17105422/0x0105020E), tag_num=0x19)
263: 0x1399 [0x1C] WAIT(10* ticks)
264: 0x139C [0x52] END_LOAD_SCHEDULER: End scheduler "p119" with entities [LocalPlayer, LocalPlayer], work=453*
265: 0x13AB [0x45] LOAD_SCHEDULED_TASK: Load scheduler "p120" with entities [LocalPlayer, LocalPlayer], work=[453*, 0*]
266: 0x13BC [0x4A] Gissenne (ID: 17105643/0x010502EB) looks at LocalPlayer
267: 0x13C5 [0x1C] WAIT(120* ticks)
268: 0x13C8 [0x52] END_LOAD_SCHEDULER: End scheduler "p120" with entities [LocalPlayer, LocalPlayer], work=453*
269: 0x13D7 [0x45] LOAD_SCHEDULED_TASK: Load scheduler "p127" with entities [LocalPlayer, LocalPlayer], work=[453*, 0*]
270: 0x13E8 [0x4E] SET_ENTITY_HIDE_FLAG: Hide Altennia (ID: 17105422/0x0105020E)
271: 0x13EE [0x5B] LOAD_EXT_SCHEDULER: Load scheduler "gtk0" with entities [Gissenne (ID: 17105643/0x010502EB), Gissenne (ID: 17105643/0x010502EB)], work=2890*
272: 0x13FD [0x4A] Phillieulais (ID: 17105444/0x01050224) looks at LocalPlayer
273: 0x1406 [0x2B] Gissenne (ID: 17105643/0x010502EB) [12359*]:
    → "<Player>. You are a close acquaintance of Altennia, I take it, and a formidable soldier withal, if my eyes tell me true. The Carmine Swallows would have the honor of your company on this operation."
274: 0x140D [0x23] WAIT_FOR_DIALOG_INTERACTION
275: 0x140E [0x5B] LOAD_EXT_SCHEDULER: Load scheduler "gtk1" with entities [Gissenne (ID: 17105643/0x010502EB), Gissenne (ID: 17105643/0x010502EB)], work=2890*
276: 0x141D [0x1C] WAIT(10* ticks)
277: 0x1420 [0x52] END_LOAD_SCHEDULER: End scheduler "p127" with entities [LocalPlayer, LocalPlayer], work=453*
