# 17105252 - Maat

## Common Data

| Field            | Value                            |
|------------------|----------------------------------|
| Zone             | Southern San d'Oria [S] (ID: 80) |
| Block Size       | 296 bytes                        |
| Total Events     | 2                                |
| References Count | 8                                |

## List of Events

| Event ID              | Entrypoint   |   Size |   Instructions |
|-----------------------|--------------|--------|----------------|
| [65535](#event-65535) | 0x0000       |      1 |              1 |
| [504](#event-504)     | 0x0001       |    238 |             64 |

## DAT References (imed_data)

|   Index | Hex Value   |   Dec Value |
|---------|-------------|-------------|
|       0 | 0x0000      |           0 |
|       1 | 0x2BF6      |       11254 |
|       2 | 0x0001      |           1 |
|       3 | 0x2BF7      |       11255 |
|       4 | 0x0002      |           2 |
|       5 | 0x2BF8      |       11256 |
|       6 | 0x0003      |           3 |
|       7 | 0x2BF9      |       11257 |

## String References

- **11254**: Heh heh heh. Listen! You can hear it, right? It's the sound of my blood-a-boiling!
- **11255**: I bet a young whippersnapper like yourself thinks [he/she]'s got what it takes to rough up a beastman or two, eh? From what I see, you still have a few more mountains to climb, [sonny/missy]!
- **11256**: Well, I'll be! You look a little young to have gone through so much training. Must've had a good teacher, heh heh heh!
- **11257**: What's this...? Interesting... No, no. I'm sorry, youngster. I don't have the time for that now. But maybe someday when this war is over we can--

## Events

### Event 65535

#### Metadata

| Field        | Value   |
|--------------|---------|
| Entrypoint   | 0x0000  |
| Data Size    | 1 bytes |
| Instructions | 1       |

```
      00 01 02 03 04 05 06 07  08 09 0A 0B 0C 0D 0E 0F
      -- -- -- -- -- -- -- --  -- -- -- -- -- -- -- --
0000: 00                                                .               
```

#### Opcodes

```
  0: 0x0000 [0x00] END_REQSTACK()
```

### Event 504

#### Metadata

| Field        | Value     |
|--------------|-----------|
| Entrypoint   | 0x0001    |
| Data Size    | 238 bytes |
| Instructions | 64        |

```
      00 01 02 03 04 05 06 07  08 09 0A 0B 0C 0D 0E 0F
      -- -- -- -- -- -- -- --  -- -- -- -- -- -- -- --
0000:    20 01 42 1E F0 FF FF  7F 03 00 00 02 10 03 01    .B............
0010: 00 03 10 03 02 00 04 10  03 03 00 05 10 02 00 00  ................
0020: 00 80 00 E7 00 02 03 00  00 80 80 34 00 1D 01 80  ...........4....
0030: 23 01 E4 00 02 03 00 02  80 80 D5 00 02 01 00 00  #...............
0040: 80 80 4B 00 1D 01 80 23  01 D2 00 02 01 00 02 80  ..K....#........
0050: 80 78 00 02 02 00 02 80  00 62 00 1D 03 80 23 01  .x.......b....#.
0060: 75 00 02 02 00 04 80 00  71 00 1D 05 80 23 01 75  u.......q....#.u
0070: 00 1D 01 80 23 01 D2 00  02 01 00 04 80 80 A5 00  ....#...........
0080: 02 02 00 02 80 00 8F 00  1D 03 80 23 01 A2 00 02  ...........#....
0090: 02 00 04 80 00 9E 00 1D  05 80 23 01 A2 00 1D 01  ..........#.....
00A0: 80 23 01 D2 00 02 01 00  06 80 80 D2 00 02 02 00  .#..............
00B0: 02 80 00 BC 00 1D 03 80  23 01 CF 00 02 02 00 04  ........#.......
00C0: 80 00 CB 00 1D 05 80 23  01 CF 00 1D 01 80 23 01  .......#......#.
00D0: D2 00 01 E4 00 02 03 00  04 80 80 E4 00 1D 07 80  ................
00E0: 23 01 E4 00 01 EB 00 1D  01 80 23 20 00 21 00     #.........# .!. 
```

#### Opcodes

```
  0: 0x0001 [0x20] SET_CLI_EVENT_UC_FLAG: Lock player control
  1: 0x0003 [0x42] SET_CLI_EVENT_CANCEL_DATA()
  2: 0x0004 [0x1E] EventEntity looks at LocalPlayer and starts talking
  3: 0x0009 [0x03] ExtData[1]->WorkLocal[0] = Work_Zone[2]
  4: 0x000E [0x03] ExtData[1]->WorkLocal[1] = Work_Zone[3]
  5: 0x0013 [0x03] ExtData[1]->WorkLocal[2] = Work_Zone[4]
  6: 0x0018 [0x03] ExtData[1]->WorkLocal[3] = Work_Zone[5]
  7: 0x001D [0x02] IF !(ExtData[1]->WorkLocal[0] == 0*) GOTO 0x00E7
  8: 0x0025 [0x02] IF !(ExtData[1]->WorkLocal[3] == 0*) GOTO 0x0034
  9: 0x002D [0x1D] PRINT_EVENT_MESSAGE(message_id=11254*)
    → "Heh heh heh. Listen! You can hear it, right? It's the sound of my blood-a-boiling!"
 10: 0x0030 [0x23] WAIT_FOR_DIALOG_INTERACTION
 11: 0x0031 [0x01] GOTO 0x00E4
 12: 0x0034 [0x02] IF !(ExtData[1]->WorkLocal[3] == 1*) GOTO 0x00D5
 13: 0x003C [0x02] IF !(ExtData[1]->WorkLocal[1] == 0*) GOTO 0x004B
 14: 0x0044 [0x1D] PRINT_EVENT_MESSAGE(message_id=11254*)
    → "Heh heh heh. Listen! You can hear it, right? It's the sound of my blood-a-boiling!"
 15: 0x0047 [0x23] WAIT_FOR_DIALOG_INTERACTION
 16: 0x0048 [0x01] GOTO 0x00D2
 17: 0x004B [0x02] IF !(ExtData[1]->WorkLocal[1] == 1*) GOTO 0x0078
 18: 0x0053 [0x02] IF !(ExtData[1]->WorkLocal[2] == 1*) GOTO 0x0062
 19: 0x005B [0x1D] PRINT_EVENT_MESSAGE(message_id=11255*)
    → "I bet a young whippersnapper like yourself thinks [he/she]'s got what it takes to rough up a beastman or two, eh? From what I see, you still have a few more mountains to climb, [sonny/missy]!"
 20: 0x005E [0x23] WAIT_FOR_DIALOG_INTERACTION
 21: 0x005F [0x01] GOTO 0x0075
 22: 0x0062 [0x02] IF !(ExtData[1]->WorkLocal[2] == 2*) GOTO 0x0071
 23: 0x006A [0x1D] PRINT_EVENT_MESSAGE(message_id=11256*)
    → "Well, I'll be! You look a little young to have gone through so much training. Must've had a good teacher, heh heh heh!"
 24: 0x006D [0x23] WAIT_FOR_DIALOG_INTERACTION
 25: 0x006E [0x01] GOTO 0x0075
 26: 0x0071 [0x1D] PRINT_EVENT_MESSAGE(message_id=11254*)
    → "Heh heh heh. Listen! You can hear it, right? It's the sound of my blood-a-boiling!"
 27: 0x0074 [0x23] WAIT_FOR_DIALOG_INTERACTION

SUBROUTINE_0075:
 28: 0x0075 [0x01] GOTO 0x00D2
 29: 0x0078 [0x02] IF !(ExtData[1]->WorkLocal[1] == 2*) GOTO 0x00A5
 30: 0x0080 [0x02] IF !(ExtData[1]->WorkLocal[2] == 1*) GOTO 0x008F
 31: 0x0088 [0x1D] PRINT_EVENT_MESSAGE(message_id=11255*)
    → "I bet a young whippersnapper like yourself thinks [he/she]'s got what it takes to rough up a beastman or two, eh? From what I see, you still have a few more mountains to climb, [sonny/missy]!"
 32: 0x008B [0x23] WAIT_FOR_DIALOG_INTERACTION
 33: 0x008C [0x01] GOTO 0x00A2
 34: 0x008F [0x02] IF !(ExtData[1]->WorkLocal[2] == 2*) GOTO 0x009E
 35: 0x0097 [0x1D] PRINT_EVENT_MESSAGE(message_id=11256*)
    → "Well, I'll be! You look a little young to have gone through so much training. Must've had a good teacher, heh heh heh!"
 36: 0x009A [0x23] WAIT_FOR_DIALOG_INTERACTION
 37: 0x009B [0x01] GOTO 0x00A2
 38: 0x009E [0x1D] PRINT_EVENT_MESSAGE(message_id=11254*)
    → "Heh heh heh. Listen! You can hear it, right? It's the sound of my blood-a-boiling!"
 39: 0x00A1 [0x23] WAIT_FOR_DIALOG_INTERACTION

SUBROUTINE_00A2:
 40: 0x00A2 [0x01] GOTO 0x00D2
 41: 0x00A5 [0x02] IF !(ExtData[1]->WorkLocal[1] == 3*) GOTO 0x00D2
 42: 0x00AD [0x02] IF !(ExtData[1]->WorkLocal[2] == 1*) GOTO 0x00BC
 43: 0x00B5 [0x1D] PRINT_EVENT_MESSAGE(message_id=11255*)
    → "I bet a young whippersnapper like yourself thinks [he/she]'s got what it takes to rough up a beastman or two, eh? From what I see, you still have a few more mountains to climb, [sonny/missy]!"
 44: 0x00B8 [0x23] WAIT_FOR_DIALOG_INTERACTION
 45: 0x00B9 [0x01] GOTO 0x00CF
 46: 0x00BC [0x02] IF !(ExtData[1]->WorkLocal[2] == 2*) GOTO 0x00CB
 47: 0x00C4 [0x1D] PRINT_EVENT_MESSAGE(message_id=11256*)
    → "Well, I'll be! You look a little young to have gone through so much training. Must've had a good teacher, heh heh heh!"
 48: 0x00C7 [0x23] WAIT_FOR_DIALOG_INTERACTION
 49: 0x00C8 [0x01] GOTO 0x00CF
 50: 0x00CB [0x1D] PRINT_EVENT_MESSAGE(message_id=11254*)
    → "Heh heh heh. Listen! You can hear it, right? It's the sound of my blood-a-boiling!"
 51: 0x00CE [0x23] WAIT_FOR_DIALOG_INTERACTION

SUBROUTINE_00CF:
 52: 0x00CF [0x01] GOTO 0x00D2

SUBROUTINE_00D2:
 53: 0x00D2 [0x01] GOTO 0x00E4
 54: 0x00D5 [0x02] IF !(ExtData[1]->WorkLocal[3] == 2*) GOTO 0x00E4
 55: 0x00DD [0x1D] PRINT_EVENT_MESSAGE(message_id=11257*)
    → "What's this...? Interesting... No, no. I'm sorry, youngster. I don't have the time for that now. But maybe someday when this war is over we can--"
 56: 0x00E0 [0x23] WAIT_FOR_DIALOG_INTERACTION
 57: 0x00E1 [0x01] GOTO 0x00E4

SUBROUTINE_00E4:
 58: 0x00E4 [0x01] GOTO 0x00EB
 59: 0x00E7 [0x1D] PRINT_EVENT_MESSAGE(message_id=11254*)
    → "Heh heh heh. Listen! You can hear it, right? It's the sound of my blood-a-boiling!"
 60: 0x00EA [0x23] WAIT_FOR_DIALOG_INTERACTION

SUBROUTINE_00EB:
 61: 0x00EB [0x20] SET_CLI_EVENT_UC_FLAG: Unlock player control
 62: 0x00ED [0x21] END_EVENT
 63: 0x00EE [0x00] END_REQSTACK()
```
