# 17105650

## Common Data

| Field            | Value                            |
|------------------|----------------------------------|
| Zone             | Southern San d'Oria [S] (ID: 80) |
| Block Size       | 25060 bytes                      |
| Total Events     | 34                               |
| References Count | 460                              |

## List of Events

| Event ID              | Entrypoint   |   Size |   Instructions |
|-----------------------|--------------|--------|----------------|
| [65535](#event-65535) | 0x0000       |      1 |              1 |
| [148](#event-148)     | 0x0001       |   1093 |            150 |
| [139](#event-139)     | 0x0446       |     42 |             10 |
| [140](#event-140)     | 0x0470       |     42 |             10 |
| [141](#event-141)     | 0x049A       |     42 |             10 |
| [142](#event-142)     | 0x04C4       |     37 |              9 |
| [143](#event-143)     | 0x04E9       |     42 |             10 |
| [115](#event-115)     | 0x0513       |     55 |             13 |
| [116](#event-116)     | 0x054A       |     55 |             13 |
| [117](#event-117)     | 0x0581       |     45 |             11 |
| [118](#event-118)     | 0x05AE       |     78 |             18 |
| [119](#event-119)     | 0x05FC       |     53 |             13 |
| [120](#event-120)     | 0x0631       |     45 |             11 |
| [121](#event-121)     | 0x065E       |     45 |             11 |
| [122](#event-122)     | 0x068B       |     53 |             13 |
| [123](#event-123)     | 0x06C0       |     53 |             13 |
| [124](#event-124)     | 0x06F5       |     53 |             13 |
| [125](#event-125)     | 0x072A       |    898 |            132 |
| [126](#event-126)     | 0x0AAC       |    836 |            135 |
| [127](#event-127)     | 0x0DF0       |    936 |            150 |
| [128](#event-128)     | 0x1198       |   1081 |            177 |
| [129](#event-129)     | 0x15D1       |     50 |             12 |
| [133](#event-133)     | 0x1603       |     37 |              9 |
| [130](#event-130)     | 0x1628       |     63 |             15 |
| [134](#event-134)     | 0x1667       |     29 |              7 |
| [131](#event-131)     | 0x1684       |     66 |             16 |
| [135](#event-135)     | 0x16C6       |     37 |              9 |
| [132](#event-132)     | 0x16EB       |     58 |             14 |
| [136](#event-136)     | 0x1725       |    122 |             26 |
| [137](#event-137)     | 0x179F       |    332 |             51 |
| [144](#event-144)     | 0x18EB       |   5654 |            683 |
| [138](#event-138)     | 0x2F01       |   6016 |            723 |
| [150](#event-150)     | 0x4681       |     57 |             13 |
| [176](#event-176)     | 0x46BA       |   4962 |            526 |

## DAT References (imed_data)

|   Index | Hex Value   |   Dec Value |
|---------|-------------|-------------|
|       0 | 0x0013      |          19 |
|       1 | 0x03D5      |         981 |
|       2 | 0xA34F      |       41807 |
|       3 | 0xFFFFF830  |  4294965296 |
|       4 | 0x0DFF      |        3583 |
|       5 | 0xFFFFF264  |  4294963812 |
|       6 | 0xACC3      |       44227 |
|       7 | 0xFFFFF831  |  4294965297 |
|       8 | 0x0415      |        1045 |
|       9 | 0x0FBC      |        4028 |
|      10 | 0xADB0      |       44464 |
|      11 | 0x0445      |        1093 |
|      12 | 0xAE85      |       44677 |
|      13 | 0x0E2D      |        3629 |
|      14 | 0xFFFFFF3E  |  4294967102 |
|      15 | 0xACE4      |       44260 |
|      16 | 0x0C1A      |        3098 |
|      17 | 0x0000      |           0 |
|      18 | 0x001E      |          30 |
|      19 | 0x01F5      |         501 |
|      20 | 0x0002      |           2 |
|      21 | 0x376E      |       14190 |
|      22 | 0x0080      |         128 |
|      23 | 0x00B4      |         180 |
|      24 | 0x376F      |       14191 |
|      25 | 0x001D      |          29 |
|      26 | 0x3770      |       14192 |
|      27 | 0x005A      |          90 |
|      28 | 0x3771      |       14193 |
|      29 | 0x0001      |           1 |
|      30 | 0x3772      |       14194 |
|      31 | 0x3773      |       14195 |
|      32 | 0x0964      |        2404 |
|      33 | 0x3774      |       14196 |
|      34 | 0x0078      |         120 |
|      35 | 0x06AF      |        1711 |
|      36 | 0x0064      |         100 |
|      37 | 0x02EB      |         747 |
|      38 | 0x0050      |          80 |
|      39 | 0x0AB8      |        2744 |
|      40 | 0x0028      |          40 |
|      41 | 0x0A91      |        2705 |
|      42 | 0x0AB7      |        2743 |
|      43 | 0x3775      |       14197 |
|      44 | 0x0007      |           7 |
|      45 | 0x3776      |       14198 |
|      46 | 0x3777      |       14199 |
|      47 | 0x3778      |       14200 |
|      48 | 0x3779      |       14201 |
|      49 | 0x00C8      |         200 |
|      50 | 0x0006      |           6 |
|      51 | 0x11C1      |        4545 |
|      52 | 0x3728      |       14120 |
|      53 | 0x43B8      |       17336 |
|      54 | 0x372F      |       14127 |
|      55 | 0x0020      |          32 |
|      56 | 0x1648      |        5704 |
|      57 | 0x3735      |       14133 |
|      58 | 0x0016      |          22 |
|      59 | 0x373C      |       14140 |
|      60 | 0x0019      |          25 |
|      61 | 0x09D9      |        2521 |
|      62 | 0x3746      |       14150 |
|      63 | 0x36C6      |       14022 |
|      64 | 0x36C7      |       14023 |
|      65 | 0x36C8      |       14024 |
|      66 | 0x36C9      |       14025 |
|      67 | 0x36CA      |       14026 |
|      68 | 0x36CB      |       14027 |
|      69 | 0x36CC      |       14028 |
|      70 | 0x36CD      |       14029 |
|      71 | 0x36CE      |       14030 |
|      72 | 0x36CF      |       14031 |
|      73 | 0x36D0      |       14032 |
|      74 | 0x36D1      |       14033 |
|      75 | 0x36D2      |       14034 |
|      76 | 0x36D3      |       14035 |
|      77 | 0x36D4      |       14036 |
|      78 | 0x36D5      |       14037 |
|      79 | 0x36D6      |       14038 |
|      80 | 0x36D7      |       14039 |
|      81 | 0x36D8      |       14040 |
|      82 | 0x36D9      |       14041 |
|      83 | 0x36DA      |       14042 |
|      84 | 0x36DB      |       14043 |
|      85 | 0x36DC      |       14044 |
|      86 | 0x36DD      |       14045 |
|      87 | 0x36DE      |       14046 |
|      88 | 0x36DF      |       14047 |
|      89 | 0x36E0      |       14048 |
|      90 | 0x36E1      |       14049 |
|      91 | 0x36E2      |       14050 |
|      92 | 0x36E3      |       14051 |
|      93 | 0x36E4      |       14052 |
|      94 | 0x36E5      |       14053 |
|      95 | 0x36E6      |       14054 |
|      96 | 0x36E7      |       14055 |
|      97 | 0x36E8      |       14056 |
|      98 | 0x17504     |       95492 |
|      99 | 0xC925      |       51493 |
|     100 | 0x0F9F      |        3999 |
|     101 | 0x086D      |        2157 |
|     102 | 0x16D46     |       93510 |
|     103 | 0xCA20      |       51744 |
|     104 | 0x0249      |         585 |
|     105 | 0x36E9      |       14057 |
|     106 | 0x0014      |          20 |
|     107 | 0x36EA      |       14058 |
|     108 | 0x36EB      |       14059 |
|     109 | 0x36EC      |       14060 |
|     110 | 0x36ED      |       14061 |
|     111 | 0x0015      |          21 |
|     112 | 0x36EE      |       14062 |
|     113 | 0x36EF      |       14063 |
|     114 | 0x0003      |           3 |
|     115 | 0x0004      |           4 |
|     116 | 0x0005      |           5 |
|     117 | 0x36F0      |       14064 |
|     118 | 0x36F1      |       14065 |
|     119 | 0x0008      |           8 |
|     120 | 0x0009      |           9 |
|     121 | 0x36F3      |       14067 |
|     122 | 0x36F4      |       14068 |
|     123 | 0x00D2      |         210 |
|     124 | 0x36F5      |       14069 |
|     125 | 0x36F2      |       14066 |
|     126 | 0x312C      |       12588 |
|     127 | 0x05FA      |        1530 |
|     128 | 0x0835      |        2101 |
|     129 | 0x0C3A      |        3130 |
|     130 | 0x323B      |       12859 |
|     131 | 0x0EE4      |        3812 |
|     132 | 0x0327      |         807 |
|     133 | 0x36F6      |       14070 |
|     134 | 0x36F7      |       14071 |
|     135 | 0x36F8      |       14072 |
|     136 | 0x003C      |          60 |
|     137 | 0x36F9      |       14073 |
|     138 | 0x36FA      |       14074 |
|     139 | 0x36FB      |       14075 |
|     140 | 0x36FC      |       14076 |
|     141 | 0x36FD      |       14077 |
|     142 | 0x36FE      |       14078 |
|     143 | 0x3700      |       14080 |
|     144 | 0x3701      |       14081 |
|     145 | 0x3702      |       14082 |
|     146 | 0x3703      |       14083 |
|     147 | 0x36FF      |       14079 |
|     148 | 0xFFFEC31B  |  4294886171 |
|     149 | 0xFFFFABDB  |  4294945755 |
|     150 | 0xFFFFE31A  |  4294959898 |
|     151 | 0x006A      |         106 |
|     152 | 0xFFFECD90  |  4294888848 |
|     153 | 0xFFFFA9D7  |  4294945239 |
|     154 | 0xFFFFE18A  |  4294959498 |
|     155 | 0x0F52      |        3922 |
|     156 | 0x3704      |       14084 |
|     157 | 0x3705      |       14085 |
|     158 | 0x3706      |       14086 |
|     159 | 0x3707      |       14087 |
|     160 | 0x3708      |       14088 |
|     161 | 0x3709      |       14089 |
|     162 | 0x370A      |       14090 |
|     163 | 0x370B      |       14091 |
|     164 | 0x370C      |       14092 |
|     165 | 0x000A      |          10 |
|     166 | 0x000B      |          11 |
|     167 | 0x000C      |          12 |
|     168 | 0x370E      |       14094 |
|     169 | 0x370F      |       14095 |
|     170 | 0x370D      |       14093 |
|     171 | 0xFFFE2F0C  |  4294848268 |
|     172 | 0x1660B     |       91659 |
|     173 | 0xFFFFE890  |  4294961296 |
|     174 | 0x09F9      |        2553 |
|     175 | 0xFFFE24CC  |  4294845644 |
|     176 | 0x16CF7     |       93431 |
|     177 | 0xFFFFE891  |  4294961297 |
|     178 | 0x3710      |       14096 |
|     179 | 0x3711      |       14097 |
|     180 | 0x3712      |       14098 |
|     181 | 0x3713      |       14099 |
|     182 | 0x3714      |       14100 |
|     183 | 0x3715      |       14101 |
|     184 | 0x3716      |       14102 |
|     185 | 0x3717      |       14103 |
|     186 | 0x3718      |       14104 |
|     187 | 0x3719      |       14105 |
|     188 | 0x371A      |       14106 |
|     189 | 0x0010      |          16 |
|     190 | 0x371B      |       14107 |
|     191 | 0x371C      |       14108 |
|     192 | 0x371D      |       14109 |
|     193 | 0x371E      |       14110 |
|     194 | 0x000D      |          13 |
|     195 | 0x000E      |          14 |
|     196 | 0x371F      |       14111 |
|     197 | 0x3720      |       14112 |
|     198 | 0x3721      |       14113 |
|     199 | 0x000F      |          15 |
|     200 | 0x0011      |          17 |
|     201 | 0x0012      |          18 |
|     202 | 0x3723      |       14115 |
|     203 | 0x3724      |       14116 |
|     204 | 0x3722      |       14114 |
|     205 | 0x3725      |       14117 |
|     206 | 0x3726      |       14118 |
|     207 | 0x3727      |       14119 |
|     208 | 0x3729      |       14121 |
|     209 | 0x372A      |       14122 |
|     210 | 0x372B      |       14123 |
|     211 | 0x372C      |       14124 |
|     212 | 0x372D      |       14125 |
|     213 | 0x372E      |       14126 |
|     214 | 0x3730      |       14128 |
|     215 | 0x3731      |       14129 |
|     216 | 0x3732      |       14130 |
|     217 | 0x3733      |       14131 |
|     218 | 0x3734      |       14132 |
|     219 | 0x3736      |       14134 |
|     220 | 0x3737      |       14135 |
|     221 | 0x3738      |       14136 |
|     222 | 0x3739      |       14137 |
|     223 | 0x4110      |       16656 |
|     224 | 0x373A      |       14138 |
|     225 | 0x373B      |       14139 |
|     226 | 0x022A      |         554 |
|     227 | 0x09CE      |        2510 |
|     228 | 0x09CF      |        2511 |
|     229 | 0x373D      |       14141 |
|     230 | 0x373E      |       14142 |
|     231 | 0x373F      |       14143 |
|     232 | 0x3740      |       14144 |
|     233 | 0x002B      |          43 |
|     234 | 0xFFFFB26E  |  4294947438 |
|     235 | 0x07CF      |        1999 |
|     236 | 0x040A      |        1034 |
|     237 | 0xFFFFAA0A  |  4294945290 |
|     238 | 0x0C03      |        3075 |
|     239 | 0x3741      |       14145 |
|     240 | 0x3742      |       14146 |
|     241 | 0x3743      |       14147 |
|     242 | 0x3744      |       14148 |
|     243 | 0x0096      |         150 |
|     244 | 0x3745      |       14149 |
|     245 | 0x1408      |        5128 |
|     246 | 0xFFFFA959  |  4294945113 |
|     247 | 0x07F2      |        2034 |
|     248 | 0xFFFFBDCE  |  4294950350 |
|     249 | 0x126D      |        4717 |
|     250 | 0xFFFFB32C  |  4294947628 |
|     251 | 0xFFFFC601  |  4294952449 |
|     252 | 0x1401      |        5121 |
|     253 | 0xFFFFBD24  |  4294950180 |
|     254 | 0xFFFFC916  |  4294953238 |
|     255 | 0x3747      |       14151 |
|     256 | 0x3748      |       14152 |
|     257 | 0x00D8      |         216 |
|     258 | 0x3749      |       14153 |
|     259 | 0x374F      |       14159 |
|     260 | 0x3750      |       14160 |
|     261 | 0x3751      |       14161 |
|     262 | 0x3752      |       14162 |
|     263 | 0x0079      |         121 |
|     264 | 0x3753      |       14163 |
|     265 | 0x3754      |       14164 |
|     266 | 0x3755      |       14165 |
|     267 | 0x3756      |       14166 |
|     268 | 0x07F3      |        2035 |
|     269 | 0x2DF9      |       11769 |
|     270 | 0xFFFFA9C3  |  4294945219 |
|     271 | 0x004C      |          76 |
|     272 | 0x3757      |       14167 |
|     273 | 0x00F0      |         240 |
|     274 | 0x3758      |       14168 |
|     275 | 0x3759      |       14169 |
|     276 | 0x0AE2      |        2786 |
|     277 | 0xFFFFA3A7  |  4294943655 |
|     278 | 0x01F4      |         500 |
|     279 | 0x0115      |         277 |
|     280 | 0x375A      |       14170 |
|     281 | 0x375B      |       14171 |
|     282 | 0x18B5      |        6325 |
|     283 | 0xFFFFC354  |  4294951764 |
|     284 | 0x03F2      |        1010 |
|     285 | 0x1714      |        5908 |
|     286 | 0xFFFFB2DD  |  4294947549 |
|     287 | 0x0D2F      |        3375 |
|     288 | 0xFFFFACD9  |  4294946009 |
|     289 | 0x375C      |       14172 |
|     290 | 0x375D      |       14173 |
|     291 | 0x2DBD      |       11709 |
|     292 | 0xFFFFB349  |  4294947657 |
|     293 | 0x18FC      |        6396 |
|     294 | 0xFFFFB370  |  4294947696 |
|     295 | 0x375E      |       14174 |
|     296 | 0x375F      |       14175 |
|     297 | 0x3760      |       14176 |
|     298 | 0xFFFFB594  |  4294948244 |
|     299 | 0xFFFFB2F7  |  4294947575 |
|     300 | 0x3761      |       14177 |
|     301 | 0x0024      |          36 |
|     302 | 0x00F9      |         249 |
|     303 | 0xFFFFD1C0  |  4294955456 |
|     304 | 0x0400      |        1024 |
|     305 | 0x3762      |       14178 |
|     306 | 0x3763      |       14179 |
|     307 | 0x3764      |       14180 |
|     308 | 0x3765      |       14181 |
|     309 | 0x3767      |       14183 |
|     310 | 0x05B1      |        1457 |
|     311 | 0xFFFFBCD0  |  4294950096 |
|     312 | 0x3766      |       14182 |
|     313 | 0x00FE      |         254 |
|     314 | 0x3769      |       14185 |
|     315 | 0x3768      |       14184 |
|     316 | 0xFFFFFB72  |  4294966130 |
|     317 | 0xFFFFBE7B  |  4294950523 |
|     318 | 0xFFFFB713  |  4294948627 |
|     319 | 0x376A      |       14186 |
|     320 | 0x0023      |          35 |
|     321 | 0x376B      |       14187 |
|     322 | 0x376C      |       14188 |
|     323 | 0x376D      |       14189 |
|     324 | 0x374A      |       14154 |
|     325 | 0x374B      |       14155 |
|     326 | 0x374C      |       14156 |
|     327 | 0x374D      |       14157 |
|     328 | 0x374E      |       14158 |
|     329 | 0x16773     |       92019 |
|     330 | 0x18286     |       98950 |
|     331 | 0x03E7      |         999 |
|     332 | 0x08EA      |        2282 |
|     333 | 0x148C5     |       84165 |
|     334 | 0x1D413     |      119827 |
|     335 | 0x0200      |         512 |
|     336 | 0x147DF     |       83935 |
|     337 | 0x1DA56     |      121430 |
|     338 | 0x1420D     |       82445 |
|     339 | 0x1D462     |      119906 |
|     340 | 0x155EA     |       87530 |
|     341 | 0x1C5E4     |      116196 |
|     342 | 0x03E8      |        1000 |
|     343 | 0x0DED      |        3565 |
|     344 | 0x1464A     |       83530 |
|     345 | 0x1B6A9     |      112297 |
|     346 | 0x0B54      |        2900 |
|     347 | 0x168BE     |       92350 |
|     348 | 0x1BF95     |      114581 |
|     349 | 0x0960      |        2400 |
|     350 | 0x142C1     |       82625 |
|     351 | 0x1BE6A     |      114282 |
|     352 | 0x0C5E      |        3166 |
|     353 | 0x147AA     |       83882 |
|     354 | 0x1BE7B     |      114299 |
|     355 | 0x0228      |         552 |
|     356 | 0x00E6      |         230 |
|     357 | 0x0149      |         329 |
|     358 | 0x3331      |       13105 |
|     359 | 0x150AE     |       86190 |
|     360 | 0x1C014     |      114708 |
|     361 | 0x0155      |         341 |
|     362 | 0x087D      |        2173 |
|     363 | 0x08CA      |        2250 |
|     364 | 0x08BA      |        2234 |
|     365 | 0x0554      |        1364 |
|     366 | 0x050E      |        1294 |
|     367 | 0x08A7      |        2215 |
|     368 | 0x0851      |        2129 |
|     369 | 0x05CC      |        1484 |
|     370 | 0x00CE      |         206 |
|     371 | 0x00DD      |         221 |
|     372 | 0x018A      |         394 |
|     373 | 0x0088      |         136 |
|     374 | 0x16716     |       91926 |
|     375 | 0x1B5B4     |      112052 |
|     376 | 0x096E      |        2414 |
|     377 | 0x19855     |      104533 |
|     378 | 0x184CC     |       99532 |
|     379 | 0x01EA      |         490 |
|     380 | 0x098C      |        2444 |
|     381 | 0x150C2     |       86210 |
|     382 | 0x1CB50     |      117584 |
|     383 | 0x001B      |          27 |
|     384 | 0x15650     |       87632 |
|     385 | 0x1C55A     |      116058 |
|     386 | 0x15AC5     |       88773 |
|     387 | 0x1CA66     |      117350 |
|     388 | 0x084A      |        2122 |
|     389 | 0x15AB0     |       88752 |
|     390 | 0x1CE33     |      118323 |
|     391 | 0x06AD      |        1709 |
|     392 | 0x15A49     |       88649 |
|     393 | 0x1C72F     |      116527 |
|     394 | 0x09FB      |        2555 |
|     395 | 0x157D1     |       88017 |
|     396 | 0x1D006     |      118790 |
|     397 | 0x0782      |        1922 |
|     398 | 0x15581     |       87425 |
|     399 | 0x1D83A     |      120890 |
|     400 | 0x0490      |        1168 |
|     401 | 0x14A55     |       84565 |
|     402 | 0x1C75F     |      116575 |
|     403 | 0x0022      |          34 |
|     404 | 0x18A23     |      100899 |
|     405 | 0x192B8     |      103096 |
|     406 | 0x09FE      |        2558 |
|     407 | 0x18D03     |      101635 |
|     408 | 0x19C5C     |      105564 |
|     409 | 0x037F      |         895 |
|     410 | 0x18B4E     |      101198 |
|     411 | 0x1A151     |      106833 |
|     412 | 0x05EF      |        1519 |
|     413 | 0x1927C     |      103036 |
|     414 | 0x19F13     |      106259 |
|     415 | 0x047A      |        1146 |
|     416 | 0x087E      |        2174 |
|     417 | 0x06C2      |        1730 |
|     418 | 0x15ABC     |       88764 |
|     419 | 0x1A614     |      108052 |
|     420 | 0x09C4      |        2500 |
|     421 | 0x172C5     |       94917 |
|     422 | 0x1A7E5     |      108517 |
|     423 | 0x0C89      |        3209 |
|     424 | 0x0032      |          50 |
|     425 | 0x153DF     |       87007 |
|     426 | 0x1AC6D     |      109677 |
|     427 | 0x0190      |         400 |
|     428 | 0x0046      |          70 |
|     429 | 0x0857      |        2135 |
|     430 | 0x0850      |        2128 |
|     431 | 0x1877C     |      100220 |
|     432 | 0x189E4     |      100836 |
|     433 | 0x0CA3      |        3235 |
|     434 | 0x17F49     |       98121 |
|     435 | 0x18A0E     |      100878 |
|     436 | 0x0950      |        2384 |
|     437 | 0x0ADD      |        2781 |
|     438 | 0x189B1     |      100785 |
|     439 | 0x19291     |      103057 |
|     440 | 0x0C2F      |        3119 |
|     441 | 0x18479     |       99449 |
|     442 | 0x19470     |      103536 |
|     443 | 0x0C30      |        3120 |
|     444 | 0x18B72     |      101234 |
|     445 | 0x1989B     |      104603 |
|     446 | 0x0A8C      |        2700 |
|     447 | 0x0855      |        2133 |
|     448 | 0x08C0      |        2240 |
|     449 | 0x0069      |         105 |
|     450 | 0x05CD      |        1485 |
|     451 | 0x151B0     |       86448 |
|     452 | 0x1CB62     |      117602 |
|     453 | 0x09C1      |        2497 |
|     454 | 0x001A      |          26 |
|     455 | 0x09BF      |        2495 |
|     456 | 0x021C      |         540 |
|     457 | 0x00C9      |         201 |
|     458 | 0x002D      |          45 |
|     459 | 0x00D7      |         215 |

## String References

- **13105**: @@
- **14061**: What prowls the Beaucedine Glacier? [Raptors./Smilodons./Imps.]
- **14063**: What calls Xarcabard its home? [Yagudo./Tauri./Gnoles.]
- **14065**: What inhabits both regions? [Gnoles./Smilodons./Ghosts.]
- **14074**: How many Orcish units? [One./Three./Four.]
- **14076**: The name of One-eyed Gwajboj's unit? [Gravemakers./Gutrenders./Dismemberment Brigade.]
- **14078**: The name of the Orc leader? [Grradhod./Rojgnoj./Gnadgad.]
- **14088**: The leader of the Royal Knights is... [Rahal S Lebrart./Yrvaulair S Cousseraux./Febrenard C Brunnaut.]
- **14089**: The leader of the Temple Knights is... [Curilla V Mecru./Yrvaulair S Cousseraux./Febrenard C Brunnaut.]
- **14090**: The leader of the Royal Guards is... [Altedour I Tavnazia./Valaineral R Davilles./Ragelise B Baloumat.]
- **14092**: Which does not exist? [Knights of the Cardinal Stag./Knights of the Rustwing Hawk./The Royal Guards.]
- **14102**: The president of Bastok is... [Franz Werner./Derek Karst./Uwe Prien.]
- **14104**: The name of the unit is... [The Iron Musketeers./The Gold Musketeers./The Mythril Musketeers.]
- **14106**: The serving captain is... [Klara Bester./Volker./Bartholomaus Krueger.]
- **14108**: Windurst's commander-in-chief is.. [Lehko Habhoka./Ajido-Marujido./Robel-Akbel.]
- **14110**: How many War Warlock units are there? [Three./Twelve./Thirteen.]
- **14113**: Who isn't a mercenary major? [Perih Vashai./Choh Moui./Haja Zhwan.]
- **14158**: Do you require an explanation? [No, thank you./Yes, please.]
- **14166**: Listen to a detailed explanation? [No, sir./Yes, sir.]
- **14181**: Choose your weapon! [Volcanic rock./Nether vellum./Scorpion stinger.]
- **14193**: Submit the petition? [Gather more signatures./Yes, please.]
- **14194**: Are you certain? [On second thought.../I surely am.]

## Events

### Event 65535

#### Metadata

| Field        | Value   |
|--------------|---------|
| Entrypoint   | 0x0000  |
| Data Size    | 1 bytes |
| Instructions | 1       |

```
      00 01 02 03 04 05 06 07  08 09 0A 0B 0C 0D 0E 0F
      -- -- -- -- -- -- -- --  -- -- -- -- -- -- -- --
0000: 00                                                .               
```

#### Opcodes

```
  0: 0x0000 [0x00] END_REQSTACK()
```

### Event 148

#### Metadata

| Field        | Value      |
|--------------|------------|
| Entrypoint   | 0x0001     |
| Data Size    | 1093 bytes |
| Instructions | 142        |

```
      00 01 02 03 04 05 06 07  08 09 0A 0B 0C 0D 0E 0F
      -- -- -- -- -- -- -- --  -- -- -- -- -- -- -- --
0000:    42 03 00 00 03 10 1A  EE 57 46 01 38 00 80 2F   B.......WF.8../
0010: 00 EE 01 05 01 2F 00 EF  01 05 01 2F 00 B0 02 05  ...../...../....
0020: 01 2F 00 AE 02 05 01 4E  00 EE 01 05 01 4E 00 EF  ./.....N.....N..
0030: 01 05 01 4E 00 B0 02 05  01 4E 00 AE 02 05 01 92  ...N.....N......
0040: 01 EE 01 05 01 92 01 EF  01 05 01 92 01 B0 02 05  ................
0050: 01 92 01 AE 02 05 01 94  01 F0 FF FF 7F 94 01 EE  ................
0060: 01 05 01 94 01 EF 01 05  01 94 01 B0 02 05 01 94  ................
0070: 01 AE 02 05 01 BA F0 FF  FF 7F 01 80 02 80 03 80  ................
0080: 04 80 BA EE 01 05 01 05  80 06 80 07 80 08 80 BA  ................
0090: EF 01 05 01 09 80 0A 80  07 80 08 80 BA B0 02 05  ................
00A0: 01 0B 80 0C 80 03 80 0D  80 BA AE 02 05 01 0E 80  ................
00B0: 0F 80 07 80 10 80 80 F0  FF FF 7F 80 EE 01 05 01  ................
00C0: 80 EF 01 05 01 80 B0 02  05 01 80 AE 02 05 01 4A  ...............J
00D0: F0 FF FF 7F EF 01 05 01  4A EF 01 05 01 F0 FF FF  ........J.......
00E0: 7F 4A B0 02 05 01 F0 FF  FF 7F 4A AE 02 05 01 F0  .J........J.....
00F0: FF FF 7F 7B EF 01 05 01  6C B0 02 05 01 11 80 11  ...{....l.......
0100: 80 6C AE 02 05 01 11 80  11 80 1C 12 80 45 13 80  .l...........E..
0110: F0 FF FF 7F F0 FF FF 7F  30 37 30 30 11 80 1A CD  ........0700....
0120: 57 6E EF 01 05 01 14 80  99 EF 01 05 01 2B EF 01  Wn...........+..
0130: 05 01 15 80 23 1A EE 57  6C B0 02 05 01 16 80 11  ....#..Wl.......
0140: 80 6C AE 02 05 01 16 80  11 80 4B EF 01 05 01 08  .l........K.....
0150: 80 4A F0 FF FF 7F B0 02  05 01 1C 17 80 52 13 80  .J...........R..
0160: F0 FF FF 7F F0 FF FF 7F  30 37 30 30 45 13 80 F0  ........0700E...
0170: FF FF 7F F0 FF FF 7F 30  37 30 31 11 80 1A CD 57  .......0701....W
0180: 2B B0 02 05 01 18 80 23  52 13 80 F0 FF FF 7F F0  +......#R.......
0190: FF FF 7F 30 37 30 31 45  13 80 F0 FF FF 7F F0 FF  ...0701E........
01A0: FF 7F 30 37 30 33 11 80  03 02 10 00 00 66 19 80  ..0703.......f..
01B0: AE 02 05 01 AE 02 05 01  74 68 6B 31 2B AE 02 05  ........thk1+...
01C0: 01 1A 80 1C 1B 80 23 66  19 80 AE 02 05 01 AE 02  ......#f........
01D0: 05 01 74 68 6B 32 24 1C  80 11 80 11 80 25 02 00  ..thk2$......%..
01E0: 10 11 80 00 EF 01 06 01  10 01 0D 04 01 13 02 02  ................
01F0: 00 10 1D 80 00 13 02 24  1E 80 11 80 11 80 25 02  .......$......%.
0200: 00 10 11 80 00 10 02 06  01 10 01 0D 04 01 10 02  ................
0210: 01 13 02 02 00 00 12 80  04 0F 03 52 13 80 F0 FF  ...........R....
0220: FF 7F F0 FF FF 7F 30 37  30 33 45 13 80 F0 FF FF  ......0703E.....
0230: 7F F0 FF FF 7F 30 37 30  32 11 80 66 19 80 AE 02  .....0702..f....
0240: 05 01 AE 02 05 01 74 77  62 30 2B AE 02 05 01 1F  ......twb0+.....
0250: 80 1C 1B 80 23 66 19 80  AE 02 05 01 AE 02 05 01  ....#f..........
0260: 74 77 62 31 5B 20 80 B0  02 05 01 B0 02 05 01 79  twb1[ .........y
0270: 65 73 30 2B B0 02 05 01  21 80 53 AE 02 05 01 AE  es0+....!.S.....
0280: 02 05 01 74 77 62 31 1C  22 80 23 52 13 80 F0 FF  ...twb1.".#R....
0290: FF 7F F0 FF FF 7F 30 37  30 32 45 13 80 F0 FF FF  ......0702E.....
02A0: 7F F0 FF FF 7F 30 37 30  37 11 80 02 00 00 22 80  .....0707.....".
02B0: 04 BB 02 03 02 10 23 80  01 F8 02 02 00 00 24 80  ......#.......$.
02C0: 04 CB 02 03 02 10 25 80  01 F8 02 02 00 00 26 80  ......%.......&.
02D0: 04 DB 02 03 02 10 27 80  01 F8 02 02 00 00 28 80  ......'.......(.
02E0: 04 EB 02 03 02 10 29 80  01 F8 02 02 00 00 12 80  ......).........
02F0: 04 F8 02 03 02 10 2A 80  6E AE 02 05 01 11 80 99  ......*.n.......
0300: AE 02 05 01 2B AE 02 05  01 2B 80 1C 22 80 23 52  ....+....+..".#R
0310: 13 80 F0 FF FF 7F F0 FF  FF 7F 30 37 30 33 52 13  ..........0703R.
0320: 80 F0 FF FF 7F F0 FF FF  7F 30 37 30 37 45 13 80  .........0707E..
0330: F0 FF FF 7F F0 FF FF 7F  30 37 30 38 11 80 6E AE  ........0708..n.
0340: 02 05 01 2C 80 99 AE 02  05 01 2B AE 02 05 01 2D  ...,......+....-
0350: 80 1C 22 80 23 52 13 80  F0 FF FF 7F F0 FF FF 7F  ..".#R..........
0360: 30 37 30 38 45 13 80 F0  FF FF 7F F0 FF FF 7F 30  0708E..........0
0370: 37 30 34 11 80 27 10 B0  02 05 01 04 2B B0 02 05  704..'......+...
0380: 01 2E 80 2A 10 B0 02 05  01 1C 1B 80 23 4A F0 FF  ...*........#J..
0390: FF 7F AE 02 05 01 52 13  80 F0 FF FF 7F F0 FF FF  ......R.........
03A0: 7F 30 37 30 34 45 13 80  F0 FF FF 7F F0 FF FF 7F  .0704E..........
03B0: 30 37 30 35 11 80 66 19  80 AE 02 05 01 AE 02 05  0705..f.........
03C0: 01 74 77 62 30 2B AE 02  05 01 2F 80 1C 1B 80 23  .twb0+..../....#
03D0: 52 13 80 F0 FF FF 7F F0  FF FF 7F 30 37 30 35 45  R..........0705E
03E0: 13 80 F0 FF FF 7F F0 FF  FF 7F 30 37 30 36 11 80  ..........0706..
03F0: 2B AE 02 05 01 30 80 66  19 80 AE 02 05 01 AE 02  +....0.f........
0400: 05 01 74 77 62 31 1C 1B  80 23 05 01 10 1A EE 57  ..twb1...#.....W
0410: 1C 12 80 52 13 80 F0 FF  FF 7F F0 FF FF 7F 30 37  ...R..........07
0420: 30 33 52 13 80 F0 FF FF  7F F0 FF FF 7F 30 37 30  03R..........070
0430: 36 46 00 45 31 80 F0 FF  FF 7F F0 FF FF 7F 66 64  6F.E1.........fd
0440: 69 32 11 80 21 00                                 i2..!.          
```

#### Opcodes

```
  0: 0x0001 [0x42] SET_CLI_EVENT_CANCEL_DATA()
  1: 0x0002 [0x03] ExtData[1]->WorkLocal[0] = Work_Zone[3]
  2: 0x0007 [0x1A] CALL_SUBROUTINE(address=0x57EE)
  3: 0x000A [0x46] CAMERA_CONTROL: Disable user control
  4: 0x000C [0x38] SET_CLIENT_EVENT_MODE(mode=19*)
  5: 0x000F [0x2F] Aissaville (ID: 17105390/0x010501EE)->Render.Flags0 &= ~0x80000 // Bit 19
  6: 0x0015 [0x2F] Raustigne (ID: 17105391/0x010501EF)->Render.Flags0 &= ~0x80000 // Bit 19
  7: 0x001B [0x2F] Noillurie (ID: 17105584/0x010502B0)->Render.Flags0 &= ~0x80000 // Bit 19
  8: 0x0021 [0x2F] Vestillet (ID: 17105582/0x010502AE)->Render.Flags0 &= ~0x80000 // Bit 19
  9: 0x0027 [0x4E] SET_ENTITY_HIDE_FLAG: Show Aissaville (ID: 17105390/0x010501EE)
 10: 0x002D [0x4E] SET_ENTITY_HIDE_FLAG: Show Raustigne (ID: 17105391/0x010501EF)
 11: 0x0033 [0x4E] SET_ENTITY_HIDE_FLAG: Show Noillurie (ID: 17105584/0x010502B0)
 12: 0x0039 [0x4E] SET_ENTITY_HIDE_FLAG: Show Vestillet (ID: 17105582/0x010502AE)
 13: 0x003F [0x92] Aissaville (ID: 17105390/0x010501EE)->Render.Flags3 ^= 0x01
 14: 0x0045 [0x92] Raustigne (ID: 17105391/0x010501EF)->Render.Flags3 ^= 0x01
 15: 0x004B [0x92] Noillurie (ID: 17105584/0x010502B0)->Render.Flags3 ^= 0x01
 16: 0x0051 [0x92] Vestillet (ID: 17105582/0x010502AE)->Render.Flags3 ^= 0x01
 17: 0x0057 [0x94] LocalPlayer->Render.Flags3 ^= 0x01
 18: 0x005D [0x94] Aissaville (ID: 17105390/0x010501EE)->Render.Flags3 ^= 0x01
 19: 0x0063 [0x94] Raustigne (ID: 17105391/0x010501EF)->Render.Flags3 ^= 0x01
 20: 0x0069 [0x94] Noillurie (ID: 17105584/0x010502B0)->Render.Flags3 ^= 0x01
 21: 0x006F [0x94] Vestillet (ID: 17105582/0x010502AE)->Render.Flags3 ^= 0x01
 22: 0x0075 [0xBA] SET_ENTITY_POSITION(entity_id=LocalPlayer, pos_x=0.981*, pos_z=41.807*, pos_y=-2.000*, direction=314.9°*)
 23: 0x0082 [0xBA] SET_ENTITY_POSITION(entity_id=Aissaville (ID: 17105390/0x010501EE), pos_x=-3.484*, pos_z=44.227*, pos_y=-1.999*, direction=91.8°*)
 24: 0x008F [0xBA] SET_ENTITY_POSITION(entity_id=Raustigne (ID: 17105391/0x010501EF), pos_x=4.028*, pos_z=44.464*, pos_y=-1.999*, direction=91.8°*)
 25: 0x009C [0xBA] SET_ENTITY_POSITION(entity_id=Noillurie (ID: 17105584/0x010502B0), pos_x=1.093*, pos_z=44.677*, pos_y=-2.000*, direction=318.9°*)
 26: 0x00A9 [0xBA] SET_ENTITY_POSITION(entity_id=Vestillet (ID: 17105582/0x010502AE), pos_x=-0.194*, pos_z=44.260*, pos_y=-1.999*, direction=272.3°*)
 27: 0x00B6 [0x80] LOAD_WAIT(entity=LocalPlayer)
 28: 0x00BB [0x80] LOAD_WAIT(entity=Aissaville (ID: 17105390/0x010501EE))
 29: 0x00C0 [0x80] LOAD_WAIT(entity=Raustigne (ID: 17105391/0x010501EF))
 30: 0x00C5 [0x80] LOAD_WAIT(entity=Noillurie (ID: 17105584/0x010502B0))
 31: 0x00CA [0x80] LOAD_WAIT(entity=Vestillet (ID: 17105582/0x010502AE))
 32: 0x00CF [0x4A] LocalPlayer looks at Raustigne (ID: 17105391/0x010501EF)
 33: 0x00D8 [0x4A] Raustigne (ID: 17105391/0x010501EF) looks at LocalPlayer
 34: 0x00E1 [0x4A] Noillurie (ID: 17105584/0x010502B0) looks at LocalPlayer
 35: 0x00EA [0x4A] Vestillet (ID: 17105582/0x010502AE) looks at LocalPlayer
 36: 0x00F3 [0x7B] Raustigne (ID: 17105391/0x010501EF) stops talking
 37: 0x00F8 [0x6C] FADE_ENTITY_COLOR(entity_id=Noillurie (ID: 17105584/0x010502B0), end_alpha=0*, fade_time=0*)
 38: 0x0101 [0x6C] FADE_ENTITY_COLOR(entity_id=Vestillet (ID: 17105582/0x010502AE), end_alpha=0*, fade_time=0*)
 39: 0x010A [0x1C] WAIT(30* ticks)
 40: 0x010D [0x45] LOAD_SCHEDULED_TASK: Load scheduler "0700" with entities [LocalPlayer, LocalPlayer], work=[501*, 0*]
 41: 0x011E [0x1A] CALL_SUBROUTINE(address=0x57CD)
 42: 0x0121 [0x6E] Raustigne (ID: 17105391/0x010501EF) uses emote 2*
 43: 0x0128 [0x99] Wait for Raustigne (ID: 17105391/0x010501EF) animation to complete
 44: 0x012D [0x2B] Raustigne (ID: 17105391/0x010501EF) [14190*]:
    → "How fare you, <Player>? Sir Vestillet and Sir Noillurie have been expecting you."
 45: 0x0134 [0x23] WAIT_FOR_DIALOG_INTERACTION
 46: 0x0135 [0x1A] CALL_SUBROUTINE(address=0x57EE)
 47: 0x0138 [0x6C] FADE_ENTITY_COLOR(entity_id=Noillurie (ID: 17105584/0x010502B0), end_alpha=128*, fade_time=0*)
 48: 0x0141 [0x6C] FADE_ENTITY_COLOR(entity_id=Vestillet (ID: 17105582/0x010502AE), end_alpha=128*, fade_time=0*)
 49: 0x014A [0x4B] UPDATE_ENTITY_YAW(entity=Raustigne (ID: 17105391/0x010501EF), yaw=5.7°*)
 50: 0x0151 [0x4A] LocalPlayer looks at Noillurie (ID: 17105584/0x010502B0)
 51: 0x015A [0x1C] WAIT(180* ticks)
 52: 0x015D [0x52] END_LOAD_SCHEDULER: End scheduler "0700" with entities [LocalPlayer, LocalPlayer], work=501*
 53: 0x016C [0x45] LOAD_SCHEDULED_TASK: Load scheduler "0701" with entities [LocalPlayer, LocalPlayer], work=[501*, 0*]
 54: 0x017D [0x1A] CALL_SUBROUTINE(address=0x57CD)
 55: 0x0180 [0x2B] Noillurie (ID: 17105584/0x010502B0) [14191*]:
    → "You're finally back."
 56: 0x0187 [0x23] WAIT_FOR_DIALOG_INTERACTION
 57: 0x0188 [0x52] END_LOAD_SCHEDULER: End scheduler "0701" with entities [LocalPlayer, LocalPlayer], work=501*
 58: 0x0197 [0x45] LOAD_SCHEDULED_TASK: Load scheduler "0703" with entities [LocalPlayer, LocalPlayer], work=[501*, 0*]
 59: 0x01A8 [0x03] Work_Zone[2] = ExtData[1]->WorkLocal[0]
 60: 0x01AD [0x66] LOAD_EXT_SCHEDULER_MAIN: Load scheduler "thk1" with entities [Vestillet (ID: 17105582/0x010502AE), Vestillet (ID: 17105582/0x010502AE)], work=29*
 61: 0x01BC [0x2B] Vestillet (ID: 17105582/0x010502AE) [14192*]:
    → "I see you've gathered $1 [signature/signatures] for the petition. Are you ready to submit it?"
 62: 0x01C3 [0x1C] WAIT(90* ticks)
 63: 0x01C6 [0x23] WAIT_FOR_DIALOG_INTERACTION
 64: 0x01C7 [0x66] LOAD_EXT_SCHEDULER_MAIN: Load scheduler "thk2" with entities [Vestillet (ID: 17105582/0x010502AE), Vestillet (ID: 17105582/0x010502AE)], work=29*
 65: 0x01D6 [0x24] CREATE_DIALOG(message_id=14193*, default_option=0*, option_flags=0*)
    → "Submit the petition? [Gather more signatures./Yes, please.]"
 66: 0x01DD [0x25] WAIT_DIALOG_SELECT()
 67: 0x01DE [0x02] IF !(Work_Zone[0] == 0*) GOTO 0x01EF
 68: 0x01E6 [0x06] Work_Zone[1] = 0
 69: 0x01E9 [0x01] GOTO 0x040D

SUBROUTINE_0210:
 70: 0x0210 [0x01] GOTO 0x0213

SUBROUTINE_0213:
 71: 0x0213 [0x02] IF !(ExtData[1]->WorkLocal[0] < 30*) GOTO 0x030F
 72: 0x021B [0x52] END_LOAD_SCHEDULER: End scheduler "0703" with entities [LocalPlayer, LocalPlayer], work=501*
 73: 0x022A [0x45] LOAD_SCHEDULED_TASK: Load scheduler "0702" with entities [LocalPlayer, LocalPlayer], work=[501*, 0*]
 74: 0x023B [0x66] LOAD_EXT_SCHEDULER_MAIN: Load scheduler "twb0" with entities [Vestillet (ID: 17105582/0x010502AE), Vestillet (ID: 17105582/0x010502AE)], work=29*
 75: 0x024A [0x2B] Vestillet (ID: 17105582/0x010502AE) [14195*]:
    → "Such a plentiful amount of signatures... You've proven your reputation beyond all doubt, <Player>."
 76: 0x0251 [0x1C] WAIT(90* ticks)
 77: 0x0254 [0x23] WAIT_FOR_DIALOG_INTERACTION
 78: 0x0255 [0x66] LOAD_EXT_SCHEDULER_MAIN: Load scheduler "twb1" with entities [Vestillet (ID: 17105582/0x010502AE), Vestillet (ID: 17105582/0x010502AE)], work=29*
 79: 0x0264 [0x5B] LOAD_EXT_SCHEDULER: Load scheduler "yes0" with entities [Noillurie (ID: 17105584/0x010502B0), Noillurie (ID: 17105584/0x010502B0)], work=2404*
 80: 0x0273 [0x2B] Noillurie (ID: 17105584/0x010502B0) [14196*]:
    → "Truth be told, the instant I set the task upon you, I wondered whether I was being unreasonable in my demands. But it seems my worries were unfounded."
 81: 0x027A [0x53] WAIT_SCHEDULER_TASK: Wait for scheduler "twb1" with entities [Vestillet (ID: 17105582/0x010502AE), Vestillet (ID: 17105582/0x010502AE)]
 82: 0x0287 [0x1C] WAIT(120* ticks)
 83: 0x028A [0x23] WAIT_FOR_DIALOG_INTERACTION
 84: 0x028B [0x52] END_LOAD_SCHEDULER: End scheduler "0702" with entities [LocalPlayer, LocalPlayer], work=501*
 85: 0x029A [0x45] LOAD_SCHEDULED_TASK: Load scheduler "0707" with entities [LocalPlayer, LocalPlayer], work=[501*, 0*]
 86: 0x02AB [0x02] IF !(ExtData[1]->WorkLocal[0] < 120*) GOTO 0x02BB
 87: 0x02B3 [0x03] Work_Zone[2] = 1711*
 88: 0x02B8 [0x01] GOTO 0x02F8
 89: 0x02BB [0x02] IF !(ExtData[1]->WorkLocal[0] < 100*) GOTO 0x02CB
 90: 0x02C3 [0x03] Work_Zone[2] = 747*
 91: 0x02C8 [0x01] GOTO 0x02F8
 92: 0x02CB [0x02] IF !(ExtData[1]->WorkLocal[0] < 80*) GOTO 0x02DB
 93: 0x02D3 [0x03] Work_Zone[2] = 2744*
 94: 0x02D8 [0x01] GOTO 0x02F8
 95: 0x02DB [0x02] IF !(ExtData[1]->WorkLocal[0] < 40*) GOTO 0x02EB
 96: 0x02E3 [0x03] Work_Zone[2] = 2705*
 97: 0x02E8 [0x01] GOTO 0x02F8
 98: 0x02EB [0x02] IF !(ExtData[1]->WorkLocal[0] < 30*) GOTO 0x02F8
 99: 0x02F3 [0x03] Work_Zone[2] = 2743*

SUBROUTINE_02F8:
100: 0x02F8 [0x6E] Vestillet (ID: 17105582/0x010502AE) uses emote 0*
101: 0x02FF [0x99] Wait for Vestillet (ID: 17105582/0x010502AE) animation to complete
102: 0x0304 [0x2B] Vestillet (ID: 17105582/0x010502AE) [14197*]:
    → "I'm of the same sentiment. Please accept our apologies, and this also as a small token of our regret for having scrutinized you needlessly."
103: 0x030B [0x1C] WAIT(120* ticks)
104: 0x030E [0x23] WAIT_FOR_DIALOG_INTERACTION
105: 0x030F [0x52] END_LOAD_SCHEDULER: End scheduler "0703" with entities [LocalPlayer, LocalPlayer], work=501*
106: 0x031E [0x52] END_LOAD_SCHEDULER: End scheduler "0707" with entities [LocalPlayer, LocalPlayer], work=501*
107: 0x032D [0x45] LOAD_SCHEDULED_TASK: Load scheduler "0708" with entities [LocalPlayer, LocalPlayer], work=[501*, 0*]
108: 0x033E [0x6E] Vestillet (ID: 17105582/0x010502AE) uses emote 7*
109: 0x0345 [0x99] Wait for Vestillet (ID: 17105582/0x010502AE) animation to complete
110: 0x034A [0x2B] Vestillet (ID: 17105582/0x010502AE) [14198*]:
    → "With this many knights rallying behind you, no one will have any grounds to question your joining us."
111: 0x0351 [0x1C] WAIT(120* ticks)
112: 0x0354 [0x23] WAIT_FOR_DIALOG_INTERACTION
113: 0x0355 [0x52] END_LOAD_SCHEDULER: End scheduler "0708" with entities [LocalPlayer, LocalPlayer], work=501*
114: 0x0364 [0x45] LOAD_SCHEDULED_TASK: Load scheduler "0704" with entities [LocalPlayer, LocalPlayer], work=[501*, 0*]
115: 0x0375 [0x27] REQ_SET(priority=0x10, entity_id=Noillurie (ID: 17105584/0x010502B0), tag_num=0x04)
116: 0x037C [0x2B] Noillurie (ID: 17105584/0x010502B0) [14199*]:
    → "Very well, <Player>. It would be our pleasure to have you accompany us to the Northlands."
117: 0x0383 [0x2A] GET_REQ_LEVEL(level=16, entity_id=Noillurie (ID: 17105584/0x010502B0))
118: 0x0389 [0x1C] WAIT(90* ticks)
119: 0x038C [0x23] WAIT_FOR_DIALOG_INTERACTION
120: 0x038D [0x4A] LocalPlayer looks at Vestillet (ID: 17105582/0x010502AE)
121: 0x0396 [0x52] END_LOAD_SCHEDULER: End scheduler "0704" with entities [LocalPlayer, LocalPlayer], work=501*
122: 0x03A5 [0x45] LOAD_SCHEDULED_TASK: Load scheduler "0705" with entities [LocalPlayer, LocalPlayer], work=[501*, 0*]
123: 0x03B6 [0x66] LOAD_EXT_SCHEDULER_MAIN: Load scheduler "twb0" with entities [Vestillet (ID: 17105582/0x010502AE), Vestillet (ID: 17105582/0x010502AE)], work=29*
124: 0x03C5 [0x2B] Vestillet (ID: 17105582/0x010502AE) [14200*]:
    → "Our units will depart for the Beaucedine Glacier presently."
125: 0x03CC [0x1C] WAIT(90* ticks)
126: 0x03CF [0x23] WAIT_FOR_DIALOG_INTERACTION
127: 0x03D0 [0x52] END_LOAD_SCHEDULER: End scheduler "0705" with entities [LocalPlayer, LocalPlayer], work=501*
128: 0x03DF [0x45] LOAD_SCHEDULED_TASK: Load scheduler "0706" with entities [LocalPlayer, LocalPlayer], work=[501*, 0*]
129: 0x03F0 [0x2B] Vestillet (ID: 17105582/0x010502AE) [14201*]:
    → "We shall see you there."
130: 0x03F7 [0x66] LOAD_EXT_SCHEDULER_MAIN: Load scheduler "twb1" with entities [Vestillet (ID: 17105582/0x010502AE), Vestillet (ID: 17105582/0x010502AE)], work=29*
131: 0x0406 [0x1C] WAIT(90* ticks)
132: 0x0409 [0x23] WAIT_FOR_DIALOG_INTERACTION
133: 0x040A [0x05] Work_Zone[1] = 1

SUBROUTINE_040D:
134: 0x040D [0x1A] CALL_SUBROUTINE(address=0x57EE)
135: 0x0410 [0x1C] WAIT(30* ticks)
136: 0x0413 [0x52] END_LOAD_SCHEDULER: End scheduler "0703" with entities [LocalPlayer, LocalPlayer], work=501*
137: 0x0422 [0x52] END_LOAD_SCHEDULER: End scheduler "0706" with entities [LocalPlayer, LocalPlayer], work=501*
138: 0x0431 [0x46] CAMERA_CONTROL: Restore default settings
139: 0x0433 [0x45] LOAD_SCHEDULED_TASK: Load scheduler "fdi2" with entities [LocalPlayer, LocalPlayer], work=[200*, 0*]
140: 0x0444 [0x21] END_EVENT
141: 0x0445 [0x00] END_REQSTACK()
```

#### Data or dead code:

```
# Dead code (unreachable instructions):
     0x01EC [0x01] GOTO 0x0213
     0x020D [0x01] GOTO 0x0210
```

### Event 139

#### Metadata

| Field        | Value    |
|--------------|----------|
| Entrypoint   | 0x0446   |
| Data Size    | 42 bytes |
| Instructions | 10       |

```
      00 01 02 03 04 05 06 07  08 09 0A 0B 0C 0D 0E 0F
      -- -- -- -- -- -- -- --  -- -- -- -- -- -- -- --
0440:                   4A F5  01 05 01 F0 FF FF 7F 6F        J........o
0450: 76 F5 01 05 01 6E F5 01  05 01 32 80 99 F5 01 05  v....n....2.....
0460: 01 03 02 10 33 80 2B F5  01 05 01 34 80 23 21 00  ....3.+....4.#!.
```

#### Opcodes

```
  0: 0x0446 [0x4A] Sabiliont (ID: 17105397/0x010501F5) looks at LocalPlayer
  1: 0x044F [0x6F] WAIT_FRAME_DELAY: Yield until WaitTime reaches zero
  2: 0x0450 [0x76] CHECK_ENTITY_RENDER_FLAGS: Wait until Sabiliont (ID: 17105397/0x010501F5) Render.Flags0 and Render.Flags3 conditions are met
  3: 0x0455 [0x6E] Sabiliont (ID: 17105397/0x010501F5) uses emote 6*
  4: 0x045C [0x99] Wait for Sabiliont (ID: 17105397/0x010501F5) animation to complete
  5: 0x0461 [0x03] Work_Zone[2] = 4545*
  6: 0x0466 [0x2B] Sabiliont (ID: 17105397/0x010501F5) [14120*]:
    → "That would be $0 I require, and the more the merrier!"
  7: 0x046D [0x23] WAIT_FOR_DIALOG_INTERACTION
  8: 0x046E [0x21] END_EVENT
  9: 0x046F [0x00] END_REQSTACK()
```

### Event 140

#### Metadata

| Field        | Value    |
|--------------|----------|
| Entrypoint   | 0x0470   |
| Data Size    | 42 bytes |
| Instructions | 10       |

```
      00 01 02 03 04 05 06 07  08 09 0A 0B 0C 0D 0E 0F
      -- -- -- -- -- -- -- --  -- -- -- -- -- -- -- --
0470: 4A 67 02 05 01 F0 FF FF  7F 6F 76 67 02 05 01 6E  Jg.......ovg...n
0480: 67 02 05 01 2C 80 99 67  02 05 01 03 02 10 35 80  g...,..g......5.
0490: 2B 67 02 05 01 36 80 23  21 00                    +g...6.#!.      
```

#### Opcodes

```
  0: 0x0470 [0x4A] Hauberliond (ID: 17105511/0x01050267) looks at LocalPlayer
  1: 0x0479 [0x6F] WAIT_FRAME_DELAY: Yield until WaitTime reaches zero
  2: 0x047A [0x76] CHECK_ENTITY_RENDER_FLAGS: Wait until Hauberliond (ID: 17105511/0x01050267) Render.Flags0 and Render.Flags3 conditions are met
  3: 0x047F [0x6E] Hauberliond (ID: 17105511/0x01050267) uses emote 7*
  4: 0x0486 [0x99] Wait for Hauberliond (ID: 17105511/0x01050267) animation to complete
  5: 0x048B [0x03] Work_Zone[2] = 17336*
  6: 0x0490 [0x2B] Hauberliond (ID: 17105511/0x01050267) [14127*]:
    → "Our army is low on $0. Bring as many as you can."
  7: 0x0497 [0x23] WAIT_FOR_DIALOG_INTERACTION
  8: 0x0498 [0x21] END_EVENT
  9: 0x0499 [0x00] END_REQSTACK()
```

### Event 141

#### Metadata

| Field        | Value    |
|--------------|----------|
| Entrypoint   | 0x049A   |
| Data Size    | 42 bytes |
| Instructions | 10       |

```
      00 01 02 03 04 05 06 07  08 09 0A 0B 0C 0D 0E 0F
      -- -- -- -- -- -- -- --  -- -- -- -- -- -- -- --
0490:                                4A E8 01 05 01 F0            J.....
04A0: FF FF 7F 6F 76 E8 01 05  01 6E E8 01 05 01 37 80  ...ov....n....7.
04B0: 99 E8 01 05 01 03 02 10  38 80 2B E8 01 05 01 39  ........8.+....9
04C0: 80 23 21 00                                       .#!.            
```

#### Opcodes

```
  0: 0x049A [0x4A] Eumielle (ID: 17105384/0x010501E8) looks at LocalPlayer
  1: 0x04A3 [0x6F] WAIT_FRAME_DELAY: Yield until WaitTime reaches zero
  2: 0x04A4 [0x76] CHECK_ENTITY_RENDER_FLAGS: Wait until Eumielle (ID: 17105384/0x010501E8) Render.Flags0 and Render.Flags3 conditions are met
  3: 0x04A9 [0x6E] Eumielle (ID: 17105384/0x010501E8) uses emote 32*
  4: 0x04B0 [0x99] Wait for Eumielle (ID: 17105384/0x010501E8) animation to complete
  5: 0x04B5 [0x03] Work_Zone[2] = 5704*
  6: 0x04BA [0x2B] Eumielle (ID: 17105384/0x010501E8) [14133*]:
    → "As long as it's made from beans, I care not the slightest what dark crevasse it came from! But...<slurp>...I do have a soft spot for $0."
  7: 0x04C1 [0x23] WAIT_FOR_DIALOG_INTERACTION
  8: 0x04C2 [0x21] END_EVENT
  9: 0x04C3 [0x00] END_REQSTACK()
```

### Event 142

#### Metadata

| Field        | Value    |
|--------------|----------|
| Entrypoint   | 0x04C4   |
| Data Size    | 37 bytes |
| Instructions | 9        |

```
      00 01 02 03 04 05 06 07  08 09 0A 0B 0C 0D 0E 0F
      -- -- -- -- -- -- -- --  -- -- -- -- -- -- -- --
04C0:             4A E9 01 05  01 F0 FF FF 7F 6F 76 E9      J........ov.
04D0: 01 05 01 6E E9 01 05 01  3A 80 99 E9 01 05 01 2B  ...n....:......+
04E0: E9 01 05 01 3B 80 23 21  00                       ....;.#!.       
```

#### Opcodes

```
  0: 0x04C4 [0x4A] Coucheutand (ID: 17105385/0x010501E9) looks at LocalPlayer
  1: 0x04CD [0x6F] WAIT_FRAME_DELAY: Yield until WaitTime reaches zero
  2: 0x04CE [0x76] CHECK_ENTITY_RENDER_FLAGS: Wait until Coucheutand (ID: 17105385/0x010501E9) Render.Flags0 and Render.Flags3 conditions are met
  3: 0x04D3 [0x6E] Coucheutand (ID: 17105385/0x010501E9) uses emote 22*
  4: 0x04DA [0x99] Wait for Coucheutand (ID: 17105385/0x010501E9) animation to complete
  5: 0x04DF [0x2B] Coucheutand (ID: 17105385/0x010501E9) [14140*]:
    → "That's one piece of equipment from an Orc I require. Until you bring what I ask, we've nothing further to discuss."
  6: 0x04E6 [0x23] WAIT_FOR_DIALOG_INTERACTION
  7: 0x04E7 [0x21] END_EVENT
  8: 0x04E8 [0x00] END_REQSTACK()
```

### Event 143

#### Metadata

| Field        | Value    |
|--------------|----------|
| Entrypoint   | 0x04E9   |
| Data Size    | 42 bytes |
| Instructions | 10       |

```
      00 01 02 03 04 05 06 07  08 09 0A 0B 0C 0D 0E 0F
      -- -- -- -- -- -- -- --  -- -- -- -- -- -- -- --
04E0:                             4A ED 01 05 01 F0 FF           J......
04F0: FF 7F 6F 76 ED 01 05 01  6E ED 01 05 01 3C 80 99  ..ov....n....<..
0500: ED 01 05 01 03 02 10 3D  80 2B ED 01 05 01 3E 80  .......=.+....>.
0510: 23 21 00                                          #!.             
```

#### Opcodes

```
  0: 0x04E9 [0x4A] Rongelouts N Distaud (ID: 17105389/0x010501ED) looks at LocalPlayer
  1: 0x04F2 [0x6F] WAIT_FRAME_DELAY: Yield until WaitTime reaches zero
  2: 0x04F3 [0x76] CHECK_ENTITY_RENDER_FLAGS: Wait until Rongelouts N Distaud (ID: 17105389/0x010501ED) Render.Flags0 and Render.Flags3 conditions are met
  3: 0x04F8 [0x6E] Rongelouts N Distaud (ID: 17105389/0x010501ED) uses emote 25*
  4: 0x04FF [0x99] Wait for Rongelouts N Distaud (ID: 17105389/0x010501ED) animation to complete
  5: 0x0504 [0x03] Work_Zone[2] = 2521*
  6: 0x0509 [0x2B] Rongelouts N Distaud (ID: 17105389/0x010501ED) [14150*]:
    → "$0, I said! Have you sawdust for brains? Make me repeat myself once more, and your pouting lips will find themselves at odds with my gauntlet!"
  7: 0x0510 [0x23] WAIT_FOR_DIALOG_INTERACTION
  8: 0x0511 [0x21] END_EVENT
  9: 0x0512 [0x00] END_REQSTACK()
```

### Event 115

#### Metadata

| Field        | Value    |
|--------------|----------|
| Entrypoint   | 0x0513   |
| Data Size    | 55 bytes |
| Instructions | 13       |

```
      00 01 02 03 04 05 06 07  08 09 0A 0B 0C 0D 0E 0F
      -- -- -- -- -- -- -- --  -- -- -- -- -- -- -- --
0510:          42 03 01 00 02  10 4A 04 02 05 01 F0 FF     B.....J......
0520: FF 7F 4A F0 FF FF 7F 04  02 05 01 2B 04 02 05 01  ..J........+....
0530: 3F 80 23 03 02 10 01 00  2B 04 02 05 01 40 80 23  ?.#.....+....@.#
0540: 2B 04 02 05 01 41 80 23  21 00                    +....A.#!.      
```

#### Opcodes

```
  0: 0x0513 [0x42] SET_CLI_EVENT_CANCEL_DATA()
  1: 0x0514 [0x03] ExtData[1]->WorkLocal[1] = Work_Zone[2]
  2: 0x0519 [0x4A] Illeuse (ID: 17105412/0x01050204) looks at LocalPlayer
  3: 0x0522 [0x4A] LocalPlayer looks at Illeuse (ID: 17105412/0x01050204)
  4: 0x052B [0x2B] Illeuse (ID: 17105412/0x01050204) [14022*]:
    → "What? You wish me to sign your petition?"
  5: 0x0532 [0x23] WAIT_FOR_DIALOG_INTERACTION
  6: 0x0533 [0x03] Work_Zone[2] = ExtData[1]->WorkLocal[1]
  7: 0x0538 [0x2B] Illeuse (ID: 17105412/0x01050204) [14023*]:
    → "Pardon my asking, but am I correct in assuming you are <Player> of the [/Knights of the Iron Ram/Seventh Cohors of Bastok/Cobra Mercenaries of Windurst]?"
  8: 0x053F [0x23] WAIT_FOR_DIALOG_INTERACTION
  9: 0x0540 [0x2B] Illeuse (ID: 17105412/0x01050204) [14024*]:
    → "Haha, I knew it! Much have I heard of your valorous deeds at the Battle of Jeuno! You have my wholehearted support, and not the least, my signature!"
 10: 0x0547 [0x23] WAIT_FOR_DIALOG_INTERACTION
 11: 0x0548 [0x21] END_EVENT
 12: 0x0549 [0x00] END_REQSTACK()
```

### Event 116

#### Metadata

| Field        | Value    |
|--------------|----------|
| Entrypoint   | 0x054A   |
| Data Size    | 55 bytes |
| Instructions | 13       |

```
      00 01 02 03 04 05 06 07  08 09 0A 0B 0C 0D 0E 0F
      -- -- -- -- -- -- -- --  -- -- -- -- -- -- -- --
0540:                                42 03 01 00 02 10            B.....
0550: 4A 03 02 05 01 F0 FF FF  7F 4A F0 FF FF 7F 03 02  J........J......
0560: 05 01 2B 03 02 05 01 42  80 23 03 02 10 01 00 2B  ..+....B.#.....+
0570: 03 02 05 01 43 80 23 2B  03 02 05 01 44 80 23 21  ....C.#+....D.#!
0580: 00                                                .               
```

#### Opcodes

```
  0: 0x054A [0x42] SET_CLI_EVENT_CANCEL_DATA()
  1: 0x054B [0x03] ExtData[1]->WorkLocal[1] = Work_Zone[2]
  2: 0x0550 [0x4A] Elnonde (ID: 17105411/0x01050203) looks at LocalPlayer
  3: 0x0559 [0x4A] LocalPlayer looks at Elnonde (ID: 17105411/0x01050203)
  4: 0x0562 [0x2B] Elnonde (ID: 17105411/0x01050203) [14025*]:
    → "How may I be of assistance? Hm? A signature, you say?"
  5: 0x0569 [0x23] WAIT_FOR_DIALOG_INTERACTION
  6: 0x056A [0x03] Work_Zone[2] = ExtData[1]->WorkLocal[1]
  7: 0x056F [0x2B] Elnonde (ID: 17105411/0x01050203) [14026*]:
    → "But of course! How could I refuse, knowing you're the esteemed <Player> of the [/Knights of the Iron Ram/Seventh Cohors of Bastok/Cobra Mercenaries of Windurst]?"
  8: 0x0576 [0x23] WAIT_FOR_DIALOG_INTERACTION
  9: 0x0577 [0x2B] Elnonde (ID: 17105411/0x01050203) [14027*]:
    → "So you'll strike out for the Northlands with the Madder Falcons? I shall pray for your safety and success on the battlefront."
 10: 0x057E [0x23] WAIT_FOR_DIALOG_INTERACTION
 11: 0x057F [0x21] END_EVENT
 12: 0x0580 [0x00] END_REQSTACK()
```

### Event 117

#### Metadata

| Field        | Value    |
|--------------|----------|
| Entrypoint   | 0x0581   |
| Data Size    | 45 bytes |
| Instructions | 11       |

```
      00 01 02 03 04 05 06 07  08 09 0A 0B 0C 0D 0E 0F
      -- -- -- -- -- -- -- --  -- -- -- -- -- -- -- --
0580:    42 4A 01 02 05 01 F0  FF FF 7F 4A F0 FF FF 7F   BJ........J....
0590: 01 02 05 01 2B 01 02 05  01 45 80 23 2B 01 02 05  ....+....E.#+...
05A0: 01 46 80 23 2B 01 02 05  01 47 80 23 21 00        .F.#+....G.#!.  
```

#### Opcodes

```
  0: 0x0581 [0x42] SET_CLI_EVENT_CANCEL_DATA()
  1: 0x0582 [0x4A] Loillie (ID: 17105409/0x01050201) looks at LocalPlayer
  2: 0x058B [0x4A] LocalPlayer looks at Loillie (ID: 17105409/0x01050201)
  3: 0x0594 [0x2B] Loillie (ID: 17105409/0x01050201) [14028*]:
    → "You would have my signature? It would be my pleasure!"
  4: 0x059B [0x23] WAIT_FOR_DIALOG_INTERACTION
  5: 0x059C [0x2B] Loillie (ID: 17105409/0x01050201) [14029*]:
    → "Not that I give signatures to anyone who asks, mind you. You're a good friend of Sir Ragelise's, are you not?"
  6: 0x05A3 [0x23] WAIT_FOR_DIALOG_INTERACTION
  7: 0x05A4 [0x2B] Loillie (ID: 17105409/0x01050201) [14030*]:
    → "From what I understand, Sir Ragelise has taken ill recently. As his trusted comrade, I have faith that you will be there for him in his time of need."
  8: 0x05AB [0x23] WAIT_FOR_DIALOG_INTERACTION
  9: 0x05AC [0x21] END_EVENT
 10: 0x05AD [0x00] END_REQSTACK()
```

### Event 118

#### Metadata

| Field        | Value    |
|--------------|----------|
| Entrypoint   | 0x05AE   |
| Data Size    | 78 bytes |
| Instructions | 18       |

```
      00 01 02 03 04 05 06 07  08 09 0A 0B 0C 0D 0E 0F
      -- -- -- -- -- -- -- --  -- -- -- -- -- -- -- --
05A0:                                            42 03                B.
05B0: 01 00 02 10 4A 02 02 05  01 F0 FF FF 7F 4A F0 FF  ....J........J..
05C0: FF 7F 02 02 05 01 2B 02  02 05 01 48 80 23 03 02  ......+....H.#..
05D0: 10 01 00 2B 02 02 05 01  49 80 23 2B 02 02 05 01  ...+....I.#+....
05E0: 4A 80 23 6E 02 02 05 01  14 80 99 02 02 05 01 2B  J.#n...........+
05F0: 02 02 05 01 4B 80 1C 22  80 23 21 00              ....K..".#!.    
```

#### Opcodes

```
  0: 0x05AE [0x42] SET_CLI_EVENT_CANCEL_DATA()
  1: 0x05AF [0x03] ExtData[1]->WorkLocal[1] = Work_Zone[2]
  2: 0x05B4 [0x4A] Daigraffeaux (ID: 17105410/0x01050202) looks at LocalPlayer
  3: 0x05BD [0x4A] LocalPlayer looks at Daigraffeaux (ID: 17105410/0x01050202)
  4: 0x05C6 [0x2B] Daigraffeaux (ID: 17105410/0x01050202) [14031*]:
    → "Hm? What's this talk of signatures?"
  5: 0x05CD [0x23] WAIT_FOR_DIALOG_INTERACTION
  6: 0x05CE [0x03] Work_Zone[2] = ExtData[1]->WorkLocal[1]
  7: 0x05D3 [0x2B] Daigraffeaux (ID: 17105410/0x01050202) [14032*]:
    → "Why, if it isn't <Player> of the [/Knights of the Iron Ram/Seventh Cohors of Bastok/Cobra Mercenaries of Windurst], the [man/woman] of the moment! The Kingdom's walls resound with praise for you!"
  8: 0x05DA [0x23] WAIT_FOR_DIALOG_INTERACTION
  9: 0x05DB [0x2B] Daigraffeaux (ID: 17105410/0x01050202) [14033*]:
    → "I've heard much of you from Sir Ragelise. In fact, there's a note of pride in his voice every time he brings your name up in conversation. Any friend of Sir Ragelise's is a friend of mine!"
 10: 0x05E2 [0x23] WAIT_FOR_DIALOG_INTERACTION
 11: 0x05E3 [0x6E] Daigraffeaux (ID: 17105410/0x01050202) uses emote 2*
 12: 0x05EA [0x99] Wait for Daigraffeaux (ID: 17105410/0x01050202) animation to complete
 13: 0x05EF [0x2B] Daigraffeaux (ID: 17105410/0x01050202) [14034*]:
    → "Let us never give up the fight for the survival of all that is good in this world. May the blessing of the Goddess be upon us!"
 14: 0x05F6 [0x1C] WAIT(120* ticks)
 15: 0x05F9 [0x23] WAIT_FOR_DIALOG_INTERACTION
 16: 0x05FA [0x21] END_EVENT
 17: 0x05FB [0x00] END_REQSTACK()
```

### Event 119

#### Metadata

| Field        | Value    |
|--------------|----------|
| Entrypoint   | 0x05FC   |
| Data Size    | 53 bytes |
| Instructions | 13       |

```
      00 01 02 03 04 05 06 07  08 09 0A 0B 0C 0D 0E 0F
      -- -- -- -- -- -- -- --  -- -- -- -- -- -- -- --
05F0:                                      42 4A FC 01              BJ..
0600: 05 01 F0 FF FF 7F 4A F0  FF FF 7F FC 01 05 01 2B  ......J........+
0610: FC 01 05 01 4C 80 23 2B  FC 01 05 01 4D 80 23 2B  ....L.#+....M.#+
0620: FC 01 05 01 4E 80 23 2B  FC 01 05 01 4F 80 23 21  ....N.#+....O.#!
0630: 00                                                .               
```

#### Opcodes

```
  0: 0x05FC [0x42] SET_CLI_EVENT_CANCEL_DATA()
  1: 0x05FD [0x4A] Louxiard (ID: 17105404/0x010501FC) looks at LocalPlayer
  2: 0x0606 [0x4A] LocalPlayer looks at Louxiard (ID: 17105404/0x010501FC)
  3: 0x060F [0x2B] Louxiard (ID: 17105404/0x010501FC) [14035*]:
    → "Wh-who goes there!?"
  4: 0x0616 [0x23] WAIT_FOR_DIALOG_INTERACTION
  5: 0x0617 [0x2B] Louxiard (ID: 17105404/0x010501FC) [14036*]:
    → "Egads! Startle me not, [man/woman]! I might have lopped off your head!"
  6: 0x061E [0x23] WAIT_FOR_DIALOG_INTERACTION
  7: 0x061F [0x2B] Louxiard (ID: 17105404/0x010501FC) [14037*]:
    → "What? You wish to join our forces north, and so are gathering signatures?"
  8: 0x0626 [0x23] WAIT_FOR_DIALOG_INTERACTION
  9: 0x0627 [0x2B] Louxiard (ID: 17105404/0x010501FC) [14038*]:
    → "I certainly have no reason to refuse such a request from one who offers to give to the Kingdom. Go well."
 10: 0x062E [0x23] WAIT_FOR_DIALOG_INTERACTION
 11: 0x062F [0x21] END_EVENT
 12: 0x0630 [0x00] END_REQSTACK()
```

### Event 120

#### Metadata

| Field        | Value    |
|--------------|----------|
| Entrypoint   | 0x0631   |
| Data Size    | 45 bytes |
| Instructions | 11       |

```
      00 01 02 03 04 05 06 07  08 09 0A 0B 0C 0D 0E 0F
      -- -- -- -- -- -- -- --  -- -- -- -- -- -- -- --
0630:    42 4A 00 02 05 01 F0  FF FF 7F 4A F0 FF FF 7F   BJ........J....
0640: 00 02 05 01 2B 00 02 05  01 50 80 23 2B 00 02 05  ....+....P.#+...
0650: 01 51 80 23 2B 00 02 05  01 52 80 23 21 00        .Q.#+....R.#!.  
```

#### Opcodes

```
  0: 0x0631 [0x42] SET_CLI_EVENT_CANCEL_DATA()
  1: 0x0632 [0x4A] Machionage (ID: 17105408/0x01050200) looks at LocalPlayer
  2: 0x063B [0x4A] LocalPlayer looks at Machionage (ID: 17105408/0x01050200)
  3: 0x0644 [0x2B] Machionage (ID: 17105408/0x01050200) [14039*]:
    → "Hm? Gathering signatures, you say?"
  4: 0x064B [0x23] WAIT_FOR_DIALOG_INTERACTION
  5: 0x064C [0x2B] Machionage (ID: 17105408/0x01050200) [14040*]:
    → "So you seek to join the Madder Falcons and the Red Roses on their mission to the Northlands..."
  6: 0x0653 [0x23] WAIT_FOR_DIALOG_INTERACTION
  7: 0x0654 [0x2B] Machionage (ID: 17105408/0x01050200) [14041*]:
    → "I'll lend my name to your cause, lest I be branded a quill-pincher. But whether a sheet of parchment scribbled with names would have any weight with the higher-ups..."
  8: 0x065B [0x23] WAIT_FOR_DIALOG_INTERACTION
  9: 0x065C [0x21] END_EVENT
 10: 0x065D [0x00] END_REQSTACK()
```

### Event 121

#### Metadata

| Field        | Value    |
|--------------|----------|
| Entrypoint   | 0x065E   |
| Data Size    | 45 bytes |
| Instructions | 11       |

```
      00 01 02 03 04 05 06 07  08 09 0A 0B 0C 0D 0E 0F
      -- -- -- -- -- -- -- --  -- -- -- -- -- -- -- --
0650:                                            42 4A                BJ
0660: EC 01 05 01 F0 FF FF 7F  4A F0 FF FF 7F EC 01 05  ........J.......
0670: 01 2B EC 01 05 01 53 80  23 2B EC 01 05 01 54 80  .+....S.#+....T.
0680: 23 2B EC 01 05 01 55 80  23 21 00                 #+....U.#!.     
```

#### Opcodes

```
  0: 0x065E [0x42] SET_CLI_EVENT_CANCEL_DATA()
  1: 0x065F [0x4A] Andagge (ID: 17105388/0x010501EC) looks at LocalPlayer
  2: 0x0668 [0x4A] LocalPlayer looks at Andagge (ID: 17105388/0x010501EC)
  3: 0x0671 [0x2B] Andagge (ID: 17105388/0x010501EC) [14042*]:
    → "Eh? You're petitioning to join our northbound troops?"
  4: 0x0678 [0x23] WAIT_FOR_DIALOG_INTERACTION
  5: 0x0679 [0x2B] Andagge (ID: 17105388/0x010501EC) [14043*]:
    → "Hmm... The Madder Falcons suffered heavy losses at the Battle of La Theine, and would benefit from every extra sword they can get."
  6: 0x0680 [0x23] WAIT_FOR_DIALOG_INTERACTION
  7: 0x0681 [0x2B] Andagge (ID: 17105388/0x010501EC) [14044*]:
    → "Very well. You have my signature, and my blessing, too."
  8: 0x0688 [0x23] WAIT_FOR_DIALOG_INTERACTION
  9: 0x0689 [0x21] END_EVENT
 10: 0x068A [0x00] END_REQSTACK()
```

### Event 122

#### Metadata

| Field        | Value    |
|--------------|----------|
| Entrypoint   | 0x068B   |
| Data Size    | 53 bytes |
| Instructions | 13       |

```
      00 01 02 03 04 05 06 07  08 09 0A 0B 0C 0D 0E 0F
      -- -- -- -- -- -- -- --  -- -- -- -- -- -- -- --
0680:                                   42 4A 4C 02 05             BJL..
0690: 01 F0 FF FF 7F 4A F0 FF  FF 7F 4C 02 05 01 2B 4C  .....J....L...+L
06A0: 02 05 01 56 80 23 2B 4C  02 05 01 57 80 23 2B 4C  ...V.#+L...W.#+L
06B0: 02 05 01 58 80 23 2B 4C  02 05 01 59 80 23 21 00  ...X.#+L...Y.#!.
```

#### Opcodes

```
  0: 0x068B [0x42] SET_CLI_EVENT_CANCEL_DATA()
  1: 0x068C [0x4A] Mailleronce (ID: 17105484/0x0105024C) looks at LocalPlayer
  2: 0x0695 [0x4A] LocalPlayer looks at Mailleronce (ID: 17105484/0x0105024C)
  3: 0x069E [0x2B] Mailleronce (ID: 17105484/0x0105024C) [14045*]:
    → "What's that you say? You require signatures in order to go to Valdeaunia and snatch the Troupe Mayakov dancers out from the jaws of death?"
  4: 0x06A5 [0x23] WAIT_FOR_DIALOG_INTERACTION
  5: 0x06A6 [0x2B] Mailleronce (ID: 17105484/0x0105024C) [14046*]:
    → "Is this t-true? Th-that the girls are in grave danger?"
  6: 0x06AD [0x23] WAIT_FOR_DIALOG_INTERACTION
  7: 0x06AE [0x2B] Mailleronce (ID: 17105484/0x0105024C) [14047*]:
    → "M-my apologies. I meant not to lose my composure over the news. I would be glad indeed to lend my voice to your cause."
  8: 0x06B5 [0x23] WAIT_FOR_DIALOG_INTERACTION
  9: 0x06B6 [0x2B] Mailleronce (ID: 17105484/0x0105024C) [14048*]:
    → "<Sigh>... Would that I could leave my post and go rescue those beauties myself..."
 10: 0x06BD [0x23] WAIT_FOR_DIALOG_INTERACTION
 11: 0x06BE [0x21] END_EVENT
 12: 0x06BF [0x00] END_REQSTACK()
```

### Event 123

#### Metadata

| Field        | Value    |
|--------------|----------|
| Entrypoint   | 0x06C0   |
| Data Size    | 53 bytes |
| Instructions | 13       |

```
      00 01 02 03 04 05 06 07  08 09 0A 0B 0C 0D 0E 0F
      -- -- -- -- -- -- -- --  -- -- -- -- -- -- -- --
06C0: 42 4A EE 01 05 01 F0 FF  FF 7F 4A F0 FF FF 7F EE  BJ........J.....
06D0: 01 05 01 2B EE 01 05 01  5A 80 23 2B EE 01 05 01  ...+....Z.#+....
06E0: 5B 80 23 2B EE 01 05 01  5C 80 23 2B EE 01 05 01  [.#+....\.#+....
06F0: 5D 80 23 21 00                                    ].#!.           
```

#### Opcodes

```
  0: 0x06C0 [0x42] SET_CLI_EVENT_CANCEL_DATA()
  1: 0x06C1 [0x4A] Aissaville (ID: 17105390/0x010501EE) looks at LocalPlayer
  2: 0x06CA [0x4A] LocalPlayer looks at Aissaville (ID: 17105390/0x010501EE)
  3: 0x06D3 [0x2B] Aissaville (ID: 17105390/0x010501EE) [14049*]:
    → "Ah, you must be Sir Ragelise's trusted comrade, <Player>. How fare you?"
  4: 0x06DA [0x23] WAIT_FOR_DIALOG_INTERACTION
  5: 0x06DB [0x2B] Aissaville (ID: 17105390/0x010501EE) [14050*]:
    → "...So that's why you're seeking signatures. I understand your predicament, and empathize with your cause. My name alone may not count for much, but I offer it without reserve."
  6: 0x06E2 [0x23] WAIT_FOR_DIALOG_INTERACTION
  7: 0x06E3 [0x2B] Aissaville (ID: 17105390/0x010501EE) [14051*]:
    → "Sir Ragelise is a great knight and an even greater man. His courage and valor have earned him the deep respect of the entire San d'Orian army."
  8: 0x06EA [0x23] WAIT_FOR_DIALOG_INTERACTION
  9: 0x06EB [0x2B] Aissaville (ID: 17105390/0x010501EE) [14052*]:
    → "A San d'Oria bereft of his inspirational leadership would be utterly unimaginable in these dark times."
 10: 0x06F2 [0x23] WAIT_FOR_DIALOG_INTERACTION
 11: 0x06F3 [0x21] END_EVENT
 12: 0x06F4 [0x00] END_REQSTACK()
```

### Event 124

#### Metadata

| Field        | Value    |
|--------------|----------|
| Entrypoint   | 0x06F5   |
| Data Size    | 53 bytes |
| Instructions | 13       |

```
      00 01 02 03 04 05 06 07  08 09 0A 0B 0C 0D 0E 0F
      -- -- -- -- -- -- -- --  -- -- -- -- -- -- -- --
06F0:                42 4A EA  01 05 01 F0 FF FF 7F 4A       BJ........J
0700: F0 FF FF 7F EA 01 05 01  2B EA 01 05 01 5E 80 23  ........+....^.#
0710: 2B EA 01 05 01 5F 80 23  2B EA 01 05 01 60 80 23  +...._.#+....`.#
0720: 2B EA 01 05 01 61 80 23  21 00                    +....a.#!.      
```

#### Opcodes

```
  0: 0x06F5 [0x42] SET_CLI_EVENT_CANCEL_DATA()
  1: 0x06F6 [0x4A] Remiotte (ID: 17105386/0x010501EA) looks at LocalPlayer
  2: 0x06FF [0x4A] LocalPlayer looks at Remiotte (ID: 17105386/0x010501EA)
  3: 0x0708 [0x2B] Remiotte (ID: 17105386/0x010501EA) [14053*]:
    → "Hm? Gathering signatures, are we?"
  4: 0x070F [0x23] WAIT_FOR_DIALOG_INTERACTION
  5: 0x0710 [0x2B] Remiotte (ID: 17105386/0x010501EA) [14054*]:
    → "So Sir Vestillet and Sir Noillurie and their respective units are bound for Valdeaunia..."
  6: 0x0717 [0x23] WAIT_FOR_DIALOG_INTERACTION
  7: 0x0718 [0x2B] Remiotte (ID: 17105386/0x010501EA) [14055*]:
    → "Pundits say that a fierce battle the likes of which has yet to be seen is set to erupt there."
  8: 0x071F [0x23] WAIT_FOR_DIALOG_INTERACTION
  9: 0x0720 [0x2B] Remiotte (ID: 17105386/0x010501EA) [14056*]:
    → "An extra hand to help thin out the beastman ranks cannot hurt, surely. You have my vote."
 10: 0x0727 [0x23] WAIT_FOR_DIALOG_INTERACTION
 11: 0x0728 [0x21] END_EVENT
 12: 0x0729 [0x00] END_REQSTACK()
```

### Event 125

#### Metadata

| Field        | Value     |
|--------------|-----------|
| Entrypoint   | 0x072A    |
| Data Size    | 898 bytes |
| Instructions | 132       |

```
      00 01 02 03 04 05 06 07  08 09 0A 0B 0C 0D 0E 0F
      -- -- -- -- -- -- -- --  -- -- -- -- -- -- -- --
0720:                                42 1A EE 57 46 01            B..WF.
0730: 38 00 80 2F 00 F3 01 05  01 4E 00 F3 01 05 01 4E  8../.....N.....N
0740: 00 F4 01 05 01 92 01 F3  01 05 01 92 01 F4 01 05  ................
0750: 01 94 01 F0 FF FF 7F 94  01 F3 01 05 01 94 01 F4  ................
0760: 01 05 01 BA F0 FF FF 7F  62 80 63 80 64 80 65 80  ........b.c.d.e.
0770: BA F3 01 05 01 66 80 67  80 64 80 68 80 80 F0 FF  .....f.g.d.h....
0780: FF 7F 80 F3 01 05 01 80  F4 01 05 01 4A F0 FF FF  ............J...
0790: 7F F3 01 05 01 4A F3 01  05 01 F0 FF FF 7F 4A F4  .....J........J.
07A0: 01 05 01 F0 FF FF 7F 1C  12 80 45 13 80 F0 FF FF  ..........E.....
07B0: 7F F0 FF FF 7F 30 32 30  30 11 80 1A CD 57 2B F3  .....0200....W+.
07C0: 01 05 01 69 80 23 66 6A  80 F3 01 05 01 F3 01 05  ...i.#fj........
07D0: 01 74 68 6B 31 2B F3 01  05 01 6B 80 1C 1B 80 23  .thk1+....k....#
07E0: 52 13 80 F0 FF FF 7F F0  FF FF 7F 30 32 30 30 45  R..........0200E
07F0: 13 80 F0 FF FF 7F F0 FF  FF 7F 30 32 30 31 11 80  ..........0201..
0800: 2B F3 01 05 01 6C 80 23  66 6A 80 F3 01 05 01 F3  +....l.#fj......
0810: 01 05 01 74 68 6B 32 2B  F3 01 05 01 6D 80 1C 1B  ...thk2+....m...
0820: 80 23 24 6E 80 11 80 11  80 25 02 00 10 11 80 00  .#$n.....%......
0830: 3A 08 03 01 10 11 80 01  5A 08 02 00 10 1D 80 00  :.......Z.......
0840: 4A 08 03 01 10 1D 80 01  5A 08 02 00 10 14 80 00  J.......Z.......
0850: 5A 08 03 01 10 14 80 01  5A 08 43 00 43 01 52 13  Z.......Z.C.C.R.
0860: 80 F0 FF FF 7F F0 FF FF  7F 30 32 30 31 45 13 80  .........0201E..
0870: F0 FF FF 7F F0 FF FF 7F  30 32 30 32 11 80 66 6F  ........0202..fo
0880: 80 F3 01 05 01 F3 01 05  01 70 6F 69 30 2B F3 01  .........poi0+..
0890: 05 01 70 80 1C 1B 80 23  66 6F 80 F3 01 05 01 F3  ..p....#fo......
08A0: 01 05 01 70 6F 69 31 24  71 80 11 80 11 80 25 02  ...poi1$q.....%.
08B0: 00 10 11 80 00 BF 08 03  01 10 72 80 01 DF 08 02  ..........r.....
08C0: 00 10 1D 80 00 CF 08 03  01 10 73 80 01 DF 08 02  ..........s.....
08D0: 00 10 14 80 00 DF 08 03  01 10 74 80 01 DF 08 43  ..........t....C
08E0: 00 43 01 52 13 80 F0 FF  FF 7F F0 FF FF 7F 30 32  .C.R..........02
08F0: 30 32 45 13 80 F0 FF FF  7F F0 FF FF 7F 30 32 30  02E..........020
0900: 33 11 80 66 6A 80 F3 01  05 01 F3 01 05 01 74 68  3..fj.........th
0910: 6B 31 2B F3 01 05 01 75  80 1C 1B 80 23 66 6A 80  k1+....u....#fj.
0920: F3 01 05 01 F3 01 05 01  74 68 6B 32 24 76 80 11  ........thk2$v..
0930: 80 11 80 25 02 00 10 11  80 00 44 09 03 01 10 32  ...%......D....2
0940: 80 01 64 09 02 00 10 1D  80 00 54 09 03 01 10 2C  ..d.......T....,
0950: 80 01 64 09 02 00 10 14  80 00 64 09 03 01 10 77  ..d.......d....w
0960: 80 01 64 09 43 00 43 01  52 13 80 F0 FF FF 7F F0  ..d.C.C.R.......
0970: FF FF 7F 30 32 30 33 45  13 80 F0 FF FF 7F F0 FF  ...0203E........
0980: FF 7F 30 32 30 34 11 80  03 01 10 78 80 43 00 43  ..0204.....x.C.C
0990: 01 02 02 10 73 80 04 59  0A 66 6A 80 F3 01 05 01  ....s..Y.fj.....
09A0: F3 01 05 01 74 6C 6B 30  2B F3 01 05 01 79 80 1C  ....tlk0+....y..
09B0: 1B 80 23 66 6A 80 F3 01  05 01 F3 01 05 01 74 6C  ..#fj.........tl
09C0: 6B 31 2B F3 01 05 01 7A  80 1C 1B 80 23 1A EE 57  k1+....z....#..W
09D0: 1C 22 80 52 13 80 F0 FF  FF 7F F0 FF FF 7F 30 32  .".R..........02
09E0: 30 34 45 13 80 F0 FF FF  7F F0 FF FF 7F 30 32 30  04E..........020
09F0: 35 11 80 1A CD 57 1C 7B  80 52 13 80 F0 FF FF 7F  5....W.{.R......
0A00: F0 FF FF 7F 30 32 30 35  45 13 80 F0 FF FF 7F F0  ....0205E.......
0A10: FF FF 7F 30 32 30 36 11  80 1C 17 80 52 13 80 F0  ...0206.....R...
0A20: FF FF 7F F0 FF FF 7F 30  32 30 36 45 13 80 F0 FF  .......0206E....
0A30: FF 7F F0 FF FF 7F 30 32  30 37 11 80 66 6A 80 F3  ......0207..fj..
0A40: 01 05 01 F3 01 05 01 70  61 73 30 2B F3 01 05 01  .......pas0+....
0A50: 7C 80 23 05 01 10 01 73  0A 66 6F 80 F3 01 05 01  |.#....s.fo.....
0A60: F3 01 05 01 64 69 73 30  2B F3 01 05 01 7D 80 23  ....dis0+....}.#
0A70: 06 01 10 1A EE 57 1C 12  80 52 13 80 F0 FF FF 7F  .....W...R......
0A80: F0 FF FF 7F 30 32 30 34  52 13 80 F0 FF FF 7F F0  ....0204R.......
0A90: FF FF 7F 30 32 30 36 46  00 45 31 80 F0 FF FF 7F  ...0206F.E1.....
0AA0: F0 FF FF 7F 66 64 69 32  11 80 21 00              ....fdi2..!.    
```

#### Opcodes

```
  0: 0x072A [0x42] SET_CLI_EVENT_CANCEL_DATA()
  1: 0x072B [0x1A] CALL_SUBROUTINE(address=0x57EE)
  2: 0x072E [0x46] CAMERA_CONTROL: Disable user control
  3: 0x0730 [0x38] SET_CLIENT_EVENT_MODE(mode=19*)
  4: 0x0733 [0x2F] Farouel (ID: 17105395/0x010501F3)->Render.Flags0 &= ~0x80000 // Bit 19
  5: 0x0739 [0x4E] SET_ENTITY_HIDE_FLAG: Show Farouel (ID: 17105395/0x010501F3)
  6: 0x073F [0x4E] SET_ENTITY_HIDE_FLAG: Show Touttaures (ID: 17105396/0x010501F4)
  7: 0x0745 [0x92] Farouel (ID: 17105395/0x010501F3)->Render.Flags3 ^= 0x01
  8: 0x074B [0x92] Touttaures (ID: 17105396/0x010501F4)->Render.Flags3 ^= 0x01
  9: 0x0751 [0x94] LocalPlayer->Render.Flags3 ^= 0x01
 10: 0x0757 [0x94] Farouel (ID: 17105395/0x010501F3)->Render.Flags3 ^= 0x01
 11: 0x075D [0x94] Touttaures (ID: 17105396/0x010501F4)->Render.Flags3 ^= 0x01
 12: 0x0763 [0xBA] SET_ENTITY_POSITION(entity_id=LocalPlayer, pos_x=95.492*, pos_z=51.493*, pos_y=3.999*, direction=189.6°*)
 13: 0x0770 [0xBA] SET_ENTITY_POSITION(entity_id=Farouel (ID: 17105395/0x010501F3), pos_x=93.510*, pos_z=51.744*, pos_y=3.999*, direction=51.4°*)
 14: 0x077D [0x80] LOAD_WAIT(entity=LocalPlayer)
 15: 0x0782 [0x80] LOAD_WAIT(entity=Farouel (ID: 17105395/0x010501F3))
 16: 0x0787 [0x80] LOAD_WAIT(entity=Touttaures (ID: 17105396/0x010501F4))
 17: 0x078C [0x4A] LocalPlayer looks at Farouel (ID: 17105395/0x010501F3)
 18: 0x0795 [0x4A] Farouel (ID: 17105395/0x010501F3) looks at LocalPlayer
 19: 0x079E [0x4A] Touttaures (ID: 17105396/0x010501F4) looks at LocalPlayer
 20: 0x07A7 [0x1C] WAIT(30* ticks)
 21: 0x07AA [0x45] LOAD_SCHEDULED_TASK: Load scheduler "0200" with entities [LocalPlayer, LocalPlayer], work=[501*, 0*]
 22: 0x07BB [0x1A] CALL_SUBROUTINE(address=0x57CD)
 23: 0x07BE [0x2B] Farouel (ID: 17105395/0x010501F3) [14057*]:
    → "What? You're gathering signatures for a petition to be allowed to head north with our troops?"
 24: 0x07C5 [0x23] WAIT_FOR_DIALOG_INTERACTION
 25: 0x07C6 [0x66] LOAD_EXT_SCHEDULER_MAIN: Load scheduler "thk1" with entities [Farouel (ID: 17105395/0x010501F3), Farouel (ID: 17105395/0x010501F3)], work=20*
 26: 0x07D5 [0x2B] Farouel (ID: 17105395/0x010501F3) [14058*]:
    → "I'm presently off duty, but I suppose that's neither here nor there..."
 27: 0x07DC [0x1C] WAIT(90* ticks)
 28: 0x07DF [0x23] WAIT_FOR_DIALOG_INTERACTION
 29: 0x07E0 [0x52] END_LOAD_SCHEDULER: End scheduler "0200" with entities [LocalPlayer, LocalPlayer], work=501*
 30: 0x07EF [0x45] LOAD_SCHEDULED_TASK: Load scheduler "0201" with entities [LocalPlayer, LocalPlayer], work=[501*, 0*]
 31: 0x0800 [0x2B] Farouel (ID: 17105395/0x010501F3) [14059*]:
    → "They say that the Northlands is a field of horrors, a veritable burial ground for the unprepared. If you must go, take all necessary precautions, and more..."
 32: 0x0807 [0x23] WAIT_FOR_DIALOG_INTERACTION
 33: 0x0808 [0x66] LOAD_EXT_SCHEDULER_MAIN: Load scheduler "thk2" with entities [Farouel (ID: 17105395/0x010501F3), Farouel (ID: 17105395/0x010501F3)], work=20*
 34: 0x0817 [0x2B] Farouel (ID: 17105395/0x010501F3) [14060*]:
    → "...Lest you have the ill fortune of stumbling into one of those fell creatures that prowl the Beaucedine Glacier."
 35: 0x081E [0x1C] WAIT(90* ticks)
 36: 0x0821 [0x23] WAIT_FOR_DIALOG_INTERACTION
 37: 0x0822 [0x24] CREATE_DIALOG(message_id=14061*, default_option=0*, option_flags=0*)
    → "What prowls the Beaucedine Glacier? [Raptors./Smilodons./Imps.]"
 38: 0x0829 [0x25] WAIT_DIALOG_SELECT()
 39: 0x082A [0x02] IF !(Work_Zone[0] == 0*) GOTO 0x083A
 40: 0x0832 [0x03] Work_Zone[1] = 0*
 41: 0x0837 [0x01] GOTO 0x085A
 42: 0x083A [0x02] IF !(Work_Zone[0] == 1*) GOTO 0x084A
 43: 0x0842 [0x03] Work_Zone[1] = 1*
 44: 0x0847 [0x01] GOTO 0x085A
 45: 0x084A [0x02] IF !(Work_Zone[0] == 2*) GOTO 0x085A
 46: 0x0852 [0x03] Work_Zone[1] = 2*
 47: 0x0857 [0x01] GOTO 0x085A

SUBROUTINE_085A:
 48: 0x085A [0x43] SEND_EVENT_UPDATE: Send pending tag to server (packet 0x005B)
 49: 0x085C [0x43] SEND_EVENT_UPDATE: Check pending flag (skip if not pending)
 50: 0x085E [0x52] END_LOAD_SCHEDULER: End scheduler "0201" with entities [LocalPlayer, LocalPlayer], work=501*
 51: 0x086D [0x45] LOAD_SCHEDULED_TASK: Load scheduler "0202" with entities [LocalPlayer, LocalPlayer], work=[501*, 0*]
 52: 0x087E [0x66] LOAD_EXT_SCHEDULER_MAIN: Load scheduler "poi0" with entities [Farouel (ID: 17105395/0x010501F3), Farouel (ID: 17105395/0x010501F3)], work=21*
 53: 0x088D [0x2B] Farouel (ID: 17105395/0x010501F3) [14062*]:
    → "And not to mention the dreadful beasts that call Xarcabard their home..."
 54: 0x0894 [0x1C] WAIT(90* ticks)
 55: 0x0897 [0x23] WAIT_FOR_DIALOG_INTERACTION
 56: 0x0898 [0x66] LOAD_EXT_SCHEDULER_MAIN: Load scheduler "poi1" with entities [Farouel (ID: 17105395/0x010501F3), Farouel (ID: 17105395/0x010501F3)], work=21*
 57: 0x08A7 [0x24] CREATE_DIALOG(message_id=14063*, default_option=0*, option_flags=0*)
    → "What calls Xarcabard its home? [Yagudo./Tauri./Gnoles.]"
 58: 0x08AE [0x25] WAIT_DIALOG_SELECT()
 59: 0x08AF [0x02] IF !(Work_Zone[0] == 0*) GOTO 0x08BF
 60: 0x08B7 [0x03] Work_Zone[1] = 3*
 61: 0x08BC [0x01] GOTO 0x08DF
 62: 0x08BF [0x02] IF !(Work_Zone[0] == 1*) GOTO 0x08CF
 63: 0x08C7 [0x03] Work_Zone[1] = 4*
 64: 0x08CC [0x01] GOTO 0x08DF
 65: 0x08CF [0x02] IF !(Work_Zone[0] == 2*) GOTO 0x08DF
 66: 0x08D7 [0x03] Work_Zone[1] = 5*
 67: 0x08DC [0x01] GOTO 0x08DF

SUBROUTINE_08DF:
 68: 0x08DF [0x43] SEND_EVENT_UPDATE: Send pending tag to server (packet 0x005B)
 69: 0x08E1 [0x43] SEND_EVENT_UPDATE: Check pending flag (skip if not pending)
 70: 0x08E3 [0x52] END_LOAD_SCHEDULER: End scheduler "0202" with entities [LocalPlayer, LocalPlayer], work=501*
 71: 0x08F2 [0x45] LOAD_SCHEDULED_TASK: Load scheduler "0203" with entities [LocalPlayer, LocalPlayer], work=[501*, 0*]
 72: 0x0903 [0x66] LOAD_EXT_SCHEDULER_MAIN: Load scheduler "thk1" with entities [Farouel (ID: 17105395/0x010501F3), Farouel (ID: 17105395/0x010501F3)], work=20*
 73: 0x0912 [0x2B] Farouel (ID: 17105395/0x010501F3) [14064*]:
    → "But of all the fearsome creatures that inhabit the glacier and Xarcabard both, none curdles the blood more than..."
 74: 0x0919 [0x1C] WAIT(90* ticks)
 75: 0x091C [0x23] WAIT_FOR_DIALOG_INTERACTION
 76: 0x091D [0x66] LOAD_EXT_SCHEDULER_MAIN: Load scheduler "thk2" with entities [Farouel (ID: 17105395/0x010501F3), Farouel (ID: 17105395/0x010501F3)], work=20*
 77: 0x092C [0x24] CREATE_DIALOG(message_id=14065*, default_option=0*, option_flags=0*)
    → "What inhabits both regions? [Gnoles./Smilodons./Ghosts.]"
 78: 0x0933 [0x25] WAIT_DIALOG_SELECT()
 79: 0x0934 [0x02] IF !(Work_Zone[0] == 0*) GOTO 0x0944
 80: 0x093C [0x03] Work_Zone[1] = 6*
 81: 0x0941 [0x01] GOTO 0x0964
 82: 0x0944 [0x02] IF !(Work_Zone[0] == 1*) GOTO 0x0954
 83: 0x094C [0x03] Work_Zone[1] = 7*
 84: 0x0951 [0x01] GOTO 0x0964
 85: 0x0954 [0x02] IF !(Work_Zone[0] == 2*) GOTO 0x0964
 86: 0x095C [0x03] Work_Zone[1] = 8*
 87: 0x0961 [0x01] GOTO 0x0964

SUBROUTINE_0964:
 88: 0x0964 [0x43] SEND_EVENT_UPDATE: Send pending tag to server (packet 0x005B)
 89: 0x0966 [0x43] SEND_EVENT_UPDATE: Check pending flag (skip if not pending)
 90: 0x0968 [0x52] END_LOAD_SCHEDULER: End scheduler "0203" with entities [LocalPlayer, LocalPlayer], work=501*
 91: 0x0977 [0x45] LOAD_SCHEDULED_TASK: Load scheduler "0204" with entities [LocalPlayer, LocalPlayer], work=[501*, 0*]
 92: 0x0988 [0x03] Work_Zone[1] = 9*
 93: 0x098D [0x43] SEND_EVENT_UPDATE: Send pending tag to server (packet 0x005B)
 94: 0x098F [0x43] SEND_EVENT_UPDATE: Check pending flag (skip if not pending)
 95: 0x0991 [0x02] IF !(Work_Zone[2] < 4*) GOTO 0x0A59
 96: 0x0999 [0x66] LOAD_EXT_SCHEDULER_MAIN: Load scheduler "tlk0" with entities [Farouel (ID: 17105395/0x010501F3), Farouel (ID: 17105395/0x010501F3)], work=20*
 97: 0x09A8 [0x2B] Farouel (ID: 17105395/0x010501F3) [14067*]:
    → "Yes, yes. Those are the creatures of which I speak. Lower your guard not for a second in their presence, or you'll find yourself homebound...in a casket."
 98: 0x09AF [0x1C] WAIT(90* ticks)
 99: 0x09B2 [0x23] WAIT_FOR_DIALOG_INTERACTION
100: 0x09B3 [0x66] LOAD_EXT_SCHEDULER_MAIN: Load scheduler "tlk1" with entities [Farouel (ID: 17105395/0x010501F3), Farouel (ID: 17105395/0x010501F3)], work=20*
101: 0x09C2 [0x2B] Farouel (ID: 17105395/0x010501F3) [14068*]:
    → "Very well. Wait here while I have my comrades add their signatures to my own."
102: 0x09C9 [0x1C] WAIT(90* ticks)
103: 0x09CC [0x23] WAIT_FOR_DIALOG_INTERACTION
104: 0x09CD [0x1A] CALL_SUBROUTINE(address=0x57EE)
105: 0x09D0 [0x1C] WAIT(120* ticks)
106: 0x09D3 [0x52] END_LOAD_SCHEDULER: End scheduler "0204" with entities [LocalPlayer, LocalPlayer], work=501*
107: 0x09E2 [0x45] LOAD_SCHEDULED_TASK: Load scheduler "0205" with entities [LocalPlayer, LocalPlayer], work=[501*, 0*]
108: 0x09F3 [0x1A] CALL_SUBROUTINE(address=0x57CD)
109: 0x09F6 [0x1C] WAIT(210* ticks)
110: 0x09F9 [0x52] END_LOAD_SCHEDULER: End scheduler "0205" with entities [LocalPlayer, LocalPlayer], work=501*
111: 0x0A08 [0x45] LOAD_SCHEDULED_TASK: Load scheduler "0206" with entities [LocalPlayer, LocalPlayer], work=[501*, 0*]
112: 0x0A19 [0x1C] WAIT(180* ticks)
113: 0x0A1C [0x52] END_LOAD_SCHEDULER: End scheduler "0206" with entities [LocalPlayer, LocalPlayer], work=501*
114: 0x0A2B [0x45] LOAD_SCHEDULED_TASK: Load scheduler "0207" with entities [LocalPlayer, LocalPlayer], work=[501*, 0*]
115: 0x0A3C [0x66] LOAD_EXT_SCHEDULER_MAIN: Load scheduler "pas0" with entities [Farouel (ID: 17105395/0x010501F3), Farouel (ID: 17105395/0x010501F3)], work=20*
116: 0x0A4B [0x2B] Farouel (ID: 17105395/0x010501F3) [14069*]:
    → "Here you are. May the Goddess watch over you."
117: 0x0A52 [0x23] WAIT_FOR_DIALOG_INTERACTION
118: 0x0A53 [0x05] Work_Zone[1] = 1
119: 0x0A56 [0x01] GOTO 0x0A73
120: 0x0A59 [0x66] LOAD_EXT_SCHEDULER_MAIN: Load scheduler "dis0" with entities [Farouel (ID: 17105395/0x010501F3), Farouel (ID: 17105395/0x010501F3)], work=21*
121: 0x0A68 [0x2B] Farouel (ID: 17105395/0x010501F3) [14066*]:
    → "What are you saying? Such creatures cannot be found there."
122: 0x0A6F [0x23] WAIT_FOR_DIALOG_INTERACTION
123: 0x0A70 [0x06] Work_Zone[1] = 0

SUBROUTINE_0A73:
124: 0x0A73 [0x1A] CALL_SUBROUTINE(address=0x57EE)
125: 0x0A76 [0x1C] WAIT(30* ticks)
126: 0x0A79 [0x52] END_LOAD_SCHEDULER: End scheduler "0204" with entities [LocalPlayer, LocalPlayer], work=501*
127: 0x0A88 [0x52] END_LOAD_SCHEDULER: End scheduler "0206" with entities [LocalPlayer, LocalPlayer], work=501*
128: 0x0A97 [0x46] CAMERA_CONTROL: Restore default settings
129: 0x0A99 [0x45] LOAD_SCHEDULED_TASK: Load scheduler "fdi2" with entities [LocalPlayer, LocalPlayer], work=[200*, 0*]
130: 0x0AAA [0x21] END_EVENT
131: 0x0AAB [0x00] END_REQSTACK()
```

### Event 126

#### Metadata

| Field        | Value     |
|--------------|-----------|
| Entrypoint   | 0x0AAC    |
| Data Size    | 836 bytes |
| Instructions | 135       |

```
      00 01 02 03 04 05 06 07  08 09 0A 0B 0C 0D 0E 0F
      -- -- -- -- -- -- -- --  -- -- -- -- -- -- -- --
0AA0:                                      42 1A EE 57              B..W
0AB0: 46 01 38 00 80 2F 00 F1  01 05 01 2F 00 E8 01 05  F.8../...../....
0AC0: 01 2F 00 EF 01 05 01 4E  00 F1 01 05 01 4E 00 E8  ./.....N.....N..
0AD0: 01 05 01 4E 00 EF 01 05  01 92 01 F1 01 05 01 92  ...N............
0AE0: 01 E8 01 05 01 92 01 EF  01 05 01 94 01 F0 FF FF  ................
0AF0: 7F 94 01 F1 01 05 01 94  01 E8 01 05 01 94 01 EF  ................
0B00: 01 05 01 BA F0 FF FF 7F  7E 80 7F 80 80 80 81 80  ........~.......
0B10: BA F1 01 05 01 82 80 83  80 80 80 84 80 80 F0 FF  ................
0B20: FF 7F 80 F1 01 05 01 80  E8 01 05 01 80 EF 01 05  ................
0B30: 01 4A F0 FF FF 7F F1 01  05 01 4A F1 01 05 01 F0  .J........J.....
0B40: FF FF 7F 1C 12 80 45 13  80 F0 FF FF 7F F0 FF FF  ......E.........
0B50: 7F 30 31 30 30 11 80 1A  CD 57 2B F1 01 05 01 85  .0100....W+.....
0B60: 80 23 2B F1 01 05 01 86  80 23 2B F1 01 05 01 87  .#+......#+.....
0B70: 80 23 6E F0 FF FF 7F 2C  80 99 F0 FF FF 7F 1C 88  .#n....,........
0B80: 80 52 13 80 F0 FF FF 7F  F0 FF FF 7F 30 31 30 30  .R..........0100
0B90: 45 13 80 F0 FF FF 7F F0  FF FF 7F 30 31 30 36 11  E..........0106.
0BA0: 80 6E F1 01 05 01 11 80  99 F1 01 05 01 2B F1 01  .n...........+..
0BB0: 05 01 89 80 23 24 8A 80  11 80 11 80 25 02 00 10  ....#$......%...
0BC0: 11 80 00 CD 0B 03 01 10  11 80 01 ED 0B 02 00 10  ................
0BD0: 1D 80 00 DD 0B 03 01 10  1D 80 01 ED 0B 02 00 10  ................
0BE0: 14 80 00 ED 0B 03 01 10  14 80 01 ED 0B 43 00 43  .............C.C
0BF0: 01 52 13 80 F0 FF FF 7F  F0 FF FF 7F 30 31 30 36  .R..........0106
0C00: 45 13 80 F0 FF FF 7F F0  FF FF 7F 30 31 30 31 11  E..........0101.
0C10: 80 2B F1 01 05 01 8B 80  23 24 8C 80 11 80 11 80  .+......#$......
0C20: 25 02 00 10 11 80 00 31  0C 03 01 10 72 80 01 51  %......1....r..Q
0C30: 0C 02 00 10 1D 80 00 41  0C 03 01 10 73 80 01 51  .......A....s..Q
0C40: 0C 02 00 10 14 80 00 51  0C 03 01 10 74 80 01 51  .......Q....t..Q
0C50: 0C 43 00 43 01 52 13 80  F0 FF FF 7F F0 FF FF 7F  .C.C.R..........
0C60: 30 31 30 31 45 13 80 F0  FF FF 7F F0 FF FF 7F 30  0101E..........0
0C70: 31 30 32 11 80 6E F1 01  05 01 37 80 99 F1 01 05  102..n....7.....
0C80: 01 2B F1 01 05 01 8D 80  23 24 8E 80 11 80 11 80  .+......#$......
0C90: 25 02 00 10 11 80 00 A1  0C 03 01 10 32 80 01 C1  %...........2...
0CA0: 0C 02 00 10 1D 80 00 B1  0C 03 01 10 2C 80 01 C1  ............,...
0CB0: 0C 02 00 10 14 80 00 C1  0C 03 01 10 77 80 01 C1  ............w...
0CC0: 0C 43 00 43 01 1C 88 80  03 01 10 78 80 43 00 43  .C.C.......x.C.C
0CD0: 01 02 02 10 73 80 04 80  0D 52 13 80 F0 FF FF 7F  ....s....R......
0CE0: F0 FF FF 7F 30 31 30 32  45 13 80 F0 FF FF 7F F0  ....0102E.......
0CF0: FF FF 7F 30 31 30 33 11  80 6E F1 01 05 01 37 80  ...0103..n....7.
0D00: 99 F1 01 05 01 2B F1 01  05 01 8F 80 23 52 13 80  .....+......#R..
0D10: F0 FF FF 7F F0 FF FF 7F  30 31 30 33 45 13 80 F0  ........0103E...
0D20: FF FF 7F F0 FF FF 7F 30  31 30 34 11 80 2B F1 01  .......0104..+..
0D30: 05 01 90 80 23 2B F1 01  05 01 91 80 23 1A EE 57  ....#+......#..W
0D40: 1C 22 80 52 13 80 F0 FF  FF 7F F0 FF FF 7F 30 31  .".R..........01
0D50: 30 34 45 13 80 F0 FF FF  7F F0 FF FF 7F 30 31 30  04E..........010
0D60: 35 11 80 1A CD 57 6E F1  01 05 01 11 80 99 F1 01  5....Wn.........
0D70: 05 01 2B F1 01 05 01 92  80 23 05 01 10 01 B7 0D  ..+......#......
0D80: 52 13 80 F0 FF FF 7F F0  FF FF 7F 30 31 30 32 45  R..........0102E
0D90: 13 80 F0 FF FF 7F F0 FF  FF 7F 30 31 30 33 11 80  ..........0103..
0DA0: 6E F1 01 05 01 3A 80 99  F1 01 05 01 2B F1 01 05  n....:......+...
0DB0: 01 93 80 23 06 01 10 1A  EE 57 1C 12 80 52 13 80  ...#.....W...R..
0DC0: F0 FF FF 7F F0 FF FF 7F  30 31 30 33 52 13 80 F0  ........0103R...
0DD0: FF FF 7F F0 FF FF 7F 30  31 30 35 46 00 45 31 80  .......0105F.E1.
0DE0: F0 FF FF 7F F0 FF FF 7F  66 64 69 32 11 80 21 00  ........fdi2..!.
```

#### Opcodes

```
  0: 0x0AAC [0x42] SET_CLI_EVENT_CANCEL_DATA()
  1: 0x0AAD [0x1A] CALL_SUBROUTINE(address=0x57EE)
  2: 0x0AB0 [0x46] CAMERA_CONTROL: Disable user control
  3: 0x0AB2 [0x38] SET_CLIENT_EVENT_MODE(mode=19*)
  4: 0x0AB5 [0x2F] Vichauxdat (ID: 17105393/0x010501F1)->Render.Flags0 &= ~0x80000 // Bit 19
  5: 0x0ABB [0x2F] Eumielle (ID: 17105384/0x010501E8)->Render.Flags0 &= ~0x80000 // Bit 19
  6: 0x0AC1 [0x2F] Raustigne (ID: 17105391/0x010501EF)->Render.Flags0 &= ~0x80000 // Bit 19
  7: 0x0AC7 [0x4E] SET_ENTITY_HIDE_FLAG: Show Vichauxdat (ID: 17105393/0x010501F1)
  8: 0x0ACD [0x4E] SET_ENTITY_HIDE_FLAG: Show Eumielle (ID: 17105384/0x010501E8)
  9: 0x0AD3 [0x4E] SET_ENTITY_HIDE_FLAG: Show Raustigne (ID: 17105391/0x010501EF)
 10: 0x0AD9 [0x92] Vichauxdat (ID: 17105393/0x010501F1)->Render.Flags3 ^= 0x01
 11: 0x0ADF [0x92] Eumielle (ID: 17105384/0x010501E8)->Render.Flags3 ^= 0x01
 12: 0x0AE5 [0x92] Raustigne (ID: 17105391/0x010501EF)->Render.Flags3 ^= 0x01
 13: 0x0AEB [0x94] LocalPlayer->Render.Flags3 ^= 0x01
 14: 0x0AF1 [0x94] Vichauxdat (ID: 17105393/0x010501F1)->Render.Flags3 ^= 0x01
 15: 0x0AF7 [0x94] Eumielle (ID: 17105384/0x010501E8)->Render.Flags3 ^= 0x01
 16: 0x0AFD [0x94] Raustigne (ID: 17105391/0x010501EF)->Render.Flags3 ^= 0x01
 17: 0x0B03 [0xBA] SET_ENTITY_POSITION(entity_id=LocalPlayer, pos_x=12.588*, pos_z=1.530*, pos_y=2.101*, direction=275.1°*)
 18: 0x0B10 [0xBA] SET_ENTITY_POSITION(entity_id=Vichauxdat (ID: 17105393/0x010501F1), pos_x=12.859*, pos_z=3.812*, pos_y=2.101*, direction=70.9°*)
 19: 0x0B1D [0x80] LOAD_WAIT(entity=LocalPlayer)
 20: 0x0B22 [0x80] LOAD_WAIT(entity=Vichauxdat (ID: 17105393/0x010501F1))
 21: 0x0B27 [0x80] LOAD_WAIT(entity=Eumielle (ID: 17105384/0x010501E8))
 22: 0x0B2C [0x80] LOAD_WAIT(entity=Raustigne (ID: 17105391/0x010501EF))
 23: 0x0B31 [0x4A] LocalPlayer looks at Vichauxdat (ID: 17105393/0x010501F1)
 24: 0x0B3A [0x4A] Vichauxdat (ID: 17105393/0x010501F1) looks at LocalPlayer
 25: 0x0B43 [0x1C] WAIT(30* ticks)
 26: 0x0B46 [0x45] LOAD_SCHEDULED_TASK: Load scheduler "0100" with entities [LocalPlayer, LocalPlayer], work=[501*, 0*]
 27: 0x0B57 [0x1A] CALL_SUBROUTINE(address=0x57CD)
 28: 0x0B5A [0x2B] Vichauxdat (ID: 17105393/0x010501F1) [14070*]:
    → "Hm? Gathering signatures for a petition, you say?"
 29: 0x0B61 [0x23] WAIT_FOR_DIALOG_INTERACTION
 30: 0x0B62 [0x2B] Vichauxdat (ID: 17105393/0x010501F1) [14071*]:
    → "That can wait. The Kingdom requires your cooperation for a more pressing matter."
 31: 0x0B69 [0x23] WAIT_FOR_DIALOG_INTERACTION
 32: 0x0B6A [0x2B] Vichauxdat (ID: 17105393/0x010501F1) [14072*]:
    → "I've been tasked, you see, with compiling a report detailing the military structure of the Beastman Confederate. It would put my mind at ease if I could crosscheck a number of facts with someone prior to submitting the final product to my commanding officer."
 33: 0x0B71 [0x23] WAIT_FOR_DIALOG_INTERACTION
 34: 0x0B72 [0x6E] LocalPlayer uses emote 7*
 35: 0x0B79 [0x99] Wait for LocalPlayer animation to complete
 36: 0x0B7E [0x1C] WAIT(60* ticks)
 37: 0x0B81 [0x52] END_LOAD_SCHEDULER: End scheduler "0100" with entities [LocalPlayer, LocalPlayer], work=501*
 38: 0x0B90 [0x45] LOAD_SCHEDULED_TASK: Load scheduler "0106" with entities [LocalPlayer, LocalPlayer], work=[501*, 0*]
 39: 0x0BA1 [0x6E] Vichauxdat (ID: 17105393/0x010501F1) uses emote 0*
 40: 0x0BA8 [0x99] Wait for Vichauxdat (ID: 17105393/0x010501F1) animation to complete
 41: 0x0BAD [0x2B] Vichauxdat (ID: 17105393/0x010501F1) [14073*]:
    → "Marvelous! I knew I could count on your aid! Now then, without further ado, my first question is with regards to the pigmen: how many Orcish units are scattered across Quon?"
 42: 0x0BB4 [0x23] WAIT_FOR_DIALOG_INTERACTION
 43: 0x0BB5 [0x24] CREATE_DIALOG(message_id=14074*, default_option=0*, option_flags=0*)
    → "How many Orcish units? [One./Three./Four.]"
 44: 0x0BBC [0x25] WAIT_DIALOG_SELECT()
 45: 0x0BBD [0x02] IF !(Work_Zone[0] == 0*) GOTO 0x0BCD
 46: 0x0BC5 [0x03] Work_Zone[1] = 0*
 47: 0x0BCA [0x01] GOTO 0x0BED
 48: 0x0BCD [0x02] IF !(Work_Zone[0] == 1*) GOTO 0x0BDD
 49: 0x0BD5 [0x03] Work_Zone[1] = 1*
 50: 0x0BDA [0x01] GOTO 0x0BED
 51: 0x0BDD [0x02] IF !(Work_Zone[0] == 2*) GOTO 0x0BED
 52: 0x0BE5 [0x03] Work_Zone[1] = 2*
 53: 0x0BEA [0x01] GOTO 0x0BED

SUBROUTINE_0BED:
 54: 0x0BED [0x43] SEND_EVENT_UPDATE: Send pending tag to server (packet 0x005B)
 55: 0x0BEF [0x43] SEND_EVENT_UPDATE: Check pending flag (skip if not pending)
 56: 0x0BF1 [0x52] END_LOAD_SCHEDULER: End scheduler "0106" with entities [LocalPlayer, LocalPlayer], work=501*
 57: 0x0C00 [0x45] LOAD_SCHEDULED_TASK: Load scheduler "0101" with entities [LocalPlayer, LocalPlayer], work=[501*, 0*]
 58: 0x0C11 [0x2B] Vichauxdat (ID: 17105393/0x010501F1) [14075*]:
    → "Moving on. What is the name of the unit led by the Orcish general One-eyed Gwajboj at the Battle of Jeuno?"
 59: 0x0C18 [0x23] WAIT_FOR_DIALOG_INTERACTION
 60: 0x0C19 [0x24] CREATE_DIALOG(message_id=14076*, default_option=0*, option_flags=0*)
    → "The name of One-eyed Gwajboj's unit? [Gravemakers./Gutrenders./Dismemberment Brigade.]"
 61: 0x0C20 [0x25] WAIT_DIALOG_SELECT()
 62: 0x0C21 [0x02] IF !(Work_Zone[0] == 0*) GOTO 0x0C31
 63: 0x0C29 [0x03] Work_Zone[1] = 3*
 64: 0x0C2E [0x01] GOTO 0x0C51
 65: 0x0C31 [0x02] IF !(Work_Zone[0] == 1*) GOTO 0x0C41
 66: 0x0C39 [0x03] Work_Zone[1] = 4*
 67: 0x0C3E [0x01] GOTO 0x0C51
 68: 0x0C41 [0x02] IF !(Work_Zone[0] == 2*) GOTO 0x0C51
 69: 0x0C49 [0x03] Work_Zone[1] = 5*
 70: 0x0C4E [0x01] GOTO 0x0C51

SUBROUTINE_0C51:
 71: 0x0C51 [0x43] SEND_EVENT_UPDATE: Send pending tag to server (packet 0x005B)
 72: 0x0C53 [0x43] SEND_EVENT_UPDATE: Check pending flag (skip if not pending)
 73: 0x0C55 [0x52] END_LOAD_SCHEDULER: End scheduler "0101" with entities [LocalPlayer, LocalPlayer], work=501*
 74: 0x0C64 [0x45] LOAD_SCHEDULED_TASK: Load scheduler "0102" with entities [LocalPlayer, LocalPlayer], work=[501*, 0*]
 75: 0x0C75 [0x6E] Vichauxdat (ID: 17105393/0x010501F1) uses emote 32*
 76: 0x0C7C [0x99] Wait for Vichauxdat (ID: 17105393/0x010501F1) animation to complete
 77: 0x0C81 [0x2B] Vichauxdat (ID: 17105393/0x010501F1) [14077*]:
    → "I see, I see... This brings me to the last question: what is the name of the Orc leader who commands the Orcish Hosts on Quon?"
 78: 0x0C88 [0x23] WAIT_FOR_DIALOG_INTERACTION
 79: 0x0C89 [0x24] CREATE_DIALOG(message_id=14078*, default_option=0*, option_flags=0*)
    → "The name of the Orc leader? [Grradhod./Rojgnoj./Gnadgad.]"
 80: 0x0C90 [0x25] WAIT_DIALOG_SELECT()
 81: 0x0C91 [0x02] IF !(Work_Zone[0] == 0*) GOTO 0x0CA1
 82: 0x0C99 [0x03] Work_Zone[1] = 6*
 83: 0x0C9E [0x01] GOTO 0x0CC1
 84: 0x0CA1 [0x02] IF !(Work_Zone[0] == 1*) GOTO 0x0CB1
 85: 0x0CA9 [0x03] Work_Zone[1] = 7*
 86: 0x0CAE [0x01] GOTO 0x0CC1
 87: 0x0CB1 [0x02] IF !(Work_Zone[0] == 2*) GOTO 0x0CC1
 88: 0x0CB9 [0x03] Work_Zone[1] = 8*
 89: 0x0CBE [0x01] GOTO 0x0CC1

SUBROUTINE_0CC1:
 90: 0x0CC1 [0x43] SEND_EVENT_UPDATE: Send pending tag to server (packet 0x005B)
 91: 0x0CC3 [0x43] SEND_EVENT_UPDATE: Check pending flag (skip if not pending)
 92: 0x0CC5 [0x1C] WAIT(60* ticks)
 93: 0x0CC8 [0x03] Work_Zone[1] = 9*
 94: 0x0CCD [0x43] SEND_EVENT_UPDATE: Send pending tag to server (packet 0x005B)
 95: 0x0CCF [0x43] SEND_EVENT_UPDATE: Check pending flag (skip if not pending)
 96: 0x0CD1 [0x02] IF !(Work_Zone[2] < 4*) GOTO 0x0D80
 97: 0x0CD9 [0x52] END_LOAD_SCHEDULER: End scheduler "0102" with entities [LocalPlayer, LocalPlayer], work=501*
 98: 0x0CE8 [0x45] LOAD_SCHEDULED_TASK: Load scheduler "0103" with entities [LocalPlayer, LocalPlayer], work=[501*, 0*]
 99: 0x0CF9 [0x6E] Vichauxdat (ID: 17105393/0x010501F1) uses emote 32*
100: 0x0D00 [0x99] Wait for Vichauxdat (ID: 17105393/0x010501F1) animation to complete
101: 0x0D05 [0x2B] Vichauxdat (ID: 17105393/0x010501F1) [14080*]:
    → "Hmmm, a sharp mind to match your sharp reflexes, I see."
102: 0x0D0C [0x23] WAIT_FOR_DIALOG_INTERACTION
103: 0x0D0D [0x52] END_LOAD_SCHEDULER: End scheduler "0103" with entities [LocalPlayer, LocalPlayer], work=501*
104: 0x0D1C [0x45] LOAD_SCHEDULED_TASK: Load scheduler "0104" with entities [LocalPlayer, LocalPlayer], work=[501*, 0*]
105: 0x0D2D [0x2B] Vichauxdat (ID: 17105393/0x010501F1) [14081*]:
    → "My apologies for having doubted you. I had to make certain that you would not be a liability if sent to the frontlines."
106: 0x0D34 [0x23] WAIT_FOR_DIALOG_INTERACTION
107: 0x0D35 [0x2B] Vichauxdat (ID: 17105393/0x010501F1) [14082*]:
    → "Wait here a moment."
108: 0x0D3C [0x23] WAIT_FOR_DIALOG_INTERACTION
109: 0x0D3D [0x1A] CALL_SUBROUTINE(address=0x57EE)
110: 0x0D40 [0x1C] WAIT(120* ticks)
111: 0x0D43 [0x52] END_LOAD_SCHEDULER: End scheduler "0104" with entities [LocalPlayer, LocalPlayer], work=501*
112: 0x0D52 [0x45] LOAD_SCHEDULED_TASK: Load scheduler "0105" with entities [LocalPlayer, LocalPlayer], work=[501*, 0*]
113: 0x0D63 [0x1A] CALL_SUBROUTINE(address=0x57CD)
114: 0x0D66 [0x6E] Vichauxdat (ID: 17105393/0x010501F1) uses emote 0*
115: 0x0D6D [0x99] Wait for Vichauxdat (ID: 17105393/0x010501F1) animation to complete
116: 0x0D72 [0x2B] Vichauxdat (ID: 17105393/0x010501F1) [14083*]:
    → "I've had other members of my unit sign your petition as well. Good luck."
117: 0x0D79 [0x23] WAIT_FOR_DIALOG_INTERACTION
118: 0x0D7A [0x05] Work_Zone[1] = 1
119: 0x0D7D [0x01] GOTO 0x0DB7
120: 0x0D80 [0x52] END_LOAD_SCHEDULER: End scheduler "0102" with entities [LocalPlayer, LocalPlayer], work=501*
121: 0x0D8F [0x45] LOAD_SCHEDULED_TASK: Load scheduler "0103" with entities [LocalPlayer, LocalPlayer], work=[501*, 0*]
122: 0x0DA0 [0x6E] Vichauxdat (ID: 17105393/0x010501F1) uses emote 22*
123: 0x0DA7 [0x99] Wait for Vichauxdat (ID: 17105393/0x010501F1) animation to complete
124: 0x0DAC [0x2B] Vichauxdat (ID: 17105393/0x010501F1) [14079*]:
    → "Your ambition far exceeds your knowledge, it seems. I fear I cannot in good conscience vouch for one such as you to join our forces north. Speak with me again after you've reviewed your military intelligence."
125: 0x0DB3 [0x23] WAIT_FOR_DIALOG_INTERACTION
126: 0x0DB4 [0x06] Work_Zone[1] = 0

SUBROUTINE_0DB7:
127: 0x0DB7 [0x1A] CALL_SUBROUTINE(address=0x57EE)
128: 0x0DBA [0x1C] WAIT(30* ticks)
129: 0x0DBD [0x52] END_LOAD_SCHEDULER: End scheduler "0103" with entities [LocalPlayer, LocalPlayer], work=501*
130: 0x0DCC [0x52] END_LOAD_SCHEDULER: End scheduler "0105" with entities [LocalPlayer, LocalPlayer], work=501*
131: 0x0DDB [0x46] CAMERA_CONTROL: Restore default settings
132: 0x0DDD [0x45] LOAD_SCHEDULED_TASK: Load scheduler "fdi2" with entities [LocalPlayer, LocalPlayer], work=[200*, 0*]
133: 0x0DEE [0x21] END_EVENT
134: 0x0DEF [0x00] END_REQSTACK()
```

### Event 127

#### Metadata

| Field        | Value     |
|--------------|-----------|
| Entrypoint   | 0x0DF0    |
| Data Size    | 936 bytes |
| Instructions | 150       |

```
      00 01 02 03 04 05 06 07  08 09 0A 0B 0C 0D 0E 0F
      -- -- -- -- -- -- -- --  -- -- -- -- -- -- -- --
0DF0: 42 1A EE 57 46 01 38 00  80 2F 00 EB 01 05 01 2F  B..WF.8../...../
0E00: 00 EE 01 05 01 2F 00 EF  01 05 01 2F 00 F1 01 05  ...../...../....
0E10: 01 2F 00 E8 01 05 01 2F  00 E9 01 05 01 4E 00 EB  ./...../.....N..
0E20: 01 05 01 4E 00 EE 01 05  01 4E 00 EF 01 05 01 4E  ...N.....N.....N
0E30: 00 F1 01 05 01 4E 00 E8  01 05 01 4E 00 E9 01 05  .....N.....N....
0E40: 01 92 01 EB 01 05 01 92  01 EE 01 05 01 92 01 EF  ................
0E50: 01 05 01 92 01 F1 01 05  01 92 01 E8 01 05 01 92  ................
0E60: 01 E9 01 05 01 94 01 F0  FF FF 7F 94 01 EB 01 05  ................
0E70: 01 94 01 EE 01 05 01 94  01 EF 01 05 01 94 01 F1  ................
0E80: 01 05 01 94 01 E8 01 05  01 94 01 E9 01 05 01 BA  ................
0E90: F0 FF FF 7F 94 80 95 80  96 80 97 80 BA EB 01 05  ................
0EA0: 01 98 80 99 80 9A 80 9B  80 80 F0 FF FF 7F 80 EB  ................
0EB0: 01 05 01 80 EE 01 05 01  80 EF 01 05 01 80 F1 01  ................
0EC0: 05 01 80 E8 01 05 01 80  E9 01 05 01 4A F0 FF FF  ............J...
0ED0: 7F EB 01 05 01 4A EB 01  05 01 F0 FF FF 7F 1C 12  .....J..........
0EE0: 80 45 13 80 F0 FF FF 7F  F0 FF FF 7F 30 33 30 30  .E..........0300
0EF0: 11 80 1A CD 57 2B EB 01  05 01 9C 80 23 52 13 80  ....W+......#R..
0F00: F0 FF FF 7F F0 FF FF 7F  30 33 30 30 45 13 80 F0  ........0300E...
0F10: FF FF 7F F0 FF FF 7F 30  33 30 31 11 80 66 19 80  .......0301..f..
0F20: EB 01 05 01 EB 01 05 01  74 77 62 30 2B EB 01 05  ........twb0+...
0F30: 01 9D 80 23 52 13 80 F0  FF FF 7F F0 FF FF 7F 30  ...#R..........0
0F40: 33 30 31 45 13 80 F0 FF  FF 7F F0 FF FF 7F 30 33  301E..........03
0F50: 30 34 11 80 66 19 80 EB  01 05 01 EB 01 05 01 74  04..f..........t
0F60: 77 62 31 2B EB 01 05 01  9E 80 23 52 13 80 F0 FF  wb1+......#R....
0F70: FF 7F F0 FF FF 7F 30 33  30 34 45 13 80 F0 FF FF  ......0304E.....
0F80: 7F F0 FF FF 7F 30 33 30  33 11 80 2B EB 01 05 01  .....0303..+....
0F90: 9F 80 23 24 A0 80 11 80  11 80 25 02 00 10 11 80  ..#$......%.....
0FA0: 00 AB 0F 03 01 10 11 80  01 CB 0F 02 00 10 1D 80  ................
0FB0: 00 BB 0F 03 01 10 1D 80  01 CB 0F 02 00 10 14 80  ................
0FC0: 00 CB 0F 03 01 10 14 80  01 CB 0F 43 00 43 01 24  ...........C.C.$
0FD0: A1 80 11 80 11 80 25 02  00 10 11 80 00 E7 0F 03  ......%.........
0FE0: 01 10 72 80 01 07 10 02  00 10 1D 80 00 F7 0F 03  ..r.............
0FF0: 01 10 73 80 01 07 10 02  00 10 14 80 00 07 10 03  ..s.............
1000: 01 10 74 80 01 07 10 43  00 43 01 24 A2 80 11 80  ..t....C.C.$....
1010: 11 80 25 02 00 10 11 80  00 23 10 03 01 10 32 80  ..%......#....2.
1020: 01 43 10 02 00 10 1D 80  00 33 10 03 01 10 2C 80  .C.......3....,.
1030: 01 43 10 02 00 10 14 80  00 43 10 03 01 10 77 80  .C.......C....w.
1040: 01 43 10 43 00 43 01 52  13 80 F0 FF FF 7F F0 FF  .C.C.C.R........
1050: FF 7F 30 33 30 33 45 13  80 F0 FF FF 7F F0 FF FF  ..0303E.........
1060: 7F 30 33 30 32 11 80 2B  EB 01 05 01 A3 80 23 24  .0302..+......#$
1070: A4 80 11 80 11 80 25 02  00 10 11 80 00 87 10 03  ......%.........
1080: 01 10 78 80 01 A7 10 02  00 10 1D 80 00 97 10 03  ..x.............
1090: 01 10 A5 80 01 A7 10 02  00 10 14 80 00 A7 10 03  ................
10A0: 01 10 A6 80 01 A7 10 43  00 43 01 52 13 80 F0 FF  .......C.C.R....
10B0: FF 7F F0 FF FF 7F 30 33  30 32 45 13 80 F0 FF FF  ......0302E.....
10C0: 7F F0 FF FF 7F 30 33 30  35 11 80 03 01 10 A7 80  .....0305.......
10D0: 43 00 43 01 02 02 10 73  80 04 48 11 66 19 80 EB  C.C....s..H.f...
10E0: 01 05 01 EB 01 05 01 74  77 62 30 2B EB 01 05 01  .......twb0+....
10F0: A8 80 1C 1B 80 23 66 19  80 EB 01 05 01 EB 01 05  .....#f.........
1100: 01 74 77 62 31 1A EE 57  1C 22 80 52 13 80 F0 FF  .twb1..W.".R....
1110: FF 7F F0 FF FF 7F 30 33  30 35 45 13 80 F0 FF FF  ......0305E.....
1120: 7F F0 FF FF 7F 30 33 30  36 11 80 1A CD 57 6E EB  .....0306....Wn.
1130: 01 05 01 11 80 99 EB 01  05 01 2B EB 01 05 01 A9  ..........+.....
1140: 80 23 05 01 10 01 5F 11  6E EB 01 05 01 3A 80 99  .#...._.n....:..
1150: EB 01 05 01 2B EB 01 05  01 AA 80 23 06 01 10 1A  ....+......#....
1160: EE 57 1C 12 80 52 13 80  F0 FF FF 7F F0 FF FF 7F  .W...R..........
1170: 30 33 30 35 52 13 80 F0  FF FF 7F F0 FF FF 7F 30  0305R..........0
1180: 33 30 36 46 00 45 31 80  F0 FF FF 7F F0 FF FF 7F  306F.E1.........
1190: 66 64 69 32 11 80 21 00                           fdi2..!.        
```

#### Opcodes

```
  0: 0x0DF0 [0x42] SET_CLI_EVENT_CANCEL_DATA()
  1: 0x0DF1 [0x1A] CALL_SUBROUTINE(address=0x57EE)
  2: 0x0DF4 [0x46] CAMERA_CONTROL: Disable user control
  3: 0x0DF6 [0x38] SET_CLIENT_EVENT_MODE(mode=19*)
  4: 0x0DF9 [0x2F] Aurfet (ID: 17105387/0x010501EB)->Render.Flags0 &= ~0x80000 // Bit 19
