# 17105541 - Judith

## Common Data

| Field            | Value                            |
|------------------|----------------------------------|
| Zone             | Southern San d'Oria [S] (ID: 80) |
| Block Size       | 2036 bytes                       |
| Total Events     | 67                               |
| References Count | 95                               |

## List of Events

| Event ID                   | Entrypoint   |   Size |   Instructions |
|----------------------------|--------------|--------|----------------|
| [65535](#event-65535)      | 0x0000       |      1 |              1 |
| [65535.1](#event-655351)   | 0x0001       |      1 |              1 |
| [65535.2](#event-655352)   | 0x0002       |     18 |              4 |
| [65535.3](#event-655353)   | 0x0014       |     10 |              2 |
| [65535.4](#event-655354)   | 0x001E       |      9 |              3 |
| [65535.5](#event-655355)   | 0x0027       |      9 |              3 |
| [65535.6](#event-655356)   | 0x0030       |     10 |              2 |
| [65535.7](#event-655357)   | 0x003A       |     10 |              2 |
| [70](#event-70)            | 0x0044       |      1 |              1 |
| [152](#event-152)          | 0x0045       |      1 |              1 |
| [65535.8](#event-655358)   | 0x0046       |     12 |              3 |
| [146](#event-146)          | 0x0052       |      1 |              1 |
| [65535.9](#event-655359)   | 0x0053       |     21 |              5 |
| [65535.10](#event-6553510) | 0x0068       |     21 |              5 |
| [149](#event-149)          | 0x007D       |      1 |              1 |
| [154](#event-154)          | 0x007E       |      1 |              1 |
| [65535.11](#event-6553511) | 0x007F       |     20 |              5 |
| [65535.12](#event-6553512) | 0x0093       |     19 |              4 |
| [65535.13](#event-6553513) | 0x00A6       |     19 |              3 |
| [65535.14](#event-6553514) | 0x00B9       |     21 |              3 |
| [65535.15](#event-6553515) | 0x00CE       |     21 |              3 |
| [65535.16](#event-6553516) | 0x00E3       |     45 |             10 |
| [65535.17](#event-6553517) | 0x0110       |     45 |             10 |
| [65535.18](#event-6553518) | 0x013D       |     69 |             14 |
| [65535.19](#event-6553519) | 0x0182       |     11 |              3 |
| [65535.20](#event-6553520) | 0x018D       |     13 |              3 |
| [65535.21](#event-6553521) | 0x019A       |     13 |              3 |
| [65535.22](#event-6553522) | 0x01A7       |     58 |             14 |
| [65535.23](#event-6553523) | 0x01E1       |    128 |             22 |
| [65535.24](#event-6553524) | 0x0261       |     45 |             10 |
| [65535.25](#event-6553525) | 0x028E       |     35 |              8 |
| [65535.26](#event-6553526) | 0x02B1       |     21 |              2 |
| [65535.27](#event-6553527) | 0x02C6       |     21 |              2 |
| [65535.28](#event-6553528) | 0x02DB       |     21 |              2 |
| [65535.29](#event-6553529) | 0x02F0       |     21 |              2 |
| [65535.30](#event-6553530) | 0x0305       |     21 |              2 |
| [65535.31](#event-6553531) | 0x031A       |     21 |              2 |
| [65535.32](#event-6553532) | 0x032F       |     21 |              2 |
| [65535.33](#event-6553533) | 0x0344       |     21 |              2 |
| [65535.34](#event-6553534) | 0x0359       |     21 |              2 |
| [65535.35](#event-6553535) | 0x036E       |     21 |              2 |
| [65535.36](#event-6553536) | 0x0383       |     21 |              2 |
| [65535.37](#event-6553537) | 0x0398       |     21 |              2 |
| [65535.38](#event-6553538) | 0x03AD       |     21 |              2 |
| [65535.39](#event-6553539) | 0x03C2       |     21 |              2 |
| [65535.40](#event-6553540) | 0x03D7       |     21 |              2 |
| [65535.41](#event-6553541) | 0x03EC       |     21 |              2 |
| [65535.42](#event-6553542) | 0x0401       |     21 |              2 |
| [65535.43](#event-6553543) | 0x0416       |     21 |              2 |
| [65535.44](#event-6553544) | 0x042B       |     21 |              2 |
| [65535.45](#event-6553545) | 0x0440       |     21 |              2 |
| [65535.46](#event-6553546) | 0x0455       |     21 |              2 |
| [65535.47](#event-6553547) | 0x046A       |     21 |              2 |
| [65535.48](#event-6553548) | 0x047F       |     21 |              2 |
| [65535.49](#event-6553549) | 0x0494       |     21 |              2 |
| [65535.50](#event-6553550) | 0x04A9       |     21 |              2 |
| [65535.51](#event-6553551) | 0x04BE       |     21 |              2 |
| [65535.52](#event-6553552) | 0x04D3       |     21 |              2 |
| [65535.53](#event-6553553) | 0x04E8       |     21 |              2 |
| [65535.54](#event-6553554) | 0x04FD       |     21 |              2 |
| [65535.55](#event-6553555) | 0x0512       |     21 |              2 |
| [65535.56](#event-6553556) | 0x0527       |     21 |              2 |
| [65535.57](#event-6553557) | 0x053C       |     21 |              2 |
| [65535.58](#event-6553558) | 0x0551       |      3 |              2 |
| [65535.59](#event-6553559) | 0x0554       |      3 |              2 |
| [166](#event-166)          | 0x0557       |      1 |              1 |
| [176](#event-176)          | 0x0558       |      1 |              1 |

## DAT References (imed_data)

|   Index | Hex Value   |   Dec Value |
|---------|-------------|-------------|
|       0 | 0x0000      |           0 |
|       1 | 0x0001      |           1 |
|       2 | 0x0080      |         128 |
|       3 | 0x1420D     |       82445 |
|       4 | 0x1D462     |      119906 |
|       5 | 0x0200      |         512 |
|       6 | 0x18B72     |      101234 |
|       7 | 0x1989B     |      104603 |
|       8 | 0x03E7      |         999 |
|       9 | 0x1BE7C     |      114300 |
|      10 | 0x19AFB     |      105211 |
|      11 | 0x000D      |          13 |
|      12 | 0x156B4     |       87732 |
|      13 | 0x1C4EE     |      115950 |
|      14 | 0x03E8      |        1000 |
|      15 | 0x18C87     |      101511 |
|      16 | 0x189B0     |      100784 |
|      17 | 0x003C      |          60 |
|      18 | 0x000B      |          11 |
|      19 | 0x148C5     |       84165 |
|      20 | 0x1D413     |      119827 |
|      21 | 0x147DF     |       83935 |
|      22 | 0x1DA56     |      121430 |
|      23 | 0x150EE     |       86254 |
|      24 | 0x1BBE7     |      113639 |
|      25 | 0x14B01     |       84737 |
|      26 | 0x1B917     |      112919 |
|      27 | 0x14373     |       82803 |
|      28 | 0x1B869     |      112745 |
|      29 | 0x1615C     |       90460 |
|      30 | 0x1B0BB     |      110779 |
|      31 | 0x16B7C     |       93052 |
|      32 | 0x1B930     |      112944 |
|      33 | 0x1746D     |       95341 |
|      34 | 0x1BC23     |      113699 |
|      35 | 0x15F48     |       89928 |
|      36 | 0x1B5C5     |      112069 |
|      37 | 0x15BC3     |       89027 |
|      38 | 0x1C9CF     |      117199 |
|      39 | 0x02EE      |         750 |
|      40 | 0x15B58     |       88920 |
|      41 | 0x1CCAE     |      117934 |
|      42 | 0x15CE7     |       89319 |
|      43 | 0x1D3BA     |      119738 |
|      44 | 0x171B4     |       94644 |
|      45 | 0x1C020     |      114720 |
|      46 | 0x062B      |        1579 |
|      47 | 0x00B4      |         180 |
|      48 | 0x001E      |          30 |
|      49 | 0x0007      |           7 |
|      50 | 0x005A      |          90 |
|      51 | 0x0050      |          80 |
|      52 | 0x0024      |          36 |
|      53 | 0x0064      |         100 |
|      54 | 0x0005      |           5 |
|      55 | 0x000E      |          14 |
|      56 | 0x162A9     |       90793 |
|      57 | 0x1B7C9     |      112585 |
|      58 | 0x15933     |       88371 |
|      59 | 0x1BEAB     |      114347 |
|      60 | 0x01F4      |         500 |
|      61 | 0x14A19     |       84505 |
|      62 | 0x1BCE0     |      113888 |
|      63 | 0x15A3C     |       88636 |
|      64 | 0x1B838     |      112696 |
|      65 | 0x0003      |           3 |
|      66 | 0x0017      |          23 |
|      67 | 0x0002      |           2 |
|      68 | 0x0068      |         104 |
|      69 | 0x0018      |          24 |
|      70 | 0x0006      |           6 |
|      71 | 0x0004      |           4 |
|      72 | 0x0015      |          21 |
|      73 | 0x0008      |           8 |
|      74 | 0x007D      |         125 |
|      75 | 0x0060      |          96 |
|      76 | 0x000F      |          15 |
|      77 | 0x0038      |          56 |
|      78 | 0x0029      |          41 |
|      79 | 0x00D9      |         217 |
|      80 | 0x000C      |          12 |
|      81 | 0x00DD      |         221 |
|      82 | 0x0028      |          40 |
|      83 | 0x0097      |         151 |
|      84 | 0x0009      |           9 |
|      85 | 0x00D3      |         211 |
|      86 | 0x00A4      |         164 |
|      87 | 0x0045      |          69 |
|      88 | 0x002F      |          47 |
|      89 | 0x001A      |          26 |
|      90 | 0x0072      |         114 |
|      91 | 0x003A      |          58 |
|      92 | 0x00D2      |         210 |
|      93 | 0x00FB      |         251 |
|      94 | 0x004C      |          76 |

## Events

### Event 65535

#### Metadata

| Field        | Value   |
|--------------|---------|
| Entrypoint   | 0x0000  |
| Data Size    | 1 bytes |
| Instructions | 1       |

```
      00 01 02 03 04 05 06 07  08 09 0A 0B 0C 0D 0E 0F
      -- -- -- -- -- -- -- --  -- -- -- -- -- -- -- --
0000: 00                                                .               
```

#### Opcodes

```
  0: 0x0000 [0x00] END_REQSTACK()
```

### Event 65535.1

#### Metadata

| Field        | Value   |
|--------------|---------|
| Entrypoint   | 0x0001  |
| Data Size    | 1 bytes |
| Instructions | 1       |

```
      00 01 02 03 04 05 06 07  08 09 0A 0B 0C 0D 0E 0F
      -- -- -- -- -- -- -- --  -- -- -- -- -- -- -- --
0000:    00                                              .              
```

#### Opcodes

```
  0: 0x0001 [0x00] END_REQSTACK()
```

### Event 65535.2

#### Metadata

| Field        | Value    |
|--------------|----------|
| Entrypoint   | 0x0002   |
| Data Size    | 18 bytes |
| Instructions | 4        |

```
      00 01 02 03 04 05 06 07  08 09 0A 0B 0C 0D 0E 0F
      -- -- -- -- -- -- -- --  -- -- -- -- -- -- -- --
0000:       22 00 2F 00 F8 FF  FF 7F 6C F8 FF FF 7F 00    "./.....l.....
0010: 80 01 80 00                                       ....            
```

#### Opcodes

```
  0: 0x0002 [0x22] ENTITY_HIDE_FLAG(enabled=0x00)
  1: 0x0004 [0x2F] EventEntity->Render.Flags0 &= ~0x80000 // Bit 19
  2: 0x000A [0x6C] FADE_ENTITY_COLOR(entity_id=EventEntity, end_alpha=0*, fade_time=1*)
  3: 0x0013 [0x00] END_REQSTACK()
```

### Event 65535.3

#### Metadata

| Field        | Value    |
|--------------|----------|
| Entrypoint   | 0x0014   |
| Data Size    | 10 bytes |
| Instructions | 2        |

```
      00 01 02 03 04 05 06 07  08 09 0A 0B 0C 0D 0E 0F
      -- -- -- -- -- -- -- --  -- -- -- -- -- -- -- --
0010:             6C F8 FF FF  7F 02 80 01 80 00            l.........  
```

#### Opcodes

```
  0: 0x0014 [0x6C] FADE_ENTITY_COLOR(entity_id=EventEntity, end_alpha=128*, fade_time=1*)
  1: 0x001D [0x00] END_REQSTACK()
```

### Event 65535.4

#### Metadata

| Field        | Value   |
|--------------|---------|
| Entrypoint   | 0x001E  |
| Data Size    | 9 bytes |
| Instructions | 3       |

```
      00 01 02 03 04 05 06 07  08 09 0A 0B 0C 0D 0E 0F
      -- -- -- -- -- -- -- --  -- -- -- -- -- -- -- --
0010:                                            22 00                ".
0020: 2F 00 F8 FF FF 7F 00                              /......         
```

#### Opcodes

```
  0: 0x001E [0x22] ENTITY_HIDE_FLAG(enabled=0x00)
  1: 0x0020 [0x2F] EventEntity->Render.Flags0 &= ~0x80000 // Bit 19
  2: 0x0026 [0x00] END_REQSTACK()
```

### Event 65535.5

#### Metadata

| Field        | Value   |
|--------------|---------|
| Entrypoint   | 0x0027  |
| Data Size    | 9 bytes |
| Instructions | 3       |

```
      00 01 02 03 04 05 06 07  08 09 0A 0B 0C 0D 0E 0F
      -- -- -- -- -- -- -- --  -- -- -- -- -- -- -- --
0020:                      22  01 2F 01 F8 FF FF 7F 00         "./......
```

#### Opcodes

```
  0: 0x0027 [0x22] ENTITY_HIDE_FLAG(enabled=0x01)
  1: 0x0029 [0x2F] EventEntity->Render.Flags0 |= 0x80000 // Bit 19
  2: 0x002F [0x00] END_REQSTACK()
```

### Event 65535.6

#### Metadata

| Field        | Value    |
|--------------|----------|
| Entrypoint   | 0x0030   |
| Data Size    | 10 bytes |
| Instructions | 2        |

```
      00 01 02 03 04 05 06 07  08 09 0A 0B 0C 0D 0E 0F
      -- -- -- -- -- -- -- --  -- -- -- -- -- -- -- --
0030: 6C F8 FF FF 7F 00 80 01  80 00                    l.........      
```

#### Opcodes

```
  0: 0x0030 [0x6C] FADE_ENTITY_COLOR(entity_id=EventEntity, end_alpha=0*, fade_time=1*)
  1: 0x0039 [0x00] END_REQSTACK()
```

### Event 65535.7

#### Metadata

| Field        | Value    |
|--------------|----------|
| Entrypoint   | 0x003A   |
| Data Size    | 10 bytes |
| Instructions | 2        |

```
      00 01 02 03 04 05 06 07  08 09 0A 0B 0C 0D 0E 0F
      -- -- -- -- -- -- -- --  -- -- -- -- -- -- -- --
0030:                                6C F8 FF FF 7F 02            l.....
0040: 80 01 80 00                                       ....            
```

#### Opcodes

```
  0: 0x003A [0x6C] FADE_ENTITY_COLOR(entity_id=EventEntity, end_alpha=128*, fade_time=1*)
  1: 0x0043 [0x00] END_REQSTACK()
```

### Event 70

#### Metadata

| Field        | Value   |
|--------------|---------|
| Entrypoint   | 0x0044  |
| Data Size    | 1 bytes |
| Instructions | 1       |

```
      00 01 02 03 04 05 06 07  08 09 0A 0B 0C 0D 0E 0F
      -- -- -- -- -- -- -- --  -- -- -- -- -- -- -- --
0040:             00                                        .           
```

#### Opcodes

```
  0: 0x0044 [0x00] END_REQSTACK()
```

### Event 152

#### Metadata

| Field        | Value   |
|--------------|---------|
| Entrypoint   | 0x0045  |
| Data Size    | 1 bytes |
| Instructions | 1       |

```
      00 01 02 03 04 05 06 07  08 09 0A 0B 0C 0D 0E 0F
      -- -- -- -- -- -- -- --  -- -- -- -- -- -- -- --
0040:                00                                      .          
```

#### Opcodes

```
  0: 0x0045 [0x00] END_REQSTACK()
```

### Event 65535.8

#### Metadata

| Field        | Value    |
|--------------|----------|
| Entrypoint   | 0x0046   |
| Data Size    | 12 bytes |
| Instructions | 3        |

```
      00 01 02 03 04 05 06 07  08 09 0A 0B 0C 0D 0E 0F
      -- -- -- -- -- -- -- --  -- -- -- -- -- -- -- --
0040:                   33 01  37 03 80 04 80 00 80 05        3.7.......
0050: 80 00                                             ..              
```

#### Opcodes

```
  0: 0x0046 [0x33] EventEntity->Render.Flags0 |= 0x200000 // Bit 21 (flag=0x01)
  1: 0x0048 [0x37] UPDATE_EVENT_POSITION_AND_DIR: x=82.445*, z=119.906*, y=0.000*, direction=45.0°*
  2: 0x0051 [0x00] END_REQSTACK()
```

### Event 146

#### Metadata

| Field        | Value   |
|--------------|---------|
| Entrypoint   | 0x0052  |
| Data Size    | 1 bytes |
| Instructions | 1       |

```
      00 01 02 03 04 05 06 07  08 09 0A 0B 0C 0D 0E 0F
      -- -- -- -- -- -- -- --  -- -- -- -- -- -- -- --
0050:       00                                            .             
```

#### Opcodes

```
  0: 0x0052 [0x00] END_REQSTACK()
```

### Event 65535.9

#### Metadata

| Field        | Value    |
|--------------|----------|
| Entrypoint   | 0x0053   |
| Data Size    | 21 bytes |
| Instructions | 5        |

```
      00 01 02 03 04 05 06 07  08 09 0A 0B 0C 0D 0E 0F
      -- -- -- -- -- -- -- --  -- -- -- -- -- -- -- --
0050:          1F 00 06 80 07  80 08 80 1F 01 6F 4A 85     ..........oJ.
0060: 02 05 01 F0 FF FF 7F 00                           ........        
```

#### Opcodes

```
  0: 0x0053 [0x1F] MOVE_ENTITY: EventEntity moves to X=101.234*, Z=104.603*, Y=0.999*
  1: 0x005B [0x1F] MOVE_ENTITY: Update entity position (mode=1)
  2: 0x005D [0x6F] WAIT_FRAME_DELAY: Yield until WaitTime reaches zero
  3: 0x005E [0x4A] Judith (ID: 17105541/0x01050285) looks at LocalPlayer
  4: 0x0067 [0x00] END_REQSTACK()
```

### Event 65535.10

#### Metadata

| Field        | Value    |
|--------------|----------|
| Entrypoint   | 0x0068   |
| Data Size    | 21 bytes |
| Instructions | 5        |

```
      00 01 02 03 04 05 06 07  08 09 0A 0B 0C 0D 0E 0F
      -- -- -- -- -- -- -- --  -- -- -- -- -- -- -- --
0060:                          1F 00 09 80 0A 80 00 80          ........
0070: 1F 01 6F 4A 85 02 05 01  EC 02 05 01 00           ..oJ.........   
```

#### Opcodes

```
  0: 0x0068 [0x1F] MOVE_ENTITY: EventEntity moves to X=114.300*, Z=105.211*, Y=0.000*
  1: 0x0070 [0x1F] MOVE_ENTITY: Update entity position (mode=1)
  2: 0x0072 [0x6F] WAIT_FRAME_DELAY: Yield until WaitTime reaches zero
  3: 0x0073 [0x4A] Judith (ID: 17105541/0x01050285) looks at Tanja (ID: 17105644/0x010502EC)
  4: 0x007C [0x00] END_REQSTACK()
```

### Event 149

#### Metadata

| Field        | Value   |
|--------------|---------|
| Entrypoint   | 0x007D  |
| Data Size    | 1 bytes |
| Instructions | 1       |

```
      00 01 02 03 04 05 06 07  08 09 0A 0B 0C 0D 0E 0F
      -- -- -- -- -- -- -- --  -- -- -- -- -- -- -- --
0070:                                         00                     .  
```

#### Opcodes

```
  0: 0x007D [0x00] END_REQSTACK()
```

### Event 154

#### Metadata

| Field        | Value   |
|--------------|---------|
| Entrypoint   | 0x007E  |
| Data Size    | 1 bytes |
| Instructions | 1       |

```
      00 01 02 03 04 05 06 07  08 09 0A 0B 0C 0D 0E 0F
      -- -- -- -- -- -- -- --  -- -- -- -- -- -- -- --
0070:                                            00                   . 
```

#### Opcodes

```
  0: 0x007E [0x00] END_REQSTACK()
```

### Event 65535.11

#### Metadata

| Field        | Value    |
|--------------|----------|
| Entrypoint   | 0x007F   |
| Data Size    | 20 bytes |
| Instructions | 5        |

```
      00 01 02 03 04 05 06 07  08 09 0A 0B 0C 0D 0E 0F
      -- -- -- -- -- -- -- --  -- -- -- -- -- -- -- --
0070:                                               59                 Y
0080: 04 F8 FF FF 7F 0B 80 1F  00 0C 80 0D 80 0E 80 1F  ................
0090: 01 6F 00                                          .o.             
```

#### Opcodes

```
  0: 0x007F [0x59] UPDATE_ENTITY_DATA: Set EventEntity main speed = 13* * 0.1
  1: 0x0087 [0x1F] MOVE_ENTITY: EventEntity moves to X=87.732*, Z=115.950*, Y=1.000*
  2: 0x008F [0x1F] MOVE_ENTITY: Update entity position (mode=1)
  3: 0x0091 [0x6F] WAIT_FRAME_DELAY: Yield until WaitTime reaches zero
  4: 0x0092 [0x00] END_REQSTACK()
```

### Event 65535.12

#### Metadata

| Field        | Value    |
|--------------|----------|
| Entrypoint   | 0x0093   |
| Data Size    | 19 bytes |
| Instructions | 4        |

```
      00 01 02 03 04 05 06 07  08 09 0A 0B 0C 0D 0E 0F
      -- -- -- -- -- -- -- --  -- -- -- -- -- -- -- --
0090:          59 04 F8 FF FF  7F 0B 80 1F 00 0F 80 10     Y............
00A0: 80 08 80 1F 01 00                                 ......          
```

#### Opcodes

```
  0: 0x0093 [0x59] UPDATE_ENTITY_DATA: Set EventEntity main speed = 13* * 0.1
  1: 0x009B [0x1F] MOVE_ENTITY: EventEntity moves to X=101.511*, Z=100.784*, Y=0.999*
  2: 0x00A3 [0x1F] MOVE_ENTITY: Update entity position (mode=1)
  3: 0x00A5 [0x00] END_REQSTACK()
```

### Event 65535.13

#### Metadata

| Field        | Value    |
|--------------|----------|
| Entrypoint   | 0x00A6   |
| Data Size    | 19 bytes |
| Instructions | 3        |

```
      00 01 02 03 04 05 06 07  08 09 0A 0B 0C 0D 0E 0F
      -- -- -- -- -- -- -- --  -- -- -- -- -- -- -- --
00A0:                   1C 11  80 5B 12 80 88 02 05 01        ...[......
00B0: 88 02 05 01 6D 61 65 31  00                       ....mae1.       
```

#### Opcodes

```
  0: 0x00A6 [0x1C] WAIT(60* ticks)
  1: 0x00A9 [0x5B] LOAD_EXT_SCHEDULER: Load scheduler "mae1" with entities [Hegouard (ID: 17105544/0x01050288), Hegouard (ID: 17105544/0x01050288)], work=11*
  2: 0x00B8 [0x00] END_REQSTACK()
```

### Event 65535.14

#### Metadata

| Field        | Value    |
|--------------|----------|
| Entrypoint   | 0x00B9   |
| Data Size    | 21 bytes |
| Instructions | 3        |

```
      00 01 02 03 04 05 06 07  08 09 0A 0B 0C 0D 0E 0F
      -- -- -- -- -- -- -- --  -- -- -- -- -- -- -- --
00B0:                             59 05 EC 02 05 01 01           Y......
00C0: BA EC 02 05 01 13 80 14  80 00 80 05 80 00        ..............  
```

#### Opcodes

```
  0: 0x00B9 [0x59] UPDATE_ENTITY_DATA: Tanja (ID: 17105644/0x010502EC)->Render.Flags0 |= 0x200000
  1: 0x00C0 [0xBA] SET_ENTITY_POSITION(entity_id=Tanja (ID: 17105644/0x010502EC), pos_x=84.165*, pos_z=119.827*, pos_y=0.000*, direction=45.0°*)
  2: 0x00CD [0x00] END_REQSTACK()
```

### Event 65535.15

#### Metadata

| Field        | Value    |
|--------------|----------|
| Entrypoint   | 0x00CE   |
| Data Size    | 21 bytes |
| Instructions | 3        |

```
      00 01 02 03 04 05 06 07  08 09 0A 0B 0C 0D 0E 0F
      -- -- -- -- -- -- -- --  -- -- -- -- -- -- -- --
00C0:                                            59 05                Y.
00D0: ED 02 05 01 01 BA ED 02  05 01 15 80 16 80 00 80  ................
00E0: 05 80 00                                          ...             
```

#### Opcodes

```
  0: 0x00CE [0x59] UPDATE_ENTITY_DATA: Raina (ID: 17105645/0x010502ED)->Render.Flags0 |= 0x200000
  1: 0x00D5 [0xBA] SET_ENTITY_POSITION(entity_id=Raina (ID: 17105645/0x010502ED), pos_x=83.935*, pos_z=121.430*, pos_y=0.000*, direction=45.0°*)
  2: 0x00E2 [0x00] END_REQSTACK()
```

### Event 65535.16

#### Metadata

| Field        | Value    |
|--------------|----------|
| Entrypoint   | 0x00E3   |
| Data Size    | 45 bytes |
| Instructions | 10       |

```
      00 01 02 03 04 05 06 07  08 09 0A 0B 0C 0D 0E 0F
      -- -- -- -- -- -- -- --  -- -- -- -- -- -- -- --
00E0:          7B F8 FF FF 7F  59 04 F8 FF FF 7F 0B 80     {....Y.......
00F0: 1F 00 17 80 18 80 0E 80  1F 01 1F 00 19 80 1A 80  ................
0100: 0E 80 1F 01 1F 00 1B 80  1C 80 0E 80 1F 01 6F 00  ..............o.
```

#### Opcodes

```
  0: 0x00E3 [0x7B] EventEntity stops talking
  1: 0x00E8 [0x59] UPDATE_ENTITY_DATA: Set EventEntity main speed = 13* * 0.1
  2: 0x00F0 [0x1F] MOVE_ENTITY: EventEntity moves to X=86.254*, Z=113.639*, Y=1.000*
  3: 0x00F8 [0x1F] MOVE_ENTITY: Update entity position (mode=1)
  4: 0x00FA [0x1F] MOVE_ENTITY: EventEntity moves to X=84.737*, Z=112.919*, Y=1.000*
  5: 0x0102 [0x1F] MOVE_ENTITY: Update entity position (mode=1)
  6: 0x0104 [0x1F] MOVE_ENTITY: EventEntity moves to X=82.803*, Z=112.745*, Y=1.000*
  7: 0x010C [0x1F] MOVE_ENTITY: Update entity position (mode=1)
  8: 0x010E [0x6F] WAIT_FRAME_DELAY: Yield until WaitTime reaches zero
  9: 0x010F [0x00] END_REQSTACK()
```

### Event 65535.17

#### Metadata

| Field        | Value    |
|--------------|----------|
| Entrypoint   | 0x0110   |
| Data Size    | 45 bytes |
| Instructions | 10       |

```
      00 01 02 03 04 05 06 07  08 09 0A 0B 0C 0D 0E 0F
      -- -- -- -- -- -- -- --  -- -- -- -- -- -- -- --
0110: 7B F8 FF FF 7F 59 04 F8  FF FF 7F 0B 80 1F 00 1D  {....Y..........
0120: 80 1E 80 00 80 1F 01 1F  00 1F 80 20 80 00 80 1F  ........... ....
0130: 01 1F 00 21 80 22 80 00  80 1F 01 6F 00           ...!.".....o.   
```

#### Opcodes

```
  0: 0x0110 [0x7B] EventEntity stops talking
  1: 0x0115 [0x59] UPDATE_ENTITY_DATA: Set EventEntity main speed = 13* * 0.1
  2: 0x011D [0x1F] MOVE_ENTITY: EventEntity moves to X=90.460*, Z=110.779*, Y=0.000*
  3: 0x0125 [0x1F] MOVE_ENTITY: Update entity position (mode=1)
  4: 0x0127 [0x1F] MOVE_ENTITY: EventEntity moves to X=93.052*, Z=112.944*, Y=0.000*
  5: 0x012F [0x1F] MOVE_ENTITY: Update entity position (mode=1)
  6: 0x0131 [0x1F] MOVE_ENTITY: EventEntity moves to X=95.341*, Z=113.699*, Y=0.000*
  7: 0x0139 [0x1F] MOVE_ENTITY: Update entity position (mode=1)
  8: 0x013B [0x6F] WAIT_FRAME_DELAY: Yield until WaitTime reaches zero
  9: 0x013C [0x00] END_REQSTACK()
```

### Event 65535.18

#### Metadata

| Field        | Value    |
|--------------|----------|
| Entrypoint   | 0x013D   |
| Data Size    | 69 bytes |
| Instructions | 14       |

```
      00 01 02 03 04 05 06 07  08 09 0A 0B 0C 0D 0E 0F
      -- -- -- -- -- -- -- --  -- -- -- -- -- -- -- --
0130:                                         7B F8 FF               {..
0140: FF 7F 59 04 F8 FF FF 7F  0B 80 1F 00 23 80 24 80  ..Y.........#.$.
0150: 00 80 1F 01 1F 00 25 80  26 80 27 80 1F 01 1F 00  ......%.&.'.....
0160: 28 80 29 80 08 80 1F 01  1F 00 2A 80 2B 80 0E 80  (.).......*.+...
0170: 1F 01 6F 4A F8 FF FF 7F  AE 02 05 01 7B F8 FF FF  ..oJ........{...
0180: 7F 00                                             ..              
```

#### Opcodes

```
  0: 0x013D [0x7B] EventEntity stops talking
  1: 0x0142 [0x59] UPDATE_ENTITY_DATA: Set EventEntity main speed = 13* * 0.1
  2: 0x014A [0x1F] MOVE_ENTITY: EventEntity moves to X=89.928*, Z=112.069*, Y=0.000*
  3: 0x0152 [0x1F] MOVE_ENTITY: Update entity position (mode=1)
  4: 0x0154 [0x1F] MOVE_ENTITY: EventEntity moves to X=89.027*, Z=117.199*, Y=0.750*
  5: 0x015C [0x1F] MOVE_ENTITY: Update entity position (mode=1)
  6: 0x015E [0x1F] MOVE_ENTITY: EventEntity moves to X=88.920*, Z=117.934*, Y=0.999*
  7: 0x0166 [0x1F] MOVE_ENTITY: Update entity position (mode=1)
  8: 0x0168 [0x1F] MOVE_ENTITY: EventEntity moves to X=89.319*, Z=119.738*, Y=1.000*
  9: 0x0170 [0x1F] MOVE_ENTITY: Update entity position (mode=1)
 10: 0x0172 [0x6F] WAIT_FRAME_DELAY: Yield until WaitTime reaches zero
 11: 0x0173 [0x4A] EventEntity looks at Vestillet (ID: 17105582/0x010502AE)
 12: 0x017C [0x7B] EventEntity stops talking
 13: 0x0181 [0x00] END_REQSTACK()
```

### Event 65535.19

#### Metadata

| Field        | Value    |
|--------------|----------|
| Entrypoint   | 0x0182   |
| Data Size    | 11 bytes |
| Instructions | 3        |

```
      00 01 02 03 04 05 06 07  08 09 0A 0B 0C 0D 0E 0F
      -- -- -- -- -- -- -- --  -- -- -- -- -- -- -- --
0180:       1F 00 2C 80 2D 80  00 80 1F 01 00             ..,.-......   
```

#### Opcodes

```
  0: 0x0182 [0x1F] MOVE_ENTITY: EventEntity moves to X=94.644*, Z=114.720*, Y=0.000*
  1: 0x018A [0x1F] MOVE_ENTITY: Update entity position (mode=1)
  2: 0x018C [0x00] END_REQSTACK()
```

### Event 65535.20

#### Metadata

| Field        | Value    |
|--------------|----------|
| Entrypoint   | 0x018D   |
| Data Size    | 13 bytes |
| Instructions | 3        |

```
      00 01 02 03 04 05 06 07  08 09 0A 0B 0C 0D 0E 0F
      -- -- -- -- -- -- -- --  -- -- -- -- -- -- -- --
0180:                                         6E F8 FF               n..
0190: FF 7F 0B 80 99 F8 FF FF  7F 00                    ..........      
```

#### Opcodes

```
  0: 0x018D [0x6E] EventEntity uses emote 13*
  1: 0x0194 [0x99] Wait for EventEntity animation to complete
  2: 0x0199 [0x00] END_REQSTACK()
```

### Event 65535.21

#### Metadata

| Field        | Value    |
|--------------|----------|
| Entrypoint   | 0x019A   |
| Data Size    | 13 bytes |
| Instructions | 3        |

```
      00 01 02 03 04 05 06 07  08 09 0A 0B 0C 0D 0E 0F
      -- -- -- -- -- -- -- --  -- -- -- -- -- -- -- --
0190:                                6E F8 FF FF 7F 2E            n.....
01A0: 80 99 F8 FF FF 7F 00                              .......         
```

#### Opcodes

```
  0: 0x019A [0x6E] EventEntity uses emote 1579*
  1: 0x01A1 [0x99] Wait for EventEntity animation to complete
  2: 0x01A6 [0x00] END_REQSTACK()
```

### Event 65535.22

#### Metadata

| Field        | Value    |
|--------------|----------|
| Entrypoint   | 0x01A7   |
| Data Size    | 58 bytes |
| Instructions | 14       |

```
      00 01 02 03 04 05 06 07  08 09 0A 0B 0C 0D 0E 0F
      -- -- -- -- -- -- -- --  -- -- -- -- -- -- -- --
01A0:                      1C  2F 80 1C 30 80 6E 0E 03         ./..0.n..
01B0: 05 01 31 80 99 0E 03 05  01 1C 11 80 6E 12 03 05  ..1.........n...
01C0: 01 31 80 99 12 03 05 01  1C 32 80 1C 33 80 6E 18  .1.......2..3.n.
01D0: 03 05 01 34 80 99 18 03  05 01 1C 35 80 1C 2F 80  ...4.......5../.
01E0: 00                                                .               
```

#### Opcodes

```
  0: 0x01A7 [0x1C] WAIT(180* ticks)
  1: 0x01AA [0x1C] WAIT(30* ticks)
  2: 0x01AD [0x6E] Leonoyne (ID: 17105678/0x0105030E) uses emote 7*
  3: 0x01B4 [0x99] Wait for Leonoyne (ID: 17105678/0x0105030E) animation to complete
  4: 0x01B9 [0x1C] WAIT(60* ticks)
  5: 0x01BC [0x6E] Febrenard C Brunnaut (ID: 17105682/0x01050312) uses emote 7*
  6: 0x01C3 [0x99] Wait for Febrenard C Brunnaut (ID: 17105682/0x01050312) animation to complete
  7: 0x01C8 [0x1C] WAIT(90* ticks)
  8: 0x01CB [0x1C] WAIT(80* ticks)
  9: 0x01CE [0x6E] 04 (ID: 17105688/0x01050318) uses emote 36*
 10: 0x01D5 [0x99] Wait for 04 (ID: 17105688/0x01050318) animation to complete
 11: 0x01DA [0x1C] WAIT(100* ticks)
 12: 0x01DD [0x1C] WAIT(180* ticks)
 13: 0x01E0 [0x00] END_REQSTACK()
```

### Event 65535.23

#### Metadata

| Field        | Value     |
|--------------|-----------|
| Entrypoint   | 0x01E1    |
| Data Size    | 128 bytes |
| Instructions | 22        |

```
      00 01 02 03 04 05 06 07  08 09 0A 0B 0C 0D 0E 0F
      -- -- -- -- -- -- -- --  -- -- -- -- -- -- -- --
01E0:    27 10 14 03 05 01 14  1C 36 80 27 10 12 03 05   '.......6.'....
01F0: 01 12 27 10 18 03 05 01  14 27 10 10 03 05 01 12  ..'......'......
0200: 6E ED 02 05 01 37 80 99  ED 02 05 01 27 10 19 03  n....7......'...
0210: 05 01 13 27 10 1B 03 05  01 14 6E 17 03 05 01 0B  ...'......n.....
0220: 80 99 17 03 05 01 27 10  1A 03 05 01 13 6E 13 03  ......'......n..
0230: 05 01 0B 80 99 13 03 05  01 1C 36 80 27 10 11 03  ..........6.'...
0240: 05 01 12 27 10 0F 03 05  01 12 1C 36 80 27 10 0E  ...'.......6.'..
0250: 03 05 01 12 6E AE 02 05  01 0B 80 99 AE 02 05 01  ....n...........
0260: 00                                                .               
```

#### Opcodes

```
  0: 0x01E1 [0x27] REQ_SET(priority=0x10, entity_id=Unnamed NPC (ID: 17105684/0x01050314), tag_num=0x14)
  1: 0x01E8 [0x1C] WAIT(5* ticks)
  2: 0x01EB [0x27] REQ_SET(priority=0x10, entity_id=Febrenard C Brunnaut (ID: 17105682/0x01050312), tag_num=0x12)
  3: 0x01F2 [0x27] REQ_SET(priority=0x10, entity_id=04 (ID: 17105688/0x01050318), tag_num=0x14)
  4: 0x01F9 [0x27] REQ_SET(priority=0x10, entity_id=Laisavie X Berlends (ID: 17105680/0x01050310), tag_num=0x12)
  5: 0x0200 [0x6E] Raina (ID: 17105645/0x010502ED) uses emote 14*
  6: 0x0207 [0x99] Wait for Raina (ID: 17105645/0x010502ED) animation to complete
  7: 0x020C [0x27] REQ_SET(priority=0x10, entity_id=05 (ID: 17105689/0x01050319), tag_num=0x13)
  8: 0x0213 [0x27] REQ_SET(priority=0x10, entity_id=07 (ID: 17105691/0x0105031B), tag_num=0x14)
  9: 0x021A [0x6E] 03 (ID: 17105687/0x01050317) uses emote 13*
 10: 0x0221 [0x99] Wait for 03 (ID: 17105687/0x01050317) animation to complete
 11: 0x0226 [0x27] REQ_SET(priority=0x10, entity_id=06 (ID: 17105690/0x0105031A), tag_num=0x13)
 12: 0x022D [0x6E] Noillurie (ID: 17105683/0x01050313) uses emote 13*
 13: 0x0234 [0x99] Wait for Noillurie (ID: 17105683/0x01050313) animation to complete
 14: 0x0239 [0x1C] WAIT(5* ticks)
 15: 0x023C [0x27] REQ_SET(priority=0x10, entity_id=Mieuseloir B Enchelles (ID: 17105681/0x01050311), tag_num=0x12)
 16: 0x0243 [0x27] REQ_SET(priority=0x10, entity_id=Feldrautte I Rouhent (ID: 17105679/0x0105030F), tag_num=0x12)
 17: 0x024A [0x1C] WAIT(5* ticks)
 18: 0x024D [0x27] REQ_SET(priority=0x10, entity_id=Leonoyne (ID: 17105678/0x0105030E), tag_num=0x12)
 19: 0x0254 [0x6E] Vestillet (ID: 17105582/0x010502AE) uses emote 13*
 20: 0x025B [0x99] Wait for Vestillet (ID: 17105582/0x010502AE) animation to complete
 21: 0x0260 [0x00] END_REQSTACK()
```

### Event 65535.24

#### Metadata

| Field        | Value    |
|--------------|----------|
| Entrypoint   | 0x0261   |
| Data Size    | 45 bytes |
| Instructions | 10       |

```
      00 01 02 03 04 05 06 07  08 09 0A 0B 0C 0D 0E 0F
      -- -- -- -- -- -- -- --  -- -- -- -- -- -- -- --
0260:    7B F8 FF FF 7F 59 04  F8 FF FF 7F 0B 80 1F 00   {....Y.........
0270: 38 80 39 80 00 80 1F 01  1F 00 3A 80 3B 80 3C 80  8.9.......:.;.<.
0280: 1F 01 1F 00 3D 80 3E 80  0E 80 1F 01 6F 00        ....=.>.....o.  
```

#### Opcodes

```
  0: 0x0261 [0x7B] EventEntity stops talking
  1: 0x0266 [0x59] UPDATE_ENTITY_DATA: Set EventEntity main speed = 13* * 0.1
  2: 0x026E [0x1F] MOVE_ENTITY: EventEntity moves to X=90.793*, Z=112.585*, Y=0.000*
  3: 0x0276 [0x1F] MOVE_ENTITY: Update entity position (mode=1)
  4: 0x0278 [0x1F] MOVE_ENTITY: EventEntity moves to X=88.371*, Z=114.347*, Y=0.500*
  5: 0x0280 [0x1F] MOVE_ENTITY: Update entity position (mode=1)
  6: 0x0282 [0x1F] MOVE_ENTITY: EventEntity moves to X=84.505*, Z=113.888*, Y=1.000*
  7: 0x028A [0x1F] MOVE_ENTITY: Update entity position (mode=1)
  8: 0x028C [0x6F] WAIT_FRAME_DELAY: Yield until WaitTime reaches zero
  9: 0x028D [0x00] END_REQSTACK()
```

### Event 65535.25

#### Metadata

| Field        | Value    |
|--------------|----------|
| Entrypoint   | 0x028E   |
| Data Size    | 35 bytes |
| Instructions | 8        |

```
      00 01 02 03 04 05 06 07  08 09 0A 0B 0C 0D 0E 0F
      -- -- -- -- -- -- -- --  -- -- -- -- -- -- -- --
0280:                                            4A F8                J.
0290: FF FF 7F EC 02 05 01 6F  76 F8 FF FF 7F 59 04 F8  .......ov....Y..
02A0: FF FF 7F 0B 80 1F 00 3F  80 40 80 00 80 1F 01 6F  .......?.@.....o
02B0: 00                                                .               
```

#### Opcodes

```
  0: 0x028E [0x4A] EventEntity looks at Tanja (ID: 17105644/0x010502EC)
  1: 0x0297 [0x6F] WAIT_FRAME_DELAY: Yield until WaitTime reaches zero
  2: 0x0298 [0x76] CHECK_ENTITY_RENDER_FLAGS: Wait until EventEntity Render.Flags0 and Render.Flags3 conditions are met
  3: 0x029D [0x59] UPDATE_ENTITY_DATA: Set EventEntity main speed = 13* * 0.1
  4: 0x02A5 [0x1F] MOVE_ENTITY: EventEntity moves to X=88.636*, Z=112.696*, Y=0.000*
  5: 0x02AD [0x1F] MOVE_ENTITY: Update entity position (mode=1)
  6: 0x02AF [0x6F] WAIT_FRAME_DELAY: Yield until WaitTime reaches zero
  7: 0x02B0 [0x00] END_REQSTACK()
```

### Event 65535.26

#### Metadata

| Field        | Value    |
|--------------|----------|
| Entrypoint   | 0x02B1   |
| Data Size    | 21 bytes |
| Instructions | 2        |

```
      00 01 02 03 04 05 06 07  08 09 0A 0B 0C 0D 0E 0F
      -- -- -- -- -- -- -- --  -- -- -- -- -- -- -- --
02B0:    B6 0B 41 80 12 80 42  80 42 80 42 80 42 80 42   ..A...B.B.B.B.B
02C0: 80 00 80 00 80 00                                 ......          
```

#### Opcodes

```
  0: 0x02B1 [0xB6] ENTITY_APPEARANCE_HANDLER(case=Full entity look, race=3*, hair=11*, head=23*, body=23*, hands=23*, legs=23*, feet=23*, main=0*, sub=0*)
  1: 0x02C5 [0x00] END_REQSTACK()
```

### Event 65535.27

#### Metadata

| Field        | Value    |
|--------------|----------|
| Entrypoint   | 0x02C6   |
| Data Size    | 21 bytes |
| Instructions | 2        |

```
      00 01 02 03 04 05 06 07  08 09 0A 0B 0C 0D 0E 0F
      -- -- -- -- -- -- -- --  -- -- -- -- -- -- -- --
02C0:                   B6 0B  43 80 41 80 42 80 44 80        ..C.A.B.D.
02D0: 42 80 42 80 42 80 00 80  00 80 00                 B.B.B......     
```

#### Opcodes

```
  0: 0x02C6 [0xB6] ENTITY_APPEARANCE_HANDLER(case=Full entity look, race=2*, hair=3*, head=23*, body=104*, hands=23*, legs=23*, feet=23*, main=0*, sub=0*)
  1: 0x02DA [0x00] END_REQSTACK()
```

### Event 65535.28

#### Metadata

| Field        | Value    |
|--------------|----------|
| Entrypoint   | 0x02DB   |
| Data Size    | 21 bytes |
| Instructions | 2        |

```
      00 01 02 03 04 05 06 07  08 09 0A 0B 0C 0D 0E 0F
      -- -- -- -- -- -- -- --  -- -- -- -- -- -- -- --
02D0:                                   B6 0B 36 80 36             ..6.6
02E0: 80 45 80 45 80 45 80 45  80 45 80 00 80 00 80 00  .E.E.E.E.E......
```

#### Opcodes

```
  0: 0x02DB [0xB6] ENTITY_APPEARANCE_HANDLER(case=Full entity look, race=5*, hair=5*, head=24*, body=24*, hands=24*, legs=24*, feet=24*, main=0*, sub=0*)
  1: 0x02EF [0x00] END_REQSTACK()
```

### Event 65535.29

#### Metadata

| Field        | Value    |
|--------------|----------|
| Entrypoint   | 0x02F0   |
| Data Size    | 21 bytes |
| Instructions | 2        |

```
      00 01 02 03 04 05 06 07  08 09 0A 0B 0C 0D 0E 0F
      -- -- -- -- -- -- -- --  -- -- -- -- -- -- -- --
02F0: B6 0B 31 80 46 80 42 80  42 80 42 80 42 80 42 80  ..1.F.B.B.B.B.B.
0300: 00 80 00 80 00                                    .....           
```

#### Opcodes

```
  0: 0x02F0 [0xB6] ENTITY_APPEARANCE_HANDLER(case=Full entity look, race=7*, hair=6*, head=23*, body=23*, hands=23*, legs=23*, feet=23*, main=0*, sub=0*)
  1: 0x0304 [0x00] END_REQSTACK()
```

### Event 65535.30

#### Metadata

| Field        | Value    |
|--------------|----------|
| Entrypoint   | 0x0305   |
| Data Size    | 21 bytes |
| Instructions | 2        |

```
      00 01 02 03 04 05 06 07  08 09 0A 0B 0C 0D 0E 0F
      -- -- -- -- -- -- -- --  -- -- -- -- -- -- -- --
0300:                B6 0B 47  80 41 80 00 80 48 80 48       ..G.A...H.H
0310: 80 48 80 48 80 00 80 00  80 00                    .H.H......      
```

#### Opcodes

```
  0: 0x0305 [0xB6] ENTITY_APPEARANCE_HANDLER(case=Full entity look, race=4*, hair=3*, head=0*, body=21*, hands=21*, legs=21*, feet=21*, main=0*, sub=0*)
  1: 0x0319 [0x00] END_REQSTACK()
```

### Event 65535.31

#### Metadata

| Field        | Value    |
|--------------|----------|
| Entrypoint   | 0x031A   |
| Data Size    | 21 bytes |
| Instructions | 2        |

```
      00 01 02 03 04 05 06 07  08 09 0A 0B 0C 0D 0E 0F
      -- -- -- -- -- -- -- --  -- -- -- -- -- -- -- --
0310:                                B6 0B 49 80 00 80            ..I...
0320: 4A 80 4B 80 4B 80 4B 80  4B 80 00 80 00 80 00     J.K.K.K.K...... 
```

#### Opcodes

```
  0: 0x031A [0xB6] ENTITY_APPEARANCE_HANDLER(case=Full entity look, race=8*, hair=0*, head=125*, body=96*, hands=96*, legs=96*, feet=96*, main=0*, sub=0*)
  1: 0x032E [0x00] END_REQSTACK()
```

### Event 65535.32

#### Metadata

| Field        | Value    |
|--------------|----------|
| Entrypoint   | 0x032F   |
| Data Size    | 21 bytes |
| Instructions | 2        |

```
      00 01 02 03 04 05 06 07  08 09 0A 0B 0C 0D 0E 0F
      -- -- -- -- -- -- -- --  -- -- -- -- -- -- -- --
0320:                                               B6                 .
0330: 0B 49 80 41 80 4A 80 4B  80 4B 80 4B 80 4B 80 00  .I.A.J.K.K.K.K..
0340: 80 00 80 00                                       ....            
```

#### Opcodes

```
  0: 0x032F [0xB6] ENTITY_APPEARANCE_HANDLER(case=Full entity look, race=8*, hair=3*, head=125*, body=96*, hands=96*, legs=96*, feet=96*, main=0*, sub=0*)
  1: 0x0343 [0x00] END_REQSTACK()
```

### Event 65535.33

#### Metadata

| Field        | Value    |
|--------------|----------|
| Entrypoint   | 0x0344   |
| Data Size    | 21 bytes |
| Instructions | 2        |

```
      00 01 02 03 04 05 06 07  08 09 0A 0B 0C 0D 0E 0F
      -- -- -- -- -- -- -- --  -- -- -- -- -- -- -- --
0340:             B6 0B 41 80  4C 80 4D 80 4E 80 4F 80      ..A.L.M.N.O.
0350: 50 80 50 80 00 80 00 80  00                       P.P......       
```

#### Opcodes

```
  0: 0x0344 [0xB6] ENTITY_APPEARANCE_HANDLER(case=Full entity look, race=3*, hair=15*, head=56*, body=41*, hands=217*, legs=12*, feet=12*, main=0*, sub=0*)
  1: 0x0358 [0x00] END_REQSTACK()
```

### Event 65535.34

#### Metadata

| Field        | Value    |
|--------------|----------|
| Entrypoint   | 0x0359   |
| Data Size    | 21 bytes |
| Instructions | 2        |

```
      00 01 02 03 04 05 06 07  08 09 0A 0B 0C 0D 0E 0F
      -- -- -- -- -- -- -- --  -- -- -- -- -- -- -- --
0350:                             B6 0B 41 80 12 80 4D           ..A...M
0360: 80 51 80 50 80 50 80 50  80 00 80 00 80 00        .Q.P.P.P......  
```

#### Opcodes

```
  0: 0x0359 [0xB6] ENTITY_APPEARANCE_HANDLER(case=Full entity look, race=3*, hair=11*, head=56*, body=221*, hands=12*, legs=12*, feet=12*, main=0*, sub=0*)
  1: 0x036D [0x00] END_REQSTACK()
```

### Event 65535.35

#### Metadata

| Field        | Value    |
|--------------|----------|
| Entrypoint   | 0x036E   |
| Data Size    | 21 bytes |
| Instructions | 2        |

```
      00 01 02 03 04 05 06 07  08 09 0A 0B 0C 0D 0E 0F
      -- -- -- -- -- -- -- --  -- -- -- -- -- -- -- --
0360:                                            B6 0B                ..
0370: 41 80 01 80 4D 80 51 80  50 80 50 80 50 80 00 80  A...M.Q.P.P.P...
0380: 00 80 00                                          ...             
```

#### Opcodes

```
  0: 0x036E [0xB6] ENTITY_APPEARANCE_HANDLER(case=Full entity look, race=3*, hair=1*, head=56*, body=221*, hands=12*, legs=12*, feet=12*, main=0*, sub=0*)
  1: 0x0382 [0x00] END_REQSTACK()
```

### Event 65535.36

#### Metadata

| Field        | Value    |
|--------------|----------|
| Entrypoint   | 0x0383   |
| Data Size    | 21 bytes |
| Instructions | 2        |

```
      00 01 02 03 04 05 06 07  08 09 0A 0B 0C 0D 0E 0F
      -- -- -- -- -- -- -- --  -- -- -- -- -- -- -- --
0380:          B6 0B 47 80 36  80 00 80 52 80 53 80 53     ..G.6...R.S.S
0390: 80 53 80 00 80 00 80 00                           .S......        
```

#### Opcodes

```
  0: 0x0383 [0xB6] ENTITY_APPEARANCE_HANDLER(case=Full entity look, race=4*, hair=5*, head=0*, body=40*, hands=151*, legs=151*, feet=151*, main=0*, sub=0*)
  1: 0x0397 [0x00] END_REQSTACK()
```

### Event 65535.37

#### Metadata

| Field        | Value    |
|--------------|----------|
| Entrypoint   | 0x0398   |
| Data Size    | 21 bytes |
| Instructions | 2        |

```
      00 01 02 03 04 05 06 07  08 09 0A 0B 0C 0D 0E 0F
      -- -- -- -- -- -- -- --  -- -- -- -- -- -- -- --
0390:                          B6 0B 47 80 00 80 00 80          ..G.....
03A0: 52 80 53 80 53 80 53 80  00 80 00 80 00           R.S.S.S......   
```

#### Opcodes

```
  0: 0x0398 [0xB6] ENTITY_APPEARANCE_HANDLER(case=Full entity look, race=4*, hair=0*, head=0*, body=40*, hands=151*, legs=151*, feet=151*, main=0*, sub=0*)
  1: 0x03AC [0x00] END_REQSTACK()
```

### Event 65535.38

#### Metadata

| Field        | Value    |
|--------------|----------|
| Entrypoint   | 0x03AD   |
| Data Size    | 21 bytes |
| Instructions | 2        |

```
      00 01 02 03 04 05 06 07  08 09 0A 0B 0C 0D 0E 0F
      -- -- -- -- -- -- -- --  -- -- -- -- -- -- -- --
03A0:                                         B6 0B 43               ..C
03B0: 80 54 80 55 80 55 80 55  80 55 80 55 80 00 80 00  .T.U.U.U.U.U....
03C0: 80 00                                             ..              
```

#### Opcodes

```
  0: 0x03AD [0xB6] ENTITY_APPEARANCE_HANDLER(case=Full entity look, race=2*, hair=9*, head=211*, body=211*, hands=211*, legs=211*, feet=211*, main=0*, sub=0*)
  1: 0x03C1 [0x00] END_REQSTACK()
```

### Event 65535.39

#### Metadata

| Field        | Value    |
|--------------|----------|
| Entrypoint   | 0x03C2   |
| Data Size    | 21 bytes |
| Instructions | 2        |

```
      00 01 02 03 04 05 06 07  08 09 0A 0B 0C 0D 0E 0F
      -- -- -- -- -- -- -- --  -- -- -- -- -- -- -- --
03C0:       B6 0B 43 80 46 80  55 80 55 80 55 80 55 80    ..C.F.U.U.U.U.
03D0: 55 80 00 80 00 80 00                              U......         
```

#### Opcodes

```
  0: 0x03C2 [0xB6] ENTITY_APPEARANCE_HANDLER(case=Full entity look, race=2*, hair=6*, head=211*, body=211*, hands=211*, legs=211*, feet=211*, main=0*, sub=0*)
  1: 0x03D6 [0x00] END_REQSTACK()
```

### Event 65535.40

#### Metadata

| Field        | Value    |
|--------------|----------|
| Entrypoint   | 0x03D7   |
| Data Size    | 21 bytes |
| Instructions | 2        |

```
      00 01 02 03 04 05 06 07  08 09 0A 0B 0C 0D 0E 0F
      -- -- -- -- -- -- -- --  -- -- -- -- -- -- -- --
03D0:                      B6  0B 43 80 01 80 55 80 55         ..C...U.U
03E0: 80 55 80 55 80 55 80 00  80 00 80 00              .U.U.U......    
```

#### Opcodes

```
  0: 0x03D7 [0xB6] ENTITY_APPEARANCE_HANDLER(case=Full entity look, race=2*, hair=1*, head=211*, body=211*, hands=211*, legs=211*, feet=211*, main=0*, sub=0*)
  1: 0x03EB [0x00] END_REQSTACK()
```

### Event 65535.41

#### Metadata

| Field        | Value    |
|--------------|----------|
| Entrypoint   | 0x03EC   |
| Data Size    | 21 bytes |
| Instructions | 2        |

```
      00 01 02 03 04 05 06 07  08 09 0A 0B 0C 0D 0E 0F
      -- -- -- -- -- -- -- --  -- -- -- -- -- -- -- --
03E0:                                      B6 0B 41 80              ..A.
03F0: 50 80 56 80 57 80 56 80  56 80 56 80 00 80 00 80  P.V.W.V.V.V.....
0400: 00                                                .               
```

#### Opcodes

```
  0: 0x03EC [0xB6] ENTITY_APPEARANCE_HANDLER(case=Full entity look, race=3*, hair=12*, head=164*, body=69*, hands=164*, legs=164*, feet=164*, main=0*, sub=0*)
  1: 0x0400 [0x00] END_REQSTACK()
```

### Event 65535.42

#### Metadata

| Field        | Value    |
|--------------|----------|
| Entrypoint   | 0x0401   |
| Data Size    | 21 bytes |
| Instructions | 2        |

```
      00 01 02 03 04 05 06 07  08 09 0A 0B 0C 0D 0E 0F
      -- -- -- -- -- -- -- --  -- -- -- -- -- -- -- --
0400:    B6 0B 47 80 36 80 00  80 58 80 59 80 59 80 59   ..G.6...X.Y.Y.Y
0410: 80 00 80 00 80 00                                 ......          
```

#### Opcodes

```
  0: 0x0401 [0xB6] ENTITY_APPEARANCE_HANDLER(case=Full entity look, race=4*, hair=5*, head=0*, body=47*, hands=26*, legs=26*, feet=26*, main=0*, sub=0*)
  1: 0x0415 [0x00] END_REQSTACK()
```

### Event 65535.43

#### Metadata

| Field        | Value    |
|--------------|----------|
| Entrypoint   | 0x0416   |
| Data Size    | 21 bytes |
| Instructions | 2        |

```
      00 01 02 03 04 05 06 07  08 09 0A 0B 0C 0D 0E 0F
      -- -- -- -- -- -- -- --  -- -- -- -- -- -- -- --
0410:                   B6 0B  47 80 43 80 00 80 4F 80        ..G.C...O.
0420: 4F 80 4F 80 4F 80 00 80  00 80 00                 O.O.O......     
```

#### Opcodes

```
  0: 0x0416 [0xB6] ENTITY_APPEARANCE_HANDLER(case=Full entity look, race=4*, hair=2*, head=0*, body=217*, hands=217*, legs=217*, feet=217*, main=0*, sub=0*)
  1: 0x042A [0x00] END_REQSTACK()
```

### Event 65535.44

#### Metadata

| Field        | Value    |
|--------------|----------|
| Entrypoint   | 0x042B   |
| Data Size    | 21 bytes |
| Instructions | 2        |

```
      00 01 02 03 04 05 06 07  08 09 0A 0B 0C 0D 0E 0F
      -- -- -- -- -- -- -- --  -- -- -- -- -- -- -- --
0420:                                   B6 0B 41 80 37             ..A.7
0430: 80 00 80 4F 80 4F 80 4F  80 4F 80 00 80 00 80 00  ...O.O.O.O......
```

#### Opcodes

```
  0: 0x042B [0xB6] ENTITY_APPEARANCE_HANDLER(case=Full entity look, race=3*, hair=14*, head=0*, body=217*, hands=217*, legs=217*, feet=217*, main=0*, sub=0*)
  1: 0x043F [0x00] END_REQSTACK()
```

### Event 65535.45

#### Metadata

| Field        | Value    |
|--------------|----------|
| Entrypoint   | 0x0440   |
| Data Size    | 21 bytes |
| Instructions | 2        |

```
      00 01 02 03 04 05 06 07  08 09 0A 0B 0C 0D 0E 0F
      -- -- -- -- -- -- -- --  -- -- -- -- -- -- -- --
0440: B6 0B 41 80 47 80 00 80  50 80 50 80 50 80 50 80  ..A.G...P.P.P.P.
0450: 00 80 00 80 00                                    .....           
```

#### Opcodes

```
  0: 0x0440 [0xB6] ENTITY_APPEARANCE_HANDLER(case=Full entity look, race=3*, hair=4*, head=0*, body=12*, hands=12*, legs=12*, feet=12*, main=0*, sub=0*)
  1: 0x0454 [0x00] END_REQSTACK()
```

### Event 65535.46

#### Metadata

| Field        | Value    |
|--------------|----------|
| Entrypoint   | 0x0455   |
| Data Size    | 21 bytes |
| Instructions | 2        |

```
      00 01 02 03 04 05 06 07  08 09 0A 0B 0C 0D 0E 0F
      -- -- -- -- -- -- -- --  -- -- -- -- -- -- -- --
0450:                B6 0B 41  80 00 80 00 80 51 80 4F       ..A.....Q.O
0460: 80 50 80 50 80 00 80 00  80 00                    .P.P......      
```

#### Opcodes

```
  0: 0x0455 [0xB6] ENTITY_APPEARANCE_HANDLER(case=Full entity look, race=3*, hair=0*, head=0*, body=221*, hands=217*, legs=12*, feet=12*, main=0*, sub=0*)
  1: 0x0469 [0x00] END_REQSTACK()
```

### Event 65535.47

#### Metadata

| Field        | Value    |
|--------------|----------|
| Entrypoint   | 0x046A   |
| Data Size    | 21 bytes |
| Instructions | 2        |

```
      00 01 02 03 04 05 06 07  08 09 0A 0B 0C 0D 0E 0F
      -- -- -- -- -- -- -- --  -- -- -- -- -- -- -- --
0460:                                B6 0B 41 80 47 80            ..A.G.
0470: 00 80 5A 80 5A 80 0B 80  0B 80 00 80 00 80 00     ..Z.Z.......... 
```

#### Opcodes

```
  0: 0x046A [0xB6] ENTITY_APPEARANCE_HANDLER(case=Full entity look, race=3*, hair=4*, head=0*, body=114*, hands=114*, legs=13*, feet=13*, main=0*, sub=0*)
  1: 0x047E [0x00] END_REQSTACK()
```

### Event 65535.48

#### Metadata

| Field        | Value    |
|--------------|----------|
| Entrypoint   | 0x047F   |
| Data Size    | 21 bytes |
| Instructions | 2        |

```
      00 01 02 03 04 05 06 07  08 09 0A 0B 0C 0D 0E 0F
      -- -- -- -- -- -- -- --  -- -- -- -- -- -- -- --
0470:                                               B6                 .
0480: 0B 41 80 43 80 00 80 5B  80 5B 80 5B 80 5B 80 00  .A.C...[.[.[.[..
0490: 80 00 80 00                                       ....            
```

#### Opcodes

```
  0: 0x047F [0xB6] ENTITY_APPEARANCE_HANDLER(case=Full entity look, race=3*, hair=2*, head=0*, body=58*, hands=58*, legs=58*, feet=58*, main=0*, sub=0*)
  1: 0x0493 [0x00] END_REQSTACK()
```

### Event 65535.49

#### Metadata

| Field        | Value    |
|--------------|----------|
| Entrypoint   | 0x0494   |
| Data Size    | 21 bytes |
| Instructions | 2        |

```
      00 01 02 03 04 05 06 07  08 09 0A 0B 0C 0D 0E 0F
      -- -- -- -- -- -- -- --  -- -- -- -- -- -- -- --
0490:             B6 0B 01 80  43 80 5C 80 5C 80 5C 80      ....C.\.\.\.
04A0: 5C 80 5C 80 00 80 00 80  00                       \.\......       
```

#### Opcodes

```
  0: 0x0494 [0xB6] ENTITY_APPEARANCE_HANDLER(case=Full entity look, race=1*, hair=2*, head=210*, body=210*, hands=210*, legs=210*, feet=210*, main=0*, sub=0*)
  1: 0x04A8 [0x00] END_REQSTACK()
```

### Event 65535.50

#### Metadata

| Field        | Value    |
|--------------|----------|
| Entrypoint   | 0x04A9   |
| Data Size    | 21 bytes |
| Instructions | 2        |

```
      00 01 02 03 04 05 06 07  08 09 0A 0B 0C 0D 0E 0F
      -- -- -- -- -- -- -- --  -- -- -- -- -- -- -- --
04A0:                             B6 0B 41 80 00 80 00           ..A....
04B0: 80 51 80 50 80 51 80 0B  80 00 80 00 80 00        .Q.P.Q........  
```

#### Opcodes

```
  0: 0x04A9 [0xB6] ENTITY_APPEARANCE_HANDLER(case=Full entity look, race=3*, hair=0*, head=0*, body=221*, hands=12*, legs=221*, feet=13*, main=0*, sub=0*)
  1: 0x04BD [0x00] END_REQSTACK()
```

### Event 65535.51

#### Metadata

| Field        | Value    |
|--------------|----------|
| Entrypoint   | 0x04BE   |
| Data Size    | 21 bytes |
| Instructions | 2        |

```
      00 01 02 03 04 05 06 07  08 09 0A 0B 0C 0D 0E 0F
      -- -- -- -- -- -- -- --  -- -- -- -- -- -- -- --
04B0:                                            B6 0B                ..
04C0: 41 80 43 80 00 80 0B 80  51 80 0B 80 51 80 00 80  A.C.....Q...Q...
04D0: 00 80 00                                          ...             
```

#### Opcodes

```
  0: 0x04BE [0xB6] ENTITY_APPEARANCE_HANDLER(case=Full entity look, race=3*, hair=2*, head=0*, body=13*, hands=221*, legs=13*, feet=221*, main=0*, sub=0*)
  1: 0x04D2 [0x00] END_REQSTACK()
```

### Event 65535.52

#### Metadata

| Field        | Value    |
|--------------|----------|
| Entrypoint   | 0x04D3   |
| Data Size    | 21 bytes |
| Instructions | 2        |

```
      00 01 02 03 04 05 06 07  08 09 0A 0B 0C 0D 0E 0F
      -- -- -- -- -- -- -- --  -- -- -- -- -- -- -- --
04D0:          B6 0B 41 80 46  80 00 80 50 80 50 80 50     ..A.F...P.P.P
04E0: 80 5C 80 00 80 00 80 00                           .\......        
```

#### Opcodes

```
  0: 0x04D3 [0xB6] ENTITY_APPEARANCE_HANDLER(case=Full entity look, race=3*, hair=6*, head=0*, body=12*, hands=12*, legs=12*, feet=210*, main=0*, sub=0*)
  1: 0x04E7 [0x00] END_REQSTACK()
```

### Event 65535.53

#### Metadata

| Field        | Value    |
|--------------|----------|
| Entrypoint   | 0x04E8   |
| Data Size    | 21 bytes |
| Instructions | 2        |

```
      00 01 02 03 04 05 06 07  08 09 0A 0B 0C 0D 0E 0F
      -- -- -- -- -- -- -- --  -- -- -- -- -- -- -- --
04E0:                          B6 0B 41 80 50 80 00 80          ..A.P...
04F0: 50 80 50 80 50 80 5D 80  00 80 00 80 00           P.P.P.]......   
```

#### Opcodes

```
  0: 0x04E8 [0xB6] ENTITY_APPEARANCE_HANDLER(case=Full entity look, race=3*, hair=12*, head=0*, body=12*, hands=12*, legs=12*, feet=251*, main=0*, sub=0*)
  1: 0x04FC [0x00] END_REQSTACK()
```

### Event 65535.54

#### Metadata

| Field        | Value    |
|--------------|----------|
| Entrypoint   | 0x04FD   |
| Data Size    | 21 bytes |
| Instructions | 2        |

```
      00 01 02 03 04 05 06 07  08 09 0A 0B 0C 0D 0E 0F
      -- -- -- -- -- -- -- --  -- -- -- -- -- -- -- --
04F0:                                         B6 0B 41               ..A
0500: 80 37 80 00 80 5E 80 4F  80 4F 80 4F 80 00 80 00  .7...^.O.O.O....
0510: 80 00                                             ..              
```

#### Opcodes

```
  0: 0x04FD [0xB6] ENTITY_APPEARANCE_HANDLER(case=Full entity look, race=3*, hair=14*, head=0*, body=76*, hands=217*, legs=217*, feet=217*, main=0*, sub=0*)
  1: 0x0511 [0x00] END_REQSTACK()
```

### Event 65535.55

#### Metadata

| Field        | Value    |
|--------------|----------|
| Entrypoint   | 0x0512   |
| Data Size    | 21 bytes |
| Instructions | 2        |

```
      00 01 02 03 04 05 06 07  08 09 0A 0B 0C 0D 0E 0F
      -- -- -- -- -- -- -- --  -- -- -- -- -- -- -- --
0510:       B6 0B 41 80 54 80  00 80 50 80 50 80 50 80    ..A.T...P.P.P.
0520: 5D 80 00 80 00 80 00                              ]......         
```

#### Opcodes

```
  0: 0x0512 [0xB6] ENTITY_APPEARANCE_HANDLER(case=Full entity look, race=3*, hair=9*, head=0*, body=12*, hands=12*, legs=12*, feet=251*, main=0*, sub=0*)
  1: 0x0526 [0x00] END_REQSTACK()
```

### Event 65535.56

#### Metadata

| Field        | Value    |
|--------------|----------|
| Entrypoint   | 0x0527   |
| Data Size    | 21 bytes |
| Instructions | 2        |

```
      00 01 02 03 04 05 06 07  08 09 0A 0B 0C 0D 0E 0F
      -- -- -- -- -- -- -- --  -- -- -- -- -- -- -- --
0520:                      B6  0B 41 80 43 80 00 80 12         ..A.C....
0530: 80 59 80 59 80 59 80 00  80 00 80 00              .Y.Y.Y......    
```

#### Opcodes

```
  0: 0x0527 [0xB6] ENTITY_APPEARANCE_HANDLER(case=Full entity look, race=3*, hair=2*, head=0*, body=11*, hands=26*, legs=26*, feet=26*, main=0*, sub=0*)
  1: 0x053B [0x00] END_REQSTACK()
```

### Event 65535.57

#### Metadata

| Field        | Value    |
|--------------|----------|
| Entrypoint   | 0x053C   |
| Data Size    | 21 bytes |
| Instructions | 2        |

```
      00 01 02 03 04 05 06 07  08 09 0A 0B 0C 0D 0E 0F
      -- -- -- -- -- -- -- --  -- -- -- -- -- -- -- --
0530:                                      B6 0B 47 80              ..G.
0540: 0B 80 00 80 51 80 50 80  50 80 50 80 5D 80 00 80  ....Q.P.P.P.]...
0550: 00                                                .               
```

#### Opcodes

```
  0: 0x053C [0xB6] ENTITY_APPEARANCE_HANDLER(case=Full entity look, race=4*, hair=13*, head=0*, body=221*, hands=12*, legs=12*, feet=12*, main=251*, sub=0*)
  1: 0x0550 [0x00] END_REQSTACK()
```

### Event 65535.58

#### Metadata

| Field        | Value   |
|--------------|---------|
| Entrypoint   | 0x0551  |
| Data Size    | 3 bytes |
| Instructions | 2       |

```
      00 01 02 03 04 05 06 07  08 09 0A 0B 0C 0D 0E 0F
      -- -- -- -- -- -- -- --  -- -- -- -- -- -- -- --
0550:    A5 01 00                                        ...            
```

#### Opcodes

```
  0: 0x0551 [0xA5] EventEntity->Flags3.BallistaTeam |= 0x08  // Set bit 3 of BallistaTeam
  1: 0x0553 [0x00] END_REQSTACK()
```

### Event 65535.59

#### Metadata

| Field        | Value   |
|--------------|---------|
| Entrypoint   | 0x0554  |
| Data Size    | 3 bytes |
| Instructions | 2       |

```
      00 01 02 03 04 05 06 07  08 09 0A 0B 0C 0D 0E 0F
      -- -- -- -- -- -- -- --  -- -- -- -- -- -- -- --
0550:             A5 00 00                                  ...         
```

#### Opcodes

```
  0: 0x0554 [0xA5] EventEntity->Flags3.BallistaTeam &= ~0x08  // Clear bit 3 of BallistaTeam
  1: 0x0556 [0x00] END_REQSTACK()
```

### Event 166

#### Metadata

| Field        | Value   |
|--------------|---------|
| Entrypoint   | 0x0557  |
| Data Size    | 1 bytes |
| Instructions | 1       |

```
      00 01 02 03 04 05 06 07  08 09 0A 0B 0C 0D 0E 0F
      -- -- -- -- -- -- -- --  -- -- -- -- -- -- -- --
0550:                      00                                  .        
```

#### Opcodes

```
  0: 0x0557 [0x00] END_REQSTACK()
```

### Event 176

#### Metadata

| Field        | Value   |
|--------------|---------|
| Entrypoint   | 0x0558  |
| Data Size    | 1 bytes |
| Instructions | 1       |

```
      00 01 02 03 04 05 06 07  08 09 0A 0B 0C 0D 0E 0F
      -- -- -- -- -- -- -- --  -- -- -- -- -- -- -- --
0550:                          00                               .       
```

#### Opcodes

```
  0: 0x0558 [0x00] END_REQSTACK()
```
