# 17105543 - Cait Sith

## Common Data

| Field            | Value                            |
|------------------|----------------------------------|
| Zone             | Southern San d'Oria [S] (ID: 80) |
| Block Size       | 1328 bytes                       |
| Total Events     | 43                               |
| References Count | 69                               |

## List of Events

| Event ID                   | Entrypoint   |   Size |   Instructions |
|----------------------------|--------------|--------|----------------|
| [65535](#event-65535)      | 0x0000       |      1 |              1 |
| [65535.1](#event-655351)   | 0x0001       |      1 |              1 |
| [65535.2](#event-655352)   | 0x0002       |     18 |              4 |
| [65535.3](#event-655353)   | 0x0014       |     10 |              2 |
| [65535.4](#event-655354)   | 0x001E       |      9 |              3 |
| [65535.5](#event-655355)   | 0x0027       |      9 |              3 |
| [65535.6](#event-655356)   | 0x0030       |     10 |              2 |
| [65535.7](#event-655357)   | 0x003A       |     10 |              2 |
| [70](#event-70)            | 0x0044       |      1 |              1 |
| [153](#event-153)          | 0x0045       |      1 |              1 |
| [65535.8](#event-655358)   | 0x0046       |     35 |              9 |
| [65535.9](#event-655359)   | 0x0069       |     35 |              9 |
| [149](#event-149)          | 0x008C       |      1 |              1 |
| [65535.10](#event-6553510) | 0x008D       |     31 |              7 |
| [65535.11](#event-6553511) | 0x00AC       |     14 |              4 |
| [65535.12](#event-6553512) | 0x00BA       |     44 |             10 |
| [65535.13](#event-6553513) | 0x00E6       |     23 |              5 |
| [65535.14](#event-6553514) | 0x00FD       |     34 |              8 |
| [65535.15](#event-6553515) | 0x011F       |     23 |              5 |
| [65535.16](#event-6553516) | 0x0136       |     32 |              8 |
| [65535.17](#event-6553517) | 0x0156       |     19 |              4 |
| [65535.18](#event-6553518) | 0x0169       |     14 |              4 |
| [65535.19](#event-6553519) | 0x0177       |      4 |              2 |
| [65535.20](#event-6553520) | 0x017B       |      4 |              2 |
| [65535.21](#event-6553521) | 0x017F       |     10 |              4 |
| [65535.22](#event-6553522) | 0x0189       |    117 |             16 |
| [65535.23](#event-6553523) | 0x01FE       |      3 |              2 |
| [65535.24](#event-6553524) | 0x0201       |      3 |              2 |
| [65535.25](#event-6553525) | 0x0204       |     27 |              6 |
| [65535.26](#event-6553526) | 0x021F       |     35 |              6 |
| [65535.27](#event-6553527) | 0x0242       |     32 |              7 |
| [65535.28](#event-6553528) | 0x0262       |     47 |              8 |
| [65535.29](#event-6553529) | 0x0291       |     82 |             14 |
| [65535.30](#event-6553530) | 0x02E3       |     20 |              5 |
| [65535.31](#event-6553531) | 0x02F7       |     29 |              6 |
| [65535.32](#event-6553532) | 0x0314       |      4 |              2 |
| [65535.33](#event-6553533) | 0x0318       |      4 |              2 |
| [166](#event-166)          | 0x031C       |      1 |              1 |
| [183](#event-183)          | 0x031D       |      5 |              2 |
| [184](#event-184)          | 0x0322       |      5 |              2 |
| [65535.34](#event-6553534) | 0x0327       |      5 |              2 |
| [65535.35](#event-6553535) | 0x032C       |     25 |              3 |
| [65535.36](#event-6553536) | 0x0345       |     25 |              3 |

## DAT References (imed_data)

|   Index | Hex Value   |   Dec Value |
|---------|-------------|-------------|
|       0 | 0x0000      |           0 |
|       1 | 0x0001      |           1 |
|       2 | 0x0080      |         128 |
|       3 | 0x0028      |          40 |
|       4 | 0x000D      |          13 |
|       5 | 0x0055      |          85 |
|       6 | 0x06F9      |        1785 |
|       7 | 0xA952      |       43346 |
|       8 | 0xFFFFF831  |  4294965297 |
|       9 | 0xFFFFCCB7  |  4294954167 |
|      10 | 0xFFFFEFDD  |  4294963165 |
|      11 | 0xFFFFADBA  |  4294946234 |
|      12 | 0xFFFFF21A  |  4294963738 |
|      13 | 0x0014      |          20 |
|      14 | 0xFFFFAA87  |  4294945415 |
|      15 | 0xFFFFF828  |  4294965288 |
|      16 | 0x0708      |        1800 |
|      17 | 0x000F      |          15 |
|      18 | 0xFFFFACDB  |  4294946011 |
|      19 | 0xFFFFFB26  |  4294966054 |
|      20 | 0x0813      |        2067 |
|      21 | 0x1A495     |      107669 |
|      22 | 0xFFFFF830  |  4294965296 |
|      23 | 0x077F      |        1919 |
|      24 | 0x194EE     |      103662 |
|      25 | 0xFFFFFC55  |  4294966357 |
|      26 | 0x024E      |         590 |
|      27 | 0x000B      |          11 |
|      28 | 0x3BDC      |       15324 |
|      29 | 0x1444F     |       83023 |
|      30 | 0xFFFFFF39  |  4294967097 |
|      31 | 0x000C      |          12 |
|      32 | 0x400F      |       16399 |
|      33 | 0x14989     |       84361 |
|      34 | 0x0032      |          50 |
|      35 | 0xFFFFC165  |  4294951269 |
|      36 | 0x16785     |       92037 |
|      37 | 0x3FC4      |       16324 |
|      38 | 0x142DD     |       82653 |
|      39 | 0x0059      |          89 |
|      40 | 0x0002      |           2 |
|      41 | 0x0026      |          38 |
|      42 | 0x1E0AC     |      123052 |
|      43 | 0x19270     |      103024 |
|      44 | 0x0005      |           5 |
|      45 | 0x051F      |        1311 |
|      46 | 0x0586      |        1414 |
|      47 | 0x003C      |          60 |
|      48 | 0x0B29      |        2857 |
|      49 | 0x1AD96     |      109974 |
|      50 | 0x1AD7A     |      109946 |
|      51 | 0x09F2      |        2546 |
|      52 | 0x1734B     |       95051 |
|      53 | 0x1EDF8     |      126456 |
|      54 | 0x03E8      |        1000 |
|      55 | 0x0584      |        1412 |
|      56 | 0x16F21     |       93985 |
|      57 | 0x1EF4B     |      126795 |
|      58 | 0x001E      |          30 |
|      59 | 0x0027      |          39 |
|      60 | 0x170E0     |       94432 |
|      61 | 0x1ECBB     |      126139 |
|      62 | 0x172D1     |       94929 |
|      63 | 0x194B0     |      103600 |
|      64 | 0x015E      |         350 |
|      65 | 0x17764     |       96100 |
|      66 | 0x186A0     |      100000 |
|      67 | 0x0146      |         326 |
|      68 | 0x08CF      |        2255 |

## Events

### Event 65535

#### Metadata

| Field        | Value   |
|--------------|---------|
| Entrypoint   | 0x0000  |
| Data Size    | 1 bytes |
| Instructions | 1       |

```
      00 01 02 03 04 05 06 07  08 09 0A 0B 0C 0D 0E 0F
      -- -- -- -- -- -- -- --  -- -- -- -- -- -- -- --
0000: 00                                                .               
```

#### Opcodes

```
  0: 0x0000 [0x00] END_REQSTACK()
```

### Event 65535.1

#### Metadata

| Field        | Value   |
|--------------|---------|
| Entrypoint   | 0x0001  |
| Data Size    | 1 bytes |
| Instructions | 1       |

```
      00 01 02 03 04 05 06 07  08 09 0A 0B 0C 0D 0E 0F
      -- -- -- -- -- -- -- --  -- -- -- -- -- -- -- --
0000:    00                                              .              
```

#### Opcodes

```
  0: 0x0001 [0x00] END_REQSTACK()
```

### Event 65535.2

#### Metadata

| Field        | Value    |
|--------------|----------|
| Entrypoint   | 0x0002   |
| Data Size    | 18 bytes |
| Instructions | 4        |

```
      00 01 02 03 04 05 06 07  08 09 0A 0B 0C 0D 0E 0F
      -- -- -- -- -- -- -- --  -- -- -- -- -- -- -- --
0000:       22 00 2F 00 F8 FF  FF 7F 6C F8 FF FF 7F 00    "./.....l.....
0010: 80 01 80 00                                       ....            
```

#### Opcodes

```
  0: 0x0002 [0x22] ENTITY_HIDE_FLAG(enabled=0x00)
  1: 0x0004 [0x2F] EventEntity->Render.Flags0 &= ~0x80000 // Bit 19
  2: 0x000A [0x6C] FADE_ENTITY_COLOR(entity_id=EventEntity, end_alpha=0*, fade_time=1*)
  3: 0x0013 [0x00] END_REQSTACK()
```

### Event 65535.3

#### Metadata

| Field        | Value    |
|--------------|----------|
| Entrypoint   | 0x0014   |
| Data Size    | 10 bytes |
| Instructions | 2        |

```
      00 01 02 03 04 05 06 07  08 09 0A 0B 0C 0D 0E 0F
      -- -- -- -- -- -- -- --  -- -- -- -- -- -- -- --
0010:             6C F8 FF FF  7F 02 80 01 80 00            l.........  
```

#### Opcodes

```
  0: 0x0014 [0x6C] FADE_ENTITY_COLOR(entity_id=EventEntity, end_alpha=128*, fade_time=1*)
  1: 0x001D [0x00] END_REQSTACK()
```

### Event 65535.4

#### Metadata

| Field        | Value   |
|--------------|---------|
| Entrypoint   | 0x001E  |
| Data Size    | 9 bytes |
| Instructions | 3       |

```
      00 01 02 03 04 05 06 07  08 09 0A 0B 0C 0D 0E 0F
      -- -- -- -- -- -- -- --  -- -- -- -- -- -- -- --
0010:                                            22 00                ".
0020: 2F 00 F8 FF FF 7F 00                              /......         
```

#### Opcodes

```
  0: 0x001E [0x22] ENTITY_HIDE_FLAG(enabled=0x00)
  1: 0x0020 [0x2F] EventEntity->Render.Flags0 &= ~0x80000 // Bit 19
  2: 0x0026 [0x00] END_REQSTACK()
```

### Event 65535.5

#### Metadata

| Field        | Value   |
|--------------|---------|
| Entrypoint   | 0x0027  |
| Data Size    | 9 bytes |
| Instructions | 3       |

```
      00 01 02 03 04 05 06 07  08 09 0A 0B 0C 0D 0E 0F
      -- -- -- -- -- -- -- --  -- -- -- -- -- -- -- --
0020:                      22  01 2F 01 F8 FF FF 7F 00         "./......
```

#### Opcodes

```
  0: 0x0027 [0x22] ENTITY_HIDE_FLAG(enabled=0x01)
  1: 0x0029 [0x2F] EventEntity->Render.Flags0 |= 0x80000 // Bit 19
  2: 0x002F [0x00] END_REQSTACK()
```

### Event 65535.6

#### Metadata

| Field        | Value    |
|--------------|----------|
| Entrypoint   | 0x0030   |
| Data Size    | 10 bytes |
| Instructions | 2        |

```
      00 01 02 03 04 05 06 07  08 09 0A 0B 0C 0D 0E 0F
      -- -- -- -- -- -- -- --  -- -- -- -- -- -- -- --
0030: 6C F8 FF FF 7F 00 80 01  80 00                    l.........      
```

#### Opcodes

```
  0: 0x0030 [0x6C] FADE_ENTITY_COLOR(entity_id=EventEntity, end_alpha=0*, fade_time=1*)
  1: 0x0039 [0x00] END_REQSTACK()
```

### Event 65535.7

#### Metadata

| Field        | Value    |
|--------------|----------|
| Entrypoint   | 0x003A   |
| Data Size    | 10 bytes |
| Instructions | 2        |

```
      00 01 02 03 04 05 06 07  08 09 0A 0B 0C 0D 0E 0F
      -- -- -- -- -- -- -- --  -- -- -- -- -- -- -- --
0030:                                6C F8 FF FF 7F 02            l.....
0040: 80 01 80 00                                       ....            
```

#### Opcodes

```
  0: 0x003A [0x6C] FADE_ENTITY_COLOR(entity_id=EventEntity, end_alpha=128*, fade_time=1*)
  1: 0x0043 [0x00] END_REQSTACK()
```

### Event 70

#### Metadata

| Field        | Value   |
|--------------|---------|
| Entrypoint   | 0x0044  |
| Data Size    | 1 bytes |
| Instructions | 1       |

```
      00 01 02 03 04 05 06 07  08 09 0A 0B 0C 0D 0E 0F
      -- -- -- -- -- -- -- --  -- -- -- -- -- -- -- --
0040:             00                                        .           
```

#### Opcodes

```
  0: 0x0044 [0x00] END_REQSTACK()
```

### Event 153

#### Metadata

| Field        | Value   |
|--------------|---------|
| Entrypoint   | 0x0045  |
| Data Size    | 1 bytes |
| Instructions | 1       |

```
      00 01 02 03 04 05 06 07  08 09 0A 0B 0C 0D 0E 0F
      -- -- -- -- -- -- -- --  -- -- -- -- -- -- -- --
0040:                00                                      .          
```

#### Opcodes

```
  0: 0x0045 [0x00] END_REQSTACK()
```

### Event 65535.8

#### Metadata

| Field        | Value    |
|--------------|----------|
| Entrypoint   | 0x0046   |
| Data Size    | 35 bytes |
| Instructions | 9        |

```
      00 01 02 03 04 05 06 07  08 09 0A 0B 0C 0D 0E 0F
      -- -- -- -- -- -- -- --  -- -- -- -- -- -- -- --
0040:                   03 00  00 25 10 03 02 00 27 10        ...%....'.
0050: 03 01 00 26 10 03 03 00  28 10 32 03 80 1F 00 00  ...&....(.2.....
0060: 00 02 00 01 00 1F 01 6F  00                       .......o.       
```

#### Opcodes

```
  0: 0x0046 [0x03] ExtData[1]->WorkLocal[0] = Work_Zone[37]
  1: 0x004B [0x03] ExtData[1]->WorkLocal[2] = Work_Zone[39]
  2: 0x0050 [0x03] ExtData[1]->WorkLocal[1] = Work_Zone[38]
  3: 0x0055 [0x03] ExtData[1]->WorkLocal[3] = Work_Zone[40]
  4: 0x005A [0x32] ExtData[1]->MainSpeed = 40* * 0.1
  5: 0x005D [0x1F] MOVE_ENTITY: EventEntity moves to X=ExtData[1]->WorkLocal[0], Z=ExtData[1]->WorkLocal[2], Y=ExtData[1]->WorkLocal[1]
  6: 0x0065 [0x1F] MOVE_ENTITY: Update entity position (mode=1)
  7: 0x0067 [0x6F] WAIT_FRAME_DELAY: Yield until WaitTime reaches zero
  8: 0x0068 [0x00] END_REQSTACK()
```

### Event 65535.9

#### Metadata

| Field        | Value    |
|--------------|----------|
| Entrypoint   | 0x0069   |
| Data Size    | 35 bytes |
| Instructions | 9        |

```
      00 01 02 03 04 05 06 07  08 09 0A 0B 0C 0D 0E 0F
      -- -- -- -- -- -- -- --  -- -- -- -- -- -- -- --
0060:                             03 00 00 25 10 03 02           ...%...
0070: 00 27 10 03 01 00 26 10  03 03 00 28 10 32 04 80  .'....&....(.2..
0080: 1F 00 00 00 02 00 01 00  1F 01 6F 00              ..........o.    
```

#### Opcodes

```
  0: 0x0069 [0x03] ExtData[1]->WorkLocal[0] = Work_Zone[37]
  1: 0x006E [0x03] ExtData[1]->WorkLocal[2] = Work_Zone[39]
  2: 0x0073 [0x03] ExtData[1]->WorkLocal[1] = Work_Zone[38]
  3: 0x0078 [0x03] ExtData[1]->WorkLocal[3] = Work_Zone[40]
  4: 0x007D [0x32] ExtData[1]->MainSpeed = 13* * 0.1
  5: 0x0080 [0x1F] MOVE_ENTITY: EventEntity moves to X=ExtData[1]->WorkLocal[0], Z=ExtData[1]->WorkLocal[2], Y=ExtData[1]->WorkLocal[1]
  6: 0x0088 [0x1F] MOVE_ENTITY: Update entity position (mode=1)
  7: 0x008A [0x6F] WAIT_FRAME_DELAY: Yield until WaitTime reaches zero
  8: 0x008B [0x00] END_REQSTACK()
```

### Event 149

#### Metadata

| Field        | Value   |
|--------------|---------|
| Entrypoint   | 0x008C  |
| Data Size    | 1 bytes |
| Instructions | 1       |

```
      00 01 02 03 04 05 06 07  08 09 0A 0B 0C 0D 0E 0F
      -- -- -- -- -- -- -- --  -- -- -- -- -- -- -- --
0080:                                      00                       .   
```

#### Opcodes

```
  0: 0x008C [0x00] END_REQSTACK()
```

### Event 65535.10

#### Metadata

| Field        | Value    |
|--------------|----------|
| Entrypoint   | 0x008D   |
| Data Size    | 31 bytes |
| Instructions | 7        |

```
      00 01 02 03 04 05 06 07  08 09 0A 0B 0C 0D 0E 0F
      -- -- -- -- -- -- -- --  -- -- -- -- -- -- -- --
0080:                                         7B F8 FF               {..
0090: FF 7F 32 04 80 1C 05 80  1F 00 06 80 07 80 08 80  ..2.............
00A0: 1F 01 4A F8 FF FF 7F EF  01 05 01 00              ..J.........    
```

#### Opcodes

```
  0: 0x008D [0x7B] EventEntity stops talking
  1: 0x0092 [0x32] ExtData[1]->MainSpeed = 13* * 0.1
  2: 0x0095 [0x1C] WAIT(85* ticks)
  3: 0x0098 [0x1F] MOVE_ENTITY: EventEntity moves to X=1.785*, Z=43.346*, Y=-1.999*
  4: 0x00A0 [0x1F] MOVE_ENTITY: Update entity position (mode=1)
  5: 0x00A2 [0x4A] EventEntity looks at Raustigne (ID: 17105391/0x010501EF)
  6: 0x00AB [0x00] END_REQSTACK()
```

### Event 65535.11

#### Metadata

| Field        | Value    |
|--------------|----------|
| Entrypoint   | 0x00AC   |
| Data Size    | 14 bytes |
| Instructions | 4        |

```
      00 01 02 03 04 05 06 07  08 09 0A 0B 0C 0D 0E 0F
      -- -- -- -- -- -- -- --  -- -- -- -- -- -- -- --
00A0:                                      32 04 80 1F              2...
00B0: 00 09 80 0A 80 00 80 1F  01 00                    ..........      
```

#### Opcodes

```
  0: 0x00AC [0x32] ExtData[1]->MainSpeed = 13* * 0.1
  1: 0x00AF [0x1F] MOVE_ENTITY: EventEntity moves to X=-13.129*, Z=-4.131*, Y=0.000*
  2: 0x00B7 [0x1F] MOVE_ENTITY: Update entity position (mode=1)
  3: 0x00B9 [0x00] END_REQSTACK()
```

### Event 65535.12

#### Metadata

| Field        | Value    |
|--------------|----------|
| Entrypoint   | 0x00BA   |
| Data Size    | 44 bytes |
| Instructions | 10       |

```
      00 01 02 03 04 05 06 07  08 09 0A 0B 0C 0D 0E 0F
      -- -- -- -- -- -- -- --  -- -- -- -- -- -- -- --
00B0:                                32 04 80 1F 00 0B            2.....
00C0: 80 0C 80 00 80 1F 01 1C  0D 80 27 10 AF 02 05 01  ..........'.....
00D0: 0B 1F 00 0E 80 0F 80 00  80 1F 01 1C 0D 80 4B F8  ..............K.
00E0: FF FF 7F 10 80 00                                 ......          
```

#### Opcodes

```
  0: 0x00BA [0x32] ExtData[1]->MainSpeed = 13* * 0.1
  1: 0x00BD [0x1F] MOVE_ENTITY: EventEntity moves to X=-21.062*, Z=-3.558*, Y=0.000*
  2: 0x00C5 [0x1F] MOVE_ENTITY: Update entity position (mode=1)
  3: 0x00C7 [0x1C] WAIT(20* ticks)
  4: 0x00CA [0x27] REQ_SET(priority=0x10, entity_id=Unknown NPC (ID: 17105583/0x010502AF), tag_num=0x0B)
  5: 0x00D1 [0x1F] MOVE_ENTITY: EventEntity moves to X=-21.881*, Z=-2.008*, Y=0.000*
  6: 0x00D9 [0x1F] MOVE_ENTITY: Update entity position (mode=1)
  7: 0x00DB [0x1C] WAIT(20* ticks)
  8: 0x00DE [0x4B] UPDATE_ENTITY_YAW(entity=EventEntity, yaw=9.9°*)
  9: 0x00E5 [0x00] END_REQSTACK()
```

### Event 65535.13

#### Metadata

| Field        | Value    |
|--------------|----------|
| Entrypoint   | 0x00E6   |
| Data Size    | 23 bytes |
| Instructions | 5        |

```
      00 01 02 03 04 05 06 07  08 09 0A 0B 0C 0D 0E 0F
      -- -- -- -- -- -- -- --  -- -- -- -- -- -- -- --
00E0:                   32 11  80 1F 00 12 80 13 80 00        2.........
00F0: 80 1F 01 4A F8 FF FF 7F  86 02 05 01 00           ...J.........   
```

#### Opcodes

```
  0: 0x00E6 [0x32] ExtData[1]->MainSpeed = 15* * 0.1
  1: 0x00E9 [0x1F] MOVE_ENTITY: EventEntity moves to X=-21.285*, Z=-1.242*, Y=0.000*
  2: 0x00F1 [0x1F] MOVE_ENTITY: Update entity position (mode=1)
  3: 0x00F3 [0x4A] EventEntity looks at Ragelise (ID: 17105542/0x01050286)
  4: 0x00FC [0x00] END_REQSTACK()
```

### Event 65535.14

#### Metadata

| Field        | Value    |
|--------------|----------|
| Entrypoint   | 0x00FD   |
| Data Size    | 34 bytes |
| Instructions | 8        |

```
      00 01 02 03 04 05 06 07  08 09 0A 0B 0C 0D 0E 0F
      -- -- -- -- -- -- -- --  -- -- -- -- -- -- -- --
00F0:                                         32 03 80               2..
0100: 5A 00 14 80 15 80 16 80  5A 01 5A 00 17 80 18 80  Z.......Z.Z.....
0110: 19 80 5A 01 1C 0D 80 4B  F8 FF FF 7F 1A 80 00     ..Z....K....... 
```

#### Opcodes

```
  0: 0x00FD [0x32] ExtData[1]->MainSpeed = 40* * 0.1
  1: 0x0100 [0x5A] UPDATE_EVENT_POSITION: Set EventEntity MovePosition to X=2.067*, Z=107.669*, Y=-2.000*
  2: 0x0108 [0x5A] UPDATE_EVENT_POSITION: Move EventEntity incrementally towards MovePosition
  3: 0x010A [0x5A] UPDATE_EVENT_POSITION: Set EventEntity MovePosition to X=1.919*, Z=103.662*, Y=-0.939*
  4: 0x0112 [0x5A] UPDATE_EVENT_POSITION: Move EventEntity incrementally towards MovePosition
  5: 0x0114 [0x1C] WAIT(20* ticks)
  6: 0x0117 [0x4B] UPDATE_ENTITY_YAW(entity=EventEntity, yaw=3.2°*)
  7: 0x011E [0x00] END_REQSTACK()
```

### Event 65535.15

#### Metadata

| Field        | Value    |
|--------------|----------|
| Entrypoint   | 0x011F   |
| Data Size    | 23 bytes |
| Instructions | 5        |

```
      00 01 02 03 04 05 06 07  08 09 0A 0B 0C 0D 0E 0F
      -- -- -- -- -- -- -- --  -- -- -- -- -- -- -- --
0110:                                               32                 2
0120: 1B 80 1F 00 1C 80 1D 80  1E 80 1F 01 4A F8 FF FF  ............J...
0130: 7F 83 02 05 01 00                                 ......          
```

#### Opcodes

```
  0: 0x011F [0x32] ExtData[1]->MainSpeed = 11* * 0.1
  1: 0x0122 [0x1F] MOVE_ENTITY: EventEntity moves to X=15.324*, Z=83.023*, Y=-0.199*
  2: 0x012A [0x1F] MOVE_ENTITY: Update entity position (mode=1)
  3: 0x012C [0x4A] EventEntity looks at Lilisette (ID: 17105539/0x01050283)
  4: 0x0135 [0x00] END_REQSTACK()
```

### Event 65535.16

#### Metadata

| Field        | Value    |
|--------------|----------|
| Entrypoint   | 0x0136   |
| Data Size    | 32 bytes |
| Instructions | 8        |

```
      00 01 02 03 04 05 06 07  08 09 0A 0B 0C 0D 0E 0F
      -- -- -- -- -- -- -- --  -- -- -- -- -- -- -- --
0130:                   32 1F  80 1F 00 20 80 21 80 1E        2.... .!..
0140: 80 1F 01 1C 0D 80 4A F8  FF FF 7F 83 02 05 01 6F  ......J........o
0150: 76 F8 FF FF 7F 00                                 v.....          
```

#### Opcodes

```
  0: 0x0136 [0x32] ExtData[1]->MainSpeed = 12* * 0.1
  1: 0x0139 [0x1F] MOVE_ENTITY: EventEntity moves to X=16.399*, Z=84.361*, Y=-0.199*
  2: 0x0141 [0x1F] MOVE_ENTITY: Update entity position (mode=1)
  3: 0x0143 [0x1C] WAIT(20* ticks)
  4: 0x0146 [0x4A] EventEntity looks at Lilisette (ID: 17105539/0x01050283)
  5: 0x014F [0x6F] WAIT_FRAME_DELAY: Yield until WaitTime reaches zero
  6: 0x0150 [0x76] CHECK_ENTITY_RENDER_FLAGS: Wait until EventEntity Render.Flags0 and Render.Flags3 conditions are met
  7: 0x0155 [0x00] END_REQSTACK()
```

### Event 65535.17

#### Metadata

| Field        | Value    |
|--------------|----------|
| Entrypoint   | 0x0156   |
| Data Size    | 19 bytes |
| Instructions | 4        |

```
      00 01 02 03 04 05 06 07  08 09 0A 0B 0C 0D 0E 0F
      -- -- -- -- -- -- -- --  -- -- -- -- -- -- -- --
0150:                   59 04  F8 FF FF 7F 22 80 1F 00        Y....."...
0160: 23 80 24 80 1E 80 1F 01  00                       #.$......       
```

#### Opcodes

```
  0: 0x0156 [0x59] UPDATE_ENTITY_DATA: Set EventEntity main speed = 50* * 0.1
  1: 0x015E [0x1F] MOVE_ENTITY: EventEntity moves to X=-16.027*, Z=92.037*, Y=-0.199*
  2: 0x0166 [0x1F] MOVE_ENTITY: Update entity position (mode=1)
  3: 0x0168 [0x00] END_REQSTACK()
```

### Event 65535.18

#### Metadata

| Field        | Value    |
|--------------|----------|
| Entrypoint   | 0x0169   |
| Data Size    | 14 bytes |
| Instructions | 4        |

```
      00 01 02 03 04 05 06 07  08 09 0A 0B 0C 0D 0E 0F
      -- -- -- -- -- -- -- --  -- -- -- -- -- -- -- --
0160:                             32 1B 80 1F 00 25 80           2....%.
0170: 26 80 1E 80 1F 01 00                              &......         
```

#### Opcodes

```
  0: 0x0169 [0x32] ExtData[1]->MainSpeed = 11* * 0.1
  1: 0x016C [0x1F] MOVE_ENTITY: EventEntity moves to X=16.324*, Z=82.653*, Y=-0.199*
  2: 0x0174 [0x1F] MOVE_ENTITY: Update entity position (mode=1)
  3: 0x0176 [0x00] END_REQSTACK()
```

### Event 65535.19

#### Metadata

| Field        | Value   |
|--------------|---------|
| Entrypoint   | 0x0177  |
| Data Size    | 4 bytes |
| Instructions | 2       |

```
      00 01 02 03 04 05 06 07  08 09 0A 0B 0C 0D 0E 0F
      -- -- -- -- -- -- -- --  -- -- -- -- -- -- -- --
0170:                      C0  01 80 00                        ....     
```

#### Opcodes

```
  0: 0x0177 [0xC0] EventEntity->Render.Flags3 |= 0x1000 // Set bit 12 (from 1*)
  1: 0x017A [0x00] END_REQSTACK()
```

### Event 65535.20

#### Metadata

| Field        | Value   |
|--------------|---------|
| Entrypoint   | 0x017B  |
| Data Size    | 4 bytes |
| Instructions | 2       |

```
      00 01 02 03 04 05 06 07  08 09 0A 0B 0C 0D 0E 0F
      -- -- -- -- -- -- -- --  -- -- -- -- -- -- -- --
0170:                                   C0 00 80 00                .... 
```

#### Opcodes

```
  0: 0x017B [0xC0] EventEntity->Render.Flags3 &= ~0x1000 // Clear bit 12 (from 0*)
  1: 0x017E [0x00] END_REQSTACK()
```

### Event 65535.21

#### Metadata

| Field        | Value    |
|--------------|----------|
| Entrypoint   | 0x017F   |
| Data Size    | 10 bytes |
| Instructions | 4        |

```
      00 01 02 03 04 05 06 07  08 09 0A 0B 0C 0D 0E 0F
      -- -- -- -- -- -- -- --  -- -- -- -- -- -- -- --
0170:                                               1C                 .
0180: 27 80 06 2A 10 1C 28 80  00                       '..*..(..       
```

#### Opcodes

```
  0: 0x017F [0x1C] WAIT(89* ticks)
  1: 0x0182 [0x06] Work_Zone[42] = 0
  2: 0x0185 [0x1C] WAIT(2* ticks)
  3: 0x0188 [0x00] END_REQSTACK()
```

### Event 65535.22

#### Metadata

| Field        | Value     |
|--------------|-----------|
| Entrypoint   | 0x0189    |
| Data Size    | 117 bytes |
| Instructions | 16        |

```
      00 01 02 03 04 05 06 07  08 09 0A 0B 0C 0D 0E 0F
      -- -- -- -- -- -- -- --  -- -- -- -- -- -- -- --
0180:                             59 04 F8 FF FF 7F 29           Y.....)
0190: 80 1F 00 2A 80 2B 80 00  80 1F 01 6F 1C 2C 80 4A  ...*.+.....o.,.J
01A0: F8 FF FF 7F F0 FF FF 7F  6F 76 F8 FF FF 7F 5B 2D  ........ov....[-
01B0: 80 87 02 05 01 87 02 05  01 66 66 30 30 5B 2E 80  .........ff00[..
01C0: F8 FF FF 7F F8 FF FF 7F  74 6C 62 30 1C 2F 80 5B  ........tlb0./.[
01D0: 2E 80 F8 FF FF 7F F8 FF  FF 7F 74 6C 62 31 53 F8  ..........tlb1S.
01E0: FF FF 7F F8 FF FF 7F 74  6C 62 31 5B 30 80 F8 FF  .......tlb1[0...
01F0: FF 7F F8 FF FF 7F 63 72  79 30 1C 2F 80 00        ......cry0./..  
```

#### Opcodes

```
  0: 0x0189 [0x59] UPDATE_ENTITY_DATA: Set EventEntity main speed = 38* * 0.1
  1: 0x0191 [0x1F] MOVE_ENTITY: EventEntity moves to X=123.052*, Z=103.024*, Y=0.000*
  2: 0x0199 [0x1F] MOVE_ENTITY: Update entity position (mode=1)
  3: 0x019B [0x6F] WAIT_FRAME_DELAY: Yield until WaitTime reaches zero
  4: 0x019C [0x1C] WAIT(5* ticks)
  5: 0x019F [0x4A] EventEntity looks at LocalPlayer
  6: 0x01A8 [0x6F] WAIT_FRAME_DELAY: Yield until WaitTime reaches zero
  7: 0x01A9 [0x76] CHECK_ENTITY_RENDER_FLAGS: Wait until EventEntity Render.Flags0 and Render.Flags3 conditions are met
  8: 0x01AE [0x5B] LOAD_EXT_SCHEDULER: Load scheduler "ff00" with entities [Cait Sith (ID: 17105543/0x01050287), Cait Sith (ID: 17105543/0x01050287)], work=1311*
  9: 0x01BD [0x5B] LOAD_EXT_SCHEDULER: Load scheduler "tlb0" with entities [EventEntity, EventEntity], work=1414*
 10: 0x01CC [0x1C] WAIT(60* ticks)
 11: 0x01CF [0x5B] LOAD_EXT_SCHEDULER: Load scheduler "tlb1" with entities [EventEntity, EventEntity], work=1414*
 12: 0x01DE [0x53] WAIT_SCHEDULER_TASK: Wait for scheduler "tlb1" with entities [EventEntity, EventEntity]
 13: 0x01EB [0x5B] LOAD_EXT_SCHEDULER: Load scheduler "cry0" with entities [EventEntity, EventEntity], work=2857*
 14: 0x01FA [0x1C] WAIT(60* ticks)
 15: 0x01FD [0x00] END_REQSTACK()
```

### Event 65535.23

#### Metadata

| Field        | Value   |
|--------------|---------|
| Entrypoint   | 0x01FE  |
| Data Size    | 3 bytes |
| Instructions | 2       |

```
      00 01 02 03 04 05 06 07  08 09 0A 0B 0C 0D 0E 0F
      -- -- -- -- -- -- -- --  -- -- -- -- -- -- -- --
01F0:                                            A5 01                ..
0200: 00                                                .               
```

#### Opcodes

```
  0: 0x01FE [0xA5] EventEntity->Flags3.BallistaTeam |= 0x08  // Set bit 3 of BallistaTeam
  1: 0x0200 [0x00] END_REQSTACK()
```

### Event 65535.24

#### Metadata

| Field        | Value   |
|--------------|---------|
| Entrypoint   | 0x0201  |
| Data Size    | 3 bytes |
| Instructions | 2       |

```
      00 01 02 03 04 05 06 07  08 09 0A 0B 0C 0D 0E 0F
      -- -- -- -- -- -- -- --  -- -- -- -- -- -- -- --
0200:    A5 00 00                                        ...            
```

#### Opcodes

```
  0: 0x0201 [0xA5] EventEntity->Flags3.BallistaTeam &= ~0x08  // Clear bit 3 of BallistaTeam
  1: 0x0203 [0x00] END_REQSTACK()
```

### Event 65535.25

#### Metadata

| Field        | Value    |
|--------------|----------|
| Entrypoint   | 0x0204   |
| Data Size    | 27 bytes |
| Instructions | 6        |

```
      00 01 02 03 04 05 06 07  08 09 0A 0B 0C 0D 0E 0F
      -- -- -- -- -- -- -- --  -- -- -- -- -- -- -- --
0200:             59 04 F8 FF  FF 7F 04 80 1F 00 31 80      Y.........1.
0210: 32 80 1E 80 1F 01 6F 4B  F8 FF FF 7F 33 80 00     2.....oK....3.. 
```

#### Opcodes

```
  0: 0x0204 [0x59] UPDATE_ENTITY_DATA: Set EventEntity main speed = 13* * 0.1
  1: 0x020C [0x1F] MOVE_ENTITY: EventEntity moves to X=109.974*, Z=109.946*, Y=-0.199*
  2: 0x0214 [0x1F] MOVE_ENTITY: Update entity position (mode=1)
  3: 0x0216 [0x6F] WAIT_FRAME_DELAY: Yield until WaitTime reaches zero
  4: 0x0217 [0x4B] UPDATE_ENTITY_YAW(entity=EventEntity, yaw=14.0°*)
  5: 0x021E [0x00] END_REQSTACK()
```

### Event 65535.26

#### Metadata

| Field        | Value    |
|--------------|----------|
| Entrypoint   | 0x021F   |
| Data Size    | 35 bytes |
| Instructions | 6        |

```
      00 01 02 03 04 05 06 07  08 09 0A 0B 0C 0D 0E 0F
      -- -- -- -- -- -- -- --  -- -- -- -- -- -- -- --
0210:                                               59                 Y
0220: 04 F8 FF FF 7F 04 80 1F  00 34 80 35 80 36 80 1F  .........4.5.6..
0230: 01 6F 5B 37 80 F8 FF FF  7F F8 FF FF 7F 75 64 65  .o[7.........ude
0240: 30 00                                             0.              
```

#### Opcodes

```
  0: 0x021F [0x59] UPDATE_ENTITY_DATA: Set EventEntity main speed = 13* * 0.1
  1: 0x0227 [0x1F] MOVE_ENTITY: EventEntity moves to X=95.051*, Z=126.456*, Y=1.000*
  2: 0x022F [0x1F] MOVE_ENTITY: Update entity position (mode=1)
  3: 0x0231 [0x6F] WAIT_FRAME_DELAY: Yield until WaitTime reaches zero
  4: 0x0232 [0x5B] LOAD_EXT_SCHEDULER: Load scheduler "ude0" with entities [EventEntity, EventEntity], work=1412*
  5: 0x0241 [0x00] END_REQSTACK()
```

### Event 65535.27

#### Metadata

| Field        | Value    |
|--------------|----------|
| Entrypoint   | 0x0242   |
| Data Size    | 32 bytes |
| Instructions | 7        |

```
      00 01 02 03 04 05 06 07  08 09 0A 0B 0C 0D 0E 0F
      -- -- -- -- -- -- -- --  -- -- -- -- -- -- -- --
0240:       59 04 F8 FF FF 7F  04 80 1F 00 38 80 39 80    Y.........8.9.
0250: 36 80 1F 01 6F 1C 3A 80  4A F8 FF FF 7F 8B 02 05  6...o.:.J.......
0260: 01 00                                             ..              
```

#### Opcodes

```
  0: 0x0242 [0x59] UPDATE_ENTITY_DATA: Set EventEntity main speed = 13* * 0.1
  1: 0x024A [0x1F] MOVE_ENTITY: EventEntity moves to X=93.985*, Z=126.795*, Y=1.000*
  2: 0x0252 [0x1F] MOVE_ENTITY: Update entity position (mode=1)
  3: 0x0254 [0x6F] WAIT_FRAME_DELAY: Yield until WaitTime reaches zero
  4: 0x0255 [0x1C] WAIT(30* ticks)
  5: 0x0258 [0x4A] EventEntity looks at Mayakov (ID: 17105547/0x0105028B)
  6: 0x0261 [0x00] END_REQSTACK()
```

### Event 65535.28

#### Metadata

| Field        | Value    |
|--------------|----------|
| Entrypoint   | 0x0262   |
| Data Size    | 47 bytes |
| Instructions | 8        |

```
      00 01 02 03 04 05 06 07  08 09 0A 0B 0C 0D 0E 0F
      -- -- -- -- -- -- -- --  -- -- -- -- -- -- -- --
0260:       59 04 F8 FF FF 7F  3B 80 1F 00 3C 80 3D 80    Y.....;...<.=.
0270: 36 80 1F 01 6F 4A F8 FF  FF 7F 8D 02 05 01 1C 3A  6...oJ.........:
0280: 80 5B 2D 80 F8 FF FF 7F  F8 FF FF 7F 62 69 6B 30  .[-.........bik0
0290: 00                                                .               
```

#### Opcodes

```
  0: 0x0262 [0x59] UPDATE_ENTITY_DATA: Set EventEntity main speed = 39* * 0.1
  1: 0x026A [0x1F] MOVE_ENTITY: EventEntity moves to X=94.432*, Z=126.139*, Y=1.000*
  2: 0x0272 [0x1F] MOVE_ENTITY: Update entity position (mode=1)
  3: 0x0274 [0x6F] WAIT_FRAME_DELAY: Yield until WaitTime reaches zero
  4: 0x0275 [0x4A] EventEntity looks at Unnamed NPC (ID: 17105549/0x0105028D)
  5: 0x027E [0x1C] WAIT(30* ticks)
  6: 0x0281 [0x5B] LOAD_EXT_SCHEDULER: Load scheduler "bik0" with entities [EventEntity, EventEntity], work=1311*
  7: 0x0290 [0x00] END_REQSTACK()
```

### Event 65535.29

#### Metadata

| Field        | Value    |
|--------------|----------|
| Entrypoint   | 0x0291   |
| Data Size    | 82 bytes |
| Instructions | 14       |

```
      00 01 02 03 04 05 06 07  08 09 0A 0B 0C 0D 0E 0F
      -- -- -- -- -- -- -- --  -- -- -- -- -- -- -- --
0290:    4A F8 FF FF 7F 8B 02  05 01 1C 2F 80 4A F8 FF   J........./.J..
02A0: FF 7F 8D 02 05 01 1C 3A  80 4A F8 FF FF 7F 8B 02  .......:.J......
02B0: 05 01 1C 3A 80 4A F8 FF  FF 7F 8D 02 05 01 1C 2F  ...:.J........./
02C0: 80 4A F8 FF FF 7F 8B 02  05 01 1C 2F 80 4A F8 FF  .J........./.J..
02D0: FF 7F 8D 02 05 01 1C 3A  80 4A F8 FF FF 7F 8B 02  .......:.J......
02E0: 05 01 00                                          ...             
```

#### Opcodes

```
  0: 0x0291 [0x4A] EventEntity looks at Mayakov (ID: 17105547/0x0105028B)
  1: 0x029A [0x1C] WAIT(60* ticks)
  2: 0x029D [0x4A] EventEntity looks at Unnamed NPC (ID: 17105549/0x0105028D)
  3: 0x02A6 [0x1C] WAIT(30* ticks)
  4: 0x02A9 [0x4A] EventEntity looks at Mayakov (ID: 17105547/0x0105028B)
  5: 0x02B2 [0x1C] WAIT(30* ticks)
  6: 0x02B5 [0x4A] EventEntity looks at Unnamed NPC (ID: 17105549/0x0105028D)
  7: 0x02BE [0x1C] WAIT(60* ticks)
  8: 0x02C1 [0x4A] EventEntity looks at Mayakov (ID: 17105547/0x0105028B)
  9: 0x02CA [0x1C] WAIT(60* ticks)
 10: 0x02CD [0x4A] EventEntity looks at Unnamed NPC (ID: 17105549/0x0105028D)
 11: 0x02D6 [0x1C] WAIT(30* ticks)
 12: 0x02D9 [0x4A] EventEntity looks at Mayakov (ID: 17105547/0x0105028B)
 13: 0x02E2 [0x00] END_REQSTACK()
```

### Event 65535.30

#### Metadata

| Field        | Value    |
|--------------|----------|
| Entrypoint   | 0x02E3   |
| Data Size    | 20 bytes |
| Instructions | 5        |

```
      00 01 02 03 04 05 06 07  08 09 0A 0B 0C 0D 0E 0F
      -- -- -- -- -- -- -- --  -- -- -- -- -- -- -- --
02E0:          59 04 F8 FF FF  7F 04 80 1F 00 3E 80 3F     Y.........>.?
02F0: 80 40 80 1F 01 6F 00                              .@...o.         
```

#### Opcodes

```
  0: 0x02E3 [0x59] UPDATE_ENTITY_DATA: Set EventEntity main speed = 13* * 0.1
  1: 0x02EB [0x1F] MOVE_ENTITY: EventEntity moves to X=94.929*, Z=103.600*, Y=0.350*
  2: 0x02F3 [0x1F] MOVE_ENTITY: Update entity position (mode=1)
  3: 0x02F5 [0x6F] WAIT_FRAME_DELAY: Yield until WaitTime reaches zero
  4: 0x02F6 [0x00] END_REQSTACK()
```

### Event 65535.31

#### Metadata

| Field        | Value    |
|--------------|----------|
| Entrypoint   | 0x02F7   |
| Data Size    | 29 bytes |
| Instructions | 6        |

```
      00 01 02 03 04 05 06 07  08 09 0A 0B 0C 0D 0E 0F
      -- -- -- -- -- -- -- --  -- -- -- -- -- -- -- --
02F0:                      59  04 F8 FF FF 7F 04 80 1F         Y........
0300: 00 41 80 42 80 36 80 1F  01 6F 4A F8 FF FF 7F F0  .A.B.6...oJ.....
0310: FF FF 7F 00                                       ....            
```

#### Opcodes

```
  0: 0x02F7 [0x59] UPDATE_ENTITY_DATA: Set EventEntity main speed = 13* * 0.1
  1: 0x02FF [0x1F] MOVE_ENTITY: EventEntity moves to X=96.100*, Z=100.000*, Y=1.000*
  2: 0x0307 [0x1F] MOVE_ENTITY: Update entity position (mode=1)
  3: 0x0309 [0x6F] WAIT_FRAME_DELAY: Yield until WaitTime reaches zero
  4: 0x030A [0x4A] EventEntity looks at LocalPlayer
  5: 0x0313 [0x00] END_REQSTACK()
```

### Event 65535.32

#### Metadata

| Field        | Value   |
|--------------|---------|
| Entrypoint   | 0x0314  |
| Data Size    | 4 bytes |
| Instructions | 2       |

```
      00 01 02 03 04 05 06 07  08 09 0A 0B 0C 0D 0E 0F
      -- -- -- -- -- -- -- --  -- -- -- -- -- -- -- --
0310:             C0 01 80 00                               ....        
```

#### Opcodes

```
  0: 0x0314 [0xC0] EventEntity->Render.Flags3 |= 0x1000 // Set bit 12 (from 1*)
  1: 0x0317 [0x00] END_REQSTACK()
```

### Event 65535.33

#### Metadata

| Field        | Value   |
|--------------|---------|
| Entrypoint   | 0x0318  |
| Data Size    | 4 bytes |
| Instructions | 2       |

```
      00 01 02 03 04 05 06 07  08 09 0A 0B 0C 0D 0E 0F
      -- -- -- -- -- -- -- --  -- -- -- -- -- -- -- --
0310:                          C0 00 80 00                      ....    
```

#### Opcodes

```
  0: 0x0318 [0xC0] EventEntity->Render.Flags3 &= ~0x1000 // Clear bit 12 (from 0*)
  1: 0x031B [0x00] END_REQSTACK()
```

### Event 166

#### Metadata

| Field        | Value   |
|--------------|---------|
| Entrypoint   | 0x031C  |
| Data Size    | 1 bytes |
| Instructions | 1       |

```
      00 01 02 03 04 05 06 07  08 09 0A 0B 0C 0D 0E 0F
      -- -- -- -- -- -- -- --  -- -- -- -- -- -- -- --
0310:                                      00                       .   
```

#### Opcodes

```
  0: 0x031C [0x00] END_REQSTACK()
```

### Event 183

#### Metadata

| Field        | Value   |
|--------------|---------|
| Entrypoint   | 0x031D  |
| Data Size    | 5 bytes |
| Instructions | 2       |

```
      00 01 02 03 04 05 06 07  08 09 0A 0B 0C 0D 0E 0F
      -- -- -- -- -- -- -- --  -- -- -- -- -- -- -- --
0310:                                         B6 00 43               ..C
0320: 80 00                                             ..              
```

#### Opcodes

```
  0: 0x031D [0xB6] ENTITY_APPEARANCE_HANDLER(case=Hair style, value=326*)
  1: 0x0321 [0x00] END_REQSTACK()
```

### Event 184

#### Metadata

| Field        | Value   |
|--------------|---------|
| Entrypoint   | 0x0322  |
| Data Size    | 5 bytes |
| Instructions | 2       |

```
      00 01 02 03 04 05 06 07  08 09 0A 0B 0C 0D 0E 0F
      -- -- -- -- -- -- -- --  -- -- -- -- -- -- -- --
0320:       B6 00 43 80 00                                ..C..         
```

#### Opcodes

```
  0: 0x0322 [0xB6] ENTITY_APPEARANCE_HANDLER(case=Hair style, value=326*)
  1: 0x0326 [0x00] END_REQSTACK()
```

### Event 65535.34

#### Metadata

| Field        | Value   |
|--------------|---------|
| Entrypoint   | 0x0327  |
| Data Size    | 5 bytes |
| Instructions | 2       |

```
      00 01 02 03 04 05 06 07  08 09 0A 0B 0C 0D 0E 0F
      -- -- -- -- -- -- -- --  -- -- -- -- -- -- -- --
0320:                      B6  00 44 80 00                     ..D..    
```

#### Opcodes

```
  0: 0x0327 [0xB6] ENTITY_APPEARANCE_HANDLER(case=Hair style, value=2255*)
  1: 0x032B [0x00] END_REQSTACK()
```

### Event 65535.35

#### Metadata

| Field        | Value    |
|--------------|----------|
| Entrypoint   | 0x032C   |
| Data Size    | 25 bytes |
| Instructions | 3        |

```
      00 01 02 03 04 05 06 07  08 09 0A 0B 0C 0D 0E 0F
      -- -- -- -- -- -- -- --  -- -- -- -- -- -- -- --
0320:                                      B4 13 04 00              ....
0330: 43 61 69 74 40 53 69 74  68 40 4E 61 6F 69 00 00  Cait@Sith@Naoi..
0340: B5 00 04 00 00                                    .....           
```

#### Opcodes

```
  0: 0x032C [0xB4] UI_WINDOW_STRING_HANDLER(case=0x13 - Copy string and replace @ with space, work_offset=ExtData[1]->WorkLocal[4], string="Cait@Sith@Naoi")
  1: 0x0340 [0xB5] SET_EVENT_ENTITY_NAME: Change EventEntity name to ExtData[1]->WorkLocal[4]
  2: 0x0344 [0x00] END_REQSTACK()
```

### Event 65535.36

#### Metadata

| Field        | Value    |
|--------------|----------|
| Entrypoint   | 0x0345   |
| Data Size    | 25 bytes |
| Instructions | 3        |

```
      00 01 02 03 04 05 06 07  08 09 0A 0B 0C 0D 0E 0F
      -- -- -- -- -- -- -- --  -- -- -- -- -- -- -- --
0340:                B4 13 04  00 43 61 69 74 40 53 69       ....Cait@Si
0350: 74 68 00 00 00 00 00 00  00 B5 00 04 00 00        th............  
```

#### Opcodes

```
  0: 0x0345 [0xB4] UI_WINDOW_STRING_HANDLER(case=0x13 - Copy string and replace @ with space, work_offset=ExtData[1]->WorkLocal[4], string="Cait@Sith")
  1: 0x0359 [0xB5] SET_EVENT_ENTITY_NAME: Change EventEntity name to ExtData[1]->WorkLocal[4]
  2: 0x035D [0x00] END_REQSTACK()
```
