# 17105436

## Common Data

| Field            | Value                            |
|------------------|----------------------------------|
| Zone             | Southern San d'Oria [S] (ID: 80) |
| Block Size       | 13376 bytes                      |
| Total Events     | 5                                |
| References Count | 356                              |

## List of Events

| Event ID              | Entrypoint   |   Size |   Instructions |
|-----------------------|--------------|--------|----------------|
| [65535](#event-65535) | 0x0000       |      1 |              1 |
| [638](#event-638)     | 0x0001       |    791 |             97 |
| [642](#event-642)     | 0x0318       |    936 |            100 |
| [649](#event-649)     | 0x06C0       |   4557 |            479 |
| [650](#event-650)     | 0x188D       |   5628 |            644 |

## DAT References (imed_data)

|   Index | Hex Value   |   Dec Value |
|---------|-------------|-------------|
|       0 | 0x00C8      |         200 |
|       1 | 0x0000      |           0 |
|       2 | 0x0013      |          19 |
|       3 | 0xFFFD578F  |  4294793103 |
|       4 | 0xDFF5      |       57333 |
|       5 | 0xFFFFF769  |  4294965097 |
|       6 | 0x008D      |         141 |
|       7 | 0x0BB8      |        3000 |
|       8 | 0x001E      |          30 |
|       9 | 0x01C5      |         453 |
|      10 | 0x003C      |          60 |
|      11 | 0x000A      |          10 |
|      12 | 0x2FA1      |       12193 |
|      13 | 0x2FA2      |       12194 |
|      14 | 0xFFFD6390  |  4294796176 |
|      15 | 0xDCF0      |       56560 |
|      16 | 0xFFFFF830  |  4294965296 |
|      17 | 0x0005      |           5 |
|      18 | 0x0078      |         120 |
|      19 | 0x0515      |        1301 |
|      20 | 0x2FA3      |       12195 |
|      21 | 0x0513      |        1299 |
|      22 | 0x04F8      |        1272 |
|      23 | 0x2FA4      |       12196 |
|      24 | 0x042E      |        1070 |
|      25 | 0x2FA5      |       12197 |
|      26 | 0x2FA6      |       12198 |
|      27 | 0x042F      |        1071 |
|      28 | 0x2FA7      |       12199 |
|      29 | 0x2FA8      |       12200 |
|      30 | 0x0430      |        1072 |
|      31 | 0x2FA9      |       12201 |
|      32 | 0x2FAA      |       12202 |
|      33 | 0x2FAB      |       12203 |
|      34 | 0x0001      |           1 |
|      35 | 0xFFFD6DA1  |  4294798753 |
|      36 | 0xD8BC      |       55484 |
|      37 | 0x0C80      |        3200 |
|      38 | 0x04F9      |        1273 |
|      39 | 0x000F      |          15 |
|      40 | 0x2FBA      |       12218 |
|      41 | 0xFFFD73B5  |  4294800309 |
|      42 | 0xDE70      |       56944 |
|      43 | 0x00B7      |         183 |
|      44 | 0x098C      |        2444 |
|      45 | 0x05B8      |        1464 |
|      46 | 0x2FBB      |       12219 |
|      47 | 0x2FBC      |       12220 |
|      48 | 0x2FBD      |       12221 |
|      49 | 0xFFFD6E27  |  4294798887 |
|      50 | 0xDD39      |       56633 |
|      51 | 0xFFFFF831  |  4294965297 |
|      52 | 0x06A4      |        1700 |
|      53 | 0x00A0      |         160 |
|      54 | 0x0014      |          20 |
|      55 | 0x2FBE      |       12222 |
|      56 | 0x2FBF      |       12223 |
|      57 | 0x2FC0      |       12224 |
|      58 | 0x0431      |        1073 |
|      59 | 0x2FC1      |       12225 |
|      60 | 0xFFFD4653  |  4294788691 |
|      61 | 0xE2EE      |       58094 |
|      62 | 0x0150      |         336 |
|      63 | 0xFFFD5AD5  |  4294793941 |
|      64 | 0xE644      |       58948 |
|      65 | 0x0101      |         257 |
|      66 | 0xFFFD57DE  |  4294793182 |
|      67 | 0xE252      |       57938 |
|      68 | 0xFFFD566C  |  4294792812 |
|      69 | 0xE746      |       59206 |
|      70 | 0x01B5      |         437 |
|      71 | 0x2FC6      |       12230 |
|      72 | 0x2FC7      |       12231 |
|      73 | 0x2FC8      |       12232 |
|      74 | 0x2FC9      |       12233 |
|      75 | 0x2FCA      |       12234 |
|      76 | 0x2FCB      |       12235 |
|      77 | 0x2FCC      |       12236 |
|      78 | 0x2FCD      |       12237 |
|      79 | 0x2FCE      |       12238 |
|      80 | 0x0002      |           2 |
|      81 | 0x0003      |           3 |
|      82 | 0x0004      |           4 |
|      83 | 0x0006      |           6 |
|      84 | 0x0007      |           7 |
|      85 | 0x0008      |           8 |
|      86 | 0x0064      |         100 |
|      87 | 0x05DE      |        1502 |
|      88 | 0x05DF      |        1503 |
|      89 | 0x009F      |         159 |
|      90 | 0x2FCF      |       12239 |
|      91 | 0x2FD0      |       12240 |
|      92 | 0x2FD1      |       12241 |
|      93 | 0x2FD2      |       12242 |
|      94 | 0x08D5      |        2261 |
|      95 | 0x00B4      |         180 |
|      96 | 0x08D6      |        2262 |
|      97 | 0x2FD3      |       12243 |
|      98 | 0x2FD4      |       12244 |
|      99 | 0x2FD5      |       12245 |
|     100 | 0x2FD6      |       12246 |
|     101 | 0x2FD7      |       12247 |
|     102 | 0x2FD8      |       12248 |
|     103 | 0x2FD9      |       12249 |
|     104 | 0x2FDA      |       12250 |
|     105 | 0x0CA5      |        3237 |
|     106 | 0x0B00      |        2816 |
|     107 | 0x05E1      |        1505 |
|     108 | 0x095C      |        2396 |
|     109 | 0x2FDB      |       12251 |
|     110 | 0xFFFD683C  |  4294797372 |
|     111 | 0xE7C2      |       59330 |
|     112 | 0x06F6      |        1782 |
|     113 | 0xFFFD592A  |  4294793514 |
|     114 | 0xEEB7      |       61111 |
|     115 | 0x0C29      |        3113 |
|     116 | 0x0050      |          80 |
|     117 | 0x0080      |         128 |
|     118 | 0x095E      |        2398 |
|     119 | 0x0A60      |        2656 |
|     120 | 0x0096      |         150 |
|     121 | 0x2FDC      |       12252 |
|     122 | 0x095D      |        2397 |
|     123 | 0x006E      |         110 |
|     124 | 0x095F      |        2399 |
|     125 | 0x0A61      |        2657 |
|     126 | 0x00FA      |         250 |
|     127 | 0x2FDD      |       12253 |
|     128 | 0x2FDE      |       12254 |
|     129 | 0xFFFD62CD  |  4294795981 |
|     130 | 0xE6F0      |       59120 |
|     131 | 0x03B7      |         951 |
|     132 | 0x2FDF      |       12255 |
|     133 | 0x2FE0      |       12256 |
|     134 | 0x2FE1      |       12257 |
|     135 | 0x08FE      |        2302 |
|     136 | 0x2FE2      |       12258 |
|     137 | 0x2FE3      |       12259 |
|     138 | 0xFFFD30A7  |  4294783143 |
|     139 | 0xE336      |       58166 |
|     140 | 0x00F0      |         240 |
|     141 | 0x2FE4      |       12260 |
|     142 | 0x2FE5      |       12261 |
|     143 | 0x093F      |        2367 |
|     144 | 0xFFFD8753  |  4294805331 |
|     145 | 0xE4E7      |       58599 |
|     146 | 0x0A50      |        2640 |
|     147 | 0x01DE      |         478 |
|     148 | 0xFFFFAFBD  |  4294946749 |
|     149 | 0x07CF      |        1999 |
|     150 | 0x039E      |         926 |
|     151 | 0xFFFDFA78  |  4294834808 |
|     152 | 0x2E60      |       11872 |
|     153 | 0xFFFFFB79  |  4294966137 |
|     154 | 0x0899      |        2201 |
|     155 | 0xFFF98760  |  4294543200 |
|     156 | 0xFFFFC787  |  4294952839 |
|     157 | 0x5E18      |       24088 |
|     158 | 0x039D      |         925 |
|     159 | 0x0197      |         407 |
|     160 | 0x0B50      |        2896 |
|     161 | 0xFFFFA969  |  4294945129 |
|     162 | 0x003E      |          62 |
|     163 | 0x2FE8      |       12264 |
|     164 | 0x2FE9      |       12265 |
|     165 | 0x02E7      |         743 |
|     166 | 0xFFFFA942  |  4294945090 |
|     167 | 0x083E      |        2110 |
|     168 | 0xFFFFFB58  |  4294966104 |
|     169 | 0xFFFFAA56  |  4294945366 |
|     170 | 0x0897      |        2199 |
|     171 | 0x2FEA      |       12266 |
|     172 | 0x2FEB      |       12267 |
|     173 | 0x2FEC      |       12268 |
|     174 | 0x0067      |         103 |
|     175 | 0x0015      |          21 |
|     176 | 0xFFFD3241  |  4294783553 |
|     177 | 0xA516      |       42262 |
|     178 | 0x0263      |         611 |
|     179 | 0x0888      |        2184 |
|     180 | 0xFFFD4147  |  4294787399 |
|     181 | 0x9C2D      |       39981 |
|     182 | 0x03DB      |         987 |
|     183 | 0xFFFD5268  |  4294791784 |
|     184 | 0xA640      |       42560 |
|     185 | 0x0256      |         598 |
|     186 | 0xFFFD5D0C  |  4294794508 |
|     187 | 0x971E      |       38686 |
|     188 | 0x0192      |         402 |
|     189 | 0xFFFD6C5F  |  4294798431 |
|     190 | 0xA245      |       41541 |
|     191 | 0x00E5      |         229 |
|     192 | 0xFFFD7404  |  4294800388 |
|     193 | 0x924C      |       37452 |
|     194 | 0xFFFFFFFF  |  4294967295 |
|     195 | 0x0811      |        2065 |
|     196 | 0x0929      |        2345 |
|     197 | 0xFFFB2D20  |  4294651168 |
|     198 | 0xEBC8      |       60360 |
|     199 | 0xFFFFE2BF  |  4294959807 |
|     200 | 0x0CD5      |        3285 |
|     201 | 0x2FED      |       12269 |
|     202 | 0xFFFBE8CF  |  4294699215 |
|     203 | 0xD1A5      |       53669 |
|     204 | 0xFFFFFA9A  |  4294965914 |
|     205 | 0x080C      |        2060 |
|     206 | 0x005A      |          90 |
|     207 | 0xFFFDDD4F  |  4294827343 |
|     208 | 0x9BF0      |       39920 |
|     209 | 0x03AD      |         941 |
|     210 | 0x0800      |        2048 |
|     211 | 0x090C      |        2316 |
|     212 | 0x098E      |        2446 |
|     213 | 0x090D      |        2317 |
|     214 | 0x095A      |        2394 |
|     215 | 0xFFFDEC0F  |  4294831119 |
|     216 | 0xAAB9      |       43705 |
|     217 | 0xFFFFFF52  |  4294967122 |
|     218 | 0x0794      |        1940 |
|     219 | 0xFFFE0717  |  4294838039 |
|     220 | 0xA436      |       42038 |
|     221 | 0x0026      |          38 |
|     222 | 0x0838      |        2104 |
|     223 | 0xFFFDF78E  |  4294834062 |
|     224 | 0x94FB      |       38139 |
|     225 | 0x0031      |          49 |
|     226 | 0x082A      |        2090 |
|     227 | 0xFFFDECD6  |  4294831318 |
|     228 | 0x8EA3      |       36515 |
|     229 | 0xFFFFFF34  |  4294967092 |
|     230 | 0xFFFE15B7  |  4294841783 |
|     231 | 0x9BA2      |       39842 |
|     232 | 0x0033      |          51 |
|     233 | 0x0802      |        2050 |
|     234 | 0xFFFDEF5E  |  4294831966 |
|     235 | 0x858D      |       34189 |
|     236 | 0xFFFFFDEE  |  4294966766 |
|     237 | 0x07D8      |        2008 |
|     238 | 0x2FEE      |       12270 |
|     239 | 0x2FEF      |       12271 |
|     240 | 0x00DD      |         221 |
|     241 | 0x0061      |          97 |
|     242 | 0x0276      |         630 |
|     243 | 0x00F7      |         247 |
|     244 | 0x0108      |         264 |
|     245 | 0x0069      |         105 |
|     246 | 0x2FF0      |       12272 |
|     247 | 0xFFFA66DF  |  4294600415 |
|     248 | 0xFFFFFF1F  |  4294967071 |
|     249 | 0xFFFFFEEE  |  4294967022 |
|     250 | 0x0F85      |        3973 |
|     251 | 0x2FF1      |       12273 |
|     252 | 0xFFFFFC53  |  4294966355 |
|     253 | 0x007F      |         127 |
|     254 | 0x1000      |        4096 |
|     255 | 0x2FF2      |       12274 |
|     256 | 0xFFFE1726  |  4294842150 |
|     257 | 0x3243      |       12867 |
|     258 | 0xFFFFFA99  |  4294965913 |
|     259 | 0x089A      |        2202 |
|     260 | 0xFFFE0AB8  |  4294838968 |
|     261 | 0x44C2      |       17602 |
|     262 | 0xFFFFF779  |  4294965113 |
|     263 | 0x08CB      |        2251 |
|     264 | 0xFFFE11E0  |  4294840800 |
|     265 | 0x21EA      |        8682 |
|     266 | 0xFFFFFCD5  |  4294966485 |
|     267 | 0xFFFE0864  |  4294838372 |
|     268 | 0x1578      |        5496 |
|     269 | 0xFFFFFE6A  |  4294966890 |
|     270 | 0x08EA      |        2282 |
|     271 | 0xFFFE17E6  |  4294842342 |
|     272 | 0x056F      |        1391 |
|     273 | 0xFFFFFFA5  |  4294967205 |
|     274 | 0x0840      |        2112 |
|     275 | 0xFFFAF765  |  4294637413 |
|     276 | 0x0A8E      |        2702 |
|     277 | 0xFFFFF426  |  4294964262 |
|     278 | 0x0092      |         146 |
|     279 | 0x098F      |        2447 |
|     280 | 0x0041      |          65 |
|     281 | 0xFFFDDB65  |  4294826853 |
|     282 | 0x8E91      |       36497 |
|     283 | 0xFFFFFFD0  |  4294967248 |
|     284 | 0x0778      |        1912 |
|     285 | 0xFFFDE005  |  4294828037 |
|     286 | 0x993B      |       39227 |
|     287 | 0x02BD      |         701 |
|     288 | 0x0756      |        1878 |
|     289 | 0xFFFDD855  |  4294826069 |
|     290 | 0x9F86      |       40838 |
|     291 | 0x0278      |         632 |
|     292 | 0x0776      |        1910 |
|     293 | 0xFFFDCF0B  |  4294823691 |
|     294 | 0xA90C      |       43276 |
|     295 | 0xFFFFFF29  |  4294967081 |
|     296 | 0x073C      |        1852 |
|     297 | 0xFFFDCD76  |  4294823286 |
|     298 | 0xB6C8      |       46792 |
|     299 | 0xFFFFFC0A  |  4294966282 |
|     300 | 0x0689      |        1673 |
|     301 | 0xFFFDC7CE  |  4294821838 |
|     302 | 0xC525      |       50469 |
|     303 | 0xFFFFF86D  |  4294965357 |
|     304 | 0x0839      |        2105 |
|     305 | 0xFFF9DAA6  |  4294564518 |
|     306 | 0xC670      |       50800 |
|     307 | 0xFFFFA198  |  4294943128 |
|     308 | 0xA24C5     |      664773 |
|     309 | 0xFFFF91A1  |  4294939041 |
|     310 | 0x023A      |         570 |
|     311 | 0x0355      |         853 |
|     312 | 0xA255D     |      664925 |
|     313 | 0xFFFFBE72  |  4294950514 |
|     314 | 0x0016      |          22 |
|     315 | 0x0364      |         868 |
|     316 | 0xA298D     |      665997 |
|     317 | 0xFFFFD9FE  |  4294957566 |
|     318 | 0xFFFFFFFD  |  4294967293 |
|     319 | 0xA484B     |      673867 |
|     320 | 0xFFFFB4C2  |  4294948034 |
|     321 | 0x02A9      |         681 |
|     322 | 0x043C      |        1084 |
|     323 | 0xB1807     |      727047 |
|     324 | 0xFFFB0E7E  |  4294643326 |
|     325 | 0xFFFFFCBF  |  4294966463 |
|     326 | 0x0A23      |        2595 |
|     327 | 0x2FF3      |       12275 |
|     328 | 0xA334F     |      668495 |
|     329 | 0xFFFF84CC  |  4294935756 |
|     330 | 0x0302      |         770 |
|     331 | 0x0354      |         852 |
|     332 | 0x2FF4      |       12276 |
|     333 | 0x0A21      |        2593 |
|     334 | 0x2FF5      |       12277 |
|     335 | 0x2FF6      |       12278 |
|     336 | 0x2FF7      |       12279 |
|     337 | 0x2FF8      |       12280 |
|     338 | 0x2FF9      |       12281 |
|     339 | 0x2FFA      |       12282 |
|     340 | 0x0588      |        1416 |
|     341 | 0x2FFB      |       12283 |
|     342 | 0x2FFC      |       12284 |
|     343 | 0x2FFD      |       12285 |
|     344 | 0x2FFE      |       12286 |
|     345 | 0x2FFF      |       12287 |
|     346 | 0x3000      |       12288 |
|     347 | 0x3001      |       12289 |
|     348 | 0x3002      |       12290 |
|     349 | 0x0A22      |        2594 |
|     350 | 0x3003      |       12291 |
|     351 | 0x3004      |       12292 |
|     352 | 0x3005      |       12293 |
|     353 | 0x3006      |       12294 |
|     354 | 0x00FE      |         254 |
|     355 | 0x00C9      |         201 |

## Events

### Event 65535

#### Metadata

| Field        | Value   |
|--------------|---------|
| Entrypoint   | 0x0000  |
| Data Size    | 1 bytes |
| Instructions | 1       |

```
      00 01 02 03 04 05 06 07  08 09 0A 0B 0C 0D 0E 0F
      -- -- -- -- -- -- -- --  -- -- -- -- -- -- -- --
0000: 00                                                .               
```

#### Opcodes

```
  0: 0x0000 [0x00] END_REQSTACK()
```

### Event 638

#### Metadata

| Field        | Value     |
|--------------|-----------|
| Entrypoint   | 0x0001    |
| Data Size    | 791 bytes |
| Instructions | 97        |

```
      00 01 02 03 04 05 06 07  08 09 0A 0B 0C 0D 0E 0F
      -- -- -- -- -- -- -- --  -- -- -- -- -- -- -- --
0000:    42 45 00 80 F0 FF FF  7F F0 FF FF 7F 66 64 6F   BE..........fdo
0010: 31 01 80 55 00 80 F0 FF  FF 7F F0 FF FF 7F 66 64  1..U..........fd
0020: 6F 31 46 01 38 02 80 20  01 92 01 07 02 05 01 94  o1F.8.. ........
0030: 01 F0 FF FF 7F 94 01 07  02 05 01 BA F0 FF FF 7F  ................
0040: 03 80 04 80 05 80 06 80  80 F0 FF FF 7F 80 07 02  ................
0050: 05 01 4B 07 02 05 01 07  80 6F 76 07 02 05 01 27  ..K......ov....'
0060: 10 07 02 05 01 2C 1C 08  80 45 09 80 F0 FF FF 7F  .....,...E......
0070: F0 FF FF 7F 73 31 30 31  01 80 45 00 80 F0 FF FF  ....s101..E.....
0080: 7F F0 FF FF 7F 66 64 69  31 01 80 55 00 80 F0 FF  .....fdi1..U....
0090: FF 7F F0 FF FF 7F 66 64  69 31 2A 10 07 02 05 01  ......fdi1*.....
00A0: 1C 0A 80 4B 07 02 05 01  01 80 1C 0B 80 52 09 80  ...K.........R..
00B0: F0 FF FF 7F F0 FF FF 7F  73 31 30 31 45 09 80 F0  ........s101E...
00C0: FF FF 7F F0 FF FF 7F 73  31 30 38 01 80 6F 76 07  .......s108..ov.
00D0: 02 05 01 2B 07 02 05 01  0C 80 27 10 07 02 05 01  ...+......'.....
00E0: 2C 23 2B 07 02 05 01 0D  80 23 1C 0A 80 03 25 10  ,#+......#....%.
00F0: 0E 80 03 27 10 0F 80 03  26 10 10 80 03 28 10 06  ...'....&....(..
0100: 80 27 10 F0 FF FF 7F 16  1C 11 80 4A 07 02 05 01  .'.........J....
0110: F0 FF FF 7F 7B 07 02 05  01 1C 11 80 52 09 80 F0  ....{.......R...
0120: FF FF 7F F0 FF FF 7F 73  31 30 38 45 09 80 F0 FF  .......s108E....
0130: FF 7F F0 FF FF 7F 73 31  30 39 01 80 1C 12 80 52  ......s109.....R
0140: 09 80 F0 FF FF 7F F0 FF  FF 7F 73 31 30 39 45 09  ..........s109E.
0150: 80 F0 FF FF 7F F0 FF FF  7F 73 31 30 32 01 80 5B  .........s102..[
0160: 13 80 07 02 05 01 07 02  05 01 6B 65 69 30 1C 12  ..........kei0..
0170: 80 2B 07 02 05 01 14 80  23 52 09 80 F0 FF FF 7F  .+......#R......
0180: F0 FF FF 7F 73 31 30 32  45 09 80 F0 FF FF 7F F0  ....s102E.......
0190: FF FF 7F 73 31 30 33 01  80 5B 13 80 07 02 05 01  ...s103..[......
01A0: 07 02 05 01 6B 65 69 31  53 07 02 05 01 07 02 05  ....kei1S.......
01B0: 01 6B 65 69 31 5B 15 80  07 02 05 01 07 02 05 01  .kei1[..........
01C0: 66 30 30 30 5B 16 80 07  02 05 01 07 02 05 01 74  f000[..........t
01D0: 6C 62 30 2B 07 02 05 01  17 80 23 52 09 80 F0 FF  lb0+......#R....
01E0: FF 7F F0 FF FF 7F 73 31  30 33 45 09 80 F0 FF FF  ......s103E.....
01F0: 7F F0 FF FF 7F 73 31 30  34 01 80 5B 16 80 07 02  .....s104..[....
0200: 05 01 07 02 05 01 74 6C  62 31 03 02 10 18 80 2B  ......tlb1.....+
0210: 07 02 05 01 19 80 23 2B  07 02 05 01 1A 80 23 52  ......#+......#R
0220: 09 80 F0 FF FF 7F F0 FF  FF 7F 73 31 30 34 45 09  ..........s104E.
0230: 80 F0 FF FF 7F F0 FF FF  7F 73 31 30 35 01 80 5B  .........s105..[
0240: 16 80 07 02 05 01 07 02  05 01 74 6C 61 30 03 02  ..........tla0..
0250: 10 1B 80 2B 07 02 05 01  1C 80 23 2B 07 02 05 01  ...+......#+....
0260: 1D 80 23 52 09 80 F0 FF  FF 7F F0 FF FF 7F 73 31  ..#R..........s1
0270: 30 35 45 09 80 F0 FF FF  7F F0 FF FF 7F 73 31 30  05E..........s10
0280: 36 01 80 03 02 10 1E 80  2B 07 02 05 01 1F 80 23  6.......+......#
0290: 2B 07 02 05 01 20 80 23  52 09 80 F0 FF FF 7F F0  +.... .#R.......
02A0: FF FF 7F 73 31 30 36 45  09 80 F0 FF FF 7F F0 FF  ...s106E........
02B0: FF 7F 73 31 30 37 01 80  5B 13 80 07 02 05 01 07  ..s107..[.......
02C0: 02 05 01 6B 65 69 30 2B  07 02 05 01 21 80 23 45  ...kei0+....!.#E
02D0: 00 80 F0 FF FF 7F F0 FF  FF 7F 66 64 6F 31 01 80  ..........fdo1..
02E0: 55 00 80 F0 FF FF 7F F0  FF FF 7F 66 64 6F 31 52  U..........fdo1R
02F0: 09 80 F0 FF FF 7F F0 FF  FF 7F 73 31 30 37 1C 22  ..........s107."
0300: 80 AB 0A 46 00 45 00 80  F0 FF FF 7F F0 FF FF 7F  ...F.E..........
0310: 66 64 69 32 01 80 21 00                           fdi2..!.        
```

#### Opcodes

```
  0: 0x0001 [0x42] SET_CLI_EVENT_CANCEL_DATA()
  1: 0x0002 [0x45] LOAD_SCHEDULED_TASK: Load scheduler "fdo1" with entities [LocalPlayer, LocalPlayer], work=[200*, 0*]
  2: 0x0013 [0x55] WAIT_LOAD_SCHEDULER: Wait for scheduler "fdo1" with entities [LocalPlayer, LocalPlayer], work=200*
  3: 0x0022 [0x46] CAMERA_CONTROL: Disable user control
  4: 0x0024 [0x38] SET_CLIENT_EVENT_MODE(mode=19*)
  5: 0x0027 [0x20] SET_CLI_EVENT_UC_FLAG: Lock player control
  6: 0x0029 [0x92] Rholont (ID: 17105415/0x01050207)->Render.Flags3 ^= 0x01
  7: 0x002F [0x94] LocalPlayer->Render.Flags3 ^= 0x01
  8: 0x0035 [0x94] Rholont (ID: 17105415/0x01050207)->Render.Flags3 ^= 0x01
  9: 0x003B [0xBA] SET_ENTITY_POSITION(entity_id=LocalPlayer, pos_x=-174.193*, pos_z=57.333*, pos_y=-2.199*, direction=12.4°*)
 10: 0x0048 [0x80] LOAD_WAIT(entity=LocalPlayer)
 11: 0x004D [0x80] LOAD_WAIT(entity=Rholont (ID: 17105415/0x01050207))
 12: 0x0052 [0x4B] UPDATE_ENTITY_YAW(entity=Rholont (ID: 17105415/0x01050207), yaw=16.5°*)
 13: 0x0059 [0x6F] WAIT_FRAME_DELAY: Yield until WaitTime reaches zero
 14: 0x005A [0x76] CHECK_ENTITY_RENDER_FLAGS: Wait until Rholont (ID: 17105415/0x01050207) Render.Flags0 and Render.Flags3 conditions are met
 15: 0x005F [0x27] REQ_SET(priority=0x10, entity_id=Rholont (ID: 17105415/0x01050207), tag_num=0x2C)
 16: 0x0066 [0x1C] WAIT(30* ticks)
 17: 0x0069 [0x45] LOAD_SCHEDULED_TASK: Load scheduler "s101" with entities [LocalPlayer, LocalPlayer], work=[453*, 0*]
 18: 0x007A [0x45] LOAD_SCHEDULED_TASK: Load scheduler "fdi1" with entities [LocalPlayer, LocalPlayer], work=[200*, 0*]
 19: 0x008B [0x55] WAIT_LOAD_SCHEDULER: Wait for scheduler "fdi1" with entities [LocalPlayer, LocalPlayer], work=200*
 20: 0x009A [0x2A] GET_REQ_LEVEL(level=16, entity_id=Rholont (ID: 17105415/0x01050207))
 21: 0x00A0 [0x1C] WAIT(60* ticks)
 22: 0x00A3 [0x4B] UPDATE_ENTITY_YAW(entity=Rholont (ID: 17105415/0x01050207), yaw=0.0°*)
 23: 0x00AA [0x1C] WAIT(10* ticks)
 24: 0x00AD [0x52] END_LOAD_SCHEDULER: End scheduler "s101" with entities [LocalPlayer, LocalPlayer], work=453*
 25: 0x00BC [0x45] LOAD_SCHEDULED_TASK: Load scheduler "s108" with entities [LocalPlayer, LocalPlayer], work=[453*, 0*]
 26: 0x00CD [0x6F] WAIT_FRAME_DELAY: Yield until WaitTime reaches zero
 27: 0x00CE [0x76] CHECK_ENTITY_RENDER_FLAGS: Wait until Rholont (ID: 17105415/0x01050207) Render.Flags0 and Render.Flags3 conditions are met
 28: 0x00D3 [0x2B] Rholont (ID: 17105415/0x01050207) [12193*]:
    → "All clear to the north! All clear to the east! No enemies detected! Perimeter secured!"
 29: 0x00DA [0x27] REQ_SET(priority=0x10, entity_id=Rholont (ID: 17105415/0x01050207), tag_num=0x2C)
 30: 0x00E1 [0x23] WAIT_FOR_DIALOG_INTERACTION
 31: 0x00E2 [0x2B] Rholont (ID: 17105415/0x01050207) [12194*]:
    → "Ah, hectic is the life of a castellan. But ever vigilant must I remain in the absence of Captain Rahal and the others."
 32: 0x00E9 [0x23] WAIT_FOR_DIALOG_INTERACTION
 33: 0x00EA [0x1C] WAIT(60* ticks)
 34: 0x00ED [0x03] Work_Zone[37] = 4294796176*
 35: 0x00F2 [0x03] Work_Zone[39] = 56560*
 36: 0x00F7 [0x03] Work_Zone[38] = 4294965296*
 37: 0x00FC [0x03] Work_Zone[40] = 141*
 38: 0x0101 [0x27] REQ_SET(priority=0x10, entity_id=LocalPlayer, tag_num=0x16)
 39: 0x0108 [0x1C] WAIT(5* ticks)
 40: 0x010B [0x4A] Rholont (ID: 17105415/0x01050207) looks at LocalPlayer
 41: 0x0114 [0x7B] Rholont (ID: 17105415/0x01050207) stops talking
 42: 0x0119 [0x1C] WAIT(5* ticks)
 43: 0x011C [0x52] END_LOAD_SCHEDULER: End scheduler "s108" with entities [LocalPlayer, LocalPlayer], work=453*
 44: 0x012B [0x45] LOAD_SCHEDULED_TASK: Load scheduler "s109" with entities [LocalPlayer, LocalPlayer], work=[453*, 0*]
 45: 0x013C [0x1C] WAIT(120* ticks)
 46: 0x013F [0x52] END_LOAD_SCHEDULER: End scheduler "s109" with entities [LocalPlayer, LocalPlayer], work=453*
 47: 0x014E [0x45] LOAD_SCHEDULED_TASK: Load scheduler "s102" with entities [LocalPlayer, LocalPlayer], work=[453*, 0*]
 48: 0x015F [0x5B] LOAD_EXT_SCHEDULER: Load scheduler "kei0" with entities [Rholont (ID: 17105415/0x01050207), Rholont (ID: 17105415/0x01050207)], work=1301*
 49: 0x016E [0x1C] WAIT(120* ticks)
 50: 0x0171 [0x2B] Rholont (ID: 17105415/0x01050207) [12195*]:
    → "Greetings, <Player>! Exceptional timing, as always! In my authority as Castellan of Swiftwing Fortress, I relay to you these mission orders."
 51: 0x0178 [0x23] WAIT_FOR_DIALOG_INTERACTION
 52: 0x0179 [0x52] END_LOAD_SCHEDULER: End scheduler "s102" with entities [LocalPlayer, LocalPlayer], work=453*
 53: 0x0188 [0x45] LOAD_SCHEDULED_TASK: Load scheduler "s103" with entities [LocalPlayer, LocalPlayer], work=[453*, 0*]
 54: 0x0199 [0x5B] LOAD_EXT_SCHEDULER: Load scheduler "kei1" with entities [Rholont (ID: 17105415/0x01050207), Rholont (ID: 17105415/0x01050207)], work=1301*
 55: 0x01A8 [0x53] WAIT_SCHEDULER_TASK: Wait for scheduler "kei1" with entities [Rholont (ID: 17105415/0x01050207), Rholont (ID: 17105415/0x01050207)]
 56: 0x01B5 [0x5B] LOAD_EXT_SCHEDULER: Load scheduler "f000" with entities [Rholont (ID: 17105415/0x01050207), Rholont (ID: 17105415/0x01050207)], work=1299*
 57: 0x01C4 [0x5B] LOAD_EXT_SCHEDULER: Load scheduler "tlb0" with entities [Rholont (ID: 17105415/0x01050207), Rholont (ID: 17105415/0x01050207)], work=1272*
 58: 0x01D3 [0x2B] Rholont (ID: 17105415/0x01050207) [12196*]:
    → "You are to gather and bring hither the following three items:"
 59: 0x01DA [0x23] WAIT_FOR_DIALOG_INTERACTION
 60: 0x01DB [0x52] END_LOAD_SCHEDULER: End scheduler "s103" with entities [LocalPlayer, LocalPlayer], work=453*
 61: 0x01EA [0x45] LOAD_SCHEDULED_TASK: Load scheduler "s104" with entities [LocalPlayer, LocalPlayer], work=[453*, 0*]
 62: 0x01FB [0x5B] LOAD_EXT_SCHEDULER: Load scheduler "tlb1" with entities [Rholont (ID: 17105415/0x01050207), Rholont (ID: 17105415/0x01050207)], work=1272*
 63: 0x020A [0x03] Work_Zone[2] = 1070*
 64: 0x020F [0x2B] Rholont (ID: 17105415/0x01050207) [12197*]:
    → "First, $3."
 65: 0x0216 [0x23] WAIT_FOR_DIALOG_INTERACTION
 66: 0x0217 [0x2B] Rholont (ID: 17105415/0x01050207) [12198*]:
    → "Making cuts on tree trunks out in Ronfaure should yield an adequate amount."
 67: 0x021E [0x23] WAIT_FOR_DIALOG_INTERACTION
 68: 0x021F [0x52] END_LOAD_SCHEDULER: End scheduler "s104" with entities [LocalPlayer, LocalPlayer], work=453*
 69: 0x022E [0x45] LOAD_SCHEDULED_TASK: Load scheduler "s105" with entities [LocalPlayer, LocalPlayer], work=[453*, 0*]
 70: 0x023F [0x5B] LOAD_EXT_SCHEDULER: Load scheduler "tla0" with entities [Rholont (ID: 17105415/0x01050207), Rholont (ID: 17105415/0x01050207)], work=1272*
 71: 0x024E [0x03] Work_Zone[2] = 1071*
 72: 0x0253 [0x2B] Rholont (ID: 17105415/0x01050207) [12199*]:
    → "Next on the list, some $5."
 73: 0x025A [0x23] WAIT_FOR_DIALOG_INTERACTION
 74: 0x025B [0x2B] Rholont (ID: 17105415/0x01050207) [12200*]:
    → "These are oft stowed within the cavity of trees throughout the Kingdom in preparation for times of emergency. Rest assured, we shall only be "borrowing" them."
 75: 0x0262 [0x23] WAIT_FOR_DIALOG_INTERACTION
 76: 0x0263 [0x52] END_LOAD_SCHEDULER: End scheduler "s105" with entities [LocalPlayer, LocalPlayer], work=453*
 77: 0x0272 [0x45] LOAD_SCHEDULED_TASK: Load scheduler "s106" with entities [LocalPlayer, LocalPlayer], work=[453*, 0*]
 78: 0x0283 [0x03] Work_Zone[2] = 1072*
 79: 0x0288 [0x2B] Rholont (ID: 17105415/0x01050207) [12201*]:
    → "Which brings us to the third and final item, $6."
 80: 0x028F [0x23] WAIT_FOR_DIALOG_INTERACTION
 81: 0x0290 [0x2B] Rholont (ID: 17105415/0x01050207) [12202*]:
    → "For this, you need but draw water from the well over yonder."
 82: 0x0297 [0x23] WAIT_FOR_DIALOG_INTERACTION
 83: 0x0298 [0x52] END_LOAD_SCHEDULER: End scheduler "s106" with entities [LocalPlayer, LocalPlayer], work=453*
 84: 0x02A7 [0x45] LOAD_SCHEDULED_TASK: Load scheduler "s107" with entities [LocalPlayer, LocalPlayer], work=[453*, 0*]
 85: 0x02B8 [0x5B] LOAD_EXT_SCHEDULER: Load scheduler "kei0" with entities [Rholont (ID: 17105415/0x01050207), Rholont (ID: 17105415/0x01050207)], work=1301*
 86: 0x02C7 [0x2B] Rholont (ID: 17105415/0x01050207) [12203*]:
    → "That concludes your orders!"
 87: 0x02CE [0x23] WAIT_FOR_DIALOG_INTERACTION
 88: 0x02CF [0x45] LOAD_SCHEDULED_TASK: Load scheduler "fdo1" with entities [LocalPlayer, LocalPlayer], work=[200*, 0*]
 89: 0x02E0 [0x55] WAIT_LOAD_SCHEDULER: Wait for scheduler "fdo1" with entities [LocalPlayer, LocalPlayer], work=200*
 90: 0x02EF [0x52] END_LOAD_SCHEDULER: End scheduler "s107" with entities [LocalPlayer, LocalPlayer], work=453*
 91: 0x02FE [0x1C] WAIT(1* ticks)
 92: 0x0301 [0xAB] EventEntity->UnknownFlag = 0 // Disable unknown flag
 93: 0x0303 [0x46] CAMERA_CONTROL: Restore default settings
 94: 0x0305 [0x45] LOAD_SCHEDULED_TASK: Load scheduler "fdi2" with entities [LocalPlayer, LocalPlayer], work=[200*, 0*]
 95: 0x0316 [0x21] END_EVENT
 96: 0x0317 [0x00] END_REQSTACK()
```

### Event 642

#### Metadata

| Field        | Value     |
|--------------|-----------|
| Entrypoint   | 0x0318    |
| Data Size    | 936 bytes |
| Instructions | 100       |

```
      00 01 02 03 04 05 06 07  08 09 0A 0B 0C 0D 0E 0F
      -- -- -- -- -- -- -- --  -- -- -- -- -- -- -- --
0310:                          42 45 00 80 F0 FF FF 7F          BE......
0320: F0 FF FF 7F 66 64 6F 31  01 80 55 00 80 F0 FF FF  ....fdo1..U.....
0330: 7F F0 FF FF 7F 66 64 6F  31 46 01 38 02 80 20 01  .....fdo1F.8.. .
0340: 2F 00 1F 02 05 01 92 01  07 02 05 01 94 01 F0 FF  /...............
0350: FF 7F 94 01 1F 02 05 01  94 01 07 02 05 01 BA F0  ................
0360: FF FF 7F 0E 80 0F 80 10  80 06 80 BA 1F 02 05 01  ................
0370: 23 80 24 80 10 80 25 80  80 1F 02 05 01 80 F0 FF  #.$...%.........
0380: FF 7F 80 07 02 05 01 5B  26 80 07 02 05 01 07 02  .......[&.......
0390: 05 01 74 68 62 30 81 00  07 02 05 01 1C 27 80 45  ..thb0.......'.E
03A0: 09 80 F0 FF FF 7F F0 FF  FF 7F 72 31 30 31 01 80  ..........r101..
03B0: 45 00 80 F0 FF FF 7F F0  FF FF 7F 66 64 69 31 01  E..........fdi1.
03C0: 80 55 00 80 F0 FF FF 7F  F0 FF FF 7F 66 64 69 31  .U..........fdi1
03D0: 1C 12 80 52 09 80 F0 FF  FF 7F F0 FF FF 7F 72 31  ...R..........r1
03E0: 30 31 45 09 80 F0 FF FF  7F F0 FF FF 7F 72 31 30  01E..........r10
03F0: 32 01 80 2B 07 02 05 01  28 80 23 5B 26 80 07 02  2..+....(.#[&...
0400: 05 01 07 02 05 01 74 68  62 31 81 01 07 02 05 01  ......thb1......
0410: 03 25 10 29 80 03 27 10  2A 80 03 26 10 10 80 03  .%.)..'.*..&....
0420: 28 10 2B 80 27 10 07 02  05 01 1F 45 00 80 F0 FF  (.+.'......E....
0430: FF 7F F0 FF FF 7F 66 64  6F 32 01 80 55 00 80 F0  ......fdo2..U...
0440: FF FF 7F F0 FF FF 7F 66  64 6F 32 52 09 80 F0 FF  .......fdo2R....
0450: FF 7F F0 FF FF 7F 72 31  30 32 4E 00 1F 02 05 01  ......r102N.....
0460: BA 07 02 05 01 23 80 24  80 10 80 25 80 5B 2C 80  .....#.$...%.[,.
0470: 07 02 05 01 07 02 05 01  62 6F 78 30 5B 2D 80 1F  ........box0[-..
0480: 02 05 01 1F 02 05 01 62  6F 78 30 1C 12 80 2B 07  .......box0...+.
0490: 02 05 01 2E 80 23 1C 0A  80 45 09 80 F0 FF FF 7F  .....#...E......
04A0: F0 FF FF 7F 72 31 30 33  01 80 45 00 80 F0 FF FF  ....r103..E.....
04B0: 7F F0 FF FF 7F 66 64 69  32 01 80 55 00 80 F0 FF  .....fdi2..U....
04C0: FF 7F F0 FF FF 7F 66 64  69 32 1C 12 80 5B 2C 80  ......fdi2...[,.
04D0: 07 02 05 01 07 02 05 01  62 6F 78 31 5B 2D 80 1F  ........box1[-..
04E0: 02 05 01 1F 02 05 01 62  6F 78 31 52 09 80 F0 FF  .......box1R....
04F0: FF 7F F0 FF FF 7F 72 31  30 33 45 09 80 F0 FF FF  ......r103E.....
0500: 7F F0 FF FF 7F 72 31 30  34 01 80 2B 07 02 05 01  .....r104..+....
0510: 2F 80 23 52 09 80 F0 FF  FF 7F F0 FF FF 7F 72 31  /.#R..........r1
0520: 30 34 45 09 80 F0 FF FF  7F F0 FF FF 7F 72 31 30  04E..........r10
0530: 35 01 80 2B 07 02 05 01  30 80 23 52 09 80 F0 FF  5..+....0.#R....
0540: FF 7F F0 FF FF 7F 72 31  30 35 45 09 80 F0 FF FF  ......r105E.....
0550: 7F F0 FF FF 7F 72 31 30  37 01 80 BA 07 02 05 01  .....r107.......
0560: 31 80 32 80 33 80 34 80  4A 07 02 05 01 1F 02 05  1.2.3.4.J.......
0570: 01 5B 2D 80 1F 02 05 01  1F 02 05 01 62 6F 78 6C  .[-.........boxl
0580: 5B 13 80 07 02 05 01 07  02 05 01 73 68 61 6C 1C  [..........shal.
0590: 35 80 5B 13 80 07 02 05  01 07 02 05 01 73 68 61  5.[..........sha
05A0: 31 1C 36 80 52 09 80 F0  FF FF 7F F0 FF FF 7F 72  1.6.R..........r
05B0: 31 30 37 45 09 80 F0 FF  FF 7F F0 FF FF 7F 72 31  107E..........r1
05C0: 30 38 01 80 53 07 02 05  01 07 02 05 01 73 68 61  08..S........sha
05D0: 31 4A 07 02 05 01 F0 FF  FF 7F 6F 76 07 02 05 01  1J........ov....
05E0: 5B 16 80 07 02 05 01 07  02 05 01 74 6C 61 30 2B  [..........tla0+
05F0: 07 02 05 01 37 80 23 52  09 80 F0 FF FF 7F F0 FF  ....7.#R........
0600: FF 7F 72 31 30 38 45 09  80 F0 FF FF 7F F0 FF FF  ..r108E.........
0610: 7F 72 31 30 39 01 80 7B  07 02 05 01 5B 16 80 07  .r109..{....[...
0620: 02 05 01 07 02 05 01 74  6C 61 31 2B 07 02 05 01  .......tla1+....
0630: 38 80 23 2B 07 02 05 01  39 80 23 52 09 80 F0 FF  8.#+....9.#R....
0640: FF 7F F0 FF FF 7F 72 31  30 39 45 09 80 F0 FF FF  ......r109E.....
0650: 7F F0 FF FF 7F 72 31 30  36 01 80 5B 13 80 07 02  .....r106..[....
0660: 05 01 07 02 05 01 6B 65  69 30 03 02 10 3A 80 2B  ......kei0...:.+
0670: 07 02 05 01 3B 80 23 45  00 80 F0 FF FF 7F F0 FF  ....;.#E........
0680: FF 7F 66 64 6F 31 01 80  55 00 80 F0 FF FF 7F F0  ..fdo1..U.......
0690: FF FF 7F 66 64 6F 31 52  09 80 F0 FF FF 7F F0 FF  ...fdo1R........
06A0: FF 7F 72 31 30 36 1C 22  80 AB 0A 46 00 45 00 80  ..r106."...F.E..
06B0: F0 FF FF 7F F0 FF FF 7F  66 64 69 32 01 80 21 00  ........fdi2..!.
```

#### Opcodes

```
  0: 0x0318 [0x42] SET_CLI_EVENT_CANCEL_DATA()
  1: 0x0319 [0x45] LOAD_SCHEDULED_TASK: Load scheduler "fdo1" with entities [LocalPlayer, LocalPlayer], work=[200*, 0*]
  2: 0x032A [0x55] WAIT_LOAD_SCHEDULER: Wait for scheduler "fdo1" with entities [LocalPlayer, LocalPlayer], work=200*
  3: 0x0339 [0x46] CAMERA_CONTROL: Disable user control
  4: 0x033B [0x38] SET_CLIENT_EVENT_MODE(mode=19*)
  5: 0x033E [0x20] SET_CLI_EVENT_UC_FLAG: Lock player control
  6: 0x0340 [0x2F] Unnamed NPC (ID: 17105439/0x0105021F)->Render.Flags0 &= ~0x80000 // Bit 19
  7: 0x0346 [0x92] Rholont (ID: 17105415/0x01050207)->Render.Flags3 ^= 0x01
  8: 0x034C [0x94] LocalPlayer->Render.Flags3 ^= 0x01
  9: 0x0352 [0x94] Unnamed NPC (ID: 17105439/0x0105021F)->Render.Flags3 ^= 0x01
 10: 0x0358 [0x94] Rholont (ID: 17105415/0x01050207)->Render.Flags3 ^= 0x01
 11: 0x035E [0xBA] SET_ENTITY_POSITION(entity_id=LocalPlayer, pos_x=-171.120*, pos_z=56.560*, pos_y=-2.000*, direction=12.4°*)
 12: 0x036B [0xBA] SET_ENTITY_POSITION(entity_id=Unnamed NPC (ID: 17105439/0x0105021F), pos_x=-168.543*, pos_z=55.484*, pos_y=-2.000*, direction=281.2°*)
 13: 0x0378 [0x80] LOAD_WAIT(entity=Unnamed NPC (ID: 17105439/0x0105021F))
 14: 0x037D [0x80] LOAD_WAIT(entity=LocalPlayer)
 15: 0x0382 [0x80] LOAD_WAIT(entity=Rholont (ID: 17105415/0x01050207))
 16: 0x0387 [0x5B] LOAD_EXT_SCHEDULER: Load scheduler "thb0" with entities [Rholont (ID: 17105415/0x01050207), Rholont (ID: 17105415/0x01050207)], work=1273*
 17: 0x0396 [0x81] SET_ENTITY_BLINKING(blink_flag=0x00, entity=Rholont (ID: 17105415/0x01050207))
 18: 0x039C [0x1C] WAIT(15* ticks)
 19: 0x039F [0x45] LOAD_SCHEDULED_TASK: Load scheduler "r101" with entities [LocalPlayer, LocalPlayer], work=[453*, 0*]
 20: 0x03B0 [0x45] LOAD_SCHEDULED_TASK: Load scheduler "fdi1" with entities [LocalPlayer, LocalPlayer], work=[200*, 0*]
 21: 0x03C1 [0x55] WAIT_LOAD_SCHEDULER: Wait for scheduler "fdi1" with entities [LocalPlayer, LocalPlayer], work=200*
 22: 0x03D0 [0x1C] WAIT(120* ticks)
 23: 0x03D3 [0x52] END_LOAD_SCHEDULER: End scheduler "r101" with entities [LocalPlayer, LocalPlayer], work=453*
 24: 0x03E2 [0x45] LOAD_SCHEDULED_TASK: Load scheduler "r102" with entities [LocalPlayer, LocalPlayer], work=[453*, 0*]
 25: 0x03F3 [0x2B] Rholont (ID: 17105415/0x01050207) [12218*]:
    → "Welcome back, <Player>. Let's see what you've brought... Maple syrup, long-life biscuits, and freshly drawn water. All appears to be in good order!"
 26: 0x03FA [0x23] WAIT_FOR_DIALOG_INTERACTION
 27: 0x03FB [0x5B] LOAD_EXT_SCHEDULER: Load scheduler "thb1" with entities [Rholont (ID: 17105415/0x01050207), Rholont (ID: 17105415/0x01050207)], work=1273*
 28: 0x040A [0x81] SET_ENTITY_BLINKING(blink_flag=0x01, entity=Rholont (ID: 17105415/0x01050207))
 29: 0x0410 [0x03] Work_Zone[37] = 4294800309*
 30: 0x0415 [0x03] Work_Zone[39] = 56944*
 31: 0x041A [0x03] Work_Zone[38] = 4294965296*
 32: 0x041F [0x03] Work_Zone[40] = 183*
 33: 0x0424 [0x27] REQ_SET(priority=0x10, entity_id=Rholont (ID: 17105415/0x01050207), tag_num=0x1F)
 34: 0x042B [0x45] LOAD_SCHEDULED_TASK: Load scheduler "fdo2" with entities [LocalPlayer, LocalPlayer], work=[200*, 0*]
 35: 0x043C [0x55] WAIT_LOAD_SCHEDULER: Wait for scheduler "fdo2" with entities [LocalPlayer, LocalPlayer], work=200*
 36: 0x044B [0x52] END_LOAD_SCHEDULER: End scheduler "r102" with entities [LocalPlayer, LocalPlayer], work=453*
 37: 0x045A [0x4E] SET_ENTITY_HIDE_FLAG: Show Unnamed NPC (ID: 17105439/0x0105021F)
 38: 0x0460 [0xBA] SET_ENTITY_POSITION(entity_id=Rholont (ID: 17105415/0x01050207), pos_x=-168.543*, pos_z=55.484*, pos_y=-2.000*, direction=281.2°*)
 39: 0x046D [0x5B] LOAD_EXT_SCHEDULER: Load scheduler "box0" with entities [Rholont (ID: 17105415/0x01050207), Rholont (ID: 17105415/0x01050207)], work=2444*
 40: 0x047C [0x5B] LOAD_EXT_SCHEDULER: Load scheduler "box0" with entities [Unnamed NPC (ID: 17105439/0x0105021F), Unnamed NPC (ID: 17105439/0x0105021F)], work=1464*
 41: 0x048B [0x1C] WAIT(120* ticks)
 42: 0x048E [0x2B] Rholont (ID: 17105415/0x01050207) [12219*]:
    → "Voila! I give you "biscuits a la Rholont"!"
 43: 0x0495 [0x23] WAIT_FOR_DIALOG_INTERACTION
 44: 0x0496 [0x1C] WAIT(60* ticks)
 45: 0x0499 [0x45] LOAD_SCHEDULED_TASK: Load scheduler "r103" with entities [LocalPlayer, LocalPlayer], work=[453*, 0*]
 46: 0x04AA [0x45] LOAD_SCHEDULED_TASK: Load scheduler "fdi2" with entities [LocalPlayer, LocalPlayer], work=[200*, 0*]
 47: 0x04BB [0x55] WAIT_LOAD_SCHEDULER: Wait for scheduler "fdi2" with entities [LocalPlayer, LocalPlayer], work=200*
 48: 0x04CA [0x1C] WAIT(120* ticks)
 49: 0x04CD [0x5B] LOAD_EXT_SCHEDULER: Load scheduler "box1" with entities [Rholont (ID: 17105415/0x01050207), Rholont (ID: 17105415/0x01050207)], work=2444*
 50: 0x04DC [0x5B] LOAD_EXT_SCHEDULER: Load scheduler "box1" with entities [Unnamed NPC (ID: 17105439/0x0105021F), Unnamed NPC (ID: 17105439/0x0105021F)], work=1464*
 51: 0x04EB [0x52] END_LOAD_SCHEDULER: End scheduler "r103" with entities [LocalPlayer, LocalPlayer], work=453*
 52: 0x04FA [0x45] LOAD_SCHEDULED_TASK: Load scheduler "r104" with entities [LocalPlayer, LocalPlayer], work=[453*, 0*]
 53: 0x050B [0x2B] Rholont (ID: 17105415/0x01050207) [12220*]:
    → "Hm? Why did I prepare such a delectable treat, you ask?"
 54: 0x0512 [0x23] WAIT_FOR_DIALOG_INTERACTION
 55: 0x0513 [0x52] END_LOAD_SCHEDULER: End scheduler "r104" with entities [LocalPlayer, LocalPlayer], work=453*
 56: 0x0522 [0x45] LOAD_SCHEDULED_TASK: Load scheduler "r105" with entities [LocalPlayer, LocalPlayer], work=[453*, 0*]
 57: 0x0533 [0x2B] Rholont (ID: 17105415/0x01050207) [12221*]:
    → "Captain Rahal and a few others from our unit, you see, have convened out in Jugner Forest to participate in a strategy meeting with the Iron Rams."
 58: 0x053A [0x23] WAIT_FOR_DIALOG_INTERACTION
 59: 0x053B [0x52] END_LOAD_SCHEDULER: End scheduler "r105" with entities [LocalPlayer, LocalPlayer], work=453*
 60: 0x054A [0x45] LOAD_SCHEDULED_TASK: Load scheduler "r107" with entities [LocalPlayer, LocalPlayer], work=[453*, 0*]
 61: 0x055B [0xBA] SET_ENTITY_POSITION(entity_id=Rholont (ID: 17105415/0x01050207), pos_x=-168.409*, pos_z=56.633*, pos_y=-1.999*, direction=149.4°*)
 62: 0x0568 [0x4A] Rholont (ID: 17105415/0x01050207) looks at Unnamed NPC (ID: 17105439/0x0105021F)
 63: 0x0571 [0x5B] LOAD_EXT_SCHEDULER: Load scheduler "boxl" with entities [Unnamed NPC (ID: 17105439/0x0105021F), Unnamed NPC (ID: 17105439/0x0105021F)], work=1464*
 64: 0x0580 [0x5B] LOAD_EXT_SCHEDULER: Load scheduler "shal" with entities [Rholont (ID: 17105415/0x01050207), Rholont (ID: 17105415/0x01050207)], work=1301*
 65: 0x058F [0x1C] WAIT(160* ticks)
 66: 0x0592 [0x5B] LOAD_EXT_SCHEDULER: Load scheduler "sha1" with entities [Rholont (ID: 17105415/0x01050207), Rholont (ID: 17105415/0x01050207)], work=1301*
 67: 0x05A1 [0x1C] WAIT(20* ticks)
 68: 0x05A4 [0x52] END_LOAD_SCHEDULER: End scheduler "r107" with entities [LocalPlayer, LocalPlayer], work=453*
 69: 0x05B3 [0x45] LOAD_SCHEDULED_TASK: Load scheduler "r108" with entities [LocalPlayer, LocalPlayer], work=[453*, 0*]
 70: 0x05C4 [0x53] WAIT_SCHEDULER_TASK: Wait for scheduler "sha1" with entities [Rholont (ID: 17105415/0x01050207), Rholont (ID: 17105415/0x01050207)]
 71: 0x05D1 [0x4A] Rholont (ID: 17105415/0x01050207) looks at LocalPlayer
 72: 0x05DA [0x6F] WAIT_FRAME_DELAY: Yield until WaitTime reaches zero
 73: 0x05DB [0x76] CHECK_ENTITY_RENDER_FLAGS: Wait until Rholont (ID: 17105415/0x01050207) Render.Flags0 and Render.Flags3 conditions are met
 74: 0x05E0 [0x5B] LOAD_EXT_SCHEDULER: Load scheduler "tla0" with entities [Rholont (ID: 17105415/0x01050207), Rholont (ID: 17105415/0x01050207)], work=1272*
 75: 0x05EF [0x2B] Rholont (ID: 17105415/0x01050207) [12222*]:
    → "My sources tell me that the Swiftwing Griffins will be awarded the charge of escorting the Royal Provisioners--a responsibility of considerable import in anyone's book."
 76: 0x05F6 [0x23] WAIT_FOR_DIALOG_INTERACTION
 77: 0x05F7 [0x52] END_LOAD_SCHEDULER: End scheduler "r108" with entities [LocalPlayer, LocalPlayer], work=453*
 78: 0x0606 [0x45] LOAD_SCHEDULED_TASK: Load scheduler "r109" with entities [LocalPlayer, LocalPlayer], work=[453*, 0*]
 79: 0x0617 [0x7B] Rholont (ID: 17105415/0x01050207) stops talking
 80: 0x061C [0x5B] LOAD_EXT_SCHEDULER: Load scheduler "tla1" with entities [Rholont (ID: 17105415/0x01050207), Rholont (ID: 17105415/0x01050207)], work=1272*
 81: 0x062B [0x2B] Rholont (ID: 17105415/0x01050207) [12223*]:
    → "The biscuits will be pivotal in helping our men fend off untimely hunger pangs during the proceedings. Without sustenance, they couldn't hope to survive one of Captain Rongelouts's legendarily verbose sermons."
 82: 0x0632 [0x23] WAIT_FOR_DIALOG_INTERACTION
 83: 0x0633 [0x2B] Rholont (ID: 17105415/0x01050207) [12224*]:
    → "I would make the delivery myself, but for my post as Castellan of Swiftwing Fortress. Therefore, in my stead, I bid you take the biscuits to our people in Jugner Forest."
 84: 0x063A [0x23] WAIT_FOR_DIALOG_INTERACTION
 85: 0x063B [0x52] END_LOAD_SCHEDULER: End scheduler "r109" with entities [LocalPlayer, LocalPlayer], work=453*
 86: 0x064A [0x45] LOAD_SCHEDULED_TASK: Load scheduler "r106" with entities [LocalPlayer, LocalPlayer], work=[453*, 0*]
 87: 0x065B [0x5B] LOAD_EXT_SCHEDULER: Load scheduler "kei0" with entities [Rholont (ID: 17105415/0x01050207), Rholont (ID: 17105415/0x01050207)], work=1301*
 88: 0x066A [0x03] Work_Zone[2] = 1073*
 89: 0x066F [0x2B] Rholont (ID: 17105415/0x01050207) [12225*]:
    → "May the Goddess speed your way, <Player>!"
 90: 0x0676 [0x23] WAIT_FOR_DIALOG_INTERACTION
 91: 0x0677 [0x45] LOAD_SCHEDULED_TASK: Load scheduler "fdo1" with entities [LocalPlayer, LocalPlayer], work=[200*, 0*]
 92: 0x0688 [0x55] WAIT_LOAD_SCHEDULER: Wait for scheduler "fdo1" with entities [LocalPlayer, LocalPlayer], work=200*
 93: 0x0697 [0x52] END_LOAD_SCHEDULER: End scheduler "r106" with entities [LocalPlayer, LocalPlayer], work=453*
 94: 0x06A6 [0x1C] WAIT(1* ticks)
 95: 0x06A9 [0xAB] EventEntity->UnknownFlag = 0 // Disable unknown flag
 96: 0x06AB [0x46] CAMERA_CONTROL: Restore default settings
 97: 0x06AD [0x45] LOAD_SCHEDULED_TASK: Load scheduler "fdi2" with entities [LocalPlayer, LocalPlayer], work=[200*, 0*]
 98: 0x06BE [0x21] END_EVENT
 99: 0x06BF [0x00] END_REQSTACK()
```

### Event 649

#### Metadata

| Field        | Value      |
|--------------|------------|
| Entrypoint   | 0x06C0     |
| Data Size    | 4557 bytes |
| Instructions | 479        |

```
      00 01 02 03 04 05 06 07  08 09 0A 0B 0C 0D 0E 0F
      -- -- -- -- -- -- -- --  -- -- -- -- -- -- -- --
06C0: 42 20 01 46 01 1A 47 2E  38 02 80 4E 00 07 02 05  B .F..G.8..N....
06D0: 01 4E 01 0F 02 05 01 92  01 ED 01 05 01 92 01 09  .N..............
06E0: 02 05 01 92 01 07 02 05  01 92 01 0F 02 05 01 92  ................
06F0: 01 39 02 05 01 92 01 21  02 05 01 92 01 22 02 05  .9.....!....."..
0700: 01 92 01 E9 02 05 01 92  01 E7 02 05 01 92 01 E8  ................
0710: 02 05 01 79 00 F0 FF FF  7F F0 FF FF 7F 94 01 ED  ...y............
0720: 01 05 01 94 01 09 02 05  01 94 01 07 02 05 01 94  ................
0730: 01 0F 02 05 01 94 01 21  02 05 01 94 01 22 02 05  .......!....."..
0740: 01 80 ED 01 05 01 80 09  02 05 01 80 07 02 05 01  ................
0750: 80 0F 02 05 01 80 21 02  05 01 80 22 02 05 01 2F  ......!....".../
0760: 00 0F 02 05 01 BA F0 FF  FF 7F 03 80 04 80 05 80  ................
0770: 06 80 BA 09 02 05 01 3C  80 3D 80 05 80 3E 80 BA  .......<.=...>..
0780: ED 01 05 01 3F 80 40 80  05 80 41 80 BA 21 02 05  ....?.@...A..!..
0790: 01 42 80 43 80 05 80 41  80 BA 22 02 05 01 44 80  .B.C...A.."...D.
07A0: 45 80 05 80 41 80 5B 15  80 07 02 05 01 07 02 05  E...A.[.........
07B0: 01 66 30 30 30 5B 15 80  09 02 05 01 09 02 05 01  .f000[..........
07C0: 66 30 30 30 29 0F E9 02  05 01 09 4E 01 09 02 05  f000)......N....
07D0: 01 4E 01 ED 01 05 01 4E  01 21 02 05 01 4E 01 22  .N.....N.!...N."
07E0: 02 05 01 03 25 10 0E 80  03 27 10 0F 80 03 26 10  ....%....'....&.
07F0: 10 80 03 28 10 06 80 27  10 F0 FF FF 7F 16 1C 08  ...(...'........
0800: 80 45 46 80 F0 FF FF 7F  F0 FF FF 7F 72 31 30 31  .EF.........r101
0810: 01 80 45 00 80 F0 FF FF  7F F0 FF FF 7F 66 64 69  ..E..........fdi
0820: 31 01 80 55 00 80 F0 FF  FF 7F F0 FF FF 7F 66 64  1..U..........fd
0830: 69 31 1C 12 80 52 46 80  F0 FF FF 7F F0 FF FF 7F  i1...RF.........
0840: 72 31 30 31 45 46 80 F0  FF FF 7F F0 FF FF 7F 72  r101EF.........r
0850: 31 30 32 01 80 4A 39 02  05 01 F0 FF FF 7F 2B 07  102..J9.......+.
0860: 02 05 01 47 80 23 5B 13  80 07 02 05 01 07 02 05  ...G.#[.........
0870: 01 6B 65 69 30 52 46 80  F0 FF FF 7F F0 FF FF 7F  .kei0RF.........
0880: 72 31 30 32 45 46 80 F0  FF FF 7F F0 FF FF 7F 72  r102EF.........r
0890: 31 33 34 01 80 2B 07 02  05 01 48 80 23 52 46 80  134..+....H.#RF.
08A0: F0 FF FF 7F F0 FF FF 7F  72 31 33 34 45 46 80 F0  ........r134EF..
08B0: FF FF 7F F0 FF FF 7F 72  31 30 34 01 80 6B 69 64  .......r104..kid
08C0: 6C 30 07 02 05 01 2B 0F  02 05 01 49 80 23 2B 0F  l0....+....I.#+.
08D0: 02 05 01 4A 80 23 4E 00  09 02 05 01 2B 0F 02 05  ...J.#N.....+...
08E0: 01 4B 80 23 27 10 09 02  05 01 18 1C 0B 80 52 46  .K.#'.........RF
08F0: 80 F0 FF FF 7F F0 FF FF  7F 72 31 30 34 45 46 80  .........r104EF.
0900: F0 FF FF 7F F0 FF FF 7F  72 31 30 35 01 80 1C 12  ........r105....
0910: 80 52 46 80 F0 FF FF 7F  F0 FF FF 7F 72 31 30 35  .RF.........r105
0920: 45 46 80 F0 FF FF 7F F0  FF FF 7F 72 31 30 36 01  EF.........r106.
0930: 80 2A 10 09 02 05 01 7B  09 02 05 01 5B 16 80 09  .*.....{....[...
0940: 02 05 01 09 02 05 01 74  6C 62 30 4A F0 FF FF 7F  .......tlb0J....
0950: 09 02 05 01 2B 09 02 05  01 4C 80 23 2B 09 02 05  ....+....L.#+...
0960: 01 4D 80 23 52 46 80 F0  FF FF 7F F0 FF FF 7F 72  .M.#RF.........r
0970: 31 30 36 45 46 80 F0 FF  FF 7F F0 FF FF 7F 72 31  106EF.........r1
0980: 30 37 01 80 5B 16 80 09  02 05 01 09 02 05 01 74  07..[..........t
0990: 6C 62 31 2B 09 02 05 01  4E 80 23 52 46 80 F0 FF  lb1+....N.#RF...
09A0: FF 7F F0 FF FF 7F 72 31  30 37 45 46 80 F0 FF FF  ......r107EF....
09B0: 7F F0 FF FF 7F 72 31 30  38 01 80 5B 2C 80 07 02  .....r108..[,...
09C0: 05 01 07 02 05 01 6C 72  6B 79 2B 07 02 05 01 4F  ......lrky+....O
09D0: 80 23 29 10 F0 FF FF 7F  1B 02 02 10 22 80 80 04  .#)........."...
09E0: 0A 52 46 80 F0 FF FF 7F  F0 FF FF 7F 72 31 30 38  .RF.........r108
09F0: 45 46 80 F0 FF FF 7F F0  FF FF 7F 72 68 6D 31 01  EF.........rhm1.
0A00: 80 01 31 0B 02 02 10 50  80 80 2F 0A 52 46 80 F0  ..1....P../.RF..
0A10: FF FF 7F F0 FF FF 7F 72  31 30 38 45 46 80 F0 FF  .......r108EF...
0A20: FF 7F F0 FF FF 7F 72 68  6D 31 01 80 01 31 0B 02  ......rhm1...1..
0A30: 02 10 51 80 80 5A 0A 52  46 80 F0 FF FF 7F F0 FF  ..Q..Z.RF.......
0A40: FF 7F 72 31 30 38 45 46  80 F0 FF FF 7F F0 FF FF  ..r108EF........
0A50: 7F 72 65 6D 31 01 80 01  31 0B 02 02 10 52 80 80  .rem1...1....R..
0A60: 85 0A 52 46 80 F0 FF FF  7F F0 FF FF 7F 72 31 30  ..RF.........r10
0A70: 38 45 46 80 F0 FF FF 7F  F0 FF FF 7F 72 65 6D 31  8EF.........rem1
0A80: 01 80 01 31 0B 02 02 10  11 80 80 B0 0A 52 46 80  ...1.........RF.
0A90: F0 FF FF 7F F0 FF FF 7F  72 31 30 38 45 46 80 F0  ........r108EF..
0AA0: FF FF 7F F0 FF FF 7F 72  74 72 31 01 80 01 31 0B  .......rtr1...1.
0AB0: 02 02 10 53 80 80 DB 0A  52 46 80 F0 FF FF 7F F0  ...S....RF......
0AC0: FF FF 7F 72 31 30 38 45  46 80 F0 FF FF 7F F0 FF  ...r108EF.......
0AD0: FF 7F 72 74 72 31 01 80  01 31 0B 02 02 10 54 80  ..rtr1...1....T.
0AE0: 80 06 0B 52 46 80 F0 FF  FF 7F F0 FF FF 7F 72 31  ...RF.........r1
0AF0: 30 38 45 46 80 F0 FF FF  7F F0 FF FF 7F 72 6D 74  08EF.........rmt
0B00: 31 01 80 01 31 0B 02 02  10 55 80 80 31 0B 52 46  1...1....U..1.RF
0B10: 80 F0 FF FF 7F F0 FF FF  7F 72 31 30 38 45 46 80  .........r108EF.
0B20: F0 FF FF 7F F0 FF FF 7F  72 67 6C 31 01 80 01 31  ........rgl1...1
0B30: 0B 6E F0 FF FF 7F 02 80  99 F0 FF FF 7F 5D 01 80  .n...........]..
0B40: 56 80 1C 12 80 45 00 80  F0 FF FF 7F F0 FF FF 7F  V....E..........
0B50: 66 64 6F 32 01 80 55 00  80 F0 FF FF 7F F0 FF FF  fdo2..U.........
0B60: 7F 66 64 6F 32 52 46 80  F0 FF FF 7F F0 FF FF 7F  .fdo2RF.........
0B70: 72 68 6D 31 52 46 80 F0  FF FF 7F F0 FF FF 7F 72  rhm1RF.........r
0B80: 65 6D 31 52 46 80 F0 FF  FF 7F F0 FF FF 7F 72 74  em1RF.........rt
0B90: 72 31 52 46 80 F0 FF FF  7F F0 FF FF 7F 72 6D 74  r1RF.........rmt
0BA0: 31 52 46 80 F0 FF FF 7F  F0 FF FF 7F 72 67 6C 31  1RF.........rgl1
0BB0: 5B 57 80 09 02 05 01 09  02 05 01 72 6F 68 30 5B  [W.........roh0[
0BC0: 58 80 07 02 05 01 07 02  05 01 72 6F 68 30 7B 09  X.........roh0{.
0BD0: 02 05 01 7B 07 02 05 01  1C 12 80 5C 00 59 80 5C  ...{.......\.Y.\
0BE0: 01 59 80 9A 5B 15 80 07  02 05 01 07 02 05 01 66  .Y..[..........f
0BF0: 65 30 30 5B 58 80 07 02  05 01 07 02 05 01 72 6F  e00[X.........ro
0C00: 68 33 5B 57 80 09 02 05  01 09 02 05 01 72 61 68  h3[W.........rah
0C10: 31 45 46 80 F0 FF FF 7F  F0 FF FF 7F 72 31 30 39  1EF.........r109
0C20: 01 80 45 00 80 F0 FF FF  7F F0 FF FF 7F 66 64 69  ..E..........fdi
0C30: 32 01 80 55 00 80 F0 FF  FF 7F F0 FF FF 7F 66 64  2..U..........fd
0C40: 69 32 2B 09 02 05 01 5A  80 23 53 07 02 05 01 07  i2+....Z.#S.....
0C50: 02 05 01 72 6F 68 33 52  46 80 F0 FF FF 7F F0 FF  ...roh3RF.......
0C60: FF 7F 72 31 30 39 45 46  80 F0 FF FF 7F F0 FF FF  ..r109EF........
0C70: 7F 72 31 31 30 01 80 5B  15 80 07 02 05 01 07 02  .r110..[........
0C80: 05 01 66 65 30 31 2B 07  02 05 01 5B 80 23 5B 15  ..fe01+....[.#[.
0C90: 80 07 02 05 01 07 02 05  01 66 65 30 30 52 46 80  .........fe00RF.
0CA0: F0 FF FF 7F F0 FF FF 7F  72 31 31 30 45 46 80 F0  ........r110EF..
0CB0: FF FF 7F F0 FF FF 7F 72  31 31 31 01 80 2B 0F 02  .......r111..+..
0CC0: 05 01 5C 80 23 52 46 80  F0 FF FF 7F F0 FF FF 7F  ..\.#RF.........
0CD0: 72 31 31 31 45 46 80 F0  FF FF 7F F0 FF FF 7F 72  r111EF.........r
0CE0: 31 31 33 01 80 5B 15 80  07 02 05 01 07 02 05 01  113..[..........
0CF0: 66 65 30 31 2B 07 02 05  01 5D 80 23 4A F0 FF FF  fe01+....].#J...
0D00: 7F 07 02 05 01 29 10 F0  FF FF 7F 1B 02 02 10 22  .....)........."
0D10: 80 80 37 0D 52 46 80 F0  FF FF 7F F0 FF FF 7F 72  ..7.RF.........r
0D20: 31 31 33 45 46 80 F0 FF  FF 7F F0 FF FF 7F 72 68  113EF.........rh
0D30: 6D 32 01 80 01 64 0E 02  02 10 50 80 80 62 0D 52  m2...d....P..b.R
0D40: 46 80 F0 FF FF 7F F0 FF  FF 7F 72 31 31 33 45 46  F.........r113EF
0D50: 80 F0 FF FF 7F F0 FF FF  7F 72 68 6D 32 01 80 01  .........rhm2...
0D60: 64 0E 02 02 10 51 80 80  8D 0D 52 46 80 F0 FF FF  d....Q....RF....
0D70: 7F F0 FF FF 7F 72 31 31  33 45 46 80 F0 FF FF 7F  .....r113EF.....
0D80: F0 FF FF 7F 72 65 6D 32  01 80 01 64 0E 02 02 10  ....rem2...d....
0D90: 52 80 80 B8 0D 52 46 80  F0 FF FF 7F F0 FF FF 7F  R....RF.........
0DA0: 72 31 31 33 45 46 80 F0  FF FF 7F F0 FF FF 7F 72  r113EF.........r
0DB0: 65 6D 32 01 80 01 64 0E  02 02 10 11 80 80 E3 0D  em2...d.........
0DC0: 52 46 80 F0 FF FF 7F F0  FF FF 7F 72 31 31 33 45  RF.........r113E
0DD0: 46 80 F0 FF FF 7F F0 FF  FF 7F 72 74 72 32 01 80  F.........rtr2..
0DE0: 01 64 0E 02 02 10 53 80  80 0E 0E 52 46 80 F0 FF  .d....S....RF...
0DF0: FF 7F F0 FF FF 7F 72 31  31 33 45 46 80 F0 FF FF  ......r113EF....
0E00: 7F F0 FF FF 7F 72 74 72  32 01 80 01 64 0E 02 02  .....rtr2...d...
0E10: 10 54 80 80 39 0E 52 46  80 F0 FF FF 7F F0 FF FF  .T..9.RF........
0E20: 7F 72 31 31 33 45 46 80  F0 FF FF 7F F0 FF FF 7F  .r113EF.........
0E30: 72 6D 74 32 01 80 01 64  0E 02 02 10 55 80 80 64  rmt2...d....U..d
0E40: 0E 52 46 80 F0 FF FF 7F  F0 FF FF 7F 72 31 31 33  .RF.........r113
0E50: 45 46 80 F0 FF FF 7F F0  FF FF 7F 72 67 6C 32 01  EF.........rgl2.
0E60: 80 01 64 0E 6B 69 64 6C  30 09 02 05 01 5B 15 80  ..d.kidl0....[..
0E70: 07 02 05 01 07 02 05 01  66 65 30 30 5B 5E 80 09  ........fe00[^..
0E80: 02 05 01 09 02 05 01 70  75 6C 32 6F 76 07 02 05  .......pul2ov...
0E90: 01 1C 0B 80 6E F0 FF FF  7F 53 80 99 F0 FF FF 7F  ....n....S......
0EA0: 1C 5F 80 52 46 80 F0 FF  FF 7F F0 FF FF 7F 72 68  ._.RF.........rh
0EB0: 6D 32 52 46 80 F0 FF FF  7F F0 FF FF 7F 72 65 6D  m2RF.........rem
0EC0: 32 52 46 80 F0 FF FF 7F  F0 FF FF 7F 72 74 72 32  2RF.........rtr2
0ED0: 52 46 80 F0 FF FF 7F F0  FF FF 7F 72 6D 74 32 52  RF.........rmt2R
0EE0: 46 80 F0 FF FF 7F F0 FF  FF 7F 72 67 6C 32 45 46  F.........rgl2EF
0EF0: 80 F0 FF FF 7F F0 FF FF  7F 72 31 31 34 01 80 81  .........r114...
0F00: 00 09 02 05 01 5B 60 80  09 02 05 01 09 02 05 01  .....[`.........
0F10: 70 75 6C 33 2B 09 02 05  01 61 80 23 81 01 09 02  pul3+....a.#....
0F20: 05 01 52 46 80 F0 FF FF  7F F0 FF FF 7F 72 31 31  ..RF.........r11
0F30: 34 45 46 80 F0 FF FF 7F  F0 FF FF 7F 72 31 31 35  4EF.........r115
0F40: 01 80 4E 00 ED 01 05 01  4E 00 21 02 05 01 4E 00  ..N.....N.!...N.
0F50: 22 02 05 01 29 0F ED 01  05 01 10 4A ED 01 05 01  "...)......J....
0F60: 09 02 05 01 4A 21 02 05  01 09 02 05 01 4A 22 02  ....J!.......J".
0F70: 05 01 09 02 05 01 2B 09  02 05 01 62 80 23 2B 09  ......+....b.#+.
0F80: 02 05 01 63 80 23 59 04  09 02 05 01 27 80 27 10  ...c.#Y.....'.'.
0F90: 09 02 05 01 19 1C 0B 80  52 46 80 F0 FF FF 7F F0  ........RF......
0FA0: FF FF 7F 72 31 31 35 45  46 80 F0 FF FF 7F F0 FF  ...r115EF.......
0FB0: FF 7F 72 31 31 36 01 80  1C 0A 80 2B ED 01 05 01  ..r116.....+....
0FC0: 64 80 23 52 46 80 F0 FF  FF 7F F0 FF FF 7F 72 31  d.#RF.........r1
0FD0: 31 36 45 46 80 F0 FF FF  7F F0 FF FF 7F 72 31 31  16EF.........r11
0FE0: 37 01 80 2A 10 09 02 05  01 4A 09 02 05 01 21 02  7..*.....J....!.
0FF0: 05 01 1C 12 80 52 46 80  F0 FF FF 7F F0 FF FF 7F  .....RF.........
1000: 72 31 31 37 45 46 80 F0  FF FF 7F F0 FF FF 7F 72  r117EF.........r
1010: 31 31 38 01 80 7C 00 09  02 05 01 2B 09 02 05 01  118..|.....+....
1020: 65 80 23 7C 01 09 02 05  01 2B 09 02 05 01 66 80  e.#|.....+....f.
1030: 23 52 46 80 F0 FF FF 7F  F0 FF FF 7F 72 31 31 38  #RF.........r118
1040: 45 46 80 F0 FF FF 7F F0  FF FF 7F 72 31 31 39 01  EF.........r119.
1050: 80 2B ED 01 05 01 67 80  23 52 46 80 F0 FF FF 7F  .+....g.#RF.....
1060: F0 FF FF 7F 72 31 31 39  45 46 80 F0 FF FF 7F F0  ....r119EF......
1070: FF FF 7F 72 31 32 30 01  80 7B ED 01 05 01 5B 16  ...r120..{....[.
1080: 80 09 02 05 01 09 02 05  01 74 6C 73 30 2B 09 02  .........tls0+..
1090: 05 01 68 80 23 52 46 80  F0 FF FF 7F F0 FF FF 7F  ..h.#RF.........
10A0: 72 31 32 30 45 46 80 F0  FF FF 7F F0 FF FF 7F 72  r120EF.........r
10B0: 31 32 31 01 80 6B 69 64  6C 30 07 02 05 01 4B F0  121..kidl0....K.
10C0: FF FF 7F 69 80 4B 07 02  05 01 6A 80 5B 6B 80 07  ...i.K....j.[k..
10D0: 02 05 01 07 02 05 01 61  77 61 30 5B 6C 80 E7 02  .......awa0[l...
10E0: 05 01 E7 02 05 01 6B 6F  75 30 2B ED 01 05 01 6D  ......kou0+....m
10F0: 80 23 52 46 80 F0 FF FF  7F F0 FF FF 7F 72 31 32  .#RF.........r12
1100: 31 45 46 80 F0 FF FF 7F  F0 FF FF 7F 72 31 33 35  1EF.........r135
1110: 01 80 1C 08 80 7B 22 02  05 01 4E 00 E9 02 05 01  .....{"...N.....
1120: 4E 00 E7 02 05 01 4E 00  E8 02 05 01 BA E8 02 05  N.....N.........
1130: 01 6E 80 6F 80 10 80 70  80 BA E9 02 05 01 6E 80  .n.o...p......n.
1140: 6F 80 10 80 70 80 BA E7  02 05 01 6E 80 6F 80 10  o...p......n.o..
1150: 80 70 80 03 25 10 71 80  03 27 10 72 80 03 26 10  .p..%.q..'.r..&.
1160: 05 80 03 28 10 73 80 27  10 22 02 05 01 02 5B 6C  ...(.s.'."....[l
1170: 80 E7 02 05 01 E7 02 05  01 6B 6F 75 30 1C 74 80  .........kou0.t.
1180: 6C 09 02 05 01 01 80 22  80 6C 22 02 05 01 01 80  l......".l".....
1190: 22 80 6C E8 02 05 01 75  80 22 80 6C E9 02 05 01  ".l....u.".l....
11A0: 75 80 22 80 6C E7 02 05  01 75 80 22 80 5B 6C 80  u.".l....u.".[l.
11B0: E7 02 05 01 E7 02 05 01  00 FE FE FE 5B 76 80 E9  ............[v..
11C0: 02 05 01 E9 02 05 01 00  FE FE FE 5B 77 80 E8 02  ...........[w...
11D0: 05 01 E8 02 05 01 00 FE  FE FE 1C 0B 80 7C 00 E8  .............|..
11E0: 02 05 01 81 00 E8 02 05  01 5B 6C 80 E7 02 05 01  .........[l.....
11F0: E7 02 05 01 6B 6F 75 31  5B 76 80 E9 02 05 01 E9  ....kou1[v......
1200: 02 05 01 6B 6F 75 31 5B  77 80 E8 02 05 01 E8 02  ...kou1[w.......
1210: 05 01 6B 6F 75 31 1C 0B  80 52 46 80 F0 FF FF 7F  ..kou1...RF.....
1220: F0 FF FF 7F 72 31 33 35  45 46 80 F0 FF FF 7F F0  ....r135EF......
1230: FF FF 7F 72 31 32 32 01  80 6C ED 01 05 01 01 80  ...r122..l......
1240: 22 80 1C 78 80 52 46 80  F0 FF FF 7F F0 FF FF 7F  "..x.RF.........
1250: 72 31 32 32 45 46 80 F0  FF FF 7F F0 FF FF 7F 72  r122EF.........r
1260: 31 32 33 01 80 6C 21 02  05 01 01 80 22 80 2B 09  123..l!.....".+.
1270: 02 05 01 79 80 23 5B 7A  80 E7 02 05 01 E7 02 05  ...y.#[z........
1280: 01 6B 6F 75 32 5B 76 80  E9 02 05 01 E9 02 05 01  .kou2[v.........
1290: 6B 6F 75 32 5B 77 80 E8  02 05 01 E8 02 05 01 6B  kou2[w.........k
12A0: 6F 75 32 1C 0B 80 52 46  80 F0 FF FF 7F F0 FF FF  ou2...RF........
12B0: 7F 72 31 32 33 45 46 80  F0 FF FF 7F F0 FF FF 7F  .r123EF.........
12C0: 72 31 32 34 01 80 1C 7B  80 52 46 80 F0 FF FF 7F  r124...{.RF.....
12D0: F0 FF FF 7F 72 31 32 34  45 46 80 F0 FF FF 7F F0  ....r124EF......
12E0: FF FF 7F 72 31 33 36 01  80 6C 21 02 05 01 75 80  ...r136..l!...u.
12F0: 22 80 1C 56 80 5B 76 80  E9 02 05 01 E9 02 05 01  "..V.[v.........
1300: 00 FE FE FE 5B 6C 80 E7  02 05 01 E7 02 05 01 00  ....[l..........
1310: FE FE FE 5B 77 80 E8 02  05 01 E8 02 05 01 00 FE  ...[w...........
1320: FE FE 1C 08 80 5B 15 80  E8 02 05 01 E8 02 05 01  .....[..........
1330: 66 30 30 30 5B 7A 80 E7  02 05 01 E7 02 05 01 6B  f000[z.........k
1340: 6F 75 33 5B 7C 80 E9 02  05 01 E9 02 05 01 6B 6F  ou3[|.........ko
1350: 75 33 5B 7D 80 E8 02 05  01 E8 02 05 01 6B 6F 75  u3[}.........kou
1360: 33 1C 08 80 52 46 80 F0  FF FF 7F F0 FF FF 7F 72  3...RF.........r
1370: 31 33 36 45 46 80 F0 FF  FF 7F F0 FF FF 7F 72 31  136EF.........r1
1380: 33 37 01 80 1C 7E 80 52  46 80 F0 FF FF 7F F0 FF  37...~.RF.......
1390: FF 7F 72 31 33 37 45 46  80 F0 FF FF 7F F0 FF FF  ..r137EF........
13A0: 7F 72 31 33 38 01 80 1C  12 80 52 46 80 F0 FF FF  .r138.....RF....
13B0: 7F F0 FF FF 7F 72 31 33  38 45 46 80 F0 FF FF 7F  .....r138EF.....
13C0: F0 FF FF 7F 72 31 33 39  01 80 1C 5F 80 52 46 80  ....r139..._.RF.
13D0: F0 FF FF 7F F0 FF FF 7F  72 31 33 39 45 46 80 F0  ........r139EF..
13E0: FF FF 7F F0 FF FF 7F 72  31 32 35 01 80 7C 01 E8  .......r125..|..
13F0: 02 05 01 81 01 E8 02 05  01 1C 0A 80 2B ED 01 05  ............+...
1400: 01 7F 80 23 5B 15 80 07  02 05 01 07 02 05 01 66  ...#[..........f
1410: 66 30 30 1C 12 80 52 46  80 F0 FF FF 7F F0 FF FF  f00...RF........
1420: 7F 72 31 32 35 45 46 80  F0 FF FF 7F F0 FF FF 7F  .r125EF.........
1430: 72 31 32 36 01 80 5B 15  80 07 02 05 01 07 02 05  r126..[.........
1440: 01 66 67 30 31 81 00 07  02 05 01 2B 07 02 05 01  .fg01......+....
1450: 80 80 23 5B 15 80 07 02  05 01 07 02 05 01 66 67  ..#[..........fg
1460: 30 30 81 01 07 02 05 01  45 00 80 F0 FF FF 7F F0  00......E.......
1470: FF FF 7F 66 64 6F 32 01  80 55 00 80 F0 FF FF 7F  ...fdo2..U......
1480: F0 FF FF 7F 66 64 6F 32  52 46 80 F0 FF FF 7F F0  ....fdo2RF......
1490: FF FF 7F 72 31 32 36 6B  69 64 6C 30 07 02 05 01  ...r126kidl0....
14A0: 4E 01 E9 02 05 01 4E 01  21 02 05 01 4E 01 22 02  N.....N.!...N.".
14B0: 05 01 4E 01 E7 02 05 01  4E 01 09 02 05 01 4E 01  ..N.....N.....N.
14C0: E8 02 05 01 4E 01 07 02  05 01 6C ED 01 05 01 75  ....N.....l....u
14D0: 80 22 80 BA ED 01 05 01  81 80 82 80 10 80 83 80  ."..............
14E0: 4A F0 FF FF 7F ED 01 05  01 4A ED 01 05 01 F0 FF  J........J......
14F0: FF 7F 1C 0A 80 45 46 80  F0 FF FF 7F F0 FF FF 7F  .....EF.........
1500: 72 31 32 37 01 80 45 00  80 F0 FF FF 7F F0 FF FF  r127..E.........
1510: 7F 66 64 69 32 01 80 55  00 80 F0 FF FF 7F F0 FF  .fdi2..U........
1520: FF 7F 66 64 69 32 2B ED  01 05 01 84 80 23 2B ED  ..fdi2+......#+.
1530: 01 05 01 85 80 23 52 46  80 F0 FF FF 7F F0 FF FF  .....#RF........
1540: 7F 72 31 32 37 45 46 80  F0 FF FF 7F F0 FF FF 7F  .r127EF.........
1550: 72 31 32 38 01 80 2B ED  01 05 01 86 80 23 5B 87  r128..+......#[.
1560: 80 ED 01 05 01 ED 01 05  01 00 FE FE FE 5B 87 80  .............[..
1570: ED 01 05 01 ED 01 05 01  6C 65 74 30 2B ED 01 05  ........let0+...
1580: 01 88 80 23 53 ED 01 05  01 ED 01 05 01 6C 65 74  ...#S........let
1590: 30 29 10 F0 FF FF 7F 1B  02 02 10 22 80 80 C3 15  0)........."....
15A0: 52 46 80 F0 FF FF 7F F0  FF FF 7F 72 31 32 38 45  RF.........r128E
15B0: 46 80 F0 FF FF 7F F0 FF  FF 7F 72 68 6D 33 01 80  F.........rhm3..
15C0: 01 F0 16 02 02 10 50 80  80 EE 15 52 46 80 F0 FF  ......P....RF...
15D0: FF 7F F0 FF FF 7F 72 31  32 38 45 46 80 F0 FF FF  ......r128EF....
15E0: 7F F0 FF FF 7F 72 68 6D  33 01 80 01 F0 16 02 02  .....rhm3.......
15F0: 10 51 80 80 19 16 52 46  80 F0 FF FF 7F F0 FF FF  .Q....RF........
1600: 7F 72 31 32 38 45 46 80  F0 FF FF 7F F0 FF FF 7F  .r128EF.........
1610: 72 65 6D 33 01 80 01 F0  16 02 02 10 52 80 80 44  rem3........R..D
1620: 16 52 46 80 F0 FF FF 7F  F0 FF FF 7F 72 31 32 38  .RF.........r128
1630: 45 46 80 F0 FF FF 7F F0  FF FF 7F 72 65 6D 33 01  EF.........rem3.
1640: 80 01 F0 16 02 02 10 11  80 80 6F 16 52 46 80 F0  ..........o.RF..
1650: FF FF 7F F0 FF FF 7F 72  31 32 38 45 46 80 F0 FF  .......r128EF...
1660: FF 7F F0 FF FF 7F 72 74  72 33 01 80 01 F0 16 02  ......rtr3......
1670: 02 10 53 80 80 9A 16 52  46 80 F0 FF FF 7F F0 FF  ..S....RF.......
1680: FF 7F 72 31 32 38 45 46  80 F0 FF FF 7F F0 FF FF  ..r128EF........
1690: 7F 72 74 72 33 01 80 01  F0 16 02 02 10 54 80 80  .rtr3........T..
16A0: C5 16 52 46 80 F0 FF FF  7F F0 FF FF 7F 72 31 32  ..RF.........r12
16B0: 38 45 46 80 F0 FF FF 7F  F0 FF FF 7F 72 6D 74 33  8EF.........rmt3
16C0: 01 80 01 F0 16 02 02 10  55 80 80 F0 16 52 46 80  ........U....RF.
16D0: F0 FF FF 7F F0 FF FF 7F  72 31 32 38 45 46 80 F0  ........r128EF..
16E0: FF FF 7F F0 FF FF 7F 72  67 6C 33 01 80 01 F0 16  .......rgl3.....
16F0: 2B ED 01 05 01 89 80 23  6E F0 FF FF 7F 54 80 99  +......#n....T..
1700: F0 FF FF 7F 1C 0A 80 03  25 10 8A 80 03 27 10 8B  ........%....'..
1710: 80 03 26 10 05 80 03 28  10 73 80 27 10 ED 01 05  ..&....(.s.'....
1720: 01 09 4E 00 07 02 05 01  1C 0A 80 52 46 80 F0 FF  ..N........RF...
1730: FF 7F F0 FF FF 7F 72 68  6D 33 52 46 80 F0 FF FF  ......rhm3RF....
1740: 7F F0 FF FF 7F 72 65 6D  33 52 46 80 F0 FF FF 7F  .....rem3RF.....
1750: F0 FF FF 7F 72 74 72 33  52 46 80 F0 FF FF 7F F0  ....rtr3RF......
1760: FF FF 7F 72 6D 74 33 52  46 80 F0 FF FF 7F F0 FF  ...rmt3RF.......
1770: FF 7F 72 67 6C 33 45 46  80 F0 FF FF 7F F0 FF FF  ..rgl3EF........
1780: 7F 72 31 33 33 01 80 1C  8C 80 52 46 80 F0 FF FF  .r133.....RF....
1790: 7F F0 FF FF 7F 72 31 33  33 45 46 80 F0 FF FF 7F  .....r133EF.....
17A0: F0 FF FF 7F 72 31 33 30  01 80 2B 0F 02 05 01 8D  ....r130..+.....
17B0: 80 23 52 46 80 F0 FF FF  7F F0 FF FF 7F 72 31 33  .#RF.........r13
17C0: 30 45 46 80 F0 FF FF 7F  F0 FF FF 7F 72 31 33 31  0EF.........r131
17D0: 01 80 5B 15 80 07 02 05  01 07 02 05 01 66 65 30  ..[..........fe0
17E0: 31 2B 07 02 05 01 8E 80  23 5B 15 80 07 02 05 01  1+......#[......
17F0: 07 02 05 01 66 65 30 30  52 46 80 F0 FF FF 7F F0  ....fe00RF......
1800: FF FF 7F 72 31 33 31 45  46 80 F0 FF FF 7F F0 FF  ...r131EF.......
1810: FF 7F 72 31 33 32 01 80  1C 12 80 45 00 80 F0 FF  ..r132.....E....
1820: FF 7F F0 FF FF 7F 66 64  6F 32 01 80 55 00 80 F0  ......fdo2..U...
1830: FF FF 7F F0 FF FF 7F 66  64 6F 32 52 46 80 F0 FF  .......fdo2RF...
1840: FF 7F F0 FF FF 7F 72 31  33 32 5D 01 80 5F 80 7B  ......r132].._.{
1850: 07 02 05 01 7B 0F 02 05  01 BA 07 02 05 01 23 80  ....{.........#.
1860: 24 80 10 80 8F 80 BA 39  02 05 01 90 80 91 80 10  $......9........
1870: 80 92 80 1C 08 80 20 00  46 00 45 00 80 F8 FF FF  ...... .F.E.....
1880: 7F F8 FF FF 7F 66 64 69  32 01 80 21 00           .....fdi2..!.   
```

#### Opcodes

```
  0: 0x06C0 [0x42] SET_CLI_EVENT_CANCEL_DATA()
  1: 0x06C1 [0x20] SET_CLI_EVENT_UC_FLAG: Lock player control
  2: 0x06C3 [0x46] CAMERA_CONTROL: Disable user control
  3: 0x06C5 [0x1A] CALL_SUBROUTINE(address=0x2E47)
  4: 0x06C8 [0x38] SET_CLIENT_EVENT_MODE(mode=19*)
  5: 0x06CB [0x4E] SET_ENTITY_HIDE_FLAG: Show Rholont (ID: 17105415/0x01050207)
  6: 0x06D1 [0x4E] SET_ENTITY_HIDE_FLAG: Hide Bistillot (ID: 17105423/0x0105020F)
  7: 0x06D7 [0x92] Rongelouts N Distaud (ID: 17105389/0x010501ED)->Render.Flags3 ^= 0x01
  8: 0x06DD [0x92] Rahal (ID: 17105417/0x01050209)->Render.Flags3 ^= 0x01
  9: 0x06E3 [0x92] Rholont (ID: 17105415/0x01050207)->Render.Flags3 ^= 0x01
 10: 0x06E9 [0x92] Bistillot (ID: 17105423/0x0105020F)->Render.Flags3 ^= 0x01
 11: 0x06EF [0x92] ??? Warmachine (ID: 17105465/0x01050239)->Render.Flags3 ^= 0x01
 12: 0x06F5 [0x92] Hersaume (ID: 17105441/0x01050221)->Render.Flags3 ^= 0x01
 13: 0x06FB [0x92] Unnamed NPC (ID: 17105442/0x01050222)->Render.Flags3 ^= 0x01
 14: 0x0701 [0x92] Rongelouts N Distaud (ID: 17105641/0x010502E9)->Render.Flags3 ^= 0x01
 15: 0x0707 [0x92] Unnamed NPC (ID: 17105639/0x010502E7)->Render.Flags3 ^= 0x01
 16: 0x070D [0x92] Rahal (ID: 17105640/0x010502E8)->Render.Flags3 ^= 0x01
 17: 0x0713 [0x79] LocalPlayer looks at LocalPlayer (Basic look)
 18: 0x071D [0x94] Rongelouts N Distaud (ID: 17105389/0x010501ED)->Render.Flags3 ^= 0x01
 19: 0x0723 [0x94] Rahal (ID: 17105417/0x01050209)->Render.Flags3 ^= 0x01
 20: 0x0729 [0x94] Rholont (ID: 17105415/0x01050207)->Render.Flags3 ^= 0x01
 21: 0x072F [0x94] Bistillot (ID: 17105423/0x0105020F)->Render.Flags3 ^= 0x01
 22: 0x0735 [0x94] Hersaume (ID: 17105441/0x01050221)->Render.Flags3 ^= 0x01
 23: 0x073B [0x94] Unnamed NPC (ID: 17105442/0x01050222)->Render.Flags3 ^= 0x01
 24: 0x0741 [0x80] LOAD_WAIT(entity=Rongelouts N Distaud (ID: 17105389/0x010501ED))
 25: 0x0746 [0x80] LOAD_WAIT(entity=Rahal (ID: 17105417/0x01050209))
 26: 0x074B [0x80] LOAD_WAIT(entity=Rholont (ID: 17105415/0x01050207))
 27: 0x0750 [0x80] LOAD_WAIT(entity=Bistillot (ID: 17105423/0x0105020F))
 28: 0x0755 [0x80] LOAD_WAIT(entity=Hersaume (ID: 17105441/0x01050221))
 29: 0x075A [0x80] LOAD_WAIT(entity=Unnamed NPC (ID: 17105442/0x01050222))
 30: 0x075F [0x2F] Bistillot (ID: 17105423/0x0105020F)->Render.Flags0 &= ~0x80000 // Bit 19
 31: 0x0765 [0xBA] SET_ENTITY_POSITION(entity_id=LocalPlayer, pos_x=-174.193*, pos_z=57.333*, pos_y=-2.199*, direction=12.4°*)
 32: 0x0772 [0xBA] SET_ENTITY_POSITION(entity_id=Rahal (ID: 17105417/0x01050209), pos_x=-178.605*, pos_z=58.094*, pos_y=-2.199*, direction=29.5°*)
 33: 0x077F [0xBA] SET_ENTITY_POSITION(entity_id=Rongelouts N Distaud (ID: 17105389/0x010501ED), pos_x=-173.355*, pos_z=58.948*, pos_y=-2.199*, direction=22.6°*)
 34: 0x078C [0xBA] SET_ENTITY_POSITION(entity_id=Hersaume (ID: 17105441/0x01050221), pos_x=-174.114*, pos_z=57.938*, pos_y=-2.199*, direction=22.6°*)
 35: 0x0799 [0xBA] SET_ENTITY_POSITION(entity_id=Unnamed NPC (ID: 17105442/0x01050222), pos_x=-174.484*, pos_z=59.206*, pos_y=-2.199*, direction=22.6°*)
 36: 0x07A6 [0x5B] LOAD_EXT_SCHEDULER: Load scheduler "f000" with entities [Rholont (ID: 17105415/0x01050207), Rholont (ID: 17105415/0x01050207)], work=1299*
 37: 0x07B5 [0x5B] LOAD_EXT_SCHEDULER: Load scheduler "f000" with entities [Rahal (ID: 17105417/0x01050209), Rahal (ID: 17105417/0x01050209)], work=1299*
 38: 0x07C4 [0x29] REQ_SET_WAIT(priority=0x0F, entity_id=Rongelouts N Distaud (ID: 17105641/0x010502E9), tag_num=0x09)
 39: 0x07CB [0x4E] SET_ENTITY_HIDE_FLAG: Hide Rahal (ID: 17105417/0x01050209)
 40: 0x07D1 [0x4E] SET_ENTITY_HIDE_FLAG: Hide Rongelouts N Distaud (ID: 17105389/0x010501ED)
 41: 0x07D7 [0x4E] SET_ENTITY_HIDE_FLAG: Hide Hersaume (ID: 17105441/0x01050221)
 42: 0x07DD [0x4E] SET_ENTITY_HIDE_FLAG: Hide Unnamed NPC (ID: 17105442/0x01050222)
 43: 0x07E3 [0x03] Work_Zone[37] = 4294796176*
 44: 0x07E8 [0x03] Work_Zone[39] = 56560*
 45: 0x07ED [0x03] Work_Zone[38] = 4294965296*
 46: 0x07F2 [0x03] Work_Zone[40] = 141*
 47: 0x07F7 [0x27] REQ_SET(priority=0x10, entity_id=LocalPlayer, tag_num=0x16)
 48: 0x07FE [0x1C] WAIT(30* ticks)
 49: 0x0801 [0x45] LOAD_SCHEDULED_TASK: Load scheduler "r101" with entities [LocalPlayer, LocalPlayer], work=[437*, 0*]
 50: 0x0812 [0x45] LOAD_SCHEDULED_TASK: Load scheduler "fdi1" with entities [LocalPlayer, LocalPlayer], work=[200*, 0*]
 51: 0x0823 [0x55] WAIT_LOAD_SCHEDULER: Wait for scheduler "fdi1" with entities [LocalPlayer, LocalPlayer], work=200*
 52: 0x0832 [0x1C] WAIT(120* ticks)
 53: 0x0835 [0x52] END_LOAD_SCHEDULER: End scheduler "r101" with entities [LocalPlayer, LocalPlayer], work=437*
 54: 0x0844 [0x45] LOAD_SCHEDULED_TASK: Load scheduler "r102" with entities [LocalPlayer, LocalPlayer], work=[437*, 0*]
 55: 0x0855 [0x4A] ??? Warmachine (ID: 17105465/0x01050239) looks at LocalPlayer
 56: 0x085E [0x2B] Rholont (ID: 17105415/0x01050207) [12230*]:
    → "Ah! Welcome back, <Player>!"
 57: 0x0865 [0x23] WAIT_FOR_DIALOG_INTERACTION
 58: 0x0866 [0x5B] LOAD_EXT_SCHEDULER: Load scheduler "kei0" with entities [Rholont (ID: 17105415/0x01050207), Rholont (ID: 17105415/0x01050207)], work=1301*
 59: 0x0875 [0x52] END_LOAD_SCHEDULER: End scheduler "r102" with entities [LocalPlayer, LocalPlayer], work=437*
 60: 0x0884 [0x45] LOAD_SCHEDULED_TASK: Load scheduler "r134" with entities [LocalPlayer, LocalPlayer], work=[437*, 0*]
 61: 0x0895 [0x2B] Rholont (ID: 17105415/0x01050207) [12231*]:
    → "Relieved am I to see you safe and sound. To a castellan, few things are more gratifying than receiving one's own back from afield."
 62: 0x089C [0x23] WAIT_FOR_DIALOG_INTERACTION
 63: 0x089D [0x52] END_LOAD_SCHEDULER: End scheduler "r134" with entities [LocalPlayer, LocalPlayer], work=437*
 64: 0x08AC [0x45] LOAD_SCHEDULED_TASK: Load scheduler "r104" with entities [LocalPlayer, LocalPlayer], work=[437*, 0*]
 65: 0x08BD [0x6B] STOP_AND_IDLE: Rholont (ID: 17105415/0x01050207) stops current action and resets to idle (animation="idl0")
 66: 0x08C6 [0x2B] Bistillot (ID: 17105423/0x0105020F) [12232*]:
    → "Greetings, <Player>. From what Captain Rahal has told me of recent happenings, you've been on quite a ride."
 67: 0x08CD [0x23] WAIT_FOR_DIALOG_INTERACTION
 68: 0x08CE [0x2B] Bistillot (ID: 17105423/0x0105020F) [12233*]:
    → "The most important thing is that you've not come to any harm."
 69: 0x08D5 [0x23] WAIT_FOR_DIALOG_INTERACTION
 70: 0x08D6 [0x4E] SET_ENTITY_HIDE_FLAG: Show Rahal (ID: 17105417/0x01050209)
 71: 0x08DC [0x2B] Bistillot (ID: 17105423/0x0105020F) [12234*]:
    → "At this very moment, the captain should be making a report to Royal Knight General Cousseraux himself. Our unit continues its meteoric rise to distinction!"
 72: 0x08E3 [0x23] WAIT_FOR_DIALOG_INTERACTION
 73: 0x08E4 [0x27] REQ_SET(priority=0x10, entity_id=Rahal (ID: 17105417/0x01050209), tag_num=0x18)
 74: 0x08EB [0x1C] WAIT(10* ticks)
 75: 0x08EE [0x52] END_LOAD_SCHEDULER: End scheduler "r104" with entities [LocalPlayer, LocalPlayer], work=437*
 76: 0x08FD [0x45] LOAD_SCHEDULED_TASK: Load scheduler "r105" with entities [LocalPlayer, LocalPlayer], work=[437*, 0*]
 77: 0x090E [0x1C] WAIT(120* ticks)
 78: 0x0911 [0x52] END_LOAD_SCHEDULER: End scheduler "r105" with entities [LocalPlayer, LocalPlayer], work=437*
 79: 0x0920 [0x45] LOAD_SCHEDULED_TASK: Load scheduler "r106" with entities [LocalPlayer, LocalPlayer], work=[437*, 0*]
 80: 0x0931 [0x2A] GET_REQ_LEVEL(level=16, entity_id=Rahal (ID: 17105417/0x01050209))
 81: 0x0937 [0x7B] Rahal (ID: 17105417/0x01050209) stops talking
 82: 0x093C [0x5B] LOAD_EXT_SCHEDULER: Load scheduler "tlb0" with entities [Rahal (ID: 17105417/0x01050209), Rahal (ID: 17105417/0x01050209)], work=1272*
 83: 0x094B [0x4A] LocalPlayer looks at Rahal (ID: 17105417/0x01050209)
 84: 0x0954 [0x2B] Rahal (ID: 17105417/0x01050209) [12235*]:
    → "<Player>!"
 85: 0x095B [0x23] WAIT_FOR_DIALOG_INTERACTION
 86: 0x095C [0x2B] Rahal (ID: 17105417/0x01050209) [12236*]:
    → "'Tis good to see you back."
 87: 0x0963 [0x23] WAIT_FOR_DIALOG_INTERACTION
 88: 0x0964 [0x52] END_LOAD_SCHEDULER: End scheduler "r106" with entities [LocalPlayer, LocalPlayer], work=437*
 89: 0x0973 [0x45] LOAD_SCHEDULED_TASK: Load scheduler "r107" with entities [LocalPlayer, LocalPlayer], work=[437*, 0*]
 90: 0x0984 [0x5B] LOAD_EXT_SCHEDULER: Load scheduler "tlb1" with entities [Rahal (ID: 17105417/0x01050209), Rahal (ID: 17105417/0x01050209)], work=1272*
 91: 0x0993 [0x2B] Rahal (ID: 17105417/0x01050209) [12237*]:
    → "But...your being here would mean that Orcish intelligence on the Cardinal Stags' location was inaccurate?"
 92: 0x099A [0x23] WAIT_FOR_DIALOG_INTERACTION
 93: 0x099B [0x52] END_LOAD_SCHEDULER: End scheduler "r107" with entities [LocalPlayer, LocalPlayer], work=437*
 94: 0x09AA [0x45] LOAD_SCHEDULED_TASK: Load scheduler "r108" with entities [LocalPlayer, LocalPlayer], work=[437*, 0*]
 95: 0x09BB [0x5B] LOAD_EXT_SCHEDULER: Load scheduler "lrky" with entities [Rholont (ID: 17105415/0x01050207), Rholont (ID: 17105415/0x01050207)], work=2444*
 96: 0x09CA [0x2B] Rholont (ID: 17105415/0x01050207) [12238*]:
    → "That reminds me, were Cyranuce and Machegue not with you, <Player>?"
 97: 0x09D1 [0x23] WAIT_FOR_DIALOG_INTERACTION
 98: 0x09D2 [0x29] REQ_SET_WAIT(priority=0x10, entity_id=LocalPlayer, tag_num=0x1B)
 99: 0x09D9 [0x02] IF !(Work_Zone[2] == 1*) GOTO 0x0A04
100: 0x09E1 [0x52] END_LOAD_SCHEDULER: End scheduler "r108" with entities [LocalPlayer, LocalPlayer], work=437*
101: 0x09F0 [0x45] LOAD_SCHEDULED_TASK: Load scheduler "rhm1" with entities [LocalPlayer, LocalPlayer], work=[437*, 0*]
102: 0x0A01 [0x01] GOTO 0x0B31
103: 0x0A04 [0x02] IF !(Work_Zone[2] == 2*) GOTO 0x0A2F
104: 0x0A0C [0x52] END_LOAD_SCHEDULER: End scheduler "r108" with entities [LocalPlayer, LocalPlayer], work=437*
105: 0x0A1B [0x45] LOAD_SCHEDULED_TASK: Load scheduler "rhm1" with entities [LocalPlayer, LocalPlayer], work=[437*, 0*]
106: 0x0A2C [0x01] GOTO 0x0B31
107: 0x0A2F [0x02] IF !(Work_Zone[2] == 3*) GOTO 0x0A5A
108: 0x0A37 [0x52] END_LOAD_SCHEDULER: End scheduler "r108" with entities [LocalPlayer, LocalPlayer], work=437*
109: 0x0A46 [0x45] LOAD_SCHEDULED_TASK: Load scheduler "rem1" with entities [LocalPlayer, LocalPlayer], work=[437*, 0*]
110: 0x0A57 [0x01] GOTO 0x0B31
111: 0x0A5A [0x02] IF !(Work_Zone[2] == 4*) GOTO 0x0A85
112: 0x0A62 [0x52] END_LOAD_SCHEDULER: End scheduler "r108" with entities [LocalPlayer, LocalPlayer], work=437*
113: 0x0A71 [0x45] LOAD_SCHEDULED_TASK: Load scheduler "rem1" with entities [LocalPlayer, LocalPlayer], work=[437*, 0*]
114: 0x0A82 [0x01] GOTO 0x0B31
115: 0x0A85 [0x02] IF !(Work_Zone[2] == 5*) GOTO 0x0AB0
116: 0x0A8D [0x52] END_LOAD_SCHEDULER: End scheduler "r108" with entities [LocalPlayer, LocalPlayer], work=437*
117: 0x0A9C [0x45] LOAD_SCHEDULED_TASK: Load scheduler "rtr1" with entities [LocalPlayer, LocalPlayer], work=[437*, 0*]
118: 0x0AAD [0x01] GOTO 0x0B31
119: 0x0AB0 [0x02] IF !(Work_Zone[2] == 6*) GOTO 0x0ADB
120: 0x0AB8 [0x52] END_LOAD_SCHEDULER: End scheduler "r108" with entities [LocalPlayer, LocalPlayer], work=437*
121: 0x0AC7 [0x45] LOAD_SCHEDULED_TASK: Load scheduler "rtr1" with entities [LocalPlayer, LocalPlayer], work=[437*, 0*]
122: 0x0AD8 [0x01] GOTO 0x0B31
123: 0x0ADB [0x02] IF !(Work_Zone[2] == 7*) GOTO 0x0B06
124: 0x0AE3 [0x52] END_LOAD_SCHEDULER: End scheduler "r108" with entities [LocalPlayer, LocalPlayer], work=437*
125: 0x0AF2 [0x45] LOAD_SCHEDULED_TASK: Load scheduler "rmt1" with entities [LocalPlayer, LocalPlayer], work=[437*, 0*]
126: 0x0B03 [0x01] GOTO 0x0B31
127: 0x0B06 [0x02] IF !(Work_Zone[2] == 8*) GOTO 0x0B31
128: 0x0B0E [0x52] END_LOAD_SCHEDULER: End scheduler "r108" with entities [LocalPlayer, LocalPlayer], work=437*
129: 0x0B1D [0x45] LOAD_SCHEDULED_TASK: Load scheduler "rgl1" with entities [LocalPlayer, LocalPlayer], work=[437*, 0*]
130: 0x0B2E [0x01] GOTO 0x0B31

SUBROUTINE_0B31:
131: 0x0B31 [0x6E] LocalPlayer uses emote 19*
132: 0x0B38 [0x99] Wait for LocalPlayer animation to complete
133: 0x0B3D [0x5D] SET_MUSIC_VOLUME(volume=0*, fade_time=100*)
134: 0x0B42 [0x1C] WAIT(120* ticks)
135: 0x0B45 [0x45] LOAD_SCHEDULED_TASK: Load scheduler "fdo2" with entities [LocalPlayer, LocalPlayer], work=[200*, 0*]
136: 0x0B56 [0x55] WAIT_LOAD_SCHEDULER: Wait for scheduler "fdo2" with entities [LocalPlayer, LocalPlayer], work=200*
137: 0x0B65 [0x52] END_LOAD_SCHEDULER: End scheduler "rhm1" with entities [LocalPlayer, LocalPlayer], work=437*
138: 0x0B74 [0x52] END_LOAD_SCHEDULER: End scheduler "rem1" with entities [LocalPlayer, LocalPlayer], work=437*
139: 0x0B83 [0x52] END_LOAD_SCHEDULER: End scheduler "rtr1" with entities [LocalPlayer, LocalPlayer], work=437*
140: 0x0B92 [0x52] END_LOAD_SCHEDULER: End scheduler "rmt1" with entities [LocalPlayer, LocalPlayer], work=437*
141: 0x0BA1 [0x52] END_LOAD_SCHEDULER: End scheduler "rgl1" with entities [LocalPlayer, LocalPlayer], work=437*
142: 0x0BB0 [0x5B] LOAD_EXT_SCHEDULER: Load scheduler "roh0" with entities [Rahal (ID: 17105417/0x01050209), Rahal (ID: 17105417/0x01050209)], work=1502*
143: 0x0BBF [0x5B] LOAD_EXT_SCHEDULER: Load scheduler "roh0" with entities [Rholont (ID: 17105415/0x01050207), Rholont (ID: 17105415/0x01050207)], work=1503*
144: 0x0BCE [0x7B] Rahal (ID: 17105417/0x01050209) stops talking
145: 0x0BD3 [0x7B] Rholont (ID: 17105415/0x01050207) stops talking
146: 0x0BD8 [0x1C] WAIT(120* ticks)
147: 0x0BDB [0x5C] MUSIC_CONTROL: Set Idle (Day) music to song 159*
148: 0x0BDF [0x5C] MUSIC_CONTROL: Set Idle (Night) music to song 159*
149: 0x0BE3 [0x9A] WAIT_MUSIC_SERVER()
150: 0x0BE4 [0x5B] LOAD_EXT_SCHEDULER: Load scheduler "fe00" with entities [Rholont (ID: 17105415/0x01050207), Rholont (ID: 17105415/0x01050207)], work=1299*
151: 0x0BF3 [0x5B] LOAD_EXT_SCHEDULER: Load scheduler "roh3" with entities [Rholont (ID: 17105415/0x01050207), Rholont (ID: 17105415/0x01050207)], work=1503*
152: 0x0C02 [0x5B] LOAD_EXT_SCHEDULER: Load scheduler "rah1" with entities [Rahal (ID: 17105417/0x01050209), Rahal (ID: 17105417/0x01050209)], work=1502*
153: 0x0C11 [0x45] LOAD_SCHEDULED_TASK: Load scheduler "r109" with entities [LocalPlayer, LocalPlayer], work=[437*, 0*]
154: 0x0C22 [0x45] LOAD_SCHEDULED_TASK: Load scheduler "fdi2" with entities [LocalPlayer, LocalPlayer], work=[200*, 0*]
155: 0x0C33 [0x55] WAIT_LOAD_SCHEDULER: Wait for scheduler "fdi2" with entities [LocalPlayer, LocalPlayer], work=200*
156: 0x0C42 [0x2B] Rahal (ID: 17105417/0x01050209) [12239*]:
    → "Wh-what?"
157: 0x0C49 [0x23] WAIT_FOR_DIALOG_INTERACTION
158: 0x0C4A [0x53] WAIT_SCHEDULER_TASK: Wait for scheduler "roh3" with entities [Rholont (ID: 17105415/0x01050207), Rholont (ID: 17105415/0x01050207)]
159: 0x0C57 [0x52] END_LOAD_SCHEDULER: End scheduler "r109" with entities [LocalPlayer, LocalPlayer], work=437*
160: 0x0C66 [0x45] LOAD_SCHEDULED_TASK: Load scheduler "r110" with entities [LocalPlayer, LocalPlayer], work=[437*, 0*]
161: 0x0C77 [0x5B] LOAD_EXT_SCHEDULER: Load scheduler "fe01" with entities [Rholont (ID: 17105415/0x01050207), Rholont (ID: 17105415/0x01050207)], work=1299*
162: 0x0C86 [0x2B] Rholont (ID: 17105415/0x01050207) [12240*]:
    → "Machegue...is...?"
163: 0x0C8D [0x23] WAIT_FOR_DIALOG_INTERACTION
164: 0x0C8E [0x5B] LOAD_EXT_SCHEDULER: Load scheduler "fe00" with entities [Rholont (ID: 17105415/0x01050207), Rholont (ID: 17105415/0x01050207)], work=1299*
165: 0x0C9D [0x52] END_LOAD_SCHEDULER: End scheduler "r110" with entities [LocalPlayer, LocalPlayer], work=437*
166: 0x0CAC [0x45] LOAD_SCHEDULED_TASK: Load scheduler "r111" with entities [LocalPlayer, LocalPlayer], work=[437*, 0*]
167: 0x0CBD [0x2B] Bistillot (ID: 17105423/0x0105020F) [12241*]:
    → "..."
168: 0x0CC4 [0x23] WAIT_FOR_DIALOG_INTERACTION
169: 0x0CC5 [0x52] END_LOAD_SCHEDULER: End scheduler "r111" with entities [LocalPlayer, LocalPlayer], work=437*
170: 0x0CD4 [0x45] LOAD_SCHEDULED_TASK: Load scheduler "r113" with entities [LocalPlayer, LocalPlayer], work=[437*, 0*]
171: 0x0CE5 [0x5B] LOAD_EXT_SCHEDULER: Load scheduler "fe01" with entities [Rholont (ID: 17105415/0x01050207), Rholont (ID: 17105415/0x01050207)], work=1299*
172: 0x0CF4 [0x2B] Rholont (ID: 17105415/0x01050207) [12242*]:
    → "Tell us this isn't so, <Player>... That this is but a tasteless jest..."
173: 0x0CFB [0x23] WAIT_FOR_DIALOG_INTERACTION
174: 0x0CFC [0x4A] LocalPlayer looks at Rholont (ID: 17105415/0x01050207)
175: 0x0D05 [0x29] REQ_SET_WAIT(priority=0x10, entity_id=LocalPlayer, tag_num=0x1B)
176: 0x0D0C [0x02] IF !(Work_Zone[2] == 1*) GOTO 0x0D37
177: 0x0D14 [0x52] END_LOAD_SCHEDULER: End scheduler "r113" with entities [LocalPlayer, LocalPlayer], work=437*
178: 0x0D23 [0x45] LOAD_SCHEDULED_TASK: Load scheduler "rhm2" with entities [LocalPlayer, LocalPlayer], work=[437*, 0*]
179: 0x0D34 [0x01] GOTO 0x0E64
180: 0x0D37 [0x02] IF !(Work_Zone[2] == 2*) GOTO 0x0D62
181: 0x0D3F [0x52] END_LOAD_SCHEDULER: End scheduler "r113" with entities [LocalPlayer, LocalPlayer], work=437*
182: 0x0D4E [0x45] LOAD_SCHEDULED_TASK: Load scheduler "rhm2" with entities [LocalPlayer, LocalPlayer], work=[437*, 0*]
183: 0x0D5F [0x01] GOTO 0x0E64
184: 0x0D62 [0x02] IF !(Work_Zone[2] == 3*) GOTO 0x0D8D
185: 0x0D6A [0x52] END_LOAD_SCHEDULER: End scheduler "r113" with entities [LocalPlayer, LocalPlayer], work=437*
186: 0x0D79 [0x45] LOAD_SCHEDULED_TASK: Load scheduler "rem2" with entities [LocalPlayer, LocalPlayer], work=[437*, 0*]
187: 0x0D8A [0x01] GOTO 0x0E64
188: 0x0D8D [0x02] IF !(Work_Zone[2] == 4*) GOTO 0x0DB8
189: 0x0D95 [0x52] END_LOAD_SCHEDULER: End scheduler "r113" with entities [LocalPlayer, LocalPlayer], work=437*
190: 0x0DA4 [0x45] LOAD_SCHEDULED_TASK: Load scheduler "rem2" with entities [LocalPlayer, LocalPlayer], work=[437*, 0*]
191: 0x0DB5 [0x01] GOTO 0x0E64
192: 0x0DB8 [0x02] IF !(Work_Zone[2] == 5*) GOTO 0x0DE3
193: 0x0DC0 [0x52] END_LOAD_SCHEDULER: End scheduler "r113" with entities [LocalPlayer, LocalPlayer], work=437*
194: 0x0DCF [0x45] LOAD_SCHEDULED_TASK: Load scheduler "rtr2" with entities [LocalPlayer, LocalPlayer], work=[437*, 0*]
195: 0x0DE0 [0x01] GOTO 0x0E64
196: 0x0DE3 [0x02] IF !(Work_Zone[2] == 6*) GOTO 0x0E0E
197: 0x0DEB [0x52] END_LOAD_SCHEDULER: End scheduler "r113" with entities [LocalPlayer, LocalPlayer], work=437*
198: 0x0DFA [0x45] LOAD_SCHEDULED_TASK: Load scheduler "rtr2" with entities [LocalPlayer, LocalPlayer], work=[437*, 0*]
199: 0x0E0B [0x01] GOTO 0x0E64
200: 0x0E0E [0x02] IF !(Work_Zone[2] == 7*) GOTO 0x0E39
201: 0x0E16 [0x52] END_LOAD_SCHEDULER: End scheduler "r113" with entities [LocalPlayer, LocalPlayer], work=437*
202: 0x0E25 [0x45] LOAD_SCHEDULED_TASK: Load scheduler "rmt2" with entities [LocalPlayer, LocalPlayer], work=[437*, 0*]
203: 0x0E36 [0x01] GOTO 0x0E64
204: 0x0E39 [0x02] IF !(Work_Zone[2] == 8*) GOTO 0x0E64
205: 0x0E41 [0x52] END_LOAD_SCHEDULER: End scheduler "r113" with entities [LocalPlayer, LocalPlayer], work=437*
206: 0x0E50 [0x45] LOAD_SCHEDULED_TASK: Load scheduler "rgl2" with entities [LocalPlayer, LocalPlayer], work=[437*, 0*]
207: 0x0E61 [0x01] GOTO 0x0E64

SUBROUTINE_0E64:
208: 0x0E64 [0x6B] STOP_AND_IDLE: Rahal (ID: 17105417/0x01050209) stops current action and resets to idle (animation="idl0")
209: 0x0E6D [0x5B] LOAD_EXT_SCHEDULER: Load scheduler "fe00" with entities [Rholont (ID: 17105415/0x01050207), Rholont (ID: 17105415/0x01050207)], work=1299*
210: 0x0E7C [0x5B] LOAD_EXT_SCHEDULER: Load scheduler "pul2" with entities [Rahal (ID: 17105417/0x01050209), Rahal (ID: 17105417/0x01050209)], work=2261*
211: 0x0E8B [0x6F] WAIT_FRAME_DELAY: Yield until WaitTime reaches zero
212: 0x0E8C [0x76] CHECK_ENTITY_RENDER_FLAGS: Wait until Rholont (ID: 17105415/0x01050207) Render.Flags0 and Render.Flags3 conditions are met
213: 0x0E91 [0x1C] WAIT(10* ticks)
214: 0x0E94 [0x6E] LocalPlayer uses emote 6*
215: 0x0E9B [0x99] Wait for LocalPlayer animation to complete
216: 0x0EA0 [0x1C] WAIT(180* ticks)
217: 0x0EA3 [0x52] END_LOAD_SCHEDULER: End scheduler "rhm2" with entities [LocalPlayer, LocalPlayer], work=437*
218: 0x0EB2 [0x52] END_LOAD_SCHEDULER: End scheduler "rem2" with entities [LocalPlayer, LocalPlayer], work=437*
219: 0x0EC1 [0x52] END_LOAD_SCHEDULER: End scheduler "rtr2" with entities [LocalPlayer, LocalPlayer], work=437*
220: 0x0ED0 [0x52] END_LOAD_SCHEDULER: End scheduler "rmt2" with entities [LocalPlayer, LocalPlayer], work=437*
221: 0x0EDF [0x52] END_LOAD_SCHEDULER: End scheduler "rgl2" with entities [LocalPlayer, LocalPlayer], work=437*
222: 0x0EEE [0x45] LOAD_SCHEDULED_TASK: Load scheduler "r114" with entities [LocalPlayer, LocalPlayer], work=[437*, 0*]
223: 0x0EFF [0x81] SET_ENTITY_BLINKING(blink_flag=0x00, entity=Rahal (ID: 17105417/0x01050209))
224: 0x0F05 [0x5B] LOAD_EXT_SCHEDULER: Load scheduler "pul3" with entities [Rahal (ID: 17105417/0x01050209), Rahal (ID: 17105417/0x01050209)], work=2262*
225: 0x0F14 [0x2B] Rahal (ID: 17105417/0x01050209) [12243*]:
    → "I cannot believe it..."
226: 0x0F1B [0x23] WAIT_FOR_DIALOG_INTERACTION
227: 0x0F1C [0x81] SET_ENTITY_BLINKING(blink_flag=0x01, entity=Rahal (ID: 17105417/0x01050209))
228: 0x0F22 [0x52] END_LOAD_SCHEDULER: End scheduler "r114" with entities [LocalPlayer, LocalPlayer], work=437*
229: 0x0F31 [0x45] LOAD_SCHEDULED_TASK: Load scheduler "r115" with entities [LocalPlayer, LocalPlayer], work=[437*, 0*]
230: 0x0F42 [0x4E] SET_ENTITY_HIDE_FLAG: Show Rongelouts N Distaud (ID: 17105389/0x010501ED)
231: 0x0F48 [0x4E] SET_ENTITY_HIDE_FLAG: Show Hersaume (ID: 17105441/0x01050221)
232: 0x0F4E [0x4E] SET_ENTITY_HIDE_FLAG: Show Unnamed NPC (ID: 17105442/0x01050222)
233: 0x0F54 [0x29] REQ_SET_WAIT(priority=0x0F, entity_id=Rongelouts N Distaud (ID: 17105389/0x010501ED), tag_num=0x10)
234: 0x0F5B [0x4A] Rongelouts N Distaud (ID: 17105389/0x010501ED) looks at Rahal (ID: 17105417/0x01050209)
235: 0x0F64 [0x4A] Hersaume (ID: 17105441/0x01050221) looks at Rahal (ID: 17105417/0x01050209)
236: 0x0F6D [0x4A] Unnamed NPC (ID: 17105442/0x01050222) looks at Rahal (ID: 17105417/0x01050209)
237: 0x0F76 [0x2B] Rahal (ID: 17105417/0x01050209) [12244*]:
    → "<Player>."
238: 0x0F7D [0x23] WAIT_FOR_DIALOG_INTERACTION
239: 0x0F7E [0x2B] Rahal (ID: 17105417/0x01050209) [12245*]:
    → "Take me to the Pashhow Marshlands, to where Machegue is. As Captain, I need--I need to..."
240: 0x0F85 [0x23] WAIT_FOR_DIALOG_INTERACTION
241: 0x0F86 [0x59] UPDATE_ENTITY_DATA: Set Rahal (ID: 17105417/0x01050209) main speed = 15* * 0.1
242: 0x0F8E [0x27] REQ_SET(priority=0x10, entity_id=Rahal (ID: 17105417/0x01050209), tag_num=0x19)
243: 0x0F95 [0x1C] WAIT(10* ticks)
244: 0x0F98 [0x52] END_LOAD_SCHEDULER: End scheduler "r115" with entities [LocalPlayer, LocalPlayer], work=437*
245: 0x0FA7 [0x45] LOAD_SCHEDULED_TASK: Load scheduler "r116" with entities [LocalPlayer, LocalPlayer], work=[437*, 0*]
246: 0x0FB8 [0x1C] WAIT(60* ticks)
247: 0x0FBB [0x2B] Rongelouts N Distaud (ID: 17105389/0x010501ED) [12246*]:
    → "Going somewhere, maggot?"
248: 0x0FC2 [0x23] WAIT_FOR_DIALOG_INTERACTION
249: 0x0FC3 [0x52] END_LOAD_SCHEDULER: End scheduler "r116" with entities [LocalPlayer, LocalPlayer], work=437*
250: 0x0FD2 [0x45] LOAD_SCHEDULED_TASK: Load scheduler "r117" with entities [LocalPlayer, LocalPlayer], work=[437*, 0*]
251: 0x0FE3 [0x2A] GET_REQ_LEVEL(level=16, entity_id=Rahal (ID: 17105417/0x01050209))
252: 0x0FE9 [0x4A] Rahal (ID: 17105417/0x01050209) looks at Hersaume (ID: 17105441/0x01050221)
253: 0x0FF2 [0x1C] WAIT(120* ticks)
254: 0x0FF5 [0x52] END_LOAD_SCHEDULER: End scheduler "r117" with entities [LocalPlayer, LocalPlayer], work=437*
255: 0x1004 [0x45] LOAD_SCHEDULED_TASK: Load scheduler "r118" with entities [LocalPlayer, LocalPlayer], work=[437*, 0*]
256: 0x1015 [0x7C] Rahal (ID: 17105417/0x01050209)->Render.Flags2 |= 0x00
257: 0x101B [0x2B] Rahal (ID: 17105417/0x01050209) [12247*]:
    → "!!!"
258: 0x1022 [0x23] WAIT_FOR_DIALOG_INTERACTION
259: 0x1023 [0x7C] Rahal (ID: 17105417/0x01050209)->Render.Flags2 |= 0x01
260: 0x1029 [0x2B] Rahal (ID: 17105417/0x01050209) [12248*]:
    → "C-Captain Rongelouts... I've not time to linger. Please let me pass."
261: 0x1030 [0x23] WAIT_FOR_DIALOG_INTERACTION
262: 0x1031 [0x52] END_LOAD_SCHEDULER: End scheduler "r118" with entities [LocalPlayer, LocalPlayer], work=437*
263: 0x1040 [0x45] LOAD_SCHEDULED_TASK: Load scheduler "r119" with entities [LocalPlayer, LocalPlayer], work=[437*, 0*]
264: 0x1051 [0x2B] Rongelouts N Distaud (ID: 17105389/0x010501ED) [12249*]:
    → "So...you have the blood of one of your own on your hands."
265: 0x1058 [0x23] WAIT_FOR_DIALOG_INTERACTION
266: 0x1059 [0x52] END_LOAD_SCHEDULER: End scheduler "r119" with entities [LocalPlayer, LocalPlayer], work=437*
267: 0x1068 [0x45] LOAD_SCHEDULED_TASK: Load scheduler "r120" with entities [LocalPlayer, LocalPlayer], work=[437*, 0*]
268: 0x1079 [0x7B] Rongelouts N Distaud (ID: 17105389/0x010501ED) stops talking
269: 0x107E [0x5B] LOAD_EXT_SCHEDULER: Load scheduler "tls0" with entities [Rahal (ID: 17105417/0x01050209), Rahal (ID: 17105417/0x01050209)], work=1272*
270: 0x108D [0x2B] Rahal (ID: 17105417/0x01050209) [12250*]:
    → "What!?"
271: 0x1094 [0x23] WAIT_FOR_DIALOG_INTERACTION
272: 0x1095 [0x52] END_LOAD_SCHEDULER: End scheduler "r120" with entities [LocalPlayer, LocalPlayer], work=437*
273: 0x10A4 [0x45] LOAD_SCHEDULED_TASK: Load scheduler "r121" with entities [LocalPlayer, LocalPlayer], work=[437*, 0*]
274: 0x10B5 [0x6B] STOP_AND_IDLE: Rholont (ID: 17105415/0x01050207) stops current action and resets to idle (animation="idl0")
275: 0x10BE [0x4B] UPDATE_ENTITY_YAW(entity=LocalPlayer, yaw=17.8°*)
276: 0x10C5 [0x4B] UPDATE_ENTITY_YAW(entity=Rholont (ID: 17105415/0x01050207), yaw=15.5°*)
277: 0x10CC [0x5B] LOAD_EXT_SCHEDULER: Load scheduler "awa0" with entities [Rholont (ID: 17105415/0x01050207), Rholont (ID: 17105415/0x01050207)], work=1505*
278: 0x10DB [0x5B] LOAD_EXT_SCHEDULER: Load scheduler "kou0" with entities [Unnamed NPC (ID: 17105639/0x010502E7), Unnamed NPC (ID: 17105639/0x010502E7)], work=2396*
279: 0x10EA [0x2B] Rongelouts N Distaud (ID: 17105389/0x010501ED) [12251*]:
    → "Seize him."
280: 0x10F1 [0x23] WAIT_FOR_DIALOG_INTERACTION
281: 0x10F2 [0x52] END_LOAD_SCHEDULER: End scheduler "r121" with entities [LocalPlayer, LocalPlayer], work=437*
282: 0x1101 [0x45] LOAD_SCHEDULED_TASK: Load scheduler "r135" with entities [LocalPlayer, LocalPlayer], work=[437*, 0*]
283: 0x1112 [0x1C] WAIT(30* ticks)
284: 0x1115 [0x7B] Unnamed NPC (ID: 17105442/0x01050222) stops talking
285: 0x111A [0x4E] SET_ENTITY_HIDE_FLAG: Show Rongelouts N Distaud (ID: 17105641/0x010502E9)
286: 0x1120 [0x4E] SET_ENTITY_HIDE_FLAG: Show Unnamed NPC (ID: 17105639/0x010502E7)
287: 0x1126 [0x4E] SET_ENTITY_HIDE_FLAG: Show Rahal (ID: 17105640/0x010502E8)
288: 0x112C [0xBA] SET_ENTITY_POSITION(entity_id=Rahal (ID: 17105640/0x010502E8), pos_x=-169.924*, pos_z=59.330*, pos_y=-2.000*, direction=156.6°*)
289: 0x1139 [0xBA] SET_ENTITY_POSITION(entity_id=Rongelouts N Distaud (ID: 17105641/0x010502E9), pos_x=-169.924*, pos_z=59.330*, pos_y=-2.000*, direction=156.6°*)
290: 0x1146 [0xBA] SET_ENTITY_POSITION(entity_id=Unnamed NPC (ID: 17105639/0x010502E7), pos_x=-169.924*, pos_z=59.330*, pos_y=-2.000*, direction=156.6°*)
291: 0x1153 [0x03] Work_Zone[37] = 4294793514*
292: 0x1158 [0x03] Work_Zone[39] = 61111*
293: 0x115D [0x03] Work_Zone[38] = 4294965097*
294: 0x1162 [0x03] Work_Zone[40] = 3113*
295: 0x1167 [0x27] REQ_SET(priority=0x10, entity_id=Unnamed NPC (ID: 17105442/0x01050222), tag_num=0x02)
296: 0x116E [0x5B] LOAD_EXT_SCHEDULER: Load scheduler "kou0" with entities [Unnamed NPC (ID: 17105639/0x010502E7), Unnamed NPC (ID: 17105639/0x010502E7)], work=2396*
297: 0x117D [0x1C] WAIT(80* ticks)
298: 0x1180 [0x6C] FADE_ENTITY_COLOR(entity_id=Rahal (ID: 17105417/0x01050209), end_alpha=0*, fade_time=1*)
299: 0x1189 [0x6C] FADE_ENTITY_COLOR(entity_id=Unnamed NPC (ID: 17105442/0x01050222), end_alpha=0*, fade_time=1*)
300: 0x1192 [0x6C] FADE_ENTITY_COLOR(entity_id=Rahal (ID: 17105640/0x010502E8), end_alpha=128*, fade_time=1*)
301: 0x119B [0x6C] FADE_ENTITY_COLOR(entity_id=Rongelouts N Distaud (ID: 17105641/0x010502E9), end_alpha=128*, fade_time=1*)
302: 0x11A4 [0x6C] FADE_ENTITY_COLOR(entity_id=Unnamed NPC (ID: 17105639/0x010502E7), end_alpha=128*, fade_time=1*)
303: 0x11AD [0x5B] LOAD_EXT_SCHEDULER: Load scheduler 0xFEFEFE00 with entities [Unnamed NPC (ID: 17105639/0x010502E7), Unnamed NPC (ID: 17105639/0x010502E7)], work=2396*
304: 0x11BC [0x5B] LOAD_EXT_SCHEDULER: Load scheduler 0xFEFEFE00 with entities [Rongelouts N Distaud (ID: 17105641/0x010502E9), Rongelouts N Distaud (ID: 17105641/0x010502E9)], work=2398*
305: 0x11CB [0x5B] LOAD_EXT_SCHEDULER: Load scheduler 0xFEFEFE00 with entities [Rahal (ID: 17105640/0x010502E8), Rahal (ID: 17105640/0x010502E8)], work=2656*
306: 0x11DA [0x1C] WAIT(10* ticks)
307: 0x11DD [0x7C] Rahal (ID: 17105640/0x010502E8)->Render.Flags2 |= 0x00
308: 0x11E3 [0x81] SET_ENTITY_BLINKING(blink_flag=0x00, entity=Rahal (ID: 17105640/0x010502E8))
309: 0x11E9 [0x5B] LOAD_EXT_SCHEDULER: Load scheduler "kou1" with entities [Unnamed NPC (ID: 17105639/0x010502E7), Unnamed NPC (ID: 17105639/0x010502E7)], work=2396*
310: 0x11F8 [0x5B] LOAD_EXT_SCHEDULER: Load scheduler "kou1" with entities [Rongelouts N Distaud (ID: 17105641/0x010502E9), Rongelouts N Distaud (ID: 17105641/0x010502E9)], work=2398*
311: 0x1207 [0x5B] LOAD_EXT_SCHEDULER: Load scheduler "kou1" with entities [Rahal (ID: 17105640/0x010502E8), Rahal (ID: 17105640/0x010502E8)], work=2656*
312: 0x1216 [0x1C] WAIT(10* ticks)
313: 0x1219 [0x52] END_LOAD_SCHEDULER: End scheduler "r135" with entities [LocalPlayer, LocalPlayer], work=437*
314: 0x1228 [0x45] LOAD_SCHEDULED_TASK: Load scheduler "r122" with entities [LocalPlayer, LocalPlayer], work=[437*, 0*]
315: 0x1239 [0x6C] FADE_ENTITY_COLOR(entity_id=Rongelouts N Distaud (ID: 17105389/0x010501ED), end_alpha=0*, fade_time=1*)
316: 0x1242 [0x1C] WAIT(150* ticks)
317: 0x1245 [0x52] END_LOAD_SCHEDULER: End scheduler "r122" with entities [LocalPlayer, LocalPlayer], work=437*
318: 0x1254 [0x45] LOAD_SCHEDULED_TASK: Load scheduler "r123" with entities [LocalPlayer, LocalPlayer], work=[437*, 0*]
319: 0x1265 [0x6C] FADE_ENTITY_COLOR(entity_id=Hersaume (ID: 17105441/0x01050221), end_alpha=0*, fade_time=1*)
320: 0x126E [0x2B] Rahal (ID: 17105417/0x01050209) [12252*]:
    → "Wh-what is the meaning of this? Unhand me! Unhand me, I say!"
321: 0x1275 [0x23] WAIT_FOR_DIALOG_INTERACTION
322: 0x1276 [0x5B] LOAD_EXT_SCHEDULER: Load scheduler "kou2" with entities [Unnamed NPC (ID: 17105639/0x010502E7), Unnamed NPC (ID: 17105639/0x010502E7)], work=2397*
323: 0x1285 [0x5B] LOAD_EXT_SCHEDULER: Load scheduler "kou2" with entities [Rongelouts N Distaud (ID: 17105641/0x010502E9), Rongelouts N Distaud (ID: 17105641/0x010502E9)], work=2398*
324: 0x1294 [0x5B] LOAD_EXT_SCHEDULER: Load scheduler "kou2" with entities [Rahal (ID: 17105640/0x010502E8), Rahal (ID: 17105640/0x010502E8)], work=2656*
325: 0x12A3 [0x1C] WAIT(10* ticks)
326: 0x12A6 [0x52] END_LOAD_SCHEDULER: End scheduler "r123" with entities [LocalPlayer, LocalPlayer], work=437*
327: 0x12B5 [0x45] LOAD_SCHEDULED_TASK: Load scheduler "r124" with entities [LocalPlayer, LocalPlayer], work=[437*, 0*]
328: 0x12C6 [0x1C] WAIT(110* ticks)
329: 0x12C9 [0x52] END_LOAD_SCHEDULER: End scheduler "r124" with entities [LocalPlayer, LocalPlayer], work=437*
330: 0x12D8 [0x45] LOAD_SCHEDULED_TASK: Load scheduler "r136" with entities [LocalPlayer, LocalPlayer], work=[437*, 0*]
331: 0x12E9 [0x6C] FADE_ENTITY_COLOR(entity_id=Hersaume (ID: 17105441/0x01050221), end_alpha=128*, fade_time=1*)
332: 0x12F2 [0x1C] WAIT(100* ticks)
333: 0x12F5 [0x5B] LOAD_EXT_SCHEDULER: Load scheduler 0xFEFEFE00 with entities [Rongelouts N Distaud (ID: 17105641/0x010502E9), Rongelouts N Distaud (ID: 17105641/0x010502E9)], work=2398*
334: 0x1304 [0x5B] LOAD_EXT_SCHEDULER: Load scheduler 0xFEFEFE00 with entities [Unnamed NPC (ID: 17105639/0x010502E7), Unnamed NPC (ID: 17105639/0x010502E7)], work=2396*
335: 0x1313 [0x5B] LOAD_EXT_SCHEDULER: Load scheduler 0xFEFEFE00 with entities [Rahal (ID: 17105640/0x010502E8), Rahal (ID: 17105640/0x010502E8)], work=2656*
336: 0x1322 [0x1C] WAIT(30* ticks)
337: 0x1325 [0x5B] LOAD_EXT_SCHEDULER: Load scheduler "f000" with entities [Rahal (ID: 17105640/0x010502E8), Rahal (ID: 17105640/0x010502E8)], work=1299*
338: 0x1334 [0x5B] LOAD_EXT_SCHEDULER: Load scheduler "kou3" with entities [Unnamed NPC (ID: 17105639/0x010502E7), Unnamed NPC (ID: 17105639/0x010502E7)], work=2397*
339: 0x1343 [0x5B] LOAD_EXT_SCHEDULER: Load scheduler "kou3" with entities [Rongelouts N Distaud (ID: 17105641/0x010502E9), Rongelouts N Distaud (ID: 17105641/0x010502E9)], work=2399*
340: 0x1352 [0x5B] LOAD_EXT_SCHEDULER: Load scheduler "kou3" with entities [Rahal (ID: 17105640/0x010502E8), Rahal (ID: 17105640/0x010502E8)], work=2657*
341: 0x1361 [0x1C] WAIT(30* ticks)
342: 0x1364 [0x52] END_LOAD_SCHEDULER: End scheduler "r136" with entities [LocalPlayer, LocalPlayer], work=437*
343: 0x1373 [0x45] LOAD_SCHEDULED_TASK: Load scheduler "r137" with entities [LocalPlayer, LocalPlayer], work=[437*, 0*]
344: 0x1384 [0x1C] WAIT(250* ticks)
345: 0x1387 [0x52] END_LOAD_SCHEDULER: End scheduler "r137" with entities [LocalPlayer, LocalPlayer], work=437*
346: 0x1396 [0x45] LOAD_SCHEDULED_TASK: Load scheduler "r138" with entities [LocalPlayer, LocalPlayer], work=[437*, 0*]
347: 0x13A7 [0x1C] WAIT(120* ticks)
348: 0x13AA [0x52] END_LOAD_SCHEDULER: End scheduler "r138" with entities [LocalPlayer, LocalPlayer], work=437*
349: 0x13B9 [0x45] LOAD_SCHEDULED_TASK: Load scheduler "r139" with entities [LocalPlayer, LocalPlayer], work=[437*, 0*]
350: 0x13CA [0x1C] WAIT(180* ticks)
351: 0x13CD [0x52] END_LOAD_SCHEDULER: End scheduler "r139" with entities [LocalPlayer, LocalPlayer], work=437*
352: 0x13DC [0x45] LOAD_SCHEDULED_TASK: Load scheduler "r125" with entities [LocalPlayer, LocalPlayer], work=[437*, 0*]
353: 0x13ED [0x7C] Rahal (ID: 17105640/0x010502E8)->Render.Flags2 |= 0x01
354: 0x13F3 [0x81] SET_ENTITY_BLINKING(blink_flag=0x01, entity=Rahal (ID: 17105640/0x010502E8))
355: 0x13F9 [0x1C] WAIT(60* ticks)
356: 0x13FC [0x2B] Rongelouts N Distaud (ID: 17105389/0x010501ED) [12253*]:
    → "Take him away."
357: 0x1403 [0x23] WAIT_FOR_DIALOG_INTERACTION
358: 0x1404 [0x5B] LOAD_EXT_SCHEDULER: Load scheduler "ff00" with entities [Rholont (ID: 17105415/0x01050207), Rholont (ID: 17105415/0x01050207)], work=1299*
359: 0x1413 [0x1C] WAIT(120* ticks)
360: 0x1416 [0x52] END_LOAD_SCHEDULER: End scheduler "r125" with entities [LocalPlayer, LocalPlayer], work=437*
361: 0x1425 [0x45] LOAD_SCHEDULED_TASK: Load scheduler "r126" with entities [LocalPlayer, LocalPlayer], work=[437*, 0*]
362: 0x1436 [0x5B] LOAD_EXT_SCHEDULER: Load scheduler "fg01" with entities [Rholont (ID: 17105415/0x01050207), Rholont (ID: 17105415/0x01050207)], work=1299*
363: 0x1445 [0x81] SET_ENTITY_BLINKING(blink_flag=0x00, entity=Rholont (ID: 17105415/0x01050207))
364: 0x144B [0x2B] Rholont (ID: 17105415/0x01050207) [12254*]:
    → "C-Captain Rahal!"
365: 0x1452 [0x23] WAIT_FOR_DIALOG_INTERACTION
366: 0x1453 [0x5B] LOAD_EXT_SCHEDULER: Load scheduler "fg00" with entities [Rholont (ID: 17105415/0x01050207), Rholont (ID: 17105415/0x01050207)], work=1299*
367: 0x1462 [0x81] SET_ENTITY_BLINKING(blink_flag=0x01, entity=Rholont (ID: 17105415/0x01050207))
368: 0x1468 [0x45] LOAD_SCHEDULED_TASK: Load scheduler "fdo2" with entities [LocalPlayer, LocalPlayer], work=[200*, 0*]
369: 0x1479 [0x55] WAIT_LOAD_SCHEDULER: Wait for scheduler "fdo2" with entities [LocalPlayer, LocalPlayer], work=200*
