# 17105322 - Exoroche

## Common Data

| Field            | Value                            |
|------------------|----------------------------------|
| Zone             | Southern San d'Oria [S] (ID: 80) |
| Block Size       | 3100 bytes                       |
| Total Events     | 10                               |
| References Count | 94                               |

## List of Events

| Event ID              | Entrypoint   |   Size |   Instructions |
|-----------------------|--------------|--------|----------------|
| [65535](#event-65535) | 0x0000       |      1 |              1 |
| [156](#event-156)     | 0x0001       |     25 |              7 |
| [157](#event-157)     | 0x001A       |    371 |             57 |
| [158](#event-158)     | 0x018D       |     29 |              9 |
| [159](#event-159)     | 0x01AA       |    644 |             92 |
| [160](#event-160)     | 0x042E       |     30 |              8 |
| [161](#event-161)     | 0x044C       |    444 |             55 |
| [162](#event-162)     | 0x0608       |     20 |              8 |
| [163](#event-163)     | 0x061C       |   1087 |            164 |
| [164](#event-164)     | 0x0A5B       |     15 |              7 |

## DAT References (imed_data)

|   Index | Hex Value   |   Dec Value |
|---------|-------------|-------------|
|       0 | 0x004C      |          76 |
|       1 | 0x1D9E      |        7582 |
|       2 | 0x00C8      |         200 |
|       3 | 0x0000      |           0 |
|       4 | 0x003C      |          60 |
|       5 | 0x0013      |          19 |
|       6 | 0x12031     |       73777 |
|       7 | 0xFFFF660B  |  4294927883 |
|       8 | 0x07CF      |        1999 |
|       9 | 0x094C      |        2380 |
|      10 | 0x126EA     |       75498 |
|      11 | 0xFFFF7592  |  4294931858 |
|      12 | 0x05BF      |        1471 |
|      13 | 0x01C9      |         457 |
|      14 | 0x1D9F      |        7583 |
|      15 | 0x0001      |           1 |
|      16 | 0x1DA0      |        7584 |
|      17 | 0x1DA1      |        7585 |
|      18 | 0x1DA2      |        7586 |
|      19 | 0x1DA3      |        7587 |
|      20 | 0x1DA4      |        7588 |
|      21 | 0x0155      |         341 |
|      22 | 0x1388B     |       80011 |
|      23 | 0xFFFF6395  |  4294927253 |
|      24 | 0x09A7      |        2471 |
|      25 | 0x1DA5      |        7589 |
|      26 | 0x1DA6      |        7590 |
|      27 | 0x004B      |          75 |
|      28 | 0x1DA7      |        7591 |
|      29 | 0x005A      |          90 |
|      30 | 0x0019      |          25 |
|      31 | 0x1DA8      |        7592 |
|      32 | 0x1DA9      |        7593 |
|      33 | 0x0016      |          22 |
|      34 | 0x1DAA      |        7594 |
|      35 | 0x1DAB      |        7595 |
|      36 | 0x0022      |          34 |
|      37 | 0x1DAC      |        7596 |
|      38 | 0x1DAD      |        7597 |
|      39 | 0x1DAE      |        7598 |
|      40 | 0x1DAF      |        7599 |
|      41 | 0x0014      |          20 |
|      42 | 0x000D      |          13 |
|      43 | 0x11CC6     |       72902 |
|      44 | 0xFFFF68EF  |  4294928623 |
|      45 | 0x4097      |       16535 |
|      46 | 0x1DB0      |        7600 |
|      47 | 0x1DB1      |        7601 |
|      48 | 0x1DB2      |        7602 |
|      49 | 0x1DB3      |        7603 |
|      50 | 0x0078      |         120 |
|      51 | 0x118A8     |       71848 |
|      52 | 0xFFFF665E  |  4294927966 |
|      53 | 0x1DB4      |        7604 |
|      54 | 0x1DB5      |        7605 |
|      55 | 0x11BB7     |       72631 |
|      56 | 0xFFFF65DC  |  4294927836 |
|      57 | 0x1DB6      |        7606 |
|      58 | 0x1DB7      |        7607 |
|      59 | 0x1DB9      |        7609 |
|      60 | 0x11938     |       71992 |
|      61 | 0xFFFF8273  |  4294935155 |
|      62 | 0x027F      |         639 |
|      63 | 0x1DBA      |        7610 |
|      64 | 0x1DBB      |        7611 |
|      65 | 0x1DBC      |        7612 |
|      66 | 0x00F0      |         240 |
|      67 | 0x1DBD      |        7613 |
|      68 | 0x1DBE      |        7614 |
|      69 | 0x1DBF      |        7615 |
|      70 | 0x1DC0      |        7616 |
|      71 | 0x000A      |          10 |
|      72 | 0x0007      |           7 |
|      73 | 0x1DC1      |        7617 |
|      74 | 0x0024      |          36 |
|      75 | 0x1DC2      |        7618 |
|      76 | 0x1DC3      |        7619 |
|      77 | 0x1DC4      |        7620 |
|      78 | 0x1DC5      |        7621 |
|      79 | 0x1DC6      |        7622 |
|      80 | 0x1DC7      |        7623 |
|      81 | 0x1DC8      |        7624 |
|      82 | 0x001D      |          29 |
|      83 | 0x0096      |         150 |
|      84 | 0x1DC9      |        7625 |
|      85 | 0x1DCA      |        7626 |
|      86 | 0x1DCB      |        7627 |
|      87 | 0x1DCC      |        7628 |
|      88 | 0x1DCD      |        7629 |
|      89 | 0x1DCE      |        7630 |
|      90 | 0x1DCF      |        7631 |
|      91 | 0x1DD0      |        7632 |
|      92 | 0x00C9      |         201 |
|      93 | 0x1DD1      |        7633 |

## String References

- **7582**: <Sniff, sob>... Oh, do h-help me, kind [sir/miss]! I c-came here with my father, but now he's...he's gone!
- **7583**: Help the boy find his father? [Of course!/Find him yourself.]
- **7587**: <Sniff, sniff>... Father... Wherever did you go...?
- **7588**: The child is too distraught to provide you with any information. His name, however, strikes you as strangely familiar...
- **7589**: What? You f-found my father, you say?
- **7591**: That's him!
- **7593**: But F-Father...
- **7595**: B-but...but F-Father...!
- **7597**: No, Father! Why must you be so cruel? Don't leave me!
- **7600**: What? But Father... That's my f-favorite $0!
- **7602**: M-my $0...<sniff>... Without it, I c-cannot...<sob>...
- **7603**: C-could it be? You've come to return this to me?
- **7604**: Oh, thank you ever so much! This is the $0 that I shall wield to protect my family and Kingdom when I become a great, strong knight!
- **7605**: And yet...I cannot accept it from you.
- **7606**: Father has forbidden me from bearing arms save for as part of my weapons training. I can receive this sword only when he deems me...<sniff>...worthy of it once more.
- **7607**: <Sniff>... You are too kind, [milord/milady]. But I can accept that $0 when Father himself returns it to me, and not before.
- **7610**: Father...
- **7613**: C-could it be!? My $0!
- **7614**: Thank you, Father!
- **7616**: Oh, you truly are too kind! [Milord/Milady], ah...
- **7617**: Thank you, [Milord/Milady] <Player>!
- **7619**: Truly? On my honor, Father, I shan't let you down!
- **7624**: <Sniff>... F-Father...
- **7629**: Yes, Father! One day, I shall be the strongest, bravest knight in the Kingdom! I will make you proud!
- **7633**: I may have neither the strongest arm nor the sharpest blade, but I shall always fight for honor and justice!

## Events

### Event 65535

#### Metadata

| Field        | Value   |
|--------------|---------|
| Entrypoint   | 0x0000  |
| Data Size    | 1 bytes |
| Instructions | 1       |

```
      00 01 02 03 04 05 06 07  08 09 0A 0B 0C 0D 0E 0F
      -- -- -- -- -- -- -- --  -- -- -- -- -- -- -- --
0000: 00                                                .               
```

#### Opcodes

```
  0: 0x0000 [0x00] END_REQSTACK()
```

### Event 156

#### Metadata

| Field        | Value    |
|--------------|----------|
| Entrypoint   | 0x0001   |
| Data Size    | 25 bytes |
| Instructions | 7        |

```
      00 01 02 03 04 05 06 07  08 09 0A 0B 0C 0D 0E 0F
      -- -- -- -- -- -- -- --  -- -- -- -- -- -- -- --
0000:    20 01 5B 00 80 F8 FF  FF 7F F8 FF FF 7F 63 72    .[..........cr
0010: 79 30 1D 01 80 23 20 00  21 00                    y0...# .!.      
```

#### Opcodes

```
  0: 0x0001 [0x20] SET_CLI_EVENT_UC_FLAG: Lock player control
  1: 0x0003 [0x5B] LOAD_EXT_SCHEDULER: Load scheduler "cry0" with entities [EventEntity, EventEntity], work=76*
  2: 0x0012 [0x1D] PRINT_EVENT_MESSAGE(message_id=7582*)
    → "<Sniff, sob>... Oh, do h-help me, kind [sir/miss]! I c-came here with my father, but now he's...he's gone!"
  3: 0x0015 [0x23] WAIT_FOR_DIALOG_INTERACTION
  4: 0x0016 [0x20] SET_CLI_EVENT_UC_FLAG: Unlock player control
  5: 0x0018 [0x21] END_EVENT
  6: 0x0019 [0x00] END_REQSTACK()
```

### Event 157

#### Metadata

| Field        | Value     |
|--------------|-----------|
| Entrypoint   | 0x001A    |
| Data Size    | 371 bytes |
| Instructions | 53        |

```
      00 01 02 03 04 05 06 07  08 09 0A 0B 0C 0D 0E 0F
      -- -- -- -- -- -- -- --  -- -- -- -- -- -- -- --
0010:                                20 01 42 46 01 45             .BF.E
0020: 02 80 F0 FF FF 7F F0 FF  FF 7F 66 64 6F 31 03 80  ..........fdo1..
0030: 1C 04 80 38 05 80 BA F0  FF FF 7F 06 80 07 80 08  ...8............
0040: 80 09 80 80 F0 FF FF 7F  92 01 AA 01 05 01 80 AA  ................
0050: 01 05 01 2F 00 AE 01 05  01 4E 00 AE 01 05 01 BA  .../.....N......
0060: AE 01 05 01 0A 80 0B 80  08 80 0C 80 80 AE 01 05  ................
0070: 01 92 01 AE 01 05 01 5B  00 80 F8 FF FF 7F F8 FF  .......[........
0080: FF 7F 63 72 79 30 45 0D  80 F0 FF FF 7F F0 FF FF  ..cry0E.........
0090: 7F 35 37 30 31 03 80 45  02 80 F0 FF FF 7F F0 FF  .5701..E........
00A0: FF 7F 66 64 69 31 03 80  1C 04 80 1D 01 80 23 24  ..fdi1........#$
00B0: 0E 80 03 80 03 80 25 02  00 10 03 80 00 CA 00 03  ......%.........
00C0: 01 10 0F 80 01 D8 00 01  D8 00 02 00 10 0F 80 00  ................
00D0: D8 00 01 53 01 01 D8 00  2B AE 01 05 01 10 80 23  ...S....+......#
00E0: 4A F0 FF FF 7F AE 01 05  01 6F 70 52 0D 80 F0 FF  J........opR....
00F0: FF 7F F0 FF FF 7F 35 37  30 31 45 0D 80 F0 FF FF  ......5701E.....
0100: 7F F0 FF FF 7F 35 37 30  32 03 80 2B AE 01 05 01  .....5702..+....
0110: 11 80 23 2B AE 01 05 01  12 80 23 29 0F AE 01 05  ..#+......#)....
0120: 01 0B 52 0D 80 F0 FF FF  7F F0 FF FF 7F 35 37 30  ..R..........570
0130: 32 45 0D 80 F0 FF FF 7F  F0 FF FF 7F 35 37 30 33  2E..........5703
0140: 03 80 4A F0 FF FF 7F AA  01 05 01 1D 13 80 23 48  ..J...........#H
0150: 14 80 23 45 02 80 F0 FF  FF 7F F0 FF FF 7F 66 64  ..#E..........fd
0160: 6F 31 03 80 1C 04 80 52  15 80 F0 FF FF 7F F0 FF  o1.....R........
0170: FF 7F 35 37 30 33 46 00  45 02 80 F0 FF FF 7F F0  ..5703F.E.......
0180: FF FF 7F 66 64 69 31 03  80 20 00 21 00           ...fdi1.. .!.   
```

#### Opcodes

```
  0: 0x001A [0x20] SET_CLI_EVENT_UC_FLAG: Lock player control
  1: 0x001C [0x42] SET_CLI_EVENT_CANCEL_DATA()
  2: 0x001D [0x46] CAMERA_CONTROL: Disable user control
  3: 0x001F [0x45] LOAD_SCHEDULED_TASK: Load scheduler "fdo1" with entities [LocalPlayer, LocalPlayer], work=[200*, 0*]
  4: 0x0030 [0x1C] WAIT(60* ticks)
  5: 0x0033 [0x38] SET_CLIENT_EVENT_MODE(mode=19*)
  6: 0x0036 [0xBA] SET_ENTITY_POSITION(entity_id=LocalPlayer, pos_x=73.777*, pos_z=-39.413*, pos_y=1.999*, direction=209.2°*)
  7: 0x0043 [0x80] LOAD_WAIT(entity=LocalPlayer)
  8: 0x0048 [0x92] Exoroche (ID: 17105322/0x010501AA)->Render.Flags3 ^= 0x01
  9: 0x004E [0x80] LOAD_WAIT(entity=Exoroche (ID: 17105322/0x010501AA))
 10: 0x0053 [0x2F] Antreneau (ID: 17105326/0x010501AE)->Render.Flags0 &= ~0x80000 // Bit 19
 11: 0x0059 [0x4E] SET_ENTITY_HIDE_FLAG: Show Antreneau (ID: 17105326/0x010501AE)
 12: 0x005F [0xBA] SET_ENTITY_POSITION(entity_id=Antreneau (ID: 17105326/0x010501AE), pos_x=75.498*, pos_z=-35.438*, pos_y=1.999*, direction=129.3°*)
 13: 0x006C [0x80] LOAD_WAIT(entity=Antreneau (ID: 17105326/0x010501AE))
 14: 0x0071 [0x92] Antreneau (ID: 17105326/0x010501AE)->Render.Flags3 ^= 0x01
 15: 0x0077 [0x5B] LOAD_EXT_SCHEDULER: Load scheduler "cry0" with entities [EventEntity, EventEntity], work=76*
 16: 0x0086 [0x45] LOAD_SCHEDULED_TASK: Load scheduler "5701" with entities [LocalPlayer, LocalPlayer], work=[457*, 0*]
 17: 0x0097 [0x45] LOAD_SCHEDULED_TASK: Load scheduler "fdi1" with entities [LocalPlayer, LocalPlayer], work=[200*, 0*]
 18: 0x00A8 [0x1C] WAIT(60* ticks)
 19: 0x00AB [0x1D] PRINT_EVENT_MESSAGE(message_id=7582*)
    → "<Sniff, sob>... Oh, do h-help me, kind [sir/miss]! I c-came here with my father, but now he's...he's gone!"
 20: 0x00AE [0x23] WAIT_FOR_DIALOG_INTERACTION
 21: 0x00AF [0x24] CREATE_DIALOG(message_id=7583*, default_option=0*, option_flags=0*)
    → "Help the boy find his father? [Of course!/Find him yourself.]"
 22: 0x00B6 [0x25] WAIT_DIALOG_SELECT()
 23: 0x00B7 [0x02] IF !(Work_Zone[0] == 0*) GOTO 0x00CA
 24: 0x00BF [0x03] Work_Zone[1] = 1*
 25: 0x00C4 [0x01] GOTO 0x00D8

SUBROUTINE_00D8:
 26: 0x00D8 [0x2B] Antreneau (ID: 17105326/0x010501AE) [7584*]:
    → "Well, if it isn't Exoroche! Got separated from daddy dearest again, did we?"
 27: 0x00DF [0x23] WAIT_FOR_DIALOG_INTERACTION
 28: 0x00E0 [0x4A] LocalPlayer looks at Antreneau (ID: 17105326/0x010501AE)
 29: 0x00E9 [0x6F] WAIT_FRAME_DELAY: Yield until WaitTime reaches zero
 30: 0x00EA [0x70] WAIT_ENTITY_RENDER_FLAG: Wait while EventEntity->Render.Flags3 bit 2 is set (cancel turn if not)
 31: 0x00EB [0x52] END_LOAD_SCHEDULER: End scheduler "5701" with entities [LocalPlayer, LocalPlayer], work=457*
 32: 0x00FA [0x45] LOAD_SCHEDULED_TASK: Load scheduler "5702" with entities [LocalPlayer, LocalPlayer], work=[457*, 0*]
 33: 0x010B [0x2B] Antreneau (ID: 17105326/0x010501AE) [7585*]:
    → "Hah! One can hardly blame him for wanting to be rid of a crybaby like you!"
 34: 0x0112 [0x23] WAIT_FOR_DIALOG_INTERACTION
 35: 0x0113 [0x2B] Antreneau (ID: 17105326/0x010501AE) [7586*]:
    → "My father's going to show me how to fight with his xiphos. A pity you're too busy bawling your eyes out, or I'd let you tag along. Ta-ta!"
 36: 0x011A [0x23] WAIT_FOR_DIALOG_INTERACTION
 37: 0x011B [0x29] REQ_SET_WAIT(priority=0x0F, entity_id=Antreneau (ID: 17105326/0x010501AE), tag_num=0x0B)
 38: 0x0122 [0x52] END_LOAD_SCHEDULER: End scheduler "5702" with entities [LocalPlayer, LocalPlayer], work=457*
 39: 0x0131 [0x45] LOAD_SCHEDULED_TASK: Load scheduler "5703" with entities [LocalPlayer, LocalPlayer], work=[457*, 0*]
 40: 0x0142 [0x4A] LocalPlayer looks at Exoroche (ID: 17105322/0x010501AA)
 41: 0x014B [0x1D] PRINT_EVENT_MESSAGE(message_id=7587*)
    → "<Sniff, sniff>... Father... Wherever did you go...?"
 42: 0x014E [0x23] WAIT_FOR_DIALOG_INTERACTION
 43: 0x014F [0x48] [System] [7588*]:
    → "The child is too distraught to provide you with any information. His name, however, strikes you as strangely familiar..."
 44: 0x0152 [0x23] WAIT_FOR_DIALOG_INTERACTION

SUBROUTINE_0153:
 45: 0x0153 [0x45] LOAD_SCHEDULED_TASK: Load scheduler "fdo1" with entities [LocalPlayer, LocalPlayer], work=[200*, 0*]
 46: 0x0164 [0x1C] WAIT(60* ticks)
 47: 0x0167 [0x52] END_LOAD_SCHEDULER: End scheduler "5703" with entities [LocalPlayer, LocalPlayer], work=341*
 48: 0x0176 [0x46] CAMERA_CONTROL: Restore default settings
 49: 0x0178 [0x45] LOAD_SCHEDULED_TASK: Load scheduler "fdi1" with entities [LocalPlayer, LocalPlayer], work=[200*, 0*]
 50: 0x0189 [0x20] SET_CLI_EVENT_UC_FLAG: Unlock player control
 51: 0x018B [0x21] END_EVENT
 52: 0x018C [0x00] END_REQSTACK()
```

#### Data or dead code:

```
# Dead code (unreachable instructions):
     0x00C7 [0x01] GOTO 0x00D8
     0x00D5 [0x01] GOTO 0x00D8
```

### Event 158

#### Metadata

| Field        | Value    |
|--------------|----------|
| Entrypoint   | 0x018D   |
| Data Size    | 29 bytes |
| Instructions | 9        |

```
      00 01 02 03 04 05 06 07  08 09 0A 0B 0C 0D 0E 0F
      -- -- -- -- -- -- -- --  -- -- -- -- -- -- -- --
0180:                                         20 01 5B                .[
0190: 00 80 F8 FF FF 7F F8 FF  FF 7F 63 72 79 30 1D 13  ..........cry0..
01A0: 80 23 48 14 80 23 20 00  21 00                    .#H..# .!.      
```

#### Opcodes

```
  0: 0x018D [0x20] SET_CLI_EVENT_UC_FLAG: Lock player control
  1: 0x018F [0x5B] LOAD_EXT_SCHEDULER: Load scheduler "cry0" with entities [EventEntity, EventEntity], work=76*
  2: 0x019E [0x1D] PRINT_EVENT_MESSAGE(message_id=7587*)
    → "<Sniff, sniff>... Father... Wherever did you go...?"
  3: 0x01A1 [0x23] WAIT_FOR_DIALOG_INTERACTION
  4: 0x01A2 [0x48] [System] [7588*]:
    → "The child is too distraught to provide you with any information. His name, however, strikes you as strangely familiar..."
  5: 0x01A5 [0x23] WAIT_FOR_DIALOG_INTERACTION
  6: 0x01A6 [0x20] SET_CLI_EVENT_UC_FLAG: Unlock player control
  7: 0x01A8 [0x21] END_EVENT
  8: 0x01A9 [0x00] END_REQSTACK()
```

### Event 159

#### Metadata

| Field        | Value     |
|--------------|-----------|
| Entrypoint   | 0x01AA    |
| Data Size    | 644 bytes |
| Instructions | 92        |

```
      00 01 02 03 04 05 06 07  08 09 0A 0B 0C 0D 0E 0F
      -- -- -- -- -- -- -- --  -- -- -- -- -- -- -- --
01A0:                                20 01 42 46 01 45             .BF.E
01B0: 02 80 F0 FF FF 7F F0 FF  FF 7F 66 64 6F 31 03 80  ..........fdo1..
01C0: 1C 04 80 38 05 80 BA F0  FF FF 7F 06 80 07 80 08  ...8............
01D0: 80 09 80 80 F0 FF FF 7F  92 01 AA 01 05 01 80 AA  ................
01E0: 01 05 01 2F 00 AB 01 05  01 4E 00 AB 01 05 01 BA  .../.....N......
01F0: AB 01 05 01 16 80 17 80  08 80 18 80 80 AB 01 05  ................
0200: 01 92 01 AB 01 05 01 1E  F0 FF FF 7F 45 0D 80 F0  ............E...
0210: FF FF 7F F0 FF FF 7F 35  37 30 31 03 80 45 02 80  .......5701..E..
0220: F0 FF FF 7F F0 FF FF 7F  66 64 69 31 03 80 1C 04  ........fdi1....
0230: 80 1D 19 80 23 2B AB 01  05 01 1A 80 23 4A AA 01  ....#+......#J..
0240: 05 01 AB 01 05 01 5B 1B  80 F8 FF FF 7F F8 FF FF  ......[.........
0250: 7F 74 6C 6B 30 1D 1C 80  23 5B 1B 80 F8 FF FF 7F  .tlk0...#[......
0260: F8 FF FF 7F 74 6C 6B 31  52 0D 80 F0 FF FF 7F F0  ....tlk1R.......
0270: FF FF 7F 35 37 30 31 45  0D 80 F0 FF FF 7F F0 FF  ...5701E........
0280: FF 7F 35 37 30 34 03 80  29 0F AB 01 05 01 03 4A  ..5704..)......J
0290: AB 01 05 01 AA 01 05 01  4A F0 FF FF 7F AB 01 05  ........J.......
02A0: 01 1C 1D 80 52 0D 80 F0  FF FF 7F F0 FF FF 7F 35  ....R..........5
02B0: 37 30 34 45 0D 80 F0 FF  FF 7F F0 FF FF 7F 35 37  704E..........57
02C0: 31 34 03 80 6E AB 01 05  01 1E 80 99 AB 01 05 01  14..n...........
02D0: 2B AB 01 05 01 1F 80 23  5B 1B 80 F8 FF FF 7F F8  +......#[.......
02E0: FF FF 7F 74 6C 6B 30 1D  20 80 23 5B 1B 80 F8 FF  ...tlk0. .#[....
02F0: FF 7F F8 FF FF 7F 74 6C  6B 31 6E AB 01 05 01 21  ......tlk1n....!
0300: 80 99 AB 01 05 01 2B AB  01 05 01 22 80 23 5B 00  ......+....".#[.
0310: 80 F8 FF FF 7F F8 FF FF  7F 63 72 79 30 1D 23 80  .........cry0.#.
0320: 23 6E AB 01 05 01 24 80  99 AB 01 05 01 2B AB 01  #n....$......+..
0330: 05 01 25 80 23 1D 26 80  23 52 0D 80 F0 FF FF 7F  ..%.#.&.#R......
0340: F0 FF FF 7F 35 37 31 34  45 0D 80 F0 FF FF 7F F0  ....5714E.......
0350: FF FF 7F 35 37 31 35 03  80 4A AB 01 05 01 F0 FF  ...5715..J......
0360: FF 7F 2B AB 01 05 01 27  80 23 2B AB 01 05 01 28  ..+....'.#+....(
0370: 80 23 66 29 80 AB 01 05  01 AB 01 05 01 70 61 73  .#f).........pas
0380: 30 1C 1D 80 32 2A 80 1F  00 2B 80 2C 80 08 80 1F  0...2*...+.,....
0390: 01 5B 1B 80 F8 FF FF 7F  F8 FF FF 7F 74 6C 6B 30  .[..........tlk0
03A0: 03 02 10 2D 80 1D 2E 80  23 5B 1B 80 F8 FF FF 7F  ...-....#[......
03B0: F8 FF FF 7F 74 6C 6B 31  4A AB 01 05 01 AA 01 05  ....tlk1J.......
03C0: 01 6E AB 01 05 01 1E 80  99 AB 01 05 01 2B AB 01  .n...........+..
03D0: 05 01 2F 80 23 29 0F AB  01 05 01 04 5B 00 80 F8  ../.#)......[...
03E0: FF FF 7F F8 FF FF 7F 63  72 79 30 03 02 10 2D 80  .......cry0...-.
03F0: 1D 30 80 23 45 02 80 F0  FF FF 7F F0 FF FF 7F 66  .0.#E..........f
0400: 64 6F 31 03 80 1C 04 80  52 15 80 F0 FF FF 7F F0  do1.....R.......
0410: FF FF 7F 35 37 31 35 46  00 45 02 80 F0 FF FF 7F  ...5715F.E......
0420: F0 FF FF 7F 66 64 69 31  03 80 20 00 21 00        ....fdi1.. .!.  
```

#### Opcodes

```
  0: 0x01AA [0x20] SET_CLI_EVENT_UC_FLAG: Lock player control
  1: 0x01AC [0x42] SET_CLI_EVENT_CANCEL_DATA()
  2: 0x01AD [0x46] CAMERA_CONTROL: Disable user control
  3: 0x01AF [0x45] LOAD_SCHEDULED_TASK: Load scheduler "fdo1" with entities [LocalPlayer, LocalPlayer], work=[200*, 0*]
  4: 0x01C0 [0x1C] WAIT(60* ticks)
  5: 0x01C3 [0x38] SET_CLIENT_EVENT_MODE(mode=19*)
  6: 0x01C6 [0xBA] SET_ENTITY_POSITION(entity_id=LocalPlayer, pos_x=73.777*, pos_z=-39.413*, pos_y=1.999*, direction=209.2°*)
  7: 0x01D3 [0x80] LOAD_WAIT(entity=LocalPlayer)
  8: 0x01D8 [0x92] Exoroche (ID: 17105322/0x010501AA)->Render.Flags3 ^= 0x01
  9: 0x01DE [0x80] LOAD_WAIT(entity=Exoroche (ID: 17105322/0x010501AA))
 10: 0x01E3 [0x2F] Landeric (ID: 17105323/0x010501AB)->Render.Flags0 &= ~0x80000 // Bit 19
 11: 0x01E9 [0x4E] SET_ENTITY_HIDE_FLAG: Show Landeric (ID: 17105323/0x010501AB)
 12: 0x01EF [0xBA] SET_ENTITY_POSITION(entity_id=Landeric (ID: 17105323/0x010501AB), pos_x=80.011*, pos_z=-40.043*, pos_y=1.999*, direction=217.2°*)
 13: 0x01FC [0x80] LOAD_WAIT(entity=Landeric (ID: 17105323/0x010501AB))
 14: 0x0201 [0x92] Landeric (ID: 17105323/0x010501AB)->Render.Flags3 ^= 0x01
 15: 0x0207 [0x1E] EventEntity looks at LocalPlayer and starts talking
 16: 0x020C [0x45] LOAD_SCHEDULED_TASK: Load scheduler "5701" with entities [LocalPlayer, LocalPlayer], work=[457*, 0*]
 17: 0x021D [0x45] LOAD_SCHEDULED_TASK: Load scheduler "fdi1" with entities [LocalPlayer, LocalPlayer], work=[200*, 0*]
 18: 0x022E [0x1C] WAIT(60* ticks)
 19: 0x0231 [0x1D] PRINT_EVENT_MESSAGE(message_id=7589*)
    → "What? You f-found my father, you say?"
 20: 0x0234 [0x23] WAIT_FOR_DIALOG_INTERACTION
 21: 0x0235 [0x2B] Landeric (ID: 17105323/0x010501AB) [7590*]:
    → "Exoroche! Where did you run off to this time!?"
 22: 0x023C [0x23] WAIT_FOR_DIALOG_INTERACTION
 23: 0x023D [0x4A] Exoroche (ID: 17105322/0x010501AA) looks at Landeric (ID: 17105323/0x010501AB)
 24: 0x0246 [0x5B] LOAD_EXT_SCHEDULER: Load scheduler "tlk0" with entities [EventEntity, EventEntity], work=75*
 25: 0x0255 [0x1D] PRINT_EVENT_MESSAGE(message_id=7591*)
    → "That's him!"
 26: 0x0258 [0x23] WAIT_FOR_DIALOG_INTERACTION
 27: 0x0259 [0x5B] LOAD_EXT_SCHEDULER: Load scheduler "tlk1" with entities [EventEntity, EventEntity], work=75*
 28: 0x0268 [0x52] END_LOAD_SCHEDULER: End scheduler "5701" with entities [LocalPlayer, LocalPlayer], work=457*
 29: 0x0277 [0x45] LOAD_SCHEDULED_TASK: Load scheduler "5704" with entities [LocalPlayer, LocalPlayer], work=[457*, 0*]
 30: 0x0288 [0x29] REQ_SET_WAIT(priority=0x0F, entity_id=Landeric (ID: 17105323/0x010501AB), tag_num=0x03)
 31: 0x028F [0x4A] Landeric (ID: 17105323/0x010501AB) looks at Exoroche (ID: 17105322/0x010501AA)
 32: 0x0298 [0x4A] LocalPlayer looks at Landeric (ID: 17105323/0x010501AB)
 33: 0x02A1 [0x1C] WAIT(90* ticks)
 34: 0x02A4 [0x52] END_LOAD_SCHEDULER: End scheduler "5704" with entities [LocalPlayer, LocalPlayer], work=457*
 35: 0x02B3 [0x45] LOAD_SCHEDULED_TASK: Load scheduler "5714" with entities [LocalPlayer, LocalPlayer], work=[457*, 0*]
 36: 0x02C4 [0x6E] Landeric (ID: 17105323/0x010501AB) uses emote 25*
 37: 0x02CB [0x99] Wait for Landeric (ID: 17105323/0x010501AB) animation to complete
 38: 0x02D0 [0x2B] Landeric (ID: 17105323/0x010501AB) [7592*]:
    → "Why, you spineless milksop! Get yourself lost, and all you can do is wail and whimper 'til some passerby takes pity on you? Have you no shame!?"
 39: 0x02D7 [0x23] WAIT_FOR_DIALOG_INTERACTION
 40: 0x02D8 [0x5B] LOAD_EXT_SCHEDULER: Load scheduler "tlk0" with entities [EventEntity, EventEntity], work=75*
 41: 0x02E7 [0x1D] PRINT_EVENT_MESSAGE(message_id=7593*)
    → "But F-Father..."
 42: 0x02EA [0x23] WAIT_FOR_DIALOG_INTERACTION
 43: 0x02EB [0x5B] LOAD_EXT_SCHEDULER: Load scheduler "tlk1" with entities [EventEntity, EventEntity], work=75*
 44: 0x02FA [0x6E] Landeric (ID: 17105323/0x010501AB) uses emote 22*
 45: 0x0301 [0x99] Wait for Landeric (ID: 17105323/0x010501AB) animation to complete
 46: 0x0306 [0x2B] Landeric (ID: 17105323/0x010501AB) [7594*]:
    → "Enough of your sniveling! You are Elvaan! You are to conduct yourself with honor and dignity at all times!"
 47: 0x030D [0x23] WAIT_FOR_DIALOG_INTERACTION
 48: 0x030E [0x5B] LOAD_EXT_SCHEDULER: Load scheduler "cry0" with entities [EventEntity, EventEntity], work=76*
 49: 0x031D [0x1D] PRINT_EVENT_MESSAGE(message_id=7595*)
    → "B-but...but F-Father...!"
 50: 0x0320 [0x23] WAIT_FOR_DIALOG_INTERACTION
 51: 0x0321 [0x6E] Landeric (ID: 17105323/0x010501AB) uses emote 34*
 52: 0x0328 [0x99] Wait for Landeric (ID: 17105323/0x010501AB) animation to complete
 53: 0x032D [0x2B] Landeric (ID: 17105323/0x010501AB) [7596*]:
    → "I'll forge you into shape yet! You can stand there alone until you figure out what it means to act like a man!"
 54: 0x0334 [0x23] WAIT_FOR_DIALOG_INTERACTION
 55: 0x0335 [0x1D] PRINT_EVENT_MESSAGE(message_id=7597*)
    → "No, Father! Why must you be so cruel? Don't leave me!"
 56: 0x0338 [0x23] WAIT_FOR_DIALOG_INTERACTION
 57: 0x0339 [0x52] END_LOAD_SCHEDULER: End scheduler "5714" with entities [LocalPlayer, LocalPlayer], work=457*
 58: 0x0348 [0x45] LOAD_SCHEDULED_TASK: Load scheduler "5715" with entities [LocalPlayer, LocalPlayer], work=[457*, 0*]
 59: 0x0359 [0x4A] Landeric (ID: 17105323/0x010501AB) looks at LocalPlayer
 60: 0x0362 [0x2B] Landeric (ID: 17105323/0x010501AB) [7598*]:
    → "My apologies for any trouble imposed upon you by my lily-livered brat of a son."
 61: 0x0369 [0x23] WAIT_FOR_DIALOG_INTERACTION
 62: 0x036A [0x2B] Landeric (ID: 17105323/0x010501AB) [7599*]:
    → "Please accept this in return for your efforts."
 63: 0x0371 [0x23] WAIT_FOR_DIALOG_INTERACTION
 64: 0x0372 [0x66] LOAD_EXT_SCHEDULER_MAIN: Load scheduler "pas0" with entities [Landeric (ID: 17105323/0x010501AB), Landeric (ID: 17105323/0x010501AB)], work=20*
 65: 0x0381 [0x1C] WAIT(90* ticks)
 66: 0x0384 [0x32] ExtData[1]->MainSpeed = 13* * 0.1
 67: 0x0387 [0x1F] MOVE_ENTITY: EventEntity moves to X=72.902*, Z=-38.673*, Y=1.999*
 68: 0x038F [0x1F] MOVE_ENTITY: Update entity position (mode=1)
 69: 0x0391 [0x5B] LOAD_EXT_SCHEDULER: Load scheduler "tlk0" with entities [EventEntity, EventEntity], work=75*
 70: 0x03A0 [0x03] Work_Zone[2] = 16535*
 71: 0x03A5 [0x1D] PRINT_EVENT_MESSAGE(message_id=7600*)
    → "What? But Father... That's my f-favorite $0!"
 72: 0x03A8 [0x23] WAIT_FOR_DIALOG_INTERACTION
 73: 0x03A9 [0x5B] LOAD_EXT_SCHEDULER: Load scheduler "tlk1" with entities [EventEntity, EventEntity], work=75*
 74: 0x03B8 [0x4A] Landeric (ID: 17105323/0x010501AB) looks at Exoroche (ID: 17105322/0x010501AA)
 75: 0x03C1 [0x6E] Landeric (ID: 17105323/0x010501AB) uses emote 25*
 76: 0x03C8 [0x99] Wait for Landeric (ID: 17105323/0x010501AB) animation to complete
 77: 0x03CD [0x2B] Landeric (ID: 17105323/0x010501AB) [7601*]:
    → "Silence! Until you dry those shameful tears, you are no son of mine!"
 78: 0x03D4 [0x23] WAIT_FOR_DIALOG_INTERACTION
 79: 0x03D5 [0x29] REQ_SET_WAIT(priority=0x0F, entity_id=Landeric (ID: 17105323/0x010501AB), tag_num=0x04)
 80: 0x03DC [0x5B] LOAD_EXT_SCHEDULER: Load scheduler "cry0" with entities [EventEntity, EventEntity], work=76*
 81: 0x03EB [0x03] Work_Zone[2] = 16535*
 82: 0x03F0 [0x1D] PRINT_EVENT_MESSAGE(message_id=7602*)
    → "M-my $0...<sniff>... Without it, I c-cannot...<sob>..."
 83: 0x03F3 [0x23] WAIT_FOR_DIALOG_INTERACTION
 84: 0x03F4 [0x45] LOAD_SCHEDULED_TASK: Load scheduler "fdo1" with entities [LocalPlayer, LocalPlayer], work=[200*, 0*]
 85: 0x0405 [0x1C] WAIT(60* ticks)
 86: 0x0408 [0x52] END_LOAD_SCHEDULER: End scheduler "5715" with entities [LocalPlayer, LocalPlayer], work=341*
 87: 0x0417 [0x46] CAMERA_CONTROL: Restore default settings
 88: 0x0419 [0x45] LOAD_SCHEDULED_TASK: Load scheduler "fdi1" with entities [LocalPlayer, LocalPlayer], work=[200*, 0*]
 89: 0x042A [0x20] SET_CLI_EVENT_UC_FLAG: Unlock player control
 90: 0x042C [0x21] END_EVENT
 91: 0x042D [0x00] END_REQSTACK()
```

### Event 160

#### Metadata

| Field        | Value    |
|--------------|----------|
| Entrypoint   | 0x042E   |
| Data Size    | 30 bytes |
| Instructions | 8        |

```
      00 01 02 03 04 05 06 07  08 09 0A 0B 0C 0D 0E 0F
      -- -- -- -- -- -- -- --  -- -- -- -- -- -- -- --
0420:                                            20 01                 .
0430: 5B 00 80 F8 FF FF 7F F8  FF FF 7F 63 72 79 30 03  [..........cry0.
0440: 02 10 2D 80 1D 30 80 23  20 00 21 00              ..-..0.# .!.    
```

#### Opcodes

```
  0: 0x042E [0x20] SET_CLI_EVENT_UC_FLAG: Lock player control
  1: 0x0430 [0x5B] LOAD_EXT_SCHEDULER: Load scheduler "cry0" with entities [EventEntity, EventEntity], work=76*
  2: 0x043F [0x03] Work_Zone[2] = 16535*
  3: 0x0444 [0x1D] PRINT_EVENT_MESSAGE(message_id=7602*)
    → "M-my $0...<sniff>... Without it, I c-cannot...<sob>..."
  4: 0x0447 [0x23] WAIT_FOR_DIALOG_INTERACTION
  5: 0x0448 [0x20] SET_CLI_EVENT_UC_FLAG: Unlock player control
  6: 0x044A [0x21] END_EVENT
  7: 0x044B [0x00] END_REQSTACK()
```

### Event 161

#### Metadata

| Field        | Value     |
|--------------|-----------|
| Entrypoint   | 0x044C    |
| Data Size    | 444 bytes |
| Instructions | 55        |

```
      00 01 02 03 04 05 06 07  08 09 0A 0B 0C 0D 0E 0F
      -- -- -- -- -- -- -- --  -- -- -- -- -- -- -- --
0440:                                      20 01 42 46               .BF
0450: 01 45 02 80 F0 FF FF 7F  F0 FF FF 7F 66 64 6F 31  .E..........fdo1
0460: 03 80 1C 04 80 38 05 80  BA F0 FF FF 7F 06 80 07  .....8..........
0470: 80 08 80 09 80 80 F0 FF  FF 7F 92 01 AA 01 05 01  ................
0480: 80 AA 01 05 01 1E F0 FF  FF 7F 45 0D 80 F0 FF FF  ..........E.....
0490: 7F F0 FF FF 7F 35 37 30  31 03 80 45 02 80 F0 FF  .....5701..E....
04A0: FF 7F F0 FF FF 7F 66 64  69 31 03 80 1C 04 80 5B  ......fdi1.....[
04B0: 1B 80 F8 FF FF 7F F8 FF  FF 7F 74 6C 6B 30 1D 31  ..........tlk0.1
04C0: 80 23 5B 1B 80 F8 FF FF  7F F8 FF FF 7F 74 6C 6B  .#[..........tlk
04D0: 31 7B AA 01 05 01 1C 32  80 32 2A 80 1F 00 33 80  1{.....2.2*...3.
04E0: 34 80 08 80 1F 01 4A F0  FF FF 7F AA 01 05 01 52  4.....J........R
04F0: 0D 80 F0 FF FF 7F F0 FF  FF 7F 35 37 30 31 45 02  ..........5701E.
0500: 80 F0 FF FF 7F F0 FF FF  7F 6F 76 6C 31 03 80 45  .........ovl1..E
0510: 0D 80 F0 FF FF 7F F0 FF  FF 7F 35 37 31 36 03 80  ..........5716..
0520: 5B 1B 80 F8 FF FF 7F F8  FF FF 7F 74 6C 6B 30 03  [..........tlk0.
0530: 02 10 2D 80 1D 35 80 23  5B 1B 80 F8 FF FF 7F F8  ..-..5.#[.......
0540: FF FF 7F 74 6C 6B 31 1E  F0 FF FF 7F 5B 1B 80 F8  ...tlk1.....[...
0550: FF FF 7F F8 FF FF 7F 74  6C 6B 30 1D 36 80 23 5B  .......tlk0.6.#[
0560: 1B 80 F8 FF FF 7F F8 FF  FF 7F 74 6C 6B 31 52 0D  ..........tlk1R.
0570: 80 F0 FF FF 7F F0 FF FF  7F 35 37 31 36 45 02 80  .........5716E..
0580: F0 FF FF 7F F0 FF FF 7F  6F 76 6C 31 03 80 45 0D  ........ovl1..E.
0590: 80 F0 FF FF 7F F0 FF FF  7F 35 37 30 31 03 80 32  .........5701..2
05A0: 2A 80 1F 00 37 80 38 80  08 80 1F 01 5B 1B 80 F8  *...7.8.....[...
05B0: FF FF 7F F8 FF FF 7F 74  6C 6B 30 1D 39 80 23 5B  .......tlk0.9.#[
05C0: 1B 80 F8 FF FF 7F F8 FF  FF 7F 74 6C 6B 31 45 02  ..........tlk1E.
05D0: 80 F0 FF FF 7F F0 FF FF  7F 66 64 6F 31 03 80 1C  .........fdo1...
05E0: 04 80 52 15 80 F0 FF FF  7F F0 FF FF 7F 35 37 30  ..R..........570
05F0: 31 46 00 45 02 80 F0 FF  FF 7F F0 FF FF 7F 66 64  1F.E..........fd
0600: 69 31 03 80 20 00 21 00                           i1.. .!.        
```

#### Opcodes

```
  0: 0x044C [0x20] SET_CLI_EVENT_UC_FLAG: Lock player control
  1: 0x044E [0x42] SET_CLI_EVENT_CANCEL_DATA()
  2: 0x044F [0x46] CAMERA_CONTROL: Disable user control
  3: 0x0451 [0x45] LOAD_SCHEDULED_TASK: Load scheduler "fdo1" with entities [LocalPlayer, LocalPlayer], work=[200*, 0*]
  4: 0x0462 [0x1C] WAIT(60* ticks)
  5: 0x0465 [0x38] SET_CLIENT_EVENT_MODE(mode=19*)
  6: 0x0468 [0xBA] SET_ENTITY_POSITION(entity_id=LocalPlayer, pos_x=73.777*, pos_z=-39.413*, pos_y=1.999*, direction=209.2°*)
  7: 0x0475 [0x80] LOAD_WAIT(entity=LocalPlayer)
  8: 0x047A [0x92] Exoroche (ID: 17105322/0x010501AA)->Render.Flags3 ^= 0x01
  9: 0x0480 [0x80] LOAD_WAIT(entity=Exoroche (ID: 17105322/0x010501AA))
 10: 0x0485 [0x1E] EventEntity looks at LocalPlayer and starts talking
 11: 0x048A [0x45] LOAD_SCHEDULED_TASK: Load scheduler "5701" with entities [LocalPlayer, LocalPlayer], work=[457*, 0*]
 12: 0x049B [0x45] LOAD_SCHEDULED_TASK: Load scheduler "fdi1" with entities [LocalPlayer, LocalPlayer], work=[200*, 0*]
 13: 0x04AC [0x1C] WAIT(60* ticks)
 14: 0x04AF [0x5B] LOAD_EXT_SCHEDULER: Load scheduler "tlk0" with entities [EventEntity, EventEntity], work=75*
 15: 0x04BE [0x1D] PRINT_EVENT_MESSAGE(message_id=7603*)
    → "C-could it be? You've come to return this to me?"
 16: 0x04C1 [0x23] WAIT_FOR_DIALOG_INTERACTION
 17: 0x04C2 [0x5B] LOAD_EXT_SCHEDULER: Load scheduler "tlk1" with entities [EventEntity, EventEntity], work=75*
 18: 0x04D1 [0x7B] Exoroche (ID: 17105322/0x010501AA) stops talking
 19: 0x04D6 [0x1C] WAIT(120* ticks)
 20: 0x04D9 [0x32] ExtData[1]->MainSpeed = 13* * 0.1
 21: 0x04DC [0x1F] MOVE_ENTITY: EventEntity moves to X=71.848*, Z=-39.330*, Y=1.999*
 22: 0x04E4 [0x1F] MOVE_ENTITY: Update entity position (mode=1)
 23: 0x04E6 [0x4A] LocalPlayer looks at Exoroche (ID: 17105322/0x010501AA)
 24: 0x04EF [0x52] END_LOAD_SCHEDULER: End scheduler "5701" with entities [LocalPlayer, LocalPlayer], work=457*
 25: 0x04FE [0x45] LOAD_SCHEDULED_TASK: Load scheduler "ovl1" with entities [LocalPlayer, LocalPlayer], work=[200*, 0*]
 26: 0x050F [0x45] LOAD_SCHEDULED_TASK: Load scheduler "5716" with entities [LocalPlayer, LocalPlayer], work=[457*, 0*]
 27: 0x0520 [0x5B] LOAD_EXT_SCHEDULER: Load scheduler "tlk0" with entities [EventEntity, EventEntity], work=75*
 28: 0x052F [0x03] Work_Zone[2] = 16535*
 29: 0x0534 [0x1D] PRINT_EVENT_MESSAGE(message_id=7604*)
    → "Oh, thank you ever so much! This is the $0 that I shall wield to protect my family and Kingdom when I become a great, strong knight!"
 30: 0x0537 [0x23] WAIT_FOR_DIALOG_INTERACTION
 31: 0x0538 [0x5B] LOAD_EXT_SCHEDULER: Load scheduler "tlk1" with entities [EventEntity, EventEntity], work=75*
 32: 0x0547 [0x1E] EventEntity looks at LocalPlayer and starts talking
 33: 0x054C [0x5B] LOAD_EXT_SCHEDULER: Load scheduler "tlk0" with entities [EventEntity, EventEntity], work=75*
 34: 0x055B [0x1D] PRINT_EVENT_MESSAGE(message_id=7605*)
    → "And yet...I cannot accept it from you."
 35: 0x055E [0x23] WAIT_FOR_DIALOG_INTERACTION
 36: 0x055F [0x5B] LOAD_EXT_SCHEDULER: Load scheduler "tlk1" with entities [EventEntity, EventEntity], work=75*
 37: 0x056E [0x52] END_LOAD_SCHEDULER: End scheduler "5716" with entities [LocalPlayer, LocalPlayer], work=457*
 38: 0x057D [0x45] LOAD_SCHEDULED_TASK: Load scheduler "ovl1" with entities [LocalPlayer, LocalPlayer], work=[200*, 0*]
 39: 0x058E [0x45] LOAD_SCHEDULED_TASK: Load scheduler "5701" with entities [LocalPlayer, LocalPlayer], work=[457*, 0*]
 40: 0x059F [0x32] ExtData[1]->MainSpeed = 13* * 0.1
 41: 0x05A2 [0x1F] MOVE_ENTITY: EventEntity moves to X=72.631*, Z=-39.460*, Y=1.999*
 42: 0x05AA [0x1F] MOVE_ENTITY: Update entity position (mode=1)
 43: 0x05AC [0x5B] LOAD_EXT_SCHEDULER: Load scheduler "tlk0" with entities [EventEntity, EventEntity], work=75*
 44: 0x05BB [0x1D] PRINT_EVENT_MESSAGE(message_id=7606*)
    → "Father has forbidden me from bearing arms save for as part of my weapons training. I can receive this sword only when he deems me...<sniff>...worthy of it once more."
 45: 0x05BE [0x23] WAIT_FOR_DIALOG_INTERACTION
 46: 0x05BF [0x5B] LOAD_EXT_SCHEDULER: Load scheduler "tlk1" with entities [EventEntity, EventEntity], work=75*
 47: 0x05CE [0x45] LOAD_SCHEDULED_TASK: Load scheduler "fdo1" with entities [LocalPlayer, LocalPlayer], work=[200*, 0*]
 48: 0x05DF [0x1C] WAIT(60* ticks)
 49: 0x05E2 [0x52] END_LOAD_SCHEDULER: End scheduler "5701" with entities [LocalPlayer, LocalPlayer], work=341*
 50: 0x05F1 [0x46] CAMERA_CONTROL: Restore default settings
 51: 0x05F3 [0x45] LOAD_SCHEDULED_TASK: Load scheduler "fdi1" with entities [LocalPlayer, LocalPlayer], work=[200*, 0*]
 52: 0x0604 [0x20] SET_CLI_EVENT_UC_FLAG: Unlock player control
 53: 0x0606 [0x21] END_EVENT
 54: 0x0607 [0x00] END_REQSTACK()
```

### Event 162

#### Metadata

| Field        | Value    |
|--------------|----------|
| Entrypoint   | 0x0608   |
| Data Size    | 20 bytes |
| Instructions | 8        |

```
      00 01 02 03 04 05 06 07  08 09 0A 0B 0C 0D 0E 0F
      -- -- -- -- -- -- -- --  -- -- -- -- -- -- -- --
0600:                          20 01 1E F0 FF FF 7F 03           .......
0610: 02 10 2D 80 1D 3A 80 23  20 00 21 00              ..-..:.# .!.    
```

#### Opcodes

```
  0: 0x0608 [0x20] SET_CLI_EVENT_UC_FLAG: Lock player control
  1: 0x060A [0x1E] EventEntity looks at LocalPlayer and starts talking
  2: 0x060F [0x03] Work_Zone[2] = 16535*
  3: 0x0614 [0x1D] PRINT_EVENT_MESSAGE(message_id=7607*)
    → "<Sniff>... You are too kind, [milord/milady]. But I can accept that $0 when Father himself returns it to me, and not before."
  4: 0x0617 [0x23] WAIT_FOR_DIALOG_INTERACTION
  5: 0x0618 [0x20] SET_CLI_EVENT_UC_FLAG: Unlock player control
  6: 0x061A [0x21] END_EVENT
  7: 0x061B [0x00] END_REQSTACK()
```

### Event 163

#### Metadata

| Field        | Value      |
|--------------|------------|
| Entrypoint   | 0x061C     |
| Data Size    | 1087 bytes |
| Instructions | 164        |

```
      00 01 02 03 04 05 06 07  08 09 0A 0B 0C 0D 0E 0F
      -- -- -- -- -- -- -- --  -- -- -- -- -- -- -- --
0610:                                      20 01 42 46               .BF
0620: 01 45 02 80 F0 FF FF 7F  F0 FF FF 7F 66 64 6F 31  .E..........fdo1
0630: 03 80 1C 04 80 38 05 80  BA F0 FF FF 7F 06 80 07  .....8..........
0640: 80 08 80 09 80 80 F0 FF  FF 7F 92 01 AA 01 05 01  ................
0650: 80 AA 01 05 01 2F 00 AB  01 05 01 4E 00 AB 01 05  ...../.....N....
0660: 01 BA AB 01 05 01 16 80  17 80 08 80 18 80 80 AB  ................
0670: 01 05 01 92 01 AB 01 05  01 1E F0 FF FF 7F 5B 00  ..............[.
0680: 80 F8 FF FF 7F F8 FF FF  7F 63 72 79 30 45 0D 80  .........cry0E..
0690: F0 FF FF 7F F0 FF FF 7F  35 37 30 31 03 80 45 02  ........5701..E.
06A0: 80 F0 FF FF 7F F0 FF FF  7F 66 64 69 31 03 80 1C  .........fdi1...
06B0: 04 80 03 02 10 2D 80 1D  30 80 23 2B AB 01 05 01  .....-..0.#+....
06C0: 3B 80 23 52 0D 80 F0 FF  FF 7F F0 FF FF 7F 35 37  ;.#R..........57
06D0: 30 31 45 0D 80 F0 FF FF  7F F0 FF FF 7F 35 37 30  01E..........570
06E0: 34 03 80 2F 00 AE 01 05  01 4E 00 AE 01 05 01 BA  4../.....N......
06F0: AE 01 05 01 3C 80 3D 80  08 80 3E 80 80 AE 01 05  ....<.=...>.....
0700: 01 92 01 AE 01 05 01 29  0F AB 01 05 01 05 4A AB  .......)......J.
0710: 01 05 01 AA 01 05 01 4A  F0 FF FF 7F AB 01 05 01  .......J........
0720: 1E AB 01 05 01 5B 1B 80  F8 FF FF 7F F8 FF FF 7F  .....[..........
0730: 74 6C 6B 30 1D 3F 80 23  5B 1B 80 F8 FF FF 7F F8  tlk0.?.#[.......
0740: FF FF 7F 74 6C 6B 31 29  0F AB 01 05 01 06 2B AB  ...tlk1)......+.
0750: 01 05 01 40 80 23 4A F0  FF FF 7F AA 01 05 01 2B  ...@.#J........+
0760: AB 01 05 01 41 80 23 66  29 80 AB 01 05 01 AB 01  ....A.#f).......
0770: 05 01 70 61 73 30 1C 42  80 5B 1B 80 F8 FF FF 7F  ..pas0.B.[......
0780: F8 FF FF 7F 74 6C 6B 30  03 02 10 2D 80 1D 43 80  ....tlk0...-..C.
0790: 23 1D 44 80 23 5B 1B 80  F8 FF FF 7F F8 FF FF 7F  #.D.#[..........
07A0: 74 6C 6B 31 79 00 AB 01  05 01 F0 FF FF 7F 2B AB  tlk1y.........+.
07B0: 01 05 01 45 80 23 79 00  AB 01 05 01 AA 01 05 01  ...E.#y.........
07C0: 4A F0 FF FF 7F AA 01 05  01 1E F0 FF FF 7F 5B 1B  J.............[.
07D0: 80 F8 FF FF 7F F8 FF FF  7F 74 6C 6B 30 1D 46 80  .........tlk0.F.
07E0: 23 5B 1B 80 F8 FF FF 7F  F8 FF FF 7F 74 6C 6B 31  #[..........tlk1
07F0: 6E F0 FF FF 7F 47 80 99  F0 FF FF 7F 1C 32 80 6E  n....G.......2.n
0800: F0 FF FF 7F 48 80 99 F0  FF FF 7F 1C 32 80 5B 1B  ....H.......2.[.
0810: 80 F8 FF FF 7F F8 FF FF  7F 74 6C 6B 30 1D 49 80  .........tlk0.I.
0820: 23 5B 1B 80 F8 FF FF 7F  F8 FF FF 7F 74 6C 6B 31  #[..........tlk1
0830: 6E AB 01 05 01 48 80 99  AB 01 05 01 1C 32 80 79  n....H.......2.y
0840: 00 AB 01 05 01 AA 01 05  01 6E AB 01 05 01 4A 80  .........n....J.
0850: 99 AB 01 05 01 2B AB 01  05 01 4B 80 23 1E AB 01  .....+....K.#...
0860: 05 01 1D 4C 80 23 6E AB  01 05 01 2A 80 99 AB 01  ...L.#n....*....
0870: 05 01 2B AB 01 05 01 4D  80 23 29 0F AE 01 05 01  ..+....M.#).....
0880: 0C 4A AE 01 05 01 AA 01  05 01 03 02 10 2D 80 2B  .J...........-.+
0890: AE 01 05 01 4E 80 23 52  0D 80 F0 FF FF 7F F0 FF  ....N.#R........
08A0: FF 7F 35 37 30 34 1E AE  01 05 01 4A F0 FF FF 7F  ..5704.....J....
08B0: AE 01 05 01 45 0D 80 F0  FF FF 7F F0 FF FF 7F 35  ....E..........5
08C0: 37 30 35 03 80 4A AB 01  05 01 AE 01 05 01 2B AE  705..J........+.
08D0: 01 05 01 4F 80 23 2B AE  01 05 01 50 80 23 27 0F  ...O.#+....P.#'.
08E0: AE 01 05 01 0B 1C 04 80  1E AB 01 05 01 6F 70 1C  .............op.
08F0: 04 80 5B 00 80 F8 FF FF  7F F8 FF FF 7F 63 72 79  ..[..........cry
0900: 30 4A AB 01 05 01 AA 01  05 01 79 00 AB 01 05 01  0J........y.....
0910: AA 01 05 01 4A F0 FF FF  7F AA 01 05 01 1C 04 80  ....J...........
0920: 1D 51 80 23 29 0F AB 01  05 01 07 66 52 80 AB 01  .Q.#)......fR...
0930: 05 01 AB 01 05 01 73 68  61 30 1C 53 80 2B AB 01  ......sha0.S.+..
0940: 05 01 54 80 23 2B AB 01  05 01 55 80 23 5B 00 80  ..T.#+....U.#[..
0950: F8 FF FF 7F F8 FF FF 7F  63 72 79 31 2B AB 01 05  ........cry1+...
0960: 01 56 80 23 2B AB 01 05  01 57 80 23 5B 1B 80 F8  .V.#+....W.#[...
0970: FF FF 7F F8 FF FF 7F 74  6C 6B 30 1D 58 80 23 5B  .......tlk0.X.#[
0980: 1B 80 F8 FF FF 7F F8 FF  FF 7F 74 6C 6B 31 66 52  ..........tlk1fR
0990: 80 AB 01 05 01 AB 01 05  01 73 68 61 31 1C 32 80  .........sha1.2.
09A0: 6E AB 01 05 01 48 80 99  AB 01 05 01 1C 32 80 4A  n....H.......2.J
09B0: AB 01 05 01 F0 FF FF 7F  66 29 80 AB 01 05 01 AB  ........f)......
09C0: 01 05 01 74 6C 6B 30 4A  F0 FF FF 7F AB 01 05 01  ...tlk0J........
09D0: 2B AB 01 05 01 59 80 23  1E F0 FF FF 7F 03 02 10  +....Y.#........
09E0: 2D 80 2B AB 01 05 01 5A  80 23 66 29 80 AB 01 05  -.+....Z.#f)....
09F0: 01 AB 01 05 01 70 61 73  30 1C 42 80 6E AB 01 05  .....pas0.B.n...
0A00: 01 4A 80 99 AB 01 05 01  2B AB 01 05 01 5B 80 23  .J......+....[.#
0A10: 6E F0 FF FF 7F 48 80 99  F0 FF FF 7F 1C 1D 80 45  n....H.........E
0A20: 02 80 F0 FF FF 7F F0 FF  FF 7F 66 64 6F 31 03 80  ..........fdo1..
0A30: 1C 04 80 46 00 45 02 80  F0 FF FF 7F F0 FF FF 7F  ...F.E..........
0A40: 66 64 69 31 03 80 20 00  45 5C 80 F8 FF FF 7F F8  fdi1.. .E\......
0A50: FF FF 7F 71 73 74 63 03  80 21 00                 ...qstc..!.     
```

#### Opcodes

```
  0: 0x061C [0x20] SET_CLI_EVENT_UC_FLAG: Lock player control
  1: 0x061E [0x42] SET_CLI_EVENT_CANCEL_DATA()
  2: 0x061F [0x46] CAMERA_CONTROL: Disable user control
  3: 0x0621 [0x45] LOAD_SCHEDULED_TASK: Load scheduler "fdo1" with entities [LocalPlayer, LocalPlayer], work=[200*, 0*]
  4: 0x0632 [0x1C] WAIT(60* ticks)
  5: 0x0635 [0x38] SET_CLIENT_EVENT_MODE(mode=19*)
  6: 0x0638 [0xBA] SET_ENTITY_POSITION(entity_id=LocalPlayer, pos_x=73.777*, pos_z=-39.413*, pos_y=1.999*, direction=209.2°*)
  7: 0x0645 [0x80] LOAD_WAIT(entity=LocalPlayer)
  8: 0x064A [0x92] Exoroche (ID: 17105322/0x010501AA)->Render.Flags3 ^= 0x01
  9: 0x0650 [0x80] LOAD_WAIT(entity=Exoroche (ID: 17105322/0x010501AA))
 10: 0x0655 [0x2F] Landeric (ID: 17105323/0x010501AB)->Render.Flags0 &= ~0x80000 // Bit 19
 11: 0x065B [0x4E] SET_ENTITY_HIDE_FLAG: Show Landeric (ID: 17105323/0x010501AB)
 12: 0x0661 [0xBA] SET_ENTITY_POSITION(entity_id=Landeric (ID: 17105323/0x010501AB), pos_x=80.011*, pos_z=-40.043*, pos_y=1.999*, direction=217.2°*)
 13: 0x066E [0x80] LOAD_WAIT(entity=Landeric (ID: 17105323/0x010501AB))
 14: 0x0673 [0x92] Landeric (ID: 17105323/0x010501AB)->Render.Flags3 ^= 0x01
 15: 0x0679 [0x1E] EventEntity looks at LocalPlayer and starts talking
 16: 0x067E [0x5B] LOAD_EXT_SCHEDULER: Load scheduler "cry0" with entities [EventEntity, EventEntity], work=76*
 17: 0x068D [0x45] LOAD_SCHEDULED_TASK: Load scheduler "5701" with entities [LocalPlayer, LocalPlayer], work=[457*, 0*]
 18: 0x069E [0x45] LOAD_SCHEDULED_TASK: Load scheduler "fdi1" with entities [LocalPlayer, LocalPlayer], work=[200*, 0*]
 19: 0x06AF [0x1C] WAIT(60* ticks)
 20: 0x06B2 [0x03] Work_Zone[2] = 16535*
 21: 0x06B7 [0x1D] PRINT_EVENT_MESSAGE(message_id=7602*)
    → "M-my $0...<sniff>... Without it, I c-cannot...<sob>..."
 22: 0x06BA [0x23] WAIT_FOR_DIALOG_INTERACTION
 23: 0x06BB [0x2B] Landeric (ID: 17105323/0x010501AB) [7609*]:
    → "Exoroche!"
 24: 0x06C2 [0x23] WAIT_FOR_DIALOG_INTERACTION
 25: 0x06C3 [0x52] END_LOAD_SCHEDULER: End scheduler "5701" with entities [LocalPlayer, LocalPlayer], work=457*
 26: 0x06D2 [0x45] LOAD_SCHEDULED_TASK: Load scheduler "5704" with entities [LocalPlayer, LocalPlayer], work=[457*, 0*]
 27: 0x06E3 [0x2F] Antreneau (ID: 17105326/0x010501AE)->Render.Flags0 &= ~0x80000 // Bit 19
 28: 0x06E9 [0x4E] SET_ENTITY_HIDE_FLAG: Show Antreneau (ID: 17105326/0x010501AE)
 29: 0x06EF [0xBA] SET_ENTITY_POSITION(entity_id=Antreneau (ID: 17105326/0x010501AE), pos_x=71.992*, pos_z=-32.141*, pos_y=1.999*, direction=56.2°*)
 30: 0x06FC [0x80] LOAD_WAIT(entity=Antreneau (ID: 17105326/0x010501AE))
 31: 0x0701 [0x92] Antreneau (ID: 17105326/0x010501AE)->Render.Flags3 ^= 0x01
 32: 0x0707 [0x29] REQ_SET_WAIT(priority=0x0F, entity_id=Landeric (ID: 17105323/0x010501AB), tag_num=0x05)
 33: 0x070E [0x4A] Landeric (ID: 17105323/0x010501AB) looks at Exoroche (ID: 17105322/0x010501AA)
 34: 0x0717 [0x4A] LocalPlayer looks at Landeric (ID: 17105323/0x010501AB)
 35: 0x0720 [0x1E] EventEntity looks at Landeric (ID: 17105323/0x010501AB) and starts talking
 36: 0x0725 [0x5B] LOAD_EXT_SCHEDULER: Load scheduler "tlk0" with entities [EventEntity, EventEntity], work=75*
 37: 0x0734 [0x1D] PRINT_EVENT_MESSAGE(message_id=7610*)
    → "Father..."
 38: 0x0737 [0x23] WAIT_FOR_DIALOG_INTERACTION
 39: 0x0738 [0x5B] LOAD_EXT_SCHEDULER: Load scheduler "tlk1" with entities [EventEntity, EventEntity], work=75*
 40: 0x0747 [0x29] REQ_SET_WAIT(priority=0x0F, entity_id=Landeric (ID: 17105323/0x010501AB), tag_num=0x06)
 41: 0x074E [0x2B] Landeric (ID: 17105323/0x010501AB) [7611*]:
    → "She's a beauty, is she not? My hard-won catch of the day!"
 42: 0x0755 [0x23] WAIT_FOR_DIALOG_INTERACTION
 43: 0x0756 [0x4A] LocalPlayer looks at Exoroche (ID: 17105322/0x010501AA)
 44: 0x075F [0x2B] Landeric (ID: 17105323/0x010501AB) [7612*]:
    → "And I believe this is yours as well."
 45: 0x0766 [0x23] WAIT_FOR_DIALOG_INTERACTION
 46: 0x0767 [0x66] LOAD_EXT_SCHEDULER_MAIN: Load scheduler "pas0" with entities [Landeric (ID: 17105323/0x010501AB), Landeric (ID: 17105323/0x010501AB)], work=20*
 47: 0x0776 [0x1C] WAIT(240* ticks)
 48: 0x0779 [0x5B] LOAD_EXT_SCHEDULER: Load scheduler "tlk0" with entities [EventEntity, EventEntity], work=75*
 49: 0x0788 [0x03] Work_Zone[2] = 16535*
 50: 0x078D [0x1D] PRINT_EVENT_MESSAGE(message_id=7613*)
    → "C-could it be!? My $0!"
 51: 0x0790 [0x23] WAIT_FOR_DIALOG_INTERACTION
 52: 0x0791 [0x1D] PRINT_EVENT_MESSAGE(message_id=7614*)
    → "Thank you, Father!"
 53: 0x0794 [0x23] WAIT_FOR_DIALOG_INTERACTION
 54: 0x0795 [0x5B] LOAD_EXT_SCHEDULER: Load scheduler "tlk1" with entities [EventEntity, EventEntity], work=75*
 55: 0x07A4 [0x79] Landeric (ID: 17105323/0x010501AB) looks at LocalPlayer (Basic look)
 56: 0x07AE [0x2B] Landeric (ID: 17105323/0x010501AB) [7615*]:
    → "Bah! Were it my decision, you'd not have seen it again until you were a man grown. You have the generosity of this stranger here to thank."
 57: 0x07B5 [0x23] WAIT_FOR_DIALOG_INTERACTION
 58: 0x07B6 [0x79] Landeric (ID: 17105323/0x010501AB) looks at Exoroche (ID: 17105322/0x010501AA) (Basic look)
 59: 0x07C0 [0x4A] LocalPlayer looks at Exoroche (ID: 17105322/0x010501AA)
 60: 0x07C9 [0x1E] EventEntity looks at LocalPlayer and starts talking
 61: 0x07CE [0x5B] LOAD_EXT_SCHEDULER: Load scheduler "tlk0" with entities [EventEntity, EventEntity], work=75*
 62: 0x07DD [0x1D] PRINT_EVENT_MESSAGE(message_id=7616*)
    → "Oh, you truly are too kind! [Milord/Milady], ah..."
 63: 0x07E0 [0x23] WAIT_FOR_DIALOG_INTERACTION
 64: 0x07E1 [0x5B] LOAD_EXT_SCHEDULER: Load scheduler "tlk1" with entities [EventEntity, EventEntity], work=75*
 65: 0x07F0 [0x6E] LocalPlayer uses emote 10*
 66: 0x07F7 [0x99] Wait for LocalPlayer animation to complete
 67: 0x07FC [0x1C] WAIT(120* ticks)
 68: 0x07FF [0x6E] LocalPlayer uses emote 7*
 69: 0x0806 [0x99] Wait for LocalPlayer animation to complete
 70: 0x080B [0x1C] WAIT(120* ticks)
 71: 0x080E [0x5B] LOAD_EXT_SCHEDULER: Load scheduler "tlk0" with entities [EventEntity, EventEntity], work=75*
 72: 0x081D [0x1D] PRINT_EVENT_MESSAGE(message_id=7617*)
    → "Thank you, [Milord/Milady] <Player>!"
 73: 0x0820 [0x23] WAIT_FOR_DIALOG_INTERACTION
 74: 0x0821 [0x5B] LOAD_EXT_SCHEDULER: Load scheduler "tlk1" with entities [EventEntity, EventEntity], work=75*
 75: 0x0830 [0x6E] Landeric (ID: 17105323/0x010501AB) uses emote 7*
 76: 0x0837 [0x99] Wait for Landeric (ID: 17105323/0x010501AB) animation to complete
 77: 0x083C [0x1C] WAIT(120* ticks)
 78: 0x083F [0x79] Landeric (ID: 17105323/0x010501AB) looks at Exoroche (ID: 17105322/0x010501AA) (Basic look)
 79: 0x0849 [0x6E] Landeric (ID: 17105323/0x010501AB) uses emote 36*
 80: 0x0850 [0x99] Wait for Landeric (ID: 17105323/0x010501AB) animation to complete
 81: 0x0855 [0x2B] Landeric (ID: 17105323/0x010501AB) [7618*]:
    → "Well, now that you have a blade again, I suppose I must teach you to swing it without lopping off your own extremities."
 82: 0x085C [0x23] WAIT_FOR_DIALOG_INTERACTION
 83: 0x085D [0x1E] EventEntity looks at Landeric (ID: 17105323/0x010501AB) and starts talking
 84: 0x0862 [0x1D] PRINT_EVENT_MESSAGE(message_id=7619*)
    → "Truly? On my honor, Father, I shan't let you down!"
 85: 0x0865 [0x23] WAIT_FOR_DIALOG_INTERACTION
 86: 0x0866 [0x6E] Landeric (ID: 17105323/0x010501AB) uses emote 13*
 87: 0x086D [0x99] Wait for Landeric (ID: 17105323/0x010501AB) animation to complete
 88: 0x0872 [0x2B] Landeric (ID: 17105323/0x010501AB) [7620*]:
    → "Oho! There's a spirited reply. I just might make a knight of you yet!"
 89: 0x0879 [0x23] WAIT_FOR_DIALOG_INTERACTION
 90: 0x087A [0x29] REQ_SET_WAIT(priority=0x0F, entity_id=Antreneau (ID: 17105326/0x010501AE), tag_num=0x0C)
 91: 0x0881 [0x4A] Antreneau (ID: 17105326/0x010501AE) looks at Exoroche (ID: 17105322/0x010501AA)
 92: 0x088A [0x03] Work_Zone[2] = 16535*
 93: 0x088F [0x2B] Antreneau (ID: 17105326/0x010501AE) [7621*]:
    → "Hail, Exoroche! What a charming little $0 you have there. A fitting toy for a child such as yourself, methinks."
 94: 0x0896 [0x23] WAIT_FOR_DIALOG_INTERACTION
 95: 0x0897 [0x52] END_LOAD_SCHEDULER: End scheduler "5704" with entities [LocalPlayer, LocalPlayer], work=457*
 96: 0x08A6 [0x1E] EventEntity looks at Antreneau (ID: 17105326/0x010501AE) and starts talking
 97: 0x08AB [0x4A] LocalPlayer looks at Antreneau (ID: 17105326/0x010501AE)
 98: 0x08B4 [0x45] LOAD_SCHEDULED_TASK: Load scheduler "5705" with entities [LocalPlayer, LocalPlayer], work=[457*, 0*]
 99: 0x08C5 [0x4A] Landeric (ID: 17105323/0x010501AB) looks at Antreneau (ID: 17105326/0x010501AE)
100: 0x08CE [0x2B] Antreneau (ID: 17105326/0x010501AE) [7622*]:
    → "Me, I've already received a xiphos from my father. A true knight's weapon, you see."
101: 0x08D5 [0x23] WAIT_FOR_DIALOG_INTERACTION
102: 0x08D6 [0x2B] Antreneau (ID: 17105326/0x010501AE) [7623*]:
    → "Perhaps we can spar sometime. Should you ever feel the need for a proper bruising, that is! Hahaha!"
103: 0x08DD [0x23] WAIT_FOR_DIALOG_INTERACTION
104: 0x08DE [0x27] REQ_SET(priority=0x0F, entity_id=Antreneau (ID: 17105326/0x010501AE), tag_num=0x0B)
105: 0x08E5 [0x1C] WAIT(60* ticks)
106: 0x08E8 [0x1E] EventEntity looks at Landeric (ID: 17105323/0x010501AB) and starts talking
107: 0x08ED [0x6F] WAIT_FRAME_DELAY: Yield until WaitTime reaches zero
108: 0x08EE [0x70] WAIT_ENTITY_RENDER_FLAG: Wait while EventEntity->Render.Flags3 bit 2 is set (cancel turn if not)
109: 0x08EF [0x1C] WAIT(60* ticks)
110: 0x08F2 [0x5B] LOAD_EXT_SCHEDULER: Load scheduler "cry0" with entities [EventEntity, EventEntity], work=76*
111: 0x0901 [0x4A] Landeric (ID: 17105323/0x010501AB) looks at Exoroche (ID: 17105322/0x010501AA)
112: 0x090A [0x79] Landeric (ID: 17105323/0x010501AB) looks at Exoroche (ID: 17105322/0x010501AA) (Basic look)
113: 0x0914 [0x4A] LocalPlayer looks at Exoroche (ID: 17105322/0x010501AA)
114: 0x091D [0x1C] WAIT(60* ticks)
115: 0x0920 [0x1D] PRINT_EVENT_MESSAGE(message_id=7624*)
    → "<Sniff>... F-Father..."
116: 0x0923 [0x23] WAIT_FOR_DIALOG_INTERACTION
117: 0x0924 [0x29] REQ_SET_WAIT(priority=0x0F, entity_id=Landeric (ID: 17105323/0x010501AB), tag_num=0x07)
118: 0x092B [0x66] LOAD_EXT_SCHEDULER_MAIN: Load scheduler "sha0" with entities [Landeric (ID: 17105323/0x010501AB), Landeric (ID: 17105323/0x010501AB)], work=29*
119: 0x093A [0x1C] WAIT(150* ticks)
120: 0x093D [0x2B] Landeric (ID: 17105323/0x010501AB) [7625*]:
    → "Hear me well, Exoroche."
121: 0x0944 [0x23] WAIT_FOR_DIALOG_INTERACTION
122: 0x0945 [0x2B] Landeric (ID: 17105323/0x010501AB) [7626*]:
    → "Let others say as they will."
123: 0x094C [0x23] WAIT_FOR_DIALOG_INTERACTION
124: 0x094D [0x5B] LOAD_EXT_SCHEDULER: Load scheduler "cry1" with entities [EventEntity, EventEntity], work=76*
125: 0x095C [0x2B] Landeric (ID: 17105323/0x010501AB) [7627*]:
    → "In the end, 'tis not the mightiest sword, nor even the savviest fencer who shall win the day. It is the one with honor and justice on his side."
126: 0x0963 [0x23] WAIT_FOR_DIALOG_INTERACTION
127: 0x0964 [0x2B] Landeric (ID: 17105323/0x010501AB) [7628*]:
    → "Remember this always, discipline yourself in mind and body, and you will grow strong."
128: 0x096B [0x23] WAIT_FOR_DIALOG_INTERACTION
129: 0x096C [0x5B] LOAD_EXT_SCHEDULER: Load scheduler "tlk0" with entities [EventEntity, EventEntity], work=75*
130: 0x097B [0x1D] PRINT_EVENT_MESSAGE(message_id=7629*)
    → "Yes, Father! One day, I shall be the strongest, bravest knight in the Kingdom! I will make you proud!"
131: 0x097E [0x23] WAIT_FOR_DIALOG_INTERACTION
132: 0x097F [0x5B] LOAD_EXT_SCHEDULER: Load scheduler "tlk1" with entities [EventEntity, EventEntity], work=75*
133: 0x098E [0x66] LOAD_EXT_SCHEDULER_MAIN: Load scheduler "sha1" with entities [Landeric (ID: 17105323/0x010501AB), Landeric (ID: 17105323/0x010501AB)], work=29*
134: 0x099D [0x1C] WAIT(120* ticks)
135: 0x09A0 [0x6E] Landeric (ID: 17105323/0x010501AB) uses emote 7*
136: 0x09A7 [0x99] Wait for Landeric (ID: 17105323/0x010501AB) animation to complete
137: 0x09AC [0x1C] WAIT(120* ticks)
138: 0x09AF [0x4A] Landeric (ID: 17105323/0x010501AB) looks at LocalPlayer
139: 0x09B8 [0x66] LOAD_EXT_SCHEDULER_MAIN: Load scheduler "tlk0" with entities [Landeric (ID: 17105323/0x010501AB), Landeric (ID: 17105323/0x010501AB)], work=20*
140: 0x09C7 [0x4A] LocalPlayer looks at Landeric (ID: 17105323/0x010501AB)
141: 0x09D0 [0x2B] Landeric (ID: 17105323/0x010501AB) [7630*]:
    → "I've not felt such a close bond with my son in quite some time. I am in your debt, <Player>."
142: 0x09D7 [0x23] WAIT_FOR_DIALOG_INTERACTION
143: 0x09D8 [0x1E] EventEntity looks at LocalPlayer and starts talking
144: 0x09DD [0x03] Work_Zone[2] = 16535*
145: 0x09E2 [0x2B] Landeric (ID: 17105323/0x010501AB) [7631*]:
    → "As it seems the lad will have need of his $0 after all, pray accept this instead as a token of my gratitude."
146: 0x09E9 [0x23] WAIT_FOR_DIALOG_INTERACTION
147: 0x09EA [0x66] LOAD_EXT_SCHEDULER_MAIN: Load scheduler "pas0" with entities [Landeric (ID: 17105323/0x010501AB), Landeric (ID: 17105323/0x010501AB)], work=20*
148: 0x09F9 [0x1C] WAIT(240* ticks)
149: 0x09FC [0x6E] Landeric (ID: 17105323/0x010501AB) uses emote 36*
150: 0x0A03 [0x99] Wait for Landeric (ID: 17105323/0x010501AB) animation to complete
151: 0x0A08 [0x2B] Landeric (ID: 17105323/0x010501AB) [7632*]:
    → "The boy may be tender in years, but his heart is true. I shall endeavor to see him raised to be as strong and honorable as yourself."
152: 0x0A0F [0x23] WAIT_FOR_DIALOG_INTERACTION
153: 0x0A10 [0x6E] LocalPlayer uses emote 7*
154: 0x0A17 [0x99] Wait for LocalPlayer animation to complete
155: 0x0A1C [0x1C] WAIT(90* ticks)
156: 0x0A1F [0x45] LOAD_SCHEDULED_TASK: Load scheduler "fdo1" with entities [LocalPlayer, LocalPlayer], work=[200*, 0*]
157: 0x0A30 [0x1C] WAIT(60* ticks)
158: 0x0A33 [0x46] CAMERA_CONTROL: Restore default settings
159: 0x0A35 [0x45] LOAD_SCHEDULED_TASK: Load scheduler "fdi1" with entities [LocalPlayer, LocalPlayer], work=[200*, 0*]
160: 0x0A46 [0x20] SET_CLI_EVENT_UC_FLAG: Unlock player control
161: 0x0A48 [0x45] LOAD_SCHEDULED_TASK: Load scheduler "qstc" with entities [EventEntity, EventEntity], work=[201*, 0*]
162: 0x0A59 [0x21] END_EVENT
163: 0x0A5A [0x00] END_REQSTACK()
```

### Event 164

#### Metadata

| Field        | Value    |
|--------------|----------|
| Entrypoint   | 0x0A5B   |
| Data Size    | 15 bytes |
| Instructions | 7        |

```
      00 01 02 03 04 05 06 07  08 09 0A 0B 0C 0D 0E 0F
      -- -- -- -- -- -- -- --  -- -- -- -- -- -- -- --
0A50:                                   20 01 1E F0 FF              ....
0A60: FF 7F 1D 5D 80 23 20 00  21 00                    ...].# .!.      
```

#### Opcodes

```
  0: 0x0A5B [0x20] SET_CLI_EVENT_UC_FLAG: Lock player control
  1: 0x0A5D [0x1E] EventEntity looks at LocalPlayer and starts talking
  2: 0x0A62 [0x1D] PRINT_EVENT_MESSAGE(message_id=7633*)
    → "I may have neither the strongest arm nor the sharpest blade, but I shall always fight for honor and justice!"
  3: 0x0A65 [0x23] WAIT_FOR_DIALOG_INTERACTION
  4: 0x0A66 [0x20] SET_CLI_EVENT_UC_FLAG: Unlock player control
  5: 0x0A68 [0x21] END_EVENT
  6: 0x0A69 [0x00] END_REQSTACK()
```
