# 17105342 - TGS_080

## Common Data

| Field            | Value                            |
|------------------|----------------------------------|
| Zone             | Southern San d'Oria [S] (ID: 80) |
| Block Size       | 276 bytes                        |
| Total Events     | 2                                |
| References Count | 11                               |

## List of Events

| Event ID              | Entrypoint   |   Size |   Instructions |
|-----------------------|--------------|--------|----------------|
| [65535](#event-65535) | 0x0000       |      1 |              1 |
| [100](#event-100)     | 0x0001       |    204 |             33 |

## DAT References (imed_data)

|   Index | Hex Value   |   Dec Value |
|---------|-------------|-------------|
|       0 | 0x00C8      |         200 |
|       1 | 0x0000      |           0 |
|       2 | 0x003C      |          60 |
|       3 | 0x0009      |           9 |
|       4 | 0x0013      |          19 |
|       5 | 0x2A00      |       10752 |
|       6 | 0x0001      |           1 |
|       7 | 0x0155      |         341 |
|       8 | 0x0384      |         900 |
|       9 | 0x0002      |           2 |
|      10 | 0x0003      |           3 |

## String References

- **10752**: Event selection: [Quit./Pattern 1./Pattern 2./Pattern 3.]

## Events

### Event 65535

#### Metadata

| Field        | Value   |
|--------------|---------|
| Entrypoint   | 0x0000  |
| Data Size    | 1 bytes |
| Instructions | 1       |

```
      00 01 02 03 04 05 06 07  08 09 0A 0B 0C 0D 0E 0F
      -- -- -- -- -- -- -- --  -- -- -- -- -- -- -- --
0000: 00                                                .               
```

#### Opcodes

```
  0: 0x0000 [0x00] END_REQSTACK()
```

### Event 100

#### Metadata

| Field        | Value     |
|--------------|-----------|
| Entrypoint   | 0x0001    |
| Data Size    | 204 bytes |
| Instructions | 33        |

```
      00 01 02 03 04 05 06 07  08 09 0A 0B 0C 0D 0E 0F
      -- -- -- -- -- -- -- --  -- -- -- -- -- -- -- --
0000:    20 01 42 46 01 45 00  80 F0 FF FF 7F F0 FF FF    .BF.E.........
0010: 7F 66 64 6F 31 01 80 1C  02 80 77 03 80 01 80 38  .fdo1.....w....8
0020: 04 80 45 00 80 F0 FF FF  7F F0 FF FF 7F 66 64 69  ..E..........fdi
0030: 31 01 80 1C 02 80 24 05  80 01 80 01 80 25 67 01  1.....$......%g.
0040: 80 01 80 02 00 10 06 80  00 62 00 45 07 80 F0 FF  .........b.E....
0050: FF 7F F0 FF FF 7F 73 61  6E 31 01 80 1C 08 80 01  ......san1......
0060: A0 00 02 00 10 09 80 00  81 00 45 07 80 F0 FF FF  ..........E.....
0070: 7F F0 FF FF 7F 73 61 6E  32 01 80 1C 08 80 01 A0  .....san2.......
0080: 00 02 00 10 0A 80 00 A0  00 45 07 80 F0 FF FF 7F  .........E......
0090: F0 FF FF 7F 73 61 6E 33  01 80 1C 08 80 01 A0 00  ....san3........
00A0: 45 00 80 F0 FF FF 7F F0  FF FF 7F 66 64 6F 31 01  E..........fdo1.
00B0: 80 1C 02 80 78 68 46 00  45 00 80 F0 FF FF 7F F0  ....xhF.E.......
00C0: FF FF 7F 66 64 69 31 01  80 20 00 21 00           ...fdi1.. .!.   
```

#### Opcodes

```
  0: 0x0001 [0x20] SET_CLI_EVENT_UC_FLAG: Lock player control
  1: 0x0003 [0x42] SET_CLI_EVENT_CANCEL_DATA()
  2: 0x0004 [0x46] CAMERA_CONTROL: Disable user control
  3: 0x0006 [0x45] LOAD_SCHEDULED_TASK: Load scheduler "fdo1" with entities [LocalPlayer, LocalPlayer], work=[200*, 0*]
  4: 0x0017 [0x1C] WAIT(60* ticks)
  5: 0x001A [0x77] SET_EVENT_TIME_WEATHER(hour=9*, weather=0*)
  6: 0x001F [0x38] SET_CLIENT_EVENT_MODE(mode=19*)
  7: 0x0022 [0x45] LOAD_SCHEDULED_TASK: Load scheduler "fdi1" with entities [LocalPlayer, LocalPlayer], work=[200*, 0*]
  8: 0x0033 [0x1C] WAIT(60* ticks)
  9: 0x0036 [0x24] CREATE_DIALOG(message_id=10752*, default_option=0*, option_flags=0*)
    → "Event selection: [Quit./Pattern 1./Pattern 2./Pattern 3.]"
 10: 0x003D [0x25] WAIT_DIALOG_SELECT()
 11: 0x003E [0x67] HIDE_HUD_ELEMENTS(param1=0x8001, param2=0x8001)
 12: 0x0043 [0x02] IF !(Work_Zone[0] == 1*) GOTO 0x0062
 13: 0x004B [0x45] LOAD_SCHEDULED_TASK: Load scheduler "san1" with entities [LocalPlayer, LocalPlayer], work=[341*, 0*]
 14: 0x005C [0x1C] WAIT(900* ticks)
 15: 0x005F [0x01] GOTO 0x00A0
 16: 0x0062 [0x02] IF !(Work_Zone[0] == 2*) GOTO 0x0081
 17: 0x006A [0x45] LOAD_SCHEDULED_TASK: Load scheduler "san2" with entities [LocalPlayer, LocalPlayer], work=[341*, 0*]
 18: 0x007B [0x1C] WAIT(900* ticks)
 19: 0x007E [0x01] GOTO 0x00A0
 20: 0x0081 [0x02] IF !(Work_Zone[0] == 3*) GOTO 0x00A0
 21: 0x0089 [0x45] LOAD_SCHEDULED_TASK: Load scheduler "san3" with entities [LocalPlayer, LocalPlayer], work=[341*, 0*]
 22: 0x009A [0x1C] WAIT(900* ticks)
 23: 0x009D [0x01] GOTO 0x00A0

SUBROUTINE_00A0:
 24: 0x00A0 [0x45] LOAD_SCHEDULED_TASK: Load scheduler "fdo1" with entities [LocalPlayer, LocalPlayer], work=[200*, 0*]
 25: 0x00B1 [0x1C] WAIT(60* ticks)
 26: 0x00B4 [0x78] ENABLE_GAME_TIMER_RESET_WEATHER()
 27: 0x00B5 [0x68] SHOW_HUD_ELEMENTS()
 28: 0x00B6 [0x46] CAMERA_CONTROL: Restore default settings
 29: 0x00B8 [0x45] LOAD_SCHEDULED_TASK: Load scheduler "fdi1" with entities [LocalPlayer, LocalPlayer], work=[200*, 0*]
 30: 0x00C9 [0x20] SET_CLI_EVENT_UC_FLAG: Unlock player control
 31: 0x00CB [0x21] END_EVENT
 32: 0x00CC [0x00] END_REQSTACK()
```
