# 17105416

## Common Data

| Field            | Value                            |
|------------------|----------------------------------|
| Zone             | Southern San d'Oria [S] (ID: 80) |
| Block Size       | 23152 bytes                      |
| Total Events     | 6                                |
| References Count | 492                              |

## List of Events

| Event ID              | Entrypoint   |   Size |   Instructions |
|-----------------------|--------------|--------|----------------|
| [65535](#event-65535) | 0x0000       |      1 |              1 |
| [55](#event-55)       | 0x0001       |   3781 |            438 |
| [56](#event-56)       | 0x0EC6       |   1201 |            147 |
| [59](#event-59)       | 0x1377       |   4687 |            559 |
| [60](#event-60)       | 0x25C6       |   6625 |            806 |
| [675](#event-675)     | 0x3FA7       |   4847 |            643 |

## DAT References (imed_data)

|   Index | Hex Value   |   Dec Value |
|---------|-------------|-------------|
|       0 | 0x0013      |          19 |
|       1 | 0x0164      |         356 |
|       2 | 0x0000      |           0 |
|       3 | 0x0ECE      |        3790 |
|       4 | 0xA62E      |       42542 |
|       5 | 0xFFFFF831  |  4294965297 |
|       6 | 0x0C7A      |        3194 |
|       7 | 0x01A0      |         416 |
|       8 | 0x9370      |       37744 |
|       9 | 0xFFFFF99F  |  4294965663 |
|      10 | 0x0CF1      |        3313 |
|      11 | 0xFFFFFB83  |  4294966147 |
|      12 | 0xD586      |       54662 |
|      13 | 0xFFFFF830  |  4294965296 |
|      14 | 0x0AFC      |        2812 |
|      15 | 0x0472      |        1138 |
|      16 | 0xD5FB      |       54779 |
|      17 | 0x04A1      |        1185 |
|      18 | 0xFFFFFBE5  |  4294966245 |
|      19 | 0x937E      |       37758 |
|      20 | 0xFFFFF99B  |  4294965659 |
|      21 | 0x0C94      |        3220 |
|      22 | 0xFFFFFFEF  |  4294967279 |
|      23 | 0xCEAE      |       52910 |
|      24 | 0x03D6      |         982 |
|      25 | 0xFFFFF264  |  4294963812 |
|      26 | 0xACC3      |       44227 |
|      27 | 0x0415      |        1045 |
|      28 | 0x0F8B      |        3979 |
|      29 | 0xADA8      |       44456 |
|      30 | 0x0454      |        1108 |
|      31 | 0x00C8      |         200 |
|      32 | 0x001D      |          29 |
|      33 | 0x3050      |       12368 |
|      34 | 0x001E      |          30 |
|      35 | 0x0096      |         150 |
|      36 | 0x3051      |       12369 |
|      37 | 0x0536      |        1334 |
|      38 | 0x3052      |       12370 |
|      39 | 0x005A      |          90 |
|      40 | 0x3053      |       12371 |
|      41 | 0x053B      |        1339 |
|      42 | 0x3054      |       12372 |
|      43 | 0x3055      |       12373 |
|      44 | 0x00F0      |         240 |
|      45 | 0x3056      |       12374 |
|      46 | 0x00A3      |         163 |
|      47 | 0x003C      |          60 |
|      48 | 0x0019      |          25 |
|      49 | 0x3057      |       12375 |
|      50 | 0x0078      |         120 |
|      51 | 0x3058      |       12376 |
|      52 | 0x3059      |       12377 |
|      53 | 0x305A      |       12378 |
|      54 | 0x305B      |       12379 |
|      55 | 0x305C      |       12380 |
|      56 | 0x305D      |       12381 |
|      57 | 0x305E      |       12382 |
|      58 | 0x305F      |       12383 |
|      59 | 0x3060      |       12384 |
|      60 | 0x3061      |       12385 |
|      61 | 0x3062      |       12386 |
|      62 | 0x3063      |       12387 |
|      63 | 0x0552      |        1362 |
|      64 | 0x0553      |        1363 |
|      65 | 0x0080      |         128 |
|      66 | 0xBA93      |       47763 |
|      67 | 0x03E8      |        1000 |
|      68 | 0x3064      |       12388 |
|      69 | 0x3065      |       12389 |
|      70 | 0x001A      |          26 |
|      71 | 0xCF08      |       53000 |
|      72 | 0x0421      |        1057 |
|      73 | 0x3066      |       12390 |
|      74 | 0x00B4      |         180 |
|      75 | 0x3067      |       12391 |
|      76 | 0x07F0      |        2032 |
|      77 | 0xA793      |       42899 |
|      78 | 0x0B1E      |        2846 |
|      79 | 0x0010      |          16 |
|      80 | 0xA789      |       42889 |
|      81 | 0x0B16      |        2838 |
|      82 | 0x02C5      |         709 |
|      83 | 0xA258      |       41560 |
|      84 | 0x0B1C      |        2844 |
|      85 | 0x0091      |         145 |
|      86 | 0x3068      |       12392 |
|      87 | 0x3069      |       12393 |
|      88 | 0x306A      |       12394 |
|      89 | 0x306B      |       12395 |
|      90 | 0x306C      |       12396 |
|      91 | 0x306D      |       12397 |
|      92 | 0x306E      |       12398 |
|      93 | 0x306F      |       12399 |
|      94 | 0x3070      |       12400 |
|      95 | 0x3071      |       12401 |
|      96 | 0x3072      |       12402 |
|      97 | 0x3073      |       12403 |
|      98 | 0x3074      |       12404 |
|      99 | 0x3075      |       12405 |
|     100 | 0x3076      |       12406 |
|     101 | 0x3077      |       12407 |
|     102 | 0x3078      |       12408 |
|     103 | 0x0007      |           7 |
|     104 | 0x307C      |       12412 |
|     105 | 0x307D      |       12413 |
|     106 | 0x0022      |          34 |
|     107 | 0x3079      |       12409 |
|     108 | 0x307A      |       12410 |
|     109 | 0x307B      |       12411 |
|     110 | 0x0001      |           1 |
|     111 | 0x307E      |       12414 |
|     112 | 0x307F      |       12415 |
|     113 | 0x0655      |        1621 |
|     114 | 0xA512      |       42258 |
|     115 | 0x0D9A      |        3482 |
|     116 | 0x3080      |       12416 |
|     117 | 0x3081      |       12417 |
|     118 | 0x3082      |       12418 |
|     119 | 0x0279      |         633 |
|     120 | 0xA0E4      |       41188 |
|     121 | 0x03FF      |        1023 |
|     122 | 0x3084      |       12420 |
|     123 | 0x3083      |       12419 |
|     124 | 0x00FE      |         254 |
|     125 | 0xFFFD7486  |  4294800518 |
|     126 | 0xEA59      |       59993 |
|     127 | 0x029B      |         667 |
|     128 | 0xFFFD79EB  |  4294801899 |
|     129 | 0xE019      |       57369 |
|     130 | 0x0BDD      |        3037 |
|     131 | 0x0515      |        1301 |
|     132 | 0x00F8      |         248 |
|     133 | 0x0513      |        1299 |
|     134 | 0x3085      |       12421 |
|     135 | 0x3086      |       12422 |
|     136 | 0x04F8      |        1272 |
|     137 | 0x3087      |       12423 |
|     138 | 0x3088      |       12424 |
|     139 | 0x3089      |       12425 |
|     140 | 0x308A      |       12426 |
|     141 | 0x0016      |          22 |
|     142 | 0x308B      |       12427 |
|     143 | 0x04F9      |        1273 |
|     144 | 0x308C      |       12428 |
|     145 | 0x308D      |       12429 |
|     146 | 0x308E      |       12430 |
|     147 | 0x308F      |       12431 |
|     148 | 0x3090      |       12432 |
|     149 | 0x3091      |       12433 |
|     150 | 0x3092      |       12434 |
|     151 | 0x3093      |       12435 |
|     152 | 0xFFFD6864  |  4294797412 |
|     153 | 0xDF69      |       57193 |
|     154 | 0x01E7      |         487 |
|     155 | 0x3097      |       12439 |
|     156 | 0x3098      |       12440 |
|     157 | 0xFFFD7A5D  |  4294802013 |
|     158 | 0xF738      |       63288 |
|     159 | 0x028C      |         652 |
|     160 | 0xFFFD7595  |  4294800789 |
|     161 | 0xF3CD      |       62413 |
|     162 | 0x026D      |         621 |
|     163 | 0xFFFD7E8A  |  4294803082 |
|     164 | 0xEEFF      |       61183 |
|     165 | 0x0A13      |        2579 |
|     166 | 0xFFFD8065  |  4294803557 |
|     167 | 0xF408      |       62472 |
|     168 | 0x0DDC      |        3548 |
|     169 | 0x059D      |        1437 |
|     170 | 0x3099      |       12441 |
|     171 | 0x309A      |       12442 |
|     172 | 0x309B      |       12443 |
|     173 | 0x309C      |       12444 |
|     174 | 0x09E0      |        2528 |
|     175 | 0x309D      |       12445 |
|     176 | 0x309E      |       12446 |
|     177 | 0x0015      |          21 |
|     178 | 0x309F      |       12447 |
|     179 | 0x30A0      |       12448 |
|     180 | 0x30A1      |       12449 |
|     181 | 0x30A2      |       12450 |
|     182 | 0x000A      |          10 |
|     183 | 0x30A3      |       12451 |
|     184 | 0x30A4      |       12452 |
|     185 | 0x007F      |         127 |
|     186 | 0x30A5      |       12453 |
|     187 | 0x30A6      |       12454 |
|     188 | 0x30A7      |       12455 |
|     189 | 0x30A8      |       12456 |
|     190 | 0x30A9      |       12457 |
|     191 | 0x30AA      |       12458 |
|     192 | 0x30AB      |       12459 |
|     193 | 0x0052      |          82 |
|     194 | 0x00FF      |         255 |
|     195 | 0x000E      |          14 |
|     196 | 0x000F      |          15 |
|     197 | 0xFFFFFB68  |  4294966120 |
|     198 | 0xFFFB8716  |  4294674198 |
|     199 | 0xFFFFEB68  |  4294962024 |
|     200 | 0x0BE6      |        3046 |
|     201 | 0xFFFFFADE  |  4294965982 |
|     202 | 0xFFFB92C3  |  4294677187 |
|     203 | 0xFFFFEB0E  |  4294961934 |
|     204 | 0x03E2      |         994 |
|     205 | 0x01C0      |         448 |
|     206 | 0xFFFB83FF  |  4294673407 |
|     207 | 0xFFFFEB41  |  4294961985 |
|     208 | 0x0B74      |        2932 |
|     209 | 0x0588      |        1416 |
|     210 | 0x30AC      |       12460 |
|     211 | 0x05AC      |        1452 |
|     212 | 0x30AD      |       12461 |
|     213 | 0x30AE      |       12462 |
|     214 | 0x30AF      |       12463 |
|     215 | 0x30B0      |       12464 |
|     216 | 0x30B1      |       12465 |
|     217 | 0x30B2      |       12466 |
|     218 | 0x30B3      |       12467 |
|     219 | 0x30B4      |       12468 |
|     220 | 0x0006      |           6 |
|     221 | 0x00E1      |         225 |
|     222 | 0x30B5      |       12469 |
|     223 | 0x0050      |          80 |
|     224 | 0x30B6      |       12470 |
|     225 | 0x30B7      |       12471 |
|     226 | 0x30B8      |       12472 |
|     227 | 0x30B9      |       12473 |
|     228 | 0x30BA      |       12474 |
|     229 | 0x30BB      |       12475 |
|     230 | 0x30BC      |       12476 |
|     231 | 0x30BD      |       12477 |
|     232 | 0x30BE      |       12478 |
|     233 | 0x30BF      |       12479 |
|     234 | 0x30C0      |       12480 |
|     235 | 0x30C1      |       12481 |
|     236 | 0x30C2      |       12482 |
|     237 | 0x30C3      |       12483 |
|     238 | 0x30C4      |       12484 |
|     239 | 0x30C5      |       12485 |
|     240 | 0x30C6      |       12486 |
|     241 | 0x00F7      |         247 |
|     242 | 0xFFFD5063  |  4294791267 |
|     243 | 0xE38E      |       58254 |
|     244 | 0xFFFFF769  |  4294965097 |
|     245 | 0x086D      |        2157 |
|     246 | 0xFFFD7C3B  |  4294802491 |
|     247 | 0xF0D8      |       61656 |
|     248 | 0x0643      |        1603 |
|     249 | 0x30C7      |       12487 |
|     250 | 0x057F      |        1407 |
|     251 | 0x30C8      |       12488 |
|     252 | 0x30C9      |       12489 |
|     253 | 0x30CA      |       12490 |
|     254 | 0x30CB      |       12491 |
|     255 | 0x30CC      |       12492 |
|     256 | 0x30CD      |       12493 |
|     257 | 0x30CE      |       12494 |
|     258 | 0x30CF      |       12495 |
|     259 | 0x30D0      |       12496 |
|     260 | 0x000D      |          13 |
|     261 | 0x30D1      |       12497 |
|     262 | 0xFFFD7137  |  4294799671 |
|     263 | 0xF7CD      |       63437 |
|     264 | 0x04C8      |        1224 |
|     265 | 0x30D2      |       12498 |
|     266 | 0xFFFD7181  |  4294799745 |
|     267 | 0xEDF0      |       60912 |
|     268 | 0xFFFD77E0  |  4294801376 |
|     269 | 0xE41E      |       58398 |
|     270 | 0x078C      |        1932 |
|     271 | 0x30D5      |       12501 |
|     272 | 0x30D6      |       12502 |
|     273 | 0xFFFD86E9  |  4294805225 |
|     274 | 0xF431      |       62513 |
|     275 | 0x0288      |         648 |
|     276 | 0xFFFD7DB5  |  4294802869 |
|     277 | 0xECDE      |       60638 |
|     278 | 0x0845      |        2117 |
|     279 | 0x30D7      |       12503 |
|     280 | 0x30D8      |       12504 |
|     281 | 0x057E      |        1406 |
|     282 | 0x30D9      |       12505 |
|     283 | 0xFFFD6544  |  4294796612 |
|     284 | 0xE517      |       58647 |
|     285 | 0x0F72      |        3954 |
|     286 | 0xFFFD646C  |  4294796396 |
|     287 | 0xE905      |       59653 |
|     288 | 0x0064      |         100 |
|     289 | 0x30DA      |       12506 |
|     290 | 0x30DB      |       12507 |
|     291 | 0xFFFD7709  |  4294801161 |
|     292 | 0xF263      |       62051 |
|     293 | 0x052F      |        1327 |
|     294 | 0xE5CB      |       58827 |
|     295 | 0x0854      |        2132 |
|     296 | 0xFFFD7357  |  4294800215 |
|     297 | 0xE83B      |       59451 |
|     298 | 0x0F21      |        3873 |
|     299 | 0x0005      |           5 |
|     300 | 0xFFFD6E4E  |  4294798926 |
|     301 | 0xEC0B      |       60427 |
|     302 | 0x0154      |         340 |
|     303 | 0x30DC      |       12508 |
|     304 | 0x30DD      |       12509 |
|     305 | 0x30DE      |       12510 |
|     306 | 0x30DF      |       12511 |
|     307 | 0x30E0      |       12512 |
|     308 | 0x30E1      |       12513 |
|     309 | 0x30E2      |       12514 |
|     310 | 0xFFFD4BFB  |  4294790139 |
|     311 | 0xE2C2      |       58050 |
|     312 | 0x0713      |        1811 |
|     313 | 0x30E3      |       12515 |
|     314 | 0x535E      |       21342 |
|     315 | 0xFFFFFC20  |  4294966304 |
|     316 | 0x0835      |        2101 |
|     317 | 0x0717      |        1815 |
|     318 | 0x4ABF      |       19135 |
|     319 | 0xFFFFF98F  |  4294965647 |
|     320 | 0x0F5B      |        3931 |
|     321 | 0x50F0      |       20720 |
|     322 | 0xFFFFF36C  |  4294964076 |
|     323 | 0x0CCF      |        3279 |
|     324 | 0x4D89      |       19849 |
|     325 | 0x0076      |         118 |
|     326 | 0x022A      |         554 |
|     327 | 0x30E4      |       12516 |
|     328 | 0x30E5      |       12517 |
|     329 | 0x30E6      |       12518 |
|     330 | 0x30E7      |       12519 |
|     331 | 0x30E8      |       12520 |
|     332 | 0x30E9      |       12521 |
|     333 | 0x30EA      |       12522 |
|     334 | 0x30EB      |       12523 |
|     335 | 0x30EC      |       12524 |
|     336 | 0x30ED      |       12525 |
|     337 | 0x30EE      |       12526 |
|     338 | 0x30EF      |       12527 |
|     339 | 0x30F0      |       12528 |
|     340 | 0x30F1      |       12529 |
|     341 | 0x30F2      |       12530 |
|     342 | 0x30F3      |       12531 |
|     343 | 0x30F4      |       12532 |
|     344 | 0x30F5      |       12533 |
|     345 | 0x30F6      |       12534 |
|     346 | 0x30F7      |       12535 |
|     347 | 0x30F8      |       12536 |
|     348 | 0x30F9      |       12537 |
|     349 | 0x30FA      |       12538 |
|     350 | 0x30FB      |       12539 |
|     351 | 0x30FC      |       12540 |
|     352 | 0x30FD      |       12541 |
|     353 | 0x30FE      |       12542 |
|     354 | 0x30FF      |       12543 |
|     355 | 0x0002      |           2 |
|     356 | 0x3100      |       12544 |
|     357 | 0x71AD      |       29101 |
|     358 | 0xFFFF9114  |  4294938900 |
|     359 | 0x07CF      |        1999 |
|     360 | 0x0871      |        2161 |
|     361 | 0x7948      |       31048 |
|     362 | 0xFFFF97B6  |  4294940598 |
|     363 | 0x02EB      |         747 |
|     364 | 0x7BED      |       31725 |
|     365 | 0xFFFF9097  |  4294938775 |
|     366 | 0x0868      |        2152 |
|     367 | 0x3101      |       12545 |
|     368 | 0x3102      |       12546 |
|     369 | 0x3103      |       12547 |
|     370 | 0x3104      |       12548 |
|     371 | 0x3105      |       12549 |
|     372 | 0x0BB8      |        3000 |
|     373 | 0x3106      |       12550 |
|     374 | 0x3107      |       12551 |
|     375 | 0x3108      |       12552 |
|     376 | 0x5FF0      |       24560 |
|     377 | 0x1910      |        6416 |
|     378 | 0x02E6      |         742 |
|     379 | 0x3815      |       14357 |
|     380 | 0xFFFFF92A  |  4294965546 |
|     381 | 0x042E      |        1070 |
|     382 | 0x3109      |       12553 |
|     383 | 0x310A      |       12554 |
|     384 | 0x053A      |        1338 |
|     385 | 0x310B      |       12555 |
|     386 | 0x310C      |       12556 |
|     387 | 0xD6E1      |       55009 |
|     388 | 0xFFFF942F  |  4294939695 |
|     389 | 0x0FEE      |        4078 |
|     390 | 0x59E8      |       23016 |
|     391 | 0xFFFF9B7F  |  4294941567 |
|     392 | 0x040D      |        1037 |
|     393 | 0x7585      |       30085 |
|     394 | 0xFFFF9AB0  |  4294941360 |
|     395 | 0x78BA      |       30906 |
|     396 | 0xFFFF9105  |  4294938885 |
|     397 | 0x310D      |       12557 |
|     398 | 0x310E      |       12558 |
|     399 | 0x310F      |       12559 |
|     400 | 0x07D0      |        2000 |
|     401 | 0x3110      |       12560 |
|     402 | 0xC782      |       51074 |
|     403 | 0xFFFF9D57  |  4294942039 |
|     404 | 0x0FFE      |        4094 |
|     405 | 0x3111      |       12561 |
|     406 | 0x7774      |       30580 |
|     407 | 0xFFFFA833  |  4294944819 |
|     408 | 0x0F9B      |        3995 |
|     409 | 0x751A      |       29978 |
|     410 | 0xFFFF97CA  |  4294940618 |
|     411 | 0x3840      |       14400 |
|     412 | 0xFFFF9DF4  |  4294942196 |
|     413 | 0x3112      |       12562 |
|     414 | 0x3113      |       12563 |
|     415 | 0x3114      |       12564 |
|     416 | 0x0018      |          24 |
|     417 | 0x3115      |       12565 |
|     418 | 0x5D26      |       23846 |
|     419 | 0xFFFF964F  |  4294940239 |
|     420 | 0x0488      |        1160 |
|     421 | 0x3116      |       12566 |
|     422 | 0x2BD6      |       11222 |
|     423 | 0xFFFFA652  |  4294944338 |
|     424 | 0x049E      |        1182 |
|     425 | 0x2C7D      |       11389 |
|     426 | 0xFFFFAA6E  |  4294945390 |
|     427 | 0x03E1      |         993 |
|     428 | 0x00C9      |         201 |
|     429 | 0x07B5      |        1973 |
|     430 | 0x02B5      |         693 |
|     431 | 0x3D0E      |       15630 |
|     432 | 0x3D0F      |       15631 |
|     433 | 0x0014      |          20 |
|     434 | 0x3D10      |       15632 |
|     435 | 0x0354      |         852 |
|     436 | 0x3D11      |       15633 |
|     437 | 0x3D12      |       15634 |
|     438 | 0x0003      |           3 |
|     439 | 0x0004      |           4 |
|     440 | 0x0008      |           8 |
|     441 | 0x3D13      |       15635 |
|     442 | 0x3D14      |       15636 |
|     443 | 0x0190      |         400 |
|     444 | 0x3D15      |       15637 |
|     445 | 0x3D16      |       15638 |
|     446 | 0x3D17      |       15639 |
|     447 | 0x3D18      |       15640 |
|     448 | 0x3D19      |       15641 |
|     449 | 0x3D1A      |       15642 |
|     450 | 0x3D1B      |       15643 |
|     451 | 0x3D1C      |       15644 |
|     452 | 0x3D1D      |       15645 |
|     453 | 0x3D1E      |       15646 |
|     454 | 0x3D1F      |       15647 |
|     455 | 0x3D20      |       15648 |
|     456 | 0x3D21      |       15649 |
|     457 | 0x3D22      |       15650 |
|     458 | 0x0578      |        1400 |
|     459 | 0x3D23      |       15651 |
|     460 | 0x3D24      |       15652 |
|     461 | 0x3D25      |       15653 |
|     462 | 0x3D26      |       15654 |
|     463 | 0x00AE      |         174 |
|     464 | 0x0032      |          50 |
|     465 | 0x0046      |          70 |
|     466 | 0x076C      |        1900 |
|     467 | 0x0640      |        1600 |
|     468 | 0x00B1      |         177 |
|     469 | 0x3D27      |       15655 |
|     470 | 0x3D28      |       15656 |
|     471 | 0x3D29      |       15657 |
|     472 | 0x3D2A      |       15658 |
|     473 | 0x3D2B      |       15659 |
|     474 | 0x0028      |          40 |
|     475 | 0x00FA      |         250 |
|     476 | 0x3D2C      |       15660 |
|     477 | 0x3D2D      |       15661 |
|     478 | 0x3D2E      |       15662 |
|     479 | 0x3D2F      |       15663 |
|     480 | 0x3D30      |       15664 |
|     481 | 0x3D31      |       15665 |
|     482 | 0x0044      |          68 |
|     483 | 0x3D32      |       15666 |
|     484 | 0x3D33      |       15667 |
|     485 | 0x0C80      |        3200 |
|     486 | 0x3D34      |       15668 |
|     487 | 0x3D35      |       15669 |
|     488 | 0x3D36      |       15670 |
|     489 | 0x3D37      |       15671 |
|     490 | 0x3D38      |       15672 |
|     491 | 0x3D39      |       15673 |

## String References

- **12408**: Will you take care of the Young Griffons? [I promise!/Be strong, Altennia!]
- **12559**: What will you do? [Point east./Point west.]

## Events

### Event 65535

#### Metadata

| Field        | Value   |
|--------------|---------|
| Entrypoint   | 0x0000  |
| Data Size    | 1 bytes |
| Instructions | 1       |

```
      00 01 02 03 04 05 06 07  08 09 0A 0B 0C 0D 0E 0F
      -- -- -- -- -- -- -- --  -- -- -- -- -- -- -- --
0000: 00                                                .               
```

#### Opcodes

```
  0: 0x0000 [0x00] END_REQSTACK()
```

### Event 55

#### Metadata

| Field        | Value      |
|--------------|------------|
| Entrypoint   | 0x0001     |
| Data Size    | 3781 bytes |
| Instructions | 438        |

```
      00 01 02 03 04 05 06 07  08 09 0A 0B 0C 0D 0E 0F
      -- -- -- -- -- -- -- --  -- -- -- -- -- -- -- --
0000:    42 20 01 46 01 1A 65  3F 38 00 80 45 01 80 F8   B .F..e?8..E...
0010: FF FF 7F F8 FF FF 7F 73  32 31 39 02 80 29 0F B8  .......s219..)..
0020: 01 05 01 04 92 01 0E 02  05 01 92 01 19 02 05 01  ................
0030: 92 01 1A 02 05 01 92 01  17 02 05 01 92 01 18 02  ................
0040: 05 01 92 01 EE 01 05 01  92 01 EF 01 05 01 92 01  ................
0050: B8 01 05 01 94 01 0E 02  05 01 94 01 19 02 05 01  ................
0060: 94 01 1A 02 05 01 94 01  17 02 05 01 94 01 18 02  ................
0070: 05 01 94 01 EE 01 05 01  94 01 EF 01 05 01 55 01  ..............U.
0080: 80 F8 FF FF 7F F8 FF FF  7F 73 32 31 39 79 00 F0  .........s219y..
0090: FF FF 7F F0 FF FF 7F BA  F0 FF FF 7F 03 80 04 80  ................
00A0: 05 80 06 80 BA 0E 02 05  01 07 80 08 80 09 80 0A  ................
00B0: 80 BA 1A 02 05 01 0B 80  0C 80 0D 80 0E 80 BA 19  ................
00C0: 02 05 01 0F 80 10 80 0D  80 11 80 BA 17 02 05 01  ................
00D0: 12 80 13 80 14 80 15 80  BA 18 02 05 01 16 80 17  ................
00E0: 80 0D 80 18 80 BA EE 01  05 01 19 80 1A 80 05 80  ................
00F0: 1B 80 BA EF 01 05 01 1C  80 1D 80 05 80 1E 80 4A  ...............J
0100: 17 02 05 01 EF 01 05 01  4A 0E 02 05 01 EF 01 05  ........J.......
0110: 01 7B F0 FF FF 7F 7B 0E  02 05 01 7B 19 02 05 01  .{....{....{....
0120: 7B 1A 02 05 01 7B 17 02  05 01 7B 18 02 05 01 7B  {....{....{....{
0130: EE 01 05 01 7B EF 01 05  01 4E 00 0E 02 05 01 4E  ....{....N.....N
0140: 01 19 02 05 01 4E 01 1A  02 05 01 4E 00 17 02 05  .....N.....N....
0150: 01 4E 00 18 02 05 01 4E  01 EE 01 05 01 4E 00 EF  .N.....N.....N..
0160: 01 05 01 80 0E 02 05 01  80 19 02 05 01 80 1A 02  ................
0170: 05 01 80 17 02 05 01 80  18 02 05 01 80 EE 01 05  ................
0180: 01 80 EF 01 05 01 45 01  80 F8 FF FF 7F F8 FF FF  ......E.........
0190: 7F 73 30 32 38 02 80 45  1F 80 F8 FF FF 7F F8 FF  .s028..E........
01A0: FF 7F 66 64 69 32 02 80  66 20 80 EF 01 05 01 EF  ..fdi2..f ......
01B0: 01 05 01 74 6C 6B 30 2B  EF 01 05 01 21 80 23 66  ...tlk0+....!.#f
01C0: 20 80 EF 01 05 01 EF 01  05 01 74 6C 6B 31 27 0F   .........tlk1'.
01D0: 0E 02 05 01 0C 27 0F 17  02 05 01 02 1C 22 80 52  .....'.......".R
01E0: 01 80 F8 FF FF 7F F8 FF  FF 7F 73 30 32 38 45 01  ..........s028E.
01F0: 80 F8 FF FF 7F F8 FF FF  7F 73 30 32 39 02 80 1C  .........s029...
0200: 23 80 27 0F EF 01 05 01  03 52 01 80 F8 FF FF 7F  #.'......R......
0210: F8 FF FF 7F 73 30 32 39  45 01 80 F8 FF FF 7F F8  ....s029E.......
0220: FF FF 7F 73 30 33 30 02  80 4A F0 FF FF 7F 0E 02  ...s030..J......
0230: 05 01 2A 0F EF 01 05 01  66 20 80 EF 01 05 01 EF  ..*.....f ......
0240: 01 05 01 74 6C 6B 30 2B  EF 01 05 01 24 80 23 66  ...tlk0+....$.#f
0250: 20 80 EF 01 05 01 EF 01  05 01 74 6C 6B 31 5B 25   .........tlk1[%
0260: 80 0E 02 05 01 0E 02 05  01 74 6C 6B 30 2B 0E 02  .........tlk0+..
0270: 05 01 26 80 23 5B 25 80  0E 02 05 01 0E 02 05 01  ..&.#[%.........
0280: 74 6C 6B 31 1C 27 80 52  01 80 F8 FF FF 7F F8 FF  tlk1.'.R........
0290: FF 7F 73 30 33 30 45 01  80 F8 FF FF 7F F8 FF FF  ..s030E.........
02A0: 7F 73 30 33 31 02 80 4A  0E 02 05 01 F0 FF FF 7F  .s031..J........
02B0: 7B 0E 02 05 01 6F 76 0E  02 05 01 2B 0E 02 05 01  {....ov....+....
02C0: 28 80 23 52 01 80 F8 FF  FF 7F F8 FF FF 7F 73 30  (.#R..........s0
02D0: 33 31 45 01 80 F8 FF FF  7F F8 FF FF 7F 73 30 33  31E..........s03
02E0: 32 02 80 4A 17 02 05 01  F0 FF FF 7F 7B 17 02 05  2..J........{...
02F0: 01 5B 29 80 0E 02 05 01  0E 02 05 01 73 68 6F 30  .[).........sho0
0300: 2B 0E 02 05 01 2A 80 23  5B 29 80 0E 02 05 01 0E  +....*.#[)......
0310: 02 05 01 73 68 6F 31 52  01 80 F8 FF FF 7F F8 FF  ...sho1R........
0320: FF 7F 73 30 33 32 45 01  80 F8 FF FF 7F F8 FF FF  ..s032E.........
0330: 7F 73 30 34 32 02 80 66  20 80 17 02 05 01 17 02  .s042..f .......
0340: 05 01 74 6C 6B 30 2B 17  02 05 01 2B 80 23 66 20  ..tlk0+....+.#f 
0350: 80 17 02 05 01 17 02 05  01 74 6C 6B 31 52 01 80  .........tlk1R..
0360: F8 FF FF 7F F8 FF FF 7F  73 30 34 32 5D 02 80 2C  ........s042]..,
0370: 80 45 01 80 F8 FF FF 7F  F8 FF FF 7F 73 30 33 33  .E..........s033
0380: 02 80 27 0F B8 01 05 01  03 4A F0 FF FF 7F 18 02  ..'......J......
0390: 05 01 4A EF 01 05 01 18  02 05 01 4A 17 02 05 01  ..J........J....
03A0: 18 02 05 01 4A 0E 02 05  01 18 02 05 01 55 01 80  ....J........U..
03B0: F8 FF FF 7F F8 FF FF 7F  73 30 33 33 45 01 80 F8  ........s033E...
03C0: FF FF 7F F8 FF FF 7F 73  32 31 33 02 80 2B EF 01  .......s213..+..
03D0: 05 01 2D 80 23 55 01 80  F8 FF FF 7F F8 FF FF 7F  ..-.#U..........
03E0: 73 32 31 33 5C 00 2E 80  5C 01 2E 80 9A 27 0F 18  s213\...\....'..
03F0: 02 05 01 03 1C 22 80 45  01 80 F8 FF FF 7F F8 FF  .....".E........
0400: FF 7F 73 30 33 34 02 80  55 01 80 F8 FF FF 7F F8  ..s034..U.......
0410: FF FF 7F 73 30 33 34 45  01 80 F8 FF FF 7F F8 FF  ...s034E........
0420: FF 7F 73 30 33 35 02 80  4E 00 19 02 05 01 4E 00  ..s035..N.....N.
0430: 1A 02 05 01 27 0F 19 02  05 01 02 1C 2F 80 27 0F  ....'......./.'.
0440: 1A 02 05 01 02 55 01 80  F8 FF FF 7F F8 FF FF 7F  .....U..........
0450: 73 30 33 35 45 01 80 F8  FF FF 7F F8 FF FF 7F 73  s035E..........s
0460: 30 33 36 02 80 2A 0F 1A  02 05 01 6E 18 02 05 01  036..*.....n....
0470: 30 80 99 18 02 05 01 2B  3F 02 05 01 31 80 23 1C  0......+?...1.#.
0480: 32 80 66 20 80 19 02 05  01 19 02 05 01 74 6C 6B  2.f .........tlk
0490: 30 2B 19 02 05 01 33 80  23 66 20 80 19 02 05 01  0+....3.#f .....
04A0: 19 02 05 01 74 6C 6B 31  66 20 80 1A 02 05 01 1A  ....tlk1f ......
04B0: 02 05 01 74 6C 6B 30 2B  1A 02 05 01 34 80 23 66  ...tlk0+....4.#f
04C0: 20 80 1A 02 05 01 1A 02  05 01 74 6C 6B 31 52 01   .........tlk1R.
04D0: 80 F8 FF FF 7F F8 FF FF  7F 73 30 33 36 45 01 80  .........s036E..
04E0: F8 FF FF 7F F8 FF FF 7F  73 30 33 37 02 80 27 0F  ........s037..'.
04F0: 19 02 05 01 03 2B 18 02  05 01 35 80 23 55 01 80  .....+....5.#U..
0500: F8 FF FF 7F F8 FF FF 7F  73 30 33 37 45 01 80 F8  ........s037E...
0510: FF FF 7F F8 FF FF 7F 73  30 33 38 02 80 27 0F 17  .......s038..'..
0520: 02 05 01 03 2B 17 02 05  01 36 80 23 2A 0F 17 02  ....+....6.#*...
0530: 05 01 66 20 80 17 02 05  01 17 02 05 01 74 6C 6B  ..f .........tlk
0540: 30 2B 17 02 05 01 37 80  23 66 20 80 17 02 05 01  0+....7.#f .....
0550: 17 02 05 01 74 6C 6B 31  52 01 80 F8 FF FF 7F F8  ....tlk1R.......
0560: FF FF 7F 73 30 33 38 4E  01 EF 01 05 01 4E 01 19  ...s038N.....N..
0570: 02 05 01 4E 01 1A 02 05  01 45 01 80 F8 FF FF 7F  ...N.....E......
0580: F8 FF FF 7F 73 30 33 39  02 80 4A 18 02 05 01 17  ....s039..J.....
0590: 02 05 01 6F 76 18 02 05  01 66 20 80 18 02 05 01  ...ov....f .....
05A0: 18 02 05 01 74 6C 6B 30  2B 18 02 05 01 38 80 23  ....tlk0+....8.#
05B0: 2B 18 02 05 01 39 80 23  66 20 80 18 02 05 01 18  +....9.#f ......
05C0: 02 05 01 74 6C 6B 31 52  01 80 F8 FF FF 7F F8 FF  ...tlk1R........
05D0: FF 7F 73 30 33 39 45 01  80 F8 FF FF 7F F8 FF FF  ..s039E.........
05E0: 7F 73 30 34 30 02 80 27  0F 0E 02 05 01 0D 66 20  .s040..'......f 
05F0: 80 17 02 05 01 17 02 05  01 74 68 6B 31 2B 17 02  .........thk1+..
0600: 05 01 3A 80 23 66 20 80  17 02 05 01 17 02 05 01  ..:.#f .........
0610: 74 68 6B 32 2B 17 02 05  01 3B 80 23 52 01 80 F8  thk2+....;.#R...
0620: FF FF 7F F8 FF FF 7F 73  30 34 30 45 01 80 F8 FF  .......s040E....
0630: FF 7F F8 FF FF 7F 73 30  34 31 02 80 27 0F 1A 02  ......s041..'...
0640: 05 01 03 2A 0F 0E 02 05  01 2B 0E 02 05 01 3C 80  ...*.....+....<.
0650: 23 52 01 80 F8 FF FF 7F  F8 FF FF 7F 73 30 34 31  #R..........s041
0660: 45 01 80 F8 FF FF 7F F8  FF FF 7F 73 30 34 33 02  E..........s043.
0670: 80 4A 0E 02 05 01 18 02  05 01 4A 18 02 05 01 0E  .J........J.....
0680: 02 05 01 6F 76 0E 02 05  01 2B 0E 02 05 01 3D 80  ...ov....+....=.
0690: 23 52 01 80 F8 FF FF 7F  F8 FF FF 7F 73 30 34 33  #R..........s043
06A0: 4E 01 17 02 05 01 45 01  80 F8 FF FF 7F F8 FF FF  N.....E.........
06B0: 7F 73 30 37 30 02 80 2B  18 02 05 01 3E 80 23 5B  .s070..+....>.#[
06C0: 3F 80 19 02 05 01 19 02  05 01 00 FE FE FE 52 01  ?.............R.
06D0: 80 F8 FF FF 7F F8 FF FF  7F 73 30 37 30 4E 00 17  .........s070N..
06E0: 02 05 01 4E 00 EF 01 05  01 4E 00 19 02 05 01 4E  ...N.....N.....N
06F0: 00 1A 02 05 01 45 01 80  F8 FF FF 7F F8 FF FF 7F  .....E..........
0700: 73 30 34 34 02 80 1C 2F  80 4A 1A 02 05 01 18 02  s044.../.J......
0710: 05 01 29 0F 19 02 05 01  04 5B 3F 80 18 02 05 01  ..)......[?.....
0720: 18 02 05 01 00 FE FE FE  5B 40 80 19 02 05 01 19  ........[@......
0730: 02 05 01 00 FE FE FE 55  01 80 F8 FF FF 7F F8 FF  .......U........
0740: FF 7F 73 30 34 34 45 01  80 F8 FF FF 7F F8 FF FF  ..s044E.........
0750: 7F 73 30 34 35 02 80 BA  18 02 05 01 41 80 42 80  .s045.......A.B.
0760: 0D 80 43 80 BA 19 02 05  01 41 80 42 80 0D 80 43  ..C......A.B...C
0770: 80 5B 3F 80 0E 02 05 01  0E 02 05 01 73 65 30 31  .[?.........se01
0780: 5B 40 80 19 02 05 01 19  02 05 01 73 74 70 7A 5B  [@.........stpz[
0790: 40 80 19 02 05 01 19 02  05 01 73 74 70 30 5B 3F  @.........stp0[?
07A0: 80 18 02 05 01 18 02 05  01 68 61 6C 30 2B 19 02  .........hal0+..
07B0: 05 01 44 80 55 01 80 F8  FF FF 7F F8 FF FF 7F 73  ..D.U..........s
07C0: 30 34 35 45 01 80 F8 FF  FF 7F F8 FF FF 7F 73 30  045E..........s0
07D0: 34 36 02 80 2B 18 02 05  01 45 80 23 55 01 80 F8  46..+....E.#U...
07E0: FF FF 7F F8 FF FF 7F 73  30 34 36 45 01 80 F8 FF  .......s046E....
07F0: FF 7F F8 FF FF 7F 73 30  34 37 02 80 27 0F 1A 02  ......s047..'...
0800: 05 01 04 5B 40 80 19 02  05 01 19 02 05 01 73 74  ...[@.........st
0810: 70 31 5B 3F 80 18 02 05  01 18 02 05 01 68 61 6C  p1[?.........hal
0820: 31 1C 2C 80 52 01 80 F8  FF FF 7F F8 FF FF 7F 73  1.,.R..........s
0830: 30 34 37 45 01 80 F8 FF  FF 7F F8 FF FF 7F 73 30  047E..........s0
0840: 36 33 02 80 4E 01 1A 02  05 01 BA 18 02 05 01 46  63..N..........F
0850: 80 47 80 0D 80 48 80 BA  19 02 05 01 46 80 47 80  .G...H......F.G.
0860: 0D 80 48 80 5B 40 80 19  02 05 01 19 02 05 01 73  ..H.[@.........s
0870: 74 70 7A 5B 40 80 19 02  05 01 19 02 05 01 73 74  tpz[@.........st
0880: 70 30 5B 3F 80 18 02 05  01 18 02 05 01 68 61 6C  p0[?.........hal
0890: 30 55 01 80 F8 FF FF 7F  F8 FF FF 7F 73 30 36 33  0U..........s063
08A0: 45 01 80 F8 FF FF 7F F8  FF FF 7F 73 30 36 34 02  E..........s064.
08B0: 80 2B 18 02 05 01 49 80  23 29 0F B8 01 05 01 04  .+....I.#)......
08C0: 5D 02 80 2C 80 1C 4A 80  55 01 80 F8 FF FF 7F F8  ]..,..J.U.......
08D0: FF FF 7F 73 30 36 34 45  01 80 F8 FF FF 7F F8 FF  ...s064E........
08E0: FF 7F 73 30 34 39 02 80  2B 0E 02 05 01 4B 80 23  ..s049..+....K.#
08F0: 1A 65 3F 52 01 80 F8 FF  FF 7F F8 FF FF 7F 73 30  .e?R..........s0
0900: 34 39 4E 01 EF 01 05 01  BA F0 FF FF 7F 4C 80 4D  49N..........L.M
0910: 80 0D 80 4E 80 BA 0E 02  05 01 4F 80 50 80 0D 80  ...N......O.P...
0920: 51 80 BA 1A 02 05 01 0B  80 0C 80 0D 80 0E 80 BA  Q...............
0930: 19 02 05 01 0F 80 10 80  0D 80 11 80 BA 17 02 05  ................
0940: 01 52 80 53 80 0D 80 54  80 BA 18 02 05 01 16 80  .R.S...T........
0950: 17 80 0D 80 18 80 BA EE  01 05 01 19 80 1A 80 05  ................
0960: 80 1B 80 BA EF 01 05 01  1C 80 1D 80 05 80 1E 80  ................
0970: 4A F0 FF FF 7F 17 02 05  01 4A 0E 02 05 01 17 02  J........J......
0980: 05 01 4A 17 02 05 01 0E  02 05 01 7B F0 FF FF 7F  ..J........{....
0990: 7B 0E 02 05 01 7B 19 02  05 01 7B 1A 02 05 01 7B  {....{....{....{
09A0: 17 02 05 01 7B 18 02 05  01 7B EE 01 05 01 7B EF  ....{....{....{.
09B0: 01 05 01 7B B8 01 05 01  1C 2F 80 5C 00 55 80 5C  ...{...../.\.U.\
09C0: 01 55 80 9A 45 01 80 F8  FF FF 7F F8 FF FF 7F 73  .U..E..........s
09D0: 30 35 30 02 80 45 1F 80  F8 FF FF 7F F8 FF FF 7F  050..E..........
09E0: 66 64 69 32 02 80 1C 2F  80 66 20 80 17 02 05 01  fdi2.../.f .....
09F0: 17 02 05 01 74 6C 6B 30  2B 17 02 05 01 56 80 23  ....tlk0+....V.#
0A00: 2B 17 02 05 01 57 80 23  52 01 80 F8 FF FF 7F F8  +....W.#R.......
0A10: FF FF 7F 73 30 35 30 45  01 80 F8 FF FF 7F F8 FF  ...s050E........
0A20: FF 7F 73 30 35 31 02 80  2B 17 02 05 01 58 80 23  ..s051..+....X.#
0A30: 66 20 80 17 02 05 01 17  02 05 01 74 6C 6B 31 1C  f .........tlk1.
0A40: 2F 80 52 01 80 F8 FF FF  7F F8 FF FF 7F 73 30 35  /.R..........s05
0A50: 31 45 01 80 F8 FF FF 7F  F8 FF FF 7F 73 30 35 32  1E..........s052
0A60: 02 80 27 0F 17 02 05 01  04 55 01 80 F8 FF FF 7F  ..'......U......
0A70: F8 FF FF 7F 73 30 35 32  45 01 80 F8 FF FF 7F F8  ....s052E.......
0A80: FF FF 7F 73 30 35 33 02  80 4E 01 17 02 05 01 4A  ...s053..N.....J
0A90: 0E 02 05 01 F0 FF FF 7F  7B 0E 02 05 01 4A F0 FF  ........{....J..
0AA0: FF 7F 0E 02 05 01 2B 0E  02 05 01 59 80 23 5B 25  ......+....Y.#[%
0AB0: 80 0E 02 05 01 0E 02 05  01 74 6C 6B 30 2B 0E 02  .........tlk0+..
0AC0: 05 01 5A 80 23 52 01 80  F8 FF FF 7F F8 FF FF 7F  ..Z.#R..........
0AD0: 73 30 35 33 45 01 80 F8  FF FF 7F F8 FF FF 7F 73  s053E..........s
0AE0: 30 35 36 02 80 5B 25 80  0E 02 05 01 0E 02 05 01  056..[%.........
0AF0: 74 6C 6B 31 1C 2F 80 2B  0E 02 05 01 5B 80 23 2B  tlk1./.+....[.#+
0B00: 0E 02 05 01 5C 80 23 52  01 80 F8 FF FF 7F F8 FF  ....\.#R........
0B10: FF 7F 73 30 35 36 45 01  80 F8 FF FF 7F F8 FF FF  ..s056E.........
0B20: 7F 73 30 35 34 02 80 2B  0E 02 05 01 5D 80 23 52  .s054..+....].#R
0B30: 01 80 F8 FF FF 7F F8 FF  FF 7F 73 30 35 34 45 01  ..........s054E.
0B40: 80 F8 FF FF 7F F8 FF FF  7F 73 30 35 37 02 80 1C  .........s057...
0B50: 2F 80 5B 25 80 0E 02 05  01 0E 02 05 01 74 6C 6B  /.[%.........tlk
0B60: 30 2B 0E 02 05 01 5E 80  23 2B 0E 02 05 01 5F 80  0+....^.#+...._.
0B70: 23 52 01 80 F8 FF FF 7F  F8 FF FF 7F 73 30 35 37  #R..........s057
0B80: 45 01 80 F8 FF FF 7F F8  FF FF 7F 73 30 35 38 02  E..........s058.
0B90: 80 2B 0E 02 05 01 60 80  23 2B 0E 02 05 01 61 80  .+....`.#+....a.
0BA0: 23 52 01 80 F8 FF FF 7F  F8 FF FF 7F 73 30 35 38  #R..........s058
0BB0: 45 01 80 F8 FF FF 7F F8  FF FF 7F 73 30 35 39 02  E..........s059.
0BC0: 80 2B 0E 02 05 01 62 80  23 52 01 80 F8 FF FF 7F  .+....b.#R......
0BD0: F8 FF FF 7F 73 30 35 39  45 01 80 F8 FF FF 7F F8  ....s059E.......
0BE0: FF FF 7F 73 30 36 30 02  80 5B 25 80 0E 02 05 01  ...s060..[%.....
0BF0: 0E 02 05 01 74 6C 6B 31  1C 32 80 29 0F 0E 02 05  ....tlk1.2.)....
0C00: 01 0E 2B 0E 02 05 01 63  80 23 52 01 80 F8 FF FF  ..+....c.#R.....
0C10: 7F F8 FF FF 7F 73 30 36  30 45 01 80 F8 FF FF 7F  .....s060E......
0C20: F8 FF FF 7F 73 30 36 31  02 80 2B 0E 02 05 01 64  ....s061..+....d
0C30: 80 23 52 01 80 F8 FF FF  7F F8 FF FF 7F 73 30 36  .#R..........s06
0C40: 31 4A 0E 02 05 01 F0 FF  FF 7F 4A F0 FF FF 7F 0E  1J........J.....
0C50: 02 05 01 7B 0E 02 05 01  45 01 80 F8 FF FF 7F F8  ...{....E.......
0C60: FF FF 7F 73 30 36 32 02  80 2B 0E 02 05 01 65 80  ...s062..+....e.
0C70: 23 24 66 80 02 80 02 80  25 02 00 10 02 80 00 F5  #$f.....%.......
0C80: 0C 6E F0 FF FF 7F 67 80  99 F0 FF FF 7F 1C 32 80  .n....g.......2.
0C90: 52 01 80 F8 FF FF 7F F8  FF FF 7F 73 30 36 32 45  R..........s062E
0CA0: 01 80 F8 FF FF 7F F8 FF  FF 7F 73 30 36 35 02 80  ..........s065..
0CB0: 5B 25 80 0E 02 05 01 0E  02 05 01 74 6C 6B 30 2B  [%.........tlk0+
0CC0: 0E 02 05 01 68 80 23 5B  25 80 0E 02 05 01 0E 02  ....h.#[%.......
0CD0: 05 01 74 6C 6B 31 2B 0E  02 05 01 69 80 23 03 02  ..tlk1+....i.#..
0CE0: 10 02 80 52 01 80 F8 FF  FF 7F F8 FF FF 7F 73 30  ...R..........s0
0CF0: 36 35 01 6E 0D 6E F0 FF  FF 7F 6A 80 99 F0 FF FF  65.n.n....j.....
0D00: 7F 1C 32 80 52 01 80 F8  FF FF 7F F8 FF FF 7F 73  ..2.R..........s
0D10: 30 36 32 45 01 80 F8 FF  FF 7F F8 FF FF 7F 73 30  062E..........s0
0D20: 36 35 02 80 5B 25 80 0E  02 05 01 0E 02 05 01 74  65..[%.........t
0D30: 6C 6B 30 2B 0E 02 05 01  6B 80 23 2B 0E 02 05 01  lk0+....k.#+....
0D40: 6C 80 23 5B 25 80 0E 02  05 01 0E 02 05 01 74 6C  l.#[%.........tl
0D50: 6B 31 2B 0E 02 05 01 6D  80 23 03 02 10 6E 80 52  k1+....m.#...n.R
0D60: 01 80 F8 FF FF 7F F8 FF  FF 7F 73 30 36 35 45 01  ..........s065E.
0D70: 80 F8 FF FF 7F F8 FF FF  7F 73 30 36 36 02 80 5B  .........s066..[
0D80: 25 80 0E 02 05 01 0E 02  05 01 74 68 6B 30 2B 0E  %.........thk0+.
0D90: 02 05 01 6F 80 23 5B 25  80 0E 02 05 01 0E 02 05  ...o.#[%........
0DA0: 01 74 68 6B 31 1C 27 80  2B 0E 02 05 01 70 80 23  .thk1.'.+....p.#
0DB0: 52 01 80 F8 FF FF 7F F8  FF FF 7F 73 30 36 36 45  R..........s066E
0DC0: 01 80 F8 FF FF 7F F8 FF  FF 7F 73 30 36 37 02 80  ..........s067..
0DD0: 03 25 10 71 80 03 27 10  72 80 03 26 10 0D 80 03  .%.q..'.r..&....
0DE0: 28 10 73 80 29 0F 0E 02  05 01 13 2B 0E 02 05 01  (.s.)......+....
0DF0: 74 80 23 2B 0E 02 05 01  75 80 23 2B 0E 02 05 01  t.#+....u.#+....
0E00: 76 80 23 52 01 80 F8 FF  FF 7F F8 FF FF 7F 73 30  v.#R..........s0
0E10: 36 37 45 01 80 F8 FF FF  7F F8 FF FF 7F 73 30 36  67E..........s06
0E20: 38 02 80 03 25 10 77 80  03 27 10 78 80 03 26 10  8...%.w..'.x..&.
0E30: 0D 80 03 28 10 79 80 29  0F 0E 02 05 01 13 4A 0E  ...(.y.)......J.
0E40: 02 05 01 F0 FF FF 7F 7B  0E 02 05 01 02 02 10 02  .......{........
0E50: 80 00 5F 0E 2B 0E 02 05  01 7A 80 23 01 67 0E 2B  .._.+....z.#.g.+
0E60: 0E 02 05 01 7B 80 23 52  01 80 F8 FF FF 7F F8 FF  ....{.#R........
0E70: FF 7F 73 30 36 38 45 01  80 F8 FF FF 7F F8 FF FF  ..s068E.........
0E80: 7F 73 30 36 39 02 80 27  0F 0E 02 05 01 0F 1C 4A  .s069..'.......J
0E90: 80 1A 65 3F 55 01 80 F8  FF FF 7F F8 FF FF 7F 73  ..e?U..........s
0EA0: 30 36 39 5D 02 80 2C 80  5C 00 7C 80 5C 01 7C 80  069]..,.\.|.\.|.
0EB0: 9A 46 00 45 1F 80 F0 FF  FF 7F F0 FF FF 7F 66 64  .F.E..........fd
0EC0: 69 32 02 80 21 00                                 i2..!.          
```

#### Opcodes

```
  0: 0x0001 [0x42] SET_CLI_EVENT_CANCEL_DATA()
  1: 0x0002 [0x20] SET_CLI_EVENT_UC_FLAG: Lock player control
  2: 0x0004 [0x46] CAMERA_CONTROL: Disable user control
  3: 0x0006 [0x1A] CALL_SUBROUTINE(address=0x3F65)
  4: 0x0009 [0x38] SET_CLIENT_EVENT_MODE(mode=19*)
  5: 0x000C [0x45] LOAD_SCHEDULED_TASK: Load scheduler "s219" with entities [EventEntity, EventEntity], work=[356*, 0*]
  6: 0x001D [0x29] REQ_SET_WAIT(priority=0x0F, entity_id=_288 (ID: 17105336/0x010501B8), tag_num=0x04)
  7: 0x0024 [0x92] Altennia (ID: 17105422/0x0105020E)->Render.Flags3 ^= 0x01
  8: 0x002A [0x92] Estavoille (ID: 17105433/0x01050219)->Render.Flags3 ^= 0x01
  9: 0x0030 [0x92] Raphaillance (ID: 17105434/0x0105021A)->Render.Flags3 ^= 0x01
 10: 0x0036 [0x92] Phillieulais S Dieuffon (ID: 17105431/0x01050217)->Render.Flags3 ^= 0x01
 11: 0x003C [0x92] Halver M Borel (ID: 17105432/0x01050218)->Render.Flags3 ^= 0x01
 12: 0x0042 [0x92] Aissaville (ID: 17105390/0x010501EE)->Render.Flags3 ^= 0x01
 13: 0x0048 [0x92] Raustigne (ID: 17105391/0x010501EF)->Render.Flags3 ^= 0x01
 14: 0x004E [0x92] _288 (ID: 17105336/0x010501B8)->Render.Flags3 ^= 0x01
 15: 0x0054 [0x94] Altennia (ID: 17105422/0x0105020E)->Render.Flags3 ^= 0x01
 16: 0x005A [0x94] Estavoille (ID: 17105433/0x01050219)->Render.Flags3 ^= 0x01
 17: 0x0060 [0x94] Raphaillance (ID: 17105434/0x0105021A)->Render.Flags3 ^= 0x01
 18: 0x0066 [0x94] Phillieulais S Dieuffon (ID: 17105431/0x01050217)->Render.Flags3 ^= 0x01
 19: 0x006C [0x94] Halver M Borel (ID: 17105432/0x01050218)->Render.Flags3 ^= 0x01
 20: 0x0072 [0x94] Aissaville (ID: 17105390/0x010501EE)->Render.Flags3 ^= 0x01
 21: 0x0078 [0x94] Raustigne (ID: 17105391/0x010501EF)->Render.Flags3 ^= 0x01
 22: 0x007E [0x55] WAIT_LOAD_SCHEDULER: Wait for scheduler "s219" with entities [EventEntity, EventEntity], work=356*
 23: 0x008D [0x79] LocalPlayer looks at LocalPlayer (Basic look)
 24: 0x0097 [0xBA] SET_ENTITY_POSITION(entity_id=LocalPlayer, pos_x=3.790*, pos_z=42.542*, pos_y=-1.999*, direction=280.7°*)
 25: 0x00A4 [0xBA] SET_ENTITY_POSITION(entity_id=Altennia (ID: 17105422/0x0105020E), pos_x=0.416*, pos_z=37.744*, pos_y=-1.633*, direction=291.2°*)
 26: 0x00B1 [0xBA] SET_ENTITY_POSITION(entity_id=Raphaillance (ID: 17105434/0x0105021A), pos_x=-1.149*, pos_z=54.662*, pos_y=-2.000*, direction=247.1°*)
 27: 0x00BE [0xBA] SET_ENTITY_POSITION(entity_id=Estavoille (ID: 17105433/0x01050219), pos_x=1.138*, pos_z=54.779*, pos_y=-2.000*, direction=104.1°*)
 28: 0x00CB [0xBA] SET_ENTITY_POSITION(entity_id=Phillieulais S Dieuffon (ID: 17105431/0x01050217), pos_x=-1.051*, pos_z=37.758*, pos_y=-1.637*, direction=283.0°*)
 29: 0x00D8 [0xBA] SET_ENTITY_POSITION(entity_id=Halver M Borel (ID: 17105432/0x01050218), pos_x=-0.017*, pos_z=52.910*, pos_y=-2.000*, direction=86.3°*)
 30: 0x00E5 [0xBA] SET_ENTITY_POSITION(entity_id=Aissaville (ID: 17105390/0x010501EE), pos_x=-3.484*, pos_z=44.227*, pos_y=-1.999*, direction=91.8°*)
 31: 0x00F2 [0xBA] SET_ENTITY_POSITION(entity_id=Raustigne (ID: 17105391/0x010501EF), pos_x=3.979*, pos_z=44.456*, pos_y=-1.999*, direction=97.4°*)
 32: 0x00FF [0x4A] Phillieulais S Dieuffon (ID: 17105431/0x01050217) looks at Raustigne (ID: 17105391/0x010501EF)
 33: 0x0108 [0x4A] Altennia (ID: 17105422/0x0105020E) looks at Raustigne (ID: 17105391/0x010501EF)
 34: 0x0111 [0x7B] LocalPlayer stops talking
 35: 0x0116 [0x7B] Altennia (ID: 17105422/0x0105020E) stops talking
 36: 0x011B [0x7B] Estavoille (ID: 17105433/0x01050219) stops talking
 37: 0x0120 [0x7B] Raphaillance (ID: 17105434/0x0105021A) stops talking
 38: 0x0125 [0x7B] Phillieulais S Dieuffon (ID: 17105431/0x01050217) stops talking
 39: 0x012A [0x7B] Halver M Borel (ID: 17105432/0x01050218) stops talking
 40: 0x012F [0x7B] Aissaville (ID: 17105390/0x010501EE) stops talking
 41: 0x0134 [0x7B] Raustigne (ID: 17105391/0x010501EF) stops talking
 42: 0x0139 [0x4E] SET_ENTITY_HIDE_FLAG: Show Altennia (ID: 17105422/0x0105020E)
 43: 0x013F [0x4E] SET_ENTITY_HIDE_FLAG: Hide Estavoille (ID: 17105433/0x01050219)
 44: 0x0145 [0x4E] SET_ENTITY_HIDE_FLAG: Hide Raphaillance (ID: 17105434/0x0105021A)
 45: 0x014B [0x4E] SET_ENTITY_HIDE_FLAG: Show Phillieulais S Dieuffon (ID: 17105431/0x01050217)
 46: 0x0151 [0x4E] SET_ENTITY_HIDE_FLAG: Show Halver M Borel (ID: 17105432/0x01050218)
 47: 0x0157 [0x4E] SET_ENTITY_HIDE_FLAG: Hide Aissaville (ID: 17105390/0x010501EE)
 48: 0x015D [0x4E] SET_ENTITY_HIDE_FLAG: Show Raustigne (ID: 17105391/0x010501EF)
 49: 0x0163 [0x80] LOAD_WAIT(entity=Altennia (ID: 17105422/0x0105020E))
 50: 0x0168 [0x80] LOAD_WAIT(entity=Estavoille (ID: 17105433/0x01050219))
 51: 0x016D [0x80] LOAD_WAIT(entity=Raphaillance (ID: 17105434/0x0105021A))
 52: 0x0172 [0x80] LOAD_WAIT(entity=Phillieulais S Dieuffon (ID: 17105431/0x01050217))
 53: 0x0177 [0x80] LOAD_WAIT(entity=Halver M Borel (ID: 17105432/0x01050218))
 54: 0x017C [0x80] LOAD_WAIT(entity=Aissaville (ID: 17105390/0x010501EE))
 55: 0x0181 [0x80] LOAD_WAIT(entity=Raustigne (ID: 17105391/0x010501EF))
 56: 0x0186 [0x45] LOAD_SCHEDULED_TASK: Load scheduler "s028" with entities [EventEntity, EventEntity], work=[356*, 0*]
 57: 0x0197 [0x45] LOAD_SCHEDULED_TASK: Load scheduler "fdi2" with entities [EventEntity, EventEntity], work=[200*, 0*]
 58: 0x01A8 [0x66] LOAD_EXT_SCHEDULER_MAIN: Load scheduler "tlk0" with entities [Raustigne (ID: 17105391/0x010501EF), Raustigne (ID: 17105391/0x010501EF)], work=29*
 59: 0x01B7 [0x2B] Raustigne (ID: 17105391/0x010501EF) [12368*]:
    → "Access beyond the Victory Gate is not permitted at this time."
 60: 0x01BE [0x23] WAIT_FOR_DIALOG_INTERACTION
 61: 0x01BF [0x66] LOAD_EXT_SCHEDULER_MAIN: Load scheduler "tlk1" with entities [Raustigne (ID: 17105391/0x010501EF), Raustigne (ID: 17105391/0x010501EF)], work=29*
 62: 0x01CE [0x27] REQ_SET(priority=0x0F, entity_id=Altennia (ID: 17105422/0x0105020E), tag_num=0x0C)
 63: 0x01D5 [0x27] REQ_SET(priority=0x0F, entity_id=Phillieulais S Dieuffon (ID: 17105431/0x01050217), tag_num=0x02)
 64: 0x01DC [0x1C] WAIT(30* ticks)
 65: 0x01DF [0x52] END_LOAD_SCHEDULER: End scheduler "s028" with entities [EventEntity, EventEntity], work=356*
 66: 0x01EE [0x45] LOAD_SCHEDULED_TASK: Load scheduler "s029" with entities [EventEntity, EventEntity], work=[356*, 0*]
 67: 0x01FF [0x1C] WAIT(150* ticks)
 68: 0x0202 [0x27] REQ_SET(priority=0x0F, entity_id=Raustigne (ID: 17105391/0x010501EF), tag_num=0x03)
 69: 0x0209 [0x52] END_LOAD_SCHEDULER: End scheduler "s029" with entities [EventEntity, EventEntity], work=356*
 70: 0x0218 [0x45] LOAD_SCHEDULED_TASK: Load scheduler "s030" with entities [EventEntity, EventEntity], work=[356*, 0*]
 71: 0x0229 [0x4A] LocalPlayer looks at Altennia (ID: 17105422/0x0105020E)
 72: 0x0232 [0x2A] GET_REQ_LEVEL(level=15, entity_id=Raustigne (ID: 17105391/0x010501EF))
 73: 0x0238 [0x66] LOAD_EXT_SCHEDULER_MAIN: Load scheduler "tlk0" with entities [Raustigne (ID: 17105391/0x010501EF), Raustigne (ID: 17105391/0x010501EF)], work=29*
 74: 0x0247 [0x2B] Raustigne (ID: 17105391/0x010501EF) [12369*]:
    → "Why, Viscount Dieuffon and Squire Altennia!"
 75: 0x024E [0x23] WAIT_FOR_DIALOG_INTERACTION
 76: 0x024F [0x66] LOAD_EXT_SCHEDULER_MAIN: Load scheduler "tlk1" with entities [Raustigne (ID: 17105391/0x010501EF), Raustigne (ID: 17105391/0x010501EF)], work=29*
 77: 0x025E [0x5B] LOAD_EXT_SCHEDULER: Load scheduler "tlk0" with entities [Altennia (ID: 17105422/0x0105020E), Altennia (ID: 17105422/0x0105020E)], work=1334*
 78: 0x026D [0x2B] Altennia (ID: 17105422/0x0105020E) [12370*]:
    → "Good day, Raustigne."
 79: 0x0274 [0x23] WAIT_FOR_DIALOG_INTERACTION
 80: 0x0275 [0x5B] LOAD_EXT_SCHEDULER: Load scheduler "tlk1" with entities [Altennia (ID: 17105422/0x0105020E), Altennia (ID: 17105422/0x0105020E)], work=1334*
 81: 0x0284 [0x1C] WAIT(90* ticks)
 82: 0x0287 [0x52] END_LOAD_SCHEDULER: End scheduler "s030" with entities [EventEntity, EventEntity], work=356*
 83: 0x0296 [0x45] LOAD_SCHEDULED_TASK: Load scheduler "s031" with entities [EventEntity, EventEntity], work=[356*, 0*]
 84: 0x02A7 [0x4A] Altennia (ID: 17105422/0x0105020E) looks at LocalPlayer
 85: 0x02B0 [0x7B] Altennia (ID: 17105422/0x0105020E) stops talking
 86: 0x02B5 [0x6F] WAIT_FRAME_DELAY: Yield until WaitTime reaches zero
 87: 0x02B6 [0x76] CHECK_ENTITY_RENDER_FLAGS: Wait until Altennia (ID: 17105422/0x0105020E) Render.Flags0 and Render.Flags3 conditions are met
 88: 0x02BB [0x2B] Altennia (ID: 17105422/0x0105020E) [12371*]:
    → "Oh, and <Player> as well. I am pleased to see you again."
 89: 0x02C2 [0x23] WAIT_FOR_DIALOG_INTERACTION
 90: 0x02C3 [0x52] END_LOAD_SCHEDULER: End scheduler "s031" with entities [EventEntity, EventEntity], work=356*
 91: 0x02D2 [0x45] LOAD_SCHEDULED_TASK: Load scheduler "s032" with entities [EventEntity, EventEntity], work=[356*, 0*]
 92: 0x02E3 [0x4A] Phillieulais S Dieuffon (ID: 17105431/0x01050217) looks at LocalPlayer
 93: 0x02EC [0x7B] Phillieulais S Dieuffon (ID: 17105431/0x01050217) stops talking
 94: 0x02F1 [0x5B] LOAD_EXT_SCHEDULER: Load scheduler "sho0" with entities [Altennia (ID: 17105422/0x0105020E), Altennia (ID: 17105422/0x0105020E)], work=1339*
 95: 0x0300 [0x2B] Altennia (ID: 17105422/0x0105020E) [12372*]:
    → "Please allow me to introduce Viscount Phillieulais S Dieuffon, lieutenant of the Royal Guards."
 96: 0x0307 [0x23] WAIT_FOR_DIALOG_INTERACTION
 97: 0x0308 [0x5B] LOAD_EXT_SCHEDULER: Load scheduler "sho1" with entities [Altennia (ID: 17105422/0x0105020E), Altennia (ID: 17105422/0x0105020E)], work=1339*
 98: 0x0317 [0x52] END_LOAD_SCHEDULER: End scheduler "s032" with entities [EventEntity, EventEntity], work=356*
 99: 0x0326 [0x45] LOAD_SCHEDULED_TASK: Load scheduler "s042" with entities [EventEntity, EventEntity], work=[356*, 0*]
100: 0x0337 [0x66] LOAD_EXT_SCHEDULER_MAIN: Load scheduler "tlk0" with entities [Phillieulais S Dieuffon (ID: 17105431/0x01050217), Phillieulais S Dieuffon (ID: 17105431/0x01050217)], work=29*
101: 0x0346 [0x2B] Phillieulais S Dieuffon (ID: 17105431/0x01050217) [12373*]:
    → "It is a pleasure to meet you, <Player>. Hm...?"
102: 0x034D [0x23] WAIT_FOR_DIALOG_INTERACTION
103: 0x034E [0x66] LOAD_EXT_SCHEDULER_MAIN: Load scheduler "tlk1" with entities [Phillieulais S Dieuffon (ID: 17105431/0x01050217), Phillieulais S Dieuffon (ID: 17105431/0x01050217)], work=29*
104: 0x035D [0x52] END_LOAD_SCHEDULER: End scheduler "s042" with entities [EventEntity, EventEntity], work=356*
105: 0x036C [0x5D] SET_MUSIC_VOLUME(volume=0*, fade_time=240*)
106: 0x0371 [0x45] LOAD_SCHEDULED_TASK: Load scheduler "s033" with entities [EventEntity, EventEntity], work=[356*, 0*]
107: 0x0382 [0x27] REQ_SET(priority=0x0F, entity_id=_288 (ID: 17105336/0x010501B8), tag_num=0x03)
108: 0x0389 [0x4A] LocalPlayer looks at Halver M Borel (ID: 17105432/0x01050218)
109: 0x0392 [0x4A] Raustigne (ID: 17105391/0x010501EF) looks at Halver M Borel (ID: 17105432/0x01050218)
110: 0x039B [0x4A] Phillieulais S Dieuffon (ID: 17105431/0x01050217) looks at Halver M Borel (ID: 17105432/0x01050218)
111: 0x03A4 [0x4A] Altennia (ID: 17105422/0x0105020E) looks at Halver M Borel (ID: 17105432/0x01050218)
112: 0x03AD [0x55] WAIT_LOAD_SCHEDULER: Wait for scheduler "s033" with entities [EventEntity, EventEntity], work=356*
113: 0x03BC [0x45] LOAD_SCHEDULED_TASK: Load scheduler "s213" with entities [EventEntity, EventEntity], work=[356*, 0*]
114: 0x03CD [0x2B] Raustigne (ID: 17105391/0x010501EF) [12374*]:
    → "What in the name of Altana!?"
115: 0x03D4 [0x23] WAIT_FOR_DIALOG_INTERACTION
116: 0x03D5 [0x55] WAIT_LOAD_SCHEDULER: Wait for scheduler "s213" with entities [EventEntity, EventEntity], work=356*
117: 0x03E4 [0x5C] MUSIC_CONTROL: Set Idle (Day) music to song 163*
118: 0x03E8 [0x5C] MUSIC_CONTROL: Set Idle (Night) music to song 163*
119: 0x03EC [0x9A] WAIT_MUSIC_SERVER()
120: 0x03ED [0x27] REQ_SET(priority=0x0F, entity_id=Halver M Borel (ID: 17105432/0x01050218), tag_num=0x03)
121: 0x03F4 [0x1C] WAIT(30* ticks)
122: 0x03F7 [0x45] LOAD_SCHEDULED_TASK: Load scheduler "s034" with entities [EventEntity, EventEntity], work=[356*, 0*]
123: 0x0408 [0x55] WAIT_LOAD_SCHEDULER: Wait for scheduler "s034" with entities [EventEntity, EventEntity], work=356*
124: 0x0417 [0x45] LOAD_SCHEDULED_TASK: Load scheduler "s035" with entities [EventEntity, EventEntity], work=[356*, 0*]
125: 0x0428 [0x4E] SET_ENTITY_HIDE_FLAG: Show Estavoille (ID: 17105433/0x01050219)
126: 0x042E [0x4E] SET_ENTITY_HIDE_FLAG: Show Raphaillance (ID: 17105434/0x0105021A)
127: 0x0434 [0x27] REQ_SET(priority=0x0F, entity_id=Estavoille (ID: 17105433/0x01050219), tag_num=0x02)
128: 0x043B [0x1C] WAIT(60* ticks)
129: 0x043E [0x27] REQ_SET(priority=0x0F, entity_id=Raphaillance (ID: 17105434/0x0105021A), tag_num=0x02)
130: 0x0445 [0x55] WAIT_LOAD_SCHEDULER: Wait for scheduler "s035" with entities [EventEntity, EventEntity], work=356*
131: 0x0454 [0x45] LOAD_SCHEDULED_TASK: Load scheduler "s036" with entities [EventEntity, EventEntity], work=[356*, 0*]
132: 0x0465 [0x2A] GET_REQ_LEVEL(level=15, entity_id=Raphaillance (ID: 17105434/0x0105021A))
133: 0x046B [0x6E] Halver M Borel (ID: 17105432/0x01050218) uses emote 25*
134: 0x0472 [0x99] Wait for Halver M Borel (ID: 17105432/0x01050218) animation to complete
135: 0x0477 [0x2B] ??? (ID: 17105471/0x0105023F) [12375*]:
    → "You will stand down this instant! I will join that accursed First Regiment... Let me join...in my sister's stead!"
136: 0x047E [0x23] WAIT_FOR_DIALOG_INTERACTION
137: 0x047F [0x1C] WAIT(120* ticks)
138: 0x0482 [0x66] LOAD_EXT_SCHEDULER_MAIN: Load scheduler "tlk0" with entities [Estavoille (ID: 17105433/0x01050219), Estavoille (ID: 17105433/0x01050219)], work=29*
139: 0x0491 [0x2B] Estavoille (ID: 17105433/0x01050219) [12376*]:
    → "Milord, we beg you!"
140: 0x0498 [0x23] WAIT_FOR_DIALOG_INTERACTION
141: 0x0499 [0x66] LOAD_EXT_SCHEDULER_MAIN: Load scheduler "tlk1" with entities [Estavoille (ID: 17105433/0x01050219), Estavoille (ID: 17105433/0x01050219)], work=29*
142: 0x04A8 [0x66] LOAD_EXT_SCHEDULER_MAIN: Load scheduler "tlk0" with entities [Raphaillance (ID: 17105434/0x0105021A), Raphaillance (ID: 17105434/0x0105021A)], work=29*
143: 0x04B7 [0x2B] Raphaillance (ID: 17105434/0x0105021A) [12377*]:
    → "Please, you must return with us to the chateau!"
144: 0x04BE [0x23] WAIT_FOR_DIALOG_INTERACTION
145: 0x04BF [0x66] LOAD_EXT_SCHEDULER_MAIN: Load scheduler "tlk1" with entities [Raphaillance (ID: 17105434/0x0105021A), Raphaillance (ID: 17105434/0x0105021A)], work=29*
146: 0x04CE [0x52] END_LOAD_SCHEDULER: End scheduler "s036" with entities [EventEntity, EventEntity], work=356*
147: 0x04DD [0x45] LOAD_SCHEDULED_TASK: Load scheduler "s037" with entities [EventEntity, EventEntity], work=[356*, 0*]
148: 0x04EE [0x27] REQ_SET(priority=0x0F, entity_id=Estavoille (ID: 17105433/0x01050219), tag_num=0x03)
149: 0x04F5 [0x2B] Halver M Borel (ID: 17105432/0x01050218) [12378*]:
    → "Arrrgh! Stand down, I said! What part of that command do you two not understand!?"
150: 0x04FC [0x23] WAIT_FOR_DIALOG_INTERACTION
151: 0x04FD [0x55] WAIT_LOAD_SCHEDULER: Wait for scheduler "s037" with entities [EventEntity, EventEntity], work=356*
152: 0x050C [0x45] LOAD_SCHEDULED_TASK: Load scheduler "s038" with entities [EventEntity, EventEntity], work=[356*, 0*]
153: 0x051D [0x27] REQ_SET(priority=0x0F, entity_id=Phillieulais S Dieuffon (ID: 17105431/0x01050217), tag_num=0x03)
154: 0x0524 [0x2B] Phillieulais S Dieuffon (ID: 17105431/0x01050217) [12379*]:
    → "My dear Count Borel, what be the reason for this commotion?"
155: 0x052B [0x23] WAIT_FOR_DIALOG_INTERACTION
156: 0x052C [0x2A] GET_REQ_LEVEL(level=15, entity_id=Phillieulais S Dieuffon (ID: 17105431/0x01050217))
157: 0x0532 [0x66] LOAD_EXT_SCHEDULER_MAIN: Load scheduler "tlk0" with entities [Phillieulais S Dieuffon (ID: 17105431/0x01050217), Phillieulais S Dieuffon (ID: 17105431/0x01050217)], work=29*
158: 0x0541 [0x2B] Phillieulais S Dieuffon (ID: 17105431/0x01050217) [12380*]:
    → "This behavior befits not a person of your standing. If you do not compose yourself, the Temple Knights shall have no choice but to attend to you."
159: 0x0548 [0x23] WAIT_FOR_DIALOG_INTERACTION
160: 0x0549 [0x66] LOAD_EXT_SCHEDULER_MAIN: Load scheduler "tlk1" with entities [Phillieulais S Dieuffon (ID: 17105431/0x01050217), Phillieulais S Dieuffon (ID: 17105431/0x01050217)], work=29*
161: 0x0558 [0x52] END_LOAD_SCHEDULER: End scheduler "s038" with entities [EventEntity, EventEntity], work=356*
162: 0x0567 [0x4E] SET_ENTITY_HIDE_FLAG: Hide Raustigne (ID: 17105391/0x010501EF)
163: 0x056D [0x4E] SET_ENTITY_HIDE_FLAG: Hide Estavoille (ID: 17105433/0x01050219)
164: 0x0573 [0x4E] SET_ENTITY_HIDE_FLAG: Hide Raphaillance (ID: 17105434/0x0105021A)
165: 0x0579 [0x45] LOAD_SCHEDULED_TASK: Load scheduler "s039" with entities [EventEntity, EventEntity], work=[356*, 0*]
166: 0x058A [0x4A] Halver M Borel (ID: 17105432/0x01050218) looks at Phillieulais S Dieuffon (ID: 17105431/0x01050217)
167: 0x0593 [0x6F] WAIT_FRAME_DELAY: Yield until WaitTime reaches zero
168: 0x0594 [0x76] CHECK_ENTITY_RENDER_FLAGS: Wait until Halver M Borel (ID: 17105432/0x01050218) Render.Flags0 and Render.Flags3 conditions are met
169: 0x0599 [0x66] LOAD_EXT_SCHEDULER_MAIN: Load scheduler "tlk0" with entities [Halver M Borel (ID: 17105432/0x01050218), Halver M Borel (ID: 17105432/0x01050218)], work=29*
170: 0x05A8 [0x2B] Halver M Borel (ID: 17105432/0x01050218) [12381*]:
    → "Phillieulais! You may be my childhood friend, but this matter concerns you not!"
171: 0x05AF [0x23] WAIT_FOR_DIALOG_INTERACTION
172: 0x05B0 [0x2B] Halver M Borel (ID: 17105432/0x01050218) [12382*]:
    → "M-my beloved sister... I will not stand by and watch her march off to Garlaige Citadel!"
173: 0x05B7 [0x23] WAIT_FOR_DIALOG_INTERACTION
174: 0x05B8 [0x66] LOAD_EXT_SCHEDULER_MAIN: Load scheduler "tlk1" with entities [Halver M Borel (ID: 17105432/0x01050218), Halver M Borel (ID: 17105432/0x01050218)], work=29*
175: 0x05C7 [0x52] END_LOAD_SCHEDULER: End scheduler "s039" with entities [EventEntity, EventEntity], work=356*
176: 0x05D6 [0x45] LOAD_SCHEDULED_TASK: Load scheduler "s040" with entities [EventEntity, EventEntity], work=[356*, 0*]
177: 0x05E7 [0x27] REQ_SET(priority=0x0F, entity_id=Altennia (ID: 17105422/0x0105020E), tag_num=0x0D)
178: 0x05EE [0x66] LOAD_EXT_SCHEDULER_MAIN: Load scheduler "thk1" with entities [Phillieulais S Dieuffon (ID: 17105431/0x01050217), Phillieulais S Dieuffon (ID: 17105431/0x01050217)], work=29*
179: 0x05FD [0x2B] Phillieulais S Dieuffon (ID: 17105431/0x01050217) [12383*]:
    → "I see..."
180: 0x0604 [0x23] WAIT_FOR_DIALOG_INTERACTION
181: 0x0605 [0x66] LOAD_EXT_SCHEDULER_MAIN: Load scheduler "thk2" with entities [Phillieulais S Dieuffon (ID: 17105431/0x01050217), Phillieulais S Dieuffon (ID: 17105431/0x01050217)], work=29*
182: 0x0614 [0x2B] Phillieulais S Dieuffon (ID: 17105431/0x01050217) [12384*]:
    → "Count Borel... Halver... I do not deny that His Majesty's counteroffensive strategy will be fraught with danger. But as Altennia's own flesh and blood, surely you understand her feelings, her desire to protect and serve her nation."
183: 0x061B [0x23] WAIT_FOR_DIALOG_INTERACTION
184: 0x061C [0x52] END_LOAD_SCHEDULER: End scheduler "s040" with entities [EventEntity, EventEntity], work=356*
185: 0x062B [0x45] LOAD_SCHEDULED_TASK: Load scheduler "s041" with entities [EventEntity, EventEntity], work=[356*, 0*]
186: 0x063C [0x27] REQ_SET(priority=0x0F, entity_id=Raphaillance (ID: 17105434/0x0105021A), tag_num=0x03)
187: 0x0643 [0x2A] GET_REQ_LEVEL(level=15, entity_id=Altennia (ID: 17105422/0x0105020E))
188: 0x0649 [0x2B] Altennia (ID: 17105422/0x0105020E) [12385*]:
    → "Thank you for your kind words, sir."
189: 0x0650 [0x23] WAIT_FOR_DIALOG_INTERACTION
190: 0x0651 [0x52] END_LOAD_SCHEDULER: End scheduler "s041" with entities [EventEntity, EventEntity], work=356*
191: 0x0660 [0x45] LOAD_SCHEDULED_TASK: Load scheduler "s043" with entities [EventEntity, EventEntity], work=[356*, 0*]
192: 0x0671 [0x4A] Altennia (ID: 17105422/0x0105020E) looks at Halver M Borel (ID: 17105432/0x01050218)
193: 0x067A [0x4A] Halver M Borel (ID: 17105432/0x01050218) looks at Altennia (ID: 17105422/0x0105020E)
194: 0x0683 [0x6F] WAIT_FRAME_DELAY: Yield until WaitTime reaches zero
195: 0x0684 [0x76] CHECK_ENTITY_RENDER_FLAGS: Wait until Altennia (ID: 17105422/0x0105020E) Render.Flags0 and Render.Flags3 conditions are met
196: 0x0689 [0x2B] Altennia (ID: 17105422/0x0105020E) [12386*]:
    → "No harm will come to me, dear brother. You are aware of my proficiency with polearms better than any other."
197: 0x0690 [0x23] WAIT_FOR_DIALOG_INTERACTION
198: 0x0691 [0x52] END_LOAD_SCHEDULER: End scheduler "s043" with entities [EventEntity, EventEntity], work=356*
199: 0x06A0 [0x4E] SET_ENTITY_HIDE_FLAG: Hide Phillieulais S Dieuffon (ID: 17105431/0x01050217)
200: 0x06A6 [0x45] LOAD_SCHEDULED_TASK: Load scheduler "s070" with entities [EventEntity, EventEntity], work=[356*, 0*]
201: 0x06B7 [0x2B] Halver M Borel (ID: 17105432/0x01050218) [12387*]:
    → "B-but, Altennia..."
202: 0x06BE [0x23] WAIT_FOR_DIALOG_INTERACTION
203: 0x06BF [0x5B] LOAD_EXT_SCHEDULER: Load scheduler 0xFEFEFE00 with entities [Estavoille (ID: 17105433/0x01050219), Estavoille (ID: 17105433/0x01050219)], work=1362*
204: 0x06CE [0x52] END_LOAD_SCHEDULER: End scheduler "s070" with entities [EventEntity, EventEntity], work=356*
205: 0x06DD [0x4E] SET_ENTITY_HIDE_FLAG: Show Phillieulais S Dieuffon (ID: 17105431/0x01050217)
206: 0x06E3 [0x4E] SET_ENTITY_HIDE_FLAG: Show Raustigne (ID: 17105391/0x010501EF)
207: 0x06E9 [0x4E] SET_ENTITY_HIDE_FLAG: Show Estavoille (ID: 17105433/0x01050219)
208: 0x06EF [0x4E] SET_ENTITY_HIDE_FLAG: Show Raphaillance (ID: 17105434/0x0105021A)
209: 0x06F5 [0x45] LOAD_SCHEDULED_TASK: Load scheduler "s044" with entities [EventEntity, EventEntity], work=[356*, 0*]
210: 0x0706 [0x1C] WAIT(60* ticks)
211: 0x0709 [0x4A] Raphaillance (ID: 17105434/0x0105021A) looks at Halver M Borel (ID: 17105432/0x01050218)
212: 0x0712 [0x29] REQ_SET_WAIT(priority=0x0F, entity_id=Estavoille (ID: 17105433/0x01050219), tag_num=0x04)
213: 0x0719 [0x5B] LOAD_EXT_SCHEDULER: Load scheduler 0xFEFEFE00 with entities [Halver M Borel (ID: 17105432/0x01050218), Halver M Borel (ID: 17105432/0x01050218)], work=1362*
214: 0x0728 [0x5B] LOAD_EXT_SCHEDULER: Load scheduler 0xFEFEFE00 with entities [Estavoille (ID: 17105433/0x01050219), Estavoille (ID: 17105433/0x01050219)], work=1363*
215: 0x0737 [0x55] WAIT_LOAD_SCHEDULER: Wait for scheduler "s044" with entities [EventEntity, EventEntity], work=356*
216: 0x0746 [0x45] LOAD_SCHEDULED_TASK: Load scheduler "s045" with entities [EventEntity, EventEntity], work=[356*, 0*]
217: 0x0757 [0xBA] SET_ENTITY_POSITION(entity_id=Halver M Borel (ID: 17105432/0x01050218), pos_x=0.128*, pos_z=47.763*, pos_y=-2.000*, direction=87.9°*)
218: 0x0764 [0xBA] SET_ENTITY_POSITION(entity_id=Estavoille (ID: 17105433/0x01050219), pos_x=0.128*, pos_z=47.763*, pos_y=-2.000*, direction=87.9°*)
219: 0x0771 [0x5B] LOAD_EXT_SCHEDULER: Load scheduler "se01" with entities [Altennia (ID: 17105422/0x0105020E), Altennia (ID: 17105422/0x0105020E)], work=1362*
220: 0x0780 [0x5B] LOAD_EXT_SCHEDULER: Load scheduler "stpz" with entities [Estavoille (ID: 17105433/0x01050219), Estavoille (ID: 17105433/0x01050219)], work=1363*
221: 0x078F [0x5B] LOAD_EXT_SCHEDULER: Load scheduler "stp0" with entities [Estavoille (ID: 17105433/0x01050219), Estavoille (ID: 17105433/0x01050219)], work=1363*
222: 0x079E [0x5B] LOAD_EXT_SCHEDULER: Load scheduler "hal0" with entities [Halver M Borel (ID: 17105432/0x01050218), Halver M Borel (ID: 17105432/0x01050218)], work=1362*
223: 0x07AD [0x2B] Estavoille (ID: 17105433/0x01050219) [12388*]:
    → "Please forgive us, milord! We must now escort you back to the chateau!"
224: 0x07B4 [0x55] WAIT_LOAD_SCHEDULER: Wait for scheduler "s045" with entities [EventEntity, EventEntity], work=356*
225: 0x07C3 [0x45] LOAD_SCHEDULED_TASK: Load scheduler "s046" with entities [EventEntity, EventEntity], work=[356*, 0*]
226: 0x07D4 [0x2B] Halver M Borel (ID: 17105432/0x01050218) [12389*]:
    → "Altennia! Nooooooooo!!!"
227: 0x07DB [0x23] WAIT_FOR_DIALOG_INTERACTION
228: 0x07DC [0x55] WAIT_LOAD_SCHEDULER: Wait for scheduler "s046" with entities [EventEntity, EventEntity], work=356*
229: 0x07EB [0x45] LOAD_SCHEDULED_TASK: Load scheduler "s047" with entities [EventEntity, EventEntity], work=[356*, 0*]
230: 0x07FC [0x27] REQ_SET(priority=0x0F, entity_id=Raphaillance (ID: 17105434/0x0105021A), tag_num=0x04)
231: 0x0803 [0x5B] LOAD_EXT_SCHEDULER: Load scheduler "stp1" with entities [Estavoille (ID: 17105433/0x01050219), Estavoille (ID: 17105433/0x01050219)], work=1363*
232: 0x0812 [0x5B] LOAD_EXT_SCHEDULER: Load scheduler "hal1" with entities [Halver M Borel (ID: 17105432/0x01050218), Halver M Borel (ID: 17105432/0x01050218)], work=1362*
233: 0x0821 [0x1C] WAIT(240* ticks)
234: 0x0824 [0x52] END_LOAD_SCHEDULER: End scheduler "s047" with entities [EventEntity, EventEntity], work=356*
235: 0x0833 [0x45] LOAD_SCHEDULED_TASK: Load scheduler "s063" with entities [EventEntity, EventEntity], work=[356*, 0*]
236: 0x0844 [0x4E] SET_ENTITY_HIDE_FLAG: Hide Raphaillance (ID: 17105434/0x0105021A)
237: 0x084A [0xBA] SET_ENTITY_POSITION(entity_id=Halver M Borel (ID: 17105432/0x01050218), pos_x=0.026*, pos_z=53.000*, pos_y=-2.000*, direction=92.9°*)
238: 0x0857 [0xBA] SET_ENTITY_POSITION(entity_id=Estavoille (ID: 17105433/0x01050219), pos_x=0.026*, pos_z=53.000*, pos_y=-2.000*, direction=92.9°*)
239: 0x0864 [0x5B] LOAD_EXT_SCHEDULER: Load scheduler "stpz" with entities [Estavoille (ID: 17105433/0x01050219), Estavoille (ID: 17105433/0x01050219)], work=1363*
240: 0x0873 [0x5B] LOAD_EXT_SCHEDULER: Load scheduler "stp0" with entities [Estavoille (ID: 17105433/0x01050219), Estavoille (ID: 17105433/0x01050219)], work=1363*
241: 0x0882 [0x5B] LOAD_EXT_SCHEDULER: Load scheduler "hal0" with entities [Halver M Borel (ID: 17105432/0x01050218), Halver M Borel (ID: 17105432/0x01050218)], work=1362*
242: 0x0891 [0x55] WAIT_LOAD_SCHEDULER: Wait for scheduler "s063" with entities [EventEntity, EventEntity], work=356*
243: 0x08A0 [0x45] LOAD_SCHEDULED_TASK: Load scheduler "s064" with entities [EventEntity, EventEntity], work=[356*, 0*]
244: 0x08B1 [0x2B] Halver M Borel (ID: 17105432/0x01050218) [12390*]:
    → "Altenniaaaaaa!!!"
245: 0x08B8 [0x23] WAIT_FOR_DIALOG_INTERACTION
246: 0x08B9 [0x29] REQ_SET_WAIT(priority=0x0F, entity_id=_288 (ID: 17105336/0x010501B8), tag_num=0x04)
247: 0x08C0 [0x5D] SET_MUSIC_VOLUME(volume=0*, fade_time=240*)
248: 0x08C5 [0x1C] WAIT(180* ticks)
249: 0x08C8 [0x55] WAIT_LOAD_SCHEDULER: Wait for scheduler "s064" with entities [EventEntity, EventEntity], work=356*
250: 0x08D7 [0x45] LOAD_SCHEDULED_TASK: Load scheduler "s049" with entities [EventEntity, EventEntity], work=[356*, 0*]
251: 0x08E8 [0x2B] Altennia (ID: 17105422/0x0105020E) [12391*]:
    → "I'm sorry, Halver..."
252: 0x08EF [0x23] WAIT_FOR_DIALOG_INTERACTION
253: 0x08F0 [0x1A] CALL_SUBROUTINE(address=0x3F65)
254: 0x08F3 [0x52] END_LOAD_SCHEDULER: End scheduler "s049" with entities [EventEntity, EventEntity], work=356*
255: 0x0902 [0x4E] SET_ENTITY_HIDE_FLAG: Hide Raustigne (ID: 17105391/0x010501EF)
256: 0x0908 [0xBA] SET_ENTITY_POSITION(entity_id=LocalPlayer, pos_x=2.032*, pos_z=42.899*, pos_y=-2.000*, direction=250.1°*)
257: 0x0915 [0xBA] SET_ENTITY_POSITION(entity_id=Altennia (ID: 17105422/0x0105020E), pos_x=0.016*, pos_z=42.889*, pos_y=-2.000*, direction=249.4°*)
258: 0x0922 [0xBA] SET_ENTITY_POSITION(entity_id=Raphaillance (ID: 17105434/0x0105021A), pos_x=-1.149*, pos_z=54.662*, pos_y=-2.000*, direction=247.1°*)
259: 0x092F [0xBA] SET_ENTITY_POSITION(entity_id=Estavoille (ID: 17105433/0x01050219), pos_x=1.138*, pos_z=54.779*, pos_y=-2.000*, direction=104.1°*)
260: 0x093C [0xBA] SET_ENTITY_POSITION(entity_id=Phillieulais S Dieuffon (ID: 17105431/0x01050217), pos_x=0.709*, pos_z=41.560*, pos_y=-2.000*, direction=250.0°*)
261: 0x0949 [0xBA] SET_ENTITY_POSITION(entity_id=Halver M Borel (ID: 17105432/0x01050218), pos_x=-0.017*, pos_z=52.910*, pos_y=-2.000*, direction=86.3°*)
262: 0x0956 [0xBA] SET_ENTITY_POSITION(entity_id=Aissaville (ID: 17105390/0x010501EE), pos_x=-3.484*, pos_z=44.227*, pos_y=-1.999*, direction=91.8°*)
263: 0x0963 [0xBA] SET_ENTITY_POSITION(entity_id=Raustigne (ID: 17105391/0x010501EF), pos_x=3.979*, pos_z=44.456*, pos_y=-1.999*, direction=97.4°*)
264: 0x0970 [0x4A] LocalPlayer looks at Phillieulais S Dieuffon (ID: 17105431/0x01050217)
265: 0x0979 [0x4A] Altennia (ID: 17105422/0x0105020E) looks at Phillieulais S Dieuffon (ID: 17105431/0x01050217)
266: 0x0982 [0x4A] Phillieulais S Dieuffon (ID: 17105431/0x01050217) looks at Altennia (ID: 17105422/0x0105020E)
267: 0x098B [0x7B] LocalPlayer stops talking
268: 0x0990 [0x7B] Altennia (ID: 17105422/0x0105020E) stops talking
269: 0x0995 [0x7B] Estavoille (ID: 17105433/0x01050219) stops talking
270: 0x099A [0x7B] Raphaillance (ID: 17105434/0x0105021A) stops talking
271: 0x099F [0x7B] Phillieulais S Dieuffon (ID: 17105431/0x01050217) stops talking
272: 0x09A4 [0x7B] Halver M Borel (ID: 17105432/0x01050218) stops talking
273: 0x09A9 [0x7B] Aissaville (ID: 17105390/0x010501EE) stops talking
274: 0x09AE [0x7B] Raustigne (ID: 17105391/0x010501EF) stops talking
275: 0x09B3 [0x7B] _288 (ID: 17105336/0x010501B8) stops talking
276: 0x09B8 [0x1C] WAIT(60* ticks)
277: 0x09BB [0x5C] MUSIC_CONTROL: Set Idle (Day) music to song 145*
278: 0x09BF [0x5C] MUSIC_CONTROL: Set Idle (Night) music to song 145*
279: 0x09C3 [0x9A] WAIT_MUSIC_SERVER()
280: 0x09C4 [0x45] LOAD_SCHEDULED_TASK: Load scheduler "s050" with entities [EventEntity, EventEntity], work=[356*, 0*]
281: 0x09D5 [0x45] LOAD_SCHEDULED_TASK: Load scheduler "fdi2" with entities [EventEntity, EventEntity], work=[200*, 0*]
282: 0x09E6 [0x1C] WAIT(60* ticks)
283: 0x09E9 [0x66] LOAD_EXT_SCHEDULER_MAIN: Load scheduler "tlk0" with entities [Phillieulais S Dieuffon (ID: 17105431/0x01050217), Phillieulais S Dieuffon (ID: 17105431/0x01050217)], work=29*
284: 0x09F8 [0x2B] Phillieulais S Dieuffon (ID: 17105431/0x01050217) [12392*]:
    → "Altennia... Despite my words to your brother, I must confess I am not entirely without apprehension."
285: 0x09FF [0x23] WAIT_FOR_DIALOG_INTERACTION
286: 0x0A00 [0x2B] Phillieulais S Dieuffon (ID: 17105431/0x01050217) [12393*]:
    → "The Carmine Swallows are the finest soldiers in the Kingdom, the elite among elite. I have the utmost confidence they will do more than hold their own against the enemy."
287: 0x0A07 [0x23] WAIT_FOR_DIALOG_INTERACTION
288: 0x0A08 [0x52] END_LOAD_SCHEDULER: End scheduler "s050" with entities [EventEntity, EventEntity], work=356*
289: 0x0A17 [0x45] LOAD_SCHEDULED_TASK: Load scheduler "s051" with entities [EventEntity, EventEntity], work=[356*, 0*]
290: 0x0A28 [0x2B] Phillieulais S Dieuffon (ID: 17105431/0x01050217) [12394*]:
    → "But never forget that soldiers pay for complacency with their lives. The past few days have seen a substantial surge in beasthorde activity in the vicinity of San d'Oria. Keep your guard up at all times, Altennia, not only for your sake, but for Halver's as well."
291: 0x0A2F [0x23] WAIT_FOR_DIALOG_INTERACTION
292: 0x0A30 [0x66] LOAD_EXT_SCHEDULER_MAIN: Load scheduler "tlk1" with entities [Phillieulais S Dieuffon (ID: 17105431/0x01050217), Phillieulais S Dieuffon (ID: 17105431/0x01050217)], work=29*
293: 0x0A3F [0x1C] WAIT(60* ticks)
294: 0x0A42 [0x52] END_LOAD_SCHEDULER: End scheduler "s051" with entities [EventEntity, EventEntity], work=356*
295: 0x0A51 [0x45] LOAD_SCHEDULED_TASK: Load scheduler "s052" with entities [EventEntity, EventEntity], work=[356*, 0*]
296: 0x0A62 [0x27] REQ_SET(priority=0x0F, entity_id=Phillieulais S Dieuffon (ID: 17105431/0x01050217), tag_num=0x04)
297: 0x0A69 [0x55] WAIT_LOAD_SCHEDULER: Wait for scheduler "s052" with entities [EventEntity, EventEntity], work=356*
298: 0x0A78 [0x45] LOAD_SCHEDULED_TASK: Load scheduler "s053" with entities [EventEntity, EventEntity], work=[356*, 0*]
299: 0x0A89 [0x4E] SET_ENTITY_HIDE_FLAG: Hide Phillieulais S Dieuffon (ID: 17105431/0x01050217)
300: 0x0A8F [0x4A] Altennia (ID: 17105422/0x0105020E) looks at LocalPlayer
301: 0x0A98 [0x7B] Altennia (ID: 17105422/0x0105020E) stops talking
302: 0x0A9D [0x4A] LocalPlayer looks at Altennia (ID: 17105422/0x0105020E)
303: 0x0AA6 [0x2B] Altennia (ID: 17105422/0x0105020E) [12395*]:
    → "I apologize for making you witness what just transpired, <Player>."
304: 0x0AAD [0x23] WAIT_FOR_DIALOG_INTERACTION
305: 0x0AAE [0x5B] LOAD_EXT_SCHEDULER: Load scheduler "tlk0" with entities [Altennia (ID: 17105422/0x0105020E), Altennia (ID: 17105422/0x0105020E)], work=1334*
306: 0x0ABD [0x2B] Altennia (ID: 17105422/0x0105020E) [12396*]:
    → "It was my brother, Halver, who was escorted away kicking and screaming."
307: 0x0AC4 [0x23] WAIT_FOR_DIALOG_INTERACTION
308: 0x0AC5 [0x52] END_LOAD_SCHEDULER: End scheduler "s053" with entities [EventEntity, EventEntity], work=356*
309: 0x0AD4 [0x45] LOAD_SCHEDULED_TASK: Load scheduler "s056" with entities [EventEntity, EventEntity], work=[356*, 0*]
310: 0x0AE5 [0x5B] LOAD_EXT_SCHEDULER: Load scheduler "tlk1" with entities [Altennia (ID: 17105422/0x0105020E), Altennia (ID: 17105422/0x0105020E)], work=1334*
311: 0x0AF4 [0x1C] WAIT(60* ticks)
312: 0x0AF7 [0x2B] Altennia (ID: 17105422/0x0105020E) [12397*]:
    → "You see, a mission of critical import has been entrusted upon my regiment."
313: 0x0AFE [0x23] WAIT_FOR_DIALOG_INTERACTION
314: 0x0AFF [0x2B] Altennia (ID: 17105422/0x0105020E) [12398*]:
    → "I am not authorized to disclose the details of the operation, but..."
315: 0x0B06 [0x23] WAIT_FOR_DIALOG_INTERACTION
316: 0x0B07 [0x52] END_LOAD_SCHEDULER: End scheduler "s056" with entities [EventEntity, EventEntity], work=356*
317: 0x0B16 [0x45] LOAD_SCHEDULED_TASK: Load scheduler "s054" with entities [EventEntity, EventEntity], work=[356*, 0*]
318: 0x0B27 [0x2B] Altennia (ID: 17105422/0x0105020E) [12399*]:
    → "I fear I may not be able to see any of my loved ones again."
319: 0x0B2E [0x23] WAIT_FOR_DIALOG_INTERACTION
320: 0x0B2F [0x52] END_LOAD_SCHEDULER: End scheduler "s054" with entities [EventEntity, EventEntity], work=356*
321: 0x0B3E [0x45] LOAD_SCHEDULED_TASK: Load scheduler "s057" with entities [EventEntity, EventEntity], work=[356*, 0*]
322: 0x0B4F [0x1C] WAIT(60* ticks)
323: 0x0B52 [0x5B] LOAD_EXT_SCHEDULER: Load scheduler "tlk0" with entities [Altennia (ID: 17105422/0x0105020E), Altennia (ID: 17105422/0x0105020E)], work=1334*
324: 0x0B61 [0x2B] Altennia (ID: 17105422/0x0105020E) [12400*]:
    → "... <Player>..."
325: 0x0B68 [0x23] WAIT_FOR_DIALOG_INTERACTION
326: 0x0B69 [0x2B] Altennia (ID: 17105422/0x0105020E) [12401*]:
    → "There is something I must ask of you. Please hear me out."
327: 0x0B70 [0x23] WAIT_FOR_DIALOG_INTERACTION
328: 0x0B71 [0x52] END_LOAD_SCHEDULER: End scheduler "s057" with entities [EventEntity, EventEntity], work=356*
329: 0x0B80 [0x45] LOAD_SCHEDULED_TASK: Load scheduler "s058" with entities [EventEntity, EventEntity], work=[356*, 0*]
330: 0x0B91 [0x2B] Altennia (ID: 17105422/0x0105020E) [12402*]:
    → "If..."
331: 0x0B98 [0x23] WAIT_FOR_DIALOG_INTERACTION
332: 0x0B99 [0x2B] Altennia (ID: 17105422/0x0105020E) [12403*]:
    → "If I fall in battle..."
333: 0x0BA0 [0x23] WAIT_FOR_DIALOG_INTERACTION
334: 0x0BA1 [0x52] END_LOAD_SCHEDULER: End scheduler "s058" with entities [EventEntity, EventEntity], work=356*
335: 0x0BB0 [0x45] LOAD_SCHEDULED_TASK: Load scheduler "s059" with entities [EventEntity, EventEntity], work=[356*, 0*]
336: 0x0BC1 [0x2B] Altennia (ID: 17105422/0x0105020E) [12404*]:
    → "I want you to look after Excenmille and the Young Griffons."
337: 0x0BC8 [0x23] WAIT_FOR_DIALOG_INTERACTION
338: 0x0BC9 [0x52] END_LOAD_SCHEDULER: End scheduler "s059" with entities [EventEntity, EventEntity], work=356*
339: 0x0BD8 [0x45] LOAD_SCHEDULED_TASK: Load scheduler "s060" with entities [EventEntity, EventEntity], work=[356*, 0*]
340: 0x0BE9 [0x5B] LOAD_EXT_SCHEDULER: Load scheduler "tlk1" with entities [Altennia (ID: 17105422/0x0105020E), Altennia (ID: 17105422/0x0105020E)], work=1334*
341: 0x0BF8 [0x1C] WAIT(120* ticks)
342: 0x0BFB [0x29] REQ_SET_WAIT(priority=0x0F, entity_id=Altennia (ID: 17105422/0x0105020E), tag_num=0x0E)
343: 0x0C02 [0x2B] Altennia (ID: 17105422/0x0105020E) [12405*]:
    → "Ever since the tragic loss of his mother, I have been all he has. Excenmille had closed himself off from all other elders... But miraculously, he has taken to you, <Player>."
344: 0x0C09 [0x23] WAIT_FOR_DIALOG_INTERACTION
345: 0x0C0A [0x52] END_LOAD_SCHEDULER: End scheduler "s060" with entities [EventEntity, EventEntity], work=356*
346: 0x0C19 [0x45] LOAD_SCHEDULED_TASK: Load scheduler "s061" with entities [EventEntity, EventEntity], work=[356*, 0*]
347: 0x0C2A [0x2B] Altennia (ID: 17105422/0x0105020E) [12406*]:
    → "There is no other I can depend on."
348: 0x0C31 [0x23] WAIT_FOR_DIALOG_INTERACTION
349: 0x0C32 [0x52] END_LOAD_SCHEDULER: End scheduler "s061" with entities [EventEntity, EventEntity], work=356*
350: 0x0C41 [0x4A] Altennia (ID: 17105422/0x0105020E) looks at LocalPlayer
351: 0x0C4A [0x4A] LocalPlayer looks at Altennia (ID: 17105422/0x0105020E)
352: 0x0C53 [0x7B] Altennia (ID: 17105422/0x0105020E) stops talking
353: 0x0C58 [0x45] LOAD_SCHEDULED_TASK: Load scheduler "s062" with entities [EventEntity, EventEntity], work=[356*, 0*]
354: 0x0C69 [0x2B] Altennia (ID: 17105422/0x0105020E) [12407*]:
    → "Can I ask this of you, if I should not return?"
355: 0x0C70 [0x23] WAIT_FOR_DIALOG_INTERACTION
356: 0x0C71 [0x24] CREATE_DIALOG(message_id=12408*, default_option=0*, option_flags=0*)
    → "Will you take care of the Young Griffons? [I promise!/Be strong, Altennia!]"
357: 0x0C78 [0x25] WAIT_DIALOG_SELECT()
358: 0x0C79 [0x02] IF !(Work_Zone[0] == 0*) GOTO 0x0CF5
359: 0x0C81 [0x6E] LocalPlayer uses emote 7*
360: 0x0C88 [0x99] Wait for LocalPlayer animation to complete
361: 0x0C8D [0x1C] WAIT(120* ticks)
362: 0x0C90 [0x52] END_LOAD_SCHEDULER: End scheduler "s062" with entities [EventEntity, EventEntity], work=356*
363: 0x0C9F [0x45] LOAD_SCHEDULED_TASK: Load scheduler "s065" with entities [EventEntity, EventEntity], work=[356*, 0*]
364: 0x0CB0 [0x5B] LOAD_EXT_SCHEDULER: Load scheduler "tlk0" with entities [Altennia (ID: 17105422/0x0105020E), Altennia (ID: 17105422/0x0105020E)], work=1334*
365: 0x0CBF [0x2B] Altennia (ID: 17105422/0x0105020E) [12412*]:
    → "This means more to me than you could ever imagine. Thank you, <Player>."
366: 0x0CC6 [0x23] WAIT_FOR_DIALOG_INTERACTION
367: 0x0CC7 [0x5B] LOAD_EXT_SCHEDULER: Load scheduler "tlk1" with entities [Altennia (ID: 17105422/0x0105020E), Altennia (ID: 17105422/0x0105020E)], work=1334*
368: 0x0CD6 [0x2B] Altennia (ID: 17105422/0x0105020E) [12413*]:
    → "Now I can charge into battle under the Carmine Swallow banner without any regret."
369: 0x0CDD [0x23] WAIT_FOR_DIALOG_INTERACTION
370: 0x0CDE [0x03] Work_Zone[2] = 0*
371: 0x0CE3 [0x52] END_LOAD_SCHEDULER: End scheduler "s065" with entities [EventEntity, EventEntity], work=356*
372: 0x0CF2 [0x01] GOTO 0x0D6E
373: 0x0CF5 [0x6E] LocalPlayer uses emote 34*
374: 0x0CFC [0x99] Wait for LocalPlayer animation to complete
375: 0x0D01 [0x1C] WAIT(120* ticks)
376: 0x0D04 [0x52] END_LOAD_SCHEDULER: End scheduler "s062" with entities [EventEntity, EventEntity], work=356*
377: 0x0D13 [0x45] LOAD_SCHEDULED_TASK: Load scheduler "s065" with entities [EventEntity, EventEntity], work=[356*, 0*]
378: 0x0D24 [0x5B] LOAD_EXT_SCHEDULER: Load scheduler "tlk0" with entities [Altennia (ID: 17105422/0x0105020E), Altennia (ID: 17105422/0x0105020E)], work=1334*
379: 0x0D33 [0x2B] Altennia (ID: 17105422/0x0105020E) [12409*]:
    → "I-I'm sorry... I wonder what madness came over me..."
380: 0x0D3A [0x23] WAIT_FOR_DIALOG_INTERACTION
381: 0x0D3B [0x2B] Altennia (ID: 17105422/0x0105020E) [12410*]:
    → "You are absolutely right. Just the thought of leaving the children behind is more than I can bear..."
382: 0x0D42 [0x23] WAIT_FOR_DIALOG_INTERACTION
383: 0x0D43 [0x5B] LOAD_EXT_SCHEDULER: Load scheduler "tlk1" with entities [Altennia (ID: 17105422/0x0105020E), Altennia (ID: 17105422/0x0105020E)], work=1334*
384: 0x0D52 [0x2B] Altennia (ID: 17105422/0x0105020E) [12411*]:
    → "Thank you, <Player>, for bringing me back to my senses."
385: 0x0D59 [0x23] WAIT_FOR_DIALOG_INTERACTION
386: 0x0D5A [0x03] Work_Zone[2] = 1*
387: 0x0D5F [0x52] END_LOAD_SCHEDULER: End scheduler "s065" with entities [EventEntity, EventEntity], work=356*

SUBROUTINE_0D6E:
388: 0x0D6E [0x45] LOAD_SCHEDULED_TASK: Load scheduler "s066" with entities [EventEntity, EventEntity], work=[356*, 0*]
389: 0x0D7F [0x5B] LOAD_EXT_SCHEDULER: Load scheduler "thk0" with entities [Altennia (ID: 17105422/0x0105020E), Altennia (ID: 17105422/0x0105020E)], work=1334*
390: 0x0D8E [0x2B] Altennia (ID: 17105422/0x0105020E) [12414*]:
    → "The time for departure has come."
391: 0x0D95 [0x23] WAIT_FOR_DIALOG_INTERACTION
392: 0x0D96 [0x5B] LOAD_EXT_SCHEDULER: Load scheduler "thk1" with entities [Altennia (ID: 17105422/0x0105020E), Altennia (ID: 17105422/0x0105020E)], work=1334*
393: 0x0DA5 [0x1C] WAIT(90* ticks)
394: 0x0DA8 [0x2B] Altennia (ID: 17105422/0x0105020E) [12415*]:
    → "Before I leave, there is something you should know."
395: 0x0DAF [0x23] WAIT_FOR_DIALOG_INTERACTION
396: 0x0DB0 [0x52] END_LOAD_SCHEDULER: End scheduler "s066" with entities [EventEntity, EventEntity], work=356*
397: 0x0DBF [0x45] LOAD_SCHEDULED_TASK: Load scheduler "s067" with entities [EventEntity, EventEntity], work=[356*, 0*]
398: 0x0DD0 [0x03] Work_Zone[37] = 1621*
399: 0x0DD5 [0x03] Work_Zone[39] = 42258*
400: 0x0DDA [0x03] Work_Zone[38] = 4294965296*
401: 0x0DDF [0x03] Work_Zone[40] = 3482*
402: 0x0DE4 [0x29] REQ_SET_WAIT(priority=0x0F, entity_id=Altennia (ID: 17105422/0x0105020E), tag_num=0x13)
403: 0x0DEB [0x2B] Altennia (ID: 17105422/0x0105020E) [12416*]:
    → "(This concerns Temple Knight Darvylle, whom you say was conversing with the Orc escapee.)"
404: 0x0DF2 [0x23] WAIT_FOR_DIALOG_INTERACTION
405: 0x0DF3 [0x2B] Altennia (ID: 17105422/0x0105020E) [12417*]:
    → "(Darvylle has been observed absent on numerous occasions to tend to matters of an unknown nature.)"
406: 0x0DFA [0x23] WAIT_FOR_DIALOG_INTERACTION
407: 0x0DFB [0x2B] Altennia (ID: 17105422/0x0105020E) [12418*]:
    → "(I sense treachery at play, <Player>. It would be prudent to not let that one out of your sight.)"
408: 0x0E02 [0x23] WAIT_FOR_DIALOG_INTERACTION
409: 0x0E03 [0x52] END_LOAD_SCHEDULER: End scheduler "s067" with entities [EventEntity, EventEntity], work=356*
410: 0x0E12 [0x45] LOAD_SCHEDULED_TASK: Load scheduler "s068" with entities [EventEntity, EventEntity], work=[356*, 0*]
411: 0x0E23 [0x03] Work_Zone[37] = 633*
412: 0x0E28 [0x03] Work_Zone[39] = 41188*
413: 0x0E2D [0x03] Work_Zone[38] = 4294965296*
414: 0x0E32 [0x03] Work_Zone[40] = 1023*
415: 0x0E37 [0x29] REQ_SET_WAIT(priority=0x0F, entity_id=Altennia (ID: 17105422/0x0105020E), tag_num=0x13)
416: 0x0E3E [0x4A] Altennia (ID: 17105422/0x0105020E) looks at LocalPlayer
417: 0x0E47 [0x7B] Altennia (ID: 17105422/0x0105020E) stops talking
418: 0x0E4C [0x02] IF !(Work_Zone[2] == 0*) GOTO 0x0E5F
419: 0x0E54 [0x2B] Altennia (ID: 17105422/0x0105020E) [12420*]:
    → "I must go now. Thank you, <Player>. I know the Young Griffons are in good hands."
420: 0x0E5B [0x23] WAIT_FOR_DIALOG_INTERACTION
421: 0x0E5C [0x01] GOTO 0x0E67
422: 0x0E5F [0x2B] Altennia (ID: 17105422/0x0105020E) [12419*]:
    → "Be well, <Player>. I hope we meet again."
423: 0x0E66 [0x23] WAIT_FOR_DIALOG_INTERACTION

SUBROUTINE_0E67:
424: 0x0E67 [0x52] END_LOAD_SCHEDULER: End scheduler "s068" with entities [EventEntity, EventEntity], work=356*
425: 0x0E76 [0x45] LOAD_SCHEDULED_TASK: Load scheduler "s069" with entities [EventEntity, EventEntity], work=[356*, 0*]
426: 0x0E87 [0x27] REQ_SET(priority=0x0F, entity_id=Altennia (ID: 17105422/0x0105020E), tag_num=0x0F)
427: 0x0E8E [0x1C] WAIT(180* ticks)
428: 0x0E91 [0x1A] CALL_SUBROUTINE(address=0x3F65)
429: 0x0E94 [0x55] WAIT_LOAD_SCHEDULER: Wait for scheduler "s069" with entities [EventEntity, EventEntity], work=356*
430: 0x0EA3 [0x5D] SET_MUSIC_VOLUME(volume=0*, fade_time=240*)
431: 0x0EA8 [0x5C] MUSIC_CONTROL: Set Idle (Day) music to song 254*
432: 0x0EAC [0x5C] MUSIC_CONTROL: Set Idle (Night) music to song 254*
433: 0x0EB0 [0x9A] WAIT_MUSIC_SERVER()
434: 0x0EB1 [0x46] CAMERA_CONTROL: Restore default settings
435: 0x0EB3 [0x45] LOAD_SCHEDULED_TASK: Load scheduler "fdi2" with entities [LocalPlayer, LocalPlayer], work=[200*, 0*]
436: 0x0EC4 [0x21] END_EVENT
437: 0x0EC5 [0x00] END_REQSTACK()
```

### Event 56

#### Metadata

| Field        | Value      |
|--------------|------------|
| Entrypoint   | 0x0EC6     |
| Data Size    | 1201 bytes |
| Instructions | 147        |

```
      00 01 02 03 04 05 06 07  08 09 0A 0B 0C 0D 0E 0F
      -- -- -- -- -- -- -- --  -- -- -- -- -- -- -- --
0EC0:                   42 20  01 46 01 1A 65 3F 38 00        B .F..e?8.
0ED0: 80 92 01 39 02 05 01 92  01 0F 02 05 01 92 01 07  ...9............
0EE0: 02 05 01 94 01 F0 FF FF  7F 94 01 0F 02 05 01 94  ................
0EF0: 01 39 02 05 01 94 01 07  02 05 01 79 00 F0 FF FF  .9.........y....
0F00: 7F F0 FF FF 7F BA F0 FF  FF 7F 7D 80 7E 80 05 80  ..........}.~...
0F10: 7F 80 BA 07 02 05 01 80  80 81 80 0D 80 82 80 4A  ...............J
0F20: 07 02 05 01 F0 FF FF 7F  4A F0 FF FF 7F 07 02 05  ........J.......
0F30: 01 7B F0 FF FF 7F 7B 39  02 05 01 7B 0F 02 05 01  .{....{9...{....
0F40: 7B 07 02 05 01 6F 76 07  02 05 01 5B 83 80 07 02  {....ov....[....
0F50: 05 01 07 02 05 01 00 FE  FE FE 4E 00 F0 FF FF 7F  ..........N.....
0F60: 4E 01 0F 02 05 01 4E 00  39 02 05 01 4E 00 07 02  N.....N.9...N...
0F70: 05 01 4E 01 12 02 05 01  4E 01 13 02 05 01 4E 01  ..N.....N.....N.
0F80: 14 02 05 01 80 F0 FF FF  7F 80 0F 02 05 01 80 39  ...............9
0F90: 02 05 01 80 07 02 05 01  5D 02 80 2C 80 5C 00 84  ........]..,.\..
0FA0: 80 5C 01 84 80 9A 45 01  80 F8 FF FF 7F F8 FF FF  .\....E.........
0FB0: 7F 73 30 38 39 02 80 45  1F 80 F8 FF FF 7F F8 FF  .s089..E........
0FC0: FF 7F 66 64 69 32 02 80  81 00 07 02 05 01 7C 00  ..fdi2........|.
0FD0: 07 02 05 01 5B 85 80 07  02 05 01 07 02 05 01 66  ....[..........f
0FE0: 64 30 31 5B 83 80 07 02  05 01 07 02 05 01 6B 65  d01[..........ke
0FF0: 69 30 2B 07 02 05 01 86  80 23 53 07 02 05 01 07  i0+......#S.....
1000: 02 05 01 6B 65 69 30 5B  85 80 07 02 05 01 07 02  ...kei0[........
1010: 05 01 66 64 30 30 5B 85  80 07 02 05 01 07 02 05  ..fd00[.........
1020: 01 66 64 30 31 2B 07 02  05 01 87 80 23 5B 85 80  .fd01+......#[..
1030: 07 02 05 01 07 02 05 01  66 30 30 30 5B 83 80 07  ........f000[...
1040: 02 05 01 07 02 05 01 6B  65 69 31 81 01 07 02 05  .......kei1.....
1050: 01 7C 01 07 02 05 01 55  01 80 F8 FF FF 7F F8 FF  .|.....U........
1060: FF 7F 73 30 38 39 45 01  80 F8 FF FF 7F F8 FF FF  ..s089E.........
1070: 7F 73 31 36 31 02 80 1C  27 80 5B 88 80 07 02 05  .s161...'.[.....
1080: 01 07 02 05 01 74 6C 61  30 2B 07 02 05 01 89 80  .....tla0+......
1090: 23 2B 07 02 05 01 8A 80  23 5B 88 80 07 02 05 01  #+......#[......
10A0: 07 02 05 01 74 6C 61 31  1C 2F 80 52 01 80 F8 FF  ....tla1./.R....
10B0: FF 7F F8 FF FF 7F 73 31  36 31 45 01 80 F8 FF FF  ......s161E.....
10C0: 7F F8 FF FF 7F 73 31 36  32 02 80 5B 88 80 07 02  .....s162..[....
10D0: 05 01 07 02 05 01 74 6C  62 30 2B 07 02 05 01 8B  ......tlb0+.....
10E0: 80 23 5B 88 80 07 02 05  01 07 02 05 01 74 6C 62  .#[..........tlb
10F0: 31 52 01 80 F8 FF FF 7F  F8 FF FF 7F 73 31 36 32  1R..........s162
1100: 45 01 80 F8 FF FF 7F F8  FF FF 7F 73 31 36 33 02  E..........s163.
1110: 80 2B 07 02 05 01 8C 80  23 6E F0 FF FF 7F 8D 80  .+......#n......
1120: 99 F0 FF FF 7F 1C 32 80  52 01 80 F8 FF FF 7F F8  ......2.R.......
1130: FF FF 7F 73 31 36 33 45  01 80 F8 FF FF 7F F8 FF  ...s163E........
1140: FF 7F 73 31 36 34 02 80  5B 88 80 07 02 05 01 07  ..s164..[.......
1150: 02 05 01 74 6C 61 30 2B  07 02 05 01 8E 80 23 5B  ...tla0+......#[
1160: 88 80 07 02 05 01 07 02  05 01 74 6C 61 31 52 01  ..........tla1R.
1170: 80 F8 FF FF 7F F8 FF FF  7F 73 31 36 34 45 01 80  .........s164E..
1180: F8 FF FF 7F F8 FF FF 7F  73 31 36 35 02 80 5B 8F  ........s165..[.
1190: 80 07 02 05 01 07 02 05  01 74 68 62 30 1C 4A 80  .........thb0.J.
11A0: 5B 8F 80 07 02 05 01 07  02 05 01 74 68 62 31 1C  [..........thb1.
11B0: 27 80 4A 07 02 05 01 39  02 05 01 4A F0 FF FF 7F  '.J....9...J....
11C0: 39 02 05 01 52 01 80 F8  FF FF 7F F8 FF FF 7F 73  9...R..........s
11D0: 31 36 35 45 01 80 F8 FF  FF 7F F8 FF FF 7F 73 31  165E..........s1
11E0: 36 36 02 80 7B F0 FF FF  7F 7B 07 02 05 01 6F 76  66..{....{....ov
11F0: 07 02 05 01 5B 83 80 07  02 05 01 07 02 05 01 6B  ....[..........k
1200: 65 69 30 2B 07 02 05 01  90 80 23 5B 83 80 07 02  ei0+......#[....
1210: 05 01 07 02 05 01 6B 65  69 31 52 01 80 F8 FF FF  ......kei1R.....
1220: 7F F8 FF FF 7F 73 31 36  36 45 01 80 F8 FF FF 7F  .....s166E......
1230: F8 FF FF 7F 73 31 36 37  02 80 2B 0F 02 05 01 91  ....s167..+.....
1240: 80 23 2B 0F 02 05 01 92  80 23 52 01 80 F8 FF FF  .#+......#R.....
1250: 7F F8 FF FF 7F 73 31 36  37 45 01 80 F8 FF FF 7F  .....s167E......
1260: F8 FF FF 7F 73 31 36 38  02 80 2B 07 02 05 01 93  ....s168..+.....
1270: 80 23 5B 8F 80 07 02 05  01 07 02 05 01 74 68 61  .#[..........tha
1280: 30 2B 07 02 05 01 94 80  23 5B 8F 80 07 02 05 01  0+......#[......
1290: 07 02 05 01 74 68 61 31  52 01 80 F8 FF FF 7F F8  ....tha1R.......
12A0: FF FF 7F 73 31 36 38 45  01 80 F8 FF FF 7F F8 FF  ...s168E........
12B0: FF 7F 73 31 36 39 02 80  2B 0F 02 05 01 95 80 23  ..s169..+......#
12C0: 4A 07 02 05 01 F0 FF FF  7F 4A F0 FF FF 7F 07 02  J........J......
12D0: 05 01 52 01 80 F8 FF FF  7F F8 FF FF 7F 73 31 36  ..R..........s16
12E0: 39 45 01 80 F8 FF FF 7F  F8 FF FF 7F 73 31 37 30  9E..........s170
12F0: 02 80 7B F0 FF FF 7F 7B  07 02 05 01 6F 76 07 02  ..{....{....ov..
1300: 05 01 5B 88 80 07 02 05  01 07 02 05 01 74 6C 61  ..[..........tla
1310: 30 2B 07 02 05 01 96 80  23 5B 88 80 07 02 05 01  0+......#[......
1320: 07 02 05 01 74 6C 61 31  1C 2F 80 5B 83 80 07 02  ....tla1./.[....
1330: 05 01 07 02 05 01 6B 65  69 30 2B 07 02 05 01 97  ......kei0+.....
1340: 80 23 1A 65 3F 52 01 80  F8 FF FF 7F F8 FF FF 7F  .#.e?R..........
1350: 73 31 37 30 5D 02 80 2C  80 5C 00 7C 80 5C 01 7C  s170]..,.\.|.\.|
1360: 80 9A 46 00 45 1F 80 F0  FF FF 7F F0 FF FF 7F 66  ..F.E..........f
1370: 64 69 32 02 80 21 00                              di2..!.         
```

#### Opcodes

```
  0: 0x0EC6 [0x42] SET_CLI_EVENT_CANCEL_DATA()
  1: 0x0EC7 [0x20] SET_CLI_EVENT_UC_FLAG: Lock player control
  2: 0x0EC9 [0x46] CAMERA_CONTROL: Disable user control
  3: 0x0ECB [0x1A] CALL_SUBROUTINE(address=0x3F65)
  4: 0x0ECE [0x38] SET_CLIENT_EVENT_MODE(mode=19*)
  5: 0x0ED1 [0x92] ??? Warmachine (ID: 17105465/0x01050239)->Render.Flags3 ^= 0x01
  6: 0x0ED7 [0x92] Bistillot (ID: 17105423/0x0105020F)->Render.Flags3 ^= 0x01
  7: 0x0EDD [0x92] Rholont (ID: 17105415/0x01050207)->Render.Flags3 ^= 0x01
  8: 0x0EE3 [0x94] LocalPlayer->Render.Flags3 ^= 0x01
  9: 0x0EE9 [0x94] Bistillot (ID: 17105423/0x0105020F)->Render.Flags3 ^= 0x01
 10: 0x0EEF [0x94] ??? Warmachine (ID: 17105465/0x01050239)->Render.Flags3 ^= 0x01
 11: 0x0EF5 [0x94] Rholont (ID: 17105415/0x01050207)->Render.Flags3 ^= 0x01
 12: 0x0EFB [0x79] LocalPlayer looks at LocalPlayer (Basic look)
 13: 0x0F05 [0xBA] SET_ENTITY_POSITION(entity_id=LocalPlayer, pos_x=-166.778*, pos_z=59.993*, pos_y=-1.999*, direction=58.6°*)
 14: 0x0F12 [0xBA] SET_ENTITY_POSITION(entity_id=Rholont (ID: 17105415/0x01050207), pos_x=-165.397*, pos_z=57.369*, pos_y=-2.000*, direction=266.9°*)
 15: 0x0F1F [0x4A] Rholont (ID: 17105415/0x01050207) looks at LocalPlayer
 16: 0x0F28 [0x4A] LocalPlayer looks at Rholont (ID: 17105415/0x01050207)
 17: 0x0F31 [0x7B] LocalPlayer stops talking
 18: 0x0F36 [0x7B] ??? Warmachine (ID: 17105465/0x01050239) stops talking
 19: 0x0F3B [0x7B] Bistillot (ID: 17105423/0x0105020F) stops talking
 20: 0x0F40 [0x7B] Rholont (ID: 17105415/0x01050207) stops talking
 21: 0x0F45 [0x6F] WAIT_FRAME_DELAY: Yield until WaitTime reaches zero
 22: 0x0F46 [0x76] CHECK_ENTITY_RENDER_FLAGS: Wait until Rholont (ID: 17105415/0x01050207) Render.Flags0 and Render.Flags3 conditions are met
 23: 0x0F4B [0x5B] LOAD_EXT_SCHEDULER: Load scheduler 0xFEFEFE00 with entities [Rholont (ID: 17105415/0x01050207), Rholont (ID: 17105415/0x01050207)], work=1301*
 24: 0x0F5A [0x4E] SET_ENTITY_HIDE_FLAG: Show LocalPlayer
 25: 0x0F60 [0x4E] SET_ENTITY_HIDE_FLAG: Hide Bistillot (ID: 17105423/0x0105020F)
 26: 0x0F66 [0x4E] SET_ENTITY_HIDE_FLAG: Show ??? Warmachine (ID: 17105465/0x01050239)
 27: 0x0F6C [0x4E] SET_ENTITY_HIDE_FLAG: Show Rholont (ID: 17105415/0x01050207)
 28: 0x0F72 [0x4E] SET_ENTITY_HIDE_FLAG: Hide Riautte (ID: 17105426/0x01050212)
 29: 0x0F78 [0x4E] SET_ENTITY_HIDE_FLAG: Hide Piscariaux (ID: 17105427/0x01050213)
 30: 0x0F7E [0x4E] SET_ENTITY_HIDE_FLAG: Hide test3 (ID: 17105428/0x01050214)
 31: 0x0F84 [0x80] LOAD_WAIT(entity=LocalPlayer)
 32: 0x0F89 [0x80] LOAD_WAIT(entity=Bistillot (ID: 17105423/0x0105020F))
 33: 0x0F8E [0x80] LOAD_WAIT(entity=??? Warmachine (ID: 17105465/0x01050239))
 34: 0x0F93 [0x80] LOAD_WAIT(entity=Rholont (ID: 17105415/0x01050207))
 35: 0x0F98 [0x5D] SET_MUSIC_VOLUME(volume=0*, fade_time=240*)
 36: 0x0F9D [0x5C] MUSIC_CONTROL: Set Idle (Day) music to song 248*
 37: 0x0FA1 [0x5C] MUSIC_CONTROL: Set Idle (Night) music to song 248*
 38: 0x0FA5 [0x9A] WAIT_MUSIC_SERVER()
 39: 0x0FA6 [0x45] LOAD_SCHEDULED_TASK: Load scheduler "s089" with entities [EventEntity, EventEntity], work=[356*, 0*]
 40: 0x0FB7 [0x45] LOAD_SCHEDULED_TASK: Load scheduler "fdi2" with entities [EventEntity, EventEntity], work=[200*, 0*]
 41: 0x0FC8 [0x81] SET_ENTITY_BLINKING(blink_flag=0x00, entity=Rholont (ID: 17105415/0x01050207))
 42: 0x0FCE [0x7C] Rholont (ID: 17105415/0x01050207)->Render.Flags2 |= 0x00
 43: 0x0FD4 [0x5B] LOAD_EXT_SCHEDULER: Load scheduler "fd01" with entities [Rholont (ID: 17105415/0x01050207), Rholont (ID: 17105415/0x01050207)], work=1299*
 44: 0x0FE3 [0x5B] LOAD_EXT_SCHEDULER: Load scheduler "kei0" with entities [Rholont (ID: 17105415/0x01050207), Rholont (ID: 17105415/0x01050207)], work=1301*
 45: 0x0FF2 [0x2B] Rholont (ID: 17105415/0x01050207) [12421*]:
    → "Welcome back from your mission! Word of your accomplishments in the field has reached all ears at headquarters!"
 46: 0x0FF9 [0x23] WAIT_FOR_DIALOG_INTERACTION
 47: 0x0FFA [0x53] WAIT_SCHEDULER_TASK: Wait for scheduler "kei0" with entities [Rholont (ID: 17105415/0x01050207), Rholont (ID: 17105415/0x01050207)]
 48: 0x1007 [0x5B] LOAD_EXT_SCHEDULER: Load scheduler "fd00" with entities [Rholont (ID: 17105415/0x01050207), Rholont (ID: 17105415/0x01050207)], work=1299*
 49: 0x1016 [0x5B] LOAD_EXT_SCHEDULER: Load scheduler "fd01" with entities [Rholont (ID: 17105415/0x01050207), Rholont (ID: 17105415/0x01050207)], work=1299*
 50: 0x1025 [0x2B] Rholont (ID: 17105415/0x01050207) [12422*]:
    → "Your trouncing of bloodthirsty Orcs has brought honor to the Young Griffons!"
 51: 0x102C [0x23] WAIT_FOR_DIALOG_INTERACTION
 52: 0x102D [0x5B] LOAD_EXT_SCHEDULER: Load scheduler "f000" with entities [Rholont (ID: 17105415/0x01050207), Rholont (ID: 17105415/0x01050207)], work=1299*
 53: 0x103C [0x5B] LOAD_EXT_SCHEDULER: Load scheduler "kei1" with entities [Rholont (ID: 17105415/0x01050207), Rholont (ID: 17105415/0x01050207)], work=1301*
 54: 0x104B [0x81] SET_ENTITY_BLINKING(blink_flag=0x01, entity=Rholont (ID: 17105415/0x01050207))
 55: 0x1051 [0x7C] Rholont (ID: 17105415/0x01050207)->Render.Flags2 |= 0x01
 56: 0x1057 [0x55] WAIT_LOAD_SCHEDULER: Wait for scheduler "s089" with entities [EventEntity, EventEntity], work=356*
 57: 0x1066 [0x45] LOAD_SCHEDULED_TASK: Load scheduler "s161" with entities [EventEntity, EventEntity], work=[356*, 0*]
 58: 0x1077 [0x1C] WAIT(90* ticks)
 59: 0x107A [0x5B] LOAD_EXT_SCHEDULER: Load scheduler "tla0" with entities [Rholont (ID: 17105415/0x01050207), Rholont (ID: 17105415/0x01050207)], work=1272*
 60: 0x1089 [0x2B] Rholont (ID: 17105415/0x01050207) [12423*]:
    → "Oh, I must inform you, the War Council scheduled for today has been postponed, due to an emergency change-of-mind by the captain."
 61: 0x1090 [0x23] WAIT_FOR_DIALOG_INTERACTION
 62: 0x1091 [0x2B] Rholont (ID: 17105415/0x01050207) [12424*]:
    → "Both the captain and lieutenant have departed on a scouting expedition of Gigas activity on Gerlvan Isle."
 63: 0x1098 [0x23] WAIT_FOR_DIALOG_INTERACTION
 64: 0x1099 [0x5B] LOAD_EXT_SCHEDULER: Load scheduler "tla1" with entities [Rholont (ID: 17105415/0x01050207), Rholont (ID: 17105415/0x01050207)], work=1272*
 65: 0x10A8 [0x1C] WAIT(60* ticks)
 66: 0x10AB [0x52] END_LOAD_SCHEDULER: End scheduler "s161" with entities [EventEntity, EventEntity], work=356*
 67: 0x10BA [0x45] LOAD_SCHEDULED_TASK: Load scheduler "s162" with entities [EventEntity, EventEntity], work=[356*, 0*]
 68: 0x10CB [0x5B] LOAD_EXT_SCHEDULER: Load scheduler "tlb0" with entities [Rholont (ID: 17105415/0x01050207), Rholont (ID: 17105415/0x01050207)], work=1272*
 69: 0x10DA [0x2B] Rholont (ID: 17105415/0x01050207) [12425*]:
    → "You are unaware of this undertaking by the Young Griffons?"
 70: 0x10E1 [0x23] WAIT_FOR_DIALOG_INTERACTION
 71: 0x10E2 [0x5B] LOAD_EXT_SCHEDULER: Load scheduler "tlb1" with entities [Rholont (ID: 17105415/0x01050207), Rholont (ID: 17105415/0x01050207)], work=1272*
 72: 0x10F1 [0x52] END_LOAD_SCHEDULER: End scheduler "s162" with entities [EventEntity, EventEntity], work=356*
 73: 0x1100 [0x45] LOAD_SCHEDULED_TASK: Load scheduler "s163" with entities [EventEntity, EventEntity], work=[356*, 0*]
 74: 0x1111 [0x2B] Rholont (ID: 17105415/0x01050207) [12426*]:
    → "It is the continuation of an expedition that was commenced prior to your enlistment."
 75: 0x1118 [0x23] WAIT_FOR_DIALOG_INTERACTION
 76: 0x1119 [0x6E] LocalPlayer uses emote 22*
 77: 0x1120 [0x99] Wait for LocalPlayer animation to complete
 78: 0x1125 [0x1C] WAIT(120* ticks)
 79: 0x1128 [0x52] END_LOAD_SCHEDULER: End scheduler "s163" with entities [EventEntity, EventEntity], work=356*
 80: 0x1137 [0x45] LOAD_SCHEDULED_TASK: Load scheduler "s164" with entities [EventEntity, EventEntity], work=[356*, 0*]
 81: 0x1148 [0x5B] LOAD_EXT_SCHEDULER: Load scheduler "tla0" with entities [Rholont (ID: 17105415/0x01050207), Rholont (ID: 17105415/0x01050207)], work=1272*
 82: 0x1157 [0x2B] Rholont (ID: 17105415/0x01050207) [12427*]:
    → "What? A status report of the expedition, you say?"
 83: 0x115E [0x23] WAIT_FOR_DIALOG_INTERACTION
 84: 0x115F [0x5B] LOAD_EXT_SCHEDULER: Load scheduler "tla1" with entities [Rholont (ID: 17105415/0x01050207), Rholont (ID: 17105415/0x01050207)], work=1272*
 85: 0x116E [0x52] END_LOAD_SCHEDULER: End scheduler "s164" with entities [EventEntity, EventEntity], work=356*
 86: 0x117D [0x45] LOAD_SCHEDULED_TASK: Load scheduler "s165" with entities [EventEntity, EventEntity], work=[356*, 0*]
 87: 0x118E [0x5B] LOAD_EXT_SCHEDULER: Load scheduler "thb0" with entities [Rholont (ID: 17105415/0x01050207), Rholont (ID: 17105415/0x01050207)], work=1273*
 88: 0x119D [0x1C] WAIT(180* ticks)
 89: 0x11A0 [0x5B] LOAD_EXT_SCHEDULER: Load scheduler "thb1" with entities [Rholont (ID: 17105415/0x01050207), Rholont (ID: 17105415/0x01050207)], work=1273*
 90: 0x11AF [0x1C] WAIT(90* ticks)
 91: 0x11B2 [0x4A] Rholont (ID: 17105415/0x01050207) looks at ??? Warmachine (ID: 17105465/0x01050239)
 92: 0x11BB [0x4A] LocalPlayer looks at ??? Warmachine (ID: 17105465/0x01050239)
 93: 0x11C4 [0x52] END_LOAD_SCHEDULER: End scheduler "s165" with entities [EventEntity, EventEntity], work=356*
 94: 0x11D3 [0x45] LOAD_SCHEDULED_TASK: Load scheduler "s166" with entities [EventEntity, EventEntity], work=[356*, 0*]
 95: 0x11E4 [0x7B] LocalPlayer stops talking
 96: 0x11E9 [0x7B] Rholont (ID: 17105415/0x01050207) stops talking
 97: 0x11EE [0x6F] WAIT_FRAME_DELAY: Yield until WaitTime reaches zero
 98: 0x11EF [0x76] CHECK_ENTITY_RENDER_FLAGS: Wait until Rholont (ID: 17105415/0x01050207) Render.Flags0 and Render.Flags3 conditions are met
 99: 0x11F4 [0x5B] LOAD_EXT_SCHEDULER: Load scheduler "kei0" with entities [Rholont (ID: 17105415/0x01050207), Rholont (ID: 17105415/0x01050207)], work=1301*
100: 0x1203 [0x2B] Rholont (ID: 17105415/0x01050207) [12428*]:
    → "Engineer Bistillot!!!"
101: 0x120A [0x23] WAIT_FOR_DIALOG_INTERACTION
102: 0x120B [0x5B] LOAD_EXT_SCHEDULER: Load scheduler "kei1" with entities [Rholont (ID: 17105415/0x01050207), Rholont (ID: 17105415/0x01050207)], work=1301*
103: 0x121A [0x52] END_LOAD_SCHEDULER: End scheduler "s166" with entities [EventEntity, EventEntity], work=356*
104: 0x1229 [0x45] LOAD_SCHEDULED_TASK: Load scheduler "s167" with entities [EventEntity, EventEntity], work=[356*, 0*]
105: 0x123A [0x2B] Bistillot (ID: 17105423/0x0105020F) [12429*]:
    → "<Sigh> Sentinel Rholont, how many times must I remind you that shouting is completely unnecessary from this distance?"
106: 0x1241 [0x23] WAIT_FOR_DIALOG_INTERACTION
107: 0x1242 [0x2B] Bistillot (ID: 17105423/0x0105020F) [12430*]:
