# 17105544 - Hegouard

## Common Data

| Field            | Value                            |
|------------------|----------------------------------|
| Zone             | Southern San d'Oria [S] (ID: 80) |
| Block Size       | 1952 bytes                       |
| Total Events     | 61                               |
| References Count | 92                               |

## List of Events

| Event ID                   | Entrypoint   |   Size |   Instructions |
|----------------------------|--------------|--------|----------------|
| [65535](#event-65535)      | 0x0000       |      1 |              1 |
| [65535.1](#event-655351)   | 0x0001       |      1 |              1 |
| [65535.2](#event-655352)   | 0x0002       |     18 |              4 |
| [65535.3](#event-655353)   | 0x0014       |     10 |              2 |
| [65535.4](#event-655354)   | 0x001E       |      9 |              3 |
| [65535.5](#event-655355)   | 0x0027       |      9 |              3 |
| [65535.6](#event-655356)   | 0x0030       |     10 |              2 |
| [65535.7](#event-655357)   | 0x003A       |     10 |              2 |
| [70](#event-70)            | 0x0044       |      1 |              1 |
| [152](#event-152)          | 0x0045       |      1 |              1 |
| [65535.8](#event-655358)   | 0x0046       |     12 |              3 |
| [154](#event-154)          | 0x0052       |      1 |              1 |
| [65535.9](#event-655359)   | 0x0053       |     20 |              5 |
| [65535.10](#event-6553510) | 0x0067       |     19 |              4 |
| [65535.11](#event-6553511) | 0x007A       |     19 |              3 |
| [65535.12](#event-6553512) | 0x008D       |     21 |              3 |
| [65535.13](#event-6553513) | 0x00A2       |     21 |              3 |
| [65535.14](#event-6553514) | 0x00B7       |     45 |             10 |
| [65535.15](#event-6553515) | 0x00E4       |     45 |             10 |
| [65535.16](#event-6553516) | 0x0111       |     69 |             14 |
| [65535.17](#event-6553517) | 0x0156       |     11 |              3 |
| [65535.18](#event-6553518) | 0x0161       |     13 |              3 |
| [65535.19](#event-6553519) | 0x016E       |     13 |              3 |
| [65535.20](#event-6553520) | 0x017B       |     58 |             14 |
| [65535.21](#event-6553521) | 0x01B5       |    128 |             22 |
| [65535.22](#event-6553522) | 0x0235       |     45 |             10 |
| [65535.23](#event-6553523) | 0x0262       |     35 |              8 |
| [65535.24](#event-6553524) | 0x0285       |     21 |              2 |
| [65535.25](#event-6553525) | 0x029A       |     21 |              2 |
| [65535.26](#event-6553526) | 0x02AF       |     21 |              2 |
| [65535.27](#event-6553527) | 0x02C4       |     21 |              2 |
| [65535.28](#event-6553528) | 0x02D9       |     21 |              2 |
| [65535.29](#event-6553529) | 0x02EE       |     21 |              2 |
| [65535.30](#event-6553530) | 0x0303       |     21 |              2 |
| [65535.31](#event-6553531) | 0x0318       |     21 |              2 |
| [65535.32](#event-6553532) | 0x032D       |     21 |              2 |
| [65535.33](#event-6553533) | 0x0342       |     21 |              2 |
| [65535.34](#event-6553534) | 0x0357       |     21 |              2 |
| [65535.35](#event-6553535) | 0x036C       |     21 |              2 |
| [65535.36](#event-6553536) | 0x0381       |     21 |              2 |
| [65535.37](#event-6553537) | 0x0396       |     21 |              2 |
| [65535.38](#event-6553538) | 0x03AB       |     21 |              2 |
| [65535.39](#event-6553539) | 0x03C0       |     21 |              2 |
| [65535.40](#event-6553540) | 0x03D5       |     21 |              2 |
| [65535.41](#event-6553541) | 0x03EA       |     21 |              2 |
| [65535.42](#event-6553542) | 0x03FF       |     21 |              2 |
| [65535.43](#event-6553543) | 0x0414       |     21 |              2 |
| [65535.44](#event-6553544) | 0x0429       |     21 |              2 |
| [65535.45](#event-6553545) | 0x043E       |     21 |              2 |
| [65535.46](#event-6553546) | 0x0453       |     21 |              2 |
| [65535.47](#event-6553547) | 0x0468       |     21 |              2 |
| [65535.48](#event-6553548) | 0x047D       |     21 |              2 |
| [65535.49](#event-6553549) | 0x0492       |     21 |              2 |
| [65535.50](#event-6553550) | 0x04A7       |     21 |              2 |
| [65535.51](#event-6553551) | 0x04BC       |     21 |              2 |
| [65535.52](#event-6553552) | 0x04D1       |     21 |              2 |
| [65535.53](#event-6553553) | 0x04E6       |     21 |              2 |
| [65535.54](#event-6553554) | 0x04FB       |     21 |              2 |
| [65535.55](#event-6553555) | 0x0510       |     21 |              2 |
| [65535.56](#event-6553556) | 0x0525       |      3 |              2 |
| [65535.57](#event-6553557) | 0x0528       |      3 |              2 |

## DAT References (imed_data)

|   Index | Hex Value   |   Dec Value |
|---------|-------------|-------------|
|       0 | 0x0000      |           0 |
|       1 | 0x0001      |           1 |
|       2 | 0x0080      |         128 |
|       3 | 0x14689     |       83593 |
|       4 | 0x1D64E     |      120398 |
|       5 | 0xFFFFFFF5  |  4294967285 |
|       6 | 0x0200      |         512 |
|       7 | 0x000D      |          13 |
|       8 | 0x156B4     |       87732 |
|       9 | 0x1C4EE     |      115950 |
|      10 | 0x03E8      |        1000 |
|      11 | 0x18C87     |      101511 |
|      12 | 0x189B0     |      100784 |
|      13 | 0x03E7      |         999 |
|      14 | 0x003C      |          60 |
|      15 | 0x000B      |          11 |
|      16 | 0x148C5     |       84165 |
|      17 | 0x1D413     |      119827 |
|      18 | 0x147DF     |       83935 |
|      19 | 0x1DA56     |      121430 |
|      20 | 0x150EE     |       86254 |
|      21 | 0x1BBE7     |      113639 |
|      22 | 0x14B01     |       84737 |
|      23 | 0x1B917     |      112919 |
|      24 | 0x14373     |       82803 |
|      25 | 0x1B869     |      112745 |
|      26 | 0x1615C     |       90460 |
|      27 | 0x1B0BB     |      110779 |
|      28 | 0x16B7C     |       93052 |
|      29 | 0x1B930     |      112944 |
|      30 | 0x1746D     |       95341 |
|      31 | 0x1BC23     |      113699 |
|      32 | 0x15F48     |       89928 |
|      33 | 0x1B5C5     |      112069 |
|      34 | 0x15BC3     |       89027 |
|      35 | 0x1C9CF     |      117199 |
|      36 | 0x02EE      |         750 |
|      37 | 0x15B58     |       88920 |
|      38 | 0x1CCAE     |      117934 |
|      39 | 0x15CE7     |       89319 |
|      40 | 0x1D3BA     |      119738 |
|      41 | 0x171B4     |       94644 |
|      42 | 0x1C020     |      114720 |
|      43 | 0x062B      |        1579 |
|      44 | 0x00B4      |         180 |
|      45 | 0x001E      |          30 |
|      46 | 0x0007      |           7 |
|      47 | 0x005A      |          90 |
|      48 | 0x0050      |          80 |
|      49 | 0x0024      |          36 |
|      50 | 0x0064      |         100 |
|      51 | 0x0005      |           5 |
|      52 | 0x000E      |          14 |
|      53 | 0x162A9     |       90793 |
|      54 | 0x1B7C9     |      112585 |
|      55 | 0x15933     |       88371 |
|      56 | 0x1BEAB     |      114347 |
|      57 | 0x01F4      |         500 |
|      58 | 0x14A19     |       84505 |
|      59 | 0x1BCE0     |      113888 |
|      60 | 0x15A3C     |       88636 |
|      61 | 0x1B838     |      112696 |
|      62 | 0x0003      |           3 |
|      63 | 0x0017      |          23 |
|      64 | 0x0002      |           2 |
|      65 | 0x0068      |         104 |
|      66 | 0x0018      |          24 |
|      67 | 0x0006      |           6 |
|      68 | 0x0004      |           4 |
|      69 | 0x0015      |          21 |
|      70 | 0x0008      |           8 |
|      71 | 0x007D      |         125 |
|      72 | 0x0060      |          96 |
|      73 | 0x000F      |          15 |
|      74 | 0x0038      |          56 |
|      75 | 0x0029      |          41 |
|      76 | 0x00D9      |         217 |
|      77 | 0x000C      |          12 |
|      78 | 0x00DD      |         221 |
|      79 | 0x0028      |          40 |
|      80 | 0x0097      |         151 |
|      81 | 0x0009      |           9 |
|      82 | 0x00D3      |         211 |
|      83 | 0x00A4      |         164 |
|      84 | 0x0045      |          69 |
|      85 | 0x002F      |          47 |
|      86 | 0x001A      |          26 |
|      87 | 0x0072      |         114 |
|      88 | 0x003A      |          58 |
|      89 | 0x00D2      |         210 |
|      90 | 0x00FB      |         251 |
|      91 | 0x004C      |          76 |

## Events

### Event 65535

#### Metadata

| Field        | Value   |
|--------------|---------|
| Entrypoint   | 0x0000  |
| Data Size    | 1 bytes |
| Instructions | 1       |

```
      00 01 02 03 04 05 06 07  08 09 0A 0B 0C 0D 0E 0F
      -- -- -- -- -- -- -- --  -- -- -- -- -- -- -- --
0000: 00                                                .               
```

#### Opcodes

```
  0: 0x0000 [0x00] END_REQSTACK()
```

### Event 65535.1

#### Metadata

| Field        | Value   |
|--------------|---------|
| Entrypoint   | 0x0001  |
| Data Size    | 1 bytes |
| Instructions | 1       |

```
      00 01 02 03 04 05 06 07  08 09 0A 0B 0C 0D 0E 0F
      -- -- -- -- -- -- -- --  -- -- -- -- -- -- -- --
0000:    00                                              .              
```

#### Opcodes

```
  0: 0x0001 [0x00] END_REQSTACK()
```

### Event 65535.2

#### Metadata

| Field        | Value    |
|--------------|----------|
| Entrypoint   | 0x0002   |
| Data Size    | 18 bytes |
| Instructions | 4        |

```
      00 01 02 03 04 05 06 07  08 09 0A 0B 0C 0D 0E 0F
      -- -- -- -- -- -- -- --  -- -- -- -- -- -- -- --
0000:       22 00 2F 00 F8 FF  FF 7F 6C F8 FF FF 7F 00    "./.....l.....
0010: 80 01 80 00                                       ....            
```

#### Opcodes

```
  0: 0x0002 [0x22] ENTITY_HIDE_FLAG(enabled=0x00)
  1: 0x0004 [0x2F] EventEntity->Render.Flags0 &= ~0x80000 // Bit 19
  2: 0x000A [0x6C] FADE_ENTITY_COLOR(entity_id=EventEntity, end_alpha=0*, fade_time=1*)
  3: 0x0013 [0x00] END_REQSTACK()
```

### Event 65535.3

#### Metadata

| Field        | Value    |
|--------------|----------|
| Entrypoint   | 0x0014   |
| Data Size    | 10 bytes |
| Instructions | 2        |

```
      00 01 02 03 04 05 06 07  08 09 0A 0B 0C 0D 0E 0F
      -- -- -- -- -- -- -- --  -- -- -- -- -- -- -- --
0010:             6C F8 FF FF  7F 02 80 01 80 00            l.........  
```

#### Opcodes

```
  0: 0x0014 [0x6C] FADE_ENTITY_COLOR(entity_id=EventEntity, end_alpha=128*, fade_time=1*)
  1: 0x001D [0x00] END_REQSTACK()
```

### Event 65535.4

#### Metadata

| Field        | Value   |
|--------------|---------|
| Entrypoint   | 0x001E  |
| Data Size    | 9 bytes |
| Instructions | 3       |

```
      00 01 02 03 04 05 06 07  08 09 0A 0B 0C 0D 0E 0F
      -- -- -- -- -- -- -- --  -- -- -- -- -- -- -- --
0010:                                            22 00                ".
0020: 2F 00 F8 FF FF 7F 00                              /......         
```

#### Opcodes

```
  0: 0x001E [0x22] ENTITY_HIDE_FLAG(enabled=0x00)
  1: 0x0020 [0x2F] EventEntity->Render.Flags0 &= ~0x80000 // Bit 19
  2: 0x0026 [0x00] END_REQSTACK()
```

### Event 65535.5

#### Metadata

| Field        | Value   |
|--------------|---------|
| Entrypoint   | 0x0027  |
| Data Size    | 9 bytes |
| Instructions | 3       |

```
      00 01 02 03 04 05 06 07  08 09 0A 0B 0C 0D 0E 0F
      -- -- -- -- -- -- -- --  -- -- -- -- -- -- -- --
0020:                      22  01 2F 01 F8 FF FF 7F 00         "./......
```

#### Opcodes

```
  0: 0x0027 [0x22] ENTITY_HIDE_FLAG(enabled=0x01)
  1: 0x0029 [0x2F] EventEntity->Render.Flags0 |= 0x80000 // Bit 19
  2: 0x002F [0x00] END_REQSTACK()
```

### Event 65535.6

#### Metadata

| Field        | Value    |
|--------------|----------|
| Entrypoint   | 0x0030   |
| Data Size    | 10 bytes |
| Instructions | 2        |

```
      00 01 02 03 04 05 06 07  08 09 0A 0B 0C 0D 0E 0F
      -- -- -- -- -- -- -- --  -- -- -- -- -- -- -- --
0030: 6C F8 FF FF 7F 00 80 01  80 00                    l.........      
```

#### Opcodes

```
  0: 0x0030 [0x6C] FADE_ENTITY_COLOR(entity_id=EventEntity, end_alpha=0*, fade_time=1*)
  1: 0x0039 [0x00] END_REQSTACK()
```

### Event 65535.7

#### Metadata

| Field        | Value    |
|--------------|----------|
| Entrypoint   | 0x003A   |
| Data Size    | 10 bytes |
| Instructions | 2        |

```
      00 01 02 03 04 05 06 07  08 09 0A 0B 0C 0D 0E 0F
      -- -- -- -- -- -- -- --  -- -- -- -- -- -- -- --
0030:                                6C F8 FF FF 7F 02            l.....
0040: 80 01 80 00                                       ....            
```

#### Opcodes

```
  0: 0x003A [0x6C] FADE_ENTITY_COLOR(entity_id=EventEntity, end_alpha=128*, fade_time=1*)
  1: 0x0043 [0x00] END_REQSTACK()
```

### Event 70

#### Metadata

| Field        | Value   |
|--------------|---------|
| Entrypoint   | 0x0044  |
| Data Size    | 1 bytes |
| Instructions | 1       |

```
      00 01 02 03 04 05 06 07  08 09 0A 0B 0C 0D 0E 0F
      -- -- -- -- -- -- -- --  -- -- -- -- -- -- -- --
0040:             00                                        .           
```

#### Opcodes

```
  0: 0x0044 [0x00] END_REQSTACK()
```

### Event 152

#### Metadata

| Field        | Value   |
|--------------|---------|
| Entrypoint   | 0x0045  |
| Data Size    | 1 bytes |
| Instructions | 1       |

```
      00 01 02 03 04 05 06 07  08 09 0A 0B 0C 0D 0E 0F
      -- -- -- -- -- -- -- --  -- -- -- -- -- -- -- --
0040:                00                                      .          
```

#### Opcodes

```
  0: 0x0045 [0x00] END_REQSTACK()
```

### Event 65535.8

#### Metadata

| Field        | Value    |
|--------------|----------|
| Entrypoint   | 0x0046   |
| Data Size    | 12 bytes |
| Instructions | 3        |

```
      00 01 02 03 04 05 06 07  08 09 0A 0B 0C 0D 0E 0F
      -- -- -- -- -- -- -- --  -- -- -- -- -- -- -- --
0040:                   33 01  37 03 80 04 80 05 80 06        3.7.......
0050: 80 00                                             ..              
```

#### Opcodes

```
  0: 0x0046 [0x33] EventEntity->Render.Flags0 |= 0x200000 // Bit 21 (flag=0x01)
  1: 0x0048 [0x37] UPDATE_EVENT_POSITION_AND_DIR: x=83.593*, z=120.398*, y=-0.011*, direction=45.0°*
  2: 0x0051 [0x00] END_REQSTACK()
```

### Event 154

#### Metadata

| Field        | Value   |
|--------------|---------|
| Entrypoint   | 0x0052  |
| Data Size    | 1 bytes |
| Instructions | 1       |

```
      00 01 02 03 04 05 06 07  08 09 0A 0B 0C 0D 0E 0F
      -- -- -- -- -- -- -- --  -- -- -- -- -- -- -- --
0050:       00                                            .             
```

#### Opcodes

```
  0: 0x0052 [0x00] END_REQSTACK()
```

### Event 65535.9

#### Metadata

| Field        | Value    |
|--------------|----------|
| Entrypoint   | 0x0053   |
| Data Size    | 20 bytes |
| Instructions | 5        |

```
      00 01 02 03 04 05 06 07  08 09 0A 0B 0C 0D 0E 0F
      -- -- -- -- -- -- -- --  -- -- -- -- -- -- -- --
0050:          59 04 F8 FF FF  7F 07 80 1F 00 08 80 09     Y............
0060: 80 0A 80 1F 01 6F 00                              .....o.         
```

#### Opcodes

```
  0: 0x0053 [0x59] UPDATE_ENTITY_DATA: Set EventEntity main speed = 13* * 0.1
  1: 0x005B [0x1F] MOVE_ENTITY: EventEntity moves to X=87.732*, Z=115.950*, Y=1.000*
  2: 0x0063 [0x1F] MOVE_ENTITY: Update entity position (mode=1)
  3: 0x0065 [0x6F] WAIT_FRAME_DELAY: Yield until WaitTime reaches zero
  4: 0x0066 [0x00] END_REQSTACK()
```

### Event 65535.10

#### Metadata

| Field        | Value    |
|--------------|----------|
| Entrypoint   | 0x0067   |
| Data Size    | 19 bytes |
| Instructions | 4        |

```
      00 01 02 03 04 05 06 07  08 09 0A 0B 0C 0D 0E 0F
      -- -- -- -- -- -- -- --  -- -- -- -- -- -- -- --
0060:                      59  04 F8 FF FF 7F 07 80 1F         Y........
0070: 00 0B 80 0C 80 0D 80 1F  01 00                    ..........      
```

#### Opcodes

```
  0: 0x0067 [0x59] UPDATE_ENTITY_DATA: Set EventEntity main speed = 13* * 0.1
  1: 0x006F [0x1F] MOVE_ENTITY: EventEntity moves to X=101.511*, Z=100.784*, Y=0.999*
  2: 0x0077 [0x1F] MOVE_ENTITY: Update entity position (mode=1)
  3: 0x0079 [0x00] END_REQSTACK()
```

### Event 65535.11

#### Metadata

| Field        | Value    |
|--------------|----------|
| Entrypoint   | 0x007A   |
| Data Size    | 19 bytes |
| Instructions | 3        |

```
      00 01 02 03 04 05 06 07  08 09 0A 0B 0C 0D 0E 0F
      -- -- -- -- -- -- -- --  -- -- -- -- -- -- -- --
0070:                                1C 0E 80 5B 0F 80            ...[..
0080: 88 02 05 01 88 02 05 01  6D 61 65 31 00           ........mae1.   
```

#### Opcodes

```
  0: 0x007A [0x1C] WAIT(60* ticks)
  1: 0x007D [0x5B] LOAD_EXT_SCHEDULER: Load scheduler "mae1" with entities [Hegouard (ID: 17105544/0x01050288), Hegouard (ID: 17105544/0x01050288)], work=11*
  2: 0x008C [0x00] END_REQSTACK()
```

### Event 65535.12

#### Metadata

| Field        | Value    |
|--------------|----------|
| Entrypoint   | 0x008D   |
| Data Size    | 21 bytes |
| Instructions | 3        |

```
      00 01 02 03 04 05 06 07  08 09 0A 0B 0C 0D 0E 0F
      -- -- -- -- -- -- -- --  -- -- -- -- -- -- -- --
0080:                                         59 05 EC               Y..
0090: 02 05 01 01 BA EC 02 05  01 10 80 11 80 00 80 06  ................
00A0: 80 00                                             ..              
```

#### Opcodes

```
  0: 0x008D [0x59] UPDATE_ENTITY_DATA: Tanja (ID: 17105644/0x010502EC)->Render.Flags0 |= 0x200000
  1: 0x0094 [0xBA] SET_ENTITY_POSITION(entity_id=Tanja (ID: 17105644/0x010502EC), pos_x=84.165*, pos_z=119.827*, pos_y=0.000*, direction=45.0°*)
  2: 0x00A1 [0x00] END_REQSTACK()
```

### Event 65535.13

#### Metadata

| Field        | Value    |
|--------------|----------|
| Entrypoint   | 0x00A2   |
| Data Size    | 21 bytes |
| Instructions | 3        |

```
      00 01 02 03 04 05 06 07  08 09 0A 0B 0C 0D 0E 0F
      -- -- -- -- -- -- -- --  -- -- -- -- -- -- -- --
00A0:       59 05 ED 02 05 01  01 BA ED 02 05 01 12 80    Y.............
00B0: 13 80 00 80 06 80 00                              .......         
```

#### Opcodes

```
  0: 0x00A2 [0x59] UPDATE_ENTITY_DATA: Raina (ID: 17105645/0x010502ED)->Render.Flags0 |= 0x200000
  1: 0x00A9 [0xBA] SET_ENTITY_POSITION(entity_id=Raina (ID: 17105645/0x010502ED), pos_x=83.935*, pos_z=121.430*, pos_y=0.000*, direction=45.0°*)
  2: 0x00B6 [0x00] END_REQSTACK()
```

### Event 65535.14

#### Metadata

| Field        | Value    |
|--------------|----------|
| Entrypoint   | 0x00B7   |
| Data Size    | 45 bytes |
| Instructions | 10       |

```
      00 01 02 03 04 05 06 07  08 09 0A 0B 0C 0D 0E 0F
      -- -- -- -- -- -- -- --  -- -- -- -- -- -- -- --
00B0:                      7B  F8 FF FF 7F 59 04 F8 FF         {....Y...
00C0: FF 7F 07 80 1F 00 14 80  15 80 0A 80 1F 01 1F 00  ................
00D0: 16 80 17 80 0A 80 1F 01  1F 00 18 80 19 80 0A 80  ................
00E0: 1F 01 6F 00                                       ..o.            
```

#### Opcodes

```
  0: 0x00B7 [0x7B] EventEntity stops talking
  1: 0x00BC [0x59] UPDATE_ENTITY_DATA: Set EventEntity main speed = 13* * 0.1
  2: 0x00C4 [0x1F] MOVE_ENTITY: EventEntity moves to X=86.254*, Z=113.639*, Y=1.000*
  3: 0x00CC [0x1F] MOVE_ENTITY: Update entity position (mode=1)
  4: 0x00CE [0x1F] MOVE_ENTITY: EventEntity moves to X=84.737*, Z=112.919*, Y=1.000*
  5: 0x00D6 [0x1F] MOVE_ENTITY: Update entity position (mode=1)
  6: 0x00D8 [0x1F] MOVE_ENTITY: EventEntity moves to X=82.803*, Z=112.745*, Y=1.000*
  7: 0x00E0 [0x1F] MOVE_ENTITY: Update entity position (mode=1)
  8: 0x00E2 [0x6F] WAIT_FRAME_DELAY: Yield until WaitTime reaches zero
  9: 0x00E3 [0x00] END_REQSTACK()
```

### Event 65535.15

#### Metadata

| Field        | Value    |
|--------------|----------|
| Entrypoint   | 0x00E4   |
| Data Size    | 45 bytes |
| Instructions | 10       |

```
      00 01 02 03 04 05 06 07  08 09 0A 0B 0C 0D 0E 0F
      -- -- -- -- -- -- -- --  -- -- -- -- -- -- -- --
00E0:             7B F8 FF FF  7F 59 04 F8 FF FF 7F 07      {....Y......
00F0: 80 1F 00 1A 80 1B 80 00  80 1F 01 1F 00 1C 80 1D  ................
0100: 80 00 80 1F 01 1F 00 1E  80 1F 80 00 80 1F 01 6F  ...............o
0110: 00                                                .               
```

#### Opcodes

```
  0: 0x00E4 [0x7B] EventEntity stops talking
  1: 0x00E9 [0x59] UPDATE_ENTITY_DATA: Set EventEntity main speed = 13* * 0.1
  2: 0x00F1 [0x1F] MOVE_ENTITY: EventEntity moves to X=90.460*, Z=110.779*, Y=0.000*
  3: 0x00F9 [0x1F] MOVE_ENTITY: Update entity position (mode=1)
  4: 0x00FB [0x1F] MOVE_ENTITY: EventEntity moves to X=93.052*, Z=112.944*, Y=0.000*
  5: 0x0103 [0x1F] MOVE_ENTITY: Update entity position (mode=1)
  6: 0x0105 [0x1F] MOVE_ENTITY: EventEntity moves to X=95.341*, Z=113.699*, Y=0.000*
  7: 0x010D [0x1F] MOVE_ENTITY: Update entity position (mode=1)
  8: 0x010F [0x6F] WAIT_FRAME_DELAY: Yield until WaitTime reaches zero
  9: 0x0110 [0x00] END_REQSTACK()
```

### Event 65535.16

#### Metadata

| Field        | Value    |
|--------------|----------|
| Entrypoint   | 0x0111   |
| Data Size    | 69 bytes |
| Instructions | 14       |

```
      00 01 02 03 04 05 06 07  08 09 0A 0B 0C 0D 0E 0F
      -- -- -- -- -- -- -- --  -- -- -- -- -- -- -- --
0110:    7B F8 FF FF 7F 59 04  F8 FF FF 7F 07 80 1F 00   {....Y.........
0120: 20 80 21 80 00 80 1F 01  1F 00 22 80 23 80 24 80   .!.......".#.$.
0130: 1F 01 1F 00 25 80 26 80  0D 80 1F 01 1F 00 27 80  ....%.&.......'.
0140: 28 80 0A 80 1F 01 6F 4A  F8 FF FF 7F AE 02 05 01  (.....oJ........
0150: 7B F8 FF FF 7F 00                                 {.....          
```

#### Opcodes

```
  0: 0x0111 [0x7B] EventEntity stops talking
  1: 0x0116 [0x59] UPDATE_ENTITY_DATA: Set EventEntity main speed = 13* * 0.1
  2: 0x011E [0x1F] MOVE_ENTITY: EventEntity moves to X=89.928*, Z=112.069*, Y=0.000*
  3: 0x0126 [0x1F] MOVE_ENTITY: Update entity position (mode=1)
  4: 0x0128 [0x1F] MOVE_ENTITY: EventEntity moves to X=89.027*, Z=117.199*, Y=0.750*
  5: 0x0130 [0x1F] MOVE_ENTITY: Update entity position (mode=1)
  6: 0x0132 [0x1F] MOVE_ENTITY: EventEntity moves to X=88.920*, Z=117.934*, Y=0.999*
  7: 0x013A [0x1F] MOVE_ENTITY: Update entity position (mode=1)
  8: 0x013C [0x1F] MOVE_ENTITY: EventEntity moves to X=89.319*, Z=119.738*, Y=1.000*
  9: 0x0144 [0x1F] MOVE_ENTITY: Update entity position (mode=1)
 10: 0x0146 [0x6F] WAIT_FRAME_DELAY: Yield until WaitTime reaches zero
 11: 0x0147 [0x4A] EventEntity looks at Vestillet (ID: 17105582/0x010502AE)
 12: 0x0150 [0x7B] EventEntity stops talking
 13: 0x0155 [0x00] END_REQSTACK()
```

### Event 65535.17

#### Metadata

| Field        | Value    |
|--------------|----------|
| Entrypoint   | 0x0156   |
| Data Size    | 11 bytes |
| Instructions | 3        |

```
      00 01 02 03 04 05 06 07  08 09 0A 0B 0C 0D 0E 0F
      -- -- -- -- -- -- -- --  -- -- -- -- -- -- -- --
0150:                   1F 00  29 80 2A 80 00 80 1F 01        ..).*.....
0160: 00                                                .               
```

#### Opcodes

```
  0: 0x0156 [0x1F] MOVE_ENTITY: EventEntity moves to X=94.644*, Z=114.720*, Y=0.000*
  1: 0x015E [0x1F] MOVE_ENTITY: Update entity position (mode=1)
  2: 0x0160 [0x00] END_REQSTACK()
```

### Event 65535.18

#### Metadata

| Field        | Value    |
|--------------|----------|
| Entrypoint   | 0x0161   |
| Data Size    | 13 bytes |
| Instructions | 3        |

```
      00 01 02 03 04 05 06 07  08 09 0A 0B 0C 0D 0E 0F
      -- -- -- -- -- -- -- --  -- -- -- -- -- -- -- --
0160:    6E F8 FF FF 7F 07 80  99 F8 FF FF 7F 00         n............  
```

#### Opcodes

```
  0: 0x0161 [0x6E] EventEntity uses emote 13*
  1: 0x0168 [0x99] Wait for EventEntity animation to complete
  2: 0x016D [0x00] END_REQSTACK()
```

### Event 65535.19

#### Metadata

| Field        | Value    |
|--------------|----------|
| Entrypoint   | 0x016E   |
| Data Size    | 13 bytes |
| Instructions | 3        |

```
      00 01 02 03 04 05 06 07  08 09 0A 0B 0C 0D 0E 0F
      -- -- -- -- -- -- -- --  -- -- -- -- -- -- -- --
0160:                                            6E F8                n.
0170: FF FF 7F 2B 80 99 F8 FF  FF 7F 00                 ...+.......     
```

#### Opcodes

```
  0: 0x016E [0x6E] EventEntity uses emote 1579*
  1: 0x0175 [0x99] Wait for EventEntity animation to complete
  2: 0x017A [0x00] END_REQSTACK()
```

### Event 65535.20

#### Metadata

| Field        | Value    |
|--------------|----------|
| Entrypoint   | 0x017B   |
| Data Size    | 58 bytes |
| Instructions | 14       |

```
      00 01 02 03 04 05 06 07  08 09 0A 0B 0C 0D 0E 0F
      -- -- -- -- -- -- -- --  -- -- -- -- -- -- -- --
0170:                                   1C 2C 80 1C 2D             .,..-
0180: 80 6E 0E 03 05 01 2E 80  99 0E 03 05 01 1C 0E 80  .n..............
0190: 6E 12 03 05 01 2E 80 99  12 03 05 01 1C 2F 80 1C  n............/..
01A0: 30 80 6E 18 03 05 01 31  80 99 18 03 05 01 1C 32  0.n....1.......2
01B0: 80 1C 2C 80 00                                    ..,..           
```

#### Opcodes

```
  0: 0x017B [0x1C] WAIT(180* ticks)
  1: 0x017E [0x1C] WAIT(30* ticks)
  2: 0x0181 [0x6E] Leonoyne (ID: 17105678/0x0105030E) uses emote 7*
  3: 0x0188 [0x99] Wait for Leonoyne (ID: 17105678/0x0105030E) animation to complete
  4: 0x018D [0x1C] WAIT(60* ticks)
  5: 0x0190 [0x6E] Febrenard C Brunnaut (ID: 17105682/0x01050312) uses emote 7*
  6: 0x0197 [0x99] Wait for Febrenard C Brunnaut (ID: 17105682/0x01050312) animation to complete
  7: 0x019C [0x1C] WAIT(90* ticks)
  8: 0x019F [0x1C] WAIT(80* ticks)
  9: 0x01A2 [0x6E] 04 (ID: 17105688/0x01050318) uses emote 36*
 10: 0x01A9 [0x99] Wait for 04 (ID: 17105688/0x01050318) animation to complete
 11: 0x01AE [0x1C] WAIT(100* ticks)
 12: 0x01B1 [0x1C] WAIT(180* ticks)
 13: 0x01B4 [0x00] END_REQSTACK()
```

### Event 65535.21

#### Metadata

| Field        | Value     |
|--------------|-----------|
| Entrypoint   | 0x01B5    |
| Data Size    | 128 bytes |
| Instructions | 22        |

```
      00 01 02 03 04 05 06 07  08 09 0A 0B 0C 0D 0E 0F
      -- -- -- -- -- -- -- --  -- -- -- -- -- -- -- --
01B0:                27 10 14  03 05 01 14 1C 33 80 27       '.......3.'
01C0: 10 12 03 05 01 12 27 10  18 03 05 01 14 27 10 10  ......'......'..
01D0: 03 05 01 12 6E ED 02 05  01 34 80 99 ED 02 05 01  ....n....4......
01E0: 27 10 19 03 05 01 13 27  10 1B 03 05 01 14 6E 17  '......'......n.
01F0: 03 05 01 07 80 99 17 03  05 01 27 10 1A 03 05 01  ..........'.....
0200: 13 6E 13 03 05 01 07 80  99 13 03 05 01 1C 33 80  .n............3.
0210: 27 10 11 03 05 01 12 27  10 0F 03 05 01 12 1C 33  '......'.......3
0220: 80 27 10 0E 03 05 01 12  6E AE 02 05 01 07 80 99  .'......n.......
0230: AE 02 05 01 00                                    .....           
```

#### Opcodes

```
  0: 0x01B5 [0x27] REQ_SET(priority=0x10, entity_id=Unnamed NPC (ID: 17105684/0x01050314), tag_num=0x14)
  1: 0x01BC [0x1C] WAIT(5* ticks)
  2: 0x01BF [0x27] REQ_SET(priority=0x10, entity_id=Febrenard C Brunnaut (ID: 17105682/0x01050312), tag_num=0x12)
  3: 0x01C6 [0x27] REQ_SET(priority=0x10, entity_id=04 (ID: 17105688/0x01050318), tag_num=0x14)
  4: 0x01CD [0x27] REQ_SET(priority=0x10, entity_id=Laisavie X Berlends (ID: 17105680/0x01050310), tag_num=0x12)
  5: 0x01D4 [0x6E] Raina (ID: 17105645/0x010502ED) uses emote 14*
  6: 0x01DB [0x99] Wait for Raina (ID: 17105645/0x010502ED) animation to complete
  7: 0x01E0 [0x27] REQ_SET(priority=0x10, entity_id=05 (ID: 17105689/0x01050319), tag_num=0x13)
  8: 0x01E7 [0x27] REQ_SET(priority=0x10, entity_id=07 (ID: 17105691/0x0105031B), tag_num=0x14)
  9: 0x01EE [0x6E] 03 (ID: 17105687/0x01050317) uses emote 13*
 10: 0x01F5 [0x99] Wait for 03 (ID: 17105687/0x01050317) animation to complete
 11: 0x01FA [0x27] REQ_SET(priority=0x10, entity_id=06 (ID: 17105690/0x0105031A), tag_num=0x13)
 12: 0x0201 [0x6E] Noillurie (ID: 17105683/0x01050313) uses emote 13*
 13: 0x0208 [0x99] Wait for Noillurie (ID: 17105683/0x01050313) animation to complete
 14: 0x020D [0x1C] WAIT(5* ticks)
 15: 0x0210 [0x27] REQ_SET(priority=0x10, entity_id=Mieuseloir B Enchelles (ID: 17105681/0x01050311), tag_num=0x12)
 16: 0x0217 [0x27] REQ_SET(priority=0x10, entity_id=Feldrautte I Rouhent (ID: 17105679/0x0105030F), tag_num=0x12)
 17: 0x021E [0x1C] WAIT(5* ticks)
 18: 0x0221 [0x27] REQ_SET(priority=0x10, entity_id=Leonoyne (ID: 17105678/0x0105030E), tag_num=0x12)
 19: 0x0228 [0x6E] Vestillet (ID: 17105582/0x010502AE) uses emote 13*
 20: 0x022F [0x99] Wait for Vestillet (ID: 17105582/0x010502AE) animation to complete
 21: 0x0234 [0x00] END_REQSTACK()
```

### Event 65535.22

#### Metadata

| Field        | Value    |
|--------------|----------|
| Entrypoint   | 0x0235   |
| Data Size    | 45 bytes |
| Instructions | 10       |

```
      00 01 02 03 04 05 06 07  08 09 0A 0B 0C 0D 0E 0F
      -- -- -- -- -- -- -- --  -- -- -- -- -- -- -- --
0230:                7B F8 FF  FF 7F 59 04 F8 FF FF 7F       {....Y.....
0240: 07 80 1F 00 35 80 36 80  00 80 1F 01 1F 00 37 80  ....5.6.......7.
0250: 38 80 39 80 1F 01 1F 00  3A 80 3B 80 0A 80 1F 01  8.9.....:.;.....
0260: 6F 00                                             o.              
```

#### Opcodes

```
  0: 0x0235 [0x7B] EventEntity stops talking
  1: 0x023A [0x59] UPDATE_ENTITY_DATA: Set EventEntity main speed = 13* * 0.1
  2: 0x0242 [0x1F] MOVE_ENTITY: EventEntity moves to X=90.793*, Z=112.585*, Y=0.000*
  3: 0x024A [0x1F] MOVE_ENTITY: Update entity position (mode=1)
  4: 0x024C [0x1F] MOVE_ENTITY: EventEntity moves to X=88.371*, Z=114.347*, Y=0.500*
  5: 0x0254 [0x1F] MOVE_ENTITY: Update entity position (mode=1)
  6: 0x0256 [0x1F] MOVE_ENTITY: EventEntity moves to X=84.505*, Z=113.888*, Y=1.000*
  7: 0x025E [0x1F] MOVE_ENTITY: Update entity position (mode=1)
  8: 0x0260 [0x6F] WAIT_FRAME_DELAY: Yield until WaitTime reaches zero
  9: 0x0261 [0x00] END_REQSTACK()
```

### Event 65535.23

#### Metadata

| Field        | Value    |
|--------------|----------|
| Entrypoint   | 0x0262   |
| Data Size    | 35 bytes |
| Instructions | 8        |

```
      00 01 02 03 04 05 06 07  08 09 0A 0B 0C 0D 0E 0F
      -- -- -- -- -- -- -- --  -- -- -- -- -- -- -- --
0260:       4A F8 FF FF 7F EC  02 05 01 6F 76 F8 FF FF    J........ov...
0270: 7F 59 04 F8 FF FF 7F 07  80 1F 00 3C 80 3D 80 00  .Y.........<.=..
0280: 80 1F 01 6F 00                                    ...o.           
```

#### Opcodes

```
  0: 0x0262 [0x4A] EventEntity looks at Tanja (ID: 17105644/0x010502EC)
  1: 0x026B [0x6F] WAIT_FRAME_DELAY: Yield until WaitTime reaches zero
  2: 0x026C [0x76] CHECK_ENTITY_RENDER_FLAGS: Wait until EventEntity Render.Flags0 and Render.Flags3 conditions are met
  3: 0x0271 [0x59] UPDATE_ENTITY_DATA: Set EventEntity main speed = 13* * 0.1
  4: 0x0279 [0x1F] MOVE_ENTITY: EventEntity moves to X=88.636*, Z=112.696*, Y=0.000*
  5: 0x0281 [0x1F] MOVE_ENTITY: Update entity position (mode=1)
  6: 0x0283 [0x6F] WAIT_FRAME_DELAY: Yield until WaitTime reaches zero
  7: 0x0284 [0x00] END_REQSTACK()
```

### Event 65535.24

#### Metadata

| Field        | Value    |
|--------------|----------|
| Entrypoint   | 0x0285   |
| Data Size    | 21 bytes |
| Instructions | 2        |

```
      00 01 02 03 04 05 06 07  08 09 0A 0B 0C 0D 0E 0F
      -- -- -- -- -- -- -- --  -- -- -- -- -- -- -- --
0280:                B6 0B 3E  80 0F 80 3F 80 3F 80 3F       ..>...?.?.?
0290: 80 3F 80 3F 80 00 80 00  80 00                    .?.?......      
```

#### Opcodes

```
  0: 0x0285 [0xB6] ENTITY_APPEARANCE_HANDLER(case=Full entity look, race=3*, hair=11*, head=23*, body=23*, hands=23*, legs=23*, feet=23*, main=0*, sub=0*)
  1: 0x0299 [0x00] END_REQSTACK()
```

### Event 65535.25

#### Metadata

| Field        | Value    |
|--------------|----------|
| Entrypoint   | 0x029A   |
| Data Size    | 21 bytes |
| Instructions | 2        |

```
      00 01 02 03 04 05 06 07  08 09 0A 0B 0C 0D 0E 0F
      -- -- -- -- -- -- -- --  -- -- -- -- -- -- -- --
0290:                                B6 0B 40 80 3E 80            ..@.>.
02A0: 3F 80 41 80 3F 80 3F 80  3F 80 00 80 00 80 00     ?.A.?.?.?...... 
```

#### Opcodes

```
  0: 0x029A [0xB6] ENTITY_APPEARANCE_HANDLER(case=Full entity look, race=2*, hair=3*, head=23*, body=104*, hands=23*, legs=23*, feet=23*, main=0*, sub=0*)
  1: 0x02AE [0x00] END_REQSTACK()
```

### Event 65535.26

#### Metadata

| Field        | Value    |
|--------------|----------|
| Entrypoint   | 0x02AF   |
| Data Size    | 21 bytes |
| Instructions | 2        |

```
      00 01 02 03 04 05 06 07  08 09 0A 0B 0C 0D 0E 0F
      -- -- -- -- -- -- -- --  -- -- -- -- -- -- -- --
02A0:                                               B6                 .
02B0: 0B 33 80 33 80 42 80 42  80 42 80 42 80 42 80 00  .3.3.B.B.B.B.B..
02C0: 80 00 80 00                                       ....            
```

#### Opcodes

```
  0: 0x02AF [0xB6] ENTITY_APPEARANCE_HANDLER(case=Full entity look, race=5*, hair=5*, head=24*, body=24*, hands=24*, legs=24*, feet=24*, main=0*, sub=0*)
  1: 0x02C3 [0x00] END_REQSTACK()
```

### Event 65535.27

#### Metadata

| Field        | Value    |
|--------------|----------|
| Entrypoint   | 0x02C4   |
| Data Size    | 21 bytes |
| Instructions | 2        |

```
      00 01 02 03 04 05 06 07  08 09 0A 0B 0C 0D 0E 0F
      -- -- -- -- -- -- -- --  -- -- -- -- -- -- -- --
02C0:             B6 0B 2E 80  43 80 3F 80 3F 80 3F 80      ....C.?.?.?.
02D0: 3F 80 3F 80 00 80 00 80  00                       ?.?......       
```

#### Opcodes

```
  0: 0x02C4 [0xB6] ENTITY_APPEARANCE_HANDLER(case=Full entity look, race=7*, hair=6*, head=23*, body=23*, hands=23*, legs=23*, feet=23*, main=0*, sub=0*)
  1: 0x02D8 [0x00] END_REQSTACK()
```

### Event 65535.28

#### Metadata

| Field        | Value    |
|--------------|----------|
| Entrypoint   | 0x02D9   |
| Data Size    | 21 bytes |
| Instructions | 2        |

```
      00 01 02 03 04 05 06 07  08 09 0A 0B 0C 0D 0E 0F
      -- -- -- -- -- -- -- --  -- -- -- -- -- -- -- --
02D0:                             B6 0B 44 80 3E 80 00           ..D.>..
02E0: 80 45 80 45 80 45 80 45  80 00 80 00 80 00        .E.E.E.E......  
```

#### Opcodes

```
  0: 0x02D9 [0xB6] ENTITY_APPEARANCE_HANDLER(case=Full entity look, race=4*, hair=3*, head=0*, body=21*, hands=21*, legs=21*, feet=21*, main=0*, sub=0*)
  1: 0x02ED [0x00] END_REQSTACK()
```

### Event 65535.29

#### Metadata

| Field        | Value    |
|--------------|----------|
| Entrypoint   | 0x02EE   |
| Data Size    | 21 bytes |
| Instructions | 2        |

```
      00 01 02 03 04 05 06 07  08 09 0A 0B 0C 0D 0E 0F
      -- -- -- -- -- -- -- --  -- -- -- -- -- -- -- --
02E0:                                            B6 0B                ..
02F0: 46 80 00 80 47 80 48 80  48 80 48 80 48 80 00 80  F...G.H.H.H.H...
0300: 00 80 00                                          ...             
```

#### Opcodes

```
  0: 0x02EE [0xB6] ENTITY_APPEARANCE_HANDLER(case=Full entity look, race=8*, hair=0*, head=125*, body=96*, hands=96*, legs=96*, feet=96*, main=0*, sub=0*)
  1: 0x0302 [0x00] END_REQSTACK()
```

### Event 65535.30

#### Metadata

| Field        | Value    |
|--------------|----------|
| Entrypoint   | 0x0303   |
| Data Size    | 21 bytes |
| Instructions | 2        |

```
      00 01 02 03 04 05 06 07  08 09 0A 0B 0C 0D 0E 0F
      -- -- -- -- -- -- -- --  -- -- -- -- -- -- -- --
0300:          B6 0B 46 80 3E  80 47 80 48 80 48 80 48     ..F.>.G.H.H.H
0310: 80 48 80 00 80 00 80 00                           .H......        
```

#### Opcodes

```
  0: 0x0303 [0xB6] ENTITY_APPEARANCE_HANDLER(case=Full entity look, race=8*, hair=3*, head=125*, body=96*, hands=96*, legs=96*, feet=96*, main=0*, sub=0*)
  1: 0x0317 [0x00] END_REQSTACK()
```

### Event 65535.31

#### Metadata

| Field        | Value    |
|--------------|----------|
| Entrypoint   | 0x0318   |
| Data Size    | 21 bytes |
| Instructions | 2        |

```
      00 01 02 03 04 05 06 07  08 09 0A 0B 0C 0D 0E 0F
      -- -- -- -- -- -- -- --  -- -- -- -- -- -- -- --
0310:                          B6 0B 3E 80 49 80 4A 80          ..>.I.J.
0320: 4B 80 4C 80 4D 80 4D 80  00 80 00 80 00           K.L.M.M......   
```

#### Opcodes

```
  0: 0x0318 [0xB6] ENTITY_APPEARANCE_HANDLER(case=Full entity look, race=3*, hair=15*, head=56*, body=41*, hands=217*, legs=12*, feet=12*, main=0*, sub=0*)
  1: 0x032C [0x00] END_REQSTACK()
```

### Event 65535.32

#### Metadata

| Field        | Value    |
|--------------|----------|
| Entrypoint   | 0x032D   |
| Data Size    | 21 bytes |
| Instructions | 2        |

```
      00 01 02 03 04 05 06 07  08 09 0A 0B 0C 0D 0E 0F
      -- -- -- -- -- -- -- --  -- -- -- -- -- -- -- --
0320:                                         B6 0B 3E               ..>
0330: 80 0F 80 4A 80 4E 80 4D  80 4D 80 4D 80 00 80 00  ...J.N.M.M.M....
0340: 80 00                                             ..              
```

#### Opcodes

```
  0: 0x032D [0xB6] ENTITY_APPEARANCE_HANDLER(case=Full entity look, race=3*, hair=11*, head=56*, body=221*, hands=12*, legs=12*, feet=12*, main=0*, sub=0*)
  1: 0x0341 [0x00] END_REQSTACK()
```

### Event 65535.33

#### Metadata

| Field        | Value    |
|--------------|----------|
| Entrypoint   | 0x0342   |
| Data Size    | 21 bytes |
| Instructions | 2        |

```
      00 01 02 03 04 05 06 07  08 09 0A 0B 0C 0D 0E 0F
      -- -- -- -- -- -- -- --  -- -- -- -- -- -- -- --
0340:       B6 0B 3E 80 01 80  4A 80 4E 80 4D 80 4D 80    ..>...J.N.M.M.
0350: 4D 80 00 80 00 80 00                              M......         
```

#### Opcodes

```
  0: 0x0342 [0xB6] ENTITY_APPEARANCE_HANDLER(case=Full entity look, race=3*, hair=1*, head=56*, body=221*, hands=12*, legs=12*, feet=12*, main=0*, sub=0*)
  1: 0x0356 [0x00] END_REQSTACK()
```

### Event 65535.34

#### Metadata

| Field        | Value    |
|--------------|----------|
| Entrypoint   | 0x0357   |
| Data Size    | 21 bytes |
| Instructions | 2        |

```
      00 01 02 03 04 05 06 07  08 09 0A 0B 0C 0D 0E 0F
      -- -- -- -- -- -- -- --  -- -- -- -- -- -- -- --
0350:                      B6  0B 44 80 33 80 00 80 4F         ..D.3...O
0360: 80 50 80 50 80 50 80 00  80 00 80 00              .P.P.P......    
```

#### Opcodes

```
  0: 0x0357 [0xB6] ENTITY_APPEARANCE_HANDLER(case=Full entity look, race=4*, hair=5*, head=0*, body=40*, hands=151*, legs=151*, feet=151*, main=0*, sub=0*)
  1: 0x036B [0x00] END_REQSTACK()
```

### Event 65535.35

#### Metadata

| Field        | Value    |
|--------------|----------|
| Entrypoint   | 0x036C   |
| Data Size    | 21 bytes |
| Instructions | 2        |

```
      00 01 02 03 04 05 06 07  08 09 0A 0B 0C 0D 0E 0F
      -- -- -- -- -- -- -- --  -- -- -- -- -- -- -- --
0360:                                      B6 0B 44 80              ..D.
0370: 00 80 00 80 4F 80 50 80  50 80 50 80 00 80 00 80  ....O.P.P.P.....
0380: 00                                                .               
```

#### Opcodes

```
  0: 0x036C [0xB6] ENTITY_APPEARANCE_HANDLER(case=Full entity look, race=4*, hair=0*, head=0*, body=40*, hands=151*, legs=151*, feet=151*, main=0*, sub=0*)
  1: 0x0380 [0x00] END_REQSTACK()
```

### Event 65535.36

#### Metadata

| Field        | Value    |
|--------------|----------|
| Entrypoint   | 0x0381   |
| Data Size    | 21 bytes |
| Instructions | 2        |

```
      00 01 02 03 04 05 06 07  08 09 0A 0B 0C 0D 0E 0F
      -- -- -- -- -- -- -- --  -- -- -- -- -- -- -- --
0380:    B6 0B 40 80 51 80 52  80 52 80 52 80 52 80 52   ..@.Q.R.R.R.R.R
0390: 80 00 80 00 80 00                                 ......          
```

#### Opcodes

```
  0: 0x0381 [0xB6] ENTITY_APPEARANCE_HANDLER(case=Full entity look, race=2*, hair=9*, head=211*, body=211*, hands=211*, legs=211*, feet=211*, main=0*, sub=0*)
  1: 0x0395 [0x00] END_REQSTACK()
```

### Event 65535.37

#### Metadata

| Field        | Value    |
|--------------|----------|
| Entrypoint   | 0x0396   |
| Data Size    | 21 bytes |
| Instructions | 2        |

```
      00 01 02 03 04 05 06 07  08 09 0A 0B 0C 0D 0E 0F
      -- -- -- -- -- -- -- --  -- -- -- -- -- -- -- --
0390:                   B6 0B  40 80 43 80 52 80 52 80        ..@.C.R.R.
03A0: 52 80 52 80 52 80 00 80  00 80 00                 R.R.R......     
```

#### Opcodes

```
  0: 0x0396 [0xB6] ENTITY_APPEARANCE_HANDLER(case=Full entity look, race=2*, hair=6*, head=211*, body=211*, hands=211*, legs=211*, feet=211*, main=0*, sub=0*)
  1: 0x03AA [0x00] END_REQSTACK()
```

### Event 65535.38

#### Metadata

| Field        | Value    |
|--------------|----------|
| Entrypoint   | 0x03AB   |
| Data Size    | 21 bytes |
| Instructions | 2        |

```
      00 01 02 03 04 05 06 07  08 09 0A 0B 0C 0D 0E 0F
      -- -- -- -- -- -- -- --  -- -- -- -- -- -- -- --
03A0:                                   B6 0B 40 80 01             ..@..
03B0: 80 52 80 52 80 52 80 52  80 52 80 00 80 00 80 00  .R.R.R.R.R......
```

#### Opcodes

```
  0: 0x03AB [0xB6] ENTITY_APPEARANCE_HANDLER(case=Full entity look, race=2*, hair=1*, head=211*, body=211*, hands=211*, legs=211*, feet=211*, main=0*, sub=0*)
  1: 0x03BF [0x00] END_REQSTACK()
```

### Event 65535.39

#### Metadata

| Field        | Value    |
|--------------|----------|
| Entrypoint   | 0x03C0   |
| Data Size    | 21 bytes |
| Instructions | 2        |

```
      00 01 02 03 04 05 06 07  08 09 0A 0B 0C 0D 0E 0F
      -- -- -- -- -- -- -- --  -- -- -- -- -- -- -- --
03C0: B6 0B 3E 80 4D 80 53 80  54 80 53 80 53 80 53 80  ..>.M.S.T.S.S.S.
03D0: 00 80 00 80 00                                    .....           
```

#### Opcodes

```
  0: 0x03C0 [0xB6] ENTITY_APPEARANCE_HANDLER(case=Full entity look, race=3*, hair=12*, head=164*, body=69*, hands=164*, legs=164*, feet=164*, main=0*, sub=0*)
  1: 0x03D4 [0x00] END_REQSTACK()
```

### Event 65535.40

#### Metadata

| Field        | Value    |
|--------------|----------|
| Entrypoint   | 0x03D5   |
| Data Size    | 21 bytes |
| Instructions | 2        |

```
      00 01 02 03 04 05 06 07  08 09 0A 0B 0C 0D 0E 0F
      -- -- -- -- -- -- -- --  -- -- -- -- -- -- -- --
03D0:                B6 0B 44  80 33 80 00 80 55 80 56       ..D.3...U.V
03E0: 80 56 80 56 80 00 80 00  80 00                    .V.V......      
```

#### Opcodes

```
  0: 0x03D5 [0xB6] ENTITY_APPEARANCE_HANDLER(case=Full entity look, race=4*, hair=5*, head=0*, body=47*, hands=26*, legs=26*, feet=26*, main=0*, sub=0*)
  1: 0x03E9 [0x00] END_REQSTACK()
```

### Event 65535.41

#### Metadata

| Field        | Value    |
|--------------|----------|
| Entrypoint   | 0x03EA   |
| Data Size    | 21 bytes |
| Instructions | 2        |

```
      00 01 02 03 04 05 06 07  08 09 0A 0B 0C 0D 0E 0F
      -- -- -- -- -- -- -- --  -- -- -- -- -- -- -- --
03E0:                                B6 0B 44 80 40 80            ..D.@.
03F0: 00 80 4C 80 4C 80 4C 80  4C 80 00 80 00 80 00     ..L.L.L.L...... 
```

#### Opcodes

```
  0: 0x03EA [0xB6] ENTITY_APPEARANCE_HANDLER(case=Full entity look, race=4*, hair=2*, head=0*, body=217*, hands=217*, legs=217*, feet=217*, main=0*, sub=0*)
  1: 0x03FE [0x00] END_REQSTACK()
```

### Event 65535.42

#### Metadata

| Field        | Value    |
|--------------|----------|
| Entrypoint   | 0x03FF   |
| Data Size    | 21 bytes |
| Instructions | 2        |

```
      00 01 02 03 04 05 06 07  08 09 0A 0B 0C 0D 0E 0F
      -- -- -- -- -- -- -- --  -- -- -- -- -- -- -- --
03F0:                                               B6                 .
0400: 0B 3E 80 34 80 00 80 4C  80 4C 80 4C 80 4C 80 00  .>.4...L.L.L.L..
0410: 80 00 80 00                                       ....            
```

#### Opcodes

```
  0: 0x03FF [0xB6] ENTITY_APPEARANCE_HANDLER(case=Full entity look, race=3*, hair=14*, head=0*, body=217*, hands=217*, legs=217*, feet=217*, main=0*, sub=0*)
  1: 0x0413 [0x00] END_REQSTACK()
```

### Event 65535.43

#### Metadata

| Field        | Value    |
|--------------|----------|
| Entrypoint   | 0x0414   |
| Data Size    | 21 bytes |
| Instructions | 2        |

```
      00 01 02 03 04 05 06 07  08 09 0A 0B 0C 0D 0E 0F
      -- -- -- -- -- -- -- --  -- -- -- -- -- -- -- --
0410:             B6 0B 3E 80  44 80 00 80 4D 80 4D 80      ..>.D...M.M.
0420: 4D 80 4D 80 00 80 00 80  00                       M.M......       
```

#### Opcodes

```
  0: 0x0414 [0xB6] ENTITY_APPEARANCE_HANDLER(case=Full entity look, race=3*, hair=4*, head=0*, body=12*, hands=12*, legs=12*, feet=12*, main=0*, sub=0*)
  1: 0x0428 [0x00] END_REQSTACK()
```

### Event 65535.44

#### Metadata

| Field        | Value    |
|--------------|----------|
| Entrypoint   | 0x0429   |
| Data Size    | 21 bytes |
| Instructions | 2        |

```
      00 01 02 03 04 05 06 07  08 09 0A 0B 0C 0D 0E 0F
      -- -- -- -- -- -- -- --  -- -- -- -- -- -- -- --
0420:                             B6 0B 3E 80 00 80 00           ..>....
0430: 80 4E 80 4C 80 4D 80 4D  80 00 80 00 80 00        .N.L.M.M......  
```

#### Opcodes

```
  0: 0x0429 [0xB6] ENTITY_APPEARANCE_HANDLER(case=Full entity look, race=3*, hair=0*, head=0*, body=221*, hands=217*, legs=12*, feet=12*, main=0*, sub=0*)
  1: 0x043D [0x00] END_REQSTACK()
```

### Event 65535.45

#### Metadata

| Field        | Value    |
|--------------|----------|
| Entrypoint   | 0x043E   |
| Data Size    | 21 bytes |
| Instructions | 2        |

```
      00 01 02 03 04 05 06 07  08 09 0A 0B 0C 0D 0E 0F
      -- -- -- -- -- -- -- --  -- -- -- -- -- -- -- --
0430:                                            B6 0B                ..
0440: 3E 80 44 80 00 80 57 80  57 80 07 80 07 80 00 80  >.D...W.W.......
0450: 00 80 00                                          ...             
```

#### Opcodes

```
  0: 0x043E [0xB6] ENTITY_APPEARANCE_HANDLER(case=Full entity look, race=3*, hair=4*, head=0*, body=114*, hands=114*, legs=13*, feet=13*, main=0*, sub=0*)
  1: 0x0452 [0x00] END_REQSTACK()
```

### Event 65535.46

#### Metadata

| Field        | Value    |
|--------------|----------|
| Entrypoint   | 0x0453   |
| Data Size    | 21 bytes |
| Instructions | 2        |

```
      00 01 02 03 04 05 06 07  08 09 0A 0B 0C 0D 0E 0F
      -- -- -- -- -- -- -- --  -- -- -- -- -- -- -- --
0450:          B6 0B 3E 80 40  80 00 80 58 80 58 80 58     ..>.@...X.X.X
0460: 80 58 80 00 80 00 80 00                           .X......        
```

#### Opcodes

```
  0: 0x0453 [0xB6] ENTITY_APPEARANCE_HANDLER(case=Full entity look, race=3*, hair=2*, head=0*, body=58*, hands=58*, legs=58*, feet=58*, main=0*, sub=0*)
  1: 0x0467 [0x00] END_REQSTACK()
```

### Event 65535.47

#### Metadata

| Field        | Value    |
|--------------|----------|
| Entrypoint   | 0x0468   |
| Data Size    | 21 bytes |
| Instructions | 2        |

```
      00 01 02 03 04 05 06 07  08 09 0A 0B 0C 0D 0E 0F
      -- -- -- -- -- -- -- --  -- -- -- -- -- -- -- --
0460:                          B6 0B 01 80 40 80 59 80          ....@.Y.
0470: 59 80 59 80 59 80 59 80  00 80 00 80 00           Y.Y.Y.Y......   
```

#### Opcodes

```
  0: 0x0468 [0xB6] ENTITY_APPEARANCE_HANDLER(case=Full entity look, race=1*, hair=2*, head=210*, body=210*, hands=210*, legs=210*, feet=210*, main=0*, sub=0*)
  1: 0x047C [0x00] END_REQSTACK()
```

### Event 65535.48

#### Metadata

| Field        | Value    |
|--------------|----------|
| Entrypoint   | 0x047D   |
| Data Size    | 21 bytes |
| Instructions | 2        |

```
      00 01 02 03 04 05 06 07  08 09 0A 0B 0C 0D 0E 0F
      -- -- -- -- -- -- -- --  -- -- -- -- -- -- -- --
0470:                                         B6 0B 3E               ..>
0480: 80 00 80 00 80 4E 80 4D  80 4E 80 07 80 00 80 00  .....N.M.N......
0490: 80 00                                             ..              
```

#### Opcodes

```
  0: 0x047D [0xB6] ENTITY_APPEARANCE_HANDLER(case=Full entity look, race=3*, hair=0*, head=0*, body=221*, hands=12*, legs=221*, feet=13*, main=0*, sub=0*)
  1: 0x0491 [0x00] END_REQSTACK()
```

### Event 65535.49

#### Metadata

| Field        | Value    |
|--------------|----------|
| Entrypoint   | 0x0492   |
| Data Size    | 21 bytes |
| Instructions | 2        |

```
      00 01 02 03 04 05 06 07  08 09 0A 0B 0C 0D 0E 0F
      -- -- -- -- -- -- -- --  -- -- -- -- -- -- -- --
0490:       B6 0B 3E 80 40 80  00 80 07 80 4E 80 07 80    ..>.@.....N...
04A0: 4E 80 00 80 00 80 00                              N......         
```

#### Opcodes

```
  0: 0x0492 [0xB6] ENTITY_APPEARANCE_HANDLER(case=Full entity look, race=3*, hair=2*, head=0*, body=13*, hands=221*, legs=13*, feet=221*, main=0*, sub=0*)
  1: 0x04A6 [0x00] END_REQSTACK()
```

### Event 65535.50

#### Metadata

| Field        | Value    |
|--------------|----------|
| Entrypoint   | 0x04A7   |
| Data Size    | 21 bytes |
| Instructions | 2        |

```
      00 01 02 03 04 05 06 07  08 09 0A 0B 0C 0D 0E 0F
      -- -- -- -- -- -- -- --  -- -- -- -- -- -- -- --
04A0:                      B6  0B 3E 80 43 80 00 80 4D         ..>.C...M
04B0: 80 4D 80 4D 80 59 80 00  80 00 80 00              .M.M.Y......    
```

#### Opcodes

```
  0: 0x04A7 [0xB6] ENTITY_APPEARANCE_HANDLER(case=Full entity look, race=3*, hair=6*, head=0*, body=12*, hands=12*, legs=12*, feet=210*, main=0*, sub=0*)
  1: 0x04BB [0x00] END_REQSTACK()
```

### Event 65535.51

#### Metadata

| Field        | Value    |
|--------------|----------|
| Entrypoint   | 0x04BC   |
| Data Size    | 21 bytes |
| Instructions | 2        |

```
      00 01 02 03 04 05 06 07  08 09 0A 0B 0C 0D 0E 0F
      -- -- -- -- -- -- -- --  -- -- -- -- -- -- -- --
04B0:                                      B6 0B 3E 80              ..>.
04C0: 4D 80 00 80 4D 80 4D 80  4D 80 5A 80 00 80 00 80  M...M.M.M.Z.....
04D0: 00                                                .               
```

#### Opcodes

```
  0: 0x04BC [0xB6] ENTITY_APPEARANCE_HANDLER(case=Full entity look, race=3*, hair=12*, head=0*, body=12*, hands=12*, legs=12*, feet=251*, main=0*, sub=0*)
  1: 0x04D0 [0x00] END_REQSTACK()
```

### Event 65535.52

#### Metadata

| Field        | Value    |
|--------------|----------|
| Entrypoint   | 0x04D1   |
| Data Size    | 21 bytes |
| Instructions | 2        |

```
      00 01 02 03 04 05 06 07  08 09 0A 0B 0C 0D 0E 0F
      -- -- -- -- -- -- -- --  -- -- -- -- -- -- -- --
04D0:    B6 0B 3E 80 34 80 00  80 5B 80 4C 80 4C 80 4C   ..>.4...[.L.L.L
04E0: 80 00 80 00 80 00                                 ......          
```

#### Opcodes

```
  0: 0x04D1 [0xB6] ENTITY_APPEARANCE_HANDLER(case=Full entity look, race=3*, hair=14*, head=0*, body=76*, hands=217*, legs=217*, feet=217*, main=0*, sub=0*)
  1: 0x04E5 [0x00] END_REQSTACK()
```

### Event 65535.53

#### Metadata

| Field        | Value    |
|--------------|----------|
| Entrypoint   | 0x04E6   |
| Data Size    | 21 bytes |
| Instructions | 2        |

```
      00 01 02 03 04 05 06 07  08 09 0A 0B 0C 0D 0E 0F
      -- -- -- -- -- -- -- --  -- -- -- -- -- -- -- --
04E0:                   B6 0B  3E 80 51 80 00 80 4D 80        ..>.Q...M.
04F0: 4D 80 4D 80 5A 80 00 80  00 80 00                 M.M.Z......     
```

#### Opcodes

```
  0: 0x04E6 [0xB6] ENTITY_APPEARANCE_HANDLER(case=Full entity look, race=3*, hair=9*, head=0*, body=12*, hands=12*, legs=12*, feet=251*, main=0*, sub=0*)
  1: 0x04FA [0x00] END_REQSTACK()
```

### Event 65535.54

#### Metadata

| Field        | Value    |
|--------------|----------|
| Entrypoint   | 0x04FB   |
| Data Size    | 21 bytes |
| Instructions | 2        |

```
      00 01 02 03 04 05 06 07  08 09 0A 0B 0C 0D 0E 0F
      -- -- -- -- -- -- -- --  -- -- -- -- -- -- -- --
04F0:                                   B6 0B 3E 80 40             ..>.@
0500: 80 00 80 0F 80 56 80 56  80 56 80 00 80 00 80 00  .....V.V.V......
```

#### Opcodes

```
  0: 0x04FB [0xB6] ENTITY_APPEARANCE_HANDLER(case=Full entity look, race=3*, hair=2*, head=0*, body=11*, hands=26*, legs=26*, feet=26*, main=0*, sub=0*)
  1: 0x050F [0x00] END_REQSTACK()
```

### Event 65535.55

#### Metadata

| Field        | Value    |
|--------------|----------|
| Entrypoint   | 0x0510   |
| Data Size    | 21 bytes |
| Instructions | 2        |

```
      00 01 02 03 04 05 06 07  08 09 0A 0B 0C 0D 0E 0F
      -- -- -- -- -- -- -- --  -- -- -- -- -- -- -- --
0510: B6 0B 44 80 07 80 00 80  4E 80 4D 80 4D 80 4D 80  ..D.....N.M.M.M.
0520: 5A 80 00 80 00                                    Z....           
```

#### Opcodes

```
  0: 0x0510 [0xB6] ENTITY_APPEARANCE_HANDLER(case=Full entity look, race=4*, hair=13*, head=0*, body=221*, hands=12*, legs=12*, feet=12*, main=251*, sub=0*)
  1: 0x0524 [0x00] END_REQSTACK()
```

### Event 65535.56

#### Metadata

| Field        | Value   |
|--------------|---------|
| Entrypoint   | 0x0525  |
| Data Size    | 3 bytes |
| Instructions | 2       |

```
      00 01 02 03 04 05 06 07  08 09 0A 0B 0C 0D 0E 0F
      -- -- -- -- -- -- -- --  -- -- -- -- -- -- -- --
0520:                A5 01 00                                ...        
```

#### Opcodes

```
  0: 0x0525 [0xA5] EventEntity->Flags3.BallistaTeam |= 0x08  // Set bit 3 of BallistaTeam
  1: 0x0527 [0x00] END_REQSTACK()
```

### Event 65535.57

#### Metadata

| Field        | Value   |
|--------------|---------|
| Entrypoint   | 0x0528  |
| Data Size    | 3 bytes |
| Instructions | 2       |

```
      00 01 02 03 04 05 06 07  08 09 0A 0B 0C 0D 0E 0F
      -- -- -- -- -- -- -- --  -- -- -- -- -- -- -- --
0520:                          A5 00 00                         ...     
```

#### Opcodes

```
  0: 0x0528 [0xA5] EventEntity->Flags3.BallistaTeam &= ~0x08  // Clear bit 3 of BallistaTeam
  1: 0x052A [0x00] END_REQSTACK()
```
