# 17105538

## Common Data

| Field            | Value                            |
|------------------|----------------------------------|
| Zone             | Southern San d'Oria [S] (ID: 80) |
| Block Size       | 34856 bytes                      |
| Total Events     | 9                                |
| References Count | 816                              |

## List of Events

| Event ID              | Entrypoint   |   Size |   Instructions |
|-----------------------|--------------|--------|----------------|
| [65535](#event-65535) | 0x0000       |      1 |              1 |
| [67](#event-67)       | 0x0001       |   1593 |            209 |
| [68](#event-68)       | 0x063A       |   4625 |            563 |
| [69](#event-69)       | 0x184B       |    227 |             36 |
| [152](#event-152)     | 0x192E       |   5326 |            591 |
| [70](#event-70)       | 0x2DFC       |   2860 |            370 |
| [153](#event-153)     | 0x3928       |   5149 |            634 |
| [147](#event-147)     | 0x4D45       |   7546 |            832 |
| [169](#event-169)     | 0x6ABF       |   4210 |            483 |

## DAT References (imed_data)

|   Index | Hex Value   |   Dec Value |
|---------|-------------|-------------|
|       0 | 0x0013      |          19 |
|       1 | 0x14C75     |       85109 |
|       2 | 0xFFFFCC7D  |  4294954109 |
|       3 | 0x07CF      |        1999 |
|       4 | 0x0A58      |        2648 |
|       5 | 0x0000      |           0 |
|       6 | 0xFFFFEC78  |  4294962296 |
|       7 | 0x12A11     |       76305 |
|       8 | 0xFFFFF48D  |  4294964365 |
|       9 | 0x0D7D      |        3453 |
|      10 | 0x12C2A     |       76842 |
|      11 | 0xFFFFEE5B  |  4294962779 |
|      12 | 0x0D7E      |        3454 |
|      13 | 0x126A1     |       75425 |
|      14 | 0xFFFFE1D4  |  4294959572 |
|      15 | 0x0E9A      |        3738 |
|      16 | 0x126D8     |       75480 |
|      17 | 0xFFFFD85C  |  4294957148 |
|      18 | 0x03BE      |         958 |
|      19 | 0x117A9     |       71593 |
|      20 | 0xFFFFCC4B  |  4294954059 |
|      21 | 0x02CF      |         719 |
|      22 | 0x0167      |         359 |
|      23 | 0x00C8      |         200 |
|      24 | 0x13736     |       79670 |
|      25 | 0xFFFFE49F  |  4294960287 |
|      26 | 0x07D0      |        2000 |
|      27 | 0x0A85      |        2693 |
|      28 | 0x1446A     |       83050 |
|      29 | 0x07F9      |        2041 |
|      30 | 0x13C2A     |       80938 |
|      31 | 0x157D      |        5501 |
|      32 | 0x0EBD      |        3773 |
|      33 | 0x198DE     |      104670 |
|      34 | 0x674E      |       26446 |
|      35 | 0x0F9F      |        3999 |
|      36 | 0x0EA8      |        3752 |
|      37 | 0x001E      |          30 |
|      38 | 0x000F      |          15 |
|      39 | 0x022F      |         559 |
|      40 | 0x0016      |          22 |
|      41 | 0x1460B     |       83467 |
|      42 | 0x3015      |       12309 |
|      43 | 0x03E8      |        1000 |
|      44 | 0x13DA9     |       81321 |
|      45 | 0x1CDD      |        7389 |
|      46 | 0x0089      |         137 |
|      47 | 0x0078      |         120 |
|      48 | 0x001D      |          29 |
|      49 | 0x345A      |       13402 |
|      50 | 0x345B      |       13403 |
|      51 | 0x345C      |       13404 |
|      52 | 0x345D      |       13405 |
|      53 | 0x345E      |       13406 |
|      54 | 0x345F      |       13407 |
|      55 | 0x3460      |       13408 |
|      56 | 0x0001      |           1 |
|      57 | 0x3461      |       13409 |
|      58 | 0x3462      |       13410 |
|      59 | 0x3463      |       13411 |
|      60 | 0x3464      |       13412 |
|      61 | 0x002D      |          45 |
|      62 | 0x14408     |       82952 |
|      63 | 0x0FC8      |        4040 |
|      64 | 0x02D4      |         724 |
|      65 | 0x3465      |       13413 |
|      66 | 0x13958     |       80216 |
|      67 | 0xFFFFE226  |  4294959654 |
|      68 | 0x0499      |        1177 |
|      69 | 0x00B4      |         180 |
|      70 | 0x00E6      |         230 |
|      71 | 0x00FF      |         255 |
|      72 | 0x0149      |         329 |
|      73 | 0x150C2     |       86210 |
|      74 | 0x1CB50     |      117584 |
|      75 | 0x001B      |          27 |
|      76 | 0x15581     |       87425 |
|      77 | 0x1D83A     |      120890 |
|      78 | 0x0490      |        1168 |
|      79 | 0x15650     |       87632 |
|      80 | 0x1C55A     |      116058 |
|      81 | 0x09F9      |        2553 |
|      82 | 0x15AC5     |       88773 |
|      83 | 0x1CA66     |      117350 |
|      84 | 0x03E7      |         999 |
|      85 | 0x084A      |        2122 |
|      86 | 0x15AB0     |       88752 |
|      87 | 0x1CE33     |      118323 |
|      88 | 0x06AD      |        1709 |
|      89 | 0x15A49     |       88649 |
|      90 | 0x1C72F     |      116527 |
|      91 | 0x09FB      |        2555 |
|      92 | 0x157D1     |       88017 |
|      93 | 0x1D006     |      118790 |
|      94 | 0x0782      |        1922 |
|      95 | 0x14A55     |       84565 |
|      96 | 0x1C75F     |      116575 |
|      97 | 0x0022      |          34 |
|      98 | 0x15E7B     |       89723 |
|      99 | 0x1D57F     |      120191 |
|     100 | 0x05C0      |        1472 |
|     101 | 0x1476B     |       83819 |
|     102 | 0x1BE66     |      114278 |
|     103 | 0x0E28      |        3624 |
|     104 | 0x175A2     |       95650 |
|     105 | 0x1A786     |      108422 |
|     106 | 0x096E      |        2414 |
|     107 | 0x003C      |          60 |
|     108 | 0x087D      |        2173 |
|     109 | 0x08CA      |        2250 |
|     110 | 0x08BA      |        2234 |
|     111 | 0x00F0      |         240 |
|     112 | 0x16716     |       91926 |
|     113 | 0x1B5B4     |      112052 |
|     114 | 0x3466      |       13414 |
|     115 | 0x3467      |       13415 |
|     116 | 0x0099      |         153 |
|     117 | 0x3468      |       13416 |
|     118 | 0x3469      |       13417 |
|     119 | 0x346A      |       13418 |
|     120 | 0x346B      |       13419 |
|     121 | 0x346C      |       13420 |
|     122 | 0x346D      |       13421 |
|     123 | 0x346E      |       13422 |
|     124 | 0x346F      |       13423 |
|     125 | 0x3470      |       13424 |
|     126 | 0x000D      |          13 |
|     127 | 0x3471      |       13425 |
|     128 | 0x3472      |       13426 |
|     129 | 0x3473      |       13427 |
|     130 | 0x3474      |       13428 |
|     131 | 0x3475      |       13429 |
|     132 | 0x3476      |       13430 |
|     133 | 0x007F      |         127 |
|     134 | 0x3477      |       13431 |
|     135 | 0x15230     |       86576 |
|     136 | 0x1C12B     |      114987 |
|     137 | 0x0DA5      |        3493 |
|     138 | 0x15582     |       87426 |
|     139 | 0x1C0A3     |      114851 |
|     140 | 0x0997      |        2455 |
|     141 | 0x161B1     |       90545 |
|     142 | 0x1BD3D     |      113981 |
|     143 | 0x15892     |       88210 |
|     144 | 0x1C5B1     |      116145 |
|     145 | 0x0924      |        2340 |
|     146 | 0x00A3      |         163 |
|     147 | 0x3478      |       13432 |
|     148 | 0x3479      |       13433 |
|     149 | 0x087F      |        2175 |
|     150 | 0x1537C     |       86908 |
|     151 | 0x1D3E2     |      119778 |
|     152 | 0x0394      |         916 |
|     153 | 0x005A      |          90 |
|     154 | 0x15C78     |       89208 |
|     155 | 0x1D118     |      119064 |
|     156 | 0x15709     |       87817 |
|     157 | 0x1D47D     |      119933 |
|     158 | 0x0998      |        2456 |
|     159 | 0x347A      |       13434 |
|     160 | 0x0015      |          21 |
|     161 | 0x347B      |       13435 |
|     162 | 0x157EC     |       88044 |
|     163 | 0x1CC84     |      117892 |
|     164 | 0x0409      |        1033 |
|     165 | 0x347C      |       13436 |
|     166 | 0x347D      |       13437 |
|     167 | 0x347E      |       13438 |
|     168 | 0x347F      |       13439 |
|     169 | 0x3480      |       13440 |
|     170 | 0x3481      |       13441 |
|     171 | 0x3482      |       13442 |
|     172 | 0x3483      |       13443 |
|     173 | 0x3484      |       13444 |
|     174 | 0x0050      |          80 |
|     175 | 0x17B2B     |       97067 |
|     176 | 0x1A147     |      106823 |
|     177 | 0x09CE      |        2510 |
|     178 | 0x180DF     |       98527 |
|     179 | 0x18E6F     |      101999 |
|     180 | 0x0BBC      |        3004 |
|     181 | 0x18F80     |      102272 |
|     182 | 0x19B7F     |      105343 |
|     183 | 0x0737      |        1847 |
|     184 | 0x19574     |      103796 |
|     185 | 0x190E9     |      102633 |
|     186 | 0x0C4E      |        3150 |
|     187 | 0x18BB7     |      101303 |
|     188 | 0x1876B     |      100203 |
|     189 | 0x09FA      |        2554 |
|     190 | 0x191F6     |      102902 |
|     191 | 0x1857D     |       99709 |
|     192 | 0x02EE      |         750 |
|     193 | 0x19AC6     |      105158 |
|     194 | 0x18CEC     |      101612 |
|     195 | 0x01F4      |         500 |
|     196 | 0x19F15     |      106261 |
|     197 | 0x19392     |      103314 |
|     198 | 0x09F8      |        2552 |
|     199 | 0x1A1E1     |      106977 |
|     200 | 0x186A8     |      100008 |
|     201 | 0x00F9      |         249 |
|     202 | 0x189CD     |      100813 |
|     203 | 0x19338     |      103224 |
|     204 | 0x09CD      |        2509 |
|     205 | 0x1840F     |       99343 |
|     206 | 0x198D7     |      104663 |
|     207 | 0x01CF      |         463 |
|     208 | 0x3485      |       13445 |
|     209 | 0x0009      |           9 |
|     210 | 0x3486      |       13446 |
|     211 | 0x17EAE     |       97966 |
|     212 | 0x17C23     |       97315 |
|     213 | 0x3487      |       13447 |
|     214 | 0x18259     |       98905 |
|     215 | 0x18236     |       98870 |
|     216 | 0x0B79      |        2937 |
|     217 | 0x0020      |          32 |
|     218 | 0x3488      |       13448 |
|     219 | 0x0027      |          39 |
|     220 | 0x3489      |       13449 |
|     221 | 0x348A      |       13450 |
|     222 | 0x1813A     |       98618 |
|     223 | 0x1873F     |      100159 |
|     224 | 0x0BA6      |        2982 |
|     225 | 0x348B      |       13451 |
|     226 | 0x348C      |       13452 |
|     227 | 0x348D      |       13453 |
|     228 | 0x348E      |       13454 |
|     229 | 0x0019      |          25 |
|     230 | 0x348F      |       13455 |
|     231 | 0x3490      |       13456 |
|     232 | 0x189FA     |      100858 |
|     233 | 0x17DCE     |       97742 |
|     234 | 0x0AB1      |        2737 |
|     235 | 0x3491      |       13457 |
|     236 | 0x00FE      |         254 |
|     237 | 0x18AD7     |      101079 |
|     238 | 0x19228     |      102952 |
|     239 | 0x0455      |        1109 |
|     240 | 0x183F8     |       99320 |
|     241 | 0x19941     |      104769 |
|     242 | 0x01F0      |         496 |
|     243 | 0x0006      |           6 |
|     244 | 0x03FE      |        1022 |
|     245 | 0x3492      |       13458 |
|     246 | 0x150AE     |       86190 |
|     247 | 0x1C014     |      114708 |
|     248 | 0x0DED      |        3565 |
|     249 | 0x155EA     |       87530 |
|     250 | 0x1C5E4     |      116196 |
|     251 | 0x06C2      |        1730 |
|     252 | 0x0554      |        1364 |
|     253 | 0x050E      |        1294 |
|     254 | 0x055F      |        1375 |
|     255 | 0x3331      |       13105 |
|     256 | 0x0080      |         128 |
|     257 | 0x017F      |         383 |
|     258 | 0x34A9      |       13481 |
|     259 | 0x34AA      |       13482 |
|     260 | 0x34AB      |       13483 |
|     261 | 0x0024      |          36 |
|     262 | 0x34AC      |       13484 |
|     263 | 0x0002      |           2 |
|     264 | 0x34AD      |       13485 |
|     265 | 0x0021      |          33 |
|     266 | 0x34AE      |       13486 |
|     267 | 0x0003      |           3 |
|     268 | 0x34AF      |       13487 |
|     269 | 0x34B0      |       13488 |
|     270 | 0x34B1      |       13489 |
|     271 | 0x34B2      |       13490 |
|     272 | 0x34B3      |       13491 |
|     273 | 0x012C      |         300 |
|     274 | 0x34B4      |       13492 |
|     275 | 0x34B5      |       13493 |
|     276 | 0x34B6      |       13494 |
|     277 | 0x0005      |           5 |
|     278 | 0x08A7      |        2215 |
|     279 | 0x000B      |          11 |
|     280 | 0x34B7      |       13495 |
|     281 | 0x00A4      |         164 |
|     282 | 0x34B8      |       13496 |
|     283 | 0x34B9      |       13497 |
|     284 | 0x34BA      |       13498 |
|     285 | 0x34BB      |       13499 |
|     286 | 0x34BC      |       13500 |
|     287 | 0x34BD      |       13501 |
|     288 | 0x0851      |        2129 |
|     289 | 0x05CC      |        1484 |
|     290 | 0x00CE      |         206 |
|     291 | 0x00DD      |         221 |
|     292 | 0x0088      |         136 |
|     293 | 0x0064      |         100 |
|     294 | 0x0096      |         150 |
|     295 | 0x0069      |         105 |
|     296 | 0x34BE      |       13502 |
|     297 | 0x34BF      |       13503 |
|     298 | 0x34C0      |       13504 |
|     299 | 0x34C1      |       13505 |
|     300 | 0x34C2      |       13506 |
|     301 | 0x34C3      |       13507 |
|     302 | 0x05CD      |        1485 |
|     303 | 0x0852      |        2130 |
|     304 | 0x05B6      |        1462 |
|     305 | 0x34C4      |       13508 |
|     306 | 0x00AA      |         170 |
|     307 | 0x0853      |        2131 |
|     308 | 0x0073      |         115 |
|     309 | 0x006A      |         106 |
|     310 | 0x34C5      |       13509 |
|     311 | 0x34C6      |       13510 |
|     312 | 0x34C7      |       13511 |
|     313 | 0x34C8      |       13512 |
|     314 | 0x34C9      |       13513 |
|     315 | 0x34CA      |       13514 |
|     316 | 0x0857      |        2135 |
|     317 | 0x14573     |       83315 |
|     318 | 0x1DD22     |      122146 |
|     319 | 0x0200      |         512 |
|     320 | 0x00DE      |         222 |
|     321 | 0x00C9      |         201 |
|     322 | 0x34CB      |       13515 |
|     323 | 0x00C3      |         195 |
|     324 | 0x34CC      |       13516 |
|     325 | 0x010E      |         270 |
|     326 | 0x00F6      |         246 |
|     327 | 0x0041      |          65 |
|     328 | 0x01A4      |         420 |
|     329 | 0x18A23     |      100899 |
|     330 | 0x192B8     |      103096 |
|     331 | 0x09FE      |        2558 |
|     332 | 0x18D03     |      101635 |
|     333 | 0x19C5C     |      105564 |
|     334 | 0x037F      |         895 |
|     335 | 0x1927C     |      103036 |
|     336 | 0x19F13     |      106259 |
|     337 | 0x047A      |        1146 |
|     338 | 0x18B4E     |      101198 |
|     339 | 0x1A151     |      106833 |
|     340 | 0x05EF      |        1519 |
|     341 | 0x194D2     |      103634 |
|     342 | 0x183EE     |       99310 |
|     343 | 0x01F3      |         499 |
|     344 | 0x0ABC      |        2748 |
|     345 | 0x18550     |       99664 |
|     346 | 0x1932F     |      103215 |
|     347 | 0x09DA      |        2522 |
|     348 | 0x18A6A     |      100970 |
|     349 | 0x19345     |      103237 |
|     350 | 0x07DE      |        2014 |
|     351 | 0x18BB0     |      101296 |
|     352 | 0x18B38     |      101176 |
|     353 | 0x077E      |        1918 |
|     354 | 0x19172     |      102770 |
|     355 | 0x18FBA     |      102330 |
|     356 | 0x19501     |      103681 |
|     357 | 0x1828B     |       98955 |
|     358 | 0x09A5      |        2469 |
|     359 | 0x19C45     |      105541 |
|     360 | 0x18020     |       98336 |
|     361 | 0x00FA      |         250 |
|     362 | 0x0ABB      |        2747 |
|     363 | 0x199DD     |      104925 |
|     364 | 0x184C8     |       99528 |
|     365 | 0x15590     |       87440 |
|     366 | 0x1C902     |      116994 |
|     367 | 0x1940F     |      103439 |
|     368 | 0x18897     |      100503 |
|     369 | 0x02E1      |         737 |
|     370 | 0x0A22      |        2594 |
|     371 | 0x3493      |       13459 |
|     372 | 0x156B4     |       87732 |
|     373 | 0x1C4EE     |      115950 |
|     374 | 0x0A68      |        2664 |
|     375 | 0x3494      |       13460 |
|     376 | 0x05B7      |        1463 |
|     377 | 0x3495      |       13461 |
|     378 | 0x0045      |          69 |
|     379 | 0x3496      |       13462 |
|     380 | 0x3497      |       13463 |
|     381 | 0x3498      |       13464 |
|     382 | 0x3499      |       13465 |
|     383 | 0x349A      |       13466 |
|     384 | 0x349B      |       13467 |
|     385 | 0x19855     |      104533 |
|     386 | 0x184CC     |       99532 |
|     387 | 0x098C      |        2444 |
|     388 | 0x18E63     |      101987 |
|     389 | 0x18E90     |      102032 |
|     390 | 0x0A00      |        2560 |
|     391 | 0x349C      |       13468 |
|     392 | 0x087E      |        2174 |
|     393 | 0x349D      |       13469 |
|     394 | 0x349E      |       13470 |
|     395 | 0x18773     |      100211 |
|     396 | 0x197B9     |      104377 |
|     397 | 0x00A7      |         167 |
|     398 | 0x19045     |      102469 |
|     399 | 0x19542     |      103746 |
|     400 | 0x0589      |        1417 |
|     401 | 0x19365     |      103269 |
|     402 | 0x199C7     |      104903 |
|     403 | 0x071D      |        1821 |
|     404 | 0x349F      |       13471 |
|     405 | 0x34A0      |       13472 |
|     406 | 0x34A1      |       13473 |
|     407 | 0x18C62     |      101474 |
|     408 | 0x1974D     |      104269 |
|     409 | 0x0739      |        1849 |
|     410 | 0x18943     |      100675 |
|     411 | 0x19C4E     |      105550 |
|     412 | 0x04F7      |        1271 |
|     413 | 0x191E3     |      102883 |
|     414 | 0x190A5     |      102565 |
|     415 | 0x08B8      |        2232 |
|     416 | 0x18881     |      100481 |
|     417 | 0x191BE     |      102846 |
|     418 | 0x0E7B      |        3707 |
|     419 | 0x001A      |          26 |
|     420 | 0x34A2      |       13474 |
|     421 | 0x34A3      |       13475 |
|     422 | 0x34A4      |       13476 |
|     423 | 0x34A5      |       13477 |
|     424 | 0x34A6      |       13478 |
|     425 | 0x34A7      |       13479 |
|     426 | 0x34A8      |       13480 |
|     427 | 0x179E7     |       96743 |
|     428 | 0x1A030     |      106544 |
|     429 | 0x01A1      |         417 |
|     430 | 0x17CDB     |       97499 |
|     431 | 0x1A31D     |      107293 |
|     432 | 0x019F      |         415 |
|     433 | 0x1A059     |      106585 |
|     434 | 0x17B05     |       97029 |
|     435 | 0x02D1      |         721 |
|     436 | 0x199B0     |      104880 |
|     437 | 0x1752D     |       95533 |
|     438 | 0x17608     |       95752 |
|     439 | 0x1A92B     |      108843 |
|     440 | 0x01E1      |         481 |
|     441 | 0x171E5     |       94693 |
|     442 | 0x1A89C     |      108700 |
|     443 | 0x01F7      |         503 |
|     444 | 0x16CF6     |       93430 |
|     445 | 0x1AEB2     |      110258 |
|     446 | 0x02D3      |         723 |
|     447 | 0x1A7ED     |      108525 |
|     448 | 0x1722E     |       94766 |
|     449 | 0x0A1E      |        2590 |
|     450 | 0x18A38     |      100920 |
|     451 | 0x192C2     |      103106 |
|     452 | 0x0768      |        1896 |
|     453 | 0x184BD     |       99517 |
|     454 | 0x18E19     |      101913 |
|     455 | 0x0B52      |        2898 |
|     456 | 0x18436     |       99382 |
|     457 | 0x19428     |      103464 |
|     458 | 0x18730     |      100144 |
|     459 | 0x198D6     |      104662 |
|     460 | 0x034B      |         843 |
|     461 | 0x34CD      |       13517 |
|     462 | 0x34CE      |       13518 |
|     463 | 0x34CF      |       13519 |
|     464 | 0x34D0      |       13520 |
|     465 | 0x34D1      |       13521 |
|     466 | 0x34D2      |       13522 |
|     467 | 0x18171     |       98673 |
|     468 | 0x197F8     |      104440 |
|     469 | 0x09E1      |        2529 |
|     470 | 0x34D3      |       13523 |
|     471 | 0x01C0      |         448 |
|     472 | 0x18C37     |      101431 |
|     473 | 0x19AC9     |      105161 |
|     474 | 0x04BB      |        1211 |
|     475 | 0x17B54     |       97108 |
|     476 | 0x1A1F0     |      106992 |
|     477 | 0x34D4      |       13524 |
|     478 | 0x175CB     |       95691 |
|     479 | 0x19671     |      104049 |
|     480 | 0x0F7B      |        3963 |
|     481 | 0x0029      |          41 |
|     482 | 0x1811D     |       98589 |
|     483 | 0x18C5F     |      101471 |
|     484 | 0x0DEF      |        3567 |
|     485 | 0x34D5      |       13525 |
|     486 | 0x191E0     |      102880 |
|     487 | 0x16966     |       92518 |
|     488 | 0x060C      |        1548 |
|     489 | 0x34D6      |       13526 |
|     490 | 0x34D7      |       13527 |
|     491 | 0x1A82B     |      108587 |
|     492 | 0x17200     |       94720 |
|     493 | 0x062A      |        1578 |
|     494 | 0x1552B     |       87339 |
|     495 | 0xFFFFC287  |  4294951559 |
|     496 | 0x0246      |         582 |
|     497 | 0x14520     |       83232 |
|     498 | 0xFFFFF212  |  4294963730 |
|     499 | 0x05C4      |        1476 |
|     500 | 0x1991A     |      104730 |
|     501 | 0xFFFF30C9  |  4294914249 |
|     502 | 0x0A96      |        2710 |
|     503 | 0x1AA9B     |      109211 |
|     504 | 0xFFFF41A8  |  4294918568 |
|     505 | 0x09EF      |        2543 |
|     506 | 0x1385B     |       79963 |
|     507 | 0xFFFFE7DA  |  4294961114 |
|     508 | 0x065C      |        1628 |
|     509 | 0x174BB     |       95419 |
|     510 | 0xFFFFA021  |  4294942753 |
|     511 | 0x01D1      |         465 |
|     512 | 0x1957D     |      103805 |
|     513 | 0xFFFF5899  |  4294924441 |
|     514 | 0x027C      |         636 |
|     515 | 0x00E9      |         233 |
|     516 | 0x009C      |         156 |
|     517 | 0xFFFFE4A8  |  4294960296 |
|     518 | 0x1000      |        4096 |
|     519 | 0xFFFFFD76  |  4294966646 |
|     520 | 0xFFFFDCD8  |  4294958296 |
|     521 | 0x0C00      |        3072 |
|     522 | 0x05DC      |        1500 |
|     523 | 0x0800      |        2048 |
|     524 | 0xFFFFFA24  |  4294965796 |
|     525 | 0xFFFFF830  |  4294965296 |
|     526 | 0xFFFFF060  |  4294963296 |
|     527 | 0x0400      |        1024 |
|     528 | 0x34D8      |       13528 |
|     529 | 0xFFFFFC18  |  4294966296 |
|     530 | 0x34D9      |       13529 |
|     531 | 0x34DA      |       13530 |
|     532 | 0x34DB      |       13531 |
|     533 | 0x34DC      |       13532 |
|     534 | 0x34DD      |       13533 |
|     535 | 0x34DE      |       13534 |
|     536 | 0x34DF      |       13535 |
|     537 | 0x34E0      |       13536 |
|     538 | 0x34E1      |       13537 |
|     539 | 0xFFFFF8F8  |  4294965496 |
|     540 | 0x0A28      |        2600 |
|     541 | 0x34E2      |       13538 |
|     542 | 0x34E3      |       13539 |
|     543 | 0x34E4      |       13540 |
|     544 | 0x34E5      |       13541 |
|     545 | 0x34E6      |       13542 |
|     546 | 0x34E7      |       13543 |
|     547 | 0x34E8      |       13544 |
|     548 | 0x34E9      |       13545 |
|     549 | 0x34EA      |       13546 |
|     550 | 0x34EB      |       13547 |
|     551 | 0x34EC      |       13548 |
|     552 | 0x34ED      |       13549 |
|     553 | 0x34EE      |       13550 |
|     554 | 0xFFFFFCE0  |  4294966496 |
|     555 | 0x34EF      |       13551 |
|     556 | 0x34F0      |       13552 |
|     557 | 0x34F1      |       13553 |
|     558 | 0x34F2      |       13554 |
|     559 | 0x34F3      |       13555 |
|     560 | 0x34F4      |       13556 |
|     561 | 0x0505      |        1285 |
|     562 | 0x0044      |          68 |
|     563 | 0x07E9      |        2025 |
|     564 | 0xFFFFFA67  |  4294965863 |
|     565 | 0x00DC      |         220 |
|     566 | 0x34F5      |       13557 |
|     567 | 0x34F6      |       13558 |
|     568 | 0x34F7      |       13559 |
|     569 | 0x34F8      |       13560 |
|     570 | 0x0087      |         135 |
|     571 | 0x9AC3      |       39619 |
|     572 | 0xFFFFF866  |  4294965350 |
|     573 | 0x0DA8      |        3496 |
|     574 | 0x01AA      |         426 |
|     575 | 0x9572      |       38258 |
|     576 | 0xFFFFF949  |  4294965577 |
|     577 | 0x0193      |         403 |
|     578 | 0x3671      |       13937 |
|     579 | 0x0007      |           7 |
|     580 | 0x3672      |       13938 |
|     581 | 0x0174      |         372 |
|     582 | 0xFFFF92B4  |  4294939316 |
|     583 | 0xFFFFE2B4  |  4294959796 |
|     584 | 0x03DD      |         989 |
|     585 | 0xFFFFA7A7  |  4294944679 |
|     586 | 0xFFFFEF39  |  4294963001 |
|     587 | 0x065A      |        1626 |
|     588 | 0xFFFFA94B  |  4294945099 |
|     589 | 0xFFFFF351  |  4294964049 |
|     590 | 0x06E1      |        1761 |
|     591 | 0x3673      |       13939 |
|     592 | 0x3674      |       13940 |
|     593 | 0x3675      |       13941 |
|     594 | 0x0584      |        1412 |
|     595 | 0x3676      |       13942 |
|     596 | 0xFFFF9A1E  |  4294941214 |
|     597 | 0xFFFFE8D7  |  4294961367 |
|     598 | 0x0FFA      |        4090 |
|     599 | 0xFFFFCF0C  |  4294954764 |
|     600 | 0xFFFFF072  |  4294963314 |
|     601 | 0x080D      |        2061 |
|     602 | 0xFFFFC019  |  4294950937 |
|     603 | 0xFFFFF48A  |  4294964362 |
|     604 | 0x085B      |        2139 |
|     605 | 0xFFFFBFB6  |  4294950838 |
|     606 | 0xFFFFEC5E  |  4294962270 |
|     607 | 0xFFFFBFCF  |  4294950863 |
|     608 | 0xFFFFF8E9  |  4294965481 |
|     609 | 0x085C      |        2140 |
|     610 | 0xFFFFBFA1  |  4294950817 |
|     611 | 0xFFFFE5DA  |  4294960602 |
|     612 | 0xFFFFB9CF  |  4294949327 |
|     613 | 0xFFFFF058  |  4294963288 |
|     614 | 0x059D      |        1437 |
|     615 | 0xFFFF9EE4  |  4294942436 |
|     616 | 0xFFFFE122  |  4294959394 |
|     617 | 0xFFFF9312  |  4294939410 |
|     618 | 0xFFFFE1D2  |  4294959570 |
|     619 | 0x0053      |          83 |
|     620 | 0x0961      |        2401 |
|     621 | 0x0AFE      |        2814 |
|     622 | 0x3677      |       13943 |
|     623 | 0x3678      |       13944 |
|     624 | 0x3679      |       13945 |
|     625 | 0x367A      |       13946 |
|     626 | 0x367B      |       13947 |
|     627 | 0xFFFFA08F  |  4294942863 |
|     628 | 0xFFFFE552  |  4294960466 |
|     629 | 0x0702      |        1794 |
|     630 | 0x367C      |       13948 |
|     631 | 0x367D      |       13949 |
|     632 | 0x367E      |       13950 |
|     633 | 0x092B      |        2347 |
|     634 | 0x367F      |       13951 |
|     635 | 0x3680      |       13952 |
|     636 | 0x0586      |        1414 |
|     637 | 0x3681      |       13953 |
|     638 | 0x08FF      |        2303 |
|     639 | 0x001C      |          28 |
|     640 | 0x3682      |       13954 |
|     641 | 0x3683      |       13955 |
|     642 | 0x000A      |          10 |
|     643 | 0xFFFFA383  |  4294943619 |
|     644 | 0xFFFFE311  |  4294959889 |
|     645 | 0x092C      |        2348 |
|     646 | 0x0014      |          20 |
|     647 | 0x0967      |        2407 |
|     648 | 0x0A9C      |        2716 |
|     649 | 0x3684      |       13956 |
|     650 | 0x3685      |       13957 |
|     651 | 0x0CE9      |        3305 |
|     652 | 0x3686      |       13958 |
|     653 | 0x0968      |        2408 |
|     654 | 0x0A9D      |        2717 |
|     655 | 0x3687      |       13959 |
|     656 | 0xFFFFA27E  |  4294943358 |
|     657 | 0xFFFFE8ED  |  4294961389 |
|     658 | 0x0964      |        2404 |
|     659 | 0x3688      |       13960 |
|     660 | 0x3689      |       13961 |
|     661 | 0x368A      |       13962 |
|     662 | 0x368B      |       13963 |
|     663 | 0x368C      |       13964 |
|     664 | 0x0965      |        2405 |
|     665 | 0x368D      |       13965 |
|     666 | 0x368E      |       13966 |
|     667 | 0x368F      |       13967 |
|     668 | 0x3690      |       13968 |
|     669 | 0x0966      |        2406 |
|     670 | 0x3691      |       13969 |
|     671 | 0x3692      |       13970 |
|     672 | 0x3693      |       13971 |
|     673 | 0x3694      |       13972 |
|     674 | 0x3695      |       13973 |
|     675 | 0x3696      |       13974 |
|     676 | 0xFFFFA50C  |  4294944012 |
|     677 | 0xFFFFF01E  |  4294963230 |
|     678 | 0xFFFFA242  |  4294943298 |
|     679 | 0xFFFFEACA  |  4294961866 |
|     680 | 0x0E8C      |        3724 |
|     681 | 0x3697      |       13975 |
|     682 | 0x3698      |       13976 |
|     683 | 0x3699      |       13977 |
|     684 | 0x369A      |       13978 |
|     685 | 0x369B      |       13979 |
|     686 | 0x369C      |       13980 |
|     687 | 0x369D      |       13981 |
|     688 | 0x369E      |       13982 |
|     689 | 0x369F      |       13983 |
|     690 | 0x051F      |        1311 |
|     691 | 0x36A0      |       13984 |
|     692 | 0x36A1      |       13985 |
|     693 | 0x36A2      |       13986 |
|     694 | 0x36A3      |       13987 |
|     695 | 0x36A4      |       13988 |
|     696 | 0x36A5      |       13989 |
|     697 | 0x36A6      |       13990 |
|     698 | 0x36A7      |       13991 |
|     699 | 0xFFFFF84A  |  4294965322 |
|     700 | 0x02BB      |         699 |
|     701 | 0x059C      |        1436 |
|     702 | 0xFFFFF729  |  4294965033 |
|     703 | 0x0A01      |        2561 |
|     704 | 0x0F33      |        3891 |
|     705 | 0xFFFFCFE8  |  4294954984 |
|     706 | 0xFFFFF1C2  |  4294963650 |
|     707 | 0x0FFE      |        4094 |
|     708 | 0xFFFFCA13  |  4294953491 |
|     709 | 0xFFFFEED7  |  4294962903 |
|     710 | 0x36A8      |       13992 |
|     711 | 0x36A9      |       13993 |
|     712 | 0x36AA      |       13994 |
|     713 | 0x36AB      |       13995 |
|     714 | 0x36AC      |       13996 |
|     715 | 0x36AD      |       13997 |
|     716 | 0x0004      |           4 |
|     717 | 0x0008      |           8 |
|     718 | 0x36AE      |       13998 |
|     719 | 0x36AF      |       13999 |
|     720 | 0x36B0      |       14000 |
|     721 | 0x36B1      |       14001 |
|     722 | 0x36B2      |       14002 |
|     723 | 0x36B3      |       14003 |
|     724 | 0x36B4      |       14004 |
|     725 | 0x36B5      |       14005 |
|     726 | 0x36B6      |       14006 |
|     727 | 0x36B7      |       14007 |
|     728 | 0x36B9      |       14009 |
|     729 | 0x36B8      |       14008 |
|     730 | 0x0028      |          40 |
|     731 | 0x36BA      |       14010 |
|     732 | 0x36BB      |       14011 |
|     733 | 0x36BC      |       14012 |
|     734 | 0x36BD      |       14013 |
|     735 | 0x36BE      |       14014 |
|     736 | 0x36BF      |       14015 |
|     737 | 0x36C0      |       14016 |
|     738 | 0x36C1      |       14017 |
|     739 | 0x36C2      |       14018 |
|     740 | 0x36C3      |       14019 |
|     741 | 0x0969      |        2409 |
|     742 | 0xA39A      |       41882 |
|     743 | 0x0AF8      |        2808 |
|     744 | 0xA6A0      |       42656 |
|     745 | 0xFFFFF768  |  4294965096 |
|     746 | 0x0D66      |        3430 |
|     747 | 0x0226      |         550 |
|     748 | 0x3050      |       12368 |
|     749 | 0x3866      |       14438 |
|     750 | 0x000C      |          12 |
|     751 | 0x0225      |         549 |
|     752 | 0x3867      |       14439 |
|     753 | 0x3868      |       14440 |
|     754 | 0x0856      |        2134 |
|     755 | 0x3869      |       14441 |
|     756 | 0x386A      |       14442 |
|     757 | 0x0850      |        2128 |
|     758 | 0x386B      |       14443 |
|     759 | 0x386C      |       14444 |
|     760 | 0x386D      |       14445 |
|     761 | 0x91A8      |       37288 |
|     762 | 0xFFFFF9EB  |  4294965739 |
|     763 | 0x386E      |       14446 |
|     764 | 0x386F      |       14447 |
|     765 | 0x3870      |       14448 |
|     766 | 0x08C7      |        2247 |
|     767 | 0x3871      |       14449 |
|     768 | 0x3872      |       14450 |
|     769 | 0x3873      |       14451 |
|     770 | 0x3874      |       14452 |
|     771 | 0x3875      |       14453 |
|     772 | 0x3876      |       14454 |
|     773 | 0xFFFFD699  |  4294956697 |
|     774 | 0xFFFFF075  |  4294963317 |
|     775 | 0x0804      |        2052 |
|     776 | 0xFFFF9114  |  4294938900 |
|     777 | 0xFFFFE30F  |  4294959887 |
|     778 | 0x0EED      |        3821 |
|     779 | 0xFFFF9216  |  4294939158 |
|     780 | 0xFFFFE82C  |  4294961196 |
|     781 | 0x3877      |       14455 |
|     782 | 0x3878      |       14456 |
|     783 | 0x09B4      |        2484 |
|     784 | 0x0B64      |        2916 |
|     785 | 0x3879      |       14457 |
|     786 | 0x0168      |         360 |
|     787 | 0x387A      |       14458 |
|     788 | 0x387B      |       14459 |
|     789 | 0x0058      |          88 |
|     790 | 0x387C      |       14460 |
|     791 | 0x387D      |       14461 |
|     792 | 0x387E      |       14462 |
|     793 | 0x0D5A      |        3418 |
|     794 | 0x0859      |        2137 |
|     795 | 0x387F      |       14463 |
|     796 | 0x0BB3      |        2995 |
|     797 | 0x3880      |       14464 |
|     798 | 0xFFFF8FA7  |  4294938535 |
|     799 | 0xFFFFE5A6  |  4294960550 |
|     800 | 0x0EFE      |        3838 |
|     801 | 0x040E      |        1038 |
|     802 | 0x0ADD      |        2781 |
|     803 | 0x3881      |       14465 |
|     804 | 0x0E35      |        3637 |
|     805 | 0x3882      |       14466 |
|     806 | 0x3883      |       14467 |
|     807 | 0x3884      |       14468 |
|     808 | 0x08F8      |        2296 |
|     809 | 0x3885      |       14469 |
|     810 | 0xFFFFF63C  |  4294964796 |
|     811 | 0x3886      |       14470 |
|     812 | 0x3887      |       14471 |
|     813 | 0x3888      |       14472 |
|     814 | 0x3889      |       14473 |
|     815 | 0x00D7      |         215 |

## String References

- **13105**: @@
- **13405**: Are you familiar with Troupe Mayakov? [No, not at all familiar./Yes, exceedingly familiar.]
- **13425**: Bravo! Bravo!
- **13431**: Spoken like a true artist!
- **13439**: Do you have a ticket? [Got it right here!/N-no, I don't.]
- **13458**: You do not have $6!
- **13507**: Which dancer is your favorite? [The one on the right./The one in the middle./The one on the left.]
- **13998**: Ask for permission? [Take me with you!/On second thought...]
- **14007**: What will you do? [Show some backbone./Give up and go home.]

## Events

### Event 65535

#### Metadata

| Field        | Value   |
|--------------|---------|
| Entrypoint   | 0x0000  |
| Data Size    | 1 bytes |
| Instructions | 1       |

```
      00 01 02 03 04 05 06 07  08 09 0A 0B 0C 0D 0E 0F
      -- -- -- -- -- -- -- --  -- -- -- -- -- -- -- --
0000: 00                                                .               
```

#### Opcodes

```
  0: 0x0000 [0x00] END_REQSTACK()
```

### Event 67

#### Metadata

| Field        | Value      |
|--------------|------------|
| Entrypoint   | 0x0001     |
| Data Size    | 1593 bytes |
| Instructions | 209        |

```
      00 01 02 03 04 05 06 07  08 09 0A 0B 0C 0D 0E 0F
      -- -- -- -- -- -- -- --  -- -- -- -- -- -- -- --
0000:    42 1A 03 79 46 01 38  00 80 4E 00 F0 FF FF 7F   B..yF.8..N.....
0010: 4E 01 97 02 05 01 4E 01  98 02 05 01 4E 01 99 02  N.....N.....N...
0020: 05 01 4E 01 9A 02 05 01  4E 01 9B 02 05 01 92 01  ..N.....N.......
0030: EA 01 05 01 92 01 97 02  05 01 92 01 98 02 05 01  ................
0040: 92 01 99 02 05 01 92 01  9A 02 05 01 92 01 9B 02  ................
0050: 05 01 94 01 F0 FF FF 7F  94 01 EA 01 05 01 94 01  ................
0060: 97 02 05 01 94 01 98 02  05 01 94 01 99 02 05 01  ................
0070: 94 01 9A 02 05 01 94 01  9B 02 05 01 BA F0 FF FF  ................
0080: 7F 01 80 02 80 03 80 04  80 BA EA 01 05 01 05 80  ................
0090: 05 80 06 80 05 80 BA 97  02 05 01 07 80 08 80 03  ................
00A0: 80 09 80 BA 98 02 05 01  0A 80 0B 80 03 80 0C 80  ................
00B0: BA 99 02 05 01 0D 80 0E  80 03 80 0F 80 BA 9A 02  ................
00C0: 05 01 10 80 11 80 03 80  12 80 BA 9B 02 05 01 13  ................
00D0: 80 14 80 03 80 15 80 80  F0 FF FF 7F 80 EA 01 05  ................
00E0: 01 80 97 02 05 01 80 98  02 05 01 80 99 02 05 01  ................
00F0: 80 9A 02 05 01 80 9B 02  05 01 45 16 80 F8 FF FF  ..........E.....
0100: 7F F8 FF FF 7F 73 30 37  32 05 80 45 17 80 F0 FF  .....s072..E....
0110: FF 7F F0 FF FF 7F 66 64  69 32 05 80 03 25 10 18  ......fdi2...%..
0120: 80 03 27 10 19 80 03 26  10 1A 80 03 28 10 1B 80  ..'....&....(...
0130: 27 0F F0 FF FF 7F 16 55  16 80 F8 FF FF 7F F8 FF  '......U........
0140: FF 7F 73 30 37 32 45 16  80 F8 FF FF 7F F8 FF FF  ..s072E.........
0150: 7F 73 30 30 30 05 80 2A  0F F0 FF FF 7F BA F0 FF  .s000..*........
0160: FF 7F 1C 80 1D 80 03 80  12 80 03 25 10 1E 80 03  ...........%....
0170: 27 10 1F 80 03 26 10 03  80 03 28 10 20 80 27 0F  '....&....(. .'.
0180: F0 FF FF 7F 16 2A 0F F0  FF FF 7F 4A F0 FF FF 7F  .....*.....J....
0190: 97 02 05 01 6F 76 F0 FF  FF 7F 55 16 80 F8 FF FF  ....ov....U.....
01A0: 7F F8 FF FF 7F 73 30 30  30 4E 00 97 02 05 01 4E  .....s000N.....N
01B0: 00 98 02 05 01 4E 00 99  02 05 01 4E 00 9A 02 05  .....N.....N....
01C0: 01 4E 00 9B 02 05 01 03  25 10 21 80 03 27 10 22  .N......%.!..'."
01D0: 80 03 26 10 23 80 03 28  10 24 80 27 0F 97 02 05  ..&.#..(.$.'....
01E0: 01 0B 1C 25 80 27 0F 98  02 05 01 0B 1C 25 80 45  ...%.'.......%.E
01F0: 16 80 F8 FF FF 7F F8 FF  FF 7F 73 30 30 32 05 80  ..........s002..
0200: 27 0F 9B 02 05 01 0A 1C  26 80 27 0F 99 02 05 01  '.......&.'.....
0210: 0A 1C 26 80 27 0F 9A 02  05 01 0A 55 16 80 F8 FF  ..&.'......U....
0220: FF 7F F8 FF FF 7F 73 30  30 32 4B F0 FF FF 7F 27  ......s002K....'
0230: 80 45 16 80 F8 FF FF 7F  F8 FF FF 7F 73 30 30 33  .E..........s003
0240: 05 80 4E 00 EA 01 05 01  6F 76 F0 FF FF 7F 6E F0  ..N.....ov....n.
0250: FF FF 7F 28 80 99 F0 FF  FF 7F BA EA 01 05 01 29  ...(...........)
0260: 80 2A 80 03 80 2B 80 03  25 10 2C 80 03 27 10 2D  .*...+..%.,..'.-
0270: 80 03 26 10 03 80 03 28  10 2E 80 27 0F EA 01 05  ..&....(...'....
0280: 01 04 2A 0F EA 01 05 01  55 16 80 F8 FF FF 7F F8  ..*.....U.......
0290: FF FF 7F 73 30 30 33 4A  F0 FF FF 7F EA 01 05 01  ...s003J........
02A0: 1C 2F 80 4A EA 01 05 01  F0 FF FF 7F 7B EA 01 05  ./.J........{...
02B0: 01 45 16 80 F8 FF FF 7F  F8 FF FF 7F 73 30 30 34  .E..........s004
02C0: 05 80 6F 76 F0 FF FF 7F  6F 76 EA 01 05 01 55 16  ..ov....ov....U.
02D0: 80 F8 FF FF 7F F8 FF FF  7F 73 30 30 34 66 30 80  .........s004f0.
02E0: EA 01 05 01 EA 01 05 01  74 6C 6B 30 2B EA 01 05  ........tlk0+...
02F0: 01 31 80 23 66 30 80 EA  01 05 01 EA 01 05 01 74  .1.#f0.........t
0300: 6C 6B 31 45 16 80 F8 FF  FF 7F F8 FF FF 7F 73 30  lk1E..........s0
0310: 30 35 05 80 4A F0 FF FF  7F 97 02 05 01 6F 76 F0  05..J........ov.
0320: FF FF 7F 6E F0 FF FF 7F  05 80 99 F0 FF FF 7F 1C  ...n............
0330: 2F 80 55 16 80 F8 FF FF  7F F8 FF FF 7F 73 30 30  /.U..........s00
0340: 35 4A EA 01 05 01 97 02  05 01 7B EA 01 05 01 45  5J........{....E
0350: 16 80 F8 FF FF 7F F8 FF  FF 7F 73 30 30 36 05 80  ..........s006..
0360: 6F 76 EA 01 05 01 1C 26  80 66 30 80 EA 01 05 01  ov.....&.f0.....
0370: EA 01 05 01 74 6C 6B 30  2B EA 01 05 01 32 80 23  ....tlk0+....2.#
0380: 66 30 80 EA 01 05 01 EA  01 05 01 74 6C 6B 31 4A  f0.........tlk1J
0390: F0 FF FF 7F EA 01 05 01  52 16 80 F8 FF FF 7F F8  ........R.......
03A0: FF FF 7F 73 30 30 36 45  16 80 F8 FF FF 7F F8 FF  ...s006E........
03B0: FF 7F 73 30 30 37 05 80  6F 76 F0 FF FF 7F 6E F0  ..s007..ov....n.
03C0: FF FF 7F 28 80 99 F0 FF  FF 7F 1C 2F 80 52 16 80  ...(......./.R..
03D0: F8 FF FF 7F F8 FF FF 7F  73 30 30 37 4A EA 01 05  ........s007J...
03E0: 01 F0 FF FF 7F 7B EA 01  05 01 45 16 80 F8 FF FF  .....{....E.....
03F0: 7F F8 FF FF 7F 73 30 30  38 05 80 6F 76 EA 01 05  .....s008..ov...
0400: 01 1C 25 80 66 30 80 EA  01 05 01 EA 01 05 01 74  ..%.f0.........t
0410: 6C 6B 30 2B EA 01 05 01  33 80 23 66 30 80 EA 01  lk0+....3.#f0...
0420: 05 01 EA 01 05 01 74 6C  6B 31 24 34 80 05 80 05  ......tlk1$4....
0430: 80 25 02 00 10 05 80 00  A2 04 52 16 80 F8 FF FF  .%........R.....
0440: 7F F8 FF FF 7F 73 30 30  38 45 16 80 F8 FF FF 7F  .....s008E......
0450: F8 FF FF 7F 73 30 30 39  05 80 66 30 80 EA 01 05  ....s009..f0....
0460: 01 EA 01 05 01 74 6C 6B  30 2B EA 01 05 01 35 80  .....tlk0+....5.
0470: 23 2B EA 01 05 01 36 80  23 2B EA 01 05 01 37 80  #+....6.#+....7.
0480: 23 66 30 80 EA 01 05 01  EA 01 05 01 74 6C 6B 31  #f0.........tlk1
0490: 52 16 80 F8 FF FF 7F F8  FF FF 7F 73 30 30 39 01  R..........s009.
04A0: F3 04 02 00 10 38 80 00  F3 04 52 16 80 F8 FF FF  .....8....R.....
04B0: 7F F8 FF FF 7F 73 30 30  38 45 16 80 F8 FF FF 7F  .....s008E......
04C0: F8 FF FF 7F 73 30 30 39  05 80 66 30 80 EA 01 05  ....s009..f0....
04D0: 01 EA 01 05 01 74 6C 6B  30 2B EA 01 05 01 39 80  .....tlk0+....9.
04E0: 23 66 30 80 EA 01 05 01  EA 01 05 01 74 6C 6B 31  #f0.........tlk1
04F0: 01 F3 04 52 16 80 F8 FF  FF 7F F8 FF FF 7F 73 30  ...R..........s0
0500: 30 39 45 16 80 F8 FF FF  7F F8 FF FF 7F 73 30 31  09E..........s01
0510: 32 05 80 66 30 80 EA 01  05 01 EA 01 05 01 74 6C  2..f0.........tl
0520: 6B 30 2B EA 01 05 01 3A  80 23 2B EA 01 05 01 3B  k0+....:.#+....;
0530: 80 23 2B EA 01 05 01 3C  80 23 66 30 80 EA 01 05  .#+....<.#f0....
0540: 01 EA 01 05 01 74 6C 6B  31 55 16 80 F8 FF FF 7F  .....tlk1U......
0550: F8 FF FF 7F 73 30 31 32  45 16 80 F8 FF FF 7F F8  ....s012E.......
0560: FF FF 7F 73 30 31 35 05  80 1C 3D 80 03 25 10 3E  ...s015...=..%.>
0570: 80 03 27 10 3F 80 03 26  10 03 80 03 28 10 40 80  ..'.?..&....(.@.
0580: 29 0F EA 01 05 01 04 6E  EA 01 05 01 00 80 99 EA  )......n........
0590: 01 05 01 99 EA 01 05 01  4A F0 FF FF 7F EA 01 05  ........J.......
05A0: 01 52 16 80 F8 FF FF 7F  F8 FF FF 7F 73 30 31 35  .R..........s015
05B0: 45 16 80 F8 FF FF 7F F8  FF FF 7F 73 30 37 33 05  E..........s073.
05C0: 80 2B EA 01 05 01 41 80  23 4A F0 FF FF 7F EA 01  .+....A.#J......
05D0: 05 01 55 16 80 F8 FF FF  7F F8 FF FF 7F 73 30 37  ..U..........s07
05E0: 33 45 16 80 F8 FF FF 7F  F8 FF FF 7F 73 30 31 34  3E..........s014
05F0: 05 80 03 25 10 42 80 03  27 10 43 80 03 26 10 03  ...%.B..'.C..&..
0600: 80 03 28 10 44 80 27 0F  EA 01 05 01 04 1C 45 80  ..(.D.'.......E.
0610: 55 16 80 F8 FF FF 7F F8  FF FF 7F 73 30 31 34 1A  U..........s014.
0620: 03 79 1C 25 80 46 00 45  17 80 F0 FF FF 7F F0 FF  .y.%.F.E........
0630: FF 7F 66 64 69 32 05 80  21 00                    ..fdi2..!.      
```

#### Opcodes

```
  0: 0x0001 [0x42] SET_CLI_EVENT_CANCEL_DATA()
  1: 0x0002 [0x1A] CALL_SUBROUTINE(address=0x7903)
  2: 0x0005 [0x46] CAMERA_CONTROL: Disable user control
  3: 0x0007 [0x38] SET_CLIENT_EVENT_MODE(mode=19*)
  4: 0x000A [0x4E] SET_ENTITY_HIDE_FLAG: Show LocalPlayer
  5: 0x0010 [0x4E] SET_ENTITY_HIDE_FLAG: Hide Phillarceaux (ID: 17105559/0x01050297)
  6: 0x0016 [0x4E] SET_ENTITY_HIDE_FLAG: Hide Unnamed NPC (ID: 17105560/0x01050298)
  7: 0x001C [0x4E] SET_ENTITY_HIDE_FLAG: Hide Unnamed NPC (ID: 17105561/0x01050299)
  8: 0x0022 [0x4E] SET_ENTITY_HIDE_FLAG: Hide Unnamed NPC (ID: 17105562/0x0105029A)
  9: 0x0028 [0x4E] SET_ENTITY_HIDE_FLAG: Hide Unnamed NPC (ID: 17105563/0x0105029B)
 10: 0x002E [0x92] Remiotte (ID: 17105386/0x010501EA)->Render.Flags3 ^= 0x01
 11: 0x0034 [0x92] Phillarceaux (ID: 17105559/0x01050297)->Render.Flags3 ^= 0x01
 12: 0x003A [0x92] Unnamed NPC (ID: 17105560/0x01050298)->Render.Flags3 ^= 0x01
 13: 0x0040 [0x92] Unnamed NPC (ID: 17105561/0x01050299)->Render.Flags3 ^= 0x01
 14: 0x0046 [0x92] Unnamed NPC (ID: 17105562/0x0105029A)->Render.Flags3 ^= 0x01
 15: 0x004C [0x92] Unnamed NPC (ID: 17105563/0x0105029B)->Render.Flags3 ^= 0x01
 16: 0x0052 [0x94] LocalPlayer->Render.Flags3 ^= 0x01
 17: 0x0058 [0x94] Remiotte (ID: 17105386/0x010501EA)->Render.Flags3 ^= 0x01
 18: 0x005E [0x94] Phillarceaux (ID: 17105559/0x01050297)->Render.Flags3 ^= 0x01
 19: 0x0064 [0x94] Unnamed NPC (ID: 17105560/0x01050298)->Render.Flags3 ^= 0x01
 20: 0x006A [0x94] Unnamed NPC (ID: 17105561/0x01050299)->Render.Flags3 ^= 0x01
 21: 0x0070 [0x94] Unnamed NPC (ID: 17105562/0x0105029A)->Render.Flags3 ^= 0x01
 22: 0x0076 [0x94] Unnamed NPC (ID: 17105563/0x0105029B)->Render.Flags3 ^= 0x01
 23: 0x007C [0xBA] SET_ENTITY_POSITION(entity_id=LocalPlayer, pos_x=85.109*, pos_z=-13.187*, pos_y=1.999*, direction=232.7°*)
 24: 0x0089 [0xBA] SET_ENTITY_POSITION(entity_id=Remiotte (ID: 17105386/0x010501EA), pos_x=0.000*, pos_z=0.000*, pos_y=-5.000*, direction=0.0°*)
 25: 0x0096 [0xBA] SET_ENTITY_POSITION(entity_id=Phillarceaux (ID: 17105559/0x01050297), pos_x=76.305*, pos_z=-2.931*, pos_y=1.999*, direction=303.5°*)
 26: 0x00A3 [0xBA] SET_ENTITY_POSITION(entity_id=Unnamed NPC (ID: 17105560/0x01050298), pos_x=76.842*, pos_z=-4.517*, pos_y=1.999*, direction=303.6°*)
 27: 0x00B0 [0xBA] SET_ENTITY_POSITION(entity_id=Unnamed NPC (ID: 17105561/0x01050299), pos_x=75.425*, pos_z=-7.724*, pos_y=1.999*, direction=328.5°*)
 28: 0x00BD [0xBA] SET_ENTITY_POSITION(entity_id=Unnamed NPC (ID: 17105562/0x0105029A), pos_x=75.480*, pos_z=-10.148*, pos_y=1.999*, direction=84.2°*)
 29: 0x00CA [0xBA] SET_ENTITY_POSITION(entity_id=Unnamed NPC (ID: 17105563/0x0105029B), pos_x=71.593*, pos_z=-13.237*, pos_y=1.999*, direction=63.2°*)
 30: 0x00D7 [0x80] LOAD_WAIT(entity=LocalPlayer)
 31: 0x00DC [0x80] LOAD_WAIT(entity=Remiotte (ID: 17105386/0x010501EA))
 32: 0x00E1 [0x80] LOAD_WAIT(entity=Phillarceaux (ID: 17105559/0x01050297))
 33: 0x00E6 [0x80] LOAD_WAIT(entity=Unnamed NPC (ID: 17105560/0x01050298))
 34: 0x00EB [0x80] LOAD_WAIT(entity=Unnamed NPC (ID: 17105561/0x01050299))
 35: 0x00F0 [0x80] LOAD_WAIT(entity=Unnamed NPC (ID: 17105562/0x0105029A))
 36: 0x00F5 [0x80] LOAD_WAIT(entity=Unnamed NPC (ID: 17105563/0x0105029B))
 37: 0x00FA [0x45] LOAD_SCHEDULED_TASK: Load scheduler "s072" with entities [EventEntity, EventEntity], work=[359*, 0*]
 38: 0x010B [0x45] LOAD_SCHEDULED_TASK: Load scheduler "fdi2" with entities [LocalPlayer, LocalPlayer], work=[200*, 0*]
 39: 0x011C [0x03] Work_Zone[37] = 79670*
 40: 0x0121 [0x03] Work_Zone[39] = 4294960287*
 41: 0x0126 [0x03] Work_Zone[38] = 2000*
 42: 0x012B [0x03] Work_Zone[40] = 2693*
 43: 0x0130 [0x27] REQ_SET(priority=0x0F, entity_id=LocalPlayer, tag_num=0x16)
 44: 0x0137 [0x55] WAIT_LOAD_SCHEDULER: Wait for scheduler "s072" with entities [EventEntity, EventEntity], work=359*
 45: 0x0146 [0x45] LOAD_SCHEDULED_TASK: Load scheduler "s000" with entities [EventEntity, EventEntity], work=[359*, 0*]
 46: 0x0157 [0x2A] GET_REQ_LEVEL(level=15, entity_id=LocalPlayer)
 47: 0x015D [0xBA] SET_ENTITY_POSITION(entity_id=LocalPlayer, pos_x=83.050*, pos_z=2.041*, pos_y=1.999*, direction=84.2°*)
 48: 0x016A [0x03] Work_Zone[37] = 80938*
 49: 0x016F [0x03] Work_Zone[39] = 5501*
 50: 0x0174 [0x03] Work_Zone[38] = 1999*
 51: 0x0179 [0x03] Work_Zone[40] = 3773*
 52: 0x017E [0x27] REQ_SET(priority=0x0F, entity_id=LocalPlayer, tag_num=0x16)
 53: 0x0185 [0x2A] GET_REQ_LEVEL(level=15, entity_id=LocalPlayer)
 54: 0x018B [0x4A] LocalPlayer looks at Phillarceaux (ID: 17105559/0x01050297)
 55: 0x0194 [0x6F] WAIT_FRAME_DELAY: Yield until WaitTime reaches zero
 56: 0x0195 [0x76] CHECK_ENTITY_RENDER_FLAGS: Wait until LocalPlayer Render.Flags0 and Render.Flags3 conditions are met
 57: 0x019A [0x55] WAIT_LOAD_SCHEDULER: Wait for scheduler "s000" with entities [EventEntity, EventEntity], work=359*
 58: 0x01A9 [0x4E] SET_ENTITY_HIDE_FLAG: Show Phillarceaux (ID: 17105559/0x01050297)
 59: 0x01AF [0x4E] SET_ENTITY_HIDE_FLAG: Show Unnamed NPC (ID: 17105560/0x01050298)
 60: 0x01B5 [0x4E] SET_ENTITY_HIDE_FLAG: Show Unnamed NPC (ID: 17105561/0x01050299)
 61: 0x01BB [0x4E] SET_ENTITY_HIDE_FLAG: Show Unnamed NPC (ID: 17105562/0x0105029A)
 62: 0x01C1 [0x4E] SET_ENTITY_HIDE_FLAG: Show Unnamed NPC (ID: 17105563/0x0105029B)
 63: 0x01C7 [0x03] Work_Zone[37] = 104670*
 64: 0x01CC [0x03] Work_Zone[39] = 26446*
 65: 0x01D1 [0x03] Work_Zone[38] = 3999*
 66: 0x01D6 [0x03] Work_Zone[40] = 3752*
 67: 0x01DB [0x27] REQ_SET(priority=0x0F, entity_id=Phillarceaux (ID: 17105559/0x01050297), tag_num=0x0B)
 68: 0x01E2 [0x1C] WAIT(30* ticks)
 69: 0x01E5 [0x27] REQ_SET(priority=0x0F, entity_id=Unnamed NPC (ID: 17105560/0x01050298), tag_num=0x0B)
 70: 0x01EC [0x1C] WAIT(30* ticks)
 71: 0x01EF [0x45] LOAD_SCHEDULED_TASK: Load scheduler "s002" with entities [EventEntity, EventEntity], work=[359*, 0*]
 72: 0x0200 [0x27] REQ_SET(priority=0x0F, entity_id=Unnamed NPC (ID: 17105563/0x0105029B), tag_num=0x0A)
 73: 0x0207 [0x1C] WAIT(15* ticks)
 74: 0x020A [0x27] REQ_SET(priority=0x0F, entity_id=Unnamed NPC (ID: 17105561/0x01050299), tag_num=0x0A)
 75: 0x0211 [0x1C] WAIT(15* ticks)
 76: 0x0214 [0x27] REQ_SET(priority=0x0F, entity_id=Unnamed NPC (ID: 17105562/0x0105029A), tag_num=0x0A)
 77: 0x021B [0x55] WAIT_LOAD_SCHEDULER: Wait for scheduler "s002" with entities [EventEntity, EventEntity], work=359*
 78: 0x022A [0x4B] UPDATE_ENTITY_YAW(entity=LocalPlayer, yaw=3.1°*)
 79: 0x0231 [0x45] LOAD_SCHEDULED_TASK: Load scheduler "s003" with entities [EventEntity, EventEntity], work=[359*, 0*]
 80: 0x0242 [0x4E] SET_ENTITY_HIDE_FLAG: Show Remiotte (ID: 17105386/0x010501EA)
 81: 0x0248 [0x6F] WAIT_FRAME_DELAY: Yield until WaitTime reaches zero
 82: 0x0249 [0x76] CHECK_ENTITY_RENDER_FLAGS: Wait until LocalPlayer Render.Flags0 and Render.Flags3 conditions are met
 83: 0x024E [0x6E] LocalPlayer uses emote 22*
 84: 0x0255 [0x99] Wait for LocalPlayer animation to complete
 85: 0x025A [0xBA] SET_ENTITY_POSITION(entity_id=Remiotte (ID: 17105386/0x010501EA), pos_x=83.467*, pos_z=12.309*, pos_y=1.999*, direction=87.9°*)
 86: 0x0267 [0x03] Work_Zone[37] = 81321*
 87: 0x026C [0x03] Work_Zone[39] = 7389*
 88: 0x0271 [0x03] Work_Zone[38] = 1999*
 89: 0x0276 [0x03] Work_Zone[40] = 137*
 90: 0x027B [0x27] REQ_SET(priority=0x0F, entity_id=Remiotte (ID: 17105386/0x010501EA), tag_num=0x04)
 91: 0x0282 [0x2A] GET_REQ_LEVEL(level=15, entity_id=Remiotte (ID: 17105386/0x010501EA))
 92: 0x0288 [0x55] WAIT_LOAD_SCHEDULER: Wait for scheduler "s003" with entities [EventEntity, EventEntity], work=359*
 93: 0x0297 [0x4A] LocalPlayer looks at Remiotte (ID: 17105386/0x010501EA)
 94: 0x02A0 [0x1C] WAIT(120* ticks)
 95: 0x02A3 [0x4A] Remiotte (ID: 17105386/0x010501EA) looks at LocalPlayer
 96: 0x02AC [0x7B] Remiotte (ID: 17105386/0x010501EA) stops talking
 97: 0x02B1 [0x45] LOAD_SCHEDULED_TASK: Load scheduler "s004" with entities [EventEntity, EventEntity], work=[359*, 0*]
 98: 0x02C2 [0x6F] WAIT_FRAME_DELAY: Yield until WaitTime reaches zero
 99: 0x02C3 [0x76] CHECK_ENTITY_RENDER_FLAGS: Wait until LocalPlayer Render.Flags0 and Render.Flags3 conditions are met
100: 0x02C8 [0x6F] WAIT_FRAME_DELAY: Yield until WaitTime reaches zero
101: 0x02C9 [0x76] CHECK_ENTITY_RENDER_FLAGS: Wait until Remiotte (ID: 17105386/0x010501EA) Render.Flags0 and Render.Flags3 conditions are met
102: 0x02CE [0x55] WAIT_LOAD_SCHEDULER: Wait for scheduler "s004" with entities [EventEntity, EventEntity], work=359*
103: 0x02DD [0x66] LOAD_EXT_SCHEDULER_MAIN: Load scheduler "tlk0" with entities [Remiotte (ID: 17105386/0x010501EA), Remiotte (ID: 17105386/0x010501EA)], work=29*
104: 0x02EC [0x2B] Remiotte (ID: 17105386/0x010501EA) [13402*]:
    → "Well, you're certainly looking quite hapless, adventurer. Have you not your wits about you?"
105: 0x02F3 [0x23] WAIT_FOR_DIALOG_INTERACTION
106: 0x02F4 [0x66] LOAD_EXT_SCHEDULER_MAIN: Load scheduler "tlk1" with entities [Remiotte (ID: 17105386/0x010501EA), Remiotte (ID: 17105386/0x010501EA)], work=29*
107: 0x0303 [0x45] LOAD_SCHEDULED_TASK: Load scheduler "s005" with entities [EventEntity, EventEntity], work=[359*, 0*]
108: 0x0314 [0x4A] LocalPlayer looks at Phillarceaux (ID: 17105559/0x01050297)
109: 0x031D [0x6F] WAIT_FRAME_DELAY: Yield until WaitTime reaches zero
110: 0x031E [0x76] CHECK_ENTITY_RENDER_FLAGS: Wait until LocalPlayer Render.Flags0 and Render.Flags3 conditions are met
111: 0x0323 [0x6E] LocalPlayer uses emote 0*
112: 0x032A [0x99] Wait for LocalPlayer animation to complete
113: 0x032F [0x1C] WAIT(120* ticks)
114: 0x0332 [0x55] WAIT_LOAD_SCHEDULER: Wait for scheduler "s005" with entities [EventEntity, EventEntity], work=359*
115: 0x0341 [0x4A] Remiotte (ID: 17105386/0x010501EA) looks at Phillarceaux (ID: 17105559/0x01050297)
116: 0x034A [0x7B] Remiotte (ID: 17105386/0x010501EA) stops talking
117: 0x034F [0x45] LOAD_SCHEDULED_TASK: Load scheduler "s006" with entities [EventEntity, EventEntity], work=[359*, 0*]
118: 0x0360 [0x6F] WAIT_FRAME_DELAY: Yield until WaitTime reaches zero
119: 0x0361 [0x76] CHECK_ENTITY_RENDER_FLAGS: Wait until Remiotte (ID: 17105386/0x010501EA) Render.Flags0 and Render.Flags3 conditions are met
120: 0x0366 [0x1C] WAIT(15* ticks)
121: 0x0369 [0x66] LOAD_EXT_SCHEDULER_MAIN: Load scheduler "tlk0" with entities [Remiotte (ID: 17105386/0x010501EA), Remiotte (ID: 17105386/0x010501EA)], work=29*
122: 0x0378 [0x2B] Remiotte (ID: 17105386/0x010501EA) [13403*]:
    → "What's all the commotion, you ask? Well, everyone is on their way to see Troupe Mayakov's performance, of course. My comrades have been scrambling about relentlessly for some time now trying to procure tickets."
123: 0x037F [0x23] WAIT_FOR_DIALOG_INTERACTION
124: 0x0380 [0x66] LOAD_EXT_SCHEDULER_MAIN: Load scheduler "tlk1" with entities [Remiotte (ID: 17105386/0x010501EA), Remiotte (ID: 17105386/0x010501EA)], work=29*
125: 0x038F [0x4A] LocalPlayer looks at Remiotte (ID: 17105386/0x010501EA)
126: 0x0398 [0x52] END_LOAD_SCHEDULER: End scheduler "s006" with entities [EventEntity, EventEntity], work=359*
127: 0x03A7 [0x45] LOAD_SCHEDULED_TASK: Load scheduler "s007" with entities [EventEntity, EventEntity], work=[359*, 0*]
128: 0x03B8 [0x6F] WAIT_FRAME_DELAY: Yield until WaitTime reaches zero
129: 0x03B9 [0x76] CHECK_ENTITY_RENDER_FLAGS: Wait until LocalPlayer Render.Flags0 and Render.Flags3 conditions are met
130: 0x03BE [0x6E] LocalPlayer uses emote 22*
131: 0x03C5 [0x99] Wait for LocalPlayer animation to complete
132: 0x03CA [0x1C] WAIT(120* ticks)
133: 0x03CD [0x52] END_LOAD_SCHEDULER: End scheduler "s007" with entities [EventEntity, EventEntity], work=359*
134: 0x03DC [0x4A] Remiotte (ID: 17105386/0x010501EA) looks at LocalPlayer
135: 0x03E5 [0x7B] Remiotte (ID: 17105386/0x010501EA) stops talking
136: 0x03EA [0x45] LOAD_SCHEDULED_TASK: Load scheduler "s008" with entities [EventEntity, EventEntity], work=[359*, 0*]
137: 0x03FB [0x6F] WAIT_FRAME_DELAY: Yield until WaitTime reaches zero
138: 0x03FC [0x76] CHECK_ENTITY_RENDER_FLAGS: Wait until Remiotte (ID: 17105386/0x010501EA) Render.Flags0 and Render.Flags3 conditions are met
139: 0x0401 [0x1C] WAIT(30* ticks)
140: 0x0404 [0x66] LOAD_EXT_SCHEDULER_MAIN: Load scheduler "tlk0" with entities [Remiotte (ID: 17105386/0x010501EA), Remiotte (ID: 17105386/0x010501EA)], work=29*
141: 0x0413 [0x2B] Remiotte (ID: 17105386/0x010501EA) [13404*]:
    → "Surely you are familiar with Troupe Mayakov, yes?"
142: 0x041A [0x23] WAIT_FOR_DIALOG_INTERACTION
143: 0x041B [0x66] LOAD_EXT_SCHEDULER_MAIN: Load scheduler "tlk1" with entities [Remiotte (ID: 17105386/0x010501EA), Remiotte (ID: 17105386/0x010501EA)], work=29*
144: 0x042A [0x24] CREATE_DIALOG(message_id=13405*, default_option=0*, option_flags=0*)
    → "Are you familiar with Troupe Mayakov? [No, not at all familiar./Yes, exceedingly familiar.]"
145: 0x0431 [0x25] WAIT_DIALOG_SELECT()
146: 0x0432 [0x02] IF !(Work_Zone[0] == 0*) GOTO 0x04A2
147: 0x043A [0x52] END_LOAD_SCHEDULER: End scheduler "s008" with entities [EventEntity, EventEntity], work=359*
148: 0x0449 [0x45] LOAD_SCHEDULED_TASK: Load scheduler "s009" with entities [EventEntity, EventEntity], work=[359*, 0*]
149: 0x045A [0x66] LOAD_EXT_SCHEDULER_MAIN: Load scheduler "tlk0" with entities [Remiotte (ID: 17105386/0x010501EA), Remiotte (ID: 17105386/0x010501EA)], work=29*
150: 0x0469 [0x2B] Remiotte (ID: 17105386/0x010501EA) [13406*]:
    → "What!? I cannot even begin to imagine the enormity of the rock under which you must have been hiding. Why, they are one of the most popular dancing troupes in Vana'diel right now, rivaled perhaps only by Troupe Brilioth."
151: 0x0470 [0x23] WAIT_FOR_DIALOG_INTERACTION
152: 0x0471 [0x2B] Remiotte (ID: 17105386/0x010501EA) [13407*]:
    → "Though from a stylistic and technical point of view, I am of the personal opinion that Troupe Mayakov is considerably more advanced."
153: 0x0478 [0x23] WAIT_FOR_DIALOG_INTERACTION
154: 0x0479 [0x2B] Remiotte (ID: 17105386/0x010501EA) [13408*]:
    → "Of course, it certainly doesn't hurt that they have amassed some of the most adorable dancers I've ever seen!"
155: 0x0480 [0x23] WAIT_FOR_DIALOG_INTERACTION
156: 0x0481 [0x66] LOAD_EXT_SCHEDULER_MAIN: Load scheduler "tlk1" with entities [Remiotte (ID: 17105386/0x010501EA), Remiotte (ID: 17105386/0x010501EA)], work=29*
157: 0x0490 [0x52] END_LOAD_SCHEDULER: End scheduler "s009" with entities [EventEntity, EventEntity], work=359*
158: 0x049F [0x01] GOTO 0x04F3
159: 0x04A2 [0x02] IF !(Work_Zone[0] == 1*) GOTO 0x04F3
160: 0x04AA [0x52] END_LOAD_SCHEDULER: End scheduler "s008" with entities [EventEntity, EventEntity], work=359*
161: 0x04B9 [0x45] LOAD_SCHEDULED_TASK: Load scheduler "s009" with entities [EventEntity, EventEntity], work=[359*, 0*]
162: 0x04CA [0x66] LOAD_EXT_SCHEDULER_MAIN: Load scheduler "tlk0" with entities [Remiotte (ID: 17105386/0x010501EA), Remiotte (ID: 17105386/0x010501EA)], work=29*
163: 0x04D9 [0x2B] Remiotte (ID: 17105386/0x010501EA) [13409*]:
    → "As well you should! They've come to gain quite the reputation amongst the people recently for their lineup of beauties. Only the finest are selected, they say."
164: 0x04E0 [0x23] WAIT_FOR_DIALOG_INTERACTION
165: 0x04E1 [0x66] LOAD_EXT_SCHEDULER_MAIN: Load scheduler "tlk1" with entities [Remiotte (ID: 17105386/0x010501EA), Remiotte (ID: 17105386/0x010501EA)], work=29*
166: 0x04F0 [0x01] GOTO 0x04F3

SUBROUTINE_04F3:
167: 0x04F3 [0x52] END_LOAD_SCHEDULER: End scheduler "s009" with entities [EventEntity, EventEntity], work=359*
168: 0x0502 [0x45] LOAD_SCHEDULED_TASK: Load scheduler "s012" with entities [EventEntity, EventEntity], work=[359*, 0*]
169: 0x0513 [0x66] LOAD_EXT_SCHEDULER_MAIN: Load scheduler "tlk0" with entities [Remiotte (ID: 17105386/0x010501EA), Remiotte (ID: 17105386/0x010501EA)], work=29*
170: 0x0522 [0x2B] Remiotte (ID: 17105386/0x010501EA) [13410*]:
    → "In fact, a show is about to start over at the old tavern in Lion Square. The troupe leader has decided to grace San d'Oria with a performance by popular demand."
171: 0x0529 [0x23] WAIT_FOR_DIALOG_INTERACTION
172: 0x052A [0x2B] Remiotte (ID: 17105386/0x010501EA) [13411*]:
    → "Such a chance to see performers of that caliber up close doesn't present itself very often. Everyone sure is up in a frenzy over it, all right."
173: 0x0531 [0x23] WAIT_FOR_DIALOG_INTERACTION
174: 0x0532 [0x2B] Remiotte (ID: 17105386/0x010501EA) [13412*]:
    → "Well, if you have time yourself, I would highly recommend you pay a visit. Although I offer no guarantee that you'll be able to get your hands on a ticket."
175: 0x0539 [0x23] WAIT_FOR_DIALOG_INTERACTION
176: 0x053A [0x66] LOAD_EXT_SCHEDULER_MAIN: Load scheduler "tlk1" with entities [Remiotte (ID: 17105386/0x010501EA), Remiotte (ID: 17105386/0x010501EA)], work=29*
177: 0x0549 [0x55] WAIT_LOAD_SCHEDULER: Wait for scheduler "s012" with entities [EventEntity, EventEntity], work=359*
178: 0x0558 [0x45] LOAD_SCHEDULED_TASK: Load scheduler "s015" with entities [EventEntity, EventEntity], work=[359*, 0*]
179: 0x0569 [0x1C] WAIT(45* ticks)
180: 0x056C [0x03] Work_Zone[37] = 82952*
181: 0x0571 [0x03] Work_Zone[39] = 4040*
182: 0x0576 [0x03] Work_Zone[38] = 1999*
183: 0x057B [0x03] Work_Zone[40] = 724*
184: 0x0580 [0x29] REQ_SET_WAIT(priority=0x0F, entity_id=Remiotte (ID: 17105386/0x010501EA), tag_num=0x04)
185: 0x0587 [0x6E] Remiotte (ID: 17105386/0x010501EA) uses emote 19*
186: 0x058E [0x99] Wait for Remiotte (ID: 17105386/0x010501EA) animation to complete
187: 0x0593 [0x99] Wait for Remiotte (ID: 17105386/0x010501EA) animation to complete
188: 0x0598 [0x4A] LocalPlayer looks at Remiotte (ID: 17105386/0x010501EA)
189: 0x05A1 [0x52] END_LOAD_SCHEDULER: End scheduler "s015" with entities [EventEntity, EventEntity], work=359*
190: 0x05B0 [0x45] LOAD_SCHEDULED_TASK: Load scheduler "s073" with entities [EventEntity, EventEntity], work=[359*, 0*]
191: 0x05C1 [0x2B] Remiotte (ID: 17105386/0x010501EA) [13413*]:
    → "What I wouldn't give to not be on guard duty... <Sigh>..."
192: 0x05C8 [0x23] WAIT_FOR_DIALOG_INTERACTION
193: 0x05C9 [0x4A] LocalPlayer looks at Remiotte (ID: 17105386/0x010501EA)
194: 0x05D2 [0x55] WAIT_LOAD_SCHEDULER: Wait for scheduler "s073" with entities [EventEntity, EventEntity], work=359*
195: 0x05E1 [0x45] LOAD_SCHEDULED_TASK: Load scheduler "s014" with entities [EventEntity, EventEntity], work=[359*, 0*]
196: 0x05F2 [0x03] Work_Zone[37] = 80216*
197: 0x05F7 [0x03] Work_Zone[39] = 4294959654*
198: 0x05FC [0x03] Work_Zone[38] = 1999*
199: 0x0601 [0x03] Work_Zone[40] = 1177*
200: 0x0606 [0x27] REQ_SET(priority=0x0F, entity_id=Remiotte (ID: 17105386/0x010501EA), tag_num=0x04)
201: 0x060D [0x1C] WAIT(180* ticks)
202: 0x0610 [0x55] WAIT_LOAD_SCHEDULER: Wait for scheduler "s014" with entities [EventEntity, EventEntity], work=359*
203: 0x061F [0x1A] CALL_SUBROUTINE(address=0x7903)
204: 0x0622 [0x1C] WAIT(30* ticks)
205: 0x0625 [0x46] CAMERA_CONTROL: Restore default settings
206: 0x0627 [0x45] LOAD_SCHEDULED_TASK: Load scheduler "fdi2" with entities [LocalPlayer, LocalPlayer], work=[200*, 0*]
207: 0x0638 [0x21] END_EVENT
208: 0x0639 [0x00] END_REQSTACK()
```

### Event 68

#### Metadata

| Field        | Value      |
|--------------|------------|
| Entrypoint   | 0x063A     |
| Data Size    | 4625 bytes |
| Instructions | 562        |

```
      00 01 02 03 04 05 06 07  08 09 0A 0B 0C 0D 0E 0F
      -- -- -- -- -- -- -- --  -- -- -- -- -- -- -- --
0630:                                42 1A 03 79 46 01            B..yF.
0640: 38 00 80 34 46 80 77 47  80 38 80 1C 25 80 AB 09  8..4F.wG.8..%...
0650: 75 00 48 80 75 01 27 10  8B 02 05 01 04 27 10 8C  u.H.u.'......'..
0660: 02 05 01 04 27 10 92 02  05 01 04 27 10 93 02 05  ....'......'....
0670: 01 04 92 01 8B 02 05 01  92 01 8C 02 05 01 92 01  ................
0680: 92 02 05 01 92 01 93 02  05 01 92 01 94 02 05 01  ................
0690: 92 01 95 02 05 01 92 01  96 02 05 01 92 01 A5 02  ................
06A0: 05 01 92 01 A6 02 05 01  92 01 8D 02 05 01 92 01  ................
06B0: 8E 02 05 01 92 01 8F 02  05 01 92 01 97 02 05 01  ................
06C0: 92 01 98 02 05 01 92 01  99 02 05 01 92 01 9A 02  ................
06D0: 05 01 92 01 9B 02 05 01  94 01 F0 FF FF 7F 94 01  ................
06E0: 8B 02 05 01 94 01 8C 02  05 01 94 01 92 02 05 01  ................
06F0: 94 01 93 02 05 01 94 01  94 02 05 01 94 01 95 02  ................
0700: 05 01 94 01 96 02 05 01  94 01 97 02 05 01 94 01  ................
0710: 98 02 05 01 94 01 99 02  05 01 94 01 9A 02 05 01  ................
0720: 94 01 9B 02 05 01 94 01  A5 02 05 01 94 01 A6 02  ................
0730: 05 01 94 01 8D 02 05 01  94 01 8E 02 05 01 94 01  ................
0740: 8F 02 05 01 4E 00 F0 FF  FF 7F 4E 00 8B 02 05 01  ....N.....N.....
0750: 4E 00 8C 02 05 01 4E 00  92 02 05 01 4E 00 93 02  N.....N.....N...
0760: 05 01 4E 00 94 02 05 01  4E 00 95 02 05 01 4E 00  ..N.....N.....N.
0770: 96 02 05 01 4E 00 8D 02  05 01 4E 00 8E 02 05 01  ....N.....N.....
0780: 4E 00 8F 02 05 01 BA 8B  02 05 01 49 80 4A 80 2B  N..........I.J.+
0790: 80 4B 80 BA 8C 02 05 01  4C 80 4D 80 2B 80 4E 80  .K......L.M.+.N.
07A0: BA 92 02 05 01 4F 80 50  80 2B 80 51 80 BA 93 02  .....O.P.+.Q....
07B0: 05 01 52 80 53 80 54 80  55 80 BA 94 02 05 01 56  ..R.S.T.U......V
07C0: 80 57 80 2B 80 58 80 BA  95 02 05 01 59 80 5A 80  .W.+.X......Y.Z.
07D0: 2B 80 5B 80 BA 96 02 05  01 5C 80 5D 80 2B 80 5E  +.[......\.].+.^
07E0: 80 BA 97 02 05 01 05 80  05 80 05 80 05 80 BA 98  ................
07F0: 02 05 01 05 80 05 80 05  80 05 80 BA 99 02 05 01  ................
0800: 05 80 05 80 05 80 05 80  BA 9A 02 05 01 05 80 05  ................
0810: 80 05 80 05 80 BA 9B 02  05 01 05 80 05 80 05 80  ................
0820: 05 80 BA A5 02 05 01 05  80 05 80 05 80 05 80 BA  ................
0830: A6 02 05 01 05 80 05 80  05 80 05 80 BA 8D 02 05  ................
0840: 01 5F 80 60 80 2B 80 61  80 BA 8E 02 05 01 62 80  ._.`.+.a......b.
0850: 63 80 2B 80 64 80 BA 8F  02 05 01 65 80 66 80 2B  c.+.d......e.f.+
0860: 80 67 80 BA F0 FF FF 7F  68 80 69 80 05 80 6A 80  .g......h.i...j.
0870: 80 F0 FF FF 7F 80 8B 02  05 01 80 8C 02 05 01 80  ................
0880: 92 02 05 01 80 93 02 05  01 80 94 02 05 01 80 95  ................
0890: 02 05 01 80 96 02 05 01  80 97 02 05 01 80 98 02  ................
08A0: 05 01 80 99 02 05 01 80  9A 02 05 01 80 9B 02 05  ................
08B0: 01 80 A5 02 05 01 80 A6  02 05 01 80 8D 02 05 01  ................
08C0: 80 8E 02 05 01 80 8F 02  05 01 4A 92 02 05 01 8B  ..........J.....
08D0: 02 05 01 4A 93 02 05 01  8B 02 05 01 4A 94 02 05  ...J........J...
08E0: 01 8B 02 05 01 4A 95 02  05 01 8B 02 05 01 4A 96  .....J........J.
08F0: 02 05 01 8B 02 05 01 1C  6B 80 5B 6C 80 8B 02 05  ........k.[l....
0900: 01 8B 02 05 01 6D 73 64  6C 5B 6D 80 92 02 05 01  .....msdl[m.....
0910: 92 02 05 01 6D 65 6D 30  5B 6E 80 93 02 05 01 93  ....mem0[n......
0920: 02 05 01 6D 65 6D 30 1C  38 80 5D 05 80 6F 80 7B  ...mem0.8.]..o.{
0930: 92 02 05 01 7B 93 02 05  01 45 16 80 F8 FF FF 7F  ....{....E......
0940: F8 FF FF 7F 73 30 31 36  05 80 45 17 80 F0 FF FF  ....s016..E.....
0950: 7F F0 FF FF 7F 66 64 69  32 05 80 03 25 10 70 80  .....fdi2...%.p.
0960: 03 27 10 71 80 03 26 10  05 80 03 28 10 6A 80 29  .'.q..&....(.j.)
0970: 0F F0 FF FF 7F 16 1C 6B  80 55 16 80 F8 FF FF 7F  .......k.U......
0980: F8 FF FF 7F 73 30 31 36  45 16 80 F8 FF FF 7F F8  ....s016E.......
0990: FF FF 7F 73 31 36 32 05  80 5B 6D 80 92 02 05 01  ...s162..[m.....
09A0: 92 02 05 01 6D 65 6D 31  2B 92 02 05 01 72 80 23  ....mem1+....r.#
09B0: 2B 92 02 05 01 73 80 23  5B 6D 80 92 02 05 01 92  +....s.#[m......
09C0: 02 05 01 6D 65 6D 32 52  16 80 F8 FF FF 7F F8 FF  ...mem2R........
09D0: FF 7F 73 31 36 32 5C 00  74 80 5C 01 74 80 9A 45  ..s162\.t.\.t..E
09E0: 16 80 F8 FF FF 7F F8 FF  FF 7F 73 30 31 37 05 80  ..........s017..
09F0: 2B 8B 02 05 01 75 80 23  52 16 80 F8 FF FF 7F F8  +....u.#R.......
0A00: FF FF 7F 73 30 31 37 45  16 80 F8 FF FF 7F F8 FF  ...s017E........
0A10: FF 7F 73 30 31 39 05 80  2B 8B 02 05 01 76 80 23  ..s019..+....v.#
0A20: 55 16 80 F8 FF FF 7F F8  FF FF 7F 73 30 31 39 45  U..........s019E
0A30: 16 80 F8 FF FF 7F F8 FF  FF 7F 73 30 31 38 05 80  ..........s018..
0A40: 1C 6B 80 7C 00 92 02 05  01 2B 92 02 05 01 77 80  .k.|.....+....w.
0A50: 23 7C 01 92 02 05 01 55  16 80 F8 FF FF 7F F8 FF  #|.....U........
0A60: FF 7F 73 30 31 38 45 16  80 F8 FF FF 7F F8 FF FF  ..s018E.........
0A70: 7F 73 30 32 30 05 80 5B  6C 80 8B 02 05 01 8B 02  .s020..[l.......
0A80: 05 01 6D 74 68 30 2B 8B  02 05 01 78 80 23 2B 8B  ..mth0+....x.#+.
0A90: 02 05 01 79 80 23 5B 6C  80 8B 02 05 01 8B 02 05  ...y.#[l........
0AA0: 01 6D 74 68 31 2B 8B 02  05 01 7A 80 23 52 16 80  .mth1+....z.#R..
0AB0: F8 FF FF 7F F8 FF FF 7F  73 30 32 30 45 16 80 F8  ........s020E...
0AC0: FF FF 7F F8 FF FF 7F 73  30 32 34 05 80 5B 6D 80  .......s024..[m.
0AD0: 92 02 05 01 92 02 05 01  6D 65 6D 31 2B 92 02 05  ........mem1+...
0AE0: 01 7B 80 23 5B 6D 80 92  02 05 01 92 02 05 01 6D  .{.#[m.........m
0AF0: 65 6D 32 52 16 80 F8 FF  FF 7F F8 FF FF 7F 73 30  em2R..........s0
0B00: 32 34 45 16 80 F8 FF FF  7F F8 FF FF 7F 73 30 32  24E..........s02
0B10: 32 05 80 5B 6C 80 8B 02  05 01 8B 02 05 01 6D 74  2..[l.........mt
0B20: 62 30 2B 8B 02 05 01 7C  80 23 5B 6C 80 8B 02 05  b0+....|.#[l....
0B30: 01 8B 02 05 01 6D 74 62  31 1C 3D 80 52 16 80 F8  .....mtb1.=.R...
0B40: FF FF 7F F8 FF FF 7F 73  30 32 32 45 16 80 F8 FF  .......s022E....
0B50: FF 7F F8 FF FF 7F 73 30  37 35 05 80 5B 6C 80 8B  ......s075..[l..
0B60: 02 05 01 8B 02 05 01 6D  74 61 30 2B 8B 02 05 01  .......mta0+....
0B70: 7D 80 23 55 16 80 F8 FF  FF 7F F8 FF FF 7F 73 30  }.#U..........s0
0B80: 37 35 45 16 80 F8 FF FF  7F F8 FF FF 7F 73 30 32  75E..........s02
0B90: 33 05 80 5B 6D 80 92 02  05 01 92 02 05 01 6D 65  3..[m.........me
0BA0: 6D 31 5B 6E 80 93 02 05  01 93 02 05 01 6D 65 6D  m1[n.........mem
0BB0: 31 6E 94 02 05 01 7E 80  99 94 02 05 01 6E 95 02  1n....~......n..
0BC0: 05 01 7E 80 99 95 02 05  01 6E 96 02 05 01 7E 80  ..~......n....~.
0BD0: 99 96 02 05 01 48 7F 80  23 5B 6C 80 8B 02 05 01  .....H..#[l.....
0BE0: 8B 02 05 01 6D 74 61 31  5B 6D 80 92 02 05 01 92  ....mta1[m......
0BF0: 02 05 01 6D 65 6D 32 5B  6E 80 93 02 05 01 93 02  ...mem2[n.......
0C00: 05 01 6D 65 6D 32 52 16  80 F8 FF FF 7F F8 FF FF  ..mem2R.........
0C10: 7F 73 30 32 33 45 16 80  F8 FF FF 7F F8 FF FF 7F  .s023E..........
0C20: 73 30 32 36 05 80 5B 6E  80 93 02 05 01 93 02 05  s026..[n........
0C30: 01 6D 65 6D 31 2B 93 02  05 01 80 80 23 5B 6E 80  .mem1+......#[n.
0C40: 93 02 05 01 93 02 05 01  6D 65 6D 32 52 16 80 F8  ........mem2R...
0C50: FF FF 7F F8 FF FF 7F 73  30 32 36 5D 05 80 6F 80  .......s026]..o.
0C60: 45 16 80 F8 FF FF 7F F8  FF FF 7F 73 30 32 38 05  E..........s028.
0C70: 80 7B 93 02 05 01 1C 6B  80 2B 8B 02 05 01 81 80  .{.....k.+......
0C80: 23 2B 8B 02 05 01 82 80  23 55 16 80 F8 FF FF 7F  #+......#U......
0C90: F8 FF FF 7F 73 30 32 38  45 16 80 F8 FF FF 7F F8  ....s028E.......
0CA0: FF FF 7F 73 30 36 38 05  80 2B 8B 02 05 01 83 80  ...s068..+......
0CB0: 23 52 16 80 F8 FF FF 7F  F8 FF FF 7F 73 30 36 38  #R..........s068
0CC0: 45 16 80 F8 FF FF 7F F8  FF FF 7F 73 30 32 39 05  E..........s029.
0CD0: 80 5B 6C 80 8B 02 05 01  8B 02 05 01 6D 74 61 30  .[l.........mta0
0CE0: 2B 8B 02 05 01 84 80 23  55 16 80 F8 FF FF 7F F8  +......#U.......
0CF0: FF FF 7F 73 30 32 39 5D  85 80 6F 80 45 16 80 F8  ...s029]..o.E...
0D00: FF FF 7F F8 FF FF 7F 73  30 33 30 05 80 5B 6D 80  .......s030..[m.
0D10: 92 02 05 01 92 02 05 01  6D 65 6D 31 5B 6E 80 93  ........mem1[n..
0D20: 02 05 01 93 02 05 01 6D  65 6D 31 6E 94 02 05 01  .......mem1n....
0D30: 7E 80 99 94 02 05 01 6E  95 02 05 01 7E 80 99 95  ~......n....~...
0D40: 02 05 01 6E 96 02 05 01  7E 80 99 96 02 05 01 48  ...n....~......H
0D50: 86 80 23 5B 6D 80 92 02  05 01 92 02 05 01 6D 65  ..#[m.........me
0D60: 6D 32 5B 6E 80 93 02 05  01 93 02 05 01 6D 65 6D  m2[n.........mem
0D70: 32 6E 8C 02 05 01 7E 80  99 8C 02 05 01 99 8C 02  2n....~.........
0D80: 05 01 52 16 80 F8 FF FF  7F F8 FF FF 7F 73 30 33  ..R..........s03
0D90: 30 45 16 80 F8 FF FF 7F  F8 FF FF 7F 73 30 33 31  0E..........s031
0DA0: 05 80 5B 6C 80 8B 02 05  01 8B 02 05 01 6D 74 61  ..[l.........mta
0DB0: 31 BA 92 02 05 01 87 80  88 80 2B 80 89 80 BA 95  1.........+.....
0DC0: 02 05 01 8A 80 8B 80 2B  80 8C 80 BA F0 FF FF 7F  .......+........
0DD0: 8D 80 8E 80 05 80 8C 80  4A 8B 02 05 01 F0 FF FF  ........J.......
0DE0: 7F 4A 92 02 05 01 8B 02  05 01 4A 95 02 05 01 8B  .J........J.....
0DF0: 02 05 01 7B 8B 02 05 01  1C 45 80 52 16 80 F8 FF  ...{.....E.R....
0E00: FF 7F F8 FF FF 7F 73 30  33 31 5D 05 80 6F 80 45  ......s031]..o.E
0E10: 16 80 F8 FF FF 7F F8 FF  FF 7F 73 30 33 32 05 80  ..........s032..
0E20: 4E 01 94 02 05 01 4E 01  96 02 05 01 03 25 10 8F  N.....N......%..
0E30: 80 03 27 10 90 80 03 26  10 2B 80 03 28 10 91 80  ..'....&.+..(...
0E40: 29 0F F0 FF FF 7F 16 4A  F0 FF FF 7F 8B 02 05 01  )......J........
0E50: 52 16 80 F8 FF FF 7F F8  FF FF 7F 73 30 33 32 5C  R..........s032\
0E60: 00 92 80 5C 01 92 80 9A  45 16 80 F8 FF FF 7F F8  ...\....E.......
0E70: FF FF 7F 73 30 33 33 05  80 4E 01 8D 02 05 01 5B  ...s033..N.....[
0E80: 6C 80 8B 02 05 01 8B 02  05 01 6D 74 62 30 2B 8B  l.........mtb0+.
0E90: 02 05 01 93 80 23 2B 8B  02 05 01 94 80 23 5B 6C  .....#+......#[l
0EA0: 80 8B 02 05 01 8B 02 05  01 6D 74 62 31 52 16 80  .........mtb1R..
0EB0: F8 FF FF 7F F8 FF FF 7F  73 30 33 33 45 16 80 F8  ........s033E...
0EC0: FF FF 7F F8 FF FF 7F 73  30 33 34 05 80 6B 69 64  .......s034..kid
0ED0: 6C 30 8B 02 05 01 1C 38  80 4A 8B 02 05 01 8C 02  l0.....8.J......
0EE0: 05 01 7B 8B 02 05 01 6F  76 8B 02 05 01 5B 6C 80  ..{....ov....[l.
0EF0: 8B 02 05 01 8B 02 05 01  6D 73 64 6C 5B 95 80 8B  ........msdl[...
0F00: 02 05 01 8B 02 05 01 00  FE FE FE 03 25 10 96 80  ............%...
0F10: 03 27 10 97 80 03 26 10  2B 80 03 28 10 98 80 27  .'....&.+..(...'
0F20: 0F 8C 02 05 01 0E 4A 8C  02 05 01 8B 02 05 01 2A  ......J........*
0F30: 0F 8C 02 05 01 4A 8C 02  05 01 8B 02 05 01 7B 8C  .....J........{.
0F40: 02 05 01 6F 76 8C 02 05  01 1C 99 80 52 16 80 F8  ...ov.......R...
0F50: FF FF 7F F8 FF FF 7F 73  30 33 34 45 16 80 F8 FF  .......s034E....
0F60: FF 7F F8 FF FF 7F 73 30  33 35 05 80 BA 94 02 05  ......s035......
0F70: 01 9A 80 9B 80 2B 80 8C  80 BA 96 02 05 01 9C 80  .....+..........
0F80: 9D 80 2B 80 9E 80 4E 00  94 02 05 01 4E 00 96 02  ..+...N.....N...
0F90: 05 01 5B 95 80 8B 02 05  01 8B 02 05 01 62 74 69  ..[..........bti
0FA0: 30 9F 85 80 F8 FF FF 7F  F8 FF FF 7F 73 74 72 30  0...........str0
0FB0: 05 80 2B 8B 02 05 01 9F  80 23 5B 95 80 8B 02 05  ..+......#[.....
0FC0: 01 8B 02 05 01 62 74 69  31 9F 85 80 F8 FF FF 7F  .....bti1.......
0FD0: F8 FF FF 7F 6B 69 6C 6C  05 80 52 16 80 F8 FF FF  ....kill..R.....
0FE0: 7F F8 FF FF 7F 73 30 33  35 45 16 80 F8 FF FF 7F  .....s035E......
0FF0: F8 FF FF 7F 73 30 33 36  05 80 4E 00 8D 02 05 01  ....s036..N.....
1000: 6B 69 64 6C 30 8B 02 05  01 1C 38 80 4A 8B 02 05  kidl0.....8.J...
1010: 01 F0 FF FF 7F 6E 8C 02  05 01 A0 80 99 8C 02 05  .....n..........
1020: 01 4E 01 93 02 05 01 5B  6C 80 8B 02 05 01 8B 02  .N.....[l.......
1030: 05 01 6D 73 64 6C 2B 8C  02 05 01 A1 80 23 52 16  ..msdl+......#R.
1040: 80 F8 FF FF 7F F8 FF FF  7F 73 30 33 36 45 16 80  .........s036E..
1050: F8 FF FF 7F F8 FF FF 7F  73 30 33 38 05 80 03 25  ........s038...%
1060: 10 A2 80 03 27 10 A3 80  03 26 10 2B 80 03 28 10  ....'....&.+..(.
1070: A4 80 27 0F 8C 02 05 01  0E 2B 8B 02 05 01 A5 80  ..'......+......
1080: 23 55 16 80 F8 FF FF 7F  F8 FF FF 7F 73 30 33 38  #U..........s038
1090: 45 16 80 F8 FF FF 7F F8  FF FF 7F 73 30 33 39 05  E..........s039.
10A0: 80 4E 00 8E 02 05 01 4A  F0 FF FF 7F 8B 02 05 01  .N.....J........
10B0: 5B 6C 80 8B 02 05 01 8B  02 05 01 6D 74 68 30 2B  [l.........mth0+
10C0: 8B 02 05 01 A6 80 23 2B  8B 02 05 01 A7 80 23 5B  ......#+......#[
10D0: 6C 80 8B 02 05 01 8B 02  05 01 6D 74 68 31 52 16  l.........mth1R.
10E0: 80 F8 FF FF 7F F8 FF FF  7F 73 30 33 39 45 16 80  .........s039E..
10F0: F8 FF FF 7F F8 FF FF 7F  73 31 36 33 05 80 24 A8  ........s163..$.
1100: 80 05 80 05 80 25 02 00  10 05 80 00 1C 11 2B 8B  .....%........+.
1110: 02 05 01 A9 80 23 01 FE  10 01 1C 11 52 16 80 F8  .....#......R...
1120: FF FF 7F F8 FF FF 7F 73  31 36 33 45 16 80 F8 FF  .......s163E....
1130: FF 7F F8 FF FF 7F 73 30  34 30 05 80 5B 6C 80 8B  ......s040..[l..
1140: 02 05 01 8B 02 05 01 6D  74 62 30 29 10 F0 FF FF  .......mtb0)....
1150: 7F 1C 2B 8B 02 05 01 AA  80 23 2B 8B 02 05 01 AB  ..+......#+.....
1160: 80 23 5B 6C 80 8B 02 05  01 8B 02 05 01 6D 74 62  .#[l.........mtb
1170: 31 52 16 80 F8 FF FF 7F  F8 FF FF 7F 73 30 34 30  1R..........s040
1180: 45 16 80 F8 FF FF 7F F8  FF FF 7F 73 30 34 31 05  E..........s041.
1190: 80 2B 8B 02 05 01 AC 80  23 52 16 80 F8 FF FF 7F  .+......#R......
11A0: F8 FF FF 7F 73 30 34 31  45 16 80 F8 FF FF 7F F8  ....s041E.......
11B0: FF FF 7F 73 30 34 32 05  80 5B 95 80 8B 02 05 01  ...s042..[......
11C0: 8B 02 05 01 62 74 69 30  2B 8B 02 05 01 AD 80 23  ....bti0+......#
11D0: 55 16 80 F8 FF FF 7F F8  FF FF 7F 73 30 34 32 1A  U..........s042.
11E0: 03 79 1C 25 80 35 AE 80  78 1C 38 80 AB 0A 5B 95  .y.%.5..x.8...[.
11F0: 80 8B 02 05 01 8B 02 05  01 62 74 69 31 27 10 90  .........bti1'..
1200: 02 05 01 04 27 10 91 02  05 01 04 27 10 97 02 05  ....'......'....
1210: 01 04 27 10 98 02 05 01  04 27 10 99 02 05 01 04  ..'......'......
1220: 27 10 9A 02 05 01 04 27  10 9B 02 05 01 04 92 01  '......'........
1230: 90 02 05 01 92 01 91 02  05 01 92 01 97 02 05 01  ................
1240: 92 01 98 02 05 01 92 01  99 02 05 01 92 01 9A 02  ................
1250: 05 01 92 01 9B 02 05 01  4E 00 97 02 05 01 4E 00  ........N.....N.
1260: 98 02 05 01 4E 00 99 02  05 01 4E 00 9A 02 05 01  ....N.....N.....
1270: 4E 00 9B 02 05 01 4E 00  A5 02 05 01 4E 00 A6 02  N.....N.....N...
1280: 05 01 94 01 90 02 05 01  94 01 91 02 05 01 94 01  ................
1290: 97 02 05 01 94 01 98 02  05 01 94 01 99 02 05 01  ................
12A0: 94 01 9A 02 05 01 94 01  9B 02 05 01 BA F0 FF FF  ................
12B0: 7F AF 80 B0 80 05 80 B1  80 BA 8C 02 05 01 AF 80  ................
12C0: B0 80 05 80 B1 80 BA 90  02 05 01 B2 80 B3 80 54  ...............T
12D0: 80 B4 80 BA 91 02 05 01  05 80 05 80 05 80 05 80  ................
12E0: BA 97 02 05 01 B5 80 B6  80 54 80 B7 80 BA 98 02  .........T......
12F0: 05 01 B8 80 B9 80 54 80  BA 80 BA 99 02 05 01 BB  ......T.........
1300: 80 BC 80 54 80 BD 80 BA  9A 02 05 01 BE 80 BF 80  ...T............
1310: C0 80 BD 80 BA 9B 02 05  01 C1 80 C2 80 C3 80 BD  ................
1320: 80 BA A5 02 05 01 C4 80  C5 80 C0 80 C6 80 BA A6  ................
1330: 02 05 01 C7 80 C8 80 C9  80 51 80 80 90 02 05 01  .........Q......
1340: 80 91 02 05 01 80 97 02  05 01 80 98 02 05 01 80  ................
1350: 99 02 05 01 80 9A 02 05  01 80 9B 02 05 01 80 A5  ................
1360: 02 05 01 80 A6 02 05 01  4A 90 02 05 01 8C 02 05  ........J.......
1370: 01 4A 97 02 05 01 8C 02  05 01 4A 98 02 05 01 8C  .J........J.....
1380: 02 05 01 4A 99 02 05 01  8C 02 05 01 4A 9A 02 05  ...J........J...
1390: 01 8C 02 05 01 4A 9B 02  05 01 8C 02 05 01 4A A5  .....J........J.
13A0: 02 05 01 8C 02 05 01 4A  A6 02 05 01 8C 02 05 01  .......J........
13B0: 45 16 80 F8 FF FF 7F F8  FF FF 7F 73 30 34 33 05  E..........s043.
13C0: 80 45 17 80 F0 FF FF 7F  F0 FF FF 7F 66 64 69 32  .E..........fdi2
13D0: 05 80 03 25 10 CA 80 03  27 10 CB 80 03 26 10 54  ...%....'....&.T
13E0: 80 03 28 10 CC 80 27 0F  F0 FF FF 7F 16 1C 6B 80  ..(...'.......k.
13F0: 03 25 10 CD 80 03 27 10  CE 80 03 26 10 54 80 03  .%....'....&.T..
1400: 28 10 CF 80 29 0F 8C 02  05 01 0E 2A 0F F0 FF FF  (...)......*....
1410: 7F 4A F0 FF FF 7F 8C 02  05 01 4A 90 02 05 01 8C  .J........J.....
1420: 02 05 01 4A 97 02 05 01  8C 02 05 01 4A 98 02 05  ...J........J...
1430: 01 8C 02 05 01 4A 99 02  05 01 8C 02 05 01 4A 9A  .....J........J.
1440: 02 05 01 8C 02 05 01 4A  9B 02 05 01 8C 02 05 01  .......J........
1450: 55 16 80 F8 FF FF 7F F8  FF FF 7F 73 30 34 33 45  U..........s043E
1460: 16 80 F8 FF FF 7F F8 FF  FF 7F 73 30 34 34 05 80  ..........s044..
1470: 7B 90 02 05 01 6F 76 F0  FF FF 7F 66 30 80 97 02  {....ov....f0...
1480: 05 01 97 02 05 01 74 6C  6B 30 2B 97 02 05 01 D0  ......tlk0+.....
1490: 80 23 66 30 80 97 02 05  01 97 02 05 01 74 6C 6B  .#f0.........tlk
14A0: 31 52 16 80 F8 FF FF 7F  F8 FF FF 7F 73 30 34 34  1R..........s044
14B0: 45 16 80 F8 FF FF 7F F8  FF FF 7F 73 30 34 35 05  E..........s045.
14C0: 80 66 D1 80 90 02 05 01  90 02 05 01 74 6C 6B 30  .f..........tlk0
14D0: 2B 90 02 05 01 D2 80 23  66 D1 80 90 02 05 01 90  +......#f.......
14E0: 02 05 01 74 6C 6B 31 52  16 80 F8 FF FF 7F F8 FF  ...tlk1R........
14F0: FF 7F 73 30 34 35 45 16  80 F8 FF FF 7F F8 FF FF  ..s045E.........
1500: 7F 73 30 34 36 05 80 BA  91 02 05 01 D3 80 D4 80  .s046...........
1510: 54 80 BD 80 6E 8C 02 05  01 38 80 99 8C 02 05 01  T...n....8......
1520: 2B 8C 02 05 01 D5 80 23  52 16 80 F8 FF FF 7F F8  +......#R.......
1530: FF FF 7F 73 30 34 36 45  16 80 F8 FF FF 7F F8 FF  ...s046E........
1540: FF 7F 73 30 34 37 05 80  03 25 10 D6 80 03 27 10  ..s047...%....'.
1550: D7 80 03 26 10 54 80 03  28 10 D8 80 27 0F 91 02  ...&.T..(...'...
1560: 05 01 0A 2A 0F 91 02 05  01 4A 91 02 05 01 90 02  ...*.....J......
1570: 05 01 7B 91 02 05 01 6F  76 91 02 05 01 55 16 80  ..{....ov....U..
1580: F8 FF FF 7F F8 FF FF 7F  73 30 34 37 45 16 80 F8  ........s047E...
1590: FF FF 7F F8 FF FF 7F 73  30 35 35 05 80 6E 90 02  .......s055..n..
15A0: 05 01 D9 80 99 90 02 05  01 2B 90 02 05 01 DA 80  .........+......
15B0: 23 66 DB 80 91 02 05 01  91 02 05 01 74 6C 6B 30  #f..........tlk0
15C0: 2B 91 02 05 01 DC 80 23  66 DB 80 91 02 05 01 91  +......#f.......
15D0: 02 05 01 74 6C 6B 31 4A  90 02 05 01 91 02 05 01  ...tlk1J........
15E0: 7B 90 02 05 01 52 16 80  F8 FF FF 7F F8 FF FF 7F  {....R..........
15F0: 73 30 35 35 45 16 80 F8  FF FF 7F F8 FF FF 7F 73  s055E..........s
1600: 30 34 38 05 80 4A F0 FF  FF 7F 90 02 05 01 6F 76  048..J........ov
1610: 90 02 05 01 6E 90 02 05  01 A0 80 99 90 02 05 01  ....n...........
1620: 2B 90 02 05 01 DD 80 23  52 16 80 F8 FF FF 7F F8  +......#R.......
1630: FF FF 7F 73 30 34 38 45  16 80 F8 FF FF 7F F8 FF  ...s048E........
1640: FF 7F 73 30 34 39 05 80  03 25 10 DE 80 03 27 10  ..s049...%....'.
1650: DF 80 03 26 10 54 80 03  28 10 E0 80 29 0F 91 02  ...&.T..(...)...
1660: 05 01 0A 4A 91 02 05 01  90 02 05 01 66 DB 80 91  ...J........f...
1670: 02 05 01 91 02 05 01 74  6C 6B 30 2B 91 02 05 01  .......tlk0+....
1680: E1 80 23 66 DB 80 91 02  05 01 91 02 05 01 74 6C  ..#f..........tl
1690: 6B 31 52 16 80 F8 FF FF  7F F8 FF FF 7F 73 30 34  k1R..........s04
16A0: 39 45 16 80 F8 FF FF 7F  F8 FF FF 7F 73 30 35 30  9E..........s050
16B0: 05 80 6E 90 02 05 01 30  80 99 90 02 05 01 2B 90  ..n....0......+.
16C0: 02 05 01 E2 80 23 52 16  80 F8 FF FF 7F F8 FF FF  .....#R.........
16D0: 7F 73 30 35 30 45 16 80  F8 FF FF 7F F8 FF FF 7F  .s050E..........
16E0: 73 30 35 31 05 80 66 DB  80 91 02 05 01 91 02 05  s051..f.........
16F0: 01 74 6C 6B 30 2B 91 02  05 01 E3 80 23 66 DB 80  .tlk0+......#f..
1700: 91 02 05 01 91 02 05 01  74 6C 6B 31 52 16 80 F8  ........tlk1R...
1710: FF FF 7F F8 FF FF 7F 73  30 35 31 45 16 80 F8 FF  .......s051E....
1720: FF 7F F8 FF FF 7F 73 30  35 32 05 80 6E 90 02 05  ......s052..n...
1730: 01 A0 80 99 90 02 05 01  2B 90 02 05 01 E4 80 23  ........+......#
1740: 52 16 80 F8 FF FF 7F F8  FF FF 7F 73 30 35 32 45  R..........s052E
1750: 16 80 F8 FF FF 7F F8 FF  FF 7F 73 30 35 33 05 80  ..........s053..
1760: 6E 91 02 05 01 E5 80 99  91 02 05 01 2B 91 02 05  n...........+...
1770: 01 E6 80 23 2B 91 02 05  01 E7 80 23 52 16 80 F8  ...#+......#R...
1780: FF FF 7F F8 FF FF 7F 73  30 35 33 45 16 80 F8 FF  .......s053E....
1790: FF 7F F8 FF FF 7F 73 30  35 34 05 80 03 25 10 E8  ......s054...%..
17A0: 80 03 27 10 E9 80 03 26  10 C0 80 03 28 10 EA 80  ..'....&....(...
17B0: 27 0F 91 02 05 01 0A 6E  90 02 05 01 A0 80 99 90  '......n........
17C0: 02 05 01 2B 90 02 05 01  EB 80 23 2A 0F 91 02 05  ...+......#*....
17D0: 01 52 16 80 F8 FF FF 7F  F8 FF FF 7F 73 30 35 34  .R..........s054
17E0: 45 16 80 F8 FF FF 7F F8  FF FF 7F 73 30 36 39 05  E..........s069.
17F0: 80 03 25 10 E8 80 03 27  10 E9 80 03 26 10 C0 80  ..%....'....&...
1800: 03 28 10 EA 80 29 0F 90  02 05 01 09 4E 01 90 02  .(...)......N...
1810: 05 01 4E 01 91 02 05 01  55 16 80 F8 FF FF 7F F8  ..N.....U.......
1820: FF FF 7F 73 30 36 39 1A  03 79 1C 25 80 5C 00 EC  ...s069..y.%.\..
1830: 80 5C 01 EC 80 9A 46 00  45 17 80 F0 FF FF 7F F0  .\....F.E.......
1840: FF FF 7F 66 64 69 32 05  80 21 00                 ...fdi2..!.     
```

#### Opcodes

```
  0: 0x063A [0x42] SET_CLI_EVENT_CANCEL_DATA()
  1: 0x063B [0x1A] CALL_SUBROUTINE(address=0x7903)
  2: 0x063E [0x46] CAMERA_CONTROL: Disable user control
  3: 0x0640 [0x38] SET_CLIENT_EVENT_MODE(mode=19*)
  4: 0x0643 [0x34] LOAD_UNLOAD_ZONE(zone_id=230*)
  5: 0x0646 [0x77] SET_EVENT_TIME_WEATHER(hour=255*, weather=1*)
  6: 0x064B [0x1C] WAIT(30* ticks)
  7: 0x064E [0xAB] EventEntity->UnknownFlag = 1 // Enable unknown flag
  8: 0x0650 [0x75] LOAD_ROOM(Load indoor room, room=329*)
  9: 0x0654 [0x75] LOAD_ROOM(No action)
 10: 0x0656 [0x27] REQ_SET(priority=0x10, entity_id=Mayakov (ID: 17105547/0x0105028B), tag_num=0x04)
 11: 0x065D [0x27] REQ_SET(priority=0x10, entity_id=Gindaff (ID: 17105548/0x0105028C), tag_num=0x04)
 12: 0x0664 [0x27] REQ_SET(priority=0x10, entity_id=Melderphaux (ID: 17105554/0x01050292), tag_num=0x04)
 13: 0x066B [0x27] REQ_SET(priority=0x10, entity_id=Viridiana (ID: 17105555/0x01050293), tag_num=0x04)
 14: 0x0672 [0x92] Mayakov (ID: 17105547/0x0105028B)->Render.Flags3 ^= 0x01
 15: 0x0678 [0x92] Gindaff (ID: 17105548/0x0105028C)->Render.Flags3 ^= 0x01
 16: 0x067E [0x92] Melderphaux (ID: 17105554/0x01050292)->Render.Flags3 ^= 0x01
 17: 0x0684 [0x92] Viridiana (ID: 17105555/0x01050293)->Render.Flags3 ^= 0x01
 18: 0x068A [0x92] Unnamed NPC (ID: 17105556/0x01050294)->Render.Flags3 ^= 0x01
 19: 0x0690 [0x92] Unnamed NPC (ID: 17105557/0x01050295)->Render.Flags3 ^= 0x01
 20: 0x0696 [0x92] Unnamed NPC (ID: 17105558/0x01050296)->Render.Flags3 ^= 0x01
 21: 0x069C [0x92] 1 (ID: 17105573/0x010502A5)->Render.Flags3 ^= 0x01
 22: 0x06A2 [0x92] 2 (ID: 17105574/0x010502A6)->Render.Flags3 ^= 0x01
 23: 0x06A8 [0x92] Unnamed NPC (ID: 17105549/0x0105028D)->Render.Flags3 ^= 0x01
 24: 0x06AE [0x92] Unnamed NPC (ID: 17105550/0x0105028E)->Render.Flags3 ^= 0x01
 25: 0x06B4 [0x92] Unnamed NPC (ID: 17105551/0x0105028F)->Render.Flags3 ^= 0x01
 26: 0x06BA [0x92] Phillarceaux (ID: 17105559/0x01050297)->Render.Flags3 ^= 0x01
 27: 0x06C0 [0x92] Unnamed NPC (ID: 17105560/0x01050298)->Render.Flags3 ^= 0x01
 28: 0x06C6 [0x92] Unnamed NPC (ID: 17105561/0x01050299)->Render.Flags3 ^= 0x01
 29: 0x06CC [0x92] Unnamed NPC (ID: 17105562/0x0105029A)->Render.Flags3 ^= 0x01
 30: 0x06D2 [0x92] Unnamed NPC (ID: 17105563/0x0105029B)->Render.Flags3 ^= 0x01
 31: 0x06D8 [0x94] LocalPlayer->Render.Flags3 ^= 0x01
 32: 0x06DE [0x94] Mayakov (ID: 17105547/0x0105028B)->Render.Flags3 ^= 0x01
 33: 0x06E4 [0x94] Gindaff (ID: 17105548/0x0105028C)->Render.Flags3 ^= 0x01
 34: 0x06EA [0x94] Melderphaux (ID: 17105554/0x01050292)->Render.Flags3 ^= 0x01
 35: 0x06F0 [0x94] Viridiana (ID: 17105555/0x01050293)->Render.Flags3 ^= 0x01
 36: 0x06F6 [0x94] Unnamed NPC (ID: 17105556/0x01050294)->Render.Flags3 ^= 0x01
 37: 0x06FC [0x94] Unnamed NPC (ID: 17105557/0x01050295)->Render.Flags3 ^= 0x01
 38: 0x0702 [0x94] Unnamed NPC (ID: 17105558/0x01050296)->Render.Flags3 ^= 0x01
 39: 0x0708 [0x94] Phillarceaux (ID: 17105559/0x01050297)->Render.Flags3 ^= 0x01
 40: 0x070E [0x94] Unnamed NPC (ID: 17105560/0x01050298)->Render.Flags3 ^= 0x01
 41: 0x0714 [0x94] Unnamed NPC (ID: 17105561/0x01050299)->Render.Flags3 ^= 0x01
 42: 0x071A [0x94] Unnamed NPC (ID: 17105562/0x0105029A)->Render.Flags3 ^= 0x01
 43: 0x0720 [0x94] Unnamed NPC (ID: 17105563/0x0105029B)->Render.Flags3 ^= 0x01
 44: 0x0726 [0x94] 1 (ID: 17105573/0x010502A5)->Render.Flags3 ^= 0x01
 45: 0x072C [0x94] 2 (ID: 17105574/0x010502A6)->Render.Flags3 ^= 0x01
 46: 0x0732 [0x94] Unnamed NPC (ID: 17105549/0x0105028D)->Render.Flags3 ^= 0x01
 47: 0x0738 [0x94] Unnamed NPC (ID: 17105550/0x0105028E)->Render.Flags3 ^= 0x01
 48: 0x073E [0x94] Unnamed NPC (ID: 17105551/0x0105028F)->Render.Flags3 ^= 0x01
 49: 0x0744 [0x4E] SET_ENTITY_HIDE_FLAG: Show LocalPlayer
 50: 0x074A [0x4E] SET_ENTITY_HIDE_FLAG: Show Mayakov (ID: 17105547/0x0105028B)
 51: 0x0750 [0x4E] SET_ENTITY_HIDE_FLAG: Show Gindaff (ID: 17105548/0x0105028C)
 52: 0x0756 [0x4E] SET_ENTITY_HIDE_FLAG: Show Melderphaux (ID: 17105554/0x01050292)
 53: 0x075C [0x4E] SET_ENTITY_HIDE_FLAG: Show Viridiana (ID: 17105555/0x01050293)
 54: 0x0762 [0x4E] SET_ENTITY_HIDE_FLAG: Show Unnamed NPC (ID: 17105556/0x01050294)
 55: 0x0768 [0x4E] SET_ENTITY_HIDE_FLAG: Show Unnamed NPC (ID: 17105557/0x01050295)
 56: 0x076E [0x4E] SET_ENTITY_HIDE_FLAG: Show Unnamed NPC (ID: 17105558/0x01050296)
 57: 0x0774 [0x4E] SET_ENTITY_HIDE_FLAG: Show Unnamed NPC (ID: 17105549/0x0105028D)
 58: 0x077A [0x4E] SET_ENTITY_HIDE_FLAG: Show Unnamed NPC (ID: 17105550/0x0105028E)
 59: 0x0780 [0x4E] SET_ENTITY_HIDE_FLAG: Show Unnamed NPC (ID: 17105551/0x0105028F)
 60: 0x0786 [0xBA] SET_ENTITY_POSITION(entity_id=Mayakov (ID: 17105547/0x0105028B), pos_x=86.210*, pos_z=117.584*, pos_y=1.000*, direction=2.4°*)
 61: 0x0793 [0xBA] SET_ENTITY_POSITION(entity_id=Gindaff (ID: 17105548/0x0105028C), pos_x=87.425*, pos_z=120.890*, pos_y=1.000*, direction=102.7°*)
 62: 0x07A0 [0xBA] SET_ENTITY_POSITION(entity_id=Melderphaux (ID: 17105554/0x01050292), pos_x=87.632*, pos_z=116.058*, pos_y=1.000*, direction=224.4°*)
 63: 0x07AD [0xBA] SET_ENTITY_POSITION(entity_id=Viridiana (ID: 17105555/0x01050293), pos_x=88.773*, pos_z=117.350*, pos_y=0.999*, direction=186.5°*)
 64: 0x07BA [0xBA] SET_ENTITY_POSITION(entity_id=Unnamed NPC (ID: 17105556/0x01050294), pos_x=88.752*, pos_z=118.323*, pos_y=1.000*, direction=150.2°*)
 65: 0x07C7 [0xBA] SET_ENTITY_POSITION(entity_id=Unnamed NPC (ID: 17105557/0x01050295), pos_x=88.649*, pos_z=116.527*, pos_y=1.000*, direction=224.6°*)
 66: 0x07D4 [0xBA] SET_ENTITY_POSITION(entity_id=Unnamed NPC (ID: 17105558/0x01050296), pos_x=88.017*, pos_z=118.790*, pos_y=1.000*, direction=168.9°*)
 67: 0x07E1 [0xBA] SET_ENTITY_POSITION(entity_id=Phillarceaux (ID: 17105559/0x01050297), pos_x=0.000*, pos_z=0.000*, pos_y=0.000*, direction=0.0°*)
 68: 0x07EE [0xBA] SET_ENTITY_POSITION(entity_id=Unnamed NPC (ID: 17105560/0x01050298), pos_x=0.000*, pos_z=0.000*, pos_y=0.000*, direction=0.0°*)
 69: 0x07FB [0xBA] SET_ENTITY_POSITION(entity_id=Unnamed NPC (ID: 17105561/0x01050299), pos_x=0.000*, pos_z=0.000*, pos_y=0.000*, direction=0.0°*)
 70: 0x0808 [0xBA] SET_ENTITY_POSITION(entity_id=Unnamed NPC (ID: 17105562/0x0105029A), pos_x=0.000*, pos_z=0.000*, pos_y=0.000*, direction=0.0°*)
 71: 0x0815 [0xBA] SET_ENTITY_POSITION(entity_id=Unnamed NPC (ID: 17105563/0x0105029B), pos_x=0.000*, pos_z=0.000*, pos_y=0.000*, direction=0.0°*)
 72: 0x0822 [0xBA] SET_ENTITY_POSITION(entity_id=1 (ID: 17105573/0x010502A5), pos_x=0.000*, pos_z=0.000*, pos_y=0.000*, direction=0.0°*)
 73: 0x082F [0xBA] SET_ENTITY_POSITION(entity_id=2 (ID: 17105574/0x010502A6), pos_x=0.000*, pos_z=0.000*, pos_y=0.000*, direction=0.0°*)
 74: 0x083C [0xBA] SET_ENTITY_POSITION(entity_id=Unnamed NPC (ID: 17105549/0x0105028D), pos_x=84.565*, pos_z=116.575*, pos_y=1.000*, direction=3.0°*)
 75: 0x0849 [0xBA] SET_ENTITY_POSITION(entity_id=Unnamed NPC (ID: 17105550/0x0105028E), pos_x=89.723*, pos_z=120.191*, pos_y=1.000*, direction=129.4°*)
 76: 0x0856 [0xBA] SET_ENTITY_POSITION(entity_id=Unnamed NPC (ID: 17105551/0x0105028F), pos_x=83.819*, pos_z=114.278*, pos_y=1.000*, direction=318.5°*)
 77: 0x0863 [0xBA] SET_ENTITY_POSITION(entity_id=LocalPlayer, pos_x=95.650*, pos_z=108.422*, pos_y=0.000*, direction=212.2°*)
 78: 0x0870 [0x80] LOAD_WAIT(entity=LocalPlayer)
 79: 0x0875 [0x80] LOAD_WAIT(entity=Mayakov (ID: 17105547/0x0105028B))
 80: 0x087A [0x80] LOAD_WAIT(entity=Gindaff (ID: 17105548/0x0105028C))
 81: 0x087F [0x80] LOAD_WAIT(entity=Melderphaux (ID: 17105554/0x01050292))
 82: 0x0884 [0x80] LOAD_WAIT(entity=Viridiana (ID: 17105555/0x01050293))
 83: 0x0889 [0x80] LOAD_WAIT(entity=Unnamed NPC (ID: 17105556/0x01050294))
 84: 0x088E [0x80] LOAD_WAIT(entity=Unnamed NPC (ID: 17105557/0x01050295))
 85: 0x0893 [0x80] LOAD_WAIT(entity=Unnamed NPC (ID: 17105558/0x01050296))
 86: 0x0898 [0x80] LOAD_WAIT(entity=Phillarceaux (ID: 17105559/0x01050297))
 87: 0x089D [0x80] LOAD_WAIT(entity=Unnamed NPC (ID: 17105560/0x01050298))
 88: 0x08A2 [0x80] LOAD_WAIT(entity=Unnamed NPC (ID: 17105561/0x01050299))
 89: 0x08A7 [0x80] LOAD_WAIT(entity=Unnamed NPC (ID: 17105562/0x0105029A))
 90: 0x08AC [0x80] LOAD_WAIT(entity=Unnamed NPC (ID: 17105563/0x0105029B))
 91: 0x08B1 [0x80] LOAD_WAIT(entity=1 (ID: 17105573/0x010502A5))
 92: 0x08B6 [0x80] LOAD_WAIT(entity=2 (ID: 17105574/0x010502A6))
 93: 0x08BB [0x80] LOAD_WAIT(entity=Unnamed NPC (ID: 17105549/0x0105028D))
 94: 0x08C0 [0x80] LOAD_WAIT(entity=Unnamed NPC (ID: 17105550/0x0105028E))
 95: 0x08C5 [0x80] LOAD_WAIT(entity=Unnamed NPC (ID: 17105551/0x0105028F))
 96: 0x08CA [0x4A] Melderphaux (ID: 17105554/0x01050292) looks at Mayakov (ID: 17105547/0x0105028B)
 97: 0x08D3 [0x4A] Viridiana (ID: 17105555/0x01050293) looks at Mayakov (ID: 17105547/0x0105028B)
 98: 0x08DC [0x4A] Unnamed NPC (ID: 17105556/0x01050294) looks at Mayakov (ID: 17105547/0x0105028B)
 99: 0x08E5 [0x4A] Unnamed NPC (ID: 17105557/0x01050295) looks at Mayakov (ID: 17105547/0x0105028B)
100: 0x08EE [0x4A] Unnamed NPC (ID: 17105558/0x01050296) looks at Mayakov (ID: 17105547/0x0105028B)
101: 0x08F7 [0x1C] WAIT(60* ticks)
102: 0x08FA [0x5B] LOAD_EXT_SCHEDULER: Load scheduler "msdl" with entities [Mayakov (ID: 17105547/0x0105028B), Mayakov (ID: 17105547/0x0105028B)], work=2173*
103: 0x0909 [0x5B] LOAD_EXT_SCHEDULER: Load scheduler "mem0" with entities [Melderphaux (ID: 17105554/0x01050292), Melderphaux (ID: 17105554/0x01050292)], work=2250*
104: 0x0918 [0x5B] LOAD_EXT_SCHEDULER: Load scheduler "mem0" with entities [Viridiana (ID: 17105555/0x01050293), Viridiana (ID: 17105555/0x01050293)], work=2234*
105: 0x0927 [0x1C] WAIT(1* ticks)
106: 0x092A [0x5D] SET_MUSIC_VOLUME(volume=0*, fade_time=240*)
107: 0x092F [0x7B] Melderphaux (ID: 17105554/0x01050292) stops talking
108: 0x0934 [0x7B] Viridiana (ID: 17105555/0x01050293) stops talking
109: 0x0939 [0x45] LOAD_SCHEDULED_TASK: Load scheduler "s016" with entities [EventEntity, EventEntity], work=[359*, 0*]
110: 0x094A [0x45] LOAD_SCHEDULED_TASK: Load scheduler "fdi2" with entities [LocalPlayer, LocalPlayer], work=[200*, 0*]
111: 0x095B [0x03] Work_Zone[37] = 91926*
112: 0x0960 [0x03] Work_Zone[39] = 112052*
113: 0x0965 [0x03] Work_Zone[38] = 0*
114: 0x096A [0x03] Work_Zone[40] = 2414*
115: 0x096F [0x29] REQ_SET_WAIT(priority=0x0F, entity_id=LocalPlayer, tag_num=0x16)
116: 0x0976 [0x1C] WAIT(60* ticks)
117: 0x0979 [0x55] WAIT_LOAD_SCHEDULER: Wait for scheduler "s016" with entities [EventEntity, EventEntity], work=359*
118: 0x0988 [0x45] LOAD_SCHEDULED_TASK: Load scheduler "s162" with entities [EventEntity, EventEntity], work=[359*, 0*]
119: 0x0999 [0x5B] LOAD_EXT_SCHEDULER: Load scheduler "mem1" with entities [Melderphaux (ID: 17105554/0x01050292), Melderphaux (ID: 17105554/0x01050292)], work=2250*
120: 0x09A8 [0x2B] Melderphaux (ID: 17105554/0x01050292) [13414*]:
    → "Mr. Mayakov, let me first of all thank you for taking the time to speak with us here today. We know that you are a busy man."
121: 0x09AF [0x23] WAIT_FOR_DIALOG_INTERACTION
122: 0x09B0 [0x2B] Melderphaux (ID: 17105554/0x01050292) [13415*]:
    → "Now please, sir, if you would, share with us what you consider to be the highlight of this, your latest show."
123: 0x09B7 [0x23] WAIT_FOR_DIALOG_INTERACTION
124: 0x09B8 [0x5B] LOAD_EXT_SCHEDULER: Load scheduler "mem2" with entities [Melderphaux (ID: 17105554/0x01050292), Melderphaux (ID: 17105554/0x01050292)], work=2250*
125: 0x09C7 [0x52] END_LOAD_SCHEDULER: End scheduler "s162" with entities [EventEntity, EventEntity], work=359*
126: 0x09D6 [0x5C] MUSIC_CONTROL: Set Idle (Day) music to song 153*
127: 0x09DA [0x5C] MUSIC_CONTROL: Set Idle (Night) music to song 153*
128: 0x09DE [0x9A] WAIT_MUSIC_SERVER()
129: 0x09DF [0x45] LOAD_SCHEDULED_TASK: Load scheduler "s017" with entities [EventEntity, EventEntity], work=[359*, 0*]
130: 0x09F0 [0x2B] Mayakov (ID: 17105547/0x0105028B) [13416*]:
    → "It would be my pleathure. Ath I'm thure you all know by now, my Troupe Mayakov only incorporateth the motht beautiful and dathling of elementth into ith danth."
131: 0x09F7 [0x23] WAIT_FOR_DIALOG_INTERACTION
132: 0x09F8 [0x52] END_LOAD_SCHEDULER: End scheduler "s017" with entities [EventEntity, EventEntity], work=359*
133: 0x0A07 [0x45] LOAD_SCHEDULED_TASK: Load scheduler "s019" with entities [EventEntity, EventEntity], work=[359*, 0*]
134: 0x0A18 [0x2B] Mayakov (ID: 17105547/0x0105028B) [13417*]:
    → "However, it hath come to my attention ath of late, that we have reached the abtholute pinnacle of vithible aeththetic beauty."
135: 0x0A1F [0x23] WAIT_FOR_DIALOG_INTERACTION
136: 0x0A20 [0x55] WAIT_LOAD_SCHEDULER: Wait for scheduler "s019" with entities [EventEntity, EventEntity], work=359*
137: 0x0A2F [0x45] LOAD_SCHEDULED_TASK: Load scheduler "s018" with entities [EventEntity, EventEntity], work=[359*, 0*]
138: 0x0A40 [0x1C] WAIT(60* ticks)
139: 0x0A43 [0x7C] Melderphaux (ID: 17105554/0x01050292)->Render.Flags2 |= 0x00
140: 0x0A49 [0x2B] Melderphaux (ID: 17105554/0x01050292) [13418*]:
    → "Well, errr... That's..."
141: 0x0A50 [0x23] WAIT_FOR_DIALOG_INTERACTION
142: 0x0A51 [0x7C] Melderphaux (ID: 17105554/0x01050292)->Render.Flags2 |= 0x01
143: 0x0A57 [0x55] WAIT_LOAD_SCHEDULER: Wait for scheduler "s018" with entities [EventEntity, EventEntity], work=359*
144: 0x0A66 [0x45] LOAD_SCHEDULED_TASK: Load scheduler "s020" with entities [EventEntity, EventEntity], work=[359*, 0*]
145: 0x0A77 [0x5B] LOAD_EXT_SCHEDULER: Load scheduler "mth0" with entities [Mayakov (ID: 17105547/0x0105028B), Mayakov (ID: 17105547/0x0105028B)], work=2173*
146: 0x0A86 [0x2B] Mayakov (ID: 17105547/0x0105028B) [13419*]:
    → "And tho one reathon I have come here today ith to make it known that thome time ago I made it our troupe philothophy to theek out new horithonth and new challengeth. To be true vanguardth of our art."
147: 0x0A8D [0x23] WAIT_FOR_DIALOG_INTERACTION
148: 0x0A8E [0x2B] Mayakov (ID: 17105547/0x0105028B) [13420*]:
    → "And guided by that philothophy, I have dithcovered a new theme for our danthe. A new realm to throw ourthelveth into. A new moduth operandi by which to move and bring delight to our audienth. "Dreamth"!"
149: 0x0A95 [0x23] WAIT_FOR_DIALOG_INTERACTION
150: 0x0A96 [0x5B] LOAD_EXT_SCHEDULER: Load scheduler "mth1" with entities [Mayakov (ID: 17105547/0x0105028B), Mayakov (ID: 17105547/0x0105028B)], work=2173*
151: 0x0AA5 [0x2B] Mayakov (ID: 17105547/0x0105028B) [13421*]:
    → "Through our danthe and our art, we hope to bring dreamth to everyone in their troubled timeth."
152: 0x0AAC [0x23] WAIT_FOR_DIALOG_INTERACTION
153: 0x0AAD [0x52] END_LOAD_SCHEDULER: End scheduler "s020" with entities [EventEntity, EventEntity], work=359*
154: 0x0ABC [0x45] LOAD_SCHEDULED_TASK: Load scheduler "s024" with entities [EventEntity, EventEntity], work=[359*, 0*]
155: 0x0ACD [0x5B] LOAD_EXT_SCHEDULER: Load scheduler "mem1" with entities [Melderphaux (ID: 17105554/0x01050292), Melderphaux (ID: 17105554/0x01050292)], work=2250*
156: 0x0ADC [0x2B] Melderphaux (ID: 17105554/0x01050292) [13422*]:
    → "That is a most intriguing concept, Mr. Mayakov. And, may I say, a theme most befitting a dance troupe as beautiful and as glamorous as Troupe Mayakov."
157: 0x0AE3 [0x23] WAIT_FOR_DIALOG_INTERACTION
158: 0x0AE4 [0x5B] LOAD_EXT_SCHEDULER: Load scheduler "mem2" with entities [Melderphaux (ID: 17105554/0x01050292), Melderphaux (ID: 17105554/0x01050292)], work=2250*
159: 0x0AF3 [0x52] END_LOAD_SCHEDULER: End scheduler "s024" with entities [EventEntity, EventEntity], work=359*
160: 0x0B02 [0x45] LOAD_SCHEDULED_TASK: Load scheduler "s022" with entities [EventEntity, EventEntity], work=[359*, 0*]
161: 0x0B13 [0x5B] LOAD_EXT_SCHEDULER: Load scheduler "mtb0" with entities [Mayakov (ID: 17105547/0x0105028B), Mayakov (ID: 17105547/0x0105028B)], work=2173*
162: 0x0B22 [0x2B] Mayakov (ID: 17105547/0x0105028B) [13423*]:
    → "The majethtic drawing of the curtain! The dathling thine of the thpotlight! And then! The unparalleled beauty and grathe of my danthing angelth!"
163: 0x0B29 [0x23] WAIT_FOR_DIALOG_INTERACTION
164: 0x0B2A [0x5B] LOAD_EXT_SCHEDULER: Load scheduler "mtb1" with entities [Mayakov (ID: 17105547/0x0105028B), Mayakov (ID: 17105547/0x0105028B)], work=2173*
165: 0x0B39 [0x1C] WAIT(45* ticks)
166: 0x0B3C [0x52] END_LOAD_SCHEDULER: End scheduler "s022" with entities [EventEntity, EventEntity], work=359*
167: 0x0B4B [0x45] LOAD_SCHEDULED_TASK: Load scheduler "s075" with entities [EventEntity, EventEntity], work=[359*, 0*]
168: 0x0B5C [0x5B] LOAD_EXT_SCHEDULER: Load scheduler "mta0" with entities [Mayakov (ID: 17105547/0x0105028B), Mayakov (ID: 17105547/0x0105028B)], work=2173*
169: 0x0B6B [0x2B] Mayakov (ID: 17105547/0x0105028B) [13424*]:
    → "The flying of thweat off of pathion-driven browth! The hypnotic clicking of heelth on the hard, polithed, wooden thtage! I promithe to thend our audienthe home with an evening of rapture they will not thoon forget!"
170: 0x0B72 [0x23] WAIT_FOR_DIALOG_INTERACTION
171: 0x0B73 [0x55] WAIT_LOAD_SCHEDULER: Wait for scheduler "s075" with entities [EventEntity, EventEntity], work=359*
