# 17105383 - Mainchelite

## Common Data

| Field            | Value                            |
|------------------|----------------------------------|
| Zone             | Southern San d'Oria [S] (ID: 80) |
| Block Size       | 10856 bytes                      |
| Total Events     | 25                               |
| References Count | 123                              |

## List of Events

| Event ID                 | Entrypoint   |   Size |   Instructions |
|--------------------------|--------------|--------|----------------|
| [65535](#event-65535)    | 0x0000       |      1 |              1 |
| [65535.1](#event-655351) | 0x0001       |      1 |              1 |
| [65535.2](#event-655352) | 0x0002       |     18 |              4 |
| [65535.3](#event-655353) | 0x0014       |     10 |              2 |
| [65535.4](#event-655354) | 0x001E       |      9 |              3 |
| [65535.5](#event-655355) | 0x0027       |      9 |              3 |
| [65535.6](#event-655356) | 0x0030       |     10 |              2 |
| [65535.7](#event-655357) | 0x003A       |     10 |              2 |
| [171](#event-171)        | 0x0044       |      1 |              1 |
| [172](#event-172)        | 0x0045       |      1 |              1 |
| [173](#event-173)        | 0x0046       |     55 |             11 |
| [5](#event-5)            | 0x007D       |     47 |              9 |
| [623](#event-623)        | 0x00AC       |     47 |              9 |
| [6](#event-6)            | 0x00DB       |     55 |             11 |
| [7](#event-7)            | 0x0112       |   1391 |            169 |
| [8](#event-8)            | 0x0681       |    723 |             92 |
| [9](#event-9)            | 0x0954       |     55 |             11 |
| [10](#event-10)          | 0x098B       |    572 |             81 |
| [11](#event-11)          | 0x0BC7       |    578 |             79 |
| [12](#event-12)          | 0x0E09       |   2999 |            349 |
| [624](#event-624)        | 0x19C0       |   2956 |            344 |
| [13](#event-13)          | 0x254C       |    285 |             43 |
| [14](#event-14)          | 0x2669       |    285 |             43 |
| [15](#event-15)          | 0x2786       |    126 |             18 |
| [165](#event-165)        | 0x2804       |      1 |              1 |

## DAT References (imed_data)

|   Index | Hex Value   |   Dec Value |
|---------|-------------|-------------|
|       0 | 0x0000      |           0 |
|       1 | 0x0001      |           1 |
|       2 | 0x0080      |         128 |
|       3 | 0x001D      |          29 |
|       4 | 0x389A      |       14490 |
|       5 | 0x3899      |       14489 |
|       6 | 0x2B11      |       11025 |
|       7 | 0x2B5D      |       11101 |
|       8 | 0x2B12      |       11026 |
|       9 | 0x2B10      |       11024 |
|      10 | 0x0013      |          19 |
|      11 | 0xFFFFC3CC  |  4294951884 |
|      12 | 0xFFFF9155  |  4294938965 |
|      13 | 0x06A3      |        1699 |
|      14 | 0x0410      |        1040 |
|      15 | 0xFFFF9855  |  4294940757 |
|      16 | 0xFFFF8AE4  |  4294937316 |
|      17 | 0x07CF      |        1999 |
|      18 | 0x02A5      |         677 |
|      19 | 0xFFFF942B  |  4294939691 |
|      20 | 0xFFFF8609  |  4294936073 |
|      21 | 0x0E6E      |        3694 |
|      22 | 0xFFFF9AB6  |  4294941366 |
|      23 | 0xFFFF7FFE  |  4294934526 |
|      24 | 0x0BC6      |        3014 |
|      25 | 0x0163      |         355 |
|      26 | 0x00C8      |         200 |
|      27 | 0x2B18      |       11032 |
|      28 | 0x2B19      |       11033 |
|      29 | 0x2B1A      |       11034 |
|      30 | 0x2B1B      |       11035 |
|      31 | 0x2B1C      |       11036 |
|      32 | 0x2B1D      |       11037 |
|      33 | 0x0160      |         352 |
|      34 | 0x0002      |           2 |
|      35 | 0x2B1E      |       11038 |
|      36 | 0x2B1F      |       11039 |
|      37 | 0x2B20      |       11040 |
|      38 | 0x2B21      |       11041 |
|      39 | 0x0027      |          39 |
|      40 | 0x2B22      |       11042 |
|      41 | 0x2B23      |       11043 |
|      42 | 0x2B24      |       11044 |
|      43 | 0x001A      |          26 |
|      44 | 0x2B25      |       11045 |
|      45 | 0x0019      |          25 |
|      46 | 0x2B26      |       11046 |
|      47 | 0x2B27      |       11047 |
|      48 | 0x2B28      |       11048 |
|      49 | 0x2B29      |       11049 |
|      50 | 0x2B2A      |       11050 |
|      51 | 0x2B2B      |       11051 |
|      52 | 0x2B33      |       11059 |
|      53 | 0x2B35      |       11061 |
|      54 | 0x2B36      |       11062 |
|      55 | 0x2B37      |       11063 |
|      56 | 0x2B38      |       11064 |
|      57 | 0x2B14      |       11028 |
|      58 | 0x2B15      |       11029 |
|      59 | 0x2B16      |       11030 |
|      60 | 0x2B17      |       11031 |
|      61 | 0xFFFFADE2  |  4294946274 |
|      62 | 0xFFFF87BA  |  4294936506 |
|      63 | 0x00C9      |         201 |
|      64 | 0xFFFFAC34  |  4294945844 |
|      65 | 0xFFFF8C2B  |  4294937643 |
|      66 | 0x0FEF      |        4079 |
|      67 | 0xFFFFD1C1  |  4294955457 |
|      68 | 0xFFFF8EFD  |  4294938365 |
|      69 | 0x0576      |        1398 |
|      70 | 0x07B2      |        1970 |
|      71 | 0x2B3A      |       11066 |
|      72 | 0x003C      |          60 |
|      73 | 0x03B6      |         950 |
|      74 | 0x2B3B      |       11067 |
|      75 | 0x03B7      |         951 |
|      76 | 0x2B3C      |       11068 |
|      77 | 0x03B8      |         952 |
|      78 | 0x2B3D      |       11069 |
|      79 | 0x2B3E      |       11070 |
|      80 | 0x0009      |           9 |
|      81 | 0x2B3F      |       11071 |
|      82 | 0x07DD      |        2013 |
|      83 | 0x2B40      |       11072 |
|      84 | 0x2B41      |       11073 |
|      85 | 0x2B42      |       11074 |
|      86 | 0x2B43      |       11075 |
|      87 | 0x2B44      |       11076 |
|      88 | 0x2B45      |       11077 |
|      89 | 0x2B46      |       11078 |
|      90 | 0x2B47      |       11079 |
|      91 | 0x2B48      |       11080 |
|      92 | 0x2B49      |       11081 |
|      93 | 0x2B4A      |       11082 |
|      94 | 0x2B4B      |       11083 |
|      95 | 0x2B4C      |       11084 |
|      96 | 0x2B4D      |       11085 |
|      97 | 0x2B4E      |       11086 |
|      98 | 0x2B4F      |       11087 |
|      99 | 0x2B50      |       11088 |
|     100 | 0x2B51      |       11089 |
|     101 | 0x2B52      |       11090 |
|     102 | 0x00F0      |         240 |
|     103 | 0x2B53      |       11091 |
|     104 | 0x2B54      |       11092 |
|     105 | 0x2B55      |       11093 |
|     106 | 0x2B56      |       11094 |
|     107 | 0x2B57      |       11095 |
|     108 | 0x2B58      |       11096 |
|     109 | 0x2B59      |       11097 |
|     110 | 0x2B5A      |       11098 |
|     111 | 0x039C      |         924 |
|     112 | 0x2B5B      |       11099 |
|     113 | 0x0078      |         120 |
|     114 | 0x2B2C      |       11052 |
|     115 | 0x2B2D      |       11053 |
|     116 | 0x2B2E      |       11054 |
|     117 | 0x2B2F      |       11055 |
|     118 | 0x2B30      |       11056 |
|     119 | 0x2B31      |       11057 |
|     120 | 0x2B32      |       11058 |
|     121 | 0x0399      |         921 |
|     122 | 0x2B13      |       11027 |

## String References

- **11036**: Pledge allegiance to San d'Oria? [Yes./No.]
- **11054**: Give up? [No!/I have had enough...]
- **11057**: It would be a pity to see you go. [Alright, I shall try once more./I am sorry. I cannot continue.]
- **11087**: Mainchelite reluctantly hands Gerwulf the $3, the $3, and the $3.

## Events

### Event 65535

#### Metadata

| Field        | Value   |
|--------------|---------|
| Entrypoint   | 0x0000  |
| Data Size    | 1 bytes |
| Instructions | 1       |

```
      00 01 02 03 04 05 06 07  08 09 0A 0B 0C 0D 0E 0F
      -- -- -- -- -- -- -- --  -- -- -- -- -- -- -- --
0000: 00                                                .               
```

#### Opcodes

```
  0: 0x0000 [0x00] END_REQSTACK()
```

### Event 65535.1

#### Metadata

| Field        | Value   |
|--------------|---------|
| Entrypoint   | 0x0001  |
| Data Size    | 1 bytes |
| Instructions | 1       |

```
      00 01 02 03 04 05 06 07  08 09 0A 0B 0C 0D 0E 0F
      -- -- -- -- -- -- -- --  -- -- -- -- -- -- -- --
0000:    00                                              .              
```

#### Opcodes

```
  0: 0x0001 [0x00] END_REQSTACK()
```

### Event 65535.2

#### Metadata

| Field        | Value    |
|--------------|----------|
| Entrypoint   | 0x0002   |
| Data Size    | 18 bytes |
| Instructions | 4        |

```
      00 01 02 03 04 05 06 07  08 09 0A 0B 0C 0D 0E 0F
      -- -- -- -- -- -- -- --  -- -- -- -- -- -- -- --
0000:       22 00 2F 00 F8 FF  FF 7F 6C F8 FF FF 7F 00    "./.....l.....
0010: 80 01 80 00                                       ....            
```

#### Opcodes

```
  0: 0x0002 [0x22] ENTITY_HIDE_FLAG(enabled=0x00)
  1: 0x0004 [0x2F] EventEntity->Render.Flags0 &= ~0x80000 // Bit 19
  2: 0x000A [0x6C] FADE_ENTITY_COLOR(entity_id=EventEntity, end_alpha=0*, fade_time=1*)
  3: 0x0013 [0x00] END_REQSTACK()
```

### Event 65535.3

#### Metadata

| Field        | Value    |
|--------------|----------|
| Entrypoint   | 0x0014   |
| Data Size    | 10 bytes |
| Instructions | 2        |

```
      00 01 02 03 04 05 06 07  08 09 0A 0B 0C 0D 0E 0F
      -- -- -- -- -- -- -- --  -- -- -- -- -- -- -- --
0010:             6C F8 FF FF  7F 02 80 01 80 00            l.........  
```

#### Opcodes

```
  0: 0x0014 [0x6C] FADE_ENTITY_COLOR(entity_id=EventEntity, end_alpha=128*, fade_time=1*)
  1: 0x001D [0x00] END_REQSTACK()
```

### Event 65535.4

#### Metadata

| Field        | Value   |
|--------------|---------|
| Entrypoint   | 0x001E  |
| Data Size    | 9 bytes |
| Instructions | 3       |

```
      00 01 02 03 04 05 06 07  08 09 0A 0B 0C 0D 0E 0F
      -- -- -- -- -- -- -- --  -- -- -- -- -- -- -- --
0010:                                            22 00                ".
0020: 2F 00 F8 FF FF 7F 00                              /......         
```

#### Opcodes

```
  0: 0x001E [0x22] ENTITY_HIDE_FLAG(enabled=0x00)
  1: 0x0020 [0x2F] EventEntity->Render.Flags0 &= ~0x80000 // Bit 19
  2: 0x0026 [0x00] END_REQSTACK()
```

### Event 65535.5

#### Metadata

| Field        | Value   |
|--------------|---------|
| Entrypoint   | 0x0027  |
| Data Size    | 9 bytes |
| Instructions | 3       |

```
      00 01 02 03 04 05 06 07  08 09 0A 0B 0C 0D 0E 0F
      -- -- -- -- -- -- -- --  -- -- -- -- -- -- -- --
0020:                      22  01 2F 01 F8 FF FF 7F 00         "./......
```

#### Opcodes

```
  0: 0x0027 [0x22] ENTITY_HIDE_FLAG(enabled=0x01)
  1: 0x0029 [0x2F] EventEntity->Render.Flags0 |= 0x80000 // Bit 19
  2: 0x002F [0x00] END_REQSTACK()
```

### Event 65535.6

#### Metadata

| Field        | Value    |
|--------------|----------|
| Entrypoint   | 0x0030   |
| Data Size    | 10 bytes |
| Instructions | 2        |

```
      00 01 02 03 04 05 06 07  08 09 0A 0B 0C 0D 0E 0F
      -- -- -- -- -- -- -- --  -- -- -- -- -- -- -- --
0030: 6C F8 FF FF 7F 00 80 01  80 00                    l.........      
```

#### Opcodes

```
  0: 0x0030 [0x6C] FADE_ENTITY_COLOR(entity_id=EventEntity, end_alpha=0*, fade_time=1*)
  1: 0x0039 [0x00] END_REQSTACK()
```

### Event 65535.7

#### Metadata

| Field        | Value    |
|--------------|----------|
| Entrypoint   | 0x003A   |
| Data Size    | 10 bytes |
| Instructions | 2        |

```
      00 01 02 03 04 05 06 07  08 09 0A 0B 0C 0D 0E 0F
      -- -- -- -- -- -- -- --  -- -- -- -- -- -- -- --
0030:                                6C F8 FF FF 7F 02            l.....
0040: 80 01 80 00                                       ....            
```

#### Opcodes

```
  0: 0x003A [0x6C] FADE_ENTITY_COLOR(entity_id=EventEntity, end_alpha=128*, fade_time=1*)
  1: 0x0043 [0x00] END_REQSTACK()
```

### Event 171

#### Metadata

| Field        | Value   |
|--------------|---------|
| Entrypoint   | 0x0044  |
| Data Size    | 1 bytes |
| Instructions | 1       |

```
      00 01 02 03 04 05 06 07  08 09 0A 0B 0C 0D 0E 0F
      -- -- -- -- -- -- -- --  -- -- -- -- -- -- -- --
0040:             00                                        .           
```

#### Opcodes

```
  0: 0x0044 [0x00] END_REQSTACK()
```

### Event 172

#### Metadata

| Field        | Value   |
|--------------|---------|
| Entrypoint   | 0x0045  |
| Data Size    | 1 bytes |
| Instructions | 1       |

```
      00 01 02 03 04 05 06 07  08 09 0A 0B 0C 0D 0E 0F
      -- -- -- -- -- -- -- --  -- -- -- -- -- -- -- --
0040:                00                                      .          
```

#### Opcodes

```
  0: 0x0045 [0x00] END_REQSTACK()
```

### Event 173

#### Metadata

| Field        | Value    |
|--------------|----------|
| Entrypoint   | 0x0046   |
| Data Size    | 55 bytes |
| Instructions | 11       |

```
      00 01 02 03 04 05 06 07  08 09 0A 0B 0C 0D 0E 0F
      -- -- -- -- -- -- -- --  -- -- -- -- -- -- -- --
0040:                   1E F0  FF FF 7F 6F 70 66 03 80        .....opf..
0050: E7 01 05 01 E7 01 05 01  74 6C 6B 30 2B F8 FF FF  ........tlk0+...
0060: 7F 04 80 23 2B F8 FF FF  7F 05 80 23 66 03 80 E7  ...#+......#f...
0070: 01 05 01 E7 01 05 01 74  6C 6B 31 21 00           .......tlk1!.   
```

#### Opcodes

```
  0: 0x0046 [0x1E] EventEntity looks at LocalPlayer and starts talking
  1: 0x004B [0x6F] WAIT_FRAME_DELAY: Yield until WaitTime reaches zero
  2: 0x004C [0x70] WAIT_ENTITY_RENDER_FLAG: Wait while EventEntity->Render.Flags3 bit 2 is set (cancel turn if not)
  3: 0x004D [0x66] LOAD_EXT_SCHEDULER_MAIN: Load scheduler "tlk0" with entities [Mainchelite (ID: 17105383/0x010501E7), Mainchelite (ID: 17105383/0x010501E7)], work=29*
  4: 0x005C [0x2B] EventEntity [14490*]:
    → "I'm afraid the name Lilisette is not familiar to me."
  5: 0x0063 [0x23] WAIT_FOR_DIALOG_INTERACTION
  6: 0x0064 [0x2B] EventEntity [14489*]:
    → "I should think I'd remember had a child come calling, wishing to play at war."
  7: 0x006B [0x23] WAIT_FOR_DIALOG_INTERACTION
  8: 0x006C [0x66] LOAD_EXT_SCHEDULER_MAIN: Load scheduler "tlk1" with entities [Mainchelite (ID: 17105383/0x010501E7), Mainchelite (ID: 17105383/0x010501E7)], work=29*
  9: 0x007B [0x21] END_EVENT
 10: 0x007C [0x00] END_REQSTACK()
```

### Event 5

#### Metadata

| Field        | Value    |
|--------------|----------|
| Entrypoint   | 0x007D   |
| Data Size    | 47 bytes |
| Instructions | 9        |

```
      00 01 02 03 04 05 06 07  08 09 0A 0B 0C 0D 0E 0F
      -- -- -- -- -- -- -- --  -- -- -- -- -- -- -- --
0070:                                         1E F0 FF               ...
0080: FF 7F 6F 70 66 03 80 E7  01 05 01 E7 01 05 01 74  ..opf..........t
0090: 6C 6B 30 2B E7 01 05 01  06 80 23 66 03 80 E7 01  lk0+......#f....
00A0: 05 01 E7 01 05 01 74 6C  6B 31 21 00              ......tlk1!.    
```

#### Opcodes

```
  0: 0x007D [0x1E] EventEntity looks at LocalPlayer and starts talking
  1: 0x0082 [0x6F] WAIT_FRAME_DELAY: Yield until WaitTime reaches zero
  2: 0x0083 [0x70] WAIT_ENTITY_RENDER_FLAG: Wait while EventEntity->Render.Flags3 bit 2 is set (cancel turn if not)
  3: 0x0084 [0x66] LOAD_EXT_SCHEDULER_MAIN: Load scheduler "tlk0" with entities [Mainchelite (ID: 17105383/0x010501E7), Mainchelite (ID: 17105383/0x010501E7)], work=29*
  4: 0x0093 [0x2B] Mainchelite (ID: 17105383/0x010501E7) [11025*]:
    → "Greetings, <Player>. How fare thee amongst the ranks of the Rams?"
  5: 0x009A [0x23] WAIT_FOR_DIALOG_INTERACTION
  6: 0x009B [0x66] LOAD_EXT_SCHEDULER_MAIN: Load scheduler "tlk1" with entities [Mainchelite (ID: 17105383/0x010501E7), Mainchelite (ID: 17105383/0x010501E7)], work=29*
  7: 0x00AA [0x21] END_EVENT
  8: 0x00AB [0x00] END_REQSTACK()
```

### Event 623

#### Metadata

| Field        | Value    |
|--------------|----------|
| Entrypoint   | 0x00AC   |
| Data Size    | 47 bytes |
| Instructions | 9        |

```
      00 01 02 03 04 05 06 07  08 09 0A 0B 0C 0D 0E 0F
      -- -- -- -- -- -- -- --  -- -- -- -- -- -- -- --
00A0:                                      1E F0 FF FF              ....
00B0: 7F 6F 70 66 03 80 E7 01  05 01 E7 01 05 01 74 6C  .opf..........tl
00C0: 6B 30 2B E7 01 05 01 07  80 23 66 03 80 E7 01 05  k0+......#f.....
00D0: 01 E7 01 05 01 74 6C 6B  31 21 00                 .....tlk1!.     
```

#### Opcodes

```
  0: 0x00AC [0x1E] EventEntity looks at LocalPlayer and starts talking
  1: 0x00B1 [0x6F] WAIT_FRAME_DELAY: Yield until WaitTime reaches zero
  2: 0x00B2 [0x70] WAIT_ENTITY_RENDER_FLAG: Wait while EventEntity->Render.Flags3 bit 2 is set (cancel turn if not)
  3: 0x00B3 [0x66] LOAD_EXT_SCHEDULER_MAIN: Load scheduler "tlk0" with entities [Mainchelite (ID: 17105383/0x010501E7), Mainchelite (ID: 17105383/0x010501E7)], work=29*
  4: 0x00C2 [0x2B] Mainchelite (ID: 17105383/0x010501E7) [11101*]:
    → "You wish to rejoin the ranks of the Iron Rams? Splendid! Speak with Sir Houilloumie to begin your reinstatement."
  5: 0x00C9 [0x23] WAIT_FOR_DIALOG_INTERACTION
  6: 0x00CA [0x66] LOAD_EXT_SCHEDULER_MAIN: Load scheduler "tlk1" with entities [Mainchelite (ID: 17105383/0x010501E7), Mainchelite (ID: 17105383/0x010501E7)], work=29*
  7: 0x00D9 [0x21] END_EVENT
  8: 0x00DA [0x00] END_REQSTACK()
```

### Event 6

#### Metadata

| Field        | Value    |
|--------------|----------|
| Entrypoint   | 0x00DB   |
| Data Size    | 55 bytes |
| Instructions | 11       |

```
      00 01 02 03 04 05 06 07  08 09 0A 0B 0C 0D 0E 0F
      -- -- -- -- -- -- -- --  -- -- -- -- -- -- -- --
00D0:                                   1E F0 FF FF 7F             .....
00E0: 6F 70 66 03 80 E7 01 05  01 E7 01 05 01 74 6C 6B  opf..........tlk
00F0: 30 2B E7 01 05 01 08 80  23 2B E7 01 05 01 09 80  0+......#+......
0100: 23 66 03 80 E7 01 05 01  E7 01 05 01 74 6C 6B 31  #f..........tlk1
0110: 21 00                                             !.              
```

#### Opcodes

```
  0: 0x00DB [0x1E] EventEntity looks at LocalPlayer and starts talking
  1: 0x00E0 [0x6F] WAIT_FRAME_DELAY: Yield until WaitTime reaches zero
  2: 0x00E1 [0x70] WAIT_ENTITY_RENDER_FLAG: Wait while EventEntity->Render.Flags3 bit 2 is set (cancel turn if not)
  3: 0x00E2 [0x66] LOAD_EXT_SCHEDULER_MAIN: Load scheduler "tlk0" with entities [Mainchelite (ID: 17105383/0x010501E7), Mainchelite (ID: 17105383/0x010501E7)], work=29*
  4: 0x00F1 [0x2B] Mainchelite (ID: 17105383/0x010501E7) [11026*]:
    → "Currently, we are recruiting squires to serve within the Royal Knights' Iron Ram regiment. Serve your king, defend your nation, and possibly earn a chance at nobility... What say you?"
  5: 0x00F8 [0x23] WAIT_FOR_DIALOG_INTERACTION
  6: 0x00F9 [0x2B] Mainchelite (ID: 17105383/0x010501E7) [11024*]:
    → "You cannot pledge your allegiance to San d'Oria while undertaking the initiation ritual of another nation. Go sever your ties with that nation, then come speak with me once more."
  7: 0x0100 [0x23] WAIT_FOR_DIALOG_INTERACTION
  8: 0x0101 [0x66] LOAD_EXT_SCHEDULER_MAIN: Load scheduler "tlk1" with entities [Mainchelite (ID: 17105383/0x010501E7), Mainchelite (ID: 17105383/0x010501E7)], work=29*
  9: 0x0110 [0x21] END_EVENT
 10: 0x0111 [0x00] END_REQSTACK()
```

### Event 7

#### Metadata

| Field        | Value      |
|--------------|------------|
| Entrypoint   | 0x0112     |
| Data Size    | 1391 bytes |
| Instructions | 168        |

```
      00 01 02 03 04 05 06 07  08 09 0A 0B 0C 0D 0E 0F
      -- -- -- -- -- -- -- --  -- -- -- -- -- -- -- --
0110:       42 20 01 46 01 1A  C2 27 38 0A 80 92 01 E7    B .F...'8.....
0120: 01 05 01 92 01 40 02 05  01 92 01 41 02 05 01 92  .....@.....A....
0130: 01 42 02 05 01 92 01 43  02 05 01 92 01 44 02 05  .B.....C.....D..
0140: 01 92 01 ED 01 05 01 94  01 F0 FF FF 7F 94 01 E7  ................
0150: 01 05 01 94 01 40 02 05  01 94 01 41 02 05 01 94  .....@.....A....
0160: 01 42 02 05 01 94 01 43  02 05 01 94 01 44 02 05  .B.....C.....D..
0170: 01 94 01 ED 01 05 01 94  01 3F 02 05 01 BA F0 FF  .........?......
0180: FF 7F 0B 80 0C 80 0D 80  0E 80 BA 40 02 05 01 0F  ...........@....
0190: 80 10 80 11 80 12 80 BA  41 02 05 01 13 80 14 80  ........A.......
01A0: 11 80 15 80 BA 42 02 05  01 16 80 17 80 11 80 18  .....B..........
01B0: 80 4A E7 01 05 01 F0 FF  FF 7F 4A F0 FF FF 7F E7  .J........J.....
01C0: 01 05 01 4A 40 02 05 01  42 02 05 01 4A 41 02 05  ...J@...B...JA..
01D0: 01 40 02 05 01 4A 42 02  05 01 40 02 05 01 7B E7  .@...JB...@...{.
01E0: 01 05 01 7B F0 FF FF 7F  4E 00 F0 FF FF 7F 4E 00  ...{....N.....N.
01F0: E7 01 05 01 4E 01 40 02  05 01 4E 01 41 02 05 01  ....N.@...N.A...
0200: 4E 01 42 02 05 01 4E 01  43 02 05 01 4E 01 44 02  N.B...N.C...N.D.
0210: 05 01 4E 01 ED 01 05 01  80 F0 FF FF 7F 80 E7 01  ..N.............
0220: 05 01 80 40 02 05 01 80  41 02 05 01 80 42 02 05  ...@....A....B..
0230: 01 45 19 80 F8 FF FF 7F  F8 FF FF 7F 73 30 30 30  .E..........s000
0240: 00 80 45 1A 80 F8 FF FF  7F F8 FF FF 7F 66 64 69  ..E..........fdi
0250: 32 00 80 66 03 80 E7 01  05 01 E7 01 05 01 74 6C  2..f..........tl
0260: 6B 30 2B E7 01 05 01 1B  80 23 52 19 80 F8 FF FF  k0+......#R.....
0270: 7F F8 FF FF 7F 73 30 30  31 45 19 80 F8 FF FF 7F  .....s001E......
0280: F8 FF FF 7F 73 30 31 33  00 80 2B E7 01 05 01 1C  ....s013..+.....
0290: 80 23 52 19 80 F8 FF FF  7F F8 FF FF 7F 73 30 31  .#R..........s01
02A0: 33 45 19 80 F8 FF FF 7F  F8 FF FF 7F 73 30 31 34  3E..........s014
02B0: 00 80 2B E7 01 05 01 1D  80 23 2B E7 01 05 01 1E  ..+......#+.....
02C0: 80 23 66 03 80 E7 01 05  01 E7 01 05 01 74 6C 6B  .#f..........tlk
02D0: 31 52 19 80 F8 FF FF 7F  F8 FF FF 7F 73 30 31 34  1R..........s014
02E0: 45 19 80 F8 FF FF 7F F8  FF FF 7F 73 30 31 35 00  E..........s015.
02F0: 80 24 1F 80 00 80 00 80  25 02 00 10 00 80 00 09  .$......%.......
0300: 03 03 01 10 00 80 01 44  03 02 00 10 01 80 00 44  .......D.......D
0310: 03 52 19 80 F8 FF FF 7F  F8 FF FF 7F 73 30 31 35  .R..........s015
0320: 45 19 80 F8 FF FF 7F F8  FF FF 7F 73 30 31 36 00  E..........s016.
0330: 80 2B E7 01 05 01 20 80  23 03 01 10 01 80 01 56  .+.... .#......V
0340: 03 01 44 03 52 19 80 F8  FF FF 7F F8 FF FF 7F 73  ..D.R..........s
0350: 30 31 35 1A 9D 03 1A C2  27 55 19 80 F8 FF FF 7F  015.....'U......
0360: F8 FF FF 7F 73 30 31 36  46 00 45 21 80 F8 FF FF  ....s016F.E!....
0370: 7F F8 FF FF 7F 77 6F 66  66 00 80 55 21 80 F8 FF  .....woff..U!...
0380: FF 7F F8 FF FF 7F 77 6F  66 66 45 1A 80 F0 FF FF  ......woffE.....
0390: 7F F0 FF FF 7F 66 64 69  32 00 80 21 00 6E E7 01  .....fdi2..!.n..
03A0: 05 01 22 80 99 E7 01 05  01 99 E7 01 05 01 45 19  .."...........E.
03B0: 80 F8 FF FF 7F F8 FF FF  7F 73 30 31 37 00 80 4E  .........s017..N
03C0: 00 40 02 05 01 4E 00 41  02 05 01 4E 00 42 02 05  .@...N.A...N.B..
03D0: 01 2B E7 01 05 01 23 80  23 4A E7 01 05 01 41 02  .+....#.#J....A.
03E0: 05 01 4A F0 FF FF 7F 41  02 05 01 52 19 80 F8 FF  ..J....A...R....
03F0: FF 7F F8 FF FF 7F 73 30  31 37 45 19 80 F8 FF FF  ......s017E.....
0400: 7F F8 FF FF 7F 73 30 31  38 00 80 2B E7 01 05 01  .....s018..+....
0410: 24 80 23 52 19 80 F8 FF  FF 7F F8 FF FF 7F 73 30  $.#R..........s0
0420: 31 38 45 19 80 F8 FF FF  7F F8 FF FF 7F 73 30 30  18E..........s00
0430: 31 00 80 66 03 80 40 02  05 01 40 02 05 01 74 6C  1..f..@...@...tl
0440: 6B 30 2B 40 02 05 01 25  80 23 2B 40 02 05 01 26  k0+@...%.#+@...&
0450: 80 23 66 03 80 40 02 05  01 40 02 05 01 74 6C 6B  .#f..@...@...tlk
0460: 31 52 19 80 F8 FF FF 7F  F8 FF FF 7F 73 30 30 31  1R..........s001
0470: 45 19 80 F8 FF FF 7F F8  FF FF 7F 73 30 31 39 00  E..........s019.
0480: 80 66 27 80 41 02 05 01  41 02 05 01 74 6C 6B 30  .f'.A...A...tlk0
0490: 2B 41 02 05 01 28 80 23  52 19 80 F8 FF FF 7F F8  +A...(.#R.......
04A0: FF FF 7F 73 30 31 39 45  19 80 F8 FF FF 7F F8 FF  ...s019E........
04B0: FF 7F 73 30 32 30 00 80  2B 41 02 05 01 29 80 23  ..s020..+A...).#
04C0: 66 27 80 41 02 05 01 41  02 05 01 74 6C 6B 31 52  f'.A...A...tlk1R
04D0: 19 80 F8 FF FF 7F F8 FF  FF 7F 73 30 32 30 45 19  ..........s020E.
04E0: 80 F8 FF FF 7F F8 FF FF  7F 73 30 32 31 00 80 66  .........s021..f
04F0: 03 80 42 02 05 01 42 02  05 01 74 68 6B 31 2B 42  ..B...B...thk1+B
0500: 02 05 01 2A 80 23 66 03  80 42 02 05 01 42 02 05  ...*.#f..B...B..
0510: 01 74 68 6B 32 52 19 80  F8 FF FF 7F F8 FF FF 7F  .thk2R..........
0520: 73 30 32 31 45 19 80 F8  FF FF 7F F8 FF FF 7F 73  s021E..........s
0530: 30 32 32 00 80 53 42 02  05 01 42 02 05 01 74 68  022..SB...B...th
0540: 6B 32 6E 40 02 05 01 2B  80 99 40 02 05 01 2B 40  k2n@...+..@...+@
0550: 02 05 01 2C 80 23 52 19  80 F8 FF FF 7F F8 FF FF  ...,.#R.........
0560: 7F 73 30 32 32 6E 42 02  05 01 2D 80 99 42 02 05  .s022nB...-..B..
0570: 01 99 42 02 05 01 45 19  80 F8 FF FF 7F F8 FF FF  ..B...E.........
0580: 7F 73 30 32 33 00 80 2B  42 02 05 01 2E 80 23 52  .s023..+B.....#R
0590: 19 80 F8 FF FF 7F F8 FF  FF 7F 73 30 32 33 6E E7  ..........s023n.
05A0: 01 05 01 2B 80 99 E7 01  05 01 99 E7 01 05 01 45  ...+...........E
05B0: 19 80 F8 FF FF 7F F8 FF  FF 7F 73 30 30 32 00 80  ..........s002..
05C0: 2B E7 01 05 01 2F 80 23  4A E7 01 05 01 F0 FF FF  +..../.#J.......
05D0: 7F 4A F0 FF FF 7F E7 01  05 01 55 19 80 F8 FF FF  .J........U.....
05E0: 7F F8 FF FF 7F 73 30 30  32 45 19 80 F8 FF FF 7F  .....s002E......
05F0: F8 FF FF 7F 73 30 32 34  00 80 6F 76 E7 01 05 01  ....s024..ov....
0600: 6F 76 F0 FF FF 7F 2B E7  01 05 01 30 80 23 66 03  ov....+....0.#f.
0610: 80 E7 01 05 01 E7 01 05  01 74 68 6B 31 2B E7 01  .........thk1+..
0620: 05 01 31 80 23 66 03 80  E7 01 05 01 E7 01 05 01  ..1.#f..........
0630: 74 68 6B 32 52 19 80 F8  FF FF 7F F8 FF FF 7F 73  thk2R..........s
0640: 30 32 34 45 19 80 F8 FF  FF 7F F8 FF FF 7F 73 30  024E..........s0
0650: 32 35 00 80 2B E7 01 05  01 32 80 23 53 E7 01 05  25..+....2.#S...
0660: 01 E7 01 05 01 74 68 6B  32 2B E7 01 05 01 33 80  .....thk2+....3.
0670: 23 52 19 80 F8 FF FF 7F  F8 FF FF 7F 73 30 32 35  #R..........s025
0680: 1B                                                .               
```

#### Opcodes

```
  0: 0x0112 [0x42] SET_CLI_EVENT_CANCEL_DATA()
  1: 0x0113 [0x20] SET_CLI_EVENT_UC_FLAG: Lock player control
  2: 0x0115 [0x46] CAMERA_CONTROL: Disable user control
  3: 0x0117 [0x1A] CALL_SUBROUTINE(address=0x27C2)
  4: 0x011A [0x38] SET_CLIENT_EVENT_MODE(mode=19*)
  5: 0x011D [0x92] Mainchelite (ID: 17105383/0x010501E7)->Render.Flags3 ^= 0x01
  6: 0x0123 [0x92] Hestrefalcat (ID: 17105472/0x01050240)->Render.Flags3 ^= 0x01
  7: 0x0129 [0x92] Minautte (ID: 17105473/0x01050241)->Render.Flags3 ^= 0x01
  8: 0x012F [0x92] Rachelassiond (ID: 17105474/0x01050242)->Render.Flags3 ^= 0x01
  9: 0x0135 [0x92] Spencer (ID: 17105475/0x01050243)->Render.Flags3 ^= 0x01
 10: 0x013B [0x92] Gerwulf (ID: 17105476/0x01050244)->Render.Flags3 ^= 0x01
 11: 0x0141 [0x92] Rongelouts N Distaud (ID: 17105389/0x010501ED)->Render.Flags3 ^= 0x01
 12: 0x0147 [0x94] LocalPlayer->Render.Flags3 ^= 0x01
 13: 0x014D [0x94] Mainchelite (ID: 17105383/0x010501E7)->Render.Flags3 ^= 0x01
 14: 0x0153 [0x94] Hestrefalcat (ID: 17105472/0x01050240)->Render.Flags3 ^= 0x01
 15: 0x0159 [0x94] Minautte (ID: 17105473/0x01050241)->Render.Flags3 ^= 0x01
 16: 0x015F [0x94] Rachelassiond (ID: 17105474/0x01050242)->Render.Flags3 ^= 0x01
 17: 0x0165 [0x94] Spencer (ID: 17105475/0x01050243)->Render.Flags3 ^= 0x01
 18: 0x016B [0x94] Gerwulf (ID: 17105476/0x01050244)->Render.Flags3 ^= 0x01
 19: 0x0171 [0x94] Rongelouts N Distaud (ID: 17105389/0x010501ED)->Render.Flags3 ^= 0x01
 20: 0x0177 [0x94] ??? (ID: 17105471/0x0105023F)->Render.Flags3 ^= 0x01
 21: 0x017D [0xBA] SET_ENTITY_POSITION(entity_id=LocalPlayer, pos_x=-15.412*, pos_z=-28.331*, pos_y=1.699*, direction=91.4°*)
 22: 0x018A [0xBA] SET_ENTITY_POSITION(entity_id=Hestrefalcat (ID: 17105472/0x01050240), pos_x=-26.539*, pos_z=-29.980*, pos_y=1.999*, direction=59.5°*)
 23: 0x0197 [0xBA] SET_ENTITY_POSITION(entity_id=Minautte (ID: 17105473/0x01050241), pos_x=-27.605*, pos_z=-31.223*, pos_y=1.999*, direction=324.7°*)
 24: 0x01A4 [0xBA] SET_ENTITY_POSITION(entity_id=Rachelassiond (ID: 17105474/0x01050242), pos_x=-25.930*, pos_z=-32.770*, pos_y=1.999*, direction=264.9°*)
 25: 0x01B1 [0x4A] Mainchelite (ID: 17105383/0x010501E7) looks at LocalPlayer
 26: 0x01BA [0x4A] LocalPlayer looks at Mainchelite (ID: 17105383/0x010501E7)
 27: 0x01C3 [0x4A] Hestrefalcat (ID: 17105472/0x01050240) looks at Rachelassiond (ID: 17105474/0x01050242)
 28: 0x01CC [0x4A] Minautte (ID: 17105473/0x01050241) looks at Hestrefalcat (ID: 17105472/0x01050240)
 29: 0x01D5 [0x4A] Rachelassiond (ID: 17105474/0x01050242) looks at Hestrefalcat (ID: 17105472/0x01050240)
 30: 0x01DE [0x7B] Mainchelite (ID: 17105383/0x010501E7) stops talking
 31: 0x01E3 [0x7B] LocalPlayer stops talking
 32: 0x01E8 [0x4E] SET_ENTITY_HIDE_FLAG: Show LocalPlayer
 33: 0x01EE [0x4E] SET_ENTITY_HIDE_FLAG: Show Mainchelite (ID: 17105383/0x010501E7)
 34: 0x01F4 [0x4E] SET_ENTITY_HIDE_FLAG: Hide Hestrefalcat (ID: 17105472/0x01050240)
 35: 0x01FA [0x4E] SET_ENTITY_HIDE_FLAG: Hide Minautte (ID: 17105473/0x01050241)
 36: 0x0200 [0x4E] SET_ENTITY_HIDE_FLAG: Hide Rachelassiond (ID: 17105474/0x01050242)
 37: 0x0206 [0x4E] SET_ENTITY_HIDE_FLAG: Hide Spencer (ID: 17105475/0x01050243)
 38: 0x020C [0x4E] SET_ENTITY_HIDE_FLAG: Hide Gerwulf (ID: 17105476/0x01050244)
 39: 0x0212 [0x4E] SET_ENTITY_HIDE_FLAG: Hide Rongelouts N Distaud (ID: 17105389/0x010501ED)
 40: 0x0218 [0x80] LOAD_WAIT(entity=LocalPlayer)
 41: 0x021D [0x80] LOAD_WAIT(entity=Mainchelite (ID: 17105383/0x010501E7))
 42: 0x0222 [0x80] LOAD_WAIT(entity=Hestrefalcat (ID: 17105472/0x01050240))
 43: 0x0227 [0x80] LOAD_WAIT(entity=Minautte (ID: 17105473/0x01050241))
 44: 0x022C [0x80] LOAD_WAIT(entity=Rachelassiond (ID: 17105474/0x01050242))
 45: 0x0231 [0x45] LOAD_SCHEDULED_TASK: Load scheduler "s000" with entities [EventEntity, EventEntity], work=[355*, 0*]
 46: 0x0242 [0x45] LOAD_SCHEDULED_TASK: Load scheduler "fdi2" with entities [EventEntity, EventEntity], work=[200*, 0*]
 47: 0x0253 [0x66] LOAD_EXT_SCHEDULER_MAIN: Load scheduler "tlk0" with entities [Mainchelite (ID: 17105383/0x010501E7), Mainchelite (ID: 17105383/0x010501E7)], work=29*
 48: 0x0262 [0x2B] Mainchelite (ID: 17105383/0x010501E7) [11032*]:
    → "So, you have come to join the Knights of the Iron Ram..."
 49: 0x0269 [0x23] WAIT_FOR_DIALOG_INTERACTION
 50: 0x026A [0x52] END_LOAD_SCHEDULER: End scheduler "s001" with entities [EventEntity, EventEntity], work=355*
 51: 0x0279 [0x45] LOAD_SCHEDULED_TASK: Load scheduler "s013" with entities [EventEntity, EventEntity], work=[355*, 0*]
 52: 0x028A [0x2B] Mainchelite (ID: 17105383/0x010501E7) [11033*]:
    → "Let me see your letter of recommendation... Ah, yes, this will do."
 53: 0x0291 [0x23] WAIT_FOR_DIALOG_INTERACTION
 54: 0x0292 [0x52] END_LOAD_SCHEDULER: End scheduler "s013" with entities [EventEntity, EventEntity], work=355*
 55: 0x02A1 [0x45] LOAD_SCHEDULED_TASK: Load scheduler "s014" with entities [EventEntity, EventEntity], work=[355*, 0*]
 56: 0x02B2 [0x2B] Mainchelite (ID: 17105383/0x010501E7) [11034*]:
    → "I must inform you, once you begin the initiation, you will be bound to San d'Oria. Other nations will not accept you into their ranks while your bonds to the Kingdom remain intact. Forget this not."
 57: 0x02B9 [0x23] WAIT_FOR_DIALOG_INTERACTION
 58: 0x02BA [0x2B] Mainchelite (ID: 17105383/0x010501E7) [11035*]:
    → "And so now I must ask, do you pledge to serve the king and his people with your life and honor?"
 59: 0x02C1 [0x23] WAIT_FOR_DIALOG_INTERACTION
 60: 0x02C2 [0x66] LOAD_EXT_SCHEDULER_MAIN: Load scheduler "tlk1" with entities [Mainchelite (ID: 17105383/0x010501E7), Mainchelite (ID: 17105383/0x010501E7)], work=29*
 61: 0x02D1 [0x52] END_LOAD_SCHEDULER: End scheduler "s014" with entities [EventEntity, EventEntity], work=355*
 62: 0x02E0 [0x45] LOAD_SCHEDULED_TASK: Load scheduler "s015" with entities [EventEntity, EventEntity], work=[355*, 0*]
 63: 0x02F1 [0x24] CREATE_DIALOG(message_id=11036*, default_option=0*, option_flags=0*)
    → "Pledge allegiance to San d'Oria? [Yes./No.]"
 64: 0x02F8 [0x25] WAIT_DIALOG_SELECT()
 65: 0x02F9 [0x02] IF !(Work_Zone[0] == 0*) GOTO 0x0309
 66: 0x0301 [0x03] Work_Zone[1] = 0*
 67: 0x0306 [0x01] GOTO 0x0344
 68: 0x0309 [0x02] IF !(Work_Zone[0] == 1*) GOTO 0x0344
 69: 0x0311 [0x52] END_LOAD_SCHEDULER: End scheduler "s015" with entities [EventEntity, EventEntity], work=355*
 70: 0x0320 [0x45] LOAD_SCHEDULED_TASK: Load scheduler "s016" with entities [EventEntity, EventEntity], work=[355*, 0*]
 71: 0x0331 [0x2B] Mainchelite (ID: 17105383/0x010501E7) [11037*]:
    → "Then I can assist you no longer. Begone."
 72: 0x0338 [0x23] WAIT_FOR_DIALOG_INTERACTION
 73: 0x0339 [0x03] Work_Zone[1] = 1*
 74: 0x033E [0x01] GOTO 0x0356

SUBROUTINE_0344:
 75: 0x0344 [0x52] END_LOAD_SCHEDULER: End scheduler "s015" with entities [EventEntity, EventEntity], work=355*
 76: 0x0353 [0x1A] CALL_SUBROUTINE(address=0x039D)

SUBROUTINE_0356:
 77: 0x0356 [0x1A] CALL_SUBROUTINE(address=0x27C2)
 78: 0x0359 [0x55] WAIT_LOAD_SCHEDULER: Wait for scheduler "s016" with entities [EventEntity, EventEntity], work=355*
 79: 0x0368 [0x46] CAMERA_CONTROL: Restore default settings
 80: 0x036A [0x45] LOAD_SCHEDULED_TASK: Load scheduler "woff" with entities [EventEntity, EventEntity], work=[352*, 0*]
 81: 0x037B [0x55] WAIT_LOAD_SCHEDULER: Wait for scheduler "woff" with entities [EventEntity, EventEntity], work=352*
 82: 0x038A [0x45] LOAD_SCHEDULED_TASK: Load scheduler "fdi2" with entities [LocalPlayer, LocalPlayer], work=[200*, 0*]
 83: 0x039B [0x21] END_EVENT
 84: 0x039C [0x00] END_REQSTACK()

SUBROUTINE_039D:
 85: 0x039D [0x6E] Mainchelite (ID: 17105383/0x010501E7) uses emote 2*
 86: 0x03A4 [0x99] Wait for Mainchelite (ID: 17105383/0x010501E7) animation to complete
 87: 0x03A9 [0x99] Wait for Mainchelite (ID: 17105383/0x010501E7) animation to complete
 88: 0x03AE [0x45] LOAD_SCHEDULED_TASK: Load scheduler "s017" with entities [EventEntity, EventEntity], work=[355*, 0*]
 89: 0x03BF [0x4E] SET_ENTITY_HIDE_FLAG: Show Hestrefalcat (ID: 17105472/0x01050240)
 90: 0x03C5 [0x4E] SET_ENTITY_HIDE_FLAG: Show Minautte (ID: 17105473/0x01050241)
 91: 0x03CB [0x4E] SET_ENTITY_HIDE_FLAG: Show Rachelassiond (ID: 17105474/0x01050242)
 92: 0x03D1 [0x2B] Mainchelite (ID: 17105383/0x010501E7) [11038*]:
    → "You shall now be granted the opportunity to prove your worth. Only after you have done so will you be admitted to the ranks of the Rams."
 93: 0x03D8 [0x23] WAIT_FOR_DIALOG_INTERACTION
 94: 0x03D9 [0x4A] Mainchelite (ID: 17105383/0x010501E7) looks at Minautte (ID: 17105473/0x01050241)
 95: 0x03E2 [0x4A] LocalPlayer looks at Minautte (ID: 17105473/0x01050241)
 96: 0x03EB [0x52] END_LOAD_SCHEDULER: End scheduler "s017" with entities [EventEntity, EventEntity], work=355*
 97: 0x03FA [0x45] LOAD_SCHEDULED_TASK: Load scheduler "s018" with entities [EventEntity, EventEntity], work=[355*, 0*]
 98: 0x040B [0x2B] Mainchelite (ID: 17105383/0x010501E7) [11039*]:
    → "Now let us begi--"
 99: 0x0412 [0x23] WAIT_FOR_DIALOG_INTERACTION
100: 0x0413 [0x52] END_LOAD_SCHEDULER: End scheduler "s018" with entities [EventEntity, EventEntity], work=355*
101: 0x0422 [0x45] LOAD_SCHEDULED_TASK: Load scheduler "s001" with entities [EventEntity, EventEntity], work=[355*, 0*]
102: 0x0433 [0x66] LOAD_EXT_SCHEDULER_MAIN: Load scheduler "tlk0" with entities [Hestrefalcat (ID: 17105472/0x01050240), Hestrefalcat (ID: 17105472/0x01050240)], work=29*
103: 0x0442 [0x2B] Hestrefalcat (ID: 17105472/0x01050240) [11040*]:
    → "Did you not witness the conflagration that scorched the early-morning heavens?"
104: 0x0449 [0x23] WAIT_FOR_DIALOG_INTERACTION
105: 0x044A [0x2B] Hestrefalcat (ID: 17105472/0x01050240) [11041*]:
    → "The Bastokan heretics have once again defied the laws of the benevolent Altana with their godless warmachines."
106: 0x0451 [0x23] WAIT_FOR_DIALOG_INTERACTION
107: 0x0452 [0x66] LOAD_EXT_SCHEDULER_MAIN: Load scheduler "tlk1" with entities [Hestrefalcat (ID: 17105472/0x01050240), Hestrefalcat (ID: 17105472/0x01050240)], work=29*
108: 0x0461 [0x52] END_LOAD_SCHEDULER: End scheduler "s001" with entities [EventEntity, EventEntity], work=355*
109: 0x0470 [0x45] LOAD_SCHEDULED_TASK: Load scheduler "s019" with entities [EventEntity, EventEntity], work=[355*, 0*]
110: 0x0481 [0x66] LOAD_EXT_SCHEDULER_MAIN: Load scheduler "tlk0" with entities [Minautte (ID: 17105473/0x01050241), Minautte (ID: 17105473/0x01050241)], work=39*
111: 0x0490 [0x2B] Minautte (ID: 17105473/0x01050241) [11042*]:
    → "Can you be so certain, Hestrefalcat? To me it closely resembled a great, fiery dragon, diving down to seize her prey."
112: 0x0497 [0x23] WAIT_FOR_DIALOG_INTERACTION
113: 0x0498 [0x52] END_LOAD_SCHEDULER: End scheduler "s019" with entities [EventEntity, EventEntity], work=355*
114: 0x04A7 [0x45] LOAD_SCHEDULED_TASK: Load scheduler "s020" with entities [EventEntity, EventEntity], work=[355*, 0*]
115: 0x04B8 [0x2B] Minautte (ID: 17105473/0x01050241) [11043*]:
    → "Mayhap it was a wicked omen, portending the advent of a great evil..."
116: 0x04BF [0x23] WAIT_FOR_DIALOG_INTERACTION
117: 0x04C0 [0x66] LOAD_EXT_SCHEDULER_MAIN: Load scheduler "tlk1" with entities [Minautte (ID: 17105473/0x01050241), Minautte (ID: 17105473/0x01050241)], work=39*
118: 0x04CF [0x52] END_LOAD_SCHEDULER: End scheduler "s020" with entities [EventEntity, EventEntity], work=355*
119: 0x04DE [0x45] LOAD_SCHEDULED_TASK: Load scheduler "s021" with entities [EventEntity, EventEntity], work=[355*, 0*]
120: 0x04EF [0x66] LOAD_EXT_SCHEDULER_MAIN: Load scheduler "thk1" with entities [Rachelassiond (ID: 17105474/0x01050242), Rachelassiond (ID: 17105474/0x01050242)], work=29*
121: 0x04FE [0x2B] Rachelassiond (ID: 17105474/0x01050242) [11044*]:
    → "The eyes of the youth see only that which they wish. 'Twas not a mysterious weapon nor a portent of doom; 'twas the smouldering carcass of a flying wooden beast, I tell you!"
122: 0x0505 [0x23] WAIT_FOR_DIALOG_INTERACTION
123: 0x0506 [0x66] LOAD_EXT_SCHEDULER_MAIN: Load scheduler "thk2" with entities [Rachelassiond (ID: 17105474/0x01050242), Rachelassiond (ID: 17105474/0x01050242)], work=29*
124: 0x0515 [0x52] END_LOAD_SCHEDULER: End scheduler "s021" with entities [EventEntity, EventEntity], work=355*
125: 0x0524 [0x45] LOAD_SCHEDULED_TASK: Load scheduler "s022" with entities [EventEntity, EventEntity], work=[355*, 0*]
126: 0x0535 [0x53] WAIT_SCHEDULER_TASK: Wait for scheduler "thk2" with entities [Rachelassiond (ID: 17105474/0x01050242), Rachelassiond (ID: 17105474/0x01050242)]
127: 0x0542 [0x6E] Hestrefalcat (ID: 17105472/0x01050240) uses emote 26*
128: 0x0549 [0x99] Wait for Hestrefalcat (ID: 17105472/0x01050240) animation to complete
129: 0x054E [0x2B] Hestrefalcat (ID: 17105472/0x01050240) [11045*]:
    → "Gods forfend! Sir Rachelassiond, are you to have us believe that trees can fly!?"
130: 0x0555 [0x23] WAIT_FOR_DIALOG_INTERACTION
131: 0x0556 [0x52] END_LOAD_SCHEDULER: End scheduler "s022" with entities [EventEntity, EventEntity], work=355*
132: 0x0565 [0x6E] Rachelassiond (ID: 17105474/0x01050242) uses emote 25*
133: 0x056C [0x99] Wait for Rachelassiond (ID: 17105474/0x01050242) animation to complete
134: 0x0571 [0x99] Wait for Rachelassiond (ID: 17105474/0x01050242) animation to complete
135: 0x0576 [0x45] LOAD_SCHEDULED_TASK: Load scheduler "s023" with entities [EventEntity, EventEntity], work=[355*, 0*]
136: 0x0587 [0x2B] Rachelassiond (ID: 17105474/0x01050242) [11046*]:
    → "Wh-why, I...!"
137: 0x058E [0x23] WAIT_FOR_DIALOG_INTERACTION
138: 0x058F [0x52] END_LOAD_SCHEDULER: End scheduler "s023" with entities [EventEntity, EventEntity], work=355*
139: 0x059E [0x6E] Mainchelite (ID: 17105383/0x010501E7) uses emote 26*
140: 0x05A5 [0x99] Wait for Mainchelite (ID: 17105383/0x010501E7) animation to complete
141: 0x05AA [0x99] Wait for Mainchelite (ID: 17105383/0x010501E7) animation to complete
142: 0x05AF [0x45] LOAD_SCHEDULED_TASK: Load scheduler "s002" with entities [EventEntity, EventEntity], work=[355*, 0*]
143: 0x05C0 [0x2B] Mainchelite (ID: 17105383/0x010501E7) [11047*]:
    → "I apologize for the intrusion. Gossip runs rampant among our ranks, but there is little we can do to stop it. However, this time, there seems to be some truth behind the prattling of the knights, for our scouts also recorded countless sightings of this queer phenomenon."
144: 0x05C7 [0x23] WAIT_FOR_DIALOG_INTERACTION
145: 0x05C8 [0x4A] Mainchelite (ID: 17105383/0x010501E7) looks at LocalPlayer
146: 0x05D1 [0x4A] LocalPlayer looks at Mainchelite (ID: 17105383/0x010501E7)
147: 0x05DA [0x55] WAIT_LOAD_SCHEDULER: Wait for scheduler "s002" with entities [EventEntity, EventEntity], work=355*
148: 0x05E9 [0x45] LOAD_SCHEDULED_TASK: Load scheduler "s024" with entities [EventEntity, EventEntity], work=[355*, 0*]
149: 0x05FA [0x6F] WAIT_FRAME_DELAY: Yield until WaitTime reaches zero
150: 0x05FB [0x76] CHECK_ENTITY_RENDER_FLAGS: Wait until Mainchelite (ID: 17105383/0x010501E7) Render.Flags0 and Render.Flags3 conditions are met
151: 0x0600 [0x6F] WAIT_FRAME_DELAY: Yield until WaitTime reaches zero
152: 0x0601 [0x76] CHECK_ENTITY_RENDER_FLAGS: Wait until LocalPlayer Render.Flags0 and Render.Flags3 conditions are met
153: 0x0606 [0x2B] Mainchelite (ID: 17105383/0x010501E7) [11048*]:
    → "Unfortunately, the details contained in these reports were quite sketchy. Some claimed the flames to be a weapon of some sort, while others swore it was a hideous daemon, spawned from the loins of the Shadow Lord himself."
154: 0x060D [0x23] WAIT_FOR_DIALOG_INTERACTION
155: 0x060E [0x66] LOAD_EXT_SCHEDULER_MAIN: Load scheduler "thk1" with entities [Mainchelite (ID: 17105383/0x010501E7), Mainchelite (ID: 17105383/0x010501E7)], work=29*
156: 0x061D [0x2B] Mainchelite (ID: 17105383/0x010501E7) [11049*]:
    → "Whatever the case, it is our duty to determine the truth behind this episode and quell the rumors surrounding it before unwanted panic spreads to the common folk."
157: 0x0624 [0x23] WAIT_FOR_DIALOG_INTERACTION
158: 0x0625 [0x66] LOAD_EXT_SCHEDULER_MAIN: Load scheduler "thk2" with entities [Mainchelite (ID: 17105383/0x010501E7), Mainchelite (ID: 17105383/0x010501E7)], work=29*
159: 0x0634 [0x52] END_LOAD_SCHEDULER: End scheduler "s024" with entities [EventEntity, EventEntity], work=355*
160: 0x0643 [0x45] LOAD_SCHEDULED_TASK: Load scheduler "s025" with entities [EventEntity, EventEntity], work=[355*, 0*]
161: 0x0654 [0x2B] Mainchelite (ID: 17105383/0x010501E7) [11050*]:
    → "And that shall be your test. I wish you to travel into the nearby holt and search for clues."
162: 0x065B [0x23] WAIT_FOR_DIALOG_INTERACTION
163: 0x065C [0x53] WAIT_SCHEDULER_TASK: Wait for scheduler "thk2" with entities [Mainchelite (ID: 17105383/0x010501E7), Mainchelite (ID: 17105383/0x010501E7)]
164: 0x0669 [0x2B] Mainchelite (ID: 17105383/0x010501E7) [11051*]:
    → "Once you have found at least three leads, report back to me. I shall be waiting here."
165: 0x0670 [0x23] WAIT_FOR_DIALOG_INTERACTION
166: 0x0671 [0x52] END_LOAD_SCHEDULER: End scheduler "s025" with entities [EventEntity, EventEntity], work=355*
167: 0x0680 [0x1B] RETURN
```

#### Data or dead code:

```
# Dead code (unreachable instructions):
     0x0341 [0x01] GOTO 0x0344
```

### Event 8

#### Metadata

| Field        | Value     |
|--------------|-----------|
| Entrypoint   | 0x0681    |
| Data Size    | 723 bytes |
| Instructions | 91        |

```
      00 01 02 03 04 05 06 07  08 09 0A 0B 0C 0D 0E 0F
      -- -- -- -- -- -- -- --  -- -- -- -- -- -- -- --
0680:    42 20 01 46 01 1A C2  27 38 0A 80 92 01 E7 01   B .F...'8......
0690: 05 01 92 01 40 02 05 01  92 01 41 02 05 01 92 01  ....@.....A.....
06A0: 42 02 05 01 92 01 43 02  05 01 92 01 44 02 05 01  B.....C.....D...
06B0: 92 01 ED 01 05 01 94 01  F0 FF FF 7F 94 01 E7 01  ................
06C0: 05 01 94 01 40 02 05 01  94 01 41 02 05 01 94 01  ....@.....A.....
06D0: 42 02 05 01 94 01 43 02  05 01 94 01 44 02 05 01  B.....C.....D...
06E0: 94 01 ED 01 05 01 94 01  3F 02 05 01 BA F0 FF FF  ........?.......
06F0: 7F 0B 80 0C 80 0D 80 0E  80 BA 40 02 05 01 0F 80  ..........@.....
0700: 10 80 11 80 12 80 BA 41  02 05 01 13 80 14 80 11  .......A........
0710: 80 15 80 BA 42 02 05 01  16 80 17 80 11 80 18 80  ....B...........
0720: 4A E7 01 05 01 F0 FF FF  7F 4A F0 FF FF 7F E7 01  J........J......
0730: 05 01 4A 40 02 05 01 42  02 05 01 4A 41 02 05 01  ..J@...B...JA...
0740: 40 02 05 01 4A 42 02 05  01 40 02 05 01 4E 00 F0  @...JB...@...N..
0750: FF FF 7F 4E 00 E7 01 05  01 4E 01 40 02 05 01 4E  ...N.....N.@...N
0760: 01 41 02 05 01 4E 01 42  02 05 01 4E 01 43 02 05  .A...N.B...N.C..
0770: 01 4E 01 44 02 05 01 4E  01 ED 01 05 01 80 F0 FF  .N.D...N........
0780: FF 7F 80 E7 01 05 01 80  40 02 05 01 80 41 02 05  ........@....A..
0790: 01 80 42 02 05 01 80 43  02 05 01 80 44 02 05 01  ..B....C....D...
07A0: 80 ED 01 05 01 45 19 80  F8 FF FF 7F F8 FF FF 7F  .....E..........
07B0: 73 30 30 30 00 80 45 1A  80 F8 FF FF 7F F8 FF FF  s000..E.........
07C0: 7F 66 64 69 32 00 80 66  03 80 E7 01 05 01 E7 01  .fdi2..f........
07D0: 05 01 74 6C 6B 30 2B E7  01 05 01 34 80 23 66 03  ..tlk0+....4.#f.
07E0: 80 E7 01 05 01 E7 01 05  01 74 6C 6B 31 52 19 80  .........tlk1R..
07F0: F8 FF FF 7F F8 FF FF 7F  73 30 30 30 45 19 80 F8  ........s000E...
0800: FF FF 7F F8 FF FF 7F 73  30 32 36 00 80 24 1F 80  .......s026..$..
0810: 00 80 00 80 25 02 00 10  00 80 00 25 08 03 01 10  ....%......%....
0820: 00 80 01 60 08 02 00 10  01 80 00 60 08 52 19 80  ...`.......`.R..
0830: F8 FF FF 7F F8 FF FF 7F  73 30 32 36 45 19 80 F8  ........s026E...
0840: FF FF 7F F8 FF FF 7F 73  30 31 36 00 80 2B E7 01  .......s016..+..
0850: 05 01 20 80 23 03 01 10  01 80 01 FE 08 01 60 08  .. .#.........`.
0860: 52 19 80 F8 FF FF 7F F8  FF FF 7F 73 30 32 36 45  R..........s026E
0870: 19 80 F8 FF FF 7F F8 FF  FF 7F 73 30 32 37 00 80  ..........s027..
0880: 66 03 80 E7 01 05 01 E7  01 05 01 74 6C 6B 30 2B  f..........tlk0+
0890: E7 01 05 01 35 80 23 52  19 80 F8 FF FF 7F F8 FF  ....5.#R........
08A0: FF 7F 73 30 32 37 45 19  80 F8 FF FF 7F F8 FF FF  ..s027E.........
08B0: 7F 73 30 32 39 00 80 2B  E7 01 05 01 36 80 23 2B  .s029..+....6.#+
08C0: E7 01 05 01 37 80 23 52  19 80 F8 FF FF 7F F8 FF  ....7.#R........
08D0: FF 7F 73 30 32 39 45 19  80 F8 FF FF 7F F8 FF FF  ..s029E.........
08E0: 7F 73 30 32 38 00 80 2B  E7 01 05 01 38 80 23 66  .s028..+....8.#f
08F0: 03 80 E7 01 05 01 E7 01  05 01 74 6C 6B 31 1A C2  ..........tlk1..
0900: 27 52 19 80 F8 FF FF 7F  F8 FF FF 7F 73 30 32 38  'R..........s028
0910: 52 19 80 F8 FF FF 7F F8  FF FF 7F 73 30 31 36 46  R..........s016F
0920: 00 45 21 80 F8 FF FF 7F  F8 FF FF 7F 77 6F 66 66  .E!.........woff
0930: 00 80 55 21 80 F8 FF FF  7F F8 FF FF 7F 77 6F 66  ..U!.........wof
0940: 66 45 1A 80 F0 FF FF 7F  F0 FF FF 7F 66 64 69 32  fE..........fdi2
0950: 00 80 21 00                                       ..!.            
```

#### Opcodes

```
  0: 0x0681 [0x42] SET_CLI_EVENT_CANCEL_DATA()
  1: 0x0682 [0x20] SET_CLI_EVENT_UC_FLAG: Lock player control
  2: 0x0684 [0x46] CAMERA_CONTROL: Disable user control
  3: 0x0686 [0x1A] CALL_SUBROUTINE(address=0x27C2)
  4: 0x0689 [0x38] SET_CLIENT_EVENT_MODE(mode=19*)
  5: 0x068C [0x92] Mainchelite (ID: 17105383/0x010501E7)->Render.Flags3 ^= 0x01
  6: 0x0692 [0x92] Hestrefalcat (ID: 17105472/0x01050240)->Render.Flags3 ^= 0x01
  7: 0x0698 [0x92] Minautte (ID: 17105473/0x01050241)->Render.Flags3 ^= 0x01
  8: 0x069E [0x92] Rachelassiond (ID: 17105474/0x01050242)->Render.Flags3 ^= 0x01
  9: 0x06A4 [0x92] Spencer (ID: 17105475/0x01050243)->Render.Flags3 ^= 0x01
 10: 0x06AA [0x92] Gerwulf (ID: 17105476/0x01050244)->Render.Flags3 ^= 0x01
 11: 0x06B0 [0x92] Rongelouts N Distaud (ID: 17105389/0x010501ED)->Render.Flags3 ^= 0x01
 12: 0x06B6 [0x94] LocalPlayer->Render.Flags3 ^= 0x01
 13: 0x06BC [0x94] Mainchelite (ID: 17105383/0x010501E7)->Render.Flags3 ^= 0x01
 14: 0x06C2 [0x94] Hestrefalcat (ID: 17105472/0x01050240)->Render.Flags3 ^= 0x01
 15: 0x06C8 [0x94] Minautte (ID: 17105473/0x01050241)->Render.Flags3 ^= 0x01
 16: 0x06CE [0x94] Rachelassiond (ID: 17105474/0x01050242)->Render.Flags3 ^= 0x01
 17: 0x06D4 [0x94] Spencer (ID: 17105475/0x01050243)->Render.Flags3 ^= 0x01
 18: 0x06DA [0x94] Gerwulf (ID: 17105476/0x01050244)->Render.Flags3 ^= 0x01
 19: 0x06E0 [0x94] Rongelouts N Distaud (ID: 17105389/0x010501ED)->Render.Flags3 ^= 0x01
 20: 0x06E6 [0x94] ??? (ID: 17105471/0x0105023F)->Render.Flags3 ^= 0x01
 21: 0x06EC [0xBA] SET_ENTITY_POSITION(entity_id=LocalPlayer, pos_x=-15.412*, pos_z=-28.331*, pos_y=1.699*, direction=91.4°*)
 22: 0x06F9 [0xBA] SET_ENTITY_POSITION(entity_id=Hestrefalcat (ID: 17105472/0x01050240), pos_x=-26.539*, pos_z=-29.980*, pos_y=1.999*, direction=59.5°*)
 23: 0x0706 [0xBA] SET_ENTITY_POSITION(entity_id=Minautte (ID: 17105473/0x01050241), pos_x=-27.605*, pos_z=-31.223*, pos_y=1.999*, direction=324.7°*)
 24: 0x0713 [0xBA] SET_ENTITY_POSITION(entity_id=Rachelassiond (ID: 17105474/0x01050242), pos_x=-25.930*, pos_z=-32.770*, pos_y=1.999*, direction=264.9°*)
 25: 0x0720 [0x4A] Mainchelite (ID: 17105383/0x010501E7) looks at LocalPlayer
 26: 0x0729 [0x4A] LocalPlayer looks at Mainchelite (ID: 17105383/0x010501E7)
 27: 0x0732 [0x4A] Hestrefalcat (ID: 17105472/0x01050240) looks at Rachelassiond (ID: 17105474/0x01050242)
 28: 0x073B [0x4A] Minautte (ID: 17105473/0x01050241) looks at Hestrefalcat (ID: 17105472/0x01050240)
 29: 0x0744 [0x4A] Rachelassiond (ID: 17105474/0x01050242) looks at Hestrefalcat (ID: 17105472/0x01050240)
 30: 0x074D [0x4E] SET_ENTITY_HIDE_FLAG: Show LocalPlayer
 31: 0x0753 [0x4E] SET_ENTITY_HIDE_FLAG: Show Mainchelite (ID: 17105383/0x010501E7)
 32: 0x0759 [0x4E] SET_ENTITY_HIDE_FLAG: Hide Hestrefalcat (ID: 17105472/0x01050240)
 33: 0x075F [0x4E] SET_ENTITY_HIDE_FLAG: Hide Minautte (ID: 17105473/0x01050241)
 34: 0x0765 [0x4E] SET_ENTITY_HIDE_FLAG: Hide Rachelassiond (ID: 17105474/0x01050242)
 35: 0x076B [0x4E] SET_ENTITY_HIDE_FLAG: Hide Spencer (ID: 17105475/0x01050243)
 36: 0x0771 [0x4E] SET_ENTITY_HIDE_FLAG: Hide Gerwulf (ID: 17105476/0x01050244)
 37: 0x0777 [0x4E] SET_ENTITY_HIDE_FLAG: Hide Rongelouts N Distaud (ID: 17105389/0x010501ED)
 38: 0x077D [0x80] LOAD_WAIT(entity=LocalPlayer)
 39: 0x0782 [0x80] LOAD_WAIT(entity=Mainchelite (ID: 17105383/0x010501E7))
 40: 0x0787 [0x80] LOAD_WAIT(entity=Hestrefalcat (ID: 17105472/0x01050240))
 41: 0x078C [0x80] LOAD_WAIT(entity=Minautte (ID: 17105473/0x01050241))
 42: 0x0791 [0x80] LOAD_WAIT(entity=Rachelassiond (ID: 17105474/0x01050242))
 43: 0x0796 [0x80] LOAD_WAIT(entity=Spencer (ID: 17105475/0x01050243))
 44: 0x079B [0x80] LOAD_WAIT(entity=Gerwulf (ID: 17105476/0x01050244))
 45: 0x07A0 [0x80] LOAD_WAIT(entity=Rongelouts N Distaud (ID: 17105389/0x010501ED))
 46: 0x07A5 [0x45] LOAD_SCHEDULED_TASK: Load scheduler "s000" with entities [EventEntity, EventEntity], work=[355*, 0*]
 47: 0x07B6 [0x45] LOAD_SCHEDULED_TASK: Load scheduler "fdi2" with entities [EventEntity, EventEntity], work=[200*, 0*]
 48: 0x07C7 [0x66] LOAD_EXT_SCHEDULER_MAIN: Load scheduler "tlk0" with entities [Mainchelite (ID: 17105383/0x010501E7), Mainchelite (ID: 17105383/0x010501E7)], work=29*
 49: 0x07D6 [0x2B] Mainchelite (ID: 17105383/0x010501E7) [11059*]:
    → "Welcome back, <Player>! Have you changed your mind regarding the Knights of the Iron Ram?"
 50: 0x07DD [0x23] WAIT_FOR_DIALOG_INTERACTION
 51: 0x07DE [0x66] LOAD_EXT_SCHEDULER_MAIN: Load scheduler "tlk1" with entities [Mainchelite (ID: 17105383/0x010501E7), Mainchelite (ID: 17105383/0x010501E7)], work=29*
 52: 0x07ED [0x52] END_LOAD_SCHEDULER: End scheduler "s000" with entities [EventEntity, EventEntity], work=355*
 53: 0x07FC [0x45] LOAD_SCHEDULED_TASK: Load scheduler "s026" with entities [EventEntity, EventEntity], work=[355*, 0*]
 54: 0x080D [0x24] CREATE_DIALOG(message_id=11036*, default_option=0*, option_flags=0*)
    → "Pledge allegiance to San d'Oria? [Yes./No.]"
 55: 0x0814 [0x25] WAIT_DIALOG_SELECT()
 56: 0x0815 [0x02] IF !(Work_Zone[0] == 0*) GOTO 0x0825
 57: 0x081D [0x03] Work_Zone[1] = 0*
 58: 0x0822 [0x01] GOTO 0x0860
 59: 0x0825 [0x02] IF !(Work_Zone[0] == 1*) GOTO 0x0860
 60: 0x082D [0x52] END_LOAD_SCHEDULER: End scheduler "s026" with entities [EventEntity, EventEntity], work=355*
 61: 0x083C [0x45] LOAD_SCHEDULED_TASK: Load scheduler "s016" with entities [EventEntity, EventEntity], work=[355*, 0*]
 62: 0x084D [0x2B] Mainchelite (ID: 17105383/0x010501E7) [11037*]:
    → "Then I can assist you no longer. Begone."
 63: 0x0854 [0x23] WAIT_FOR_DIALOG_INTERACTION
 64: 0x0855 [0x03] Work_Zone[1] = 1*
 65: 0x085A [0x01] GOTO 0x08FE

SUBROUTINE_0860:
 66: 0x0860 [0x52] END_LOAD_SCHEDULER: End scheduler "s026" with entities [EventEntity, EventEntity], work=355*
 67: 0x086F [0x45] LOAD_SCHEDULED_TASK: Load scheduler "s027" with entities [EventEntity, EventEntity], work=[355*, 0*]
 68: 0x0880 [0x66] LOAD_EXT_SCHEDULER_MAIN: Load scheduler "tlk0" with entities [Mainchelite (ID: 17105383/0x010501E7), Mainchelite (ID: 17105383/0x010501E7)], work=29*
 69: 0x088F [0x2B] Mainchelite (ID: 17105383/0x010501E7) [11061*]:
    → "Wonderful! Now let us begin your trial."
 70: 0x0896 [0x23] WAIT_FOR_DIALOG_INTERACTION
 71: 0x0897 [0x52] END_LOAD_SCHEDULER: End scheduler "s027" with entities [EventEntity, EventEntity], work=355*
 72: 0x08A6 [0x45] LOAD_SCHEDULED_TASK: Load scheduler "s029" with entities [EventEntity, EventEntity], work=[355*, 0*]
 73: 0x08B7 [0x2B] Mainchelite (ID: 17105383/0x010501E7) [11062*]:
    → "First, I regret to say that while we continued our search for clues surrounding the fiery object in your absence, we found nothing of import."
 74: 0x08BE [0x23] WAIT_FOR_DIALOG_INTERACTION
 75: 0x08BF [0x2B] Mainchelite (ID: 17105383/0x010501E7) [11063*]:
    → "We would have you return to East Ronfaure and locate any object that may shed light on the mystery before us."
 76: 0x08C6 [0x23] WAIT_FOR_DIALOG_INTERACTION
 77: 0x08C7 [0x52] END_LOAD_SCHEDULER: End scheduler "s029" with entities [EventEntity, EventEntity], work=355*
 78: 0x08D6 [0x45] LOAD_SCHEDULED_TASK: Load scheduler "s028" with entities [EventEntity, EventEntity], work=[355*, 0*]
 79: 0x08E7 [0x2B] Mainchelite (ID: 17105383/0x010501E7) [11064*]:
    → "Once you have found three, bring them back here for inspection."
 80: 0x08EE [0x23] WAIT_FOR_DIALOG_INTERACTION
 81: 0x08EF [0x66] LOAD_EXT_SCHEDULER_MAIN: Load scheduler "tlk1" with entities [Mainchelite (ID: 17105383/0x010501E7), Mainchelite (ID: 17105383/0x010501E7)], work=29*

SUBROUTINE_08FE:
 82: 0x08FE [0x1A] CALL_SUBROUTINE(address=0x27C2)
 83: 0x0901 [0x52] END_LOAD_SCHEDULER: End scheduler "s028" with entities [EventEntity, EventEntity], work=355*
 84: 0x0910 [0x52] END_LOAD_SCHEDULER: End scheduler "s016" with entities [EventEntity, EventEntity], work=355*
 85: 0x091F [0x46] CAMERA_CONTROL: Restore default settings
 86: 0x0921 [0x45] LOAD_SCHEDULED_TASK: Load scheduler "woff" with entities [EventEntity, EventEntity], work=[352*, 0*]
 87: 0x0932 [0x55] WAIT_LOAD_SCHEDULER: Wait for scheduler "woff" with entities [EventEntity, EventEntity], work=352*
 88: 0x0941 [0x45] LOAD_SCHEDULED_TASK: Load scheduler "fdi2" with entities [LocalPlayer, LocalPlayer], work=[200*, 0*]
 89: 0x0952 [0x21] END_EVENT
 90: 0x0953 [0x00] END_REQSTACK()
```

#### Data or dead code:

```
# Dead code (unreachable instructions):
     0x085D [0x01] GOTO 0x0860
```

### Event 9

#### Metadata

| Field        | Value    |
|--------------|----------|
| Entrypoint   | 0x0954   |
| Data Size    | 55 bytes |
| Instructions | 11       |

```
      00 01 02 03 04 05 06 07  08 09 0A 0B 0C 0D 0E 0F
      -- -- -- -- -- -- -- --  -- -- -- -- -- -- -- --
0950:             1E F0 FF FF  7F 6F 70 66 03 80 E7 01      .....opf....
0960: 05 01 E7 01 05 01 74 6C  6B 30 2B E7 01 05 01 08  ......tlk0+.....
0970: 80 23 2B E7 01 05 01 09  80 23 66 03 80 E7 01 05  .#+......#f.....
0980: 01 E7 01 05 01 74 6C 6B  31 21 00                 .....tlk1!.     
```

#### Opcodes

```
  0: 0x0954 [0x1E] EventEntity looks at LocalPlayer and starts talking
  1: 0x0959 [0x6F] WAIT_FRAME_DELAY: Yield until WaitTime reaches zero
  2: 0x095A [0x70] WAIT_ENTITY_RENDER_FLAG: Wait while EventEntity->Render.Flags3 bit 2 is set (cancel turn if not)
  3: 0x095B [0x66] LOAD_EXT_SCHEDULER_MAIN: Load scheduler "tlk0" with entities [Mainchelite (ID: 17105383/0x010501E7), Mainchelite (ID: 17105383/0x010501E7)], work=29*
  4: 0x096A [0x2B] Mainchelite (ID: 17105383/0x010501E7) [11026*]:
    → "Currently, we are recruiting squires to serve within the Royal Knights' Iron Ram regiment. Serve your king, defend your nation, and possibly earn a chance at nobility... What say you?"
  5: 0x0971 [0x23] WAIT_FOR_DIALOG_INTERACTION
  6: 0x0972 [0x2B] Mainchelite (ID: 17105383/0x010501E7) [11024*]:
    → "You cannot pledge your allegiance to San d'Oria while undertaking the initiation ritual of another nation. Go sever your ties with that nation, then come speak with me once more."
  7: 0x0979 [0x23] WAIT_FOR_DIALOG_INTERACTION
  8: 0x097A [0x66] LOAD_EXT_SCHEDULER_MAIN: Load scheduler "tlk1" with entities [Mainchelite (ID: 17105383/0x010501E7), Mainchelite (ID: 17105383/0x010501E7)], work=29*
  9: 0x0989 [0x21] END_EVENT
 10: 0x098A [0x00] END_REQSTACK()
```

### Event 10

#### Metadata

| Field        | Value     |
|--------------|-----------|
| Entrypoint   | 0x098B    |
| Data Size    | 572 bytes |
| Instructions | 80        |

```
      00 01 02 03 04 05 06 07  08 09 0A 0B 0C 0D 0E 0F
      -- -- -- -- -- -- -- --  -- -- -- -- -- -- -- --
0980:                                   42 20 01 46 01             B .F.
0990: 1A C2 27 38 0A 80 92 01  E7 01 05 01 92 01 40 02  ..'8..........@.
09A0: 05 01 92 01 41 02 05 01  92 01 42 02 05 01 92 01  ....A.....B.....
09B0: 43 02 05 01 92 01 44 02  05 01 92 01 ED 01 05 01  C.....D.........
09C0: 94 01 F0 FF FF 7F 94 01  E7 01 05 01 94 01 40 02  ..............@.
09D0: 05 01 94 01 41 02 05 01  94 01 42 02 05 01 94 01  ....A.....B.....
09E0: 43 02 05 01 94 01 44 02  05 01 94 01 ED 01 05 01  C.....D.........
09F0: 94 01 3F 02 05 01 BA F0  FF FF 7F 0B 80 0C 80 0D  ..?.............
0A00: 80 0E 80 BA 40 02 05 01  0F 80 10 80 11 80 12 80  ....@...........
0A10: BA 41 02 05 01 13 80 14  80 11 80 15 80 BA 42 02  .A............B.
0A20: 05 01 16 80 17 80 11 80  18 80 4A E7 01 05 01 F0  ..........J.....
0A30: FF FF 7F 4A F0 FF FF 7F  E7 01 05 01 4A 40 02 05  ...J........J@..
0A40: 01 42 02 05 01 4A 41 02  05 01 40 02 05 01 4A 42  .B...JA...@...JB
0A50: 02 05 01 40 02 05 01 7B  E7 01 05 01 7B F0 FF FF  ...@...{....{...
0A60: 7F 4E 00 F0 FF FF 7F 4E  00 E7 01 05 01 4E 01 40  .N.....N.....N.@
0A70: 02 05 01 4E 01 41 02 05  01 4E 01 42 02 05 01 4E  ...N.A...N.B...N
0A80: 01 43 02 05 01 4E 01 44  02 05 01 4E 01 ED 01 05  .C...N.D...N....
0A90: 01 80 F0 FF FF 7F 80 E7  01 05 01 80 40 02 05 01  ............@...
0AA0: 80 41 02 05 01 80 42 02  05 01 45 19 80 F8 FF FF  .A....B...E.....
0AB0: 7F F8 FF FF 7F 73 30 30  30 00 80 45 1A 80 F8 FF  .....s000..E....
0AC0: FF 7F F8 FF FF 7F 66 64  69 32 00 80 66 03 80 E7  ......fdi2..f...
0AD0: 01 05 01 E7 01 05 01 74  6C 6B 30 2B E7 01 05 01  .......tlk0+....
0AE0: 39 80 23 2B E7 01 05 01  3A 80 23 2B E7 01 05 01  9.#+....:.#+....
0AF0: 3B 80 23 2B E7 01 05 01  3C 80 23 66 03 80 E7 01  ;.#+....<.#f....
0B00: 05 01 E7 01 05 01 74 6C  6B 31 45 19 80 F8 FF FF  ......tlk1E.....
0B10: 7F F8 FF FF 7F 73 30 32  36 00 80 24 1F 80 00 80  .....s026..$....
0B20: 00 80 25 02 00 10 00 80  00 33 0B 03 01 10 00 80  ..%......3......
0B30: 01 7D 0B 02 00 10 01 80  00 7D 0B 03 01 10 01 80  .}.......}......
0B40: 52 19 80 F8 FF FF 7F F8  FF FF 7F 73 30 32 36 45  R..........s026E
0B50: 19 80 F8 FF FF 7F F8 FF  FF 7F 73 30 31 35 00 80  ..........s015..
0B60: 2B E7 01 05 01 20 80 23  52 19 80 F8 FF FF 7F F8  +.... .#R.......
0B70: FF FF 7F 73 30 31 35 01  8F 0B 01 7D 0B 52 19 80  ...s015....}.R..
0B80: F8 FF FF 7F F8 FF FF 7F  73 30 32 36 1A 9D 03 1A  ........s026....
0B90: C2 27 46 00 45 21 80 F8  FF FF 7F F8 FF FF 7F 77  .'F.E!.........w
0BA0: 6F 66 66 00 80 55 21 80  F8 FF FF 7F F8 FF FF 7F  off..U!.........
0BB0: 77 6F 66 66 45 1A 80 F0  FF FF 7F F0 FF FF 7F 66  woffE..........f
0BC0: 64 69 32 00 80 21 00                              di2..!.         
```

#### Opcodes

```
  0: 0x098B [0x42] SET_CLI_EVENT_CANCEL_DATA()
  1: 0x098C [0x20] SET_CLI_EVENT_UC_FLAG: Lock player control
  2: 0x098E [0x46] CAMERA_CONTROL: Disable user control
  3: 0x0990 [0x1A] CALL_SUBROUTINE(address=0x27C2)
  4: 0x0993 [0x38] SET_CLIENT_EVENT_MODE(mode=19*)
  5: 0x0996 [0x92] Mainchelite (ID: 17105383/0x010501E7)->Render.Flags3 ^= 0x01
  6: 0x099C [0x92] Hestrefalcat (ID: 17105472/0x01050240)->Render.Flags3 ^= 0x01
  7: 0x09A2 [0x92] Minautte (ID: 17105473/0x01050241)->Render.Flags3 ^= 0x01
  8: 0x09A8 [0x92] Rachelassiond (ID: 17105474/0x01050242)->Render.Flags3 ^= 0x01
  9: 0x09AE [0x92] Spencer (ID: 17105475/0x01050243)->Render.Flags3 ^= 0x01
 10: 0x09B4 [0x92] Gerwulf (ID: 17105476/0x01050244)->Render.Flags3 ^= 0x01
 11: 0x09BA [0x92] Rongelouts N Distaud (ID: 17105389/0x010501ED)->Render.Flags3 ^= 0x01
 12: 0x09C0 [0x94] LocalPlayer->Render.Flags3 ^= 0x01
 13: 0x09C6 [0x94] Mainchelite (ID: 17105383/0x010501E7)->Render.Flags3 ^= 0x01
 14: 0x09CC [0x94] Hestrefalcat (ID: 17105472/0x01050240)->Render.Flags3 ^= 0x01
 15: 0x09D2 [0x94] Minautte (ID: 17105473/0x01050241)->Render.Flags3 ^= 0x01
 16: 0x09D8 [0x94] Rachelassiond (ID: 17105474/0x01050242)->Render.Flags3 ^= 0x01
 17: 0x09DE [0x94] Spencer (ID: 17105475/0x01050243)->Render.Flags3 ^= 0x01
 18: 0x09E4 [0x94] Gerwulf (ID: 17105476/0x01050244)->Render.Flags3 ^= 0x01
 19: 0x09EA [0x94] Rongelouts N Distaud (ID: 17105389/0x010501ED)->Render.Flags3 ^= 0x01
 20: 0x09F0 [0x94] ??? (ID: 17105471/0x0105023F)->Render.Flags3 ^= 0x01
 21: 0x09F6 [0xBA] SET_ENTITY_POSITION(entity_id=LocalPlayer, pos_x=-15.412*, pos_z=-28.331*, pos_y=1.699*, direction=91.4°*)
 22: 0x0A03 [0xBA] SET_ENTITY_POSITION(entity_id=Hestrefalcat (ID: 17105472/0x01050240), pos_x=-26.539*, pos_z=-29.980*, pos_y=1.999*, direction=59.5°*)
 23: 0x0A10 [0xBA] SET_ENTITY_POSITION(entity_id=Minautte (ID: 17105473/0x01050241), pos_x=-27.605*, pos_z=-31.223*, pos_y=1.999*, direction=324.7°*)
 24: 0x0A1D [0xBA] SET_ENTITY_POSITION(entity_id=Rachelassiond (ID: 17105474/0x01050242), pos_x=-25.930*, pos_z=-32.770*, pos_y=1.999*, direction=264.9°*)
 25: 0x0A2A [0x4A] Mainchelite (ID: 17105383/0x010501E7) looks at LocalPlayer
 26: 0x0A33 [0x4A] LocalPlayer looks at Mainchelite (ID: 17105383/0x010501E7)
 27: 0x0A3C [0x4A] Hestrefalcat (ID: 17105472/0x01050240) looks at Rachelassiond (ID: 17105474/0x01050242)
 28: 0x0A45 [0x4A] Minautte (ID: 17105473/0x01050241) looks at Hestrefalcat (ID: 17105472/0x01050240)
 29: 0x0A4E [0x4A] Rachelassiond (ID: 17105474/0x01050242) looks at Hestrefalcat (ID: 17105472/0x01050240)
 30: 0x0A57 [0x7B] Mainchelite (ID: 17105383/0x010501E7) stops talking
 31: 0x0A5C [0x7B] LocalPlayer stops talking
 32: 0x0A61 [0x4E] SET_ENTITY_HIDE_FLAG: Show LocalPlayer
 33: 0x0A67 [0x4E] SET_ENTITY_HIDE_FLAG: Show Mainchelite (ID: 17105383/0x010501E7)
 34: 0x0A6D [0x4E] SET_ENTITY_HIDE_FLAG: Hide Hestrefalcat (ID: 17105472/0x01050240)
 35: 0x0A73 [0x4E] SET_ENTITY_HIDE_FLAG: Hide Minautte (ID: 17105473/0x01050241)
 36: 0x0A79 [0x4E] SET_ENTITY_HIDE_FLAG: Hide Rachelassiond (ID: 17105474/0x01050242)
 37: 0x0A7F [0x4E] SET_ENTITY_HIDE_FLAG: Hide Spencer (ID: 17105475/0x01050243)
 38: 0x0A85 [0x4E] SET_ENTITY_HIDE_FLAG: Hide Gerwulf (ID: 17105476/0x01050244)
 39: 0x0A8B [0x4E] SET_ENTITY_HIDE_FLAG: Hide Rongelouts N Distaud (ID: 17105389/0x010501ED)
 40: 0x0A91 [0x80] LOAD_WAIT(entity=LocalPlayer)
 41: 0x0A96 [0x80] LOAD_WAIT(entity=Mainchelite (ID: 17105383/0x010501E7))
 42: 0x0A9B [0x80] LOAD_WAIT(entity=Hestrefalcat (ID: 17105472/0x01050240))
 43: 0x0AA0 [0x80] LOAD_WAIT(entity=Minautte (ID: 17105473/0x01050241))
 44: 0x0AA5 [0x80] LOAD_WAIT(entity=Rachelassiond (ID: 17105474/0x01050242))
 45: 0x0AAA [0x45] LOAD_SCHEDULED_TASK: Load scheduler "s000" with entities [EventEntity, EventEntity], work=[355*, 0*]
 46: 0x0ABB [0x45] LOAD_SCHEDULED_TASK: Load scheduler "fdi2" with entities [EventEntity, EventEntity], work=[200*, 0*]
 47: 0x0ACC [0x66] LOAD_EXT_SCHEDULER_MAIN: Load scheduler "tlk0" with entities [Mainchelite (ID: 17105383/0x010501E7), Mainchelite (ID: 17105383/0x010501E7)], work=29*
 48: 0x0ADB [0x2B] Mainchelite (ID: 17105383/0x010501E7) [11028*]:
    → "Ah, I see that you currently proffer your services to another nation."
 49: 0x0AE2 [0x23] WAIT_FOR_DIALOG_INTERACTION
 50: 0x0AE3 [0x2B] Mainchelite (ID: 17105383/0x010501E7) [11029*]:
    → "If you wish to join our noble ranks, you must first sever all ties with that organization and pledge allegiance to the crimson lion."
 51: 0x0AEA [0x23] WAIT_FOR_DIALOG_INTERACTION
 52: 0x0AEB [0x2B] Mainchelite (ID: 17105383/0x010501E7) [11030*]:
    → "Only then will you be allowed to walk the path of initiation."
 53: 0x0AF2 [0x23] WAIT_FOR_DIALOG_INTERACTION
 54: 0x0AF3 [0x2B] Mainchelite (ID: 17105383/0x010501E7) [11031*]:
    → "Is this what you wish?"
 55: 0x0AFA [0x23] WAIT_FOR_DIALOG_INTERACTION
 56: 0x0AFB [0x66] LOAD_EXT_SCHEDULER_MAIN: Load scheduler "tlk1" with entities [Mainchelite (ID: 17105383/0x010501E7), Mainchelite (ID: 17105383/0x010501E7)], work=29*
 57: 0x0B0A [0x45] LOAD_SCHEDULED_TASK: Load scheduler "s026" with entities [EventEntity, EventEntity], work=[355*, 0*]
 58: 0x0B1B [0x24] CREATE_DIALOG(message_id=11036*, default_option=0*, option_flags=0*)
    → "Pledge allegiance to San d'Oria? [Yes./No.]"
 59: 0x0B22 [0x25] WAIT_DIALOG_SELECT()
 60: 0x0B23 [0x02] IF !(Work_Zone[0] == 0*) GOTO 0x0B33
 61: 0x0B2B [0x03] Work_Zone[1] = 0*
 62: 0x0B30 [0x01] GOTO 0x0B7D
 63: 0x0B33 [0x02] IF !(Work_Zone[0] == 1*) GOTO 0x0B7D
 64: 0x0B3B [0x03] Work_Zone[1] = 1*
 65: 0x0B40 [0x52] END_LOAD_SCHEDULER: End scheduler "s026" with entities [EventEntity, EventEntity], work=355*
 66: 0x0B4F [0x45] LOAD_SCHEDULED_TASK: Load scheduler "s015" with entities [EventEntity, EventEntity], work=[355*, 0*]
 67: 0x0B60 [0x2B] Mainchelite (ID: 17105383/0x010501E7) [11037*]:
    → "Then I can assist you no longer. Begone."
 68: 0x0B67 [0x23] WAIT_FOR_DIALOG_INTERACTION
 69: 0x0B68 [0x52] END_LOAD_SCHEDULER: End scheduler "s015" with entities [EventEntity, EventEntity], work=355*
 70: 0x0B77 [0x01] GOTO 0x0B8F

SUBROUTINE_0B7D:
 71: 0x0B7D [0x52] END_LOAD_SCHEDULER: End scheduler "s026" with entities [EventEntity, EventEntity], work=355*
 72: 0x0B8C [0x1A] CALL_SUBROUTINE(address=0x039D)

SUBROUTINE_0B8F:
 73: 0x0B8F [0x1A] CALL_SUBROUTINE(address=0x27C2)
 74: 0x0B92 [0x46] CAMERA_CONTROL: Restore default settings
 75: 0x0B94 [0x45] LOAD_SCHEDULED_TASK: Load scheduler "woff" with entities [EventEntity, EventEntity], work=[352*, 0*]
 76: 0x0BA5 [0x55] WAIT_LOAD_SCHEDULER: Wait for scheduler "woff" with entities [EventEntity, EventEntity], work=352*
 77: 0x0BB4 [0x45] LOAD_SCHEDULED_TASK: Load scheduler "fdi2" with entities [LocalPlayer, LocalPlayer], work=[200*, 0*]
 78: 0x0BC5 [0x21] END_EVENT
 79: 0x0BC6 [0x00] END_REQSTACK()
```

#### Data or dead code:

```
# Dead code (unreachable instructions):
     0x0B7A [0x01] GOTO 0x0B7D
```

### Event 11

#### Metadata

| Field        | Value     |
|--------------|-----------|
| Entrypoint   | 0x0BC7    |
| Data Size    | 578 bytes |
| Instructions | 78        |

```
      00 01 02 03 04 05 06 07  08 09 0A 0B 0C 0D 0E 0F
      -- -- -- -- -- -- -- --  -- -- -- -- -- -- -- --
0BC0:                      42  20 01 46 01 1A C2 27 38         B .F...'8
0BD0: 0A 80 92 01 E7 01 05 01  92 01 40 02 05 01 92 01  ..........@.....
0BE0: 41 02 05 01 92 01 42 02  05 01 92 01 43 02 05 01  A.....B.....C...
0BF0: 92 01 44 02 05 01 92 01  ED 01 05 01 94 01 F0 FF  ..D.............
0C00: FF 7F 94 01 E7 01 05 01  94 01 40 02 05 01 94 01  ..........@.....
0C10: 41 02 05 01 94 01 42 02  05 01 94 01 43 02 05 01  A.....B.....C...
0C20: 94 01 44 02 05 01 94 01  ED 01 05 01 94 01 3F 02  ..D...........?.
0C30: 05 01 BA F0 FF FF 7F 0B  80 0C 80 0D 80 0E 80 4A  ...............J
0C40: E7 01 05 01 F0 FF FF 7F  4A F0 FF FF 7F E7 01 05  ........J.......
0C50: 01 4E 00 F0 FF FF 7F 4E  00 E7 01 05 01 80 F0 FF  .N.....N........
0C60: FF 7F 80 E7 01 05 01 45  19 80 F8 FF FF 7F F8 FF  .......E........
0C70: FF 7F 73 30 30 30 00 80  45 1A 80 F8 FF FF 7F F8  ..s000..E.......
0C80: FF FF 7F 66 64 69 32 00  80 2B E7 01 05 01 08 80  ...fdi2..+......
0C90: 23 2B E7 01 05 01 39 80  23 2B E7 01 05 01 3A 80  #+....9.#+....:.
0CA0: 23 2B E7 01 05 01 3B 80  23 2B E7 01 05 01 3C 80  #+....;.#+....<.
0CB0: 23 52 19 80 F8 FF FF 7F  F8 FF FF 7F 73 30 30 30  #R..........s000
0CC0: 45 19 80 F8 FF FF 7F F8  FF FF 7F 73 30 32 36 00  E..........s026.
0CD0: 80 24 1F 80 00 80 00 80  25 02 00 10 00 80 00 E9  .$......%.......
0CE0: 0C 03 01 10 00 80 01 24  0D 02 00 10 01 80 00 24  .......$.......$
0CF0: 0D 52 19 80 F8 FF FF 7F  F8 FF FF 7F 73 30 32 36  .R..........s026
0D00: 45 19 80 F8 FF FF 7F F8  FF FF 7F 73 30 31 36 00  E..........s016.
0D10: 80 2B E7 01 05 01 20 80  23 03 01 10 01 80 01 C2  .+.... .#.......
0D20: 0D 01 24 0D 52 19 80 F8  FF FF 7F F8 FF FF 7F 73  ..$.R..........s
0D30: 30 32 36 45 19 80 F8 FF  FF 7F F8 FF FF 7F 73 30  026E..........s0
0D40: 32 37 00 80 66 03 80 E7  01 05 01 E7 01 05 01 74  27..f..........t
0D50: 6C 6B 30 2B E7 01 05 01  35 80 23 52 19 80 F8 FF  lk0+....5.#R....
0D60: FF 7F F8 FF FF 7F 73 30  32 37 45 19 80 F8 FF FF  ......s027E.....
0D70: 7F F8 FF FF 7F 73 30 32  39 00 80 2B E7 01 05 01  .....s029..+....
0D80: 36 80 23 2B E7 01 05 01  37 80 23 52 19 80 F8 FF  6.#+....7.#R....
0D90: FF 7F F8 FF FF 7F 73 30  32 39 45 19 80 F8 FF FF  ......s029E.....
0DA0: 7F F8 FF FF 7F 73 30 32  38 00 80 2B E7 01 05 01  .....s028..+....
0DB0: 38 80 23 66 03 80 E7 01  05 01 E7 01 05 01 74 6C  8.#f..........tl
0DC0: 6B 31 1A C2 27 55 19 80  F8 FF FF 7F F8 FF FF 7F  k1..'U..........
0DD0: 73 30 32 38 46 00 45 21  80 F8 FF FF 7F F8 FF FF  s028F.E!........
0DE0: 7F 77 6F 66 66 00 80 55  21 80 F8 FF FF 7F F8 FF  .woff..U!.......
0DF0: FF 7F 77 6F 66 66 45 1A  80 F0 FF FF 7F F0 FF FF  ..woffE.........
0E00: 7F 66 64 69 32 00 80 21  00                       .fdi2..!.       
```

#### Opcodes

```
  0: 0x0BC7 [0x42] SET_CLI_EVENT_CANCEL_DATA()
  1: 0x0BC8 [0x20] SET_CLI_EVENT_UC_FLAG: Lock player control
  2: 0x0BCA [0x46] CAMERA_CONTROL: Disable user control
  3: 0x0BCC [0x1A] CALL_SUBROUTINE(address=0x27C2)
  4: 0x0BCF [0x38] SET_CLIENT_EVENT_MODE(mode=19*)
  5: 0x0BD2 [0x92] Mainchelite (ID: 17105383/0x010501E7)->Render.Flags3 ^= 0x01
  6: 0x0BD8 [0x92] Hestrefalcat (ID: 17105472/0x01050240)->Render.Flags3 ^= 0x01
  7: 0x0BDE [0x92] Minautte (ID: 17105473/0x01050241)->Render.Flags3 ^= 0x01
  8: 0x0BE4 [0x92] Rachelassiond (ID: 17105474/0x01050242)->Render.Flags3 ^= 0x01
  9: 0x0BEA [0x92] Spencer (ID: 17105475/0x01050243)->Render.Flags3 ^= 0x01
 10: 0x0BF0 [0x92] Gerwulf (ID: 17105476/0x01050244)->Render.Flags3 ^= 0x01
 11: 0x0BF6 [0x92] Rongelouts N Distaud (ID: 17105389/0x010501ED)->Render.Flags3 ^= 0x01
 12: 0x0BFC [0x94] LocalPlayer->Render.Flags3 ^= 0x01
 13: 0x0C02 [0x94] Mainchelite (ID: 17105383/0x010501E7)->Render.Flags3 ^= 0x01
 14: 0x0C08 [0x94] Hestrefalcat (ID: 17105472/0x01050240)->Render.Flags3 ^= 0x01
 15: 0x0C0E [0x94] Minautte (ID: 17105473/0x01050241)->Render.Flags3 ^= 0x01
 16: 0x0C14 [0x94] Rachelassiond (ID: 17105474/0x01050242)->Render.Flags3 ^= 0x01
 17: 0x0C1A [0x94] Spencer (ID: 17105475/0x01050243)->Render.Flags3 ^= 0x01
 18: 0x0C20 [0x94] Gerwulf (ID: 17105476/0x01050244)->Render.Flags3 ^= 0x01
 19: 0x0C26 [0x94] Rongelouts N Distaud (ID: 17105389/0x010501ED)->Render.Flags3 ^= 0x01
 20: 0x0C2C [0x94] ??? (ID: 17105471/0x0105023F)->Render.Flags3 ^= 0x01
 21: 0x0C32 [0xBA] SET_ENTITY_POSITION(entity_id=LocalPlayer, pos_x=-15.412*, pos_z=-28.331*, pos_y=1.699*, direction=91.4°*)
 22: 0x0C3F [0x4A] Mainchelite (ID: 17105383/0x010501E7) looks at LocalPlayer
 23: 0x0C48 [0x4A] LocalPlayer looks at Mainchelite (ID: 17105383/0x010501E7)
 24: 0x0C51 [0x4E] SET_ENTITY_HIDE_FLAG: Show LocalPlayer
 25: 0x0C57 [0x4E] SET_ENTITY_HIDE_FLAG: Show Mainchelite (ID: 17105383/0x010501E7)
 26: 0x0C5D [0x80] LOAD_WAIT(entity=LocalPlayer)
 27: 0x0C62 [0x80] LOAD_WAIT(entity=Mainchelite (ID: 17105383/0x010501E7))
 28: 0x0C67 [0x45] LOAD_SCHEDULED_TASK: Load scheduler "s000" with entities [EventEntity, EventEntity], work=[355*, 0*]
 29: 0x0C78 [0x45] LOAD_SCHEDULED_TASK: Load scheduler "fdi2" with entities [EventEntity, EventEntity], work=[200*, 0*]
 30: 0x0C89 [0x2B] Mainchelite (ID: 17105383/0x010501E7) [11026*]:
    → "Currently, we are recruiting squires to serve within the Royal Knights' Iron Ram regiment. Serve your king, defend your nation, and possibly earn a chance at nobility... What say you?"
 31: 0x0C90 [0x23] WAIT_FOR_DIALOG_INTERACTION
 32: 0x0C91 [0x2B] Mainchelite (ID: 17105383/0x010501E7) [11028*]:
    → "Ah, I see that you currently proffer your services to another nation."
 33: 0x0C98 [0x23] WAIT_FOR_DIALOG_INTERACTION
 34: 0x0C99 [0x2B] Mainchelite (ID: 17105383/0x010501E7) [11029*]:
    → "If you wish to join our noble ranks, you must first sever all ties with that organization and pledge allegiance to the crimson lion."
 35: 0x0CA0 [0x23] WAIT_FOR_DIALOG_INTERACTION
 36: 0x0CA1 [0x2B] Mainchelite (ID: 17105383/0x010501E7) [11030*]:
    → "Only then will you be allowed to walk the path of initiation."
 37: 0x0CA8 [0x23] WAIT_FOR_DIALOG_INTERACTION
 38: 0x0CA9 [0x2B] Mainchelite (ID: 17105383/0x010501E7) [11031*]:
    → "Is this what you wish?"
 39: 0x0CB0 [0x23] WAIT_FOR_DIALOG_INTERACTION
 40: 0x0CB1 [0x52] END_LOAD_SCHEDULER: End scheduler "s000" with entities [EventEntity, EventEntity], work=355*
 41: 0x0CC0 [0x45] LOAD_SCHEDULED_TASK: Load scheduler "s026" with entities [EventEntity, EventEntity], work=[355*, 0*]
 42: 0x0CD1 [0x24] CREATE_DIALOG(message_id=11036*, default_option=0*, option_flags=0*)
    → "Pledge allegiance to San d'Oria? [Yes./No.]"
 43: 0x0CD8 [0x25] WAIT_DIALOG_SELECT()
 44: 0x0CD9 [0x02] IF !(Work_Zone[0] == 0*) GOTO 0x0CE9
 45: 0x0CE1 [0x03] Work_Zone[1] = 0*
 46: 0x0CE6 [0x01] GOTO 0x0D24
 47: 0x0CE9 [0x02] IF !(Work_Zone[0] == 1*) GOTO 0x0D24
 48: 0x0CF1 [0x52] END_LOAD_SCHEDULER: End scheduler "s026" with entities [EventEntity, EventEntity], work=355*
 49: 0x0D00 [0x45] LOAD_SCHEDULED_TASK: Load scheduler "s016" with entities [EventEntity, EventEntity], work=[355*, 0*]
 50: 0x0D11 [0x2B] Mainchelite (ID: 17105383/0x010501E7) [11037*]:
    → "Then I can assist you no longer. Begone."
 51: 0x0D18 [0x23] WAIT_FOR_DIALOG_INTERACTION
 52: 0x0D19 [0x03] Work_Zone[1] = 1*
 53: 0x0D1E [0x01] GOTO 0x0DC2

SUBROUTINE_0D24:
 54: 0x0D24 [0x52] END_LOAD_SCHEDULER: End scheduler "s026" with entities [EventEntity, EventEntity], work=355*
 55: 0x0D33 [0x45] LOAD_SCHEDULED_TASK: Load scheduler "s027" with entities [EventEntity, EventEntity], work=[355*, 0*]
 56: 0x0D44 [0x66] LOAD_EXT_SCHEDULER_MAIN: Load scheduler "tlk0" with entities [Mainchelite (ID: 17105383/0x010501E7), Mainchelite (ID: 17105383/0x010501E7)], work=29*
 57: 0x0D53 [0x2B] Mainchelite (ID: 17105383/0x010501E7) [11061*]:
    → "Wonderful! Now let us begin your trial."
 58: 0x0D5A [0x23] WAIT_FOR_DIALOG_INTERACTION
 59: 0x0D5B [0x52] END_LOAD_SCHEDULER: End scheduler "s027" with entities [EventEntity, EventEntity], work=355*
 60: 0x0D6A [0x45] LOAD_SCHEDULED_TASK: Load scheduler "s029" with entities [EventEntity, EventEntity], work=[355*, 0*]
 61: 0x0D7B [0x2B] Mainchelite (ID: 17105383/0x010501E7) [11062*]:
    → "First, I regret to say that while we continued our search for clues surrounding the fiery object in your absence, we found nothing of import."
 62: 0x0D82 [0x23] WAIT_FOR_DIALOG_INTERACTION
 63: 0x0D83 [0x2B] Mainchelite (ID: 17105383/0x010501E7) [11063*]:
    → "We would have you return to East Ronfaure and locate any object that may shed light on the mystery before us."
 64: 0x0D8A [0x23] WAIT_FOR_DIALOG_INTERACTION
 65: 0x0D8B [0x52] END_LOAD_SCHEDULER: End scheduler "s029" with entities [EventEntity, EventEntity], work=355*
 66: 0x0D9A [0x45] LOAD_SCHEDULED_TASK: Load scheduler "s028" with entities [EventEntity, EventEntity], work=[355*, 0*]
 67: 0x0DAB [0x2B] Mainchelite (ID: 17105383/0x010501E7) [11064*]:
    → "Once you have found three, bring them back here for inspection."
 68: 0x0DB2 [0x23] WAIT_FOR_DIALOG_INTERACTION
 69: 0x0DB3 [0x66] LOAD_EXT_SCHEDULER_MAIN: Load scheduler "tlk1" with entities [Mainchelite (ID: 17105383/0x010501E7), Mainchelite (ID: 17105383/0x010501E7)], work=29*

SUBROUTINE_0DC2:
 70: 0x0DC2 [0x1A] CALL_SUBROUTINE(address=0x27C2)
 71: 0x0DC5 [0x55] WAIT_LOAD_SCHEDULER: Wait for scheduler "s028" with entities [EventEntity, EventEntity], work=355*
 72: 0x0DD4 [0x46] CAMERA_CONTROL: Restore default settings
 73: 0x0DD6 [0x45] LOAD_SCHEDULED_TASK: Load scheduler "woff" with entities [EventEntity, EventEntity], work=[352*, 0*]
 74: 0x0DE7 [0x55] WAIT_LOAD_SCHEDULER: Wait for scheduler "woff" with entities [EventEntity, EventEntity], work=352*
 75: 0x0DF6 [0x45] LOAD_SCHEDULED_TASK: Load scheduler "fdi2" with entities [LocalPlayer, LocalPlayer], work=[200*, 0*]
 76: 0x0E07 [0x21] END_EVENT
 77: 0x0E08 [0x00] END_REQSTACK()
```

#### Data or dead code:

```
# Dead code (unreachable instructions):
     0x0D21 [0x01] GOTO 0x0D24
```

### Event 12

#### Metadata

| Field        | Value      |
|--------------|------------|
| Entrypoint   | 0x0E09     |
| Data Size    | 2999 bytes |
| Instructions | 349        |

```
      00 01 02 03 04 05 06 07  08 09 0A 0B 0C 0D 0E 0F
      -- -- -- -- -- -- -- --  -- -- -- -- -- -- -- --
0E00:                             42 20 01 46 01 1A C2           B .F...
0E10: 27 38 0A 80 92 01 E7 01  05 01 92 01 40 02 05 01  '8..........@...
0E20: 92 01 41 02 05 01 92 01  42 02 05 01 92 01 43 02  ..A.....B.....C.
0E30: 05 01 92 01 44 02 05 01  92 01 ED 01 05 01 94 01  ....D...........
0E40: F0 FF FF 7F 94 01 E7 01  05 01 94 01 40 02 05 01  ............@...
0E50: 94 01 41 02 05 01 94 01  42 02 05 01 94 01 43 02  ..A.....B.....C.
0E60: 05 01 94 01 44 02 05 01  94 01 ED 01 05 01 94 01  ....D...........
0E70: 3F 02 05 01 BA F0 FF FF  7F 0B 80 0C 80 0D 80 0E  ?...............
0E80: 80 BA 40 02 05 01 0F 80  10 80 11 80 12 80 BA 41  ..@............A
0E90: 02 05 01 13 80 14 80 11  80 15 80 BA 42 02 05 01  ............B...
0EA0: 16 80 17 80 11 80 18 80  BA 43 02 05 01 3D 80 3E  .........C...=.>
0EB0: 80 11 80 3F 80 BA 44 02  05 01 40 80 41 80 11 80  ...?..D...@.A...
0EC0: 42 80 BA ED 01 05 01 43  80 44 80 45 80 46 80 4A  B......C.D.E.F.J
0ED0: E7 01 05 01 F0 FF FF 7F  4A F0 FF FF 7F E7 01 05  ........J.......
0EE0: 01 4A 40 02 05 01 42 02  05 01 4A 41 02 05 01 40  .J@...B...JA...@
0EF0: 02 05 01 4A 42 02 05 01  40 02 05 01 4E 00 F0 FF  ...JB...@...N...
0F00: FF 7F 4E 00 E7 01 05 01  4E 01 40 02 05 01 4E 01  ..N.....N.@...N.
0F10: 41 02 05 01 4E 01 42 02  05 01 4E 01 43 02 05 01  A...N.B...N.C...
0F20: 4E 01 44 02 05 01 4E 01  ED 01 05 01 80 F0 FF FF  N.D...N.........
0F30: 7F 80 E7 01 05 01 80 40  02 05 01 80 41 02 05 01  .......@....A...
0F40: 80 42 02 05 01 80 43 02  05 01 80 44 02 05 01 80  .B....C....D....
0F50: ED 01 05 01 45 19 80 F8  FF FF 7F F8 FF FF 7F 73  ....E..........s
0F60: 30 30 30 00 80 45 1A 80  F8 FF FF 7F F8 FF FF 7F  000..E..........
0F70: 66 64 69 32 00 80 66 03  80 E7 01 05 01 E7 01 05  fdi2..f.........
0F80: 01 74 6C 6B 30 2B E7 01  05 01 47 80 23 66 03 80  .tlk0+....G.#f..
0F90: E7 01 05 01 E7 01 05 01  74 6C 6B 31 52 19 80 F8  ........tlk1R...
0FA0: FF FF 7F F8 FF FF 7F 73  30 30 30 45 19 80 F8 FF  .......s000E....
0FB0: FF 7F F8 FF FF 7F 73 30  33 30 00 80 1C 48 80 66  ......s030...H.f
0FC0: 03 80 E7 01 05 01 E7 01  05 01 74 68 6B 31 03 02  ..........thk1..
0FD0: 10 49 80 2B E7 01 05 01  4A 80 23 55 19 80 F8 FF  .I.+....J.#U....
0FE0: FF 7F F8 FF FF 7F 73 30  33 30 45 19 80 F8 FF FF  ......s030E.....
0FF0: 7F F8 FF FF 7F 73 30 33  31 00 80 4E 00 43 02 05  .....s031..N.C..
1000: 01 4E 00 44 02 05 01 03  02 10 4B 80 2B E7 01 05  .N.D......K.+...
1010: 01 4C 80 23 66 03 80 E7  01 05 01 E7 01 05 01 74  .L.#f..........t
1020: 68 6B 32 52 19 80 F8 FF  FF 7F F8 FF FF 7F 73 30  hk2R..........s0
1030: 33 31 45 19 80 F8 FF FF  7F F8 FF FF 7F 73 30 33  31E..........s03
1040: 33 00 80 53 E7 01 05 01  E7 01 05 01 74 68 6B 32  3..S........thk2
1050: 03 02 10 4D 80 2B E7 01  05 01 4E 80 23 52 19 80  ...M.+....N.#R..
1060: F8 FF FF 7F F8 FF FF 7F  73 30 33 33 45 19 80 F8  ........s033E...
1070: FF FF 7F F8 FF FF 7F 73  30 33 32 00 80 2B E7 01  .......s032..+..
1080: 05 01 4F 80 23 55 19 80  F8 FF FF 7F F8 FF FF 7F  ..O.#U..........
1090: 73 30 33 32 45 19 80 F8  FF FF 7F F8 FF FF 7F 73  s032E..........s
10A0: 30 30 33 00 80 27 0F 43  02 05 01 0E 2A 0F 43 02  003..'.C....*.C.
10B0: 05 01 6F 76 43 02 05 01  4A 43 02 05 01 E7 01 05  ..ovC...JC......
10C0: 01 55 19 80 F8 FF FF 7F  F8 FF FF 7F 73 30 30 33  .U..........s003
10D0: 4A E7 01 05 01 43 02 05  01 4A F0 FF FF 7F 43 02  J....C...J....C.
10E0: 05 01 45 19 80 F8 FF FF  7F F8 FF FF 7F 73 30 33  ..E..........s03
10F0: 34 00 80 6F 76 E7 01 05  01 6F 76 F0 FF FF 7F 66  4..ov....ov....f
1100: 50 80 43 02 05 01 43 02  05 01 74 6C 6B 30 2B 43  P.C...C...tlk0+C
1110: 02 05 01 51 80 23 66 50  80 43 02 05 01 43 02 05  ...Q.#fP.C...C..
1120: 01 74 6C 6B 31 53 43 02  05 01 43 02 05 01 74 6C  .tlk1SC...C...tl
1130: 6B 31 4B 43 02 05 01 52  80 52 19 80 F8 FF FF 7F  k1KC...R.R......
1140: F8 FF FF 7F 73 30 33 34  45 19 80 F8 FF FF 7F F8  ....s034E.......
1150: FF FF 7F 73 30 33 35 00  80 6E E7 01 05 01 2D 80  ...s035..n....-.
1160: 99 E7 01 05 01 2B E7 01  05 01 53 80 23 52 19 80  .....+....S.#R..
1170: F8 FF FF 7F F8 FF FF 7F  73 30 33 35 45 19 80 F8  ........s035E...
1180: FF FF 7F F8 FF FF 7F 73  30 33 36 00 80 66 50 80  .......s036..fP.
1190: 43 02 05 01 43 02 05 01  74 68 6B 31 2B 43 02 05  C...C...thk1+C..
11A0: 01 54 80 23 66 50 80 43  02 05 01 43 02 05 01 74  .T.#fP.C...C...t
11B0: 68 6B 32 52 19 80 F8 FF  FF 7F F8 FF FF 7F 73 30  hk2R..........s0
11C0: 33 36 45 19 80 F8 FF FF  7F F8 FF FF 7F 73 30 33  36E..........s03
11D0: 37 00 80 66 03 80 E7 01  05 01 E7 01 05 01 74 6C  7..f..........tl
11E0: 6B 30 2B E7 01 05 01 55  80 23 66 03 80 E7 01 05  k0+....U.#f.....
11F0: 01 E7 01 05 01 74 6C 6B  31 4A 43 02 05 01 E7 01  .....tlk1JC.....
1200: 05 01 52 19 80 F8 FF FF  7F F8 FF FF 7F 73 30 33  ..R..........s03
1210: 37 45 19 80 F8 FF FF 7F  F8 FF FF 7F 73 30 33 38  7E..........s038
1220: 00 80 6F 76 43 02 05 01  6E 43 02 05 01 2D 80 99  ..ovC...nC...-..
1230: 43 02 05 01 2B 43 02 05  01 56 80 23 52 19 80 F8  C...+C...V.#R...
1240: FF FF 7F F8 FF FF 7F 73  30 33 38 45 19 80 F8 FF  .......s038E....
1250: FF 7F F8 FF FF 7F 73 30  33 39 00 80 4A F0 FF FF  ......s039..J...
1260: 7F 44 02 05 01 2B 44 02  05 01 57 80 23 52 19 80  .D...+D...W.#R..
1270: F8 FF FF 7F F8 FF FF 7F  73 30 33 39 45 19 80 F8  ........s039E...
1280: FF FF 7F F8 FF FF 7F 73  30 34 30 00 80 27 0F 44  .......s040..'.D
1290: 02 05 01 0E 27 0F 43 02  05 01 0F 2A 0F 44 02 05  ....'.C....*.D..
12A0: 01 2A 0F 43 02 05 01 4A  44 02 05 01 E7 01 05 01  .*.C...JD.......
12B0: 55 19 80 F8 FF FF 7F F8  FF FF 7F 73 30 34 30 45  U..........s040E
12C0: 19 80 F8 FF FF 7F F8 FF  FF 7F 73 30 34 31 00 80  ..........s041..
12D0: 66 50 80 44 02 05 01 44  02 05 01 74 6C 6B 30 2B  fP.D...D...tlk0+
12E0: 44 02 05 01 58 80 23 66  50 80 44 02 05 01 44 02  D...X.#fP.D...D.
12F0: 05 01 74 6C 6B 31 52 19  80 F8 FF FF 7F F8 FF FF  ..tlk1R.........
1300: 7F 73 30 34 31 45 19 80  F8 FF FF 7F F8 FF FF 7F  .s041E..........
1310: 73 30 34 32 00 80 4A F0  FF FF 7F 44 02 05 01 52  s042..J....D...R
1320: 19 80 F8 FF FF 7F F8 FF  FF 7F 73 30 34 32 45 19  ..........s042E.
1330: 80 F8 FF FF 7F F8 FF FF  7F 73 30 35 31 00 80 6F  .........s051..o
1340: 76 F0 FF FF 7F 7B E7 01  05 01 6E E7 01 05 01 2D  v....{....n....-
1350: 80 99 E7 01 05 01 2B E7  01 05 01 59 80 23 52 19  ......+....Y.#R.
1360: 80 F8 FF FF 7F F8 FF FF  7F 73 30 35 31 6E E7 01  .........s051n..
1370: 05 01 00 80 99 E7 01 05  01 99 E7 01 05 01 45 19  ..............E.
1380: 80 F8 FF FF 7F F8 FF FF  7F 73 30 34 33 00 80 2B  .........s043..+
1390: E7 01 05 01 5A 80 23 52  19 80 F8 FF FF 7F F8 FF  ....Z.#R........
13A0: FF 7F 73 30 34 33 45 19  80 F8 FF FF 7F F8 FF FF  ..s043E.........
13B0: 7F 73 30 30 34 00 80 4E  00 ED 01 05 01 2B ED 01  .s004..N.....+..
13C0: 05 01 5B 80 23 4A E7 01  05 01 ED 01 05 01 4A F0  ..[.#J........J.
13D0: FF FF 7F ED 01 05 01 52  19 80 F8 FF FF 7F F8 FF  .......R........
13E0: FF 7F 73 30 30 34 45 19  80 F8 FF FF 7F F8 FF FF  ..s004E.........
13F0: 7F 73 30 30 35 00 80 6F  76 E7 01 05 01 6F 76 F0  .s005..ov....ov.
1400: FF FF 7F 55 19 80 F8 FF  FF 7F F8 FF FF 7F 73 30  ...U..........s0
1410: 30 35 6E E7 01 05 01 22  80 99 E7 01 05 01 99 E7  05n...."........
1420: 01 05 01 45 19 80 F8 FF  FF 7F F8 FF FF 7F 73 30  ...E..........s0
1430: 34 34 00 80 2B E7 01 05  01 5C 80 23 52 19 80 F8  44..+....\.#R...
1440: FF FF 7F F8 FF FF 7F 73  30 34 34 45 19 80 F8 FF  .......s044E....
1450: FF 7F F8 FF FF 7F 73 30  34 35 00 80 2B ED 01 05  ......s045..+...
1460: 01 5D 80 23 52 19 80 F8  FF FF 7F F8 FF FF 7F 73  .].#R..........s
1470: 30 34 35 6E E7 01 05 01  22 80 99 E7 01 05 01 45  045n...."......E
1480: 19 80 F8 FF FF 7F F8 FF  FF 7F 73 30 34 36 00 80  ..........s046..
1490: 2B E7 01 05 01 5E 80 23  52 19 80 F8 FF FF 7F F8  +....^.#R.......
14A0: FF FF 7F 73 30 34 36 45  19 80 F8 FF FF 7F F8 FF  ...s046E........
14B0: FF 7F 73 30 34 37 00 80  2B ED 01 05 01 5F 80 23  ..s047..+...._.#
14C0: 52 19 80 F8 FF FF 7F F8  FF FF 7F 73 30 34 37 45  R..........s047E
14D0: 19 80 F8 FF FF 7F F8 FF  FF 7F 73 30 34 38 00 80  ..........s048..
14E0: 66 03 80 E7 01 05 01 E7  01 05 01 74 6C 6B 30 2B  f..........tlk0+
14F0: E7 01 05 01 60 80 23 66  03 80 E7 01 05 01 E7 01  ....`.#f........
1500: 05 01 74 6C 6B 31 52 19  80 F8 FF FF 7F F8 FF FF  ..tlk1R.........
1510: 7F 73 30 34 38 45 19 80  F8 FF FF 7F F8 FF FF 7F  .s048E..........
1520: 73 30 35 30 00 80 27 0F  43 02 05 01 0E 2A 0F 43  s050..'.C....*.C
1530: 02 05 01 1C 48 80 4A 43  02 05 01 E7 01 05 01 4A  ....H.JC.......J
1540: E7 01 05 01 43 02 05 01  4A F0 FF FF 7F E7 01 05  ....C...J.......
1550: 01 52 19 80 F8 FF FF 7F  F8 FF FF 7F 73 30 35 30  .R..........s050
1560: 45 19 80 F8 FF FF 7F F8  FF FF 7F 73 30 34 39 00  E..........s049.
1570: 80 2B 44 02 05 01 61 80  23 4A E7 01 05 01 44 02  .+D...a.#J....D.
1580: 05 01 4A F0 FF FF 7F 44  02 05 01 52 19 80 F8 FF  ..J....D...R....
1590: FF 7F F8 FF FF 7F 73 30  34 39 45 19 80 F8 FF FF  ......s049E.....
15A0: 7F F8 FF FF 7F 73 30 35  32 00 80 27 0F 43 02 05  .....s052..'.C..
15B0: 01 0F 6F 76 E7 01 05 01  6F 76 44 02 05 01 03 02  ..ov....ovD.....
15C0: 10 49 80 03 03 10 4B 80  03 04 10 4D 80 48 62 80  .I....K....M.Hb.
15D0: 23 55 19 80 F8 FF FF 7F  F8 FF FF 7F 73 30 35 32  #U..........s052
15E0: 45 19 80 F8 FF FF 7F F8  FF FF 7F 73 30 35 33 00  E..........s053.
15F0: 80 2B 44 02 05 01 63 80  23 66 50 80 43 02 05 01  .+D...c.#fP.C...
1600: 43 02 05 01 74 68 6B 31  27 0F 44 02 05 01 11 1C  C...thk1'.D.....
1610: 48 80 52 19 80 F8 FF FF  7F F8 FF FF 7F 73 30 35  H.R..........s05
1620: 33 45 19 80 F8 FF FF 7F  F8 FF FF 7F 73 30 35 34  3E..........s054
1630: 00 80 2B 43 02 05 01 64  80 23 2A 0F 44 02 05 01  ..+C...d.#*.D...
1640: 52 19 80 F8 FF FF 7F F8  FF FF 7F 73 30 35 34 45  R..........s054E
1650: 19 80 F8 FF FF 7F F8 FF  FF 7F 73 30 35 35 00 80  ..........s055..
1660: 2B 44 02 05 01 65 80 23  66 50 80 43 02 05 01 43  +D...e.#fP.C...C
1670: 02 05 01 74 68 6B 32 52  19 80 F8 FF FF 7F F8 FF  ...thk2R........
1680: FF 7F 73 30 35 35 45 19  80 F8 FF FF 7F F8 FF FF  ..s055E.........
1690: 7F 73 30 35 36 00 80 27  0F 43 02 05 01 10 27 0F  .s056..'.C....'.
16A0: 44 02 05 01 0F 6B 69 64  6C 30 43 02 05 01 4A F0  D....kidl0C...J.
16B0: FF FF 7F 43 02 05 01 4A  E7 01 05 01 43 02 05 01  ...C...J....C...
16C0: 7B 43 02 05 01 7B 44 02  05 01 1C 66 80 4A ED 01  {C...{D....f.J..
16D0: 05 01 43 02 05 01 6F 76  ED 01 05 01 55 19 80 F8  ..C...ov....U...
16E0: FF FF 7F F8 FF FF 7F 73  30 35 36 45 19 80 F8 FF  .......s056E....
16F0: FF 7F F8 FF FF 7F 73 30  35 38 00 80 7B ED 01 05  ......s058..{...
1700: 01 2B ED 01 05 01 67 80  23 7B 43 02 05 01 7B 44  .+....g.#{C...{D
1710: 02 05 01 55 19 80 F8 FF  FF 7F F8 FF FF 7F 73 30  ...U..........s0
1720: 35 38 45 19 80 F8 FF FF  7F F8 FF FF 7F 73 30 35  58E..........s05
1730: 39 00 80 4A E7 01 05 01  43 02 05 01 4A F0 FF FF  9..J....C...J...
1740: 7F 43 02 05 01 6F 76 43  02 05 01 6F 76 44 02 05  .C...ovC...ovD..
1750: 01 2B 44 02 05 01 68 80  23 52 19 80 F8 FF FF 7F  .+D...h.#R......
1760: F8 FF FF 7F 73 30 35 39  45 19 80 F8 FF FF 7F F8  ....s059E.......
1770: FF FF 7F 73 30 36 30 00  80 6E ED 01 05 01 2D 80  ...s060..n....-.
1780: 99 ED 01 05 01 2B ED 01  05 01 69 80 23 52 19 80  .....+....i.#R..
1790: F8 FF FF 7F F8 FF FF 7F  73 30 36 30 45 19 80 F8  ........s060E...
17A0: FF FF 7F F8 FF FF 7F 73  30 36 32 00 80 2B 44 02  .......s062..+D.
17B0: 05 01 6A 80 23 52 19 80  F8 FF FF 7F F8 FF FF 7F  ..j.#R..........
17C0: 73 30 36 32 45 19 80 F8  FF FF 7F F8 FF FF 7F 73  s062E..........s
17D0: 30 36 31 00 80 27 0F 43  02 05 01 11 27 0F 44 02  061..'.C....'.D.
17E0: 05 01 10 55 19 80 F8 FF  FF 7F F8 FF FF 7F 73 30  ...U..........s0
17F0: 36 31 4A E7 01 05 01 ED  01 05 01 4A F0 FF FF 7F  61J........J....
1800: ED 01 05 01 4A ED 01 05  01 F0 FF FF 7F 45 19 80  ....J........E..
1810: F8 FF FF 7F F8 FF FF 7F  73 30 36 33 00 80 4E 01  ........s063..N.
1820: 43 02 05 01 4E 01 44 02  05 01 6F 76 F0 FF FF 7F  C...N.D...ov....
1830: 6F 76 ED 01 05 01 66 03  80 ED 01 05 01 ED 01 05  ov....f.........
1840: 01 74 6C 6B 30 2B ED 01  05 01 6B 80 23 66 03 80  .tlk0+....k.#f..
1850: ED 01 05 01 ED 01 05 01  74 6C 6B 30 52 19 80 F8  ........tlk0R...
1860: FF FF 7F F8 FF FF 7F 73  30 36 33 45 19 80 F8 FF  .......s063E....
1870: FF 7F F8 FF FF 7F 73 30  36 35 00 80 2B ED 01 05  ......s065..+...
1880: 01 6C 80 23 52 19 80 F8  FF FF 7F F8 FF FF 7F 73  .l.#R..........s
1890: 30 36 35 45 19 80 F8 FF  FF 7F F8 FF FF 7F 73 30  065E..........s0
18A0: 36 36 00 80 2B ED 01 05  01 6D 80 23 52 19 80 F8  66..+....m.#R...
18B0: FF FF 7F F8 FF FF 7F 73  30 36 36 1A C2 27 4E 01  .......s066..'N.
18C0: ED 01 05 01 4A E7 01 05  01 F0 FF FF 7F 4A F0 FF  ....J........J..
18D0: FF 7F E7 01 05 01 6F 76  F0 FF FF 7F 6F 76 E7 01  ......ov....ov..
18E0: 05 01 45 19 80 F8 FF FF  7F F8 FF FF 7F 73 30 31  ..E..........s01
18F0: 31 00 80 45 1A 80 F8 FF  FF 7F F8 FF FF 7F 66 64  1..E..........fd
1900: 69 32 00 80 6E E7 01 05  01 22 80 99 E7 01 05 01  i2..n...."......
1910: 2B E7 01 05 01 6E 80 23  66 03 80 ED 01 05 01 ED  +....n.#f.......
1920: 01 05 01 74 6C 6B 30 03  02 10 6F 80 2B E7 01 05  ...tlk0...o.+...
1930: 01 70 80 23 66 03 80 ED  01 05 01 ED 01 05 01 74  .p.#f..........t
1940: 6C 6B 31 6E F0 FF FF 7F  22 80 99 F0 FF FF 7F 99  lk1n....".......
1950: F0 FF FF 7F 45 19 80 F8  FF FF 7F F8 FF FF 7F 73  ....E..........s
1960: 30 31 32 00 80 45 3F 80  F8 FF FF 7F F8 FF FF 7F  012..E?.........
1970: 71 73 74 63 00 80 1C 71  80 1A C2 27 55 19 80 F8  qstc...q...'U...
1980: FF FF 7F F8 FF FF 7F 73  30 31 32 46 00 45 21 80  .......s012F.E!.
1990: F8 FF FF 7F F8 FF FF 7F  77 6F 66 66 00 80 55 21  ........woff..U!
19A0: 80 F8 FF FF 7F F8 FF FF  7F 77 6F 66 66 45 1A 80  .........woffE..
19B0: F0 FF FF 7F F0 FF FF 7F  66 64 69 32 00 80 21 00  ........fdi2..!.
```

#### Opcodes

```
  0: 0x0E09 [0x42] SET_CLI_EVENT_CANCEL_DATA()
  1: 0x0E0A [0x20] SET_CLI_EVENT_UC_FLAG: Lock player control
  2: 0x0E0C [0x46] CAMERA_CONTROL: Disable user control
  3: 0x0E0E [0x1A] CALL_SUBROUTINE(address=0x27C2)
  4: 0x0E11 [0x38] SET_CLIENT_EVENT_MODE(mode=19*)
  5: 0x0E14 [0x92] Mainchelite (ID: 17105383/0x010501E7)->Render.Flags3 ^= 0x01
  6: 0x0E1A [0x92] Hestrefalcat (ID: 17105472/0x01050240)->Render.Flags3 ^= 0x01
  7: 0x0E20 [0x92] Minautte (ID: 17105473/0x01050241)->Render.Flags3 ^= 0x01
  8: 0x0E26 [0x92] Rachelassiond (ID: 17105474/0x01050242)->Render.Flags3 ^= 0x01
  9: 0x0E2C [0x92] Spencer (ID: 17105475/0x01050243)->Render.Flags3 ^= 0x01
 10: 0x0E32 [0x92] Gerwulf (ID: 17105476/0x01050244)->Render.Flags3 ^= 0x01
 11: 0x0E38 [0x92] Rongelouts N Distaud (ID: 17105389/0x010501ED)->Render.Flags3 ^= 0x01
 12: 0x0E3E [0x94] LocalPlayer->Render.Flags3 ^= 0x01
 13: 0x0E44 [0x94] Mainchelite (ID: 17105383/0x010501E7)->Render.Flags3 ^= 0x01
 14: 0x0E4A [0x94] Hestrefalcat (ID: 17105472/0x01050240)->Render.Flags3 ^= 0x01
 15: 0x0E50 [0x94] Minautte (ID: 17105473/0x01050241)->Render.Flags3 ^= 0x01
 16: 0x0E56 [0x94] Rachelassiond (ID: 17105474/0x01050242)->Render.Flags3 ^= 0x01
 17: 0x0E5C [0x94] Spencer (ID: 17105475/0x01050243)->Render.Flags3 ^= 0x01
 18: 0x0E62 [0x94] Gerwulf (ID: 17105476/0x01050244)->Render.Flags3 ^= 0x01
 19: 0x0E68 [0x94] Rongelouts N Distaud (ID: 17105389/0x010501ED)->Render.Flags3 ^= 0x01
 20: 0x0E6E [0x94] ??? (ID: 17105471/0x0105023F)->Render.Flags3 ^= 0x01
 21: 0x0E74 [0xBA] SET_ENTITY_POSITION(entity_id=LocalPlayer, pos_x=-15.412*, pos_z=-28.331*, pos_y=1.699*, direction=91.4°*)
 22: 0x0E81 [0xBA] SET_ENTITY_POSITION(entity_id=Hestrefalcat (ID: 17105472/0x01050240), pos_x=-26.539*, pos_z=-29.980*, pos_y=1.999*, direction=59.5°*)
 23: 0x0E8E [0xBA] SET_ENTITY_POSITION(entity_id=Minautte (ID: 17105473/0x01050241), pos_x=-27.605*, pos_z=-31.223*, pos_y=1.999*, direction=324.7°*)
 24: 0x0E9B [0xBA] SET_ENTITY_POSITION(entity_id=Rachelassiond (ID: 17105474/0x01050242), pos_x=-25.930*, pos_z=-32.770*, pos_y=1.999*, direction=264.9°*)
 25: 0x0EA8 [0xBA] SET_ENTITY_POSITION(entity_id=Spencer (ID: 17105475/0x01050243), pos_x=-21.022*, pos_z=-30.790*, pos_y=1.999*, direction=17.7°*)
 26: 0x0EB5 [0xBA] SET_ENTITY_POSITION(entity_id=Gerwulf (ID: 17105476/0x01050244), pos_x=-21.452*, pos_z=-29.653*, pos_y=1.999*, direction=358.5°*)
 27: 0x0EC2 [0xBA] SET_ENTITY_POSITION(entity_id=Rongelouts N Distaud (ID: 17105389/0x010501ED), pos_x=-11.839*, pos_z=-28.931*, pos_y=1.398*, direction=173.1°*)
 28: 0x0ECF [0x4A] Mainchelite (ID: 17105383/0x010501E7) looks at LocalPlayer
 29: 0x0ED8 [0x4A] LocalPlayer looks at Mainchelite (ID: 17105383/0x010501E7)
 30: 0x0EE1 [0x4A] Hestrefalcat (ID: 17105472/0x01050240) looks at Rachelassiond (ID: 17105474/0x01050242)
 31: 0x0EEA [0x4A] Minautte (ID: 17105473/0x01050241) looks at Hestrefalcat (ID: 17105472/0x01050240)
 32: 0x0EF3 [0x4A] Rachelassiond (ID: 17105474/0x01050242) looks at Hestrefalcat (ID: 17105472/0x01050240)
 33: 0x0EFC [0x4E] SET_ENTITY_HIDE_FLAG: Show LocalPlayer
 34: 0x0F02 [0x4E] SET_ENTITY_HIDE_FLAG: Show Mainchelite (ID: 17105383/0x010501E7)
 35: 0x0F08 [0x4E] SET_ENTITY_HIDE_FLAG: Hide Hestrefalcat (ID: 17105472/0x01050240)
 36: 0x0F0E [0x4E] SET_ENTITY_HIDE_FLAG: Hide Minautte (ID: 17105473/0x01050241)
 37: 0x0F14 [0x4E] SET_ENTITY_HIDE_FLAG: Hide Rachelassiond (ID: 17105474/0x01050242)
 38: 0x0F1A [0x4E] SET_ENTITY_HIDE_FLAG: Hide Spencer (ID: 17105475/0x01050243)
 39: 0x0F20 [0x4E] SET_ENTITY_HIDE_FLAG: Hide Gerwulf (ID: 17105476/0x01050244)
 40: 0x0F26 [0x4E] SET_ENTITY_HIDE_FLAG: Hide Rongelouts N Distaud (ID: 17105389/0x010501ED)
 41: 0x0F2C [0x80] LOAD_WAIT(entity=LocalPlayer)
 42: 0x0F31 [0x80] LOAD_WAIT(entity=Mainchelite (ID: 17105383/0x010501E7))
 43: 0x0F36 [0x80] LOAD_WAIT(entity=Hestrefalcat (ID: 17105472/0x01050240))
 44: 0x0F3B [0x80] LOAD_WAIT(entity=Minautte (ID: 17105473/0x01050241))
 45: 0x0F40 [0x80] LOAD_WAIT(entity=Rachelassiond (ID: 17105474/0x01050242))
 46: 0x0F45 [0x80] LOAD_WAIT(entity=Spencer (ID: 17105475/0x01050243))
 47: 0x0F4A [0x80] LOAD_WAIT(entity=Gerwulf (ID: 17105476/0x01050244))
 48: 0x0F4F [0x80] LOAD_WAIT(entity=Rongelouts N Distaud (ID: 17105389/0x010501ED))
 49: 0x0F54 [0x45] LOAD_SCHEDULED_TASK: Load scheduler "s000" with entities [EventEntity, EventEntity], work=[355*, 0*]
 50: 0x0F65 [0x45] LOAD_SCHEDULED_TASK: Load scheduler "fdi2" with entities [EventEntity, EventEntity], work=[200*, 0*]
 51: 0x0F76 [0x66] LOAD_EXT_SCHEDULER_MAIN: Load scheduler "tlk0" with entities [Mainchelite (ID: 17105383/0x010501E7), Mainchelite (ID: 17105383/0x010501E7)], work=29*
 52: 0x0F85 [0x2B] Mainchelite (ID: 17105383/0x010501E7) [11066*]:
    → "Welcome back, <Player>. Were you successful in your investigation?"
 53: 0x0F8C [0x23] WAIT_FOR_DIALOG_INTERACTION
 54: 0x0F8D [0x66] LOAD_EXT_SCHEDULER_MAIN: Load scheduler "tlk1" with entities [Mainchelite (ID: 17105383/0x010501E7), Mainchelite (ID: 17105383/0x010501E7)], work=29*
 55: 0x0F9C [0x52] END_LOAD_SCHEDULER: End scheduler "s000" with entities [EventEntity, EventEntity], work=355*
 56: 0x0FAB [0x45] LOAD_SCHEDULED_TASK: Load scheduler "s030" with entities [EventEntity, EventEntity], work=[355*, 0*]
 57: 0x0FBC [0x1C] WAIT(60* ticks)
 58: 0x0FBF [0x66] LOAD_EXT_SCHEDULER_MAIN: Load scheduler "thk1" with entities [Mainchelite (ID: 17105383/0x010501E7), Mainchelite (ID: 17105383/0x010501E7)], work=29*
 59: 0x0FCE [0x03] Work_Zone[2] = 950*
 60: 0x0FD3 [0x2B] Mainchelite (ID: 17105383/0x010501E7) [11067*]:
    → "Why, this looks like the blade of a windmill... But the closest ones lie hundreds of malms away in the Konschtat Highlands..."
 61: 0x0FDA [0x23] WAIT_FOR_DIALOG_INTERACTION
 62: 0x0FDB [0x55] WAIT_LOAD_SCHEDULER: Wait for scheduler "s030" with entities [EventEntity, EventEntity], work=355*
 63: 0x0FEA [0x45] LOAD_SCHEDULED_TASK: Load scheduler "s031" with entities [EventEntity, EventEntity], work=[355*, 0*]
 64: 0x0FFB [0x4E] SET_ENTITY_HIDE_FLAG: Show Spencer (ID: 17105475/0x01050243)
 65: 0x1001 [0x4E] SET_ENTITY_HIDE_FLAG: Show Gerwulf (ID: 17105476/0x01050244)
 66: 0x1007 [0x03] Work_Zone[2] = 951*
 67: 0x100C [0x2B] Mainchelite (ID: 17105383/0x010501E7) [11068*]:
    → "And these crystals... The formations seem to have continued growing even after they pierced the wood..."
 68: 0x1013 [0x23] WAIT_FOR_DIALOG_INTERACTION
 69: 0x1014 [0x66] LOAD_EXT_SCHEDULER_MAIN: Load scheduler "thk2" with entities [Mainchelite (ID: 17105383/0x010501E7), Mainchelite (ID: 17105383/0x010501E7)], work=29*
 70: 0x1023 [0x52] END_LOAD_SCHEDULER: End scheduler "s031" with entities [EventEntity, EventEntity], work=355*
 71: 0x1032 [0x45] LOAD_SCHEDULED_TASK: Load scheduler "s033" with entities [EventEntity, EventEntity], work=[355*, 0*]
 72: 0x1043 [0x53] WAIT_SCHEDULER_TASK: Wait for scheduler "thk2" with entities [Mainchelite (ID: 17105383/0x010501E7), Mainchelite (ID: 17105383/0x010501E7)]
 73: 0x1050 [0x03] Work_Zone[2] = 952*
 74: 0x1055 [0x2B] Mainchelite (ID: 17105383/0x010501E7) [11069*]:
    → "Finally, this plate... I believe I can make out the letters E, O, and...S..."
 75: 0x105C [0x23] WAIT_FOR_DIALOG_INTERACTION
 76: 0x105D [0x52] END_LOAD_SCHEDULER: End scheduler "s033" with entities [EventEntity, EventEntity], work=355*
 77: 0x106C [0x45] LOAD_SCHEDULED_TASK: Load scheduler "s032" with entities [EventEntity, EventEntity], work=[355*, 0*]
 78: 0x107D [0x2B] Mainchelite (ID: 17105383/0x010501E7) [11070*]:
    → "Eos? What on Vana'diel could it mean...?"
 79: 0x1084 [0x23] WAIT_FOR_DIALOG_INTERACTION
 80: 0x1085 [0x55] WAIT_LOAD_SCHEDULER: Wait for scheduler "s032" with entities [EventEntity, EventEntity], work=355*
 81: 0x1094 [0x45] LOAD_SCHEDULED_TASK: Load scheduler "s003" with entities [EventEntity, EventEntity], work=[355*, 0*]
 82: 0x10A5 [0x27] REQ_SET(priority=0x0F, entity_id=Spencer (ID: 17105475/0x01050243), tag_num=0x0E)
 83: 0x10AC [0x2A] GET_REQ_LEVEL(level=15, entity_id=Spencer (ID: 17105475/0x01050243))
 84: 0x10B2 [0x6F] WAIT_FRAME_DELAY: Yield until WaitTime reaches zero
 85: 0x10B3 [0x76] CHECK_ENTITY_RENDER_FLAGS: Wait until Spencer (ID: 17105475/0x01050243) Render.Flags0 and Render.Flags3 conditions are met
 86: 0x10B8 [0x4A] Spencer (ID: 17105475/0x01050243) looks at Mainchelite (ID: 17105383/0x010501E7)
 87: 0x10C1 [0x55] WAIT_LOAD_SCHEDULER: Wait for scheduler "s003" with entities [EventEntity, EventEntity], work=355*
 88: 0x10D0 [0x4A] Mainchelite (ID: 17105383/0x010501E7) looks at Spencer (ID: 17105475/0x01050243)
 89: 0x10D9 [0x4A] LocalPlayer looks at Spencer (ID: 17105475/0x01050243)
 90: 0x10E2 [0x45] LOAD_SCHEDULED_TASK: Load scheduler "s034" with entities [EventEntity, EventEntity], work=[355*, 0*]
