# 17105427 - Piscariaux

## Common Data

| Field            | Value                            |
|------------------|----------------------------------|
| Zone             | Southern San d'Oria [S] (ID: 80) |
| Block Size       | 2160 bytes                       |
| Total Events     | 103                              |
| References Count | 22                               |

## List of Events

| Event ID                   | Entrypoint   |   Size |   Instructions |
|----------------------------|--------------|--------|----------------|
| [65535](#event-65535)      | 0x0000       |      1 |              1 |
| [42](#event-42)            | 0x0001       |     26 |              6 |
| [23](#event-23)            | 0x001B       |      1 |              1 |
| [24](#event-24)            | 0x001C       |      1 |              1 |
| [47](#event-47)            | 0x001D       |      1 |              1 |
| [65535.1](#event-655351)   | 0x001E       |     15 |              5 |
| [65535.2](#event-655352)   | 0x002D       |     25 |              7 |
| [59](#event-59)            | 0x0046       |      1 |              1 |
| [65535.3](#event-655353)   | 0x0047       |     16 |              2 |
| [65535.4](#event-655354)   | 0x0057       |     14 |              2 |
| [65535.5](#event-655355)   | 0x0065       |     16 |              2 |
| [65535.6](#event-655356)   | 0x0075       |     14 |              2 |
| [65535.7](#event-655357)   | 0x0083       |     16 |              2 |
| [65535.8](#event-655358)   | 0x0093       |     14 |              2 |
| [65535.9](#event-655359)   | 0x00A1       |     16 |              2 |
| [65535.10](#event-6553510) | 0x00B1       |     14 |              2 |
| [65535.11](#event-6553511) | 0x00BF       |     16 |              2 |
| [65535.12](#event-6553512) | 0x00CF       |     14 |              2 |
| [65535.13](#event-6553513) | 0x00DD       |     16 |              2 |
| [65535.14](#event-6553514) | 0x00ED       |     14 |              2 |
| [65535.15](#event-6553515) | 0x00FB       |     22 |              3 |
| [65535.16](#event-6553516) | 0x0111       |     14 |              2 |
| [65535.17](#event-6553517) | 0x011F       |     22 |              3 |
| [65535.18](#event-6553518) | 0x0135       |     14 |              2 |
| [65535.19](#event-6553519) | 0x0143       |     22 |              3 |
| [65535.20](#event-6553520) | 0x0159       |     14 |              2 |
| [65535.21](#event-6553521) | 0x0167       |     22 |              3 |
| [65535.22](#event-6553522) | 0x017D       |     14 |              2 |
| [65535.23](#event-6553523) | 0x018B       |     28 |              4 |
| [65535.24](#event-6553524) | 0x01A7       |     26 |              4 |
| [65535.25](#event-6553525) | 0x01C1       |     16 |              2 |
| [65535.26](#event-6553526) | 0x01D1       |     14 |              2 |
| [65535.27](#event-6553527) | 0x01DF       |     22 |              3 |
| [65535.28](#event-6553528) | 0x01F5       |     14 |              2 |
| [65535.29](#event-6553529) | 0x0203       |     28 |              4 |
| [65535.30](#event-6553530) | 0x021F       |     26 |              4 |
| [65535.31](#event-6553531) | 0x0239       |     16 |              2 |
| [65535.32](#event-6553532) | 0x0249       |     14 |              2 |
| [65535.33](#event-6553533) | 0x0257       |     16 |              2 |
| [65535.34](#event-6553534) | 0x0267       |     14 |              2 |
| [65535.35](#event-6553535) | 0x0275       |     16 |              2 |
| [65535.36](#event-6553536) | 0x0285       |     14 |              2 |
| [65535.37](#event-6553537) | 0x0293       |     16 |              2 |
| [65535.38](#event-6553538) | 0x02A3       |     14 |              2 |
| [65535.39](#event-6553539) | 0x02B1       |     28 |              4 |
| [65535.40](#event-6553540) | 0x02CD       |     14 |              2 |
| [65535.41](#event-6553541) | 0x02DB       |     16 |              2 |
| [65535.42](#event-6553542) | 0x02EB       |     26 |              4 |
| [65535.43](#event-6553543) | 0x0305       |     16 |              2 |
| [65535.44](#event-6553544) | 0x0315       |     14 |              2 |
| [65535.45](#event-6553545) | 0x0323       |     16 |              2 |
| [65535.46](#event-6553546) | 0x0333       |     14 |              2 |
| [65535.47](#event-6553547) | 0x0341       |     16 |              2 |
| [65535.48](#event-6553548) | 0x0351       |     14 |              2 |
| [65535.49](#event-6553549) | 0x035F       |     16 |              2 |
| [65535.50](#event-6553550) | 0x036F       |     14 |              2 |
| [65535.51](#event-6553551) | 0x037D       |     16 |              2 |
| [65535.52](#event-6553552) | 0x038D       |     14 |              2 |
| [65535.53](#event-6553553) | 0x039B       |     16 |              2 |
| [65535.54](#event-6553554) | 0x03AB       |     14 |              2 |
| [65535.55](#event-6553555) | 0x03B9       |     16 |              2 |
| [65535.56](#event-6553556) | 0x03C9       |     14 |              2 |
| [65535.57](#event-6553557) | 0x03D7       |     16 |              2 |
| [65535.58](#event-6553558) | 0x03E7       |     14 |              2 |
| [65535.59](#event-6553559) | 0x03F5       |     16 |              2 |
| [65535.60](#event-6553560) | 0x0405       |     14 |              2 |
| [65535.61](#event-6553561) | 0x0413       |     28 |              4 |
| [65535.62](#event-6553562) | 0x042F       |     26 |              4 |
| [65535.63](#event-6553563) | 0x0449       |     16 |              2 |
| [65535.64](#event-6553564) | 0x0459       |     14 |              2 |
| [65535.65](#event-6553565) | 0x0467       |     16 |              2 |
| [65535.66](#event-6553566) | 0x0477       |     14 |              2 |
| [65535.67](#event-6553567) | 0x0485       |     28 |              4 |
| [65535.68](#event-6553568) | 0x04A1       |     14 |              2 |
| [65535.69](#event-6553569) | 0x04AF       |     16 |              2 |
| [65535.70](#event-6553570) | 0x04BF       |     26 |              4 |
| [65535.71](#event-6553571) | 0x04D9       |     16 |              2 |
| [65535.72](#event-6553572) | 0x04E9       |     14 |              2 |
| [65535.73](#event-6553573) | 0x04F7       |     16 |              2 |
| [65535.74](#event-6553574) | 0x0507       |     14 |              2 |
| [65535.75](#event-6553575) | 0x0515       |     22 |              3 |
| [65535.76](#event-6553576) | 0x052B       |     14 |              2 |
| [65535.77](#event-6553577) | 0x0539       |     22 |              3 |
| [65535.78](#event-6553578) | 0x054F       |     14 |              2 |
| [65535.79](#event-6553579) | 0x055D       |     16 |              2 |
| [65535.80](#event-6553580) | 0x056D       |     14 |              2 |
| [65535.81](#event-6553581) | 0x057B       |     16 |              2 |
| [65535.82](#event-6553582) | 0x058B       |     14 |              2 |
| [65535.83](#event-6553583) | 0x0599       |     16 |              2 |
| [65535.84](#event-6553584) | 0x05A9       |     14 |              2 |
| [65535.85](#event-6553585) | 0x05B7       |     16 |              2 |
| [65535.86](#event-6553586) | 0x05C7       |     14 |              2 |
| [65535.87](#event-6553587) | 0x05D5       |     16 |              2 |
| [65535.88](#event-6553588) | 0x05E5       |     14 |              2 |
| [65535.89](#event-6553589) | 0x05F3       |     16 |              2 |
| [65535.90](#event-6553590) | 0x0603       |     14 |              2 |
| [65535.91](#event-6553591) | 0x0611       |     16 |              2 |
| [65535.92](#event-6553592) | 0x0621       |     14 |              2 |
| [65535.93](#event-6553593) | 0x062F       |     16 |              2 |
| [65535.94](#event-6553594) | 0x063F       |     14 |              2 |
| [65535.95](#event-6553595) | 0x064D       |     16 |              2 |
| [65535.96](#event-6553596) | 0x065D       |     14 |              2 |
| [675](#event-675)          | 0x066B       |      1 |              1 |

## DAT References (imed_data)

|   Index | Hex Value   |   Dec Value |
|---------|-------------|-------------|
|       0 | 0x04F8      |        1272 |
|       1 | 0x2F51      |       12113 |
|       2 | 0x0028      |          40 |
|       3 | 0xFFFD6D4B  |  4294798667 |
|       4 | 0x113F6     |       70646 |
|       5 | 0xFFFFF830  |  4294965296 |
|       6 | 0xFFFD7AD9  |  4294802137 |
|       7 | 0xFE4C      |       65100 |
|       8 | 0xFFFFF831  |  4294965297 |
|       9 | 0x04F9      |        1273 |
|      10 | 0x0513      |        1299 |
|      11 | 0x0515      |        1301 |
|      12 | 0x059D      |        1437 |
|      13 | 0x059E      |        1438 |
|      14 | 0x059F      |        1439 |
|      15 | 0x092D      |        2349 |
|      16 | 0x092E      |        2350 |
|      17 | 0x092F      |        2351 |
|      18 | 0x0514      |        1300 |
|      19 | 0x05DE      |        1502 |
|      20 | 0x08D5      |        2261 |
|      21 | 0x05DF      |        1503 |

## String References

- **12113**: Great power lies in one's drive. What drives you, adventurer?

## Events

### Event 65535

#### Metadata

| Field        | Value   |
|--------------|---------|
| Entrypoint   | 0x0000  |
| Data Size    | 1 bytes |
| Instructions | 1       |

```
      00 01 02 03 04 05 06 07  08 09 0A 0B 0C 0D 0E 0F
      -- -- -- -- -- -- -- --  -- -- -- -- -- -- -- --
0000: 00                                                .               
```

#### Opcodes

```
  0: 0x0000 [0x00] END_REQSTACK()
```

### Event 42

#### Metadata

| Field        | Value    |
|--------------|----------|
| Entrypoint   | 0x0001   |
| Data Size    | 26 bytes |
| Instructions | 6        |

```
      00 01 02 03 04 05 06 07  08 09 0A 0B 0C 0D 0E 0F
      -- -- -- -- -- -- -- --  -- -- -- -- -- -- -- --
0000:    1E F0 FF FF 7F 5B 00  80 F8 FF FF 7F F8 FF FF   .....[.........
0010: 7F 74 6C 61 30 1D 01 80  23 21 00                 .tla0...#!.     
```

#### Opcodes

```
  0: 0x0001 [0x1E] EventEntity looks at LocalPlayer and starts talking
  1: 0x0006 [0x5B] LOAD_EXT_SCHEDULER: Load scheduler "tla0" with entities [EventEntity, EventEntity], work=1272*
  2: 0x0015 [0x1D] PRINT_EVENT_MESSAGE(message_id=12113*)
    → "Great power lies in one's drive. What drives you, adventurer?"
  3: 0x0018 [0x23] WAIT_FOR_DIALOG_INTERACTION
  4: 0x0019 [0x21] END_EVENT
  5: 0x001A [0x00] END_REQSTACK()
```

### Event 23

#### Metadata

| Field        | Value   |
|--------------|---------|
| Entrypoint   | 0x001B  |
| Data Size    | 1 bytes |
| Instructions | 1       |

```
      00 01 02 03 04 05 06 07  08 09 0A 0B 0C 0D 0E 0F
      -- -- -- -- -- -- -- --  -- -- -- -- -- -- -- --
0010:                                   00                         .    
```

#### Opcodes

```
  0: 0x001B [0x00] END_REQSTACK()
```

### Event 24

#### Metadata

| Field        | Value   |
|--------------|---------|
| Entrypoint   | 0x001C  |
| Data Size    | 1 bytes |
| Instructions | 1       |

```
      00 01 02 03 04 05 06 07  08 09 0A 0B 0C 0D 0E 0F
      -- -- -- -- -- -- -- --  -- -- -- -- -- -- -- --
0010:                                      00                       .   
```

#### Opcodes

```
  0: 0x001C [0x00] END_REQSTACK()
```

### Event 47

#### Metadata

| Field        | Value   |
|--------------|---------|
| Entrypoint   | 0x001D  |
| Data Size    | 1 bytes |
| Instructions | 1       |

```
      00 01 02 03 04 05 06 07  08 09 0A 0B 0C 0D 0E 0F
      -- -- -- -- -- -- -- --  -- -- -- -- -- -- -- --
0010:                                         00                     .  
```

#### Opcodes

```
  0: 0x001D [0x00] END_REQSTACK()
```

### Event 65535.1

#### Metadata

| Field        | Value    |
|--------------|----------|
| Entrypoint   | 0x001E   |
| Data Size    | 15 bytes |
| Instructions | 5        |

```
      00 01 02 03 04 05 06 07  08 09 0A 0B 0C 0D 0E 0F
      -- -- -- -- -- -- -- --  -- -- -- -- -- -- -- --
0010:                                            32 02                2.
0020: 80 1F 00 03 80 04 80 05  80 1F 01 6F 00           ...........o.   
```

#### Opcodes

```
  0: 0x001E [0x32] ExtData[1]->MainSpeed = 40* * 0.1
  1: 0x0021 [0x1F] MOVE_ENTITY: EventEntity moves to X=-168.629*, Z=70.646*, Y=-2.000*
  2: 0x0029 [0x1F] MOVE_ENTITY: Update entity position (mode=1)
  3: 0x002B [0x6F] WAIT_FRAME_DELAY: Yield until WaitTime reaches zero
  4: 0x002C [0x00] END_REQSTACK()
```

### Event 65535.2

#### Metadata

| Field        | Value    |
|--------------|----------|
| Entrypoint   | 0x002D   |
| Data Size    | 25 bytes |
| Instructions | 7        |

```
      00 01 02 03 04 05 06 07  08 09 0A 0B 0C 0D 0E 0F
      -- -- -- -- -- -- -- --  -- -- -- -- -- -- -- --
0020:                                         32 02 80               2..
0030: 1F 00 06 80 07 80 08 80  1F 01 6F 1E 0A 02 05 01  ..........o.....
0040: 7B 13 02 05 01 00                                 {.....          
```

#### Opcodes

```
  0: 0x002D [0x32] ExtData[1]->MainSpeed = 40* * 0.1
  1: 0x0030 [0x1F] MOVE_ENTITY: EventEntity moves to X=-165.159*, Z=65.100*, Y=-1.999*
  2: 0x0038 [0x1F] MOVE_ENTITY: Update entity position (mode=1)
  3: 0x003A [0x6F] WAIT_FRAME_DELAY: Yield until WaitTime reaches zero
  4: 0x003B [0x1E] EventEntity looks at Excenmille (ID: 17105418/0x0105020A) and starts talking
  5: 0x0040 [0x7B] Piscariaux (ID: 17105427/0x01050213) stops talking
  6: 0x0045 [0x00] END_REQSTACK()
```

### Event 59

#### Metadata

| Field        | Value   |
|--------------|---------|
| Entrypoint   | 0x0046  |
| Data Size    | 1 bytes |
| Instructions | 1       |

```
      00 01 02 03 04 05 06 07  08 09 0A 0B 0C 0D 0E 0F
      -- -- -- -- -- -- -- --  -- -- -- -- -- -- -- --
0040:                   00                                    .         
```

#### Opcodes

```
  0: 0x0046 [0x00] END_REQSTACK()
```

### Event 65535.3

#### Metadata

| Field        | Value    |
|--------------|----------|
| Entrypoint   | 0x0047   |
| Data Size    | 16 bytes |
| Instructions | 2        |

```
      00 01 02 03 04 05 06 07  08 09 0A 0B 0C 0D 0E 0F
      -- -- -- -- -- -- -- --  -- -- -- -- -- -- -- --
0040:                      5B  00 80 F8 FF FF 7F F8 FF         [........
0050: FF 7F 74 6C 61 30 00                              ..tla0.         
```

#### Opcodes

```
  0: 0x0047 [0x5B] LOAD_EXT_SCHEDULER: Load scheduler "tla0" with entities [EventEntity, EventEntity], work=1272*
  1: 0x0056 [0x00] END_REQSTACK()
```

### Event 65535.4

#### Metadata

| Field        | Value    |
|--------------|----------|
| Entrypoint   | 0x0057   |
| Data Size    | 14 bytes |
| Instructions | 2        |

```
      00 01 02 03 04 05 06 07  08 09 0A 0B 0C 0D 0E 0F
      -- -- -- -- -- -- -- --  -- -- -- -- -- -- -- --
0050:                      53  F8 FF FF 7F F8 FF FF 7F         S........
0060: 74 6C 61 30 00                                    tla0.           
```

#### Opcodes

```
  0: 0x0057 [0x53] WAIT_SCHEDULER_TASK: Wait for scheduler "tla0" with entities [EventEntity, EventEntity]
  1: 0x0064 [0x00] END_REQSTACK()
```

### Event 65535.5

#### Metadata

| Field        | Value    |
|--------------|----------|
| Entrypoint   | 0x0065   |
| Data Size    | 16 bytes |
| Instructions | 2        |

```
      00 01 02 03 04 05 06 07  08 09 0A 0B 0C 0D 0E 0F
      -- -- -- -- -- -- -- --  -- -- -- -- -- -- -- --
0060:                5B 00 80  F8 FF FF 7F F8 FF FF 7F       [..........
0070: 74 6C 61 31 00                                    tla1.           
```

#### Opcodes

```
  0: 0x0065 [0x5B] LOAD_EXT_SCHEDULER: Load scheduler "tla1" with entities [EventEntity, EventEntity], work=1272*
  1: 0x0074 [0x00] END_REQSTACK()
```

### Event 65535.6

#### Metadata

| Field        | Value    |
|--------------|----------|
| Entrypoint   | 0x0075   |
| Data Size    | 14 bytes |
| Instructions | 2        |

```
      00 01 02 03 04 05 06 07  08 09 0A 0B 0C 0D 0E 0F
      -- -- -- -- -- -- -- --  -- -- -- -- -- -- -- --
0070:                53 F8 FF  FF 7F F8 FF FF 7F 74 6C       S........tl
0080: 61 31 00                                          a1.             
```

#### Opcodes

```
  0: 0x0075 [0x53] WAIT_SCHEDULER_TASK: Wait for scheduler "tla1" with entities [EventEntity, EventEntity]
  1: 0x0082 [0x00] END_REQSTACK()
```

### Event 65535.7

#### Metadata

| Field        | Value    |
|--------------|----------|
| Entrypoint   | 0x0083   |
| Data Size    | 16 bytes |
| Instructions | 2        |

```
      00 01 02 03 04 05 06 07  08 09 0A 0B 0C 0D 0E 0F
      -- -- -- -- -- -- -- --  -- -- -- -- -- -- -- --
0080:          5B 00 80 F8 FF  FF 7F F8 FF FF 7F 74 6C     [..........tl
0090: 62 30 00                                          b0.             
```

#### Opcodes

```
  0: 0x0083 [0x5B] LOAD_EXT_SCHEDULER: Load scheduler "tlb0" with entities [EventEntity, EventEntity], work=1272*
  1: 0x0092 [0x00] END_REQSTACK()
```

### Event 65535.8

#### Metadata

| Field        | Value    |
|--------------|----------|
| Entrypoint   | 0x0093   |
| Data Size    | 14 bytes |
| Instructions | 2        |

```
      00 01 02 03 04 05 06 07  08 09 0A 0B 0C 0D 0E 0F
      -- -- -- -- -- -- -- --  -- -- -- -- -- -- -- --
0090:          53 F8 FF FF 7F  F8 FF FF 7F 74 6C 62 30     S........tlb0
00A0: 00                                                .               
```

#### Opcodes

```
  0: 0x0093 [0x53] WAIT_SCHEDULER_TASK: Wait for scheduler "tlb0" with entities [EventEntity, EventEntity]
  1: 0x00A0 [0x00] END_REQSTACK()
```

### Event 65535.9

#### Metadata

| Field        | Value    |
|--------------|----------|
| Entrypoint   | 0x00A1   |
| Data Size    | 16 bytes |
| Instructions | 2        |

```
      00 01 02 03 04 05 06 07  08 09 0A 0B 0C 0D 0E 0F
      -- -- -- -- -- -- -- --  -- -- -- -- -- -- -- --
00A0:    5B 00 80 F8 FF FF 7F  F8 FF FF 7F 74 6C 62 31   [..........tlb1
00B0: 00                                                .               
```

#### Opcodes

```
  0: 0x00A1 [0x5B] LOAD_EXT_SCHEDULER: Load scheduler "tlb1" with entities [EventEntity, EventEntity], work=1272*
  1: 0x00B0 [0x00] END_REQSTACK()
```

### Event 65535.10

#### Metadata

| Field        | Value    |
|--------------|----------|
| Entrypoint   | 0x00B1   |
| Data Size    | 14 bytes |
| Instructions | 2        |

```
      00 01 02 03 04 05 06 07  08 09 0A 0B 0C 0D 0E 0F
      -- -- -- -- -- -- -- --  -- -- -- -- -- -- -- --
00B0:    53 F8 FF FF 7F F8 FF  FF 7F 74 6C 62 31 00      S........tlb1. 
```

#### Opcodes

```
  0: 0x00B1 [0x53] WAIT_SCHEDULER_TASK: Wait for scheduler "tlb1" with entities [EventEntity, EventEntity]
  1: 0x00BE [0x00] END_REQSTACK()
```

### Event 65535.11

#### Metadata

| Field        | Value    |
|--------------|----------|
| Entrypoint   | 0x00BF   |
| Data Size    | 16 bytes |
| Instructions | 2        |

```
      00 01 02 03 04 05 06 07  08 09 0A 0B 0C 0D 0E 0F
      -- -- -- -- -- -- -- --  -- -- -- -- -- -- -- --
00B0:                                               5B                 [
00C0: 00 80 F8 FF FF 7F F8 FF  FF 7F 74 6C 73 30 00     ..........tls0. 
```

#### Opcodes

```
  0: 0x00BF [0x5B] LOAD_EXT_SCHEDULER: Load scheduler "tls0" with entities [EventEntity, EventEntity], work=1272*
  1: 0x00CE [0x00] END_REQSTACK()
```

### Event 65535.12

#### Metadata

| Field        | Value    |
|--------------|----------|
| Entrypoint   | 0x00CF   |
| Data Size    | 14 bytes |
| Instructions | 2        |

```
      00 01 02 03 04 05 06 07  08 09 0A 0B 0C 0D 0E 0F
      -- -- -- -- -- -- -- --  -- -- -- -- -- -- -- --
00C0:                                               53                 S
00D0: F8 FF FF 7F F8 FF FF 7F  74 6C 73 30 00           ........tls0.   
```

#### Opcodes

```
  0: 0x00CF [0x53] WAIT_SCHEDULER_TASK: Wait for scheduler "tls0" with entities [EventEntity, EventEntity]
  1: 0x00DC [0x00] END_REQSTACK()
```

### Event 65535.13

#### Metadata

| Field        | Value    |
|--------------|----------|
| Entrypoint   | 0x00DD   |
| Data Size    | 16 bytes |
| Instructions | 2        |

```
      00 01 02 03 04 05 06 07  08 09 0A 0B 0C 0D 0E 0F
      -- -- -- -- -- -- -- --  -- -- -- -- -- -- -- --
00D0:                                         5B 00 80               [..
00E0: F8 FF FF 7F F8 FF FF 7F  74 6C 73 31 00           ........tls1.   
```

#### Opcodes

```
  0: 0x00DD [0x5B] LOAD_EXT_SCHEDULER: Load scheduler "tls1" with entities [EventEntity, EventEntity], work=1272*
  1: 0x00EC [0x00] END_REQSTACK()
```

### Event 65535.14

#### Metadata

| Field        | Value    |
|--------------|----------|
| Entrypoint   | 0x00ED   |
| Data Size    | 14 bytes |
| Instructions | 2        |

```
      00 01 02 03 04 05 06 07  08 09 0A 0B 0C 0D 0E 0F
      -- -- -- -- -- -- -- --  -- -- -- -- -- -- -- --
00E0:                                         53 F8 FF               S..
00F0: FF 7F F8 FF FF 7F 74 6C  73 31 00                 ......tls1.     
```

#### Opcodes

```
  0: 0x00ED [0x53] WAIT_SCHEDULER_TASK: Wait for scheduler "tls1" with entities [EventEntity, EventEntity]
  1: 0x00FA [0x00] END_REQSTACK()
```

### Event 65535.15

#### Metadata

| Field        | Value    |
|--------------|----------|
| Entrypoint   | 0x00FB   |
| Data Size    | 22 bytes |
| Instructions | 3        |

```
      00 01 02 03 04 05 06 07  08 09 0A 0B 0C 0D 0E 0F
      -- -- -- -- -- -- -- --  -- -- -- -- -- -- -- --
00F0:                                   81 00 F8 FF FF             .....
0100: 7F 5B 09 80 F8 FF FF 7F  F8 FF FF 7F 74 68 61 30  .[..........tha0
0110: 00                                                .               
```

#### Opcodes

```
  0: 0x00FB [0x81] SET_ENTITY_BLINKING(blink_flag=0x00, entity=EventEntity)
  1: 0x0101 [0x5B] LOAD_EXT_SCHEDULER: Load scheduler "tha0" with entities [EventEntity, EventEntity], work=1273*
  2: 0x0110 [0x00] END_REQSTACK()
```

### Event 65535.16

#### Metadata

| Field        | Value    |
|--------------|----------|
| Entrypoint   | 0x0111   |
| Data Size    | 14 bytes |
| Instructions | 2        |

```
      00 01 02 03 04 05 06 07  08 09 0A 0B 0C 0D 0E 0F
      -- -- -- -- -- -- -- --  -- -- -- -- -- -- -- --
0110:    53 F8 FF FF 7F F8 FF  FF 7F 74 68 61 30 00      S........tha0. 
```

#### Opcodes

```
  0: 0x0111 [0x53] WAIT_SCHEDULER_TASK: Wait for scheduler "tha0" with entities [EventEntity, EventEntity]
  1: 0x011E [0x00] END_REQSTACK()
```

### Event 65535.17

#### Metadata

| Field        | Value    |
|--------------|----------|
| Entrypoint   | 0x011F   |
| Data Size    | 22 bytes |
| Instructions | 3        |

```
      00 01 02 03 04 05 06 07  08 09 0A 0B 0C 0D 0E 0F
      -- -- -- -- -- -- -- --  -- -- -- -- -- -- -- --
0110:                                               81                 .
0120: 01 F8 FF FF 7F 5B 09 80  F8 FF FF 7F F8 FF FF 7F  .....[..........
0130: 74 68 61 31 00                                    tha1.           
```

#### Opcodes

```
  0: 0x011F [0x81] SET_ENTITY_BLINKING(blink_flag=0x01, entity=EventEntity)
  1: 0x0125 [0x5B] LOAD_EXT_SCHEDULER: Load scheduler "tha1" with entities [EventEntity, EventEntity], work=1273*
  2: 0x0134 [0x00] END_REQSTACK()
```

### Event 65535.18

#### Metadata

| Field        | Value    |
|--------------|----------|
| Entrypoint   | 0x0135   |
| Data Size    | 14 bytes |
| Instructions | 2        |

```
      00 01 02 03 04 05 06 07  08 09 0A 0B 0C 0D 0E 0F
      -- -- -- -- -- -- -- --  -- -- -- -- -- -- -- --
0130:                53 F8 FF  FF 7F F8 FF FF 7F 74 68       S........th
0140: 61 31 00                                          a1.             
```

#### Opcodes

```
  0: 0x0135 [0x53] WAIT_SCHEDULER_TASK: Wait for scheduler "tha1" with entities [EventEntity, EventEntity]
  1: 0x0142 [0x00] END_REQSTACK()
```

### Event 65535.19

#### Metadata

| Field        | Value    |
|--------------|----------|
| Entrypoint   | 0x0143   |
| Data Size    | 22 bytes |
| Instructions | 3        |

```
      00 01 02 03 04 05 06 07  08 09 0A 0B 0C 0D 0E 0F
      -- -- -- -- -- -- -- --  -- -- -- -- -- -- -- --
0140:          81 00 F8 FF FF  7F 5B 09 80 F8 FF FF 7F     ......[......
0150: F8 FF FF 7F 74 68 62 30  00                       ....thb0.       
```

#### Opcodes

```
  0: 0x0143 [0x81] SET_ENTITY_BLINKING(blink_flag=0x00, entity=EventEntity)
  1: 0x0149 [0x5B] LOAD_EXT_SCHEDULER: Load scheduler "thb0" with entities [EventEntity, EventEntity], work=1273*
  2: 0x0158 [0x00] END_REQSTACK()
```

### Event 65535.20

#### Metadata

| Field        | Value    |
|--------------|----------|
| Entrypoint   | 0x0159   |
| Data Size    | 14 bytes |
| Instructions | 2        |

```
      00 01 02 03 04 05 06 07  08 09 0A 0B 0C 0D 0E 0F
      -- -- -- -- -- -- -- --  -- -- -- -- -- -- -- --
0150:                             53 F8 FF FF 7F F8 FF           S......
0160: FF 7F 74 68 62 30 00                              ..thb0.         
```

#### Opcodes

```
  0: 0x0159 [0x53] WAIT_SCHEDULER_TASK: Wait for scheduler "thb0" with entities [EventEntity, EventEntity]
  1: 0x0166 [0x00] END_REQSTACK()
```

### Event 65535.21

#### Metadata

| Field        | Value    |
|--------------|----------|
| Entrypoint   | 0x0167   |
| Data Size    | 22 bytes |
| Instructions | 3        |

```
      00 01 02 03 04 05 06 07  08 09 0A 0B 0C 0D 0E 0F
      -- -- -- -- -- -- -- --  -- -- -- -- -- -- -- --
0160:                      81  01 F8 FF FF 7F 5B 09 80         ......[..
0170: F8 FF FF 7F F8 FF FF 7F  74 68 62 31 00           ........thb1.   
```

#### Opcodes

```
  0: 0x0167 [0x81] SET_ENTITY_BLINKING(blink_flag=0x01, entity=EventEntity)
  1: 0x016D [0x5B] LOAD_EXT_SCHEDULER: Load scheduler "thb1" with entities [EventEntity, EventEntity], work=1273*
  2: 0x017C [0x00] END_REQSTACK()
```

### Event 65535.22

#### Metadata

| Field        | Value    |
|--------------|----------|
| Entrypoint   | 0x017D   |
| Data Size    | 14 bytes |
| Instructions | 2        |

```
      00 01 02 03 04 05 06 07  08 09 0A 0B 0C 0D 0E 0F
      -- -- -- -- -- -- -- --  -- -- -- -- -- -- -- --
0170:                                         53 F8 FF               S..
0180: FF 7F F8 FF FF 7F 74 68  62 31 00                 ......thb1.     
```

#### Opcodes

```
  0: 0x017D [0x53] WAIT_SCHEDULER_TASK: Wait for scheduler "thb1" with entities [EventEntity, EventEntity]
  1: 0x018A [0x00] END_REQSTACK()
```

### Event 65535.23

#### Metadata

| Field        | Value    |
|--------------|----------|
| Entrypoint   | 0x018B   |
| Data Size    | 28 bytes |
| Instructions | 4        |

```
      00 01 02 03 04 05 06 07  08 09 0A 0B 0C 0D 0E 0F
      -- -- -- -- -- -- -- --  -- -- -- -- -- -- -- --
0180:                                   81 00 F8 FF FF             .....
0190: 7F 7C 00 F8 FF FF 7F 5B  09 80 F8 FF FF 7F F8 FF  .|.....[........
01A0: FF 7F 77 61 72 30 00                              ..war0.         
```

#### Opcodes

```
  0: 0x018B [0x81] SET_ENTITY_BLINKING(blink_flag=0x00, entity=EventEntity)
  1: 0x0191 [0x7C] EventEntity->Render.Flags2 |= 0x00
  2: 0x0197 [0x5B] LOAD_EXT_SCHEDULER: Load scheduler "war0" with entities [EventEntity, EventEntity], work=1273*
  3: 0x01A6 [0x00] END_REQSTACK()
```

### Event 65535.24

#### Metadata

| Field        | Value    |
|--------------|----------|
| Entrypoint   | 0x01A7   |
| Data Size    | 26 bytes |
| Instructions | 4        |

```
      00 01 02 03 04 05 06 07  08 09 0A 0B 0C 0D 0E 0F
      -- -- -- -- -- -- -- --  -- -- -- -- -- -- -- --
01A0:                      53  F8 FF FF 7F F8 FF FF 7F         S........
01B0: 77 61 72 30 81 01 F8 FF  FF 7F 7C 01 F8 FF FF 7F  war0......|.....
01C0: 00                                                .               
```

#### Opcodes

```
  0: 0x01A7 [0x53] WAIT_SCHEDULER_TASK: Wait for scheduler "war0" with entities [EventEntity, EventEntity]
  1: 0x01B4 [0x81] SET_ENTITY_BLINKING(blink_flag=0x01, entity=EventEntity)
  2: 0x01BA [0x7C] EventEntity->Render.Flags2 |= 0x01
  3: 0x01C0 [0x00] END_REQSTACK()
```

### Event 65535.25

#### Metadata

| Field        | Value    |
|--------------|----------|
| Entrypoint   | 0x01C1   |
| Data Size    | 16 bytes |
| Instructions | 2        |

```
      00 01 02 03 04 05 06 07  08 09 0A 0B 0C 0D 0E 0F
      -- -- -- -- -- -- -- --  -- -- -- -- -- -- -- --
01C0:    5B 0A 80 F8 FF FF 7F  F8 FF FF 7F 75 64 65 30   [..........ude0
01D0: 00                                                .               
```

#### Opcodes

```
  0: 0x01C1 [0x5B] LOAD_EXT_SCHEDULER: Load scheduler "ude0" with entities [EventEntity, EventEntity], work=1299*
  1: 0x01D0 [0x00] END_REQSTACK()
```

### Event 65535.26

#### Metadata

| Field        | Value    |
|--------------|----------|
| Entrypoint   | 0x01D1   |
| Data Size    | 14 bytes |
| Instructions | 2        |

```
      00 01 02 03 04 05 06 07  08 09 0A 0B 0C 0D 0E 0F
      -- -- -- -- -- -- -- --  -- -- -- -- -- -- -- --
01D0:    53 F8 FF FF 7F F8 FF  FF 7F 75 64 65 30 00      S........ude0. 
```

#### Opcodes

```
  0: 0x01D1 [0x53] WAIT_SCHEDULER_TASK: Wait for scheduler "ude0" with entities [EventEntity, EventEntity]
  1: 0x01DE [0x00] END_REQSTACK()
```

### Event 65535.27

#### Metadata

| Field        | Value    |
|--------------|----------|
| Entrypoint   | 0x01DF   |
| Data Size    | 22 bytes |
| Instructions | 3        |

```
      00 01 02 03 04 05 06 07  08 09 0A 0B 0C 0D 0E 0F
      -- -- -- -- -- -- -- --  -- -- -- -- -- -- -- --
01D0:                                               81                 .
01E0: 01 F8 FF FF 7F 5B 0A 80  F8 FF FF 7F F8 FF FF 7F  .....[..........
01F0: 75 64 65 31 00                                    ude1.           
```

#### Opcodes

```
  0: 0x01DF [0x81] SET_ENTITY_BLINKING(blink_flag=0x01, entity=EventEntity)
  1: 0x01E5 [0x5B] LOAD_EXT_SCHEDULER: Load scheduler "ude1" with entities [EventEntity, EventEntity], work=1299*
  2: 0x01F4 [0x00] END_REQSTACK()
```

### Event 65535.28

#### Metadata

| Field        | Value    |
|--------------|----------|
| Entrypoint   | 0x01F5   |
| Data Size    | 14 bytes |
| Instructions | 2        |

```
      00 01 02 03 04 05 06 07  08 09 0A 0B 0C 0D 0E 0F
      -- -- -- -- -- -- -- --  -- -- -- -- -- -- -- --
01F0:                53 F8 FF  FF 7F F8 FF FF 7F 75 64       S........ud
0200: 65 31 00                                          e1.             
```

#### Opcodes

```
  0: 0x01F5 [0x53] WAIT_SCHEDULER_TASK: Wait for scheduler "ude1" with entities [EventEntity, EventEntity]
  1: 0x0202 [0x00] END_REQSTACK()
```

### Event 65535.29

#### Metadata

| Field        | Value    |
|--------------|----------|
| Entrypoint   | 0x0203   |
| Data Size    | 28 bytes |
| Instructions | 4        |

```
      00 01 02 03 04 05 06 07  08 09 0A 0B 0C 0D 0E 0F
      -- -- -- -- -- -- -- --  -- -- -- -- -- -- -- --
0200:          81 00 F8 FF FF  7F 7C 00 F8 FF FF 7F 5B     ......|.....[
0210: 0B 80 F8 FF FF 7F F8 FF  FF 7F 68 65 79 30 00     ..........hey0. 
```

#### Opcodes

```
  0: 0x0203 [0x81] SET_ENTITY_BLINKING(blink_flag=0x00, entity=EventEntity)
  1: 0x0209 [0x7C] EventEntity->Render.Flags2 |= 0x00
  2: 0x020F [0x5B] LOAD_EXT_SCHEDULER: Load scheduler "hey0" with entities [EventEntity, EventEntity], work=1301*
  3: 0x021E [0x00] END_REQSTACK()
```

### Event 65535.30

#### Metadata

| Field        | Value    |
|--------------|----------|
| Entrypoint   | 0x021F   |
| Data Size    | 26 bytes |
| Instructions | 4        |

```
      00 01 02 03 04 05 06 07  08 09 0A 0B 0C 0D 0E 0F
      -- -- -- -- -- -- -- --  -- -- -- -- -- -- -- --
0210:                                               53                 S
0220: F8 FF FF 7F F8 FF FF 7F  68 65 79 30 81 01 F8 FF  ........hey0....
0230: FF 7F 7C 01 F8 FF FF 7F  00                       ..|......       
```

#### Opcodes

```
  0: 0x021F [0x53] WAIT_SCHEDULER_TASK: Wait for scheduler "hey0" with entities [EventEntity, EventEntity]
  1: 0x022C [0x81] SET_ENTITY_BLINKING(blink_flag=0x01, entity=EventEntity)
  2: 0x0232 [0x7C] EventEntity->Render.Flags2 |= 0x01
  3: 0x0238 [0x00] END_REQSTACK()
```

### Event 65535.31

#### Metadata

| Field        | Value    |
|--------------|----------|
| Entrypoint   | 0x0239   |
| Data Size    | 16 bytes |
| Instructions | 2        |

```
      00 01 02 03 04 05 06 07  08 09 0A 0B 0C 0D 0E 0F
      -- -- -- -- -- -- -- --  -- -- -- -- -- -- -- --
0230:                             5B 0B 80 F8 FF FF 7F           [......
0240: F8 FF FF 7F 6B 65 69 30  00                       ....kei0.       
```

#### Opcodes

```
  0: 0x0239 [0x5B] LOAD_EXT_SCHEDULER: Load scheduler "kei0" with entities [EventEntity, EventEntity], work=1301*
  1: 0x0248 [0x00] END_REQSTACK()
```

### Event 65535.32

#### Metadata

| Field        | Value    |
|--------------|----------|
| Entrypoint   | 0x0249   |
| Data Size    | 14 bytes |
| Instructions | 2        |

```
      00 01 02 03 04 05 06 07  08 09 0A 0B 0C 0D 0E 0F
      -- -- -- -- -- -- -- --  -- -- -- -- -- -- -- --
0240:                             53 F8 FF FF 7F F8 FF           S......
0250: FF 7F 6B 65 69 30 00                              ..kei0.         
```

#### Opcodes

```
  0: 0x0249 [0x53] WAIT_SCHEDULER_TASK: Wait for scheduler "kei0" with entities [EventEntity, EventEntity]
  1: 0x0256 [0x00] END_REQSTACK()
```

### Event 65535.33

#### Metadata

| Field        | Value    |
|--------------|----------|
| Entrypoint   | 0x0257   |
| Data Size    | 16 bytes |
| Instructions | 2        |

```
      00 01 02 03 04 05 06 07  08 09 0A 0B 0C 0D 0E 0F
      -- -- -- -- -- -- -- --  -- -- -- -- -- -- -- --
0250:                      5B  0B 80 F8 FF FF 7F F8 FF         [........
0260: FF 7F 6B 65 69 31 00                              ..kei1.         
```

#### Opcodes

```
  0: 0x0257 [0x5B] LOAD_EXT_SCHEDULER: Load scheduler "kei1" with entities [EventEntity, EventEntity], work=1301*
  1: 0x0266 [0x00] END_REQSTACK()
```

### Event 65535.34

#### Metadata

| Field        | Value    |
|--------------|----------|
| Entrypoint   | 0x0267   |
| Data Size    | 14 bytes |
| Instructions | 2        |

```
      00 01 02 03 04 05 06 07  08 09 0A 0B 0C 0D 0E 0F
      -- -- -- -- -- -- -- --  -- -- -- -- -- -- -- --
0260:                      53  F8 FF FF 7F F8 FF FF 7F         S........
0270: 6B 65 69 31 00                                    kei1.           
```

#### Opcodes

```
  0: 0x0267 [0x53] WAIT_SCHEDULER_TASK: Wait for scheduler "kei1" with entities [EventEntity, EventEntity]
  1: 0x0274 [0x00] END_REQSTACK()
```

### Event 65535.35

#### Metadata

| Field        | Value    |
|--------------|----------|
| Entrypoint   | 0x0275   |
| Data Size    | 16 bytes |
| Instructions | 2        |

```
      00 01 02 03 04 05 06 07  08 09 0A 0B 0C 0D 0E 0F
      -- -- -- -- -- -- -- --  -- -- -- -- -- -- -- --
0270:                5B 0B 80  F8 FF FF 7F F8 FF FF 7F       [..........
0280: 73 68 61 30 00                                    sha0.           
```

#### Opcodes

```
  0: 0x0275 [0x5B] LOAD_EXT_SCHEDULER: Load scheduler "sha0" with entities [EventEntity, EventEntity], work=1301*
  1: 0x0284 [0x00] END_REQSTACK()
```

### Event 65535.36

#### Metadata

| Field        | Value    |
|--------------|----------|
| Entrypoint   | 0x0285   |
| Data Size    | 14 bytes |
| Instructions | 2        |

```
      00 01 02 03 04 05 06 07  08 09 0A 0B 0C 0D 0E 0F
      -- -- -- -- -- -- -- --  -- -- -- -- -- -- -- --
0280:                53 F8 FF  FF 7F F8 FF FF 7F 73 68       S........sh
0290: 61 30 00                                          a0.             
```

#### Opcodes

```
  0: 0x0285 [0x53] WAIT_SCHEDULER_TASK: Wait for scheduler "sha0" with entities [EventEntity, EventEntity]
  1: 0x0292 [0x00] END_REQSTACK()
```

### Event 65535.37

#### Metadata

| Field        | Value    |
|--------------|----------|
| Entrypoint   | 0x0293   |
| Data Size    | 16 bytes |
| Instructions | 2        |

```
      00 01 02 03 04 05 06 07  08 09 0A 0B 0C 0D 0E 0F
      -- -- -- -- -- -- -- --  -- -- -- -- -- -- -- --
0290:          5B 0B 80 F8 FF  FF 7F F8 FF FF 7F 73 68     [..........sh
02A0: 61 31 00                                          a1.             
```

#### Opcodes

```
  0: 0x0293 [0x5B] LOAD_EXT_SCHEDULER: Load scheduler "sha1" with entities [EventEntity, EventEntity], work=1301*
  1: 0x02A2 [0x00] END_REQSTACK()
```

### Event 65535.38

#### Metadata

| Field        | Value    |
|--------------|----------|
| Entrypoint   | 0x02A3   |
| Data Size    | 14 bytes |
| Instructions | 2        |

```
      00 01 02 03 04 05 06 07  08 09 0A 0B 0C 0D 0E 0F
      -- -- -- -- -- -- -- --  -- -- -- -- -- -- -- --
02A0:          53 F8 FF FF 7F  F8 FF FF 7F 73 68 61 31     S........sha1
02B0: 00                                                .               
```

#### Opcodes

```
  0: 0x02A3 [0x53] WAIT_SCHEDULER_TASK: Wait for scheduler "sha1" with entities [EventEntity, EventEntity]
  1: 0x02B0 [0x00] END_REQSTACK()
```

### Event 65535.39

#### Metadata

| Field        | Value    |
|--------------|----------|
| Entrypoint   | 0x02B1   |
| Data Size    | 28 bytes |
| Instructions | 4        |

```
      00 01 02 03 04 05 06 07  08 09 0A 0B 0C 0D 0E 0F
      -- -- -- -- -- -- -- --  -- -- -- -- -- -- -- --
02B0:    81 00 F8 FF FF 7F 7C  00 F8 FF FF 7F 5B 0C 80   ......|.....[..
02C0: F8 FF FF 7F F8 FF FF 7F  62 69 6B 30 00           ........bik0.   
```

#### Opcodes

```
  0: 0x02B1 [0x81] SET_ENTITY_BLINKING(blink_flag=0x00, entity=EventEntity)
  1: 0x02B7 [0x7C] EventEntity->Render.Flags2 |= 0x00
  2: 0x02BD [0x5B] LOAD_EXT_SCHEDULER: Load scheduler "bik0" with entities [EventEntity, EventEntity], work=1437*
  3: 0x02CC [0x00] END_REQSTACK()
```

### Event 65535.40

#### Metadata

| Field        | Value    |
|--------------|----------|
| Entrypoint   | 0x02CD   |
| Data Size    | 14 bytes |
| Instructions | 2        |

```
      00 01 02 03 04 05 06 07  08 09 0A 0B 0C 0D 0E 0F
      -- -- -- -- -- -- -- --  -- -- -- -- -- -- -- --
02C0:                                         53 F8 FF               S..
02D0: FF 7F F8 FF FF 7F 62 69  6B 30 00                 ......bik0.     
```

#### Opcodes

```
  0: 0x02CD [0x53] WAIT_SCHEDULER_TASK: Wait for scheduler "bik0" with entities [EventEntity, EventEntity]
  1: 0x02DA [0x00] END_REQSTACK()
```

### Event 65535.41

#### Metadata

| Field        | Value    |
|--------------|----------|
| Entrypoint   | 0x02DB   |
| Data Size    | 16 bytes |
| Instructions | 2        |

```
      00 01 02 03 04 05 06 07  08 09 0A 0B 0C 0D 0E 0F
      -- -- -- -- -- -- -- --  -- -- -- -- -- -- -- --
02D0:                                   5B 0C 80 F8 FF             [....
02E0: FF 7F F8 FF FF 7F 62 69  6B 31 00                 ......bik1.     
```

#### Opcodes

```
  0: 0x02DB [0x5B] LOAD_EXT_SCHEDULER: Load scheduler "bik1" with entities [EventEntity, EventEntity], work=1437*
  1: 0x02EA [0x00] END_REQSTACK()
```

### Event 65535.42

#### Metadata

| Field        | Value    |
|--------------|----------|
| Entrypoint   | 0x02EB   |
| Data Size    | 26 bytes |
| Instructions | 4        |

```
      00 01 02 03 04 05 06 07  08 09 0A 0B 0C 0D 0E 0F
      -- -- -- -- -- -- -- --  -- -- -- -- -- -- -- --
02E0:                                   53 F8 FF FF 7F             S....
02F0: F8 FF FF 7F 62 69 6B 31  81 01 F8 FF FF 7F 7C 01  ....bik1......|.
0300: F8 FF FF 7F 00                                    .....           
```

#### Opcodes

```
  0: 0x02EB [0x53] WAIT_SCHEDULER_TASK: Wait for scheduler "bik1" with entities [EventEntity, EventEntity]
  1: 0x02F8 [0x81] SET_ENTITY_BLINKING(blink_flag=0x01, entity=EventEntity)
  2: 0x02FE [0x7C] EventEntity->Render.Flags2 |= 0x01
  3: 0x0304 [0x00] END_REQSTACK()
```

### Event 65535.43

#### Metadata

| Field        | Value    |
|--------------|----------|
| Entrypoint   | 0x0305   |
| Data Size    | 16 bytes |
| Instructions | 2        |

```
      00 01 02 03 04 05 06 07  08 09 0A 0B 0C 0D 0E 0F
      -- -- -- -- -- -- -- --  -- -- -- -- -- -- -- --
0300:                5B 0D 80  F8 FF FF 7F F8 FF FF 7F       [..........
0310: 70 6E 74 30 00                                    pnt0.           
```

#### Opcodes

```
  0: 0x0305 [0x5B] LOAD_EXT_SCHEDULER: Load scheduler "pnt0" with entities [EventEntity, EventEntity], work=1438*
  1: 0x0314 [0x00] END_REQSTACK()
```

### Event 65535.44

#### Metadata

| Field        | Value    |
|--------------|----------|
| Entrypoint   | 0x0315   |
| Data Size    | 14 bytes |
| Instructions | 2        |

```
      00 01 02 03 04 05 06 07  08 09 0A 0B 0C 0D 0E 0F
      -- -- -- -- -- -- -- --  -- -- -- -- -- -- -- --
0310:                53 F8 FF  FF 7F F8 FF FF 7F 70 6E       S........pn
0320: 74 30 00                                          t0.             
```

#### Opcodes

```
  0: 0x0315 [0x53] WAIT_SCHEDULER_TASK: Wait for scheduler "pnt0" with entities [EventEntity, EventEntity]
  1: 0x0322 [0x00] END_REQSTACK()
```

### Event 65535.45

#### Metadata

| Field        | Value    |
|--------------|----------|
| Entrypoint   | 0x0323   |
| Data Size    | 16 bytes |
| Instructions | 2        |

```
      00 01 02 03 04 05 06 07  08 09 0A 0B 0C 0D 0E 0F
      -- -- -- -- -- -- -- --  -- -- -- -- -- -- -- --
0320:          5B 0D 80 F8 FF  FF 7F F8 FF FF 7F 70 6E     [..........pn
0330: 74 31 00                                          t1.             
```

#### Opcodes

```
  0: 0x0323 [0x5B] LOAD_EXT_SCHEDULER: Load scheduler "pnt1" with entities [EventEntity, EventEntity], work=1438*
  1: 0x0332 [0x00] END_REQSTACK()
```

### Event 65535.46

#### Metadata

| Field        | Value    |
|--------------|----------|
| Entrypoint   | 0x0333   |
| Data Size    | 14 bytes |
| Instructions | 2        |

```
      00 01 02 03 04 05 06 07  08 09 0A 0B 0C 0D 0E 0F
      -- -- -- -- -- -- -- --  -- -- -- -- -- -- -- --
0330:          53 F8 FF FF 7F  F8 FF FF 7F 70 6E 74 31     S........pnt1
0340: 00                                                .               
```

#### Opcodes

```
  0: 0x0333 [0x53] WAIT_SCHEDULER_TASK: Wait for scheduler "pnt1" with entities [EventEntity, EventEntity]
  1: 0x0340 [0x00] END_REQSTACK()
```

### Event 65535.47

#### Metadata

| Field        | Value    |
|--------------|----------|
| Entrypoint   | 0x0341   |
| Data Size    | 16 bytes |
| Instructions | 2        |

```
      00 01 02 03 04 05 06 07  08 09 0A 0B 0C 0D 0E 0F
      -- -- -- -- -- -- -- --  -- -- -- -- -- -- -- --
0340:    5B 0D 80 F8 FF FF 7F  F8 FF FF 7F 77 61 76 30   [..........wav0
0350: 00                                                .               
```

#### Opcodes

```
  0: 0x0341 [0x5B] LOAD_EXT_SCHEDULER: Load scheduler "wav0" with entities [EventEntity, EventEntity], work=1438*
  1: 0x0350 [0x00] END_REQSTACK()
```

### Event 65535.48

#### Metadata

| Field        | Value    |
|--------------|----------|
| Entrypoint   | 0x0351   |
| Data Size    | 14 bytes |
| Instructions | 2        |

```
      00 01 02 03 04 05 06 07  08 09 0A 0B 0C 0D 0E 0F
      -- -- -- -- -- -- -- --  -- -- -- -- -- -- -- --
0350:    53 F8 FF FF 7F F8 FF  FF 7F 77 61 76 30 00      S........wav0. 
```

#### Opcodes

```
  0: 0x0351 [0x53] WAIT_SCHEDULER_TASK: Wait for scheduler "wav0" with entities [EventEntity, EventEntity]
  1: 0x035E [0x00] END_REQSTACK()
```

### Event 65535.49

#### Metadata

| Field        | Value    |
|--------------|----------|
| Entrypoint   | 0x035F   |
| Data Size    | 16 bytes |
| Instructions | 2        |

```
      00 01 02 03 04 05 06 07  08 09 0A 0B 0C 0D 0E 0F
      -- -- -- -- -- -- -- --  -- -- -- -- -- -- -- --
0350:                                               5B                 [
0360: 0E 80 F8 FF FF 7F F8 FF  FF 7F 69 6B 61 30 00     ..........ika0. 
```

#### Opcodes

```
  0: 0x035F [0x5B] LOAD_EXT_SCHEDULER: Load scheduler "ika0" with entities [EventEntity, EventEntity], work=1439*
  1: 0x036E [0x00] END_REQSTACK()
```

### Event 65535.50

#### Metadata

| Field        | Value    |
|--------------|----------|
| Entrypoint   | 0x036F   |
| Data Size    | 14 bytes |
| Instructions | 2        |

```
      00 01 02 03 04 05 06 07  08 09 0A 0B 0C 0D 0E 0F
      -- -- -- -- -- -- -- --  -- -- -- -- -- -- -- --
0360:                                               53                 S
0370: F8 FF FF 7F F8 FF FF 7F  69 6B 61 30 00           ........ika0.   
```

#### Opcodes

```
  0: 0x036F [0x53] WAIT_SCHEDULER_TASK: Wait for scheduler "ika0" with entities [EventEntity, EventEntity]
  1: 0x037C [0x00] END_REQSTACK()
```

### Event 65535.51

#### Metadata

| Field        | Value    |
|--------------|----------|
| Entrypoint   | 0x037D   |
| Data Size    | 16 bytes |
| Instructions | 2        |

```
      00 01 02 03 04 05 06 07  08 09 0A 0B 0C 0D 0E 0F
      -- -- -- -- -- -- -- --  -- -- -- -- -- -- -- --
0370:                                         5B 0E 80               [..
0380: F8 FF FF 7F F8 FF FF 7F  69 6B 61 31 00           ........ika1.   
```

#### Opcodes

```
  0: 0x037D [0x5B] LOAD_EXT_SCHEDULER: Load scheduler "ika1" with entities [EventEntity, EventEntity], work=1439*
  1: 0x038C [0x00] END_REQSTACK()
```

### Event 65535.52

#### Metadata

| Field        | Value    |
|--------------|----------|
| Entrypoint   | 0x038D   |
| Data Size    | 14 bytes |
| Instructions | 2        |

```
      00 01 02 03 04 05 06 07  08 09 0A 0B 0C 0D 0E 0F
      -- -- -- -- -- -- -- --  -- -- -- -- -- -- -- --
0380:                                         53 F8 FF               S..
0390: FF 7F F8 FF FF 7F 69 6B  61 31 00                 ......ika1.     
```

#### Opcodes

```
  0: 0x038D [0x53] WAIT_SCHEDULER_TASK: Wait for scheduler "ika1" with entities [EventEntity, EventEntity]
  1: 0x039A [0x00] END_REQSTACK()
```

### Event 65535.53

#### Metadata

| Field        | Value    |
|--------------|----------|
| Entrypoint   | 0x039B   |
| Data Size    | 16 bytes |
| Instructions | 2        |

```
      00 01 02 03 04 05 06 07  08 09 0A 0B 0C 0D 0E 0F
      -- -- -- -- -- -- -- --  -- -- -- -- -- -- -- --
0390:                                   5B 0E 80 F8 FF             [....
03A0: FF 7F F8 FF FF 7F 69 6B  61 32 00                 ......ika2.     
```

#### Opcodes

```
  0: 0x039B [0x5B] LOAD_EXT_SCHEDULER: Load scheduler "ika2" with entities [EventEntity, EventEntity], work=1439*
  1: 0x03AA [0x00] END_REQSTACK()
```

### Event 65535.54

#### Metadata

| Field        | Value    |
|--------------|----------|
| Entrypoint   | 0x03AB   |
| Data Size    | 14 bytes |
| Instructions | 2        |

```
      00 01 02 03 04 05 06 07  08 09 0A 0B 0C 0D 0E 0F
      -- -- -- -- -- -- -- --  -- -- -- -- -- -- -- --
03A0:                                   53 F8 FF FF 7F             S....
03B0: F8 FF FF 7F 69 6B 61 32  00                       ....ika2.       
```

#### Opcodes

```
  0: 0x03AB [0x53] WAIT_SCHEDULER_TASK: Wait for scheduler "ika2" with entities [EventEntity, EventEntity]
  1: 0x03B8 [0x00] END_REQSTACK()
```

### Event 65535.55

#### Metadata

| Field        | Value    |
|--------------|----------|
| Entrypoint   | 0x03B9   |
| Data Size    | 16 bytes |
| Instructions | 2        |

```
      00 01 02 03 04 05 06 07  08 09 0A 0B 0C 0D 0E 0F
      -- -- -- -- -- -- -- --  -- -- -- -- -- -- -- --
03B0:                             5B 0E 80 F8 FF FF 7F           [......
03C0: F8 FF FF 7F 69 6B 61 33  00                       ....ika3.       
```

#### Opcodes

```
  0: 0x03B9 [0x5B] LOAD_EXT_SCHEDULER: Load scheduler "ika3" with entities [EventEntity, EventEntity], work=1439*
  1: 0x03C8 [0x00] END_REQSTACK()
```

### Event 65535.56

#### Metadata

| Field        | Value    |
|--------------|----------|
| Entrypoint   | 0x03C9   |
| Data Size    | 14 bytes |
| Instructions | 2        |

```
      00 01 02 03 04 05 06 07  08 09 0A 0B 0C 0D 0E 0F
      -- -- -- -- -- -- -- --  -- -- -- -- -- -- -- --
03C0:                             53 F8 FF FF 7F F8 FF           S......
03D0: FF 7F 69 6B 61 33 00                              ..ika3.         
```

#### Opcodes

```
  0: 0x03C9 [0x53] WAIT_SCHEDULER_TASK: Wait for scheduler "ika3" with entities [EventEntity, EventEntity]
  1: 0x03D6 [0x00] END_REQSTACK()
```

### Event 65535.57

#### Metadata

| Field        | Value    |
|--------------|----------|
| Entrypoint   | 0x03D7   |
| Data Size    | 16 bytes |
| Instructions | 2        |

```
      00 01 02 03 04 05 06 07  08 09 0A 0B 0C 0D 0E 0F
      -- -- -- -- -- -- -- --  -- -- -- -- -- -- -- --
03D0:                      5B  0F 80 F8 FF FF 7F F8 FF         [........
03E0: FF 7F 79 65 73 30 00                              ..yes0.         
```

#### Opcodes

```
  0: 0x03D7 [0x5B] LOAD_EXT_SCHEDULER: Load scheduler "yes0" with entities [EventEntity, EventEntity], work=2349*
  1: 0x03E6 [0x00] END_REQSTACK()
```

### Event 65535.58

#### Metadata

| Field        | Value    |
|--------------|----------|
| Entrypoint   | 0x03E7   |
| Data Size    | 14 bytes |
| Instructions | 2        |

```
      00 01 02 03 04 05 06 07  08 09 0A 0B 0C 0D 0E 0F
      -- -- -- -- -- -- -- --  -- -- -- -- -- -- -- --
03E0:                      53  F8 FF FF 7F F8 FF FF 7F         S........
03F0: 79 65 73 30 00                                    yes0.           
```

#### Opcodes

```
  0: 0x03E7 [0x53] WAIT_SCHEDULER_TASK: Wait for scheduler "yes0" with entities [EventEntity, EventEntity]
  1: 0x03F4 [0x00] END_REQSTACK()
```

### Event 65535.59

#### Metadata

| Field        | Value    |
|--------------|----------|
| Entrypoint   | 0x03F5   |
| Data Size    | 16 bytes |
| Instructions | 2        |

```
      00 01 02 03 04 05 06 07  08 09 0A 0B 0C 0D 0E 0F
      -- -- -- -- -- -- -- --  -- -- -- -- -- -- -- --
03F0:                5B 0F 80  F8 FF FF 7F F8 FF FF 7F       [..........
0400: 70 61 73 30 00                                    pas0.           
```

#### Opcodes

```
  0: 0x03F5 [0x5B] LOAD_EXT_SCHEDULER: Load scheduler "pas0" with entities [EventEntity, EventEntity], work=2349*
  1: 0x0404 [0x00] END_REQSTACK()
```

### Event 65535.60

#### Metadata

| Field        | Value    |
|--------------|----------|
| Entrypoint   | 0x0405   |
| Data Size    | 14 bytes |
| Instructions | 2        |

```
      00 01 02 03 04 05 06 07  08 09 0A 0B 0C 0D 0E 0F
      -- -- -- -- -- -- -- --  -- -- -- -- -- -- -- --
0400:                53 F8 FF  FF 7F F8 FF FF 7F 70 61       S........pa
0410: 73 30 00                                          s0.             
```

#### Opcodes

```
  0: 0x0405 [0x53] WAIT_SCHEDULER_TASK: Wait for scheduler "pas0" with entities [EventEntity, EventEntity]
  1: 0x0412 [0x00] END_REQSTACK()
```

### Event 65535.61

#### Metadata

| Field        | Value    |
|--------------|----------|
| Entrypoint   | 0x0413   |
| Data Size    | 28 bytes |
| Instructions | 4        |

```
      00 01 02 03 04 05 06 07  08 09 0A 0B 0C 0D 0E 0F
      -- -- -- -- -- -- -- --  -- -- -- -- -- -- -- --
0410:          81 00 F8 FF FF  7F 7C 00 F8 FF FF 7F 5B     ......|.....[
0420: 0F 80 F8 FF FF 7F F8 FF  FF 7F 6C 61 75 30 00     ..........lau0. 
```

#### Opcodes

```
  0: 0x0413 [0x81] SET_ENTITY_BLINKING(blink_flag=0x00, entity=EventEntity)
  1: 0x0419 [0x7C] EventEntity->Render.Flags2 |= 0x00
  2: 0x041F [0x5B] LOAD_EXT_SCHEDULER: Load scheduler "lau0" with entities [EventEntity, EventEntity], work=2349*
  3: 0x042E [0x00] END_REQSTACK()
```

### Event 65535.62

#### Metadata

| Field        | Value    |
|--------------|----------|
| Entrypoint   | 0x042F   |
| Data Size    | 26 bytes |
| Instructions | 4        |

```
      00 01 02 03 04 05 06 07  08 09 0A 0B 0C 0D 0E 0F
      -- -- -- -- -- -- -- --  -- -- -- -- -- -- -- --
0420:                                               53                 S
0430: F8 FF FF 7F F8 FF FF 7F  6C 61 75 30 81 01 F8 FF  ........lau0....
0440: FF 7F 7C 01 F8 FF FF 7F  00                       ..|......       
```

#### Opcodes

```
  0: 0x042F [0x53] WAIT_SCHEDULER_TASK: Wait for scheduler "lau0" with entities [EventEntity, EventEntity]
  1: 0x043C [0x81] SET_ENTITY_BLINKING(blink_flag=0x01, entity=EventEntity)
  2: 0x0442 [0x7C] EventEntity->Render.Flags2 |= 0x01
  3: 0x0448 [0x00] END_REQSTACK()
```

### Event 65535.63

#### Metadata

| Field        | Value    |
|--------------|----------|
| Entrypoint   | 0x0449   |
| Data Size    | 16 bytes |
| Instructions | 2        |

```
      00 01 02 03 04 05 06 07  08 09 0A 0B 0C 0D 0E 0F
      -- -- -- -- -- -- -- --  -- -- -- -- -- -- -- --
0440:                             5B 10 80 F8 FF FF 7F           [......
0450: F8 FF FF 7F 6F 6F 69 30  00                       ....ooi0.       
```

#### Opcodes

```
  0: 0x0449 [0x5B] LOAD_EXT_SCHEDULER: Load scheduler "ooi0" with entities [EventEntity, EventEntity], work=2350*
  1: 0x0458 [0x00] END_REQSTACK()
```

### Event 65535.64

#### Metadata

| Field        | Value    |
|--------------|----------|
| Entrypoint   | 0x0459   |
| Data Size    | 14 bytes |
| Instructions | 2        |

```
      00 01 02 03 04 05 06 07  08 09 0A 0B 0C 0D 0E 0F
      -- -- -- -- -- -- -- --  -- -- -- -- -- -- -- --
0450:                             53 F8 FF FF 7F F8 FF           S......
0460: FF 7F 6F 6F 69 30 00                              ..ooi0.         
```

#### Opcodes

```
  0: 0x0459 [0x53] WAIT_SCHEDULER_TASK: Wait for scheduler "ooi0" with entities [EventEntity, EventEntity]
  1: 0x0466 [0x00] END_REQSTACK()
```

### Event 65535.65

#### Metadata

| Field        | Value    |
|--------------|----------|
| Entrypoint   | 0x0467   |
| Data Size    | 16 bytes |
| Instructions | 2        |

```
      00 01 02 03 04 05 06 07  08 09 0A 0B 0C 0D 0E 0F
      -- -- -- -- -- -- -- --  -- -- -- -- -- -- -- --
0460:                      5B  10 80 F8 FF FF 7F F8 FF         [........
0470: FF 7F 6F 6F 69 31 00                              ..ooi1.         
```

#### Opcodes

```
  0: 0x0467 [0x5B] LOAD_EXT_SCHEDULER: Load scheduler "ooi1" with entities [EventEntity, EventEntity], work=2350*
  1: 0x0476 [0x00] END_REQSTACK()
```

### Event 65535.66

#### Metadata

| Field        | Value    |
|--------------|----------|
| Entrypoint   | 0x0477   |
| Data Size    | 14 bytes |
| Instructions | 2        |

```
      00 01 02 03 04 05 06 07  08 09 0A 0B 0C 0D 0E 0F
      -- -- -- -- -- -- -- --  -- -- -- -- -- -- -- --
0470:                      53  F8 FF FF 7F F8 FF FF 7F         S........
0480: 6F 6F 69 31 00                                    ooi1.           
```

#### Opcodes

```
  0: 0x0477 [0x53] WAIT_SCHEDULER_TASK: Wait for scheduler "ooi1" with entities [EventEntity, EventEntity]
  1: 0x0484 [0x00] END_REQSTACK()
```

### Event 65535.67

#### Metadata

| Field        | Value    |
|--------------|----------|
| Entrypoint   | 0x0485   |
| Data Size    | 28 bytes |
| Instructions | 4        |

```
      00 01 02 03 04 05 06 07  08 09 0A 0B 0C 0D 0E 0F
      -- -- -- -- -- -- -- --  -- -- -- -- -- -- -- --
0480:                81 00 F8  FF FF 7F 7C 00 F8 FF FF       ......|....
0490: 7F 5B 10 80 F8 FF FF 7F  F8 FF FF 7F 73 68 74 30  .[..........sht0
04A0: 00                                                .               
```

#### Opcodes

```
  0: 0x0485 [0x81] SET_ENTITY_BLINKING(blink_flag=0x00, entity=EventEntity)
  1: 0x048B [0x7C] EventEntity->Render.Flags2 |= 0x00
  2: 0x0491 [0x5B] LOAD_EXT_SCHEDULER: Load scheduler "sht0" with entities [EventEntity, EventEntity], work=2350*
  3: 0x04A0 [0x00] END_REQSTACK()
```

### Event 65535.68

#### Metadata

| Field        | Value    |
|--------------|----------|
| Entrypoint   | 0x04A1   |
| Data Size    | 14 bytes |
| Instructions | 2        |

```
      00 01 02 03 04 05 06 07  08 09 0A 0B 0C 0D 0E 0F
      -- -- -- -- -- -- -- --  -- -- -- -- -- -- -- --
04A0:    53 F8 FF FF 7F F8 FF  FF 7F 73 68 74 30 00      S........sht0. 
```

#### Opcodes

```
  0: 0x04A1 [0x53] WAIT_SCHEDULER_TASK: Wait for scheduler "sht0" with entities [EventEntity, EventEntity]
  1: 0x04AE [0x00] END_REQSTACK()
```

### Event 65535.69

#### Metadata

| Field        | Value    |
|--------------|----------|
| Entrypoint   | 0x04AF   |
| Data Size    | 16 bytes |
| Instructions | 2        |

```
      00 01 02 03 04 05 06 07  08 09 0A 0B 0C 0D 0E 0F
      -- -- -- -- -- -- -- --  -- -- -- -- -- -- -- --
04A0:                                               5B                 [
04B0: 10 80 F8 FF FF 7F F8 FF  FF 7F 73 68 74 31 00     ..........sht1. 
```

#### Opcodes

```
  0: 0x04AF [0x5B] LOAD_EXT_SCHEDULER: Load scheduler "sht1" with entities [EventEntity, EventEntity], work=2350*
  1: 0x04BE [0x00] END_REQSTACK()
```

### Event 65535.70

#### Metadata

| Field        | Value    |
|--------------|----------|
| Entrypoint   | 0x04BF   |
| Data Size    | 26 bytes |
| Instructions | 4        |

```
      00 01 02 03 04 05 06 07  08 09 0A 0B 0C 0D 0E 0F
      -- -- -- -- -- -- -- --  -- -- -- -- -- -- -- --
04B0:                                               53                 S
04C0: F8 FF FF 7F F8 FF FF 7F  73 68 74 31 81 01 F8 FF  ........sht1....
04D0: FF 7F 7C 01 F8 FF FF 7F  00                       ..|......       
```

#### Opcodes

```
  0: 0x04BF [0x53] WAIT_SCHEDULER_TASK: Wait for scheduler "sht1" with entities [EventEntity, EventEntity]
  1: 0x04CC [0x81] SET_ENTITY_BLINKING(blink_flag=0x01, entity=EventEntity)
  2: 0x04D2 [0x7C] EventEntity->Render.Flags2 |= 0x01
  3: 0x04D8 [0x00] END_REQSTACK()
```

### Event 65535.71

#### Metadata

| Field        | Value    |
|--------------|----------|
| Entrypoint   | 0x04D9   |
| Data Size    | 16 bytes |
| Instructions | 2        |

```
      00 01 02 03 04 05 06 07  08 09 0A 0B 0C 0D 0E 0F
      -- -- -- -- -- -- -- --  -- -- -- -- -- -- -- --
04D0:                             5B 11 80 F8 FF FF 7F           [......
04E0: F8 FF FF 7F 69 72 61 30  00                       ....ira0.       
```

#### Opcodes

```
  0: 0x04D9 [0x5B] LOAD_EXT_SCHEDULER: Load scheduler "ira0" with entities [EventEntity, EventEntity], work=2351*
  1: 0x04E8 [0x00] END_REQSTACK()
```

### Event 65535.72

#### Metadata

| Field        | Value    |
|--------------|----------|
| Entrypoint   | 0x04E9   |
| Data Size    | 14 bytes |
| Instructions | 2        |

```
      00 01 02 03 04 05 06 07  08 09 0A 0B 0C 0D 0E 0F
      -- -- -- -- -- -- -- --  -- -- -- -- -- -- -- --
04E0:                             53 F8 FF FF 7F F8 FF           S......
04F0: FF 7F 69 72 61 30 00                              ..ira0.         
```

#### Opcodes

```
  0: 0x04E9 [0x53] WAIT_SCHEDULER_TASK: Wait for scheduler "ira0" with entities [EventEntity, EventEntity]
  1: 0x04F6 [0x00] END_REQSTACK()
```

### Event 65535.73

#### Metadata

| Field        | Value    |
|--------------|----------|
| Entrypoint   | 0x04F7   |
| Data Size    | 16 bytes |
| Instructions | 2        |

```
      00 01 02 03 04 05 06 07  08 09 0A 0B 0C 0D 0E 0F
      -- -- -- -- -- -- -- --  -- -- -- -- -- -- -- --
04F0:                      5B  11 80 F8 FF FF 7F F8 FF         [........
0500: FF 7F 69 72 61 31 00                              ..ira1.         
```

#### Opcodes

```
  0: 0x04F7 [0x5B] LOAD_EXT_SCHEDULER: Load scheduler "ira1" with entities [EventEntity, EventEntity], work=2351*
  1: 0x0506 [0x00] END_REQSTACK()
```

### Event 65535.74

#### Metadata

| Field        | Value    |
|--------------|----------|
| Entrypoint   | 0x0507   |
| Data Size    | 14 bytes |
| Instructions | 2        |

```
      00 01 02 03 04 05 06 07  08 09 0A 0B 0C 0D 0E 0F
      -- -- -- -- -- -- -- --  -- -- -- -- -- -- -- --
0500:                      53  F8 FF FF 7F F8 FF FF 7F         S........
0510: 69 72 61 31 00                                    ira1.           
```

#### Opcodes

```
  0: 0x0507 [0x53] WAIT_SCHEDULER_TASK: Wait for scheduler "ira1" with entities [EventEntity, EventEntity]
  1: 0x0514 [0x00] END_REQSTACK()
```

### Event 65535.75

#### Metadata

| Field        | Value    |
|--------------|----------|
| Entrypoint   | 0x0515   |
| Data Size    | 22 bytes |
| Instructions | 3        |

```
      00 01 02 03 04 05 06 07  08 09 0A 0B 0C 0D 0E 0F
      -- -- -- -- -- -- -- --  -- -- -- -- -- -- -- --
0510:                81 00 F8  FF FF 7F 5B 12 80 F8 FF       ......[....
0520: FF 7F F8 FF FF 7F 72 62  74 30 00                 ......rbt0.     
```

#### Opcodes

```
  0: 0x0515 [0x81] SET_ENTITY_BLINKING(blink_flag=0x00, entity=EventEntity)
  1: 0x051B [0x5B] LOAD_EXT_SCHEDULER: Load scheduler "rbt0" with entities [EventEntity, EventEntity], work=1300*
  2: 0x052A [0x00] END_REQSTACK()
```

### Event 65535.76

#### Metadata

| Field        | Value    |
|--------------|----------|
| Entrypoint   | 0x052B   |
| Data Size    | 14 bytes |
| Instructions | 2        |

```
      00 01 02 03 04 05 06 07  08 09 0A 0B 0C 0D 0E 0F
      -- -- -- -- -- -- -- --  -- -- -- -- -- -- -- --
0520:                                   53 F8 FF FF 7F             S....
0530: F8 FF FF 7F 72 62 74 30  00                       ....rbt0.       
```

#### Opcodes

```
  0: 0x052B [0x53] WAIT_SCHEDULER_TASK: Wait for scheduler "rbt0" with entities [EventEntity, EventEntity]
  1: 0x0538 [0x00] END_REQSTACK()
```

### Event 65535.77

#### Metadata

| Field        | Value    |
|--------------|----------|
| Entrypoint   | 0x0539   |
| Data Size    | 22 bytes |
| Instructions | 3        |

```
      00 01 02 03 04 05 06 07  08 09 0A 0B 0C 0D 0E 0F
      -- -- -- -- -- -- -- --  -- -- -- -- -- -- -- --
0530:                             81 01 F8 FF FF 7F 5B           ......[
0540: 0A 80 F8 FF FF 7F F8 FF  FF 7F 72 62 74 31 00     ..........rbt1. 
```

#### Opcodes

```
  0: 0x0539 [0x81] SET_ENTITY_BLINKING(blink_flag=0x01, entity=EventEntity)
  1: 0x053F [0x5B] LOAD_EXT_SCHEDULER: Load scheduler "rbt1" with entities [EventEntity, EventEntity], work=1299*
  2: 0x054E [0x00] END_REQSTACK()
```

### Event 65535.78

#### Metadata

| Field        | Value    |
|--------------|----------|
| Entrypoint   | 0x054F   |
| Data Size    | 14 bytes |
| Instructions | 2        |

```
      00 01 02 03 04 05 06 07  08 09 0A 0B 0C 0D 0E 0F
      -- -- -- -- -- -- -- --  -- -- -- -- -- -- -- --
0540:                                               53                 S
0550: F8 FF FF 7F F8 FF FF 7F  72 62 74 31 00           ........rbt1.   
```

#### Opcodes

```
  0: 0x054F [0x53] WAIT_SCHEDULER_TASK: Wait for scheduler "rbt1" with entities [EventEntity, EventEntity]
  1: 0x055C [0x00] END_REQSTACK()
```

### Event 65535.79

#### Metadata

| Field        | Value    |
|--------------|----------|
| Entrypoint   | 0x055D   |
| Data Size    | 16 bytes |
| Instructions | 2        |

```
      00 01 02 03 04 05 06 07  08 09 0A 0B 0C 0D 0E 0F
      -- -- -- -- -- -- -- --  -- -- -- -- -- -- -- --
0550:                                         5B 13 80               [..
0560: F8 FF FF 7F F8 FF FF 7F  72 61 68 30 00           ........rah0.   
```

#### Opcodes

```
  0: 0x055D [0x5B] LOAD_EXT_SCHEDULER: Load scheduler "rah0" with entities [EventEntity, EventEntity], work=1502*
  1: 0x056C [0x00] END_REQSTACK()
```

### Event 65535.80

#### Metadata

| Field        | Value    |
|--------------|----------|
| Entrypoint   | 0x056D   |
| Data Size    | 14 bytes |
| Instructions | 2        |

```
      00 01 02 03 04 05 06 07  08 09 0A 0B 0C 0D 0E 0F
      -- -- -- -- -- -- -- --  -- -- -- -- -- -- -- --
0560:                                         53 F8 FF               S..
0570: FF 7F F8 FF FF 7F 72 61  68 30 00                 ......rah0.     
```

#### Opcodes

```
  0: 0x056D [0x53] WAIT_SCHEDULER_TASK: Wait for scheduler "rah0" with entities [EventEntity, EventEntity]
  1: 0x057A [0x00] END_REQSTACK()
```

### Event 65535.81

#### Metadata

| Field        | Value    |
|--------------|----------|
| Entrypoint   | 0x057B   |
| Data Size    | 16 bytes |
| Instructions | 2        |

```
      00 01 02 03 04 05 06 07  08 09 0A 0B 0C 0D 0E 0F
      -- -- -- -- -- -- -- --  -- -- -- -- -- -- -- --
0570:                                   5B 13 80 F8 FF             [....
0580: FF 7F F8 FF FF 7F 72 61  68 31 00                 ......rah1.     
```

#### Opcodes

```
  0: 0x057B [0x5B] LOAD_EXT_SCHEDULER: Load scheduler "rah1" with entities [EventEntity, EventEntity], work=1502*
  1: 0x058A [0x00] END_REQSTACK()
```

### Event 65535.82

#### Metadata

| Field        | Value    |
|--------------|----------|
| Entrypoint   | 0x058B   |
| Data Size    | 14 bytes |
| Instructions | 2        |

```
      00 01 02 03 04 05 06 07  08 09 0A 0B 0C 0D 0E 0F
      -- -- -- -- -- -- -- --  -- -- -- -- -- -- -- --
0580:                                   53 F8 FF FF 7F             S....
0590: F8 FF FF 7F 72 61 68 31  00                       ....rah1.       
```

#### Opcodes

```
  0: 0x058B [0x53] WAIT_SCHEDULER_TASK: Wait for scheduler "rah1" with entities [EventEntity, EventEntity]
  1: 0x0598 [0x00] END_REQSTACK()
```

### Event 65535.83

#### Metadata

| Field        | Value    |
|--------------|----------|
| Entrypoint   | 0x0599   |
| Data Size    | 16 bytes |
| Instructions | 2        |

```
      00 01 02 03 04 05 06 07  08 09 0A 0B 0C 0D 0E 0F
      -- -- -- -- -- -- -- --  -- -- -- -- -- -- -- --
0590:                             5B 13 80 F8 FF FF 7F           [......
05A0: F8 FF FF 7F 72 61 68 32  00                       ....rah2.       
```

#### Opcodes

```
  0: 0x0599 [0x5B] LOAD_EXT_SCHEDULER: Load scheduler "rah2" with entities [EventEntity, EventEntity], work=1502*
  1: 0x05A8 [0x00] END_REQSTACK()
```

### Event 65535.84

#### Metadata

| Field        | Value    |
|--------------|----------|
| Entrypoint   | 0x05A9   |
| Data Size    | 14 bytes |
| Instructions | 2        |

```
      00 01 02 03 04 05 06 07  08 09 0A 0B 0C 0D 0E 0F
      -- -- -- -- -- -- -- --  -- -- -- -- -- -- -- --
05A0:                             53 F8 FF FF 7F F8 FF           S......
05B0: FF 7F 72 61 68 32 00                              ..rah2.         
```

#### Opcodes

```
  0: 0x05A9 [0x53] WAIT_SCHEDULER_TASK: Wait for scheduler "rah2" with entities [EventEntity, EventEntity]
  1: 0x05B6 [0x00] END_REQSTACK()
```

### Event 65535.85

#### Metadata

| Field        | Value    |
|--------------|----------|
| Entrypoint   | 0x05B7   |
| Data Size    | 16 bytes |
| Instructions | 2        |

```
      00 01 02 03 04 05 06 07  08 09 0A 0B 0C 0D 0E 0F
      -- -- -- -- -- -- -- --  -- -- -- -- -- -- -- --
05B0:                      5B  13 80 F8 FF FF 7F F8 FF         [........
05C0: FF 7F 72 61 68 33 00                              ..rah3.         
```

#### Opcodes

```
  0: 0x05B7 [0x5B] LOAD_EXT_SCHEDULER: Load scheduler "rah3" with entities [EventEntity, EventEntity], work=1502*
  1: 0x05C6 [0x00] END_REQSTACK()
```

### Event 65535.86

#### Metadata

| Field        | Value    |
|--------------|----------|
| Entrypoint   | 0x05C7   |
| Data Size    | 14 bytes |
| Instructions | 2        |

```
      00 01 02 03 04 05 06 07  08 09 0A 0B 0C 0D 0E 0F
      -- -- -- -- -- -- -- --  -- -- -- -- -- -- -- --
05C0:                      53  F8 FF FF 7F F8 FF FF 7F         S........
05D0: 72 61 68 33 00                                    rah3.           
```

#### Opcodes

```
  0: 0x05C7 [0x53] WAIT_SCHEDULER_TASK: Wait for scheduler "rah3" with entities [EventEntity, EventEntity]
  1: 0x05D4 [0x00] END_REQSTACK()
```

### Event 65535.87

#### Metadata

| Field        | Value    |
|--------------|----------|
| Entrypoint   | 0x05D5   |
| Data Size    | 16 bytes |
| Instructions | 2        |

```
      00 01 02 03 04 05 06 07  08 09 0A 0B 0C 0D 0E 0F
      -- -- -- -- -- -- -- --  -- -- -- -- -- -- -- --
05D0:                5B 14 80  F8 FF FF 7F F8 FF FF 7F       [..........
05E0: 70 75 6C 30 00                                    pul0.           
```

#### Opcodes

```
  0: 0x05D5 [0x5B] LOAD_EXT_SCHEDULER: Load scheduler "pul0" with entities [EventEntity, EventEntity], work=2261*
  1: 0x05E4 [0x00] END_REQSTACK()
```

### Event 65535.88

#### Metadata

| Field        | Value    |
|--------------|----------|
| Entrypoint   | 0x05E5   |
| Data Size    | 14 bytes |
| Instructions | 2        |

```
      00 01 02 03 04 05 06 07  08 09 0A 0B 0C 0D 0E 0F
      -- -- -- -- -- -- -- --  -- -- -- -- -- -- -- --
05E0:                53 F8 FF  FF 7F F8 FF FF 7F 70 75       S........pu
05F0: 6C 30 00                                          l0.             
```

#### Opcodes

```
  0: 0x05E5 [0x53] WAIT_SCHEDULER_TASK: Wait for scheduler "pul0" with entities [EventEntity, EventEntity]
  1: 0x05F2 [0x00] END_REQSTACK()
```

### Event 65535.89

#### Metadata

| Field        | Value    |
|--------------|----------|
| Entrypoint   | 0x05F3   |
| Data Size    | 16 bytes |
| Instructions | 2        |

```
      00 01 02 03 04 05 06 07  08 09 0A 0B 0C 0D 0E 0F
      -- -- -- -- -- -- -- --  -- -- -- -- -- -- -- --
05F0:          5B 11 80 F8 FF  FF 7F F8 FF FF 7F 79 6F     [..........yo
0600: 30 30 00                                          00.             
```

#### Opcodes

```
  0: 0x05F3 [0x5B] LOAD_EXT_SCHEDULER: Load scheduler "yo00" with entities [EventEntity, EventEntity], work=2351*
  1: 0x0602 [0x00] END_REQSTACK()
```

### Event 65535.90

#### Metadata

| Field        | Value    |
|--------------|----------|
| Entrypoint   | 0x0603   |
| Data Size    | 14 bytes |
| Instructions | 2        |

```
      00 01 02 03 04 05 06 07  08 09 0A 0B 0C 0D 0E 0F
      -- -- -- -- -- -- -- --  -- -- -- -- -- -- -- --
0600:          53 F8 FF FF 7F  F8 FF FF 7F 79 6F 30 30     S........yo00
0610: 00                                                .               
```

#### Opcodes

```
  0: 0x0603 [0x53] WAIT_SCHEDULER_TASK: Wait for scheduler "yo00" with entities [EventEntity, EventEntity]
  1: 0x0610 [0x00] END_REQSTACK()
```

### Event 65535.91

#### Metadata

| Field        | Value    |
|--------------|----------|
| Entrypoint   | 0x0611   |
| Data Size    | 16 bytes |
| Instructions | 2        |

```
      00 01 02 03 04 05 06 07  08 09 0A 0B 0C 0D 0E 0F
      -- -- -- -- -- -- -- --  -- -- -- -- -- -- -- --
0610:    5B 15 80 F8 FF FF 7F  F8 FF FF 7F 72 6F 68 30   [..........roh0
0620: 00                                                .               
```

#### Opcodes

```
  0: 0x0611 [0x5B] LOAD_EXT_SCHEDULER: Load scheduler "roh0" with entities [EventEntity, EventEntity], work=1503*
  1: 0x0620 [0x00] END_REQSTACK()
```

### Event 65535.92

#### Metadata

| Field        | Value    |
|--------------|----------|
| Entrypoint   | 0x0621   |
| Data Size    | 14 bytes |
| Instructions | 2        |

```
      00 01 02 03 04 05 06 07  08 09 0A 0B 0C 0D 0E 0F
      -- -- -- -- -- -- -- --  -- -- -- -- -- -- -- --
0620:    53 F8 FF FF 7F F8 FF  FF 7F 72 6F 68 30 00      S........roh0. 
```

#### Opcodes

```
  0: 0x0621 [0x53] WAIT_SCHEDULER_TASK: Wait for scheduler "roh0" with entities [EventEntity, EventEntity]
  1: 0x062E [0x00] END_REQSTACK()
```

### Event 65535.93

#### Metadata

| Field        | Value    |
|--------------|----------|
| Entrypoint   | 0x062F   |
| Data Size    | 16 bytes |
| Instructions | 2        |

```
      00 01 02 03 04 05 06 07  08 09 0A 0B 0C 0D 0E 0F
      -- -- -- -- -- -- -- --  -- -- -- -- -- -- -- --
0620:                                               5B                 [
0630: 15 80 F8 FF FF 7F F8 FF  FF 7F 72 6F 68 31 00     ..........roh1. 
```

#### Opcodes

```
  0: 0x062F [0x5B] LOAD_EXT_SCHEDULER: Load scheduler "roh1" with entities [EventEntity, EventEntity], work=1503*
  1: 0x063E [0x00] END_REQSTACK()
```

### Event 65535.94

#### Metadata

| Field        | Value    |
|--------------|----------|
| Entrypoint   | 0x063F   |
| Data Size    | 14 bytes |
| Instructions | 2        |

```
      00 01 02 03 04 05 06 07  08 09 0A 0B 0C 0D 0E 0F
      -- -- -- -- -- -- -- --  -- -- -- -- -- -- -- --
0630:                                               53                 S
0640: F8 FF FF 7F F8 FF FF 7F  72 6F 68 31 00           ........roh1.   
```

#### Opcodes

```
  0: 0x063F [0x53] WAIT_SCHEDULER_TASK: Wait for scheduler "roh1" with entities [EventEntity, EventEntity]
  1: 0x064C [0x00] END_REQSTACK()
```

### Event 65535.95

#### Metadata

| Field        | Value    |
|--------------|----------|
| Entrypoint   | 0x064D   |
| Data Size    | 16 bytes |
| Instructions | 2        |

```
      00 01 02 03 04 05 06 07  08 09 0A 0B 0C 0D 0E 0F
      -- -- -- -- -- -- -- --  -- -- -- -- -- -- -- --
0640:                                         5B 15 80               [..
0650: F8 FF FF 7F F8 FF FF 7F  72 6F 68 33 00           ........roh3.   
```

#### Opcodes

```
  0: 0x064D [0x5B] LOAD_EXT_SCHEDULER: Load scheduler "roh3" with entities [EventEntity, EventEntity], work=1503*
  1: 0x065C [0x00] END_REQSTACK()
```

### Event 65535.96

#### Metadata

| Field        | Value    |
|--------------|----------|
| Entrypoint   | 0x065D   |
| Data Size    | 14 bytes |
| Instructions | 2        |

```
      00 01 02 03 04 05 06 07  08 09 0A 0B 0C 0D 0E 0F
      -- -- -- -- -- -- -- --  -- -- -- -- -- -- -- --
0650:                                         53 F8 FF               S..
0660: FF 7F F8 FF FF 7F 72 6F  68 33 00                 ......roh3.     
```

#### Opcodes

```
  0: 0x065D [0x53] WAIT_SCHEDULER_TASK: Wait for scheduler "roh3" with entities [EventEntity, EventEntity]
  1: 0x066A [0x00] END_REQSTACK()
```

### Event 675

#### Metadata

| Field        | Value   |
|--------------|---------|
| Entrypoint   | 0x066B  |
| Data Size    | 1 bytes |
| Instructions | 1       |

```
      00 01 02 03 04 05 06 07  08 09 0A 0B 0C 0D 0E 0F
      -- -- -- -- -- -- -- --  -- -- -- -- -- -- -- --
0660:                                   00                         .    
```

#### Opcodes

```
  0: 0x066B [0x00] END_REQSTACK()
```
