# 17105324 - Thierride

## Common Data

| Field            | Value                            |
|------------------|----------------------------------|
| Zone             | Southern San d'Oria [S] (ID: 80) |
| Block Size       | 4216 bytes                       |
| Total Events     | 18                               |
| References Count | 101                              |

## List of Events

| Event ID                 | Entrypoint   |   Size |   Instructions |
|--------------------------|--------------|--------|----------------|
| [65535](#event-65535)    | 0x0000       |      1 |              1 |
| [333](#event-333)        | 0x0001       |     15 |              7 |
| [334](#event-334)        | 0x0010       |    393 |             62 |
| [335](#event-335)        | 0x0199       |     15 |              7 |
| [336](#event-336)        | 0x01A8       |     61 |             18 |
| [337](#event-337)        | 0x01E5       |    656 |             85 |
| [338](#event-338)        | 0x0475       |     15 |              7 |
| [339](#event-339)        | 0x0484       |     15 |              7 |
| [340](#event-340)        | 0x0493       |   1750 |            248 |
| [341](#event-341)        | 0x0B69       |     15 |              7 |
| [342](#event-342)        | 0x0B78       |    534 |             80 |
| [343](#event-343)        | 0x0D8E       |     15 |              7 |
| [344](#event-344)        | 0x0D9D       |     43 |             13 |
| [345](#event-345)        | 0x0DC8       |    140 |             36 |
| [65535.1](#event-655351) | 0x0E54       |     10 |              2 |
| [65535.2](#event-655352) | 0x0E5E       |     21 |              5 |
| [65535.3](#event-655353) | 0x0E73       |     10 |              2 |
| [65535.4](#event-655354) | 0x0E7D       |     14 |              4 |

## DAT References (imed_data)

|   Index | Hex Value   |   Dec Value |
|---------|-------------|-------------|
|       0 | 0x1D63      |        7523 |
|       1 | 0x00C8      |         200 |
|       2 | 0x0000      |           0 |
|       3 | 0x003C      |          60 |
|       4 | 0x0013      |          19 |
|       5 | 0x0155      |         341 |
|       6 | 0x1D64      |        7524 |
|       7 | 0x1D65      |        7525 |
|       8 | 0x0020      |          32 |
|       9 | 0x1D66      |        7526 |
|      10 | 0x0016      |          22 |
|      11 | 0x1D67      |        7527 |
|      12 | 0x0024      |          36 |
|      13 | 0x1D68      |        7528 |
|      14 | 0x0006      |           6 |
|      15 | 0x1D69      |        7529 |
|      16 | 0x1D6A      |        7530 |
|      17 | 0x0002      |           2 |
|      18 | 0x1D6B      |        7531 |
|      19 | 0x0001      |           1 |
|      20 | 0x1D6C      |        7532 |
|      21 | 0x1D6D      |        7533 |
|      22 | 0x0015      |          21 |
|      23 | 0x1D6E      |        7534 |
|      24 | 0x1D6F      |        7535 |
|      25 | 0x005A      |          90 |
|      26 | 0x017C      |         380 |
|      27 | 0x1D70      |        7536 |
|      28 | 0x000B      |          11 |
|      29 | 0x1D71      |        7537 |
|      30 | 0x0007      |           7 |
|      31 | 0x1D72      |        7538 |
|      32 | 0x0004      |           4 |
|      33 | 0x1D73      |        7539 |
|      34 | 0x1D74      |        7540 |
|      35 | 0x1D75      |        7541 |
|      36 | 0x000A      |          10 |
|      37 | 0x1D76      |        7542 |
|      38 | 0x1D77      |        7543 |
|      39 | 0x1D78      |        7544 |
|      40 | 0x1D79      |        7545 |
|      41 | 0x1D7A      |        7546 |
|      42 | 0x000F      |          15 |
|      43 | 0x001E      |          30 |
|      44 | 0x00E6      |         230 |
|      45 | 0x00FF      |         255 |
|      46 | 0x0091      |         145 |
|      47 | 0x00C9      |         201 |
|      48 | 0x1D7B      |        7547 |
|      49 | 0x1D7C      |        7548 |
|      50 | 0x1D7D      |        7549 |
|      51 | 0x1D80      |        7552 |
|      52 | 0x1D81      |        7553 |
|      53 | 0x0005      |           5 |
|      54 | 0x1D82      |        7554 |
|      55 | 0x1D85      |        7557 |
|      56 | 0x07A1      |        1953 |
|      57 | 0x1D86      |        7558 |
|      58 | 0x1D89      |        7561 |
|      59 | 0x1D8A      |        7562 |
|      60 | 0x1D8B      |        7563 |
|      61 | 0x0078      |         120 |
|      62 | 0x0050      |          80 |
|      63 | 0x00FE      |         254 |
|      64 | 0x1D8C      |        7564 |
|      65 | 0x03FB      |        1019 |
|      66 | 0x1D8D      |        7565 |
|      67 | 0x1D91      |        7569 |
|      68 | 0x1D92      |        7570 |
|      69 | 0x1D93      |        7571 |
|      70 | 0x1D94      |        7572 |
|      71 | 0x1D95      |        7573 |
|      72 | 0x1D96      |        7574 |
|      73 | 0x0898      |        2200 |
|      74 | 0x1D97      |        7575 |
|      75 | 0x002D      |          45 |
|      76 | 0x1D98      |        7576 |
|      77 | 0x1648      |        5704 |
|      78 | 0x1D99      |        7577 |
|      79 | 0x0014      |          20 |
|      80 | 0x1D9A      |        7578 |
|      81 | 0x0009      |           9 |
|      82 | 0x00B4      |         180 |
|      83 | 0x1D9B      |        7579 |
|      84 | 0x1D9C      |        7580 |
|      85 | 0x1D9D      |        7581 |
|      86 | 0x1D8E      |        7566 |
|      87 | 0x1D8F      |        7567 |
|      88 | 0x1D90      |        7568 |
|      89 | 0xFFFCBAF2  |  4294753010 |
|      90 | 0xF9E7      |       63975 |
|      91 | 0xFFFFF47B  |  4294964347 |
|      92 | 0x0415      |        1045 |
|      93 | 0x000D      |          13 |
|      94 | 0xFFFE1B6F  |  4294843247 |
|      95 | 0x2B65      |       11109 |
|      96 | 0xFFFFF449  |  4294964297 |
|      97 | 0x0BD0      |        3024 |
|      98 | 0xFFFE1986  |  4294842758 |
|      99 | 0x3906      |       14598 |
|     100 | 0xFFFFF830  |  4294965296 |

## String References

- **7523**: Will this cursed war never end? My fishing boat's anchor now serves only to collect barnacles...
- **7524**: Listen to my story, if you will. You may be surprised to learn that I am a fisherman. However, the influence of the raging war has resulted in my profession being placed on an indefinite hiatus.
- **7525**: It was a most difficult decision, but under the current circumstances, a change in profession was for the best. Cuisine is where I have decided to try my luck. I plan to open a diner that caters to soldiers.
- **7526**: With the assistance of a knight friend of mine, I was able to obtain official permission to open shop. But the issue of supply procurement remains...
- **7527**: Fish cuisine is my specialty, but I trust you understand why that is problematic right now. Nowadays, beans are just about the only ingredient that can be obtained without needing to risk one's life.
- **7528**: So I thought to myself, "If there is naught else to be had but beans, then so be it!" Since then, I have toiled away many a day in the kitchen, trying to invent a mouthwatering bean dish, the likes of which no soul on Vana'diel has ever tasted.
- **7529**: Alas, the results have so far been discouraging.
- **7530**: Surely, a seasoning that can capture the hearts and palates of all people exists somewhere in this great wide world of ours...
- **7531**: Ah, this. I have tried it myself, but to no avail. The resultant bland flavor was less than inspiring.
- **7532**: Aaah... I am well acquainted with this one. I tried numerous methods of preparation, but in the end, its smell was so overpowering, at times I would forget I was eating beans.
- **7533**: No, this one did not work out. I had thought it promising, but was grievously betrayed. Any application of heat will have its flavor disappearing like magic.
- **7534**: Hmmm? This magnificent glitter...just like those you see on precious stones. I have a good feeling about this one.
- **7535**: Thank you kindly. I shall try cooking with it immediately.
- **7536**: Good Goddess!
- **7537**: The seasoning... It's amazing!
- **7538**: A little more of this will make it possible to bring out the bean's flavor to the fullest!
- **7539**: Why, I don't remember being this excited since reeling in the "Lord of Lake Lufet" after an epic eight-hour battle!
- **7540**: Might I be able to trouble you to acquire more of that seasoning?
- **7541**: What is this you have brought me? I appreciate your good intentions, but this is not what I asked for.
- **7542**: Yes, this is it! It shares the same enchanting glitter as the one you first brought...
- **7543**: I shall get to work right away. Will you stay and bear witness to what will surely become a historic moment?
- **7544**: Will you bear witness? [If there's free food involved.../Thanks, but no thanks.]
- **7545**: Fabulous! Well then, come in! Come in!
- **7546**: There's no need to be shy, now. I insist!
- **7547**: Glorious! This is exactly the taste I was after!
- **7548**: Can you not feel the rich, flavorsome aroma permeating through your entire being?
- **7549**: Here, you simply must try it...
- **7552**: Haha! It appears our scavengers have arrived!
- **7553**: For too long have I been corrupting your sense of smell with offensive odors. And I say that with a double meaning.
- **7554**: My very own specialty bean dish is now complete!
- **7557**: Why, of course! It's piping hot, so don't go scalding your tongue on it, you hear?
- **7558**: So...tell me what you think, little ones.
- **7561**: <Chuckle> Such comments from the mouths of children are most reassuring. Now I can finally start the business without reserve.
- **7562**: I owe all this to you, for finding a seasoning so delectable, it borders on miraculous. This new bean dish is bound to delight both citizens and knights alike.
- **7563**: The wretched beastmen may try to break down our walls, but we shall return the favor by breaking them with our wind! Mwahahahaha!
- **7564**: A-ahem! Please be so kind as to forget that rather unsavory outburst. Now, before I forget, I was intending to ask you...
- **7565**: Was the seasoning you brought $0?
- **7566**: Well, was it? [Good guess!/Wrong.]
- **7567**: I knew it! It seems my fisherman's instincts are still alive and well.
- **7568**: No, I am certain of it. Only with Lufet salt could one aspire to achieve such a distinct flavor.
- **7569**: I must find a way to procure a stable supply. Perhaps I can negotiate a delivery deal with the knights...
- **7570**: Thank you again. Right now there is naught I can do in return, but I will not soon forget your kindness.
- **7571**: Ah, superb timing!
- **7572**: Since that day, I was able to make arrangements through my knight friend.
- **7573**: The knights have agreed to deliver $0 to me--on the condition that I make the bean dish for their rations! This will surely keep me busy for a while.
- **7574**: Though my plans for the diner have been postponed, I appreciate this opportunity to contribute in my own small way to the war effort. Heheh...
- **7575**: The sooner the war ends, the sooner I can return to sea and resume working as a fisherman.
- **7576**: Until then, I shall leave my anchor lowered right here, in San d'Oria.
- **7577**: I've been wanting you to taste my new specialty, $0. After all, it is to you that this dish owes its existence.
- **7578**: Please drop by anytime. I look forward to seeing you again.
- **7579**: Until the war ends, I shall leave my anchor lowered right here, in San d'Oria.
- **7580**: I have just now finished cooking another batch of $0. This is for you, fresh from the fire! These are hard times, but there is nothing a little effort won't see us through.
- **7581**: Oh, it appears I was mistaken... The $0 still needs to simmer for a while yet, so please drop by again later.

## Events

### Event 65535

#### Metadata

| Field        | Value   |
|--------------|---------|
| Entrypoint   | 0x0000  |
| Data Size    | 1 bytes |
| Instructions | 1       |

```
      00 01 02 03 04 05 06 07  08 09 0A 0B 0C 0D 0E 0F
      -- -- -- -- -- -- -- --  -- -- -- -- -- -- -- --
0000: 00                                                .               
```

#### Opcodes

```
  0: 0x0000 [0x00] END_REQSTACK()
```

### Event 333

#### Metadata

| Field        | Value    |
|--------------|----------|
| Entrypoint   | 0x0001   |
| Data Size    | 15 bytes |
| Instructions | 7        |

```
      00 01 02 03 04 05 06 07  08 09 0A 0B 0C 0D 0E 0F
      -- -- -- -- -- -- -- --  -- -- -- -- -- -- -- --
0000:    20 01 1E F0 FF FF 7F  1D 00 80 23 20 00 21 00    .........# .!.
```

#### Opcodes

```
  0: 0x0001 [0x20] SET_CLI_EVENT_UC_FLAG: Lock player control
  1: 0x0003 [0x1E] EventEntity looks at LocalPlayer and starts talking
  2: 0x0008 [0x1D] PRINT_EVENT_MESSAGE(message_id=7523*)
    → "Will this cursed war never end? My fishing boat's anchor now serves only to collect barnacles..."
  3: 0x000B [0x23] WAIT_FOR_DIALOG_INTERACTION
  4: 0x000C [0x20] SET_CLI_EVENT_UC_FLAG: Unlock player control
  5: 0x000E [0x21] END_EVENT
  6: 0x000F [0x00] END_REQSTACK()
```

### Event 334

#### Metadata

| Field        | Value     |
|--------------|-----------|
| Entrypoint   | 0x0010    |
| Data Size    | 393 bytes |
| Instructions | 62        |

```
      00 01 02 03 04 05 06 07  08 09 0A 0B 0C 0D 0E 0F
      -- -- -- -- -- -- -- --  -- -- -- -- -- -- -- --
0010: 42 20 01 46 01 45 01 80  F0 FF FF 7F F0 FF FF 7F  B .F.E..........
0020: 66 64 6F 31 02 80 1C 03  80 38 04 80 4E 00 F8 FF  fdo1.....8..N...
0030: FF 7F 92 01 AC 01 05 01  29 0F F0 FF FF 7F 07 80  ........).......
0040: F0 FF FF 7F 80 AC 01 05  01 1E F0 FF FF 7F 79 00  ..............y.
0050: F0 FF FF 7F AC 01 05 01  45 05 80 F0 FF FF 7F F0  ........E.......
0060: FF FF 7F 6B 6F 30 31 02  80 45 01 80 F0 FF FF 7F  ...ko01..E......
0070: F0 FF FF 7F 66 64 69 31  02 80 1C 03 80 6E AC 01  ....fdi1.....n..
0080: 05 01 04 80 99 AC 01 05  01 1D 06 80 23 99 AC 01  ............#...
0090: 05 01 55 05 80 F0 FF FF  7F F0 FF FF 7F 6B 6F 30  ..U..........ko0
00A0: 31 45 05 80 F0 FF FF 7F  F0 FF FF 7F 6B 6F 30 37  1E..........ko07
00B0: 02 80 1D 07 80 23 6E AC  01 05 01 08 80 99 AC 01  .....#n.........
00C0: 05 01 1D 09 80 23 99 AC  01 05 01 52 05 80 F0 FF  .....#.....R....
00D0: FF 7F F0 FF FF 7F 6B 6F  30 37 45 05 80 F0 FF FF  ......ko07E.....
00E0: 7F F0 FF FF 7F 6B 6F 30  32 02 80 6E AC 01 05 01  .....ko02..n....
00F0: 0A 80 99 AC 01 05 01 1D  0B 80 23 99 AC 01 05 01  ..........#.....
0100: 6E AC 01 05 01 0C 80 99  AC 01 05 01 1D 0D 80 23  n..............#
0110: 99 AC 01 05 01 6E AC 01  05 01 0E 80 99 AC 01 05  .....n..........
0120: 01 1D 0F 80 23 99 AC 01  05 01 52 05 80 F0 FF FF  ....#.....R.....
0130: 7F F0 FF FF 7F 6B 6F 30  32 45 05 80 F0 FF FF 7F  .....ko02E......
0140: F0 FF FF 7F 6B 6F 30 36  02 80 6E AC 01 05 01 08  ....ko06..n.....
0150: 80 99 AC 01 05 01 1D 10  80 23 99 AC 01 05 01 45  .........#.....E
0160: 01 80 F0 FF FF 7F F0 FF  FF 7F 66 64 6F 31 02 80  ..........fdo1..
0170: 1C 03 80 52 05 80 F0 FF  FF 7F F0 FF FF 7F 6B 6F  ...R..........ko
0180: 30 36 46 00 45 01 80 F0  FF FF 7F F0 FF FF 7F 66  06F.E..........f
0190: 64 69 31 02 80 20 00 21  00                       di1.. .!.       
```

#### Opcodes

```
  0: 0x0010 [0x42] SET_CLI_EVENT_CANCEL_DATA()
  1: 0x0011 [0x20] SET_CLI_EVENT_UC_FLAG: Lock player control
  2: 0x0013 [0x46] CAMERA_CONTROL: Disable user control
  3: 0x0015 [0x45] LOAD_SCHEDULED_TASK: Load scheduler "fdo1" with entities [LocalPlayer, LocalPlayer], work=[200*, 0*]
  4: 0x0026 [0x1C] WAIT(60* ticks)
  5: 0x0029 [0x38] SET_CLIENT_EVENT_MODE(mode=19*)
  6: 0x002C [0x4E] SET_ENTITY_HIDE_FLAG: Show EventEntity
  7: 0x0032 [0x92] Thierride (ID: 17105324/0x010501AC)->Render.Flags3 ^= 0x01
  8: 0x0038 [0x29] REQ_SET_WAIT(priority=0x0F, entity_id=LocalPlayer, tag_num=0x07)
  9: 0x003F [0x80] LOAD_WAIT(entity=LocalPlayer)
 10: 0x0044 [0x80] LOAD_WAIT(entity=Thierride (ID: 17105324/0x010501AC))
 11: 0x0049 [0x1E] EventEntity looks at LocalPlayer and starts talking
 12: 0x004E [0x79] LocalPlayer looks at Thierride (ID: 17105324/0x010501AC) (Basic look)
 13: 0x0058 [0x45] LOAD_SCHEDULED_TASK: Load scheduler "ko01" with entities [LocalPlayer, LocalPlayer], work=[341*, 0*]
 14: 0x0069 [0x45] LOAD_SCHEDULED_TASK: Load scheduler "fdi1" with entities [LocalPlayer, LocalPlayer], work=[200*, 0*]
 15: 0x007A [0x1C] WAIT(60* ticks)
 16: 0x007D [0x6E] Thierride (ID: 17105324/0x010501AC) uses emote 19*
 17: 0x0084 [0x99] Wait for Thierride (ID: 17105324/0x010501AC) animation to complete
 18: 0x0089 [0x1D] PRINT_EVENT_MESSAGE(message_id=7524*)
    → "Listen to my story, if you will. You may be surprised to learn that I am a fisherman. However, the influence of the raging war has resulted in my profession being placed on an indefinite hiatus."
 19: 0x008C [0x23] WAIT_FOR_DIALOG_INTERACTION
 20: 0x008D [0x99] Wait for Thierride (ID: 17105324/0x010501AC) animation to complete
 21: 0x0092 [0x55] WAIT_LOAD_SCHEDULER: Wait for scheduler "ko01" with entities [LocalPlayer, LocalPlayer], work=341*
 22: 0x00A1 [0x45] LOAD_SCHEDULED_TASK: Load scheduler "ko07" with entities [LocalPlayer, LocalPlayer], work=[341*, 0*]
 23: 0x00B2 [0x1D] PRINT_EVENT_MESSAGE(message_id=7525*)
    → "It was a most difficult decision, but under the current circumstances, a change in profession was for the best. Cuisine is where I have decided to try my luck. I plan to open a diner that caters to soldiers."
 24: 0x00B5 [0x23] WAIT_FOR_DIALOG_INTERACTION
 25: 0x00B6 [0x6E] Thierride (ID: 17105324/0x010501AC) uses emote 32*
 26: 0x00BD [0x99] Wait for Thierride (ID: 17105324/0x010501AC) animation to complete
 27: 0x00C2 [0x1D] PRINT_EVENT_MESSAGE(message_id=7526*)
    → "With the assistance of a knight friend of mine, I was able to obtain official permission to open shop. But the issue of supply procurement remains..."
 28: 0x00C5 [0x23] WAIT_FOR_DIALOG_INTERACTION
 29: 0x00C6 [0x99] Wait for Thierride (ID: 17105324/0x010501AC) animation to complete
 30: 0x00CB [0x52] END_LOAD_SCHEDULER: End scheduler "ko07" with entities [LocalPlayer, LocalPlayer], work=341*
 31: 0x00DA [0x45] LOAD_SCHEDULED_TASK: Load scheduler "ko02" with entities [LocalPlayer, LocalPlayer], work=[341*, 0*]
 32: 0x00EB [0x6E] Thierride (ID: 17105324/0x010501AC) uses emote 22*
 33: 0x00F2 [0x99] Wait for Thierride (ID: 17105324/0x010501AC) animation to complete
 34: 0x00F7 [0x1D] PRINT_EVENT_MESSAGE(message_id=7527*)
    → "Fish cuisine is my specialty, but I trust you understand why that is problematic right now. Nowadays, beans are just about the only ingredient that can be obtained without needing to risk one's life."
 35: 0x00FA [0x23] WAIT_FOR_DIALOG_INTERACTION
 36: 0x00FB [0x99] Wait for Thierride (ID: 17105324/0x010501AC) animation to complete
 37: 0x0100 [0x6E] Thierride (ID: 17105324/0x010501AC) uses emote 36*
 38: 0x0107 [0x99] Wait for Thierride (ID: 17105324/0x010501AC) animation to complete
 39: 0x010C [0x1D] PRINT_EVENT_MESSAGE(message_id=7528*)
    → "So I thought to myself, "If there is naught else to be had but beans, then so be it!" Since then, I have toiled away many a day in the kitchen, trying to invent a mouthwatering bean dish, the likes of which no soul on Vana'diel has ever tasted."
 40: 0x010F [0x23] WAIT_FOR_DIALOG_INTERACTION
 41: 0x0110 [0x99] Wait for Thierride (ID: 17105324/0x010501AC) animation to complete
 42: 0x0115 [0x6E] Thierride (ID: 17105324/0x010501AC) uses emote 6*
 43: 0x011C [0x99] Wait for Thierride (ID: 17105324/0x010501AC) animation to complete
 44: 0x0121 [0x1D] PRINT_EVENT_MESSAGE(message_id=7529*)
    → "Alas, the results have so far been discouraging."
 45: 0x0124 [0x23] WAIT_FOR_DIALOG_INTERACTION
 46: 0x0125 [0x99] Wait for Thierride (ID: 17105324/0x010501AC) animation to complete
 47: 0x012A [0x52] END_LOAD_SCHEDULER: End scheduler "ko02" with entities [LocalPlayer, LocalPlayer], work=341*
 48: 0x0139 [0x45] LOAD_SCHEDULED_TASK: Load scheduler "ko06" with entities [LocalPlayer, LocalPlayer], work=[341*, 0*]
 49: 0x014A [0x6E] Thierride (ID: 17105324/0x010501AC) uses emote 32*
 50: 0x0151 [0x99] Wait for Thierride (ID: 17105324/0x010501AC) animation to complete
 51: 0x0156 [0x1D] PRINT_EVENT_MESSAGE(message_id=7530*)
    → "Surely, a seasoning that can capture the hearts and palates of all people exists somewhere in this great wide world of ours..."
 52: 0x0159 [0x23] WAIT_FOR_DIALOG_INTERACTION
 53: 0x015A [0x99] Wait for Thierride (ID: 17105324/0x010501AC) animation to complete
 54: 0x015F [0x45] LOAD_SCHEDULED_TASK: Load scheduler "fdo1" with entities [LocalPlayer, LocalPlayer], work=[200*, 0*]
 55: 0x0170 [0x1C] WAIT(60* ticks)
 56: 0x0173 [0x52] END_LOAD_SCHEDULER: End scheduler "ko06" with entities [LocalPlayer, LocalPlayer], work=341*
 57: 0x0182 [0x46] CAMERA_CONTROL: Restore default settings
 58: 0x0184 [0x45] LOAD_SCHEDULED_TASK: Load scheduler "fdi1" with entities [LocalPlayer, LocalPlayer], work=[200*, 0*]
 59: 0x0195 [0x20] SET_CLI_EVENT_UC_FLAG: Unlock player control
 60: 0x0197 [0x21] END_EVENT
 61: 0x0198 [0x00] END_REQSTACK()
```

### Event 335

#### Metadata

| Field        | Value    |
|--------------|----------|
| Entrypoint   | 0x0199   |
| Data Size    | 15 bytes |
| Instructions | 7        |

```
      00 01 02 03 04 05 06 07  08 09 0A 0B 0C 0D 0E 0F
      -- -- -- -- -- -- -- --  -- -- -- -- -- -- -- --
0190:                             20 01 1E F0 FF FF 7F            ......
01A0: 1D 10 80 23 20 00 21 00                           ...# .!.        
```

#### Opcodes

```
  0: 0x0199 [0x20] SET_CLI_EVENT_UC_FLAG: Lock player control
  1: 0x019B [0x1E] EventEntity looks at LocalPlayer and starts talking
  2: 0x01A0 [0x1D] PRINT_EVENT_MESSAGE(message_id=7530*)
    → "Surely, a seasoning that can capture the hearts and palates of all people exists somewhere in this great wide world of ours..."
  3: 0x01A3 [0x23] WAIT_FOR_DIALOG_INTERACTION
  4: 0x01A4 [0x20] SET_CLI_EVENT_UC_FLAG: Unlock player control
  5: 0x01A6 [0x21] END_EVENT
  6: 0x01A7 [0x00] END_REQSTACK()
```

### Event 336

#### Metadata

| Field        | Value    |
|--------------|----------|
| Entrypoint   | 0x01A8   |
| Data Size    | 61 bytes |
| Instructions | 18       |

```
      00 01 02 03 04 05 06 07  08 09 0A 0B 0C 0D 0E 0F
      -- -- -- -- -- -- -- --  -- -- -- -- -- -- -- --
01A0:                          20 01 1E F0 FF FF 7F 13           .......
01B0: 00 00 11 80 02 00 00 02  80 80 C3 01 1D 12 80 23  ...............#
01C0: 01 E1 01 02 00 00 13 80  80 D2 01 1D 14 80 23 01  ..............#.
01D0: E1 01 02 00 00 11 80 80  E1 01 1D 15 80 23 01 E1  .............#..
01E0: 01 20 00 21 00                                    . .!.           
```

#### Opcodes

```
  0: 0x01A8 [0x20] SET_CLI_EVENT_UC_FLAG: Lock player control
  1: 0x01AA [0x1E] EventEntity looks at LocalPlayer and starts talking
  2: 0x01AF [0x13] ExtData[1]->WorkLocal[0] = rand() % 2*
  3: 0x01B4 [0x02] IF !(ExtData[1]->WorkLocal[0] == 0*) GOTO 0x01C3
  4: 0x01BC [0x1D] PRINT_EVENT_MESSAGE(message_id=7531*)
    → "Ah, this. I have tried it myself, but to no avail. The resultant bland flavor was less than inspiring."
  5: 0x01BF [0x23] WAIT_FOR_DIALOG_INTERACTION
  6: 0x01C0 [0x01] GOTO 0x01E1
  7: 0x01C3 [0x02] IF !(ExtData[1]->WorkLocal[0] == 1*) GOTO 0x01D2
  8: 0x01CB [0x1D] PRINT_EVENT_MESSAGE(message_id=7532*)
    → "Aaah... I am well acquainted with this one. I tried numerous methods of preparation, but in the end, its smell was so overpowering, at times I would forget I was eating beans."
  9: 0x01CE [0x23] WAIT_FOR_DIALOG_INTERACTION
 10: 0x01CF [0x01] GOTO 0x01E1
 11: 0x01D2 [0x02] IF !(ExtData[1]->WorkLocal[0] == 2*) GOTO 0x01E1
 12: 0x01DA [0x1D] PRINT_EVENT_MESSAGE(message_id=7533*)
    → "No, this one did not work out. I had thought it promising, but was grievously betrayed. Any application of heat will have its flavor disappearing like magic."
 13: 0x01DD [0x23] WAIT_FOR_DIALOG_INTERACTION
 14: 0x01DE [0x01] GOTO 0x01E1

SUBROUTINE_01E1:
 15: 0x01E1 [0x20] SET_CLI_EVENT_UC_FLAG: Unlock player control
 16: 0x01E3 [0x21] END_EVENT
 17: 0x01E4 [0x00] END_REQSTACK()
```

### Event 337

#### Metadata

| Field        | Value     |
|--------------|-----------|
| Entrypoint   | 0x01E5    |
| Data Size    | 656 bytes |
| Instructions | 85        |

```
      00 01 02 03 04 05 06 07  08 09 0A 0B 0C 0D 0E 0F
      -- -- -- -- -- -- -- --  -- -- -- -- -- -- -- --
01E0:                42 20 01  46 01 45 01 80 F0 FF FF       B .F.E.....
01F0: 7F F0 FF FF 7F 66 64 6F  31 02 80 1C 03 80 38 04  .....fdo1.....8.
0200: 80 45 05 80 F0 FF FF 7F  F0 FF FF 7F 6B 6F 30 31  .E..........ko01
0210: 02 80 4E 00 F8 FF FF 7F  92 01 AC 01 05 01 29 0F  ..N...........).
0220: F0 FF FF 7F 07 80 F0 FF  FF 7F 80 AC 01 05 01 1E  ................
0230: F0 FF FF 7F 79 00 F0 FF  FF 7F AC 01 05 01 45 01  ....y.........E.
0240: 80 F0 FF FF 7F F0 FF FF  7F 66 64 69 31 02 80 1C  .........fdi1...
0250: 03 80 6E AC 01 05 01 16  80 99 AC 01 05 01 1D 17  ..n.............
0260: 80 23 1D 18 80 23 99 AC  01 05 01 52 05 80 F0 FF  .#...#.....R....
0270: FF 7F F0 FF FF 7F 6B 6F  30 31 45 05 80 F0 FF FF  ......ko01E.....
0280: 7F F0 FF FF 7F 6B 6F 31  36 02 80 27 0F AC 01 05  .....ko16..'....
0290: 01 0F 1C 13 80 45 01 80  F0 FF FF 7F F0 FF FF 7F  .....E..........
02A0: 66 64 6F 31 02 80 1C 03  80 52 05 80 F0 FF FF 7F  fdo1.....R......
02B0: F0 FF FF 7F 6B 6F 31 36  45 05 80 F0 FF FF 7F F0  ....ko16E.......
02C0: FF FF 7F 64 6F 70 6E 02  80 1C 19 80 4E 01 AC 01  ...dopn.....N...
02D0: 05 01 45 05 80 F0 FF FF  7F F0 FF FF 7F 64 63 6C  ..E..........dcl
02E0: 73 02 80 1C 03 80 45 05  80 F0 FF FF 7F F0 FF FF  s.....E.........
02F0: 7F 6B 6F 31 37 02 80 45  01 80 F0 FF FF 7F F0 FF  .ko17..E........
0300: FF 7F 66 64 69 31 02 80  1C 1A 80 45 01 80 F0 FF  ..fdi1.....E....
0310: FF 7F F0 FF FF 7F 66 64  6F 31 02 80 1C 03 80 52  ......fdo1.....R
0320: 05 80 F0 FF FF 7F F0 FF  FF 7F 6B 6F 31 37 4E 00  ..........ko17N.
0330: AC 01 05 01 29 0F AC 01  05 01 10 45 05 80 F0 FF  ....)......E....
0340: FF 7F F0 FF FF 7F 64 6F  70 6E 02 80 1C 19 80 45  ......dopn.....E
0350: 05 80 F0 FF FF 7F F0 FF  FF 7F 64 63 6C 73 02 80  ..........dcls..
0360: 1C 03 80 45 05 80 F0 FF  FF 7F F0 FF FF 7F 6B 6F  ...E..........ko
0370: 30 31 02 80 27 0F AC 01  05 01 11 45 01 80 F0 FF  01..'......E....
0380: FF 7F F0 FF FF 7F 66 64  69 31 02 80 1C 03 80 1D  ......fdi1......
0390: 1B 80 23 6E AC 01 05 01  1C 80 99 AC 01 05 01 52  ..#n...........R
03A0: 05 80 F0 FF FF 7F F0 FF  FF 7F 6B 6F 30 31 45 05  ..........ko01E.
03B0: 80 F0 FF FF 7F F0 FF FF  7F 6B 6F 30 32 02 80 1D  .........ko02...
03C0: 1D 80 23 99 AC 01 05 01  6E AC 01 05 01 1E 80 99  ..#.....n.......
03D0: AC 01 05 01 1D 1F 80 23  99 AC 01 05 01 52 05 80  .......#.....R..
03E0: F0 FF FF 7F F0 FF FF 7F  6B 6F 30 32 45 05 80 F0  ........ko02E...
03F0: FF FF 7F F0 FF FF 7F 6B  6F 30 37 02 80 6E AC 01  .......ko07..n..
0400: 05 01 20 80 99 AC 01 05  01 1D 21 80 23 99 AC 01  .. .......!.#...
0410: 05 01 52 05 80 F0 FF FF  7F F0 FF FF 7F 6B 6F 30  ..R..........ko0
0420: 37 45 05 80 F0 FF FF 7F  F0 FF FF 7F 6B 6F 30 32  7E..........ko02
0430: 02 80 1D 22 80 23 45 01  80 F0 FF FF 7F F0 FF FF  ...".#E.........
0440: 7F 66 64 6F 31 02 80 1C  03 80 7B AC 01 05 01 52  .fdo1.....{....R
0450: 05 80 F0 FF FF 7F F0 FF  FF 7F 6B 6F 30 32 46 00  ..........ko02F.
0460: 45 01 80 F0 FF FF 7F F0  FF FF 7F 66 64 69 31 02  E..........fdi1.
0470: 80 20 00 21 00                                    . .!.           
```

#### Opcodes

```
  0: 0x01E5 [0x42] SET_CLI_EVENT_CANCEL_DATA()
  1: 0x01E6 [0x20] SET_CLI_EVENT_UC_FLAG: Lock player control
  2: 0x01E8 [0x46] CAMERA_CONTROL: Disable user control
  3: 0x01EA [0x45] LOAD_SCHEDULED_TASK: Load scheduler "fdo1" with entities [LocalPlayer, LocalPlayer], work=[200*, 0*]
  4: 0x01FB [0x1C] WAIT(60* ticks)
  5: 0x01FE [0x38] SET_CLIENT_EVENT_MODE(mode=19*)
  6: 0x0201 [0x45] LOAD_SCHEDULED_TASK: Load scheduler "ko01" with entities [LocalPlayer, LocalPlayer], work=[341*, 0*]
  7: 0x0212 [0x4E] SET_ENTITY_HIDE_FLAG: Show EventEntity
  8: 0x0218 [0x92] Thierride (ID: 17105324/0x010501AC)->Render.Flags3 ^= 0x01
  9: 0x021E [0x29] REQ_SET_WAIT(priority=0x0F, entity_id=LocalPlayer, tag_num=0x07)
 10: 0x0225 [0x80] LOAD_WAIT(entity=LocalPlayer)
 11: 0x022A [0x80] LOAD_WAIT(entity=Thierride (ID: 17105324/0x010501AC))
 12: 0x022F [0x1E] EventEntity looks at LocalPlayer and starts talking
 13: 0x0234 [0x79] LocalPlayer looks at Thierride (ID: 17105324/0x010501AC) (Basic look)
 14: 0x023E [0x45] LOAD_SCHEDULED_TASK: Load scheduler "fdi1" with entities [LocalPlayer, LocalPlayer], work=[200*, 0*]
 15: 0x024F [0x1C] WAIT(60* ticks)
 16: 0x0252 [0x6E] Thierride (ID: 17105324/0x010501AC) uses emote 21*
 17: 0x0259 [0x99] Wait for Thierride (ID: 17105324/0x010501AC) animation to complete
 18: 0x025E [0x1D] PRINT_EVENT_MESSAGE(message_id=7534*)
    → "Hmmm? This magnificent glitter...just like those you see on precious stones. I have a good feeling about this one."
 19: 0x0261 [0x23] WAIT_FOR_DIALOG_INTERACTION
 20: 0x0262 [0x1D] PRINT_EVENT_MESSAGE(message_id=7535*)
    → "Thank you kindly. I shall try cooking with it immediately."
 21: 0x0265 [0x23] WAIT_FOR_DIALOG_INTERACTION
 22: 0x0266 [0x99] Wait for Thierride (ID: 17105324/0x010501AC) animation to complete
 23: 0x026B [0x52] END_LOAD_SCHEDULER: End scheduler "ko01" with entities [LocalPlayer, LocalPlayer], work=341*
 24: 0x027A [0x45] LOAD_SCHEDULED_TASK: Load scheduler "ko16" with entities [LocalPlayer, LocalPlayer], work=[341*, 0*]
 25: 0x028B [0x27] REQ_SET(priority=0x0F, entity_id=Thierride (ID: 17105324/0x010501AC), tag_num=0x0F)
 26: 0x0292 [0x1C] WAIT(1* ticks)
 27: 0x0295 [0x45] LOAD_SCHEDULED_TASK: Load scheduler "fdo1" with entities [LocalPlayer, LocalPlayer], work=[200*, 0*]
 28: 0x02A6 [0x1C] WAIT(60* ticks)
 29: 0x02A9 [0x52] END_LOAD_SCHEDULER: End scheduler "ko16" with entities [LocalPlayer, LocalPlayer], work=341*
 30: 0x02B8 [0x45] LOAD_SCHEDULED_TASK: Load scheduler "dopn" with entities [LocalPlayer, LocalPlayer], work=[341*, 0*]
 31: 0x02C9 [0x1C] WAIT(90* ticks)
 32: 0x02CC [0x4E] SET_ENTITY_HIDE_FLAG: Hide Thierride (ID: 17105324/0x010501AC)
 33: 0x02D2 [0x45] LOAD_SCHEDULED_TASK: Load scheduler "dcls" with entities [LocalPlayer, LocalPlayer], work=[341*, 0*]
 34: 0x02E3 [0x1C] WAIT(60* ticks)
 35: 0x02E6 [0x45] LOAD_SCHEDULED_TASK: Load scheduler "ko17" with entities [LocalPlayer, LocalPlayer], work=[341*, 0*]
 36: 0x02F7 [0x45] LOAD_SCHEDULED_TASK: Load scheduler "fdi1" with entities [LocalPlayer, LocalPlayer], work=[200*, 0*]
 37: 0x0308 [0x1C] WAIT(380* ticks)
 38: 0x030B [0x45] LOAD_SCHEDULED_TASK: Load scheduler "fdo1" with entities [LocalPlayer, LocalPlayer], work=[200*, 0*]
 39: 0x031C [0x1C] WAIT(60* ticks)
 40: 0x031F [0x52] END_LOAD_SCHEDULER: End scheduler "ko17" with entities [LocalPlayer, LocalPlayer], work=341*
 41: 0x032E [0x4E] SET_ENTITY_HIDE_FLAG: Show Thierride (ID: 17105324/0x010501AC)
 42: 0x0334 [0x29] REQ_SET_WAIT(priority=0x0F, entity_id=Thierride (ID: 17105324/0x010501AC), tag_num=0x10)
 43: 0x033B [0x45] LOAD_SCHEDULED_TASK: Load scheduler "dopn" with entities [LocalPlayer, LocalPlayer], work=[341*, 0*]
 44: 0x034C [0x1C] WAIT(90* ticks)
 45: 0x034F [0x45] LOAD_SCHEDULED_TASK: Load scheduler "dcls" with entities [LocalPlayer, LocalPlayer], work=[341*, 0*]
 46: 0x0360 [0x1C] WAIT(60* ticks)
 47: 0x0363 [0x45] LOAD_SCHEDULED_TASK: Load scheduler "ko01" with entities [LocalPlayer, LocalPlayer], work=[341*, 0*]
 48: 0x0374 [0x27] REQ_SET(priority=0x0F, entity_id=Thierride (ID: 17105324/0x010501AC), tag_num=0x11)
 49: 0x037B [0x45] LOAD_SCHEDULED_TASK: Load scheduler "fdi1" with entities [LocalPlayer, LocalPlayer], work=[200*, 0*]
 50: 0x038C [0x1C] WAIT(60* ticks)
 51: 0x038F [0x1D] PRINT_EVENT_MESSAGE(message_id=7536*)
    → "Good Goddess!"
 52: 0x0392 [0x23] WAIT_FOR_DIALOG_INTERACTION
 53: 0x0393 [0x6E] Thierride (ID: 17105324/0x010501AC) uses emote 11*
 54: 0x039A [0x99] Wait for Thierride (ID: 17105324/0x010501AC) animation to complete
 55: 0x039F [0x52] END_LOAD_SCHEDULER: End scheduler "ko01" with entities [LocalPlayer, LocalPlayer], work=341*
 56: 0x03AE [0x45] LOAD_SCHEDULED_TASK: Load scheduler "ko02" with entities [LocalPlayer, LocalPlayer], work=[341*, 0*]
 57: 0x03BF [0x1D] PRINT_EVENT_MESSAGE(message_id=7537*)
    → "The seasoning... It's amazing!"
 58: 0x03C2 [0x23] WAIT_FOR_DIALOG_INTERACTION
 59: 0x03C3 [0x99] Wait for Thierride (ID: 17105324/0x010501AC) animation to complete
 60: 0x03C8 [0x6E] Thierride (ID: 17105324/0x010501AC) uses emote 7*
 61: 0x03CF [0x99] Wait for Thierride (ID: 17105324/0x010501AC) animation to complete
 62: 0x03D4 [0x1D] PRINT_EVENT_MESSAGE(message_id=7538*)
    → "A little more of this will make it possible to bring out the bean's flavor to the fullest!"
 63: 0x03D7 [0x23] WAIT_FOR_DIALOG_INTERACTION
 64: 0x03D8 [0x99] Wait for Thierride (ID: 17105324/0x010501AC) animation to complete
 65: 0x03DD [0x52] END_LOAD_SCHEDULER: End scheduler "ko02" with entities [LocalPlayer, LocalPlayer], work=341*
 66: 0x03EC [0x45] LOAD_SCHEDULED_TASK: Load scheduler "ko07" with entities [LocalPlayer, LocalPlayer], work=[341*, 0*]
 67: 0x03FD [0x6E] Thierride (ID: 17105324/0x010501AC) uses emote 4*
 68: 0x0404 [0x99] Wait for Thierride (ID: 17105324/0x010501AC) animation to complete
 69: 0x0409 [0x1D] PRINT_EVENT_MESSAGE(message_id=7539*)
    → "Why, I don't remember being this excited since reeling in the "Lord of Lake Lufet" after an epic eight-hour battle!"
 70: 0x040C [0x23] WAIT_FOR_DIALOG_INTERACTION
 71: 0x040D [0x99] Wait for Thierride (ID: 17105324/0x010501AC) animation to complete
 72: 0x0412 [0x52] END_LOAD_SCHEDULER: End scheduler "ko07" with entities [LocalPlayer, LocalPlayer], work=341*
 73: 0x0421 [0x45] LOAD_SCHEDULED_TASK: Load scheduler "ko02" with entities [LocalPlayer, LocalPlayer], work=[341*, 0*]
 74: 0x0432 [0x1D] PRINT_EVENT_MESSAGE(message_id=7540*)
    → "Might I be able to trouble you to acquire more of that seasoning?"
 75: 0x0435 [0x23] WAIT_FOR_DIALOG_INTERACTION
 76: 0x0436 [0x45] LOAD_SCHEDULED_TASK: Load scheduler "fdo1" with entities [LocalPlayer, LocalPlayer], work=[200*, 0*]
 77: 0x0447 [0x1C] WAIT(60* ticks)
 78: 0x044A [0x7B] Thierride (ID: 17105324/0x010501AC) stops talking
 79: 0x044F [0x52] END_LOAD_SCHEDULER: End scheduler "ko02" with entities [LocalPlayer, LocalPlayer], work=341*
 80: 0x045E [0x46] CAMERA_CONTROL: Restore default settings
 81: 0x0460 [0x45] LOAD_SCHEDULED_TASK: Load scheduler "fdi1" with entities [LocalPlayer, LocalPlayer], work=[200*, 0*]
 82: 0x0471 [0x20] SET_CLI_EVENT_UC_FLAG: Unlock player control
 83: 0x0473 [0x21] END_EVENT
 84: 0x0474 [0x00] END_REQSTACK()
```

### Event 338

#### Metadata

| Field        | Value    |
|--------------|----------|
| Entrypoint   | 0x0475   |
| Data Size    | 15 bytes |
| Instructions | 7        |

```
      00 01 02 03 04 05 06 07  08 09 0A 0B 0C 0D 0E 0F
      -- -- -- -- -- -- -- --  -- -- -- -- -- -- -- --
0470:                20 01 1E  F0 FF FF 7F 1D 22 80 23        .......".#
0480: 20 00 21 00                                        .!.            
```

#### Opcodes

```
  0: 0x0475 [0x20] SET_CLI_EVENT_UC_FLAG: Lock player control
  1: 0x0477 [0x1E] EventEntity looks at LocalPlayer and starts talking
  2: 0x047C [0x1D] PRINT_EVENT_MESSAGE(message_id=7540*)
    → "Might I be able to trouble you to acquire more of that seasoning?"
  3: 0x047F [0x23] WAIT_FOR_DIALOG_INTERACTION
  4: 0x0480 [0x20] SET_CLI_EVENT_UC_FLAG: Unlock player control
  5: 0x0482 [0x21] END_EVENT
  6: 0x0483 [0x00] END_REQSTACK()
```

### Event 339

#### Metadata

| Field        | Value    |
|--------------|----------|
| Entrypoint   | 0x0484   |
| Data Size    | 15 bytes |
| Instructions | 7        |

```
      00 01 02 03 04 05 06 07  08 09 0A 0B 0C 0D 0E 0F
      -- -- -- -- -- -- -- --  -- -- -- -- -- -- -- --
0480:             20 01 1E F0  FF FF 7F 1D 23 80 23 20       .......#.# 
0490: 00 21 00                                          .!.             
```

#### Opcodes

```
  0: 0x0484 [0x20] SET_CLI_EVENT_UC_FLAG: Lock player control
  1: 0x0486 [0x1E] EventEntity looks at LocalPlayer and starts talking
  2: 0x048B [0x1D] PRINT_EVENT_MESSAGE(message_id=7541*)
    → "What is this you have brought me? I appreciate your good intentions, but this is not what I asked for."
  3: 0x048E [0x23] WAIT_FOR_DIALOG_INTERACTION
  4: 0x048F [0x20] SET_CLI_EVENT_UC_FLAG: Unlock player control
  5: 0x0491 [0x21] END_EVENT
  6: 0x0492 [0x00] END_REQSTACK()
```

### Event 340

#### Metadata

| Field        | Value      |
|--------------|------------|
| Entrypoint   | 0x0493     |
| Data Size    | 1750 bytes |
| Instructions | 248        |

```
      00 01 02 03 04 05 06 07  08 09 0A 0B 0C 0D 0E 0F
      -- -- -- -- -- -- -- --  -- -- -- -- -- -- -- --
0490:          42 20 01 46 01  45 01 80 F0 FF FF 7F F0     B .F.E.......
04A0: FF FF 7F 66 64 6F 31 02  80 1C 03 80 38 04 80 45  ...fdo1.....8..E
04B0: 05 80 F0 FF FF 7F F0 FF  FF 7F 6B 6F 30 31 02 80  ..........ko01..
04C0: 4E 00 F8 FF FF 7F 92 01  AC 01 05 01 29 0F F0 FF  N...........)...
04D0: FF 7F 07 80 F0 FF FF 7F  80 AC 01 05 01 1E F0 FF  ................
04E0: FF 7F 79 00 F0 FF FF 7F  AC 01 05 01 45 01 80 F0  ..y.........E...
04F0: FF FF 7F F0 FF FF 7F 66  64 69 31 02 80 1C 03 80  .......fdi1.....
0500: 6E AC 01 05 01 24 80 99  AC 01 05 01 1D 25 80 23  n....$.......%.#
0510: 99 AC 01 05 01 1D 26 80  23 52 05 80 F0 FF FF 7F  ......&.#R......
0520: F0 FF FF 7F 6B 6F 30 31  24 27 80 02 80 02 80 25  ....ko01$'.....%
0530: 02 00 10 02 80 00 81 05  29 0F F0 FF FF 7F 0B 1C  ........).......
0540: 19 80 6E AC 01 05 01 1E  80 99 AC 01 05 01 1D 28  ..n............(
0550: 80 23 99 AC 01 05 01 7B  AC 01 05 01 27 0F AC 01  .#.....{....'...
0560: 05 01 0F 45 05 80 F0 FF  FF 7F F0 FF FF 7F 6B 6F  ...E..........ko
0570: 31 36 02 80 27 0F F0 FF  FF 7F 0D 1C 13 80 01 CF  16..'...........
0580: 05 02 00 10 13 80 00 CF  05 29 0F F0 FF FF 7F 0C  .........)......
0590: 1C 19 80 6E AC 01 05 01  0E 80 99 AC 01 05 01 1D  ...n............
05A0: 29 80 23 99 AC 01 05 01  7B AC 01 05 01 27 0F AC  ).#.....{....'..
05B0: 01 05 01 0F 45 05 80 F0  FF FF 7F F0 FF FF 7F 6B  ....E..........k
05C0: 6F 31 36 02 80 29 0F F0  FF FF 7F 0E 01 CF 05 45  o16..).........E
05D0: 01 80 F0 FF FF 7F F0 FF  FF 7F 66 64 6F 31 02 80  ..........fdo1..
05E0: 1C 03 80 45 05 80 F0 FF  FF 7F F0 FF FF 7F 64 6F  ...E..........do
05F0: 70 6E 02 80 1C 19 80 52  05 80 F0 FF FF 7F F0 FF  pn.....R........
0600: FF 7F 6B 6F 31 36 1C 2A  80 45 05 80 F0 FF FF 7F  ..ko16.*.E......
0610: F0 FF FF 7F 64 63 6C 73  02 80 1C 2B 80 1C 13 80  ....dcls...+....
0620: 34 2C 80 77 2D 80 13 80  1C 2A 80 29 0F F0 FF FF  4,.w-....*.)....
0630: 7F 0A 75 00 05 80 75 01  1C 2A 80 5C 00 2E 80 5C  ..u...u..*.\...\
0640: 01 2E 80 9A 29 0F F0 FF  FF 7F 08 29 0F AC 01 05  ....)......)....
0650: 01 0E 29 0F AD 01 05 01  05 29 0F AE 01 05 01 05  ..)......)......
0660: 80 F0 FF FF 7F 80 AC 01  05 01 80 AD 01 05 01 80  ................
0670: AE 01 05 01 27 0F F0 FF  FF 7F 09 45 05 80 F0 FF  ....'......E....
0680: FF 7F F0 FF FF 7F 6B 6F  30 34 02 80 6E AC 01 05  ......ko04..n...
0690: 01 02 80 99 AC 01 05 01  99 AC 01 05 01 45 01 80  .............E..
06A0: F0 FF FF 7F F0 FF FF 7F  66 64 69 31 02 80 1C 03  ........fdi1....
06B0: 80 55 05 80 F0 FF FF 7F  F0 FF FF 7F 6B 6F 30 34  .U..........ko04
06C0: 45 01 80 F0 FF FF 7F F0  FF FF 7F 62 6C 6F 6E 02  E..........blon.
06D0: 80 45 2F 80 F0 FF FF 7F  F0 FF FF 7F 62 6C 6F 6E  .E/.........blon
06E0: 02 80 45 01 80 F0 FF FF  7F F0 FF FF 7F 6F 76 6C  ..E..........ovl
06F0: 31 02 80 45 05 80 F0 FF  FF 7F F0 FF FF 7F 6B 6F  1..E..........ko
0700: 30 33 02 80 6E AC 01 05  01 1E 80 99 AC 01 05 01  03..n...........
0710: 1D 30 80 23 99 AC 01 05  01 52 05 80 F0 FF FF 7F  .0.#.....R......
0720: F0 FF FF 7F 6B 6F 30 33  45 01 80 F0 FF FF 7F F0  ....ko03E.......
0730: FF FF 7F 62 6C 6F 66 02  80 1E F0 FF FF 7F 45 05  ...blof.......E.
0740: 80 F0 FF FF 7F F0 FF FF  7F 6B 6F 30 38 02 80 1C  .........ko08...
0750: 2A 80 6E AC 01 05 01 24  80 99 AC 01 05 01 1D 31  *.n....$.......1
0760: 80 23 99 AC 01 05 01 6E  AC 01 05 01 1E 80 99 AC  .#.....n........
0770: 01 05 01 1D 32 80 23 99  AC 01 05 01 52 05 80 F0  ....2.#.....R...
0780: FF FF 7F F0 FF FF 7F 6B  6F 30 38 29 0F AD 01 05  .......ko08)....
0790: 01 02 1E AD 01 05 01 1C  2A 80 27 0F F0 FF FF 7F  ........*.'.....
07A0: 12 1C 2A 80 45 05 80 F0  FF FF 7F F0 FF FF 7F 6B  ..*.E..........k
07B0: 6F 30 35 02 80 29 0F AD  01 05 01 06 27 0F AD 01  o05..)......'...
07C0: 05 01 07 29 0F AE 01 05  01 06 29 0F AE 01 05 01  ...)......).....
07D0: 07 29 0F AE 01 05 01 02  52 05 80 F0 FF FF 7F F0  .)......R.......
07E0: FF FF 7F 6B 6F 30 35 45  05 80 F0 FF FF 7F F0 FF  ...ko05E........
07F0: FF 7F 6B 6F 30 38 02 80  1D 33 80 23 1D 34 80 23  ..ko08...3.#.4.#
0800: 52 05 80 F0 FF FF 7F F0  FF FF 7F 6B 6F 30 38 45  R..........ko08E
0810: 05 80 F0 FF FF 7F F0 FF  FF 7F 6B 6F 31 31 02 80  ..........ko11..
0820: 6E AC 01 05 01 35 80 99  AC 01 05 01 1D 36 80 23  n....5.......6.#
0830: 99 AC 01 05 01 29 0F AD  01 05 01 08 29 0F AD 01  .....)......)...
0840: 05 01 03 79 00 AC 01 05  01 AE 01 05 01 29 0F AE  ...y.........)..
0850: 01 05 01 08 29 0F AE 01  05 01 03 7B AC 01 05 01  ....)......{....
0860: 6E AC 01 05 01 1E 80 99  AC 01 05 01 1D 37 80 23  n............7.#
0870: 99 AC 01 05 01 4B AC 01  05 01 38 80 6F 76 AC 01  .....K....8.ov..
0880: 05 01 6E AC 01 05 01 02  80 99 AC 01 05 01 99 AC  ..n.............
0890: 01 05 01 1C 2B 80 52 05  80 F0 FF FF 7F F0 FF FF  ....+.R.........
08A0: 7F 6B 6F 31 31 45 01 80  F0 FF FF 7F F0 FF FF 7F  .ko11E..........
08B0: 6F 76 6C 31 02 80 45 05  80 F0 FF FF 7F F0 FF FF  ovl1..E.........
08C0: 7F 6B 6F 31 30 02 80 1E  AD 01 05 01 29 0F F0 FF  .ko10.......)...
08D0: FF 7F 12 55 05 80 F0 FF  FF 7F F0 FF FF 7F 6B 6F  ...U..........ko
08E0: 31 30 45 01 80 F0 FF FF  7F F0 FF FF 7F 6F 76 6C  10E..........ovl
08F0: 31 02 80 45 05 80 F0 FF  FF 7F F0 FF FF 7F 6B 6F  1..E..........ko
0900: 31 31 02 80 6E AC 01 05  01 1C 80 99 AC 01 05 01  11..n...........
0910: 1D 39 80 23 99 AC 01 05  01 52 05 80 F0 FF FF 7F  .9.#.....R......
0920: F0 FF FF 7F 6B 6F 31 31  45 01 80 F0 FF FF 7F F0  ....ko11E.......
0930: FF FF 7F 62 6C 6F 6E 02  80 45 2F 80 F0 FF FF 7F  ...blon..E/.....
0940: F0 FF FF 7F 62 6C 6F 6E  02 80 45 05 80 F0 FF FF  ....blon..E.....
0950: 7F F0 FF FF 7F 6B 6F 31  32 02 80 55 05 80 F0 FF  .....ko12..U....
0960: FF 7F F0 FF FF 7F 6B 6F  31 32 29 0F AD 01 05 01  ......ko12).....
0970: 04 45 05 80 F0 FF FF 7F  F0 FF FF 7F 6B 6F 31 33  .E..........ko13
0980: 02 80 55 05 80 F0 FF FF  7F F0 FF FF 7F 6B 6F 31  ..U..........ko1
0990: 33 29 0F AE 01 05 01 04  45 01 80 F0 FF FF 7F F0  3)......E.......
09A0: FF FF 7F 62 6C 6F 66 02  80 45 05 80 F0 FF FF 7F  ...blof..E......
09B0: F0 FF FF 7F 6B 6F 31 31  02 80 6E AC 01 05 01 20  ....ko11..n.... 
09C0: 80 99 AC 01 05 01 1D 3A  80 23 99 AC 01 05 01 52  .......:.#.....R
09D0: 05 80 F0 FF FF 7F F0 FF  FF 7F 6B 6F 31 31 45 05  ..........ko11E.
09E0: 80 F0 FF FF 7F F0 FF FF  7F 6B 6F 30 38 02 80 1E  .........ko08...
09F0: F0 FF FF 7F 1D 3B 80 23  29 0F F0 FF FF 7F 11 6E  .....;.#)......n
0A00: AC 01 05 01 20 80 99 AC  01 05 01 1D 3C 80 23 99  .... .......<.#.
0A10: AC 01 05 01 1C 3D 80 6E  AC 01 05 01 20 80 99 AC  .....=.n.... ...
0A20: 01 05 01 1C 03 80 45 01  80 F0 FF FF 7F F0 FF FF  ......E.........
0A30: 7F 66 64 6F 31 02 80 1C  03 80 35 3E 80 78 1C 13  .fdo1.....5>.x..
0A40: 80 5C 00 3F 80 5C 01 3F  80 9A 52 05 80 F0 FF FF  .\.?.\.?..R.....
0A50: 7F F0 FF FF 7F 6B 6F 30  38 80 F0 FF FF 7F 80 AC  .....ko08.......
0A60: 01 05 01 29 0F F0 FF FF  7F 0F 29 0F AC 01 05 01  ...)......).....
0A70: 10 27 0F F0 FF FF 7F 10  27 0F AC 01 05 01 11 45  .'......'......E
0A80: 05 80 F0 FF FF 7F F0 FF  FF 7F 6B 6F 30 31 02 80  ..........ko01..
0A90: 45 01 80 F0 FF FF 7F F0  FF FF 7F 66 64 69 31 02  E..........fdi1.
0AA0: 80 1C 03 80 1D 40 80 23  52 05 80 F0 FF FF 7F F0  .....@.#R.......
0AB0: FF FF 7F 6B 6F 30 31 45  05 80 F0 FF FF 7F F0 FF  ...ko01E........
0AC0: FF 7F 6B 6F 30 36 02 80  03 02 10 41 80 1D 42 80  ..ko06.....A..B.
0AD0: 23 29 0F F0 FF FF 7F 11  1A F4 0D 52 05 80 F0 FF  #).........R....
0AE0: FF 7F F0 FF FF 7F 6B 6F  30 36 45 05 80 F0 FF FF  ......ko06E.....
0AF0: 7F F0 FF FF 7F 6B 6F 30  32 02 80 6E AC 01 05 01  .....ko02..n....
0B00: 1E 80 99 AC 01 05 01 03  02 10 41 80 1D 43 80 23  ..........A..C.#
0B10: 99 AC 01 05 01 6E AC 01  05 01 0E 80 99 AC 01 05  .....n..........
0B20: 01 1D 44 80 23 99 AC 01  05 01 45 01 80 F0 FF FF  ..D.#.....E.....
0B30: 7F F0 FF FF 7F 66 64 6F  31 02 80 1C 03 80 7B AC  .....fdo1.....{.
0B40: 01 05 01 52 05 80 F0 FF  FF 7F F0 FF FF 7F 6B 6F  ...R..........ko
0B50: 30 32 46 00 45 01 80 F0  FF FF 7F F0 FF FF 7F 66  02F.E..........f
0B60: 64 69 31 02 80 20 00 21  00                       di1.. .!.       
```

#### Opcodes

```
  0: 0x0493 [0x42] SET_CLI_EVENT_CANCEL_DATA()
  1: 0x0494 [0x20] SET_CLI_EVENT_UC_FLAG: Lock player control
  2: 0x0496 [0x46] CAMERA_CONTROL: Disable user control
  3: 0x0498 [0x45] LOAD_SCHEDULED_TASK: Load scheduler "fdo1" with entities [LocalPlayer, LocalPlayer], work=[200*, 0*]
  4: 0x04A9 [0x1C] WAIT(60* ticks)
  5: 0x04AC [0x38] SET_CLIENT_EVENT_MODE(mode=19*)
  6: 0x04AF [0x45] LOAD_SCHEDULED_TASK: Load scheduler "ko01" with entities [LocalPlayer, LocalPlayer], work=[341*, 0*]
  7: 0x04C0 [0x4E] SET_ENTITY_HIDE_FLAG: Show EventEntity
  8: 0x04C6 [0x92] Thierride (ID: 17105324/0x010501AC)->Render.Flags3 ^= 0x01
  9: 0x04CC [0x29] REQ_SET_WAIT(priority=0x0F, entity_id=LocalPlayer, tag_num=0x07)
 10: 0x04D3 [0x80] LOAD_WAIT(entity=LocalPlayer)
 11: 0x04D8 [0x80] LOAD_WAIT(entity=Thierride (ID: 17105324/0x010501AC))
 12: 0x04DD [0x1E] EventEntity looks at LocalPlayer and starts talking
 13: 0x04E2 [0x79] LocalPlayer looks at Thierride (ID: 17105324/0x010501AC) (Basic look)
 14: 0x04EC [0x45] LOAD_SCHEDULED_TASK: Load scheduler "fdi1" with entities [LocalPlayer, LocalPlayer], work=[200*, 0*]
 15: 0x04FD [0x1C] WAIT(60* ticks)
 16: 0x0500 [0x6E] Thierride (ID: 17105324/0x010501AC) uses emote 10*
 17: 0x0507 [0x99] Wait for Thierride (ID: 17105324/0x010501AC) animation to complete
 18: 0x050C [0x1D] PRINT_EVENT_MESSAGE(message_id=7542*)
    → "Yes, this is it! It shares the same enchanting glitter as the one you first brought..."
 19: 0x050F [0x23] WAIT_FOR_DIALOG_INTERACTION
 20: 0x0510 [0x99] Wait for Thierride (ID: 17105324/0x010501AC) animation to complete
 21: 0x0515 [0x1D] PRINT_EVENT_MESSAGE(message_id=7543*)
    → "I shall get to work right away. Will you stay and bear witness to what will surely become a historic moment?"
 22: 0x0518 [0x23] WAIT_FOR_DIALOG_INTERACTION
 23: 0x0519 [0x52] END_LOAD_SCHEDULER: End scheduler "ko01" with entities [LocalPlayer, LocalPlayer], work=341*
 24: 0x0528 [0x24] CREATE_DIALOG(message_id=7544*, default_option=0*, option_flags=0*)
    → "Will you bear witness? [If there's free food involved.../Thanks, but no thanks.]"
 25: 0x052F [0x25] WAIT_DIALOG_SELECT()
 26: 0x0530 [0x02] IF !(Work_Zone[0] == 0*) GOTO 0x0581
 27: 0x0538 [0x29] REQ_SET_WAIT(priority=0x0F, entity_id=LocalPlayer, tag_num=0x0B)
 28: 0x053F [0x1C] WAIT(90* ticks)
 29: 0x0542 [0x6E] Thierride (ID: 17105324/0x010501AC) uses emote 7*
 30: 0x0549 [0x99] Wait for Thierride (ID: 17105324/0x010501AC) animation to complete
 31: 0x054E [0x1D] PRINT_EVENT_MESSAGE(message_id=7545*)
    → "Fabulous! Well then, come in! Come in!"
 32: 0x0551 [0x23] WAIT_FOR_DIALOG_INTERACTION
 33: 0x0552 [0x99] Wait for Thierride (ID: 17105324/0x010501AC) animation to complete
 34: 0x0557 [0x7B] Thierride (ID: 17105324/0x010501AC) stops talking
 35: 0x055C [0x27] REQ_SET(priority=0x0F, entity_id=Thierride (ID: 17105324/0x010501AC), tag_num=0x0F)
 36: 0x0563 [0x45] LOAD_SCHEDULED_TASK: Load scheduler "ko16" with entities [LocalPlayer, LocalPlayer], work=[341*, 0*]
 37: 0x0574 [0x27] REQ_SET(priority=0x0F, entity_id=LocalPlayer, tag_num=0x0D)
 38: 0x057B [0x1C] WAIT(1* ticks)
 39: 0x057E [0x01] GOTO 0x05CF
 40: 0x0581 [0x02] IF !(Work_Zone[0] == 1*) GOTO 0x05CF
 41: 0x0589 [0x29] REQ_SET_WAIT(priority=0x0F, entity_id=LocalPlayer, tag_num=0x0C)
 42: 0x0590 [0x1C] WAIT(90* ticks)
 43: 0x0593 [0x6E] Thierride (ID: 17105324/0x010501AC) uses emote 6*
 44: 0x059A [0x99] Wait for Thierride (ID: 17105324/0x010501AC) animation to complete
 45: 0x059F [0x1D] PRINT_EVENT_MESSAGE(message_id=7546*)
    → "There's no need to be shy, now. I insist!"
 46: 0x05A2 [0x23] WAIT_FOR_DIALOG_INTERACTION
 47: 0x05A3 [0x99] Wait for Thierride (ID: 17105324/0x010501AC) animation to complete
 48: 0x05A8 [0x7B] Thierride (ID: 17105324/0x010501AC) stops talking
 49: 0x05AD [0x27] REQ_SET(priority=0x0F, entity_id=Thierride (ID: 17105324/0x010501AC), tag_num=0x0F)
 50: 0x05B4 [0x45] LOAD_SCHEDULED_TASK: Load scheduler "ko16" with entities [LocalPlayer, LocalPlayer], work=[341*, 0*]
 51: 0x05C5 [0x29] REQ_SET_WAIT(priority=0x0F, entity_id=LocalPlayer, tag_num=0x0E)
 52: 0x05CC [0x01] GOTO 0x05CF

SUBROUTINE_05CF:
 53: 0x05CF [0x45] LOAD_SCHEDULED_TASK: Load scheduler "fdo1" with entities [LocalPlayer, LocalPlayer], work=[200*, 0*]
 54: 0x05E0 [0x1C] WAIT(60* ticks)
 55: 0x05E3 [0x45] LOAD_SCHEDULED_TASK: Load scheduler "dopn" with entities [LocalPlayer, LocalPlayer], work=[341*, 0*]
 56: 0x05F4 [0x1C] WAIT(90* ticks)
 57: 0x05F7 [0x52] END_LOAD_SCHEDULER: End scheduler "ko16" with entities [LocalPlayer, LocalPlayer], work=341*
 58: 0x0606 [0x1C] WAIT(15* ticks)
 59: 0x0609 [0x45] LOAD_SCHEDULED_TASK: Load scheduler "dcls" with entities [LocalPlayer, LocalPlayer], work=[341*, 0*]
 60: 0x061A [0x1C] WAIT(30* ticks)
 61: 0x061D [0x1C] WAIT(1* ticks)
 62: 0x0620 [0x34] LOAD_UNLOAD_ZONE(zone_id=230*)
 63: 0x0623 [0x77] SET_EVENT_TIME_WEATHER(hour=255*, weather=1*)
 64: 0x0628 [0x1C] WAIT(15* ticks)
 65: 0x062B [0x29] REQ_SET_WAIT(priority=0x0F, entity_id=LocalPlayer, tag_num=0x0A)
 66: 0x0632 [0x75] LOAD_ROOM(Load indoor room, room=341*)
 67: 0x0636 [0x75] LOAD_ROOM(No action)
 68: 0x0638 [0x1C] WAIT(15* ticks)
 69: 0x063B [0x5C] MUSIC_CONTROL: Set Idle (Day) music to song 145*
 70: 0x063F [0x5C] MUSIC_CONTROL: Set Idle (Night) music to song 145*
 71: 0x0643 [0x9A] WAIT_MUSIC_SERVER()
 72: 0x0644 [0x29] REQ_SET_WAIT(priority=0x0F, entity_id=LocalPlayer, tag_num=0x08)
 73: 0x064B [0x29] REQ_SET_WAIT(priority=0x0F, entity_id=Thierride (ID: 17105324/0x010501AC), tag_num=0x0E)
 74: 0x0652 [0x29] REQ_SET_WAIT(priority=0x0F, entity_id=Nogelle (ID: 17105325/0x010501AD), tag_num=0x05)
 75: 0x0659 [0x29] REQ_SET_WAIT(priority=0x0F, entity_id=Antreneau (ID: 17105326/0x010501AE), tag_num=0x05)
 76: 0x0660 [0x80] LOAD_WAIT(entity=LocalPlayer)
 77: 0x0665 [0x80] LOAD_WAIT(entity=Thierride (ID: 17105324/0x010501AC))
 78: 0x066A [0x80] LOAD_WAIT(entity=Nogelle (ID: 17105325/0x010501AD))
 79: 0x066F [0x80] LOAD_WAIT(entity=Antreneau (ID: 17105326/0x010501AE))
 80: 0x0674 [0x27] REQ_SET(priority=0x0F, entity_id=LocalPlayer, tag_num=0x09)
 81: 0x067B [0x45] LOAD_SCHEDULED_TASK: Load scheduler "ko04" with entities [LocalPlayer, LocalPlayer], work=[341*, 0*]
 82: 0x068C [0x6E] Thierride (ID: 17105324/0x010501AC) uses emote 0*
 83: 0x0693 [0x99] Wait for Thierride (ID: 17105324/0x010501AC) animation to complete
 84: 0x0698 [0x99] Wait for Thierride (ID: 17105324/0x010501AC) animation to complete
 85: 0x069D [0x45] LOAD_SCHEDULED_TASK: Load scheduler "fdi1" with entities [LocalPlayer, LocalPlayer], work=[200*, 0*]
 86: 0x06AE [0x1C] WAIT(60* ticks)
 87: 0x06B1 [0x55] WAIT_LOAD_SCHEDULER: Wait for scheduler "ko04" with entities [LocalPlayer, LocalPlayer], work=341*
 88: 0x06C0 [0x45] LOAD_SCHEDULED_TASK: Load scheduler "blon" with entities [LocalPlayer, LocalPlayer], work=[200*, 0*]
 89: 0x06D1 [0x45] LOAD_SCHEDULED_TASK: Load scheduler "blon" with entities [LocalPlayer, LocalPlayer], work=[201*, 0*]
 90: 0x06E2 [0x45] LOAD_SCHEDULED_TASK: Load scheduler "ovl1" with entities [LocalPlayer, LocalPlayer], work=[200*, 0*]
 91: 0x06F3 [0x45] LOAD_SCHEDULED_TASK: Load scheduler "ko03" with entities [LocalPlayer, LocalPlayer], work=[341*, 0*]
 92: 0x0704 [0x6E] Thierride (ID: 17105324/0x010501AC) uses emote 7*
 93: 0x070B [0x99] Wait for Thierride (ID: 17105324/0x010501AC) animation to complete
 94: 0x0710 [0x1D] PRINT_EVENT_MESSAGE(message_id=7547*)
    → "Glorious! This is exactly the taste I was after!"
 95: 0x0713 [0x23] WAIT_FOR_DIALOG_INTERACTION
 96: 0x0714 [0x99] Wait for Thierride (ID: 17105324/0x010501AC) animation to complete
 97: 0x0719 [0x52] END_LOAD_SCHEDULER: End scheduler "ko03" with entities [LocalPlayer, LocalPlayer], work=341*
 98: 0x0728 [0x45] LOAD_SCHEDULED_TASK: Load scheduler "blof" with entities [LocalPlayer, LocalPlayer], work=[200*, 0*]
 99: 0x0739 [0x1E] EventEntity looks at LocalPlayer and starts talking
100: 0x073E [0x45] LOAD_SCHEDULED_TASK: Load scheduler "ko08" with entities [LocalPlayer, LocalPlayer], work=[341*, 0*]
101: 0x074F [0x1C] WAIT(15* ticks)
102: 0x0752 [0x6E] Thierride (ID: 17105324/0x010501AC) uses emote 10*
103: 0x0759 [0x99] Wait for Thierride (ID: 17105324/0x010501AC) animation to complete
104: 0x075E [0x1D] PRINT_EVENT_MESSAGE(message_id=7548*)
    → "Can you not feel the rich, flavorsome aroma permeating through your entire being?"
105: 0x0761 [0x23] WAIT_FOR_DIALOG_INTERACTION
106: 0x0762 [0x99] Wait for Thierride (ID: 17105324/0x010501AC) animation to complete
107: 0x0767 [0x6E] Thierride (ID: 17105324/0x010501AC) uses emote 7*
108: 0x076E [0x99] Wait for Thierride (ID: 17105324/0x010501AC) animation to complete
109: 0x0773 [0x1D] PRINT_EVENT_MESSAGE(message_id=7549*)
    → "Here, you simply must try it..."
110: 0x0776 [0x23] WAIT_FOR_DIALOG_INTERACTION
111: 0x0777 [0x99] Wait for Thierride (ID: 17105324/0x010501AC) animation to complete
112: 0x077C [0x52] END_LOAD_SCHEDULER: End scheduler "ko08" with entities [LocalPlayer, LocalPlayer], work=341*
113: 0x078B [0x29] REQ_SET_WAIT(priority=0x0F, entity_id=Nogelle (ID: 17105325/0x010501AD), tag_num=0x02)
114: 0x0792 [0x1E] EventEntity looks at Nogelle (ID: 17105325/0x010501AD) and starts talking
115: 0x0797 [0x1C] WAIT(15* ticks)
116: 0x079A [0x27] REQ_SET(priority=0x0F, entity_id=LocalPlayer, tag_num=0x12)
117: 0x07A1 [0x1C] WAIT(15* ticks)
118: 0x07A4 [0x45] LOAD_SCHEDULED_TASK: Load scheduler "ko05" with entities [LocalPlayer, LocalPlayer], work=[341*, 0*]
119: 0x07B5 [0x29] REQ_SET_WAIT(priority=0x0F, entity_id=Nogelle (ID: 17105325/0x010501AD), tag_num=0x06)
120: 0x07BC [0x27] REQ_SET(priority=0x0F, entity_id=Nogelle (ID: 17105325/0x010501AD), tag_num=0x07)
121: 0x07C3 [0x29] REQ_SET_WAIT(priority=0x0F, entity_id=Antreneau (ID: 17105326/0x010501AE), tag_num=0x06)
122: 0x07CA [0x29] REQ_SET_WAIT(priority=0x0F, entity_id=Antreneau (ID: 17105326/0x010501AE), tag_num=0x07)
123: 0x07D1 [0x29] REQ_SET_WAIT(priority=0x0F, entity_id=Antreneau (ID: 17105326/0x010501AE), tag_num=0x02)
124: 0x07D8 [0x52] END_LOAD_SCHEDULER: End scheduler "ko05" with entities [LocalPlayer, LocalPlayer], work=341*
125: 0x07E7 [0x45] LOAD_SCHEDULED_TASK: Load scheduler "ko08" with entities [LocalPlayer, LocalPlayer], work=[341*, 0*]
126: 0x07F8 [0x1D] PRINT_EVENT_MESSAGE(message_id=7552*)
    → "Haha! It appears our scavengers have arrived!"
127: 0x07FB [0x23] WAIT_FOR_DIALOG_INTERACTION
128: 0x07FC [0x1D] PRINT_EVENT_MESSAGE(message_id=7553*)
    → "For too long have I been corrupting your sense of smell with offensive odors. And I say that with a double meaning."
129: 0x07FF [0x23] WAIT_FOR_DIALOG_INTERACTION
130: 0x0800 [0x52] END_LOAD_SCHEDULER: End scheduler "ko08" with entities [LocalPlayer, LocalPlayer], work=341*
131: 0x080F [0x45] LOAD_SCHEDULED_TASK: Load scheduler "ko11" with entities [LocalPlayer, LocalPlayer], work=[341*, 0*]
132: 0x0820 [0x6E] Thierride (ID: 17105324/0x010501AC) uses emote 5*
133: 0x0827 [0x99] Wait for Thierride (ID: 17105324/0x010501AC) animation to complete
134: 0x082C [0x1D] PRINT_EVENT_MESSAGE(message_id=7554*)
    → "My very own specialty bean dish is now complete!"
135: 0x082F [0x23] WAIT_FOR_DIALOG_INTERACTION
136: 0x0830 [0x99] Wait for Thierride (ID: 17105324/0x010501AC) animation to complete
137: 0x0835 [0x29] REQ_SET_WAIT(priority=0x0F, entity_id=Nogelle (ID: 17105325/0x010501AD), tag_num=0x08)
138: 0x083C [0x29] REQ_SET_WAIT(priority=0x0F, entity_id=Nogelle (ID: 17105325/0x010501AD), tag_num=0x03)
139: 0x0843 [0x79] Thierride (ID: 17105324/0x010501AC) looks at Antreneau (ID: 17105326/0x010501AE) (Basic look)
140: 0x084D [0x29] REQ_SET_WAIT(priority=0x0F, entity_id=Antreneau (ID: 17105326/0x010501AE), tag_num=0x08)
141: 0x0854 [0x29] REQ_SET_WAIT(priority=0x0F, entity_id=Antreneau (ID: 17105326/0x010501AE), tag_num=0x03)
142: 0x085B [0x7B] Thierride (ID: 17105324/0x010501AC) stops talking
143: 0x0860 [0x6E] Thierride (ID: 17105324/0x010501AC) uses emote 7*
144: 0x0867 [0x99] Wait for Thierride (ID: 17105324/0x010501AC) animation to complete
145: 0x086C [0x1D] PRINT_EVENT_MESSAGE(message_id=7557*)
    → "Why, of course! It's piping hot, so don't go scalding your tongue on it, you hear?"
146: 0x086F [0x23] WAIT_FOR_DIALOG_INTERACTION
147: 0x0870 [0x99] Wait for Thierride (ID: 17105324/0x010501AC) animation to complete
148: 0x0875 [0x4B] UPDATE_ENTITY_YAW(entity=Thierride (ID: 17105324/0x010501AC), yaw=10.7°*)
149: 0x087C [0x6F] WAIT_FRAME_DELAY: Yield until WaitTime reaches zero
150: 0x087D [0x76] CHECK_ENTITY_RENDER_FLAGS: Wait until Thierride (ID: 17105324/0x010501AC) Render.Flags0 and Render.Flags3 conditions are met
151: 0x0882 [0x6E] Thierride (ID: 17105324/0x010501AC) uses emote 0*
152: 0x0889 [0x99] Wait for Thierride (ID: 17105324/0x010501AC) animation to complete
153: 0x088E [0x99] Wait for Thierride (ID: 17105324/0x010501AC) animation to complete
154: 0x0893 [0x1C] WAIT(30* ticks)
155: 0x0896 [0x52] END_LOAD_SCHEDULER: End scheduler "ko11" with entities [LocalPlayer, LocalPlayer], work=341*
156: 0x08A5 [0x45] LOAD_SCHEDULED_TASK: Load scheduler "ovl1" with entities [LocalPlayer, LocalPlayer], work=[200*, 0*]
157: 0x08B6 [0x45] LOAD_SCHEDULED_TASK: Load scheduler "ko10" with entities [LocalPlayer, LocalPlayer], work=[341*, 0*]
158: 0x08C7 [0x1E] EventEntity looks at Nogelle (ID: 17105325/0x010501AD) and starts talking
159: 0x08CC [0x29] REQ_SET_WAIT(priority=0x0F, entity_id=LocalPlayer, tag_num=0x12)
160: 0x08D3 [0x55] WAIT_LOAD_SCHEDULER: Wait for scheduler "ko10" with entities [LocalPlayer, LocalPlayer], work=341*
161: 0x08E2 [0x45] LOAD_SCHEDULED_TASK: Load scheduler "ovl1" with entities [LocalPlayer, LocalPlayer], work=[200*, 0*]
162: 0x08F3 [0x45] LOAD_SCHEDULED_TASK: Load scheduler "ko11" with entities [LocalPlayer, LocalPlayer], work=[341*, 0*]
163: 0x0904 [0x6E] Thierride (ID: 17105324/0x010501AC) uses emote 11*
164: 0x090B [0x99] Wait for Thierride (ID: 17105324/0x010501AC) animation to complete
165: 0x0910 [0x1D] PRINT_EVENT_MESSAGE(message_id=7558*)
    → "So...tell me what you think, little ones."
166: 0x0913 [0x23] WAIT_FOR_DIALOG_INTERACTION
167: 0x0914 [0x99] Wait for Thierride (ID: 17105324/0x010501AC) animation to complete
168: 0x0919 [0x52] END_LOAD_SCHEDULER: End scheduler "ko11" with entities [LocalPlayer, LocalPlayer], work=341*
169: 0x0928 [0x45] LOAD_SCHEDULED_TASK: Load scheduler "blon" with entities [LocalPlayer, LocalPlayer], work=[200*, 0*]
170: 0x0939 [0x45] LOAD_SCHEDULED_TASK: Load scheduler "blon" with entities [LocalPlayer, LocalPlayer], work=[201*, 0*]
171: 0x094A [0x45] LOAD_SCHEDULED_TASK: Load scheduler "ko12" with entities [LocalPlayer, LocalPlayer], work=[341*, 0*]
172: 0x095B [0x55] WAIT_LOAD_SCHEDULER: Wait for scheduler "ko12" with entities [LocalPlayer, LocalPlayer], work=341*
173: 0x096A [0x29] REQ_SET_WAIT(priority=0x0F, entity_id=Nogelle (ID: 17105325/0x010501AD), tag_num=0x04)
174: 0x0971 [0x45] LOAD_SCHEDULED_TASK: Load scheduler "ko13" with entities [LocalPlayer, LocalPlayer], work=[341*, 0*]
175: 0x0982 [0x55] WAIT_LOAD_SCHEDULER: Wait for scheduler "ko13" with entities [LocalPlayer, LocalPlayer], work=341*
176: 0x0991 [0x29] REQ_SET_WAIT(priority=0x0F, entity_id=Antreneau (ID: 17105326/0x010501AE), tag_num=0x04)
177: 0x0998 [0x45] LOAD_SCHEDULED_TASK: Load scheduler "blof" with entities [LocalPlayer, LocalPlayer], work=[200*, 0*]
178: 0x09A9 [0x45] LOAD_SCHEDULED_TASK: Load scheduler "ko11" with entities [LocalPlayer, LocalPlayer], work=[341*, 0*]
179: 0x09BA [0x6E] Thierride (ID: 17105324/0x010501AC) uses emote 4*
180: 0x09C1 [0x99] Wait for Thierride (ID: 17105324/0x010501AC) animation to complete
181: 0x09C6 [0x1D] PRINT_EVENT_MESSAGE(message_id=7561*)
    → "<Chuckle> Such comments from the mouths of children are most reassuring. Now I can finally start the business without reserve."
182: 0x09C9 [0x23] WAIT_FOR_DIALOG_INTERACTION
183: 0x09CA [0x99] Wait for Thierride (ID: 17105324/0x010501AC) animation to complete
184: 0x09CF [0x52] END_LOAD_SCHEDULER: End scheduler "ko11" with entities [LocalPlayer, LocalPlayer], work=341*
185: 0x09DE [0x45] LOAD_SCHEDULED_TASK: Load scheduler "ko08" with entities [LocalPlayer, LocalPlayer], work=[341*, 0*]
186: 0x09EF [0x1E] EventEntity looks at LocalPlayer and starts talking
187: 0x09F4 [0x1D] PRINT_EVENT_MESSAGE(message_id=7562*)
    → "I owe all this to you, for finding a seasoning so delectable, it borders on miraculous. This new bean dish is bound to delight both citizens and knights alike."
188: 0x09F7 [0x23] WAIT_FOR_DIALOG_INTERACTION
189: 0x09F8 [0x29] REQ_SET_WAIT(priority=0x0F, entity_id=LocalPlayer, tag_num=0x11)
190: 0x09FF [0x6E] Thierride (ID: 17105324/0x010501AC) uses emote 4*
191: 0x0A06 [0x99] Wait for Thierride (ID: 17105324/0x010501AC) animation to complete
192: 0x0A0B [0x1D] PRINT_EVENT_MESSAGE(message_id=7563*)
    → "The wretched beastmen may try to break down our walls, but we shall return the favor by breaking them with our wind! Mwahahahaha!"
193: 0x0A0E [0x23] WAIT_FOR_DIALOG_INTERACTION
194: 0x0A0F [0x99] Wait for Thierride (ID: 17105324/0x010501AC) animation to complete
195: 0x0A14 [0x1C] WAIT(120* ticks)
196: 0x0A17 [0x6E] Thierride (ID: 17105324/0x010501AC) uses emote 4*
197: 0x0A1E [0x99] Wait for Thierride (ID: 17105324/0x010501AC) animation to complete
198: 0x0A23 [0x1C] WAIT(60* ticks)
199: 0x0A26 [0x45] LOAD_SCHEDULED_TASK: Load scheduler "fdo1" with entities [LocalPlayer, LocalPlayer], work=[200*, 0*]
200: 0x0A37 [0x1C] WAIT(60* ticks)
201: 0x0A3A [0x35] LOAD_ZONE_NO_CLOSE(zone_id=80*)
202: 0x0A3D [0x78] ENABLE_GAME_TIMER_RESET_WEATHER()
203: 0x0A3E [0x1C] WAIT(1* ticks)
204: 0x0A41 [0x5C] MUSIC_CONTROL: Set Idle (Day) music to song 254*
205: 0x0A45 [0x5C] MUSIC_CONTROL: Set Idle (Night) music to song 254*
206: 0x0A49 [0x9A] WAIT_MUSIC_SERVER()
207: 0x0A4A [0x52] END_LOAD_SCHEDULER: End scheduler "ko08" with entities [LocalPlayer, LocalPlayer], work=341*
208: 0x0A59 [0x80] LOAD_WAIT(entity=LocalPlayer)
209: 0x0A5E [0x80] LOAD_WAIT(entity=Thierride (ID: 17105324/0x010501AC))
210: 0x0A63 [0x29] REQ_SET_WAIT(priority=0x0F, entity_id=LocalPlayer, tag_num=0x0F)
211: 0x0A6A [0x29] REQ_SET_WAIT(priority=0x0F, entity_id=Thierride (ID: 17105324/0x010501AC), tag_num=0x10)
212: 0x0A71 [0x27] REQ_SET(priority=0x0F, entity_id=LocalPlayer, tag_num=0x10)
213: 0x0A78 [0x27] REQ_SET(priority=0x0F, entity_id=Thierride (ID: 17105324/0x010501AC), tag_num=0x11)
214: 0x0A7F [0x45] LOAD_SCHEDULED_TASK: Load scheduler "ko01" with entities [LocalPlayer, LocalPlayer], work=[341*, 0*]
215: 0x0A90 [0x45] LOAD_SCHEDULED_TASK: Load scheduler "fdi1" with entities [LocalPlayer, LocalPlayer], work=[200*, 0*]
216: 0x0AA1 [0x1C] WAIT(60* ticks)
217: 0x0AA4 [0x1D] PRINT_EVENT_MESSAGE(message_id=7564*)
    → "A-ahem! Please be so kind as to forget that rather unsavory outburst. Now, before I forget, I was intending to ask you..."
218: 0x0AA7 [0x23] WAIT_FOR_DIALOG_INTERACTION
219: 0x0AA8 [0x52] END_LOAD_SCHEDULER: End scheduler "ko01" with entities [LocalPlayer, LocalPlayer], work=341*
220: 0x0AB7 [0x45] LOAD_SCHEDULED_TASK: Load scheduler "ko06" with entities [LocalPlayer, LocalPlayer], work=[341*, 0*]
221: 0x0AC8 [0x03] Work_Zone[2] = 1019*
222: 0x0ACD [0x1D] PRINT_EVENT_MESSAGE(message_id=7565*)
    → "Was the seasoning you brought $0?"
223: 0x0AD0 [0x23] WAIT_FOR_DIALOG_INTERACTION
224: 0x0AD1 [0x29] REQ_SET_WAIT(priority=0x0F, entity_id=LocalPlayer, tag_num=0x11)
225: 0x0AD8 [0x1A] CALL_SUBROUTINE(address=0x0DF4)
226: 0x0ADB [0x52] END_LOAD_SCHEDULER: End scheduler "ko06" with entities [LocalPlayer, LocalPlayer], work=341*
227: 0x0AEA [0x45] LOAD_SCHEDULED_TASK: Load scheduler "ko02" with entities [LocalPlayer, LocalPlayer], work=[341*, 0*]
228: 0x0AFB [0x6E] Thierride (ID: 17105324/0x010501AC) uses emote 7*
229: 0x0B02 [0x99] Wait for Thierride (ID: 17105324/0x010501AC) animation to complete
230: 0x0B07 [0x03] Work_Zone[2] = 1019*
231: 0x0B0C [0x1D] PRINT_EVENT_MESSAGE(message_id=7569*)
    → "I must find a way to procure a stable supply. Perhaps I can negotiate a delivery deal with the knights..."
232: 0x0B0F [0x23] WAIT_FOR_DIALOG_INTERACTION
233: 0x0B10 [0x99] Wait for Thierride (ID: 17105324/0x010501AC) animation to complete
234: 0x0B15 [0x6E] Thierride (ID: 17105324/0x010501AC) uses emote 6*
235: 0x0B1C [0x99] Wait for Thierride (ID: 17105324/0x010501AC) animation to complete
236: 0x0B21 [0x1D] PRINT_EVENT_MESSAGE(message_id=7570*)
    → "Thank you again. Right now there is naught I can do in return, but I will not soon forget your kindness."
237: 0x0B24 [0x23] WAIT_FOR_DIALOG_INTERACTION
238: 0x0B25 [0x99] Wait for Thierride (ID: 17105324/0x010501AC) animation to complete
239: 0x0B2A [0x45] LOAD_SCHEDULED_TASK: Load scheduler "fdo1" with entities [LocalPlayer, LocalPlayer], work=[200*, 0*]
240: 0x0B3B [0x1C] WAIT(60* ticks)
241: 0x0B3E [0x7B] Thierride (ID: 17105324/0x010501AC) stops talking
242: 0x0B43 [0x52] END_LOAD_SCHEDULER: End scheduler "ko02" with entities [LocalPlayer, LocalPlayer], work=341*
243: 0x0B52 [0x46] CAMERA_CONTROL: Restore default settings
244: 0x0B54 [0x45] LOAD_SCHEDULED_TASK: Load scheduler "fdi1" with entities [LocalPlayer, LocalPlayer], work=[200*, 0*]
245: 0x0B65 [0x20] SET_CLI_EVENT_UC_FLAG: Unlock player control
246: 0x0B67 [0x21] END_EVENT
247: 0x0B68 [0x00] END_REQSTACK()
```

### Event 341

#### Metadata

| Field        | Value    |
|--------------|----------|
| Entrypoint   | 0x0B69   |
| Data Size    | 15 bytes |
| Instructions | 7        |

```
      00 01 02 03 04 05 06 07  08 09 0A 0B 0C 0D 0E 0F
      -- -- -- -- -- -- -- --  -- -- -- -- -- -- -- --
0B60:                             20 01 1E F0 FF FF 7F            ......
0B70: 1D 44 80 23 20 00 21 00                           .D.# .!.        
```

#### Opcodes

```
  0: 0x0B69 [0x20] SET_CLI_EVENT_UC_FLAG: Lock player control
  1: 0x0B6B [0x1E] EventEntity looks at LocalPlayer and starts talking
  2: 0x0B70 [0x1D] PRINT_EVENT_MESSAGE(message_id=7570*)
    → "Thank you again. Right now there is naught I can do in return, but I will not soon forget your kindness."
  3: 0x0B73 [0x23] WAIT_FOR_DIALOG_INTERACTION
  4: 0x0B74 [0x20] SET_CLI_EVENT_UC_FLAG: Unlock player control
  5: 0x0B76 [0x21] END_EVENT
  6: 0x0B77 [0x00] END_REQSTACK()
```

### Event 342

#### Metadata

| Field        | Value     |
|--------------|-----------|
| Entrypoint   | 0x0B78    |
| Data Size    | 534 bytes |
| Instructions | 80        |

```
      00 01 02 03 04 05 06 07  08 09 0A 0B 0C 0D 0E 0F
      -- -- -- -- -- -- -- --  -- -- -- -- -- -- -- --
0B70:                          42 20 01 46 01 45 01 80          B .F.E..
0B80: F0 FF FF 7F F0 FF FF 7F  66 64 6F 31 02 80 1C 03  ........fdo1....
0B90: 80 38 04 80 45 05 80 F0  FF FF 7F F0 FF FF 7F 6B  .8..E..........k
0BA0: 6F 30 31 02 80 4E 00 F8  FF FF 7F 92 01 AC 01 05  o01..N..........
0BB0: 01 29 0F F0 FF FF 7F 07  29 0F AF 01 05 01 02 80  .)......).......
0BC0: F0 FF FF 7F 80 AC 01 05  01 80 AF 01 05 01 1E F0  ................
0BD0: FF FF 7F 79 00 F0 FF FF  7F AC 01 05 01 45 01 80  ...y.........E..
0BE0: F0 FF FF 7F F0 FF FF 7F  66 64 69 31 02 80 1C 03  ........fdi1....
0BF0: 80 1D 45 80 23 52 05 80  F0 FF FF 7F F0 FF FF 7F  ..E.#R..........
0C00: 6B 6F 30 31 45 05 80 F0  FF FF 7F F0 FF FF 7F 6B  ko01E..........k
0C10: 6F 30 32 02 80 03 02 10  41 80 1D 46 80 23 6E AC  o02.....A..F.#n.
0C20: 01 05 01 0C 80 99 AC 01  05 01 1D 47 80 23 99 AC  ...........G.#..
0C30: 01 05 01 52 05 80 F0 FF  FF 7F F0 FF FF 7F 6B 6F  ...R..........ko
0C40: 30 32 45 05 80 F0 FF FF  7F F0 FF FF 7F 6B 6F 30  02E..........ko0
0C50: 36 02 80 6E AC 01 05 01  0A 80 99 AC 01 05 01 1D  6..n............
0C60: 48 80 23 99 AC 01 05 01  4B AC 01 05 01 49 80 6F  H.#.....K....I.o
0C70: 76 AC 01 05 01 1D 4A 80  23 79 00 AC 01 05 01 AF  v.....J.#y......
0C80: 01 05 01 1C 4B 80 52 05  80 F0 FF FF 7F F0 FF FF  ....K.R.........
0C90: 7F 6B 6F 30 36 45 01 80  F0 FF FF 7F F0 FF FF 7F  .ko06E..........
0CA0: 6F 76 6C 31 02 80 45 05  80 F0 FF FF 7F F0 FF FF  ovl1..E.........
0CB0: 7F 6B 6F 31 34 02 80 1D  4C 80 23 03 02 10 4D 80  .ko14...L.#...M.
0CC0: 55 05 80 F0 FF FF 7F F0  FF FF 7F 6B 6F 31 34 1C  U..........ko14.
0CD0: 3D 80 7B AC 01 05 01 45  05 80 F0 FF FF 7F F0 FF  =.{....E........
0CE0: FF 7F 6B 6F 30 32 02 80  1E F0 FF FF 7F 6F 70 1D  ..ko02.......op.
0CF0: 4E 80 23 66 4F 80 F8 FF  FF 7F F8 FF FF 7F 70 61  N.#fO.........pa
0D00: 73 30 1C 19 80 52 05 80  F0 FF FF 7F F0 FF FF 7F  s0...R..........
0D10: 6B 6F 30 32 45 05 80 F0  FF FF 7F F0 FF FF 7F 6B  ko02E..........k
0D20: 6F 31 35 02 80 1C 19 80  1D 50 80 23 1C 19 80 6E  o15......P.#...n
0D30: AC 01 05 01 51 80 99 AC  01 05 01 99 AC 01 05 01  ....Q...........
0D40: 1C 52 80 45 01 80 F0 FF  FF 7F F0 FF FF 7F 66 64  .R.E..........fd
0D50: 6F 31 02 80 1C 03 80 52  05 80 F0 FF FF 7F F0 FF  o1.....R........
0D60: FF 7F 6B 6F 31 35 46 00  45 01 80 F0 FF FF 7F F0  ..ko15F.E.......
0D70: FF FF 7F 66 64 69 31 02  80 20 00 45 2F 80 F8 FF  ...fdi1.. .E/...
0D80: FF 7F F8 FF FF 7F 71 73  74 63 02 80 21 00        ......qstc..!.  
```

#### Opcodes

```
  0: 0x0B78 [0x42] SET_CLI_EVENT_CANCEL_DATA()
  1: 0x0B79 [0x20] SET_CLI_EVENT_UC_FLAG: Lock player control
  2: 0x0B7B [0x46] CAMERA_CONTROL: Disable user control
  3: 0x0B7D [0x45] LOAD_SCHEDULED_TASK: Load scheduler "fdo1" with entities [LocalPlayer, LocalPlayer], work=[200*, 0*]
  4: 0x0B8E [0x1C] WAIT(60* ticks)
  5: 0x0B91 [0x38] SET_CLIENT_EVENT_MODE(mode=19*)
  6: 0x0B94 [0x45] LOAD_SCHEDULED_TASK: Load scheduler "ko01" with entities [LocalPlayer, LocalPlayer], work=[341*, 0*]
  7: 0x0BA5 [0x4E] SET_ENTITY_HIDE_FLAG: Show EventEntity
  8: 0x0BAB [0x92] Thierride (ID: 17105324/0x010501AC)->Render.Flags3 ^= 0x01
  9: 0x0BB1 [0x29] REQ_SET_WAIT(priority=0x0F, entity_id=LocalPlayer, tag_num=0x07)
 10: 0x0BB8 [0x29] REQ_SET_WAIT(priority=0x0F, entity_id=Unnamed NPC (ID: 17105327/0x010501AF), tag_num=0x02)
 11: 0x0BBF [0x80] LOAD_WAIT(entity=LocalPlayer)
 12: 0x0BC4 [0x80] LOAD_WAIT(entity=Thierride (ID: 17105324/0x010501AC))
 13: 0x0BC9 [0x80] LOAD_WAIT(entity=Unnamed NPC (ID: 17105327/0x010501AF))
 14: 0x0BCE [0x1E] EventEntity looks at LocalPlayer and starts talking
 15: 0x0BD3 [0x79] LocalPlayer looks at Thierride (ID: 17105324/0x010501AC) (Basic look)
 16: 0x0BDD [0x45] LOAD_SCHEDULED_TASK: Load scheduler "fdi1" with entities [LocalPlayer, LocalPlayer], work=[200*, 0*]
 17: 0x0BEE [0x1C] WAIT(60* ticks)
 18: 0x0BF1 [0x1D] PRINT_EVENT_MESSAGE(message_id=7571*)
    → "Ah, superb timing!"
 19: 0x0BF4 [0x23] WAIT_FOR_DIALOG_INTERACTION
 20: 0x0BF5 [0x52] END_LOAD_SCHEDULER: End scheduler "ko01" with entities [LocalPlayer, LocalPlayer], work=341*
 21: 0x0C04 [0x45] LOAD_SCHEDULED_TASK: Load scheduler "ko02" with entities [LocalPlayer, LocalPlayer], work=[341*, 0*]
 22: 0x0C15 [0x03] Work_Zone[2] = 1019*
 23: 0x0C1A [0x1D] PRINT_EVENT_MESSAGE(message_id=7572*)
    → "Since that day, I was able to make arrangements through my knight friend."
 24: 0x0C1D [0x23] WAIT_FOR_DIALOG_INTERACTION
 25: 0x0C1E [0x6E] Thierride (ID: 17105324/0x010501AC) uses emote 36*
 26: 0x0C25 [0x99] Wait for Thierride (ID: 17105324/0x010501AC) animation to complete
 27: 0x0C2A [0x1D] PRINT_EVENT_MESSAGE(message_id=7573*)
    → "The knights have agreed to deliver $0 to me--on the condition that I make the bean dish for their rations! This will surely keep me busy for a while."
 28: 0x0C2D [0x23] WAIT_FOR_DIALOG_INTERACTION
 29: 0x0C2E [0x99] Wait for Thierride (ID: 17105324/0x010501AC) animation to complete
 30: 0x0C33 [0x52] END_LOAD_SCHEDULER: End scheduler "ko02" with entities [LocalPlayer, LocalPlayer], work=341*
 31: 0x0C42 [0x45] LOAD_SCHEDULED_TASK: Load scheduler "ko06" with entities [LocalPlayer, LocalPlayer], work=[341*, 0*]
 32: 0x0C53 [0x6E] Thierride (ID: 17105324/0x010501AC) uses emote 22*
 33: 0x0C5A [0x99] Wait for Thierride (ID: 17105324/0x010501AC) animation to complete
 34: 0x0C5F [0x1D] PRINT_EVENT_MESSAGE(message_id=7574*)
    → "Though my plans for the diner have been postponed, I appreciate this opportunity to contribute in my own small way to the war effort. Heheh..."
 35: 0x0C62 [0x23] WAIT_FOR_DIALOG_INTERACTION
 36: 0x0C63 [0x99] Wait for Thierride (ID: 17105324/0x010501AC) animation to complete
 37: 0x0C68 [0x4B] UPDATE_ENTITY_YAW(entity=Thierride (ID: 17105324/0x010501AC), yaw=12.1°*)
 38: 0x0C6F [0x6F] WAIT_FRAME_DELAY: Yield until WaitTime reaches zero
 39: 0x0C70 [0x76] CHECK_ENTITY_RENDER_FLAGS: Wait until Thierride (ID: 17105324/0x010501AC) Render.Flags0 and Render.Flags3 conditions are met
 40: 0x0C75 [0x1D] PRINT_EVENT_MESSAGE(message_id=7575*)
    → "The sooner the war ends, the sooner I can return to sea and resume working as a fisherman."
 41: 0x0C78 [0x23] WAIT_FOR_DIALOG_INTERACTION
 42: 0x0C79 [0x79] Thierride (ID: 17105324/0x010501AC) looks at Unnamed NPC (ID: 17105327/0x010501AF) (Basic look)
 43: 0x0C83 [0x1C] WAIT(45* ticks)
 44: 0x0C86 [0x52] END_LOAD_SCHEDULER: End scheduler "ko06" with entities [LocalPlayer, LocalPlayer], work=341*
 45: 0x0C95 [0x45] LOAD_SCHEDULED_TASK: Load scheduler "ovl1" with entities [LocalPlayer, LocalPlayer], work=[200*, 0*]
 46: 0x0CA6 [0x45] LOAD_SCHEDULED_TASK: Load scheduler "ko14" with entities [LocalPlayer, LocalPlayer], work=[341*, 0*]
 47: 0x0CB7 [0x1D] PRINT_EVENT_MESSAGE(message_id=7576*)
    → "Until then, I shall leave my anchor lowered right here, in San d'Oria."
 48: 0x0CBA [0x23] WAIT_FOR_DIALOG_INTERACTION
 49: 0x0CBB [0x03] Work_Zone[2] = 5704*
 50: 0x0CC0 [0x55] WAIT_LOAD_SCHEDULER: Wait for scheduler "ko14" with entities [LocalPlayer, LocalPlayer], work=341*
 51: 0x0CCF [0x1C] WAIT(120* ticks)
 52: 0x0CD2 [0x7B] Thierride (ID: 17105324/0x010501AC) stops talking
 53: 0x0CD7 [0x45] LOAD_SCHEDULED_TASK: Load scheduler "ko02" with entities [LocalPlayer, LocalPlayer], work=[341*, 0*]
 54: 0x0CE8 [0x1E] EventEntity looks at LocalPlayer and starts talking
 55: 0x0CED [0x6F] WAIT_FRAME_DELAY: Yield until WaitTime reaches zero
 56: 0x0CEE [0x70] WAIT_ENTITY_RENDER_FLAG: Wait while EventEntity->Render.Flags3 bit 2 is set (cancel turn if not)
 57: 0x0CEF [0x1D] PRINT_EVENT_MESSAGE(message_id=7577*)
    → "I've been wanting you to taste my new specialty, $0. After all, it is to you that this dish owes its existence."
 58: 0x0CF2 [0x23] WAIT_FOR_DIALOG_INTERACTION
 59: 0x0CF3 [0x66] LOAD_EXT_SCHEDULER_MAIN: Load scheduler "pas0" with entities [EventEntity, EventEntity], work=20*
 60: 0x0D02 [0x1C] WAIT(90* ticks)
 61: 0x0D05 [0x52] END_LOAD_SCHEDULER: End scheduler "ko02" with entities [LocalPlayer, LocalPlayer], work=341*
 62: 0x0D14 [0x45] LOAD_SCHEDULED_TASK: Load scheduler "ko15" with entities [LocalPlayer, LocalPlayer], work=[341*, 0*]
 63: 0x0D25 [0x1C] WAIT(90* ticks)
 64: 0x0D28 [0x1D] PRINT_EVENT_MESSAGE(message_id=7578*)
    → "Please drop by anytime. I look forward to seeing you again."
 65: 0x0D2B [0x23] WAIT_FOR_DIALOG_INTERACTION
 66: 0x0D2C [0x1C] WAIT(90* ticks)
 67: 0x0D2F [0x6E] Thierride (ID: 17105324/0x010501AC) uses emote 9*
 68: 0x0D36 [0x99] Wait for Thierride (ID: 17105324/0x010501AC) animation to complete
 69: 0x0D3B [0x99] Wait for Thierride (ID: 17105324/0x010501AC) animation to complete
 70: 0x0D40 [0x1C] WAIT(180* ticks)
 71: 0x0D43 [0x45] LOAD_SCHEDULED_TASK: Load scheduler "fdo1" with entities [LocalPlayer, LocalPlayer], work=[200*, 0*]
 72: 0x0D54 [0x1C] WAIT(60* ticks)
 73: 0x0D57 [0x52] END_LOAD_SCHEDULER: End scheduler "ko15" with entities [LocalPlayer, LocalPlayer], work=341*
 74: 0x0D66 [0x46] CAMERA_CONTROL: Restore default settings
 75: 0x0D68 [0x45] LOAD_SCHEDULED_TASK: Load scheduler "fdi1" with entities [LocalPlayer, LocalPlayer], work=[200*, 0*]
 76: 0x0D79 [0x20] SET_CLI_EVENT_UC_FLAG: Unlock player control
 77: 0x0D7B [0x45] LOAD_SCHEDULED_TASK: Load scheduler "qstc" with entities [EventEntity, EventEntity], work=[201*, 0*]
 78: 0x0D8C [0x21] END_EVENT
 79: 0x0D8D [0x00] END_REQSTACK()
```

### Event 343

#### Metadata

| Field        | Value    |
|--------------|----------|
| Entrypoint   | 0x0D8E   |
| Data Size    | 15 bytes |
| Instructions | 7        |

```
      00 01 02 03 04 05 06 07  08 09 0A 0B 0C 0D 0E 0F
      -- -- -- -- -- -- -- --  -- -- -- -- -- -- -- --
0D80:                                            20 01                 .
0D90: 1E F0 FF FF 7F 1D 53 80  23 20 00 21 00           ......S.# .!.   
```

#### Opcodes

```
  0: 0x0D8E [0x20] SET_CLI_EVENT_UC_FLAG: Lock player control
  1: 0x0D90 [0x1E] EventEntity looks at LocalPlayer and starts talking
  2: 0x0D95 [0x1D] PRINT_EVENT_MESSAGE(message_id=7579*)
    → "Until the war ends, I shall leave my anchor lowered right here, in San d'Oria."
  3: 0x0D98 [0x23] WAIT_FOR_DIALOG_INTERACTION
  4: 0x0D99 [0x20] SET_CLI_EVENT_UC_FLAG: Unlock player control
  5: 0x0D9B [0x21] END_EVENT
  6: 0x0D9C [0x00] END_REQSTACK()
```

### Event 344

#### Metadata

| Field        | Value    |
|--------------|----------|
| Entrypoint   | 0x0D9D   |
| Data Size    | 43 bytes |
| Instructions | 13       |

```
      00 01 02 03 04 05 06 07  08 09 0A 0B 0C 0D 0E 0F
      -- -- -- -- -- -- -- --  -- -- -- -- -- -- -- --
0D90:                                         42 20 01               B .
0DA0: 1E F0 FF FF 7F 1D 45 80  23 03 02 10 4D 80 66 4F  ......E.#...M.fO
0DB0: 80 F8 FF FF 7F F8 FF FF  7F 70 61 73 30 1D 54 80  .........pas0.T.
0DC0: 23 1C 3D 80 20 00 21 00                           #.=. .!.        
```

#### Opcodes

```
  0: 0x0D9D [0x42] SET_CLI_EVENT_CANCEL_DATA()
  1: 0x0D9E [0x20] SET_CLI_EVENT_UC_FLAG: Lock player control
  2: 0x0DA0 [0x1E] EventEntity looks at LocalPlayer and starts talking
  3: 0x0DA5 [0x1D] PRINT_EVENT_MESSAGE(message_id=7571*)
    → "Ah, superb timing!"
  4: 0x0DA8 [0x23] WAIT_FOR_DIALOG_INTERACTION
  5: 0x0DA9 [0x03] Work_Zone[2] = 5704*
  6: 0x0DAE [0x66] LOAD_EXT_SCHEDULER_MAIN: Load scheduler "pas0" with entities [EventEntity, EventEntity], work=20*
  7: 0x0DBD [0x1D] PRINT_EVENT_MESSAGE(message_id=7580*)
    → "I have just now finished cooking another batch of $0. This is for you, fresh from the fire! These are hard times, but there is nothing a little effort won't see us through."
  8: 0x0DC0 [0x23] WAIT_FOR_DIALOG_INTERACTION
  9: 0x0DC1 [0x1C] WAIT(120* ticks)
 10: 0x0DC4 [0x20] SET_CLI_EVENT_UC_FLAG: Unlock player control
 11: 0x0DC6 [0x21] END_EVENT
 12: 0x0DC7 [0x00] END_REQSTACK()
```

### Event 345

#### Metadata

| Field        | Value     |
|--------------|-----------|
| Entrypoint   | 0x0DC8    |
| Data Size    | 140 bytes |
| Instructions | 14        |

```
      00 01 02 03 04 05 06 07  08 09 0A 0B 0C 0D 0E 0F
      -- -- -- -- -- -- -- --  -- -- -- -- -- -- -- --
0DC0:                          20 01 1E F0 FF FF 7F 1D           .......
0DD0: 45 80 23 03 02 10 4D 80  6E AC 01 05 01 4F 80 99  E.#...M.n....O..
0DE0: AC 01 05 01 1D 55 80 23  99 AC 01 05 01 1C 19 80  .....U.#........
0DF0: 20 00 21 00 24 56 80 02  80 02 80 25 02 00 10 02   .!.$V.....%....
0E00: 80 00 26 0E 29 0F F0 FF  FF 7F 0B 1C 2B 80 6E AC  ..&.).......+.n.
0E10: 01 05 01 1C 80 99 AC 01  05 01 1D 57 80 23 99 AC  ...........W.#..
0E20: 01 05 01 01 53 0E 02 00  10 13 80 00 53 0E 29 0F  ....S.......S.).
0E30: F0 FF FF 7F 0C 1C 2B 80  6E AC 01 05 01 0E 80 99  ......+.n.......
0E40: AC 01 05 01 1D 58 80 23  99 AC 01 05 01 01 F4 0D  .....X.#........
0E50: 01 53 0E 1B                                       .S..            
```

#### Opcodes

```
  0: 0x0DC8 [0x20] SET_CLI_EVENT_UC_FLAG: Lock player control
  1: 0x0DCA [0x1E] EventEntity looks at LocalPlayer and starts talking
  2: 0x0DCF [0x1D] PRINT_EVENT_MESSAGE(message_id=7571*)
    → "Ah, superb timing!"
  3: 0x0DD2 [0x23] WAIT_FOR_DIALOG_INTERACTION
  4: 0x0DD3 [0x03] Work_Zone[2] = 5704*
  5: 0x0DD8 [0x6E] Thierride (ID: 17105324/0x010501AC) uses emote 20*
  6: 0x0DDF [0x99] Wait for Thierride (ID: 17105324/0x010501AC) animation to complete
  7: 0x0DE4 [0x1D] PRINT_EVENT_MESSAGE(message_id=7581*)
    → "Oh, it appears I was mistaken... The $0 still needs to simmer for a while yet, so please drop by again later."
  8: 0x0DE7 [0x23] WAIT_FOR_DIALOG_INTERACTION
  9: 0x0DE8 [0x99] Wait for Thierride (ID: 17105324/0x010501AC) animation to complete
 10: 0x0DED [0x1C] WAIT(90* ticks)
 11: 0x0DF0 [0x20] SET_CLI_EVENT_UC_FLAG: Unlock player control
 12: 0x0DF2 [0x21] END_EVENT
 13: 0x0DF3 [0x00] END_REQSTACK()
```

#### Data or dead code:

```
# Dead code (unreachable instructions):
     0x0DF4 [0x24] CREATE_DIALOG(message_id=7566*, default_option=0*, option_flags=0*)
    → "Well, was it? [Good guess!/Wrong.]"
     0x0DFB [0x25] WAIT_DIALOG_SELECT()
     0x0DFC [0x02] IF !(Work_Zone[0] == 0*) GOTO 0x0E26
     0x0E04 [0x29] REQ_SET_WAIT(priority=0x0F, entity_id=LocalPlayer, tag_num=0x0B)
     0x0E0B [0x1C] WAIT(30* ticks)
     0x0E0E [0x6E] Thierride (ID: 17105324/0x010501AC) uses emote 11*
     0x0E15 [0x99] Wait for Thierride (ID: 17105324/0x010501AC) animation to complete
     0x0E1A [0x1D] PRINT_EVENT_MESSAGE(message_id=7567*)
    → "I knew it! It seems my fisherman's instincts are still alive and well."
     0x0E1D [0x23] WAIT_FOR_DIALOG_INTERACTION
     0x0E1E [0x99] Wait for Thierride (ID: 17105324/0x010501AC) animation to complete
     0x0E23 [0x01] GOTO 0x0E53
     0x0E26 [0x02] IF !(Work_Zone[0] == 1*) GOTO 0x0E53
     0x0E2E [0x29] REQ_SET_WAIT(priority=0x0F, entity_id=LocalPlayer, tag_num=0x0C)
     0x0E35 [0x1C] WAIT(30* ticks)
     0x0E38 [0x6E] Thierride (ID: 17105324/0x010501AC) uses emote 6*
     0x0E3F [0x99] Wait for Thierride (ID: 17105324/0x010501AC) animation to complete
     0x0E44 [0x1D] PRINT_EVENT_MESSAGE(message_id=7568*)
    → "No, I am certain of it. Only with Lufet salt could one aspire to achieve such a distinct flavor."
     0x0E47 [0x23] WAIT_FOR_DIALOG_INTERACTION
     0x0E48 [0x99] Wait for Thierride (ID: 17105324/0x010501AC) animation to complete
     0x0E4D [0x01] GOTO 0x0DF4
     0x0E50 [0x01] GOTO 0x0E53
     0x0E53 [0x1B] RETURN
```

### Event 65535.1

#### Metadata

| Field        | Value    |
|--------------|----------|
| Entrypoint   | 0x0E54   |
| Data Size    | 10 bytes |
| Instructions | 2        |

```
      00 01 02 03 04 05 06 07  08 09 0A 0B 0C 0D 0E 0F
      -- -- -- -- -- -- -- --  -- -- -- -- -- -- -- --
0E50:             37 59 80 5A  80 5B 80 38 80 00            7Y.Z.[.8..  
```

#### Opcodes

```
  0: 0x0E54 [0x37] UPDATE_EVENT_POSITION_AND_DIR: x=-214.286*, z=63.975*, y=-2.949*, direction=171.6°*
  1: 0x0E5D [0x00] END_REQSTACK()
```

### Event 65535.2

#### Metadata

| Field        | Value    |
|--------------|----------|
| Entrypoint   | 0x0E5E   |
| Data Size    | 21 bytes |
| Instructions | 5        |

```
      00 01 02 03 04 05 06 07  08 09 0A 0B 0C 0D 0E 0F
      -- -- -- -- -- -- -- --  -- -- -- -- -- -- -- --
0E50:                                            4B AC                K.
0E60: 01 05 01 5C 80 32 5D 80  1F 00 5E 80 5F 80 60 80  ...\.2]...^._.`.
0E70: 1F 01 00                                          ...             
```

#### Opcodes

```
  0: 0x0E5E [0x4B] UPDATE_ENTITY_YAW(entity=Thierride (ID: 17105324/0x010501AC), yaw=5.7°*)
  1: 0x0E65 [0x32] ExtData[1]->MainSpeed = 13* * 0.1
  2: 0x0E68 [0x1F] MOVE_ENTITY: EventEntity moves to X=-124.049*, Z=11.109*, Y=-2.999*
  3: 0x0E70 [0x1F] MOVE_ENTITY: Update entity position (mode=1)
  4: 0x0E72 [0x00] END_REQSTACK()
```

### Event 65535.3

#### Metadata

| Field        | Value    |
|--------------|----------|
| Entrypoint   | 0x0E73   |
| Data Size    | 10 bytes |
| Instructions | 2        |

```
      00 01 02 03 04 05 06 07  08 09 0A 0B 0C 0D 0E 0F
      -- -- -- -- -- -- -- --  -- -- -- -- -- -- -- --
0E70:          37 5E 80 5F 80  60 80 61 80 00              7^._.`.a..   
```

#### Opcodes

```
  0: 0x0E73 [0x37] UPDATE_EVENT_POSITION_AND_DIR: x=-124.049*, z=11.109*, y=-2.999*, direction=265.8°*
  1: 0x0E7C [0x00] END_REQSTACK()
```

### Event 65535.4

#### Metadata

| Field        | Value    |
|--------------|----------|
| Entrypoint   | 0x0E7D   |
| Data Size    | 14 bytes |
| Instructions | 4        |

```
      00 01 02 03 04 05 06 07  08 09 0A 0B 0C 0D 0E 0F
      -- -- -- -- -- -- -- --  -- -- -- -- -- -- -- --
0E70:                                         32 5D 80               2].
0E80: 1F 00 62 80 63 80 64 80  1F 01 00                 ..b.c.d....     
```

#### Opcodes

```
  0: 0x0E7D [0x32] ExtData[1]->MainSpeed = 13* * 0.1
  1: 0x0E80 [0x1F] MOVE_ENTITY: EventEntity moves to X=-124.538*, Z=14.598*, Y=-2.000*
  2: 0x0E88 [0x1F] MOVE_ENTITY: Update entity position (mode=1)
  3: 0x0E8A [0x00] END_REQSTACK()
```
