# 17105415 - Rholont

## Common Data

| Field            | Value                            |
|------------------|----------------------------------|
| Zone             | Southern San d'Oria [S] (ID: 80) |
| Block Size       | 3612 bytes                       |
| Total Events     | 149                              |
| References Count | 69                               |

## List of Events

| Event ID                     | Entrypoint   |   Size |   Instructions |
|------------------------------|--------------|--------|----------------|
| [65535](#event-65535)        | 0x0000       |      1 |              1 |
| [32](#event-32)              | 0x0001       |     26 |              6 |
| [23](#event-23)              | 0x001B       |      1 |              1 |
| [24](#event-24)              | 0x001C       |      1 |              1 |
| [47](#event-47)              | 0x001D       |      1 |              1 |
| [65535.1](#event-655351)     | 0x001E       |     15 |              5 |
| [65535.2](#event-655352)     | 0x002D       |     24 |              6 |
| [65535.3](#event-655353)     | 0x0045       |     15 |              5 |
| [33](#event-33)              | 0x0054       |      1 |              1 |
| [34](#event-34)              | 0x0055       |      1 |              1 |
| [35](#event-35)              | 0x0056       |      1 |              1 |
| [625](#event-625)            | 0x0057       |      1 |              1 |
| [36](#event-36)              | 0x0058       |      1 |              1 |
| [46](#event-46)              | 0x0059       |      1 |              1 |
| [48](#event-48)              | 0x005A       |      1 |              1 |
| [49](#event-49)              | 0x005B       |      1 |              1 |
| [56](#event-56)              | 0x005C       |      1 |              1 |
| [59](#event-59)              | 0x005D       |      1 |              1 |
| [60](#event-60)              | 0x005E       |      1 |              1 |
| [57](#event-57)              | 0x005F       |     71 |             13 |
| [61](#event-61)              | 0x00A6       |     55 |             11 |
| [629](#event-629)            | 0x00DD       |      1 |              1 |
| [630](#event-630)            | 0x00DE       |      1 |              1 |
| [631](#event-631)            | 0x00DF       |      1 |              1 |
| [632](#event-632)            | 0x00E0       |      1 |              1 |
| [633](#event-633)            | 0x00E1       |      1 |              1 |
| [634](#event-634)            | 0x00E2       |      1 |              1 |
| [635](#event-635)            | 0x00E3       |      1 |              1 |
| [636](#event-636)            | 0x00E4       |      1 |              1 |
| [637](#event-637)            | 0x00E5       |      1 |              1 |
| [84](#event-84)              | 0x00E6       |     55 |             11 |
| [65535.4](#event-655354)     | 0x011D       |     35 |              9 |
| [65535.5](#event-655355)     | 0x0140       |     35 |              9 |
| [81](#event-81)              | 0x0163       |      1 |              1 |
| [82](#event-82)              | 0x0164       |      1 |              1 |
| [638](#event-638)            | 0x0165       |      1 |              1 |
| [642](#event-642)            | 0x0166       |      1 |              1 |
| [649](#event-649)            | 0x0167       |      1 |              1 |
| [643](#event-643)            | 0x0168       |    114 |             23 |
| [645](#event-645)            | 0x01DA       |     66 |             12 |
| [647](#event-647)            | 0x021C       |     61 |             11 |
| [648](#event-648)            | 0x0259       |     53 |              9 |
| [651](#event-651)            | 0x028E       |     55 |              9 |
| [653](#event-653)            | 0x02C5       |     83 |             16 |
| [65535.6](#event-655356)     | 0x0318       |     34 |              4 |
| [113](#event-113)            | 0x033A       |      1 |              1 |
| [655](#event-655)            | 0x033B       |     63 |             11 |
| [656](#event-656)            | 0x037A       |     55 |              9 |
| [167](#event-167)            | 0x03B1       |     55 |              9 |
| [65535.7](#event-655357)     | 0x03E8       |     16 |              2 |
| [65535.8](#event-655358)     | 0x03F8       |     14 |              2 |
| [65535.9](#event-655359)     | 0x0406       |     16 |              2 |
| [65535.10](#event-6553510)   | 0x0416       |     14 |              2 |
| [65535.11](#event-6553511)   | 0x0424       |     16 |              2 |
| [65535.12](#event-6553512)   | 0x0434       |     14 |              2 |
| [65535.13](#event-6553513)   | 0x0442       |     16 |              2 |
| [65535.14](#event-6553514)   | 0x0452       |     14 |              2 |
| [65535.15](#event-6553515)   | 0x0460       |     16 |              2 |
| [65535.16](#event-6553516)   | 0x0470       |     14 |              2 |
| [65535.17](#event-6553517)   | 0x047E       |     16 |              2 |
| [65535.18](#event-6553518)   | 0x048E       |     14 |              2 |
| [65535.19](#event-6553519)   | 0x049C       |     22 |              3 |
| [65535.20](#event-6553520)   | 0x04B2       |     14 |              2 |
| [65535.21](#event-6553521)   | 0x04C0       |     22 |              3 |
| [65535.22](#event-6553522)   | 0x04D6       |     14 |              2 |
| [65535.23](#event-6553523)   | 0x04E4       |     22 |              3 |
| [65535.24](#event-6553524)   | 0x04FA       |     14 |              2 |
| [65535.25](#event-6553525)   | 0x0508       |     22 |              3 |
| [65535.26](#event-6553526)   | 0x051E       |     14 |              2 |
| [65535.27](#event-6553527)   | 0x052C       |     28 |              4 |
| [65535.28](#event-6553528)   | 0x0548       |     26 |              4 |
| [65535.29](#event-6553529)   | 0x0562       |     16 |              2 |
| [65535.30](#event-6553530)   | 0x0572       |     14 |              2 |
| [65535.31](#event-6553531)   | 0x0580       |     22 |              3 |
| [65535.32](#event-6553532)   | 0x0596       |     14 |              2 |
| [65535.33](#event-6553533)   | 0x05A4       |     28 |              4 |
| [65535.34](#event-6553534)   | 0x05C0       |     26 |              4 |
| [65535.35](#event-6553535)   | 0x05DA       |     16 |              2 |
| [65535.36](#event-6553536)   | 0x05EA       |     14 |              2 |
| [65535.37](#event-6553537)   | 0x05F8       |     16 |              2 |
| [65535.38](#event-6553538)   | 0x0608       |     14 |              2 |
| [65535.39](#event-6553539)   | 0x0616       |     16 |              2 |
| [65535.40](#event-6553540)   | 0x0626       |     14 |              2 |
| [65535.41](#event-6553541)   | 0x0634       |     16 |              2 |
| [65535.42](#event-6553542)   | 0x0644       |     14 |              2 |
| [65535.43](#event-6553543)   | 0x0652       |     28 |              4 |
| [65535.44](#event-6553544)   | 0x066E       |     14 |              2 |
| [65535.45](#event-6553545)   | 0x067C       |     16 |              2 |
| [65535.46](#event-6553546)   | 0x068C       |     26 |              4 |
| [65535.47](#event-6553547)   | 0x06A6       |     16 |              2 |
| [65535.48](#event-6553548)   | 0x06B6       |     14 |              2 |
| [65535.49](#event-6553549)   | 0x06C4       |     16 |              2 |
| [65535.50](#event-6553550)   | 0x06D4       |     14 |              2 |
| [65535.51](#event-6553551)   | 0x06E2       |     16 |              2 |
| [65535.52](#event-6553552)   | 0x06F2       |     14 |              2 |
| [65535.53](#event-6553553)   | 0x0700       |     16 |              2 |
| [65535.54](#event-6553554)   | 0x0710       |     14 |              2 |
| [65535.55](#event-6553555)   | 0x071E       |     16 |              2 |
| [65535.56](#event-6553556)   | 0x072E       |     14 |              2 |
| [65535.57](#event-6553557)   | 0x073C       |     16 |              2 |
| [65535.58](#event-6553558)   | 0x074C       |     14 |              2 |
| [65535.59](#event-6553559)   | 0x075A       |     16 |              2 |
| [65535.60](#event-6553560)   | 0x076A       |     14 |              2 |
| [65535.61](#event-6553561)   | 0x0778       |     16 |              2 |
| [65535.62](#event-6553562)   | 0x0788       |     14 |              2 |
| [65535.63](#event-6553563)   | 0x0796       |     16 |              2 |
| [65535.64](#event-6553564)   | 0x07A6       |     14 |              2 |
| [65535.65](#event-6553565)   | 0x07B4       |     28 |              4 |
| [65535.66](#event-6553566)   | 0x07D0       |     26 |              4 |
| [65535.67](#event-6553567)   | 0x07EA       |     16 |              2 |
| [65535.68](#event-6553568)   | 0x07FA       |     14 |              2 |
| [65535.69](#event-6553569)   | 0x0808       |     16 |              2 |
| [65535.70](#event-6553570)   | 0x0818       |     14 |              2 |
| [65535.71](#event-6553571)   | 0x0826       |     28 |              4 |
| [65535.72](#event-6553572)   | 0x0842       |     14 |              2 |
| [65535.73](#event-6553573)   | 0x0850       |     16 |              2 |
| [65535.74](#event-6553574)   | 0x0860       |     26 |              4 |
| [65535.75](#event-6553575)   | 0x087A       |     16 |              2 |
| [65535.76](#event-6553576)   | 0x088A       |     14 |              2 |
| [65535.77](#event-6553577)   | 0x0898       |     16 |              2 |
| [65535.78](#event-6553578)   | 0x08A8       |     14 |              2 |
| [65535.79](#event-6553579)   | 0x08B6       |     22 |              3 |
| [65535.80](#event-6553580)   | 0x08CC       |     14 |              2 |
| [65535.81](#event-6553581)   | 0x08DA       |     22 |              3 |
| [65535.82](#event-6553582)   | 0x08F0       |     14 |              2 |
| [65535.83](#event-6553583)   | 0x08FE       |     16 |              2 |
| [65535.84](#event-6553584)   | 0x090E       |     14 |              2 |
| [65535.85](#event-6553585)   | 0x091C       |     16 |              2 |
| [65535.86](#event-6553586)   | 0x092C       |     14 |              2 |
| [65535.87](#event-6553587)   | 0x093A       |     16 |              2 |
| [65535.88](#event-6553588)   | 0x094A       |     14 |              2 |
| [65535.89](#event-6553589)   | 0x0958       |     16 |              2 |
| [65535.90](#event-6553590)   | 0x0968       |     14 |              2 |
| [65535.91](#event-6553591)   | 0x0976       |     16 |              2 |
| [65535.92](#event-6553592)   | 0x0986       |     14 |              2 |
| [65535.93](#event-6553593)   | 0x0994       |     16 |              2 |
| [65535.94](#event-6553594)   | 0x09A4       |     14 |              2 |
| [65535.95](#event-6553595)   | 0x09B2       |     16 |              2 |
| [65535.96](#event-6553596)   | 0x09C2       |     14 |              2 |
| [65535.97](#event-6553597)   | 0x09D0       |     16 |              2 |
| [65535.98](#event-6553598)   | 0x09E0       |     14 |              2 |
| [65535.99](#event-6553599)   | 0x09EE       |     16 |              2 |
| [65535.100](#event-65535100) | 0x09FE       |     14 |              2 |
| [673](#event-673)            | 0x0A0C       |     56 |             10 |
| [674](#event-674)            | 0x0A44       |     51 |              9 |
| [675](#event-675)            | 0x0A77       |      1 |              1 |
| [65535.101](#event-65535101) | 0x0A78       |     10 |              2 |
| [65535.102](#event-65535102) | 0x0A82       |     14 |              4 |
| [65535.103](#event-65535103) | 0x0A90       |     19 |              4 |

## DAT References (imed_data)

|   Index | Hex Value   |   Dec Value |
|---------|-------------|-------------|
|       0 | 0x04F8      |        1272 |
|       1 | 0x2F4F      |       12111 |
|       2 | 0x0028      |          40 |
|       3 | 0xFFFD770E  |  4294801166 |
|       4 | 0xE4EA      |       58602 |
|       5 | 0xFFFFF830  |  4294965296 |
|       6 | 0xFFFD7507  |  4294800647 |
|       7 | 0xF14C      |       61772 |
|       8 | 0xFFFFF831  |  4294965297 |
|       9 | 0x0011      |          17 |
|      10 | 0xFFFD6C44  |  4294798404 |
|      11 | 0xE703      |       59139 |
|      12 | 0x3094      |       12436 |
|      13 | 0x3095      |       12437 |
|      14 | 0x3096      |       12438 |
|      15 | 0x0515      |        1301 |
|      16 | 0x30D3      |       12499 |
|      17 | 0x30D4      |       12500 |
|      18 | 0x3543      |       13635 |
|      19 | 0x3544      |       13636 |
|      20 | 0x000D      |          13 |
|      21 | 0x042E      |        1070 |
|      22 | 0x2FAC      |       12204 |
|      23 | 0x2FAD      |       12205 |
|      24 | 0x042F      |        1071 |
|      25 | 0x2FAE      |       12206 |
|      26 | 0x2FAF      |       12207 |
|      27 | 0x0430      |        1072 |
|      28 | 0x2FB0      |       12208 |
|      29 | 0x2FB1      |       12209 |
|      30 | 0x2FB2      |       12210 |
|      31 | 0x2FC2      |       12226 |
|      32 | 0x0431      |        1073 |
|      33 | 0x2FC3      |       12227 |
|      34 | 0x2FC4      |       12228 |
|      35 | 0x2FC5      |       12229 |
|      36 | 0x2FB8      |       12216 |
|      37 | 0x2FE6      |       12262 |
|      38 | 0x3007      |       12295 |
|      39 | 0x3008      |       12296 |
|      40 | 0x3009      |       12297 |
|      41 | 0x059E      |        1438 |
|      42 | 0x003C      |          60 |
|      43 | 0x3119      |       12569 |
|      44 | 0x311A      |       12570 |
|      45 | 0x304F      |       12367 |
|      46 | 0x3831      |       14385 |
|      47 | 0x04F9      |        1273 |
|      48 | 0x0513      |        1299 |
|      49 | 0x059D      |        1437 |
|      50 | 0x059F      |        1439 |
|      51 | 0x092D      |        2349 |
|      52 | 0x092E      |        2350 |
|      53 | 0x092F      |        2351 |
|      54 | 0x0514      |        1300 |
|      55 | 0x05DE      |        1502 |
|      56 | 0x08D5      |        2261 |
|      57 | 0x05DF      |        1503 |
|      58 | 0x09CE      |        2510 |
|      59 | 0x3D0C      |       15628 |
|      60 | 0x3D0D      |       15629 |
|      61 | 0xFFFD6AB3  |  4294798003 |
|      62 | 0xDEA2      |       56994 |
|      63 | 0x0C1A      |        3098 |
|      64 | 0xFFFD6EF2  |  4294799090 |
|      65 | 0xEFB2      |       61362 |
|      66 | 0x000C      |          12 |
|      67 | 0xFFFD7B72  |  4294802290 |
|      68 | 0xEE73      |       61043 |

## String References

- **12111**: This is the territory of the Young Griffons. Leave if you have no business here! Those are the rules.
- **15628**: Hm? Pray tell, what is that curious $3 you bear?
- **15629**: 'Tis good to see your face, <Player>. We remain ever concerned about Excenmille, and can only pray that he is safe.

## Events

### Event 65535

#### Metadata

| Field        | Value   |
|--------------|---------|
| Entrypoint   | 0x0000  |
| Data Size    | 1 bytes |
| Instructions | 1       |

```
      00 01 02 03 04 05 06 07  08 09 0A 0B 0C 0D 0E 0F
      -- -- -- -- -- -- -- --  -- -- -- -- -- -- -- --
0000: 00                                                .               
```

#### Opcodes

```
  0: 0x0000 [0x00] END_REQSTACK()
```

### Event 32

#### Metadata

| Field        | Value    |
|--------------|----------|
| Entrypoint   | 0x0001   |
| Data Size    | 26 bytes |
| Instructions | 6        |

```
      00 01 02 03 04 05 06 07  08 09 0A 0B 0C 0D 0E 0F
      -- -- -- -- -- -- -- --  -- -- -- -- -- -- -- --
0000:    1E F0 FF FF 7F 5B 00  80 F8 FF FF 7F F8 FF FF   .....[.........
0010: 7F 74 6C 61 30 1D 01 80  23 21 00                 .tla0...#!.     
```

#### Opcodes

```
  0: 0x0001 [0x1E] EventEntity looks at LocalPlayer and starts talking
  1: 0x0006 [0x5B] LOAD_EXT_SCHEDULER: Load scheduler "tla0" with entities [EventEntity, EventEntity], work=1272*
  2: 0x0015 [0x1D] PRINT_EVENT_MESSAGE(message_id=12111*)
    → "This is the territory of the Young Griffons. Leave if you have no business here! Those are the rules."
  3: 0x0018 [0x23] WAIT_FOR_DIALOG_INTERACTION
  4: 0x0019 [0x21] END_EVENT
  5: 0x001A [0x00] END_REQSTACK()
```

### Event 23

#### Metadata

| Field        | Value   |
|--------------|---------|
| Entrypoint   | 0x001B  |
| Data Size    | 1 bytes |
| Instructions | 1       |

```
      00 01 02 03 04 05 06 07  08 09 0A 0B 0C 0D 0E 0F
      -- -- -- -- -- -- -- --  -- -- -- -- -- -- -- --
0010:                                   00                         .    
```

#### Opcodes

```
  0: 0x001B [0x00] END_REQSTACK()
```

### Event 24

#### Metadata

| Field        | Value   |
|--------------|---------|
| Entrypoint   | 0x001C  |
| Data Size    | 1 bytes |
| Instructions | 1       |

```
      00 01 02 03 04 05 06 07  08 09 0A 0B 0C 0D 0E 0F
      -- -- -- -- -- -- -- --  -- -- -- -- -- -- -- --
0010:                                      00                       .   
```

#### Opcodes

```
  0: 0x001C [0x00] END_REQSTACK()
```

### Event 47

#### Metadata

| Field        | Value   |
|--------------|---------|
| Entrypoint   | 0x001D  |
| Data Size    | 1 bytes |
| Instructions | 1       |

```
      00 01 02 03 04 05 06 07  08 09 0A 0B 0C 0D 0E 0F
      -- -- -- -- -- -- -- --  -- -- -- -- -- -- -- --
0010:                                         00                     .  
```

#### Opcodes

```
  0: 0x001D [0x00] END_REQSTACK()
```

### Event 65535.1

#### Metadata

| Field        | Value    |
|--------------|----------|
| Entrypoint   | 0x001E   |
| Data Size    | 15 bytes |
| Instructions | 5        |

```
      00 01 02 03 04 05 06 07  08 09 0A 0B 0C 0D 0E 0F
      -- -- -- -- -- -- -- --  -- -- -- -- -- -- -- --
0010:                                            32 02                2.
0020: 80 1F 00 03 80 04 80 05  80 1F 01 6F 00           ...........o.   
```

#### Opcodes

```
  0: 0x001E [0x32] ExtData[1]->MainSpeed = 40* * 0.1
  1: 0x0021 [0x1F] MOVE_ENTITY: EventEntity moves to X=-166.130*, Z=58.602*, Y=-2.000*
  2: 0x0029 [0x1F] MOVE_ENTITY: Update entity position (mode=1)
  3: 0x002B [0x6F] WAIT_FRAME_DELAY: Yield until WaitTime reaches zero
  4: 0x002C [0x00] END_REQSTACK()
```

### Event 65535.2

#### Metadata

| Field        | Value    |
|--------------|----------|
| Entrypoint   | 0x002D   |
| Data Size    | 24 bytes |
| Instructions | 6        |

```
      00 01 02 03 04 05 06 07  08 09 0A 0B 0C 0D 0E 0F
      -- -- -- -- -- -- -- --  -- -- -- -- -- -- -- --
0020:                                         1F 00 06               ...
0030: 80 07 80 08 80 1F 01 6F  4B 07 02 05 01 09 80 7B  .......oK......{
0040: 07 02 05 01 00                                    .....           
```

#### Opcodes

```
  0: 0x002D [0x1F] MOVE_ENTITY: EventEntity moves to X=-166.649*, Z=61.772*, Y=-1.999*
  1: 0x0035 [0x1F] MOVE_ENTITY: Update entity position (mode=1)
  2: 0x0037 [0x6F] WAIT_FRAME_DELAY: Yield until WaitTime reaches zero
  3: 0x0038 [0x4B] UPDATE_ENTITY_YAW(entity=Rholont (ID: 17105415/0x01050207), yaw=0.1°*)
  4: 0x003F [0x7B] Rholont (ID: 17105415/0x01050207) stops talking
  5: 0x0044 [0x00] END_REQSTACK()
```

### Event 65535.3

#### Metadata

| Field        | Value    |
|--------------|----------|
| Entrypoint   | 0x0045   |
| Data Size    | 15 bytes |
| Instructions | 5        |

```
      00 01 02 03 04 05 06 07  08 09 0A 0B 0C 0D 0E 0F
      -- -- -- -- -- -- -- --  -- -- -- -- -- -- -- --
0040:                32 02 80  1F 00 0A 80 0B 80 05 80       2..........
0050: 1F 01 6F 00                                       ..o.            
```

#### Opcodes

```
  0: 0x0045 [0x32] ExtData[1]->MainSpeed = 40* * 0.1
  1: 0x0048 [0x1F] MOVE_ENTITY: EventEntity moves to X=-168.892*, Z=59.139*, Y=-2.000*
  2: 0x0050 [0x1F] MOVE_ENTITY: Update entity position (mode=1)
  3: 0x0052 [0x6F] WAIT_FRAME_DELAY: Yield until WaitTime reaches zero
  4: 0x0053 [0x00] END_REQSTACK()
```

### Event 33

#### Metadata

| Field        | Value   |
|--------------|---------|
| Entrypoint   | 0x0054  |
| Data Size    | 1 bytes |
| Instructions | 1       |

```
      00 01 02 03 04 05 06 07  08 09 0A 0B 0C 0D 0E 0F
      -- -- -- -- -- -- -- --  -- -- -- -- -- -- -- --
0050:             00                                        .           
```

#### Opcodes

```
  0: 0x0054 [0x00] END_REQSTACK()
```

### Event 34

#### Metadata

| Field        | Value   |
|--------------|---------|
| Entrypoint   | 0x0055  |
| Data Size    | 1 bytes |
| Instructions | 1       |

```
      00 01 02 03 04 05 06 07  08 09 0A 0B 0C 0D 0E 0F
      -- -- -- -- -- -- -- --  -- -- -- -- -- -- -- --
0050:                00                                      .          
```

#### Opcodes

```
  0: 0x0055 [0x00] END_REQSTACK()
```

### Event 35

#### Metadata

| Field        | Value   |
|--------------|---------|
| Entrypoint   | 0x0056  |
| Data Size    | 1 bytes |
| Instructions | 1       |

```
      00 01 02 03 04 05 06 07  08 09 0A 0B 0C 0D 0E 0F
      -- -- -- -- -- -- -- --  -- -- -- -- -- -- -- --
0050:                   00                                    .         
```

#### Opcodes

```
  0: 0x0056 [0x00] END_REQSTACK()
```

### Event 625

#### Metadata

| Field        | Value   |
|--------------|---------|
| Entrypoint   | 0x0057  |
| Data Size    | 1 bytes |
| Instructions | 1       |

```
      00 01 02 03 04 05 06 07  08 09 0A 0B 0C 0D 0E 0F
      -- -- -- -- -- -- -- --  -- -- -- -- -- -- -- --
0050:                      00                                  .        
```

#### Opcodes

```
  0: 0x0057 [0x00] END_REQSTACK()
```

### Event 36

#### Metadata

| Field        | Value   |
|--------------|---------|
| Entrypoint   | 0x0058  |
| Data Size    | 1 bytes |
| Instructions | 1       |

```
      00 01 02 03 04 05 06 07  08 09 0A 0B 0C 0D 0E 0F
      -- -- -- -- -- -- -- --  -- -- -- -- -- -- -- --
0050:                          00                               .       
```

#### Opcodes

```
  0: 0x0058 [0x00] END_REQSTACK()
```

### Event 46

#### Metadata

| Field        | Value   |
|--------------|---------|
| Entrypoint   | 0x0059  |
| Data Size    | 1 bytes |
| Instructions | 1       |

```
      00 01 02 03 04 05 06 07  08 09 0A 0B 0C 0D 0E 0F
      -- -- -- -- -- -- -- --  -- -- -- -- -- -- -- --
0050:                             00                             .      
```

#### Opcodes

```
  0: 0x0059 [0x00] END_REQSTACK()
```

### Event 48

#### Metadata

| Field        | Value   |
|--------------|---------|
| Entrypoint   | 0x005A  |
| Data Size    | 1 bytes |
| Instructions | 1       |

```
      00 01 02 03 04 05 06 07  08 09 0A 0B 0C 0D 0E 0F
      -- -- -- -- -- -- -- --  -- -- -- -- -- -- -- --
0050:                                00                           .     
```

#### Opcodes

```
  0: 0x005A [0x00] END_REQSTACK()
```

### Event 49

#### Metadata

| Field        | Value   |
|--------------|---------|
| Entrypoint   | 0x005B  |
| Data Size    | 1 bytes |
| Instructions | 1       |

```
      00 01 02 03 04 05 06 07  08 09 0A 0B 0C 0D 0E 0F
      -- -- -- -- -- -- -- --  -- -- -- -- -- -- -- --
0050:                                   00                         .    
```

#### Opcodes

```
  0: 0x005B [0x00] END_REQSTACK()
```

### Event 56

#### Metadata

| Field        | Value   |
|--------------|---------|
| Entrypoint   | 0x005C  |
| Data Size    | 1 bytes |
| Instructions | 1       |

```
      00 01 02 03 04 05 06 07  08 09 0A 0B 0C 0D 0E 0F
      -- -- -- -- -- -- -- --  -- -- -- -- -- -- -- --
0050:                                      00                       .   
```

#### Opcodes

```
  0: 0x005C [0x00] END_REQSTACK()
```

### Event 59

#### Metadata

| Field        | Value   |
|--------------|---------|
| Entrypoint   | 0x005D  |
| Data Size    | 1 bytes |
| Instructions | 1       |

```
      00 01 02 03 04 05 06 07  08 09 0A 0B 0C 0D 0E 0F
      -- -- -- -- -- -- -- --  -- -- -- -- -- -- -- --
0050:                                         00                     .  
```

#### Opcodes

```
  0: 0x005D [0x00] END_REQSTACK()
```

### Event 60

#### Metadata

| Field        | Value   |
|--------------|---------|
| Entrypoint   | 0x005E  |
| Data Size    | 1 bytes |
| Instructions | 1       |

```
      00 01 02 03 04 05 06 07  08 09 0A 0B 0C 0D 0E 0F
      -- -- -- -- -- -- -- --  -- -- -- -- -- -- -- --
0050:                                            00                   . 
```

#### Opcodes

```
  0: 0x005E [0x00] END_REQSTACK()
```

### Event 57

#### Metadata

| Field        | Value    |
|--------------|----------|
| Entrypoint   | 0x005F   |
| Data Size    | 71 bytes |
| Instructions | 13       |

```
      00 01 02 03 04 05 06 07  08 09 0A 0B 0C 0D 0E 0F
      -- -- -- -- -- -- -- --  -- -- -- -- -- -- -- --
0050:                                               4A                 J
0060: 07 02 05 01 F0 FF FF 7F  6F 76 07 02 05 01 5B 00  ........ov....[.
0070: 80 07 02 05 01 07 02 05  01 74 6C 61 30 2B 07 02  .........tla0+..
0080: 05 01 0C 80 23 2B 07 02  05 01 0D 80 23 2B 07 02  ....#+......#+..
0090: 05 01 0E 80 23 5B 00 80  07 02 05 01 07 02 05 01  ....#[..........
00A0: 74 6C 61 31 21 00                                 tla1!.          
```

#### Opcodes

```
  0: 0x005F [0x4A] Rholont (ID: 17105415/0x01050207) looks at LocalPlayer
  1: 0x0068 [0x6F] WAIT_FRAME_DELAY: Yield until WaitTime reaches zero
  2: 0x0069 [0x76] CHECK_ENTITY_RENDER_FLAGS: Wait until Rholont (ID: 17105415/0x01050207) Render.Flags0 and Render.Flags3 conditions are met
  3: 0x006E [0x5B] LOAD_EXT_SCHEDULER: Load scheduler "tla0" with entities [Rholont (ID: 17105415/0x01050207), Rholont (ID: 17105415/0x01050207)], work=1272*
  4: 0x007D [0x2B] Rholont (ID: 17105415/0x01050207) [12436*]:
    → "The captain and lieutenant are currently scouting Gigas activity at Vunkerl Inlet."
  5: 0x0084 [0x23] WAIT_FOR_DIALOG_INTERACTION
  6: 0x0085 [0x2B] Rholont (ID: 17105415/0x01050207) [12437*]:
    → "It was near the bridge there that we sighted the grey Gigas during the previous expedition."
  7: 0x008C [0x23] WAIT_FOR_DIALOG_INTERACTION
  8: 0x008D [0x2B] Rholont (ID: 17105415/0x01050207) [12438*]:
    → "I had best return to guard duty... Nothing to report!"
  9: 0x0094 [0x23] WAIT_FOR_DIALOG_INTERACTION
 10: 0x0095 [0x5B] LOAD_EXT_SCHEDULER: Load scheduler "tla1" with entities [Rholont (ID: 17105415/0x01050207), Rholont (ID: 17105415/0x01050207)], work=1272*
 11: 0x00A4 [0x21] END_EVENT
 12: 0x00A5 [0x00] END_REQSTACK()
```

### Event 61

#### Metadata

| Field        | Value    |
|--------------|----------|
| Entrypoint   | 0x00A6   |
| Data Size    | 55 bytes |
| Instructions | 11       |

```
      00 01 02 03 04 05 06 07  08 09 0A 0B 0C 0D 0E 0F
      -- -- -- -- -- -- -- --  -- -- -- -- -- -- -- --
00A0:                   1E F0  FF FF 7F 6F 70 5B 0F 80        .....op[..
00B0: 07 02 05 01 07 02 05 01  6B 65 69 30 2B 07 02 05  ........kei0+...
00C0: 01 10 80 23 2B 07 02 05  01 11 80 23 5B 0F 80 07  ...#+......#[...
00D0: 02 05 01 07 02 05 01 6B  65 69 31 21 00           .......kei1!.   
```

#### Opcodes

```
  0: 0x00A6 [0x1E] EventEntity looks at LocalPlayer and starts talking
  1: 0x00AB [0x6F] WAIT_FRAME_DELAY: Yield until WaitTime reaches zero
  2: 0x00AC [0x70] WAIT_ENTITY_RENDER_FLAG: Wait while EventEntity->Render.Flags3 bit 2 is set (cancel turn if not)
  3: 0x00AD [0x5B] LOAD_EXT_SCHEDULER: Load scheduler "kei0" with entities [Rholont (ID: 17105415/0x01050207), Rholont (ID: 17105415/0x01050207)], work=1301*
  4: 0x00BC [0x2B] Rholont (ID: 17105415/0x01050207) [12499*]:
    → "<Player>! Please return Squire Altennia safely to us!"
  5: 0x00C3 [0x23] WAIT_FOR_DIALOG_INTERACTION
  6: 0x00C4 [0x2B] Rholont (ID: 17105415/0x01050207) [12500*]:
    → "The Orcish encampment should be in the southern region of Jugner Forest, not far from La Vaule."
  7: 0x00CB [0x23] WAIT_FOR_DIALOG_INTERACTION
  8: 0x00CC [0x5B] LOAD_EXT_SCHEDULER: Load scheduler "kei1" with entities [Rholont (ID: 17105415/0x01050207), Rholont (ID: 17105415/0x01050207)], work=1301*
  9: 0x00DB [0x21] END_EVENT
 10: 0x00DC [0x00] END_REQSTACK()
```

### Event 629

#### Metadata

| Field        | Value   |
|--------------|---------|
| Entrypoint   | 0x00DD  |
| Data Size    | 1 bytes |
| Instructions | 1       |

```
      00 01 02 03 04 05 06 07  08 09 0A 0B 0C 0D 0E 0F
      -- -- -- -- -- -- -- --  -- -- -- -- -- -- -- --
00D0:                                         00                     .  
```

#### Opcodes

```
  0: 0x00DD [0x00] END_REQSTACK()
```

### Event 630

#### Metadata

| Field        | Value   |
|--------------|---------|
| Entrypoint   | 0x00DE  |
| Data Size    | 1 bytes |
| Instructions | 1       |

```
      00 01 02 03 04 05 06 07  08 09 0A 0B 0C 0D 0E 0F
      -- -- -- -- -- -- -- --  -- -- -- -- -- -- -- --
00D0:                                            00                   . 
```

#### Opcodes

```
  0: 0x00DE [0x00] END_REQSTACK()
```

### Event 631

#### Metadata

| Field        | Value   |
|--------------|---------|
| Entrypoint   | 0x00DF  |
| Data Size    | 1 bytes |
| Instructions | 1       |

```
      00 01 02 03 04 05 06 07  08 09 0A 0B 0C 0D 0E 0F
      -- -- -- -- -- -- -- --  -- -- -- -- -- -- -- --
00D0:                                               00                 .
```

#### Opcodes

```
  0: 0x00DF [0x00] END_REQSTACK()
```

### Event 632

#### Metadata

| Field        | Value   |
|--------------|---------|
| Entrypoint   | 0x00E0  |
| Data Size    | 1 bytes |
| Instructions | 1       |

```
      00 01 02 03 04 05 06 07  08 09 0A 0B 0C 0D 0E 0F
      -- -- -- -- -- -- -- --  -- -- -- -- -- -- -- --
00E0: 00                                                .               
```

#### Opcodes

```
  0: 0x00E0 [0x00] END_REQSTACK()
```

### Event 633

#### Metadata

| Field        | Value   |
|--------------|---------|
| Entrypoint   | 0x00E1  |
| Data Size    | 1 bytes |
| Instructions | 1       |

```
      00 01 02 03 04 05 06 07  08 09 0A 0B 0C 0D 0E 0F
      -- -- -- -- -- -- -- --  -- -- -- -- -- -- -- --
00E0:    00                                              .              
```

#### Opcodes

```
  0: 0x00E1 [0x00] END_REQSTACK()
```

### Event 634

#### Metadata

| Field        | Value   |
|--------------|---------|
| Entrypoint   | 0x00E2  |
| Data Size    | 1 bytes |
| Instructions | 1       |

```
      00 01 02 03 04 05 06 07  08 09 0A 0B 0C 0D 0E 0F
      -- -- -- -- -- -- -- --  -- -- -- -- -- -- -- --
00E0:       00                                            .             
```

#### Opcodes

```
  0: 0x00E2 [0x00] END_REQSTACK()
```

### Event 635

#### Metadata

| Field        | Value   |
|--------------|---------|
| Entrypoint   | 0x00E3  |
| Data Size    | 1 bytes |
| Instructions | 1       |

```
      00 01 02 03 04 05 06 07  08 09 0A 0B 0C 0D 0E 0F
      -- -- -- -- -- -- -- --  -- -- -- -- -- -- -- --
00E0:          00                                          .            
```

#### Opcodes

```
  0: 0x00E3 [0x00] END_REQSTACK()
```

### Event 636

#### Metadata

| Field        | Value   |
|--------------|---------|
| Entrypoint   | 0x00E4  |
| Data Size    | 1 bytes |
| Instructions | 1       |

```
      00 01 02 03 04 05 06 07  08 09 0A 0B 0C 0D 0E 0F
      -- -- -- -- -- -- -- --  -- -- -- -- -- -- -- --
00E0:             00                                        .           
```

#### Opcodes

```
  0: 0x00E4 [0x00] END_REQSTACK()
```

### Event 637

#### Metadata

| Field        | Value   |
|--------------|---------|
| Entrypoint   | 0x00E5  |
| Data Size    | 1 bytes |
| Instructions | 1       |

```
      00 01 02 03 04 05 06 07  08 09 0A 0B 0C 0D 0E 0F
      -- -- -- -- -- -- -- --  -- -- -- -- -- -- -- --
00E0:                00                                      .          
```

#### Opcodes

```
  0: 0x00E5 [0x00] END_REQSTACK()
```

### Event 84

#### Metadata

| Field        | Value    |
|--------------|----------|
| Entrypoint   | 0x00E6   |
| Data Size    | 55 bytes |
| Instructions | 11       |

```
      00 01 02 03 04 05 06 07  08 09 0A 0B 0C 0D 0E 0F
      -- -- -- -- -- -- -- --  -- -- -- -- -- -- -- --
00E0:                   1E F0  FF FF 7F 6F 70 5B 0F 80        .....op[..
00F0: 07 02 05 01 07 02 05 01  6B 65 69 30 2B 07 02 05  ........kei0+...
0100: 01 12 80 23 2B 07 02 05  01 13 80 23 5B 0F 80 07  ...#+......#[...
0110: 02 05 01 07 02 05 01 6B  65 69 31 21 00           .......kei1!.   
```

#### Opcodes

```
  0: 0x00E6 [0x1E] EventEntity looks at LocalPlayer and starts talking
  1: 0x00EB [0x6F] WAIT_FRAME_DELAY: Yield until WaitTime reaches zero
  2: 0x00EC [0x70] WAIT_ENTITY_RENDER_FLAG: Wait while EventEntity->Render.Flags3 bit 2 is set (cancel turn if not)
  3: 0x00ED [0x5B] LOAD_EXT_SCHEDULER: Load scheduler "kei0" with entities [Rholont (ID: 17105415/0x01050207), Rholont (ID: 17105415/0x01050207)], work=1301*
  4: 0x00FC [0x2B] Rholont (ID: 17105415/0x01050207) [13635*]:
    → "I bear a message from Captain Rahal:"
  5: 0x0103 [0x23] WAIT_FOR_DIALOG_INTERACTION
  6: 0x0104 [0x2B] Rholont (ID: 17105415/0x01050207) [13636*]:
    → ""The Knights of the Swiftwing Griffin are to convene at headquarters from sundown.""
  7: 0x010B [0x23] WAIT_FOR_DIALOG_INTERACTION
  8: 0x010C [0x5B] LOAD_EXT_SCHEDULER: Load scheduler "kei1" with entities [Rholont (ID: 17105415/0x01050207), Rholont (ID: 17105415/0x01050207)], work=1301*
  9: 0x011B [0x21] END_EVENT
 10: 0x011C [0x00] END_REQSTACK()
```

### Event 65535.4

#### Metadata

| Field        | Value    |
|--------------|----------|
| Entrypoint   | 0x011D   |
| Data Size    | 35 bytes |
| Instructions | 9        |

```
      00 01 02 03 04 05 06 07  08 09 0A 0B 0C 0D 0E 0F
      -- -- -- -- -- -- -- --  -- -- -- -- -- -- -- --
0110:                                         03 00 00               ...
0120: 25 10 03 02 00 27 10 03  01 00 26 10 03 03 00 28  %....'....&....(
0130: 10 32 02 80 1F 00 00 00  02 00 01 00 1F 01 6F 00  .2............o.
```

#### Opcodes

```
  0: 0x011D [0x03] ExtData[1]->WorkLocal[0] = Work_Zone[37]
  1: 0x0122 [0x03] ExtData[1]->WorkLocal[2] = Work_Zone[39]
  2: 0x0127 [0x03] ExtData[1]->WorkLocal[1] = Work_Zone[38]
  3: 0x012C [0x03] ExtData[1]->WorkLocal[3] = Work_Zone[40]
  4: 0x0131 [0x32] ExtData[1]->MainSpeed = 40* * 0.1
  5: 0x0134 [0x1F] MOVE_ENTITY: EventEntity moves to X=ExtData[1]->WorkLocal[0], Z=ExtData[1]->WorkLocal[2], Y=ExtData[1]->WorkLocal[1]
  6: 0x013C [0x1F] MOVE_ENTITY: Update entity position (mode=1)
  7: 0x013E [0x6F] WAIT_FRAME_DELAY: Yield until WaitTime reaches zero
  8: 0x013F [0x00] END_REQSTACK()
```

### Event 65535.5

#### Metadata

| Field        | Value    |
|--------------|----------|
| Entrypoint   | 0x0140   |
| Data Size    | 35 bytes |
| Instructions | 9        |

```
      00 01 02 03 04 05 06 07  08 09 0A 0B 0C 0D 0E 0F
      -- -- -- -- -- -- -- --  -- -- -- -- -- -- -- --
0140: 03 00 00 25 10 03 02 00  27 10 03 01 00 26 10 03  ...%....'....&..
0150: 03 00 28 10 32 14 80 1F  00 00 00 02 00 01 00 1F  ..(.2...........
0160: 01 6F 00                                          .o.             
```

#### Opcodes

```
  0: 0x0140 [0x03] ExtData[1]->WorkLocal[0] = Work_Zone[37]
  1: 0x0145 [0x03] ExtData[1]->WorkLocal[2] = Work_Zone[39]
  2: 0x014A [0x03] ExtData[1]->WorkLocal[1] = Work_Zone[38]
  3: 0x014F [0x03] ExtData[1]->WorkLocal[3] = Work_Zone[40]
  4: 0x0154 [0x32] ExtData[1]->MainSpeed = 13* * 0.1
  5: 0x0157 [0x1F] MOVE_ENTITY: EventEntity moves to X=ExtData[1]->WorkLocal[0], Z=ExtData[1]->WorkLocal[2], Y=ExtData[1]->WorkLocal[1]
  6: 0x015F [0x1F] MOVE_ENTITY: Update entity position (mode=1)
  7: 0x0161 [0x6F] WAIT_FRAME_DELAY: Yield until WaitTime reaches zero
  8: 0x0162 [0x00] END_REQSTACK()
```

### Event 81

#### Metadata

| Field        | Value   |
|--------------|---------|
| Entrypoint   | 0x0163  |
| Data Size    | 1 bytes |
| Instructions | 1       |

```
      00 01 02 03 04 05 06 07  08 09 0A 0B 0C 0D 0E 0F
      -- -- -- -- -- -- -- --  -- -- -- -- -- -- -- --
0160:          00                                          .            
```

#### Opcodes

```
  0: 0x0163 [0x00] END_REQSTACK()
```

### Event 82

#### Metadata

| Field        | Value   |
|--------------|---------|
| Entrypoint   | 0x0164  |
| Data Size    | 1 bytes |
| Instructions | 1       |

```
      00 01 02 03 04 05 06 07  08 09 0A 0B 0C 0D 0E 0F
      -- -- -- -- -- -- -- --  -- -- -- -- -- -- -- --
0160:             00                                        .           
```

#### Opcodes

```
  0: 0x0164 [0x00] END_REQSTACK()
```

### Event 638

#### Metadata

| Field        | Value   |
|--------------|---------|
| Entrypoint   | 0x0165  |
| Data Size    | 1 bytes |
| Instructions | 1       |

```
      00 01 02 03 04 05 06 07  08 09 0A 0B 0C 0D 0E 0F
      -- -- -- -- -- -- -- --  -- -- -- -- -- -- -- --
0160:                00                                      .          
```

#### Opcodes

```
  0: 0x0165 [0x00] END_REQSTACK()
```

### Event 642

#### Metadata

| Field        | Value   |
|--------------|---------|
| Entrypoint   | 0x0166  |
| Data Size    | 1 bytes |
| Instructions | 1       |

```
      00 01 02 03 04 05 06 07  08 09 0A 0B 0C 0D 0E 0F
      -- -- -- -- -- -- -- --  -- -- -- -- -- -- -- --
0160:                   00                                    .         
```

#### Opcodes

```
  0: 0x0166 [0x00] END_REQSTACK()
```

### Event 649

#### Metadata

| Field        | Value   |
|--------------|---------|
| Entrypoint   | 0x0167  |
| Data Size    | 1 bytes |
| Instructions | 1       |

```
      00 01 02 03 04 05 06 07  08 09 0A 0B 0C 0D 0E 0F
      -- -- -- -- -- -- -- --  -- -- -- -- -- -- -- --
0160:                      00                                  .        
```

#### Opcodes

```
  0: 0x0167 [0x00] END_REQSTACK()
```

### Event 643

#### Metadata

| Field        | Value     |
|--------------|-----------|
| Entrypoint   | 0x0168    |
| Data Size    | 114 bytes |
| Instructions | 23        |

```
      00 01 02 03 04 05 06 07  08 09 0A 0B 0C 0D 0E 0F
      -- -- -- -- -- -- -- --  -- -- -- -- -- -- -- --
0160:                          20 01 4A 07 02 05 01 F0           .J.....
0170: FF FF 7F 5B 00 80 07 02  05 01 07 02 05 01 74 6C  ...[..........tl
0180: 61 30 03 02 10 15 80 2B  07 02 05 01 16 80 23 2B  a0.....+......#+
0190: 07 02 05 01 17 80 23 03  02 10 18 80 2B 07 02 05  ......#.....+...
01A0: 01 19 80 23 2B 07 02 05  01 1A 80 23 03 02 10 1B  ...#+......#....
01B0: 80 2B 07 02 05 01 1C 80  23 2B 07 02 05 01 1D 80  .+......#+......
01C0: 23 2B 07 02 05 01 1E 80  23 5B 00 80 07 02 05 01  #+......#[......
01D0: 07 02 05 01 74 6C 61 31  21 00                    ....tla1!.      
```

#### Opcodes

```
  0: 0x0168 [0x20] SET_CLI_EVENT_UC_FLAG: Lock player control
  1: 0x016A [0x4A] Rholont (ID: 17105415/0x01050207) looks at LocalPlayer
  2: 0x0173 [0x5B] LOAD_EXT_SCHEDULER: Load scheduler "tla0" with entities [Rholont (ID: 17105415/0x01050207), Rholont (ID: 17105415/0x01050207)], work=1272*
  3: 0x0182 [0x03] Work_Zone[2] = 1070*
  4: 0x0187 [0x2B] Rholont (ID: 17105415/0x01050207) [12204*]:
    → "The first item on the list is $3."
  5: 0x018E [0x23] WAIT_FOR_DIALOG_INTERACTION
  6: 0x018F [0x2B] Rholont (ID: 17105415/0x01050207) [12205*]:
    → "Making cuts on tree trunks out in Ronfaure should yield an adequate amount."
  7: 0x0196 [0x23] WAIT_FOR_DIALOG_INTERACTION
  8: 0x0197 [0x03] Work_Zone[2] = 1071*
  9: 0x019C [0x2B] Rholont (ID: 17105415/0x01050207) [12206*]:
    → "Next on the list, $5."
 10: 0x01A3 [0x23] WAIT_FOR_DIALOG_INTERACTION
 11: 0x01A4 [0x2B] Rholont (ID: 17105415/0x01050207) [12207*]:
    → "These are oft stowed within the cavity of trees throughout the Kingdom."
 12: 0x01AB [0x23] WAIT_FOR_DIALOG_INTERACTION
 13: 0x01AC [0x03] Work_Zone[2] = 1072*
 14: 0x01B1 [0x2B] Rholont (ID: 17105415/0x01050207) [12208*]:
    → "6 is the third and final item."
 15: 0x01B8 [0x23] WAIT_FOR_DIALOG_INTERACTION
 16: 0x01B9 [0x2B] Rholont (ID: 17105415/0x01050207) [12209*]:
    → "For this, you need but draw water from the well over yonder."
 17: 0x01C0 [0x23] WAIT_FOR_DIALOG_INTERACTION
 18: 0x01C1 [0x2B] Rholont (ID: 17105415/0x01050207) [12210*]:
    → "That concludes the list of items. Report back to me upon procurement and you will be further briefed."
 19: 0x01C8 [0x23] WAIT_FOR_DIALOG_INTERACTION
 20: 0x01C9 [0x5B] LOAD_EXT_SCHEDULER: Load scheduler "tla1" with entities [Rholont (ID: 17105415/0x01050207), Rholont (ID: 17105415/0x01050207)], work=1272*
 21: 0x01D8 [0x21] END_EVENT
 22: 0x01D9 [0x00] END_REQSTACK()
```

### Event 645

#### Metadata

| Field        | Value    |
|--------------|----------|
| Entrypoint   | 0x01DA   |
| Data Size    | 66 bytes |
| Instructions | 12       |

```
      00 01 02 03 04 05 06 07  08 09 0A 0B 0C 0D 0E 0F
      -- -- -- -- -- -- -- --  -- -- -- -- -- -- -- --
01D0:                                20 01 4A 07 02 05             .J...
01E0: 01 F0 FF FF 7F 5B 00 80  07 02 05 01 07 02 05 01  .....[..........
01F0: 74 6C 61 30 2B 07 02 05  01 1F 80 23 03 02 10 20  tla0+......#... 
0200: 80 2B 07 02 05 01 21 80  23 5B 00 80 07 02 05 01  .+....!.#[......
0210: 07 02 05 01 74 6C 61 31  20 00 21 00              ....tla1 .!.    
```

#### Opcodes

```
  0: 0x01DA [0x20] SET_CLI_EVENT_UC_FLAG: Lock player control
  1: 0x01DC [0x4A] Rholont (ID: 17105415/0x01050207) looks at LocalPlayer
  2: 0x01E5 [0x5B] LOAD_EXT_SCHEDULER: Load scheduler "tla0" with entities [Rholont (ID: 17105415/0x01050207), Rholont (ID: 17105415/0x01050207)], work=1272*
  3: 0x01F4 [0x2B] Rholont (ID: 17105415/0x01050207) [12226*]:
    → "The Swiftwing Griffins are currently on standby out in Jugner Forest for a strategy meeting with the Iron Rams."
  4: 0x01FB [0x23] WAIT_FOR_DIALOG_INTERACTION
  5: 0x01FC [0x03] Work_Zone[2] = 1073*
  6: 0x0201 [0x2B] Rholont (ID: 17105415/0x01050207) [12227*]:
    → "Please see to it that the $5 are safely delivered to the hands of Captain Rahal."
  7: 0x0208 [0x23] WAIT_FOR_DIALOG_INTERACTION
  8: 0x0209 [0x5B] LOAD_EXT_SCHEDULER: Load scheduler "tla1" with entities [Rholont (ID: 17105415/0x01050207), Rholont (ID: 17105415/0x01050207)], work=1272*
  9: 0x0218 [0x20] SET_CLI_EVENT_UC_FLAG: Unlock player control
 10: 0x021A [0x21] END_EVENT
 11: 0x021B [0x00] END_REQSTACK()
```

### Event 647

#### Metadata

| Field        | Value    |
|--------------|----------|
| Entrypoint   | 0x021C   |
| Data Size    | 61 bytes |
| Instructions | 11       |

```
      00 01 02 03 04 05 06 07  08 09 0A 0B 0C 0D 0E 0F
      -- -- -- -- -- -- -- --  -- -- -- -- -- -- -- --
0210:                                      20 01 4A 07               .J.
0220: 02 05 01 F0 FF FF 7F 5B  00 80 07 02 05 01 07 02  .......[........
0230: 05 01 74 6C 61 30 2B 07  02 05 01 22 80 23 2B 07  ..tla0+....".#+.
0240: 02 05 01 23 80 23 5B 00  80 07 02 05 01 07 02 05  ...#.#[.........
0250: 01 74 6C 61 31 20 00 21  00                       .tla1 .!.       
```

#### Opcodes

```
  0: 0x021C [0x20] SET_CLI_EVENT_UC_FLAG: Lock player control
  1: 0x021E [0x4A] Rholont (ID: 17105415/0x01050207) looks at LocalPlayer
  2: 0x0227 [0x5B] LOAD_EXT_SCHEDULER: Load scheduler "tla0" with entities [Rholont (ID: 17105415/0x01050207), Rholont (ID: 17105415/0x01050207)], work=1272*
  3: 0x0236 [0x2B] Rholont (ID: 17105415/0x01050207) [12228*]:
    → "Welcome back from your mission! Did our men take heart from the special rations we prepared?"
  4: 0x023D [0x23] WAIT_FOR_DIALOG_INTERACTION
  5: 0x023E [0x2B] Rholont (ID: 17105415/0x01050207) [12229*]:
    → "You seek Machegue? He departed the fortress not a moment after returning from afield. In his haste, he scarce had the breath to inform me that he was headed for Vunkerl Inlet."
  6: 0x0245 [0x23] WAIT_FOR_DIALOG_INTERACTION
  7: 0x0246 [0x5B] LOAD_EXT_SCHEDULER: Load scheduler "tla1" with entities [Rholont (ID: 17105415/0x01050207), Rholont (ID: 17105415/0x01050207)], work=1272*
  8: 0x0255 [0x20] SET_CLI_EVENT_UC_FLAG: Unlock player control
  9: 0x0257 [0x21] END_EVENT
 10: 0x0258 [0x00] END_REQSTACK()
```

### Event 648

#### Metadata

| Field        | Value    |
|--------------|----------|
| Entrypoint   | 0x0259   |
| Data Size    | 53 bytes |
| Instructions | 9        |

```
      00 01 02 03 04 05 06 07  08 09 0A 0B 0C 0D 0E 0F
      -- -- -- -- -- -- -- --  -- -- -- -- -- -- -- --
0250:                             20 01 4A 07 02 05 01            .J....
0260: F0 FF FF 7F 5B 00 80 07  02 05 01 07 02 05 01 74  ....[..........t
0270: 6C 61 30 2B 07 02 05 01  24 80 23 5B 00 80 07 02  la0+....$.#[....
0280: 05 01 07 02 05 01 74 6C  61 31 20 00 21 00        ......tla1 .!.  
```

#### Opcodes

```
  0: 0x0259 [0x20] SET_CLI_EVENT_UC_FLAG: Lock player control
  1: 0x025B [0x4A] Rholont (ID: 17105415/0x01050207) looks at LocalPlayer
  2: 0x0264 [0x5B] LOAD_EXT_SCHEDULER: Load scheduler "tla0" with entities [Rholont (ID: 17105415/0x01050207), Rholont (ID: 17105415/0x01050207)], work=1272*
  3: 0x0273 [0x2B] Rholont (ID: 17105415/0x01050207) [12216*]:
    → "If you seek Captain Rahal, I fear he has yet to return."
  4: 0x027A [0x23] WAIT_FOR_DIALOG_INTERACTION
  5: 0x027B [0x5B] LOAD_EXT_SCHEDULER: Load scheduler "tla1" with entities [Rholont (ID: 17105415/0x01050207), Rholont (ID: 17105415/0x01050207)], work=1272*
  6: 0x028A [0x20] SET_CLI_EVENT_UC_FLAG: Unlock player control
  7: 0x028C [0x21] END_EVENT
  8: 0x028D [0x00] END_REQSTACK()
```

### Event 651

#### Metadata

| Field        | Value    |
|--------------|----------|
| Entrypoint   | 0x028E   |
| Data Size    | 55 bytes |
| Instructions | 9        |

```
      00 01 02 03 04 05 06 07  08 09 0A 0B 0C 0D 0E 0F
      -- -- -- -- -- -- -- --  -- -- -- -- -- -- -- --
0280:                                            4A 07                J.
0290: 02 05 01 F0 FF FF 7F 6F  76 07 02 05 01 5B 00 80  .......ov....[..
02A0: 07 02 05 01 07 02 05 01  74 6C 61 30 2B 07 02 05  ........tla0+...
02B0: 01 25 80 23 5B 00 80 07  02 05 01 07 02 05 01 74  .%.#[..........t
02C0: 6C 61 31 21 00                                    la1!.           
```

#### Opcodes

```
  0: 0x028E [0x4A] Rholont (ID: 17105415/0x01050207) looks at LocalPlayer
  1: 0x0297 [0x6F] WAIT_FRAME_DELAY: Yield until WaitTime reaches zero
  2: 0x0298 [0x76] CHECK_ENTITY_RENDER_FLAGS: Wait until Rholont (ID: 17105415/0x01050207) Render.Flags0 and Render.Flags3 conditions are met
  3: 0x029D [0x5B] LOAD_EXT_SCHEDULER: Load scheduler "tla0" with entities [Rholont (ID: 17105415/0x01050207), Rholont (ID: 17105415/0x01050207)], work=1272*
  4: 0x02AC [0x2B] Rholont (ID: 17105415/0x01050207) [12262*]:
    → "That we will never see Machegue again... The reality of it has yet to sink in."
  5: 0x02B3 [0x23] WAIT_FOR_DIALOG_INTERACTION
  6: 0x02B4 [0x5B] LOAD_EXT_SCHEDULER: Load scheduler "tla1" with entities [Rholont (ID: 17105415/0x01050207), Rholont (ID: 17105415/0x01050207)], work=1272*
  7: 0x02C3 [0x21] END_EVENT
  8: 0x02C4 [0x00] END_REQSTACK()
```

### Event 653

#### Metadata

| Field        | Value    |
|--------------|----------|
| Entrypoint   | 0x02C5   |
| Data Size    | 83 bytes |
| Instructions | 16       |

```
      00 01 02 03 04 05 06 07  08 09 0A 0B 0C 0D 0E 0F
      -- -- -- -- -- -- -- --  -- -- -- -- -- -- -- --
02C0:                20 01 4A  07 02 05 01 F0 FF FF 7F        .J........
02D0: 7B 07 02 05 01 6F 76 07  02 05 01 5B 00 80 07 02  {....ov....[....
02E0: 05 01 07 02 05 01 74 6C  61 30 2B 07 02 05 01 26  ......tla0+....&
02F0: 80 23 2B 07 02 05 01 27  80 23 2B 07 02 05 01 28  .#+....'.#+....(
0300: 80 23 7B ED 01 05 01 5B  00 80 07 02 05 01 07 02  .#{....[........
0310: 05 01 74 6C 61 31 21 00                           ..tla1!.        
```

#### Opcodes

```
  0: 0x02C5 [0x20] SET_CLI_EVENT_UC_FLAG: Lock player control
  1: 0x02C7 [0x4A] Rholont (ID: 17105415/0x01050207) looks at LocalPlayer
  2: 0x02D0 [0x7B] Rholont (ID: 17105415/0x01050207) stops talking
  3: 0x02D5 [0x6F] WAIT_FRAME_DELAY: Yield until WaitTime reaches zero
  4: 0x02D6 [0x76] CHECK_ENTITY_RENDER_FLAGS: Wait until Rholont (ID: 17105415/0x01050207) Render.Flags0 and Render.Flags3 conditions are met
  5: 0x02DB [0x5B] LOAD_EXT_SCHEDULER: Load scheduler "tla0" with entities [Rholont (ID: 17105415/0x01050207), Rholont (ID: 17105415/0x01050207)], work=1272*
  6: 0x02EA [0x2B] Rholont (ID: 17105415/0x01050207) [12295*]:
    → "The entire Kingdom is in an uproar with talk of the secret weapon supposedly employed by the beastmen at Tavnazia."
  7: 0x02F1 [0x23] WAIT_FOR_DIALOG_INTERACTION
  8: 0x02F2 [0x2B] Rholont (ID: 17105415/0x01050207) [12296*]:
    → "Why, some of the rumors even go so far as to suggest that the entire Tavnazian Peninsula was wiped off the map! Could such a horrendous thing truly have taken place?"
  9: 0x02F9 [0x23] WAIT_FOR_DIALOG_INTERACTION
 10: 0x02FA [0x2B] Rholont (ID: 17105415/0x01050207) [12297*]:
    → "But as the saying goes, where there is smoke, there is fire... We can only hope that no harm has befallen Excenmille."
 11: 0x0301 [0x23] WAIT_FOR_DIALOG_INTERACTION
 12: 0x0302 [0x7B] Rongelouts N Distaud (ID: 17105389/0x010501ED) stops talking
 13: 0x0307 [0x5B] LOAD_EXT_SCHEDULER: Load scheduler "tla1" with entities [Rholont (ID: 17105415/0x01050207), Rholont (ID: 17105415/0x01050207)], work=1272*
 14: 0x0316 [0x21] END_EVENT
 15: 0x0317 [0x00] END_REQSTACK()
```

### Event 65535.6

#### Metadata

| Field        | Value    |
|--------------|----------|
| Entrypoint   | 0x0318   |
| Data Size    | 34 bytes |
| Instructions | 4        |

```
      00 01 02 03 04 05 06 07  08 09 0A 0B 0C 0D 0E 0F
      -- -- -- -- -- -- -- --  -- -- -- -- -- -- -- --
0310:                          5B 29 80 07 02 05 01 07          [)......
0320: 02 05 01 70 6E 74 30 1C  2A 80 5B 29 80 07 02 05  ...pnt0.*.[)....
0330: 01 07 02 05 01 70 6E 74  31 00                    .....pnt1.      
```

#### Opcodes

```
  0: 0x0318 [0x5B] LOAD_EXT_SCHEDULER: Load scheduler "pnt0" with entities [Rholont (ID: 17105415/0x01050207), Rholont (ID: 17105415/0x01050207)], work=1438*
  1: 0x0327 [0x1C] WAIT(60* ticks)
  2: 0x032A [0x5B] LOAD_EXT_SCHEDULER: Load scheduler "pnt1" with entities [Rholont (ID: 17105415/0x01050207), Rholont (ID: 17105415/0x01050207)], work=1438*
  3: 0x0339 [0x00] END_REQSTACK()
```

### Event 113

#### Metadata

| Field        | Value   |
|--------------|---------|
| Entrypoint   | 0x033A  |
| Data Size    | 1 bytes |
| Instructions | 1       |

```
      00 01 02 03 04 05 06 07  08 09 0A 0B 0C 0D 0E 0F
      -- -- -- -- -- -- -- --  -- -- -- -- -- -- -- --
0330:                                00                           .     
```

#### Opcodes

```
  0: 0x033A [0x00] END_REQSTACK()
```

### Event 655

#### Metadata

| Field        | Value    |
|--------------|----------|
| Entrypoint   | 0x033B   |
| Data Size    | 63 bytes |
| Instructions | 11       |

```
      00 01 02 03 04 05 06 07  08 09 0A 0B 0C 0D 0E 0F
      -- -- -- -- -- -- -- --  -- -- -- -- -- -- -- --
0330:                                   4A 07 02 05 01             J....
0340: F0 FF FF 7F 6F 76 07 02  05 01 5B 00 80 07 02 05  ....ov....[.....
0350: 01 07 02 05 01 74 6C 61  30 2B 07 02 05 01 2B 80  .....tla0+....+.
0360: 23 2B 07 02 05 01 2C 80  23 5B 00 80 07 02 05 01  #+....,.#[......
0370: 07 02 05 01 74 6C 61 31  21 00                    ....tla1!.      
```

#### Opcodes

```
  0: 0x033B [0x4A] Rholont (ID: 17105415/0x01050207) looks at LocalPlayer
  1: 0x0344 [0x6F] WAIT_FRAME_DELAY: Yield until WaitTime reaches zero
  2: 0x0345 [0x76] CHECK_ENTITY_RENDER_FLAGS: Wait until Rholont (ID: 17105415/0x01050207) Render.Flags0 and Render.Flags3 conditions are met
  3: 0x034A [0x5B] LOAD_EXT_SCHEDULER: Load scheduler "tla0" with entities [Rholont (ID: 17105415/0x01050207), Rholont (ID: 17105415/0x01050207)], work=1272*
  4: 0x0359 [0x2B] Rholont (ID: 17105415/0x01050207) [12569*]:
    → "A short while prior, I observed a female knight of seemly demeanor conversing with the stable master by the corral."
  5: 0x0360 [0x23] WAIT_FOR_DIALOG_INTERACTION
  6: 0x0361 [0x2B] Rholont (ID: 17105415/0x01050207) [12570*]:
    → "She concerned herself with the number of sure-legged chocobos. Could that possibly have been Captain Gissenne?"
  7: 0x0368 [0x23] WAIT_FOR_DIALOG_INTERACTION
  8: 0x0369 [0x5B] LOAD_EXT_SCHEDULER: Load scheduler "tla1" with entities [Rholont (ID: 17105415/0x01050207), Rholont (ID: 17105415/0x01050207)], work=1272*
  9: 0x0378 [0x21] END_EVENT
 10: 0x0379 [0x00] END_REQSTACK()
```

### Event 656

#### Metadata

| Field        | Value    |
|--------------|----------|
| Entrypoint   | 0x037A   |
| Data Size    | 55 bytes |
| Instructions | 9        |

```
      00 01 02 03 04 05 06 07  08 09 0A 0B 0C 0D 0E 0F
      -- -- -- -- -- -- -- --  -- -- -- -- -- -- -- --
0370:                                4A 07 02 05 01 F0            J.....
0380: FF FF 7F 6F 76 07 02 05  01 5B 00 80 07 02 05 01  ...ov....[......
0390: 07 02 05 01 74 6C 61 30  2B 07 02 05 01 2D 80 23  ....tla0+....-.#
03A0: 5B 00 80 07 02 05 01 07  02 05 01 74 6C 61 31 21  [..........tla1!
03B0: 00                                                .               
```

#### Opcodes

```
  0: 0x037A [0x4A] Rholont (ID: 17105415/0x01050207) looks at LocalPlayer
  1: 0x0383 [0x6F] WAIT_FRAME_DELAY: Yield until WaitTime reaches zero
  2: 0x0384 [0x76] CHECK_ENTITY_RENDER_FLAGS: Wait until Rholont (ID: 17105415/0x01050207) Render.Flags0 and Render.Flags3 conditions are met
  3: 0x0389 [0x5B] LOAD_EXT_SCHEDULER: Load scheduler "tla0" with entities [Rholont (ID: 17105415/0x01050207), Rholont (ID: 17105415/0x01050207)], work=1272*
  4: 0x0398 [0x2B] Rholont (ID: 17105415/0x01050207) [12367*]:
    → "The Knights of the Crimson Swallow have left for the Beaucedine Glacier. Will you not lend a hand to their cause, <Player>? You needn't worry about Swiftwing Fortress. No ill shall befall it on my watch."
  5: 0x039F [0x23] WAIT_FOR_DIALOG_INTERACTION
  6: 0x03A0 [0x5B] LOAD_EXT_SCHEDULER: Load scheduler "tla1" with entities [Rholont (ID: 17105415/0x01050207), Rholont (ID: 17105415/0x01050207)], work=1272*
  7: 0x03AF [0x21] END_EVENT
  8: 0x03B0 [0x00] END_REQSTACK()
```

### Event 167

#### Metadata

| Field        | Value    |
|--------------|----------|
| Entrypoint   | 0x03B1   |
| Data Size    | 55 bytes |
| Instructions | 9        |

```
      00 01 02 03 04 05 06 07  08 09 0A 0B 0C 0D 0E 0F
      -- -- -- -- -- -- -- --  -- -- -- -- -- -- -- --
03B0:    4A 07 02 05 01 F0 FF  FF 7F 6F 76 07 02 05 01   J........ov....
03C0: 5B 00 80 07 02 05 01 07  02 05 01 74 6C 61 30 2B  [..........tla0+
03D0: 07 02 05 01 2E 80 23 5B  00 80 07 02 05 01 07 02  ......#[........
03E0: 05 01 74 6C 61 31 21 00                           ..tla1!.        
```

#### Opcodes

```
  0: 0x03B1 [0x4A] Rholont (ID: 17105415/0x01050207) looks at LocalPlayer
  1: 0x03BA [0x6F] WAIT_FRAME_DELAY: Yield until WaitTime reaches zero
  2: 0x03BB [0x76] CHECK_ENTITY_RENDER_FLAGS: Wait until Rholont (ID: 17105415/0x01050207) Render.Flags0 and Render.Flags3 conditions are met
  3: 0x03C0 [0x5B] LOAD_EXT_SCHEDULER: Load scheduler "tla0" with entities [Rholont (ID: 17105415/0x01050207), Rholont (ID: 17105415/0x01050207)], work=1272*
  4: 0x03CF [0x2B] Rholont (ID: 17105415/0x01050207) [14385*]:
    → "The Allied Forces are locked in battle with the beastmen in Xarcabard. Many a skirmish has reportedly taken place right before the gates of Castle Zvahl!"
  5: 0x03D6 [0x23] WAIT_FOR_DIALOG_INTERACTION
  6: 0x03D7 [0x5B] LOAD_EXT_SCHEDULER: Load scheduler "tla1" with entities [Rholont (ID: 17105415/0x01050207), Rholont (ID: 17105415/0x01050207)], work=1272*
  7: 0x03E6 [0x21] END_EVENT
  8: 0x03E7 [0x00] END_REQSTACK()
```

### Event 65535.7

#### Metadata

| Field        | Value    |
|--------------|----------|
| Entrypoint   | 0x03E8   |
| Data Size    | 16 bytes |
| Instructions | 2        |

```
      00 01 02 03 04 05 06 07  08 09 0A 0B 0C 0D 0E 0F
      -- -- -- -- -- -- -- --  -- -- -- -- -- -- -- --
03E0:                          5B 00 80 F8 FF FF 7F F8          [.......
03F0: FF FF 7F 74 6C 61 30 00                           ...tla0.        
```

#### Opcodes

```
  0: 0x03E8 [0x5B] LOAD_EXT_SCHEDULER: Load scheduler "tla0" with entities [EventEntity, EventEntity], work=1272*
  1: 0x03F7 [0x00] END_REQSTACK()
```

### Event 65535.8

#### Metadata

| Field        | Value    |
|--------------|----------|
| Entrypoint   | 0x03F8   |
| Data Size    | 14 bytes |
| Instructions | 2        |

```
      00 01 02 03 04 05 06 07  08 09 0A 0B 0C 0D 0E 0F
      -- -- -- -- -- -- -- --  -- -- -- -- -- -- -- --
03F0:                          53 F8 FF FF 7F F8 FF FF          S.......
0400: 7F 74 6C 61 30 00                                 .tla0.          
```

#### Opcodes

```
  0: 0x03F8 [0x53] WAIT_SCHEDULER_TASK: Wait for scheduler "tla0" with entities [EventEntity, EventEntity]
  1: 0x0405 [0x00] END_REQSTACK()
```

### Event 65535.9

#### Metadata

| Field        | Value    |
|--------------|----------|
| Entrypoint   | 0x0406   |
| Data Size    | 16 bytes |
| Instructions | 2        |

```
      00 01 02 03 04 05 06 07  08 09 0A 0B 0C 0D 0E 0F
      -- -- -- -- -- -- -- --  -- -- -- -- -- -- -- --
0400:                   5B 00  80 F8 FF FF 7F F8 FF FF        [.........
0410: 7F 74 6C 61 31 00                                 .tla1.          
```

#### Opcodes

```
  0: 0x0406 [0x5B] LOAD_EXT_SCHEDULER: Load scheduler "tla1" with entities [EventEntity, EventEntity], work=1272*
  1: 0x0415 [0x00] END_REQSTACK()
```

### Event 65535.10

#### Metadata

| Field        | Value    |
|--------------|----------|
| Entrypoint   | 0x0416   |
| Data Size    | 14 bytes |
| Instructions | 2        |

```
      00 01 02 03 04 05 06 07  08 09 0A 0B 0C 0D 0E 0F
      -- -- -- -- -- -- -- --  -- -- -- -- -- -- -- --
0410:                   53 F8  FF FF 7F F8 FF FF 7F 74        S........t
0420: 6C 61 31 00                                       la1.            
```

#### Opcodes

```
  0: 0x0416 [0x53] WAIT_SCHEDULER_TASK: Wait for scheduler "tla1" with entities [EventEntity, EventEntity]
  1: 0x0423 [0x00] END_REQSTACK()
```

### Event 65535.11

#### Metadata

| Field        | Value    |
|--------------|----------|
| Entrypoint   | 0x0424   |
| Data Size    | 16 bytes |
| Instructions | 2        |

```
      00 01 02 03 04 05 06 07  08 09 0A 0B 0C 0D 0E 0F
      -- -- -- -- -- -- -- --  -- -- -- -- -- -- -- --
0420:             5B 00 80 F8  FF FF 7F F8 FF FF 7F 74      [..........t
0430: 6C 62 30 00                                       lb0.            
```

#### Opcodes

```
  0: 0x0424 [0x5B] LOAD_EXT_SCHEDULER: Load scheduler "tlb0" with entities [EventEntity, EventEntity], work=1272*
  1: 0x0433 [0x00] END_REQSTACK()
```

### Event 65535.12

#### Metadata

| Field        | Value    |
|--------------|----------|
| Entrypoint   | 0x0434   |
| Data Size    | 14 bytes |
| Instructions | 2        |

```
      00 01 02 03 04 05 06 07  08 09 0A 0B 0C 0D 0E 0F
      -- -- -- -- -- -- -- --  -- -- -- -- -- -- -- --
0430:             53 F8 FF FF  7F F8 FF FF 7F 74 6C 62      S........tlb
0440: 30 00                                             0.              
```

#### Opcodes

```
  0: 0x0434 [0x53] WAIT_SCHEDULER_TASK: Wait for scheduler "tlb0" with entities [EventEntity, EventEntity]
  1: 0x0441 [0x00] END_REQSTACK()
```

### Event 65535.13

#### Metadata

| Field        | Value    |
|--------------|----------|
| Entrypoint   | 0x0442   |
| Data Size    | 16 bytes |
| Instructions | 2        |

```
      00 01 02 03 04 05 06 07  08 09 0A 0B 0C 0D 0E 0F
      -- -- -- -- -- -- -- --  -- -- -- -- -- -- -- --
0440:       5B 00 80 F8 FF FF  7F F8 FF FF 7F 74 6C 62    [..........tlb
0450: 31 00                                             1.              
```

#### Opcodes

```
  0: 0x0442 [0x5B] LOAD_EXT_SCHEDULER: Load scheduler "tlb1" with entities [EventEntity, EventEntity], work=1272*
  1: 0x0451 [0x00] END_REQSTACK()
```

### Event 65535.14

#### Metadata

| Field        | Value    |
|--------------|----------|
| Entrypoint   | 0x0452   |
| Data Size    | 14 bytes |
| Instructions | 2        |

```
      00 01 02 03 04 05 06 07  08 09 0A 0B 0C 0D 0E 0F
      -- -- -- -- -- -- -- --  -- -- -- -- -- -- -- --
0450:       53 F8 FF FF 7F F8  FF FF 7F 74 6C 62 31 00    S........tlb1.
```

#### Opcodes

```
  0: 0x0452 [0x53] WAIT_SCHEDULER_TASK: Wait for scheduler "tlb1" with entities [EventEntity, EventEntity]
  1: 0x045F [0x00] END_REQSTACK()
```

### Event 65535.15

#### Metadata

| Field        | Value    |
|--------------|----------|
| Entrypoint   | 0x0460   |
| Data Size    | 16 bytes |
| Instructions | 2        |

```
      00 01 02 03 04 05 06 07  08 09 0A 0B 0C 0D 0E 0F
      -- -- -- -- -- -- -- --  -- -- -- -- -- -- -- --
0460: 5B 00 80 F8 FF FF 7F F8  FF FF 7F 74 6C 73 30 00  [..........tls0.
```

#### Opcodes

```
  0: 0x0460 [0x5B] LOAD_EXT_SCHEDULER: Load scheduler "tls0" with entities [EventEntity, EventEntity], work=1272*
  1: 0x046F [0x00] END_REQSTACK()
```

### Event 65535.16

#### Metadata

| Field        | Value    |
|--------------|----------|
| Entrypoint   | 0x0470   |
| Data Size    | 14 bytes |
| Instructions | 2        |

```
      00 01 02 03 04 05 06 07  08 09 0A 0B 0C 0D 0E 0F
      -- -- -- -- -- -- -- --  -- -- -- -- -- -- -- --
0470: 53 F8 FF FF 7F F8 FF FF  7F 74 6C 73 30 00        S........tls0.  
```

#### Opcodes

```
  0: 0x0470 [0x53] WAIT_SCHEDULER_TASK: Wait for scheduler "tls0" with entities [EventEntity, EventEntity]
  1: 0x047D [0x00] END_REQSTACK()
```

### Event 65535.17

#### Metadata

| Field        | Value    |
|--------------|----------|
| Entrypoint   | 0x047E   |
| Data Size    | 16 bytes |
| Instructions | 2        |

```
      00 01 02 03 04 05 06 07  08 09 0A 0B 0C 0D 0E 0F
      -- -- -- -- -- -- -- --  -- -- -- -- -- -- -- --
0470:                                            5B 00                [.
0480: 80 F8 FF FF 7F F8 FF FF  7F 74 6C 73 31 00        .........tls1.  
```

#### Opcodes

```
  0: 0x047E [0x5B] LOAD_EXT_SCHEDULER: Load scheduler "tls1" with entities [EventEntity, EventEntity], work=1272*
  1: 0x048D [0x00] END_REQSTACK()
```

### Event 65535.18

#### Metadata

| Field        | Value    |
|--------------|----------|
| Entrypoint   | 0x048E   |
| Data Size    | 14 bytes |
| Instructions | 2        |

```
      00 01 02 03 04 05 06 07  08 09 0A 0B 0C 0D 0E 0F
      -- -- -- -- -- -- -- --  -- -- -- -- -- -- -- --
0480:                                            53 F8                S.
0490: FF FF 7F F8 FF FF 7F 74  6C 73 31 00              .......tls1.    
```

#### Opcodes

```
  0: 0x048E [0x53] WAIT_SCHEDULER_TASK: Wait for scheduler "tls1" with entities [EventEntity, EventEntity]
  1: 0x049B [0x00] END_REQSTACK()
```

### Event 65535.19

#### Metadata

| Field        | Value    |
|--------------|----------|
| Entrypoint   | 0x049C   |
| Data Size    | 22 bytes |
| Instructions | 3        |

```
      00 01 02 03 04 05 06 07  08 09 0A 0B 0C 0D 0E 0F
      -- -- -- -- -- -- -- --  -- -- -- -- -- -- -- --
0490:                                      81 00 F8 FF              ....
04A0: FF 7F 5B 2F 80 F8 FF FF  7F F8 FF FF 7F 74 68 61  ..[/.........tha
04B0: 30 00                                             0.              
```

#### Opcodes

```
  0: 0x049C [0x81] SET_ENTITY_BLINKING(blink_flag=0x00, entity=EventEntity)
  1: 0x04A2 [0x5B] LOAD_EXT_SCHEDULER: Load scheduler "tha0" with entities [EventEntity, EventEntity], work=1273*
  2: 0x04B1 [0x00] END_REQSTACK()
```

### Event 65535.20

#### Metadata

| Field        | Value    |
|--------------|----------|
| Entrypoint   | 0x04B2   |
| Data Size    | 14 bytes |
| Instructions | 2        |

```
      00 01 02 03 04 05 06 07  08 09 0A 0B 0C 0D 0E 0F
      -- -- -- -- -- -- -- --  -- -- -- -- -- -- -- --
04B0:       53 F8 FF FF 7F F8  FF FF 7F 74 68 61 30 00    S........tha0.
```

#### Opcodes

```
  0: 0x04B2 [0x53] WAIT_SCHEDULER_TASK: Wait for scheduler "tha0" with entities [EventEntity, EventEntity]
  1: 0x04BF [0x00] END_REQSTACK()
```

### Event 65535.21

#### Metadata

| Field        | Value    |
|--------------|----------|
| Entrypoint   | 0x04C0   |
| Data Size    | 22 bytes |
| Instructions | 3        |

```
      00 01 02 03 04 05 06 07  08 09 0A 0B 0C 0D 0E 0F
      -- -- -- -- -- -- -- --  -- -- -- -- -- -- -- --
04C0: 81 01 F8 FF FF 7F 5B 2F  80 F8 FF FF 7F F8 FF FF  ......[/........
04D0: 7F 74 68 61 31 00                                 .tha1.          
```

#### Opcodes

```
  0: 0x04C0 [0x81] SET_ENTITY_BLINKING(blink_flag=0x01, entity=EventEntity)
  1: 0x04C6 [0x5B] LOAD_EXT_SCHEDULER: Load scheduler "tha1" with entities [EventEntity, EventEntity], work=1273*
  2: 0x04D5 [0x00] END_REQSTACK()
```

### Event 65535.22

#### Metadata

| Field        | Value    |
|--------------|----------|
| Entrypoint   | 0x04D6   |
| Data Size    | 14 bytes |
| Instructions | 2        |

```
      00 01 02 03 04 05 06 07  08 09 0A 0B 0C 0D 0E 0F
      -- -- -- -- -- -- -- --  -- -- -- -- -- -- -- --
04D0:                   53 F8  FF FF 7F F8 FF FF 7F 74        S........t
04E0: 68 61 31 00                                       ha1.            
```

#### Opcodes

```
  0: 0x04D6 [0x53] WAIT_SCHEDULER_TASK: Wait for scheduler "tha1" with entities [EventEntity, EventEntity]
  1: 0x04E3 [0x00] END_REQSTACK()
```

### Event 65535.23

#### Metadata

| Field        | Value    |
|--------------|----------|
| Entrypoint   | 0x04E4   |
| Data Size    | 22 bytes |
| Instructions | 3        |

```
      00 01 02 03 04 05 06 07  08 09 0A 0B 0C 0D 0E 0F
      -- -- -- -- -- -- -- --  -- -- -- -- -- -- -- --
04E0:             81 00 F8 FF  FF 7F 5B 2F 80 F8 FF FF      ......[/....
04F0: 7F F8 FF FF 7F 74 68 62  30 00                    .....thb0.      
```

#### Opcodes

```
  0: 0x04E4 [0x81] SET_ENTITY_BLINKING(blink_flag=0x00, entity=EventEntity)
  1: 0x04EA [0x5B] LOAD_EXT_SCHEDULER: Load scheduler "thb0" with entities [EventEntity, EventEntity], work=1273*
  2: 0x04F9 [0x00] END_REQSTACK()
```

### Event 65535.24

#### Metadata

| Field        | Value    |
|--------------|----------|
| Entrypoint   | 0x04FA   |
| Data Size    | 14 bytes |
| Instructions | 2        |

```
      00 01 02 03 04 05 06 07  08 09 0A 0B 0C 0D 0E 0F
      -- -- -- -- -- -- -- --  -- -- -- -- -- -- -- --
04F0:                                53 F8 FF FF 7F F8            S.....
0500: FF FF 7F 74 68 62 30 00                           ...thb0.        
```

#### Opcodes

```
  0: 0x04FA [0x53] WAIT_SCHEDULER_TASK: Wait for scheduler "thb0" with entities [EventEntity, EventEntity]
  1: 0x0507 [0x00] END_REQSTACK()
```

### Event 65535.25

#### Metadata

| Field        | Value    |
|--------------|----------|
| Entrypoint   | 0x0508   |
| Data Size    | 22 bytes |
| Instructions | 3        |

```
      00 01 02 03 04 05 06 07  08 09 0A 0B 0C 0D 0E 0F
      -- -- -- -- -- -- -- --  -- -- -- -- -- -- -- --
0500:                          81 01 F8 FF FF 7F 5B 2F          ......[/
0510: 80 F8 FF FF 7F F8 FF FF  7F 74 68 62 31 00        .........thb1.  
```

#### Opcodes

```
  0: 0x0508 [0x81] SET_ENTITY_BLINKING(blink_flag=0x01, entity=EventEntity)
  1: 0x050E [0x5B] LOAD_EXT_SCHEDULER: Load scheduler "thb1" with entities [EventEntity, EventEntity], work=1273*
  2: 0x051D [0x00] END_REQSTACK()
```

### Event 65535.26

#### Metadata

| Field        | Value    |
|--------------|----------|
| Entrypoint   | 0x051E   |
| Data Size    | 14 bytes |
| Instructions | 2        |

```
      00 01 02 03 04 05 06 07  08 09 0A 0B 0C 0D 0E 0F
      -- -- -- -- -- -- -- --  -- -- -- -- -- -- -- --
0510:                                            53 F8                S.
0520: FF FF 7F F8 FF FF 7F 74  68 62 31 00              .......thb1.    
```

#### Opcodes

```
  0: 0x051E [0x53] WAIT_SCHEDULER_TASK: Wait for scheduler "thb1" with entities [EventEntity, EventEntity]
  1: 0x052B [0x00] END_REQSTACK()
```

### Event 65535.27

#### Metadata

| Field        | Value    |
|--------------|----------|
| Entrypoint   | 0x052C   |
| Data Size    | 28 bytes |
| Instructions | 4        |

```
      00 01 02 03 04 05 06 07  08 09 0A 0B 0C 0D 0E 0F
      -- -- -- -- -- -- -- --  -- -- -- -- -- -- -- --
0520:                                      81 00 F8 FF              ....
0530: FF 7F 7C 00 F8 FF FF 7F  5B 2F 80 F8 FF FF 7F F8  ..|.....[/......
0540: FF FF 7F 77 61 72 30 00                           ...war0.        
```

#### Opcodes

```
  0: 0x052C [0x81] SET_ENTITY_BLINKING(blink_flag=0x00, entity=EventEntity)
  1: 0x0532 [0x7C] EventEntity->Render.Flags2 |= 0x00
  2: 0x0538 [0x5B] LOAD_EXT_SCHEDULER: Load scheduler "war0" with entities [EventEntity, EventEntity], work=1273*
  3: 0x0547 [0x00] END_REQSTACK()
```

### Event 65535.28

#### Metadata

| Field        | Value    |
|--------------|----------|
| Entrypoint   | 0x0548   |
| Data Size    | 26 bytes |
| Instructions | 4        |

```
      00 01 02 03 04 05 06 07  08 09 0A 0B 0C 0D 0E 0F
      -- -- -- -- -- -- -- --  -- -- -- -- -- -- -- --
0540:                          53 F8 FF FF 7F F8 FF FF          S.......
0550: 7F 77 61 72 30 81 01 F8  FF FF 7F 7C 01 F8 FF FF  .war0......|....
0560: 7F 00                                             ..              
```

#### Opcodes

```
  0: 0x0548 [0x53] WAIT_SCHEDULER_TASK: Wait for scheduler "war0" with entities [EventEntity, EventEntity]
  1: 0x0555 [0x81] SET_ENTITY_BLINKING(blink_flag=0x01, entity=EventEntity)
  2: 0x055B [0x7C] EventEntity->Render.Flags2 |= 0x01
  3: 0x0561 [0x00] END_REQSTACK()
```

### Event 65535.29

#### Metadata

| Field        | Value    |
|--------------|----------|
| Entrypoint   | 0x0562   |
| Data Size    | 16 bytes |
| Instructions | 2        |

```
      00 01 02 03 04 05 06 07  08 09 0A 0B 0C 0D 0E 0F
      -- -- -- -- -- -- -- --  -- -- -- -- -- -- -- --
0560:       5B 30 80 F8 FF FF  7F F8 FF FF 7F 75 64 65    [0.........ude
0570: 30 00                                             0.              
```

#### Opcodes

```
  0: 0x0562 [0x5B] LOAD_EXT_SCHEDULER: Load scheduler "ude0" with entities [EventEntity, EventEntity], work=1299*
  1: 0x0571 [0x00] END_REQSTACK()
```

### Event 65535.30

#### Metadata

| Field        | Value    |
|--------------|----------|
| Entrypoint   | 0x0572   |
| Data Size    | 14 bytes |
| Instructions | 2        |

```
      00 01 02 03 04 05 06 07  08 09 0A 0B 0C 0D 0E 0F
      -- -- -- -- -- -- -- --  -- -- -- -- -- -- -- --
0570:       53 F8 FF FF 7F F8  FF FF 7F 75 64 65 30 00    S........ude0.
```

#### Opcodes

```
  0: 0x0572 [0x53] WAIT_SCHEDULER_TASK: Wait for scheduler "ude0" with entities [EventEntity, EventEntity]
  1: 0x057F [0x00] END_REQSTACK()
```

### Event 65535.31

#### Metadata

| Field        | Value    |
|--------------|----------|
| Entrypoint   | 0x0580   |
| Data Size    | 22 bytes |
| Instructions | 3        |

```
      00 01 02 03 04 05 06 07  08 09 0A 0B 0C 0D 0E 0F
      -- -- -- -- -- -- -- --  -- -- -- -- -- -- -- --
0580: 81 01 F8 FF FF 7F 5B 30  80 F8 FF FF 7F F8 FF FF  ......[0........
0590: 7F 75 64 65 31 00                                 .ude1.          
```

#### Opcodes

```
  0: 0x0580 [0x81] SET_ENTITY_BLINKING(blink_flag=0x01, entity=EventEntity)
  1: 0x0586 [0x5B] LOAD_EXT_SCHEDULER: Load scheduler "ude1" with entities [EventEntity, EventEntity], work=1299*
  2: 0x0595 [0x00] END_REQSTACK()
```

### Event 65535.32

#### Metadata

| Field        | Value    |
|--------------|----------|
| Entrypoint   | 0x0596   |
| Data Size    | 14 bytes |
| Instructions | 2        |

```
      00 01 02 03 04 05 06 07  08 09 0A 0B 0C 0D 0E 0F
      -- -- -- -- -- -- -- --  -- -- -- -- -- -- -- --
0590:                   53 F8  FF FF 7F F8 FF FF 7F 75        S........u
05A0: 64 65 31 00                                       de1.            
```

#### Opcodes

```
  0: 0x0596 [0x53] WAIT_SCHEDULER_TASK: Wait for scheduler "ude1" with entities [EventEntity, EventEntity]
  1: 0x05A3 [0x00] END_REQSTACK()
```

### Event 65535.33

#### Metadata

| Field        | Value    |
|--------------|----------|
| Entrypoint   | 0x05A4   |
| Data Size    | 28 bytes |
| Instructions | 4        |

```
      00 01 02 03 04 05 06 07  08 09 0A 0B 0C 0D 0E 0F
      -- -- -- -- -- -- -- --  -- -- -- -- -- -- -- --
05A0:             81 00 F8 FF  FF 7F 7C 00 F8 FF FF 7F      ......|.....
05B0: 5B 0F 80 F8 FF FF 7F F8  FF FF 7F 68 65 79 30 00  [..........hey0.
```

#### Opcodes

```
  0: 0x05A4 [0x81] SET_ENTITY_BLINKING(blink_flag=0x00, entity=EventEntity)
  1: 0x05AA [0x7C] EventEntity->Render.Flags2 |= 0x00
  2: 0x05B0 [0x5B] LOAD_EXT_SCHEDULER: Load scheduler "hey0" with entities [EventEntity, EventEntity], work=1301*
  3: 0x05BF [0x00] END_REQSTACK()
```

### Event 65535.34

#### Metadata

| Field        | Value    |
|--------------|----------|
| Entrypoint   | 0x05C0   |
| Data Size    | 26 bytes |
| Instructions | 4        |

```
      00 01 02 03 04 05 06 07  08 09 0A 0B 0C 0D 0E 0F
      -- -- -- -- -- -- -- --  -- -- -- -- -- -- -- --
05C0: 53 F8 FF FF 7F F8 FF FF  7F 68 65 79 30 81 01 F8  S........hey0...
05D0: FF FF 7F 7C 01 F8 FF FF  7F 00                    ...|......      
```

#### Opcodes

```
  0: 0x05C0 [0x53] WAIT_SCHEDULER_TASK: Wait for scheduler "hey0" with entities [EventEntity, EventEntity]
  1: 0x05CD [0x81] SET_ENTITY_BLINKING(blink_flag=0x01, entity=EventEntity)
  2: 0x05D3 [0x7C] EventEntity->Render.Flags2 |= 0x01
  3: 0x05D9 [0x00] END_REQSTACK()
```

### Event 65535.35

#### Metadata

| Field        | Value    |
|--------------|----------|
| Entrypoint   | 0x05DA   |
| Data Size    | 16 bytes |
| Instructions | 2        |

```
      00 01 02 03 04 05 06 07  08 09 0A 0B 0C 0D 0E 0F
      -- -- -- -- -- -- -- --  -- -- -- -- -- -- -- --
05D0:                                5B 0F 80 F8 FF FF            [.....
05E0: 7F F8 FF FF 7F 6B 65 69  30 00                    .....kei0.      
```

#### Opcodes

```
  0: 0x05DA [0x5B] LOAD_EXT_SCHEDULER: Load scheduler "kei0" with entities [EventEntity, EventEntity], work=1301*
  1: 0x05E9 [0x00] END_REQSTACK()
```

### Event 65535.36

#### Metadata

| Field        | Value    |
|--------------|----------|
| Entrypoint   | 0x05EA   |
| Data Size    | 14 bytes |
| Instructions | 2        |

```
      00 01 02 03 04 05 06 07  08 09 0A 0B 0C 0D 0E 0F
      -- -- -- -- -- -- -- --  -- -- -- -- -- -- -- --
05E0:                                53 F8 FF FF 7F F8            S.....
05F0: FF FF 7F 6B 65 69 30 00                           ...kei0.        
```

#### Opcodes

```
  0: 0x05EA [0x53] WAIT_SCHEDULER_TASK: Wait for scheduler "kei0" with entities [EventEntity, EventEntity]
  1: 0x05F7 [0x00] END_REQSTACK()
```

### Event 65535.37

#### Metadata

| Field        | Value    |
|--------------|----------|
| Entrypoint   | 0x05F8   |
| Data Size    | 16 bytes |
| Instructions | 2        |

```
      00 01 02 03 04 05 06 07  08 09 0A 0B 0C 0D 0E 0F
      -- -- -- -- -- -- -- --  -- -- -- -- -- -- -- --
05F0:                          5B 0F 80 F8 FF FF 7F F8          [.......
0600: FF FF 7F 6B 65 69 31 00                           ...kei1.        
```

#### Opcodes

```
  0: 0x05F8 [0x5B] LOAD_EXT_SCHEDULER: Load scheduler "kei1" with entities [EventEntity, EventEntity], work=1301*
  1: 0x0607 [0x00] END_REQSTACK()
```

### Event 65535.38

#### Metadata

| Field        | Value    |
|--------------|----------|
| Entrypoint   | 0x0608   |
| Data Size    | 14 bytes |
| Instructions | 2        |

```
      00 01 02 03 04 05 06 07  08 09 0A 0B 0C 0D 0E 0F
      -- -- -- -- -- -- -- --  -- -- -- -- -- -- -- --
0600:                          53 F8 FF FF 7F F8 FF FF          S.......
0610: 7F 6B 65 69 31 00                                 .kei1.          
```

#### Opcodes

```
  0: 0x0608 [0x53] WAIT_SCHEDULER_TASK: Wait for scheduler "kei1" with entities [EventEntity, EventEntity]
  1: 0x0615 [0x00] END_REQSTACK()
```

### Event 65535.39

#### Metadata

| Field        | Value    |
|--------------|----------|
| Entrypoint   | 0x0616   |
| Data Size    | 16 bytes |
| Instructions | 2        |

```
      00 01 02 03 04 05 06 07  08 09 0A 0B 0C 0D 0E 0F
      -- -- -- -- -- -- -- --  -- -- -- -- -- -- -- --
0610:                   5B 0F  80 F8 FF FF 7F F8 FF FF        [.........
0620: 7F 73 68 61 30 00                                 .sha0.          
```

#### Opcodes

```
  0: 0x0616 [0x5B] LOAD_EXT_SCHEDULER: Load scheduler "sha0" with entities [EventEntity, EventEntity], work=1301*
  1: 0x0625 [0x00] END_REQSTACK()
```

### Event 65535.40

#### Metadata

| Field        | Value    |
|--------------|----------|
| Entrypoint   | 0x0626   |
| Data Size    | 14 bytes |
| Instructions | 2        |

```
      00 01 02 03 04 05 06 07  08 09 0A 0B 0C 0D 0E 0F
      -- -- -- -- -- -- -- --  -- -- -- -- -- -- -- --
0620:                   53 F8  FF FF 7F F8 FF FF 7F 73        S........s
0630: 68 61 30 00                                       ha0.            
```

#### Opcodes

```
  0: 0x0626 [0x53] WAIT_SCHEDULER_TASK: Wait for scheduler "sha0" with entities [EventEntity, EventEntity]
  1: 0x0633 [0x00] END_REQSTACK()
```

### Event 65535.41

#### Metadata

| Field        | Value    |
|--------------|----------|
| Entrypoint   | 0x0634   |
| Data Size    | 16 bytes |
| Instructions | 2        |

```
      00 01 02 03 04 05 06 07  08 09 0A 0B 0C 0D 0E 0F
      -- -- -- -- -- -- -- --  -- -- -- -- -- -- -- --
0630:             5B 0F 80 F8  FF FF 7F F8 FF FF 7F 73      [..........s
0640: 68 61 31 00                                       ha1.            
```

#### Opcodes

```
  0: 0x0634 [0x5B] LOAD_EXT_SCHEDULER: Load scheduler "sha1" with entities [EventEntity, EventEntity], work=1301*
  1: 0x0643 [0x00] END_REQSTACK()
```

### Event 65535.42

#### Metadata

| Field        | Value    |
|--------------|----------|
| Entrypoint   | 0x0644   |
| Data Size    | 14 bytes |
| Instructions | 2        |

```
      00 01 02 03 04 05 06 07  08 09 0A 0B 0C 0D 0E 0F
      -- -- -- -- -- -- -- --  -- -- -- -- -- -- -- --
0640:             53 F8 FF FF  7F F8 FF FF 7F 73 68 61      S........sha
0650: 31 00                                             1.              
```

#### Opcodes

```
  0: 0x0644 [0x53] WAIT_SCHEDULER_TASK: Wait for scheduler "sha1" with entities [EventEntity, EventEntity]
  1: 0x0651 [0x00] END_REQSTACK()
```

### Event 65535.43

#### Metadata

| Field        | Value    |
|--------------|----------|
| Entrypoint   | 0x0652   |
| Data Size    | 28 bytes |
| Instructions | 4        |

```
      00 01 02 03 04 05 06 07  08 09 0A 0B 0C 0D 0E 0F
      -- -- -- -- -- -- -- --  -- -- -- -- -- -- -- --
0650:       81 00 F8 FF FF 7F  7C 00 F8 FF FF 7F 5B 31    ......|.....[1
0660: 80 F8 FF FF 7F F8 FF FF  7F 62 69 6B 30 00        .........bik0.  
```

#### Opcodes

```
  0: 0x0652 [0x81] SET_ENTITY_BLINKING(blink_flag=0x00, entity=EventEntity)
  1: 0x0658 [0x7C] EventEntity->Render.Flags2 |= 0x00
  2: 0x065E [0x5B] LOAD_EXT_SCHEDULER: Load scheduler "bik0" with entities [EventEntity, EventEntity], work=1437*
  3: 0x066D [0x00] END_REQSTACK()
```

### Event 65535.44

#### Metadata

| Field        | Value    |
|--------------|----------|
| Entrypoint   | 0x066E   |
| Data Size    | 14 bytes |
| Instructions | 2        |

```
      00 01 02 03 04 05 06 07  08 09 0A 0B 0C 0D 0E 0F
      -- -- -- -- -- -- -- --  -- -- -- -- -- -- -- --
0660:                                            53 F8                S.
0670: FF FF 7F F8 FF FF 7F 62  69 6B 30 00              .......bik0.    
```

#### Opcodes

```
  0: 0x066E [0x53] WAIT_SCHEDULER_TASK: Wait for scheduler "bik0" with entities [EventEntity, EventEntity]
  1: 0x067B [0x00] END_REQSTACK()
```

### Event 65535.45

#### Metadata

| Field        | Value    |
|--------------|----------|
| Entrypoint   | 0x067C   |
| Data Size    | 16 bytes |
| Instructions | 2        |

```
      00 01 02 03 04 05 06 07  08 09 0A 0B 0C 0D 0E 0F
      -- -- -- -- -- -- -- --  -- -- -- -- -- -- -- --
0670:                                      5B 31 80 F8              [1..
0680: FF FF 7F F8 FF FF 7F 62  69 6B 31 00              .......bik1.    
```

#### Opcodes

```
  0: 0x067C [0x5B] LOAD_EXT_SCHEDULER: Load scheduler "bik1" with entities [EventEntity, EventEntity], work=1437*
  1: 0x068B [0x00] END_REQSTACK()
```

### Event 65535.46

#### Metadata

| Field        | Value    |
|--------------|----------|
| Entrypoint   | 0x068C   |
| Data Size    | 26 bytes |
| Instructions | 4        |

```
      00 01 02 03 04 05 06 07  08 09 0A 0B 0C 0D 0E 0F
      -- -- -- -- -- -- -- --  -- -- -- -- -- -- -- --
0680:                                      53 F8 FF FF              S...
0690: 7F F8 FF FF 7F 62 69 6B  31 81 01 F8 FF FF 7F 7C  .....bik1......|
06A0: 01 F8 FF FF 7F 00                                 ......          
```

#### Opcodes

```
  0: 0x068C [0x53] WAIT_SCHEDULER_TASK: Wait for scheduler "bik1" with entities [EventEntity, EventEntity]
  1: 0x0699 [0x81] SET_ENTITY_BLINKING(blink_flag=0x01, entity=EventEntity)
  2: 0x069F [0x7C] EventEntity->Render.Flags2 |= 0x01
  3: 0x06A5 [0x00] END_REQSTACK()
```

### Event 65535.47

#### Metadata

| Field        | Value    |
|--------------|----------|
| Entrypoint   | 0x06A6   |
| Data Size    | 16 bytes |
| Instructions | 2        |

```
      00 01 02 03 04 05 06 07  08 09 0A 0B 0C 0D 0E 0F
      -- -- -- -- -- -- -- --  -- -- -- -- -- -- -- --
06A0:                   5B 29  80 F8 FF FF 7F F8 FF FF        [)........
06B0: 7F 70 6E 74 30 00                                 .pnt0.          
```

#### Opcodes

```
  0: 0x06A6 [0x5B] LOAD_EXT_SCHEDULER: Load scheduler "pnt0" with entities [EventEntity, EventEntity], work=1438*
  1: 0x06B5 [0x00] END_REQSTACK()
```

### Event 65535.48

#### Metadata

| Field        | Value    |
|--------------|----------|
| Entrypoint   | 0x06B6   |
| Data Size    | 14 bytes |
| Instructions | 2        |

```
      00 01 02 03 04 05 06 07  08 09 0A 0B 0C 0D 0E 0F
      -- -- -- -- -- -- -- --  -- -- -- -- -- -- -- --
06B0:                   53 F8  FF FF 7F F8 FF FF 7F 70        S........p
06C0: 6E 74 30 00                                       nt0.            
```

#### Opcodes

```
  0: 0x06B6 [0x53] WAIT_SCHEDULER_TASK: Wait for scheduler "pnt0" with entities [EventEntity, EventEntity]
  1: 0x06C3 [0x00] END_REQSTACK()
```

### Event 65535.49

#### Metadata

| Field        | Value    |
|--------------|----------|
| Entrypoint   | 0x06C4   |
| Data Size    | 16 bytes |
| Instructions | 2        |

```
      00 01 02 03 04 05 06 07  08 09 0A 0B 0C 0D 0E 0F
      -- -- -- -- -- -- -- --  -- -- -- -- -- -- -- --
06C0:             5B 29 80 F8  FF FF 7F F8 FF FF 7F 70      [).........p
06D0: 6E 74 31 00                                       nt1.            
```

#### Opcodes

```
  0: 0x06C4 [0x5B] LOAD_EXT_SCHEDULER: Load scheduler "pnt1" with entities [EventEntity, EventEntity], work=1438*
  1: 0x06D3 [0x00] END_REQSTACK()
```

### Event 65535.50

#### Metadata

| Field        | Value    |
|--------------|----------|
| Entrypoint   | 0x06D4   |
| Data Size    | 14 bytes |
| Instructions | 2        |

```
      00 01 02 03 04 05 06 07  08 09 0A 0B 0C 0D 0E 0F
      -- -- -- -- -- -- -- --  -- -- -- -- -- -- -- --
06D0:             53 F8 FF FF  7F F8 FF FF 7F 70 6E 74      S........pnt
06E0: 31 00                                             1.              
```

#### Opcodes

```
  0: 0x06D4 [0x53] WAIT_SCHEDULER_TASK: Wait for scheduler "pnt1" with entities [EventEntity, EventEntity]
  1: 0x06E1 [0x00] END_REQSTACK()
```

### Event 65535.51

#### Metadata

| Field        | Value    |
|--------------|----------|
| Entrypoint   | 0x06E2   |
| Data Size    | 16 bytes |
| Instructions | 2        |

```
      00 01 02 03 04 05 06 07  08 09 0A 0B 0C 0D 0E 0F
      -- -- -- -- -- -- -- --  -- -- -- -- -- -- -- --
06E0:       5B 29 80 F8 FF FF  7F F8 FF FF 7F 77 61 76    [).........wav
06F0: 30 00                                             0.              
```

#### Opcodes

```
  0: 0x06E2 [0x5B] LOAD_EXT_SCHEDULER: Load scheduler "wav0" with entities [EventEntity, EventEntity], work=1438*
  1: 0x06F1 [0x00] END_REQSTACK()
```

### Event 65535.52

#### Metadata

| Field        | Value    |
|--------------|----------|
| Entrypoint   | 0x06F2   |
| Data Size    | 14 bytes |
| Instructions | 2        |

```
      00 01 02 03 04 05 06 07  08 09 0A 0B 0C 0D 0E 0F
      -- -- -- -- -- -- -- --  -- -- -- -- -- -- -- --
06F0:       53 F8 FF FF 7F F8  FF FF 7F 77 61 76 30 00    S........wav0.
```

#### Opcodes

```
  0: 0x06F2 [0x53] WAIT_SCHEDULER_TASK: Wait for scheduler "wav0" with entities [EventEntity, EventEntity]
  1: 0x06FF [0x00] END_REQSTACK()
```

### Event 65535.53

#### Metadata

| Field        | Value    |
|--------------|----------|
| Entrypoint   | 0x0700   |
| Data Size    | 16 bytes |
| Instructions | 2        |

```
      00 01 02 03 04 05 06 07  08 09 0A 0B 0C 0D 0E 0F
      -- -- -- -- -- -- -- --  -- -- -- -- -- -- -- --
0700: 5B 32 80 F8 FF FF 7F F8  FF FF 7F 69 6B 61 30 00  [2.........ika0.
```

#### Opcodes

```
  0: 0x0700 [0x5B] LOAD_EXT_SCHEDULER: Load scheduler "ika0" with entities [EventEntity, EventEntity], work=1439*
  1: 0x070F [0x00] END_REQSTACK()
```

### Event 65535.54

#### Metadata

| Field        | Value    |
|--------------|----------|
| Entrypoint   | 0x0710   |
| Data Size    | 14 bytes |
| Instructions | 2        |

```
      00 01 02 03 04 05 06 07  08 09 0A 0B 0C 0D 0E 0F
      -- -- -- -- -- -- -- --  -- -- -- -- -- -- -- --
0710: 53 F8 FF FF 7F F8 FF FF  7F 69 6B 61 30 00        S........ika0.  
```

#### Opcodes

```
  0: 0x0710 [0x53] WAIT_SCHEDULER_TASK: Wait for scheduler "ika0" with entities [EventEntity, EventEntity]
  1: 0x071D [0x00] END_REQSTACK()
```

### Event 65535.55

#### Metadata

| Field        | Value    |
|--------------|----------|
| Entrypoint   | 0x071E   |
| Data Size    | 16 bytes |
| Instructions | 2        |

```
      00 01 02 03 04 05 06 07  08 09 0A 0B 0C 0D 0E 0F
      -- -- -- -- -- -- -- --  -- -- -- -- -- -- -- --
0710:                                            5B 32                [2
0720: 80 F8 FF FF 7F F8 FF FF  7F 69 6B 61 31 00        .........ika1.  
```

#### Opcodes

```
  0: 0x071E [0x5B] LOAD_EXT_SCHEDULER: Load scheduler "ika1" with entities [EventEntity, EventEntity], work=1439*
  1: 0x072D [0x00] END_REQSTACK()
```

### Event 65535.56

#### Metadata

| Field        | Value    |
|--------------|----------|
| Entrypoint   | 0x072E   |
| Data Size    | 14 bytes |
| Instructions | 2        |

```
      00 01 02 03 04 05 06 07  08 09 0A 0B 0C 0D 0E 0F
      -- -- -- -- -- -- -- --  -- -- -- -- -- -- -- --
0720:                                            53 F8                S.
0730: FF FF 7F F8 FF FF 7F 69  6B 61 31 00              .......ika1.    
```

#### Opcodes

```
  0: 0x072E [0x53] WAIT_SCHEDULER_TASK: Wait for scheduler "ika1" with entities [EventEntity, EventEntity]
  1: 0x073B [0x00] END_REQSTACK()
```

### Event 65535.57

#### Metadata

| Field        | Value    |
|--------------|----------|
| Entrypoint   | 0x073C   |
| Data Size    | 16 bytes |
| Instructions | 2        |

```
      00 01 02 03 04 05 06 07  08 09 0A 0B 0C 0D 0E 0F
      -- -- -- -- -- -- -- --  -- -- -- -- -- -- -- --
0730:                                      5B 32 80 F8              [2..
0740: FF FF 7F F8 FF FF 7F 69  6B 61 32 00              .......ika2.    
```

#### Opcodes

```
  0: 0x073C [0x5B] LOAD_EXT_SCHEDULER: Load scheduler "ika2" with entities [EventEntity, EventEntity], work=1439*
  1: 0x074B [0x00] END_REQSTACK()
```

### Event 65535.58

#### Metadata

| Field        | Value    |
|--------------|----------|
| Entrypoint   | 0x074C   |
| Data Size    | 14 bytes |
| Instructions | 2        |

```
      00 01 02 03 04 05 06 07  08 09 0A 0B 0C 0D 0E 0F
      -- -- -- -- -- -- -- --  -- -- -- -- -- -- -- --
0740:                                      53 F8 FF FF              S...
0750: 7F F8 FF FF 7F 69 6B 61  32 00                    .....ika2.      
```

#### Opcodes

```
  0: 0x074C [0x53] WAIT_SCHEDULER_TASK: Wait for scheduler "ika2" with entities [EventEntity, EventEntity]
  1: 0x0759 [0x00] END_REQSTACK()
```

### Event 65535.59

#### Metadata

| Field        | Value    |
|--------------|----------|
| Entrypoint   | 0x075A   |
| Data Size    | 16 bytes |
| Instructions | 2        |

```
      00 01 02 03 04 05 06 07  08 09 0A 0B 0C 0D 0E 0F
      -- -- -- -- -- -- -- --  -- -- -- -- -- -- -- --
0750:                                5B 32 80 F8 FF FF            [2....
0760: 7F F8 FF FF 7F 69 6B 61  33 00                    .....ika3.      
```

#### Opcodes

```
  0: 0x075A [0x5B] LOAD_EXT_SCHEDULER: Load scheduler "ika3" with entities [EventEntity, EventEntity], work=1439*
  1: 0x0769 [0x00] END_REQSTACK()
```

### Event 65535.60

#### Metadata

| Field        | Value    |
|--------------|----------|
| Entrypoint   | 0x076A   |
| Data Size    | 14 bytes |
| Instructions | 2        |

```
      00 01 02 03 04 05 06 07  08 09 0A 0B 0C 0D 0E 0F
      -- -- -- -- -- -- -- --  -- -- -- -- -- -- -- --
0760:                                53 F8 FF FF 7F F8            S.....
0770: FF FF 7F 69 6B 61 33 00                           ...ika3.        
```

#### Opcodes

```
  0: 0x076A [0x53] WAIT_SCHEDULER_TASK: Wait for scheduler "ika3" with entities [EventEntity, EventEntity]
  1: 0x0777 [0x00] END_REQSTACK()
```

### Event 65535.61

#### Metadata

| Field        | Value    |
|--------------|----------|
| Entrypoint   | 0x0778   |
| Data Size    | 16 bytes |
| Instructions | 2        |

```
      00 01 02 03 04 05 06 07  08 09 0A 0B 0C 0D 0E 0F
      -- -- -- -- -- -- -- --  -- -- -- -- -- -- -- --
0770:                          5B 33 80 F8 FF FF 7F F8          [3......
0780: FF FF 7F 79 65 73 30 00                           ...yes0.        
```

#### Opcodes

```
  0: 0x0778 [0x5B] LOAD_EXT_SCHEDULER: Load scheduler "yes0" with entities [EventEntity, EventEntity], work=2349*
  1: 0x0787 [0x00] END_REQSTACK()
```

### Event 65535.62

#### Metadata

| Field        | Value    |
|--------------|----------|
| Entrypoint   | 0x0788   |
| Data Size    | 14 bytes |
| Instructions | 2        |

```
      00 01 02 03 04 05 06 07  08 09 0A 0B 0C 0D 0E 0F
      -- -- -- -- -- -- -- --  -- -- -- -- -- -- -- --
0780:                          53 F8 FF FF 7F F8 FF FF          S.......
0790: 7F 79 65 73 30 00                                 .yes0.          
```

#### Opcodes

```
  0: 0x0788 [0x53] WAIT_SCHEDULER_TASK: Wait for scheduler "yes0" with entities [EventEntity, EventEntity]
  1: 0x0795 [0x00] END_REQSTACK()
```

### Event 65535.63

#### Metadata

| Field        | Value    |
|--------------|----------|
| Entrypoint   | 0x0796   |
| Data Size    | 16 bytes |
| Instructions | 2        |

```
      00 01 02 03 04 05 06 07  08 09 0A 0B 0C 0D 0E 0F
      -- -- -- -- -- -- -- --  -- -- -- -- -- -- -- --
0790:                   5B 33  80 F8 FF FF 7F F8 FF FF        [3........
07A0: 7F 70 61 73 30 00                                 .pas0.          
```

#### Opcodes

```
  0: 0x0796 [0x5B] LOAD_EXT_SCHEDULER: Load scheduler "pas0" with entities [EventEntity, EventEntity], work=2349*
  1: 0x07A5 [0x00] END_REQSTACK()
```

### Event 65535.64

#### Metadata

| Field        | Value    |
|--------------|----------|
| Entrypoint   | 0x07A6   |
| Data Size    | 14 bytes |
| Instructions | 2        |

```
      00 01 02 03 04 05 06 07  08 09 0A 0B 0C 0D 0E 0F
      -- -- -- -- -- -- -- --  -- -- -- -- -- -- -- --
07A0:                   53 F8  FF FF 7F F8 FF FF 7F 70        S........p
07B0: 61 73 30 00                                       as0.            
```

#### Opcodes

```
  0: 0x07A6 [0x53] WAIT_SCHEDULER_TASK: Wait for scheduler "pas0" with entities [EventEntity, EventEntity]
  1: 0x07B3 [0x00] END_REQSTACK()
```

### Event 65535.65

#### Metadata

| Field        | Value    |
|--------------|----------|
| Entrypoint   | 0x07B4   |
| Data Size    | 28 bytes |
| Instructions | 4        |

```
      00 01 02 03 04 05 06 07  08 09 0A 0B 0C 0D 0E 0F
      -- -- -- -- -- -- -- --  -- -- -- -- -- -- -- --
07B0:             81 00 F8 FF  FF 7F 7C 00 F8 FF FF 7F      ......|.....
07C0: 5B 33 80 F8 FF FF 7F F8  FF FF 7F 6C 61 75 30 00  [3.........lau0.
```

#### Opcodes

```
  0: 0x07B4 [0x81] SET_ENTITY_BLINKING(blink_flag=0x00, entity=EventEntity)
  1: 0x07BA [0x7C] EventEntity->Render.Flags2 |= 0x00
  2: 0x07C0 [0x5B] LOAD_EXT_SCHEDULER: Load scheduler "lau0" with entities [EventEntity, EventEntity], work=2349*
  3: 0x07CF [0x00] END_REQSTACK()
```

### Event 65535.66

#### Metadata

| Field        | Value    |
|--------------|----------|
| Entrypoint   | 0x07D0   |
| Data Size    | 26 bytes |
| Instructions | 4        |

```
      00 01 02 03 04 05 06 07  08 09 0A 0B 0C 0D 0E 0F
      -- -- -- -- -- -- -- --  -- -- -- -- -- -- -- --
07D0: 53 F8 FF FF 7F F8 FF FF  7F 6C 61 75 30 81 01 F8  S........lau0...
07E0: FF FF 7F 7C 01 F8 FF FF  7F 00                    ...|......      
```

#### Opcodes

```
  0: 0x07D0 [0x53] WAIT_SCHEDULER_TASK: Wait for scheduler "lau0" with entities [EventEntity, EventEntity]
  1: 0x07DD [0x81] SET_ENTITY_BLINKING(blink_flag=0x01, entity=EventEntity)
  2: 0x07E3 [0x7C] EventEntity->Render.Flags2 |= 0x01
  3: 0x07E9 [0x00] END_REQSTACK()
```

### Event 65535.67

#### Metadata

| Field        | Value    |
|--------------|----------|
| Entrypoint   | 0x07EA   |
| Data Size    | 16 bytes |
| Instructions | 2        |

```
      00 01 02 03 04 05 06 07  08 09 0A 0B 0C 0D 0E 0F
      -- -- -- -- -- -- -- --  -- -- -- -- -- -- -- --
07E0:                                5B 34 80 F8 FF FF            [4....
07F0: 7F F8 FF FF 7F 6F 6F 69  30 00                    .....ooi0.      
```

#### Opcodes

```
  0: 0x07EA [0x5B] LOAD_EXT_SCHEDULER: Load scheduler "ooi0" with entities [EventEntity, EventEntity], work=2350*
  1: 0x07F9 [0x00] END_REQSTACK()
```

### Event 65535.68

#### Metadata

| Field        | Value    |
|--------------|----------|
| Entrypoint   | 0x07FA   |
| Data Size    | 14 bytes |
| Instructions | 2        |

```
      00 01 02 03 04 05 06 07  08 09 0A 0B 0C 0D 0E 0F
      -- -- -- -- -- -- -- --  -- -- -- -- -- -- -- --
07F0:                                53 F8 FF FF 7F F8            S.....
0800: FF FF 7F 6F 6F 69 30 00                           ...ooi0.        
```

#### Opcodes

```
  0: 0x07FA [0x53] WAIT_SCHEDULER_TASK: Wait for scheduler "ooi0" with entities [EventEntity, EventEntity]
  1: 0x0807 [0x00] END_REQSTACK()
```

### Event 65535.69

#### Metadata

| Field        | Value    |
|--------------|----------|
| Entrypoint   | 0x0808   |
| Data Size    | 16 bytes |
| Instructions | 2        |

```
      00 01 02 03 04 05 06 07  08 09 0A 0B 0C 0D 0E 0F
      -- -- -- -- -- -- -- --  -- -- -- -- -- -- -- --
0800:                          5B 34 80 F8 FF FF 7F F8          [4......
0810: FF FF 7F 6F 6F 69 31 00                           ...ooi1.        
```

#### Opcodes

```
  0: 0x0808 [0x5B] LOAD_EXT_SCHEDULER: Load scheduler "ooi1" with entities [EventEntity, EventEntity], work=2350*
  1: 0x0817 [0x00] END_REQSTACK()
```

### Event 65535.70

#### Metadata

| Field        | Value    |
|--------------|----------|
| Entrypoint   | 0x0818   |
| Data Size    | 14 bytes |
| Instructions | 2        |

```
      00 01 02 03 04 05 06 07  08 09 0A 0B 0C 0D 0E 0F
      -- -- -- -- -- -- -- --  -- -- -- -- -- -- -- --
0810:                          53 F8 FF FF 7F F8 FF FF          S.......
0820: 7F 6F 6F 69 31 00                                 .ooi1.          
```

#### Opcodes

```
  0: 0x0818 [0x53] WAIT_SCHEDULER_TASK: Wait for scheduler "ooi1" with entities [EventEntity, EventEntity]
  1: 0x0825 [0x00] END_REQSTACK()
```

### Event 65535.71

#### Metadata

| Field        | Value    |
|--------------|----------|
| Entrypoint   | 0x0826   |
| Data Size    | 28 bytes |
| Instructions | 4        |

```
      00 01 02 03 04 05 06 07  08 09 0A 0B 0C 0D 0E 0F
      -- -- -- -- -- -- -- --  -- -- -- -- -- -- -- --
0820:                   81 00  F8 FF FF 7F 7C 00 F8 FF        ......|...
0830: FF 7F 5B 34 80 F8 FF FF  7F F8 FF FF 7F 73 68 74  ..[4.........sht
0840: 30 00                                             0.              
```

#### Opcodes

```
  0: 0x0826 [0x81] SET_ENTITY_BLINKING(blink_flag=0x00, entity=EventEntity)
  1: 0x082C [0x7C] EventEntity->Render.Flags2 |= 0x00
  2: 0x0832 [0x5B] LOAD_EXT_SCHEDULER: Load scheduler "sht0" with entities [EventEntity, EventEntity], work=2350*
  3: 0x0841 [0x00] END_REQSTACK()
```

### Event 65535.72

#### Metadata

| Field        | Value    |
|--------------|----------|
| Entrypoint   | 0x0842   |
| Data Size    | 14 bytes |
| Instructions | 2        |

```
      00 01 02 03 04 05 06 07  08 09 0A 0B 0C 0D 0E 0F
      -- -- -- -- -- -- -- --  -- -- -- -- -- -- -- --
0840:       53 F8 FF FF 7F F8  FF FF 7F 73 68 74 30 00    S........sht0.
```

#### Opcodes

```
  0: 0x0842 [0x53] WAIT_SCHEDULER_TASK: Wait for scheduler "sht0" with entities [EventEntity, EventEntity]
  1: 0x084F [0x00] END_REQSTACK()
```

### Event 65535.73

#### Metadata

| Field        | Value    |
|--------------|----------|
| Entrypoint   | 0x0850   |
| Data Size    | 16 bytes |
| Instructions | 2        |

```
      00 01 02 03 04 05 06 07  08 09 0A 0B 0C 0D 0E 0F
      -- -- -- -- -- -- -- --  -- -- -- -- -- -- -- --
0850: 5B 34 80 F8 FF FF 7F F8  FF FF 7F 73 68 74 31 00  [4.........sht1.
```

#### Opcodes

```
  0: 0x0850 [0x5B] LOAD_EXT_SCHEDULER: Load scheduler "sht1" with entities [EventEntity, EventEntity], work=2350*
  1: 0x085F [0x00] END_REQSTACK()
```

### Event 65535.74

#### Metadata

| Field        | Value    |
|--------------|----------|
| Entrypoint   | 0x0860   |
| Data Size    | 26 bytes |
| Instructions | 4        |

```
      00 01 02 03 04 05 06 07  08 09 0A 0B 0C 0D 0E 0F
      -- -- -- -- -- -- -- --  -- -- -- -- -- -- -- --
0860: 53 F8 FF FF 7F F8 FF FF  7F 73 68 74 31 81 01 F8  S........sht1...
0870: FF FF 7F 7C 01 F8 FF FF  7F 00                    ...|......      
```

#### Opcodes

```
  0: 0x0860 [0x53] WAIT_SCHEDULER_TASK: Wait for scheduler "sht1" with entities [EventEntity, EventEntity]
  1: 0x086D [0x81] SET_ENTITY_BLINKING(blink_flag=0x01, entity=EventEntity)
  2: 0x0873 [0x7C] EventEntity->Render.Flags2 |= 0x01
  3: 0x0879 [0x00] END_REQSTACK()
```

### Event 65535.75

#### Metadata

| Field        | Value    |
|--------------|----------|
| Entrypoint   | 0x087A   |
| Data Size    | 16 bytes |
| Instructions | 2        |

```
      00 01 02 03 04 05 06 07  08 09 0A 0B 0C 0D 0E 0F
      -- -- -- -- -- -- -- --  -- -- -- -- -- -- -- --
0870:                                5B 35 80 F8 FF FF            [5....
0880: 7F F8 FF FF 7F 69 72 61  30 00                    .....ira0.      
```

#### Opcodes

```
  0: 0x087A [0x5B] LOAD_EXT_SCHEDULER: Load scheduler "ira0" with entities [EventEntity, EventEntity], work=2351*
  1: 0x0889 [0x00] END_REQSTACK()
```

### Event 65535.76

#### Metadata

| Field        | Value    |
|--------------|----------|
| Entrypoint   | 0x088A   |
| Data Size    | 14 bytes |
| Instructions | 2        |

```
      00 01 02 03 04 05 06 07  08 09 0A 0B 0C 0D 0E 0F
      -- -- -- -- -- -- -- --  -- -- -- -- -- -- -- --
0880:                                53 F8 FF FF 7F F8            S.....
0890: FF FF 7F 69 72 61 30 00                           ...ira0.        
```

#### Opcodes

```
  0: 0x088A [0x53] WAIT_SCHEDULER_TASK: Wait for scheduler "ira0" with entities [EventEntity, EventEntity]
  1: 0x0897 [0x00] END_REQSTACK()
```

### Event 65535.77

#### Metadata

| Field        | Value    |
|--------------|----------|
| Entrypoint   | 0x0898   |
| Data Size    | 16 bytes |
| Instructions | 2        |

```
      00 01 02 03 04 05 06 07  08 09 0A 0B 0C 0D 0E 0F
      -- -- -- -- -- -- -- --  -- -- -- -- -- -- -- --
0890:                          5B 35 80 F8 FF FF 7F F8          [5......
08A0: FF FF 7F 69 72 61 31 00                           ...ira1.        
```

#### Opcodes

```
