# 17105539 - Lilisette

## Common Data

| Field            | Value                            |
|------------------|----------------------------------|
| Zone             | Southern San d'Oria [S] (ID: 80) |
| Block Size       | 1556 bytes                       |
| Total Events     | 69                               |
| References Count | 93                               |

## List of Events

| Event ID                   | Entrypoint   |   Size |   Instructions |
|----------------------------|--------------|--------|----------------|
| [65535](#event-65535)      | 0x0000       |      1 |              1 |
| [65535.1](#event-655351)   | 0x0001       |      1 |              1 |
| [65535.2](#event-655352)   | 0x0002       |     18 |              4 |
| [65535.3](#event-655353)   | 0x0014       |     10 |              2 |
| [65535.4](#event-655354)   | 0x001E       |      9 |              3 |
| [65535.5](#event-655355)   | 0x0027       |      9 |              3 |
| [65535.6](#event-655356)   | 0x0030       |     10 |              2 |
| [65535.7](#event-655357)   | 0x003A       |     10 |              2 |
| [152](#event-152)          | 0x0044       |      1 |              1 |
| [87](#event-87)            | 0x0045       |      1 |              1 |
| [65535.8](#event-655358)   | 0x0046       |     12 |              3 |
| [65535.9](#event-655359)   | 0x0052       |     35 |              9 |
| [65535.10](#event-6553510) | 0x0075       |     35 |              9 |
| [65535.11](#event-6553511) | 0x0098       |     27 |              7 |
| [65535.12](#event-6553512) | 0x00B3       |     21 |              5 |
| [65535.13](#event-6553513) | 0x00C8       |     21 |              5 |
| [151](#event-151)          | 0x00DD       |      1 |              1 |
| [154](#event-154)          | 0x00DE       |      1 |              1 |
| [155](#event-155)          | 0x00DF       |      1 |              1 |
| [65535.14](#event-6553514) | 0x00E0       |      4 |              2 |
| [65535.15](#event-6553515) | 0x00E4       |      4 |              2 |
| [166](#event-166)          | 0x00E8       |      1 |              1 |
| [170](#event-170)          | 0x00E9       |      1 |              1 |
| [171](#event-171)          | 0x00EA       |      1 |              1 |
| [172](#event-172)          | 0x00EB       |      1 |              1 |
| [65535.16](#event-6553516) | 0x00EC       |      3 |              2 |
| [65535.17](#event-6553517) | 0x00EF       |     10 |              2 |
| [65535.18](#event-6553518) | 0x00F9       |     10 |              2 |
| [149](#event-149)          | 0x0103       |      1 |              1 |
| [65535.19](#event-6553519) | 0x0104       |     24 |              6 |
| [65535.20](#event-6553520) | 0x011C       |     14 |              4 |
| [65535.21](#event-6553521) | 0x012A       |     14 |              4 |
| [65535.22](#event-6553522) | 0x0138       |     41 |              9 |
| [65535.23](#event-6553523) | 0x0161       |     14 |              4 |
| [65535.24](#event-6553524) | 0x016F       |     11 |              3 |
| [65535.25](#event-6553525) | 0x017A       |     14 |              4 |
| [65535.26](#event-6553526) | 0x0188       |      4 |              2 |
| [65535.27](#event-6553527) | 0x018C       |      4 |              2 |
| [65535.28](#event-6553528) | 0x0190       |      4 |              2 |
| [65535.29](#event-6553529) | 0x0194       |      4 |              2 |
| [145](#event-145)          | 0x0198       |      1 |              1 |
| [146](#event-146)          | 0x0199       |      1 |              1 |
| [65535.30](#event-6553530) | 0x019A       |     12 |              4 |
| [65535.31](#event-6553531) | 0x01A6       |     11 |              3 |
| [65535.32](#event-6553532) | 0x01B1       |     22 |              6 |
| [65535.33](#event-6553533) | 0x01C7       |     21 |              5 |
| [65535.34](#event-6553534) | 0x01DC       |     11 |              3 |
| [65535.35](#event-6553535) | 0x01E7       |     11 |              3 |
| [65535.36](#event-6553536) | 0x01F2       |     44 |              8 |
| [65535.37](#event-6553537) | 0x021E       |     45 |              9 |
| [65535.38](#event-6553538) | 0x024B       |     17 |              5 |
| [65535.39](#event-6553539) | 0x025C       |     25 |              6 |
| [65535.40](#event-6553540) | 0x0275       |     20 |              5 |
| [65535.41](#event-6553541) | 0x0289       |     30 |              6 |
| [65535.42](#event-6553542) | 0x02A7       |     20 |              5 |
| [65535.43](#event-6553543) | 0x02BB       |     42 |              8 |
| [65535.44](#event-6553544) | 0x02E5       |     34 |              4 |
| [65535.45](#event-6553545) | 0x0307       |      5 |              2 |
| [65535.46](#event-6553546) | 0x030C       |      5 |              2 |
| [169](#event-169)          | 0x0311       |      1 |              1 |
| [65535.47](#event-6553547) | 0x0312       |     29 |              7 |
| [65535.48](#event-6553548) | 0x032F       |     10 |              2 |
| [65535.49](#event-6553549) | 0x0339       |     10 |              2 |
| [176](#event-176)          | 0x0343       |      1 |              1 |
| [183](#event-183)          | 0x0344       |      1 |              1 |
| [65535.50](#event-6553550) | 0x0345       |     27 |              7 |
| [65535.51](#event-6553551) | 0x0360       |     10 |              2 |
| [65535.52](#event-6553552) | 0x036A       |     14 |              4 |
| [184](#event-184)          | 0x0378       |      1 |              1 |

## DAT References (imed_data)

|   Index | Hex Value   |   Dec Value |
|---------|-------------|-------------|
|       0 | 0x0000      |           0 |
|       1 | 0x0001      |           1 |
|       2 | 0x0080      |         128 |
|       3 | 0x148C5     |       84165 |
|       4 | 0x1D413     |      119827 |
|       5 | 0x0200      |         512 |
|       6 | 0x0028      |          40 |
|       7 | 0x000D      |          13 |
|       8 | 0x0378      |         888 |
|       9 | 0x9EA8      |       40616 |
|      10 | 0xFFFFF830  |  4294965296 |
|      11 | 0xFFFFA323  |  4294943523 |
|      12 | 0xFFFFF0E1  |  4294963425 |
|      13 | 0x025F      |         607 |
|      14 | 0x0211      |         529 |
|      15 | 0x0023      |          35 |
|      16 | 0x19357     |      103255 |
|      17 | 0xFFFF4AAB  |  4294920875 |
|      18 | 0x03E7      |         999 |
|      19 | 0x0024      |          36 |
|      20 | 0x1855E     |       99678 |
|      21 | 0xFFFF583C  |  4294924348 |
|      22 | 0x5E78      |       24184 |
|      23 | 0xFFFF9EB3  |  4294942387 |
|      24 | 0x07CF      |        1999 |
|      25 | 0x0498      |        1176 |
|      26 | 0xAB04      |       43780 |
|      27 | 0xFFFFF831  |  4294965297 |
|      28 | 0xFFFFFD62  |  4294966626 |
|      29 | 0xAA9F      |       43679 |
|      30 | 0xFFFFBB7F  |  4294949759 |
|      31 | 0xFFFFEFBC  |  4294963132 |
|      32 | 0xFFFFA092  |  4294942866 |
|      33 | 0xFFFFEE0A  |  4294962698 |
|      34 | 0x54BD      |       21693 |
|      35 | 0x1531A     |       86810 |
|      36 | 0xFFFFFF39  |  4294967097 |
|      37 | 0x0002      |           2 |
|      38 | 0x17A7E     |       96894 |
|      39 | 0xFFFF63D0  |  4294927312 |
|      40 | 0x16A16     |       92694 |
|      41 | 0x67FF      |       26623 |
|      42 | 0x0F9F      |        3999 |
|      43 | 0x18348     |       99144 |
|      44 | 0x196F9     |      104185 |
|      45 | 0x17C83     |       97411 |
|      46 | 0x19EF1     |      106225 |
|      47 | 0x1650B     |       91403 |
|      48 | 0x1B295     |      111253 |
|      49 | 0x1676D     |       92013 |
|      50 | 0x1B48C     |      111756 |
|      51 | 0x17408     |       95240 |
|      52 | 0x1A93A     |      108858 |
|      53 | 0x16083     |       90243 |
|      54 | 0x1DBCC     |      121804 |
|      55 | 0x03E8      |        1000 |
|      56 | 0x000A      |          10 |
|      57 | 0x185A4     |       99748 |
|      58 | 0x1F407     |      128007 |
|      59 | 0xFFFFF893  |  4294965395 |
|      60 | 0x000F      |          15 |
|      61 | 0x004B      |          75 |
|      62 | 0x17979     |       96633 |
|      63 | 0x1DDA8     |      122280 |
|      64 | 0xFFFFE958  |  4294961496 |
|      65 | 0x18965     |      100709 |
|      66 | 0x1BFA8     |      114600 |
|      67 | 0x180C7     |       98503 |
|      68 | 0x1B67E     |      112254 |
|      69 | 0xFFFFE570  |  4294960496 |
|      70 | 0x18699     |       99993 |
|      71 | 0x1C2DA     |      115418 |
|      72 | 0x15E91     |       89745 |
|      73 | 0x1D611     |      120337 |
|      74 | 0x1CD68     |      118120 |
|      75 | 0x166E2     |       91874 |
|      76 | 0x09E2      |        2530 |
|      77 | 0x0155      |         341 |
|      78 | 0x0857      |        2135 |
|      79 | 0x0078      |         120 |
|      80 | 0x08E7      |        2279 |
|      81 | 0x08CF      |        2255 |
|      82 | 0x0025      |          37 |
|      83 | 0xFFFFA6C3  |  4294944451 |
|      84 | 0xFFFFF02D  |  4294963245 |
|      85 | 0xFFFF95BC  |  4294940092 |
|      86 | 0xFFFFE832  |  4294961202 |
|      87 | 0x2214A     |      139594 |
|      88 | 0x1A2BE     |      107198 |
|      89 | 0xFFFFF769  |  4294965097 |
|      90 | 0x001E      |          30 |
|      91 | 0x24C16     |      150550 |
|      92 | 0x1CD0E     |      118030 |

## Events

### Event 65535

#### Metadata

| Field        | Value   |
|--------------|---------|
| Entrypoint   | 0x0000  |
| Data Size    | 1 bytes |
| Instructions | 1       |

```
      00 01 02 03 04 05 06 07  08 09 0A 0B 0C 0D 0E 0F
      -- -- -- -- -- -- -- --  -- -- -- -- -- -- -- --
0000: 00                                                .               
```

#### Opcodes

```
  0: 0x0000 [0x00] END_REQSTACK()
```

### Event 65535.1

#### Metadata

| Field        | Value   |
|--------------|---------|
| Entrypoint   | 0x0001  |
| Data Size    | 1 bytes |
| Instructions | 1       |

```
      00 01 02 03 04 05 06 07  08 09 0A 0B 0C 0D 0E 0F
      -- -- -- -- -- -- -- --  -- -- -- -- -- -- -- --
0000:    00                                              .              
```

#### Opcodes

```
  0: 0x0001 [0x00] END_REQSTACK()
```

### Event 65535.2

#### Metadata

| Field        | Value    |
|--------------|----------|
| Entrypoint   | 0x0002   |
| Data Size    | 18 bytes |
| Instructions | 4        |

```
      00 01 02 03 04 05 06 07  08 09 0A 0B 0C 0D 0E 0F
      -- -- -- -- -- -- -- --  -- -- -- -- -- -- -- --
0000:       22 00 2F 00 F8 FF  FF 7F 6C F8 FF FF 7F 00    "./.....l.....
0010: 80 01 80 00                                       ....            
```

#### Opcodes

```
  0: 0x0002 [0x22] ENTITY_HIDE_FLAG(enabled=0x00)
  1: 0x0004 [0x2F] EventEntity->Render.Flags0 &= ~0x80000 // Bit 19
  2: 0x000A [0x6C] FADE_ENTITY_COLOR(entity_id=EventEntity, end_alpha=0*, fade_time=1*)
  3: 0x0013 [0x00] END_REQSTACK()
```

### Event 65535.3

#### Metadata

| Field        | Value    |
|--------------|----------|
| Entrypoint   | 0x0014   |
| Data Size    | 10 bytes |
| Instructions | 2        |

```
      00 01 02 03 04 05 06 07  08 09 0A 0B 0C 0D 0E 0F
      -- -- -- -- -- -- -- --  -- -- -- -- -- -- -- --
0010:             6C F8 FF FF  7F 02 80 01 80 00            l.........  
```

#### Opcodes

```
  0: 0x0014 [0x6C] FADE_ENTITY_COLOR(entity_id=EventEntity, end_alpha=128*, fade_time=1*)
  1: 0x001D [0x00] END_REQSTACK()
```

### Event 65535.4

#### Metadata

| Field        | Value   |
|--------------|---------|
| Entrypoint   | 0x001E  |
| Data Size    | 9 bytes |
| Instructions | 3       |

```
      00 01 02 03 04 05 06 07  08 09 0A 0B 0C 0D 0E 0F
      -- -- -- -- -- -- -- --  -- -- -- -- -- -- -- --
0010:                                            22 00                ".
0020: 2F 00 F8 FF FF 7F 00                              /......         
```

#### Opcodes

```
  0: 0x001E [0x22] ENTITY_HIDE_FLAG(enabled=0x00)
  1: 0x0020 [0x2F] EventEntity->Render.Flags0 &= ~0x80000 // Bit 19
  2: 0x0026 [0x00] END_REQSTACK()
```

### Event 65535.5

#### Metadata

| Field        | Value   |
|--------------|---------|
| Entrypoint   | 0x0027  |
| Data Size    | 9 bytes |
| Instructions | 3       |

```
      00 01 02 03 04 05 06 07  08 09 0A 0B 0C 0D 0E 0F
      -- -- -- -- -- -- -- --  -- -- -- -- -- -- -- --
0020:                      22  01 2F 01 F8 FF FF 7F 00         "./......
```

#### Opcodes

```
  0: 0x0027 [0x22] ENTITY_HIDE_FLAG(enabled=0x01)
  1: 0x0029 [0x2F] EventEntity->Render.Flags0 |= 0x80000 // Bit 19
  2: 0x002F [0x00] END_REQSTACK()
```

### Event 65535.6

#### Metadata

| Field        | Value    |
|--------------|----------|
| Entrypoint   | 0x0030   |
| Data Size    | 10 bytes |
| Instructions | 2        |

```
      00 01 02 03 04 05 06 07  08 09 0A 0B 0C 0D 0E 0F
      -- -- -- -- -- -- -- --  -- -- -- -- -- -- -- --
0030: 6C F8 FF FF 7F 00 80 01  80 00                    l.........      
```

#### Opcodes

```
  0: 0x0030 [0x6C] FADE_ENTITY_COLOR(entity_id=EventEntity, end_alpha=0*, fade_time=1*)
  1: 0x0039 [0x00] END_REQSTACK()
```

### Event 65535.7

#### Metadata

| Field        | Value    |
|--------------|----------|
| Entrypoint   | 0x003A   |
| Data Size    | 10 bytes |
| Instructions | 2        |

```
      00 01 02 03 04 05 06 07  08 09 0A 0B 0C 0D 0E 0F
      -- -- -- -- -- -- -- --  -- -- -- -- -- -- -- --
0030:                                6C F8 FF FF 7F 02            l.....
0040: 80 01 80 00                                       ....            
```

#### Opcodes

```
  0: 0x003A [0x6C] FADE_ENTITY_COLOR(entity_id=EventEntity, end_alpha=128*, fade_time=1*)
  1: 0x0043 [0x00] END_REQSTACK()
```

### Event 152

#### Metadata

| Field        | Value   |
|--------------|---------|
| Entrypoint   | 0x0044  |
| Data Size    | 1 bytes |
| Instructions | 1       |

```
      00 01 02 03 04 05 06 07  08 09 0A 0B 0C 0D 0E 0F
      -- -- -- -- -- -- -- --  -- -- -- -- -- -- -- --
0040:             00                                        .           
```

#### Opcodes

```
  0: 0x0044 [0x00] END_REQSTACK()
```

### Event 87

#### Metadata

| Field        | Value   |
|--------------|---------|
| Entrypoint   | 0x0045  |
| Data Size    | 1 bytes |
| Instructions | 1       |

```
      00 01 02 03 04 05 06 07  08 09 0A 0B 0C 0D 0E 0F
      -- -- -- -- -- -- -- --  -- -- -- -- -- -- -- --
0040:                00                                      .          
```

#### Opcodes

```
  0: 0x0045 [0x00] END_REQSTACK()
```

### Event 65535.8

#### Metadata

| Field        | Value    |
|--------------|----------|
| Entrypoint   | 0x0046   |
| Data Size    | 12 bytes |
| Instructions | 3        |

```
      00 01 02 03 04 05 06 07  08 09 0A 0B 0C 0D 0E 0F
      -- -- -- -- -- -- -- --  -- -- -- -- -- -- -- --
0040:                   33 01  37 03 80 04 80 00 80 05        3.7.......
0050: 80 00                                             ..              
```

#### Opcodes

```
  0: 0x0046 [0x33] EventEntity->Render.Flags0 |= 0x200000 // Bit 21 (flag=0x01)
  1: 0x0048 [0x37] UPDATE_EVENT_POSITION_AND_DIR: x=84.165*, z=119.827*, y=0.000*, direction=45.0°*
  2: 0x0051 [0x00] END_REQSTACK()
```

### Event 65535.9

#### Metadata

| Field        | Value    |
|--------------|----------|
| Entrypoint   | 0x0052   |
| Data Size    | 35 bytes |
| Instructions | 9        |

```
      00 01 02 03 04 05 06 07  08 09 0A 0B 0C 0D 0E 0F
      -- -- -- -- -- -- -- --  -- -- -- -- -- -- -- --
0050:       03 00 00 25 10 03  02 00 27 10 03 01 00 26    ...%....'....&
0060: 10 03 03 00 28 10 32 06  80 1F 00 00 00 02 00 01  ....(.2.........
0070: 00 1F 01 6F 00                                    ...o.           
```

#### Opcodes

```
  0: 0x0052 [0x03] ExtData[1]->WorkLocal[0] = Work_Zone[37]
  1: 0x0057 [0x03] ExtData[1]->WorkLocal[2] = Work_Zone[39]
  2: 0x005C [0x03] ExtData[1]->WorkLocal[1] = Work_Zone[38]
  3: 0x0061 [0x03] ExtData[1]->WorkLocal[3] = Work_Zone[40]
  4: 0x0066 [0x32] ExtData[1]->MainSpeed = 40* * 0.1
  5: 0x0069 [0x1F] MOVE_ENTITY: EventEntity moves to X=ExtData[1]->WorkLocal[0], Z=ExtData[1]->WorkLocal[2], Y=ExtData[1]->WorkLocal[1]
  6: 0x0071 [0x1F] MOVE_ENTITY: Update entity position (mode=1)
  7: 0x0073 [0x6F] WAIT_FRAME_DELAY: Yield until WaitTime reaches zero
  8: 0x0074 [0x00] END_REQSTACK()
```

### Event 65535.10

#### Metadata

| Field        | Value    |
|--------------|----------|
| Entrypoint   | 0x0075   |
| Data Size    | 35 bytes |
| Instructions | 9        |

```
      00 01 02 03 04 05 06 07  08 09 0A 0B 0C 0D 0E 0F
      -- -- -- -- -- -- -- --  -- -- -- -- -- -- -- --
0070:                03 00 00  25 10 03 02 00 27 10 03       ...%....'..
0080: 01 00 26 10 03 03 00 28  10 32 07 80 1F 00 00 00  ..&....(.2......
0090: 02 00 01 00 1F 01 6F 00                           ......o.        
```

#### Opcodes

```
  0: 0x0075 [0x03] ExtData[1]->WorkLocal[0] = Work_Zone[37]
  1: 0x007A [0x03] ExtData[1]->WorkLocal[2] = Work_Zone[39]
  2: 0x007F [0x03] ExtData[1]->WorkLocal[1] = Work_Zone[38]
  3: 0x0084 [0x03] ExtData[1]->WorkLocal[3] = Work_Zone[40]
  4: 0x0089 [0x32] ExtData[1]->MainSpeed = 13* * 0.1
  5: 0x008C [0x1F] MOVE_ENTITY: EventEntity moves to X=ExtData[1]->WorkLocal[0], Z=ExtData[1]->WorkLocal[2], Y=ExtData[1]->WorkLocal[1]
  6: 0x0094 [0x1F] MOVE_ENTITY: Update entity position (mode=1)
  7: 0x0096 [0x6F] WAIT_FRAME_DELAY: Yield until WaitTime reaches zero
  8: 0x0097 [0x00] END_REQSTACK()
```

### Event 65535.11

#### Metadata

| Field        | Value    |
|--------------|----------|
| Entrypoint   | 0x0098   |
| Data Size    | 27 bytes |
| Instructions | 7        |

```
      00 01 02 03 04 05 06 07  08 09 0A 0B 0C 0D 0E 0F
      -- -- -- -- -- -- -- --  -- -- -- -- -- -- -- --
0090:                          1F 00 08 80 09 80 0A 80          ........
00A0: 1F 01 6F 4A 83 02 05 01  EF 01 05 01 6F 76 83 02  ..oJ........ov..
00B0: 05 01 00                                          ...             
```

#### Opcodes

```
  0: 0x0098 [0x1F] MOVE_ENTITY: EventEntity moves to X=0.888*, Z=40.616*, Y=-2.000*
  1: 0x00A0 [0x1F] MOVE_ENTITY: Update entity position (mode=1)
  2: 0x00A2 [0x6F] WAIT_FRAME_DELAY: Yield until WaitTime reaches zero
  3: 0x00A3 [0x4A] Lilisette (ID: 17105539/0x01050283) looks at Raustigne (ID: 17105391/0x010501EF)
  4: 0x00AC [0x6F] WAIT_FRAME_DELAY: Yield until WaitTime reaches zero
  5: 0x00AD [0x76] CHECK_ENTITY_RENDER_FLAGS: Wait until Lilisette (ID: 17105539/0x01050283) Render.Flags0 and Render.Flags3 conditions are met
  6: 0x00B2 [0x00] END_REQSTACK()
```

### Event 65535.12

#### Metadata

| Field        | Value    |
|--------------|----------|
| Entrypoint   | 0x00B3   |
| Data Size    | 21 bytes |
| Instructions | 5        |

```
      00 01 02 03 04 05 06 07  08 09 0A 0B 0C 0D 0E 0F
      -- -- -- -- -- -- -- --  -- -- -- -- -- -- -- --
00B0:          1F 00 0B 80 0C  80 00 80 1F 01 6F 4A 83     ..........oJ.
00C0: 02 05 01 86 02 05 01 00                           ........        
```

#### Opcodes

```
  0: 0x00B3 [0x1F] MOVE_ENTITY: EventEntity moves to X=-23.773*, Z=-3.871*, Y=0.000*
  1: 0x00BB [0x1F] MOVE_ENTITY: Update entity position (mode=1)
  2: 0x00BD [0x6F] WAIT_FRAME_DELAY: Yield until WaitTime reaches zero
  3: 0x00BE [0x4A] Lilisette (ID: 17105539/0x01050283) looks at Ragelise (ID: 17105542/0x01050286)
  4: 0x00C7 [0x00] END_REQSTACK()
```

### Event 65535.13

#### Metadata

| Field        | Value    |
|--------------|----------|
| Entrypoint   | 0x00C8   |
| Data Size    | 21 bytes |
| Instructions | 5        |

```
      00 01 02 03 04 05 06 07  08 09 0A 0B 0C 0D 0E 0F
      -- -- -- -- -- -- -- --  -- -- -- -- -- -- -- --
00C0:                          1F 00 0D 80 0E 80 00 80          ........
00D0: 1F 01 6F 4A 83 02 05 01  18 02 05 01 00           ..oJ.........   
```

#### Opcodes

```
  0: 0x00C8 [0x1F] MOVE_ENTITY: EventEntity moves to X=0.607*, Z=0.529*, Y=0.000*
  1: 0x00D0 [0x1F] MOVE_ENTITY: Update entity position (mode=1)
  2: 0x00D2 [0x6F] WAIT_FRAME_DELAY: Yield until WaitTime reaches zero
  3: 0x00D3 [0x4A] Lilisette (ID: 17105539/0x01050283) looks at Halver M Borel (ID: 17105432/0x01050218)
  4: 0x00DC [0x00] END_REQSTACK()
```

### Event 151

#### Metadata

| Field        | Value   |
|--------------|---------|
| Entrypoint   | 0x00DD  |
| Data Size    | 1 bytes |
| Instructions | 1       |

```
      00 01 02 03 04 05 06 07  08 09 0A 0B 0C 0D 0E 0F
      -- -- -- -- -- -- -- --  -- -- -- -- -- -- -- --
00D0:                                         00                     .  
```

#### Opcodes

```
  0: 0x00DD [0x00] END_REQSTACK()
```

### Event 154

#### Metadata

| Field        | Value   |
|--------------|---------|
| Entrypoint   | 0x00DE  |
| Data Size    | 1 bytes |
| Instructions | 1       |

```
      00 01 02 03 04 05 06 07  08 09 0A 0B 0C 0D 0E 0F
      -- -- -- -- -- -- -- --  -- -- -- -- -- -- -- --
00D0:                                            00                   . 
```

#### Opcodes

```
  0: 0x00DE [0x00] END_REQSTACK()
```

### Event 155

#### Metadata

| Field        | Value   |
|--------------|---------|
| Entrypoint   | 0x00DF  |
| Data Size    | 1 bytes |
| Instructions | 1       |

```
      00 01 02 03 04 05 06 07  08 09 0A 0B 0C 0D 0E 0F
      -- -- -- -- -- -- -- --  -- -- -- -- -- -- -- --
00D0:                                               00                 .
```

#### Opcodes

```
  0: 0x00DF [0x00] END_REQSTACK()
```

### Event 65535.14

#### Metadata

| Field        | Value   |
|--------------|---------|
| Entrypoint   | 0x00E0  |
| Data Size    | 4 bytes |
| Instructions | 2       |

```
      00 01 02 03 04 05 06 07  08 09 0A 0B 0C 0D 0E 0F
      -- -- -- -- -- -- -- --  -- -- -- -- -- -- -- --
00E0: C0 01 80 00                                       ....            
```

#### Opcodes

```
  0: 0x00E0 [0xC0] EventEntity->Render.Flags3 |= 0x1000 // Set bit 12 (from 1*)
  1: 0x00E3 [0x00] END_REQSTACK()
```

### Event 65535.15

#### Metadata

| Field        | Value   |
|--------------|---------|
| Entrypoint   | 0x00E4  |
| Data Size    | 4 bytes |
| Instructions | 2       |

```
      00 01 02 03 04 05 06 07  08 09 0A 0B 0C 0D 0E 0F
      -- -- -- -- -- -- -- --  -- -- -- -- -- -- -- --
00E0:             C0 00 80 00                               ....        
```

#### Opcodes

```
  0: 0x00E4 [0xC0] EventEntity->Render.Flags3 &= ~0x1000 // Clear bit 12 (from 0*)
  1: 0x00E7 [0x00] END_REQSTACK()
```

### Event 166

#### Metadata

| Field        | Value   |
|--------------|---------|
| Entrypoint   | 0x00E8  |
| Data Size    | 1 bytes |
| Instructions | 1       |

```
      00 01 02 03 04 05 06 07  08 09 0A 0B 0C 0D 0E 0F
      -- -- -- -- -- -- -- --  -- -- -- -- -- -- -- --
00E0:                          00                               .       
```

#### Opcodes

```
  0: 0x00E8 [0x00] END_REQSTACK()
```

### Event 170

#### Metadata

| Field        | Value   |
|--------------|---------|
| Entrypoint   | 0x00E9  |
| Data Size    | 1 bytes |
| Instructions | 1       |

```
      00 01 02 03 04 05 06 07  08 09 0A 0B 0C 0D 0E 0F
      -- -- -- -- -- -- -- --  -- -- -- -- -- -- -- --
00E0:                             00                             .      
```

#### Opcodes

```
  0: 0x00E9 [0x00] END_REQSTACK()
```

### Event 171

#### Metadata

| Field        | Value   |
|--------------|---------|
| Entrypoint   | 0x00EA  |
| Data Size    | 1 bytes |
| Instructions | 1       |

```
      00 01 02 03 04 05 06 07  08 09 0A 0B 0C 0D 0E 0F
      -- -- -- -- -- -- -- --  -- -- -- -- -- -- -- --
00E0:                                00                           .     
```

#### Opcodes

```
  0: 0x00EA [0x00] END_REQSTACK()
```

### Event 172

#### Metadata

| Field        | Value   |
|--------------|---------|
| Entrypoint   | 0x00EB  |
| Data Size    | 1 bytes |
| Instructions | 1       |

```
      00 01 02 03 04 05 06 07  08 09 0A 0B 0C 0D 0E 0F
      -- -- -- -- -- -- -- --  -- -- -- -- -- -- -- --
00E0:                                   00                         .    
```

#### Opcodes

```
  0: 0x00EB [0x00] END_REQSTACK()
```

### Event 65535.16

#### Metadata

| Field        | Value   |
|--------------|---------|
| Entrypoint   | 0x00EC  |
| Data Size    | 3 bytes |
| Instructions | 2       |

```
      00 01 02 03 04 05 06 07  08 09 0A 0B 0C 0D 0E 0F
      -- -- -- -- -- -- -- --  -- -- -- -- -- -- -- --
00E0:                                      A4 01 00                 ... 
```

#### Opcodes

```
  0: 0x00EC [0xA4] EventEntity->Flags3.unknown_3_2 = 1
  1: 0x00EE [0x00] END_REQSTACK()
```

### Event 65535.17

#### Metadata

| Field        | Value    |
|--------------|----------|
| Entrypoint   | 0x00EF   |
| Data Size    | 10 bytes |
| Instructions | 2        |

```
      00 01 02 03 04 05 06 07  08 09 0A 0B 0C 0D 0E 0F
      -- -- -- -- -- -- -- --  -- -- -- -- -- -- -- --
00E0:                                               6C                 l
00F0: F8 FF FF 7F 00 80 01 80  00                       .........       
```

#### Opcodes

```
  0: 0x00EF [0x6C] FADE_ENTITY_COLOR(entity_id=EventEntity, end_alpha=0*, fade_time=1*)
  1: 0x00F8 [0x00] END_REQSTACK()
```

### Event 65535.18

#### Metadata

| Field        | Value    |
|--------------|----------|
| Entrypoint   | 0x00F9   |
| Data Size    | 10 bytes |
| Instructions | 2        |

```
      00 01 02 03 04 05 06 07  08 09 0A 0B 0C 0D 0E 0F
      -- -- -- -- -- -- -- --  -- -- -- -- -- -- -- --
00F0:                             6C F8 FF FF 7F 02 80           l......
0100: 01 80 00                                          ...             
```

#### Opcodes

```
  0: 0x00F9 [0x6C] FADE_ENTITY_COLOR(entity_id=EventEntity, end_alpha=128*, fade_time=1*)
  1: 0x0102 [0x00] END_REQSTACK()
```

### Event 149

#### Metadata

| Field        | Value   |
|--------------|---------|
| Entrypoint   | 0x0103  |
| Data Size    | 1 bytes |
| Instructions | 1       |

```
      00 01 02 03 04 05 06 07  08 09 0A 0B 0C 0D 0E 0F
      -- -- -- -- -- -- -- --  -- -- -- -- -- -- -- --
0100:          00                                          .            
```

#### Opcodes

```
  0: 0x0103 [0x00] END_REQSTACK()
```

### Event 65535.19

#### Metadata

| Field        | Value    |
|--------------|----------|
| Entrypoint   | 0x0104   |
| Data Size    | 24 bytes |
| Instructions | 6        |

```
      00 01 02 03 04 05 06 07  08 09 0A 0B 0C 0D 0E 0F
      -- -- -- -- -- -- -- --  -- -- -- -- -- -- -- --
0100:             6C F8 FF FF  7F 02 80 01 80 32 0F 80      l........2..
0110: 1F 00 10 80 11 80 12 80  1F 01 6F 00              ..........o.    
```

#### Opcodes

```
  0: 0x0104 [0x6C] FADE_ENTITY_COLOR(entity_id=EventEntity, end_alpha=128*, fade_time=1*)
  1: 0x010D [0x32] ExtData[1]->MainSpeed = 35* * 0.1
  2: 0x0110 [0x1F] MOVE_ENTITY: EventEntity moves to X=103.255*, Z=-46.421*, Y=0.999*
  3: 0x0118 [0x1F] MOVE_ENTITY: Update entity position (mode=1)
  4: 0x011A [0x6F] WAIT_FRAME_DELAY: Yield until WaitTime reaches zero
  5: 0x011B [0x00] END_REQSTACK()
```

### Event 65535.20

#### Metadata

| Field        | Value    |
|--------------|----------|
| Entrypoint   | 0x011C   |
| Data Size    | 14 bytes |
| Instructions | 4        |

```
      00 01 02 03 04 05 06 07  08 09 0A 0B 0C 0D 0E 0F
      -- -- -- -- -- -- -- --  -- -- -- -- -- -- -- --
0110:                                      32 13 80 1F              2...
0120: 00 14 80 15 80 12 80 1F  01 00                    ..........      
```

#### Opcodes

```
  0: 0x011C [0x32] ExtData[1]->MainSpeed = 36* * 0.1
  1: 0x011F [0x1F] MOVE_ENTITY: EventEntity moves to X=99.678*, Z=-42.948*, Y=0.999*
  2: 0x0127 [0x1F] MOVE_ENTITY: Update entity position (mode=1)
  3: 0x0129 [0x00] END_REQSTACK()
```

### Event 65535.21

#### Metadata

| Field        | Value    |
|--------------|----------|
| Entrypoint   | 0x012A   |
| Data Size    | 14 bytes |
| Instructions | 4        |

```
      00 01 02 03 04 05 06 07  08 09 0A 0B 0C 0D 0E 0F
      -- -- -- -- -- -- -- --  -- -- -- -- -- -- -- --
0120:                                32 13 80 1F 00 16            2.....
0130: 80 17 80 18 80 1F 01 00                           ........        
```

#### Opcodes

```
  0: 0x012A [0x32] ExtData[1]->MainSpeed = 36* * 0.1
  1: 0x012D [0x1F] MOVE_ENTITY: EventEntity moves to X=24.184*, Z=-24.909*, Y=1.999*
  2: 0x0135 [0x1F] MOVE_ENTITY: Update entity position (mode=1)
  3: 0x0137 [0x00] END_REQSTACK()
```

### Event 65535.22

#### Metadata

| Field        | Value    |
|--------------|----------|
| Entrypoint   | 0x0138   |
| Data Size    | 41 bytes |
| Instructions | 9        |

```
      00 01 02 03 04 05 06 07  08 09 0A 0B 0C 0D 0E 0F
      -- -- -- -- -- -- -- --  -- -- -- -- -- -- -- --
0130:                          7B F8 FF FF 7F 32 07 80          {....2..
0140: 1C 06 80 1F 00 19 80 1A  80 1B 80 1F 01 1F 00 1C  ................
0150: 80 1D 80 1B 80 1F 01 4A  F8 FF FF 7F EF 01 05 01  .......J........
0160: 00                                                .               
```

#### Opcodes

```
  0: 0x0138 [0x7B] EventEntity stops talking
  1: 0x013D [0x32] ExtData[1]->MainSpeed = 13* * 0.1
  2: 0x0140 [0x1C] WAIT(40* ticks)
  3: 0x0143 [0x1F] MOVE_ENTITY: EventEntity moves to X=1.176*, Z=43.780*, Y=-1.999*
  4: 0x014B [0x1F] MOVE_ENTITY: Update entity position (mode=1)
  5: 0x014D [0x1F] MOVE_ENTITY: EventEntity moves to X=-0.670*, Z=43.679*, Y=-1.999*
  6: 0x0155 [0x1F] MOVE_ENTITY: Update entity position (mode=1)
  7: 0x0157 [0x4A] EventEntity looks at Raustigne (ID: 17105391/0x010501EF)
  8: 0x0160 [0x00] END_REQSTACK()
```

### Event 65535.23

#### Metadata

| Field        | Value    |
|--------------|----------|
| Entrypoint   | 0x0161   |
| Data Size    | 14 bytes |
| Instructions | 4        |

```
      00 01 02 03 04 05 06 07  08 09 0A 0B 0C 0D 0E 0F
      -- -- -- -- -- -- -- --  -- -- -- -- -- -- -- --
0160:    32 07 80 1F 00 1E 80  1F 80 00 80 1F 01 00      2............. 
```

#### Opcodes

```
  0: 0x0161 [0x32] ExtData[1]->MainSpeed = 13* * 0.1
  1: 0x0164 [0x1F] MOVE_ENTITY: EventEntity moves to X=-17.537*, Z=-4.164*, Y=0.000*
  2: 0x016C [0x1F] MOVE_ENTITY: Update entity position (mode=1)
  3: 0x016E [0x00] END_REQSTACK()
```

### Event 65535.24

#### Metadata

| Field        | Value    |
|--------------|----------|
| Entrypoint   | 0x016F   |
| Data Size    | 11 bytes |
| Instructions | 3        |

```
      00 01 02 03 04 05 06 07  08 09 0A 0B 0C 0D 0E 0F
      -- -- -- -- -- -- -- --  -- -- -- -- -- -- -- --
0160:                                               1F                 .
0170: 00 20 80 21 80 00 80 1F  01 00                    . .!......      
```

#### Opcodes

```
  0: 0x016F [0x1F] MOVE_ENTITY: EventEntity moves to X=-24.430*, Z=-4.598*, Y=0.000*
  1: 0x0177 [0x1F] MOVE_ENTITY: Update entity position (mode=1)
  2: 0x0179 [0x00] END_REQSTACK()
```

### Event 65535.25

#### Metadata

| Field        | Value    |
|--------------|----------|
| Entrypoint   | 0x017A   |
| Data Size    | 14 bytes |
| Instructions | 4        |

```
      00 01 02 03 04 05 06 07  08 09 0A 0B 0C 0D 0E 0F
      -- -- -- -- -- -- -- --  -- -- -- -- -- -- -- --
0170:                                32 07 80 1F 00 22            2...."
0180: 80 23 80 24 80 1F 01 00                           .#.$....        
```

#### Opcodes

```
  0: 0x017A [0x32] ExtData[1]->MainSpeed = 13* * 0.1
  1: 0x017D [0x1F] MOVE_ENTITY: EventEntity moves to X=21.693*, Z=86.810*, Y=-0.199*
  2: 0x0185 [0x1F] MOVE_ENTITY: Update entity position (mode=1)
  3: 0x0187 [0x00] END_REQSTACK()
```

### Event 65535.26

#### Metadata

| Field        | Value   |
|--------------|---------|
| Entrypoint   | 0x0188  |
| Data Size    | 4 bytes |
| Instructions | 2       |

```
      00 01 02 03 04 05 06 07  08 09 0A 0B 0C 0D 0E 0F
      -- -- -- -- -- -- -- --  -- -- -- -- -- -- -- --
0180:                          C0 01 80 00                      ....    
```

#### Opcodes

```
  0: 0x0188 [0xC0] EventEntity->Render.Flags3 |= 0x1000 // Set bit 12 (from 1*)
  1: 0x018B [0x00] END_REQSTACK()
```

### Event 65535.27

#### Metadata

| Field        | Value   |
|--------------|---------|
| Entrypoint   | 0x018C  |
| Data Size    | 4 bytes |
| Instructions | 2       |

```
      00 01 02 03 04 05 06 07  08 09 0A 0B 0C 0D 0E 0F
      -- -- -- -- -- -- -- --  -- -- -- -- -- -- -- --
0180:                                      C0 00 80 00              ....
```

#### Opcodes

```
  0: 0x018C [0xC0] EventEntity->Render.Flags3 &= ~0x1000 // Clear bit 12 (from 0*)
  1: 0x018F [0x00] END_REQSTACK()
```

### Event 65535.28

#### Metadata

| Field        | Value   |
|--------------|---------|
| Entrypoint   | 0x0190  |
| Data Size    | 4 bytes |
| Instructions | 2       |

```
      00 01 02 03 04 05 06 07  08 09 0A 0B 0C 0D 0E 0F
      -- -- -- -- -- -- -- --  -- -- -- -- -- -- -- --
0190: 95 25 80 00                                       .%..            
```

#### Opcodes

```
  0: 0x0190 [0x95] SETUP_EVENT_NPC: Prepare NPC for event (Render.Flags3 = 2*)
  1: 0x0193 [0x00] END_REQSTACK()
```

### Event 65535.29

#### Metadata

| Field        | Value   |
|--------------|---------|
| Entrypoint   | 0x0194  |
| Data Size    | 4 bytes |
| Instructions | 2       |

```
      00 01 02 03 04 05 06 07  08 09 0A 0B 0C 0D 0E 0F
      -- -- -- -- -- -- -- --  -- -- -- -- -- -- -- --
0190:             95 00 80 00                               ....        
```

#### Opcodes

```
  0: 0x0194 [0x95] SETUP_EVENT_NPC: Prepare NPC for event (Render.Flags3 = 0*)
  1: 0x0197 [0x00] END_REQSTACK()
```

### Event 145

#### Metadata

| Field        | Value   |
|--------------|---------|
| Entrypoint   | 0x0198  |
| Data Size    | 1 bytes |
| Instructions | 1       |

```
      00 01 02 03 04 05 06 07  08 09 0A 0B 0C 0D 0E 0F
      -- -- -- -- -- -- -- --  -- -- -- -- -- -- -- --
0190:                          00                               .       
```

#### Opcodes

```
  0: 0x0198 [0x00] END_REQSTACK()
```

### Event 146

#### Metadata

| Field        | Value   |
|--------------|---------|
| Entrypoint   | 0x0199  |
| Data Size    | 1 bytes |
| Instructions | 1       |

```
      00 01 02 03 04 05 06 07  08 09 0A 0B 0C 0D 0E 0F
      -- -- -- -- -- -- -- --  -- -- -- -- -- -- -- --
0190:                             00                             .      
```

#### Opcodes

```
  0: 0x0199 [0x00] END_REQSTACK()
```

### Event 65535.30

#### Metadata

| Field        | Value    |
|--------------|----------|
| Entrypoint   | 0x019A   |
| Data Size    | 12 bytes |
| Instructions | 4        |

```
      00 01 02 03 04 05 06 07  08 09 0A 0B 0C 0D 0E 0F
      -- -- -- -- -- -- -- --  -- -- -- -- -- -- -- --
0190:                                1F 00 26 80 27 80            ..&.'.
01A0: 12 80 1F 01 6F 00                                 ....o.          
```

#### Opcodes

```
  0: 0x019A [0x1F] MOVE_ENTITY: EventEntity moves to X=96.894*, Z=-39.984*, Y=0.999*
  1: 0x01A2 [0x1F] MOVE_ENTITY: Update entity position (mode=1)
  2: 0x01A4 [0x6F] WAIT_FRAME_DELAY: Yield until WaitTime reaches zero
  3: 0x01A5 [0x00] END_REQSTACK()
```

### Event 65535.31

#### Metadata

| Field        | Value    |
|--------------|----------|
| Entrypoint   | 0x01A6   |
| Data Size    | 11 bytes |
| Instructions | 3        |

```
      00 01 02 03 04 05 06 07  08 09 0A 0B 0C 0D 0E 0F
      -- -- -- -- -- -- -- --  -- -- -- -- -- -- -- --
01A0:                   1F 00  28 80 29 80 2A 80 1F 01        ..(.).*...
01B0: 00                                                .               
```

#### Opcodes

```
  0: 0x01A6 [0x1F] MOVE_ENTITY: EventEntity moves to X=92.694*, Z=26.623*, Y=3.999*
  1: 0x01AE [0x1F] MOVE_ENTITY: Update entity position (mode=1)
  2: 0x01B0 [0x00] END_REQSTACK()
```

### Event 65535.32

#### Metadata

| Field        | Value    |
|--------------|----------|
| Entrypoint   | 0x01B1   |
| Data Size    | 22 bytes |
| Instructions | 6        |

```
      00 01 02 03 04 05 06 07  08 09 0A 0B 0C 0D 0E 0F
      -- -- -- -- -- -- -- --  -- -- -- -- -- -- -- --
01B0:    1F 00 2B 80 2C 80 12  80 1F 01 6F 1F 00 2D 80   ..+.,.....o..-.
01C0: 2E 80 00 80 1F 01 00                              .......         
```

#### Opcodes

```
  0: 0x01B1 [0x1F] MOVE_ENTITY: EventEntity moves to X=99.144*, Z=104.185*, Y=0.999*
  1: 0x01B9 [0x1F] MOVE_ENTITY: Update entity position (mode=1)
  2: 0x01BB [0x6F] WAIT_FRAME_DELAY: Yield until WaitTime reaches zero
  3: 0x01BC [0x1F] MOVE_ENTITY: EventEntity moves to X=97.411*, Z=106.225*, Y=0.000*
  4: 0x01C4 [0x1F] MOVE_ENTITY: Update entity position (mode=1)
  5: 0x01C6 [0x00] END_REQSTACK()
```

### Event 65535.33

#### Metadata

| Field        | Value    |
|--------------|----------|
| Entrypoint   | 0x01C7   |
| Data Size    | 21 bytes |
| Instructions | 5        |

```
      00 01 02 03 04 05 06 07  08 09 0A 0B 0C 0D 0E 0F
      -- -- -- -- -- -- -- --  -- -- -- -- -- -- -- --
01C0:                      1F  00 2F 80 30 80 00 80 1F         ../.0....
01D0: 01 6F 4A 83 02 05 01 8B  02 05 01 00              .oJ.........    
```

#### Opcodes

```
  0: 0x01C7 [0x1F] MOVE_ENTITY: EventEntity moves to X=91.403*, Z=111.253*, Y=0.000*
  1: 0x01CF [0x1F] MOVE_ENTITY: Update entity position (mode=1)
  2: 0x01D1 [0x6F] WAIT_FRAME_DELAY: Yield until WaitTime reaches zero
  3: 0x01D2 [0x4A] Lilisette (ID: 17105539/0x01050283) looks at Mayakov (ID: 17105547/0x0105028B)
  4: 0x01DB [0x00] END_REQSTACK()
```

### Event 65535.34

#### Metadata

| Field        | Value    |
|--------------|----------|
| Entrypoint   | 0x01DC   |
| Data Size    | 11 bytes |
| Instructions | 3        |

```
      00 01 02 03 04 05 06 07  08 09 0A 0B 0C 0D 0E 0F
      -- -- -- -- -- -- -- --  -- -- -- -- -- -- -- --
01D0:                                      1F 00 31 80              ..1.
01E0: 32 80 00 80 1F 01 00                              2......         
```

#### Opcodes

```
  0: 0x01DC [0x1F] MOVE_ENTITY: EventEntity moves to X=92.013*, Z=111.756*, Y=0.000*
  1: 0x01E4 [0x1F] MOVE_ENTITY: Update entity position (mode=1)
  2: 0x01E6 [0x00] END_REQSTACK()
```

### Event 65535.35

#### Metadata

| Field        | Value    |
|--------------|----------|
| Entrypoint   | 0x01E7   |
| Data Size    | 11 bytes |
| Instructions | 3        |

```
      00 01 02 03 04 05 06 07  08 09 0A 0B 0C 0D 0E 0F
      -- -- -- -- -- -- -- --  -- -- -- -- -- -- -- --
01E0:                      1F  00 33 80 34 80 00 80 1F         ..3.4....
01F0: 01 00                                             ..              
```

#### Opcodes

```
  0: 0x01E7 [0x1F] MOVE_ENTITY: EventEntity moves to X=95.240*, Z=108.858*, Y=0.000*
  1: 0x01EF [0x1F] MOVE_ENTITY: Update entity position (mode=1)
  2: 0x01F1 [0x00] END_REQSTACK()
```

### Event 65535.36

#### Metadata

| Field        | Value    |
|--------------|----------|
| Entrypoint   | 0x01F2   |
| Data Size    | 44 bytes |
| Instructions | 8        |

```
      00 01 02 03 04 05 06 07  08 09 0A 0B 0C 0D 0E 0F
      -- -- -- -- -- -- -- --  -- -- -- -- -- -- -- --
01F0:       59 04 F8 FF FF 7F  07 80 79 00 F8 FF FF 7F    Y.......y.....
0200: F0 FF FF 7F 1F 00 35 80  36 80 37 80 1F 01 6F 4A  ......5.6.7...oJ
0210: F8 FF FF 7F F0 FF FF 7F  7B F8 FF FF 7F 00        ........{.....  
```

#### Opcodes

```
  0: 0x01F2 [0x59] UPDATE_ENTITY_DATA: Set EventEntity main speed = 13* * 0.1
  1: 0x01FA [0x79] EventEntity looks at LocalPlayer (Basic look)
  2: 0x0204 [0x1F] MOVE_ENTITY: EventEntity moves to X=90.243*, Z=121.804*, Y=1.000*
  3: 0x020C [0x1F] MOVE_ENTITY: Update entity position (mode=1)
  4: 0x020E [0x6F] WAIT_FRAME_DELAY: Yield until WaitTime reaches zero
  5: 0x020F [0x4A] EventEntity looks at LocalPlayer
  6: 0x0218 [0x7B] EventEntity stops talking
  7: 0x021D [0x00] END_REQSTACK()
```

### Event 65535.37

#### Metadata

| Field        | Value    |
|--------------|----------|
| Entrypoint   | 0x021E   |
| Data Size    | 45 bytes |
| Instructions | 9        |

```
      00 01 02 03 04 05 06 07  08 09 0A 0B 0C 0D 0E 0F
      -- -- -- -- -- -- -- --  -- -- -- -- -- -- -- --
0210:                                            59 04                Y.
0220: F8 FF FF 7F 38 80 79 00  F8 FF FF 7F F0 FF FF 7F  ....8.y.........
0230: 1F 00 39 80 3A 80 3B 80  1F 01 6F 1C 3C 80 4A F8  ..9.:.;...o.<.J.
0240: FF FF 7F F0 FF FF 7F 1C  3D 80 00                 ........=..     
```

#### Opcodes

```
  0: 0x021E [0x59] UPDATE_ENTITY_DATA: Set EventEntity main speed = 10* * 0.1
  1: 0x0226 [0x79] EventEntity looks at LocalPlayer (Basic look)
  2: 0x0230 [0x1F] MOVE_ENTITY: EventEntity moves to X=99.748*, Z=128.007*, Y=-1.901*
  3: 0x0238 [0x1F] MOVE_ENTITY: Update entity position (mode=1)
  4: 0x023A [0x6F] WAIT_FRAME_DELAY: Yield until WaitTime reaches zero
  5: 0x023B [0x1C] WAIT(15* ticks)
  6: 0x023E [0x4A] EventEntity looks at LocalPlayer
  7: 0x0247 [0x1C] WAIT(75* ticks)
  8: 0x024A [0x00] END_REQSTACK()
```

### Event 65535.38

#### Metadata

| Field        | Value    |
|--------------|----------|
| Entrypoint   | 0x024B   |
| Data Size    | 17 bytes |
| Instructions | 5        |

```
      00 01 02 03 04 05 06 07  08 09 0A 0B 0C 0D 0E 0F
      -- -- -- -- -- -- -- --  -- -- -- -- -- -- -- --
0240:                                   7B F8 FF FF 7F             {....
0250: 1F 00 3E 80 3F 80 40 80  1F 01 6F 00              ..>.?.@...o.    
```

#### Opcodes

```
  0: 0x024B [0x7B] EventEntity stops talking
  1: 0x0250 [0x1F] MOVE_ENTITY: EventEntity moves to X=96.633*, Z=122.280*, Y=-5.800*
  2: 0x0258 [0x1F] MOVE_ENTITY: Update entity position (mode=1)
  3: 0x025A [0x6F] WAIT_FRAME_DELAY: Yield until WaitTime reaches zero
  4: 0x025B [0x00] END_REQSTACK()
```

### Event 65535.39

#### Metadata

| Field        | Value    |
|--------------|----------|
| Entrypoint   | 0x025C   |
| Data Size    | 25 bytes |
| Instructions | 6        |

```
      00 01 02 03 04 05 06 07  08 09 0A 0B 0C 0D 0E 0F
      -- -- -- -- -- -- -- --  -- -- -- -- -- -- -- --
0250:                                      59 04 F8 FF              Y...
0260: FF 7F 38 80 7B F8 FF FF  7F 1F 00 41 80 42 80 40  ..8.{......A.B.@
0270: 80 1F 01 6F 00                                    ...o.           
```

#### Opcodes

```
  0: 0x025C [0x59] UPDATE_ENTITY_DATA: Set EventEntity main speed = 10* * 0.1
  1: 0x0264 [0x7B] EventEntity stops talking
  2: 0x0269 [0x1F] MOVE_ENTITY: EventEntity moves to X=100.709*, Z=114.600*, Y=-5.800*
  3: 0x0271 [0x1F] MOVE_ENTITY: Update entity position (mode=1)
  4: 0x0273 [0x6F] WAIT_FRAME_DELAY: Yield until WaitTime reaches zero
  5: 0x0274 [0x00] END_REQSTACK()
```

### Event 65535.40

#### Metadata

| Field        | Value    |
|--------------|----------|
| Entrypoint   | 0x0275   |
| Data Size    | 20 bytes |
| Instructions | 5        |

```
      00 01 02 03 04 05 06 07  08 09 0A 0B 0C 0D 0E 0F
      -- -- -- -- -- -- -- --  -- -- -- -- -- -- -- --
0270:                59 04 F8  FF FF 7F 3C 80 1F 00 43       Y.....<...C
0280: 80 44 80 45 80 1F 01 6F  00                       .D.E...o.       
```

#### Opcodes

```
  0: 0x0275 [0x59] UPDATE_ENTITY_DATA: Set EventEntity main speed = 15* * 0.1
  1: 0x027D [0x1F] MOVE_ENTITY: EventEntity moves to X=98.503*, Z=112.254*, Y=-6.800*
  2: 0x0285 [0x1F] MOVE_ENTITY: Update entity position (mode=1)
  3: 0x0287 [0x6F] WAIT_FRAME_DELAY: Yield until WaitTime reaches zero
  4: 0x0288 [0x00] END_REQSTACK()
```

### Event 65535.41

#### Metadata

| Field        | Value    |
|--------------|----------|
| Entrypoint   | 0x0289   |
| Data Size    | 30 bytes |
| Instructions | 6        |

```
      00 01 02 03 04 05 06 07  08 09 0A 0B 0C 0D 0E 0F
      -- -- -- -- -- -- -- --  -- -- -- -- -- -- -- --
0280:                             59 04 F8 FF FF 7F 3C           Y.....<
0290: 80 79 00 F8 FF FF 7F 8B  02 05 01 1F 00 46 80 47  .y...........F.G
02A0: 80 40 80 1F 01 6F 00                              .@...o.         
```

#### Opcodes

```
  0: 0x0289 [0x59] UPDATE_ENTITY_DATA: Set EventEntity main speed = 15* * 0.1
  1: 0x0291 [0x79] EventEntity looks at Mayakov (ID: 17105547/0x0105028B) (Basic look)
  2: 0x029B [0x1F] MOVE_ENTITY: EventEntity moves to X=99.993*, Z=115.418*, Y=-5.800*
  3: 0x02A3 [0x1F] MOVE_ENTITY: Update entity position (mode=1)
  4: 0x02A5 [0x6F] WAIT_FRAME_DELAY: Yield until WaitTime reaches zero
  5: 0x02A6 [0x00] END_REQSTACK()
```

### Event 65535.42

#### Metadata

| Field        | Value    |
|--------------|----------|
| Entrypoint   | 0x02A7   |
| Data Size    | 20 bytes |
| Instructions | 5        |

```
      00 01 02 03 04 05 06 07  08 09 0A 0B 0C 0D 0E 0F
      -- -- -- -- -- -- -- --  -- -- -- -- -- -- -- --
02A0:                      59  04 F8 FF FF 7F 38 80 1F         Y.....8..
02B0: 00 48 80 49 80 37 80 1F  01 6F 00                 .H.I.7...o.     
```

#### Opcodes

```
  0: 0x02A7 [0x59] UPDATE_ENTITY_DATA: Set EventEntity main speed = 10* * 0.1
  1: 0x02AF [0x1F] MOVE_ENTITY: EventEntity moves to X=89.745*, Z=120.337*, Y=1.000*
  2: 0x02B7 [0x1F] MOVE_ENTITY: Update entity position (mode=1)
  3: 0x02B9 [0x6F] WAIT_FRAME_DELAY: Yield until WaitTime reaches zero
  4: 0x02BA [0x00] END_REQSTACK()
```

### Event 65535.43

#### Metadata

| Field        | Value    |
|--------------|----------|
| Entrypoint   | 0x02BB   |
| Data Size    | 42 bytes |
| Instructions | 8        |

```
      00 01 02 03 04 05 06 07  08 09 0A 0B 0C 0D 0E 0F
      -- -- -- -- -- -- -- --  -- -- -- -- -- -- -- --
02B0:                                   BA F8 FF FF 7F             .....
02C0: 4A 80 4B 80 00 80 4C 80  1C 01 80 3A F8 FF FF 7F  J.K...L....:....
02D0: 05 10 07 05 10 4D 80 4B  F8 FF FF 7F 05 10 6F 76  .....M.K......ov
02E0: F8 FF FF 7F 00                                    .....           
```

#### Opcodes

```
  0: 0x02BB [0xBA] SET_ENTITY_POSITION(entity_id=EventEntity, pos_x=118.120*, pos_z=91.874*, pos_y=0.000*, direction=222.4°*)
  1: 0x02C8 [0x1C] WAIT(1* ticks)
  2: 0x02CB [0x3A] CONVERT_YAW_TO_BYTE(entity=EventEntity, result_destination=Work_Zone[5])
  3: 0x02D2 [0x07] Work_Zone[5] += 341*
  4: 0x02D7 [0x4B] UPDATE_ENTITY_YAW(entity=EventEntity, yaw=Work_Zone[5])
  5: 0x02DE [0x6F] WAIT_FRAME_DELAY: Yield until WaitTime reaches zero
  6: 0x02DF [0x76] CHECK_ENTITY_RENDER_FLAGS: Wait until EventEntity Render.Flags0 and Render.Flags3 conditions are met
  7: 0x02E4 [0x00] END_REQSTACK()
```

### Event 65535.44

#### Metadata

| Field        | Value    |
|--------------|----------|
| Entrypoint   | 0x02E5   |
| Data Size    | 34 bytes |
| Instructions | 4        |

```
      00 01 02 03 04 05 06 07  08 09 0A 0B 0C 0D 0E 0F
      -- -- -- -- -- -- -- --  -- -- -- -- -- -- -- --
02E0:                5B 4E 80  83 02 05 01 83 02 05 01       [N.........
02F0: 66 68 30 31 1C 4F 80 5B  4E 80 83 02 05 01 83 02  fh01.O.[N.......
0300: 05 01 66 68 30 30 00                              ..fh00.         
```

#### Opcodes

```
  0: 0x02E5 [0x5B] LOAD_EXT_SCHEDULER: Load scheduler "fh01" with entities [Lilisette (ID: 17105539/0x01050283), Lilisette (ID: 17105539/0x01050283)], work=2135*
  1: 0x02F4 [0x1C] WAIT(120* ticks)
  2: 0x02F7 [0x5B] LOAD_EXT_SCHEDULER: Load scheduler "fh00" with entities [Lilisette (ID: 17105539/0x01050283), Lilisette (ID: 17105539/0x01050283)], work=2135*
  3: 0x0306 [0x00] END_REQSTACK()
```

### Event 65535.45

#### Metadata

| Field        | Value   |
|--------------|---------|
| Entrypoint   | 0x0307  |
| Data Size    | 5 bytes |
| Instructions | 2       |

```
      00 01 02 03 04 05 06 07  08 09 0A 0B 0C 0D 0E 0F
      -- -- -- -- -- -- -- --  -- -- -- -- -- -- -- --
0300:                      B6  00 50 80 00                     ..P..    
```

#### Opcodes

```
  0: 0x0307 [0xB6] ENTITY_APPEARANCE_HANDLER(case=Hair style, value=2279*)
  1: 0x030B [0x00] END_REQSTACK()
```

### Event 65535.46

#### Metadata

| Field        | Value   |
|--------------|---------|
| Entrypoint   | 0x030C  |
| Data Size    | 5 bytes |
| Instructions | 2       |

```
      00 01 02 03 04 05 06 07  08 09 0A 0B 0C 0D 0E 0F
      -- -- -- -- -- -- -- --  -- -- -- -- -- -- -- --
0300:                                      B6 00 51 80              ..Q.
0310: 00                                                .               
```

#### Opcodes

```
  0: 0x030C [0xB6] ENTITY_APPEARANCE_HANDLER(case=Hair style, value=2255*)
  1: 0x0310 [0x00] END_REQSTACK()
```

### Event 169

#### Metadata

| Field        | Value   |
|--------------|---------|
| Entrypoint   | 0x0311  |
| Data Size    | 1 bytes |
| Instructions | 1       |

```
      00 01 02 03 04 05 06 07  08 09 0A 0B 0C 0D 0E 0F
      -- -- -- -- -- -- -- --  -- -- -- -- -- -- -- --
0310:    00                                              .              
```

#### Opcodes

```
  0: 0x0311 [0x00] END_REQSTACK()
```

### Event 65535.47

#### Metadata

| Field        | Value    |
|--------------|----------|
| Entrypoint   | 0x0312   |
| Data Size    | 29 bytes |
| Instructions | 7        |

```
      00 01 02 03 04 05 06 07  08 09 0A 0B 0C 0D 0E 0F
      -- -- -- -- -- -- -- --  -- -- -- -- -- -- -- --
0310:       32 52 80 1F 00 53  80 54 80 00 80 1F 01 1F    2R...S.T......
0320: 00 55 80 56 80 00 80 1F  01 1E 86 02 05 01 00     .U.V........... 
```

#### Opcodes

```
  0: 0x0312 [0x32] ExtData[1]->MainSpeed = 37* * 0.1
  1: 0x0315 [0x1F] MOVE_ENTITY: EventEntity moves to X=-22.845*, Z=-4.051*, Y=0.000*
  2: 0x031D [0x1F] MOVE_ENTITY: Update entity position (mode=1)
  3: 0x031F [0x1F] MOVE_ENTITY: EventEntity moves to X=-27.204*, Z=-6.094*, Y=0.000*
  4: 0x0327 [0x1F] MOVE_ENTITY: Update entity position (mode=1)
  5: 0x0329 [0x1E] EventEntity looks at Ragelise (ID: 17105542/0x01050286) and starts talking
  6: 0x032E [0x00] END_REQSTACK()
```

### Event 65535.48

#### Metadata

| Field        | Value    |
|--------------|----------|
| Entrypoint   | 0x032F   |
| Data Size    | 10 bytes |
| Instructions | 2        |

```
      00 01 02 03 04 05 06 07  08 09 0A 0B 0C 0D 0E 0F
      -- -- -- -- -- -- -- --  -- -- -- -- -- -- -- --
0320:                                               6C                 l
0330: 83 02 05 01 00 80 01 80  00                       .........       
```

#### Opcodes

```
  0: 0x032F [0x6C] FADE_ENTITY_COLOR(entity_id=Lilisette (ID: 17105539/0x01050283), end_alpha=0*, fade_time=1*)
  1: 0x0338 [0x00] END_REQSTACK()
```

### Event 65535.49

#### Metadata

| Field        | Value    |
|--------------|----------|
| Entrypoint   | 0x0339   |
| Data Size    | 10 bytes |
| Instructions | 2        |

```
      00 01 02 03 04 05 06 07  08 09 0A 0B 0C 0D 0E 0F
      -- -- -- -- -- -- -- --  -- -- -- -- -- -- -- --
0330:                             6C 83 02 05 01 02 80           l......
0340: 01 80 00                                          ...             
```

#### Opcodes

```
  0: 0x0339 [0x6C] FADE_ENTITY_COLOR(entity_id=Lilisette (ID: 17105539/0x01050283), end_alpha=128*, fade_time=1*)
  1: 0x0342 [0x00] END_REQSTACK()
```

### Event 176

#### Metadata

| Field        | Value   |
|--------------|---------|
| Entrypoint   | 0x0343  |
| Data Size    | 1 bytes |
| Instructions | 1       |

```
      00 01 02 03 04 05 06 07  08 09 0A 0B 0C 0D 0E 0F
      -- -- -- -- -- -- -- --  -- -- -- -- -- -- -- --
0340:          00                                          .            
```

#### Opcodes

```
  0: 0x0343 [0x00] END_REQSTACK()
```

### Event 183

#### Metadata

| Field        | Value   |
|--------------|---------|
| Entrypoint   | 0x0344  |
| Data Size    | 1 bytes |
| Instructions | 1       |

```
      00 01 02 03 04 05 06 07  08 09 0A 0B 0C 0D 0E 0F
      -- -- -- -- -- -- -- --  -- -- -- -- -- -- -- --
0340:             00                                        .           
```

#### Opcodes

```
  0: 0x0344 [0x00] END_REQSTACK()
```

### Event 65535.50

#### Metadata

| Field        | Value    |
|--------------|----------|
| Entrypoint   | 0x0345   |
| Data Size    | 27 bytes |
| Instructions | 7        |

```
      00 01 02 03 04 05 06 07  08 09 0A 0B 0C 0D 0E 0F
      -- -- -- -- -- -- -- --  -- -- -- -- -- -- -- --
0340:                32 06 80  1F 00 57 80 58 80 59 80       2....W.X.Y.
0350: 1F 01 1E F0 FF FF 7F 7B  F8 FF FF 7F 1C 5A 80 00  .......{.....Z..
```

#### Opcodes

```
  0: 0x0345 [0x32] ExtData[1]->MainSpeed = 40* * 0.1
  1: 0x0348 [0x1F] MOVE_ENTITY: EventEntity moves to X=139.594*, Z=107.198*, Y=-2.199*
  2: 0x0350 [0x1F] MOVE_ENTITY: Update entity position (mode=1)
  3: 0x0352 [0x1E] EventEntity looks at LocalPlayer and starts talking
  4: 0x0357 [0x7B] EventEntity stops talking
  5: 0x035C [0x1C] WAIT(30* ticks)
  6: 0x035F [0x00] END_REQSTACK()
```

### Event 65535.51

#### Metadata

| Field        | Value    |
|--------------|----------|
| Entrypoint   | 0x0360   |
| Data Size    | 10 bytes |
| Instructions | 2        |

```
      00 01 02 03 04 05 06 07  08 09 0A 0B 0C 0D 0E 0F
      -- -- -- -- -- -- -- --  -- -- -- -- -- -- -- --
0360: 6C F8 FF FF 7F 02 80 01  80 00                    l.........      
```

#### Opcodes

```
  0: 0x0360 [0x6C] FADE_ENTITY_COLOR(entity_id=EventEntity, end_alpha=128*, fade_time=1*)
  1: 0x0369 [0x00] END_REQSTACK()
```

### Event 65535.52

#### Metadata

| Field        | Value    |
|--------------|----------|
| Entrypoint   | 0x036A   |
| Data Size    | 14 bytes |
| Instructions | 4        |

```
      00 01 02 03 04 05 06 07  08 09 0A 0B 0C 0D 0E 0F
      -- -- -- -- -- -- -- --  -- -- -- -- -- -- -- --
0360:                                32 06 80 1F 00 5B            2....[
0370: 80 5C 80 0A 80 1F 01 00                           .\......        
```

#### Opcodes

```
  0: 0x036A [0x32] ExtData[1]->MainSpeed = 40* * 0.1
  1: 0x036D [0x1F] MOVE_ENTITY: EventEntity moves to X=150.550*, Z=118.030*, Y=-2.000*
  2: 0x0375 [0x1F] MOVE_ENTITY: Update entity position (mode=1)
  3: 0x0377 [0x00] END_REQSTACK()
```

### Event 184

#### Metadata

| Field        | Value   |
|--------------|---------|
| Entrypoint   | 0x0378  |
| Data Size    | 1 bytes |
| Instructions | 1       |

```
      00 01 02 03 04 05 06 07  08 09 0A 0B 0C 0D 0E 0F
      -- -- -- -- -- -- -- --  -- -- -- -- -- -- -- --
0370:                          00                               .       
```

#### Opcodes

```
  0: 0x0378 [0x00] END_REQSTACK()
```
