# 17105445

## Common Data

| Field            | Value                            |
|------------------|----------------------------------|
| Zone             | Southern San d'Oria [S] (ID: 80) |
| Block Size       | 32128 bytes                      |
| Total Events     | 10                               |
| References Count | 754                              |

## List of Events

| Event ID              | Entrypoint   |   Size |   Instructions |
|-----------------------|--------------|--------|----------------|
| [65535](#event-65535) | 0x0000       |      1 |              1 |
| [629](#event-629)     | 0x0001       |   7464 |            832 |
| [630](#event-630)     | 0x1D29       |   2603 |            335 |
| [631](#event-631)     | 0x2754       |   5380 |            615 |
| [632](#event-632)     | 0x3C58       |   5011 |            582 |
| [633](#event-633)     | 0x4FEB       |   8254 |            933 |
| [634](#event-634)     | 0x7029       |     68 |             12 |
| [635](#event-635)     | 0x706D       |     68 |             12 |
| [636](#event-636)     | 0x70B1       |     65 |             11 |
| [637](#event-637)     | 0x70F2       |    142 |             20 |

## DAT References (imed_data)

|   Index | Hex Value   |   Dec Value |
|---------|-------------|-------------|
|       0 | 0x0013      |          19 |
|       1 | 0xFFFD6864  |  4294797412 |
|       2 | 0xDF69      |       57193 |
|       3 | 0xFFFFF830  |  4294965296 |
|       4 | 0x01E7      |         487 |
|       5 | 0x0000      |           0 |
|       6 | 0xFFFD6DA1  |  4294798753 |
|       7 | 0xD8BC      |       55484 |
|       8 | 0x093F      |        2367 |
|       9 | 0x0513      |        1299 |
|      10 | 0x000F      |          15 |
|      11 | 0x0515      |        1301 |
|      12 | 0x0168      |         360 |
|      13 | 0x00C8      |         200 |
|      14 | 0x3332      |       13106 |
|      15 | 0x3333      |       13107 |
|      16 | 0x00F0      |         240 |
|      17 | 0xFFFD803B  |  4294803515 |
|      18 | 0xFD30      |       64816 |
|      19 | 0x05EE      |        1518 |
|      20 | 0xFFFD78C8  |  4294801608 |
|      21 | 0xEC1A      |       60442 |
|      22 | 0x05DE      |        1502 |
|      23 | 0xFFFD81CC  |  4294803916 |
|      24 | 0xF36C      |       62316 |
|      25 | 0x05ED      |        1517 |
|      26 | 0xFFFD74AF  |  4294800559 |
|      27 | 0x10276     |       66166 |
|      28 | 0xFFFFF831  |  4294965297 |
|      29 | 0x050C      |        1292 |
|      30 | 0xFFFD73EC  |  4294800364 |
|      31 | 0xFB8B      |       64395 |
|      32 | 0x02C8      |         712 |
|      33 | 0xFFFD5D3E  |  4294794558 |
|      34 | 0xE600      |       58880 |
|      35 | 0xFFFFF769  |  4294965097 |
|      36 | 0x3331      |       13105 |
|      37 | 0x3334      |       13108 |
|      38 | 0x04F8      |        1272 |
|      39 | 0x3335      |       13109 |
|      40 | 0xFFFD7C20  |  4294802464 |
|      41 | 0xF01A      |       61466 |
|      42 | 0x057C      |        1404 |
|      43 | 0x059F      |        1439 |
|      44 | 0x3336      |       13110 |
|      45 | 0x3337      |       13111 |
|      46 | 0x092F      |        2351 |
|      47 | 0x3338      |       13112 |
|      48 | 0x3339      |       13113 |
|      49 | 0x333A      |       13114 |
|      50 | 0x04F9      |        1273 |
|      51 | 0x333B      |       13115 |
|      52 | 0x333C      |       13116 |
|      53 | 0x333D      |       13117 |
|      54 | 0x333E      |       13118 |
|      55 | 0x333F      |       13119 |
|      56 | 0x3340      |       13120 |
|      57 | 0x092E      |        2350 |
|      58 | 0x3341      |       13121 |
|      59 | 0xFFFD63ED  |  4294796269 |
|      60 | 0xD67A      |       54906 |
|      61 | 0x0602      |        1538 |
|      62 | 0xFFFD7067  |  4294799463 |
|      63 | 0xDA5E      |       55902 |
|      64 | 0x057E      |        1406 |
|      65 | 0x059E      |        1438 |
|      66 | 0x0050      |          80 |
|      67 | 0x001E      |          30 |
|      68 | 0x3342      |       13122 |
|      69 | 0x3343      |       13123 |
|      70 | 0x3344      |       13124 |
|      71 | 0x3345      |       13125 |
|      72 | 0xFFFD730E  |  4294800142 |
|      73 | 0xE521      |       58657 |
|      74 | 0x0CC6      |        3270 |
|      75 | 0x000A      |          10 |
|      76 | 0xFFFD724E  |  4294799950 |
|      77 | 0xED4F      |       60751 |
|      78 | 0x0516      |        1302 |
|      79 | 0xFFFD77A7  |  4294801319 |
|      80 | 0xEAB6      |       60086 |
|      81 | 0xFFFD7ABA  |  4294802106 |
|      82 | 0xE5C2      |       58818 |
|      83 | 0x07BC      |        1980 |
|      84 | 0xFFFD6E34  |  4294798900 |
|      85 | 0xEBED      |       60397 |
|      86 | 0x051C      |        1308 |
|      87 | 0x3346      |       13126 |
|      88 | 0x3347      |       13127 |
|      89 | 0x3348      |       13128 |
|      90 | 0x3349      |       13129 |
|      91 | 0x334A      |       13130 |
|      92 | 0x334B      |       13131 |
|      93 | 0x334C      |       13132 |
|      94 | 0x334D      |       13133 |
|      95 | 0x334E      |       13134 |
|      96 | 0x334F      |       13135 |
|      97 | 0x3350      |       13136 |
|      98 | 0x002C      |          44 |
|      99 | 0xFFFD71B4  |  4294799796 |
|     100 | 0xF958      |       63832 |
|     101 | 0x05F6      |        1526 |
|     102 | 0xFFFD7E2A  |  4294802986 |
|     103 | 0xF04B      |       61515 |
|     104 | 0x0A4E      |        2638 |
|     105 | 0xFFFD8135  |  4294803765 |
|     106 | 0xF569      |       62825 |
|     107 | 0xFFFD714B  |  4294799691 |
|     108 | 0xF546      |       62790 |
|     109 | 0x05F5      |        1525 |
|     110 | 0xFFFD7D30  |  4294802736 |
|     111 | 0xFC26      |       64550 |
|     112 | 0xFFFD77E8  |  4294801384 |
|     113 | 0xFDEE      |       65006 |
|     114 | 0x0078      |         120 |
|     115 | 0x3351      |       13137 |
|     116 | 0x05DF      |        1503 |
|     117 | 0x3352      |       13138 |
|     118 | 0x3353      |       13139 |
|     119 | 0x092D      |        2349 |
|     120 | 0x3354      |       13140 |
|     121 | 0x3355      |       13141 |
|     122 | 0x3356      |       13142 |
|     123 | 0x3357      |       13143 |
|     124 | 0x059D      |        1437 |
|     125 | 0x005A      |          90 |
|     126 | 0x0015      |          21 |
|     127 | 0x00F6      |         246 |
|     128 | 0x3358      |       13144 |
|     129 | 0x3359      |       13145 |
|     130 | 0xFFFD738F  |  4294800271 |
|     131 | 0xE2AF      |       58031 |
|     132 | 0x0594      |        1428 |
|     133 | 0x003C      |          60 |
|     134 | 0x335A      |       13146 |
|     135 | 0x335B      |       13147 |
|     136 | 0x335C      |       13148 |
|     137 | 0x335D      |       13149 |
|     138 | 0x335E      |       13150 |
|     139 | 0x335F      |       13151 |
|     140 | 0x3360      |       13152 |
|     141 | 0x3361      |       13153 |
|     142 | 0x3362      |       13154 |
|     143 | 0x05E0      |        1504 |
|     144 | 0x00E8      |         232 |
|     145 | 0x3363      |       13155 |
|     146 | 0x3364      |       13156 |
|     147 | 0x0800      |        2048 |
|     148 | 0x3365      |       13157 |
|     149 | 0x3366      |       13158 |
|     150 | 0x0070      |         112 |
|     151 | 0x3367      |       13159 |
|     152 | 0x005C      |          92 |
|     153 | 0x3368      |       13160 |
|     154 | 0x3369      |       13161 |
|     155 | 0x0082      |         130 |
|     156 | 0x336A      |       13162 |
|     157 | 0x08D5      |        2261 |
|     158 | 0x0005      |           5 |
|     159 | 0x336B      |       13163 |
|     160 | 0x08D7      |        2263 |
|     161 | 0x336C      |       13164 |
|     162 | 0x336D      |       13165 |
|     163 | 0x08D6      |        2262 |
|     164 | 0x336E      |       13166 |
|     165 | 0x336F      |       13167 |
|     166 | 0x3370      |       13168 |
|     167 | 0x3371      |       13169 |
|     168 | 0x3372      |       13170 |
|     169 | 0x08D8      |        2264 |
|     170 | 0x08D9      |        2265 |
|     171 | 0x08DA      |        2266 |
|     172 | 0x08DB      |        2267 |
|     173 | 0x0003      |           3 |
|     174 | 0x0096      |         150 |
|     175 | 0x3373      |       13171 |
|     176 | 0x3374      |       13172 |
|     177 | 0x010E      |         270 |
|     178 | 0x3375      |       13173 |
|     179 | 0x00F5      |         245 |
|     180 | 0x012C      |         300 |
|     181 | 0xFFFD702F  |  4294799407 |
|     182 | 0xE9FB      |       59899 |
|     183 | 0x016E      |         366 |
|     184 | 0x05E1      |        1505 |
|     185 | 0x3376      |       13174 |
|     186 | 0x01E0      |         480 |
|     187 | 0x3377      |       13175 |
|     188 | 0x3378      |       13176 |
|     189 | 0x3379      |       13177 |
|     190 | 0x00B4      |         180 |
|     191 | 0x337A      |       13178 |
|     192 | 0x337B      |       13179 |
|     193 | 0x002D      |          45 |
|     194 | 0x337C      |       13180 |
|     195 | 0x00FE      |         254 |
|     196 | 0xFFFD610E  |  4294795534 |
|     197 | 0xE75E      |       59230 |
|     198 | 0xFFFFF76A  |  4294965098 |
|     199 | 0x01A4      |         420 |
|     200 | 0xFFFD7EBA  |  4294803130 |
|     201 | 0xEDF6      |       60918 |
|     202 | 0x0998      |        2456 |
|     203 | 0xFFFD714C  |  4294799692 |
|     204 | 0xDF51      |       57169 |
|     205 | 0x0A64      |        2660 |
|     206 | 0xFFFD6FFC  |  4294799356 |
|     207 | 0xEAEB      |       60139 |
|     208 | 0x0FF6      |        4086 |
|     209 | 0xFFFD694C  |  4294797644 |
|     210 | 0xEC66      |       60518 |
|     211 | 0xFFFD7776  |  4294801270 |
|     212 | 0xE4D9      |       58585 |
|     213 | 0x0AF8      |        2808 |
|     214 | 0xFFFD68E5  |  4294797541 |
|     215 | 0xE4BF      |       58559 |
|     216 | 0x0252      |         594 |
|     217 | 0x337F      |       13183 |
|     218 | 0xFFFD72BA  |  4294800058 |
|     219 | 0xE4E7      |       58599 |
|     220 | 0x05A5      |        1445 |
|     221 | 0x0014      |          20 |
|     222 | 0x0536      |        1334 |
|     223 | 0x3380      |       13184 |
|     224 | 0x3381      |       13185 |
|     225 | 0x3382      |       13186 |
|     226 | 0x3383      |       13187 |
|     227 | 0x3384      |       13188 |
|     228 | 0x0F2F      |        3887 |
|     229 | 0x3385      |       13189 |
|     230 | 0x3386      |       13190 |
|     231 | 0x3387      |       13191 |
|     232 | 0x3388      |       13192 |
|     233 | 0x3389      |       13193 |
|     234 | 0x053A      |        1338 |
|     235 | 0x338A      |       13194 |
|     236 | 0x338B      |       13195 |
|     237 | 0xFFFD81F4  |  4294803956 |
|     238 | 0xFF7B      |       65403 |
|     239 | 0x0D69      |        3433 |
|     240 | 0x338C      |       13196 |
|     241 | 0x338D      |       13197 |
|     242 | 0xFFFD74BB  |  4294800571 |
|     243 | 0xE6A9      |       59049 |
|     244 | 0x088B      |        2187 |
|     245 | 0x338E      |       13198 |
|     246 | 0x338F      |       13199 |
|     247 | 0x3390      |       13200 |
|     248 | 0x3391      |       13201 |
|     249 | 0x3392      |       13202 |
|     250 | 0x3393      |       13203 |
|     251 | 0x0023      |          35 |
|     252 | 0x3394      |       13204 |
|     253 | 0xFFFFE693  |  4294960787 |
|     254 | 0xFFFEAAE3  |  4294879971 |
|     255 | 0x07CF      |        1999 |
|     256 | 0x03D3      |         979 |
|     257 | 0xFFFFE1DA  |  4294959578 |
|     258 | 0xFFFEA30B  |  4294877963 |
|     259 | 0x0D3B      |        3387 |
|     260 | 0x001D      |          29 |
|     261 | 0x3397      |       13207 |
|     262 | 0x0091      |         145 |
|     263 | 0xFFFFCAB2  |  4294953650 |
|     264 | 0xFFFEAA0A  |  4294879754 |
|     265 | 0x05C2      |        1474 |
|     266 | 0xFFFFB5E6  |  4294948326 |
|     267 | 0xFFFE86DB  |  4294870747 |
|     268 | 0x0897      |        2199 |
|     269 | 0x0FCD      |        4045 |
|     270 | 0xFFFFBA1D  |  4294949405 |
|     271 | 0xFFFE832A  |  4294869802 |
|     272 | 0xFFFFCE25  |  4294954533 |
|     273 | 0xFFFE7167  |  4294865255 |
|     274 | 0x0DC7      |        3527 |
|     275 | 0xFFFFD531  |  4294956337 |
|     276 | 0xFFFE7759  |  4294866777 |
|     277 | 0x06DC      |        1756 |
|     278 | 0xFFFFD28F  |  4294955663 |
|     279 | 0xFFFE7CAF  |  4294868143 |
|     280 | 0x0646      |        1606 |
|     281 | 0xFFFFCA9D  |  4294953629 |
|     282 | 0xFFFE78A0  |  4294867104 |
|     283 | 0x0EB2      |        3762 |
|     284 | 0xFFFF961D  |  4294940189 |
|     285 | 0xFFFEA8C5  |  4294879429 |
|     286 | 0x0022      |          34 |
|     287 | 0xFFFF9FAE  |  4294942638 |
|     288 | 0xFFFEAAD8  |  4294879960 |
|     289 | 0x080E      |        2062 |
|     290 | 0xFFFF9EA8  |  4294942376 |
|     291 | 0xFFFEB5C5  |  4294882757 |
|     292 | 0x0569      |        1385 |
|     293 | 0xFFFFED3D  |  4294962493 |
|     294 | 0xFFFE9E95  |  4294876821 |
|     295 | 0x0204      |         516 |
|     296 | 0xFFFFF72D  |  4294965037 |
|     297 | 0xFFFE95A1  |  4294874529 |
|     298 | 0x0A15      |        2581 |
|     299 | 0xFFFFEF28  |  4294962984 |
|     300 | 0xFFFE96E6  |  4294874854 |
|     301 | 0x0A17      |        2583 |
|     302 | 0xFFFFD817  |  4294957079 |
|     303 | 0xFFFEA163  |  4294877539 |
|     304 | 0x07A9      |        1961 |
|     305 | 0x0B98      |        2968 |
|     306 | 0xFFFFD31D  |  4294955805 |
|     307 | 0xFFFEA722  |  4294879010 |
|     308 | 0x03A5      |         933 |
|     309 | 0xFFFFB62F  |  4294948399 |
|     310 | 0xFFFEAD29  |  4294880553 |
|     311 | 0x0A3E      |        2622 |
|     312 | 0xFFFFB93E  |  4294949182 |
|     313 | 0xFFFEB3E3  |  4294882275 |
|     314 | 0x0578      |        1400 |
|     315 | 0xFFFFC253  |  4294951507 |
|     316 | 0xFFFE93AB  |  4294874027 |
|     317 | 0x3398      |       13208 |
|     318 | 0x3399      |       13209 |
|     319 | 0x339A      |       13210 |
|     320 | 0xFFFFBF87  |  4294950791 |
|     321 | 0xFFFE8F4C  |  4294872908 |
|     322 | 0x0638      |        1592 |
|     323 | 0x339B      |       13211 |
|     324 | 0x339C      |       13212 |
|     325 | 0xFFFFB87E  |  4294948990 |
|     326 | 0xFFFE9110  |  4294873360 |
|     327 | 0x04B0      |        1200 |
|     328 | 0x339D      |       13213 |
|     329 | 0x339E      |       13214 |
|     330 | 0x339F      |       13215 |
|     331 | 0xFFFFC527  |  4294952231 |
|     332 | 0xFFFE8C03  |  4294872067 |
|     333 | 0x0668      |        1640 |
|     334 | 0x05E2      |        1506 |
|     335 | 0x08D4      |        2260 |
|     336 | 0x05E3      |        1507 |
|     337 | 0x05E4      |        1508 |
|     338 | 0x1200      |        4608 |
|     339 | 0x33A0      |       13216 |
|     340 | 0x33A2      |       13218 |
|     341 | 0x33A3      |       13219 |
|     342 | 0x33A1      |       13217 |
|     343 | 0x00D4      |         212 |
|     344 | 0x33A4      |       13220 |
|     345 | 0x33A5      |       13221 |
|     346 | 0x33A6      |       13222 |
|     347 | 0x33A7      |       13223 |
|     348 | 0x0258      |         600 |
|     349 | 0x0F7A      |        3962 |
|     350 | 0xFFFE98ED  |  4294875373 |
|     351 | 0x0A49      |        2633 |
|     352 | 0x0C9D      |        3229 |
|     353 | 0xFFFE939C  |  4294874012 |
|     354 | 0x0967      |        2407 |
|     355 | 0x1432      |        5170 |
|     356 | 0xFFFE8E78  |  4294872696 |
|     357 | 0x0809      |        2057 |
|     358 | 0x1610      |        5648 |
|     359 | 0xFFFE9A95  |  4294875797 |
|     360 | 0x083A      |        2106 |
|     361 | 0x1598      |        5528 |
|     362 | 0xFFFEA2DC  |  4294877916 |
|     363 | 0x07A5      |        1957 |
|     364 | 0xFFFFEA54  |  4294961748 |
|     365 | 0xFFFE919D  |  4294873501 |
|     366 | 0x0FE7      |        4071 |
|     367 | 0xFFFFE72D  |  4294960941 |
|     368 | 0xFFFE99AA  |  4294875562 |
|     369 | 0x0FD1      |        4049 |
|     370 | 0xFFFFE965  |  4294961509 |
|     371 | 0xFFFEA542  |  4294878530 |
|     372 | 0x0F17      |        3863 |
|     373 | 0xFFFFEAAA  |  4294961834 |
|     374 | 0xFFFE9E99  |  4294876825 |
|     375 | 0x0EE0      |        3808 |
|     376 | 0xFFFFED00  |  4294962432 |
|     377 | 0xFFFE9584  |  4294874500 |
|     378 | 0x0F5E      |        3934 |
|     379 | 0x0A3B      |        2619 |
|     380 | 0xFFFE8638  |  4294870584 |
|     381 | 0x0B83      |        2947 |
|     382 | 0xFFFFF991  |  4294965649 |
|     383 | 0xFFFE9732  |  4294874930 |
|     384 | 0x0400      |        1024 |
|     385 | 0x01EB      |         491 |
|     386 | 0xFFFEA5CF  |  4294878671 |
|     387 | 0xFFFFF2E0  |  4294963936 |
|     388 | 0xFFFEAC13  |  4294880275 |
|     389 | 0x0CF4      |        3316 |
|     390 | 0xFFFEB533  |  4294882611 |
|     391 | 0xFFFFF659  |  4294964825 |
|     392 | 0xFFFEC24B  |  4294885963 |
|     393 | 0x05A9      |        1449 |
|     394 | 0xFFFEB8F0  |  4294883568 |
|     395 | 0x03EC      |        1004 |
|     396 | 0x00EB      |         235 |
|     397 | 0xFFFEB9E8  |  4294883816 |
|     398 | 0x05A0      |        1440 |
|     399 | 0x05D2      |        1490 |
|     400 | 0x008C      |         140 |
|     401 | 0x0001      |           1 |
|     402 | 0x0024      |          36 |
|     403 | 0x0002      |           2 |
|     404 | 0x0063      |          99 |
|     405 | 0xFFFEAAC4  |  4294879940 |
|     406 | 0xFFFFA4EC  |  4294943980 |
|     407 | 0xFFFE8D48  |  4294872392 |
|     408 | 0x07B4      |        1972 |
|     409 | 0x0A04      |        2564 |
|     410 | 0x33A8      |       13224 |
|     411 | 0x33A9      |       13225 |
|     412 | 0x0064      |         100 |
|     413 | 0x05D5      |        1493 |
|     414 | 0xFFFE8DDE  |  4294872542 |
|     415 | 0x03EB      |        1003 |
|     416 | 0x01D9      |         473 |
|     417 | 0xFFFE9454  |  4294874196 |
|     418 | 0x33AA      |       13226 |
|     419 | 0x33AB      |       13227 |
|     420 | 0x33AC      |       13228 |
|     421 | 0x33AD      |       13229 |
|     422 | 0x1360      |        4960 |
|     423 | 0xFFFEC68A  |  4294887050 |
|     424 | 0x06A4      |        1700 |
|     425 | 0x0B7B      |        2939 |
|     426 | 0xFFFD3B1E  |  4294785822 |
|     427 | 0xE16C      |       57708 |
|     428 | 0x0027      |          39 |
|     429 | 0xFFFD2A38  |  4294781496 |
|     430 | 0xE176      |       57718 |
|     431 | 0x0127      |         295 |
|     432 | 0x33AE      |       13230 |
|     433 | 0x33AF      |       13231 |
|     434 | 0x33B0      |       13232 |
|     435 | 0x007B      |         123 |
|     436 | 0xFFFD4F53  |  4294790995 |
|     437 | 0xE26D      |       57965 |
|     438 | 0x0FA0      |        4000 |
|     439 | 0x33B1      |       13233 |
|     440 | 0xFFFD8588  |  4294804872 |
|     441 | 0xFF54      |       65364 |
|     442 | 0x024E      |         590 |
|     443 | 0x33B2      |       13234 |
|     444 | 0xFFFD7F3A  |  4294803258 |
|     445 | 0xF1E8      |       61928 |
|     446 | 0x0283      |         643 |
|     447 | 0xFFFD774E  |  4294801230 |
|     448 | 0xF445      |       62533 |
|     449 | 0x02DA      |         730 |
|     450 | 0xFFFD9571  |  4294808945 |
|     451 | 0x10800     |       67584 |
|     452 | 0x0727      |        1831 |
|     453 | 0xFFFD8916  |  4294805782 |
|     454 | 0x10128     |       65832 |
|     455 | 0x0753      |        1875 |
|     456 | 0xFFFD8FD1  |  4294807505 |
|     457 | 0xFFB5      |       65461 |
|     458 | 0xFFFD8849  |  4294805577 |
|     459 | 0x10865     |       67685 |
|     460 | 0x0726      |        1830 |
|     461 | 0xFFFD8DA0  |  4294806944 |
|     462 | 0x1075B     |       67419 |
|     463 | 0x0728      |        1832 |
|     464 | 0x05D6      |        1494 |
|     465 | 0x33B3      |       13235 |
|     466 | 0x08CB      |        2251 |
|     467 | 0x33B4      |       13236 |
|     468 | 0x00A0      |         160 |
|     469 | 0x33B5      |       13237 |
|     470 | 0xFFFD8352  |  4294804306 |
|     471 | 0xF747      |       63303 |
|     472 | 0x0D36      |        3382 |
|     473 | 0x33B6      |       13238 |
|     474 | 0x33B7      |       13239 |
|     475 | 0x33B8      |       13240 |
|     476 | 0x33B9      |       13241 |
|     477 | 0x33BA      |       13242 |
|     478 | 0xFFFD7D72  |  4294802802 |
|     479 | 0xFA36      |       64054 |
|     480 | 0x0DAB      |        3499 |
|     481 | 0x33BB      |       13243 |
|     482 | 0x33BC      |       13244 |
|     483 | 0x33BD      |       13245 |
|     484 | 0x33BE      |       13246 |
|     485 | 0x33BF      |       13247 |
|     486 | 0x33C0      |       13248 |
|     487 | 0x33C1      |       13249 |
|     488 | 0x33C2      |       13250 |
|     489 | 0x33C3      |       13251 |
|     490 | 0x33C4      |       13252 |
|     491 | 0x33C5      |       13253 |
|     492 | 0x33C6      |       13254 |
|     493 | 0x33C7      |       13255 |
|     494 | 0x33C8      |       13256 |
|     495 | 0x33C9      |       13257 |
|     496 | 0x33CA      |       13258 |
|     497 | 0xFFFD4E94  |  4294790804 |
|     498 | 0xE2E8      |       58088 |
|     499 | 0x0601      |        1537 |
|     500 | 0x33CB      |       13259 |
|     501 | 0x33CC      |       13260 |
|     502 | 0x33CD      |       13261 |
|     503 | 0x33CE      |       13262 |
|     504 | 0x33CF      |       13263 |
|     505 | 0x028A      |         650 |
|     506 | 0x33D0      |       13264 |
|     507 | 0x33D1      |       13265 |
|     508 | 0x0C4B      |        3147 |
|     509 | 0x33D2      |       13266 |
|     510 | 0x33D3      |       13267 |
|     511 | 0x33D4      |       13268 |
|     512 | 0x33D5      |       13269 |
|     513 | 0x33D6      |       13270 |
|     514 | 0x33D7      |       13271 |
|     515 | 0x33D8      |       13272 |
|     516 | 0x33D9      |       13273 |
|     517 | 0xFFFD86E5  |  4294805221 |
|     518 | 0xF7FA      |       63482 |
|     519 | 0x054A      |        1354 |
|     520 | 0x33DA      |       13274 |
|     521 | 0x33DB      |       13275 |
|     522 | 0x33DC      |       13276 |
|     523 | 0x33DD      |       13277 |
|     524 | 0xFFFD8DFF  |  4294807039 |
|     525 | 0x1002F     |       65583 |
|     526 | 0x0D0E      |        3342 |
|     527 | 0x33DE      |       13278 |
|     528 | 0x33DF      |       13279 |
|     529 | 0x03FB      |        1019 |
|     530 | 0x33E0      |       13280 |
|     531 | 0x33E1      |       13281 |
|     532 | 0xFFFD929E  |  4294808222 |
|     533 | 0x10251     |       66129 |
|     534 | 0x058C      |        1420 |
|     535 | 0x33E2      |       13282 |
|     536 | 0x33E3      |       13283 |
|     537 | 0x33E4      |       13284 |
|     538 | 0x33E5      |       13285 |
|     539 | 0x33E6      |       13286 |
|     540 | 0x33E7      |       13287 |
|     541 | 0xFFFD88BA  |  4294805690 |
|     542 | 0xFC99      |       64665 |
|     543 | 0x0D65      |        3429 |
|     544 | 0x33E8      |       13288 |
|     545 | 0x33E9      |       13289 |
|     546 | 0x33EA      |       13290 |
|     547 | 0x33EB      |       13291 |
|     548 | 0x33ED      |       13293 |
|     549 | 0x33EE      |       13294 |
|     550 | 0xFFFCFF29  |  4294770473 |
|     551 | 0xA41A      |       42010 |
|     552 | 0xFFFFFC18  |  4294966296 |
|     553 | 0x0DF3      |        3571 |
|     554 | 0xFFFD0A12  |  4294773266 |
|     555 | 0xBED2      |       48850 |
|     556 | 0x0341      |         833 |
|     557 | 0xFFFD4116  |  4294787350 |
|     558 | 0x781F      |       30751 |
|     559 | 0x09D8      |        2520 |
|     560 | 0xFFFD47DB  |  4294789083 |
|     561 | 0x781D      |       30749 |
|     562 | 0x0A0D      |        2573 |
|     563 | 0xFFFD10B5  |  4294774965 |
|     564 | 0xBF40      |       48960 |
|     565 | 0xFFFFFC11  |  4294966289 |
|     566 | 0x02F1      |         753 |
|     567 | 0xFFFD21F8  |  4294779384 |
|     568 | 0xA164      |       41316 |
|     569 | 0x01CC      |         460 |
|     570 | 0xFFFD1A03  |  4294777347 |
|     571 | 0xBD84      |       48516 |
|     572 | 0xFFFFFC19  |  4294966297 |
|     573 | 0x0628      |        1576 |
|     574 | 0x00A3      |         163 |
|     575 | 0x33EF      |       13295 |
|     576 | 0x0599      |        1433 |
|     577 | 0xFFFD0B32  |  4294773554 |
|     578 | 0xAE5F      |       44639 |
|     579 | 0x0E0E      |        3598 |
|     580 | 0x33F0      |       13296 |
|     581 | 0x092C      |        2348 |
|     582 | 0x33F1      |       13297 |
|     583 | 0x33F2      |       13298 |
|     584 | 0x33F3      |       13299 |
|     585 | 0x33F4      |       13300 |
|     586 | 0xFFFD118C  |  4294775180 |
|     587 | 0xB86C      |       47212 |
|     588 | 0x0F46      |        3910 |
|     589 | 0x33F5      |       13301 |
|     590 | 0xFFFD1B02  |  4294777602 |
|     591 | 0xADD2      |       44498 |
|     592 | 0x0A8C      |        2700 |
|     593 | 0x33F6      |       13302 |
|     594 | 0x33F7      |       13303 |
|     595 | 0x33F8      |       13304 |
|     596 | 0xFFFD0A17  |  4294773271 |
|     597 | 0xF0BC      |       61628 |
|     598 | 0x0B64      |        2916 |
|     599 | 0xFFFD2131  |  4294779185 |
|     600 | 0xA5E3      |       42467 |
|     601 | 0x0A6F      |        2671 |
|     602 | 0xFFFD2A7A  |  4294781562 |
|     603 | 0xA181      |       41345 |
|     604 | 0x00E1      |         225 |
|     605 | 0x33F9      |       13305 |
|     606 | 0x0169      |         361 |
|     607 | 0xFFFD1E1C  |  4294778396 |
|     608 | 0xB596      |       46486 |
|     609 | 0x0A27      |        2599 |
|     610 | 0xFFFD265E  |  4294780510 |
|     611 | 0xB511      |       46353 |
|     612 | 0x0ADF      |        2783 |
|     613 | 0x33FA      |       13306 |
|     614 | 0x33FB      |       13307 |
|     615 | 0x33FC      |       13308 |
|     616 | 0x33FD      |       13309 |
|     617 | 0x33FE      |       13310 |
|     618 | 0x33FF      |       13311 |
|     619 | 0xFFFD12D1  |  4294775505 |
|     620 | 0xB61B      |       46619 |
|     621 | 0x0A72      |        2674 |
|     622 | 0xFFFD1901  |  4294777089 |
|     623 | 0xB39E      |       45982 |
|     624 | 0x3400      |       13312 |
|     625 | 0x3401      |       13313 |
|     626 | 0x3402      |       13314 |
|     627 | 0x3403      |       13315 |
|     628 | 0x3404      |       13316 |
|     629 | 0x3405      |       13317 |
|     630 | 0x3406      |       13318 |
|     631 | 0x3407      |       13319 |
|     632 | 0x3408      |       13320 |
|     633 | 0x3409      |       13321 |
|     634 | 0x340A      |       13322 |
|     635 | 0x08CC      |        2252 |
|     636 | 0x340B      |       13323 |
|     637 | 0x340C      |       13324 |
|     638 | 0x340D      |       13325 |
|     639 | 0x340E      |       13326 |
|     640 | 0x340F      |       13327 |
|     641 | 0x3410      |       13328 |
|     642 | 0x3411      |       13329 |
|     643 | 0x3412      |       13330 |
|     644 | 0x3413      |       13331 |
|     645 | 0x3414      |       13332 |
|     646 | 0xFFFD7E24  |  4294802980 |
|     647 | 0xF053      |       61523 |
|     648 | 0x0AA2      |        2722 |
|     649 | 0xFFFD7499  |  4294800537 |
|     650 | 0xF34F      |       62287 |
|     651 | 0x0D78      |        3448 |
|     652 | 0xFFFD9698  |  4294809240 |
|     653 | 0xF927      |       63783 |
|     654 | 0x0890      |        2192 |
|     655 | 0xFFFD7758  |  4294801240 |
|     656 | 0x10410     |       66576 |
|     657 | 0x01D5      |         469 |
|     658 | 0xFFFD71E6  |  4294799846 |
|     659 | 0x1004D     |       65613 |
|     660 | 0x01BC      |         444 |
|     661 | 0xFFFD80B6  |  4294803638 |
|     662 | 0x10106     |       65798 |
|     663 | 0x02B5      |         693 |
|     664 | 0x3415      |       13333 |
|     665 | 0x3416      |       13334 |
|     666 | 0x3417      |       13335 |
|     667 | 0xFFFD8FFB  |  4294807547 |
|     668 | 0xDE9A      |       56986 |
|     669 | 0x05BB      |        1467 |
|     670 | 0x3418      |       13336 |
|     671 | 0xFFFD872D  |  4294805293 |
|     672 | 0xE570      |       58736 |
|     673 | 0x0A60      |        2656 |
|     674 | 0x3419      |       13337 |
|     675 | 0x341A      |       13338 |
|     676 | 0x341B      |       13339 |
|     677 | 0x341C      |       13340 |
|     678 | 0x341D      |       13341 |
|     679 | 0x341E      |       13342 |
|     680 | 0x341F      |       13343 |
|     681 | 0x3420      |       13344 |
|     682 | 0x3421      |       13345 |
|     683 | 0x3422      |       13346 |
|     684 | 0x3423      |       13347 |
|     685 | 0x3424      |       13348 |
|     686 | 0x3425      |       13349 |
|     687 | 0x3426      |       13350 |
|     688 | 0x3427      |       13351 |
|     689 | 0x3428      |       13352 |
|     690 | 0x3429      |       13353 |
|     691 | 0x342A      |       13354 |
|     692 | 0x342B      |       13355 |
|     693 | 0x342C      |       13356 |
|     694 | 0x342D      |       13357 |
|     695 | 0x342E      |       13358 |
|     696 | 0x00F8      |         248 |
|     697 | 0x342F      |       13359 |
|     698 | 0x3430      |       13360 |
|     699 | 0x3431      |       13361 |
|     700 | 0x3432      |       13362 |
|     701 | 0x3433      |       13363 |
|     702 | 0x3434      |       13364 |
|     703 | 0x3435      |       13365 |
|     704 | 0x3436      |       13366 |
|     705 | 0x3437      |       13367 |
|     706 | 0x3438      |       13368 |
|     707 | 0x3439      |       13369 |
|     708 | 0x343A      |       13370 |
|     709 | 0x343B      |       13371 |
|     710 | 0x000D      |          13 |
|     711 | 0x343C      |       13372 |
|     712 | 0x343D      |       13373 |
|     713 | 0x343E      |       13374 |
|     714 | 0x343F      |       13375 |
|     715 | 0x3440      |       13376 |
|     716 | 0x3441      |       13377 |
|     717 | 0x3442      |       13378 |
|     718 | 0x3443      |       13379 |
|     719 | 0xFFFD7BBD  |  4294802365 |
|     720 | 0xF30B      |       62219 |
|     721 | 0x0466      |        1126 |
|     722 | 0x3444      |       13380 |
|     723 | 0x3445      |       13381 |
|     724 | 0x3446      |       13382 |
|     725 | 0xFFFD7F70  |  4294803312 |
|     726 | 0xEEB8      |       61112 |
|     727 | 0x0A00      |        2560 |
|     728 | 0x3447      |       13383 |
|     729 | 0xFFFD8195  |  4294803861 |
|     730 | 0xF6EE      |       63214 |
|     731 | 0x04CC      |        1228 |
|     732 | 0xFFFD7B9B  |  4294802331 |
|     733 | 0xFC7C      |       64636 |
|     734 | 0x020D      |         525 |
|     735 | 0xFFFD74EB  |  4294800619 |
|     736 | 0xF6D2      |       63186 |
|     737 | 0x0F84      |        3972 |
|     738 | 0xEECB      |       61131 |
|     739 | 0x0E16      |        3606 |
|     740 | 0x3448      |       13384 |
|     741 | 0x344A      |       13386 |
|     742 | 0x344B      |       13387 |
|     743 | 0x000C      |          12 |
|     744 | 0x344C      |       13388 |
|     745 | 0x00C9      |         201 |
|     746 | 0x337D      |       13181 |
|     747 | 0x337E      |       13182 |
|     748 | 0x3395      |       13205 |
|     749 | 0x3396      |       13206 |
|     750 | 0x33EC      |       13292 |
|     751 | 0x344D      |       13389 |
|     752 | 0x344E      |       13390 |
|     753 | 0x344F      |       13391 |

## String References

- **13105**: @@
- **13388**: Hurrah!!!

## Events

### Event 65535

#### Metadata

| Field        | Value   |
|--------------|---------|
| Entrypoint   | 0x0000  |
| Data Size    | 1 bytes |
| Instructions | 1       |

```
      00 01 02 03 04 05 06 07  08 09 0A 0B 0C 0D 0E 0F
      -- -- -- -- -- -- -- --  -- -- -- -- -- -- -- --
0000: 00                                                .               
```

#### Opcodes

```
  0: 0x0000 [0x00] END_REQSTACK()
```

### Event 629

#### Metadata

| Field        | Value      |
|--------------|------------|
| Entrypoint   | 0x0001     |
| Data Size    | 7464 bytes |
| Instructions | 832        |

```
      00 01 02 03 04 05 06 07  08 09 0A 0B 0C 0D 0E 0F
      -- -- -- -- -- -- -- --  -- -- -- -- -- -- -- --
0000:    42 20 01 46 01 1A 3E  71 38 00 80 BA F0 FF FF   B .F..>q8......
0010: 7F 01 80 02 80 03 80 04  80 BA 0A 02 05 01 05 80  ................
0020: 05 80 05 80 05 80 BA 09  02 05 01 05 80 05 80 05  ................
0030: 80 05 80 BA 07 02 05 01  06 80 07 80 03 80 08 80  ................
0040: BA 0F 02 05 01 05 80 05  80 05 80 05 80 BA 27 02  ..............'.
0050: 05 01 05 80 05 80 05 80  05 80 BA 28 02 05 01 05  ...........(....
0060: 80 05 80 05 80 05 80 BA  36 02 05 01 05 80 05 80  ........6.......
0070: 05 80 05 80 79 00 F0 FF  FF 7F F0 FF FF 7F 79 00  ....y.........y.
0080: 0A 02 05 01 0A 02 05 01  79 00 09 02 05 01 09 02  ........y.......
0090: 05 01 79 00 07 02 05 01  07 02 05 01 79 00 0F 02  ..y.........y...
00A0: 05 01 0F 02 05 01 79 00  27 02 05 01 27 02 05 01  ......y.'...'...
00B0: 79 00 28 02 05 01 28 02  05 01 92 01 0A 02 05 01  y.(...(.........
00C0: 92 01 0B 02 05 01 92 01  09 02 05 01 92 01 07 02  ................
00D0: 05 01 92 01 0F 02 05 01  92 01 27 02 05 01 92 01  ..........'.....
00E0: 28 02 05 01 92 01 39 02  05 01 94 01 F0 FF FF 7F  (.....9.........
00F0: 94 01 0A 02 05 01 94 01  0B 02 05 01 94 01 09 02  ................
0100: 05 01 94 01 07 02 05 01  94 01 0F 02 05 01 94 01  ................
0110: 27 02 05 01 94 01 28 02  05 01 94 01 39 02 05 01  '.....(.....9...
0120: 4E 00 0A 02 05 01 4E 00  09 02 05 01 4E 00 07 02  N.....N.....N...
0130: 05 01 4E 00 0F 02 05 01  4E 00 27 02 05 01 4E 00  ..N.....N.'...N.
0140: 28 02 05 01 4E 00 39 02  05 01 80 F0 FF FF 7F 80  (...N.9.........
0150: 0A 02 05 01 80 09 02 05  01 80 07 02 05 01 80 0F  ................
0160: 02 05 01 80 27 02 05 01  80 28 02 05 01 80 39 02  ....'....(....9.
0170: 05 01 4A F0 FF FF 7F 07  02 05 01 4A 07 02 05 01  ..J........J....
0180: F0 FF FF 7F 79 00 F0 FF  FF 7F F0 FF FF 7F 79 00  ....y.........y.
0190: 07 02 05 01 07 02 05 01  6F 76 07 02 05 01 6F 76  ........ov....ov
01A0: F0 FF FF 7F 7C 00 07 02  05 01 81 00 07 02 05 01  ....|...........
01B0: 5B 09 80 07 02 05 01 07  02 05 01 66 64 30 30 1C  [..........fd00.
01C0: 0A 80 5B 0B 80 07 02 05  01 07 02 05 01 6B 65 69  ..[..........kei
01D0: 30 53 07 02 05 01 07 02  05 01 6B 65 69 30 9A 45  0S........kei0.E
01E0: 0C 80 F8 FF FF 7F F8 FF  FF 7F 73 30 30 30 05 80  ..........s000..
01F0: 45 0D 80 F8 FF FF 7F F8  FF FF 7F 66 64 69 32 05  E..........fdi2.
0200: 80 5B 09 80 07 02 05 01  07 02 05 01 66 64 30 31  .[..........fd01
0210: 2B 07 02 05 01 0E 80 23  2B 07 02 05 01 0F 80 23  +......#+......#
0220: 5D 05 80 10 80 1A 3E 71  52 0C 80 F8 FF FF 7F F8  ].....>qR.......
0230: FF FF 7F 73 30 30 30 5B  0B 80 07 02 05 01 07 02  ...s000[........
0240: 05 01 6B 65 69 31 53 07  02 05 01 07 02 05 01 6B  ..kei1S........k
0250: 65 69 31 5B 09 80 07 02  05 01 07 02 05 01 66 30  ei1[..........f0
0260: 30 30 53 07 02 05 01 07  02 05 01 66 30 30 30 7C  00S........f000|
0270: 01 07 02 05 01 81 01 07  02 05 01 BA F0 FF FF 7F  ................
0280: 11 80 12 80 03 80 13 80  BA 09 02 05 01 14 80 15  ................
0290: 80 03 80 16 80 BA 07 02  05 01 17 80 18 80 03 80  ................
02A0: 19 80 BA 28 02 05 01 1A  80 1B 80 1C 80 1D 80 BA  ...(............
02B0: 27 02 05 01 1E 80 1F 80  1C 80 20 80 BA 36 02 05  '......... ..6..
02C0: 01 21 80 22 80 23 80 13  80 4A 09 02 05 01 36 02  .!.".#...J....6.
02D0: 05 01 4A 07 02 05 01 09  02 05 01 4A F0 FF FF 7F  ..J........J....
02E0: 09 02 05 01 4A 27 02 05  01 07 02 05 01 4A 28 02  ....J'.......J(.
02F0: 05 01 07 02 05 01 7B 36  02 05 01 7B 09 02 05 01  ......{6...{....
0300: 7B 07 02 05 01 7B 27 02  05 01 7B 28 02 05 01 6F  {....{'...{(...o
0310: 76 36 02 05 01 6F 76 09  02 05 01 6F 76 07 02 05  v6...ov....ov...
0320: 01 6F 76 27 02 05 01 6F  76 28 02 05 01 48 24 80  .ov'...ov(...H$.
0330: 23 45 0C 80 F8 FF FF 7F  F8 FF FF 7F 73 30 30 32  #E..........s002
0340: 05 80 2B 07 02 05 01 25  80 23 55 0C 80 F8 FF FF  ..+....%.#U.....
0350: 7F F8 FF FF 7F 73 30 30  32 45 0C 80 F8 FF FF 7F  .....s002E......
0360: F8 FF FF 7F 73 30 30 31  05 80 45 0D 80 F8 FF FF  ....s001..E.....
0370: 7F F8 FF FF 7F 66 64 69  32 05 80 5B 26 80 07 02  .....fdi2..[&...
0380: 05 01 07 02 05 01 74 6C  61 30 2B 07 02 05 01 27  ......tla0+....'
0390: 80 23 5B 26 80 07 02 05  01 07 02 05 01 74 6C 61  .#[&.........tla
03A0: 31 52 0C 80 F8 FF FF 7F  F8 FF FF 7F 73 30 30 31  1R..........s001
03B0: 45 0C 80 F8 FF FF 7F F8  FF FF 7F 73 30 30 33 05  E..........s003.
03C0: 80 03 25 10 28 80 03 27  10 29 80 03 26 10 03 80  ..%.(..'.)..&...
03D0: 03 28 10 2A 80 27 0F 09  02 05 01 0C 2A 0F 09 02  .(.*.'......*...
03E0: 05 01 4A 09 02 05 01 07  02 05 01 4A 07 02 05 01  ..J........J....
03F0: 09 02 05 01 7B 09 02 05  01 7B 07 02 05 01 5B 2B  ....{....{....[+
0400: 80 09 02 05 01 09 02 05  01 69 6B 61 30 2B 09 02  .........ika0+..
0410: 05 01 2C 80 23 5B 2B 80  09 02 05 01 09 02 05 01  ..,.#[+.........
0420: 69 6B 61 31 52 0C 80 F8  FF FF 7F F8 FF FF 7F 73  ika1R..........s
0430: 30 30 33 45 0C 80 F8 FF  FF 7F F8 FF FF 7F 73 30  003E..........s0
0440: 30 34 05 80 4A 07 02 05  01 27 02 05 01 4A 09 02  04..J....'...J..
0450: 05 01 27 02 05 01 4A F0  FF FF 7F 27 02 05 01 4A  ..'...J....'...J
0460: 28 02 05 01 27 02 05 01  7B 07 02 05 01 7B 09 02  (...'...{....{..
0470: 05 01 79 00 F0 FF FF 7F  F0 FF FF 7F 7B 28 02 05  ..y.........{(..
0480: 01 2B 0F 02 05 01 2D 80  23 5B 2E 80 09 02 05 01  .+....-.#[......
0490: 09 02 05 01 69 72 61 30  2B 0F 02 05 01 2F 80 23  ....ira0+..../.#
04A0: 6F 76 07 02 05 01 6F 76  09 02 05 01 6F 76 F0 FF  ov....ov....ov..
04B0: FF 7F 6F 76 28 02 05 01  53 07 02 05 01 07 02 05  ..ov(...S.......
04C0: 01 74 6C 61 31 53 09 02  05 01 09 02 05 01 74 6C  .tla1S........tl
04D0: 61 31 52 0C 80 F8 FF FF  7F F8 FF FF 7F 73 30 30  a1R..........s00
04E0: 34 45 0C 80 F8 FF FF 7F  F8 FF FF 7F 73 30 30 35  4E..........s005
04F0: 05 80 5B 26 80 27 02 05  01 27 02 05 01 74 6C 61  ..[&.'...'...tla
0500: 30 2B 27 02 05 01 30 80  23 5B 26 80 27 02 05 01  0+'...0.#[&.'...
0510: 27 02 05 01 74 6C 61 31  52 0C 80 F8 FF FF 7F F8  '...tla1R.......
0520: FF FF 7F 73 30 30 35 45  0C 80 F8 FF FF 7F F8 FF  ...s005E........
0530: FF 7F 73 30 30 36 05 80  7C 00 07 02 05 01 81 00  ..s006..|.......
0540: 07 02 05 01 5B 09 80 07  02 05 01 07 02 05 01 66  ....[..........f
0550: 30 30 30 5B 09 80 07 02  05 01 07 02 05 01 66 69  000[..........fi
0560: 30 31 5B 26 80 07 02 05  01 07 02 05 01 74 6C 73  01[&.........tls
0570: 30 2B 07 02 05 01 31 80  23 5B 09 80 07 02 05 01  0+....1.#[......
0580: 07 02 05 01 66 30 30 30  5B 26 80 07 02 05 01 07  ....f000[&......
0590: 02 05 01 74 6C 73 31 7C  01 07 02 05 01 81 01 07  ...tls1|........
05A0: 02 05 01 53 27 02 05 01  27 02 05 01 77 61 76 30  ...S'...'...wav0
05B0: 52 0C 80 F8 FF FF 7F F8  FF FF 7F 73 30 30 36 45  R..........s006E
05C0: 0C 80 F8 FF FF 7F F8 FF  FF 7F 73 30 30 37 05 80  ..........s007..
05D0: 5B 32 80 27 02 05 01 27  02 05 01 74 68 61 30 2B  [2.'...'...tha0+
05E0: 27 02 05 01 33 80 23 5B  32 80 27 02 05 01 27 02  '...3.#[2.'...'.
05F0: 05 01 74 68 61 31 52 0C  80 F8 FF FF 7F F8 FF FF  ..tha1R.........
0600: 7F 73 30 30 37 45 0C 80  F8 FF FF 7F F8 FF FF 7F  .s007E..........
0610: 73 30 30 38 05 80 5B 26  80 28 02 05 01 28 02 05  s008..[&.(...(..
0620: 01 74 6C 61 30 2B 28 02  05 01 34 80 23 2B 28 02  .tla0+(...4.#+(.
0630: 05 01 35 80 23 5B 26 80  28 02 05 01 28 02 05 01  ..5.#[&.(...(...
0640: 74 6C 61 31 52 0C 80 F8  FF FF 7F F8 FF FF 7F 73  tla1R..........s
0650: 30 30 38 4A 27 02 05 01  28 02 05 01 7B 27 02 05  008J'...(...{'..
0660: 01 45 0C 80 F8 FF FF 7F  F8 FF FF 7F 73 30 30 39  .E..........s009
0670: 05 80 6B 69 64 6C 30 09  02 05 01 5B 26 80 27 02  ..kidl0....[&.'.
0680: 05 01 27 02 05 01 74 6C  61 30 6F 76 27 02 05 01  ..'...tla0ov'...
0690: 2B 27 02 05 01 36 80 23  5B 26 80 27 02 05 01 27  +'...6.#[&.'...'
06A0: 02 05 01 74 6C 61 31 52  0C 80 F8 FF FF 7F F8 FF  ...tla1R........
06B0: FF 7F 73 30 30 39 45 0C  80 F8 FF FF 7F F8 FF FF  ..s009E.........
06C0: 7F 73 30 31 30 05 80 5B  26 80 28 02 05 01 28 02  .s010..[&.(...(.
06D0: 05 01 74 6C 61 30 2B 28  02 05 01 37 80 23 5B 26  ..tla0+(...7.#[&
06E0: 80 28 02 05 01 28 02 05  01 74 6C 61 31 52 0C 80  .(...(...tla1R..
06F0: F8 FF FF 7F F8 FF FF 7F  73 30 31 30 45 0C 80 F8  ........s010E...
0700: FF FF 7F F8 FF FF 7F 73  30 31 31 05 80 2B 0F 02  .......s011..+..
0710: 05 01 38 80 23 52 0C 80  F8 FF FF 7F F8 FF FF 7F  ..8.#R..........
0720: 73 30 31 31 45 0C 80 F8  FF FF 7F F8 FF FF 7F 73  s011E..........s
0730: 30 31 32 05 80 81 00 09  02 05 01 5B 39 80 09 02  012........[9...
0740: 05 01 09 02 05 01 73 68  74 30 2B 09 02 05 01 3A  ......sht0+....:
0750: 80 23 81 01 09 02 05 01  52 0C 80 F8 FF FF 7F F8  .#......R.......
0760: FF FF 7F 73 30 31 32 45  0C 80 F8 FF FF 7F F8 FF  ...s012E........
0770: FF 7F 73 30 31 33 05 80  5D 05 80 10 80 BA 0A 02  ..s013..].......
0780: 05 01 3B 80 3C 80 03 80  3D 80 03 25 10 3E 80 03  ..;.<...=..%.>..
0790: 27 10 3F 80 03 26 10 03  80 03 28 10 19 80 27 0F  '.?..&....(...'.
07A0: 0A 02 05 01 0C 2A 0F 0A  02 05 01 4A 0A 02 05 01  .....*.....J....
07B0: 09 02 05 01 4A 07 02 05  01 0A 02 05 01 7B 07 02  ....J........{..
07C0: 05 01 7B 0A 02 05 01 55  0C 80 F8 FF FF 7F F8 FF  ..{....U........
07D0: FF 7F 73 30 31 33 45 0C  80 F8 FF FF 7F F8 FF FF  ..s013E.........
07E0: 7F 73 30 31 34 05 80 6F  76 07 02 05 01 6F 76 0A  .s014..ov....ov.
07F0: 02 05 01 5B 40 80 0A 02  05 01 0A 02 05 01 75 64  ...[@.........ud
0800: 65 30 5B 41 80 07 02 05  01 07 02 05 01 70 6E 74  e0[A.........pnt
0810: 30 03 02 10 42 80 27 10  46 02 05 01 01 1C 43 80  0...B.'.F.....C.
0820: 2B 07 02 05 01 44 80 23  2A 10 46 02 05 01 5B 41  +....D.#*.F...[A
0830: 80 07 02 05 01 07 02 05  01 70 6E 74 31 53 0A 02  .........pnt1S..
0840: 05 01 0A 02 05 01 75 64  65 30 52 0C 80 F8 FF FF  ......ude0R.....
0850: 7F F8 FF FF 7F 73 30 31  34 45 0C 80 F8 FF FF 7F  .....s014E......
0860: F8 FF FF 7F 73 30 31 35  05 80 5B 39 80 09 02 05  ....s015..[9....
0870: 01 09 02 05 01 73 68 74  31 4A F0 FF FF 7F 0A 02  .....sht1J......
0880: 05 01 4A 09 02 05 01 0A  02 05 01 4A 28 02 05 01  ..J........J(...
0890: 0A 02 05 01 4A 27 02 05  01 0A 02 05 01 7B 28 02  ....J'.......{(.
08A0: 05 01 7B 27 02 05 01 7B  09 02 05 01 7B 07 02 05  ..{'...{....{...
08B0: 01 6F 76 27 02 05 01 2B  0A 02 05 01 45 80 23 5B  .ov'...+....E.#[
08C0: 40 80 0A 02 05 01 0A 02  05 01 75 64 65 31 52 0C  @.........ude1R.
08D0: 80 F8 FF FF 7F F8 FF FF  7F 73 30 31 35 45 0C 80  .........s015E..
08E0: F8 FF FF 7F F8 FF FF 7F  73 30 31 36 05 80 5B 26  ........s016..[&
08F0: 80 09 02 05 01 09 02 05  01 74 6C 62 30 2B 09 02  .........tlb0+..
0900: 05 01 46 80 23 52 0C 80  F8 FF FF 7F F8 FF FF 7F  ..F.#R..........
0910: 73 30 31 36 45 0C 80 F8  FF FF 7F F8 FF FF 7F 73  s016E..........s
0920: 30 31 38 05 80 5B 2E 80  0A 02 05 01 0A 02 05 01  018..[..........
0930: 79 6F 30 30 2B 0A 02 05  01 47 80 23 52 0C 80 F8  yo00+....G.#R...
0940: FF FF 7F F8 FF FF 7F 73  30 31 38 45 0C 80 F8 FF  .......s018E....
0950: FF 7F F8 FF FF 7F 73 30  31 37 05 80 5B 26 80 09  ......s017..[&..
0960: 02 05 01 09 02 05 01 74  6C 62 31 53 0A 02 05 01  .......tlb1S....
0970: 0A 02 05 01 75 64 65 31  03 25 10 48 80 03 27 10  ....ude1.%.H..'.
0980: 49 80 03 26 10 1C 80 03  28 10 4A 80 27 0F 0A 02  I..&....(.J.'...
0990: 05 01 0C 1C 4B 80 03 25  10 4C 80 03 27 10 4D 80  ....K..%.L..'.M.
09A0: 03 26 10 03 80 03 28 10  4E 80 27 0F 27 02 05 01  .&....(.N.'.'...
09B0: 06 1C 4B 80 03 25 10 4F  80 03 27 10 50 80 03 26  ..K..%.O..'.P..&
09C0: 10 03 80 03 28 10 2A 80  27 0F 09 02 05 01 0B 1C  ....(.*.'.......
09D0: 4B 80 03 25 10 51 80 03  27 10 52 80 03 26 10 03  K..%.Q..'.R..&..
09E0: 80 03 28 10 53 80 27 0F  07 02 05 01 1F 1C 4B 80  ..(.S.'.......K.
09F0: 03 25 10 54 80 03 27 10  55 80 03 26 10 03 80 03  .%.T..'.U..&....
0A00: 28 10 56 80 27 0F 28 02  05 01 06 2A 0F 28 02 05  (.V.'.(....*.(..
0A10: 01 4A 28 02 05 01 0A 02  05 01 7B 28 02 05 01 2A  .J(.......{(...*
0A20: 0F 09 02 05 01 4A 09 02  05 01 0A 02 05 01 7B 09  .....J........{.
0A30: 02 05 01 2A 0F 07 02 05  01 4A 07 02 05 01 0A 02  ...*.....J......
0A40: 05 01 7B 07 02 05 01 2A  0F 27 02 05 01 4A 27 02  ..{....*.'...J'.
0A50: 05 01 0A 02 05 01 7B 27  02 05 01 6F 76 27 02 05  ......{'...ov'..
0A60: 01 55 0C 80 F8 FF FF 7F  F8 FF FF 7F 73 30 31 37  .U..........s017
0A70: 45 0C 80 F8 FF FF 7F F8  FF FF 7F 73 30 31 39 05  E..........s019.
0A80: 80 5B 26 80 27 02 05 01  27 02 05 01 74 6C 61 30  .[&.'...'...tla0
0A90: 2B 27 02 05 01 57 80 23  5B 26 80 27 02 05 01 27  +'...W.#[&.'...'
0AA0: 02 05 01 74 6C 61 31 5B  26 80 0A 02 05 01 0A 02  ...tla1[&.......
0AB0: 05 01 74 6C 61 30 2B 0A  02 05 01 58 80 23 5B 26  ..tla0+....X.#[&
0AC0: 80 0A 02 05 01 0A 02 05  01 74 6C 61 31 5B 32 80  .........tla1[2.
0AD0: 28 02 05 01 28 02 05 01  77 61 72 30 2B 28 02 05  (...(...war0+(..
0AE0: 01 59 80 23 52 0C 80 F8  FF FF 7F F8 FF FF 7F 73  .Y.#R..........s
0AF0: 30 31 39 45 0C 80 F8 FF  FF 7F F8 FF FF 7F 73 30  019E..........s0
0B00: 32 30 05 80 5B 09 80 09  02 05 01 09 02 05 01 66  20..[..........f
0B10: 63 30 31 5B 2B 80 09 02  05 01 09 02 05 01 69 6B  c01[+.........ik
0B20: 61 30 2B 09 02 05 01 5A  80 23 5B 09 80 09 02 05  a0+....Z.#[.....
0B30: 01 09 02 05 01 66 63 30  30 5B 2B 80 09 02 05 01  .....fc00[+.....
0B40: 09 02 05 01 69 6B 61 31  7C 01 09 02 05 01 81 01  ....ika1|.......
0B50: 09 02 05 01 52 0C 80 F8  FF FF 7F F8 FF FF 7F 73  ....R..........s
0B60: 30 32 30 45 0C 80 F8 FF  FF 7F F8 FF FF 7F 73 30  020E..........s0
0B70: 32 31 05 80 5B 09 80 0A  02 05 01 0A 02 05 01 66  21..[..........f
0B80: 63 30 31 5B 32 80 0A 02  05 01 0A 02 05 01 74 68  c01[2.........th
0B90: 61 30 2B 0A 02 05 01 5B  80 23 2B 0A 02 05 01 5C  a0+....[.#+....\
0BA0: 80 23 53 0A 02 05 01 0A  02 05 01 74 68 61 30 5B  .#S........tha0[
0BB0: 09 80 0A 02 05 01 0A 02  05 01 66 63 30 30 5B 32  ..........fc00[2
0BC0: 80 0A 02 05 01 0A 02 05  01 74 68 61 31 52 0C 80  .........tha1R..
0BD0: F8 FF FF 7F F8 FF FF 7F  73 30 32 31 45 0C 80 F8  ........s021E...
0BE0: FF FF 7F F8 FF FF 7F 73  30 32 32 05 80 5B 26 80  .......s022..[&.
0BF0: 07 02 05 01 07 02 05 01  74 6C 73 30 2B 07 02 05  ........tls0+...
0C00: 01 5D 80 23 2B 07 02 05  01 5E 80 23 52 0C 80 F8  .].#+....^.#R...
0C10: FF FF 7F F8 FF FF 7F 73  30 32 32 5D 05 80 10 80  .......s022]....
0C20: 45 0C 80 F8 FF FF 7F F8  FF FF 7F 73 30 32 33 05  E..........s023.
0C30: 80 2B 0A 02 05 01 5F 80  23 5B 26 80 07 02 05 01  .+...._.#[&.....
0C40: 07 02 05 01 74 6C 73 31  52 0C 80 F8 FF FF 7F F8  ....tls1R.......
0C50: FF FF 7F 73 30 32 33 45  0C 80 F8 FF FF 7F F8 FF  ...s023E........
0C60: FF 7F 73 30 32 39 05 80  5B 09 80 09 02 05 01 09  ..s029..[.......
0C70: 02 05 01 66 30 30 30 5B  09 80 0A 02 05 01 0A 02  ...f000[........
0C80: 05 01 66 62 30 30 7C 01  09 02 05 01 2B 09 02 05  ..fb00|.....+...
0C90: 01 60 80 23 52 0C 80 F8  FF FF 7F F8 FF FF 7F 73  .`.#R..........s
0CA0: 30 32 39 45 0C 80 F8 FF  FF 7F F8 FF FF 7F 73 30  029E..........s0
0CB0: 32 34 05 80 5B 39 80 0A  02 05 01 0A 02 05 01 73  24..[9.........s
0CC0: 68 74 30 2B 0A 02 05 01  61 80 23 1A 3E 71 52 0C  ht0+....a.#.>qR.
0CD0: 80 F8 FF FF 7F F8 FF FF  7F 73 30 32 34 5C 00 62  .........s024\.b
0CE0: 80 5C 01 62 80 9A 6B 69  64 6C 30 0A 02 05 01 6B  .\.b..kidl0....k
0CF0: 69 64 6C 30 07 02 05 01  5B 09 80 0A 02 05 01 0A  idl0....[.......
0D00: 02 05 01 66 30 30 30 5B  09 80 07 02 05 01 07 02  ...f000[........
0D10: 05 01 66 30 30 30 5B 09  80 09 02 05 01 09 02 05  ..f000[.........
0D20: 01 66 30 30 30 7C 01 0A  02 05 01 7C 01 07 02 05  .f000|.....|....
0D30: 01 7C 01 09 02 05 01 81  01 0A 02 05 01 81 01 07  .|..............
0D40: 02 05 01 81 01 09 02 05  01 BA F0 FF FF 7F 63 80  ..............c.
0D50: 64 80 1C 80 65 80 BA 0A  02 05 01 66 80 67 80 1C  d...e......f.g..
0D60: 80 68 80 BA 09 02 05 01  69 80 6A 80 1C 80 65 80  .h......i.j...e.
0D70: BA 07 02 05 01 6B 80 6C  80 1C 80 6D 80 BA 27 02  .....k.l...m..'.
0D80: 05 01 6E 80 6F 80 1C 80  6D 80 BA 28 02 05 01 70  ..n.o...m..(...p
0D90: 80 71 80 1C 80 6D 80 4A  09 02 05 01 0A 02 05 01  .q...m.J........
0DA0: 4A F0 FF FF 7F 0A 02 05  01 4A 07 02 05 01 0A 02  J........J......
0DB0: 05 01 4A 27 02 05 01 0A  02 05 01 4A 28 02 05 01  ..J'.......J(...
0DC0: 0A 02 05 01 7B 0A 02 05  01 7B 09 02 05 01 79 00  ....{....{....y.
0DD0: F0 FF FF 7F F0 FF FF 7F  7B 07 02 05 01 7B 27 02  ........{....{'.
0DE0: 05 01 7B 28 02 05 01 6F  76 28 02 05 01 45 0C 80  ..{(...ov(...E..
0DF0: F8 FF FF 7F F8 FF FF 7F  73 30 32 37 05 80 45 0D  ........s027..E.
0E00: 80 F8 FF FF 7F F8 FF FF  7F 66 64 69 32 05 80 1C  .........fdi2...
0E10: 72 80 7C 00 07 02 05 01  2B 07 02 05 01 73 80 23  r.|.....+....s.#
0E20: 7C 01 07 02 05 01 52 0C  80 F8 FF FF 7F F8 FF FF  |.....R.........
0E30: 7F 73 30 32 37 45 0C 80  F8 FF FF 7F F8 FF FF 7F  .s027E..........
0E40: 73 30 32 36 05 80 5B 74  80 28 02 05 01 28 02 05  s026..[t.(...(..
0E50: 01 72 6F 68 30 2B 0F 02  05 01 75 80 23 52 0C 80  .roh0+....u.#R..
0E60: F8 FF FF 7F F8 FF FF 7F  73 30 32 36 7B 28 02 05  ........s026{(..
0E70: 01 45 0C 80 F8 FF FF 7F  F8 FF FF 7F 73 30 33 30  .E..........s030
0E80: 05 80 2B 28 02 05 01 76  80 23 5B 77 80 27 02 05  ..+(...v.#[w.'..
0E90: 01 27 02 05 01 79 65 73  30 2B 27 02 05 01 78 80  .'...yes0+'...x.
0EA0: 23 52 0C 80 F8 FF FF 7F  F8 FF FF 7F 73 30 33 30  #R..........s030
0EB0: 45 0C 80 F8 FF FF 7F F8  FF FF 7F 73 30 33 32 05  E..........s032.
0EC0: 80 4A 27 02 05 01 0A 02  05 01 7B 27 02 05 01 6F  .J'.......{'...o
0ED0: 76 27 02 05 01 5B 26 80  09 02 05 01 09 02 05 01  v'...[&.........
0EE0: 74 6C 61 30 2B 09 02 05  01 79 80 23 5B 26 80 09  tla0+....y.#[&..
0EF0: 02 05 01 09 02 05 01 74  6C 61 31 52 0C 80 F8 FF  .......tla1R....
0F00: FF 7F F8 FF FF 7F 73 30  33 32 45 0C 80 F8 FF FF  ......s032E.....
0F10: 7F F8 FF FF 7F 73 30 33  33 05 80 6B 69 64 6C 30  .....s033..kidl0
0F20: 28 02 05 01 4A 28 02 05  01 0A 02 05 01 2B 0A 02  (...J(.......+..
0F30: 05 01 7A 80 23 7B 28 02  05 01 6F 76 28 02 05 01  ..z.#{(...ov(...
0F40: 52 0C 80 F8 FF FF 7F F8  FF FF 7F 73 30 33 33 45  R..........s033E
0F50: 0C 80 F8 FF FF 7F F8 FF  FF 7F 73 30 33 34 05 80  ..........s034..
0F60: 5D 05 80 10 80 2B 0A 02  05 01 7B 80 23 55 0C 80  ]....+....{.#U..
0F70: F8 FF FF 7F F8 FF FF 7F  73 30 33 34 45 0C 80 F8  ........s034E...
0F80: FF FF 7F F8 FF FF 7F 73  30 33 36 05 80 5B 7C 80  .......s036..[|.
0F90: 09 02 05 01 09 02 05 01  62 69 6B 30 5B 74 80 07  ........bik0[t..
0FA0: 02 05 01 07 02 05 01 72  6F 68 30 1C 7D 80 52 0C  .......roh0.}.R.
0FB0: 80 F8 FF FF 7F F8 FF FF  7F 73 30 33 36 45 0C 80  .........s036E..
0FC0: F8 FF FF 7F F8 FF FF 7F  73 30 33 35 05 80 5B 7C  ........s035..[|
0FD0: 80 28 02 05 01 28 02 05  01 62 69 6B 30 6E F0 FF  .(...(...bik0n..
0FE0: FF 7F 7E 80 99 F0 FF FF  7F 5B 7C 80 27 02 05 01  ..~......[|.'...
0FF0: 27 02 05 01 62 69 6B 30  1C 7D 80 52 0C 80 F8 FF  '...bik0.}.R....
1000: FF 7F F8 FF FF 7F 73 30  33 35 45 0C 80 F8 FF FF  ......s035E.....
1010: 7F F8 FF FF 7F 73 30 33  37 05 80 BB 7F 80 07 02  .....s037.......
1020: 05 01 07 02 05 01 00 FE  FE FE 05 80 2B 27 02 05  ............+'..
1030: 01 80 80 23 52 0C 80 F8  FF FF 7F F8 FF FF 7F 73  ...#R..........s
1040: 30 33 37 45 0C 80 F8 FF  FF 7F F8 FF FF 7F 73 30  037E..........s0
1050: 33 38 05 80 5B 74 80 07  02 05 01 07 02 05 01 72  38..[t.........r
1060: 6F 68 33 BB 7F 80 07 02  05 01 07 02 05 01 73 30  oh3...........s0
1070: 30 30 05 80 6B 69 64 6C  30 09 02 05 01 6B 69 64  00..kidl0....kid
1080: 6C 30 28 02 05 01 6B 69  64 6C 30 27 02 05 01 2B  l0(...kidl0'...+
1090: 07 02 05 01 81 80 23 55  0C 80 F8 FF FF 7F F8 FF  ......#U........
10A0: FF 7F 73 30 33 38 1A 3E  71 7C 01 0A 02 05 01 7C  ..s038.>q|.....|
10B0: 01 07 02 05 01 7C 01 09  02 05 01 81 01 0A 02 05  .....|..........
10C0: 01 81 01 07 02 05 01 81  01 09 02 05 01 BA F0 FF  ................
10D0: FF 7F 63 80 64 80 1C 80  65 80 BA 0A 02 05 01 66  ..c.d...e......f
10E0: 80 67 80 1C 80 68 80 BA  0B 02 05 01 82 80 83 80  .g...h..........
10F0: 03 80 84 80 BA 09 02 05  01 69 80 6A 80 1C 80 65  .........i.j...e
1100: 80 BA 07 02 05 01 6B 80  6C 80 1C 80 6D 80 BA 27  ......k.l...m..'
1110: 02 05 01 6E 80 6F 80 1C  80 6D 80 BA 28 02 05 01  ...n.o...m..(...
1120: 70 80 71 80 1C 80 6D 80  4A 09 02 05 01 0A 02 05  p.q...m.J.......
1130: 01 4A F0 FF FF 7F 0A 02  05 01 4A 07 02 05 01 0A  .J........J.....
1140: 02 05 01 4A 27 02 05 01  0A 02 05 01 4A 28 02 05  ...J'.......J(..
1150: 01 27 02 05 01 7B 0A 02  05 01 7B 09 02 05 01 79  .'...{....{....y
1160: 00 F0 FF FF 7F F0 FF FF  7F 7B 07 02 05 01 7B 27  .........{....{'
1170: 02 05 01 7B 28 02 05 01  6F 76 28 02 05 01 6B 69  ...{(...ov(...ki
1180: 64 6C 30 09 02 05 01 6B  69 64 6C 30 28 02 05 01  dl0....kidl0(...
1190: 6B 69 64 6C 30 27 02 05  01 6B 69 64 6C 30 07 02  kidl0'...kidl0..
11A0: 05 01 BA 0F 02 05 01 69  80 6A 80 1C 80 65 80 4E  .......i.j...e.N
11B0: 01 0F 02 05 01 1C 85 80  48 24 80 23 45 0C 80 F8  ........H$.#E...
11C0: FF FF 7F F8 FF FF 7F 73  30 34 30 05 80 45 0D 80  .......s040..E..
11D0: F8 FF FF 7F F8 FF FF 7F  66 64 69 32 05 80 5B 26  ........fdi2..[&
11E0: 80 09 02 05 01 09 02 05  01 74 6C 61 30 2B 09 02  .........tla0+..
11F0: 05 01 86 80 23 5B 26 80  09 02 05 01 09 02 05 01  ....#[&.........
1200: 74 6C 61 31 52 0C 80 F8  FF FF 7F F8 FF FF 7F 73  tla1R..........s
1210: 30 34 30 45 0C 80 F8 FF  FF 7F F8 FF FF 7F 73 30  040E..........s0
1220: 34 31 05 80 2B 0A 02 05  01 87 80 23 52 0C 80 F8  41..+......#R...
1230: FF FF 7F F8 FF FF 7F 73  30 34 31 45 0C 80 F8 FF  .......s041E....
1240: FF 7F F8 FF FF 7F 73 30  34 32 05 80 5B 26 80 09  ......s042..[&..
1250: 02 05 01 09 02 05 01 74  6C 61 30 2B 09 02 05 01  .......tla0+....
1260: 88 80 23 5B 26 80 09 02  05 01 09 02 05 01 74 6C  ..#[&.........tl
1270: 61 31 2B 09 02 05 01 89  80 23 52 0C 80 F8 FF FF  a1+......#R.....
1280: 7F F8 FF FF 7F 73 30 34  32 45 0C 80 F8 FF FF 7F  .....s042E......
1290: F8 FF FF 7F 73 30 34 33  05 80 5B 2B 80 09 02 05  ....s043..[+....
12A0: 01 09 02 05 01 69 6B 61  30 2B 09 02 05 01 8A 80  .....ika0+......
12B0: 23 52 0C 80 F8 FF FF 7F  F8 FF FF 7F 73 30 34 33  #R..........s043
12C0: 45 0C 80 F8 FF FF 7F F8  FF FF 7F 73 30 34 34 05  E..........s044.
12D0: 80 2B 0A 02 05 01 8B 80  23 52 0C 80 F8 FF FF 7F  .+......#R......
12E0: F8 FF FF 7F 73 30 34 34  45 0C 80 F8 FF FF 7F F8  ....s044E.......
12F0: FF FF 7F 73 30 34 35 05  80 5B 2B 80 09 02 05 01  ...s045..[+.....
1300: 09 02 05 01 69 6B 61 31  2B 09 02 05 01 8C 80 23  ....ika1+......#
1310: 4A 0A 02 05 01 09 02 05  01 4A 0B 02 05 01 09 02  J........J......
1320: 05 01 7B 0A 02 05 01 7B  0B 02 05 01 52 0C 80 F8  ..{....{....R...
1330: FF FF 7F F8 FF FF 7F 73  30 34 35 45 0C 80 F8 FF  .......s045E....
1340: FF 7F F8 FF FF 7F 73 30  34 36 05 80 6F 76 0A 02  ......s046..ov..
1350: 05 01 5B 26 80 0A 02 05  01 0A 02 05 01 74 6C 62  ..[&.........tlb
1360: 30 2B 0A 02 05 01 8D 80  23 5B 26 80 0A 02 05 01  0+......#[&.....
1370: 0A 02 05 01 74 6C 62 31  52 0C 80 F8 FF FF 7F F8  ....tlb1R.......
1380: FF FF 7F 73 30 34 36 45  0C 80 F8 FF FF 7F F8 FF  ...s046E........
1390: FF 7F 73 30 34 37 05 80  5B 26 80 27 02 05 01 27  ..s047..[&.'...'
13A0: 02 05 01 74 6C 73 30 2B  27 02 05 01 8E 80 23 5B  ...tls0+'.....#[
13B0: 26 80 27 02 05 01 27 02  05 01 74 6C 73 31 5B 8F  &.'...'...tls1[.
13C0: 80 0A 02 05 01 0A 02 05  01 6B 61 69 30 1C 90 80  .........kai0...
13D0: 2B 0A 02 05 01 91 80 23  5B 26 80 09 02 05 01 09  +......#[&......
13E0: 02 05 01 74 6C 61 30 2B  09 02 05 01 92 80 23 5B  ...tla0+......#[
13F0: 26 80 09 02 05 01 09 02  05 01 74 6C 61 31 52 0C  &.........tla1R.
1400: 80 F8 FF FF 7F F8 FF FF  7F 73 30 34 37 45 0C 80  .........s047E..
1410: F8 FF FF 7F F8 FF FF 7F  73 30 35 30 05 80 4A 09  ........s050..J.
1420: 02 05 01 0A 02 05 01 4A  07 02 05 01 0A 02 05 01  .......J........
1430: 4A 28 02 05 01 0A 02 05  01 4A 27 02 05 01 0A 02  J(.......J'.....
1440: 05 01 4A F0 FF FF 7F 0A  02 05 01 3A 0B 02 05 01  ..J........:....
1450: 00 00 07 00 00 93 80 4B  0B 02 05 01 00 00 7B 09  .......K......{.
1460: 02 05 01 7B 07 02 05 01  7B 28 02 05 01 7B 27 02  ...{....{(...{'.
1470: 05 01 79 00 F0 FF FF 7F  F0 FF FF 7F 2B 0A 02 05  ..y.........+...
1480: 01 94 80 23 6F 76 09 02  05 01 6F 76 07 02 05 01  ...#ov....ov....
1490: 6F 76 28 02 05 01 6F 76  27 02 05 01 6F 76 F0 FF  ov(...ov'...ov..
14A0: FF 7F 6F 76 0B 02 05 01  52 0C 80 F8 FF FF 7F F8  ..ov....R.......
14B0: FF FF 7F 73 30 35 30 45  0C 80 F8 FF FF 7F F8 FF  ...s050E........
14C0: FF 7F 73 30 35 31 05 80  7C 00 09 02 05 01 2B 09  ..s051..|.....+.
14D0: 02 05 01 95 80 23 7C 01  09 02 05 01 52 0C 80 F8  .....#|.....R...
14E0: FF FF 7F F8 FF FF 7F 73  30 35 31 45 0C 80 F8 FF  .......s051E....
14F0: FF 7F F8 FF FF 7F 73 30  35 32 05 80 53 0A 02 05  ......s052..S...
1500: 01 0A 02 05 01 6B 61 69  30 5B 8F 80 0A 02 05 01  .....kai0[......
1510: 0A 02 05 01 6B 61 69 31  1C 96 80 2B 0A 02 05 01  ....kai1...+....
1520: 97 80 23 53 0A 02 05 01  0A 02 05 01 6B 61 69 31  ..#S........kai1
1530: 52 0C 80 F8 FF FF 7F F8  FF FF 7F 73 30 35 32 45  R..........s052E
1540: 0C 80 F8 FF FF 7F F8 FF  FF 7F 73 30 35 33 05 80  ..........s053..
1550: 5B 8F 80 0A 02 05 01 0A  02 05 01 6B 61 69 32 53  [..........kai2S
1560: 0A 02 05 01 0A 02 05 01  6B 61 69 32 55 0C 80 F8  ........kai2U...
1570: FF FF 7F F8 FF FF 7F 73  30 35 33 45 0C 80 F8 FF  .......s053E....
1580: FF 7F F8 FF FF 7F 73 30  35 34 05 80 5B 8F 80 0A  ......s054..[...
1590: 02 05 01 0A 02 05 01 6B  61 69 33 1C 98 80 2B 0A  .......kai3...+.
15A0: 02 05 01 99 80 23 2B 0A  02 05 01 9A 80 23 53 0A  .....#+......#S.
15B0: 02 05 01 0A 02 05 01 6B  61 69 33 52 0C 80 F8 FF  .......kai3R....
15C0: FF 7F F8 FF FF 7F 73 30  35 34 45 0C 80 F8 FF FF  ......s054E.....
15D0: 7F F8 FF FF 7F 73 30 35  35 05 80 5B 8F 80 0A 02  .....s055..[....
15E0: 05 01 0A 02 05 01 6B 61  69 34 1C 9B 80 2B 09 02  ......kai4...+..
15F0: 05 01 9C 80 23 3A 0A 02  05 01 00 00 BA 09 02 05  ....#:..........
1600: 01 66 80 67 80 1C 80 05  80 07 00 00 93 80 4B 09  .f.g..........K.
1610: 02 05 01 00 00 6F 76 09  02 05 01 5B 9D 80 09 02  .....ov....[....
1620: 05 01 09 02 05 01 70 75  6C 30 1C 9E 80 52 0C 80  ......pul0...R..
1630: F8 FF FF 7F F8 FF FF 7F  73 30 35 35 45 0C 80 F8  ........s055E...
1640: FF FF 7F F8 FF FF 7F 73  30 35 36 05 80 2B 09 02  .......s056..+..
1650: 05 01 9F 80 23 53 09 02  05 01 09 02 05 01 70 75  ....#S........pu
1660: 6C 30 52 0C 80 F8 FF FF  7F F8 FF FF 7F 73 30 35  l0R..........s05
1670: 36 45 0C 80 F8 FF FF 7F  F8 FF FF 7F 73 30 35 37  6E..........s057
1680: 05 80 5B 9D 80 09 02 05  01 09 02 05 01 70 75 6C  ..[..........pul
1690: 31 1C 0A 80 4E 00 0B 02  05 01 4E 01 0A 02 05 01  1...N.....N.....
16A0: 5B A0 80 0B 02 05 01 0B  02 05 01 6B 61 69 30 2B  [..........kai0+
16B0: 09 02 05 01 A1 80 23 53  09 02 05 01 09 02 05 01  ......#S........
16C0: 70 75 6C 31 52 0C 80 F8  FF FF 7F F8 FF FF 7F 73  pul1R..........s
16D0: 30 35 37 45 0C 80 F8 FF  FF 7F F8 FF FF 7F 73 30  057E..........s0
16E0: 35 38 05 80 5B 9D 80 09  02 05 01 09 02 05 01 70  58..[..........p
16F0: 75 6C 32 2B 09 02 05 01  A2 80 23 53 09 02 05 01  ul2+......#S....
1700: 09 02 05 01 70 75 6C 32  52 0C 80 F8 FF FF 7F F8  ....pul2R.......
1710: FF FF 7F 73 30 35 38 45  0C 80 F8 FF FF 7F F8 FF  ...s058E........
1720: FF 7F 73 30 35 39 05 80  5B A3 80 09 02 05 01 09  ..s059..[.......
1730: 02 05 01 70 75 6C 33 2B  09 02 05 01 A4 80 23 53  ...pul3+......#S
1740: 09 02 05 01 09 02 05 01  70 75 6C 33 52 0C 80 F8  ........pul3R...
1750: FF FF 7F F8 FF FF 7F 73  30 35 39 45 0C 80 F8 FF  .......s059E....
1760: FF 7F F8 FF FF 7F 73 30  36 30 05 80 5B A3 80 09  ......s060..[...
1770: 02 05 01 09 02 05 01 70  75 6C 34 2B 09 02 05 01  .......pul4+....
1780: A5 80 23 52 0C 80 F8 FF  FF 7F F8 FF FF 7F 73 30  ..#R..........s0
1790: 36 30 45 0C 80 F8 FF FF  7F F8 FF FF 7F 73 30 36  60E..........s06
17A0: 31 05 80 2B 09 02 05 01  A6 80 23 2B 09 02 05 01  1..+......#+....
17B0: A7 80 23 53 09 02 05 01  09 02 05 01 70 75 6C 34  ..#S........pul4
17C0: 55 0C 80 F8 FF FF 7F F8  FF FF 7F 73 30 36 31 45  U..........s061E
17D0: 0C 80 F8 FF FF 7F F8 FF  FF 7F 73 30 36 33 05 80  ..........s063..
17E0: 5B A3 80 09 02 05 01 09  02 05 01 70 75 6C 35 2B  [..........pul5+
17F0: 09 02 05 01 A8 80 23 3A  0A 02 05 01 00 00 07 00  ......#:........
1800: 00 93 80 4B 0A 02 05 01  00 00 6F 76 0A 02 05 01  ...K......ov....
1810: 5B A0 80 0A 02 05 01 0A  02 05 01 00 FE FE FE 5B  [..............[
1820: A9 80 0A 02 05 01 0A 02  05 01 00 FE FE FE 5B AA  ..............[.
1830: 80 0A 02 05 01 0A 02 05  01 00 FE FE FE 5B A0 80  .............[..
1840: 0B 02 05 01 0B 02 05 01  00 FE FE FE 5B AB 80 09  ............[...
1850: 02 05 01 09 02 05 01 00  FE FE FE 5B AC 80 09 02  ...........[....
1860: 05 01 09 02 05 01 00 FE  FE FE 1C AD 80 55 0C 80  .............U..
1870: F8 FF FF 7F F8 FF FF 7F  73 30 36 33 45 0C 80 F8  ........s063E...
1880: FF FF 7F F8 FF FF 7F 73  30 36 34 05 80 1C AD 80  .......s064.....
1890: 5B AB 80 09 02 05 01 09  02 05 01 6B 61 69 30 7C  [..........kai0|
18A0: 00 0B 02 05 01 5B A0 80  0B 02 05 01 0B 02 05 01  .....[..........
18B0: 6B 61 69 31 03 02 10 AE  80 27 10 46 02 05 01 01  kai1.....'.F....
18C0: 2B 0B 02 05 01 AF 80 23  7C 01 0B 02 05 01 2A 10  +......#|.....*.
18D0: 46 02 05 01 52 0C 80 F8  FF FF 7F F8 FF FF 7F 73  F...R..........s
18E0: 30 36 34 45 0C 80 F8 FF  FF 7F F8 FF FF 7F 73 30  064E..........s0
18F0: 36 36 05 80 4E 00 0A 02  05 01 5B A0 80 0B 02 05  66..N.....[.....
1900: 01 0B 02 05 01 6B 61 69  32 2B 0B 02 05 01 B0 80  .....kai2+......
1910: 23 55 0C 80 F8 FF FF 7F  F8 FF FF 7F 73 30 36 36  #U..........s066
1920: 45 0C 80 F8 FF FF 7F F8  FF FF 7F 73 30 36 32 05  E..........s062.
1930: 80 4E 01 0B 02 05 01 5B  AB 80 09 02 05 01 09 02  .N.....[........
1940: 05 01 6B 61 69 33 5B A0  80 0A 02 05 01 0A 02 05  ..kai3[.........
1950: 01 6B 61 69 33 03 02 10  B1 80 27 10 46 02 05 01  .kai3.....'.F...
1960: 01 2B 0A 02 05 01 B2 80  23 2A 10 46 02 05 01 5B  .+......#*.F...[
1970: A9 80 0A 02 05 01 0A 02  05 01 00 FE FE FE 52 0C  ..............R.
1980: 80 F8 FF FF 7F F8 FF FF  7F 73 30 36 32 45 0C 80  .........s062E..
1990: F8 FF FF 7F F8 FF FF 7F  73 30 36 37 05 80 BB B3  ........s067....
19A0: 80 0A 02 05 01 0A 02 05  01 73 30 30 30 05 80 5B  .........s000..[
19B0: AB 80 09 02 05 01 09 02  05 01 6B 61 69 34 5B A9  ..........kai4[.
19C0: 80 0A 02 05 01 0A 02 05  01 6B 61 73 34 45 0C 80  .........kas4E..
19D0: F8 FF FF 7F F8 FF FF 7F  73 65 73 72 05 80 03 02  ........sesr....
19E0: 10 B4 80 27 10 46 02 05  01 01 1C 10 80 BA 07 02  ...'.F..........
19F0: 05 01 B5 80 B6 80 1C 80  B7 80 5B B8 80 07 02 05  ..........[.....
1A00: 01 07 02 05 01 61 77 61  30 2B 0A 02 05 01 B9 80  .....awa0+......
1A10: 23 2A 10 46 02 05 01 52  0C 80 F8 FF FF 7F F8 FF  #*.F...R........
1A20: FF 7F 73 30 36 37 45 0C  80 F8 FF FF 7F F8 FF FF  ..s067E.........
1A30: 7F 73 32 31 31 05 80 55  0C 80 F8 FF FF 7F F8 FF  .s211..U........
1A40: FF 7F 73 32 31 31 45 0C  80 F8 FF FF 7F F8 FF FF  ..s211E.........
1A50: 7F 73 32 30 36 05 80 55  0C 80 F8 FF FF 7F F8 FF  .s206..U........
1A60: FF 7F 73 32 30 36 45 0C  80 F8 FF FF 7F F8 FF FF  ..s206E.........
1A70: 7F 73 30 36 38 05 80 5B  AC 80 09 02 05 01 09 02  .s068..[........
1A80: 05 01 6B 61 69 35 1C B4  80 55 0C 80 F8 FF FF 7F  ..kai5...U......
1A90: F8 FF FF 7F 73 30 36 38  45 0C 80 F8 FF FF 7F F8  ....s068E.......
1AA0: FF FF 7F 73 30 36 39 05  80 5B AA 80 0A 02 05 01  ...s069..[......
1AB0: 0A 02 05 01 6B 61 69 35  03 02 10 BA 80 27 10 46  ....kai5.....'.F
1AC0: 02 05 01 01 1C 72 80 2B  0A 02 05 01 BB 80 23 2A  .....r.+......#*
1AD0: 10 46 02 05 01 55 0C 80  F8 FF FF 7F F8 FF FF 7F  .F...U..........
1AE0: 73 30 36 39 45 0C 80 F8  FF FF 7F F8 FF FF 7F 73  s069E..........s
1AF0: 30 37 30 05 80 5B AA 80  0A 02 05 01 0A 02 05 01  070..[..........
1B00: 6B 61 69 36 2B 0A 02 05  01 BC 80 23 53 0A 02 05  kai6+......#S...
1B10: 01 0A 02 05 01 6B 61 69  36 4A F0 FF FF 7F 07 02  .....kai6J......
1B20: 05 01 55 0C 80 F8 FF FF  7F F8 FF FF 7F 73 30 37  ..U..........s07
1B30: 30 45 0C 80 F8 FF FF 7F  F8 FF FF 7F 73 32 30 37  0E..........s207
1B40: 05 80 5B B8 80 07 02 05  01 07 02 05 01 61 77 61  ..[..........awa
1B50: 31 2B 07 02 05 01 BD 80  23 4E 01 0A 02 05 01 53  1+......#N.....S
1B60: 07 02 05 01 07 02 05 01  61 77 61 31 52 0C 80 F8  ........awa1R...
1B70: FF FF 7F F8 FF FF 7F 73  32 30 37 45 0C 80 F8 FF  .......s207E....
1B80: FF 7F F8 FF FF 7F 73 30  37 31 05 80 5B AC 80 09  ......s071..[...
1B90: 02 05 01 09 02 05 01 6B  61 69 36 1C BE 80 2B 09  .......kai6...+.
1BA0: 02 05 01 BF 80 23 53 09  02 05 01 09 02 05 01 6B  .....#S........k
1BB0: 61 69 36 52 0C 80 F8 FF  FF 7F F8 FF FF 7F 73 30  ai6R..........s0
1BC0: 37 31 45 0C 80 F8 FF FF  7F F8 FF FF 7F 73 30 37  71E..........s07
1BD0: 32 05 80 4E 01 09 02 05  01 5B B8 80 07 02 05 01  2..N.....[......
1BE0: 07 02 05 01 61 77 61 32  2B 07 02 05 01 C0 80 23  ....awa2+......#
1BF0: 5B 7C 80 27 02 05 01 27  02 05 01 6B 79 61 30 53  [|.'...'...kya0S
1C00: 07 02 05 01 07 02 05 01  61 77 61 32 52 0C 80 F8  ........awa2R...
1C10: FF FF 7F F8 FF FF 7F 73  30 37 32 45 0C 80 F8 FF  .......s072E....
1C20: FF 7F F8 FF FF 7F 73 32  31 32 05 80 1C 43 80 79  ......s212...C.y
1C30: 00 28 02 05 01 27 02 05  01 1C C1 80 79 00 F0 FF  .(...'......y...
1C40: FF 7F 27 02 05 01 5B 7C  80 27 02 05 01 27 02 05  ..'...[|.'...'..
1C50: 01 67 6D 65 30 55 0C 80  F8 FF FF 7F F8 FF FF 7F  .gme0U..........
1C60: 73 32 31 32 45 0C 80 F8  FF FF 7F F8 FF FF 7F 73  s212E..........s
1C70: 30 37 33 05 80 5B B8 80  07 02 05 01 07 02 05 01  073..[..........
1C80: 61 77 61 33 81 00 07 02  05 01 1C BE 80 52 0C 80  awa3.........R..
1C90: F8 FF FF 7F F8 FF FF 7F  73 30 37 33 45 0C 80 F8  ........s073E...
1CA0: FF FF 7F F8 FF FF 7F 79  73 30 33 05 80 1C 43 80  .......ys03...C.
1CB0: 2B 07 02 05 01 C2 80 23  53 07 02 05 01 07 02 05  +......#S.......
1CC0: 01 61 77 61 33 52 0C 80  F8 FF FF 7F F8 FF FF 7F  .awa3R..........
1CD0: 79 73 30 33 45 0C 80 F8  FF FF 7F F8 FF FF 7F 79  ys03E..........y
1CE0: 73 30 34 05 80 1C BE 80  1A 3E 71 52 0C 80 F8 FF  s04......>qR....
1CF0: FF 7F F8 FF FF 7F 79 73  30 34 45 0C 80 F8 FF FF  ......ys04E.....
1D00: 7F F8 FF FF 7F 30 62 6C  66 05 80 5C 00 C3 80 5C  .....0blf..\...\
1D10: 01 C3 80 9A 46 00 45 0D  80 F0 FF FF 7F F0 FF FF  ....F.E.........
1D20: 7F 66 64 69 32 05 80 21  00                       .fdi2..!.       
```

#### Opcodes

```
  0: 0x0001 [0x42] SET_CLI_EVENT_CANCEL_DATA()
  1: 0x0002 [0x20] SET_CLI_EVENT_UC_FLAG: Lock player control
  2: 0x0004 [0x46] CAMERA_CONTROL: Disable user control
  3: 0x0006 [0x1A] CALL_SUBROUTINE(address=0x713E)
  4: 0x0009 [0x38] SET_CLIENT_EVENT_MODE(mode=19*)
  5: 0x000C [0xBA] SET_ENTITY_POSITION(entity_id=LocalPlayer, pos_x=-169.884*, pos_z=57.193*, pos_y=-2.000*, direction=42.8*)
  6: 0x0019 [0xBA] SET_ENTITY_POSITION(entity_id=Excenmille (ID: 17105418/0x0105020A), pos_x=0.000*, pos_z=0.000*, pos_y=0.000*, direction=0.0*)
  7: 0x0026 [0xBA] SET_ENTITY_POSITION(entity_id=Rahal (ID: 17105417/0x01050209), pos_x=0.000*, pos_z=0.000*, pos_y=0.000*, direction=0.0*)
  8: 0x0033 [0xBA] SET_ENTITY_POSITION(entity_id=Rholont (ID: 17105415/0x01050207), pos_x=-168.543*, pos_z=55.484*, pos_y=-2.000*, direction=208.0*)
  9: 0x0040 [0xBA] SET_ENTITY_POSITION(entity_id=Bistillot (ID: 17105423/0x0105020F), pos_x=0.000*, pos_z=0.000*, pos_y=0.000*, direction=0.0*)
 10: 0x004D [0xBA] SET_ENTITY_POSITION(entity_id=Cyranuce (ID: 17105447/0x01050227), pos_x=0.000*, pos_z=0.000*, pos_y=0.000*, direction=0.0*)
 11: 0x005A [0xBA] SET_ENTITY_POSITION(entity_id=Machegue (ID: 17105448/0x01050228), pos_x=0.000*, pos_z=0.000*, pos_y=0.000*, direction=0.0*)
 12: 0x0067 [0xBA] SET_ENTITY_POSITION(entity_id=Unknown NPC (ID: 17105462/0x01050236), pos_x=0.000*, pos_z=0.000*, pos_y=0.000*, direction=0.0*)
 13: 0x0074 [0x79] LocalPlayer looks at LocalPlayer (Basic look)
 14: 0x007E [0x79] Excenmille (ID: 17105418/0x0105020A) looks at Excenmille (ID: 17105418/0x0105020A) (Basic look)
 15: 0x0088 [0x79] Rahal (ID: 17105417/0x01050209) looks at Rahal (ID: 17105417/0x01050209) (Basic look)
 16: 0x0092 [0x79] Rholont (ID: 17105415/0x01050207) looks at Rholont (ID: 17105415/0x01050207) (Basic look)
 17: 0x009C [0x79] Bistillot (ID: 17105423/0x0105020F) looks at Bistillot (ID: 17105423/0x0105020F) (Basic look)
 18: 0x00A6 [0x79] Cyranuce (ID: 17105447/0x01050227) looks at Cyranuce (ID: 17105447/0x01050227) (Basic look)
 19: 0x00B0 [0x79] Machegue (ID: 17105448/0x01050228) looks at Machegue (ID: 17105448/0x01050228) (Basic look)
 20: 0x00BA [0x92] Excenmille (ID: 17105418/0x0105020A)->Render.Flags3 ^= 0x01
 21: 0x00C0 [0x92] Excenmille (ID: 17105419/0x0105020B)->Render.Flags3 ^= 0x01
 22: 0x00C6 [0x92] Rahal (ID: 17105417/0x01050209)->Render.Flags3 ^= 0x01
 23: 0x00CC [0x92] Rholont (ID: 17105415/0x01050207)->Render.Flags3 ^= 0x01
 24: 0x00D2 [0x92] Bistillot (ID: 17105423/0x0105020F)->Render.Flags3 ^= 0x01
 25: 0x00D8 [0x92] Cyranuce (ID: 17105447/0x01050227)->Render.Flags3 ^= 0x01
 26: 0x00DE [0x92] Machegue (ID: 17105448/0x01050228)->Render.Flags3 ^= 0x01
 27: 0x00E4 [0x92] ??? Warmachine (ID: 17105465/0x01050239)->Render.Flags3 ^= 0x01
 28: 0x00EA [0x94] LocalPlayer->Render.Flags3 ^= 0x01
 29: 0x00F0 [0x94] Excenmille (ID: 17105418/0x0105020A)->Render.Flags3 ^= 0x01
 30: 0x00F6 [0x94] Excenmille (ID: 17105419/0x0105020B)->Render.Flags3 ^= 0x01
 31: 0x00FC [0x94] Rahal (ID: 17105417/0x01050209)->Render.Flags3 ^= 0x01
 32: 0x0102 [0x94] Rholont (ID: 17105415/0x01050207)->Render.Flags3 ^= 0x01
 33: 0x0108 [0x94] Bistillot (ID: 17105423/0x0105020F)->Render.Flags3 ^= 0x01
 34: 0x010E [0x94] Cyranuce (ID: 17105447/0x01050227)->Render.Flags3 ^= 0x01
 35: 0x0114 [0x94] Machegue (ID: 17105448/0x01050228)->Render.Flags3 ^= 0x01
 36: 0x011A [0x94] ??? Warmachine (ID: 17105465/0x01050239)->Render.Flags3 ^= 0x01
 37: 0x0120 [0x4E] SET_ENTITY_HIDE_FLAG: Show Excenmille (ID: 17105418/0x0105020A)
 38: 0x0126 [0x4E] SET_ENTITY_HIDE_FLAG: Show Rahal (ID: 17105417/0x01050209)
 39: 0x012C [0x4E] SET_ENTITY_HIDE_FLAG: Show Rholont (ID: 17105415/0x01050207)
 40: 0x0132 [0x4E] SET_ENTITY_HIDE_FLAG: Show Bistillot (ID: 17105423/0x0105020F)
 41: 0x0138 [0x4E] SET_ENTITY_HIDE_FLAG: Show Cyranuce (ID: 17105447/0x01050227)
 42: 0x013E [0x4E] SET_ENTITY_HIDE_FLAG: Show Machegue (ID: 17105448/0x01050228)
 43: 0x0144 [0x4E] SET_ENTITY_HIDE_FLAG: Show ??? Warmachine (ID: 17105465/0x01050239)
 44: 0x014A [0x80] LOAD_WAIT(entity=LocalPlayer)
 45: 0x014F [0x80] LOAD_WAIT(entity=Excenmille (ID: 17105418/0x0105020A))
 46: 0x0154 [0x80] LOAD_WAIT(entity=Rahal (ID: 17105417/0x01050209))
 47: 0x0159 [0x80] LOAD_WAIT(entity=Rholont (ID: 17105415/0x01050207))
 48: 0x015E [0x80] LOAD_WAIT(entity=Bistillot (ID: 17105423/0x0105020F))
 49: 0x0163 [0x80] LOAD_WAIT(entity=Cyranuce (ID: 17105447/0x01050227))
 50: 0x0168 [0x80] LOAD_WAIT(entity=Machegue (ID: 17105448/0x01050228))
 51: 0x016D [0x80] LOAD_WAIT(entity=??? Warmachine (ID: 17105465/0x01050239))
 52: 0x0172 [0x4A] LocalPlayer looks at Rholont (ID: 17105415/0x01050207)
 53: 0x017B [0x4A] Rholont (ID: 17105415/0x01050207) looks at LocalPlayer
 54: 0x0184 [0x79] LocalPlayer looks at LocalPlayer (Basic look)
 55: 0x018E [0x79] Rholont (ID: 17105415/0x01050207) looks at Rholont (ID: 17105415/0x01050207) (Basic look)
 56: 0x0198 [0x6F] WAIT_FRAME_DELAY: Yield until WaitTime reaches zero
 57: 0x0199 [0x76] CHECK_ENTITY_RENDER_FLAGS: Wait until Rholont (ID: 17105415/0x01050207) Render.Flags0 and Render.Flags3 conditions are met
 58: 0x019E [0x6F] WAIT_FRAME_DELAY: Yield until WaitTime reaches zero
 59: 0x019F [0x76] CHECK_ENTITY_RENDER_FLAGS: Wait until LocalPlayer Render.Flags0 and Render.Flags3 conditions are met
 60: 0x01A4 [0x7C] Rholont (ID: 17105415/0x01050207)->Render.Flags2 |= 0x00
 61: 0x01AA [0x81] SET_ENTITY_BLINKING(blink_flag=0x00, entity=Rholont (ID: 17105415/0x01050207))
 62: 0x01B0 [0x5B] LOAD_EXT_SCHEDULER: Load scheduler "fd00" with entities [Rholont (ID: 17105415/0x01050207), Rholont (ID: 17105415/0x01050207)], work=1299*
 63: 0x01BF [0x1C] WAIT(15* ticks)
 64: 0x01C2 [0x5B] LOAD_EXT_SCHEDULER: Load scheduler "kei0" with entities [Rholont (ID: 17105415/0x01050207), Rholont (ID: 17105415/0x01050207)], work=1301*
 65: 0x01D1 [0x53] WAIT_SCHEDULER_TASK: Wait for scheduler "kei0" with entities [Rholont (ID: 17105415/0x01050207), Rholont (ID: 17105415/0x01050207)]
 66: 0x01DE [0x9A] WAIT_MUSIC_SERVER()
 67: 0x01DF [0x45] LOAD_SCHEDULED_TASK: Load scheduler "s000" with entities [EventEntity, EventEntity], work=[360*, 0*]
 68: 0x01F0 [0x45] LOAD_SCHEDULED_TASK: Load scheduler "fdi2" with entities [EventEntity, EventEntity], work=[200*, 0*]
 69: 0x0201 [0x5B] LOAD_EXT_SCHEDULER: Load scheduler "fd01" with entities [Rholont (ID: 17105415/0x01050207), Rholont (ID: 17105415/0x01050207)], work=1299*
 70: 0x0210 [0x2B] Rholont (ID: 17105415/0x01050207) [13106*]:
     "Good day, <Player>."
 71: 0x0217 [0x23] WAIT_FOR_DIALOG_INTERACTION
 72: 0x0218 [0x2B] Rholont (ID: 17105415/0x01050207) [13107*]:
     "The War Council will be commencing momentarily."
 73: 0x021F [0x23] WAIT_FOR_DIALOG_INTERACTION
 74: 0x0220 [0x5D] SET_MUSIC_VOLUME(volume=0*, fade_time=240*)
 75: 0x0225 [0x1A] CALL_SUBROUTINE(address=0x713E)
 76: 0x0228 [0x52] END_LOAD_SCHEDULER: End scheduler "s000" with entities [EventEntity, EventEntity], work=360*
 77: 0x0237 [0x5B] LOAD_EXT_SCHEDULER: Load scheduler "kei1" with entities [Rholont (ID: 17105415/0x01050207), Rholont (ID: 17105415/0x01050207)], work=1301*
 78: 0x0246 [0x53] WAIT_SCHEDULER_TASK: Wait for scheduler "kei1" with entities [Rholont (ID: 17105415/0x01050207), Rholont (ID: 17105415/0x01050207)]
 79: 0x0253 [0x5B] LOAD_EXT_SCHEDULER: Load scheduler "f000" with entities [Rholont (ID: 17105415/0x01050207), Rholont (ID: 17105415/0x01050207)], work=1299*
 80: 0x0262 [0x53] WAIT_SCHEDULER_TASK: Wait for scheduler "f000" with entities [Rholont (ID: 17105415/0x01050207), Rholont (ID: 17105415/0x01050207)]
 81: 0x026F [0x7C] Rholont (ID: 17105415/0x01050207)->Render.Flags2 |= 0x01
 82: 0x0275 [0x81] SET_ENTITY_BLINKING(blink_flag=0x01, entity=Rholont (ID: 17105415/0x01050207))
 83: 0x027B [0xBA] SET_ENTITY_POSITION(entity_id=LocalPlayer, pos_x=-163.781*, pos_z=64.816*, pos_y=-2.000*, direction=133.4*)
 84: 0x0288 [0xBA] SET_ENTITY_POSITION(entity_id=Rahal (ID: 17105417/0x01050209), pos_x=-165.688*, pos_z=60.442*, pos_y=-2.000*, direction=132.0*)
 85: 0x0295 [0xBA] SET_ENTITY_POSITION(entity_id=Rholont (ID: 17105415/0x01050207), pos_x=-163.380*, pos_z=62.316*, pos_y=-2.000*, direction=133.3*)
 86: 0x02A2 [0xBA] SET_ENTITY_POSITION(entity_id=Machegue (ID: 17105448/0x01050228), pos_x=-166.737*, pos_z=66.166*, pos_y=-1.999*, direction=113.6*)
 87: 0x02AF [0xBA] SET_ENTITY_POSITION(entity_id=Cyranuce (ID: 17105447/0x01050227), pos_x=-166.932*, pos_z=64.395*, pos_y=-1.999*, direction=62.6*)
 88: 0x02BC [0xBA] SET_ENTITY_POSITION(entity_id=Unknown NPC (ID: 17105462/0x01050236), pos_x=-172.738*, pos_z=58.880*, pos_y=-2.199*, direction=133.4*)
 89: 0x02C9 [0x4A] Rahal (ID: 17105417/0x01050209) looks at Unknown NPC (ID: 17105462/0x01050236)
 90: 0x02D2 [0x4A] Rholont (ID: 17105415/0x01050207) looks at Rahal (ID: 17105417/0x01050209)
 91: 0x02DB [0x4A] LocalPlayer looks at Rahal (ID: 17105417/0x01050209)
 92: 0x02E4 [0x4A] Cyranuce (ID: 17105447/0x01050227) looks at Rholont (ID: 17105415/0x01050207)
 93: 0x02ED [0x4A] Machegue (ID: 17105448/0x01050228) looks at Rholont (ID: 17105415/0x01050207)
 94: 0x02F6 [0x7B] Unknown NPC (ID: 17105462/0x01050236) stops talking
 95: 0x02FB [0x7B] Rahal (ID: 17105417/0x01050209) stops talking
 96: 0x0300 [0x7B] Rholont (ID: 17105415/0x01050207) stops talking
 97: 0x0305 [0x7B] Cyranuce (ID: 17105447/0x01050227) stops talking
 98: 0x030A [0x7B] Machegue (ID: 17105448/0x01050228) stops talking
 99: 0x030F [0x6F] WAIT_FRAME_DELAY: Yield until WaitTime reaches zero
100: 0x0310 [0x76] CHECK_ENTITY_RENDER_FLAGS: Wait until Unknown NPC (ID: 17105462/0x01050236) Render.Flags0 and Render.Flags3 conditions are met
101: 0x0315 [0x6F] WAIT_FRAME_DELAY: Yield until WaitTime reaches zero
102: 0x0316 [0x76] CHECK_ENTITY_RENDER_FLAGS: Wait until Rahal (ID: 17105417/0x01050209) Render.Flags0 and Render.Flags3 conditions are met
103: 0x031B [0x6F] WAIT_FRAME_DELAY: Yield until WaitTime reaches zero
104: 0x031C [0x76] CHECK_ENTITY_RENDER_FLAGS: Wait until Rholont (ID: 17105415/0x01050207) Render.Flags0 and Render.Flags3 conditions are met
105: 0x0321 [0x6F] WAIT_FRAME_DELAY: Yield until WaitTime reaches zero
106: 0x0322 [0x76] CHECK_ENTITY_RENDER_FLAGS: Wait until Cyranuce (ID: 17105447/0x01050227) Render.Flags0 and Render.Flags3 conditions are met
107: 0x0327 [0x6F] WAIT_FRAME_DELAY: Yield until WaitTime reaches zero
108: 0x0328 [0x76] CHECK_ENTITY_RENDER_FLAGS: Wait until Machegue (ID: 17105448/0x01050228) Render.Flags0 and Render.Flags3 conditions are met
109: 0x032D [0x48] [System] [13105*]:
     "@@"
110: 0x0330 [0x23] WAIT_FOR_DIALOG_INTERACTION
111: 0x0331 [0x45] LOAD_SCHEDULED_TASK: Load scheduler "s002" with entities [EventEntity, EventEntity], work=[360*, 0*]
112: 0x0342 [0x2B] Rholont (ID: 17105415/0x01050207) [13108*]:
     "Lieutenant Rahal!"
113: 0x0349 [0x23] WAIT_FOR_DIALOG_INTERACTION
114: 0x034A [0x55] WAIT_LOAD_SCHEDULER: Wait for scheduler "s002" with entities [EventEntity, EventEntity], work=360*
115: 0x0359 [0x45] LOAD_SCHEDULED_TASK: Load scheduler "s001" with entities [EventEntity, EventEntity], work=[360*, 0*]
116: 0x036A [0x45] LOAD_SCHEDULED_TASK: Load scheduler "fdi2" with entities [EventEntity, EventEntity], work=[200*, 0*]
117: 0x037B [0x5B] LOAD_EXT_SCHEDULER: Load scheduler "tla0" with entities [Rholont (ID: 17105415/0x01050207), Rholont (ID: 17105415/0x01050207)], work=1272*
118: 0x038A [0x2B] Rholont (ID: 17105415/0x01050207) [13109*]:
     "Will Captain Excenmille not be in attendance this day?"
119: 0x0391 [0x23] WAIT_FOR_DIALOG_INTERACTION
120: 0x0392 [0x5B] LOAD_EXT_SCHEDULER: Load scheduler "tla1" with entities [Rholont (ID: 17105415/0x01050207), Rholont (ID: 17105415/0x01050207)], work=1272*
121: 0x03A1 [0x52] END_LOAD_SCHEDULER: End scheduler "s001" with entities [EventEntity, EventEntity], work=360*
122: 0x03B0 [0x45] LOAD_SCHEDULED_TASK: Load scheduler "s003" with entities [EventEntity, EventEntity], work=[360*, 0*]
123: 0x03C1 [0x03] Work_Zone[37] = 4294802464*
124: 0x03C6 [0x03] Work_Zone[39] = 61466*
125: 0x03CB [0x03] Work_Zone[38] = 4294965296*
126: 0x03D0 [0x03] Work_Zone[40] = 1404*
127: 0x03D5 [0x27] REQ_SET(priority=0x0F, entity_id=Rahal (ID: 17105417/0x01050209), tag_num=0x0C)
128: 0x03DC [0x2A] GET_REQ_LEVEL(level=15, entity_id=Rahal (ID: 17105417/0x01050209))
129: 0x03E2 [0x4A] Rahal (ID: 17105417/0x01050209) looks at Rholont (ID: 17105415/0x01050207)
130: 0x03EB [0x4A] Rholont (ID: 17105415/0x01050207) looks at Rahal (ID: 17105417/0x01050209)
131: 0x03F4 [0x7B] Rahal (ID: 17105417/0x01050209) stops talking
132: 0x03F9 [0x7B] Rholont (ID: 17105415/0x01050207) stops talking
133: 0x03FE [0x5B] LOAD_EXT_SCHEDULER: Load scheduler "ika0" with entities [Rahal (ID: 17105417/0x01050209), Rahal (ID: 17105417/0x01050209)], work=1439*
134: 0x040D [0x2B] Rahal (ID: 17105417/0x01050209) [13110*]:
     "Hmph. The captain feels not the necessity of informing such matters to his next in command."
135: 0x0414 [0x23] WAIT_FOR_DIALOG_INTERACTION
136: 0x0415 [0x5B] LOAD_EXT_SCHEDULER: Load scheduler "ika1" with entities [Rahal (ID: 17105417/0x01050209), Rahal (ID: 17105417/0x01050209)], work=1439*
137: 0x0424 [0x52] END_LOAD_SCHEDULER: End scheduler "s003" with entities [EventEntity, EventEntity], work=360*
138: 0x0433 [0x45] LOAD_SCHEDULED_TASK: Load scheduler "s004" with entities [EventEntity, EventEntity], work=[360*, 0*]
139: 0x0444 [0x4A] Rholont (ID: 17105415/0x01050207) looks at Cyranuce (ID: 17105447/0x01050227)
140: 0x044D [0x4A] Rahal (ID: 17105417/0x01050209) looks at Cyranuce (ID: 17105447/0x01050227)
141: 0x0456 [0x4A] LocalPlayer looks at Cyranuce (ID: 17105447/0x01050227)
142: 0x045F [0x4A] Machegue (ID: 17105448/0x01050228) looks at Cyranuce (ID: 17105447/0x01050227)
143: 0x0468 [0x7B] Rholont (ID: 17105415/0x01050207) stops talking
144: 0x046D [0x7B] Rahal (ID: 17105417/0x01050209) stops talking
145: 0x0472 [0x79] LocalPlayer looks at LocalPlayer (Basic look)
146: 0x047C [0x7B] Machegue (ID: 17105448/0x01050228) stops talking
147: 0x0481 [0x2B] Bistillot (ID: 17105423/0x0105020F) [13111*]:
     "We are all aware of his tendency to neglect official obligations, but duty is duty."
148: 0x0488 [0x23] WAIT_FOR_DIALOG_INTERACTION
149: 0x0489 [0x5B] LOAD_EXT_SCHEDULER: Load scheduler "ira0" with entities [Rahal (ID: 17105417/0x01050209), Rahal (ID: 17105417/0x01050209)], work=2351*
150: 0x0498 [0x2B] Bistillot (ID: 17105423/0x0105020F) [13112*]:
     "Intelligence confirms that the captain's father arrived back at the capital two evenings ago. The captain should therefore be available to preside over today's meeting."
151: 0x049F [0x23] WAIT_FOR_DIALOG_INTERACTION
152: 0x04A0 [0x6F] WAIT_FRAME_DELAY: Yield until WaitTime reaches zero
153: 0x04A1 [0x76] CHECK_ENTITY_RENDER_FLAGS: Wait until Rholont (ID: 17105415/0x01050207) Render.Flags0 and Render.Flags3 conditions are met
154: 0x04A6 [0x6F] WAIT_FRAME_DELAY: Yield until WaitTime reaches zero
155: 0x04A7 [0x76] CHECK_ENTITY_RENDER_FLAGS: Wait until Rahal (ID: 17105417/0x01050209) Render.Flags0 and Render.Flags3 conditions are met
156: 0x04AC [0x6F] WAIT_FRAME_DELAY: Yield until WaitTime reaches zero
157: 0x04AD [0x76] CHECK_ENTITY_RENDER_FLAGS: Wait until LocalPlayer Render.Flags0 and Render.Flags3 conditions are met
158: 0x04B2 [0x6F] WAIT_FRAME_DELAY: Yield until WaitTime reaches zero
159: 0x04B3 [0x76] CHECK_ENTITY_RENDER_FLAGS: Wait until Machegue (ID: 17105448/0x01050228) Render.Flags0 and Render.Flags3 conditions are met
160: 0x04B8 [0x53] WAIT_SCHEDULER_TASK: Wait for scheduler "tla1" with entities [Rholont (ID: 17105415/0x01050207), Rholont (ID: 17105415/0x01050207)]
161: 0x04C5 [0x53] WAIT_SCHEDULER_TASK: Wait for scheduler "tla1" with entities [Rahal (ID: 17105417/0x01050209), Rahal (ID: 17105417/0x01050209)]
162: 0x04D2 [0x52] END_LOAD_SCHEDULER: End scheduler "s004" with entities [EventEntity, EventEntity], work=360*
163: 0x04E1 [0x45] LOAD_SCHEDULED_TASK: Load scheduler "s005" with entities [EventEntity, EventEntity], work=[360*, 0*]
164: 0x04F2 [0x5B] LOAD_EXT_SCHEDULER: Load scheduler "tla0" with entities [Cyranuce (ID: 17105447/0x01050227), Cyranuce (ID: 17105447/0x01050227)], work=1272*
165: 0x0501 [0x2B] Cyranuce (ID: 17105447/0x01050227) [13113*]:
     "Un-unless the unspeakable has befallen him during the expedition...?"
166: 0x0508 [0x23] WAIT_FOR_DIALOG_INTERACTION
167: 0x0509 [0x5B] LOAD_EXT_SCHEDULER: Load scheduler "tla1" with entities [Cyranuce (ID: 17105447/0x01050227), Cyranuce (ID: 17105447/0x01050227)], work=1272*
168: 0x0518 [0x52] END_LOAD_SCHEDULER: End scheduler "s005" with entities [EventEntity, EventEntity], work=360*
169: 0x0527 [0x45] LOAD_SCHEDULED_TASK: Load scheduler "s006" with entities [EventEntity, EventEntity], work=[360*, 0*]
170: 0x0538 [0x7C] Rholont (ID: 17105415/0x01050207)->Render.Flags2 |= 0x00
171: 0x053E [0x81] SET_ENTITY_BLINKING(blink_flag=0x00, entity=Rholont (ID: 17105415/0x01050207))
172: 0x0544 [0x5B] LOAD_EXT_SCHEDULER: Load scheduler "f000" with entities [Rholont (ID: 17105415/0x01050207), Rholont (ID: 17105415/0x01050207)], work=1299*
173: 0x0553 [0x5B] LOAD_EXT_SCHEDULER: Load scheduler "fi01" with entities [Rholont (ID: 17105415/0x01050207), Rholont (ID: 17105415/0x01050207)], work=1299*
174: 0x0562 [0x5B] LOAD_EXT_SCHEDULER: Load scheduler "tls0" with entities [Rholont (ID: 17105415/0x01050207), Rholont (ID: 17105415/0x01050207)], work=1272*
175: 0x0571 [0x2B] Rholont (ID: 17105415/0x01050207) [13114*]:
     "S-speak not of such things, Cyranuce, not even in jest!"
176: 0x0578 [0x23] WAIT_FOR_DIALOG_INTERACTION
177: 0x0579 [0x5B] LOAD_EXT_SCHEDULER: Load scheduler "f000" with entities [Rholont (ID: 17105415/0x01050207), Rholont (ID: 17105415/0x01050207)], work=1299*
178: 0x0588 [0x5B] LOAD_EXT_SCHEDULER: Load scheduler "tls1" with entities [Rholont (ID: 17105415/0x01050207), Rholont (ID: 17105415/0x01050207)], work=1272*
179: 0x0597 [0x7C] Rholont (ID: 17105415/0x01050207)->Render.Flags2 |= 0x01
180: 0x059D [0x81] SET_ENTITY_BLINKING(blink_flag=0x01, entity=Rholont (ID: 17105415/0x01050207))
181: 0x05A3 [0x53] WAIT_SCHEDULER_TASK: Wait for scheduler "wav0" with entities [Cyranuce (ID: 17105447/0x01050227), Cyranuce (ID: 17105447/0x01050227)]
182: 0x05B0 [0x52] END_LOAD_SCHEDULER: End scheduler "s006" with entities [EventEntity, EventEntity], work=360*
183: 0x05BF [0x45] LOAD_SCHEDULED_TASK: Load scheduler "s007" with entities [EventEntity, EventEntity], work=[360*, 0*]
184: 0x05D0 [0x5B] LOAD_EXT_SCHEDULER: Load scheduler "tha0" with entities [Cyranuce (ID: 17105447/0x01050227), Cyranuce (ID: 17105447/0x01050227)], work=1273*
185: 0x05DF [0x2B] Cyranuce (ID: 17105447/0x01050227) [13115*]:
     "But, but..."
186: 0x05E6 [0x23] WAIT_FOR_DIALOG_INTERACTION
187: 0x05E7 [0x5B] LOAD_EXT_SCHEDULER: Load scheduler "tha1" with entities [Cyranuce (ID: 17105447/0x01050227), Cyranuce (ID: 17105447/0x01050227)], work=1273*
188: 0x05F6 [0x52] END_LOAD_SCHEDULER: End scheduler "s007" with entities [EventEntity, EventEntity], work=360*
189: 0x0605 [0x45] LOAD_SCHEDULED_TASK: Load scheduler "s008" with entities [EventEntity, EventEntity], work=[360*, 0*]
190: 0x0616 [0x5B] LOAD_EXT_SCHEDULER: Load scheduler "tla0" with entities [Machegue (ID: 17105448/0x01050228), Machegue (ID: 17105448/0x01050228)], work=1272*
191: 0x0625 [0x2B] Machegue (ID: 17105448/0x01050228) [13116*]:
     "Remember you not Mother's words, Cyra?"
192: 0x062C [0x23] WAIT_FOR_DIALOG_INTERACTION
193: 0x062D [0x2B] Machegue (ID: 17105448/0x01050228) [13117*]:
     ""Negative thoughts breed negative outcomes.""
194: 0x0634 [0x23] WAIT_FOR_DIALOG_INTERACTION
195: 0x0635 [0x5B] LOAD_EXT_SCHEDULER: Load scheduler "tla1" with entities [Machegue (ID: 17105448/0x01050228), Machegue (ID: 17105448/0x01050228)], work=1272*
196: 0x0644 [0x52] END_LOAD_SCHEDULER: End scheduler "s008" with entities [EventEntity, EventEntity], work=360*
197: 0x0653 [0x4A] Cyranuce (ID: 17105447/0x01050227) looks at Machegue (ID: 17105448/0x01050228)
198: 0x065C [0x7B] Cyranuce (ID: 17105447/0x01050227) stops talking
199: 0x0661 [0x45] LOAD_SCHEDULED_TASK: Load scheduler "s009" with entities [EventEntity, EventEntity], work=[360*, 0*]
200: 0x0672 [0x6B] STOP_AND_IDLE: Rahal (ID: 17105417/0x01050209) stops current action and resets to idle (animation="idl0")
201: 0x067B [0x5B] LOAD_EXT_SCHEDULER: Load scheduler "tla0" with entities [Cyranuce (ID: 17105447/0x01050227), Cyranuce (ID: 17105447/0x01050227)], work=1272*
202: 0x068A [0x6F] WAIT_FRAME_DELAY: Yield until WaitTime reaches zero
203: 0x068B [0x76] CHECK_ENTITY_RENDER_FLAGS: Wait until Cyranuce (ID: 17105447/0x01050227) Render.Flags0 and Render.Flags3 conditions are met
204: 0x0690 [0x2B] Cyranuce (ID: 17105447/0x01050227) [13118*]:
     "I'm merely concerned for the welfare of our captain, nothing more! A-and how many times must I remind you to address me not by my infantile name!?"
205: 0x0697 [0x23] WAIT_FOR_DIALOG_INTERACTION
206: 0x0698 [0x5B] LOAD_EXT_SCHEDULER: Load scheduler "tla1" with entities [Cyranuce (ID: 17105447/0x01050227), Cyranuce (ID: 17105447/0x01050227)], work=1272*
207: 0x06A7 [0x52] END_LOAD_SCHEDULER: End scheduler "s009" with entities [EventEntity, EventEntity], work=360*
208: 0x06B6 [0x45] LOAD_SCHEDULED_TASK: Load scheduler "s010" with entities [EventEntity, EventEntity], work=[360*, 0*]
209: 0x06C7 [0x5B] LOAD_EXT_SCHEDULER: Load scheduler "tla0" with entities [Machegue (ID: 17105448/0x01050228), Machegue (ID: 17105448/0x01050228)], work=1272*
210: 0x06D6 [0x2B] Machegue (ID: 17105448/0x01050228) [13119*]:
     "Oh, I'm sorry, Cyra...nuce."
211: 0x06DD [0x23] WAIT_FOR_DIALOG_INTERACTION
212: 0x06DE [0x5B] LOAD_EXT_SCHEDULER: Load scheduler "tla1" with entities [Machegue (ID: 17105448/0x01050228), Machegue (ID: 17105448/0x01050228)], work=1272*
213: 0x06ED [0x52] END_LOAD_SCHEDULER: End scheduler "s010" with entities [EventEntity, EventEntity], work=360*
214: 0x06FC [0x45] LOAD_SCHEDULED_TASK: Load scheduler "s011" with entities [EventEntity, EventEntity], work=[360*, 0*]
215: 0x070D [0x2B] Bistillot (ID: 17105423/0x0105020F) [13120*]:
     "But should Cyranuce's concern be invalidated, the captain must be subjected to disciplinary action for non-fulfillment of duty."
216: 0x0714 [0x23] WAIT_FOR_DIALOG_INTERACTION
217: 0x0715 [0x52] END_LOAD_SCHEDULER: End scheduler "s011" with entities [EventEntity, EventEntity], work=360*
218: 0x0724 [0x45] LOAD_SCHEDULED_TASK: Load scheduler "s012" with entities [EventEntity, EventEntity], work=[360*, 0*]
219: 0x0735 [0x81] SET_ENTITY_BLINKING(blink_flag=0x00, entity=Rahal (ID: 17105417/0x01050209))
220: 0x073B [0x5B] LOAD_EXT_SCHEDULER: Load scheduler "sht0" with entities [Rahal (ID: 17105417/0x01050209), Rahal (ID: 17105417/0x01050209)], work=2350*
221: 0x074A [0x2B] Rahal (ID: 17105417/0x01050209) [13121*]:
     "That Excenmille... I swear to the Goddess, the next time he marches in with that arrogant mug of his, I'll--"
222: 0x0751 [0x23] WAIT_FOR_DIALOG_INTERACTION
223: 0x0752 [0x81] SET_ENTITY_BLINKING(blink_flag=0x01, entity=Rahal (ID: 17105417/0x01050209))
224: 0x0758 [0x52] END_LOAD_SCHEDULER: End scheduler "s012" with entities [EventEntity, EventEntity], work=360*
225: 0x0767 [0x45] LOAD_SCHEDULED_TASK: Load scheduler "s013" with entities [EventEntity, EventEntity], work=[360*, 0*]
226: 0x0778 [0x5D] SET_MUSIC_VOLUME(volume=0*, fade_time=240*)
227: 0x077D [0xBA] SET_ENTITY_POSITION(entity_id=Excenmille (ID: 17105418/0x0105020A), pos_x=-171.027*, pos_z=54.906*, pos_y=-2.000*, direction=135.2*)
228: 0x078A [0x03] Work_Zone[37] = 4294799463*
229: 0x078F [0x03] Work_Zone[39] = 55902*
230: 0x0794 [0x03] Work_Zone[38] = 4294965296*
231: 0x0799 [0x03] Work_Zone[40] = 1517*
232: 0x079E [0x27] REQ_SET(priority=0x0F, entity_id=Excenmille (ID: 17105418/0x0105020A), tag_num=0x0C)
233: 0x07A5 [0x2A] GET_REQ_LEVEL(level=15, entity_id=Excenmille (ID: 17105418/0x0105020A))
234: 0x07AB [0x4A] Excenmille (ID: 17105418/0x0105020A) looks at Rahal (ID: 17105417/0x01050209)
235: 0x07B4 [0x4A] Rholont (ID: 17105415/0x01050207) looks at Excenmille (ID: 17105418/0x0105020A)
236: 0x07BD [0x7B] Rholont (ID: 17105415/0x01050207) stops talking
237: 0x07C2 [0x7B] Excenmille (ID: 17105418/0x0105020A) stops talking
238: 0x07C7 [0x55] WAIT_LOAD_SCHEDULER: Wait for scheduler "s013" with entities [EventEntity, EventEntity], work=360*
239: 0x07D6 [0x45] LOAD_SCHEDULED_TASK: Load scheduler "s014" with entities [EventEntity, EventEntity], work=[360*, 0*]
240: 0x07E7 [0x6F] WAIT_FRAME_DELAY: Yield until WaitTime reaches zero
241: 0x07E8 [0x76] CHECK_ENTITY_RENDER_FLAGS: Wait until Rholont (ID: 17105415/0x01050207) Render.Flags0 and Render.Flags3 conditions are met
242: 0x07ED [0x6F] WAIT_FRAME_DELAY: Yield until WaitTime reaches zero
243: 0x07EE [0x76] CHECK_ENTITY_RENDER_FLAGS: Wait until Excenmille (ID: 17105418/0x0105020A) Render.Flags0 and Render.Flags3 conditions are met
244: 0x07F3 [0x5B] LOAD_EXT_SCHEDULER: Load scheduler "ude0" with entities [Excenmille (ID: 17105418/0x0105020A), Excenmille (ID: 17105418/0x0105020A)], work=1406*
245: 0x0802 [0x5B] LOAD_EXT_SCHEDULER: Load scheduler "pnt0" with entities [Rholont (ID: 17105415/0x01050207), Rholont (ID: 17105415/0x01050207)], work=1438*
246: 0x0811 [0x03] Work_Zone[2] = 80*
247: 0x0816 [0x27] REQ_SET(priority=0x10, entity_id=??? (ID: 17105478/0x01050246), tag_num=0x01)
248: 0x081D [0x1C] WAIT(30* ticks)
249: 0x0820 [0x2B] Rholont (ID: 17105415/0x01050207) [13122*]:
     "Ah!"
250: 0x0827 [0x23] WAIT_FOR_DIALOG_INTERACTION
251: 0x0828 [0x2A] GET_REQ_LEVEL(level=16, entity_id=??? (ID: 17105478/0x01050246))
252: 0x082E [0x5B] LOAD_EXT_SCHEDULER: Load scheduler "pnt1" with entities [Rholont (ID: 17105415/0x01050207), Rholont (ID: 17105415/0x01050207)], work=1438*
253: 0x083D [0x53] WAIT_SCHEDULER_TASK: Wait for scheduler "ude0" with entities [Excenmille (ID: 17105418/0x0105020A), Excenmille (ID: 17105418/0x0105020A)]
254: 0x084A [0x52] END_LOAD_SCHEDULER: End scheduler "s014" with entities [EventEntity, EventEntity], work=360*
255: 0x0859 [0x45] LOAD_SCHEDULED_TASK: Load scheduler "s015" with entities [EventEntity, EventEntity], work=[360*, 0*]
256: 0x086A [0x5B] LOAD_EXT_SCHEDULER: Load scheduler "sht1" with entities [Rahal (ID: 17105417/0x01050209), Rahal (ID: 17105417/0x01050209)], work=2350*
257: 0x0879 [0x4A] LocalPlayer looks at Excenmille (ID: 17105418/0x0105020A)
258: 0x0882 [0x4A] Rahal (ID: 17105417/0x01050209) looks at Excenmille (ID: 17105418/0x0105020A)
259: 0x088B [0x4A] Machegue (ID: 17105448/0x01050228) looks at Excenmille (ID: 17105418/0x0105020A)
260: 0x0894 [0x4A] Cyranuce (ID: 17105447/0x01050227) looks at Excenmille (ID: 17105418/0x0105020A)
261: 0x089D [0x7B] Machegue (ID: 17105448/0x01050228) stops talking
262: 0x08A2 [0x7B] Cyranuce (ID: 17105447/0x01050227) stops talking
263: 0x08A7 [0x7B] Rahal (ID: 17105417/0x01050209) stops talking
264: 0x08AC [0x7B] Rholont (ID: 17105415/0x01050207) stops talking
265: 0x08B1 [0x6F] WAIT_FRAME_DELAY: Yield until WaitTime reaches zero
266: 0x08B2 [0x76] CHECK_ENTITY_RENDER_FLAGS: Wait until Cyranuce (ID: 17105447/0x01050227) Render.Flags0 and Render.Flags3 conditions are met
267: 0x08B7 [0x2B] Excenmille (ID: 17105418/0x0105020A) [13123*]:
     "You were halfway through your sentence, Rahal."
268: 0x08BE [0x23] WAIT_FOR_DIALOG_INTERACTION
269: 0x08BF [0x5B] LOAD_EXT_SCHEDULER: Load scheduler "ude1" with entities [Excenmille (ID: 17105418/0x0105020A), Excenmille (ID: 17105418/0x0105020A)], work=1406*
270: 0x08CE [0x52] END_LOAD_SCHEDULER: End scheduler "s015" with entities [EventEntity, EventEntity], work=360*
271: 0x08DD [0x45] LOAD_SCHEDULED_TASK: Load scheduler "s016" with entities [EventEntity, EventEntity], work=[360*, 0*]
272: 0x08EE [0x5B] LOAD_EXT_SCHEDULER: Load scheduler "tlb0" with entities [Rahal (ID: 17105417/0x01050209), Rahal (ID: 17105417/0x01050209)], work=1272*
273: 0x08FD [0x2B] Rahal (ID: 17105417/0x01050209) [13124*]:
     "E-Excenmille!"
274: 0x0904 [0x23] WAIT_FOR_DIALOG_INTERACTION
275: 0x0905 [0x52] END_LOAD_SCHEDULER: End scheduler "s016" with entities [EventEntity, EventEntity], work=360*
276: 0x0914 [0x45] LOAD_SCHEDULED_TASK: Load scheduler "s018" with entities [EventEntity, EventEntity], work=[360*, 0*]
277: 0x0925 [0x5B] LOAD_EXT_SCHEDULER: Load scheduler "yo00" with entities [Excenmille (ID: 17105418/0x0105020A), Excenmille (ID: 17105418/0x0105020A)], work=2351*
278: 0x0934 [0x2B] Excenmille (ID: 17105418/0x0105020A) [13125*]:
     "It's been a while. How fare you all?"
279: 0x093B [0x23] WAIT_FOR_DIALOG_INTERACTION
280: 0x093C [0x52] END_LOAD_SCHEDULER: End scheduler "s018" with entities [EventEntity, EventEntity], work=360*
281: 0x094B [0x45] LOAD_SCHEDULED_TASK: Load scheduler "s017" with entities [EventEntity, EventEntity], work=[360*, 0*]
282: 0x095C [0x5B] LOAD_EXT_SCHEDULER: Load scheduler "tlb1" with entities [Rahal (ID: 17105417/0x01050209), Rahal (ID: 17105417/0x01050209)], work=1272*
283: 0x096B [0x53] WAIT_SCHEDULER_TASK: Wait for scheduler "ude1" with entities [Excenmille (ID: 17105418/0x0105020A), Excenmille (ID: 17105418/0x0105020A)]
284: 0x0978 [0x03] Work_Zone[37] = 4294800142*
285: 0x097D [0x03] Work_Zone[39] = 58657*
286: 0x0982 [0x03] Work_Zone[38] = 4294965297*
287: 0x0987 [0x03] Work_Zone[40] = 3270*
288: 0x098C [0x27] REQ_SET(priority=0x0F, entity_id=Excenmille (ID: 17105418/0x0105020A), tag_num=0x0C)
289: 0x0993 [0x1C] WAIT(10* ticks)
290: 0x0996 [0x03] Work_Zone[37] = 4294799950*
291: 0x099B [0x03] Work_Zone[39] = 60751*
292: 0x09A0 [0x03] Work_Zone[38] = 4294965296*
293: 0x09A5 [0x03] Work_Zone[40] = 1302*
294: 0x09AA [0x27] REQ_SET(priority=0x0F, entity_id=Cyranuce (ID: 17105447/0x01050227), tag_num=0x06)
295: 0x09B1 [0x1C] WAIT(10* ticks)
296: 0x09B4 [0x03] Work_Zone[37] = 4294801319*
297: 0x09B9 [0x03] Work_Zone[39] = 60086*
298: 0x09BE [0x03] Work_Zone[38] = 4294965296*
299: 0x09C3 [0x03] Work_Zone[40] = 1404*
300: 0x09C8 [0x27] REQ_SET(priority=0x0F, entity_id=Rahal (ID: 17105417/0x01050209), tag_num=0x0B)
301: 0x09CF [0x1C] WAIT(10* ticks)
302: 0x09D2 [0x03] Work_Zone[37] = 4294802106*
303: 0x09D7 [0x03] Work_Zone[39] = 58818*
304: 0x09DC [0x03] Work_Zone[38] = 4294965296*
305: 0x09E1 [0x03] Work_Zone[40] = 1980*
306: 0x09E6 [0x27] REQ_SET(priority=0x0F, entity_id=Rholont (ID: 17105415/0x01050207), tag_num=0x1F)
307: 0x09ED [0x1C] WAIT(10* ticks)
308: 0x09F0 [0x03] Work_Zone[37] = 4294798900*
309: 0x09F5 [0x03] Work_Zone[39] = 60397*
310: 0x09FA [0x03] Work_Zone[38] = 4294965296*
311: 0x09FF [0x03] Work_Zone[40] = 1308*
312: 0x0A04 [0x27] REQ_SET(priority=0x0F, entity_id=Machegue (ID: 17105448/0x01050228), tag_num=0x06)
313: 0x0A0B [0x2A] GET_REQ_LEVEL(level=15, entity_id=Machegue (ID: 17105448/0x01050228))
314: 0x0A11 [0x4A] Machegue (ID: 17105448/0x01050228) looks at Excenmille (ID: 17105418/0x0105020A)
315: 0x0A1A [0x7B] Machegue (ID: 17105448/0x01050228) stops talking
316: 0x0A1F [0x2A] GET_REQ_LEVEL(level=15, entity_id=Rahal (ID: 17105417/0x01050209))
317: 0x0A25 [0x4A] Rahal (ID: 17105417/0x01050209) looks at Excenmille (ID: 17105418/0x0105020A)
318: 0x0A2E [0x7B] Rahal (ID: 17105417/0x01050209) stops talking
319: 0x0A33 [0x2A] GET_REQ_LEVEL(level=15, entity_id=Rholont (ID: 17105415/0x01050207))
320: 0x0A39 [0x4A] Rholont (ID: 17105415/0x01050207) looks at Excenmille (ID: 17105418/0x0105020A)
321: 0x0A42 [0x7B] Rholont (ID: 17105415/0x01050207) stops talking
322: 0x0A47 [0x2A] GET_REQ_LEVEL(level=15, entity_id=Cyranuce (ID: 17105447/0x01050227))
323: 0x0A4D [0x4A] Cyranuce (ID: 17105447/0x01050227) looks at Excenmille (ID: 17105418/0x0105020A)
324: 0x0A56 [0x7B] Cyranuce (ID: 17105447/0x01050227) stops talking
325: 0x0A5B [0x6F] WAIT_FRAME_DELAY: Yield until WaitTime reaches zero
326: 0x0A5C [0x76] CHECK_ENTITY_RENDER_FLAGS: Wait until Cyranuce (ID: 17105447/0x01050227) Render.Flags0 and Render.Flags3 conditions are met
327: 0x0A61 [0x55] WAIT_LOAD_SCHEDULER: Wait for scheduler "s017" with entities [EventEntity, EventEntity], work=360*
328: 0x0A70 [0x45] LOAD_SCHEDULED_TASK: Load scheduler "s019" with entities [EventEntity, EventEntity], work=[360*, 0*]
329: 0x0A81 [0x5B] LOAD_EXT_SCHEDULER: Load scheduler "tla0" with entities [Cyranuce (ID: 17105447/0x01050227), Cyranuce (ID: 17105447/0x01050227)], work=1272*
330: 0x0A90 [0x2B] Cyranuce (ID: 17105447/0x01050227) [13126*]:
     "Captain! You've safely returned!"
331: 0x0A97 [0x23] WAIT_FOR_DIALOG_INTERACTION
332: 0x0A98 [0x5B] LOAD_EXT_SCHEDULER: Load scheduler "tla1" with entities [Cyranuce (ID: 17105447/0x01050227), Cyranuce (ID: 17105447/0x01050227)], work=1272*
333: 0x0AA7 [0x5B] LOAD_EXT_SCHEDULER: Load scheduler "tla0" with entities [Excenmille (ID: 17105418/0x0105020A), Excenmille (ID: 17105418/0x0105020A)], work=1272*
334: 0x0AB6 [0x2B] Excenmille (ID: 17105418/0x0105020A) [13127*]:
     "It would appear I've been missed."
335: 0x0ABD [0x23] WAIT_FOR_DIALOG_INTERACTION
336: 0x0ABE [0x5B] LOAD_EXT_SCHEDULER: Load scheduler "tla1" with entities [Excenmille (ID: 17105418/0x0105020A), Excenmille (ID: 17105418/0x0105020A)], work=1272*
337: 0x0ACD [0x5B] LOAD_EXT_SCHEDULER: Load scheduler "war0" with entities [Machegue (ID: 17105448/0x01050228), Machegue (ID: 17105448/0x01050228)], work=1273*
338: 0x0ADC [0x2B] Machegue (ID: 17105448/0x01050228) [13128*]:
     "Hurrah! The captain has returned from the expedition!"
339: 0x0AE3 [0x23] WAIT_FOR_DIALOG_INTERACTION
340: 0x0AE4 [0x52] END_LOAD_SCHEDULER: End scheduler "s019" with entities [EventEntity, EventEntity], work=360*
341: 0x0AF3 [0x45] LOAD_SCHEDULED_TASK: Load scheduler "s020" with entities [EventEntity, EventEntity], work=[360*, 0*]
