# 17105707

## Common Data

| Field            | Value                            |
|------------------|----------------------------------|
| Zone             | Southern San d'Oria [S] (ID: 80) |
| Block Size       | 7888 bytes                       |
| Total Events     | 4                                |
| References Count | 133                              |

## List of Events

| Event ID              | Entrypoint   |   Size |   Instructions |
|-----------------------|--------------|--------|----------------|
| [65535](#event-65535) | 0x0000       |    658 |             62 |
| [186](#event-186)     | 0x0292       |   4216 |            553 |
| [187](#event-187)     | 0x130A       |   2238 |            283 |
| [188](#event-188)     | 0x1BC8       |    209 |             42 |

## DAT References (imed_data)

|   Index | Hex Value   |   Dec Value |
|---------|-------------|-------------|
|       0 | 0x00C8      |         200 |
|       1 | 0x0000      |           0 |
|       2 | 0x00C9      |         201 |
|       3 | 0x0001      |           1 |
|       4 | 0x002D      |          45 |
|       5 | 0x0002      |           2 |
|       6 | 0x001E      |          30 |
|       7 | 0x00D7      |         215 |
|       8 | 0x012C      |         300 |
|       9 | 0x0093      |         147 |
|      10 | 0xFFFF866B  |  4294936171 |
|      11 | 0x5ACF      |       23247 |
|      12 | 0x01E5      |         485 |
|      13 | 0xFFFFF264  |  4294963812 |
|      14 | 0xACC3      |       44227 |
|      15 | 0xFFFFF831  |  4294965297 |
|      16 | 0x0415      |        1045 |
|      17 | 0x0F8B      |        3979 |
|      18 | 0xADA8      |       44456 |
|      19 | 0x0454      |        1108 |
|      20 | 0xFFFF81FE  |  4294935038 |
|      21 | 0x6936      |       26934 |
|      22 | 0x0254      |         596 |
|      23 | 0x001F      |          31 |
|      24 | 0x007F      |         127 |
|      25 | 0x0381      |         897 |
|      26 | 0x3DBB      |       15803 |
|      27 | 0x3DBC      |       15804 |
|      28 | 0x0007      |           7 |
|      29 | 0x005A      |          90 |
|      30 | 0x3DBD      |       15805 |
|      31 | 0x0003      |           3 |
|      32 | 0x0005      |           5 |
|      33 | 0x0006      |           6 |
|      34 | 0x0008      |           8 |
|      35 | 0x3DBE      |       15806 |
|      36 | 0x3DBF      |       15807 |
|      37 | 0x07D0      |        2000 |
|      38 | 0x3DC0      |       15808 |
|      39 | 0x3DC1      |       15809 |
|      40 | 0x0028      |          40 |
|      41 | 0x0004      |           4 |
|      42 | 0x3DC2      |       15810 |
|      43 | 0x3DC3      |       15811 |
|      44 | 0x3DC4      |       15812 |
|      45 | 0x3DC5      |       15813 |
|      46 | 0x3DC6      |       15814 |
|      47 | 0x3DC7      |       15815 |
|      48 | 0x3DC8      |       15816 |
|      49 | 0x3DC9      |       15817 |
|      50 | 0x3DCA      |       15818 |
|      51 | 0x0054      |          84 |
|      52 | 0x0012      |          18 |
|      53 | 0xFFFD412D  |  4294787373 |
|      54 | 0x10336     |       66358 |
|      55 | 0xFFFFD243  |  4294955587 |
|      56 | 0x05E2      |        1506 |
|      57 | 0x3DCB      |       15819 |
|      58 | 0x3DCC      |       15820 |
|      59 | 0x3DCD      |       15821 |
|      60 | 0x3DCE      |       15822 |
|      61 | 0x00AF      |         175 |
|      62 | 0xFFFC246C  |  4294714476 |
|      63 | 0x1A993     |      108947 |
|      64 | 0x01F1      |         497 |
|      65 | 0x0EE4      |        3812 |
|      66 | 0xFFFFFBB4  |  4294966196 |
|      67 | 0x3DCF      |       15823 |
|      68 | 0x3DD0      |       15824 |
|      69 | 0x0050      |          80 |
|      70 | 0x000F      |          15 |
|      71 | 0xFFFF8234  |  4294935092 |
|      72 | 0x5C21      |       23585 |
|      73 | 0x046C      |        1132 |
|      74 | 0xFFFF8172  |  4294934898 |
|      75 | 0x63C2      |       25538 |
|      76 | 0x044C      |        1100 |
|      77 | 0x3DD1      |       15825 |
|      78 | 0x3DD2      |       15826 |
|      79 | 0x3DD3      |       15827 |
|      80 | 0x3DD4      |       15828 |
|      81 | 0x3DD5      |       15829 |
|      82 | 0x3DD6      |       15830 |
|      83 | 0x3DD7      |       15831 |
|      84 | 0x3DD8      |       15832 |
|      85 | 0x3DD9      |       15833 |
|      86 | 0x3DDA      |       15834 |
|      87 | 0x3DDB      |       15835 |
|      88 | 0x3DDC      |       15836 |
|      89 | 0x3DDD      |       15837 |
|      90 | 0x3DDE      |       15838 |
|      91 | 0x3DDF      |       15839 |
|      92 | 0x3DE0      |       15840 |
|      93 | 0x3DE1      |       15841 |
|      94 | 0x00FE      |         254 |
|      95 | 0xFFFF8006  |  4294934534 |
|      96 | 0x65F4      |       26100 |
|      97 | 0x0243      |         579 |
|      98 | 0x0255      |         597 |
|      99 | 0x0019      |          25 |
|     100 | 0x3DE7      |       15847 |
|     101 | 0x3DE8      |       15848 |
|     102 | 0x3DE9      |       15849 |
|     103 | 0x3DEA      |       15850 |
|     104 | 0x3DEB      |       15851 |
|     105 | 0x3DEC      |       15852 |
|     106 | 0x3DED      |       15853 |
|     107 | 0x3DEE      |       15854 |
|     108 | 0x3DEF      |       15855 |
|     109 | 0x3DF0      |       15856 |
|     110 | 0x3DF1      |       15857 |
|     111 | 0x3DF2      |       15858 |
|     112 | 0x3DF3      |       15859 |
|     113 | 0x3DF4      |       15860 |
|     114 | 0x3DF5      |       15861 |
|     115 | 0x3DF6      |       15862 |
|     116 | 0x3DF7      |       15863 |
|     117 | 0x3DF8      |       15864 |
|     118 | 0x3DF9      |       15865 |
|     119 | 0x01FA      |         506 |
|     120 | 0x01F2      |         498 |
|     121 | 0x3DE2      |       15842 |
|     122 | 0x3DE3      |       15843 |
|     123 | 0x3DE4      |       15844 |
|     124 | 0x01F4      |         500 |
|     125 | 0x01F6      |         502 |
|     126 | 0x3DE5      |       15845 |
|     127 | 0x3DE6      |       15846 |
|     128 | 0x3DFA      |       15866 |
|     129 | 0x01FC      |         508 |
|     130 | 0x3DFB      |       15867 |
|     131 | 0x3DFC      |       15868 |
|     132 | 0x3DFD      |       15869 |

## String References

- **15807**: Accept Valaineral's request? [Of course./Sorry, I'm busy.]
- **15831**: Inquire about what? [Who is Noillurie?/I just need to watch it?/Where will you be?]

## Events

### Event 65535

#### Metadata

| Field        | Value     |
|--------------|-----------|
| Entrypoint   | 0x0000    |
| Data Size    | 658 bytes |
| Instructions | 1         |

```
      00 01 02 03 04 05 06 07  08 09 0A 0B 0C 0D 0E 0F
      -- -- -- -- -- -- -- --  -- -- -- -- -- -- -- --
0000: 00 45 00 80 F0 FF FF 7F  F0 FF FF 7F 66 64 69 30  .E..........fdi0
0010: 01 80 55 00 80 F0 FF FF  7F F0 FF FF 7F 66 64 69  ..U..........fdi
0020: 30 1B 45 00 80 F0 FF FF  7F F0 FF FF 7F 66 64 6F  0.E..........fdo
0030: 30 01 80 55 00 80 F0 FF  FF 7F F0 FF FF 7F 66 64  0..U..........fd
0040: 6F 30 1B 45 00 80 F0 FF  FF 7F F0 FF FF 7F 66 64  o0.E..........fd
0050: 69 31 01 80 55 00 80 F0  FF FF 7F F0 FF FF 7F 66  i1..U..........f
0060: 64 69 31 1B 45 00 80 F0  FF FF 7F F0 FF FF 7F 66  di1.E..........f
0070: 64 6F 31 01 80 55 00 80  F0 FF FF 7F F0 FF FF 7F  do1..U..........
0080: 66 64 6F 31 1B 45 02 80  F0 FF FF 7F F0 FF FF 7F  fdo1.E..........
0090: 77 68 69 31 01 80 55 02  80 F0 FF FF 7F F0 FF FF  whi1..U.........
00A0: 7F 77 68 69 31 1B 45 02  80 F0 FF FF 7F F0 FF FF  .whi1.E.........
00B0: 7F 77 68 6F 31 01 80 55  02 80 F0 FF FF 7F F0 FF  .who1..U........
00C0: FF 7F 77 68 6F 31 1B 45  02 80 F0 FF FF 7F F0 FF  ..who1.E........
00D0: FF 7F 77 68 6F 32 01 80  55 02 80 F0 FF FF 7F F0  ..who2..U.......
00E0: FF FF 7F 77 68 6F 32 1B  45 02 80 F0 FF FF 7F F0  ...who2.E.......
00F0: FF FF 7F 77 68 6F 33 01  80 55 02 80 F0 FF FF 7F  ...who3..U......
0100: F0 FF FF 7F 77 68 6F 33  1B 62 03 80 F0 FF FF 7F  ....who3.b......
0110: F0 FF FF 7F 6D 61 69 6E  01 80 1C 04 80 45 00 80  ....main.....E..
0120: F0 FF FF 7F F0 FF FF 7F  66 64 6F 31 01 80 55 00  ........fdo1..U.
0130: 80 F0 FF FF 7F F0 FF FF  7F 66 64 6F 31 1B 45 00  .........fdo1.E.
0140: 80 F0 FF FF 7F F0 FF FF  7F 66 64 69 31 01 80 62  .........fdi1..b
0150: 05 80 F0 FF FF 7F F0 FF  FF 7F 6D 61 69 6E 01 80  ..........main..
0160: 1C 06 80 55 00 80 F0 FF  FF 7F F0 FF FF 7F 66 64  ...U..........fd
0170: 69 31 1B 45 00 80 F0 FF  FF 7F F0 FF FF 7F 62 6C  i1.E..........bl
0180: 6F 6E 01 80 45 02 80 F0  FF FF 7F F0 FF FF 7F 62  on..E..........b
0190: 6C 6F 6E 01 80 1B 45 02  80 F0 FF FF 7F F0 FF FF  lon...E.........
01A0: 7F 77 68 69 30 01 80 55  02 80 F0 FF FF 7F F0 FF  .whi0..U........
01B0: FF 7F 77 68 69 30 1B 45  02 80 F0 FF FF 7F F0 FF  ..whi0.E........
01C0: FF 7F 77 68 6F 30 01 80  55 02 80 F0 FF FF 7F F0  ..who0..U.......
01D0: FF FF 7F 77 68 6F 30 1B  45 07 80 F0 FF FF 7F F0  ...who0.E.......
01E0: FF FF 7F 65 66 6F 6E 01  80 55 07 80 F0 FF FF 7F  ...efon..U......
01F0: F0 FF FF 7F 65 66 6F 6E  1B 45 00 80 F0 FF FF 7F  ....efon.E......
0200: F0 FF FF 7F 66 64 69 73  01 80 1B 45 00 80 F0 FF  ....fdis...E....
0210: FF 7F F0 FF FF 7F 66 64  6F 73 01 80 55 00 80 F0  ......fdos..U...
0220: FF FF 7F F0 FF FF 7F 66  64 6F 73 1B 45 00 80 F0  .......fdos.E...
0230: FF FF 7F F0 FF FF 7F 66  64 69 66 01 80 1B 45 00  .......fdif...E.
0240: 80 F0 FF FF 7F F0 FF FF  7F 66 64 6F 66 01 80 55  .........fdof..U
0250: 00 80 F0 FF FF 7F F0 FF  FF 7F 66 64 6F 66 1B 45  ..........fdof.E
0260: 00 80 F0 FF FF 7F F0 FF  FF 7F 66 64 69 70 01 80  ..........fdip..
0270: 1B 45 00 80 F0 FF FF 7F  F0 FF FF 7F 66 64 6F 70  .E..........fdop
0280: 01 80 55 00 80 F0 FF FF  7F F0 FF FF 7F 66 64 6F  ..U..........fdo
0290: 70 1B                                             p.              
```

#### Opcodes

```
  0: 0x0000 [0x00] END_REQSTACK()
```

#### Data or dead code:

```
# Dead code (unreachable instructions):
     0x0001 [0x45] LOAD_SCHEDULED_TASK: Load scheduler "fdi0" with entities [LocalPlayer, LocalPlayer], work=[200*, 0*]
     0x0012 [0x55] WAIT_LOAD_SCHEDULER: Wait for scheduler "fdi0" with entities [LocalPlayer, LocalPlayer], work=200*
     0x0021 [0x1B] RETURN
     0x0022 [0x45] LOAD_SCHEDULED_TASK: Load scheduler "fdo0" with entities [LocalPlayer, LocalPlayer], work=[200*, 0*]
     0x0033 [0x55] WAIT_LOAD_SCHEDULER: Wait for scheduler "fdo0" with entities [LocalPlayer, LocalPlayer], work=200*
     0x0042 [0x1B] RETURN
     0x0043 [0x45] LOAD_SCHEDULED_TASK: Load scheduler "fdi1" with entities [LocalPlayer, LocalPlayer], work=[200*, 0*]
     0x0054 [0x55] WAIT_LOAD_SCHEDULER: Wait for scheduler "fdi1" with entities [LocalPlayer, LocalPlayer], work=200*
     0x0063 [0x1B] RETURN
     0x0064 [0x45] LOAD_SCHEDULED_TASK: Load scheduler "fdo1" with entities [LocalPlayer, LocalPlayer], work=[200*, 0*]
     0x0075 [0x55] WAIT_LOAD_SCHEDULER: Wait for scheduler "fdo1" with entities [LocalPlayer, LocalPlayer], work=200*
     0x0084 [0x1B] RETURN
     0x0085 [0x45] LOAD_SCHEDULED_TASK: Load scheduler "whi1" with entities [LocalPlayer, LocalPlayer], work=[201*, 0*]
     0x0096 [0x55] WAIT_LOAD_SCHEDULER: Wait for scheduler "whi1" with entities [LocalPlayer, LocalPlayer], work=201*
     0x00A5 [0x1B] RETURN
     0x00A6 [0x45] LOAD_SCHEDULED_TASK: Load scheduler "who1" with entities [LocalPlayer, LocalPlayer], work=[201*, 0*]
     0x00B7 [0x55] WAIT_LOAD_SCHEDULER: Wait for scheduler "who1" with entities [LocalPlayer, LocalPlayer], work=201*
     0x00C6 [0x1B] RETURN
     0x00C7 [0x45] LOAD_SCHEDULED_TASK: Load scheduler "who2" with entities [LocalPlayer, LocalPlayer], work=[201*, 0*]
     0x00D8 [0x55] WAIT_LOAD_SCHEDULER: Wait for scheduler "who2" with entities [LocalPlayer, LocalPlayer], work=201*
     0x00E7 [0x1B] RETURN
     0x00E8 [0x45] LOAD_SCHEDULED_TASK: Load scheduler "who3" with entities [LocalPlayer, LocalPlayer], work=[201*, 0*]
     0x00F9 [0x55] WAIT_LOAD_SCHEDULER: Wait for scheduler "who3" with entities [LocalPlayer, LocalPlayer], work=201*
     0x0108 [0x1B] RETURN
     0x0109 [0x62] LOAD_EVENT_SCHEDULER: Load scheduler "main" with entities [LocalPlayer, LocalPlayer], work=[1*, 0*]
     0x011A [0x1C] WAIT(45* ticks)
     0x011D [0x45] LOAD_SCHEDULED_TASK: Load scheduler "fdo1" with entities [LocalPlayer, LocalPlayer], work=[200*, 0*]
     0x012E [0x55] WAIT_LOAD_SCHEDULER: Wait for scheduler "fdo1" with entities [LocalPlayer, LocalPlayer], work=200*
     0x013D [0x1B] RETURN
     0x013E [0x45] LOAD_SCHEDULED_TASK: Load scheduler "fdi1" with entities [LocalPlayer, LocalPlayer], work=[200*, 0*]
     0x014F [0x62] LOAD_EVENT_SCHEDULER: Load scheduler "main" with entities [LocalPlayer, LocalPlayer], work=[2*, 0*]
     0x0160 [0x1C] WAIT(30* ticks)
     0x0163 [0x55] WAIT_LOAD_SCHEDULER: Wait for scheduler "fdi1" with entities [LocalPlayer, LocalPlayer], work=200*
     0x0172 [0x1B] RETURN
     0x0173 [0x45] LOAD_SCHEDULED_TASK: Load scheduler "blon" with entities [LocalPlayer, LocalPlayer], work=[200*, 0*]
     0x0184 [0x45] LOAD_SCHEDULED_TASK: Load scheduler "blon" with entities [LocalPlayer, LocalPlayer], work=[201*, 0*]
     0x0195 [0x1B] RETURN
     0x0196 [0x45] LOAD_SCHEDULED_TASK: Load scheduler "whi0" with entities [LocalPlayer, LocalPlayer], work=[201*, 0*]
     0x01A7 [0x55] WAIT_LOAD_SCHEDULER: Wait for scheduler "whi0" with entities [LocalPlayer, LocalPlayer], work=201*
     0x01B6 [0x1B] RETURN
     0x01B7 [0x45] LOAD_SCHEDULED_TASK: Load scheduler "who0" with entities [LocalPlayer, LocalPlayer], work=[201*, 0*]
     0x01C8 [0x55] WAIT_LOAD_SCHEDULER: Wait for scheduler "who0" with entities [LocalPlayer, LocalPlayer], work=201*
     0x01D7 [0x1B] RETURN
     0x01D8 [0x45] LOAD_SCHEDULED_TASK: Load scheduler "efon" with entities [LocalPlayer, LocalPlayer], work=[215*, 0*]
     0x01E9 [0x55] WAIT_LOAD_SCHEDULER: Wait for scheduler "efon" with entities [LocalPlayer, LocalPlayer], work=215*
     0x01F8 [0x1B] RETURN
     0x01F9 [0x45] LOAD_SCHEDULED_TASK: Load scheduler "fdis" with entities [LocalPlayer, LocalPlayer], work=[200*, 0*]
     0x020A [0x1B] RETURN
     0x020B [0x45] LOAD_SCHEDULED_TASK: Load scheduler "fdos" with entities [LocalPlayer, LocalPlayer], work=[200*, 0*]
     0x021C [0x55] WAIT_LOAD_SCHEDULER: Wait for scheduler "fdos" with entities [LocalPlayer, LocalPlayer], work=200*
     0x022B [0x1B] RETURN
     0x022C [0x45] LOAD_SCHEDULED_TASK: Load scheduler "fdif" with entities [LocalPlayer, LocalPlayer], work=[200*, 0*]
     0x023D [0x1B] RETURN
     0x023E [0x45] LOAD_SCHEDULED_TASK: Load scheduler "fdof" with entities [LocalPlayer, LocalPlayer], work=[200*, 0*]
     0x024F [0x55] WAIT_LOAD_SCHEDULER: Wait for scheduler "fdof" with entities [LocalPlayer, LocalPlayer], work=200*
     0x025E [0x1B] RETURN
     0x025F [0x45] LOAD_SCHEDULED_TASK: Load scheduler "fdip" with entities [LocalPlayer, LocalPlayer], work=[200*, 0*]
     0x0270 [0x1B] RETURN
     0x0271 [0x45] LOAD_SCHEDULED_TASK: Load scheduler "fdop" with entities [LocalPlayer, LocalPlayer], work=[200*, 0*]
     0x0282 [0x55] WAIT_LOAD_SCHEDULER: Wait for scheduler "fdop" with entities [LocalPlayer, LocalPlayer], work=200*
     0x0291 [0x1B] RETURN
```

### Event 186

#### Metadata

| Field        | Value      |
|--------------|------------|
| Entrypoint   | 0x0292     |
| Data Size    | 4216 bytes |
| Instructions | 552        |

```
      00 01 02 03 04 05 06 07  08 09 0A 0B 0C 0D 0E 0F
      -- -- -- -- -- -- -- --  -- -- -- -- -- -- -- --
0290:       42 03 01 00 03 10  03 02 00 01 80 5D 01 80    B..........]..
02A0: 08 80 1A 64 00 46 01 38  09 80 4E 00 8A 01 05 01  ...d.F.8..N.....
02B0: 4E 00 EE 01 05 01 4E 00  EF 01 05 01 92 01 8A 01  N.....N.........
02C0: 05 01 92 01 EE 01 05 01  92 01 EF 01 05 01 94 01  ................
02D0: 8A 01 05 01 94 01 EE 01  05 01 94 01 EF 01 05 01  ................
02E0: 94 01 F0 FF FF 7F BA 8A  01 05 01 0A 80 0B 80 01  ................
02F0: 80 0C 80 BA EE 01 05 01  0D 80 0E 80 0F 80 10 80  ................
0300: BA EF 01 05 01 11 80 12  80 0F 80 13 80 BA F0 FF  ................
0310: FF 7F 14 80 15 80 01 80  16 80 80 8A 01 05 01 80  ................
0320: EE 01 05 01 80 EF 01 05  01 80 F0 FF FF 7F 29 0F  ..............).
0330: F0 FF FF 7F 31 5C 00 17  80 5C 01 17 80 9A 5D 18  ....1\...\....].
0340: 80 03 80 02 02 00 05 80  03 35 0C 4A F0 FF FF 7F  .........5.J....
0350: 8A 01 05 01 7B 8A 01 05  01 29 0F 8A 01 05 01 01  ....{....)......
0360: 29 0F 8A 01 05 01 02 6F  76 F0 FF FF 7F 27 0F F0  )......ov....'..
0370: FF FF 7F 32 45 19 80 F8  FF FF 7F F8 FF FF 7F 73  ...2E..........s
0380: 30 32 34 01 80 1A 43 00  2B 8A 01 05 01 1A 80 1C  024...C.+.......
0390: 06 80 23 29 0F 8A 01 05  01 03 52 19 80 F8 FF FF  ..#)......R.....
03A0: 7F F8 FF FF 7F 73 30 32  34 45 19 80 F8 FF FF 7F  .....s024E......
03B0: F8 FF FF 7F 73 30 32 33  01 80 29 0F 8A 01 05 01  ....s023..).....
03C0: 04 4A 8A 01 05 01 F0 FF  FF 7F 6F 76 8A 01 05 01  .J........ov....
03D0: 2A 0F F0 FF FF 7F 03 02  10 01 00 0C 02 10 02 02  *...............
03E0: 10 01 80 03 EE 03 03 02  10 01 80 01 FB 03 02 02  ................
03F0: 10 05 80 02 FB 03 03 02  10 01 80 29 0F 8A 01 05  ...........)....
0400: 01 0F 2B 8A 01 05 01 1B  80 23 6E F0 FF FF 7F 1C  ..+......#n.....
0410: 80 99 F0 FF FF 7F 29 0F  8A 01 05 01 10 29 0F 8A  ......)......)..
0420: 01 05 01 11 1C 1D 80 29  0F 8A 01 05 01 12 52 19  .......)......R.
0430: 80 F8 FF FF 7F F8 FF FF  7F 73 30 32 33 45 19 80  .........s023E..
0440: F8 FF FF 7F F8 FF FF 7F  73 30 32 35 01 80 27 0F  ........s025..'.
0450: 8A 01 05 01 14 2A 0F 8A  01 05 01 2B 8A 01 05 01  .....*.....+....
0460: 1E 80 23 52 19 80 F8 FF  FF 7F F8 FF FF 7F 73 30  ..#R..........s0
0470: 32 35 02 09 10 1F 80 00  8E 04 45 19 80 F8 FF FF  25........E.....
0480: 7F F8 FF FF 7F 73 30 32  36 01 80 01 F3 04 02 09  .....s026.......
0490: 10 20 80 00 AA 04 45 19  80 F8 FF FF 7F F8 FF FF  . ....E.........
04A0: 7F 73 30 34 34 01 80 01  F3 04 02 09 10 21 80 00  .s044........!..
04B0: C6 04 45 19 80 F8 FF FF  7F F8 FF FF 7F 73 30 34  ..E..........s04
04C0: 34 01 80 01 F3 04 02 09  10 22 80 00 E2 04 45 19  4........"....E.
04D0: 80 F8 FF FF 7F F8 FF FF  7F 73 30 32 36 01 80 01  .........s026...
04E0: F3 04 45 19 80 F8 FF FF  7F F8 FF FF 7F 73 30 35  ..E..........s05
04F0: 33 01 80 29 0F 8A 01 05  01 05 2B 8A 01 05 01 23  3..)......+....#
0500: 80 23 29 0F 8A 01 05 01  06 29 0F 8A 01 05 01 07  .#)......)......
0510: 24 24 80 01 80 01 80 25  02 00 10 01 80 00 A9 05  $$.....%........
0520: 6E F0 FF FF 7F 1C 80 99  F0 FF FF 7F 1C 1D 80 02  n...............
0530: 09 10 1F 80 00 49 05 52  19 80 F8 FF FF 7F F8 FF  .....I.R........
0540: FF 7F 73 30 32 36 01 A6  05 02 09 10 20 80 00 63  ..s026...... ..c
0550: 05 52 19 80 F8 FF FF 7F  F8 FF FF 7F 73 30 34 34  .R..........s044
0560: 01 A6 05 02 09 10 21 80  00 7D 05 52 19 80 F8 FF  ......!..}.R....
0570: FF 7F F8 FF FF 7F 73 30  34 34 01 A6 05 02 09 10  ......s044......
0580: 22 80 00 97 05 52 19 80  F8 FF FF 7F F8 FF FF 7F  "....R..........
0590: 73 30 32 36 01 A6 05 52  19 80 F8 FF FF 7F F8 FF  s026...R........
05A0: FF 7F 73 30 35 33 01 84  06 02 00 10 03 80 00 84  ..s053..........
05B0: 06 6E F0 FF FF 7F 21 80  99 F0 FF FF 7F 1C 1D 80  .n....!.........
05C0: 02 09 10 1F 80 00 DA 05  52 19 80 F8 FF FF 7F F8  ........R.......
05D0: FF FF 7F 73 30 32 36 01  37 06 02 09 10 20 80 00  ...s026.7.... ..
05E0: F4 05 52 19 80 F8 FF FF  7F F8 FF FF 7F 73 30 34  ..R..........s04
05F0: 34 01 37 06 02 09 10 21  80 00 0E 06 52 19 80 F8  4.7....!....R...
0600: FF FF 7F F8 FF FF 7F 73  30 34 34 01 37 06 02 09  .......s044.7...
0610: 10 22 80 00 28 06 52 19  80 F8 FF FF 7F F8 FF FF  ."..(.R.........
0620: 7F 73 30 32 36 01 37 06  52 19 80 F8 FF FF 7F F8  .s026.7.R.......
0630: FF FF 7F 73 30 35 33 45  19 80 F8 FF FF 7F F8 FF  ...s053E........
0640: FF 7F 73 30 32 35 01 80  4B 8A 01 05 01 25 80 6F  ..s025..K....%.o
0650: 76 8A 01 05 01 27 0F 8A  01 05 01 15 2B 8A 01 05  v....'......+...
0660: 01 26 80 23 2A 0F 8A 01  05 01 52 19 80 F8 FF FF  .&.#*.....R.....
0670: 7F F8 FF FF 7F 73 30 32  35 03 01 10 03 80 01 92  .....s025.......
0680: 12 01 84 06 02 09 10 20  80 00 A0 06 45 19 80 F8  ....... ....E...
0690: FF FF 7F F8 FF FF 7F 73  30 34 35 01 80 01 CD 06  .......s045.....
06A0: 02 09 10 21 80 00 BC 06  45 19 80 F8 FF FF 7F F8  ...!....E.......
06B0: FF FF 7F 73 30 34 35 01  80 01 CD 06 45 19 80 F8  ...s045.....E...
06C0: FF FF 7F F8 FF FF 7F 73  30 32 37 01 80 7B 8A 01  .......s027..{..
06D0: 05 01 27 0F 8A 01 05 01  28 2B 8A 01 05 01 27 80  ..'.....(+....'.
06E0: 1C 28 80 4A F0 FF FF 7F  8A 01 05 01 6F 76 F0 FF  .(.J........ov..
06F0: FF 7F 23 2A 0F 8A 01 05  01 4A 8A 01 05 01 F0 FF  ..#*.....J......
0700: FF 7F 6F 76 8A 01 05 01  02 09 10 20 80 00 22 07  ..ov....... ..".
0710: 52 19 80 F8 FF FF 7F F8  FF FF 7F 73 30 34 35 01  R..........s045.
0720: 4B 07 02 09 10 21 80 00  3C 07 52 19 80 F8 FF FF  K....!..<.R.....
0730: 7F F8 FF FF 7F 73 30 34  35 01 4B 07 52 19 80 F8  .....s045.K.R...
0740: FF FF 7F F8 FF FF 7F 73  30 32 37 02 09 10 1F 80  .......s027.....
0750: 00 67 07 45 19 80 F8 FF  FF 7F F8 FF FF 7F 73 30  .g.E..........s0
0760: 32 38 01 80 01 E8 07 02  09 10 29 80 00 83 07 45  28........)....E
0770: 19 80 F8 FF FF 7F F8 FF  FF 7F 73 30 32 38 01 80  ..........s028..
0780: 01 E8 07 02 09 10 20 80  00 9F 07 45 19 80 F8 FF  ...... ....E....
0790: FF 7F F8 FF FF 7F 73 30  34 36 01 80 01 E8 07 02  ......s046......
07A0: 09 10 21 80 00 BB 07 45  19 80 F8 FF FF 7F F8 FF  ..!....E........
07B0: FF 7F 73 30 34 36 01 80  01 E8 07 02 09 10 22 80  ..s046........".
07C0: 00 D7 07 45 19 80 F8 FF  FF 7F F8 FF FF 7F 73 30  ...E..........s0
07D0: 32 38 01 80 01 E8 07 45  19 80 F8 FF FF 7F F8 FF  28.....E........
07E0: FF 7F 73 30 35 34 01 80  29 0F 8A 01 05 01 0F 2B  ..s054..)......+
07F0: 8A 01 05 01 2A 80 23 2B  8A 01 05 01 2B 80 23 29  ....*.#+....+.#)
0800: 0F 8A 01 05 01 10 02 09  10 1F 80 00 20 08 52 19  ............ .R.
0810: 80 F8 FF FF 7F F8 FF FF  7F 73 30 32 38 01 97 08  .........s028...
0820: 02 09 10 29 80 00 3A 08  52 19 80 F8 FF FF 7F F8  ...)..:.R.......
0830: FF FF 7F 73 30 32 38 01  97 08 02 09 10 20 80 00  ...s028...... ..
0840: 54 08 52 19 80 F8 FF FF  7F F8 FF FF 7F 73 30 34  T.R..........s04
0850: 36 01 97 08 02 09 10 21  80 00 6E 08 52 19 80 F8  6......!..n.R...
0860: FF FF 7F F8 FF FF 7F 73  30 34 36 01 97 08 02 09  .......s046.....
0870: 10 22 80 00 88 08 52 19  80 F8 FF FF 7F F8 FF FF  ."....R.........
0880: 7F 73 30 32 38 01 97 08  52 19 80 F8 FF FF 7F F8  .s028...R.......
0890: FF FF 7F 73 30 35 34 45  19 80 F8 FF FF 7F F8 FF  ...s054E........
08A0: FF 7F 73 30 32 39 01 80  29 0F 8A 01 05 01 11 4A  ..s029..)......J
08B0: F0 FF FF 7F 8A 01 05 01  2B 8A 01 05 01 2C 80 23  ........+....,.#
08C0: 6F 76 F0 FF FF 7F 29 0F  8A 01 05 01 12 52 19 80  ov....)......R..
08D0: F8 FF FF 7F F8 FF FF 7F  73 30 32 39 02 09 10 20  ........s029... 
08E0: 80 00 F8 08 45 19 80 F8  FF FF 7F F8 FF FF 7F 73  ....E..........s
08F0: 30 34 37 01 80 01 25 09  02 09 10 21 80 00 14 09  047...%....!....
0900: 45 19 80 F8 FF FF 7F F8  FF FF 7F 73 30 34 37 01  E..........s047.
0910: 80 01 25 09 45 19 80 F8  FF FF 7F F8 FF FF 7F 73  ..%.E..........s
0920: 30 33 30 01 80 7B 8A 01  05 01 29 0F 8A 01 05 01  030..{....).....
0930: 01 2B 8A 01 05 01 2D 80  23 29 0F 8A 01 05 01 02  .+....-.#)......
0940: 2B 8A 01 05 01 2E 80 23  02 09 10 20 80 00 62 09  +......#... ..b.
0950: 52 19 80 F8 FF FF 7F F8  FF FF 7F 73 30 34 37 01  R..........s047.
0960: 8B 09 02 09 10 21 80 00  7C 09 52 19 80 F8 FF FF  .....!..|.R.....
0970: 7F F8 FF FF 7F 73 30 34  37 01 8B 09 52 19 80 F8  .....s047...R...
0980: FF FF 7F F8 FF FF 7F 73  30 33 30 45 19 80 F8 FF  .......s030E....
0990: FF 7F F8 FF FF 7F 73 30  33 31 01 80 79 00 8A 01  ......s031..y...
09A0: 05 01 F0 FF FF 7F 29 0F  8A 01 05 01 03 2B 8A 01  ......)......+..
09B0: 05 01 2F 80 23 29 0F 8A  01 05 01 04 52 19 80 F8  ../.#)......R...
09C0: FF FF 7F F8 FF FF 7F 73  30 33 31 45 19 80 F8 FF  .......s031E....
09D0: FF 7F F8 FF FF 7F 73 30  33 36 01 80 29 0F 8A 01  ......s036..)...
09E0: 05 01 0F 2B 8A 01 05 01  30 80 23 29 0F 8A 01 05  ...+....0.#)....
09F0: 01 10 52 19 80 F8 FF FF  7F F8 FF FF 7F 73 30 33  ..R..........s03
0A00: 36 02 09 10 20 80 00 1D  0A 45 19 80 F8 FF FF 7F  6... ....E......
0A10: F8 FF FF 7F 73 30 34 38  01 80 01 4A 0A 02 09 10  ....s048...J....
0A20: 21 80 00 39 0A 45 19 80  F8 FF FF 7F F8 FF FF 7F  !..9.E..........
0A30: 73 30 34 38 01 80 01 4A  0A 45 19 80 F8 FF FF 7F  s048...J.E......
0A40: F8 FF FF 7F 73 30 33 32  01 80 2B 8A 01 05 01 31  ....s032..+....1
0A50: 80 29 0F 8A 01 05 01 11  29 0F 8A 01 05 01 12 7B  .)......)......{
0A60: 8A 01 05 01 27 0F 8A 01  05 01 29 23 2A 0F 8A 01  ....'.....)#*...
0A70: 05 01 79 00 8A 01 05 01  F0 FF FF 7F 2B 8A 01 05  ..y.........+...
0A80: 01 32 80 23 5D 06 80 08  80 1A 64 00 29 0F 8A 01  .2.#].....d.)...
0A90: 05 01 12 02 09 10 20 80  00 AD 0A 52 19 80 F8 FF  ...... ....R....
0AA0: FF 7F F8 FF FF 7F 73 30  34 38 01 D6 0A 02 09 10  ......s048......
0AB0: 21 80 00 C7 0A 52 19 80  F8 FF FF 7F F8 FF FF 7F  !....R..........
0AC0: 73 30 34 38 01 D6 0A 52  19 80 F8 FF FF 7F F8 FF  s048...R........
0AD0: FF 7F 73 30 33 32 02 02  00 01 80 00 0F 0B 34 33  ..s032........43
0AE0: 80 77 34 80 05 80 22 00  1C 06 80 2F 00 2D 03 05  .w4..."..../.-..
0AF0: 01 4E 00 2D 03 05 01 80  2D 03 05 01 94 01 2D 03  .N.-....-.....-.
0B00: 05 01 BA 2D 03 05 01 35  80 36 80 37 80 38 80 45  ...-...5.6.7.8.E
0B10: 19 80 F8 FF FF 7F F8 FF  FF 7F 73 30 33 33 01 80  ..........s033..
0B20: 1A 43 00 2B 8A 01 05 01  39 80 23 2B 8A 01 05 01  .C.+....9.#+....
0B30: 3A 80 23 52 19 80 F8 FF  FF 7F F8 FF FF 7F 73 30  :.#R..........s0
0B40: 33 33 45 19 80 F8 FF FF  7F F8 FF FF 7F 73 30 33  33E..........s03
0B50: 35 01 80 2B 8A 01 05 01  3B 80 23 2B 8A 01 05 01  5..+....;.#+....
0B60: 3C 80 23 1A 64 00 52 19  80 F8 FF FF 7F F8 FF FF  <.#.d.R.........
0B70: 7F 73 30 33 35 02 02 00  01 80 00 8A 0B 34 3D 80  .s035........4=.
0B80: 77 34 80 05 80 22 00 1C  06 80 2F 00 2C 03 05 01  w4..."..../.,...
0B90: 4E 00 2C 03 05 01 80 2C  03 05 01 94 01 2C 03 05  N.,....,.....,..
0BA0: 01 59 05 2C 03 05 01 01  BA 2C 03 05 01 3E 80 3F  .Y.,.....,...>.?
0BB0: 80 40 80 41 80 D8 01 2C  03 05 01 01 80 D8 02 2C  .@.A...,.......,
0BC0: 03 05 01 01 80 D8 03 2C  03 05 01 42 80 45 19 80  .......,...B.E..
0BD0: F8 FF FF 7F F8 FF FF 7F  73 30 33 34 01 80 1A D8  ........s034....
0BE0: 01 2B 8A 01 05 01 43 80  23 52 19 80 F8 FF FF 7F  .+....C.#R......
0BF0: F8 FF FF 7F 73 30 33 34  45 19 80 F8 FF FF 7F F8  ....s034E.......
0C00: FF FF 7F 73 30 34 30 01  80 2B 8A 01 05 01 44 80  ...s040..+....D.
0C10: 23 1A 64 00 52 19 80 F8  FF FF 7F F8 FF FF 7F 73  #.d.R..........s
0C20: 30 34 30 02 02 00 01 80  00 32 0C 35 45 80 78 1C  040......2.5E.x.
0C30: 46 80 01 4F 0C BA 8A 01  05 01 47 80 48 80 01 80  F..O......G.H...
0C40: 49 80 BA F0 FF FF 7F 4A  80 4B 80 01 80 16 80 22  I......J.K....."
0C50: 00 4E 00 8A 01 05 01 4E  00 F0 FF FF 7F 80 8A 01  .N.....N........
0C60: 05 01 80 F0 FF FF 7F 02  09 10 20 80 00 83 0C 4B  .......... ....K
0C70: F0 FF FF 7F 4C 80 79 00  F0 FF FF 7F 8A 01 05 01  ....L.y.........
0C80: 01 A8 0C 02 09 10 21 80  00 9F 0C 4B F0 FF FF 7F  ......!....K....
0C90: 4C 80 79 00 F0 FF FF 7F  8A 01 05 01 01 A8 0C 4A  L.y............J
0CA0: F0 FF FF 7F 8A 01 05 01  4A 8A 01 05 01 F0 FF FF  ........J.......
0CB0: 7F 6F 76 F0 FF FF 7F 6F  76 8A 01 05 01 7B 8A 01  .ov....ov....{..
0CC0: 05 01 29 0F 8A 01 05 01  0F 5D 18 80 08 80 45 19  ..)......]....E.
0CD0: 80 F8 FF FF 7F F8 FF FF  7F 73 30 33 38 01 80 1A  .........s038...
0CE0: 43 00 29 0F 8A 01 05 01  11 2B 8A 01 05 01 4D 80  C.)......+....M.
0CF0: 23 2B 8A 01 05 01 4E 80  23 52 19 80 F8 FF FF 7F  #+....N.#R......
0D00: F8 FF FF 7F 73 30 33 38  02 09 10 1F 80 00 24 0D  ....s038......$.
0D10: 45 19 80 F8 FF FF 7F F8  FF FF 7F 73 30 34 32 01  E..........s042.
0D20: 80 01 89 0D 02 09 10 20  80 00 40 0D 45 19 80 F8  ....... ..@.E...
0D30: FF FF 7F F8 FF FF 7F 73  30 34 39 01 80 01 89 0D  .......s049.....
0D40: 02 09 10 21 80 00 5C 0D  45 19 80 F8 FF FF 7F F8  ...!..\.E.......
0D50: FF FF 7F 73 30 34 39 01  80 01 89 0D 02 09 10 22  ...s049........"
0D60: 80 00 78 0D 45 19 80 F8  FF FF 7F F8 FF FF 7F 73  ..x.E..........s
0D70: 30 34 32 01 80 01 89 0D  45 19 80 F8 FF FF 7F F8  042.....E.......
0D80: FF FF 7F 73 30 35 35 01  80 2B 8A 01 05 01 4F 80  ...s055..+....O.
0D90: 23 29 0F 8A 01 05 01 12  7B 8A 01 05 01 27 0F 8A  #)......{....'..
0DA0: 01 05 01 15 2B 8A 01 05  01 50 80 23 2A 0F 8A 01  ....+....P.#*...
0DB0: 05 01 02 09 10 1F 80 00  CC 0D 52 19 80 F8 FF FF  ..........R.....
0DC0: 7F F8 FF FF 7F 73 30 34  32 01 29 0E 02 09 10 20  .....s042.).... 
0DD0: 80 00 E6 0D 52 19 80 F8  FF FF 7F F8 FF FF 7F 73  ....R..........s
0DE0: 30 34 39 01 29 0E 02 09  10 21 80 00 00 0E 52 19  049.)....!....R.
0DF0: 80 F8 FF FF 7F F8 FF FF  7F 73 30 34 39 01 29 0E  .........s049.).
0E00: 02 09 10 22 80 00 1A 0E  52 19 80 F8 FF FF 7F F8  ..."....R.......
0E10: FF FF 7F 73 30 34 32 01  29 0E 52 19 80 F8 FF FF  ...s042.).R.....
0E20: 7F F8 FF FF 7F 73 30 35  35 02 09 10 1F 80 00 45  .....s055......E
0E30: 0E 45 19 80 F8 FF FF 7F  F8 FF FF 7F 73 30 33 39  .E..........s039
0E40: 01 80 01 C6 0E 02 09 10  29 80 00 61 0E 45 19 80  ........)..a.E..
0E50: F8 FF FF 7F F8 FF FF 7F  73 30 33 39 01 80 01 C6  ........s039....
0E60: 0E 02 09 10 20 80 00 7D  0E 45 19 80 F8 FF FF 7F  .... ..}.E......
0E70: F8 FF FF 7F 73 30 35 30  01 80 01 C6 0E 02 09 10  ....s050........
0E80: 21 80 00 99 0E 45 19 80  F8 FF FF 7F F8 FF FF 7F  !....E..........
0E90: 73 30 35 30 01 80 01 C6  0E 02 09 10 22 80 00 B5  s050........"...
0EA0: 0E 45 19 80 F8 FF FF 7F  F8 FF FF 7F 73 30 33 39  .E..........s039
0EB0: 01 80 01 C6 0E 45 19 80  F8 FF FF 7F F8 FF FF 7F  .....E..........
0EC0: 73 30 35 36 01 80 79 00  8A 01 05 01 F0 FF FF 7F  s056..y.........
0ED0: 29 0F 8A 01 05 01 05 2B  8A 01 05 01 51 80 23 2B  )......+....Q.#+
0EE0: 8A 01 05 01 52 80 23 29  0F 8A 01 05 01 06 29 0F  ....R.#)......).
0EF0: 8A 01 05 01 07 24 53 80  01 80 01 80 25 02 00 10  .....$S.....%...
0F00: 01 80 00 EF 0F 29 0F F0  FF FF 7F 1D 1C 1D 80 29  .....).........)
0F10: 0F F0 FF FF 7F 1E 02 09  10 1F 80 00 30 0F 52 19  ............0.R.
0F20: 80 F8 FF FF 7F F8 FF FF  7F 73 30 33 39 01 A7 0F  .........s039...
0F30: 02 09 10 29 80 00 4A 0F  52 19 80 F8 FF FF 7F F8  ...)..J.R.......
0F40: FF FF 7F 73 30 33 39 01  A7 0F 02 09 10 20 80 00  ...s039...... ..
0F50: 64 0F 52 19 80 F8 FF FF  7F F8 FF FF 7F 73 30 35  d.R..........s05
0F60: 30 01 A7 0F 02 09 10 21  80 00 7E 0F 52 19 80 F8  0......!..~.R...
0F70: FF FF 7F F8 FF FF 7F 73  30 35 30 01 A7 0F 02 09  .......s050.....
0F80: 10 22 80 00 98 0F 52 19  80 F8 FF FF 7F F8 FF FF  ."....R.........
0F90: 7F 73 30 33 39 01 A7 0F  52 19 80 F8 FF FF 7F F8  .s039...R.......
0FA0: FF FF 7F 73 30 35 36 45  19 80 F8 FF FF 7F F8 FF  ...s056E........
0FB0: FF 7F 73 30 33 38 01 80  29 0F 8A 01 05 01 0F 2B  ..s038..)......+
0FC0: 8A 01 05 01 54 80 23 2B  8A 01 05 01 55 80 23 29  ....T.#+....U.#)
0FD0: 0F 8A 01 05 01 10 29 0F  8A 01 05 01 11 52 19 80  ......)......R..
0FE0: F8 FF FF 7F F8 FF FF 7F  73 30 33 38 01 80 11 02  ........s038....
0FF0: 00 10 03 80 00 E1 10 29  0F F0 FF FF 7F 1D 1C 1D  .......)........
1000: 80 29 0F F0 FF FF 7F 1E  02 09 10 1F 80 00 22 10  .)............".
1010: 52 19 80 F8 FF FF 7F F8  FF FF 7F 73 30 33 39 01  R..........s039.
1020: 99 10 02 09 10 29 80 00  3C 10 52 19 80 F8 FF FF  .....)..<.R.....
1030: 7F F8 FF FF 7F 73 30 33  39 01 99 10 02 09 10 20  .....s039...... 
1040: 80 00 56 10 52 19 80 F8  FF FF 7F F8 FF FF 7F 73  ..V.R..........s
1050: 30 35 30 01 99 10 02 09  10 21 80 00 70 10 52 19  050......!..p.R.
1060: 80 F8 FF FF 7F F8 FF FF  7F 73 30 35 30 01 99 10  .........s050...
1070: 02 09 10 22 80 00 8A 10  52 19 80 F8 FF FF 7F F8  ..."....R.......
1080: FF FF 7F 73 30 33 39 01  99 10 52 19 80 F8 FF FF  ...s039...R.....
1090: 7F F8 FF FF 7F 73 30 35  36 45 19 80 F8 FF FF 7F  .....s056E......
10A0: F8 FF FF 7F 73 30 33 38  01 80 29 0F 8A 01 05 01  ....s038..).....
10B0: 0F 2B 8A 01 05 01 56 80  23 2B 8A 01 05 01 57 80  .+....V.#+....W.
10C0: 23 29 0F 8A 01 05 01 10  29 0F 8A 01 05 01 11 52  #)......)......R
10D0: 19 80 F8 FF FF 7F F8 FF  FF 7F 73 30 33 38 01 80  ..........s038..
10E0: 11 02 00 10 05 80 00 80  11 29 0F F0 FF FF 7F 1D  .........)......
10F0: 1C 1D 80 29 0F F0 FF FF  7F 1E 52 19 80 F8 FF FF  ...)......R.....
1100: 7F F8 FF FF 7F 73 30 33  39 45 19 80 F8 FF FF 7F  .....s039E......
1110: F8 FF FF 7F 73 30 33 38  01 80 29 0F 8A 01 05 01  ....s038..).....
1120: 0F 2B 8A 01 05 01 58 80  23 2B 8A 01 05 01 59 80  .+....X.#+....Y.
1130: 23 29 0F 8A 01 05 01 10  52 19 80 F8 FF FF 7F F8  #)......R.......
1140: FF FF 7F 73 30 33 38 45  19 80 F8 FF FF 7F F8 FF  ...s038E........
1150: FF 7F 73 30 34 33 01 80  29 0F 8A 01 05 01 11 2B  ..s043..)......+
1160: 8A 01 05 01 5A 80 23 29  0F 8A 01 05 01 12 52 19  ....Z.#)......R.
1170: 80 F8 FF FF 7F F8 FF FF  7F 73 30 34 33 01 80 11  .........s043...
1180: 02 09 10 20 80 00 9C 11  45 19 80 F8 FF FF 7F F8  ... ....E.......
1190: FF FF 7F 73 30 35 31 01  80 01 C9 11 02 09 10 21  ...s051........!
11A0: 80 00 B8 11 45 19 80 F8  FF FF 7F F8 FF FF 7F 73  ....E..........s
11B0: 30 35 31 01 80 01 C9 11  45 19 80 F8 FF FF 7F F8  051.....E.......
11C0: FF FF 7F 73 30 34 31 01  80 27 0F 8A 01 05 01 15  ...s041..'......
11D0: 2B 8A 01 05 01 5B 80 23  2A 0F 8A 01 05 01 2B 8A  +....[.#*.....+.
11E0: 01 05 01 5C 80 23 02 09  10 20 80 00 00 12 52 19  ...\.#... ....R.
11F0: 80 F8 FF FF 7F F8 FF FF  7F 73 30 35 31 01 29 12  .........s051.).
1200: 02 09 10 21 80 00 1A 12  52 19 80 F8 FF FF 7F F8  ...!....R.......
1210: FF FF 7F 73 30 35 31 01  29 12 52 19 80 F8 FF FF  ...s051.).R.....
1220: 7F F8 FF FF 7F 73 30 34  31 02 09 10 20 80 00 45  .....s041... ..E
1230: 12 45 19 80 F8 FF FF 7F  F8 FF FF 7F 73 30 35 32  .E..........s052
1240: 01 80 01 72 12 02 09 10  21 80 00 61 12 45 19 80  ...r....!..a.E..
1250: F8 FF FF 7F F8 FF FF 7F  73 30 35 32 01 80 01 72  ........s052...r
1260: 12 45 19 80 F8 FF FF 7F  F8 FF FF 7F 73 30 33 37  .E..........s037
1270: 01 80 27 0F 8A 01 05 01  14 2B 8A 01 05 01 5D 80  ..'......+....].
1280: 23 2A 0F 8A 01 05 01 D8  00 2C 03 05 01 03 01 10  #*.......,......
1290: 01 80 5D 01 80 08 80 1A  64 00 02 09 10 20 80 00  ..].....d.... ..
12A0: B4 12 52 19 80 F8 FF FF  7F F8 FF FF 7F 73 30 35  ..R..........s05
12B0: 32 01 DD 12 02 09 10 21  80 00 CE 12 52 19 80 F8  2......!....R...
12C0: FF FF 7F F8 FF FF 7F 73  30 35 32 01 DD 12 52 19  .......s052...R.
12D0: 80 F8 FF FF 7F F8 FF FF  7F 73 30 33 37 5C 00 5E  .........s037\.^
12E0: 80 5C 01 5E 80 9A 5D 18  80 03 80 1C 46 80 AB 11  .\.^..].....F...
12F0: 01 80 1C 03 80 46 00 45  00 80 F8 FF FF 7F F8 FF  .....F.E........
1300: FF 7F 66 64 69 32 01 80  21 00                    ..fdi2..!.      
```

#### Opcodes

```
  0: 0x0292 [0x42] SET_CLI_EVENT_CANCEL_DATA()
  1: 0x0293 [0x03] ExtData[1]->WorkLocal[1] = Work_Zone[3]
  2: 0x0298 [0x03] ExtData[1]->WorkLocal[2] = 0*
  3: 0x029D [0x5D] SET_MUSIC_VOLUME(volume=0*, fade_time=300*)
  4: 0x02A2 [0x1A] CALL_SUBROUTINE(address=0x0064)
  5: 0x02A5 [0x46] CAMERA_CONTROL: Disable user control
  6: 0x02A7 [0x38] SET_CLIENT_EVENT_MODE(mode=147*)
  7: 0x02AA [0x4E] SET_ENTITY_HIDE_FLAG: Show Valaineral R Davilles (ID: 17105290/0x0105018A)
  8: 0x02B0 [0x4E] SET_ENTITY_HIDE_FLAG: Show Aissaville (ID: 17105390/0x010501EE)
  9: 0x02B6 [0x4E] SET_ENTITY_HIDE_FLAG: Show Raustigne (ID: 17105391/0x010501EF)
 10: 0x02BC [0x92] Valaineral R Davilles (ID: 17105290/0x0105018A)->Render.Flags3 ^= 0x01
 11: 0x02C2 [0x92] Aissaville (ID: 17105390/0x010501EE)->Render.Flags3 ^= 0x01
 12: 0x02C8 [0x92] Raustigne (ID: 17105391/0x010501EF)->Render.Flags3 ^= 0x01
 13: 0x02CE [0x94] Valaineral R Davilles (ID: 17105290/0x0105018A)->Render.Flags3 ^= 0x01
 14: 0x02D4 [0x94] Aissaville (ID: 17105390/0x010501EE)->Render.Flags3 ^= 0x01
 15: 0x02DA [0x94] Raustigne (ID: 17105391/0x010501EF)->Render.Flags3 ^= 0x01
 16: 0x02E0 [0x94] LocalPlayer->Render.Flags3 ^= 0x01
 17: 0x02E6 [0xBA] SET_ENTITY_POSITION(entity_id=Valaineral R Davilles (ID: 17105290/0x0105018A), pos_x=-31.125*, pos_z=23.247*, pos_y=0.000*, direction=42.6°*)
 18: 0x02F3 [0xBA] SET_ENTITY_POSITION(entity_id=Aissaville (ID: 17105390/0x010501EE), pos_x=-3.484*, pos_z=44.227*, pos_y=-1.999*, direction=91.8°*)
 19: 0x0300 [0xBA] SET_ENTITY_POSITION(entity_id=Raustigne (ID: 17105391/0x010501EF), pos_x=3.979*, pos_z=44.456*, pos_y=-1.999*, direction=97.4°*)
 20: 0x030D [0xBA] SET_ENTITY_POSITION(entity_id=LocalPlayer, pos_x=-32.258*, pos_z=26.934*, pos_y=0.000*, direction=52.4°*)
 21: 0x031A [0x80] LOAD_WAIT(entity=Valaineral R Davilles (ID: 17105290/0x0105018A))
 22: 0x031F [0x80] LOAD_WAIT(entity=Aissaville (ID: 17105390/0x010501EE))
 23: 0x0324 [0x80] LOAD_WAIT(entity=Raustigne (ID: 17105391/0x010501EF))
 24: 0x0329 [0x80] LOAD_WAIT(entity=LocalPlayer)
 25: 0x032E [0x29] REQ_SET_WAIT(priority=0x0F, entity_id=LocalPlayer, tag_num=0x31)
 26: 0x0335 [0x5C] MUSIC_CONTROL: Set Idle (Day) music to song 31*
 27: 0x0339 [0x5C] MUSIC_CONTROL: Set Idle (Night) music to song 31*
 28: 0x033D [0x9A] WAIT_MUSIC_SERVER()
 29: 0x033E [0x5D] SET_MUSIC_VOLUME(volume=127*, fade_time=1*)
 30: 0x0343 [0x02] IF !(ExtData[1]->WorkLocal[2] >= 2*) GOTO 0x0C35
 31: 0x034B [0x4A] LocalPlayer looks at Valaineral R Davilles (ID: 17105290/0x0105018A)
 32: 0x0354 [0x7B] Valaineral R Davilles (ID: 17105290/0x0105018A) stops talking
 33: 0x0359 [0x29] REQ_SET_WAIT(priority=0x0F, entity_id=Valaineral R Davilles (ID: 17105290/0x0105018A), tag_num=0x01)
 34: 0x0360 [0x29] REQ_SET_WAIT(priority=0x0F, entity_id=Valaineral R Davilles (ID: 17105290/0x0105018A), tag_num=0x02)
 35: 0x0367 [0x6F] WAIT_FRAME_DELAY: Yield until WaitTime reaches zero
 36: 0x0368 [0x76] CHECK_ENTITY_RENDER_FLAGS: Wait until LocalPlayer Render.Flags0 and Render.Flags3 conditions are met
 37: 0x036D [0x27] REQ_SET(priority=0x0F, entity_id=LocalPlayer, tag_num=0x32)
 38: 0x0374 [0x45] LOAD_SCHEDULED_TASK: Load scheduler "s024" with entities [EventEntity, EventEntity], work=[897*, 0*]
 39: 0x0385 [0x1A] CALL_SUBROUTINE(address=0x0043)
 40: 0x0388 [0x2B] Valaineral R Davilles (ID: 17105290/0x0105018A) [15803*]:
    → "There appears to be discord within the Confederate forces. Or perhaps they are simply trying to trick us into thinking so..."
 41: 0x038F [0x1C] WAIT(30* ticks)
 42: 0x0392 [0x23] WAIT_FOR_DIALOG_INTERACTION
 43: 0x0393 [0x29] REQ_SET_WAIT(priority=0x0F, entity_id=Valaineral R Davilles (ID: 17105290/0x0105018A), tag_num=0x03)
 44: 0x039A [0x52] END_LOAD_SCHEDULER: End scheduler "s024" with entities [EventEntity, EventEntity], work=897*
 45: 0x03A9 [0x45] LOAD_SCHEDULED_TASK: Load scheduler "s023" with entities [EventEntity, EventEntity], work=[897*, 0*]
 46: 0x03BA [0x29] REQ_SET_WAIT(priority=0x0F, entity_id=Valaineral R Davilles (ID: 17105290/0x0105018A), tag_num=0x04)
 47: 0x03C1 [0x4A] Valaineral R Davilles (ID: 17105290/0x0105018A) looks at LocalPlayer
 48: 0x03CA [0x6F] WAIT_FRAME_DELAY: Yield until WaitTime reaches zero
 49: 0x03CB [0x76] CHECK_ENTITY_RENDER_FLAGS: Wait until Valaineral R Davilles (ID: 17105290/0x0105018A) Render.Flags0 and Render.Flags3 conditions are met
 50: 0x03D0 [0x2A] GET_REQ_LEVEL(level=15, entity_id=LocalPlayer)
 51: 0x03D6 [0x03] Work_Zone[2] = ExtData[1]->WorkLocal[1]
 52: 0x03DB [0x0C] Work_Zone[2]--
 53: 0x03DE [0x02] IF !(Work_Zone[2] >= 0*) GOTO 0x03EE
 54: 0x03E6 [0x03] Work_Zone[2] = 0*
 55: 0x03EB [0x01] GOTO 0x03FB
 56: 0x03EE [0x02] IF !(Work_Zone[2] <= 2*) GOTO 0x03FB
 57: 0x03F6 [0x03] Work_Zone[2] = 0*

SUBROUTINE_03FB:
 58: 0x03FB [0x29] REQ_SET_WAIT(priority=0x0F, entity_id=Valaineral R Davilles (ID: 17105290/0x0105018A), tag_num=0x0F)
 59: 0x0402 [0x2B] Valaineral R Davilles (ID: 17105290/0x0105018A) [15804*]:
    → "Ah, you are <Player> from the [Knights of the Iron Ram/Fourth Division/Cobra Unit], yes?"
 60: 0x0409 [0x23] WAIT_FOR_DIALOG_INTERACTION
 61: 0x040A [0x6E] LocalPlayer uses emote 7*
 62: 0x0411 [0x99] Wait for LocalPlayer animation to complete
 63: 0x0416 [0x29] REQ_SET_WAIT(priority=0x0F, entity_id=Valaineral R Davilles (ID: 17105290/0x0105018A), tag_num=0x10)
 64: 0x041D [0x29] REQ_SET_WAIT(priority=0x0F, entity_id=Valaineral R Davilles (ID: 17105290/0x0105018A), tag_num=0x11)
 65: 0x0424 [0x1C] WAIT(90* ticks)
 66: 0x0427 [0x29] REQ_SET_WAIT(priority=0x0F, entity_id=Valaineral R Davilles (ID: 17105290/0x0105018A), tag_num=0x12)
 67: 0x042E [0x52] END_LOAD_SCHEDULER: End scheduler "s023" with entities [EventEntity, EventEntity], work=897*
 68: 0x043D [0x45] LOAD_SCHEDULED_TASK: Load scheduler "s025" with entities [EventEntity, EventEntity], work=[897*, 0*]
 69: 0x044E [0x27] REQ_SET(priority=0x0F, entity_id=Valaineral R Davilles (ID: 17105290/0x0105018A), tag_num=0x14)
 70: 0x0455 [0x2A] GET_REQ_LEVEL(level=15, entity_id=Valaineral R Davilles (ID: 17105290/0x0105018A))
 71: 0x045B [0x2B] Valaineral R Davilles (ID: 17105290/0x0105018A) [15805*]:
    → "I could never forget a capable new recruit such as yourself."
 72: 0x0462 [0x23] WAIT_FOR_DIALOG_INTERACTION
 73: 0x0463 [0x52] END_LOAD_SCHEDULER: End scheduler "s025" with entities [EventEntity, EventEntity], work=897*
 74: 0x0472 [0x02] IF !(Work_Zone[9] == 3*) GOTO 0x048E
 75: 0x047A [0x45] LOAD_SCHEDULED_TASK: Load scheduler "s026" with entities [EventEntity, EventEntity], work=[897*, 0*]
 76: 0x048B [0x01] GOTO 0x04F3
 77: 0x048E [0x02] IF !(Work_Zone[9] == 5*) GOTO 0x04AA
 78: 0x0496 [0x45] LOAD_SCHEDULED_TASK: Load scheduler "s044" with entities [EventEntity, EventEntity], work=[897*, 0*]
 79: 0x04A7 [0x01] GOTO 0x04F3
 80: 0x04AA [0x02] IF !(Work_Zone[9] == 6*) GOTO 0x04C6
 81: 0x04B2 [0x45] LOAD_SCHEDULED_TASK: Load scheduler "s044" with entities [EventEntity, EventEntity], work=[897*, 0*]
 82: 0x04C3 [0x01] GOTO 0x04F3
 83: 0x04C6 [0x02] IF !(Work_Zone[9] == 8*) GOTO 0x04E2
 84: 0x04CE [0x45] LOAD_SCHEDULED_TASK: Load scheduler "s026" with entities [EventEntity, EventEntity], work=[897*, 0*]
 85: 0x04DF [0x01] GOTO 0x04F3
 86: 0x04E2 [0x45] LOAD_SCHEDULED_TASK: Load scheduler "s053" with entities [EventEntity, EventEntity], work=[897*, 0*]

SUBROUTINE_04F3:
 87: 0x04F3 [0x29] REQ_SET_WAIT(priority=0x0F, entity_id=Valaineral R Davilles (ID: 17105290/0x0105018A), tag_num=0x05)
 88: 0x04FA [0x2B] Valaineral R Davilles (ID: 17105290/0x0105018A) [15806*]:
    → "I am Valaineral, captain of the Royal Guards. I need your help with a mission of the utmost importance."
 89: 0x0501 [0x23] WAIT_FOR_DIALOG_INTERACTION
 90: 0x0502 [0x29] REQ_SET_WAIT(priority=0x0F, entity_id=Valaineral R Davilles (ID: 17105290/0x0105018A), tag_num=0x06)
 91: 0x0509 [0x29] REQ_SET_WAIT(priority=0x0F, entity_id=Valaineral R Davilles (ID: 17105290/0x0105018A), tag_num=0x07)
 92: 0x0510 [0x24] CREATE_DIALOG(message_id=15807*, default_option=0*, option_flags=0*)
    → "Accept Valaineral's request? [Of course./Sorry, I'm busy.]"
 93: 0x0517 [0x25] WAIT_DIALOG_SELECT()
 94: 0x0518 [0x02] IF !(Work_Zone[0] == 0*) GOTO 0x05A9
 95: 0x0520 [0x6E] LocalPlayer uses emote 7*
 96: 0x0527 [0x99] Wait for LocalPlayer animation to complete
 97: 0x052C [0x1C] WAIT(90* ticks)
 98: 0x052F [0x02] IF !(Work_Zone[9] == 3*) GOTO 0x0549
 99: 0x0537 [0x52] END_LOAD_SCHEDULER: End scheduler "s026" with entities [EventEntity, EventEntity], work=897*
100: 0x0546 [0x01] GOTO 0x05A6
101: 0x0549 [0x02] IF !(Work_Zone[9] == 5*) GOTO 0x0563
102: 0x0551 [0x52] END_LOAD_SCHEDULER: End scheduler "s044" with entities [EventEntity, EventEntity], work=897*
103: 0x0560 [0x01] GOTO 0x05A6
104: 0x0563 [0x02] IF !(Work_Zone[9] == 6*) GOTO 0x057D
105: 0x056B [0x52] END_LOAD_SCHEDULER: End scheduler "s044" with entities [EventEntity, EventEntity], work=897*
106: 0x057A [0x01] GOTO 0x05A6
107: 0x057D [0x02] IF !(Work_Zone[9] == 8*) GOTO 0x0597
108: 0x0585 [0x52] END_LOAD_SCHEDULER: End scheduler "s026" with entities [EventEntity, EventEntity], work=897*
109: 0x0594 [0x01] GOTO 0x05A6
110: 0x0597 [0x52] END_LOAD_SCHEDULER: End scheduler "s053" with entities [EventEntity, EventEntity], work=897*

SUBROUTINE_05A6:
111: 0x05A6 [0x01] GOTO 0x0684
112: 0x05A9 [0x02] IF !(Work_Zone[0] == 1*) GOTO 0x0684
113: 0x05B1 [0x6E] LocalPlayer uses emote 6*
114: 0x05B8 [0x99] Wait for LocalPlayer animation to complete
115: 0x05BD [0x1C] WAIT(90* ticks)
116: 0x05C0 [0x02] IF !(Work_Zone[9] == 3*) GOTO 0x05DA
117: 0x05C8 [0x52] END_LOAD_SCHEDULER: End scheduler "s026" with entities [EventEntity, EventEntity], work=897*
118: 0x05D7 [0x01] GOTO 0x0637
119: 0x05DA [0x02] IF !(Work_Zone[9] == 5*) GOTO 0x05F4
120: 0x05E2 [0x52] END_LOAD_SCHEDULER: End scheduler "s044" with entities [EventEntity, EventEntity], work=897*
121: 0x05F1 [0x01] GOTO 0x0637
122: 0x05F4 [0x02] IF !(Work_Zone[9] == 6*) GOTO 0x060E
123: 0x05FC [0x52] END_LOAD_SCHEDULER: End scheduler "s044" with entities [EventEntity, EventEntity], work=897*
124: 0x060B [0x01] GOTO 0x0637
125: 0x060E [0x02] IF !(Work_Zone[9] == 8*) GOTO 0x0628
126: 0x0616 [0x52] END_LOAD_SCHEDULER: End scheduler "s026" with entities [EventEntity, EventEntity], work=897*
127: 0x0625 [0x01] GOTO 0x0637
128: 0x0628 [0x52] END_LOAD_SCHEDULER: End scheduler "s053" with entities [EventEntity, EventEntity], work=897*

SUBROUTINE_0637:
129: 0x0637 [0x45] LOAD_SCHEDULED_TASK: Load scheduler "s025" with entities [EventEntity, EventEntity], work=[897*, 0*]
130: 0x0648 [0x4B] UPDATE_ENTITY_YAW(entity=Valaineral R Davilles (ID: 17105290/0x0105018A), yaw=11.0°*)
131: 0x064F [0x6F] WAIT_FRAME_DELAY: Yield until WaitTime reaches zero
132: 0x0650 [0x76] CHECK_ENTITY_RENDER_FLAGS: Wait until Valaineral R Davilles (ID: 17105290/0x0105018A) Render.Flags0 and Render.Flags3 conditions are met
133: 0x0655 [0x27] REQ_SET(priority=0x0F, entity_id=Valaineral R Davilles (ID: 17105290/0x0105018A), tag_num=0x15)
134: 0x065C [0x2B] Valaineral R Davilles (ID: 17105290/0x0105018A) [15808*]:
    → "I see... I guess it cannot be helped. I must think of another way."
135: 0x0663 [0x23] WAIT_FOR_DIALOG_INTERACTION
136: 0x0664 [0x2A] GET_REQ_LEVEL(level=15, entity_id=Valaineral R Davilles (ID: 17105290/0x0105018A))
137: 0x066A [0x52] END_LOAD_SCHEDULER: End scheduler "s025" with entities [EventEntity, EventEntity], work=897*
138: 0x0679 [0x03] Work_Zone[1] = 1*
139: 0x067E [0x01] GOTO 0x1292

SUBROUTINE_0684:
140: 0x0684 [0x02] IF !(Work_Zone[9] == 5*) GOTO 0x06A0
141: 0x068C [0x45] LOAD_SCHEDULED_TASK: Load scheduler "s045" with entities [EventEntity, EventEntity], work=[897*, 0*]
142: 0x069D [0x01] GOTO 0x06CD
143: 0x06A0 [0x02] IF !(Work_Zone[9] == 6*) GOTO 0x06BC
144: 0x06A8 [0x45] LOAD_SCHEDULED_TASK: Load scheduler "s045" with entities [EventEntity, EventEntity], work=[897*, 0*]
145: 0x06B9 [0x01] GOTO 0x06CD
146: 0x06BC [0x45] LOAD_SCHEDULED_TASK: Load scheduler "s027" with entities [EventEntity, EventEntity], work=[897*, 0*]

SUBROUTINE_06CD:
147: 0x06CD [0x7B] Valaineral R Davilles (ID: 17105290/0x0105018A) stops talking
148: 0x06D2 [0x27] REQ_SET(priority=0x0F, entity_id=Valaineral R Davilles (ID: 17105290/0x0105018A), tag_num=0x28)
149: 0x06D9 [0x2B] Valaineral R Davilles (ID: 17105290/0x0105018A) [15809*]:
    → "The battle situation is changing constantly, and we may be left with no hope of reprieve..."
150: 0x06E0 [0x1C] WAIT(40* ticks)
151: 0x06E3 [0x4A] LocalPlayer looks at Valaineral R Davilles (ID: 17105290/0x0105018A)
152: 0x06EC [0x6F] WAIT_FRAME_DELAY: Yield until WaitTime reaches zero
153: 0x06ED [0x76] CHECK_ENTITY_RENDER_FLAGS: Wait until LocalPlayer Render.Flags0 and Render.Flags3 conditions are met
154: 0x06F2 [0x23] WAIT_FOR_DIALOG_INTERACTION
155: 0x06F3 [0x2A] GET_REQ_LEVEL(level=15, entity_id=Valaineral R Davilles (ID: 17105290/0x0105018A))
156: 0x06F9 [0x4A] Valaineral R Davilles (ID: 17105290/0x0105018A) looks at LocalPlayer
157: 0x0702 [0x6F] WAIT_FRAME_DELAY: Yield until WaitTime reaches zero
158: 0x0703 [0x76] CHECK_ENTITY_RENDER_FLAGS: Wait until Valaineral R Davilles (ID: 17105290/0x0105018A) Render.Flags0 and Render.Flags3 conditions are met
159: 0x0708 [0x02] IF !(Work_Zone[9] == 5*) GOTO 0x0722
160: 0x0710 [0x52] END_LOAD_SCHEDULER: End scheduler "s045" with entities [EventEntity, EventEntity], work=897*
161: 0x071F [0x01] GOTO 0x074B
162: 0x0722 [0x02] IF !(Work_Zone[9] == 6*) GOTO 0x073C
163: 0x072A [0x52] END_LOAD_SCHEDULER: End scheduler "s045" with entities [EventEntity, EventEntity], work=897*
164: 0x0739 [0x01] GOTO 0x074B
165: 0x073C [0x52] END_LOAD_SCHEDULER: End scheduler "s027" with entities [EventEntity, EventEntity], work=897*

SUBROUTINE_074B:
166: 0x074B [0x02] IF !(Work_Zone[9] == 3*) GOTO 0x0767
167: 0x0753 [0x45] LOAD_SCHEDULED_TASK: Load scheduler "s028" with entities [EventEntity, EventEntity], work=[897*, 0*]
168: 0x0764 [0x01] GOTO 0x07E8
169: 0x0767 [0x02] IF !(Work_Zone[9] == 4*) GOTO 0x0783
170: 0x076F [0x45] LOAD_SCHEDULED_TASK: Load scheduler "s028" with entities [EventEntity, EventEntity], work=[897*, 0*]
171: 0x0780 [0x01] GOTO 0x07E8
172: 0x0783 [0x02] IF !(Work_Zone[9] == 5*) GOTO 0x079F
173: 0x078B [0x45] LOAD_SCHEDULED_TASK: Load scheduler "s046" with entities [EventEntity, EventEntity], work=[897*, 0*]
174: 0x079C [0x01] GOTO 0x07E8
175: 0x079F [0x02] IF !(Work_Zone[9] == 6*) GOTO 0x07BB
176: 0x07A7 [0x45] LOAD_SCHEDULED_TASK: Load scheduler "s046" with entities [EventEntity, EventEntity], work=[897*, 0*]
177: 0x07B8 [0x01] GOTO 0x07E8
178: 0x07BB [0x02] IF !(Work_Zone[9] == 8*) GOTO 0x07D7
179: 0x07C3 [0x45] LOAD_SCHEDULED_TASK: Load scheduler "s028" with entities [EventEntity, EventEntity], work=[897*, 0*]
180: 0x07D4 [0x01] GOTO 0x07E8
181: 0x07D7 [0x45] LOAD_SCHEDULED_TASK: Load scheduler "s054" with entities [EventEntity, EventEntity], work=[897*, 0*]

SUBROUTINE_07E8:
182: 0x07E8 [0x29] REQ_SET_WAIT(priority=0x0F, entity_id=Valaineral R Davilles (ID: 17105290/0x0105018A), tag_num=0x0F)
183: 0x07EF [0x2B] Valaineral R Davilles (ID: 17105290/0x0105018A) [15810*]:
    → "Please, allow me to explain. We received a report from the Knights of the Madder Falcon in Valdeaunia the other day that cannot be overlooked."
184: 0x07F6 [0x23] WAIT_FOR_DIALOG_INTERACTION
185: 0x07F7 [0x2B] Valaineral R Davilles (ID: 17105290/0x0105018A) [15811*]:
    → "We are currently at war with the Beastman Confederate as they ramp up their forces, and they are now preparing some kind of magical weapon to use in the fight."
186: 0x07FE [0x23] WAIT_FOR_DIALOG_INTERACTION
187: 0x07FF [0x29] REQ_SET_WAIT(priority=0x0F, entity_id=Valaineral R Davilles (ID: 17105290/0x0105018A), tag_num=0x10)
188: 0x0806 [0x02] IF !(Work_Zone[9] == 3*) GOTO 0x0820
189: 0x080E [0x52] END_LOAD_SCHEDULER: End scheduler "s028" with entities [EventEntity, EventEntity], work=897*
190: 0x081D [0x01] GOTO 0x0897
191: 0x0820 [0x02] IF !(Work_Zone[9] == 4*) GOTO 0x083A
192: 0x0828 [0x52] END_LOAD_SCHEDULER: End scheduler "s028" with entities [EventEntity, EventEntity], work=897*
193: 0x0837 [0x01] GOTO 0x0897
194: 0x083A [0x02] IF !(Work_Zone[9] == 5*) GOTO 0x0854
195: 0x0842 [0x52] END_LOAD_SCHEDULER: End scheduler "s046" with entities [EventEntity, EventEntity], work=897*
196: 0x0851 [0x01] GOTO 0x0897
197: 0x0854 [0x02] IF !(Work_Zone[9] == 6*) GOTO 0x086E
198: 0x085C [0x52] END_LOAD_SCHEDULER: End scheduler "s046" with entities [EventEntity, EventEntity], work=897*
199: 0x086B [0x01] GOTO 0x0897
200: 0x086E [0x02] IF !(Work_Zone[9] == 8*) GOTO 0x0888
201: 0x0876 [0x52] END_LOAD_SCHEDULER: End scheduler "s028" with entities [EventEntity, EventEntity], work=897*
202: 0x0885 [0x01] GOTO 0x0897
203: 0x0888 [0x52] END_LOAD_SCHEDULER: End scheduler "s054" with entities [EventEntity, EventEntity], work=897*

SUBROUTINE_0897:
204: 0x0897 [0x45] LOAD_SCHEDULED_TASK: Load scheduler "s029" with entities [EventEntity, EventEntity], work=[897*, 0*]
205: 0x08A8 [0x29] REQ_SET_WAIT(priority=0x0F, entity_id=Valaineral R Davilles (ID: 17105290/0x0105018A), tag_num=0x11)
206: 0x08AF [0x4A] LocalPlayer looks at Valaineral R Davilles (ID: 17105290/0x0105018A)
207: 0x08B8 [0x2B] Valaineral R Davilles (ID: 17105290/0x0105018A) [15812*]:
    → "Apparently, this weapon is known as the "World Eater Egg." Just as its name suggests, it reportedly has the power to devour the world itself."
208: 0x08BF [0x23] WAIT_FOR_DIALOG_INTERACTION
209: 0x08C0 [0x6F] WAIT_FRAME_DELAY: Yield until WaitTime reaches zero
210: 0x08C1 [0x76] CHECK_ENTITY_RENDER_FLAGS: Wait until LocalPlayer Render.Flags0 and Render.Flags3 conditions are met
211: 0x08C6 [0x29] REQ_SET_WAIT(priority=0x0F, entity_id=Valaineral R Davilles (ID: 17105290/0x0105018A), tag_num=0x12)
212: 0x08CD [0x52] END_LOAD_SCHEDULER: End scheduler "s029" with entities [EventEntity, EventEntity], work=897*
213: 0x08DC [0x02] IF !(Work_Zone[9] == 5*) GOTO 0x08F8
214: 0x08E4 [0x45] LOAD_SCHEDULED_TASK: Load scheduler "s047" with entities [EventEntity, EventEntity], work=[897*, 0*]
215: 0x08F5 [0x01] GOTO 0x0925
216: 0x08F8 [0x02] IF !(Work_Zone[9] == 6*) GOTO 0x0914
217: 0x0900 [0x45] LOAD_SCHEDULED_TASK: Load scheduler "s047" with entities [EventEntity, EventEntity], work=[897*, 0*]
218: 0x0911 [0x01] GOTO 0x0925
219: 0x0914 [0x45] LOAD_SCHEDULED_TASK: Load scheduler "s030" with entities [EventEntity, EventEntity], work=[897*, 0*]

SUBROUTINE_0925:
220: 0x0925 [0x7B] Valaineral R Davilles (ID: 17105290/0x0105018A) stops talking
221: 0x092A [0x29] REQ_SET_WAIT(priority=0x0F, entity_id=Valaineral R Davilles (ID: 17105290/0x0105018A), tag_num=0x01)
222: 0x0931 [0x2B] Valaineral R Davilles (ID: 17105290/0x0105018A) [15813*]:
    → "However, aside from its name, everything about this egg is shrouded in total mystery."
223: 0x0938 [0x23] WAIT_FOR_DIALOG_INTERACTION
224: 0x0939 [0x29] REQ_SET_WAIT(priority=0x0F, entity_id=Valaineral R Davilles (ID: 17105290/0x0105018A), tag_num=0x02)
225: 0x0940 [0x2B] Valaineral R Davilles (ID: 17105290/0x0105018A) [15814*]:
    → "As such, we know next to nothing about its actual use, current location, or origin. There is no mention about such an object in any known legend, meaning that we are completely in the dark about it."
226: 0x0947 [0x23] WAIT_FOR_DIALOG_INTERACTION
227: 0x0948 [0x02] IF !(Work_Zone[9] == 5*) GOTO 0x0962
228: 0x0950 [0x52] END_LOAD_SCHEDULER: End scheduler "s047" with entities [EventEntity, EventEntity], work=897*
229: 0x095F [0x01] GOTO 0x098B
230: 0x0962 [0x02] IF !(Work_Zone[9] == 6*) GOTO 0x097C
231: 0x096A [0x52] END_LOAD_SCHEDULER: End scheduler "s047" with entities [EventEntity, EventEntity], work=897*
232: 0x0979 [0x01] GOTO 0x098B
233: 0x097C [0x52] END_LOAD_SCHEDULER: End scheduler "s030" with entities [EventEntity, EventEntity], work=897*

SUBROUTINE_098B:
234: 0x098B [0x45] LOAD_SCHEDULED_TASK: Load scheduler "s031" with entities [EventEntity, EventEntity], work=[897*, 0*]
235: 0x099C [0x79] Valaineral R Davilles (ID: 17105290/0x0105018A) looks at LocalPlayer (Basic look)
236: 0x09A6 [0x29] REQ_SET_WAIT(priority=0x0F, entity_id=Valaineral R Davilles (ID: 17105290/0x0105018A), tag_num=0x03)
237: 0x09AD [0x2B] Valaineral R Davilles (ID: 17105290/0x0105018A) [15815*]:
    → "Just as we were planning to interrogate a beastman we captured, we were approached by someone who had inside information."
238: 0x09B4 [0x23] WAIT_FOR_DIALOG_INTERACTION
239: 0x09B5 [0x29] REQ_SET_WAIT(priority=0x0F, entity_id=Valaineral R Davilles (ID: 17105290/0x0105018A), tag_num=0x04)
240: 0x09BC [0x52] END_LOAD_SCHEDULER: End scheduler "s031" with entities [EventEntity, EventEntity], work=897*
241: 0x09CB [0x45] LOAD_SCHEDULED_TASK: Load scheduler "s036" with entities [EventEntity, EventEntity], work=[897*, 0*]
242: 0x09DC [0x29] REQ_SET_WAIT(priority=0x0F, entity_id=Valaineral R Davilles (ID: 17105290/0x0105018A), tag_num=0x0F)
243: 0x09E3 [0x2B] Valaineral R Davilles (ID: 17105290/0x0105018A) [15816*]:
    → "According to this defector, the "World Eater Egg" is an extremely dangerous object, one that not even the Confederate forces are capable of handling properly."
244: 0x09EA [0x23] WAIT_FOR_DIALOG_INTERACTION
245: 0x09EB [0x29] REQ_SET_WAIT(priority=0x0F, entity_id=Valaineral R Davilles (ID: 17105290/0x0105018A), tag_num=0x10)
246: 0x09F2 [0x52] END_LOAD_SCHEDULER: End scheduler "s036" with entities [EventEntity, EventEntity], work=897*
247: 0x0A01 [0x02] IF !(Work_Zone[9] == 5*) GOTO 0x0A1D
248: 0x0A09 [0x45] LOAD_SCHEDULED_TASK: Load scheduler "s048" with entities [EventEntity, EventEntity], work=[897*, 0*]
249: 0x0A1A [0x01] GOTO 0x0A4A
250: 0x0A1D [0x02] IF !(Work_Zone[9] == 6*) GOTO 0x0A39
251: 0x0A25 [0x45] LOAD_SCHEDULED_TASK: Load scheduler "s048" with entities [EventEntity, EventEntity], work=[897*, 0*]
252: 0x0A36 [0x01] GOTO 0x0A4A
253: 0x0A39 [0x45] LOAD_SCHEDULED_TASK: Load scheduler "s032" with entities [EventEntity, EventEntity], work=[897*, 0*]

SUBROUTINE_0A4A:
254: 0x0A4A [0x2B] Valaineral R Davilles (ID: 17105290/0x0105018A) [15817*]:
    → "This defector then asked us to put a stop to the beastmen's plan, so we suspected it was some kind of trap at first."
255: 0x0A51 [0x29] REQ_SET_WAIT(priority=0x0F, entity_id=Valaineral R Davilles (ID: 17105290/0x0105018A), tag_num=0x11)
256: 0x0A58 [0x29] REQ_SET_WAIT(priority=0x0F, entity_id=Valaineral R Davilles (ID: 17105290/0x0105018A), tag_num=0x12)
257: 0x0A5F [0x7B] Valaineral R Davilles (ID: 17105290/0x0105018A) stops talking
258: 0x0A64 [0x27] REQ_SET(priority=0x0F, entity_id=Valaineral R Davilles (ID: 17105290/0x0105018A), tag_num=0x29)
259: 0x0A6B [0x23] WAIT_FOR_DIALOG_INTERACTION
260: 0x0A6C [0x2A] GET_REQ_LEVEL(level=15, entity_id=Valaineral R Davilles (ID: 17105290/0x0105018A))
261: 0x0A72 [0x79] Valaineral R Davilles (ID: 17105290/0x0105018A) looks at LocalPlayer (Basic look)
262: 0x0A7C [0x2B] Valaineral R Davilles (ID: 17105290/0x0105018A) [15818*]:
    → "We thought that because the defector said the egg was located deep within the Eldieme Necropolis."
263: 0x0A83 [0x23] WAIT_FOR_DIALOG_INTERACTION
264: 0x0A84 [0x5D] SET_MUSIC_VOLUME(volume=30*, fade_time=300*)
265: 0x0A89 [0x1A] CALL_SUBROUTINE(address=0x0064)
266: 0x0A8C [0x29] REQ_SET_WAIT(priority=0x0F, entity_id=Valaineral R Davilles (ID: 17105290/0x0105018A), tag_num=0x12)
267: 0x0A93 [0x02] IF !(Work_Zone[9] == 5*) GOTO 0x0AAD
268: 0x0A9B [0x52] END_LOAD_SCHEDULER: End scheduler "s048" with entities [EventEntity, EventEntity], work=897*
269: 0x0AAA [0x01] GOTO 0x0AD6
270: 0x0AAD [0x02] IF !(Work_Zone[9] == 6*) GOTO 0x0AC7
271: 0x0AB5 [0x52] END_LOAD_SCHEDULER: End scheduler "s048" with entities [EventEntity, EventEntity], work=897*
272: 0x0AC4 [0x01] GOTO 0x0AD6
273: 0x0AC7 [0x52] END_LOAD_SCHEDULER: End scheduler "s032" with entities [EventEntity, EventEntity], work=897*

SUBROUTINE_0AD6:
274: 0x0AD6 [0x02] IF !(ExtData[1]->WorkLocal[2] == 0*) GOTO 0x0B0F
275: 0x0ADE [0x34] LOAD_UNLOAD_ZONE(zone_id=84*)
276: 0x0AE1 [0x77] SET_EVENT_TIME_WEATHER(hour=18*, weather=2*)
277: 0x0AE6 [0x22] ENTITY_HIDE_FLAG(enabled=0x00)
278: 0x0AE8 [0x1C] WAIT(30* ticks)
279: 0x0AEB [0x2F] ??? (ID: 17105709/0x0105032D)->Render.Flags0 &= ~0x80000 // Bit 19
280: 0x0AF1 [0x4E] SET_ENTITY_HIDE_FLAG: Show ??? (ID: 17105709/0x0105032D)
281: 0x0AF7 [0x80] LOAD_WAIT(entity=??? (ID: 17105709/0x0105032D))
282: 0x0AFC [0x94] ??? (ID: 17105709/0x0105032D)->Render.Flags3 ^= 0x01
283: 0x0B02 [0xBA] SET_ENTITY_POSITION(entity_id=??? (ID: 17105709/0x0105032D), pos_x=-179.923*, pos_z=66.358*, pos_y=-11.709*, direction=132.4°*)
284: 0x0B0F [0x45] LOAD_SCHEDULED_TASK: Load scheduler "s033" with entities [EventEntity, EventEntity], work=[897*, 0*]
285: 0x0B20 [0x1A] CALL_SUBROUTINE(address=0x0043)
286: 0x0B23 [0x2B] Valaineral R Davilles (ID: 17105290/0x0105018A) [15819*]:
    → "Do you know about the Eldieme Necropolis?"
287: 0x0B2A [0x23] WAIT_FOR_DIALOG_INTERACTION
288: 0x0B2B [0x2B] Valaineral R Davilles (ID: 17105290/0x0105018A) [15820*]:
    → "It is part of the Coveffe Barrows, and was built by the Elvaan civilization long ago."
289: 0x0B32 [0x23] WAIT_FOR_DIALOG_INTERACTION
290: 0x0B33 [0x52] END_LOAD_SCHEDULER: End scheduler "s033" with entities [EventEntity, EventEntity], work=897*
291: 0x0B42 [0x45] LOAD_SCHEDULED_TASK: Load scheduler "s035" with entities [EventEntity, EventEntity], work=[897*, 0*]
292: 0x0B53 [0x2B] Valaineral R Davilles (ID: 17105290/0x0105018A) [15821*]:
    → "I have heard that it serves as a burial ground for the countless knights that have fallen in battle over the years under the kingdom's banner."
293: 0x0B5A [0x23] WAIT_FOR_DIALOG_INTERACTION
294: 0x0B5B [0x2B] Valaineral R Davilles (ID: 17105290/0x0105018A) [15822*]:
    → "I spoke with both the grave keeper and also a gravedigger at the site and they mentioned that some sort of "egg" had been excavated there."
295: 0x0B62 [0x23] WAIT_FOR_DIALOG_INTERACTION
296: 0x0B63 [0x1A] CALL_SUBROUTINE(address=0x0064)
297: 0x0B66 [0x52] END_LOAD_SCHEDULER: End scheduler "s035" with entities [EventEntity, EventEntity], work=897*
298: 0x0B75 [0x02] IF !(ExtData[1]->WorkLocal[2] == 0*) GOTO 0x0B8A
299: 0x0B7D [0x34] LOAD_UNLOAD_ZONE(zone_id=175*)
300: 0x0B80 [0x77] SET_EVENT_TIME_WEATHER(hour=18*, weather=2*)
301: 0x0B85 [0x22] ENTITY_HIDE_FLAG(enabled=0x00)
302: 0x0B87 [0x1C] WAIT(30* ticks)
303: 0x0B8A [0x2F] Unnamed NPC (ID: 17105708/0x0105032C)->Render.Flags0 &= ~0x80000 // Bit 19
304: 0x0B90 [0x4E] SET_ENTITY_HIDE_FLAG: Show Unnamed NPC (ID: 17105708/0x0105032C)
305: 0x0B96 [0x80] LOAD_WAIT(entity=Unnamed NPC (ID: 17105708/0x0105032C))
306: 0x0B9B [0x94] Unnamed NPC (ID: 17105708/0x0105032C)->Render.Flags3 ^= 0x01
307: 0x0BA1 [0x59] UPDATE_ENTITY_DATA: Unnamed NPC (ID: 17105708/0x0105032C)->Render.Flags0 |= 0x200000
308: 0x0BA8 [0xBA] SET_ENTITY_POSITION(entity_id=Unnamed NPC (ID: 17105708/0x0105032C), pos_x=-252.820*, pos_z=108.947*, pos_y=0.497*, direction=335.0°*)
309: 0x0BB5 [0xD8] SET_ENTITY_EVENT_DIR: Set Unnamed NPC (ID: 17105708/0x0105032C) EventDir[0] = 0*
310: 0x0BBD [0xD8] SET_ENTITY_EVENT_DIR: Set Unnamed NPC (ID: 17105708/0x0105032C) EventDir[1] = 0*
311: 0x0BC5 [0xD8] SET_ENTITY_EVENT_DIR: Set Unnamed NPC (ID: 17105708/0x0105032C) EventDir[2] = 4294966196*
312: 0x0BCD [0x45] LOAD_SCHEDULED_TASK: Load scheduler "s034" with entities [EventEntity, EventEntity], work=[897*, 0*]
313: 0x0BDE [0x1A] CALL_SUBROUTINE(address=0x01D8)
314: 0x0BE1 [0x2B] Valaineral R Davilles (ID: 17105290/0x0105018A) [15823*]:
    → "Since it is of unknown origin, it was determined that it was too dangerous to move. Therefore, it still remains deep within the Necropolis."
315: 0x0BE8 [0x23] WAIT_FOR_DIALOG_INTERACTION
316: 0x0BE9 [0x52] END_LOAD_SCHEDULER: End scheduler "s034" with entities [EventEntity, EventEntity], work=897*
317: 0x0BF8 [0x45] LOAD_SCHEDULED_TASK: Load scheduler "s040" with entities [EventEntity, EventEntity], work=[897*, 0*]
318: 0x0C09 [0x2B] Valaineral R Davilles (ID: 17105290/0x0105018A) [15824*]:
    → "Naturally, there is not enough information to say with certainty that this is the "World Eater Egg" that everyone is talking about."
319: 0x0C10 [0x23] WAIT_FOR_DIALOG_INTERACTION
320: 0x0C11 [0x1A] CALL_SUBROUTINE(address=0x0064)
321: 0x0C14 [0x52] END_LOAD_SCHEDULER: End scheduler "s040" with entities [EventEntity, EventEntity], work=897*
322: 0x0C23 [0x02] IF !(ExtData[1]->WorkLocal[2] == 0*) GOTO 0x0C32
323: 0x0C2B [0x35] LOAD_ZONE_NO_CLOSE(zone_id=80*)
324: 0x0C2E [0x78] ENABLE_GAME_TIMER_RESET_WEATHER()
325: 0x0C2F [0x1C] WAIT(15* ticks)
326: 0x0C32 [0x01] GOTO 0x0C4F
327: 0x0C35 [0xBA] SET_ENTITY_POSITION(entity_id=Valaineral R Davilles (ID: 17105290/0x0105018A), pos_x=-32.204*, pos_z=23.585*, pos_y=0.000*, direction=99.5°*)
328: 0x0C42 [0xBA] SET_ENTITY_POSITION(entity_id=LocalPlayer, pos_x=-32.398*, pos_z=25.538*, pos_y=0.000*, direction=52.4°*)

SUBROUTINE_0C4F:
329: 0x0C4F [0x22] ENTITY_HIDE_FLAG(enabled=0x00)
330: 0x0C51 [0x4E] SET_ENTITY_HIDE_FLAG: Show Valaineral R Davilles (ID: 17105290/0x0105018A)
331: 0x0C57 [0x4E] SET_ENTITY_HIDE_FLAG: Show LocalPlayer
332: 0x0C5D [0x80] LOAD_WAIT(entity=Valaineral R Davilles (ID: 17105290/0x0105018A))
333: 0x0C62 [0x80] LOAD_WAIT(entity=LocalPlayer)
334: 0x0C67 [0x02] IF !(Work_Zone[9] == 5*) GOTO 0x0C83
335: 0x0C6F [0x4B] UPDATE_ENTITY_YAW(entity=LocalPlayer, yaw=6.0°*)
336: 0x0C76 [0x79] LocalPlayer looks at Valaineral R Davilles (ID: 17105290/0x0105018A) (Basic look)
337: 0x0C80 [0x01] GOTO 0x0CA8
338: 0x0C83 [0x02] IF !(Work_Zone[9] == 6*) GOTO 0x0C9F
339: 0x0C8B [0x4B] UPDATE_ENTITY_YAW(entity=LocalPlayer, yaw=6.0°*)
340: 0x0C92 [0x79] LocalPlayer looks at Valaineral R Davilles (ID: 17105290/0x0105018A) (Basic look)
341: 0x0C9C [0x01] GOTO 0x0CA8
342: 0x0C9F [0x4A] LocalPlayer looks at Valaineral R Davilles (ID: 17105290/0x0105018A)

SUBROUTINE_0CA8:
343: 0x0CA8 [0x4A] Valaineral R Davilles (ID: 17105290/0x0105018A) looks at LocalPlayer
344: 0x0CB1 [0x6F] WAIT_FRAME_DELAY: Yield until WaitTime reaches zero
345: 0x0CB2 [0x76] CHECK_ENTITY_RENDER_FLAGS: Wait until LocalPlayer Render.Flags0 and Render.Flags3 conditions are met
346: 0x0CB7 [0x6F] WAIT_FRAME_DELAY: Yield until WaitTime reaches zero
347: 0x0CB8 [0x76] CHECK_ENTITY_RENDER_FLAGS: Wait until Valaineral R Davilles (ID: 17105290/0x0105018A) Render.Flags0 and Render.Flags3 conditions are met
348: 0x0CBD [0x7B] Valaineral R Davilles (ID: 17105290/0x0105018A) stops talking
349: 0x0CC2 [0x29] REQ_SET_WAIT(priority=0x0F, entity_id=Valaineral R Davilles (ID: 17105290/0x0105018A), tag_num=0x0F)
350: 0x0CC9 [0x5D] SET_MUSIC_VOLUME(volume=127*, fade_time=300*)
351: 0x0CCE [0x45] LOAD_SCHEDULED_TASK: Load scheduler "s038" with entities [EventEntity, EventEntity], work=[897*, 0*]
352: 0x0CDF [0x1A] CALL_SUBROUTINE(address=0x0043)
353: 0x0CE2 [0x29] REQ_SET_WAIT(priority=0x0F, entity_id=Valaineral R Davilles (ID: 17105290/0x0105018A), tag_num=0x11)
354: 0x0CE9 [0x2B] Valaineral R Davilles (ID: 17105290/0x0105018A) [15825*]:
    → "However, we recently received word that the Confederate forces' elite troops have infiltrated Batallia Downs."
355: 0x0CF0 [0x23] WAIT_FOR_DIALOG_INTERACTION
356: 0x0CF1 [0x2B] Valaineral R Davilles (ID: 17105290/0x0105018A) [15826*]:
    → "If that is true, we had to assume that they were after this "World Eater Egg" as well."
357: 0x0CF8 [0x23] WAIT_FOR_DIALOG_INTERACTION
358: 0x0CF9 [0x52] END_LOAD_SCHEDULER: End scheduler "s038" with entities [EventEntity, EventEntity], work=897*
359: 0x0D08 [0x02] IF !(Work_Zone[9] == 3*) GOTO 0x0D24
360: 0x0D10 [0x45] LOAD_SCHEDULED_TASK: Load scheduler "s042" with entities [EventEntity, EventEntity], work=[897*, 0*]
361: 0x0D21 [0x01] GOTO 0x0D89
362: 0x0D24 [0x02] IF !(Work_Zone[9] == 5*) GOTO 0x0D40
363: 0x0D2C [0x45] LOAD_SCHEDULED_TASK: Load scheduler "s049" with entities [EventEntity, EventEntity], work=[897*, 0*]
364: 0x0D3D [0x01] GOTO 0x0D89
365: 0x0D40 [0x02] IF !(Work_Zone[9] == 6*) GOTO 0x0D5C
366: 0x0D48 [0x45] LOAD_SCHEDULED_TASK: Load scheduler "s049" with entities [EventEntity, EventEntity], work=[897*, 0*]
367: 0x0D59 [0x01] GOTO 0x0D89
368: 0x0D5C [0x02] IF !(Work_Zone[9] == 8*) GOTO 0x0D78
369: 0x0D64 [0x45] LOAD_SCHEDULED_TASK: Load scheduler "s042" with entities [EventEntity, EventEntity], work=[897*, 0*]
370: 0x0D75 [0x01] GOTO 0x0D89
371: 0x0D78 [0x45] LOAD_SCHEDULED_TASK: Load scheduler "s055" with entities [EventEntity, EventEntity], work=[897*, 0*]

SUBROUTINE_0D89:
372: 0x0D89 [0x2B] Valaineral R Davilles (ID: 17105290/0x0105018A) [15827*]:
    → "Once we made that determination, our mobile unit known as the Knights of the Red Rose immediately set out for the Eldieme Necropolis."
373: 0x0D90 [0x23] WAIT_FOR_DIALOG_INTERACTION
374: 0x0D91 [0x29] REQ_SET_WAIT(priority=0x0F, entity_id=Valaineral R Davilles (ID: 17105290/0x0105018A), tag_num=0x12)
375: 0x0D98 [0x7B] Valaineral R Davilles (ID: 17105290/0x0105018A) stops talking
376: 0x0D9D [0x27] REQ_SET(priority=0x0F, entity_id=Valaineral R Davilles (ID: 17105290/0x0105018A), tag_num=0x15)
377: 0x0DA4 [0x2B] Valaineral R Davilles (ID: 17105290/0x0105018A) [15828*]:
    → "Unfortunately, they were ambushed by an enemy unit lurking in the area and their advance is currently at a standstill."
378: 0x0DAB [0x23] WAIT_FOR_DIALOG_INTERACTION
379: 0x0DAC [0x2A] GET_REQ_LEVEL(level=15, entity_id=Valaineral R Davilles (ID: 17105290/0x0105018A))
380: 0x0DB2 [0x02] IF !(Work_Zone[9] == 3*) GOTO 0x0DCC
381: 0x0DBA [0x52] END_LOAD_SCHEDULER: End scheduler "s042" with entities [EventEntity, EventEntity], work=897*
382: 0x0DC9 [0x01] GOTO 0x0E29
383: 0x0DCC [0x02] IF !(Work_Zone[9] == 5*) GOTO 0x0DE6
384: 0x0DD4 [0x52] END_LOAD_SCHEDULER: End scheduler "s049" with entities [EventEntity, EventEntity], work=897*
385: 0x0DE3 [0x01] GOTO 0x0E29
386: 0x0DE6 [0x02] IF !(Work_Zone[9] == 6*) GOTO 0x0E00
387: 0x0DEE [0x52] END_LOAD_SCHEDULER: End scheduler "s049" with entities [EventEntity, EventEntity], work=897*
388: 0x0DFD [0x01] GOTO 0x0E29
389: 0x0E00 [0x02] IF !(Work_Zone[9] == 8*) GOTO 0x0E1A
390: 0x0E08 [0x52] END_LOAD_SCHEDULER: End scheduler "s042" with entities [EventEntity, EventEntity], work=897*
391: 0x0E17 [0x01] GOTO 0x0E29
392: 0x0E1A [0x52] END_LOAD_SCHEDULER: End scheduler "s055" with entities [EventEntity, EventEntity], work=897*

SUBROUTINE_0E29:
393: 0x0E29 [0x02] IF !(Work_Zone[9] == 3*) GOTO 0x0E45
394: 0x0E31 [0x45] LOAD_SCHEDULED_TASK: Load scheduler "s039" with entities [EventEntity, EventEntity], work=[897*, 0*]
395: 0x0E42 [0x01] GOTO 0x0EC6
396: 0x0E45 [0x02] IF !(Work_Zone[9] == 4*) GOTO 0x0E61
397: 0x0E4D [0x45] LOAD_SCHEDULED_TASK: Load scheduler "s039" with entities [EventEntity, EventEntity], work=[897*, 0*]
398: 0x0E5E [0x01] GOTO 0x0EC6
399: 0x0E61 [0x02] IF !(Work_Zone[9] == 5*) GOTO 0x0E7D
400: 0x0E69 [0x45] LOAD_SCHEDULED_TASK: Load scheduler "s050" with entities [EventEntity, EventEntity], work=[897*, 0*]
401: 0x0E7A [0x01] GOTO 0x0EC6
402: 0x0E7D [0x02] IF !(Work_Zone[9] == 6*) GOTO 0x0E99
403: 0x0E85 [0x45] LOAD_SCHEDULED_TASK: Load scheduler "s050" with entities [EventEntity, EventEntity], work=[897*, 0*]
404: 0x0E96 [0x01] GOTO 0x0EC6
405: 0x0E99 [0x02] IF !(Work_Zone[9] == 8*) GOTO 0x0EB5
406: 0x0EA1 [0x45] LOAD_SCHEDULED_TASK: Load scheduler "s039" with entities [EventEntity, EventEntity], work=[897*, 0*]
407: 0x0EB2 [0x01] GOTO 0x0EC6
408: 0x0EB5 [0x45] LOAD_SCHEDULED_TASK: Load scheduler "s056" with entities [EventEntity, EventEntity], work=[897*, 0*]

SUBROUTINE_0EC6:
409: 0x0EC6 [0x79] Valaineral R Davilles (ID: 17105290/0x0105018A) looks at LocalPlayer (Basic look)
410: 0x0ED0 [0x29] REQ_SET_WAIT(priority=0x0F, entity_id=Valaineral R Davilles (ID: 17105290/0x0105018A), tag_num=0x05)
411: 0x0ED7 [0x2B] Valaineral R Davilles (ID: 17105290/0x0105018A) [15829*]:
    → "That is why we need your help. You must reach the "World Eater Egg" before the Confederate forces do!"
412: 0x0EDE [0x23] WAIT_FOR_DIALOG_INTERACTION
413: 0x0EDF [0x2B] Valaineral R Davilles (ID: 17105290/0x0105018A) [15830*]:
    → "I want you to keep an eye on the "World Eater Egg" until Noillurie and her knights can get there."
414: 0x0EE6 [0x23] WAIT_FOR_DIALOG_INTERACTION
415: 0x0EE7 [0x29] REQ_SET_WAIT(priority=0x0F, entity_id=Valaineral R Davilles (ID: 17105290/0x0105018A), tag_num=0x06)
416: 0x0EEE [0x29] REQ_SET_WAIT(priority=0x0F, entity_id=Valaineral R Davilles (ID: 17105290/0x0105018A), tag_num=0x07)
417: 0x0EF5 [0x24] CREATE_DIALOG(message_id=15831*, default_option=0*, option_flags=0*)
    → "Inquire about what? [Who is Noillurie?/I just need to watch it?/Where will you be?]"
418: 0x0EFC [0x25] WAIT_DIALOG_SELECT()
419: 0x0EFD [0x02] IF !(Work_Zone[0] == 0*) GOTO 0x0FEF
420: 0x0F05 [0x29] REQ_SET_WAIT(priority=0x0F, entity_id=LocalPlayer, tag_num=0x1D)
421: 0x0F0C [0x1C] WAIT(90* ticks)
422: 0x0F0F [0x29] REQ_SET_WAIT(priority=0x0F, entity_id=LocalPlayer, tag_num=0x1E)
423: 0x0F16 [0x02] IF !(Work_Zone[9] == 3*) GOTO 0x0F30
424: 0x0F1E [0x52] END_LOAD_SCHEDULER: End scheduler "s039" with entities [EventEntity, EventEntity], work=897*
425: 0x0F2D [0x01] GOTO 0x0FA7
426: 0x0F30 [0x02] IF !(Work_Zone[9] == 4*) GOTO 0x0F4A
427: 0x0F38 [0x52] END_LOAD_SCHEDULER: End scheduler "s039" with entities [EventEntity, EventEntity], work=897*
428: 0x0F47 [0x01] GOTO 0x0FA7
429: 0x0F4A [0x02] IF !(Work_Zone[9] == 5*) GOTO 0x0F64
430: 0x0F52 [0x52] END_LOAD_SCHEDULER: End scheduler "s050" with entities [EventEntity, EventEntity], work=897*
431: 0x0F61 [0x01] GOTO 0x0FA7
432: 0x0F64 [0x02] IF !(Work_Zone[9] == 6*) GOTO 0x0F7E
433: 0x0F6C [0x52] END_LOAD_SCHEDULER: End scheduler "s050" with entities [EventEntity, EventEntity], work=897*
434: 0x0F7B [0x01] GOTO 0x0FA7
435: 0x0F7E [0x02] IF !(Work_Zone[9] == 8*) GOTO 0x0F98
436: 0x0F86 [0x52] END_LOAD_SCHEDULER: End scheduler "s039" with entities [EventEntity, EventEntity], work=897*
437: 0x0F95 [0x01] GOTO 0x0FA7
438: 0x0F98 [0x52] END_LOAD_SCHEDULER: End scheduler "s056" with entities [EventEntity, EventEntity], work=897*

SUBROUTINE_0FA7:
439: 0x0FA7 [0x45] LOAD_SCHEDULED_TASK: Load scheduler "s038" with entities [EventEntity, EventEntity], work=[897*, 0*]
440: 0x0FB8 [0x29] REQ_SET_WAIT(priority=0x0F, entity_id=Valaineral R Davilles (ID: 17105290/0x0105018A), tag_num=0x0F)
441: 0x0FBF [0x2B] Valaineral R Davilles (ID: 17105290/0x0105018A) [15832*]:
    → "She is the leader of the Knights of the Red Rose. Having studied the art of bushido in the Far East, she wears somewhat unusual armor."
442: 0x0FC6 [0x23] WAIT_FOR_DIALOG_INTERACTION
443: 0x0FC7 [0x2B] Valaineral R Davilles (ID: 17105290/0x0105018A) [15833*]:
    → "The weapon she carries at her waist is also quite special. There is no mistaking her once you see her."
444: 0x0FCE [0x23] WAIT_FOR_DIALOG_INTERACTION
445: 0x0FCF [0x29] REQ_SET_WAIT(priority=0x0F, entity_id=Valaineral R Davilles (ID: 17105290/0x0105018A), tag_num=0x10)
446: 0x0FD6 [0x29] REQ_SET_WAIT(priority=0x0F, entity_id=Valaineral R Davilles (ID: 17105290/0x0105018A), tag_num=0x11)
447: 0x0FDD [0x52] END_LOAD_SCHEDULER: End scheduler "s038" with entities [EventEntity, EventEntity], work=897*
448: 0x0FEC [0x01] GOTO 0x1180
449: 0x0FEF [0x02] IF !(Work_Zone[0] == 1*) GOTO 0x10E1
450: 0x0FF7 [0x29] REQ_SET_WAIT(priority=0x0F, entity_id=LocalPlayer, tag_num=0x1D)
451: 0x0FFE [0x1C] WAIT(90* ticks)
452: 0x1001 [0x29] REQ_SET_WAIT(priority=0x0F, entity_id=LocalPlayer, tag_num=0x1E)
453: 0x1008 [0x02] IF !(Work_Zone[9] == 3*) GOTO 0x1022
454: 0x1010 [0x52] END_LOAD_SCHEDULER: End scheduler "s039" with entities [EventEntity, EventEntity], work=897*
455: 0x101F [0x01] GOTO 0x1099
456: 0x1022 [0x02] IF !(Work_Zone[9] == 4*) GOTO 0x103C
457: 0x102A [0x52] END_LOAD_SCHEDULER: End scheduler "s039" with entities [EventEntity, EventEntity], work=897*
458: 0x1039 [0x01] GOTO 0x1099
459: 0x103C [0x02] IF !(Work_Zone[9] == 5*) GOTO 0x1056
460: 0x1044 [0x52] END_LOAD_SCHEDULER: End scheduler "s050" with entities [EventEntity, EventEntity], work=897*
461: 0x1053 [0x01] GOTO 0x1099
462: 0x1056 [0x02] IF !(Work_Zone[9] == 6*) GOTO 0x1070
463: 0x105E [0x52] END_LOAD_SCHEDULER: End scheduler "s050" with entities [EventEntity, EventEntity], work=897*
464: 0x106D [0x01] GOTO 0x1099
465: 0x1070 [0x02] IF !(Work_Zone[9] == 8*) GOTO 0x108A
466: 0x1078 [0x52] END_LOAD_SCHEDULER: End scheduler "s039" with entities [EventEntity, EventEntity], work=897*
467: 0x1087 [0x01] GOTO 0x1099
468: 0x108A [0x52] END_LOAD_SCHEDULER: End scheduler "s056" with entities [EventEntity, EventEntity], work=897*

SUBROUTINE_1099:
469: 0x1099 [0x45] LOAD_SCHEDULED_TASK: Load scheduler "s038" with entities [EventEntity, EventEntity], work=[897*, 0*]
470: 0x10AA [0x29] REQ_SET_WAIT(priority=0x0F, entity_id=Valaineral R Davilles (ID: 17105290/0x0105018A), tag_num=0x0F)
471: 0x10B1 [0x2B] Valaineral R Davilles (ID: 17105290/0x0105018A) [15834*]:
    → "It may be necessary for us to destroy this "World Eater Egg" before it can cause any harm."
472: 0x10B8 [0x23] WAIT_FOR_DIALOG_INTERACTION
473: 0x10B9 [0x2B] Valaineral R Davilles (ID: 17105290/0x0105018A) [15835*]:
    → "If possible though, we would like to find out its true origin and purpose, but I am leaving that decision to Noillurie and her knights."
474: 0x10C0 [0x23] WAIT_FOR_DIALOG_INTERACTION
475: 0x10C1 [0x29] REQ_SET_WAIT(priority=0x0F, entity_id=Valaineral R Davilles (ID: 17105290/0x0105018A), tag_num=0x10)
476: 0x10C8 [0x29] REQ_SET_WAIT(priority=0x0F, entity_id=Valaineral R Davilles (ID: 17105290/0x0105018A), tag_num=0x11)
477: 0x10CF [0x52] END_LOAD_SCHEDULER: End scheduler "s038" with entities [EventEntity, EventEntity], work=897*
478: 0x10DE [0x01] GOTO 0x1180
479: 0x10E1 [0x02] IF !(Work_Zone[0] == 2*) GOTO 0x1180
480: 0x10E9 [0x29] REQ_SET_WAIT(priority=0x0F, entity_id=LocalPlayer, tag_num=0x1D)
481: 0x10F0 [0x1C] WAIT(90* ticks)
482: 0x10F3 [0x29] REQ_SET_WAIT(priority=0x0F, entity_id=LocalPlayer, tag_num=0x1E)
483: 0x10FA [0x52] END_LOAD_SCHEDULER: End scheduler "s039" with entities [EventEntity, EventEntity], work=897*
484: 0x1109 [0x45] LOAD_SCHEDULED_TASK: Load scheduler "s038" with entities [EventEntity, EventEntity], work=[897*, 0*]
485: 0x111A [0x29] REQ_SET_WAIT(priority=0x0F, entity_id=Valaineral R Davilles (ID: 17105290/0x0105018A), tag_num=0x0F)
486: 0x1121 [0x2B] Valaineral R Davilles (ID: 17105290/0x0105018A) [15836*]:
    → "I must remain here and follow the movements of the Confederate forces so that we can keep abreast of the battle situation."
487: 0x1128 [0x23] WAIT_FOR_DIALOG_INTERACTION
488: 0x1129 [0x2B] Valaineral R Davilles (ID: 17105290/0x0105018A) [15837*]:
    → "At the moment, I am also awaiting new information relating to this "World Eater Egg.""
489: 0x1130 [0x23] WAIT_FOR_DIALOG_INTERACTION
490: 0x1131 [0x29] REQ_SET_WAIT(priority=0x0F, entity_id=Valaineral R Davilles (ID: 17105290/0x0105018A), tag_num=0x10)
491: 0x1138 [0x52] END_LOAD_SCHEDULER: End scheduler "s038" with entities [EventEntity, EventEntity], work=897*
492: 0x1147 [0x45] LOAD_SCHEDULED_TASK: Load scheduler "s043" with entities [EventEntity, EventEntity], work=[897*, 0*]
493: 0x1158 [0x29] REQ_SET_WAIT(priority=0x0F, entity_id=Valaineral R Davilles (ID: 17105290/0x0105018A), tag_num=0x11)
494: 0x115F [0x2B] Valaineral R Davilles (ID: 17105290/0x0105018A) [15838*]:
    → "The source of this information is a mercenary known as Duskraven. We know next to nothing about this man, so we still have much to learn..."
495: 0x1166 [0x23] WAIT_FOR_DIALOG_INTERACTION
496: 0x1167 [0x29] REQ_SET_WAIT(priority=0x0F, entity_id=Valaineral R Davilles (ID: 17105290/0x0105018A), tag_num=0x12)
497: 0x116E [0x52] END_LOAD_SCHEDULER: End scheduler "s043" with entities [EventEntity, EventEntity], work=897*
498: 0x117D [0x01] GOTO 0x1180

SUBROUTINE_1180:
499: 0x1180 [0x02] IF !(Work_Zone[9] == 5*) GOTO 0x119C
500: 0x1188 [0x45] LOAD_SCHEDULED_TASK: Load scheduler "s051" with entities [EventEntity, EventEntity], work=[897*, 0*]
501: 0x1199 [0x01] GOTO 0x11C9
502: 0x119C [0x02] IF !(Work_Zone[9] == 6*) GOTO 0x11B8
503: 0x11A4 [0x45] LOAD_SCHEDULED_TASK: Load scheduler "s051" with entities [EventEntity, EventEntity], work=[897*, 0*]
504: 0x11B5 [0x01] GOTO 0x11C9
505: 0x11B8 [0x45] LOAD_SCHEDULED_TASK: Load scheduler "s041" with entities [EventEntity, EventEntity], work=[897*, 0*]

SUBROUTINE_11C9:
506: 0x11C9 [0x27] REQ_SET(priority=0x0F, entity_id=Valaineral R Davilles (ID: 17105290/0x0105018A), tag_num=0x15)
507: 0x11D0 [0x2B] Valaineral R Davilles (ID: 17105290/0x0105018A) [15839*]:
    → "Now then, this is no time for idle conversation. You must make preparations for your journey at once."
508: 0x11D7 [0x23] WAIT_FOR_DIALOG_INTERACTION
509: 0x11D8 [0x2A] GET_REQ_LEVEL(level=15, entity_id=Valaineral R Davilles (ID: 17105290/0x0105018A))
510: 0x11DE [0x2B] Valaineral R Davilles (ID: 17105290/0x0105018A) [15840*]:
    → "In order to reach your destination, you will need to enter the Eldieme Necropolis from a barrow that lies in the center of Batallia Downs."
511: 0x11E5 [0x23] WAIT_FOR_DIALOG_INTERACTION
512: 0x11E6 [0x02] IF !(Work_Zone[9] == 5*) GOTO 0x1200
513: 0x11EE [0x52] END_LOAD_SCHEDULER: End scheduler "s051" with entities [EventEntity, EventEntity], work=897*
514: 0x11FD [0x01] GOTO 0x1229
515: 0x1200 [0x02] IF !(Work_Zone[9] == 6*) GOTO 0x121A
516: 0x1208 [0x52] END_LOAD_SCHEDULER: End scheduler "s051" with entities [EventEntity, EventEntity], work=897*
517: 0x1217 [0x01] GOTO 0x1229
518: 0x121A [0x52] END_LOAD_SCHEDULER: End scheduler "s041" with entities [EventEntity, EventEntity], work=897*

SUBROUTINE_1229:
519: 0x1229 [0x02] IF !(Work_Zone[9] == 5*) GOTO 0x1245
520: 0x1231 [0x45] LOAD_SCHEDULED_TASK: Load scheduler "s052" with entities [EventEntity, EventEntity], work=[897*, 0*]
521: 0x1242 [0x01] GOTO 0x1272
522: 0x1245 [0x02] IF !(Work_Zone[9] == 6*) GOTO 0x1261
523: 0x124D [0x45] LOAD_SCHEDULED_TASK: Load scheduler "s052" with entities [EventEntity, EventEntity], work=[897*, 0*]
524: 0x125E [0x01] GOTO 0x1272
525: 0x1261 [0x45] LOAD_SCHEDULED_TASK: Load scheduler "s037" with entities [EventEntity, EventEntity], work=[897*, 0*]

SUBROUTINE_1272:
526: 0x1272 [0x27] REQ_SET(priority=0x0F, entity_id=Valaineral R Davilles (ID: 17105290/0x0105018A), tag_num=0x14)
527: 0x1279 [0x2B] Valaineral R Davilles (ID: 17105290/0x0105018A) [15841*]:
    → "There is a strong possibility that you will encounter the Confederate unit. I recommend that you proceed with caution."
528: 0x1280 [0x23] WAIT_FOR_DIALOG_INTERACTION
529: 0x1281 [0x2A] GET_REQ_LEVEL(level=15, entity_id=Valaineral R Davilles (ID: 17105290/0x0105018A))
530: 0x1287 [0xD8] SET_ENTITY_EVENT_DIR: Copy Unnamed NPC (ID: 17105708/0x0105032C) LastPosition to EventDir
531: 0x128D [0x03] Work_Zone[1] = 0*

SUBROUTINE_1292:
532: 0x1292 [0x5D] SET_MUSIC_VOLUME(volume=0*, fade_time=300*)
533: 0x1297 [0x1A] CALL_SUBROUTINE(address=0x0064)
534: 0x129A [0x02] IF !(Work_Zone[9] == 5*) GOTO 0x12B4
535: 0x12A2 [0x52] END_LOAD_SCHEDULER: End scheduler "s052" with entities [EventEntity, EventEntity], work=897*
536: 0x12B1 [0x01] GOTO 0x12DD
537: 0x12B4 [0x02] IF !(Work_Zone[9] == 6*) GOTO 0x12CE
538: 0x12BC [0x52] END_LOAD_SCHEDULER: End scheduler "s052" with entities [EventEntity, EventEntity], work=897*
539: 0x12CB [0x01] GOTO 0x12DD
540: 0x12CE [0x52] END_LOAD_SCHEDULER: End scheduler "s037" with entities [EventEntity, EventEntity], work=897*

SUBROUTINE_12DD:
541: 0x12DD [0x5C] MUSIC_CONTROL: Set Idle (Day) music to song 254*
542: 0x12E1 [0x5C] MUSIC_CONTROL: Set Idle (Night) music to song 254*
543: 0x12E5 [0x9A] WAIT_MUSIC_SERVER()
544: 0x12E6 [0x5D] SET_MUSIC_VOLUME(volume=127*, fade_time=1*)
545: 0x12EB [0x1C] WAIT(15* ticks)
546: 0x12EE [0xAB] EventEntity->DespawnValue = 0* // Set despawn value
547: 0x12F2 [0x1C] WAIT(1* ticks)
548: 0x12F5 [0x46] CAMERA_CONTROL: Restore default settings
549: 0x12F7 [0x45] LOAD_SCHEDULED_TASK: Load scheduler "fdi2" with entities [EventEntity, EventEntity], work=[200*, 0*]
550: 0x1308 [0x21] END_EVENT
551: 0x1309 [0x00] END_REQSTACK()
```

#### Data or dead code:

```
# Dead code (unreachable instructions):
     0x0681 [0x01] GOTO 0x0684
```

### Event 187

#### Metadata

| Field        | Value      |
|--------------|------------|
| Entrypoint   | 0x130A     |
| Data Size    | 2238 bytes |
| Instructions | 283        |

```
      00 01 02 03 04 05 06 07  08 09 0A 0B 0C 0D 0E 0F
      -- -- -- -- -- -- -- --  -- -- -- -- -- -- -- --
1300:                                42 03 01 00 03 10            B.....
1310: 5D 01 80 08 80 1A 64 00  46 01 38 09 80 4E 00 8A  ].....d.F.8..N..
1320: 01 05 01 4E 00 EE 01 05  01 4E 00 EF 01 05 01 92  ...N.....N......
1330: 01 8A 01 05 01 92 01 EE  01 05 01 92 01 EF 01 05  ................
1340: 01 94 01 8A 01 05 01 94  01 EE 01 05 01 94 01 EF  ................
1350: 01 05 01 94 01 F0 FF FF  7F BA 8A 01 05 01 47 80  ..............G.
1360: 48 80 01 80 49 80 BA EE  01 05 01 0D 80 0E 80 0F  H...I...........
1370: 80 10 80 BA EF 01 05 01  11 80 12 80 0F 80 13 80  ................
1380: 29 0F F0 FF FF 7F 31 02  09 10 20 80 00 9F 13 BA  ).....1... .....
1390: F0 FF FF 7F 5F 80 60 80  01 80 61 80 01 C4 13 02  ...._.`...a.....
13A0: 09 10 21 80 00 B7 13 BA  F0 FF FF 7F 5F 80 60 80  ..!........._.`.
13B0: 01 80 61 80 01 C4 13 BA  F0 FF FF 7F 4A 80 4B 80  ..a.........J.K.
13C0: 01 80 62 80 80 8A 01 05  01 80 EE 01 05 01 80 EF  ..b.............
13D0: 01 05 01 80 F0 FF FF 7F  5C 00 63 80 5C 01 63 80  ........\.c.\.c.
13E0: 9A 5D 18 80 03 80 4A 8A  01 05 01 F0 FF FF 7F 4A  .]....J........J
13F0: F0 FF FF 7F 8A 01 05 01  6F 76 8A 01 05 01 6F 76  ........ov....ov
1400: F0 FF FF 7F 1C 28 80 02  09 10 20 80 00 23 14 45  .....(.... ..#.E
1410: 19 80 F8 FF FF 7F F8 FF  FF 7F 73 30 35 38 01 80  ..........s058..
1420: 01 50 14 02 09 10 21 80  00 3F 14 45 19 80 F8 FF  .P....!..?.E....
1430: FF 7F F8 FF FF 7F 73 30  35 38 01 80 01 50 14 45  ......s058...P.E
1440: 19 80 F8 FF FF 7F F8 FF  FF 7F 73 30 33 38 01 80  ..........s038..
1450: 1A 43 00 29 0F 8A 01 05  01 0F 2B 8A 01 05 01 64  .C.)......+....d
1460: 80 23 02 09 10 20 80 00  7C 14 52 19 80 F8 FF FF  .#... ..|.R.....
1470: 7F F8 FF FF 7F 73 30 35  38 01 A5 14 02 09 10 21  .....s058......!
1480: 80 00 96 14 52 19 80 F8  FF FF 7F F8 FF FF 7F 73  ....R..........s
1490: 30 35 38 01 A5 14 52 19  80 F8 FF FF 7F F8 FF FF  058...R.........
14A0: 7F 73 30 33 38 02 09 10  1F 80 00 C1 14 45 19 80  .s038........E..
14B0: F8 FF FF 7F F8 FF FF 7F  73 30 34 32 01 80 01 26  ........s042...&
14C0: 15 02 09 10 20 80 00 DD  14 45 19 80 F8 FF FF 7F  .... ....E......
14D0: F8 FF FF 7F 73 30 34 39  01 80 01 26 15 02 09 10  ....s049...&....
14E0: 21 80 00 F9 14 45 19 80  F8 FF FF 7F F8 FF FF 7F  !....E..........
14F0: 73 30 34 39 01 80 01 26  15 02 09 10 22 80 00 15  s049...&...."...
1500: 15 45 19 80 F8 FF FF 7F  F8 FF FF 7F 73 30 34 32  .E..........s042
1510: 01 80 01 26 15 45 19 80  F8 FF FF 7F F8 FF FF 7F  ...&.E..........
1520: 73 30 35 35 01 80 2B 8A  01 05 01 65 80 23 29 0F  s055..+....e.#).
1530: 8A 01 05 01 10 29 0F 8A  01 05 01 11 2B 8A 01 05  .....)......+...
1540: 01 66 80 23 29 0F 8A 01  05 01 12 29 0F F0 FF FF  .f.#)......)....
1550: 7F 1D 1C 1D 80 1A 64 00  02 09 10 1F 80 00 72 15  ......d.......r.
1560: 52 19 80 F8 FF FF 7F F8  FF FF 7F 73 30 34 32 01  R..........s042.
1570: CF 15 02 09 10 20 80 00  8C 15 52 19 80 F8 FF FF  ..... ....R.....
1580: 7F F8 FF FF 7F 73 30 34  39 01 CF 15 02 09 10 21  .....s049......!
1590: 80 00 A6 15 52 19 80 F8  FF FF 7F F8 FF FF 7F 73  ....R..........s
15A0: 30 34 39 01 CF 15 02 09  10 22 80 00 C0 15 52 19  049......"....R.
15B0: 80 F8 FF FF 7F F8 FF FF  7F 73 30 34 32 01 CF 15  .........s042...
15C0: 52 19 80 F8 FF FF 7F F8  FF FF 7F 73 30 35 35 29  R..........s055)
15D0: 0F 8A 01 05 01 01 29 0F  8A 01 05 01 02 45 19 80  ......)......E..
15E0: F8 FF FF 7F F8 FF FF 7F  73 30 34 33 01 80 29 0F  ........s043..).
15F0: F0 FF FF 7F 1E 1A 43 00  2B 8A 01 05 01 67 80 23  ......C.+....g.#
1600: 52 19 80 F8 FF FF 7F F8  FF FF 7F 73 30 34 33 02  R..........s043.
1610: 09 10 20 80 00 2B 16 45  19 80 F8 FF FF 7F F8 FF  .. ..+.E........
1620: FF 7F 73 30 35 32 01 80  01 58 16 02 09 10 21 80  ..s052...X....!.
1630: 00 47 16 45 19 80 F8 FF  FF 7F F8 FF FF 7F 73 30  .G.E..........s0
1640: 35 32 01 80 01 58 16 45  19 80 F8 FF FF 7F F8 FF  52...X.E........
1650: FF 7F 73 30 33 37 01 80  29 0F 8A 01 05 01 03 2B  ..s037..)......+
1660: 8A 01 05 01 68 80 23 29  0F 8A 01 05 01 04 2B 8A  ....h.#)......+.
1670: 01 05 01 69 80 23 02 09  10 20 80 00 90 16 52 19  ...i.#... ....R.
1680: 80 F8 FF FF 7F F8 FF FF  7F 73 30 35 32 01 B9 16  .........s052...
1690: 02 09 10 21 80 00 AA 16  52 19 80 F8 FF FF 7F F8  ...!....R.......
16A0: FF FF 7F 73 30 35 32 01  B9 16 52 19 80 F8 FF FF  ...s052...R.....
16B0: 7F F8 FF FF 7F 73 30 33  37 02 09 10 20 80 00 D5  .....s037... ...
16C0: 16 45 19 80 F8 FF FF 7F  F8 FF FF 7F 73 30 35 39  .E..........s059
16D0: 01 80 01 02 17 02 09 10  21 80 00 F1 16 45 19 80  ........!....E..
16E0: F8 FF FF 7F F8 FF FF 7F  73 30 35 39 01 80 01 02  ........s059....
16F0: 17 45 19 80 F8 FF FF 7F  F8 FF FF 7F 73 30 35 37  .E..........s057
1700: 01 80 7B 8A 01 05 01 27  0F 8A 01 05 01 2B 2B 8A  ..{....'.....++.
1710: 01 05 01 6A 80 23 2A 0F  8A 01 05 01 02 09 10 20  ...j.#*........ 
1720: 80 00 36 17 52 19 80 F8  FF FF 7F F8 FF FF 7F 73  ..6.R..........s
1730: 30 35 39 01 5F 17 02 09  10 21 80 00 50 17 52 19  059._....!..P.R.
1740: 80 F8 FF FF 7F F8 FF FF  7F 73 30 35 39 01 5F 17  .........s059._.
1750: 52 19 80 F8 FF FF 7F F8  FF FF 7F 73 30 35 37 45  R..........s057E
1760: 19 80 F8 FF FF 7F F8 FF  FF 7F 73 30 32 39 01 80  ..........s029..
1770: 4A 8A 01 05 01 F0 FF FF  7F 6F 76 8A 01 05 01 29  J........ov....)
1780: 0F 8A 01 05 01 0F 2B 8A  01 05 01 6B 80 23 2B 8A  ......+....k.#+.
1790: 01 05 01 6C 80 23 29 0F  8A 01 05 01 10 52 19 80  ...l.#)......R..
17A0: F8 FF FF 7F F8 FF FF 7F  73 30 32 39 02 09 10 20  ........s029... 
17B0: 80 00 C8 17 45 19 80 F8  FF FF 7F F8 FF FF 7F 73  ....E..........s
17C0: 30 34 37 01 80 01 F5 17  02 09 10 21 80 00 E4 17  047........!....
17D0: 45 19 80 F8 FF FF 7F F8  FF FF 7F 73 30 34 37 01  E..........s047.
17E0: 80 01 F5 17 45 19 80 F8  FF FF 7F F8 FF FF 7F 73  ....E..........s
17F0: 30 33 30 01 80 29 0F 8A  01 05 01 11 2B 8A 01 05  030..)......+...
1800: 01 6D 80 23 29 0F 8A 01  05 01 12 27 0F 8A 01 05  .m.#)......'....
1810: 01 15 2B 8A 01 05 01 6E  80 23 2A 0F 8A 01 05 01  ..+....n.#*.....
1820: 02 09 10 20 80 00 3A 18  52 19 80 F8 FF FF 7F F8  ... ..:.R.......
1830: FF FF 7F 73 30 34 37 01  63 18 02 09 10 21 80 00  ...s047.c....!..
1840: 54 18 52 19 80 F8 FF FF  7F F8 FF FF 7F 73 30 34  T.R..........s04
1850: 37 01 63 18 52 19 80 F8  FF FF 7F F8 FF FF 7F 73  7.c.R..........s
1860: 30 33 30 45 19 80 F8 FF  FF 7F F8 FF FF 7F 73 30  030E..........s0
1870: 33 31 01 80 7B 8A 01 05  01 2B 8A 01 05 01 6F 80  31..{....+....o.
1880: 23 52 19 80 F8 FF FF 7F  F8 FF FF 7F 73 30 33 31  #R..........s031
1890: 45 19 80 F8 FF FF 7F F8  FF FF 7F 73 30 33 36 01  E..........s036.
18A0: 80 29 0F 8A 01 05 01 01  2B 8A 01 05 01 70 80 23  .)......+....p.#
18B0: 29 0F 8A 01 05 01 02 52  19 80 F8 FF FF 7F F8 FF  )......R........
18C0: FF 7F 73 30 33 36 02 09  10 20 80 00 E2 18 45 19  ..s036... ....E.
18D0: 80 F8 FF FF 7F F8 FF FF  7F 73 30 34 38 01 80 01  .........s048...
18E0: 0F 19 02 09 10 21 80 00  FE 18 45 19 80 F8 FF FF  .....!....E.....
18F0: 7F F8 FF FF 7F 73 30 34  38 01 80 01 0F 19 45 19  .....s048.....E.
1900: 80 F8 FF FF 7F F8 FF FF  7F 73 30 33 32 01 80 29  .........s032..)
1910: 0F 8A 01 05 01 03 29 0F  8A 01 05 01 04 2B 8A 01  ......)......+..
1920: 05 01 71 80 27 0F 8A 01  05 01 2C 23 03 02 10 01  ..q.'.....,#....
1930: 00 0C 02 10 02 02 10 01  80 03 44 19 03 02 10 01  ..........D.....
1940: 80 01 51 19 02 02 10 05  80 02 51 19 03 02 10 01  ..Q.......Q.....
1950: 80 2B 8A 01 05 01 72 80  23 2A 0F 8A 01 05 01 02  .+....r.#*......
1960: 09 10 20 80 00 79 19 52  19 80 F8 FF FF 7F F8 FF  .. ..y.R........
1970: FF 7F 73 30 34 38 01 A2  19 02 09 10 21 80 00 93  ..s048......!...
1980: 19 52 19 80 F8 FF FF 7F  F8 FF FF 7F 73 30 34 38  .R..........s048
1990: 01 A2 19 52 19 80 F8 FF  FF 7F F8 FF FF 7F 73 30  ...R..........s0
19A0: 33 32 02 09 10 20 80 00  BE 19 45 19 80 F8 FF FF  32... ....E.....
19B0: 7F F8 FF FF 7F 73 30 35  32 01 80 01 EB 19 02 09  .....s052.......
19C0: 10 21 80 00 DA 19 45 19  80 F8 FF FF 7F F8 FF FF  .!....E.........
19D0: 7F 73 30 35 32 01 80 01  EB 19 45 19 80 F8 FF FF  .s052.....E.....
19E0: 7F F8 FF FF 7F 73 30 33  37 01 80 29 0F 8A 01 05  .....s037..)....
19F0: 01 0D 2B 8A 01 05 01 73  80 1C 28 80 29 0F F0 FF  ..+....s..(.)...
1A00: FF 7F 30 23 29 0F 8A 01  05 01 0E 02 09 10 20 80  ..0#)......... .
1A10: 00 25 1A 52 19 80 F8 FF  FF 7F F8 FF FF 7F 73 30  .%.R..........s0
1A20: 35 32 01 4E 1A 02 09 10  21 80 00 3F 1A 52 19 80  52.N....!..?.R..
1A30: F8 FF FF 7F F8 FF FF 7F  73 30 35 32 01 4E 1A 52  ........s052.N.R
1A40: 19 80 F8 FF FF 7F F8 FF  FF 7F 73 30 33 37 45 19  ..........s037E.
1A50: 80 F8 FF FF 7F F8 FF FF  7F 73 30 36 30 01 80 27  .........s060..'
1A60: 0F 8A 01 05 01 26 2B 8A  01 05 01 74 80 23 2B 8A  .....&+....t.#+.
1A70: 01 05 01 75 80 29 0F F0  FF FF 7F 30 1C 1D 80 52  ...u.).....0...R
1A80: 19 80 F8 FF FF 7F F8 FF  FF 7F 73 30 36 30 02 09  ..........s060..
1A90: 10 1F 80 00 AA 1A 45 19  80 F8 FF FF 7F F8 FF FF  ......E.........
1AA0: 7F 73 30 34 32 01 80 01  0F 1B 02 09 10 20 80 00  .s042........ ..
1AB0: C6 1A 45 19 80 F8 FF FF  7F F8 FF FF 7F 73 30 34  ..E..........s04
1AC0: 39 01 80 01 0F 1B 02 09  10 21 80 00 E2 1A 45 19  9........!....E.
1AD0: 80 F8 FF FF 7F F8 FF FF  7F 73 30 34 39 01 80 01  .........s049...
1AE0: 0F 1B 02 09 10 22 80 00  FE 1A 45 19 80 F8 FF FF  ....."....E.....
1AF0: 7F F8 FF FF 7F 73 30 34  32 01 80 01 0F 1B 45 19  .....s042.....E.
1B00: 80 F8 FF FF 7F F8 FF FF  7F 73 30 35 35 01 80 23  .........s055..#
1B10: 2B 8A 01 05 01 76 80 23  1A 64 00 02 09 10 1F 80  +....v.#.d......
1B20: 00 35 1B 52 19 80 F8 FF  FF 7F F8 FF FF 7F 73 30  .5.R..........s0
1B30: 34 32 01 92 1B 02 09 10  20 80 00 4F 1B 52 19 80  42...... ..O.R..
1B40: F8 FF FF 7F F8 FF FF 7F  73 30 34 39 01 92 1B 02  ........s049....
1B50: 09 10 21 80 00 69 1B 52  19 80 F8 FF FF 7F F8 FF  ..!..i.R........
1B60: FF 7F 73 30 34 39 01 92  1B 02 09 10 22 80 00 83  ..s049......"...
1B70: 1B 52 19 80 F8 FF FF 7F  F8 FF FF 7F 73 30 34 32  .R..........s042
1B80: 01 92 1B 52 19 80 F8 FF  FF 7F F8 FF FF 7F 73 30  ...R..........s0
1B90: 35 35 2A 0F 8A 01 05 01  1C 46 80 AB 11 01 80 1C  55*......F......
1BA0: 03 80 46 00 45 00 80 F8  FF FF 7F F8 FF FF 7F 66  ..F.E..........f
1BB0: 64 69 32 01 80 45 02 80  F8 FF FF 7F F8 FF FF 7F  di2..E..........
1BC0: 71 73 74 63 01 80 21 00                           qstc..!.        
```

#### Opcodes

```
  0: 0x130A [0x42] SET_CLI_EVENT_CANCEL_DATA()
  1: 0x130B [0x03] ExtData[1]->WorkLocal[1] = Work_Zone[3]
  2: 0x1310 [0x5D] SET_MUSIC_VOLUME(volume=0*, fade_time=300*)
  3: 0x1315 [0x1A] CALL_SUBROUTINE(address=0x0064)
  4: 0x1318 [0x46] CAMERA_CONTROL: Disable user control
  5: 0x131A [0x38] SET_CLIENT_EVENT_MODE(mode=147*)
  6: 0x131D [0x4E] SET_ENTITY_HIDE_FLAG: Show Valaineral R Davilles (ID: 17105290/0x0105018A)
  7: 0x1323 [0x4E] SET_ENTITY_HIDE_FLAG: Show Aissaville (ID: 17105390/0x010501EE)
  8: 0x1329 [0x4E] SET_ENTITY_HIDE_FLAG: Show Raustigne (ID: 17105391/0x010501EF)
  9: 0x132F [0x92] Valaineral R Davilles (ID: 17105290/0x0105018A)->Render.Flags3 ^= 0x01
 10: 0x1335 [0x92] Aissaville (ID: 17105390/0x010501EE)->Render.Flags3 ^= 0x01
 11: 0x133B [0x92] Raustigne (ID: 17105391/0x010501EF)->Render.Flags3 ^= 0x01
 12: 0x1341 [0x94] Valaineral R Davilles (ID: 17105290/0x0105018A)->Render.Flags3 ^= 0x01
 13: 0x1347 [0x94] Aissaville (ID: 17105390/0x010501EE)->Render.Flags3 ^= 0x01
 14: 0x134D [0x94] Raustigne (ID: 17105391/0x010501EF)->Render.Flags3 ^= 0x01
 15: 0x1353 [0x94] LocalPlayer->Render.Flags3 ^= 0x01
 16: 0x1359 [0xBA] SET_ENTITY_POSITION(entity_id=Valaineral R Davilles (ID: 17105290/0x0105018A), pos_x=-32.204*, pos_z=23.585*, pos_y=0.000*, direction=99.5°*)
 17: 0x1366 [0xBA] SET_ENTITY_POSITION(entity_id=Aissaville (ID: 17105390/0x010501EE), pos_x=-3.484*, pos_z=44.227*, pos_y=-1.999*, direction=91.8°*)
 18: 0x1373 [0xBA] SET_ENTITY_POSITION(entity_id=Raustigne (ID: 17105391/0x010501EF), pos_x=3.979*, pos_z=44.456*, pos_y=-1.999*, direction=97.4°*)
 19: 0x1380 [0x29] REQ_SET_WAIT(priority=0x0F, entity_id=LocalPlayer, tag_num=0x31)
 20: 0x1387 [0x02] IF !(Work_Zone[9] == 5*) GOTO 0x139F
 21: 0x138F [0xBA] SET_ENTITY_POSITION(entity_id=LocalPlayer, pos_x=-32.762*, pos_z=26.100*, pos_y=0.000*, direction=50.9°*)
 22: 0x139C [0x01] GOTO 0x13C4
 23: 0x139F [0x02] IF !(Work_Zone[9] == 6*) GOTO 0x13B7
 24: 0x13A7 [0xBA] SET_ENTITY_POSITION(entity_id=LocalPlayer, pos_x=-32.762*, pos_z=26.100*, pos_y=0.000*, direction=50.9°*)
 25: 0x13B4 [0x01] GOTO 0x13C4
 26: 0x13B7 [0xBA] SET_ENTITY_POSITION(entity_id=LocalPlayer, pos_x=-32.398*, pos_z=25.538*, pos_y=0.000*, direction=52.5°*)

SUBROUTINE_13C4:
 27: 0x13C4 [0x80] LOAD_WAIT(entity=Valaineral R Davilles (ID: 17105290/0x0105018A))
 28: 0x13C9 [0x80] LOAD_WAIT(entity=Aissaville (ID: 17105390/0x010501EE))
 29: 0x13CE [0x80] LOAD_WAIT(entity=Raustigne (ID: 17105391/0x010501EF))
 30: 0x13D3 [0x80] LOAD_WAIT(entity=LocalPlayer)
 31: 0x13D8 [0x5C] MUSIC_CONTROL: Set Idle (Day) music to song 25*
 32: 0x13DC [0x5C] MUSIC_CONTROL: Set Idle (Night) music to song 25*
 33: 0x13E0 [0x9A] WAIT_MUSIC_SERVER()
 34: 0x13E1 [0x5D] SET_MUSIC_VOLUME(volume=127*, fade_time=1*)
 35: 0x13E6 [0x4A] Valaineral R Davilles (ID: 17105290/0x0105018A) looks at LocalPlayer
 36: 0x13EF [0x4A] LocalPlayer looks at Valaineral R Davilles (ID: 17105290/0x0105018A)
 37: 0x13F8 [0x6F] WAIT_FRAME_DELAY: Yield until WaitTime reaches zero
 38: 0x13F9 [0x76] CHECK_ENTITY_RENDER_FLAGS: Wait until Valaineral R Davilles (ID: 17105290/0x0105018A) Render.Flags0 and Render.Flags3 conditions are met
 39: 0x13FE [0x6F] WAIT_FRAME_DELAY: Yield until WaitTime reaches zero
 40: 0x13FF [0x76] CHECK_ENTITY_RENDER_FLAGS: Wait until LocalPlayer Render.Flags0 and Render.Flags3 conditions are met
 41: 0x1404 [0x1C] WAIT(40* ticks)
 42: 0x1407 [0x02] IF !(Work_Zone[9] == 5*) GOTO 0x1423
 43: 0x140F [0x45] LOAD_SCHEDULED_TASK: Load scheduler "s058" with entities [EventEntity, EventEntity], work=[897*, 0*]
 44: 0x1420 [0x01] GOTO 0x1450
 45: 0x1423 [0x02] IF !(Work_Zone[9] == 6*) GOTO 0x143F
 46: 0x142B [0x45] LOAD_SCHEDULED_TASK: Load scheduler "s058" with entities [EventEntity, EventEntity], work=[897*, 0*]
 47: 0x143C [0x01] GOTO 0x1450
 48: 0x143F [0x45] LOAD_SCHEDULED_TASK: Load scheduler "s038" with entities [EventEntity, EventEntity], work=[897*, 0*]

SUBROUTINE_1450:
 49: 0x1450 [0x1A] CALL_SUBROUTINE(address=0x0043)
 50: 0x1453 [0x29] REQ_SET_WAIT(priority=0x0F, entity_id=Valaineral R Davilles (ID: 17105290/0x0105018A), tag_num=0x0F)
 51: 0x145A [0x2B] Valaineral R Davilles (ID: 17105290/0x0105018A) [15847*]:
    → "It is good to see you."
 52: 0x1461 [0x23] WAIT_FOR_DIALOG_INTERACTION
 53: 0x1462 [0x02] IF !(Work_Zone[9] == 5*) GOTO 0x147C
 54: 0x146A [0x52] END_LOAD_SCHEDULER: End scheduler "s058" with entities [EventEntity, EventEntity], work=897*
 55: 0x1479 [0x01] GOTO 0x14A5
 56: 0x147C [0x02] IF !(Work_Zone[9] == 6*) GOTO 0x1496
 57: 0x1484 [0x52] END_LOAD_SCHEDULER: End scheduler "s058" with entities [EventEntity, EventEntity], work=897*
 58: 0x1493 [0x01] GOTO 0x14A5
 59: 0x1496 [0x52] END_LOAD_SCHEDULER: End scheduler "s038" with entities [EventEntity, EventEntity], work=897*

SUBROUTINE_14A5:
 60: 0x14A5 [0x02] IF !(Work_Zone[9] == 3*) GOTO 0x14C1
 61: 0x14AD [0x45] LOAD_SCHEDULED_TASK: Load scheduler "s042" with entities [EventEntity, EventEntity], work=[897*, 0*]
 62: 0x14BE [0x01] GOTO 0x1526
 63: 0x14C1 [0x02] IF !(Work_Zone[9] == 5*) GOTO 0x14DD
 64: 0x14C9 [0x45] LOAD_SCHEDULED_TASK: Load scheduler "s049" with entities [EventEntity, EventEntity], work=[897*, 0*]
 65: 0x14DA [0x01] GOTO 0x1526
 66: 0x14DD [0x02] IF !(Work_Zone[9] == 6*) GOTO 0x14F9
 67: 0x14E5 [0x45] LOAD_SCHEDULED_TASK: Load scheduler "s049" with entities [EventEntity, EventEntity], work=[897*, 0*]
 68: 0x14F6 [0x01] GOTO 0x1526
 69: 0x14F9 [0x02] IF !(Work_Zone[9] == 8*) GOTO 0x1515
 70: 0x1501 [0x45] LOAD_SCHEDULED_TASK: Load scheduler "s042" with entities [EventEntity, EventEntity], work=[897*, 0*]
 71: 0x1512 [0x01] GOTO 0x1526
 72: 0x1515 [0x45] LOAD_SCHEDULED_TASK: Load scheduler "s055" with entities [EventEntity, EventEntity], work=[897*, 0*]

SUBROUTINE_1526:
 73: 0x1526 [0x2B] Valaineral R Davilles (ID: 17105290/0x0105018A) [15848*]:
    → "I received a report from Noillurie of the Knights of the Red Rose. I heard that you drove off the Confederate unit."
 74: 0x152D [0x23] WAIT_FOR_DIALOG_INTERACTION
 75: 0x152E [0x29] REQ_SET_WAIT(priority=0x0F, entity_id=Valaineral R Davilles (ID: 17105290/0x0105018A), tag_num=0x10)
 76: 0x1535 [0x29] REQ_SET_WAIT(priority=0x0F, entity_id=Valaineral R Davilles (ID: 17105290/0x0105018A), tag_num=0x11)
 77: 0x153C [0x2B] Valaineral R Davilles (ID: 17105290/0x0105018A) [15849*]:
    → "However, you failed to secure the "World Eater Egg" as requested. Tell me what happened."
 78: 0x1543 [0x23] WAIT_FOR_DIALOG_INTERACTION
 79: 0x1544 [0x29] REQ_SET_WAIT(priority=0x0F, entity_id=Valaineral R Davilles (ID: 17105290/0x0105018A), tag_num=0x12)
