# 17105607 - Nichais

## Common Data

| Field            | Value                            |
|------------------|----------------------------------|
| Zone             | Southern San d'Oria [S] (ID: 80) |
| Block Size       | 1260 bytes                       |
| Total Events     | 20                               |
| References Count | 47                               |

## List of Events

| Event ID                 | Entrypoint   |   Size |   Instructions |
|--------------------------|--------------|--------|----------------|
| [65535](#event-65535)    | 0x0000       |      1 |              1 |
| [83](#event-83)          | 0x0001       |    108 |             20 |
| [71](#event-71)          | 0x006D       |      1 |              1 |
| [178](#event-178)        | 0x006E       |      1 |              1 |
| [72](#event-72)          | 0x006F       |     84 |             16 |
| [73](#event-73)          | 0x00C3       |      1 |              1 |
| [179](#event-179)        | 0x00C4       |      1 |              1 |
| [180](#event-180)        | 0x00C5       |      1 |              1 |
| [182](#event-182)        | 0x00C6       |      1 |              1 |
| [74](#event-74)          | 0x00C7       |    195 |             31 |
| [75](#event-75)          | 0x018A       |     93 |             17 |
| [76](#event-76)          | 0x01E7       |    136 |             28 |
| [77](#event-77)          | 0x026F       |    100 |             20 |
| [78](#event-78)          | 0x02D3       |      1 |              1 |
| [79](#event-79)          | 0x02D4       |     53 |              9 |
| [80](#event-80)          | 0x0309       |    139 |             27 |
| [65535.1](#event-655351) | 0x0394       |     14 |              4 |
| [65535.2](#event-655352) | 0x03A2       |     15 |              5 |
| [65535.3](#event-655353) | 0x03B1       |     14 |              4 |
| [65535.4](#event-655354) | 0x03BF       |     14 |              4 |

## DAT References (imed_data)

|   Index | Hex Value   |   Dec Value |
|---------|-------------|-------------|
|       0 | 0x001D      |          29 |
|       1 | 0x34FA      |       13562 |
|       2 | 0x0069      |         105 |
|       3 | 0x0015      |          21 |
|       4 | 0x34FB      |       13563 |
|       5 | 0x0001      |           1 |
|       6 | 0x34FC      |       13564 |
|       7 | 0x0096      |         150 |
|       8 | 0x350F      |       13583 |
|       9 | 0x3513      |       13587 |
|      10 | 0x3514      |       13588 |
|      11 | 0x001E      |          30 |
|      12 | 0x3525      |       13605 |
|      13 | 0x3526      |       13606 |
|      14 | 0x0190      |         400 |
|      15 | 0x3527      |       13607 |
|      16 | 0x3528      |       13608 |
|      17 | 0x352D      |       13613 |
|      18 | 0x352F      |       13615 |
|      19 | 0x0078      |         120 |
|      20 | 0x0006      |           6 |
|      21 | 0x3530      |       13616 |
|      22 | 0x3531      |       13617 |
|      23 | 0x004B      |          75 |
|      24 | 0x3532      |       13618 |
|      25 | 0x0046      |          70 |
|      26 | 0x3533      |       13619 |
|      27 | 0x09B9      |        2489 |
|      28 | 0x3534      |       13620 |
|      29 | 0x3535      |       13621 |
|      30 | 0x43F5      |       17397 |
|      31 | 0x353F      |       13631 |
|      32 | 0x005A      |          90 |
|      33 | 0x3540      |       13632 |
|      34 | 0x000F      |          15 |
|      35 | 0x3541      |       13633 |
|      36 | 0x00C8      |         200 |
|      37 | 0x3542      |       13634 |
|      38 | 0x1FC26     |      130086 |
|      39 | 0x1388E     |       80014 |
|      40 | 0x0000      |           0 |
|      41 | 0x0011      |          17 |
|      42 | 0x20A6E     |      133742 |
|      43 | 0x13B85     |       80773 |
|      44 | 0x0012      |          18 |
|      45 | 0x20078     |      131192 |
|      46 | 0x13003     |       77827 |

## Events

### Event 65535

#### Metadata

| Field        | Value   |
|--------------|---------|
| Entrypoint   | 0x0000  |
| Data Size    | 1 bytes |
| Instructions | 1       |

```
      00 01 02 03 04 05 06 07  08 09 0A 0B 0C 0D 0E 0F
      -- -- -- -- -- -- -- --  -- -- -- -- -- -- -- --
0000: 00                                                .               
```

#### Opcodes

```
  0: 0x0000 [0x00] END_REQSTACK()
```

### Event 83

#### Metadata

| Field        | Value     |
|--------------|-----------|
| Entrypoint   | 0x0001    |
| Data Size    | 108 bytes |
| Instructions | 20        |

```
      00 01 02 03 04 05 06 07  08 09 0A 0B 0C 0D 0E 0F
      -- -- -- -- -- -- -- --  -- -- -- -- -- -- -- --
0000:    66 00 80 C7 02 05 01  C7 02 05 01 74 68 6B 31   f..........thk1
0010: 2B F8 FF FF 7F 01 80 23  53 C7 02 05 01 C7 02 05  +......#S.......
0020: 01 74 68 6B 31 1C 02 80  6B 69 64 6C 30 C7 02 05  .thk1...kidl0...
0030: 01 1E F0 FF FF 7F 6E C7  02 05 01 03 80 99 C7 02  ......n.........
0040: 05 01 2B F8 FF FF 7F 04  80 23 99 C7 02 05 01 6E  ..+......#.....n
0050: F8 FF FF 7F 05 80 99 F8  FF FF 7F 2B F8 FF FF 7F  ...........+....
0060: 06 80 23 1C 07 80 99 F8  FF FF 7F 21 00           ..#........!.   
```

#### Opcodes

```
  0: 0x0001 [0x66] LOAD_EXT_SCHEDULER_MAIN: Load scheduler "thk1" with entities [Nichais (ID: 17105607/0x010502C7), Nichais (ID: 17105607/0x010502C7)], work=29*
  1: 0x0010 [0x2B] EventEntity [13562*]:
    → "I wonder if perhaps... No, it couldn't be..."
  2: 0x0017 [0x23] WAIT_FOR_DIALOG_INTERACTION
  3: 0x0018 [0x53] WAIT_SCHEDULER_TASK: Wait for scheduler "thk1" with entities [Nichais (ID: 17105607/0x010502C7), Nichais (ID: 17105607/0x010502C7)]
  4: 0x0025 [0x1C] WAIT(105* ticks)
  5: 0x0028 [0x6B] STOP_AND_IDLE: Nichais (ID: 17105607/0x010502C7) stops current action and resets to idle (animation="idl0")
  6: 0x0031 [0x1E] EventEntity looks at LocalPlayer and starts talking
  7: 0x0036 [0x6E] Nichais (ID: 17105607/0x010502C7) uses emote 21*
  8: 0x003D [0x99] Wait for Nichais (ID: 17105607/0x010502C7) animation to complete
  9: 0x0042 [0x2B] EventEntity [13563*]:
    → "Wh--!? My apologies, [sir/ma'am]. You gave me a bit of a start, is all."
 10: 0x0049 [0x23] WAIT_FOR_DIALOG_INTERACTION
 11: 0x004A [0x99] Wait for Nichais (ID: 17105607/0x010502C7) animation to complete
 12: 0x004F [0x6E] EventEntity uses emote 1*
 13: 0x0056 [0x99] Wait for EventEntity animation to complete
 14: 0x005B [0x2B] EventEntity [13564*]:
    → "I beg your indulgence. My mind wanders and is ill at ease. If you would please be so kind as to excuse me."
 15: 0x0062 [0x23] WAIT_FOR_DIALOG_INTERACTION
 16: 0x0063 [0x1C] WAIT(150* ticks)
 17: 0x0066 [0x99] Wait for EventEntity animation to complete
 18: 0x006B [0x21] END_EVENT
 19: 0x006C [0x00] END_REQSTACK()
```

### Event 71

#### Metadata

| Field        | Value   |
|--------------|---------|
| Entrypoint   | 0x006D  |
| Data Size    | 1 bytes |
| Instructions | 1       |

```
      00 01 02 03 04 05 06 07  08 09 0A 0B 0C 0D 0E 0F
      -- -- -- -- -- -- -- --  -- -- -- -- -- -- -- --
0060:                                         00                     .  
```

#### Opcodes

```
  0: 0x006D [0x00] END_REQSTACK()
```

### Event 178

#### Metadata

| Field        | Value   |
|--------------|---------|
| Entrypoint   | 0x006E  |
| Data Size    | 1 bytes |
| Instructions | 1       |

```
      00 01 02 03 04 05 06 07  08 09 0A 0B 0C 0D 0E 0F
      -- -- -- -- -- -- -- --  -- -- -- -- -- -- -- --
0060:                                            00                   . 
```

#### Opcodes

```
  0: 0x006E [0x00] END_REQSTACK()
```

### Event 72

#### Metadata

| Field        | Value    |
|--------------|----------|
| Entrypoint   | 0x006F   |
| Data Size    | 84 bytes |
| Instructions | 16       |

```
      00 01 02 03 04 05 06 07  08 09 0A 0B 0C 0D 0E 0F
      -- -- -- -- -- -- -- --  -- -- -- -- -- -- -- --
0060:                                               1E                 .
0070: F0 FF FF 7F 66 00 80 C7  02 05 01 C7 02 05 01 74  ....f..........t
0080: 6C 6B 30 2B F8 FF FF 7F  08 80 23 66 00 80 C7 02  lk0+......#f....
0090: 05 01 C7 02 05 01 74 6C  6B 31 2B F8 FF FF 7F 09  ......tlk1+.....
00A0: 80 23 2B F8 FF FF 7F 0A  80 23 1C 0B 80 6E F8 FF  .#+......#...n..
00B0: FF 7F 05 80 99 F8 FF FF  7F 99 F8 FF FF 7F 1C 07  ................
00C0: 80 21 00                                          .!.             
```

#### Opcodes

```
  0: 0x006F [0x1E] EventEntity looks at LocalPlayer and starts talking
  1: 0x0074 [0x66] LOAD_EXT_SCHEDULER_MAIN: Load scheduler "tlk0" with entities [Nichais (ID: 17105607/0x010502C7), Nichais (ID: 17105607/0x010502C7)], work=29*
  2: 0x0083 [0x2B] EventEntity [13583*]:
    → "Soldiers of our own Allied Forces returning from campaigns in Grauberg bring back most intriguing tales! Eyewitness accounts of an enormous dragon in the region!"
  3: 0x008A [0x23] WAIT_FOR_DIALOG_INTERACTION
  4: 0x008B [0x66] LOAD_EXT_SCHEDULER_MAIN: Load scheduler "tlk1" with entities [Nichais (ID: 17105607/0x010502C7), Nichais (ID: 17105607/0x010502C7)], work=29*
  5: 0x009A [0x2B] EventEntity [13587*]:
    → "I implore you, if your travels ever happen to take you within the vicinity of Grauberg, would you mind investigating the premises for me?"
  6: 0x00A1 [0x23] WAIT_FOR_DIALOG_INTERACTION
  7: 0x00A2 [0x2B] EventEntity [13588*]:
    → "I would forever be in your debt, <Player>."
  8: 0x00A9 [0x23] WAIT_FOR_DIALOG_INTERACTION
  9: 0x00AA [0x1C] WAIT(30* ticks)
 10: 0x00AD [0x6E] EventEntity uses emote 1*
 11: 0x00B4 [0x99] Wait for EventEntity animation to complete
 12: 0x00B9 [0x99] Wait for EventEntity animation to complete
 13: 0x00BE [0x1C] WAIT(150* ticks)
 14: 0x00C1 [0x21] END_EVENT
 15: 0x00C2 [0x00] END_REQSTACK()
```

### Event 73

#### Metadata

| Field        | Value   |
|--------------|---------|
| Entrypoint   | 0x00C3  |
| Data Size    | 1 bytes |
| Instructions | 1       |

```
      00 01 02 03 04 05 06 07  08 09 0A 0B 0C 0D 0E 0F
      -- -- -- -- -- -- -- --  -- -- -- -- -- -- -- --
00C0:          00                                          .            
```

#### Opcodes

```
  0: 0x00C3 [0x00] END_REQSTACK()
```

### Event 179

#### Metadata

| Field        | Value   |
|--------------|---------|
| Entrypoint   | 0x00C4  |
| Data Size    | 1 bytes |
| Instructions | 1       |

```
      00 01 02 03 04 05 06 07  08 09 0A 0B 0C 0D 0E 0F
      -- -- -- -- -- -- -- --  -- -- -- -- -- -- -- --
00C0:             00                                        .           
```

#### Opcodes

```
  0: 0x00C4 [0x00] END_REQSTACK()
```

### Event 180

#### Metadata

| Field        | Value   |
|--------------|---------|
| Entrypoint   | 0x00C5  |
| Data Size    | 1 bytes |
| Instructions | 1       |

```
      00 01 02 03 04 05 06 07  08 09 0A 0B 0C 0D 0E 0F
      -- -- -- -- -- -- -- --  -- -- -- -- -- -- -- --
00C0:                00                                      .          
```

#### Opcodes

```
  0: 0x00C5 [0x00] END_REQSTACK()
```

### Event 182

#### Metadata

| Field        | Value   |
|--------------|---------|
| Entrypoint   | 0x00C6  |
| Data Size    | 1 bytes |
| Instructions | 1       |

```
      00 01 02 03 04 05 06 07  08 09 0A 0B 0C 0D 0E 0F
      -- -- -- -- -- -- -- --  -- -- -- -- -- -- -- --
00C0:                   00                                    .         
```

#### Opcodes

```
  0: 0x00C6 [0x00] END_REQSTACK()
```

### Event 74

#### Metadata

| Field        | Value     |
|--------------|-----------|
| Entrypoint   | 0x00C7    |
| Data Size    | 195 bytes |
| Instructions | 31        |

```
      00 01 02 03 04 05 06 07  08 09 0A 0B 0C 0D 0E 0F
      -- -- -- -- -- -- -- --  -- -- -- -- -- -- -- --
00C0:                      1E  F0 FF FF 7F 66 00 80 C7         .....f...
00D0: 02 05 01 C7 02 05 01 74  6C 6B 30 2B F8 FF FF 7F  .......tlk0+....
00E0: 0C 80 23 66 00 80 C7 02  05 01 C7 02 05 01 74 6C  ..#f..........tl
00F0: 6B 31 2B F8 FF FF 7F 0D  80 23 1C 0B 80 3A F8 FF  k1+......#...:..
0100: FF 7F 00 00 08 00 00 0E  80 4B F8 FF FF 7F 00 00  .........K......
0110: 7B F8 FF FF 7F 6F 76 F8  FF FF 7F 66 00 80 C7 02  {....ov....f....
0120: 05 01 C7 02 05 01 74 68  6B 31 2B F8 FF FF 7F 0F  ......thk1+.....
0130: 80 23 2B F8 FF FF 7F 10  80 23 66 00 80 C7 02 05  .#+......#f.....
0140: 01 C7 02 05 01 74 68 6B  32 1E F0 FF FF 7F 66 00  .....thk2.....f.
0150: 80 C7 02 05 01 C7 02 05  01 74 6C 6B 30 2B F8 FF  .........tlk0+..
0160: FF 7F 11 80 23 66 00 80  C7 02 05 01 C7 02 05 01  ....#f..........
0170: 74 68 6B 30 6E F8 FF FF  7F 05 80 99 F8 FF FF 7F  thk0n...........
0180: 99 F8 FF FF 7F 1C 07 80  21 00                    ........!.      
```

#### Opcodes

```
  0: 0x00C7 [0x1E] EventEntity looks at LocalPlayer and starts talking
  1: 0x00CC [0x66] LOAD_EXT_SCHEDULER_MAIN: Load scheduler "tlk0" with entities [Nichais (ID: 17105607/0x010502C7), Nichais (ID: 17105607/0x010502C7)], work=29*
  2: 0x00DB [0x2B] EventEntity [13605*]:
    → "It would seem that keeping the peace around Grauberg was not the only charge put to the Elvaan warrior by the Mountain's Eye in their pact with one another."
  3: 0x00E2 [0x23] WAIT_FOR_DIALOG_INTERACTION
  4: 0x00E3 [0x66] LOAD_EXT_SCHEDULER_MAIN: Load scheduler "tlk1" with entities [Nichais (ID: 17105607/0x010502C7), Nichais (ID: 17105607/0x010502C7)], work=29*
  5: 0x00F2 [0x2B] EventEntity [13606*]:
    → "There is mention of a certain "fancy" of Areuhat's, which was agreed to be given to her as an offering on a daily basis."
  6: 0x00F9 [0x23] WAIT_FOR_DIALOG_INTERACTION
  7: 0x00FA [0x1C] WAIT(30* ticks)
  8: 0x00FD [0x3A] CONVERT_YAW_TO_BYTE(entity=EventEntity, result_destination=ExtData[1]->WorkLocal[0])
  9: 0x0104 [0x08] ExtData[1]->WorkLocal[0] -= 400*
 10: 0x0109 [0x4B] UPDATE_ENTITY_YAW(entity=EventEntity, yaw=ExtData[1]->WorkLocal[0])
 11: 0x0110 [0x7B] EventEntity stops talking
 12: 0x0115 [0x6F] WAIT_FRAME_DELAY: Yield until WaitTime reaches zero
 13: 0x0116 [0x76] CHECK_ENTITY_RENDER_FLAGS: Wait until EventEntity Render.Flags0 and Render.Flags3 conditions are met
 14: 0x011B [0x66] LOAD_EXT_SCHEDULER_MAIN: Load scheduler "thk1" with entities [Nichais (ID: 17105607/0x010502C7), Nichais (ID: 17105607/0x010502C7)], work=29*
 15: 0x012A [0x2B] EventEntity [13607*]:
    → "The text I discovered, however, was extremely cryptic. A riddle, one might say... Do listen."
 16: 0x0131 [0x23] WAIT_FOR_DIALOG_INTERACTION
 17: 0x0132 [0x2B] EventEntity [13608*]:
    → "It read, "An ageless armor, impenetrable, and yet of no metal wrought. To lay at rest only the comfort of anvil-hard beds are sought. Protected from without, protecting from within, yielding naught.""
 18: 0x0139 [0x23] WAIT_FOR_DIALOG_INTERACTION
 19: 0x013A [0x66] LOAD_EXT_SCHEDULER_MAIN: Load scheduler "thk2" with entities [Nichais (ID: 17105607/0x010502C7), Nichais (ID: 17105607/0x010502C7)], work=29*
 20: 0x0149 [0x1E] EventEntity looks at LocalPlayer and starts talking
 21: 0x014E [0x66] LOAD_EXT_SCHEDULER_MAIN: Load scheduler "tlk0" with entities [Nichais (ID: 17105607/0x010502C7), Nichais (ID: 17105607/0x010502C7)], work=29*
 22: 0x015D [0x2B] EventEntity [13613*]:
    → "I plan to remain here and throw myself wholeheartedly into the deciphering of this riddle. If you happen across anything in your travels that you feel may fit this description, would you be so good as to bring it to me?"
 23: 0x0164 [0x23] WAIT_FOR_DIALOG_INTERACTION
 24: 0x0165 [0x66] LOAD_EXT_SCHEDULER_MAIN: Load scheduler "thk0" with entities [Nichais (ID: 17105607/0x010502C7), Nichais (ID: 17105607/0x010502C7)], work=29*
 25: 0x0174 [0x6E] EventEntity uses emote 1*
 26: 0x017B [0x99] Wait for EventEntity animation to complete
 27: 0x0180 [0x99] Wait for EventEntity animation to complete
 28: 0x0185 [0x1C] WAIT(150* ticks)
 29: 0x0188 [0x21] END_EVENT
 30: 0x0189 [0x00] END_REQSTACK()
```

### Event 75

#### Metadata

| Field        | Value    |
|--------------|----------|
| Entrypoint   | 0x018A   |
| Data Size    | 93 bytes |
| Instructions | 17       |

```
      00 01 02 03 04 05 06 07  08 09 0A 0B 0C 0D 0E 0F
      -- -- -- -- -- -- -- --  -- -- -- -- -- -- -- --
0180:                                1E F0 FF FF 7F 66            .....f
0190: 00 80 C7 02 05 01 C7 02  05 01 74 6C 6B 30 2B F8  ..........tlk0+.
01A0: FF FF 7F 12 80 23 66 00  80 C7 02 05 01 C7 02 05  .....#f.........
01B0: 01 74 6C 6B 31 1C 13 80  6E F8 FF FF 7F 14 80 99  .tlk1...n.......
01C0: F8 FF FF 7F 2B F8 FF FF  7F 15 80 23 99 F8 FF FF  ....+......#....
01D0: 7F 6E F8 FF FF 7F 05 80  99 F8 FF FF 7F 99 F8 FF  .n..............
01E0: FF 7F 1C 07 80 21 00                              .....!.         
```

#### Opcodes

```
  0: 0x018A [0x1E] EventEntity looks at LocalPlayer and starts talking
  1: 0x018F [0x66] LOAD_EXT_SCHEDULER_MAIN: Load scheduler "tlk0" with entities [Nichais (ID: 17105607/0x010502C7), Nichais (ID: 17105607/0x010502C7)], work=29*
  2: 0x019E [0x2B] EventEntity [13615*]:
    → "<Player>, you've returned! So good of you to come again. Pray tell, were you able to gain any insight into our little puzzle?"
  3: 0x01A5 [0x23] WAIT_FOR_DIALOG_INTERACTION
  4: 0x01A6 [0x66] LOAD_EXT_SCHEDULER_MAIN: Load scheduler "tlk1" with entities [Nichais (ID: 17105607/0x010502C7), Nichais (ID: 17105607/0x010502C7)], work=29*
  5: 0x01B5 [0x1C] WAIT(120* ticks)
  6: 0x01B8 [0x6E] EventEntity uses emote 6*
  7: 0x01BF [0x99] Wait for EventEntity animation to complete
  8: 0x01C4 [0x2B] EventEntity [13616*]:
    → "Hmmm... I certainly had not thought of this. Though, to be honest, I'm not sure I see the relevance. Perhaps we are veering farther from the truth."
  9: 0x01CB [0x23] WAIT_FOR_DIALOG_INTERACTION
 10: 0x01CC [0x99] Wait for EventEntity animation to complete
 11: 0x01D1 [0x6E] EventEntity uses emote 1*
 12: 0x01D8 [0x99] Wait for EventEntity animation to complete
 13: 0x01DD [0x99] Wait for EventEntity animation to complete
 14: 0x01E2 [0x1C] WAIT(150* ticks)
 15: 0x01E5 [0x21] END_EVENT
 16: 0x01E6 [0x00] END_REQSTACK()
```

### Event 76

#### Metadata

| Field        | Value     |
|--------------|-----------|
| Entrypoint   | 0x01E7    |
| Data Size    | 136 bytes |
| Instructions | 28        |

```
      00 01 02 03 04 05 06 07  08 09 0A 0B 0C 0D 0E 0F
      -- -- -- -- -- -- -- --  -- -- -- -- -- -- -- --
01E0:                      1E  F0 FF FF 7F 6E F8 FF FF         .....n...
01F0: 7F 03 80 99 F8 FF FF 7F  2B F8 FF FF 7F 16 80 23  ........+......#
0200: 1C 17 80 6F 70 99 F8 FF  FF 7F 66 00 80 C7 02 05  ...op.....f.....
0210: 01 C7 02 05 01 74 68 6B  31 2B F8 FF FF 7F 18 80  .....thk1+......
0220: 23 66 00 80 C7 02 05 01  C7 02 05 01 74 68 6B 32  #f..........thk2
0230: 1C 19 80 3A F8 FF FF 7F  00 00 08 00 00 0E 80 4B  ...:...........K
0240: F8 FF FF 7F 00 00 7B F8  FF FF 7F 6F 76 F8 FF FF  ......{....ov...
0250: 7F 6E F8 FF FF 7F 14 80  99 F8 FF FF 7F 2B F8 FF  .n...........+..
0260: FF 7F 1A 80 23 99 F8 FF  FF 7F 1C 07 80 21 00     ....#........!. 
```

#### Opcodes

```
  0: 0x01E7 [0x1E] EventEntity looks at LocalPlayer and starts talking
  1: 0x01EC [0x6E] EventEntity uses emote 21*
  2: 0x01F3 [0x99] Wait for EventEntity animation to complete
  3: 0x01F8 [0x2B] EventEntity [13617*]:
    → "<Player>, what's this? Hmmm... Most intriguing. I dare say, I think you may be on to something with this."
  4: 0x01FF [0x23] WAIT_FOR_DIALOG_INTERACTION
  5: 0x0200 [0x1C] WAIT(75* ticks)
  6: 0x0203 [0x6F] WAIT_FRAME_DELAY: Yield until WaitTime reaches zero
  7: 0x0204 [0x70] WAIT_ENTITY_RENDER_FLAG: Wait while EventEntity->Render.Flags3 bit 2 is set (cancel turn if not)
  8: 0x0205 [0x99] Wait for EventEntity animation to complete
  9: 0x020A [0x66] LOAD_EXT_SCHEDULER_MAIN: Load scheduler "thk1" with entities [Nichais (ID: 17105607/0x010502C7), Nichais (ID: 17105607/0x010502C7)], work=29*
 10: 0x0219 [0x2B] EventEntity [13618*]:
    → "Yes, it just may be... But..."
 11: 0x0220 [0x23] WAIT_FOR_DIALOG_INTERACTION
 12: 0x0221 [0x66] LOAD_EXT_SCHEDULER_MAIN: Load scheduler "thk2" with entities [Nichais (ID: 17105607/0x010502C7), Nichais (ID: 17105607/0x010502C7)], work=29*
 13: 0x0230 [0x1C] WAIT(70* ticks)
 14: 0x0233 [0x3A] CONVERT_YAW_TO_BYTE(entity=EventEntity, result_destination=ExtData[1]->WorkLocal[0])
 15: 0x023A [0x08] ExtData[1]->WorkLocal[0] -= 400*
 16: 0x023F [0x4B] UPDATE_ENTITY_YAW(entity=EventEntity, yaw=ExtData[1]->WorkLocal[0])
 17: 0x0246 [0x7B] EventEntity stops talking
 18: 0x024B [0x6F] WAIT_FRAME_DELAY: Yield until WaitTime reaches zero
 19: 0x024C [0x76] CHECK_ENTITY_RENDER_FLAGS: Wait until EventEntity Render.Flags0 and Render.Flags3 conditions are met
 20: 0x0251 [0x6E] EventEntity uses emote 6*
 21: 0x0258 [0x99] Wait for EventEntity animation to complete
 22: 0x025D [0x2B] EventEntity [13619*]:
    → "Alas, <Player>, I fear this may be a bit too large."
 23: 0x0264 [0x23] WAIT_FOR_DIALOG_INTERACTION
 24: 0x0265 [0x99] Wait for EventEntity animation to complete
 25: 0x026A [0x1C] WAIT(150* ticks)
 26: 0x026D [0x21] END_EVENT
 27: 0x026E [0x00] END_REQSTACK()
```

### Event 77

#### Metadata

| Field        | Value     |
|--------------|-----------|
| Entrypoint   | 0x026F    |
| Data Size    | 100 bytes |
| Instructions | 20        |

```
      00 01 02 03 04 05 06 07  08 09 0A 0B 0C 0D 0E 0F
      -- -- -- -- -- -- -- --  -- -- -- -- -- -- -- --
0260:                                               1E                 .
0270: F0 FF FF 7F 6E F8 FF FF  7F 03 80 99 F8 FF FF 7F  ....n...........
0280: 03 02 10 1B 80 2B F8 FF  FF 7F 1C 80 23 1C 17 80  .....+......#...
0290: 6F 70 99 F8 FF FF 7F 66  00 80 C7 02 05 01 C7 02  op.....f........
02A0: 05 01 74 6C 6B 30 2B F8  FF FF 7F 1D 80 23 66 00  ..tlk0+......#f.
02B0: 80 C7 02 05 01 C7 02 05  01 74 6C 6B 31 6E F8 FF  .........tlk1n..
02C0: FF 7F 05 80 99 F8 FF FF  7F 99 F8 FF FF 7F 1C 07  ................
02D0: 80 21 00                                          .!.             
```

#### Opcodes

```
  0: 0x026F [0x1E] EventEntity looks at LocalPlayer and starts talking
  1: 0x0274 [0x6E] EventEntity uses emote 21*
  2: 0x027B [0x99] Wait for EventEntity animation to complete
  3: 0x0280 [0x03] Work_Zone[2] = 2489*
  4: 0x0285 [0x2B] EventEntity [13620*]:
    → "By the Goddess! An authentic $0! How did you happen across a copy of this!? Are you aware of the value and rarity of this text, <Player>?"
  5: 0x028C [0x23] WAIT_FOR_DIALOG_INTERACTION
  6: 0x028D [0x1C] WAIT(75* ticks)
  7: 0x0290 [0x6F] WAIT_FRAME_DELAY: Yield until WaitTime reaches zero
  8: 0x0291 [0x70] WAIT_ENTITY_RENDER_FLAG: Wait while EventEntity->Render.Flags3 bit 2 is set (cancel turn if not)
  9: 0x0292 [0x99] Wait for EventEntity animation to complete
 10: 0x0297 [0x66] LOAD_EXT_SCHEDULER_MAIN: Load scheduler "tlk0" with entities [Nichais (ID: 17105607/0x010502C7), Nichais (ID: 17105607/0x010502C7)], work=29*
 11: 0x02A6 [0x2B] EventEntity [13621*]:
    → "I confess, the thought had occurred to me as well. But on reflection, I realized an ancient tome such as this would never make for a practical daily offering. Though unfortunately not the item we are searching for, please, keep it with you. And keep it safe."
 12: 0x02AD [0x23] WAIT_FOR_DIALOG_INTERACTION
 13: 0x02AE [0x66] LOAD_EXT_SCHEDULER_MAIN: Load scheduler "tlk1" with entities [Nichais (ID: 17105607/0x010502C7), Nichais (ID: 17105607/0x010502C7)], work=29*
 14: 0x02BD [0x6E] EventEntity uses emote 1*
 15: 0x02C4 [0x99] Wait for EventEntity animation to complete
 16: 0x02C9 [0x99] Wait for EventEntity animation to complete
 17: 0x02CE [0x1C] WAIT(150* ticks)
 18: 0x02D1 [0x21] END_EVENT
 19: 0x02D2 [0x00] END_REQSTACK()
```

### Event 78

#### Metadata

| Field        | Value   |
|--------------|---------|
| Entrypoint   | 0x02D3  |
| Data Size    | 1 bytes |
| Instructions | 1       |

```
      00 01 02 03 04 05 06 07  08 09 0A 0B 0C 0D 0E 0F
      -- -- -- -- -- -- -- --  -- -- -- -- -- -- -- --
02D0:          00                                          .            
```

#### Opcodes

```
  0: 0x02D3 [0x00] END_REQSTACK()
```

### Event 79

#### Metadata

| Field        | Value    |
|--------------|----------|
| Entrypoint   | 0x02D4   |
| Data Size    | 53 bytes |
| Instructions | 9        |

```
      00 01 02 03 04 05 06 07  08 09 0A 0B 0C 0D 0E 0F
      -- -- -- -- -- -- -- --  -- -- -- -- -- -- -- --
02D0:             1E F0 FF FF  7F 66 00 80 C7 02 05 01      .....f......
02E0: C7 02 05 01 74 6C 6B 30  03 02 10 1E 80 2B F8 FF  ....tlk0.....+..
02F0: FF 7F 1F 80 23 66 00 80  C7 02 05 01 C7 02 05 01  ....#f..........
0300: 74 6C 6B 31 1C 20 80 21  00                       tlk1. .!.       
```

#### Opcodes

```
  0: 0x02D4 [0x1E] EventEntity looks at LocalPlayer and starts talking
  1: 0x02D9 [0x66] LOAD_EXT_SCHEDULER_MAIN: Load scheduler "tlk0" with entities [Nichais (ID: 17105607/0x010502C7), Nichais (ID: 17105607/0x010502C7)], work=29*
  2: 0x02E8 [0x03] Work_Zone[2] = 17397*
  3: 0x02ED [0x2B] EventEntity [13631*]:
    → "I have an elaborate jeweled box that I think may be just the thing! I shall make all the necessary preparations and head to Grauberg at once!"
  4: 0x02F4 [0x23] WAIT_FOR_DIALOG_INTERACTION
  5: 0x02F5 [0x66] LOAD_EXT_SCHEDULER_MAIN: Load scheduler "tlk1" with entities [Nichais (ID: 17105607/0x010502C7), Nichais (ID: 17105607/0x010502C7)], work=29*
  6: 0x0304 [0x1C] WAIT(90* ticks)
  7: 0x0307 [0x21] END_EVENT
  8: 0x0308 [0x00] END_REQSTACK()
```

### Event 80

#### Metadata

| Field        | Value     |
|--------------|-----------|
| Entrypoint   | 0x0309    |
| Data Size    | 139 bytes |
| Instructions | 27        |

```
      00 01 02 03 04 05 06 07  08 09 0A 0B 0C 0D 0E 0F
      -- -- -- -- -- -- -- --  -- -- -- -- -- -- -- --
0300:                             1E F0 FF FF 7F 6E F8           .....n.
0310: FF FF 7F 05 80 99 F8 FF  FF 7F 2B F8 FF FF 7F 21  ..........+....!
0320: 80 23 99 F8 FF FF 7F 1C  22 80 66 00 80 C7 02 05  .#......".f.....
0330: 01 C7 02 05 01 74 6C 6B  30 2B F8 FF FF 7F 23 80  .....tlk0+....#.
0340: 23 66 00 80 C7 02 05 01  C7 02 05 01 74 6C 6B 31  #f..........tlk1
0350: 1C 22 80 3A F8 FF FF 7F  00 00 08 00 00 24 80 4B  .".:.........$.K
0360: F8 FF FF 7F 00 00 7B F8  FF FF 7F 6F 76 F8 FF FF  ......{....ov...
0370: 7F 03 02 10 1E 80 6E F8  FF FF 7F 14 80 99 F8 FF  ......n.........
0380: FF 7F 2B F8 FF FF 7F 25  80 23 99 F8 FF FF 7F 1C  ..+....%.#......
0390: 13 80 21 00                                       ..!.            
```

#### Opcodes

```
  0: 0x0309 [0x1E] EventEntity looks at LocalPlayer and starts talking
  1: 0x030E [0x6E] EventEntity uses emote 1*
  2: 0x0315 [0x99] Wait for EventEntity animation to complete
  3: 0x031A [0x2B] EventEntity [13632*]:
    → "<Player>, the Goddess herself must have sent you to help me! Surely, I would not have been capable of weathering this storm on my own. You have my eternal thanks!"
  4: 0x0321 [0x23] WAIT_FOR_DIALOG_INTERACTION
  5: 0x0322 [0x99] Wait for EventEntity animation to complete
  6: 0x0327 [0x1C] WAIT(15* ticks)
  7: 0x032A [0x66] LOAD_EXT_SCHEDULER_MAIN: Load scheduler "tlk0" with entities [Nichais (ID: 17105607/0x010502C7), Nichais (ID: 17105607/0x010502C7)], work=29*
  8: 0x0339 [0x2B] EventEntity [13633*]:
    → "Still, who would have thought that a great wyrm, the fiercest and most majestic of beings, would derive such pleasure from a common bug? I must say, in retrospect, the whole thing is quite amusing, don't you think?"
  9: 0x0340 [0x23] WAIT_FOR_DIALOG_INTERACTION
 10: 0x0341 [0x66] LOAD_EXT_SCHEDULER_MAIN: Load scheduler "tlk1" with entities [Nichais (ID: 17105607/0x010502C7), Nichais (ID: 17105607/0x010502C7)], work=29*
 11: 0x0350 [0x1C] WAIT(15* ticks)
 12: 0x0353 [0x3A] CONVERT_YAW_TO_BYTE(entity=EventEntity, result_destination=ExtData[1]->WorkLocal[0])
 13: 0x035A [0x08] ExtData[1]->WorkLocal[0] -= 200*
 14: 0x035F [0x4B] UPDATE_ENTITY_YAW(entity=EventEntity, yaw=ExtData[1]->WorkLocal[0])
 15: 0x0366 [0x7B] EventEntity stops talking
 16: 0x036B [0x6F] WAIT_FRAME_DELAY: Yield until WaitTime reaches zero
 17: 0x036C [0x76] CHECK_ENTITY_RENDER_FLAGS: Wait until EventEntity Render.Flags0 and Render.Flags3 conditions are met
 18: 0x0371 [0x03] Work_Zone[2] = 17397*
 19: 0x0376 [0x6E] EventEntity uses emote 6*
 20: 0x037D [0x99] Wait for EventEntity animation to complete
 21: 0x0382 [0x2B] EventEntity [13634*]:
    → "I can honestly say that I shall never forget the look of sheer satisfaction on her face when she plopped that $0 into her mouth. Not for all my days!"
 22: 0x0389 [0x23] WAIT_FOR_DIALOG_INTERACTION
 23: 0x038A [0x99] Wait for EventEntity animation to complete
 24: 0x038F [0x1C] WAIT(120* ticks)
 25: 0x0392 [0x21] END_EVENT
 26: 0x0393 [0x00] END_REQSTACK()
```

### Event 65535.1

#### Metadata

| Field        | Value    |
|--------------|----------|
| Entrypoint   | 0x0394   |
| Data Size    | 14 bytes |
| Instructions | 4        |

```
      00 01 02 03 04 05 06 07  08 09 0A 0B 0C 0D 0E 0F
      -- -- -- -- -- -- -- --  -- -- -- -- -- -- -- --
0390:             32 22 80 1F  00 26 80 27 80 28 80 1F      2"...&.'.(..
03A0: 01 00                                             ..              
```

#### Opcodes

```
  0: 0x0394 [0x32] ExtData[1]->MainSpeed = 15* * 0.1
  1: 0x0397 [0x1F] MOVE_ENTITY: EventEntity moves to X=130.086*, Z=80.014*, Y=0.000*
  2: 0x039F [0x1F] MOVE_ENTITY: Update entity position (mode=1)
  3: 0x03A1 [0x00] END_REQSTACK()
```

### Event 65535.2

#### Metadata

| Field        | Value    |
|--------------|----------|
| Entrypoint   | 0x03A2   |
| Data Size    | 15 bytes |
| Instructions | 5        |

```
      00 01 02 03 04 05 06 07  08 09 0A 0B 0C 0D 0E 0F
      -- -- -- -- -- -- -- --  -- -- -- -- -- -- -- --
03A0:       32 29 80 1F 00 2A  80 2B 80 28 80 1F 01 6F    2)...*.+.(...o
03B0: 00                                                .               
```

#### Opcodes

```
  0: 0x03A2 [0x32] ExtData[1]->MainSpeed = 17* * 0.1
  1: 0x03A5 [0x1F] MOVE_ENTITY: EventEntity moves to X=133.742*, Z=80.773*, Y=0.000*
  2: 0x03AD [0x1F] MOVE_ENTITY: Update entity position (mode=1)
  3: 0x03AF [0x6F] WAIT_FRAME_DELAY: Yield until WaitTime reaches zero
  4: 0x03B0 [0x00] END_REQSTACK()
```

### Event 65535.3

#### Metadata

| Field        | Value    |
|--------------|----------|
| Entrypoint   | 0x03B1   |
| Data Size    | 14 bytes |
| Instructions | 4        |

```
      00 01 02 03 04 05 06 07  08 09 0A 0B 0C 0D 0E 0F
      -- -- -- -- -- -- -- --  -- -- -- -- -- -- -- --
03B0:    32 2C 80 1F 00 2D 80  2E 80 28 80 1F 01 00      2,...-...(.... 
```

#### Opcodes

```
  0: 0x03B1 [0x32] ExtData[1]->MainSpeed = 18* * 0.1
  1: 0x03B4 [0x1F] MOVE_ENTITY: EventEntity moves to X=131.192*, Z=77.827*, Y=0.000*
  2: 0x03BC [0x1F] MOVE_ENTITY: Update entity position (mode=1)
  3: 0x03BE [0x00] END_REQSTACK()
```

### Event 65535.4

#### Metadata

| Field        | Value    |
|--------------|----------|
| Entrypoint   | 0x03BF   |
| Data Size    | 14 bytes |
| Instructions | 4        |

```
      00 01 02 03 04 05 06 07  08 09 0A 0B 0C 0D 0E 0F
      -- -- -- -- -- -- -- --  -- -- -- -- -- -- -- --
03B0:                                               32                 2
03C0: 2C 80 1F 00 2A 80 2B 80  28 80 1F 01 00           ,...*.+.(....   
```

#### Opcodes

```
  0: 0x03BF [0x32] ExtData[1]->MainSpeed = 18* * 0.1
  1: 0x03C2 [0x1F] MOVE_ENTITY: EventEntity moves to X=133.742*, Z=80.773*, Y=0.000*
  2: 0x03CA [0x1F] MOVE_ENTITY: Update entity position (mode=1)
  3: 0x03CC [0x00] END_REQSTACK()
```
