# 17105507

## Common Data

| Field            | Value                            |
|------------------|----------------------------------|
| Zone             | Southern San d'Oria [S] (ID: 80) |
| Block Size       | 140 bytes                        |
| Total Events     | 4                                |
| References Count | 12                               |

## List of Events

| Event ID                 | Entrypoint   |   Size |   Instructions |
|--------------------------|--------------|--------|----------------|
| [65535](#event-65535)    | 0x0000       |      1 |              1 |
| [62](#event-62)          | 0x0001       |      1 |              1 |
| [65535.1](#event-655351) | 0x0002       |     29 |              7 |
| [65535.2](#event-655352) | 0x001F       |     26 |              8 |

## DAT References (imed_data)

|   Index | Hex Value   |   Dec Value |
|---------|-------------|-------------|
|       0 | 0x17424     |       95268 |
|       1 | 0xFFFF748C  |  4294931596 |
|       2 | 0x04BD      |        1213 |
|       3 | 0x0A2C      |        2604 |
|       4 | 0x000D      |          13 |
|       5 | 0x18060     |       98400 |
|       6 | 0xFFFF5F09  |  4294926089 |
|       7 | 0x03E7      |         999 |
|       8 | 0x18B80     |      101248 |
|       9 | 0xFFFF557D  |  4294923645 |
|      10 | 0x1AAA5     |      109221 |
|      11 | 0xFFFF442B  |  4294919211 |

## Events

### Event 65535

#### Metadata

| Field        | Value   |
|--------------|---------|
| Entrypoint   | 0x0000  |
| Data Size    | 1 bytes |
| Instructions | 1       |

```
      00 01 02 03 04 05 06 07  08 09 0A 0B 0C 0D 0E 0F
      -- -- -- -- -- -- -- --  -- -- -- -- -- -- -- --
0000: 00                                                .               
```

#### Opcodes

```
  0: 0x0000 [0x00] END_REQSTACK()
```

### Event 62

#### Metadata

| Field        | Value   |
|--------------|---------|
| Entrypoint   | 0x0001  |
| Data Size    | 1 bytes |
| Instructions | 1       |

```
      00 01 02 03 04 05 06 07  08 09 0A 0B 0C 0D 0E 0F
      -- -- -- -- -- -- -- --  -- -- -- -- -- -- -- --
0000:    00                                              .              
```

#### Opcodes

```
  0: 0x0001 [0x00] END_REQSTACK()
```

### Event 65535.1

#### Metadata

| Field        | Value    |
|--------------|----------|
| Entrypoint   | 0x0002   |
| Data Size    | 29 bytes |
| Instructions | 7        |

```
      00 01 02 03 04 05 06 07  08 09 0A 0B 0C 0D 0E 0F
      -- -- -- -- -- -- -- --  -- -- -- -- -- -- -- --
0000:       37 00 80 01 80 02  80 03 80 32 04 80 1F 00    7........2....
0010: 05 80 06 80 07 80 1F 01  6F 1E 5C 02 05 01 00     ........o.\.... 
```

#### Opcodes

```
  0: 0x0002 [0x37] UPDATE_EVENT_POSITION_AND_DIR: x=95.268*, z=-35.700*, y=1.213*, direction=228.9°*
  1: 0x000B [0x32] ExtData[1]->MainSpeed = 13* * 0.1
  2: 0x000E [0x1F] MOVE_ENTITY: EventEntity moves to X=98.400*, Z=-41.207*, Y=0.999*
  3: 0x0016 [0x1F] MOVE_ENTITY: Update entity position (mode=1)
  4: 0x0018 [0x6F] WAIT_FRAME_DELAY: Yield until WaitTime reaches zero
  5: 0x0019 [0x1E] EventEntity looks at Tihl Midurhi (ID: 17105500/0x0105025C) and starts talking
  6: 0x001E [0x00] END_REQSTACK()
```

### Event 65535.2

#### Metadata

| Field        | Value    |
|--------------|----------|
| Entrypoint   | 0x001F   |
| Data Size    | 26 bytes |
| Instructions | 8        |

```
      00 01 02 03 04 05 06 07  08 09 0A 0B 0C 0D 0E 0F
      -- -- -- -- -- -- -- --  -- -- -- -- -- -- -- --
0010:                                               32                 2
0020: 04 80 1F 00 08 80 09 80  07 80 1F 01 6F 1F 00 0A  ............o...
0030: 80 0B 80 07 80 1F 01 6F  00                       .......o.       
```

#### Opcodes

```
  0: 0x001F [0x32] ExtData[1]->MainSpeed = 13* * 0.1
  1: 0x0022 [0x1F] MOVE_ENTITY: EventEntity moves to X=101.248*, Z=-43.651*, Y=0.999*
  2: 0x002A [0x1F] MOVE_ENTITY: Update entity position (mode=1)
  3: 0x002C [0x6F] WAIT_FRAME_DELAY: Yield until WaitTime reaches zero
  4: 0x002D [0x1F] MOVE_ENTITY: EventEntity moves to X=109.221*, Z=-48.085*, Y=0.999*
  5: 0x0035 [0x1F] MOVE_ENTITY: Update entity position (mode=1)
  6: 0x0037 [0x6F] WAIT_FRAME_DELAY: Yield until WaitTime reaches zero
  7: 0x0038 [0x00] END_REQSTACK()
```
