# 17105580

## Common Data

| Field            | Value                            |
|------------------|----------------------------------|
| Zone             | Southern San d'Oria [S] (ID: 80) |
| Block Size       | 54864 bytes                      |
| Total Events     | 10                               |
| References Count | 1078                             |

## List of Events

| Event ID                 | Entrypoint   |   Size |   Instructions |
|--------------------------|--------------|--------|----------------|
| [65535](#event-65535)    | 0x0000       |      1 |              1 |
| [85](#event-85)          | 0x0001       |   3673 |            373 |
| [86](#event-86)          | 0x0E5A       |   7587 |            871 |
| [87](#event-87)          | 0x2BFD       |  10776 |           1231 |
| [151](#event-151)        | 0x5615       |   5080 |            657 |
| [154](#event-154)        | 0x69ED       |   7491 |            906 |
| [155](#event-155)        | 0x8730       |   2217 |            288 |
| [166](#event-166)        | 0x8FD9       |   9173 |           1080 |
| [65535.1](#event-655351) | 0xB3AE       |    301 |             35 |
| [175](#event-175)        | 0xB4DB       |   4195 |            507 |

## DAT References (imed_data)

|   Index | Hex Value   |   Dec Value |
|---------|-------------|-------------|
|       0 | 0x0013      |          19 |
|       1 | 0x18C76     |      101494 |
|       2 | 0x19158     |      102744 |
|       3 | 0x03E7      |         999 |
|       4 | 0x09C4      |        2500 |
|       5 | 0x1BB3B     |      113467 |
|       6 | 0x15399     |       86937 |
|       7 | 0x0000      |           0 |
|       8 | 0x09DF      |        2527 |
|       9 | 0x000F      |          15 |
|      10 | 0x0155      |         341 |
|      11 | 0x001E      |          30 |
|      12 | 0x17D2F     |       97583 |
|      13 | 0x19F9A     |      106394 |
|      14 | 0x01BD      |         445 |
|      15 | 0x005A      |          90 |
|      16 | 0x0078      |         120 |
|      17 | 0x000B      |          11 |
|      18 | 0x01C1      |         449 |
|      19 | 0x00C8      |         200 |
|      20 | 0x003C      |          60 |
|      21 | 0x0099      |         153 |
|      22 | 0x3567      |       13671 |
|      23 | 0x087D      |        2173 |
|      24 | 0x3568      |       13672 |
|      25 | 0x3569      |       13673 |
|      26 | 0x356A      |       13674 |
|      27 | 0x356B      |       13675 |
|      28 | 0x356C      |       13676 |
|      29 | 0x0950      |        2384 |
|      30 | 0x0014      |          20 |
|      31 | 0x0032      |          50 |
|      32 | 0x356D      |       13677 |
|      33 | 0x000A      |          10 |
|      34 | 0x356E      |       13678 |
|      35 | 0x356F      |       13679 |
|      36 | 0x0001      |           1 |
|      37 | 0x0002      |           2 |
|      38 | 0x0003      |           3 |
|      39 | 0x0004      |           4 |
|      40 | 0x0005      |           5 |
|      41 | 0x0006      |           6 |
|      42 | 0x0007      |           7 |
|      43 | 0x0008      |           8 |
|      44 | 0x183D4     |       99284 |
|      45 | 0x18CC7     |      101575 |
|      46 | 0x0FAE      |        4014 |
|      47 | 0x3570      |       13680 |
|      48 | 0x3571      |       13681 |
|      49 | 0x3572      |       13682 |
|      50 | 0x3573      |       13683 |
|      51 | 0x094E      |        2382 |
|      52 | 0x3574      |       13684 |
|      53 | 0x0050      |          80 |
|      54 | 0x3575      |       13685 |
|      55 | 0x08F1      |        2289 |
|      56 | 0x3576      |       13686 |
|      57 | 0x3577      |       13687 |
|      58 | 0x00F6      |         246 |
|      59 | 0x00B4      |         180 |
|      60 | 0x3578      |       13688 |
|      61 | 0x3579      |       13689 |
|      62 | 0x05E6      |        1510 |
|      63 | 0x95EC      |       38380 |
|      64 | 0xFFFFF934  |  4294965556 |
|      65 | 0x0C2A      |        3114 |
|      66 | 0x0E23      |        3619 |
|      67 | 0x9124      |       37156 |
|      68 | 0xFFFFFA00  |  4294965760 |
|      69 | 0x0C29      |        3113 |
|      70 | 0x0550      |        1360 |
|      71 | 0xA9D9      |       43481 |
|      72 | 0xFFFFF830  |  4294965296 |
|      73 | 0x357B      |       13691 |
|      74 | 0x357C      |       13692 |
|      75 | 0x0009      |           9 |
|      76 | 0x001D      |          29 |
|      77 | 0x0027      |          39 |
|      78 | 0x0031      |          49 |
|      79 | 0x003B      |          59 |
|      80 | 0x0045      |          69 |
|      81 | 0x357D      |       13693 |
|      82 | 0x357E      |       13694 |
|      83 | 0x0C58      |        3160 |
|      84 | 0xA2DC      |       41692 |
|      85 | 0xFFFFF831  |  4294965297 |
|      86 | 0x0BC0      |        3008 |
|      87 | 0x0016      |          22 |
|      88 | 0x001A      |          26 |
|      89 | 0x357F      |       13695 |
|      90 | 0x3580      |       13696 |
|      91 | 0x3581      |       13697 |
|      92 | 0x3582      |       13698 |
|      93 | 0x3583      |       13699 |
|      94 | 0x0026      |          38 |
|      95 | 0x3584      |       13700 |
|      96 | 0x3585      |       13701 |
|      97 | 0x0024      |          36 |
|      98 | 0x00E9      |         233 |
|      99 | 0xFFFFCCFC  |  4294954236 |
|     100 | 0xFFFFF0B8  |  4294963384 |
|     101 | 0x07A4      |        1956 |
|     102 | 0xFFFF8368  |  4294935400 |
|     103 | 0xFFFFDC48  |  4294958152 |
|     104 | 0x1004      |        4100 |
|     105 | 0xFFFF8B0A  |  4294937354 |
|     106 | 0xFFFFE373  |  4294959987 |
|     107 | 0x0D57      |        3415 |
|     108 | 0xFFFF91AE  |  4294939054 |
|     109 | 0xFFFF9936  |  4294940982 |
|     110 | 0xFFFFD4A1  |  4294956193 |
|     111 | 0xFFFFBD8C  |  4294950284 |
|     112 | 0xFFFFF850  |  4294965328 |
|     113 | 0x009C      |         156 |
|     114 | 0x0058      |          88 |
|     115 | 0x08CD      |        2253 |
|     116 | 0xFFFFC0E3  |  4294951139 |
|     117 | 0xFFFFF171  |  4294963569 |
|     118 | 0x3586      |       13702 |
|     119 | 0xFFFFA16B  |  4294943083 |
|     120 | 0xFFFFEF2A  |  4294962986 |
|     121 | 0xFFFFB08D  |  4294946957 |
|     122 | 0xFFFFF0AC  |  4294963372 |
|     123 | 0x07DB      |        2011 |
|     124 | 0x0064      |         100 |
|     125 | 0x000D      |          13 |
|     126 | 0xFFFF8C42  |  4294937666 |
|     127 | 0xFFFFE9AD  |  4294961581 |
|     128 | 0x0FA3      |        4003 |
|     129 | 0xFFFFB9E0  |  4294949344 |
|     130 | 0xFFFFF510  |  4294964496 |
|     131 | 0x3587      |       13703 |
|     132 | 0x3588      |       13704 |
|     133 | 0xFFFFB3F5  |  4294947829 |
|     134 | 0xFFFFF319  |  4294963993 |
|     135 | 0x0FDE      |        4062 |
|     136 | 0x3589      |       13705 |
|     137 | 0xFFFFA655  |  4294944341 |
|     138 | 0xFFFFD4E6  |  4294956262 |
|     139 | 0x0C01      |        3073 |
|     140 | 0xFFFFA6A8  |  4294944424 |
|     141 | 0xFFFFE54D  |  4294960461 |
|     142 | 0xFFFF9457  |  4294939735 |
|     143 | 0xFFFFE3FF  |  4294960127 |
|     144 | 0x076A      |        1898 |
|     145 | 0xFFFF940E  |  4294939662 |
|     146 | 0xFFFFEAD0  |  4294961872 |
|     147 | 0xFFFF8C70  |  4294937712 |
|     148 | 0xFFFFE82D  |  4294961197 |
|     149 | 0x358A      |       13706 |
|     150 | 0x358B      |       13707 |
|     151 | 0x358C      |       13708 |
|     152 | 0x010E      |         270 |
|     153 | 0x08FF      |        2303 |
|     154 | 0x001C      |          28 |
|     155 | 0x358D      |       13709 |
|     156 | 0x0172      |         370 |
|     157 | 0x358E      |       13710 |
|     158 | 0xFFFF8FF0  |  4294938608 |
|     159 | 0xFFFFE983  |  4294961539 |
|     160 | 0x358F      |       13711 |
|     161 | 0x3590      |       13712 |
|     162 | 0x009F      |         159 |
|     163 | 0x3591      |       13713 |
|     164 | 0x3592      |       13714 |
|     165 | 0x3593      |       13715 |
|     166 | 0x3594      |       13716 |
|     167 | 0x3595      |       13717 |
|     168 | 0x3596      |       13718 |
|     169 | 0x002D      |          45 |
|     170 | 0x3597      |       13719 |
|     171 | 0x3598      |       13720 |
|     172 | 0x0010      |          16 |
|     173 | 0xFFFF9CA5  |  4294941861 |
|     174 | 0xFFFFE998  |  4294961560 |
|     175 | 0x0F34      |        3892 |
|     176 | 0x00F0      |         240 |
|     177 | 0x3599      |       13721 |
|     178 | 0x359A      |       13722 |
|     179 | 0x359B      |       13723 |
|     180 | 0x359C      |       13724 |
|     181 | 0x0019      |          25 |
|     182 | 0x359D      |       13725 |
|     183 | 0x359E      |       13726 |
|     184 | 0x359F      |       13727 |
|     185 | 0x35A0      |       13728 |
|     186 | 0x35A1      |       13729 |
|     187 | 0x35A2      |       13730 |
|     188 | 0x35A3      |       13731 |
|     189 | 0x35A4      |       13732 |
|     190 | 0x35A5      |       13733 |
|     191 | 0x35A6      |       13734 |
|     192 | 0x35A7      |       13735 |
|     193 | 0x35A8      |       13736 |
|     194 | 0x35A9      |       13737 |
|     195 | 0x35AA      |       13738 |
|     196 | 0x35AB      |       13739 |
|     197 | 0x35AC      |       13740 |
|     198 | 0x0180      |         384 |
|     199 | 0x0231      |         561 |
|     200 | 0x9190      |       37264 |
|     201 | 0xFFFFF9EF  |  4294965743 |
|     202 | 0x35AE      |       13742 |
|     203 | 0x35AF      |       13743 |
|     204 | 0x08C7      |        2247 |
|     205 | 0xFFFFBE78  |  4294950520 |
|     206 | 0xFFFFF12D  |  4294963501 |
|     207 | 0x07B1      |        1969 |
|     208 | 0xFFFFB8D3  |  4294949075 |
|     209 | 0xFFFFF32E  |  4294964014 |
|     210 | 0x07B2      |        1970 |
|     211 | 0xFFFF9589  |  4294940041 |
|     212 | 0xFFFFD4FB  |  4294956283 |
|     213 | 0x0C2F      |        3119 |
|     214 | 0xFFFFAB01  |  4294945537 |
|     215 | 0xFFFFFF32  |  4294967090 |
|     216 | 0x05D6      |        1494 |
|     217 | 0xFFFF955F  |  4294939999 |
|     218 | 0xFFFFE321  |  4294959905 |
|     219 | 0x03FC      |        1020 |
|     220 | 0x35B0      |       13744 |
|     221 | 0x01D1      |         465 |
|     222 | 0x35B1      |       13745 |
|     223 | 0x35B2      |       13746 |
|     224 | 0x0021      |          33 |
|     225 | 0xFFFFAB38  |  4294945592 |
|     226 | 0xFFFFEF73  |  4294963059 |
|     227 | 0x35B3      |       13747 |
|     228 | 0x35B4      |       13748 |
|     229 | 0x35B5      |       13749 |
|     230 | 0x35B6      |       13750 |
|     231 | 0x35B7      |       13751 |
|     232 | 0xFFFFA1B1  |  4294943153 |
|     233 | 0xFFFFD552  |  4294956370 |
|     234 | 0xFFFF9FB4  |  4294942644 |
|     235 | 0xFFFFD958  |  4294957400 |
|     236 | 0x05BF      |        1471 |
|     237 | 0x0020      |          32 |
|     238 | 0x35B8      |       13752 |
|     239 | 0x35B9      |       13753 |
|     240 | 0x35BA      |       13754 |
|     241 | 0x35BB      |       13755 |
|     242 | 0x35BC      |       13756 |
|     243 | 0x35BD      |       13757 |
|     244 | 0x35BE      |       13758 |
|     245 | 0x0283      |         643 |
|     246 | 0x35BF      |       13759 |
|     247 | 0x35C0      |       13760 |
|     248 | 0x00F7      |         247 |
|     249 | 0x35C1      |       13761 |
|     250 | 0x35C2      |       13762 |
|     251 | 0x35C3      |       13763 |
|     252 | 0x35C4      |       13764 |
|     253 | 0x35C5      |       13765 |
|     254 | 0x35C6      |       13766 |
|     255 | 0x35C7      |       13767 |
|     256 | 0x35C8      |       13768 |
|     257 | 0x35C9      |       13769 |
|     258 | 0x35CA      |       13770 |
|     259 | 0xFFFF9E21  |  4294942241 |
|     260 | 0xFFFFE7FF  |  4294961151 |
|     261 | 0x0EE8      |        3816 |
|     262 | 0x35CB      |       13771 |
|     263 | 0xFFFF9D09  |  4294941961 |
|     264 | 0xFFFFD550  |  4294956368 |
|     265 | 0xFFFFAB08  |  4294945544 |
|     266 | 0xFFFFEDDE  |  4294962654 |
|     267 | 0x35CC      |       13772 |
|     268 | 0x35CD      |       13773 |
|     269 | 0x0857      |        2135 |
|     270 | 0x0854      |        2132 |
|     271 | 0x35CE      |       13774 |
|     272 | 0xFFFFB87B  |  4294948987 |
|     273 | 0x03BB      |         955 |
|     274 | 0x0A01      |        2561 |
|     275 | 0x35CF      |       13775 |
|     276 | 0x35D0      |       13776 |
|     277 | 0x007F      |         127 |
|     278 | 0x35D1      |       13777 |
|     279 | 0x35D2      |       13778 |
|     280 | 0xFFFFBE65  |  4294950501 |
|     281 | 0xFFFFF86A  |  4294965354 |
|     282 | 0x35D3      |       13779 |
|     283 | 0x35D4      |       13780 |
|     284 | 0x35D5      |       13781 |
|     285 | 0x35D6      |       13782 |
|     286 | 0x35D7      |       13783 |
|     287 | 0x0AF0      |        2800 |
|     288 | 0x0A00      |        2560 |
|     289 | 0xFFFFC1B0  |  4294951344 |
|     290 | 0xFFFFEFF4  |  4294963188 |
|     291 | 0x35D8      |       13784 |
|     292 | 0x35D9      |       13785 |
|     293 | 0x08BF      |        2239 |
|     294 | 0xFFFFC439  |  4294951993 |
|     295 | 0xFFFFC7C0  |  4294952896 |
|     296 | 0x0BFE      |        3070 |
|     297 | 0x35DA      |       13786 |
|     298 | 0x35DB      |       13787 |
|     299 | 0x35DC      |       13788 |
|     300 | 0x35DD      |       13789 |
|     301 | 0x08F2      |        2290 |
|     302 | 0x35DE      |       13790 |
|     303 | 0x0023      |          35 |
|     304 | 0x0043      |          67 |
|     305 | 0xFFFFC491  |  4294952081 |
|     306 | 0xFFFFC5EF  |  4294952431 |
|     307 | 0x07D0      |        2000 |
|     308 | 0x35DF      |       13791 |
|     309 | 0x35E0      |       13792 |
|     310 | 0x35E1      |       13793 |
|     311 | 0x09FF      |        2559 |
|     312 | 0x35E2      |       13794 |
|     313 | 0xFFFFBF04  |  4294950660 |
|     314 | 0xFFFFC663  |  4294952547 |
|     315 | 0x08B7      |        2231 |
|     316 | 0x00A0      |         160 |
|     317 | 0x35E3      |       13795 |
|     318 | 0xFFFFAA3B  |  4294945339 |
|     319 | 0x015D      |         349 |
|     320 | 0x042C      |        1068 |
|     321 | 0xFFFFA26C  |  4294943340 |
|     322 | 0x0190      |         400 |
|     323 | 0x044D      |        1101 |
|     324 | 0xFFFFA5BF  |  4294944191 |
|     325 | 0xFFFFFC76  |  4294966390 |
|     326 | 0x0BB8      |        3000 |
|     327 | 0x35E4      |       13796 |
|     328 | 0x35E5      |       13797 |
|     329 | 0x35E6      |       13798 |
|     330 | 0x35E7      |       13799 |
|     331 | 0x0900      |        2304 |
|     332 | 0x08F3      |        2291 |
|     333 | 0xFFFFA841  |  4294944833 |
|     334 | 0xFFFFF0C8  |  4294963400 |
|     335 | 0x35E8      |       13800 |
|     336 | 0x0850      |        2128 |
|     337 | 0x35E9      |       13801 |
|     338 | 0x35EA      |       13802 |
|     339 | 0x35EB      |       13803 |
|     340 | 0xFFFFA378  |  4294943608 |
|     341 | 0xFFFFFB3F  |  4294966079 |
|     342 | 0x35EC      |       13804 |
|     343 | 0x09B4      |        2484 |
|     344 | 0xFFFFA8A7  |  4294944935 |
|     345 | 0xFFFFF6F5  |  4294964981 |
|     346 | 0x35ED      |       13805 |
|     347 | 0x008C      |         140 |
|     348 | 0x35EE      |       13806 |
|     349 | 0x35EF      |       13807 |
|     350 | 0x0856      |        2134 |
|     351 | 0x35F0      |       13808 |
|     352 | 0x35F1      |       13809 |
|     353 | 0x35F2      |       13810 |
|     354 | 0x35F3      |       13811 |
|     355 | 0x35F4      |       13812 |
|     356 | 0x0958      |        2392 |
|     357 | 0x35F5      |       13813 |
|     358 | 0x35F6      |       13814 |
|     359 | 0xFFFF9E2C  |  4294942252 |
|     360 | 0xFFFFFB31  |  4294966065 |
|     361 | 0x008D      |         141 |
|     362 | 0x0028      |          40 |
|     363 | 0xFFFFE5B8  |  4294960568 |
|     364 | 0xFFFFF42E  |  4294964270 |
|     365 | 0x0F33      |        3891 |
|     366 | 0xFFFFEEEF  |  4294962927 |
|     367 | 0xFFFFF912  |  4294965522 |
|     368 | 0x002C      |          44 |
|     369 | 0x0C7D      |        3197 |
|     370 | 0x0420      |        1056 |
|     371 | 0xFFFFFC38  |  4294966328 |
|     372 | 0x0194      |         404 |
|     373 | 0x35F7      |       13815 |
|     374 | 0x35F8      |       13816 |
|     375 | 0x08C2      |        2242 |
|     376 | 0x0046      |          70 |
|     377 | 0x35F9      |       13817 |
|     378 | 0x35FA      |       13818 |
|     379 | 0xFFFFFB1B  |  4294966043 |
|     380 | 0xFFFFF9C5  |  4294965701 |
|     381 | 0x0B74      |        2932 |
|     382 | 0xFFFFFC9C  |  4294966428 |
|     383 | 0x0096      |         150 |
|     384 | 0xFFFFFD11  |  4294966545 |
|     385 | 0x01A0      |         416 |
|     386 | 0x0B75      |        2933 |
|     387 | 0xFFFFFB6D  |  4294966125 |
|     388 | 0xFFFFFF5D  |  4294967133 |
|     389 | 0x35FB      |       13819 |
|     390 | 0x0D68      |        3432 |
|     391 | 0x0012      |          18 |
|     392 | 0x35FC      |       13820 |
|     393 | 0x35FD      |       13821 |
|     394 | 0x35FE      |       13822 |
|     395 | 0x35FF      |       13823 |
|     396 | 0x3600      |       13824 |
|     397 | 0x3601      |       13825 |
|     398 | 0x3602      |       13826 |
|     399 | 0x08C5      |        2245 |
|     400 | 0x3603      |       13827 |
|     401 | 0x0217      |         535 |
|     402 | 0x185AF     |       99759 |
|     403 | 0x2047F     |      132223 |
|     404 | 0xFFFFFF9B  |  4294967195 |
|     405 | 0x0261      |         609 |
|     406 | 0x17D8C     |       97676 |
|     407 | 0x1D32D     |      119597 |
|     408 | 0xFFFFE958  |  4294961496 |
|     409 | 0x020D      |         525 |
|     410 | 0x1A47A     |      107642 |
|     411 | 0x17A65     |       96869 |
|     412 | 0x0A23      |        2595 |
|     413 | 0x17C0C     |       97292 |
|     414 | 0x1A056     |      106582 |
|     415 | 0x09D8      |        2520 |
|     416 | 0x00E6      |         230 |
|     417 | 0x00FF      |         255 |
|     418 | 0x0149      |         329 |
|     419 | 0x175A2     |       95650 |
|     420 | 0x1A786     |      108422 |
|     421 | 0x096E      |        2414 |
|     422 | 0x16BC0     |       93120 |
|     423 | 0x1E820     |      124960 |
|     424 | 0x03E8      |        1000 |
|     425 | 0x061A      |        1562 |
|     426 | 0x150C2     |       86210 |
|     427 | 0x1CB50     |      117584 |
|     428 | 0x001B      |          27 |
|     429 | 0x15581     |       87425 |
|     430 | 0x1D83A     |      120890 |
|     431 | 0x0490      |        1168 |
|     432 | 0x14A55     |       84565 |
|     433 | 0x1C75F     |      116575 |
|     434 | 0x0022      |          34 |
|     435 | 0x15650     |       87632 |
|     436 | 0x1C55A     |      116058 |
|     437 | 0x09F9      |        2553 |
|     438 | 0x15AC5     |       88773 |
|     439 | 0x1CA66     |      117350 |
|     440 | 0x084A      |        2122 |
|     441 | 0x15AB0     |       88752 |
|     442 | 0x1CE33     |      118323 |
|     443 | 0x06AD      |        1709 |
|     444 | 0x15A49     |       88649 |
|     445 | 0x1C72F     |      116527 |
|     446 | 0x09FB      |        2555 |
|     447 | 0x157D1     |       88017 |
|     448 | 0x1D006     |      118790 |
|     449 | 0x0782      |        1922 |
|     450 | 0x08CA      |        2250 |
|     451 | 0x08BA      |        2234 |
|     452 | 0x0167      |         359 |
|     453 | 0x16716     |       91926 |
|     454 | 0x1B5B4     |      112052 |
|     455 | 0x37D6      |       14294 |
|     456 | 0x37D7      |       14295 |
|     457 | 0x37D8      |       14296 |
|     458 | 0x37D9      |       14297 |
|     459 | 0x37DA      |       14298 |
|     460 | 0x37DB      |       14299 |
|     461 | 0x0216      |         534 |
|     462 | 0x37DC      |       14300 |
|     463 | 0x0B18      |        2840 |
|     464 | 0x007E      |         126 |
|     465 | 0x18A78     |      100984 |
|     466 | 0x2006F     |      131183 |
|     467 | 0x07BE      |        1982 |
|     468 | 0x37DD      |       14301 |
|     469 | 0x188DE     |      100574 |
|     470 | 0x1F7C5     |      128965 |
|     471 | 0xFFFFFC18  |  4294966296 |
|     472 | 0x0601      |        1537 |
|     473 | 0x37DE      |       14302 |
|     474 | 0x004B      |          75 |
|     475 | 0x17F47     |       98119 |
|     476 | 0x1CD8B     |      118155 |
|     477 | 0x020C      |         524 |
|     478 | 0x37DF      |       14303 |
|     479 | 0x37E0      |       14304 |
|     480 | 0x37E1      |       14305 |
|     481 | 0x37E2      |       14306 |
|     482 | 0x1769A     |       95898 |
|     483 | 0x1D7A2     |      120738 |
|     484 | 0x0208      |         520 |
|     485 | 0x37E3      |       14307 |
|     486 | 0x0855      |        2133 |
|     487 | 0x37E4      |       14308 |
|     488 | 0x37E5      |       14309 |
|     489 | 0x37E6      |       14310 |
|     490 | 0x37E7      |       14311 |
|     491 | 0x37E8      |       14312 |
|     492 | 0x012C      |         300 |
|     493 | 0x1AAD5     |      109269 |
|     494 | 0x172BE     |       94910 |
|     495 | 0x09BE      |        2494 |
|     496 | 0x15824     |       88100 |
|     497 | 0x1EDAB     |      126379 |
|     498 | 0x0619      |        1561 |
|     499 | 0x18C16     |      101398 |
|     500 | 0x19C9A     |      105626 |
|     501 | 0x084B      |        2123 |
|     502 | 0x1927C     |      103036 |
|     503 | 0x19F13     |      106259 |
|     504 | 0x047A      |        1146 |
|     505 | 0x18B4E     |      101198 |
|     506 | 0x1A151     |      106833 |
|     507 | 0x05EF      |        1519 |
|     508 | 0x194D2     |      103634 |
|     509 | 0x183EE     |       99310 |
|     510 | 0x01F3      |         499 |
|     511 | 0x0ABC      |        2748 |
|     512 | 0x19647     |      104007 |
|     513 | 0x17E24     |       97828 |
|     514 | 0x00F9      |         249 |
|     515 | 0x09EF      |        2543 |
|     516 | 0x1910B     |      102667 |
|     517 | 0x1855E     |       99678 |
|     518 | 0x02ED      |         749 |
|     519 | 0x09A5      |        2469 |
|     520 | 0x199DD     |      104925 |
|     521 | 0x184C8     |       99528 |
|     522 | 0x00FA      |         250 |
|     523 | 0x19B1F     |      105247 |
|     524 | 0x17DD1     |       97745 |
|     525 | 0x09BF      |        2495 |
|     526 | 0x1A217     |      107031 |
|     527 | 0x18200     |       98816 |
|     528 | 0x19E74     |      106100 |
|     529 | 0x17CF9     |       97529 |
|     530 | 0x0A40      |        2624 |
|     531 | 0x1A28B     |      107147 |
|     532 | 0x17B66     |       97126 |
|     533 | 0x1A2E2     |      107234 |
|     534 | 0x175C9     |       95689 |
|     535 | 0x178EA     |       96490 |
|     536 | 0x1939C     |      103324 |
|     537 | 0x17973     |       96627 |
|     538 | 0x18FE6     |      102374 |
|     539 | 0x0B16      |        2838 |
|     540 | 0x18E63     |      101987 |
|     541 | 0x18E90     |      102032 |
|     542 | 0x18D03     |      101635 |
|     543 | 0x19C5C     |      105564 |
|     544 | 0x037F      |         895 |
|     545 | 0x087E      |        2174 |
|     546 | 0x37E9      |       14313 |
|     547 | 0x37EA      |       14314 |
|     548 | 0x19045     |      102469 |
|     549 | 0x19542     |      103746 |
|     550 | 0x0589      |        1417 |
|     551 | 0x19365     |      103269 |
|     552 | 0x199C7     |      104903 |
|     553 | 0x071D      |        1821 |
|     554 | 0x1A021     |      106529 |
|     555 | 0x176EF     |       95983 |
|     556 | 0x1A61F     |      108063 |
|     557 | 0x17687     |       95879 |
|     558 | 0x37EB      |       14315 |
|     559 | 0x1505F     |       86111 |
|     560 | 0x1CB63     |      117603 |
|     561 | 0x01CE      |         462 |
|     562 | 0x14BF1     |       84977 |
|     563 | 0x1C67B     |      116347 |
|     564 | 0x0055      |          85 |
|     565 | 0x14C5A     |       85082 |
|     566 | 0x1C336     |      115510 |
|     567 | 0x0F58      |        3928 |
|     568 | 0x37EC      |       14316 |
|     569 | 0x167E7     |       92135 |
|     570 | 0x1BCB0     |      113840 |
|     571 | 0x08FE      |        2302 |
|     572 | 0x16C39     |       93241 |
|     573 | 0x1C1B0     |      115120 |
|     574 | 0x156B4     |       87732 |
|     575 | 0x1C4EE     |      115950 |
|     576 | 0x0A68      |        2664 |
|     577 | 0x16515     |       91413 |
|     578 | 0x1AF5E     |      110430 |
|     579 | 0x02CE      |         718 |
|     580 | 0x16DA0     |       93600 |
|     581 | 0x1A175     |      106869 |
|     582 | 0x0816      |        2070 |
|     583 | 0x16B93     |       93075 |
|     584 | 0x1A684     |      108164 |
|     585 | 0x0764      |        1892 |
|     586 | 0x1655F     |       91487 |
|     587 | 0x1A5CC     |      107980 |
|     588 | 0x0E74      |        3700 |
|     589 | 0x179AD     |       96685 |
|     590 | 0x1AB6E     |      109422 |
|     591 | 0x0687      |        1671 |
|     592 | 0x0966      |        2406 |
|     593 | 0x1628C     |       90764 |
|     594 | 0x1C3C5     |      115653 |
|     595 | 0x0A29      |        2601 |
|     596 | 0x15AD8     |       88792 |
|     597 | 0x1B4F9     |      111865 |
|     598 | 0x17C33     |       97331 |
|     599 | 0x1AA4C     |      109132 |
|     600 | 0x15B44     |       88900 |
|     601 | 0x1A3C4     |      107460 |
|     602 | 0x0A28      |        2600 |
|     603 | 0x0042      |          66 |
|     604 | 0x37ED      |       14317 |
|     605 | 0x37EE      |       14318 |
|     606 | 0x0015      |          21 |
|     607 | 0x16634     |       91700 |
|     608 | 0x1DDB0     |      122288 |
|     609 | 0x082B      |        2091 |
|     610 | 0x15B28     |       88872 |
|     611 | 0x1D4F7     |      120055 |
|     612 | 0x07D7      |        2007 |
|     613 | 0x15F32     |       89906 |
|     614 | 0x1DA32     |      121394 |
|     615 | 0x0660      |        1632 |
|     616 | 0x15D4E     |       89422 |
|     617 | 0x1D012     |      118802 |
|     618 | 0x16127     |       90407 |
|     619 | 0x1D4F2     |      120050 |
|     620 | 0x149F4     |       84468 |
|     621 | 0x1AEC4     |      110276 |
|     622 | 0x0C8C      |        3212 |
|     623 | 0x14D0F     |       85263 |
|     624 | 0x1B1B1     |      111025 |
|     625 | 0x0A69      |        2665 |
|     626 | 0x17132     |       94514 |
|     627 | 0x1BC27     |      113703 |
|     628 | 0x095D      |        2397 |
|     629 | 0x161D1     |       90577 |
|     630 | 0x1AE25     |      110117 |
|     631 | 0x14A93     |       84627 |
|     632 | 0x1B7BD     |      112573 |
|     633 | 0x0C90      |        3216 |
|     634 | 0x15AE6     |       88806 |
|     635 | 0x1A9B4     |      108980 |
|     636 | 0x14754     |       83796 |
|     637 | 0x1BF26     |      114470 |
|     638 | 0x0E9E      |        3742 |
|     639 | 0x167C2     |       92098 |
|     640 | 0x1AB12     |      109330 |
|     641 | 0x1572B     |       87851 |
|     642 | 0x1A181     |      106881 |
|     643 | 0x0BEE      |        3054 |
|     644 | 0x16C99     |       93337 |
|     645 | 0x1B494     |      111764 |
|     646 | 0x09B1      |        2481 |
|     647 | 0x1789E     |       96414 |
|     648 | 0x1B37F     |      111487 |
|     649 | 0x1716B     |       94571 |
|     650 | 0x1C08F     |      114831 |
|     651 | 0x0BEF      |        3055 |
|     652 | 0x165D8     |       91608 |
|     653 | 0x19DCB     |      105931 |
|     654 | 0x14DAC     |       85420 |
|     655 | 0x1ABDE     |      109534 |
|     656 | 0xFFFFFAB2  |  4294965938 |
|     657 | 0x15053     |       86099 |
|     658 | 0x1A95B     |      108891 |
|     659 | 0x14FBC     |       85948 |
|     660 | 0x1AB1C     |      109340 |
|     661 | 0x00A4      |         164 |
|     662 | 0x0964      |        2404 |
|     663 | 0x017F      |         383 |
|     664 | 0x37EF      |       14319 |
|     665 | 0x37F0      |       14320 |
|     666 | 0x15F3C     |       89916 |
|     667 | 0x1DCB0     |      122032 |
|     668 | 0x0FA0      |        4000 |
|     669 | 0x14EEC     |       85740 |
|     670 | 0x1ADCE     |      110030 |
|     671 | 0x0ADD      |        2781 |
|     672 | 0x37F1      |       14321 |
|     673 | 0x13E90     |       81552 |
|     674 | 0x1D6F9     |      120569 |
|     675 | 0x018D      |         397 |
|     676 | 0x006D      |         109 |
|     677 | 0x13846     |       79942 |
|     678 | 0x1C675     |      116341 |
|     679 | 0x0084      |         132 |
|     680 | 0x37F2      |       14322 |
|     681 | 0x37F3      |       14323 |
|     682 | 0x37F4      |       14324 |
|     683 | 0x37F5      |       14325 |
|     684 | 0x37F6      |       14326 |
|     685 | 0x37F7      |       14327 |
|     686 | 0x37F8      |       14328 |
|     687 | 0x37F9      |       14329 |
|     688 | 0x37FA      |       14330 |
|     689 | 0x05CC      |        1484 |
|     690 | 0x00DD      |         221 |
|     691 | 0x157B5     |       87989 |
|     692 | 0x1B51B     |      111899 |
|     693 | 0x07B0      |        1968 |
|     694 | 0x1559A     |       87450 |
|     695 | 0x1ABDA     |      109530 |
|     696 | 0x1608F     |       90255 |
|     697 | 0x1AF7C     |      110460 |
|     698 | 0x15568     |       87400 |
|     699 | 0x1C520     |      116000 |
|     700 | 0x15F0E     |       89870 |
|     701 | 0x1A652     |      108114 |
|     702 | 0x151D8     |       86488 |
|     703 | 0x1C2B4     |      115380 |
|     704 | 0x15D36     |       89398 |
|     705 | 0x1CC1E     |      117790 |
|     706 | 0x0880      |        2176 |
|     707 | 0x165BC     |       91580 |
|     708 | 0x1C804     |      116740 |
|     709 | 0x16963     |       92515 |
|     710 | 0x1C80F     |      116751 |
|     711 | 0x15864     |       88164 |
|     712 | 0x1D664     |      120420 |
|     713 | 0x1679D     |       92061 |
|     714 | 0x1DF1A     |      122650 |
|     715 | 0x05FD      |        1533 |
|     716 | 0x15F64     |       89956 |
|     717 | 0x1D830     |      120880 |
|     718 | 0x16714     |       91924 |
|     719 | 0x1D7C6     |      120774 |
|     720 | 0x172DF     |       94943 |
|     721 | 0x1B309     |      111369 |
|     722 | 0x050E      |        1294 |
|     723 | 0x0554      |        1364 |
|     724 | 0x08A7      |        2215 |
|     725 | 0x0B62      |        2914 |
|     726 | 0x3331      |       13105 |
|     727 | 0x0088      |         136 |
|     728 | 0x0069      |         105 |
|     729 | 0x0859      |        2137 |
|     730 | 0x0080      |         128 |
|     731 | 0x37FB      |       14331 |
|     732 | 0x37FC      |       14332 |
|     733 | 0x37FD      |       14333 |
|     734 | 0x37FE      |       14334 |
|     735 | 0x37FF      |       14335 |
|     736 | 0x3800      |       14336 |
|     737 | 0x3801      |       14337 |
|     738 | 0x3802      |       14338 |
|     739 | 0x3803      |       14339 |
|     740 | 0x3804      |       14340 |
|     741 | 0x3805      |       14341 |
|     742 | 0x3806      |       14342 |
|     743 | 0x3807      |       14343 |
|     744 | 0x15DF5     |       89589 |
|     745 | 0x1CB8A     |      117642 |
|     746 | 0x02EE      |         750 |
|     747 | 0x0D6A      |        3434 |
|     748 | 0x1597B     |       88443 |
|     749 | 0x1D19B     |      119195 |
|     750 | 0x0391      |         913 |
|     751 | 0x3808      |       14344 |
|     752 | 0x3809      |       14345 |
|     753 | 0x380A      |       14346 |
|     754 | 0x380B      |       14347 |
|     755 | 0x15F4C     |       89932 |
|     756 | 0x1DC1F     |      121887 |
|     757 | 0x380C      |       14348 |
|     758 | 0x380D      |       14349 |
|     759 | 0x0102      |         258 |
|     760 | 0x0202      |         514 |
|     761 | 0x380E      |       14350 |
|     762 | 0x380F      |       14351 |
|     763 | 0x3810      |       14352 |
|     764 | 0x196DA     |      104154 |
|     765 | 0x17CB0     |       97456 |
|     766 | 0x02BB      |         699 |
|     767 | 0x1CD68     |      118120 |
|     768 | 0x166E2     |       91874 |
|     769 | 0x1A0CA     |      106698 |
|     770 | 0x17FEE     |       98286 |
|     771 | 0x02BA      |         698 |
|     772 | 0x0B19      |        2841 |
|     773 | 0x3811      |       14353 |
|     774 | 0x3812      |       14354 |
|     775 | 0x0A8C      |        2700 |
|     776 | 0x3813      |       14355 |
|     777 | 0x3814      |       14356 |
|     778 | 0x3815      |       14357 |
|     779 | 0x006E      |         110 |
|     780 | 0x3816      |       14358 |
|     781 | 0x3817      |       14359 |
|     782 | 0x3818      |       14360 |
|     783 | 0x3819      |       14361 |
|     784 | 0x381A      |       14362 |
|     785 | 0x085B      |        2139 |
|     786 | 0x09BC      |        2492 |
|     787 | 0x381B      |       14363 |
|     788 | 0x381C      |       14364 |
|     789 | 0x381D      |       14365 |
|     790 | 0x381E      |       14366 |
|     791 | 0x381F      |       14367 |
|     792 | 0x3820      |       14368 |
|     793 | 0x3821      |       14369 |
|     794 | 0x3822      |       14370 |
|     795 | 0x3823      |       14371 |
|     796 | 0x3824      |       14372 |
|     797 | 0x1CC0E     |      117774 |
|     798 | 0x167BA     |       92090 |
|     799 | 0x3825      |       14373 |
|     800 | 0x3826      |       14374 |
|     801 | 0x00FE      |         254 |
|     802 | 0x021C      |         540 |
|     803 | 0x17CAF     |       97455 |
|     804 | 0x1A036     |      106550 |
|     805 | 0x09F5      |        2549 |
|     806 | 0x1F234     |      127540 |
|     807 | 0x19D7A     |      105850 |
|     808 | 0xFFFFFF06  |  4294967046 |
|     809 | 0x0654      |        1620 |
|     810 | 0x1C172     |      115058 |
|     811 | 0x193F7     |      103415 |
|     812 | 0x0B28      |        2856 |
|     813 | 0x3832      |       14386 |
|     814 | 0x1E93D     |      125245 |
|     815 | 0x1950E     |      103694 |
|     816 | 0x07FD      |        2045 |
|     817 | 0x3833      |       14387 |
|     818 | 0x1B7F5     |      112629 |
|     819 | 0x194C1     |      103617 |
|     820 | 0x083B      |        2107 |
|     821 | 0x3834      |       14388 |
|     822 | 0x081F      |        2079 |
|     823 | 0x0B2B      |        2859 |
|     824 | 0x01A4      |         420 |
|     825 | 0x1B653     |      112211 |
|     826 | 0x1A7EF     |      108527 |
|     827 | 0xFFFFFF39  |  4294967097 |
|     828 | 0x0807      |        2055 |
|     829 | 0x1B59E     |      112030 |
|     830 | 0x1AFE3     |      110563 |
|     831 | 0x051F      |        1311 |
|     832 | 0x0584      |        1412 |
|     833 | 0x3836      |       14390 |
|     834 | 0x3837      |       14391 |
|     835 | 0x1A1D6     |      106966 |
|     836 | 0x1BEA1     |      114337 |
|     837 | 0x0320      |         800 |
|     838 | 0x0234      |         564 |
|     839 | 0x0522      |        1314 |
|     840 | 0x3838      |       14392 |
|     841 | 0x0118      |         280 |
|     842 | 0x1517D     |       86397 |
|     843 | 0x1CBC4     |      117700 |
|     844 | 0xFFFFFC6E  |  4294966382 |
|     845 | 0x1712E     |       94510 |
|     846 | 0x1EA32     |      125490 |
|     847 | 0x0DF6      |        3574 |
|     848 | 0x174C5     |       95429 |
|     849 | 0x1F108     |      127240 |
|     850 | 0x02D6      |         726 |
|     851 | 0x05C2      |        1474 |
|     852 | 0x151B0     |       86448 |
|     853 | 0x1CB62     |      117602 |
|     854 | 0x09C1      |        2497 |
|     855 | 0x16690     |       91792 |
|     856 | 0x1BB02     |      113410 |
|     857 | 0x09F1      |        2545 |
|     858 | 0x185C0     |       99776 |
|     859 | 0x2022E     |      131630 |
|     860 | 0x0605      |        1541 |
|     861 | 0x00F4      |         244 |
|     862 | 0x051D      |        1309 |
|     863 | 0x3839      |       14393 |
|     864 | 0x383A      |       14394 |
|     865 | 0x00A5      |         165 |
|     866 | 0x147DF     |       83935 |
|     867 | 0x1DA56     |      121430 |
|     868 | 0x0E80      |        3712 |
|     869 | 0x0AFA      |        2810 |
|     870 | 0x0AF9      |        2809 |
|     871 | 0x383B      |       14395 |
|     872 | 0x383C      |       14396 |
|     873 | 0x15182     |       86402 |
|     874 | 0xFFFFFB92  |  4294966162 |
|     875 | 0x383D      |       14397 |
|     876 | 0x00CE      |         206 |
|     877 | 0x1513A     |       86330 |
|     878 | 0x1CD18     |      118040 |
|     879 | 0xFFFFFEA4  |  4294966948 |
|     880 | 0x383E      |       14398 |
|     881 | 0x15008     |       86024 |
|     882 | 0x1CC78     |      117880 |
|     883 | 0x0059      |          89 |
|     884 | 0x08B9      |        2233 |
|     885 | 0x054F      |        1359 |
|     886 | 0x152EF     |       86767 |
|     887 | 0x1CB56     |      117590 |
|     888 | 0xFFFFFD46  |  4294966598 |
|     889 | 0x383F      |       14399 |
|     890 | 0x0200      |         512 |
|     891 | 0x05A8      |        1448 |
|     892 | 0x3840      |       14400 |
|     893 | 0x16CB9     |       93369 |
|     894 | 0x1F27A     |      127610 |
|     895 | 0x0398      |         920 |
|     896 | 0x0C66      |        3174 |
|     897 | 0x3841      |       14401 |
|     898 | 0x3842      |       14402 |
|     899 | 0x3843      |       14403 |
|     900 | 0x3844      |       14404 |
|     901 | 0x0041      |          65 |
|     902 | 0x3845      |       14405 |
|     903 | 0x17272     |       94834 |
|     904 | 0x1EA78     |      125560 |
|     905 | 0x0C2E      |        3118 |
|     906 | 0x3846      |       14406 |
|     907 | 0x3847      |       14407 |
|     908 | 0x3848      |       14408 |
|     909 | 0x1722E     |       94766 |
|     910 | 0x1EAD2     |      125650 |
|     911 | 0x06F6      |        1782 |
|     912 | 0x3849      |       14409 |
|     913 | 0x16F3E     |       94014 |
|     914 | 0x1F35A     |      127834 |
|     915 | 0x0581      |        1409 |
|     916 | 0x15F6A     |       89962 |
|     917 | 0x1D436     |      119862 |
|     918 | 0x0DB8      |        3512 |
|     919 | 0x384A      |       14410 |
|     920 | 0x17BCA     |       97226 |
|     921 | 0x1F865     |      129125 |
|     922 | 0x00AA      |         170 |
|     923 | 0x384B      |       14411 |
|     924 | 0x384C      |       14412 |
|     925 | 0x170E0     |       94432 |
|     926 | 0x1ECBB     |      126139 |
|     927 | 0x0586      |        1414 |
|     928 | 0x384D      |       14413 |
|     929 | 0x384E      |       14414 |
|     930 | 0x162CE     |       90830 |
|     931 | 0x1DA58     |      121432 |
|     932 | 0x05A9      |        1449 |
|     933 | 0x087F      |        2175 |
|     934 | 0x384F      |       14415 |
|     935 | 0x3850      |       14416 |
|     936 | 0x0037      |          55 |
|     937 | 0x00C9      |         201 |
|     938 | 0x3851      |       14417 |
|     939 | 0x18A4B     |      100939 |
|     940 | 0x196FD     |      104189 |
|     941 | 0x18863     |      100451 |
|     942 | 0x19266     |      103014 |
|     943 | 0x01E0      |         480 |
|     944 | 0x17AE8     |       97000 |
|     945 | 0x1A1C7     |      106951 |
|     946 | 0x01A3      |         419 |
|     947 | 0x17504     |       95492 |
|     948 | 0x1AA89     |      109193 |
|     949 | 0x16EE7     |       93927 |
|     950 | 0x1A9F0     |      109040 |
|     951 | 0x01A2      |         418 |
|     952 | 0x18015     |       98325 |
|     953 | 0x196B5     |      104117 |
|     954 | 0x0B2A      |        2858 |
|     955 | 0x3852      |       14418 |
|     956 | 0x0091      |         145 |
|     957 | 0x17784     |       96132 |
|     958 | 0x1926A     |      103018 |
|     959 | 0x054E      |        1358 |
|     960 | 0x1772D     |       96045 |
|     961 | 0x19439     |      103481 |
|     962 | 0x0422      |        1058 |
|     963 | 0x1713D     |       94525 |
|     964 | 0x194CE     |      103630 |
|     965 | 0x0780      |        1920 |
|     966 | 0xFFFAA8D0  |  4294617296 |
|     967 | 0x249F0     |      150000 |
|     968 | 0xFFFCF2C0  |  4294767296 |
|     969 | 0x1D4C0     |      120000 |
|     970 | 0x186A0     |      100000 |
|     971 | 0xFFFC7D90  |  4294737296 |
|     972 | 0xFFFFB83E  |  4294948926 |
|     973 | 0x1C19      |        7193 |
|     974 | 0xFFFFAF56  |  4294946646 |
|     975 | 0x00FD      |         253 |
|     976 | 0x3853      |       14419 |
|     977 | 0x00AF      |         175 |
|     978 | 0x3854      |       14420 |
|     979 | 0x17232     |       94770 |
|     980 | 0x193DE     |      103390 |
|     981 | 0x09A9      |        2473 |
|     982 | 0x3855      |       14421 |
|     983 | 0x172D2     |       94930 |
|     984 | 0x015E      |         350 |
|     985 | 0x3856      |       14422 |
|     986 | 0x003A      |          58 |
|     987 | 0x0DCF      |        3535 |
|     988 | 0x3857      |       14423 |
|     989 | 0x3858      |       14424 |
|     990 | 0x3859      |       14425 |
|     991 | 0xFFFF8AD0  |  4294937296 |
|     992 | 0x03F2      |        1010 |
|     993 | 0x385A      |       14426 |
|     994 | 0x00D5      |         213 |
|     995 | 0x0BD6      |        3030 |
|     996 | 0x17253     |       94803 |
|     997 | 0x193E8     |      103400 |
|     998 | 0x00FB      |         251 |
|     999 | 0x0049      |          73 |
|    1000 | 0x385B      |       14427 |
|    1001 | 0x0582      |        1410 |
|    1002 | 0x385C      |       14428 |
|    1003 | 0x0082      |         130 |
|    1004 | 0x09AB      |        2475 |
|    1005 | 0x385D      |       14429 |
|    1006 | 0x385E      |       14430 |
|    1007 | 0x1722B     |       94763 |
|    1008 | 0x17188     |       94600 |
|    1009 | 0x18CF4     |      101620 |
|    1010 | 0x0583      |        1411 |
|    1011 | 0x385F      |       14431 |
|    1012 | 0x16BED     |       93165 |
|    1013 | 0x18D4E     |      101710 |
|    1014 | 0x3860      |       14432 |
|    1015 | 0x3861      |       14433 |
|    1016 | 0x3862      |       14434 |
|    1017 | 0x0520      |        1312 |
|    1018 | 0x3863      |       14435 |
|    1019 | 0x3864      |       14436 |
|    1020 | 0x1BC08     |      113672 |
|    1021 | 0x194A3     |      103587 |
|    1022 | 0x0806      |        2054 |
|    1023 | 0x006F      |         111 |
|    1024 | 0x1AAE4     |      109284 |
|    1025 | 0x198D3     |      104659 |
|    1026 | 0x1BC29     |      113705 |
|    1027 | 0x19179     |      102777 |
|    1028 | 0x0CDB      |        3291 |
|    1029 | 0x0AFE      |        2814 |
|    1030 | 0x16EA4     |       93860 |
|    1031 | 0x1ADF1     |      110065 |
|    1032 | 0x15994     |       88468 |
|    1033 | 0x1CA57     |      117335 |
|    1034 | 0x04B1      |        1201 |
|    1035 | 0x171C8     |       94664 |
|    1036 | 0x1F000     |      126976 |
|    1037 | 0x175B5     |       95669 |
|    1038 | 0x1F92F     |      129327 |
|    1039 | 0x05C1      |        1473 |
|    1040 | 0x157A1     |       87969 |
|    1041 | 0x1CECB     |      118475 |
|    1042 | 0x0D0C      |        3340 |
|    1043 | 0x157EA     |       88042 |
|    1044 | 0x1C714     |      116500 |
|    1045 | 0xFFFFFFEF  |  4294967279 |
|    1046 | 0x05B3      |        1459 |
|    1047 | 0x15F1A     |       89882 |
|    1048 | 0x1D5A4     |      120228 |
|    1049 | 0x0A2D      |        2605 |
|    1050 | 0x021F      |         543 |
|    1051 | 0x15BE8     |       89064 |
|    1052 | 0x1DD45     |      122181 |
|    1053 | 0x38BD      |       14525 |
|    1054 | 0x38BE      |       14526 |
|    1055 | 0x38BF      |       14527 |
|    1056 | 0x38C0      |       14528 |
|    1057 | 0x38C1      |       14529 |
|    1058 | 0x38C2      |       14530 |
|    1059 | 0x38C3      |       14531 |
|    1060 | 0x38C6      |       14534 |
|    1061 | 0x38C7      |       14535 |
|    1062 | 0x38C8      |       14536 |
|    1063 | 0x38C9      |       14537 |
|    1064 | 0x38CA      |       14538 |
|    1065 | 0x38CB      |       14539 |
|    1066 | 0x38CC      |       14540 |
|    1067 | 0x38CD      |       14541 |
|    1068 | 0x38CE      |       14542 |
|    1069 | 0x38CF      |       14543 |
|    1070 | 0x38D0      |       14544 |
|    1071 | 0x09C0      |        2496 |
|    1072 | 0x38D1      |       14545 |
|    1073 | 0x38D2      |       14546 |
|    1074 | 0x38D3      |       14547 |
|    1075 | 0x38C4      |       14532 |
|    1076 | 0x38C5      |       14533 |
|    1077 | 0x00D7      |         215 |

## String References

- **13105**: @@
- **13687**: Will you join Troupe Mayakov? [It-it'd be my greatetht honor!/I truly am flattered, but...]
- **13729**: What will you do? [Leave her be./Comfort her.]
- **14299**: Bravo! Bravo!
- **14304**: Noticed anything unusual? [The strangely familiar speech./The flamboyant gestures.]
- **14430**: Is this the end? [We can't give up!/We...we're done for.]
- **14531**: Talk with Mayakov about... [Lilisette./Ragelise.]
- **14532**: Talk with Mayakov about... [Lilisette.]
- **14533**: Talk with Mayakov about... [Ragelise.]

## Events

### Event 65535

#### Metadata

| Field        | Value   |
|--------------|---------|
| Entrypoint   | 0x0000  |
| Data Size    | 1 bytes |
| Instructions | 1       |

```
      00 01 02 03 04 05 06 07  08 09 0A 0B 0C 0D 0E 0F
      -- -- -- -- -- -- -- --  -- -- -- -- -- -- -- --
0000: 00                                                .               
```

#### Opcodes

```
  0: 0x0000 [0x00] END_REQSTACK()
```

### Event 85

#### Metadata

| Field        | Value      |
|--------------|------------|
| Entrypoint   | 0x0001     |
| Data Size    | 3673 bytes |
| Instructions | 373        |

```
      00 01 02 03 04 05 06 07  08 09 0A 0B 0C 0D 0E 0F
      -- -- -- -- -- -- -- --  -- -- -- -- -- -- -- --
0000:    42 1A 10 C3 46 01 38  00 80 20 01 27 10 8B 02   B...F.8.. .'...
0010: 05 01 04 92 01 8B 02 05  01 94 01 F0 FF FF 7F 94  ................
0020: 01 8B 02 05 01 BA F0 FF  FF 7F 01 80 02 80 03 80  ................
0030: 04 80 BA 8B 02 05 01 05  80 06 80 07 80 08 80 80  ................
0040: F0 FF FF 7F 80 8B 02 05  01 1C 09 80 4E 01 8B 02  ............N...
0050: 05 01 1C 09 80 45 0A 80  F8 FF FF 7F F8 FF FF 7F  .....E..........
0060: 64 6F 70 6E 07 80 4E 00  8B 02 05 01 1C 0B 80 BA  dopn..N.........
0070: 8B 02 05 01 0C 80 0D 80  07 80 0E 80 1C 0F 80 45  ...............E
0080: 0A 80 F8 FF FF 7F F8 FF  FF 7F 64 63 6C 73 07 80  ..........dcls..
0090: 1C 10 80 59 04 8B 02 05  01 11 80 27 10 8B 02 05  ...Y.......'....
00A0: 01 0F 45 12 80 F0 FF FF  7F F0 FF FF 7F 73 31 32  ..E..........s12
00B0: 38 07 80 45 13 80 F0 FF  FF 7F F0 FF FF 7F 66 64  8..E..........fd
00C0: 69 32 07 80 55 13 80 F0  FF FF 7F F0 FF FF 7F 66  i2..U..........f
00D0: 64 69 32 1C 14 80 52 12  80 F0 FF FF 7F F0 FF FF  di2...R.........
00E0: 7F 73 31 32 38 45 12 80  F0 FF FF 7F F0 FF FF 7F  .s128E..........
00F0: 73 31 32 39 07 80 1C 14  80 52 12 80 F0 FF FF 7F  s129.....R......
0100: F0 FF FF 7F 73 31 32 39  45 12 80 F0 FF FF 7F F0  ....s129E.......
0110: FF FF 7F 73 31 33 30 07  80 1C 14 80 5C 00 15 80  ...s130.....\...
0120: 5C 01 15 80 1C 10 80 4A  F0 FF FF 7F 8B 02 05 01  \......J........
0130: 6F 76 F0 FF FF 7F 2B 8B  02 05 01 16 80 23 52 12  ov....+......#R.
0140: 80 F0 FF FF 7F F0 FF FF  7F 73 31 33 30 45 12 80  .........s130E..
0150: F0 FF FF 7F F0 FF FF 7F  73 31 30 33 07 80 5B 17  ........s103..[.
0160: 80 8B 02 05 01 8B 02 05  01 6D 74 62 30 2B 8B 02  .........mtb0+..
0170: 05 01 18 80 23 2B 8B 02  05 01 19 80 23 5B 17 80  ....#+......#[..
0180: 8B 02 05 01 8B 02 05 01  6D 74 62 31 52 12 80 F0  ........mtb1R...
0190: FF FF 7F F0 FF FF 7F 73  31 30 33 45 12 80 F0 FF  .......s103E....
01A0: FF 7F F0 FF FF 7F 73 31  30 35 07 80 2B 8B 02 05  ......s105..+...
01B0: 01 1A 80 23 52 12 80 F0  FF FF 7F F0 FF FF 7F 73  ...#R..........s
01C0: 31 30 35 45 12 80 F0 FF  FF 7F F0 FF FF 7F 73 31  105E..........s1
01D0: 30 36 07 80 2B 8B 02 05  01 1B 80 23 2B 8B 02 05  06..+......#+...
01E0: 01 1C 80 23 53 8B 02 05  01 8B 02 05 01 6D 74 62  ...#S........mtb
01F0: 31 52 12 80 F0 FF FF 7F  F0 FF FF 7F 73 31 30 36  1R..........s106
0200: 45 12 80 F0 FF FF 7F F0  FF FF 7F 73 31 30 37 07  E..........s107.
0210: 80 5B 1D 80 8B 02 05 01  8B 02 05 01 6D 6F 75 30  .[..........mou0
0220: 1C 0B 80 1C 1E 80 52 12  80 F0 FF FF 7F F0 FF FF  ......R.........
0230: 7F 73 31 30 37 45 12 80  F0 FF FF 7F F0 FF FF 7F  .s107E..........
0240: 73 31 32 36 07 80 1C 1F  80 52 12 80 F0 FF FF 7F  s126.....R......
0250: F0 FF FF 7F 73 31 32 36  45 12 80 F0 FF FF 7F F0  ....s126E.......
0260: FF FF 7F 73 31 32 32 07  80 1C 1F 80 52 12 80 F0  ...s122.....R...
0270: FF FF 7F F0 FF FF 7F 73  31 32 32 45 12 80 F0 FF  .......s122E....
0280: FF 7F F0 FF FF 7F 73 31  30 39 07 80 2B 8B 02 05  ......s109..+...
0290: 01 20 80 23 5B 1D 80 8B  02 05 01 8B 02 05 01 6D  . .#[..........m
02A0: 6F 75 31 1C 21 80 52 12  80 F0 FF FF 7F F0 FF FF  ou1.!.R.........
02B0: 7F 73 31 30 39 45 12 80  F0 FF FF 7F F0 FF FF 7F  .s109E..........
02C0: 73 31 32 37 07 80 2B 8B  02 05 01 22 80 23 52 12  s127..+....".#R.
02D0: 80 F0 FF FF 7F F0 FF FF  7F 73 31 32 37 45 12 80  .........s127E..
02E0: F0 FF FF 7F F0 FF FF 7F  73 31 31 30 07 80 5B 17  ........s110..[.
02F0: 80 8B 02 05 01 8B 02 05  01 6D 74 62 30 2B 8B 02  .........mtb0+..
0300: 05 01 23 80 23 29 10 F0  FF FF 7F 1B 02 02 10 24  ..#.#).........$
0310: 80 80 37 03 52 12 80 F0  FF FF 7F F0 FF FF 7F 73  ..7.R..........s
0320: 31 31 30 45 12 80 F0 FF  FF 7F F0 FF FF 7F 77 68  110E..........wh
0330: 6D 31 07 80 01 64 04 02  02 10 25 80 80 62 03 52  m1...d....%..b.R
0340: 12 80 F0 FF FF 7F F0 FF  FF 7F 73 31 31 30 45 12  ..........s110E.
0350: 80 F0 FF FF 7F F0 FF FF  7F 77 68 6D 31 07 80 01  .........whm1...
0360: 64 04 02 02 10 26 80 80  8D 03 52 12 80 F0 FF FF  d....&....R.....
0370: 7F F0 FF FF 7F 73 31 31  30 45 12 80 F0 FF FF 7F  .....s110E......
0380: F0 FF FF 7F 77 65 6D 31  07 80 01 64 04 02 02 10  ....wem1...d....
0390: 27 80 80 B8 03 52 12 80  F0 FF FF 7F F0 FF FF 7F  '....R..........
03A0: 73 31 31 30 45 12 80 F0  FF FF 7F F0 FF FF 7F 77  s110E..........w
03B0: 65 6D 31 07 80 01 64 04  02 02 10 28 80 80 E3 03  em1...d....(....
03C0: 52 12 80 F0 FF FF 7F F0  FF FF 7F 73 31 31 30 45  R..........s110E
03D0: 12 80 F0 FF FF 7F F0 FF  FF 7F 77 74 72 31 07 80  ..........wtr1..
03E0: 01 64 04 02 02 10 29 80  80 0E 04 52 12 80 F0 FF  .d....)....R....
03F0: FF 7F F0 FF FF 7F 73 31  31 30 45 12 80 F0 FF FF  ......s110E.....
0400: 7F F0 FF FF 7F 77 74 72  31 07 80 01 64 04 02 02  .....wtr1...d...
0410: 10 2A 80 80 39 04 52 12  80 F0 FF FF 7F F0 FF FF  .*..9.R.........
0420: 7F 73 31 31 30 45 12 80  F0 FF FF 7F F0 FF FF 7F  .s110E..........
0430: 77 6D 74 31 07 80 01 64  04 02 02 10 2B 80 80 64  wmt1...d....+..d
0440: 04 52 12 80 F0 FF FF 7F  F0 FF FF 7F 73 31 31 30  .R..........s110
0450: 45 12 80 F0 FF FF 7F F0  FF FF 7F 77 67 6C 31 07  E..........wgl1.
0460: 80 01 64 04 6E F0 FF FF  7F 2A 80 99 F0 FF FF 7F  ..d.n....*......
0470: 1C 10 80 03 25 10 2C 80  03 27 10 2D 80 03 26 10  ....%.,..'.-..&.
0480: 03 80 03 28 10 2E 80 27  10 F0 FF FF 7F 16 1C 0B  ...(...'........
0490: 80 52 12 80 F0 FF FF 7F  F0 FF FF 7F 77 68 6D 31  .R..........whm1
04A0: 52 12 80 F0 FF FF 7F F0  FF FF 7F 77 68 6D 31 52  R..........whm1R
04B0: 12 80 F0 FF FF 7F F0 FF  FF 7F 77 65 6D 31 52 12  ..........wem1R.
04C0: 80 F0 FF FF 7F F0 FF FF  7F 77 65 6D 31 52 12 80  .........wem1R..
04D0: F0 FF FF 7F F0 FF FF 7F  77 74 72 31 52 12 80 F0  ........wtr1R...
04E0: FF FF 7F F0 FF FF 7F 77  6D 74 31 52 12 80 F0 FF  .......wmt1R....
04F0: FF 7F F0 FF FF 7F 77 67  6C 31 45 12 80 F0 FF FF  ......wgl1E.....
0500: 7F F0 FF FF 7F 73 31 31  32 07 80 2B 8B 02 05 01  .....s112..+....
0510: 2F 80 23 29 0F F0 FF FF  7F 1B 02 02 10 24 80 80  /.#).........$..
0520: 45 05 52 12 80 F0 FF FF  7F F0 FF FF 7F 73 31 31  E.R..........s11
0530: 32 45 12 80 F0 FF FF 7F  F0 FF FF 7F 77 68 6D 32  2E..........whm2
0540: 07 80 01 72 06 02 02 10  25 80 80 70 05 52 12 80  ...r....%..p.R..
0550: F0 FF FF 7F F0 FF FF 7F  73 31 31 32 45 12 80 F0  ........s112E...
0560: FF FF 7F F0 FF FF 7F 77  68 6D 32 07 80 01 72 06  .......whm2...r.
0570: 02 02 10 26 80 80 9B 05  52 12 80 F0 FF FF 7F F0  ...&....R.......
0580: FF FF 7F 73 31 31 32 45  12 80 F0 FF FF 7F F0 FF  ...s112E........
0590: FF 7F 77 65 6D 32 07 80  01 72 06 02 02 10 27 80  ..wem2...r....'.
05A0: 80 C6 05 52 12 80 F0 FF  FF 7F F0 FF FF 7F 73 31  ...R..........s1
05B0: 31 32 45 12 80 F0 FF FF  7F F0 FF FF 7F 77 65 6D  12E..........wem
05C0: 32 07 80 01 72 06 02 02  10 28 80 80 F1 05 52 12  2...r....(....R.
05D0: 80 F0 FF FF 7F F0 FF FF  7F 73 31 31 32 45 12 80  .........s112E..
05E0: F0 FF FF 7F F0 FF FF 7F  77 74 72 32 07 80 01 72  ........wtr2...r
05F0: 06 02 02 10 29 80 80 1C  06 52 12 80 F0 FF FF 7F  ....)....R......
0600: F0 FF FF 7F 73 31 31 32  45 12 80 F0 FF FF 7F F0  ....s112E.......
0610: FF FF 7F 77 74 72 32 07  80 01 72 06 02 02 10 2A  ...wtr2...r....*
0620: 80 80 47 06 52 12 80 F0  FF FF 7F F0 FF FF 7F 73  ..G.R..........s
0630: 31 31 32 45 12 80 F0 FF  FF 7F F0 FF FF 7F 77 6D  112E..........wm
0640: 74 32 07 80 01 72 06 02  02 10 2B 80 80 72 06 52  t2...r....+..r.R
0650: 12 80 F0 FF FF 7F F0 FF  FF 7F 73 31 31 32 45 12  ..........s112E.
0660: 80 F0 FF FF 7F F0 FF FF  7F 77 67 6C 32 07 80 01  .........wgl2...
0670: 72 06 27 10 8B 02 05 01  10 1C 0B 80 1C 14 80 4A  r.'............J
0680: F0 FF FF 7F 8B 02 05 01  2B 8B 02 05 01 30 80 23  ........+....0.#
0690: 52 12 80 F0 FF FF 7F F0  FF FF 7F 77 68 6D 32 52  R..........whm2R
06A0: 12 80 F0 FF FF 7F F0 FF  FF 7F 77 68 6D 32 52 12  ..........whm2R.
06B0: 80 F0 FF FF 7F F0 FF FF  7F 77 65 6D 32 52 12 80  .........wem2R..
06C0: F0 FF FF 7F F0 FF FF 7F  77 65 6D 32 52 12 80 F0  ........wem2R...
06D0: FF FF 7F F0 FF FF 7F 77  74 72 32 52 12 80 F0 FF  .......wtr2R....
06E0: FF 7F F0 FF FF 7F 77 6D  74 32 52 12 80 F0 FF FF  ......wmt2R.....
06F0: 7F F0 FF FF 7F 77 67 6C  32 45 12 80 F0 FF FF 7F  .....wgl2E......
0700: F0 FF FF 7F 73 31 31 34  07 80 2B 8B 02 05 01 31  ....s114..+....1
0710: 80 23 29 10 F0 FF FF 7F  1B 02 02 10 24 80 80 44  .#).........$..D
0720: 07 52 12 80 F0 FF FF 7F  F0 FF FF 7F 73 31 31 34  .R..........s114
0730: 45 12 80 F0 FF FF 7F F0  FF FF 7F 77 68 6D 34 07  E..........whm4.
0740: 80 01 71 08 02 02 10 25  80 80 6F 07 52 12 80 F0  ..q....%..o.R...
0750: FF FF 7F F0 FF FF 7F 73  31 31 34 45 12 80 F0 FF  .......s114E....
0760: FF 7F F0 FF FF 7F 77 68  6D 34 07 80 01 71 08 02  ......whm4...q..
0770: 02 10 26 80 80 9A 07 52  12 80 F0 FF FF 7F F0 FF  ..&....R........
0780: FF 7F 73 31 31 34 45 12  80 F0 FF FF 7F F0 FF FF  ..s114E.........
0790: 7F 77 65 6D 34 07 80 01  71 08 02 02 10 27 80 80  .wem4...q....'..
07A0: C5 07 52 12 80 F0 FF FF  7F F0 FF FF 7F 73 31 31  ..R..........s11
07B0: 34 45 12 80 F0 FF FF 7F  F0 FF FF 7F 77 65 6D 34  4E..........wem4
07C0: 07 80 01 71 08 02 02 10  28 80 80 F0 07 52 12 80  ...q....(....R..
07D0: F0 FF FF 7F F0 FF FF 7F  73 31 31 34 45 12 80 F0  ........s114E...
07E0: FF FF 7F F0 FF FF 7F 77  74 72 34 07 80 01 71 08  .......wtr4...q.
07F0: 02 02 10 29 80 80 1B 08  52 12 80 F0 FF FF 7F F0  ...)....R.......
0800: FF FF 7F 73 31 31 34 45  12 80 F0 FF FF 7F F0 FF  ...s114E........
0810: FF 7F 77 74 72 34 07 80  01 71 08 02 02 10 2A 80  ..wtr4...q....*.
0820: 80 46 08 52 12 80 F0 FF  FF 7F F0 FF FF 7F 73 31  .F.R..........s1
0830: 31 34 45 12 80 F0 FF FF  7F F0 FF FF 7F 77 6D 74  14E..........wmt
0840: 34 07 80 01 71 08 02 02  10 2B 80 80 71 08 52 12  4...q....+..q.R.
0850: 80 F0 FF FF 7F F0 FF FF  7F 73 31 31 34 45 12 80  .........s114E..
0860: F0 FF FF 7F F0 FF FF 7F  77 67 6C 34 07 80 01 71  ........wgl4...q
0870: 08 4A 8B 02 05 01 F0 FF  FF 7F 2B 8B 02 05 01 32  .J........+....2
0880: 80 23 52 12 80 F0 FF FF  7F F0 FF FF 7F 77 68 6D  .#R..........whm
0890: 34 52 12 80 F0 FF FF 7F  F0 FF FF 7F 77 68 6D 34  4R..........whm4
08A0: 52 12 80 F0 FF FF 7F F0  FF FF 7F 77 65 6D 34 52  R..........wem4R
08B0: 12 80 F0 FF FF 7F F0 FF  FF 7F 77 65 6D 34 52 12  ..........wem4R.
08C0: 80 F0 FF FF 7F F0 FF FF  7F 77 74 72 34 52 12 80  .........wtr4R..
08D0: F0 FF FF 7F F0 FF FF 7F  77 6D 74 34 52 12 80 F0  ........wmt4R...
08E0: FF FF 7F F0 FF FF 7F 77  67 6C 34 45 12 80 F0 FF  .......wgl4E....
08F0: FF 7F F0 FF FF 7F 73 31  31 36 07 80 5B 33 80 8B  ......s116..[3..
0900: 02 05 01 8B 02 05 01 6B  79 6E 30 2B 8B 02 05 01  .......kyn0+....
0910: 34 80 1C 35 80 52 12 80  F0 FF FF 7F F0 FF FF 7F  4..5.R..........
0920: 73 31 31 36 45 12 80 F0  FF FF 7F F0 FF FF 7F 73  s116E..........s
0930: 31 32 33 07 80 1C 35 80  52 12 80 F0 FF FF 7F F0  123...5.R.......
0940: FF FF 7F 73 31 32 33 45  12 80 F0 FF FF 7F F0 FF  ...s123E........
0950: FF 7F 73 31 32 35 07 80  1C 14 80 52 12 80 F0 FF  ..s125.....R....
0960: FF 7F F0 FF FF 7F 73 31  32 35 45 12 80 F0 FF FF  ......s125E.....
0970: 7F F0 FF FF 7F 73 31 32  34 07 80 2B 8B 02 05 01  .....s124..+....
0980: 36 80 23 5B 33 80 8B 02  05 01 8B 02 05 01 6B 79  6.#[3.........ky
0990: 6E 31 52 12 80 F0 FF FF  7F F0 FF FF 7F 73 31 32  n1R..........s12
09A0: 34 45 12 80 F0 FF FF 7F  F0 FF FF 7F 73 31 31 37  4E..........s117
09B0: 07 80 1C 0B 80 5B 37 80  8B 02 05 01 8B 02 05 01  .....[7.........
09C0: 79 75 77 30 1C 14 80 2B  8B 02 05 01 38 80 23 52  yuw0...+....8.#R
09D0: 12 80 F0 FF FF 7F F0 FF  FF 7F 73 31 31 37 45 12  ..........s117E.
09E0: 80 F0 FF FF 7F F0 FF FF  7F 73 31 33 31 07 80 24  .........s131..$
09F0: 39 80 07 80 07 80 25 02  00 10 07 80 00 12 0C 29  9.....%........)
0A00: 10 F0 FF FF 7F 1B 02 02  10 24 80 80 31 0A 52 12  .........$..1.R.
0A10: 80 F0 FF FF 7F F0 FF FF  7F 73 31 33 31 45 12 80  .........s131E..
0A20: F0 FF FF 7F F0 FF FF 7F  77 68 6D 33 07 80 01 5E  ........whm3...^
0A30: 0B 02 02 10 25 80 80 5C  0A 52 12 80 F0 FF FF 7F  ....%..\.R......
0A40: F0 FF FF 7F 73 31 33 31  45 12 80 F0 FF FF 7F F0  ....s131E.......
0A50: FF FF 7F 77 68 6D 33 07  80 01 5E 0B 02 02 10 26  ...whm3...^....&
0A60: 80 80 87 0A 52 12 80 F0  FF FF 7F F0 FF FF 7F 73  ....R..........s
0A70: 31 33 31 45 12 80 F0 FF  FF 7F F0 FF FF 7F 77 65  131E..........we
0A80: 6D 33 07 80 01 5E 0B 02  02 10 27 80 80 B2 0A 52  m3...^....'....R
0A90: 12 80 F0 FF FF 7F F0 FF  FF 7F 73 31 33 31 45 12  ..........s131E.
0AA0: 80 F0 FF FF 7F F0 FF FF  7F 77 65 6D 33 07 80 01  .........wem3...
0AB0: 5E 0B 02 02 10 28 80 80  DD 0A 52 12 80 F0 FF FF  ^....(....R.....
0AC0: 7F F0 FF FF 7F 73 31 33  31 45 12 80 F0 FF FF 7F  .....s131E......
0AD0: F0 FF FF 7F 77 74 72 33  07 80 01 5E 0B 02 02 10  ....wtr3...^....
0AE0: 29 80 80 08 0B 52 12 80  F0 FF FF 7F F0 FF FF 7F  )....R..........
0AF0: 73 31 33 31 45 12 80 F0  FF FF 7F F0 FF FF 7F 77  s131E..........w
0B00: 74 72 33 07 80 01 5E 0B  02 02 10 2A 80 80 33 0B  tr3...^....*..3.
0B10: 52 12 80 F0 FF FF 7F F0  FF FF 7F 73 31 33 31 45  R..........s131E
0B20: 12 80 F0 FF FF 7F F0 FF  FF 7F 77 6D 74 33 07 80  ..........wmt3..
0B30: 01 5E 0B 02 02 10 2B 80  80 5E 0B 52 12 80 F0 FF  .^....+..^.R....
0B40: FF 7F F0 FF FF 7F 73 31  33 31 45 12 80 F0 FF FF  ......s131E.....
0B50: 7F F0 FF FF 7F 77 67 6C  33 07 80 01 5E 0B 5C 00  .....wgl3...^.\.
0B60: 3A 80 5C 01 3A 80 9A 6E  F0 FF FF 7F 11 80 99 F0  :.\.:..n........
0B70: FF FF 7F 1C 10 80 52 12  80 F0 FF FF 7F F0 FF FF  ......R.........
0B80: 7F 77 68 6D 33 52 12 80  F0 FF FF 7F F0 FF FF 7F  .whm3R..........
0B90: 77 68 6D 33 52 12 80 F0  FF FF 7F F0 FF FF 7F 77  whm3R..........w
0BA0: 65 6D 33 52 12 80 F0 FF  FF 7F F0 FF FF 7F 77 65  em3R..........we
0BB0: 6D 33 52 12 80 F0 FF FF  7F F0 FF FF 7F 77 74 72  m3R..........wtr
0BC0: 33 52 12 80 F0 FF FF 7F  F0 FF FF 7F 77 6D 74 33  3R..........wmt3
0BD0: 52 12 80 F0 FF FF 7F F0  FF FF 7F 77 67 6C 33 45  R..........wgl3E
0BE0: 12 80 F0 FF FF 7F F0 FF  FF 7F 73 31 32 31 07 80  ..........s121..
0BF0: 5B 37 80 8B 02 05 01 8B  02 05 01 79 75 77 31 1C  [7.........yuw1.
0C00: 14 80 5D 07 80 3B 80 2B  8B 02 05 01 3C 80 23 01  ..]..;.+....<.#.
0C10: 1F 0E 02 00 10 24 80 00  1F 0E 29 10 F0 FF FF 7F  .....$....).....
0C20: 1B 02 02 10 24 80 80 4C  0C 52 12 80 F0 FF FF 7F  ....$..L.R......
0C30: F0 FF FF 7F 73 31 33 31  45 12 80 F0 FF FF 7F F0  ....s131E.......
0C40: FF FF 7F 77 68 6D 33 07  80 01 79 0D 02 02 10 25  ...whm3...y....%
0C50: 80 80 77 0C 52 12 80 F0  FF FF 7F F0 FF FF 7F 73  ..w.R..........s
0C60: 31 33 31 45 12 80 F0 FF  FF 7F F0 FF FF 7F 77 68  131E..........wh
0C70: 6D 33 07 80 01 79 0D 02  02 10 26 80 80 A2 0C 52  m3...y....&....R
0C80: 12 80 F0 FF FF 7F F0 FF  FF 7F 73 31 33 31 45 12  ..........s131E.
0C90: 80 F0 FF FF 7F F0 FF FF  7F 77 65 6D 33 07 80 01  .........wem3...
0CA0: 79 0D 02 02 10 27 80 80  CD 0C 52 12 80 F0 FF FF  y....'....R.....
0CB0: 7F F0 FF FF 7F 73 31 33  31 45 12 80 F0 FF FF 7F  .....s131E......
0CC0: F0 FF FF 7F 77 65 6D 33  07 80 01 79 0D 02 02 10  ....wem3...y....
0CD0: 28 80 80 F8 0C 52 12 80  F0 FF FF 7F F0 FF FF 7F  (....R..........
0CE0: 73 31 33 31 45 12 80 F0  FF FF 7F F0 FF FF 7F 77  s131E..........w
0CF0: 74 72 33 07 80 01 79 0D  02 02 10 29 80 80 23 0D  tr3...y....)..#.
0D00: 52 12 80 F0 FF FF 7F F0  FF FF 7F 73 31 33 31 45  R..........s131E
0D10: 12 80 F0 FF FF 7F F0 FF  FF 7F 77 74 72 33 07 80  ..........wtr3..
0D20: 01 79 0D 02 02 10 2A 80  80 4E 0D 52 12 80 F0 FF  .y....*..N.R....
0D30: FF 7F F0 FF FF 7F 73 31  33 31 45 12 80 F0 FF FF  ......s131E.....
0D40: 7F F0 FF FF 7F 77 6D 74  33 07 80 01 79 0D 02 02  .....wmt3...y...
0D50: 10 2B 80 80 79 0D 52 12  80 F0 FF FF 7F F0 FF FF  .+..y.R.........
0D60: 7F 73 31 33 31 45 12 80  F0 FF FF 7F F0 FF FF 7F  .s131E..........
0D70: 77 67 6C 33 07 80 01 79  0D 6E F0 FF FF 7F 29 80  wgl3...y.n....).
0D80: 99 F0 FF FF 7F 1C 10 80  52 12 80 F0 FF FF 7F F0  ........R.......
0D90: FF FF 7F 77 68 6D 33 52  12 80 F0 FF FF 7F F0 FF  ...whm3R........
0DA0: FF 7F 77 68 6D 33 52 12  80 F0 FF FF 7F F0 FF FF  ..whm3R.........
0DB0: 7F 77 65 6D 33 52 12 80  F0 FF FF 7F F0 FF FF 7F  .wem3R..........
0DC0: 77 65 6D 33 52 12 80 F0  FF FF 7F F0 FF FF 7F 77  wem3R..........w
0DD0: 74 72 33 52 12 80 F0 FF  FF 7F F0 FF FF 7F 77 6D  tr3R..........wm
0DE0: 74 33 52 12 80 F0 FF FF  7F F0 FF FF 7F 77 67 6C  t3R..........wgl
0DF0: 33 45 12 80 F0 FF FF 7F  F0 FF FF 7F 73 31 32 31  3E..........s121
0E00: 07 80 5B 37 80 8B 02 05  01 8B 02 05 01 79 75 77  ..[7.........yuw
0E10: 31 1C 14 80 2B 8B 02 05  01 3D 80 23 01 1F 0E 6E  1...+....=.#...n
0E20: F0 FF FF 7F 00 80 99 F0  FF FF 7F 1C 10 80 1A 10  ................
0E30: C3 52 12 80 F0 FF FF 7F  F0 FF FF 7F 73 31 32 31  .R..........s121
0E40: 1C 24 80 AB 0A 46 00 45  13 80 F0 FF FF 7F F0 FF  .$...F.E........
0E50: FF 7F 66 64 69 32 07 80  21 00                    ..fdi2..!.      
```

#### Opcodes

```
  0: 0x0001 [0x42] SET_CLI_EVENT_CANCEL_DATA()
  1: 0x0002 [0x1A] CALL_SUBROUTINE(address=0xC310)
  2: 0x0005 [0x46] CAMERA_CONTROL: Disable user control
  3: 0x0007 [0x38] SET_CLIENT_EVENT_MODE(mode=19*)
  4: 0x000A [0x20] SET_CLI_EVENT_UC_FLAG: Lock player control
  5: 0x000C [0x27] REQ_SET(priority=0x10, entity_id=Mayakov (ID: 17105547/0x0105028B), tag_num=0x04)
  6: 0x0013 [0x92] Mayakov (ID: 17105547/0x0105028B)->Render.Flags3 ^= 0x01
  7: 0x0019 [0x94] LocalPlayer->Render.Flags3 ^= 0x01
  8: 0x001F [0x94] Mayakov (ID: 17105547/0x0105028B)->Render.Flags3 ^= 0x01
  9: 0x0025 [0xBA] SET_ENTITY_POSITION(entity_id=LocalPlayer, pos_x=101.494*, pos_z=102.744*, pos_y=0.999*, direction=219.7*)
 10: 0x0032 [0xBA] SET_ENTITY_POSITION(entity_id=Mayakov (ID: 17105547/0x0105028B), pos_x=113.467*, pos_z=86.937*, pos_y=0.000*, direction=222.1*)
 11: 0x003F [0x80] LOAD_WAIT(entity=LocalPlayer)
 12: 0x0044 [0x80] LOAD_WAIT(entity=Mayakov (ID: 17105547/0x0105028B))
 13: 0x0049 [0x1C] WAIT(15* ticks)
 14: 0x004C [0x4E] SET_ENTITY_HIDE_FLAG: Hide Mayakov (ID: 17105547/0x0105028B)
 15: 0x0052 [0x1C] WAIT(15* ticks)
 16: 0x0055 [0x45] LOAD_SCHEDULED_TASK: Load scheduler "dopn" with entities [EventEntity, EventEntity], work=[341*, 0*]
 17: 0x0066 [0x4E] SET_ENTITY_HIDE_FLAG: Show Mayakov (ID: 17105547/0x0105028B)
 18: 0x006C [0x1C] WAIT(30* ticks)
 19: 0x006F [0xBA] SET_ENTITY_POSITION(entity_id=Mayakov (ID: 17105547/0x0105028B), pos_x=97.583*, pos_z=106.394*, pos_y=0.000*, direction=39.1*)
 20: 0x007C [0x1C] WAIT(90* ticks)
 21: 0x007F [0x45] LOAD_SCHEDULED_TASK: Load scheduler "dcls" with entities [EventEntity, EventEntity], work=[341*, 0*]
 22: 0x0090 [0x1C] WAIT(120* ticks)
 23: 0x0093 [0x59] UPDATE_ENTITY_DATA: Set Mayakov (ID: 17105547/0x0105028B) main speed = 11* * 0.1
 24: 0x009B [0x27] REQ_SET(priority=0x10, entity_id=Mayakov (ID: 17105547/0x0105028B), tag_num=0x0F)
 25: 0x00A2 [0x45] LOAD_SCHEDULED_TASK: Load scheduler "s128" with entities [LocalPlayer, LocalPlayer], work=[449*, 0*]
 26: 0x00B3 [0x45] LOAD_SCHEDULED_TASK: Load scheduler "fdi2" with entities [LocalPlayer, LocalPlayer], work=[200*, 0*]
 27: 0x00C4 [0x55] WAIT_LOAD_SCHEDULER: Wait for scheduler "fdi2" with entities [LocalPlayer, LocalPlayer], work=200*
 28: 0x00D3 [0x1C] WAIT(60* ticks)
 29: 0x00D6 [0x52] END_LOAD_SCHEDULER: End scheduler "s128" with entities [LocalPlayer, LocalPlayer], work=449*
 30: 0x00E5 [0x45] LOAD_SCHEDULED_TASK: Load scheduler "s129" with entities [LocalPlayer, LocalPlayer], work=[449*, 0*]
 31: 0x00F6 [0x1C] WAIT(60* ticks)
 32: 0x00F9 [0x52] END_LOAD_SCHEDULER: End scheduler "s129" with entities [LocalPlayer, LocalPlayer], work=449*
 33: 0x0108 [0x45] LOAD_SCHEDULED_TASK: Load scheduler "s130" with entities [LocalPlayer, LocalPlayer], work=[449*, 0*]
 34: 0x0119 [0x1C] WAIT(60* ticks)
 35: 0x011C [0x5C] MUSIC_CONTROL: Set Idle (Day) music to song 153*
 36: 0x0120 [0x5C] MUSIC_CONTROL: Set Idle (Night) music to song 153*
 37: 0x0124 [0x1C] WAIT(120* ticks)
 38: 0x0127 [0x4A] LocalPlayer looks at Mayakov (ID: 17105547/0x0105028B)
 39: 0x0130 [0x6F] WAIT_FRAME_DELAY: Yield until WaitTime reaches zero
 40: 0x0131 [0x76] CHECK_ENTITY_RENDER_FLAGS: Wait until LocalPlayer Render.Flags0 and Render.Flags3 conditions are met
 41: 0x0136 [0x2B] Mayakov (ID: 17105547/0x0105028B) [13671*]:
     "Oh, it'th you, er...<Player>, wath it? Thimply gorgeouth to thee you again!"
 42: 0x013D [0x23] WAIT_FOR_DIALOG_INTERACTION
 43: 0x013E [0x52] END_LOAD_SCHEDULER: End scheduler "s130" with entities [LocalPlayer, LocalPlayer], work=449*
 44: 0x014D [0x45] LOAD_SCHEDULED_TASK: Load scheduler "s103" with entities [LocalPlayer, LocalPlayer], work=[449*, 0*]
 45: 0x015E [0x5B] LOAD_EXT_SCHEDULER: Load scheduler "mtb0" with entities [Mayakov (ID: 17105547/0x0105028B), Mayakov (ID: 17105547/0x0105028B)], work=2173*
 46: 0x016D [0x2B] Mayakov (ID: 17105547/0x0105028B) [13672*]:
     "Looking for Lilithette, are you? I'm afraid you've jutht mithed her."
 47: 0x0174 [0x23] WAIT_FOR_DIALOG_INTERACTION
 48: 0x0175 [0x2B] Mayakov (ID: 17105547/0x0105028B) [13673*]:
     "I'd be willing to wager a complimentary ticket the'th trotted off to the Thateau d'Oraguille again."
 49: 0x017C [0x23] WAIT_FOR_DIALOG_INTERACTION
 50: 0x017D [0x5B] LOAD_EXT_SCHEDULER: Load scheduler "mtb1" with entities [Mayakov (ID: 17105547/0x0105028B), Mayakov (ID: 17105547/0x0105028B)], work=2173*
 51: 0x018C [0x52] END_LOAD_SCHEDULER: End scheduler "s103" with entities [LocalPlayer, LocalPlayer], work=449*
 52: 0x019B [0x45] LOAD_SCHEDULED_TASK: Load scheduler "s105" with entities [LocalPlayer, LocalPlayer], work=[449*, 0*]
 53: 0x01AC [0x2B] Mayakov (ID: 17105547/0x0105028B) [13674*]:
     "Both she and Porthia have made it a habit to vithit Thir Ragelithe on a regular bathith ever thinth he thuthtained that terrible wound."
 54: 0x01B3 [0x23] WAIT_FOR_DIALOG_INTERACTION
 55: 0x01B4 [0x52] END_LOAD_SCHEDULER: End scheduler "s105" with entities [LocalPlayer, LocalPlayer], work=449*
 56: 0x01C3 [0x45] LOAD_SCHEDULED_TASK: Load scheduler "s106" with entities [LocalPlayer, LocalPlayer], work=[449*, 0*]
 57: 0x01D4 [0x2B] Mayakov (ID: 17105547/0x0105028B) [13675*]:
     "The two of them have been thpending much time by hith thide ath of late. Too much, if you athk my humble opinion."
 58: 0x01DB [0x23] WAIT_FOR_DIALOG_INTERACTION
 59: 0x01DC [0x2B] Mayakov (ID: 17105547/0x0105028B) [13676*]:
     "Why, I honethtly cannot recall when I latht thaw them rehearthing. I do thympathithe with them during thethe trying timeth, but I have a danthe troupe to run."
 60: 0x01E3 [0x23] WAIT_FOR_DIALOG_INTERACTION
 61: 0x01E4 [0x53] WAIT_SCHEDULER_TASK: Wait for scheduler "mtb1" with entities [Mayakov (ID: 17105547/0x0105028B), Mayakov (ID: 17105547/0x0105028B)]
 62: 0x01F1 [0x52] END_LOAD_SCHEDULER: End scheduler "s106" with entities [LocalPlayer, LocalPlayer], work=449*
 63: 0x0200 [0x45] LOAD_SCHEDULED_TASK: Load scheduler "s107" with entities [LocalPlayer, LocalPlayer], work=[449*, 0*]
 64: 0x0211 [0x5B] LOAD_EXT_SCHEDULER: Load scheduler "mou0" with entities [Mayakov (ID: 17105547/0x0105028B), Mayakov (ID: 17105547/0x0105028B)], work=2384*
 65: 0x0220 [0x1C] WAIT(30* ticks)
 66: 0x0223 [0x1C] WAIT(20* ticks)
 67: 0x0226 [0x52] END_LOAD_SCHEDULER: End scheduler "s107" with entities [LocalPlayer, LocalPlayer], work=449*
 68: 0x0235 [0x45] LOAD_SCHEDULED_TASK: Load scheduler "s126" with entities [LocalPlayer, LocalPlayer], work=[449*, 0*]
 69: 0x0246 [0x1C] WAIT(50* ticks)
 70: 0x0249 [0x52] END_LOAD_SCHEDULER: End scheduler "s126" with entities [LocalPlayer, LocalPlayer], work=449*
 71: 0x0258 [0x45] LOAD_SCHEDULED_TASK: Load scheduler "s122" with entities [LocalPlayer, LocalPlayer], work=[449*, 0*]
 72: 0x0269 [0x1C] WAIT(50* ticks)
 73: 0x026C [0x52] END_LOAD_SCHEDULER: End scheduler "s122" with entities [LocalPlayer, LocalPlayer], work=449*
 74: 0x027B [0x45] LOAD_SCHEDULED_TASK: Load scheduler "s109" with entities [LocalPlayer, LocalPlayer], work=[449*, 0*]
 75: 0x028C [0x2B] Mayakov (ID: 17105547/0x0105028B) [13677*]:
     "Ankleth may thprain, puth may oothe from blithterth...and loved oneth may be thtruck down by unholy magickth, but the thow mutht go on!"
 76: 0x0293 [0x23] WAIT_FOR_DIALOG_INTERACTION
 77: 0x0294 [0x5B] LOAD_EXT_SCHEDULER: Load scheduler "mou1" with entities [Mayakov (ID: 17105547/0x0105028B), Mayakov (ID: 17105547/0x0105028B)], work=2384*
 78: 0x02A3 [0x1C] WAIT(10* ticks)
 79: 0x02A6 [0x52] END_LOAD_SCHEDULER: End scheduler "s109" with entities [LocalPlayer, LocalPlayer], work=449*
 80: 0x02B5 [0x45] LOAD_SCHEDULED_TASK: Load scheduler "s127" with entities [LocalPlayer, LocalPlayer], work=[449*, 0*]
 81: 0x02C6 [0x2B] Mayakov (ID: 17105547/0x0105028B) [13678*]:
     "I've tolerated their unprofethionalithm for long enough. I mutht remind mythelf to mete out a fitting punithment for the two of them. Lilithette, ethpethially."
 82: 0x02CD [0x23] WAIT_FOR_DIALOG_INTERACTION
 83: 0x02CE [0x52] END_LOAD_SCHEDULER: End scheduler "s127" with entities [LocalPlayer, LocalPlayer], work=449*
 84: 0x02DD [0x45] LOAD_SCHEDULED_TASK: Load scheduler "s110" with entities [LocalPlayer, LocalPlayer], work=[449*, 0*]
 85: 0x02EE [0x5B] LOAD_EXT_SCHEDULER: Load scheduler "mtb0" with entities [Mayakov (ID: 17105547/0x0105028B), Mayakov (ID: 17105547/0x0105028B)], work=2173*
 86: 0x02FD [0x2B] Mayakov (ID: 17105547/0x0105028B) [13679*]:
     "If you happen to run into our prodigal diva, be thure to thare with her the detailth of our converthation. The part about punithmenth, in particular."
 87: 0x0304 [0x23] WAIT_FOR_DIALOG_INTERACTION
 88: 0x0305 [0x29] REQ_SET_WAIT(priority=0x10, entity_id=LocalPlayer, tag_num=0x1B)
 89: 0x030C [0x02] IF !(Work_Zone[2] == 1*) GOTO 0x0337
 90: 0x0314 [0x52] END_LOAD_SCHEDULER: End scheduler "s110" with entities [LocalPlayer, LocalPlayer], work=449*
 91: 0x0323 [0x45] LOAD_SCHEDULED_TASK: Load scheduler "whm1" with entities [LocalPlayer, LocalPlayer], work=[449*, 0*]
 92: 0x0334 [0x01] GOTO 0x0464
 93: 0x0337 [0x02] IF !(Work_Zone[2] == 2*) GOTO 0x0362
 94: 0x033F [0x52] END_LOAD_SCHEDULER: End scheduler "s110" with entities [LocalPlayer, LocalPlayer], work=449*
 95: 0x034E [0x45] LOAD_SCHEDULED_TASK: Load scheduler "whm1" with entities [LocalPlayer, LocalPlayer], work=[449*, 0*]
 96: 0x035F [0x01] GOTO 0x0464
 97: 0x0362 [0x02] IF !(Work_Zone[2] == 3*) GOTO 0x038D
 98: 0x036A [0x52] END_LOAD_SCHEDULER: End scheduler "s110" with entities [LocalPlayer, LocalPlayer], work=449*
 99: 0x0379 [0x45] LOAD_SCHEDULED_TASK: Load scheduler "wem1" with entities [LocalPlayer, LocalPlayer], work=[449*, 0*]
100: 0x038A [0x01] GOTO 0x0464
101: 0x038D [0x02] IF !(Work_Zone[2] == 4*) GOTO 0x03B8
102: 0x0395 [0x52] END_LOAD_SCHEDULER: End scheduler "s110" with entities [LocalPlayer, LocalPlayer], work=449*
103: 0x03A4 [0x45] LOAD_SCHEDULED_TASK: Load scheduler "wem1" with entities [LocalPlayer, LocalPlayer], work=[449*, 0*]
104: 0x03B5 [0x01] GOTO 0x0464
105: 0x03B8 [0x02] IF !(Work_Zone[2] == 5*) GOTO 0x03E3
106: 0x03C0 [0x52] END_LOAD_SCHEDULER: End scheduler "s110" with entities [LocalPlayer, LocalPlayer], work=449*
107: 0x03CF [0x45] LOAD_SCHEDULED_TASK: Load scheduler "wtr1" with entities [LocalPlayer, LocalPlayer], work=[449*, 0*]
108: 0x03E0 [0x01] GOTO 0x0464
109: 0x03E3 [0x02] IF !(Work_Zone[2] == 6*) GOTO 0x040E
110: 0x03EB [0x52] END_LOAD_SCHEDULER: End scheduler "s110" with entities [LocalPlayer, LocalPlayer], work=449*
111: 0x03FA [0x45] LOAD_SCHEDULED_TASK: Load scheduler "wtr1" with entities [LocalPlayer, LocalPlayer], work=[449*, 0*]
112: 0x040B [0x01] GOTO 0x0464
113: 0x040E [0x02] IF !(Work_Zone[2] == 7*) GOTO 0x0439
114: 0x0416 [0x52] END_LOAD_SCHEDULER: End scheduler "s110" with entities [LocalPlayer, LocalPlayer], work=449*
115: 0x0425 [0x45] LOAD_SCHEDULED_TASK: Load scheduler "wmt1" with entities [LocalPlayer, LocalPlayer], work=[449*, 0*]
116: 0x0436 [0x01] GOTO 0x0464
117: 0x0439 [0x02] IF !(Work_Zone[2] == 8*) GOTO 0x0464
118: 0x0441 [0x52] END_LOAD_SCHEDULER: End scheduler "s110" with entities [LocalPlayer, LocalPlayer], work=449*
119: 0x0450 [0x45] LOAD_SCHEDULED_TASK: Load scheduler "wgl1" with entities [LocalPlayer, LocalPlayer], work=[449*, 0*]
120: 0x0461 [0x01] GOTO 0x0464

SUBROUTINE_0464:
121: 0x0464 [0x6E] LocalPlayer uses emote 7*
122: 0x046B [0x99] Wait for LocalPlayer animation to complete
123: 0x0470 [0x1C] WAIT(120* ticks)
124: 0x0473 [0x03] Work_Zone[37] = 99284*
125: 0x0478 [0x03] Work_Zone[39] = 101575*
126: 0x047D [0x03] Work_Zone[38] = 999*
127: 0x0482 [0x03] Work_Zone[40] = 4014*
128: 0x0487 [0x27] REQ_SET(priority=0x10, entity_id=LocalPlayer, tag_num=0x16)
129: 0x048E [0x1C] WAIT(30* ticks)
130: 0x0491 [0x52] END_LOAD_SCHEDULER: End scheduler "whm1" with entities [LocalPlayer, LocalPlayer], work=449*
131: 0x04A0 [0x52] END_LOAD_SCHEDULER: End scheduler "whm1" with entities [LocalPlayer, LocalPlayer], work=449*
132: 0x04AF [0x52] END_LOAD_SCHEDULER: End scheduler "wem1" with entities [LocalPlayer, LocalPlayer], work=449*
133: 0x04BE [0x52] END_LOAD_SCHEDULER: End scheduler "wem1" with entities [LocalPlayer, LocalPlayer], work=449*
134: 0x04CD [0x52] END_LOAD_SCHEDULER: End scheduler "wtr1" with entities [LocalPlayer, LocalPlayer], work=449*
135: 0x04DC [0x52] END_LOAD_SCHEDULER: End scheduler "wmt1" with entities [LocalPlayer, LocalPlayer], work=449*
136: 0x04EB [0x52] END_LOAD_SCHEDULER: End scheduler "wgl1" with entities [LocalPlayer, LocalPlayer], work=449*
137: 0x04FA [0x45] LOAD_SCHEDULED_TASK: Load scheduler "s112" with entities [LocalPlayer, LocalPlayer], work=[449*, 0*]
138: 0x050B [0x2B] Mayakov (ID: 17105547/0x0105028B) [13680*]:
     "...Jutht a moment!"
139: 0x0512 [0x23] WAIT_FOR_DIALOG_INTERACTION
140: 0x0513 [0x29] REQ_SET_WAIT(priority=0x0F, entity_id=LocalPlayer, tag_num=0x1B)
141: 0x051A [0x02] IF !(Work_Zone[2] == 1*) GOTO 0x0545
142: 0x0522 [0x52] END_LOAD_SCHEDULER: End scheduler "s112" with entities [LocalPlayer, LocalPlayer], work=449*
143: 0x0531 [0x45] LOAD_SCHEDULED_TASK: Load scheduler "whm2" with entities [LocalPlayer, LocalPlayer], work=[449*, 0*]
144: 0x0542 [0x01] GOTO 0x0672
145: 0x0545 [0x02] IF !(Work_Zone[2] == 2*) GOTO 0x0570
146: 0x054D [0x52] END_LOAD_SCHEDULER: End scheduler "s112" with entities [LocalPlayer, LocalPlayer], work=449*
147: 0x055C [0x45] LOAD_SCHEDULED_TASK: Load scheduler "whm2" with entities [LocalPlayer, LocalPlayer], work=[449*, 0*]
148: 0x056D [0x01] GOTO 0x0672
149: 0x0570 [0x02] IF !(Work_Zone[2] == 3*) GOTO 0x059B
150: 0x0578 [0x52] END_LOAD_SCHEDULER: End scheduler "s112" with entities [LocalPlayer, LocalPlayer], work=449*
151: 0x0587 [0x45] LOAD_SCHEDULED_TASK: Load scheduler "wem2" with entities [LocalPlayer, LocalPlayer], work=[449*, 0*]
152: 0x0598 [0x01] GOTO 0x0672
153: 0x059B [0x02] IF !(Work_Zone[2] == 4*) GOTO 0x05C6
154: 0x05A3 [0x52] END_LOAD_SCHEDULER: End scheduler "s112" with entities [LocalPlayer, LocalPlayer], work=449*
155: 0x05B2 [0x45] LOAD_SCHEDULED_TASK: Load scheduler "wem2" with entities [LocalPlayer, LocalPlayer], work=[449*, 0*]
156: 0x05C3 [0x01] GOTO 0x0672
157: 0x05C6 [0x02] IF !(Work_Zone[2] == 5*) GOTO 0x05F1
158: 0x05CE [0x52] END_LOAD_SCHEDULER: End scheduler "s112" with entities [LocalPlayer, LocalPlayer], work=449*
159: 0x05DD [0x45] LOAD_SCHEDULED_TASK: Load scheduler "wtr2" with entities [LocalPlayer, LocalPlayer], work=[449*, 0*]
160: 0x05EE [0x01] GOTO 0x0672
161: 0x05F1 [0x02] IF !(Work_Zone[2] == 6*) GOTO 0x061C
162: 0x05F9 [0x52] END_LOAD_SCHEDULER: End scheduler "s112" with entities [LocalPlayer, LocalPlayer], work=449*
163: 0x0608 [0x45] LOAD_SCHEDULED_TASK: Load scheduler "wtr2" with entities [LocalPlayer, LocalPlayer], work=[449*, 0*]
164: 0x0619 [0x01] GOTO 0x0672
165: 0x061C [0x02] IF !(Work_Zone[2] == 7*) GOTO 0x0647
166: 0x0624 [0x52] END_LOAD_SCHEDULER: End scheduler "s112" with entities [LocalPlayer, LocalPlayer], work=449*
167: 0x0633 [0x45] LOAD_SCHEDULED_TASK: Load scheduler "wmt2" with entities [LocalPlayer, LocalPlayer], work=[449*, 0*]
168: 0x0644 [0x01] GOTO 0x0672
169: 0x0647 [0x02] IF !(Work_Zone[2] == 8*) GOTO 0x0672
170: 0x064F [0x52] END_LOAD_SCHEDULER: End scheduler "s112" with entities [LocalPlayer, LocalPlayer], work=449*
171: 0x065E [0x45] LOAD_SCHEDULED_TASK: Load scheduler "wgl2" with entities [LocalPlayer, LocalPlayer], work=[449*, 0*]
172: 0x066F [0x01] GOTO 0x0672

SUBROUTINE_0672:
173: 0x0672 [0x27] REQ_SET(priority=0x10, entity_id=Mayakov (ID: 17105547/0x0105028B), tag_num=0x10)
174: 0x0679 [0x1C] WAIT(30* ticks)
175: 0x067C [0x1C] WAIT(60* ticks)
176: 0x067F [0x4A] LocalPlayer looks at Mayakov (ID: 17105547/0x0105028B)
177: 0x0688 [0x2B] Mayakov (ID: 17105547/0x0105028B) [13681*]:
     "Thank you for the other day. The girlth owe you their liveth."
178: 0x068F [0x23] WAIT_FOR_DIALOG_INTERACTION
179: 0x0690 [0x52] END_LOAD_SCHEDULER: End scheduler "whm2" with entities [LocalPlayer, LocalPlayer], work=449*
180: 0x069F [0x52] END_LOAD_SCHEDULER: End scheduler "whm2" with entities [LocalPlayer, LocalPlayer], work=449*
181: 0x06AE [0x52] END_LOAD_SCHEDULER: End scheduler "wem2" with entities [LocalPlayer, LocalPlayer], work=449*
182: 0x06BD [0x52] END_LOAD_SCHEDULER: End scheduler "wem2" with entities [LocalPlayer, LocalPlayer], work=449*
183: 0x06CC [0x52] END_LOAD_SCHEDULER: End scheduler "wtr2" with entities [LocalPlayer, LocalPlayer], work=449*
184: 0x06DB [0x52] END_LOAD_SCHEDULER: End scheduler "wmt2" with entities [LocalPlayer, LocalPlayer], work=449*
185: 0x06EA [0x52] END_LOAD_SCHEDULER: End scheduler "wgl2" with entities [LocalPlayer, LocalPlayer], work=449*
186: 0x06F9 [0x45] LOAD_SCHEDULED_TASK: Load scheduler "s114" with entities [LocalPlayer, LocalPlayer], work=[449*, 0*]
187: 0x070A [0x2B] Mayakov (ID: 17105547/0x0105028B) [13682*]:
     "It theemth I wath mithtaken about you."
188: 0x0711 [0x23] WAIT_FOR_DIALOG_INTERACTION
189: 0x0712 [0x29] REQ_SET_WAIT(priority=0x10, entity_id=LocalPlayer, tag_num=0x1B)
190: 0x0719 [0x02] IF !(Work_Zone[2] == 1*) GOTO 0x0744
191: 0x0721 [0x52] END_LOAD_SCHEDULER: End scheduler "s114" with entities [LocalPlayer, LocalPlayer], work=449*
192: 0x0730 [0x45] LOAD_SCHEDULED_TASK: Load scheduler "whm4" with entities [LocalPlayer, LocalPlayer], work=[449*, 0*]
193: 0x0741 [0x01] GOTO 0x0871
194: 0x0744 [0x02] IF !(Work_Zone[2] == 2*) GOTO 0x076F
195: 0x074C [0x52] END_LOAD_SCHEDULER: End scheduler "s114" with entities [LocalPlayer, LocalPlayer], work=449*
196: 0x075B [0x45] LOAD_SCHEDULED_TASK: Load scheduler "whm4" with entities [LocalPlayer, LocalPlayer], work=[449*, 0*]
197: 0x076C [0x01] GOTO 0x0871
198: 0x076F [0x02] IF !(Work_Zone[2] == 3*) GOTO 0x079A
199: 0x0777 [0x52] END_LOAD_SCHEDULER: End scheduler "s114" with entities [LocalPlayer, LocalPlayer], work=449*
200: 0x0786 [0x45] LOAD_SCHEDULED_TASK: Load scheduler "wem4" with entities [LocalPlayer, LocalPlayer], work=[449*, 0*]
201: 0x0797 [0x01] GOTO 0x0871
202: 0x079A [0x02] IF !(Work_Zone[2] == 4*) GOTO 0x07C5
203: 0x07A2 [0x52] END_LOAD_SCHEDULER: End scheduler "s114" with entities [LocalPlayer, LocalPlayer], work=449*
204: 0x07B1 [0x45] LOAD_SCHEDULED_TASK: Load scheduler "wem4" with entities [LocalPlayer, LocalPlayer], work=[449*, 0*]
205: 0x07C2 [0x01] GOTO 0x0871
206: 0x07C5 [0x02] IF !(Work_Zone[2] == 5*) GOTO 0x07F0
207: 0x07CD [0x52] END_LOAD_SCHEDULER: End scheduler "s114" with entities [LocalPlayer, LocalPlayer], work=449*
208: 0x07DC [0x45] LOAD_SCHEDULED_TASK: Load scheduler "wtr4" with entities [LocalPlayer, LocalPlayer], work=[449*, 0*]
209: 0x07ED [0x01] GOTO 0x0871
210: 0x07F0 [0x02] IF !(Work_Zone[2] == 6*) GOTO 0x081B
211: 0x07F8 [0x52] END_LOAD_SCHEDULER: End scheduler "s114" with entities [LocalPlayer, LocalPlayer], work=449*
212: 0x0807 [0x45] LOAD_SCHEDULED_TASK: Load scheduler "wtr4" with entities [LocalPlayer, LocalPlayer], work=[449*, 0*]
213: 0x0818 [0x01] GOTO 0x0871
214: 0x081B [0x02] IF !(Work_Zone[2] == 7*) GOTO 0x0846
215: 0x0823 [0x52] END_LOAD_SCHEDULER: End scheduler "s114" with entities [LocalPlayer, LocalPlayer], work=449*
216: 0x0832 [0x45] LOAD_SCHEDULED_TASK: Load scheduler "wmt4" with entities [LocalPlayer, LocalPlayer], work=[449*, 0*]
217: 0x0843 [0x01] GOTO 0x0871
218: 0x0846 [0x02] IF !(Work_Zone[2] == 8*) GOTO 0x0871
219: 0x084E [0x52] END_LOAD_SCHEDULER: End scheduler "s114" with entities [LocalPlayer, LocalPlayer], work=449*
220: 0x085D [0x45] LOAD_SCHEDULED_TASK: Load scheduler "wgl4" with entities [LocalPlayer, LocalPlayer], work=[449*, 0*]
221: 0x086E [0x01] GOTO 0x0871

SUBROUTINE_0871:
222: 0x0871 [0x4A] Mayakov (ID: 17105547/0x0105028B) looks at LocalPlayer
223: 0x087A [0x2B] Mayakov (ID: 17105547/0x0105028B) [13683*]:
     "I mean, who would have guethed you packed thuch a punch, jutht by looking at you? You truly are full of thurpritheth!"
224: 0x0881 [0x23] WAIT_FOR_DIALOG_INTERACTION
225: 0x0882 [0x52] END_LOAD_SCHEDULER: End scheduler "whm4" with entities [LocalPlayer, LocalPlayer], work=449*
226: 0x0891 [0x52] END_LOAD_SCHEDULER: End scheduler "whm4" with entities [LocalPlayer, LocalPlayer], work=449*
227: 0x08A0 [0x52] END_LOAD_SCHEDULER: End scheduler "wem4" with entities [LocalPlayer, LocalPlayer], work=449*
228: 0x08AF [0x52] END_LOAD_SCHEDULER: End scheduler "wem4" with entities [LocalPlayer, LocalPlayer], work=449*
229: 0x08BE [0x52] END_LOAD_SCHEDULER: End scheduler "wtr4" with entities [LocalPlayer, LocalPlayer], work=449*
230: 0x08CD [0x52] END_LOAD_SCHEDULER: End scheduler "wmt4" with entities [LocalPlayer, LocalPlayer], work=449*
231: 0x08DC [0x52] END_LOAD_SCHEDULER: End scheduler "wgl4" with entities [LocalPlayer, LocalPlayer], work=449*
232: 0x08EB [0x45] LOAD_SCHEDULED_TASK: Load scheduler "s116" with entities [LocalPlayer, LocalPlayer], work=[449*, 0*]
233: 0x08FC [0x5B] LOAD_EXT_SCHEDULER: Load scheduler "kyn0" with entities [Mayakov (ID: 17105547/0x0105028B), Mayakov (ID: 17105547/0x0105028B)], work=2382*
234: 0x090B [0x2B] Mayakov (ID: 17105547/0x0105028B) [13684*]:
     "Now, jutht between you and I..."
235: 0x0912 [0x1C] WAIT(80* ticks)
236: 0x0915 [0x52] END_LOAD_SCHEDULER: End scheduler "s116" with entities [LocalPlayer, LocalPlayer], work=449*
237: 0x0924 [0x45] LOAD_SCHEDULED_TASK: Load scheduler "s123" with entities [LocalPlayer, LocalPlayer], work=[449*, 0*]
238: 0x0935 [0x1C] WAIT(80* ticks)
239: 0x0938 [0x52] END_LOAD_SCHEDULER: End scheduler "s123" with entities [LocalPlayer, LocalPlayer], work=449*
240: 0x0947 [0x45] LOAD_SCHEDULED_TASK: Load scheduler "s125" with entities [LocalPlayer, LocalPlayer], work=[449*, 0*]
241: 0x0958 [0x1C] WAIT(60* ticks)
242: 0x095B [0x52] END_LOAD_SCHEDULER: End scheduler "s125" with entities [LocalPlayer, LocalPlayer], work=449*
243: 0x096A [0x45] LOAD_SCHEDULED_TASK: Load scheduler "s124" with entities [LocalPlayer, LocalPlayer], work=[449*, 0*]
244: 0x097B [0x2B] Mayakov (ID: 17105547/0x0105028B) [13685*]:
     "My heart thkipped one whole beat witnething you in action back in La Vaule."
245: 0x0982 [0x23] WAIT_FOR_DIALOG_INTERACTION
246: 0x0983 [0x5B] LOAD_EXT_SCHEDULER: Load scheduler "kyn1" with entities [Mayakov (ID: 17105547/0x0105028B), Mayakov (ID: 17105547/0x0105028B)], work=2382*
247: 0x0992 [0x52] END_LOAD_SCHEDULER: End scheduler "s124" with entities [LocalPlayer, LocalPlayer], work=449*
248: 0x09A1 [0x45] LOAD_SCHEDULED_TASK: Load scheduler "s117" with entities [LocalPlayer, LocalPlayer], work=[449*, 0*]
249: 0x09B2 [0x1C] WAIT(30* ticks)
250: 0x09B5 [0x5B] LOAD_EXT_SCHEDULER: Load scheduler "yuw0" with entities [Mayakov (ID: 17105547/0x0105028B), Mayakov (ID: 17105547/0x0105028B)], work=2289*
251: 0x09C4 [0x1C] WAIT(60* ticks)
252: 0x09C7 [0x2B] Mayakov (ID: 17105547/0x0105028B) [13686*]:
     "What would you thay if I were to invite you to join Troupe Mayakov, hmmm? I'll perthonally thee to your training ath my firtht and foremotht priority!"
253: 0x09CE [0x23] WAIT_FOR_DIALOG_INTERACTION
254: 0x09CF [0x52] END_LOAD_SCHEDULER: End scheduler "s117" with entities [LocalPlayer, LocalPlayer], work=449*
255: 0x09DE [0x45] LOAD_SCHEDULED_TASK: Load scheduler "s131" with entities [LocalPlayer, LocalPlayer], work=[449*, 0*]
256: 0x09EF [0x24] CREATE_DIALOG(message_id=13687*, default_option=0*, option_flags=0*)
     "Will you join Troupe Mayakov? [It-it'd be my greatetht honor!/I truly am flattered, but...]"
257: 0x09F6 [0x25] WAIT_DIALOG_SELECT()
258: 0x09F7 [0x02] IF !(Work_Zone[0] == 0*) GOTO 0x0C12
259: 0x09FF [0x29] REQ_SET_WAIT(priority=0x10, entity_id=LocalPlayer, tag_num=0x1B)
260: 0x0A06 [0x02] IF !(Work_Zone[2] == 1*) GOTO 0x0A31
261: 0x0A0E [0x52] END_LOAD_SCHEDULER: End scheduler "s131" with entities [LocalPlayer, LocalPlayer], work=449*
262: 0x0A1D [0x45] LOAD_SCHEDULED_TASK: Load scheduler "whm3" with entities [LocalPlayer, LocalPlayer], work=[449*, 0*]
263: 0x0A2E [0x01] GOTO 0x0B5E
264: 0x0A31 [0x02] IF !(Work_Zone[2] == 2*) GOTO 0x0A5C
265: 0x0A39 [0x52] END_LOAD_SCHEDULER: End scheduler "s131" with entities [LocalPlayer, LocalPlayer], work=449*
266: 0x0A48 [0x45] LOAD_SCHEDULED_TASK: Load scheduler "whm3" with entities [LocalPlayer, LocalPlayer], work=[449*, 0*]
267: 0x0A59 [0x01] GOTO 0x0B5E
268: 0x0A5C [0x02] IF !(Work_Zone[2] == 3*) GOTO 0x0A87
269: 0x0A64 [0x52] END_LOAD_SCHEDULER: End scheduler "s131" with entities [LocalPlayer, LocalPlayer], work=449*
270: 0x0A73 [0x45] LOAD_SCHEDULED_TASK: Load scheduler "wem3" with entities [LocalPlayer, LocalPlayer], work=[449*, 0*]
271: 0x0A84 [0x01] GOTO 0x0B5E
272: 0x0A87 [0x02] IF !(Work_Zone[2] == 4*) GOTO 0x0AB2
273: 0x0A8F [0x52] END_LOAD_SCHEDULER: End scheduler "s131" with entities [LocalPlayer, LocalPlayer], work=449*
274: 0x0A9E [0x45] LOAD_SCHEDULED_TASK: Load scheduler "wem3" with entities [LocalPlayer, LocalPlayer], work=[449*, 0*]
275: 0x0AAF [0x01] GOTO 0x0B5E
276: 0x0AB2 [0x02] IF !(Work_Zone[2] == 5*) GOTO 0x0ADD
277: 0x0ABA [0x52] END_LOAD_SCHEDULER: End scheduler "s131" with entities [LocalPlayer, LocalPlayer], work=449*
278: 0x0AC9 [0x45] LOAD_SCHEDULED_TASK: Load scheduler "wtr3" with entities [LocalPlayer, LocalPlayer], work=[449*, 0*]
279: 0x0ADA [0x01] GOTO 0x0B5E
280: 0x0ADD [0x02] IF !(Work_Zone[2] == 6*) GOTO 0x0B08
281: 0x0AE5 [0x52] END_LOAD_SCHEDULER: End scheduler "s131" with entities [LocalPlayer, LocalPlayer], work=449*
282: 0x0AF4 [0x45] LOAD_SCHEDULED_TASK: Load scheduler "wtr3" with entities [LocalPlayer, LocalPlayer], work=[449*, 0*]
283: 0x0B05 [0x01] GOTO 0x0B5E
284: 0x0B08 [0x02] IF !(Work_Zone[2] == 7*) GOTO 0x0B33
285: 0x0B10 [0x52] END_LOAD_SCHEDULER: End scheduler "s131" with entities [LocalPlayer, LocalPlayer], work=449*
286: 0x0B1F [0x45] LOAD_SCHEDULED_TASK: Load scheduler "wmt3" with entities [LocalPlayer, LocalPlayer], work=[449*, 0*]
287: 0x0B30 [0x01] GOTO 0x0B5E
288: 0x0B33 [0x02] IF !(Work_Zone[2] == 8*) GOTO 0x0B5E
289: 0x0B3B [0x52] END_LOAD_SCHEDULER: End scheduler "s131" with entities [LocalPlayer, LocalPlayer], work=449*
290: 0x0B4A [0x45] LOAD_SCHEDULED_TASK: Load scheduler "wgl3" with entities [LocalPlayer, LocalPlayer], work=[449*, 0*]
291: 0x0B5B [0x01] GOTO 0x0B5E

SUBROUTINE_0B5E:
292: 0x0B5E [0x5C] MUSIC_CONTROL: Set Idle (Day) music to song 246*
293: 0x0B62 [0x5C] MUSIC_CONTROL: Set Idle (Night) music to song 246*
294: 0x0B66 [0x9A] WAIT_MUSIC_SERVER()
295: 0x0B67 [0x6E] LocalPlayer uses emote 11*
296: 0x0B6E [0x99] Wait for LocalPlayer animation to complete
297: 0x0B73 [0x1C] WAIT(120* ticks)
298: 0x0B76 [0x52] END_LOAD_SCHEDULER: End scheduler "whm3" with entities [LocalPlayer, LocalPlayer], work=449*
299: 0x0B85 [0x52] END_LOAD_SCHEDULER: End scheduler "whm3" with entities [LocalPlayer, LocalPlayer], work=449*
300: 0x0B94 [0x52] END_LOAD_SCHEDULER: End scheduler "wem3" with entities [LocalPlayer, LocalPlayer], work=449*
301: 0x0BA3 [0x52] END_LOAD_SCHEDULER: End scheduler "wem3" with entities [LocalPlayer, LocalPlayer], work=449*
302: 0x0BB2 [0x52] END_LOAD_SCHEDULER: End scheduler "wtr3" with entities [LocalPlayer, LocalPlayer], work=449*
303: 0x0BC1 [0x52] END_LOAD_SCHEDULER: End scheduler "wmt3" with entities [LocalPlayer, LocalPlayer], work=449*
304: 0x0BD0 [0x52] END_LOAD_SCHEDULER: End scheduler "wgl3" with entities [LocalPlayer, LocalPlayer], work=449*
305: 0x0BDF [0x45] LOAD_SCHEDULED_TASK: Load scheduler "s121" with entities [LocalPlayer, LocalPlayer], work=[449*, 0*]
306: 0x0BF0 [0x5B] LOAD_EXT_SCHEDULER: Load scheduler "yuw1" with entities [Mayakov (ID: 17105547/0x0105028B), Mayakov (ID: 17105547/0x0105028B)], work=2289*
307: 0x0BFF [0x1C] WAIT(60* ticks)
308: 0x0C02 [0x5D] SET_MUSIC_VOLUME(volume=0*, fade_time=180*)
309: 0x0C07 [0x2B] Mayakov (ID: 17105547/0x0105028B) [13688*]:
     "<Snicker>... I wath jutht teathing! I didn't think you'd take my propothal theriouthly. My, my, hath anyone ever told you how adorable you are? Ohohohohoho!"
310: 0x0C0E [0x23] WAIT_FOR_DIALOG_INTERACTION
311: 0x0C0F [0x01] GOTO 0x0E1F
312: 0x0C12 [0x02] IF !(Work_Zone[0] == 1*) GOTO 0x0E1F
313: 0x0C1A [0x29] REQ_SET_WAIT(priority=0x10, entity_id=LocalPlayer, tag_num=0x1B)
314: 0x0C21 [0x02] IF !(Work_Zone[2] == 1*) GOTO 0x0C4C
315: 0x0C29 [0x52] END_LOAD_SCHEDULER: End scheduler "s131" with entities [LocalPlayer, LocalPlayer], work=449*
316: 0x0C38 [0x45] LOAD_SCHEDULED_TASK: Load scheduler "whm3" with entities [LocalPlayer, LocalPlayer], work=[449*, 0*]
317: 0x0C49 [0x01] GOTO 0x0D79
318: 0x0C4C [0x02] IF !(Work_Zone[2] == 2*) GOTO 0x0C77
319: 0x0C54 [0x52] END_LOAD_SCHEDULER: End scheduler "s131" with entities [LocalPlayer, LocalPlayer], work=449*
320: 0x0C63 [0x45] LOAD_SCHEDULED_TASK: Load scheduler "whm3" with entities [LocalPlayer, LocalPlayer], work=[449*, 0*]
321: 0x0C74 [0x01] GOTO 0x0D79
322: 0x0C77 [0x02] IF !(Work_Zone[2] == 3*) GOTO 0x0CA2
323: 0x0C7F [0x52] END_LOAD_SCHEDULER: End scheduler "s131" with entities [LocalPlayer, LocalPlayer], work=449*
324: 0x0C8E [0x45] LOAD_SCHEDULED_TASK: Load scheduler "wem3" with entities [LocalPlayer, LocalPlayer], work=[449*, 0*]
325: 0x0C9F [0x01] GOTO 0x0D79
326: 0x0CA2 [0x02] IF !(Work_Zone[2] == 4*) GOTO 0x0CCD
327: 0x0CAA [0x52] END_LOAD_SCHEDULER: End scheduler "s131" with entities [LocalPlayer, LocalPlayer], work=449*
328: 0x0CB9 [0x45] LOAD_SCHEDULED_TASK: Load scheduler "wem3" with entities [LocalPlayer, LocalPlayer], work=[449*, 0*]
329: 0x0CCA [0x01] GOTO 0x0D79
330: 0x0CCD [0x02] IF !(Work_Zone[2] == 5*) GOTO 0x0CF8
331: 0x0CD5 [0x52] END_LOAD_SCHEDULER: End scheduler "s131" with entities [LocalPlayer, LocalPlayer], work=449*
332: 0x0CE4 [0x45] LOAD_SCHEDULED_TASK: Load scheduler "wtr3" with entities [LocalPlayer, LocalPlayer], work=[449*, 0*]
333: 0x0CF5 [0x01] GOTO 0x0D79
334: 0x0CF8 [0x02] IF !(Work_Zone[2] == 6*) GOTO 0x0D23
335: 0x0D00 [0x52] END_LOAD_SCHEDULER: End scheduler "s131" with entities [LocalPlayer, LocalPlayer], work=449*
336: 0x0D0F [0x45] LOAD_SCHEDULED_TASK: Load scheduler "wtr3" with entities [LocalPlayer, LocalPlayer], work=[449*, 0*]
337: 0x0D20 [0x01] GOTO 0x0D79
338: 0x0D23 [0x02] IF !(Work_Zone[2] == 7*) GOTO 0x0D4E
339: 0x0D2B [0x52] END_LOAD_SCHEDULER: End scheduler "s131" with entities [LocalPlayer, LocalPlayer], work=449*
340: 0x0D3A [0x45] LOAD_SCHEDULED_TASK: Load scheduler "wmt3" with entities [LocalPlayer, LocalPlayer], work=[449*, 0*]
341: 0x0D4B [0x01] GOTO 0x0D79
342: 0x0D4E [0x02] IF !(Work_Zone[2] == 8*) GOTO 0x0D79
343: 0x0D56 [0x52] END_LOAD_SCHEDULER: End scheduler "s131" with entities [LocalPlayer, LocalPlayer], work=449*
344: 0x0D65 [0x45] LOAD_SCHEDULED_TASK: Load scheduler "wgl3" with entities [LocalPlayer, LocalPlayer], work=[449*, 0*]
345: 0x0D76 [0x01] GOTO 0x0D79

SUBROUTINE_0D79:
346: 0x0D79 [0x6E] LocalPlayer uses emote 6*
347: 0x0D80 [0x99] Wait for LocalPlayer animation to complete
348: 0x0D85 [0x1C] WAIT(120* ticks)
349: 0x0D88 [0x52] END_LOAD_SCHEDULER: End scheduler "whm3" with entities [LocalPlayer, LocalPlayer], work=449*
350: 0x0D97 [0x52] END_LOAD_SCHEDULER: End scheduler "whm3" with entities [LocalPlayer, LocalPlayer], work=449*
351: 0x0DA6 [0x52] END_LOAD_SCHEDULER: End scheduler "wem3" with entities [LocalPlayer, LocalPlayer], work=449*
352: 0x0DB5 [0x52] END_LOAD_SCHEDULER: End scheduler "wem3" with entities [LocalPlayer, LocalPlayer], work=449*
353: 0x0DC4 [0x52] END_LOAD_SCHEDULER: End scheduler "wtr3" with entities [LocalPlayer, LocalPlayer], work=449*
354: 0x0DD3 [0x52] END_LOAD_SCHEDULER: End scheduler "wmt3" with entities [LocalPlayer, LocalPlayer], work=449*
355: 0x0DE2 [0x52] END_LOAD_SCHEDULER: End scheduler "wgl3" with entities [LocalPlayer, LocalPlayer], work=449*
356: 0x0DF1 [0x45] LOAD_SCHEDULED_TASK: Load scheduler "s121" with entities [LocalPlayer, LocalPlayer], work=[449*, 0*]
357: 0x0E02 [0x5B] LOAD_EXT_SCHEDULER: Load scheduler "yuw1" with entities [Mayakov (ID: 17105547/0x0105028B), Mayakov (ID: 17105547/0x0105028B)], work=2289*
358: 0x0E11 [0x1C] WAIT(60* ticks)
359: 0x0E14 [0x2B] Mayakov (ID: 17105547/0x0105028B) [13689*]:
     "<Snicker>... I wath jutht teathing! You really are adorable thometimeth, you know that? Oh, how I wish I could've captured the exthprethion on your fathe jutht now! Ohohohohoho!"
360: 0x0E1B [0x23] WAIT_FOR_DIALOG_INTERACTION
361: 0x0E1C [0x01] GOTO 0x0E1F

SUBROUTINE_0E1F:
362: 0x0E1F [0x6E] LocalPlayer uses emote 19*
363: 0x0E26 [0x99] Wait for LocalPlayer animation to complete
364: 0x0E2B [0x1C] WAIT(120* ticks)
365: 0x0E2E [0x1A] CALL_SUBROUTINE(address=0xC310)
366: 0x0E31 [0x52] END_LOAD_SCHEDULER: End scheduler "s121" with entities [LocalPlayer, LocalPlayer], work=449*
367: 0x0E40 [0x1C] WAIT(1* ticks)
368: 0x0E43 [0xAB] EventEntity->UnknownFlag = 0 // Disable unknown flag
369: 0x0E45 [0x46] CAMERA_CONTROL: Restore default settings
370: 0x0E47 [0x45] LOAD_SCHEDULED_TASK: Load scheduler "fdi2" with entities [LocalPlayer, LocalPlayer], work=[200*, 0*]
371: 0x0E58 [0x21] END_EVENT
372: 0x0E59 [0x00] END_REQSTACK()
```

### Event 86

#### Metadata

| Field        | Value      |
|--------------|------------|
| Entrypoint   | 0x0E5A     |
| Data Size    | 7587 bytes |
| Instructions | 871        |

```
      00 01 02 03 04 05 06 07  08 09 0A 0B 0C 0D 0E 0F
      -- -- -- -- -- -- -- --  -- -- -- -- -- -- -- --
0E50:                                42 1A 10 C3 46 01            B...F.
0E60: 38 00 80 03 02 00 02 10  27 10 AE 02 05 01 04 4E  8.......'......N
0E70: 00 EE 01 05 01 4E 00 EF  01 05 01 92 01 AE 02 05  .....N..........
0E80: 01 92 01 EE 01 05 01 92  01 EF 01 05 01 94 01 F0  ................
0E90: FF FF 7F 94 01 AE 02 05  01 BA F0 FF FF 7F 3E 80  ..............>.
0EA0: 3F 80 40 80 41 80 BA AE  02 05 01 42 80 43 80 44  ?.@.A......B.C.D
0EB0: 80 45 80 80 F0 FF FF 7F  80 AE 02 05 01 03 25 10  .E............%.
0EC0: 46 80 03 27 10 47 80 03  26 10 48 80 03 28 10 45  F..'.G..&.H..(.E
0ED0: 80 27 10 F0 FF FF 7F 16  45 12 80 F0 FF FF 7F F0  .'......E.......
0EE0: FF FF 7F 6D 31 30 31 07  80 1A EF C2 1C 10 80 52  ...m101........R
0EF0: 12 80 F0 FF FF 7F F0 FF  FF 7F 6D 31 30 31 45 12  ..........m101E.
0F00: 80 F0 FF FF 7F F0 FF FF  7F 6D 31 30 32 07 80 4A  .........m102..J
0F10: EF 01 05 01 F0 FF FF 7F  6F 76 EF 01 05 01 2B EF  ........ov....+.
0F20: 01 05 01 49 80 23 4A F0  FF FF 7F EF 01 05 01 2B  ...I.#J........+
0F30: EF 01 05 01 4A 80 23 6F  76 F0 FF FF 7F 29 10 F0  ....J.#ov....)..
0F40: FF FF 7F 1B 02 02 10 24  80 80 7E 0F 52 12 80 F0  .......$..~.R...
0F50: FF FF 7F F0 FF FF 7F 6D  31 30 32 45 12 80 F0 FF  .......m102E....
0F60: FF 7F F0 FF FF 7F 77 68  6D 35 07 80 66 4B 80 F0  ......whm5..fK..
0F70: FF FF 7F F0 FF FF 7F 74  6C 6B 30 01 14 11 02 02  .......tlk0.....
0F80: 10 25 80 80 B8 0F 52 12  80 F0 FF FF 7F F0 FF FF  .%....R.........
0F90: 7F 6D 31 30 32 45 12 80  F0 FF FF 7F F0 FF FF 7F  .m102E..........
0FA0: 77 68 6D 35 07 80 66 00  80 F0 FF FF 7F F0 FF FF  whm5..f.........
0FB0: 7F 74 6C 6B 30 01 14 11  02 02 10 26 80 80 F2 0F  .tlk0......&....
0FC0: 52 12 80 F0 FF FF 7F F0  FF FF 7F 6D 31 30 32 45  R..........m102E
0FD0: 12 80 F0 FF FF 7F F0 FF  FF 7F 77 65 6D 35 07 80  ..........wem5..
0FE0: 66 4C 80 F0 FF FF 7F F0  FF FF 7F 74 6C 6B 30 01  fL.........tlk0.
0FF0: 14 11 02 02 10 27 80 80  2C 10 52 12 80 F0 FF FF  .....'..,.R.....
1000: 7F F0 FF FF 7F 6D 31 30  32 45 12 80 F0 FF FF 7F  .....m102E......
1010: F0 FF FF 7F 77 65 6D 35  07 80 66 4D 80 F0 FF FF  ....wem5..fM....
1020: 7F F0 FF FF 7F 74 6C 6B  30 01 14 11 02 02 10 28  .....tlk0......(
1030: 80 80 66 10 52 12 80 F0  FF FF 7F F0 FF FF 7F 6D  ..f.R..........m
1040: 31 30 32 45 12 80 F0 FF  FF 7F F0 FF FF 7F 77 74  102E..........wt
1050: 72 35 07 80 66 4E 80 F0  FF FF 7F F0 FF FF 7F 74  r5..fN.........t
1060: 6C 6B 30 01 14 11 02 02  10 29 80 80 A0 10 52 12  lk0......)....R.
1070: 80 F0 FF FF 7F F0 FF FF  7F 6D 31 30 32 45 12 80  .........m102E..
1080: F0 FF FF 7F F0 FF FF 7F  77 74 72 35 07 80 66 4E  ........wtr5..fN
1090: 80 F0 FF FF 7F F0 FF FF  7F 74 6C 6B 30 01 14 11  .........tlk0...
10A0: 02 02 10 2A 80 80 DA 10  52 12 80 F0 FF FF 7F F0  ...*....R.......
10B0: FF FF 7F 6D 31 30 32 45  12 80 F0 FF FF 7F F0 FF  ...m102E........
10C0: FF 7F 77 6D 74 35 07 80  66 4F 80 F0 FF FF 7F F0  ..wmt5..fO......
10D0: FF FF 7F 74 6C 6B 30 01  14 11 02 02 10 2B 80 80  ...tlk0......+..
10E0: 14 11 52 12 80 F0 FF FF  7F F0 FF FF 7F 6D 31 30  ..R..........m10
10F0: 32 45 12 80 F0 FF FF 7F  F0 FF FF 7F 77 67 6C 35  2E..........wgl5
1100: 07 80 66 50 80 F0 FF FF  7F F0 FF FF 7F 74 6C 6B  ..fP.........tlk
1110: 30 01 14 11 1C 10 80 52  12 80 F0 FF FF 7F F0 FF  0......R........
1120: FF 7F 77 68 6D 35 52 12  80 F0 FF FF 7F F0 FF FF  ..whm5R.........
1130: 7F 77 68 6D 35 52 12 80  F0 FF FF 7F F0 FF FF 7F  .whm5R..........
1140: 77 65 6D 35 52 12 80 F0  FF FF 7F F0 FF FF 7F 77  wem5R..........w
1150: 65 6D 35 52 12 80 F0 FF  FF 7F F0 FF FF 7F 77 74  em5R..........wt
1160: 72 35 52 12 80 F0 FF FF  7F F0 FF FF 7F 77 6D 74  r5R..........wmt
1170: 35 52 12 80 F0 FF FF 7F  F0 FF FF 7F 77 67 6C 35  5R..........wgl5
1180: 45 12 80 F0 FF FF 7F F0  FF FF 7F 6D 31 30 34 07  E..........m104.
1190: 80 6B 69 64 6C 30 F0 FF  FF 7F 2B EF 01 05 01 51  .kidl0....+....Q
11A0: 80 23 2B EF 01 05 01 52  80 23 52 12 80 F0 FF FF  .#+....R.#R.....
11B0: 7F F0 FF FF 7F 6D 31 30  34 03 25 10 53 80 03 27  .....m104.%.S..'
11C0: 10 54 80 03 26 10 55 80  03 28 10 56 80 27 10 AE  .T..&.U..(.V.'..
11D0: 02 05 01 09 45 12 80 F0  FF FF 7F F0 FF FF 7F 6D  ....E..........m
11E0: 31 30 35 07 80 6E F0 FF  FF 7F 57 80 99 F0 FF FF  105..n....W.....
11F0: 7F 6E EF 01 05 01 58 80  99 EF 01 05 01 1C 10 80  .n....X.........
