# 0x7FFFFFF0 - Zone Events

## Common Data

| Field            | Value                            |
|------------------|----------------------------------|
| Zone             | Southern San d'Oria [S] (ID: 80) |
| Block Size       | 7324 bytes                       |
| Total Events     | 171                              |
| References Count | 239                              |

## List of Events

| Event ID                     | Entrypoint   |   Size |   Instructions |
|------------------------------|--------------|--------|----------------|
| [65535](#event-65535)        | 0x0000       |      1 |              1 |
| [65535.1](#event-655351)     | 0x0001       |     10 |              2 |
| [65534](#event-65534)        | 0x000B       |      1 |              1 |
| [65535.2](#event-655352)     | 0x000C       |     13 |              3 |
| [65535.3](#event-655353)     | 0x0019       |     14 |              4 |
| [65535.4](#event-655354)     | 0x0027       |     16 |              3 |
| [65535.5](#event-655355)     | 0x0037       |     20 |              5 |
| [65535.6](#event-655356)     | 0x004B       |     16 |              3 |
| [65535.7](#event-655357)     | 0x005B       |     16 |              3 |
| [65535.8](#event-655358)     | 0x006B       |     14 |              4 |
| [65535.9](#event-655359)     | 0x0079       |     10 |              2 |
| [65535.10](#event-6553510)   | 0x0083       |     24 |              5 |
| [65535.11](#event-6553511)   | 0x009B       |     24 |              5 |
| [65535.12](#event-6553512)   | 0x00B3       |     23 |              6 |
| [65535.13](#event-6553513)   | 0x00CA       |     27 |              6 |
| [65535.14](#event-6553514)   | 0x00E5       |     10 |              2 |
| [65535.15](#event-6553515)   | 0x00EF       |     14 |              4 |
| [65535.16](#event-6553516)   | 0x00FD       |      6 |              2 |
| [65535.17](#event-6553517)   | 0x0103       |      6 |              2 |
| [65535.18](#event-6553518)   | 0x0109       |     20 |              6 |
| [65535.19](#event-6553519)   | 0x011D       |     20 |              6 |
| [65535.20](#event-6553520)   | 0x0131       |     35 |              9 |
| [65535.21](#event-6553521)   | 0x0154       |     35 |              9 |
| [65535.22](#event-6553522)   | 0x0177       |      3 |              2 |
| [512](#event-512)            | 0x017A       |    503 |            109 |
| [65535.23](#event-6553523)   | 0x0371       |     38 |              7 |
| [65535.24](#event-6553524)   | 0x0397       |     15 |              5 |
| [65535.25](#event-6553525)   | 0x03A6       |      6 |              2 |
| [65535.26](#event-6553526)   | 0x03AC       |      6 |              2 |
| [65535.27](#event-6553527)   | 0x03B2       |     24 |              4 |
| [65535.28](#event-6553528)   | 0x03CA       |     24 |              4 |
| [65535.29](#event-6553529)   | 0x03E2       |     38 |              5 |
| [65535.30](#event-6553530)   | 0x0408       |     38 |              5 |
| [65535.31](#event-6553531)   | 0x042E       |     38 |              5 |
| [65535.32](#event-6553532)   | 0x0454       |     15 |              5 |
| [65535.33](#event-6553533)   | 0x0463       |     15 |              5 |
| [65535.34](#event-6553534)   | 0x0472       |     12 |              3 |
| [65535.35](#event-6553535)   | 0x047E       |     12 |              3 |
| [65535.36](#event-6553536)   | 0x048A       |     37 |              5 |
| [65535.37](#event-6553537)   | 0x04AF       |     37 |              5 |
| [65535.38](#event-6553538)   | 0x04D4       |     42 |              6 |
| [65535.39](#event-6553539)   | 0x04FE       |      9 |              3 |
| [65535.40](#event-6553540)   | 0x0507       |     25 |              7 |
| [65535.41](#event-6553541)   | 0x0520       |     37 |              5 |
| [65535.42](#event-6553542)   | 0x0545       |     37 |              5 |
| [65535.43](#event-6553543)   | 0x056A       |      7 |              3 |
| [65535.44](#event-6553544)   | 0x0571       |      7 |              3 |
| [65535.45](#event-6553545)   | 0x0578       |     13 |              3 |
| [65535.46](#event-6553546)   | 0x0585       |     27 |              5 |
| [65535.47](#event-6553547)   | 0x05A0       |      6 |              2 |
| [65535.48](#event-6553548)   | 0x05A6       |    170 |             40 |
| [65535.49](#event-6553549)   | 0x0650       |     20 |              5 |
| [65535.50](#event-6553550)   | 0x0664       |     20 |              5 |
| [65535.51](#event-6553551)   | 0x0678       |     21 |              5 |
| [65535.52](#event-6553552)   | 0x068D       |     30 |              4 |
| [65535.53](#event-6553553)   | 0x06AB       |     30 |              4 |
| [65535.54](#event-6553554)   | 0x06C9       |     30 |              4 |
| [65535.55](#event-6553555)   | 0x06E7       |     30 |              4 |
| [65535.56](#event-6553556)   | 0x0705       |     30 |              4 |
| [65535.57](#event-6553557)   | 0x0723       |     21 |              5 |
| [65535.58](#event-6553558)   | 0x0738       |      7 |              2 |
| [65535.59](#event-6553559)   | 0x073F       |     21 |              5 |
| [65535.60](#event-6553560)   | 0x0754       |     11 |              3 |
| [65535.61](#event-6553561)   | 0x075F       |     12 |              3 |
| [65535.62](#event-6553562)   | 0x076B       |     16 |              3 |
| [65535.63](#event-6553563)   | 0x077B       |     16 |              3 |
| [65535.64](#event-6553564)   | 0x078B       |     38 |              5 |
| [65535.65](#event-6553565)   | 0x07B1       |     38 |              5 |
| [65535.66](#event-6553566)   | 0x07D7       |     38 |              5 |
| [65535.67](#event-6553567)   | 0x07FD       |     24 |              5 |
| [169](#event-169)            | 0x0815       |      1 |              1 |
| [65535.68](#event-6553568)   | 0x0816       |     14 |              4 |
| [65535.69](#event-6553569)   | 0x0824       |     23 |              7 |
| [65535.70](#event-6553570)   | 0x083B       |     16 |              6 |
| [65535.71](#event-6553571)   | 0x084B       |     37 |              5 |
| [65535.72](#event-6553572)   | 0x0870       |     78 |              8 |
| [65535.73](#event-6553573)   | 0x08BE       |     40 |              6 |
| [65535.74](#event-6553574)   | 0x08E6       |     37 |              5 |
| [65535.75](#event-6553575)   | 0x090B       |    113 |             11 |
| [65535.76](#event-6553576)   | 0x097C       |     90 |             10 |
| [65535.77](#event-6553577)   | 0x09D6       |    107 |             11 |
| [65535.78](#event-6553578)   | 0x0A41       |    148 |             14 |
| [65535.79](#event-6553579)   | 0x0AD5       |     73 |              7 |
| [65535.80](#event-6553580)   | 0x0B1E       |    148 |             14 |
| [65535.81](#event-6553581)   | 0x0BB2       |    107 |             11 |
| [65535.82](#event-6553582)   | 0x0C1D       |     72 |              8 |
| [65535.83](#event-6553583)   | 0x0C65       |    107 |             11 |
| [65535.84](#event-6553584)   | 0x0CD0       |    278 |             30 |
| [65535.85](#event-6553585)   | 0x0DE6       |     10 |              2 |
| [65535.86](#event-6553586)   | 0x0DF0       |     10 |              2 |
| [65535.87](#event-6553587)   | 0x0DFA       |     10 |              2 |
| [65535.88](#event-6553588)   | 0x0E04       |     10 |              2 |
| [65535.89](#event-6553589)   | 0x0E0E       |     10 |              2 |
| [65535.90](#event-6553590)   | 0x0E18       |     10 |              2 |
| [65535.91](#event-6553591)   | 0x0E22       |     10 |              2 |
| [65535.92](#event-6553592)   | 0x0E2C       |     10 |              2 |
| [65535.93](#event-6553593)   | 0x0E36       |     10 |              2 |
| [65535.94](#event-6553594)   | 0x0E40       |     10 |              2 |
| [65535.95](#event-6553595)   | 0x0E4A       |     10 |              2 |
| [65535.96](#event-6553596)   | 0x0E54       |     10 |              2 |
| [65535.97](#event-6553597)   | 0x0E5E       |     10 |              2 |
| [65535.98](#event-6553598)   | 0x0E68       |     10 |              2 |
| [65535.99](#event-6553599)   | 0x0E72       |     10 |              2 |
| [65535.100](#event-65535100) | 0x0E7C       |     10 |              2 |
| [65535.101](#event-65535101) | 0x0E86       |     10 |              2 |
| [65535.102](#event-65535102) | 0x0E90       |     10 |              2 |
| [65535.103](#event-65535103) | 0x0E9A       |     10 |              2 |
| [65535.104](#event-65535104) | 0x0EA4       |     10 |              2 |
| [65535.105](#event-65535105) | 0x0EAE       |     10 |              2 |
| [65535.106](#event-65535106) | 0x0EB8       |     10 |              2 |
| [65535.107](#event-65535107) | 0x0EC2       |     10 |              2 |
| [65535.108](#event-65535108) | 0x0ECC       |     10 |              2 |
| [65535.109](#event-65535109) | 0x0ED6       |     49 |             11 |
| [65535.110](#event-65535110) | 0x0F07       |     20 |              6 |
| [65535.111](#event-65535111) | 0x0F1B       |     10 |              2 |
| [65535.112](#event-65535112) | 0x0F25       |     16 |              3 |
| [65535.113](#event-65535113) | 0x0F35       |     16 |              3 |
| [149](#event-149)            | 0x0F45       |      1 |              1 |
| [65535.114](#event-65535114) | 0x0F46       |     31 |              7 |
| [65535.115](#event-65535115) | 0x0F65       |     17 |              5 |
| [65535.116](#event-65535116) | 0x0F76       |     17 |              5 |
| [65535.117](#event-65535117) | 0x0F87       |     26 |              6 |
| [65535.118](#event-65535118) | 0x0FA1       |     23 |              5 |
| [65535.119](#event-65535119) | 0x0FB8       |     34 |              7 |
| [65535.120](#event-65535120) | 0x0FDA       |     24 |              6 |
| [65535.121](#event-65535121) | 0x0FF2       |     14 |              4 |
| [65535.122](#event-65535122) | 0x1000       |     17 |              5 |
| [65535.123](#event-65535123) | 0x1011       |     14 |              4 |
| [65535.124](#event-65535124) | 0x101F       |     10 |              2 |
| [65535.125](#event-65535125) | 0x1029       |     10 |              2 |
| [65535.126](#event-65535126) | 0x1033       |      4 |              2 |
| [65535.127](#event-65535127) | 0x1037       |     22 |              6 |
| [65535.128](#event-65535128) | 0x104D       |     22 |              6 |
| [65535.129](#event-65535129) | 0x1063       |     22 |              6 |
| [65535.130](#event-65535130) | 0x1079       |     22 |              6 |
| [65535.131](#event-65535131) | 0x108F       |     16 |              4 |
| [65535.132](#event-65535132) | 0x109F       |     20 |              5 |
| [65535.133](#event-65535133) | 0x10B3       |     39 |              7 |
| [65535.134](#event-65535134) | 0x10DA       |      8 |              2 |
| [65535.135](#event-65535135) | 0x10E2       |     29 |              6 |
| [65535.136](#event-65535136) | 0x10FF       |     20 |              5 |
| [65535.137](#event-65535137) | 0x1113       |     29 |              6 |
| [65535.138](#event-65535138) | 0x1130       |     30 |              6 |
| [65535.139](#event-65535139) | 0x114E       |     29 |              6 |
| [65535.140](#event-65535140) | 0x116B       |     40 |              9 |
| [65535.141](#event-65535141) | 0x1193       |     29 |              6 |
| [65535.142](#event-65535142) | 0x11B0       |     20 |              5 |
| [65535.143](#event-65535143) | 0x11C4       |     20 |              5 |
| [65535.144](#event-65535144) | 0x11D8       |     29 |              6 |
| [65535.145](#event-65535145) | 0x11F5       |     24 |              4 |
| [65535.146](#event-65535146) | 0x120D       |     24 |              4 |
| [65535.147](#event-65535147) | 0x1225       |     24 |              4 |
| [65535.148](#event-65535148) | 0x123D       |     24 |              4 |
| [65535.149](#event-65535149) | 0x1255       |     20 |              5 |
| [65535.150](#event-65535150) | 0x1269       |     49 |              9 |
| [65535.151](#event-65535151) | 0x129A       |     24 |              5 |
| [65535.152](#event-65535152) | 0x12B2       |     21 |              2 |
| [65535.153](#event-65535153) | 0x12C7       |     21 |              2 |
| [65535.154](#event-65535154) | 0x12DC       |     21 |              2 |
| [65535.155](#event-65535155) | 0x12F1       |     21 |              2 |
| [65535.156](#event-65535156) | 0x1306       |     21 |              2 |
| [65535.157](#event-65535157) | 0x131B       |     21 |              2 |
| [65535.158](#event-65535158) | 0x1330       |     21 |              2 |
| [65535.159](#event-65535159) | 0x1345       |     10 |              2 |
| [65535.160](#event-65535160) | 0x134F       |      5 |              2 |
| [65535.161](#event-65535161) | 0x1354       |      5 |              2 |
| [65535.162](#event-65535162) | 0x1359       |      5 |              2 |
| [65535.163](#event-65535163) | 0x135E       |      5 |              2 |
| [65535.164](#event-65535164) | 0x1363       |    345 |             33 |
| [65535.165](#event-65535165) | 0x14BC       |    345 |             33 |
| [65535.166](#event-65535166) | 0x1615       |     14 |              4 |

## DAT References (imed_data)

|   Index | Hex Value   |   Dec Value |
|---------|-------------|-------------|
|       0 | 0x009A      |         154 |
|       1 | 0xFFFFF98B  |  4294965643 |
|       2 | 0x0000      |           0 |
|       3 | 0x0B83      |        2947 |
|       4 | 0x1A096     |      106646 |
|       5 | 0xFFFF3A4D  |  4294916685 |
|       6 | 0x0200      |         512 |
|       7 | 0x000D      |          13 |
|       8 | 0x1B561     |      111969 |
|       9 | 0xFFFF256A  |  4294911338 |
|      10 | 0xFFFE206C  |  4294844524 |
|      11 | 0x43F8      |       17400 |
|      12 | 0xFFFFF830  |  4294965296 |
|      13 | 0x0565      |        1381 |
|      14 | 0xFFFE1C10  |  4294843408 |
|      15 | 0x3DA3      |       15779 |
|      16 | 0xFFFFF831  |  4294965297 |
|      17 | 0x0518      |        1304 |
|      18 | 0xFFFCCBF9  |  4294757369 |
|      19 | 0xFCF0      |       64752 |
|      20 | 0xFFFFF47B  |  4294964347 |
|      21 | 0x07DD      |        2013 |
|      22 | 0xFFFCC19C  |  4294754716 |
|      23 | 0xFC6F      |       64623 |
|      24 | 0xFFFCFEB4  |  4294770356 |
|      25 | 0x1099C     |       67996 |
|      26 | 0x03D4      |         980 |
|      27 | 0x0007      |           7 |
|      28 | 0x0006      |           6 |
|      29 | 0x001E      |          30 |
|      30 | 0xFFFE1CEC  |  4294843628 |
|      31 | 0x30D0      |       12496 |
|      32 | 0xFFFFF449  |  4294964297 |
|      33 | 0x005A      |          90 |
|      34 | 0x001A      |          26 |
|      35 | 0xFFFE1C6E  |  4294843502 |
|      36 | 0x3353      |       13139 |
|      37 | 0xFFFFF510  |  4294964496 |
|      38 | 0x0C00      |        3072 |
|      39 | 0x195FF     |      103935 |
|      40 | 0xFFFF4AE0  |  4294920928 |
|      41 | 0x03E7      |         999 |
|      42 | 0x2403B     |      147515 |
|      43 | 0x937B      |       37755 |
|      44 | 0x0028      |          40 |
|      45 | 0x0001      |           1 |
|      46 | 0x2C0B      |       11275 |
|      47 | 0x2C0C      |       11276 |
|      48 | 0x0002      |           2 |
|      49 | 0x0003      |           3 |
|      50 | 0x2C0E      |       11278 |
|      51 | 0x2C0D      |       11277 |
|      52 | 0x43F5      |       17397 |
|      53 | 0x2C0F      |       11279 |
|      54 | 0x2C10      |       11280 |
|      55 | 0x2C11      |       11281 |
|      56 | 0x4269      |       17001 |
|      57 | 0x2C12      |       11282 |
|      58 | 0x2C13      |       11283 |
|      59 | 0xFFFE8805  |  4294871045 |
|      60 | 0x10347     |       66375 |
|      61 | 0xFFFFE891  |  4294961297 |
|      62 | 0x0D2D      |        3373 |
|      63 | 0xFFFE837A  |  4294869882 |
|      64 | 0x115AF     |       71087 |
|      65 | 0xFFFE9EBA  |  4294876858 |
|      66 | 0xB700      |       46848 |
|      67 | 0xFFFFF060  |  4294963296 |
|      68 | 0x0008      |           8 |
|      69 | 0x0091      |         145 |
|      70 | 0x004F      |          79 |
|      71 | 0x004C      |          76 |
|      72 | 0x00C9      |         201 |
|      73 | 0x0018      |          24 |
|      74 | 0x0020      |          32 |
|      75 | 0x0030      |          48 |
|      76 | 0x0005      |           5 |
|      77 | 0x0040      |          64 |
|      78 | 0x000B      |          11 |
|      79 | 0x123D1     |       74705 |
|      80 | 0xFFFFB6A5  |  4294948517 |
|      81 | 0x07CF      |        1999 |
|      82 | 0x11FEB     |       73707 |
|      83 | 0xFFFFC1DB  |  4294951387 |
|      84 | 0x15260     |       86624 |
|      85 | 0x1C1B2     |      115122 |
|      86 | 0x03E8      |        1000 |
|      87 | 0x0AAA      |        2730 |
|      88 | 0x150E9     |       86249 |
|      89 | 0x1C52A     |      116010 |
|      90 | 0x0A8D      |        2701 |
|      91 | 0x003C      |          60 |
|      92 | 0x002D      |          45 |
|      93 | 0x182BF     |       99007 |
|      94 | 0x19518     |      103704 |
|      95 | 0x17D6F     |       97647 |
|      96 | 0x19C71     |      105585 |
|      97 | 0x00C7      |         199 |
|      98 | 0x002B      |          43 |
|      99 | 0xFFFF8172  |  4294934898 |
|     100 | 0x63C2      |       25538 |
|     101 | 0x000A      |          10 |
|     102 | 0x0009      |           9 |
|     103 | 0x0046      |          70 |
|     104 | 0x008C      |         140 |
|     105 | 0x00D2      |         210 |
|     106 | 0xFFFD7FE8  |  4294803432 |
|     107 | 0xEDFB      |       60923 |
|     108 | 0xFFFD7F55  |  4294803285 |
|     109 | 0xF7D0      |       63440 |
|     110 | 0xFFFF2465  |  4294911077 |
|     111 | 0xFFFFD9C0  |  4294957504 |
|     112 | 0x0004      |           4 |
|     113 | 0x17CCF     |       97487 |
|     114 | 0xFFFF57CA  |  4294924234 |
|     115 | 0x167A5     |       92069 |
|     116 | 0x1BA3B     |      113211 |
|     117 | 0x1736E     |       95086 |
|     118 | 0x1AF25     |      110373 |
|     119 | 0x0080      |         128 |
|     120 | 0x0050      |          80 |
|     121 | 0x0060      |          96 |
|     122 | 0xFFFFF862  |  4294965346 |
|     123 | 0xFFFFB212  |  4294947346 |
|     124 | 0x16187     |       90503 |
|     125 | 0x184AF     |       99503 |
|     126 | 0x0023      |          35 |
|     127 | 0xFFFFC601  |  4294952449 |
|     128 | 0xFFFFB26E  |  4294947438 |
|     129 | 0x0096      |         150 |
|     130 | 0x0010      |          16 |
|     131 | 0x0099      |         153 |
|     132 | 0x0078      |         120 |
|     133 | 0x00B4      |         180 |
|     134 | 0x01F5      |         501 |
|     135 | 0x00F0      |         240 |
|     136 | 0x0032      |          50 |
|     137 | 0x012C      |         300 |
|     138 | 0x000F      |          15 |
|     139 | 0x19FCD     |      106445 |
|     140 | 0xFFFF3BCB  |  4294917067 |
|     141 | 0x19A6D     |      105069 |
|     142 | 0xFFFF4170  |  4294918512 |
|     143 | 0x1954E     |      103758 |
|     144 | 0xFFFF4635  |  4294919733 |
|     145 | 0x0025      |          37 |
|     146 | 0xF83A      |       63546 |
|     147 | 0xFFFF9D9F  |  4294942111 |
|     148 | 0x0056      |          86 |
|     149 | 0x050A      |        1290 |
|     150 | 0xAC3C      |       44092 |
|     151 | 0xFFFFC12B  |  4294951211 |
|     152 | 0xFFFFF253  |  4294963795 |
|     153 | 0xFFFFB158  |  4294947160 |
|     154 | 0xFFFFF1B5  |  4294963637 |
|     155 | 0xFFFFA7CA  |  4294944714 |
|     156 | 0xFFFFF322  |  4294964002 |
|     157 | 0xFFFFA86D  |  4294944877 |
|     158 | 0xFFFFF529  |  4294964521 |
|     159 | 0x0064      |         100 |
|     160 | 0x0190      |         400 |
|     161 | 0x001D      |          29 |
|     162 | 0x0364      |         868 |
|     163 | 0x1A5AE     |      107950 |
|     164 | 0x0319      |         793 |
|     165 | 0x19383     |      103299 |
|     166 | 0xFFFFFCB0  |  4294966448 |
|     167 | 0x1952D     |      103725 |
|     168 | 0xFFFFFC49  |  4294966345 |
|     169 | 0x3CE2      |       15586 |
|     170 | 0x14B3B     |       84795 |
|     171 | 0xFFFFFF39  |  4294967097 |
|     172 | 0x4516      |       17686 |
|     173 | 0x142EF     |       82671 |
|     174 | 0x08CF      |        2255 |
|     175 | 0xA4CC      |       42188 |
|     176 | 0xFFFF9B6C  |  4294941548 |
|     177 | 0xFFFFE952  |  4294961490 |
|     178 | 0xFFFFDCC5  |  4294958277 |
|     179 | 0xFFFFF344  |  4294964036 |
|     180 | 0xFFFFECE4  |  4294962404 |
|     181 | 0xFFFFFF01  |  4294967041 |
|     182 | 0x006E      |         110 |
|     183 | 0x0015      |          21 |
|     184 | 0x18A78     |      100984 |
|     185 | 0x2006F     |      131183 |
|     186 | 0xFFFFFF9B  |  4294967195 |
|     187 | 0x18B54     |      101204 |
|     188 | 0x1C435     |      115765 |
|     189 | 0xFFFFE958  |  4294961496 |
|     190 | 0x18D1A     |      101658 |
|     191 | 0x1C2E4     |      115428 |
|     192 | 0x18D2D     |      101677 |
|     193 | 0x18DC2     |      101826 |
|     194 | 0x16FFA     |       94202 |
|     195 | 0x1ADEF     |      110063 |
|     196 | 0x15F3D     |       89917 |
|     197 | 0x1E0DA     |      123098 |
|     198 | 0x1646C     |       91244 |
|     199 | 0x1D3C2     |      119746 |
|     200 | 0x1C806     |      116742 |
|     201 | 0x166FE     |       91902 |
|     202 | 0x185FA     |       99834 |
|     203 | 0x1995B     |      104795 |
|     204 | 0x18E97     |      102039 |
|     205 | 0x198A2     |      104610 |
|     206 | 0x1B7F6     |      112630 |
|     207 | 0x194C1     |      103617 |
|     208 | 0x1B3B2     |      111538 |
|     209 | 0x1AA00     |      109056 |
|     210 | 0x1B065     |      110693 |
|     211 | 0x1ACCE     |      109774 |
|     212 | 0x171C1     |       94657 |
|     213 | 0x1ED71     |      126321 |
|     214 | 0x16CB9     |       93369 |
|     215 | 0x1F27A     |      127610 |
|     216 | 0x177F6     |       96246 |
|     217 | 0x18C6E     |      101486 |
|     218 | 0x16545     |       91461 |
|     219 | 0x1B87D     |      112765 |
|     220 | 0x1628B     |       90763 |
|     221 | 0x1C00C     |      114700 |
|     222 | 0x15748     |       87880 |
|     223 | 0x1C50E     |      115982 |
|     224 | 0xFFFD7117  |  4294799639 |
|     225 | 0xE577      |       58743 |
|     226 | 0x040C      |        1036 |
|     227 | 0x0057      |          87 |
|     228 | 0x005D      |          93 |
|     229 | 0x008D      |         141 |
|     230 | 0x0F26      |        3878 |
|     231 | 0x0097      |         151 |
|     232 | 0x00A1      |         161 |
|     233 | 0x00AB      |         171 |
|     234 | 0x00B5      |         181 |
|     235 | 0x00BF      |         191 |
|     236 | 0x21893     |      137363 |
|     237 | 0x19C55     |      105557 |
|     238 | 0xFFFFF769  |  4294965097 |

## Events

### Event 65535

#### Metadata

| Field        | Value   |
|--------------|---------|
| Entrypoint   | 0x0000  |
| Data Size    | 1 bytes |
| Instructions | 1       |

```
      00 01 02 03 04 05 06 07  08 09 0A 0B 0C 0D 0E 0F
      -- -- -- -- -- -- -- --  -- -- -- -- -- -- -- --
0000: 00                                                .               
```

#### Opcodes

```
  0: 0x0000 [0x00] END_REQSTACK()
```

### Event 65535.1

#### Metadata

| Field        | Value    |
|--------------|----------|
| Entrypoint   | 0x0001   |
| Data Size    | 10 bytes |
| Instructions | 2        |

```
      00 01 02 03 04 05 06 07  08 09 0A 0B 0C 0D 0E 0F
      -- -- -- -- -- -- -- --  -- -- -- -- -- -- -- --
0000:    37 00 80 01 80 02 80  03 80 00                  7.........     
```

#### Opcodes

```
  0: 0x0001 [0x37] UPDATE_EVENT_POSITION_AND_DIR: x=0.154*, z=-1.653*, y=0.000*, direction=259.0°*
  1: 0x000A [0x00] END_REQSTACK()
```

### Event 65534

#### Metadata

| Field        | Value   |
|--------------|---------|
| Entrypoint   | 0x000B  |
| Data Size    | 1 bytes |
| Instructions | 1       |

```
      00 01 02 03 04 05 06 07  08 09 0A 0B 0C 0D 0E 0F
      -- -- -- -- -- -- -- --  -- -- -- -- -- -- -- --
0000:                                   00                         .    
```

#### Opcodes

```
  0: 0x000B [0x00] END_REQSTACK()
```

### Event 65535.2

#### Metadata

| Field        | Value    |
|--------------|----------|
| Entrypoint   | 0x000C   |
| Data Size    | 13 bytes |
| Instructions | 3        |

```
      00 01 02 03 04 05 06 07  08 09 0A 0B 0C 0D 0E 0F
      -- -- -- -- -- -- -- --  -- -- -- -- -- -- -- --
0000:                                      47 00 04 80              G...
0010: 05 80 02 80 06 80 47 01  00                       ......G..       
```

#### Opcodes

```
  0: 0x000C [0x47] UPDATE_PLAYER_POS(106.646*, -50.611*, 0.000*, yaw=45.0°*)
  1: 0x0016 [0x47] WAIT_PLAYER_POS_UPDATE
  2: 0x0018 [0x00] END_REQSTACK()
```

### Event 65535.3

#### Metadata

| Field        | Value    |
|--------------|----------|
| Entrypoint   | 0x0019   |
| Data Size    | 14 bytes |
| Instructions | 4        |

```
      00 01 02 03 04 05 06 07  08 09 0A 0B 0C 0D 0E 0F
      -- -- -- -- -- -- -- --  -- -- -- -- -- -- -- --
0010:                             32 07 80 1F 00 08 80           2......
0020: 09 80 02 80 1F 01 00                              .......         
```

#### Opcodes

```
  0: 0x0019 [0x32] ExtData[1]->MainSpeed = 13* * 0.1
  1: 0x001C [0x1F] MOVE_ENTITY: EventEntity moves to X=111.969*, Z=-55.958*, Y=0.000*
  2: 0x0024 [0x1F] MOVE_ENTITY: Update entity position (mode=1)
  3: 0x0026 [0x00] END_REQSTACK()
```

### Event 65535.4

#### Metadata

| Field        | Value    |
|--------------|----------|
| Entrypoint   | 0x0027   |
| Data Size    | 16 bytes |
| Instructions | 3        |

```
      00 01 02 03 04 05 06 07  08 09 0A 0B 0C 0D 0E 0F
      -- -- -- -- -- -- -- --  -- -- -- -- -- -- -- --
0020:                      92  01 F0 FF FF 7F 37 0A 80         ......7..
0030: 0B 80 0C 80 0D 80 00                              .......         
```

#### Opcodes

```
  0: 0x0027 [0x92] LocalPlayer->Render.Flags3 ^= 0x01
  1: 0x002D [0x37] UPDATE_EVENT_POSITION_AND_DIR: x=-122.772*, z=17.400*, y=-2.000*, direction=121.4°*
  2: 0x0036 [0x00] END_REQSTACK()
```

### Event 65535.5

#### Metadata

| Field        | Value    |
|--------------|----------|
| Entrypoint   | 0x0037   |
| Data Size    | 20 bytes |
| Instructions | 5        |

```
      00 01 02 03 04 05 06 07  08 09 0A 0B 0C 0D 0E 0F
      -- -- -- -- -- -- -- --  -- -- -- -- -- -- -- --
0030:                      92  01 F0 FF FF 7F 32 07 80         ......2..
0040: 1F 00 0E 80 0F 80 10 80  1F 01 00                 ...........     
```

#### Opcodes

```
  0: 0x0037 [0x92] LocalPlayer->Render.Flags3 ^= 0x01
  1: 0x003D [0x32] ExtData[1]->MainSpeed = 13* * 0.1
  2: 0x0040 [0x1F] MOVE_ENTITY: EventEntity moves to X=-123.888*, Z=15.779*, Y=-1.999*
  3: 0x0048 [0x1F] MOVE_ENTITY: Update entity position (mode=1)
  4: 0x004A [0x00] END_REQSTACK()
```

### Event 65535.6

#### Metadata

| Field        | Value    |
|--------------|----------|
| Entrypoint   | 0x004B   |
| Data Size    | 16 bytes |
| Instructions | 3        |

```
      00 01 02 03 04 05 06 07  08 09 0A 0B 0C 0D 0E 0F
      -- -- -- -- -- -- -- --  -- -- -- -- -- -- -- --
0040:                                   92 01 F0 FF FF             .....
0050: 7F 37 0E 80 0F 80 10 80  11 80 00                 .7.........     
```

#### Opcodes

```
  0: 0x004B [0x92] LocalPlayer->Render.Flags3 ^= 0x01
  1: 0x0051 [0x37] UPDATE_EVENT_POSITION_AND_DIR: x=-123.888*, z=15.779*, y=-1.999*, direction=114.6°*
  2: 0x005A [0x00] END_REQSTACK()
```

### Event 65535.7

#### Metadata

| Field        | Value    |
|--------------|----------|
| Entrypoint   | 0x005B   |
| Data Size    | 16 bytes |
| Instructions | 3        |

```
      00 01 02 03 04 05 06 07  08 09 0A 0B 0C 0D 0E 0F
      -- -- -- -- -- -- -- --  -- -- -- -- -- -- -- --
0050:                                   92 01 F0 FF FF             .....
0060: 7F 37 12 80 13 80 14 80  15 80 00                 .7.........     
```

#### Opcodes

```
  0: 0x005B [0x92] LocalPlayer->Render.Flags3 ^= 0x01
  1: 0x0061 [0x37] UPDATE_EVENT_POSITION_AND_DIR: x=-209.927*, z=64.752*, y=-2.949*, direction=176.9°*
  2: 0x006A [0x00] END_REQSTACK()
```

### Event 65535.8

#### Metadata

| Field        | Value    |
|--------------|----------|
| Entrypoint   | 0x006B   |
| Data Size    | 14 bytes |
| Instructions | 4        |

```
      00 01 02 03 04 05 06 07  08 09 0A 0B 0C 0D 0E 0F
      -- -- -- -- -- -- -- --  -- -- -- -- -- -- -- --
0060:                                   32 07 80 1F 00             2....
0070: 16 80 17 80 14 80 1F 01  00                       .........       
```

#### Opcodes

```
  0: 0x006B [0x32] ExtData[1]->MainSpeed = 13* * 0.1
  1: 0x006E [0x1F] MOVE_ENTITY: EventEntity moves to X=-212.580*, Z=64.623*, Y=-2.949*
  2: 0x0076 [0x1F] MOVE_ENTITY: Update entity position (mode=1)
  3: 0x0078 [0x00] END_REQSTACK()
```

### Event 65535.9

#### Metadata

| Field        | Value    |
|--------------|----------|
| Entrypoint   | 0x0079   |
| Data Size    | 10 bytes |
| Instructions | 2        |

```
      00 01 02 03 04 05 06 07  08 09 0A 0B 0C 0D 0E 0F
      -- -- -- -- -- -- -- --  -- -- -- -- -- -- -- --
0070:                             37 18 80 19 80 0C 80           7......
0080: 1A 80 00                                          ...             
```

#### Opcodes

```
  0: 0x0079 [0x37] UPDATE_EVENT_POSITION_AND_DIR: x=-196.940*, z=67.996*, y=-2.000*, direction=86.1°*
  1: 0x0082 [0x00] END_REQSTACK()
```

### Event 65535.10

#### Metadata

| Field        | Value    |
|--------------|----------|
| Entrypoint   | 0x0083   |
| Data Size    | 24 bytes |
| Instructions | 5        |

```
      00 01 02 03 04 05 06 07  08 09 0A 0B 0C 0D 0E 0F
      -- -- -- -- -- -- -- --  -- -- -- -- -- -- -- --
0080:          92 01 F0 FF FF  7F 6E F0 FF FF 7F 1B 80     ......n......
0090: 99 F0 FF FF 7F 99 F0 FF  FF 7F 00                 ...........     
```

#### Opcodes

```
  0: 0x0083 [0x92] LocalPlayer->Render.Flags3 ^= 0x01
  1: 0x0089 [0x6E] LocalPlayer uses emote 7*
  2: 0x0090 [0x99] Wait for LocalPlayer animation to complete
  3: 0x0095 [0x99] Wait for LocalPlayer animation to complete
  4: 0x009A [0x00] END_REQSTACK()
```

### Event 65535.11

#### Metadata

| Field        | Value    |
|--------------|----------|
| Entrypoint   | 0x009B   |
| Data Size    | 24 bytes |
| Instructions | 5        |

```
      00 01 02 03 04 05 06 07  08 09 0A 0B 0C 0D 0E 0F
      -- -- -- -- -- -- -- --  -- -- -- -- -- -- -- --
0090:                                   92 01 F0 FF FF             .....
00A0: 7F 6E F0 FF FF 7F 1C 80  99 F0 FF FF 7F 99 F0 FF  .n..............
00B0: FF 7F 00                                          ...             
```

#### Opcodes

```
  0: 0x009B [0x92] LocalPlayer->Render.Flags3 ^= 0x01
  1: 0x00A1 [0x6E] LocalPlayer uses emote 6*
  2: 0x00A8 [0x99] Wait for LocalPlayer animation to complete
  3: 0x00AD [0x99] Wait for LocalPlayer animation to complete
  4: 0x00B2 [0x00] END_REQSTACK()
```

### Event 65535.12

#### Metadata

| Field        | Value    |
|--------------|----------|
| Entrypoint   | 0x00B3   |
| Data Size    | 23 bytes |
| Instructions | 6        |

```
      00 01 02 03 04 05 06 07  08 09 0A 0B 0C 0D 0E 0F
      -- -- -- -- -- -- -- --  -- -- -- -- -- -- -- --
00B0:          92 01 F0 FF FF  7F 1C 1D 80 32 07 80 1F     .........2...
00C0: 00 1E 80 1F 80 20 80 1F  01 00                    ..... ....      
```

#### Opcodes

```
  0: 0x00B3 [0x92] LocalPlayer->Render.Flags3 ^= 0x01
  1: 0x00B9 [0x1C] WAIT(30* ticks)
  2: 0x00BC [0x32] ExtData[1]->MainSpeed = 13* * 0.1
  3: 0x00BF [0x1F] MOVE_ENTITY: EventEntity moves to X=-123.668*, Z=12.496*, Y=-2.999*
  4: 0x00C7 [0x1F] MOVE_ENTITY: Update entity position (mode=1)
  5: 0x00C9 [0x00] END_REQSTACK()
```

### Event 65535.13

#### Metadata

| Field        | Value    |
|--------------|----------|
| Entrypoint   | 0x00CA   |
| Data Size    | 27 bytes |
| Instructions | 6        |

```
      00 01 02 03 04 05 06 07  08 09 0A 0B 0C 0D 0E 0F
      -- -- -- -- -- -- -- --  -- -- -- -- -- -- -- --
00C0:                                92 01 F0 FF FF 7F            ......
00D0: 1C 21 80 6E F0 FF FF 7F  22 80 99 F0 FF FF 7F 99  .!.n....".......
00E0: F0 FF FF 7F 00                                    .....           
```

#### Opcodes

```
  0: 0x00CA [0x92] LocalPlayer->Render.Flags3 ^= 0x01
  1: 0x00D0 [0x1C] WAIT(90* ticks)
  2: 0x00D3 [0x6E] LocalPlayer uses emote 26*
  3: 0x00DA [0x99] Wait for LocalPlayer animation to complete
  4: 0x00DF [0x99] Wait for LocalPlayer animation to complete
  5: 0x00E4 [0x00] END_REQSTACK()
```

### Event 65535.14

#### Metadata

| Field        | Value    |
|--------------|----------|
| Entrypoint   | 0x00E5   |
| Data Size    | 10 bytes |
| Instructions | 2        |

```
      00 01 02 03 04 05 06 07  08 09 0A 0B 0C 0D 0E 0F
      -- -- -- -- -- -- -- --  -- -- -- -- -- -- -- --
00E0:                37 23 80  24 80 25 80 26 80 00          7#.$.%.&.. 
```

#### Opcodes

```
  0: 0x00E5 [0x37] UPDATE_EVENT_POSITION_AND_DIR: x=-123.794*, z=13.139*, y=-2.800*, direction=270.0°*
  1: 0x00EE [0x00] END_REQSTACK()
```

### Event 65535.15

#### Metadata

| Field        | Value    |
|--------------|----------|
| Entrypoint   | 0x00EF   |
| Data Size    | 14 bytes |
| Instructions | 4        |

```
      00 01 02 03 04 05 06 07  08 09 0A 0B 0C 0D 0E 0F
      -- -- -- -- -- -- -- --  -- -- -- -- -- -- -- --
00E0:                                               32                 2
00F0: 07 80 1F 00 0E 80 0F 80  10 80 1F 01 00           .............   
```

#### Opcodes

```
  0: 0x00EF [0x32] ExtData[1]->MainSpeed = 13* * 0.1
  1: 0x00F2 [0x1F] MOVE_ENTITY: EventEntity moves to X=-123.888*, Z=15.779*, Y=-1.999*
  2: 0x00FA [0x1F] MOVE_ENTITY: Update entity position (mode=1)
  3: 0x00FC [0x00] END_REQSTACK()
```

### Event 65535.16

#### Metadata

| Field        | Value   |
|--------------|---------|
| Entrypoint   | 0x00FD  |
| Data Size    | 6 bytes |
| Instructions | 2       |

```
      00 01 02 03 04 05 06 07  08 09 0A 0B 0C 0D 0E 0F
      -- -- -- -- -- -- -- --  -- -- -- -- -- -- -- --
00F0:                                         1E AC 01               ...
0100: 05 01 00                                          ...             
```

#### Opcodes

```
  0: 0x00FD [0x1E] EventEntity looks at Thierride (ID: 17105324/0x010501AC) and starts talking
  1: 0x0102 [0x00] END_REQSTACK()
```

### Event 65535.17

#### Metadata

| Field        | Value   |
|--------------|---------|
| Entrypoint   | 0x0103  |
| Data Size    | 6 bytes |
| Instructions | 2       |

```
      00 01 02 03 04 05 06 07  08 09 0A 0B 0C 0D 0E 0F
      -- -- -- -- -- -- -- --  -- -- -- -- -- -- -- --
0100:          1E AD 01 05 01  00                          ......       
```

#### Opcodes

```
  0: 0x0103 [0x1E] EventEntity looks at Nogelle (ID: 17105325/0x010501AD) and starts talking
  1: 0x0108 [0x00] END_REQSTACK()
```

### Event 65535.18

#### Metadata

| Field        | Value    |
|--------------|----------|
| Entrypoint   | 0x0109   |
| Data Size    | 20 bytes |
| Instructions | 6        |

```
      00 01 02 03 04 05 06 07  08 09 0A 0B 0C 0D 0E 0F
      -- -- -- -- -- -- -- --  -- -- -- -- -- -- -- --
0100:                             32 07 80 1F 00 27 80           2....'.
0110: 28 80 29 80 1F 01 6F 1E  5F 02 05 01 00           (.)...o._....   
```

#### Opcodes

```
  0: 0x0109 [0x32] ExtData[1]->MainSpeed = 13* * 0.1
  1: 0x010C [0x1F] MOVE_ENTITY: EventEntity moves to X=103.935*, Z=-46.368*, Y=0.999*
  2: 0x0114 [0x1F] MOVE_ENTITY: Update entity position (mode=1)
  3: 0x0116 [0x6F] WAIT_FRAME_DELAY: Yield until WaitTime reaches zero
  4: 0x0117 [0x1E] EventEntity looks at Pattna-Ottna (ID: 17105503/0x0105025F) and starts talking
  5: 0x011C [0x00] END_REQSTACK()
```

### Event 65535.19

#### Metadata

| Field        | Value    |
|--------------|----------|
| Entrypoint   | 0x011D   |
| Data Size    | 20 bytes |
| Instructions | 6        |

```
      00 01 02 03 04 05 06 07  08 09 0A 0B 0C 0D 0E 0F
      -- -- -- -- -- -- -- --  -- -- -- -- -- -- -- --
0110:                                         32 07 80               2..
0120: 1F 00 2A 80 2B 80 02 80  1F 01 6F 1E 5C 02 05 01  ..*.+.....o.\...
0130: 00                                                .               
```

#### Opcodes

```
  0: 0x011D [0x32] ExtData[1]->MainSpeed = 13* * 0.1
  1: 0x0120 [0x1F] MOVE_ENTITY: EventEntity moves to X=147.515*, Z=37.755*, Y=0.000*
  2: 0x0128 [0x1F] MOVE_ENTITY: Update entity position (mode=1)
  3: 0x012A [0x6F] WAIT_FRAME_DELAY: Yield until WaitTime reaches zero
  4: 0x012B [0x1E] EventEntity looks at Tihl Midurhi (ID: 17105500/0x0105025C) and starts talking
  5: 0x0130 [0x00] END_REQSTACK()
```

### Event 65535.20

#### Metadata

| Field        | Value    |
|--------------|----------|
| Entrypoint   | 0x0131   |
| Data Size    | 35 bytes |
| Instructions | 9        |

```
      00 01 02 03 04 05 06 07  08 09 0A 0B 0C 0D 0E 0F
      -- -- -- -- -- -- -- --  -- -- -- -- -- -- -- --
0130:    03 00 00 25 10 03 02  00 27 10 03 01 00 26 10   ...%....'....&.
0140: 03 03 00 28 10 32 2C 80  1F 00 00 00 02 00 01 00  ...(.2,.........
0150: 1F 01 6F 00                                       ..o.            
```

#### Opcodes

```
  0: 0x0131 [0x03] ExtData[1]->WorkLocal[0] = Work_Zone[37]
  1: 0x0136 [0x03] ExtData[1]->WorkLocal[2] = Work_Zone[39]
  2: 0x013B [0x03] ExtData[1]->WorkLocal[1] = Work_Zone[38]
  3: 0x0140 [0x03] ExtData[1]->WorkLocal[3] = Work_Zone[40]
  4: 0x0145 [0x32] ExtData[1]->MainSpeed = 40* * 0.1
  5: 0x0148 [0x1F] MOVE_ENTITY: EventEntity moves to X=ExtData[1]->WorkLocal[0], Z=ExtData[1]->WorkLocal[2], Y=ExtData[1]->WorkLocal[1]
  6: 0x0150 [0x1F] MOVE_ENTITY: Update entity position (mode=1)
  7: 0x0152 [0x6F] WAIT_FRAME_DELAY: Yield until WaitTime reaches zero
  8: 0x0153 [0x00] END_REQSTACK()
```

### Event 65535.21

#### Metadata

| Field        | Value    |
|--------------|----------|
| Entrypoint   | 0x0154   |
| Data Size    | 35 bytes |
| Instructions | 9        |

```
      00 01 02 03 04 05 06 07  08 09 0A 0B 0C 0D 0E 0F
      -- -- -- -- -- -- -- --  -- -- -- -- -- -- -- --
0150:             03 00 00 25  10 03 02 00 27 10 03 01      ...%....'...
0160: 00 26 10 03 03 00 28 10  32 07 80 1F 00 00 00 02  .&....(.2.......
0170: 00 01 00 1F 01 6F 00                              .....o.         
```

#### Opcodes

```
  0: 0x0154 [0x03] ExtData[1]->WorkLocal[0] = Work_Zone[37]
  1: 0x0159 [0x03] ExtData[1]->WorkLocal[2] = Work_Zone[39]
  2: 0x015E [0x03] ExtData[1]->WorkLocal[1] = Work_Zone[38]
  3: 0x0163 [0x03] ExtData[1]->WorkLocal[3] = Work_Zone[40]
  4: 0x0168 [0x32] ExtData[1]->MainSpeed = 13* * 0.1
  5: 0x016B [0x1F] MOVE_ENTITY: EventEntity moves to X=ExtData[1]->WorkLocal[0], Z=ExtData[1]->WorkLocal[2], Y=ExtData[1]->WorkLocal[1]
  6: 0x0173 [0x1F] MOVE_ENTITY: Update entity position (mode=1)
  7: 0x0175 [0x6F] WAIT_FRAME_DELAY: Yield until WaitTime reaches zero
  8: 0x0176 [0x00] END_REQSTACK()
```

### Event 65535.22

#### Metadata

| Field        | Value   |
|--------------|---------|
| Entrypoint   | 0x0177  |
| Data Size    | 3 bytes |
| Instructions | 2       |

```
      00 01 02 03 04 05 06 07  08 09 0A 0B 0C 0D 0E 0F
      -- -- -- -- -- -- -- --  -- -- -- -- -- -- -- --
0170:                      33  00 00                           3..      
```

#### Opcodes

```
  0: 0x0177 [0x33] EventEntity->Render.Flags0 &= ~ 0x200000 // Bit 21 (flag=0x00)
  1: 0x0179 [0x00] END_REQSTACK()
```

### Event 512

#### Metadata

| Field        | Value     |
|--------------|-----------|
| Entrypoint   | 0x017A    |
| Data Size    | 503 bytes |
| Instructions | 109       |

```
      00 01 02 03 04 05 06 07  08 09 0A 0B 0C 0D 0E 0F
      -- -- -- -- -- -- -- --  -- -- -- -- -- -- -- --
0170:                                20 01 42 03 04 00             .B...
0180: 02 10 03 05 00 03 10 03  06 00 04 10 03 07 00 05  ................
0190: 10 03 08 00 06 10 02 04  00 2D 80 00 A9 01 2B 6C  .........-....+l
01A0: 01 05 01 2E 80 23 01 6D  03 02 08 00 02 80 80 05  .....#.m........
01B0: 03 02 07 00 02 80 80 C4  01 2B 6C 01 05 01 2E 80  .........+l.....
01C0: 23 01 02 03 02 07 00 2D  80 80 63 02 02 05 00 02  #......-..c.....
01D0: 80 80 DF 01 2B 6C 01 05  01 2E 80 23 01 60 02 02  ....+l.....#.`..
01E0: 05 00 2D 80 80 0A 02 02  06 00 2D 80 00 FF 01 03  ..-.......-.....
01F0: 02 10 02 80 2B 6C 01 05  01 2F 80 23 01 07 02 2B  ....+l.../.#...+
0200: 6C 01 05 01 2E 80 23 01  60 02 02 05 00 30 80 80  l.....#.`....0..
0210: 35 02 02 06 00 30 80 00  2A 02 03 02 10 2D 80 2B  5....0..*....-.+
0220: 6C 01 05 01 2F 80 23 01  32 02 2B 6C 01 05 01 2E  l.../.#.2.+l....
0230: 80 23 01 60 02 02 05 00  31 80 80 60 02 02 06 00  .#.`....1..`....
0240: 31 80 00 55 02 03 02 10  30 80 2B 6C 01 05 01 2F  1..U....0.+l.../
0250: 80 23 01 5D 02 2B 6C 01  05 01 2E 80 23 01 60 02  .#.].+l.....#.`.
0260: 01 02 03 02 07 00 30 80  80 02 03 02 05 00 02 80  ......0.........
0270: 80 7E 02 2B 6C 01 05 01  2E 80 23 01 FF 02 02 05  .~.+l.....#.....
0280: 00 2D 80 80 A9 02 03 02  10 02 80 02 06 00 2D 80  .-............-.
0290: 00 9E 02 2B 6C 01 05 01  32 80 23 01 A6 02 2B 6C  ...+l...2.#...+l
02A0: 01 05 01 33 80 23 01 FF  02 02 05 00 30 80 80 D4  ...3.#......0...
02B0: 02 03 02 10 2D 80 02 06  00 30 80 00 C9 02 2B 6C  ....-....0....+l
02C0: 01 05 01 32 80 23 01 D1  02 2B 6C 01 05 01 33 80  ...2.#...+l...3.
02D0: 23 01 FF 02 02 05 00 31  80 80 FF 02 03 02 10 30  #......1.......0
02E0: 80 02 06 00 31 80 00 F4  02 2B 6C 01 05 01 32 80  ....1....+l...2.
02F0: 23 01 FC 02 2B 6C 01 05  01 33 80 23 01 FF 02 01  #...+l...3.#....
0300: 02 03 01 6D 03 02 08 00  2D 80 80 2D 03 03 02 10  ...m....-..-....
0310: 34 80 2B 6C 01 05 01 35  80 23 2B 6C 01 05 01 36  4.+l...5.#+l...6
0320: 80 23 2B 6C 01 05 01 37  80 23 01 6D 03 02 08 00  .#+l...7.#.m....
0330: 30 80 80 4D 03 03 02 10  34 80 2B 6C 01 05 01 35  0..M....4.+l...5
0340: 80 23 2B 6C 01 05 01 36  80 23 01 6D 03 02 08 00  .#+l...6.#.m....
0350: 31 80 80 6D 03 03 02 10  38 80 2B 6C 01 05 01 39  1..m....8.+l...9
0360: 80 23 2B 6C 01 05 01 3A  80 23 01 6D 03 20 00 21  .#+l...:.#.m. .!
0370: 00                                                .               
```

#### Opcodes

```
  0: 0x017A [0x20] SET_CLI_EVENT_UC_FLAG: Lock player control
  1: 0x017C [0x42] SET_CLI_EVENT_CANCEL_DATA()
  2: 0x017D [0x03] ExtData[1]->WorkLocal[4] = Work_Zone[2]
  3: 0x0182 [0x03] ExtData[1]->WorkLocal[5] = Work_Zone[3]
  4: 0x0187 [0x03] ExtData[1]->WorkLocal[6] = Work_Zone[4]
  5: 0x018C [0x03] ExtData[1]->WorkLocal[7] = Work_Zone[5]
  6: 0x0191 [0x03] ExtData[1]->WorkLocal[8] = Work_Zone[6]
  7: 0x0196 [0x02] IF !(ExtData[1]->WorkLocal[4] == 1*) GOTO 0x01A9
  8: 0x019E [0x2B] Areuhat (ID: 17105260/0x0105016C) [11275*]:
    → "So this is one of these "cities" I've heard so much of, is it? Hmph. Seems to be nothing more than a mass of people crowded into a noisy, confined space."
  9: 0x01A5 [0x23] WAIT_FOR_DIALOG_INTERACTION
 10: 0x01A6 [0x01] GOTO 0x036D
 11: 0x01A9 [0x02] IF !(ExtData[1]->WorkLocal[8] == 0*) GOTO 0x0305
 12: 0x01B1 [0x02] IF !(ExtData[1]->WorkLocal[7] == 0*) GOTO 0x01C4
 13: 0x01B9 [0x2B] Areuhat (ID: 17105260/0x0105016C) [11275*]:
    → "So this is one of these "cities" I've heard so much of, is it? Hmph. Seems to be nothing more than a mass of people crowded into a noisy, confined space."
 14: 0x01C0 [0x23] WAIT_FOR_DIALOG_INTERACTION
 15: 0x01C1 [0x01] GOTO 0x0302
 16: 0x01C4 [0x02] IF !(ExtData[1]->WorkLocal[7] == 1*) GOTO 0x0263
 17: 0x01CC [0x02] IF !(ExtData[1]->WorkLocal[5] == 0*) GOTO 0x01DF
 18: 0x01D4 [0x2B] Areuhat (ID: 17105260/0x0105016C) [11275*]:
    → "So this is one of these "cities" I've heard so much of, is it? Hmph. Seems to be nothing more than a mass of people crowded into a noisy, confined space."
 19: 0x01DB [0x23] WAIT_FOR_DIALOG_INTERACTION
 20: 0x01DC [0x01] GOTO 0x0260
 21: 0x01DF [0x02] IF !(ExtData[1]->WorkLocal[5] == 1*) GOTO 0x020A
 22: 0x01E7 [0x02] IF !(ExtData[1]->WorkLocal[6] == 1*) GOTO 0x01FF
 23: 0x01EF [0x03] Work_Zone[2] = 0*
 24: 0x01F4 [0x2B] Areuhat (ID: 17105260/0x0105016C) [11276*]:
    → "I have entrusted the care of my mountain home to you, children of Altana."
 25: 0x01FB [0x23] WAIT_FOR_DIALOG_INTERACTION
 26: 0x01FC [0x01] GOTO 0x0207
 27: 0x01FF [0x2B] Areuhat (ID: 17105260/0x0105016C) [11275*]:
    → "So this is one of these "cities" I've heard so much of, is it? Hmph. Seems to be nothing more than a mass of people crowded into a noisy, confined space."
 28: 0x0206 [0x23] WAIT_FOR_DIALOG_INTERACTION

SUBROUTINE_0207:
 29: 0x0207 [0x01] GOTO 0x0260
 30: 0x020A [0x02] IF !(ExtData[1]->WorkLocal[5] == 2*) GOTO 0x0235
 31: 0x0212 [0x02] IF !(ExtData[1]->WorkLocal[6] == 2*) GOTO 0x022A
 32: 0x021A [0x03] Work_Zone[2] = 1*
 33: 0x021F [0x2B] Areuhat (ID: 17105260/0x0105016C) [11276*]:
    → "I have entrusted the care of my mountain home to you, children of Altana."
 34: 0x0226 [0x23] WAIT_FOR_DIALOG_INTERACTION
 35: 0x0227 [0x01] GOTO 0x0232
 36: 0x022A [0x2B] Areuhat (ID: 17105260/0x0105016C) [11275*]:
    → "So this is one of these "cities" I've heard so much of, is it? Hmph. Seems to be nothing more than a mass of people crowded into a noisy, confined space."
 37: 0x0231 [0x23] WAIT_FOR_DIALOG_INTERACTION

SUBROUTINE_0232:
 38: 0x0232 [0x01] GOTO 0x0260
 39: 0x0235 [0x02] IF !(ExtData[1]->WorkLocal[5] == 3*) GOTO 0x0260
 40: 0x023D [0x02] IF !(ExtData[1]->WorkLocal[6] == 3*) GOTO 0x0255
 41: 0x0245 [0x03] Work_Zone[2] = 2*
 42: 0x024A [0x2B] Areuhat (ID: 17105260/0x0105016C) [11276*]:
    → "I have entrusted the care of my mountain home to you, children of Altana."
 43: 0x0251 [0x23] WAIT_FOR_DIALOG_INTERACTION
 44: 0x0252 [0x01] GOTO 0x025D
 45: 0x0255 [0x2B] Areuhat (ID: 17105260/0x0105016C) [11275*]:
    → "So this is one of these "cities" I've heard so much of, is it? Hmph. Seems to be nothing more than a mass of people crowded into a noisy, confined space."
 46: 0x025C [0x23] WAIT_FOR_DIALOG_INTERACTION

SUBROUTINE_025D:
 47: 0x025D [0x01] GOTO 0x0260

SUBROUTINE_0260:
 48: 0x0260 [0x01] GOTO 0x0302
 49: 0x0263 [0x02] IF !(ExtData[1]->WorkLocal[7] == 2*) GOTO 0x0302
 50: 0x026B [0x02] IF !(ExtData[1]->WorkLocal[5] == 0*) GOTO 0x027E
 51: 0x0273 [0x2B] Areuhat (ID: 17105260/0x0105016C) [11275*]:
    → "So this is one of these "cities" I've heard so much of, is it? Hmph. Seems to be nothing more than a mass of people crowded into a noisy, confined space."
 52: 0x027A [0x23] WAIT_FOR_DIALOG_INTERACTION
 53: 0x027B [0x01] GOTO 0x02FF
 54: 0x027E [0x02] IF !(ExtData[1]->WorkLocal[5] == 1*) GOTO 0x02A9
 55: 0x0286 [0x03] Work_Zone[2] = 0*
 56: 0x028B [0x02] IF !(ExtData[1]->WorkLocal[6] == 1*) GOTO 0x029E
 57: 0x0293 [0x2B] Areuhat (ID: 17105260/0x0105016C) [11278*]:
    → "It has been ages since the races of Vana'diel began to worship the line of the wyrms. But you seem to be...different, somehow. Know this, adventurer. That those who pay proper homage to the wyrms will not go unrewarded."
 58: 0x029A [0x23] WAIT_FOR_DIALOG_INTERACTION
 59: 0x029B [0x01] GOTO 0x02A6
 60: 0x029E [0x2B] Areuhat (ID: 17105260/0x0105016C) [11277*]:
    → "And what is this? "medicine," you say? Hmph, most novel. I suppose you creatures do have their redeeming qualities."
 61: 0x02A5 [0x23] WAIT_FOR_DIALOG_INTERACTION

SUBROUTINE_02A6:
 62: 0x02A6 [0x01] GOTO 0x02FF
 63: 0x02A9 [0x02] IF !(ExtData[1]->WorkLocal[5] == 2*) GOTO 0x02D4
 64: 0x02B1 [0x03] Work_Zone[2] = 1*
 65: 0x02B6 [0x02] IF !(ExtData[1]->WorkLocal[6] == 2*) GOTO 0x02C9
 66: 0x02BE [0x2B] Areuhat (ID: 17105260/0x0105016C) [11278*]:
    → "It has been ages since the races of Vana'diel began to worship the line of the wyrms. But you seem to be...different, somehow. Know this, adventurer. That those who pay proper homage to the wyrms will not go unrewarded."
 67: 0x02C5 [0x23] WAIT_FOR_DIALOG_INTERACTION
 68: 0x02C6 [0x01] GOTO 0x02D1
 69: 0x02C9 [0x2B] Areuhat (ID: 17105260/0x0105016C) [11277*]:
    → "And what is this? "medicine," you say? Hmph, most novel. I suppose you creatures do have their redeeming qualities."
 70: 0x02D0 [0x23] WAIT_FOR_DIALOG_INTERACTION

SUBROUTINE_02D1:
 71: 0x02D1 [0x01] GOTO 0x02FF
 72: 0x02D4 [0x02] IF !(ExtData[1]->WorkLocal[5] == 3*) GOTO 0x02FF
 73: 0x02DC [0x03] Work_Zone[2] = 2*
 74: 0x02E1 [0x02] IF !(ExtData[1]->WorkLocal[6] == 3*) GOTO 0x02F4
 75: 0x02E9 [0x2B] Areuhat (ID: 17105260/0x0105016C) [11278*]:
    → "It has been ages since the races of Vana'diel began to worship the line of the wyrms. But you seem to be...different, somehow. Know this, adventurer. That those who pay proper homage to the wyrms will not go unrewarded."
 76: 0x02F0 [0x23] WAIT_FOR_DIALOG_INTERACTION
 77: 0x02F1 [0x01] GOTO 0x02FC
 78: 0x02F4 [0x2B] Areuhat (ID: 17105260/0x0105016C) [11277*]:
    → "And what is this? "medicine," you say? Hmph, most novel. I suppose you creatures do have their redeeming qualities."
 79: 0x02FB [0x23] WAIT_FOR_DIALOG_INTERACTION

SUBROUTINE_02FC:
 80: 0x02FC [0x01] GOTO 0x02FF

SUBROUTINE_02FF:
 81: 0x02FF [0x01] GOTO 0x0302

SUBROUTINE_0302:
 82: 0x0302 [0x01] GOTO 0x036D
 83: 0x0305 [0x02] IF !(ExtData[1]->WorkLocal[8] == 1*) GOTO 0x032D
 84: 0x030D [0x03] Work_Zone[2] = 17397*
 85: 0x0312 [0x2B] Areuhat (ID: 17105260/0x0105016C) [11279*]:
    → "Is this... Could it be... $0!? For me!?"
 86: 0x0319 [0x23] WAIT_FOR_DIALOG_INTERACTION
 87: 0x031A [0x2B] Areuhat (ID: 17105260/0x0105016C) [11280*]:
    → "It would seem these lands may still hold some allure yet. Very well, I accept your offering."
 88: 0x0321 [0x23] WAIT_FOR_DIALOG_INTERACTION
 89: 0x0322 [0x2B] Areuhat (ID: 17105260/0x0105016C) [11281*]:
    → "You are a truly righteous soul, <Player>. That you are willing to continue to show such devoutness even now, when not called for... It moves me, deeply. You have earned my respect, and my hand. And you shall have them both!"
 90: 0x0329 [0x23] WAIT_FOR_DIALOG_INTERACTION
 91: 0x032A [0x01] GOTO 0x036D
 92: 0x032D [0x02] IF !(ExtData[1]->WorkLocal[8] == 2*) GOTO 0x034D
 93: 0x0335 [0x03] Work_Zone[2] = 17397*
 94: 0x033A [0x2B] Areuhat (ID: 17105260/0x0105016C) [11279*]:
    → "Is this... Could it be... $0!? For me!?"
 95: 0x0341 [0x23] WAIT_FOR_DIALOG_INTERACTION
 96: 0x0342 [0x2B] Areuhat (ID: 17105260/0x0105016C) [11280*]:
    → "It would seem these lands may still hold some allure yet. Very well, I accept your offering."
 97: 0x0349 [0x23] WAIT_FOR_DIALOG_INTERACTION
 98: 0x034A [0x01] GOTO 0x036D
 99: 0x034D [0x02] IF !(ExtData[1]->WorkLocal[8] == 3*) GOTO 0x036D
100: 0x0355 [0x03] Work_Zone[2] = 17001*
101: 0x035A [0x2B] Areuhat (ID: 17105260/0x0105016C) [11282*]:
    → "Hm, what is this? You come bearing $0? Hmph, I should have expected as much."
102: 0x0361 [0x23] WAIT_FOR_DIALOG_INTERACTION
103: 0x0362 [0x2B] Areuhat (ID: 17105260/0x0105016C) [11283*]:
    → "Hear me well, mortal, for so easily are your kind distracted by such superficialities. Know this, that larger does not always equate with better. And that sometimes, the best of things come in the smallest of sizes."
104: 0x0369 [0x23] WAIT_FOR_DIALOG_INTERACTION
105: 0x036A [0x01] GOTO 0x036D

SUBROUTINE_036D:
106: 0x036D [0x20] SET_CLI_EVENT_UC_FLAG: Unlock player control
107: 0x036F [0x21] END_EVENT
108: 0x0370 [0x00] END_REQSTACK()
```

### Event 65535.23

#### Metadata

| Field        | Value    |
|--------------|----------|
| Entrypoint   | 0x0371   |
| Data Size    | 38 bytes |
| Instructions | 7        |

```
      00 01 02 03 04 05 06 07  08 09 0A 0B 0C 0D 0E 0F
      -- -- -- -- -- -- -- --  -- -- -- -- -- -- -- --
0370:    BA F0 FF FF 7F 3B 80  3C 80 3D 80 3E 80 79 00   .....;.<.=.>.y.
0380: F0 FF FF 7F 11 02 05 01  32 07 80 1F 00 3F 80 40  ........2....?.@
0390: 80 3D 80 1F 01 6F 00                              .=...o.         
```

#### Opcodes

```
  0: 0x0371 [0xBA] SET_ENTITY_POSITION(entity_id=LocalPlayer, pos_x=-96.251*, pos_z=66.375*, pos_y=-5.999*, direction=296.4°*)
  1: 0x037E [0x79] LocalPlayer looks at Darvylle (ID: 17105425/0x01050211) (Basic look)
  2: 0x0388 [0x32] ExtData[1]->MainSpeed = 13* * 0.1
  3: 0x038B [0x1F] MOVE_ENTITY: EventEntity moves to X=-97.414*, Z=71.087*, Y=-5.999*
  4: 0x0393 [0x1F] MOVE_ENTITY: Update entity position (mode=1)
  5: 0x0395 [0x6F] WAIT_FRAME_DELAY: Yield until WaitTime reaches zero
  6: 0x0396 [0x00] END_REQSTACK()
```

### Event 65535.24

#### Metadata

| Field        | Value    |
|--------------|----------|
| Entrypoint   | 0x0397   |
| Data Size    | 15 bytes |
| Instructions | 5        |

```
      00 01 02 03 04 05 06 07  08 09 0A 0B 0C 0D 0E 0F
      -- -- -- -- -- -- -- --  -- -- -- -- -- -- -- --
0390:                      32  07 80 1F 00 41 80 42 80         2....A.B.
03A0: 43 80 1F 01 6F 00                                 C...o.          
```

#### Opcodes

```
  0: 0x0397 [0x32] ExtData[1]->MainSpeed = 13* * 0.1
  1: 0x039A [0x1F] MOVE_ENTITY: EventEntity moves to X=-90.438*, Z=46.848*, Y=-4.000*
  2: 0x03A2 [0x1F] MOVE_ENTITY: Update entity position (mode=1)
  3: 0x03A4 [0x6F] WAIT_FRAME_DELAY: Yield until WaitTime reaches zero
  4: 0x03A5 [0x00] END_REQSTACK()
```

### Event 65535.25

#### Metadata

| Field        | Value   |
|--------------|---------|
| Entrypoint   | 0x03A6  |
| Data Size    | 6 bytes |
| Instructions | 2       |

```
      00 01 02 03 04 05 06 07  08 09 0A 0B 0C 0D 0E 0F
      -- -- -- -- -- -- -- --  -- -- -- -- -- -- -- --
03A0:                   03 02  10 07 7F 00                    ......    
```

#### Opcodes

```
  0: 0x03A6 [0x03] Work_Zone[2] = Entity->Race
  1: 0x03AB [0x00] END_REQSTACK()
```

### Event 65535.26

#### Metadata

| Field        | Value   |
|--------------|---------|
| Entrypoint   | 0x03AC  |
| Data Size    | 6 bytes |
| Instructions | 2       |

```
      00 01 02 03 04 05 06 07  08 09 0A 0B 0C 0D 0E 0F
      -- -- -- -- -- -- -- --  -- -- -- -- -- -- -- --
03A0:                                      03 02 10 0B              ....
03B0: 7F 00                                             ..              
```

#### Opcodes

```
  0: 0x03AC [0x03] Work_Zone[2] = (Entity->Render.Flags01 >> 25) & 1
  1: 0x03B1 [0x00] END_REQSTACK()
```

### Event 65535.27

#### Metadata

| Field        | Value    |
|--------------|----------|
| Entrypoint   | 0x03B2   |
| Data Size    | 24 bytes |
| Instructions | 4        |

```
      00 01 02 03 04 05 06 07  08 09 0A 0B 0C 0D 0E 0F
      -- -- -- -- -- -- -- --  -- -- -- -- -- -- -- --
03B0:       03 09 00 07 7F 1A  BC 05 66 0A 00 F8 FF FF    ........f.....
03C0: 7F F8 FF FF 7F 74 6C 6B  30 00                    .....tlk0.      
```

#### Opcodes

```
  0: 0x03B2 [0x03] ExtData[1]->WorkLocal[9] = Entity->Race
  1: 0x03B7 [0x1A] CALL_SUBROUTINE(address=0x05BC)
  2: 0x03BA [0x66] LOAD_EXT_SCHEDULER_MAIN: Load scheduler "tlk0" with entities [EventEntity, EventEntity], work=ExtData[1]->WorkLocal[10]
  3: 0x03C9 [0x00] END_REQSTACK()
```

### Event 65535.28

#### Metadata

| Field        | Value    |
|--------------|----------|
| Entrypoint   | 0x03CA   |
| Data Size    | 24 bytes |
| Instructions | 4        |

```
      00 01 02 03 04 05 06 07  08 09 0A 0B 0C 0D 0E 0F
      -- -- -- -- -- -- -- --  -- -- -- -- -- -- -- --
03C0:                                03 09 00 07 7F 1A            ......
03D0: BC 05 66 0A 00 F8 FF FF  7F F8 FF FF 7F 74 6C 6B  ..f..........tlk
03E0: 31 00                                             1.              
```

#### Opcodes

```
  0: 0x03CA [0x03] ExtData[1]->WorkLocal[9] = Entity->Race
  1: 0x03CF [0x1A] CALL_SUBROUTINE(address=0x05BC)
  2: 0x03D2 [0x66] LOAD_EXT_SCHEDULER_MAIN: Load scheduler "tlk1" with entities [EventEntity, EventEntity], work=ExtData[1]->WorkLocal[10]
  3: 0x03E1 [0x00] END_REQSTACK()
```

### Event 65535.29

#### Metadata

| Field        | Value    |
|--------------|----------|
| Entrypoint   | 0x03E2   |
| Data Size    | 38 bytes |
| Instructions | 5        |

```
      00 01 02 03 04 05 06 07  08 09 0A 0B 0C 0D 0E 0F
      -- -- -- -- -- -- -- --  -- -- -- -- -- -- -- --
03E0:       22 00 2F 00 F8 FF  FF 7F B6 0B 44 80 1B 80    "./.......D...
03F0: 45 80 46 80 47 80 47 80  47 80 48 80 49 80 6C F8  E.F.G.G.G.H.I.l.
0400: FF FF 7F 4A 80 2D 80 00                           ...J.-..        
```

#### Opcodes

```
  0: 0x03E2 [0x22] ENTITY_HIDE_FLAG(enabled=0x00)
  1: 0x03E4 [0x2F] EventEntity->Render.Flags0 &= ~0x80000 // Bit 19
  2: 0x03EA [0xB6] ENTITY_APPEARANCE_HANDLER(case=Full entity look, race=8*, hair=7*, head=145*, body=79*, hands=76*, legs=76*, feet=76*, main=201*, sub=24*)
  3: 0x03FE [0x6C] FADE_ENTITY_COLOR(entity_id=EventEntity, end_alpha=32*, fade_time=1*)
  4: 0x0407 [0x00] END_REQSTACK()
```

### Event 65535.30

#### Metadata

| Field        | Value    |
|--------------|----------|
| Entrypoint   | 0x0408   |
| Data Size    | 38 bytes |
| Instructions | 5        |

```
      00 01 02 03 04 05 06 07  08 09 0A 0B 0C 0D 0E 0F
      -- -- -- -- -- -- -- --  -- -- -- -- -- -- -- --
0400:                          22 00 2F 00 F8 FF FF 7F          "./.....
0410: B6 0B 1B 80 1B 80 45 80  46 80 47 80 47 80 47 80  ......E.F.G.G.G.
0420: 48 80 49 80 6C F8 FF FF  7F 4B 80 2D 80 00        H.I.l....K.-..  
```

#### Opcodes

```
  0: 0x0408 [0x22] ENTITY_HIDE_FLAG(enabled=0x00)
  1: 0x040A [0x2F] EventEntity->Render.Flags0 &= ~0x80000 // Bit 19
  2: 0x0410 [0xB6] ENTITY_APPEARANCE_HANDLER(case=Full entity look, race=7*, hair=7*, head=145*, body=79*, hands=76*, legs=76*, feet=76*, main=201*, sub=24*)
  3: 0x0424 [0x6C] FADE_ENTITY_COLOR(entity_id=EventEntity, end_alpha=48*, fade_time=1*)
  4: 0x042D [0x00] END_REQSTACK()
```

### Event 65535.31

#### Metadata

| Field        | Value    |
|--------------|----------|
| Entrypoint   | 0x042E   |
| Data Size    | 38 bytes |
| Instructions | 5        |

```
      00 01 02 03 04 05 06 07  08 09 0A 0B 0C 0D 0E 0F
      -- -- -- -- -- -- -- --  -- -- -- -- -- -- -- --
0420:                                            22 00                ".
0430: 2F 00 F8 FF FF 7F B6 0B  4C 80 1B 80 45 80 46 80  /.......L...E.F.
0440: 47 80 47 80 47 80 48 80  49 80 6C F8 FF FF 7F 4D  G.G.G.H.I.l....M
0450: 80 2D 80 00                                       .-..            
```

#### Opcodes

```
  0: 0x042E [0x22] ENTITY_HIDE_FLAG(enabled=0x00)
  1: 0x0430 [0x2F] EventEntity->Render.Flags0 &= ~0x80000 // Bit 19
  2: 0x0436 [0xB6] ENTITY_APPEARANCE_HANDLER(case=Full entity look, race=5*, hair=7*, head=145*, body=79*, hands=76*, legs=76*, feet=76*, main=201*, sub=24*)
  3: 0x044A [0x6C] FADE_ENTITY_COLOR(entity_id=EventEntity, end_alpha=64*, fade_time=1*)
  4: 0x0453 [0x00] END_REQSTACK()
```

### Event 65535.32

#### Metadata

| Field        | Value    |
|--------------|----------|
| Entrypoint   | 0x0454   |
| Data Size    | 15 bytes |
| Instructions | 5        |

```
      00 01 02 03 04 05 06 07  08 09 0A 0B 0C 0D 0E 0F
      -- -- -- -- -- -- -- --  -- -- -- -- -- -- -- --
0450:             32 4E 80 1F  00 4F 80 50 80 51 80 1F      2N...O.P.Q..
0460: 01 6F 00                                          .o.             
```

#### Opcodes

```
  0: 0x0454 [0x32] ExtData[1]->MainSpeed = 11* * 0.1
  1: 0x0457 [0x1F] MOVE_ENTITY: EventEntity moves to X=74.705*, Z=-18.779*, Y=1.999*
  2: 0x045F [0x1F] MOVE_ENTITY: Update entity position (mode=1)
  3: 0x0461 [0x6F] WAIT_FRAME_DELAY: Yield until WaitTime reaches zero
  4: 0x0462 [0x00] END_REQSTACK()
```

### Event 65535.33

#### Metadata

| Field        | Value    |
|--------------|----------|
| Entrypoint   | 0x0463   |
| Data Size    | 15 bytes |
| Instructions | 5        |

```
      00 01 02 03 04 05 06 07  08 09 0A 0B 0C 0D 0E 0F
      -- -- -- -- -- -- -- --  -- -- -- -- -- -- -- --
0460:          32 4E 80 1F 00  52 80 53 80 51 80 1F 01     2N...R.S.Q...
0470: 6F 00                                             o.              
```

#### Opcodes

```
  0: 0x0463 [0x32] ExtData[1]->MainSpeed = 11* * 0.1
  1: 0x0466 [0x1F] MOVE_ENTITY: EventEntity moves to X=73.707*, Z=-15.909*, Y=1.999*
  2: 0x046E [0x1F] MOVE_ENTITY: Update entity position (mode=1)
  3: 0x0470 [0x6F] WAIT_FRAME_DELAY: Yield until WaitTime reaches zero
  4: 0x0471 [0x00] END_REQSTACK()
```

### Event 65535.34

#### Metadata

| Field        | Value    |
|--------------|----------|
| Entrypoint   | 0x0472   |
| Data Size    | 12 bytes |
| Instructions | 3        |

```
      00 01 02 03 04 05 06 07  08 09 0A 0B 0C 0D 0E 0F
      -- -- -- -- -- -- -- --  -- -- -- -- -- -- -- --
0470:       33 01 37 54 80 55  80 56 80 57 80 00          3.7T.U.V.W..  
```

#### Opcodes

```
  0: 0x0472 [0x33] EventEntity->Render.Flags0 |= 0x200000 // Bit 21 (flag=0x01)
  1: 0x0474 [0x37] UPDATE_EVENT_POSITION_AND_DIR: x=86.624*, z=115.122*, y=1.000*, direction=239.9°*
  2: 0x047D [0x00] END_REQSTACK()
```

### Event 65535.35

#### Metadata

| Field        | Value    |
|--------------|----------|
| Entrypoint   | 0x047E   |
| Data Size    | 12 bytes |
| Instructions | 3        |

```
      00 01 02 03 04 05 06 07  08 09 0A 0B 0C 0D 0E 0F
      -- -- -- -- -- -- -- --  -- -- -- -- -- -- -- --
0470:                                            33 01                3.
0480: 37 58 80 59 80 02 80 5A  80 00                    7X.Y...Z..      
```

#### Opcodes

```
  0: 0x047E [0x33] EventEntity->Render.Flags0 |= 0x200000 // Bit 21 (flag=0x01)
  1: 0x0480 [0x37] UPDATE_EVENT_POSITION_AND_DIR: x=86.249*, z=116.010*, y=0.000*, direction=237.4°*
  2: 0x0489 [0x00] END_REQSTACK()
```

### Event 65535.36

#### Metadata

| Field        | Value    |
|--------------|----------|
| Entrypoint   | 0x048A   |
| Data Size    | 37 bytes |
| Instructions | 5        |

```
      00 01 02 03 04 05 06 07  08 09 0A 0B 0C 0D 0E 0F
      -- -- -- -- -- -- -- --  -- -- -- -- -- -- -- --
0480:                                03 09 00 07 7F 1A            ......
0490: BC 05 66 0A 00 F8 FF FF  7F F8 FF FF 7F 73 69 74  ..f..........sit
04A0: 30 53 F8 FF FF 7F F8 FF  FF 7F 73 69 74 30 00     0S........sit0. 
```

#### Opcodes

```
  0: 0x048A [0x03] ExtData[1]->WorkLocal[9] = Entity->Race
  1: 0x048F [0x1A] CALL_SUBROUTINE(address=0x05BC)
  2: 0x0492 [0x66] LOAD_EXT_SCHEDULER_MAIN: Load scheduler "sit0" with entities [EventEntity, EventEntity], work=ExtData[1]->WorkLocal[10]
  3: 0x04A1 [0x53] WAIT_SCHEDULER_TASK: Wait for scheduler "sit0" with entities [EventEntity, EventEntity]
  4: 0x04AE [0x00] END_REQSTACK()
```

### Event 65535.37

#### Metadata

| Field        | Value    |
|--------------|----------|
| Entrypoint   | 0x04AF   |
| Data Size    | 37 bytes |
| Instructions | 5        |

```
      00 01 02 03 04 05 06 07  08 09 0A 0B 0C 0D 0E 0F
      -- -- -- -- -- -- -- --  -- -- -- -- -- -- -- --
04A0:                                               03                 .
04B0: 09 00 07 7F 1A BC 05 66  0A 00 F8 FF FF 7F F8 FF  .......f........
04C0: FF 7F 73 69 74 31 53 F8  FF FF 7F F8 FF FF 7F 73  ..sit1S........s
04D0: 69 74 31 00                                       it1.            
```

#### Opcodes

```
  0: 0x04AF [0x03] ExtData[1]->WorkLocal[9] = Entity->Race
  1: 0x04B4 [0x1A] CALL_SUBROUTINE(address=0x05BC)
  2: 0x04B7 [0x66] LOAD_EXT_SCHEDULER_MAIN: Load scheduler "sit1" with entities [EventEntity, EventEntity], work=ExtData[1]->WorkLocal[10]
  3: 0x04C6 [0x53] WAIT_SCHEDULER_TASK: Wait for scheduler "sit1" with entities [EventEntity, EventEntity]
  4: 0x04D3 [0x00] END_REQSTACK()
```

### Event 65535.38

#### Metadata

| Field        | Value    |
|--------------|----------|
| Entrypoint   | 0x04D4   |
| Data Size    | 42 bytes |
| Instructions | 6        |

```
      00 01 02 03 04 05 06 07  08 09 0A 0B 0C 0D 0E 0F
      -- -- -- -- -- -- -- --  -- -- -- -- -- -- -- --
04D0:             03 09 00 07  7F 1A BC 05 66 0A 00 F8      ........f...
04E0: FF FF 7F F8 FF FF 7F 74  6C 6B 30 1C 5B 80 66 0A  .......tlk0.[.f.
04F0: 00 F8 FF FF 7F F8 FF FF  7F 74 6C 6B 31 00        .........tlk1.  
```

#### Opcodes

```
  0: 0x04D4 [0x03] ExtData[1]->WorkLocal[9] = Entity->Race
  1: 0x04D9 [0x1A] CALL_SUBROUTINE(address=0x05BC)
  2: 0x04DC [0x66] LOAD_EXT_SCHEDULER_MAIN: Load scheduler "tlk0" with entities [EventEntity, EventEntity], work=ExtData[1]->WorkLocal[10]
  3: 0x04EB [0x1C] WAIT(60* ticks)
  4: 0x04EE [0x66] LOAD_EXT_SCHEDULER_MAIN: Load scheduler "tlk1" with entities [EventEntity, EventEntity], work=ExtData[1]->WorkLocal[10]
  5: 0x04FD [0x00] END_REQSTACK()
```

### Event 65535.39

#### Metadata

| Field        | Value   |
|--------------|---------|
| Entrypoint   | 0x04FE  |
| Data Size    | 9 bytes |
| Instructions | 3       |

```
      00 01 02 03 04 05 06 07  08 09 0A 0B 0C 0D 0E 0F
      -- -- -- -- -- -- -- --  -- -- -- -- -- -- -- --
04F0:                                            1C 5C                .\
0500: 80 1E 07 02 05 01 00                              .......         
```

#### Opcodes

```
  0: 0x04FE [0x1C] WAIT(45* ticks)
  1: 0x0501 [0x1E] EventEntity looks at Rholont (ID: 17105415/0x01050207) and starts talking
  2: 0x0506 [0x00] END_REQSTACK()
```

### Event 65535.40

#### Metadata

| Field        | Value    |
|--------------|----------|
| Entrypoint   | 0x0507   |
| Data Size    | 25 bytes |
| Instructions | 7        |

```
      00 01 02 03 04 05 06 07  08 09 0A 0B 0C 0D 0E 0F
      -- -- -- -- -- -- -- --  -- -- -- -- -- -- -- --
0500:                      32  4E 80 1F 00 5D 80 5E 80         2N...].^.
0510: 29 80 1F 01 1F 00 5F 80  60 80 61 80 1F 01 6F 00  )....._.`.a...o.
```

#### Opcodes

```
  0: 0x0507 [0x32] ExtData[1]->MainSpeed = 11* * 0.1
  1: 0x050A [0x1F] MOVE_ENTITY: EventEntity moves to X=99.007*, Z=103.704*, Y=0.999*
  2: 0x0512 [0x1F] MOVE_ENTITY: Update entity position (mode=1)
  3: 0x0514 [0x1F] MOVE_ENTITY: EventEntity moves to X=97.647*, Z=105.585*, Y=0.199*
  4: 0x051C [0x1F] MOVE_ENTITY: Update entity position (mode=1)
  5: 0x051E [0x6F] WAIT_FRAME_DELAY: Yield until WaitTime reaches zero
  6: 0x051F [0x00] END_REQSTACK()
```

### Event 65535.41

#### Metadata

| Field        | Value    |
|--------------|----------|
| Entrypoint   | 0x0520   |
| Data Size    | 37 bytes |
| Instructions | 5        |

```
      00 01 02 03 04 05 06 07  08 09 0A 0B 0C 0D 0E 0F
      -- -- -- -- -- -- -- --  -- -- -- -- -- -- -- --
0520: 03 09 00 07 7F 1A BC 05  66 0A 00 F8 FF FF 7F F8  ........f.......
0530: FF FF 7F 73 68 61 30 53  F8 FF FF 7F F8 FF FF 7F  ...sha0S........
0540: 73 68 61 30 00                                    sha0.           
```

#### Opcodes

```
  0: 0x0520 [0x03] ExtData[1]->WorkLocal[9] = Entity->Race
  1: 0x0525 [0x1A] CALL_SUBROUTINE(address=0x05BC)
  2: 0x0528 [0x66] LOAD_EXT_SCHEDULER_MAIN: Load scheduler "sha0" with entities [EventEntity, EventEntity], work=ExtData[1]->WorkLocal[10]
  3: 0x0537 [0x53] WAIT_SCHEDULER_TASK: Wait for scheduler "sha0" with entities [EventEntity, EventEntity]
  4: 0x0544 [0x00] END_REQSTACK()
```

### Event 65535.42

#### Metadata

| Field        | Value    |
|--------------|----------|
| Entrypoint   | 0x0545   |
| Data Size    | 37 bytes |
| Instructions | 5        |

```
      00 01 02 03 04 05 06 07  08 09 0A 0B 0C 0D 0E 0F
      -- -- -- -- -- -- -- --  -- -- -- -- -- -- -- --
0540:                03 09 00  07 7F 1A BC 05 66 0A 00       ........f..
0550: F8 FF FF 7F F8 FF FF 7F  73 68 61 31 53 F8 FF FF  ........sha1S...
0560: 7F F8 FF FF 7F 73 68 61  31 00                    .....sha1.      
```

#### Opcodes

```
  0: 0x0545 [0x03] ExtData[1]->WorkLocal[9] = Entity->Race
  1: 0x054A [0x1A] CALL_SUBROUTINE(address=0x05BC)
  2: 0x054D [0x66] LOAD_EXT_SCHEDULER_MAIN: Load scheduler "sha1" with entities [EventEntity, EventEntity], work=ExtData[1]->WorkLocal[10]
  3: 0x055C [0x53] WAIT_SCHEDULER_TASK: Wait for scheduler "sha1" with entities [EventEntity, EventEntity]
  4: 0x0569 [0x00] END_REQSTACK()
```

### Event 65535.43

#### Metadata

| Field        | Value   |
|--------------|---------|
| Entrypoint   | 0x056A  |
| Data Size    | 7 bytes |
| Instructions | 3       |

```
      00 01 02 03 04 05 06 07  08 09 0A 0B 0C 0D 0E 0F
      -- -- -- -- -- -- -- --  -- -- -- -- -- -- -- --
0560:                                AB 03 AC 01 2D 80            ....-.
0570: 00                                                .               
```

#### Opcodes

```
  0: 0x056A [0xAB] EventEntity->Render.Flags0 ^= 0x20000 // Toggle bit 17
  1: 0x056C [0xAC] EventEntity->StatusEvent = 1*
  2: 0x0570 [0x00] END_REQSTACK()
```

### Event 65535.44

#### Metadata

| Field        | Value   |
|--------------|---------|
| Entrypoint   | 0x0571  |
| Data Size    | 7 bytes |
| Instructions | 3       |

```
      00 01 02 03 04 05 06 07  08 09 0A 0B 0C 0D 0E 0F
      -- -- -- -- -- -- -- --  -- -- -- -- -- -- -- --
0570:    AC 01 02 80 AB 04 00                            .......        
```

#### Opcodes

```
  0: 0x0571 [0xAC] EventEntity->StatusEvent = 0*
  1: 0x0575 [0xAB] EventEntity->Render.Flags0 |= 0x40000 // Set bit 18
  2: 0x0577 [0x00] END_REQSTACK()
```

### Event 65535.45

#### Metadata

| Field        | Value    |
|--------------|----------|
| Entrypoint   | 0x0578   |
| Data Size    | 13 bytes |
| Instructions | 3        |

```
      00 01 02 03 04 05 06 07  08 09 0A 0B 0C 0D 0E 0F
      -- -- -- -- -- -- -- --  -- -- -- -- -- -- -- --
0570:                          6E F0 FF FF 7F 62 80 99          n....b..
0580: F0 FF FF 7F 00                                    .....           
```

#### Opcodes

```
  0: 0x0578 [0x6E] LocalPlayer uses emote 43*
  1: 0x057F [0x99] Wait for LocalPlayer animation to complete
  2: 0x0584 [0x00] END_REQSTACK()
```

### Event 65535.46

#### Metadata

| Field        | Value    |
|--------------|----------|
| Entrypoint   | 0x0585   |
| Data Size    | 27 bytes |
| Instructions | 5        |

```
      00 01 02 03 04 05 06 07  08 09 0A 0B 0C 0D 0E 0F
      -- -- -- -- -- -- -- --  -- -- -- -- -- -- -- --
0580:                03 09 00  07 7F 1A E1 05 0B 0A 00       ...........
0590: 66 0A 00 F8 FF FF 7F F8  FF FF 7F 70 61 73 30 00  f..........pas0.
```

#### Opcodes

```
  0: 0x0585 [0x03] ExtData[1]->WorkLocal[9] = Entity->Race
  1: 0x058A [0x1A] CALL_SUBROUTINE(address=0x05E1)
  2: 0x058D [0x0B] ExtData[1]->WorkLocal[10]++
  3: 0x0590 [0x66] LOAD_EXT_SCHEDULER_MAIN: Load scheduler "pas0" with entities [EventEntity, EventEntity], work=ExtData[1]->WorkLocal[10]
  4: 0x059F [0x00] END_REQSTACK()
```

### Event 65535.47

#### Metadata

| Field        | Value   |
|--------------|---------|
| Entrypoint   | 0x05A0  |
| Data Size    | 6 bytes |
| Instructions | 2       |

```
      00 01 02 03 04 05 06 07  08 09 0A 0B 0C 0D 0E 0F
      -- -- -- -- -- -- -- --  -- -- -- -- -- -- -- --
05A0: 03 09 10 07 7F 00                                 ......          
```

#### Opcodes

```
  0: 0x05A0 [0x03] Work_Zone[9] = Entity->Race
  1: 0x05A5 [0x00] END_REQSTACK()
```

### Event 65535.48

#### Metadata

| Field        | Value     |
|--------------|-----------|
| Entrypoint   | 0x05A6    |
| Data Size    | 170 bytes |
| Instructions | 8         |

```
      00 01 02 03 04 05 06 07  08 09 0A 0B 0C 0D 0E 0F
      -- -- -- -- -- -- -- --  -- -- -- -- -- -- -- --
05A0:                   32 07  80 1F 00 63 80 64 80 02        2....c.d..
05B0: 80 1F 01 6F 1E 8A 01 05  01 6F 70 00 03 0A 00 09  ...o.....op.....
05C0: 00 02 0A 00 4C 80 05 D1  05 08 0A 00 2D 80 01 D6  ....L.......-...
05D0: 05 08 0A 00 30 80 14 0A  00 65 80 07 0A 00 66 80  ....0....e....f.
05E0: 1B 03 0A 00 09 00 02 0A  00 4C 80 05 F6 05 08 0A  .........L......
05F0: 00 2D 80 01 FB 05 08 0A  00 30 80 14 0A 00 65 80  .-.......0....e.
0600: 07 0A 00 67 80 1B 03 0A  00 09 00 02 0A 00 4C 80  ...g..........L.
0610: 05 1B 06 08 0A 00 2D 80  01 20 06 08 0A 00 30 80  ......-.. ....0.
0620: 14 0A 00 65 80 07 0A 00  68 80 1B 03 0A 00 09 00  ...e....h.......
0630: 02 0A 00 4C 80 05 40 06  08 0A 00 2D 80 01 45 06  ...L..@....-..E.
0640: 08 0A 00 30 80 14 0A 00  65 80 07 0A 00 69 80 1B  ...0....e....i..
```

#### Opcodes

```
  0: 0x05A6 [0x32] ExtData[1]->MainSpeed = 13* * 0.1
  1: 0x05A9 [0x1F] MOVE_ENTITY: EventEntity moves to X=-32.398*, Z=25.538*, Y=0.000*
  2: 0x05B1 [0x1F] MOVE_ENTITY: Update entity position (mode=1)
  3: 0x05B3 [0x6F] WAIT_FRAME_DELAY: Yield until WaitTime reaches zero
  4: 0x05B4 [0x1E] EventEntity looks at Valaineral R Davilles (ID: 17105290/0x0105018A) and starts talking
  5: 0x05B9 [0x6F] WAIT_FRAME_DELAY: Yield until WaitTime reaches zero
  6: 0x05BA [0x70] WAIT_ENTITY_RENDER_FLAG: Wait while EventEntity->Render.Flags3 bit 2 is set (cancel turn if not)
  7: 0x05BB [0x00] END_REQSTACK()
```

#### Data or dead code:

```
# Dead code (unreachable instructions):
     0x05BC [0x03] ExtData[1]->WorkLocal[10] = ExtData[1]->WorkLocal[9]
     0x05C1 [0x02] IF !(ExtData[1]->WorkLocal[10] > 5*) GOTO 0x05D1
     0x05C9 [0x08] ExtData[1]->WorkLocal[10] -= 1*
     0x05CE [0x01] GOTO 0x05D6
     0x05D1 [0x08] ExtData[1]->WorkLocal[10] -= 2*
     0x05D6 [0x14] ExtData[1]->WorkLocal[10] *= 10*
     0x05DB [0x07] ExtData[1]->WorkLocal[10] += 9*
     0x05E0 [0x1B] RETURN
     0x05E1 [0x03] ExtData[1]->WorkLocal[10] = ExtData[1]->WorkLocal[9]
     0x05E6 [0x02] IF !(ExtData[1]->WorkLocal[10] > 5*) GOTO 0x05F6
     0x05EE [0x08] ExtData[1]->WorkLocal[10] -= 1*
     0x05F3 [0x01] GOTO 0x05FB
     0x05F6 [0x08] ExtData[1]->WorkLocal[10] -= 2*
     0x05FB [0x14] ExtData[1]->WorkLocal[10] *= 10*
     0x0600 [0x07] ExtData[1]->WorkLocal[10] += 70*
     0x0605 [0x1B] RETURN
     0x0606 [0x03] ExtData[1]->WorkLocal[10] = ExtData[1]->WorkLocal[9]
     0x060B [0x02] IF !(ExtData[1]->WorkLocal[10] > 5*) GOTO 0x061B
     0x0613 [0x08] ExtData[1]->WorkLocal[10] -= 1*
     0x0618 [0x01] GOTO 0x0620
     0x061B [0x08] ExtData[1]->WorkLocal[10] -= 2*
     0x0620 [0x14] ExtData[1]->WorkLocal[10] *= 10*
     0x0625 [0x07] ExtData[1]->WorkLocal[10] += 140*
     0x062A [0x1B] RETURN
     0x062B [0x03] ExtData[1]->WorkLocal[10] = ExtData[1]->WorkLocal[9]
     0x0630 [0x02] IF !(ExtData[1]->WorkLocal[10] > 5*) GOTO 0x0640
     0x0638 [0x08] ExtData[1]->WorkLocal[10] -= 1*
     0x063D [0x01] GOTO 0x0645
     0x0640 [0x08] ExtData[1]->WorkLocal[10] -= 2*
     0x0645 [0x14] ExtData[1]->WorkLocal[10] *= 10*
     0x064A [0x07] ExtData[1]->WorkLocal[10] += 210*
     0x064F [0x1B] RETURN
```

### Event 65535.49

#### Metadata

| Field        | Value    |
|--------------|----------|
| Entrypoint   | 0x0650   |
| Data Size    | 20 bytes |
| Instructions | 5        |

```
      00 01 02 03 04 05 06 07  08 09 0A 0B 0C 0D 0E 0F
      -- -- -- -- -- -- -- --  -- -- -- -- -- -- -- --
0650: 59 04 F0 FF FF 7F 07 80  1F 00 6A 80 6B 80 0C 80  Y.........j.k...
0660: 1F 01 6F 00                                       ..o.            
```

#### Opcodes

```
  0: 0x0650 [0x59] UPDATE_ENTITY_DATA: Set LocalPlayer main speed = 13* * 0.1
  1: 0x0658 [0x1F] MOVE_ENTITY: EventEntity moves to X=-163.864*, Z=60.923*, Y=-2.000*
  2: 0x0660 [0x1F] MOVE_ENTITY: Update entity position (mode=1)
  3: 0x0662 [0x6F] WAIT_FRAME_DELAY: Yield until WaitTime reaches zero
  4: 0x0663 [0x00] END_REQSTACK()
```

### Event 65535.50

#### Metadata

| Field        | Value    |
|--------------|----------|
| Entrypoint   | 0x0664   |
| Data Size    | 20 bytes |
| Instructions | 5        |

```
      00 01 02 03 04 05 06 07  08 09 0A 0B 0C 0D 0E 0F
      -- -- -- -- -- -- -- --  -- -- -- -- -- -- -- --
0660:             59 04 F0 FF  FF 7F 07 80 1F 00 6C 80      Y.........l.
0670: 6D 80 0C 80 1F 01 6F 00                           m.....o.        
```

#### Opcodes

```
  0: 0x0664 [0x59] UPDATE_ENTITY_DATA: Set LocalPlayer main speed = 13* * 0.1
  1: 0x066C [0x1F] MOVE_ENTITY: EventEntity moves to X=-164.011*, Z=63.440*, Y=-2.000*
  2: 0x0674 [0x1F] MOVE_ENTITY: Update entity position (mode=1)
  3: 0x0676 [0x6F] WAIT_FRAME_DELAY: Yield until WaitTime reaches zero
  4: 0x0677 [0x00] END_REQSTACK()
```

### Event 65535.51

#### Metadata

| Field        | Value    |
|--------------|----------|
| Entrypoint   | 0x0678   |
| Data Size    | 21 bytes |
| Instructions | 5        |

```
      00 01 02 03 04 05 06 07  08 09 0A 0B 0C 0D 0E 0F
      -- -- -- -- -- -- -- --  -- -- -- -- -- -- -- --
0670:                          1F 00 6E 80 6F 80 51 80          ..n.o.Q.
0680: 1F 01 6F 4A F0 FF FF 7F  67 02 05 01 00           ..oJ....g....   
```

#### Opcodes

```
  0: 0x0678 [0x1F] MOVE_ENTITY: EventEntity moves to X=-56.219*, Z=-9.792*, Y=1.999*
  1: 0x0680 [0x1F] MOVE_ENTITY: Update entity position (mode=1)
  2: 0x0682 [0x6F] WAIT_FRAME_DELAY: Yield until WaitTime reaches zero
  3: 0x0683 [0x4A] LocalPlayer looks at Hauberliond (ID: 17105511/0x01050267)
  4: 0x068C [0x00] END_REQSTACK()
```

### Event 65535.52

#### Metadata

| Field        | Value    |
|--------------|----------|
| Entrypoint   | 0x068D   |
| Data Size    | 30 bytes |
| Instructions | 4        |

```
      00 01 02 03 04 05 06 07  08 09 0A 0B 0C 0D 0E 0F
      -- -- -- -- -- -- -- --  -- -- -- -- -- -- -- --
0680:                                         7E 06 F8               ~..
0690: FF FF 7F 02 80 02 80 02  80 2D 80 2D 80 2D 80 7E  .........-.-.-.~
06A0: 04 F8 FF FF 7F 80 F8 FF  FF 7F 00                 ...........     
```

#### Opcodes

```
  0: 0x068D [0x7E] CHOCOBO_MOUNT: Mode 6 (custom mount) on EventEntity
  1: 0x069F [0x7E] CHOCOBO_MOUNT: Mode 4 on EventEntity
  2: 0x06A5 [0x80] LOAD_WAIT(entity=EventEntity)
  3: 0x06AA [0x00] END_REQSTACK()
```

### Event 65535.53

#### Metadata

| Field        | Value    |
|--------------|----------|
| Entrypoint   | 0x06AB   |
| Data Size    | 30 bytes |
| Instructions | 4        |

```
      00 01 02 03 04 05 06 07  08 09 0A 0B 0C 0D 0E 0F
      -- -- -- -- -- -- -- --  -- -- -- -- -- -- -- --
06A0:                                   7E 06 F8 FF FF             ~....
06B0: 7F 2D 80 02 80 02 80 2D  80 2D 80 2D 80 7E 04 F8  .-.....-.-.-.~..
06C0: FF FF 7F 80 F8 FF FF 7F  00                       .........       
```

#### Opcodes

```
  0: 0x06AB [0x7E] CHOCOBO_MOUNT: Mode 6 (custom mount) on EventEntity
  1: 0x06BD [0x7E] CHOCOBO_MOUNT: Mode 4 on EventEntity
  2: 0x06C3 [0x80] LOAD_WAIT(entity=EventEntity)
  3: 0x06C8 [0x00] END_REQSTACK()
```

### Event 65535.54

#### Metadata

| Field        | Value    |
|--------------|----------|
| Entrypoint   | 0x06C9   |
| Data Size    | 30 bytes |
| Instructions | 4        |

```
      00 01 02 03 04 05 06 07  08 09 0A 0B 0C 0D 0E 0F
      -- -- -- -- -- -- -- --  -- -- -- -- -- -- -- --
06C0:                             7E 06 F8 FF FF 7F 30           ~.....0
06D0: 80 02 80 02 80 2D 80 2D  80 2D 80 7E 04 F8 FF FF  .....-.-.-.~....
06E0: 7F 80 F8 FF FF 7F 00                              .......         
```

#### Opcodes

```
  0: 0x06C9 [0x7E] CHOCOBO_MOUNT: Mode 6 (custom mount) on EventEntity
  1: 0x06DB [0x7E] CHOCOBO_MOUNT: Mode 4 on EventEntity
  2: 0x06E1 [0x80] LOAD_WAIT(entity=EventEntity)
  3: 0x06E6 [0x00] END_REQSTACK()
```

### Event 65535.55

#### Metadata

| Field        | Value    |
|--------------|----------|
| Entrypoint   | 0x06E7   |
| Data Size    | 30 bytes |
| Instructions | 4        |

```
      00 01 02 03 04 05 06 07  08 09 0A 0B 0C 0D 0E 0F
      -- -- -- -- -- -- -- --  -- -- -- -- -- -- -- --
06E0:                      7E  06 F8 FF FF 7F 31 80 02         ~.....1..
06F0: 80 02 80 2D 80 2D 80 2D  80 7E 04 F8 FF FF 7F 80  ...-.-.-.~......
0700: F8 FF FF 7F 00                                    .....           
```

#### Opcodes

```
  0: 0x06E7 [0x7E] CHOCOBO_MOUNT: Mode 6 (custom mount) on EventEntity
  1: 0x06F9 [0x7E] CHOCOBO_MOUNT: Mode 4 on EventEntity
  2: 0x06FF [0x80] LOAD_WAIT(entity=EventEntity)
  3: 0x0704 [0x00] END_REQSTACK()
```

### Event 65535.56

#### Metadata

| Field        | Value    |
|--------------|----------|
| Entrypoint   | 0x0705   |
| Data Size    | 30 bytes |
| Instructions | 4        |

```
      00 01 02 03 04 05 06 07  08 09 0A 0B 0C 0D 0E 0F
      -- -- -- -- -- -- -- --  -- -- -- -- -- -- -- --
0700:                7E 06 F8  FF FF 7F 70 80 02 80 02       ~.....p....
0710: 80 2D 80 2D 80 2D 80 7E  04 F8 FF FF 7F 80 F8 FF  .-.-.-.~........
0720: FF 7F 00                                          ...             
```

#### Opcodes

```
  0: 0x0705 [0x7E] CHOCOBO_MOUNT: Mode 6 (custom mount) on EventEntity
  1: 0x0717 [0x7E] CHOCOBO_MOUNT: Mode 4 on EventEntity
  2: 0x071D [0x80] LOAD_WAIT(entity=EventEntity)
  3: 0x0722 [0x00] END_REQSTACK()
```

### Event 65535.57

#### Metadata

| Field        | Value    |
|--------------|----------|
| Entrypoint   | 0x0723   |
| Data Size    | 21 bytes |
| Instructions | 5        |

```
      00 01 02 03 04 05 06 07  08 09 0A 0B 0C 0D 0E 0F
      -- -- -- -- -- -- -- --  -- -- -- -- -- -- -- --
0720:          1F 00 71 80 72  80 56 80 1F 01 6F 4A F0     ..q.r.V...oJ.
0730: FF FF 7F D5 02 05 01 00                           ........        
```

#### Opcodes

```
  0: 0x0723 [0x1F] MOVE_ENTITY: EventEntity moves to X=97.487*, Z=-43.062*, Y=1.000*
  1: 0x072B [0x1F] MOVE_ENTITY: Update entity position (mode=1)
  2: 0x072D [0x6F] WAIT_FRAME_DELAY: Yield until WaitTime reaches zero
  3: 0x072E [0x4A] LocalPlayer looks at Lehko Habhoka (ID: 17105621/0x010502D5)
  4: 0x0737 [0x00] END_REQSTACK()
```

### Event 65535.58

#### Metadata

| Field        | Value   |
|--------------|---------|
| Entrypoint   | 0x0738  |
| Data Size    | 7 bytes |
| Instructions | 2       |

```
      00 01 02 03 04 05 06 07  08 09 0A 0B 0C 0D 0E 0F
      -- -- -- -- -- -- -- --  -- -- -- -- -- -- -- --
0730:                          7E 05 F8 FF FF 7F 00             ~...... 
```

#### Opcodes

```
  0: 0x0738 [0x7E] CHOCOBO_MOUNT: Dismount EventEntity (status = 0)
  1: 0x073E [0x00] END_REQSTACK()
```

### Event 65535.59

#### Metadata

| Field        | Value    |
|--------------|----------|
| Entrypoint   | 0x073F   |
| Data Size    | 21 bytes |
| Instructions | 5        |

```
      00 01 02 03 04 05 06 07  08 09 0A 0B 0C 0D 0E 0F
      -- -- -- -- -- -- -- --  -- -- -- -- -- -- -- --
0730:                                               1F                 .
0740: 00 73 80 74 80 02 80 1F  01 6F 4A F0 FF FF 7F 8B  .s.t.....oJ.....
0750: 02 05 01 00                                       ....            
```

#### Opcodes

```
  0: 0x073F [0x1F] MOVE_ENTITY: EventEntity moves to X=92.069*, Z=113.211*, Y=0.000*
  1: 0x0747 [0x1F] MOVE_ENTITY: Update entity position (mode=1)
  2: 0x0749 [0x6F] WAIT_FRAME_DELAY: Yield until WaitTime reaches zero
  3: 0x074A [0x4A] LocalPlayer looks at Mayakov (ID: 17105547/0x0105028B)
  4: 0x0753 [0x00] END_REQSTACK()
```

### Event 65535.60

#### Metadata

| Field        | Value    |
|--------------|----------|
| Entrypoint   | 0x0754   |
| Data Size    | 11 bytes |
| Instructions | 3        |

```
      00 01 02 03 04 05 06 07  08 09 0A 0B 0C 0D 0E 0F
      -- -- -- -- -- -- -- --  -- -- -- -- -- -- -- --
0750:             1F 00 75 80  76 80 02 80 1F 01 00         ..u.v...... 
```

#### Opcodes

```
  0: 0x0754 [0x1F] MOVE_ENTITY: EventEntity moves to X=95.086*, Z=110.373*, Y=0.000*
  1: 0x075C [0x1F] MOVE_ENTITY: Update entity position (mode=1)
  2: 0x075E [0x00] END_REQSTACK()
```

### Event 65535.61

#### Metadata

| Field        | Value    |
|--------------|----------|
| Entrypoint   | 0x075F   |
| Data Size    | 12 bytes |
| Instructions | 3        |

```
      00 01 02 03 04 05 06 07  08 09 0A 0B 0C 0D 0E 0F
      -- -- -- -- -- -- -- --  -- -- -- -- -- -- -- --
0750:                                               7E                 ~
0760: 05 F8 FF FF 7F 80 F8 FF  FF 7F 00                 ...........     
```

#### Opcodes

```
  0: 0x075F [0x7E] CHOCOBO_MOUNT: Dismount EventEntity (status = 0)
  1: 0x0765 [0x80] LOAD_WAIT(entity=EventEntity)
  2: 0x076A [0x00] END_REQSTACK()
```

### Event 65535.62

#### Metadata

| Field        | Value    |
|--------------|----------|
| Entrypoint   | 0x076B   |
| Data Size    | 16 bytes |
| Instructions | 3        |

```
      00 01 02 03 04 05 06 07  08 09 0A 0B 0C 0D 0E 0F
      -- -- -- -- -- -- -- --  -- -- -- -- -- -- -- --
0760:                                   6C F0 FF FF 7F             l....
0770: 02 80 2D 80 92 01 F0 FF  FF 7F 00                 ..-........     
```

#### Opcodes

```
  0: 0x076B [0x6C] FADE_ENTITY_COLOR(entity_id=LocalPlayer, end_alpha=0*, fade_time=1*)
  1: 0x0774 [0x92] LocalPlayer->Render.Flags3 ^= 0x01
  2: 0x077A [0x00] END_REQSTACK()
```

### Event 65535.63

#### Metadata

| Field        | Value    |
|--------------|----------|
| Entrypoint   | 0x077B   |
| Data Size    | 16 bytes |
| Instructions | 3        |

```
      00 01 02 03 04 05 06 07  08 09 0A 0B 0C 0D 0E 0F
      -- -- -- -- -- -- -- --  -- -- -- -- -- -- -- --
0770:                                   6C F0 FF FF 7F             l....
0780: 77 80 2D 80 92 00 F0 FF  FF 7F 00                 w.-........     
```

#### Opcodes

```
  0: 0x077B [0x6C] FADE_ENTITY_COLOR(entity_id=LocalPlayer, end_alpha=128*, fade_time=1*)
  1: 0x0784 [0x92] LocalPlayer->Render.Flags3 = Flags3  // No change (flag=0)
  2: 0x078A [0x00] END_REQSTACK()
```

### Event 65535.64

#### Metadata

| Field        | Value    |
|--------------|----------|
| Entrypoint   | 0x078B   |
| Data Size    | 38 bytes |
| Instructions | 5        |

```
      00 01 02 03 04 05 06 07  08 09 0A 0B 0C 0D 0E 0F
      -- -- -- -- -- -- -- --  -- -- -- -- -- -- -- --
0780:                                   22 00 2F 00 F8             "./..
0790: FF FF 7F B6 0B 44 80 02  80 45 80 46 80 47 80 47  .....D...E.F.G.G
07A0: 80 47 80 48 80 49 80 6C  F8 FF FF 7F 4D 80 2D 80  .G.H.I.l....M.-.
07B0: 00                                                .               
```

#### Opcodes

```
  0: 0x078B [0x22] ENTITY_HIDE_FLAG(enabled=0x00)
  1: 0x078D [0x2F] EventEntity->Render.Flags0 &= ~0x80000 // Bit 19
  2: 0x0793 [0xB6] ENTITY_APPEARANCE_HANDLER(case=Full entity look, race=8*, hair=0*, head=145*, body=79*, hands=76*, legs=76*, feet=76*, main=201*, sub=24*)
  3: 0x07A7 [0x6C] FADE_ENTITY_COLOR(entity_id=EventEntity, end_alpha=64*, fade_time=1*)
  4: 0x07B0 [0x00] END_REQSTACK()
```

### Event 65535.65

#### Metadata

| Field        | Value    |
|--------------|----------|
| Entrypoint   | 0x07B1   |
| Data Size    | 38 bytes |
| Instructions | 5        |

```
      00 01 02 03 04 05 06 07  08 09 0A 0B 0C 0D 0E 0F
      -- -- -- -- -- -- -- --  -- -- -- -- -- -- -- --
07B0:    22 00 2F 00 F8 FF FF  7F B6 0B 70 80 02 80 45   "./.......p...E
07C0: 80 46 80 47 80 47 80 47  80 48 80 49 80 6C F8 FF  .F.G.G.G.H.I.l..
07D0: FF 7F 78 80 2D 80 00                              ..x.-..         
```

#### Opcodes

```
  0: 0x07B1 [0x22] ENTITY_HIDE_FLAG(enabled=0x00)
  1: 0x07B3 [0x2F] EventEntity->Render.Flags0 &= ~0x80000 // Bit 19
  2: 0x07B9 [0xB6] ENTITY_APPEARANCE_HANDLER(case=Full entity look, race=4*, hair=0*, head=145*, body=79*, hands=76*, legs=76*, feet=76*, main=201*, sub=24*)
  3: 0x07CD [0x6C] FADE_ENTITY_COLOR(entity_id=EventEntity, end_alpha=80*, fade_time=1*)
  4: 0x07D6 [0x00] END_REQSTACK()
```

### Event 65535.66

#### Metadata

| Field        | Value    |
|--------------|----------|
| Entrypoint   | 0x07D7   |
| Data Size    | 38 bytes |
| Instructions | 5        |

```
      00 01 02 03 04 05 06 07  08 09 0A 0B 0C 0D 0E 0F
      -- -- -- -- -- -- -- --  -- -- -- -- -- -- -- --
07D0:                      22  00 2F 00 F8 FF FF 7F B6         "./......
07E0: 0B 4C 80 02 80 45 80 46  80 47 80 47 80 47 80 48  .L...E.F.G.G.G.H
07F0: 80 49 80 6C F8 FF FF 7F  79 80 2D 80 00           .I.l....y.-..   
```

#### Opcodes

```
  0: 0x07D7 [0x22] ENTITY_HIDE_FLAG(enabled=0x00)
  1: 0x07D9 [0x2F] EventEntity->Render.Flags0 &= ~0x80000 // Bit 19
  2: 0x07DF [0xB6] ENTITY_APPEARANCE_HANDLER(case=Full entity look, race=5*, hair=0*, head=145*, body=79*, hands=76*, legs=76*, feet=76*, main=201*, sub=24*)
  3: 0x07F3 [0x6C] FADE_ENTITY_COLOR(entity_id=EventEntity, end_alpha=96*, fade_time=1*)
  4: 0x07FC [0x00] END_REQSTACK()
```

### Event 65535.67

#### Metadata

| Field        | Value    |
|--------------|----------|
| Entrypoint   | 0x07FD   |
| Data Size    | 24 bytes |
| Instructions | 5        |

```
      00 01 02 03 04 05 06 07  08 09 0A 0B 0C 0D 0E 0F
      -- -- -- -- -- -- -- --  -- -- -- -- -- -- -- --
07F0:                                         32 07 80               2..
0800: 1F 00 7A 80 7B 80 51 80  1F 01 79 00 F0 FF FF 7F  ..z.{.Q...y.....
0810: ED 01 05 01 00                                    .....           
```

#### Opcodes

```
  0: 0x07FD [0x32] ExtData[1]->MainSpeed = 13* * 0.1
  1: 0x0800 [0x1F] MOVE_ENTITY: EventEntity moves to X=-1.950*, Z=-19.950*, Y=1.999*
  2: 0x0808 [0x1F] MOVE_ENTITY: Update entity position (mode=1)
  3: 0x080A [0x79] LocalPlayer looks at Rongelouts N Distaud (ID: 17105389/0x010501ED) (Basic look)
  4: 0x0814 [0x00] END_REQSTACK()
```

### Event 169

#### Metadata

| Field        | Value   |
|--------------|---------|
| Entrypoint   | 0x0815  |
| Data Size    | 1 bytes |
| Instructions | 1       |

```
      00 01 02 03 04 05 06 07  08 09 0A 0B 0C 0D 0E 0F
      -- -- -- -- -- -- -- --  -- -- -- -- -- -- -- --
0810:                00                                      .          
```

#### Opcodes

```
  0: 0x0815 [0x00] END_REQSTACK()
```

### Event 65535.68

#### Metadata

| Field        | Value    |
|--------------|----------|
| Entrypoint   | 0x0816   |
| Data Size    | 14 bytes |
| Instructions | 4        |

```
      00 01 02 03 04 05 06 07  08 09 0A 0B 0C 0D 0E 0F
      -- -- -- -- -- -- -- --  -- -- -- -- -- -- -- --
0810:                   32 65  80 1F 00 7C 80 7D 80 29        2e...|.}.)
0820: 80 1F 01 00                                       ....            
```

#### Opcodes

```
  0: 0x0816 [0x32] ExtData[1]->MainSpeed = 10* * 0.1
  1: 0x0819 [0x1F] MOVE_ENTITY: EventEntity moves to X=90.503*, Z=99.503*, Y=0.999*
  2: 0x0821 [0x1F] MOVE_ENTITY: Update entity position (mode=1)
  3: 0x0823 [0x00] END_REQSTACK()
```

### Event 65535.69

#### Metadata

| Field        | Value    |
|--------------|----------|
| Entrypoint   | 0x0824   |
| Data Size    | 23 bytes |
| Instructions | 6        |

```
      00 01 02 03 04 05 06 07  08 09 0A 0B 0C 0D 0E 0F
      -- -- -- -- -- -- -- --  -- -- -- -- -- -- -- --
0820:             32 7E 80 1F  00 02 80 7F 80 51 80 1F      2~.......Q..
0830: 01 1E ED 01 05 01 1C 5B  80 00 00                 .......[...     
```

#### Opcodes

```
  0: 0x0824 [0x32] ExtData[1]->MainSpeed = 35* * 0.1
  1: 0x0827 [0x1F] MOVE_ENTITY: EventEntity moves to X=0.000*, Z=-14.847*, Y=1.999*
  2: 0x082F [0x1F] MOVE_ENTITY: Update entity position (mode=1)
  3: 0x0831 [0x1E] EventEntity looks at Rongelouts N Distaud (ID: 17105389/0x010501ED) and starts talking
  4: 0x0836 [0x1C] WAIT(60* ticks)
  5: 0x0839 [0x00] END_REQSTACK()
```

#### Data or dead code:

```
# Dead code (unreachable instructions):
     0x083A [0x00] END_REQSTACK()
```

### Event 65535.70

#### Metadata

| Field        | Value    |
|--------------|----------|
| Entrypoint   | 0x083B   |
| Data Size    | 16 bytes |
| Instructions | 5        |

```
      00 01 02 03 04 05 06 07  08 09 0A 0B 0C 0D 0E 0F
      -- -- -- -- -- -- -- --  -- -- -- -- -- -- -- --
0830:                                   32 07 80 1F 00             2....
0840: 02 80 80 80 51 80 1F 01  6F 00 00                 ....Q...o..     
```

#### Opcodes

```
  0: 0x083B [0x32] ExtData[1]->MainSpeed = 13* * 0.1
  1: 0x083E [0x1F] MOVE_ENTITY: EventEntity moves to X=0.000*, Z=-19.858*, Y=1.999*
  2: 0x0846 [0x1F] MOVE_ENTITY: Update entity position (mode=1)
  3: 0x0848 [0x6F] WAIT_FRAME_DELAY: Yield until WaitTime reaches zero
  4: 0x0849 [0x00] END_REQSTACK()
```

#### Data or dead code:

```
# Dead code (unreachable instructions):
     0x084A [0x00] END_REQSTACK()
```

### Event 65535.71

#### Metadata

| Field        | Value    |
|--------------|----------|
| Entrypoint   | 0x084B   |
| Data Size    | 37 bytes |
| Instructions | 5        |

```
      00 01 02 03 04 05 06 07  08 09 0A 0B 0C 0D 0E 0F
      -- -- -- -- -- -- -- --  -- -- -- -- -- -- -- --
0840:                                   C5 47 80 F7 02             .G...
0850: 05 01 F7 02 05 01 6D 61  69 6E 02 80 1C 5B 80 2C  ......main...[.,
0860: F7 02 05 01 F7 02 05 01  64 65 61 64 1C 81 80 00  ........dead....
```

#### Opcodes

```
  0: 0x084B [0xC5] LOAD_SCHEDULED_TASK_ALT3: Load scheduler 0x80026E69 for entities [Unnamed NPC (ID: 17105655/0x010502F7), Unnamed NPC (ID: 17105655/0x010502F7)], work=76*, param=24941
  1: 0x085C [0x1C] WAIT(60* ticks)
  2: 0x085F [0x2C] CREATE_SCHEDULER_TASK: Create scheduler "dead" with entities [Unnamed NPC (ID: 17105655/0x010502F7), Unnamed NPC (ID: 17105655/0x010502F7)]
  3: 0x086C [0x1C] WAIT(150* ticks)
  4: 0x086F [0x00] END_REQSTACK()
```

### Event 65535.72

#### Metadata

| Field        | Value    |
|--------------|----------|
| Entrypoint   | 0x0870   |
| Data Size    | 78 bytes |
| Instructions | 8        |

```
      00 01 02 03 04 05 06 07  08 09 0A 0B 0C 0D 0E 0F
      -- -- -- -- -- -- -- --  -- -- -- -- -- -- -- --
0870: C5 82 80 F9 02 05 01 F9  02 05 01 73 30 30 30 02  ...........s000.
0880: 80 1C 1D 80 C5 83 80 F9  02 05 01 F5 02 05 01 6D  ...............m
0890: 61 69 6E 02 80 1C 5B 80  C5 82 80 F9 02 05 01 F9  ain...[.........
08A0: 02 05 01 73 30 30 31 02  80 1C 84 80 C5 82 80 F9  ...s001.........
08B0: 02 05 01 F9 02 05 01 6B  69 6C 61 02 80 00        .......kila...  
```

#### Opcodes

```
  0: 0x0870 [0xC5] LOAD_SCHEDULED_TASK_ALT3: Load scheduler 0x80023030 for entities [Unnamed NPC (ID: 17105657/0x010502F9), Unnamed NPC (ID: 17105657/0x010502F9)], work=16*, param=12403
  1: 0x0881 [0x1C] WAIT(30* ticks)
  2: 0x0884 [0xC5] LOAD_SCHEDULED_TASK_ALT3: Load scheduler 0x80026E69 for entities [Unnamed NPC (ID: 17105657/0x010502F9), Unnamed NPC (ID: 17105653/0x010502F5)], work=153*, param=24941
  3: 0x0895 [0x1C] WAIT(60* ticks)
  4: 0x0898 [0xC5] LOAD_SCHEDULED_TASK_ALT3: Load scheduler 0x80023130 for entities [Unnamed NPC (ID: 17105657/0x010502F9), Unnamed NPC (ID: 17105657/0x010502F9)], work=16*, param=12403
  5: 0x08A9 [0x1C] WAIT(120* ticks)
  6: 0x08AC [0xC5] LOAD_SCHEDULED_TASK_ALT3: Load scheduler 0x8002616C for entities [Unnamed NPC (ID: 17105657/0x010502F9), Unnamed NPC (ID: 17105657/0x010502F9)], work=16*, param=26987
  7: 0x08BD [0x00] END_REQSTACK()
```

### Event 65535.73

#### Metadata

| Field        | Value    |
|--------------|----------|
| Entrypoint   | 0x08BE   |
| Data Size    | 40 bytes |
| Instructions | 6        |

```
      00 01 02 03 04 05 06 07  08 09 0A 0B 0C 0D 0E 0F
      -- -- -- -- -- -- -- --  -- -- -- -- -- -- -- --
08B0:                                            1C 21                .!
08C0: 80 C5 00 80 F7 02 05 01  F9 02 05 01 6D 61 69 6E  ............main
08D0: 02 80 1C 21 80 2C F9 02  05 01 F9 02 05 01 64 65  ...!.,........de
08E0: 61 64 1C 5B 80 00                                 ad.[..          
```

#### Opcodes

```
  0: 0x08BE [0x1C] WAIT(90* ticks)
  1: 0x08C1 [0xC5] LOAD_SCHEDULED_TASK_ALT3: Load scheduler 0x80026E69 for entities [Unnamed NPC (ID: 17105655/0x010502F7), Unnamed NPC (ID: 17105657/0x010502F9)], work=154*, param=24941
  2: 0x08D2 [0x1C] WAIT(90* ticks)
  3: 0x08D5 [0x2C] CREATE_SCHEDULER_TASK: Create scheduler "dead" with entities [Unnamed NPC (ID: 17105657/0x010502F9), Unnamed NPC (ID: 17105657/0x010502F9)]
  4: 0x08E2 [0x1C] WAIT(60* ticks)
  5: 0x08E5 [0x00] END_REQSTACK()
```

### Event 65535.74

#### Metadata

| Field        | Value    |
|--------------|----------|
| Entrypoint   | 0x08E6   |
| Data Size    | 37 bytes |
| Instructions | 5        |

```
      00 01 02 03 04 05 06 07  08 09 0A 0B 0C 0D 0E 0F
      -- -- -- -- -- -- -- --  -- -- -- -- -- -- -- --
08E0:                   C5 47  80 F7 02 05 01 F7 02 05        .G........
08F0: 01 6D 61 69 6E 02 80 1C  5B 80 2C F7 02 05 01 F7  .main...[.,.....
0900: 02 05 01 64 65 61 64 1C  85 80 00                 ...dead....     
```

#### Opcodes

```
  0: 0x08E6 [0xC5] LOAD_SCHEDULED_TASK_ALT3: Load scheduler 0x80026E69 for entities [Unnamed NPC (ID: 17105655/0x010502F7), Unnamed NPC (ID: 17105655/0x010502F7)], work=76*, param=24941
  1: 0x08F7 [0x1C] WAIT(60* ticks)
  2: 0x08FA [0x2C] CREATE_SCHEDULER_TASK: Create scheduler "dead" with entities [Unnamed NPC (ID: 17105655/0x010502F7), Unnamed NPC (ID: 17105655/0x010502F7)]
  3: 0x0907 [0x1C] WAIT(180* ticks)
  4: 0x090A [0x00] END_REQSTACK()
```

### Event 65535.75

#### Metadata

| Field        | Value     |
|--------------|-----------|
| Entrypoint   | 0x090B    |
| Data Size    | 113 bytes |
| Instructions | 11        |

```
      00 01 02 03 04 05 06 07  08 09 0A 0B 0C 0D 0E 0F
      -- -- -- -- -- -- -- --  -- -- -- -- -- -- -- --
0900:                                   C5 82 80 F9 02             .....
0910: 05 01 F9 02 05 01 73 30  30 30 02 80 1C 1D 80 52  ......s000.....R
0920: 86 80 F0 FF FF 7F F0 FF  FF 7F 30 36 30 72 45 86  ..........060rE.
0930: 80 F0 FF FF 7F F0 FF FF  7F 30 36 30 73 02 80 C5  .........060s...
0940: 83 80 F9 02 05 01 F5 02  05 01 6D 61 69 6E 02 80  ..........main..
0950: 1C 5B 80 C5 82 80 F9 02  05 01 F9 02 05 01 73 30  .[............s0
0960: 30 31 02 80 1C 84 80 C5  82 80 F9 02 05 01 F9 02  01..............
0970: 05 01 6B 69 6C 61 02 80  1C 81 80 00              ..kila......    
```

#### Opcodes

```
  0: 0x090B [0xC5] LOAD_SCHEDULED_TASK_ALT3: Load scheduler 0x80023030 for entities [Unnamed NPC (ID: 17105657/0x010502F9), Unnamed NPC (ID: 17105657/0x010502F9)], work=16*, param=12403
  1: 0x091C [0x1C] WAIT(30* ticks)
  2: 0x091F [0x52] END_LOAD_SCHEDULER: End scheduler "060r" with entities [LocalPlayer, LocalPlayer], work=501*
  3: 0x092E [0x45] LOAD_SCHEDULED_TASK: Load scheduler "060s" with entities [LocalPlayer, LocalPlayer], work=[501*, 0*]
  4: 0x093F [0xC5] LOAD_SCHEDULED_TASK_ALT3: Load scheduler 0x80026E69 for entities [Unnamed NPC (ID: 17105657/0x010502F9), Unnamed NPC (ID: 17105653/0x010502F5)], work=153*, param=24941
  5: 0x0950 [0x1C] WAIT(60* ticks)
  6: 0x0953 [0xC5] LOAD_SCHEDULED_TASK_ALT3: Load scheduler 0x80023130 for entities [Unnamed NPC (ID: 17105657/0x010502F9), Unnamed NPC (ID: 17105657/0x010502F9)], work=16*, param=12403
  7: 0x0964 [0x1C] WAIT(120* ticks)
  8: 0x0967 [0xC5] LOAD_SCHEDULED_TASK_ALT3: Load scheduler 0x8002616C for entities [Unnamed NPC (ID: 17105657/0x010502F9), Unnamed NPC (ID: 17105657/0x010502F9)], work=16*, param=26987
  9: 0x0978 [0x1C] WAIT(150* ticks)
 10: 0x097B [0x00] END_REQSTACK()
```

### Event 65535.76

#### Metadata

| Field        | Value    |
|--------------|----------|
| Entrypoint   | 0x097C   |
| Data Size    | 90 bytes |
| Instructions | 10       |

```
      00 01 02 03 04 05 06 07  08 09 0A 0B 0C 0D 0E 0F
      -- -- -- -- -- -- -- --  -- -- -- -- -- -- -- --
0970:                                      4A F9 02 05              J...
0980: 01 F7 02 05 01 52 86 80  F0 FF FF 7F F0 FF FF 7F  .....R..........
0990: 30 36 30 73 45 86 80 F0  FF FF 7F F0 FF FF 7F 30  060sE..........0
09A0: 36 30 74 02 80 6C F7 02  05 01 77 80 5B 80 1C 5B  60t..l....w.[..[
09B0: 80 C5 00 80 F7 02 05 01  F9 02 05 01 6D 61 69 6E  ............main
09C0: 02 80 1C 21 80 2C F9 02  05 01 F9 02 05 01 64 65  ...!.,........de
09D0: 61 64 1C 81 80 00                                 ad....          
```

#### Opcodes

```
  0: 0x097C [0x4A] Unnamed NPC (ID: 17105657/0x010502F9) looks at Unnamed NPC (ID: 17105655/0x010502F7)
  1: 0x0985 [0x52] END_LOAD_SCHEDULER: End scheduler "060s" with entities [LocalPlayer, LocalPlayer], work=501*
  2: 0x0994 [0x45] LOAD_SCHEDULED_TASK: Load scheduler "060t" with entities [LocalPlayer, LocalPlayer], work=[501*, 0*]
  3: 0x09A5 [0x6C] FADE_ENTITY_COLOR(entity_id=Unnamed NPC (ID: 17105655/0x010502F7), end_alpha=128*, fade_time=60*)
  4: 0x09AE [0x1C] WAIT(60* ticks)
  5: 0x09B1 [0xC5] LOAD_SCHEDULED_TASK_ALT3: Load scheduler 0x80026E69 for entities [Unnamed NPC (ID: 17105655/0x010502F7), Unnamed NPC (ID: 17105657/0x010502F9)], work=154*, param=24941
  6: 0x09C2 [0x1C] WAIT(90* ticks)
