# Event 20042

## Metadata

| Field           | Value    |
|-----------------|----------|
| Event Index     | 17/23    |
| Offset          | 0x44C3   |
| Data Size       | 76 bytes |
| Calculated Size | 76 bytes |
| Instructions    | 12       |

```
      00 01 02 03 04 05 06 07  08 09 0A 0B 0C 0D 0E 0F
      -- -- -- -- -- -- -- --  -- -- -- -- -- -- -- --
44C0:          4A F0 FF FF 7F  F8 FF FF 7F 4A F8 FF FF     J........J...
44D0: 7F F0 FF FF 7F 6F 76 F8  FF FF 7F 66 09 80 F8 FF  .....ov....f....
44E0: FF 7F F8 FF FF 7F 74 6C  6B 30 1D D3 80 23 53 F8  ......tlk0...#S.
44F0: FF FF 7F F8 FF FF 7F 74  6C 6B 30 66 09 80 F8 FF  .......tlk0f....
4500: FF 7F F8 FF FF 7F 74 6C  6B 31 1C 09 80 21 00     ......tlk1...!. 
```

## Opcodes

```
  0: 0x44C3 [0x4A] LocalPlayer looks at EventEntity
  1: 0x44CC [0x4A] EventEntity looks at LocalPlayer
  2: 0x44D5 [0x6F] WAIT_FRAME_DELAY: Yield until WaitTime reaches zero
  3: 0x44D6 [0x76] CHECK_ENTITY_RENDER_FLAGS: Wait until EventEntity Render.Flags0 and Render.Flags3 conditions are met
  4: 0x44DB [0x66] LOAD_EXT_SCHEDULER_MAIN: Load scheduler "tlk0" with entities [EventEntity, EventEntity], work=40*
  5: 0x44EA [0x1D] PRINT_EVENT_MESSAGE(message_id=10762*)
    → "I just had to be stubborn-wubborn, though. If anyone here's a fool, it's definitely me.\u007F1\u0000\u0007"
  6: 0x44ED [0x23] WAIT_FOR_DIALOG_INTERACTION
  7: 0x44EE [0x53] WAIT_SCHEDULER_TASK: Wait for scheduler "tlk0" with entities [EventEntity, EventEntity]
  8: 0x44FB [0x66] LOAD_EXT_SCHEDULER_MAIN: Load scheduler "tlk1" with entities [EventEntity, EventEntity], work=40*
  9: 0x450A [0x1C] WAIT(40* ticks)
 10: 0x450D [0x21] END_EVENT
 11: 0x450E [0x00] END_REQSTACK()
```
