# Event 20049

## Metadata

| Field           | Value    |
|-----------------|----------|
| Event Index     | 13/23    |
| Offset          | 0x43D0   |
| Data Size       | 76 bytes |
| Calculated Size | 76 bytes |
| Instructions    | 12       |

```
      00 01 02 03 04 05 06 07  08 09 0A 0B 0C 0D 0E 0F
      -- -- -- -- -- -- -- --  -- -- -- -- -- -- -- --
43D0: 42 4A F0 FF FF 7F F8 FF  FF 7F 4A F8 FF FF 7F F0  BJ........J.....
43E0: FF FF 7F 6F 76 F8 FF FF  7F 66 09 80 F8 FF FF 7F  ...ov....f......
43F0: F8 FF FF 7F 70 61 73 30  1D 86 80 23 53 F8 FF FF  ....pas0...#S...
4400: 7F F8 FF FF 7F 70 61 73  30 45 02 80 F8 FF FF 7F  .....pas0E......
4410: F8 FF FF 7F 71 73 74 63  01 80 21 00              ....qstc..!.    
```

## Opcodes

```
  0: 0x43D0 [0x42] SET_CLI_EVENT_CANCEL_DATA()
  1: 0x43D1 [0x4A] LocalPlayer looks at EventEntity
  2: 0x43DA [0x4A] EventEntity looks at LocalPlayer
  3: 0x43E3 [0x6F] WAIT_FRAME_DELAY: Yield until WaitTime reaches zero
  4: 0x43E4 [0x76] CHECK_ENTITY_RENDER_FLAGS: Wait until EventEntity Render.Flags0 and Render.Flags3 conditions are met
  5: 0x43E9 [0x66] LOAD_EXT_SCHEDULER_MAIN(work_offset=40*, entity1=EventEntity, entity2=EventEntity, action="pas0")
  6: 0x43F8 [0x1D] PRINT_EVENT_MESSAGE(message_id=10709*)
    → "Here.\u0007Now get out of my sightaru!\u007F1\u0000\u0007"
  7: 0x43FB [0x23] WAIT_FOR_DIALOG_INTERACTION
  8: 0x43FC [0x53] WAIT_SCHEDULER_TASK(entity1=EventEntity, entity2=EventEntity, action_id="pas0")
  9: 0x4409 [0x45] LOAD_SCHEDULED_TASK(work_offset1=201*, entity1=EventEntity, entity2=EventEntity, scheduler_id="qstc", work_offset2=0*)
 10: 0x441A [0x21] END_EVENT
 11: 0x441B [0x00] END_REQSTACK()
```
