# Event 20040

## Metadata

| Field           | Value    |
|-----------------|----------|
| Event Index     | 15/23    |
| Offset          | 0x442B   |
| Data Size       | 76 bytes |
| Calculated Size | 76 bytes |
| Instructions    | 12       |

```
      00 01 02 03 04 05 06 07  08 09 0A 0B 0C 0D 0E 0F
      -- -- -- -- -- -- -- --  -- -- -- -- -- -- -- --
4420:                                   4A F0 FF FF 7F             J....
4430: F8 FF FF 7F 4A F8 FF FF  7F F0 FF FF 7F 6F 76 F8  ....J........ov.
4440: FF FF 7F 66 09 80 F8 FF  FF 7F F8 FF FF 7F 74 6C  ...f..........tl
4450: 6B 30 1D 6A 81 23 53 F8  FF FF 7F F8 FF FF 7F 74  k0.j.#S........t
4460: 6C 6B 30 66 09 80 F8 FF  FF 7F F8 FF FF 7F 74 6C  lk0f..........tl
4470: 6B 31 1C 09 80 21 00                              k1...!.         
```

## Opcodes

```
  0: 0x442B [0x4A] LocalPlayer looks at EventEntity
  1: 0x4434 [0x4A] EventEntity looks at LocalPlayer
  2: 0x443D [0x6F] WAIT_FRAME_DELAY: Yield until WaitTime reaches zero
  3: 0x443E [0x76] CHECK_ENTITY_RENDER_FLAGS: Wait until EventEntity Render.Flags0 and Render.Flags3 conditions are met
  4: 0x4443 [0x66] LOAD_EXT_SCHEDULER_MAIN: Load scheduler "tlk0" with entities [EventEntity, EventEntity], work=40*
  5: 0x4452 [0x1D] PRINT_EVENT_MESSAGE(message_id=10727*)
    → "How does it feel to be the grim reaper-weaper of shadows in the Eldieme Necropolis?\u007F1\u0000\u0007"
  6: 0x4455 [0x23] WAIT_FOR_DIALOG_INTERACTION
  7: 0x4456 [0x53] WAIT_SCHEDULER_TASK: Wait for scheduler "tlk0" with entities [EventEntity, EventEntity]
  8: 0x4463 [0x66] LOAD_EXT_SCHEDULER_MAIN: Load scheduler "tlk1" with entities [EventEntity, EventEntity], work=40*
  9: 0x4472 [0x1C] WAIT(40* ticks)
 10: 0x4475 [0x21] END_EVENT
 11: 0x4476 [0x00] END_REQSTACK()
```
