# Event 20050

## Metadata

| Field           | Value    |
|-----------------|----------|
| Event Index     | 16/23    |
| Offset          | 0x4477   |
| Data Size       | 76 bytes |
| Calculated Size | 76 bytes |
| Instructions    | 12       |

```
      00 01 02 03 04 05 06 07  08 09 0A 0B 0C 0D 0E 0F
      -- -- -- -- -- -- -- --  -- -- -- -- -- -- -- --
4470:                      42  4A F0 FF FF 7F F8 FF FF         BJ.......
4480: 7F 4A F8 FF FF 7F F0 FF  FF 7F 6F 76 F8 FF FF 7F  .J........ov....
4490: 66 09 80 F8 FF FF 7F F8  FF FF 7F 70 61 73 30 1D  f..........pas0.
44A0: D5 80 23 53 F8 FF FF 7F  F8 FF FF 7F 70 61 73 30  ..#S........pas0
44B0: 45 02 80 F8 FF FF 7F F8  FF FF 7F 71 73 74 63 01  E..........qstc.
44C0: 80 21 00                                          .!.             
```

## Opcodes

```
  0: 0x4477 [0x42] SET_CLI_EVENT_CANCEL_DATA()
  1: 0x4478 [0x4A] LocalPlayer looks at EventEntity
  2: 0x4481 [0x4A] EventEntity looks at LocalPlayer
  3: 0x448A [0x6F] WAIT_FRAME_DELAY: Yield until WaitTime reaches zero
  4: 0x448B [0x76] CHECK_ENTITY_RENDER_FLAGS: Wait until EventEntity Render.Flags0 and Render.Flags3 conditions are met
  5: 0x4490 [0x66] LOAD_EXT_SCHEDULER_MAIN(work_offset=40*, entity1=EventEntity, entity2=EventEntity, action="pas0")
  6: 0x449F [0x1D] PRINT_EVENT_MESSAGE(message_id=10764*)
    → "Take this and leave me to wallow in my self-pity-wity already!\u007F1\u0000\u0007"
  7: 0x44A2 [0x23] WAIT_FOR_DIALOG_INTERACTION
  8: 0x44A3 [0x53] WAIT_SCHEDULER_TASK(entity1=EventEntity, entity2=EventEntity, action_id="pas0")
  9: 0x44B0 [0x45] LOAD_SCHEDULED_TASK(work_offset1=201*, entity1=EventEntity, entity2=EventEntity, scheduler_id="qstc", work_offset2=0*)
 10: 0x44C1 [0x21] END_EVENT
 11: 0x44C2 [0x00] END_REQSTACK()
```
