# Event 20051

## Metadata

| Field           | Value    |
|-----------------|----------|
| Event Index     | 21/23    |
| Offset          | 0x45B0   |
| Data Size       | 59 bytes |
| Calculated Size | 59 bytes |
| Instructions    | 11       |

```
      00 01 02 03 04 05 06 07  08 09 0A 0B 0C 0D 0E 0F
      -- -- -- -- -- -- -- --  -- -- -- -- -- -- -- --
45B0: 42 4A F0 FF FF 7F F8 FF  FF 7F 4A F8 FF FF 7F F0  BJ........J.....
45C0: FF FF 7F 6F 76 F8 FF FF  7F 66 09 80 F8 FF FF 7F  ...ov....f......
45D0: F8 FF FF 7F 70 61 73 30  1D 06 81 23 53 F8 FF FF  ....pas0...#S...
45E0: 7F F8 FF FF 7F 70 61 73  30 21 00                 .....pas0!.     
```

## Opcodes

```
  0: 0x45B0 [0x42] SET_CLI_EVENT_CANCEL_DATA()
  1: 0x45B1 [0x4A] LocalPlayer looks at EventEntity
  2: 0x45BA [0x4A] EventEntity looks at LocalPlayer
  3: 0x45C3 [0x6F] WAIT_FRAME_DELAY: Yield until WaitTime reaches zero
  4: 0x45C4 [0x76] CHECK_ENTITY_RENDER_FLAGS: Wait until EventEntity Render.Flags0 and Render.Flags3 conditions are met
  5: 0x45C9 [0x66] LOAD_EXT_SCHEDULER_MAIN(work_offset=40*, entity1=EventEntity, entity2=EventEntity, action="pas0")
  6: 0x45D8 [0x1D] PRINT_EVENT_MESSAGE(message_id=10801*)
    → "But before I go, take this as thanks for all you've done-wone.\u007F1\u0000\u0007"
  7: 0x45DB [0x23] WAIT_FOR_DIALOG_INTERACTION
  8: 0x45DC [0x53] WAIT_SCHEDULER_TASK(entity1=EventEntity, entity2=EventEntity, action_id="pas0")
  9: 0x45E9 [0x21] END_EVENT
 10: 0x45EA [0x00] END_REQSTACK()
```
