# Event 266

## Metadata

| Field           | Value    |
|-----------------|----------|
| Event Index     | 4/15     |
| Offset          | 0x0027   |
| Data Size       | 24 bytes |
| Calculated Size | 24 bytes |
| Instructions    | 13       |

```
      00 01 02 03 04 05 06 07  08 09 0A 0B 0C 0D 0E 0F
      -- -- -- -- -- -- -- --  -- -- -- -- -- -- -- --
0020:                      42  1E F0 FF FF 7F 6F 70 1D         B.....op.
0030: 04 80 23 1D 05 80 23 1D  06 80 23 20 00 21 00     ..#...#...# .!. 
```

## Opcodes

```
  0: 0x0027 [0x42] SET_CLI_EVENT_CANCEL_DATA()
  1: 0x0028 [0x1E] EventEntity looks at LocalPlayer and starts talking
  2: 0x002D [0x6F] WAIT_FRAME_DELAY: Yield until WaitTime reaches zero
  3: 0x002E [0x70] WAIT_ENTITY_RENDER_FLAG: Wait while EventEntity->Render.Flags3 bit 2 is set (cancel turn if not)
  4: 0x002F [0x1D] PRINT_EVENT_MESSAGE(message_id=10480*)
    → "...\u0007Rukususu...\u007F1\u0000\u0007"
  5: 0x0032 [0x23] WAIT_FOR_DIALOG_INTERACTION
  6: 0x0033 [0x1D] PRINT_EVENT_MESSAGE(message_id=10481*)
    → "She said she was looking for a cerrrtain Iru-Kuiru...\u007F1\u0000\u0007"
  7: 0x0036 [0x23] WAIT_FOR_DIALOG_INTERACTION
  8: 0x0037 [0x1D] PRINT_EVENT_MESSAGE(message_id=10482*)
    → "This Iru-Kuiru was banished to the Temple of Uggalepih years ago. If you want to find Rukususu, that is where you should start searching.\u007F1\u0000\u0007"
  9: 0x003A [0x23] WAIT_FOR_DIALOG_INTERACTION
 10: 0x003B [0x20] SET_CLI_EVENT_UC_FLAG: Unlock player control
 11: 0x003D [0x21] END_EVENT
 12: 0x003E [0x00] END_REQSTACK()
```
