# Event 306

## Metadata

| Field           | Value    |
|-----------------|----------|
| Event Index     | 3/15     |
| Offset          | 0x0010   |
| Data Size       | 23 bytes |
| Calculated Size | 23 bytes |
| Instructions    | 12       |

```
      00 01 02 03 04 05 06 07  08 09 0A 0B 0C 0D 0E 0F
      -- -- -- -- -- -- -- --  -- -- -- -- -- -- -- --
0010: 1E F0 FF FF 7F 6F 70 1D  01 80 23 1D 02 80 23 1D  .....op...#...#.
0020: 03 80 23 20 00 21 00                              ..# .!.         
```

## Opcodes

```
  0: 0x0010 [0x1E] EventEntity looks at LocalPlayer and starts talking
  1: 0x0015 [0x6F] WAIT_FRAME_DELAY: Yield until WaitTime reaches zero
  2: 0x0016 [0x70] WAIT_ENTITY_RENDER_FLAG: Wait while EventEntity->Render.Flags3 bit 2 is set (cancel turn if not)
  3: 0x0017 [0x1D] PRINT_EVENT_MESSAGE(message_id=10015*)
    → "...\u007F1\u0000\u0007"
  4: 0x001A [0x23] WAIT_FOR_DIALOG_INTERACTION
  5: 0x001B [0x1D] PRINT_EVENT_MESSAGE(message_id=10016*)
    → "A familiarrr scent clings to you, adventurer.\u0007The aroma of rich earth, and a fresh breeze...it brings me back to long ago.\u007F1\u0000\u0007"
  6: 0x001E [0x23] WAIT_FOR_DIALOG_INTERACTION
  7: 0x001F [0x1D] PRINT_EVENT_MESSAGE(message_id=10017*)
    → "...But these are merely the rrramblings of one whose days in the sun have long since passed.\u0007Be safe in your travels, adventurer.\u007F1\u0000\u0007"
  8: 0x0022 [0x23] WAIT_FOR_DIALOG_INTERACTION
  9: 0x0023 [0x20] SET_CLI_EVENT_UC_FLAG: Unlock player control
 10: 0x0025 [0x21] END_EVENT
 11: 0x0026 [0x00] END_REQSTACK()
```
