# Event 271

## Metadata

| Field           | Value    |
|-----------------|----------|
| Event Index     | 8/31     |
| Offset          | 0x006E   |
| Data Size       | 30 bytes |
| Calculated Size | 30 bytes |
| Instructions    | 8        |

```
      00 01 02 03 04 05 06 07  08 09 0A 0B 0C 0D 0E 0F
      -- -- -- -- -- -- -- --  -- -- -- -- -- -- -- --
0060:                                            1E F0                ..
0070: FF FF 7F 1D 10 80 23 66  0D 80 F8 FF FF 7F F8 FF  ......#f........
0080: FF 7F 74 6C 6B 30 1D 11  80 23 21 00              ..tlk0...#!.    
```

## Opcodes

```
  0: 0x006E [0x1E] EventEntity looks at LocalPlayer and starts talking
  1: 0x0073 [0x1D] PRINT_EVENT_MESSAGE(message_id=10978*)
    → "Huh.\u0007Still standing, I see. I thought Prishe would have whipped you into a pile of crimson jelly by now.\u007F1\u0000\u0007"
  2: 0x0076 [0x23] WAIT_FOR_DIALOG_INTERACTION
  3: 0x0077 [0x66] LOAD_EXT_SCHEDULER_MAIN(work_offset=29*, entity1=EventEntity, entity2=EventEntity, action="tlk0")
  4: 0x0086 [0x1D] PRINT_EVENT_MESSAGE(message_id=10979*)
    → "I don't know what the boss sees in you, but I'm not one to question her judgment.\u007F1\u0000\u0007"
  5: 0x0089 [0x23] WAIT_FOR_DIALOG_INTERACTION
  6: 0x008A [0x21] END_EVENT
  7: 0x008B [0x00] END_REQSTACK()
```
