# Event 546

## Metadata

| Field           | Value    |
|-----------------|----------|
| Event Index     | 16/31    |
| Offset          | 0x010C   |
| Data Size       | 46 bytes |
| Calculated Size | 46 bytes |
| Instructions    | 14       |

```
      00 01 02 03 04 05 06 07  08 09 0A 0B 0C 0D 0E 0F
      -- -- -- -- -- -- -- --  -- -- -- -- -- -- -- --
0100:                                      1E F0 FF FF              ....
0110: 7F 6F 70 24 1D 80 1E 80  1E 80 25 02 00 10 1E 80  .op$......%.....
0120: 00 29 01 48 1F 80 01 38  01 02 00 10 20 80 00 38  .).H...8.... ..8
0130: 01 1D 21 80 23 01 38 01  21 00                    ..!.#.8.!.      
```

## Opcodes

```
  0: 0x010C [0x1E] EventEntity looks at LocalPlayer and starts talking
  1: 0x0111 [0x6F] WAIT_FRAME_DELAY: Yield until WaitTime reaches zero
  2: 0x0112 [0x70] WAIT_ENTITY_RENDER_FLAG: Wait while EventEntity->Render.Flags3 bit 2 is set (cancel turn if not)
  3: 0x0113 [0x24] CREATE_DIALOG(message_id=11671*, default_option=0*, option_flags=0*)
    → "Read the thief's letter?\u0007\u000BLet me at it!\u0007A thief? Too scary...\u007F1\u0000\u0007"
  4: 0x011A [0x25] WAIT_DIALOG_SELECT()
  5: 0x011B [0x02] IF !(Work_Zone[0] == 0*) GOTO 0x0129
  6: 0x0123 [0x48] [System] [11672*]:
    → "\u00072I'm coming for your treasure at midnight tonight. -Miledo-Shiraddo, Thief Extraordinaire\u00073\u007F1\u0000\u0007"
  7: 0x0126 [0x01] GOTO 0x0138

SUBROUTINE_0129:
  8: 0x0129 [0x02] IF !(Work_Zone[0] == 1*) GOTO 0x0138
  9: 0x0131 [0x1D] PRINT_EVENT_MESSAGE(message_id=11673*)
    → "We'll collect information too. I won't let an outsider like you take all the glory.\u007F1\u0000\u0007"
 10: 0x0134 [0x23] WAIT_FOR_DIALOG_INTERACTION
 11: 0x0135 [0x01] GOTO 0x0138

SUBROUTINE_0138:
 12: 0x0138 [0x21] END_EVENT
 13: 0x0139 [0x00] END_REQSTACK()
```
