# 17387988 - Sedal-Godjal

## Common Data

| Field            | Value           |
|------------------|-----------------|
| Zone             | Davoi (ID: 149) |
| Block Size       | 3460 bytes      |
| Total Events     | 55              |
| References Count | 72              |

## List of Events

| Event ID                   | Entrypoint   |   Size |   Instructions |
|----------------------------|--------------|--------|----------------|
| [65535](#event-65535)      | 0x0000       |      1 |              1 |
| [20](#event-20)            | 0x0001       |      1 |              1 |
| [21](#event-21)            | 0x0002       |     27 |              7 |
| [22](#event-22)            | 0x001D       |    170 |             31 |
| [23](#event-23)            | 0x00C7       |    109 |             19 |
| [24](#event-24)            | 0x0134       |     28 |              7 |
| [25](#event-25)            | 0x0150       |    372 |             52 |
| [26](#event-26)            | 0x02C4       |     87 |              9 |
| [27](#event-27)            | 0x031B       |     86 |             12 |
| [65535.1](#event-655351)   | 0x0371       |     16 |              2 |
| [65535.2](#event-655352)   | 0x0381       |     22 |              4 |
| [65535.3](#event-655353)   | 0x0397       |     16 |              2 |
| [65535.4](#event-655354)   | 0x03A7       |     14 |              2 |
| [65535.5](#event-655355)   | 0x03B5       |     16 |              2 |
| [65535.6](#event-655356)   | 0x03C5       |     14 |              2 |
| [65535.7](#event-655357)   | 0x03D3       |     16 |              2 |
| [65535.8](#event-655358)   | 0x03E3       |     14 |              2 |
| [65535.9](#event-655359)   | 0x03F1       |     16 |              2 |
| [65535.10](#event-6553510) | 0x0401       |     14 |              2 |
| [65535.11](#event-6553511) | 0x040F       |     16 |              2 |
| [65535.12](#event-6553512) | 0x041F       |     14 |              2 |
| [65535.13](#event-6553513) | 0x042D       |     16 |              2 |
| [65535.14](#event-6553514) | 0x043D       |     14 |              2 |
| [65535.15](#event-6553515) | 0x044B       |     16 |              2 |
| [65535.16](#event-6553516) | 0x045B       |     14 |              2 |
| [65535.17](#event-6553517) | 0x0469       |     16 |              2 |
| [65535.18](#event-6553518) | 0x0479       |     22 |              4 |
| [65535.19](#event-6553519) | 0x048F       |     16 |              2 |
| [65535.20](#event-6553520) | 0x049F       |     14 |              2 |
| [65535.21](#event-6553521) | 0x04AD       |     16 |              2 |
| [65535.22](#event-6553522) | 0x04BD       |     14 |              2 |
| [65535.23](#event-6553523) | 0x04CB       |      9 |              3 |
| [118](#event-118)          | 0x04D4       |    376 |             53 |
| [65535.24](#event-6553524) | 0x064C       |      5 |              3 |
| [65535.25](#event-6553525) | 0x0651       |      5 |              3 |
| [65535.26](#event-6553526) | 0x0656       |      5 |              3 |
| [65535.27](#event-6553527) | 0x065B       |     37 |              9 |
| [65535.28](#event-6553528) | 0x0680       |      5 |              3 |
| [65535.29](#event-6553529) | 0x0685       |      5 |              3 |
| [119](#event-119)          | 0x068A       |     47 |             14 |
| [120](#event-120)          | 0x06B9       |    668 |             77 |
| [65535.30](#event-6553530) | 0x0955       |      5 |              3 |
| [65535.31](#event-6553531) | 0x095A       |      5 |              3 |
| [65535.32](#event-6553532) | 0x095F       |      5 |              3 |
| [65535.33](#event-6553533) | 0x0964       |      5 |              3 |
| [65535.34](#event-6553534) | 0x0969       |      5 |              3 |
| [65535.35](#event-6553535) | 0x096E       |      5 |              3 |
| [65535.36](#event-6553536) | 0x0973       |     37 |              9 |
| [65535.37](#event-6553537) | 0x0998       |      5 |              3 |
| [65535.38](#event-6553538) | 0x099D       |      5 |              3 |
| [65535.39](#event-6553539) | 0x09A2       |      5 |              3 |
| [65535.40](#event-6553540) | 0x09A7       |      5 |              3 |
| [121](#event-121)          | 0x09AC       |     47 |             14 |
| [122](#event-122)          | 0x09DB       |    351 |             52 |
| [123](#event-123)          | 0x0B3A       |     61 |             16 |

## DAT References (imed_data)

|   Index | Hex Value   |   Dec Value |
|---------|-------------|-------------|
|       0 | 0x0028      |          40 |
|       1 | 0x1CEE      |        7406 |
|       2 | 0x1CE6      |        7398 |
|       3 | 0x1CE7      |        7399 |
|       4 | 0x001E      |          30 |
|       5 | 0x0029      |          41 |
|       6 | 0x1CE8      |        7400 |
|       7 | 0x1CE9      |        7401 |
|       8 | 0x0000      |           0 |
|       9 | 0x0001      |           1 |
|      10 | 0x1CF0      |        7408 |
|      11 | 0x1CEA      |        7402 |
|      12 | 0x0083      |         131 |
|      13 | 0x1CEB      |        7403 |
|      14 | 0x1CEC      |        7404 |
|      15 | 0x1CED      |        7405 |
|      16 | 0x1CE5      |        7397 |
|      17 | 0x0013      |          19 |
|      18 | 0x00C8      |         200 |
|      19 | 0x003C      |          60 |
|      20 | 0x005E      |          94 |
|      21 | 0x1CF1      |        7409 |
|      22 | 0x0087      |         135 |
|      23 | 0x1CF2      |        7410 |
|      24 | 0x1CF3      |        7411 |
|      25 | 0x1CF4      |        7412 |
|      26 | 0x1CD7      |        7383 |
|      27 | 0x1CF5      |        7413 |
|      28 | 0x1CF6      |        7414 |
|      29 | 0x0002      |           2 |
|      30 | 0x012C      |         300 |
|      31 | 0x008C      |         140 |
|      32 | 0x1CF7      |        7415 |
|      33 | 0x1CF8      |        7416 |
|      34 | 0x00A3      |         163 |
|      35 | 0x007F      |         127 |
|      36 | 0x1D61      |        7521 |
|      37 | 0x0031      |          49 |
|      38 | 0x1D69      |        7529 |
|      39 | 0x1D6A      |        7530 |
|      40 | 0x1D62      |        7522 |
|      41 | 0x1D63      |        7523 |
|      42 | 0x1D64      |        7524 |
|      43 | 0x1D65      |        7525 |
|      44 | 0x1D66      |        7526 |
|      45 | 0x1D67      |        7527 |
|      46 | 0x1D68      |        7528 |
|      47 | 0x1D6B      |        7531 |
|      48 | 0x1D6C      |        7532 |
|      49 | 0x1D71      |        7537 |
|      50 | 0x0006      |           6 |
|      51 | 0x1D6D      |        7533 |
|      52 | 0x1D6E      |        7534 |
|      53 | 0x1D6F      |        7535 |
|      54 | 0x1D70      |        7536 |
|      55 | 0x1D72      |        7538 |
|      56 | 0x1D73      |        7539 |
|      57 | 0x1D74      |        7540 |
|      58 | 0x1D75      |        7541 |
|      59 | 0x1D76      |        7542 |
|      60 | 0x1D77      |        7543 |
|      61 | 0x1D78      |        7544 |
|      62 | 0x1D79      |        7545 |
|      63 | 0x1D7A      |        7546 |
|      64 | 0x1D7B      |        7547 |
|      65 | 0x1D7C      |        7548 |
|      66 | 0x1D7D      |        7549 |
|      67 | 0x0064      |         100 |
|      68 | 0x1D7E      |        7550 |
|      69 | 0x1D7F      |        7551 |
|      70 | 0x1D80      |        7552 |
|      71 | 0x1D81      |        7553 |

## String References

- **7383**: The mage's magic transforms the cursed orb into $6.
- **7397**: Have you been to the cave to the south? Best to stay away if you know the danger! Not that it's all that easy to find the way in there...
- **7398**: Huh? You really wantaru into that cave? Hah! Not after I went through all that trouble sealing off the Orc lord...
- **7399**: Especially not now, with reinforcements on the way! Bestaru to stay outta that cave, I say!
- **7400**: But...you made it this far. Guess I'll give you a chance!
- **7401**: Take your chances? [Yes./No.]
- **7402**: Alrighty, then. Pass my test, and I'll let you into that meanie-weanie old cave.
- **7403**: I'm going to give you $6, which you are to dip in the four red pools of Davoi. You'll know the orb is absorbing magic when its color changes!
- **7404**: Once you're done, bring it back here and I'll grade you!
- **7405**: Heeeey, don't worry! Long as nothing...unexpected happens, you'll do just fine! I guarantee it! Bonne chance!
- **7406**: Oh yeah, I almostaru forgot. Monsters flock to those red pools like flies to Quadav droppings. You watch yourself out there!
- **7408**: Humph. Sissy!
- **7409**: Heeeey, so you made it back in one piece? Good, good! Oh, I forgot to tell you one thing: if an orb turns totally red, it gets cursed.
- **7410**: W-w-wait a second! Isn't that $6 you have there!?
- **7411**: Well, I guess all's well that ends well! This is aboutaru all the power you'll need, methinks.
- **7412**: Let me just give it the barrier-disruption spells it so very much deserves...
- **7413**: And there you go! Take that $3 and stick it into the barrier. That should disruptaru the thing long enough for you to go in.
- **7414**: Take care and don't let the Orcs get it! There now, off you go! Good luck!
- **7415**: Ahhh... You know, I'm sure I'm forgetting something...
- **7416**: What was that now? Hmm...
- **7522**: Yipes! Th-that's an Aurastery doll! Which means you must be an agentaru of the Aurastery!
- **7523**: Ah... So, you've finally found me...
- **7524**: But let me say this in my defense! I'm waiting for reinforcements from San d'Oria to arrive, so I haven'taru been able to move from this place.
- **7525**: Until the knights get here, I have to magically seal this area for the sake of the people of San d'Oria.
- **7526**: However, my concentration for maintaining the seal is being disruptarued. An Orc carrying $1 has been enspelling me from afar...
- **7527**: This has further hamper-wampered my chances of getting outaru of here any time soon.
- **7528**: If Moreno-Toeno was the one who putaru you up to this, let him know of my situation.
- **7529**: Ah, one more thing... ...Yah!
- **7530**: The $3 has been drained of magic...
- **7531**: I've been using my power to seal the brutish-wutish Orcish Overlord in the caves just beyond here. I mustaru continue my efforts until the reinforcements arrive.
- **7532**: However, my concentration for maintaining the seal is being disruptarued. An Orc carrying $1 has been enspelling me from afar...
- **7533**: Ah! How did you...!? You trouncy-wounced that nasty, curse-flinging Orc for me? This makes things so much easier.
- **7534**: But I'll tell you again! I can'taru leave here until the knights show up from San d'Oria to handle things.
- **7535**: I'm holding the fortaru for as long as it takes the reinforcements to get here. They're taking their time about it, though.
- **7536**: If I'm not here, the people of San d'Oria will be facing an awful-warful Orcish horde. That should be reason enough to placate Moreno-Toeno.
- **7537**: ...Hm? Why did I run away from the Aurastery? That's something I prefer not to talk about...
- **7538**: But I guess if I don'taru explain myself, you'll just drag me back to Windurst... ...Fine. This is just between you, me, and Moreno-Toeno...
- **7539**: You probably already know about this, but Professor Koru-Moru has been exchanging lovey-dovey letters with a girl called Mojiji. Um, actually, the person writing those letters was me...
- **7540**: Principal Koru-Moru had embezzled several years' worth of the Aurastery's budgetaru, and it didn't look like he would be giving it back. So, I thought I would take the name of Mojiji and try writing him a fan letter.
- **7541**: The effect of this was almostaru instantaneous. Every time I wrote him a letter, I convinced him to return a little more gil, but all the deception started to make me feel uneasy-queasy.
- **7542**: Before I knew it, every time I laid eyes on Professor Koru-Moru, I would feel a sharp pain in my stomach. It was a serious case of work-relatarued stress.
- **7543**: So I thoughtaru I would get away from the Aurastery for a little while, and go where I could find some solitude and peace. Then all this happened.
- **7544**: But since I didn'taru want to go back anyway, I decided to keep my whereabouts from the Aurastery.
- **7545**: Does that explain things for you? You can go back to the Aurastery and report that to Moreno-Toeno.
- **7546**: When the reinforcements arrive from San d'Oria, I'll return to Windurst. The professor mustaru have forgotten about Mojiji by now.
- **7547**: Huh? He's still getting letters. But, I'm not writing them anymore!
- **7548**: ...Ah, justaru the person I wanted to see. There's something I wanted to ask you...
- **7549**: How did you use that malevolent magic doll to track me down?
- **7550**: The $3!? So this ring is what broughtaru about my discovery. Well, I can't just throw it away...
- **7551**: Hmmm, what to do? Here, I'll give it to you for safekeeping. Please hold on to it until I return to the Aurastery.
- **7552**: I will return as soon as the reinforcements arrive from San d'Oria.
- **7553**: Ah, dear old Windurst, how long has it been? I wonder if I still remember the way to the Aurastery?

## Events

### Event 65535

#### Metadata

| Field        | Value   |
|--------------|---------|
| Entrypoint   | 0x0000  |
| Data Size    | 1 bytes |
| Instructions | 1       |

```
      00 01 02 03 04 05 06 07  08 09 0A 0B 0C 0D 0E 0F
      -- -- -- -- -- -- -- --  -- -- -- -- -- -- -- --
0000: 00                                                .               
```

#### Opcodes

```
  0: 0x0000 [0x00] END_REQSTACK()
```

### Event 20

#### Metadata

| Field        | Value   |
|--------------|---------|
| Entrypoint   | 0x0001  |
| Data Size    | 1 bytes |
| Instructions | 1       |

```
      00 01 02 03 04 05 06 07  08 09 0A 0B 0C 0D 0E 0F
      -- -- -- -- -- -- -- --  -- -- -- -- -- -- -- --
0000:    00                                              .              
```

#### Opcodes

```
  0: 0x0001 [0x00] END_REQSTACK()
```

### Event 21

#### Metadata

| Field        | Value    |
|--------------|----------|
| Entrypoint   | 0x0002   |
| Data Size    | 27 bytes |
| Instructions | 6        |

```
      00 01 02 03 04 05 06 07  08 09 0A 0B 0C 0D 0E 0F
      -- -- -- -- -- -- -- --  -- -- -- -- -- -- -- --
0000:       1E F0 FF FF 7F 66  00 80 F8 FF FF 7F F8 FF    .....f........
0010: FF 7F 74 6C 6B 30 1D 01  80 23 21 00 00           ..tlk0...#!..   
```

#### Opcodes

```
  0: 0x0002 [0x1E] EventEntity looks at LocalPlayer and starts talking
  1: 0x0007 [0x66] LOAD_EXT_SCHEDULER_MAIN: Load scheduler "tlk0" with entities [EventEntity, EventEntity], work=40*
  2: 0x0016 [0x1D] PRINT_EVENT_MESSAGE(message_id=7406*)
    → "Oh yeah, I almostaru forgot. Monsters flock to those red pools like flies to Quadav droppings. You watch yourself out there!"
  3: 0x0019 [0x23] WAIT_FOR_DIALOG_INTERACTION
  4: 0x001A [0x21] END_EVENT
  5: 0x001B [0x00] END_REQSTACK()
```

#### Data or dead code:

```
# Dead code (unreachable instructions):
     0x001C [0x00] END_REQSTACK()
```

### Event 22

#### Metadata

| Field        | Value     |
|--------------|-----------|
| Entrypoint   | 0x001D    |
| Data Size    | 170 bytes |
| Instructions | 31        |

```
      00 01 02 03 04 05 06 07  08 09 0A 0B 0C 0D 0E 0F
      -- -- -- -- -- -- -- --  -- -- -- -- -- -- -- --
0010:                                         1E F0 FF               ...
0020: FF 7F 66 00 80 F8 FF FF  7F F8 FF FF 7F 74 6C 6B  ..f..........tlk
0030: 30 1D 02 80 23 66 00 80  F8 FF FF 7F F8 FF FF 7F  0...#f..........
0040: 64 69 73 30 1D 03 80 23  53 F8 FF FF 7F F8 FF FF  dis0...#S.......
0050: 7F 64 69 73 30 5E 69 64  6C 30 1C 04 80 66 05 80  .dis0^idl0...f..
0060: F8 FF FF 7F F8 FF FF 7F  65 68 6E 30 1D 06 80 23  ........ehn0...#
0070: 24 07 80 08 80 08 80 25  02 00 10 08 80 00 90 00  $......%........
0080: 42 29 03 D4 51 09 01 04  03 01 10 09 80 01 C3 00  B)..Q...........
0090: 02 00 10 09 80 00 C3 00  66 00 80 F8 FF FF 7F F8  ........f.......
00A0: FF FF 7F 67 6B 72 30 1D  0A 80 23 53 F8 FF FF 7F  ...gkr0...#S....
00B0: F8 FF FF 7F 67 6B 72 30  5E 69 64 6C 30 1C 04 80  ....gkr0^idl0...
00C0: 01 C3 00 20 00 21 00                              ... .!.         
```

#### Opcodes

```
  0: 0x001D [0x1E] EventEntity looks at LocalPlayer and starts talking
  1: 0x0022 [0x66] LOAD_EXT_SCHEDULER_MAIN: Load scheduler "tlk0" with entities [EventEntity, EventEntity], work=40*
  2: 0x0031 [0x1D] PRINT_EVENT_MESSAGE(message_id=7398*)
    → "Huh? You really wantaru into that cave? Hah! Not after I went through all that trouble sealing off the Orc lord..."
  3: 0x0034 [0x23] WAIT_FOR_DIALOG_INTERACTION
  4: 0x0035 [0x66] LOAD_EXT_SCHEDULER_MAIN: Load scheduler "dis0" with entities [EventEntity, EventEntity], work=40*
  5: 0x0044 [0x1D] PRINT_EVENT_MESSAGE(message_id=7399*)
    → "Especially not now, with reinforcements on the way! Bestaru to stay outta that cave, I say!"
  6: 0x0047 [0x23] WAIT_FOR_DIALOG_INTERACTION
  7: 0x0048 [0x53] WAIT_SCHEDULER_TASK: Wait for scheduler "dis0" with entities [EventEntity, EventEntity]
  8: 0x0055 [0x5E] EventEntity goes idle (kills current action) (animation: "idl0")
  9: 0x005A [0x1C] WAIT(30* ticks)
 10: 0x005D [0x66] LOAD_EXT_SCHEDULER_MAIN: Load scheduler "ehn0" with entities [EventEntity, EventEntity], work=41*
 11: 0x006C [0x1D] PRINT_EVENT_MESSAGE(message_id=7400*)
    → "But...you made it this far. Guess I'll give you a chance!"
 12: 0x006F [0x23] WAIT_FOR_DIALOG_INTERACTION
 13: 0x0070 [0x24] CREATE_DIALOG(message_id=7401*, default_option=0*, option_flags=0*)
    → "Take your chances? [Yes./No.]"
 14: 0x0077 [0x25] WAIT_DIALOG_SELECT()
 15: 0x0078 [0x02] IF !(Work_Zone[0] == 0*) GOTO 0x0090
 16: 0x0080 [0x42] SET_CLI_EVENT_CANCEL_DATA()
 17: 0x0081 [0x29] REQ_SET_WAIT(priority=0x03, entity_id=Sedal-Godjal (ID: 17387988/0x010951D4), tag_num=0x04)
 18: 0x0088 [0x03] Work_Zone[1] = 1*
 19: 0x008D [0x01] GOTO 0x00C3
 20: 0x0090 [0x02] IF !(Work_Zone[0] == 1*) GOTO 0x00C3
 21: 0x0098 [0x66] LOAD_EXT_SCHEDULER_MAIN: Load scheduler "gkr0" with entities [EventEntity, EventEntity], work=40*
 22: 0x00A7 [0x1D] PRINT_EVENT_MESSAGE(message_id=7408*)
    → "Humph. Sissy!"
 23: 0x00AA [0x23] WAIT_FOR_DIALOG_INTERACTION
 24: 0x00AB [0x53] WAIT_SCHEDULER_TASK: Wait for scheduler "gkr0" with entities [EventEntity, EventEntity]
 25: 0x00B8 [0x5E] EventEntity goes idle (kills current action) (animation: "idl0")
 26: 0x00BD [0x1C] WAIT(30* ticks)
 27: 0x00C0 [0x01] GOTO 0x00C3

SUBROUTINE_00C3:
 28: 0x00C3 [0x20] SET_CLI_EVENT_UC_FLAG: Unlock player control
 29: 0x00C5 [0x21] END_EVENT
 30: 0x00C6 [0x00] END_REQSTACK()
```

### Event 23

#### Metadata

| Field        | Value     |
|--------------|-----------|
| Entrypoint   | 0x00C7    |
| Data Size    | 109 bytes |
| Instructions | 19        |

```
      00 01 02 03 04 05 06 07  08 09 0A 0B 0C 0D 0E 0F
      -- -- -- -- -- -- -- --  -- -- -- -- -- -- -- --
00C0:                      66  00 80 F8 FF FF 7F F8 FF         f........
00D0: FF 7F 74 6C 6B 30 1D 0B  80 23 03 02 10 0C 80 1D  ..tlk0...#......
00E0: 0D 80 23 1D 0E 80 23 66  00 80 F8 FF FF 7F F8 FF  ..#...#f........
00F0: FF 7F 73 79 75 30 1D 0F  80 23 53 F8 FF FF 7F F8  ..syu0...#S.....
0100: FF FF 7F 73 79 75 30 5E  69 64 6C 30 1C 04 80 66  ...syu0^idl0...f
0110: 00 80 F8 FF FF 7F F8 FF  FF 7F 70 61 73 30 53 F8  ..........pas0S.
0120: FF FF 7F F8 FF FF 7F 70  61 73 30 5E 69 64 6C 30  .......pas0^idl0
0130: 1C 04 80 00                                       ....            
```

#### Opcodes

```
  0: 0x00C7 [0x66] LOAD_EXT_SCHEDULER_MAIN: Load scheduler "tlk0" with entities [EventEntity, EventEntity], work=40*
  1: 0x00D6 [0x1D] PRINT_EVENT_MESSAGE(message_id=7402*)
    → "Alrighty, then. Pass my test, and I'll let you into that meanie-weanie old cave."
  2: 0x00D9 [0x23] WAIT_FOR_DIALOG_INTERACTION
  3: 0x00DA [0x03] Work_Zone[2] = 131*
  4: 0x00DF [0x1D] PRINT_EVENT_MESSAGE(message_id=7403*)
    → "I'm going to give you $6, which you are to dip in the four red pools of Davoi. You'll know the orb is absorbing magic when its color changes!"
  5: 0x00E2 [0x23] WAIT_FOR_DIALOG_INTERACTION
  6: 0x00E3 [0x1D] PRINT_EVENT_MESSAGE(message_id=7404*)
    → "Once you're done, bring it back here and I'll grade you!"
  7: 0x00E6 [0x23] WAIT_FOR_DIALOG_INTERACTION
  8: 0x00E7 [0x66] LOAD_EXT_SCHEDULER_MAIN: Load scheduler "syu0" with entities [EventEntity, EventEntity], work=40*
  9: 0x00F6 [0x1D] PRINT_EVENT_MESSAGE(message_id=7405*)
    → "Heeeey, don't worry! Long as nothing...unexpected happens, you'll do just fine! I guarantee it! Bonne chance!"
 10: 0x00F9 [0x23] WAIT_FOR_DIALOG_INTERACTION
 11: 0x00FA [0x53] WAIT_SCHEDULER_TASK: Wait for scheduler "syu0" with entities [EventEntity, EventEntity]
 12: 0x0107 [0x5E] EventEntity goes idle (kills current action) (animation: "idl0")
 13: 0x010C [0x1C] WAIT(30* ticks)
 14: 0x010F [0x66] LOAD_EXT_SCHEDULER_MAIN: Load scheduler "pas0" with entities [EventEntity, EventEntity], work=40*
 15: 0x011E [0x53] WAIT_SCHEDULER_TASK: Wait for scheduler "pas0" with entities [EventEntity, EventEntity]
 16: 0x012B [0x5E] EventEntity goes idle (kills current action) (animation: "idl0")
 17: 0x0130 [0x1C] WAIT(30* ticks)
 18: 0x0133 [0x00] END_REQSTACK()
```

### Event 24

#### Metadata

| Field        | Value    |
|--------------|----------|
| Entrypoint   | 0x0134   |
| Data Size    | 28 bytes |
| Instructions | 7        |

```
      00 01 02 03 04 05 06 07  08 09 0A 0B 0C 0D 0E 0F
      -- -- -- -- -- -- -- --  -- -- -- -- -- -- -- --
0130:             1E F0 FF FF  7F 66 00 80 F8 FF FF 7F      .....f......
0140: F8 FF FF 7F 74 6C 6B 30  1D 10 80 23 20 00 21 00  ....tlk0...# .!.
```

#### Opcodes

```
  0: 0x0134 [0x1E] EventEntity looks at LocalPlayer and starts talking
  1: 0x0139 [0x66] LOAD_EXT_SCHEDULER_MAIN: Load scheduler "tlk0" with entities [EventEntity, EventEntity], work=40*
  2: 0x0148 [0x1D] PRINT_EVENT_MESSAGE(message_id=7397*)
    → "Have you been to the cave to the south? Best to stay away if you know the danger! Not that it's all that easy to find the way in there..."
  3: 0x014B [0x23] WAIT_FOR_DIALOG_INTERACTION
  4: 0x014C [0x20] SET_CLI_EVENT_UC_FLAG: Unlock player control
  5: 0x014E [0x21] END_EVENT
  6: 0x014F [0x00] END_REQSTACK()
```

### Event 25

#### Metadata

| Field        | Value     |
|--------------|-----------|
| Entrypoint   | 0x0150    |
| Data Size    | 372 bytes |
| Instructions | 52        |

```
      00 01 02 03 04 05 06 07  08 09 0A 0B 0C 0D 0E 0F
      -- -- -- -- -- -- -- --  -- -- -- -- -- -- -- --
0150: 42 46 01 38 11 80 45 12  80 F0 FF FF 7F F0 FF FF  BF.8..E.........
0160: 7F 66 64 6F 31 08 80 1C  13 80 45 14 80 F0 FF FF  .fdo1.....E.....
0170: 7F F0 FF FF 7F 64 76 30  30 08 80 29 03 F0 FF FF  .....dv00..)....
0180: 7F 08 1E F0 FF FF 7F 66  00 80 F8 FF FF 7F F8 FF  .......f........
0190: FF 7F 74 6C 6B 30 45 12  80 F0 FF FF 7F F0 FF FF  ..tlk0E.........
01A0: 7F 66 64 69 31 08 80 1C  13 80 1D 15 80 23 66 00  .fdi1........#f.
01B0: 80 F8 FF FF 7F F8 FF FF  7F 62 69 6B 31 53 F8 FF  .........bik1S..
01C0: FF 7F F8 FF FF 7F 62 69  6B 31 5E 69 64 6C 30 45  ......bik1^idl0E
01D0: 14 80 F0 FF FF 7F F0 FF  FF 7F 64 76 30 36 08 80  ..........dv06..
01E0: 45 14 80 F0 FF FF 7F F0  FF FF 7F 64 76 30 30 08  E..........dv00.
01F0: 80 1C 13 80 03 02 10 16  80 1D 17 80 23 66 00 80  ............#f..
0200: F8 FF FF 7F F8 FF FF 7F  74 6C 6B 30 1D 18 80 23  ........tlk0...#
0210: 1D 19 80 23 29 03 D4 51  09 01 07 45 12 80 F0 FF  ...#)..Q...E....
0220: FF 7F F0 FF FF 7F 66 64  6F 31 08 80 1C 13 80 45  ......fdo1.....E
0230: 14 80 F0 FF FF 7F F0 FF  FF 7F 64 76 30 30 08 80  ..........dv00..
0240: 45 12 80 F0 FF FF 7F F0  FF FF 7F 66 64 69 31 08  E..........fdi1.
0250: 80 1C 13 80 48 1A 80 23  66 00 80 F8 FF FF 7F F8  ....H..#f.......
0260: FF FF 7F 74 6C 6B 30 1D  1B 80 23 1D 1C 80 23 66  ...tlk0...#...#f
0270: 00 80 F8 FF FF 7F F8 FF  FF 7F 77 61 69 30 53 F8  ..........wai0S.
0280: FF FF 7F F8 FF FF 7F 77  61 69 30 5E 69 64 6C 30  .......wai0^idl0
0290: 1C 04 80 03 01 10 1D 80  45 12 80 F0 FF FF 7F F0  ........E.......
02A0: FF FF 7F 66 64 6F 31 08  80 1C 13 80 46 00 45 12  ...fdo1.....F.E.
02B0: 80 F0 FF FF 7F F0 FF FF  7F 66 64 69 31 08 80 1C  .........fdi1...
02C0: 13 80 21 00                                       ..!.            
```

#### Opcodes

```
  0: 0x0150 [0x42] SET_CLI_EVENT_CANCEL_DATA()
  1: 0x0151 [0x46] CAMERA_CONTROL: Disable user control
  2: 0x0153 [0x38] SET_CLIENT_EVENT_MODE(mode=19*)
  3: 0x0156 [0x45] LOAD_SCHEDULED_TASK: Load scheduler "fdo1" with entities [LocalPlayer, LocalPlayer], work=[200*, 0*]
  4: 0x0167 [0x1C] WAIT(60* ticks)
  5: 0x016A [0x45] LOAD_SCHEDULED_TASK: Load scheduler "dv00" with entities [LocalPlayer, LocalPlayer], work=[94*, 0*]
  6: 0x017B [0x29] REQ_SET_WAIT(priority=0x03, entity_id=LocalPlayer, tag_num=0x08)
  7: 0x0182 [0x1E] EventEntity looks at LocalPlayer and starts talking
  8: 0x0187 [0x66] LOAD_EXT_SCHEDULER_MAIN: Load scheduler "tlk0" with entities [EventEntity, EventEntity], work=40*
  9: 0x0196 [0x45] LOAD_SCHEDULED_TASK: Load scheduler "fdi1" with entities [LocalPlayer, LocalPlayer], work=[200*, 0*]
 10: 0x01A7 [0x1C] WAIT(60* ticks)
 11: 0x01AA [0x1D] PRINT_EVENT_MESSAGE(message_id=7409*)
    → "Heeeey, so you made it back in one piece? Good, good! Oh, I forgot to tell you one thing: if an orb turns totally red, it gets cursed."
 12: 0x01AD [0x23] WAIT_FOR_DIALOG_INTERACTION
 13: 0x01AE [0x66] LOAD_EXT_SCHEDULER_MAIN: Load scheduler "bik1" with entities [EventEntity, EventEntity], work=40*
 14: 0x01BD [0x53] WAIT_SCHEDULER_TASK: Wait for scheduler "bik1" with entities [EventEntity, EventEntity]
 15: 0x01CA [0x5E] EventEntity goes idle (kills current action) (animation: "idl0")
 16: 0x01CF [0x45] LOAD_SCHEDULED_TASK: Load scheduler "dv06" with entities [LocalPlayer, LocalPlayer], work=[94*, 0*]
 17: 0x01E0 [0x45] LOAD_SCHEDULED_TASK: Load scheduler "dv00" with entities [LocalPlayer, LocalPlayer], work=[94*, 0*]
 18: 0x01F1 [0x1C] WAIT(60* ticks)
 19: 0x01F4 [0x03] Work_Zone[2] = 135*
 20: 0x01F9 [0x1D] PRINT_EVENT_MESSAGE(message_id=7410*)
    → "W-w-wait a second! Isn't that $6 you have there!?"
 21: 0x01FC [0x23] WAIT_FOR_DIALOG_INTERACTION
 22: 0x01FD [0x66] LOAD_EXT_SCHEDULER_MAIN: Load scheduler "tlk0" with entities [EventEntity, EventEntity], work=40*
 23: 0x020C [0x1D] PRINT_EVENT_MESSAGE(message_id=7411*)
    → "Well, I guess all's well that ends well! This is aboutaru all the power you'll need, methinks."
 24: 0x020F [0x23] WAIT_FOR_DIALOG_INTERACTION
 25: 0x0210 [0x1D] PRINT_EVENT_MESSAGE(message_id=7412*)
    → "Let me just give it the barrier-disruption spells it so very much deserves..."
 26: 0x0213 [0x23] WAIT_FOR_DIALOG_INTERACTION
 27: 0x0214 [0x29] REQ_SET_WAIT(priority=0x03, entity_id=Sedal-Godjal (ID: 17387988/0x010951D4), tag_num=0x07)
 28: 0x021B [0x45] LOAD_SCHEDULED_TASK: Load scheduler "fdo1" with entities [LocalPlayer, LocalPlayer], work=[200*, 0*]
 29: 0x022C [0x1C] WAIT(60* ticks)
 30: 0x022F [0x45] LOAD_SCHEDULED_TASK: Load scheduler "dv00" with entities [LocalPlayer, LocalPlayer], work=[94*, 0*]
 31: 0x0240 [0x45] LOAD_SCHEDULED_TASK: Load scheduler "fdi1" with entities [LocalPlayer, LocalPlayer], work=[200*, 0*]
 32: 0x0251 [0x1C] WAIT(60* ticks)
 33: 0x0254 [0x48] [System] [7383*]:
    → "The mage's magic transforms the cursed orb into $6."
 34: 0x0257 [0x23] WAIT_FOR_DIALOG_INTERACTION
 35: 0x0258 [0x66] LOAD_EXT_SCHEDULER_MAIN: Load scheduler "tlk0" with entities [EventEntity, EventEntity], work=40*
 36: 0x0267 [0x1D] PRINT_EVENT_MESSAGE(message_id=7413*)
    → "And there you go! Take that $3 and stick it into the barrier. That should disruptaru the thing long enough for you to go in."
 37: 0x026A [0x23] WAIT_FOR_DIALOG_INTERACTION
 38: 0x026B [0x1D] PRINT_EVENT_MESSAGE(message_id=7414*)
    → "Take care and don't let the Orcs get it! There now, off you go! Good luck!"
 39: 0x026E [0x23] WAIT_FOR_DIALOG_INTERACTION
 40: 0x026F [0x66] LOAD_EXT_SCHEDULER_MAIN: Load scheduler "wai0" with entities [EventEntity, EventEntity], work=40*
 41: 0x027E [0x53] WAIT_SCHEDULER_TASK: Wait for scheduler "wai0" with entities [EventEntity, EventEntity]
 42: 0x028B [0x5E] EventEntity goes idle (kills current action) (animation: "idl0")
 43: 0x0290 [0x1C] WAIT(30* ticks)
 44: 0x0293 [0x03] Work_Zone[1] = 2*
 45: 0x0298 [0x45] LOAD_SCHEDULED_TASK: Load scheduler "fdo1" with entities [LocalPlayer, LocalPlayer], work=[200*, 0*]
 46: 0x02A9 [0x1C] WAIT(60* ticks)
 47: 0x02AC [0x46] CAMERA_CONTROL: Restore default settings
 48: 0x02AE [0x45] LOAD_SCHEDULED_TASK: Load scheduler "fdi1" with entities [LocalPlayer, LocalPlayer], work=[200*, 0*]
 49: 0x02BF [0x1C] WAIT(60* ticks)
 50: 0x02C2 [0x21] END_EVENT
 51: 0x02C3 [0x00] END_REQSTACK()
```

### Event 26

#### Metadata

| Field        | Value    |
|--------------|----------|
| Entrypoint   | 0x02C4   |
| Data Size    | 87 bytes |
| Instructions | 9        |

```
      00 01 02 03 04 05 06 07  08 09 0A 0B 0C 0D 0E 0F
      -- -- -- -- -- -- -- --  -- -- -- -- -- -- -- --
02C0:             45 12 80 F0  FF FF 7F F0 FF FF 7F 66      E..........f
02D0: 64 6F 31 08 80 1C 13 80  45 14 80 F0 FF FF 7F F0  do1.....E.......
02E0: FF FF 7F 64 76 30 35 08  80 45 12 80 F0 FF FF 7F  ...dv05..E......
02F0: F0 FF FF 7F 66 64 69 31  08 80 2C D4 51 09 01 F0  ....fdi1..,.Q...
0300: FF FF 7F 63 61 62 6B 1C  1E 80 2C D4 51 09 01 F0  ...cabk...,.Q...
0310: FF FF 7F 73 68 62 6B 1C  1F 80 00                 ...shbk....     
```

#### Opcodes

```
  0: 0x02C4 [0x45] LOAD_SCHEDULED_TASK: Load scheduler "fdo1" with entities [LocalPlayer, LocalPlayer], work=[200*, 0*]
  1: 0x02D5 [0x1C] WAIT(60* ticks)
  2: 0x02D8 [0x45] LOAD_SCHEDULED_TASK: Load scheduler "dv05" with entities [LocalPlayer, LocalPlayer], work=[94*, 0*]
  3: 0x02E9 [0x45] LOAD_SCHEDULED_TASK: Load scheduler "fdi1" with entities [LocalPlayer, LocalPlayer], work=[200*, 0*]
  4: 0x02FA [0x2C] CREATE_SCHEDULER_TASK: Create scheduler "cabk" with entities [Sedal-Godjal (ID: 17387988/0x010951D4), LocalPlayer]
  5: 0x0307 [0x1C] WAIT(300* ticks)
  6: 0x030A [0x2C] CREATE_SCHEDULER_TASK: Create scheduler "shbk" with entities [Sedal-Godjal (ID: 17387988/0x010951D4), LocalPlayer]
  7: 0x0317 [0x1C] WAIT(140* ticks)
  8: 0x031A [0x00] END_REQSTACK()
```

### Event 27

#### Metadata

| Field        | Value    |
|--------------|----------|
| Entrypoint   | 0x031B   |
| Data Size    | 86 bytes |
| Instructions | 12       |

```
      00 01 02 03 04 05 06 07  08 09 0A 0B 0C 0D 0E 0F
      -- -- -- -- -- -- -- --  -- -- -- -- -- -- -- --
0310:                                   1E F0 FF FF 7F             .....
0320: 66 00 80 F8 FF FF 7F F8  FF FF 7F 74 68 6B 31 53  f..........thk1S
0330: F8 FF FF 7F F8 FF FF 7F  74 68 6B 31 1D 20 80 23  ........thk1. .#
0340: 66 00 80 F8 FF FF 7F F8  FF FF 7F 74 68 6B 32 53  f..........thk2S
0350: F8 FF FF 7F F8 FF FF 7F  74 68 6B 32 66 00 80 F8  ........thk2f...
0360: FF FF 7F F8 FF FF 7F 74  6C 6B 30 1D 21 80 23 21  .......tlk0.!.#!
0370: 00                                                .               
```

#### Opcodes

```
  0: 0x031B [0x1E] EventEntity looks at LocalPlayer and starts talking
  1: 0x0320 [0x66] LOAD_EXT_SCHEDULER_MAIN: Load scheduler "thk1" with entities [EventEntity, EventEntity], work=40*
  2: 0x032F [0x53] WAIT_SCHEDULER_TASK: Wait for scheduler "thk1" with entities [EventEntity, EventEntity]
  3: 0x033C [0x1D] PRINT_EVENT_MESSAGE(message_id=7415*)
    → "Ahhh... You know, I'm sure I'm forgetting something..."
  4: 0x033F [0x23] WAIT_FOR_DIALOG_INTERACTION
  5: 0x0340 [0x66] LOAD_EXT_SCHEDULER_MAIN: Load scheduler "thk2" with entities [EventEntity, EventEntity], work=40*
  6: 0x034F [0x53] WAIT_SCHEDULER_TASK: Wait for scheduler "thk2" with entities [EventEntity, EventEntity]
  7: 0x035C [0x66] LOAD_EXT_SCHEDULER_MAIN: Load scheduler "tlk0" with entities [EventEntity, EventEntity], work=40*
  8: 0x036B [0x1D] PRINT_EVENT_MESSAGE(message_id=7416*)
    → "What was that now? Hmm..."
  9: 0x036E [0x23] WAIT_FOR_DIALOG_INTERACTION
 10: 0x036F [0x21] END_EVENT
 11: 0x0370 [0x00] END_REQSTACK()
```

### Event 65535.1

#### Metadata

| Field        | Value    |
|--------------|----------|
| Entrypoint   | 0x0371   |
| Data Size    | 16 bytes |
| Instructions | 2        |

```
      00 01 02 03 04 05 06 07  08 09 0A 0B 0C 0D 0E 0F
      -- -- -- -- -- -- -- --  -- -- -- -- -- -- -- --
0370:    66 00 80 F8 FF FF 7F  F8 FF FF 7F 74 6C 6B 30   f..........tlk0
0380: 00                                                .               
```

#### Opcodes

```
  0: 0x0371 [0x66] LOAD_EXT_SCHEDULER_MAIN: Load scheduler "tlk0" with entities [EventEntity, EventEntity], work=40*
  1: 0x0380 [0x00] END_REQSTACK()
```

### Event 65535.2

#### Metadata

| Field        | Value    |
|--------------|----------|
| Entrypoint   | 0x0381   |
| Data Size    | 22 bytes |
| Instructions | 4        |

```
      00 01 02 03 04 05 06 07  08 09 0A 0B 0C 0D 0E 0F
      -- -- -- -- -- -- -- --  -- -- -- -- -- -- -- --
0380:    53 F8 FF FF 7F F8 FF  FF 7F 74 6C 6B 30 5E 69   S........tlk0^i
0390: 64 6C 30 1C 04 80 00                              dl0....         
```

#### Opcodes

```
  0: 0x0381 [0x53] WAIT_SCHEDULER_TASK: Wait for scheduler "tlk0" with entities [EventEntity, EventEntity]
  1: 0x038E [0x5E] EventEntity goes idle (kills current action) (animation: "idl0")
  2: 0x0393 [0x1C] WAIT(30* ticks)
  3: 0x0396 [0x00] END_REQSTACK()
```

### Event 65535.3

#### Metadata

| Field        | Value    |
|--------------|----------|
| Entrypoint   | 0x0397   |
| Data Size    | 16 bytes |
| Instructions | 2        |

```
      00 01 02 03 04 05 06 07  08 09 0A 0B 0C 0D 0E 0F
      -- -- -- -- -- -- -- --  -- -- -- -- -- -- -- --
0390:                      66  00 80 F8 FF FF 7F F8 FF         f........
03A0: FF 7F 74 68 6B 31 00                              ..thk1.         
```

#### Opcodes

```
  0: 0x0397 [0x66] LOAD_EXT_SCHEDULER_MAIN: Load scheduler "thk1" with entities [EventEntity, EventEntity], work=40*
  1: 0x03A6 [0x00] END_REQSTACK()
```

### Event 65535.4

#### Metadata

| Field        | Value    |
|--------------|----------|
| Entrypoint   | 0x03A7   |
| Data Size    | 14 bytes |
| Instructions | 2        |

```
      00 01 02 03 04 05 06 07  08 09 0A 0B 0C 0D 0E 0F
      -- -- -- -- -- -- -- --  -- -- -- -- -- -- -- --
03A0:                      53  F8 FF FF 7F F8 FF FF 7F         S........
03B0: 74 68 6B 31 00                                    thk1.           
```

#### Opcodes

```
  0: 0x03A7 [0x53] WAIT_SCHEDULER_TASK: Wait for scheduler "thk1" with entities [EventEntity, EventEntity]
  1: 0x03B4 [0x00] END_REQSTACK()
```

### Event 65535.5

#### Metadata

| Field        | Value    |
|--------------|----------|
| Entrypoint   | 0x03B5   |
| Data Size    | 16 bytes |
| Instructions | 2        |

```
      00 01 02 03 04 05 06 07  08 09 0A 0B 0C 0D 0E 0F
      -- -- -- -- -- -- -- --  -- -- -- -- -- -- -- --
03B0:                66 00 80  F8 FF FF 7F F8 FF FF 7F       f..........
03C0: 74 68 6B 32 00                                    thk2.           
```

#### Opcodes

```
  0: 0x03B5 [0x66] LOAD_EXT_SCHEDULER_MAIN: Load scheduler "thk2" with entities [EventEntity, EventEntity], work=40*
  1: 0x03C4 [0x00] END_REQSTACK()
```

### Event 65535.6

#### Metadata

| Field        | Value    |
|--------------|----------|
| Entrypoint   | 0x03C5   |
| Data Size    | 14 bytes |
| Instructions | 2        |

```
      00 01 02 03 04 05 06 07  08 09 0A 0B 0C 0D 0E 0F
      -- -- -- -- -- -- -- --  -- -- -- -- -- -- -- --
03C0:                53 F8 FF  FF 7F F8 FF FF 7F 74 68       S........th
03D0: 6B 32 00                                          k2.             
```

#### Opcodes

```
  0: 0x03C5 [0x53] WAIT_SCHEDULER_TASK: Wait for scheduler "thk2" with entities [EventEntity, EventEntity]
  1: 0x03D2 [0x00] END_REQSTACK()
```

### Event 65535.7

#### Metadata

| Field        | Value    |
|--------------|----------|
| Entrypoint   | 0x03D3   |
| Data Size    | 16 bytes |
| Instructions | 2        |

```
      00 01 02 03 04 05 06 07  08 09 0A 0B 0C 0D 0E 0F
      -- -- -- -- -- -- -- --  -- -- -- -- -- -- -- --
03D0:          66 00 80 F8 FF  FF 7F F8 FF FF 7F 73 79     f..........sy
03E0: 75 30 00                                          u0.             
```

#### Opcodes

```
  0: 0x03D3 [0x66] LOAD_EXT_SCHEDULER_MAIN: Load scheduler "syu0" with entities [EventEntity, EventEntity], work=40*
  1: 0x03E2 [0x00] END_REQSTACK()
```

### Event 65535.8

#### Metadata

| Field        | Value    |
|--------------|----------|
| Entrypoint   | 0x03E3   |
| Data Size    | 14 bytes |
| Instructions | 2        |

```
      00 01 02 03 04 05 06 07  08 09 0A 0B 0C 0D 0E 0F
      -- -- -- -- -- -- -- --  -- -- -- -- -- -- -- --
03E0:          53 F8 FF FF 7F  F8 FF FF 7F 73 79 75 30     S........syu0
03F0: 00                                                .               
```

#### Opcodes

```
  0: 0x03E3 [0x53] WAIT_SCHEDULER_TASK: Wait for scheduler "syu0" with entities [EventEntity, EventEntity]
  1: 0x03F0 [0x00] END_REQSTACK()
```

### Event 65535.9

#### Metadata

| Field        | Value    |
|--------------|----------|
| Entrypoint   | 0x03F1   |
| Data Size    | 16 bytes |
| Instructions | 2        |

```
      00 01 02 03 04 05 06 07  08 09 0A 0B 0C 0D 0E 0F
      -- -- -- -- -- -- -- --  -- -- -- -- -- -- -- --
03F0:    66 00 80 F8 FF FF 7F  F8 FF FF 7F 64 69 73 30   f..........dis0
0400: 00                                                .               
```

#### Opcodes

```
  0: 0x03F1 [0x66] LOAD_EXT_SCHEDULER_MAIN: Load scheduler "dis0" with entities [EventEntity, EventEntity], work=40*
  1: 0x0400 [0x00] END_REQSTACK()
```

### Event 65535.10

#### Metadata

| Field        | Value    |
|--------------|----------|
| Entrypoint   | 0x0401   |
| Data Size    | 14 bytes |
| Instructions | 2        |

```
      00 01 02 03 04 05 06 07  08 09 0A 0B 0C 0D 0E 0F
      -- -- -- -- -- -- -- --  -- -- -- -- -- -- -- --
0400:    53 F8 FF FF 7F F8 FF  FF 7F 64 69 73 30 00      S........dis0. 
```

#### Opcodes

```
  0: 0x0401 [0x53] WAIT_SCHEDULER_TASK: Wait for scheduler "dis0" with entities [EventEntity, EventEntity]
  1: 0x040E [0x00] END_REQSTACK()
```

### Event 65535.11

#### Metadata

| Field        | Value    |
|--------------|----------|
| Entrypoint   | 0x040F   |
| Data Size    | 16 bytes |
| Instructions | 2        |

```
      00 01 02 03 04 05 06 07  08 09 0A 0B 0C 0D 0E 0F
      -- -- -- -- -- -- -- --  -- -- -- -- -- -- -- --
0400:                                               66                 f
0410: 00 80 F8 FF FF 7F F8 FF  FF 7F 70 61 73 30 00     ..........pas0. 
```

#### Opcodes

```
  0: 0x040F [0x66] LOAD_EXT_SCHEDULER_MAIN: Load scheduler "pas0" with entities [EventEntity, EventEntity], work=40*
  1: 0x041E [0x00] END_REQSTACK()
```

### Event 65535.12

#### Metadata

| Field        | Value    |
|--------------|----------|
| Entrypoint   | 0x041F   |
| Data Size    | 14 bytes |
| Instructions | 2        |

```
      00 01 02 03 04 05 06 07  08 09 0A 0B 0C 0D 0E 0F
      -- -- -- -- -- -- -- --  -- -- -- -- -- -- -- --
0410:                                               53                 S
0420: F8 FF FF 7F F8 FF FF 7F  70 61 73 30 00           ........pas0.   
```

#### Opcodes

```
  0: 0x041F [0x53] WAIT_SCHEDULER_TASK: Wait for scheduler "pas0" with entities [EventEntity, EventEntity]
  1: 0x042C [0x00] END_REQSTACK()
```

### Event 65535.13

#### Metadata

| Field        | Value    |
|--------------|----------|
| Entrypoint   | 0x042D   |
| Data Size    | 16 bytes |
| Instructions | 2        |

```
      00 01 02 03 04 05 06 07  08 09 0A 0B 0C 0D 0E 0F
      -- -- -- -- -- -- -- --  -- -- -- -- -- -- -- --
0420:                                         66 00 80               f..
0430: F8 FF FF 7F F8 FF FF 7F  77 61 69 30 00           ........wai0.   
```

#### Opcodes

```
  0: 0x042D [0x66] LOAD_EXT_SCHEDULER_MAIN: Load scheduler "wai0" with entities [EventEntity, EventEntity], work=40*
  1: 0x043C [0x00] END_REQSTACK()
```

### Event 65535.14

#### Metadata

| Field        | Value    |
|--------------|----------|
| Entrypoint   | 0x043D   |
| Data Size    | 14 bytes |
| Instructions | 2        |

```
      00 01 02 03 04 05 06 07  08 09 0A 0B 0C 0D 0E 0F
      -- -- -- -- -- -- -- --  -- -- -- -- -- -- -- --
0430:                                         53 F8 FF               S..
0440: FF 7F F8 FF FF 7F 77 61  69 30 00                 ......wai0.     
```

#### Opcodes

```
  0: 0x043D [0x53] WAIT_SCHEDULER_TASK: Wait for scheduler "wai0" with entities [EventEntity, EventEntity]
  1: 0x044A [0x00] END_REQSTACK()
```

### Event 65535.15

#### Metadata

| Field        | Value    |
|--------------|----------|
| Entrypoint   | 0x044B   |
| Data Size    | 16 bytes |
| Instructions | 2        |

```
      00 01 02 03 04 05 06 07  08 09 0A 0B 0C 0D 0E 0F
      -- -- -- -- -- -- -- --  -- -- -- -- -- -- -- --
0440:                                   66 05 80 F8 FF             f....
0450: FF 7F F8 FF FF 7F 73 68  6B 30 00                 ......shk0.     
```

#### Opcodes

```
  0: 0x044B [0x66] LOAD_EXT_SCHEDULER_MAIN: Load scheduler "shk0" with entities [EventEntity, EventEntity], work=41*
  1: 0x045A [0x00] END_REQSTACK()
```

### Event 65535.16

#### Metadata

| Field        | Value    |
|--------------|----------|
| Entrypoint   | 0x045B   |
| Data Size    | 14 bytes |
| Instructions | 2        |

```
      00 01 02 03 04 05 06 07  08 09 0A 0B 0C 0D 0E 0F
      -- -- -- -- -- -- -- --  -- -- -- -- -- -- -- --
0450:                                   53 F8 FF FF 7F             S....
0460: F8 FF FF 7F 73 68 6B 30  00                       ....shk0.       
```

#### Opcodes

```
  0: 0x045B [0x53] WAIT_SCHEDULER_TASK: Wait for scheduler "shk0" with entities [EventEntity, EventEntity]
  1: 0x0468 [0x00] END_REQSTACK()
```

### Event 65535.17

#### Metadata

| Field        | Value    |
|--------------|----------|
| Entrypoint   | 0x0469   |
| Data Size    | 16 bytes |
| Instructions | 2        |

```
      00 01 02 03 04 05 06 07  08 09 0A 0B 0C 0D 0E 0F
      -- -- -- -- -- -- -- --  -- -- -- -- -- -- -- --
0460:                             66 00 80 F8 FF FF 7F           f......
0470: F8 FF FF 7F 67 6B 72 30  00                       ....gkr0.       
```

#### Opcodes

```
  0: 0x0469 [0x66] LOAD_EXT_SCHEDULER_MAIN: Load scheduler "gkr0" with entities [EventEntity, EventEntity], work=40*
  1: 0x0478 [0x00] END_REQSTACK()
```

### Event 65535.18

#### Metadata

| Field        | Value    |
|--------------|----------|
| Entrypoint   | 0x0479   |
| Data Size    | 22 bytes |
| Instructions | 4        |

```
      00 01 02 03 04 05 06 07  08 09 0A 0B 0C 0D 0E 0F
      -- -- -- -- -- -- -- --  -- -- -- -- -- -- -- --
0470:                             53 F8 FF FF 7F F8 FF           S......
0480: FF 7F 67 6B 72 30 5E 69  64 6C 30 1C 04 80 00     ..gkr0^idl0.... 
```

#### Opcodes

```
  0: 0x0479 [0x53] WAIT_SCHEDULER_TASK: Wait for scheduler "gkr0" with entities [EventEntity, EventEntity]
  1: 0x0486 [0x5E] EventEntity goes idle (kills current action) (animation: "idl0")
  2: 0x048B [0x1C] WAIT(30* ticks)
  3: 0x048E [0x00] END_REQSTACK()
```

### Event 65535.19

#### Metadata

| Field        | Value    |
|--------------|----------|
| Entrypoint   | 0x048F   |
| Data Size    | 16 bytes |
| Instructions | 2        |

```
      00 01 02 03 04 05 06 07  08 09 0A 0B 0C 0D 0E 0F
      -- -- -- -- -- -- -- --  -- -- -- -- -- -- -- --
0480:                                               66                 f
0490: 00 80 F8 FF FF 7F F8 FF  FF 7F 69 72 6F 30 00     ..........iro0. 
```

#### Opcodes

```
  0: 0x048F [0x66] LOAD_EXT_SCHEDULER_MAIN: Load scheduler "iro0" with entities [EventEntity, EventEntity], work=40*
  1: 0x049E [0x00] END_REQSTACK()
```

### Event 65535.20

#### Metadata

| Field        | Value    |
|--------------|----------|
| Entrypoint   | 0x049F   |
| Data Size    | 14 bytes |
| Instructions | 2        |

```
      00 01 02 03 04 05 06 07  08 09 0A 0B 0C 0D 0E 0F
      -- -- -- -- -- -- -- --  -- -- -- -- -- -- -- --
0490:                                               53                 S
04A0: F8 FF FF 7F F8 FF FF 7F  69 72 6F 30 00           ........iro0.   
```

#### Opcodes

```
  0: 0x049F [0x53] WAIT_SCHEDULER_TASK: Wait for scheduler "iro0" with entities [EventEntity, EventEntity]
  1: 0x04AC [0x00] END_REQSTACK()
```

### Event 65535.21

#### Metadata

| Field        | Value    |
|--------------|----------|
| Entrypoint   | 0x04AD   |
| Data Size    | 16 bytes |
| Instructions | 2        |

```
      00 01 02 03 04 05 06 07  08 09 0A 0B 0C 0D 0E 0F
      -- -- -- -- -- -- -- --  -- -- -- -- -- -- -- --
04A0:                                         66 00 80               f..
04B0: F8 FF FF 7F F8 FF FF 7F  70 6F 69 30 00           ........poi0.   
```

#### Opcodes

```
  0: 0x04AD [0x66] LOAD_EXT_SCHEDULER_MAIN: Load scheduler "poi0" with entities [EventEntity, EventEntity], work=40*
  1: 0x04BC [0x00] END_REQSTACK()
```

### Event 65535.22

#### Metadata

| Field        | Value    |
|--------------|----------|
| Entrypoint   | 0x04BD   |
| Data Size    | 14 bytes |
| Instructions | 2        |

```
      00 01 02 03 04 05 06 07  08 09 0A 0B 0C 0D 0E 0F
      -- -- -- -- -- -- -- --  -- -- -- -- -- -- -- --
04B0:                                         53 F8 FF               S..
04C0: FF 7F F8 FF FF 7F 70 6F  69 30 00                 ......poi0.     
```

#### Opcodes

```
  0: 0x04BD [0x53] WAIT_SCHEDULER_TASK: Wait for scheduler "poi0" with entities [EventEntity, EventEntity]
  1: 0x04CA [0x00] END_REQSTACK()
```

### Event 65535.23

#### Metadata

| Field        | Value   |
|--------------|---------|
| Entrypoint   | 0x04CB  |
| Data Size    | 9 bytes |
| Instructions | 3       |

```
      00 01 02 03 04 05 06 07  08 09 0A 0B 0C 0D 0E 0F
      -- -- -- -- -- -- -- --  -- -- -- -- -- -- -- --
04C0:                                   5E 69 64 6C 30             ^idl0
04D0: 1C 04 80 00                                       ....            
```

#### Opcodes

```
  0: 0x04CB [0x5E] EventEntity goes idle (kills current action) (animation: "idl0")
  1: 0x04D0 [0x1C] WAIT(30* ticks)
  2: 0x04D3 [0x00] END_REQSTACK()
```

### Event 118

#### Metadata

| Field        | Value     |
|--------------|-----------|
| Entrypoint   | 0x04D4    |
| Data Size    | 376 bytes |
| Instructions | 53        |

```
      00 01 02 03 04 05 06 07  08 09 0A 0B 0C 0D 0E 0F
      -- -- -- -- -- -- -- --  -- -- -- -- -- -- -- --
04D0:             42 46 01 5D  08 80 12 80 45 12 80 F8      BF.]....E...
04E0: FF FF 7F F8 FF FF 7F 66  64 6F 31 08 80 1C 13 80  .......fdo1.....
04F0: 38 11 80 29 08 F0 FF FF  7F 11 5C 00 22 80 5C 01  8..)......\.".\.
0500: 22 80 5D 23 80 09 80 2B  FD 51 09 01 24 80 23 29  ".]#...+.Q..$.#)
0510: 08 F0 FF FF 7F 14 1E F0  FF FF 7F 6F 70 45 25 80  ...........opE%.
0520: F8 FF FF 7F F8 FF FF 7F  73 30 35 38 08 80 45 12  ........s058..E.
0530: 80 F8 FF FF 7F F8 FF FF  7F 66 64 69 31 08 80 29  .........fdi1..)
0540: 08 D4 51 09 01 17 29 0B  D4 51 09 01 21 29 08 D4  ..Q...)..Q..!)..
0550: 51 09 01 18 52 25 80 F8  FF FF 7F F8 FF FF 7F 73  Q...R%.........s
0560: 30 35 38 45 25 80 F8 FF  FF 7F F8 FF FF 7F 73 30  058E%.........s0
0570: 35 39 08 80 29 08 D4 51  09 01 19 29 0B D4 51 09  59..)..Q...)..Q.
0580: 01 22 29 08 D4 51 09 01  1A 29 0B D4 51 09 01 23  .")..Q...)..Q..#
0590: 52 25 80 F8 FF FF 7F F8  FF FF 7F 73 30 35 39 45  R%.........s059E
05A0: 25 80 F8 FF FF 7F F8 FF  FF 7F 73 30 36 30 08 80  %.........s060..
05B0: 29 0B D4 51 09 01 24 52  25 80 F8 FF FF 7F F8 FF  )..Q..$R%.......
05C0: FF 7F 73 30 36 30 45 12  80 F0 FF FF 7F F0 FF FF  ..s060E.........
05D0: 7F 6F 76 6C 31 08 80 45  25 80 F8 FF FF 7F F8 FF  .ovl1..E%.......
05E0: FF 7F 73 30 36 31 08 80  29 08 D4 51 09 01 09 29  ..s061..)..Q...)
05F0: 0B D4 51 09 01 25 29 0B  D4 51 09 01 26 29 08 D4  ..Q..%)..Q..&)..
0600: 51 09 01 0A 5D 08 80 12  80 45 12 80 F8 FF FF 7F  Q...]....E......
0610: F8 FF FF 7F 66 64 6F 31  08 80 1C 12 80 5C 00 08  ....fdo1.....\..
0620: 80 5C 01 08 80 5D 23 80  09 80 46 00 1D 26 80 23  .\...]#...F..&.#
0630: 1C 12 80 45 12 80 F8 FF  FF 7F F8 FF FF 7F 66 64  ...E..........fd
0640: 69 31 08 80 48 27 80 23  20 00 21 00              i1..H'.# .!.    
```

#### Opcodes

```
  0: 0x04D4 [0x42] SET_CLI_EVENT_CANCEL_DATA()
  1: 0x04D5 [0x46] CAMERA_CONTROL: Disable user control
  2: 0x04D7 [0x5D] SET_MUSIC_VOLUME(volume=0*, fade_time=200*)
  3: 0x04DC [0x45] LOAD_SCHEDULED_TASK: Load scheduler "fdo1" with entities [EventEntity, EventEntity], work=[200*, 0*]
  4: 0x04ED [0x1C] WAIT(60* ticks)
  5: 0x04F0 [0x38] SET_CLIENT_EVENT_MODE(mode=19*)
  6: 0x04F3 [0x29] REQ_SET_WAIT(priority=0x08, entity_id=LocalPlayer, tag_num=0x11)
  7: 0x04FA [0x5C] MUSIC_CONTROL: Set Idle (Day) music to song 163*
  8: 0x04FE [0x5C] MUSIC_CONTROL: Set Idle (Night) music to song 163*
  9: 0x0502 [0x5D] SET_MUSIC_VOLUME(volume=127*, fade_time=1*)
 10: 0x0507 [0x2B] Talking Doll (ID: 17388029/0x010951FD) [7521*]:
    → "Ahahahahaha! There it is! It's on that Tarutaru!"
 11: 0x050E [0x23] WAIT_FOR_DIALOG_INTERACTION
 12: 0x050F [0x29] REQ_SET_WAIT(priority=0x08, entity_id=LocalPlayer, tag_num=0x14)
 13: 0x0516 [0x1E] EventEntity looks at LocalPlayer and starts talking
 14: 0x051B [0x6F] WAIT_FRAME_DELAY: Yield until WaitTime reaches zero
 15: 0x051C [0x70] WAIT_ENTITY_RENDER_FLAG: Wait while EventEntity->Render.Flags3 bit 2 is set (cancel turn if not)
 16: 0x051D [0x45] LOAD_SCHEDULED_TASK: Load scheduler "s058" with entities [EventEntity, EventEntity], work=[49*, 0*]
 17: 0x052E [0x45] LOAD_SCHEDULED_TASK: Load scheduler "fdi1" with entities [EventEntity, EventEntity], work=[200*, 0*]
 18: 0x053F [0x29] REQ_SET_WAIT(priority=0x08, entity_id=Sedal-Godjal (ID: 17387988/0x010951D4), tag_num=0x17)
 19: 0x0546 [0x29] REQ_SET_WAIT(priority=0x0B, entity_id=Sedal-Godjal (ID: 17387988/0x010951D4), tag_num=0x21)
 20: 0x054D [0x29] REQ_SET_WAIT(priority=0x08, entity_id=Sedal-Godjal (ID: 17387988/0x010951D4), tag_num=0x18)
 21: 0x0554 [0x52] END_LOAD_SCHEDULER: End scheduler "s058" with entities [EventEntity, EventEntity], work=49*
 22: 0x0563 [0x45] LOAD_SCHEDULED_TASK: Load scheduler "s059" with entities [EventEntity, EventEntity], work=[49*, 0*]
 23: 0x0574 [0x29] REQ_SET_WAIT(priority=0x08, entity_id=Sedal-Godjal (ID: 17387988/0x010951D4), tag_num=0x19)
 24: 0x057B [0x29] REQ_SET_WAIT(priority=0x0B, entity_id=Sedal-Godjal (ID: 17387988/0x010951D4), tag_num=0x22)
 25: 0x0582 [0x29] REQ_SET_WAIT(priority=0x08, entity_id=Sedal-Godjal (ID: 17387988/0x010951D4), tag_num=0x1A)
 26: 0x0589 [0x29] REQ_SET_WAIT(priority=0x0B, entity_id=Sedal-Godjal (ID: 17387988/0x010951D4), tag_num=0x23)
 27: 0x0590 [0x52] END_LOAD_SCHEDULER: End scheduler "s059" with entities [EventEntity, EventEntity], work=49*
 28: 0x059F [0x45] LOAD_SCHEDULED_TASK: Load scheduler "s060" with entities [EventEntity, EventEntity], work=[49*, 0*]
 29: 0x05B0 [0x29] REQ_SET_WAIT(priority=0x0B, entity_id=Sedal-Godjal (ID: 17387988/0x010951D4), tag_num=0x24)
 30: 0x05B7 [0x52] END_LOAD_SCHEDULER: End scheduler "s060" with entities [EventEntity, EventEntity], work=49*
 31: 0x05C6 [0x45] LOAD_SCHEDULED_TASK: Load scheduler "ovl1" with entities [LocalPlayer, LocalPlayer], work=[200*, 0*]
 32: 0x05D7 [0x45] LOAD_SCHEDULED_TASK: Load scheduler "s061" with entities [EventEntity, EventEntity], work=[49*, 0*]
 33: 0x05E8 [0x29] REQ_SET_WAIT(priority=0x08, entity_id=Sedal-Godjal (ID: 17387988/0x010951D4), tag_num=0x09)
 34: 0x05EF [0x29] REQ_SET_WAIT(priority=0x0B, entity_id=Sedal-Godjal (ID: 17387988/0x010951D4), tag_num=0x25)
 35: 0x05F6 [0x29] REQ_SET_WAIT(priority=0x0B, entity_id=Sedal-Godjal (ID: 17387988/0x010951D4), tag_num=0x26)
 36: 0x05FD [0x29] REQ_SET_WAIT(priority=0x08, entity_id=Sedal-Godjal (ID: 17387988/0x010951D4), tag_num=0x0A)
 37: 0x0604 [0x5D] SET_MUSIC_VOLUME(volume=0*, fade_time=200*)
 38: 0x0609 [0x45] LOAD_SCHEDULED_TASK: Load scheduler "fdo1" with entities [EventEntity, EventEntity], work=[200*, 0*]
 39: 0x061A [0x1C] WAIT(200* ticks)
 40: 0x061D [0x5C] MUSIC_CONTROL: Set Idle (Day) music to song 0*
 41: 0x0621 [0x5C] MUSIC_CONTROL: Set Idle (Night) music to song 0*
 42: 0x0625 [0x5D] SET_MUSIC_VOLUME(volume=127*, fade_time=1*)
 43: 0x062A [0x46] CAMERA_CONTROL: Restore default settings
 44: 0x062C [0x1D] PRINT_EVENT_MESSAGE(message_id=7529*)
    → "Ah, one more thing... ...Yah!"
 45: 0x062F [0x23] WAIT_FOR_DIALOG_INTERACTION
 46: 0x0630 [0x1C] WAIT(200* ticks)
 47: 0x0633 [0x45] LOAD_SCHEDULED_TASK: Load scheduler "fdi1" with entities [EventEntity, EventEntity], work=[200*, 0*]
 48: 0x0644 [0x48] [System] [7530*]:
    → "The $3 has been drained of magic..."
 49: 0x0647 [0x23] WAIT_FOR_DIALOG_INTERACTION
 50: 0x0648 [0x20] SET_CLI_EVENT_UC_FLAG: Unlock player control
 51: 0x064A [0x21] END_EVENT
 52: 0x064B [0x00] END_REQSTACK()
```

### Event 65535.24

#### Metadata

| Field        | Value   |
|--------------|---------|
| Entrypoint   | 0x064C  |
| Data Size    | 5 bytes |
| Instructions | 3       |

```
      00 01 02 03 04 05 06 07  08 09 0A 0B 0C 0D 0E 0F
      -- -- -- -- -- -- -- --  -- -- -- -- -- -- -- --
0640:                                      1D 28 80 23              .(.#
0650: 00                                                .               
```

#### Opcodes

```
  0: 0x064C [0x1D] PRINT_EVENT_MESSAGE(message_id=7522*)
    → "Yipes! Th-that's an Aurastery doll! Which means you must be an agentaru of the Aurastery!"
  1: 0x064F [0x23] WAIT_FOR_DIALOG_INTERACTION
  2: 0x0650 [0x00] END_REQSTACK()
```

### Event 65535.25

#### Metadata

| Field        | Value   |
|--------------|---------|
| Entrypoint   | 0x0651  |
| Data Size    | 5 bytes |
| Instructions | 3       |

```
      00 01 02 03 04 05 06 07  08 09 0A 0B 0C 0D 0E 0F
      -- -- -- -- -- -- -- --  -- -- -- -- -- -- -- --
0650:    1D 29 80 23 00                                  .).#.          
```

#### Opcodes

```
  0: 0x0651 [0x1D] PRINT_EVENT_MESSAGE(message_id=7523*)
    → "Ah... So, you've finally found me..."
  1: 0x0654 [0x23] WAIT_FOR_DIALOG_INTERACTION
  2: 0x0655 [0x00] END_REQSTACK()
```

### Event 65535.26

#### Metadata

| Field        | Value   |
|--------------|---------|
| Entrypoint   | 0x0656  |
| Data Size    | 5 bytes |
| Instructions | 3       |

```
      00 01 02 03 04 05 06 07  08 09 0A 0B 0C 0D 0E 0F
      -- -- -- -- -- -- -- --  -- -- -- -- -- -- -- --
0650:                   1D 2A  80 23 00                       .*.#.     
```

#### Opcodes

```
  0: 0x0656 [0x1D] PRINT_EVENT_MESSAGE(message_id=7524*)
    → "But let me say this in my defense! I'm waiting for reinforcements from San d'Oria to arrive, so I haven'taru been able to move from this place."
  1: 0x0659 [0x23] WAIT_FOR_DIALOG_INTERACTION
  2: 0x065A [0x00] END_REQSTACK()
```

### Event 65535.27

#### Metadata

| Field        | Value    |
|--------------|----------|
| Entrypoint   | 0x065B   |
| Data Size    | 37 bytes |
| Instructions | 9        |

```
      00 01 02 03 04 05 06 07  08 09 0A 0B 0C 0D 0E 0F
      -- -- -- -- -- -- -- --  -- -- -- -- -- -- -- --
0650:                                   29 08 D4 51 09             )..Q.
0660: 01 0F 1D 2B 80 23 29 08  D4 51 09 01 10 29 08 D4  ...+.#)..Q...)..
0670: 51 09 01 1B 1D 2C 80 23  29 08 D4 51 09 01 1C 00  Q....,.#)..Q....
```

#### Opcodes

```
  0: 0x065B [0x29] REQ_SET_WAIT(priority=0x08, entity_id=Sedal-Godjal (ID: 17387988/0x010951D4), tag_num=0x0F)
  1: 0x0662 [0x1D] PRINT_EVENT_MESSAGE(message_id=7525*)
    → "Until the knights get here, I have to magically seal this area for the sake of the people of San d'Oria."
  2: 0x0665 [0x23] WAIT_FOR_DIALOG_INTERACTION
  3: 0x0666 [0x29] REQ_SET_WAIT(priority=0x08, entity_id=Sedal-Godjal (ID: 17387988/0x010951D4), tag_num=0x10)
  4: 0x066D [0x29] REQ_SET_WAIT(priority=0x08, entity_id=Sedal-Godjal (ID: 17387988/0x010951D4), tag_num=0x1B)
  5: 0x0674 [0x1D] PRINT_EVENT_MESSAGE(message_id=7526*)
    → "However, my concentration for maintaining the seal is being disruptarued. An Orc carrying $1 has been enspelling me from afar..."
  6: 0x0677 [0x23] WAIT_FOR_DIALOG_INTERACTION
  7: 0x0678 [0x29] REQ_SET_WAIT(priority=0x08, entity_id=Sedal-Godjal (ID: 17387988/0x010951D4), tag_num=0x1C)
  8: 0x067F [0x00] END_REQSTACK()
```

### Event 65535.28

#### Metadata

| Field        | Value   |
|--------------|---------|
| Entrypoint   | 0x0680  |
| Data Size    | 5 bytes |
| Instructions | 3       |

```
      00 01 02 03 04 05 06 07  08 09 0A 0B 0C 0D 0E 0F
      -- -- -- -- -- -- -- --  -- -- -- -- -- -- -- --
0680: 1D 2D 80 23 00                                    .-.#.           
```

#### Opcodes

```
  0: 0x0680 [0x1D] PRINT_EVENT_MESSAGE(message_id=7527*)
    → "This has further hamper-wampered my chances of getting outaru of here any time soon."
  1: 0x0683 [0x23] WAIT_FOR_DIALOG_INTERACTION
  2: 0x0684 [0x00] END_REQSTACK()
```

### Event 65535.29

#### Metadata

| Field        | Value   |
|--------------|---------|
| Entrypoint   | 0x0685  |
| Data Size    | 5 bytes |
| Instructions | 3       |

```
      00 01 02 03 04 05 06 07  08 09 0A 0B 0C 0D 0E 0F
      -- -- -- -- -- -- -- --  -- -- -- -- -- -- -- --
0680:                1D 2E 80  23 00                         ...#.      
```

#### Opcodes

```
  0: 0x0685 [0x1D] PRINT_EVENT_MESSAGE(message_id=7528*)
    → "If Moreno-Toeno was the one who putaru you up to this, let him know of my situation."
  1: 0x0688 [0x23] WAIT_FOR_DIALOG_INTERACTION
  2: 0x0689 [0x00] END_REQSTACK()
```

### Event 119

#### Metadata

| Field        | Value    |
|--------------|----------|
| Entrypoint   | 0x068A   |
| Data Size    | 47 bytes |
| Instructions | 14       |

```
      00 01 02 03 04 05 06 07  08 09 0A 0B 0C 0D 0E 0F
      -- -- -- -- -- -- -- --  -- -- -- -- -- -- -- --
0680:                                1E F0 FF FF 7F 6F            .....o
0690: 70 29 08 D4 51 09 01 0F  1D 2F 80 23 29 08 D4 51  p)..Q..../.#)..Q
06A0: 09 01 10 29 08 D4 51 09  01 1B 1D 30 80 23 29 08  ...)..Q....0.#).
06B0: D4 51 09 01 1C 20 00 21  00                       .Q... .!.       
```

#### Opcodes

```
  0: 0x068A [0x1E] EventEntity looks at LocalPlayer and starts talking
  1: 0x068F [0x6F] WAIT_FRAME_DELAY: Yield until WaitTime reaches zero
  2: 0x0690 [0x70] WAIT_ENTITY_RENDER_FLAG: Wait while EventEntity->Render.Flags3 bit 2 is set (cancel turn if not)
  3: 0x0691 [0x29] REQ_SET_WAIT(priority=0x08, entity_id=Sedal-Godjal (ID: 17387988/0x010951D4), tag_num=0x0F)
  4: 0x0698 [0x1D] PRINT_EVENT_MESSAGE(message_id=7531*)
    → "I've been using my power to seal the brutish-wutish Orcish Overlord in the caves just beyond here. I mustaru continue my efforts until the reinforcements arrive."
  5: 0x069B [0x23] WAIT_FOR_DIALOG_INTERACTION
  6: 0x069C [0x29] REQ_SET_WAIT(priority=0x08, entity_id=Sedal-Godjal (ID: 17387988/0x010951D4), tag_num=0x10)
  7: 0x06A3 [0x29] REQ_SET_WAIT(priority=0x08, entity_id=Sedal-Godjal (ID: 17387988/0x010951D4), tag_num=0x1B)
  8: 0x06AA [0x1D] PRINT_EVENT_MESSAGE(message_id=7532*)
    → "However, my concentration for maintaining the seal is being disruptarued. An Orc carrying $1 has been enspelling me from afar..."
  9: 0x06AD [0x23] WAIT_FOR_DIALOG_INTERACTION
 10: 0x06AE [0x29] REQ_SET_WAIT(priority=0x08, entity_id=Sedal-Godjal (ID: 17387988/0x010951D4), tag_num=0x1C)
 11: 0x06B5 [0x20] SET_CLI_EVENT_UC_FLAG: Unlock player control
 12: 0x06B7 [0x21] END_EVENT
 13: 0x06B8 [0x00] END_REQSTACK()
```

### Event 120

#### Metadata

| Field        | Value     |
|--------------|-----------|
| Entrypoint   | 0x06B9    |
| Data Size    | 668 bytes |
| Instructions | 77        |

```
      00 01 02 03 04 05 06 07  08 09 0A 0B 0C 0D 0E 0F
      -- -- -- -- -- -- -- --  -- -- -- -- -- -- -- --
06B0:                             42 46 01 5D 08 80 12           BF.]...
06C0: 80 45 12 80 F8 FF FF 7F  F8 FF FF 7F 66 64 6F 31  .E..........fdo1
06D0: 08 80 1C 13 80 38 11 80  29 08 F0 FF FF 7F 11 5C  .....8..)......\
06E0: 00 22 80 5C 01 22 80 5D  23 80 09 80 29 08 F0 FF  .".\.".]#...)...
06F0: FF 7F 14 1E F0 FF FF 7F  6F 70 45 25 80 F8 FF FF  ........opE%....
0700: 7F F8 FF FF 7F 73 30 35  38 08 80 45 12 80 F8 FF  .....s058..E....
0710: FF 7F F8 FF FF 7F 66 64  69 31 08 80 29 08 D4 51  ......fdi1..)..Q
0720: 09 01 17 29 0B D4 51 09  01 29 29 08 D4 51 09 01  ...)..Q..))..Q..
0730: 18 52 25 80 F8 FF FF 7F  F8 FF FF 7F 73 30 35 38  .R%.........s058
0740: 45 25 80 F8 FF FF 7F F8  FF FF 7F 73 30 35 39 08  E%.........s059.
0750: 80 29 08 D4 51 09 01 1D  29 0B D4 51 09 01 2A 29  .)..Q...)..Q..*)
0760: 08 D4 51 09 01 1E 52 25  80 F8 FF FF 7F F8 FF FF  ..Q...R%........
0770: 7F 73 30 35 39 45 25 80  F8 FF FF 7F F8 FF FF 7F  .s059E%.........
0780: 73 30 36 30 08 80 29 08  D4 51 09 01 09 29 0B D4  s060..)..Q...)..
0790: 51 09 01 2C 29 08 D4 51  09 01 0A 52 25 80 F8 FF  Q..,)..Q...R%...
07A0: FF 7F F8 FF FF 7F 73 30  36 30 45 12 80 F0 FF FF  ......s060E.....
07B0: 7F F0 FF FF 7F 6F 76 6C  31 08 80 45 25 80 F8 FF  .....ovl1..E%...
07C0: FF 7F F8 FF FF 7F 73 30  36 31 08 80 1D 31 80 23  ......s061...1.#
07D0: 29 08 D4 51 09 01 0B 29  0B D4 51 09 01 2D 29 08  )..Q...)..Q..-).
07E0: D4 51 09 01 0C 45 25 80  F8 FF FF 7F F8 FF FF 7F  .Q...E%.........
07F0: 73 30 36 32 08 80 29 08  D4 51 09 01 0D 29 0B D4  s062..)..Q...)..
0800: 51 09 01 2E 29 08 D4 51  09 01 0E 52 25 80 F8 FF  Q...)..Q...R%...
0810: FF 7F F8 FF FF 7F 73 30  36 32 45 12 80 F0 FF FF  ......s062E.....
0820: 7F F0 FF FF 7F 6F 76 6C  31 08 80 45 25 80 F8 FF  .....ovl1..E%...
0830: FF 7F F8 FF FF 7F 73 30  36 33 08 80 29 0B D4 51  ......s063..)..Q
0840: 09 01 2F 52 25 80 F8 FF  FF 7F F8 FF FF 7F 73 30  ../R%.........s0
0850: 36 33 45 12 80 F0 FF FF  7F F0 FF FF 7F 6F 76 6C  63E..........ovl
0860: 31 08 80 45 25 80 F8 FF  FF 7F F8 FF FF 7F 73 30  1..E%.........s0
0870: 36 35 08 80 29 08 D4 51  09 01 19 29 0B D4 51 09  65..)..Q...)..Q.
0880: 01 30 52 25 80 F8 FF FF  7F F8 FF FF 7F 73 30 36  .0R%.........s06
0890: 35 45 25 80 F8 FF FF 7F  F8 FF FF 7F 73 30 36 34  5E%.........s064
08A0: 08 80 29 08 D4 51 09 01  1A 29 08 D4 51 09 01 09  ..)..Q...)..Q...
08B0: 29 0B D4 51 09 01 31 29  08 D4 51 09 01 0A 6E F8  )..Q..1)..Q...n.
08C0: FF FF 7F 32 80 99 F8 FF  FF 7F 29 0B D4 51 09 01  ...2......)..Q..
08D0: 32 52 25 80 F8 FF FF 7F  F8 FF FF 7F 73 30 36 34  2R%.........s064
08E0: 45 25 80 F8 FF FF 7F F8  FF FF 7F 73 30 35 38 08  E%.........s058.
08F0: 80 29 08 D4 51 09 01 09  29 0B D4 51 09 01 33 29  .)..Q...)..Q..3)
0900: 08 D4 51 09 01 0A 5D 08  80 12 80 45 12 80 F8 FF  ..Q...]....E....
0910: FF 7F F8 FF FF 7F 66 64  6F 31 08 80 1C 12 80 52  ......fdo1.....R
0920: 25 80 F8 FF FF 7F F8 FF  FF 7F 73 30 35 38 5C 00  %.........s058\.
0930: 08 80 5C 01 08 80 5D 23  80 09 80 46 00 1C 12 80  ..\...]#...F....
0940: 45 12 80 F8 FF FF 7F F8  FF FF 7F 66 64 69 31 08  E..........fdi1.
0950: 80 20 00 21 00                                    . .!.           
```

#### Opcodes

```
  0: 0x06B9 [0x42] SET_CLI_EVENT_CANCEL_DATA()
  1: 0x06BA [0x46] CAMERA_CONTROL: Disable user control
  2: 0x06BC [0x5D] SET_MUSIC_VOLUME(volume=0*, fade_time=200*)
  3: 0x06C1 [0x45] LOAD_SCHEDULED_TASK: Load scheduler "fdo1" with entities [EventEntity, EventEntity], work=[200*, 0*]
  4: 0x06D2 [0x1C] WAIT(60* ticks)
  5: 0x06D5 [0x38] SET_CLIENT_EVENT_MODE(mode=19*)
  6: 0x06D8 [0x29] REQ_SET_WAIT(priority=0x08, entity_id=LocalPlayer, tag_num=0x11)
  7: 0x06DF [0x5C] MUSIC_CONTROL: Set Idle (Day) music to song 163*
  8: 0x06E3 [0x5C] MUSIC_CONTROL: Set Idle (Night) music to song 163*
  9: 0x06E7 [0x5D] SET_MUSIC_VOLUME(volume=127*, fade_time=1*)
 10: 0x06EC [0x29] REQ_SET_WAIT(priority=0x08, entity_id=LocalPlayer, tag_num=0x14)
 11: 0x06F3 [0x1E] EventEntity looks at LocalPlayer and starts talking
 12: 0x06F8 [0x6F] WAIT_FRAME_DELAY: Yield until WaitTime reaches zero
 13: 0x06F9 [0x70] WAIT_ENTITY_RENDER_FLAG: Wait while EventEntity->Render.Flags3 bit 2 is set (cancel turn if not)
 14: 0x06FA [0x45] LOAD_SCHEDULED_TASK: Load scheduler "s058" with entities [EventEntity, EventEntity], work=[49*, 0*]
 15: 0x070B [0x45] LOAD_SCHEDULED_TASK: Load scheduler "fdi1" with entities [EventEntity, EventEntity], work=[200*, 0*]
 16: 0x071C [0x29] REQ_SET_WAIT(priority=0x08, entity_id=Sedal-Godjal (ID: 17387988/0x010951D4), tag_num=0x17)
 17: 0x0723 [0x29] REQ_SET_WAIT(priority=0x0B, entity_id=Sedal-Godjal (ID: 17387988/0x010951D4), tag_num=0x29)
 18: 0x072A [0x29] REQ_SET_WAIT(priority=0x08, entity_id=Sedal-Godjal (ID: 17387988/0x010951D4), tag_num=0x18)
 19: 0x0731 [0x52] END_LOAD_SCHEDULER: End scheduler "s058" with entities [EventEntity, EventEntity], work=49*
 20: 0x0740 [0x45] LOAD_SCHEDULED_TASK: Load scheduler "s059" with entities [EventEntity, EventEntity], work=[49*, 0*]
 21: 0x0751 [0x29] REQ_SET_WAIT(priority=0x08, entity_id=Sedal-Godjal (ID: 17387988/0x010951D4), tag_num=0x1D)
 22: 0x0758 [0x29] REQ_SET_WAIT(priority=0x0B, entity_id=Sedal-Godjal (ID: 17387988/0x010951D4), tag_num=0x2A)
 23: 0x075F [0x29] REQ_SET_WAIT(priority=0x08, entity_id=Sedal-Godjal (ID: 17387988/0x010951D4), tag_num=0x1E)
 24: 0x0766 [0x52] END_LOAD_SCHEDULER: End scheduler "s059" with entities [EventEntity, EventEntity], work=49*
 25: 0x0775 [0x45] LOAD_SCHEDULED_TASK: Load scheduler "s060" with entities [EventEntity, EventEntity], work=[49*, 0*]
 26: 0x0786 [0x29] REQ_SET_WAIT(priority=0x08, entity_id=Sedal-Godjal (ID: 17387988/0x010951D4), tag_num=0x09)
 27: 0x078D [0x29] REQ_SET_WAIT(priority=0x0B, entity_id=Sedal-Godjal (ID: 17387988/0x010951D4), tag_num=0x2C)
 28: 0x0794 [0x29] REQ_SET_WAIT(priority=0x08, entity_id=Sedal-Godjal (ID: 17387988/0x010951D4), tag_num=0x0A)
 29: 0x079B [0x52] END_LOAD_SCHEDULER: End scheduler "s060" with entities [EventEntity, EventEntity], work=49*
 30: 0x07AA [0x45] LOAD_SCHEDULED_TASK: Load scheduler "ovl1" with entities [LocalPlayer, LocalPlayer], work=[200*, 0*]
 31: 0x07BB [0x45] LOAD_SCHEDULED_TASK: Load scheduler "s061" with entities [EventEntity, EventEntity], work=[49*, 0*]
 32: 0x07CC [0x1D] PRINT_EVENT_MESSAGE(message_id=7537*)
    → "...Hm? Why did I run away from the Aurastery? That's something I prefer not to talk about..."
 33: 0x07CF [0x23] WAIT_FOR_DIALOG_INTERACTION
 34: 0x07D0 [0x29] REQ_SET_WAIT(priority=0x08, entity_id=Sedal-Godjal (ID: 17387988/0x010951D4), tag_num=0x0B)
 35: 0x07D7 [0x29] REQ_SET_WAIT(priority=0x0B, entity_id=Sedal-Godjal (ID: 17387988/0x010951D4), tag_num=0x2D)
 36: 0x07DE [0x29] REQ_SET_WAIT(priority=0x08, entity_id=Sedal-Godjal (ID: 17387988/0x010951D4), tag_num=0x0C)
 37: 0x07E5 [0x45] LOAD_SCHEDULED_TASK: Load scheduler "s062" with entities [EventEntity, EventEntity], work=[49*, 0*]
 38: 0x07F6 [0x29] REQ_SET_WAIT(priority=0x08, entity_id=Sedal-Godjal (ID: 17387988/0x010951D4), tag_num=0x0D)
 39: 0x07FD [0x29] REQ_SET_WAIT(priority=0x0B, entity_id=Sedal-Godjal (ID: 17387988/0x010951D4), tag_num=0x2E)
 40: 0x0804 [0x29] REQ_SET_WAIT(priority=0x08, entity_id=Sedal-Godjal (ID: 17387988/0x010951D4), tag_num=0x0E)
 41: 0x080B [0x52] END_LOAD_SCHEDULER: End scheduler "s062" with entities [EventEntity, EventEntity], work=49*
 42: 0x081A [0x45] LOAD_SCHEDULED_TASK: Load scheduler "ovl1" with entities [LocalPlayer, LocalPlayer], work=[200*, 0*]
 43: 0x082B [0x45] LOAD_SCHEDULED_TASK: Load scheduler "s063" with entities [EventEntity, EventEntity], work=[49*, 0*]
 44: 0x083C [0x29] REQ_SET_WAIT(priority=0x0B, entity_id=Sedal-Godjal (ID: 17387988/0x010951D4), tag_num=0x2F)
 45: 0x0843 [0x52] END_LOAD_SCHEDULER: End scheduler "s063" with entities [EventEntity, EventEntity], work=49*
 46: 0x0852 [0x45] LOAD_SCHEDULED_TASK: Load scheduler "ovl1" with entities [LocalPlayer, LocalPlayer], work=[200*, 0*]
 47: 0x0863 [0x45] LOAD_SCHEDULED_TASK: Load scheduler "s065" with entities [EventEntity, EventEntity], work=[49*, 0*]
 48: 0x0874 [0x29] REQ_SET_WAIT(priority=0x08, entity_id=Sedal-Godjal (ID: 17387988/0x010951D4), tag_num=0x19)
 49: 0x087B [0x29] REQ_SET_WAIT(priority=0x0B, entity_id=Sedal-Godjal (ID: 17387988/0x010951D4), tag_num=0x30)
 50: 0x0882 [0x52] END_LOAD_SCHEDULER: End scheduler "s065" with entities [EventEntity, EventEntity], work=49*
 51: 0x0891 [0x45] LOAD_SCHEDULED_TASK: Load scheduler "s064" with entities [EventEntity, EventEntity], work=[49*, 0*]
 52: 0x08A2 [0x29] REQ_SET_WAIT(priority=0x08, entity_id=Sedal-Godjal (ID: 17387988/0x010951D4), tag_num=0x1A)
 53: 0x08A9 [0x29] REQ_SET_WAIT(priority=0x08, entity_id=Sedal-Godjal (ID: 17387988/0x010951D4), tag_num=0x09)
 54: 0x08B0 [0x29] REQ_SET_WAIT(priority=0x0B, entity_id=Sedal-Godjal (ID: 17387988/0x010951D4), tag_num=0x31)
 55: 0x08B7 [0x29] REQ_SET_WAIT(priority=0x08, entity_id=Sedal-Godjal (ID: 17387988/0x010951D4), tag_num=0x0A)
 56: 0x08BE [0x6E] EventEntity uses emote 6*
 57: 0x08C5 [0x99] Wait for EventEntity animation to complete
 58: 0x08CA [0x29] REQ_SET_WAIT(priority=0x0B, entity_id=Sedal-Godjal (ID: 17387988/0x010951D4), tag_num=0x32)
 59: 0x08D1 [0x52] END_LOAD_SCHEDULER: End scheduler "s064" with entities [EventEntity, EventEntity], work=49*
 60: 0x08E0 [0x45] LOAD_SCHEDULED_TASK: Load scheduler "s058" with entities [EventEntity, EventEntity], work=[49*, 0*]
 61: 0x08F1 [0x29] REQ_SET_WAIT(priority=0x08, entity_id=Sedal-Godjal (ID: 17387988/0x010951D4), tag_num=0x09)
 62: 0x08F8 [0x29] REQ_SET_WAIT(priority=0x0B, entity_id=Sedal-Godjal (ID: 17387988/0x010951D4), tag_num=0x33)
 63: 0x08FF [0x29] REQ_SET_WAIT(priority=0x08, entity_id=Sedal-Godjal (ID: 17387988/0x010951D4), tag_num=0x0A)
 64: 0x0906 [0x5D] SET_MUSIC_VOLUME(volume=0*, fade_time=200*)
 65: 0x090B [0x45] LOAD_SCHEDULED_TASK: Load scheduler "fdo1" with entities [EventEntity, EventEntity], work=[200*, 0*]
 66: 0x091C [0x1C] WAIT(200* ticks)
 67: 0x091F [0x52] END_LOAD_SCHEDULER: End scheduler "s058" with entities [EventEntity, EventEntity], work=49*
 68: 0x092E [0x5C] MUSIC_CONTROL: Set Idle (Day) music to song 0*
 69: 0x0932 [0x5C] MUSIC_CONTROL: Set Idle (Night) music to song 0*
 70: 0x0936 [0x5D] SET_MUSIC_VOLUME(volume=127*, fade_time=1*)
 71: 0x093B [0x46] CAMERA_CONTROL: Restore default settings
 72: 0x093D [0x1C] WAIT(200* ticks)
 73: 0x0940 [0x45] LOAD_SCHEDULED_TASK: Load scheduler "fdi1" with entities [EventEntity, EventEntity], work=[200*, 0*]
 74: 0x0951 [0x20] SET_CLI_EVENT_UC_FLAG: Unlock player control
 75: 0x0953 [0x21] END_EVENT
 76: 0x0954 [0x00] END_REQSTACK()
```

### Event 65535.30

#### Metadata

| Field        | Value   |
|--------------|---------|
| Entrypoint   | 0x0955  |
| Data Size    | 5 bytes |
| Instructions | 3       |

```
      00 01 02 03 04 05 06 07  08 09 0A 0B 0C 0D 0E 0F
      -- -- -- -- -- -- -- --  -- -- -- -- -- -- -- --
0950:                1D 33 80  23 00                         .3.#.      
```

#### Opcodes

```
  0: 0x0955 [0x1D] PRINT_EVENT_MESSAGE(message_id=7533*)
    → "Ah! How did you...!? You trouncy-wounced that nasty, curse-flinging Orc for me? This makes things so much easier."
  1: 0x0958 [0x23] WAIT_FOR_DIALOG_INTERACTION
  2: 0x0959 [0x00] END_REQSTACK()
```

### Event 65535.31

#### Metadata

| Field        | Value   |
|--------------|---------|
| Entrypoint   | 0x095A  |
| Data Size    | 5 bytes |
| Instructions | 3       |

```
      00 01 02 03 04 05 06 07  08 09 0A 0B 0C 0D 0E 0F
      -- -- -- -- -- -- -- --  -- -- -- -- -- -- -- --
0950:                                1D 34 80 23 00               .4.#. 
```

#### Opcodes

```
  0: 0x095A [0x1D] PRINT_EVENT_MESSAGE(message_id=7534*)
    → "But I'll tell you again! I can'taru leave here until the knights show up from San d'Oria to handle things."
  1: 0x095D [0x23] WAIT_FOR_DIALOG_INTERACTION
  2: 0x095E [0x00] END_REQSTACK()
```

### Event 65535.32

#### Metadata

| Field        | Value   |
|--------------|---------|
| Entrypoint   | 0x095F  |
| Data Size    | 5 bytes |
| Instructions | 3       |

```
      00 01 02 03 04 05 06 07  08 09 0A 0B 0C 0D 0E 0F
      -- -- -- -- -- -- -- --  -- -- -- -- -- -- -- --
0950:                                               1D                 .
0960: 35 80 23 00                                       5.#.            
```

#### Opcodes

```
  0: 0x095F [0x1D] PRINT_EVENT_MESSAGE(message_id=7535*)
    → "I'm holding the fortaru for as long as it takes the reinforcements to get here. They're taking their time about it, though."
  1: 0x0962 [0x23] WAIT_FOR_DIALOG_INTERACTION
  2: 0x0963 [0x00] END_REQSTACK()
```

### Event 65535.33

#### Metadata

| Field        | Value   |
|--------------|---------|
| Entrypoint   | 0x0964  |
| Data Size    | 5 bytes |
| Instructions | 3       |

```
      00 01 02 03 04 05 06 07  08 09 0A 0B 0C 0D 0E 0F
      -- -- -- -- -- -- -- --  -- -- -- -- -- -- -- --
0960:             1D 36 80 23  00                           .6.#.       
```

#### Opcodes

```
  0: 0x0964 [0x1D] PRINT_EVENT_MESSAGE(message_id=7536*)
    → "If I'm not here, the people of San d'Oria will be facing an awful-warful Orcish horde. That should be reason enough to placate Moreno-Toeno."
  1: 0x0967 [0x23] WAIT_FOR_DIALOG_INTERACTION
  2: 0x0968 [0x00] END_REQSTACK()
```

### Event 65535.34

#### Metadata

| Field        | Value   |
|--------------|---------|
| Entrypoint   | 0x0969  |
| Data Size    | 5 bytes |
| Instructions | 3       |

```
      00 01 02 03 04 05 06 07  08 09 0A 0B 0C 0D 0E 0F
      -- -- -- -- -- -- -- --  -- -- -- -- -- -- -- --
0960:                             1D 37 80 23 00                 .7.#.  
```

#### Opcodes

```
  0: 0x0969 [0x1D] PRINT_EVENT_MESSAGE(message_id=7538*)
    → "But I guess if I don'taru explain myself, you'll just drag me back to Windurst... ...Fine. This is just between you, me, and Moreno-Toeno..."
  1: 0x096C [0x23] WAIT_FOR_DIALOG_INTERACTION
  2: 0x096D [0x00] END_REQSTACK()
```

### Event 65535.35

#### Metadata

| Field        | Value   |
|--------------|---------|
| Entrypoint   | 0x096E  |
| Data Size    | 5 bytes |
| Instructions | 3       |

```
      00 01 02 03 04 05 06 07  08 09 0A 0B 0C 0D 0E 0F
      -- -- -- -- -- -- -- --  -- -- -- -- -- -- -- --
0960:                                            1D 38                .8
0970: 80 23 00                                          .#.             
```

#### Opcodes

```
  0: 0x096E [0x1D] PRINT_EVENT_MESSAGE(message_id=7539*)
    → "You probably already know about this, but Professor Koru-Moru has been exchanging lovey-dovey letters with a girl called Mojiji. Um, actually, the person writing those letters was me..."
  1: 0x0971 [0x23] WAIT_FOR_DIALOG_INTERACTION
  2: 0x0972 [0x00] END_REQSTACK()
```

### Event 65535.36

#### Metadata

| Field        | Value    |
|--------------|----------|
| Entrypoint   | 0x0973   |
| Data Size    | 37 bytes |
| Instructions | 9        |

```
      00 01 02 03 04 05 06 07  08 09 0A 0B 0C 0D 0E 0F
      -- -- -- -- -- -- -- --  -- -- -- -- -- -- -- --
0970:          29 08 D4 51 09  01 09 1D 39 80 23 29 08     )..Q....9.#).
0980: D4 51 09 01 0A 29 08 D4  51 09 01 11 1D 3A 80 23  .Q...)..Q....:.#
0990: 29 08 D4 51 09 01 12 00                           )..Q....        
```

#### Opcodes

```
  0: 0x0973 [0x29] REQ_SET_WAIT(priority=0x08, entity_id=Sedal-Godjal (ID: 17387988/0x010951D4), tag_num=0x09)
  1: 0x097A [0x1D] PRINT_EVENT_MESSAGE(message_id=7540*)
    → "Principal Koru-Moru had embezzled several years' worth of the Aurastery's budgetaru, and it didn't look like he would be giving it back. So, I thought I would take the name of Mojiji and try writing him a fan letter."
  2: 0x097D [0x23] WAIT_FOR_DIALOG_INTERACTION
  3: 0x097E [0x29] REQ_SET_WAIT(priority=0x08, entity_id=Sedal-Godjal (ID: 17387988/0x010951D4), tag_num=0x0A)
  4: 0x0985 [0x29] REQ_SET_WAIT(priority=0x08, entity_id=Sedal-Godjal (ID: 17387988/0x010951D4), tag_num=0x11)
  5: 0x098C [0x1D] PRINT_EVENT_MESSAGE(message_id=7541*)
    → "The effect of this was almostaru instantaneous. Every time I wrote him a letter, I convinced him to return a little more gil, but all the deception started to make me feel uneasy-queasy."
  6: 0x098F [0x23] WAIT_FOR_DIALOG_INTERACTION
  7: 0x0990 [0x29] REQ_SET_WAIT(priority=0x08, entity_id=Sedal-Godjal (ID: 17387988/0x010951D4), tag_num=0x12)
  8: 0x0997 [0x00] END_REQSTACK()
```

### Event 65535.37

#### Metadata

| Field        | Value   |
|--------------|---------|
| Entrypoint   | 0x0998  |
| Data Size    | 5 bytes |
| Instructions | 3       |

```
      00 01 02 03 04 05 06 07  08 09 0A 0B 0C 0D 0E 0F
      -- -- -- -- -- -- -- --  -- -- -- -- -- -- -- --
0990:                          1D 3B 80 23 00                   .;.#.   
```

#### Opcodes

```
  0: 0x0998 [0x1D] PRINT_EVENT_MESSAGE(message_id=7542*)
    → "Before I knew it, every time I laid eyes on Professor Koru-Moru, I would feel a sharp pain in my stomach. It was a serious case of work-relatarued stress."
  1: 0x099B [0x23] WAIT_FOR_DIALOG_INTERACTION
  2: 0x099C [0x00] END_REQSTACK()
```

### Event 65535.38

#### Metadata

| Field        | Value   |
|--------------|---------|
| Entrypoint   | 0x099D  |
| Data Size    | 5 bytes |
| Instructions | 3       |

```
      00 01 02 03 04 05 06 07  08 09 0A 0B 0C 0D 0E 0F
      -- -- -- -- -- -- -- --  -- -- -- -- -- -- -- --
0990:                                         1D 3C 80               .<.
09A0: 23 00                                             #.              
```

#### Opcodes

```
  0: 0x099D [0x1D] PRINT_EVENT_MESSAGE(message_id=7543*)
    → "So I thoughtaru I would get away from the Aurastery for a little while, and go where I could find some solitude and peace. Then all this happened."
  1: 0x09A0 [0x23] WAIT_FOR_DIALOG_INTERACTION
  2: 0x09A1 [0x00] END_REQSTACK()
```

### Event 65535.39

#### Metadata

| Field        | Value   |
|--------------|---------|
| Entrypoint   | 0x09A2  |
| Data Size    | 5 bytes |
| Instructions | 3       |

```
      00 01 02 03 04 05 06 07  08 09 0A 0B 0C 0D 0E 0F
      -- -- -- -- -- -- -- --  -- -- -- -- -- -- -- --
09A0:       1D 3D 80 23 00                                .=.#.         
```

#### Opcodes

```
  0: 0x09A2 [0x1D] PRINT_EVENT_MESSAGE(message_id=7544*)
    → "But since I didn'taru want to go back anyway, I decided to keep my whereabouts from the Aurastery."
  1: 0x09A5 [0x23] WAIT_FOR_DIALOG_INTERACTION
  2: 0x09A6 [0x00] END_REQSTACK()
```

### Event 65535.40

#### Metadata

| Field        | Value   |
|--------------|---------|
| Entrypoint   | 0x09A7  |
| Data Size    | 5 bytes |
| Instructions | 3       |

```
      00 01 02 03 04 05 06 07  08 09 0A 0B 0C 0D 0E 0F
      -- -- -- -- -- -- -- --  -- -- -- -- -- -- -- --
09A0:                      1D  3E 80 23 00                     .>.#.    
```

#### Opcodes

```
  0: 0x09A7 [0x1D] PRINT_EVENT_MESSAGE(message_id=7545*)
    → "Does that explain things for you? You can go back to the Aurastery and report that to Moreno-Toeno."
  1: 0x09AA [0x23] WAIT_FOR_DIALOG_INTERACTION
  2: 0x09AB [0x00] END_REQSTACK()
```

### Event 121

#### Metadata

| Field        | Value    |
|--------------|----------|
| Entrypoint   | 0x09AC   |
| Data Size    | 47 bytes |
| Instructions | 14       |

```
      00 01 02 03 04 05 06 07  08 09 0A 0B 0C 0D 0E 0F
      -- -- -- -- -- -- -- --  -- -- -- -- -- -- -- --
09A0:                                      1E F0 FF FF              ....
09B0: 7F 6F 70 29 08 D4 51 09  01 11 1D 3F 80 23 29 08  .op)..Q....?.#).
09C0: D4 51 09 01 12 29 08 D4  51 09 01 09 1D 40 80 23  .Q...)..Q....@.#
09D0: 29 08 D4 51 09 01 0A 20  00 21 00                 )..Q... .!.     
```

#### Opcodes

```
  0: 0x09AC [0x1E] EventEntity looks at LocalPlayer and starts talking
  1: 0x09B1 [0x6F] WAIT_FRAME_DELAY: Yield until WaitTime reaches zero
  2: 0x09B2 [0x70] WAIT_ENTITY_RENDER_FLAG: Wait while EventEntity->Render.Flags3 bit 2 is set (cancel turn if not)
  3: 0x09B3 [0x29] REQ_SET_WAIT(priority=0x08, entity_id=Sedal-Godjal (ID: 17387988/0x010951D4), tag_num=0x11)
  4: 0x09BA [0x1D] PRINT_EVENT_MESSAGE(message_id=7546*)
    → "When the reinforcements arrive from San d'Oria, I'll return to Windurst. The professor mustaru have forgotten about Mojiji by now."
  5: 0x09BD [0x23] WAIT_FOR_DIALOG_INTERACTION
  6: 0x09BE [0x29] REQ_SET_WAIT(priority=0x08, entity_id=Sedal-Godjal (ID: 17387988/0x010951D4), tag_num=0x12)
  7: 0x09C5 [0x29] REQ_SET_WAIT(priority=0x08, entity_id=Sedal-Godjal (ID: 17387988/0x010951D4), tag_num=0x09)
  8: 0x09CC [0x1D] PRINT_EVENT_MESSAGE(message_id=7547*)
    → "Huh? He's still getting letters. But, I'm not writing them anymore!"
  9: 0x09CF [0x23] WAIT_FOR_DIALOG_INTERACTION
 10: 0x09D0 [0x29] REQ_SET_WAIT(priority=0x08, entity_id=Sedal-Godjal (ID: 17387988/0x010951D4), tag_num=0x0A)
 11: 0x09D7 [0x20] SET_CLI_EVENT_UC_FLAG: Unlock player control
 12: 0x09D9 [0x21] END_EVENT
 13: 0x09DA [0x00] END_REQSTACK()
```

### Event 122

#### Metadata

| Field        | Value     |
|--------------|-----------|
| Entrypoint   | 0x09DB    |
| Data Size    | 351 bytes |
| Instructions | 52        |

```
      00 01 02 03 04 05 06 07  08 09 0A 0B 0C 0D 0E 0F
      -- -- -- -- -- -- -- --  -- -- -- -- -- -- -- --
09D0:                                   42 46 01 5D 08             BF.].
09E0: 80 12 80 45 12 80 F8 FF  FF 7F F8 FF FF 7F 66 64  ...E..........fd
09F0: 6F 31 08 80 1C 13 80 38  11 80 29 08 F0 FF FF 7F  o1.....8..).....
0A00: 11 5C 00 23 80 5C 01 23  80 5D 23 80 09 80 29 08  .\.#.\.#.]#...).
0A10: F0 FF FF 7F 14 1E F0 FF  FF 7F 6F 70 45 25 80 F8  ..........opE%..
0A20: FF FF 7F F8 FF FF 7F 73  30 35 38 08 80 45 12 80  .......s058..E..
0A30: F8 FF FF 7F F8 FF FF 7F  66 64 69 31 08 80 29 08  ........fdi1..).
0A40: D4 51 09 01 1D 1D 41 80  23 29 08 D4 51 09 01 1E  .Q....A.#)..Q...
0A50: 52 25 80 F8 FF FF 7F F8  FF FF 7F 73 30 35 38 45  R%.........s058E
0A60: 25 80 F8 FF FF 7F F8 FF  FF 7F 73 30 36 33 08 80  %.........s063..
0A70: 29 08 D4 51 09 01 09 1D  42 80 23 29 08 D4 51 09  )..Q....B.#)..Q.
0A80: 01 0A 45 12 80 F8 FF FF  7F F8 FF FF 7F 66 64 6F  ..E..........fdo
0A90: 31 08 80 1C 43 80 52 25  80 F8 FF FF 7F F8 FF FF  1...C.R%........
0AA0: 7F 73 30 36 33 45 25 80  F8 FF FF 7F F8 FF FF 7F  .s063E%.........
0AB0: 73 30 35 39 08 80 45 12  80 F8 FF FF 7F F8 FF FF  s059..E.........
0AC0: 7F 66 64 69 31 08 80 29  08 D4 51 09 01 17 1D 44  .fdi1..)..Q....D
0AD0: 80 23 29 08 D4 51 09 01  18 29 08 D4 51 09 01 13  .#)..Q...)..Q...
0AE0: 1D 45 80 23 29 08 D4 51  09 01 14 5D 08 80 12 80  .E.#)..Q...]....
0AF0: 45 12 80 F8 FF FF 7F F8  FF FF 7F 66 64 6F 31 08  E..........fdo1.
0B00: 80 1C 12 80 52 25 80 F8  FF FF 7F F8 FF FF 7F 73  ....R%.........s
0B10: 30 35 39 5C 00 08 80 5C  01 08 80 5D 23 80 09 80  059\...\...]#...
0B20: 46 00 1C 12 80 45 12 80  F8 FF FF 7F F8 FF FF 7F  F....E..........
0B30: 66 64 69 31 08 80 20 00  21 00                    fdi1.. .!.      
```

#### Opcodes

```
  0: 0x09DB [0x42] SET_CLI_EVENT_CANCEL_DATA()
  1: 0x09DC [0x46] CAMERA_CONTROL: Disable user control
  2: 0x09DE [0x5D] SET_MUSIC_VOLUME(volume=0*, fade_time=200*)
  3: 0x09E3 [0x45] LOAD_SCHEDULED_TASK: Load scheduler "fdo1" with entities [EventEntity, EventEntity], work=[200*, 0*]
  4: 0x09F4 [0x1C] WAIT(60* ticks)
  5: 0x09F7 [0x38] SET_CLIENT_EVENT_MODE(mode=19*)
  6: 0x09FA [0x29] REQ_SET_WAIT(priority=0x08, entity_id=LocalPlayer, tag_num=0x11)
  7: 0x0A01 [0x5C] MUSIC_CONTROL: Set Idle (Day) music to song 127*
  8: 0x0A05 [0x5C] MUSIC_CONTROL: Set Idle (Night) music to song 127*
  9: 0x0A09 [0x5D] SET_MUSIC_VOLUME(volume=127*, fade_time=1*)
 10: 0x0A0E [0x29] REQ_SET_WAIT(priority=0x08, entity_id=LocalPlayer, tag_num=0x14)
 11: 0x0A15 [0x1E] EventEntity looks at LocalPlayer and starts talking
 12: 0x0A1A [0x6F] WAIT_FRAME_DELAY: Yield until WaitTime reaches zero
 13: 0x0A1B [0x70] WAIT_ENTITY_RENDER_FLAG: Wait while EventEntity->Render.Flags3 bit 2 is set (cancel turn if not)
 14: 0x0A1C [0x45] LOAD_SCHEDULED_TASK: Load scheduler "s058" with entities [EventEntity, EventEntity], work=[49*, 0*]
 15: 0x0A2D [0x45] LOAD_SCHEDULED_TASK: Load scheduler "fdi1" with entities [EventEntity, EventEntity], work=[200*, 0*]
 16: 0x0A3E [0x29] REQ_SET_WAIT(priority=0x08, entity_id=Sedal-Godjal (ID: 17387988/0x010951D4), tag_num=0x1D)
 17: 0x0A45 [0x1D] PRINT_EVENT_MESSAGE(message_id=7548*)
    → "...Ah, justaru the person I wanted to see. There's something I wanted to ask you..."
 18: 0x0A48 [0x23] WAIT_FOR_DIALOG_INTERACTION
 19: 0x0A49 [0x29] REQ_SET_WAIT(priority=0x08, entity_id=Sedal-Godjal (ID: 17387988/0x010951D4), tag_num=0x1E)
 20: 0x0A50 [0x52] END_LOAD_SCHEDULER: End scheduler "s058" with entities [EventEntity, EventEntity], work=49*
 21: 0x0A5F [0x45] LOAD_SCHEDULED_TASK: Load scheduler "s063" with entities [EventEntity, EventEntity], work=[49*, 0*]
 22: 0x0A70 [0x29] REQ_SET_WAIT(priority=0x08, entity_id=Sedal-Godjal (ID: 17387988/0x010951D4), tag_num=0x09)
 23: 0x0A77 [0x1D] PRINT_EVENT_MESSAGE(message_id=7549*)
    → "How did you use that malevolent magic doll to track me down?"
 24: 0x0A7A [0x23] WAIT_FOR_DIALOG_INTERACTION
 25: 0x0A7B [0x29] REQ_SET_WAIT(priority=0x08, entity_id=Sedal-Godjal (ID: 17387988/0x010951D4), tag_num=0x0A)
 26: 0x0A82 [0x45] LOAD_SCHEDULED_TASK: Load scheduler "fdo1" with entities [EventEntity, EventEntity], work=[200*, 0*]
 27: 0x0A93 [0x1C] WAIT(100* ticks)
 28: 0x0A96 [0x52] END_LOAD_SCHEDULER: End scheduler "s063" with entities [EventEntity, EventEntity], work=49*
 29: 0x0AA5 [0x45] LOAD_SCHEDULED_TASK: Load scheduler "s059" with entities [EventEntity, EventEntity], work=[49*, 0*]
 30: 0x0AB6 [0x45] LOAD_SCHEDULED_TASK: Load scheduler "fdi1" with entities [EventEntity, EventEntity], work=[200*, 0*]
 31: 0x0AC7 [0x29] REQ_SET_WAIT(priority=0x08, entity_id=Sedal-Godjal (ID: 17387988/0x010951D4), tag_num=0x17)
 32: 0x0ACE [0x1D] PRINT_EVENT_MESSAGE(message_id=7550*)
    → "The $3!? So this ring is what broughtaru about my discovery. Well, I can't just throw it away..."
 33: 0x0AD1 [0x23] WAIT_FOR_DIALOG_INTERACTION
 34: 0x0AD2 [0x29] REQ_SET_WAIT(priority=0x08, entity_id=Sedal-Godjal (ID: 17387988/0x010951D4), tag_num=0x18)
 35: 0x0AD9 [0x29] REQ_SET_WAIT(priority=0x08, entity_id=Sedal-Godjal (ID: 17387988/0x010951D4), tag_num=0x13)
 36: 0x0AE0 [0x1D] PRINT_EVENT_MESSAGE(message_id=7551*)
    → "Hmmm, what to do? Here, I'll give it to you for safekeeping. Please hold on to it until I return to the Aurastery."
 37: 0x0AE3 [0x23] WAIT_FOR_DIALOG_INTERACTION
 38: 0x0AE4 [0x29] REQ_SET_WAIT(priority=0x08, entity_id=Sedal-Godjal (ID: 17387988/0x010951D4), tag_num=0x14)
 39: 0x0AEB [0x5D] SET_MUSIC_VOLUME(volume=0*, fade_time=200*)
 40: 0x0AF0 [0x45] LOAD_SCHEDULED_TASK: Load scheduler "fdo1" with entities [EventEntity, EventEntity], work=[200*, 0*]
 41: 0x0B01 [0x1C] WAIT(200* ticks)
 42: 0x0B04 [0x52] END_LOAD_SCHEDULER: End scheduler "s059" with entities [EventEntity, EventEntity], work=49*
 43: 0x0B13 [0x5C] MUSIC_CONTROL: Set Idle (Day) music to song 0*
 44: 0x0B17 [0x5C] MUSIC_CONTROL: Set Idle (Night) music to song 0*
 45: 0x0B1B [0x5D] SET_MUSIC_VOLUME(volume=127*, fade_time=1*)
 46: 0x0B20 [0x46] CAMERA_CONTROL: Restore default settings
 47: 0x0B22 [0x1C] WAIT(200* ticks)
 48: 0x0B25 [0x45] LOAD_SCHEDULED_TASK: Load scheduler "fdi1" with entities [EventEntity, EventEntity], work=[200*, 0*]
 49: 0x0B36 [0x20] SET_CLI_EVENT_UC_FLAG: Unlock player control
 50: 0x0B38 [0x21] END_EVENT
 51: 0x0B39 [0x00] END_REQSTACK()
```

### Event 123

#### Metadata

| Field        | Value    |
|--------------|----------|
| Entrypoint   | 0x0B3A   |
| Data Size    | 61 bytes |
| Instructions | 16       |

```
      00 01 02 03 04 05 06 07  08 09 0A 0B 0C 0D 0E 0F
      -- -- -- -- -- -- -- --  -- -- -- -- -- -- -- --
0B30:                                1E F0 FF FF 7F 6F            .....o
0B40: 70 29 08 D4 51 09 01 09  1D 46 80 23 29 08 D4 51  p)..Q....F.#)..Q
0B50: 09 01 0A 29 08 D4 51 09  01 0B 1D 47 80 23 29 08  ...)..Q....G.#).
0B60: D4 51 09 01 0C 29 08 D4  51 09 01 0D 29 08 D4 51  .Q...)..Q...)..Q
0B70: 09 01 0E 20 00 21 00                              ... .!.         
```

#### Opcodes

```
  0: 0x0B3A [0x1E] EventEntity looks at LocalPlayer and starts talking
  1: 0x0B3F [0x6F] WAIT_FRAME_DELAY: Yield until WaitTime reaches zero
  2: 0x0B40 [0x70] WAIT_ENTITY_RENDER_FLAG: Wait while EventEntity->Render.Flags3 bit 2 is set (cancel turn if not)
  3: 0x0B41 [0x29] REQ_SET_WAIT(priority=0x08, entity_id=Sedal-Godjal (ID: 17387988/0x010951D4), tag_num=0x09)
  4: 0x0B48 [0x1D] PRINT_EVENT_MESSAGE(message_id=7552*)
    → "I will return as soon as the reinforcements arrive from San d'Oria."
  5: 0x0B4B [0x23] WAIT_FOR_DIALOG_INTERACTION
  6: 0x0B4C [0x29] REQ_SET_WAIT(priority=0x08, entity_id=Sedal-Godjal (ID: 17387988/0x010951D4), tag_num=0x0A)
  7: 0x0B53 [0x29] REQ_SET_WAIT(priority=0x08, entity_id=Sedal-Godjal (ID: 17387988/0x010951D4), tag_num=0x0B)
  8: 0x0B5A [0x1D] PRINT_EVENT_MESSAGE(message_id=7553*)
    → "Ah, dear old Windurst, how long has it been? I wonder if I still remember the way to the Aurastery?"
  9: 0x0B5D [0x23] WAIT_FOR_DIALOG_INTERACTION
 10: 0x0B5E [0x29] REQ_SET_WAIT(priority=0x08, entity_id=Sedal-Godjal (ID: 17387988/0x010951D4), tag_num=0x0C)
 11: 0x0B65 [0x29] REQ_SET_WAIT(priority=0x08, entity_id=Sedal-Godjal (ID: 17387988/0x010951D4), tag_num=0x0D)
 12: 0x0B6C [0x29] REQ_SET_WAIT(priority=0x08, entity_id=Sedal-Godjal (ID: 17387988/0x010951D4), tag_num=0x0E)
 13: 0x0B73 [0x20] SET_CLI_EVENT_UC_FLAG: Unlock player control
 14: 0x0B75 [0x21] END_EVENT
 15: 0x0B76 [0x00] END_REQSTACK()
```
