# 17387991 - Quemaricond

## Common Data

| Field            | Value           |
|------------------|-----------------|
| Zone             | Davoi (ID: 149) |
| Block Size       | 1468 bytes      |
| Total Events     | 43              |
| References Count | 19              |

## List of Events

| Event ID                   | Entrypoint   |   Size |   Instructions |
|----------------------------|--------------|--------|----------------|
| [65535](#event-65535)      | 0x0000       |      1 |              1 |
| [117](#event-117)          | 0x0001       |     54 |             13 |
| [65535.1](#event-655351)   | 0x0037       |      5 |              3 |
| [65535.2](#event-655352)   | 0x003C       |      5 |              3 |
| [65535.3](#event-655353)   | 0x0041       |      5 |              3 |
| [65535.4](#event-655354)   | 0x0046       |      5 |              3 |
| [65535.5](#event-655355)   | 0x004B       |      5 |              3 |
| [65535.6](#event-655356)   | 0x0050       |      5 |              3 |
| [155](#event-155)          | 0x0055       |      1 |              1 |
| [156](#event-156)          | 0x0056       |      1 |              1 |
| [157](#event-157)          | 0x0057       |    658 |             62 |
| [65535.7](#event-655357)   | 0x02E9       |     16 |              2 |
| [65535.8](#event-655358)   | 0x02F9       |     14 |              2 |
| [65535.9](#event-655359)   | 0x0307       |     16 |              2 |
| [65535.10](#event-6553510) | 0x0317       |     14 |              2 |
| [65535.11](#event-6553511) | 0x0325       |     16 |              2 |
| [65535.12](#event-6553512) | 0x0335       |     14 |              2 |
| [65535.13](#event-6553513) | 0x0343       |     16 |              2 |
| [65535.14](#event-6553514) | 0x0353       |     14 |              2 |
| [65535.15](#event-6553515) | 0x0361       |     16 |              2 |
| [65535.16](#event-6553516) | 0x0371       |     14 |              2 |
| [65535.17](#event-6553517) | 0x037F       |     16 |              2 |
| [65535.18](#event-6553518) | 0x038F       |     14 |              2 |
| [65535.19](#event-6553519) | 0x039D       |     16 |              2 |
| [65535.20](#event-6553520) | 0x03AD       |     14 |              2 |
| [65535.21](#event-6553521) | 0x03BB       |     16 |              2 |
| [65535.22](#event-6553522) | 0x03CB       |     14 |              2 |
| [65535.23](#event-6553523) | 0x03D9       |     16 |              2 |
| [65535.24](#event-6553524) | 0x03E9       |     14 |              2 |
| [65535.25](#event-6553525) | 0x03F7       |     16 |              2 |
| [65535.26](#event-6553526) | 0x0407       |     14 |              2 |
| [65535.27](#event-6553527) | 0x0415       |     16 |              2 |
| [65535.28](#event-6553528) | 0x0425       |     14 |              2 |
| [65535.29](#event-6553529) | 0x0433       |     16 |              2 |
| [65535.30](#event-6553530) | 0x0443       |     14 |              2 |
| [65535.31](#event-6553531) | 0x0451       |     16 |              2 |
| [65535.32](#event-6553532) | 0x0461       |     14 |              2 |
| [65535.33](#event-6553533) | 0x046F       |     16 |              2 |
| [65535.34](#event-6553534) | 0x047F       |     14 |              2 |
| [65535.35](#event-6553535) | 0x048D       |     16 |              2 |
| [65535.36](#event-6553536) | 0x049D       |     14 |              2 |
| [65535.37](#event-6553537) | 0x04AB       |      4 |              2 |
| [65535.38](#event-6553538) | 0x04AF       |      2 |              2 |

## DAT References (imed_data)

|   Index | Hex Value   |   Dec Value |
|---------|-------------|-------------|
|       0 | 0x1D5B      |        7515 |
|       1 | 0x1D5C      |        7516 |
|       2 | 0x1D5D      |        7517 |
|       3 | 0x1D5E      |        7518 |
|       4 | 0x1D5F      |        7519 |
|       5 | 0x1D60      |        7520 |
|       6 | 0x00C8      |         200 |
|       7 | 0x0000      |           0 |
|       8 | 0x00C9      |         201 |
|       9 | 0x0001      |           1 |
|      10 | 0x002D      |          45 |
|      11 | 0x0002      |           2 |
|      12 | 0x001E      |          30 |
|      13 | 0x00D7      |         215 |
|      14 | 0x0014      |          20 |
|      15 | 0x0015      |          21 |
|      16 | 0x001A      |          26 |
|      17 | 0x001B      |          27 |
|      18 | 0x001D      |          29 |

## String References

- **7515**: What? I apologize, but I am in quite a hurry.
- **7516**: What is this? You were ordered by Prince Trion to return with the report?
- **7517**: Wonderful! To tell you the truth, I have been lost for the past few days. I cannot make heads or tails of where I'm going in this dreadful place.
- **7518**: Without this vital report, the Royal Knights will be in the dark! Your assistance is greatly appreciated!
- **7519**: Here is the report. Now hurry back to Prince Trion!
- **7520**: Deep in Davoi, the Royal Knight, Bernal, and his Tarutaru companion are waiting for assistance. You must make haste, and deliver that report to Prince Trion!

## Events

### Event 65535

#### Metadata

| Field        | Value   |
|--------------|---------|
| Entrypoint   | 0x0000  |
| Data Size    | 1 bytes |
| Instructions | 1       |

```
      00 01 02 03 04 05 06 07  08 09 0A 0B 0C 0D 0E 0F
      -- -- -- -- -- -- -- --  -- -- -- -- -- -- -- --
0000: 00                                                .               
```

#### Opcodes

```
  0: 0x0000 [0x00] END_REQSTACK()
```

### Event 117

#### Metadata

| Field        | Value    |
|--------------|----------|
| Entrypoint   | 0x0001   |
| Data Size    | 54 bytes |
| Instructions | 13       |

```
      00 01 02 03 04 05 06 07  08 09 0A 0B 0C 0D 0E 0F
      -- -- -- -- -- -- -- --  -- -- -- -- -- -- -- --
0000:    42 1E F0 FF FF 7F 6F  70 29 0B D7 51 09 01 02   B.....op)..Q...
0010: 29 0B D7 51 09 01 03 29  0B D7 51 09 01 04 29 0B  )..Q...)..Q...).
0020: D7 51 09 01 05 29 0B D7  51 09 01 06 29 0B D7 51  .Q...)..Q...)..Q
0030: 09 01 07 20 00 21 00                              ... .!.         
```

#### Opcodes

```
  0: 0x0001 [0x42] SET_CLI_EVENT_CANCEL_DATA()
  1: 0x0002 [0x1E] EventEntity looks at LocalPlayer and starts talking
  2: 0x0007 [0x6F] WAIT_FRAME_DELAY: Yield until WaitTime reaches zero
  3: 0x0008 [0x70] WAIT_ENTITY_RENDER_FLAG: Wait while EventEntity->Render.Flags3 bit 2 is set (cancel turn if not)
  4: 0x0009 [0x29] REQ_SET_WAIT(priority=0x0B, entity_id=Quemaricond (ID: 17387991/0x010951D7), tag_num=0x02)
  5: 0x0010 [0x29] REQ_SET_WAIT(priority=0x0B, entity_id=Quemaricond (ID: 17387991/0x010951D7), tag_num=0x03)
  6: 0x0017 [0x29] REQ_SET_WAIT(priority=0x0B, entity_id=Quemaricond (ID: 17387991/0x010951D7), tag_num=0x04)
  7: 0x001E [0x29] REQ_SET_WAIT(priority=0x0B, entity_id=Quemaricond (ID: 17387991/0x010951D7), tag_num=0x05)
  8: 0x0025 [0x29] REQ_SET_WAIT(priority=0x0B, entity_id=Quemaricond (ID: 17387991/0x010951D7), tag_num=0x06)
  9: 0x002C [0x29] REQ_SET_WAIT(priority=0x0B, entity_id=Quemaricond (ID: 17387991/0x010951D7), tag_num=0x07)
 10: 0x0033 [0x20] SET_CLI_EVENT_UC_FLAG: Unlock player control
 11: 0x0035 [0x21] END_EVENT
 12: 0x0036 [0x00] END_REQSTACK()
```

### Event 65535.1

#### Metadata

| Field        | Value   |
|--------------|---------|
| Entrypoint   | 0x0037  |
| Data Size    | 5 bytes |
| Instructions | 3       |

```
      00 01 02 03 04 05 06 07  08 09 0A 0B 0C 0D 0E 0F
      -- -- -- -- -- -- -- --  -- -- -- -- -- -- -- --
0030:                      1D  00 80 23 00                     ...#.    
```

#### Opcodes

```
  0: 0x0037 [0x1D] PRINT_EVENT_MESSAGE(message_id=7515*)
    → "What? I apologize, but I am in quite a hurry."
  1: 0x003A [0x23] WAIT_FOR_DIALOG_INTERACTION
  2: 0x003B [0x00] END_REQSTACK()
```

### Event 65535.2

#### Metadata

| Field        | Value   |
|--------------|---------|
| Entrypoint   | 0x003C  |
| Data Size    | 5 bytes |
| Instructions | 3       |

```
      00 01 02 03 04 05 06 07  08 09 0A 0B 0C 0D 0E 0F
      -- -- -- -- -- -- -- --  -- -- -- -- -- -- -- --
0030:                                      1D 01 80 23              ...#
0040: 00                                                .               
```

#### Opcodes

```
  0: 0x003C [0x1D] PRINT_EVENT_MESSAGE(message_id=7516*)
    → "What is this? You were ordered by Prince Trion to return with the report?"
  1: 0x003F [0x23] WAIT_FOR_DIALOG_INTERACTION
  2: 0x0040 [0x00] END_REQSTACK()
```

### Event 65535.3

#### Metadata

| Field        | Value   |
|--------------|---------|
| Entrypoint   | 0x0041  |
| Data Size    | 5 bytes |
| Instructions | 3       |

```
      00 01 02 03 04 05 06 07  08 09 0A 0B 0C 0D 0E 0F
      -- -- -- -- -- -- -- --  -- -- -- -- -- -- -- --
0040:    1D 02 80 23 00                                  ...#.          
```

#### Opcodes

```
  0: 0x0041 [0x1D] PRINT_EVENT_MESSAGE(message_id=7517*)
    → "Wonderful! To tell you the truth, I have been lost for the past few days. I cannot make heads or tails of where I'm going in this dreadful place."
  1: 0x0044 [0x23] WAIT_FOR_DIALOG_INTERACTION
  2: 0x0045 [0x00] END_REQSTACK()
```

### Event 65535.4

#### Metadata

| Field        | Value   |
|--------------|---------|
| Entrypoint   | 0x0046  |
| Data Size    | 5 bytes |
| Instructions | 3       |

```
      00 01 02 03 04 05 06 07  08 09 0A 0B 0C 0D 0E 0F
      -- -- -- -- -- -- -- --  -- -- -- -- -- -- -- --
0040:                   1D 03  80 23 00                       ...#.     
```

#### Opcodes

```
  0: 0x0046 [0x1D] PRINT_EVENT_MESSAGE(message_id=7518*)
    → "Without this vital report, the Royal Knights will be in the dark! Your assistance is greatly appreciated!"
  1: 0x0049 [0x23] WAIT_FOR_DIALOG_INTERACTION
  2: 0x004A [0x00] END_REQSTACK()
```

### Event 65535.5

#### Metadata

| Field        | Value   |
|--------------|---------|
| Entrypoint   | 0x004B  |
| Data Size    | 5 bytes |
| Instructions | 3       |

```
      00 01 02 03 04 05 06 07  08 09 0A 0B 0C 0D 0E 0F
      -- -- -- -- -- -- -- --  -- -- -- -- -- -- -- --
0040:                                   1D 04 80 23 00             ...#.
```

#### Opcodes

```
  0: 0x004B [0x1D] PRINT_EVENT_MESSAGE(message_id=7519*)
    → "Here is the report. Now hurry back to Prince Trion!"
  1: 0x004E [0x23] WAIT_FOR_DIALOG_INTERACTION
  2: 0x004F [0x00] END_REQSTACK()
```

### Event 65535.6

#### Metadata

| Field        | Value   |
|--------------|---------|
| Entrypoint   | 0x0050  |
| Data Size    | 5 bytes |
| Instructions | 3       |

```
      00 01 02 03 04 05 06 07  08 09 0A 0B 0C 0D 0E 0F
      -- -- -- -- -- -- -- --  -- -- -- -- -- -- -- --
0050: 1D 05 80 23 00                                    ...#.           
```

#### Opcodes

```
  0: 0x0050 [0x1D] PRINT_EVENT_MESSAGE(message_id=7520*)
    → "Deep in Davoi, the Royal Knight, Bernal, and his Tarutaru companion are waiting for assistance. You must make haste, and deliver that report to Prince Trion!"
  1: 0x0053 [0x23] WAIT_FOR_DIALOG_INTERACTION
  2: 0x0054 [0x00] END_REQSTACK()
```

### Event 155

#### Metadata

| Field        | Value   |
|--------------|---------|
| Entrypoint   | 0x0055  |
| Data Size    | 1 bytes |
| Instructions | 1       |

```
      00 01 02 03 04 05 06 07  08 09 0A 0B 0C 0D 0E 0F
      -- -- -- -- -- -- -- --  -- -- -- -- -- -- -- --
0050:                00                                      .          
```

#### Opcodes

```
  0: 0x0055 [0x00] END_REQSTACK()
```

### Event 156

#### Metadata

| Field        | Value   |
|--------------|---------|
| Entrypoint   | 0x0056  |
| Data Size    | 1 bytes |
| Instructions | 1       |

```
      00 01 02 03 04 05 06 07  08 09 0A 0B 0C 0D 0E 0F
      -- -- -- -- -- -- -- --  -- -- -- -- -- -- -- --
0050:                   00                                    .         
```

#### Opcodes

```
  0: 0x0056 [0x00] END_REQSTACK()
```

### Event 157

#### Metadata

| Field        | Value     |
|--------------|-----------|
| Entrypoint   | 0x0057    |
| Data Size    | 658 bytes |
| Instructions | 1         |

```
      00 01 02 03 04 05 06 07  08 09 0A 0B 0C 0D 0E 0F
      -- -- -- -- -- -- -- --  -- -- -- -- -- -- -- --
0050:                      00  45 06 80 F0 FF FF 7F F0         .E.......
0060: FF FF 7F 66 64 69 30 07  80 55 06 80 F0 FF FF 7F  ...fdi0..U......
0070: F0 FF FF 7F 66 64 69 30  1B 45 06 80 F0 FF FF 7F  ....fdi0.E......
0080: F0 FF FF 7F 66 64 6F 30  07 80 55 06 80 F0 FF FF  ....fdo0..U.....
0090: 7F F0 FF FF 7F 66 64 6F  30 1B 45 06 80 F0 FF FF  .....fdo0.E.....
00A0: 7F F0 FF FF 7F 66 64 69  31 07 80 55 06 80 F0 FF  .....fdi1..U....
00B0: FF 7F F0 FF FF 7F 66 64  69 31 1B 45 06 80 F0 FF  ......fdi1.E....
00C0: FF 7F F0 FF FF 7F 66 64  6F 31 07 80 55 06 80 F0  ......fdo1..U...
00D0: FF FF 7F F0 FF FF 7F 66  64 6F 31 1B 45 08 80 F0  .......fdo1.E...
00E0: FF FF 7F F0 FF FF 7F 77  68 69 31 07 80 55 08 80  .......whi1..U..
00F0: F0 FF FF 7F F0 FF FF 7F  77 68 69 31 1B 45 08 80  ........whi1.E..
0100: F0 FF FF 7F F0 FF FF 7F  77 68 6F 31 07 80 55 08  ........who1..U.
0110: 80 F0 FF FF 7F F0 FF FF  7F 77 68 6F 31 1B 45 08  .........who1.E.
0120: 80 F0 FF FF 7F F0 FF FF  7F 77 68 6F 32 07 80 55  .........who2..U
0130: 08 80 F0 FF FF 7F F0 FF  FF 7F 77 68 6F 32 1B 45  ..........who2.E
0140: 08 80 F0 FF FF 7F F0 FF  FF 7F 77 68 6F 33 07 80  ..........who3..
0150: 55 08 80 F0 FF FF 7F F0  FF FF 7F 77 68 6F 33 1B  U..........who3.
0160: 62 09 80 F0 FF FF 7F F0  FF FF 7F 6D 61 69 6E 07  b..........main.
0170: 80 1C 0A 80 45 06 80 F0  FF FF 7F F0 FF FF 7F 66  ....E..........f
0180: 64 6F 31 07 80 55 06 80  F0 FF FF 7F F0 FF FF 7F  do1..U..........
0190: 66 64 6F 31 1B 45 06 80  F0 FF FF 7F F0 FF FF 7F  fdo1.E..........
01A0: 66 64 69 31 07 80 62 0B  80 F0 FF FF 7F F0 FF FF  fdi1..b.........
01B0: 7F 6D 61 69 6E 07 80 1C  0C 80 55 06 80 F0 FF FF  .main.....U.....
01C0: 7F F0 FF FF 7F 66 64 69  31 1B 45 06 80 F0 FF FF  .....fdi1.E.....
01D0: 7F F0 FF FF 7F 62 6C 6F  6E 07 80 45 08 80 F0 FF  .....blon..E....
01E0: FF 7F F0 FF FF 7F 62 6C  6F 6E 07 80 1B 45 08 80  ......blon...E..
01F0: F0 FF FF 7F F0 FF FF 7F  77 68 69 30 07 80 55 08  ........whi0..U.
0200: 80 F0 FF FF 7F F0 FF FF  7F 77 68 69 30 1B 45 08  .........whi0.E.
0210: 80 F0 FF FF 7F F0 FF FF  7F 77 68 6F 30 07 80 55  .........who0..U
0220: 08 80 F0 FF FF 7F F0 FF  FF 7F 77 68 6F 30 1B 45  ..........who0.E
0230: 0D 80 F0 FF FF 7F F0 FF  FF 7F 65 66 6F 6E 07 80  ..........efon..
0240: 55 0D 80 F0 FF FF 7F F0  FF FF 7F 65 66 6F 6E 1B  U..........efon.
0250: 45 06 80 F0 FF FF 7F F0  FF FF 7F 66 64 69 73 07  E..........fdis.
0260: 80 1B 45 06 80 F0 FF FF  7F F0 FF FF 7F 66 64 6F  ..E..........fdo
0270: 73 07 80 55 06 80 F0 FF  FF 7F F0 FF FF 7F 66 64  s..U..........fd
0280: 6F 73 1B 45 06 80 F0 FF  FF 7F F0 FF FF 7F 66 64  os.E..........fd
0290: 69 66 07 80 1B 45 06 80  F0 FF FF 7F F0 FF FF 7F  if...E..........
02A0: 66 64 6F 66 07 80 55 06  80 F0 FF FF 7F F0 FF FF  fdof..U.........
02B0: 7F 66 64 6F 66 1B 45 06  80 F0 FF FF 7F F0 FF FF  .fdof.E.........
02C0: 7F 66 64 69 70 07 80 1B  45 06 80 F0 FF FF 7F F0  .fdip...E.......
02D0: FF FF 7F 66 64 6F 70 07  80 55 06 80 F0 FF FF 7F  ...fdop..U......
02E0: F0 FF FF 7F 66 64 6F 70  1B                       ....fdop.       
```

#### Opcodes

```
  0: 0x0057 [0x00] END_REQSTACK()
```

#### Data or dead code:

```
# Dead code (unreachable instructions):
     0x0058 [0x45] LOAD_SCHEDULED_TASK: Load scheduler "fdi0" with entities [LocalPlayer, LocalPlayer], work=[200*, 0*]
     0x0069 [0x55] WAIT_LOAD_SCHEDULER: Wait for scheduler "fdi0" with entities [LocalPlayer, LocalPlayer], work=200*
     0x0078 [0x1B] RETURN
     0x0079 [0x45] LOAD_SCHEDULED_TASK: Load scheduler "fdo0" with entities [LocalPlayer, LocalPlayer], work=[200*, 0*]
     0x008A [0x55] WAIT_LOAD_SCHEDULER: Wait for scheduler "fdo0" with entities [LocalPlayer, LocalPlayer], work=200*
     0x0099 [0x1B] RETURN
     0x009A [0x45] LOAD_SCHEDULED_TASK: Load scheduler "fdi1" with entities [LocalPlayer, LocalPlayer], work=[200*, 0*]
     0x00AB [0x55] WAIT_LOAD_SCHEDULER: Wait for scheduler "fdi1" with entities [LocalPlayer, LocalPlayer], work=200*
     0x00BA [0x1B] RETURN
     0x00BB [0x45] LOAD_SCHEDULED_TASK: Load scheduler "fdo1" with entities [LocalPlayer, LocalPlayer], work=[200*, 0*]
     0x00CC [0x55] WAIT_LOAD_SCHEDULER: Wait for scheduler "fdo1" with entities [LocalPlayer, LocalPlayer], work=200*
     0x00DB [0x1B] RETURN
     0x00DC [0x45] LOAD_SCHEDULED_TASK: Load scheduler "whi1" with entities [LocalPlayer, LocalPlayer], work=[201*, 0*]
     0x00ED [0x55] WAIT_LOAD_SCHEDULER: Wait for scheduler "whi1" with entities [LocalPlayer, LocalPlayer], work=201*
     0x00FC [0x1B] RETURN
     0x00FD [0x45] LOAD_SCHEDULED_TASK: Load scheduler "who1" with entities [LocalPlayer, LocalPlayer], work=[201*, 0*]
     0x010E [0x55] WAIT_LOAD_SCHEDULER: Wait for scheduler "who1" with entities [LocalPlayer, LocalPlayer], work=201*
     0x011D [0x1B] RETURN
     0x011E [0x45] LOAD_SCHEDULED_TASK: Load scheduler "who2" with entities [LocalPlayer, LocalPlayer], work=[201*, 0*]
     0x012F [0x55] WAIT_LOAD_SCHEDULER: Wait for scheduler "who2" with entities [LocalPlayer, LocalPlayer], work=201*
     0x013E [0x1B] RETURN
     0x013F [0x45] LOAD_SCHEDULED_TASK: Load scheduler "who3" with entities [LocalPlayer, LocalPlayer], work=[201*, 0*]
     0x0150 [0x55] WAIT_LOAD_SCHEDULER: Wait for scheduler "who3" with entities [LocalPlayer, LocalPlayer], work=201*
     0x015F [0x1B] RETURN
     0x0160 [0x62] LOAD_EVENT_SCHEDULER: Load scheduler "main" with entities [LocalPlayer, LocalPlayer], work=[1*, 0*]
     0x0171 [0x1C] WAIT(45* ticks)
     0x0174 [0x45] LOAD_SCHEDULED_TASK: Load scheduler "fdo1" with entities [LocalPlayer, LocalPlayer], work=[200*, 0*]
     0x0185 [0x55] WAIT_LOAD_SCHEDULER: Wait for scheduler "fdo1" with entities [LocalPlayer, LocalPlayer], work=200*
     0x0194 [0x1B] RETURN
     0x0195 [0x45] LOAD_SCHEDULED_TASK: Load scheduler "fdi1" with entities [LocalPlayer, LocalPlayer], work=[200*, 0*]
     0x01A6 [0x62] LOAD_EVENT_SCHEDULER: Load scheduler "main" with entities [LocalPlayer, LocalPlayer], work=[2*, 0*]
     0x01B7 [0x1C] WAIT(30* ticks)
     0x01BA [0x55] WAIT_LOAD_SCHEDULER: Wait for scheduler "fdi1" with entities [LocalPlayer, LocalPlayer], work=200*
     0x01C9 [0x1B] RETURN
     0x01CA [0x45] LOAD_SCHEDULED_TASK: Load scheduler "blon" with entities [LocalPlayer, LocalPlayer], work=[200*, 0*]
     0x01DB [0x45] LOAD_SCHEDULED_TASK: Load scheduler "blon" with entities [LocalPlayer, LocalPlayer], work=[201*, 0*]
     0x01EC [0x1B] RETURN
     0x01ED [0x45] LOAD_SCHEDULED_TASK: Load scheduler "whi0" with entities [LocalPlayer, LocalPlayer], work=[201*, 0*]
     0x01FE [0x55] WAIT_LOAD_SCHEDULER: Wait for scheduler "whi0" with entities [LocalPlayer, LocalPlayer], work=201*
     0x020D [0x1B] RETURN
     0x020E [0x45] LOAD_SCHEDULED_TASK: Load scheduler "who0" with entities [LocalPlayer, LocalPlayer], work=[201*, 0*]
     0x021F [0x55] WAIT_LOAD_SCHEDULER: Wait for scheduler "who0" with entities [LocalPlayer, LocalPlayer], work=201*
     0x022E [0x1B] RETURN
     0x022F [0x45] LOAD_SCHEDULED_TASK: Load scheduler "efon" with entities [LocalPlayer, LocalPlayer], work=[215*, 0*]
     0x0240 [0x55] WAIT_LOAD_SCHEDULER: Wait for scheduler "efon" with entities [LocalPlayer, LocalPlayer], work=215*
     0x024F [0x1B] RETURN
     0x0250 [0x45] LOAD_SCHEDULED_TASK: Load scheduler "fdis" with entities [LocalPlayer, LocalPlayer], work=[200*, 0*]
     0x0261 [0x1B] RETURN
     0x0262 [0x45] LOAD_SCHEDULED_TASK: Load scheduler "fdos" with entities [LocalPlayer, LocalPlayer], work=[200*, 0*]
     0x0273 [0x55] WAIT_LOAD_SCHEDULER: Wait for scheduler "fdos" with entities [LocalPlayer, LocalPlayer], work=200*
     0x0282 [0x1B] RETURN
     0x0283 [0x45] LOAD_SCHEDULED_TASK: Load scheduler "fdif" with entities [LocalPlayer, LocalPlayer], work=[200*, 0*]
     0x0294 [0x1B] RETURN
     0x0295 [0x45] LOAD_SCHEDULED_TASK: Load scheduler "fdof" with entities [LocalPlayer, LocalPlayer], work=[200*, 0*]
     0x02A6 [0x55] WAIT_LOAD_SCHEDULER: Wait for scheduler "fdof" with entities [LocalPlayer, LocalPlayer], work=200*
     0x02B5 [0x1B] RETURN
     0x02B6 [0x45] LOAD_SCHEDULED_TASK: Load scheduler "fdip" with entities [LocalPlayer, LocalPlayer], work=[200*, 0*]
     0x02C7 [0x1B] RETURN
     0x02C8 [0x45] LOAD_SCHEDULED_TASK: Load scheduler "fdop" with entities [LocalPlayer, LocalPlayer], work=[200*, 0*]
     0x02D9 [0x55] WAIT_LOAD_SCHEDULER: Wait for scheduler "fdop" with entities [LocalPlayer, LocalPlayer], work=200*
     0x02E8 [0x1B] RETURN
```

### Event 65535.7

#### Metadata

| Field        | Value    |
|--------------|----------|
| Entrypoint   | 0x02E9   |
| Data Size    | 16 bytes |
| Instructions | 2        |

```
      00 01 02 03 04 05 06 07  08 09 0A 0B 0C 0D 0E 0F
      -- -- -- -- -- -- -- --  -- -- -- -- -- -- -- --
02E0:                             66 0E 80 F8 FF FF 7F           f......
02F0: F8 FF FF 7F 74 6C 6B 30  00                       ....tlk0.       
```

#### Opcodes

```
  0: 0x02E9 [0x66] LOAD_EXT_SCHEDULER_MAIN: Load scheduler "tlk0" with entities [EventEntity, EventEntity], work=20*
  1: 0x02F8 [0x00] END_REQSTACK()
```

### Event 65535.8

#### Metadata

| Field        | Value    |
|--------------|----------|
| Entrypoint   | 0x02F9   |
| Data Size    | 14 bytes |
| Instructions | 2        |

```
      00 01 02 03 04 05 06 07  08 09 0A 0B 0C 0D 0E 0F
      -- -- -- -- -- -- -- --  -- -- -- -- -- -- -- --
02F0:                             53 F8 FF FF 7F F8 FF           S......
0300: FF 7F 74 6C 6B 30 00                              ..tlk0.         
```

#### Opcodes

```
  0: 0x02F9 [0x53] WAIT_SCHEDULER_TASK: Wait for scheduler "tlk0" with entities [EventEntity, EventEntity]
  1: 0x0306 [0x00] END_REQSTACK()
```

### Event 65535.9

#### Metadata

| Field        | Value    |
|--------------|----------|
| Entrypoint   | 0x0307   |
| Data Size    | 16 bytes |
| Instructions | 2        |

```
      00 01 02 03 04 05 06 07  08 09 0A 0B 0C 0D 0E 0F
      -- -- -- -- -- -- -- --  -- -- -- -- -- -- -- --
0300:                      66  0E 80 F8 FF FF 7F F8 FF         f........
0310: FF 7F 74 6C 6B 31 00                              ..tlk1.         
```

#### Opcodes

```
  0: 0x0307 [0x66] LOAD_EXT_SCHEDULER_MAIN: Load scheduler "tlk1" with entities [EventEntity, EventEntity], work=20*
  1: 0x0316 [0x00] END_REQSTACK()
```

### Event 65535.10

#### Metadata

| Field        | Value    |
|--------------|----------|
| Entrypoint   | 0x0317   |
| Data Size    | 14 bytes |
| Instructions | 2        |

```
      00 01 02 03 04 05 06 07  08 09 0A 0B 0C 0D 0E 0F
      -- -- -- -- -- -- -- --  -- -- -- -- -- -- -- --
0310:                      53  F8 FF FF 7F F8 FF FF 7F         S........
0320: 74 6C 6B 31 00                                    tlk1.           
```

#### Opcodes

```
  0: 0x0317 [0x53] WAIT_SCHEDULER_TASK: Wait for scheduler "tlk1" with entities [EventEntity, EventEntity]
  1: 0x0324 [0x00] END_REQSTACK()
```

### Event 65535.11

#### Metadata

| Field        | Value    |
|--------------|----------|
| Entrypoint   | 0x0325   |
| Data Size    | 16 bytes |
| Instructions | 2        |

```
      00 01 02 03 04 05 06 07  08 09 0A 0B 0C 0D 0E 0F
      -- -- -- -- -- -- -- --  -- -- -- -- -- -- -- --
0320:                66 0E 80  F8 FF FF 7F F8 FF FF 7F       f..........
0330: 74 68 6B 31 00                                    thk1.           
```

#### Opcodes

```
  0: 0x0325 [0x66] LOAD_EXT_SCHEDULER_MAIN: Load scheduler "thk1" with entities [EventEntity, EventEntity], work=20*
  1: 0x0334 [0x00] END_REQSTACK()
```

### Event 65535.12

#### Metadata

| Field        | Value    |
|--------------|----------|
| Entrypoint   | 0x0335   |
| Data Size    | 14 bytes |
| Instructions | 2        |

```
      00 01 02 03 04 05 06 07  08 09 0A 0B 0C 0D 0E 0F
      -- -- -- -- -- -- -- --  -- -- -- -- -- -- -- --
0330:                53 F8 FF  FF 7F F8 FF FF 7F 74 68       S........th
0340: 6B 31 00                                          k1.             
```

#### Opcodes

```
  0: 0x0335 [0x53] WAIT_SCHEDULER_TASK: Wait for scheduler "thk1" with entities [EventEntity, EventEntity]
  1: 0x0342 [0x00] END_REQSTACK()
```

### Event 65535.13

#### Metadata

| Field        | Value    |
|--------------|----------|
| Entrypoint   | 0x0343   |
| Data Size    | 16 bytes |
| Instructions | 2        |

```
      00 01 02 03 04 05 06 07  08 09 0A 0B 0C 0D 0E 0F
      -- -- -- -- -- -- -- --  -- -- -- -- -- -- -- --
0340:          66 0E 80 F8 FF  FF 7F F8 FF FF 7F 74 68     f..........th
0350: 6B 32 00                                          k2.             
```

#### Opcodes

```
  0: 0x0343 [0x66] LOAD_EXT_SCHEDULER_MAIN: Load scheduler "thk2" with entities [EventEntity, EventEntity], work=20*
  1: 0x0352 [0x00] END_REQSTACK()
```

### Event 65535.14

#### Metadata

| Field        | Value    |
|--------------|----------|
| Entrypoint   | 0x0353   |
| Data Size    | 14 bytes |
| Instructions | 2        |

```
      00 01 02 03 04 05 06 07  08 09 0A 0B 0C 0D 0E 0F
      -- -- -- -- -- -- -- --  -- -- -- -- -- -- -- --
0350:          53 F8 FF FF 7F  F8 FF FF 7F 74 68 6B 32     S........thk2
0360: 00                                                .               
```

#### Opcodes

```
  0: 0x0353 [0x53] WAIT_SCHEDULER_TASK: Wait for scheduler "thk2" with entities [EventEntity, EventEntity]
  1: 0x0360 [0x00] END_REQSTACK()
```

### Event 65535.15

#### Metadata

| Field        | Value    |
|--------------|----------|
| Entrypoint   | 0x0361   |
| Data Size    | 16 bytes |
| Instructions | 2        |

```
      00 01 02 03 04 05 06 07  08 09 0A 0B 0C 0D 0E 0F
      -- -- -- -- -- -- -- --  -- -- -- -- -- -- -- --
0360:    66 0E 80 F8 FF FF 7F  F8 FF FF 7F 70 61 73 30   f..........pas0
0370: 00                                                .               
```

#### Opcodes

```
  0: 0x0361 [0x66] LOAD_EXT_SCHEDULER_MAIN: Load scheduler "pas0" with entities [EventEntity, EventEntity], work=20*
  1: 0x0370 [0x00] END_REQSTACK()
```

### Event 65535.16

#### Metadata

| Field        | Value    |
|--------------|----------|
| Entrypoint   | 0x0371   |
| Data Size    | 14 bytes |
| Instructions | 2        |

```
      00 01 02 03 04 05 06 07  08 09 0A 0B 0C 0D 0E 0F
      -- -- -- -- -- -- -- --  -- -- -- -- -- -- -- --
0370:    53 F8 FF FF 7F F8 FF  FF 7F 70 61 73 30 00      S........pas0. 
```

#### Opcodes

```
  0: 0x0371 [0x53] WAIT_SCHEDULER_TASK: Wait for scheduler "pas0" with entities [EventEntity, EventEntity]
  1: 0x037E [0x00] END_REQSTACK()
```

### Event 65535.17

#### Metadata

| Field        | Value    |
|--------------|----------|
| Entrypoint   | 0x037F   |
| Data Size    | 16 bytes |
| Instructions | 2        |

```
      00 01 02 03 04 05 06 07  08 09 0A 0B 0C 0D 0E 0F
      -- -- -- -- -- -- -- --  -- -- -- -- -- -- -- --
0370:                                               66                 f
0380: 0F 80 F8 FF FF 7F F8 FF  FF 7F 70 6F 69 30 00     ..........poi0. 
```

#### Opcodes

```
  0: 0x037F [0x66] LOAD_EXT_SCHEDULER_MAIN: Load scheduler "poi0" with entities [EventEntity, EventEntity], work=21*
  1: 0x038E [0x00] END_REQSTACK()
```

### Event 65535.18

#### Metadata

| Field        | Value    |
|--------------|----------|
| Entrypoint   | 0x038F   |
| Data Size    | 14 bytes |
| Instructions | 2        |

```
      00 01 02 03 04 05 06 07  08 09 0A 0B 0C 0D 0E 0F
      -- -- -- -- -- -- -- --  -- -- -- -- -- -- -- --
0380:                                               53                 S
0390: F8 FF FF 7F F8 FF FF 7F  70 6F 69 30 00           ........poi0.   
```

#### Opcodes

```
  0: 0x038F [0x53] WAIT_SCHEDULER_TASK: Wait for scheduler "poi0" with entities [EventEntity, EventEntity]
  1: 0x039C [0x00] END_REQSTACK()
```

### Event 65535.19

#### Metadata

| Field        | Value    |
|--------------|----------|
| Entrypoint   | 0x039D   |
| Data Size    | 16 bytes |
| Instructions | 2        |

```
      00 01 02 03 04 05 06 07  08 09 0A 0B 0C 0D 0E 0F
      -- -- -- -- -- -- -- --  -- -- -- -- -- -- -- --
0390:                                         66 0F 80               f..
03A0: F8 FF FF 7F F8 FF FF 7F  70 6F 69 31 00           ........poi1.   
```

#### Opcodes

```
  0: 0x039D [0x66] LOAD_EXT_SCHEDULER_MAIN: Load scheduler "poi1" with entities [EventEntity, EventEntity], work=21*
  1: 0x03AC [0x00] END_REQSTACK()
```

### Event 65535.20

#### Metadata

| Field        | Value    |
|--------------|----------|
| Entrypoint   | 0x03AD   |
| Data Size    | 14 bytes |
| Instructions | 2        |

```
      00 01 02 03 04 05 06 07  08 09 0A 0B 0C 0D 0E 0F
      -- -- -- -- -- -- -- --  -- -- -- -- -- -- -- --
03A0:                                         53 F8 FF               S..
03B0: FF 7F F8 FF FF 7F 70 6F  69 31 00                 ......poi1.     
```

#### Opcodes

```
  0: 0x03AD [0x53] WAIT_SCHEDULER_TASK: Wait for scheduler "poi1" with entities [EventEntity, EventEntity]
  1: 0x03BA [0x00] END_REQSTACK()
```

### Event 65535.21

#### Metadata

| Field        | Value    |
|--------------|----------|
| Entrypoint   | 0x03BB   |
| Data Size    | 16 bytes |
| Instructions | 2        |

```
      00 01 02 03 04 05 06 07  08 09 0A 0B 0C 0D 0E 0F
      -- -- -- -- -- -- -- --  -- -- -- -- -- -- -- --
03B0:                                   66 0F 80 F8 FF             f....
03C0: FF 7F F8 FF FF 7F 64 69  73 30 00                 ......dis0.     
```

#### Opcodes

```
  0: 0x03BB [0x66] LOAD_EXT_SCHEDULER_MAIN: Load scheduler "dis0" with entities [EventEntity, EventEntity], work=21*
  1: 0x03CA [0x00] END_REQSTACK()
```

### Event 65535.22

#### Metadata

| Field        | Value    |
|--------------|----------|
| Entrypoint   | 0x03CB   |
| Data Size    | 14 bytes |
| Instructions | 2        |

```
      00 01 02 03 04 05 06 07  08 09 0A 0B 0C 0D 0E 0F
      -- -- -- -- -- -- -- --  -- -- -- -- -- -- -- --
03C0:                                   53 F8 FF FF 7F             S....
03D0: F8 FF FF 7F 64 69 73 30  00                       ....dis0.       
```

#### Opcodes

```
  0: 0x03CB [0x53] WAIT_SCHEDULER_TASK: Wait for scheduler "dis0" with entities [EventEntity, EventEntity]
  1: 0x03D8 [0x00] END_REQSTACK()
```

### Event 65535.23

#### Metadata

| Field        | Value    |
|--------------|----------|
| Entrypoint   | 0x03D9   |
| Data Size    | 16 bytes |
| Instructions | 2        |

```
      00 01 02 03 04 05 06 07  08 09 0A 0B 0C 0D 0E 0F
      -- -- -- -- -- -- -- --  -- -- -- -- -- -- -- --
03D0:                             66 10 80 F8 FF FF 7F           f......
03E0: F8 FF FF 7F 6F 72 6F 30  00                       ....oro0.       
```

#### Opcodes

```
  0: 0x03D9 [0x66] LOAD_EXT_SCHEDULER_MAIN: Load scheduler "oro0" with entities [EventEntity, EventEntity], work=26*
  1: 0x03E8 [0x00] END_REQSTACK()
```

### Event 65535.24

#### Metadata

| Field        | Value    |
|--------------|----------|
| Entrypoint   | 0x03E9   |
| Data Size    | 14 bytes |
| Instructions | 2        |

```
      00 01 02 03 04 05 06 07  08 09 0A 0B 0C 0D 0E 0F
      -- -- -- -- -- -- -- --  -- -- -- -- -- -- -- --
03E0:                             53 F8 FF FF 7F F8 FF           S......
03F0: FF 7F 6F 72 6F 30 00                              ..oro0.         
```

#### Opcodes

```
  0: 0x03E9 [0x53] WAIT_SCHEDULER_TASK: Wait for scheduler "oro0" with entities [EventEntity, EventEntity]
  1: 0x03F6 [0x00] END_REQSTACK()
```

### Event 65535.25

#### Metadata

| Field        | Value    |
|--------------|----------|
| Entrypoint   | 0x03F7   |
| Data Size    | 16 bytes |
| Instructions | 2        |

```
      00 01 02 03 04 05 06 07  08 09 0A 0B 0C 0D 0E 0F
      -- -- -- -- -- -- -- --  -- -- -- -- -- -- -- --
03F0:                      66  10 80 F8 FF FF 7F F8 FF         f........
0400: FF 7F 6F 72 6F 31 00                              ..oro1.         
```

#### Opcodes

```
  0: 0x03F7 [0x66] LOAD_EXT_SCHEDULER_MAIN: Load scheduler "oro1" with entities [EventEntity, EventEntity], work=26*
  1: 0x0406 [0x00] END_REQSTACK()
```

### Event 65535.26

#### Metadata

| Field        | Value    |
|--------------|----------|
| Entrypoint   | 0x0407   |
| Data Size    | 14 bytes |
| Instructions | 2        |

```
      00 01 02 03 04 05 06 07  08 09 0A 0B 0C 0D 0E 0F
      -- -- -- -- -- -- -- --  -- -- -- -- -- -- -- --
0400:                      53  F8 FF FF 7F F8 FF FF 7F         S........
0410: 6F 72 6F 31 00                                    oro1.           
```

#### Opcodes

```
  0: 0x0407 [0x53] WAIT_SCHEDULER_TASK: Wait for scheduler "oro1" with entities [EventEntity, EventEntity]
  1: 0x0414 [0x00] END_REQSTACK()
```

### Event 65535.27

#### Metadata

| Field        | Value    |
|--------------|----------|
| Entrypoint   | 0x0415   |
| Data Size    | 16 bytes |
| Instructions | 2        |

```
      00 01 02 03 04 05 06 07  08 09 0A 0B 0C 0D 0E 0F
      -- -- -- -- -- -- -- --  -- -- -- -- -- -- -- --
0410:                66 11 80  F8 FF FF 7F F8 FF FF 7F       f..........
0420: 74 6C 62 30 00                                    tlb0.           
```

#### Opcodes

```
  0: 0x0415 [0x66] LOAD_EXT_SCHEDULER_MAIN: Load scheduler "tlb0" with entities [EventEntity, EventEntity], work=27*
  1: 0x0424 [0x00] END_REQSTACK()
```

### Event 65535.28

#### Metadata

| Field        | Value    |
|--------------|----------|
| Entrypoint   | 0x0425   |
| Data Size    | 14 bytes |
| Instructions | 2        |

```
      00 01 02 03 04 05 06 07  08 09 0A 0B 0C 0D 0E 0F
      -- -- -- -- -- -- -- --  -- -- -- -- -- -- -- --
0420:                53 F8 FF  FF 7F F8 FF FF 7F 74 6C       S........tl
0430: 62 30 00                                          b0.             
```

#### Opcodes

```
  0: 0x0425 [0x53] WAIT_SCHEDULER_TASK: Wait for scheduler "tlb0" with entities [EventEntity, EventEntity]
  1: 0x0432 [0x00] END_REQSTACK()
```

### Event 65535.29

#### Metadata

| Field        | Value    |
|--------------|----------|
| Entrypoint   | 0x0433   |
| Data Size    | 16 bytes |
| Instructions | 2        |

```
      00 01 02 03 04 05 06 07  08 09 0A 0B 0C 0D 0E 0F
      -- -- -- -- -- -- -- --  -- -- -- -- -- -- -- --
0430:          66 11 80 F8 FF  FF 7F F8 FF FF 7F 74 6C     f..........tl
0440: 62 31 00                                          b1.             
```

#### Opcodes

```
  0: 0x0433 [0x66] LOAD_EXT_SCHEDULER_MAIN: Load scheduler "tlb1" with entities [EventEntity, EventEntity], work=27*
  1: 0x0442 [0x00] END_REQSTACK()
```

### Event 65535.30

#### Metadata

| Field        | Value    |
|--------------|----------|
| Entrypoint   | 0x0443   |
| Data Size    | 14 bytes |
| Instructions | 2        |

```
      00 01 02 03 04 05 06 07  08 09 0A 0B 0C 0D 0E 0F
      -- -- -- -- -- -- -- --  -- -- -- -- -- -- -- --
0440:          53 F8 FF FF 7F  F8 FF FF 7F 74 6C 62 31     S........tlb1
0450: 00                                                .               
```

#### Opcodes

```
  0: 0x0443 [0x53] WAIT_SCHEDULER_TASK: Wait for scheduler "tlb1" with entities [EventEntity, EventEntity]
  1: 0x0450 [0x00] END_REQSTACK()
```

### Event 65535.31

#### Metadata

| Field        | Value    |
|--------------|----------|
| Entrypoint   | 0x0451   |
| Data Size    | 16 bytes |
| Instructions | 2        |

```
      00 01 02 03 04 05 06 07  08 09 0A 0B 0C 0D 0E 0F
      -- -- -- -- -- -- -- --  -- -- -- -- -- -- -- --
0450:    66 12 80 F8 FF FF 7F  F8 FF FF 7F 73 69 74 30   f..........sit0
0460: 00                                                .               
```

#### Opcodes

```
  0: 0x0451 [0x66] LOAD_EXT_SCHEDULER_MAIN: Load scheduler "sit0" with entities [EventEntity, EventEntity], work=29*
  1: 0x0460 [0x00] END_REQSTACK()
```

### Event 65535.32

#### Metadata

| Field        | Value    |
|--------------|----------|
| Entrypoint   | 0x0461   |
| Data Size    | 14 bytes |
| Instructions | 2        |

```
      00 01 02 03 04 05 06 07  08 09 0A 0B 0C 0D 0E 0F
      -- -- -- -- -- -- -- --  -- -- -- -- -- -- -- --
0460:    53 F8 FF FF 7F F8 FF  FF 7F 73 69 74 30 00      S........sit0. 
```

#### Opcodes

```
  0: 0x0461 [0x53] WAIT_SCHEDULER_TASK: Wait for scheduler "sit0" with entities [EventEntity, EventEntity]
  1: 0x046E [0x00] END_REQSTACK()
```

### Event 65535.33

#### Metadata

| Field        | Value    |
|--------------|----------|
| Entrypoint   | 0x046F   |
| Data Size    | 16 bytes |
| Instructions | 2        |

```
      00 01 02 03 04 05 06 07  08 09 0A 0B 0C 0D 0E 0F
      -- -- -- -- -- -- -- --  -- -- -- -- -- -- -- --
0460:                                               66                 f
0470: 12 80 F8 FF FF 7F F8 FF  FF 7F 73 69 74 31 00     ..........sit1. 
```

#### Opcodes

```
  0: 0x046F [0x66] LOAD_EXT_SCHEDULER_MAIN: Load scheduler "sit1" with entities [EventEntity, EventEntity], work=29*
  1: 0x047E [0x00] END_REQSTACK()
```

### Event 65535.34

#### Metadata

| Field        | Value    |
|--------------|----------|
| Entrypoint   | 0x047F   |
| Data Size    | 14 bytes |
| Instructions | 2        |

```
      00 01 02 03 04 05 06 07  08 09 0A 0B 0C 0D 0E 0F
      -- -- -- -- -- -- -- --  -- -- -- -- -- -- -- --
0470:                                               53                 S
0480: F8 FF FF 7F F8 FF FF 7F  73 69 74 31 00           ........sit1.   
```

#### Opcodes

```
  0: 0x047F [0x53] WAIT_SCHEDULER_TASK: Wait for scheduler "sit1" with entities [EventEntity, EventEntity]
  1: 0x048C [0x00] END_REQSTACK()
```

### Event 65535.35

#### Metadata

| Field        | Value    |
|--------------|----------|
| Entrypoint   | 0x048D   |
| Data Size    | 16 bytes |
| Instructions | 2        |

```
      00 01 02 03 04 05 06 07  08 09 0A 0B 0C 0D 0E 0F
      -- -- -- -- -- -- -- --  -- -- -- -- -- -- -- --
0480:                                         66 12 80               f..
0490: F8 FF FF 7F F8 FF FF 7F  73 69 74 6C 00           ........sitl.   
```

#### Opcodes

```
  0: 0x048D [0x66] LOAD_EXT_SCHEDULER_MAIN: Load scheduler "sitl" with entities [EventEntity, EventEntity], work=29*
  1: 0x049C [0x00] END_REQSTACK()
```

### Event 65535.36

#### Metadata

| Field        | Value    |
|--------------|----------|
| Entrypoint   | 0x049D   |
| Data Size    | 14 bytes |
| Instructions | 2        |

```
      00 01 02 03 04 05 06 07  08 09 0A 0B 0C 0D 0E 0F
      -- -- -- -- -- -- -- --  -- -- -- -- -- -- -- --
0490:                                         53 F8 FF               S..
04A0: FF 7F F8 FF FF 7F 73 69  74 6C 00                 ......sitl.     
```

#### Opcodes

```
  0: 0x049D [0x53] WAIT_SCHEDULER_TASK: Wait for scheduler "sitl" with entities [EventEntity, EventEntity]
  1: 0x04AA [0x00] END_REQSTACK()
```

### Event 65535.37

#### Metadata

| Field        | Value   |
|--------------|---------|
| Entrypoint   | 0x04AB  |
| Data Size    | 4 bytes |
| Instructions | 2       |

```
      00 01 02 03 04 05 06 07  08 09 0A 0B 0C 0D 0E 0F
      -- -- -- -- -- -- -- --  -- -- -- -- -- -- -- --
04A0:                                   95 09 80 00                .... 
```

#### Opcodes

```
  0: 0x04AB [0x95] SETUP_EVENT_NPC: Prepare NPC for event (Render.Flags3 = 1*)
  1: 0x04AE [0x00] END_REQSTACK()
```

### Event 65535.38

#### Metadata

| Field        | Value   |
|--------------|---------|
| Entrypoint   | 0x04AF  |
| Data Size    | 2 bytes |
| Instructions | 2       |

```
      00 01 02 03 04 05 06 07  08 09 0A 0B 0C 0D 0E 0F
      -- -- -- -- -- -- -- --  -- -- -- -- -- -- -- --
04A0:                                               96                 .
04B0: 00                                                .               
```

#### Opcodes

```
  0: 0x04AF [0x96] UNSET_EVENT_NPC: Restore NPC after event (removes event NPC status)
  1: 0x04B0 [0x00] END_REQSTACK()
```
