# 17388036 - Lootblox

## Common Data

| Field            | Value           |
|------------------|-----------------|
| Zone             | Davoi (ID: 149) |
| Block Size       | 2264 bytes      |
| Total Events     | 12              |
| References Count | 70              |

## List of Events

| Event ID              | Entrypoint   |   Size |   Instructions |
|-----------------------|--------------|--------|----------------|
| [65535](#event-65535) | 0x0000       |      1 |              1 |
| [130](#event-130)     | 0x0001       |     26 |              6 |
| [131](#event-131)     | 0x001B       |     97 |             29 |
| [132](#event-132)     | 0x007C       |    213 |             45 |
| [133](#event-133)     | 0x0151       |    211 |             47 |
| [134](#event-134)     | 0x0224       |     59 |             11 |
| [152](#event-152)     | 0x025F       |     59 |             11 |
| [153](#event-153)     | 0x029A       |     55 |              9 |
| [135](#event-135)     | 0x02D1       |     70 |             14 |
| [136](#event-136)     | 0x0317       |     70 |             14 |
| [137](#event-137)     | 0x035D       |   1008 |            223 |
| [138](#event-138)     | 0x074D       |     49 |             11 |

## DAT References (imed_data)

|   Index | Hex Value   |   Dec Value |
|---------|-------------|-------------|
|       0 | 0x00D7      |         215 |
|       1 | 0x1D92      |        7570 |
|       2 | 0x1D9F      |        7583 |
|       3 | 0x1DA0      |        7584 |
|       4 | 0x1DA1      |        7585 |
|       5 | 0x1DA2      |        7586 |
|       6 | 0x1DA3      |        7587 |
|       7 | 0x1DA4      |        7588 |
|       8 | 0x1DA5      |        7589 |
|       9 | 0x1DA6      |        7590 |
|      10 | 0x1DA7      |        7591 |
|      11 | 0x1DA8      |        7592 |
|      12 | 0x1DA9      |        7593 |
|      13 | 0x1DB2      |        7602 |
|      14 | 0x1DB3      |        7603 |
|      15 | 0x1DB4      |        7604 |
|      16 | 0x0001      |           1 |
|      17 | 0x1DB5      |        7605 |
|      18 | 0x0000      |           0 |
|      19 | 0x1DB6      |        7606 |
|      20 | 0x1DB7      |        7607 |
|      21 | 0x1DB8      |        7608 |
|      22 | 0x000A      |          10 |
|      23 | 0x1E2C      |        7724 |
|      24 | 0x1DBB      |        7611 |
|      25 | 0x000B      |          11 |
|      26 | 0x07FE      |        2046 |
|      27 | 0x0004      |           4 |
|      28 | 0x060E      |        1550 |
|      29 | 0x1DBC      |        7612 |
|      30 | 0x0002      |           2 |
|      31 | 0x0003      |           3 |
|      32 | 0x1DBE      |        7614 |
|      33 | 0x1DC0      |        7616 |
|      34 | 0x1DC1      |        7617 |
|      35 | 0x1DC2      |        7618 |
|      36 | 0x1DC4      |        7620 |
|      37 | 0x05AC      |        1452 |
|      38 | 0x05AD      |        1453 |
|      39 | 0x1D8C      |        7564 |
|      40 | 0x05AE      |        1454 |
|      41 | 0x1D8E      |        7566 |
|      42 | 0x1D90      |        7568 |
|      43 | 0x1DC6      |        7622 |
|      44 | 0x1DCC      |        7628 |
|      45 | 0x0005      |           5 |
|      46 | 0x1DCD      |        7629 |
|      47 | 0x1DC8      |        7624 |
|      48 | 0x1DC9      |        7625 |
|      49 | 0x1EC6      |        7878 |
|      50 | 0x2710      |       10000 |
|      51 | 0x3A98      |       15000 |
|      52 | 0x4E20      |       20000 |
|      53 | 0x1EC7      |        7879 |
|      54 | 0x0766      |        1894 |
|      55 | 0x0767      |        1895 |
|      56 | 0x0768      |        1896 |
|      57 | 0x0769      |        1897 |
|      58 | 0x076A      |        1898 |
|      59 | 0x0006      |           6 |
|      60 | 0x076B      |        1899 |
|      61 | 0x0007      |           7 |
|      62 | 0x076C      |        1900 |
|      63 | 0x0008      |           8 |
|      64 | 0x076D      |        1901 |
|      65 | 0x0009      |           9 |
|      66 | 0x076E      |        1902 |
|      67 | 0x076F      |        1903 |
|      68 | 0x1EC8      |        7880 |
|      69 | 0x1E2E      |        7726 |

## String References

- **7564**: They're not worth a whole lot, but ya done good to collect $1 $0 . Here's $2 for yer trouble.
- **7566**: Here ya go, kid. $2 in exchange for ya $1 $0 .
- **7568**: Now you're just showing off, bringing me $1 $0 . Here's your $2. Now scram, kid.
- **7570**: I got no interest in dealing with the likes of you. Don'tcha got a home to go to?
- **7583**: $5, ya say? Ya got my jaw dropping, kid. Where did ya hear about things like that?
- **7584**: Did ya know that some items have their own soul? After passing through the hands of hundreds of people, not to mention the paws of us beastmen, some items are transformed through contact with all those thoughts and feelings.
- **7585**: These transformed items have the ability to focus mysterious powers. Us Goblins often come across this weird phenenom...phemomeno...stuff in our travels.
- **7586**: Ya know, if ya really want $6, I could sell one to ya for the right price.
- **7587**: But let me tell ya, kid. Only us Gobs can tell if an item is souled. Not even other beastmen--and definitely not you people--can tell the difference between normal junk and priceless artifacts.
- **7588**: Makes me laugh to see you mugs throwing away those items like they was garbage. A souled item is worth a fortune, and ya ain't gonna get one cheap.
- **7589**: $3 gil, and not a single gil less! Ya got a problem with that, kid?
- **7590**: So if ya want one, stop dawdlin' around already and hand me over some money.
- **7591**: What's that ya got there? $0!? Ya got unusual tastes for a person.
- **7592**: Got no clue what ya been doin' with it, but I bet ya gots no use for it anymore. What say I lighten your load in exchange for, say, $1 gil?
- **7593**: So whaddaya waitin' for? Hand that $0 right over and let's make a deal.
- **7602**: I got a deal for ya, kid. Did ya know that before the Great War, the three nations all had their own currencies?
- **7603**: After that little fracas, everyone started using gil as the standard coin, and the other types of money just faded out of existence. Even if you was to find any nowadays, they only have value to Goblin collectors like me.
- **7604**: You're looking a bit confused there, kid. Let me show ya what I'm talking about.
- **7605**: This one's the least valuable of the lot. It was used as a part of the San d'Orian currency years ago. I know I told ya about the nations all having different currencies, but these San d'Orian coins are the only ones I'm interested in.
- **7606**: If ya bring me these coins, I'll exchange them for something from my secret stash of treasure. Ya won't be getting anything for just one of them, so make sure ya collect a bagful, okay?
- **7607**: Let me explain the deal. Bring me $1 $0 , and I'll give ya one $2. Where're ya going? Let me finish, will ya?
- **7608**: Once ya got $1 $0 , ya can trade them for one $2. Or, ya can decide to exchange them for something from my treasure stash. Each item's gonna cost ya a different amount, so choose carefully.
- **7611**: What is it, kid? Ya got something to ask me?
- **7612**: What do you want to ask about? [Nothing./Hourglasses./Maps./Old currencies./Trading $1.]
- **7614**: Old currencies? I was telling ya about how the three nations all used to have different types of money. What, you forgot already?
- **7616**: Ya really like your junk, huh? That's what this stuff looks like to most people, and ya just spent a fortune on it. You're my kinda people, kid.
- **7617**: By the way, I don't give out receipts, and I don't take back items I already sold. I don't know what ya mean to do with the $0 and I don't much care, so take it and skedaddle.
- **7618**: By the way, I don't give out receipts, and I don't take back items I already sold. I don't know what ya mean to do with the $3 and I don't much care, so take it and skedaddle.
- **7620**: So you wanna make a deal here? Should be a good one for the both o' us.
- **7622**: Here's the list of stuff ya can trade your $0 for.
- **7624**: This is $0. Ya want one, you're gonna have to bring me $2 $0$0 .
- **7625**: What do you want to ask about? [Nothing./Hourglasses.]
- **7628**: Which item will you look at? [View next page./$1: $0 [coin/coins]./$3: $2 [coin/coins]./$5: $4 [coin/coins]./$7: $6 [coin/coins]./Nothing.]
- **7629**: Which item will you look at? [View previous page./$1: $0 [coin/coins]./$3: $2 [coin/coins]./$5: $4 [coin/coins]./Nothing.]
- **7724**: Ya can also exchange a $0 for $2 $0$0 . Gonna take ya a while to find, kid. Hope you're patient.
- **7726**: Here's ya $2 $0$0 , and I get ta pocket the $0.
- **7878**: Us Gobs, we can get anywhere with our noses and our smarts. But yeah, I got what you're lookin' for. For the right price, that is.
- **7879**: Buy a map? (Current gil: $11). [Not now./Dynamis - San d'Oria ($1)./Dynamis - Bastok ($2)./Dynamis - Windurst ($3)./Dynamis - Jeuno ($4)./Dynamis - Beaucedine ($5)./Dynamis - Xarcabard ($6)./Dynamis - Valkurm ($7)./Dynamis - Buburimu ($8)./Dynamis - Qufim ($9)./Dynamis - Tavnazia ($10).]
- **7880**: Buy $6? [Deal!/No deal.]

## Events

### Event 65535

#### Metadata

| Field        | Value   |
|--------------|---------|
| Entrypoint   | 0x0000  |
| Data Size    | 1 bytes |
| Instructions | 1       |

```
      00 01 02 03 04 05 06 07  08 09 0A 0B 0C 0D 0E 0F
      -- -- -- -- -- -- -- --  -- -- -- -- -- -- -- --
0000: 00                                                .               
```

#### Opcodes

```
  0: 0x0000 [0x00] END_REQSTACK()
```

### Event 130

#### Metadata

| Field        | Value    |
|--------------|----------|
| Entrypoint   | 0x0001   |
| Data Size    | 26 bytes |
| Instructions | 6        |

```
      00 01 02 03 04 05 06 07  08 09 0A 0B 0C 0D 0E 0F
      -- -- -- -- -- -- -- --  -- -- -- -- -- -- -- --
0000:    1E F0 FF FF 7F 5B 00  80 04 52 09 01 04 52 09   .....[...R...R.
0010: 01 74 6C 6B 30 1D 01 80  23 21 00                 .tlk0...#!.     
```

#### Opcodes

```
  0: 0x0001 [0x1E] EventEntity looks at LocalPlayer and starts talking
  1: 0x0006 [0x5B] LOAD_EXT_SCHEDULER: Load scheduler "tlk0" with entities [Lootblox (ID: 17388036/0x01095204), Lootblox (ID: 17388036/0x01095204)], work=215*
  2: 0x0015 [0x1D] PRINT_EVENT_MESSAGE(message_id=7570*)
    → "I got no interest in dealing with the likes of you. Don'tcha got a home to go to?"
  3: 0x0018 [0x23] WAIT_FOR_DIALOG_INTERACTION
  4: 0x0019 [0x21] END_EVENT
  5: 0x001A [0x00] END_REQSTACK()
```

### Event 131

#### Metadata

| Field        | Value    |
|--------------|----------|
| Entrypoint   | 0x001B   |
| Data Size    | 97 bytes |
| Instructions | 29       |

```
      00 01 02 03 04 05 06 07  08 09 0A 0B 0C 0D 0E 0F
      -- -- -- -- -- -- -- --  -- -- -- -- -- -- -- --
0010:                                   42 1E F0 FF FF             B....
0020: 7F 5B 00 80 04 52 09 01  04 52 09 01 74 6C 6B 30  .[...R...R..tlk0
0030: 1D 02 80 23 5B 00 80 04  52 09 01 04 52 09 01 74  ...#[...R...R..t
0040: 6C 6B 31 1D 03 80 23 1D  04 80 23 5B 00 80 04 52  lk1...#...#[...R
0050: 09 01 04 52 09 01 74 6C  6B 30 1D 05 80 23 1D 06  ...R..tlk0...#..
0060: 80 23 1D 07 80 23 1D 08  80 23 1D 09 80 23 1D 0A  .#...#...#...#..
0070: 80 23 1D 0B 80 23 1D 0C  80 23 21 00              .#...#...#!.    
```

#### Opcodes

```
  0: 0x001B [0x42] SET_CLI_EVENT_CANCEL_DATA()
  1: 0x001C [0x1E] EventEntity looks at LocalPlayer and starts talking
  2: 0x0021 [0x5B] LOAD_EXT_SCHEDULER: Load scheduler "tlk0" with entities [Lootblox (ID: 17388036/0x01095204), Lootblox (ID: 17388036/0x01095204)], work=215*
  3: 0x0030 [0x1D] PRINT_EVENT_MESSAGE(message_id=7583*)
    → "$5, ya say? Ya got my jaw dropping, kid. Where did ya hear about things like that?"
  4: 0x0033 [0x23] WAIT_FOR_DIALOG_INTERACTION
  5: 0x0034 [0x5B] LOAD_EXT_SCHEDULER: Load scheduler "tlk1" with entities [Lootblox (ID: 17388036/0x01095204), Lootblox (ID: 17388036/0x01095204)], work=215*
  6: 0x0043 [0x1D] PRINT_EVENT_MESSAGE(message_id=7584*)
    → "Did ya know that some items have their own soul? After passing through the hands of hundreds of people, not to mention the paws of us beastmen, some items are transformed through contact with all those thoughts and feelings."
  7: 0x0046 [0x23] WAIT_FOR_DIALOG_INTERACTION
  8: 0x0047 [0x1D] PRINT_EVENT_MESSAGE(message_id=7585*)
    → "These transformed items have the ability to focus mysterious powers. Us Goblins often come across this weird phenenom...phemomeno...stuff in our travels."
  9: 0x004A [0x23] WAIT_FOR_DIALOG_INTERACTION
 10: 0x004B [0x5B] LOAD_EXT_SCHEDULER: Load scheduler "tlk0" with entities [Lootblox (ID: 17388036/0x01095204), Lootblox (ID: 17388036/0x01095204)], work=215*
 11: 0x005A [0x1D] PRINT_EVENT_MESSAGE(message_id=7586*)
    → "Ya know, if ya really want $6, I could sell one to ya for the right price."
 12: 0x005D [0x23] WAIT_FOR_DIALOG_INTERACTION
 13: 0x005E [0x1D] PRINT_EVENT_MESSAGE(message_id=7587*)
    → "But let me tell ya, kid. Only us Gobs can tell if an item is souled. Not even other beastmen--and definitely not you people--can tell the difference between normal junk and priceless artifacts."
 14: 0x0061 [0x23] WAIT_FOR_DIALOG_INTERACTION
 15: 0x0062 [0x1D] PRINT_EVENT_MESSAGE(message_id=7588*)
    → "Makes me laugh to see you mugs throwing away those items like they was garbage. A souled item is worth a fortune, and ya ain't gonna get one cheap."
 16: 0x0065 [0x23] WAIT_FOR_DIALOG_INTERACTION
 17: 0x0066 [0x1D] PRINT_EVENT_MESSAGE(message_id=7589*)
    → "$3 gil, and not a single gil less! Ya got a problem with that, kid?"
 18: 0x0069 [0x23] WAIT_FOR_DIALOG_INTERACTION
 19: 0x006A [0x1D] PRINT_EVENT_MESSAGE(message_id=7590*)
    → "So if ya want one, stop dawdlin' around already and hand me over some money."
 20: 0x006D [0x23] WAIT_FOR_DIALOG_INTERACTION
 21: 0x006E [0x1D] PRINT_EVENT_MESSAGE(message_id=7591*)
    → "What's that ya got there? $0!? Ya got unusual tastes for a person."
 22: 0x0071 [0x23] WAIT_FOR_DIALOG_INTERACTION
 23: 0x0072 [0x1D] PRINT_EVENT_MESSAGE(message_id=7592*)
    → "Got no clue what ya been doin' with it, but I bet ya gots no use for it anymore. What say I lighten your load in exchange for, say, $1 gil?"
 24: 0x0075 [0x23] WAIT_FOR_DIALOG_INTERACTION
 25: 0x0076 [0x1D] PRINT_EVENT_MESSAGE(message_id=7593*)
    → "So whaddaya waitin' for? Hand that $0 right over and let's make a deal."
 26: 0x0079 [0x23] WAIT_FOR_DIALOG_INTERACTION
 27: 0x007A [0x21] END_EVENT
 28: 0x007B [0x00] END_REQSTACK()
```

### Event 132

#### Metadata

| Field        | Value     |
|--------------|-----------|
| Entrypoint   | 0x007C    |
| Data Size    | 213 bytes |
| Instructions | 45        |

```
      00 01 02 03 04 05 06 07  08 09 0A 0B 0C 0D 0E 0F
      -- -- -- -- -- -- -- --  -- -- -- -- -- -- -- --
0070:                                      42 03 06 00              B...
0080: 02 10 03 04 00 03 10 03  07 00 04 10 03 05 00 05  ................
0090: 10 03 08 00 06 10 03 0A  00 08 10 03 09 00 06 00  ................
00A0: 1E F0 FF FF 7F 5B 00 80  04 52 09 01 04 52 09 01  .....[...R...R..
00B0: 74 6C 6B 30 1D 0D 80 23  1D 0E 80 23 1D 0F 80 23  tlk0...#...#...#
00C0: 5B 00 80 04 52 09 01 04  52 09 01 70 61 73 30 93  [...R...R..pas0.
00D0: 09 00 03 09 10 10 80 1D  11 80 23 53 04 52 09 01  ..........#S.R..
00E0: 04 52 09 01 70 61 73 30  93 12 80 5B 00 80 04 52  .R..pas0...[...R
00F0: 09 01 04 52 09 01 74 6C  6B 30 1D 13 80 23 03 02  ...R..tlk0...#..
0100: 10 06 00 03 03 10 04 00  03 04 10 07 00 5B 00 80  .............[..
0110: 04 52 09 01 04 52 09 01  74 6C 6B 31 1D 14 80 23  .R...R..tlk1...#
0120: 03 02 10 07 00 03 03 10  05 00 03 04 10 08 00 1D  ................
0130: 15 80 23 5B 00 80 04 52  09 01 04 52 09 01 74 6C  ..#[...R...R..tl
0140: 6B 30 03 01 10 16 80 43  00 43 01 1D 17 80 23 21  k0.....C.C....#!
0150: 00                                                .               
```

#### Opcodes

```
  0: 0x007C [0x42] SET_CLI_EVENT_CANCEL_DATA()
  1: 0x007D [0x03] ExtData[1]->WorkLocal[6] = Work_Zone[2]
  2: 0x0082 [0x03] ExtData[1]->WorkLocal[4] = Work_Zone[3]
  3: 0x0087 [0x03] ExtData[1]->WorkLocal[7] = Work_Zone[4]
  4: 0x008C [0x03] ExtData[1]->WorkLocal[5] = Work_Zone[5]
  5: 0x0091 [0x03] ExtData[1]->WorkLocal[8] = Work_Zone[6]
  6: 0x0096 [0x03] ExtData[1]->WorkLocal[10] = Work_Zone[8]
  7: 0x009B [0x03] ExtData[1]->WorkLocal[9] = ExtData[1]->WorkLocal[6]
  8: 0x00A0 [0x1E] EventEntity looks at LocalPlayer and starts talking
  9: 0x00A5 [0x5B] LOAD_EXT_SCHEDULER: Load scheduler "tlk0" with entities [Lootblox (ID: 17388036/0x01095204), Lootblox (ID: 17388036/0x01095204)], work=215*
 10: 0x00B4 [0x1D] PRINT_EVENT_MESSAGE(message_id=7602*)
    → "I got a deal for ya, kid. Did ya know that before the Great War, the three nations all had their own currencies?"
 11: 0x00B7 [0x23] WAIT_FOR_DIALOG_INTERACTION
 12: 0x00B8 [0x1D] PRINT_EVENT_MESSAGE(message_id=7603*)
    → "After that little fracas, everyone started using gil as the standard coin, and the other types of money just faded out of existence. Even if you was to find any nowadays, they only have value to Goblin collectors like me."
 13: 0x00BB [0x23] WAIT_FOR_DIALOG_INTERACTION
 14: 0x00BC [0x1D] PRINT_EVENT_MESSAGE(message_id=7604*)
    → "You're looking a bit confused there, kid. Let me show ya what I'm talking about."
 15: 0x00BF [0x23] WAIT_FOR_DIALOG_INTERACTION
 16: 0x00C0 [0x5B] LOAD_EXT_SCHEDULER: Load scheduler "pas0" with entities [Lootblox (ID: 17388036/0x01095204), Lootblox (ID: 17388036/0x01095204)], work=215*
 17: 0x00CF [0x93] DISPLAY_ITEM_INFO(item_id=ExtData[1]->WorkLocal[9])
 18: 0x00D2 [0x03] Work_Zone[9] = 1*
 19: 0x00D7 [0x1D] PRINT_EVENT_MESSAGE(message_id=7605*)
    → "This one's the least valuable of the lot. It was used as a part of the San d'Orian currency years ago. I know I told ya about the nations all having different currencies, but these San d'Orian coins are the only ones I'm interested in."
 20: 0x00DA [0x23] WAIT_FOR_DIALOG_INTERACTION
 21: 0x00DB [0x53] WAIT_SCHEDULER_TASK: Wait for scheduler "pas0" with entities [Lootblox (ID: 17388036/0x01095204), Lootblox (ID: 17388036/0x01095204)]
 22: 0x00E8 [0x93] DISPLAY_ITEM_INFO(item_id=0*)
 23: 0x00EB [0x5B] LOAD_EXT_SCHEDULER: Load scheduler "tlk0" with entities [Lootblox (ID: 17388036/0x01095204), Lootblox (ID: 17388036/0x01095204)], work=215*
 24: 0x00FA [0x1D] PRINT_EVENT_MESSAGE(message_id=7606*)
    → "If ya bring me these coins, I'll exchange them for something from my secret stash of treasure. Ya won't be getting anything for just one of them, so make sure ya collect a bagful, okay?"
 25: 0x00FD [0x23] WAIT_FOR_DIALOG_INTERACTION
 26: 0x00FE [0x03] Work_Zone[2] = ExtData[1]->WorkLocal[6]
 27: 0x0103 [0x03] Work_Zone[3] = ExtData[1]->WorkLocal[4]
 28: 0x0108 [0x03] Work_Zone[4] = ExtData[1]->WorkLocal[7]
 29: 0x010D [0x5B] LOAD_EXT_SCHEDULER: Load scheduler "tlk1" with entities [Lootblox (ID: 17388036/0x01095204), Lootblox (ID: 17388036/0x01095204)], work=215*
 30: 0x011C [0x1D] PRINT_EVENT_MESSAGE(message_id=7607*)
    → "Let me explain the deal. Bring me $1 $0 , and I'll give ya one $2. Where're ya going? Let me finish, will ya?"
 31: 0x011F [0x23] WAIT_FOR_DIALOG_INTERACTION
 32: 0x0120 [0x03] Work_Zone[2] = ExtData[1]->WorkLocal[7]
 33: 0x0125 [0x03] Work_Zone[3] = ExtData[1]->WorkLocal[5]
 34: 0x012A [0x03] Work_Zone[4] = ExtData[1]->WorkLocal[8]
 35: 0x012F [0x1D] PRINT_EVENT_MESSAGE(message_id=7608*)
    → "Once ya got $1 $0 , ya can trade them for one $2. Or, ya can decide to exchange them for something from my treasure stash. Each item's gonna cost ya a different amount, so choose carefully."
 36: 0x0132 [0x23] WAIT_FOR_DIALOG_INTERACTION
 37: 0x0133 [0x5B] LOAD_EXT_SCHEDULER: Load scheduler "tlk0" with entities [Lootblox (ID: 17388036/0x01095204), Lootblox (ID: 17388036/0x01095204)], work=215*
 38: 0x0142 [0x03] Work_Zone[1] = 10*
 39: 0x0147 [0x43] SEND_EVENT_UPDATE: Send pending tag to server (packet 0x005B)
 40: 0x0149 [0x43] SEND_EVENT_UPDATE: Check pending flag (skip if not pending)
 41: 0x014B [0x1D] PRINT_EVENT_MESSAGE(message_id=7724*)
    → "Ya can also exchange a $0 for $2 $0$0 . Gonna take ya a while to find, kid. Hope you're patient."
 42: 0x014E [0x23] WAIT_FOR_DIALOG_INTERACTION
 43: 0x014F [0x21] END_EVENT
 44: 0x0150 [0x00] END_REQSTACK()
```

### Event 133

#### Metadata

| Field        | Value     |
|--------------|-----------|
| Entrypoint   | 0x0151    |
| Data Size    | 211 bytes |
| Instructions | 30        |

```
      00 01 02 03 04 05 06 07  08 09 0A 0B 0C 0D 0E 0F
      -- -- -- -- -- -- -- --  -- -- -- -- -- -- -- --
0150:    1E F0 FF FF 7F 03 06  00 02 10 03 04 00 03 10   ...............
0160: 03 07 00 04 10 03 05 00  05 10 03 08 00 06 10 03  ................
0170: 0A 00 08 10 03 0B 00 09  10 03 09 00 06 00 03 0C  ................
0180: 00 07 10 1D 18 80 23 03  01 10 19 80 43 00 43 01  ......#.....C.C.
0190: 02 02 10 1A 80 00 A0 01  03 0F 00 1B 80 01 A5 01  ................
01A0: 03 0F 00 12 80 03 02 10  0A 00 03 03 10 07 00 03  ................
01B0: 04 10 08 00 03 05 10 1C  80 24 1D 80 12 80 0F 00  .........$......
01C0: 25 02 00 10 12 80 00 CF  01 01 22 02 01 1F 02 02  %.........".....
01D0: 00 10 10 80 00 DD 01 01  E1 04 01 1F 02 02 00 10  ................
01E0: 1E 80 00 EB 01 01 1B 05  01 1F 02 02 00 10 1F 80  ................
01F0: 00 0C 02 5B 00 80 04 52  09 01 04 52 09 01 74 6C  ...[...R...R..tl
0200: 6B 30 1D 20 80 23 1A B0  06 01 1F 02 02 00 10 1B  k0. .#..........
0210: 80 00 1F 02 03 02 10 07  00 1A 85 03 01 1F 02 01  ................
0220: 87 01 21 00                                       ..!.            
```

#### Opcodes

```
  0: 0x0151 [0x1E] EventEntity looks at LocalPlayer and starts talking
  1: 0x0156 [0x03] ExtData[1]->WorkLocal[6] = Work_Zone[2]
  2: 0x015B [0x03] ExtData[1]->WorkLocal[4] = Work_Zone[3]
  3: 0x0160 [0x03] ExtData[1]->WorkLocal[7] = Work_Zone[4]
  4: 0x0165 [0x03] ExtData[1]->WorkLocal[5] = Work_Zone[5]
  5: 0x016A [0x03] ExtData[1]->WorkLocal[8] = Work_Zone[6]
  6: 0x016F [0x03] ExtData[1]->WorkLocal[10] = Work_Zone[8]
  7: 0x0174 [0x03] ExtData[1]->WorkLocal[11] = Work_Zone[9]
  8: 0x0179 [0x03] ExtData[1]->WorkLocal[9] = ExtData[1]->WorkLocal[6]
  9: 0x017E [0x03] ExtData[1]->WorkLocal[12] = Work_Zone[7]
 10: 0x0183 [0x1D] PRINT_EVENT_MESSAGE(message_id=7611*)
    → "What is it, kid? Ya got something to ask me?"
 11: 0x0186 [0x23] WAIT_FOR_DIALOG_INTERACTION
 12: 0x0187 [0x03] Work_Zone[1] = 11*
 13: 0x018C [0x43] SEND_EVENT_UPDATE: Send pending tag to server (packet 0x005B)
 14: 0x018E [0x43] SEND_EVENT_UPDATE: Check pending flag (skip if not pending)
 15: 0x0190 [0x02] IF !(Work_Zone[2] == 2046*) GOTO 0x01A0
 16: 0x0198 [0x03] ExtData[1]->WorkLocal[15] = 4*
 17: 0x019D [0x01] GOTO 0x01A5
 18: 0x01A0 [0x03] ExtData[1]->WorkLocal[15] = 0*

SUBROUTINE_01A5:
 19: 0x01A5 [0x03] Work_Zone[2] = ExtData[1]->WorkLocal[10]
 20: 0x01AA [0x03] Work_Zone[3] = ExtData[1]->WorkLocal[7]
 21: 0x01AF [0x03] Work_Zone[4] = ExtData[1]->WorkLocal[8]
 22: 0x01B4 [0x03] Work_Zone[5] = 1550*
 23: 0x01B9 [0x24] CREATE_DIALOG(message_id=7612*, default_option=0*, option_flags=ExtData[1]->WorkLocal[15])
    → "What do you want to ask about? [Nothing./Hourglasses./Maps./Old currencies./Trading $1.]"
 24: 0x01C0 [0x25] WAIT_DIALOG_SELECT()
 25: 0x01C1 [0x02] IF !(Work_Zone[0] == 0*) GOTO 0x01CF
 26: 0x01C9 [0x01] GOTO 0x0222

SUBROUTINE_021F:
 27: 0x021F [0x01] GOTO 0x0187

SUBROUTINE_0222:
 28: 0x0222 [0x21] END_EVENT
 29: 0x0223 [0x00] END_REQSTACK()
```

#### Data or dead code:

```
# Dead code (unreachable instructions):
     0x01CC [0x01] GOTO 0x021F
     0x01DA [0x01] GOTO 0x021F
     0x01E8 [0x01] GOTO 0x021F
```

### Event 134

#### Metadata

| Field        | Value    |
|--------------|----------|
| Entrypoint   | 0x0224   |
| Data Size    | 59 bytes |
| Instructions | 11       |

```
      00 01 02 03 04 05 06 07  08 09 0A 0B 0C 0D 0E 0F
      -- -- -- -- -- -- -- --  -- -- -- -- -- -- -- --
0220:             42 1E F0 FF  FF 7F 5B 00 80 04 52 09      B.....[...R.
0230: 01 04 52 09 01 74 6C 6B  30 1D 21 80 23 1D 22 80  ..R..tlk0.!.#.".
0240: 23 5B 00 80 04 52 09 01  04 52 09 01 70 61 73 30  #[...R...R..pas0
0250: 53 04 52 09 01 04 52 09  01 70 61 73 30 21 00     S.R...R..pas0!. 
```

#### Opcodes

```
  0: 0x0224 [0x42] SET_CLI_EVENT_CANCEL_DATA()
  1: 0x0225 [0x1E] EventEntity looks at LocalPlayer and starts talking
  2: 0x022A [0x5B] LOAD_EXT_SCHEDULER: Load scheduler "tlk0" with entities [Lootblox (ID: 17388036/0x01095204), Lootblox (ID: 17388036/0x01095204)], work=215*
  3: 0x0239 [0x1D] PRINT_EVENT_MESSAGE(message_id=7616*)
    → "Ya really like your junk, huh? That's what this stuff looks like to most people, and ya just spent a fortune on it. You're my kinda people, kid."
  4: 0x023C [0x23] WAIT_FOR_DIALOG_INTERACTION
  5: 0x023D [0x1D] PRINT_EVENT_MESSAGE(message_id=7617*)
    → "By the way, I don't give out receipts, and I don't take back items I already sold. I don't know what ya mean to do with the $0 and I don't much care, so take it and skedaddle."
  6: 0x0240 [0x23] WAIT_FOR_DIALOG_INTERACTION
  7: 0x0241 [0x5B] LOAD_EXT_SCHEDULER: Load scheduler "pas0" with entities [Lootblox (ID: 17388036/0x01095204), Lootblox (ID: 17388036/0x01095204)], work=215*
  8: 0x0250 [0x53] WAIT_SCHEDULER_TASK: Wait for scheduler "pas0" with entities [Lootblox (ID: 17388036/0x01095204), Lootblox (ID: 17388036/0x01095204)]
  9: 0x025D [0x21] END_EVENT
 10: 0x025E [0x00] END_REQSTACK()
```

### Event 152

#### Metadata

| Field        | Value    |
|--------------|----------|
| Entrypoint   | 0x025F   |
| Data Size    | 59 bytes |
| Instructions | 11       |

```
      00 01 02 03 04 05 06 07  08 09 0A 0B 0C 0D 0E 0F
      -- -- -- -- -- -- -- --  -- -- -- -- -- -- -- --
0250:                                               42                 B
0260: 1E F0 FF FF 7F 5B 00 80  04 52 09 01 04 52 09 01  .....[...R...R..
0270: 74 6C 6B 30 1D 21 80 23  1D 23 80 23 5B 00 80 04  tlk0.!.#.#.#[...
0280: 52 09 01 04 52 09 01 70  61 73 30 53 04 52 09 01  R...R..pas0S.R..
0290: 04 52 09 01 70 61 73 30  21 00                    .R..pas0!.      
```

#### Opcodes

```
  0: 0x025F [0x42] SET_CLI_EVENT_CANCEL_DATA()
  1: 0x0260 [0x1E] EventEntity looks at LocalPlayer and starts talking
  2: 0x0265 [0x5B] LOAD_EXT_SCHEDULER: Load scheduler "tlk0" with entities [Lootblox (ID: 17388036/0x01095204), Lootblox (ID: 17388036/0x01095204)], work=215*
  3: 0x0274 [0x1D] PRINT_EVENT_MESSAGE(message_id=7616*)
    → "Ya really like your junk, huh? That's what this stuff looks like to most people, and ya just spent a fortune on it. You're my kinda people, kid."
  4: 0x0277 [0x23] WAIT_FOR_DIALOG_INTERACTION
  5: 0x0278 [0x1D] PRINT_EVENT_MESSAGE(message_id=7618*)
    → "By the way, I don't give out receipts, and I don't take back items I already sold. I don't know what ya mean to do with the $3 and I don't much care, so take it and skedaddle."
  6: 0x027B [0x23] WAIT_FOR_DIALOG_INTERACTION
  7: 0x027C [0x5B] LOAD_EXT_SCHEDULER: Load scheduler "pas0" with entities [Lootblox (ID: 17388036/0x01095204), Lootblox (ID: 17388036/0x01095204)], work=215*
  8: 0x028B [0x53] WAIT_SCHEDULER_TASK: Wait for scheduler "pas0" with entities [Lootblox (ID: 17388036/0x01095204), Lootblox (ID: 17388036/0x01095204)]
  9: 0x0298 [0x21] END_EVENT
 10: 0x0299 [0x00] END_REQSTACK()
```

### Event 153

#### Metadata

| Field        | Value    |
|--------------|----------|
| Entrypoint   | 0x029A   |
| Data Size    | 55 bytes |
| Instructions | 9        |

```
      00 01 02 03 04 05 06 07  08 09 0A 0B 0C 0D 0E 0F
      -- -- -- -- -- -- -- --  -- -- -- -- -- -- -- --
0290:                                42 1E F0 FF FF 7F            B.....
02A0: 5B 00 80 04 52 09 01 04  52 09 01 74 6C 6B 30 1D  [...R...R..tlk0.
02B0: 24 80 23 5B 00 80 04 52  09 01 04 52 09 01 70 61  $.#[...R...R..pa
02C0: 73 30 53 04 52 09 01 04  52 09 01 70 61 73 30 21  s0S.R...R..pas0!
02D0: 00                                                .               
```

#### Opcodes

```
  0: 0x029A [0x42] SET_CLI_EVENT_CANCEL_DATA()
  1: 0x029B [0x1E] EventEntity looks at LocalPlayer and starts talking
  2: 0x02A0 [0x5B] LOAD_EXT_SCHEDULER: Load scheduler "tlk0" with entities [Lootblox (ID: 17388036/0x01095204), Lootblox (ID: 17388036/0x01095204)], work=215*
  3: 0x02AF [0x1D] PRINT_EVENT_MESSAGE(message_id=7620*)
    → "So you wanna make a deal here? Should be a good one for the both o' us."
  4: 0x02B2 [0x23] WAIT_FOR_DIALOG_INTERACTION
  5: 0x02B3 [0x5B] LOAD_EXT_SCHEDULER: Load scheduler "pas0" with entities [Lootblox (ID: 17388036/0x01095204), Lootblox (ID: 17388036/0x01095204)], work=215*
  6: 0x02C2 [0x53] WAIT_SCHEDULER_TASK: Wait for scheduler "pas0" with entities [Lootblox (ID: 17388036/0x01095204), Lootblox (ID: 17388036/0x01095204)]
  7: 0x02CF [0x21] END_EVENT
  8: 0x02D0 [0x00] END_REQSTACK()
```

### Event 135

#### Metadata

| Field        | Value    |
|--------------|----------|
| Entrypoint   | 0x02D1   |
| Data Size    | 70 bytes |
| Instructions | 14       |

```
      00 01 02 03 04 05 06 07  08 09 0A 0B 0C 0D 0E 0F
      -- -- -- -- -- -- -- --  -- -- -- -- -- -- -- --
02D0:    42 03 00 00 02 10 03  01 00 25 80 03 02 00 26   B........%....&
02E0: 80 03 02 10 01 00 03 03  10 00 00 03 04 10 02 00  ................
02F0: 1E F0 FF FF 7F 1D 27 80  23 5B 00 80 04 52 09 01  ......'.#[...R..
0300: 04 52 09 01 70 61 73 30  53 04 52 09 01 04 52 09  .R..pas0S.R...R.
0310: 01 70 61 73 30 21 00                              .pas0!.         
```

#### Opcodes

```
  0: 0x02D1 [0x42] SET_CLI_EVENT_CANCEL_DATA()
  1: 0x02D2 [0x03] ExtData[1]->WorkLocal[0] = Work_Zone[2]
  2: 0x02D7 [0x03] ExtData[1]->WorkLocal[1] = 1452*
  3: 0x02DC [0x03] ExtData[1]->WorkLocal[2] = 1453*
  4: 0x02E1 [0x03] Work_Zone[2] = ExtData[1]->WorkLocal[1]
  5: 0x02E6 [0x03] Work_Zone[3] = ExtData[1]->WorkLocal[0]
  6: 0x02EB [0x03] Work_Zone[4] = ExtData[1]->WorkLocal[2]
  7: 0x02F0 [0x1E] EventEntity looks at LocalPlayer and starts talking
  8: 0x02F5 [0x1D] PRINT_EVENT_MESSAGE(message_id=7564*)
    → "They're not worth a whole lot, but ya done good to collect $1 $0 . Here's $2 for yer trouble."
  9: 0x02F8 [0x23] WAIT_FOR_DIALOG_INTERACTION
 10: 0x02F9 [0x5B] LOAD_EXT_SCHEDULER: Load scheduler "pas0" with entities [Lootblox (ID: 17388036/0x01095204), Lootblox (ID: 17388036/0x01095204)], work=215*
 11: 0x0308 [0x53] WAIT_SCHEDULER_TASK: Wait for scheduler "pas0" with entities [Lootblox (ID: 17388036/0x01095204), Lootblox (ID: 17388036/0x01095204)]
 12: 0x0315 [0x21] END_EVENT
 13: 0x0316 [0x00] END_REQSTACK()
```

### Event 136

#### Metadata

| Field        | Value    |
|--------------|----------|
| Entrypoint   | 0x0317   |
| Data Size    | 70 bytes |
| Instructions | 14       |

```
      00 01 02 03 04 05 06 07  08 09 0A 0B 0C 0D 0E 0F
      -- -- -- -- -- -- -- --  -- -- -- -- -- -- -- --
0310:                      42  03 00 00 02 10 03 01 00         B........
0320: 26 80 03 02 00 28 80 03  02 10 01 00 03 03 10 00  &....(..........
0330: 00 03 04 10 02 00 1E F0  FF FF 7F 1D 29 80 23 5B  ............).#[
0340: 00 80 04 52 09 01 04 52  09 01 70 61 73 30 53 04  ...R...R..pas0S.
0350: 52 09 01 04 52 09 01 70  61 73 30 21 00           R...R..pas0!.   
```

#### Opcodes

```
  0: 0x0317 [0x42] SET_CLI_EVENT_CANCEL_DATA()
  1: 0x0318 [0x03] ExtData[1]->WorkLocal[0] = Work_Zone[2]
  2: 0x031D [0x03] ExtData[1]->WorkLocal[1] = 1453*
  3: 0x0322 [0x03] ExtData[1]->WorkLocal[2] = 1454*
  4: 0x0327 [0x03] Work_Zone[2] = ExtData[1]->WorkLocal[1]
  5: 0x032C [0x03] Work_Zone[3] = ExtData[1]->WorkLocal[0]
  6: 0x0331 [0x03] Work_Zone[4] = ExtData[1]->WorkLocal[2]
  7: 0x0336 [0x1E] EventEntity looks at LocalPlayer and starts talking
  8: 0x033B [0x1D] PRINT_EVENT_MESSAGE(message_id=7566*)
    → "Here ya go, kid. $2 in exchange for ya $1 $0 ."
  9: 0x033E [0x23] WAIT_FOR_DIALOG_INTERACTION
 10: 0x033F [0x5B] LOAD_EXT_SCHEDULER: Load scheduler "pas0" with entities [Lootblox (ID: 17388036/0x01095204), Lootblox (ID: 17388036/0x01095204)], work=215*
 11: 0x034E [0x53] WAIT_SCHEDULER_TASK: Wait for scheduler "pas0" with entities [Lootblox (ID: 17388036/0x01095204), Lootblox (ID: 17388036/0x01095204)]
 12: 0x035B [0x21] END_EVENT
 13: 0x035C [0x00] END_REQSTACK()
```

### Event 137

#### Metadata

| Field        | Value      |
|--------------|------------|
| Entrypoint   | 0x035D     |
| Data Size    | 1008 bytes |
| Instructions | 8          |

```
      00 01 02 03 04 05 06 07  08 09 0A 0B 0C 0D 0E 0F
      -- -- -- -- -- -- -- --  -- -- -- -- -- -- -- --
0350:                                         42 1E F0               B..
0360: FF FF 7F 1D 2A 80 23 5B  00 80 04 52 09 01 04 52  ....*.#[...R...R
0370: 09 01 70 61 73 30 53 04  52 09 01 04 52 09 01 70  ..pas0S.R...R..p
0380: 61 73 30 21 00 5B 00 80  04 52 09 01 04 52 09 01  as0!.[...R...R..
0390: 74 6C 6B 30 1D 2B 80 23  5E 69 64 6C 30 03 01 10  tlk0.+.#^idl0...
03A0: 1E 80 43 00 43 01 24 2C  80 12 80 12 80 25 02 00  ..C.C.$,.....%..
03B0: 10 12 80 00 BC 03 01 26  04 01 1E 04 02 00 10 10  .......&........
03C0: 80 00 D1 03 03 11 00 02  10 03 03 00 03 10 01 1E  ................
03D0: 04 02 00 10 1E 80 00 E6  03 03 11 00 04 10 03 03  ................
03E0: 00 05 10 01 1E 04 02 00  10 1F 80 00 FB 03 03 11  ................
03F0: 00 06 10 03 03 00 07 10  01 1E 04 02 00 10 1B 80  ................
0400: 00 10 04 03 11 00 08 10  03 03 00 09 10 01 1E 04  ................
0410: 02 00 10 2D 80 00 1E 04  01 E0 04 01 1E 04 03 0D  ...-............
0420: 00 10 80 01 97 04 03 01  10 1F 80 43 00 43 01 24  ...........C.C.$
0430: 2E 80 12 80 12 80 25 02  00 10 12 80 00 45 04 01  ......%......E..
0440: 9D 03 01 92 04 02 00 10  10 80 00 5A 04 03 11 00  ...........Z....
0450: 02 10 03 03 00 03 10 01  92 04 02 00 10 1E 80 00  ................
0460: 6F 04 03 11 00 04 10 03  03 00 05 10 01 92 04 02  o...............
0470: 00 10 1F 80 00 84 04 03  11 00 06 10 03 03 00 07  ................
0480: 10 01 92 04 02 00 10 1B  80 00 92 04 01 E0 04 01  ................
0490: 92 04 03 0D 00 1E 80 93  03 00 03 02 10 03 00 03  ................
04A0: 03 10 07 00 03 04 10 11  00 5B 00 80 04 52 09 01  .........[...R..
04B0: 04 52 09 01 70 61 73 30  1D 2F 80 23 5E 69 64 6C  .R..pas0./.#^idl
04C0: 30 93 12 80 02 0D 00 10  80 80 D2 04 01 9D 03 01  0...............
04D0: E0 04 02 0D 00 1E 80 80  E0 04 01 26 04 01 E0 04  ...........&....
04E0: 1B 03 01 10 10 80 43 00  43 01 24 30 80 12 80 12  ......C.C.$0....
04F0: 80 25 02 00 10 10 80 00  17 05 03 02 10 0A 00 03  .%..............
0500: 03 10 0B 00 03 04 10 1C  80 03 05 10 0C 00 1A 64  ...............d
0510: 06 01 EA 04 01 17 05 01  87 01 00 03 01 10 19 80  ................
0520: 43 00 43 01 1D 31 80 23  03 10 00 03 10 03 03 10  C.C..1.#........
0530: 32 80 03 04 10 32 80 03  05 10 32 80 03 06 10 32  2....2....2....2
0540: 80 03 07 10 33 80 03 08  10 34 80 03 09 10 32 80  ....3....4....2.
0550: 03 00 17 32 80 03 01 17  32 80 03 02 17 34 80 03  ...2....2....4..
0560: 03 17 10 00 24 35 80 12  80 02 10 25 02 00 10 12  ....$5.....%....
0570: 80 00 7A 05 01 60 06 01  1A 06 02 00 10 10 80 00  ..z..`..........
0580: 8A 05 03 02 10 36 80 01  1A 06 02 00 10 1E 80 00  .....6..........
0590: 9A 05 03 02 10 37 80 01  1A 06 02 00 10 1F 80 00  .....7..........
05A0: AA 05 03 02 10 38 80 01  1A 06 02 00 10 1B 80 00  .....8..........
05B0: BA 05 03 02 10 39 80 01  1A 06 02 00 10 2D 80 00  .....9.......-..
05C0: CA 05 03 02 10 3A 80 01  1A 06 02 00 10 3B 80 00  .....:.......;..
05D0: DA 05 03 02 10 3C 80 01  1A 06 02 00 10 3D 80 00  .....<.......=..
05E0: EA 05 03 02 10 3E 80 01  1A 06 02 00 10 3F 80 00  .....>.......?..
05F0: FA 05 03 02 10 40 80 01  1A 06 02 00 10 41 80 00  .....@.......A..
0600: 0A 06 03 02 10 42 80 01  1A 06 02 00 10 16 80 00  .....B..........
0610: 1A 06 03 02 10 43 80 01  1A 06 24 44 80 12 80 12  .....C....$D....
0620: 80 25 02 00 10 12 80 00  41 06 03 01 10 02 10 43  .%......A......C
0630: 00 43 01 02 02 10 1A 80  01 3E 06 01 28 05 01 60  .C.......>..(..`
0640: 06 02 00 10 10 80 00 60  06 03 01 10 19 80 43 00  .......`......C.
0650: 43 01 02 02 10 1A 80 01  5D 06 01 28 05 01 60 06  C.......]..(..`.
0660: 01 87 01 00 5B 00 80 04  52 09 01 04 52 09 01 74  ....[...R...R..t
0670: 6C 6B 31 1D 03 80 23 1D  04 80 23 5B 00 80 04 52  lk1...#...#[...R
0680: 09 01 04 52 09 01 74 6C  6B 30 1D 05 80 23 1D 06  ...R..tlk0...#..
0690: 80 23 1D 07 80 23 1D 08  80 23 1D 09 80 23 1D 0A  .#...#...#...#..
06A0: 80 23 1D 0B 80 23 1D 0C  80 23 5E 69 64 6C 30 1B  .#...#...#^idl0.
06B0: 1D 0E 80 23 1D 0F 80 23  5B 00 80 04 52 09 01 04  ...#...#[...R...
06C0: 52 09 01 70 61 73 30 93  09 00 03 09 10 10 80 1D  R..pas0.........
06D0: 11 80 23 53 04 52 09 01  04 52 09 01 70 61 73 30  ..#S.R...R..pas0
06E0: 93 12 80 5B 00 80 04 52  09 01 04 52 09 01 74 6C  ...[...R...R..tl
06F0: 6B 30 1D 13 80 23 03 02  10 06 00 03 03 10 04 00  k0...#..........
0700: 03 04 10 07 00 5B 00 80  04 52 09 01 04 52 09 01  .....[...R...R..
0710: 74 6C 6B 31 1D 14 80 23  03 02 10 07 00 03 03 10  tlk1...#........
0720: 05 00 03 04 10 08 00 1D  15 80 23 5B 00 80 04 52  ..........#[...R
0730: 09 01 04 52 09 01 74 6C  6B 30 03 01 10 16 80 43  ...R..tlk0.....C
0740: 00 43 01 1D 17 80 23 5E  69 64 6C 30 1B           .C....#^idl0.   
```

#### Opcodes

```
  0: 0x035D [0x42] SET_CLI_EVENT_CANCEL_DATA()
  1: 0x035E [0x1E] EventEntity looks at LocalPlayer and starts talking
  2: 0x0363 [0x1D] PRINT_EVENT_MESSAGE(message_id=7568*)
    → "Now you're just showing off, bringing me $1 $0 . Here's your $2. Now scram, kid."
  3: 0x0366 [0x23] WAIT_FOR_DIALOG_INTERACTION
  4: 0x0367 [0x5B] LOAD_EXT_SCHEDULER: Load scheduler "pas0" with entities [Lootblox (ID: 17388036/0x01095204), Lootblox (ID: 17388036/0x01095204)], work=215*
  5: 0x0376 [0x53] WAIT_SCHEDULER_TASK: Wait for scheduler "pas0" with entities [Lootblox (ID: 17388036/0x01095204), Lootblox (ID: 17388036/0x01095204)]
  6: 0x0383 [0x21] END_EVENT
  7: 0x0384 [0x00] END_REQSTACK()
```

#### Data or dead code:

```
# Dead code (unreachable instructions):
     0x0385 [0x5B] LOAD_EXT_SCHEDULER: Load scheduler "tlk0" with entities [Lootblox (ID: 17388036/0x01095204), Lootblox (ID: 17388036/0x01095204)], work=215*
     0x0394 [0x1D] PRINT_EVENT_MESSAGE(message_id=7622*)
    → "Here's the list of stuff ya can trade your $0 for."
     0x0397 [0x23] WAIT_FOR_DIALOG_INTERACTION
     0x0398 [0x5E] EventEntity goes idle (kills current action) (animation: "idl0")
     0x039D [0x03] Work_Zone[1] = 2*
     0x03A2 [0x43] SEND_EVENT_UPDATE: Send pending tag to server (packet 0x005B)
     0x03A4 [0x43] SEND_EVENT_UPDATE: Check pending flag (skip if not pending)
     0x03A6 [0x24] CREATE_DIALOG(message_id=7628*, default_option=0*, option_flags=0*)
    → "Which item will you look at? [View next page./$1: $0 [coin/coins]./$3: $2 [coin/coins]./$5: $4 [coin/coins]./$7: $6 [coin/coins]./Nothing.]"
     0x03AD [0x25] WAIT_DIALOG_SELECT()
     0x03AE [0x02] IF !(Work_Zone[0] == 0*) GOTO 0x03BC
     0x03B6 [0x01] GOTO 0x0426
     0x03B9 [0x01] GOTO 0x041E
     0x03BC [0x02] IF !(Work_Zone[0] == 1*) GOTO 0x03D1
     0x03C4 [0x03] ExtData[1]->WorkLocal[17] = Work_Zone[2]
     0x03C9 [0x03] ExtData[1]->WorkLocal[3] = Work_Zone[3]
     0x03CE [0x01] GOTO 0x041E
     0x03D1 [0x02] IF !(Work_Zone[0] == 2*) GOTO 0x03E6
     0x03D9 [0x03] ExtData[1]->WorkLocal[17] = Work_Zone[4]
     0x03DE [0x03] ExtData[1]->WorkLocal[3] = Work_Zone[5]
     0x03E3 [0x01] GOTO 0x041E
     0x03E6 [0x02] IF !(Work_Zone[0] == 3*) GOTO 0x03FB
     0x03EE [0x03] ExtData[1]->WorkLocal[17] = Work_Zone[6]
     0x03F3 [0x03] ExtData[1]->WorkLocal[3] = Work_Zone[7]
     0x03F8 [0x01] GOTO 0x041E
     0x03FB [0x02] IF !(Work_Zone[0] == 4*) GOTO 0x0410
     0x0403 [0x03] ExtData[1]->WorkLocal[17] = Work_Zone[8]
     0x0408 [0x03] ExtData[1]->WorkLocal[3] = Work_Zone[9]
     0x040D [0x01] GOTO 0x041E
     0x0410 [0x02] IF !(Work_Zone[0] == 5*) GOTO 0x041E
     0x0418 [0x01] GOTO 0x04E0
     0x041B [0x01] GOTO 0x041E
     0x041E [0x03] ExtData[1]->WorkLocal[13] = 1*
     0x0423 [0x01] GOTO 0x0497
     0x0426 [0x03] Work_Zone[1] = 3*
     0x042B [0x43] SEND_EVENT_UPDATE: Send pending tag to server (packet 0x005B)
     0x042D [0x43] SEND_EVENT_UPDATE: Check pending flag (skip if not pending)
     0x042F [0x24] CREATE_DIALOG(message_id=7629*, default_option=0*, option_flags=0*)
    → "Which item will you look at? [View previous page./$1: $0 [coin/coins]./$3: $2 [coin/coins]./$5: $4 [coin/coins]./Nothing.]"
     0x0436 [0x25] WAIT_DIALOG_SELECT()
     0x0437 [0x02] IF !(Work_Zone[0] == 0*) GOTO 0x0445
     0x043F [0x01] GOTO 0x039D
     0x0442 [0x01] GOTO 0x0492
     0x0445 [0x02] IF !(Work_Zone[0] == 1*) GOTO 0x045A
     0x044D [0x03] ExtData[1]->WorkLocal[17] = Work_Zone[2]
     0x0452 [0x03] ExtData[1]->WorkLocal[3] = Work_Zone[3]
     0x0457 [0x01] GOTO 0x0492
     0x045A [0x02] IF !(Work_Zone[0] == 2*) GOTO 0x046F
     0x0462 [0x03] ExtData[1]->WorkLocal[17] = Work_Zone[4]
     0x0467 [0x03] ExtData[1]->WorkLocal[3] = Work_Zone[5]
     0x046C [0x01] GOTO 0x0492
     0x046F [0x02] IF !(Work_Zone[0] == 3*) GOTO 0x0484
     0x0477 [0x03] ExtData[1]->WorkLocal[17] = Work_Zone[6]
     0x047C [0x03] ExtData[1]->WorkLocal[3] = Work_Zone[7]
     0x0481 [0x01] GOTO 0x0492
     0x0484 [0x02] IF !(Work_Zone[0] == 4*) GOTO 0x0492
     0x048C [0x01] GOTO 0x04E0
     0x048F [0x01] GOTO 0x0492
     0x0492 [0x03] ExtData[1]->WorkLocal[13] = 2*
     0x0497 [0x93] DISPLAY_ITEM_INFO(item_id=ExtData[1]->WorkLocal[3])
     0x049A [0x03] Work_Zone[2] = ExtData[1]->WorkLocal[3]
     0x049F [0x03] Work_Zone[3] = ExtData[1]->WorkLocal[7]
     0x04A4 [0x03] Work_Zone[4] = ExtData[1]->WorkLocal[17]
     0x04A9 [0x5B] LOAD_EXT_SCHEDULER: Load scheduler "pas0" with entities [Lootblox (ID: 17388036/0x01095204), Lootblox (ID: 17388036/0x01095204)], work=215*
     0x04B8 [0x1D] PRINT_EVENT_MESSAGE(message_id=7624*)
    → "This is $0. Ya want one, you're gonna have to bring me $2 $0$0 ."
     0x04BB [0x23] WAIT_FOR_DIALOG_INTERACTION
     0x04BC [0x5E] EventEntity goes idle (kills current action) (animation: "idl0")
     0x04C1 [0x93] DISPLAY_ITEM_INFO(item_id=0*)
     0x04C4 [0x02] IF !(ExtData[1]->WorkLocal[13] == 1*) GOTO 0x04D2
     0x04CC [0x01] GOTO 0x039D
     0x04CF [0x01] GOTO 0x04E0
     0x04D2 [0x02] IF !(ExtData[1]->WorkLocal[13] == 2*) GOTO 0x04E0
     0x04DA [0x01] GOTO 0x0426
     0x04DD [0x01] GOTO 0x04E0
     0x04E0 [0x1B] RETURN
     0x04E1 [0x03] Work_Zone[1] = 1*
     0x04E6 [0x43] SEND_EVENT_UPDATE: Send pending tag to server (packet 0x005B)
     0x04E8 [0x43] SEND_EVENT_UPDATE: Check pending flag (skip if not pending)
     0x04EA [0x24] CREATE_DIALOG(message_id=7625*, default_option=0*, option_flags=0*)
    → "What do you want to ask about? [Nothing./Hourglasses.]"
     0x04F1 [0x25] WAIT_DIALOG_SELECT()
     0x04F2 [0x02] IF !(Work_Zone[0] == 1*) GOTO 0x0517
     0x04FA [0x03] Work_Zone[2] = ExtData[1]->WorkLocal[10]
     0x04FF [0x03] Work_Zone[3] = ExtData[1]->WorkLocal[11]
     0x0504 [0x03] Work_Zone[4] = 1550*
     0x0509 [0x03] Work_Zone[5] = ExtData[1]->WorkLocal[12]
     0x050E [0x1A] CALL_SUBROUTINE(address=0x0664)
     0x0511 [0x01] GOTO 0x04EA
     0x0514 [0x01] GOTO 0x0517
     0x0517 [0x01] GOTO 0x0187
     0x051A [0x00] END_REQSTACK()
     0x051B [0x03] Work_Zone[1] = 11*
     0x0520 [0x43] SEND_EVENT_UPDATE: Send pending tag to server (packet 0x005B)
     0x0522 [0x43] SEND_EVENT_UPDATE: Check pending flag (skip if not pending)
     0x0524 [0x1D] PRINT_EVENT_MESSAGE(message_id=7878*)
    → "Us Gobs, we can get anywhere with our noses and our smarts. But yeah, I got what you're lookin' for. For the right price, that is."
     0x0527 [0x23] WAIT_FOR_DIALOG_INTERACTION
     0x0528 [0x03] ExtData[1]->WorkLocal[16] = Work_Zone[3]
     0x052D [0x03] Work_Zone[3] = 10000*
     0x0532 [0x03] Work_Zone[4] = 10000*
     0x0537 [0x03] Work_Zone[5] = 10000*
     0x053C [0x03] Work_Zone[6] = 10000*
     0x0541 [0x03] Work_Zone[7] = 15000*
     0x0546 [0x03] Work_Zone[8] = 20000*
     0x054B [0x03] Work_Zone[9] = 10000*
     0x0550 [0x03] Work_Zone_1700[0] = 10000*
     0x0555 [0x03] Work_Zone_1700[1] = 10000*
     0x055A [0x03] Work_Zone_1700[2] = 20000*
     0x055F [0x03] Work_Zone_1700[3] = ExtData[1]->WorkLocal[16]
     0x0564 [0x24] CREATE_DIALOG(message_id=7879*, default_option=0*, option_flags=Work_Zone[2])
    → "Buy a map? (Current gil: $11). [Not now./Dynamis - San d'Oria ($1)./Dynamis - Bastok ($2)./Dynamis - Windurst ($3)./Dynamis - Jeuno ($4)./Dynamis - Beaucedine ($5)./Dynamis - Xarcabard ($6)./Dynamis - Valkurm ($7)./Dynamis - Buburimu ($8)./Dynamis - Qufim ($9)./Dynamis - Tavnazia ($10).]"
     0x056B [0x25] WAIT_DIALOG_SELECT()
     0x056C [0x02] IF !(Work_Zone[0] == 0*) GOTO 0x057A
     0x0574 [0x01] GOTO 0x0660
     0x0577 [0x01] GOTO 0x061A
     0x057A [0x02] IF !(Work_Zone[0] == 1*) GOTO 0x058A
     0x0582 [0x03] Work_Zone[2] = 1894*
     0x0587 [0x01] GOTO 0x061A
     0x058A [0x02] IF !(Work_Zone[0] == 2*) GOTO 0x059A
     0x0592 [0x03] Work_Zone[2] = 1895*
     0x0597 [0x01] GOTO 0x061A
     0x059A [0x02] IF !(Work_Zone[0] == 3*) GOTO 0x05AA
     0x05A2 [0x03] Work_Zone[2] = 1896*
     0x05A7 [0x01] GOTO 0x061A
     0x05AA [0x02] IF !(Work_Zone[0] == 4*) GOTO 0x05BA
     0x05B2 [0x03] Work_Zone[2] = 1897*
     0x05B7 [0x01] GOTO 0x061A
     0x05BA [0x02] IF !(Work_Zone[0] == 5*) GOTO 0x05CA
     0x05C2 [0x03] Work_Zone[2] = 1898*
     0x05C7 [0x01] GOTO 0x061A
     0x05CA [0x02] IF !(Work_Zone[0] == 6*) GOTO 0x05DA
     0x05D2 [0x03] Work_Zone[2] = 1899*
     0x05D7 [0x01] GOTO 0x061A
     0x05DA [0x02] IF !(Work_Zone[0] == 7*) GOTO 0x05EA
     0x05E2 [0x03] Work_Zone[2] = 1900*
     0x05E7 [0x01] GOTO 0x061A
     0x05EA [0x02] IF !(Work_Zone[0] == 8*) GOTO 0x05FA
     0x05F2 [0x03] Work_Zone[2] = 1901*
     0x05F7 [0x01] GOTO 0x061A
     0x05FA [0x02] IF !(Work_Zone[0] == 9*) GOTO 0x060A
     0x0602 [0x03] Work_Zone[2] = 1902*
     0x0607 [0x01] GOTO 0x061A
     0x060A [0x02] IF !(Work_Zone[0] == 10*) GOTO 0x061A
     0x0612 [0x03] Work_Zone[2] = 1903*
     0x0617 [0x01] GOTO 0x061A
     0x061A [0x24] CREATE_DIALOG(message_id=7880*, default_option=0*, option_flags=0*)
    → "Buy $6? [Deal!/No deal.]"
     0x0621 [0x25] WAIT_DIALOG_SELECT()
     0x0622 [0x02] IF !(Work_Zone[0] == 0*) GOTO 0x0641
     0x062A [0x03] Work_Zone[1] = Work_Zone[2]
     0x062F [0x43] SEND_EVENT_UPDATE: Send pending tag to server (packet 0x005B)
     0x0631 [0x43] SEND_EVENT_UPDATE: Check pending flag (skip if not pending)
     0x0633 [0x02] IF !(Work_Zone[2] == 2046*) GOTO 0x063E
     0x063B [0x01] GOTO 0x0528
     0x063E [0x01] GOTO 0x0660
     0x0641 [0x02] IF !(Work_Zone[0] == 1*) GOTO 0x0660
     0x0649 [0x03] Work_Zone[1] = 11*
     0x064E [0x43] SEND_EVENT_UPDATE: Send pending tag to server (packet 0x005B)
     0x0650 [0x43] SEND_EVENT_UPDATE: Check pending flag (skip if not pending)
     0x0652 [0x02] IF !(Work_Zone[2] == 2046*) GOTO 0x065D
     0x065A [0x01] GOTO 0x0528
     0x065D [0x01] GOTO 0x0660
     0x0660 [0x01] GOTO 0x0187
     0x0663 [0x00] END_REQSTACK()
     0x0664 [0x5B] LOAD_EXT_SCHEDULER: Load scheduler "tlk1" with entities [Lootblox (ID: 17388036/0x01095204), Lootblox (ID: 17388036/0x01095204)], work=215*
     0x0673 [0x1D] PRINT_EVENT_MESSAGE(message_id=7584*)
    → "Did ya know that some items have their own soul? After passing through the hands of hundreds of people, not to mention the paws of us beastmen, some items are transformed through contact with all those thoughts and feelings."
     0x0676 [0x23] WAIT_FOR_DIALOG_INTERACTION
     0x0677 [0x1D] PRINT_EVENT_MESSAGE(message_id=7585*)
    → "These transformed items have the ability to focus mysterious powers. Us Goblins often come across this weird phenenom...phemomeno...stuff in our travels."
     0x067A [0x23] WAIT_FOR_DIALOG_INTERACTION
     0x067B [0x5B] LOAD_EXT_SCHEDULER: Load scheduler "tlk0" with entities [Lootblox (ID: 17388036/0x01095204), Lootblox (ID: 17388036/0x01095204)], work=215*
     0x068A [0x1D] PRINT_EVENT_MESSAGE(message_id=7586*)
    → "Ya know, if ya really want $6, I could sell one to ya for the right price."
     0x068D [0x23] WAIT_FOR_DIALOG_INTERACTION
     0x068E [0x1D] PRINT_EVENT_MESSAGE(message_id=7587*)
    → "But let me tell ya, kid. Only us Gobs can tell if an item is souled. Not even other beastmen--and definitely not you people--can tell the difference between normal junk and priceless artifacts."
     0x0691 [0x23] WAIT_FOR_DIALOG_INTERACTION
     0x0692 [0x1D] PRINT_EVENT_MESSAGE(message_id=7588*)
    → "Makes me laugh to see you mugs throwing away those items like they was garbage. A souled item is worth a fortune, and ya ain't gonna get one cheap."
     0x0695 [0x23] WAIT_FOR_DIALOG_INTERACTION
     0x0696 [0x1D] PRINT_EVENT_MESSAGE(message_id=7589*)
    → "$3 gil, and not a single gil less! Ya got a problem with that, kid?"
     0x0699 [0x23] WAIT_FOR_DIALOG_INTERACTION
     0x069A [0x1D] PRINT_EVENT_MESSAGE(message_id=7590*)
    → "So if ya want one, stop dawdlin' around already and hand me over some money."
     0x069D [0x23] WAIT_FOR_DIALOG_INTERACTION
     0x069E [0x1D] PRINT_EVENT_MESSAGE(message_id=7591*)
    → "What's that ya got there? $0!? Ya got unusual tastes for a person."
     0x06A1 [0x23] WAIT_FOR_DIALOG_INTERACTION
     0x06A2 [0x1D] PRINT_EVENT_MESSAGE(message_id=7592*)
    → "Got no clue what ya been doin' with it, but I bet ya gots no use for it anymore. What say I lighten your load in exchange for, say, $1 gil?"
     0x06A5 [0x23] WAIT_FOR_DIALOG_INTERACTION
     0x06A6 [0x1D] PRINT_EVENT_MESSAGE(message_id=7593*)
    → "So whaddaya waitin' for? Hand that $0 right over and let's make a deal."
     0x06A9 [0x23] WAIT_FOR_DIALOG_INTERACTION
     0x06AA [0x5E] EventEntity goes idle (kills current action) (animation: "idl0")
     0x06AF [0x1B] RETURN
     0x06B0 [0x1D] PRINT_EVENT_MESSAGE(message_id=7603*)
    → "After that little fracas, everyone started using gil as the standard coin, and the other types of money just faded out of existence. Even if you was to find any nowadays, they only have value to Goblin collectors like me."
     0x06B3 [0x23] WAIT_FOR_DIALOG_INTERACTION
     0x06B4 [0x1D] PRINT_EVENT_MESSAGE(message_id=7604*)
    → "You're looking a bit confused there, kid. Let me show ya what I'm talking about."
     0x06B7 [0x23] WAIT_FOR_DIALOG_INTERACTION
     0x06B8 [0x5B] LOAD_EXT_SCHEDULER: Load scheduler "pas0" with entities [Lootblox (ID: 17388036/0x01095204), Lootblox (ID: 17388036/0x01095204)], work=215*
     0x06C7 [0x93] DISPLAY_ITEM_INFO(item_id=ExtData[1]->WorkLocal[9])
     0x06CA [0x03] Work_Zone[9] = 1*
     0x06CF [0x1D] PRINT_EVENT_MESSAGE(message_id=7605*)
    → "This one's the least valuable of the lot. It was used as a part of the San d'Orian currency years ago. I know I told ya about the nations all having different currencies, but these San d'Orian coins are the only ones I'm interested in."
     0x06D2 [0x23] WAIT_FOR_DIALOG_INTERACTION
     0x06D3 [0x53] WAIT_SCHEDULER_TASK: Wait for scheduler "pas0" with entities [Lootblox (ID: 17388036/0x01095204), Lootblox (ID: 17388036/0x01095204)]
     0x06E0 [0x93] DISPLAY_ITEM_INFO(item_id=0*)
     0x06E3 [0x5B] LOAD_EXT_SCHEDULER: Load scheduler "tlk0" with entities [Lootblox (ID: 17388036/0x01095204), Lootblox (ID: 17388036/0x01095204)], work=215*
     0x06F2 [0x1D] PRINT_EVENT_MESSAGE(message_id=7606*)
    → "If ya bring me these coins, I'll exchange them for something from my secret stash of treasure. Ya won't be getting anything for just one of them, so make sure ya collect a bagful, okay?"
     0x06F5 [0x23] WAIT_FOR_DIALOG_INTERACTION
     0x06F6 [0x03] Work_Zone[2] = ExtData[1]->WorkLocal[6]
     0x06FB [0x03] Work_Zone[3] = ExtData[1]->WorkLocal[4]
     0x0700 [0x03] Work_Zone[4] = ExtData[1]->WorkLocal[7]
     0x0705 [0x5B] LOAD_EXT_SCHEDULER: Load scheduler "tlk1" with entities [Lootblox (ID: 17388036/0x01095204), Lootblox (ID: 17388036/0x01095204)], work=215*
     0x0714 [0x1D] PRINT_EVENT_MESSAGE(message_id=7607*)
    → "Let me explain the deal. Bring me $1 $0 , and I'll give ya one $2. Where're ya going? Let me finish, will ya?"
     0x0717 [0x23] WAIT_FOR_DIALOG_INTERACTION
     0x0718 [0x03] Work_Zone[2] = ExtData[1]->WorkLocal[7]
     0x071D [0x03] Work_Zone[3] = ExtData[1]->WorkLocal[5]
     0x0722 [0x03] Work_Zone[4] = ExtData[1]->WorkLocal[8]
     0x0727 [0x1D] PRINT_EVENT_MESSAGE(message_id=7608*)
    → "Once ya got $1 $0 , ya can trade them for one $2. Or, ya can decide to exchange them for something from my treasure stash. Each item's gonna cost ya a different amount, so choose carefully."
     0x072A [0x23] WAIT_FOR_DIALOG_INTERACTION
     0x072B [0x5B] LOAD_EXT_SCHEDULER: Load scheduler "tlk0" with entities [Lootblox (ID: 17388036/0x01095204), Lootblox (ID: 17388036/0x01095204)], work=215*
     0x073A [0x03] Work_Zone[1] = 10*
     0x073F [0x43] SEND_EVENT_UPDATE: Send pending tag to server (packet 0x005B)
     0x0741 [0x43] SEND_EVENT_UPDATE: Check pending flag (skip if not pending)
     0x0743 [0x1D] PRINT_EVENT_MESSAGE(message_id=7724*)
    → "Ya can also exchange a $0 for $2 $0$0 . Gonna take ya a while to find, kid. Hope you're patient."
     0x0746 [0x23] WAIT_FOR_DIALOG_INTERACTION
     0x0747 [0x5E] EventEntity goes idle (kills current action) (animation: "idl0")
     0x074C [0x1B] RETURN
```

### Event 138

#### Metadata

| Field        | Value    |
|--------------|----------|
| Entrypoint   | 0x074D   |
| Data Size    | 49 bytes |
| Instructions | 11       |

```
      00 01 02 03 04 05 06 07  08 09 0A 0B 0C 0D 0E 0F
      -- -- -- -- -- -- -- --  -- -- -- -- -- -- -- --
0740:                                         42 1E F0               B..
0750: FF FF 7F 03 01 10 16 80  43 00 43 01 1D 45 80 23  ........C.C..E.#
0760: 5B 00 80 04 52 09 01 04  52 09 01 70 61 73 30 53  [...R...R..pas0S
0770: 04 52 09 01 04 52 09 01  70 61 73 30 21 00        .R...R..pas0!.  
```

#### Opcodes

```
  0: 0x074D [0x42] SET_CLI_EVENT_CANCEL_DATA()
  1: 0x074E [0x1E] EventEntity looks at LocalPlayer and starts talking
  2: 0x0753 [0x03] Work_Zone[1] = 10*
  3: 0x0758 [0x43] SEND_EVENT_UPDATE: Send pending tag to server (packet 0x005B)
  4: 0x075A [0x43] SEND_EVENT_UPDATE: Check pending flag (skip if not pending)
  5: 0x075C [0x1D] PRINT_EVENT_MESSAGE(message_id=7726*)
    → "Here's ya $2 $0$0 , and I get ta pocket the $0."
  6: 0x075F [0x23] WAIT_FOR_DIALOG_INTERACTION
  7: 0x0760 [0x5B] LOAD_EXT_SCHEDULER: Load scheduler "pas0" with entities [Lootblox (ID: 17388036/0x01095204), Lootblox (ID: 17388036/0x01095204)], work=215*
  8: 0x076F [0x53] WAIT_SCHEDULER_TASK: Wait for scheduler "pas0" with entities [Lootblox (ID: 17388036/0x01095204), Lootblox (ID: 17388036/0x01095204)]
  9: 0x077C [0x21] END_EVENT
 10: 0x077D [0x00] END_REQSTACK()
```
