# 17388057

## Common Data

| Field            | Value           |
|------------------|-----------------|
| Zone             | Davoi (ID: 149) |
| Block Size       | 3320 bytes      |
| Total Events     | 4               |
| References Count | 65              |

## List of Events

| Event ID              | Entrypoint   |   Size |   Instructions |
|-----------------------|--------------|--------|----------------|
| [65535](#event-65535) | 0x0000       |    658 |             62 |
| [155](#event-155)     | 0x0292       |   1124 |            154 |
| [156](#event-156)     | 0x06F6       |   1100 |            157 |
| [157](#event-157)     | 0x0B42       |    143 |             23 |

## DAT References (imed_data)

|   Index | Hex Value   |   Dec Value |
|---------|-------------|-------------|
|       0 | 0x00C8      |         200 |
|       1 | 0x0000      |           0 |
|       2 | 0x00C9      |         201 |
|       3 | 0x0001      |           1 |
|       4 | 0x002D      |          45 |
|       5 | 0x0002      |           2 |
|       6 | 0x001E      |          30 |
|       7 | 0x00D7      |         215 |
|       8 | 0x1F51      |        8017 |
|       9 | 0x012C      |         300 |
|      10 | 0x0093      |         147 |
|      11 | 0x9682      |       38530 |
|      12 | 0xFFFFB31C  |  4294947612 |
|      13 | 0x08B7      |        2231 |
|      14 | 0x8C1A      |       35866 |
|      15 | 0xFFFFB78B  |  4294948747 |
|      16 | 0xFFFFFFD2  |  4294967250 |
|      17 | 0x014D      |         333 |
|      18 | 0x001B      |          27 |
|      19 | 0x0073      |         115 |
|      20 | 0x0066      |         102 |
|      21 | 0x007F      |         127 |
|      22 | 0x034A      |         842 |
|      23 | 0x1F52      |        8018 |
|      24 | 0x0005      |           5 |
|      25 | 0x0006      |           6 |
|      26 | 0x1F53      |        8019 |
|      27 | 0x1F54      |        8020 |
|      28 | 0x1F55      |        8021 |
|      29 | 0x1F56      |        8022 |
|      30 | 0x0003      |           3 |
|      31 | 0x0008      |           8 |
|      32 | 0x1F57      |        8023 |
|      33 | 0x0007      |           7 |
|      34 | 0x1F58      |        8024 |
|      35 | 0x1F59      |        8025 |
|      36 | 0x1F5A      |        8026 |
|      37 | 0x1F5B      |        8027 |
|      38 | 0x000F      |          15 |
|      39 | 0x1F5F      |        8031 |
|      40 | 0x91B2      |       37298 |
|      41 | 0xFFFFB538  |  4294948152 |
|      42 | 0x0907      |        2311 |
|      43 | 0x9363      |       37731 |
|      44 | 0xFFFFB315  |  4294947605 |
|      45 | 0x0901      |        2305 |
|      46 | 0x0019      |          25 |
|      47 | 0x0CB6      |        3254 |
|      48 | 0x1F60      |        8032 |
|      49 | 0x0014      |          20 |
|      50 | 0x000A      |          10 |
|      51 | 0xFFFFFC00  |  4294966272 |
|      52 | 0x005A      |          90 |
|      53 | 0x1F61      |        8033 |
|      54 | 0x1F62      |        8034 |
|      55 | 0x1F63      |        8035 |
|      56 | 0x1F64      |        8036 |
|      57 | 0x1F65      |        8037 |
|      58 | 0x00C6      |         198 |
|      59 | 0x001D      |          29 |
|      60 | 0x1F5C      |        8028 |
|      61 | 0x1F5D      |        8029 |
|      62 | 0x1F5E      |        8030 |
|      63 | 0x1F66      |        8038 |
|      64 | 0x1F67      |        8039 |

## String References

- **8032**: You hand over the $3.

## Events

### Event 65535

#### Metadata

| Field        | Value     |
|--------------|-----------|
| Entrypoint   | 0x0000    |
| Data Size    | 658 bytes |
| Instructions | 1         |

```
      00 01 02 03 04 05 06 07  08 09 0A 0B 0C 0D 0E 0F
      -- -- -- -- -- -- -- --  -- -- -- -- -- -- -- --
0000: 00 45 00 80 F0 FF FF 7F  F0 FF FF 7F 66 64 69 30  .E..........fdi0
0010: 01 80 55 00 80 F0 FF FF  7F F0 FF FF 7F 66 64 69  ..U..........fdi
0020: 30 1B 45 00 80 F0 FF FF  7F F0 FF FF 7F 66 64 6F  0.E..........fdo
0030: 30 01 80 55 00 80 F0 FF  FF 7F F0 FF FF 7F 66 64  0..U..........fd
0040: 6F 30 1B 45 00 80 F0 FF  FF 7F F0 FF FF 7F 66 64  o0.E..........fd
0050: 69 31 01 80 55 00 80 F0  FF FF 7F F0 FF FF 7F 66  i1..U..........f
0060: 64 69 31 1B 45 00 80 F0  FF FF 7F F0 FF FF 7F 66  di1.E..........f
0070: 64 6F 31 01 80 55 00 80  F0 FF FF 7F F0 FF FF 7F  do1..U..........
0080: 66 64 6F 31 1B 45 02 80  F0 FF FF 7F F0 FF FF 7F  fdo1.E..........
0090: 77 68 69 31 01 80 55 02  80 F0 FF FF 7F F0 FF FF  whi1..U.........
00A0: 7F 77 68 69 31 1B 45 02  80 F0 FF FF 7F F0 FF FF  .whi1.E.........
00B0: 7F 77 68 6F 31 01 80 55  02 80 F0 FF FF 7F F0 FF  .who1..U........
00C0: FF 7F 77 68 6F 31 1B 45  02 80 F0 FF FF 7F F0 FF  ..who1.E........
00D0: FF 7F 77 68 6F 32 01 80  55 02 80 F0 FF FF 7F F0  ..who2..U.......
00E0: FF FF 7F 77 68 6F 32 1B  45 02 80 F0 FF FF 7F F0  ...who2.E.......
00F0: FF FF 7F 77 68 6F 33 01  80 55 02 80 F0 FF FF 7F  ...who3..U......
0100: F0 FF FF 7F 77 68 6F 33  1B 62 03 80 F0 FF FF 7F  ....who3.b......
0110: F0 FF FF 7F 6D 61 69 6E  01 80 1C 04 80 45 00 80  ....main.....E..
0120: F0 FF FF 7F F0 FF FF 7F  66 64 6F 31 01 80 55 00  ........fdo1..U.
0130: 80 F0 FF FF 7F F0 FF FF  7F 66 64 6F 31 1B 45 00  .........fdo1.E.
0140: 80 F0 FF FF 7F F0 FF FF  7F 66 64 69 31 01 80 62  .........fdi1..b
0150: 05 80 F0 FF FF 7F F0 FF  FF 7F 6D 61 69 6E 01 80  ..........main..
0160: 1C 06 80 55 00 80 F0 FF  FF 7F F0 FF FF 7F 66 64  ...U..........fd
0170: 69 31 1B 45 00 80 F0 FF  FF 7F F0 FF FF 7F 62 6C  i1.E..........bl
0180: 6F 6E 01 80 45 02 80 F0  FF FF 7F F0 FF FF 7F 62  on..E..........b
0190: 6C 6F 6E 01 80 1B 45 02  80 F0 FF FF 7F F0 FF FF  lon...E.........
01A0: 7F 77 68 69 30 01 80 55  02 80 F0 FF FF 7F F0 FF  .whi0..U........
01B0: FF 7F 77 68 69 30 1B 45  02 80 F0 FF FF 7F F0 FF  ..whi0.E........
01C0: FF 7F 77 68 6F 30 01 80  55 02 80 F0 FF FF 7F F0  ..who0..U.......
01D0: FF FF 7F 77 68 6F 30 1B  45 07 80 F0 FF FF 7F F0  ...who0.E.......
01E0: FF FF 7F 65 66 6F 6E 01  80 55 07 80 F0 FF FF 7F  ...efon..U......
01F0: F0 FF FF 7F 65 66 6F 6E  1B 45 00 80 F0 FF FF 7F  ....efon.E......
0200: F0 FF FF 7F 66 64 69 73  01 80 1B 45 00 80 F0 FF  ....fdis...E....
0210: FF 7F F0 FF FF 7F 66 64  6F 73 01 80 55 00 80 F0  ......fdos..U...
0220: FF FF 7F F0 FF FF 7F 66  64 6F 73 1B 45 00 80 F0  .......fdos.E...
0230: FF FF 7F F0 FF FF 7F 66  64 69 66 01 80 1B 45 00  .......fdif...E.
0240: 80 F0 FF FF 7F F0 FF FF  7F 66 64 6F 66 01 80 55  .........fdof..U
0250: 00 80 F0 FF FF 7F F0 FF  FF 7F 66 64 6F 66 1B 45  ..........fdof.E
0260: 00 80 F0 FF FF 7F F0 FF  FF 7F 66 64 69 70 01 80  ..........fdip..
0270: 1B 45 00 80 F0 FF FF 7F  F0 FF FF 7F 66 64 6F 70  .E..........fdop
0280: 01 80 55 00 80 F0 FF FF  7F F0 FF FF 7F 66 64 6F  ..U..........fdo
0290: 70 1B                                             p.              
```

#### Opcodes

```
  0: 0x0000 [0x00] END_REQSTACK()
```

#### Data or dead code:

```
# Dead code (unreachable instructions):
     0x0001 [0x45] LOAD_SCHEDULED_TASK: Load scheduler "fdi0" with entities [LocalPlayer, LocalPlayer], work=[200*, 0*]
     0x0012 [0x55] WAIT_LOAD_SCHEDULER: Wait for scheduler "fdi0" with entities [LocalPlayer, LocalPlayer], work=200*
     0x0021 [0x1B] RETURN
     0x0022 [0x45] LOAD_SCHEDULED_TASK: Load scheduler "fdo0" with entities [LocalPlayer, LocalPlayer], work=[200*, 0*]
     0x0033 [0x55] WAIT_LOAD_SCHEDULER: Wait for scheduler "fdo0" with entities [LocalPlayer, LocalPlayer], work=200*
     0x0042 [0x1B] RETURN
     0x0043 [0x45] LOAD_SCHEDULED_TASK: Load scheduler "fdi1" with entities [LocalPlayer, LocalPlayer], work=[200*, 0*]
     0x0054 [0x55] WAIT_LOAD_SCHEDULER: Wait for scheduler "fdi1" with entities [LocalPlayer, LocalPlayer], work=200*
     0x0063 [0x1B] RETURN
     0x0064 [0x45] LOAD_SCHEDULED_TASK: Load scheduler "fdo1" with entities [LocalPlayer, LocalPlayer], work=[200*, 0*]
     0x0075 [0x55] WAIT_LOAD_SCHEDULER: Wait for scheduler "fdo1" with entities [LocalPlayer, LocalPlayer], work=200*
     0x0084 [0x1B] RETURN
     0x0085 [0x45] LOAD_SCHEDULED_TASK: Load scheduler "whi1" with entities [LocalPlayer, LocalPlayer], work=[201*, 0*]
     0x0096 [0x55] WAIT_LOAD_SCHEDULER: Wait for scheduler "whi1" with entities [LocalPlayer, LocalPlayer], work=201*
     0x00A5 [0x1B] RETURN
     0x00A6 [0x45] LOAD_SCHEDULED_TASK: Load scheduler "who1" with entities [LocalPlayer, LocalPlayer], work=[201*, 0*]
     0x00B7 [0x55] WAIT_LOAD_SCHEDULER: Wait for scheduler "who1" with entities [LocalPlayer, LocalPlayer], work=201*
     0x00C6 [0x1B] RETURN
     0x00C7 [0x45] LOAD_SCHEDULED_TASK: Load scheduler "who2" with entities [LocalPlayer, LocalPlayer], work=[201*, 0*]
     0x00D8 [0x55] WAIT_LOAD_SCHEDULER: Wait for scheduler "who2" with entities [LocalPlayer, LocalPlayer], work=201*
     0x00E7 [0x1B] RETURN
     0x00E8 [0x45] LOAD_SCHEDULED_TASK: Load scheduler "who3" with entities [LocalPlayer, LocalPlayer], work=[201*, 0*]
     0x00F9 [0x55] WAIT_LOAD_SCHEDULER: Wait for scheduler "who3" with entities [LocalPlayer, LocalPlayer], work=201*
     0x0108 [0x1B] RETURN
     0x0109 [0x62] LOAD_EVENT_SCHEDULER: Load scheduler "main" with entities [LocalPlayer, LocalPlayer], work=[1*, 0*]
     0x011A [0x1C] WAIT(45* ticks)
     0x011D [0x45] LOAD_SCHEDULED_TASK: Load scheduler "fdo1" with entities [LocalPlayer, LocalPlayer], work=[200*, 0*]
     0x012E [0x55] WAIT_LOAD_SCHEDULER: Wait for scheduler "fdo1" with entities [LocalPlayer, LocalPlayer], work=200*
     0x013D [0x1B] RETURN
     0x013E [0x45] LOAD_SCHEDULED_TASK: Load scheduler "fdi1" with entities [LocalPlayer, LocalPlayer], work=[200*, 0*]
     0x014F [0x62] LOAD_EVENT_SCHEDULER: Load scheduler "main" with entities [LocalPlayer, LocalPlayer], work=[2*, 0*]
     0x0160 [0x1C] WAIT(30* ticks)
     0x0163 [0x55] WAIT_LOAD_SCHEDULER: Wait for scheduler "fdi1" with entities [LocalPlayer, LocalPlayer], work=200*
     0x0172 [0x1B] RETURN
     0x0173 [0x45] LOAD_SCHEDULED_TASK: Load scheduler "blon" with entities [LocalPlayer, LocalPlayer], work=[200*, 0*]
     0x0184 [0x45] LOAD_SCHEDULED_TASK: Load scheduler "blon" with entities [LocalPlayer, LocalPlayer], work=[201*, 0*]
     0x0195 [0x1B] RETURN
     0x0196 [0x45] LOAD_SCHEDULED_TASK: Load scheduler "whi0" with entities [LocalPlayer, LocalPlayer], work=[201*, 0*]
     0x01A7 [0x55] WAIT_LOAD_SCHEDULER: Wait for scheduler "whi0" with entities [LocalPlayer, LocalPlayer], work=201*
     0x01B6 [0x1B] RETURN
     0x01B7 [0x45] LOAD_SCHEDULED_TASK: Load scheduler "who0" with entities [LocalPlayer, LocalPlayer], work=[201*, 0*]
     0x01C8 [0x55] WAIT_LOAD_SCHEDULER: Wait for scheduler "who0" with entities [LocalPlayer, LocalPlayer], work=201*
     0x01D7 [0x1B] RETURN
     0x01D8 [0x45] LOAD_SCHEDULED_TASK: Load scheduler "efon" with entities [LocalPlayer, LocalPlayer], work=[215*, 0*]
     0x01E9 [0x55] WAIT_LOAD_SCHEDULER: Wait for scheduler "efon" with entities [LocalPlayer, LocalPlayer], work=215*
     0x01F8 [0x1B] RETURN
     0x01F9 [0x45] LOAD_SCHEDULED_TASK: Load scheduler "fdis" with entities [LocalPlayer, LocalPlayer], work=[200*, 0*]
     0x020A [0x1B] RETURN
     0x020B [0x45] LOAD_SCHEDULED_TASK: Load scheduler "fdos" with entities [LocalPlayer, LocalPlayer], work=[200*, 0*]
     0x021C [0x55] WAIT_LOAD_SCHEDULER: Wait for scheduler "fdos" with entities [LocalPlayer, LocalPlayer], work=200*
     0x022B [0x1B] RETURN
     0x022C [0x45] LOAD_SCHEDULED_TASK: Load scheduler "fdif" with entities [LocalPlayer, LocalPlayer], work=[200*, 0*]
     0x023D [0x1B] RETURN
     0x023E [0x45] LOAD_SCHEDULED_TASK: Load scheduler "fdof" with entities [LocalPlayer, LocalPlayer], work=[200*, 0*]
     0x024F [0x55] WAIT_LOAD_SCHEDULER: Wait for scheduler "fdof" with entities [LocalPlayer, LocalPlayer], work=200*
     0x025E [0x1B] RETURN
     0x025F [0x45] LOAD_SCHEDULED_TASK: Load scheduler "fdip" with entities [LocalPlayer, LocalPlayer], work=[200*, 0*]
     0x0270 [0x1B] RETURN
     0x0271 [0x45] LOAD_SCHEDULED_TASK: Load scheduler "fdop" with entities [LocalPlayer, LocalPlayer], work=[200*, 0*]
     0x0282 [0x55] WAIT_LOAD_SCHEDULER: Wait for scheduler "fdop" with entities [LocalPlayer, LocalPlayer], work=200*
     0x0291 [0x1B] RETURN
```

### Event 155

#### Metadata

| Field        | Value      |
|--------------|------------|
| Entrypoint   | 0x0292     |
| Data Size    | 1124 bytes |
| Instructions | 154        |

```
      00 01 02 03 04 05 06 07  08 09 0A 0B 0C 0D 0E 0F
      -- -- -- -- -- -- -- --  -- -- -- -- -- -- -- --
0290:       42 4A D7 51 09 01  F0 FF FF 7F 2B D7 51 09    BJ.Q......+.Q.
02A0: 01 08 80 23 6F 76 D7 51  09 01 5D 01 80 09 80 1A  ...#ov.Q..].....
02B0: 64 00 46 01 38 0A 80 92  01 D7 51 09 01 94 01 D7  d.F.8.....Q.....
02C0: 51 09 01 94 01 F0 FF FF  7F BA F0 FF FF 7F 0B 80  Q...............
02D0: 0C 80 01 80 0D 80 BA D7  51 09 01 0E 80 0F 80 10  ........Q.......
02E0: 80 11 80 80 D7 51 09 01  80 F0 FF FF 7F 29 0F D7  .....Q.......)..
02F0: 51 09 01 29 5C 00 12 80  5C 01 12 80 5C 02 13 80  Q..)\...\...\...
0300: 5C 03 14 80 9A 5D 15 80  03 80 4A D7 51 09 01 F0  \....]....J.Q...
0310: FF FF 7F 4A F0 FF FF 7F  D7 51 09 01 6F 76 D7 51  ...J.....Q..ov.Q
0320: 09 01 6F 76 F0 FF FF 7F  29 08 F0 FF FF 7F 11 27  ..ov....)......'
0330: 0F F0 FF FF 7F 17 45 16  80 F8 FF FF 7F F8 FF FF  ......E.........
0340: 7F 73 30 30 30 01 80 1A  43 00 2A 0F F0 FF FF 7F  .s000...C.*.....
0350: 29 0F D7 51 09 01 0B 2B  D7 51 09 01 17 80 1C 06  )..Q...+.Q......
0360: 80 52 16 80 F8 FF FF 7F  F8 FF FF 7F 73 30 30 30  .R..........s000
0370: 45 16 80 F8 FF FF 7F F8  FF FF 7F 73 30 30 31 01  E..........s001.
0380: 80 23 52 16 80 F8 FF FF  7F F8 FF FF 7F 73 30 30  .#R..........s00
0390: 31 02 09 10 18 80 00 AD  03 45 16 80 F8 FF FF 7F  1........E......
03A0: F8 FF FF 7F 73 30 30 36  01 80 01 DA 03 02 09 10  ....s006........
03B0: 19 80 00 C9 03 45 16 80  F8 FF FF 7F F8 FF FF 7F  .....E..........
03C0: 73 30 30 36 01 80 01 DA  03 45 16 80 F8 FF FF 7F  s006.....E......
03D0: F8 FF FF 7F 73 30 30 34  01 80 2B D7 51 09 01 1A  ....s004..+.Q...
03E0: 80 23 2B D7 51 09 01 1B  80 23 29 0F D7 51 09 01  .#+.Q....#)..Q..
03F0: 0C 02 09 10 18 80 00 0B  04 52 16 80 F8 FF FF 7F  .........R......
0400: F8 FF FF 7F 73 30 30 36  01 34 04 02 09 10 19 80  ....s006.4......
0410: 00 25 04 52 16 80 F8 FF  FF 7F F8 FF FF 7F 73 30  .%.R..........s0
0420: 30 36 01 34 04 52 16 80  F8 FF FF 7F F8 FF FF 7F  06.4.R..........
0430: 73 30 30 34 45 16 80 F8  FF FF 7F F8 FF FF 7F 73  s004E..........s
0440: 30 30 32 01 80 2B D7 51  09 01 1C 80 29 0F D7 51  002..+.Q....)..Q
0450: 09 01 0D 29 0F D7 51 09  01 0E 7B D7 51 09 01 29  ...)..Q...{.Q..)
0460: 0F D7 51 09 01 0F 23 2B  D7 51 09 01 1D 80 23 29  ..Q...#+.Q....#)
0470: 0F D7 51 09 01 10 52 16  80 F8 FF FF 7F F8 FF FF  ..Q...R.........
0480: 7F 73 30 30 32 02 09 10  1E 80 00 A1 04 45 16 80  .s002........E..
0490: F8 FF FF 7F F8 FF FF 7F  73 30 30 33 01 80 01 CE  ........s003....
04A0: 04 02 09 10 1F 80 00 BD  04 45 16 80 F8 FF FF 7F  .........E......
04B0: F8 FF FF 7F 73 30 30 33  01 80 01 CE 04 45 16 80  ....s003.....E..
04C0: F8 FF FF 7F F8 FF FF 7F  73 30 30 37 01 80 79 00  ........s007..y.
04D0: D7 51 09 01 F0 FF FF 7F  2B D7 51 09 01 20 80 23  .Q......+.Q.. .#
04E0: 29 0F D7 51 09 01 11 02  09 10 1E 80 00 01 05 52  )..Q...........R
04F0: 16 80 F8 FF FF 7F F8 FF  FF 7F 73 30 30 33 01 2A  ..........s003.*
0500: 05 02 09 10 1F 80 00 1B  05 52 16 80 F8 FF FF 7F  .........R......
0510: F8 FF FF 7F 73 30 30 33  01 2A 05 52 16 80 F8 FF  ....s003.*.R....
0520: FF 7F F8 FF FF 7F 73 30  30 37 02 09 10 05 80 00  ......s007......
0530: 46 05 45 16 80 F8 FF FF  7F F8 FF FF 7F 73 30 30  F.E..........s00
0540: 38 01 80 01 AB 05 02 09  10 18 80 00 62 05 45 16  8...........b.E.
0550: 80 F8 FF FF 7F F8 FF FF  7F 73 30 30 36 01 80 01  .........s006...
0560: AB 05 02 09 10 19 80 00  7E 05 45 16 80 F8 FF FF  ........~.E.....
0570: 7F F8 FF FF 7F 73 30 30  36 01 80 01 AB 05 02 09  .....s006.......
0580: 10 21 80 00 9A 05 45 16  80 F8 FF FF 7F F8 FF FF  .!....E.........
0590: 7F 73 30 30 38 01 80 01  AB 05 45 16 80 F8 FF FF  .s008.....E.....
05A0: 7F F8 FF FF 7F 73 30 30  34 01 80 29 0F D7 51 09  .....s004..)..Q.
05B0: 01 12 29 0F D7 51 09 01  15 2B D7 51 09 01 22 80  ..)..Q...+.Q..".
05C0: 23 29 0F D7 51 09 01 16  29 0F D7 51 09 01 17 2B  #)..Q...)..Q...+
05D0: D7 51 09 01 23 80 23 29  0F D7 51 09 01 18 02 09  .Q..#.#)..Q.....
05E0: 10 05 80 00 F8 05 52 16  80 F8 FF FF 7F F8 FF FF  ......R.........
05F0: 7F 73 30 30 38 01 55 06  02 09 10 18 80 00 12 06  .s008.U.........
0600: 52 16 80 F8 FF FF 7F F8  FF FF 7F 73 30 30 36 01  R..........s006.
0610: 55 06 02 09 10 19 80 00  2C 06 52 16 80 F8 FF FF  U.......,.R.....
0620: 7F F8 FF FF 7F 73 30 30  36 01 55 06 02 09 10 21  .....s006.U....!
0630: 80 00 46 06 52 16 80 F8  FF FF 7F F8 FF FF 7F 73  ..F.R..........s
0640: 30 30 38 01 55 06 52 16  80 F8 FF FF 7F F8 FF FF  008.U.R.........
0650: 7F 73 30 30 34 45 16 80  F8 FF FF 7F F8 FF FF 7F  .s004E..........
0660: 73 30 30 35 01 80 29 0F  D7 51 09 01 0B 2B D7 51  s005..)..Q...+.Q
0670: 09 01 24 80 23 29 0F D7  51 09 01 0C 2B D7 51 09  ..$.#)..Q...+.Q.
0680: 01 25 80 29 0F D7 51 09  01 0D 29 0F D7 51 09 01  .%.)..Q...)..Q..
0690: 0E 29 0F D7 51 09 01 19  23 5D 01 80 09 80 1A 64  .)..Q...#].....d
06A0: 00 29 0F D7 51 09 01 1A  52 16 80 F8 FF FF 7F F8  .)..Q...R.......
06B0: FF FF 7F 73 30 30 35 29  0F D7 51 09 01 2A 1C 05  ...s005)..Q..*..
06C0: 80 5C 00 01 80 5C 01 01  80 5C 02 13 80 5C 03 14  .\...\...\...\..
06D0: 80 9A 5D 15 80 03 80 1C  26 80 AB 11 01 80 1C 03  ..].....&.......
06E0: 80 46 00 45 00 80 F8 FF  FF 7F F8 FF FF 7F 66 64  .F.E..........fd
06F0: 69 32 01 80 21 00                                 i2..!.          
```

#### Opcodes

```
  0: 0x0292 [0x42] SET_CLI_EVENT_CANCEL_DATA()
  1: 0x0293 [0x4A] Quemaricond (ID: 17387991/0x010951D7) looks at LocalPlayer
  2: 0x029C [0x2B] Quemaricond (ID: 17387991/0x010951D7) [8017*]:
    → "What's this? You have a message for me?"
  3: 0x02A3 [0x23] WAIT_FOR_DIALOG_INTERACTION
  4: 0x02A4 [0x6F] WAIT_FRAME_DELAY: Yield until WaitTime reaches zero
  5: 0x02A5 [0x76] CHECK_ENTITY_RENDER_FLAGS: Wait until Quemaricond (ID: 17387991/0x010951D7) Render.Flags0 and Render.Flags3 conditions are met
  6: 0x02AA [0x5D] SET_MUSIC_VOLUME(volume=0*, fade_time=300*)
  7: 0x02AF [0x1A] CALL_SUBROUTINE(address=0x0064)
  8: 0x02B2 [0x46] CAMERA_CONTROL: Disable user control
  9: 0x02B4 [0x38] SET_CLIENT_EVENT_MODE(mode=147*)
 10: 0x02B7 [0x92] Quemaricond (ID: 17387991/0x010951D7)->Render.Flags3 ^= 0x01
 11: 0x02BD [0x94] Quemaricond (ID: 17387991/0x010951D7)->Render.Flags3 ^= 0x01
 12: 0x02C3 [0x94] LocalPlayer->Render.Flags3 ^= 0x01
 13: 0x02C9 [0xBA] SET_ENTITY_POSITION(entity_id=LocalPlayer, pos_x=38.530*, pos_z=-19.684*, pos_y=0.000*, direction=196.1°*)
 14: 0x02D6 [0xBA] SET_ENTITY_POSITION(entity_id=Quemaricond (ID: 17387991/0x010951D7), pos_x=35.866*, pos_z=-18.549*, pos_y=-0.046*, direction=29.3°*)
 15: 0x02E3 [0x80] LOAD_WAIT(entity=Quemaricond (ID: 17387991/0x010951D7))
 16: 0x02E8 [0x80] LOAD_WAIT(entity=LocalPlayer)
 17: 0x02ED [0x29] REQ_SET_WAIT(priority=0x0F, entity_id=Quemaricond (ID: 17387991/0x010951D7), tag_num=0x29)
 18: 0x02F4 [0x5C] MUSIC_CONTROL: Set Idle (Day) music to song 27*
 19: 0x02F8 [0x5C] MUSIC_CONTROL: Set Idle (Night) music to song 27*
 20: 0x02FC [0x5C] MUSIC_CONTROL: Set Combat (Solo) music to song 115*
 21: 0x0300 [0x5C] MUSIC_CONTROL: Set Combat (Party) music to song 102*
 22: 0x0304 [0x9A] WAIT_MUSIC_SERVER()
 23: 0x0305 [0x5D] SET_MUSIC_VOLUME(volume=127*, fade_time=1*)
 24: 0x030A [0x4A] Quemaricond (ID: 17387991/0x010951D7) looks at LocalPlayer
 25: 0x0313 [0x4A] LocalPlayer looks at Quemaricond (ID: 17387991/0x010951D7)
 26: 0x031C [0x6F] WAIT_FRAME_DELAY: Yield until WaitTime reaches zero
 27: 0x031D [0x76] CHECK_ENTITY_RENDER_FLAGS: Wait until Quemaricond (ID: 17387991/0x010951D7) Render.Flags0 and Render.Flags3 conditions are met
 28: 0x0322 [0x6F] WAIT_FRAME_DELAY: Yield until WaitTime reaches zero
 29: 0x0323 [0x76] CHECK_ENTITY_RENDER_FLAGS: Wait until LocalPlayer Render.Flags0 and Render.Flags3 conditions are met
 30: 0x0328 [0x29] REQ_SET_WAIT(priority=0x08, entity_id=LocalPlayer, tag_num=0x11)
 31: 0x032F [0x27] REQ_SET(priority=0x0F, entity_id=LocalPlayer, tag_num=0x17)
 32: 0x0336 [0x45] LOAD_SCHEDULED_TASK: Load scheduler "s000" with entities [EventEntity, EventEntity], work=[842*, 0*]
 33: 0x0347 [0x1A] CALL_SUBROUTINE(address=0x0043)
 34: 0x034A [0x2A] GET_REQ_LEVEL(level=15, entity_id=LocalPlayer)
 35: 0x0350 [0x29] REQ_SET_WAIT(priority=0x0F, entity_id=Quemaricond (ID: 17387991/0x010951D7), tag_num=0x0B)
 36: 0x0357 [0x2B] Quemaricond (ID: 17387991/0x010951D7) [8018*]:
    → "What!? Captain Rahal has ordered you to deliver my report to him!? Wh-what should I do!?"
 37: 0x035E [0x1C] WAIT(30* ticks)
 38: 0x0361 [0x52] END_LOAD_SCHEDULER: End scheduler "s000" with entities [EventEntity, EventEntity], work=842*
 39: 0x0370 [0x45] LOAD_SCHEDULED_TASK: Load scheduler "s001" with entities [EventEntity, EventEntity], work=[842*, 0*]
 40: 0x0381 [0x23] WAIT_FOR_DIALOG_INTERACTION
 41: 0x0382 [0x52] END_LOAD_SCHEDULER: End scheduler "s001" with entities [EventEntity, EventEntity], work=842*
 42: 0x0391 [0x02] IF !(Work_Zone[9] == 5*) GOTO 0x03AD
 43: 0x0399 [0x45] LOAD_SCHEDULED_TASK: Load scheduler "s006" with entities [EventEntity, EventEntity], work=[842*, 0*]
 44: 0x03AA [0x01] GOTO 0x03DA
 45: 0x03AD [0x02] IF !(Work_Zone[9] == 6*) GOTO 0x03C9
 46: 0x03B5 [0x45] LOAD_SCHEDULED_TASK: Load scheduler "s006" with entities [EventEntity, EventEntity], work=[842*, 0*]
 47: 0x03C6 [0x01] GOTO 0x03DA
 48: 0x03C9 [0x45] LOAD_SCHEDULED_TASK: Load scheduler "s004" with entities [EventEntity, EventEntity], work=[842*, 0*]

SUBROUTINE_03DA:
 49: 0x03DA [0x2B] Quemaricond (ID: 17387991/0x010951D7) [8019*]:
    → "You see, messengers that I believe come from the Orcish empire in northern Quon have been turning up here quite often."
 50: 0x03E1 [0x23] WAIT_FOR_DIALOG_INTERACTION
 51: 0x03E2 [0x2B] Quemaricond (ID: 17387991/0x010951D7) [8020*]:
    → "I managed to listen in on their conversations, but I haven't been able to piece together the full extent of their plan just yet."
 52: 0x03E9 [0x23] WAIT_FOR_DIALOG_INTERACTION
 53: 0x03EA [0x29] REQ_SET_WAIT(priority=0x0F, entity_id=Quemaricond (ID: 17387991/0x010951D7), tag_num=0x0C)
 54: 0x03F1 [0x02] IF !(Work_Zone[9] == 5*) GOTO 0x040B
 55: 0x03F9 [0x52] END_LOAD_SCHEDULER: End scheduler "s006" with entities [EventEntity, EventEntity], work=842*
 56: 0x0408 [0x01] GOTO 0x0434
 57: 0x040B [0x02] IF !(Work_Zone[9] == 6*) GOTO 0x0425
 58: 0x0413 [0x52] END_LOAD_SCHEDULER: End scheduler "s006" with entities [EventEntity, EventEntity], work=842*
 59: 0x0422 [0x01] GOTO 0x0434
 60: 0x0425 [0x52] END_LOAD_SCHEDULER: End scheduler "s004" with entities [EventEntity, EventEntity], work=842*

SUBROUTINE_0434:
 61: 0x0434 [0x45] LOAD_SCHEDULED_TASK: Load scheduler "s002" with entities [EventEntity, EventEntity], work=[842*, 0*]
 62: 0x0445 [0x2B] Quemaricond (ID: 17387991/0x010951D7) [8021*]:
    → "From what I can gather, they appear to be collecting information about a special "egg" and that it lies somewhere within Quon's borders."
 63: 0x044C [0x29] REQ_SET_WAIT(priority=0x0F, entity_id=Quemaricond (ID: 17387991/0x010951D7), tag_num=0x0D)
 64: 0x0453 [0x29] REQ_SET_WAIT(priority=0x0F, entity_id=Quemaricond (ID: 17387991/0x010951D7), tag_num=0x0E)
 65: 0x045A [0x7B] Quemaricond (ID: 17387991/0x010951D7) stops talking
 66: 0x045F [0x29] REQ_SET_WAIT(priority=0x0F, entity_id=Quemaricond (ID: 17387991/0x010951D7), tag_num=0x0F)
 67: 0x0466 [0x23] WAIT_FOR_DIALOG_INTERACTION
 68: 0x0467 [0x2B] Quemaricond (ID: 17387991/0x010951D7) [8022*]:
    → "Unfortunately, I haven't uncovered anything regarding their motives. So you see, until I can get more intel, I really don't have much to report."
 69: 0x046E [0x23] WAIT_FOR_DIALOG_INTERACTION
 70: 0x046F [0x29] REQ_SET_WAIT(priority=0x0F, entity_id=Quemaricond (ID: 17387991/0x010951D7), tag_num=0x10)
 71: 0x0476 [0x52] END_LOAD_SCHEDULER: End scheduler "s002" with entities [EventEntity, EventEntity], work=842*
 72: 0x0485 [0x02] IF !(Work_Zone[9] == 3*) GOTO 0x04A1
 73: 0x048D [0x45] LOAD_SCHEDULED_TASK: Load scheduler "s003" with entities [EventEntity, EventEntity], work=[842*, 0*]
 74: 0x049E [0x01] GOTO 0x04CE
 75: 0x04A1 [0x02] IF !(Work_Zone[9] == 8*) GOTO 0x04BD
 76: 0x04A9 [0x45] LOAD_SCHEDULED_TASK: Load scheduler "s003" with entities [EventEntity, EventEntity], work=[842*, 0*]
 77: 0x04BA [0x01] GOTO 0x04CE
 78: 0x04BD [0x45] LOAD_SCHEDULED_TASK: Load scheduler "s007" with entities [EventEntity, EventEntity], work=[842*, 0*]

SUBROUTINE_04CE:
 79: 0x04CE [0x79] Quemaricond (ID: 17387991/0x010951D7) looks at LocalPlayer (Basic look)
 80: 0x04D8 [0x2B] Quemaricond (ID: 17387991/0x010951D7) [8023*]:
    → "What should I do? If only I could steal a "map or something like that" from one of the messengers when they arrived..."
 81: 0x04DF [0x23] WAIT_FOR_DIALOG_INTERACTION
 82: 0x04E0 [0x29] REQ_SET_WAIT(priority=0x0F, entity_id=Quemaricond (ID: 17387991/0x010951D7), tag_num=0x11)
 83: 0x04E7 [0x02] IF !(Work_Zone[9] == 3*) GOTO 0x0501
 84: 0x04EF [0x52] END_LOAD_SCHEDULER: End scheduler "s003" with entities [EventEntity, EventEntity], work=842*
 85: 0x04FE [0x01] GOTO 0x052A
 86: 0x0501 [0x02] IF !(Work_Zone[9] == 8*) GOTO 0x051B
 87: 0x0509 [0x52] END_LOAD_SCHEDULER: End scheduler "s003" with entities [EventEntity, EventEntity], work=842*
 88: 0x0518 [0x01] GOTO 0x052A
 89: 0x051B [0x52] END_LOAD_SCHEDULER: End scheduler "s007" with entities [EventEntity, EventEntity], work=842*

SUBROUTINE_052A:
 90: 0x052A [0x02] IF !(Work_Zone[9] == 2*) GOTO 0x0546
 91: 0x0532 [0x45] LOAD_SCHEDULED_TASK: Load scheduler "s008" with entities [EventEntity, EventEntity], work=[842*, 0*]
 92: 0x0543 [0x01] GOTO 0x05AB
 93: 0x0546 [0x02] IF !(Work_Zone[9] == 5*) GOTO 0x0562
 94: 0x054E [0x45] LOAD_SCHEDULED_TASK: Load scheduler "s006" with entities [EventEntity, EventEntity], work=[842*, 0*]
 95: 0x055F [0x01] GOTO 0x05AB
 96: 0x0562 [0x02] IF !(Work_Zone[9] == 6*) GOTO 0x057E
 97: 0x056A [0x45] LOAD_SCHEDULED_TASK: Load scheduler "s006" with entities [EventEntity, EventEntity], work=[842*, 0*]
 98: 0x057B [0x01] GOTO 0x05AB
 99: 0x057E [0x02] IF !(Work_Zone[9] == 7*) GOTO 0x059A
100: 0x0586 [0x45] LOAD_SCHEDULED_TASK: Load scheduler "s008" with entities [EventEntity, EventEntity], work=[842*, 0*]
101: 0x0597 [0x01] GOTO 0x05AB
102: 0x059A [0x45] LOAD_SCHEDULED_TASK: Load scheduler "s004" with entities [EventEntity, EventEntity], work=[842*, 0*]

SUBROUTINE_05AB:
103: 0x05AB [0x29] REQ_SET_WAIT(priority=0x0F, entity_id=Quemaricond (ID: 17387991/0x010951D7), tag_num=0x12)
104: 0x05B2 [0x29] REQ_SET_WAIT(priority=0x0F, entity_id=Quemaricond (ID: 17387991/0x010951D7), tag_num=0x15)
105: 0x05B9 [0x2B] Quemaricond (ID: 17387991/0x010951D7) [8024*]:
    → "Yes, that's it. Surely an adventurer of your stature would have no problems with such a task?"
106: 0x05C0 [0x23] WAIT_FOR_DIALOG_INTERACTION
107: 0x05C1 [0x29] REQ_SET_WAIT(priority=0x0F, entity_id=Quemaricond (ID: 17387991/0x010951D7), tag_num=0x16)
108: 0x05C8 [0x29] REQ_SET_WAIT(priority=0x0F, entity_id=Quemaricond (ID: 17387991/0x010951D7), tag_num=0x17)
109: 0x05CF [0x2B] Quemaricond (ID: 17387991/0x010951D7) [8025*]:
    → "I'm quite certain an Orc with a map was headed for the Monastic Cavern. Please go there and see what you can find out."
110: 0x05D6 [0x23] WAIT_FOR_DIALOG_INTERACTION
111: 0x05D7 [0x29] REQ_SET_WAIT(priority=0x0F, entity_id=Quemaricond (ID: 17387991/0x010951D7), tag_num=0x18)
112: 0x05DE [0x02] IF !(Work_Zone[9] == 2*) GOTO 0x05F8
113: 0x05E6 [0x52] END_LOAD_SCHEDULER: End scheduler "s008" with entities [EventEntity, EventEntity], work=842*
114: 0x05F5 [0x01] GOTO 0x0655
115: 0x05F8 [0x02] IF !(Work_Zone[9] == 5*) GOTO 0x0612
116: 0x0600 [0x52] END_LOAD_SCHEDULER: End scheduler "s006" with entities [EventEntity, EventEntity], work=842*
117: 0x060F [0x01] GOTO 0x0655
118: 0x0612 [0x02] IF !(Work_Zone[9] == 6*) GOTO 0x062C
119: 0x061A [0x52] END_LOAD_SCHEDULER: End scheduler "s006" with entities [EventEntity, EventEntity], work=842*
120: 0x0629 [0x01] GOTO 0x0655
121: 0x062C [0x02] IF !(Work_Zone[9] == 7*) GOTO 0x0646
122: 0x0634 [0x52] END_LOAD_SCHEDULER: End scheduler "s008" with entities [EventEntity, EventEntity], work=842*
123: 0x0643 [0x01] GOTO 0x0655
124: 0x0646 [0x52] END_LOAD_SCHEDULER: End scheduler "s004" with entities [EventEntity, EventEntity], work=842*

SUBROUTINE_0655:
125: 0x0655 [0x45] LOAD_SCHEDULED_TASK: Load scheduler "s005" with entities [EventEntity, EventEntity], work=[842*, 0*]
126: 0x0666 [0x29] REQ_SET_WAIT(priority=0x0F, entity_id=Quemaricond (ID: 17387991/0x010951D7), tag_num=0x0B)
127: 0x066D [0x2B] Quemaricond (ID: 17387991/0x010951D7) [8026*]:
    → "Truth be told, that Orc is a little too much for me to handle. I tried following him before, but I just ended up getting lost."
128: 0x0674 [0x23] WAIT_FOR_DIALOG_INTERACTION
129: 0x0675 [0x29] REQ_SET_WAIT(priority=0x0F, entity_id=Quemaricond (ID: 17387991/0x010951D7), tag_num=0x0C)
130: 0x067C [0x2B] Quemaricond (ID: 17387991/0x010951D7) [8027*]:
    → "Normally, that's not a problem for me. I'm thinking the Orcs must be using some kind of magic to alter the terrain..."
131: 0x0683 [0x29] REQ_SET_WAIT(priority=0x0F, entity_id=Quemaricond (ID: 17387991/0x010951D7), tag_num=0x0D)
132: 0x068A [0x29] REQ_SET_WAIT(priority=0x0F, entity_id=Quemaricond (ID: 17387991/0x010951D7), tag_num=0x0E)
133: 0x0691 [0x29] REQ_SET_WAIT(priority=0x0F, entity_id=Quemaricond (ID: 17387991/0x010951D7), tag_num=0x19)
134: 0x0698 [0x23] WAIT_FOR_DIALOG_INTERACTION
135: 0x0699 [0x5D] SET_MUSIC_VOLUME(volume=0*, fade_time=300*)
136: 0x069E [0x1A] CALL_SUBROUTINE(address=0x0064)
137: 0x06A1 [0x29] REQ_SET_WAIT(priority=0x0F, entity_id=Quemaricond (ID: 17387991/0x010951D7), tag_num=0x1A)
138: 0x06A8 [0x52] END_LOAD_SCHEDULER: End scheduler "s005" with entities [EventEntity, EventEntity], work=842*
139: 0x06B7 [0x29] REQ_SET_WAIT(priority=0x0F, entity_id=Quemaricond (ID: 17387991/0x010951D7), tag_num=0x2A)
140: 0x06BE [0x1C] WAIT(2* ticks)
141: 0x06C1 [0x5C] MUSIC_CONTROL: Set Idle (Day) music to song 0*
142: 0x06C5 [0x5C] MUSIC_CONTROL: Set Idle (Night) music to song 0*
143: 0x06C9 [0x5C] MUSIC_CONTROL: Set Combat (Solo) music to song 115*
144: 0x06CD [0x5C] MUSIC_CONTROL: Set Combat (Party) music to song 102*
145: 0x06D1 [0x9A] WAIT_MUSIC_SERVER()
146: 0x06D2 [0x5D] SET_MUSIC_VOLUME(volume=127*, fade_time=1*)
147: 0x06D7 [0x1C] WAIT(15* ticks)
148: 0x06DA [0xAB] EventEntity->DespawnValue = 0* // Set despawn value
149: 0x06DE [0x1C] WAIT(1* ticks)
150: 0x06E1 [0x46] CAMERA_CONTROL: Restore default settings
151: 0x06E3 [0x45] LOAD_SCHEDULED_TASK: Load scheduler "fdi2" with entities [EventEntity, EventEntity], work=[200*, 0*]
152: 0x06F4 [0x21] END_EVENT
153: 0x06F5 [0x00] END_REQSTACK()
```

### Event 156

#### Metadata

| Field        | Value      |
|--------------|------------|
| Entrypoint   | 0x06F6     |
| Data Size    | 1100 bytes |
| Instructions | 157        |

```
      00 01 02 03 04 05 06 07  08 09 0A 0B 0C 0D 0E 0F
      -- -- -- -- -- -- -- --  -- -- -- -- -- -- -- --
06F0:                   42 4A  D7 51 09 01 F0 FF FF 7F        BJ.Q......
0700: 2B D7 51 09 01 27 80 23  6F 76 D7 51 09 01 5D 01  +.Q..'.#ov.Q..].
0710: 80 09 80 1A 64 00 46 01  38 0A 80 92 01 D7 51 09  ....d.F.8.....Q.
0720: 01 94 01 D7 51 09 01 94  01 F0 FF FF 7F BA D7 51  ....Q..........Q
0730: 09 01 0E 80 0F 80 10 80  11 80 29 08 F0 FF FF 7F  ..........).....
0740: 11 02 09 10 05 80 00 59  07 BA F0 FF FF 7F 28 80  .......Y......(.
0750: 29 80 01 80 2A 80 01 AE  07 02 09 10 18 80 00 71  )...*..........q
0760: 07 BA F0 FF FF 7F 28 80  29 80 01 80 2A 80 01 AE  ......(.)...*...
0770: 07 02 09 10 19 80 00 89  07 BA F0 FF FF 7F 28 80  ..............(.
0780: 29 80 01 80 2A 80 01 AE  07 02 09 10 21 80 00 A1  )...*.......!...
0790: 07 BA F0 FF FF 7F 28 80  29 80 01 80 2A 80 01 AE  ......(.)...*...
07A0: 07 BA F0 FF FF 7F 2B 80  2C 80 01 80 2D 80 80 D7  ......+.,...-...
07B0: 51 09 01 80 F0 FF FF 7F  29 0F D7 51 09 01 29 4A  Q.......)..Q..)J
07C0: D7 51 09 01 F0 FF FF 7F  4A F0 FF FF 7F D7 51 09  .Q......J.....Q.
07D0: 01 6F 76 D7 51 09 01 6F  76 F0 FF FF 7F 5C 00 2E  .ov.Q..ov....\..
07E0: 80 5C 01 2E 80 5C 02 13  80 5C 03 14 80 9A 5D 15  .\...\...\....].
07F0: 80 03 80 27 0F F0 FF FF  7F 16 45 16 80 F8 FF FF  ...'......E.....
0800: 7F F8 FF FF 7F 73 30 30  30 01 80 1A 43 00 03 02  .....s000...C...
0810: 10 2F 80 48 30 80 2A 0F  F0 FF FF 7F 1C 31 80 02  ./.H0.*......1..
0820: 09 10 18 80 00 2A 08 01  3A 08 02 09 10 19 80 00  .....*..:.......
0830: 35 08 01 3A 08 7B D7 51  09 01 29 0F D7 51 09 01  5..:.{.Q..)..Q..
0840: 15 1C 32 80 52 16 80 F8  FF FF 7F F8 FF FF 7F 73  ..2.R..........s
0850: 30 30 30 45 16 80 F8 FF  FF 7F F8 FF FF 7F 73 30  000E..........s0
0860: 30 39 01 80 02 09 10 18  80 00 6F 08 01 84 08 02  09........o.....
0870: 09 10 19 80 00 7A 08 01  84 08 79 02 D7 51 09 01  .....z....y..Q..
0880: 33 80 01 80 1C 06 80 29  0F D7 51 09 01 17 29 0F  3......)..Q...).
0890: D7 51 09 01 18 1A 64 00  52 16 80 F8 FF FF 7F F8  .Q....d.R.......
08A0: FF FF 7F 73 30 30 39 02  09 10 05 80 00 BF 08 BA  ...s009.........
08B0: F0 FF FF 7F 2B 80 2C 80  01 80 2D 80 01 D4 08 02  ....+.,...-.....
08C0: 09 10 21 80 00 D4 08 BA  F0 FF FF 7F 2B 80 2C 80  ..!.........+.,.
08D0: 01 80 2D 80 1C 34 80 02  09 10 18 80 00 F3 08 45  ..-..4.........E
08E0: 16 80 F8 FF FF 7F F8 FF  FF 7F 73 30 31 30 01 80  ..........s010..
08F0: 01 20 09 02 09 10 19 80  00 0F 09 45 16 80 F8 FF  . .........E....
0900: FF 7F F8 FF FF 7F 73 30  31 30 01 80 01 20 09 45  ......s010... .E
0910: 16 80 F8 FF FF 7F F8 FF  FF 7F 73 30 30 32 01 80  ..........s002..
0920: 29 0F D7 51 09 01 0B 1A  43 00 2B D7 51 09 01 35  )..Q....C.+.Q..5
0930: 80 23 29 0F D7 51 09 01  0C 29 0F D7 51 09 01 0D  .#)..Q...)..Q...
0940: 29 0F D7 51 09 01 0E 7B  D7 51 09 01 29 0F D7 51  )..Q...{.Q..)..Q
0950: 09 01 0F 2B D7 51 09 01  36 80 23 02 09 10 18 80  ...+.Q..6.#.....
0960: 00 75 09 52 16 80 F8 FF  FF 7F F8 FF FF 7F 73 30  .u.R..........s0
0970: 31 30 01 9E 09 02 09 10  19 80 00 8F 09 52 16 80  10...........R..
0980: F8 FF FF 7F F8 FF FF 7F  73 30 31 30 01 9E 09 52  ........s010...R
0990: 16 80 F8 FF FF 7F F8 FF  FF 7F 73 30 30 32 45 16  ..........s002E.
09A0: 80 F8 FF FF 7F F8 FF FF  7F 73 30 30 35 01 80 2B  .........s005..+
09B0: D7 51 09 01 37 80 23 29  0F D7 51 09 01 10 52 16  .Q..7.#)..Q...R.
09C0: 80 F8 FF FF 7F F8 FF FF  7F 73 30 30 35 02 09 10  .........s005...
09D0: 05 80 00 E9 09 45 16 80  F8 FF FF 7F F8 FF FF 7F  .....E..........
09E0: 73 30 31 31 01 80 01 4E  0A 02 09 10 18 80 00 05  s011...N........
09F0: 0A 45 16 80 F8 FF FF 7F  F8 FF FF 7F 73 30 30 37  .E..........s007
0A00: 01 80 01 4E 0A 02 09 10  19 80 00 21 0A 45 16 80  ...N.......!.E..
0A10: F8 FF FF 7F F8 FF FF 7F  73 30 30 37 01 80 01 4E  ........s007...N
0A20: 0A 02 09 10 21 80 00 3D  0A 45 16 80 F8 FF FF 7F  ....!..=.E......
0A30: F8 FF FF 7F 73 30 31 31  01 80 01 4E 0A 45 16 80  ....s011...N.E..
0A40: F8 FF FF 7F F8 FF FF 7F  73 30 30 34 01 80 79 00  ........s004..y.
0A50: D7 51 09 01 F0 FF FF 7F  29 0F D7 51 09 01 11 2B  .Q......)..Q...+
0A60: D7 51 09 01 38 80 23 29  0F D7 51 09 01 12 29 0F  .Q..8.#)..Q...).
0A70: D7 51 09 01 13 2B D7 51  09 01 39 80 23 29 0F D7  .Q...+.Q..9.#)..
0A80: 51 09 01 14 5D 01 80 09  80 1A 64 00 02 09 10 05  Q...].....d.....
0A90: 80 00 A6 0A 52 16 80 F8  FF FF 7F F8 FF FF 7F 73  ....R..........s
0AA0: 30 31 31 01 03 0B 02 09  10 18 80 00 C0 0A 52 16  011...........R.
0AB0: 80 F8 FF FF 7F F8 FF FF  7F 73 30 30 37 01 03 0B  .........s007...
0AC0: 02 09 10 19 80 00 DA 0A  52 16 80 F8 FF FF 7F F8  ........R.......
0AD0: FF FF 7F 73 30 30 37 01  03 0B 02 09 10 21 80 00  ...s007......!..
0AE0: F4 0A 52 16 80 F8 FF FF  7F F8 FF FF 7F 73 30 31  ..R..........s01
0AF0: 31 01 03 0B 52 16 80 F8  FF FF 7F F8 FF FF 7F 73  1...R..........s
0B00: 30 30 34 29 0F D7 51 09  01 2A 1C 05 80 5C 00 01  004)..Q..*...\..
0B10: 80 5C 01 01 80 5C 02 13  80 5C 03 14 80 9A 5D 15  .\...\...\....].
0B20: 80 03 80 1C 26 80 AB 11  01 80 1C 03 80 46 00 45  ....&........F.E
0B30: 00 80 F8 FF FF 7F F8 FF  FF 7F 66 64 69 32 01 80  ..........fdi2..
0B40: 21 00                                             !.              
```

#### Opcodes

```
  0: 0x06F6 [0x42] SET_CLI_EVENT_CANCEL_DATA()
  1: 0x06F7 [0x4A] Quemaricond (ID: 17387991/0x010951D7) looks at LocalPlayer
  2: 0x0700 [0x2B] Quemaricond (ID: 17387991/0x010951D7) [8031*]:
    → "You're back! So, did you have any luck!?"
  3: 0x0707 [0x23] WAIT_FOR_DIALOG_INTERACTION
  4: 0x0708 [0x6F] WAIT_FRAME_DELAY: Yield until WaitTime reaches zero
  5: 0x0709 [0x76] CHECK_ENTITY_RENDER_FLAGS: Wait until Quemaricond (ID: 17387991/0x010951D7) Render.Flags0 and Render.Flags3 conditions are met
  6: 0x070E [0x5D] SET_MUSIC_VOLUME(volume=0*, fade_time=300*)
  7: 0x0713 [0x1A] CALL_SUBROUTINE(address=0x0064)
  8: 0x0716 [0x46] CAMERA_CONTROL: Disable user control
  9: 0x0718 [0x38] SET_CLIENT_EVENT_MODE(mode=147*)
 10: 0x071B [0x92] Quemaricond (ID: 17387991/0x010951D7)->Render.Flags3 ^= 0x01
 11: 0x0721 [0x94] Quemaricond (ID: 17387991/0x010951D7)->Render.Flags3 ^= 0x01
 12: 0x0727 [0x94] LocalPlayer->Render.Flags3 ^= 0x01
 13: 0x072D [0xBA] SET_ENTITY_POSITION(entity_id=Quemaricond (ID: 17387991/0x010951D7), pos_x=35.866*, pos_z=-18.549*, pos_y=-0.046*, direction=29.3°*)
 14: 0x073A [0x29] REQ_SET_WAIT(priority=0x08, entity_id=LocalPlayer, tag_num=0x11)
 15: 0x0741 [0x02] IF !(Work_Zone[9] == 2*) GOTO 0x0759
 16: 0x0749 [0xBA] SET_ENTITY_POSITION(entity_id=LocalPlayer, pos_x=37.298*, pos_z=-19.144*, pos_y=0.000*, direction=203.1°*)
 17: 0x0756 [0x01] GOTO 0x07AE
 18: 0x0759 [0x02] IF !(Work_Zone[9] == 5*) GOTO 0x0771
 19: 0x0761 [0xBA] SET_ENTITY_POSITION(entity_id=LocalPlayer, pos_x=37.298*, pos_z=-19.144*, pos_y=0.000*, direction=203.1°*)
 20: 0x076E [0x01] GOTO 0x07AE
 21: 0x0771 [0x02] IF !(Work_Zone[9] == 6*) GOTO 0x0789
 22: 0x0779 [0xBA] SET_ENTITY_POSITION(entity_id=LocalPlayer, pos_x=37.298*, pos_z=-19.144*, pos_y=0.000*, direction=203.1°*)
 23: 0x0786 [0x01] GOTO 0x07AE
 24: 0x0789 [0x02] IF !(Work_Zone[9] == 7*) GOTO 0x07A1
 25: 0x0791 [0xBA] SET_ENTITY_POSITION(entity_id=LocalPlayer, pos_x=37.298*, pos_z=-19.144*, pos_y=0.000*, direction=203.1°*)
 26: 0x079E [0x01] GOTO 0x07AE
 27: 0x07A1 [0xBA] SET_ENTITY_POSITION(entity_id=LocalPlayer, pos_x=37.731*, pos_z=-19.691*, pos_y=0.000*, direction=202.6°*)

SUBROUTINE_07AE:
 28: 0x07AE [0x80] LOAD_WAIT(entity=Quemaricond (ID: 17387991/0x010951D7))
 29: 0x07B3 [0x80] LOAD_WAIT(entity=LocalPlayer)
 30: 0x07B8 [0x29] REQ_SET_WAIT(priority=0x0F, entity_id=Quemaricond (ID: 17387991/0x010951D7), tag_num=0x29)
 31: 0x07BF [0x4A] Quemaricond (ID: 17387991/0x010951D7) looks at LocalPlayer
 32: 0x07C8 [0x4A] LocalPlayer looks at Quemaricond (ID: 17387991/0x010951D7)
 33: 0x07D1 [0x6F] WAIT_FRAME_DELAY: Yield until WaitTime reaches zero
 34: 0x07D2 [0x76] CHECK_ENTITY_RENDER_FLAGS: Wait until Quemaricond (ID: 17387991/0x010951D7) Render.Flags0 and Render.Flags3 conditions are met
 35: 0x07D7 [0x6F] WAIT_FRAME_DELAY: Yield until WaitTime reaches zero
 36: 0x07D8 [0x76] CHECK_ENTITY_RENDER_FLAGS: Wait until LocalPlayer Render.Flags0 and Render.Flags3 conditions are met
 37: 0x07DD [0x5C] MUSIC_CONTROL: Set Idle (Day) music to song 25*
 38: 0x07E1 [0x5C] MUSIC_CONTROL: Set Idle (Night) music to song 25*
 39: 0x07E5 [0x5C] MUSIC_CONTROL: Set Combat (Solo) music to song 115*
 40: 0x07E9 [0x5C] MUSIC_CONTROL: Set Combat (Party) music to song 102*
 41: 0x07ED [0x9A] WAIT_MUSIC_SERVER()
 42: 0x07EE [0x5D] SET_MUSIC_VOLUME(volume=127*, fade_time=1*)
 43: 0x07F3 [0x27] REQ_SET(priority=0x0F, entity_id=LocalPlayer, tag_num=0x16)
 44: 0x07FA [0x45] LOAD_SCHEDULED_TASK: Load scheduler "s000" with entities [EventEntity, EventEntity], work=[842*, 0*]
 45: 0x080B [0x1A] CALL_SUBROUTINE(address=0x0043)
 46: 0x080E [0x03] Work_Zone[2] = 3254*
 47: 0x0813 [0x48] [System] [8032*]:
    → "You hand over the $3."
 48: 0x0816 [0x2A] GET_REQ_LEVEL(level=15, entity_id=LocalPlayer)
 49: 0x081C [0x1C] WAIT(20* ticks)
 50: 0x081F [0x02] IF !(Work_Zone[9] == 5*) GOTO 0x082A
 51: 0x0827 [0x01] GOTO 0x083A
 52: 0x082A [0x02] IF !(Work_Zone[9] == 6*) GOTO 0x0835
 53: 0x0832 [0x01] GOTO 0x083A
 54: 0x0835 [0x7B] Quemaricond (ID: 17387991/0x010951D7) stops talking

SUBROUTINE_083A:
 55: 0x083A [0x29] REQ_SET_WAIT(priority=0x0F, entity_id=Quemaricond (ID: 17387991/0x010951D7), tag_num=0x15)
 56: 0x0841 [0x1C] WAIT(10* ticks)
 57: 0x0844 [0x52] END_LOAD_SCHEDULER: End scheduler "s000" with entities [EventEntity, EventEntity], work=842*
 58: 0x0853 [0x45] LOAD_SCHEDULED_TASK: Load scheduler "s009" with entities [EventEntity, EventEntity], work=[842*, 0*]
 59: 0x0864 [0x02] IF !(Work_Zone[9] == 5*) GOTO 0x086F
 60: 0x086C [0x01] GOTO 0x0884
 61: 0x086F [0x02] IF !(Work_Zone[9] == 6*) GOTO 0x087A
 62: 0x0877 [0x01] GOTO 0x0884
 63: 0x087A [0x79] Quemaricond (ID: 17387991/0x010951D7) looks at Unknown NPC (ID: 2147582003/0x80018033) (Direct axis set)

SUBROUTINE_0884:
 64: 0x0884 [0x1C] WAIT(30* ticks)
 65: 0x0887 [0x29] REQ_SET_WAIT(priority=0x0F, entity_id=Quemaricond (ID: 17387991/0x010951D7), tag_num=0x17)
 66: 0x088E [0x29] REQ_SET_WAIT(priority=0x0F, entity_id=Quemaricond (ID: 17387991/0x010951D7), tag_num=0x18)
 67: 0x0895 [0x1A] CALL_SUBROUTINE(address=0x0064)
 68: 0x0898 [0x52] END_LOAD_SCHEDULER: End scheduler "s009" with entities [EventEntity, EventEntity], work=842*
 69: 0x08A7 [0x02] IF !(Work_Zone[9] == 2*) GOTO 0x08BF
 70: 0x08AF [0xBA] SET_ENTITY_POSITION(entity_id=LocalPlayer, pos_x=37.731*, pos_z=-19.691*, pos_y=0.000*, direction=202.6°*)
 71: 0x08BC [0x01] GOTO 0x08D4
 72: 0x08BF [0x02] IF !(Work_Zone[9] == 7*) GOTO 0x08D4
 73: 0x08C7 [0xBA] SET_ENTITY_POSITION(entity_id=LocalPlayer, pos_x=37.731*, pos_z=-19.691*, pos_y=0.000*, direction=202.6°*)

SUBROUTINE_08D4:
 74: 0x08D4 [0x1C] WAIT(90* ticks)
 75: 0x08D7 [0x02] IF !(Work_Zone[9] == 5*) GOTO 0x08F3
 76: 0x08DF [0x45] LOAD_SCHEDULED_TASK: Load scheduler "s010" with entities [EventEntity, EventEntity], work=[842*, 0*]
 77: 0x08F0 [0x01] GOTO 0x0920
 78: 0x08F3 [0x02] IF !(Work_Zone[9] == 6*) GOTO 0x090F
 79: 0x08FB [0x45] LOAD_SCHEDULED_TASK: Load scheduler "s010" with entities [EventEntity, EventEntity], work=[842*, 0*]
 80: 0x090C [0x01] GOTO 0x0920
 81: 0x090F [0x45] LOAD_SCHEDULED_TASK: Load scheduler "s002" with entities [EventEntity, EventEntity], work=[842*, 0*]

SUBROUTINE_0920:
 82: 0x0920 [0x29] REQ_SET_WAIT(priority=0x0F, entity_id=Quemaricond (ID: 17387991/0x010951D7), tag_num=0x0B)
 83: 0x0927 [0x1A] CALL_SUBROUTINE(address=0x0043)
 84: 0x092A [0x2B] Quemaricond (ID: 17387991/0x010951D7) [8033*]:
    → "You found it! Now, let's take a look at what we've got here..."
 85: 0x0931 [0x23] WAIT_FOR_DIALOG_INTERACTION
 86: 0x0932 [0x29] REQ_SET_WAIT(priority=0x0F, entity_id=Quemaricond (ID: 17387991/0x010951D7), tag_num=0x0C)
 87: 0x0939 [0x29] REQ_SET_WAIT(priority=0x0F, entity_id=Quemaricond (ID: 17387991/0x010951D7), tag_num=0x0D)
 88: 0x0940 [0x29] REQ_SET_WAIT(priority=0x0F, entity_id=Quemaricond (ID: 17387991/0x010951D7), tag_num=0x0E)
 89: 0x0947 [0x7B] Quemaricond (ID: 17387991/0x010951D7) stops talking
 90: 0x094C [0x29] REQ_SET_WAIT(priority=0x0F, entity_id=Quemaricond (ID: 17387991/0x010951D7), tag_num=0x0F)
 91: 0x0953 [0x2B] Quemaricond (ID: 17387991/0x010951D7) [8034*]:
    → "It's the Northlands... I wasn't expecting this to be a map of the Beaucedine Glacier; it's a cursed land. And that "egg" they were referring to..."
 92: 0x095A [0x23] WAIT_FOR_DIALOG_INTERACTION
 93: 0x095B [0x02] IF !(Work_Zone[9] == 5*) GOTO 0x0975
 94: 0x0963 [0x52] END_LOAD_SCHEDULER: End scheduler "s010" with entities [EventEntity, EventEntity], work=842*
 95: 0x0972 [0x01] GOTO 0x099E
 96: 0x0975 [0x02] IF !(Work_Zone[9] == 6*) GOTO 0x098F
 97: 0x097D [0x52] END_LOAD_SCHEDULER: End scheduler "s010" with entities [EventEntity, EventEntity], work=842*
 98: 0x098C [0x01] GOTO 0x099E
 99: 0x098F [0x52] END_LOAD_SCHEDULER: End scheduler "s002" with entities [EventEntity, EventEntity], work=842*

SUBROUTINE_099E:
100: 0x099E [0x45] LOAD_SCHEDULED_TASK: Load scheduler "s005" with entities [EventEntity, EventEntity], work=[842*, 0*]
101: 0x09AF [0x2B] Quemaricond (ID: 17387991/0x010951D7) [8035*]:
    → "Whatever the Orcs are plotting, it gives me considerable worry."
102: 0x09B6 [0x23] WAIT_FOR_DIALOG_INTERACTION
103: 0x09B7 [0x29] REQ_SET_WAIT(priority=0x0F, entity_id=Quemaricond (ID: 17387991/0x010951D7), tag_num=0x10)
104: 0x09BE [0x52] END_LOAD_SCHEDULER: End scheduler "s005" with entities [EventEntity, EventEntity], work=842*
105: 0x09CD [0x02] IF !(Work_Zone[9] == 2*) GOTO 0x09E9
106: 0x09D5 [0x45] LOAD_SCHEDULED_TASK: Load scheduler "s011" with entities [EventEntity, EventEntity], work=[842*, 0*]
107: 0x09E6 [0x01] GOTO 0x0A4E
108: 0x09E9 [0x02] IF !(Work_Zone[9] == 5*) GOTO 0x0A05
109: 0x09F1 [0x45] LOAD_SCHEDULED_TASK: Load scheduler "s007" with entities [EventEntity, EventEntity], work=[842*, 0*]
110: 0x0A02 [0x01] GOTO 0x0A4E
111: 0x0A05 [0x02] IF !(Work_Zone[9] == 6*) GOTO 0x0A21
112: 0x0A0D [0x45] LOAD_SCHEDULED_TASK: Load scheduler "s007" with entities [EventEntity, EventEntity], work=[842*, 0*]
113: 0x0A1E [0x01] GOTO 0x0A4E
114: 0x0A21 [0x02] IF !(Work_Zone[9] == 7*) GOTO 0x0A3D
115: 0x0A29 [0x45] LOAD_SCHEDULED_TASK: Load scheduler "s011" with entities [EventEntity, EventEntity], work=[842*, 0*]
116: 0x0A3A [0x01] GOTO 0x0A4E
117: 0x0A3D [0x45] LOAD_SCHEDULED_TASK: Load scheduler "s004" with entities [EventEntity, EventEntity], work=[842*, 0*]

SUBROUTINE_0A4E:
118: 0x0A4E [0x79] Quemaricond (ID: 17387991/0x010951D7) looks at LocalPlayer (Basic look)
119: 0x0A58 [0x29] REQ_SET_WAIT(priority=0x0F, entity_id=Quemaricond (ID: 17387991/0x010951D7), tag_num=0x11)
120: 0x0A5F [0x2B] Quemaricond (ID: 17387991/0x010951D7) [8036*]:
    → "I'll continue my investigation here. In the meantime, take this map and my report."
121: 0x0A66 [0x23] WAIT_FOR_DIALOG_INTERACTION
122: 0x0A67 [0x29] REQ_SET_WAIT(priority=0x0F, entity_id=Quemaricond (ID: 17387991/0x010951D7), tag_num=0x12)
123: 0x0A6E [0x29] REQ_SET_WAIT(priority=0x0F, entity_id=Quemaricond (ID: 17387991/0x010951D7), tag_num=0x13)
124: 0x0A75 [0x2B] Quemaricond (ID: 17387991/0x010951D7) [8037*]:
    → "I need you to give them to Captain Rahal for me."
125: 0x0A7C [0x23] WAIT_FOR_DIALOG_INTERACTION
126: 0x0A7D [0x29] REQ_SET_WAIT(priority=0x0F, entity_id=Quemaricond (ID: 17387991/0x010951D7), tag_num=0x14)
127: 0x0A84 [0x5D] SET_MUSIC_VOLUME(volume=0*, fade_time=300*)
128: 0x0A89 [0x1A] CALL_SUBROUTINE(address=0x0064)
129: 0x0A8C [0x02] IF !(Work_Zone[9] == 2*) GOTO 0x0AA6
130: 0x0A94 [0x52] END_LOAD_SCHEDULER: End scheduler "s011" with entities [EventEntity, EventEntity], work=842*
131: 0x0AA3 [0x01] GOTO 0x0B03
132: 0x0AA6 [0x02] IF !(Work_Zone[9] == 5*) GOTO 0x0AC0
133: 0x0AAE [0x52] END_LOAD_SCHEDULER: End scheduler "s007" with entities [EventEntity, EventEntity], work=842*
134: 0x0ABD [0x01] GOTO 0x0B03
135: 0x0AC0 [0x02] IF !(Work_Zone[9] == 6*) GOTO 0x0ADA
136: 0x0AC8 [0x52] END_LOAD_SCHEDULER: End scheduler "s007" with entities [EventEntity, EventEntity], work=842*
137: 0x0AD7 [0x01] GOTO 0x0B03
138: 0x0ADA [0x02] IF !(Work_Zone[9] == 7*) GOTO 0x0AF4
139: 0x0AE2 [0x52] END_LOAD_SCHEDULER: End scheduler "s011" with entities [EventEntity, EventEntity], work=842*
140: 0x0AF1 [0x01] GOTO 0x0B03
141: 0x0AF4 [0x52] END_LOAD_SCHEDULER: End scheduler "s004" with entities [EventEntity, EventEntity], work=842*

SUBROUTINE_0B03:
142: 0x0B03 [0x29] REQ_SET_WAIT(priority=0x0F, entity_id=Quemaricond (ID: 17387991/0x010951D7), tag_num=0x2A)
143: 0x0B0A [0x1C] WAIT(2* ticks)
144: 0x0B0D [0x5C] MUSIC_CONTROL: Set Idle (Day) music to song 0*
145: 0x0B11 [0x5C] MUSIC_CONTROL: Set Idle (Night) music to song 0*
146: 0x0B15 [0x5C] MUSIC_CONTROL: Set Combat (Solo) music to song 115*
147: 0x0B19 [0x5C] MUSIC_CONTROL: Set Combat (Party) music to song 102*
148: 0x0B1D [0x9A] WAIT_MUSIC_SERVER()
149: 0x0B1E [0x5D] SET_MUSIC_VOLUME(volume=127*, fade_time=1*)
150: 0x0B23 [0x1C] WAIT(15* ticks)
151: 0x0B26 [0xAB] EventEntity->DespawnValue = 0* // Set despawn value
152: 0x0B2A [0x1C] WAIT(1* ticks)
153: 0x0B2D [0x46] CAMERA_CONTROL: Restore default settings
154: 0x0B2F [0x45] LOAD_SCHEDULED_TASK: Load scheduler "fdi2" with entities [EventEntity, EventEntity], work=[200*, 0*]
155: 0x0B40 [0x21] END_EVENT
156: 0x0B41 [0x00] END_REQSTACK()
```

### Event 157

#### Metadata

| Field        | Value     |
|--------------|-----------|
| Entrypoint   | 0x0B42    |
| Data Size    | 143 bytes |
| Instructions | 23        |

```
      00 01 02 03 04 05 06 07  08 09 0A 0B 0C 0D 0E 0F
      -- -- -- -- -- -- -- --  -- -- -- -- -- -- -- --
0B40:       4A D7 51 09 01 F0  FF FF 7F 6F 76 D7 51 09    J.Q......ov.Q.
0B50: 01 4A F0 FF FF 7F D7 51  09 01 02 02 10 3A 80 00  .J.....Q.....:..
0B60: A8 0B 66 3B 80 D7 51 09  01 D7 51 09 01 74 6C 6B  ..f;..Q...Q..tlk
0B70: 30 2B D7 51 09 01 3C 80  23 2B D7 51 09 01 3D 80  0+.Q..<.#+.Q..=.
0B80: 23 53 D7 51 09 01 D7 51  09 01 74 6C 6B 30 66 3B  #S.Q...Q..tlk0f;
0B90: 80 D7 51 09 01 D7 51 09  01 74 6C 6B 31 2B D7 51  ..Q...Q..tlk1+.Q
0BA0: 09 01 3E 80 23 01 CF 0B  02 02 10 00 80 00 CF 0B  ..>.#...........
0BB0: 66 3B 80 D7 51 09 01 D7  51 09 01 74 6C 6B 30 2B  f;..Q...Q..tlk0+
0BC0: D7 51 09 01 3F 80 23 2B  D7 51 09 01 40 80 23 21  .Q..?.#+.Q..@.#!
0BD0: 00                                                .               
```

#### Opcodes

```
  0: 0x0B42 [0x4A] Quemaricond (ID: 17387991/0x010951D7) looks at LocalPlayer
  1: 0x0B4B [0x6F] WAIT_FRAME_DELAY: Yield until WaitTime reaches zero
  2: 0x0B4C [0x76] CHECK_ENTITY_RENDER_FLAGS: Wait until Quemaricond (ID: 17387991/0x010951D7) Render.Flags0 and Render.Flags3 conditions are met
  3: 0x0B51 [0x4A] LocalPlayer looks at Quemaricond (ID: 17387991/0x010951D7)
  4: 0x0B5A [0x02] IF !(Work_Zone[2] == 198*) GOTO 0x0BA8
  5: 0x0B62 [0x66] LOAD_EXT_SCHEDULER_MAIN: Load scheduler "tlk0" with entities [Quemaricond (ID: 17387991/0x010951D7), Quemaricond (ID: 17387991/0x010951D7)], work=29*
  6: 0x0B71 [0x2B] Quemaricond (ID: 17387991/0x010951D7) [8028*]:
    → "I listened in on the Orcs' conversation and they appear to be looking for some sort of "egg" in Quon."
  7: 0x0B78 [0x23] WAIT_FOR_DIALOG_INTERACTION
  8: 0x0B79 [0x2B] Quemaricond (ID: 17387991/0x010951D7) [8029*]:
    → "However, if I don't come up with any more details than that, I can't make a proper report to Captain Rahal."
  9: 0x0B80 [0x23] WAIT_FOR_DIALOG_INTERACTION
 10: 0x0B81 [0x53] WAIT_SCHEDULER_TASK: Wait for scheduler "tlk0" with entities [Quemaricond (ID: 17387991/0x010951D7), Quemaricond (ID: 17387991/0x010951D7)]
 11: 0x0B8E [0x66] LOAD_EXT_SCHEDULER_MAIN: Load scheduler "tlk1" with entities [Quemaricond (ID: 17387991/0x010951D7), Quemaricond (ID: 17387991/0x010951D7)], work=29*
 12: 0x0B9D [0x2B] Quemaricond (ID: 17387991/0x010951D7) [8030*]:
    → "Therefore, I need you to head to the Monastic Cavern and get me that map, or whatever it is."
 13: 0x0BA4 [0x23] WAIT_FOR_DIALOG_INTERACTION
 14: 0x0BA5 [0x01] GOTO 0x0BCF
 15: 0x0BA8 [0x02] IF !(Work_Zone[2] == 200*) GOTO 0x0BCF
 16: 0x0BB0 [0x66] LOAD_EXT_SCHEDULER_MAIN: Load scheduler "tlk0" with entities [Quemaricond (ID: 17387991/0x010951D7), Quemaricond (ID: 17387991/0x010951D7)], work=29*
 17: 0x0BBF [0x2B] Quemaricond (ID: 17387991/0x010951D7) [8038*]:
    → "Please make sure that this map and my report are delivered to Captain Rahal."
 18: 0x0BC6 [0x23] WAIT_FOR_DIALOG_INTERACTION
 19: 0x0BC7 [0x2B] Quemaricond (ID: 17387991/0x010951D7) [8039*]:
    → "I'll continue my investigation here. I have a bad feeling about this..."
 20: 0x0BCE [0x23] WAIT_FOR_DIALOG_INTERACTION

SUBROUTINE_0BCF:
 21: 0x0BCF [0x21] END_EVENT
 22: 0x0BD0 [0x00] END_REQSTACK()
```
