# 17388006 - Zantaviat

## Common Data

| Field            | Value           |
|------------------|-----------------|
| Zone             | Davoi (ID: 149) |
| Block Size       | 388 bytes       |
| Total Events     | 16              |
| References Count | 27              |

## List of Events

| Event ID                 | Entrypoint   |   Size |   Instructions |
|--------------------------|--------------|--------|----------------|
| [65535](#event-65535)    | 0x0000       |      1 |              1 |
| [100](#event-100)        | 0x0001       |     31 |             15 |
| [104](#event-104)        | 0x0020       |     11 |              5 |
| [101](#event-101)        | 0x002B       |      6 |              4 |
| [102](#event-102)        | 0x0031       |     34 |             18 |
| [105](#event-105)        | 0x0053       |      6 |              4 |
| [114](#event-114)        | 0x0059       |     60 |             11 |
| [65535.1](#event-655351) | 0x0095       |      5 |              3 |
| [65535.2](#event-655352) | 0x009A       |      5 |              3 |
| [65535.3](#event-655353) | 0x009F       |      5 |              3 |
| [65535.4](#event-655354) | 0x00A4       |      5 |              3 |
| [65535.5](#event-655355) | 0x00A9       |      5 |              3 |
| [65535.6](#event-655356) | 0x00AE       |      5 |              3 |
| [65535.7](#event-655357) | 0x00B3       |      5 |              3 |
| [65535.8](#event-655358) | 0x00B8       |      5 |              3 |
| [115](#event-115)        | 0x00BD       |      8 |              5 |

## DAT References (imed_data)

|   Index | Hex Value   |   Dec Value |
|---------|-------------|-------------|
|       0 | 0x1CFA      |        7418 |
|       1 | 0x002C      |          44 |
|       2 | 0x1CFC      |        7420 |
|       3 | 0x1CFD      |        7421 |
|       4 | 0x1CFE      |        7422 |
|       5 | 0x1CFF      |        7423 |
|       6 | 0x1D00      |        7424 |
|       7 | 0x1D04      |        7428 |
|       8 | 0x1CF9      |        7417 |
|       9 | 0x1D07      |        7431 |
|      10 | 0x1D08      |        7432 |
|      11 | 0x1D09      |        7433 |
|      12 | 0x1D0A      |        7434 |
|      13 | 0x1D0B      |        7435 |
|      14 | 0x1D0C      |        7436 |
|      15 | 0x1D0D      |        7437 |
|      16 | 0x1D0E      |        7438 |
|      17 | 0x1D12      |        7442 |
|      18 | 0x1D4A      |        7498 |
|      19 | 0x1D4B      |        7499 |
|      20 | 0x1D4C      |        7500 |
|      21 | 0x1D4D      |        7501 |
|      22 | 0x1D4E      |        7502 |
|      23 | 0x1D4F      |        7503 |
|      24 | 0x1D50      |        7504 |
|      25 | 0x1D51      |        7505 |
|      26 | 0x1D52      |        7506 |

## String References

- **7417**: I am Zantaviat, a scout for San d'Oria. I was sent to watch the Orc camps in Davoi. Be careful, it's a veritable nest of beastmen in there.
- **7418**: A message? Finally! I am Zantaviat of the Temple Knights. I've been monitoring Orc activity here for several weeks. They grow stronger in numbers by the day.
- **7420**: The Temple Knights have been observing Davoi through a number of methods. We've collected our findings in a document: $6.
- **7421**: However...one of our men infiltrated the area last night, and ran into an Orc hunting party on his way out. He dropped the last page of his report before he could escape.
- **7422**: The Orcs caught wind of our presence, so we could not retrieve the lost page so easily.
- **7423**: According to our man, the page lies somewhere near the platform on the small pond up ahead. Go retrieve it for us.
- **7424**: With the Orcs on alert, any direct attack would only incite their full wrath. Take care not to be discovered!
- **7428**: You found the page! Well done. Now the $3 is complete. Take this to San d'Oria swiftly. Give it to the lord knight at the gatehouse.
- **7431**: Ah, it's you, <Player>. I was waiting for you. Let us dispense with the formalities; we want you to infiltrate Davoi.
- **7432**: Davoi is the central stronghold of the Orcs. We have delved as deep as we dare, but there is still much we do not know.
- **7433**: Come to think of it, an adventurer came along the other day. He told me to be strong out here by myself, and then he was off towards Davoi all alone. Got courage, that one.
- **7434**: But that is neither here nor there, eh?
- **7435**: Let me explain your mission. There are three Orc settlements in Davoi: East Block, South Block, and North Block.
- **7436**: We know that they've left coded memos concerning all three blocks. They should be somewhere in East Block.
- **7437**: East Block is not far from this entrance. I want you to find three of those coded memos.
- **7438**: Be aware that this mission will surely require combat. You way wish to gather a party to aid you.
- **7442**: That's all three blocks covered. I will notify the homeland of your contribution. All you need to do is return to San d'Oria and report in at the gatehouse.
- **7498**: A message? Finally! I am Zantaviat of the Temple Knights.
- **7499**: I've been monitoring Orc activity here for several weeks. They grow stronger in numbers by the day.
- **7500**: In our recent investigations, we have observed that Orcs are working towards a single purpose. Prince Pieuje was right all along...
- **7501**: I had prepared $6 and given it to one of our officers to deliver...
- **7502**: ...but that officer dropped one of the pages while fleeing from an Orc ambush last night.
- **7503**: Now the Orcs have doubled their forces in that area, and we can not easily retrieve the lost page.
- **7504**: According to the officer, he says he dropped the page near a crucifixion mound by that pond you see before us.
- **7505**: With the Orcs forces doubled like this, attacking them head-on would be futile. Sneaking in and retrieving the page unnoticed is the most logical method of carrying out this mission.
- **7506**: You found the page! Well done. Now the $3 is complete. Take this to San d'Oria swiftly and deliver it to Prince Pieuje.

## Events

### Event 65535

#### Metadata

| Field        | Value   |
|--------------|---------|
| Entrypoint   | 0x0000  |
| Data Size    | 1 bytes |
| Instructions | 1       |

```
      00 01 02 03 04 05 06 07  08 09 0A 0B 0C 0D 0E 0F
      -- -- -- -- -- -- -- --  -- -- -- -- -- -- -- --
0000: 00                                                .               
```

#### Opcodes

```
  0: 0x0000 [0x00] END_REQSTACK()
```

### Event 100

#### Metadata

| Field        | Value    |
|--------------|----------|
| Entrypoint   | 0x0001   |
| Data Size    | 31 bytes |
| Instructions | 15       |

```
      00 01 02 03 04 05 06 07  08 09 0A 0B 0C 0D 0E 0F
      -- -- -- -- -- -- -- --  -- -- -- -- -- -- -- --
0000:    1D 00 80 23 03 02 10  01 80 1D 02 80 23 1D 03   ...#........#..
0010: 80 23 1D 04 80 23 1D 05  80 23 1D 06 80 23 21 00  .#...#...#...#!.
```

#### Opcodes

```
  0: 0x0001 [0x1D] PRINT_EVENT_MESSAGE(message_id=7418*)
    → "A message? Finally! I am Zantaviat of the Temple Knights. I've been monitoring Orc activity here for several weeks. They grow stronger in numbers by the day."
  1: 0x0004 [0x23] WAIT_FOR_DIALOG_INTERACTION
  2: 0x0005 [0x03] Work_Zone[2] = 44*
  3: 0x000A [0x1D] PRINT_EVENT_MESSAGE(message_id=7420*)
    → "The Temple Knights have been observing Davoi through a number of methods. We've collected our findings in a document: $6."
  4: 0x000D [0x23] WAIT_FOR_DIALOG_INTERACTION
  5: 0x000E [0x1D] PRINT_EVENT_MESSAGE(message_id=7421*)
    → "However...one of our men infiltrated the area last night, and ran into an Orc hunting party on his way out. He dropped the last page of his report before he could escape."
  6: 0x0011 [0x23] WAIT_FOR_DIALOG_INTERACTION
  7: 0x0012 [0x1D] PRINT_EVENT_MESSAGE(message_id=7422*)
    → "The Orcs caught wind of our presence, so we could not retrieve the lost page so easily."
  8: 0x0015 [0x23] WAIT_FOR_DIALOG_INTERACTION
  9: 0x0016 [0x1D] PRINT_EVENT_MESSAGE(message_id=7423*)
    → "According to our man, the page lies somewhere near the platform on the small pond up ahead. Go retrieve it for us."
 10: 0x0019 [0x23] WAIT_FOR_DIALOG_INTERACTION
 11: 0x001A [0x1D] PRINT_EVENT_MESSAGE(message_id=7424*)
    → "With the Orcs on alert, any direct attack would only incite their full wrath. Take care not to be discovered!"
 12: 0x001D [0x23] WAIT_FOR_DIALOG_INTERACTION
 13: 0x001E [0x21] END_EVENT
 14: 0x001F [0x00] END_REQSTACK()
```

### Event 104

#### Metadata

| Field        | Value    |
|--------------|----------|
| Entrypoint   | 0x0020   |
| Data Size    | 11 bytes |
| Instructions | 5        |

```
      00 01 02 03 04 05 06 07  08 09 0A 0B 0C 0D 0E 0F
      -- -- -- -- -- -- -- --  -- -- -- -- -- -- -- --
0020: 03 02 10 01 80 1D 07 80  23 21 00                 ........#!.     
```

#### Opcodes

```
  0: 0x0020 [0x03] Work_Zone[2] = 44*
  1: 0x0025 [0x1D] PRINT_EVENT_MESSAGE(message_id=7428*)
    → "You found the page! Well done. Now the $3 is complete. Take this to San d'Oria swiftly. Give it to the lord knight at the gatehouse."
  2: 0x0028 [0x23] WAIT_FOR_DIALOG_INTERACTION
  3: 0x0029 [0x21] END_EVENT
  4: 0x002A [0x00] END_REQSTACK()
```

### Event 101

#### Metadata

| Field        | Value   |
|--------------|---------|
| Entrypoint   | 0x002B  |
| Data Size    | 6 bytes |
| Instructions | 4       |

```
      00 01 02 03 04 05 06 07  08 09 0A 0B 0C 0D 0E 0F
      -- -- -- -- -- -- -- --  -- -- -- -- -- -- -- --
0020:                                   1D 08 80 23 21             ...#!
0030: 00                                                .               
```

#### Opcodes

```
  0: 0x002B [0x1D] PRINT_EVENT_MESSAGE(message_id=7417*)
    → "I am Zantaviat, a scout for San d'Oria. I was sent to watch the Orc camps in Davoi. Be careful, it's a veritable nest of beastmen in there."
  1: 0x002E [0x23] WAIT_FOR_DIALOG_INTERACTION
  2: 0x002F [0x21] END_EVENT
  3: 0x0030 [0x00] END_REQSTACK()
```

### Event 102

#### Metadata

| Field        | Value    |
|--------------|----------|
| Entrypoint   | 0x0031   |
| Data Size    | 34 bytes |
| Instructions | 18       |

```
      00 01 02 03 04 05 06 07  08 09 0A 0B 0C 0D 0E 0F
      -- -- -- -- -- -- -- --  -- -- -- -- -- -- -- --
0030:    1D 09 80 23 1D 0A 80  23 1D 0B 80 23 1D 0C 80   ...#...#...#...
0040: 23 1D 0D 80 23 1D 0E 80  23 1D 0F 80 23 1D 10 80  #...#...#...#...
0050: 23 21 00                                          #!.             
```

#### Opcodes

```
  0: 0x0031 [0x1D] PRINT_EVENT_MESSAGE(message_id=7431*)
    → "Ah, it's you, <Player>. I was waiting for you. Let us dispense with the formalities; we want you to infiltrate Davoi."
  1: 0x0034 [0x23] WAIT_FOR_DIALOG_INTERACTION
  2: 0x0035 [0x1D] PRINT_EVENT_MESSAGE(message_id=7432*)
    → "Davoi is the central stronghold of the Orcs. We have delved as deep as we dare, but there is still much we do not know."
  3: 0x0038 [0x23] WAIT_FOR_DIALOG_INTERACTION
  4: 0x0039 [0x1D] PRINT_EVENT_MESSAGE(message_id=7433*)
    → "Come to think of it, an adventurer came along the other day. He told me to be strong out here by myself, and then he was off towards Davoi all alone. Got courage, that one."
  5: 0x003C [0x23] WAIT_FOR_DIALOG_INTERACTION
  6: 0x003D [0x1D] PRINT_EVENT_MESSAGE(message_id=7434*)
    → "But that is neither here nor there, eh?"
  7: 0x0040 [0x23] WAIT_FOR_DIALOG_INTERACTION
  8: 0x0041 [0x1D] PRINT_EVENT_MESSAGE(message_id=7435*)
    → "Let me explain your mission. There are three Orc settlements in Davoi: East Block, South Block, and North Block."
  9: 0x0044 [0x23] WAIT_FOR_DIALOG_INTERACTION
 10: 0x0045 [0x1D] PRINT_EVENT_MESSAGE(message_id=7436*)
    → "We know that they've left coded memos concerning all three blocks. They should be somewhere in East Block."
 11: 0x0048 [0x23] WAIT_FOR_DIALOG_INTERACTION
 12: 0x0049 [0x1D] PRINT_EVENT_MESSAGE(message_id=7437*)
    → "East Block is not far from this entrance. I want you to find three of those coded memos."
 13: 0x004C [0x23] WAIT_FOR_DIALOG_INTERACTION
 14: 0x004D [0x1D] PRINT_EVENT_MESSAGE(message_id=7438*)
    → "Be aware that this mission will surely require combat. You way wish to gather a party to aid you."
 15: 0x0050 [0x23] WAIT_FOR_DIALOG_INTERACTION
 16: 0x0051 [0x21] END_EVENT
 17: 0x0052 [0x00] END_REQSTACK()
```

### Event 105

#### Metadata

| Field        | Value   |
|--------------|---------|
| Entrypoint   | 0x0053  |
| Data Size    | 6 bytes |
| Instructions | 4       |

```
      00 01 02 03 04 05 06 07  08 09 0A 0B 0C 0D 0E 0F
      -- -- -- -- -- -- -- --  -- -- -- -- -- -- -- --
0050:          1D 11 80 23 21  00                          ...#!.       
```

#### Opcodes

```
  0: 0x0053 [0x1D] PRINT_EVENT_MESSAGE(message_id=7442*)
    → "That's all three blocks covered. I will notify the homeland of your contribution. All you need to do is return to San d'Oria and report in at the gatehouse."
  1: 0x0056 [0x23] WAIT_FOR_DIALOG_INTERACTION
  2: 0x0057 [0x21] END_EVENT
  3: 0x0058 [0x00] END_REQSTACK()
```

### Event 114

#### Metadata

| Field        | Value    |
|--------------|----------|
| Entrypoint   | 0x0059   |
| Data Size    | 60 bytes |
| Instructions | 11       |

```
      00 01 02 03 04 05 06 07  08 09 0A 0B 0C 0D 0E 0F
      -- -- -- -- -- -- -- --  -- -- -- -- -- -- -- --
0050:                             29 0B E6 51 09 01 07           )..Q...
0060: 29 0B E6 51 09 01 08 29  0B E6 51 09 01 09 29 0B  )..Q...)..Q...).
0070: E6 51 09 01 0A 29 0B E6  51 09 01 0B 29 0B E6 51  .Q...)..Q...)..Q
0080: 09 01 0C 29 0B E6 51 09  01 0D 29 0B E6 51 09 01  ...)..Q...)..Q..
0090: 0E 20 00 21 00                                    . .!.           
```

#### Opcodes

```
  0: 0x0059 [0x29] REQ_SET_WAIT(priority=0x0B, entity_id=Zantaviat (ID: 17388006/0x010951E6), tag_num=0x07)
  1: 0x0060 [0x29] REQ_SET_WAIT(priority=0x0B, entity_id=Zantaviat (ID: 17388006/0x010951E6), tag_num=0x08)
  2: 0x0067 [0x29] REQ_SET_WAIT(priority=0x0B, entity_id=Zantaviat (ID: 17388006/0x010951E6), tag_num=0x09)
  3: 0x006E [0x29] REQ_SET_WAIT(priority=0x0B, entity_id=Zantaviat (ID: 17388006/0x010951E6), tag_num=0x0A)
  4: 0x0075 [0x29] REQ_SET_WAIT(priority=0x0B, entity_id=Zantaviat (ID: 17388006/0x010951E6), tag_num=0x0B)
  5: 0x007C [0x29] REQ_SET_WAIT(priority=0x0B, entity_id=Zantaviat (ID: 17388006/0x010951E6), tag_num=0x0C)
  6: 0x0083 [0x29] REQ_SET_WAIT(priority=0x0B, entity_id=Zantaviat (ID: 17388006/0x010951E6), tag_num=0x0D)
  7: 0x008A [0x29] REQ_SET_WAIT(priority=0x0B, entity_id=Zantaviat (ID: 17388006/0x010951E6), tag_num=0x0E)
  8: 0x0091 [0x20] SET_CLI_EVENT_UC_FLAG: Unlock player control
  9: 0x0093 [0x21] END_EVENT
 10: 0x0094 [0x00] END_REQSTACK()
```

### Event 65535.1

#### Metadata

| Field        | Value   |
|--------------|---------|
| Entrypoint   | 0x0095  |
| Data Size    | 5 bytes |
| Instructions | 3       |

```
      00 01 02 03 04 05 06 07  08 09 0A 0B 0C 0D 0E 0F
      -- -- -- -- -- -- -- --  -- -- -- -- -- -- -- --
0090:                1D 12 80  23 00                         ...#.      
```

#### Opcodes

```
  0: 0x0095 [0x1D] PRINT_EVENT_MESSAGE(message_id=7498*)
    → "A message? Finally! I am Zantaviat of the Temple Knights."
  1: 0x0098 [0x23] WAIT_FOR_DIALOG_INTERACTION
  2: 0x0099 [0x00] END_REQSTACK()
```

### Event 65535.2

#### Metadata

| Field        | Value   |
|--------------|---------|
| Entrypoint   | 0x009A  |
| Data Size    | 5 bytes |
| Instructions | 3       |

```
      00 01 02 03 04 05 06 07  08 09 0A 0B 0C 0D 0E 0F
      -- -- -- -- -- -- -- --  -- -- -- -- -- -- -- --
0090:                                1D 13 80 23 00               ...#. 
```

#### Opcodes

```
  0: 0x009A [0x1D] PRINT_EVENT_MESSAGE(message_id=7499*)
    → "I've been monitoring Orc activity here for several weeks. They grow stronger in numbers by the day."
  1: 0x009D [0x23] WAIT_FOR_DIALOG_INTERACTION
  2: 0x009E [0x00] END_REQSTACK()
```

### Event 65535.3

#### Metadata

| Field        | Value   |
|--------------|---------|
| Entrypoint   | 0x009F  |
| Data Size    | 5 bytes |
| Instructions | 3       |

```
      00 01 02 03 04 05 06 07  08 09 0A 0B 0C 0D 0E 0F
      -- -- -- -- -- -- -- --  -- -- -- -- -- -- -- --
0090:                                               1D                 .
00A0: 14 80 23 00                                       ..#.            
```

#### Opcodes

```
  0: 0x009F [0x1D] PRINT_EVENT_MESSAGE(message_id=7500*)
    → "In our recent investigations, we have observed that Orcs are working towards a single purpose. Prince Pieuje was right all along..."
  1: 0x00A2 [0x23] WAIT_FOR_DIALOG_INTERACTION
  2: 0x00A3 [0x00] END_REQSTACK()
```

### Event 65535.4

#### Metadata

| Field        | Value   |
|--------------|---------|
| Entrypoint   | 0x00A4  |
| Data Size    | 5 bytes |
| Instructions | 3       |

```
      00 01 02 03 04 05 06 07  08 09 0A 0B 0C 0D 0E 0F
      -- -- -- -- -- -- -- --  -- -- -- -- -- -- -- --
00A0:             1D 15 80 23  00                           ...#.       
```

#### Opcodes

```
  0: 0x00A4 [0x1D] PRINT_EVENT_MESSAGE(message_id=7501*)
    → "I had prepared $6 and given it to one of our officers to deliver..."
  1: 0x00A7 [0x23] WAIT_FOR_DIALOG_INTERACTION
  2: 0x00A8 [0x00] END_REQSTACK()
```

### Event 65535.5

#### Metadata

| Field        | Value   |
|--------------|---------|
| Entrypoint   | 0x00A9  |
| Data Size    | 5 bytes |
| Instructions | 3       |

```
      00 01 02 03 04 05 06 07  08 09 0A 0B 0C 0D 0E 0F
      -- -- -- -- -- -- -- --  -- -- -- -- -- -- -- --
00A0:                             1D 16 80 23 00                 ...#.  
```

#### Opcodes

```
  0: 0x00A9 [0x1D] PRINT_EVENT_MESSAGE(message_id=7502*)
    → "...but that officer dropped one of the pages while fleeing from an Orc ambush last night."
  1: 0x00AC [0x23] WAIT_FOR_DIALOG_INTERACTION
  2: 0x00AD [0x00] END_REQSTACK()
```

### Event 65535.6

#### Metadata

| Field        | Value   |
|--------------|---------|
| Entrypoint   | 0x00AE  |
| Data Size    | 5 bytes |
| Instructions | 3       |

```
      00 01 02 03 04 05 06 07  08 09 0A 0B 0C 0D 0E 0F
      -- -- -- -- -- -- -- --  -- -- -- -- -- -- -- --
00A0:                                            1D 17                ..
00B0: 80 23 00                                          .#.             
```

#### Opcodes

```
  0: 0x00AE [0x1D] PRINT_EVENT_MESSAGE(message_id=7503*)
    → "Now the Orcs have doubled their forces in that area, and we can not easily retrieve the lost page."
  1: 0x00B1 [0x23] WAIT_FOR_DIALOG_INTERACTION
  2: 0x00B2 [0x00] END_REQSTACK()
```

### Event 65535.7

#### Metadata

| Field        | Value   |
|--------------|---------|
| Entrypoint   | 0x00B3  |
| Data Size    | 5 bytes |
| Instructions | 3       |

```
      00 01 02 03 04 05 06 07  08 09 0A 0B 0C 0D 0E 0F
      -- -- -- -- -- -- -- --  -- -- -- -- -- -- -- --
00B0:          1D 18 80 23 00                              ...#.        
```

#### Opcodes

```
  0: 0x00B3 [0x1D] PRINT_EVENT_MESSAGE(message_id=7504*)
    → "According to the officer, he says he dropped the page near a crucifixion mound by that pond you see before us."
  1: 0x00B6 [0x23] WAIT_FOR_DIALOG_INTERACTION
  2: 0x00B7 [0x00] END_REQSTACK()
```

### Event 65535.8

#### Metadata

| Field        | Value   |
|--------------|---------|
| Entrypoint   | 0x00B8  |
| Data Size    | 5 bytes |
| Instructions | 3       |

```
      00 01 02 03 04 05 06 07  08 09 0A 0B 0C 0D 0E 0F
      -- -- -- -- -- -- -- --  -- -- -- -- -- -- -- --
00B0:                          1D 19 80 23 00                   ...#.   
```

#### Opcodes

```
  0: 0x00B8 [0x1D] PRINT_EVENT_MESSAGE(message_id=7505*)
    → "With the Orcs forces doubled like this, attacking them head-on would be futile. Sneaking in and retrieving the page unnoticed is the most logical method of carrying out this mission."
  1: 0x00BB [0x23] WAIT_FOR_DIALOG_INTERACTION
  2: 0x00BC [0x00] END_REQSTACK()
```

### Event 115

#### Metadata

| Field        | Value   |
|--------------|---------|
| Entrypoint   | 0x00BD  |
| Data Size    | 8 bytes |
| Instructions | 5       |

```
      00 01 02 03 04 05 06 07  08 09 0A 0B 0C 0D 0E 0F
      -- -- -- -- -- -- -- --  -- -- -- -- -- -- -- --
00B0:                                         1D 1A 80               ...
00C0: 23 20 00 21 00                                    # .!.           
```

#### Opcodes

```
  0: 0x00BD [0x1D] PRINT_EVENT_MESSAGE(message_id=7506*)
    → "You found the page! Well done. Now the $3 is complete. Take this to San d'Oria swiftly and deliver it to Prince Pieuje."
  1: 0x00C0 [0x23] WAIT_FOR_DIALOG_INTERACTION
  2: 0x00C1 [0x20] SET_CLI_EVENT_UC_FLAG: Unlock player control
  3: 0x00C3 [0x21] END_EVENT
  4: 0x00C4 [0x00] END_REQSTACK()
```
