# 0x7FFFFFF0 - Zone Events

## Common Data

| Field            | Value           |
|------------------|-----------------|
| Zone             | Davoi (ID: 149) |
| Block Size       | 1216 bytes      |
| Total Events     | 24              |
| References Count | 74              |

## List of Events

| Event ID                 | Entrypoint   |   Size |   Instructions |
|--------------------------|--------------|--------|----------------|
| [65535](#event-65535)    | 0x0000       |      1 |              1 |
| [65534](#event-65534)    | 0x0001       |      1 |              1 |
| [35](#event-35)          | 0x0002       |     13 |              3 |
| [36](#event-36)          | 0x000F       |     13 |              3 |
| [37](#event-37)          | 0x001C       |     93 |             13 |
| [38](#event-38)          | 0x0079       |     93 |             13 |
| [39](#event-39)          | 0x00D6       |     93 |             13 |
| [40](#event-40)          | 0x0133       |     93 |             13 |
| [41](#event-41)          | 0x0190       |     10 |              2 |
| [58](#event-58)          | 0x019A       |     13 |              3 |
| [59](#event-59)          | 0x01A7       |     13 |              3 |
| [108](#event-108)        | 0x01B4       |     10 |              4 |
| [109](#event-109)        | 0x01BE       |    240 |             52 |
| [65535.1](#event-655351) | 0x02AE       |      6 |              2 |
| [65535.2](#event-655352) | 0x02B4       |      6 |              2 |
| [65535.3](#event-655353) | 0x02BA       |      6 |              2 |
| [65535.4](#event-655354) | 0x02C0       |      6 |              2 |
| [65535.5](#event-655355) | 0x02C6       |      6 |              2 |
| [65535.6](#event-655356) | 0x02CC       |     10 |              2 |
| [65535.7](#event-655357) | 0x02D6       |     10 |              2 |
| [65535.8](#event-655358) | 0x02E0       |     27 |              5 |
| [65535.9](#event-655359) | 0x02FB       |     42 |              6 |

## DAT References (imed_data)

|   Index | Hex Value   |   Dec Value |
|---------|-------------|-------------|
|       0 | 0x2B762     |      178018 |
|       1 | 0xFFFE297D  |  4294846845 |
|       2 | 0xFFFFF599  |  4294964633 |
|       3 | 0x0D2A      |        3370 |
|       4 | 0x2B496     |      177302 |
|       5 | 0xFFFE11E0  |  4294840800 |
|       6 | 0xFFFFF403  |  4294964227 |
|       7 | 0x0259      |         601 |
|       8 | 0x18E53     |      101971 |
|       9 | 0xFD45      |       64837 |
|      10 | 0x0208      |         520 |
|      11 | 0x0F2A      |        3882 |
|      12 | 0x000D      |          13 |
|      13 | 0x19722     |      104226 |
|      14 | 0xFFC7      |       65479 |
|      15 | 0x0209      |         521 |
|      16 | 0x0200      |         512 |
|      17 | 0x000F      |          15 |
|      18 | 0x3B2B      |       15147 |
|      19 | 0xFFFC17F3  |  4294711283 |
|      20 | 0x026B      |         619 |
|      21 | 0x0A5A      |        2650 |
|      22 | 0x3688      |       13960 |
|      23 | 0xFFFC1BFF  |  4294712319 |
|      24 | 0x0183      |         387 |
|      25 | 0x0D8C      |        3468 |
|      26 | 0x5DA27     |      383527 |
|      27 | 0xFFFD5547  |  4294792519 |
|      28 | 0x0277      |         631 |
|      29 | 0x0F81      |        3969 |
|      30 | 0x5E03A     |      385082 |
|      31 | 0xFFFD57FF  |  4294793215 |
|      32 | 0x018F      |         399 |
|      33 | 0x019D      |         413 |
|      34 | 0xFFFCBC44  |  4294753348 |
|      35 | 0xFFFE700E  |  4294864910 |
|      36 | 0x02A2      |         674 |
|      37 | 0x0425      |        1061 |
|      38 | 0xFFFCBA07  |  4294752775 |
|      39 | 0xFFFE6781  |  4294862721 |
|      40 | 0x01F0      |         496 |
|      41 | 0x0584      |        1412 |
|      42 | 0x2D78D     |      186253 |
|      43 | 0xFFFE386A  |  4294850666 |
|      44 | 0x00F5      |         245 |
|      45 | 0xFFFFA5DC  |  4294944220 |
|      46 | 0xFFFEE787  |  4294895495 |
|      47 | 0x095E      |        2398 |
|      48 | 0x045D      |        1117 |
|      49 | 0xFFFFA486  |  4294943878 |
|      50 | 0xFFFEF70B  |  4294899467 |
|      51 | 0x0599      |        1433 |
|      52 | 0x0B8F      |        2959 |
|      53 | 0x1D29      |        7465 |
|      54 | 0x0001      |           1 |
|      55 | 0x0000      |           0 |
|      56 | 0x00C8      |         200 |
|      57 | 0x003C      |          60 |
|      58 | 0x1D2A      |        7466 |
|      59 | 0x40000000  |  1073741824 |
|      60 | 0x0005      |           5 |
|      61 | 0x0002      |           2 |
|      62 | 0x000A      |          10 |
|      63 | 0x0009      |           9 |
|      64 | 0x0046      |          70 |
|      65 | 0x008C      |         140 |
|      66 | 0x00D2      |         210 |
|      67 | 0x2D272     |      184946 |
|      68 | 0xFFFE39C6  |  4294851014 |
|      69 | 0x0086      |         134 |
|      70 | 0x2DCA8     |      187560 |
|      71 | 0xFFFA2BF8  |  4294585336 |
|      72 | 0x05DE      |        1502 |
|      73 | 0x0375      |         885 |

## String References

- **7465**: Enter the tent? [Yes./No.]
- **7466**: You search the tent.

## Events

### Event 65535

#### Metadata

| Field        | Value   |
|--------------|---------|
| Entrypoint   | 0x0000  |
| Data Size    | 1 bytes |
| Instructions | 1       |

```
      00 01 02 03 04 05 06 07  08 09 0A 0B 0C 0D 0E 0F
      -- -- -- -- -- -- -- --  -- -- -- -- -- -- -- --
0000: 00                                                .               
```

#### Opcodes

```
  0: 0x0000 [0x00] END_REQSTACK()
```

### Event 65534

#### Metadata

| Field        | Value   |
|--------------|---------|
| Entrypoint   | 0x0001  |
| Data Size    | 1 bytes |
| Instructions | 1       |

```
      00 01 02 03 04 05 06 07  08 09 0A 0B 0C 0D 0E 0F
      -- -- -- -- -- -- -- --  -- -- -- -- -- -- -- --
0000:    00                                              .              
```

#### Opcodes

```
  0: 0x0001 [0x00] END_REQSTACK()
```

### Event 35

#### Metadata

| Field        | Value    |
|--------------|----------|
| Entrypoint   | 0x0002   |
| Data Size    | 13 bytes |
| Instructions | 3        |

```
      00 01 02 03 04 05 06 07  08 09 0A 0B 0C 0D 0E 0F
      -- -- -- -- -- -- -- --  -- -- -- -- -- -- -- --
0000:       47 00 00 80 01 80  02 80 03 80 47 01 00       G.........G.. 
```

#### Opcodes

```
  0: 0x0002 [0x47] UPDATE_PLAYER_POS(178.018*, -120.451*, -2.663*, yaw=296.2°*)
  1: 0x000C [0x47] WAIT_PLAYER_POS_UPDATE
  2: 0x000E [0x00] END_REQSTACK()
```

### Event 36

#### Metadata

| Field        | Value    |
|--------------|----------|
| Entrypoint   | 0x000F   |
| Data Size    | 13 bytes |
| Instructions | 3        |

```
      00 01 02 03 04 05 06 07  08 09 0A 0B 0C 0D 0E 0F
      -- -- -- -- -- -- -- --  -- -- -- -- -- -- -- --
0000:                                               47                 G
0010: 00 04 80 05 80 06 80 07  80 47 01 00              .........G..    
```

#### Opcodes

```
  0: 0x000F [0x47] UPDATE_PLAYER_POS(177.302*, -126.496*, -3.069*, yaw=52.8°*)
  1: 0x0019 [0x47] WAIT_PLAYER_POS_UPDATE
  2: 0x001B [0x00] END_REQSTACK()
```

### Event 37

#### Metadata

| Field        | Value    |
|--------------|----------|
| Entrypoint   | 0x001C   |
| Data Size    | 93 bytes |
| Instructions | 13       |

```
      00 01 02 03 04 05 06 07  08 09 0A 0B 0C 0D 0E 0F
      -- -- -- -- -- -- -- --  -- -- -- -- -- -- -- --
0010:                                      37 08 80 09              7...
0020: 80 0A 80 0B 80 32 0C 80  1F 00 0D 80 0E 80 0F 80  .....2..........
0030: 1F 01 39 10 80 1C 11 80  03 00 00 04 10 1A 1A 02  ..9.............
0040: 66 01 00 F0 FF FF 7F F0  FF FF 7F 73 69 72 30 53  f..........sir0S
0050: F0 FF FF 7F F0 FF FF 7F  73 69 72 30 66 01 00 F0  ........sir0f...
0060: FF FF 7F F0 FF FF 7F 73  69 72 31 53 F0 FF FF 7F  .......sir1S....
0070: F0 FF FF 7F 73 69 72 31  00                       ....sir1.       
```

#### Opcodes

```
  0: 0x001C [0x37] UPDATE_EVENT_POSITION_AND_DIR: x=101.971*, z=64.837*, y=0.520*, direction=341.2°*
  1: 0x0025 [0x32] ExtData[1]->MainSpeed = 13* * 0.1
  2: 0x0028 [0x1F] MOVE_ENTITY: EventEntity moves to X=104.226*, Z=65.479*, Y=0.521*
  3: 0x0030 [0x1F] MOVE_ENTITY: Update entity position (mode=1)
  4: 0x0032 [0x39] SET_ENTITY_DIRECTION(direction=2.8°*)
  5: 0x0035 [0x1C] WAIT(15* ticks)
  6: 0x0038 [0x03] ExtData[1]->WorkLocal[0] = Work_Zone[4]
  7: 0x003D [0x1A] CALL_SUBROUTINE(address=0x021A)
  8: 0x0040 [0x66] LOAD_EXT_SCHEDULER_MAIN: Load scheduler "sir0" with entities [LocalPlayer, LocalPlayer], work=ExtData[1]->WorkLocal[1]
  9: 0x004F [0x53] WAIT_SCHEDULER_TASK: Wait for scheduler "sir0" with entities [LocalPlayer, LocalPlayer]
 10: 0x005C [0x66] LOAD_EXT_SCHEDULER_MAIN: Load scheduler "sir1" with entities [LocalPlayer, LocalPlayer], work=ExtData[1]->WorkLocal[1]
 11: 0x006B [0x53] WAIT_SCHEDULER_TASK: Wait for scheduler "sir1" with entities [LocalPlayer, LocalPlayer]
 12: 0x0078 [0x00] END_REQSTACK()
```

### Event 38

#### Metadata

| Field        | Value    |
|--------------|----------|
| Entrypoint   | 0x0079   |
| Data Size    | 93 bytes |
| Instructions | 13       |

```
      00 01 02 03 04 05 06 07  08 09 0A 0B 0C 0D 0E 0F
      -- -- -- -- -- -- -- --  -- -- -- -- -- -- -- --
0070:                             37 12 80 13 80 14 80           7......
0080: 15 80 32 0C 80 1F 00 16  80 17 80 18 80 1F 01 39  ..2............9
0090: 19 80 1C 11 80 03 00 00  04 10 1A 1A 02 66 01 00  .............f..
00A0: F0 FF FF 7F F0 FF FF 7F  73 69 72 30 53 F0 FF FF  ........sir0S...
00B0: 7F F0 FF FF 7F 73 69 72  30 66 01 00 F0 FF FF 7F  .....sir0f......
00C0: F0 FF FF 7F 73 69 72 31  53 F0 FF FF 7F F0 FF FF  ....sir1S.......
00D0: 7F 73 69 72 31 00                                 .sir1.          
```

#### Opcodes

```
  0: 0x0079 [0x37] UPDATE_EVENT_POSITION_AND_DIR: x=15.147*, z=-256.013*, y=0.619*, direction=232.9°*
  1: 0x0082 [0x32] ExtData[1]->MainSpeed = 13* * 0.1
  2: 0x0085 [0x1F] MOVE_ENTITY: EventEntity moves to X=13.960*, Z=-254.977*, Y=0.387*
  3: 0x008D [0x1F] MOVE_ENTITY: Update entity position (mode=1)
  4: 0x008F [0x39] SET_ENTITY_DIRECTION(direction=19.1°*)
  5: 0x0092 [0x1C] WAIT(15* ticks)
  6: 0x0095 [0x03] ExtData[1]->WorkLocal[0] = Work_Zone[4]
  7: 0x009A [0x1A] CALL_SUBROUTINE(address=0x021A)
  8: 0x009D [0x66] LOAD_EXT_SCHEDULER_MAIN: Load scheduler "sir0" with entities [LocalPlayer, LocalPlayer], work=ExtData[1]->WorkLocal[1]
  9: 0x00AC [0x53] WAIT_SCHEDULER_TASK: Wait for scheduler "sir0" with entities [LocalPlayer, LocalPlayer]
 10: 0x00B9 [0x66] LOAD_EXT_SCHEDULER_MAIN: Load scheduler "sir1" with entities [LocalPlayer, LocalPlayer], work=ExtData[1]->WorkLocal[1]
 11: 0x00C8 [0x53] WAIT_SCHEDULER_TASK: Wait for scheduler "sir1" with entities [LocalPlayer, LocalPlayer]
 12: 0x00D5 [0x00] END_REQSTACK()
```

### Event 39

#### Metadata

| Field        | Value    |
|--------------|----------|
| Entrypoint   | 0x00D6   |
| Data Size    | 93 bytes |
| Instructions | 13       |

```
      00 01 02 03 04 05 06 07  08 09 0A 0B 0C 0D 0E 0F
      -- -- -- -- -- -- -- --  -- -- -- -- -- -- -- --
00D0:                   37 1A  80 1B 80 1C 80 1D 80 32        7........2
00E0: 0C 80 1F 00 1E 80 1F 80  20 80 1F 01 39 21 80 1C  ........ ...9!..
00F0: 11 80 03 00 00 04 10 1A  1A 02 66 01 00 F0 FF FF  ..........f.....
0100: 7F F0 FF FF 7F 73 69 72  30 53 F0 FF FF 7F F0 FF  .....sir0S......
0110: FF 7F 73 69 72 30 66 01  00 F0 FF FF 7F F0 FF FF  ..sir0f.........
0120: 7F 73 69 72 31 53 F0 FF  FF 7F F0 FF FF 7F 73 69  .sir1S........si
0130: 72 31 00                                          r1.             
```

#### Opcodes

```
  0: 0x00D6 [0x37] UPDATE_EVENT_POSITION_AND_DIR: x=383.527*, z=-174.777*, y=0.631*, direction=348.8°*
  1: 0x00DF [0x32] ExtData[1]->MainSpeed = 13* * 0.1
  2: 0x00E2 [0x1F] MOVE_ENTITY: EventEntity moves to X=385.082*, Z=-174.081*, Y=0.399*
  3: 0x00EA [0x1F] MOVE_ENTITY: Update entity position (mode=1)
  4: 0x00EC [0x39] SET_ENTITY_DIRECTION(direction=2.3°*)
  5: 0x00EF [0x1C] WAIT(15* ticks)
  6: 0x00F2 [0x03] ExtData[1]->WorkLocal[0] = Work_Zone[4]
  7: 0x00F7 [0x1A] CALL_SUBROUTINE(address=0x021A)
  8: 0x00FA [0x66] LOAD_EXT_SCHEDULER_MAIN: Load scheduler "sir0" with entities [LocalPlayer, LocalPlayer], work=ExtData[1]->WorkLocal[1]
  9: 0x0109 [0x53] WAIT_SCHEDULER_TASK: Wait for scheduler "sir0" with entities [LocalPlayer, LocalPlayer]
 10: 0x0116 [0x66] LOAD_EXT_SCHEDULER_MAIN: Load scheduler "sir1" with entities [LocalPlayer, LocalPlayer], work=ExtData[1]->WorkLocal[1]
 11: 0x0125 [0x53] WAIT_SCHEDULER_TASK: Wait for scheduler "sir1" with entities [LocalPlayer, LocalPlayer]
 12: 0x0132 [0x00] END_REQSTACK()
```

### Event 40

#### Metadata

| Field        | Value    |
|--------------|----------|
| Entrypoint   | 0x0133   |
| Data Size    | 93 bytes |
| Instructions | 13       |

```
      00 01 02 03 04 05 06 07  08 09 0A 0B 0C 0D 0E 0F
      -- -- -- -- -- -- -- --  -- -- -- -- -- -- -- --
0130:          37 22 80 23 80  24 80 25 80 32 0C 80 1F     7".#.$.%.2...
0140: 00 26 80 27 80 28 80 1F  01 39 29 80 1C 11 80 03  .&.'.(...9).....
0150: 00 00 04 10 1A 1A 02 66  01 00 F0 FF FF 7F F0 FF  .......f........
0160: FF 7F 73 69 72 30 53 F0  FF FF 7F F0 FF FF 7F 73  ..sir0S........s
0170: 69 72 30 66 01 00 F0 FF  FF 7F F0 FF FF 7F 73 69  ir0f..........si
0180: 72 31 53 F0 FF FF 7F F0  FF FF 7F 73 69 72 31 00  r1S........sir1.
```

#### Opcodes

```
  0: 0x0133 [0x37] UPDATE_EVENT_POSITION_AND_DIR: x=-213.948*, z=-102.386*, y=0.674*, direction=93.2°*
  1: 0x013C [0x32] ExtData[1]->MainSpeed = 13* * 0.1
  2: 0x013F [0x1F] MOVE_ENTITY: EventEntity moves to X=-214.521*, Z=-104.575*, Y=0.496*
  3: 0x0147 [0x1F] MOVE_ENTITY: Update entity position (mode=1)
  4: 0x0149 [0x39] SET_ENTITY_DIRECTION(direction=7.8°*)
  5: 0x014C [0x1C] WAIT(15* ticks)
  6: 0x014F [0x03] ExtData[1]->WorkLocal[0] = Work_Zone[4]
  7: 0x0154 [0x1A] CALL_SUBROUTINE(address=0x021A)
  8: 0x0157 [0x66] LOAD_EXT_SCHEDULER_MAIN: Load scheduler "sir0" with entities [LocalPlayer, LocalPlayer], work=ExtData[1]->WorkLocal[1]
  9: 0x0166 [0x53] WAIT_SCHEDULER_TASK: Wait for scheduler "sir0" with entities [LocalPlayer, LocalPlayer]
 10: 0x0173 [0x66] LOAD_EXT_SCHEDULER_MAIN: Load scheduler "sir1" with entities [LocalPlayer, LocalPlayer], work=ExtData[1]->WorkLocal[1]
 11: 0x0182 [0x53] WAIT_SCHEDULER_TASK: Wait for scheduler "sir1" with entities [LocalPlayer, LocalPlayer]
 12: 0x018F [0x00] END_REQSTACK()
```

### Event 41

#### Metadata

| Field        | Value    |
|--------------|----------|
| Entrypoint   | 0x0190   |
| Data Size    | 10 bytes |
| Instructions | 2        |

```
      00 01 02 03 04 05 06 07  08 09 0A 0B 0C 0D 0E 0F
      -- -- -- -- -- -- -- --  -- -- -- -- -- -- -- --
0190: 37 2A 80 2B 80 02 80 2C  80 00                    7*.+...,..      
```

#### Opcodes

```
  0: 0x0190 [0x37] UPDATE_EVENT_POSITION_AND_DIR: x=186.253*, z=-116.630*, y=-2.663*, direction=21.5°*
  1: 0x0199 [0x00] END_REQSTACK()
```

### Event 58

#### Metadata

| Field        | Value    |
|--------------|----------|
| Entrypoint   | 0x019A   |
| Data Size    | 13 bytes |
| Instructions | 3        |

```
      00 01 02 03 04 05 06 07  08 09 0A 0B 0C 0D 0E 0F
      -- -- -- -- -- -- -- --  -- -- -- -- -- -- -- --
0190:                                47 00 2D 80 2E 80            G.-...
01A0: 2F 80 30 80 47 01 00                              /.0.G..         
```

#### Opcodes

```
  0: 0x019A [0x47] UPDATE_PLAYER_POS(-23.076*, -71.801*, 2.398*, yaw=98.2°*)
  1: 0x01A4 [0x47] WAIT_PLAYER_POS_UPDATE
  2: 0x01A6 [0x00] END_REQSTACK()
```

### Event 59

#### Metadata

| Field        | Value    |
|--------------|----------|
| Entrypoint   | 0x01A7   |
| Data Size    | 13 bytes |
| Instructions | 3        |

```
      00 01 02 03 04 05 06 07  08 09 0A 0B 0C 0D 0E 0F
      -- -- -- -- -- -- -- --  -- -- -- -- -- -- -- --
01A0:                      47  00 31 80 32 80 33 80 34         G.1.2.3.4
01B0: 80 47 01 00                                       .G..            
```

#### Opcodes

```
  0: 0x01A7 [0x47] UPDATE_PLAYER_POS(-23.418*, -67.829*, 1.433*, yaw=260.1°*)
  1: 0x01B1 [0x47] WAIT_PLAYER_POS_UPDATE
  2: 0x01B3 [0x00] END_REQSTACK()
```

### Event 108

#### Metadata

| Field        | Value    |
|--------------|----------|
| Entrypoint   | 0x01B4   |
| Data Size    | 10 bytes |
| Instructions | 4        |

```
      00 01 02 03 04 05 06 07  08 09 0A 0B 0C 0D 0E 0F
      -- -- -- -- -- -- -- --  -- -- -- -- -- -- -- --
01B0:             1E F8 51 09  01 1A C8 01 21 00            ..Q.....!.  
```

#### Opcodes

```
  0: 0x01B4 [0x1E] EventEntity looks at Hide Flap (ID: 17388024/0x010951F8) and starts talking
  1: 0x01B9 [0x1A] CALL_SUBROUTINE(address=0x01C8)
  2: 0x01BC [0x21] END_EVENT
  3: 0x01BD [0x00] END_REQSTACK()
```

### Event 109

#### Metadata

| Field        | Value     |
|--------------|-----------|
| Entrypoint   | 0x01BE    |
| Data Size    | 240 bytes |
| Instructions | 20        |

```
      00 01 02 03 04 05 06 07  08 09 0A 0B 0C 0D 0E 0F
      -- -- -- -- -- -- -- --  -- -- -- -- -- -- -- --
01B0:                                            1E F9                ..
01C0: 51 09 01 1A C8 01 21 00  24 35 80 36 80 37 80 25  Q.....!.$5.6.7.%
01D0: 02 00 10 37 80 00 09 02  42 43 00 43 01 45 38 80  ...7....BC.C.E8.
01E0: F8 FF FF 7F F8 FF FF 7F  66 64 6F 31 37 80 1C 39  ........fdo17..9
01F0: 80 48 3A 80 23 45 38 80  F8 FF FF 7F F8 FF FF 7F  .H:.#E8.........
0200: 66 64 69 31 37 80 01 19  02 02 00 10 36 80 00 19  fdi17.......6...
0210: 02 03 01 10 3B 80 01 19  02 1B 03 01 00 00 00 02  ....;...........
0220: 01 00 3C 80 05 2F 02 08  01 00 36 80 01 34 02 08  ..<../....6..4..
0230: 01 00 3D 80 14 01 00 3E  80 07 01 00 3F 80 1B 03  ..=....>....?...
0240: 01 00 00 00 02 01 00 3C  80 05 54 02 08 01 00 36  .......<..T....6
0250: 80 01 59 02 08 01 00 3D  80 14 01 00 3E 80 07 01  ..Y....=....>...
0260: 00 40 80 1B 03 01 00 00  00 02 01 00 3C 80 05 79  .@..........<..y
0270: 02 08 01 00 36 80 01 7E  02 08 01 00 3D 80 14 01  ....6..~....=...
0280: 00 3E 80 07 01 00 41 80  1B 03 01 00 00 00 02 01  .>....A.........
0290: 00 3C 80 05 9E 02 08 01  00 36 80 01 A3 02 08 01  .<.......6......
02A0: 00 3D 80 14 01 00 3E 80  07 01 00 42 80 1B        .=....>....B..  
```

#### Opcodes

```
  0: 0x01BE [0x1E] EventEntity looks at Hide Flap (ID: 17388025/0x010951F9) and starts talking
  1: 0x01C3 [0x1A] CALL_SUBROUTINE(address=0x01C8)
  2: 0x01C6 [0x21] END_EVENT
  3: 0x01C7 [0x00] END_REQSTACK()

SUBROUTINE_01C8:
  4: 0x01C8 [0x24] CREATE_DIALOG(message_id=7465*, default_option=1*, option_flags=0*)
    → "Enter the tent? [Yes./No.]"
  5: 0x01CF [0x25] WAIT_DIALOG_SELECT()
  6: 0x01D0 [0x02] IF !(Work_Zone[0] == 0*) GOTO 0x0209
  7: 0x01D8 [0x42] SET_CLI_EVENT_CANCEL_DATA()
  8: 0x01D9 [0x43] SEND_EVENT_UPDATE: Send pending tag to server (packet 0x005B)
  9: 0x01DB [0x43] SEND_EVENT_UPDATE: Check pending flag (skip if not pending)
 10: 0x01DD [0x45] LOAD_SCHEDULED_TASK: Load scheduler "fdo1" with entities [EventEntity, EventEntity], work=[200*, 0*]
 11: 0x01EE [0x1C] WAIT(60* ticks)
 12: 0x01F1 [0x48] [System] [7466*]:
    → "You search the tent."
 13: 0x01F4 [0x23] WAIT_FOR_DIALOG_INTERACTION
 14: 0x01F5 [0x45] LOAD_SCHEDULED_TASK: Load scheduler "fdi1" with entities [EventEntity, EventEntity], work=[200*, 0*]
 15: 0x0206 [0x01] GOTO 0x0219
 16: 0x0209 [0x02] IF !(Work_Zone[0] == 1*) GOTO 0x0219
 17: 0x0211 [0x03] Work_Zone[1] = 1073741824*
 18: 0x0216 [0x01] GOTO 0x0219

SUBROUTINE_0219:
 19: 0x0219 [0x1B] RETURN
```

#### Data or dead code:

```
# Dead code (unreachable instructions):
     0x021A [0x03] ExtData[1]->WorkLocal[1] = ExtData[1]->WorkLocal[0]
     0x021F [0x02] IF !(ExtData[1]->WorkLocal[1] > 5*) GOTO 0x022F
     0x0227 [0x08] ExtData[1]->WorkLocal[1] -= 1*
     0x022C [0x01] GOTO 0x0234
     0x022F [0x08] ExtData[1]->WorkLocal[1] -= 2*
     0x0234 [0x14] ExtData[1]->WorkLocal[1] *= 10*
     0x0239 [0x07] ExtData[1]->WorkLocal[1] += 9*
     0x023E [0x1B] RETURN
     0x023F [0x03] ExtData[1]->WorkLocal[1] = ExtData[1]->WorkLocal[0]
     0x0244 [0x02] IF !(ExtData[1]->WorkLocal[1] > 5*) GOTO 0x0254
     0x024C [0x08] ExtData[1]->WorkLocal[1] -= 1*
     0x0251 [0x01] GOTO 0x0259
     0x0254 [0x08] ExtData[1]->WorkLocal[1] -= 2*
     0x0259 [0x14] ExtData[1]->WorkLocal[1] *= 10*
     0x025E [0x07] ExtData[1]->WorkLocal[1] += 70*
     0x0263 [0x1B] RETURN
     0x0264 [0x03] ExtData[1]->WorkLocal[1] = ExtData[1]->WorkLocal[0]
     0x0269 [0x02] IF !(ExtData[1]->WorkLocal[1] > 5*) GOTO 0x0279
     0x0271 [0x08] ExtData[1]->WorkLocal[1] -= 1*
     0x0276 [0x01] GOTO 0x027E
     0x0279 [0x08] ExtData[1]->WorkLocal[1] -= 2*
     0x027E [0x14] ExtData[1]->WorkLocal[1] *= 10*
     0x0283 [0x07] ExtData[1]->WorkLocal[1] += 140*
     0x0288 [0x1B] RETURN
     0x0289 [0x03] ExtData[1]->WorkLocal[1] = ExtData[1]->WorkLocal[0]
     0x028E [0x02] IF !(ExtData[1]->WorkLocal[1] > 5*) GOTO 0x029E
     0x0296 [0x08] ExtData[1]->WorkLocal[1] -= 1*
     0x029B [0x01] GOTO 0x02A3
     0x029E [0x08] ExtData[1]->WorkLocal[1] -= 2*
     0x02A3 [0x14] ExtData[1]->WorkLocal[1] *= 10*
     0x02A8 [0x07] ExtData[1]->WorkLocal[1] += 210*
     0x02AD [0x1B] RETURN
```

### Event 65535.1

#### Metadata

| Field        | Value   |
|--------------|---------|
| Entrypoint   | 0x02AE  |
| Data Size    | 6 bytes |
| Instructions | 2       |

```
      00 01 02 03 04 05 06 07  08 09 0A 0B 0C 0D 0E 0F
      -- -- -- -- -- -- -- --  -- -- -- -- -- -- -- --
02A0:                                            03 02                ..
02B0: 10 0B 7F 00                                       ....            
```

#### Opcodes

```
  0: 0x02AE [0x03] Work_Zone[2] = (Entity->Render.Flags01 >> 25) & 1
  1: 0x02B3 [0x00] END_REQSTACK()
```

### Event 65535.2

#### Metadata

| Field        | Value   |
|--------------|---------|
| Entrypoint   | 0x02B4  |
| Data Size    | 6 bytes |
| Instructions | 2       |

```
      00 01 02 03 04 05 06 07  08 09 0A 0B 0C 0D 0E 0F
      -- -- -- -- -- -- -- --  -- -- -- -- -- -- -- --
02B0:             03 02 10 07  7F 00                        ......      
```

#### Opcodes

```
  0: 0x02B4 [0x03] Work_Zone[2] = Entity->Race
  1: 0x02B9 [0x00] END_REQSTACK()
```

### Event 65535.3

#### Metadata

| Field        | Value   |
|--------------|---------|
| Entrypoint   | 0x02BA  |
| Data Size    | 6 bytes |
| Instructions | 2       |

```
      00 01 02 03 04 05 06 07  08 09 0A 0B 0C 0D 0E 0F
      -- -- -- -- -- -- -- --  -- -- -- -- -- -- -- --
02B0:                                03 09 10 07 7F 00            ......
```

#### Opcodes

```
  0: 0x02BA [0x03] Work_Zone[9] = Entity->Race
  1: 0x02BF [0x00] END_REQSTACK()
```

### Event 65535.4

#### Metadata

| Field        | Value   |
|--------------|---------|
| Entrypoint   | 0x02C0  |
| Data Size    | 6 bytes |
| Instructions | 2       |

```
      00 01 02 03 04 05 06 07  08 09 0A 0B 0C 0D 0E 0F
      -- -- -- -- -- -- -- --  -- -- -- -- -- -- -- --
02C0: 03 09 10 06 7F 00                                 ......          
```

#### Opcodes

```
  0: 0x02C0 [0x03] Work_Zone[9] = Entity->JobId (if LocalPlayer)
  1: 0x02C5 [0x00] END_REQSTACK()
```

### Event 65535.5

#### Metadata

| Field        | Value   |
|--------------|---------|
| Entrypoint   | 0x02C6  |
| Data Size    | 6 bytes |
| Instructions | 2       |

```
      00 01 02 03 04 05 06 07  08 09 0A 0B 0C 0D 0E 0F
      -- -- -- -- -- -- -- --  -- -- -- -- -- -- -- --
02C0:                   03 08  10 06 7F 00                    ......    
```

#### Opcodes

```
  0: 0x02C6 [0x03] Work_Zone[8] = Entity->JobId (if LocalPlayer)
  1: 0x02CB [0x00] END_REQSTACK()
```

### Event 65535.6

#### Metadata

| Field        | Value    |
|--------------|----------|
| Entrypoint   | 0x02CC   |
| Data Size    | 10 bytes |
| Instructions | 2        |

```
      00 01 02 03 04 05 06 07  08 09 0A 0B 0C 0D 0E 0F
      -- -- -- -- -- -- -- --  -- -- -- -- -- -- -- --
02C0:                                      37 43 80 44              7C.D
02D0: 80 02 80 45 80 00                                 ...E..          
```

#### Opcodes

```
  0: 0x02CC [0x37] UPDATE_EVENT_POSITION_AND_DIR: x=184.946*, z=-116.282*, y=-2.663*, direction=11.8°*
  1: 0x02D5 [0x00] END_REQSTACK()
```

### Event 65535.7

#### Metadata

| Field        | Value    |
|--------------|----------|
| Entrypoint   | 0x02D6   |
| Data Size    | 10 bytes |
| Instructions | 2        |

```
      00 01 02 03 04 05 06 07  08 09 0A 0B 0C 0D 0E 0F
      -- -- -- -- -- -- -- --  -- -- -- -- -- -- -- --
02D0:                   37 46  80 47 80 48 80 49 80 00        7F.G.H.I..
```

#### Opcodes

```
  0: 0x02D6 [0x37] UPDATE_EVENT_POSITION_AND_DIR: x=187.560*, z=-381.960*, y=1.502*, direction=77.8°*
  1: 0x02DF [0x00] END_REQSTACK()
```

### Event 65535.8

#### Metadata

| Field        | Value    |
|--------------|----------|
| Entrypoint   | 0x02E0   |
| Data Size    | 27 bytes |
| Instructions | 5        |

```
      00 01 02 03 04 05 06 07  08 09 0A 0B 0C 0D 0E 0F
      -- -- -- -- -- -- -- --  -- -- -- -- -- -- -- --
02E0: 03 00 00 07 7F 1A 3F 02  0B 01 00 66 01 00 F8 FF  ......?....f....
02F0: FF 7F F8 FF FF 7F 70 61  73 30 00                 ......pas0.     
```

#### Opcodes

```
  0: 0x02E0 [0x03] ExtData[1]->WorkLocal[0] = Entity->Race
  1: 0x02E5 [0x1A] CALL_SUBROUTINE(address=0x023F)
  2: 0x02E8 [0x0B] ExtData[1]->WorkLocal[1]++
  3: 0x02EB [0x66] LOAD_EXT_SCHEDULER_MAIN: Load scheduler "pas0" with entities [EventEntity, EventEntity], work=ExtData[1]->WorkLocal[1]
  4: 0x02FA [0x00] END_REQSTACK()
```

### Event 65535.9

#### Metadata

| Field        | Value    |
|--------------|----------|
| Entrypoint   | 0x02FB   |
| Data Size    | 42 bytes |
| Instructions | 6        |

```
      00 01 02 03 04 05 06 07  08 09 0A 0B 0C 0D 0E 0F
      -- -- -- -- -- -- -- --  -- -- -- -- -- -- -- --
02F0:                                   03 00 00 07 7F             .....
0300: 1A 1A 02 66 01 00 F8 FF  FF 7F F8 FF FF 7F 74 6C  ...f..........tl
0310: 6B 30 1C 39 80 66 01 00  F8 FF FF 7F F8 FF FF 7F  k0.9.f..........
0320: 74 6C 6B 31 00                                    tlk1.           
```

#### Opcodes

```
  0: 0x02FB [0x03] ExtData[1]->WorkLocal[0] = Entity->Race
  1: 0x0300 [0x1A] CALL_SUBROUTINE(address=0x021A)
  2: 0x0303 [0x66] LOAD_EXT_SCHEDULER_MAIN: Load scheduler "tlk0" with entities [EventEntity, EventEntity], work=ExtData[1]->WorkLocal[1]
  3: 0x0312 [0x1C] WAIT(60* ticks)
  4: 0x0315 [0x66] LOAD_EXT_SCHEDULER_MAIN: Load scheduler "tlk1" with entities [EventEntity, EventEntity], work=ExtData[1]->WorkLocal[1]
  5: 0x0324 [0x00] END_REQSTACK()
```
