# Event 111

## Metadata

| Field           | Value    |
|-----------------|----------|
| Event Index     | 29/49    |
| Offset          | 0x0226   |
| Data Size       | 33 bytes |
| Calculated Size | 33 bytes |
| Instructions    | 12       |

```
      00 01 02 03 04 05 06 07  08 09 0A 0B 0C 0D 0E 0F
      -- -- -- -- -- -- -- --  -- -- -- -- -- -- -- --
0220:                   1E F0  FF FF 7F 6F 70 29 08 24        .....op).$
0230: 20 0F 01 09 1D 0A 80 23  29 08 24 20 0F 01 0A 1D   ......#).$ ....
0240: 0B 80 23 20 00 21 00                              ..# .!.         
```

## Opcodes

```
  0: 0x0226 [0x1E] EventEntity looks at LocalPlayer and starts talking
  1: 0x022B [0x6F] WAIT_FRAME_DELAY: Yield until WaitTime reaches zero
  2: 0x022C [0x70] WAIT_ENTITY_RENDER_FLAG: Wait while EventEntity->Render.Flags3 bit 2 is set (cancel turn if not)
  3: 0x022D [0x29] REQ_SET_WAIT(priority=0x08, entity_id=Ufu Koromoa (ID: 17768484/0x010F2024), tag_num=0x09)
  4: 0x0234 [0x1D] PRINT_EVENT_MESSAGE(message_id=185*)
    → "Don't let Lady Semih Lafihna hearrr I said this, but I don't think that little Tarutaru was one hundred percent wrong.\u007F1\u0000\u0007"
  5: 0x0237 [0x23] WAIT_FOR_DIALOG_INTERACTION
  6: 0x0238 [0x29] REQ_SET_WAIT(priority=0x08, entity_id=Ufu Koromoa (ID: 17768484/0x010F2024), tag_num=0x0A)
  7: 0x023F [0x1D] PRINT_EVENT_MESSAGE(message_id=186*)
    → "Both sides are thinking of Windurst's futurrre... I just wish therrre was some way we could be on the same side.\u007F1\u0000\u0007"
  8: 0x0242 [0x23] WAIT_FOR_DIALOG_INTERACTION
  9: 0x0243 [0x20] SET_CLI_EVENT_UC_FLAG: Unlock player control
 10: 0x0245 [0x21] END_EVENT
 11: 0x0246 [0x00] END_REQSTACK()
```
