# Event 377

## Metadata

| Field           | Value    |
|-----------------|----------|
| Event Index     | 46/49    |
| Offset          | 0x0490   |
| Data Size       | 29 bytes |
| Calculated Size | 29 bytes |
| Instructions    | 10       |

```
      00 01 02 03 04 05 06 07  08 09 0A 0B 0C 0D 0E 0F
      -- -- -- -- -- -- -- --  -- -- -- -- -- -- -- --
0490: 1E F0 FF FF 7F 6F 70 29  08 24 20 0F 01 13 1D 26  .....op).$ ....&
04A0: 80 23 29 08 24 20 0F 01  14 20 00 21 00           .#).$ ... .!.   
```

## Opcodes

```
  0: 0x0490 [0x1E] EventEntity looks at LocalPlayer and starts talking
  1: 0x0495 [0x6F] WAIT_FRAME_DELAY: Yield until WaitTime reaches zero
  2: 0x0496 [0x70] WAIT_ENTITY_RENDER_FLAG: Wait while EventEntity->Render.Flags3 bit 2 is set (cancel turn if not)
  3: 0x0497 [0x29] REQ_SET_WAIT(priority=0x08, entity_id=Ufu Koromoa (ID: 17768484/0x010F2024), tag_num=0x13)
  4: 0x049E [0x1D] PRINT_EVENT_MESSAGE(message_id=8452*)
    → "Semih Lafihna awaits you in the Star Sibyl's chamberrrs.\u007F1\u0000\u0007"
  5: 0x04A1 [0x23] WAIT_FOR_DIALOG_INTERACTION
  6: 0x04A2 [0x29] REQ_SET_WAIT(priority=0x08, entity_id=Ufu Koromoa (ID: 17768484/0x010F2024), tag_num=0x14)
  7: 0x04A9 [0x20] SET_CLI_EVENT_UC_FLAG: Unlock player control
  8: 0x04AB [0x21] END_EVENT
  9: 0x04AC [0x00] END_REQSTACK()
```
