# Event 65535

## Metadata

| Field           | Value    |
|-----------------|----------|
| Event Index     | 98/102   |
| Offset          | 0x0661   |
| Data Size       | 71 bytes |
| Calculated Size | 71 bytes |
| Instructions    | 9        |

```
      00 01 02 03 04 05 06 07  08 09 0A 0B 0C 0D 0E 0F
      -- -- -- -- -- -- -- --  -- -- -- -- -- -- -- --
0660:    32 04 80 1F 00 2F 80  30 80 1F 80 1F 01 6F 5B   2..../.0.....o[
0670: 01 80 F8 FF FF 7F F8 FF  FF 7F 6B 79 6F 30 53 F8  ..........kyo0S.
0680: FF FF 7F F8 FF FF 7F 6B  79 6F 30 5B 01 80 F8 FF  .......kyo0[....
0690: FF 7F F8 FF FF 7F 6B 79  6F 31 53 F8 FF FF 7F F8  ......kyo1S.....
06A0: FF FF 7F 6B 79 6F 31 00                           ...kyo1.        
```

## Opcodes

```
  0: 0x0661 [0x32] ExtData[1]->MainSpeed = 40* * 0.1
  1: 0x0664 [0x1F] MOVE_ENTITY: EventEntity moves to X=10.427*, Z=-0.677*, Y=-7.199*
  2: 0x066C [0x1F] MOVE_ENTITY: Update entity position (mode=1)
  3: 0x066E [0x6F] WAIT_FRAME_DELAY: Yield until WaitTime reaches zero
  4: 0x066F [0x5B] LOAD_EXT_SCHEDULER(work_offset=2150*, entity1=EventEntity, entity2=EventEntity, action="kyo0")
  5: 0x067E [0x53] WAIT_SCHEDULER_TASK(entity1=EventEntity, entity2=EventEntity, action_id="kyo0")
  6: 0x068B [0x5B] LOAD_EXT_SCHEDULER(work_offset=2150*, entity1=EventEntity, entity2=EventEntity, action="kyo1")
  7: 0x069A [0x53] WAIT_SCHEDULER_TASK(entity1=EventEntity, entity2=EventEntity, action_id="kyo1")
  8: 0x06A7 [0x00] END_REQSTACK()
```
