# 17776686 - Bheem

## Common Data

| Field            | Value                 |
|------------------|-----------------------|
| Zone             | Upper Jeuno (ID: 244) |
| Block Size       | 21228 bytes           |
| Total Events     | 8                     |
| References Count | 288                   |

## List of Events

| Event ID              | Entrypoint   |   Size |   Instructions |
|-----------------------|--------------|--------|----------------|
| [65535](#event-65535) | 0x0000       |      1 |              1 |
| [157](#event-157)     | 0x0001       |     60 |             12 |
| [10037](#event-10037) | 0x003D       |     11 |              5 |
| [10036](#event-10036) | 0x0048       |    289 |             66 |
| [10171](#event-10171) | 0x0169       |    252 |             57 |
| [10038](#event-10038) | 0x0265       |      1 |              1 |
| [10040](#event-10040) | 0x0266       |    889 |            116 |
| [10054](#event-10054) | 0x05DF       |  18524 |           3182 |

## DAT References (imed_data)

|   Index | Hex Value   |   Dec Value |
|---------|-------------|-------------|
|       0 | 0x0000      |           0 |
|       1 | 0x1DC1      |        7617 |
|       2 | 0x1DC2      |        7618 |
|       3 | 0x2292      |        8850 |
|       4 | 0x2293      |        8851 |
|       5 | 0x0001      |           1 |
|       6 | 0x2294      |        8852 |
|       7 | 0x0002      |           2 |
|       8 | 0x2295      |        8853 |
|       9 | 0x0003      |           3 |
|      10 | 0x2296      |        8854 |
|      11 | 0x0004      |           4 |
|      12 | 0x2297      |        8855 |
|      13 | 0x0005      |           5 |
|      14 | 0x2298      |        8856 |
|      15 | 0x0006      |           6 |
|      16 | 0x2299      |        8857 |
|      17 | 0x0007      |           7 |
|      18 | 0x229A      |        8858 |
|      19 | 0x229B      |        8859 |
|      20 | 0x229C      |        8860 |
|      21 | 0x22A6      |        8870 |
|      22 | 0x229D      |        8861 |
|      23 | 0x229E      |        8862 |
|      24 | 0x229F      |        8863 |
|      25 | 0x22A0      |        8864 |
|      26 | 0x22A1      |        8865 |
|      27 | 0x22A2      |        8866 |
|      28 | 0x22A3      |        8867 |
|      29 | 0x22A4      |        8868 |
|      30 | 0x22A5      |        8869 |
|      31 | 0x00C8      |         200 |
|      32 | 0x0013      |          19 |
|      33 | 0x00BF      |         191 |
|      34 | 0x003C      |          60 |
|      35 | 0x22C6      |        8902 |
|      36 | 0x22C7      |        8903 |
|      37 | 0x22C8      |        8904 |
|      38 | 0x22C9      |        8905 |
|      39 | 0x22CA      |        8906 |
|      40 | 0x22CB      |        8907 |
|      41 | 0x22CC      |        8908 |
|      42 | 0x22CD      |        8909 |
|      43 | 0x22CE      |        8910 |
|      44 | 0x22CF      |        8911 |
|      45 | 0x22D0      |        8912 |
|      46 | 0x22D1      |        8913 |
|      47 | 0x000C      |          12 |
|      48 | 0x0199      |         409 |
|      49 | 0x0022      |          34 |
|      50 | 0x22D2      |        8914 |
|      51 | 0x22D3      |        8915 |
|      52 | 0x0078      |         120 |
|      53 | 0x005F      |          95 |
|      54 | 0x0064      |         100 |
|      55 | 0x0069      |         105 |
|      56 | 0x0052      |          82 |
|      57 | 0x0057      |          87 |
|      58 | 0x005C      |          92 |
|      59 | 0x0059      |          89 |
|      60 | 0x005D      |          93 |
|      61 | 0x0061      |          97 |
|      62 | 0x0060      |          96 |
|      63 | 0x0008      |           8 |
|      64 | 0x0009      |           9 |
|      65 | 0x000A      |          10 |
|      66 | 0x000D      |          13 |
|      67 | 0x0012      |          18 |
|      68 | 0x0014      |          20 |
|      69 | 0x0017      |          23 |
|      70 | 0x000F      |          15 |
|      71 | 0x000E      |          14 |
|      72 | 0x000B      |          11 |
|      73 | 0x0018      |          24 |
|      74 | 0x001F      |          31 |
|      75 | 0x001B      |          27 |
|      76 | 0x0010      |          16 |
|      77 | 0x0015      |          21 |
|      78 | 0x018D      |         397 |
|      79 | 0x0175      |         373 |
|      80 | 0x0170      |         368 |
|      81 | 0x0171      |         369 |
|      82 | 0x014C      |         332 |
|      83 | 0x01C1      |         449 |
|      84 | 0x027C      |         636 |
|      85 | 0x027B      |         635 |
|      86 | 0x027D      |         637 |
|      87 | 0x02D3      |         723 |
|      88 | 0x0321      |         801 |
|      89 | 0x0326      |         806 |
|      90 | 0x01E1      |         481 |
|      91 | 0x0343      |         835 |
|      92 | 0x0386      |         902 |
|      93 | 0x0388      |         904 |
|      94 | 0x0361      |         865 |
|      95 | 0x0387      |         903 |
|      96 | 0x038A      |         906 |
|      97 | 0x003F      |          63 |
|      98 | 0x0282      |         642 |
|      99 | 0x0283      |         643 |
|     100 | 0x0288      |         648 |
|     101 | 0x0289      |         649 |
|     102 | 0x028A      |         650 |
|     103 | 0x028B      |         651 |
|     104 | 0x029E      |         670 |
|     105 | 0x0019      |          25 |
|     106 | 0x00C6      |         198 |
|     107 | 0x0032      |          50 |
|     108 | 0x00B5      |         181 |
|     109 | 0x008C      |         140 |
|     110 | 0x008E      |         142 |
|     111 | 0x007A      |         122 |
|     112 | 0x014B      |         331 |
|     113 | 0x0148      |         328 |
|     114 | 0x0166      |         358 |
|     115 | 0x017A      |         378 |
|     116 | 0x0182      |         386 |
|     117 | 0x0183      |         387 |
|     118 | 0x0192      |         402 |
|     119 | 0x01DF      |         479 |
|     120 | 0x01E9      |         489 |
|     121 | 0x001C      |          28 |
|     122 | 0x00E6      |         230 |
|     123 | 0x00EB      |         235 |
|     124 | 0x00F5      |         245 |
|     125 | 0x007E      |         126 |
|     126 | 0x007F      |         127 |
|     127 | 0x00F3      |         243 |
|     128 | 0x00F4      |         244 |
|     129 | 0x00E0      |         224 |
|     130 | 0x00E9      |         233 |
|     131 | 0x009E      |         158 |
|     132 | 0x009D      |         157 |
|     133 | 0x00E2      |         226 |
|     134 | 0x00E1      |         225 |
|     135 | 0x014F      |         335 |
|     136 | 0x014E      |         334 |
|     137 | 0x0167      |         359 |
|     138 | 0x00E5      |         229 |
|     139 | 0x0169      |         361 |
|     140 | 0x016A      |         362 |
|     141 | 0x0168      |         360 |
|     142 | 0x0133      |         307 |
|     143 | 0x0174      |         372 |
|     144 | 0x018C      |         396 |
|     145 | 0x0194      |         404 |
|     146 | 0x0195      |         405 |
|     147 | 0x0178      |         376 |
|     148 | 0x0240      |         576 |
|     149 | 0x0197      |         407 |
|     150 | 0x0198      |         408 |
|     151 | 0x01A3      |         419 |
|     152 | 0x019E      |         414 |
|     153 | 0x0246      |         582 |
|     154 | 0x0247      |         583 |
|     155 | 0x0248      |         584 |
|     156 | 0x024B      |         587 |
|     157 | 0x024A      |         586 |
|     158 | 0x0011      |          17 |
|     159 | 0x024F      |         591 |
|     160 | 0x01C3      |         451 |
|     161 | 0x01C4      |         452 |
|     162 | 0x01EF      |         495 |
|     163 | 0x01F0      |         496 |
|     164 | 0x001A      |          26 |
|     165 | 0x0095      |         149 |
|     166 | 0x001D      |          29 |
|     167 | 0x0073      |         115 |
|     168 | 0x0034      |          52 |
|     169 | 0x0024      |          36 |
|     170 | 0x005E      |          94 |
|     171 | 0x0072      |         114 |
|     172 | 0x0031      |          49 |
|     173 | 0x006C      |         108 |
|     174 | 0x003A      |          58 |
|     175 | 0x0096      |         150 |
|     176 | 0x0016      |          22 |
|     177 | 0x0035      |          53 |
|     178 | 0x0085      |         133 |
|     179 | 0x0081      |         129 |
|     180 | 0x0023      |          35 |
|     181 | 0x0033      |          51 |
|     182 | 0x0082      |         130 |
|     183 | 0x0039      |          57 |
|     184 | 0x0020      |          32 |
|     185 | 0x0038      |          56 |
|     186 | 0x0036      |          54 |
|     187 | 0x0083      |         131 |
|     188 | 0x00A2      |         162 |
|     189 | 0x0021      |          33 |
|     190 | 0x0065      |         101 |
|     191 | 0x0086      |         134 |
|     192 | 0x0062      |          98 |
|     193 | 0x008D      |         141 |
|     194 | 0x0037      |          55 |
|     195 | 0x008A      |         138 |
|     196 | 0x008B      |         139 |
|     197 | 0x002B      |          43 |
|     198 | 0x0067      |         103 |
|     199 | 0x0030      |          48 |
|     200 | 0x002D      |          45 |
|     201 | 0x00A1      |         161 |
|     202 | 0x0066      |         102 |
|     203 | 0x0075      |         117 |
|     204 | 0x0068      |         104 |
|     205 | 0x007B      |         123 |
|     206 | 0x0077      |         119 |
|     207 | 0x01FE      |         510 |
|     208 | 0x009F      |         159 |
|     209 | 0x00A4      |         164 |
|     210 | 0x00A9      |         169 |
|     211 | 0x00AC      |         172 |
|     212 | 0x00B2      |         178 |
|     213 | 0x00B0      |         176 |
|     214 | 0x013D      |         317 |
|     215 | 0x0108      |         264 |
|     216 | 0x010C      |         268 |
|     217 | 0x0100      |         256 |
|     218 | 0x00FB      |         251 |
|     219 | 0x00B8      |         184 |
|     220 | 0x011C      |         284 |
|     221 | 0x0041      |          65 |
|     222 | 0x0042      |          66 |
|     223 | 0x0047      |          71 |
|     224 | 0x0160      |         352 |
|     225 | 0x0043      |          67 |
|     226 | 0x0048      |          72 |
|     227 | 0x004B      |          75 |
|     228 | 0x004C      |          76 |
|     229 | 0x004D      |          77 |
|     230 | 0x005B      |          91 |
|     231 | 0x0058      |          88 |
|     232 | 0x0053      |          83 |
|     233 | 0x0054      |          84 |
|     234 | 0x0161      |         353 |
|     235 | 0x015C      |         348 |
|     236 | 0x016D      |         365 |
|     237 | 0x00C5      |         197 |
|     238 | 0x00C3      |         195 |
|     239 | 0x00C7      |         199 |
|     240 | 0x015E      |         350 |
|     241 | 0x00C4      |         196 |
|     242 | 0x016E      |         366 |
|     243 | 0x00D0      |         208 |
|     244 | 0x00CD      |         205 |
|     245 | 0x00CA      |         202 |
|     246 | 0x00D2      |         210 |
|     247 | 0x00D8      |         216 |
|     248 | 0x00D5      |         213 |
|     249 | 0x00D6      |         214 |
|     250 | 0x013B      |         315 |
|     251 | 0x0136      |         310 |
|     252 | 0x013A      |         314 |
|     253 | 0x0137      |         311 |
|     254 | 0x016F      |         367 |
|     255 | 0x0138      |         312 |
|     256 | 0x0139      |         313 |
|     257 | 0x009A      |         154 |
|     258 | 0x0091      |         145 |
|     259 | 0x009B      |         155 |
|     260 | 0x0099      |         153 |
|     261 | 0x0093      |         147 |
|     262 | 0x0092      |         146 |
|     263 | 0x0098      |         152 |
|     264 | 0x0071      |         113 |
|     265 | 0x00E8      |         232 |
|     266 | 0x00DD      |         221 |
|     267 | 0x00F8      |         248 |
|     268 | 0x00F1      |         241 |
|     269 | 0x0124      |         292 |
|     270 | 0x012E      |         302 |
|     271 | 0x0129      |         297 |
|     272 | 0x0122      |         290 |
|     273 | 0x0132      |         306 |
|     274 | 0x0126      |         294 |
|     275 | 0x0155      |         341 |
|     276 | 0x0025      |          37 |
|     277 | 0x0029      |          41 |
|     278 | 0x0028      |          40 |
|     279 | 0x007D      |         125 |
|     280 | 0x0079      |         121 |
|     281 | 0x007C      |         124 |
|     282 | 0x0074      |         116 |
|     283 | 0x00EC      |         236 |
|     284 | 0x019C      |         412 |
|     285 | 0x0193      |         403 |
|     286 | 0x01C6      |         454 |
|     287 | 0x01C7      |         455 |

## String References

- **7617**: Welcome to Upper Jeuno! This neighborhood lacks pizzaz, but more than makes up for it with its great industrial enterprises.
- **7618**: A lot of stubborn people live here, but don't worry, since they're nice once you get to know them.
- **8850**: You say you're searching for someone? Well, a lot of people pass through this place. I'm going to need more than just a name.
- **8851**: So this person you're looking for is a guy with [/a beard/bristly hair/hair parted in the middle] by the name of [Feliz/Ferdinand/Gunnar/Massimo/Oldrich/Siegward/Theobald/Zenji]...?
- **8852**: So this person you're looking for is a girl with [/bangs to her eyes/shoulder-length hair/a ponytail] by the name of [Amerita/Beatrice/Henrietta/Jesimae/Karyn/Nanako/Sharlene/Sieghilde]...?
- **8853**: So this person you're looking for is a guy with [/long sideburns/a beard/bangs to his eyes] by the name of [Chanandit/Deulmaeux/Demresinaux/Ephealgaux/Gauldeval/Grauffemart/Migaifongut/Romidiant]...?
- **8854**: So this person you're looking for is a girl with [/hair parted in the middle, one side longer than the other/long bangs/pigtails] by the name of [Armittie/Cadepure/Clearite/Epilleve/Liabelle/Nauthima/Radille/Vimechue]...?
- **8855**: So this person you're looking for is a guy with [/a topknot/messy hair/tied-back hair] by the name of [Balu-Falu/Burg-Ladarg/Ehgo-Ryuhgo/Kolui-Pelui/Nokum-Akkum/Savul-Kivul/Vinja-Kanja/Yarga-Umiga]...?
- **8856**: So this person you're looking for is a girl with [/neatly trimmed bangs/bangs on one side/hair parted in the middle] by the name of [Cupapa/Jajuju/Kalokoko/Mahoyaya/Pakurara/Ripokeke/Yawawa/Yufafa]...?
- **8857**: So this person you're looking for is a girl with [/her hair tied up/parted bangs/tied-back hair] by the name of [Fhig Lahrv/Khuma Tagyawhan/Pimy Kettihl/Raka Maimhov/Sahyu Banjyao/Sufhi Uchnouma/Tsuim Nhomango/Yoli Kohlpaka]...?
- **8858**: So this person you're looking for is a guy with [/swept-back hair/hair standing straight up/a full beard] by the name of [Durib/Dzapiwa/Jugowa/Mugido/Voldai/Wagwei/Zayag/Zoldof]...?
- **8859**: By the way, this person's hair wouldn't happen to be my favorite color, would it?
- **8860**: Is it his favorite color? [Could be./Not likely.]
- **8861**: So this person you're looking for is [on the short side/of average height/pretty tall], and comes across as [neutral/a sullen/a passionate/a calm and collected/a serious/a sisterly/a lively/an agreeable/a naive/a serious/a childish/a suave/a domineering] type.
- **8862**: What about his looks? I see, I see... And goes by the name of [Feliz/Ferdinand/Gunnar/Massimo/Oldrich/Siegward/Theobald/Zenji]...
- **8863**: What about her looks? I see, I see... And goes by the name of [Amerita/Beatrice/Henrietta/Jesimae/Karyn/Nanako/Sharlene/Sieghilde]...
- **8864**: What about his looks? I see, I see... And goes by the name of [Chanandit/Deulmaeux/Demresinaux/Ephealgaux/Gauldeval/Grauffemart/Migaifongut/Romidiant]...
- **8865**: What about her looks? I see, I see... And goes by the name of [Armittie/Cadepure/Clearite/Epilleve/Liabelle/Nauthima/Radille/Vimechue]...
- **8866**: What about his looks? I see, I see... And goes by the name of [Balu-Falu/Burg-Ladarg/Ehgo-Ryuhgo/Kolui-Pelui/Nokum-Akkum/Savul-Kivul/Vinja-Kanja/Yarga-Umiga]...
- **8867**: What about her looks? I see, I see... And goes by the name of [Cupapa/Jajuju/Kalokoko/Mahoyaya/Pakurara/Ripokeke/Yawawa/Yufafa]...
- **8868**: What about her looks? I see, I see... And goes by the name of [Fhig Lahrv/Khuma Tagyawhan/Pimy Kettihl/Raka Maimhov/Sahyu Banjyao/Sufhi Uchnouma/Tsuim Nhomango/Yoli Kohlpaka]...
- **8869**: What about his looks? I see, I see... And goes by the name of [Durib/Dzapiwa/Jugowa/Mugido/Voldai/Wagwei/Zayag/Zoldof]...
- **8870**: Now that you mention it, I might have seen the person you're looking for. An adventurer, right?

## Events

### Event 65535

#### Metadata

| Field        | Value   |
|--------------|---------|
| Entrypoint   | 0x0000  |
| Data Size    | 1 bytes |
| Instructions | 1       |

```
      00 01 02 03 04 05 06 07  08 09 0A 0B 0C 0D 0E 0F
      -- -- -- -- -- -- -- --  -- -- -- -- -- -- -- --
0000: 00                                                .               
```

#### Opcodes

```
  0: 0x0000 [0x00] END_REQSTACK()
```

### Event 157

#### Metadata

| Field        | Value    |
|--------------|----------|
| Entrypoint   | 0x0001   |
| Data Size    | 60 bytes |
| Instructions | 12       |

```
      00 01 02 03 04 05 06 07  08 09 0A 0B 0C 0D 0E 0F
      -- -- -- -- -- -- -- --  -- -- -- -- -- -- -- --
0000:    1E F0 FF FF 7F 6F 70  66 00 80 F8 FF FF 7F F8   .....opf.......
0010: FF FF 7F 74 6C 6B 30 1D  01 80 23 1D 02 80 23 66  ...tlk0...#...#f
0020: 00 80 F8 FF FF 7F F8 FF  FF 7F 74 65 6E 30 53 F8  ..........ten0S.
0030: FF FF 7F F8 FF FF 7F 74  65 6E 30 21 00           .......ten0!.   
```

#### Opcodes

```
  0: 0x0001 [0x1E] EventEntity looks at LocalPlayer and starts talking
  1: 0x0006 [0x6F] WAIT_FRAME_DELAY: Yield until WaitTime reaches zero
  2: 0x0007 [0x70] WAIT_ENTITY_RENDER_FLAG: Wait while EventEntity->Render.Flags3 bit 2 is set (cancel turn if not)
  3: 0x0008 [0x66] LOAD_EXT_SCHEDULER_MAIN: Load scheduler "tlk0" with entities [EventEntity, EventEntity], work=0*
  4: 0x0017 [0x1D] PRINT_EVENT_MESSAGE(message_id=7617*)
    → "Welcome to Upper Jeuno! This neighborhood lacks pizzaz, but more than makes up for it with its great industrial enterprises."
  5: 0x001A [0x23] WAIT_FOR_DIALOG_INTERACTION
  6: 0x001B [0x1D] PRINT_EVENT_MESSAGE(message_id=7618*)
    → "A lot of stubborn people live here, but don't worry, since they're nice once you get to know them."
  7: 0x001E [0x23] WAIT_FOR_DIALOG_INTERACTION
  8: 0x001F [0x66] LOAD_EXT_SCHEDULER_MAIN: Load scheduler "ten0" with entities [EventEntity, EventEntity], work=0*
  9: 0x002E [0x53] WAIT_SCHEDULER_TASK: Wait for scheduler "ten0" with entities [EventEntity, EventEntity]
 10: 0x003B [0x21] END_EVENT
 11: 0x003C [0x00] END_REQSTACK()
```

### Event 10037

#### Metadata

| Field        | Value    |
|--------------|----------|
| Entrypoint   | 0x003D   |
| Data Size    | 11 bytes |
| Instructions | 5        |

```
      00 01 02 03 04 05 06 07  08 09 0A 0B 0C 0D 0E 0F
      -- -- -- -- -- -- -- --  -- -- -- -- -- -- -- --
0030:                                         1E F0 FF               ...
0040: FF 7F 1D 03 80 23 21 00                           .....#!.        
```

#### Opcodes

```
  0: 0x003D [0x1E] EventEntity looks at LocalPlayer and starts talking
  1: 0x0042 [0x1D] PRINT_EVENT_MESSAGE(message_id=8850*)
    → "You say you're searching for someone? Well, a lot of people pass through this place. I'm going to need more than just a name."
  2: 0x0045 [0x23] WAIT_FOR_DIALOG_INTERACTION
  3: 0x0046 [0x21] END_EVENT
  4: 0x0047 [0x00] END_REQSTACK()
```

### Event 10036

#### Metadata

| Field        | Value     |
|--------------|-----------|
| Entrypoint   | 0x0048    |
| Data Size    | 289 bytes |
| Instructions | 66        |

```
      00 01 02 03 04 05 06 07  08 09 0A 0B 0C 0D 0E 0F
      -- -- -- -- -- -- -- --  -- -- -- -- -- -- -- --
0040:                          42 1E F0 FF FF 7F 6F 70          B.....op
0050: 1A 2B 1A 03 02 10 02 00  1A 35 1A 1A 0C 1B 03 03  .+.......5......
0060: 10 07 00 66 00 80 F8 FF  FF 7F F8 FF FF 7F 74 68  ...f..........th
0070: 6B 31 02 0C 00 00 80 80  81 00 1D 04 80 23 01 EA  k1...........#..
0080: 00 02 0C 00 05 80 80 90  00 1D 06 80 23 01 EA 00  ............#...
0090: 02 0C 00 07 80 80 9F 00  1D 08 80 23 01 EA 00 02  ...........#....
00A0: 0C 00 09 80 80 AE 00 1D  0A 80 23 01 EA 00 02 0C  ..........#.....
00B0: 00 0B 80 80 BD 00 1D 0C  80 23 01 EA 00 02 0C 00  .........#......
00C0: 0D 80 80 CC 00 1D 0E 80  23 01 EA 00 02 0C 00 0F  ........#.......
00D0: 80 80 DB 00 1D 10 80 23  01 EA 00 02 0C 00 11 80  .......#........
00E0: 80 EA 00 1D 12 80 23 01  EA 00 53 F8 FF FF 7F F8  ......#...S.....
00F0: FF FF 7F 74 68 6B 31 66  00 80 F8 FF FF 7F F8 FF  ...thk1f........
0100: FF 7F 74 68 6B 32 1D 13  80 23 24 14 80 00 80 00  ..thk2...#$.....
0110: 80 25 02 00 10 00 80 00  26 01 03 01 10 00 80 43  .%......&......C
0120: 00 43 01 01 3A 01 02 00  10 05 80 00 3A 01 03 01  .C..:.......:...
0130: 10 05 80 43 00 43 01 01  3A 01 53 F8 FF FF 7F F8  ...C.C..:.S.....
0140: FF FF 7F 74 68 6B 32 66  00 80 F8 FF FF 7F F8 FF  ...thk2f........
0150: FF 7F 74 6C 6B 30 1D 15  80 23 27 0A 8F 40 0F 01  ..tlk0...#'..@..
0160: 03 2A 0A 8F 40 0F 01 21  00                       .*..@..!.       
```

#### Opcodes

```
  0: 0x0048 [0x42] SET_CLI_EVENT_CANCEL_DATA()
  1: 0x0049 [0x1E] EventEntity looks at LocalPlayer and starts talking
  2: 0x004E [0x6F] WAIT_FRAME_DELAY: Yield until WaitTime reaches zero
  3: 0x004F [0x70] WAIT_ENTITY_RENDER_FLAG: Wait while EventEntity->Render.Flags3 bit 2 is set (cancel turn if not)
  4: 0x0050 [0x1A] CALL_SUBROUTINE(address=0x1A2B)
  5: 0x0053 [0x03] Work_Zone[2] = ExtData[1]->WorkLocal[2]
  6: 0x0058 [0x1A] CALL_SUBROUTINE(address=0x1A35)
  7: 0x005B [0x1A] CALL_SUBROUTINE(address=0x1B0C)
  8: 0x005E [0x03] Work_Zone[3] = ExtData[1]->WorkLocal[7]
  9: 0x0063 [0x66] LOAD_EXT_SCHEDULER_MAIN: Load scheduler "thk1" with entities [EventEntity, EventEntity], work=0*
 10: 0x0072 [0x02] IF !(ExtData[1]->WorkLocal[12] == 0*) GOTO 0x0081
 11: 0x007A [0x1D] PRINT_EVENT_MESSAGE(message_id=8851*)
    → "So this person you're looking for is a guy with [/a beard/bristly hair/hair parted in the middle] by the name of [Feliz/Ferdinand/Gunnar/Massimo/Oldrich/Siegward/Theobald/Zenji]...?"
 12: 0x007D [0x23] WAIT_FOR_DIALOG_INTERACTION
 13: 0x007E [0x01] GOTO 0x00EA
 14: 0x0081 [0x02] IF !(ExtData[1]->WorkLocal[12] == 1*) GOTO 0x0090
 15: 0x0089 [0x1D] PRINT_EVENT_MESSAGE(message_id=8852*)
    → "So this person you're looking for is a girl with [/bangs to her eyes/shoulder-length hair/a ponytail] by the name of [Amerita/Beatrice/Henrietta/Jesimae/Karyn/Nanako/Sharlene/Sieghilde]...?"
 16: 0x008C [0x23] WAIT_FOR_DIALOG_INTERACTION
 17: 0x008D [0x01] GOTO 0x00EA
 18: 0x0090 [0x02] IF !(ExtData[1]->WorkLocal[12] == 2*) GOTO 0x009F
 19: 0x0098 [0x1D] PRINT_EVENT_MESSAGE(message_id=8853*)
    → "So this person you're looking for is a guy with [/long sideburns/a beard/bangs to his eyes] by the name of [Chanandit/Deulmaeux/Demresinaux/Ephealgaux/Gauldeval/Grauffemart/Migaifongut/Romidiant]...?"
 20: 0x009B [0x23] WAIT_FOR_DIALOG_INTERACTION
 21: 0x009C [0x01] GOTO 0x00EA
 22: 0x009F [0x02] IF !(ExtData[1]->WorkLocal[12] == 3*) GOTO 0x00AE
 23: 0x00A7 [0x1D] PRINT_EVENT_MESSAGE(message_id=8854*)
    → "So this person you're looking for is a girl with [/hair parted in the middle, one side longer than the other/long bangs/pigtails] by the name of [Armittie/Cadepure/Clearite/Epilleve/Liabelle/Nauthima/Radille/Vimechue]...?"
 24: 0x00AA [0x23] WAIT_FOR_DIALOG_INTERACTION
 25: 0x00AB [0x01] GOTO 0x00EA
 26: 0x00AE [0x02] IF !(ExtData[1]->WorkLocal[12] == 4*) GOTO 0x00BD
 27: 0x00B6 [0x1D] PRINT_EVENT_MESSAGE(message_id=8855*)
    → "So this person you're looking for is a guy with [/a topknot/messy hair/tied-back hair] by the name of [Balu-Falu/Burg-Ladarg/Ehgo-Ryuhgo/Kolui-Pelui/Nokum-Akkum/Savul-Kivul/Vinja-Kanja/Yarga-Umiga]...?"
 28: 0x00B9 [0x23] WAIT_FOR_DIALOG_INTERACTION
 29: 0x00BA [0x01] GOTO 0x00EA
 30: 0x00BD [0x02] IF !(ExtData[1]->WorkLocal[12] == 5*) GOTO 0x00CC
 31: 0x00C5 [0x1D] PRINT_EVENT_MESSAGE(message_id=8856*)
    → "So this person you're looking for is a girl with [/neatly trimmed bangs/bangs on one side/hair parted in the middle] by the name of [Cupapa/Jajuju/Kalokoko/Mahoyaya/Pakurara/Ripokeke/Yawawa/Yufafa]...?"
 32: 0x00C8 [0x23] WAIT_FOR_DIALOG_INTERACTION
 33: 0x00C9 [0x01] GOTO 0x00EA
 34: 0x00CC [0x02] IF !(ExtData[1]->WorkLocal[12] == 6*) GOTO 0x00DB
 35: 0x00D4 [0x1D] PRINT_EVENT_MESSAGE(message_id=8857*)
    → "So this person you're looking for is a girl with [/her hair tied up/parted bangs/tied-back hair] by the name of [Fhig Lahrv/Khuma Tagyawhan/Pimy Kettihl/Raka Maimhov/Sahyu Banjyao/Sufhi Uchnouma/Tsuim Nhomango/Yoli Kohlpaka]...?"
 36: 0x00D7 [0x23] WAIT_FOR_DIALOG_INTERACTION
 37: 0x00D8 [0x01] GOTO 0x00EA
 38: 0x00DB [0x02] IF !(ExtData[1]->WorkLocal[12] == 7*) GOTO 0x00EA
 39: 0x00E3 [0x1D] PRINT_EVENT_MESSAGE(message_id=8858*)
    → "So this person you're looking for is a guy with [/swept-back hair/hair standing straight up/a full beard] by the name of [Durib/Dzapiwa/Jugowa/Mugido/Voldai/Wagwei/Zayag/Zoldof]...?"
 40: 0x00E6 [0x23] WAIT_FOR_DIALOG_INTERACTION
 41: 0x00E7 [0x01] GOTO 0x00EA

SUBROUTINE_00EA:
 42: 0x00EA [0x53] WAIT_SCHEDULER_TASK: Wait for scheduler "thk1" with entities [EventEntity, EventEntity]
 43: 0x00F7 [0x66] LOAD_EXT_SCHEDULER_MAIN: Load scheduler "thk2" with entities [EventEntity, EventEntity], work=0*
 44: 0x0106 [0x1D] PRINT_EVENT_MESSAGE(message_id=8859*)
    → "By the way, this person's hair wouldn't happen to be my favorite color, would it?"
 45: 0x0109 [0x23] WAIT_FOR_DIALOG_INTERACTION
 46: 0x010A [0x24] CREATE_DIALOG(message_id=8860*, default_option=0*, option_flags=0*)
    → "Is it his favorite color? [Could be./Not likely.]"
 47: 0x0111 [0x25] WAIT_DIALOG_SELECT()
 48: 0x0112 [0x02] IF !(Work_Zone[0] == 0*) GOTO 0x0126
 49: 0x011A [0x03] Work_Zone[1] = 0*
 50: 0x011F [0x43] SEND_EVENT_UPDATE: Send pending tag to server (packet 0x005B)
 51: 0x0121 [0x43] SEND_EVENT_UPDATE: Check pending flag (skip if not pending)
 52: 0x0123 [0x01] GOTO 0x013A
 53: 0x0126 [0x02] IF !(Work_Zone[0] == 1*) GOTO 0x013A
 54: 0x012E [0x03] Work_Zone[1] = 1*
 55: 0x0133 [0x43] SEND_EVENT_UPDATE: Send pending tag to server (packet 0x005B)
 56: 0x0135 [0x43] SEND_EVENT_UPDATE: Check pending flag (skip if not pending)
 57: 0x0137 [0x01] GOTO 0x013A

SUBROUTINE_013A:
 58: 0x013A [0x53] WAIT_SCHEDULER_TASK: Wait for scheduler "thk2" with entities [EventEntity, EventEntity]
 59: 0x0147 [0x66] LOAD_EXT_SCHEDULER_MAIN: Load scheduler "tlk0" with entities [EventEntity, EventEntity], work=0*
 60: 0x0156 [0x1D] PRINT_EVENT_MESSAGE(message_id=8870*)
    → "Now that you mention it, I might have seen the person you're looking for. An adventurer, right?"
 61: 0x0159 [0x23] WAIT_FOR_DIALOG_INTERACTION
 62: 0x015A [0x27] REQ_SET(priority=0x0A, entity_id=Unnamed NPC (ID: 17776783/0x010F408F), tag_num=0x03)
 63: 0x0161 [0x2A] GET_REQ_LEVEL(level=10, entity_id=Unnamed NPC (ID: 17776783/0x010F408F))
 64: 0x0167 [0x21] END_EVENT
 65: 0x0168 [0x00] END_REQSTACK()
```

### Event 10171

#### Metadata

| Field        | Value     |
|--------------|-----------|
| Entrypoint   | 0x0169    |
| Data Size    | 252 bytes |
| Instructions | 57        |

```
      00 01 02 03 04 05 06 07  08 09 0A 0B 0C 0D 0E 0F
      -- -- -- -- -- -- -- --  -- -- -- -- -- -- -- --
0160:                             42 1E F0 FF FF 7F 6F           B.....o
0170: 70 1A 2B 1A 03 02 10 02  00 1A 16 1B 03 04 10 09  p.+.............
0180: 00 1A 20 1B 0C 0A 00 03  03 10 0A 00 1A 35 1A 66  .. ..........5.f
0190: 00 80 F8 FF FF 7F F8 FF  FF 7F 74 68 6B 31 1D 16  ..........thk1..
01A0: 80 23 02 0C 00 00 80 80  B1 01 1D 17 80 23 01 1A  .#...........#..
01B0: 02 02 0C 00 05 80 80 C0  01 1D 18 80 23 01 1A 02  ............#...
01C0: 02 0C 00 07 80 80 CF 01  1D 19 80 23 01 1A 02 02  ...........#....
01D0: 0C 00 09 80 80 DE 01 1D  1A 80 23 01 1A 02 02 0C  ..........#.....
01E0: 00 0B 80 80 ED 01 1D 1B  80 23 01 1A 02 02 0C 00  .........#......
01F0: 0D 80 80 FC 01 1D 1C 80  23 01 1A 02 02 0C 00 0F  ........#.......
0200: 80 80 0B 02 1D 1D 80 23  01 1A 02 02 0C 00 11 80  .......#........
0210: 80 1A 02 1D 1E 80 23 01  1A 02 53 F8 FF FF 7F F8  ......#...S.....
0220: FF FF 7F 74 68 6B 31 66  00 80 F8 FF FF 7F F8 FF  ...thk1f........
0230: FF 7F 74 68 6B 32 53 F8  FF FF 7F F8 FF FF 7F 74  ..thk2S........t
0240: 68 6B 32 66 00 80 F8 FF  FF 7F F8 FF FF 7F 74 6C  hk2f..........tl
0250: 6B 30 1D 15 80 23 27 0A  8F 40 0F 01 03 2A 0A 8F  k0...#'..@...*..
0260: 40 0F 01 21 00                                    @..!.           
```

#### Opcodes

```
  0: 0x0169 [0x42] SET_CLI_EVENT_CANCEL_DATA()
  1: 0x016A [0x1E] EventEntity looks at LocalPlayer and starts talking
  2: 0x016F [0x6F] WAIT_FRAME_DELAY: Yield until WaitTime reaches zero
  3: 0x0170 [0x70] WAIT_ENTITY_RENDER_FLAG: Wait while EventEntity->Render.Flags3 bit 2 is set (cancel turn if not)
  4: 0x0171 [0x1A] CALL_SUBROUTINE(address=0x1A2B)
  5: 0x0174 [0x03] Work_Zone[2] = ExtData[1]->WorkLocal[2]
  6: 0x0179 [0x1A] CALL_SUBROUTINE(address=0x1B16)
  7: 0x017C [0x03] Work_Zone[4] = ExtData[1]->WorkLocal[9]
  8: 0x0181 [0x1A] CALL_SUBROUTINE(address=0x1B20)
  9: 0x0184 [0x0C] ExtData[1]->WorkLocal[10]--
 10: 0x0187 [0x03] Work_Zone[3] = ExtData[1]->WorkLocal[10]
 11: 0x018C [0x1A] CALL_SUBROUTINE(address=0x1A35)
 12: 0x018F [0x66] LOAD_EXT_SCHEDULER_MAIN: Load scheduler "thk1" with entities [EventEntity, EventEntity], work=0*
 13: 0x019E [0x1D] PRINT_EVENT_MESSAGE(message_id=8861*)
    → "So this person you're looking for is [on the short side/of average height/pretty tall], and comes across as [neutral/a sullen/a passionate/a calm and collected/a serious/a sisterly/a lively/an agreeable/a naive/a serious/a childish/a suave/a domineering] type."
 14: 0x01A1 [0x23] WAIT_FOR_DIALOG_INTERACTION
 15: 0x01A2 [0x02] IF !(ExtData[1]->WorkLocal[12] == 0*) GOTO 0x01B1
 16: 0x01AA [0x1D] PRINT_EVENT_MESSAGE(message_id=8862*)
    → "What about his looks? I see, I see... And goes by the name of [Feliz/Ferdinand/Gunnar/Massimo/Oldrich/Siegward/Theobald/Zenji]..."
 17: 0x01AD [0x23] WAIT_FOR_DIALOG_INTERACTION
 18: 0x01AE [0x01] GOTO 0x021A
 19: 0x01B1 [0x02] IF !(ExtData[1]->WorkLocal[12] == 1*) GOTO 0x01C0
 20: 0x01B9 [0x1D] PRINT_EVENT_MESSAGE(message_id=8863*)
    → "What about her looks? I see, I see... And goes by the name of [Amerita/Beatrice/Henrietta/Jesimae/Karyn/Nanako/Sharlene/Sieghilde]..."
 21: 0x01BC [0x23] WAIT_FOR_DIALOG_INTERACTION
 22: 0x01BD [0x01] GOTO 0x021A
 23: 0x01C0 [0x02] IF !(ExtData[1]->WorkLocal[12] == 2*) GOTO 0x01CF
 24: 0x01C8 [0x1D] PRINT_EVENT_MESSAGE(message_id=8864*)
    → "What about his looks? I see, I see... And goes by the name of [Chanandit/Deulmaeux/Demresinaux/Ephealgaux/Gauldeval/Grauffemart/Migaifongut/Romidiant]..."
 25: 0x01CB [0x23] WAIT_FOR_DIALOG_INTERACTION
 26: 0x01CC [0x01] GOTO 0x021A
 27: 0x01CF [0x02] IF !(ExtData[1]->WorkLocal[12] == 3*) GOTO 0x01DE
 28: 0x01D7 [0x1D] PRINT_EVENT_MESSAGE(message_id=8865*)
    → "What about her looks? I see, I see... And goes by the name of [Armittie/Cadepure/Clearite/Epilleve/Liabelle/Nauthima/Radille/Vimechue]..."
 29: 0x01DA [0x23] WAIT_FOR_DIALOG_INTERACTION
 30: 0x01DB [0x01] GOTO 0x021A
 31: 0x01DE [0x02] IF !(ExtData[1]->WorkLocal[12] == 4*) GOTO 0x01ED
 32: 0x01E6 [0x1D] PRINT_EVENT_MESSAGE(message_id=8866*)
    → "What about his looks? I see, I see... And goes by the name of [Balu-Falu/Burg-Ladarg/Ehgo-Ryuhgo/Kolui-Pelui/Nokum-Akkum/Savul-Kivul/Vinja-Kanja/Yarga-Umiga]..."
 33: 0x01E9 [0x23] WAIT_FOR_DIALOG_INTERACTION
 34: 0x01EA [0x01] GOTO 0x021A
 35: 0x01ED [0x02] IF !(ExtData[1]->WorkLocal[12] == 5*) GOTO 0x01FC
 36: 0x01F5 [0x1D] PRINT_EVENT_MESSAGE(message_id=8867*)
    → "What about her looks? I see, I see... And goes by the name of [Cupapa/Jajuju/Kalokoko/Mahoyaya/Pakurara/Ripokeke/Yawawa/Yufafa]..."
 37: 0x01F8 [0x23] WAIT_FOR_DIALOG_INTERACTION
 38: 0x01F9 [0x01] GOTO 0x021A
 39: 0x01FC [0x02] IF !(ExtData[1]->WorkLocal[12] == 6*) GOTO 0x020B
 40: 0x0204 [0x1D] PRINT_EVENT_MESSAGE(message_id=8868*)
    → "What about her looks? I see, I see... And goes by the name of [Fhig Lahrv/Khuma Tagyawhan/Pimy Kettihl/Raka Maimhov/Sahyu Banjyao/Sufhi Uchnouma/Tsuim Nhomango/Yoli Kohlpaka]..."
 41: 0x0207 [0x23] WAIT_FOR_DIALOG_INTERACTION
 42: 0x0208 [0x01] GOTO 0x021A
 43: 0x020B [0x02] IF !(ExtData[1]->WorkLocal[12] == 7*) GOTO 0x021A
 44: 0x0213 [0x1D] PRINT_EVENT_MESSAGE(message_id=8869*)
    → "What about his looks? I see, I see... And goes by the name of [Durib/Dzapiwa/Jugowa/Mugido/Voldai/Wagwei/Zayag/Zoldof]..."
 45: 0x0216 [0x23] WAIT_FOR_DIALOG_INTERACTION
 46: 0x0217 [0x01] GOTO 0x021A

SUBROUTINE_021A:
 47: 0x021A [0x53] WAIT_SCHEDULER_TASK: Wait for scheduler "thk1" with entities [EventEntity, EventEntity]
 48: 0x0227 [0x66] LOAD_EXT_SCHEDULER_MAIN: Load scheduler "thk2" with entities [EventEntity, EventEntity], work=0*
 49: 0x0236 [0x53] WAIT_SCHEDULER_TASK: Wait for scheduler "thk2" with entities [EventEntity, EventEntity]
 50: 0x0243 [0x66] LOAD_EXT_SCHEDULER_MAIN: Load scheduler "tlk0" with entities [EventEntity, EventEntity], work=0*
 51: 0x0252 [0x1D] PRINT_EVENT_MESSAGE(message_id=8870*)
    → "Now that you mention it, I might have seen the person you're looking for. An adventurer, right?"
 52: 0x0255 [0x23] WAIT_FOR_DIALOG_INTERACTION
 53: 0x0256 [0x27] REQ_SET(priority=0x0A, entity_id=Unnamed NPC (ID: 17776783/0x010F408F), tag_num=0x03)
 54: 0x025D [0x2A] GET_REQ_LEVEL(level=10, entity_id=Unnamed NPC (ID: 17776783/0x010F408F))
 55: 0x0263 [0x21] END_EVENT
 56: 0x0264 [0x00] END_REQSTACK()
```

### Event 10038

#### Metadata

| Field        | Value   |
|--------------|---------|
| Entrypoint   | 0x0265  |
| Data Size    | 1 bytes |
| Instructions | 1       |

```
      00 01 02 03 04 05 06 07  08 09 0A 0B 0C 0D 0E 0F
      -- -- -- -- -- -- -- --  -- -- -- -- -- -- -- --
0260:                00                                      .          
```

#### Opcodes

```
  0: 0x0265 [0x00] END_REQSTACK()
```

### Event 10040

#### Metadata

| Field        | Value     |
|--------------|-----------|
| Entrypoint   | 0x0266    |
| Data Size    | 889 bytes |
| Instructions | 116       |

```
      00 01 02 03 04 05 06 07  08 09 0A 0B 0C 0D 0E 0F
      -- -- -- -- -- -- -- --  -- -- -- -- -- -- -- --
0260:                   2F 00  8F 40 0F 01 92 01 8F 40        /..@.....@
0270: 0F 01 2F 00 8E 40 0F 01  92 01 8E 40 0F 01 42 45  ../..@.....@..BE
0280: 1F 80 F8 FF FF 7F F8 FF  FF 7F 66 64 6F 31 00 80  ..........fdo1..
0290: 55 1F 80 F8 FF FF 7F F8  FF FF 7F 66 64 6F 31 46  U..........fdo1F
02A0: 01 38 20 80 27 0A F0 FF  FF 7F 42 4A F0 FF FF 7F  .8 .'.....BJ....
02B0: 2E 40 0F 01 29 05 8F 40  0F 01 0C 27 05 8F 40 0F  .@..)..@...'..@.
02C0: 01 0B 45 21 80 F8 FF FF  7F F8 FF FF 7F 73 30 35  ..E!.........s05
02D0: 35 00 80 1C 22 80 4A 2E  40 0F 01 F0 FF FF 7F 45  5...".J.@......E
02E0: 1F 80 F8 FF FF 7F F8 FF  FF 7F 66 64 69 32 00 80  ..........fdi2..
02F0: 55 1F 80 F8 FF FF 7F F8  FF FF 7F 66 64 69 32 66  U..........fdi2f
0300: 00 80 2E 40 0F 01 2E 40  0F 01 74 6C 6B 30 1A 2B  ...@...@..tlk0.+
0310: 1A 03 02 10 02 00 1A 35  1A 02 0C 00 00 80 80 2C  .......5.......,
0320: 03 2B 2E 40 0F 01 23 80  23 01 B1 03 02 0C 00 05  .+.@..#.#.......
0330: 80 80 3F 03 2B 2E 40 0F  01 24 80 23 01 B1 03 02  ..?.+.@..$.#....
0340: 0C 00 07 80 80 52 03 2B  2E 40 0F 01 25 80 23 01  .....R.+.@..%.#.
0350: B1 03 02 0C 00 09 80 80  65 03 2B 2E 40 0F 01 26  ........e.+.@..&
0360: 80 23 01 B1 03 02 0C 00  0B 80 80 78 03 2B 2E 40  .#.........x.+.@
0370: 0F 01 27 80 23 01 B1 03  02 0C 00 0D 80 80 8B 03  ..'.#...........
0380: 2B 2E 40 0F 01 28 80 23  01 B1 03 02 0C 00 0F 80  +.@..(.#........
0390: 80 9E 03 2B 2E 40 0F 01  29 80 23 01 B1 03 02 0C  ...+.@..).#.....
03A0: 00 11 80 80 B1 03 2B 2E  40 0F 01 2A 80 23 01 B1  ......+.@..*.#..
03B0: 03 2B 2E 40 0F 01 2B 80  23 66 00 80 2E 40 0F 01  .+.@..+.#f...@..
03C0: 2E 40 0F 01 74 65 6E 30  52 21 80 F8 FF FF 7F F8  .@..ten0R!......
03D0: FF FF 7F 73 30 35 35 45  21 80 F8 FF FF 7F F8 FF  ...s055E!.......
03E0: FF 7F 73 30 35 36 00 80  2B 2E 40 0F 01 2C 80 23  ..s056..+.@..,.#
03F0: 66 00 80 2E 40 0F 01 2E  40 0F 01 74 68 6B 31 2B  f...@...@..thk1+
0400: 2E 40 0F 01 2D 80 23 66  00 80 2E 40 0F 01 2E 40  .@..-.#f...@...@
0410: 0F 01 74 68 6B 32 2B 2E  40 0F 01 2E 80 23 45 1F  ..thk2+.@....#E.
0420: 80 F8 FF FF 7F F8 FF FF  7F 66 64 6F 31 00 80 55  .........fdo1..U
0430: 1F 80 F8 FF FF 7F F8 FF  FF 7F 66 64 6F 31 52 21  ..........fdo1R!
0440: 80 F8 FF FF 7F F8 FF FF  7F 73 30 35 36 27 0F 8E  .........s056'..
0450: 40 0F 01 09 4E 00 8E 40  0F 01 80 8E 40 0F 01 27  @...N..@....@..'
0460: 14 8F 40 0F 01 07 4E 00  8F 40 0F 01 77 2F 80 05  ..@...N..@..w/..
0470: 80 2A 14 8F 40 0F 01 80  8F 40 0F 01 4A 8F 40 0F  .*..@....@..J.@.
0480: 01 8E 40 0F 01 1C 22 80  45 21 80 F0 FF FF 7F F0  ..@...".E!......
0490: FF FF 7F 73 30 35 33 00  80 27 14 8E 40 0F 01 05  ...s053..'..@...
04A0: 45 1F 80 F8 FF FF 7F F8  FF FF 7F 66 64 69 32 00  E..........fdi2.
04B0: 80 55 1F 80 F8 FF FF 7F  F8 FF FF 7F 66 64 69 32  .U..........fdi2
04C0: 6E 8F 40 0F 01 11 80 99  8F 40 0F 01 55 21 80 F0  n.@......@..U!..
04D0: FF FF 7F F0 FF FF 7F 73  30 35 33 45 1F 80 F8 FF  .......s053E....
04E0: FF 7F F8 FF FF 7F 66 64  6F 31 00 80 55 1F 80 F8  ......fdo1..U...
04F0: FF FF 7F F8 FF FF 7F 66  64 6F 31 52 21 80 F0 FF  .......fdo1R!...
0500: FF 7F F0 FF FF 7F 73 30  35 33 2F 01 8E 40 0F 01  ......s053/..@..
0510: 4E 01 8E 40 0F 01 2F 01  8F 40 0F 01 4E 01 8F 40  N..@../..@..N..@
0520: 0F 01 4E 01 F0 FF FF 7F  78 4B 2E 40 0F 01 30 80  ..N.....xK.@..0.
0530: 1C 22 80 45 31 80 F8 FF  FF 7F F8 FF FF 7F 73 30  .".E1.........s0
0540: 35 35 00 80 45 1F 80 F8  FF FF 7F F8 FF FF 7F 66  55..E..........f
0550: 64 69 32 00 80 55 1F 80  F8 FF FF 7F F8 FF FF 7F  di2..U..........
0560: 66 64 69 32 66 00 80 2E  40 0F 01 2E 40 0F 01 74  fdi2f...@...@..t
0570: 6C 6B 30 2B 2E 40 0F 01  32 80 23 2B 2E 40 0F 01  lk0+.@..2.#+.@..
0580: 33 80 23 66 00 80 2E 40  0F 01 2E 40 0F 01 74 65  3.#f...@...@..te
0590: 6E 30 45 1F 80 F8 FF FF  7F F8 FF FF 7F 66 64 6F  n0E..........fdo
05A0: 31 00 80 55 1F 80 F8 FF  FF 7F F8 FF FF 7F 66 64  1..U..........fd
05B0: 6F 31 52 31 80 F8 FF FF  7F F8 FF FF 7F 73 30 35  o1R1.........s05
05C0: 35 4E 00 F0 FF FF 7F 46  00 1C 34 80 45 1F 80 F8  5N.....F..4.E...
05D0: FF FF 7F F8 FF FF 7F 66  64 69 32 00 80 21 00     .......fdi2..!. 
```

#### Opcodes

```
  0: 0x0266 [0x2F] Unnamed NPC (ID: 17776783/0x010F408F)->Render.Flags0 &= ~0x80000 // Bit 19
  1: 0x026C [0x92] Unnamed NPC (ID: 17776783/0x010F408F)->Render.Flags3 ^= 0x01
  2: 0x0272 [0x2F] Palometa (ID: 17776782/0x010F408E)->Render.Flags0 &= ~0x80000 // Bit 19
  3: 0x0278 [0x92] Palometa (ID: 17776782/0x010F408E)->Render.Flags3 ^= 0x01
  4: 0x027E [0x42] SET_CLI_EVENT_CANCEL_DATA()
  5: 0x027F [0x45] LOAD_SCHEDULED_TASK: Load scheduler "fdo1" with entities [EventEntity, EventEntity], work=[200*, 0*]
  6: 0x0290 [0x55] WAIT_LOAD_SCHEDULER: Wait for scheduler "fdo1" with entities [EventEntity, EventEntity], work=200*
  7: 0x029F [0x46] CAMERA_CONTROL: Disable user control
  8: 0x02A1 [0x38] SET_CLIENT_EVENT_MODE(mode=19*)
  9: 0x02A4 [0x27] REQ_SET(priority=0x0A, entity_id=LocalPlayer, tag_num=0x42)
 10: 0x02AB [0x4A] LocalPlayer looks at Bheem (ID: 17776686/0x010F402E)
 11: 0x02B4 [0x29] REQ_SET_WAIT(priority=0x05, entity_id=Unnamed NPC (ID: 17776783/0x010F408F), tag_num=0x0C)
 12: 0x02BB [0x27] REQ_SET(priority=0x05, entity_id=Unnamed NPC (ID: 17776783/0x010F408F), tag_num=0x0B)
 13: 0x02C2 [0x45] LOAD_SCHEDULED_TASK: Load scheduler "s055" with entities [EventEntity, EventEntity], work=[191*, 0*]
 14: 0x02D3 [0x1C] WAIT(60* ticks)
 15: 0x02D6 [0x4A] Bheem (ID: 17776686/0x010F402E) looks at LocalPlayer
 16: 0x02DF [0x45] LOAD_SCHEDULED_TASK: Load scheduler "fdi2" with entities [EventEntity, EventEntity], work=[200*, 0*]
 17: 0x02F0 [0x55] WAIT_LOAD_SCHEDULER: Wait for scheduler "fdi2" with entities [EventEntity, EventEntity], work=200*
 18: 0x02FF [0x66] LOAD_EXT_SCHEDULER_MAIN: Load scheduler "tlk0" with entities [Bheem (ID: 17776686/0x010F402E), Bheem (ID: 17776686/0x010F402E)], work=0*
 19: 0x030E [0x1A] CALL_SUBROUTINE(address=0x1A2B)
 20: 0x0311 [0x03] Work_Zone[2] = ExtData[1]->WorkLocal[2]
 21: 0x0316 [0x1A] CALL_SUBROUTINE(address=0x1A35)
 22: 0x0319 [0x02] IF !(ExtData[1]->WorkLocal[12] == 0*) GOTO 0x032C
 23: 0x0321 [0x2B] Bheem (ID: 17776686/0x010F402E) [8902*]:
    → "Hey there. I ran into [Feliz/Ferdinand/Gunnar/Massimo/Oldrich/Siegward/Theobald/Zenji] a little while back..."
 24: 0x0328 [0x23] WAIT_FOR_DIALOG_INTERACTION
 25: 0x0329 [0x01] GOTO 0x03B1
 26: 0x032C [0x02] IF !(ExtData[1]->WorkLocal[12] == 1*) GOTO 0x033F
 27: 0x0334 [0x2B] Bheem (ID: 17776686/0x010F402E) [8903*]:
    → "Hey there. I ran into [Amerita/Beatrice/Henrietta/Jesimae/Karyn/Nanako/Sharlene/Sieghilde] a little while back..."
 28: 0x033B [0x23] WAIT_FOR_DIALOG_INTERACTION
 29: 0x033C [0x01] GOTO 0x03B1
 30: 0x033F [0x02] IF !(ExtData[1]->WorkLocal[12] == 2*) GOTO 0x0352
 31: 0x0347 [0x2B] Bheem (ID: 17776686/0x010F402E) [8904*]:
    → "Hey there. I ran into [Chanandit/Deulmaeux/Demresinaux/Ephealgaux/Gauldeval/Grauffemart/Migaifongut/Romidiant] a little while back..."
 32: 0x034E [0x23] WAIT_FOR_DIALOG_INTERACTION
 33: 0x034F [0x01] GOTO 0x03B1
 34: 0x0352 [0x02] IF !(ExtData[1]->WorkLocal[12] == 3*) GOTO 0x0365
 35: 0x035A [0x2B] Bheem (ID: 17776686/0x010F402E) [8905*]:
    → "Hey there. I ran into [Armittie/Cadepure/Clearite/Epilleve/Liabelle/Nauthima/Radille/Vimechue] a little while back..."
 36: 0x0361 [0x23] WAIT_FOR_DIALOG_INTERACTION
 37: 0x0362 [0x01] GOTO 0x03B1
 38: 0x0365 [0x02] IF !(ExtData[1]->WorkLocal[12] == 4*) GOTO 0x0378
 39: 0x036D [0x2B] Bheem (ID: 17776686/0x010F402E) [8906*]:
    → "Hey there. I ran into [Balu-Falu/Burg-Ladarg/Ehgo-Ryuhgo/Kolui-Pelui/Nokum-Akkum/Savul-Kivul/Vinja-Kanja/Yarga-Umiga] a little while back..."
 40: 0x0374 [0x23] WAIT_FOR_DIALOG_INTERACTION
 41: 0x0375 [0x01] GOTO 0x03B1
 42: 0x0378 [0x02] IF !(ExtData[1]->WorkLocal[12] == 5*) GOTO 0x038B
 43: 0x0380 [0x2B] Bheem (ID: 17776686/0x010F402E) [8907*]:
    → "Hey there. I ran into [Cupapa/Jajuju/Kalokoko/Mahoyaya/Pakurara/Ripokeke/Yawawa/Yufafa] a little while back..."
 44: 0x0387 [0x23] WAIT_FOR_DIALOG_INTERACTION
 45: 0x0388 [0x01] GOTO 0x03B1
 46: 0x038B [0x02] IF !(ExtData[1]->WorkLocal[12] == 6*) GOTO 0x039E
 47: 0x0393 [0x2B] Bheem (ID: 17776686/0x010F402E) [8908*]:
    → "Hey there. I ran into [Fhig Lahrv/Khuma Tagyawhan/Pimy Kettihl/Raka Maimhov/Sahyu Banjyao/Sufhi Uchnouma/Tsuim Nhomango/Yoli Kohlpaka] a little while back..."
 48: 0x039A [0x23] WAIT_FOR_DIALOG_INTERACTION
 49: 0x039B [0x01] GOTO 0x03B1
 50: 0x039E [0x02] IF !(ExtData[1]->WorkLocal[12] == 7*) GOTO 0x03B1
 51: 0x03A6 [0x2B] Bheem (ID: 17776686/0x010F402E) [8909*]:
    → "Hey there. I ran into [Durib/Dzapiwa/Jugowa/Mugido/Voldai/Wagwei/Zayag/Zoldof] a little while back..."
 52: 0x03AD [0x23] WAIT_FOR_DIALOG_INTERACTION
 53: 0x03AE [0x01] GOTO 0x03B1

SUBROUTINE_03B1:
 54: 0x03B1 [0x2B] Bheem (ID: 17776686/0x010F402E) [8910*]:
    → "Said something about heading to the Eldieme Necropolis."
 55: 0x03B8 [0x23] WAIT_FOR_DIALOG_INTERACTION
 56: 0x03B9 [0x66] LOAD_EXT_SCHEDULER_MAIN: Load scheduler "ten0" with entities [Bheem (ID: 17776686/0x010F402E), Bheem (ID: 17776686/0x010F402E)], work=0*
 57: 0x03C8 [0x52] END_LOAD_SCHEDULER: End scheduler "s055" with entities [EventEntity, EventEntity], work=191*
 58: 0x03D7 [0x45] LOAD_SCHEDULED_TASK: Load scheduler "s056" with entities [EventEntity, EventEntity], work=[191*, 0*]
 59: 0x03E8 [0x2B] Bheem (ID: 17776686/0x010F402E) [8911*]:
    → "Huh? Now you're looking for a little girl that's gone missing? Well, what did she look like?"
 60: 0x03EF [0x23] WAIT_FOR_DIALOG_INTERACTION
 61: 0x03F0 [0x66] LOAD_EXT_SCHEDULER_MAIN: Load scheduler "thk1" with entities [Bheem (ID: 17776686/0x010F402E), Bheem (ID: 17776686/0x010F402E)], work=0*
 62: 0x03FF [0x2B] Bheem (ID: 17776686/0x010F402E) [8912*]:
    → "Hmm. Now, where did I see..."
 63: 0x0406 [0x23] WAIT_FOR_DIALOG_INTERACTION
 64: 0x0407 [0x66] LOAD_EXT_SCHEDULER_MAIN: Load scheduler "thk2" with entities [Bheem (ID: 17776686/0x010F402E), Bheem (ID: 17776686/0x010F402E)], work=0*
 65: 0x0416 [0x2B] Bheem (ID: 17776686/0x010F402E) [8913*]:
    → "Ah! That's it!"
 66: 0x041D [0x23] WAIT_FOR_DIALOG_INTERACTION
 67: 0x041E [0x45] LOAD_SCHEDULED_TASK: Load scheduler "fdo1" with entities [EventEntity, EventEntity], work=[200*, 0*]
 68: 0x042F [0x55] WAIT_LOAD_SCHEDULER: Wait for scheduler "fdo1" with entities [EventEntity, EventEntity], work=200*
 69: 0x043E [0x52] END_LOAD_SCHEDULER: End scheduler "s056" with entities [EventEntity, EventEntity], work=191*
 70: 0x044D [0x27] REQ_SET(priority=0x0F, entity_id=Palometa (ID: 17776782/0x010F408E), tag_num=0x09)
 71: 0x0454 [0x4E] SET_ENTITY_HIDE_FLAG: Show Palometa (ID: 17776782/0x010F408E)
 72: 0x045A [0x80] LOAD_WAIT(entity=Palometa (ID: 17776782/0x010F408E))
 73: 0x045F [0x27] REQ_SET(priority=0x14, entity_id=Unnamed NPC (ID: 17776783/0x010F408F), tag_num=0x07)
 74: 0x0466 [0x4E] SET_ENTITY_HIDE_FLAG: Show Unnamed NPC (ID: 17776783/0x010F408F)
 75: 0x046C [0x77] SET_EVENT_TIME_WEATHER(hour=12*, weather=1*)
 76: 0x0471 [0x2A] GET_REQ_LEVEL(level=20, entity_id=Unnamed NPC (ID: 17776783/0x010F408F))
 77: 0x0477 [0x80] LOAD_WAIT(entity=Unnamed NPC (ID: 17776783/0x010F408F))
 78: 0x047C [0x4A] Unnamed NPC (ID: 17776783/0x010F408F) looks at Palometa (ID: 17776782/0x010F408E)
 79: 0x0485 [0x1C] WAIT(60* ticks)
 80: 0x0488 [0x45] LOAD_SCHEDULED_TASK: Load scheduler "s053" with entities [LocalPlayer, LocalPlayer], work=[191*, 0*]
 81: 0x0499 [0x27] REQ_SET(priority=0x14, entity_id=Palometa (ID: 17776782/0x010F408E), tag_num=0x05)
 82: 0x04A0 [0x45] LOAD_SCHEDULED_TASK: Load scheduler "fdi2" with entities [EventEntity, EventEntity], work=[200*, 0*]
 83: 0x04B1 [0x55] WAIT_LOAD_SCHEDULER: Wait for scheduler "fdi2" with entities [EventEntity, EventEntity], work=200*
 84: 0x04C0 [0x6E] Unnamed NPC (ID: 17776783/0x010F408F) uses emote 7*
 85: 0x04C7 [0x99] Wait for Unnamed NPC (ID: 17776783/0x010F408F) animation to complete
 86: 0x04CC [0x55] WAIT_LOAD_SCHEDULER: Wait for scheduler "s053" with entities [LocalPlayer, LocalPlayer], work=191*
 87: 0x04DB [0x45] LOAD_SCHEDULED_TASK: Load scheduler "fdo1" with entities [EventEntity, EventEntity], work=[200*, 0*]
 88: 0x04EC [0x55] WAIT_LOAD_SCHEDULER: Wait for scheduler "fdo1" with entities [EventEntity, EventEntity], work=200*
 89: 0x04FB [0x52] END_LOAD_SCHEDULER: End scheduler "s053" with entities [LocalPlayer, LocalPlayer], work=191*
 90: 0x050A [0x2F] Palometa (ID: 17776782/0x010F408E)->Render.Flags0 |= 0x80000 // Bit 19
 91: 0x0510 [0x4E] SET_ENTITY_HIDE_FLAG: Hide Palometa (ID: 17776782/0x010F408E)
 92: 0x0516 [0x2F] Unnamed NPC (ID: 17776783/0x010F408F)->Render.Flags0 |= 0x80000 // Bit 19
 93: 0x051C [0x4E] SET_ENTITY_HIDE_FLAG: Hide Unnamed NPC (ID: 17776783/0x010F408F)
 94: 0x0522 [0x4E] SET_ENTITY_HIDE_FLAG: Hide LocalPlayer
 95: 0x0528 [0x78] ENABLE_GAME_TIMER_RESET_WEATHER()
 96: 0x0529 [0x4B] UPDATE_ENTITY_YAW(entity=Bheem (ID: 17776686/0x010F402E), yaw=2.2°*)
 97: 0x0530 [0x1C] WAIT(60* ticks)
 98: 0x0533 [0x45] LOAD_SCHEDULED_TASK: Load scheduler "s055" with entities [EventEntity, EventEntity], work=[34*, 0*]
 99: 0x0544 [0x45] LOAD_SCHEDULED_TASK: Load scheduler "fdi2" with entities [EventEntity, EventEntity], work=[200*, 0*]
100: 0x0555 [0x55] WAIT_LOAD_SCHEDULER: Wait for scheduler "fdi2" with entities [EventEntity, EventEntity], work=200*
101: 0x0564 [0x66] LOAD_EXT_SCHEDULER_MAIN: Load scheduler "tlk0" with entities [Bheem (ID: 17776686/0x010F402E), Bheem (ID: 17776686/0x010F402E)], work=0*
102: 0x0573 [0x2B] Bheem (ID: 17776686/0x010F402E) [8914*]:
    → "She was talking to the person you were looking for. I wasn't really paying attention to where she was headed, though..."
103: 0x057A [0x23] WAIT_FOR_DIALOG_INTERACTION
104: 0x057B [0x2B] Bheem (ID: 17776686/0x010F402E) [8915*]:
    → "Sorry I can't help you out more. I'll let you know if I find out anything."
105: 0x0582 [0x23] WAIT_FOR_DIALOG_INTERACTION
106: 0x0583 [0x66] LOAD_EXT_SCHEDULER_MAIN: Load scheduler "ten0" with entities [Bheem (ID: 17776686/0x010F402E), Bheem (ID: 17776686/0x010F402E)], work=0*
107: 0x0592 [0x45] LOAD_SCHEDULED_TASK: Load scheduler "fdo1" with entities [EventEntity, EventEntity], work=[200*, 0*]
108: 0x05A3 [0x55] WAIT_LOAD_SCHEDULER: Wait for scheduler "fdo1" with entities [EventEntity, EventEntity], work=200*
109: 0x05B2 [0x52] END_LOAD_SCHEDULER: End scheduler "s055" with entities [EventEntity, EventEntity], work=34*
110: 0x05C1 [0x4E] SET_ENTITY_HIDE_FLAG: Show LocalPlayer
111: 0x05C7 [0x46] CAMERA_CONTROL: Restore default settings
112: 0x05C9 [0x1C] WAIT(120* ticks)
113: 0x05CC [0x45] LOAD_SCHEDULED_TASK: Load scheduler "fdi2" with entities [EventEntity, EventEntity], work=[200*, 0*]
114: 0x05DD [0x21] END_EVENT
115: 0x05DE [0x00] END_REQSTACK()
```

### Event 10054

#### Metadata

| Field        | Value       |
|--------------|-------------|
| Entrypoint   | 0x05DF      |
| Data Size    | 18524 bytes |
| Instructions | 1           |

```
      00 01 02 03 04 05 06 07  08 09 0A 0B 0C 0D 0E 0F
      -- -- -- -- -- -- -- --  -- -- -- -- -- -- -- --
05D0:                                               00                 .
05E0: 03 03 00 00 80 1A 2B 1A  1A 35 1A 02 0C 00 00 80  ......+..5......
05F0: 80 EE 06 02 02 00 00 80  80 12 06 B4 00 03 00 46  ...............F
0600: 65 6C 69 7A 00 00 00 00  00 00 00 00 00 00 00 01  eliz............
0610: EB 06 02 02 00 05 80 80  31 06 B4 00 03 00 46 65  ........1.....Fe
0620: 72 64 69 6E 61 6E 64 00  00 00 00 00 00 00 01 EB  rdinand.........
0630: 06 02 02 00 07 80 80 50  06 B4 00 03 00 47 75 6E  .......P.....Gun
0640: 6E 61 72 00 00 00 00 00  00 00 00 00 00 01 EB 06  nar.............
0650: 02 02 00 09 80 80 6F 06  B4 00 03 00 4D 61 73 73  ......o.....Mass
0660: 69 6D 6F 00 00 00 00 00  00 00 00 00 01 EB 06 02  imo.............
0670: 02 00 0B 80 80 8E 06 B4  00 03 00 4F 6C 64 72 69  ...........Oldri
0680: 63 68 00 00 00 00 00 00  00 00 00 01 EB 06 02 02  ch..............
0690: 00 0D 80 80 AD 06 B4 00  03 00 53 69 65 67 77 61  ..........Siegwa
06A0: 72 64 00 00 00 00 00 00  00 00 01 EB 06 02 02 00  rd..............
06B0: 0F 80 80 CC 06 B4 00 03  00 54 68 65 6F 62 61 6C  .........Theobal
06C0: 64 00 00 00 00 00 00 00  00 01 EB 06 02 02 00 11  d...............
06D0: 80 80 EB 06 B4 00 03 00  5A 65 6E 6A 69 00 00 00  ........Zenji...
06E0: 00 00 00 00 00 00 00 00  01 EB 06 01 03 0E 02 0C  ................
06F0: 00 05 80 80 F1 07 02 02  00 00 80 80 15 07 B4 00  ................
0700: 03 00 41 6D 65 72 69 74  61 00 00 00 00 00 00 00  ..Amerita.......
0710: 00 00 01 EE 07 02 02 00  05 80 80 34 07 B4 00 03  ...........4....
0720: 00 42 65 61 74 72 69 63  65 00 00 00 00 00 00 00  .Beatrice.......
0730: 00 01 EE 07 02 02 00 07  80 80 53 07 B4 00 03 00  ..........S.....
0740: 48 65 6E 72 69 65 74 74  61 00 00 00 00 00 00 00  Henrietta.......
0750: 01 EE 07 02 02 00 09 80  80 72 07 B4 00 03 00 4A  .........r.....J
0760: 65 73 69 6D 61 65 00 00  00 00 00 00 00 00 00 01  esimae..........
0770: EE 07 02 02 00 0B 80 80  91 07 B4 00 03 00 4B 61  ..............Ka
0780: 72 79 6E 00 00 00 00 00  00 00 00 00 00 00 01 EE  ryn.............
0790: 07 02 02 00 0D 80 80 B0  07 B4 00 03 00 4E 61 6E  .............Nan
07A0: 61 6B 6F 00 00 00 00 00  00 00 00 00 00 01 EE 07  ako.............
07B0: 02 02 00 0F 80 80 CF 07  B4 00 03 00 53 68 61 72  ............Shar
07C0: 6C 65 6E 65 00 00 00 00  00 00 00 00 01 EE 07 02  lene............
07D0: 02 00 11 80 80 EE 07 B4  00 03 00 53 69 65 67 68  ...........Siegh
07E0: 69 6C 64 65 00 00 00 00  00 00 00 01 EE 07 01 03  ilde............
07F0: 0E 02 0C 00 07 80 80 F4  08 02 02 00 00 80 80 18  ................
0800: 08 B4 00 03 00 43 68 61  6E 61 6E 64 69 74 00 00  .....Chanandit..
0810: 00 00 00 00 00 01 F1 08  02 02 00 05 80 80 37 08  ..............7.
0820: B4 00 03 00 44 65 75 6C  6D 61 65 75 78 00 00 00  ....Deulmaeux...
0830: 00 00 00 00 01 F1 08 02  02 00 07 80 80 56 08 B4  .............V..
0840: 00 03 00 44 65 6D 72 65  73 69 6E 61 75 78 00 00  ...Demresinaux..
0850: 00 00 00 01 F1 08 02 02  00 09 80 80 75 08 B4 00  ............u...
0860: 03 00 45 70 68 65 61 6C  67 61 75 78 00 00 00 00  ..Ephealgaux....
0870: 00 00 01 F1 08 02 02 00  0B 80 80 94 08 B4 00 03  ................
0880: 00 47 61 75 6C 64 65 76  61 6C 00 00 00 00 00 00  .Gauldeval......
0890: 00 01 F1 08 02 02 00 0D  80 80 B3 08 B4 00 03 00  ................
08A0: 47 72 61 75 66 66 65 6D  61 72 74 00 00 00 00 00  Grauffemart.....
08B0: 01 F1 08 02 02 00 0F 80  80 D2 08 B4 00 03 00 4D  ...............M
08C0: 69 67 61 69 66 6F 6E 67  75 74 00 00 00 00 00 01  igaifongut......
08D0: F1 08 02 02 00 11 80 80  F1 08 B4 00 03 00 52 6F  ..............Ro
08E0: 6D 69 64 69 61 6E 74 00  00 00 00 00 00 00 01 F1  midiant.........
08F0: 08 01 03 0E 02 0C 00 09  80 80 F7 09 02 02 00 00  ................
0900: 80 80 1B 09 B4 00 03 00  41 72 6D 69 74 74 69 65  ........Armittie
0910: 00 00 00 00 00 00 00 00  01 F4 09 02 02 00 05 80  ................
0920: 80 3A 09 B4 00 03 00 43  61 64 65 70 75 72 65 00  .:.....Cadepure.
0930: 00 00 00 00 00 00 00 01  F4 09 02 02 00 07 80 80  ................
0940: 59 09 B4 00 03 00 43 6C  65 61 72 69 74 65 00 00  Y.....Clearite..
0950: 00 00 00 00 00 00 01 F4  09 02 02 00 09 80 80 78  ...............x
0960: 09 B4 00 03 00 45 70 69  6C 6C 65 76 65 00 00 00  .....Epilleve...
0970: 00 00 00 00 00 01 F4 09  02 02 00 0B 80 80 97 09  ................
0980: B4 00 03 00 4C 69 61 62  65 6C 6C 65 00 00 00 00  ....Liabelle....
0990: 00 00 00 00 01 F4 09 02  02 00 0D 80 80 B6 09 B4  ................
09A0: 00 03 00 4E 61 75 74 68  69 6D 61 00 00 00 00 00  ...Nauthima.....
09B0: 00 00 00 01 F4 09 02 02  00 0F 80 80 D5 09 B4 00  ................
09C0: 03 00 52 61 64 69 6C 6C  65 00 00 00 00 00 00 00  ..Radille.......
09D0: 00 00 01 F4 09 02 02 00  11 80 80 F4 09 B4 00 03  ................
09E0: 00 56 69 6D 65 63 68 75  65 00 00 00 00 00 00 00  .Vimechue.......
09F0: 00 01 F4 09 01 03 0E 02  0C 00 0B 80 80 FA 0A 02  ................
0A00: 02 00 00 80 80 1E 0A B4  00 03 00 42 61 6C 75 2D  ...........Balu-
0A10: 46 61 6C 75 00 00 00 00  00 00 00 01 F7 0A 02 02  Falu............
0A20: 00 05 80 80 3D 0A B4 00  03 00 42 75 72 67 2D 4C  ....=.....Burg-L
0A30: 61 64 61 72 67 00 00 00  00 00 01 F7 0A 02 02 00  adarg...........
0A40: 07 80 80 5C 0A B4 00 03  00 45 68 67 6F 2D 52 79  ...\.....Ehgo-Ry
0A50: 75 68 67 6F 00 00 00 00  00 01 F7 0A 02 02 00 09  uhgo............
0A60: 80 80 7B 0A B4 00 03 00  4B 6F 6C 75 69 2D 50 65  ..{.....Kolui-Pe
0A70: 6C 75 69 00 00 00 00 00  01 F7 0A 02 02 00 0B 80  lui.............
0A80: 80 9A 0A B4 00 03 00 4E  6F 6B 75 6D 2D 41 6B 6B  .......Nokum-Akk
0A90: 75 6D 00 00 00 00 00 01  F7 0A 02 02 00 0D 80 80  um..............
0AA0: B9 0A B4 00 03 00 53 61  76 75 6C 2D 4B 69 76 75  ......Savul-Kivu
0AB0: 6C 00 00 00 00 00 01 F7  0A 02 02 00 0F 80 80 D8  l...............
0AC0: 0A B4 00 03 00 56 69 6E  6A 61 2D 4B 61 6E 6A 61  .....Vinja-Kanja
0AD0: 00 00 00 00 00 01 F7 0A  02 02 00 11 80 80 F7 0A  ................
0AE0: B4 00 03 00 59 61 72 67  61 2D 55 6D 69 67 61 00  ....Yarga-Umiga.
0AF0: 00 00 00 00 01 F7 0A 01  03 0E 02 0C 00 0D 80 80  ................
0B00: FD 0B 02 02 00 00 80 80  21 0B B4 00 03 00 43 75  ........!.....Cu
0B10: 70 61 70 61 00 00 00 00  00 00 00 00 00 00 01 FA  papa............
0B20: 0B 02 02 00 05 80 80 40  0B B4 00 03 00 4A 61 6A  .......@.....Jaj
0B30: 75 6A 75 00 00 00 00 00  00 00 00 00 00 01 FA 0B  uju.............
0B40: 02 02 00 07 80 80 5F 0B  B4 00 03 00 4B 61 6C 6F  ......_.....Kalo
0B50: 6B 6F 6B 6F 00 00 00 00  00 00 00 00 01 FA 0B 02  koko............
0B60: 02 00 09 80 80 7E 0B B4  00 03 00 4D 61 68 6F 79  .....~.....Mahoy
0B70: 61 79 61 00 00 00 00 00  00 00 00 01 FA 0B 02 02  aya.............
0B80: 00 0B 80 80 9D 0B B4 00  03 00 50 61 6B 75 72 61  ..........Pakura
0B90: 72 61 00 00 00 00 00 00  00 00 01 FA 0B 02 02 00  ra..............
0BA0: 0D 80 80 BC 0B B4 00 03  00 52 69 70 6F 6B 65 6B  .........Ripokek
0BB0: 65 00 00 00 00 00 00 00  00 01 FA 0B 02 02 00 0F  e...............
0BC0: 80 80 DB 0B B4 00 03 00  59 61 77 61 77 61 00 00  ........Yawawa..
0BD0: 00 00 00 00 00 00 00 00  01 FA 0B 02 02 00 11 80  ................
0BE0: 80 FA 0B B4 00 03 00 59  75 66 61 66 61 00 00 00  .......Yufafa...
0BF0: 00 00 00 00 00 00 00 01  FA 0B 01 03 0E 02 0C 00  ................
0C00: 0F 80 80 00 0D 02 02 00  00 80 80 24 0C B4 00 03  ...........$....
0C10: 00 46 68 69 67 00 00 00  00 00 00 00 00 00 00 00  .Fhig...........
0C20: 00 01 FD 0C 02 02 00 05  80 80 43 0C B4 00 03 00  ..........C.....
0C30: 4B 68 75 6D 61 00 00 00  00 00 00 00 00 00 00 00  Khuma...........
0C40: 01 FD 0C 02 02 00 07 80  80 62 0C B4 00 03 00 50  .........b.....P
0C50: 69 6D 79 00 00 00 00 00  00 00 00 00 00 00 00 01  imy.............
0C60: FD 0C 02 02 00 09 80 80  81 0C B4 00 03 00 52 61  ..............Ra
0C70: 6B 61 00 00 00 00 00 00  00 00 00 00 00 00 01 FD  ka..............
0C80: 0C 02 02 00 0B 80 80 A0  0C B4 00 03 00 53 61 68  .............Sah
0C90: 79 75 00 00 00 00 00 00  00 00 00 00 00 01 FD 0C  yu..............
0CA0: 02 02 00 0D 80 80 BF 0C  B4 00 03 00 53 75 66 68  ............Sufh
0CB0: 69 00 00 00 00 00 00 00  00 00 00 00 01 FD 0C 02  i...............
0CC0: 02 00 0F 80 80 DE 0C B4  00 03 00 54 73 75 69 6D  ...........Tsuim
0CD0: 00 00 00 00 00 00 00 00  00 00 00 01 FD 0C 02 02  ................
0CE0: 00 11 80 80 FD 0C B4 00  03 00 59 6F 6C 69 00 00  ..........Yoli..
0CF0: 00 00 00 00 00 00 00 00  00 00 01 FD 0C 01 03 0E  ................
0D00: 02 0C 00 11 80 80 03 0E  02 02 00 00 80 80 27 0D  ..............'.
0D10: B4 00 03 00 44 75 72 69  62 00 00 00 00 00 00 00  ....Durib.......
0D20: 00 00 00 00 01 00 0E 02  02 00 05 80 80 46 0D B4  .............F..
0D30: 00 03 00 44 7A 61 70 69  77 61 00 00 00 00 00 00  ...Dzapiwa......
0D40: 00 00 00 01 00 0E 02 02  00 07 80 80 65 0D B4 00  ............e...
0D50: 03 00 4A 75 67 6F 77 61  00 00 00 00 00 00 00 00  ..Jugowa........
0D60: 00 00 01 00 0E 02 02 00  09 80 80 84 0D B4 00 03  ................
0D70: 00 4D 75 67 69 64 6F 00  00 00 00 00 00 00 00 00  .Mugido.........
0D80: 00 01 00 0E 02 02 00 0B  80 80 A3 0D B4 00 03 00  ................
0D90: 56 6F 6C 64 61 69 00 00  00 00 00 00 00 00 00 00  Voldai..........
0DA0: 01 00 0E 02 02 00 0D 80  80 C2 0D B4 00 03 00 57  ...............W
0DB0: 61 67 77 65 69 00 00 00  00 00 00 00 00 00 00 01  agwei...........
0DC0: 00 0E 02 02 00 0F 80 80  E1 0D B4 00 03 00 5A 61  ..............Za
0DD0: 79 61 67 00 00 00 00 00  00 00 00 00 00 00 01 00  yag.............
0DE0: 0E 02 02 00 11 80 80 00  0E B4 00 03 00 5A 6F 6C  .............Zol
0DF0: 64 6F 66 00 00 00 00 00  00 00 00 00 00 01 00 0E  dof.............
0E00: 01 03 0E 02 03 00 00 80  01 0F 0E B5 00 03 00 1B  ................
0E10: 03 03 00 00 80 1A 2B 1A  1A 35 1A 02 0C 00 00 80  ......+..5......
0E20: 80 1E 0F 02 02 00 00 80  80 42 0E B4 00 03 00 46  .........B.....F
0E30: 65 6C 69 7A 00 00 00 00  00 00 00 00 00 00 00 01  eliz............
0E40: 1B 0F 02 02 00 05 80 80  61 0E B4 00 03 00 46 65  ........a.....Fe
0E50: 72 64 69 6E 61 6E 64 00  00 00 00 00 00 00 01 1B  rdinand.........
0E60: 0F 02 02 00 07 80 80 80  0E B4 00 03 00 47 75 6E  .............Gun
0E70: 6E 61 72 00 00 00 00 00  00 00 00 00 00 01 1B 0F  nar.............
0E80: 02 02 00 09 80 80 9F 0E  B4 00 03 00 4D 61 73 73  ............Mass
0E90: 69 6D 6F 00 00 00 00 00  00 00 00 00 01 1B 0F 02  imo.............
0EA0: 02 00 0B 80 80 BE 0E B4  00 03 00 4F 6C 64 72 69  ...........Oldri
0EB0: 63 68 00 00 00 00 00 00  00 00 00 01 1B 0F 02 02  ch..............
0EC0: 00 0D 80 80 DD 0E B4 00  03 00 53 69 65 67 77 61  ..........Siegwa
0ED0: 72 64 00 00 00 00 00 00  00 00 01 1B 0F 02 02 00  rd..............
0EE0: 0F 80 80 FC 0E B4 00 03  00 54 68 65 6F 62 61 6C  .........Theobal
0EF0: 64 00 00 00 00 00 00 00  00 01 1B 0F 02 02 00 11  d...............
0F00: 80 80 1B 0F B4 00 03 00  5A 65 6E 6A 69 00 00 00  ........Zenji...
0F10: 00 00 00 00 00 00 00 00  01 1B 0F 01 33 16 02 0C  ............3...
0F20: 00 05 80 80 21 10 02 02  00 00 80 80 45 0F B4 00  ....!.......E...
0F30: 03 00 41 6D 65 72 69 74  61 00 00 00 00 00 00 00  ..Amerita.......
0F40: 00 00 01 1E 10 02 02 00  05 80 80 64 0F B4 00 03  ...........d....
0F50: 00 42 65 61 74 72 69 63  65 00 00 00 00 00 00 00  .Beatrice.......
0F60: 00 01 1E 10 02 02 00 07  80 80 83 0F B4 00 03 00  ................
0F70: 48 65 6E 72 69 65 74 74  61 00 00 00 00 00 00 00  Henrietta.......
0F80: 01 1E 10 02 02 00 09 80  80 A2 0F B4 00 03 00 4A  ...............J
0F90: 65 73 69 6D 61 65 00 00  00 00 00 00 00 00 00 01  esimae..........
0FA0: 1E 10 02 02 00 0B 80 80  C1 0F B4 00 03 00 4B 61  ..............Ka
0FB0: 72 79 6E 00 00 00 00 00  00 00 00 00 00 00 01 1E  ryn.............
0FC0: 10 02 02 00 0D 80 80 E0  0F B4 00 03 00 4E 61 6E  .............Nan
0FD0: 61 6B 6F 00 00 00 00 00  00 00 00 00 00 01 1E 10  ako.............
0FE0: 02 02 00 0F 80 80 FF 0F  B4 00 03 00 53 68 61 72  ............Shar
0FF0: 6C 65 6E 65 00 00 00 00  00 00 00 00 01 1E 10 02  lene............
1000: 02 00 11 80 80 1E 10 B4  00 03 00 53 69 65 67 68  ...........Siegh
1010: 69 6C 64 65 00 00 00 00  00 00 00 01 1E 10 01 33  ilde...........3
1020: 16 02 0C 00 07 80 80 24  11 02 02 00 00 80 80 48  .......$.......H
1030: 10 B4 00 03 00 43 68 61  6E 61 6E 64 69 74 00 00  .....Chanandit..
1040: 00 00 00 00 00 01 21 11  02 02 00 05 80 80 67 10  ......!.......g.
1050: B4 00 03 00 44 65 75 6C  6D 61 65 75 78 00 00 00  ....Deulmaeux...
1060: 00 00 00 00 01 21 11 02  02 00 07 80 80 86 10 B4  .....!..........
1070: 00 03 00 44 65 6D 72 65  73 69 6E 61 75 78 00 00  ...Demresinaux..
1080: 00 00 00 01 21 11 02 02  00 09 80 80 A5 10 B4 00  ....!...........
1090: 03 00 45 70 68 65 61 6C  67 61 75 78 00 00 00 00  ..Ephealgaux....
10A0: 00 00 01 21 11 02 02 00  0B 80 80 C4 10 B4 00 03  ...!............
10B0: 00 47 61 75 6C 64 65 76  61 6C 00 00 00 00 00 00  .Gauldeval......
10C0: 00 01 21 11 02 02 00 0D  80 80 E3 10 B4 00 03 00  ..!.............
10D0: 47 72 61 75 66 66 65 6D  61 72 74 00 00 00 00 00  Grauffemart.....
10E0: 01 21 11 02 02 00 0F 80  80 02 11 B4 00 03 00 4D  .!.............M
10F0: 69 67 61 69 66 6F 6E 67  75 74 00 00 00 00 00 01  igaifongut......
1100: 21 11 02 02 00 11 80 80  21 11 B4 00 03 00 52 6F  !.......!.....Ro
1110: 6D 69 64 69 61 6E 74 00  00 00 00 00 00 00 01 21  midiant........!
1120: 11 01 33 16 02 0C 00 09  80 80 27 12 02 02 00 00  ..3.......'.....
1130: 80 80 4B 11 B4 00 03 00  41 72 6D 69 74 74 69 65  ..K.....Armittie
1140: 00 00 00 00 00 00 00 00  01 24 12 02 02 00 05 80  .........$......
1150: 80 6A 11 B4 00 03 00 43  61 64 65 70 75 72 65 00  .j.....Cadepure.
1160: 00 00 00 00 00 00 00 01  24 12 02 02 00 07 80 80  ........$.......
1170: 89 11 B4 00 03 00 43 6C  65 61 72 69 74 65 00 00  ......Clearite..
1180: 00 00 00 00 00 00 01 24  12 02 02 00 09 80 80 A8  .......$........
1190: 11 B4 00 03 00 45 70 69  6C 6C 65 76 65 00 00 00  .....Epilleve...
11A0: 00 00 00 00 00 01 24 12  02 02 00 0B 80 80 C7 11  ......$.........
11B0: B4 00 03 00 4C 69 61 62  65 6C 6C 65 00 00 00 00  ....Liabelle....
11C0: 00 00 00 00 01 24 12 02  02 00 0D 80 80 E6 11 B4  .....$..........
11D0: 00 03 00 4E 61 75 74 68  69 6D 61 00 00 00 00 00  ...Nauthima.....
11E0: 00 00 00 01 24 12 02 02  00 0F 80 80 05 12 B4 00  ....$...........
11F0: 03 00 52 61 64 69 6C 6C  65 00 00 00 00 00 00 00  ..Radille.......
1200: 00 00 01 24 12 02 02 00  11 80 80 24 12 B4 00 03  ...$.......$....
1210: 00 56 69 6D 65 63 68 75  65 00 00 00 00 00 00 00  .Vimechue.......
1220: 00 01 24 12 01 33 16 02  0C 00 0B 80 80 2A 13 02  ..$..3.......*..
1230: 02 00 00 80 80 4E 12 B4  00 03 00 42 61 6C 75 2D  .....N.....Balu-
1240: 46 61 6C 75 00 00 00 00  00 00 00 01 27 13 02 02  Falu........'...
1250: 00 05 80 80 6D 12 B4 00  03 00 42 75 72 67 2D 4C  ....m.....Burg-L
1260: 61 64 61 72 67 00 00 00  00 00 01 27 13 02 02 00  adarg......'....
1270: 07 80 80 8C 12 B4 00 03  00 45 68 67 6F 2D 52 79  .........Ehgo-Ry
1280: 75 68 67 6F 00 00 00 00  00 01 27 13 02 02 00 09  uhgo......'.....
1290: 80 80 AB 12 B4 00 03 00  4B 6F 6C 75 69 2D 50 65  ........Kolui-Pe
12A0: 6C 75 69 00 00 00 00 00  01 27 13 02 02 00 0B 80  lui......'......
12B0: 80 CA 12 B4 00 03 00 4E  6F 6B 75 6D 2D 41 6B 6B  .......Nokum-Akk
12C0: 75 6D 00 00 00 00 00 01  27 13 02 02 00 0D 80 80  um......'.......
12D0: E9 12 B4 00 03 00 53 61  76 75 6C 2D 4B 69 76 75  ......Savul-Kivu
12E0: 6C 00 00 00 00 00 01 27  13 02 02 00 0F 80 80 08  l......'........
12F0: 13 B4 00 03 00 56 69 6E  6A 61 2D 4B 61 6E 6A 61  .....Vinja-Kanja
1300: 00 00 00 00 00 01 27 13  02 02 00 11 80 80 27 13  ......'.......'.
1310: B4 00 03 00 59 61 72 67  61 2D 55 6D 69 67 61 00  ....Yarga-Umiga.
1320: 00 00 00 00 01 27 13 01  33 16 02 0C 00 0D 80 80  .....'..3.......
1330: 2D 14 02 02 00 00 80 80  51 13 B4 00 03 00 43 75  -.......Q.....Cu
1340: 70 61 70 61 00 00 00 00  00 00 00 00 00 00 01 2A  papa...........*
1350: 14 02 02 00 05 80 80 70  13 B4 00 03 00 4A 61 6A  .......p.....Jaj
1360: 75 6A 75 00 00 00 00 00  00 00 00 00 00 01 2A 14  uju...........*.
1370: 02 02 00 07 80 80 8F 13  B4 00 03 00 4B 61 6C 6F  ............Kalo
1380: 6B 6F 6B 6F 00 00 00 00  00 00 00 00 01 2A 14 02  koko.........*..
1390: 02 00 09 80 80 AE 13 B4  00 03 00 4D 61 68 6F 79  ...........Mahoy
13A0: 61 79 61 00 00 00 00 00  00 00 00 01 2A 14 02 02  aya.........*...
13B0: 00 0B 80 80 CD 13 B4 00  03 00 50 61 6B 75 72 61  ..........Pakura
13C0: 72 61 00 00 00 00 00 00  00 00 01 2A 14 02 02 00  ra.........*....
13D0: 0D 80 80 EC 13 B4 00 03  00 52 69 70 6F 6B 65 6B  .........Ripokek
13E0: 65 00 00 00 00 00 00 00  00 01 2A 14 02 02 00 0F  e.........*.....
13F0: 80 80 0B 14 B4 00 03 00  59 61 77 61 77 61 00 00  ........Yawawa..
1400: 00 00 00 00 00 00 00 00  01 2A 14 02 02 00 11 80  .........*......
1410: 80 2A 14 B4 00 03 00 59  75 66 61 66 61 00 00 00  .*.....Yufafa...
1420: 00 00 00 00 00 00 00 01  2A 14 01 33 16 02 0C 00  ........*..3....
1430: 0F 80 80 30 15 02 02 00  00 80 80 54 14 B4 00 03  ...0.......T....
1440: 00 46 68 69 67 00 00 00  00 00 00 00 00 00 00 00  .Fhig...........
1450: 00 01 2D 15 02 02 00 05  80 80 73 14 B4 00 03 00  ..-.......s.....
1460: 4B 68 75 6D 61 00 00 00  00 00 00 00 00 00 00 00  Khuma...........
1470: 01 2D 15 02 02 00 07 80  80 92 14 B4 00 03 00 50  .-.............P
1480: 69 6D 79 00 00 00 00 00  00 00 00 00 00 00 00 01  imy.............
1490: 2D 15 02 02 00 09 80 80  B1 14 B4 00 03 00 52 61  -.............Ra
14A0: 6B 61 00 00 00 00 00 00  00 00 00 00 00 00 01 2D  ka.............-
14B0: 15 02 02 00 0B 80 80 D0  14 B4 00 03 00 53 61 68  .............Sah
14C0: 79 75 00 00 00 00 00 00  00 00 00 00 00 01 2D 15  yu............-.
14D0: 02 02 00 0D 80 80 EF 14  B4 00 03 00 53 75 66 68  ............Sufh
14E0: 69 00 00 00 00 00 00 00  00 00 00 00 01 2D 15 02  i............-..
14F0: 02 00 0F 80 80 0E 15 B4  00 03 00 54 73 75 69 6D  ...........Tsuim
1500: 00 00 00 00 00 00 00 00  00 00 00 01 2D 15 02 02  ............-...
1510: 00 11 80 80 2D 15 B4 00  03 00 59 6F 6C 69 00 00  ....-.....Yoli..
1520: 00 00 00 00 00 00 00 00  00 00 01 2D 15 01 33 16  ...........-..3.
1530: 02 0C 00 11 80 80 33 16  02 02 00 00 80 80 57 15  ......3.......W.
1540: B4 00 03 00 44 75 72 69  62 00 00 00 00 00 00 00  ....Durib.......
1550: 00 00 00 00 01 30 16 02  02 00 05 80 80 76 15 B4  .....0.......v..
1560: 00 03 00 44 7A 61 70 69  77 61 00 00 00 00 00 00  ...Dzapiwa......
1570: 00 00 00 01 30 16 02 02  00 07 80 80 95 15 B4 00  ....0...........
1580: 03 00 4A 75 67 6F 77 61  00 00 00 00 00 00 00 00  ..Jugowa........
1590: 00 00 01 30 16 02 02 00  09 80 80 B4 15 B4 00 03  ...0............
15A0: 00 4D 75 67 69 64 6F 00  00 00 00 00 00 00 00 00  .Mugido.........
15B0: 00 01 30 16 02 02 00 0B  80 80 D3 15 B4 00 03 00  ..0.............
15C0: 56 6F 6C 64 61 69 00 00  00 00 00 00 00 00 00 00  Voldai..........
15D0: 01 30 16 02 02 00 0D 80  80 F2 15 B4 00 03 00 57  .0.............W
15E0: 61 67 77 65 69 00 00 00  00 00 00 00 00 00 00 01  agwei...........
15F0: 30 16 02 02 00 0F 80 80  11 16 B4 00 03 00 5A 61  0.............Za
1600: 79 61 67 00 00 00 00 00  00 00 00 00 00 00 01 30  yag............0
1610: 16 02 02 00 11 80 80 30  16 B4 00 03 00 5A 6F 6C  .......0.....Zol
1620: 64 6F 66 00 00 00 00 00  00 00 00 00 00 01 30 16  dof...........0.
1630: 01 33 16 02 03 00 00 80  01 3F 16 B5 00 03 00 1B  .3.......?......
1640: 1A 06 1A 02 0A 00 00 80  02 0B 18 02 0C 00 00 80  ................
1650: 80 83 16 02 0A 00 05 80  80 62 16 B6 0F 35 80 01  .........b...5..
1660: 80 16 02 0A 00 07 80 80  71 16 B6 0F 36 80 01 80  ........q...6...
1670: 16 02 0A 00 09 80 80 80  16 B6 0F 37 80 01 80 16  ...........7....
1680: 01 0B 18 02 0C 00 05 80  80 BB 16 02 0A 00 05 80  ................
1690: 80 9A 16 B6 0F 35 80 01  B8 16 02 0A 00 07 80 80  .....5..........
16A0: A9 16 B6 0F 36 80 01 B8  16 02 0A 00 09 80 80 B8  ....6...........
16B0: 16 B6 0F 37 80 01 B8 16  01 0B 18 02 0C 00 07 80  ...7............
16C0: 80 F3 16 02 0A 00 05 80  80 D2 16 B6 0F 35 80 01  .............5..
16D0: F0 16 02 0A 00 07 80 80  E1 16 B6 0F 36 80 01 F0  ............6...
16E0: 16 02 0A 00 09 80 80 F0  16 B6 0F 37 80 01 F0 16  ...........7....
16F0: 01 0B 18 02 0C 00 09 80  80 2B 17 02 0A 00 05 80  .........+......
1700: 80 0A 17 B6 0F 35 80 01  28 17 02 0A 00 07 80 80  .....5..(.......
1710: 19 17 B6 0F 36 80 01 28  17 02 0A 00 09 80 80 28  ....6..(.......(
1720: 17 B6 0F 37 80 01 28 17  01 0B 18 02 0C 00 0B 80  ...7..(.........
1730: 80 63 17 02 0A 00 05 80  80 42 17 B6 0F 38 80 01  .c.......B...8..
1740: 60 17 02 0A 00 07 80 80  51 17 B6 0F 39 80 01 60  `.......Q...9..`
1750: 17 02 0A 00 09 80 80 60  17 B6 0F 3A 80 01 60 17  .......`...:..`.
1760: 01 0B 18 02 0C 00 0D 80  80 9B 17 02 0A 00 05 80  ................
1770: 80 7A 17 B6 0F 38 80 01  98 17 02 0A 00 07 80 80  .z...8..........
1780: 89 17 B6 0F 39 80 01 98  17 02 0A 00 09 80 80 98  ....9...........
1790: 17 B6 0F 3A 80 01 98 17  01 0B 18 02 0C 00 0F 80  ...:............
17A0: 80 D3 17 02 0A 00 05 80  80 B2 17 B6 0F 3B 80 01  .............;..
17B0: D0 17 02 0A 00 07 80 80  C1 17 B6 0F 3C 80 01 D0  ............<...
17C0: 17 02 0A 00 09 80 80 D0  17 B6 0F 3D 80 01 D0 17  ...........=....
17D0: 01 0B 18 02 0C 00 11 80  80 0B 18 02 0A 00 05 80  ................
17E0: 80 EA 17 B6 0F 3A 80 01  08 18 02 0A 00 07 80 80  .....:..........
17F0: F9 17 B6 0F 3E 80 01 08  18 02 0A 00 09 80 80 08  ....>...........
1800: 18 B6 0F 36 80 01 08 18  01 0B 18 0B 0C 00 B6 0B  ...6............
1810: 0C 00 0D 00 0E 00 0F 00  10 00 11 00 12 00 00 80  ................
1820: 00 80 1B 1A 06 1A 02 0A  00 00 80 02 EE 19 02 0C  ................
1830: 00 00 80 80 66 18 02 0A  00 05 80 80 45 18 B6 0F  ....f.......E...
1840: 35 80 01 63 18 02 0A 00  07 80 80 54 18 B6 0F 36  5..c.......T...6
1850: 80 01 63 18 02 0A 00 09  80 80 63 18 B6 0F 37 80  ..c.......c...7.
1860: 01 63 18 01 EE 19 02 0C  00 05 80 80 9E 18 02 0A  .c..............
1870: 00 05 80 80 7D 18 B6 0F  35 80 01 9B 18 02 0A 00  ....}...5.......
1880: 07 80 80 8C 18 B6 0F 36  80 01 9B 18 02 0A 00 09  .......6........
1890: 80 80 9B 18 B6 0F 37 80  01 9B 18 01 EE 19 02 0C  ......7.........
18A0: 00 07 80 80 D6 18 02 0A  00 05 80 80 B5 18 B6 0F  ................
18B0: 35 80 01 D3 18 02 0A 00  07 80 80 C4 18 B6 0F 36  5..............6
18C0: 80 01 D3 18 02 0A 00 09  80 80 D3 18 B6 0F 37 80  ..............7.
18D0: 01 D3 18 01 EE 19 02 0C  00 09 80 80 0E 19 02 0A  ................
18E0: 00 05 80 80 ED 18 B6 0F  35 80 01 0B 19 02 0A 00  ........5.......
18F0: 07 80 80 FC 18 B6 0F 36  80 01 0B 19 02 0A 00 09  .......6........
1900: 80 80 0B 19 B6 0F 37 80  01 0B 19 01 EE 19 02 0C  ......7.........
1910: 00 0B 80 80 46 19 02 0A  00 05 80 80 25 19 B6 0F  ....F.......%...
1920: 38 80 01 43 19 02 0A 00  07 80 80 34 19 B6 0F 39  8..C.......4...9
1930: 80 01 43 19 02 0A 00 09  80 80 43 19 B6 0F 3A 80  ..C.......C...:.
1940: 01 43 19 01 EE 19 02 0C  00 0D 80 80 7E 19 02 0A  .C..........~...
1950: 00 05 80 80 5D 19 B6 0F  38 80 01 7B 19 02 0A 00  ....]...8..{....
1960: 07 80 80 6C 19 B6 0F 39  80 01 7B 19 02 0A 00 09  ...l...9..{.....
1970: 80 80 7B 19 B6 0F 3A 80  01 7B 19 01 EE 19 02 0C  ..{...:..{......
1980: 00 0F 80 80 B6 19 02 0A  00 05 80 80 95 19 B6 0F  ................
1990: 3B 80 01 B3 19 02 0A 00  07 80 80 A4 19 B6 0F 3C  ;..............<
19A0: 80 01 B3 19 02 0A 00 09  80 80 B3 19 B6 0F 3D 80  ..............=.
19B0: 01 B3 19 01 EE 19 02 0C  00 11 80 80 EE 19 02 0A  ................
19C0: 00 05 80 80 CD 19 B6 0F  3A 80 01 EB 19 02 0A 00  ........:.......
19D0: 07 80 80 DC 19 B6 0F 3E  80 01 EB 19 02 0A 00 09  .......>........
19E0: 80 80 EB 19 B6 0F 36 80  01 EB 19 01 EE 19 0B 0C  ......6.........
19F0: 00 B6 0B 0C 00 0D 00 0E  00 0F 00 10 00 11 00 12  ................
1A00: 00 13 00 14 00 1B 1A 35  1A 1A 2A 1B 1A 20 1B 1A  .......5..*.. ..
1A10: 81 1F 1A 96 1F 1A B6 1F  1A D6 1F 1A F6 1F 1A 23  ...............#
1A20: 1F 1A 43 1F 1A 16 20 1A  3E 20 1B 41 00 80 09 80  ..C... .> .A....
1A30: 09 10 02 00 1B 41 0B 80  0F 80 09 10 0C 00 03 1E  .....A..........
1A40: 17 00 80 02 0C 00 00 80  80 53 1A 03 1F 17 00 80  .........S......
1A50: 01 C3 1A 02 0C 00 05 80  80 63 1A 03 1F 17 05 80  .........c......
1A60: 01 C3 1A 02 0C 00 07 80  80 73 1A 03 1F 17 00 80  .........s......
1A70: 01 C3 1A 02 0C 00 09 80  80 83 1A 03 1F 17 05 80  ................
1A80: 01 C3 1A 02 0C 00 0B 80  80 93 1A 03 1F 17 00 80  ................
1A90: 01 C3 1A 02 0C 00 0D 80  80 A3 1A 03 1F 17 05 80  ................
1AA0: 01 C3 1A 02 0C 00 0F 80  80 B3 1A 03 1F 17 05 80  ................
1AB0: 01 C3 1A 02 0C 00 11 80  80 C3 1A 03 1F 17 00 80  ................
1AC0: 01 C3 1A 02 1F 17 05 80  00 0B 1B 02 87 7F 07 80  ................
1AD0: 80 DB 1A 03 1E 17 05 80  01 0B 1B 02 87 7F 0B 80  ................
1AE0: 80 EB 1A 03 1E 17 05 80  01 0B 1B 02 87 7F 0F 80  ................
1AF0: 80 FB 1A 03 1E 17 05 80  01 0B 1B 02 87 7F 11 80  ................
1B00: 80 0B 1B 03 1E 17 05 80  01 0B 1B 1B 41 3F 80 40  ............A?.@
1B10: 80 09 10 07 00 1B 41 41  80 42 80 09 10 09 00 1B  ......AA.B......
1B20: 41 43 80 20 80 09 10 0A  00 1B 1A 35 1A 1A 0C 1B  AC. .......5....
1B30: 02 07 00 00 80 00 44 1B  41 44 80 45 80 09 10 0D  ......D.AD.E....
1B40: 00 01 84 1E 02 0C 00 00  80 80 AC 1B 02 07 00 05  ................
1B50: 80 80 6B 1B 3E 09 10 11  80 63 1B 03 0D 00 42 80  ..k.>....c....B.
1B60: 01 68 1B 03 0D 00 2F 80  01 A9 1B 02 07 00 07 80  .h..../.........
1B70: 80 8A 1B 3E 09 10 11 80  82 1B 03 0D 00 0D 80 01  ...>............
1B80: 87 1B 03 0D 00 0B 80 01  A9 1B 02 07 00 09 80 80  ................
1B90: A9 1B 3E 09 10 11 80 A1  1B 03 0D 00 05 80 01 A6  ..>.............
1BA0: 1B 03 0D 00 00 80 01 A9  1B 01 84 1E 02 0C 00 05  ................
1BB0: 80 80 14 1C 02 07 00 05  80 80 D3 1B 3E 09 10 11  ............>...
1BC0: 80 CB 1B 03 0D 00 05 80  01 D0 1B 03 0D 00 00 80  ................
1BD0: 01 11 1C 02 07 00 07 80  80 F2 1B 3E 09 10 11 80  ...........>....
1BE0: EA 1B 03 0D 00 0D 80 01  EF 1B 03 0D 00 0B 80 01  ................
1BF0: 11 1C 02 07 00 09 80 80  11 1C 3E 09 10 11 80 09  ..........>.....
1C00: 1C 03 0D 00 09 80 01 0E  1C 03 0D 00 07 80 01 11  ................
1C10: 1C 01 84 1E 02 0C 00 07  80 80 7C 1C 02 07 00 05  ..........|.....
1C20: 80 80 3B 1C 3E 09 10 11  80 33 1C 03 0D 00 09 80  ..;.>....3......
1C30: 01 38 1C 03 0D 00 07 80  01 79 1C 02 07 00 07 80  .8.......y......
1C40: 80 5A 1C 3E 09 10 11 80  52 1C 03 0D 00 46 80 01  .Z.>....R....F..
1C50: 57 1C 03 0D 00 47 80 01  79 1C 02 07 00 09 80 80  W....G..y.......
1C60: 79 1C 3E 09 10 11 80 71  1C 03 0D 00 42 80 01 76  y.>....q....B..v
1C70: 1C 03 0D 00 2F 80 01 79  1C 01 84 1E 02 0C 00 09  ..../..y........
1C80: 80 80 E4 1C 02 07 00 05  80 80 A3 1C 3E 09 10 11  ............>...
1C90: 80 9B 1C 03 0D 00 05 80  01 A0 1C 03 0D 00 00 80  ................
1CA0: 01 E1 1C 02 07 00 07 80  80 C2 1C 3E 09 10 11 80  ...........>....
1CB0: BA 1C 03 0D 00 48 80 01  BF 1C 03 0D 00 41 80 01  .....H.......A..
1CC0: E1 1C 02 07 00 09 80 80  E1 1C 3E 09 10 11 80 D9  ..........>.....
1CD0: 1C 03 0D 00 11 80 01 DE  1C 03 0D 00 0F 80 01 E1  ................
1CE0: 1C 01 84 1E 02 0C 00 0B  80 80 4C 1D 02 07 00 05  ..........L.....
1CF0: 80 80 0B 1D 3E 09 10 11  80 03 1D 03 0D 00 0D 80  ....>...........
1D00: 01 08 1D 03 0D 00 0B 80  01 49 1D 02 07 00 07 80  .........I......
1D10: 80 2A 1D 3E 09 10 11 80  22 1D 03 0D 00 09 80 01  .*.>....".......
1D20: 27 1D 03 0D 00 07 80 01  49 1D 02 07 00 09 80 80  '.......I.......
1D30: 49 1D 3E 09 10 11 80 41  1D 03 0D 00 11 80 01 46  I.>....A.......F
1D40: 1D 03 0D 00 0F 80 01 49  1D 01 84 1E 02 0C 00 0D  .......I........
1D50: 80 80 B4 1D 02 07 00 05  80 80 73 1D 3E 09 10 11  ..........s.>...
1D60: 80 6B 1D 03 0D 00 09 80  01 70 1D 03 0D 00 07 80  .k.......p......
1D70: 01 B1 1D 02 07 00 07 80  80 92 1D 3E 09 10 11 80  ...........>....
1D80: 8A 1D 03 0D 00 11 80 01  8F 1D 03 0D 00 0F 80 01  ................
1D90: B1 1D 02 07 00 09 80 80  B1 1D 3E 09 10 11 80 A9  ..........>.....
1DA0: 1D 03 0D 00 05 80 01 AE  1D 03 0D 00 00 80 01 B1  ................
1DB0: 1D 01 84 1E 02 0C 00 0F  80 80 1C 1E 02 07 00 05  ................
1DC0: 80 80 DB 1D 3E 09 10 11  80 D3 1D 03 0D 00 40 80  ....>.........@.
1DD0: 01 D8 1D 03 0D 00 3F 80  01 19 1E 02 07 00 07 80  ......?.........
1DE0: 80 FA 1D 3E 09 10 11 80  F2 1D 03 0D 00 48 80 01  ...>.........H..
1DF0: F7 1D 03 0D 00 41 80 01  19 1E 02 07 00 09 80 80  .....A..........
1E00: 19 1E 3E 09 10 11 80 11  1E 03 0D 00 42 80 01 16  ..>.........B...
1E10: 1E 03 0D 00 2F 80 01 19  1E 01 84 1E 02 0C 00 11  ..../...........
1E20: 80 80 84 1E 02 07 00 05  80 80 43 1E 3E 09 10 11  ..........C.>...
1E30: 80 3B 1E 03 0D 00 0D 80  01 40 1E 03 0D 00 0B 80  .;.......@......
1E40: 01 81 1E 02 07 00 07 80  80 62 1E 3E 09 10 11 80  .........b.>....
1E50: 5A 1E 03 0D 00 42 80 01  5F 1E 03 0D 00 2F 80 01  Z....B.._..../..
1E60: 81 1E 02 07 00 09 80 80  81 1E 3E 09 10 11 80 79  ..........>....y
1E70: 1E 03 0D 00 48 80 01 7E  1E 03 0D 00 41 80 01 81  ....H..~....A...
1E80: 1E 01 84 1E 1B 40 49 80  4A 80 01 10 05 80 43 00  .....@I.J.....C.
1E90: 43 01 1B 40 49 80 4A 80  01 10 07 80 43 00 43 01  C..@I.J.....C.C.
1EA0: 1B 40 49 80 4A 80 01 10  09 80 43 00 43 01 1B 40  .@I.J.....C.C..@
1EB0: 49 80 4A 80 01 10 0B 80  43 00 43 01 1B 40 49 80  I.J.....C.C..@I.
1EC0: 4A 80 01 10 0D 80 43 00  43 01 1B 40 49 80 4A 80  J.....C.C..@I.J.
1ED0: 01 10 0F 80 43 00 43 01  1B 40 49 80 4A 80 01 10  ....C.C..@I.J...
1EE0: 11 80 43 00 43 01 1B 40  49 80 4A 80 01 10 3F 80  ..C.C..@I.J...?.
1EF0: 43 00 43 01 1B 40 49 80  4A 80 01 10 41 80 43 00  C.C..@I.J...A.C.
1F00: 43 01 1B 1A 35 1A 03 0B  00 0C 00 02 0B 00 0D 80  C...5...........
1F10: 04 18 1F 08 0B 00 05 80  14 0B 00 41 80 07 0B 00  ...........A....
1F20: 40 80 1B 03 17 00 00 80  03 18 00 00 80 41 44 80  @............AD.
1F30: 45 80 08 10 17 00 41 00  80 09 80 07 10 18 00 1A  E.....A.........
1F40: C9 45 1B 03 17 00 00 80  41 49 80 4B 80 08 10 17  .E......AI.K....
1F50: 00 3E 07 10 44 80 67 1F  41 00 80 09 80 07 10 18  .>..D.g.A.......
1F60: 00 1A B1 4B 01 80 1F 41  00 80 09 80 07 10 18 00  ...K...A........
1F70: 02 18 00 00 80 80 7B 1F  01 80 1F 03 14 00 00 80  ......{.........
1F80: 1B 03 17 00 00 80 41 00  80 09 80 08 10 17 00 1A  ......A.........
1F90: 16 1B 1A 10 31 1B 03 16  00 00 80 03 17 00 00 80  ....1...........
1FA0: 41 0F 80 11 80 07 10 16  00 41 0B 80 11 80 08 10  A........A......
1FB0: 17 00 1A 15 39 1B 03 16  00 00 80 03 17 00 00 80  ....9...........
1FC0: 41 3F 80 40 80 07 10 16  00 41 3F 80 48 80 08 10  A?.@.....A?.H...
1FD0: 17 00 1A 42 3C 1B 03 16  00 00 80 03 17 00 00 80  ...B<...........
1FE0: 41 41 80 48 80 07 10 16  00 41 2F 80 46 80 08 10  AA.H.....A/.F...
1FF0: 17 00 1A 6F 3F 1B 03 16  00 00 80 03 17 00 00 80  ...o?...........
2000: 41 2F 80 42 80 07 10 16  00 41 4C 80 20 80 08 10  A/.B.....AL. ...
2010: 17 00 1A 9C 42 1B 41 00  80 09 80 06 10 15 00 1A  ....B.A.........
2020: 35 1A 1A 8D 4C 41 0B 80  11 80 06 10 15 00 1A 90  5...LA..........
2030: 4D 41 3F 80 48 80 06 10  15 00 1A DA 4D 1B 41 4D  MA?.H.......M.AM
2040: 80 49 80 07 10 01 00 02  01 00 05 80 80 57 20 03  .I...........W .
2050: 13 00 4E 80 01 A0 21 02  01 00 07 80 80 67 20 03  ..N...!......g .
2060: 13 00 4F 80 01 A0 21 02  01 00 09 80 80 77 20 03  ..O...!......w .
2070: 13 00 50 80 01 A0 21 02  01 00 0B 80 80 87 20 03  ..P...!....... .
2080: 13 00 51 80 01 A0 21 02  01 00 0D 80 80 97 20 03  ..Q...!....... .
2090: 13 00 52 80 01 A0 21 02  01 00 0F 80 80 A7 20 03  ..R...!....... .
20A0: 13 00 53 80 01 A0 21 02  01 00 11 80 80 A0 21 41  ..S...!.......!A
20B0: 00 80 11 80 03 10 01 00  02 01 00 00 80 80 C8 20  ............... 
20C0: 03 13 00 4E 80 01 9D 21  02 01 00 05 80 80 D8 20  ...N...!....... 
20D0: 03 13 00 54 80 01 9D 21  02 01 00 07 80 80 E8 20  ...T...!....... 
20E0: 03 13 00 55 80 01 9D 21  02 01 00 09 80 80 F8 20  ...U...!....... 
20F0: 03 13 00 56 80 01 9D 21  02 01 00 0B 80 80 08 21  ...V...!.......!
2100: 03 13 00 57 80 01 9D 21  02 01 00 0D 80 80 18 21  ...W...!.......!
2110: 03 13 00 58 80 01 9D 21  02 01 00 0F 80 80 28 21  ...X...!......(!
2120: 03 13 00 59 80 01 9D 21  02 01 00 11 80 80 3D 21  ...Y...!......=!
2130: 03 13 00 5A 80 03 14 00  5A 80 01 9D 21 02 01 00  ...Z....Z...!...
2140: 3F 80 80 4D 21 03 13 00  5B 80 01 9D 21 02 01 00  ?..M!...[...!...
2150: 40 80 80 5D 21 03 13 00  5C 80 01 9D 21 02 01 00  @..]!...\...!...
2160: 41 80 80 6D 21 03 13 00  5D 80 01 9D 21 02 01 00  A..m!...]...!...
2170: 48 80 80 7D 21 03 13 00  5E 80 01 9D 21 02 01 00  H..}!...^...!...
2180: 2F 80 80 8D 21 03 13 00  5F 80 01 9D 21 02 01 00  /...!..._...!...
2190: 42 80 80 9D 21 03 13 00  60 80 01 9D 21 01 A0 21  B...!...`...!..!
21A0: 3E 03 10 3F 80 30 22 41  40 80 46 80 03 10 01 00  >..?.0"A@.F.....
21B0: 02 01 00 00 80 80 C0 21  03 14 00 61 80 01 30 22  .......!...a..0"
21C0: 02 01 00 05 80 80 D0 21  03 14 00 62 80 01 30 22  .......!...b..0"
21D0: 02 01 00 07 80 80 E0 21  03 14 00 63 80 01 30 22  .......!...c..0"
21E0: 02 01 00 09 80 80 F0 21  03 14 00 64 80 01 30 22  .......!...d..0"
21F0: 02 01 00 0B 80 80 00 22  03 14 00 65 80 01 30 22  ......."...e..0"
2200: 02 01 00 0D 80 80 10 22  03 14 00 66 80 01 30 22  ......."...f..0"
2210: 02 01 00 0F 80 80 20 22  03 14 00 67 80 01 30 22  ...... "...g..0"
2220: 02 01 00 11 80 80 30 22  03 14 00 68 80 01 30 22  ......0"...h..0"
2230: 41 69 80 4B 80 07 10 01  00 02 01 00 05 80 80 49  Ai.K...........I
2240: 22 03 0E 00 6A 80 01 F8  23 02 01 00 07 80 80 59  "...j...#......Y
2250: 22 03 0E 00 6B 80 01 F8  23 02 01 00 09 80 80 69  "...k...#......i
2260: 22 03 0E 00 6C 80 01 F8  23 02 01 00 0B 80 80 79  "...l...#......y
2270: 22 03 0E 00 6D 80 01 F8  23 02 01 00 0D 80 80 89  "...m...#.......
2280: 22 03 0E 00 6E 80 01 F8  23 02 01 00 0F 80 80 99  "...n...#.......
2290: 22 03 0E 00 6F 80 01 F8  23 02 01 00 11 80 80 F8  "...o...#.......
22A0: 23 41 4C 80 45 80 03 10  01 00 02 01 00 00 80 80  #AL.E...........
22B0: 35 23 02 0C 00 00 80 80  C2 22 03 0E 00 70 80 01  5#......."...p..
22C0: 32 23 02 0C 00 05 80 80  D2 22 03 0E 00 52 80 01  2#......."...R..
22D0: 32 23 02 0C 00 07 80 80  E2 22 03 0E 00 70 80 01  2#......."...p..
22E0: 32 23 02 0C 00 09 80 80  F2 22 03 0E 00 52 80 01  2#......."...R..
22F0: 32 23 02 0C 00 0B 80 80  02 23 03 0E 00 70 80 01  2#.......#...p..
2300: 32 23 02 0C 00 0D 80 80  12 23 03 0E 00 52 80 01  2#.......#...R..
2310: 32 23 02 0C 00 0F 80 80  22 23 03 0E 00 52 80 01  2#......"#...R..
2320: 32 23 02 0C 00 11 80 80  32 23 03 0E 00 70 80 01  2#......2#...p..
2330: 32 23 01 F5 23 02 01 00  05 80 80 45 23 03 0E 00  2#..#......E#...
2340: 71 80 01 F5 23 02 01 00  07 80 80 55 23 03 0E 00  q...#......U#...
2350: 72 80 01 F5 23 02 01 00  09 80 80 65 23 03 0E 00  r...#......e#...
2360: 50 80 01 F5 23 02 01 00  0B 80 80 75 23 03 0E 00  P...#......u#...
2370: 51 80 01 F5 23 02 01 00  0D 80 80 85 23 03 0E 00  Q...#.......#...
2380: 73 80 01 F5 23 02 01 00  0F 80 80 95 23 03 0E 00  s...#.......#...
2390: 6F 80 01 F5 23 02 01 00  11 80 80 A5 23 03 0E 00  o...#.......#...
23A0: 6F 80 01 F5 23 02 01 00  3F 80 80 B5 23 03 0E 00  o...#...?...#...
23B0: 74 80 01 F5 23 02 01 00  40 80 80 C5 23 03 0E 00  t...#...@...#...
23C0: 75 80 01 F5 23 02 01 00  41 80 80 D5 23 03 0E 00  u...#...A...#...
23D0: 76 80 01 F5 23 02 01 00  48 80 80 E5 23 03 0E 00  v...#...H...#...
23E0: 77 80 01 F5 23 02 01 00  2F 80 80 F5 23 03 0E 00  w...#.../...#...
23F0: 78 80 01 F5 23 01 F8 23  41 79 80 4A 80 07 10 01  x...#..#Ay.J....
2400: 00 02 01 00 40 80 80 20  24 03 0F 00 7A 80 03 10  ....@.. $...z...
2410: 00 7A 80 03 11 00 7A 80  03 12 00 7A 80 01 0F 31  .z....z....z...1
2420: 02 01 00 41 80 80 23 25  02 0C 00 00 80 80 47 24  ...A..#%......G$
2430: 03 0F 00 7B 80 03 10 00  7B 80 03 11 00 7B 80 03  ...{....{....{..
2440: 12 00 7B 80 01 20 25 02  0C 00 05 80 80 66 24 03  ..{.. %......f$.
2450: 0F 00 7C 80 03 10 00 7C  80 03 11 00 7C 80 03 12  ..|....|....|...
2460: 00 7C 80 01 20 25 02 0C  00 07 80 80 85 24 03 0F  .|.. %.......$..
2470: 00 7B 80 03 10 00 7B 80  03 11 00 7B 80 03 12 00  .{....{....{....
2480: 7B 80 01 20 25 02 0C 00  09 80 80 A4 24 03 0F 00  {.. %.......$...
2490: 7C 80 03 10 00 7C 80 03  11 00 7C 80 03 12 00 7C  |....|....|....|
24A0: 80 01 20 25 02 0C 00 0B  80 80 C3 24 03 0F 00 7B  .. %.......$...{
24B0: 80 03 10 00 7B 80 03 11  00 7B 80 03 12 00 7B 80  ....{....{....{.
24C0: 01 20 25 02 0C 00 0D 80  80 E2 24 03 0F 00 7C 80  . %.......$...|.
24D0: 03 10 00 7C 80 03 11 00  7C 80 03 12 00 7C 80 01  ...|....|....|..
24E0: 20 25 02 0C 00 0F 80 80  01 25 03 0F 00 7C 80 03   %.......%...|..
24F0: 10 00 7C 80 03 11 00 7C  80 03 12 00 7C 80 01 20  ..|....|....|.. 
2500: 25 02 0C 00 11 80 80 20  25 03 0F 00 7B 80 03 10  %...... %...{...
2510: 00 7B 80 03 11 00 7B 80  03 12 00 7B 80 01 20 25  .{....{....{.. %
2520: 01 0F 31 02 01 00 48 80  80 26 26 02 0C 00 00 80  ..1...H..&&.....
2530: 80 4A 25 03 0F 00 70 80  03 10 00 70 80 03 11 00  .J%...p....p....
2540: 70 80 03 12 00 70 80 01  23 26 02 0C 00 05 80 80  p....p..#&......
2550: 69 25 03 0F 00 52 80 03  10 00 52 80 03 11 00 52  i%...R....R....R
2560: 80 03 12 00 52 80 01 23  26 02 0C 00 07 80 80 88  ....R..#&.......
2570: 25 03 0F 00 70 80 03 10  00 70 80 03 11 00 70 80  %...p....p....p.
2580: 03 12 00 70 80 01 23 26  02 0C 00 09 80 80 A7 25  ...p..#&.......%
2590: 03 0F 00 52 80 03 10 00  52 80 03 11 00 52 80 03  ...R....R....R..
25A0: 12 00 52 80 01 23 26 02  0C 00 0B 80 80 C6 25 03  ..R..#&.......%.
25B0: 0F 00 70 80 03 10 00 70  80 03 11 00 70 80 03 12  ..p....p....p...
25C0: 00 70 80 01 23 26 02 0C  00 0D 80 80 E5 25 03 0F  .p..#&.......%..
25D0: 00 52 80 03 10 00 52 80  03 11 00 52 80 03 12 00  .R....R....R....
25E0: 52 80 01 23 26 02 0C 00  0F 80 80 04 26 03 0F 00  R..#&.......&...
25F0: 52 80 03 10 00 52 80 03  11 00 52 80 03 12 00 52  R....R....R....R
2600: 80 01 23 26 02 0C 00 11  80 80 23 26 03 0F 00 70  ..#&......#&...p
2610: 80 03 10 00 70 80 03 11  00 70 80 03 12 00 70 80  ....p....p....p.
2620: 01 23 26 01 0F 31 02 01  00 05 80 80 BA 26 02 0C  .#&..1.......&..
2630: 00 00 80 80 3E 26 03 0F  00 7D 80 01 AE 26 02 0C  ....>&...}...&..
2640: 00 05 80 80 4E 26 03 0F  00 7E 80 01 AE 26 02 0C  ....N&...~...&..
2650: 00 07 80 80 5E 26 03 0F  00 7D 80 01 AE 26 02 0C  ....^&...}...&..
2660: 00 09 80 80 6E 26 03 0F  00 7E 80 01 AE 26 02 0C  ....n&...~...&..
2670: 00 0B 80 80 7E 26 03 0F  00 7D 80 01 AE 26 02 0C  ....~&...}...&..
2680: 00 0D 80 80 8E 26 03 0F  00 7E 80 01 AE 26 02 0C  .....&...~...&..
2690: 00 0F 80 80 9E 26 03 0F  00 7E 80 01 AE 26 02 0C  .....&...~...&..
26A0: 00 11 80 80 AE 26 03 0F  00 7D 80 01 AE 26 1A B6  .....&...}...&..
26B0: 1F 1A D6 1F 1A F6 1F 01  0F 31 02 01 00 07 80 80  .........1......
26C0: 4E 27 02 0C 00 00 80 80  D2 26 03 0F 00 7F 80 01  N'.......&......
26D0: 42 27 02 0C 00 05 80 80  E2 26 03 0F 00 80 80 01  B'.......&......
26E0: 42 27 02 0C 00 07 80 80  F2 26 03 0F 00 7F 80 01  B'.......&......
26F0: 42 27 02 0C 00 09 80 80  02 27 03 0F 00 80 80 01  B'.......'......
2700: 42 27 02 0C 00 0B 80 80  12 27 03 0F 00 7F 80 01  B'.......'......
2710: 42 27 02 0C 00 0D 80 80  22 27 03 0F 00 80 80 01  B'......"'......
2720: 42 27 02 0C 00 0F 80 80  32 27 03 0F 00 80 80 01  B'......2'......
2730: 42 27 02 0C 00 11 80 80  42 27 03 0F 00 7F 80 01  B'......B'......
2740: 42 27 1A B6 1F 1A D6 1F  1A F6 1F 01 0F 31 02 01  B'...........1..
2750: 00 11 80 80 E2 27 02 0C  00 00 80 80 66 27 03 0F  .....'......f'..
2760: 00 81 80 01 D6 27 02 0C  00 05 80 80 76 27 03 0F  .....'......v'..
2770: 00 82 80 01 D6 27 02 0C  00 07 80 80 86 27 03 0F  .....'.......'..
2780: 00 81 80 01 D6 27 02 0C  00 09 80 80 96 27 03 0F  .....'.......'..
2790: 00 82 80 01 D6 27 02 0C  00 0B 80 80 A6 27 03 0F  .....'.......'..
27A0: 00 81 80 01 D6 27 02 0C  00 0D 80 80 B6 27 03 0F  .....'.......'..
27B0: 00 82 80 01 D6 27 02 0C  00 0F 80 80 C6 27 03 0F  .....'.......'..
27C0: 00 82 80 01 D6 27 02 0C  00 11 80 80 D6 27 03 0F  .....'.......'..
27D0: 00 81 80 01 D6 27 1A B6  1F 1A D6 1F 1A F6 1F 01  .....'..........
27E0: 0F 31 02 01 00 09 80 80  20 28 02 0C 00 0D 80 00  .1...... (......
27F0: 09 28 03 0F 00 83 80 03  10 00 83 80 03 11 00 83  .(..............
2800: 80 03 12 00 83 80 01 1D  28 03 0F 00 84 80 03 10  ........(.......
2810: 00 84 80 03 11 00 84 80  03 12 00 84 80 01 0F 31  ...............1
2820: 02 01 00 0B 80 80 5E 28  02 0C 00 0D 80 00 47 28  ......^(......G(
2830: 03 0F 00 85 80 03 10 00  85 80 03 11 00 85 80 03  ................
2840: 12 00 85 80 01 5B 28 03  0F 00 86 80 03 10 00 86  .....[(.........
2850: 80 03 11 00 86 80 03 12  00 86 80 01 0F 31 02 01  .............1..
2860: 00 3F 80 80 9C 28 02 0C  00 0D 80 00 85 28 03 0F  .?...(.......(..
2870: 00 87 80 03 10 00 87 80  03 11 00 87 80 03 12 00  ................
2880: 87 80 01 99 28 03 0F 00  88 80 03 10 00 88 80 03  ....(...........
2890: 11 00 88 80 03 12 00 88  80 01 0F 31 02 01 00 2F  ...........1.../
28A0: 80 80 9F 29 02 0C 00 00  80 80 C3 28 03 0F 00 72  ...).......(...r
28B0: 80 03 10 00 72 80 03 11  00 72 80 03 12 00 72 80  ....r....r....r.
28C0: 01 9C 29 02 0C 00 05 80  80 E2 28 03 0F 00 89 80  ..).......(.....
28D0: 03 10 00 89 80 03 11 00  89 80 03 12 00 89 80 01  ................
28E0: 9C 29 02 0C 00 07 80 80  01 29 03 0F 00 72 80 03  .).......)...r..
28F0: 10 00 72 80 03 11 00 72  80 03 12 00 72 80 01 9C  ..r....r....r...
2900: 29 02 0C 00 09 80 80 20  29 03 0F 00 89 80 03 10  )...... ).......
2910: 00 89 80 03 11 00 89 80  03 12 00 89 80 01 9C 29  ...............)
2920: 02 0C 00 0B 80 80 3F 29  03 0F 00 72 80 03 10 00  ......?)...r....
2930: 72 80 03 11 00 72 80 03  12 00 72 80 01 9C 29 02  r....r....r...).
2940: 0C 00 0D 80 80 5E 29 03  0F 00 89 80 03 10 00 89  .....^).........
2950: 80 03 11 00 89 80 03 12  00 89 80 01 9C 29 02 0C  .............)..
2960: 00 0F 80 80 7D 29 03 0F  00 89 80 03 10 00 89 80  ....})..........
2970: 03 11 00 89 80 03 12 00  89 80 01 9C 29 02 0C 00  ............)...
2980: 11 80 80 9C 29 03 0F 00  72 80 03 10 00 72 80 03  ....)...r....r..
2990: 11 00 72 80 03 12 00 72  80 01 9C 29 01 0F 31 02  ..r....r...)..1.
29A0: 01 00 0D 80 80 BD 29 03  0E 00 00 80 03 0F 00 8A  ......).........
29B0: 80 1A B6 1F 1A D6 1F 1A  F6 1F 01 0F 31 02 01 00  ............1...
29C0: 0F 80 80 57 2A 03 0F 00  6D 80 03 10 00 6F 80 03  ...W*...m....o..
29D0: 12 00 6D 80 02 0C 00 00  80 80 E4 29 03 11 00 7F  ..m........)....
29E0: 80 01 54 2A 02 0C 00 05  80 80 F4 29 03 11 00 80  ..T*.......)....
29F0: 80 01 54 2A 02 0C 00 07  80 80 04 2A 03 11 00 7F  ..T*.......*....
2A00: 80 01 54 2A 02 0C 00 09  80 80 14 2A 03 11 00 80  ..T*.......*....
2A10: 80 01 54 2A 02 0C 00 0B  80 80 24 2A 03 11 00 7F  ..T*......$*....
2A20: 80 01 54 2A 02 0C 00 0D  80 80 34 2A 03 11 00 80  ..T*......4*....
2A30: 80 01 54 2A 02 0C 00 0F  80 80 44 2A 03 11 00 80  ..T*......D*....
2A40: 80 01 54 2A 02 0C 00 11  80 80 54 2A 03 11 00 7F  ..T*......T*....
2A50: 80 01 54 2A 01 0F 31 02  01 00 42 80 80 75 2A 03  ..T*..1...B..u*.
2A60: 0E 00 8B 80 03 0F 00 8B  80 1A B6 1F 1A D6 1F 1A  ................
2A70: F6 1F 01 0F 31 02 01 00  47 80 80 93 2A 03 0E 00  ....1...G...*...
2A80: 8C 80 03 0F 00 8C 80 1A  B6 1F 1A D6 1F 1A F6 1F  ................
2A90: 01 0F 31 02 01 00 46 80  80 0F 31 41 49 80 4A 80  ..1...F...1AI.J.
2AA0: 03 10 01 00 02 01 00 00  80 80 C2 2A 03 0E 00 8D  ...........*....
2AB0: 80 03 0F 00 8D 80 1A B6  1F 1A D6 1F 1A F6 1F 01  ................
2AC0: 0C 31 02 01 00 05 80 80  E6 2A 03 0E 00 4F 80 03  .1.......*...O..
2AD0: 0F 00 8E 80 03 10 00 8E  80 03 11 00 8E 80 03 12  ................
2AE0: 00 8E 80 01 0C 31 02 01  00 07 80 80 0A 2B 03 0E  .....1.......+..
2AF0: 00 8F 80 03 0F 00 8F 80  03 10 00 8F 80 03 11 00  ................
2B00: 8F 80 03 12 00 8F 80 01  0C 31 02 01 00 0F 80 80  .........1......
2B10: 2E 2B 03 0E 00 90 80 03  0F 00 90 80 03 10 00 90  .+..............
2B20: 80 03 11 00 90 80 03 12  00 90 80 01 0C 31 02 01  .............1..
2B30: 00 11 80 80 31 2C 02 0C  00 00 80 80 55 2B 03 0F  ....1,......U+..
2B40: 00 91 80 03 10 00 91 80  03 11 00 91 80 03 12 00  ................
2B50: 91 80 01 2E 2C 02 0C 00  05 80 80 74 2B 03 0F 00  ....,......t+...
2B60: 92 80 03 10 00 92 80 03  11 00 92 80 03 12 00 92  ................
2B70: 80 01 2E 2C 02 0C 00 07  80 80 93 2B 03 0F 00 91  ...,.......+....
2B80: 80 03 10 00 91 80 03 11  00 91 80 03 12 00 91 80  ................
2B90: 01 2E 2C 02 0C 00 09 80  80 B2 2B 03 0F 00 92 80  ..,.......+.....
2BA0: 03 10 00 92 80 03 11 00  92 80 03 12 00 92 80 01  ................
2BB0: 2E 2C 02 0C 00 0B 80 80  D1 2B 03 0F 00 91 80 03  .,.......+......
2BC0: 10 00 91 80 03 11 00 91  80 03 12 00 91 80 01 2E  ................
2BD0: 2C 02 0C 00 0D 80 80 F0  2B 03 0F 00 92 80 03 10  ,.......+.......
2BE0: 00 92 80 03 11 00 92 80  03 12 00 92 80 01 2E 2C  ...............,
2BF0: 02 0C 00 0F 80 80 0F 2C  03 0F 00 92 80 03 10 00  .......,........
2C00: 92 80 03 11 00 92 80 03  12 00 92 80 01 2E 2C 02  ..............,.
2C10: 0C 00 11 80 80 2E 2C 03  0F 00 91 80 03 10 00 91  ......,.........
2C20: 80 03 11 00 91 80 03 12  00 91 80 01 2E 2C 01 0C  .............,..
2C30: 31 02 01 00 09 80 80 EA  2C 02 0C 00 00 80 80 4E  1.......,......N
2C40: 2C 03 0F 00 50 80 03 11  00 50 80 01 E1 2C 02 0C  ,...P....P...,..
2C50: 00 05 80 80 63 2C 03 0F  00 51 80 03 11 00 51 80  ....c,...Q....Q.
2C60: 01 E1 2C 02 0C 00 07 80  80 78 2C 03 0F 00 50 80  ..,......x,...P.
2C70: 03 11 00 50 80 01 E1 2C  02 0C 00 09 80 80 8D 2C  ...P...,.......,
2C80: 03 0F 00 51 80 03 11 00  51 80 01 E1 2C 02 0C 00  ...Q....Q...,...
2C90: 0B 80 80 A2 2C 03 0F 00  50 80 03 11 00 50 80 01  ....,...P....P..
2CA0: E1 2C 02 0C 00 0D 80 80  B7 2C 03 0F 00 51 80 03  .,.......,...Q..
2CB0: 11 00 51 80 01 E1 2C 02  0C 00 0F 80 80 CC 2C 03  ..Q...,.......,.
2CC0: 0F 00 51 80 03 11 00 51  80 01 E1 2C 02 0C 00 11  ..Q....Q...,....
2CD0: 80 80 E1 2C 03 0F 00 50  80 03 11 00 50 80 01 E1  ...,...P....P...
2CE0: 2C 1A B6 1F 1A F6 1F 01  0C 31 02 01 00 0B 80 80  ,........1......
2CF0: 0E 2D 03 0E 00 93 80 03  0F 00 93 80 03 10 00 93  .-..............
2D00: 80 03 11 00 93 80 03 12  00 93 80 01 0C 31 02 01  .............1..
2D10: 00 0D 80 80 27 2D 03 0F  00 94 80 1A B6 1F 1A D6  ....'-..........
2D20: 1F 1A F6 1F 01 0C 31 02  01 00 3F 80 80 52 2E 02  ......1...?..R..
2D30: 0C 00 00 80 80 53 2D 03  0E 00 95 80 03 0F 00 95  .....S-.........
2D40: 80 03 10 00 95 80 03 11  00 95 80 03 12 00 95 80  ................
2D50: 01 4F 2E 02 0C 00 05 80  80 77 2D 03 0E 00 96 80  .O.......w-.....
2D60: 03 0F 00 96 80 03 10 00  96 80 03 11 00 96 80 03  ................
2D70: 12 00 96 80 01 4F 2E 02  0C 00 07 80 80 9B 2D 03  .....O........-.
2D80: 0E 00 95 80 03 0F 00 95  80 03 10 00 95 80 03 11  ................
2D90: 00 95 80 03 12 00 95 80  01 4F 2E 02 0C 00 09 80  .........O......
2DA0: 80 BF 2D 03 0E 00 96 80  03 0F 00 96 80 03 10 00  ..-.............
2DB0: 96 80 03 11 00 96 80 03  12 00 96 80 01 4F 2E 02  .............O..
2DC0: 0C 00 0B 80 80 E3 2D 03  0E 00 95 80 03 0F 00 95  ......-.........
2DD0: 80 03 10 00 95 80 03 11  00 95 80 03 12 00 95 80  ................
2DE0: 01 4F 2E 02 0C 00 0D 80  80 07 2E 03 0E 00 96 80  .O..............
2DF0: 03 0F 00 96 80 03 10 00  96 80 03 11 00 96 80 03  ................
2E00: 12 00 96 80 01 4F 2E 02  0C 00 0F 80 80 2B 2E 03  .....O.......+..
2E10: 0E 00 96 80 03 0F 00 96  80 03 10 00 96 80 03 11  ................
2E20: 00 96 80 03 12 00 96 80  01 4F 2E 02 0C 00 11 80  .........O......
2E30: 80 4F 2E 03 0E 00 95 80  03 0F 00 95 80 03 10 00  .O..............
2E40: 95 80 03 11 00 95 80 03  12 00 95 80 01 4F 2E 01  .............O..
2E50: 0C 31 02 01 00 40 80 80  72 2E 03 0E 00 97 80 03  .1...@..r.......
2E60: 0F 00 97 80 03 10 00 97  80 1A D6 1F 1A F6 1F 01  ................
2E70: 0C 31 02 01 00 41 80 80  96 2E 03 0E 00 98 80 03  .1...A..........
2E80: 0F 00 98 80 03 10 00 98  80 03 11 00 98 80 03 12  ................
2E90: 00 98 80 01 0C 31 02 01  00 48 80 80 AF 2E 03 0F  .....1...H......
2EA0: 00 99 80 1A B6 1F 1A D6  1F 1A F6 1F 01 0C 31 02  ..............1.
2EB0: 01 00 2F 80 80 C8 2E 03  0F 00 9A 80 1A B6 1F 1A  ../.............
2EC0: D6 1F 1A F6 1F 01 0C 31  02 01 00 42 80 80 EC 2E  .......1...B....
2ED0: 03 0E 00 53 80 03 0F 00  53 80 03 10 00 53 80 03  ...S....S....S..
2EE0: 11 00 53 80 03 12 00 53  80 01 0C 31 02 01 00 47  ..S....S...1...G
2EF0: 80 80 05 2F 03 0F 00 9B  80 1A B6 1F 1A D6 1F 1A  .../............
2F00: F6 1F 01 0C 31 02 01 00  46 80 80 1E 2F 03 0F 00  ....1...F.../...
2F10: 9C 80 1A B6 1F 1A D6 1F  1A F6 1F 01 0C 31 02 01  .............1..
2F20: 00 4C 80 80 37 2F 03 0F  00 9D 80 1A B6 1F 1A D6  .L..7/..........
2F30: 1F 1A F6 1F 01 0C 31 02  01 00 9E 80 80 50 2F 03  ......1......P/.
2F40: 0F 00 9F 80 1A B6 1F 1A  D6 1F 1A F6 1F 01 0C 31  ...............1
2F50: 02 01 00 43 80 80 09 30  02 0C 00 00 80 80 6D 2F  ...C...0......m/
2F60: 03 0F 00 A0 80 03 11 00  50 80 01 00 30 02 0C 00  ........P...0...
2F70: 05 80 80 82 2F 03 0F 00  A1 80 03 11 00 51 80 01  ..../........Q..
2F80: 00 30 02 0C 00 07 80 80  97 2F 03 0F 00 A0 80 03  .0......./......
2F90: 11 00 50 80 01 00 30 02  0C 00 09 80 80 AC 2F 03  ..P...0......./.
2FA0: 0F 00 A1 80 03 11 00 51  80 01 00 30 02 0C 00 0B  .......Q...0....
2FB0: 80 80 C1 2F 03 0F 00 A0  80 03 11 00 50 80 01 00  .../........P...
2FC0: 30 02 0C 00 0D 80 80 D6  2F 03 0F 00 A1 80 03 11  0......./.......
2FD0: 00 51 80 01 00 30 02 0C  00 0F 80 80 EB 2F 03 0F  .Q...0......./..
2FE0: 00 A1 80 03 11 00 51 80  01 00 30 02 0C 00 11 80  ......Q...0.....
2FF0: 80 00 30 03 0F 00 A0 80  03 11 00 50 80 01 00 30  ..0........P...0
3000: 1A B6 1F 1A F6 1F 01 0C  31 02 01 00 20 80 80 0C  ........1... ...
3010: 31 02 0C 00 00 80 80 30  30 03 0F 00 A2 80 03 10  1......00.......
3020: 00 A2 80 03 11 00 A2 80  03 12 00 A2 80 01 09 31  ...............1
3030: 02 0C 00 05 80 80 4F 30  03 0F 00 A3 80 03 10 00  ......O0........
3040: A3 80 03 11 00 A3 80 03  12 00 A3 80 01 09 31 02  ..............1.
3050: 0C 00 07 80 80 6E 30 03  0F 00 A2 80 03 10 00 A2  .....n0.........
3060: 80 03 11 00 A2 80 03 12  00 A2 80 01 09 31 02 0C  .............1..
3070: 00 09 80 80 8D 30 03 0F  00 A3 80 03 10 00 A3 80  .....0..........
3080: 03 11 00 A3 80 03 12 00  A3 80 01 09 31 02 0C 00  ............1...
3090: 0B 80 80 AC 30 03 0F 00  A2 80 03 10 00 A2 80 03  ....0...........
30A0: 11 00 A2 80 03 12 00 A2  80 01 09 31 02 0C 00 0D  ...........1....
30B0: 80 80 CB 30 03 0F 00 A3  80 03 10 00 A3 80 03 11  ...0............
30C0: 00 A3 80 03 12 00 A3 80  01 09 31 02 0C 00 0F 80  ..........1.....
30D0: 80 EA 30 03 0F 00 A3 80  03 10 00 A3 80 03 11 00  ..0.............
30E0: A3 80 03 12 00 A3 80 01  09 31 02 0C 00 11 80 80  .........1......
30F0: 09 31 03 0F 00 A2 80 03  10 00 A2 80 03 11 00 A2  .1..............
3100: 80 03 12 00 A2 80 01 09  31 01 0C 31 01 0F 31 1B  ........1..1..1.
3110: 02 09 00 05 80 80 BB 31  02 17 00 00 80 80 28 31  .......1......(1
