# 17776899 - Jeridade

## Common Data

| Field            | Value                 |
|------------------|-----------------------|
| Zone             | Upper Jeuno (ID: 244) |
| Block Size       | 448 bytes             |
| Total Events     | 16                    |
| References Count | 34                    |

## List of Events

| Event ID                   | Entrypoint   |   Size |   Instructions |
|----------------------------|--------------|--------|----------------|
| [65535](#event-65535)      | 0x0000       |      1 |              1 |
| [10230](#event-10230)      | 0x0001       |      1 |              1 |
| [10231](#event-10231)      | 0x0002       |      1 |              1 |
| [10232](#event-10232)      | 0x0003       |      1 |              1 |
| [10233](#event-10233)      | 0x0004       |      1 |              1 |
| [10234](#event-10234)      | 0x0005       |      1 |              1 |
| [65535.1](#event-655351)   | 0x0006       |     32 |              6 |
| [65535.2](#event-655352)   | 0x0026       |     16 |              5 |
| [65535.3](#event-655353)   | 0x0036       |     27 |              7 |
| [65535.4](#event-655354)   | 0x0051       |     14 |              4 |
| [65535.5](#event-655355)   | 0x005F       |     14 |              4 |
| [65535.6](#event-655356)   | 0x006D       |     14 |              4 |
| [65535.7](#event-655357)   | 0x007B       |     14 |              4 |
| [65535.8](#event-655358)   | 0x0089       |     23 |              5 |
| [65535.9](#event-655359)   | 0x00A0       |     38 |              8 |
| [65535.10](#event-6553510) | 0x00C6       |     34 |              8 |

## DAT References (imed_data)

|   Index | Hex Value   |   Dec Value |
|---------|-------------|-------------|
|       0 | 0x000D      |          13 |
|       1 | 0xFFFF3288  |  4294914696 |
|       2 | 0x16D3C     |       93500 |
|       3 | 0x2008      |        8200 |
|       4 | 0xFFFF119A  |  4294906266 |
|       5 | 0x149BA     |       84410 |
|       6 | 0x1F40      |        8000 |
|       7 | 0x0028      |          40 |
|       8 | 0xFFFF2EA0  |  4294913696 |
|       9 | 0x161FC     |       90620 |
|      10 | 0xFFFF2388  |  4294910856 |
|      11 | 0x15C02     |       89090 |
|      12 | 0x0CEC      |        3308 |
|      13 | 0xFFFF2766  |  4294911846 |
|      14 | 0x15BF8     |       89080 |
|      15 | 0xFFFF2ACC  |  4294912716 |
|      16 | 0x15C2A     |       89130 |
|      17 | 0xFFFF2874  |  4294912116 |
|      18 | 0x1596E     |       88430 |
|      19 | 0xFFFF10DC  |  4294906076 |
|      20 | 0x169AE     |       92590 |
|      21 | 0xFFFF2C84  |  4294913156 |
|      22 | 0x15F72     |       89970 |
|      23 | 0xFFFF2248  |  4294910536 |
|      24 | 0x16012     |       90130 |
|      25 | 0x003C      |          60 |
|      26 | 0x0007      |           7 |
|      27 | 0xFFFF4EBC  |  4294921916 |
|      28 | 0x17D40     |       97600 |
|      29 | 0xFFFF61EA  |  4294926826 |
|      30 | 0x15482     |       87170 |
|      31 | 0xFFFEF69C  |  4294899356 |
|      32 | 0x119CC     |       72140 |
|      33 | 0xFFFFFF38  |  4294967096 |

## Events

### Event 65535

#### Metadata

| Field        | Value   |
|--------------|---------|
| Entrypoint   | 0x0000  |
| Data Size    | 1 bytes |
| Instructions | 1       |

```
      00 01 02 03 04 05 06 07  08 09 0A 0B 0C 0D 0E 0F
      -- -- -- -- -- -- -- --  -- -- -- -- -- -- -- --
0000: 00                                                .               
```

#### Opcodes

```
  0: 0x0000 [0x00] END_REQSTACK()
```

### Event 10230

#### Metadata

| Field        | Value   |
|--------------|---------|
| Entrypoint   | 0x0001  |
| Data Size    | 1 bytes |
| Instructions | 1       |

```
      00 01 02 03 04 05 06 07  08 09 0A 0B 0C 0D 0E 0F
      -- -- -- -- -- -- -- --  -- -- -- -- -- -- -- --
0000:    00                                              .              
```

#### Opcodes

```
  0: 0x0001 [0x00] END_REQSTACK()
```

### Event 10231

#### Metadata

| Field        | Value   |
|--------------|---------|
| Entrypoint   | 0x0002  |
| Data Size    | 1 bytes |
| Instructions | 1       |

```
      00 01 02 03 04 05 06 07  08 09 0A 0B 0C 0D 0E 0F
      -- -- -- -- -- -- -- --  -- -- -- -- -- -- -- --
0000:       00                                            .             
```

#### Opcodes

```
  0: 0x0002 [0x00] END_REQSTACK()
```

### Event 10232

#### Metadata

| Field        | Value   |
|--------------|---------|
| Entrypoint   | 0x0003  |
| Data Size    | 1 bytes |
| Instructions | 1       |

```
      00 01 02 03 04 05 06 07  08 09 0A 0B 0C 0D 0E 0F
      -- -- -- -- -- -- -- --  -- -- -- -- -- -- -- --
0000:          00                                          .            
```

#### Opcodes

```
  0: 0x0003 [0x00] END_REQSTACK()
```

### Event 10233

#### Metadata

| Field        | Value   |
|--------------|---------|
| Entrypoint   | 0x0004  |
| Data Size    | 1 bytes |
| Instructions | 1       |

```
      00 01 02 03 04 05 06 07  08 09 0A 0B 0C 0D 0E 0F
      -- -- -- -- -- -- -- --  -- -- -- -- -- -- -- --
0000:             00                                        .           
```

#### Opcodes

```
  0: 0x0004 [0x00] END_REQSTACK()
```

### Event 10234

#### Metadata

| Field        | Value   |
|--------------|---------|
| Entrypoint   | 0x0005  |
| Data Size    | 1 bytes |
| Instructions | 1       |

```
      00 01 02 03 04 05 06 07  08 09 0A 0B 0C 0D 0E 0F
      -- -- -- -- -- -- -- --  -- -- -- -- -- -- -- --
0000:                00                                      .          
```

#### Opcodes

```
  0: 0x0005 [0x00] END_REQSTACK()
```

### Event 65535.1

#### Metadata

| Field        | Value    |
|--------------|----------|
| Entrypoint   | 0x0006   |
| Data Size    | 32 bytes |
| Instructions | 6        |

```
      00 01 02 03 04 05 06 07  08 09 0A 0B 0C 0D 0E 0F
      -- -- -- -- -- -- -- --  -- -- -- -- -- -- -- --
0000:                   32 00  80 4A F8 FF FF 7F F0 FF        2..J......
0010: FF 7F 1F 00 01 80 02 80  03 80 1F 01 4A F8 FF FF  ............J...
0020: 7F F0 FF FF 7F 00                                 ......          
```

#### Opcodes

```
  0: 0x0006 [0x32] ExtData[1]->MainSpeed = 13* * 0.1
  1: 0x0009 [0x4A] EventEntity looks at LocalPlayer
  2: 0x0012 [0x1F] MOVE_ENTITY: EventEntity moves to X=-52.600*, Z=93.500*, Y=8.200*
  3: 0x001A [0x1F] MOVE_ENTITY: Update entity position (mode=1)
  4: 0x001C [0x4A] EventEntity looks at LocalPlayer
  5: 0x0025 [0x00] END_REQSTACK()
```

### Event 65535.2

#### Metadata

| Field        | Value    |
|--------------|----------|
| Entrypoint   | 0x0026   |
| Data Size    | 16 bytes |
| Instructions | 5        |

```
      00 01 02 03 04 05 06 07  08 09 0A 0B 0C 0D 0E 0F
      -- -- -- -- -- -- -- --  -- -- -- -- -- -- -- --
0020:                   32 00  80 1F 00 04 80 05 80 06        2.........
0030: 80 1F 01 22 01 00                                 ..."..          
```

#### Opcodes

```
  0: 0x0026 [0x32] ExtData[1]->MainSpeed = 13* * 0.1
  1: 0x0029 [0x1F] MOVE_ENTITY: EventEntity moves to X=-61.030*, Z=84.410*, Y=8.000*
  2: 0x0031 [0x1F] MOVE_ENTITY: Update entity position (mode=1)
  3: 0x0033 [0x22] ENTITY_HIDE_FLAG(enabled=0x01)
  4: 0x0035 [0x00] END_REQSTACK()
```

### Event 65535.3

#### Metadata

| Field        | Value    |
|--------------|----------|
| Entrypoint   | 0x0036   |
| Data Size    | 27 bytes |
| Instructions | 7        |

```
      00 01 02 03 04 05 06 07  08 09 0A 0B 0C 0D 0E 0F
      -- -- -- -- -- -- -- --  -- -- -- -- -- -- -- --
0030:                   32 07  80 1F 00 08 80 09 80 03        2.........
0040: 80 1F 01 1F 00 0A 80 0B  80 03 80 1F 01 39 0C 80  .............9..
0050: 00                                                .               
```

#### Opcodes

```
  0: 0x0036 [0x32] ExtData[1]->MainSpeed = 40* * 0.1
  1: 0x0039 [0x1F] MOVE_ENTITY: EventEntity moves to X=-53.600*, Z=90.620*, Y=8.200*
  2: 0x0041 [0x1F] MOVE_ENTITY: Update entity position (mode=1)
  3: 0x0043 [0x1F] MOVE_ENTITY: EventEntity moves to X=-56.440*, Z=89.090*, Y=8.200*
  4: 0x004B [0x1F] MOVE_ENTITY: Update entity position (mode=1)
  5: 0x004D [0x39] SET_ENTITY_DIRECTION(direction=18.2°*)
  6: 0x0050 [0x00] END_REQSTACK()
```

### Event 65535.4

#### Metadata

| Field        | Value    |
|--------------|----------|
| Entrypoint   | 0x0051   |
| Data Size    | 14 bytes |
| Instructions | 4        |

```
      00 01 02 03 04 05 06 07  08 09 0A 0B 0C 0D 0E 0F
      -- -- -- -- -- -- -- --  -- -- -- -- -- -- -- --
0050:    32 00 80 1F 00 0D 80  0E 80 03 80 1F 01 00      2............. 
```

#### Opcodes

```
  0: 0x0051 [0x32] ExtData[1]->MainSpeed = 13* * 0.1
  1: 0x0054 [0x1F] MOVE_ENTITY: EventEntity moves to X=-55.450*, Z=89.080*, Y=8.200*
  2: 0x005C [0x1F] MOVE_ENTITY: Update entity position (mode=1)
  3: 0x005E [0x00] END_REQSTACK()
```

### Event 65535.5

#### Metadata

| Field        | Value    |
|--------------|----------|
| Entrypoint   | 0x005F   |
| Data Size    | 14 bytes |
| Instructions | 4        |

```
      00 01 02 03 04 05 06 07  08 09 0A 0B 0C 0D 0E 0F
      -- -- -- -- -- -- -- --  -- -- -- -- -- -- -- --
0050:                                               32                 2
0060: 00 80 1F 00 0F 80 10 80  06 80 1F 01 00           .............   
```

#### Opcodes

```
  0: 0x005F [0x32] ExtData[1]->MainSpeed = 13* * 0.1
  1: 0x0062 [0x1F] MOVE_ENTITY: EventEntity moves to X=-54.580*, Z=89.130*, Y=8.000*
  2: 0x006A [0x1F] MOVE_ENTITY: Update entity position (mode=1)
  3: 0x006C [0x00] END_REQSTACK()
```

### Event 65535.6

#### Metadata

| Field        | Value    |
|--------------|----------|
| Entrypoint   | 0x006D   |
| Data Size    | 14 bytes |
| Instructions | 4        |

```
      00 01 02 03 04 05 06 07  08 09 0A 0B 0C 0D 0E 0F
      -- -- -- -- -- -- -- --  -- -- -- -- -- -- -- --
0060:                                         32 00 80               2..
0070: 1F 00 11 80 12 80 06 80  1F 01 00                 ...........     
```

#### Opcodes

```
  0: 0x006D [0x32] ExtData[1]->MainSpeed = 13* * 0.1
  1: 0x0070 [0x1F] MOVE_ENTITY: EventEntity moves to X=-55.180*, Z=88.430*, Y=8.000*
  2: 0x0078 [0x1F] MOVE_ENTITY: Update entity position (mode=1)
  3: 0x007A [0x00] END_REQSTACK()
```

### Event 65535.7

#### Metadata

| Field        | Value    |
|--------------|----------|
| Entrypoint   | 0x007B   |
| Data Size    | 14 bytes |
| Instructions | 4        |

```
      00 01 02 03 04 05 06 07  08 09 0A 0B 0C 0D 0E 0F
      -- -- -- -- -- -- -- --  -- -- -- -- -- -- -- --
0070:                                   32 00 80 1F 00             2....
0080: 13 80 14 80 03 80 1F 01  00                       .........       
```

#### Opcodes

```
  0: 0x007B [0x32] ExtData[1]->MainSpeed = 13* * 0.1
  1: 0x007E [0x1F] MOVE_ENTITY: EventEntity moves to X=-61.220*, Z=92.590*, Y=8.200*
  2: 0x0086 [0x1F] MOVE_ENTITY: Update entity position (mode=1)
  3: 0x0088 [0x00] END_REQSTACK()
```

### Event 65535.8

#### Metadata

| Field        | Value    |
|--------------|----------|
| Entrypoint   | 0x0089   |
| Data Size    | 23 bytes |
| Instructions | 5        |

```
      00 01 02 03 04 05 06 07  08 09 0A 0B 0C 0D 0E 0F
      -- -- -- -- -- -- -- --  -- -- -- -- -- -- -- --
0080:                             32 00 80 1F 00 15 80           2......
0090: 16 80 03 80 1F 01 4A F8  FF FF 7F 04 41 0F 01 00  ......J.....A...
```

#### Opcodes

```
  0: 0x0089 [0x32] ExtData[1]->MainSpeed = 13* * 0.1
  1: 0x008C [0x1F] MOVE_ENTITY: EventEntity moves to X=-54.140*, Z=89.970*, Y=8.200*
  2: 0x0094 [0x1F] MOVE_ENTITY: Update entity position (mode=1)
  3: 0x0096 [0x4A] EventEntity looks at Unnamed NPC (ID: 17776900/0x010F4104)
  4: 0x009F [0x00] END_REQSTACK()
```

### Event 65535.9

#### Metadata

| Field        | Value    |
|--------------|----------|
| Entrypoint   | 0x00A0   |
| Data Size    | 38 bytes |
| Instructions | 8        |

```
      00 01 02 03 04 05 06 07  08 09 0A 0B 0C 0D 0E 0F
      -- -- -- -- -- -- -- --  -- -- -- -- -- -- -- --
00A0: 32 00 80 1F 00 17 80 18  80 03 80 1F 01 4A F8 FF  2............J..
00B0: FF 7F 04 41 0F 01 1C 19  80 6E F8 FF FF 7F 1A 80  ...A.....n......
00C0: 99 F8 FF FF 7F 00                                 ......          
```

#### Opcodes

```
  0: 0x00A0 [0x32] ExtData[1]->MainSpeed = 13* * 0.1
  1: 0x00A3 [0x1F] MOVE_ENTITY: EventEntity moves to X=-56.760*, Z=90.130*, Y=8.200*
  2: 0x00AB [0x1F] MOVE_ENTITY: Update entity position (mode=1)
  3: 0x00AD [0x4A] EventEntity looks at Unnamed NPC (ID: 17776900/0x010F4104)
  4: 0x00B6 [0x1C] WAIT(60* ticks)
  5: 0x00B9 [0x6E] EventEntity uses emote 7*
  6: 0x00C0 [0x99] Wait for EventEntity animation to complete
  7: 0x00C5 [0x00] END_REQSTACK()
```

### Event 65535.10

#### Metadata

| Field        | Value    |
|--------------|----------|
| Entrypoint   | 0x00C6   |
| Data Size    | 34 bytes |
| Instructions | 8        |

```
      00 01 02 03 04 05 06 07  08 09 0A 0B 0C 0D 0E 0F
      -- -- -- -- -- -- -- --  -- -- -- -- -- -- -- --
00C0:                   32 19  80 1F 00 1B 80 1C 80 06        2.........
00D0: 80 1F 01 1F 00 1D 80 1E  80 06 80 1F 01 1F 00 1F  ................
00E0: 80 20 80 21 80 1F 01 00                           . .!....        
```

#### Opcodes

```
  0: 0x00C6 [0x32] ExtData[1]->MainSpeed = 60* * 0.1
  1: 0x00C9 [0x1F] MOVE_ENTITY: EventEntity moves to X=-45.380*, Z=97.600*, Y=8.000*
  2: 0x00D1 [0x1F] MOVE_ENTITY: Update entity position (mode=1)
  3: 0x00D3 [0x1F] MOVE_ENTITY: EventEntity moves to X=-40.470*, Z=87.170*, Y=8.000*
  4: 0x00DB [0x1F] MOVE_ENTITY: Update entity position (mode=1)
  5: 0x00DD [0x1F] MOVE_ENTITY: EventEntity moves to X=-67.940*, Z=72.140*, Y=-0.200*
  6: 0x00E5 [0x1F] MOVE_ENTITY: Update entity position (mode=1)
  7: 0x00E7 [0x00] END_REQSTACK()
```
