# 17776773 - Migliorozz

## Common Data

| Field            | Value                 |
|------------------|-----------------------|
| Zone             | Upper Jeuno (ID: 244) |
| Block Size       | 1260 bytes            |
| Total Events     | 47                    |
| References Count | 26                    |

## List of Events

| Event ID                   | Entrypoint   |   Size |   Instructions |
|----------------------------|--------------|--------|----------------|
| [65535](#event-65535)      | 0x0000       |      1 |              1 |
| [65535.1](#event-655351)   | 0x0001       |     16 |              2 |
| [65535.2](#event-655352)   | 0x0011       |     14 |              2 |
| [65535.3](#event-655353)   | 0x001F       |     16 |              2 |
| [65535.4](#event-655354)   | 0x002F       |     14 |              2 |
| [65535.5](#event-655355)   | 0x003D       |     16 |              2 |
| [65535.6](#event-655356)   | 0x004D       |     14 |              2 |
| [65535.7](#event-655357)   | 0x005B       |     16 |              2 |
| [65535.8](#event-655358)   | 0x006B       |     14 |              2 |
| [65535.9](#event-655359)   | 0x0079       |     16 |              2 |
| [65535.10](#event-6553510) | 0x0089       |     14 |              2 |
| [65535.11](#event-6553511) | 0x0097       |     16 |              2 |
| [65535.12](#event-6553512) | 0x00A7       |     14 |              2 |
| [65535.13](#event-6553513) | 0x00B5       |     16 |              2 |
| [65535.14](#event-6553514) | 0x00C5       |     14 |              2 |
| [65535.15](#event-6553515) | 0x00D3       |     16 |              2 |
| [65535.16](#event-6553516) | 0x00E3       |     14 |              2 |
| [65535.17](#event-6553517) | 0x00F1       |      9 |              3 |
| [65535.18](#event-6553518) | 0x00FA       |     16 |              2 |
| [65535.19](#event-6553519) | 0x010A       |     14 |              2 |
| [65535.20](#event-6553520) | 0x0118       |     16 |              2 |
| [65535.21](#event-6553521) | 0x0128       |     14 |              2 |
| [65535.22](#event-6553522) | 0x0136       |     16 |              2 |
| [65535.23](#event-6553523) | 0x0146       |     14 |              2 |
| [65535.24](#event-6553524) | 0x0154       |     16 |              2 |
| [65535.25](#event-6553525) | 0x0164       |     14 |              2 |
| [65535.26](#event-6553526) | 0x0172       |     16 |              2 |
| [65535.27](#event-6553527) | 0x0182       |     14 |              2 |
| [65535.28](#event-6553528) | 0x0190       |     16 |              2 |
| [65535.29](#event-6553529) | 0x01A0       |     14 |              2 |
| [65535.30](#event-6553530) | 0x01AE       |     57 |              5 |
| [65535.31](#event-6553531) | 0x01E7       |     16 |              2 |
| [65535.32](#event-6553532) | 0x01F7       |     14 |              2 |
| [65535.33](#event-6553533) | 0x0205       |     16 |              2 |
| [65535.34](#event-6553534) | 0x0215       |     14 |              2 |
| [65535.35](#event-6553535) | 0x0223       |     16 |              2 |
| [65535.36](#event-6553536) | 0x0233       |     14 |              2 |
| [65535.37](#event-6553537) | 0x0241       |     16 |              2 |
| [65535.38](#event-6553538) | 0x0251       |     14 |              2 |
| [65535.39](#event-6553539) | 0x025F       |     16 |              2 |
| [65535.40](#event-6553540) | 0x026F       |     14 |              2 |
| [10019](#event-10019)      | 0x027D       |      1 |              1 |
| [65535.41](#event-6553541) | 0x027E       |     10 |              2 |
| [10026](#event-10026)      | 0x0288       |     33 |             10 |
| [10021](#event-10021)      | 0x02A9       |     73 |             19 |
| [10020](#event-10020)      | 0x02F2       |    151 |             32 |
| [10022](#event-10022)      | 0x0389       |     46 |             14 |

## DAT References (imed_data)

|   Index | Hex Value   |   Dec Value |
|---------|-------------|-------------|
|       0 | 0x0000      |           0 |
|       1 | 0x0002      |           2 |
|       2 | 0x001E      |          30 |
|       3 | 0x0005      |           5 |
|       4 | 0x0003      |           3 |
|       5 | 0x01F8      |         504 |
|       6 | 0xFFFF6C80  |  4294929536 |
|       7 | 0x327C      |       12924 |
|       8 | 0xFFFFFA25  |  4294965797 |
|       9 | 0x0F26      |        3878 |
|      10 | 0x213D      |        8509 |
|      11 | 0x2153      |        8531 |
|      12 | 0x0001      |           1 |
|      13 | 0x2154      |        8532 |
|      14 | 0x2155      |        8533 |
|      15 | 0x2156      |        8534 |
|      16 | 0x2157      |        8535 |
|      17 | 0x2158      |        8536 |
|      18 | 0x2159      |        8537 |
|      19 | 0x215A      |        8538 |
|      20 | 0x215B      |        8539 |
|      21 | 0x215C      |        8540 |
|      22 | 0x00C9      |         201 |
|      23 | 0x215D      |        8541 |
|      24 | 0x215E      |        8542 |
|      25 | 0x215F      |        8543 |

## Events

### Event 65535

#### Metadata

| Field        | Value   |
|--------------|---------|
| Entrypoint   | 0x0000  |
| Data Size    | 1 bytes |
| Instructions | 1       |

```
      00 01 02 03 04 05 06 07  08 09 0A 0B 0C 0D 0E 0F
      -- -- -- -- -- -- -- --  -- -- -- -- -- -- -- --
0000: 00                                                .               
```

#### Opcodes

```
  0: 0x0000 [0x00] END_REQSTACK()
```

### Event 65535.1

#### Metadata

| Field        | Value    |
|--------------|----------|
| Entrypoint   | 0x0001   |
| Data Size    | 16 bytes |
| Instructions | 2        |

```
      00 01 02 03 04 05 06 07  08 09 0A 0B 0C 0D 0E 0F
      -- -- -- -- -- -- -- --  -- -- -- -- -- -- -- --
0000:    66 00 80 F8 FF FF 7F  F8 FF FF 7F 74 6C 6B 30   f..........tlk0
0010: 00                                                .               
```

#### Opcodes

```
  0: 0x0001 [0x66] LOAD_EXT_SCHEDULER_MAIN: Load scheduler "tlk0" with entities [EventEntity, EventEntity], work=0*
  1: 0x0010 [0x00] END_REQSTACK()
```

### Event 65535.2

#### Metadata

| Field        | Value    |
|--------------|----------|
| Entrypoint   | 0x0011   |
| Data Size    | 14 bytes |
| Instructions | 2        |

```
      00 01 02 03 04 05 06 07  08 09 0A 0B 0C 0D 0E 0F
      -- -- -- -- -- -- -- --  -- -- -- -- -- -- -- --
0010:    53 F8 FF FF 7F F8 FF  FF 7F 74 6C 6B 30 00      S........tlk0. 
```

#### Opcodes

```
  0: 0x0011 [0x53] WAIT_SCHEDULER_TASK: Wait for scheduler "tlk0" with entities [EventEntity, EventEntity]
  1: 0x001E [0x00] END_REQSTACK()
```

### Event 65535.3

#### Metadata

| Field        | Value    |
|--------------|----------|
| Entrypoint   | 0x001F   |
| Data Size    | 16 bytes |
| Instructions | 2        |

```
      00 01 02 03 04 05 06 07  08 09 0A 0B 0C 0D 0E 0F
      -- -- -- -- -- -- -- --  -- -- -- -- -- -- -- --
0010:                                               66                 f
0020: 00 80 F8 FF FF 7F F8 FF  FF 7F 64 69 73 30 00     ..........dis0. 
```

#### Opcodes

```
  0: 0x001F [0x66] LOAD_EXT_SCHEDULER_MAIN: Load scheduler "dis0" with entities [EventEntity, EventEntity], work=0*
  1: 0x002E [0x00] END_REQSTACK()
```

### Event 65535.4

#### Metadata

| Field        | Value    |
|--------------|----------|
| Entrypoint   | 0x002F   |
| Data Size    | 14 bytes |
| Instructions | 2        |

```
      00 01 02 03 04 05 06 07  08 09 0A 0B 0C 0D 0E 0F
      -- -- -- -- -- -- -- --  -- -- -- -- -- -- -- --
0020:                                               53                 S
0030: F8 FF FF 7F F8 FF FF 7F  64 69 73 30 00           ........dis0.   
```

#### Opcodes

```
  0: 0x002F [0x53] WAIT_SCHEDULER_TASK: Wait for scheduler "dis0" with entities [EventEntity, EventEntity]
  1: 0x003C [0x00] END_REQSTACK()
```

### Event 65535.5

#### Metadata

| Field        | Value    |
|--------------|----------|
| Entrypoint   | 0x003D   |
| Data Size    | 16 bytes |
| Instructions | 2        |

```
      00 01 02 03 04 05 06 07  08 09 0A 0B 0C 0D 0E 0F
      -- -- -- -- -- -- -- --  -- -- -- -- -- -- -- --
0030:                                         66 00 80               f..
0040: F8 FF FF 7F F8 FF FF 7F  70 61 73 30 00           ........pas0.   
```

#### Opcodes

```
  0: 0x003D [0x66] LOAD_EXT_SCHEDULER_MAIN: Load scheduler "pas0" with entities [EventEntity, EventEntity], work=0*
  1: 0x004C [0x00] END_REQSTACK()
```

### Event 65535.6

#### Metadata

| Field        | Value    |
|--------------|----------|
| Entrypoint   | 0x004D   |
| Data Size    | 14 bytes |
| Instructions | 2        |

```
      00 01 02 03 04 05 06 07  08 09 0A 0B 0C 0D 0E 0F
      -- -- -- -- -- -- -- --  -- -- -- -- -- -- -- --
0040:                                         53 F8 FF               S..
0050: FF 7F F8 FF FF 7F 70 61  73 30 00                 ......pas0.     
```

#### Opcodes

```
  0: 0x004D [0x53] WAIT_SCHEDULER_TASK: Wait for scheduler "pas0" with entities [EventEntity, EventEntity]
  1: 0x005A [0x00] END_REQSTACK()
```

### Event 65535.7

#### Metadata

| Field        | Value    |
|--------------|----------|
| Entrypoint   | 0x005B   |
| Data Size    | 16 bytes |
| Instructions | 2        |

```
      00 01 02 03 04 05 06 07  08 09 0A 0B 0C 0D 0E 0F
      -- -- -- -- -- -- -- --  -- -- -- -- -- -- -- --
0050:                                   66 01 80 F8 FF             f....
0060: FF 7F F8 FF FF 7F 74 6C  64 30 00                 ......tld0.     
```

#### Opcodes

```
  0: 0x005B [0x66] LOAD_EXT_SCHEDULER_MAIN: Load scheduler "tld0" with entities [EventEntity, EventEntity], work=2*
  1: 0x006A [0x00] END_REQSTACK()
```

### Event 65535.8

#### Metadata

| Field        | Value    |
|--------------|----------|
| Entrypoint   | 0x006B   |
| Data Size    | 14 bytes |
| Instructions | 2        |

```
      00 01 02 03 04 05 06 07  08 09 0A 0B 0C 0D 0E 0F
      -- -- -- -- -- -- -- --  -- -- -- -- -- -- -- --
0060:                                   53 F8 FF FF 7F             S....
0070: F8 FF FF 7F 74 6C 64 30  00                       ....tld0.       
```

#### Opcodes

```
  0: 0x006B [0x53] WAIT_SCHEDULER_TASK: Wait for scheduler "tld0" with entities [EventEntity, EventEntity]
  1: 0x0078 [0x00] END_REQSTACK()
```

### Event 65535.9

#### Metadata

| Field        | Value    |
|--------------|----------|
| Entrypoint   | 0x0079   |
| Data Size    | 16 bytes |
| Instructions | 2        |

```
      00 01 02 03 04 05 06 07  08 09 0A 0B 0C 0D 0E 0F
      -- -- -- -- -- -- -- --  -- -- -- -- -- -- -- --
0070:                             66 01 80 F8 FF FF 7F           f......
0080: F8 FF FF 7F 74 6C 64 31  00                       ....tld1.       
```

#### Opcodes

```
  0: 0x0079 [0x66] LOAD_EXT_SCHEDULER_MAIN: Load scheduler "tld1" with entities [EventEntity, EventEntity], work=2*
  1: 0x0088 [0x00] END_REQSTACK()
```

### Event 65535.10

#### Metadata

| Field        | Value    |
|--------------|----------|
| Entrypoint   | 0x0089   |
| Data Size    | 14 bytes |
| Instructions | 2        |

```
      00 01 02 03 04 05 06 07  08 09 0A 0B 0C 0D 0E 0F
      -- -- -- -- -- -- -- --  -- -- -- -- -- -- -- --
0080:                             53 F8 FF FF 7F F8 FF           S......
0090: FF 7F 74 6C 64 31 00                              ..tld1.         
```

#### Opcodes

```
  0: 0x0089 [0x53] WAIT_SCHEDULER_TASK: Wait for scheduler "tld1" with entities [EventEntity, EventEntity]
  1: 0x0096 [0x00] END_REQSTACK()
```

### Event 65535.11

#### Metadata

| Field        | Value    |
|--------------|----------|
| Entrypoint   | 0x0097   |
| Data Size    | 16 bytes |
| Instructions | 2        |

```
      00 01 02 03 04 05 06 07  08 09 0A 0B 0C 0D 0E 0F
      -- -- -- -- -- -- -- --  -- -- -- -- -- -- -- --
0090:                      66  00 80 F8 FF FF 7F F8 FF         f........
00A0: FF 7F 74 6C 6B 31 00                              ..tlk1.         
```

#### Opcodes

```
  0: 0x0097 [0x66] LOAD_EXT_SCHEDULER_MAIN: Load scheduler "tlk1" with entities [EventEntity, EventEntity], work=0*
  1: 0x00A6 [0x00] END_REQSTACK()
```

### Event 65535.12

#### Metadata

| Field        | Value    |
|--------------|----------|
| Entrypoint   | 0x00A7   |
| Data Size    | 14 bytes |
| Instructions | 2        |

```
      00 01 02 03 04 05 06 07  08 09 0A 0B 0C 0D 0E 0F
      -- -- -- -- -- -- -- --  -- -- -- -- -- -- -- --
00A0:                      53  F8 FF FF 7F F8 FF FF 7F         S........
00B0: 74 6C 6B 31 00                                    tlk1.           
```

#### Opcodes

```
  0: 0x00A7 [0x53] WAIT_SCHEDULER_TASK: Wait for scheduler "tlk1" with entities [EventEntity, EventEntity]
  1: 0x00B4 [0x00] END_REQSTACK()
```

### Event 65535.13

#### Metadata

| Field        | Value    |
|--------------|----------|
| Entrypoint   | 0x00B5   |
| Data Size    | 16 bytes |
| Instructions | 2        |

```
      00 01 02 03 04 05 06 07  08 09 0A 0B 0C 0D 0E 0F
      -- -- -- -- -- -- -- --  -- -- -- -- -- -- -- --
00B0:                66 00 80  F8 FF FF 7F F8 FF FF 7F       f..........
00C0: 74 65 6E 30 00                                    ten0.           
```

#### Opcodes

```
  0: 0x00B5 [0x66] LOAD_EXT_SCHEDULER_MAIN: Load scheduler "ten0" with entities [EventEntity, EventEntity], work=0*
  1: 0x00C4 [0x00] END_REQSTACK()
```

### Event 65535.14

#### Metadata

| Field        | Value    |
|--------------|----------|
| Entrypoint   | 0x00C5   |
| Data Size    | 14 bytes |
| Instructions | 2        |

```
      00 01 02 03 04 05 06 07  08 09 0A 0B 0C 0D 0E 0F
      -- -- -- -- -- -- -- --  -- -- -- -- -- -- -- --
00C0:                53 F8 FF  FF 7F F8 FF FF 7F 74 65       S........te
00D0: 6E 30 00                                          n0.             
```

#### Opcodes

```
  0: 0x00C5 [0x53] WAIT_SCHEDULER_TASK: Wait for scheduler "ten0" with entities [EventEntity, EventEntity]
  1: 0x00D2 [0x00] END_REQSTACK()
```

### Event 65535.15

#### Metadata

| Field        | Value    |
|--------------|----------|
| Entrypoint   | 0x00D3   |
| Data Size    | 16 bytes |
| Instructions | 2        |

```
      00 01 02 03 04 05 06 07  08 09 0A 0B 0C 0D 0E 0F
      -- -- -- -- -- -- -- --  -- -- -- -- -- -- -- --
00D0:          66 00 80 F8 FF  FF 7F F8 FF FF 7F 74 65     f..........te
00E0: 6E 31 00                                          n1.             
```

#### Opcodes

```
  0: 0x00D3 [0x66] LOAD_EXT_SCHEDULER_MAIN: Load scheduler "ten1" with entities [EventEntity, EventEntity], work=0*
  1: 0x00E2 [0x00] END_REQSTACK()
```

### Event 65535.16

#### Metadata

| Field        | Value    |
|--------------|----------|
| Entrypoint   | 0x00E3   |
| Data Size    | 14 bytes |
| Instructions | 2        |

```
      00 01 02 03 04 05 06 07  08 09 0A 0B 0C 0D 0E 0F
      -- -- -- -- -- -- -- --  -- -- -- -- -- -- -- --
00E0:          53 F8 FF FF 7F  F8 FF FF 7F 74 65 6E 31     S........ten1
00F0: 00                                                .               
```

#### Opcodes

```
  0: 0x00E3 [0x53] WAIT_SCHEDULER_TASK: Wait for scheduler "ten1" with entities [EventEntity, EventEntity]
  1: 0x00F0 [0x00] END_REQSTACK()
```

### Event 65535.17

#### Metadata

| Field        | Value   |
|--------------|---------|
| Entrypoint   | 0x00F1  |
| Data Size    | 9 bytes |
| Instructions | 3       |

```
      00 01 02 03 04 05 06 07  08 09 0A 0B 0C 0D 0E 0F
      -- -- -- -- -- -- -- --  -- -- -- -- -- -- -- --
00F0:    5E 69 64 6C 30 1C 02  80 00                     ^idl0....      
```

#### Opcodes

```
  0: 0x00F1 [0x5E] EventEntity goes idle (kills current action) (animation: "idl0")
  1: 0x00F6 [0x1C] WAIT(30* ticks)
  2: 0x00F9 [0x00] END_REQSTACK()
```

### Event 65535.18

#### Metadata

| Field        | Value    |
|--------------|----------|
| Entrypoint   | 0x00FA   |
| Data Size    | 16 bytes |
| Instructions | 2        |

```
      00 01 02 03 04 05 06 07  08 09 0A 0B 0C 0D 0E 0F
      -- -- -- -- -- -- -- --  -- -- -- -- -- -- -- --
00F0:                                66 00 80 F8 FF FF            f.....
0100: 7F F8 FF FF 7F 74 68 6B  31 00                    .....thk1.      
```

#### Opcodes

```
  0: 0x00FA [0x66] LOAD_EXT_SCHEDULER_MAIN: Load scheduler "thk1" with entities [EventEntity, EventEntity], work=0*
  1: 0x0109 [0x00] END_REQSTACK()
```

### Event 65535.19

#### Metadata

| Field        | Value    |
|--------------|----------|
| Entrypoint   | 0x010A   |
| Data Size    | 14 bytes |
| Instructions | 2        |

```
      00 01 02 03 04 05 06 07  08 09 0A 0B 0C 0D 0E 0F
      -- -- -- -- -- -- -- --  -- -- -- -- -- -- -- --
0100:                                53 F8 FF FF 7F F8            S.....
0110: FF FF 7F 74 68 6B 31 00                           ...thk1.        
```

#### Opcodes

```
  0: 0x010A [0x53] WAIT_SCHEDULER_TASK: Wait for scheduler "thk1" with entities [EventEntity, EventEntity]
  1: 0x0117 [0x00] END_REQSTACK()
```

### Event 65535.20

#### Metadata

| Field        | Value    |
|--------------|----------|
| Entrypoint   | 0x0118   |
| Data Size    | 16 bytes |
| Instructions | 2        |

```
      00 01 02 03 04 05 06 07  08 09 0A 0B 0C 0D 0E 0F
      -- -- -- -- -- -- -- --  -- -- -- -- -- -- -- --
0110:                          66 00 80 F8 FF FF 7F F8          f.......
0120: FF FF 7F 74 68 6B 32 00                           ...thk2.        
```

#### Opcodes

```
  0: 0x0118 [0x66] LOAD_EXT_SCHEDULER_MAIN: Load scheduler "thk2" with entities [EventEntity, EventEntity], work=0*
  1: 0x0127 [0x00] END_REQSTACK()
```

### Event 65535.21

#### Metadata

| Field        | Value    |
|--------------|----------|
| Entrypoint   | 0x0128   |
| Data Size    | 14 bytes |
| Instructions | 2        |

```
      00 01 02 03 04 05 06 07  08 09 0A 0B 0C 0D 0E 0F
      -- -- -- -- -- -- -- --  -- -- -- -- -- -- -- --
0120:                          53 F8 FF FF 7F F8 FF FF          S.......
0130: 7F 74 68 6B 32 00                                 .thk2.          
```

#### Opcodes

```
  0: 0x0128 [0x53] WAIT_SCHEDULER_TASK: Wait for scheduler "thk2" with entities [EventEntity, EventEntity]
  1: 0x0135 [0x00] END_REQSTACK()
```

### Event 65535.22

#### Metadata

| Field        | Value    |
|--------------|----------|
| Entrypoint   | 0x0136   |
| Data Size    | 16 bytes |
| Instructions | 2        |

```
      00 01 02 03 04 05 06 07  08 09 0A 0B 0C 0D 0E 0F
      -- -- -- -- -- -- -- --  -- -- -- -- -- -- -- --
0130:                   66 03  80 F8 FF FF 7F F8 FF FF        f.........
0140: 7F 74 6C 62 30 00                                 .tlb0.          
```

#### Opcodes

```
  0: 0x0136 [0x66] LOAD_EXT_SCHEDULER_MAIN: Load scheduler "tlb0" with entities [EventEntity, EventEntity], work=5*
  1: 0x0145 [0x00] END_REQSTACK()
```

### Event 65535.23

#### Metadata

| Field        | Value    |
|--------------|----------|
| Entrypoint   | 0x0146   |
| Data Size    | 14 bytes |
| Instructions | 2        |

```
      00 01 02 03 04 05 06 07  08 09 0A 0B 0C 0D 0E 0F
      -- -- -- -- -- -- -- --  -- -- -- -- -- -- -- --
0140:                   53 F8  FF FF 7F F8 FF FF 7F 74        S........t
0150: 6C 62 30 00                                       lb0.            
```

#### Opcodes

```
  0: 0x0146 [0x53] WAIT_SCHEDULER_TASK: Wait for scheduler "tlb0" with entities [EventEntity, EventEntity]
  1: 0x0153 [0x00] END_REQSTACK()
```

### Event 65535.24

#### Metadata

| Field        | Value    |
|--------------|----------|
| Entrypoint   | 0x0154   |
| Data Size    | 16 bytes |
| Instructions | 2        |

```
      00 01 02 03 04 05 06 07  08 09 0A 0B 0C 0D 0E 0F
      -- -- -- -- -- -- -- --  -- -- -- -- -- -- -- --
0150:             66 03 80 F8  FF FF 7F F8 FF FF 7F 74      f..........t
0160: 6C 62 31 00                                       lb1.            
```

#### Opcodes

```
  0: 0x0154 [0x66] LOAD_EXT_SCHEDULER_MAIN: Load scheduler "tlb1" with entities [EventEntity, EventEntity], work=5*
  1: 0x0163 [0x00] END_REQSTACK()
```

### Event 65535.25

#### Metadata

| Field        | Value    |
|--------------|----------|
| Entrypoint   | 0x0164   |
| Data Size    | 14 bytes |
| Instructions | 2        |

```
      00 01 02 03 04 05 06 07  08 09 0A 0B 0C 0D 0E 0F
      -- -- -- -- -- -- -- --  -- -- -- -- -- -- -- --
0160:             53 F8 FF FF  7F F8 FF FF 7F 74 6C 62      S........tlb
0170: 31 00                                             1.              
```

#### Opcodes

```
  0: 0x0164 [0x53] WAIT_SCHEDULER_TASK: Wait for scheduler "tlb1" with entities [EventEntity, EventEntity]
  1: 0x0171 [0x00] END_REQSTACK()
```

### Event 65535.26

#### Metadata

| Field        | Value    |
|--------------|----------|
| Entrypoint   | 0x0172   |
| Data Size    | 16 bytes |
| Instructions | 2        |

```
      00 01 02 03 04 05 06 07  08 09 0A 0B 0C 0D 0E 0F
      -- -- -- -- -- -- -- --  -- -- -- -- -- -- -- --
0170:       66 04 80 F8 FF FF  7F F8 FF FF 7F 73 64 6F    f..........sdo
0180: 30 00                                             0.              
```

#### Opcodes

```
  0: 0x0172 [0x66] LOAD_EXT_SCHEDULER_MAIN: Load scheduler "sdo0" with entities [EventEntity, EventEntity], work=3*
  1: 0x0181 [0x00] END_REQSTACK()
```

### Event 65535.27

#### Metadata

| Field        | Value    |
|--------------|----------|
| Entrypoint   | 0x0182   |
| Data Size    | 14 bytes |
| Instructions | 2        |

```
      00 01 02 03 04 05 06 07  08 09 0A 0B 0C 0D 0E 0F
      -- -- -- -- -- -- -- --  -- -- -- -- -- -- -- --
0180:       53 F8 FF FF 7F F8  FF FF 7F 73 64 6F 30 00    S........sdo0.
```

#### Opcodes

```
  0: 0x0182 [0x53] WAIT_SCHEDULER_TASK: Wait for scheduler "sdo0" with entities [EventEntity, EventEntity]
  1: 0x018F [0x00] END_REQSTACK()
```

### Event 65535.28

#### Metadata

| Field        | Value    |
|--------------|----------|
| Entrypoint   | 0x0190   |
| Data Size    | 16 bytes |
| Instructions | 2        |

```
      00 01 02 03 04 05 06 07  08 09 0A 0B 0C 0D 0E 0F
      -- -- -- -- -- -- -- --  -- -- -- -- -- -- -- --
0190: 66 04 80 F8 FF FF 7F F8  FF FF 7F 73 64 6F 31 00  f..........sdo1.
```

#### Opcodes

```
  0: 0x0190 [0x66] LOAD_EXT_SCHEDULER_MAIN: Load scheduler "sdo1" with entities [EventEntity, EventEntity], work=3*
  1: 0x019F [0x00] END_REQSTACK()
```

### Event 65535.29

#### Metadata

| Field        | Value    |
|--------------|----------|
| Entrypoint   | 0x01A0   |
| Data Size    | 14 bytes |
| Instructions | 2        |

```
      00 01 02 03 04 05 06 07  08 09 0A 0B 0C 0D 0E 0F
      -- -- -- -- -- -- -- --  -- -- -- -- -- -- -- --
01A0: 53 F8 FF FF 7F F8 FF FF  7F 73 64 6F 31 00        S........sdo1.  
```

#### Opcodes

```
  0: 0x01A0 [0x53] WAIT_SCHEDULER_TASK: Wait for scheduler "sdo1" with entities [EventEntity, EventEntity]
  1: 0x01AD [0x00] END_REQSTACK()
```

### Event 65535.30

#### Metadata

| Field        | Value    |
|--------------|----------|
| Entrypoint   | 0x01AE   |
| Data Size    | 57 bytes |
| Instructions | 5        |

```
      00 01 02 03 04 05 06 07  08 09 0A 0B 0C 0D 0E 0F
      -- -- -- -- -- -- -- --  -- -- -- -- -- -- -- --
01A0:                                            66 04                f.
01B0: 80 F8 FF FF 7F F8 FF FF  7F 73 64 6F 30 53 F8 FF  .........sdo0S..
01C0: FF 7F F8 FF FF 7F 73 64  6F 30 66 04 80 F8 FF FF  ......sdo0f.....
01D0: 7F F8 FF FF 7F 73 64 6F  31 53 F8 FF FF 7F F8 FF  .....sdo1S......
01E0: FF 7F 73 64 6F 31 00                              ..sdo1.         
```

#### Opcodes

```
  0: 0x01AE [0x66] LOAD_EXT_SCHEDULER_MAIN: Load scheduler "sdo0" with entities [EventEntity, EventEntity], work=3*
  1: 0x01BD [0x53] WAIT_SCHEDULER_TASK: Wait for scheduler "sdo0" with entities [EventEntity, EventEntity]
  2: 0x01CA [0x66] LOAD_EXT_SCHEDULER_MAIN: Load scheduler "sdo1" with entities [EventEntity, EventEntity], work=3*
  3: 0x01D9 [0x53] WAIT_SCHEDULER_TASK: Wait for scheduler "sdo1" with entities [EventEntity, EventEntity]
  4: 0x01E6 [0x00] END_REQSTACK()
```

### Event 65535.31

#### Metadata

| Field        | Value    |
|--------------|----------|
| Entrypoint   | 0x01E7   |
| Data Size    | 16 bytes |
| Instructions | 2        |

```
      00 01 02 03 04 05 06 07  08 09 0A 0B 0C 0D 0E 0F
      -- -- -- -- -- -- -- --  -- -- -- -- -- -- -- --
01E0:                      5B  05 80 F8 FF FF 7F F8 FF         [........
01F0: FF 7F 6B 6F 74 69 00                              ..koti.         
```

#### Opcodes

```
  0: 0x01E7 [0x5B] LOAD_EXT_SCHEDULER: Load scheduler "koti" with entities [EventEntity, EventEntity], work=504*
  1: 0x01F6 [0x00] END_REQSTACK()
```

### Event 65535.32

#### Metadata

| Field        | Value    |
|--------------|----------|
| Entrypoint   | 0x01F7   |
| Data Size    | 14 bytes |
| Instructions | 2        |

```
      00 01 02 03 04 05 06 07  08 09 0A 0B 0C 0D 0E 0F
      -- -- -- -- -- -- -- --  -- -- -- -- -- -- -- --
01F0:                      53  F8 FF FF 7F F8 FF FF 7F         S........
0200: 6B 6F 74 69 00                                    koti.           
```

#### Opcodes

```
  0: 0x01F7 [0x53] WAIT_SCHEDULER_TASK: Wait for scheduler "koti" with entities [EventEntity, EventEntity]
  1: 0x0204 [0x00] END_REQSTACK()
```

### Event 65535.33

#### Metadata

| Field        | Value    |
|--------------|----------|
| Entrypoint   | 0x0205   |
| Data Size    | 16 bytes |
| Instructions | 2        |

```
      00 01 02 03 04 05 06 07  08 09 0A 0B 0C 0D 0E 0F
      -- -- -- -- -- -- -- --  -- -- -- -- -- -- -- --
0200:                5B 05 80  F8 FF FF 7F F8 FF FF 7F       [..........
0210: 61 6B 69 72 00                                    akir.           
```

#### Opcodes

```
  0: 0x0205 [0x5B] LOAD_EXT_SCHEDULER: Load scheduler "akir" with entities [EventEntity, EventEntity], work=504*
  1: 0x0214 [0x00] END_REQSTACK()
```

### Event 65535.34

#### Metadata

| Field        | Value    |
|--------------|----------|
| Entrypoint   | 0x0215   |
| Data Size    | 14 bytes |
| Instructions | 2        |

```
      00 01 02 03 04 05 06 07  08 09 0A 0B 0C 0D 0E 0F
      -- -- -- -- -- -- -- --  -- -- -- -- -- -- -- --
0210:                53 F8 FF  FF 7F F8 FF FF 7F 61 6B       S........ak
0220: 69 72 00                                          ir.             
```

#### Opcodes

```
  0: 0x0215 [0x53] WAIT_SCHEDULER_TASK: Wait for scheduler "akir" with entities [EventEntity, EventEntity]
  1: 0x0222 [0x00] END_REQSTACK()
```

### Event 65535.35

#### Metadata

| Field        | Value    |
|--------------|----------|
| Entrypoint   | 0x0223   |
| Data Size    | 16 bytes |
| Instructions | 2        |

```
      00 01 02 03 04 05 06 07  08 09 0A 0B 0C 0D 0E 0F
      -- -- -- -- -- -- -- --  -- -- -- -- -- -- -- --
0220:          5B 05 80 F8 FF  FF 7F F8 FF FF 7F 73 61     [..........sa
0230: 6B 69 00                                          ki.             
```

#### Opcodes

```
  0: 0x0223 [0x5B] LOAD_EXT_SCHEDULER: Load scheduler "saki" with entities [EventEntity, EventEntity], work=504*
  1: 0x0232 [0x00] END_REQSTACK()
```

### Event 65535.36

#### Metadata

| Field        | Value    |
|--------------|----------|
| Entrypoint   | 0x0233   |
| Data Size    | 14 bytes |
| Instructions | 2        |

```
      00 01 02 03 04 05 06 07  08 09 0A 0B 0C 0D 0E 0F
      -- -- -- -- -- -- -- --  -- -- -- -- -- -- -- --
0230:          53 F8 FF FF 7F  F8 FF FF 7F 73 61 6B 69     S........saki
0240: 00                                                .               
```

#### Opcodes

```
  0: 0x0233 [0x53] WAIT_SCHEDULER_TASK: Wait for scheduler "saki" with entities [EventEntity, EventEntity]
  1: 0x0240 [0x00] END_REQSTACK()
```

### Event 65535.37

#### Metadata

| Field        | Value    |
|--------------|----------|
| Entrypoint   | 0x0241   |
| Data Size    | 16 bytes |
| Instructions | 2        |

```
      00 01 02 03 04 05 06 07  08 09 0A 0B 0C 0D 0E 0F
      -- -- -- -- -- -- -- --  -- -- -- -- -- -- -- --
0240:    5B 05 80 F8 FF FF 7F  F8 FF FF 7F 73 6A 69 30   [..........sji0
0250: 00                                                .               
```

#### Opcodes

```
  0: 0x0241 [0x5B] LOAD_EXT_SCHEDULER: Load scheduler "sji0" with entities [EventEntity, EventEntity], work=504*
  1: 0x0250 [0x00] END_REQSTACK()
```

### Event 65535.38

#### Metadata

| Field        | Value    |
|--------------|----------|
| Entrypoint   | 0x0251   |
| Data Size    | 14 bytes |
| Instructions | 2        |

```
      00 01 02 03 04 05 06 07  08 09 0A 0B 0C 0D 0E 0F
      -- -- -- -- -- -- -- --  -- -- -- -- -- -- -- --
0250:    53 F8 FF FF 7F F8 FF  FF 7F 73 6A 69 30 00      S........sji0. 
```

#### Opcodes

```
  0: 0x0251 [0x53] WAIT_SCHEDULER_TASK: Wait for scheduler "sji0" with entities [EventEntity, EventEntity]
  1: 0x025E [0x00] END_REQSTACK()
```

### Event 65535.39

#### Metadata

| Field        | Value    |
|--------------|----------|
| Entrypoint   | 0x025F   |
| Data Size    | 16 bytes |
| Instructions | 2        |

```
      00 01 02 03 04 05 06 07  08 09 0A 0B 0C 0D 0E 0F
      -- -- -- -- -- -- -- --  -- -- -- -- -- -- -- --
0250:                                               5B                 [
0260: 05 80 F8 FF FF 7F F8 FF  FF 7F 73 6A 69 31 00     ..........sji1. 
```

#### Opcodes

```
  0: 0x025F [0x5B] LOAD_EXT_SCHEDULER: Load scheduler "sji1" with entities [EventEntity, EventEntity], work=504*
  1: 0x026E [0x00] END_REQSTACK()
```

### Event 65535.40

#### Metadata

| Field        | Value    |
|--------------|----------|
| Entrypoint   | 0x026F   |
| Data Size    | 14 bytes |
| Instructions | 2        |

```
      00 01 02 03 04 05 06 07  08 09 0A 0B 0C 0D 0E 0F
      -- -- -- -- -- -- -- --  -- -- -- -- -- -- -- --
0260:                                               53                 S
0270: F8 FF FF 7F F8 FF FF 7F  73 6A 69 31 00           ........sji1.   
```

#### Opcodes

```
  0: 0x026F [0x53] WAIT_SCHEDULER_TASK: Wait for scheduler "sji1" with entities [EventEntity, EventEntity]
  1: 0x027C [0x00] END_REQSTACK()
```

### Event 10019

#### Metadata

| Field        | Value   |
|--------------|---------|
| Entrypoint   | 0x027D  |
| Data Size    | 1 bytes |
| Instructions | 1       |

```
      00 01 02 03 04 05 06 07  08 09 0A 0B 0C 0D 0E 0F
      -- -- -- -- -- -- -- --  -- -- -- -- -- -- -- --
0270:                                         00                     .  
```

#### Opcodes

```
  0: 0x027D [0x00] END_REQSTACK()
```

### Event 65535.41

#### Metadata

| Field        | Value    |
|--------------|----------|
| Entrypoint   | 0x027E   |
| Data Size    | 10 bytes |
| Instructions | 2        |

```
      00 01 02 03 04 05 06 07  08 09 0A 0B 0C 0D 0E 0F
      -- -- -- -- -- -- -- --  -- -- -- -- -- -- -- --
0270:                                            37 06                7.
0280: 80 07 80 08 80 09 80 00                           ........        
```

#### Opcodes

```
  0: 0x027E [0x37] UPDATE_EVENT_POSITION_AND_DIR: x=-37.760*, z=12.924*, y=-1.499*, direction=340.8°*
  1: 0x0287 [0x00] END_REQSTACK()
```

### Event 10026

#### Metadata

| Field        | Value    |
|--------------|----------|
| Entrypoint   | 0x0288   |
| Data Size    | 33 bytes |
| Instructions | 10       |

```
      00 01 02 03 04 05 06 07  08 09 0A 0B 0C 0D 0E 0F
      -- -- -- -- -- -- -- --  -- -- -- -- -- -- -- --
0280:                          1E F0 FF FF 7F 6F 70 29          .....op)
0290: 08 85 40 0F 01 01 2B 85  40 0F 01 0A 80 23 29 08  ..@...+.@....#).
02A0: 85 40 0F 01 02 20 00 21  00                       .@... .!.       
```

#### Opcodes

```
  0: 0x0288 [0x1E] EventEntity looks at LocalPlayer and starts talking
  1: 0x028D [0x6F] WAIT_FRAME_DELAY: Yield until WaitTime reaches zero
  2: 0x028E [0x70] WAIT_ENTITY_RENDER_FLAG: Wait while EventEntity->Render.Flags3 bit 2 is set (cancel turn if not)
  3: 0x028F [0x29] REQ_SET_WAIT(priority=0x08, entity_id=Migliorozz (ID: 17776773/0x010F4085), tag_num=0x01)
  4: 0x0296 [0x2B] Migliorozz (ID: 17776773/0x010F4085) [8509*]:
    → "You must indeed be serious about your beliefs to choose the Temple of the Goddess over the bustling sights and sounds of Jeuno."
  5: 0x029D [0x23] WAIT_FOR_DIALOG_INTERACTION
  6: 0x029E [0x29] REQ_SET_WAIT(priority=0x08, entity_id=Migliorozz (ID: 17776773/0x010F4085), tag_num=0x02)
  7: 0x02A5 [0x20] SET_CLI_EVENT_UC_FLAG: Unlock player control
  8: 0x02A7 [0x21] END_EVENT
  9: 0x02A8 [0x00] END_REQSTACK()
```

### Event 10021

#### Metadata

| Field        | Value    |
|--------------|----------|
| Entrypoint   | 0x02A9   |
| Data Size    | 73 bytes |
| Instructions | 19       |

```
      00 01 02 03 04 05 06 07  08 09 0A 0B 0C 0D 0E 0F
      -- -- -- -- -- -- -- --  -- -- -- -- -- -- -- --
02A0:                             1E F0 FF FF 7F 6F 70           .....op
02B0: 02 07 10 00 80 00 C3 02  2B 85 40 0F 01 0B 80 23  ........+.@....#
02C0: 01 EE 02 02 07 10 0C 80  00 D6 02 2B 85 40 0F 01  ...........+.@..
02D0: 0D 80 23 01 EE 02 02 07  10 01 80 00 EE 02 2B 85  ..#...........+.
02E0: 40 0F 01 0E 80 23 2B 85  40 0F 01 0F 80 23 20 00  @....#+.@....# .
02F0: 21 00                                             !.              
```

#### Opcodes

```
  0: 0x02A9 [0x1E] EventEntity looks at LocalPlayer and starts talking
  1: 0x02AE [0x6F] WAIT_FRAME_DELAY: Yield until WaitTime reaches zero
  2: 0x02AF [0x70] WAIT_ENTITY_RENDER_FLAG: Wait while EventEntity->Render.Flags3 bit 2 is set (cancel turn if not)
  3: 0x02B0 [0x02] IF !(Work_Zone[7] == 0*) GOTO 0x02C3
  4: 0x02B8 [0x2B] Migliorozz (ID: 17776773/0x010F4085) [8531*]:
    → "Find a way into the deepest section of the southwest tower, and activate the device that lies beyond the final gate. Both the gate and the device should respond to the $3."
  5: 0x02BF [0x23] WAIT_FOR_DIALOG_INTERACTION
  6: 0x02C0 [0x01] GOTO 0x02EE
  7: 0x02C3 [0x02] IF !(Work_Zone[7] == 1*) GOTO 0x02D6
  8: 0x02CB [0x2B] Migliorozz (ID: 17776773/0x010F4085) [8532*]:
    → "Find a way into the deepest section of the southwest tower, and seal the final gate with the $3. I pray for your success."
  9: 0x02D2 [0x23] WAIT_FOR_DIALOG_INTERACTION
 10: 0x02D3 [0x01] GOTO 0x02EE
 11: 0x02D6 [0x02] IF !(Work_Zone[7] == 2*) GOTO 0x02EE
 12: 0x02DE [0x2B] Migliorozz (ID: 17776773/0x010F4085) [8533*]:
    → "That was too close... Thankfully, the device was activated before those meddling scholars from Windurst arrived."
 13: 0x02E5 [0x23] WAIT_FOR_DIALOG_INTERACTION
 14: 0x02E6 [0x2B] Migliorozz (ID: 17776773/0x010F4085) [8534*]:
    → "But my work is not done. I must find a way to seal the device so that no one can stop it..."
 15: 0x02ED [0x23] WAIT_FOR_DIALOG_INTERACTION

SUBROUTINE_02EE:
 16: 0x02EE [0x20] SET_CLI_EVENT_UC_FLAG: Unlock player control
 17: 0x02F0 [0x21] END_EVENT
 18: 0x02F1 [0x00] END_REQSTACK()
```

### Event 10020

#### Metadata

| Field        | Value     |
|--------------|-----------|
| Entrypoint   | 0x02F2    |
| Data Size    | 151 bytes |
| Instructions | 32        |

```
      00 01 02 03 04 05 06 07  08 09 0A 0B 0C 0D 0E 0F
      -- -- -- -- -- -- -- --  -- -- -- -- -- -- -- --
02F0:       20 01 42 1E F0 FF  FF 7F 6F 70 02 07 10 00     .B.....op....
0300: 80 00 25 03 2B 85 40 0F  01 10 80 23 29 08 85 40  ..%.+.@....#)..@
0310: 0F 01 05 2B 85 40 0F 01  11 80 23 29 08 85 40 0F  ...+.@....#)..@.
0320: 01 06 01 74 03 02 07 10  0C 80 00 4E 03 2B 85 40  ...t.......N.+.@
0330: 0F 01 12 80 23 29 08 85  40 0F 01 05 2B 85 40 0F  ....#)..@...+.@.
0340: 01 13 80 23 29 08 85 40  0F 01 06 01 74 03 02 07  ...#)..@....t...
0350: 10 01 80 00 74 03 2B 85  40 0F 01 14 80 23 29 08  ....t.+.@....#).
0360: 85 40 0F 01 05 2B 85 40  0F 01 15 80 23 29 08 85  .@...+.@....#)..
0370: 40 0F 01 06 45 16 80 F0  FF FF 7F F0 FF FF 7F 71  @...E..........q
0380: 73 74 63 00 80 20 00 21  00                       stc.. .!.       
```

#### Opcodes

```
  0: 0x02F2 [0x20] SET_CLI_EVENT_UC_FLAG: Lock player control
  1: 0x02F4 [0x42] SET_CLI_EVENT_CANCEL_DATA()
  2: 0x02F5 [0x1E] EventEntity looks at LocalPlayer and starts talking
  3: 0x02FA [0x6F] WAIT_FRAME_DELAY: Yield until WaitTime reaches zero
  4: 0x02FB [0x70] WAIT_ENTITY_RENDER_FLAG: Wait while EventEntity->Render.Flags3 bit 2 is set (cancel turn if not)
  5: 0x02FC [0x02] IF !(Work_Zone[7] == 0*) GOTO 0x0325
  6: 0x0304 [0x2B] Migliorozz (ID: 17776773/0x010F4085) [8535*]:
    → "You have my thanks. It appears the obstructions within the tower did not prevent you from activating the device."
  7: 0x030B [0x23] WAIT_FOR_DIALOG_INTERACTION
  8: 0x030C [0x29] REQ_SET_WAIT(priority=0x08, entity_id=Migliorozz (ID: 17776773/0x010F4085), tag_num=0x05)
  9: 0x0313 [0x2B] Migliorozz (ID: 17776773/0x010F4085) [8536*]:
    → "The devices within the other towers are also being activated, one by one. Please accept your reward."
 10: 0x031A [0x23] WAIT_FOR_DIALOG_INTERACTION
 11: 0x031B [0x29] REQ_SET_WAIT(priority=0x08, entity_id=Migliorozz (ID: 17776773/0x010F4085), tag_num=0x06)
 12: 0x0322 [0x01] GOTO 0x0374
 13: 0x0325 [0x02] IF !(Work_Zone[7] == 1*) GOTO 0x034E
 14: 0x032D [0x2B] Migliorozz (ID: 17776773/0x010F4085) [8537*]:
    → "You have my thanks. It appears the obstructions within the tower did not prevent you from sealing the gate."
 15: 0x0334 [0x23] WAIT_FOR_DIALOG_INTERACTION
 16: 0x0335 [0x29] REQ_SET_WAIT(priority=0x08, entity_id=Migliorozz (ID: 17776773/0x010F4085), tag_num=0x05)
 17: 0x033C [0x2B] Migliorozz (ID: 17776773/0x010F4085) [8538*]:
    → "Do not be concerned; the gates within the other towers are being sealed as we speak. Please accept your reward."
 18: 0x0343 [0x23] WAIT_FOR_DIALOG_INTERACTION
 19: 0x0344 [0x29] REQ_SET_WAIT(priority=0x08, entity_id=Migliorozz (ID: 17776773/0x010F4085), tag_num=0x06)
 20: 0x034B [0x01] GOTO 0x0374
 21: 0x034E [0x02] IF !(Work_Zone[7] == 2*) GOTO 0x0374
 22: 0x0356 [0x2B] Migliorozz (ID: 17776773/0x010F4085) [8539*]:
    → "Ah, the gate did not open for you? That is because a more experienced adventurer activated the device before you arrived."
 23: 0x035D [0x23] WAIT_FOR_DIALOG_INTERACTION
 24: 0x035E [0x29] REQ_SET_WAIT(priority=0x08, entity_id=Migliorozz (ID: 17776773/0x010F4085), tag_num=0x05)
 25: 0x0365 [0x2B] Migliorozz (ID: 17776773/0x010F4085) [8540*]:
    → "However, I still wish to recognize your sincere desire to carry out my request. Please accept this token of my appreciation."
 26: 0x036C [0x23] WAIT_FOR_DIALOG_INTERACTION
 27: 0x036D [0x29] REQ_SET_WAIT(priority=0x08, entity_id=Migliorozz (ID: 17776773/0x010F4085), tag_num=0x06)

SUBROUTINE_0374:
 28: 0x0374 [0x45] LOAD_SCHEDULED_TASK: Load scheduler "qstc" with entities [LocalPlayer, LocalPlayer], work=[201*, 0*]
 29: 0x0385 [0x20] SET_CLI_EVENT_UC_FLAG: Unlock player control
 30: 0x0387 [0x21] END_EVENT
 31: 0x0388 [0x00] END_REQSTACK()
```

### Event 10022

#### Metadata

| Field        | Value    |
|--------------|----------|
| Entrypoint   | 0x0389   |
| Data Size    | 46 bytes |
| Instructions | 14       |

```
      00 01 02 03 04 05 06 07  08 09 0A 0B 0C 0D 0E 0F
      -- -- -- -- -- -- -- --  -- -- -- -- -- -- -- --
0380:                             1E F0 FF FF 7F 6F 70           .....op
0390: 2B 85 40 0F 01 17 80 23  02 07 10 00 80 00 AB 03  +.@....#........
03A0: 2B 85 40 0F 01 18 80 23  01 B3 03 2B 85 40 0F 01  +.@....#...+.@..
03B0: 19 80 23 20 00 21 00                              ..# .!.         
```

#### Opcodes

```
  0: 0x0389 [0x1E] EventEntity looks at LocalPlayer and starts talking
  1: 0x038E [0x6F] WAIT_FRAME_DELAY: Yield until WaitTime reaches zero
  2: 0x038F [0x70] WAIT_ENTITY_RENDER_FLAG: Wait while EventEntity->Render.Flags3 bit 2 is set (cancel turn if not)
  3: 0x0390 [0x2B] Migliorozz (ID: 17776773/0x010F4085) [8541*]:
    → "What would happen should all of the devices be activated? I really couldn't say."
  4: 0x0397 [0x23] WAIT_FOR_DIALOG_INTERACTION
  5: 0x0398 [0x02] IF !(Work_Zone[7] == 0*) GOTO 0x03AB
  6: 0x03A0 [0x2B] Migliorozz (ID: 17776773/0x010F4085) [8542*]:
    → "However, I am assured that... Ah...never mind."
  7: 0x03A7 [0x23] WAIT_FOR_DIALOG_INTERACTION
  8: 0x03A8 [0x01] GOTO 0x03B3
  9: 0x03AB [0x2B] Migliorozz (ID: 17776773/0x010F4085) [8543*]:
    → "However, how am I to seal...? Ah...never mind."
 10: 0x03B2 [0x23] WAIT_FOR_DIALOG_INTERACTION

SUBROUTINE_03B3:
 11: 0x03B3 [0x20] SET_CLI_EVENT_UC_FLAG: Unlock player control
 12: 0x03B5 [0x21] END_EVENT
 13: 0x03B6 [0x00] END_REQSTACK()
```
