# 17776653 - Osker

## Common Data

| Field            | Value                 |
|------------------|-----------------------|
| Zone             | Upper Jeuno (ID: 244) |
| Block Size       | 1424 bytes            |
| Total Events     | 63                    |
| References Count | 81                    |

## List of Events

| Event ID                   | Entrypoint   |   Size |   Instructions |
|----------------------------|--------------|--------|----------------|
| [65535](#event-65535)      | 0x0000       |      1 |              1 |
| [17](#event-17)            | 0x0001       |      1 |              1 |
| [12](#event-12)            | 0x0002       |      1 |              1 |
| [68](#event-68)            | 0x0003       |     15 |              8 |
| [65535.1](#event-655351)   | 0x0012       |     15 |              5 |
| [57](#event-57)            | 0x0021       |      1 |              1 |
| [58](#event-58)            | 0x0022       |      1 |              1 |
| [59](#event-59)            | 0x0023       |      1 |              1 |
| [60](#event-60)            | 0x0024       |      1 |              1 |
| [62](#event-62)            | 0x0025       |      1 |              1 |
| [63](#event-63)            | 0x0026       |      1 |              1 |
| [61](#event-61)            | 0x0027       |      1 |              1 |
| [72](#event-72)            | 0x0028       |      1 |              1 |
| [73](#event-73)            | 0x0029       |     13 |              6 |
| [99](#event-99)            | 0x0036       |     10 |              2 |
| [103](#event-103)          | 0x0040       |     46 |             15 |
| [101](#event-101)          | 0x006E       |      1 |              1 |
| [145](#event-145)          | 0x006F       |     19 |              9 |
| [146](#event-146)          | 0x0082       |     21 |              7 |
| [148](#event-148)          | 0x0097       |     90 |             15 |
| [147](#event-147)          | 0x00F1       |     11 |              5 |
| [131](#event-131)          | 0x00FC       |     11 |              5 |
| [130](#event-130)          | 0x0107       |     11 |              5 |
| [65535.2](#event-655352)   | 0x0112       |     16 |              4 |
| [70](#event-70)            | 0x0122       |      1 |              1 |
| [64](#event-64)            | 0x0123       |      1 |              1 |
| [50](#event-50)            | 0x0124       |      9 |              6 |
| [51](#event-51)            | 0x012D       |     14 |              7 |
| [52](#event-52)            | 0x013B       |     14 |              7 |
| [49](#event-49)            | 0x0149       |     14 |              7 |
| [46](#event-46)            | 0x0157       |     14 |              7 |
| [47](#event-47)            | 0x0165       |     14 |              7 |
| [53](#event-53)            | 0x0173       |     14 |              7 |
| [48](#event-48)            | 0x0181       |     14 |              7 |
| [45](#event-45)            | 0x018F       |     14 |              7 |
| [76](#event-76)            | 0x019D       |     24 |              9 |
| [38](#event-38)            | 0x01B5       |     19 |              8 |
| [65535.3](#event-655353)   | 0x01C8       |     16 |              4 |
| [65535.4](#event-655354)   | 0x01D8       |     16 |              4 |
| [65535.5](#event-655355)   | 0x01E8       |     16 |              4 |
| [65535.6](#event-655356)   | 0x01F8       |     17 |              5 |
| [65535.7](#event-655357)   | 0x0209       |     19 |              3 |
| [65535.8](#event-655358)   | 0x021C       |     19 |              3 |
| [65535.9](#event-655359)   | 0x022F       |     29 |              3 |
| [65535.10](#event-6553510) | 0x024C       |      9 |              3 |
| [65535.11](#event-6553511) | 0x0255       |      1 |              1 |
| [10139](#event-10139)      | 0x0256       |      7 |              2 |
| [10214](#event-10214)      | 0x025D       |      7 |              2 |
| [10215](#event-10215)      | 0x0264       |      7 |              2 |
| [10151](#event-10151)      | 0x026B       |      7 |              2 |
| [10209](#event-10209)      | 0x0272       |      7 |              2 |
| [10210](#event-10210)      | 0x0279       |      7 |              2 |
| [10211](#event-10211)      | 0x0280       |      7 |              2 |
| [10149](#event-10149)      | 0x0287       |      7 |              2 |
| [65535.12](#event-6553512) | 0x028E       |     54 |             12 |
| [65535.13](#event-6553513) | 0x02C4       |     28 |              6 |
| [10221](#event-10221)      | 0x02E0       |      1 |              1 |
| [10230](#event-10230)      | 0x02E1       |      1 |              1 |
| [10231](#event-10231)      | 0x02E2       |      1 |              1 |
| [10232](#event-10232)      | 0x02E3       |      1 |              1 |
| [10233](#event-10233)      | 0x02E4       |      1 |              1 |
| [10234](#event-10234)      | 0x02E5       |      1 |              1 |
| [65535.14](#event-6553514) | 0x02E6       |     87 |             19 |

## DAT References (imed_data)

|   Index | Hex Value   |   Dec Value |
|---------|-------------|-------------|
|       0 | 0x201C      |        8220 |
|       1 | 0x0028      |          40 |
|       2 | 0xFFFF1C98  |  4294909080 |
|       3 | 0x172F2     |       94962 |
|       4 | 0x2007      |        8199 |
|       5 | 0x1BBC      |        7100 |
|       6 | 0xFFFF1013  |  4294905875 |
|       7 | 0x16FD2     |       94162 |
|       8 | 0x051F      |        1311 |
|       9 | 0x004B      |          75 |
|      10 | 0x1BD2      |        7122 |
|      11 | 0x1BD3      |        7123 |
|      12 | 0x1BD4      |        7124 |
|      13 | 0x0216      |         534 |
|      14 | 0x1BD5      |        7125 |
|      15 | 0x1E3B      |        7739 |
|      16 | 0x1E3C      |        7740 |
|      17 | 0x1E3D      |        7741 |
|      18 | 0x00D9      |         217 |
|      19 | 0x02CD      |         717 |
|      20 | 0x1E42      |        7746 |
|      21 | 0x1E43      |        7747 |
|      22 | 0x00C8      |         200 |
|      23 | 0x0000      |           0 |
|      24 | 0x0078      |         120 |
|      25 | 0x1E44      |        7748 |
|      26 | 0x1E45      |        7749 |
|      27 | 0x1E27      |        7719 |
|      28 | 0x1E47      |        7751 |
|      29 | 0xFFFF391C  |  4294916380 |
|      30 | 0x15AFE     |       88830 |
|      31 | 0x1BBD      |        7101 |
|      32 | 0x1BDE      |        7134 |
|      33 | 0x1BE0      |        7136 |
|      34 | 0x1BF6      |        7158 |
|      35 | 0x1BFA      |        7162 |
|      36 | 0x1BFC      |        7164 |
|      37 | 0x1C05      |        7173 |
|      38 | 0x1C13      |        7187 |
|      39 | 0x1C27      |        7207 |
|      40 | 0x11C1      |        4545 |
|      41 | 0x1BFD      |        7165 |
|      42 | 0x1BFE      |        7166 |
|      43 | 0xFFFF17EE  |  4294907886 |
|      44 | 0x16C92     |       93330 |
|      45 | 0xFFFF142A  |  4294906922 |
|      46 | 0x16D03     |       93443 |
|      47 | 0xFFFF13B9  |  4294906809 |
|      48 | 0x16D06     |       93446 |
|      49 | 0x003C      |          60 |
|      50 | 0x005A      |          90 |
|      51 | 0x0384      |         900 |
|      52 | 0x0001      |           1 |
|      53 | 0xFFFF1B64  |  4294908772 |
|      54 | 0x190C1     |      102593 |
|      55 | 0xFFFF1438  |  4294906936 |
|      56 | 0x18CF7     |      101623 |
|      57 | 0xFFFF1525  |  4294907173 |
|      58 | 0x18A6A     |      100970 |
|      59 | 0x027F      |         639 |
|      60 | 0xFFFF1F9A  |  4294909850 |
|      61 | 0x19261     |      103009 |
|      62 | 0x000F      |          15 |
|      63 | 0xFFFF3828  |  4294916136 |
|      64 | 0x1721E     |       94750 |
|      65 | 0x1F40      |        8000 |
|      66 | 0xFFFF4E26  |  4294921766 |
|      67 | 0x17DF4     |       97780 |
|      68 | 0xFFFF601E  |  4294926366 |
|      69 | 0x16774     |       92020 |
|      70 | 0xFFFF574A  |  4294924106 |
|      71 | 0x14EA6     |       85670 |
|      72 | 0x1E14      |        7700 |
|      73 | 0xFFFF1924  |  4294908196 |
|      74 | 0x12ADE     |       76510 |
|      75 | 0xFFFF05B0  |  4294903216 |
|      76 | 0x1324A     |       78410 |
|      77 | 0xFFFEF19C  |  4294898076 |
|      78 | 0x167A6     |       92070 |
|      79 | 0xFFFEFAFC  |  4294900476 |
|      80 | 0x1D858     |      120920 |

## String References

- **7100**: I guess it ain't hungry. Try feeding it later.
- **7101**: Give us a break! What do we gotta do to get you to eat? I'm all out of ideas.
- **7122**: The master found this chocobo collapsed out on Rolanberry Fields. I bet it ran away from its last owner.
- **7123**: It seems it was whipped and worked to exhaustion. It's so scared of people, it cowers from everybody.
- **7124**: Those savages! That's no way to treat a chocobo... I try my best for him, but he won't eat a thing.
- **7125**: But I wonder... It just might eat $7. You know, the stuff that heals chocobo wounds.
- **7134**: They won't eat a thing until they're comfortable with you. Just keep at it, okay?
- **7136**: Nope, still no go. A friendly chocobo would be eating already, but this one's different.
- **7158**: Aw, that brute doesn't scare me. Anyway...look at you! The master said you got talent! I'm so jealous.
- **7162**: Just a little bit more! Thanks to you, he's eating more, and his feathers have a healthier glow!
- **7164**: Hah! I've never heard him squeal so happily!
- **7165**: Oh, sorry. He won't eat $6. But he might like $7 .
- **7166**: I'm sorry. Except for feeding time, the master scolds us when we give them $6. I know... It's the thought that counts.
- **7173**: The master sure was profound, talking about reading their minds... At least we know the last owner didn't have that gift!
- **7187**: He just got up and ran away. We were so worried. He came right back, covered in mud. But I wonder where he went?
- **7207**: Aw, man! I wanna be a beastmaster someday, too!
- **7719**: I've never see him look so depressed. But I guess it makes sense. Chocobos are like family to us!
- **7739**: Did you know that one of the street performers who used to come here was a beastmaster. Everyone loved his Opo-opo!
- **7740**: Somehow he made his Opo-opo do all kinds of things. I wish I could command this chocobo like that!
- **7741**: Anyway, his Opo-opo loved his spiffy collar. I think that the little bugger was named Tebhi.
- **7746**: Huh? 6? Nobody uses them anymore. But, if you bring me $1, I'll make it for you.
- **7747**: Good. $1 like this should work. Hang on a second.
- **7748**: There, it's done! Not bad if I say so myself. But what are you going to use this for?
- **7749**: Not bad if I say so myself. What are you going to use it for?
- **7751**: That street performer must have been a fantastic person! I want to be like him when I grow up!
- **8220**: It won't be long before this girl goes home to her master... But you won't see me crying! Mr. Dietmund promised me that I could ride her whenever I wanted!

## Events

### Event 65535

#### Metadata

| Field        | Value   |
|--------------|---------|
| Entrypoint   | 0x0000  |
| Data Size    | 1 bytes |
| Instructions | 1       |

```
      00 01 02 03 04 05 06 07  08 09 0A 0B 0C 0D 0E 0F
      -- -- -- -- -- -- -- --  -- -- -- -- -- -- -- --
0000: 00                                                .               
```

#### Opcodes

```
  0: 0x0000 [0x00] END_REQSTACK()
```

### Event 17

#### Metadata

| Field        | Value   |
|--------------|---------|
| Entrypoint   | 0x0001  |
| Data Size    | 1 bytes |
| Instructions | 1       |

```
      00 01 02 03 04 05 06 07  08 09 0A 0B 0C 0D 0E 0F
      -- -- -- -- -- -- -- --  -- -- -- -- -- -- -- --
0000:    00                                              .              
```

#### Opcodes

```
  0: 0x0001 [0x00] END_REQSTACK()
```

### Event 12

#### Metadata

| Field        | Value   |
|--------------|---------|
| Entrypoint   | 0x0002  |
| Data Size    | 1 bytes |
| Instructions | 1       |

```
      00 01 02 03 04 05 06 07  08 09 0A 0B 0C 0D 0E 0F
      -- -- -- -- -- -- -- --  -- -- -- -- -- -- -- --
0000:       00                                            .             
```

#### Opcodes

```
  0: 0x0002 [0x00] END_REQSTACK()
```

### Event 68

#### Metadata

| Field        | Value    |
|--------------|----------|
| Entrypoint   | 0x0003   |
| Data Size    | 15 bytes |
| Instructions | 8        |

```
      00 01 02 03 04 05 06 07  08 09 0A 0B 0C 0D 0E 0F
      -- -- -- -- -- -- -- --  -- -- -- -- -- -- -- --
0000:          20 01 1E F0 FF  FF 7F 6F 70 1D 00 80 23      ......op...#
0010: 21 00                                             !.              
```

#### Opcodes

```
  0: 0x0003 [0x20] SET_CLI_EVENT_UC_FLAG: Lock player control
  1: 0x0005 [0x1E] EventEntity looks at LocalPlayer and starts talking
  2: 0x000A [0x6F] WAIT_FRAME_DELAY: Yield until WaitTime reaches zero
  3: 0x000B [0x70] WAIT_ENTITY_RENDER_FLAG: Wait while EventEntity->Render.Flags3 bit 2 is set (cancel turn if not)
  4: 0x000C [0x1D] PRINT_EVENT_MESSAGE(message_id=8220*)
    → "It won't be long before this girl goes home to her master... But you won't see me crying! Mr. Dietmund promised me that I could ride her whenever I wanted!"
  5: 0x000F [0x23] WAIT_FOR_DIALOG_INTERACTION
  6: 0x0010 [0x21] END_EVENT
  7: 0x0011 [0x00] END_REQSTACK()
```

### Event 65535.1

#### Metadata

| Field        | Value    |
|--------------|----------|
| Entrypoint   | 0x0012   |
| Data Size    | 15 bytes |
| Instructions | 5        |

```
      00 01 02 03 04 05 06 07  08 09 0A 0B 0C 0D 0E 0F
      -- -- -- -- -- -- -- --  -- -- -- -- -- -- -- --
0010:       32 01 80 1F 00 02  80 03 80 04 80 1F 01 6F    2............o
0020: 00                                                .               
```

#### Opcodes

```
  0: 0x0012 [0x32] ExtData[1]->MainSpeed = 40* * 0.1
  1: 0x0015 [0x1F] MOVE_ENTITY: EventEntity moves to X=-58.216*, Z=94.962*, Y=8.199*
  2: 0x001D [0x1F] MOVE_ENTITY: Update entity position (mode=1)
  3: 0x001F [0x6F] WAIT_FRAME_DELAY: Yield until WaitTime reaches zero
  4: 0x0020 [0x00] END_REQSTACK()
```

### Event 57

#### Metadata

| Field        | Value   |
|--------------|---------|
| Entrypoint   | 0x0021  |
| Data Size    | 1 bytes |
| Instructions | 1       |

```
      00 01 02 03 04 05 06 07  08 09 0A 0B 0C 0D 0E 0F
      -- -- -- -- -- -- -- --  -- -- -- -- -- -- -- --
0020:    00                                              .              
```

#### Opcodes

```
  0: 0x0021 [0x00] END_REQSTACK()
```

### Event 58

#### Metadata

| Field        | Value   |
|--------------|---------|
| Entrypoint   | 0x0022  |
| Data Size    | 1 bytes |
| Instructions | 1       |

```
      00 01 02 03 04 05 06 07  08 09 0A 0B 0C 0D 0E 0F
      -- -- -- -- -- -- -- --  -- -- -- -- -- -- -- --
0020:       00                                            .             
```

#### Opcodes

```
  0: 0x0022 [0x00] END_REQSTACK()
```

### Event 59

#### Metadata

| Field        | Value   |
|--------------|---------|
| Entrypoint   | 0x0023  |
| Data Size    | 1 bytes |
| Instructions | 1       |

```
      00 01 02 03 04 05 06 07  08 09 0A 0B 0C 0D 0E 0F
      -- -- -- -- -- -- -- --  -- -- -- -- -- -- -- --
0020:          00                                          .            
```

#### Opcodes

```
  0: 0x0023 [0x00] END_REQSTACK()
```

### Event 60

#### Metadata

| Field        | Value   |
|--------------|---------|
| Entrypoint   | 0x0024  |
| Data Size    | 1 bytes |
| Instructions | 1       |

```
      00 01 02 03 04 05 06 07  08 09 0A 0B 0C 0D 0E 0F
      -- -- -- -- -- -- -- --  -- -- -- -- -- -- -- --
0020:             00                                        .           
```

#### Opcodes

```
  0: 0x0024 [0x00] END_REQSTACK()
```

### Event 62

#### Metadata

| Field        | Value   |
|--------------|---------|
| Entrypoint   | 0x0025  |
| Data Size    | 1 bytes |
| Instructions | 1       |

```
      00 01 02 03 04 05 06 07  08 09 0A 0B 0C 0D 0E 0F
      -- -- -- -- -- -- -- --  -- -- -- -- -- -- -- --
0020:                00                                      .          
```

#### Opcodes

```
  0: 0x0025 [0x00] END_REQSTACK()
```

### Event 63

#### Metadata

| Field        | Value   |
|--------------|---------|
| Entrypoint   | 0x0026  |
| Data Size    | 1 bytes |
| Instructions | 1       |

```
      00 01 02 03 04 05 06 07  08 09 0A 0B 0C 0D 0E 0F
      -- -- -- -- -- -- -- --  -- -- -- -- -- -- -- --
0020:                   00                                    .         
```

#### Opcodes

```
  0: 0x0026 [0x00] END_REQSTACK()
```

### Event 61

#### Metadata

| Field        | Value   |
|--------------|---------|
| Entrypoint   | 0x0027  |
| Data Size    | 1 bytes |
| Instructions | 1       |

```
      00 01 02 03 04 05 06 07  08 09 0A 0B 0C 0D 0E 0F
      -- -- -- -- -- -- -- --  -- -- -- -- -- -- -- --
0020:                      00                                  .        
```

#### Opcodes

```
  0: 0x0027 [0x00] END_REQSTACK()
```

### Event 72

#### Metadata

| Field        | Value   |
|--------------|---------|
| Entrypoint   | 0x0028  |
| Data Size    | 1 bytes |
| Instructions | 1       |

```
      00 01 02 03 04 05 06 07  08 09 0A 0B 0C 0D 0E 0F
      -- -- -- -- -- -- -- --  -- -- -- -- -- -- -- --
0020:                          00                               .       
```

#### Opcodes

```
  0: 0x0028 [0x00] END_REQSTACK()
```

### Event 73

#### Metadata

| Field        | Value    |
|--------------|----------|
| Entrypoint   | 0x0029   |
| Data Size    | 13 bytes |
| Instructions | 6        |

```
      00 01 02 03 04 05 06 07  08 09 0A 0B 0C 0D 0E 0F
      -- -- -- -- -- -- -- --  -- -- -- -- -- -- -- --
0020:                             20 01 1E F0 FF FF 7F            ......
0030: 1D 05 80 23 21 00                                 ...#!.          
```

#### Opcodes

```
  0: 0x0029 [0x20] SET_CLI_EVENT_UC_FLAG: Lock player control
  1: 0x002B [0x1E] EventEntity looks at LocalPlayer and starts talking
  2: 0x0030 [0x1D] PRINT_EVENT_MESSAGE(message_id=7100*)
    → "I guess it ain't hungry. Try feeding it later."
  3: 0x0033 [0x23] WAIT_FOR_DIALOG_INTERACTION
  4: 0x0034 [0x21] END_EVENT
  5: 0x0035 [0x00] END_REQSTACK()
```

### Event 99

#### Metadata

| Field        | Value    |
|--------------|----------|
| Entrypoint   | 0x0036   |
| Data Size    | 10 bytes |
| Instructions | 2        |

```
      00 01 02 03 04 05 06 07  08 09 0A 0B 0C 0D 0E 0F
      -- -- -- -- -- -- -- --  -- -- -- -- -- -- -- --
0030:                   37 06  80 07 80 04 80 08 80 00        7.........
```

#### Opcodes

```
  0: 0x0036 [0x37] UPDATE_EVENT_POSITION_AND_DIR: x=-61.421*, z=94.162*, y=8.199*, direction=115.2°*
  1: 0x003F [0x00] END_REQSTACK()
```

### Event 103

#### Metadata

| Field        | Value    |
|--------------|----------|
| Entrypoint   | 0x0040   |
| Data Size    | 46 bytes |
| Instructions | 15       |

```
      00 01 02 03 04 05 06 07  08 09 0A 0B 0C 0D 0E 0F
      -- -- -- -- -- -- -- --  -- -- -- -- -- -- -- --
0040: 20 01 42 1E F0 FF FF 7F  5B 09 80 F8 FF FF 7F F8   .B.....[.......
0050: FF FF 7F 74 6C 6B 30 1D  0A 80 23 1D 0B 80 23 1D  ...tlk0...#...#.
0060: 0C 80 23 03 09 10 0D 80  1D 0E 80 23 21 00        ..#........#!.  
```

#### Opcodes

```
  0: 0x0040 [0x20] SET_CLI_EVENT_UC_FLAG: Lock player control
  1: 0x0042 [0x42] SET_CLI_EVENT_CANCEL_DATA()
  2: 0x0043 [0x1E] EventEntity looks at LocalPlayer and starts talking
  3: 0x0048 [0x5B] LOAD_EXT_SCHEDULER: Load scheduler "tlk0" with entities [EventEntity, EventEntity], work=75*
  4: 0x0057 [0x1D] PRINT_EVENT_MESSAGE(message_id=7122*)
    → "The master found this chocobo collapsed out on Rolanberry Fields. I bet it ran away from its last owner."
  5: 0x005A [0x23] WAIT_FOR_DIALOG_INTERACTION
  6: 0x005B [0x1D] PRINT_EVENT_MESSAGE(message_id=7123*)
    → "It seems it was whipped and worked to exhaustion. It's so scared of people, it cowers from everybody."
  7: 0x005E [0x23] WAIT_FOR_DIALOG_INTERACTION
  8: 0x005F [0x1D] PRINT_EVENT_MESSAGE(message_id=7124*)
    → "Those savages! That's no way to treat a chocobo... I try my best for him, but he won't eat a thing."
  9: 0x0062 [0x23] WAIT_FOR_DIALOG_INTERACTION
 10: 0x0063 [0x03] Work_Zone[9] = 534*
 11: 0x0068 [0x1D] PRINT_EVENT_MESSAGE(message_id=7125*)
    → "But I wonder... It just might eat $7. You know, the stuff that heals chocobo wounds."
 12: 0x006B [0x23] WAIT_FOR_DIALOG_INTERACTION
 13: 0x006C [0x21] END_EVENT
 14: 0x006D [0x00] END_REQSTACK()
```

### Event 101

#### Metadata

| Field        | Value   |
|--------------|---------|
| Entrypoint   | 0x006E  |
| Data Size    | 1 bytes |
| Instructions | 1       |

```
      00 01 02 03 04 05 06 07  08 09 0A 0B 0C 0D 0E 0F
      -- -- -- -- -- -- -- --  -- -- -- -- -- -- -- --
0060:                                            00                   . 
```

#### Opcodes

```
  0: 0x006E [0x00] END_REQSTACK()
```

### Event 145

#### Metadata

| Field        | Value    |
|--------------|----------|
| Entrypoint   | 0x006F   |
| Data Size    | 19 bytes |
| Instructions | 9        |

```
      00 01 02 03 04 05 06 07  08 09 0A 0B 0C 0D 0E 0F
      -- -- -- -- -- -- -- --  -- -- -- -- -- -- -- --
0060:                                               1E                 .
0070: F0 FF FF 7F 1D 0F 80 23  1D 10 80 23 1D 11 80 23  .......#...#...#
0080: 21 00                                             !.              
```

#### Opcodes

```
  0: 0x006F [0x1E] EventEntity looks at LocalPlayer and starts talking
  1: 0x0074 [0x1D] PRINT_EVENT_MESSAGE(message_id=7739*)
    → "Did you know that one of the street performers who used to come here was a beastmaster. Everyone loved his Opo-opo!"
  2: 0x0077 [0x23] WAIT_FOR_DIALOG_INTERACTION
  3: 0x0078 [0x1D] PRINT_EVENT_MESSAGE(message_id=7740*)
    → "Somehow he made his Opo-opo do all kinds of things. I wish I could command this chocobo like that!"
  4: 0x007B [0x23] WAIT_FOR_DIALOG_INTERACTION
  5: 0x007C [0x1D] PRINT_EVENT_MESSAGE(message_id=7741*)
    → "Anyway, his Opo-opo loved his spiffy collar. I think that the little bugger was named Tebhi."
  6: 0x007F [0x23] WAIT_FOR_DIALOG_INTERACTION
  7: 0x0080 [0x21] END_EVENT
  8: 0x0081 [0x00] END_REQSTACK()
```

### Event 146

#### Metadata

| Field        | Value    |
|--------------|----------|
| Entrypoint   | 0x0082   |
| Data Size    | 21 bytes |
| Instructions | 7        |

```
      00 01 02 03 04 05 06 07  08 09 0A 0B 0C 0D 0E 0F
      -- -- -- -- -- -- -- --  -- -- -- -- -- -- -- --
0080:       1E F0 FF FF 7F 03  02 10 12 80 03 03 10 13    ..............
0090: 80 1D 14 80 23 21 00                              ....#!.         
```

#### Opcodes

```
  0: 0x0082 [0x1E] EventEntity looks at LocalPlayer and starts talking
  1: 0x0087 [0x03] Work_Zone[2] = 217*
  2: 0x008C [0x03] Work_Zone[3] = 717*
  3: 0x0091 [0x1D] PRINT_EVENT_MESSAGE(message_id=7746*)
    → "Huh? 6? Nobody uses them anymore. But, if you bring me $1, I'll make it for you."
  4: 0x0094 [0x23] WAIT_FOR_DIALOG_INTERACTION
  5: 0x0095 [0x21] END_EVENT
  6: 0x0096 [0x00] END_REQSTACK()
```

### Event 148

#### Metadata

| Field        | Value    |
|--------------|----------|
| Entrypoint   | 0x0097   |
| Data Size    | 90 bytes |
| Instructions | 15       |

```
      00 01 02 03 04 05 06 07  08 09 0A 0B 0C 0D 0E 0F
      -- -- -- -- -- -- -- --  -- -- -- -- -- -- -- --
0090:                      20  01 42 1E F0 FF FF 7F 03          .B......
00A0: 03 10 13 80 1D 15 80 23  45 16 80 F0 FF FF 7F F0  .......#E.......
00B0: FF FF 7F 66 64 6F 31 17  80 55 16 80 F0 FF FF 7F  ...fdo1..U......
00C0: F0 FF FF 7F 66 64 6F 31  1C 18 80 45 16 80 F0 FF  ....fdo1...E....
00D0: FF 7F F0 FF FF 7F 66 64  69 31 17 80 55 16 80 F0  ......fdi1..U...
00E0: FF FF 7F F0 FF FF 7F 66  64 69 31 1D 19 80 23 21  .......fdi1...#!
00F0: 00                                                .               
```

#### Opcodes

```
  0: 0x0097 [0x20] SET_CLI_EVENT_UC_FLAG: Lock player control
  1: 0x0099 [0x42] SET_CLI_EVENT_CANCEL_DATA()
  2: 0x009A [0x1E] EventEntity looks at LocalPlayer and starts talking
  3: 0x009F [0x03] Work_Zone[3] = 717*
  4: 0x00A4 [0x1D] PRINT_EVENT_MESSAGE(message_id=7747*)
    → "Good. $1 like this should work. Hang on a second."
  5: 0x00A7 [0x23] WAIT_FOR_DIALOG_INTERACTION
  6: 0x00A8 [0x45] LOAD_SCHEDULED_TASK: Load scheduler "fdo1" with entities [LocalPlayer, LocalPlayer], work=[200*, 0*]
  7: 0x00B9 [0x55] WAIT_LOAD_SCHEDULER: Wait for scheduler "fdo1" with entities [LocalPlayer, LocalPlayer], work=200*
  8: 0x00C8 [0x1C] WAIT(120* ticks)
  9: 0x00CB [0x45] LOAD_SCHEDULED_TASK: Load scheduler "fdi1" with entities [LocalPlayer, LocalPlayer], work=[200*, 0*]
 10: 0x00DC [0x55] WAIT_LOAD_SCHEDULER: Wait for scheduler "fdi1" with entities [LocalPlayer, LocalPlayer], work=200*
 11: 0x00EB [0x1D] PRINT_EVENT_MESSAGE(message_id=7748*)
    → "There, it's done! Not bad if I say so myself. But what are you going to use this for?"
 12: 0x00EE [0x23] WAIT_FOR_DIALOG_INTERACTION
 13: 0x00EF [0x21] END_EVENT
 14: 0x00F0 [0x00] END_REQSTACK()
```

### Event 147

#### Metadata

| Field        | Value    |
|--------------|----------|
| Entrypoint   | 0x00F1   |
| Data Size    | 11 bytes |
| Instructions | 5        |

```
      00 01 02 03 04 05 06 07  08 09 0A 0B 0C 0D 0E 0F
      -- -- -- -- -- -- -- --  -- -- -- -- -- -- -- --
00F0:    1E F0 FF FF 7F 1D 1A  80 23 21 00               ........#!.    
```

#### Opcodes

```
  0: 0x00F1 [0x1E] EventEntity looks at LocalPlayer and starts talking
  1: 0x00F6 [0x1D] PRINT_EVENT_MESSAGE(message_id=7749*)
    → "Not bad if I say so myself. What are you going to use it for?"
  2: 0x00F9 [0x23] WAIT_FOR_DIALOG_INTERACTION
  3: 0x00FA [0x21] END_EVENT
  4: 0x00FB [0x00] END_REQSTACK()
```

### Event 131

#### Metadata

| Field        | Value    |
|--------------|----------|
| Entrypoint   | 0x00FC   |
| Data Size    | 11 bytes |
| Instructions | 5        |

```
      00 01 02 03 04 05 06 07  08 09 0A 0B 0C 0D 0E 0F
      -- -- -- -- -- -- -- --  -- -- -- -- -- -- -- --
00F0:                                      1E F0 FF FF              ....
0100: 7F 1D 1B 80 23 21 00                              ....#!.         
```

#### Opcodes

```
  0: 0x00FC [0x1E] EventEntity looks at LocalPlayer and starts talking
  1: 0x0101 [0x1D] PRINT_EVENT_MESSAGE(message_id=7719*)
    → "I've never see him look so depressed. But I guess it makes sense. Chocobos are like family to us!"
  2: 0x0104 [0x23] WAIT_FOR_DIALOG_INTERACTION
  3: 0x0105 [0x21] END_EVENT
  4: 0x0106 [0x00] END_REQSTACK()
```

### Event 130

#### Metadata

| Field        | Value    |
|--------------|----------|
| Entrypoint   | 0x0107   |
| Data Size    | 11 bytes |
| Instructions | 5        |

```
      00 01 02 03 04 05 06 07  08 09 0A 0B 0C 0D 0E 0F
      -- -- -- -- -- -- -- --  -- -- -- -- -- -- -- --
0100:                      1E  F0 FF FF 7F 1D 1C 80 23         ........#
0110: 21 00                                             !.              
```

#### Opcodes

```
  0: 0x0107 [0x1E] EventEntity looks at LocalPlayer and starts talking
  1: 0x010C [0x1D] PRINT_EVENT_MESSAGE(message_id=7751*)
    → "That street performer must have been a fantastic person! I want to be like him when I grow up!"
  2: 0x010F [0x23] WAIT_FOR_DIALOG_INTERACTION
  3: 0x0110 [0x21] END_EVENT
  4: 0x0111 [0x00] END_REQSTACK()
```

### Event 65535.2

#### Metadata

| Field        | Value    |
|--------------|----------|
| Entrypoint   | 0x0112   |
| Data Size    | 16 bytes |
| Instructions | 4        |

```
      00 01 02 03 04 05 06 07  08 09 0A 0B 0C 0D 0E 0F
      -- -- -- -- -- -- -- --  -- -- -- -- -- -- -- --
0110:       1F 00 1D 80 1E 80  04 80 1F 01 1E 0E 40 0F    ............@.
0120: 01 00                                             ..              
```

#### Opcodes

```
  0: 0x0112 [0x1F] MOVE_ENTITY: EventEntity moves to X=-50.916*, Z=88.830*, Y=8.199*
  1: 0x011A [0x1F] MOVE_ENTITY: Update entity position (mode=1)
  2: 0x011C [0x1E] EventEntity looks at Shalott (ID: 17776654/0x010F400E) and starts talking
  3: 0x0121 [0x00] END_REQSTACK()
```

### Event 70

#### Metadata

| Field        | Value   |
|--------------|---------|
| Entrypoint   | 0x0122  |
| Data Size    | 1 bytes |
| Instructions | 1       |

```
      00 01 02 03 04 05 06 07  08 09 0A 0B 0C 0D 0E 0F
      -- -- -- -- -- -- -- --  -- -- -- -- -- -- -- --
0120:       00                                            .             
```

#### Opcodes

```
  0: 0x0122 [0x00] END_REQSTACK()
```

### Event 64

#### Metadata

| Field        | Value   |
|--------------|---------|
| Entrypoint   | 0x0123  |
| Data Size    | 1 bytes |
| Instructions | 1       |

```
      00 01 02 03 04 05 06 07  08 09 0A 0B 0C 0D 0E 0F
      -- -- -- -- -- -- -- --  -- -- -- -- -- -- -- --
0120:          00                                          .            
```

#### Opcodes

```
  0: 0x0123 [0x00] END_REQSTACK()
```

### Event 50

#### Metadata

| Field        | Value   |
|--------------|---------|
| Entrypoint   | 0x0124  |
| Data Size    | 9 bytes |
| Instructions | 6       |

```
      00 01 02 03 04 05 06 07  08 09 0A 0B 0C 0D 0E 0F
      -- -- -- -- -- -- -- --  -- -- -- -- -- -- -- --
0120:             20 01 42 1D  1F 80 23 21 00                .B...#!.   
```

#### Opcodes

```
  0: 0x0124 [0x20] SET_CLI_EVENT_UC_FLAG: Lock player control
  1: 0x0126 [0x42] SET_CLI_EVENT_CANCEL_DATA()
  2: 0x0127 [0x1D] PRINT_EVENT_MESSAGE(message_id=7101*)
    → "Give us a break! What do we gotta do to get you to eat? I'm all out of ideas."
  3: 0x012A [0x23] WAIT_FOR_DIALOG_INTERACTION
  4: 0x012B [0x21] END_EVENT
  5: 0x012C [0x00] END_REQSTACK()
```

### Event 51

#### Metadata

| Field        | Value    |
|--------------|----------|
| Entrypoint   | 0x012D   |
| Data Size    | 14 bytes |
| Instructions | 7        |

```
      00 01 02 03 04 05 06 07  08 09 0A 0B 0C 0D 0E 0F
      -- -- -- -- -- -- -- --  -- -- -- -- -- -- -- --
0120:                                         20 01 42                .B
0130: 1E F0 FF FF 7F 1D 20 80  23 21 00                 ...... .#!.     
```

#### Opcodes

```
  0: 0x012D [0x20] SET_CLI_EVENT_UC_FLAG: Lock player control
  1: 0x012F [0x42] SET_CLI_EVENT_CANCEL_DATA()
  2: 0x0130 [0x1E] EventEntity looks at LocalPlayer and starts talking
  3: 0x0135 [0x1D] PRINT_EVENT_MESSAGE(message_id=7134*)
    → "They won't eat a thing until they're comfortable with you. Just keep at it, okay?"
  4: 0x0138 [0x23] WAIT_FOR_DIALOG_INTERACTION
  5: 0x0139 [0x21] END_EVENT
  6: 0x013A [0x00] END_REQSTACK()
```

### Event 52

#### Metadata

| Field        | Value    |
|--------------|----------|
| Entrypoint   | 0x013B   |
| Data Size    | 14 bytes |
| Instructions | 7        |

```
      00 01 02 03 04 05 06 07  08 09 0A 0B 0C 0D 0E 0F
      -- -- -- -- -- -- -- --  -- -- -- -- -- -- -- --
0130:                                   20 01 42 1E F0              .B..
0140: FF FF 7F 1D 21 80 23 21  00                       ....!.#!.       
```

#### Opcodes

```
  0: 0x013B [0x20] SET_CLI_EVENT_UC_FLAG: Lock player control
  1: 0x013D [0x42] SET_CLI_EVENT_CANCEL_DATA()
  2: 0x013E [0x1E] EventEntity looks at LocalPlayer and starts talking
  3: 0x0143 [0x1D] PRINT_EVENT_MESSAGE(message_id=7136*)
    → "Nope, still no go. A friendly chocobo would be eating already, but this one's different."
  4: 0x0146 [0x23] WAIT_FOR_DIALOG_INTERACTION
  5: 0x0147 [0x21] END_EVENT
  6: 0x0148 [0x00] END_REQSTACK()
```

### Event 49

#### Metadata

| Field        | Value    |
|--------------|----------|
| Entrypoint   | 0x0149   |
| Data Size    | 14 bytes |
| Instructions | 7        |

```
      00 01 02 03 04 05 06 07  08 09 0A 0B 0C 0D 0E 0F
      -- -- -- -- -- -- -- --  -- -- -- -- -- -- -- --
0140:                             20 01 42 1E F0 FF FF            .B....
0150: 7F 1D 22 80 23 21 00                              ..".#!.         
```

#### Opcodes

```
  0: 0x0149 [0x20] SET_CLI_EVENT_UC_FLAG: Lock player control
  1: 0x014B [0x42] SET_CLI_EVENT_CANCEL_DATA()
  2: 0x014C [0x1E] EventEntity looks at LocalPlayer and starts talking
  3: 0x0151 [0x1D] PRINT_EVENT_MESSAGE(message_id=7158*)
    → "Aw, that brute doesn't scare me. Anyway...look at you! The master said you got talent! I'm so jealous."
  4: 0x0154 [0x23] WAIT_FOR_DIALOG_INTERACTION
  5: 0x0155 [0x21] END_EVENT
  6: 0x0156 [0x00] END_REQSTACK()
```

### Event 46

#### Metadata

| Field        | Value    |
|--------------|----------|
| Entrypoint   | 0x0157   |
| Data Size    | 14 bytes |
| Instructions | 7        |

```
      00 01 02 03 04 05 06 07  08 09 0A 0B 0C 0D 0E 0F
      -- -- -- -- -- -- -- --  -- -- -- -- -- -- -- --
0150:                      20  01 42 1E F0 FF FF 7F 1D          .B......
0160: 23 80 23 21 00                                    #.#!.           
```

#### Opcodes

```
  0: 0x0157 [0x20] SET_CLI_EVENT_UC_FLAG: Lock player control
  1: 0x0159 [0x42] SET_CLI_EVENT_CANCEL_DATA()
  2: 0x015A [0x1E] EventEntity looks at LocalPlayer and starts talking
  3: 0x015F [0x1D] PRINT_EVENT_MESSAGE(message_id=7162*)
    → "Just a little bit more! Thanks to you, he's eating more, and his feathers have a healthier glow!"
  4: 0x0162 [0x23] WAIT_FOR_DIALOG_INTERACTION
  5: 0x0163 [0x21] END_EVENT
  6: 0x0164 [0x00] END_REQSTACK()
```

### Event 47

#### Metadata

| Field        | Value    |
|--------------|----------|
| Entrypoint   | 0x0165   |
| Data Size    | 14 bytes |
| Instructions | 7        |

```
      00 01 02 03 04 05 06 07  08 09 0A 0B 0C 0D 0E 0F
      -- -- -- -- -- -- -- --  -- -- -- -- -- -- -- --
0160:                20 01 42  1E F0 FF FF 7F 1D 24 80        .B......$.
0170: 23 21 00                                          #!.             
```

#### Opcodes

```
  0: 0x0165 [0x20] SET_CLI_EVENT_UC_FLAG: Lock player control
  1: 0x0167 [0x42] SET_CLI_EVENT_CANCEL_DATA()
  2: 0x0168 [0x1E] EventEntity looks at LocalPlayer and starts talking
  3: 0x016D [0x1D] PRINT_EVENT_MESSAGE(message_id=7164*)
    → "Hah! I've never heard him squeal so happily!"
  4: 0x0170 [0x23] WAIT_FOR_DIALOG_INTERACTION
  5: 0x0171 [0x21] END_EVENT
  6: 0x0172 [0x00] END_REQSTACK()
```

### Event 53

#### Metadata

| Field        | Value    |
|--------------|----------|
| Entrypoint   | 0x0173   |
| Data Size    | 14 bytes |
| Instructions | 7        |

```
      00 01 02 03 04 05 06 07  08 09 0A 0B 0C 0D 0E 0F
      -- -- -- -- -- -- -- --  -- -- -- -- -- -- -- --
0170:          20 01 42 1E F0  FF FF 7F 1D 25 80 23 21      .B......%.#!
0180: 00                                                .               
```

#### Opcodes

```
  0: 0x0173 [0x20] SET_CLI_EVENT_UC_FLAG: Lock player control
  1: 0x0175 [0x42] SET_CLI_EVENT_CANCEL_DATA()
  2: 0x0176 [0x1E] EventEntity looks at LocalPlayer and starts talking
  3: 0x017B [0x1D] PRINT_EVENT_MESSAGE(message_id=7173*)
    → "The master sure was profound, talking about reading their minds... At least we know the last owner didn't have that gift!"
  4: 0x017E [0x23] WAIT_FOR_DIALOG_INTERACTION
  5: 0x017F [0x21] END_EVENT
  6: 0x0180 [0x00] END_REQSTACK()
```

### Event 48

#### Metadata

| Field        | Value    |
|--------------|----------|
| Entrypoint   | 0x0181   |
| Data Size    | 14 bytes |
| Instructions | 7        |

```
      00 01 02 03 04 05 06 07  08 09 0A 0B 0C 0D 0E 0F
      -- -- -- -- -- -- -- --  -- -- -- -- -- -- -- --
0180:    20 01 42 1E F0 FF FF  7F 1D 26 80 23 21 00       .B......&.#!. 
```

#### Opcodes

```
  0: 0x0181 [0x20] SET_CLI_EVENT_UC_FLAG: Lock player control
  1: 0x0183 [0x42] SET_CLI_EVENT_CANCEL_DATA()
  2: 0x0184 [0x1E] EventEntity looks at LocalPlayer and starts talking
  3: 0x0189 [0x1D] PRINT_EVENT_MESSAGE(message_id=7187*)
    → "He just got up and ran away. We were so worried. He came right back, covered in mud. But I wonder where he went?"
  4: 0x018C [0x23] WAIT_FOR_DIALOG_INTERACTION
  5: 0x018D [0x21] END_EVENT
  6: 0x018E [0x00] END_REQSTACK()
```

### Event 45

#### Metadata

| Field        | Value    |
|--------------|----------|
| Entrypoint   | 0x018F   |
| Data Size    | 14 bytes |
| Instructions | 7        |

```
      00 01 02 03 04 05 06 07  08 09 0A 0B 0C 0D 0E 0F
      -- -- -- -- -- -- -- --  -- -- -- -- -- -- -- --
0180:                                               20                  
0190: 01 42 1E F0 FF FF 7F 1D  27 80 23 21 00           .B......'.#!.   
```

#### Opcodes

```
  0: 0x018F [0x20] SET_CLI_EVENT_UC_FLAG: Lock player control
  1: 0x0191 [0x42] SET_CLI_EVENT_CANCEL_DATA()
  2: 0x0192 [0x1E] EventEntity looks at LocalPlayer and starts talking
  3: 0x0197 [0x1D] PRINT_EVENT_MESSAGE(message_id=7207*)
    → "Aw, man! I wanna be a beastmaster someday, too!"
  4: 0x019A [0x23] WAIT_FOR_DIALOG_INTERACTION
  5: 0x019B [0x21] END_EVENT
  6: 0x019C [0x00] END_REQSTACK()
```

### Event 76

#### Metadata

| Field        | Value    |
|--------------|----------|
| Entrypoint   | 0x019D   |
| Data Size    | 24 bytes |
| Instructions | 9        |

```
      00 01 02 03 04 05 06 07  08 09 0A 0B 0C 0D 0E 0F
      -- -- -- -- -- -- -- --  -- -- -- -- -- -- -- --
0190:                                         20 01 42                .B
01A0: 1E F0 FF FF 7F 03 08 10  28 80 03 09 10 0D 80 1D  ........(.......
01B0: 29 80 23 21 00                                    ).#!.           
```

#### Opcodes

```
  0: 0x019D [0x20] SET_CLI_EVENT_UC_FLAG: Lock player control
  1: 0x019F [0x42] SET_CLI_EVENT_CANCEL_DATA()
  2: 0x01A0 [0x1E] EventEntity looks at LocalPlayer and starts talking
  3: 0x01A5 [0x03] Work_Zone[8] = 4545*
  4: 0x01AA [0x03] Work_Zone[9] = 534*
  5: 0x01AF [0x1D] PRINT_EVENT_MESSAGE(message_id=7165*)
    → "Oh, sorry. He won't eat $6. But he might like $7 ."
  6: 0x01B2 [0x23] WAIT_FOR_DIALOG_INTERACTION
  7: 0x01B3 [0x21] END_EVENT
  8: 0x01B4 [0x00] END_REQSTACK()
```

### Event 38

#### Metadata

| Field        | Value    |
|--------------|----------|
| Entrypoint   | 0x01B5   |
| Data Size    | 19 bytes |
| Instructions | 8        |

```
      00 01 02 03 04 05 06 07  08 09 0A 0B 0C 0D 0E 0F
      -- -- -- -- -- -- -- --  -- -- -- -- -- -- -- --
01B0:                20 01 42  1E F0 FF FF 7F 03 08 10        .B........
01C0: 28 80 1D 2A 80 23 21 00                           (..*.#!.        
```

#### Opcodes

```
  0: 0x01B5 [0x20] SET_CLI_EVENT_UC_FLAG: Lock player control
  1: 0x01B7 [0x42] SET_CLI_EVENT_CANCEL_DATA()
  2: 0x01B8 [0x1E] EventEntity looks at LocalPlayer and starts talking
  3: 0x01BD [0x03] Work_Zone[8] = 4545*
  4: 0x01C2 [0x1D] PRINT_EVENT_MESSAGE(message_id=7166*)
    → "I'm sorry. Except for feeding time, the master scolds us when we give them $6. I know... It's the thought that counts."
  5: 0x01C5 [0x23] WAIT_FOR_DIALOG_INTERACTION
  6: 0x01C6 [0x21] END_EVENT
  7: 0x01C7 [0x00] END_REQSTACK()
```

### Event 65535.3

#### Metadata

| Field        | Value    |
|--------------|----------|
| Entrypoint   | 0x01C8   |
| Data Size    | 16 bytes |
| Instructions | 4        |

```
      00 01 02 03 04 05 06 07  08 09 0A 0B 0C 0D 0E 0F
      -- -- -- -- -- -- -- --  -- -- -- -- -- -- -- --
01C0:                          1F 00 2B 80 2C 80 04 80          ..+.,...
01D0: 1F 01 1E 0F 40 0F 01 00                           ....@...        
```

#### Opcodes

```
  0: 0x01C8 [0x1F] MOVE_ENTITY: EventEntity moves to X=-59.410*, Z=93.330*, Y=8.199*
  1: 0x01D0 [0x1F] MOVE_ENTITY: Update entity position (mode=1)
  2: 0x01D2 [0x1E] EventEntity looks at Dietmund (ID: 17776655/0x010F400F) and starts talking
  3: 0x01D7 [0x00] END_REQSTACK()
```

### Event 65535.4

#### Metadata

| Field        | Value    |
|--------------|----------|
| Entrypoint   | 0x01D8   |
| Data Size    | 16 bytes |
| Instructions | 4        |

```
      00 01 02 03 04 05 06 07  08 09 0A 0B 0C 0D 0E 0F
      -- -- -- -- -- -- -- --  -- -- -- -- -- -- -- --
01D0:                          1F 00 2D 80 2E 80 04 80          ..-.....
01E0: 1F 01 1E 0A 40 0F 01 00                           ....@...        
```

#### Opcodes

```
  0: 0x01D8 [0x1F] MOVE_ENTITY: EventEntity moves to X=-60.374*, Z=93.443*, Y=8.199*
  1: 0x01E0 [0x1F] MOVE_ENTITY: Update entity position (mode=1)
  2: 0x01E2 [0x1E] EventEntity looks at Chocobo (ID: 17776650/0x010F400A) and starts talking
  3: 0x01E7 [0x00] END_REQSTACK()
```

### Event 65535.5

#### Metadata

| Field        | Value    |
|--------------|----------|
| Entrypoint   | 0x01E8   |
| Data Size    | 16 bytes |
| Instructions | 4        |

```
      00 01 02 03 04 05 06 07  08 09 0A 0B 0C 0D 0E 0F
      -- -- -- -- -- -- -- --  -- -- -- -- -- -- -- --
01E0:                          1F 00 2F 80 30 80 04 80          ../.0...
01F0: 1F 01 1E 0F 40 0F 01 00                           ....@...        
```

#### Opcodes

```
  0: 0x01E8 [0x1F] MOVE_ENTITY: EventEntity moves to X=-60.487*, Z=93.446*, Y=8.199*
  1: 0x01F0 [0x1F] MOVE_ENTITY: Update entity position (mode=1)
  2: 0x01F2 [0x1E] EventEntity looks at Dietmund (ID: 17776655/0x010F400F) and starts talking
  3: 0x01F7 [0x00] END_REQSTACK()
```

### Event 65535.6

#### Metadata

| Field        | Value    |
|--------------|----------|
| Entrypoint   | 0x01F8   |
| Data Size    | 17 bytes |
| Instructions | 5        |

```
      00 01 02 03 04 05 06 07  08 09 0A 0B 0C 0D 0E 0F
      -- -- -- -- -- -- -- --  -- -- -- -- -- -- -- --
01F0:                          1F 00 06 80 07 80 04 80          ........
0200: 1F 01 39 08 80 1C 31 80  00                       ..9...1..       
```

#### Opcodes

```
  0: 0x01F8 [0x1F] MOVE_ENTITY: EventEntity moves to X=-61.421*, Z=94.162*, Y=8.199*
  1: 0x0200 [0x1F] MOVE_ENTITY: Update entity position (mode=1)
  2: 0x0202 [0x39] SET_ENTITY_DIRECTION(direction=7.2°*)
  3: 0x0205 [0x1C] WAIT(60* ticks)
  4: 0x0208 [0x00] END_REQSTACK()
```

### Event 65535.7

#### Metadata

| Field        | Value    |
|--------------|----------|
| Entrypoint   | 0x0209   |
| Data Size    | 19 bytes |
| Instructions | 3        |

```
      00 01 02 03 04 05 06 07  08 09 0A 0B 0C 0D 0E 0F
      -- -- -- -- -- -- -- --  -- -- -- -- -- -- -- --
0200:                             5B 09 80 F8 FF FF 7F           [......
0210: F8 FF FF 7F 74 6C 6B 30  1C 31 80 00              ....tlk0.1..    
```

#### Opcodes

```
  0: 0x0209 [0x5B] LOAD_EXT_SCHEDULER: Load scheduler "tlk0" with entities [EventEntity, EventEntity], work=75*
  1: 0x0218 [0x1C] WAIT(60* ticks)
  2: 0x021B [0x00] END_REQSTACK()
```

### Event 65535.8

#### Metadata

| Field        | Value    |
|--------------|----------|
| Entrypoint   | 0x021C   |
| Data Size    | 19 bytes |
| Instructions | 3        |

```
      00 01 02 03 04 05 06 07  08 09 0A 0B 0C 0D 0E 0F
      -- -- -- -- -- -- -- --  -- -- -- -- -- -- -- --
0210:                                      5B 09 80 F8              [...
0220: FF FF 7F F8 FF FF 7F 74  68 6B 31 1C 32 80 00     .......thk1.2.. 
```

#### Opcodes

```
  0: 0x021C [0x5B] LOAD_EXT_SCHEDULER: Load scheduler "thk1" with entities [EventEntity, EventEntity], work=75*
  1: 0x022B [0x1C] WAIT(90* ticks)
  2: 0x022E [0x00] END_REQSTACK()
```

### Event 65535.9

#### Metadata

| Field        | Value    |
|--------------|----------|
| Entrypoint   | 0x022F   |
| Data Size    | 29 bytes |
| Instructions | 3        |

```
      00 01 02 03 04 05 06 07  08 09 0A 0B 0C 0D 0E 0F
      -- -- -- -- -- -- -- --  -- -- -- -- -- -- -- --
0220:                                               5B                 [
0230: 09 80 F8 FF FF 7F F8 FF  FF 7F 74 68 6B 32 53 F8  ..........thk2S.
0240: FF FF 7F F8 FF FF 7F 74  68 6B 32 00              .......thk2.    
```

#### Opcodes

```
  0: 0x022F [0x5B] LOAD_EXT_SCHEDULER: Load scheduler "thk2" with entities [EventEntity, EventEntity], work=75*
  1: 0x023E [0x53] WAIT_SCHEDULER_TASK: Wait for scheduler "thk2" with entities [EventEntity, EventEntity]
  2: 0x024B [0x00] END_REQSTACK()
```

### Event 65535.10

#### Metadata

| Field        | Value   |
|--------------|---------|
| Entrypoint   | 0x024C  |
| Data Size    | 9 bytes |
| Instructions | 3       |

```
      00 01 02 03 04 05 06 07  08 09 0A 0B 0C 0D 0E 0F
      -- -- -- -- -- -- -- --  -- -- -- -- -- -- -- --
0240:                                      5E 69 64 6C              ^idl
0250: 30 1C 31 80 00                                    0.1..           
```

#### Opcodes

```
  0: 0x024C [0x5E] EventEntity goes idle (kills current action) (animation: "idl0")
  1: 0x0251 [0x1C] WAIT(60* ticks)
  2: 0x0254 [0x00] END_REQSTACK()
```

### Event 65535.11

#### Metadata

| Field        | Value   |
|--------------|---------|
| Entrypoint   | 0x0255  |
| Data Size    | 1 bytes |
| Instructions | 1       |

```
      00 01 02 03 04 05 06 07  08 09 0A 0B 0C 0D 0E 0F
      -- -- -- -- -- -- -- --  -- -- -- -- -- -- -- --
0250:                00                                      .          
```

#### Opcodes

```
  0: 0x0255 [0x00] END_REQSTACK()
```

### Event 10139

#### Metadata

| Field        | Value   |
|--------------|---------|
| Entrypoint   | 0x0256  |
| Data Size    | 7 bytes |
| Instructions | 2       |

```
      00 01 02 03 04 05 06 07  08 09 0A 0B 0C 0D 0E 0F
      -- -- -- -- -- -- -- --  -- -- -- -- -- -- -- --
0250:                   92 01  F8 FF FF 7F 00                 .......   
```

#### Opcodes

```
  0: 0x0256 [0x92] EventEntity->Render.Flags3 ^= 0x01
  1: 0x025C [0x00] END_REQSTACK()
```

### Event 10214

#### Metadata

| Field        | Value   |
|--------------|---------|
| Entrypoint   | 0x025D  |
| Data Size    | 7 bytes |
| Instructions | 2       |

```
      00 01 02 03 04 05 06 07  08 09 0A 0B 0C 0D 0E 0F
      -- -- -- -- -- -- -- --  -- -- -- -- -- -- -- --
0250:                                         92 01 F8               ...
0260: FF FF 7F 00                                       ....            
```

#### Opcodes

```
  0: 0x025D [0x92] EventEntity->Render.Flags3 ^= 0x01
  1: 0x0263 [0x00] END_REQSTACK()
```

### Event 10215

#### Metadata

| Field        | Value   |
|--------------|---------|
| Entrypoint   | 0x0264  |
| Data Size    | 7 bytes |
| Instructions | 2       |

```
      00 01 02 03 04 05 06 07  08 09 0A 0B 0C 0D 0E 0F
      -- -- -- -- -- -- -- --  -- -- -- -- -- -- -- --
0260:             92 01 F8 FF  FF 7F 00                     .......     
```

#### Opcodes

```
  0: 0x0264 [0x92] EventEntity->Render.Flags3 ^= 0x01
  1: 0x026A [0x00] END_REQSTACK()
```

### Event 10151

#### Metadata

| Field        | Value   |
|--------------|---------|
| Entrypoint   | 0x026B  |
| Data Size    | 7 bytes |
| Instructions | 2       |

```
      00 01 02 03 04 05 06 07  08 09 0A 0B 0C 0D 0E 0F
      -- -- -- -- -- -- -- --  -- -- -- -- -- -- -- --
0260:                                   92 01 F8 FF FF             .....
0270: 7F 00                                             ..              
```

#### Opcodes

```
  0: 0x026B [0x92] EventEntity->Render.Flags3 ^= 0x01
  1: 0x0271 [0x00] END_REQSTACK()
```

### Event 10209

#### Metadata

| Field        | Value   |
|--------------|---------|
| Entrypoint   | 0x0272  |
| Data Size    | 7 bytes |
| Instructions | 2       |

```
      00 01 02 03 04 05 06 07  08 09 0A 0B 0C 0D 0E 0F
      -- -- -- -- -- -- -- --  -- -- -- -- -- -- -- --
0270:       92 01 F8 FF FF 7F  00                         .......       
```

#### Opcodes

```
  0: 0x0272 [0x92] EventEntity->Render.Flags3 ^= 0x01
  1: 0x0278 [0x00] END_REQSTACK()
```

### Event 10210

#### Metadata

| Field        | Value   |
|--------------|---------|
| Entrypoint   | 0x0279  |
| Data Size    | 7 bytes |
| Instructions | 2       |

```
      00 01 02 03 04 05 06 07  08 09 0A 0B 0C 0D 0E 0F
      -- -- -- -- -- -- -- --  -- -- -- -- -- -- -- --
0270:                             92 01 F8 FF FF 7F 00           .......
```

#### Opcodes

```
  0: 0x0279 [0x92] EventEntity->Render.Flags3 ^= 0x01
  1: 0x027F [0x00] END_REQSTACK()
```

### Event 10211

#### Metadata

| Field        | Value   |
|--------------|---------|
| Entrypoint   | 0x0280  |
| Data Size    | 7 bytes |
| Instructions | 2       |

```
      00 01 02 03 04 05 06 07  08 09 0A 0B 0C 0D 0E 0F
      -- -- -- -- -- -- -- --  -- -- -- -- -- -- -- --
0280: 92 01 F8 FF FF 7F 00                              .......         
```

#### Opcodes

```
  0: 0x0280 [0x92] EventEntity->Render.Flags3 ^= 0x01
  1: 0x0286 [0x00] END_REQSTACK()
```

### Event 10149

#### Metadata

| Field        | Value   |
|--------------|---------|
| Entrypoint   | 0x0287  |
| Data Size    | 7 bytes |
| Instructions | 2       |

```
      00 01 02 03 04 05 06 07  08 09 0A 0B 0C 0D 0E 0F
      -- -- -- -- -- -- -- --  -- -- -- -- -- -- -- --
0280:                      92  01 F8 FF FF 7F 00               .......  
```

#### Opcodes

```
  0: 0x0287 [0x92] EventEntity->Render.Flags3 ^= 0x01
  1: 0x028D [0x00] END_REQSTACK()
```

### Event 65535.12

#### Metadata

| Field        | Value    |
|--------------|----------|
| Entrypoint   | 0x028E   |
| Data Size    | 54 bytes |
| Instructions | 12       |

```
      00 01 02 03 04 05 06 07  08 09 0A 0B 0C 0D 0E 0F
      -- -- -- -- -- -- -- --  -- -- -- -- -- -- -- --
0280:                                            1C 33                .3
0290: 80 03 2D 10 34 80 32 01  80 1F 00 35 80 36 80 17  ..-.4.2....5.6..
02A0: 80 1F 01 1F 00 37 80 38  80 17 80 1F 01 1F 00 39  .....7.8.......9
02B0: 80 3A 80 17 80 1F 01 03  26 10 34 80 4B 0D 40 0F  .:......&.4.K.@.
02C0: 01 3B 80 00                                       .;..            
```

#### Opcodes

```
  0: 0x028E [0x1C] WAIT(900* ticks)
  1: 0x0291 [0x03] Work_Zone[45] = 1*
  2: 0x0296 [0x32] ExtData[1]->MainSpeed = 40* * 0.1
  3: 0x0299 [0x1F] MOVE_ENTITY: EventEntity moves to X=-58.524*, Z=102.593*, Y=0.000*
  4: 0x02A1 [0x1F] MOVE_ENTITY: Update entity position (mode=1)
  5: 0x02A3 [0x1F] MOVE_ENTITY: EventEntity moves to X=-60.360*, Z=101.623*, Y=0.000*
  6: 0x02AB [0x1F] MOVE_ENTITY: Update entity position (mode=1)
  7: 0x02AD [0x1F] MOVE_ENTITY: EventEntity moves to X=-60.123*, Z=100.970*, Y=0.000*
  8: 0x02B5 [0x1F] MOVE_ENTITY: Update entity position (mode=1)
  9: 0x02B7 [0x03] Work_Zone[38] = 1*
 10: 0x02BC [0x4B] UPDATE_ENTITY_YAW(entity=Osker (ID: 17776653/0x010F400D), yaw=3.5°*)
 11: 0x02C3 [0x00] END_REQSTACK()
```

### Event 65535.13

#### Metadata

| Field        | Value    |
|--------------|----------|
| Entrypoint   | 0x02C4   |
| Data Size    | 28 bytes |
| Instructions | 6        |

```
      00 01 02 03 04 05 06 07  08 09 0A 0B 0C 0D 0E 0F
      -- -- -- -- -- -- -- --  -- -- -- -- -- -- -- --
02C0:             32 01 80 1F  00 3C 80 3D 80 17 80 1F      2....<.=....
02D0: 01 4B 0D 40 0F 01 3B 80  27 05 0D 40 0F 01 36 00  .K.@..;.'..@..6.
```

#### Opcodes

```
  0: 0x02C4 [0x32] ExtData[1]->MainSpeed = 40* * 0.1
  1: 0x02C7 [0x1F] MOVE_ENTITY: EventEntity moves to X=-57.446*, Z=103.009*, Y=0.000*
  2: 0x02CF [0x1F] MOVE_ENTITY: Update entity position (mode=1)
  3: 0x02D1 [0x4B] UPDATE_ENTITY_YAW(entity=Osker (ID: 17776653/0x010F400D), yaw=3.5°*)
  4: 0x02D8 [0x27] REQ_SET(priority=0x05, entity_id=Osker (ID: 17776653/0x010F400D), tag_num=0x36)
  5: 0x02DF [0x00] END_REQSTACK()
```

### Event 10221

#### Metadata

| Field        | Value   |
|--------------|---------|
| Entrypoint   | 0x02E0  |
| Data Size    | 1 bytes |
| Instructions | 1       |

```
      00 01 02 03 04 05 06 07  08 09 0A 0B 0C 0D 0E 0F
      -- -- -- -- -- -- -- --  -- -- -- -- -- -- -- --
02E0: 00                                                .               
```

#### Opcodes

```
  0: 0x02E0 [0x00] END_REQSTACK()
```

### Event 10230

#### Metadata

| Field        | Value   |
|--------------|---------|
| Entrypoint   | 0x02E1  |
| Data Size    | 1 bytes |
| Instructions | 1       |

```
      00 01 02 03 04 05 06 07  08 09 0A 0B 0C 0D 0E 0F
      -- -- -- -- -- -- -- --  -- -- -- -- -- -- -- --
02E0:    00                                              .              
```

#### Opcodes

```
  0: 0x02E1 [0x00] END_REQSTACK()
```

### Event 10231

#### Metadata

| Field        | Value   |
|--------------|---------|
| Entrypoint   | 0x02E2  |
| Data Size    | 1 bytes |
| Instructions | 1       |

```
      00 01 02 03 04 05 06 07  08 09 0A 0B 0C 0D 0E 0F
      -- -- -- -- -- -- -- --  -- -- -- -- -- -- -- --
02E0:       00                                            .             
```

#### Opcodes

```
  0: 0x02E2 [0x00] END_REQSTACK()
```

### Event 10232

#### Metadata

| Field        | Value   |
|--------------|---------|
| Entrypoint   | 0x02E3  |
| Data Size    | 1 bytes |
| Instructions | 1       |

```
      00 01 02 03 04 05 06 07  08 09 0A 0B 0C 0D 0E 0F
      -- -- -- -- -- -- -- --  -- -- -- -- -- -- -- --
02E0:          00                                          .            
```

#### Opcodes

```
  0: 0x02E3 [0x00] END_REQSTACK()
```

### Event 10233

#### Metadata

| Field        | Value   |
|--------------|---------|
| Entrypoint   | 0x02E4  |
| Data Size    | 1 bytes |
| Instructions | 1       |

```
      00 01 02 03 04 05 06 07  08 09 0A 0B 0C 0D 0E 0F
      -- -- -- -- -- -- -- --  -- -- -- -- -- -- -- --
02E0:             00                                        .           
```

#### Opcodes

```
  0: 0x02E4 [0x00] END_REQSTACK()
```

### Event 10234

#### Metadata

| Field        | Value   |
|--------------|---------|
| Entrypoint   | 0x02E5  |
| Data Size    | 1 bytes |
| Instructions | 1       |

```
      00 01 02 03 04 05 06 07  08 09 0A 0B 0C 0D 0E 0F
      -- -- -- -- -- -- -- --  -- -- -- -- -- -- -- --
02E0:                00                                      .          
```

#### Opcodes

```
  0: 0x02E5 [0x00] END_REQSTACK()
```

### Event 65535.14

#### Metadata

| Field        | Value    |
|--------------|----------|
| Entrypoint   | 0x02E6   |
| Data Size    | 87 bytes |
| Instructions | 19       |

```
      00 01 02 03 04 05 06 07  08 09 0A 0B 0C 0D 0E 0F
      -- -- -- -- -- -- -- --  -- -- -- -- -- -- -- --
02E0:                   32 31  80 1C 3E 80 1F 00 3F 80        21..>...?.
02F0: 40 80 41 80 1F 01 1F 00  42 80 43 80 41 80 1F 01  @.A.....B.C.A...
0300: 1F 00 44 80 45 80 41 80  1F 01 1F 00 46 80 47 80  ..D.E.A.....F.G.
0310: 48 80 1F 01 1F 00 49 80  4A 80 17 80 1F 01 1F 00  H.....I.J.......
0320: 4B 80 4C 80 17 80 1F 01  1F 00 4D 80 4E 80 17 80  K.L.......M.N...
0330: 1F 01 1F 00 4F 80 50 80  17 80 1F 01 00           ....O.P......   
```

#### Opcodes

```
  0: 0x02E6 [0x32] ExtData[1]->MainSpeed = 60* * 0.1
  1: 0x02E9 [0x1C] WAIT(15* ticks)
  2: 0x02EC [0x1F] MOVE_ENTITY: EventEntity moves to X=-51.160*, Z=94.750*, Y=8.000*
  3: 0x02F4 [0x1F] MOVE_ENTITY: Update entity position (mode=1)
  4: 0x02F6 [0x1F] MOVE_ENTITY: EventEntity moves to X=-45.530*, Z=97.780*, Y=8.000*
  5: 0x02FE [0x1F] MOVE_ENTITY: Update entity position (mode=1)
  6: 0x0300 [0x1F] MOVE_ENTITY: EventEntity moves to X=-40.930*, Z=92.020*, Y=8.000*
  7: 0x0308 [0x1F] MOVE_ENTITY: Update entity position (mode=1)
  8: 0x030A [0x1F] MOVE_ENTITY: EventEntity moves to X=-43.190*, Z=85.670*, Y=7.700*
  9: 0x0312 [0x1F] MOVE_ENTITY: Update entity position (mode=1)
 10: 0x0314 [0x1F] MOVE_ENTITY: EventEntity moves to X=-59.100*, Z=76.510*, Y=0.000*
 11: 0x031C [0x1F] MOVE_ENTITY: Update entity position (mode=1)
 12: 0x031E [0x1F] MOVE_ENTITY: EventEntity moves to X=-64.080*, Z=78.410*, Y=0.000*
 13: 0x0326 [0x1F] MOVE_ENTITY: Update entity position (mode=1)
 14: 0x0328 [0x1F] MOVE_ENTITY: EventEntity moves to X=-69.220*, Z=92.070*, Y=0.000*
 15: 0x0330 [0x1F] MOVE_ENTITY: Update entity position (mode=1)
 16: 0x0332 [0x1F] MOVE_ENTITY: EventEntity moves to X=-66.820*, Z=120.920*, Y=0.000*
 17: 0x033A [0x1F] MOVE_ENTITY: Update entity position (mode=1)
 18: 0x033C [0x00] END_REQSTACK()
```
