# 17776641 - Monberaux

## Common Data

| Field            | Value                 |
|------------------|-----------------------|
| Zone             | Upper Jeuno (ID: 244) |
| Block Size       | 2288 bytes            |
| Total Events     | 80                    |
| References Count | 115                   |

## List of Events

| Event ID                   | Entrypoint   |   Size |   Instructions |
|----------------------------|--------------|--------|----------------|
| [65535](#event-65535)      | 0x0000       |     22 |              4 |
| [74](#event-74)            | 0x0016       |      7 |              2 |
| [10](#event-10)            | 0x001D       |      7 |              2 |
| [207](#event-207)          | 0x0024       |      7 |              2 |
| [82](#event-82)            | 0x002B       |      7 |              2 |
| [65535.1](#event-655351)   | 0x0032       |     16 |              4 |
| [75](#event-75)            | 0x0042       |      7 |              2 |
| [65535.2](#event-655352)   | 0x0049       |     29 |              7 |
| [9](#event-9)              | 0x0066       |     24 |              9 |
| [3](#event-3)              | 0x007E       |     20 |              7 |
| [4](#event-4)              | 0x0092       |     20 |              7 |
| [5](#event-5)              | 0x00A6       |     20 |              7 |
| [6](#event-6)              | 0x00BA       |     20 |              7 |
| [7](#event-7)              | 0x00CE       |     20 |              7 |
| [8](#event-8)              | 0x00E2       |     16 |              5 |
| [65535.3](#event-655353)   | 0x00F2       |     10 |              2 |
| [65535.4](#event-655354)   | 0x00FC       |     10 |              2 |
| [65535.5](#event-655355)   | 0x0106       |     14 |              4 |
| [65535.6](#event-655356)   | 0x0114       |     16 |              5 |
| [65535.7](#event-655357)   | 0x0124       |     22 |              5 |
| [2](#event-2)              | 0x013A       |     32 |              6 |
| [65535.8](#event-655358)   | 0x015A       |     25 |              5 |
| [65535.9](#event-655359)   | 0x0173       |     27 |              6 |
| [65535.10](#event-6553510) | 0x018E       |     12 |              4 |
| [65535.11](#event-6553511) | 0x019A       |     15 |              5 |
| [65535.12](#event-6553512) | 0x01A9       |      9 |              3 |
| [65535.13](#event-6553513) | 0x01B2       |     73 |             11 |
| [65535.14](#event-6553514) | 0x01FB       |     20 |              3 |
| [109](#event-109)          | 0x020F       |      1 |              1 |
| [28](#event-28)            | 0x0210       |     20 |              7 |
| [170](#event-170)          | 0x0224       |     19 |              7 |
| [169](#event-169)          | 0x0237       |     27 |             11 |
| [91](#event-91)            | 0x0252       |     42 |             15 |
| [33](#event-33)            | 0x027C       |      1 |              1 |
| [34](#event-34)            | 0x027D       |      1 |              1 |
| [32](#event-32)            | 0x027E       |     16 |              5 |
| [21](#event-21)            | 0x028E       |     20 |              7 |
| [31](#event-31)            | 0x02A2       |     16 |              5 |
| [65535.15](#event-6553515) | 0x02B2       |     10 |              2 |
| [65535.16](#event-6553516) | 0x02BC       |     31 |              7 |
| [65535.17](#event-6553517) | 0x02DB       |     10 |              2 |
| [106](#event-106)          | 0x02E5       |      1 |              1 |
| [65535.18](#event-6553518) | 0x02E6       |     21 |              5 |
| [65535.19](#event-6553519) | 0x02FB       |     13 |              3 |
| [65535.20](#event-6553520) | 0x0308       |     37 |              5 |
| [65535.21](#event-6553521) | 0x032D       |     67 |             11 |
| [65535.22](#event-6553522) | 0x0370       |     29 |              3 |
| [65535.23](#event-6553523) | 0x038D       |     29 |              3 |
| [65535.24](#event-6553524) | 0x03AA       |     29 |              3 |
| [65535.25](#event-6553525) | 0x03C7       |     19 |              3 |
| [65535.26](#event-6553526) | 0x03DA       |     29 |              3 |
| [65535.27](#event-6553527) | 0x03F7       |     29 |              3 |
| [65535.28](#event-6553528) | 0x0414       |      6 |              2 |
| [65535.29](#event-6553529) | 0x041A       |      1 |              1 |
| [10058](#event-10058)      | 0x041B       |      1 |              1 |
| [10059](#event-10059)      | 0x041C       |      1 |              1 |
| [65535.30](#event-6553530) | 0x041D       |     17 |              4 |
| [65535.31](#event-6553531) | 0x042E       |     62 |              9 |
| [65535.32](#event-6553532) | 0x046C       |     14 |              4 |
| [65535.33](#event-6553533) | 0x047A       |     14 |              3 |
| [10061](#event-10061)      | 0x0488       |      1 |              1 |
| [10062](#event-10062)      | 0x0489       |      1 |              1 |
| [10207](#event-10207)      | 0x048A       |      1 |              1 |
| [65535.34](#event-6553534) | 0x048B       |     14 |              4 |
| [65535.35](#event-6553535) | 0x0499       |     17 |              4 |
| [10072](#event-10072)      | 0x04AA       |      1 |              1 |
| [10190](#event-10190)      | 0x04AB       |      1 |              1 |
| [65535.36](#event-6553536) | 0x04AC       |     24 |              4 |
| [65535.37](#event-6553537) | 0x04C4       |     50 |              8 |
| [65535.38](#event-6553538) | 0x04F6       |     12 |              4 |
| [10237](#event-10237)      | 0x0502       |     26 |              7 |
| [10238](#event-10238)      | 0x051C       |     16 |              5 |
| [10239](#event-10239)      | 0x052C       |     16 |              5 |
| [10240](#event-10240)      | 0x053C       |     16 |              5 |
| [10241](#event-10241)      | 0x054C       |     26 |              7 |
| [10242](#event-10242)      | 0x0566       |     26 |              7 |
| [10243](#event-10243)      | 0x0580       |     26 |              7 |
| [10244](#event-10244)      | 0x059A       |     16 |              5 |
| [10245](#event-10245)      | 0x05AA       |     16 |              5 |
| [10246](#event-10246)      | 0x05BA       |     26 |              7 |

## DAT References (imed_data)

|   Index | Hex Value   |   Dec Value |
|---------|-------------|-------------|
|       0 | 0x000D      |          13 |
|       1 | 0xFFFF4956  |  4294920534 |
|       2 | 0x0777      |        1911 |
|       3 | 0xFFFFFE0D  |  4294966797 |
|       4 | 0x00F0      |         240 |
|       5 | 0xFFFF1C3F  |  4294908991 |
|       6 | 0xFFFFEBDE  |  4294962142 |
|       7 | 0xFFFFFE0C  |  4294966796 |
|       8 | 0xFFFF1920  |  4294908192 |
|       9 | 0xFFFFE669  |  4294960745 |
|      10 | 0x2041      |        8257 |
|      11 | 0x2042      |        8258 |
|      12 | 0x2043      |        8259 |
|      13 | 0x206C      |        8300 |
|      14 | 0x206D      |        8301 |
|      15 | 0x20A4      |        8356 |
|      16 | 0x20A5      |        8357 |
|      17 | 0x20CE      |        8398 |
|      18 | 0x20CF      |        8399 |
|      19 | 0x20D0      |        8400 |
|      20 | 0x20D1      |        8401 |
|      21 | 0x20D2      |        8402 |
|      22 | 0x20D3      |        8403 |
|      23 | 0x20D4      |        8404 |
|      24 | 0xFFFF22F8  |  4294910712 |
|      25 | 0xFFFFEB4F  |  4294961999 |
|      26 | 0x013E      |         318 |
|      27 | 0xFFFF187B  |  4294908027 |
|      28 | 0xFFFFF478  |  4294964344 |
|      29 | 0x02CA      |         714 |
|      30 | 0xFFFF2AD0  |  4294912720 |
|      31 | 0xFFFFE990  |  4294961552 |
|      32 | 0xFFFF0795  |  4294903701 |
|      33 | 0x31FF      |       12799 |
|      34 | 0x03E8      |        1000 |
|      35 | 0x0AAC      |        2732 |
|      36 | 0xFFFF20AF  |  4294910127 |
|      37 | 0xFFFFD754  |  4294956884 |
|      38 | 0x05EA      |        1514 |
|      39 | 0xFFFF1F05  |  4294909701 |
|      40 | 0xFFFFE754  |  4294960980 |
|      41 | 0x0078      |         120 |
|      42 | 0xFFFF1F7D  |  4294909821 |
|      43 | 0xFFFFE948  |  4294961480 |
|      44 | 0x0ADE      |        2782 |
|      45 | 0xFFFF195E  |  4294908254 |
|      46 | 0xFFFFF770  |  4294965104 |
|      47 | 0xFFFF2599  |  4294911385 |
|      48 | 0xFFFFFDBD  |  4294966717 |
|      49 | 0xFFFF0B31  |  4294904625 |
|      50 | 0x2A28      |       10792 |
|      51 | 0x2036      |        8246 |
|      52 | 0xFFFF440E  |  4294919182 |
|      53 | 0x093A      |        2362 |
|      54 | 0x005A      |          90 |
|      55 | 0xFFFF2B28  |  4294912808 |
|      56 | 0x006D      |         109 |
|      57 | 0x06BB      |        1723 |
|      58 | 0xFFFF1663  |  4294907491 |
|      59 | 0xFFFFF53E  |  4294964542 |
|      60 | 0x0047      |          71 |
|      61 | 0x0000      |           0 |
|      62 | 0xFFFF55C8  |  4294923720 |
|      63 | 0xFFFFFD68  |  4294966632 |
|      64 | 0x09B0      |        2480 |
|      65 | 0x1B69      |        7017 |
|      66 | 0x1B6A      |        7018 |
|      67 | 0x1B6B      |        7019 |
|      68 | 0x1B6C      |        7020 |
|      69 | 0x1B6D      |        7021 |
|      70 | 0x1B6E      |        7022 |
|      71 | 0x1B6F      |        7023 |
|      72 | 0x1B70      |        7024 |
|      73 | 0x1B5D      |        7005 |
|      74 | 0x1B5E      |        7006 |
|      75 | 0x1BA6      |        7078 |
|      76 | 0x1BA7      |        7079 |
|      77 | 0x1BA8      |        7080 |
|      78 | 0x1BA9      |        7081 |
|      79 | 0xFFFF1AC8  |  4294908616 |
|      80 | 0xFFFFF4C9  |  4294964425 |
|      81 | 0x0CFE      |        3326 |
|      82 | 0xFFFF1C68  |  4294909032 |
|      83 | 0xFFFFF0FC  |  4294963452 |
|      84 | 0xFFFF1C4A  |  4294909002 |
|      85 | 0xFFFFE90C  |  4294961420 |
|      86 | 0xFFFF1266  |  4294906470 |
|      87 | 0xFFFFE228  |  4294959656 |
|      88 | 0x0A0C      |        2572 |
|      89 | 0x003C      |          60 |
|      90 | 0x012F      |         303 |
|      91 | 0x0129      |         297 |
|      92 | 0xFFFF5A73  |  4294924915 |
|      93 | 0xFFFFF887  |  4294965383 |
|      94 | 0x092E      |        2350 |
|      95 | 0xFFFF56B6  |  4294923958 |
|      96 | 0xFFFFF4E6  |  4294964454 |
|      97 | 0xFFFF4F3A  |  4294922042 |
|      98 | 0xFFFFF679  |  4294964857 |
|      99 | 0xFFFF4F45  |  4294922053 |
|     100 | 0xFFFFF2DE  |  4294963934 |
|     101 | 0xFFFF48C9  |  4294920393 |
|     102 | 0xFFFFF080  |  4294963328 |
|     103 | 0x362D      |       13869 |
|     104 | 0x362E      |       13870 |
|     105 | 0x362F      |       13871 |
|     106 | 0x3630      |       13872 |
|     107 | 0x1031      |        4145 |
|     108 | 0x1030      |        4144 |
|     109 | 0x3631      |       13873 |
|     110 | 0x3632      |       13874 |
|     111 | 0x3633      |       13875 |
|     112 | 0x3634      |       13876 |
|     113 | 0x3635      |       13877 |
|     114 | 0x3636      |       13878 |

## String References

- **7005**: The petition is complete!
- **7006**: You have $0 more [signature/signatures] to go.
- **7017**: Why, hello there. Are you feeling all right? You seem well enough to me.
- **7018**: Remember to stop by if you're not feeling well.
- **7019**: Sorry for all the commotion at the embassy. Let me apologize. Wolfgang and I are old friends, and both of us are quite stubborn, I'm afraid. I hope you'll forgive me.
- **7020**: The ambassador has returned? I shall stop by for a check up later.
- **7021**: The ambassador comes by often. It must be stressful knowing that international relations hinge upon your performance.
- **7022**: Take care of yourself, all right? You're always welcome as a friend, but I don't like seeing you as a patient.
- **7023**: The clock tower? Of course I object! Every time its bells ring, the town feels so alive. I shall sign the petition, too.
- **7024**: Galmut used to come all the time. He'd limp in here after each fight so I could tend to his wounds. He was quite a little crybaby, too!
- **7078**: All you need to do is take the Cardian to the Manustery in Windurst. I wish you luck, friend.
- **7079**: Oh, so you made it to the Manustery with that Cardian. You have my thanks. The rest depends on him, I suppose.
- **7080**: I hope he does not forget all the happy times he spent with that kind Tarutaru family.
- **7081**: Oh, so he got back home safe. He is yet another victim of the tragedy of war. But...now, now...he should be fine... Just fine.
- **8257**: From a medical standpoint, it's a miracle the boy woke up at all. I cannot explain it...
- **8258**: Why does Wolfgang need to speak with him so desperately?
- **8259**: Perhaps you should visit the Ru'Lude Gardens. I've a feeling the situation up there may be even tenser than it is here.
- **8300**: I wonder if there might be some connection between the boy and that young lady, Prishe.
- **8301**: According to the rumors among the Ducal Guard, someone saw him in the central tower of the northern ruins of Pso'Xja. However, to enter the deeper parts of those towers, permission from Tenshodo is necessary...
- **8356**: I'm delighted to see my young patient fully recovered. She's awfully energetic when conscious, isn't she?
- **8357**: It appears our visitors have returned to Tavnazia. I admit being most surprised to hear the nation still existed.
- **8398**: The boy first appeared in Delkfutt's Tower. On the first floor of the tower, there is a large doorway that leads into the deeper areas of the structure...
- **8399**: Wolfgang will know how to open the door that lies beyond. Take this envelope to the palace guard post. I will be praying for your success, <Player>.
- **8400**: I see by his reaction that Wolfgang understood the meaning of the map.
- **8401**: Where should you go? Hah hah. That's a secret, <Player>. Though, if you think hard enough, I feel you will come to understand.
- **8402**: I knew all along Wolfgang would come. He is a good man, despite being a little stubborn. Now hurry to Delkfutt's Tower. Tenzen should already be on his way.
- **8403**: Somewhere on the first floor there is a large doorway that leads to the basement of the tower. The key you received from Wolfgang will open that door.
- **8404**: Wolfgang should not be giving you any more problems. I think he has finally started to realize what is truly important in this world.
- **13869**: Even a small donation of $0 gil would allow me to provide medicine to any patient who may need it.
- **13870**: Thank you so much for your donation. This will save many a life in these trying times.
- **13871**: Thank you so much for your donation. This will save many a life in these trying times.B
- **13872**: Your recent donation is more than sufficient for the time being. Perhaps I will run out and request your services again later.
- **13873**: Would you happen to be in possession of any $0 or $1? I require some to further my research, but they can be quite expensive to procure on my own.
- **13874**: Thank you very much for the $0 and $1. I'm sure the fruits of my research will be reflected in my alter ego's capabilities.
- **13875**: Thank you very much for the $0. I'm sure the fruits of my research will be reflected in my alter ego's capabilities.
- **13876**: Thank you very much for such expensive medicines. I'm sure the fruits of my research will be reflected in my alter ego's capabilities.
- **13877**: I should have more than enough concoctions for my current needs.
- **13878**: I should have more than enough $0 for my current needs.

## Events

### Event 65535

#### Metadata

| Field        | Value    |
|--------------|----------|
| Entrypoint   | 0x0000   |
| Data Size    | 22 bytes |
| Instructions | 4        |

```
      00 01 02 03 04 05 06 07  08 09 0A 0B 0C 0D 0E 0F
      -- -- -- -- -- -- -- --  -- -- -- -- -- -- -- --
0000: 3B F8 FF FF 7F 00 00 01  00 02 00 3A F8 FF FF 7F  ;..........:....
0010: 03 00 32 00 80 00                                 ..2...          
```

#### Opcodes

```
  0: 0x0000 [0x3B] GET_ENTITY_POSITION(entity=EventEntity, x_destination=ExtData[1]->WorkLocal[0], y_destination=ExtData[1]->WorkLocal[1], z_destination=ExtData[1]->WorkLocal[2])
  1: 0x000B [0x3A] CONVERT_YAW_TO_BYTE(entity=EventEntity, result_destination=ExtData[1]->WorkLocal[3])
  2: 0x0012 [0x32] ExtData[1]->MainSpeed = 13* * 0.1
  3: 0x0015 [0x00] END_REQSTACK()
```

### Event 74

#### Metadata

| Field        | Value   |
|--------------|---------|
| Entrypoint   | 0x0016  |
| Data Size    | 7 bytes |
| Instructions | 2       |

```
      00 01 02 03 04 05 06 07  08 09 0A 0B 0C 0D 0E 0F
      -- -- -- -- -- -- -- --  -- -- -- -- -- -- -- --
0010:                   94 01  F8 FF FF 7F 00                 .......   
```

#### Opcodes

```
  0: 0x0016 [0x94] EventEntity->Render.Flags3 ^= 0x01
  1: 0x001C [0x00] END_REQSTACK()
```

### Event 10

#### Metadata

| Field        | Value   |
|--------------|---------|
| Entrypoint   | 0x001D  |
| Data Size    | 7 bytes |
| Instructions | 2       |

```
      00 01 02 03 04 05 06 07  08 09 0A 0B 0C 0D 0E 0F
      -- -- -- -- -- -- -- --  -- -- -- -- -- -- -- --
0010:                                         94 01 F8               ...
0020: FF FF 7F 00                                       ....            
```

#### Opcodes

```
  0: 0x001D [0x94] EventEntity->Render.Flags3 ^= 0x01
  1: 0x0023 [0x00] END_REQSTACK()
```

### Event 207

#### Metadata

| Field        | Value   |
|--------------|---------|
| Entrypoint   | 0x0024  |
| Data Size    | 7 bytes |
| Instructions | 2       |

```
      00 01 02 03 04 05 06 07  08 09 0A 0B 0C 0D 0E 0F
      -- -- -- -- -- -- -- --  -- -- -- -- -- -- -- --
0020:             94 01 F8 FF  FF 7F 00                     .......     
```

#### Opcodes

```
  0: 0x0024 [0x94] EventEntity->Render.Flags3 ^= 0x01
  1: 0x002A [0x00] END_REQSTACK()
```

### Event 82

#### Metadata

| Field        | Value   |
|--------------|---------|
| Entrypoint   | 0x002B  |
| Data Size    | 7 bytes |
| Instructions | 2       |

```
      00 01 02 03 04 05 06 07  08 09 0A 0B 0C 0D 0E 0F
      -- -- -- -- -- -- -- --  -- -- -- -- -- -- -- --
0020:                                   94 01 F8 FF FF             .....
0030: 7F 00                                             ..              
```

#### Opcodes

```
  0: 0x002B [0x94] EventEntity->Render.Flags3 ^= 0x01
  1: 0x0031 [0x00] END_REQSTACK()
```

### Event 65535.1

#### Metadata

| Field        | Value    |
|--------------|----------|
| Entrypoint   | 0x0032   |
| Data Size    | 16 bytes |
| Instructions | 4        |

```
      00 01 02 03 04 05 06 07  08 09 0A 0B 0C 0D 0E 0F
      -- -- -- -- -- -- -- --  -- -- -- -- -- -- -- --
0030:       32 00 80 31 00 01  80 02 80 03 80 04 80 31    2..1.........1
0040: 01 00                                             ..              
```

#### Opcodes

```
  0: 0x0032 [0x32] ExtData[1]->MainSpeed = 13* * 0.1
  1: 0x0035 [0x31] UPDATE_ENTITY_POSITION: Set EventEntity goal position to X=-46.762*, Z=1.911*, Y=-0.499*, Time=240*
  2: 0x003F [0x31] UPDATE_ENTITY_POSITION: Move EventEntity towards goal position
  3: 0x0041 [0x00] END_REQSTACK()
```

### Event 75

#### Metadata

| Field        | Value   |
|--------------|---------|
| Entrypoint   | 0x0042  |
| Data Size    | 7 bytes |
| Instructions | 2       |

```
      00 01 02 03 04 05 06 07  08 09 0A 0B 0C 0D 0E 0F
      -- -- -- -- -- -- -- --  -- -- -- -- -- -- -- --
0040:       94 01 F8 FF FF 7F  00                         .......       
```

#### Opcodes

```
  0: 0x0042 [0x94] EventEntity->Render.Flags3 ^= 0x01
  1: 0x0048 [0x00] END_REQSTACK()
```

### Event 65535.2

#### Metadata

| Field        | Value    |
|--------------|----------|
| Entrypoint   | 0x0049   |
| Data Size    | 29 bytes |
| Instructions | 7        |

```
      00 01 02 03 04 05 06 07  08 09 0A 0B 0C 0D 0E 0F
      -- -- -- -- -- -- -- --  -- -- -- -- -- -- -- --
0040:                             32 00 80 1F 00 05 80           2......
0050: 06 80 07 80 1F 01 1F 00  08 80 09 80 07 80 1F 01  ................
0060: 1E 40 40 0F 01 00                                 .@@...          
```

#### Opcodes

```
  0: 0x0049 [0x32] ExtData[1]->MainSpeed = 13* * 0.1
  1: 0x004C [0x1F] MOVE_ENTITY: EventEntity moves to X=-58.305*, Z=-5.154*, Y=-0.500*
  2: 0x0054 [0x1F] MOVE_ENTITY: Update entity position (mode=1)
  3: 0x0056 [0x1F] MOVE_ENTITY: EventEntity moves to X=-59.104*, Z=-6.551*, Y=-0.500*
  4: 0x005E [0x1F] MOVE_ENTITY: Update entity position (mode=1)
  5: 0x0060 [0x1E] EventEntity looks at Prishe (ID: 17776704/0x010F4040) and starts talking
  6: 0x0065 [0x00] END_REQSTACK()
```

### Event 9

#### Metadata

| Field        | Value    |
|--------------|----------|
| Entrypoint   | 0x0066   |
| Data Size    | 24 bytes |
| Instructions | 9        |

```
      00 01 02 03 04 05 06 07  08 09 0A 0B 0C 0D 0E 0F
      -- -- -- -- -- -- -- --  -- -- -- -- -- -- -- --
0060:                   79 00  F8 FF FF 7F F0 FF FF 7F        y.........
0070: 1D 0A 80 23 1D 0B 80 23  1D 0C 80 23 21 00        ...#...#...#!.  
```

#### Opcodes

```
  0: 0x0066 [0x79] EventEntity looks at LocalPlayer (Basic look)
  1: 0x0070 [0x1D] PRINT_EVENT_MESSAGE(message_id=8257*)
    → "From a medical standpoint, it's a miracle the boy woke up at all. I cannot explain it..."
  2: 0x0073 [0x23] WAIT_FOR_DIALOG_INTERACTION
  3: 0x0074 [0x1D] PRINT_EVENT_MESSAGE(message_id=8258*)
    → "Why does Wolfgang need to speak with him so desperately?"
  4: 0x0077 [0x23] WAIT_FOR_DIALOG_INTERACTION
  5: 0x0078 [0x1D] PRINT_EVENT_MESSAGE(message_id=8259*)
    → "Perhaps you should visit the Ru'Lude Gardens. I've a feeling the situation up there may be even tenser than it is here."
  6: 0x007B [0x23] WAIT_FOR_DIALOG_INTERACTION
  7: 0x007C [0x21] END_EVENT
  8: 0x007D [0x00] END_REQSTACK()
```

### Event 3

#### Metadata

| Field        | Value    |
|--------------|----------|
| Entrypoint   | 0x007E   |
| Data Size    | 20 bytes |
| Instructions | 7        |

```
      00 01 02 03 04 05 06 07  08 09 0A 0B 0C 0D 0E 0F
      -- -- -- -- -- -- -- --  -- -- -- -- -- -- -- --
0070:                                            79 00                y.
0080: F8 FF FF 7F F0 FF FF 7F  1D 0D 80 23 1D 0E 80 23  ...........#...#
0090: 21 00                                             !.              
```

#### Opcodes

```
  0: 0x007E [0x79] EventEntity looks at LocalPlayer (Basic look)
  1: 0x0088 [0x1D] PRINT_EVENT_MESSAGE(message_id=8300*)
    → "I wonder if there might be some connection between the boy and that young lady, Prishe."
  2: 0x008B [0x23] WAIT_FOR_DIALOG_INTERACTION
  3: 0x008C [0x1D] PRINT_EVENT_MESSAGE(message_id=8301*)
    → "According to the rumors among the Ducal Guard, someone saw him in the central tower of the northern ruins of Pso'Xja. However, to enter the deeper parts of those towers, permission from Tenshodo is necessary..."
  4: 0x008F [0x23] WAIT_FOR_DIALOG_INTERACTION
  5: 0x0090 [0x21] END_EVENT
  6: 0x0091 [0x00] END_REQSTACK()
```

### Event 4

#### Metadata

| Field        | Value    |
|--------------|----------|
| Entrypoint   | 0x0092   |
| Data Size    | 20 bytes |
| Instructions | 7        |

```
      00 01 02 03 04 05 06 07  08 09 0A 0B 0C 0D 0E 0F
      -- -- -- -- -- -- -- --  -- -- -- -- -- -- -- --
0090:       79 00 F8 FF FF 7F  F0 FF FF 7F 1D 0F 80 23    y............#
00A0: 1D 10 80 23 21 00                                 ...#!.          
```

#### Opcodes

```
  0: 0x0092 [0x79] EventEntity looks at LocalPlayer (Basic look)
  1: 0x009C [0x1D] PRINT_EVENT_MESSAGE(message_id=8356*)
    → "I'm delighted to see my young patient fully recovered. She's awfully energetic when conscious, isn't she?"
  2: 0x009F [0x23] WAIT_FOR_DIALOG_INTERACTION
  3: 0x00A0 [0x1D] PRINT_EVENT_MESSAGE(message_id=8357*)
    → "It appears our visitors have returned to Tavnazia. I admit being most surprised to hear the nation still existed."
  4: 0x00A3 [0x23] WAIT_FOR_DIALOG_INTERACTION
  5: 0x00A4 [0x21] END_EVENT
  6: 0x00A5 [0x00] END_REQSTACK()
```

### Event 5

#### Metadata

| Field        | Value    |
|--------------|----------|
| Entrypoint   | 0x00A6   |
| Data Size    | 20 bytes |
| Instructions | 7        |

```
      00 01 02 03 04 05 06 07  08 09 0A 0B 0C 0D 0E 0F
      -- -- -- -- -- -- -- --  -- -- -- -- -- -- -- --
00A0:                   79 00  F8 FF FF 7F F0 FF FF 7F        y.........
00B0: 1D 11 80 23 1D 12 80 23  21 00                    ...#...#!.      
```

#### Opcodes

```
  0: 0x00A6 [0x79] EventEntity looks at LocalPlayer (Basic look)
  1: 0x00B0 [0x1D] PRINT_EVENT_MESSAGE(message_id=8398*)
    → "The boy first appeared in Delkfutt's Tower. On the first floor of the tower, there is a large doorway that leads into the deeper areas of the structure..."
  2: 0x00B3 [0x23] WAIT_FOR_DIALOG_INTERACTION
  3: 0x00B4 [0x1D] PRINT_EVENT_MESSAGE(message_id=8399*)
    → "Wolfgang will know how to open the door that lies beyond. Take this envelope to the palace guard post. I will be praying for your success, <Player>."
  4: 0x00B7 [0x23] WAIT_FOR_DIALOG_INTERACTION
  5: 0x00B8 [0x21] END_EVENT
  6: 0x00B9 [0x00] END_REQSTACK()
```

### Event 6

#### Metadata

| Field        | Value    |
|--------------|----------|
| Entrypoint   | 0x00BA   |
| Data Size    | 20 bytes |
| Instructions | 7        |

```
      00 01 02 03 04 05 06 07  08 09 0A 0B 0C 0D 0E 0F
      -- -- -- -- -- -- -- --  -- -- -- -- -- -- -- --
00B0:                                79 00 F8 FF FF 7F            y.....
00C0: F0 FF FF 7F 1D 13 80 23  1D 14 80 23 21 00        .......#...#!.  
```

#### Opcodes

```
  0: 0x00BA [0x79] EventEntity looks at LocalPlayer (Basic look)
  1: 0x00C4 [0x1D] PRINT_EVENT_MESSAGE(message_id=8400*)
    → "I see by his reaction that Wolfgang understood the meaning of the map."
  2: 0x00C7 [0x23] WAIT_FOR_DIALOG_INTERACTION
  3: 0x00C8 [0x1D] PRINT_EVENT_MESSAGE(message_id=8401*)
    → "Where should you go? Hah hah. That's a secret, <Player>. Though, if you think hard enough, I feel you will come to understand."
  4: 0x00CB [0x23] WAIT_FOR_DIALOG_INTERACTION
  5: 0x00CC [0x21] END_EVENT
  6: 0x00CD [0x00] END_REQSTACK()
```

### Event 7

#### Metadata

| Field        | Value    |
|--------------|----------|
| Entrypoint   | 0x00CE   |
| Data Size    | 20 bytes |
| Instructions | 7        |

```
      00 01 02 03 04 05 06 07  08 09 0A 0B 0C 0D 0E 0F
      -- -- -- -- -- -- -- --  -- -- -- -- -- -- -- --
00C0:                                            79 00                y.
00D0: F8 FF FF 7F F0 FF FF 7F  1D 15 80 23 1D 16 80 23  ...........#...#
00E0: 21 00                                             !.              
```

#### Opcodes

```
  0: 0x00CE [0x79] EventEntity looks at LocalPlayer (Basic look)
  1: 0x00D8 [0x1D] PRINT_EVENT_MESSAGE(message_id=8402*)
    → "I knew all along Wolfgang would come. He is a good man, despite being a little stubborn. Now hurry to Delkfutt's Tower. Tenzen should already be on his way."
  2: 0x00DB [0x23] WAIT_FOR_DIALOG_INTERACTION
  3: 0x00DC [0x1D] PRINT_EVENT_MESSAGE(message_id=8403*)
    → "Somewhere on the first floor there is a large doorway that leads to the basement of the tower. The key you received from Wolfgang will open that door."
  4: 0x00DF [0x23] WAIT_FOR_DIALOG_INTERACTION
  5: 0x00E0 [0x21] END_EVENT
  6: 0x00E1 [0x00] END_REQSTACK()
```

### Event 8

#### Metadata

| Field        | Value    |
|--------------|----------|
| Entrypoint   | 0x00E2   |
| Data Size    | 16 bytes |
| Instructions | 5        |

```
      00 01 02 03 04 05 06 07  08 09 0A 0B 0C 0D 0E 0F
      -- -- -- -- -- -- -- --  -- -- -- -- -- -- -- --
00E0:       79 00 F8 FF FF 7F  F0 FF FF 7F 1D 17 80 23    y............#
00F0: 21 00                                             !.              
```

#### Opcodes

```
  0: 0x00E2 [0x79] EventEntity looks at LocalPlayer (Basic look)
  1: 0x00EC [0x1D] PRINT_EVENT_MESSAGE(message_id=8404*)
    → "Wolfgang should not be giving you any more problems. I think he has finally started to realize what is truly important in this world."
  2: 0x00EF [0x23] WAIT_FOR_DIALOG_INTERACTION
  3: 0x00F0 [0x21] END_EVENT
  4: 0x00F1 [0x00] END_REQSTACK()
```

### Event 65535.3

#### Metadata

| Field        | Value    |
|--------------|----------|
| Entrypoint   | 0x00F2   |
| Data Size    | 10 bytes |
| Instructions | 2        |

```
      00 01 02 03 04 05 06 07  08 09 0A 0B 0C 0D 0E 0F
      -- -- -- -- -- -- -- --  -- -- -- -- -- -- -- --
00F0:       37 18 80 19 80 07  80 1A 80 00                7.........    
```

#### Opcodes

```
  0: 0x00F2 [0x37] UPDATE_EVENT_POSITION_AND_DIR: x=-56.584*, z=-5.297*, y=-0.500*, direction=27.9°*
  1: 0x00FB [0x00] END_REQSTACK()
```

### Event 65535.4

#### Metadata

| Field        | Value    |
|--------------|----------|
| Entrypoint   | 0x00FC   |
| Data Size    | 10 bytes |
| Instructions | 2        |

```
      00 01 02 03 04 05 06 07  08 09 0A 0B 0C 0D 0E 0F
      -- -- -- -- -- -- -- --  -- -- -- -- -- -- -- --
00F0:                                      37 1B 80 1C              7...
0100: 80 07 80 1D 80 00                                 ......          
```

#### Opcodes

```
  0: 0x00FC [0x37] UPDATE_EVENT_POSITION_AND_DIR: x=-59.269*, z=-2.952*, y=-0.500*, direction=62.8°*
  1: 0x0105 [0x00] END_REQSTACK()
```

### Event 65535.5

#### Metadata

| Field        | Value    |
|--------------|----------|
| Entrypoint   | 0x0106   |
| Data Size    | 14 bytes |
| Instructions | 4        |

```
      00 01 02 03 04 05 06 07  08 09 0A 0B 0C 0D 0E 0F
      -- -- -- -- -- -- -- --  -- -- -- -- -- -- -- --
0100:                   32 00  80 1F 00 1E 80 1F 80 07        2.........
0110: 80 1F 01 00                                       ....            
```

#### Opcodes

```
  0: 0x0106 [0x32] ExtData[1]->MainSpeed = 13* * 0.1
  1: 0x0109 [0x1F] MOVE_ENTITY: EventEntity moves to X=-54.576*, Z=-5.744*, Y=-0.500*
  2: 0x0111 [0x1F] MOVE_ENTITY: Update entity position (mode=1)
  3: 0x0113 [0x00] END_REQSTACK()
```

### Event 65535.6

#### Metadata

| Field        | Value    |
|--------------|----------|
| Entrypoint   | 0x0114   |
| Data Size    | 16 bytes |
| Instructions | 5        |

```
      00 01 02 03 04 05 06 07  08 09 0A 0B 0C 0D 0E 0F
      -- -- -- -- -- -- -- --  -- -- -- -- -- -- -- --
0110:             32 00 80 1F  00 01 80 02 80 03 80 1F      2...........
0120: 01 22 01 00                                       ."..            
```

#### Opcodes

```
  0: 0x0114 [0x32] ExtData[1]->MainSpeed = 13* * 0.1
  1: 0x0117 [0x1F] MOVE_ENTITY: EventEntity moves to X=-46.762*, Z=1.911*, Y=-0.499*
  2: 0x011F [0x1F] MOVE_ENTITY: Update entity position (mode=1)
  3: 0x0121 [0x22] ENTITY_HIDE_FLAG(enabled=0x01)
  4: 0x0123 [0x00] END_REQSTACK()
```

### Event 65535.7

#### Metadata

| Field        | Value    |
|--------------|----------|
| Entrypoint   | 0x0124   |
| Data Size    | 22 bytes |
| Instructions | 5        |

```
      00 01 02 03 04 05 06 07  08 09 0A 0B 0C 0D 0E 0F
      -- -- -- -- -- -- -- --  -- -- -- -- -- -- -- --
0120:             22 00 37 20  80 21 80 22 80 23 80 5E      ".7 .!.".#.^
0130: 69 64 6C 30 1E 3A 40 0F  01 00                    idl0.:@...      
```

#### Opcodes

```
  0: 0x0124 [0x22] ENTITY_HIDE_FLAG(enabled=0x00)
  1: 0x0126 [0x37] UPDATE_EVENT_POSITION_AND_DIR: x=-63.595*, z=12.799*, y=1.000*, direction=240.1°*
  2: 0x012F [0x5E] EventEntity goes idle (kills current action) (animation: "idl0")
  3: 0x0134 [0x1E] EventEntity looks at Nag'molada (ID: 17776698/0x010F403A) and starts talking
  4: 0x0139 [0x00] END_REQSTACK()
```

### Event 2

#### Metadata

| Field        | Value    |
|--------------|----------|
| Entrypoint   | 0x013A   |
| Data Size    | 32 bytes |
| Instructions | 6        |

```
      00 01 02 03 04 05 06 07  08 09 0A 0B 0C 0D 0E 0F
      -- -- -- -- -- -- -- --  -- -- -- -- -- -- -- --
0130:                                92 01 F8 FF FF 7F            ......
0140: 94 01 F8 FF FF 7F 37 24  80 25 80 07 80 26 80 80  ......7$.%...&..
0150: F8 FF FF 7F 5E 69 64 6C  30 00                    ....^idl0.      
```

#### Opcodes

```
  0: 0x013A [0x92] EventEntity->Render.Flags3 ^= 0x01
  1: 0x0140 [0x94] EventEntity->Render.Flags3 ^= 0x01
  2: 0x0146 [0x37] UPDATE_EVENT_POSITION_AND_DIR: x=-57.169*, z=-10.412*, y=-0.500*, direction=133.1°*
  3: 0x014F [0x80] LOAD_WAIT(entity=EventEntity)
  4: 0x0154 [0x5E] EventEntity goes idle (kills current action) (animation: "idl0")
  5: 0x0159 [0x00] END_REQSTACK()
```

### Event 65535.8

#### Metadata

| Field        | Value    |
|--------------|----------|
| Entrypoint   | 0x015A   |
| Data Size    | 25 bytes |
| Instructions | 5        |

```
      00 01 02 03 04 05 06 07  08 09 0A 0B 0C 0D 0E 0F
      -- -- -- -- -- -- -- --  -- -- -- -- -- -- -- --
0150:                                32 00 80 31 00 27            2..1.'
0160: 80 28 80 07 80 29 80 31  01 37 2A 80 2B 80 07 80  .(...).1.7*.+...
0170: 2C 80 00                                          ,..             
```

#### Opcodes

```
  0: 0x015A [0x32] ExtData[1]->MainSpeed = 13* * 0.1
  1: 0x015D [0x31] UPDATE_ENTITY_POSITION: Set EventEntity goal position to X=-57.595*, Z=-6.316*, Y=-0.500*, Time=120*
  2: 0x0167 [0x31] UPDATE_ENTITY_POSITION: Move EventEntity towards goal position
  3: 0x0169 [0x37] UPDATE_EVENT_POSITION_AND_DIR: x=-57.475*, z=-5.816*, y=-0.500*, direction=244.5°*
  4: 0x0172 [0x00] END_REQSTACK()
```

### Event 65535.9

#### Metadata

| Field        | Value    |
|--------------|----------|
| Entrypoint   | 0x0173   |
| Data Size    | 27 bytes |
| Instructions | 6        |

```
      00 01 02 03 04 05 06 07  08 09 0A 0B 0C 0D 0E 0F
      -- -- -- -- -- -- -- --  -- -- -- -- -- -- -- --
0170:          79 00 F8 FF FF  7F 08 40 0F 01 1F 00 2D     y......@....-
0180: 80 2E 80 07 80 1F 01 6F  1E 08 40 0F 01 00        .......o..@...  
```

#### Opcodes

```
  0: 0x0173 [0x79] EventEntity looks at Wolfgang (ID: 17776648/0x010F4008) (Basic look)
  1: 0x017D [0x1F] MOVE_ENTITY: EventEntity moves to X=-59.042*, Z=-2.192*, Y=-0.500*
  2: 0x0185 [0x1F] MOVE_ENTITY: Update entity position (mode=1)
  3: 0x0187 [0x6F] WAIT_FRAME_DELAY: Yield until WaitTime reaches zero
  4: 0x0188 [0x1E] EventEntity looks at Wolfgang (ID: 17776648/0x010F4008) and starts talking
  5: 0x018D [0x00] END_REQSTACK()
```

### Event 65535.10

#### Metadata

| Field        | Value    |
|--------------|----------|
| Entrypoint   | 0x018E   |
| Data Size    | 12 bytes |
| Instructions | 4        |

```
      00 01 02 03 04 05 06 07  08 09 0A 0B 0C 0D 0E 0F
      -- -- -- -- -- -- -- --  -- -- -- -- -- -- -- --
0180:                                            1F 00                ..
0190: 2F 80 30 80 07 80 1F 01  6F 00                    /.0.....o.      
```

#### Opcodes

```
  0: 0x018E [0x1F] MOVE_ENTITY: EventEntity moves to X=-55.911*, Z=-0.579*, Y=-0.500*
  1: 0x0196 [0x1F] MOVE_ENTITY: Update entity position (mode=1)
  2: 0x0198 [0x6F] WAIT_FRAME_DELAY: Yield until WaitTime reaches zero
  3: 0x0199 [0x00] END_REQSTACK()
```

### Event 65535.11

#### Metadata

| Field        | Value    |
|--------------|----------|
| Entrypoint   | 0x019A   |
| Data Size    | 15 bytes |
| Instructions | 5        |

```
      00 01 02 03 04 05 06 07  08 09 0A 0B 0C 0D 0E 0F
      -- -- -- -- -- -- -- --  -- -- -- -- -- -- -- --
0190:                                32 00 80 1F 00 31            2....1
01A0: 80 32 80 22 80 1F 01 6F  00                       .2."...o.       
```

#### Opcodes

```
  0: 0x019A [0x32] ExtData[1]->MainSpeed = 13* * 0.1
  1: 0x019D [0x1F] MOVE_ENTITY: EventEntity moves to X=-62.671*, Z=10.792*, Y=1.000*
  2: 0x01A5 [0x1F] MOVE_ENTITY: Update entity position (mode=1)
  3: 0x01A7 [0x6F] WAIT_FRAME_DELAY: Yield until WaitTime reaches zero
  4: 0x01A8 [0x00] END_REQSTACK()
```

### Event 65535.12

#### Metadata

| Field        | Value   |
|--------------|---------|
| Entrypoint   | 0x01A9  |
| Data Size    | 9 bytes |
| Instructions | 3       |

```
      00 01 02 03 04 05 06 07  08 09 0A 0B 0C 0D 0E 0F
      -- -- -- -- -- -- -- --  -- -- -- -- -- -- -- --
01A0:                             2B 3F 40 0F 01 33 80           +?@..3.
01B0: 23 00                                             #.              
```

#### Opcodes

```
  0: 0x01A9 [0x2B] Crooked Arrow (ID: 17776703/0x010F403F) [8246*]:
    → "He... He just vanished!"
  1: 0x01B0 [0x23] WAIT_FOR_DIALOG_INTERACTION
  2: 0x01B1 [0x00] END_REQSTACK()
```

### Event 65535.13

#### Metadata

| Field        | Value    |
|--------------|----------|
| Entrypoint   | 0x01B2   |
| Data Size    | 73 bytes |
| Instructions | 11       |

```
      00 01 02 03 04 05 06 07  08 09 0A 0B 0C 0D 0E 0F
      -- -- -- -- -- -- -- --  -- -- -- -- -- -- -- --
01B0:       32 00 80 31 00 34  80 35 80 03 80 36 80 31    2..1.4.5...6.1
01C0: 01 37 37 80 38 80 07 80  39 80 1F 00 3A 80 3B 80  .77.8...9...:.;.
01D0: 07 80 1F 01 6F 52 3C 80  F0 FF FF 7F F0 FF FF 7F  ....oR<.........
01E0: 79 30 30 33 45 3C 80 F0  FF FF 7F F0 FF FF 7F 79  y003E<.........y
01F0: 30 30 63 3D 80 1E 42 40  0F 01 00                 00c=..B@...     
```

#### Opcodes

```
  0: 0x01B2 [0x32] ExtData[1]->MainSpeed = 13* * 0.1
  1: 0x01B5 [0x31] UPDATE_ENTITY_POSITION: Set EventEntity goal position to X=-48.114*, Z=2.362*, Y=-0.499*, Time=90*
  2: 0x01BF [0x31] UPDATE_ENTITY_POSITION: Move EventEntity towards goal position
  3: 0x01C1 [0x37] UPDATE_EVENT_POSITION_AND_DIR: x=-54.488*, z=0.109*, y=-0.500*, direction=151.4°*
  4: 0x01CA [0x1F] MOVE_ENTITY: EventEntity moves to X=-59.805*, Z=-2.754*, Y=-0.500*
  5: 0x01D2 [0x1F] MOVE_ENTITY: Update entity position (mode=1)
  6: 0x01D4 [0x6F] WAIT_FRAME_DELAY: Yield until WaitTime reaches zero
  7: 0x01D5 [0x52] END_LOAD_SCHEDULER: End scheduler "y003" with entities [LocalPlayer, LocalPlayer], work=71*
  8: 0x01E4 [0x45] LOAD_SCHEDULED_TASK: Load scheduler "y00c" with entities [LocalPlayer, LocalPlayer], work=[71*, 0*]
  9: 0x01F5 [0x1E] EventEntity looks at Ulmia (ID: 17776706/0x010F4042) and starts talking
 10: 0x01FA [0x00] END_REQSTACK()
```

### Event 65535.14

#### Metadata

| Field        | Value    |
|--------------|----------|
| Entrypoint   | 0x01FB   |
| Data Size    | 20 bytes |
| Instructions | 3        |

```
      00 01 02 03 04 05 06 07  08 09 0A 0B 0C 0D 0E 0F
      -- -- -- -- -- -- -- --  -- -- -- -- -- -- -- --
01F0:                                   37 3E 80 3F 80             7>.?.
0200: 03 80 40 80 79 00 F8 FF  FF 7F 43 40 0F 01 00     ..@.y.....C@... 
```

#### Opcodes

```
  0: 0x01FB [0x37] UPDATE_EVENT_POSITION_AND_DIR: x=-43.576*, z=-0.664*, y=-0.499*, direction=218.0°*
  1: 0x0204 [0x79] EventEntity looks at Tenzen (ID: 17776707/0x010F4043) (Basic look)
  2: 0x020E [0x00] END_REQSTACK()
```

### Event 109

#### Metadata

| Field        | Value   |
|--------------|---------|
| Entrypoint   | 0x020F  |
| Data Size    | 1 bytes |
| Instructions | 1       |

```
      00 01 02 03 04 05 06 07  08 09 0A 0B 0C 0D 0E 0F
      -- -- -- -- -- -- -- --  -- -- -- -- -- -- -- --
0200:                                               00                 .
```

#### Opcodes

```
  0: 0x020F [0x00] END_REQSTACK()
```

### Event 28

#### Metadata

| Field        | Value    |
|--------------|----------|
| Entrypoint   | 0x0210   |
| Data Size    | 20 bytes |
| Instructions | 7        |

```
      00 01 02 03 04 05 06 07  08 09 0A 0B 0C 0D 0E 0F
      -- -- -- -- -- -- -- --  -- -- -- -- -- -- -- --
0210: 79 00 F8 FF FF 7F F0 FF  FF 7F 1D 41 80 23 1D 42  y..........A.#.B
0220: 80 23 21 00                                       .#!.            
```

#### Opcodes

```
  0: 0x0210 [0x79] EventEntity looks at LocalPlayer (Basic look)
  1: 0x021A [0x1D] PRINT_EVENT_MESSAGE(message_id=7017*)
    → "Why, hello there. Are you feeling all right? You seem well enough to me."
  2: 0x021D [0x23] WAIT_FOR_DIALOG_INTERACTION
  3: 0x021E [0x1D] PRINT_EVENT_MESSAGE(message_id=7018*)
    → "Remember to stop by if you're not feeling well."
  4: 0x0221 [0x23] WAIT_FOR_DIALOG_INTERACTION
  5: 0x0222 [0x21] END_EVENT
  6: 0x0223 [0x00] END_REQSTACK()
```

### Event 170

#### Metadata

| Field        | Value    |
|--------------|----------|
| Entrypoint   | 0x0224   |
| Data Size    | 19 bytes |
| Instructions | 7        |

```
      00 01 02 03 04 05 06 07  08 09 0A 0B 0C 0D 0E 0F
      -- -- -- -- -- -- -- --  -- -- -- -- -- -- -- --
0220:             20 01 42 79  00 F8 FF FF 7F F0 FF FF       .By........
0230: 7F 1D 43 80 23 21 00                              ..C.#!.         
```

#### Opcodes

```
  0: 0x0224 [0x20] SET_CLI_EVENT_UC_FLAG: Lock player control
  1: 0x0226 [0x42] SET_CLI_EVENT_CANCEL_DATA()
  2: 0x0227 [0x79] EventEntity looks at LocalPlayer (Basic look)
  3: 0x0231 [0x1D] PRINT_EVENT_MESSAGE(message_id=7019*)
    → "Sorry for all the commotion at the embassy. Let me apologize. Wolfgang and I are old friends, and both of us are quite stubborn, I'm afraid. I hope you'll forgive me."
  4: 0x0234 [0x23] WAIT_FOR_DIALOG_INTERACTION
  5: 0x0235 [0x21] END_EVENT
  6: 0x0236 [0x00] END_REQSTACK()
```

### Event 169

#### Metadata

| Field        | Value    |
|--------------|----------|
| Entrypoint   | 0x0237   |
| Data Size    | 27 bytes |
| Instructions | 11       |

```
      00 01 02 03 04 05 06 07  08 09 0A 0B 0C 0D 0E 0F
      -- -- -- -- -- -- -- --  -- -- -- -- -- -- -- --
0230:                      20  01 42 79 00 F8 FF FF 7F          .By.....
0240: F0 FF FF 7F 1D 44 80 23  1D 45 80 23 1D 46 80 23  .....D.#.E.#.F.#
0250: 21 00                                             !.              
```

#### Opcodes

```
  0: 0x0237 [0x20] SET_CLI_EVENT_UC_FLAG: Lock player control
  1: 0x0239 [0x42] SET_CLI_EVENT_CANCEL_DATA()
  2: 0x023A [0x79] EventEntity looks at LocalPlayer (Basic look)
  3: 0x0244 [0x1D] PRINT_EVENT_MESSAGE(message_id=7020*)
    → "The ambassador has returned? I shall stop by for a check up later."
  4: 0x0247 [0x23] WAIT_FOR_DIALOG_INTERACTION
  5: 0x0248 [0x1D] PRINT_EVENT_MESSAGE(message_id=7021*)
    → "The ambassador comes by often. It must be stressful knowing that international relations hinge upon your performance."
  6: 0x024B [0x23] WAIT_FOR_DIALOG_INTERACTION
  7: 0x024C [0x1D] PRINT_EVENT_MESSAGE(message_id=7022*)
    → "Take care of yourself, all right? You're always welcome as a friend, but I don't like seeing you as a patient."
  8: 0x024F [0x23] WAIT_FOR_DIALOG_INTERACTION
  9: 0x0250 [0x21] END_EVENT
 10: 0x0251 [0x00] END_REQSTACK()
```

### Event 91

#### Metadata

| Field        | Value    |
|--------------|----------|
| Entrypoint   | 0x0252   |
| Data Size    | 42 bytes |
| Instructions | 15       |

```
      00 01 02 03 04 05 06 07  08 09 0A 0B 0C 0D 0E 0F
      -- -- -- -- -- -- -- --  -- -- -- -- -- -- -- --
0250:       20 01 42 79 00 F8  FF FF 7F F0 FF FF 7F 1D     .By..........
0260: 47 80 23 1D 48 80 23 02  02 10 3D 80 00 76 02 48  G.#.H.#...=..v.H
0270: 49 80 23 01 7A 02 48 4A  80 23 21 00              I.#.z.HJ.#!.    
```

#### Opcodes

```
  0: 0x0252 [0x20] SET_CLI_EVENT_UC_FLAG: Lock player control
  1: 0x0254 [0x42] SET_CLI_EVENT_CANCEL_DATA()
  2: 0x0255 [0x79] EventEntity looks at LocalPlayer (Basic look)
  3: 0x025F [0x1D] PRINT_EVENT_MESSAGE(message_id=7023*)
    → "The clock tower? Of course I object! Every time its bells ring, the town feels so alive. I shall sign the petition, too."
  4: 0x0262 [0x23] WAIT_FOR_DIALOG_INTERACTION
  5: 0x0263 [0x1D] PRINT_EVENT_MESSAGE(message_id=7024*)
    → "Galmut used to come all the time. He'd limp in here after each fight so I could tend to his wounds. He was quite a little crybaby, too!"
  6: 0x0266 [0x23] WAIT_FOR_DIALOG_INTERACTION
  7: 0x0267 [0x02] IF !(Work_Zone[2] == 0*) GOTO 0x0276
  8: 0x026F [0x48] [System] [7005*]:
    → "The petition is complete!"
  9: 0x0272 [0x23] WAIT_FOR_DIALOG_INTERACTION
 10: 0x0273 [0x01] GOTO 0x027A
 11: 0x0276 [0x48] [System] [7006*]:
    → "You have $0 more [signature/signatures] to go."
 12: 0x0279 [0x23] WAIT_FOR_DIALOG_INTERACTION

SUBROUTINE_027A:
 13: 0x027A [0x21] END_EVENT
 14: 0x027B [0x00] END_REQSTACK()
```

### Event 33

#### Metadata

| Field        | Value   |
|--------------|---------|
| Entrypoint   | 0x027C  |
| Data Size    | 1 bytes |
| Instructions | 1       |

```
      00 01 02 03 04 05 06 07  08 09 0A 0B 0C 0D 0E 0F
      -- -- -- -- -- -- -- --  -- -- -- -- -- -- -- --
0270:                                      00                       .   
```

#### Opcodes

```
  0: 0x027C [0x00] END_REQSTACK()
```

### Event 34

#### Metadata

| Field        | Value   |
|--------------|---------|
| Entrypoint   | 0x027D  |
| Data Size    | 1 bytes |
| Instructions | 1       |

```
      00 01 02 03 04 05 06 07  08 09 0A 0B 0C 0D 0E 0F
      -- -- -- -- -- -- -- --  -- -- -- -- -- -- -- --
0270:                                         00                     .  
```

#### Opcodes

```
  0: 0x027D [0x00] END_REQSTACK()
```

### Event 32

#### Metadata

| Field        | Value    |
|--------------|----------|
| Entrypoint   | 0x027E   |
| Data Size    | 16 bytes |
| Instructions | 5        |

```
      00 01 02 03 04 05 06 07  08 09 0A 0B 0C 0D 0E 0F
      -- -- -- -- -- -- -- --  -- -- -- -- -- -- -- --
0270:                                            79 00                y.
0280: F8 FF FF 7F F0 FF FF 7F  1D 4B 80 23 21 00        .........K.#!.  
```

#### Opcodes

```
  0: 0x027E [0x79] EventEntity looks at LocalPlayer (Basic look)
  1: 0x0288 [0x1D] PRINT_EVENT_MESSAGE(message_id=7078*)
    → "All you need to do is take the Cardian to the Manustery in Windurst. I wish you luck, friend."
  2: 0x028B [0x23] WAIT_FOR_DIALOG_INTERACTION
  3: 0x028C [0x21] END_EVENT
  4: 0x028D [0x00] END_REQSTACK()
```

### Event 21

#### Metadata

| Field        | Value    |
|--------------|----------|
| Entrypoint   | 0x028E   |
| Data Size    | 20 bytes |
| Instructions | 7        |

```
      00 01 02 03 04 05 06 07  08 09 0A 0B 0C 0D 0E 0F
      -- -- -- -- -- -- -- --  -- -- -- -- -- -- -- --
0280:                                            79 00                y.
0290: F8 FF FF 7F F0 FF FF 7F  1D 4C 80 23 1D 4D 80 23  .........L.#.M.#
02A0: 21 00                                             !.              
```

#### Opcodes

```
  0: 0x028E [0x79] EventEntity looks at LocalPlayer (Basic look)
  1: 0x0298 [0x1D] PRINT_EVENT_MESSAGE(message_id=7079*)
    → "Oh, so you made it to the Manustery with that Cardian. You have my thanks. The rest depends on him, I suppose."
  2: 0x029B [0x23] WAIT_FOR_DIALOG_INTERACTION
  3: 0x029C [0x1D] PRINT_EVENT_MESSAGE(message_id=7080*)
    → "I hope he does not forget all the happy times he spent with that kind Tarutaru family."
  4: 0x029F [0x23] WAIT_FOR_DIALOG_INTERACTION
  5: 0x02A0 [0x21] END_EVENT
  6: 0x02A1 [0x00] END_REQSTACK()
```

### Event 31

#### Metadata

| Field        | Value    |
|--------------|----------|
| Entrypoint   | 0x02A2   |
| Data Size    | 16 bytes |
| Instructions | 5        |

```
      00 01 02 03 04 05 06 07  08 09 0A 0B 0C 0D 0E 0F
      -- -- -- -- -- -- -- --  -- -- -- -- -- -- -- --
02A0:       79 00 F8 FF FF 7F  F0 FF FF 7F 1D 4E 80 23    y..........N.#
02B0: 21 00                                             !.              
```

#### Opcodes

```
  0: 0x02A2 [0x79] EventEntity looks at LocalPlayer (Basic look)
  1: 0x02AC [0x1D] PRINT_EVENT_MESSAGE(message_id=7081*)
    → "Oh, so he got back home safe. He is yet another victim of the tragedy of war. But...now, now...he should be fine... Just fine."
  2: 0x02AF [0x23] WAIT_FOR_DIALOG_INTERACTION
  3: 0x02B0 [0x21] END_EVENT
  4: 0x02B1 [0x00] END_REQSTACK()
```

### Event 65535.15

#### Metadata

| Field        | Value    |
|--------------|----------|
| Entrypoint   | 0x02B2   |
| Data Size    | 10 bytes |
| Instructions | 2        |

```
      00 01 02 03 04 05 06 07  08 09 0A 0B 0C 0D 0E 0F
      -- -- -- -- -- -- -- --  -- -- -- -- -- -- -- --
02B0:       37 4F 80 50 80 07  80 51 80 00                7O.P...Q..    
```

#### Opcodes

```
  0: 0x02B2 [0x37] UPDATE_EVENT_POSITION_AND_DIR: x=-58.680*, z=-2.871*, y=-0.500*, direction=292.3°*
  1: 0x02BB [0x00] END_REQSTACK()
```

### Event 65535.16

#### Metadata

| Field        | Value    |
|--------------|----------|
| Entrypoint   | 0x02BC   |
| Data Size    | 31 bytes |
| Instructions | 7        |

```
      00 01 02 03 04 05 06 07  08 09 0A 0B 0C 0D 0E 0F
      -- -- -- -- -- -- -- --  -- -- -- -- -- -- -- --
02B0:                                      1F 00 52 80              ..R.
02C0: 53 80 07 80 1F 01 1F 00  54 80 55 80 07 80 1F 01  S.......T.U.....
02D0: 6F 4A 01 40 0F 01 F0 FF  FF 7F 00                 oJ.@.......     
```

#### Opcodes

```
  0: 0x02BC [0x1F] MOVE_ENTITY: EventEntity moves to X=-58.264*, Z=-3.844*, Y=-0.500*
  1: 0x02C4 [0x1F] MOVE_ENTITY: Update entity position (mode=1)
  2: 0x02C6 [0x1F] MOVE_ENTITY: EventEntity moves to X=-58.294*, Z=-5.876*, Y=-0.500*
  3: 0x02CE [0x1F] MOVE_ENTITY: Update entity position (mode=1)
  4: 0x02D0 [0x6F] WAIT_FRAME_DELAY: Yield until WaitTime reaches zero
  5: 0x02D1 [0x4A] Monberaux (ID: 17776641/0x010F4001) looks at LocalPlayer
  6: 0x02DA [0x00] END_REQSTACK()
```

### Event 65535.17

#### Metadata

| Field        | Value    |
|--------------|----------|
| Entrypoint   | 0x02DB   |
| Data Size    | 10 bytes |
| Instructions | 2        |

```
      00 01 02 03 04 05 06 07  08 09 0A 0B 0C 0D 0E 0F
      -- -- -- -- -- -- -- --  -- -- -- -- -- -- -- --
02D0:                                   37 56 80 57 80             7V.W.
02E0: 07 80 58 80 00                                    ..X..           
```

#### Opcodes

```
  0: 0x02DB [0x37] UPDATE_EVENT_POSITION_AND_DIR: x=-60.826*, z=-7.640*, y=-0.500*, direction=226.0°*
  1: 0x02E4 [0x00] END_REQSTACK()
```

### Event 106

#### Metadata

| Field        | Value   |
|--------------|---------|
| Entrypoint   | 0x02E5  |
| Data Size    | 1 bytes |
| Instructions | 1       |

```
      00 01 02 03 04 05 06 07  08 09 0A 0B 0C 0D 0E 0F
      -- -- -- -- -- -- -- --  -- -- -- -- -- -- -- --
02E0:                00                                      .          
```

#### Opcodes

```
  0: 0x02E5 [0x00] END_REQSTACK()
```

### Event 65535.18

#### Metadata

| Field        | Value    |
|--------------|----------|
| Entrypoint   | 0x02E6   |
| Data Size    | 21 bytes |
| Instructions | 5        |

```
      00 01 02 03 04 05 06 07  08 09 0A 0B 0C 0D 0E 0F
      -- -- -- -- -- -- -- --  -- -- -- -- -- -- -- --
02E0:                   1F 00  56 80 57 80 07 80 1F 01        ..V.W.....
02F0: 6F 4A 01 40 0F 01 05 40  0F 01 00                 oJ.@...@...     
```

#### Opcodes

```
  0: 0x02E6 [0x1F] MOVE_ENTITY: EventEntity moves to X=-60.826*, Z=-7.640*, Y=-0.500*
  1: 0x02EE [0x1F] MOVE_ENTITY: Update entity position (mode=1)
  2: 0x02F0 [0x6F] WAIT_FRAME_DELAY: Yield until WaitTime reaches zero
  3: 0x02F1 [0x4A] Monberaux (ID: 17776641/0x010F4001) looks at Two of Swords (ID: 17776645/0x010F4005)
  4: 0x02FA [0x00] END_REQSTACK()
```

### Event 65535.19

#### Metadata

| Field        | Value    |
|--------------|----------|
| Entrypoint   | 0x02FB   |
| Data Size    | 13 bytes |
| Instructions | 3        |

```
      00 01 02 03 04 05 06 07  08 09 0A 0B 0C 0D 0E 0F
      -- -- -- -- -- -- -- --  -- -- -- -- -- -- -- --
02F0:                                   4A 01 40 0F 01             J.@..
0300: F0 FF FF 7F 1C 59 80 00                           .....Y..        
```

#### Opcodes

```
  0: 0x02FB [0x4A] Monberaux (ID: 17776641/0x010F4001) looks at LocalPlayer
  1: 0x0304 [0x1C] WAIT(60* ticks)
  2: 0x0307 [0x00] END_REQSTACK()
```

### Event 65535.20

#### Metadata

| Field        | Value    |
|--------------|----------|
| Entrypoint   | 0x0308   |
| Data Size    | 37 bytes |
| Instructions | 5        |

```
      00 01 02 03 04 05 06 07  08 09 0A 0B 0C 0D 0E 0F
      -- -- -- -- -- -- -- --  -- -- -- -- -- -- -- --
0300:                          5B 5A 80 F8 FF FF 7F F8          [Z......
0310: FF FF 7F 63 68 61 31 1C  36 80 5E 69 64 6C 30 53  ...cha1.6.^idl0S
0320: F8 FF FF 7F F8 FF FF 7F  63 68 61 31 00           ........cha1.   
```

#### Opcodes

```
  0: 0x0308 [0x5B] LOAD_EXT_SCHEDULER: Load scheduler "cha1" with entities [EventEntity, EventEntity], work=303*
  1: 0x0317 [0x1C] WAIT(90* ticks)
  2: 0x031A [0x5E] EventEntity goes idle (kills current action) (animation: "idl0")
  3: 0x031F [0x53] WAIT_SCHEDULER_TASK: Wait for scheduler "cha1" with entities [EventEntity, EventEntity]
  4: 0x032C [0x00] END_REQSTACK()
```

### Event 65535.21

#### Metadata

| Field        | Value    |
|--------------|----------|
| Entrypoint   | 0x032D   |
| Data Size    | 67 bytes |
| Instructions | 11       |

```
      00 01 02 03 04 05 06 07  08 09 0A 0B 0C 0D 0E 0F
      -- -- -- -- -- -- -- --  -- -- -- -- -- -- -- --
0320:                                         7B F8 FF               {..
0330: FF 7F 36 00 00 01 00 02  00 39 03 00 6F 70 53 F8  ..6......9..opS.
0340: FF FF 7F F8 FF FF 7F 40  74 6C 30 53 F8 FF FF 7F  .......@tl0S....
0350: F8 FF FF 7F 40 74 72 30  5B 5A 80 F8 FF FF 7F F8  ....@tr0[Z......
0360: FF FF 7F 63 68 61 30 1C  59 80 5E 64 66 74 30 00  ...cha0.Y.^dft0.
```

#### Opcodes

```
  0: 0x032D [0x7B] EventEntity stops talking
  1: 0x0332 [0x36] SET_ENTITY_EVENT_POSITION(pos_x=ExtData[1]->WorkLocal[0], pos_z=ExtData[1]->WorkLocal[1], pos_y=ExtData[1]->WorkLocal[2])
  2: 0x0339 [0x39] SET_ENTITY_DIRECTION(direction=ExtData[1]->WorkLocal[3])
  3: 0x033C [0x6F] WAIT_FRAME_DELAY: Yield until WaitTime reaches zero
  4: 0x033D [0x70] WAIT_ENTITY_RENDER_FLAG: Wait while EventEntity->Render.Flags3 bit 2 is set (cancel turn if not)
  5: 0x033E [0x53] WAIT_SCHEDULER_TASK: Wait for scheduler "@tl0" with entities [EventEntity, EventEntity]
  6: 0x034B [0x53] WAIT_SCHEDULER_TASK: Wait for scheduler "@tr0" with entities [EventEntity, EventEntity]
  7: 0x0358 [0x5B] LOAD_EXT_SCHEDULER: Load scheduler "cha0" with entities [EventEntity, EventEntity], work=303*
  8: 0x0367 [0x1C] WAIT(60* ticks)
  9: 0x036A [0x5E] EventEntity goes idle (kills current action) (animation: "dft0")
 10: 0x036F [0x00] END_REQSTACK()
```

### Event 65535.22

#### Metadata

| Field        | Value    |
|--------------|----------|
| Entrypoint   | 0x0370   |
| Data Size    | 29 bytes |
| Instructions | 3        |

```
      00 01 02 03 04 05 06 07  08 09 0A 0B 0C 0D 0E 0F
      -- -- -- -- -- -- -- --  -- -- -- -- -- -- -- --
0370: 5B 5B 80 F8 FF FF 7F F8  FF FF 7F 74 6C 6B 30 53  [[.........tlk0S
0380: F8 FF FF 7F F8 FF FF 7F  74 6C 6B 30 00           ........tlk0.   
```

#### Opcodes

```
  0: 0x0370 [0x5B] LOAD_EXT_SCHEDULER: Load scheduler "tlk0" with entities [EventEntity, EventEntity], work=297*
  1: 0x037F [0x53] WAIT_SCHEDULER_TASK: Wait for scheduler "tlk0" with entities [EventEntity, EventEntity]
  2: 0x038C [0x00] END_REQSTACK()
```

### Event 65535.23

#### Metadata

| Field        | Value    |
|--------------|----------|
| Entrypoint   | 0x038D   |
| Data Size    | 29 bytes |
| Instructions | 3        |

```
      00 01 02 03 04 05 06 07  08 09 0A 0B 0C 0D 0E 0F
      -- -- -- -- -- -- -- --  -- -- -- -- -- -- -- --
0380:                                         5B 5B 80               [[.
0390: F8 FF FF 7F F8 FF FF 7F  74 6C 6B 31 53 F8 FF FF  ........tlk1S...
03A0: 7F F8 FF FF 7F 74 6C 6B  31 00                    .....tlk1.      
```

#### Opcodes

```
  0: 0x038D [0x5B] LOAD_EXT_SCHEDULER: Load scheduler "tlk1" with entities [EventEntity, EventEntity], work=297*
  1: 0x039C [0x53] WAIT_SCHEDULER_TASK: Wait for scheduler "tlk1" with entities [EventEntity, EventEntity]
  2: 0x03A9 [0x00] END_REQSTACK()
```

### Event 65535.24

#### Metadata

| Field        | Value    |
|--------------|----------|
| Entrypoint   | 0x03AA   |
| Data Size    | 29 bytes |
| Instructions | 3        |

```
      00 01 02 03 04 05 06 07  08 09 0A 0B 0C 0D 0E 0F
      -- -- -- -- -- -- -- --  -- -- -- -- -- -- -- --
03A0:                                5B 5B 80 F8 FF FF            [[....
03B0: 7F F8 FF FF 7F 70 61 73  30 53 F8 FF FF 7F F8 FF  .....pas0S......
03C0: FF 7F 70 61 73 30 00                              ..pas0.         
```

#### Opcodes

```
  0: 0x03AA [0x5B] LOAD_EXT_SCHEDULER: Load scheduler "pas0" with entities [EventEntity, EventEntity], work=297*
  1: 0x03B9 [0x53] WAIT_SCHEDULER_TASK: Wait for scheduler "pas0" with entities [EventEntity, EventEntity]
  2: 0x03C6 [0x00] END_REQSTACK()
```

### Event 65535.25

#### Metadata

| Field        | Value    |
|--------------|----------|
| Entrypoint   | 0x03C7   |
| Data Size    | 19 bytes |
| Instructions | 3        |

```
      00 01 02 03 04 05 06 07  08 09 0A 0B 0C 0D 0E 0F
      -- -- -- -- -- -- -- --  -- -- -- -- -- -- -- --
03C0:                      5B  5B 80 F8 FF FF 7F F8 FF         [[.......
03D0: FF 7F 74 6C 6B 30 1C 29  80 00                    ..tlk0.)..      
```

#### Opcodes

```
  0: 0x03C7 [0x5B] LOAD_EXT_SCHEDULER: Load scheduler "tlk0" with entities [EventEntity, EventEntity], work=297*
  1: 0x03D6 [0x1C] WAIT(120* ticks)
  2: 0x03D9 [0x00] END_REQSTACK()
```

### Event 65535.26

#### Metadata

| Field        | Value    |
|--------------|----------|
| Entrypoint   | 0x03DA   |
| Data Size    | 29 bytes |
| Instructions | 3        |

```
      00 01 02 03 04 05 06 07  08 09 0A 0B 0C 0D 0E 0F
      -- -- -- -- -- -- -- --  -- -- -- -- -- -- -- --
03D0:                                5B 5B 80 F8 FF FF            [[....
03E0: 7F F8 FF FF 7F 74 68 6B  31 53 F8 FF FF 7F F8 FF  .....thk1S......
03F0: FF 7F 74 68 6B 31 00                              ..thk1.         
```

#### Opcodes

```
  0: 0x03DA [0x5B] LOAD_EXT_SCHEDULER: Load scheduler "thk1" with entities [EventEntity, EventEntity], work=297*
  1: 0x03E9 [0x53] WAIT_SCHEDULER_TASK: Wait for scheduler "thk1" with entities [EventEntity, EventEntity]
  2: 0x03F6 [0x00] END_REQSTACK()
```

### Event 65535.27

#### Metadata

| Field        | Value    |
|--------------|----------|
| Entrypoint   | 0x03F7   |
| Data Size    | 29 bytes |
| Instructions | 3        |

```
      00 01 02 03 04 05 06 07  08 09 0A 0B 0C 0D 0E 0F
      -- -- -- -- -- -- -- --  -- -- -- -- -- -- -- --
03F0:                      5B  5B 80 F8 FF FF 7F F8 FF         [[.......
0400: FF 7F 74 68 6B 32 53 F8  FF FF 7F F8 FF FF 7F 74  ..thk2S........t
0410: 68 6B 32 00                                       hk2.            
```

#### Opcodes

```
  0: 0x03F7 [0x5B] LOAD_EXT_SCHEDULER: Load scheduler "thk2" with entities [EventEntity, EventEntity], work=297*
  1: 0x0406 [0x53] WAIT_SCHEDULER_TASK: Wait for scheduler "thk2" with entities [EventEntity, EventEntity]
  2: 0x0413 [0x00] END_REQSTACK()
```

### Event 65535.28

#### Metadata

| Field        | Value   |
|--------------|---------|
| Entrypoint   | 0x0414  |
| Data Size    | 6 bytes |
| Instructions | 2       |

```
      00 01 02 03 04 05 06 07  08 09 0A 0B 0C 0D 0E 0F
      -- -- -- -- -- -- -- --  -- -- -- -- -- -- -- --
0410:             5E 69 64 6C  30 00                        ^idl0.      
```

#### Opcodes

```
  0: 0x0414 [0x5E] EventEntity goes idle (kills current action) (animation: "idl0")
  1: 0x0419 [0x00] END_REQSTACK()
```

### Event 65535.29

#### Metadata

| Field        | Value   |
|--------------|---------|
| Entrypoint   | 0x041A  |
| Data Size    | 1 bytes |
| Instructions | 1       |

```
      00 01 02 03 04 05 06 07  08 09 0A 0B 0C 0D 0E 0F
      -- -- -- -- -- -- -- --  -- -- -- -- -- -- -- --
0410:                                00                           .     
```

#### Opcodes

```
  0: 0x041A [0x00] END_REQSTACK()
```

### Event 10058

#### Metadata

| Field        | Value   |
|--------------|---------|
| Entrypoint   | 0x041B  |
| Data Size    | 1 bytes |
| Instructions | 1       |

```
      00 01 02 03 04 05 06 07  08 09 0A 0B 0C 0D 0E 0F
      -- -- -- -- -- -- -- --  -- -- -- -- -- -- -- --
0410:                                   00                         .    
```

#### Opcodes

```
  0: 0x041B [0x00] END_REQSTACK()
```

### Event 10059

#### Metadata

| Field        | Value   |
|--------------|---------|
| Entrypoint   | 0x041C  |
| Data Size    | 1 bytes |
| Instructions | 1       |

```
      00 01 02 03 04 05 06 07  08 09 0A 0B 0C 0D 0E 0F
      -- -- -- -- -- -- -- --  -- -- -- -- -- -- -- --
0410:                                      00                       .   
```

#### Opcodes

```
  0: 0x041C [0x00] END_REQSTACK()
```

### Event 65535.30

#### Metadata

| Field        | Value    |
|--------------|----------|
| Entrypoint   | 0x041D   |
| Data Size    | 17 bytes |
| Instructions | 4        |

```
      00 01 02 03 04 05 06 07  08 09 0A 0B 0C 0D 0E 0F
      -- -- -- -- -- -- -- --  -- -- -- -- -- -- -- --
0410:                                         37 5C 80               7\.
0420: 5D 80 03 80 5E 80 22 00  80 F8 FF FF 7F 00        ]...^.".......  
```

#### Opcodes

```
  0: 0x041D [0x37] UPDATE_EVENT_POSITION_AND_DIR: x=-42.381*, z=-1.913*, y=-0.499*, direction=206.5°*
  1: 0x0426 [0x22] ENTITY_HIDE_FLAG(enabled=0x00)
  2: 0x0428 [0x80] LOAD_WAIT(entity=EventEntity)
  3: 0x042D [0x00] END_REQSTACK()
```

### Event 65535.31

#### Metadata

| Field        | Value    |
|--------------|----------|
| Entrypoint   | 0x042E   |
| Data Size    | 62 bytes |
| Instructions | 9        |

```
      00 01 02 03 04 05 06 07  08 09 0A 0B 0C 0D 0E 0F
      -- -- -- -- -- -- -- --  -- -- -- -- -- -- -- --
0420:                                            79 00                y.
0430: 01 40 0F 01 8F 40 0F 01  5B 5A 80 F8 FF FF 7F F8  .@...@..[Z......
0440: FF FF 7F 63 68 61 31 1C  36 80 5E 69 64 6C 30 53  ...cha1.6.^idl0S
0450: F8 FF FF 7F F8 FF FF 7F  63 68 61 31 4A 01 40 0F  ........cha1J.@.
0460: 01 8F 40 0F 01 6F 76 01  40 0F 01 00              ..@..ov.@...    
```

#### Opcodes

```
  0: 0x042E [0x79] Monberaux (ID: 17776641/0x010F4001) looks at Unnamed NPC (ID: 17776783/0x010F408F) (Basic look)
  1: 0x0438 [0x5B] LOAD_EXT_SCHEDULER: Load scheduler "cha1" with entities [EventEntity, EventEntity], work=303*
  2: 0x0447 [0x1C] WAIT(90* ticks)
  3: 0x044A [0x5E] EventEntity goes idle (kills current action) (animation: "idl0")
  4: 0x044F [0x53] WAIT_SCHEDULER_TASK: Wait for scheduler "cha1" with entities [EventEntity, EventEntity]
  5: 0x045C [0x4A] Monberaux (ID: 17776641/0x010F4001) looks at Unnamed NPC (ID: 17776783/0x010F408F)
  6: 0x0465 [0x6F] WAIT_FRAME_DELAY: Yield until WaitTime reaches zero
  7: 0x0466 [0x76] CHECK_ENTITY_RENDER_FLAGS: Wait until Monberaux (ID: 17776641/0x010F4001) Render.Flags0 and Render.Flags3 conditions are met
  8: 0x046B [0x00] END_REQSTACK()
```

### Event 65535.32

#### Metadata

| Field        | Value    |
|--------------|----------|
| Entrypoint   | 0x046C   |
| Data Size    | 14 bytes |
| Instructions | 4        |

```
      00 01 02 03 04 05 06 07  08 09 0A 0B 0C 0D 0E 0F
      -- -- -- -- -- -- -- --  -- -- -- -- -- -- -- --
0460:                                      32 00 80 1F              2...
0470: 00 5F 80 60 80 03 80 1F  01 00                    ._.`......      
```

#### Opcodes

```
  0: 0x046C [0x32] ExtData[1]->MainSpeed = 13* * 0.1
  1: 0x046F [0x1F] MOVE_ENTITY: EventEntity moves to X=-43.338*, Z=-2.842*, Y=-0.499*
  2: 0x0477 [0x1F] MOVE_ENTITY: Update entity position (mode=1)
  3: 0x0479 [0x00] END_REQSTACK()
```

### Event 65535.33

#### Metadata

| Field        | Value    |
|--------------|----------|
| Entrypoint   | 0x047A   |
| Data Size    | 14 bytes |
| Instructions | 3        |

```
      00 01 02 03 04 05 06 07  08 09 0A 0B 0C 0D 0E 0F
      -- -- -- -- -- -- -- --  -- -- -- -- -- -- -- --
0470:                                1C 59 80 79 00 01            .Y.y..
0480: 40 0F 01 F0 FF FF 7F 00                           @.......        
```

#### Opcodes

```
  0: 0x047A [0x1C] WAIT(60* ticks)
  1: 0x047D [0x79] Monberaux (ID: 17776641/0x010F4001) looks at LocalPlayer (Basic look)
  2: 0x0487 [0x00] END_REQSTACK()
```

### Event 10061

#### Metadata

| Field        | Value   |
|--------------|---------|
| Entrypoint   | 0x0488  |
| Data Size    | 1 bytes |
| Instructions | 1       |

```
      00 01 02 03 04 05 06 07  08 09 0A 0B 0C 0D 0E 0F
      -- -- -- -- -- -- -- --  -- -- -- -- -- -- -- --
0480:                          00                               .       
```

#### Opcodes

```
  0: 0x0488 [0x00] END_REQSTACK()
```

### Event 10062

#### Metadata

| Field        | Value   |
|--------------|---------|
| Entrypoint   | 0x0489  |
| Data Size    | 1 bytes |
| Instructions | 1       |

```
      00 01 02 03 04 05 06 07  08 09 0A 0B 0C 0D 0E 0F
      -- -- -- -- -- -- -- --  -- -- -- -- -- -- -- --
0480:                             00                             .      
```

#### Opcodes

```
  0: 0x0489 [0x00] END_REQSTACK()
```

### Event 10207

#### Metadata

| Field        | Value   |
|--------------|---------|
| Entrypoint   | 0x048A  |
| Data Size    | 1 bytes |
| Instructions | 1       |

```
      00 01 02 03 04 05 06 07  08 09 0A 0B 0C 0D 0E 0F
      -- -- -- -- -- -- -- --  -- -- -- -- -- -- -- --
0480:                                00                           .     
```

#### Opcodes

```
  0: 0x048A [0x00] END_REQSTACK()
```

### Event 65535.34

#### Metadata

| Field        | Value    |
|--------------|----------|
| Entrypoint   | 0x048B   |
| Data Size    | 14 bytes |
| Instructions | 4        |

```
      00 01 02 03 04 05 06 07  08 09 0A 0B 0C 0D 0E 0F
      -- -- -- -- -- -- -- --  -- -- -- -- -- -- -- --
0480:                                   32 00 80 1F 00             2....
0490: 61 80 62 80 03 80 1F 01  00                       a.b......       
```

#### Opcodes

```
  0: 0x048B [0x32] ExtData[1]->MainSpeed = 13* * 0.1
  1: 0x048E [0x1F] MOVE_ENTITY: EventEntity moves to X=-45.254*, Z=-2.439*, Y=-0.499*
  2: 0x0496 [0x1F] MOVE_ENTITY: Update entity position (mode=1)
  3: 0x0498 [0x00] END_REQSTACK()
```

### Event 65535.35

#### Metadata

| Field        | Value    |
|--------------|----------|
| Entrypoint   | 0x0499   |
| Data Size    | 17 bytes |
| Instructions | 4        |

```
      00 01 02 03 04 05 06 07  08 09 0A 0B 0C 0D 0E 0F
      -- -- -- -- -- -- -- --  -- -- -- -- -- -- -- --
0490:                             37 5C 80 5D 80 03 80           7\.]...
04A0: 5E 80 22 00 80 F8 FF FF  7F 00                    ^.".......      
```

#### Opcodes

```
  0: 0x0499 [0x37] UPDATE_EVENT_POSITION_AND_DIR: x=-42.381*, z=-1.913*, y=-0.499*, direction=206.5°*
  1: 0x04A2 [0x22] ENTITY_HIDE_FLAG(enabled=0x00)
  2: 0x04A4 [0x80] LOAD_WAIT(entity=EventEntity)
  3: 0x04A9 [0x00] END_REQSTACK()
```

### Event 10072

#### Metadata

| Field        | Value   |
|--------------|---------|
| Entrypoint   | 0x04AA  |
| Data Size    | 1 bytes |
| Instructions | 1       |

```
      00 01 02 03 04 05 06 07  08 09 0A 0B 0C 0D 0E 0F
      -- -- -- -- -- -- -- --  -- -- -- -- -- -- -- --
04A0:                                00                           .     
```

#### Opcodes

```
  0: 0x04AA [0x00] END_REQSTACK()
```

### Event 10190

#### Metadata

| Field        | Value   |
|--------------|---------|
| Entrypoint   | 0x04AB  |
| Data Size    | 1 bytes |
| Instructions | 1       |

```
      00 01 02 03 04 05 06 07  08 09 0A 0B 0C 0D 0E 0F
      -- -- -- -- -- -- -- --  -- -- -- -- -- -- -- --
04A0:                                   00                         .    
```

#### Opcodes

```
  0: 0x04AB [0x00] END_REQSTACK()
```

### Event 65535.36

#### Metadata

| Field        | Value    |
|--------------|----------|
| Entrypoint   | 0x04AC   |
| Data Size    | 24 bytes |
| Instructions | 4        |

```
      00 01 02 03 04 05 06 07  08 09 0A 0B 0C 0D 0E 0F
      -- -- -- -- -- -- -- --  -- -- -- -- -- -- -- --
04A0:                                      5B 5A 80 F8              [Z..
04B0: FF FF 7F F8 FF FF 7F 63  68 61 31 1C 36 80 5E 69  .......cha1.6.^i
04C0: 64 6C 30 00                                       dl0.            
```

#### Opcodes

```
  0: 0x04AC [0x5B] LOAD_EXT_SCHEDULER: Load scheduler "cha1" with entities [EventEntity, EventEntity], work=303*
  1: 0x04BB [0x1C] WAIT(90* ticks)
  2: 0x04BE [0x5E] EventEntity goes idle (kills current action) (animation: "idl0")
  3: 0x04C3 [0x00] END_REQSTACK()
```

### Event 65535.37

#### Metadata

| Field        | Value    |
|--------------|----------|
| Entrypoint   | 0x04C4   |
| Data Size    | 50 bytes |
| Instructions | 8        |

```
      00 01 02 03 04 05 06 07  08 09 0A 0B 0C 0D 0E 0F
      -- -- -- -- -- -- -- --  -- -- -- -- -- -- -- --
04C0:             1F 00 63 80  64 80 03 80 1F 01 1F 00      ..c.d.......
04D0: 65 80 66 80 03 80 1F 01  6F 5B 5B 80 F8 FF FF 7F  e.f.....o[[.....
04E0: F8 FF FF 7F 74 68 6B 31  53 F8 FF FF 7F F8 FF FF  ....thk1S.......
04F0: 7F 74 68 6B 31 00                                 .thk1.          
```

#### Opcodes

```
  0: 0x04C4 [0x1F] MOVE_ENTITY: EventEntity moves to X=-45.243*, Z=-3.362*, Y=-0.499*
  1: 0x04CC [0x1F] MOVE_ENTITY: Update entity position (mode=1)
  2: 0x04CE [0x1F] MOVE_ENTITY: EventEntity moves to X=-46.903*, Z=-3.968*, Y=-0.499*
  3: 0x04D6 [0x1F] MOVE_ENTITY: Update entity position (mode=1)
  4: 0x04D8 [0x6F] WAIT_FRAME_DELAY: Yield until WaitTime reaches zero
  5: 0x04D9 [0x5B] LOAD_EXT_SCHEDULER: Load scheduler "thk1" with entities [EventEntity, EventEntity], work=297*
  6: 0x04E8 [0x53] WAIT_SCHEDULER_TASK: Wait for scheduler "thk1" with entities [EventEntity, EventEntity]
  7: 0x04F5 [0x00] END_REQSTACK()
```

### Event 65535.38

#### Metadata

| Field        | Value    |
|--------------|----------|
| Entrypoint   | 0x04F6   |
| Data Size    | 12 bytes |
| Instructions | 4        |

```
      00 01 02 03 04 05 06 07  08 09 0A 0B 0C 0D 0E 0F
      -- -- -- -- -- -- -- --  -- -- -- -- -- -- -- --
04F0:                   1F 00  5C 80 5D 80 03 80 1F 01        ..\.].....
0500: 6F 00                                             o.              
```

#### Opcodes

```
  0: 0x04F6 [0x1F] MOVE_ENTITY: EventEntity moves to X=-42.381*, Z=-1.913*, Y=-0.499*
  1: 0x04FE [0x1F] MOVE_ENTITY: Update entity position (mode=1)
  2: 0x0500 [0x6F] WAIT_FRAME_DELAY: Yield until WaitTime reaches zero
  3: 0x0501 [0x00] END_REQSTACK()
```

### Event 10237

#### Metadata

| Field        | Value    |
|--------------|----------|
| Entrypoint   | 0x0502   |
| Data Size    | 26 bytes |
| Instructions | 7        |

```
      00 01 02 03 04 05 06 07  08 09 0A 0B 0C 0D 0E 0F
      -- -- -- -- -- -- -- --  -- -- -- -- -- -- -- --
0500:       03 04 00 02 10 79  00 01 40 0F 01 F0 FF FF    .....y..@.....
0510: 7F 03 02 10 04 00 1D 67  80 23 21 00              .......g.#!.    
```

#### Opcodes

```
  0: 0x0502 [0x03] ExtData[1]->WorkLocal[4] = Work_Zone[2]
  1: 0x0507 [0x79] Monberaux (ID: 17776641/0x010F4001) looks at LocalPlayer (Basic look)
  2: 0x0511 [0x03] Work_Zone[2] = ExtData[1]->WorkLocal[4]
  3: 0x0516 [0x1D] PRINT_EVENT_MESSAGE(message_id=13869*)
    → "Even a small donation of $0 gil would allow me to provide medicine to any patient who may need it."
  4: 0x0519 [0x23] WAIT_FOR_DIALOG_INTERACTION
  5: 0x051A [0x21] END_EVENT
  6: 0x051B [0x00] END_REQSTACK()
```

### Event 10238

#### Metadata

| Field        | Value    |
|--------------|----------|
| Entrypoint   | 0x051C   |
| Data Size    | 16 bytes |
| Instructions | 5        |

```
      00 01 02 03 04 05 06 07  08 09 0A 0B 0C 0D 0E 0F
      -- -- -- -- -- -- -- --  -- -- -- -- -- -- -- --
0510:                                      79 00 01 40              y..@
0520: 0F 01 F0 FF FF 7F 1D 68  80 23 21 00              .......h.#!.    
```

#### Opcodes

```
  0: 0x051C [0x79] Monberaux (ID: 17776641/0x010F4001) looks at LocalPlayer (Basic look)
  1: 0x0526 [0x1D] PRINT_EVENT_MESSAGE(message_id=13870*)
    → "Thank you so much for your donation. This will save many a life in these trying times."
  2: 0x0529 [0x23] WAIT_FOR_DIALOG_INTERACTION
  3: 0x052A [0x21] END_EVENT
  4: 0x052B [0x00] END_REQSTACK()
```

### Event 10239

#### Metadata

| Field        | Value    |
|--------------|----------|
| Entrypoint   | 0x052C   |
| Data Size    | 16 bytes |
| Instructions | 5        |

```
      00 01 02 03 04 05 06 07  08 09 0A 0B 0C 0D 0E 0F
      -- -- -- -- -- -- -- --  -- -- -- -- -- -- -- --
0520:                                      79 00 01 40              y..@
0530: 0F 01 F0 FF FF 7F 1D 69  80 23 21 00              .......i.#!.    
```

#### Opcodes

```
  0: 0x052C [0x79] Monberaux (ID: 17776641/0x010F4001) looks at LocalPlayer (Basic look)
  1: 0x0536 [0x1D] PRINT_EVENT_MESSAGE(message_id=13871*)
    → "Thank you so much for your donation. This will save many a life in these trying times.B"
  2: 0x0539 [0x23] WAIT_FOR_DIALOG_INTERACTION
  3: 0x053A [0x21] END_EVENT
  4: 0x053B [0x00] END_REQSTACK()
```

### Event 10240

#### Metadata

| Field        | Value    |
|--------------|----------|
| Entrypoint   | 0x053C   |
| Data Size    | 16 bytes |
| Instructions | 5        |

```
      00 01 02 03 04 05 06 07  08 09 0A 0B 0C 0D 0E 0F
      -- -- -- -- -- -- -- --  -- -- -- -- -- -- -- --
0530:                                      79 00 01 40              y..@
0540: 0F 01 F0 FF FF 7F 1D 6A  80 23 21 00              .......j.#!.    
```

#### Opcodes

```
  0: 0x053C [0x79] Monberaux (ID: 17776641/0x010F4001) looks at LocalPlayer (Basic look)
  1: 0x0546 [0x1D] PRINT_EVENT_MESSAGE(message_id=13872*)
    → "Your recent donation is more than sufficient for the time being. Perhaps I will run out and request your services again later."
  2: 0x0549 [0x23] WAIT_FOR_DIALOG_INTERACTION
  3: 0x054A [0x21] END_EVENT
  4: 0x054B [0x00] END_REQSTACK()
```

### Event 10241

#### Metadata

| Field        | Value    |
|--------------|----------|
| Entrypoint   | 0x054C   |
| Data Size    | 26 bytes |
| Instructions | 7        |

```
      00 01 02 03 04 05 06 07  08 09 0A 0B 0C 0D 0E 0F
      -- -- -- -- -- -- -- --  -- -- -- -- -- -- -- --
0540:                                      79 00 01 40              y..@
0550: 0F 01 F0 FF FF 7F 03 02  10 6B 80 03 03 10 6C 80  .........k....l.
0560: 1D 6D 80 23 21 00                                 .m.#!.          
```

#### Opcodes

```
  0: 0x054C [0x79] Monberaux (ID: 17776641/0x010F4001) looks at LocalPlayer (Basic look)
  1: 0x0556 [0x03] Work_Zone[2] = 4145*
  2: 0x055B [0x03] Work_Zone[3] = 4144*
  3: 0x0560 [0x1D] PRINT_EVENT_MESSAGE(message_id=13873*)
    → "Would you happen to be in possession of any $0 or $1? I require some to further my research, but they can be quite expensive to procure on my own."
  4: 0x0563 [0x23] WAIT_FOR_DIALOG_INTERACTION
  5: 0x0564 [0x21] END_EVENT
  6: 0x0565 [0x00] END_REQSTACK()
```

### Event 10242

#### Metadata

| Field        | Value    |
|--------------|----------|
| Entrypoint   | 0x0566   |
| Data Size    | 26 bytes |
| Instructions | 7        |

```
      00 01 02 03 04 05 06 07  08 09 0A 0B 0C 0D 0E 0F
      -- -- -- -- -- -- -- --  -- -- -- -- -- -- -- --
0560:                   79 00  01 40 0F 01 F0 FF FF 7F        y..@......
0570: 03 02 10 6B 80 03 03 10  6C 80 1D 6E 80 23 21 00  ...k....l..n.#!.
```

#### Opcodes

```
  0: 0x0566 [0x79] Monberaux (ID: 17776641/0x010F4001) looks at LocalPlayer (Basic look)
  1: 0x0570 [0x03] Work_Zone[2] = 4145*
  2: 0x0575 [0x03] Work_Zone[3] = 4144*
  3: 0x057A [0x1D] PRINT_EVENT_MESSAGE(message_id=13874*)
    → "Thank you very much for the $0 and $1. I'm sure the fruits of my research will be reflected in my alter ego's capabilities."
  4: 0x057D [0x23] WAIT_FOR_DIALOG_INTERACTION
  5: 0x057E [0x21] END_EVENT
  6: 0x057F [0x00] END_REQSTACK()
```

### Event 10243

#### Metadata

| Field        | Value    |
|--------------|----------|
| Entrypoint   | 0x0580   |
| Data Size    | 26 bytes |
| Instructions | 7        |

```
      00 01 02 03 04 05 06 07  08 09 0A 0B 0C 0D 0E 0F
      -- -- -- -- -- -- -- --  -- -- -- -- -- -- -- --
0580: 03 05 00 02 10 79 00 01  40 0F 01 F0 FF FF 7F 03  .....y..@.......
0590: 02 10 05 00 1D 6F 80 23  21 00                    .....o.#!.      
```

#### Opcodes

```
  0: 0x0580 [0x03] ExtData[1]->WorkLocal[5] = Work_Zone[2]
  1: 0x0585 [0x79] Monberaux (ID: 17776641/0x010F4001) looks at LocalPlayer (Basic look)
  2: 0x058F [0x03] Work_Zone[2] = ExtData[1]->WorkLocal[5]
  3: 0x0594 [0x1D] PRINT_EVENT_MESSAGE(message_id=13875*)
    → "Thank you very much for the $0. I'm sure the fruits of my research will be reflected in my alter ego's capabilities."
  4: 0x0597 [0x23] WAIT_FOR_DIALOG_INTERACTION
  5: 0x0598 [0x21] END_EVENT
  6: 0x0599 [0x00] END_REQSTACK()
```

### Event 10244

#### Metadata

| Field        | Value    |
|--------------|----------|
| Entrypoint   | 0x059A   |
| Data Size    | 16 bytes |
| Instructions | 5        |

```
      00 01 02 03 04 05 06 07  08 09 0A 0B 0C 0D 0E 0F
      -- -- -- -- -- -- -- --  -- -- -- -- -- -- -- --
0590:                                79 00 01 40 0F 01            y..@..
05A0: F0 FF FF 7F 1D 70 80 23  21 00                    .....p.#!.      
```

#### Opcodes

```
  0: 0x059A [0x79] Monberaux (ID: 17776641/0x010F4001) looks at LocalPlayer (Basic look)
  1: 0x05A4 [0x1D] PRINT_EVENT_MESSAGE(message_id=13876*)
    → "Thank you very much for such expensive medicines. I'm sure the fruits of my research will be reflected in my alter ego's capabilities."
  2: 0x05A7 [0x23] WAIT_FOR_DIALOG_INTERACTION
  3: 0x05A8 [0x21] END_EVENT
  4: 0x05A9 [0x00] END_REQSTACK()
```

### Event 10245

#### Metadata

| Field        | Value    |
|--------------|----------|
| Entrypoint   | 0x05AA   |
| Data Size    | 16 bytes |
| Instructions | 5        |

```
      00 01 02 03 04 05 06 07  08 09 0A 0B 0C 0D 0E 0F
      -- -- -- -- -- -- -- --  -- -- -- -- -- -- -- --
05A0:                                79 00 01 40 0F 01            y..@..
05B0: F0 FF FF 7F 1D 71 80 23  21 00                    .....q.#!.      
```

#### Opcodes

```
  0: 0x05AA [0x79] Monberaux (ID: 17776641/0x010F4001) looks at LocalPlayer (Basic look)
  1: 0x05B4 [0x1D] PRINT_EVENT_MESSAGE(message_id=13877*)
    → "I should have more than enough concoctions for my current needs."
  2: 0x05B7 [0x23] WAIT_FOR_DIALOG_INTERACTION
  3: 0x05B8 [0x21] END_EVENT
  4: 0x05B9 [0x00] END_REQSTACK()
```

### Event 10246

#### Metadata

| Field        | Value    |
|--------------|----------|
| Entrypoint   | 0x05BA   |
| Data Size    | 26 bytes |
| Instructions | 7        |

```
      00 01 02 03 04 05 06 07  08 09 0A 0B 0C 0D 0E 0F
      -- -- -- -- -- -- -- --  -- -- -- -- -- -- -- --
05B0:                                03 05 00 02 10 79            .....y
05C0: 00 01 40 0F 01 F0 FF FF  7F 03 02 10 05 00 1D 72  ..@............r
05D0: 80 23 21 00                                       .#!.            
```

#### Opcodes

```
  0: 0x05BA [0x03] ExtData[1]->WorkLocal[5] = Work_Zone[2]
  1: 0x05BF [0x79] Monberaux (ID: 17776641/0x010F4001) looks at LocalPlayer (Basic look)
  2: 0x05C9 [0x03] Work_Zone[2] = ExtData[1]->WorkLocal[5]
  3: 0x05CE [0x1D] PRINT_EVENT_MESSAGE(message_id=13878*)
    → "I should have more than enough $0 for my current needs."
  4: 0x05D1 [0x23] WAIT_FOR_DIALOG_INTERACTION
  5: 0x05D2 [0x21] END_EVENT
  6: 0x05D3 [0x00] END_REQSTACK()
```
