# 17776652 - Brutus

## Common Data

| Field            | Value                 |
|------------------|-----------------------|
| Zone             | Upper Jeuno (ID: 244) |
| Block Size       | 3220 bytes            |
| Total Events     | 75                    |
| References Count | 163                   |

## List of Events

| Event ID                   | Entrypoint   |   Size |   Instructions |
|----------------------------|--------------|--------|----------------|
| [65535](#event-65535)      | 0x0000       |      1 |              1 |
| [1](#event-1)              | 0x0001       |     15 |              8 |
| [14](#event-14)            | 0x0010       |     20 |              9 |
| [17](#event-17)            | 0x0024       |      1 |              1 |
| [12](#event-12)            | 0x0025       |      1 |              1 |
| [65535.1](#event-655351)   | 0x0026       |     25 |              6 |
| [65535.2](#event-655352)   | 0x003F       |     15 |              5 |
| [65535.3](#event-655353)   | 0x004E       |     33 |              7 |
| [65535.4](#event-655354)   | 0x006F       |     32 |             10 |
| [15](#event-15)            | 0x008F       |    222 |             44 |
| [13](#event-13)            | 0x016D       |      1 |              1 |
| [16](#event-16)            | 0x016E       |     28 |             10 |
| [66](#event-66)            | 0x018A       |     32 |             11 |
| [71](#event-71)            | 0x01AA       |    288 |             69 |
| [65](#event-65)            | 0x02CA       |     29 |             11 |
| [99](#event-99)            | 0x02E7       |      1 |              1 |
| [102](#event-102)          | 0x02E8       |     19 |              8 |
| [64](#event-64)            | 0x02FB       |      1 |              1 |
| [22](#event-22)            | 0x02FC       |     18 |              7 |
| [70](#event-70)            | 0x030E       |      1 |              1 |
| [20](#event-20)            | 0x030F       |     26 |              9 |
| [139](#event-139)          | 0x0329       |    104 |             24 |
| [137](#event-137)          | 0x0391       |     78 |             26 |
| [136](#event-136)          | 0x03DF       |     18 |              8 |
| [138](#event-138)          | 0x03F1       |     63 |             13 |
| [134](#event-134)          | 0x0430       |     11 |              5 |
| [141](#event-141)          | 0x043B       |     99 |             20 |
| [143](#event-143)          | 0x049E       |    103 |             26 |
| [142](#event-142)          | 0x0505       |     22 |              8 |
| [144](#event-144)          | 0x051B       |     95 |             20 |
| [149](#event-149)          | 0x057A       |     19 |              8 |
| [135](#event-135)          | 0x058D       |    121 |             18 |
| [151](#event-151)          | 0x0606       |     13 |              7 |
| [140](#event-140)          | 0x0613       |     13 |              7 |
| [65535.5](#event-655355)   | 0x0620       |     48 |              8 |
| [65535.6](#event-655356)   | 0x0650       |     51 |              9 |
| [65535.7](#event-655357)   | 0x0683       |     39 |              9 |
| [65535.8](#event-655358)   | 0x06AA       |     29 |              7 |
| [65535.9](#event-655359)   | 0x06C7       |     30 |              8 |
| [65535.10](#event-6553510) | 0x06E5       |     19 |              3 |
| [65535.11](#event-6553511) | 0x06F8       |     19 |              3 |
| [65535.12](#event-6553512) | 0x070B       |     29 |              3 |
| [65535.13](#event-6553513) | 0x0728       |     29 |              3 |
| [65535.14](#event-6553514) | 0x0745       |      9 |              3 |
| [65535.15](#event-6553515) | 0x074E       |      1 |              1 |
| [10017](#event-10017)      | 0x074F       |      1 |              1 |
| [65535.16](#event-6553516) | 0x0750       |     12 |              3 |
| [65535.17](#event-6553517) | 0x075C       |     43 |             12 |
| [65535.18](#event-6553518) | 0x0787       |     10 |              2 |
| [65535.19](#event-6553519) | 0x0791       |     10 |              2 |
| [65535.20](#event-6553520) | 0x079B       |     10 |              2 |
| [65535.21](#event-6553521) | 0x07A5       |     15 |              5 |
| [65535.22](#event-6553522) | 0x07B4       |     15 |              5 |
| [10093](#event-10093)      | 0x07C3       |      1 |              1 |
| [65535.23](#event-6553523) | 0x07C4       |     15 |              3 |
| [65535.24](#event-6553524) | 0x07D3       |     31 |              7 |
| [65535.25](#event-6553525) | 0x07F2       |     14 |              4 |
| [65535.26](#event-6553526) | 0x0800       |     15 |              3 |
| [65535.27](#event-6553527) | 0x080F       |     14 |              4 |
| [65535.28](#event-6553528) | 0x081D       |     24 |              6 |
| [10094](#event-10094)      | 0x0835       |     30 |              8 |
| [10095](#event-10095)      | 0x0853       |      1 |              1 |
| [65535.29](#event-6553529) | 0x0854       |     28 |              6 |
| [10099](#event-10099)      | 0x0870       |     30 |              8 |
| [10100](#event-10100)      | 0x088E       |      1 |              1 |
| [65535.30](#event-6553530) | 0x088F       |     15 |              3 |
| [65535.31](#event-6553531) | 0x089E       |     15 |              3 |
| [65535.32](#event-6553532) | 0x08AD       |     10 |              2 |
| [10109](#event-10109)      | 0x08B7       |      1 |              1 |
| [10230](#event-10230)      | 0x08B8       |      1 |              1 |
| [10231](#event-10231)      | 0x08B9       |      1 |              1 |
| [10232](#event-10232)      | 0x08BA       |      1 |              1 |
| [10233](#event-10233)      | 0x08BB       |      1 |              1 |
| [10234](#event-10234)      | 0x08BC       |      1 |              1 |
| [65535.33](#event-6553533) | 0x08BD       |     14 |              4 |

## DAT References (imed_data)

|   Index | Hex Value   |   Dec Value |
|---------|-------------|-------------|
|       0 | 0x201B      |        8219 |
|       1 | 0x460D      |       17933 |
|       2 | 0x1FF6      |        8182 |
|       3 | 0x0009      |           9 |
|       4 | 0xFFFF235A  |  4294910810 |
|       5 | 0x17933     |       96563 |
|       6 | 0x2007      |        8199 |
|       7 | 0xFFFF2C59  |  4294913113 |
|       8 | 0x17A11     |       96785 |
|       9 | 0xFFFF2C95  |  4294913173 |
|      10 | 0x172E6     |       94950 |
|      11 | 0xFFFF212D  |  4294910253 |
|      12 | 0x16C36     |       93238 |
|      13 | 0xFFFF1FBD  |  4294909885 |
|      14 | 0x16D88     |       93576 |
|      15 | 0xFFFF16AE  |  4294907566 |
|      16 | 0x16EF4     |       93940 |
|      17 | 0x1FED      |        8173 |
|      18 | 0x0001      |           1 |
|      19 | 0x0000      |           0 |
|      20 | 0x1FEE      |        8174 |
|      21 | 0x0002      |           2 |
|      22 | 0x1FEF      |        8175 |
|      23 | 0x0041      |          65 |
|      24 | 0x1FF0      |        8176 |
|      25 | 0x1FF1      |        8177 |
|      26 | 0x1FF2      |        8178 |
|      27 | 0x1FF4      |        8180 |
|      28 | 0x1FF5      |        8181 |
|      29 | 0x1FF3      |        8179 |
|      30 | 0x0158      |         344 |
|      31 | 0x0159      |         345 |
|      32 | 0x1FFC      |        8188 |
|      33 | 0x1BC9      |        7113 |
|      34 | 0x1BBE      |        7102 |
|      35 | 0x1BCA      |        7114 |
|      36 | 0x1BBF      |        7103 |
|      37 | 0x1BC0      |        7104 |
|      38 | 0x1BCB      |        7115 |
|      39 | 0x1BC1      |        7105 |
|      40 | 0x1BCC      |        7116 |
|      41 | 0x1BCD      |        7117 |
|      42 | 0x1BC2      |        7106 |
|      43 | 0x1BC3      |        7107 |
|      44 | 0x1BC4      |        7108 |
|      45 | 0x1BCE      |        7118 |
|      46 | 0x1BC5      |        7109 |
|      47 | 0x1BCF      |        7119 |
|      48 | 0x1BD0      |        7120 |
|      49 | 0x1BD1      |        7121 |
|      50 | 0x1BC6      |        7110 |
|      51 | 0x1BC7      |        7111 |
|      52 | 0x1BC8      |        7112 |
|      53 | 0x1BDA      |        7130 |
|      54 | 0x1BD9      |        7129 |
|      55 | 0x008A      |         138 |
|      56 | 0x1BF7      |        7159 |
|      57 | 0x1C06      |        7174 |
|      58 | 0x1C23      |        7203 |
|      59 | 0x1C24      |        7204 |
|      60 | 0x00E8      |         232 |
|      61 | 0x1E1D      |        7709 |
|      62 | 0x1E1E      |        7710 |
|      63 | 0x1E1F      |        7711 |
|      64 | 0x1E20      |        7712 |
|      65 | 0x1E21      |        7713 |
|      66 | 0x1E23      |        7715 |
|      67 | 0x1E22      |        7714 |
|      68 | 0x1E24      |        7716 |
|      69 | 0x1E25      |        7717 |
|      70 | 0x1E26      |        7718 |
|      71 | 0x1E29      |        7721 |
|      72 | 0x1E2A      |        7722 |
|      73 | 0x1E2B      |        7723 |
|      74 | 0x00C9      |         201 |
|      75 | 0x1E2C      |        7724 |
|      76 | 0x1E2D      |        7725 |
|      77 | 0x1E2E      |        7726 |
|      78 | 0x00E5      |         229 |
|      79 | 0x1E2F      |        7727 |
|      80 | 0x1E30      |        7728 |
|      81 | 0x1E31      |        7729 |
|      82 | 0x1E32      |        7730 |
|      83 | 0x1E33      |        7731 |
|      84 | 0x1E34      |        7732 |
|      85 | 0x1E36      |        7734 |
|      86 | 0x1E37      |        7735 |
|      87 | 0x1E38      |        7736 |
|      88 | 0x1E39      |        7737 |
|      89 | 0x1E3A      |        7738 |
|      90 | 0x1E40      |        7744 |
|      91 | 0x1E41      |        7745 |
|      92 | 0x1E46      |        7750 |
|      93 | 0x000D      |          13 |
|      94 | 0xFFFF193E  |  4294908222 |
|      95 | 0x17886     |       96390 |
|      96 | 0xFFFF1589  |  4294907273 |
|      97 | 0x16FD8     |       94168 |
|      98 | 0x001E      |          30 |
|      99 | 0xFFFF1933  |  4294908211 |
|     100 | 0x17887     |       96391 |
|     101 | 0xFFFF157D  |  4294907261 |
|     102 | 0x16F03     |       93955 |
|     103 | 0xFFFF1DD7  |  4294909399 |
|     104 | 0x17CAA     |       97450 |
|     105 | 0x1F3F      |        7999 |
|     106 | 0x02C2      |         706 |
|     107 | 0x003C      |          60 |
|     108 | 0xFFFF3007  |  4294914055 |
|     109 | 0x1392C     |       80172 |
|     110 | 0x081A      |        2074 |
|     111 | 0x06B4      |        1716 |
|     112 | 0xFFFF1FAE  |  4294909870 |
|     113 | 0x131D6     |       78294 |
|     114 | 0xFFFF1A7C  |  4294908540 |
|     115 | 0x13160     |       78176 |
|     116 | 0x0006      |           6 |
|     117 | 0x0A1B      |        2587 |
|     118 | 0xFFFF1437  |  4294906935 |
|     119 | 0x13DAA     |       81322 |
|     120 | 0x0E8E      |        3726 |
|     121 | 0xFFFF0796  |  4294903702 |
|     122 | 0x1B8E9     |      112873 |
|     123 | 0x200C      |        8204 |
|     124 | 0x00D1      |         209 |
|     125 | 0xFFF661EB  |  4294337003 |
|     126 | 0x56046     |      352326 |
|     127 | 0xFFFFA0B9  |  4294942905 |
|     128 | 0x0361      |         865 |
|     129 | 0x000B      |          11 |
|     130 | 0xFFFF0CC3  |  4294905027 |
|     131 | 0x1441F     |       82975 |
|     132 | 0xFFFF1C9D  |  4294909085 |
|     133 | 0x1305F     |       77919 |
|     134 | 0xFFFF2C67  |  4294913127 |
|     135 | 0x16724     |       91940 |
|     136 | 0x02EE      |         750 |
|     137 | 0xFFFF4537  |  4294919479 |
|     138 | 0x16295     |       90773 |
|     139 | 0xFFFF318D  |  4294914445 |
|     140 | 0x16456     |       91222 |
|     141 | 0xFFFF2141  |  4294910273 |
|     142 | 0x17CEF     |       97519 |
|     143 | 0x0249      |         585 |
|     144 | 0xFFFF277A  |  4294911866 |
|     145 | 0x1702B     |       94251 |
|     146 | 0x0028      |          40 |
|     147 | 0x0B4A      |        2890 |
|     148 | 0x2B8D      |       11149 |
|     149 | 0x2B97      |       11159 |
|     150 | 0xFFFF29C5  |  4294912453 |
|     151 | 0x17179     |       94585 |
|     152 | 0x0090      |         144 |
|     153 | 0xFFFFDBDC  |  4294958044 |
|     154 | 0xFFFE7B7A  |  4294867834 |
|     155 | 0x0577      |        1399 |
|     156 | 0x08D0      |        2256 |
|     157 | 0xFFFF27ED  |  4294911981 |
|     158 | 0x171D0     |       94672 |
|     159 | 0x02C3      |         707 |
|     160 | 0xFFFF27CA  |  4294911946 |
|     161 | 0x169D6     |       92630 |
|     162 | 0x2008      |        8200 |

## String References

- **7102**: How am I supposed to work with you standin' there, huh? Scoot! You ain't got what it takes to handle chocobos.
- **7103**: How am I supposed to work with you standin' there, huh? Scoot! Or do you want to go chocobo ridin'?
- **7104**: You wanna ride a chocobo? [I sure do!/Not now.]
- **7105**: No offense, but would you mind not hangin' around here? I'm busy! I've got a flock to watch!
- **7106**: Not again... I see this a lot these days. Look, there's more than meets the eye when it comes to chocobos!
- **7107**: But a lot of folks abandon them nowadays. That's why there's so many wild chocobos now. It's all their fault. But you've never abandoned a chocobo, right?
- **7108**: Have you ever abandoned a chocobo? [Yes, I have./Nope, never.]
- **7109**: I knew it! You'll never ride a chocobo, ever! Step down, if you know what's good for you.
- **7110**: Yeah? Well, talk is cheap, buckaroo.
- **7111**: All right, then... See that chocobo? If it takes to you, I'll let you ride.
- **7112**: Now's your chance to show me what you're made of, buster!
- **7113**: Eh? So you wanna ride a chocobo, do ya? Ha! You don't look strong enough to even stay in the saddle!
- **7114**: What's your problem? You wanna ride a chocobo?
- **7115**: 'Zat so? I guess it wouldn't hurt to give it a try, now would it?
- **7116**: Of course ya do! Nowadays everyone wants to ride a chocobo! Why, this is a golden opportunity for you to step into the wide, wonderful world of avian delight...
- **7117**: Then again, you young people have a tendency to throw creatures away without a moment's thought. That's why there're more chocobos living out in the wild now than I ever dreamed of as a kid. You wouldn't dream of commiting such a terrifyin' act though, would ya?
- **7118**: You can't fool me. I know a good kid when I see one. The eyes give it away.
- **7119**: Of course you wouldn't!
- **7120**: Still, I can't grant you permission to ride so easily. The Vana'diel Chocobo Society'd never allow it.
- **7121**: I've got it... See that fine creature over yonder? If she takes to you, I'll let you ride her. Good luck, kid.
- **7129**: Well, bust my buttons! You still here? You ain't got what it takes, punk. Hit the road!
- **7130**: If that chocobo takes to you, I'll let you ride.
- **7159**: You got the right stuff, kiddo. So I'm sure he'll learn to like you. Just keep at it and you'll have your $3 in no time.
- **7709**: So, how ya been? What, do I look sad? Well, one of my chocobos passed away.
- **7710**: No, don't worry. It wasn't the one you saved. He's still kickin'!
- **7711**: It was the oldest bird in my flock. I got her way back when I was just learning, like you are now.
- **7712**: She was getting up there, after all. It's so sad to see one of your own go. You're a beastmaster. You understand, right?
- **7713**: Oh, that's right! If you're looking for work, I've got something for ya! I need someone to get $6 from Delkfutt's Tower.
- **7714**: What do you say? I need someone to get $6 that's hidden somewhere inside Delkfutt's Tower.
- **7715**: They say that a chocobo who wears one will go straight to Paradise. I never believe in such things except in times like these!
- **7716**: Do you accept? [Of course I do./Well, not right now.]
- **7717**: Thanks! I'm so sad over her death that I can't even muster the will to get out there myself.
- **7718**: Don't worry about it. Come back if you change your mind.
- **7721**: Please, find $6 hidden somewhere in Delkfutt's Tower.
- **7722**: Now we're talking! This'll make the chocobo's spirit happy! Here, this is all I have to give.
- **7723**: She may be gone, but her memory will always be here with us.
- **7729**: Well? How 'bout it? [I'll do it./No, I'm too busy right now.]
- **7744**: So, did that ghost finally go to rest? That's good. Here, I want you to have this.
- **7745**: But I still wonder... What was that Opo-opo spirit doing there?
- **7750**: Looks like the old wounds have healed. War's an awful thing, so we can't let it happen again. The animals would thank us, too.
- **8174**: What do you want? [I've lost the $1./I'm tired of testing the axe./Nothing at all.]
- **8178**: Really throw in the towel? [Yes./No.]
- **8182**: I don't know... I don't think I can decide yet. Whack up a few more monsters and then bring her back here for another look.
- **8188**: Take that $3 and head to the Temple of Uggalepih. Once you're there, find $6 and bring it back to me...but be careful now, hear?
- **8219**: See, Dietmund came back, just like I told you. I could tell it from his eyes. People ain't that different from chocobos, you know. You can always tell what they're thinking by taking a gander at their baby blues, or blacks, or whatever color they may be.
- **11149**: The chocobo that escaped probably headed for La Theine... Good luck finding him.
- **11159**: Sorry, but I think you should also attend the session. You're the one who last saw the chocobo before the change...

## Events

### Event 65535

#### Metadata

| Field        | Value   |
|--------------|---------|
| Entrypoint   | 0x0000  |
| Data Size    | 1 bytes |
| Instructions | 1       |

```
      00 01 02 03 04 05 06 07  08 09 0A 0B 0C 0D 0E 0F
      -- -- -- -- -- -- -- --  -- -- -- -- -- -- -- --
0000: 00                                                .               
```

#### Opcodes

```
  0: 0x0000 [0x00] END_REQSTACK()
```

### Event 1

#### Metadata

| Field        | Value    |
|--------------|----------|
| Entrypoint   | 0x0001   |
| Data Size    | 15 bytes |
| Instructions | 8        |

```
      00 01 02 03 04 05 06 07  08 09 0A 0B 0C 0D 0E 0F
      -- -- -- -- -- -- -- --  -- -- -- -- -- -- -- --
0000:    20 01 1E F0 FF FF 7F  6F 70 1D 00 80 23 21 00    ......op...#!.
```

#### Opcodes

```
  0: 0x0001 [0x20] SET_CLI_EVENT_UC_FLAG: Lock player control
  1: 0x0003 [0x1E] EventEntity looks at LocalPlayer and starts talking
  2: 0x0008 [0x6F] WAIT_FRAME_DELAY: Yield until WaitTime reaches zero
  3: 0x0009 [0x70] WAIT_ENTITY_RENDER_FLAG: Wait while EventEntity->Render.Flags3 bit 2 is set (cancel turn if not)
  4: 0x000A [0x1D] PRINT_EVENT_MESSAGE(message_id=8219*)
    → "See, Dietmund came back, just like I told you. I could tell it from his eyes. People ain't that different from chocobos, you know. You can always tell what they're thinking by taking a gander at their baby blues, or blacks, or whatever color they may be."
  5: 0x000D [0x23] WAIT_FOR_DIALOG_INTERACTION
  6: 0x000E [0x21] END_EVENT
  7: 0x000F [0x00] END_REQSTACK()
```

### Event 14

#### Metadata

| Field        | Value    |
|--------------|----------|
| Entrypoint   | 0x0010   |
| Data Size    | 20 bytes |
| Instructions | 9        |

```
      00 01 02 03 04 05 06 07  08 09 0A 0B 0C 0D 0E 0F
      -- -- -- -- -- -- -- --  -- -- -- -- -- -- -- --
0010: 20 01 1E F0 FF FF 7F 6F  70 03 02 10 01 80 1D 02   ......op.......
0020: 80 23 21 00                                       .#!.            
```

#### Opcodes

```
  0: 0x0010 [0x20] SET_CLI_EVENT_UC_FLAG: Lock player control
  1: 0x0012 [0x1E] EventEntity looks at LocalPlayer and starts talking
  2: 0x0017 [0x6F] WAIT_FRAME_DELAY: Yield until WaitTime reaches zero
  3: 0x0018 [0x70] WAIT_ENTITY_RENDER_FLAG: Wait while EventEntity->Render.Flags3 bit 2 is set (cancel turn if not)
  4: 0x0019 [0x03] Work_Zone[2] = 17933*
  5: 0x001E [0x1D] PRINT_EVENT_MESSAGE(message_id=8182*)
    → "I don't know... I don't think I can decide yet. Whack up a few more monsters and then bring her back here for another look."
  6: 0x0021 [0x23] WAIT_FOR_DIALOG_INTERACTION
  7: 0x0022 [0x21] END_EVENT
  8: 0x0023 [0x00] END_REQSTACK()
```

### Event 17

#### Metadata

| Field        | Value   |
|--------------|---------|
| Entrypoint   | 0x0024  |
| Data Size    | 1 bytes |
| Instructions | 1       |

```
      00 01 02 03 04 05 06 07  08 09 0A 0B 0C 0D 0E 0F
      -- -- -- -- -- -- -- --  -- -- -- -- -- -- -- --
0020:             00                                        .           
```

#### Opcodes

```
  0: 0x0024 [0x00] END_REQSTACK()
```

### Event 12

#### Metadata

| Field        | Value   |
|--------------|---------|
| Entrypoint   | 0x0025  |
| Data Size    | 1 bytes |
| Instructions | 1       |

```
      00 01 02 03 04 05 06 07  08 09 0A 0B 0C 0D 0E 0F
      -- -- -- -- -- -- -- --  -- -- -- -- -- -- -- --
0020:                00                                      .          
```

#### Opcodes

```
  0: 0x0025 [0x00] END_REQSTACK()
```

### Event 65535.1

#### Metadata

| Field        | Value    |
|--------------|----------|
| Entrypoint   | 0x0026   |
| Data Size    | 25 bytes |
| Instructions | 6        |

```
      00 01 02 03 04 05 06 07  08 09 0A 0B 0C 0D 0E 0F
      -- -- -- -- -- -- -- --  -- -- -- -- -- -- -- --
0020:                   32 03  80 1F 00 04 80 05 80 06        2.........
0030: 80 1F 01 6F 79 00 0C 40  0F 01 F0 FF FF 7F 00     ...oy..@....... 
```

#### Opcodes

```
  0: 0x0026 [0x32] ExtData[1]->MainSpeed = 9* * 0.1
  1: 0x0029 [0x1F] MOVE_ENTITY: EventEntity moves to X=-56.486*, Z=96.563*, Y=8.199*
  2: 0x0031 [0x1F] MOVE_ENTITY: Update entity position (mode=1)
  3: 0x0033 [0x6F] WAIT_FRAME_DELAY: Yield until WaitTime reaches zero
  4: 0x0034 [0x79] Brutus (ID: 17776652/0x010F400C) looks at LocalPlayer (Basic look)
  5: 0x003E [0x00] END_REQSTACK()
```

### Event 65535.2

#### Metadata

| Field        | Value    |
|--------------|----------|
| Entrypoint   | 0x003F   |
| Data Size    | 15 bytes |
| Instructions | 5        |

```
      00 01 02 03 04 05 06 07  08 09 0A 0B 0C 0D 0E 0F
      -- -- -- -- -- -- -- --  -- -- -- -- -- -- -- --
0030:                                               32                 2
0040: 03 80 1F 00 07 80 08 80  06 80 1F 01 6F 00        ............o.  
```

#### Opcodes

```
  0: 0x003F [0x32] ExtData[1]->MainSpeed = 9* * 0.1
  1: 0x0042 [0x1F] MOVE_ENTITY: EventEntity moves to X=-54.183*, Z=96.785*, Y=8.199*
  2: 0x004A [0x1F] MOVE_ENTITY: Update entity position (mode=1)
  3: 0x004C [0x6F] WAIT_FRAME_DELAY: Yield until WaitTime reaches zero
  4: 0x004D [0x00] END_REQSTACK()
```

### Event 65535.3

#### Metadata

| Field        | Value    |
|--------------|----------|
| Entrypoint   | 0x004E   |
| Data Size    | 33 bytes |
| Instructions | 7        |

```
      00 01 02 03 04 05 06 07  08 09 0A 0B 0C 0D 0E 0F
      -- -- -- -- -- -- -- --  -- -- -- -- -- -- -- --
0040:                                            32 03                2.
0050: 80 1F 00 09 80 0A 80 06  80 1F 01 4A 0F 40 0F 01  ...........J.@..
0060: 0C 40 0F 01 1F 00 0B 80  0C 80 06 80 1F 01 00     .@............. 
```

#### Opcodes

```
  0: 0x004E [0x32] ExtData[1]->MainSpeed = 9* * 0.1
  1: 0x0051 [0x1F] MOVE_ENTITY: EventEntity moves to X=-54.123*, Z=94.950*, Y=8.199*
  2: 0x0059 [0x1F] MOVE_ENTITY: Update entity position (mode=1)
  3: 0x005B [0x4A] Dietmund (ID: 17776655/0x010F400F) looks at Brutus (ID: 17776652/0x010F400C)
  4: 0x0064 [0x1F] MOVE_ENTITY: EventEntity moves to X=-57.043*, Z=93.238*, Y=8.199*
  5: 0x006C [0x1F] MOVE_ENTITY: Update entity position (mode=1)
  6: 0x006E [0x00] END_REQSTACK()
```

### Event 65535.4

#### Metadata

| Field        | Value    |
|--------------|----------|
| Entrypoint   | 0x006F   |
| Data Size    | 32 bytes |
| Instructions | 10       |

```
      00 01 02 03 04 05 06 07  08 09 0A 0B 0C 0D 0E 0F
      -- -- -- -- -- -- -- --  -- -- -- -- -- -- -- --
0060:                                               32                 2
0070: 03 80 1F 00 0D 80 0E 80  06 80 1F 01 1F 00 0F 80  ................
0080: 10 80 06 80 1F 01 6F 1E  0F 40 0F 01 6F 70 00     ......o..@..op. 
```

#### Opcodes

```
  0: 0x006F [0x32] ExtData[1]->MainSpeed = 9* * 0.1
  1: 0x0072 [0x1F] MOVE_ENTITY: EventEntity moves to X=-57.411*, Z=93.576*, Y=8.199*
  2: 0x007A [0x1F] MOVE_ENTITY: Update entity position (mode=1)
  3: 0x007C [0x1F] MOVE_ENTITY: EventEntity moves to X=-59.730*, Z=93.940*, Y=8.199*
  4: 0x0084 [0x1F] MOVE_ENTITY: Update entity position (mode=1)
  5: 0x0086 [0x6F] WAIT_FRAME_DELAY: Yield until WaitTime reaches zero
  6: 0x0087 [0x1E] EventEntity looks at Dietmund (ID: 17776655/0x010F400F) and starts talking
  7: 0x008C [0x6F] WAIT_FRAME_DELAY: Yield until WaitTime reaches zero
  8: 0x008D [0x70] WAIT_ENTITY_RENDER_FLAG: Wait while EventEntity->Render.Flags3 bit 2 is set (cancel turn if not)
  9: 0x008E [0x00] END_REQSTACK()
```

### Event 15

#### Metadata

| Field        | Value     |
|--------------|-----------|
| Entrypoint   | 0x008F    |
| Data Size    | 222 bytes |
| Instructions | 44        |

```
      00 01 02 03 04 05 06 07  08 09 0A 0B 0C 0D 0E 0F
      -- -- -- -- -- -- -- --  -- -- -- -- -- -- -- --
0080:                                               20                  
0090: 01 42 1E F0 FF FF 7F 6F  70 03 03 10 01 80 2B 0C  .B.....op.....+.
00A0: 40 0F 01 11 80 23 06 00  00 02 02 10 12 80 00 B8  @....#..........
00B0: 00 3C 00 00 13 80 12 80  06 01 10 24 14 80 15 80  .<.........$....
00C0: 00 00 25 02 00 10 13 80  00 FF 00 2B 0C 40 0F 01  ..%........+.@..
00D0: 16 80 23 5B 17 80 F8 FF  FF 7F F8 FF FF 7F 70 61  ..#[..........pa
00E0: 73 30 2B 0C 40 0F 01 18  80 23 53 F8 FF FF 7F F8  s0+.@....#S.....
00F0: FF FF 7F 70 61 73 30 03  01 10 12 80 01 6B 01 02  ...pas0......k..
0100: 00 10 12 80 00 6B 01 5B  17 80 F8 FF FF 7F F8 FF  .....k.[........
0110: FF 7F 74 68 6B 31 2B 0C  40 0F 01 19 80 23 24 1A  ..thk1+.@....#$.
0120: 80 12 80 13 80 25 5B 17  80 F8 FF FF 7F F8 FF FF  .....%[.........
0130: 7F 74 68 6B 32 02 00 10  13 80 00 55 01 2B 0C 40  .thk2......U.+.@
0140: 0F 01 1B 80 23 2B 0C 40  0F 01 1C 80 23 03 01 10  ....#+.@....#...
0150: 15 80 01 68 01 02 00 10  12 80 00 68 01 2B 0C 40  ...h.......h.+.@
0160: 0F 01 1D 80 23 01 68 01  01 6B 01 21 00           ....#.h..k.!.   
```

#### Opcodes

```
  0: 0x008F [0x20] SET_CLI_EVENT_UC_FLAG: Lock player control
  1: 0x0091 [0x42] SET_CLI_EVENT_CANCEL_DATA()
  2: 0x0092 [0x1E] EventEntity looks at LocalPlayer and starts talking
  3: 0x0097 [0x6F] WAIT_FRAME_DELAY: Yield until WaitTime reaches zero
  4: 0x0098 [0x70] WAIT_ENTITY_RENDER_FLAG: Wait while EventEntity->Render.Flags3 bit 2 is set (cancel turn if not)
  5: 0x0099 [0x03] Work_Zone[3] = 17933*
  6: 0x009E [0x2B] Brutus (ID: 17776652/0x010F400C) [8173*]:
    → "When you feel the axe has sliced her last slice, show her to me, and I'll decide if we're to continue or not. Or are you here on other business?"
  7: 0x00A5 [0x23] WAIT_FOR_DIALOG_INTERACTION
  8: 0x00A6 [0x06] ExtData[1]->WorkLocal[0] = 0
  9: 0x00A9 [0x02] IF !(Work_Zone[2] == 1*) GOTO 0x00B8
 10: 0x00B1 [0x3C] SET_BIT_FLAG_CONDITIONAL(target_work_offset=ExtData[1]->WorkLocal[0], bit_index_work_offset=0*, condition_work_offset=1*)
 11: 0x00B8 [0x06] Work_Zone[1] = 0
 12: 0x00BB [0x24] CREATE_DIALOG(message_id=8174*, default_option=2*, option_flags=ExtData[1]->WorkLocal[0])
    → "What do you want? [I've lost the $1./I'm tired of testing the axe./Nothing at all.]"
 13: 0x00C2 [0x25] WAIT_DIALOG_SELECT()
 14: 0x00C3 [0x02] IF !(Work_Zone[0] == 0*) GOTO 0x00FF
 15: 0x00CB [0x2B] Brutus (ID: 17776652/0x010F400C) [8175*]:
    → "You've what? Oh well, the Tenshodo guy gave me a box full of these axes, so I could care less if you used 'em to shave your cat's whiskers."
 16: 0x00D2 [0x23] WAIT_FOR_DIALOG_INTERACTION
 17: 0x00D3 [0x5B] LOAD_EXT_SCHEDULER: Load scheduler "pas0" with entities [EventEntity, EventEntity], work=65*
 18: 0x00E2 [0x2B] Brutus (ID: 17776652/0x010F400C) [8176*]:
    → "Here, take another one. But you know this means that you're going to have to start all over now, right?"
 19: 0x00E9 [0x23] WAIT_FOR_DIALOG_INTERACTION
 20: 0x00EA [0x53] WAIT_SCHEDULER_TASK: Wait for scheduler "pas0" with entities [EventEntity, EventEntity]
 21: 0x00F7 [0x03] Work_Zone[1] = 1*
 22: 0x00FC [0x01] GOTO 0x016B
 23: 0x00FF [0x02] IF !(Work_Zone[0] == 1*) GOTO 0x016B
 24: 0x0107 [0x5B] LOAD_EXT_SCHEDULER: Load scheduler "thk1" with entities [EventEntity, EventEntity], work=65*
 25: 0x0116 [0x2B] Brutus (ID: 17776652/0x010F400C) [8177*]:
    → "Don't tell me that you're throwing in the towel? C'mon now. I've got a lot of work to do, and there aren't many kind folk out there that would help an old cowboy like me."
 26: 0x011D [0x23] WAIT_FOR_DIALOG_INTERACTION
 27: 0x011E [0x24] CREATE_DIALOG(message_id=8178*, default_option=1*, option_flags=0*)
    → "Really throw in the towel? [Yes./No.]"
 28: 0x0125 [0x25] WAIT_DIALOG_SELECT()
 29: 0x0126 [0x5B] LOAD_EXT_SCHEDULER: Load scheduler "thk2" with entities [EventEntity, EventEntity], work=65*
 30: 0x0135 [0x02] IF !(Work_Zone[0] == 0*) GOTO 0x0155
 31: 0x013D [0x2B] Brutus (ID: 17776652/0x010F400C) [8180*]:
    → "Boy, you young folk these days have no respect. You give somebody your word, and then you go back on it like it don't mean nothing at all."
 32: 0x0144 [0x23] WAIT_FOR_DIALOG_INTERACTION
 33: 0x0145 [0x2B] Brutus (ID: 17776652/0x010F400C) [8181*]:
    → "I guess I'll just have to find somebody else to help me out. Now take that axe of yours and skedaddle."
 34: 0x014C [0x23] WAIT_FOR_DIALOG_INTERACTION
 35: 0x014D [0x03] Work_Zone[1] = 2*
 36: 0x0152 [0x01] GOTO 0x0168
 37: 0x0155 [0x02] IF !(Work_Zone[0] == 1*) GOTO 0x0168
 38: 0x015D [0x2B] Brutus (ID: 17776652/0x010F400C) [8179*]:
    → "I knew you'd come through for me, <Player>. Now get out there and get chopping! Take your time if you're busy with your other adventuring."
 39: 0x0164 [0x23] WAIT_FOR_DIALOG_INTERACTION
 40: 0x0165 [0x01] GOTO 0x0168

SUBROUTINE_0168:
 41: 0x0168 [0x01] GOTO 0x016B

SUBROUTINE_016B:
 42: 0x016B [0x21] END_EVENT
 43: 0x016C [0x00] END_REQSTACK()
```

### Event 13

#### Metadata

| Field        | Value   |
|--------------|---------|
| Entrypoint   | 0x016D  |
| Data Size    | 1 bytes |
| Instructions | 1       |

```
      00 01 02 03 04 05 06 07  08 09 0A 0B 0C 0D 0E 0F
      -- -- -- -- -- -- -- --  -- -- -- -- -- -- -- --
0160:                                         00                     .  
```

#### Opcodes

```
  0: 0x016D [0x00] END_REQSTACK()
```

### Event 16

#### Metadata

| Field        | Value    |
|--------------|----------|
| Entrypoint   | 0x016E   |
| Data Size    | 28 bytes |
| Instructions | 9        |

```
      00 01 02 03 04 05 06 07  08 09 0A 0B 0C 0D 0E 0F
      -- -- -- -- -- -- -- --  -- -- -- -- -- -- -- --
0160:                                            1E F0                ..
0170: FF FF 7F 6F 76 F8 FF FF  7F 03 03 10 1E 80 03 04  ...ov...........
0180: 10 1F 80 1D 20 80 23 21  00 00                    .... .#!..      
```

#### Opcodes

```
  0: 0x016E [0x1E] EventEntity looks at LocalPlayer and starts talking
  1: 0x0173 [0x6F] WAIT_FRAME_DELAY: Yield until WaitTime reaches zero
  2: 0x0174 [0x76] CHECK_ENTITY_RENDER_FLAGS: Wait until EventEntity Render.Flags0 and Render.Flags3 conditions are met
  3: 0x0179 [0x03] Work_Zone[3] = 344*
  4: 0x017E [0x03] Work_Zone[4] = 345*
  5: 0x0183 [0x1D] PRINT_EVENT_MESSAGE(message_id=8188*)
    → "Take that $3 and head to the Temple of Uggalepih. Once you're there, find $6 and bring it back to me...but be careful now, hear?"
  6: 0x0186 [0x23] WAIT_FOR_DIALOG_INTERACTION
  7: 0x0187 [0x21] END_EVENT
  8: 0x0188 [0x00] END_REQSTACK()
```

#### Data or dead code:

```
# Dead code (unreachable instructions):
     0x0189 [0x00] END_REQSTACK()
```

### Event 66

#### Metadata

| Field        | Value    |
|--------------|----------|
| Entrypoint   | 0x018A   |
| Data Size    | 32 bytes |
| Instructions | 11       |

```
      00 01 02 03 04 05 06 07  08 09 0A 0B 0C 0D 0E 0F
      -- -- -- -- -- -- -- --  -- -- -- -- -- -- -- --
0180:                                1E F0 FF FF 7F 6F            .....o
0190: 76 F8 FF FF 7F 02 02 10  12 80 00 A4 01 1D 21 80  v.............!.
01A0: 23 01 A8 01 1D 22 80 23  21 00                    #....".#!.      
```

#### Opcodes

```
  0: 0x018A [0x1E] EventEntity looks at LocalPlayer and starts talking
  1: 0x018F [0x6F] WAIT_FRAME_DELAY: Yield until WaitTime reaches zero
  2: 0x0190 [0x76] CHECK_ENTITY_RENDER_FLAGS: Wait until EventEntity Render.Flags0 and Render.Flags3 conditions are met
  3: 0x0195 [0x02] IF !(Work_Zone[2] == 1*) GOTO 0x01A4
  4: 0x019D [0x1D] PRINT_EVENT_MESSAGE(message_id=7113*)
    → "Eh? So you wanna ride a chocobo, do ya? Ha! You don't look strong enough to even stay in the saddle!"
  5: 0x01A0 [0x23] WAIT_FOR_DIALOG_INTERACTION
  6: 0x01A1 [0x01] GOTO 0x01A8
  7: 0x01A4 [0x1D] PRINT_EVENT_MESSAGE(message_id=7102*)
    → "How am I supposed to work with you standin' there, huh? Scoot! You ain't got what it takes to handle chocobos."
  8: 0x01A7 [0x23] WAIT_FOR_DIALOG_INTERACTION

SUBROUTINE_01A8:
  9: 0x01A8 [0x21] END_EVENT
 10: 0x01A9 [0x00] END_REQSTACK()
```

### Event 71

#### Metadata

| Field        | Value     |
|--------------|-----------|
| Entrypoint   | 0x01AA    |
| Data Size    | 288 bytes |
| Instructions | 64        |

```
      00 01 02 03 04 05 06 07  08 09 0A 0B 0C 0D 0E 0F
      -- -- -- -- -- -- -- --  -- -- -- -- -- -- -- --
01A0:                                20 01 42 1E F0 FF             .B...
01B0: FF 7F 5B 17 80 F8 FF FF  7F F8 FF FF 7F 74 6C 6B  ..[..........tlk
01C0: 30 02 02 10 12 80 00 D0  01 1D 23 80 23 01 D4 01  0.........#.#...
01D0: 1D 24 80 23 5B 17 80 F8  FF FF 7F F8 FF FF 7F 74  .$.#[..........t
01E0: 6C 6B 31 24 25 80 12 80  13 80 25 02 00 10 12 80  lk1$%.....%.....
01F0: 00 0C 02 02 02 10 12 80  00 02 02 1D 26 80 23 01  ............&.#.
0200: 06 02 1D 27 80 23 01 C8  02 01 0C 02 5B 17 80 F8  ...'.#......[...
0210: FF FF 7F F8 FF FF 7F 74  68 6B 31 02 02 10 12 80  .......thk1.....
0220: 00 2E 02 1D 28 80 23 1D  29 80 23 01 36 02 1D 2A  ....(.#.).#.6..*
0230: 80 23 1D 2B 80 23 53 F8  FF FF 7F F8 FF FF 7F 74  .#.+.#S........t
0240: 68 6B 31 5B 17 80 F8 FF  FF 7F F8 FF FF 7F 74 68  hk1[..........th
0250: 6B 32 53 F8 FF FF 7F F8  FF FF 7F 74 68 6B 32 24  k2S........thk2$
0260: 2C 80 12 80 13 80 25 02  00 10 13 80 00 88 02 02  ,.....%.........
0270: 02 10 12 80 00 7E 02 1D  2D 80 23 01 82 02 1D 2E  .....~..-.#.....
0280: 80 23 01 C8 02 01 96 02  02 00 10 12 80 00 96 02  .#..............
0290: 05 01 10 01 96 02 02 02  10 12 80 00 B2 02 1D 2F  .............../
02A0: 80 23 1D 30 80 23 1E 0A  40 0F 01 1D 31 80 23 01  .#.0.#..@...1.#.
02B0: C8 02 1D 32 80 23 1E 0A  40 0F 01 1D 33 80 23 1E  ...2.#..@...3.#.
02C0: F0 FF FF 7F 1D 34 80 23  21 00                    .....4.#!.      
```

#### Opcodes

```
  0: 0x01AA [0x20] SET_CLI_EVENT_UC_FLAG: Lock player control
  1: 0x01AC [0x42] SET_CLI_EVENT_CANCEL_DATA()
  2: 0x01AD [0x1E] EventEntity looks at LocalPlayer and starts talking
  3: 0x01B2 [0x5B] LOAD_EXT_SCHEDULER: Load scheduler "tlk0" with entities [EventEntity, EventEntity], work=65*
  4: 0x01C1 [0x02] IF !(Work_Zone[2] == 1*) GOTO 0x01D0
  5: 0x01C9 [0x1D] PRINT_EVENT_MESSAGE(message_id=7114*)
    → "What's your problem? You wanna ride a chocobo?"
  6: 0x01CC [0x23] WAIT_FOR_DIALOG_INTERACTION
  7: 0x01CD [0x01] GOTO 0x01D4
  8: 0x01D0 [0x1D] PRINT_EVENT_MESSAGE(message_id=7103*)
    → "How am I supposed to work with you standin' there, huh? Scoot! Or do you want to go chocobo ridin'?"
  9: 0x01D3 [0x23] WAIT_FOR_DIALOG_INTERACTION

SUBROUTINE_01D4:
 10: 0x01D4 [0x5B] LOAD_EXT_SCHEDULER: Load scheduler "tlk1" with entities [EventEntity, EventEntity], work=65*
 11: 0x01E3 [0x24] CREATE_DIALOG(message_id=7104*, default_option=1*, option_flags=0*)
    → "You wanna ride a chocobo? [I sure do!/Not now.]"
 12: 0x01EA [0x25] WAIT_DIALOG_SELECT()
 13: 0x01EB [0x02] IF !(Work_Zone[0] == 1*) GOTO 0x020C
 14: 0x01F3 [0x02] IF !(Work_Zone[2] == 1*) GOTO 0x0202
 15: 0x01FB [0x1D] PRINT_EVENT_MESSAGE(message_id=7115*)
    → "'Zat so? I guess it wouldn't hurt to give it a try, now would it?"
 16: 0x01FE [0x23] WAIT_FOR_DIALOG_INTERACTION
 17: 0x01FF [0x01] GOTO 0x0206
 18: 0x0202 [0x1D] PRINT_EVENT_MESSAGE(message_id=7105*)
    → "No offense, but would you mind not hangin' around here? I'm busy! I've got a flock to watch!"
 19: 0x0205 [0x23] WAIT_FOR_DIALOG_INTERACTION

SUBROUTINE_0206:
 20: 0x0206 [0x01] GOTO 0x02C8

SUBROUTINE_020C:
 21: 0x020C [0x5B] LOAD_EXT_SCHEDULER: Load scheduler "thk1" with entities [EventEntity, EventEntity], work=65*
 22: 0x021B [0x02] IF !(Work_Zone[2] == 1*) GOTO 0x022E
 23: 0x0223 [0x1D] PRINT_EVENT_MESSAGE(message_id=7116*)
    → "Of course ya do! Nowadays everyone wants to ride a chocobo! Why, this is a golden opportunity for you to step into the wide, wonderful world of avian delight..."
 24: 0x0226 [0x23] WAIT_FOR_DIALOG_INTERACTION
 25: 0x0227 [0x1D] PRINT_EVENT_MESSAGE(message_id=7117*)
    → "Then again, you young people have a tendency to throw creatures away without a moment's thought. That's why there're more chocobos living out in the wild now than I ever dreamed of as a kid. You wouldn't dream of commiting such a terrifyin' act though, would ya?"
 26: 0x022A [0x23] WAIT_FOR_DIALOG_INTERACTION
 27: 0x022B [0x01] GOTO 0x0236
 28: 0x022E [0x1D] PRINT_EVENT_MESSAGE(message_id=7106*)
    → "Not again... I see this a lot these days. Look, there's more than meets the eye when it comes to chocobos!"
 29: 0x0231 [0x23] WAIT_FOR_DIALOG_INTERACTION
 30: 0x0232 [0x1D] PRINT_EVENT_MESSAGE(message_id=7107*)
    → "But a lot of folks abandon them nowadays. That's why there's so many wild chocobos now. It's all their fault. But you've never abandoned a chocobo, right?"
 31: 0x0235 [0x23] WAIT_FOR_DIALOG_INTERACTION

SUBROUTINE_0236:
 32: 0x0236 [0x53] WAIT_SCHEDULER_TASK: Wait for scheduler "thk1" with entities [EventEntity, EventEntity]
 33: 0x0243 [0x5B] LOAD_EXT_SCHEDULER: Load scheduler "thk2" with entities [EventEntity, EventEntity], work=65*
 34: 0x0252 [0x53] WAIT_SCHEDULER_TASK: Wait for scheduler "thk2" with entities [EventEntity, EventEntity]
 35: 0x025F [0x24] CREATE_DIALOG(message_id=7108*, default_option=1*, option_flags=0*)
    → "Have you ever abandoned a chocobo? [Yes, I have./Nope, never.]"
 36: 0x0266 [0x25] WAIT_DIALOG_SELECT()
 37: 0x0267 [0x02] IF !(Work_Zone[0] == 0*) GOTO 0x0288
 38: 0x026F [0x02] IF !(Work_Zone[2] == 1*) GOTO 0x027E
 39: 0x0277 [0x1D] PRINT_EVENT_MESSAGE(message_id=7118*)
    → "You can't fool me. I know a good kid when I see one. The eyes give it away."
 40: 0x027A [0x23] WAIT_FOR_DIALOG_INTERACTION
 41: 0x027B [0x01] GOTO 0x0282
 42: 0x027E [0x1D] PRINT_EVENT_MESSAGE(message_id=7109*)
    → "I knew it! You'll never ride a chocobo, ever! Step down, if you know what's good for you."
 43: 0x0281 [0x23] WAIT_FOR_DIALOG_INTERACTION

SUBROUTINE_0282:
 44: 0x0282 [0x01] GOTO 0x02C8

SUBROUTINE_0296:
 45: 0x0296 [0x02] IF !(Work_Zone[2] == 1*) GOTO 0x02B2
 46: 0x029E [0x1D] PRINT_EVENT_MESSAGE(message_id=7119*)
    → "Of course you wouldn't!"
 47: 0x02A1 [0x23] WAIT_FOR_DIALOG_INTERACTION
 48: 0x02A2 [0x1D] PRINT_EVENT_MESSAGE(message_id=7120*)
    → "Still, I can't grant you permission to ride so easily. The Vana'diel Chocobo Society'd never allow it."
 49: 0x02A5 [0x23] WAIT_FOR_DIALOG_INTERACTION
 50: 0x02A6 [0x1E] EventEntity looks at Chocobo (ID: 17776650/0x010F400A) and starts talking
 51: 0x02AB [0x1D] PRINT_EVENT_MESSAGE(message_id=7121*)
    → "I've got it... See that fine creature over yonder? If she takes to you, I'll let you ride her. Good luck, kid."
 52: 0x02AE [0x23] WAIT_FOR_DIALOG_INTERACTION
 53: 0x02AF [0x01] GOTO 0x02C8
 54: 0x02B2 [0x1D] PRINT_EVENT_MESSAGE(message_id=7110*)
    → "Yeah? Well, talk is cheap, buckaroo."
 55: 0x02B5 [0x23] WAIT_FOR_DIALOG_INTERACTION
 56: 0x02B6 [0x1E] EventEntity looks at Chocobo (ID: 17776650/0x010F400A) and starts talking
 57: 0x02BB [0x1D] PRINT_EVENT_MESSAGE(message_id=7111*)
    → "All right, then... See that chocobo? If it takes to you, I'll let you ride."
 58: 0x02BE [0x23] WAIT_FOR_DIALOG_INTERACTION
 59: 0x02BF [0x1E] EventEntity looks at LocalPlayer and starts talking
 60: 0x02C4 [0x1D] PRINT_EVENT_MESSAGE(message_id=7112*)
    → "Now's your chance to show me what you're made of, buster!"
 61: 0x02C7 [0x23] WAIT_FOR_DIALOG_INTERACTION

SUBROUTINE_02C8:
 62: 0x02C8 [0x21] END_EVENT
 63: 0x02C9 [0x00] END_REQSTACK()
```

#### Data or dead code:

```
# Dead code (unreachable instructions):
     0x0209 [0x01] GOTO 0x020C
# Dead code (unreachable instructions):
     0x0285 [0x01] GOTO 0x0296
```

### Event 65

#### Metadata

| Field        | Value    |
|--------------|----------|
| Entrypoint   | 0x02CA   |
| Data Size    | 29 bytes |
| Instructions | 11       |

```
      00 01 02 03 04 05 06 07  08 09 0A 0B 0C 0D 0E 0F
      -- -- -- -- -- -- -- --  -- -- -- -- -- -- -- --
02C0:                                20 01 42 1E F0 FF             .B...
02D0: FF 7F 02 02 10 12 80 00  E1 02 1D 35 80 23 01 E5  ...........5.#..
02E0: 02 1D 36 80 23 21 00                              ..6.#!.         
```

#### Opcodes

```
  0: 0x02CA [0x20] SET_CLI_EVENT_UC_FLAG: Lock player control
  1: 0x02CC [0x42] SET_CLI_EVENT_CANCEL_DATA()
  2: 0x02CD [0x1E] EventEntity looks at LocalPlayer and starts talking
  3: 0x02D2 [0x02] IF !(Work_Zone[2] == 1*) GOTO 0x02E1
  4: 0x02DA [0x1D] PRINT_EVENT_MESSAGE(message_id=7130*)
    → "If that chocobo takes to you, I'll let you ride."
  5: 0x02DD [0x23] WAIT_FOR_DIALOG_INTERACTION
  6: 0x02DE [0x01] GOTO 0x02E5
  7: 0x02E1 [0x1D] PRINT_EVENT_MESSAGE(message_id=7129*)
    → "Well, bust my buttons! You still here? You ain't got what it takes, punk. Hit the road!"
  8: 0x02E4 [0x23] WAIT_FOR_DIALOG_INTERACTION

SUBROUTINE_02E5:
  9: 0x02E5 [0x21] END_EVENT
 10: 0x02E6 [0x00] END_REQSTACK()
```

### Event 99

#### Metadata

| Field        | Value   |
|--------------|---------|
| Entrypoint   | 0x02E7  |
| Data Size    | 1 bytes |
| Instructions | 1       |

```
      00 01 02 03 04 05 06 07  08 09 0A 0B 0C 0D 0E 0F
      -- -- -- -- -- -- -- --  -- -- -- -- -- -- -- --
02E0:                      00                                  .        
```

#### Opcodes

```
  0: 0x02E7 [0x00] END_REQSTACK()
```

### Event 102

#### Metadata

| Field        | Value    |
|--------------|----------|
| Entrypoint   | 0x02E8   |
| Data Size    | 19 bytes |
| Instructions | 8        |

```
      00 01 02 03 04 05 06 07  08 09 0A 0B 0C 0D 0E 0F
      -- -- -- -- -- -- -- --  -- -- -- -- -- -- -- --
02E0:                          20 01 42 1E F0 FF FF 7F           .B.....
02F0: 03 09 10 37 80 1D 38 80  23 21 00                 ...7..8.#!.     
```

#### Opcodes

```
  0: 0x02E8 [0x20] SET_CLI_EVENT_UC_FLAG: Lock player control
  1: 0x02EA [0x42] SET_CLI_EVENT_CANCEL_DATA()
  2: 0x02EB [0x1E] EventEntity looks at LocalPlayer and starts talking
  3: 0x02F0 [0x03] Work_Zone[9] = 138*
  4: 0x02F5 [0x1D] PRINT_EVENT_MESSAGE(message_id=7159*)
    → "You got the right stuff, kiddo. So I'm sure he'll learn to like you. Just keep at it and you'll have your $3 in no time."
  5: 0x02F8 [0x23] WAIT_FOR_DIALOG_INTERACTION
  6: 0x02F9 [0x21] END_EVENT
  7: 0x02FA [0x00] END_REQSTACK()
```

### Event 64

#### Metadata

| Field        | Value   |
|--------------|---------|
| Entrypoint   | 0x02FB  |
| Data Size    | 1 bytes |
| Instructions | 1       |

```
      00 01 02 03 04 05 06 07  08 09 0A 0B 0C 0D 0E 0F
      -- -- -- -- -- -- -- --  -- -- -- -- -- -- -- --
02F0:                                   00                         .    
```

#### Opcodes

```
  0: 0x02FB [0x00] END_REQSTACK()
```

### Event 22

#### Metadata

| Field        | Value    |
|--------------|----------|
| Entrypoint   | 0x02FC   |
| Data Size    | 18 bytes |
| Instructions | 7        |

```
      00 01 02 03 04 05 06 07  08 09 0A 0B 0C 0D 0E 0F
      -- -- -- -- -- -- -- --  -- -- -- -- -- -- -- --
02F0:                                      20 01 42 1E               .B.
0300: F0 FF FF 7F 2B 0C 40 0F  01 39 80 23 21 00        ....+.@..9.#!.  
```

#### Opcodes

```
  0: 0x02FC [0x20] SET_CLI_EVENT_UC_FLAG: Lock player control
  1: 0x02FE [0x42] SET_CLI_EVENT_CANCEL_DATA()
  2: 0x02FF [0x1E] EventEntity looks at LocalPlayer and starts talking
  3: 0x0304 [0x2B] Brutus (ID: 17776652/0x010F400C) [7174*]:
    → "If you can read their minds, you might have what it takes to be a beastmaster. But no teachin' can help you there... No sirree!"
  4: 0x030B [0x23] WAIT_FOR_DIALOG_INTERACTION
  5: 0x030C [0x21] END_EVENT
  6: 0x030D [0x00] END_REQSTACK()
```

### Event 70

#### Metadata

| Field        | Value   |
|--------------|---------|
| Entrypoint   | 0x030E  |
| Data Size    | 1 bytes |
| Instructions | 1       |

```
      00 01 02 03 04 05 06 07  08 09 0A 0B 0C 0D 0E 0F
      -- -- -- -- -- -- -- --  -- -- -- -- -- -- -- --
0300:                                            00                   . 
```

#### Opcodes

```
  0: 0x030E [0x00] END_REQSTACK()
```

### Event 20

#### Metadata

| Field        | Value    |
|--------------|----------|
| Entrypoint   | 0x030F   |
| Data Size    | 26 bytes |
| Instructions | 9        |

```
      00 01 02 03 04 05 06 07  08 09 0A 0B 0C 0D 0E 0F
      -- -- -- -- -- -- -- --  -- -- -- -- -- -- -- --
0300:                                               20                  
0310: 01 42 1E F0 FF FF 7F 2B  0C 40 0F 01 3A 80 23 2B  .B.....+.@..:.#+
0320: 0C 40 0F 01 3B 80 23 21  00                       .@..;.#!.       
```

#### Opcodes

```
  0: 0x030F [0x20] SET_CLI_EVENT_UC_FLAG: Lock player control
  1: 0x0311 [0x42] SET_CLI_EVENT_CANCEL_DATA()
  2: 0x0312 [0x1E] EventEntity looks at LocalPlayer and starts talking
  3: 0x0317 [0x2B] Brutus (ID: 17776652/0x010F400C) [7203*]:
    → "Mark my words. Someday, he'll come back for his chocobo."
  4: 0x031E [0x23] WAIT_FOR_DIALOG_INTERACTION
  5: 0x031F [0x2B] Brutus (ID: 17776652/0x010F400C) [7204*]:
    → "And the chocobo will gladly go with him. After all, he's a beastmaster."
  6: 0x0326 [0x23] WAIT_FOR_DIALOG_INTERACTION
  7: 0x0327 [0x21] END_EVENT
  8: 0x0328 [0x00] END_REQSTACK()
```

### Event 139

#### Metadata

| Field        | Value     |
|--------------|-----------|
| Entrypoint   | 0x0329    |
| Data Size    | 104 bytes |
| Instructions | 24        |

```
      00 01 02 03 04 05 06 07  08 09 0A 0B 0C 0D 0E 0F
      -- -- -- -- -- -- -- --  -- -- -- -- -- -- -- --
0320:                             1E F0 FF FF 7F 6F 70           .....op
0330: 03 02 10 3C 80 1D 3D 80  23 5B 17 80 F8 FF FF 7F  ...<..=.#[......
0340: F8 FF FF 7F 74 68 6B 31  1D 3E 80 23 1D 3F 80 23  ....thk1.>.#.?.#
0350: 5B 17 80 F8 FF FF 7F F8  FF FF 7F 74 68 6B 32 1D  [..........thk2.
0360: 40 80 23 53 F8 FF FF 7F  F8 FF FF 7F 74 68 6B 32  @.#S........thk2
0370: 5B 17 80 F8 FF FF 7F F8  FF FF 7F 74 6C 6B 30 1D  [..........tlk0.
0380: 41 80 23 1D 42 80 23 5E  69 64 6C 30 1A AA 03 21  A.#.B.#^idl0...!
0390: 00                                                .               
```

#### Opcodes

```
  0: 0x0329 [0x1E] EventEntity looks at LocalPlayer and starts talking
  1: 0x032E [0x6F] WAIT_FRAME_DELAY: Yield until WaitTime reaches zero
  2: 0x032F [0x70] WAIT_ENTITY_RENDER_FLAG: Wait while EventEntity->Render.Flags3 bit 2 is set (cancel turn if not)
  3: 0x0330 [0x03] Work_Zone[2] = 232*
  4: 0x0335 [0x1D] PRINT_EVENT_MESSAGE(message_id=7709*)
    → "So, how ya been? What, do I look sad? Well, one of my chocobos passed away."
  5: 0x0338 [0x23] WAIT_FOR_DIALOG_INTERACTION
  6: 0x0339 [0x5B] LOAD_EXT_SCHEDULER: Load scheduler "thk1" with entities [EventEntity, EventEntity], work=65*
  7: 0x0348 [0x1D] PRINT_EVENT_MESSAGE(message_id=7710*)
    → "No, don't worry. It wasn't the one you saved. He's still kickin'!"
  8: 0x034B [0x23] WAIT_FOR_DIALOG_INTERACTION
  9: 0x034C [0x1D] PRINT_EVENT_MESSAGE(message_id=7711*)
    → "It was the oldest bird in my flock. I got her way back when I was just learning, like you are now."
 10: 0x034F [0x23] WAIT_FOR_DIALOG_INTERACTION
 11: 0x0350 [0x5B] LOAD_EXT_SCHEDULER: Load scheduler "thk2" with entities [EventEntity, EventEntity], work=65*
 12: 0x035F [0x1D] PRINT_EVENT_MESSAGE(message_id=7712*)
    → "She was getting up there, after all. It's so sad to see one of your own go. You're a beastmaster. You understand, right?"
 13: 0x0362 [0x23] WAIT_FOR_DIALOG_INTERACTION
 14: 0x0363 [0x53] WAIT_SCHEDULER_TASK: Wait for scheduler "thk2" with entities [EventEntity, EventEntity]
 15: 0x0370 [0x5B] LOAD_EXT_SCHEDULER: Load scheduler "tlk0" with entities [EventEntity, EventEntity], work=65*
 16: 0x037F [0x1D] PRINT_EVENT_MESSAGE(message_id=7713*)
    → "Oh, that's right! If you're looking for work, I've got something for ya! I need someone to get $6 from Delkfutt's Tower."
 17: 0x0382 [0x23] WAIT_FOR_DIALOG_INTERACTION
 18: 0x0383 [0x1D] PRINT_EVENT_MESSAGE(message_id=7715*)
    → "They say that a chocobo who wears one will go straight to Paradise. I never believe in such things except in times like these!"
 19: 0x0386 [0x23] WAIT_FOR_DIALOG_INTERACTION
 20: 0x0387 [0x5E] EventEntity goes idle (kills current action) (animation: "idl0")
 21: 0x038C [0x1A] CALL_SUBROUTINE(address=0x03AA)
 22: 0x038F [0x21] END_EVENT
 23: 0x0390 [0x00] END_REQSTACK()
```

### Event 137

#### Metadata

| Field        | Value    |
|--------------|----------|
| Entrypoint   | 0x0391   |
| Data Size    | 78 bytes |
| Instructions | 26       |

```
      00 01 02 03 04 05 06 07  08 09 0A 0B 0C 0D 0E 0F
      -- -- -- -- -- -- -- --  -- -- -- -- -- -- -- --
0390:    1E F0 FF FF 7F 6F 70  03 02 10 3C 80 1D 43 80   .....op...<..C.
03A0: 23 1D 42 80 23 1A AA 03  21 00 03 02 10 3C 80 42  #.B.#...!....<.B
03B0: 06 01 10 24 44 80 12 80  13 80 25 02 00 10 13 80  ...$D.....%.....
03C0: 00 CF 03 1D 45 80 23 03  01 10 12 80 01 DE 03 02  ....E.#.........
03D0: 00 10 12 80 00 DE 03 1D  46 80 23 01 DE 03 1B     ........F.#.... 
```

#### Opcodes

```
  0: 0x0391 [0x1E] EventEntity looks at LocalPlayer and starts talking
  1: 0x0396 [0x6F] WAIT_FRAME_DELAY: Yield until WaitTime reaches zero
  2: 0x0397 [0x70] WAIT_ENTITY_RENDER_FLAG: Wait while EventEntity->Render.Flags3 bit 2 is set (cancel turn if not)
  3: 0x0398 [0x03] Work_Zone[2] = 232*
  4: 0x039D [0x1D] PRINT_EVENT_MESSAGE(message_id=7714*)
    → "What do you say? I need someone to get $6 that's hidden somewhere inside Delkfutt's Tower."
  5: 0x03A0 [0x23] WAIT_FOR_DIALOG_INTERACTION
  6: 0x03A1 [0x1D] PRINT_EVENT_MESSAGE(message_id=7715*)
    → "They say that a chocobo who wears one will go straight to Paradise. I never believe in such things except in times like these!"
  7: 0x03A4 [0x23] WAIT_FOR_DIALOG_INTERACTION
  8: 0x03A5 [0x1A] CALL_SUBROUTINE(address=0x03AA)
  9: 0x03A8 [0x21] END_EVENT
 10: 0x03A9 [0x00] END_REQSTACK()

SUBROUTINE_03AA:
 11: 0x03AA [0x03] Work_Zone[2] = 232*
 12: 0x03AF [0x42] SET_CLI_EVENT_CANCEL_DATA()
 13: 0x03B0 [0x06] Work_Zone[1] = 0
 14: 0x03B3 [0x24] CREATE_DIALOG(message_id=7716*, default_option=1*, option_flags=0*)
    → "Do you accept? [Of course I do./Well, not right now.]"
 15: 0x03BA [0x25] WAIT_DIALOG_SELECT()
 16: 0x03BB [0x02] IF !(Work_Zone[0] == 0*) GOTO 0x03CF
 17: 0x03C3 [0x1D] PRINT_EVENT_MESSAGE(message_id=7717*)
    → "Thanks! I'm so sad over her death that I can't even muster the will to get out there myself."
 18: 0x03C6 [0x23] WAIT_FOR_DIALOG_INTERACTION
 19: 0x03C7 [0x03] Work_Zone[1] = 1*
 20: 0x03CC [0x01] GOTO 0x03DE
 21: 0x03CF [0x02] IF !(Work_Zone[0] == 1*) GOTO 0x03DE
 22: 0x03D7 [0x1D] PRINT_EVENT_MESSAGE(message_id=7718*)
    → "Don't worry about it. Come back if you change your mind."
 23: 0x03DA [0x23] WAIT_FOR_DIALOG_INTERACTION
 24: 0x03DB [0x01] GOTO 0x03DE

SUBROUTINE_03DE:
 25: 0x03DE [0x1B] RETURN
```

### Event 136

#### Metadata

| Field        | Value    |
|--------------|----------|
| Entrypoint   | 0x03DF   |
| Data Size    | 18 bytes |
| Instructions | 8        |

```
      00 01 02 03 04 05 06 07  08 09 0A 0B 0C 0D 0E 0F
      -- -- -- -- -- -- -- --  -- -- -- -- -- -- -- --
03D0:                                               1E                 .
03E0: F0 FF FF 7F 6F 70 03 02  10 3C 80 1D 47 80 23 21  ....op...<..G.#!
03F0: 00                                                .               
```

#### Opcodes

```
  0: 0x03DF [0x1E] EventEntity looks at LocalPlayer and starts talking
  1: 0x03E4 [0x6F] WAIT_FRAME_DELAY: Yield until WaitTime reaches zero
  2: 0x03E5 [0x70] WAIT_ENTITY_RENDER_FLAG: Wait while EventEntity->Render.Flags3 bit 2 is set (cancel turn if not)
  3: 0x03E6 [0x03] Work_Zone[2] = 232*
  4: 0x03EB [0x1D] PRINT_EVENT_MESSAGE(message_id=7721*)
    → "Please, find $6 hidden somewhere in Delkfutt's Tower."
  5: 0x03EE [0x23] WAIT_FOR_DIALOG_INTERACTION
  6: 0x03EF [0x21] END_EVENT
  7: 0x03F0 [0x00] END_REQSTACK()
```

### Event 138

#### Metadata

| Field        | Value    |
|--------------|----------|
| Entrypoint   | 0x03F1   |
| Data Size    | 63 bytes |
| Instructions | 13       |

```
      00 01 02 03 04 05 06 07  08 09 0A 0B 0C 0D 0E 0F
      -- -- -- -- -- -- -- --  -- -- -- -- -- -- -- --
03F0:    42 1E F0 FF FF 7F 6F  70 1D 48 80 23 5B 17 80   B.....op.H.#[..
0400: F8 FF FF 7F F8 FF FF 7F  70 61 73 30 53 F8 FF FF  ........pas0S...
0410: 7F F8 FF FF 7F 70 61 73  30 1D 49 80 23 45 4A 80  .....pas0.I.#EJ.
0420: F0 FF FF 7F F0 FF FF 7F  71 73 74 63 13 80 21 00  ........qstc..!.
```

#### Opcodes

```
  0: 0x03F1 [0x42] SET_CLI_EVENT_CANCEL_DATA()
  1: 0x03F2 [0x1E] EventEntity looks at LocalPlayer and starts talking
  2: 0x03F7 [0x6F] WAIT_FRAME_DELAY: Yield until WaitTime reaches zero
  3: 0x03F8 [0x70] WAIT_ENTITY_RENDER_FLAG: Wait while EventEntity->Render.Flags3 bit 2 is set (cancel turn if not)
  4: 0x03F9 [0x1D] PRINT_EVENT_MESSAGE(message_id=7722*)
    → "Now we're talking! This'll make the chocobo's spirit happy! Here, this is all I have to give."
  5: 0x03FC [0x23] WAIT_FOR_DIALOG_INTERACTION
  6: 0x03FD [0x5B] LOAD_EXT_SCHEDULER: Load scheduler "pas0" with entities [EventEntity, EventEntity], work=65*
  7: 0x040C [0x53] WAIT_SCHEDULER_TASK: Wait for scheduler "pas0" with entities [EventEntity, EventEntity]
  8: 0x0419 [0x1D] PRINT_EVENT_MESSAGE(message_id=7723*)
    → "She may be gone, but her memory will always be here with us."
  9: 0x041C [0x23] WAIT_FOR_DIALOG_INTERACTION
 10: 0x041D [0x45] LOAD_SCHEDULED_TASK: Load scheduler "qstc" with entities [LocalPlayer, LocalPlayer], work=[201*, 0*]
 11: 0x042E [0x21] END_EVENT
 12: 0x042F [0x00] END_REQSTACK()
```

### Event 134

#### Metadata

| Field        | Value    |
|--------------|----------|
| Entrypoint   | 0x0430   |
| Data Size    | 11 bytes |
| Instructions | 5        |

```
      00 01 02 03 04 05 06 07  08 09 0A 0B 0C 0D 0E 0F
      -- -- -- -- -- -- -- --  -- -- -- -- -- -- -- --
0430: 1E F0 FF FF 7F 1D 49 80  23 21 00                 ......I.#!.     
```

#### Opcodes

```
  0: 0x0430 [0x1E] EventEntity looks at LocalPlayer and starts talking
  1: 0x0435 [0x1D] PRINT_EVENT_MESSAGE(message_id=7723*)
    → "She may be gone, but her memory will always be here with us."
  2: 0x0438 [0x23] WAIT_FOR_DIALOG_INTERACTION
  3: 0x0439 [0x21] END_EVENT
  4: 0x043A [0x00] END_REQSTACK()
```

### Event 141

#### Metadata

| Field        | Value    |
|--------------|----------|
| Entrypoint   | 0x043B   |
| Data Size    | 99 bytes |
| Instructions | 20       |

```
      00 01 02 03 04 05 06 07  08 09 0A 0B 0C 0D 0E 0F
      -- -- -- -- -- -- -- --  -- -- -- -- -- -- -- --
0430:                                   20 01 1E F0 FF              ....
0440: FF 7F 6F 70 5E 69 64 31  30 2B 0C 40 0F 01 4B 80  ..op^id10+.@..K.
0450: 23 2B 0C 40 0F 01 4C 80  23 5B 17 80 F8 FF FF 7F  #+.@..L.#[......
0460: F8 FF FF 7F 74 68 6B 31  2B 0C 40 0F 01 4D 80 23  ....thk1+.@..M.#
0470: 5B 17 80 F8 FF FF 7F F8  FF FF 7F 74 68 6B 32 03  [..........thk2.
0480: 02 10 4E 80 2B 0C 40 0F  01 4F 80 23 53 F8 FF FF  ..N.+.@..O.#S...
0490: 7F F8 FF FF 7F 74 68 6B  32 1A B9 04 21 00        .....thk2...!.  
```

#### Opcodes

```
  0: 0x043B [0x20] SET_CLI_EVENT_UC_FLAG: Lock player control
  1: 0x043D [0x1E] EventEntity looks at LocalPlayer and starts talking
  2: 0x0442 [0x6F] WAIT_FRAME_DELAY: Yield until WaitTime reaches zero
  3: 0x0443 [0x70] WAIT_ENTITY_RENDER_FLAG: Wait while EventEntity->Render.Flags3 bit 2 is set (cancel turn if not)
  4: 0x0444 [0x5E] EventEntity goes idle (kills current action) (animation: "id10")
  5: 0x0449 [0x2B] Brutus (ID: 17776652/0x010F400C) [7724*]:
    → "Hello there! You gettin' along with your animals? Of course you are! I can tell just by lookin' at ya!"
  6: 0x0450 [0x23] WAIT_FOR_DIALOG_INTERACTION
  7: 0x0451 [0x2B] Brutus (ID: 17776652/0x010F400C) [7725*]:
    → "Matter of fact, I got something else I wanna ask ya. Just listen, okay?"
  8: 0x0458 [0x23] WAIT_FOR_DIALOG_INTERACTION
  9: 0x0459 [0x5B] LOAD_EXT_SCHEDULER: Load scheduler "thk1" with entities [EventEntity, EventEntity], work=65*
 10: 0x0468 [0x2B] Brutus (ID: 17776652/0x010F400C) [7726*]:
    → "You know about the war twenty years ago, right? They called up all kinds of animals for duty, and a lot of 'em didn't make it."
 11: 0x046F [0x23] WAIT_FOR_DIALOG_INTERACTION
 12: 0x0470 [0x5B] LOAD_EXT_SCHEDULER: Load scheduler "thk2" with entities [EventEntity, EventEntity], work=65*
 13: 0x047F [0x03] Work_Zone[2] = 229*
 14: 0x0484 [0x2B] Brutus (ID: 17776652/0x010F400C) [7727*]:
    → "So, to help calm their spirits, I want you to find three ponds in Fei'Yin. Once there, toss $6 into each one of 'em."
 15: 0x048B [0x23] WAIT_FOR_DIALOG_INTERACTION
 16: 0x048C [0x53] WAIT_SCHEDULER_TASK: Wait for scheduler "thk2" with entities [EventEntity, EventEntity]
 17: 0x0499 [0x1A] CALL_SUBROUTINE(address=0x04B9)
 18: 0x049C [0x21] END_EVENT
 19: 0x049D [0x00] END_REQSTACK()
```

### Event 143

#### Metadata

| Field        | Value     |
|--------------|-----------|
| Entrypoint   | 0x049E    |
| Data Size    | 103 bytes |
| Instructions | 26        |

```
      00 01 02 03 04 05 06 07  08 09 0A 0B 0C 0D 0E 0F
      -- -- -- -- -- -- -- --  -- -- -- -- -- -- -- --
0490:                                            20 01                 .
04A0: 1E F0 FF FF 7F 6F 70 5E  69 64 31 30 2B 0C 40 0F  .....op^id10+.@.
04B0: 01 50 80 23 1A B9 04 21  00 03 02 10 4E 80 06 01  .P.#...!....N...
04C0: 10 42 24 51 80 12 80 13  80 25 02 00 10 13 80 00  .B$Q.....%......
04D0: F1 04 5B 17 80 F8 FF FF  7F F8 FF FF 7F 74 6C 6B  ..[..........tlk
04E0: 31 2B 0C 40 0F 01 52 80  23 03 01 10 12 80 01 04  1+.@..R.#.......
04F0: 05 02 00 10 12 80 00 04  05 2B 0C 40 0F 01 53 80  .........+.@..S.
0500: 23 01 04 05 1B                                    #....           
```

#### Opcodes

```
  0: 0x049E [0x20] SET_CLI_EVENT_UC_FLAG: Lock player control
  1: 0x04A0 [0x1E] EventEntity looks at LocalPlayer and starts talking
  2: 0x04A5 [0x6F] WAIT_FRAME_DELAY: Yield until WaitTime reaches zero
  3: 0x04A6 [0x70] WAIT_ENTITY_RENDER_FLAG: Wait while EventEntity->Render.Flags3 bit 2 is set (cancel turn if not)
  4: 0x04A7 [0x5E] EventEntity goes idle (kills current action) (animation: "id10")
  5: 0x04AC [0x2B] Brutus (ID: 17776652/0x010F400C) [7728*]:
    → "What do you say? It's all we can do to help the spirits of the fallen beasts rest in peace."
  6: 0x04B3 [0x23] WAIT_FOR_DIALOG_INTERACTION
  7: 0x04B4 [0x1A] CALL_SUBROUTINE(address=0x04B9)
  8: 0x04B7 [0x21] END_EVENT
  9: 0x04B8 [0x00] END_REQSTACK()

SUBROUTINE_04B9:
 10: 0x04B9 [0x03] Work_Zone[2] = 229*
 11: 0x04BE [0x06] Work_Zone[1] = 0
 12: 0x04C1 [0x42] SET_CLI_EVENT_CANCEL_DATA()
 13: 0x04C2 [0x24] CREATE_DIALOG(message_id=7729*, default_option=1*, option_flags=0*)
    → "Well? How 'bout it? [I'll do it./No, I'm too busy right now.]"
 14: 0x04C9 [0x25] WAIT_DIALOG_SELECT()
 15: 0x04CA [0x02] IF !(Work_Zone[0] == 0*) GOTO 0x04F1
 16: 0x04D2 [0x5B] LOAD_EXT_SCHEDULER: Load scheduler "tlk1" with entities [EventEntity, EventEntity], work=65*
 17: 0x04E1 [0x2B] Brutus (ID: 17776652/0x010F400C) [7730*]:
    → "I thought you'd say that. Here, take these. And remember, this is serious business!"
 18: 0x04E8 [0x23] WAIT_FOR_DIALOG_INTERACTION
 19: 0x04E9 [0x03] Work_Zone[1] = 1*
 20: 0x04EE [0x01] GOTO 0x0504
 21: 0x04F1 [0x02] IF !(Work_Zone[0] == 1*) GOTO 0x0504
 22: 0x04F9 [0x2B] Brutus (ID: 17776652/0x010F400C) [7731*]:
    → "Well, you already know it won't be easy, so I can't make ya go, kiddo. I don't know any other beastmasters to turn to!"
 23: 0x0500 [0x23] WAIT_FOR_DIALOG_INTERACTION
 24: 0x0501 [0x01] GOTO 0x0504

SUBROUTINE_0504:
 25: 0x0504 [0x1B] RETURN
```

### Event 142

#### Metadata

| Field        | Value    |
|--------------|----------|
| Entrypoint   | 0x0505   |
| Data Size    | 22 bytes |
| Instructions | 8        |

```
      00 01 02 03 04 05 06 07  08 09 0A 0B 0C 0D 0E 0F
      -- -- -- -- -- -- -- --  -- -- -- -- -- -- -- --
0500:                1E F0 FF  FF 7F 6F 70 03 02 10 4E       .....op...N
0510: 80 2B 0C 40 0F 01 54 80  23 21 00                 .+.@..T.#!.     
```

#### Opcodes

```
  0: 0x0505 [0x1E] EventEntity looks at LocalPlayer and starts talking
  1: 0x050A [0x6F] WAIT_FRAME_DELAY: Yield until WaitTime reaches zero
  2: 0x050B [0x70] WAIT_ENTITY_RENDER_FLAG: Wait while EventEntity->Render.Flags3 bit 2 is set (cancel turn if not)
  3: 0x050C [0x03] Work_Zone[2] = 229*
  4: 0x0511 [0x2B] Brutus (ID: 17776652/0x010F400C) [7732*]:
    → "Find the three ponds of Fei'Yin and toss $6 into each one of 'em. This is a serious task, so no monkeyin' around!"
  5: 0x0518 [0x23] WAIT_FOR_DIALOG_INTERACTION
  6: 0x0519 [0x21] END_EVENT
  7: 0x051A [0x00] END_REQSTACK()
```

### Event 144

#### Metadata

| Field        | Value    |
|--------------|----------|
| Entrypoint   | 0x051B   |
| Data Size    | 95 bytes |
| Instructions | 20       |

```
      00 01 02 03 04 05 06 07  08 09 0A 0B 0C 0D 0E 0F
      -- -- -- -- -- -- -- --  -- -- -- -- -- -- -- --
0510:                                   20 01 42 1E F0              .B..
0520: FF FF 7F 6F 70 2B 0C 40  0F 01 55 80 23 2B 0C 40  ...op+.@..U.#+.@
0530: 0F 01 56 80 23 5B 17 80  F8 FF FF 7F F8 FF FF 7F  ..V.#[..........
0540: 74 68 6B 31 2B 0C 40 0F  01 57 80 23 2B 0C 40 0F  thk1+.@..W.#+.@.
0550: 01 58 80 23 5B 17 80 F8  FF FF 7F F8 FF FF 7F 74  .X.#[..........t
0560: 68 6B 32 2B 0C 40 0F 01  59 80 23 53 F8 FF FF 7F  hk2+.@..Y.#S....
0570: F8 FF FF 7F 74 68 6B 32  21 00                    ....thk2!.      
```

#### Opcodes

```
  0: 0x051B [0x20] SET_CLI_EVENT_UC_FLAG: Lock player control
  1: 0x051D [0x42] SET_CLI_EVENT_CANCEL_DATA()
  2: 0x051E [0x1E] EventEntity looks at LocalPlayer and starts talking
  3: 0x0523 [0x6F] WAIT_FRAME_DELAY: Yield until WaitTime reaches zero
  4: 0x0524 [0x70] WAIT_ENTITY_RENDER_FLAG: Wait while EventEntity->Render.Flags3 bit 2 is set (cancel turn if not)
  5: 0x0525 [0x2B] Brutus (ID: 17776652/0x010F400C) [7734*]:
    → "Why, thanks a gillion! I'm sure the spirit of that fallen animal can rest peacefully now."
  6: 0x052C [0x23] WAIT_FOR_DIALOG_INTERACTION
  7: 0x052D [0x2B] Brutus (ID: 17776652/0x010F400C) [7735*]:
    → "What, you saw a ghost there? In a place like that?"
  8: 0x0534 [0x23] WAIT_FOR_DIALOG_INTERACTION
  9: 0x0535 [0x5B] LOAD_EXT_SCHEDULER: Load scheduler "thk1" with entities [EventEntity, EventEntity], work=65*
 10: 0x0544 [0x2B] Brutus (ID: 17776652/0x010F400C) [7736*]:
    → "Oh, yeah... I heard somethin' strange while you were away... Somethin' about the ghost of an Opo-opo in Castle Oztroja."
 11: 0x054B [0x23] WAIT_FOR_DIALOG_INTERACTION
 12: 0x054C [0x2B] Brutus (ID: 17776652/0x010F400C) [7737*]:
    → "They say that it doesn't attack, so maybe it was domesticated before it died. As a beastmaster you wanna know more, right?"
 13: 0x0553 [0x23] WAIT_FOR_DIALOG_INTERACTION
 14: 0x0554 [0x5B] LOAD_EXT_SCHEDULER: Load scheduler "thk2" with entities [EventEntity, EventEntity], work=65*
 15: 0x0563 [0x2B] Brutus (ID: 17776652/0x010F400C) [7738*]:
    → "Maybe it is one that died in the war... I'd be grateful if you could go look into that. I'll have a reward for you when you get back."
 16: 0x056A [0x23] WAIT_FOR_DIALOG_INTERACTION
 17: 0x056B [0x53] WAIT_SCHEDULER_TASK: Wait for scheduler "thk2" with entities [EventEntity, EventEntity]
 18: 0x0578 [0x21] END_EVENT
 19: 0x0579 [0x00] END_REQSTACK()
```

### Event 149

#### Metadata

| Field        | Value    |
|--------------|----------|
| Entrypoint   | 0x057A   |
| Data Size    | 19 bytes |
| Instructions | 8        |

```
      00 01 02 03 04 05 06 07  08 09 0A 0B 0C 0D 0E 0F
      -- -- -- -- -- -- -- --  -- -- -- -- -- -- -- --
0570:                                1E F0 FF FF 7F 6F            .....o
0580: 70 20 01 2B 0C 40 0F 01  59 80 23 21 00           p .+.@..Y.#!.   
```

#### Opcodes

```
  0: 0x057A [0x1E] EventEntity looks at LocalPlayer and starts talking
  1: 0x057F [0x6F] WAIT_FRAME_DELAY: Yield until WaitTime reaches zero
  2: 0x0580 [0x70] WAIT_ENTITY_RENDER_FLAG: Wait while EventEntity->Render.Flags3 bit 2 is set (cancel turn if not)
  3: 0x0581 [0x20] SET_CLI_EVENT_UC_FLAG: Lock player control
  4: 0x0583 [0x2B] Brutus (ID: 17776652/0x010F400C) [7738*]:
    → "Maybe it is one that died in the war... I'd be grateful if you could go look into that. I'll have a reward for you when you get back."
  5: 0x058A [0x23] WAIT_FOR_DIALOG_INTERACTION
  6: 0x058B [0x21] END_EVENT
  7: 0x058C [0x00] END_REQSTACK()
```

### Event 135

#### Metadata

| Field        | Value     |
|--------------|-----------|
| Entrypoint   | 0x058D    |
| Data Size    | 121 bytes |
| Instructions | 18        |

```
      00 01 02 03 04 05 06 07  08 09 0A 0B 0C 0D 0E 0F
      -- -- -- -- -- -- -- --  -- -- -- -- -- -- -- --
0580:                                         20 01 42                .B
0590: 1E F0 FF FF 7F 6F 70 1D  5A 80 23 5B 17 80 F8 FF  .....op.Z.#[....
05A0: FF 7F F8 FF FF 7F 70 61  73 30 53 F8 FF FF 7F F8  ......pas0S.....
05B0: FF FF 7F 70 61 73 30 5B  17 80 F8 FF FF 7F F8 FF  ...pas0[........
05C0: FF 7F 74 68 6B 31 1D 5B  80 23 53 F8 FF FF 7F F8  ..thk1.[.#S.....
05D0: FF FF 7F 74 68 6B 31 5B  17 80 F8 FF FF 7F F8 FF  ...thk1[........
05E0: FF 7F 74 68 6B 32 53 F8  FF FF 7F F8 FF FF 7F 74  ..thk2S........t
05F0: 68 6B 32 45 4A 80 F0 FF  FF 7F F0 FF FF 7F 71 73  hk2EJ.........qs
0600: 74 63 13 80 21 00                                 tc..!.          
```

#### Opcodes

```
  0: 0x058D [0x20] SET_CLI_EVENT_UC_FLAG: Lock player control
  1: 0x058F [0x42] SET_CLI_EVENT_CANCEL_DATA()
  2: 0x0590 [0x1E] EventEntity looks at LocalPlayer and starts talking
  3: 0x0595 [0x6F] WAIT_FRAME_DELAY: Yield until WaitTime reaches zero
  4: 0x0596 [0x70] WAIT_ENTITY_RENDER_FLAG: Wait while EventEntity->Render.Flags3 bit 2 is set (cancel turn if not)
  5: 0x0597 [0x1D] PRINT_EVENT_MESSAGE(message_id=7744*)
    → "So, did that ghost finally go to rest? That's good. Here, I want you to have this."
  6: 0x059A [0x23] WAIT_FOR_DIALOG_INTERACTION
  7: 0x059B [0x5B] LOAD_EXT_SCHEDULER: Load scheduler "pas0" with entities [EventEntity, EventEntity], work=65*
  8: 0x05AA [0x53] WAIT_SCHEDULER_TASK: Wait for scheduler "pas0" with entities [EventEntity, EventEntity]
  9: 0x05B7 [0x5B] LOAD_EXT_SCHEDULER: Load scheduler "thk1" with entities [EventEntity, EventEntity], work=65*
 10: 0x05C6 [0x1D] PRINT_EVENT_MESSAGE(message_id=7745*)
    → "But I still wonder... What was that Opo-opo spirit doing there?"
 11: 0x05C9 [0x23] WAIT_FOR_DIALOG_INTERACTION
 12: 0x05CA [0x53] WAIT_SCHEDULER_TASK: Wait for scheduler "thk1" with entities [EventEntity, EventEntity]
 13: 0x05D7 [0x5B] LOAD_EXT_SCHEDULER: Load scheduler "thk2" with entities [EventEntity, EventEntity], work=65*
 14: 0x05E6 [0x53] WAIT_SCHEDULER_TASK: Wait for scheduler "thk2" with entities [EventEntity, EventEntity]
 15: 0x05F3 [0x45] LOAD_SCHEDULED_TASK: Load scheduler "qstc" with entities [LocalPlayer, LocalPlayer], work=[201*, 0*]
 16: 0x0604 [0x21] END_EVENT
 17: 0x0605 [0x00] END_REQSTACK()
```

### Event 151

#### Metadata

| Field        | Value    |
|--------------|----------|
| Entrypoint   | 0x0606   |
| Data Size    | 13 bytes |
| Instructions | 7        |

```
      00 01 02 03 04 05 06 07  08 09 0A 0B 0C 0D 0E 0F
      -- -- -- -- -- -- -- --  -- -- -- -- -- -- -- --
0600:                   1E F0  FF FF 7F 6F 70 1D 5B 80        .....op.[.
0610: 23 21 00                                          #!.             
```

#### Opcodes

```
  0: 0x0606 [0x1E] EventEntity looks at LocalPlayer and starts talking
  1: 0x060B [0x6F] WAIT_FRAME_DELAY: Yield until WaitTime reaches zero
  2: 0x060C [0x70] WAIT_ENTITY_RENDER_FLAG: Wait while EventEntity->Render.Flags3 bit 2 is set (cancel turn if not)
  3: 0x060D [0x1D] PRINT_EVENT_MESSAGE(message_id=7745*)
    → "But I still wonder... What was that Opo-opo spirit doing there?"
  4: 0x0610 [0x23] WAIT_FOR_DIALOG_INTERACTION
  5: 0x0611 [0x21] END_EVENT
  6: 0x0612 [0x00] END_REQSTACK()
```

### Event 140

#### Metadata

| Field        | Value    |
|--------------|----------|
| Entrypoint   | 0x0613   |
| Data Size    | 13 bytes |
| Instructions | 7        |

```
      00 01 02 03 04 05 06 07  08 09 0A 0B 0C 0D 0E 0F
      -- -- -- -- -- -- -- --  -- -- -- -- -- -- -- --
0610:          1E F0 FF FF 7F  6F 70 1D 5C 80 23 21 00     .....op.\.#!.
```

#### Opcodes

```
  0: 0x0613 [0x1E] EventEntity looks at LocalPlayer and starts talking
  1: 0x0618 [0x6F] WAIT_FRAME_DELAY: Yield until WaitTime reaches zero
  2: 0x0619 [0x70] WAIT_ENTITY_RENDER_FLAG: Wait while EventEntity->Render.Flags3 bit 2 is set (cancel turn if not)
  3: 0x061A [0x1D] PRINT_EVENT_MESSAGE(message_id=7750*)
    → "Looks like the old wounds have healed. War's an awful thing, so we can't let it happen again. The animals would thank us, too."
  4: 0x061D [0x23] WAIT_FOR_DIALOG_INTERACTION
  5: 0x061E [0x21] END_EVENT
  6: 0x061F [0x00] END_REQSTACK()
```

### Event 65535.5

#### Metadata

| Field        | Value    |
|--------------|----------|
| Entrypoint   | 0x0620   |
| Data Size    | 48 bytes |
| Instructions | 8        |

```
      00 01 02 03 04 05 06 07  08 09 0A 0B 0C 0D 0E 0F
      -- -- -- -- -- -- -- --  -- -- -- -- -- -- -- --
0620: 32 5D 80 3B F8 FF FF 7F  01 00 02 00 03 00 3A F8  2].;..........:.
0630: FF FF 7F 04 00 36 5E 80  5F 80 06 80 1F 00 60 80  .....6^._.....`.
0640: 61 80 06 80 1F 01 4A 0D  40 0F 01 F8 FF FF 7F 00  a.....J.@.......
```

#### Opcodes

```
  0: 0x0620 [0x32] ExtData[1]->MainSpeed = 13* * 0.1
  1: 0x0623 [0x3B] GET_ENTITY_POSITION(entity=EventEntity, x_destination=ExtData[1]->WorkLocal[1], y_destination=ExtData[1]->WorkLocal[2], z_destination=ExtData[1]->WorkLocal[3])
  2: 0x062E [0x3A] CONVERT_YAW_TO_BYTE(entity=EventEntity, result_destination=ExtData[1]->WorkLocal[4])
  3: 0x0635 [0x36] SET_ENTITY_EVENT_POSITION(pos_x=-59.074*, pos_z=96.390*, pos_y=8.199*)
  4: 0x063C [0x1F] MOVE_ENTITY: EventEntity moves to X=-60.023*, Z=94.168*, Y=8.199*
  5: 0x0644 [0x1F] MOVE_ENTITY: Update entity position (mode=1)
  6: 0x0646 [0x4A] Osker (ID: 17776653/0x010F400D) looks at EventEntity
  7: 0x064F [0x00] END_REQSTACK()
```

### Event 65535.6

#### Metadata

| Field        | Value    |
|--------------|----------|
| Entrypoint   | 0x0650   |
| Data Size    | 51 bytes |
| Instructions | 9        |

```
      00 01 02 03 04 05 06 07  08 09 0A 0B 0C 0D 0E 0F
      -- -- -- -- -- -- -- --  -- -- -- -- -- -- -- --
0650: 32 5D 80 3B F8 FF FF 7F  01 00 02 00 03 00 3A F8  2].;..........:.
0660: FF FF 7F 04 00 1F 00 5E  80 5F 80 06 80 1F 01 1F  .......^._......
0670: 00 60 80 61 80 06 80 1F  01 4A 0D 40 0F 01 F8 FF  .`.a.....J.@....
0680: FF 7F 00                                          ...             
```

#### Opcodes

```
  0: 0x0650 [0x32] ExtData[1]->MainSpeed = 13* * 0.1
  1: 0x0653 [0x3B] GET_ENTITY_POSITION(entity=EventEntity, x_destination=ExtData[1]->WorkLocal[1], y_destination=ExtData[1]->WorkLocal[2], z_destination=ExtData[1]->WorkLocal[3])
  2: 0x065E [0x3A] CONVERT_YAW_TO_BYTE(entity=EventEntity, result_destination=ExtData[1]->WorkLocal[4])
  3: 0x0665 [0x1F] MOVE_ENTITY: EventEntity moves to X=-59.074*, Z=96.390*, Y=8.199*
  4: 0x066D [0x1F] MOVE_ENTITY: Update entity position (mode=1)
  5: 0x066F [0x1F] MOVE_ENTITY: EventEntity moves to X=-60.023*, Z=94.168*, Y=8.199*
  6: 0x0677 [0x1F] MOVE_ENTITY: Update entity position (mode=1)
  7: 0x0679 [0x4A] Osker (ID: 17776653/0x010F400D) looks at EventEntity
  8: 0x0682 [0x00] END_REQSTACK()
```

### Event 65535.7

#### Metadata

| Field        | Value    |
|--------------|----------|
| Entrypoint   | 0x0683   |
| Data Size    | 39 bytes |
| Instructions | 9        |

```
      00 01 02 03 04 05 06 07  08 09 0A 0B 0C 0D 0E 0F
      -- -- -- -- -- -- -- --  -- -- -- -- -- -- -- --
0680:          32 5D 80 1F 00  5E 80 5F 80 06 80 1F 01     2]...^._.....
0690: 1F 00 01 00 02 00 03 00  1F 01 39 04 00 1C 62 80  ..........9...b.
06A0: 37 01 00 02 00 03 00 04  00 00                    7.........      
```

#### Opcodes

```
  0: 0x0683 [0x32] ExtData[1]->MainSpeed = 13* * 0.1
  1: 0x0686 [0x1F] MOVE_ENTITY: EventEntity moves to X=-59.074*, Z=96.390*, Y=8.199*
  2: 0x068E [0x1F] MOVE_ENTITY: Update entity position (mode=1)
  3: 0x0690 [0x1F] MOVE_ENTITY: EventEntity moves to X=ExtData[1]->WorkLocal[1], Z=ExtData[1]->WorkLocal[2], Y=ExtData[1]->WorkLocal[3]
  4: 0x0698 [0x1F] MOVE_ENTITY: Update entity position (mode=1)
  5: 0x069A [0x39] SET_ENTITY_DIRECTION(direction=ExtData[1]->WorkLocal[4])
  6: 0x069D [0x1C] WAIT(30* ticks)
  7: 0x06A0 [0x37] UPDATE_EVENT_POSITION_AND_DIR: x=ExtData[1]->WorkLocal[1], z=ExtData[1]->WorkLocal[2], y=ExtData[1]->WorkLocal[3], direction=ExtData[1]->WorkLocal[4]
  8: 0x06A9 [0x00] END_REQSTACK()
```

### Event 65535.8

#### Metadata

| Field        | Value    |
|--------------|----------|
| Entrypoint   | 0x06AA   |
| Data Size    | 29 bytes |
| Instructions | 7        |

```
      00 01 02 03 04 05 06 07  08 09 0A 0B 0C 0D 0E 0F
      -- -- -- -- -- -- -- --  -- -- -- -- -- -- -- --
06A0:                                32 5D 80 1F 00 63            2]...c
06B0: 80 64 80 06 80 1F 01 1F  00 65 80 66 80 06 80 1F  .d.......e.f....
06C0: 01 1E 0F 40 0F 01 00                              ...@...         
```

#### Opcodes

```
  0: 0x06AA [0x32] ExtData[1]->MainSpeed = 13* * 0.1
  1: 0x06AD [0x1F] MOVE_ENTITY: EventEntity moves to X=-59.085*, Z=96.391*, Y=8.199*
  2: 0x06B5 [0x1F] MOVE_ENTITY: Update entity position (mode=1)
  3: 0x06B7 [0x1F] MOVE_ENTITY: EventEntity moves to X=-60.035*, Z=93.955*, Y=8.199*
  4: 0x06BF [0x1F] MOVE_ENTITY: Update entity position (mode=1)
  5: 0x06C1 [0x1E] EventEntity looks at Dietmund (ID: 17776655/0x010F400F) and starts talking
  6: 0x06C6 [0x00] END_REQSTACK()
```

### Event 65535.9

#### Metadata

| Field        | Value    |
|--------------|----------|
| Entrypoint   | 0x06C7   |
| Data Size    | 30 bytes |
| Instructions | 8        |

```
      00 01 02 03 04 05 06 07  08 09 0A 0B 0C 0D 0E 0F
      -- -- -- -- -- -- -- --  -- -- -- -- -- -- -- --
06C0:                      32  5D 80 1F 00 63 80 64 80         2]...c.d.
06D0: 06 80 1F 01 1F 00 67 80  68 80 69 80 1F 01 39 6A  ......g.h.i...9j
06E0: 80 1C 6B 80 00                                    ..k..           
```

#### Opcodes

```
  0: 0x06C7 [0x32] ExtData[1]->MainSpeed = 13* * 0.1
  1: 0x06CA [0x1F] MOVE_ENTITY: EventEntity moves to X=-59.085*, Z=96.391*, Y=8.199*
  2: 0x06D2 [0x1F] MOVE_ENTITY: Update entity position (mode=1)
  3: 0x06D4 [0x1F] MOVE_ENTITY: EventEntity moves to X=-57.897*, Z=97.450*, Y=7.999*
  4: 0x06DC [0x1F] MOVE_ENTITY: Update entity position (mode=1)
  5: 0x06DE [0x39] SET_ENTITY_DIRECTION(direction=3.9°*)
  6: 0x06E1 [0x1C] WAIT(60* ticks)
  7: 0x06E4 [0x00] END_REQSTACK()
```

### Event 65535.10

#### Metadata

| Field        | Value    |
|--------------|----------|
| Entrypoint   | 0x06E5   |
| Data Size    | 19 bytes |
| Instructions | 3        |

```
      00 01 02 03 04 05 06 07  08 09 0A 0B 0C 0D 0E 0F
      -- -- -- -- -- -- -- --  -- -- -- -- -- -- -- --
06E0:                5B 17 80  F8 FF FF 7F F8 FF FF 7F       [..........
06F0: 74 6C 6B 30 1C 6B 80 00                           tlk0.k..        
```

#### Opcodes

```
  0: 0x06E5 [0x5B] LOAD_EXT_SCHEDULER: Load scheduler "tlk0" with entities [EventEntity, EventEntity], work=65*
  1: 0x06F4 [0x1C] WAIT(60* ticks)
  2: 0x06F7 [0x00] END_REQSTACK()
```

### Event 65535.11

#### Metadata

| Field        | Value    |
|--------------|----------|
| Entrypoint   | 0x06F8   |
| Data Size    | 19 bytes |
| Instructions | 3        |

```
      00 01 02 03 04 05 06 07  08 09 0A 0B 0C 0D 0E 0F
      -- -- -- -- -- -- -- --  -- -- -- -- -- -- -- --
06F0:                          5B 17 80 F8 FF FF 7F F8          [.......
0700: FF FF 7F 74 68 6B 31 1C  6B 80 00                 ...thk1.k..     
```

#### Opcodes

```
  0: 0x06F8 [0x5B] LOAD_EXT_SCHEDULER: Load scheduler "thk1" with entities [EventEntity, EventEntity], work=65*
  1: 0x0707 [0x1C] WAIT(60* ticks)
  2: 0x070A [0x00] END_REQSTACK()
```

### Event 65535.12

#### Metadata

| Field        | Value    |
|--------------|----------|
| Entrypoint   | 0x070B   |
| Data Size    | 29 bytes |
| Instructions | 3        |

```
      00 01 02 03 04 05 06 07  08 09 0A 0B 0C 0D 0E 0F
      -- -- -- -- -- -- -- --  -- -- -- -- -- -- -- --
0700:                                   5B 17 80 F8 FF             [....
0710: FF 7F F8 FF FF 7F 74 68  6B 32 53 F8 FF FF 7F F8  ......thk2S.....
0720: FF FF 7F 74 68 6B 32 00                           ...thk2.        
```

#### Opcodes

```
  0: 0x070B [0x5B] LOAD_EXT_SCHEDULER: Load scheduler "thk2" with entities [EventEntity, EventEntity], work=65*
  1: 0x071A [0x53] WAIT_SCHEDULER_TASK: Wait for scheduler "thk2" with entities [EventEntity, EventEntity]
  2: 0x0727 [0x00] END_REQSTACK()
```

### Event 65535.13

#### Metadata

| Field        | Value    |
|--------------|----------|
| Entrypoint   | 0x0728   |
| Data Size    | 29 bytes |
| Instructions | 3        |

```
      00 01 02 03 04 05 06 07  08 09 0A 0B 0C 0D 0E 0F
      -- -- -- -- -- -- -- --  -- -- -- -- -- -- -- --
0720:                          5B 17 80 F8 FF FF 7F F8          [.......
0730: FF FF 7F 70 61 73 30 53  F8 FF FF 7F F8 FF FF 7F  ...pas0S........
0740: 70 61 73 30 00                                    pas0.           
```

#### Opcodes

```
  0: 0x0728 [0x5B] LOAD_EXT_SCHEDULER: Load scheduler "pas0" with entities [EventEntity, EventEntity], work=65*
  1: 0x0737 [0x53] WAIT_SCHEDULER_TASK: Wait for scheduler "pas0" with entities [EventEntity, EventEntity]
  2: 0x0744 [0x00] END_REQSTACK()
```

### Event 65535.14

#### Metadata

| Field        | Value   |
|--------------|---------|
| Entrypoint   | 0x0745  |
| Data Size    | 9 bytes |
| Instructions | 3       |

```
      00 01 02 03 04 05 06 07  08 09 0A 0B 0C 0D 0E 0F
      -- -- -- -- -- -- -- --  -- -- -- -- -- -- -- --
0740:                5E 69 64  6C 30 1C 6B 80 00             ^idl0.k..  
```

#### Opcodes

```
  0: 0x0745 [0x5E] EventEntity goes idle (kills current action) (animation: "idl0")
  1: 0x074A [0x1C] WAIT(60* ticks)
  2: 0x074D [0x00] END_REQSTACK()
```

### Event 65535.15

#### Metadata

| Field        | Value   |
|--------------|---------|
| Entrypoint   | 0x074E  |
| Data Size    | 1 bytes |
| Instructions | 1       |

```
      00 01 02 03 04 05 06 07  08 09 0A 0B 0C 0D 0E 0F
      -- -- -- -- -- -- -- --  -- -- -- -- -- -- -- --
0740:                                            00                   . 
```

#### Opcodes

```
  0: 0x074E [0x00] END_REQSTACK()
```

### Event 10017

#### Metadata

| Field        | Value   |
|--------------|---------|
| Entrypoint   | 0x074F  |
| Data Size    | 1 bytes |
| Instructions | 1       |

```
      00 01 02 03 04 05 06 07  08 09 0A 0B 0C 0D 0E 0F
      -- -- -- -- -- -- -- --  -- -- -- -- -- -- -- --
0740:                                               00                 .
```

#### Opcodes

```
  0: 0x074F [0x00] END_REQSTACK()
```

### Event 65535.16

#### Metadata

| Field        | Value    |
|--------------|----------|
| Entrypoint   | 0x0750   |
| Data Size    | 12 bytes |
| Instructions | 3        |

```
      00 01 02 03 04 05 06 07  08 09 0A 0B 0C 0D 0E 0F
      -- -- -- -- -- -- -- --  -- -- -- -- -- -- -- --
0750: 33 01 37 6C 80 6D 80 6E  80 6F 80 00              3.7l.m.n.o..    
```

#### Opcodes

```
  0: 0x0750 [0x33] EventEntity->Render.Flags0 |= 0x200000 // Bit 21 (flag=0x01)
  1: 0x0752 [0x37] UPDATE_EVENT_POSITION_AND_DIR: x=-53.241*, z=80.172*, y=2.074*, direction=150.8°*
  2: 0x075B [0x00] END_REQSTACK()
```

### Event 65535.17

#### Metadata

| Field        | Value    |
|--------------|----------|
| Entrypoint   | 0x075C   |
| Data Size    | 43 bytes |
| Instructions | 12       |

```
      00 01 02 03 04 05 06 07  08 09 0A 0B 0C 0D 0E 0F
      -- -- -- -- -- -- -- --  -- -- -- -- -- -- -- --
0750:                                      32 5D 80 5A              2].Z
0760: 00 70 80 71 80 13 80 5A  01 33 00 1F 00 72 80 73  .p.q...Z.3...r.s
0770: 80 13 80 1F 01 6F 1C 74  80 4B F8 FF FF 7F 75 80  .....o.t.K....u.
0780: 6F 76 F8 FF FF 7F 00                              ov.....         
```

#### Opcodes

```
  0: 0x075C [0x32] ExtData[1]->MainSpeed = 13* * 0.1
  1: 0x075F [0x5A] UPDATE_EVENT_POSITION: Set EventEntity MovePosition to X=-57.426*, Z=78.294*, Y=0.000*
  2: 0x0767 [0x5A] UPDATE_EVENT_POSITION: Move EventEntity incrementally towards MovePosition
  3: 0x0769 [0x33] EventEntity->Render.Flags0 &= ~ 0x200000 // Bit 21 (flag=0x00)
  4: 0x076B [0x1F] MOVE_ENTITY: EventEntity moves to X=-58.756*, Z=78.176*, Y=0.000*
  5: 0x0773 [0x1F] MOVE_ENTITY: Update entity position (mode=1)
  6: 0x0775 [0x6F] WAIT_FRAME_DELAY: Yield until WaitTime reaches zero
  7: 0x0776 [0x1C] WAIT(6* ticks)
  8: 0x0779 [0x4B] UPDATE_ENTITY_YAW(entity=EventEntity, yaw=14.2°*)
  9: 0x0780 [0x6F] WAIT_FRAME_DELAY: Yield until WaitTime reaches zero
 10: 0x0781 [0x76] CHECK_ENTITY_RENDER_FLAGS: Wait until EventEntity Render.Flags0 and Render.Flags3 conditions are met
 11: 0x0786 [0x00] END_REQSTACK()
```

### Event 65535.18

#### Metadata

| Field        | Value    |
|--------------|----------|
| Entrypoint   | 0x0787   |
| Data Size    | 10 bytes |
| Instructions | 2        |

```
      00 01 02 03 04 05 06 07  08 09 0A 0B 0C 0D 0E 0F
      -- -- -- -- -- -- -- --  -- -- -- -- -- -- -- --
0780:                      37  76 80 77 80 13 80 78 80         7v.w...x.
0790: 00                                                .               
```

#### Opcodes

```
  0: 0x0787 [0x37] UPDATE_EVENT_POSITION_AND_DIR: x=-60.361*, z=81.322*, y=0.000*, direction=327.5°*
  1: 0x0790 [0x00] END_REQSTACK()
```

### Event 65535.19

#### Metadata

| Field        | Value    |
|--------------|----------|
| Entrypoint   | 0x0791   |
| Data Size    | 10 bytes |
| Instructions | 2        |

```
      00 01 02 03 04 05 06 07  08 09 0A 0B 0C 0D 0E 0F
      -- -- -- -- -- -- -- --  -- -- -- -- -- -- -- --
0790:    37 79 80 7A 80 7B 80  7C 80 00                  7y.z.{.|..     
```

#### Opcodes

```
  0: 0x0791 [0x37] UPDATE_EVENT_POSITION_AND_DIR: x=-63.594*, z=112.873*, y=8.204*, direction=18.4°*
  1: 0x079A [0x00] END_REQSTACK()
```

### Event 65535.20

#### Metadata

| Field        | Value    |
|--------------|----------|
| Entrypoint   | 0x079B   |
| Data Size    | 10 bytes |
| Instructions | 2        |

```
      00 01 02 03 04 05 06 07  08 09 0A 0B 0C 0D 0E 0F
      -- -- -- -- -- -- -- --  -- -- -- -- -- -- -- --
0790:                                   37 7D 80 7E 80             7}.~.
07A0: 7F 80 80 80 00                                    .....           
```

#### Opcodes

```
  0: 0x079B [0x37] UPDATE_EVENT_POSITION_AND_DIR: x=-630.293*, z=352.326*, y=-24.391*, direction=76.0°*
  1: 0x07A4 [0x00] END_REQSTACK()
```

### Event 65535.21

#### Metadata

| Field        | Value    |
|--------------|----------|
| Entrypoint   | 0x07A5   |
| Data Size    | 15 bytes |
| Instructions | 5        |

```
      00 01 02 03 04 05 06 07  08 09 0A 0B 0C 0D 0E 0F
      -- -- -- -- -- -- -- --  -- -- -- -- -- -- -- --
07A0:                32 81 80  1F 00 82 80 83 80 13 80       2..........
07B0: 1F 01 6F 00                                       ..o.            
```

#### Opcodes

```
  0: 0x07A5 [0x32] ExtData[1]->MainSpeed = 11* * 0.1
  1: 0x07A8 [0x1F] MOVE_ENTITY: EventEntity moves to X=-62.269*, Z=82.975*, Y=0.000*
  2: 0x07B0 [0x1F] MOVE_ENTITY: Update entity position (mode=1)
  3: 0x07B2 [0x6F] WAIT_FRAME_DELAY: Yield until WaitTime reaches zero
  4: 0x07B3 [0x00] END_REQSTACK()
```

### Event 65535.22

#### Metadata

| Field        | Value    |
|--------------|----------|
| Entrypoint   | 0x07B4   |
| Data Size    | 15 bytes |
| Instructions | 5        |

```
      00 01 02 03 04 05 06 07  08 09 0A 0B 0C 0D 0E 0F
      -- -- -- -- -- -- -- --  -- -- -- -- -- -- -- --
07B0:             32 5D 80 1F  00 84 80 85 80 13 80 1F      2]..........
07C0: 01 6F 00                                          .o.             
```

#### Opcodes

```
  0: 0x07B4 [0x32] ExtData[1]->MainSpeed = 13* * 0.1
  1: 0x07B7 [0x1F] MOVE_ENTITY: EventEntity moves to X=-58.211*, Z=77.919*, Y=0.000*
  2: 0x07BF [0x1F] MOVE_ENTITY: Update entity position (mode=1)
  3: 0x07C1 [0x6F] WAIT_FRAME_DELAY: Yield until WaitTime reaches zero
  4: 0x07C2 [0x00] END_REQSTACK()
```

### Event 10093

#### Metadata

| Field        | Value   |
|--------------|---------|
| Entrypoint   | 0x07C3  |
| Data Size    | 1 bytes |
| Instructions | 1       |

```
      00 01 02 03 04 05 06 07  08 09 0A 0B 0C 0D 0E 0F
      -- -- -- -- -- -- -- --  -- -- -- -- -- -- -- --
07C0:          00                                          .            
```

#### Opcodes

```
  0: 0x07C3 [0x00] END_REQSTACK()
```

### Event 65535.23

#### Metadata

| Field        | Value    |
|--------------|----------|
| Entrypoint   | 0x07C4   |
| Data Size    | 15 bytes |
| Instructions | 3        |

```
      00 01 02 03 04 05 06 07  08 09 0A 0B 0C 0D 0E 0F
      -- -- -- -- -- -- -- --  -- -- -- -- -- -- -- --
07C0:             37 86 80 87  80 06 80 88 80 80 F8 FF      7...........
07D0: FF 7F 00                                          ...             
```

#### Opcodes

```
  0: 0x07C4 [0x37] UPDATE_EVENT_POSITION_AND_DIR: x=-54.169*, z=91.940*, y=8.199*, direction=65.9°*
  1: 0x07CD [0x80] LOAD_WAIT(entity=EventEntity)
  2: 0x07D2 [0x00] END_REQSTACK()
```

### Event 65535.24

#### Metadata

| Field        | Value    |
|--------------|----------|
| Entrypoint   | 0x07D3   |
| Data Size    | 31 bytes |
| Instructions | 7        |

```
      00 01 02 03 04 05 06 07  08 09 0A 0B 0C 0D 0E 0F
      -- -- -- -- -- -- -- --  -- -- -- -- -- -- -- --
07D0:          32 5D 80 1F 00  89 80 8A 80 06 80 1F 01     2]...........
07E0: 1E F0 FF FF 7F 1C 62 80  4A F0 FF FF 7F 0C 40 0F  ......b.J.....@.
07F0: 01 00                                             ..              
```

#### Opcodes

```
  0: 0x07D3 [0x32] ExtData[1]->MainSpeed = 13* * 0.1
  1: 0x07D6 [0x1F] MOVE_ENTITY: EventEntity moves to X=-47.817*, Z=90.773*, Y=8.199*
  2: 0x07DE [0x1F] MOVE_ENTITY: Update entity position (mode=1)
  3: 0x07E0 [0x1E] EventEntity looks at LocalPlayer and starts talking
  4: 0x07E5 [0x1C] WAIT(30* ticks)
  5: 0x07E8 [0x4A] LocalPlayer looks at Brutus (ID: 17776652/0x010F400C)
  6: 0x07F1 [0x00] END_REQSTACK()
```

### Event 65535.25

#### Metadata

| Field        | Value    |
|--------------|----------|
| Entrypoint   | 0x07F2   |
| Data Size    | 14 bytes |
| Instructions | 4        |

```
      00 01 02 03 04 05 06 07  08 09 0A 0B 0C 0D 0E 0F
      -- -- -- -- -- -- -- --  -- -- -- -- -- -- -- --
07F0:       32 5D 80 1F 00 8B  80 8C 80 06 80 1F 01 00    2]............
```

#### Opcodes

```
  0: 0x07F2 [0x32] ExtData[1]->MainSpeed = 13* * 0.1
  1: 0x07F5 [0x1F] MOVE_ENTITY: EventEntity moves to X=-52.851*, Z=91.222*, Y=8.199*
  2: 0x07FD [0x1F] MOVE_ENTITY: Update entity position (mode=1)
  3: 0x07FF [0x00] END_REQSTACK()
```

### Event 65535.26

#### Metadata

| Field        | Value    |
|--------------|----------|
| Entrypoint   | 0x0800   |
| Data Size    | 15 bytes |
| Instructions | 3        |

```
      00 01 02 03 04 05 06 07  08 09 0A 0B 0C 0D 0E 0F
      -- -- -- -- -- -- -- --  -- -- -- -- -- -- -- --
0800: 37 8D 80 8E 80 06 80 8F  80 80 F8 FF FF 7F 00     7.............. 
```

#### Opcodes

```
  0: 0x0800 [0x37] UPDATE_EVENT_POSITION_AND_DIR: x=-57.023*, z=97.519*, y=8.199*, direction=51.4°*
  1: 0x0809 [0x80] LOAD_WAIT(entity=EventEntity)
  2: 0x080E [0x00] END_REQSTACK()
```

### Event 65535.27

#### Metadata

| Field        | Value    |
|--------------|----------|
| Entrypoint   | 0x080F   |
| Data Size    | 14 bytes |
| Instructions | 4        |

```
      00 01 02 03 04 05 06 07  08 09 0A 0B 0C 0D 0E 0F
      -- -- -- -- -- -- -- --  -- -- -- -- -- -- -- --
0800:                                               32                 2
0810: 5D 80 1F 00 90 80 91 80  06 80 1F 01 00           ]............   
```

#### Opcodes

```
  0: 0x080F [0x32] ExtData[1]->MainSpeed = 13* * 0.1
  1: 0x0812 [0x1F] MOVE_ENTITY: EventEntity moves to X=-55.430*, Z=94.251*, Y=8.199*
  2: 0x081A [0x1F] MOVE_ENTITY: Update entity position (mode=1)
  3: 0x081C [0x00] END_REQSTACK()
```

### Event 65535.28

#### Metadata

| Field        | Value    |
|--------------|----------|
| Entrypoint   | 0x081D   |
| Data Size    | 24 bytes |
| Instructions | 6        |

```
      00 01 02 03 04 05 06 07  08 09 0A 0B 0C 0D 0E 0F
      -- -- -- -- -- -- -- --  -- -- -- -- -- -- -- --
0810:                                         32 92 80               2..
0820: 1F 00 89 80 8A 80 06 80  1F 01 4B 0C 40 0F 01 93  ..........K.@...
0830: 80 1C 62 80 00                                    ..b..           
```

#### Opcodes

```
  0: 0x081D [0x32] ExtData[1]->MainSpeed = 40* * 0.1
  1: 0x0820 [0x1F] MOVE_ENTITY: EventEntity moves to X=-47.817*, Z=90.773*, Y=8.199*
  2: 0x0828 [0x1F] MOVE_ENTITY: Update entity position (mode=1)
  3: 0x082A [0x4B] UPDATE_ENTITY_YAW(entity=Brutus (ID: 17776652/0x010F400C), yaw=15.9°*)
  4: 0x0831 [0x1C] WAIT(30* ticks)
  5: 0x0834 [0x00] END_REQSTACK()
```

### Event 10094

#### Metadata

| Field        | Value    |
|--------------|----------|
| Entrypoint   | 0x0835   |
| Data Size    | 30 bytes |
| Instructions | 8        |

```
      00 01 02 03 04 05 06 07  08 09 0A 0B 0C 0D 0E 0F
      -- -- -- -- -- -- -- --  -- -- -- -- -- -- -- --
0830:                42 1E F0  FF FF 7F 1C 62 80 5B 17       B......b.[.
0840: 80 F8 FF FF 7F F8 FF FF  7F 74 6C 6B 30 1D 94 80  .........tlk0...
0850: 23 21 00                                          #!.             
```

#### Opcodes

```
  0: 0x0835 [0x42] SET_CLI_EVENT_CANCEL_DATA()
  1: 0x0836 [0x1E] EventEntity looks at LocalPlayer and starts talking
  2: 0x083B [0x1C] WAIT(30* ticks)
  3: 0x083E [0x5B] LOAD_EXT_SCHEDULER: Load scheduler "tlk0" with entities [EventEntity, EventEntity], work=65*
  4: 0x084D [0x1D] PRINT_EVENT_MESSAGE(message_id=11149*)
    → "The chocobo that escaped probably headed for La Theine... Good luck finding him."
  5: 0x0850 [0x23] WAIT_FOR_DIALOG_INTERACTION
  6: 0x0851 [0x21] END_EVENT
  7: 0x0852 [0x00] END_REQSTACK()
```

### Event 10095

#### Metadata

| Field        | Value   |
|--------------|---------|
| Entrypoint   | 0x0853  |
| Data Size    | 1 bytes |
| Instructions | 1       |

```
      00 01 02 03 04 05 06 07  08 09 0A 0B 0C 0D 0E 0F
      -- -- -- -- -- -- -- --  -- -- -- -- -- -- -- --
0850:          00                                          .            
```

#### Opcodes

```
  0: 0x0853 [0x00] END_REQSTACK()
```

### Event 65535.29

#### Metadata

| Field        | Value    |
|--------------|----------|
| Entrypoint   | 0x0854   |
| Data Size    | 28 bytes |
| Instructions | 6        |

```
      00 01 02 03 04 05 06 07  08 09 0A 0B 0C 0D 0E 0F
      -- -- -- -- -- -- -- --  -- -- -- -- -- -- -- --
0850:             32 5D 80 1F  00 90 80 91 80 06 80 1F      2]..........
0860: 01 1E F0 FF FF 7F 4A F0  FF FF 7F 0C 40 0F 01 00  ......J.....@...
```

#### Opcodes

```
  0: 0x0854 [0x32] ExtData[1]->MainSpeed = 13* * 0.1
  1: 0x0857 [0x1F] MOVE_ENTITY: EventEntity moves to X=-55.430*, Z=94.251*, Y=8.199*
  2: 0x085F [0x1F] MOVE_ENTITY: Update entity position (mode=1)
  3: 0x0861 [0x1E] EventEntity looks at LocalPlayer and starts talking
  4: 0x0866 [0x4A] LocalPlayer looks at Brutus (ID: 17776652/0x010F400C)
  5: 0x086F [0x00] END_REQSTACK()
```

### Event 10099

#### Metadata

| Field        | Value    |
|--------------|----------|
| Entrypoint   | 0x0870   |
| Data Size    | 30 bytes |
| Instructions | 8        |

```
      00 01 02 03 04 05 06 07  08 09 0A 0B 0C 0D 0E 0F
      -- -- -- -- -- -- -- --  -- -- -- -- -- -- -- --
0870: 42 1E F0 FF FF 7F 1C 62  80 5B 17 80 F8 FF FF 7F  B......b.[......
0880: F8 FF FF 7F 74 6C 6B 30  1D 95 80 23 21 00        ....tlk0...#!.  
```

#### Opcodes

```
  0: 0x0870 [0x42] SET_CLI_EVENT_CANCEL_DATA()
  1: 0x0871 [0x1E] EventEntity looks at LocalPlayer and starts talking
  2: 0x0876 [0x1C] WAIT(30* ticks)
  3: 0x0879 [0x5B] LOAD_EXT_SCHEDULER: Load scheduler "tlk0" with entities [EventEntity, EventEntity], work=65*
  4: 0x0888 [0x1D] PRINT_EVENT_MESSAGE(message_id=11159*)
    → "Sorry, but I think you should also attend the session. You're the one who last saw the chocobo before the change..."
  5: 0x088B [0x23] WAIT_FOR_DIALOG_INTERACTION
  6: 0x088C [0x21] END_EVENT
  7: 0x088D [0x00] END_REQSTACK()
```

### Event 10100

#### Metadata

| Field        | Value   |
|--------------|---------|
| Entrypoint   | 0x088E  |
| Data Size    | 1 bytes |
| Instructions | 1       |

```
      00 01 02 03 04 05 06 07  08 09 0A 0B 0C 0D 0E 0F
      -- -- -- -- -- -- -- --  -- -- -- -- -- -- -- --
0880:                                            00                   . 
```

#### Opcodes

```
  0: 0x088E [0x00] END_REQSTACK()
```

### Event 65535.30

#### Metadata

| Field        | Value    |
|--------------|----------|
| Entrypoint   | 0x088F   |
| Data Size    | 15 bytes |
| Instructions | 3        |

```
      00 01 02 03 04 05 06 07  08 09 0A 0B 0C 0D 0E 0F
      -- -- -- -- -- -- -- --  -- -- -- -- -- -- -- --
0880:                                               37                 7
0890: 96 80 97 80 06 80 98 80  80 F8 FF FF 7F 00        ..............  
```

#### Opcodes

```
  0: 0x088F [0x37] UPDATE_EVENT_POSITION_AND_DIR: x=-54.843*, z=94.585*, y=8.199*, direction=12.7°*
  1: 0x0898 [0x80] LOAD_WAIT(entity=EventEntity)
  2: 0x089D [0x00] END_REQSTACK()
```

### Event 65535.31

#### Metadata

| Field        | Value    |
|--------------|----------|
| Entrypoint   | 0x089E   |
| Data Size    | 15 bytes |
| Instructions | 3        |

```
      00 01 02 03 04 05 06 07  08 09 0A 0B 0C 0D 0E 0F
      -- -- -- -- -- -- -- --  -- -- -- -- -- -- -- --
0890:                                            37 99                7.
08A0: 80 9A 80 9B 80 9C 80 80  F8 FF FF 7F 00           .............   
```

#### Opcodes

```
  0: 0x089E [0x37] UPDATE_EVENT_POSITION_AND_DIR: x=-9.252*, z=-99.462*, y=1.399*, direction=198.3°*
  1: 0x08A7 [0x80] LOAD_WAIT(entity=EventEntity)
  2: 0x08AC [0x00] END_REQSTACK()
```

### Event 65535.32

#### Metadata

| Field        | Value    |
|--------------|----------|
| Entrypoint   | 0x08AD   |
| Data Size    | 10 bytes |
| Instructions | 2        |

```
      00 01 02 03 04 05 06 07  08 09 0A 0B 0C 0D 0E 0F
      -- -- -- -- -- -- -- --  -- -- -- -- -- -- -- --
08A0:                                         37 9D 80               7..
08B0: 9E 80 06 80 9F 80 00                              .......         
```

#### Opcodes

```
  0: 0x08AD [0x37] UPDATE_EVENT_POSITION_AND_DIR: x=-55.315*, z=94.672*, y=8.199*, direction=62.1°*
  1: 0x08B6 [0x00] END_REQSTACK()
```

### Event 10109

#### Metadata

| Field        | Value   |
|--------------|---------|
| Entrypoint   | 0x08B7  |
| Data Size    | 1 bytes |
| Instructions | 1       |

```
      00 01 02 03 04 05 06 07  08 09 0A 0B 0C 0D 0E 0F
      -- -- -- -- -- -- -- --  -- -- -- -- -- -- -- --
08B0:                      00                                  .        
```

#### Opcodes

```
  0: 0x08B7 [0x00] END_REQSTACK()
```

### Event 10230

#### Metadata

| Field        | Value   |
|--------------|---------|
| Entrypoint   | 0x08B8  |
| Data Size    | 1 bytes |
| Instructions | 1       |

```
      00 01 02 03 04 05 06 07  08 09 0A 0B 0C 0D 0E 0F
      -- -- -- -- -- -- -- --  -- -- -- -- -- -- -- --
08B0:                          00                               .       
```

#### Opcodes

```
  0: 0x08B8 [0x00] END_REQSTACK()
```

### Event 10231

#### Metadata

| Field        | Value   |
|--------------|---------|
| Entrypoint   | 0x08B9  |
| Data Size    | 1 bytes |
| Instructions | 1       |

```
      00 01 02 03 04 05 06 07  08 09 0A 0B 0C 0D 0E 0F
      -- -- -- -- -- -- -- --  -- -- -- -- -- -- -- --
08B0:                             00                             .      
```

#### Opcodes

```
  0: 0x08B9 [0x00] END_REQSTACK()
```

### Event 10232

#### Metadata

| Field        | Value   |
|--------------|---------|
| Entrypoint   | 0x08BA  |
| Data Size    | 1 bytes |
| Instructions | 1       |

```
      00 01 02 03 04 05 06 07  08 09 0A 0B 0C 0D 0E 0F
      -- -- -- -- -- -- -- --  -- -- -- -- -- -- -- --
08B0:                                00                           .     
```

#### Opcodes

```
  0: 0x08BA [0x00] END_REQSTACK()
```

### Event 10233

#### Metadata

| Field        | Value   |
|--------------|---------|
| Entrypoint   | 0x08BB  |
| Data Size    | 1 bytes |
| Instructions | 1       |

```
      00 01 02 03 04 05 06 07  08 09 0A 0B 0C 0D 0E 0F
      -- -- -- -- -- -- -- --  -- -- -- -- -- -- -- --
08B0:                                   00                         .    
```

#### Opcodes

```
  0: 0x08BB [0x00] END_REQSTACK()
```

### Event 10234

#### Metadata

| Field        | Value   |
|--------------|---------|
| Entrypoint   | 0x08BC  |
| Data Size    | 1 bytes |
| Instructions | 1       |

```
      00 01 02 03 04 05 06 07  08 09 0A 0B 0C 0D 0E 0F
      -- -- -- -- -- -- -- --  -- -- -- -- -- -- -- --
08B0:                                      00                       .   
```

#### Opcodes

```
  0: 0x08BC [0x00] END_REQSTACK()
```

### Event 65535.33

#### Metadata

| Field        | Value    |
|--------------|----------|
| Entrypoint   | 0x08BD   |
| Data Size    | 14 bytes |
| Instructions | 4        |

```
      00 01 02 03 04 05 06 07  08 09 0A 0B 0C 0D 0E 0F
      -- -- -- -- -- -- -- --  -- -- -- -- -- -- -- --
08B0:                                         32 5D 80               2].
08C0: 1F 00 A0 80 A1 80 A2 80  1F 01 00                 ...........     
```

#### Opcodes

```
  0: 0x08BD [0x32] ExtData[1]->MainSpeed = 13* * 0.1
  1: 0x08C0 [0x1F] MOVE_ENTITY: EventEntity moves to X=-55.350*, Z=92.630*, Y=8.200*
  2: 0x08C8 [0x1F] MOVE_ENTITY: Update entity position (mode=1)
  3: 0x08CA [0x00] END_REQSTACK()
```
