# 17776872 - 6

## Common Data

| Field            | Value                 |
|------------------|-----------------------|
| Zone             | Upper Jeuno (ID: 244) |
| Block Size       | 312 bytes             |
| Total Events     | 16                    |
| References Count | 8                     |

## List of Events

| Event ID                   | Entrypoint   |   Size |   Instructions |
|----------------------------|--------------|--------|----------------|
| [65535](#event-65535)      | 0x0000       |      1 |              1 |
| [65535.1](#event-655351)   | 0x0001       |     39 |              6 |
| [65535.2](#event-655352)   | 0x0028       |     10 |              2 |
| [65535.3](#event-655353)   | 0x0032       |     10 |              2 |
| [65535.4](#event-655354)   | 0x003C       |      5 |              2 |
| [10182](#event-10182)      | 0x0041       |      1 |              1 |
| [65535.5](#event-655355)   | 0x0042       |      8 |              3 |
| [65535.6](#event-655356)   | 0x004A       |     18 |              3 |
| [65535.7](#event-655357)   | 0x005C       |     16 |              2 |
| [65535.8](#event-655358)   | 0x006C       |     16 |              2 |
| [65535.9](#event-655359)   | 0x007C       |     16 |              2 |
| [65535.10](#event-6553510) | 0x008C       |     16 |              2 |
| [65535.11](#event-6553511) | 0x009C       |      8 |              3 |
| [65535.12](#event-6553512) | 0x00A4       |     16 |              2 |
| [65535.13](#event-6553513) | 0x00B4       |     16 |              2 |
| [10184](#event-10184)      | 0x00C4       |      1 |              1 |

## DAT References (imed_data)

|   Index | Hex Value   |   Dec Value |
|---------|-------------|-------------|
|       0 | 0x0080      |         128 |
|       1 | 0x0000      |           0 |
|       2 | 0x0034      |          52 |
|       3 | 0x093C      |        2364 |
|       4 | 0x0001      |           1 |
|       5 | 0x0A50      |        2640 |
|       6 | 0x08DD      |        2269 |
|       7 | 0x0A51      |        2641 |

## Events

### Event 65535

#### Metadata

| Field        | Value   |
|--------------|---------|
| Entrypoint   | 0x0000  |
| Data Size    | 1 bytes |
| Instructions | 1       |

```
      00 01 02 03 04 05 06 07  08 09 0A 0B 0C 0D 0E 0F
      -- -- -- -- -- -- -- --  -- -- -- -- -- -- -- --
0000: 00                                                .               
```

#### Opcodes

```
  0: 0x0000 [0x00] END_REQSTACK()
```

### Event 65535.1

#### Metadata

| Field        | Value    |
|--------------|----------|
| Entrypoint   | 0x0001   |
| Data Size    | 39 bytes |
| Instructions | 6        |

```
      00 01 02 03 04 05 06 07  08 09 0A 0B 0C 0D 0E 0F
      -- -- -- -- -- -- -- --  -- -- -- -- -- -- -- --
0000:    B4 00 00 00 3F 3F 3F  00 00 00 00 00 00 00 00   ....???........
0010: 00 00 00 00 00 B5 00 00  00 22 00 92 01 F8 FF FF  ........."......
0020: 7F 94 01 F8 FF FF 7F 00                           ........        
```

#### Opcodes

```
  0: 0x0001 [0xB4] UI_WINDOW_STRING_HANDLER(case=0x00 - Copy string from opcode, work_offset=ExtData[1]->WorkLocal[0], string="???")
  1: 0x0015 [0xB5] SET_EVENT_ENTITY_NAME: Change EventEntity name to ExtData[1]->WorkLocal[0]
  2: 0x0019 [0x22] ENTITY_HIDE_FLAG(enabled=0x00)
  3: 0x001B [0x92] EventEntity->Render.Flags3 ^= 0x01
  4: 0x0021 [0x94] EventEntity->Render.Flags3 ^= 0x01
  5: 0x0027 [0x00] END_REQSTACK()
```

### Event 65535.2

#### Metadata

| Field        | Value    |
|--------------|----------|
| Entrypoint   | 0x0028   |
| Data Size    | 10 bytes |
| Instructions | 2        |

```
      00 01 02 03 04 05 06 07  08 09 0A 0B 0C 0D 0E 0F
      -- -- -- -- -- -- -- --  -- -- -- -- -- -- -- --
0020:                          6C F8 FF FF 7F 00 80 01          l.......
0030: 80 00                                             ..              
```

#### Opcodes

```
  0: 0x0028 [0x6C] FADE_ENTITY_COLOR(entity_id=EventEntity, end_alpha=128*, fade_time=0*)
  1: 0x0031 [0x00] END_REQSTACK()
```

### Event 65535.3

#### Metadata

| Field        | Value    |
|--------------|----------|
| Entrypoint   | 0x0032   |
| Data Size    | 10 bytes |
| Instructions | 2        |

```
      00 01 02 03 04 05 06 07  08 09 0A 0B 0C 0D 0E 0F
      -- -- -- -- -- -- -- --  -- -- -- -- -- -- -- --
0030:       6C F8 FF FF 7F 01  80 01 80 00                l.........    
```

#### Opcodes

```
  0: 0x0032 [0x6C] FADE_ENTITY_COLOR(entity_id=EventEntity, end_alpha=0*, fade_time=0*)
  1: 0x003B [0x00] END_REQSTACK()
```

### Event 65535.4

#### Metadata

| Field        | Value   |
|--------------|---------|
| Entrypoint   | 0x003C  |
| Data Size    | 5 bytes |
| Instructions | 2       |

```
      00 01 02 03 04 05 06 07  08 09 0A 0B 0C 0D 0E 0F
      -- -- -- -- -- -- -- --  -- -- -- -- -- -- -- --
0030:                                      B6 00 02 80              ....
0040: 00                                                .               
```

#### Opcodes

```
  0: 0x003C [0xB6] ENTITY_APPEARANCE_HANDLER(case=Hair style, value=52*)
  1: 0x0040 [0x00] END_REQSTACK()
```

### Event 10182

#### Metadata

| Field        | Value   |
|--------------|---------|
| Entrypoint   | 0x0041  |
| Data Size    | 1 bytes |
| Instructions | 1       |

```
      00 01 02 03 04 05 06 07  08 09 0A 0B 0C 0D 0E 0F
      -- -- -- -- -- -- -- --  -- -- -- -- -- -- -- --
0040:    00                                              .              
```

#### Opcodes

```
  0: 0x0041 [0x00] END_REQSTACK()
```

### Event 65535.5

#### Metadata

| Field        | Value   |
|--------------|---------|
| Entrypoint   | 0x0042  |
| Data Size    | 8 bytes |
| Instructions | 3       |

```
      00 01 02 03 04 05 06 07  08 09 0A 0B 0C 0D 0E 0F
      -- -- -- -- -- -- -- --  -- -- -- -- -- -- -- --
0040:       B6 00 03 80 C0 04  80 00                      ........      
```

#### Opcodes

```
  0: 0x0042 [0xB6] ENTITY_APPEARANCE_HANDLER(case=Hair style, value=2364*)
  1: 0x0046 [0xC0] EventEntity->Render.Flags3 |= 0x1000 // Set bit 12 (from 1*)
  2: 0x0049 [0x00] END_REQSTACK()
```

### Event 65535.6

#### Metadata

| Field        | Value    |
|--------------|----------|
| Entrypoint   | 0x004A   |
| Data Size    | 18 bytes |
| Instructions | 3        |

```
      00 01 02 03 04 05 06 07  08 09 0A 0B 0C 0D 0E 0F
      -- -- -- -- -- -- -- --  -- -- -- -- -- -- -- --
0040:                                22 00 5B 05 80 F8            ".[...
0050: FF FF 7F F8 FF FF 7F 62  6B 61 30 00              .......bka0.    
```

#### Opcodes

```
  0: 0x004A [0x22] ENTITY_HIDE_FLAG(enabled=0x00)
  1: 0x004C [0x5B] LOAD_EXT_SCHEDULER: Load scheduler "bka0" with entities [EventEntity, EventEntity], work=2640*
  2: 0x005B [0x00] END_REQSTACK()
```

### Event 65535.7

#### Metadata

| Field        | Value    |
|--------------|----------|
| Entrypoint   | 0x005C   |
| Data Size    | 16 bytes |
| Instructions | 2        |

```
      00 01 02 03 04 05 06 07  08 09 0A 0B 0C 0D 0E 0F
      -- -- -- -- -- -- -- --  -- -- -- -- -- -- -- --
0050:                                      5B 05 80 F8              [...
0060: FF FF 7F F8 FF FF 7F 62  6B 61 6C 00              .......bkal.    
```

#### Opcodes

```
  0: 0x005C [0x5B] LOAD_EXT_SCHEDULER: Load scheduler "bkal" with entities [EventEntity, EventEntity], work=2640*
  1: 0x006B [0x00] END_REQSTACK()
```

### Event 65535.8

#### Metadata

| Field        | Value    |
|--------------|----------|
| Entrypoint   | 0x006C   |
| Data Size    | 16 bytes |
| Instructions | 2        |

```
      00 01 02 03 04 05 06 07  08 09 0A 0B 0C 0D 0E 0F
      -- -- -- -- -- -- -- --  -- -- -- -- -- -- -- --
0060:                                      5B 05 80 F8              [...
0070: FF FF 7F F8 FF FF 7F 62  6B 61 31 00              .......bka1.    
```

#### Opcodes

```
  0: 0x006C [0x5B] LOAD_EXT_SCHEDULER: Load scheduler "bka1" with entities [EventEntity, EventEntity], work=2640*
  1: 0x007B [0x00] END_REQSTACK()
```

### Event 65535.9

#### Metadata

| Field        | Value    |
|--------------|----------|
| Entrypoint   | 0x007C   |
| Data Size    | 16 bytes |
| Instructions | 2        |

```
      00 01 02 03 04 05 06 07  08 09 0A 0B 0C 0D 0E 0F
      -- -- -- -- -- -- -- --  -- -- -- -- -- -- -- --
0070:                                      5B 05 80 F8              [...
0080: FF FF 7F F8 FF FF 7F 62  6B 72 30 00              .......bkr0.    
```

#### Opcodes

```
  0: 0x007C [0x5B] LOAD_EXT_SCHEDULER: Load scheduler "bkr0" with entities [EventEntity, EventEntity], work=2640*
  1: 0x008B [0x00] END_REQSTACK()
```

### Event 65535.10

#### Metadata

| Field        | Value    |
|--------------|----------|
| Entrypoint   | 0x008C   |
| Data Size    | 16 bytes |
| Instructions | 2        |

```
      00 01 02 03 04 05 06 07  08 09 0A 0B 0C 0D 0E 0F
      -- -- -- -- -- -- -- --  -- -- -- -- -- -- -- --
0080:                                      5B 05 80 F8              [...
0090: FF FF 7F F8 FF FF 7F 62  6B 72 31 00              .......bkr1.    
```

#### Opcodes

```
  0: 0x008C [0x5B] LOAD_EXT_SCHEDULER: Load scheduler "bkr1" with entities [EventEntity, EventEntity], work=2640*
  1: 0x009B [0x00] END_REQSTACK()
```

### Event 65535.11

#### Metadata

| Field        | Value   |
|--------------|---------|
| Entrypoint   | 0x009C  |
| Data Size    | 8 bytes |
| Instructions | 3       |

```
      00 01 02 03 04 05 06 07  08 09 0A 0B 0C 0D 0E 0F
      -- -- -- -- -- -- -- --  -- -- -- -- -- -- -- --
0090:                                      B6 00 06 80              ....
00A0: C0 04 80 00                                       ....            
```

#### Opcodes

```
  0: 0x009C [0xB6] ENTITY_APPEARANCE_HANDLER(case=Hair style, value=2269*)
  1: 0x00A0 [0xC0] EventEntity->Render.Flags3 |= 0x1000 // Set bit 12 (from 1*)
  2: 0x00A3 [0x00] END_REQSTACK()
```

### Event 65535.12

#### Metadata

| Field        | Value    |
|--------------|----------|
| Entrypoint   | 0x00A4   |
| Data Size    | 16 bytes |
| Instructions | 2        |

```
      00 01 02 03 04 05 06 07  08 09 0A 0B 0C 0D 0E 0F
      -- -- -- -- -- -- -- --  -- -- -- -- -- -- -- --
00A0:             5B 07 80 F8  FF FF 7F F8 FF FF 7F 72      [..........r
00B0: 72 6B 30 00                                       rk0.            
```

#### Opcodes

```
  0: 0x00A4 [0x5B] LOAD_EXT_SCHEDULER: Load scheduler "rrk0" with entities [EventEntity, EventEntity], work=2641*
  1: 0x00B3 [0x00] END_REQSTACK()
```

### Event 65535.13

#### Metadata

| Field        | Value    |
|--------------|----------|
| Entrypoint   | 0x00B4   |
| Data Size    | 16 bytes |
| Instructions | 2        |

```
      00 01 02 03 04 05 06 07  08 09 0A 0B 0C 0D 0E 0F
      -- -- -- -- -- -- -- --  -- -- -- -- -- -- -- --
00B0:             5B 07 80 F8  FF FF 7F F8 FF FF 7F 72      [..........r
00C0: 72 6B 31 00                                       rk1.            
```

#### Opcodes

```
  0: 0x00B4 [0x5B] LOAD_EXT_SCHEDULER: Load scheduler "rrk1" with entities [EventEntity, EventEntity], work=2641*
  1: 0x00C3 [0x00] END_REQSTACK()
```

### Event 10184

#### Metadata

| Field        | Value   |
|--------------|---------|
| Entrypoint   | 0x00C4  |
| Data Size    | 1 bytes |
| Instructions | 1       |

```
      00 01 02 03 04 05 06 07  08 09 0A 0B 0C 0D 0E 0F
      -- -- -- -- -- -- -- --  -- -- -- -- -- -- -- --
00C0:             00                                        .           
```

#### Opcodes

```
  0: 0x00C4 [0x00] END_REQSTACK()
```
