# 17776673 - Geebeh

## Common Data

| Field            | Value                 |
|------------------|-----------------------|
| Zone             | Upper Jeuno (ID: 244) |
| Block Size       | 312 bytes             |
| Total Events     | 12                    |
| References Count | 7                     |

## List of Events

| Event ID                 | Entrypoint   |   Size |   Instructions |
|--------------------------|--------------|--------|----------------|
| [65535](#event-65535)    | 0x0000       |      1 |              1 |
| [80](#event-80)          | 0x0001       |      1 |              1 |
| [79](#event-79)          | 0x0002       |      1 |              1 |
| [94](#event-94)          | 0x0003       |      1 |              1 |
| [121](#event-121)        | 0x0004       |     10 |              4 |
| [65535.1](#event-655351) | 0x000E       |     81 |             11 |
| [65535.2](#event-655352) | 0x005F       |     19 |              3 |
| [65535.3](#event-655353) | 0x0072       |     29 |              3 |
| [65535.4](#event-655354) | 0x008F       |     19 |              3 |
| [65535.5](#event-655355) | 0x00A2       |     19 |              3 |
| [65535.6](#event-655356) | 0x00B5       |     29 |              3 |
| [65535.7](#event-655357) | 0x00D2       |      9 |              3 |

## DAT References (imed_data)

|   Index | Hex Value   |   Dec Value |
|---------|-------------|-------------|
|       0 | 0x1D3C      |        7484 |
|       1 | 0x000F      |          15 |
|       2 | 0x0090      |         144 |
|       3 | 0x0000      |           0 |
|       4 | 0x005A      |          90 |
|       5 | 0x001E      |          30 |
|       6 | 0x003C      |          60 |

## Events

### Event 65535

#### Metadata

| Field        | Value   |
|--------------|---------|
| Entrypoint   | 0x0000  |
| Data Size    | 1 bytes |
| Instructions | 1       |

```
      00 01 02 03 04 05 06 07  08 09 0A 0B 0C 0D 0E 0F
      -- -- -- -- -- -- -- --  -- -- -- -- -- -- -- --
0000: 00                                                .               
```

#### Opcodes

```
  0: 0x0000 [0x00] END_REQSTACK()
```

### Event 80

#### Metadata

| Field        | Value   |
|--------------|---------|
| Entrypoint   | 0x0001  |
| Data Size    | 1 bytes |
| Instructions | 1       |

```
      00 01 02 03 04 05 06 07  08 09 0A 0B 0C 0D 0E 0F
      -- -- -- -- -- -- -- --  -- -- -- -- -- -- -- --
0000:    00                                              .              
```

#### Opcodes

```
  0: 0x0001 [0x00] END_REQSTACK()
```

### Event 79

#### Metadata

| Field        | Value   |
|--------------|---------|
| Entrypoint   | 0x0002  |
| Data Size    | 1 bytes |
| Instructions | 1       |

```
      00 01 02 03 04 05 06 07  08 09 0A 0B 0C 0D 0E 0F
      -- -- -- -- -- -- -- --  -- -- -- -- -- -- -- --
0000:       00                                            .             
```

#### Opcodes

```
  0: 0x0002 [0x00] END_REQSTACK()
```

### Event 94

#### Metadata

| Field        | Value   |
|--------------|---------|
| Entrypoint   | 0x0003  |
| Data Size    | 1 bytes |
| Instructions | 1       |

```
      00 01 02 03 04 05 06 07  08 09 0A 0B 0C 0D 0E 0F
      -- -- -- -- -- -- -- --  -- -- -- -- -- -- -- --
0000:          00                                          .            
```

#### Opcodes

```
  0: 0x0003 [0x00] END_REQSTACK()
```

### Event 121

#### Metadata

| Field        | Value    |
|--------------|----------|
| Entrypoint   | 0x0004   |
| Data Size    | 10 bytes |
| Instructions | 4        |

```
      00 01 02 03 04 05 06 07  08 09 0A 0B 0C 0D 0E 0F
      -- -- -- -- -- -- -- --  -- -- -- -- -- -- -- --
0000:             2B 21 40 0F  01 00 80 23 21 00            +!@....#!.  
```

#### Opcodes

```
  0: 0x0004 [0x2B] Geebeh (ID: 17776673/0x010F4021) [7484*]:
    → "I'm sure they're gonna bloom big!"
  1: 0x000B [0x23] WAIT_FOR_DIALOG_INTERACTION
  2: 0x000C [0x21] END_EVENT
  3: 0x000D [0x00] END_REQSTACK()
```

### Event 65535.1

#### Metadata

| Field        | Value    |
|--------------|----------|
| Entrypoint   | 0x000E   |
| Data Size    | 81 bytes |
| Instructions | 11       |

```
      00 01 02 03 04 05 06 07  08 09 0A 0B 0C 0D 0E 0F
      -- -- -- -- -- -- -- --  -- -- -- -- -- -- -- --
0000:                                            1C 01                ..
0010: 80 4A 23 40 0F 01 21 40  0F 01 1C 01 80 4A 20 40  .J#@..!@.....J @
0020: 0F 01 21 40 0F 01 1C 01  80 45 02 80 F0 FF FF 7F  ..!@.....E......
0030: F0 FF FF 7F 63 6D 63 32  03 80 55 02 80 F0 FF FF  ....cmc2..U.....
0040: 7F F0 FF FF 7F 63 6D 63  32 4A 22 40 0F 01 21 40  .....cmc2J"@..!@
0050: 0F 01 1C 01 80 4A F0 FF  FF 7F 21 40 0F 01 00     .....J....!@... 
```

#### Opcodes

```
  0: 0x000E [0x1C] WAIT(15* ticks)
  1: 0x0011 [0x4A] Verena (ID: 17776675/0x010F4023) looks at Geebeh (ID: 17776673/0x010F4021)
  2: 0x001A [0x1C] WAIT(15* ticks)
  3: 0x001D [0x4A] Paya-Sabya (ID: 17776672/0x010F4020) looks at Geebeh (ID: 17776673/0x010F4021)
  4: 0x0026 [0x1C] WAIT(15* ticks)
  5: 0x0029 [0x45] LOAD_SCHEDULED_TASK: Load scheduler "cmc2" with entities [LocalPlayer, LocalPlayer], work=[144*, 0*]
  6: 0x003A [0x55] WAIT_LOAD_SCHEDULER: Wait for scheduler "cmc2" with entities [LocalPlayer, LocalPlayer], work=144*
  7: 0x0049 [0x4A] Fickblix (ID: 17776674/0x010F4022) looks at Geebeh (ID: 17776673/0x010F4021)
  8: 0x0052 [0x1C] WAIT(15* ticks)
  9: 0x0055 [0x4A] LocalPlayer looks at Geebeh (ID: 17776673/0x010F4021)
 10: 0x005E [0x00] END_REQSTACK()
```

### Event 65535.2

#### Metadata

| Field        | Value    |
|--------------|----------|
| Entrypoint   | 0x005F   |
| Data Size    | 19 bytes |
| Instructions | 3        |

```
      00 01 02 03 04 05 06 07  08 09 0A 0B 0C 0D 0E 0F
      -- -- -- -- -- -- -- --  -- -- -- -- -- -- -- --
0050:                                               5B                 [
0060: 04 80 F8 FF FF 7F F8 FF  FF 7F 74 6C 62 30 1C 05  ..........tlb0..
0070: 80 00                                             ..              
```

#### Opcodes

```
  0: 0x005F [0x5B] LOAD_EXT_SCHEDULER: Load scheduler "tlb0" with entities [EventEntity, EventEntity], work=90*
  1: 0x006E [0x1C] WAIT(30* ticks)
  2: 0x0071 [0x00] END_REQSTACK()
```

### Event 65535.3

#### Metadata

| Field        | Value    |
|--------------|----------|
| Entrypoint   | 0x0072   |
| Data Size    | 29 bytes |
| Instructions | 3        |

```
      00 01 02 03 04 05 06 07  08 09 0A 0B 0C 0D 0E 0F
      -- -- -- -- -- -- -- --  -- -- -- -- -- -- -- --
0070:       5B 04 80 F8 FF FF  7F F8 FF FF 7F 74 6C 62    [..........tlb
0080: 31 53 F8 FF FF 7F F8 FF  FF 7F 74 6C 62 31 00     1S........tlb1. 
```

#### Opcodes

```
  0: 0x0072 [0x5B] LOAD_EXT_SCHEDULER: Load scheduler "tlb1" with entities [EventEntity, EventEntity], work=90*
  1: 0x0081 [0x53] WAIT_SCHEDULER_TASK: Wait for scheduler "tlb1" with entities [EventEntity, EventEntity]
  2: 0x008E [0x00] END_REQSTACK()
```

### Event 65535.4

#### Metadata

| Field        | Value    |
|--------------|----------|
| Entrypoint   | 0x008F   |
| Data Size    | 19 bytes |
| Instructions | 3        |

```
      00 01 02 03 04 05 06 07  08 09 0A 0B 0C 0D 0E 0F
      -- -- -- -- -- -- -- --  -- -- -- -- -- -- -- --
0080:                                               5B                 [
0090: 04 80 F8 FF FF 7F F8 FF  FF 7F 74 6C 6B 30 1C 05  ..........tlk0..
00A0: 80 00                                             ..              
```

#### Opcodes

```
  0: 0x008F [0x5B] LOAD_EXT_SCHEDULER: Load scheduler "tlk0" with entities [EventEntity, EventEntity], work=90*
  1: 0x009E [0x1C] WAIT(30* ticks)
  2: 0x00A1 [0x00] END_REQSTACK()
```

### Event 65535.5

#### Metadata

| Field        | Value    |
|--------------|----------|
| Entrypoint   | 0x00A2   |
| Data Size    | 19 bytes |
| Instructions | 3        |

```
      00 01 02 03 04 05 06 07  08 09 0A 0B 0C 0D 0E 0F
      -- -- -- -- -- -- -- --  -- -- -- -- -- -- -- --
00A0:       5B 04 80 F8 FF FF  7F F8 FF FF 7F 74 68 6B    [..........thk
00B0: 31 1C 05 80 00                                    1....           
```

#### Opcodes

```
  0: 0x00A2 [0x5B] LOAD_EXT_SCHEDULER: Load scheduler "thk1" with entities [EventEntity, EventEntity], work=90*
  1: 0x00B1 [0x1C] WAIT(30* ticks)
  2: 0x00B4 [0x00] END_REQSTACK()
```

### Event 65535.6

#### Metadata

| Field        | Value    |
|--------------|----------|
| Entrypoint   | 0x00B5   |
| Data Size    | 29 bytes |
| Instructions | 3        |

```
      00 01 02 03 04 05 06 07  08 09 0A 0B 0C 0D 0E 0F
      -- -- -- -- -- -- -- --  -- -- -- -- -- -- -- --
00B0:                5B 04 80  F8 FF FF 7F F8 FF FF 7F       [..........
00C0: 74 68 6B 32 53 F8 FF FF  7F F8 FF FF 7F 74 68 6B  thk2S........thk
00D0: 32 00                                             2.              
```

#### Opcodes

```
  0: 0x00B5 [0x5B] LOAD_EXT_SCHEDULER: Load scheduler "thk2" with entities [EventEntity, EventEntity], work=90*
  1: 0x00C4 [0x53] WAIT_SCHEDULER_TASK: Wait for scheduler "thk2" with entities [EventEntity, EventEntity]
  2: 0x00D1 [0x00] END_REQSTACK()
```

### Event 65535.7

#### Metadata

| Field        | Value   |
|--------------|---------|
| Entrypoint   | 0x00D2  |
| Data Size    | 9 bytes |
| Instructions | 3       |

```
      00 01 02 03 04 05 06 07  08 09 0A 0B 0C 0D 0E 0F
      -- -- -- -- -- -- -- --  -- -- -- -- -- -- -- --
00D0:       5E 69 64 6C 30 1C  06 80 00                   ^idl0....     
```

#### Opcodes

```
  0: 0x00D2 [0x5E] EventEntity goes idle (kills current action) (animation: "idl0")
  1: 0x00D7 [0x1C] WAIT(60* ticks)
  2: 0x00DA [0x00] END_REQSTACK()
```
