# 17776888

## Common Data

| Field            | Value                 |
|------------------|-----------------------|
| Zone             | Upper Jeuno (ID: 244) |
| Block Size       | 38884 bytes           |
| Total Events     | 12                    |
| References Count | 757                   |

## List of Events

| Event ID              | Entrypoint   |   Size |   Instructions |
|-----------------------|--------------|--------|----------------|
| [65535](#event-65535) | 0x0000       |      1 |              1 |
| [10192](#event-10192) | 0x0001       |   1613 |            243 |
| [10198](#event-10198) | 0x064E       |   2582 |            429 |
| [10193](#event-10193) | 0x1064       |   1776 |            263 |
| [10199](#event-10199) | 0x1754       |    877 |            136 |
| [10194](#event-10194) | 0x1AC1       |   1482 |            220 |
| [10200](#event-10200) | 0x208B       |   1612 |            232 |
| [10195](#event-10195) | 0x26D7       |   1773 |            289 |
| [10201](#event-10201) | 0x2DC4       |   1460 |            245 |
| [10196](#event-10196) | 0x3378       |   1850 |            300 |
| [10216](#event-10216) | 0x3AB2       |    248 |             48 |
| [10202](#event-10202) | 0x3BAA       |  20517 |           3462 |

## DAT References (imed_data)

|   Index | Hex Value   |   Dec Value |
|---------|-------------|-------------|
|       0 | 0x0013      |          19 |
|       1 | 0xFFFF2DE7  |  4294913511 |
|       2 | 0xAEDE      |       44766 |
|       3 | 0xFFFFFF39  |  4294967097 |
|       4 | 0x07AA      |        1962 |
|       5 | 0xFFFF3D6C  |  4294917484 |
|       6 | 0xB560      |       46432 |
|       7 | 0x0000      |           0 |
|       8 | 0x07BB      |        1979 |
|       9 | 0x001E      |          30 |
|      10 | 0x0232      |         562 |
|      11 | 0x2F87      |       12167 |
|      12 | 0x005A      |          90 |
|      13 | 0x0034      |          52 |
|      14 | 0x2F88      |       12168 |
|      15 | 0x31E6      |       12774 |
|      16 | 0x000F      |          15 |
|      17 | 0x0020      |          32 |
|      18 | 0x003C      |          60 |
|      19 | 0x0032      |          50 |
|      20 | 0x31E7      |       12775 |
|      21 | 0x0001      |           1 |
|      22 | 0x31E8      |       12776 |
|      23 | 0x0002      |           2 |
|      24 | 0x31E9      |       12777 |
|      25 | 0x0003      |           3 |
|      26 | 0x31EA      |       12778 |
|      27 | 0x0004      |           4 |
|      28 | 0x31EB      |       12779 |
|      29 | 0x0005      |           5 |
|      30 | 0x31EC      |       12780 |
|      31 | 0x0006      |           6 |
|      32 | 0x31ED      |       12781 |
|      33 | 0x0007      |           7 |
|      34 | 0x31EE      |       12782 |
|      35 | 0x31EF      |       12783 |
|      36 | 0x31F0      |       12784 |
|      37 | 0x31F1      |       12785 |
|      38 | 0x31F2      |       12786 |
|      39 | 0x31F3      |       12787 |
|      40 | 0x31F4      |       12788 |
|      41 | 0x31F5      |       12789 |
|      42 | 0x31F6      |       12790 |
|      43 | 0x31F7      |       12791 |
|      44 | 0x31F8      |       12792 |
|      45 | 0x31F9      |       12793 |
|      46 | 0x31FA      |       12794 |
|      47 | 0x31FB      |       12795 |
|      48 | 0x002D      |          45 |
|      49 | 0x31FC      |       12796 |
|      50 | 0x31FD      |       12797 |
|      51 | 0x0044      |          68 |
|      52 | 0x04ED      |        1261 |
|      53 | 0x31FE      |       12798 |
|      54 | 0x31FF      |       12799 |
|      55 | 0x3200      |       12800 |
|      56 | 0x3201      |       12801 |
|      57 | 0x3202      |       12802 |
|      58 | 0x3203      |       12803 |
|      59 | 0x3204      |       12804 |
|      60 | 0x3205      |       12805 |
|      61 | 0x3206      |       12806 |
|      62 | 0x3207      |       12807 |
|      63 | 0x3208      |       12808 |
|      64 | 0x0008      |           8 |
|      65 | 0x3209      |       12809 |
|      66 | 0x00B4      |         180 |
|      67 | 0x006E      |         110 |
|      68 | 0x00C8      |         200 |
|      69 | 0x0A28      |        2600 |
|      70 | 0xFFFF2F14  |  4294913812 |
|      71 | 0xB59B      |       46491 |
|      72 | 0x082C      |        2092 |
|      73 | 0x320A      |       12810 |
|      74 | 0x320B      |       12811 |
|      75 | 0x320C      |       12812 |
|      76 | 0x320D      |       12813 |
|      77 | 0x320E      |       12814 |
|      78 | 0x320F      |       12815 |
|      79 | 0x3210      |       12816 |
|      80 | 0x3211      |       12817 |
|      81 | 0x3212      |       12818 |
|      82 | 0x3213      |       12819 |
|      83 | 0x3214      |       12820 |
|      84 | 0x3215      |       12821 |
|      85 | 0x3218      |       12824 |
|      86 | 0x3219      |       12825 |
|      87 | 0x321A      |       12826 |
|      88 | 0x321B      |       12827 |
|      89 | 0x0009      |           9 |
|      90 | 0x321C      |       12828 |
|      91 | 0x000A      |          10 |
|      92 | 0x3216      |       12822 |
|      93 | 0x000B      |          11 |
|      94 | 0x3217      |       12823 |
|      95 | 0x000C      |          12 |
|      96 | 0x321D      |       12829 |
|      97 | 0x321E      |       12830 |
|      98 | 0x0015      |          21 |
|      99 | 0x321F      |       12831 |
|     100 | 0x3220      |       12832 |
|     101 | 0x3221      |       12833 |
|     102 | 0x3222      |       12834 |
|     103 | 0x3225      |       12837 |
|     104 | 0x3226      |       12838 |
|     105 | 0x3227      |       12839 |
|     106 | 0x3228      |       12840 |
|     107 | 0x3229      |       12841 |
|     108 | 0x3223      |       12835 |
|     109 | 0x3224      |       12836 |
|     110 | 0x322A      |       12842 |
|     111 | 0x322B      |       12843 |
|     112 | 0x0023      |          35 |
|     113 | 0x322C      |       12844 |
|     114 | 0x322D      |       12845 |
|     115 | 0x322E      |       12846 |
|     116 | 0x322F      |       12847 |
|     117 | 0x3232      |       12850 |
|     118 | 0x3233      |       12851 |
|     119 | 0x3234      |       12852 |
|     120 | 0x3235      |       12853 |
|     121 | 0x3236      |       12854 |
|     122 | 0x3230      |       12848 |
|     123 | 0x3231      |       12849 |
|     124 | 0x3237      |       12855 |
|     125 | 0x3238      |       12856 |
|     126 | 0x3239      |       12857 |
|     127 | 0x323A      |       12858 |
|     128 | 0x323B      |       12859 |
|     129 | 0x323C      |       12860 |
|     130 | 0x323D      |       12861 |
|     131 | 0x323E      |       12862 |
|     132 | 0x323F      |       12863 |
|     133 | 0x3242      |       12866 |
|     134 | 0x3243      |       12867 |
|     135 | 0x3244      |       12868 |
|     136 | 0x3245      |       12869 |
|     137 | 0x3246      |       12870 |
|     138 | 0x3240      |       12864 |
|     139 | 0x3241      |       12865 |
|     140 | 0x3247      |       12871 |
|     141 | 0x0030      |          48 |
|     142 | 0x3248      |       12872 |
|     143 | 0x0024      |          36 |
|     144 | 0x3249      |       12873 |
|     145 | 0x324A      |       12874 |
|     146 | 0x324B      |       12875 |
|     147 | 0x324C      |       12876 |
|     148 | 0x324F      |       12879 |
|     149 | 0x3250      |       12880 |
|     150 | 0x3251      |       12881 |
|     151 | 0x3252      |       12882 |
|     152 | 0x3253      |       12883 |
|     153 | 0x324D      |       12877 |
|     154 | 0x324E      |       12878 |
|     155 | 0x3254      |       12884 |
|     156 | 0x0014      |          20 |
|     157 | 0x0064      |         100 |
|     158 | 0x0078      |         120 |
|     159 | 0x3255      |       12885 |
|     160 | 0x3256      |       12886 |
|     161 | 0x3257      |       12887 |
|     162 | 0x3258      |       12888 |
|     163 | 0x3259      |       12889 |
|     164 | 0x325A      |       12890 |
|     165 | 0x325B      |       12891 |
|     166 | 0x325C      |       12892 |
|     167 | 0x325D      |       12893 |
|     168 | 0x325E      |       12894 |
|     169 | 0x00C9      |         201 |
|     170 | 0xFFFF2D35  |  4294913333 |
|     171 | 0xB283      |       45699 |
|     172 | 0xFFFF43E7  |  4294919143 |
|     173 | 0xADCC      |       44492 |
|     174 | 0x3260      |       12896 |
|     175 | 0x3261      |       12897 |
|     176 | 0x3262      |       12898 |
|     177 | 0x3263      |       12899 |
|     178 | 0x3264      |       12900 |
|     179 | 0x3265      |       12901 |
|     180 | 0x3266      |       12902 |
|     181 | 0x3267      |       12903 |
|     182 | 0x3268      |       12904 |
|     183 | 0x3269      |       12905 |
|     184 | 0x326A      |       12906 |
|     185 | 0x326B      |       12907 |
|     186 | 0x326C      |       12908 |
|     187 | 0x326D      |       12909 |
|     188 | 0x326E      |       12910 |
|     189 | 0x326F      |       12911 |
|     190 | 0x3270      |       12912 |
|     191 | 0x3271      |       12913 |
|     192 | 0x3274      |       12916 |
|     193 | 0x3275      |       12917 |
|     194 | 0x3276      |       12918 |
|     195 | 0x3277      |       12919 |
|     196 | 0x3278      |       12920 |
|     197 | 0x3272      |       12914 |
|     198 | 0x3273      |       12915 |
|     199 | 0x3279      |       12921 |
|     200 | 0x03E8      |        1000 |
|     201 | 0x327A      |       12922 |
|     202 | 0x327B      |       12923 |
|     203 | 0x327C      |       12924 |
|     204 | 0x327D      |       12925 |
|     205 | 0x327E      |       12926 |
|     206 | 0x327F      |       12927 |
|     207 | 0x3280      |       12928 |
|     208 | 0x3281      |       12929 |
|     209 | 0x3282      |       12930 |
|     210 | 0x3283      |       12931 |
|     211 | 0x3284      |       12932 |
|     212 | 0x3285      |       12933 |
|     213 | 0x3286      |       12934 |
|     214 | 0x3287      |       12935 |
|     215 | 0x328A      |       12938 |
|     216 | 0x328B      |       12939 |
|     217 | 0x328C      |       12940 |
|     218 | 0x328D      |       12941 |
|     219 | 0x328E      |       12942 |
|     220 | 0x3288      |       12936 |
|     221 | 0x3289      |       12937 |
|     222 | 0x328F      |       12943 |
|     223 | 0x3290      |       12944 |
|     224 | 0x3291      |       12945 |
|     225 | 0x3292      |       12946 |
|     226 | 0x3293      |       12947 |
|     227 | 0x3294      |       12948 |
|     228 | 0x3295      |       12949 |
|     229 | 0x3296      |       12950 |
|     230 | 0x3297      |       12951 |
|     231 | 0x3298      |       12952 |
|     232 | 0x3299      |       12953 |
|     233 | 0x329A      |       12954 |
|     234 | 0x329B      |       12955 |
|     235 | 0x329C      |       12956 |
|     236 | 0x329D      |       12957 |
|     237 | 0x329E      |       12958 |
|     238 | 0x329F      |       12959 |
|     239 | 0x32A0      |       12960 |
|     240 | 0x32A1      |       12961 |
|     241 | 0x32A2      |       12962 |
|     242 | 0x32A3      |       12963 |
|     243 | 0x32A4      |       12964 |
|     244 | 0x32A5      |       12965 |
|     245 | 0xFFFF3027  |  4294914087 |
|     246 | 0xC795      |       51093 |
|     247 | 0x06A7      |        1703 |
|     248 | 0x32A6      |       12966 |
|     249 | 0x32A7      |       12967 |
|     250 | 0x32A8      |       12968 |
|     251 | 0x32A9      |       12969 |
|     252 | 0x32AA      |       12970 |
|     253 | 0x32AC      |       12972 |
|     254 | 0x32AB      |       12971 |
|     255 | 0x32AF      |       12975 |
|     256 | 0x32B0      |       12976 |
|     257 | 0x32B1      |       12977 |
|     258 | 0x32B2      |       12978 |
|     259 | 0x32B3      |       12979 |
|     260 | 0x32AD      |       12973 |
|     261 | 0x32AE      |       12974 |
|     262 | 0x32B4      |       12980 |
|     263 | 0x0992      |        2450 |
|     264 | 0x32B5      |       12981 |
|     265 | 0x32B6      |       12982 |
|     266 | 0x32B7      |       12983 |
|     267 | 0x32B8      |       12984 |
|     268 | 0x32B9      |       12985 |
|     269 | 0x32BA      |       12986 |
|     270 | 0x32BB      |       12987 |
|     271 | 0x32BC      |       12988 |
|     272 | 0x32BD      |       12989 |
|     273 | 0x32BE      |       12990 |
|     274 | 0x32C0      |       12992 |
|     275 | 0x32BF      |       12991 |
|     276 | 0x32C3      |       12995 |
|     277 | 0x32C4      |       12996 |
|     278 | 0x32C5      |       12997 |
|     279 | 0x32C6      |       12998 |
|     280 | 0x32C7      |       12999 |
|     281 | 0x32C1      |       12993 |
|     282 | 0x32C2      |       12994 |
|     283 | 0x32C8      |       13000 |
|     284 | 0x32C9      |       13001 |
|     285 | 0x32CA      |       13002 |
|     286 | 0x32CB      |       13003 |
|     287 | 0x32CC      |       13004 |
|     288 | 0x32CD      |       13005 |
|     289 | 0x32CE      |       13006 |
|     290 | 0x32CF      |       13007 |
|     291 | 0x32D0      |       13008 |
|     292 | 0x32D1      |       13009 |
|     293 | 0x32D2      |       13010 |
|     294 | 0x32D5      |       13013 |
|     295 | 0x32D6      |       13014 |
|     296 | 0x32D7      |       13015 |
|     297 | 0x32D8      |       13016 |
|     298 | 0x32D9      |       13017 |
|     299 | 0x32D3      |       13011 |
|     300 | 0x32D4      |       13012 |
|     301 | 0x32DA      |       13018 |
|     302 | 0x32DB      |       13019 |
|     303 | 0x32DC      |       13020 |
|     304 | 0x32DD      |       13021 |
|     305 | 0x32DE      |       13022 |
|     306 | 0x32DF      |       13023 |
|     307 | 0x32E0      |       13024 |
|     308 | 0x32E3      |       13027 |
|     309 | 0x32E4      |       13028 |
|     310 | 0x32E5      |       13029 |
|     311 | 0x32E6      |       13030 |
|     312 | 0x32E7      |       13031 |
|     313 | 0x32E1      |       13025 |
|     314 | 0x32E2      |       13026 |
|     315 | 0x32E8      |       13032 |
|     316 | 0x32E9      |       13033 |
|     317 | 0x32EA      |       13034 |
|     318 | 0x001A      |          26 |
|     319 | 0x32EB      |       13035 |
|     320 | 0x32EC      |       13036 |
|     321 | 0x32ED      |       13037 |
|     322 | 0x32EE      |       13038 |
|     323 | 0x32F1      |       13041 |
|     324 | 0x32F2      |       13042 |
|     325 | 0x32F3      |       13043 |
|     326 | 0x32F4      |       13044 |
|     327 | 0x32F5      |       13045 |
|     328 | 0x32EF      |       13039 |
|     329 | 0x32F0      |       13040 |
|     330 | 0x32F6      |       13046 |
|     331 | 0x32F7      |       13047 |
|     332 | 0x32F8      |       13048 |
|     333 | 0x0230      |         560 |
|     334 | 0xFFFF3862  |  4294916194 |
|     335 | 0xB214      |       45588 |
|     336 | 0x330E      |       13070 |
|     337 | 0x330F      |       13071 |
|     338 | 0x3310      |       13072 |
|     339 | 0x0080      |         128 |
|     340 | 0x3311      |       13073 |
|     341 | 0x3312      |       13074 |
|     342 | 0x3313      |       13075 |
|     343 | 0x3314      |       13076 |
|     344 | 0x3315      |       13077 |
|     345 | 0x3318      |       13080 |
|     346 | 0x3319      |       13081 |
|     347 | 0x331A      |       13082 |
|     348 | 0x331B      |       13083 |
|     349 | 0x331C      |       13084 |
|     350 | 0x3316      |       13078 |
|     351 | 0x3317      |       13079 |
|     352 | 0x331D      |       13085 |
|     353 | 0x331E      |       13086 |
|     354 | 0x331F      |       13087 |
|     355 | 0x3320      |       13088 |
|     356 | 0x3321      |       13089 |
|     357 | 0x3322      |       13090 |
|     358 | 0x3323      |       13091 |
|     359 | 0x3324      |       13092 |
|     360 | 0x3325      |       13093 |
|     361 | 0x0355      |         853 |
|     362 | 0x3326      |       13094 |
|     363 | 0x3327      |       13095 |
|     364 | 0x3328      |       13096 |
|     365 | 0x3329      |       13097 |
|     366 | 0x332A      |       13098 |
|     367 | 0x332B      |       13099 |
|     368 | 0x332E      |       13102 |
|     369 | 0x332F      |       13103 |
|     370 | 0x3330      |       13104 |
|     371 | 0x3331      |       13105 |
|     372 | 0x3332      |       13106 |
|     373 | 0x332C      |       13100 |
|     374 | 0x332D      |       13101 |
|     375 | 0x3333      |       13107 |
|     376 | 0x3334      |       13108 |
|     377 | 0x3335      |       13109 |
|     378 | 0x3336      |       13110 |
|     379 | 0x3337      |       13111 |
|     380 | 0x3338      |       13112 |
|     381 | 0x3339      |       13113 |
|     382 | 0x333A      |       13114 |
|     383 | 0x333B      |       13115 |
|     384 | 0x333C      |       13116 |
|     385 | 0x333D      |       13117 |
|     386 | 0x3340      |       13120 |
|     387 | 0x3341      |       13121 |
|     388 | 0x3342      |       13122 |
|     389 | 0x3343      |       13123 |
|     390 | 0x3344      |       13124 |
|     391 | 0x333E      |       13118 |
|     392 | 0x333F      |       13119 |
|     393 | 0x3345      |       13125 |
|     394 | 0x3346      |       13126 |
|     395 | 0xFFFF30C3  |  4294914243 |
|     396 | 0xAD34      |       44340 |
|     397 | 0x0893      |        2195 |
|     398 | 0xFFFF2FD2  |  4294914002 |
|     399 | 0xB3C7      |       46023 |
|     400 | 0x06DA      |        1754 |
|     401 | 0x3347      |       13127 |
|     402 | 0x3348      |       13128 |
|     403 | 0x3349      |       13129 |
|     404 | 0x334A      |       13130 |
|     405 | 0x334B      |       13131 |
|     406 | 0x334E      |       13134 |
|     407 | 0x334F      |       13135 |
|     408 | 0x3350      |       13136 |
|     409 | 0x3351      |       13137 |
|     410 | 0x3352      |       13138 |
|     411 | 0x334C      |       13132 |
|     412 | 0x334D      |       13133 |
|     413 | 0x3353      |       13139 |
|     414 | 0x3354      |       13140 |
|     415 | 0x3355      |       13141 |
|     416 | 0x3356      |       13142 |
|     417 | 0x3357      |       13143 |
|     418 | 0x3358      |       13144 |
|     419 | 0x3359      |       13145 |
|     420 | 0x335C      |       13148 |
|     421 | 0x335D      |       13149 |
|     422 | 0x335E      |       13150 |
|     423 | 0x335F      |       13151 |
|     424 | 0x3360      |       13152 |
|     425 | 0x335A      |       13146 |
|     426 | 0x335B      |       13147 |
|     427 | 0x3361      |       13153 |
|     428 | 0x3362      |       13154 |
|     429 | 0x3363      |       13155 |
|     430 | 0x3364      |       13156 |
|     431 | 0x3365      |       13157 |
|     432 | 0x3366      |       13158 |
|     433 | 0x3367      |       13159 |
|     434 | 0x336A      |       13162 |
|     435 | 0x336B      |       13163 |
|     436 | 0x336C      |       13164 |
|     437 | 0x336D      |       13165 |
|     438 | 0x336E      |       13166 |
|     439 | 0x3368      |       13160 |
|     440 | 0x3369      |       13161 |
|     441 | 0x336F      |       13167 |
|     442 | 0x3370      |       13168 |
|     443 | 0x3371      |       13169 |
|     444 | 0x3372      |       13170 |
|     445 | 0x3373      |       13171 |
|     446 | 0xFFFF3D21  |  4294917409 |
|     447 | 0xA54E      |       42318 |
|     448 | 0x022B      |         555 |
|     449 | 0x3374      |       13172 |
|     450 | 0x3375      |       13173 |
|     451 | 0x3376      |       13174 |
|     452 | 0x3377      |       13175 |
|     453 | 0x3378      |       13176 |
|     454 | 0x3379      |       13177 |
|     455 | 0x337A      |       13178 |
|     456 | 0x337B      |       13179 |
|     457 | 0x337C      |       13180 |
|     458 | 0x337D      |       13181 |
|     459 | 0x337E      |       13182 |
|     460 | 0x337F      |       13183 |
|     461 | 0x3380      |       13184 |
|     462 | 0x3381      |       13185 |
|     463 | 0x3382      |       13186 |
|     464 | 0x3385      |       13189 |
|     465 | 0x3386      |       13190 |
|     466 | 0x3387      |       13191 |
|     467 | 0x3388      |       13192 |
|     468 | 0x3389      |       13193 |
|     469 | 0x3383      |       13187 |
|     470 | 0x3384      |       13188 |
|     471 | 0x338A      |       13194 |
|     472 | 0x338B      |       13195 |
|     473 | 0x0B8B      |        2955 |
|     474 | 0x338C      |       13196 |
|     475 | 0x338D      |       13197 |
|     476 | 0x338E      |       13198 |
|     477 | 0x338F      |       13199 |
|     478 | 0x3390      |       13200 |
|     479 | 0x3391      |       13201 |
|     480 | 0x3394      |       13204 |
|     481 | 0x3395      |       13205 |
|     482 | 0x3396      |       13206 |
|     483 | 0x3397      |       13207 |
|     484 | 0x3398      |       13208 |
|     485 | 0x3392      |       13202 |
|     486 | 0x3393      |       13203 |
|     487 | 0x3399      |       13209 |
|     488 | 0x339A      |       13210 |
|     489 | 0x339B      |       13211 |
|     490 | 0x339C      |       13212 |
|     491 | 0x339D      |       13213 |
|     492 | 0x339E      |       13214 |
|     493 | 0x339F      |       13215 |
|     494 | 0x33A0      |       13216 |
|     495 | 0x33A1      |       13217 |
|     496 | 0x33A2      |       13218 |
|     497 | 0x33A3      |       13219 |
|     498 | 0xFFFF307B  |  4294914171 |
|     499 | 0xAC55      |       44117 |
|     500 | 0x33A4      |       13220 |
|     501 | 0x33A5      |       13221 |
|     502 | 0x33A6      |       13222 |
|     503 | 0x33A7      |       13223 |
|     504 | 0x33A8      |       13224 |
|     505 | 0x33AB      |       13227 |
|     506 | 0x33AC      |       13228 |
|     507 | 0x33AD      |       13229 |
|     508 | 0x33AE      |       13230 |
|     509 | 0x33AF      |       13231 |
|     510 | 0x33A9      |       13225 |
|     511 | 0x33AA      |       13226 |
|     512 | 0x33B0      |       13232 |
|     513 | 0x33B1      |       13233 |
|     514 | 0x33B2      |       13234 |
|     515 | 0x33B3      |       13235 |
|     516 | 0x33B4      |       13236 |
|     517 | 0x33B5      |       13237 |
|     518 | 0x33B8      |       13240 |
|     519 | 0x33B9      |       13241 |
|     520 | 0x33BA      |       13242 |
|     521 | 0x33BB      |       13243 |
|     522 | 0x33BC      |       13244 |
|     523 | 0x33B6      |       13238 |
|     524 | 0x33B7      |       13239 |
|     525 | 0x33BD      |       13245 |
|     526 | 0x33BE      |       13246 |
|     527 | 0x33BF      |       13247 |
|     528 | 0x33C0      |       13248 |
|     529 | 0x33C1      |       13249 |
|     530 | 0x33C2      |       13250 |
|     531 | 0x33C3      |       13251 |
|     532 | 0x33C4      |       13252 |
|     533 | 0x33C5      |       13253 |
|     534 | 0x33C6      |       13254 |
|     535 | 0x33C7      |       13255 |
|     536 | 0x00D7      |         215 |
|     537 | 0x005F      |          95 |
|     538 | 0x0069      |         105 |
|     539 | 0x0052      |          82 |
|     540 | 0x0057      |          87 |
|     541 | 0x005C      |          92 |
|     542 | 0x0059      |          89 |
|     543 | 0x005D      |          93 |
|     544 | 0x0061      |          97 |
|     545 | 0x0060      |          96 |
|     546 | 0x000D      |          13 |
|     547 | 0x0012      |          18 |
|     548 | 0x0017      |          23 |
|     549 | 0x000E      |          14 |
|     550 | 0x0018      |          24 |
|     551 | 0x001F      |          31 |
|     552 | 0x001B      |          27 |
|     553 | 0x0010      |          16 |
|     554 | 0x018D      |         397 |
|     555 | 0x0175      |         373 |
|     556 | 0x0170      |         368 |
|     557 | 0x0171      |         369 |
|     558 | 0x014C      |         332 |
|     559 | 0x01C1      |         449 |
|     560 | 0x027C      |         636 |
|     561 | 0x027B      |         635 |
|     562 | 0x027D      |         637 |
|     563 | 0x02D3      |         723 |
|     564 | 0x0321      |         801 |
|     565 | 0x0326      |         806 |
|     566 | 0x01E1      |         481 |
|     567 | 0x0343      |         835 |
|     568 | 0x0386      |         902 |
|     569 | 0x0388      |         904 |
|     570 | 0x0361      |         865 |
|     571 | 0x0387      |         903 |
|     572 | 0x038A      |         906 |
|     573 | 0x003F      |          63 |
|     574 | 0x0282      |         642 |
|     575 | 0x0283      |         643 |
|     576 | 0x0288      |         648 |
|     577 | 0x0289      |         649 |
|     578 | 0x028A      |         650 |
|     579 | 0x028B      |         651 |
|     580 | 0x029E      |         670 |
|     581 | 0x0019      |          25 |
|     582 | 0x00C6      |         198 |
|     583 | 0x00B5      |         181 |
|     584 | 0x008C      |         140 |
|     585 | 0x008E      |         142 |
|     586 | 0x007A      |         122 |
|     587 | 0x014B      |         331 |
|     588 | 0x0148      |         328 |
|     589 | 0x0166      |         358 |
|     590 | 0x017A      |         378 |
|     591 | 0x0182      |         386 |
|     592 | 0x0183      |         387 |
|     593 | 0x0192      |         402 |
|     594 | 0x01DF      |         479 |
|     595 | 0x01E9      |         489 |
|     596 | 0x001C      |          28 |
|     597 | 0x00E6      |         230 |
|     598 | 0x00EB      |         235 |
|     599 | 0x00F5      |         245 |
|     600 | 0x007E      |         126 |
|     601 | 0x007F      |         127 |
|     602 | 0x00F3      |         243 |
|     603 | 0x00F4      |         244 |
|     604 | 0x00E0      |         224 |
|     605 | 0x00E9      |         233 |
|     606 | 0x009E      |         158 |
|     607 | 0x009D      |         157 |
|     608 | 0x00E2      |         226 |
|     609 | 0x00E1      |         225 |
|     610 | 0x014F      |         335 |
|     611 | 0x014E      |         334 |
|     612 | 0x0167      |         359 |
|     613 | 0x00E5      |         229 |
|     614 | 0x0169      |         361 |
|     615 | 0x016A      |         362 |
|     616 | 0x0168      |         360 |
|     617 | 0x0133      |         307 |
|     618 | 0x0174      |         372 |
|     619 | 0x018C      |         396 |
|     620 | 0x0194      |         404 |
|     621 | 0x0195      |         405 |
|     622 | 0x0178      |         376 |
|     623 | 0x0240      |         576 |
|     624 | 0x0197      |         407 |
|     625 | 0x0198      |         408 |
|     626 | 0x01A3      |         419 |
|     627 | 0x019E      |         414 |
|     628 | 0x0246      |         582 |
|     629 | 0x0247      |         583 |
|     630 | 0x0248      |         584 |
|     631 | 0x024B      |         587 |
|     632 | 0x024A      |         586 |
|     633 | 0x0011      |          17 |
|     634 | 0x024F      |         591 |
|     635 | 0x01C3      |         451 |
|     636 | 0x01C4      |         452 |
|     637 | 0x01EF      |         495 |
|     638 | 0x01F0      |         496 |
|     639 | 0x0095      |         149 |
|     640 | 0x001D      |          29 |
|     641 | 0x0073      |         115 |
|     642 | 0x005E      |          94 |
|     643 | 0x0072      |         114 |
|     644 | 0x0031      |          49 |
|     645 | 0x006C      |         108 |
|     646 | 0x003A      |          58 |
|     647 | 0x0096      |         150 |
|     648 | 0x0016      |          22 |
|     649 | 0x0035      |          53 |
|     650 | 0x0085      |         133 |
|     651 | 0x0081      |         129 |
|     652 | 0x0033      |          51 |
|     653 | 0x0082      |         130 |
|     654 | 0x0039      |          57 |
|     655 | 0x0038      |          56 |
|     656 | 0x0036      |          54 |
|     657 | 0x0083      |         131 |
|     658 | 0x00A2      |         162 |
|     659 | 0x0022      |          34 |
|     660 | 0x0021      |          33 |
|     661 | 0x0065      |         101 |
|     662 | 0x0086      |         134 |
|     663 | 0x0062      |          98 |
|     664 | 0x008D      |         141 |
|     665 | 0x0037      |          55 |
|     666 | 0x008A      |         138 |
|     667 | 0x008B      |         139 |
|     668 | 0x002B      |          43 |
|     669 | 0x0067      |         103 |
|     670 | 0x00A1      |         161 |
|     671 | 0x0066      |         102 |
|     672 | 0x0075      |         117 |
|     673 | 0x0068      |         104 |
|     674 | 0x007B      |         123 |
|     675 | 0x0077      |         119 |
|     676 | 0x01FE      |         510 |
|     677 | 0x009F      |         159 |
|     678 | 0x00A4      |         164 |
|     679 | 0x00A9      |         169 |
|     680 | 0x00AC      |         172 |
|     681 | 0x00B2      |         178 |
|     682 | 0x00B0      |         176 |
|     683 | 0x013D      |         317 |
|     684 | 0x0108      |         264 |
|     685 | 0x010C      |         268 |
|     686 | 0x0100      |         256 |
|     687 | 0x00FB      |         251 |
|     688 | 0x00B8      |         184 |
|     689 | 0x011C      |         284 |
|     690 | 0x0041      |          65 |
|     691 | 0x0042      |          66 |
|     692 | 0x0047      |          71 |
|     693 | 0x0160      |         352 |
|     694 | 0x0043      |          67 |
|     695 | 0x0048      |          72 |
|     696 | 0x004B      |          75 |
|     697 | 0x004C      |          76 |
|     698 | 0x004D      |          77 |
|     699 | 0x005B      |          91 |
|     700 | 0x0058      |          88 |
|     701 | 0x0053      |          83 |
|     702 | 0x0054      |          84 |
|     703 | 0x0161      |         353 |
|     704 | 0x015C      |         348 |
|     705 | 0x016D      |         365 |
|     706 | 0x00C5      |         197 |
|     707 | 0x00C3      |         195 |
|     708 | 0x00C7      |         199 |
|     709 | 0x015E      |         350 |
|     710 | 0x00C4      |         196 |
|     711 | 0x016E      |         366 |
|     712 | 0x00D0      |         208 |
|     713 | 0x00CD      |         205 |
|     714 | 0x00CA      |         202 |
|     715 | 0x00D2      |         210 |
|     716 | 0x00D8      |         216 |
|     717 | 0x00D5      |         213 |
|     718 | 0x00D6      |         214 |
|     719 | 0x013B      |         315 |
|     720 | 0x0136      |         310 |
|     721 | 0x013A      |         314 |
|     722 | 0x0137      |         311 |
|     723 | 0x016F      |         367 |
|     724 | 0x0138      |         312 |
|     725 | 0x0139      |         313 |
|     726 | 0x009A      |         154 |
|     727 | 0x0091      |         145 |
|     728 | 0x009B      |         155 |
|     729 | 0x0099      |         153 |
|     730 | 0x0093      |         147 |
|     731 | 0x0092      |         146 |
|     732 | 0x0098      |         152 |
|     733 | 0x0071      |         113 |
|     734 | 0x00E8      |         232 |
|     735 | 0x00DD      |         221 |
|     736 | 0x00F8      |         248 |
|     737 | 0x00F1      |         241 |
|     738 | 0x0124      |         292 |
|     739 | 0x012E      |         302 |
|     740 | 0x0129      |         297 |
|     741 | 0x0122      |         290 |
|     742 | 0x0132      |         306 |
|     743 | 0x0126      |         294 |
|     744 | 0x0155      |         341 |
|     745 | 0x0025      |          37 |
|     746 | 0x0029      |          41 |
|     747 | 0x0028      |          40 |
|     748 | 0x007D      |         125 |
|     749 | 0x0079      |         121 |
|     750 | 0x007C      |         124 |
|     751 | 0x0074      |         116 |
|     752 | 0x00EC      |         236 |
|     753 | 0x019C      |         412 |
|     754 | 0x0193      |         403 |
|     755 | 0x01C6      |         454 |
|     756 | 0x01C7      |         455 |

## Events

### Event 65535

#### Metadata

| Field        | Value   |
|--------------|---------|
| Entrypoint   | 0x0000  |
| Data Size    | 1 bytes |
| Instructions | 1       |

```
      00 01 02 03 04 05 06 07  08 09 0A 0B 0C 0D 0E 0F
      -- -- -- -- -- -- -- --  -- -- -- -- -- -- -- --
0000: 00                                                .               
```

#### Opcodes

```
  0: 0x0000 [0x00] END_REQSTACK()
```

### Event 10192

#### Metadata

| Field        | Value      |
|--------------|------------|
| Entrypoint   | 0x0001     |
| Data Size    | 1613 bytes |
| Instructions | 243        |

```
      00 01 02 03 04 05 06 07  08 09 0A 0B 0C 0D 0E 0F
      -- -- -- -- -- -- -- --  -- -- -- -- -- -- -- --
0000:    42 1A 46 41 46 01 38  00 80 92 01 8C 40 0F 01   B.FAF.8.....@..
0010: 94 01 F0 FF FF 7F 94 01  8C 40 0F 01 BA F0 FF FF  .........@......
0020: 7F 01 80 02 80 03 80 04  80 BA 8F 40 0F 01 05 80  ...........@....
0030: 06 80 07 80 08 80 4A 8C  40 0F 01 F0 FF FF 7F 4A  ......J.@......J
0040: F0 FF FF 7F 8C 40 0F 01  29 0A 8F 40 0F 01 11 80  .....@..)..@....
0050: 8F 40 0F 01 80 F0 FF FF  7F 80 8C 40 0F 01 1C 09  .@.........@....
0060: 80 45 0A 80 F0 FF FF 7F  F0 FF FF 7F 37 35 30 30  .E..........7500
0070: 07 80 1A 25 41 2B 8C 40  0F 01 0B 80 23 29 10 F0  ...%A+.@....#)..
0080: FF FF 7F 8A 1C 0C 80 52  0A 80 F0 FF FF 7F F0 FF  .......R........
0090: FF 7F 37 35 30 30 45 0A  80 F0 FF FF 7F F0 FF FF  ..7500E.........
00A0: 7F 37 35 30 31 07 80 66  0D 80 8C 40 0F 01 8C 40  .7501..f...@...@
00B0: 0F 01 64 69 73 30 1C 09  80 2B 8C 40 0F 01 0E 80  ..dis0...+.@....
00C0: 23 53 8C 40 0F 01 8C 40  0F 01 64 69 73 30 52 0A  #S.@...@..dis0R.
00D0: 80 F0 FF FF 7F F0 FF FF  7F 37 35 30 31 45 0A 80  .........7501E..
00E0: F0 FF FF 7F F0 FF FF 7F  37 35 30 32 07 80 27 10  ........7502..'.
00F0: F0 FF FF 7F 8C 1C 0C 80  4A 8C 40 0F 01 F0 FF FF  ........J.@.....
0100: 7F 2B 8C 40 0F 01 0F 80  1C 10 80 7A 00 F0 FF FF  .+.@.......z....
0110: 7F 4A F0 FF FF 7F 8C 40  0F 01 6F 76 F0 FF FF 7F  .J.....@..ov....
0120: 1C 09 80 23 6E F0 FF FF  7F 11 80 99 F0 FF FF 7F  ...#n...........
0130: 1C 09 80 4A 8C 40 0F 01  F0 FF FF 7F 1C 12 80 52  ...J.@.........R
0140: 0A 80 F0 FF FF 7F F0 FF  FF 7F 37 35 30 32 45 0A  ..........7502E.
0150: 80 F0 FF FF 7F F0 FF FF  7F 37 35 30 33 07 80 66  .........7503..f
0160: 13 80 8C 40 0F 01 8C 40  0F 01 74 6C 6B 30 1A BF  ...@...@..tlk0..
0170: 57 1A C9 57 03 02 10 01  00 02 0B 00 07 80 80 8C  W..W............
0180: 01 2B 8C 40 0F 01 14 80  23 01 11 02 02 0B 00 15  .+.@....#.......
0190: 80 80 9F 01 2B 8C 40 0F  01 16 80 23 01 11 02 02  ....+.@....#....
01A0: 0B 00 17 80 80 B2 01 2B  8C 40 0F 01 18 80 23 01  .......+.@....#.
01B0: 11 02 02 0B 00 19 80 80  C5 01 2B 8C 40 0F 01 1A  ..........+.@...
01C0: 80 23 01 11 02 02 0B 00  1B 80 80 D8 01 2B 8C 40  .#...........+.@
01D0: 0F 01 1C 80 23 01 11 02  02 0B 00 1D 80 80 EB 01  ....#...........
01E0: 2B 8C 40 0F 01 1E 80 23  01 11 02 02 0B 00 1F 80  +.@....#........
01F0: 80 FE 01 2B 8C 40 0F 01  20 80 23 01 11 02 02 0B  ...+.@.. .#.....
0200: 00 21 80 80 11 02 2B 8C  40 0F 01 22 80 23 01 11  .!....+.@..".#..
0210: 02 2B 8C 40 0F 01 23 80  23 52 0A 80 F0 FF FF 7F  .+.@..#.#R......
0220: F0 FF FF 7F 37 35 30 33  45 0A 80 F0 FF FF 7F F0  ....7503E.......
0230: FF FF 7F 37 35 30 34 07  80 66 13 80 8C 40 0F 01  ...7504..f...@..
0240: 8C 40 0F 01 74 6C 6B 32  1C 09 80 2B 8C 40 0F 01  .@..tlk2...+.@..
0250: 24 80 23 53 8C 40 0F 01  8C 40 0F 01 74 6C 6B 32  $.#S.@...@..tlk2
0260: 66 0D 80 8C 40 0F 01 8C  40 0F 01 64 69 73 30 1C  f...@...@..dis0.
0270: 09 80 2B 8C 40 0F 01 25  80 23 53 8C 40 0F 01 8C  ..+.@..%.#S.@...
0280: 40 0F 01 64 69 73 30 7B  8C 40 0F 01 66 0D 80 8C  @..dis0{.@..f...
0290: 40 0F 01 8C 40 0F 01 70  6F 69 31 1C 09 80 2B 8C  @...@..poi1...+.
02A0: 40 0F 01 26 80 23 52 0A  80 F0 FF FF 7F F0 FF FF  @..&.#R.........
02B0: 7F 37 35 30 34 45 0A 80  F0 FF FF 7F F0 FF FF 7F  .7504E..........
02C0: 37 35 30 35 07 80 2B 8C  40 0F 01 27 80 23 66 0D  7505..+.@..'.#f.
02D0: 80 8C 40 0F 01 8C 40 0F  01 70 6F 69 32 1C 09 80  ..@...@..poi2...
02E0: 1A BF 57 1A C9 57 03 02  10 01 00 02 0B 00 07 80  ..W..W..........
02F0: 80 FE 02 2B 8C 40 0F 01  28 80 23 01 83 03 02 0B  ...+.@..(.#.....
0300: 00 15 80 80 11 03 2B 8C  40 0F 01 29 80 23 01 83  ......+.@..).#..
0310: 03 02 0B 00 17 80 80 24  03 2B 8C 40 0F 01 2A 80  .......$.+.@..*.
0320: 23 01 83 03 02 0B 00 19  80 80 37 03 2B 8C 40 0F  #.........7.+.@.
0330: 01 2B 80 23 01 83 03 02  0B 00 1B 80 80 4A 03 2B  .+.#.........J.+
0340: 8C 40 0F 01 2C 80 23 01  83 03 02 0B 00 1D 80 80  .@..,.#.........
0350: 5D 03 2B 8C 40 0F 01 2D  80 23 01 83 03 02 0B 00  ].+.@..-.#......
0360: 1F 80 80 70 03 2B 8C 40  0F 01 2E 80 23 01 83 03  ...p.+.@....#...
0370: 02 0B 00 21 80 80 83 03  2B 8C 40 0F 01 2F 80 23  ...!....+.@../.#
0380: 01 83 03 52 0A 80 F0 FF  FF 7F F0 FF FF 7F 37 35  ...R..........75
0390: 30 35 45 0A 80 F0 FF FF  7F F0 FF FF 7F 37 35 30  05E..........750
03A0: 36 07 80 81 00 8C 40 0F  01 66 13 80 8C 40 0F 01  6.....@..f...@..
03B0: 8C 40 0F 01 74 68 6B 31  1C 30 80 2B 8C 40 0F 01  .@..thk1.0.+.@..
03C0: 31 80 23 53 8C 40 0F 01  8C 40 0F 01 74 68 6B 31  1.#S.@...@..thk1
03D0: 81 01 8C 40 0F 01 66 13  80 8C 40 0F 01 8C 40 0F  ...@..f...@...@.
03E0: 01 74 68 6B 32 79 00 8C  40 0F 01 F0 FF FF 7F 1C  .thk2y..@.......
03F0: 09 80 2B 8C 40 0F 01 32  80 23 52 0A 80 F0 FF FF  ..+.@..2.#R.....
0400: 7F F0 FF FF 7F 37 35 30  36 45 0A 80 F0 FF FF 7F  .....7506E......
0410: F0 FF FF 7F 37 35 30 37  07 80 66 33 80 8C 40 0F  ....7507..f3..@.
0420: 01 8C 40 0F 01 74 6C 62  30 03 02 10 34 80 2B 8C  ..@..tlb0...4.+.
0430: 40 0F 01 35 80 23 29 10  F0 FF FF 7F 90 52 0A 80  @..5.#)......R..
0440: F0 FF FF 7F F0 FF FF 7F  37 35 30 37 02 02 10 1D  ........7507....
0450: 80 80 68 04 45 0A 80 F0  FF FF 7F F0 FF FF 7F 37  ..h.E..........7
0460: 35 30 39 07 80 01 95 04  02 02 10 1F 80 80 84 04  509.............
0470: 45 0A 80 F0 FF FF 7F F0  FF FF 7F 37 35 30 39 07  E..........7509.
0480: 80 01 95 04 45 0A 80 F0  FF FF 7F F0 FF FF 7F 37  ....E..........7
0490: 35 30 38 07 80 2B 8C 40  0F 01 36 80 23 66 33 80  508..+.@..6.#f3.
04A0: 8C 40 0F 01 8C 40 0F 01  74 6C 62 31 2B 8C 40 0F  .@...@..tlb1+.@.
04B0: 01 37 80 23 53 8C 40 0F  01 8C 40 0F 01 74 6C 62  .7.#S.@...@..tlb
04C0: 31 52 0A 80 F0 FF FF 7F  F0 FF FF 7F 37 35 30 39  1R..........7509
04D0: 52 0A 80 F0 FF FF 7F F0  FF FF 7F 37 35 30 38 45  R..........7508E
04E0: 0A 80 F0 FF FF 7F F0 FF  FF 7F 37 35 31 30 07 80  ..........7510..
04F0: 7B 8C 40 0F 01 66 13 80  8C 40 0F 01 8C 40 0F 01  {.@..f...@...@..
0500: 70 61 73 30 1C 12 80 1A  BF 57 1A C9 57 03 02 10  pas0.....W..W...
0510: 01 00 02 0B 00 07 80 80  25 05 2B 8C 40 0F 01 38  ........%.+.@..8
0520: 80 23 01 AA 05 02 0B 00  15 80 80 38 05 2B 8C 40  .#.........8.+.@
0530: 0F 01 39 80 23 01 AA 05  02 0B 00 17 80 80 4B 05  ..9.#.........K.
0540: 2B 8C 40 0F 01 3A 80 23  01 AA 05 02 0B 00 19 80  +.@..:.#........
0550: 80 5E 05 2B 8C 40 0F 01  3B 80 23 01 AA 05 02 0B  .^.+.@..;.#.....
0560: 00 1B 80 80 71 05 2B 8C  40 0F 01 3C 80 23 01 AA  ....q.+.@..<.#..
0570: 05 02 0B 00 1D 80 80 84  05 2B 8C 40 0F 01 3D 80  .........+.@..=.
0580: 23 01 AA 05 02 0B 00 1F  80 80 97 05 2B 8C 40 0F  #...........+.@.
0590: 01 3E 80 23 01 AA 05 02  0B 00 21 80 80 AA 05 2B  .>.#......!....+
05A0: 8C 40 0F 01 3F 80 23 01  AA 05 53 8C 40 0F 01 8C  .@..?.#...S.@...
05B0: 40 0F 01 70 61 73 30 66  40 80 8C 40 0F 01 8C 40  @..pas0f@..@...@
05C0: 0F 01 75 72 65 30 2B 8C  40 0F 01 41 80 23 52 0A  ..ure0+.@..A.#R.
05D0: 80 F0 FF FF 7F F0 FF FF  7F 37 35 31 30 45 0A 80  .........7510E..
05E0: F0 FF FF 7F F0 FF FF 7F  37 35 31 31 07 80 27 10  ........7511..'.
05F0: F0 FF FF 7F 8D 1C 12 80  4A 8C 40 0F 01 F0 FF FF  ........J.@.....
0600: 7F 1C 42 80 1A 46 41 1C  09 80 7A 00 F0 FF FF 7F  ..B..FA...z.....
0610: 52 0A 80 F0 FF FF 7F F0  FF FF 7F 37 35 31 31 45  R..........7511E
0620: 0A 80 F0 FF FF 7F F0 FF  FF 7F 30 62 6C 66 07 80  ..........0blf..
0630: 5C 00 43 80 5C 01 43 80  9A 46 00 45 44 80 F0 FF  \.C.\.C..F.ED...
0640: FF 7F F0 FF FF 7F 66 64  69 32 07 80 21 00        ......fdi2..!.  
```

#### Opcodes

```
  0: 0x0001 [0x42] SET_CLI_EVENT_CANCEL_DATA()
  1: 0x0002 [0x1A] CALL_SUBROUTINE(address=0x4146)
  2: 0x0005 [0x46] CAMERA_CONTROL: Disable user control
  3: 0x0007 [0x38] SET_CLIENT_EVENT_MODE(mode=19*)
  4: 0x000A [0x92] Luto Mewrilah (ID: 17776780/0x010F408C)->Render.Flags3 ^= 0x01
  5: 0x0010 [0x94] LocalPlayer->Render.Flags3 ^= 0x01
  6: 0x0016 [0x94] Luto Mewrilah (ID: 17776780/0x010F408C)->Render.Flags3 ^= 0x01
  7: 0x001C [0xBA] SET_ENTITY_POSITION(entity_id=LocalPlayer, pos_x=-53.785*, pos_z=44.766*, pos_y=-0.199*, direction=172.4°*)
  8: 0x0029 [0xBA] SET_ENTITY_POSITION(entity_id=Unnamed NPC (ID: 17776783/0x010F408F), pos_x=-49.812*, pos_z=46.432*, pos_y=0.000*, direction=173.9°*)
  9: 0x0036 [0x4A] Luto Mewrilah (ID: 17776780/0x010F408C) looks at LocalPlayer
 10: 0x003F [0x4A] LocalPlayer looks at Luto Mewrilah (ID: 17776780/0x010F408C)
 11: 0x0048 [0x29] REQ_SET_WAIT(priority=0x0A, entity_id=Unnamed NPC (ID: 17776783/0x010F408F), tag_num=0x11)
 12: 0x004F [0x80] LOAD_WAIT(entity=Unnamed NPC (ID: 17776783/0x010F408F))
 13: 0x0054 [0x80] LOAD_WAIT(entity=LocalPlayer)
 14: 0x0059 [0x80] LOAD_WAIT(entity=Luto Mewrilah (ID: 17776780/0x010F408C))
 15: 0x005E [0x1C] WAIT(30* ticks)
 16: 0x0061 [0x45] LOAD_SCHEDULED_TASK: Load scheduler "7500" with entities [LocalPlayer, LocalPlayer], work=[562*, 0*]
 17: 0x0072 [0x1A] CALL_SUBROUTINE(address=0x4125)
 18: 0x0075 [0x2B] Luto Mewrilah (ID: 17776780/0x010F408C) [12167*]:
    → "What's up, <Player>?"
 19: 0x007C [0x23] WAIT_FOR_DIALOG_INTERACTION
 20: 0x007D [0x29] REQ_SET_WAIT(priority=0x10, entity_id=LocalPlayer, tag_num=0x8A)
 21: 0x0084 [0x1C] WAIT(90* ticks)
 22: 0x0087 [0x52] END_LOAD_SCHEDULER: End scheduler "7500" with entities [LocalPlayer, LocalPlayer], work=562*
 23: 0x0096 [0x45] LOAD_SCHEDULED_TASK: Load scheduler "7501" with entities [LocalPlayer, LocalPlayer], work=[562*, 0*]
 24: 0x00A7 [0x66] LOAD_EXT_SCHEDULER_MAIN: Load scheduler "dis0" with entities [Luto Mewrilah (ID: 17776780/0x010F408C), Luto Mewrilah (ID: 17776780/0x010F408C)], work=52*
 25: 0x00B6 [0x1C] WAIT(30* ticks)
 26: 0x00B9 [0x2B] Luto Mewrilah (ID: 17776780/0x010F408C) [12168*]:
    → "I'm afrrraid I don't have any new assignments for you right now."
 27: 0x00C0 [0x23] WAIT_FOR_DIALOG_INTERACTION
 28: 0x00C1 [0x53] WAIT_SCHEDULER_TASK: Wait for scheduler "dis0" with entities [Luto Mewrilah (ID: 17776780/0x010F408C), Luto Mewrilah (ID: 17776780/0x010F408C)]
 29: 0x00CE [0x52] END_LOAD_SCHEDULER: End scheduler "7501" with entities [LocalPlayer, LocalPlayer], work=562*
 30: 0x00DD [0x45] LOAD_SCHEDULED_TASK: Load scheduler "7502" with entities [LocalPlayer, LocalPlayer], work=[562*, 0*]
 31: 0x00EE [0x27] REQ_SET(priority=0x10, entity_id=LocalPlayer, tag_num=0x8C)
 32: 0x00F5 [0x1C] WAIT(90* ticks)
 33: 0x00F8 [0x4A] Luto Mewrilah (ID: 17776780/0x010F408C) looks at LocalPlayer
 34: 0x0101 [0x2B] Luto Mewrilah (ID: 17776780/0x010F408C) [12774*]:
    → "...Wait. There was just one thing. Do you rrrecall your showdown at the Qu'Bia Arena?"
 35: 0x0108 [0x1C] WAIT(15* ticks)
 36: 0x010B [0x7A] VM_CONTROL: Reset VM for LocalPlayer
 37: 0x0111 [0x4A] LocalPlayer looks at Luto Mewrilah (ID: 17776780/0x010F408C)
 38: 0x011A [0x6F] WAIT_FRAME_DELAY: Yield until WaitTime reaches zero
 39: 0x011B [0x76] CHECK_ENTITY_RENDER_FLAGS: Wait until LocalPlayer Render.Flags0 and Render.Flags3 conditions are met
 40: 0x0120 [0x1C] WAIT(30* ticks)
 41: 0x0123 [0x23] WAIT_FOR_DIALOG_INTERACTION
 42: 0x0124 [0x6E] LocalPlayer uses emote 32*
 43: 0x012B [0x99] Wait for LocalPlayer animation to complete
 44: 0x0130 [0x1C] WAIT(30* ticks)
 45: 0x0133 [0x4A] Luto Mewrilah (ID: 17776780/0x010F408C) looks at LocalPlayer
 46: 0x013C [0x1C] WAIT(60* ticks)
 47: 0x013F [0x52] END_LOAD_SCHEDULER: End scheduler "7502" with entities [LocalPlayer, LocalPlayer], work=562*
 48: 0x014E [0x45] LOAD_SCHEDULED_TASK: Load scheduler "7503" with entities [LocalPlayer, LocalPlayer], work=[562*, 0*]
 49: 0x015F [0x66] LOAD_EXT_SCHEDULER_MAIN: Load scheduler "tlk0" with entities [Luto Mewrilah (ID: 17776780/0x010F408C), Luto Mewrilah (ID: 17776780/0x010F408C)], work=50*
 50: 0x016E [0x1A] CALL_SUBROUTINE(address=0x57BF)
 51: 0x0171 [0x1A] CALL_SUBROUTINE(address=0x57C9)
 52: 0x0174 [0x03] Work_Zone[2] = ExtData[1]->WorkLocal[1]
 53: 0x0179 [0x02] IF !(ExtData[1]->WorkLocal[11] == 0*) GOTO 0x018C
 54: 0x0181 [0x2B] Luto Mewrilah (ID: 17776780/0x010F408C) [12775*]:
    → "You know, the one where you and [Feliz/Ferdinand/Gunnar/Massimo/Oldrich/Siegward/Theobald/Zenji] squared off in a hair-rrraising duel of epic proportions?"
 55: 0x0188 [0x23] WAIT_FOR_DIALOG_INTERACTION
 56: 0x0189 [0x01] GOTO 0x0211
 57: 0x018C [0x02] IF !(ExtData[1]->WorkLocal[11] == 1*) GOTO 0x019F
 58: 0x0194 [0x2B] Luto Mewrilah (ID: 17776780/0x010F408C) [12776*]:
    → "You know, the one where you and [Amerita/Beatrice/Henrietta/Jesimae/Karyn/Nanako/Sharlene/Sieghilde] squared off in a hair-rrraising duel of epic proportions?"
 59: 0x019B [0x23] WAIT_FOR_DIALOG_INTERACTION
 60: 0x019C [0x01] GOTO 0x0211
 61: 0x019F [0x02] IF !(ExtData[1]->WorkLocal[11] == 2*) GOTO 0x01B2
 62: 0x01A7 [0x2B] Luto Mewrilah (ID: 17776780/0x010F408C) [12777*]:
    → "You know, the one where you and [Chanandit/Deulmaeux/Demresinaux/Ephealgaux/Gauldeval/Grauffemart/Migaifongut/Romidiant] squared off in a hair-rrraising duel of epic proportions?"
 63: 0x01AE [0x23] WAIT_FOR_DIALOG_INTERACTION
 64: 0x01AF [0x01] GOTO 0x0211
 65: 0x01B2 [0x02] IF !(ExtData[1]->WorkLocal[11] == 3*) GOTO 0x01C5
 66: 0x01BA [0x2B] Luto Mewrilah (ID: 17776780/0x010F408C) [12778*]:
    → "You know, the one where you and [Armittie/Cadepure/Clearite/Epilleve/Liabelle/Nauthima/Radille/Vimechue] squared off in a hair-rrraising duel of epic proportions?"
 67: 0x01C1 [0x23] WAIT_FOR_DIALOG_INTERACTION
 68: 0x01C2 [0x01] GOTO 0x0211
 69: 0x01C5 [0x02] IF !(ExtData[1]->WorkLocal[11] == 4*) GOTO 0x01D8
 70: 0x01CD [0x2B] Luto Mewrilah (ID: 17776780/0x010F408C) [12779*]:
    → "You know, the one where you and [Balu-Falu/Burg-Ladarg/Ehgo-Ryuhgo/Kolui-Pelui/Nokum-Akkum/Savul-Kivul/Vinja-Kanja/Yarga-Umiga] squared off in a hair-rrraising duel of epic proportions?"
 71: 0x01D4 [0x23] WAIT_FOR_DIALOG_INTERACTION
 72: 0x01D5 [0x01] GOTO 0x0211
 73: 0x01D8 [0x02] IF !(ExtData[1]->WorkLocal[11] == 5*) GOTO 0x01EB
 74: 0x01E0 [0x2B] Luto Mewrilah (ID: 17776780/0x010F408C) [12780*]:
    → "You know, the one where you and [Cupapa/Jajuju/Kalokoko/Mahoyaya/Pakurara/Ripokeke/Yawawa/Yufafa] squared off in a hair-rrraising duel of epic proportions?"
 75: 0x01E7 [0x23] WAIT_FOR_DIALOG_INTERACTION
 76: 0x01E8 [0x01] GOTO 0x0211
 77: 0x01EB [0x02] IF !(ExtData[1]->WorkLocal[11] == 6*) GOTO 0x01FE
 78: 0x01F3 [0x2B] Luto Mewrilah (ID: 17776780/0x010F408C) [12781*]:
    → "You know, the one where you and [Fhig Lahrv/Khuma Tagyawhan/Pimy Kettihl/Raka Maimhov/Sahyu Banjyao/Sufhi Uchnouma/Tsuim Nhomango/Yoli Kohlpaka] squared off in a hair-rrraising duel of epic proportions?"
 79: 0x01FA [0x23] WAIT_FOR_DIALOG_INTERACTION
 80: 0x01FB [0x01] GOTO 0x0211
 81: 0x01FE [0x02] IF !(ExtData[1]->WorkLocal[11] == 7*) GOTO 0x0211
 82: 0x0206 [0x2B] Luto Mewrilah (ID: 17776780/0x010F408C) [12782*]:
    → "You know, the one where you and [Durib/Dzapiwa/Jugowa/Mugido/Voldai/Wagwei/Zayag/Zoldof] squared off in a hair-rrraising duel of epic proportions?"
 83: 0x020D [0x23] WAIT_FOR_DIALOG_INTERACTION
 84: 0x020E [0x01] GOTO 0x0211

SUBROUTINE_0211:
 85: 0x0211 [0x2B] Luto Mewrilah (ID: 17776780/0x010F408C) [12783*]:
    → "What of it, you say?"
 86: 0x0218 [0x23] WAIT_FOR_DIALOG_INTERACTION
 87: 0x0219 [0x52] END_LOAD_SCHEDULER: End scheduler "7503" with entities [LocalPlayer, LocalPlayer], work=562*
 88: 0x0228 [0x45] LOAD_SCHEDULED_TASK: Load scheduler "7504" with entities [LocalPlayer, LocalPlayer], work=[562*, 0*]
 89: 0x0239 [0x66] LOAD_EXT_SCHEDULER_MAIN: Load scheduler "tlk2" with entities [Luto Mewrilah (ID: 17776780/0x010F408C), Luto Mewrilah (ID: 17776780/0x010F408C)], work=50*
 90: 0x0248 [0x1C] WAIT(30* ticks)
 91: 0x024B [0x2B] Luto Mewrilah (ID: 17776780/0x010F408C) [12784*]:
    → "Perhaps it's all water under Heavens Brrridge to you, but your sidekick hasn't been the same since. Yes, it would seem the walloping you delivered left quite a mark."
 92: 0x0252 [0x23] WAIT_FOR_DIALOG_INTERACTION
 93: 0x0253 [0x53] WAIT_SCHEDULER_TASK: Wait for scheduler "tlk2" with entities [Luto Mewrilah (ID: 17776780/0x010F408C), Luto Mewrilah (ID: 17776780/0x010F408C)]
 94: 0x0260 [0x66] LOAD_EXT_SCHEDULER_MAIN: Load scheduler "dis0" with entities [Luto Mewrilah (ID: 17776780/0x010F408C), Luto Mewrilah (ID: 17776780/0x010F408C)], work=52*
 95: 0x026F [0x1C] WAIT(30* ticks)
 96: 0x0272 [0x2B] Luto Mewrilah (ID: 17776780/0x010F408C) [12785*]:
    → "Moping all day like the end of the world is nigh, bumbling and fumbling through one job after the next... I turned a blind eye till now, but it's starting to cut into my profits!"
 97: 0x0279 [0x23] WAIT_FOR_DIALOG_INTERACTION
 98: 0x027A [0x53] WAIT_SCHEDULER_TASK: Wait for scheduler "dis0" with entities [Luto Mewrilah (ID: 17776780/0x010F408C), Luto Mewrilah (ID: 17776780/0x010F408C)]
 99: 0x0287 [0x7B] Luto Mewrilah (ID: 17776780/0x010F408C) stops talking
100: 0x028C [0x66] LOAD_EXT_SCHEDULER_MAIN: Load scheduler "poi1" with entities [Luto Mewrilah (ID: 17776780/0x010F408C), Luto Mewrilah (ID: 17776780/0x010F408C)], work=52*
101: 0x029B [0x1C] WAIT(30* ticks)
102: 0x029E [0x2B] Luto Mewrilah (ID: 17776780/0x010F408C) [12786*]:
    → "Yep, someone's going to have to take rrresponsibility. ...And when I say "someone," I mean you."
103: 0x02A5 [0x23] WAIT_FOR_DIALOG_INTERACTION
104: 0x02A6 [0x52] END_LOAD_SCHEDULER: End scheduler "7504" with entities [LocalPlayer, LocalPlayer], work=562*
105: 0x02B5 [0x45] LOAD_SCHEDULED_TASK: Load scheduler "7505" with entities [LocalPlayer, LocalPlayer], work=[562*, 0*]
106: 0x02C6 [0x2B] Luto Mewrilah (ID: 17776780/0x010F408C) [12787*]:
    → "Proper aftercare...it's an indispensible part of the fellowship process! Are we understood?"
107: 0x02CD [0x23] WAIT_FOR_DIALOG_INTERACTION
108: 0x02CE [0x66] LOAD_EXT_SCHEDULER_MAIN: Load scheduler "poi2" with entities [Luto Mewrilah (ID: 17776780/0x010F408C), Luto Mewrilah (ID: 17776780/0x010F408C)], work=52*
109: 0x02DD [0x1C] WAIT(30* ticks)
110: 0x02E0 [0x1A] CALL_SUBROUTINE(address=0x57BF)
111: 0x02E3 [0x1A] CALL_SUBROUTINE(address=0x57C9)
112: 0x02E6 [0x03] Work_Zone[2] = ExtData[1]->WorkLocal[1]
113: 0x02EB [0x02] IF !(ExtData[1]->WorkLocal[11] == 0*) GOTO 0x02FE
114: 0x02F3 [0x2B] Luto Mewrilah (ID: 17776780/0x010F408C) [12788*]:
    → "So here's the long and short of it. Ever since his defeat at Qu'Bia, poor [Feliz/Ferdinand/Gunnar/Massimo/Oldrich/Siegward/Theobald/Zenji] has been plagued with self-doubt at the thought that his abilities have reached their limits."
115: 0x02FA [0x23] WAIT_FOR_DIALOG_INTERACTION
116: 0x02FB [0x01] GOTO 0x0383
117: 0x02FE [0x02] IF !(ExtData[1]->WorkLocal[11] == 1*) GOTO 0x0311
118: 0x0306 [0x2B] Luto Mewrilah (ID: 17776780/0x010F408C) [12789*]:
    → "So here's the long and short of it. Ever since her defeat at Qu'Bia, poor [Amerita/Beatrice/Henrietta/Jesimae/Karyn/Nanako/Sharlene/Sieghilde] has been plagued with self-doubt at the thought that her abilities have reached their limits."
119: 0x030D [0x23] WAIT_FOR_DIALOG_INTERACTION
120: 0x030E [0x01] GOTO 0x0383
121: 0x0311 [0x02] IF !(ExtData[1]->WorkLocal[11] == 2*) GOTO 0x0324
122: 0x0319 [0x2B] Luto Mewrilah (ID: 17776780/0x010F408C) [12790*]:
    → "So here's the long and short of it. Ever since his defeat at Qu'Bia, poor [Chanandit/Deulmaeux/Demresinaux/Ephealgaux/Gauldeval/Grauffemart/Migaifongut/Romidiant] has been plagued with self-doubt at the thought that his abilities have reached their limits."
123: 0x0320 [0x23] WAIT_FOR_DIALOG_INTERACTION
124: 0x0321 [0x01] GOTO 0x0383
125: 0x0324 [0x02] IF !(ExtData[1]->WorkLocal[11] == 3*) GOTO 0x0337
126: 0x032C [0x2B] Luto Mewrilah (ID: 17776780/0x010F408C) [12791*]:
    → "So here's the long and short of it. Ever since her defeat at Qu'Bia, poor [Armittie/Cadepure/Clearite/Epilleve/Liabelle/Nauthima/Radille/Vimechue] has been plagued with self-doubt at the thought that her abilities have reached their limits."
127: 0x0333 [0x23] WAIT_FOR_DIALOG_INTERACTION
128: 0x0334 [0x01] GOTO 0x0383
129: 0x0337 [0x02] IF !(ExtData[1]->WorkLocal[11] == 4*) GOTO 0x034A
130: 0x033F [0x2B] Luto Mewrilah (ID: 17776780/0x010F408C) [12792*]:
    → "So here's the long and short of it. Ever since his defeat at Qu'Bia, poor [Balu-Falu/Burg-Ladarg/Ehgo-Ryuhgo/Kolui-Pelui/Nokum-Akkum/Savul-Kivul/Vinja-Kanja/Yarga-Umiga] has been plagued with self-doubt at the thought that his abilities have reached their limits."
131: 0x0346 [0x23] WAIT_FOR_DIALOG_INTERACTION
132: 0x0347 [0x01] GOTO 0x0383
133: 0x034A [0x02] IF !(ExtData[1]->WorkLocal[11] == 5*) GOTO 0x035D
134: 0x0352 [0x2B] Luto Mewrilah (ID: 17776780/0x010F408C) [12793*]:
    → "So here's the long and short of it. Ever since her defeat at Qu'Bia, poor [Cupapa/Jajuju/Kalokoko/Mahoyaya/Pakurara/Ripokeke/Yawawa/Yufafa] has been plagued with self-doubt at the thought that her abilities have reached their limits."
135: 0x0359 [0x23] WAIT_FOR_DIALOG_INTERACTION
136: 0x035A [0x01] GOTO 0x0383
137: 0x035D [0x02] IF !(ExtData[1]->WorkLocal[11] == 6*) GOTO 0x0370
138: 0x0365 [0x2B] Luto Mewrilah (ID: 17776780/0x010F408C) [12794*]:
    → "So here's the long and short of it. Ever since her defeat at Qu'Bia, poor [Fhig Lahrv/Khuma Tagyawhan/Pimy Kettihl/Raka Maimhov/Sahyu Banjyao/Sufhi Uchnouma/Tsuim Nhomango/Yoli Kohlpaka] has been plagued with self-doubt at the thought that her abilities have reached their limits."
139: 0x036C [0x23] WAIT_FOR_DIALOG_INTERACTION
140: 0x036D [0x01] GOTO 0x0383
141: 0x0370 [0x02] IF !(ExtData[1]->WorkLocal[11] == 7*) GOTO 0x0383
142: 0x0378 [0x2B] Luto Mewrilah (ID: 17776780/0x010F408C) [12795*]:
    → "So here's the long and short of it. Ever since his defeat at Qu'Bia, poor [Durib/Dzapiwa/Jugowa/Mugido/Voldai/Wagwei/Zayag/Zoldof] has been plagued with self-doubt at the thought that his abilities have reached their limits."
143: 0x037F [0x23] WAIT_FOR_DIALOG_INTERACTION
144: 0x0380 [0x01] GOTO 0x0383

SUBROUTINE_0383:
145: 0x0383 [0x52] END_LOAD_SCHEDULER: End scheduler "7505" with entities [LocalPlayer, LocalPlayer], work=562*
146: 0x0392 [0x45] LOAD_SCHEDULED_TASK: Load scheduler "7506" with entities [LocalPlayer, LocalPlayer], work=[562*, 0*]
147: 0x03A3 [0x81] SET_ENTITY_BLINKING(blink_flag=0x00, entity=Luto Mewrilah (ID: 17776780/0x010F408C))
148: 0x03A9 [0x66] LOAD_EXT_SCHEDULER_MAIN: Load scheduler "thk1" with entities [Luto Mewrilah (ID: 17776780/0x010F408C), Luto Mewrilah (ID: 17776780/0x010F408C)], work=50*
149: 0x03B8 [0x1C] WAIT(45* ticks)
150: 0x03BB [0x2B] Luto Mewrilah (ID: 17776780/0x010F408C) [12796*]:
    → "...A plight not unfamiliar to an adventurer such as you, I'd rrreckon. So I'm counting on you to help your buddy through the same way you helped yourself."
151: 0x03C2 [0x23] WAIT_FOR_DIALOG_INTERACTION
152: 0x03C3 [0x53] WAIT_SCHEDULER_TASK: Wait for scheduler "thk1" with entities [Luto Mewrilah (ID: 17776780/0x010F408C), Luto Mewrilah (ID: 17776780/0x010F408C)]
153: 0x03D0 [0x81] SET_ENTITY_BLINKING(blink_flag=0x01, entity=Luto Mewrilah (ID: 17776780/0x010F408C))
154: 0x03D6 [0x66] LOAD_EXT_SCHEDULER_MAIN: Load scheduler "thk2" with entities [Luto Mewrilah (ID: 17776780/0x010F408C), Luto Mewrilah (ID: 17776780/0x010F408C)], work=50*
155: 0x03E5 [0x79] Luto Mewrilah (ID: 17776780/0x010F408C) looks at LocalPlayer (Basic look)
156: 0x03EF [0x1C] WAIT(30* ticks)
157: 0x03F2 [0x2B] Luto Mewrilah (ID: 17776780/0x010F408C) [12797*]:
    → "I have here an invitation from an organization called the Magian Mooglehood. Have you heard of them, by any chance?"
158: 0x03F9 [0x23] WAIT_FOR_DIALOG_INTERACTION
159: 0x03FA [0x52] END_LOAD_SCHEDULER: End scheduler "7506" with entities [LocalPlayer, LocalPlayer], work=562*
160: 0x0409 [0x45] LOAD_SCHEDULED_TASK: Load scheduler "7507" with entities [LocalPlayer, LocalPlayer], work=[562*, 0*]
161: 0x041A [0x66] LOAD_EXT_SCHEDULER_MAIN: Load scheduler "tlb0" with entities [Luto Mewrilah (ID: 17776780/0x010F408C), Luto Mewrilah (ID: 17776780/0x010F408C)], work=68*
162: 0x0429 [0x03] Work_Zone[2] = 1261*
163: 0x042E [0x2B] Luto Mewrilah (ID: 17776780/0x010F408C) [12798*]:
    → "You better have, because they're asking that you show up in Ru'Lude Garrrdens with something called $6 in hand."
164: 0x0435 [0x23] WAIT_FOR_DIALOG_INTERACTION
165: 0x0436 [0x29] REQ_SET_WAIT(priority=0x10, entity_id=LocalPlayer, tag_num=0x90)
166: 0x043D [0x52] END_LOAD_SCHEDULER: End scheduler "7507" with entities [LocalPlayer, LocalPlayer], work=562*
167: 0x044C [0x02] IF !(Work_Zone[2] == 5*) GOTO 0x0468
168: 0x0454 [0x45] LOAD_SCHEDULED_TASK: Load scheduler "7509" with entities [LocalPlayer, LocalPlayer], work=[562*, 0*]
169: 0x0465 [0x01] GOTO 0x0495
170: 0x0468 [0x02] IF !(Work_Zone[2] == 6*) GOTO 0x0484
171: 0x0470 [0x45] LOAD_SCHEDULED_TASK: Load scheduler "7509" with entities [LocalPlayer, LocalPlayer], work=[562*, 0*]
172: 0x0481 [0x01] GOTO 0x0495
173: 0x0484 [0x45] LOAD_SCHEDULED_TASK: Load scheduler "7508" with entities [LocalPlayer, LocalPlayer], work=[562*, 0*]

SUBROUTINE_0495:
174: 0x0495 [0x2B] Luto Mewrilah (ID: 17776780/0x010F408C) [12799*]:
    → "Either way, it shouldn't prove a difficult task for one as capable as you."
175: 0x049C [0x23] WAIT_FOR_DIALOG_INTERACTION
176: 0x049D [0x66] LOAD_EXT_SCHEDULER_MAIN: Load scheduler "tlb1" with entities [Luto Mewrilah (ID: 17776780/0x010F408C), Luto Mewrilah (ID: 17776780/0x010F408C)], work=68*
177: 0x04AC [0x2B] Luto Mewrilah (ID: 17776780/0x010F408C) [12800*]:
    → "Show this to the Magian Moogle when you get there, and he'll take care of the rrrest."
178: 0x04B3 [0x23] WAIT_FOR_DIALOG_INTERACTION
179: 0x04B4 [0x53] WAIT_SCHEDULER_TASK: Wait for scheduler "tlb1" with entities [Luto Mewrilah (ID: 17776780/0x010F408C), Luto Mewrilah (ID: 17776780/0x010F408C)]
180: 0x04C1 [0x52] END_LOAD_SCHEDULER: End scheduler "7509" with entities [LocalPlayer, LocalPlayer], work=562*
181: 0x04D0 [0x52] END_LOAD_SCHEDULER: End scheduler "7508" with entities [LocalPlayer, LocalPlayer], work=562*
182: 0x04DF [0x45] LOAD_SCHEDULED_TASK: Load scheduler "7510" with entities [LocalPlayer, LocalPlayer], work=[562*, 0*]
183: 0x04F0 [0x7B] Luto Mewrilah (ID: 17776780/0x010F408C) stops talking
184: 0x04F5 [0x66] LOAD_EXT_SCHEDULER_MAIN: Load scheduler "pas0" with entities [Luto Mewrilah (ID: 17776780/0x010F408C), Luto Mewrilah (ID: 17776780/0x010F408C)], work=50*
185: 0x0504 [0x1C] WAIT(60* ticks)
186: 0x0507 [0x1A] CALL_SUBROUTINE(address=0x57BF)
187: 0x050A [0x1A] CALL_SUBROUTINE(address=0x57C9)
188: 0x050D [0x03] Work_Zone[2] = ExtData[1]->WorkLocal[1]
189: 0x0512 [0x02] IF !(ExtData[1]->WorkLocal[11] == 0*) GOTO 0x0525
190: 0x051A [0x2B] Luto Mewrilah (ID: 17776780/0x010F408C) [12801*]:
    → "Next time [Feliz/Ferdinand/Gunnar/Massimo/Oldrich/Siegward/Theobald/Zenji] comes moping through here, I'll tell him to meet you in Ru'Lude posthaste."
191: 0x0521 [0x23] WAIT_FOR_DIALOG_INTERACTION
192: 0x0522 [0x01] GOTO 0x05AA
193: 0x0525 [0x02] IF !(ExtData[1]->WorkLocal[11] == 1*) GOTO 0x0538
194: 0x052D [0x2B] Luto Mewrilah (ID: 17776780/0x010F408C) [12802*]:
    → "Next time [Amerita/Beatrice/Henrietta/Jesimae/Karyn/Nanako/Sharlene/Sieghilde] comes moping through here, I'll tell her to meet you in Ru'Lude posthaste."
195: 0x0534 [0x23] WAIT_FOR_DIALOG_INTERACTION
196: 0x0535 [0x01] GOTO 0x05AA
197: 0x0538 [0x02] IF !(ExtData[1]->WorkLocal[11] == 2*) GOTO 0x054B
198: 0x0540 [0x2B] Luto Mewrilah (ID: 17776780/0x010F408C) [12803*]:
    → "Next time [Chanandit/Deulmaeux/Demresinaux/Ephealgaux/Gauldeval/Grauffemart/Migaifongut/Romidiant] comes moping through here, I'll tell him to meet you in Ru'Lude posthaste."
199: 0x0547 [0x23] WAIT_FOR_DIALOG_INTERACTION
200: 0x0548 [0x01] GOTO 0x05AA
201: 0x054B [0x02] IF !(ExtData[1]->WorkLocal[11] == 3*) GOTO 0x055E
202: 0x0553 [0x2B] Luto Mewrilah (ID: 17776780/0x010F408C) [12804*]:
    → "Next time [Armittie/Cadepure/Clearite/Epilleve/Liabelle/Nauthima/Radille/Vimechue] comes moping through here, I'll tell her to meet you in Ru'Lude posthaste."
203: 0x055A [0x23] WAIT_FOR_DIALOG_INTERACTION
204: 0x055B [0x01] GOTO 0x05AA
205: 0x055E [0x02] IF !(ExtData[1]->WorkLocal[11] == 4*) GOTO 0x0571
206: 0x0566 [0x2B] Luto Mewrilah (ID: 17776780/0x010F408C) [12805*]:
    → "Next time [Balu-Falu/Burg-Ladarg/Ehgo-Ryuhgo/Kolui-Pelui/Nokum-Akkum/Savul-Kivul/Vinja-Kanja/Yarga-Umiga] comes moping through here, I'll tell him to meet you in Ru'Lude posthaste."
207: 0x056D [0x23] WAIT_FOR_DIALOG_INTERACTION
208: 0x056E [0x01] GOTO 0x05AA
209: 0x0571 [0x02] IF !(ExtData[1]->WorkLocal[11] == 5*) GOTO 0x0584
210: 0x0579 [0x2B] Luto Mewrilah (ID: 17776780/0x010F408C) [12806*]:
    → "Next time [Cupapa/Jajuju/Kalokoko/Mahoyaya/Pakurara/Ripokeke/Yawawa/Yufafa] comes moping through here, I'll tell her to meet you in Ru'Lude posthaste."
211: 0x0580 [0x23] WAIT_FOR_DIALOG_INTERACTION
212: 0x0581 [0x01] GOTO 0x05AA
213: 0x0584 [0x02] IF !(ExtData[1]->WorkLocal[11] == 6*) GOTO 0x0597
214: 0x058C [0x2B] Luto Mewrilah (ID: 17776780/0x010F408C) [12807*]:
    → "Next time [Fhig Lahrv/Khuma Tagyawhan/Pimy Kettihl/Raka Maimhov/Sahyu Banjyao/Sufhi Uchnouma/Tsuim Nhomango/Yoli Kohlpaka] comes moping through here, I'll tell her to meet you in Ru'Lude posthaste."
215: 0x0593 [0x23] WAIT_FOR_DIALOG_INTERACTION
216: 0x0594 [0x01] GOTO 0x05AA
217: 0x0597 [0x02] IF !(ExtData[1]->WorkLocal[11] == 7*) GOTO 0x05AA
218: 0x059F [0x2B] Luto Mewrilah (ID: 17776780/0x010F408C) [12808*]:
    → "Next time [Durib/Dzapiwa/Jugowa/Mugido/Voldai/Wagwei/Zayag/Zoldof] comes moping through here, I'll tell him to meet you in Ru'Lude posthaste."
219: 0x05A6 [0x23] WAIT_FOR_DIALOG_INTERACTION
220: 0x05A7 [0x01] GOTO 0x05AA

SUBROUTINE_05AA:
221: 0x05AA [0x53] WAIT_SCHEDULER_TASK: Wait for scheduler "pas0" with entities [Luto Mewrilah (ID: 17776780/0x010F408C), Luto Mewrilah (ID: 17776780/0x010F408C)]
222: 0x05B7 [0x66] LOAD_EXT_SCHEDULER_MAIN: Load scheduler "ure0" with entities [Luto Mewrilah (ID: 17776780/0x010F408C), Luto Mewrilah (ID: 17776780/0x010F408C)], work=8*
223: 0x05C6 [0x2B] Luto Mewrilah (ID: 17776780/0x010F408C) [12809*]:
    → "I can see it now--the two of you forging bonds of comrrradeship as never before! And I'll be right there looking on, heart overflowing with joy and coffers overflowing with gil. So what are you waiting for, <Player>? Get a move on!"
224: 0x05CD [0x23] WAIT_FOR_DIALOG_INTERACTION
225: 0x05CE [0x52] END_LOAD_SCHEDULER: End scheduler "7510" with entities [LocalPlayer, LocalPlayer], work=562*
226: 0x05DD [0x45] LOAD_SCHEDULED_TASK: Load scheduler "7511" with entities [LocalPlayer, LocalPlayer], work=[562*, 0*]
227: 0x05EE [0x27] REQ_SET(priority=0x10, entity_id=LocalPlayer, tag_num=0x8D)
228: 0x05F5 [0x1C] WAIT(60* ticks)
229: 0x05F8 [0x4A] Luto Mewrilah (ID: 17776780/0x010F408C) looks at LocalPlayer
230: 0x0601 [0x1C] WAIT(180* ticks)
231: 0x0604 [0x1A] CALL_SUBROUTINE(address=0x4146)
232: 0x0607 [0x1C] WAIT(30* ticks)
233: 0x060A [0x7A] VM_CONTROL: Reset VM for LocalPlayer
234: 0x0610 [0x52] END_LOAD_SCHEDULER: End scheduler "7511" with entities [LocalPlayer, LocalPlayer], work=562*
235: 0x061F [0x45] LOAD_SCHEDULED_TASK: Load scheduler "0blf" with entities [LocalPlayer, LocalPlayer], work=[562*, 0*]
236: 0x0630 [0x5C] MUSIC_CONTROL: Set Idle (Day) music to song 110*
237: 0x0634 [0x5C] MUSIC_CONTROL: Set Idle (Night) music to song 110*
238: 0x0638 [0x9A] WAIT_MUSIC_SERVER()
239: 0x0639 [0x46] CAMERA_CONTROL: Restore default settings
240: 0x063B [0x45] LOAD_SCHEDULED_TASK: Load scheduler "fdi2" with entities [LocalPlayer, LocalPlayer], work=[200*, 0*]
241: 0x064C [0x21] END_EVENT
242: 0x064D [0x00] END_REQSTACK()
```

### Event 10198

#### Metadata

| Field        | Value      |
|--------------|------------|
| Entrypoint   | 0x064E     |
| Data Size    | 2582 bytes |
| Instructions | 429        |

```
      00 01 02 03 04 05 06 07  08 09 0A 0B 0C 0D 0E 0F
      -- -- -- -- -- -- -- --  -- -- -- -- -- -- -- --
0640:                                            42 1A                B.
0650: 46 41 46 01 38 00 80 4E  00 8F 40 0F 01 2F 00 8F  FAF.8..N..@../..
0660: 40 0F 01 92 01 8C 40 0F  01 94 01 F0 FF FF 7F 94  @.....@.........
0670: 01 8C 40 0F 01 94 01 8F  40 0F 01 BA F0 FF FF 7F  ..@.....@.......
0680: 01 80 02 80 03 80 45 80  BA 8F 40 0F 01 46 80 47  ......E...@..F.G
0690: 80 03 80 48 80 79 00 F0  FF FF 7F 8C 40 0F 01 4A  ...H.y......@..J
06A0: 8C 40 0F 01 F0 FF FF 7F  4A 8F 40 0F 01 8C 40 0F  .@......J.@...@.
06B0: 01 29 0A 8F 40 0F 01 11  80 8F 40 0F 01 80 F0 FF  .)..@.....@.....
06C0: FF 7F 80 8C 40 0F 01 79  00 8C 40 0F 01 8F 40 0F  ....@..y..@...@.
06D0: 01 1C 09 80 45 0A 80 F0  FF FF 7F F0 FF FF 7F 37  ....E..........7
06E0: 35 34 30 07 80 1A 25 41  66 13 80 8C 40 0F 01 8C  540...%Af...@...
06F0: 40 0F 01 74 6C 6B 30 1A  BF 57 1A C9 57 03 02 10  @..tlk0..W..W...
0700: 01 00 02 0B 00 07 80 80  15 07 2B 8C 40 0F 01 49  ..........+.@..I
0710: 80 23 01 9A 07 02 0B 00  15 80 80 28 07 2B 8C 40  .#.........(.+.@
0720: 0F 01 4A 80 23 01 9A 07  02 0B 00 17 80 80 3B 07  ..J.#.........;.
0730: 2B 8C 40 0F 01 4B 80 23  01 9A 07 02 0B 00 19 80  +.@..K.#........
0740: 80 4E 07 2B 8C 40 0F 01  4C 80 23 01 9A 07 02 0B  .N.+.@..L.#.....
0750: 00 1B 80 80 61 07 2B 8C  40 0F 01 4D 80 23 01 9A  ....a.+.@..M.#..
0760: 07 02 0B 00 1D 80 80 74  07 2B 8C 40 0F 01 4E 80  .......t.+.@..N.
0770: 23 01 9A 07 02 0B 00 1F  80 80 87 07 2B 8C 40 0F  #...........+.@.
0780: 01 4F 80 23 01 9A 07 02  0B 00 21 80 80 9A 07 2B  .O.#......!....+
0790: 8C 40 0F 01 50 80 23 01  9A 07 79 00 F0 FF FF 7F  .@..P.#...y.....
07A0: 8F 40 0F 01 66 13 80 8C  40 0F 01 8C 40 0F 01 74  .@..f...@...@..t
07B0: 6C 6B 32 1C 09 80 6E 8F  40 0F 01 1F 80 99 8F 40  lk2...n.@......@
07C0: 0F 01 1A AA 58 02 08 00  15 80 80 D8 07 2B 8F 40  ....X........+.@
07D0: 0F 01 51 80 23 01 A9 08  02 08 00 17 80 80 EB 07  ..Q.#...........
07E0: 2B 8F 40 0F 01 52 80 23  01 A9 08 02 08 00 19 80  +.@..R.#........
07F0: 80 FE 07 2B 8F 40 0F 01  53 80 23 01 A9 08 02 08  ...+.@..S.#.....
0800: 00 1B 80 80 11 08 2B 8F  40 0F 01 54 80 23 01 A9  ......+.@..T.#..
0810: 08 02 08 00 1D 80 80 24  08 2B 8F 40 0F 01 55 80  .......$.+.@..U.
0820: 23 01 A9 08 02 08 00 1F  80 80 37 08 2B 8F 40 0F  #.........7.+.@.
0830: 01 56 80 23 01 A9 08 02  08 00 21 80 80 4A 08 2B  .V.#......!..J.+
0840: 8F 40 0F 01 57 80 23 01  A9 08 02 08 00 40 80 80  .@..W.#......@..
0850: 5D 08 2B 8F 40 0F 01 58  80 23 01 A9 08 02 08 00  ].+.@..X.#......
0860: 59 80 80 70 08 2B 8F 40  0F 01 5A 80 23 01 A9 08  Y..p.+.@..Z.#...
0870: 02 08 00 5B 80 80 83 08  2B 8F 40 0F 01 5C 80 23  ...[....+.@..\.#
0880: 01 A9 08 02 08 00 5D 80  80 96 08 2B 8F 40 0F 01  ......]....+.@..
0890: 5E 80 23 01 A9 08 02 08  00 5F 80 80 A9 08 2B 8F  ^.#......_....+.
08A0: 40 0F 01 60 80 23 01 A9  08 52 0A 80 F0 FF FF 7F  @..`.#...R......
08B0: F0 FF FF 7F 37 35 34 30  45 0A 80 F0 FF FF 7F F0  ....7540E.......
08C0: FF FF 7F 37 35 34 31 07  80 66 0D 80 8C 40 0F 01  ...7541..f...@..
08D0: 8C 40 0F 01 77 61 76 30  2B 8C 40 0F 01 61 80 23  .@..wav0+.@..a.#
08E0: 52 0A 80 F0 FF FF 7F F0  FF FF 7F 37 35 34 31 02  R..........7541.
08F0: 0B 00 1B 80 80 0B 09 45  0A 80 F0 FF FF 7F F0 FF  .......E........
0900: FF 7F 37 35 34 33 07 80  01 38 09 02 0B 00 1D 80  ..7543...8......
0910: 80 27 09 45 0A 80 F0 FF  FF 7F F0 FF FF 7F 37 35  .'.E..........75
0920: 34 33 07 80 01 38 09 45  0A 80 F0 FF FF 7F F0 FF  43...8.E........
0930: FF 7F 37 35 34 32 07 80  6E 8F 40 0F 01 62 80 99  ..7542..n.@..b..
0940: 8F 40 0F 01 1C 30 80 1A  AA 58 02 08 00 15 80 80  .@...0...X......
0950: 5D 09 2B 8F 40 0F 01 63  80 23 01 2E 0A 02 08 00  ].+.@..c.#......
0960: 17 80 80 70 09 2B 8F 40  0F 01 64 80 23 01 2E 0A  ...p.+.@..d.#...
0970: 02 08 00 19 80 80 83 09  2B 8F 40 0F 01 65 80 23  ........+.@..e.#
0980: 01 2E 0A 02 08 00 1B 80  80 96 09 2B 8F 40 0F 01  ...........+.@..
0990: 66 80 23 01 2E 0A 02 08  00 1D 80 80 A9 09 2B 8F  f.#...........+.
09A0: 40 0F 01 67 80 23 01 2E  0A 02 08 00 1F 80 80 BC  @..g.#..........
09B0: 09 2B 8F 40 0F 01 68 80  23 01 2E 0A 02 08 00 21  .+.@..h.#......!
09C0: 80 80 CF 09 2B 8F 40 0F  01 69 80 23 01 2E 0A 02  ....+.@..i.#....
09D0: 08 00 40 80 80 E2 09 2B  8F 40 0F 01 6A 80 23 01  ..@....+.@..j.#.
09E0: 2E 0A 02 08 00 59 80 80  F5 09 2B 8F 40 0F 01 6B  .....Y....+.@..k
09F0: 80 23 01 2E 0A 02 08 00  5B 80 80 08 0A 2B 8F 40  .#......[....+.@
0A00: 0F 01 6C 80 23 01 2E 0A  02 08 00 5D 80 80 1B 0A  ..l.#......]....
0A10: 2B 8F 40 0F 01 6D 80 23  01 2E 0A 02 08 00 5F 80  +.@..m.#......_.
0A20: 80 2E 0A 2B 8F 40 0F 01  6E 80 23 01 2E 0A 7B 8C  ...+.@..n.#...{.
0A30: 40 0F 01 66 13 80 8C 40  0F 01 8C 40 0F 01 74 68  @..f...@...@..th
0A40: 6B 31 2B 8C 40 0F 01 6F  80 23 6E 8F 40 0F 01 70  k1+.@..o.#n.@..p
0A50: 80 99 8F 40 0F 01 1A AA  58 02 08 00 15 80 80 6C  ...@....X......l
0A60: 0A 2B 8F 40 0F 01 71 80  23 01 3D 0B 02 08 00 17  .+.@..q.#.=.....
0A70: 80 80 7F 0A 2B 8F 40 0F  01 72 80 23 01 3D 0B 02  ....+.@..r.#.=..
0A80: 08 00 19 80 80 92 0A 2B  8F 40 0F 01 73 80 23 01  .......+.@..s.#.
0A90: 3D 0B 02 08 00 1B 80 80  A5 0A 2B 8F 40 0F 01 74  =.........+.@..t
0AA0: 80 23 01 3D 0B 02 08 00  1D 80 80 B8 0A 2B 8F 40  .#.=.........+.@
0AB0: 0F 01 75 80 23 01 3D 0B  02 08 00 1F 80 80 CB 0A  ..u.#.=.........
0AC0: 2B 8F 40 0F 01 76 80 23  01 3D 0B 02 08 00 21 80  +.@..v.#.=....!.
0AD0: 80 DE 0A 2B 8F 40 0F 01  77 80 23 01 3D 0B 02 08  ...+.@..w.#.=...
0AE0: 00 40 80 80 F1 0A 2B 8F  40 0F 01 78 80 23 01 3D  .@....+.@..x.#.=
0AF0: 0B 02 08 00 59 80 80 04  0B 2B 8F 40 0F 01 79 80  ....Y....+.@..y.
0B00: 23 01 3D 0B 02 08 00 5B  80 80 17 0B 2B 8F 40 0F  #.=....[....+.@.
0B10: 01 7A 80 23 01 3D 0B 02  08 00 5D 80 80 2A 0B 2B  .z.#.=....]..*.+
0B20: 8F 40 0F 01 7B 80 23 01  3D 0B 02 08 00 5F 80 80  .@..{.#.=...._..
0B30: 3D 0B 2B 8F 40 0F 01 7C  80 23 01 3D 0B 52 0A 80  =.+.@..|.#.=.R..
0B40: F0 FF FF 7F F0 FF FF 7F  37 35 34 32 52 0A 80 F0  ........7542R...
0B50: FF FF 7F F0 FF FF 7F 37  35 34 33 45 0A 80 F0 FF  .......7543E....
0B60: FF 7F F0 FF FF 7F 37 35  34 34 07 80 66 13 80 8C  ......7544..f...
0B70: 40 0F 01 8C 40 0F 01 74  68 6B 32 4A 8C 40 0F 01  @...@..thk2J.@..
0B80: 8F 40 0F 01 2B 8C 40 0F  01 7D 80 1C 10 80 79 00  .@..+.@..}....y.
0B90: F0 FF FF 7F 8C 40 0F 01  23 53 8C 40 0F 01 8C 40  .....@..#S.@...@
0BA0: 0F 01 74 68 6B 32 52 0A  80 F0 FF FF 7F F0 FF FF  ..thk2R.........
0BB0: 7F 37 35 34 34 45 0A 80  F0 FF FF 7F F0 FF FF 7F  .7544E..........
0BC0: 37 35 34 35 07 80 66 33  80 8C 40 0F 01 8C 40 0F  7545..f3..@...@.
0BD0: 01 74 6C 62 30 2B 8C 40  0F 01 7E 80 23 2B 8C 40  .tlb0+.@..~.#+.@
0BE0: 0F 01 7F 80 23 52 0A 80  F0 FF FF 7F F0 FF FF 7F  ....#R..........
0BF0: 37 35 34 35 45 0A 80 F0  FF FF 7F F0 FF FF 7F 37  7545E..........7
0C00: 35 34 36 07 80 66 33 80  8C 40 0F 01 8C 40 0F 01  546..f3..@...@..
0C10: 74 6C 62 31 1C 09 80 2B  8C 40 0F 01 80 80 23 27  tlb1...+.@....#'
0C20: 10 8F 40 0F 01 6F 1A AA  58 02 08 00 15 80 80 3C  ..@..o..X......<
0C30: 0C 2B 8F 40 0F 01 81 80  23 01 0D 0D 02 08 00 17  .+.@....#.......
0C40: 80 80 4F 0C 2B 8F 40 0F  01 82 80 23 01 0D 0D 02  ..O.+.@....#....
0C50: 08 00 19 80 80 62 0C 2B  8F 40 0F 01 83 80 23 01  .....b.+.@....#.
0C60: 0D 0D 02 08 00 1B 80 80  75 0C 2B 8F 40 0F 01 84  ........u.+.@...
0C70: 80 23 01 0D 0D 02 08 00  1D 80 80 88 0C 2B 8F 40  .#...........+.@
0C80: 0F 01 85 80 23 01 0D 0D  02 08 00 1F 80 80 9B 0C  ....#...........
0C90: 2B 8F 40 0F 01 86 80 23  01 0D 0D 02 08 00 21 80  +.@....#......!.
0CA0: 80 AE 0C 2B 8F 40 0F 01  87 80 23 01 0D 0D 02 08  ...+.@....#.....
0CB0: 00 40 80 80 C1 0C 2B 8F  40 0F 01 88 80 23 01 0D  .@....+.@....#..
0CC0: 0D 02 08 00 59 80 80 D4  0C 2B 8F 40 0F 01 89 80  ....Y....+.@....
0CD0: 23 01 0D 0D 02 08 00 5B  80 80 E7 0C 2B 8F 40 0F  #......[....+.@.
0CE0: 01 8A 80 23 01 0D 0D 02  08 00 5D 80 80 FA 0C 2B  ...#......]....+
0CF0: 8F 40 0F 01 8B 80 23 01  0D 0D 02 08 00 5F 80 80  .@....#......_..
0D00: 0D 0D 2B 8F 40 0F 01 8C  80 23 01 0D 0D 66 8D 80  ..+.@....#...f..
0D10: 8C 40 0F 01 8C 40 0F 01  74 6C 63 30 2B 8C 40 0F  .@...@..tlc0+.@.
0D20: 01 8E 80 23 4A 8F 40 0F  01 F0 FF FF 7F 6F 76 8F  ...#J.@......ov.
0D30: 40 0F 01 1C 09 80 52 0A  80 F0 FF FF 7F F0 FF FF  @.....R.........
0D40: 7F 37 35 34 36 02 0B 00  1B 80 80 61 0D 45 0A 80  .7546......a.E..
0D50: F0 FF FF 7F F0 FF FF 7F  37 35 34 38 07 80 01 8E  ........7548....
0D60: 0D 02 0B 00 1D 80 80 7D  0D 45 0A 80 F0 FF FF 7F  .......}.E......
0D70: F0 FF FF 7F 37 35 34 38  07 80 01 8E 0D 45 0A 80  ....7548.....E..
0D80: F0 FF FF 7F F0 FF FF 7F  37 35 34 37 07 80 6E 8F  ........7547..n.
0D90: 40 0F 01 8F 80 99 8F 40  0F 01 1A AA 58 02 08 00  @......@....X...
0DA0: 15 80 80 AF 0D 2B 8F 40  0F 01 90 80 01 75 0E 02  .....+.@.....u..
0DB0: 08 00 17 80 80 C1 0D 2B  8F 40 0F 01 91 80 01 75  .......+.@.....u
0DC0: 0E 02 08 00 19 80 80 D3  0D 2B 8F 40 0F 01 92 80  .........+.@....
0DD0: 01 75 0E 02 08 00 1B 80  80 E5 0D 2B 8F 40 0F 01  .u.........+.@..
0DE0: 93 80 01 75 0E 02 08 00  1D 80 80 F7 0D 2B 8F 40  ...u.........+.@
0DF0: 0F 01 94 80 01 75 0E 02  08 00 1F 80 80 09 0E 2B  .....u.........+
0E00: 8F 40 0F 01 95 80 01 75  0E 02 08 00 21 80 80 1B  .@.....u....!...
0E10: 0E 2B 8F 40 0F 01 96 80  01 75 0E 02 08 00 40 80  .+.@.....u....@.
0E20: 80 2D 0E 2B 8F 40 0F 01  97 80 01 75 0E 02 08 00  .-.+.@.....u....
0E30: 59 80 80 3F 0E 2B 8F 40  0F 01 98 80 01 75 0E 02  Y..?.+.@.....u..
0E40: 08 00 5B 80 80 51 0E 2B  8F 40 0F 01 99 80 01 75  ..[..Q.+.@.....u
0E50: 0E 02 08 00 5D 80 80 63  0E 2B 8F 40 0F 01 9A 80  ....]..c.+.@....
0E60: 01 75 0E 02 08 00 5F 80  80 75 0E 2B 8F 40 0F 01  .u...._..u.+.@..
0E70: 9B 80 01 75 0E 1C 9C 80  4A F0 FF FF 7F 8F 40 0F  ...u....J.....@.
0E80: 01 1C 9D 80 23 27 10 8F  40 0F 01 70 1C 09 80 52  ....#'..@..p...R
0E90: 0A 80 F0 FF FF 7F F0 FF  FF 7F 37 35 34 37 52 0A  ..........7547R.
0EA0: 80 F0 FF FF 7F F0 FF FF  7F 37 35 34 38 45 0A 80  .........7548E..
0EB0: F0 FF FF 7F F0 FF FF 7F  37 35 34 39 07 80 4A F0  ........7549..J.
0EC0: FF FF 7F 8F 40 0F 01 1C  9E 80 79 00 8C 40 0F 01  ....@.....y..@..
0ED0: F0 FF FF 7F 1C 09 80 52  0A 80 F0 FF FF 7F F0 FF  .......R........
0EE0: FF 7F 37 35 34 39 45 0A  80 F0 FF FF 7F F0 FF FF  ..7549E.........
0EF0: 7F 37 35 35 30 07 80 66  33 80 8C 40 0F 01 8C 40  .7550..f3..@...@
0F00: 0F 01 74 6C 62 30 1A BF  57 1A C9 57 03 02 10 01  ..tlb0..W..W....
0F10: 00 02 0B 00 07 80 80 23  0F 2B 8C 40 0F 01 9F 80  .......#.+.@....
0F20: 01 A1 0F 02 0B 00 15 80  80 35 0F 2B 8C 40 0F 01  .........5.+.@..
0F30: A0 80 01 A1 0F 02 0B 00  17 80 80 47 0F 2B 8C 40  ...........G.+.@
0F40: 0F 01 A1 80 01 A1 0F 02  0B 00 19 80 80 59 0F 2B  .............Y.+
0F50: 8C 40 0F 01 A2 80 01 A1  0F 02 0B 00 1B 80 80 6B  .@.............k
0F60: 0F 2B 8C 40 0F 01 A3 80  01 A1 0F 02 0B 00 1D 80  .+.@............
0F70: 80 7D 0F 2B 8C 40 0F 01  A4 80 01 A1 0F 02 0B 00  .}.+.@..........
0F80: 1F 80 80 8F 0F 2B 8C 40  0F 01 A5 80 01 A1 0F 02  .....+.@........
0F90: 0B 00 21 80 80 A1 0F 2B  8C 40 0F 01 A6 80 01 A1  ..!....+.@......
0FA0: 0F 1C 10 80 4A F0 FF FF  7F 8C 40 0F 01 6F 76 F0  ....J.....@..ov.
0FB0: FF FF 7F 23 66 33 80 8C  40 0F 01 8C 40 0F 01 74  ...#f3..@...@..t
0FC0: 6C 62 31 2B 8C 40 0F 01  A7 80 23 53 8C 40 0F 01  lb1+.@....#S.@..
0FD0: 8C 40 0F 01 74 6C 62 31  52 0A 80 F0 FF FF 7F F0  .@..tlb1R.......
0FE0: FF FF 7F 37 35 35 30 45  0A 80 F0 FF FF 7F F0 FF  ...7550E........
0FF0: FF 7F 37 35 35 31 07 80  66 40 80 8C 40 0F 01 8C  ..7551..f@..@...
1000: 40 0F 01 75 72 65 30 2B  8C 40 0F 01 A8 80 23 1A  @..ure0+.@....#.
1010: 46 41 1C 09 80 52 0A 80  F0 FF FF 7F F0 FF FF 7F  FA...R..........
1020: 37 35 35 31 45 0A 80 F0  FF FF 7F F0 FF FF 7F 30  7551E..........0
1030: 62 6C 66 07 80 5C 00 43  80 5C 01 43 80 9A 46 00  blf..\.C.\.C..F.
1040: 45 A9 80 F8 FF FF 7F F8  FF FF 7F 71 73 74 63 07  E..........qstc.
1050: 80 45 44 80 F0 FF FF 7F  F0 FF FF 7F 66 64 69 32  .ED.........fdi2
1060: 07 80 21 00                                       ..!.            
```

#### Opcodes

```
  0: 0x064E [0x42] SET_CLI_EVENT_CANCEL_DATA()
  1: 0x064F [0x1A] CALL_SUBROUTINE(address=0x4146)
  2: 0x0652 [0x46] CAMERA_CONTROL: Disable user control
  3: 0x0654 [0x38] SET_CLIENT_EVENT_MODE(mode=19*)
  4: 0x0657 [0x4E] SET_ENTITY_HIDE_FLAG: Show Unnamed NPC (ID: 17776783/0x010F408F)
  5: 0x065D [0x2F] Unnamed NPC (ID: 17776783/0x010F408F)->Render.Flags0 &= ~0x80000 // Bit 19
  6: 0x0663 [0x92] Luto Mewrilah (ID: 17776780/0x010F408C)->Render.Flags3 ^= 0x01
  7: 0x0669 [0x94] LocalPlayer->Render.Flags3 ^= 0x01
  8: 0x066F [0x94] Luto Mewrilah (ID: 17776780/0x010F408C)->Render.Flags3 ^= 0x01
  9: 0x0675 [0x94] Unnamed NPC (ID: 17776783/0x010F408F)->Render.Flags3 ^= 0x01
 10: 0x067B [0xBA] SET_ENTITY_POSITION(entity_id=LocalPlayer, pos_x=-53.785*, pos_z=44.766*, pos_y=-0.199*, direction=228.5°*)
 11: 0x0688 [0xBA] SET_ENTITY_POSITION(entity_id=Unnamed NPC (ID: 17776783/0x010F408F), pos_x=-53.484*, pos_z=46.491*, pos_y=-0.199*, direction=183.9°*)
 12: 0x0695 [0x79] LocalPlayer looks at Luto Mewrilah (ID: 17776780/0x010F408C) (Basic look)
 13: 0x069F [0x4A] Luto Mewrilah (ID: 17776780/0x010F408C) looks at LocalPlayer
 14: 0x06A8 [0x4A] Unnamed NPC (ID: 17776783/0x010F408F) looks at Luto Mewrilah (ID: 17776780/0x010F408C)
 15: 0x06B1 [0x29] REQ_SET_WAIT(priority=0x0A, entity_id=Unnamed NPC (ID: 17776783/0x010F408F), tag_num=0x11)
 16: 0x06B8 [0x80] LOAD_WAIT(entity=Unnamed NPC (ID: 17776783/0x010F408F))
 17: 0x06BD [0x80] LOAD_WAIT(entity=LocalPlayer)
 18: 0x06C2 [0x80] LOAD_WAIT(entity=Luto Mewrilah (ID: 17776780/0x010F408C))
 19: 0x06C7 [0x79] Luto Mewrilah (ID: 17776780/0x010F408C) looks at Unnamed NPC (ID: 17776783/0x010F408F) (Basic look)
 20: 0x06D1 [0x1C] WAIT(30* ticks)
 21: 0x06D4 [0x45] LOAD_SCHEDULED_TASK: Load scheduler "7540" with entities [LocalPlayer, LocalPlayer], work=[562*, 0*]
 22: 0x06E5 [0x1A] CALL_SUBROUTINE(address=0x4125)
 23: 0x06E8 [0x66] LOAD_EXT_SCHEDULER_MAIN: Load scheduler "tlk0" with entities [Luto Mewrilah (ID: 17776780/0x010F408C), Luto Mewrilah (ID: 17776780/0x010F408C)], work=50*
 24: 0x06F7 [0x1A] CALL_SUBROUTINE(address=0x57BF)
 25: 0x06FA [0x1A] CALL_SUBROUTINE(address=0x57C9)
 26: 0x06FD [0x03] Work_Zone[2] = ExtData[1]->WorkLocal[1]
 27: 0x0702 [0x02] IF !(ExtData[1]->WorkLocal[11] == 0*) GOTO 0x0715
 28: 0x070A [0x2B] Luto Mewrilah (ID: 17776780/0x010F408C) [12810*]:
    → "Why, [Feliz/Ferdinand/Gunnar/Massimo/Oldrich/Siegward/Theobald/Zenji], you're back. And walking with quite the sprrring in your step, I must say!"
 29: 0x0711 [0x23] WAIT_FOR_DIALOG_INTERACTION
 30: 0x0712 [0x01] GOTO 0x079A
 31: 0x0715 [0x02] IF !(ExtData[1]->WorkLocal[11] == 1*) GOTO 0x0728
 32: 0x071D [0x2B] Luto Mewrilah (ID: 17776780/0x010F408C) [12811*]:
    → "Why, [Amerita/Beatrice/Henrietta/Jesimae/Karyn/Nanako/Sharlene/Sieghilde], you're back. And walking with quite the sprrring in your step, I must say!"
 33: 0x0724 [0x23] WAIT_FOR_DIALOG_INTERACTION
 34: 0x0725 [0x01] GOTO 0x079A
 35: 0x0728 [0x02] IF !(ExtData[1]->WorkLocal[11] == 2*) GOTO 0x073B
 36: 0x0730 [0x2B] Luto Mewrilah (ID: 17776780/0x010F408C) [12812*]:
    → "Why, [Chanandit/Deulmaeux/Demresinaux/Ephealgaux/Gauldeval/Grauffemart/Migaifongut/Romidiant], you're back. And walking with quite the sprrring in your step, I must say!"
 37: 0x0737 [0x23] WAIT_FOR_DIALOG_INTERACTION
 38: 0x0738 [0x01] GOTO 0x079A
 39: 0x073B [0x02] IF !(ExtData[1]->WorkLocal[11] == 3*) GOTO 0x074E
 40: 0x0743 [0x2B] Luto Mewrilah (ID: 17776780/0x010F408C) [12813*]:
    → "Why, [Armittie/Cadepure/Clearite/Epilleve/Liabelle/Nauthima/Radille/Vimechue], you're back. And walking with quite the sprrring in your step, I must say!"
 41: 0x074A [0x23] WAIT_FOR_DIALOG_INTERACTION
 42: 0x074B [0x01] GOTO 0x079A
 43: 0x074E [0x02] IF !(ExtData[1]->WorkLocal[11] == 4*) GOTO 0x0761
 44: 0x0756 [0x2B] Luto Mewrilah (ID: 17776780/0x010F408C) [12814*]:
    → "Why, [Balu-Falu/Burg-Ladarg/Ehgo-Ryuhgo/Kolui-Pelui/Nokum-Akkum/Savul-Kivul/Vinja-Kanja/Yarga-Umiga], you're back. And walking with quite the sprrring in your step, I must say!"
 45: 0x075D [0x23] WAIT_FOR_DIALOG_INTERACTION
 46: 0x075E [0x01] GOTO 0x079A
 47: 0x0761 [0x02] IF !(ExtData[1]->WorkLocal[11] == 5*) GOTO 0x0774
 48: 0x0769 [0x2B] Luto Mewrilah (ID: 17776780/0x010F408C) [12815*]:
    → "Why, [Cupapa/Jajuju/Kalokoko/Mahoyaya/Pakurara/Ripokeke/Yawawa/Yufafa], you're back. And walking with quite the sprrring in your step, I must say!"
 49: 0x0770 [0x23] WAIT_FOR_DIALOG_INTERACTION
 50: 0x0771 [0x01] GOTO 0x079A
 51: 0x0774 [0x02] IF !(ExtData[1]->WorkLocal[11] == 6*) GOTO 0x0787
 52: 0x077C [0x2B] Luto Mewrilah (ID: 17776780/0x010F408C) [12816*]:
    → "Why, [Fhig Lahrv/Khuma Tagyawhan/Pimy Kettihl/Raka Maimhov/Sahyu Banjyao/Sufhi Uchnouma/Tsuim Nhomango/Yoli Kohlpaka], you're back. And walking with quite the sprrring in your step, I must say!"
 53: 0x0783 [0x23] WAIT_FOR_DIALOG_INTERACTION
 54: 0x0784 [0x01] GOTO 0x079A
 55: 0x0787 [0x02] IF !(ExtData[1]->WorkLocal[11] == 7*) GOTO 0x079A
 56: 0x078F [0x2B] Luto Mewrilah (ID: 17776780/0x010F408C) [12817*]:
    → "Why, [Durib/Dzapiwa/Jugowa/Mugido/Voldai/Wagwei/Zayag/Zoldof], you're back. And walking with quite the sprrring in your step, I must say!"
 57: 0x0796 [0x23] WAIT_FOR_DIALOG_INTERACTION
 58: 0x0797 [0x01] GOTO 0x079A

SUBROUTINE_079A:
 59: 0x079A [0x79] LocalPlayer looks at Unnamed NPC (ID: 17776783/0x010F408F) (Basic look)
 60: 0x07A4 [0x66] LOAD_EXT_SCHEDULER_MAIN: Load scheduler "tlk2" with entities [Luto Mewrilah (ID: 17776780/0x010F408C), Luto Mewrilah (ID: 17776780/0x010F408C)], work=50*
 61: 0x07B3 [0x1C] WAIT(30* ticks)
 62: 0x07B6 [0x6E] Unnamed NPC (ID: 17776783/0x010F408F) uses emote 6*
 63: 0x07BD [0x99] Wait for Unnamed NPC (ID: 17776783/0x010F408F) animation to complete
 64: 0x07C2 [0x1A] CALL_SUBROUTINE(address=0x58AA)
 65: 0x07C5 [0x02] IF !(ExtData[1]->WorkLocal[8] == 1*) GOTO 0x07D8
 66: 0x07CD [0x2B] Unnamed NPC (ID: 17776783/0x010F408F) [12818*]:
    → "Why, perhaps I am. And it's thanks to you and <Player> here."
 67: 0x07D4 [0x23] WAIT_FOR_DIALOG_INTERACTION
 68: 0x07D5 [0x01] GOTO 0x08A9
 69: 0x07D8 [0x02] IF !(ExtData[1]->WorkLocal[8] == 2*) GOTO 0x07EB
 70: 0x07E0 [0x2B] Unnamed NPC (ID: 17776783/0x010F408F) [12819*]:
    → "Bwahaha! So you've noticed? And I've got you and <Player> here to thank for it all!"
 71: 0x07E7 [0x23] WAIT_FOR_DIALOG_INTERACTION
 72: 0x07E8 [0x01] GOTO 0x08A9
 73: 0x07EB [0x02] IF !(ExtData[1]->WorkLocal[8] == 3*) GOTO 0x07FE
 74: 0x07F3 [0x2B] Unnamed NPC (ID: 17776783/0x010F408F) [12820*]:
    → "Is that so? I don't believe my appearance has changed much. Still, I do owe you and <Player> a debt of gratitude."
 75: 0x07FA [0x23] WAIT_FOR_DIALOG_INTERACTION
 76: 0x07FB [0x01] GOTO 0x08A9
 77: 0x07FE [0x02] IF !(ExtData[1]->WorkLocal[8] == 4*) GOTO 0x0811
 78: 0x0806 [0x2B] Unnamed NPC (ID: 17776783/0x010F408F) [12821*]:
    → "I thank you, Luto. It's because of you and <Player> that I stand before you as I do."
 79: 0x080D [0x23] WAIT_FOR_DIALOG_INTERACTION
 80: 0x080E [0x01] GOTO 0x08A9
 81: 0x0811 [0x02] IF !(ExtData[1]->WorkLocal[8] == 5*) GOTO 0x0824
 82: 0x0819 [0x2B] Unnamed NPC (ID: 17776783/0x010F408F) [12824*]:
    → "Do I truly? If so, I have you and <Player> here to thank."
 83: 0x0820 [0x23] WAIT_FOR_DIALOG_INTERACTION
 84: 0x0821 [0x01] GOTO 0x08A9
 85: 0x0824 [0x02] IF !(ExtData[1]->WorkLocal[8] == 6*) GOTO 0x0837
 86: 0x082C [0x2B] Unnamed NPC (ID: 17776783/0x010F408F) [12825*]:
    → "You bet I do! And it's all 'cause of you and <Player> here."
 87: 0x0833 [0x23] WAIT_FOR_DIALOG_INTERACTION
 88: 0x0834 [0x01] GOTO 0x08A9
 89: 0x0837 [0x02] IF !(ExtData[1]->WorkLocal[8] == 7*) GOTO 0x084A
 90: 0x083F [0x2B] Unnamed NPC (ID: 17776783/0x010F408F) [12826*]:
    → "It's kind of you to notice. Truly, I owe it all to you and <Player> here."
 91: 0x0846 [0x23] WAIT_FOR_DIALOG_INTERACTION
 92: 0x0847 [0x01] GOTO 0x08A9
 93: 0x084A [0x02] IF !(ExtData[1]->WorkLocal[8] == 8*) GOTO 0x085D
 94: 0x0852 [0x2B] Unnamed NPC (ID: 17776783/0x010F408F) [12827*]:
    → "Awww, Luto, you're making me blush. You and <Player> here really are the bestest!"
 95: 0x0859 [0x23] WAIT_FOR_DIALOG_INTERACTION
 96: 0x085A [0x01] GOTO 0x08A9
 97: 0x085D [0x02] IF !(ExtData[1]->WorkLocal[8] == 9*) GOTO 0x0870
 98: 0x0865 [0x2B] Unnamed NPC (ID: 17776783/0x010F408F) [12828*]:
    → "Thank you, Luto. I am filled with confidence as I have never known, and I owe it all to you and <Player> here."
 99: 0x086C [0x23] WAIT_FOR_DIALOG_INTERACTION
100: 0x086D [0x01] GOTO 0x08A9
101: 0x0870 [0x02] IF !(ExtData[1]->WorkLocal[8] == 10*) GOTO 0x0883
102: 0x0878 [0x2B] Unnamed NPC (ID: 17776783/0x010F408F) [12822*]:
    → "Aw gee, Luto, you're making me blush. I feel great, and it's thanks to swell friends like you and <Player> here."
103: 0x087F [0x23] WAIT_FOR_DIALOG_INTERACTION
104: 0x0880 [0x01] GOTO 0x08A9
105: 0x0883 [0x02] IF !(ExtData[1]->WorkLocal[8] == 11*) GOTO 0x0896
106: 0x088B [0x2B] Unnamed NPC (ID: 17776783/0x010F408F) [12823*]:
    → "Ever the sharp eye, my dear Luto! I'm a new man, and it's thanks to you and <Player> here."
107: 0x0892 [0x23] WAIT_FOR_DIALOG_INTERACTION
108: 0x0893 [0x01] GOTO 0x08A9
109: 0x0896 [0x02] IF !(ExtData[1]->WorkLocal[8] == 12*) GOTO 0x08A9
110: 0x089E [0x2B] Unnamed NPC (ID: 17776783/0x010F408F) [12829*]:
    → "Ohoho...why yes, you could say that. It seems I owe the two of you a debt of gratitude."
111: 0x08A5 [0x23] WAIT_FOR_DIALOG_INTERACTION
112: 0x08A6 [0x01] GOTO 0x08A9

SUBROUTINE_08A9:
113: 0x08A9 [0x52] END_LOAD_SCHEDULER: End scheduler "7540" with entities [LocalPlayer, LocalPlayer], work=562*
114: 0x08B8 [0x45] LOAD_SCHEDULED_TASK: Load scheduler "7541" with entities [LocalPlayer, LocalPlayer], work=[562*, 0*]
115: 0x08C9 [0x66] LOAD_EXT_SCHEDULER_MAIN: Load scheduler "wav0" with entities [Luto Mewrilah (ID: 17776780/0x010F408C), Luto Mewrilah (ID: 17776780/0x010F408C)], work=52*
116: 0x08D8 [0x2B] Luto Mewrilah (ID: 17776780/0x010F408C) [12830*]:
    → "Well, look who's all polite and proper now. Just the other day you were grrrumping and brooding like a Tonberry with a butter knife!"
117: 0x08DF [0x23] WAIT_FOR_DIALOG_INTERACTION
118: 0x08E0 [0x52] END_LOAD_SCHEDULER: End scheduler "7541" with entities [LocalPlayer, LocalPlayer], work=562*
119: 0x08EF [0x02] IF !(ExtData[1]->WorkLocal[11] == 4*) GOTO 0x090B
120: 0x08F7 [0x45] LOAD_SCHEDULED_TASK: Load scheduler "7543" with entities [LocalPlayer, LocalPlayer], work=[562*, 0*]
121: 0x0908 [0x01] GOTO 0x0938
122: 0x090B [0x02] IF !(ExtData[1]->WorkLocal[11] == 5*) GOTO 0x0927
123: 0x0913 [0x45] LOAD_SCHEDULED_TASK: Load scheduler "7543" with entities [LocalPlayer, LocalPlayer], work=[562*, 0*]
124: 0x0924 [0x01] GOTO 0x0938
125: 0x0927 [0x45] LOAD_SCHEDULED_TASK: Load scheduler "7542" with entities [LocalPlayer, LocalPlayer], work=[562*, 0*]

SUBROUTINE_0938:
126: 0x0938 [0x6E] Unnamed NPC (ID: 17776783/0x010F408F) uses emote 21*
127: 0x093F [0x99] Wait for Unnamed NPC (ID: 17776783/0x010F408F) animation to complete
128: 0x0944 [0x1C] WAIT(45* ticks)
129: 0x0947 [0x1A] CALL_SUBROUTINE(address=0x58AA)
130: 0x094A [0x02] IF !(ExtData[1]->WorkLocal[8] == 1*) GOTO 0x095D
131: 0x0952 [0x2B] Unnamed NPC (ID: 17776783/0x010F408F) [12831*]:
    → "Hmph..."
132: 0x0959 [0x23] WAIT_FOR_DIALOG_INTERACTION
133: 0x095A [0x01] GOTO 0x0A2E
134: 0x095D [0x02] IF !(ExtData[1]->WorkLocal[8] == 2*) GOTO 0x0970
135: 0x0965 [0x2B] Unnamed NPC (ID: 17776783/0x010F408F) [12832*]:
    → "You wound me, Luto! Why, I never..."
136: 0x096C [0x23] WAIT_FOR_DIALOG_INTERACTION
137: 0x096D [0x01] GOTO 0x0A2E
138: 0x0970 [0x02] IF !(ExtData[1]->WorkLocal[8] == 3*) GOTO 0x0983
139: 0x0978 [0x2B] Unnamed NPC (ID: 17776783/0x010F408F) [12833*]:
    → "<Ahem>... That sounds most unlike me. Perhaps you mistook me for another?"
140: 0x097F [0x23] WAIT_FOR_DIALOG_INTERACTION
141: 0x0980 [0x01] GOTO 0x0A2E
142: 0x0983 [0x02] IF !(ExtData[1]->WorkLocal[8] == 4*) GOTO 0x0996
143: 0x098B [0x2B] Unnamed NPC (ID: 17776783/0x010F408F) [12834*]:
    → "Luto... You promised not to speak of such things."
144: 0x0992 [0x23] WAIT_FOR_DIALOG_INTERACTION
145: 0x0993 [0x01] GOTO 0x0A2E
146: 0x0996 [0x02] IF !(ExtData[1]->WorkLocal[8] == 5*) GOTO 0x09A9
147: 0x099E [0x2B] Unnamed NPC (ID: 17776783/0x010F408F) [12837*]:
    → "N-nonsense! I would never, ever act in such a disgraceful manner!"
148: 0x09A5 [0x23] WAIT_FOR_DIALOG_INTERACTION
149: 0x09A6 [0x01] GOTO 0x0A2E
150: 0x09A9 [0x02] IF !(ExtData[1]->WorkLocal[8] == 6*) GOTO 0x09BC
151: 0x09B1 [0x2B] Unnamed NPC (ID: 17776783/0x010F408F) [12838*]:
    → "L-Luto! I thought we agreed not to talk about that in front of <Player> here!"
152: 0x09B8 [0x23] WAIT_FOR_DIALOG_INTERACTION
153: 0x09B9 [0x01] GOTO 0x0A2E
154: 0x09BC [0x02] IF !(ExtData[1]->WorkLocal[8] == 7*) GOTO 0x09CF
155: 0x09C4 [0x2B] Unnamed NPC (ID: 17776783/0x010F408F) [12839*]:
    → "Why, perhaps I did. Fortunately, that is all in the past now."
156: 0x09CB [0x23] WAIT_FOR_DIALOG_INTERACTION
157: 0x09CC [0x01] GOTO 0x0A2E
158: 0x09CF [0x02] IF !(ExtData[1]->WorkLocal[8] == 8*) GOTO 0x09E2
159: 0x09D7 [0x2B] Unnamed NPC (ID: 17776783/0x010F408F) [12840*]:
    → "Wh-why Luto, you meanie! You promised me you'd keep that a secret!"
160: 0x09DE [0x23] WAIT_FOR_DIALOG_INTERACTION
161: 0x09DF [0x01] GOTO 0x0A2E
162: 0x09E2 [0x02] IF !(ExtData[1]->WorkLocal[8] == 9*) GOTO 0x09F5
163: 0x09EA [0x2B] Unnamed NPC (ID: 17776783/0x010F408F) [12841*]:
    → "I will not deny it. Even I have my moments of weakness..."
164: 0x09F1 [0x23] WAIT_FOR_DIALOG_INTERACTION
165: 0x09F2 [0x01] GOTO 0x0A2E
166: 0x09F5 [0x02] IF !(ExtData[1]->WorkLocal[8] == 10*) GOTO 0x0A08
167: 0x09FD [0x2B] Unnamed NPC (ID: 17776783/0x010F408F) [12835*]:
    → "Aww, come on, Luto! Cut me some slack, will ya?"
168: 0x0A04 [0x23] WAIT_FOR_DIALOG_INTERACTION
169: 0x0A05 [0x01] GOTO 0x0A2E
170: 0x0A08 [0x02] IF !(ExtData[1]->WorkLocal[8] == 11*) GOTO 0x0A1B
171: 0x0A10 [0x2B] Unnamed NPC (ID: 17776783/0x010F408F) [12836*]:
    → "Ouch! That's a real dagger in the heart coming from you, Luto."
172: 0x0A17 [0x23] WAIT_FOR_DIALOG_INTERACTION
173: 0x0A18 [0x01] GOTO 0x0A2E
174: 0x0A1B [0x02] IF !(ExtData[1]->WorkLocal[8] == 12*) GOTO 0x0A2E
175: 0x0A23 [0x2B] Unnamed NPC (ID: 17776783/0x010F408F) [12842*]:
    → "Wh-why, I never! How dare you spout such utter falsehoods about me!"
176: 0x0A2A [0x23] WAIT_FOR_DIALOG_INTERACTION
177: 0x0A2B [0x01] GOTO 0x0A2E

SUBROUTINE_0A2E:
178: 0x0A2E [0x7B] Luto Mewrilah (ID: 17776780/0x010F408C) stops talking
179: 0x0A33 [0x66] LOAD_EXT_SCHEDULER_MAIN: Load scheduler "thk1" with entities [Luto Mewrilah (ID: 17776780/0x010F408C), Luto Mewrilah (ID: 17776780/0x010F408C)], work=50*
180: 0x0A42 [0x2B] Luto Mewrilah (ID: 17776780/0x010F408C) [12843*]:
    → "At any rate, you might be back in fighting trim again, but my business here isn't so lucky. It's going to take time to earn back our customers' trrrust after those antics you pulled."
181: 0x0A49 [0x23] WAIT_FOR_DIALOG_INTERACTION
182: 0x0A4A [0x6E] Unnamed NPC (ID: 17776783/0x010F408F) uses emote 35*
183: 0x0A51 [0x99] Wait for Unnamed NPC (ID: 17776783/0x010F408F) animation to complete
184: 0x0A56 [0x1A] CALL_SUBROUTINE(address=0x58AA)
185: 0x0A59 [0x02] IF !(ExtData[1]->WorkLocal[8] == 1*) GOTO 0x0A6C
186: 0x0A61 [0x2B] Unnamed NPC (ID: 17776783/0x010F408F) [12844*]:
    → "..."
187: 0x0A68 [0x23] WAIT_FOR_DIALOG_INTERACTION
188: 0x0A69 [0x01] GOTO 0x0B3D
189: 0x0A6C [0x02] IF !(ExtData[1]->WorkLocal[8] == 2*) GOTO 0x0A7F
190: 0x0A74 [0x2B] Unnamed NPC (ID: 17776783/0x010F408F) [12845*]:
    → "<G-gulp>... Forgive me!"
191: 0x0A7B [0x23] WAIT_FOR_DIALOG_INTERACTION
192: 0x0A7C [0x01] GOTO 0x0B3D
193: 0x0A7F [0x02] IF !(ExtData[1]->WorkLocal[8] == 3*) GOTO 0x0A92
194: 0x0A87 [0x2B] Unnamed NPC (ID: 17776783/0x010F408F) [12846*]:
    → "...Indeed. For this, I am sorry."
195: 0x0A8E [0x23] WAIT_FOR_DIALOG_INTERACTION
196: 0x0A8F [0x01] GOTO 0x0B3D
197: 0x0A92 [0x02] IF !(ExtData[1]->WorkLocal[8] == 4*) GOTO 0x0AA5
198: 0x0A9A [0x2B] Unnamed NPC (ID: 17776783/0x010F408F) [12847*]:
    → "...My apologies."
199: 0x0AA1 [0x23] WAIT_FOR_DIALOG_INTERACTION
200: 0x0AA2 [0x01] GOTO 0x0B3D
201: 0x0AA5 [0x02] IF !(ExtData[1]->WorkLocal[8] == 5*) GOTO 0x0AB8
202: 0x0AAD [0x2B] Unnamed NPC (ID: 17776783/0x010F408F) [12850*]:
    → "Forgive me."
203: 0x0AB4 [0x23] WAIT_FOR_DIALOG_INTERACTION
204: 0x0AB5 [0x01] GOTO 0x0B3D
205: 0x0AB8 [0x02] IF !(ExtData[1]->WorkLocal[8] == 6*) GOTO 0x0ACB
206: 0x0AC0 [0x2B] Unnamed NPC (ID: 17776783/0x010F408F) [12851*]:
    → "So sorry!"
207: 0x0AC7 [0x23] WAIT_FOR_DIALOG_INTERACTION
208: 0x0AC8 [0x01] GOTO 0x0B3D
209: 0x0ACB [0x02] IF !(ExtData[1]->WorkLocal[8] == 7*) GOTO 0x0ADE
210: 0x0AD3 [0x2B] Unnamed NPC (ID: 17776783/0x010F408F) [12852*]:
    → "My apologies. It will not happen again."
211: 0x0ADA [0x23] WAIT_FOR_DIALOG_INTERACTION
212: 0x0ADB [0x01] GOTO 0x0B3D
213: 0x0ADE [0x02] IF !(ExtData[1]->WorkLocal[8] == 8*) GOTO 0x0AF1
214: 0x0AE6 [0x2B] Unnamed NPC (ID: 17776783/0x010F408F) [12853*]:
    → "Aw, Luto, I'm sorry... I really am!"
215: 0x0AED [0x23] WAIT_FOR_DIALOG_INTERACTION
216: 0x0AEE [0x01] GOTO 0x0B3D
217: 0x0AF1 [0x02] IF !(ExtData[1]->WorkLocal[8] == 9*) GOTO 0x0B04
218: 0x0AF9 [0x2B] Unnamed NPC (ID: 17776783/0x010F408F) [12854*]:
    → "I am sorry."
219: 0x0B00 [0x23] WAIT_FOR_DIALOG_INTERACTION
220: 0x0B01 [0x01] GOTO 0x0B3D
221: 0x0B04 [0x02] IF !(ExtData[1]->WorkLocal[8] == 10*) GOTO 0x0B17
222: 0x0B0C [0x2B] Unnamed NPC (ID: 17776783/0x010F408F) [12848*]:
    → "I'm really really really sorry, Luto! Please forgive me! Please?"
223: 0x0B13 [0x23] WAIT_FOR_DIALOG_INTERACTION
224: 0x0B14 [0x01] GOTO 0x0B3D
225: 0x0B17 [0x02] IF !(ExtData[1]->WorkLocal[8] == 11*) GOTO 0x0B2A
226: 0x0B1F [0x2B] Unnamed NPC (ID: 17776783/0x010F408F) [12849*]:
    → "You really know how to twist that knife... My apologies, Luto."
227: 0x0B26 [0x23] WAIT_FOR_DIALOG_INTERACTION
228: 0x0B27 [0x01] GOTO 0x0B3D
229: 0x0B2A [0x02] IF !(ExtData[1]->WorkLocal[8] == 12*) GOTO 0x0B3D
230: 0x0B32 [0x2B] Unnamed NPC (ID: 17776783/0x010F408F) [12855*]:
    → "Luto...forgive me."
231: 0x0B39 [0x23] WAIT_FOR_DIALOG_INTERACTION
232: 0x0B3A [0x01] GOTO 0x0B3D

SUBROUTINE_0B3D:
233: 0x0B3D [0x52] END_LOAD_SCHEDULER: End scheduler "7542" with entities [LocalPlayer, LocalPlayer], work=562*
234: 0x0B4C [0x52] END_LOAD_SCHEDULER: End scheduler "7543" with entities [LocalPlayer, LocalPlayer], work=562*
235: 0x0B5B [0x45] LOAD_SCHEDULED_TASK: Load scheduler "7544" with entities [LocalPlayer, LocalPlayer], work=[562*, 0*]
236: 0x0B6C [0x66] LOAD_EXT_SCHEDULER_MAIN: Load scheduler "thk2" with entities [Luto Mewrilah (ID: 17776780/0x010F408C), Luto Mewrilah (ID: 17776780/0x010F408C)], work=50*
237: 0x0B7B [0x4A] Luto Mewrilah (ID: 17776780/0x010F408C) looks at Unnamed NPC (ID: 17776783/0x010F408F)
238: 0x0B84 [0x2B] Luto Mewrilah (ID: 17776780/0x010F408C) [12856*]:
    → "Apology accepted! I'm not going to let you start moping around again after all the trouble <Player> and I went through, believe you me!"
239: 0x0B8B [0x1C] WAIT(15* ticks)
240: 0x0B8E [0x79] LocalPlayer looks at Luto Mewrilah (ID: 17776780/0x010F408C) (Basic look)
241: 0x0B98 [0x23] WAIT_FOR_DIALOG_INTERACTION
242: 0x0B99 [0x53] WAIT_SCHEDULER_TASK: Wait for scheduler "thk2" with entities [Luto Mewrilah (ID: 17776780/0x010F408C), Luto Mewrilah (ID: 17776780/0x010F408C)]
243: 0x0BA6 [0x52] END_LOAD_SCHEDULER: End scheduler "7544" with entities [LocalPlayer, LocalPlayer], work=562*
244: 0x0BB5 [0x45] LOAD_SCHEDULED_TASK: Load scheduler "7545" with entities [LocalPlayer, LocalPlayer], work=[562*, 0*]
245: 0x0BC6 [0x66] LOAD_EXT_SCHEDULER_MAIN: Load scheduler "tlb0" with entities [Luto Mewrilah (ID: 17776780/0x010F408C), Luto Mewrilah (ID: 17776780/0x010F408C)], work=68*
246: 0x0BD5 [0x2B] Luto Mewrilah (ID: 17776780/0x010F408C) [12857*]:
    → "Forrrgive and forget, that's my motto! Besides, once our clients catch sight of the new you, it's only a matter of time before work starts piling in again."
247: 0x0BDC [0x23] WAIT_FOR_DIALOG_INTERACTION
248: 0x0BDD [0x2B] Luto Mewrilah (ID: 17776780/0x010F408C) [12858*]:
    → "I'll keep an eye out for leads here, so in the meantime, why don't you guys get out there and show the world what you can do? I reckon that's the best forrrm of advertising."
249: 0x0BE4 [0x23] WAIT_FOR_DIALOG_INTERACTION
250: 0x0BE5 [0x52] END_LOAD_SCHEDULER: End scheduler "7545" with entities [LocalPlayer, LocalPlayer], work=562*
251: 0x0BF4 [0x45] LOAD_SCHEDULED_TASK: Load scheduler "7546" with entities [LocalPlayer, LocalPlayer], work=[562*, 0*]
252: 0x0C05 [0x66] LOAD_EXT_SCHEDULER_MAIN: Load scheduler "tlb1" with entities [Luto Mewrilah (ID: 17776780/0x010F408C), Luto Mewrilah (ID: 17776780/0x010F408C)], work=68*
253: 0x0C14 [0x1C] WAIT(30* ticks)
254: 0x0C17 [0x2B] Luto Mewrilah (ID: 17776780/0x010F408C) [12859*]:
    → "And besides, you're adventurers, aren't ya? Just think of all the challenges waiting for you!"
255: 0x0C1E [0x23] WAIT_FOR_DIALOG_INTERACTION
256: 0x0C1F [0x27] REQ_SET(priority=0x10, entity_id=Unnamed NPC (ID: 17776783/0x010F408F), tag_num=0x6F)
257: 0x0C26 [0x1A] CALL_SUBROUTINE(address=0x58AA)
258: 0x0C29 [0x02] IF !(ExtData[1]->WorkLocal[8] == 1*) GOTO 0x0C3C
259: 0x0C31 [0x2B] Unnamed NPC (ID: 17776783/0x010F408F) [12860*]:
    → "Hm. I suppose you're right."
260: 0x0C38 [0x23] WAIT_FOR_DIALOG_INTERACTION
261: 0x0C39 [0x01] GOTO 0x0D0D
262: 0x0C3C [0x02] IF !(ExtData[1]->WorkLocal[8] == 2*) GOTO 0x0C4F
263: 0x0C44 [0x2B] Unnamed NPC (ID: 17776783/0x010F408F) [12861*]:
    → "Yes... Yes, of course! I've never been one to back down from a challenge, and I won't start now!"
264: 0x0C4B [0x23] WAIT_FOR_DIALOG_INTERACTION
265: 0x0C4C [0x01] GOTO 0x0D0D
266: 0x0C4F [0x02] IF !(ExtData[1]->WorkLocal[8] == 3*) GOTO 0x0C62
267: 0x0C57 [0x2B] Unnamed NPC (ID: 17776783/0x010F408F) [12862*]:
    → "Apt advice, Luto. Yes, I will do as you say."
268: 0x0C5E [0x23] WAIT_FOR_DIALOG_INTERACTION
269: 0x0C5F [0x01] GOTO 0x0D0D
270: 0x0C62 [0x02] IF !(ExtData[1]->WorkLocal[8] == 4*) GOTO 0x0C75
271: 0x0C6A [0x2B] Unnamed NPC (ID: 17776783/0x010F408F) [12863*]:
    → "Understood. I will do everything in my power to regain the trust that I have lost."
272: 0x0C71 [0x23] WAIT_FOR_DIALOG_INTERACTION
273: 0x0C72 [0x01] GOTO 0x0D0D
274: 0x0C75 [0x02] IF !(ExtData[1]->WorkLocal[8] == 5*) GOTO 0x0C88
275: 0x0C7D [0x2B] Unnamed NPC (ID: 17776783/0x010F408F) [12866*]:
    → "Why, yes. There is truth in what you say. I shall give it my best."
276: 0x0C84 [0x23] WAIT_FOR_DIALOG_INTERACTION
277: 0x0C85 [0x01] GOTO 0x0D0D
278: 0x0C88 [0x02] IF !(ExtData[1]->WorkLocal[8] == 6*) GOTO 0x0C9B
279: 0x0C90 [0x2B] Unnamed NPC (ID: 17776783/0x010F408F) [12867*]:
    → "Leave it to me, Luto! When your clients catch a glimpse of my new skills, you'll have to fight them away!"
280: 0x0C97 [0x23] WAIT_FOR_DIALOG_INTERACTION
281: 0x0C98 [0x01] GOTO 0x0D0D
282: 0x0C9B [0x02] IF !(ExtData[1]->WorkLocal[8] == 7*) GOTO 0x0CAE
283: 0x0CA3 [0x2B] Unnamed NPC (ID: 17776783/0x010F408F) [12868*]:
    → "I thank you, Luto. Your positive attitude is as inspiring as ever."
284: 0x0CAA [0x23] WAIT_FOR_DIALOG_INTERACTION
285: 0x0CAB [0x01] GOTO 0x0D0D
286: 0x0CAE [0x02] IF !(ExtData[1]->WorkLocal[8] == 8*) GOTO 0x0CC1
287: 0x0CB6 [0x2B] Unnamed NPC (ID: 17776783/0x010F408F) [12869*]:
    → "You just watch me, Luto! I'll make it up to ya a hundred times over!"
288: 0x0CBD [0x23] WAIT_FOR_DIALOG_INTERACTION
289: 0x0CBE [0x01] GOTO 0x0D0D
290: 0x0CC1 [0x02] IF !(ExtData[1]->WorkLocal[8] == 9*) GOTO 0x0CD4
291: 0x0CC9 [0x2B] Unnamed NPC (ID: 17776783/0x010F408F) [12870*]:
    → "Luto...I have no words to express my gratitude. Yes, I shall do as you say."
292: 0x0CD0 [0x23] WAIT_FOR_DIALOG_INTERACTION
293: 0x0CD1 [0x01] GOTO 0x0D0D
294: 0x0CD4 [0x02] IF !(ExtData[1]->WorkLocal[8] == 10*) GOTO 0x0CE7
295: 0x0CDC [0x2B] Unnamed NPC (ID: 17776783/0x010F408F) [12864*]:
    → "All right! Just you watch, Luto. I'll make it up to ya!"
296: 0x0CE3 [0x23] WAIT_FOR_DIALOG_INTERACTION
