# 17776867 - Goblin Repossessor

## Common Data

| Field            | Value                 |
|------------------|-----------------------|
| Zone             | Upper Jeuno (ID: 244) |
| Block Size       | 972 bytes             |
| Total Events     | 45                    |
| References Count | 35                    |

## List of Events

| Event ID                   | Entrypoint   |   Size |   Instructions |
|----------------------------|--------------|--------|----------------|
| [65535](#event-65535)      | 0x0000       |      1 |              1 |
| [65535.1](#event-655351)   | 0x0001       |     15 |              4 |
| [65535.2](#event-655352)   | 0x0010       |     10 |              2 |
| [65535.3](#event-655353)   | 0x001A       |     10 |              2 |
| [65535.4](#event-655354)   | 0x0024       |      5 |              2 |
| [10180](#event-10180)      | 0x0029       |      1 |              1 |
| [65535.5](#event-655355)   | 0x002A       |     18 |              2 |
| [10181](#event-10181)      | 0x003C       |      1 |              1 |
| [65535.6](#event-655356)   | 0x003D       |     32 |              5 |
| [10182](#event-10182)      | 0x005D       |      1 |              1 |
| [65535.7](#event-655357)   | 0x005E       |     13 |              3 |
| [65535.8](#event-655358)   | 0x006B       |     12 |              2 |
| [65535.9](#event-655359)   | 0x0077       |      8 |              3 |
| [65535.10](#event-6553510) | 0x007F       |     18 |              3 |
| [65535.11](#event-6553511) | 0x0091       |     16 |              2 |
| [65535.12](#event-6553512) | 0x00A1       |     16 |              2 |
| [65535.13](#event-6553513) | 0x00B1       |     16 |              2 |
| [65535.14](#event-6553514) | 0x00C1       |     16 |              2 |
| [10184](#event-10184)      | 0x00D1       |      1 |              1 |
| [65535.15](#event-6553515) | 0x00D2       |      8 |              3 |
| [65535.16](#event-6553516) | 0x00DA       |     27 |              7 |
| [65535.17](#event-6553517) | 0x00F5       |     15 |              5 |
| [65535.18](#event-6553518) | 0x0104       |     19 |              3 |
| [65535.19](#event-6553519) | 0x0117       |     19 |              3 |
| [65535.20](#event-6553520) | 0x012A       |     16 |              2 |
| [65535.21](#event-6553521) | 0x013A       |     16 |              2 |
| [65535.22](#event-6553522) | 0x014A       |     19 |              3 |
| [65535.23](#event-6553523) | 0x015D       |     19 |              3 |
| [65535.24](#event-6553524) | 0x0170       |     16 |              2 |
| [65535.25](#event-6553525) | 0x0180       |     19 |              3 |
| [65535.26](#event-6553526) | 0x0193       |     19 |              3 |
| [65535.27](#event-6553527) | 0x01A6       |     19 |              3 |
| [65535.28](#event-6553528) | 0x01B9       |     19 |              3 |
| [65535.29](#event-6553529) | 0x01CC       |     16 |              2 |
| [65535.30](#event-6553530) | 0x01DC       |     16 |              2 |
| [65535.31](#event-6553531) | 0x01EC       |     16 |              2 |
| [65535.32](#event-6553532) | 0x01FC       |     16 |              2 |
| [65535.33](#event-6553533) | 0x020C       |     16 |              2 |
| [65535.34](#event-6553534) | 0x021C       |     16 |              2 |
| [65535.35](#event-6553535) | 0x022C       |     16 |              2 |
| [65535.36](#event-6553536) | 0x023C       |     16 |              2 |
| [65535.37](#event-6553537) | 0x024C       |     16 |              2 |
| [65535.38](#event-6553538) | 0x025C       |     16 |              2 |
| [10185](#event-10185)      | 0x026C       |      1 |              1 |
| [65535.39](#event-6553539) | 0x026D       |     14 |              4 |

## DAT References (imed_data)

|   Index | Hex Value   |   Dec Value |
|---------|-------------|-------------|
|       0 | 0x0080      |         128 |
|       1 | 0x0000      |           0 |
|       2 | 0x0034      |          52 |
|       3 | 0x007C      |         124 |
|       4 | 0x0001      |           1 |
|       5 | 0x00B4      |         180 |
|       6 | 0x0084      |         132 |
|       7 | 0x010A      |         266 |
|       8 | 0x093C      |        2364 |
|       9 | 0x0A50      |        2640 |
|      10 | 0x01F9      |         505 |
|      11 | 0x000E      |          14 |
|      12 | 0xFFFEB035  |  4294881333 |
|      13 | 0x12F92     |       77714 |
|      14 | 0xFFFFFB50  |  4294966096 |
|      15 | 0x000F      |          15 |
|      16 | 0xFFFEB52C  |  4294882604 |
|      17 | 0x11C64     |       72804 |
|      18 | 0x0A54      |        2644 |
|      19 | 0x00AB      |         171 |
|      20 | 0x00F5      |         245 |
|      21 | 0x00D7      |         215 |
|      22 | 0x0866      |        2150 |
|      23 | 0x00BC      |         188 |
|      24 | 0x004A      |          74 |
|      25 | 0x00E0      |         224 |
|      26 | 0x0028      |          40 |
|      27 | 0x0050      |          80 |
|      28 | 0x001E      |          30 |
|      29 | 0x00D8      |         216 |
|      30 | 0x00DA      |         218 |
|      31 | 0x0004      |           4 |
|      32 | 0xFFFEC099  |  4294885529 |
|      33 | 0x10DD0     |       69072 |
|      34 | 0xFFFFF704  |  4294964996 |

## Events

### Event 65535

#### Metadata

| Field        | Value   |
|--------------|---------|
| Entrypoint   | 0x0000  |
| Data Size    | 1 bytes |
| Instructions | 1       |

```
      00 01 02 03 04 05 06 07  08 09 0A 0B 0C 0D 0E 0F
      -- -- -- -- -- -- -- --  -- -- -- -- -- -- -- --
0000: 00                                                .               
```

#### Opcodes

```
  0: 0x0000 [0x00] END_REQSTACK()
```

### Event 65535.1

#### Metadata

| Field        | Value    |
|--------------|----------|
| Entrypoint   | 0x0001   |
| Data Size    | 15 bytes |
| Instructions | 4        |

```
      00 01 02 03 04 05 06 07  08 09 0A 0B 0C 0D 0E 0F
      -- -- -- -- -- -- -- --  -- -- -- -- -- -- -- --
0000:    22 00 92 01 F8 FF FF  7F 94 01 F8 FF FF 7F 00   "..............
```

#### Opcodes

```
  0: 0x0001 [0x22] ENTITY_HIDE_FLAG(enabled=0x00)
  1: 0x0003 [0x92] EventEntity->Render.Flags3 ^= 0x01
  2: 0x0009 [0x94] EventEntity->Render.Flags3 ^= 0x01
  3: 0x000F [0x00] END_REQSTACK()
```

### Event 65535.2

#### Metadata

| Field        | Value    |
|--------------|----------|
| Entrypoint   | 0x0010   |
| Data Size    | 10 bytes |
| Instructions | 2        |

```
      00 01 02 03 04 05 06 07  08 09 0A 0B 0C 0D 0E 0F
      -- -- -- -- -- -- -- --  -- -- -- -- -- -- -- --
0010: 6C F8 FF FF 7F 00 80 01  80 00                    l.........      
```

#### Opcodes

```
  0: 0x0010 [0x6C] FADE_ENTITY_COLOR(entity_id=EventEntity, end_alpha=128*, fade_time=0*)
  1: 0x0019 [0x00] END_REQSTACK()
```

### Event 65535.3

#### Metadata

| Field        | Value    |
|--------------|----------|
| Entrypoint   | 0x001A   |
| Data Size    | 10 bytes |
| Instructions | 2        |

```
      00 01 02 03 04 05 06 07  08 09 0A 0B 0C 0D 0E 0F
      -- -- -- -- -- -- -- --  -- -- -- -- -- -- -- --
0010:                                6C F8 FF FF 7F 01            l.....
0020: 80 01 80 00                                       ....            
```

#### Opcodes

```
  0: 0x001A [0x6C] FADE_ENTITY_COLOR(entity_id=EventEntity, end_alpha=0*, fade_time=0*)
  1: 0x0023 [0x00] END_REQSTACK()
```

### Event 65535.4

#### Metadata

| Field        | Value   |
|--------------|---------|
| Entrypoint   | 0x0024  |
| Data Size    | 5 bytes |
| Instructions | 2       |

```
      00 01 02 03 04 05 06 07  08 09 0A 0B 0C 0D 0E 0F
      -- -- -- -- -- -- -- --  -- -- -- -- -- -- -- --
0020:             B6 00 02 80  00                           .....       
```

#### Opcodes

```
  0: 0x0024 [0xB6] ENTITY_APPEARANCE_HANDLER(case=Hair style, value=52*)
  1: 0x0028 [0x00] END_REQSTACK()
```

### Event 10180

#### Metadata

| Field        | Value   |
|--------------|---------|
| Entrypoint   | 0x0029  |
| Data Size    | 1 bytes |
| Instructions | 1       |

```
      00 01 02 03 04 05 06 07  08 09 0A 0B 0C 0D 0E 0F
      -- -- -- -- -- -- -- --  -- -- -- -- -- -- -- --
0020:                             00                             .      
```

#### Opcodes

```
  0: 0x0029 [0x00] END_REQSTACK()
```

### Event 65535.5

#### Metadata

| Field        | Value    |
|--------------|----------|
| Entrypoint   | 0x002A   |
| Data Size    | 18 bytes |
| Instructions | 2        |

```
      00 01 02 03 04 05 06 07  08 09 0A 0B 0C 0D 0E 0F
      -- -- -- -- -- -- -- --  -- -- -- -- -- -- -- --
0020:                                C5 03 80 F8 FF FF            ......
0030: 7F F8 FF FF 7F 6D 61 69  6E 01 80 00              .....main...    
```

#### Opcodes

```
  0: 0x002A [0xC5] LOAD_SCHEDULED_TASK_ALT3: Load scheduler 0x80016E69 for entities [EventEntity, EventEntity], work=124*, param=24941
  1: 0x003B [0x00] END_REQSTACK()
```

### Event 10181

#### Metadata

| Field        | Value   |
|--------------|---------|
| Entrypoint   | 0x003C  |
| Data Size    | 1 bytes |
| Instructions | 1       |

```
      00 01 02 03 04 05 06 07  08 09 0A 0B 0C 0D 0E 0F
      -- -- -- -- -- -- -- --  -- -- -- -- -- -- -- --
0030:                                      00                       .   
```

#### Opcodes

```
  0: 0x003C [0x00] END_REQSTACK()
```

### Event 65535.6

#### Metadata

| Field        | Value    |
|--------------|----------|
| Entrypoint   | 0x003D   |
| Data Size    | 32 bytes |
| Instructions | 5        |

```
      00 01 02 03 04 05 06 07  08 09 0A 0B 0C 0D 0E 0F
      -- -- -- -- -- -- -- --  -- -- -- -- -- -- -- --
0030:                                         02 04 80               ...
0040: 04 80 00 5C 00 1C 05 80  C5 06 80 F8 FF FF 7F F8  ...\............
0050: FF FF 7F 73 30 30 33 01  80 01 3D 00 00           ...s003...=..   
```

#### Opcodes

```
  0: 0x003D [0x02] IF !(1* == 1*) GOTO 0x005C
  1: 0x0045 [0x1C] WAIT(180* ticks)
  2: 0x0048 [0xC5] LOAD_SCHEDULED_TASK_ALT3: Load scheduler 0x80013330 for entities [EventEntity, EventEntity], work=132*, param=12403
  3: 0x0059 [0x01] GOTO 0x003D
  4: 0x005C [0x00] END_REQSTACK()
```

### Event 10182

#### Metadata

| Field        | Value   |
|--------------|---------|
| Entrypoint   | 0x005D  |
| Data Size    | 1 bytes |
| Instructions | 1       |

```
      00 01 02 03 04 05 06 07  08 09 0A 0B 0C 0D 0E 0F
      -- -- -- -- -- -- -- --  -- -- -- -- -- -- -- --
0050:                                         00                     .  
```

#### Opcodes

```
  0: 0x005D [0x00] END_REQSTACK()
```

### Event 65535.7

#### Metadata

| Field        | Value    |
|--------------|----------|
| Entrypoint   | 0x005E   |
| Data Size    | 13 bytes |
| Instructions | 3        |

```
      00 01 02 03 04 05 06 07  08 09 0A 0B 0C 0D 0E 0F
      -- -- -- -- -- -- -- --  -- -- -- -- -- -- -- --
0050:                                            1C 05                ..
0060: 80 6C F8 FF FF 7F 00 80  01 80 00                 .l.........     
```

#### Opcodes

```
  0: 0x005E [0x1C] WAIT(180* ticks)
  1: 0x0061 [0x6C] FADE_ENTITY_COLOR(entity_id=EventEntity, end_alpha=128*, fade_time=0*)
  2: 0x006A [0x00] END_REQSTACK()
```

### Event 65535.8

#### Metadata

| Field        | Value    |
|--------------|----------|
| Entrypoint   | 0x006B   |
| Data Size    | 12 bytes |
| Instructions | 2        |

```
      00 01 02 03 04 05 06 07  08 09 0A 0B 0C 0D 0E 0F
      -- -- -- -- -- -- -- --  -- -- -- -- -- -- -- --
0060:                                   73 07 80 F8 FF             s....
0070: FF 7F E1 40 0F 01 00                              ...@...         
```

#### Opcodes

```
  0: 0x006B [0x73] EventEntity casts magic 266* on Shantotto (ID: 17776865/0x010F40E1)
  1: 0x0076 [0x00] END_REQSTACK()
```

### Event 65535.9

#### Metadata

| Field        | Value   |
|--------------|---------|
| Entrypoint   | 0x0077  |
| Data Size    | 8 bytes |
| Instructions | 3       |

```
      00 01 02 03 04 05 06 07  08 09 0A 0B 0C 0D 0E 0F
      -- -- -- -- -- -- -- --  -- -- -- -- -- -- -- --
0070:                      B6  00 08 80 C0 04 80 00            ........ 
```

#### Opcodes

```
  0: 0x0077 [0xB6] ENTITY_APPEARANCE_HANDLER(case=Hair style, value=2364*)
  1: 0x007B [0xC0] EventEntity->Render.Flags3 |= 0x1000 // Set bit 12 (from 1*)
  2: 0x007E [0x00] END_REQSTACK()
```

### Event 65535.10

#### Metadata

| Field        | Value    |
|--------------|----------|
| Entrypoint   | 0x007F   |
| Data Size    | 18 bytes |
| Instructions | 3        |

```
      00 01 02 03 04 05 06 07  08 09 0A 0B 0C 0D 0E 0F
      -- -- -- -- -- -- -- --  -- -- -- -- -- -- -- --
0070:                                               22                 "
0080: 00 5B 09 80 F8 FF FF 7F  F8 FF FF 7F 62 6B 61 30  .[..........bka0
0090: 00                                                .               
```

#### Opcodes

```
  0: 0x007F [0x22] ENTITY_HIDE_FLAG(enabled=0x00)
  1: 0x0081 [0x5B] LOAD_EXT_SCHEDULER: Load scheduler "bka0" with entities [EventEntity, EventEntity], work=2640*
  2: 0x0090 [0x00] END_REQSTACK()
```

### Event 65535.11

#### Metadata

| Field        | Value    |
|--------------|----------|
| Entrypoint   | 0x0091   |
| Data Size    | 16 bytes |
| Instructions | 2        |

```
      00 01 02 03 04 05 06 07  08 09 0A 0B 0C 0D 0E 0F
      -- -- -- -- -- -- -- --  -- -- -- -- -- -- -- --
0090:    5B 09 80 F8 FF FF 7F  F8 FF FF 7F 62 6B 61 6C   [..........bkal
00A0: 00                                                .               
```

#### Opcodes

```
  0: 0x0091 [0x5B] LOAD_EXT_SCHEDULER: Load scheduler "bkal" with entities [EventEntity, EventEntity], work=2640*
  1: 0x00A0 [0x00] END_REQSTACK()
```

### Event 65535.12

#### Metadata

| Field        | Value    |
|--------------|----------|
| Entrypoint   | 0x00A1   |
| Data Size    | 16 bytes |
| Instructions | 2        |

```
      00 01 02 03 04 05 06 07  08 09 0A 0B 0C 0D 0E 0F
      -- -- -- -- -- -- -- --  -- -- -- -- -- -- -- --
00A0:    5B 09 80 F8 FF FF 7F  F8 FF FF 7F 62 6B 61 31   [..........bka1
00B0: 00                                                .               
```

#### Opcodes

```
  0: 0x00A1 [0x5B] LOAD_EXT_SCHEDULER: Load scheduler "bka1" with entities [EventEntity, EventEntity], work=2640*
  1: 0x00B0 [0x00] END_REQSTACK()
```

### Event 65535.13

#### Metadata

| Field        | Value    |
|--------------|----------|
| Entrypoint   | 0x00B1   |
| Data Size    | 16 bytes |
| Instructions | 2        |

```
      00 01 02 03 04 05 06 07  08 09 0A 0B 0C 0D 0E 0F
      -- -- -- -- -- -- -- --  -- -- -- -- -- -- -- --
00B0:    5B 09 80 F8 FF FF 7F  F8 FF FF 7F 62 6B 6C 30   [..........bkl0
00C0: 00                                                .               
```

#### Opcodes

```
  0: 0x00B1 [0x5B] LOAD_EXT_SCHEDULER: Load scheduler "bkl0" with entities [EventEntity, EventEntity], work=2640*
  1: 0x00C0 [0x00] END_REQSTACK()
```

### Event 65535.14

#### Metadata

| Field        | Value    |
|--------------|----------|
| Entrypoint   | 0x00C1   |
| Data Size    | 16 bytes |
| Instructions | 2        |

```
      00 01 02 03 04 05 06 07  08 09 0A 0B 0C 0D 0E 0F
      -- -- -- -- -- -- -- --  -- -- -- -- -- -- -- --
00C0:    5B 09 80 F8 FF FF 7F  F8 FF FF 7F 62 6B 6C 31   [..........bkl1
00D0: 00                                                .               
```

#### Opcodes

```
  0: 0x00C1 [0x5B] LOAD_EXT_SCHEDULER: Load scheduler "bkl1" with entities [EventEntity, EventEntity], work=2640*
  1: 0x00D0 [0x00] END_REQSTACK()
```

### Event 10184

#### Metadata

| Field        | Value   |
|--------------|---------|
| Entrypoint   | 0x00D1  |
| Data Size    | 1 bytes |
| Instructions | 1       |

```
      00 01 02 03 04 05 06 07  08 09 0A 0B 0C 0D 0E 0F
      -- -- -- -- -- -- -- --  -- -- -- -- -- -- -- --
00D0:    00                                              .              
```

#### Opcodes

```
  0: 0x00D1 [0x00] END_REQSTACK()
```

### Event 65535.15

#### Metadata

| Field        | Value   |
|--------------|---------|
| Entrypoint   | 0x00D2  |
| Data Size    | 8 bytes |
| Instructions | 3       |

```
      00 01 02 03 04 05 06 07  08 09 0A 0B 0C 0D 0E 0F
      -- -- -- -- -- -- -- --  -- -- -- -- -- -- -- --
00D0:       B6 00 0A 80 C0 04  80 00                      ........      
```

#### Opcodes

```
  0: 0x00D2 [0xB6] ENTITY_APPEARANCE_HANDLER(case=Hair style, value=505*)
  1: 0x00D6 [0xC0] EventEntity->Render.Flags3 |= 0x1000 // Set bit 12 (from 1*)
  2: 0x00D9 [0x00] END_REQSTACK()
```

### Event 65535.16

#### Metadata

| Field        | Value    |
|--------------|----------|
| Entrypoint   | 0x00DA   |
| Data Size    | 27 bytes |
| Instructions | 7        |

```
      00 01 02 03 04 05 06 07  08 09 0A 0B 0C 0D 0E 0F
      -- -- -- -- -- -- -- --  -- -- -- -- -- -- -- --
00D0:                                32 0B 80 1F 00 0C            2.....
00E0: 80 0D 80 0E 80 1F 01 6F  1C 0F 80 4A F8 FF FF 7F  .......o...J....
00F0: E0 40 0F 01 00                                    .@...           
```

#### Opcodes

```
  0: 0x00DA [0x32] ExtData[1]->MainSpeed = 14* * 0.1
  1: 0x00DD [0x1F] MOVE_ENTITY: EventEntity moves to X=-85.963*, Z=77.714*, Y=-1.200*
  2: 0x00E5 [0x1F] MOVE_ENTITY: Update entity position (mode=1)
  3: 0x00E7 [0x6F] WAIT_FRAME_DELAY: Yield until WaitTime reaches zero
  4: 0x00E8 [0x1C] WAIT(15* ticks)
  5: 0x00EB [0x4A] EventEntity looks at Moogle (ID: 17776864/0x010F40E0)
  6: 0x00F4 [0x00] END_REQSTACK()
```

### Event 65535.17

#### Metadata

| Field        | Value    |
|--------------|----------|
| Entrypoint   | 0x00F5   |
| Data Size    | 15 bytes |
| Instructions | 5        |

```
      00 01 02 03 04 05 06 07  08 09 0A 0B 0C 0D 0E 0F
      -- -- -- -- -- -- -- --  -- -- -- -- -- -- -- --
00F0:                32 0B 80  1F 00 10 80 11 80 0E 80       2..........
0100: 1F 01 6F 00                                       ..o.            
```

#### Opcodes

```
  0: 0x00F5 [0x32] ExtData[1]->MainSpeed = 14* * 0.1
  1: 0x00F8 [0x1F] MOVE_ENTITY: EventEntity moves to X=-84.692*, Z=72.804*, Y=-1.200*
  2: 0x0100 [0x1F] MOVE_ENTITY: Update entity position (mode=1)
  3: 0x0102 [0x6F] WAIT_FRAME_DELAY: Yield until WaitTime reaches zero
  4: 0x0103 [0x00] END_REQSTACK()
```

### Event 65535.18

#### Metadata

| Field        | Value    |
|--------------|----------|
| Entrypoint   | 0x0104   |
| Data Size    | 19 bytes |
| Instructions | 3        |

```
      00 01 02 03 04 05 06 07  08 09 0A 0B 0C 0D 0E 0F
      -- -- -- -- -- -- -- --  -- -- -- -- -- -- -- --
0100:             5B 12 80 F8  FF FF 7F F8 FF FF 7F 73      [..........s
0110: 65 69 30 1C 13 80 00                              ei0....         
```

#### Opcodes

```
  0: 0x0104 [0x5B] LOAD_EXT_SCHEDULER: Load scheduler "sei0" with entities [EventEntity, EventEntity], work=2644*
  1: 0x0113 [0x1C] WAIT(171* ticks)
  2: 0x0116 [0x00] END_REQSTACK()
```

### Event 65535.19

#### Metadata

| Field        | Value    |
|--------------|----------|
| Entrypoint   | 0x0117   |
| Data Size    | 19 bytes |
| Instructions | 3        |

```
      00 01 02 03 04 05 06 07  08 09 0A 0B 0C 0D 0E 0F
      -- -- -- -- -- -- -- --  -- -- -- -- -- -- -- --
0110:                      5B  12 80 F8 FF FF 7F F8 FF         [........
0120: FF 7F 73 65 69 31 1C 14  80 00                    ..sei1....      
```

#### Opcodes

```
  0: 0x0117 [0x5B] LOAD_EXT_SCHEDULER: Load scheduler "sei1" with entities [EventEntity, EventEntity], work=2644*
  1: 0x0126 [0x1C] WAIT(245* ticks)
  2: 0x0129 [0x00] END_REQSTACK()
```

### Event 65535.20

#### Metadata

| Field        | Value    |
|--------------|----------|
| Entrypoint   | 0x012A   |
| Data Size    | 16 bytes |
| Instructions | 2        |

```
      00 01 02 03 04 05 06 07  08 09 0A 0B 0C 0D 0E 0F
      -- -- -- -- -- -- -- --  -- -- -- -- -- -- -- --
0120:                                5B 15 80 F8 FF FF            [.....
0130: 7F F8 FF FF 7F 74 6C 6B  30 00                    .....tlk0.      
```

#### Opcodes

```
  0: 0x012A [0x5B] LOAD_EXT_SCHEDULER: Load scheduler "tlk0" with entities [EventEntity, EventEntity], work=215*
  1: 0x0139 [0x00] END_REQSTACK()
```

### Event 65535.21

#### Metadata

| Field        | Value    |
|--------------|----------|
| Entrypoint   | 0x013A   |
| Data Size    | 16 bytes |
| Instructions | 2        |

```
      00 01 02 03 04 05 06 07  08 09 0A 0B 0C 0D 0E 0F
      -- -- -- -- -- -- -- --  -- -- -- -- -- -- -- --
0130:                                5B 15 80 F8 FF FF            [.....
0140: 7F F8 FF FF 7F 74 6C 6B  65 00                    .....tlke.      
```

#### Opcodes

```
  0: 0x013A [0x5B] LOAD_EXT_SCHEDULER: Load scheduler "tlke" with entities [EventEntity, EventEntity], work=215*
  1: 0x0149 [0x00] END_REQSTACK()
```

### Event 65535.22

#### Metadata

| Field        | Value    |
|--------------|----------|
| Entrypoint   | 0x014A   |
| Data Size    | 19 bytes |
| Instructions | 3        |

```
      00 01 02 03 04 05 06 07  08 09 0A 0B 0C 0D 0E 0F
      -- -- -- -- -- -- -- --  -- -- -- -- -- -- -- --
0140:                                5B 16 80 F8 FF FF            [.....
0150: 7F F8 FF FF 7F 70 6E 74  30 1C 17 80 00           .....pnt0....   
```

#### Opcodes

```
  0: 0x014A [0x5B] LOAD_EXT_SCHEDULER: Load scheduler "pnt0" with entities [EventEntity, EventEntity], work=2150*
  1: 0x0159 [0x1C] WAIT(188* ticks)
  2: 0x015C [0x00] END_REQSTACK()
```

### Event 65535.23

#### Metadata

| Field        | Value    |
|--------------|----------|
| Entrypoint   | 0x015D   |
| Data Size    | 19 bytes |
| Instructions | 3        |

```
      00 01 02 03 04 05 06 07  08 09 0A 0B 0C 0D 0E 0F
      -- -- -- -- -- -- -- --  -- -- -- -- -- -- -- --
0150:                                         5B 16 80               [..
0160: F8 FF FF 7F F8 FF FF 7F  6F 64 6F 30 1C 18 80 00  ........odo0....
```

#### Opcodes

```
  0: 0x015D [0x5B] LOAD_EXT_SCHEDULER: Load scheduler "odo0" with entities [EventEntity, EventEntity], work=2150*
  1: 0x016C [0x1C] WAIT(74* ticks)
  2: 0x016F [0x00] END_REQSTACK()
```

### Event 65535.24

#### Metadata

| Field        | Value    |
|--------------|----------|
| Entrypoint   | 0x0170   |
| Data Size    | 16 bytes |
| Instructions | 2        |

```
      00 01 02 03 04 05 06 07  08 09 0A 0B 0C 0D 0E 0F
      -- -- -- -- -- -- -- --  -- -- -- -- -- -- -- --
0170: 5B 16 80 F8 FF FF 7F F8  FF FF 7F 6F 64 6F 31 00  [..........odo1.
```

#### Opcodes

```
  0: 0x0170 [0x5B] LOAD_EXT_SCHEDULER: Load scheduler "odo1" with entities [EventEntity, EventEntity], work=2150*
  1: 0x017F [0x00] END_REQSTACK()
```

### Event 65535.25

#### Metadata

| Field        | Value    |
|--------------|----------|
| Entrypoint   | 0x0180   |
| Data Size    | 19 bytes |
| Instructions | 3        |

```
      00 01 02 03 04 05 06 07  08 09 0A 0B 0C 0D 0E 0F
      -- -- -- -- -- -- -- --  -- -- -- -- -- -- -- --
0180: 5B 16 80 F8 FF FF 7F F8  FF FF 7F 6D 69 6D 30 1C  [..........mim0.
0190: 19 80 00                                          ...             
```

#### Opcodes

```
  0: 0x0180 [0x5B] LOAD_EXT_SCHEDULER: Load scheduler "mim0" with entities [EventEntity, EventEntity], work=2150*
  1: 0x018F [0x1C] WAIT(224* ticks)
  2: 0x0192 [0x00] END_REQSTACK()
```

### Event 65535.26

#### Metadata

| Field        | Value    |
|--------------|----------|
| Entrypoint   | 0x0193   |
| Data Size    | 19 bytes |
| Instructions | 3        |

```
      00 01 02 03 04 05 06 07  08 09 0A 0B 0C 0D 0E 0F
      -- -- -- -- -- -- -- --  -- -- -- -- -- -- -- --
0190:          5B 16 80 F8 FF  FF 7F F8 FF FF 7F 6D 69     [..........mi
01A0: 6D 31 1C 1A 80 00                                 m1....          
```

#### Opcodes

```
  0: 0x0193 [0x5B] LOAD_EXT_SCHEDULER: Load scheduler "mim1" with entities [EventEntity, EventEntity], work=2150*
  1: 0x01A2 [0x1C] WAIT(40* ticks)
  2: 0x01A5 [0x00] END_REQSTACK()
```

### Event 65535.27

#### Metadata

| Field        | Value    |
|--------------|----------|
| Entrypoint   | 0x01A6   |
| Data Size    | 19 bytes |
| Instructions | 3        |

```
      00 01 02 03 04 05 06 07  08 09 0A 0B 0C 0D 0E 0F
      -- -- -- -- -- -- -- --  -- -- -- -- -- -- -- --
01A0:                   5B 16  80 F8 FF FF 7F F8 FF FF        [.........
01B0: 7F 74 6C 33 30 1C 1B 80  00                       .tl30....       
```

#### Opcodes

```
  0: 0x01A6 [0x5B] LOAD_EXT_SCHEDULER: Load scheduler "tl30" with entities [EventEntity, EventEntity], work=2150*
  1: 0x01B5 [0x1C] WAIT(80* ticks)
  2: 0x01B8 [0x00] END_REQSTACK()
```

### Event 65535.28

#### Metadata

| Field        | Value    |
|--------------|----------|
| Entrypoint   | 0x01B9   |
| Data Size    | 19 bytes |
| Instructions | 3        |

```
      00 01 02 03 04 05 06 07  08 09 0A 0B 0C 0D 0E 0F
      -- -- -- -- -- -- -- --  -- -- -- -- -- -- -- --
01B0:                             5B 16 80 F8 FF FF 7F           [......
01C0: F8 FF FF 7F 74 6C 33 31  1C 1C 80 00              ....tl31....    
```

#### Opcodes

```
  0: 0x01B9 [0x5B] LOAD_EXT_SCHEDULER: Load scheduler "tl31" with entities [EventEntity, EventEntity], work=2150*
  1: 0x01C8 [0x1C] WAIT(30* ticks)
  2: 0x01CB [0x00] END_REQSTACK()
```

### Event 65535.29

#### Metadata

| Field        | Value    |
|--------------|----------|
| Entrypoint   | 0x01CC   |
| Data Size    | 16 bytes |
| Instructions | 2        |

```
      00 01 02 03 04 05 06 07  08 09 0A 0B 0C 0D 0E 0F
      -- -- -- -- -- -- -- --  -- -- -- -- -- -- -- --
01C0:                                      5B 15 80 F8              [...
01D0: FF FF 7F F8 FF FF 7F 74  6C 6B 30 00              .......tlk0.    
```

#### Opcodes

```
  0: 0x01CC [0x5B] LOAD_EXT_SCHEDULER: Load scheduler "tlk0" with entities [EventEntity, EventEntity], work=215*
  1: 0x01DB [0x00] END_REQSTACK()
```

### Event 65535.30

#### Metadata

| Field        | Value    |
|--------------|----------|
| Entrypoint   | 0x01DC   |
| Data Size    | 16 bytes |
| Instructions | 2        |

```
      00 01 02 03 04 05 06 07  08 09 0A 0B 0C 0D 0E 0F
      -- -- -- -- -- -- -- --  -- -- -- -- -- -- -- --
01D0:                                      5B 15 80 F8              [...
01E0: FF FF 7F F8 FF FF 7F 74  6C 6B 31 00              .......tlk1.    
```

#### Opcodes

```
  0: 0x01DC [0x5B] LOAD_EXT_SCHEDULER: Load scheduler "tlk1" with entities [EventEntity, EventEntity], work=215*
  1: 0x01EB [0x00] END_REQSTACK()
```

### Event 65535.31

#### Metadata

| Field        | Value    |
|--------------|----------|
| Entrypoint   | 0x01EC   |
| Data Size    | 16 bytes |
| Instructions | 2        |

```
      00 01 02 03 04 05 06 07  08 09 0A 0B 0C 0D 0E 0F
      -- -- -- -- -- -- -- --  -- -- -- -- -- -- -- --
01E0:                                      5B 15 80 F8              [...
01F0: FF FF 7F F8 FF FF 7F 74  6C 6B 65 00              .......tlke.    
```

#### Opcodes

```
  0: 0x01EC [0x5B] LOAD_EXT_SCHEDULER: Load scheduler "tlke" with entities [EventEntity, EventEntity], work=215*
  1: 0x01FB [0x00] END_REQSTACK()
```

### Event 65535.32

#### Metadata

| Field        | Value    |
|--------------|----------|
| Entrypoint   | 0x01FC   |
| Data Size    | 16 bytes |
| Instructions | 2        |

```
      00 01 02 03 04 05 06 07  08 09 0A 0B 0C 0D 0E 0F
      -- -- -- -- -- -- -- --  -- -- -- -- -- -- -- --
01F0:                                      5B 1D 80 F8              [...
0200: FF FF 7F F8 FF FF 7F 62  69 6B 30 00              .......bik0.    
```

#### Opcodes

```
  0: 0x01FC [0x5B] LOAD_EXT_SCHEDULER: Load scheduler "bik0" with entities [EventEntity, EventEntity], work=216*
  1: 0x020B [0x00] END_REQSTACK()
```

### Event 65535.33

#### Metadata

| Field        | Value    |
|--------------|----------|
| Entrypoint   | 0x020C   |
| Data Size    | 16 bytes |
| Instructions | 2        |

```
      00 01 02 03 04 05 06 07  08 09 0A 0B 0C 0D 0E 0F
      -- -- -- -- -- -- -- --  -- -- -- -- -- -- -- --
0200:                                      5B 1D 80 F8              [...
0210: FF FF 7F F8 FF FF 7F 62  69 6B 31 00              .......bik1.    
```

#### Opcodes

```
  0: 0x020C [0x5B] LOAD_EXT_SCHEDULER: Load scheduler "bik1" with entities [EventEntity, EventEntity], work=216*
  1: 0x021B [0x00] END_REQSTACK()
```

### Event 65535.34

#### Metadata

| Field        | Value    |
|--------------|----------|
| Entrypoint   | 0x021C   |
| Data Size    | 16 bytes |
| Instructions | 2        |

```
      00 01 02 03 04 05 06 07  08 09 0A 0B 0C 0D 0E 0F
      -- -- -- -- -- -- -- --  -- -- -- -- -- -- -- --
0210:                                      5B 1D 80 F8              [...
0220: FF FF 7F F8 FF FF 7F 68  61 70 30 00              .......hap0.    
```

#### Opcodes

```
  0: 0x021C [0x5B] LOAD_EXT_SCHEDULER: Load scheduler "hap0" with entities [EventEntity, EventEntity], work=216*
  1: 0x022B [0x00] END_REQSTACK()
```

### Event 65535.35

#### Metadata

| Field        | Value    |
|--------------|----------|
| Entrypoint   | 0x022C   |
| Data Size    | 16 bytes |
| Instructions | 2        |

```
      00 01 02 03 04 05 06 07  08 09 0A 0B 0C 0D 0E 0F
      -- -- -- -- -- -- -- --  -- -- -- -- -- -- -- --
0220:                                      5B 1D 80 F8              [...
0230: FF FF 7F F8 FF FF 7F 68  61 70 31 00              .......hap1.    
```

#### Opcodes

```
  0: 0x022C [0x5B] LOAD_EXT_SCHEDULER: Load scheduler "hap1" with entities [EventEntity, EventEntity], work=216*
  1: 0x023B [0x00] END_REQSTACK()
```

### Event 65535.36

#### Metadata

| Field        | Value    |
|--------------|----------|
| Entrypoint   | 0x023C   |
| Data Size    | 16 bytes |
| Instructions | 2        |

```
      00 01 02 03 04 05 06 07  08 09 0A 0B 0C 0D 0E 0F
      -- -- -- -- -- -- -- --  -- -- -- -- -- -- -- --
0230:                                      5B 1D 80 F8              [...
0240: FF FF 7F F8 FF FF 7F 6D  6D 6D 30 00              .......mmm0.    
```

#### Opcodes

```
  0: 0x023C [0x5B] LOAD_EXT_SCHEDULER: Load scheduler "mmm0" with entities [EventEntity, EventEntity], work=216*
  1: 0x024B [0x00] END_REQSTACK()
```

### Event 65535.37

#### Metadata

| Field        | Value    |
|--------------|----------|
| Entrypoint   | 0x024C   |
| Data Size    | 16 bytes |
| Instructions | 2        |

```
      00 01 02 03 04 05 06 07  08 09 0A 0B 0C 0D 0E 0F
      -- -- -- -- -- -- -- --  -- -- -- -- -- -- -- --
0240:                                      5B 1D 80 F8              [...
0250: FF FF 7F F8 FF FF 7F 6D  6D 6D 31 00              .......mmm1.    
```

#### Opcodes

```
  0: 0x024C [0x5B] LOAD_EXT_SCHEDULER: Load scheduler "mmm1" with entities [EventEntity, EventEntity], work=216*
  1: 0x025B [0x00] END_REQSTACK()
```

### Event 65535.38

#### Metadata

| Field        | Value    |
|--------------|----------|
| Entrypoint   | 0x025C   |
| Data Size    | 16 bytes |
| Instructions | 2        |

```
      00 01 02 03 04 05 06 07  08 09 0A 0B 0C 0D 0E 0F
      -- -- -- -- -- -- -- --  -- -- -- -- -- -- -- --
0250:                                      5B 1E 80 F8              [...
0260: FF FF 7F F8 FF FF 7F 77  6B 6E 66 00              .......wknf.    
```

#### Opcodes

```
  0: 0x025C [0x5B] LOAD_EXT_SCHEDULER: Load scheduler "wknf" with entities [EventEntity, EventEntity], work=218*
  1: 0x026B [0x00] END_REQSTACK()
```

### Event 10185

#### Metadata

| Field        | Value   |
|--------------|---------|
| Entrypoint   | 0x026C  |
| Data Size    | 1 bytes |
| Instructions | 1       |

```
      00 01 02 03 04 05 06 07  08 09 0A 0B 0C 0D 0E 0F
      -- -- -- -- -- -- -- --  -- -- -- -- -- -- -- --
0260:                                      00                       .   
```

#### Opcodes

```
  0: 0x026C [0x00] END_REQSTACK()
```

### Event 65535.39

#### Metadata

| Field        | Value    |
|--------------|----------|
| Entrypoint   | 0x026D   |
| Data Size    | 14 bytes |
| Instructions | 4        |

```
      00 01 02 03 04 05 06 07  08 09 0A 0B 0C 0D 0E 0F
      -- -- -- -- -- -- -- --  -- -- -- -- -- -- -- --
0260:                                         32 1F 80               2..
0270: 5A 00 20 80 21 80 22 80  5A 01 00                 Z. .!.".Z..     
```

#### Opcodes

```
  0: 0x026D [0x32] ExtData[1]->MainSpeed = 4* * 0.1
  1: 0x0270 [0x5A] UPDATE_EVENT_POSITION: Set EventEntity MovePosition to X=-81.767*, Z=69.072*, Y=-2.300*
  2: 0x0278 [0x5A] UPDATE_EVENT_POSITION: Move EventEntity incrementally towards MovePosition
  3: 0x027A [0x00] END_REQSTACK()
```
