# 17776771 - Mildaurion

## Common Data

| Field            | Value                 |
|------------------|-----------------------|
| Zone             | Upper Jeuno (ID: 244) |
| Block Size       | 616 bytes             |
| Total Events     | 24                    |
| References Count | 35                    |

## List of Events

| Event ID                   | Entrypoint   |   Size |   Instructions |
|----------------------------|--------------|--------|----------------|
| [65535](#event-65535)      | 0x0000       |      1 |              1 |
| [65535.1](#event-655351)   | 0x0001       |     19 |              3 |
| [65535.2](#event-655352)   | 0x0014       |     10 |              2 |
| [65535.3](#event-655353)   | 0x001E       |     16 |              2 |
| [65535.4](#event-655354)   | 0x002E       |     14 |              2 |
| [65535.5](#event-655355)   | 0x003C       |     16 |              2 |
| [65535.6](#event-655356)   | 0x004C       |     14 |              2 |
| [65535.7](#event-655357)   | 0x005A       |     16 |              2 |
| [65535.8](#event-655358)   | 0x006A       |     14 |              2 |
| [65535.9](#event-655359)   | 0x0078       |     16 |              2 |
| [65535.10](#event-6553510) | 0x0088       |     14 |              2 |
| [10012](#event-10012)      | 0x0096       |     13 |              3 |
| [65535.11](#event-6553511) | 0x00A3       |     10 |              2 |
| [65535.12](#event-6553512) | 0x00AD       |     15 |              5 |
| [65535.13](#event-6553513) | 0x00BC       |     15 |              5 |
| [65535.14](#event-6553514) | 0x00CB       |     15 |              5 |
| [65535.15](#event-6553515) | 0x00DA       |     15 |              5 |
| [65535.16](#event-6553516) | 0x00E9       |     18 |              8 |
| [65535.17](#event-6553517) | 0x00FB       |     15 |              5 |
| [129](#event-129)          | 0x010A       |     10 |              2 |
| [65535.18](#event-6553518) | 0x0114       |     29 |              7 |
| [65535.19](#event-6553519) | 0x0131       |     19 |              5 |
| [65535.20](#event-6553520) | 0x0144       |     14 |              4 |
| [65535.21](#event-6553521) | 0x0152       |     24 |              6 |

## DAT References (imed_data)

|   Index | Hex Value   |   Dec Value |
|---------|-------------|-------------|
|       0 | 0x01BD      |         445 |
|       1 | 0xFFFE86B5  |  4294870709 |
|       2 | 0x16583     |       91523 |
|       3 | 0xFFFFFF39  |  4294967097 |
|       4 | 0x0681      |        1665 |
|       5 | 0x000D      |          13 |
|       6 | 0xFFFE74AC  |  4294866092 |
|       7 | 0x15B9C     |       88988 |
|       8 | 0xFFFE6AEF  |  4294863599 |
|       9 | 0x15B16     |       88854 |
|      10 | 0xFFFFFF2D  |  4294967085 |
|      11 | 0xFFFE6EB3  |  4294864563 |
|      12 | 0x16126     |       90406 |
|      13 | 0xFFFE6D20  |  4294864160 |
|      14 | 0x16005     |       90117 |
|      15 | 0x003C      |          60 |
|      16 | 0xFFFE74AE  |  4294866094 |
|      17 | 0x1612D     |       90413 |
|      18 | 0xFFFE7C5E  |  4294868062 |
|      19 | 0x14A42     |       84546 |
|      20 | 0xFFFFFD77  |  4294966647 |
|      21 | 0x065B      |        1627 |
|      22 | 0xFFFE7C61  |  4294868065 |
|      23 | 0x145F9     |       83449 |
|      24 | 0xFFFE7BAD  |  4294867885 |
|      25 | 0x14486     |       83078 |
|      26 | 0xFFFE71EA  |  4294865386 |
|      27 | 0x13C95     |       81045 |
|      28 | 0xFFFE672A  |  4294862634 |
|      29 | 0x143A9     |       82857 |
|      30 | 0xFFFE6641  |  4294862401 |
|      31 | 0x14F81     |       85889 |
|      32 | 0xFFFE6ED3  |  4294864595 |
|      33 | 0x155A0     |       87456 |
|      34 | 0xFFFFFF0F  |  4294967055 |

## Events

### Event 65535

#### Metadata

| Field        | Value   |
|--------------|---------|
| Entrypoint   | 0x0000  |
| Data Size    | 1 bytes |
| Instructions | 1       |

```
      00 01 02 03 04 05 06 07  08 09 0A 0B 0C 0D 0E 0F
      -- -- -- -- -- -- -- --  -- -- -- -- -- -- -- --
0000: 00                                                .               
```

#### Opcodes

```
  0: 0x0000 [0x00] END_REQSTACK()
```

### Event 65535.1

#### Metadata

| Field        | Value    |
|--------------|----------|
| Entrypoint   | 0x0001   |
| Data Size    | 19 bytes |
| Instructions | 3        |

```
      00 01 02 03 04 05 06 07  08 09 0A 0B 0C 0D 0E 0F
      -- -- -- -- -- -- -- --  -- -- -- -- -- -- -- --
0000:    3B F8 FF FF 7F 00 00  01 00 02 00 3A F8 FF FF   ;..........:...
0010: 7F 03 00 00                                       ....            
```

#### Opcodes

```
  0: 0x0001 [0x3B] GET_ENTITY_POSITION(entity=EventEntity, x_destination=ExtData[1]->WorkLocal[0], y_destination=ExtData[1]->WorkLocal[1], z_destination=ExtData[1]->WorkLocal[2])
  1: 0x000C [0x3A] CONVERT_YAW_TO_BYTE(entity=EventEntity, result_destination=ExtData[1]->WorkLocal[3])
  2: 0x0013 [0x00] END_REQSTACK()
```

### Event 65535.2

#### Metadata

| Field        | Value    |
|--------------|----------|
| Entrypoint   | 0x0014   |
| Data Size    | 10 bytes |
| Instructions | 2        |

```
      00 01 02 03 04 05 06 07  08 09 0A 0B 0C 0D 0E 0F
      -- -- -- -- -- -- -- --  -- -- -- -- -- -- -- --
0010:             37 00 00 01  00 02 00 03 00 00            7.........  
```

#### Opcodes

```
  0: 0x0014 [0x37] UPDATE_EVENT_POSITION_AND_DIR: x=ExtData[1]->WorkLocal[0], z=ExtData[1]->WorkLocal[1], y=ExtData[1]->WorkLocal[2], direction=ExtData[1]->WorkLocal[3]
  1: 0x001D [0x00] END_REQSTACK()
```

### Event 65535.3

#### Metadata

| Field        | Value    |
|--------------|----------|
| Entrypoint   | 0x001E   |
| Data Size    | 16 bytes |
| Instructions | 2        |

```
      00 01 02 03 04 05 06 07  08 09 0A 0B 0C 0D 0E 0F
      -- -- -- -- -- -- -- --  -- -- -- -- -- -- -- --
0010:                                            5B 00                [.
0020: 80 F8 FF FF 7F F8 FF FF  7F 74 6C 61 30 00        .........tla0.  
```

#### Opcodes

```
  0: 0x001E [0x5B] LOAD_EXT_SCHEDULER: Load scheduler "tla0" with entities [EventEntity, EventEntity], work=445*
  1: 0x002D [0x00] END_REQSTACK()
```

### Event 65535.4

#### Metadata

| Field        | Value    |
|--------------|----------|
| Entrypoint   | 0x002E   |
| Data Size    | 14 bytes |
| Instructions | 2        |

```
      00 01 02 03 04 05 06 07  08 09 0A 0B 0C 0D 0E 0F
      -- -- -- -- -- -- -- --  -- -- -- -- -- -- -- --
0020:                                            53 F8                S.
0030: FF FF 7F F8 FF FF 7F 74  6C 61 30 00              .......tla0.    
```

#### Opcodes

```
  0: 0x002E [0x53] WAIT_SCHEDULER_TASK: Wait for scheduler "tla0" with entities [EventEntity, EventEntity]
  1: 0x003B [0x00] END_REQSTACK()
```

### Event 65535.5

#### Metadata

| Field        | Value    |
|--------------|----------|
| Entrypoint   | 0x003C   |
| Data Size    | 16 bytes |
| Instructions | 2        |

```
      00 01 02 03 04 05 06 07  08 09 0A 0B 0C 0D 0E 0F
      -- -- -- -- -- -- -- --  -- -- -- -- -- -- -- --
0030:                                      5B 00 80 F8              [...
0040: FF FF 7F F8 FF FF 7F 74  6C 61 31 00              .......tla1.    
```

#### Opcodes

```
  0: 0x003C [0x5B] LOAD_EXT_SCHEDULER: Load scheduler "tla1" with entities [EventEntity, EventEntity], work=445*
  1: 0x004B [0x00] END_REQSTACK()
```

### Event 65535.6

#### Metadata

| Field        | Value    |
|--------------|----------|
| Entrypoint   | 0x004C   |
| Data Size    | 14 bytes |
| Instructions | 2        |

```
      00 01 02 03 04 05 06 07  08 09 0A 0B 0C 0D 0E 0F
      -- -- -- -- -- -- -- --  -- -- -- -- -- -- -- --
0040:                                      53 F8 FF FF              S...
0050: 7F F8 FF FF 7F 74 6C 61  31 00                    .....tla1.      
```

#### Opcodes

```
  0: 0x004C [0x53] WAIT_SCHEDULER_TASK: Wait for scheduler "tla1" with entities [EventEntity, EventEntity]
  1: 0x0059 [0x00] END_REQSTACK()
```

### Event 65535.7

#### Metadata

| Field        | Value    |
|--------------|----------|
| Entrypoint   | 0x005A   |
| Data Size    | 16 bytes |
| Instructions | 2        |

```
      00 01 02 03 04 05 06 07  08 09 0A 0B 0C 0D 0E 0F
      -- -- -- -- -- -- -- --  -- -- -- -- -- -- -- --
0050:                                5B 00 80 F8 FF FF            [.....
0060: 7F F8 FF FF 7F 74 68 6B  30 00                    .....thk0.      
```

#### Opcodes

```
  0: 0x005A [0x5B] LOAD_EXT_SCHEDULER: Load scheduler "thk0" with entities [EventEntity, EventEntity], work=445*
  1: 0x0069 [0x00] END_REQSTACK()
```

### Event 65535.8

#### Metadata

| Field        | Value    |
|--------------|----------|
| Entrypoint   | 0x006A   |
| Data Size    | 14 bytes |
| Instructions | 2        |

```
      00 01 02 03 04 05 06 07  08 09 0A 0B 0C 0D 0E 0F
      -- -- -- -- -- -- -- --  -- -- -- -- -- -- -- --
0060:                                53 F8 FF FF 7F F8            S.....
0070: FF FF 7F 74 68 6B 30 00                           ...thk0.        
```

#### Opcodes

```
  0: 0x006A [0x53] WAIT_SCHEDULER_TASK: Wait for scheduler "thk0" with entities [EventEntity, EventEntity]
  1: 0x0077 [0x00] END_REQSTACK()
```

### Event 65535.9

#### Metadata

| Field        | Value    |
|--------------|----------|
| Entrypoint   | 0x0078   |
| Data Size    | 16 bytes |
| Instructions | 2        |

```
      00 01 02 03 04 05 06 07  08 09 0A 0B 0C 0D 0E 0F
      -- -- -- -- -- -- -- --  -- -- -- -- -- -- -- --
0070:                          5B 00 80 F8 FF FF 7F F8          [.......
0080: FF FF 7F 74 68 6B 31 00                           ...thk1.        
```

#### Opcodes

```
  0: 0x0078 [0x5B] LOAD_EXT_SCHEDULER: Load scheduler "thk1" with entities [EventEntity, EventEntity], work=445*
  1: 0x0087 [0x00] END_REQSTACK()
```

### Event 65535.10

#### Metadata

| Field        | Value    |
|--------------|----------|
| Entrypoint   | 0x0088   |
| Data Size    | 14 bytes |
| Instructions | 2        |

```
      00 01 02 03 04 05 06 07  08 09 0A 0B 0C 0D 0E 0F
      -- -- -- -- -- -- -- --  -- -- -- -- -- -- -- --
0080:                          53 F8 FF FF 7F F8 FF FF          S.......
0090: 7F 74 68 6B 31 00                                 .thk1.          
```

#### Opcodes

```
  0: 0x0088 [0x53] WAIT_SCHEDULER_TASK: Wait for scheduler "thk1" with entities [EventEntity, EventEntity]
  1: 0x0095 [0x00] END_REQSTACK()
```

### Event 10012

#### Metadata

| Field        | Value    |
|--------------|----------|
| Entrypoint   | 0x0096   |
| Data Size    | 13 bytes |
| Instructions | 3        |

```
      00 01 02 03 04 05 06 07  08 09 0A 0B 0C 0D 0E 0F
      -- -- -- -- -- -- -- --  -- -- -- -- -- -- -- --
0090:                   92 01  F8 FF FF 7F 94 01 F8 FF        ..........
00A0: FF 7F 00                                          ...             
```

#### Opcodes

```
  0: 0x0096 [0x92] EventEntity->Render.Flags3 ^= 0x01
  1: 0x009C [0x94] EventEntity->Render.Flags3 ^= 0x01
  2: 0x00A2 [0x00] END_REQSTACK()
```

### Event 65535.11

#### Metadata

| Field        | Value    |
|--------------|----------|
| Entrypoint   | 0x00A3   |
| Data Size    | 10 bytes |
| Instructions | 2        |

```
      00 01 02 03 04 05 06 07  08 09 0A 0B 0C 0D 0E 0F
      -- -- -- -- -- -- -- --  -- -- -- -- -- -- -- --
00A0:          37 01 80 02 80  03 80 04 80 00              7.........   
```

#### Opcodes

```
  0: 0x00A3 [0x37] UPDATE_EVENT_POSITION_AND_DIR: x=-96.587*, z=91.523*, y=-0.199*, direction=146.3°*
  1: 0x00AC [0x00] END_REQSTACK()
```

### Event 65535.12

#### Metadata

| Field        | Value    |
|--------------|----------|
| Entrypoint   | 0x00AD   |
| Data Size    | 15 bytes |
| Instructions | 5        |

```
      00 01 02 03 04 05 06 07  08 09 0A 0B 0C 0D 0E 0F
      -- -- -- -- -- -- -- --  -- -- -- -- -- -- -- --
00A0:                                         32 05 80               2..
00B0: 1F 00 06 80 07 80 03 80  1F 01 6F 00              ..........o.    
```

#### Opcodes

```
  0: 0x00AD [0x32] ExtData[1]->MainSpeed = 13* * 0.1
  1: 0x00B0 [0x1F] MOVE_ENTITY: EventEntity moves to X=-101.204*, Z=88.988*, Y=-0.199*
  2: 0x00B8 [0x1F] MOVE_ENTITY: Update entity position (mode=1)
  3: 0x00BA [0x6F] WAIT_FRAME_DELAY: Yield until WaitTime reaches zero
  4: 0x00BB [0x00] END_REQSTACK()
```

### Event 65535.13

#### Metadata

| Field        | Value    |
|--------------|----------|
| Entrypoint   | 0x00BC   |
| Data Size    | 15 bytes |
| Instructions | 5        |

```
      00 01 02 03 04 05 06 07  08 09 0A 0B 0C 0D 0E 0F
      -- -- -- -- -- -- -- --  -- -- -- -- -- -- -- --
00B0:                                      32 05 80 1F              2...
00C0: 00 08 80 09 80 0A 80 1F  01 6F 00                 .........o.     
```

#### Opcodes

```
  0: 0x00BC [0x32] ExtData[1]->MainSpeed = 13* * 0.1
  1: 0x00BF [0x1F] MOVE_ENTITY: EventEntity moves to X=-103.697*, Z=88.854*, Y=-0.211*
  2: 0x00C7 [0x1F] MOVE_ENTITY: Update entity position (mode=1)
  3: 0x00C9 [0x6F] WAIT_FRAME_DELAY: Yield until WaitTime reaches zero
  4: 0x00CA [0x00] END_REQSTACK()
```

### Event 65535.14

#### Metadata

| Field        | Value    |
|--------------|----------|
| Entrypoint   | 0x00CB   |
| Data Size    | 15 bytes |
| Instructions | 5        |

```
      00 01 02 03 04 05 06 07  08 09 0A 0B 0C 0D 0E 0F
      -- -- -- -- -- -- -- --  -- -- -- -- -- -- -- --
00C0:                                   32 05 80 1F 00             2....
00D0: 0B 80 0C 80 0A 80 1F 01  6F 00                    ........o.      
```

#### Opcodes

```
  0: 0x00CB [0x32] ExtData[1]->MainSpeed = 13* * 0.1
  1: 0x00CE [0x1F] MOVE_ENTITY: EventEntity moves to X=-102.733*, Z=90.406*, Y=-0.211*
  2: 0x00D6 [0x1F] MOVE_ENTITY: Update entity position (mode=1)
  3: 0x00D8 [0x6F] WAIT_FRAME_DELAY: Yield until WaitTime reaches zero
  4: 0x00D9 [0x00] END_REQSTACK()
```

### Event 65535.15

#### Metadata

| Field        | Value    |
|--------------|----------|
| Entrypoint   | 0x00DA   |
| Data Size    | 15 bytes |
| Instructions | 5        |

```
      00 01 02 03 04 05 06 07  08 09 0A 0B 0C 0D 0E 0F
      -- -- -- -- -- -- -- --  -- -- -- -- -- -- -- --
00D0:                                32 05 80 1F 00 0D            2.....
00E0: 80 0E 80 0A 80 1F 01 6F  00                       .......o.       
```

#### Opcodes

```
  0: 0x00DA [0x32] ExtData[1]->MainSpeed = 13* * 0.1
  1: 0x00DD [0x1F] MOVE_ENTITY: EventEntity moves to X=-103.136*, Z=90.117*, Y=-0.211*
  2: 0x00E5 [0x1F] MOVE_ENTITY: Update entity position (mode=1)
  3: 0x00E7 [0x6F] WAIT_FRAME_DELAY: Yield until WaitTime reaches zero
  4: 0x00E8 [0x00] END_REQSTACK()
```

### Event 65535.16

#### Metadata

| Field        | Value    |
|--------------|----------|
| Entrypoint   | 0x00E9   |
| Data Size    | 18 bytes |
| Instructions | 8        |

```
      00 01 02 03 04 05 06 07  08 09 0A 0B 0C 0D 0E 0F
      -- -- -- -- -- -- -- --  -- -- -- -- -- -- -- --
00E0:                             1C 0F 80 1E 82 40 0F           .....@.
00F0: 01 6F 70 1E 82 40 0F 01  6F 70 00                 .op..@..op.     
```

#### Opcodes

```
  0: 0x00E9 [0x1C] WAIT(60* ticks)
  1: 0x00EC [0x1E] EventEntity looks at Jabbos (ID: 17776770/0x010F4082) and starts talking
  2: 0x00F1 [0x6F] WAIT_FRAME_DELAY: Yield until WaitTime reaches zero
  3: 0x00F2 [0x70] WAIT_ENTITY_RENDER_FLAG: Wait while EventEntity->Render.Flags3 bit 2 is set (cancel turn if not)
  4: 0x00F3 [0x1E] EventEntity looks at Jabbos (ID: 17776770/0x010F4082) and starts talking
  5: 0x00F8 [0x6F] WAIT_FRAME_DELAY: Yield until WaitTime reaches zero
  6: 0x00F9 [0x70] WAIT_ENTITY_RENDER_FLAG: Wait while EventEntity->Render.Flags3 bit 2 is set (cancel turn if not)
  7: 0x00FA [0x00] END_REQSTACK()
```

### Event 65535.17

#### Metadata

| Field        | Value    |
|--------------|----------|
| Entrypoint   | 0x00FB   |
| Data Size    | 15 bytes |
| Instructions | 5        |

```
      00 01 02 03 04 05 06 07  08 09 0A 0B 0C 0D 0E 0F
      -- -- -- -- -- -- -- --  -- -- -- -- -- -- -- --
00F0:                                   32 05 80 1F 00             2....
0100: 10 80 11 80 03 80 1F 01  6F 00                    ........o.      
```

#### Opcodes

```
  0: 0x00FB [0x32] ExtData[1]->MainSpeed = 13* * 0.1
  1: 0x00FE [0x1F] MOVE_ENTITY: EventEntity moves to X=-101.202*, Z=90.413*, Y=-0.199*
  2: 0x0106 [0x1F] MOVE_ENTITY: Update entity position (mode=1)
  3: 0x0108 [0x6F] WAIT_FRAME_DELAY: Yield until WaitTime reaches zero
  4: 0x0109 [0x00] END_REQSTACK()
```

### Event 129

#### Metadata

| Field        | Value    |
|--------------|----------|
| Entrypoint   | 0x010A   |
| Data Size    | 10 bytes |
| Instructions | 2        |

```
      00 01 02 03 04 05 06 07  08 09 0A 0B 0C 0D 0E 0F
      -- -- -- -- -- -- -- --  -- -- -- -- -- -- -- --
0100:                                37 12 80 13 80 14            7.....
0110: 80 15 80 00                                       ....            
```

#### Opcodes

```
  0: 0x010A [0x37] UPDATE_EVENT_POSITION_AND_DIR: x=-99.234*, z=84.546*, y=-0.649*, direction=143.0°*
  1: 0x0113 [0x00] END_REQSTACK()
```

### Event 65535.18

#### Metadata

| Field        | Value    |
|--------------|----------|
| Entrypoint   | 0x0114   |
| Data Size    | 29 bytes |
| Instructions | 7        |

```
      00 01 02 03 04 05 06 07  08 09 0A 0B 0C 0D 0E 0F
      -- -- -- -- -- -- -- --  -- -- -- -- -- -- -- --
0110:             32 05 80 1F  00 16 80 17 80 14 80 1F      2...........
0120: 01 1F 00 18 80 19 80 14  80 1F 01 1E F0 FF FF 7F  ................
0130: 00                                                .               
```

#### Opcodes

```
  0: 0x0114 [0x32] ExtData[1]->MainSpeed = 13* * 0.1
  1: 0x0117 [0x1F] MOVE_ENTITY: EventEntity moves to X=-99.231*, Z=83.449*, Y=-0.649*
  2: 0x011F [0x1F] MOVE_ENTITY: Update entity position (mode=1)
  3: 0x0121 [0x1F] MOVE_ENTITY: EventEntity moves to X=-99.411*, Z=83.078*, Y=-0.649*
  4: 0x0129 [0x1F] MOVE_ENTITY: Update entity position (mode=1)
  5: 0x012B [0x1E] EventEntity looks at LocalPlayer and starts talking
  6: 0x0130 [0x00] END_REQSTACK()
```

### Event 65535.19

#### Metadata

| Field        | Value    |
|--------------|----------|
| Entrypoint   | 0x0131   |
| Data Size    | 19 bytes |
| Instructions | 5        |

```
      00 01 02 03 04 05 06 07  08 09 0A 0B 0C 0D 0E 0F
      -- -- -- -- -- -- -- --  -- -- -- -- -- -- -- --
0130:    7B F8 FF FF 7F 32 05  80 1F 00 1A 80 1B 80 14   {....2.........
0140: 80 1F 01 00                                       ....            
```

#### Opcodes

```
  0: 0x0131 [0x7B] EventEntity stops talking
  1: 0x0136 [0x32] ExtData[1]->MainSpeed = 13* * 0.1
  2: 0x0139 [0x1F] MOVE_ENTITY: EventEntity moves to X=-101.910*, Z=81.045*, Y=-0.649*
  3: 0x0141 [0x1F] MOVE_ENTITY: Update entity position (mode=1)
  4: 0x0143 [0x00] END_REQSTACK()
```

### Event 65535.20

#### Metadata

| Field        | Value    |
|--------------|----------|
| Entrypoint   | 0x0144   |
| Data Size    | 14 bytes |
| Instructions | 4        |

```
      00 01 02 03 04 05 06 07  08 09 0A 0B 0C 0D 0E 0F
      -- -- -- -- -- -- -- --  -- -- -- -- -- -- -- --
0140:             32 05 80 1F  00 1C 80 1D 80 03 80 1F      2...........
0150: 01 00                                             ..              
```

#### Opcodes

```
  0: 0x0144 [0x32] ExtData[1]->MainSpeed = 13* * 0.1
  1: 0x0147 [0x1F] MOVE_ENTITY: EventEntity moves to X=-104.662*, Z=82.857*, Y=-0.199*
  2: 0x014F [0x1F] MOVE_ENTITY: Update entity position (mode=1)
  3: 0x0151 [0x00] END_REQSTACK()
```

### Event 65535.21

#### Metadata

| Field        | Value    |
|--------------|----------|
| Entrypoint   | 0x0152   |
| Data Size    | 24 bytes |
| Instructions | 6        |

```
      00 01 02 03 04 05 06 07  08 09 0A 0B 0C 0D 0E 0F
      -- -- -- -- -- -- -- --  -- -- -- -- -- -- -- --
0150:       32 05 80 1F 00 1E  80 1F 80 03 80 1F 01 1F    2.............
0160: 00 20 80 21 80 22 80 1F  01 00                    . .!."....      
```

#### Opcodes

```
  0: 0x0152 [0x32] ExtData[1]->MainSpeed = 13* * 0.1
  1: 0x0155 [0x1F] MOVE_ENTITY: EventEntity moves to X=-104.895*, Z=85.889*, Y=-0.199*
  2: 0x015D [0x1F] MOVE_ENTITY: Update entity position (mode=1)
  3: 0x015F [0x1F] MOVE_ENTITY: EventEntity moves to X=-102.701*, Z=87.456*, Y=-0.241*
  4: 0x0167 [0x1F] MOVE_ENTITY: Update entity position (mode=1)
  5: 0x0169 [0x00] END_REQSTACK()
```
