# 17776780 - Luto Mewrilah

## Common Data

| Field            | Value                 |
|------------------|-----------------------|
| Zone             | Upper Jeuno (ID: 244) |
| Block Size       | 32784 bytes           |
| Total Events     | 104                   |
| References Count | 697                   |

## List of Events

| Event ID                   | Entrypoint   |   Size |   Instructions |
|----------------------------|--------------|--------|----------------|
| [65535](#event-65535)      | 0x0000       |      1 |              1 |
| [10031](#event-10031)      | 0x0001       |      1 |              1 |
| [10032](#event-10032)      | 0x0002       |      1 |              1 |
| [10033](#event-10033)      | 0x0003       |     36 |              8 |
| [10034](#event-10034)      | 0x0027       |     11 |              5 |
| [65535.1](#event-655351)   | 0x0032       |     14 |              4 |
| [65535.2](#event-655352)   | 0x0040       |     14 |              4 |
| [65535.3](#event-655353)   | 0x004E       |     14 |              4 |
| [10039](#event-10039)      | 0x005C       |    811 |            106 |
| [10041](#event-10041)      | 0x0387       |     49 |             11 |
| [10044](#event-10044)      | 0x03B8       |      1 |              1 |
| [65535.4](#event-655354)   | 0x03B9       |      1 |              1 |
| [10042](#event-10042)      | 0x03BA       |     45 |              9 |
| [10048](#event-10048)      | 0x03E7       |     41 |              7 |
| [10045](#event-10045)      | 0x0410       |     45 |              9 |
| [10047](#event-10047)      | 0x043D       |    282 |             76 |
| [10071](#event-10071)      | 0x0557       |    735 |            193 |
| [10053](#event-10053)      | 0x0836       |    106 |             25 |
| [10049](#event-10049)      | 0x08A0       |    237 |             47 |
| [10050](#event-10050)      | 0x098D       |    380 |             75 |
| [10051](#event-10051)      | 0x0B09       |    152 |             44 |
| [10068](#event-10068)      | 0x0BA1       |    166 |             46 |
| [10069](#event-10069)      | 0x0C47       |    151 |             45 |
| [10070](#event-10070)      | 0x0CDE       |    166 |             46 |
| [10076](#event-10076)      | 0x0D84       |    267 |             75 |
| [10077](#event-10077)      | 0x0E8F       |    170 |             48 |
| [10052](#event-10052)      | 0x0F39       |    139 |             39 |
| [10043](#event-10043)      | 0x0FC4       |      1 |              1 |
| [65535.5](#event-655355)   | 0x0FC5       |     14 |              4 |
| [65535.6](#event-655356)   | 0x0FD3       |     14 |              4 |
| [10046](#event-10046)      | 0x0FE1       |   4582 |            827 |
| [65535.7](#event-655357)   | 0x21C7       |      4 |              2 |
| [65535.8](#event-655358)   | 0x21CB       |      2 |              2 |
| [10055](#event-10055)      | 0x21CD       |   1715 |            207 |
| [10056](#event-10056)      | 0x2880       |     11 |              5 |
| [65535.9](#event-655359)   | 0x288B       |     11 |              5 |
| [10057](#event-10057)      | 0x2896       |      1 |              1 |
| [10058](#event-10058)      | 0x2897       |      1 |              1 |
| [10060](#event-10060)      | 0x2898       |      1 |              1 |
| [10205](#event-10205)      | 0x2899       |      1 |              1 |
| [10059](#event-10059)      | 0x289A       |      1 |              1 |
| [10061](#event-10061)      | 0x289B       |      1 |              1 |
| [10062](#event-10062)      | 0x289C       |      1 |              1 |
| [10207](#event-10207)      | 0x289D       |      1 |              1 |
| [65535.10](#event-6553510) | 0x289E       |     27 |              5 |
| [65535.11](#event-6553511) | 0x28B9       |     14 |              4 |
| [65535.12](#event-6553512) | 0x28C7       |     15 |              3 |
| [65535.13](#event-6553513) | 0x28D6       |     27 |              5 |
| [65535.14](#event-6553514) | 0x28F1       |     13 |              3 |
| [65535.15](#event-6553515) | 0x28FE       |     13 |              3 |
| [10063](#event-10063)      | 0x290B       |      1 |              1 |
| [10064](#event-10064)      | 0x290C       |      1 |              1 |
| [65535.16](#event-6553516) | 0x290D       |     14 |              4 |
| [65535.17](#event-6553517) | 0x291B       |     19 |              5 |
| [65535.18](#event-6553518) | 0x292E       |     14 |              4 |
| [65535.19](#event-6553519) | 0x293C       |     14 |              4 |
| [10067](#event-10067)      | 0x294A       |     11 |              5 |
| [10065](#event-10065)      | 0x2955       |      1 |              1 |
| [65535.20](#event-6553520) | 0x2956       |     14 |              4 |
| [65535.21](#event-6553521) | 0x2964       |     19 |              5 |
| [65535.22](#event-6553522) | 0x2977       |     23 |              5 |
| [10066](#event-10066)      | 0x298E       |      1 |              1 |
| [10072](#event-10072)      | 0x298F       |      1 |              1 |
| [65535.23](#event-6553523) | 0x2990       |     14 |              4 |
| [65535.24](#event-6553524) | 0x299E       |     10 |              2 |
| [65535.25](#event-6553525) | 0x29A8       |     14 |              4 |
| [65535.26](#event-6553526) | 0x29B6       |     15 |              3 |
| [65535.27](#event-6553527) | 0x29C5       |     14 |              4 |
| [10073](#event-10073)      | 0x29D3       |      1 |              1 |
| [10074](#event-10074)      | 0x29D4       |      1 |              1 |
| [65535.28](#event-6553528) | 0x29D5       |     14 |              4 |
| [65535.29](#event-6553529) | 0x29E3       |     14 |              4 |
| [65535.30](#event-6553530) | 0x29F1       |      3 |              2 |
| [65535.31](#event-6553531) | 0x29F4       |      3 |              2 |
| [10075](#event-10075)      | 0x29F7       |      1 |              1 |
| [65535.32](#event-6553532) | 0x29F8       |     14 |              4 |
| [65535.33](#event-6553533) | 0x2A06       |     14 |              4 |
| [10078](#event-10078)      | 0x2A14       |      1 |              1 |
| [65535.34](#event-6553534) | 0x2A15       |     10 |              2 |
| [65535.35](#event-6553535) | 0x2A1F       |     14 |              4 |
| [65535.36](#event-6553536) | 0x2A2D       |     14 |              4 |
| [10079](#event-10079)      | 0x2A3B       |      1 |              1 |
| [65535.37](#event-6553537) | 0x2A3C       |      1 |              1 |
| [10080](#event-10080)      | 0x2A3D       |      1 |              1 |
| [65535.38](#event-6553538) | 0x2A3E       |      1 |              1 |
| [10081](#event-10081)      | 0x2A3F       |      1 |              1 |
| [65535.39](#event-6553539) | 0x2A40       |     14 |              4 |
| [10082](#event-10082)      | 0x2A4E       |  18661 |           3219 |
| [10085](#event-10085)      | 0x7333       |     55 |             13 |
| [10174](#event-10174)      | 0x736A       |      1 |              1 |
| [10175](#event-10175)      | 0x736B       |      1 |              1 |
| [10192](#event-10192)      | 0x736C       |      1 |              1 |
| [10193](#event-10193)      | 0x736D       |      1 |              1 |
| [10194](#event-10194)      | 0x736E       |      1 |              1 |
| [10195](#event-10195)      | 0x736F       |      1 |              1 |
| [10196](#event-10196)      | 0x7370       |      1 |              1 |
| [10197](#event-10197)      | 0x7371       |      1 |              1 |
| [10198](#event-10198)      | 0x7372       |      1 |              1 |
| [10199](#event-10199)      | 0x7373       |      1 |              1 |
| [10200](#event-10200)      | 0x7374       |      1 |              1 |
| [10201](#event-10201)      | 0x7375       |      1 |              1 |
| [10202](#event-10202)      | 0x7376       |      1 |              1 |
| [10203](#event-10203)      | 0x7377       |      1 |              1 |
| [10216](#event-10216)      | 0x7378       |      1 |              1 |

## DAT References (imed_data)

|   Index | Hex Value   |   Dec Value |
|---------|-------------|-------------|
|       0 | 0x001E      |          30 |
|       1 | 0x0030      |          48 |
|       2 | 0x2291      |        8849 |
|       3 | 0x003C      |          60 |
|       4 | 0x2424      |        9252 |
|       5 | 0x000D      |          13 |
|       6 | 0xFFFF3AD3  |  4294916819 |
|       7 | 0xB3E8      |       46056 |
|       8 | 0x0000      |           0 |
|       9 | 0xFFFF3415  |  4294915093 |
|      10 | 0xB0B6      |       45238 |
|      11 | 0xFFFFFF39  |  4294967097 |
|      12 | 0xFFFF2AEC  |  4294912748 |
|      13 | 0xAD5F      |       44383 |
|      14 | 0xFFFFFED3  |  4294966995 |
|      15 | 0x0013      |          19 |
|      16 | 0x00BF      |         191 |
|      17 | 0x000A      |          10 |
|      18 | 0x22BB      |        8891 |
|      19 | 0x0096      |         150 |
|      20 | 0x22BC      |        8892 |
|      21 | 0x22BD      |        8893 |
|      22 | 0x22BE      |        8894 |
|      23 | 0xFFFF2B46  |  4294912838 |
|      24 | 0xB142      |       45378 |
|      25 | 0x0032      |          50 |
|      26 | 0x22BF      |        8895 |
|      27 | 0x000C      |          12 |
|      28 | 0x0001      |           1 |
|      29 | 0x22C0      |        8896 |
|      30 | 0x0050      |          80 |
|      31 | 0x00F0      |         240 |
|      32 | 0x0359      |         857 |
|      33 | 0x22C1      |        8897 |
|      34 | 0x22C2      |        8898 |
|      35 | 0x22C3      |        8899 |
|      36 | 0x00C8      |         200 |
|      37 | 0x226E      |        8814 |
|      38 | 0x0033      |          51 |
|      39 | 0x226F      |        8815 |
|      40 | 0x2270      |        8816 |
|      41 | 0x22C4      |        8900 |
|      42 | 0x22C5      |        8901 |
|      43 | 0x2324      |        8996 |
|      44 | 0x0034      |          52 |
|      45 | 0x234C      |        9036 |
|      46 | 0x234D      |        9037 |
|      47 | 0x2406      |        9222 |
|      48 | 0x2407      |        9223 |
|      49 | 0x2408      |        9224 |
|      50 | 0x2409      |        9225 |
|      51 | 0x240A      |        9226 |
|      52 | 0x240B      |        9227 |
|      53 | 0x240C      |        9228 |
|      54 | 0x0002      |           2 |
|      55 | 0x240D      |        9229 |
|      56 | 0x0003      |           3 |
|      57 | 0x240E      |        9230 |
|      58 | 0x0004      |           4 |
|      59 | 0x240F      |        9231 |
|      60 | 0x0005      |           5 |
|      61 | 0x2410      |        9232 |
|      62 | 0x0006      |           6 |
|      63 | 0x2411      |        9233 |
|      64 | 0x0007      |           7 |
|      65 | 0x2412      |        9234 |
|      66 | 0x2413      |        9235 |
|      67 | 0x2414      |        9236 |
|      68 | 0x2416      |        9238 |
|      69 | 0x0064      |         100 |
|      70 | 0x2415      |        9237 |
|      71 | 0x2637      |        9783 |
|      72 | 0x26AF      |        9903 |
|      73 | 0x02DC      |         732 |
|      74 | 0x2798      |       10136 |
|      75 | 0x2799      |       10137 |
|      76 | 0x279A      |       10138 |
|      77 | 0x2A65      |       10853 |
|      78 | 0x2A66      |       10854 |
|      79 | 0x0008      |           8 |
|      80 | 0x2A67      |       10855 |
|      81 | 0x0009      |           9 |
|      82 | 0x2A68      |       10856 |
|      83 | 0x2A69      |       10857 |
|      84 | 0x2A6A      |       10858 |
|      85 | 0x2A6B      |       10859 |
|      86 | 0x2A6C      |       10860 |
|      87 | 0x2A6D      |       10861 |
|      88 | 0x2A6E      |       10862 |
|      89 | 0x2A6F      |       10863 |
|      90 | 0x2A70      |       10864 |
|      91 | 0x000B      |          11 |
|      92 | 0x2A71      |       10865 |
|      93 | 0x2A72      |       10866 |
|      94 | 0x2A73      |       10867 |
|      95 | 0x2A74      |       10868 |
|      96 | 0x2A75      |       10869 |
|      97 | 0x2A76      |       10870 |
|      98 | 0x2A77      |       10871 |
|      99 | 0x2A78      |       10872 |
|     100 | 0x2A79      |       10873 |
|     101 | 0x279B      |       10139 |
|     102 | 0x2420      |        9248 |
|     103 | 0x279C      |       10140 |
|     104 | 0x2421      |        9249 |
|     105 | 0x0044      |          68 |
|     106 | 0x2422      |        9250 |
|     107 | 0x0065      |         101 |
|     108 | 0x2423      |        9251 |
|     109 | 0x2417      |        9239 |
|     110 | 0x2418      |        9240 |
|     111 | 0x2419      |        9241 |
|     112 | 0x241A      |        9242 |
|     113 | 0x241B      |        9243 |
|     114 | 0x241C      |        9244 |
|     115 | 0x241D      |        9245 |
|     116 | 0x241E      |        9246 |
|     117 | 0x241F      |        9247 |
|     118 | 0x00C9      |         201 |
|     119 | 0x00C0      |         192 |
|     120 | 0x23E5      |        9189 |
|     121 | 0x23E6      |        9190 |
|     122 | 0x23E7      |        9191 |
|     123 | 0x23E8      |        9192 |
|     124 | 0x23E9      |        9193 |
|     125 | 0x23EA      |        9194 |
|     126 | 0x23EB      |        9195 |
|     127 | 0x23EC      |        9196 |
|     128 | 0x23ED      |        9197 |
|     129 | 0x23EE      |        9198 |
|     130 | 0x23EF      |        9199 |
|     131 | 0x23F0      |        9200 |
|     132 | 0x23F1      |        9201 |
|     133 | 0x23F2      |        9202 |
|     134 | 0x23F3      |        9203 |
|     135 | 0x23F4      |        9204 |
|     136 | 0x23F5      |        9205 |
|     137 | 0x23F6      |        9206 |
|     138 | 0x23F7      |        9207 |
|     139 | 0x23F8      |        9208 |
|     140 | 0x23F9      |        9209 |
|     141 | 0x23FA      |        9210 |
|     142 | 0x23FB      |        9211 |
|     143 | 0x23FC      |        9212 |
|     144 | 0x26B1      |        9905 |
|     145 | 0x26B2      |        9906 |
|     146 | 0x26B3      |        9907 |
|     147 | 0x26B4      |        9908 |
|     148 | 0x26B5      |        9909 |
|     149 | 0x26B6      |        9910 |
|     150 | 0x26B7      |        9911 |
|     151 | 0x26B8      |        9912 |
|     152 | 0x26B9      |        9913 |
|     153 | 0x26BA      |        9914 |
|     154 | 0x26BB      |        9915 |
|     155 | 0x26BC      |        9916 |
|     156 | 0x26BD      |        9917 |
|     157 | 0x26BE      |        9918 |
|     158 | 0x26BF      |        9919 |
|     159 | 0x26C0      |        9920 |
|     160 | 0x26C1      |        9921 |
|     161 | 0x26C2      |        9922 |
|     162 | 0x26C3      |        9923 |
|     163 | 0x26C4      |        9924 |
|     164 | 0x26C5      |        9925 |
|     165 | 0x26C6      |        9926 |
|     166 | 0x0035      |          53 |
|     167 | 0x26C7      |        9927 |
|     168 | 0x26C8      |        9928 |
|     169 | 0x26C9      |        9929 |
|     170 | 0x26CA      |        9930 |
|     171 | 0x26CB      |        9931 |
|     172 | 0x26CC      |        9932 |
|     173 | 0x26CD      |        9933 |
|     174 | 0x26CE      |        9934 |
|     175 | 0x26CF      |        9935 |
|     176 | 0x26D0      |        9936 |
|     177 | 0x26D1      |        9937 |
|     178 | 0x28C3      |       10435 |
|     179 | 0x28C4      |       10436 |
|     180 | 0x28C5      |       10437 |
|     181 | 0x28C6      |       10438 |
|     182 | 0x28C7      |       10439 |
|     183 | 0x28C8      |       10440 |
|     184 | 0x28C9      |       10441 |
|     185 | 0x28CA      |       10442 |
|     186 | 0x28CB      |       10443 |
|     187 | 0x28CC      |       10444 |
|     188 | 0x28CD      |       10445 |
|     189 | 0x28CE      |       10446 |
|     190 | 0x28CF      |       10447 |
|     191 | 0x28D0      |       10448 |
|     192 | 0x28D1      |       10449 |
|     193 | 0x28D2      |       10450 |
|     194 | 0x28D3      |       10451 |
|     195 | 0x28D4      |       10452 |
|     196 | 0x28D5      |       10453 |
|     197 | 0x28D6      |       10454 |
|     198 | 0x28D7      |       10455 |
|     199 | 0x28D8      |       10456 |
|     200 | 0x28D9      |       10457 |
|     201 | 0x28DA      |       10458 |
|     202 | 0x28DB      |       10459 |
|     203 | 0x28DC      |       10460 |
|     204 | 0x28DD      |       10461 |
|     205 | 0x28DE      |       10462 |
|     206 | 0x28DF      |       10463 |
|     207 | 0x28E0      |       10464 |
|     208 | 0x23FD      |        9213 |
|     209 | 0x23FE      |        9214 |
|     210 | 0x23FF      |        9215 |
|     211 | 0x2400      |        9216 |
|     212 | 0x2401      |        9217 |
|     213 | 0x2402      |        9218 |
|     214 | 0x2403      |        9219 |
|     215 | 0x2404      |        9220 |
|     216 | 0xFFFF28F3  |  4294912243 |
|     217 | 0xB271      |       45681 |
|     218 | 0xFFFF29DD  |  4294912477 |
|     219 | 0xB13B      |       45371 |
|     220 | 0x0078      |         120 |
|     221 | 0x234E      |        9038 |
|     222 | 0x234F      |        9039 |
|     223 | 0x2350      |        9040 |
|     224 | 0x2351      |        9041 |
|     225 | 0x2352      |        9042 |
|     226 | 0x2353      |        9043 |
|     227 | 0x2354      |        9044 |
|     228 | 0x2355      |        9045 |
|     229 | 0x2356      |        9046 |
|     230 | 0x2357      |        9047 |
|     231 | 0x2358      |        9048 |
|     232 | 0xFFFF2B35  |  4294912821 |
|     233 | 0xB06B      |       45163 |
|     234 | 0x000F      |          15 |
|     235 | 0x001C      |          28 |
|     236 | 0x2359      |        9049 |
|     237 | 0x005A      |          90 |
|     238 | 0x0014      |          20 |
|     239 | 0x0028      |          40 |
|     240 | 0x23C6      |        9158 |
|     241 | 0x23C7      |        9159 |
|     242 | 0x23D4      |        9172 |
|     243 | 0x23D5      |        9173 |
|     244 | 0x23D6      |        9174 |
|     245 | 0x23D7      |        9175 |
|     246 | 0x23D8      |        9176 |
|     247 | 0x23D9      |        9177 |
|     248 | 0x23DA      |        9178 |
|     249 | 0x23DB      |        9179 |
|     250 | 0x23DC      |        9180 |
|     251 | 0x23DD      |        9181 |
|     252 | 0x23DE      |        9182 |
|     253 | 0x006E      |         110 |
|     254 | 0x235A      |        9050 |
|     255 | 0x235B      |        9051 |
|     256 | 0x235C      |        9052 |
|     257 | 0x235D      |        9053 |
|     258 | 0x2360      |        9056 |
|     259 | 0x2361      |        9057 |
|     260 | 0x2362      |        9058 |
|     261 | 0x2363      |        9059 |
|     262 | 0x2364      |        9060 |
|     263 | 0x235E      |        9054 |
|     264 | 0x235F      |        9055 |
|     265 | 0x2365      |        9061 |
|     266 | 0x2366      |        9062 |
|     267 | 0x2367      |        9063 |
|     268 | 0x2368      |        9064 |
|     269 | 0x2369      |        9065 |
|     270 | 0x236C      |        9068 |
|     271 | 0x236D      |        9069 |
|     272 | 0x236E      |        9070 |
|     273 | 0x236F      |        9071 |
|     274 | 0x2370      |        9072 |
|     275 | 0x236A      |        9066 |
|     276 | 0x236B      |        9067 |
|     277 | 0x2371      |        9073 |
|     278 | 0x2372      |        9074 |
|     279 | 0x2373      |        9075 |
|     280 | 0x2374      |        9076 |
|     281 | 0x2375      |        9077 |
|     282 | 0x2378      |        9080 |
|     283 | 0x2379      |        9081 |
|     284 | 0x237A      |        9082 |
|     285 | 0x237B      |        9083 |
|     286 | 0x237C      |        9084 |
|     287 | 0x2376      |        9078 |
|     288 | 0x2377      |        9079 |
|     289 | 0x237D      |        9085 |
|     290 | 0x237E      |        9086 |
|     291 | 0x237F      |        9087 |
|     292 | 0x2380      |        9088 |
|     293 | 0x2381      |        9089 |
|     294 | 0x2384      |        9092 |
|     295 | 0x2385      |        9093 |
|     296 | 0x2386      |        9094 |
|     297 | 0x2387      |        9095 |
|     298 | 0x2388      |        9096 |
|     299 | 0x2382      |        9090 |
|     300 | 0x2383      |        9091 |
|     301 | 0x2389      |        9097 |
|     302 | 0x238A      |        9098 |
|     303 | 0x238B      |        9099 |
|     304 | 0x238C      |        9100 |
|     305 | 0x238D      |        9101 |
|     306 | 0x2390      |        9104 |
|     307 | 0x2391      |        9105 |
|     308 | 0x2392      |        9106 |
|     309 | 0x2393      |        9107 |
|     310 | 0x2394      |        9108 |
|     311 | 0x238E      |        9102 |
|     312 | 0x238F      |        9103 |
|     313 | 0x2395      |        9109 |
|     314 | 0x2396      |        9110 |
|     315 | 0x2397      |        9111 |
|     316 | 0x2398      |        9112 |
|     317 | 0x2399      |        9113 |
|     318 | 0x239C      |        9116 |
|     319 | 0x239D      |        9117 |
|     320 | 0x239E      |        9118 |
|     321 | 0x239F      |        9119 |
|     322 | 0x23A0      |        9120 |
|     323 | 0x239A      |        9114 |
|     324 | 0x239B      |        9115 |
|     325 | 0x23A1      |        9121 |
|     326 | 0x23A2      |        9122 |
|     327 | 0x23A3      |        9123 |
|     328 | 0x23A4      |        9124 |
|     329 | 0x23A5      |        9125 |
|     330 | 0x23A6      |        9126 |
|     331 | 0x23A7      |        9127 |
|     332 | 0x23A8      |        9128 |
|     333 | 0x23A9      |        9129 |
|     334 | 0x23AE      |        9134 |
|     335 | 0x23AF      |        9135 |
|     336 | 0x23B0      |        9136 |
|     337 | 0x23B1      |        9137 |
|     338 | 0x23B2      |        9138 |
|     339 | 0x23B3      |        9139 |
|     340 | 0x23B4      |        9140 |
|     341 | 0x23B5      |        9141 |
|     342 | 0x23B6      |        9142 |
|     343 | 0x23B7      |        9143 |
|     344 | 0x23AA      |        9130 |
|     345 | 0x23AB      |        9131 |
|     346 | 0x23AC      |        9132 |
|     347 | 0x23AD      |        9133 |
|     348 | 0x23B8      |        9144 |
|     349 | 0x23B9      |        9145 |
|     350 | 0x23DF      |        9183 |
|     351 | 0x23E0      |        9184 |
|     352 | 0x23E1      |        9185 |
|     353 | 0x23E2      |        9186 |
|     354 | 0x23E3      |        9187 |
|     355 | 0x23E4      |        9188 |
|     356 | 0x23BA      |        9146 |
|     357 | 0x23BB      |        9147 |
|     358 | 0x23BC      |        9148 |
|     359 | 0x23BD      |        9149 |
|     360 | 0x23C0      |        9152 |
|     361 | 0x23C1      |        9153 |
|     362 | 0x23C2      |        9154 |
|     363 | 0x23C3      |        9155 |
|     364 | 0x23C4      |        9156 |
|     365 | 0x23BE      |        9150 |
|     366 | 0x23BF      |        9151 |
|     367 | 0x23C5      |        9157 |
|     368 | 0x23C8      |        9160 |
|     369 | 0x23C9      |        9161 |
|     370 | 0x23CA      |        9162 |
|     371 | 0x23CB      |        9163 |
|     372 | 0x23CE      |        9166 |
|     373 | 0x23CF      |        9167 |
|     374 | 0x23D0      |        9168 |
|     375 | 0x23D1      |        9169 |
|     376 | 0x23D2      |        9170 |
|     377 | 0x23CC      |        9164 |
|     378 | 0x23CD      |        9165 |
|     379 | 0x23D3      |        9171 |
|     380 | 0x02D7      |         727 |
|     381 | 0x001B      |          27 |
|     382 | 0xFFFF33A4  |  4294914980 |
|     383 | 0xBE75      |       48757 |
|     384 | 0x05E6      |        1510 |
|     385 | 0x2427      |        9255 |
|     386 | 0xFFFF2F48  |  4294913864 |
|     387 | 0xB452      |       46162 |
|     388 | 0x2428      |        9256 |
|     389 | 0x2429      |        9257 |
|     390 | 0x242A      |        9258 |
|     391 | 0x242B      |        9259 |
|     392 | 0x242C      |        9260 |
|     393 | 0x242D      |        9261 |
|     394 | 0x242E      |        9262 |
|     395 | 0x242F      |        9263 |
|     396 | 0x0055      |          85 |
|     397 | 0x2430      |        9264 |
|     398 | 0x2431      |        9265 |
|     399 | 0x2432      |        9266 |
|     400 | 0x2433      |        9267 |
|     401 | 0x2434      |        9268 |
|     402 | 0x2435      |        9269 |
|     403 | 0x2436      |        9270 |
|     404 | 0x2437      |        9271 |
|     405 | 0x2438      |        9272 |
|     406 | 0x2439      |        9273 |
|     407 | 0x243A      |        9274 |
|     408 | 0x243B      |        9275 |
|     409 | 0x243C      |        9276 |
|     410 | 0x243D      |        9277 |
|     411 | 0x243E      |        9278 |
|     412 | 0x243F      |        9279 |
|     413 | 0x2440      |        9280 |
|     414 | 0x2441      |        9281 |
|     415 | 0x2442      |        9282 |
|     416 | 0x2443      |        9283 |
|     417 | 0x2444      |        9284 |
|     418 | 0x2445      |        9285 |
|     419 | 0xFFFF27AE  |  4294911918 |
|     420 | 0xAF49      |       44873 |
|     421 | 0x0EE4      |        3812 |
|     422 | 0xAFBE      |       44990 |
|     423 | 0xFFFF2BEA  |  4294913002 |
|     424 | 0xAEBC      |       44732 |
|     425 | 0x0E85      |        3717 |
|     426 | 0xFFFF2E8D  |  4294913677 |
|     427 | 0xAE50      |       44624 |
|     428 | 0xFFFF2E46  |  4294913606 |
|     429 | 0xB151      |       45393 |
|     430 | 0xFFFF2C49  |  4294913097 |
|     431 | 0xAE2B      |       44587 |
|     432 | 0xFFFF2E5F  |  4294913631 |
|     433 | 0xB211      |       45585 |
|     434 | 0xFFFF3632  |  4294915634 |
|     435 | 0xB4F0      |       46320 |
|     436 | 0xFFFF2BE8  |  4294913000 |
|     437 | 0xA83A      |       43066 |
|     438 | 0xFFFF2B9E  |  4294912926 |
|     439 | 0xAC21      |       44065 |
|     440 | 0xFFFF3221  |  4294914593 |
|     441 | 0xAC07      |       44039 |
|     442 | 0xFFFF4BF8  |  4294921208 |
|     443 | 0x0099      |         153 |
|     444 | 0xFFFFFE0D  |  4294966797 |
|     445 | 0x059D      |        1437 |
|     446 | 0xFFFF54A4  |  4294923428 |
|     447 | 0xFFFFFC4C  |  4294966348 |
|     448 | 0x00DB      |         219 |
|     449 | 0xFFFF3325  |  4294914853 |
|     450 | 0xB49A      |       46234 |
|     451 | 0xFFFF37E4  |  4294916068 |
|     452 | 0xA178      |       41336 |
|     453 | 0xFFFF35E4  |  4294915556 |
|     454 | 0xA971      |       43377 |
|     455 | 0xFFFF296C  |  4294912364 |
|     456 | 0xAC37      |       44087 |
|     457 | 0xFFFF2928  |  4294912296 |
|     458 | 0xAFC8      |       45000 |
|     459 | 0x7619      |       30233 |
|     460 | 0xFFFF5043  |  4294922307 |
|     461 | 0xFFFFFC19  |  4294966297 |
|     462 | 0x0BC2      |        3010 |
|     463 | 0x6F39      |       28473 |
|     464 | 0xFFFF7365  |  4294931301 |
|     465 | 0x7116      |       28950 |
|     466 | 0xFFFF7084  |  4294930564 |
|     467 | 0xB331      |       45873 |
|     468 | 0x2A7B      |       10875 |
|     469 | 0x2A7C      |       10876 |
|     470 | 0x2A7D      |       10877 |
|     471 | 0x2A7E      |       10878 |
|     472 | 0x2A7F      |       10879 |
|     473 | 0x2A80      |       10880 |
|     474 | 0x2A81      |       10881 |
|     475 | 0x2A82      |       10882 |
|     476 | 0x005F      |          95 |
|     477 | 0x0069      |         105 |
|     478 | 0x0052      |          82 |
|     479 | 0x0057      |          87 |
|     480 | 0x005C      |          92 |
|     481 | 0x0059      |          89 |
|     482 | 0x005D      |          93 |
|     483 | 0x0061      |          97 |
|     484 | 0x0060      |          96 |
|     485 | 0x0012      |          18 |
|     486 | 0x0017      |          23 |
|     487 | 0x000E      |          14 |
|     488 | 0x0018      |          24 |
|     489 | 0x001F      |          31 |
|     490 | 0x0010      |          16 |
|     491 | 0x0015      |          21 |
|     492 | 0x018D      |         397 |
|     493 | 0x0175      |         373 |
|     494 | 0x0170      |         368 |
|     495 | 0x0171      |         369 |
|     496 | 0x014C      |         332 |
|     497 | 0x01C1      |         449 |
|     498 | 0x027C      |         636 |
|     499 | 0x027B      |         635 |
|     500 | 0x027D      |         637 |
|     501 | 0x02D3      |         723 |
|     502 | 0x0321      |         801 |
|     503 | 0x0326      |         806 |
|     504 | 0x01E1      |         481 |
|     505 | 0x0343      |         835 |
|     506 | 0x0386      |         902 |
|     507 | 0x0388      |         904 |
|     508 | 0x0361      |         865 |
|     509 | 0x0387      |         903 |
|     510 | 0x038A      |         906 |
|     511 | 0x003F      |          63 |
|     512 | 0x0282      |         642 |
|     513 | 0x0283      |         643 |
|     514 | 0x0288      |         648 |
|     515 | 0x0289      |         649 |
|     516 | 0x028A      |         650 |
|     517 | 0x028B      |         651 |
|     518 | 0x029E      |         670 |
|     519 | 0x0019      |          25 |
|     520 | 0x00C6      |         198 |
|     521 | 0x00B5      |         181 |
|     522 | 0x008C      |         140 |
|     523 | 0x008E      |         142 |
|     524 | 0x007A      |         122 |
|     525 | 0x014B      |         331 |
|     526 | 0x0148      |         328 |
|     527 | 0x0166      |         358 |
|     528 | 0x017A      |         378 |
|     529 | 0x0182      |         386 |
|     530 | 0x0183      |         387 |
|     531 | 0x0192      |         402 |
|     532 | 0x01DF      |         479 |
|     533 | 0x01E9      |         489 |
|     534 | 0x00E6      |         230 |
|     535 | 0x00EB      |         235 |
|     536 | 0x00F5      |         245 |
|     537 | 0x007E      |         126 |
|     538 | 0x007F      |         127 |
|     539 | 0x00F3      |         243 |
|     540 | 0x00F4      |         244 |
|     541 | 0x00E0      |         224 |
|     542 | 0x00E9      |         233 |
|     543 | 0x009E      |         158 |
|     544 | 0x009D      |         157 |
|     545 | 0x00E2      |         226 |
|     546 | 0x00E1      |         225 |
|     547 | 0x014F      |         335 |
|     548 | 0x014E      |         334 |
|     549 | 0x0167      |         359 |
|     550 | 0x00E5      |         229 |
|     551 | 0x0169      |         361 |
|     552 | 0x016A      |         362 |
|     553 | 0x0168      |         360 |
|     554 | 0x0133      |         307 |
|     555 | 0x0174      |         372 |
|     556 | 0x018C      |         396 |
|     557 | 0x0194      |         404 |
|     558 | 0x0195      |         405 |
|     559 | 0x0178      |         376 |
|     560 | 0x0240      |         576 |
|     561 | 0x0197      |         407 |
|     562 | 0x0198      |         408 |
|     563 | 0x01A3      |         419 |
|     564 | 0x019E      |         414 |
|     565 | 0x0246      |         582 |
|     566 | 0x0247      |         583 |
|     567 | 0x0248      |         584 |
|     568 | 0x024B      |         587 |
|     569 | 0x024A      |         586 |
|     570 | 0x0011      |          17 |
|     571 | 0x024F      |         591 |
|     572 | 0x01C3      |         451 |
|     573 | 0x01C4      |         452 |
|     574 | 0x01EF      |         495 |
|     575 | 0x01F0      |         496 |
|     576 | 0x001A      |          26 |
|     577 | 0x0095      |         149 |
|     578 | 0x001D      |          29 |
|     579 | 0x0073      |         115 |
|     580 | 0x0024      |          36 |
|     581 | 0x005E      |          94 |
|     582 | 0x0072      |         114 |
|     583 | 0x0031      |          49 |
|     584 | 0x006C      |         108 |
|     585 | 0x003A      |          58 |
|     586 | 0x0016      |          22 |
|     587 | 0x0085      |         133 |
|     588 | 0x0081      |         129 |
|     589 | 0x0023      |          35 |
|     590 | 0x0082      |         130 |
|     591 | 0x0039      |          57 |
|     592 | 0x0020      |          32 |
|     593 | 0x0038      |          56 |
|     594 | 0x0036      |          54 |
|     595 | 0x0083      |         131 |
|     596 | 0x00A2      |         162 |
|     597 | 0x0022      |          34 |
|     598 | 0x0021      |          33 |
|     599 | 0x0086      |         134 |
|     600 | 0x0062      |          98 |
|     601 | 0x008D      |         141 |
|     602 | 0x0037      |          55 |
|     603 | 0x008A      |         138 |
|     604 | 0x008B      |         139 |
|     605 | 0x002B      |          43 |
|     606 | 0x0067      |         103 |
|     607 | 0x002D      |          45 |
|     608 | 0x00A1      |         161 |
|     609 | 0x0066      |         102 |
|     610 | 0x0075      |         117 |
|     611 | 0x0068      |         104 |
|     612 | 0x007B      |         123 |
|     613 | 0x0077      |         119 |
|     614 | 0x01FE      |         510 |
|     615 | 0x009F      |         159 |
|     616 | 0x00A4      |         164 |
|     617 | 0x00A9      |         169 |
|     618 | 0x00AC      |         172 |
|     619 | 0x00B2      |         178 |
|     620 | 0x00B0      |         176 |
|     621 | 0x013D      |         317 |
|     622 | 0x0108      |         264 |
|     623 | 0x010C      |         268 |
|     624 | 0x0100      |         256 |
|     625 | 0x00FB      |         251 |
|     626 | 0x00B8      |         184 |
|     627 | 0x011C      |         284 |
|     628 | 0x0041      |          65 |
|     629 | 0x0042      |          66 |
|     630 | 0x0047      |          71 |
|     631 | 0x0160      |         352 |
|     632 | 0x0043      |          67 |
|     633 | 0x0048      |          72 |
|     634 | 0x004B      |          75 |
|     635 | 0x004C      |          76 |
|     636 | 0x004D      |          77 |
|     637 | 0x005B      |          91 |
|     638 | 0x0058      |          88 |
|     639 | 0x0053      |          83 |
|     640 | 0x0054      |          84 |
|     641 | 0x0161      |         353 |
|     642 | 0x015C      |         348 |
|     643 | 0x016D      |         365 |
|     644 | 0x00C5      |         197 |
|     645 | 0x00C3      |         195 |
|     646 | 0x00C7      |         199 |
|     647 | 0x015E      |         350 |
|     648 | 0x00C4      |         196 |
|     649 | 0x016E      |         366 |
|     650 | 0x00D0      |         208 |
|     651 | 0x00CD      |         205 |
|     652 | 0x00CA      |         202 |
|     653 | 0x00D2      |         210 |
|     654 | 0x00D8      |         216 |
|     655 | 0x00D5      |         213 |
|     656 | 0x00D6      |         214 |
|     657 | 0x013B      |         315 |
|     658 | 0x0136      |         310 |
|     659 | 0x013A      |         314 |
|     660 | 0x0137      |         311 |
|     661 | 0x016F      |         367 |
|     662 | 0x0138      |         312 |
|     663 | 0x0139      |         313 |
|     664 | 0x009A      |         154 |
|     665 | 0x0091      |         145 |
|     666 | 0x009B      |         155 |
|     667 | 0x0093      |         147 |
|     668 | 0x0092      |         146 |
|     669 | 0x0098      |         152 |
|     670 | 0x0071      |         113 |
|     671 | 0x00E8      |         232 |
|     672 | 0x00DD      |         221 |
|     673 | 0x00F8      |         248 |
|     674 | 0x00F1      |         241 |
|     675 | 0x0124      |         292 |
|     676 | 0x012E      |         302 |
|     677 | 0x0129      |         297 |
|     678 | 0x0122      |         290 |
|     679 | 0x0132      |         306 |
|     680 | 0x0126      |         294 |
|     681 | 0x0155      |         341 |
|     682 | 0x0025      |          37 |
|     683 | 0x0029      |          41 |
|     684 | 0x007D      |         125 |
|     685 | 0x0079      |         121 |
|     686 | 0x007C      |         124 |
|     687 | 0x0074      |         116 |
|     688 | 0x00EC      |         236 |
|     689 | 0x019C      |         412 |
|     690 | 0x0193      |         403 |
|     691 | 0x01C6      |         454 |
|     692 | 0x01C7      |         455 |
|     693 | 0x2B70      |       11120 |
|     694 | 0x2B75      |       11125 |
|     695 | 0x2B76      |       11126 |
|     696 | 0x2B77      |       11127 |

## String References

- **8814**: There're so many people in this town. It takes me by surprrrise no matter how many times I come here.
- **8815**: All this activity makes it difficult to get anything done. It's enough to make my whiskers curl.
- **8816**: I don't think you'd be able to help me out, though. Why don't you rrrun along?
- **8900**: Must be harrrd to have a child go missing.
- **8901**: But I have no time for family drrramas. Missing treasure would be a whole other story, of course.
- **8996**: The scent of treasure on you is making my nose twitch. Some people have all the luck...
- **9036**: That mirror should hold powers similar to the Glass of All-Seeing.
- **9037**: Sends a thrill down my spine...
- **9038**: Welcome back. How did everything go?
- **9039**: Can I assume frrrom the look on your face that you found the mirror?
- **9040**: Well, aren't you going to show it to me?
- **9041**: It's cracked!? You can't be serrrious!
- **9042**: If it was to save <Player>'s life, I suppose you had no choice...
- **9043**: I asked you to trrrack down the mirror, even though there were dangers involved. I'm in no position to crrriticize.
- **9044**: You say it was feeding power to a drrragon? What a dreadful object.
- **9045**: It is beautiful, though...
- **9046**: Mirrors have always held a fascination for me, you see.
- **9047**: It's satisfying just to know that the trrreasure I was searching for actually existed.
- **9048**: But even with these cracks, we must treat the mirror with caution. Who knows what other secrrrets it may hide?
- **9049**: I'll look after it for the time being.
- **9158**: I love to see new friendships forrrming. I'm getting kind of misty here...
- **9159**: Don't forget to help out your old pal Luto from time to time!
- **9174**: You can now call on [Feliz/Ferdinand/Gunnar/Massimo/Oldrich/Siegward/Theobald/Zenji] as your adventuring fellow!
- **9175**: You can now call on [Amerita/Beatrice/Henrietta/Jesimae/Karyn/Nanako/Sharlene/Sieghilde] as your adventuring fellow!
- **9176**: You can now call on [Chanandit/Deulmaeux/Demresinaux/Ephealgaux/Gauldeval/Grauffemart/Migaifongut/Romidiant] as your adventuring fellow!
- **9177**: You can now call on [Armittie/Cadepure/Clearite/Epilleve/Liabelle/Nauthima/Radille/Vimechue] as your adventuring fellow!
- **9178**: You can now call on [Balu-Falu/Burg-Ladarg/Ehgo-Ryuhgo/Kolui-Pelui/Nokum-Akkum/Savul-Kivul/Vinja-Kanja/Yarga-Umiga] as your adventuring fellow!
- **9179**: You can now call on [Cupapa/Jajuju/Kalokoko/Mahoyaya/Pakurara/Ripokeke/Yawawa/Yufafa] as your adventuring fellow!
- **9180**: You can now call on [Fhig Lahrv/Khuma Tagyawhan/Pimy Kettihl/Raka Maimhov/Sahyu Banjyao/Sufhi Uchnouma/Tsuim Nhomango/Yoli Kohlpaka] as your adventuring fellow!
- **9181**: You can now call on [Durib/Dzapiwa/Jugowa/Mugido/Voldai/Wagwei/Zayag/Zoldof] as your adventuring fellow!
- **9182**: An adventuring fellow can only be called when the total number of current party members and adventuring fellows is five or less.
- **9189**: <Player>, I have a question for you. How do you go about choosing a weapon?
- **9190**: I met [Feliz/Ferdinand/Gunnar/Massimo/Oldrich/Siegward/Theobald/Zenji] at the weapon store earlier, and he said that he always makes his decision after using the weapon or shield in real combat.
- **9191**: I met [Amerita/Beatrice/Henrietta/Jesimae/Karyn/Nanako/Sharlene/Sieghilde] at the weapon store earlier, and she said that she always makes her decision after using the weapon or shield in real combat.
- **9192**: I met [Chanandit/Deulmaeux/Demresinaux/Ephealgaux/Gauldeval/Grauffemart/Migaifongut/Romidiant] at the weapon store earlier, and he said that he always makes his decision after using the weapon or shield in real combat.
- **9193**: I met [Armittie/Cadepure/Clearite/Epilleve/Liabelle/Nauthima/Radille/Vimechue] at the weapon store earlier, and she said that she always makes her decision after using the weapon or shield in real combat.
- **9194**: I met [Balu-Falu/Burg-Ladarg/Ehgo-Ryuhgo/Kolui-Pelui/Nokum-Akkum/Savul-Kivul/Vinja-Kanja/Yarga-Umiga] at the weapon store earlier, and he said that he always makes his decision after using the weapon or shield in real combat.
- **9195**: I met [Cupapa/Jajuju/Kalokoko/Mahoyaya/Pakurara/Ripokeke/Yawawa/Yufafa] at the weapon store earlier, and she said that she always makes her decision after using the weapon or shield in real combat.
- **9196**: I met [Fhig Lahrv/Khuma Tagyawhan/Pimy Kettihl/Raka Maimhov/Sahyu Banjyao/Sufhi Uchnouma/Tsuim Nhomango/Yoli Kohlpaka] at the weapon store earlier, and she said that she always makes her decision after using the weapon or shield in real combat.
- **9197**: I met [Durib/Dzapiwa/Jugowa/Mugido/Voldai/Wagwei/Zayag/Zoldof] at the weapon store earlier, and he said that he always makes his decision after using the weapon or shield in real combat.
- **9198**: While that does make sense in theory, I shudder to think how much gil you would go through if you couldn't make up your mind. Anyway, I didn't notice any new weapons being bought by our mutual friend...
- **9199**: Here's an idea. If you have any spare weapons lying arrround, why don't you lend them to [him/her/him/her/him/her/her/him]?
- **9200**: But rrrather than just handing over some expensive axe or jeweled dagger, why not start with some beginner's gear for prrractice?
- **9201**: If you leave the weapon with me, I'll be happy to make sure it gets to [him/her/him/her/him/her/her/him].
- **9202**: You can trrrust me! I'm only interested in trrreasure. The weapon will get to [him/her/him/her/him/her/her/him].
- **9203**: Hi, <Player>. [Feliz/Ferdinand/Gunnar/Massimo/Oldrich/Siegward/Theobald/Zenji] told me he was thinking about upgrading his weapon.
- **9204**: Hi, <Player>. [Amerita/Beatrice/Henrietta/Jesimae/Karyn/Nanako/Sharlene/Sieghilde] told me she was thinking about upgrading her weapon.
- **9205**: Hi, <Player>. [Chanandit/Deulmaeux/Demresinaux/Ephealgaux/Gauldeval/Grauffemart/Migaifongut/Romidiant] told me he was thinking about upgrading his weapon.
- **9206**: Hi, <Player>. [Armittie/Cadepure/Clearite/Epilleve/Liabelle/Nauthima/Radille/Vimechue] told me she was thinking about upgrading her weapon.
- **9207**: Hi, <Player>. [Balu-Falu/Burg-Ladarg/Ehgo-Ryuhgo/Kolui-Pelui/Nokum-Akkum/Savul-Kivul/Vinja-Kanja/Yarga-Umiga] told me he was thinking about upgrading his weapon.
- **9208**: Hi, <Player>. [Cupapa/Jajuju/Kalokoko/Mahoyaya/Pakurara/Ripokeke/Yawawa/Yufafa] told me she was thinking about upgrading her weapon.
- **9209**: Hi, <Player>. [Fhig Lahrv/Khuma Tagyawhan/Pimy Kettihl/Raka Maimhov/Sahyu Banjyao/Sufhi Uchnouma/Tsuim Nhomango/Yoli Kohlpaka] told me she was thinking about upgrading her weapon.
- **9210**: Hi, <Player>. [Durib/Dzapiwa/Jugowa/Mugido/Voldai/Wagwei/Zayag/Zoldof] told me he was thinking about upgrading his weapon.
- **9211**: I still sensed some serrrious confusion, though.
- **9212**: Why don't you help [him/her/him/her/him/her/her/him] out and leave a new weapon or shield with me?
- **9213**: You want to give $1 to [Feliz/Ferdinand/Gunnar/Massimo/Oldrich/Siegward/Theobald/Zenji]? Okay, I'll make sure he gets your gift.
- **9214**: You want to give $1 to [Amerita/Beatrice/Henrietta/Jesimae/Karyn/Nanako/Sharlene/Sieghilde]? Okay, I'll make sure she gets your gift.
- **9215**: You want to give $1 to [Chanandit/Deulmaeux/Demresinaux/Ephealgaux/Gauldeval/Grauffemart/Migaifongut/Romidiant]? Okay, I'll make sure he gets your gift.
- **9216**: You want to give $1 to [Armittie/Cadepure/Clearite/Epilleve/Liabelle/Nauthima/Radille/Vimechue]? Okay, I'll make sure she gets your gift.
- **9217**: You want to give $1 to [Balu-Falu/Burg-Ladarg/Ehgo-Ryuhgo/Kolui-Pelui/Nokum-Akkum/Savul-Kivul/Vinja-Kanja/Yarga-Umiga]? Okay, I'll make sure he gets your gift.
- **9218**: You want to give $1 to [Cupapa/Jajuju/Kalokoko/Mahoyaya/Pakurara/Ripokeke/Yawawa/Yufafa]? Okay, I'll make sure she gets your gift.
- **9219**: You want to give $1 to [Fhig Lahrv/Khuma Tagyawhan/Pimy Kettihl/Raka Maimhov/Sahyu Banjyao/Sufhi Uchnouma/Tsuim Nhomango/Yoli Kohlpaka]? Okay, I'll make sure she gets your gift.
- **9220**: You want to give $1 to [Durib/Dzapiwa/Jugowa/Mugido/Voldai/Wagwei/Zayag/Zoldof]? Okay, I'll make sure he gets your gift.
- **9222**: What can I do for you?
- **9223**: What's up? [Anything new happening?/I want to start over.]
- **9224**: Hmmm. Nothing at the moment. Check back with me again later.
- **9225**: Are you serrrious?
- **9226**: Are you serious? [Dead serious./No, not really.]
- **9227**: Well, if you're serrrious, then you'll have to forget everything I've told you. You'll also lose all ties with [Feliz/Ferdinand/Gunnar/Massimo/Oldrich/Siegward/Theobald/Zenji].
- **9228**: Well, if you're serrrious, then you'll have to forget everything I've told you. You'll also lose all ties with [Amerita/Beatrice/Henrietta/Jesimae/Karyn/Nanako/Sharlene/Sieghilde].
- **9229**: Well, if you're serrrious, then you'll have to forget everything I've told you. You'll also lose all ties with [Chanandit/Deulmaeux/Demresinaux/Ephealgaux/Gauldeval/Grauffemart/Migaifongut/Romidiant].
- **9230**: Well, if you're serrrious, then you'll have to forget everything I've told you. You'll also lose all ties with [Armittie/Cadepure/Clearite/Epilleve/Liabelle/Nauthima/Radille/Vimechue].
- **9231**: Well, if you're serrrious, then you'll have to forget everything I've told you. You'll also lose all ties with [Balu-Falu/Burg-Ladarg/Ehgo-Ryuhgo/Kolui-Pelui/Nokum-Akkum/Savul-Kivul/Vinja-Kanja/Yarga-Umiga].
- **9232**: Well, if you're serrrious, then you'll have to forget everything I've told you. You'll also lose all ties with [Cupapa/Jajuju/Kalokoko/Mahoyaya/Pakurara/Ripokeke/Yawawa/Yufafa].
- **9233**: Well, if you're serrrious, then you'll have to forget everything I've told you. You'll also lose all ties with [Fhig Lahrv/Khuma Tagyawhan/Pimy Kettihl/Raka Maimhov/Sahyu Banjyao/Sufhi Uchnouma/Tsuim Nhomango/Yoli Kohlpaka].
- **9234**: Well, if you're serrrious, then you'll have to forget everything I've told you. You'll also lose all ties with [Durib/Dzapiwa/Jugowa/Mugido/Voldai/Wagwei/Zayag/Zoldof].
- **9235**: You'll never see [him/her/him/her/him/her/her/him] again. Are you okay with that?
- **9236**: Are you okay with that? [Doesn't bother me./Never? Wait a minute...]
- **9237**: Please don't play games with me, <Player>.
- **9238**: Fine. Hand over the $1 and we'll forget any of this ever happened.
- **9239**: Say your farewells to [Feliz/Ferdinand/Gunnar/Massimo/Oldrich/Siegward/Theobald/Zenji]...
- **9240**: Say your farewells to [Amerita/Beatrice/Henrietta/Jesimae/Karyn/Nanako/Sharlene/Sieghilde]...
- **9241**: Say your farewells to [Chanandit/Deulmaeux/Demresinaux/Ephealgaux/Gauldeval/Grauffemart/Migaifongut/Romidiant]...
- **9242**: Say your farewells to [Armittie/Cadepure/Clearite/Epilleve/Liabelle/Nauthima/Radille/Vimechue]...
- **9243**: Say your farewells to [Balu-Falu/Burg-Ladarg/Ehgo-Ryuhgo/Kolui-Pelui/Nokum-Akkum/Savul-Kivul/Vinja-Kanja/Yarga-Umiga]...
- **9244**: Say your farewells to [Cupapa/Jajuju/Kalokoko/Mahoyaya/Pakurara/Ripokeke/Yawawa/Yufafa]...
- **9245**: Say your farewells to [Fhig Lahrv/Khuma Tagyawhan/Pimy Kettihl/Raka Maimhov/Sahyu Banjyao/Sufhi Uchnouma/Tsuim Nhomango/Yoli Kohlpaka]...
- **9246**: Say your farewells to [Durib/Dzapiwa/Jugowa/Mugido/Voldai/Wagwei/Zayag/Zoldof]...
- **9247**: Now, fix your eyes on this for me...
- **9248**: Returning the $1 will errrase all that has happened between us. Are you certain you want to go through with this?
- **9249**: Are you certain? [Maybe not.../Positively.]
- **9250**: Well, I'm glad to hear that, <Player>. Don't you ever scare me like that again!
- **9251**: I see you've made up your mind.
- **9252**: Thanks to you, I got my paws on some great information. Be in touch.
- **9285**: You go on ahead. I'll meet you in Ru'Lude Gardens.
- **9783**: Look for a book on Near Eastern mirrors in the Windurst Optistery.
- **9903**: We have to find Palometa. She could be our only clue...
- **9905**: Oh, <Player>. About [Feliz/Ferdinand/Gunnar/Massimo/Oldrich/Siegward/Theobald/Zenji]'s weapon...
- **9906**: Oh, <Player>. About [Amerita/Beatrice/Henrietta/Jesimae/Karyn/Nanako/Sharlene/Sieghilde]'s weapon...
- **9907**: Oh, <Player>. About [Chanandit/Deulmaeux/Demresinaux/Ephealgaux/Gauldeval/Grauffemart/Migaifongut/Romidiant]'s weapon...
- **9908**: Oh, <Player>. About [Armittie/Cadepure/Clearite/Epilleve/Liabelle/Nauthima/Radille/Vimechue]'s weapon...
- **9909**: Oh, <Player>. About [Balu-Falu/Burg-Ladarg/Ehgo-Ryuhgo/Kolui-Pelui/Nokum-Akkum/Savul-Kivul/Vinja-Kanja/Yarga-Umiga]'s weapon...
- **9910**: Oh, <Player>. About [Cupapa/Jajuju/Kalokoko/Mahoyaya/Pakurara/Ripokeke/Yawawa/Yufafa]'s weapon...
- **9911**: Oh, <Player>. About [Fhig Lahrv/Khuma Tagyawhan/Pimy Kettihl/Raka Maimhov/Sahyu Banjyao/Sufhi Uchnouma/Tsuim Nhomango/Yoli Kohlpaka]'s weapon...
- **9912**: Oh, <Player>. About [Durib/Dzapiwa/Jugowa/Mugido/Voldai/Wagwei/Zayag/Zoldof]'s weapon...
- **9913**: I think your pal is looking for a new one again. If the weapons I hand over don't make an impression, they don't get used, it seems.
- **9914**: What's happening to the weapons that don't get used? I don't know, but I certainly hope your gifts aren't being sold off!
- **9915**: If you still wish to pass on weapons or shields thrrrough me, I'll be glad to help.
- **9916**: <Player>, have you met with [Feliz/Ferdinand/Gunnar/Massimo/Oldrich/Siegward/Theobald/Zenji] lately? It appears he's rrreally coming along as an adventurer.
- **9917**: <Player>, have you met with [Amerita/Beatrice/Henrietta/Jesimae/Karyn/Nanako/Sharlene/Sieghilde] lately? It appears she's rrreally coming along as an adventurer.
- **9918**: <Player>, have you met with [Chanandit/Deulmaeux/Demresinaux/Ephealgaux/Gauldeval/Grauffemart/Migaifongut/Romidiant] lately? It appears he's rrreally coming along as an adventurer.
- **9919**: <Player>, have you met with [Armittie/Cadepure/Clearite/Epilleve/Liabelle/Nauthima/Radille/Vimechue] lately? It appears she's rrreally coming along as an adventurer.
- **9920**: <Player>, have you met with [Balu-Falu/Burg-Ladarg/Ehgo-Ryuhgo/Kolui-Pelui/Nokum-Akkum/Savul-Kivul/Vinja-Kanja/Yarga-Umiga] lately? It appears he's rrreally coming along as an adventurer.
- **9921**: <Player>, have you met with [Cupapa/Jajuju/Kalokoko/Mahoyaya/Pakurara/Ripokeke/Yawawa/Yufafa] lately? It appears she's rrreally coming along as an adventurer.
- **9922**: <Player>, have you met with [Fhig Lahrv/Khuma Tagyawhan/Pimy Kettihl/Raka Maimhov/Sahyu Banjyao/Sufhi Uchnouma/Tsuim Nhomango/Yoli Kohlpaka] lately? It appears she's rrreally coming along as an adventurer.
- **9923**: <Player>, have you met with [Durib/Dzapiwa/Jugowa/Mugido/Voldai/Wagwei/Zayag/Zoldof] lately? It appears he's rrreally coming along as an adventurer.
- **9924**: I thought a new weapon or shield would make a nice gift in thanks for all the hard work your frrriend has done for me.
- **9925**: But then I rrrealized I have absolutely no idea when it comes to weapons. Do you think you could find something suitable for me?
- **9926**: Then it would be like a prrresent from the both of us! Wouldn't that be nice?
- **9927**: <Player>, the weapon that [Feliz/Ferdinand/Gunnar/Massimo/Oldrich/Siegward/Theobald/Zenji] is using is not the one that I gave him...
- **9928**: <Player>, the weapon that [Amerita/Beatrice/Henrietta/Jesimae/Karyn/Nanako/Sharlene/Sieghilde] is using is not the one that I gave her...
- **9929**: <Player>, the weapon that [Chanandit/Deulmaeux/Demresinaux/Ephealgaux/Gauldeval/Grauffemart/Migaifongut/Romidiant] is using is not the one that I gave him...
- **9930**: <Player>, the weapon that [Armittie/Cadepure/Clearite/Epilleve/Liabelle/Nauthima/Radille/Vimechue] is using is not the one that I gave her...
- **9931**: <Player>, the weapon that [Balu-Falu/Burg-Ladarg/Ehgo-Ryuhgo/Kolui-Pelui/Nokum-Akkum/Savul-Kivul/Vinja-Kanja/Yarga-Umiga] is using is not the one that I gave him...
- **9932**: <Player>, the weapon that [Cupapa/Jajuju/Kalokoko/Mahoyaya/Pakurara/Ripokeke/Yawawa/Yufafa] is using is not the one that I gave her...
- **9933**: <Player>, the weapon that [Fhig Lahrv/Khuma Tagyawhan/Pimy Kettihl/Raka Maimhov/Sahyu Banjyao/Sufhi Uchnouma/Tsuim Nhomango/Yoli Kohlpaka] is using is not the one that I gave her...
- **9934**: <Player>, the weapon that [Durib/Dzapiwa/Jugowa/Mugido/Voldai/Wagwei/Zayag/Zoldof] is using is not the one that I gave him...
- **9935**: Was there something wrong with my gift!? I think I'm insulted!
- **9936**: Wasn't that a prrresent from the both of us, you ask? Well, I had meant to explain that when I handed over the gift...
- **9937**: I'll be sure to mention it next time! Well? What are you waiting for? We need to find a weapon that won't be rrrejected!
- **10136**: 3 is a malleable metal. I need you to bring me a sample.
- **10137**: Once we find this spring of clear water, our prrreparations will be complete.
- **10138**: Palometa still hasn't opened her eyes. I wish I knew how to help her...
- **10139**: Fine. Hand over the $1 and the $2 and we'll forget any of this ever happened.
- **10140**: Hand over the $1 and the $2 and we'll forget any of this ever happened. Are you certain you want to go through with this?
- **10435**: <Player>. I didn't want to believe my eyes, but...
- **10436**: I saw [Feliz/Ferdinand/Gunnar/Massimo/Oldrich/Siegward/Theobald/Zenji] going into a weapon store carrying one of our gifts...
- **10437**: I saw [Amerita/Beatrice/Henrietta/Jesimae/Karyn/Nanako/Sharlene/Sieghilde] going into a weapon store carrying one of our gifts...
- **10438**: I saw [Chanandit/Deulmaeux/Demresinaux/Ephealgaux/Gauldeval/Grauffemart/Migaifongut/Romidiant] going into a weapon store carrying one of our gifts...
- **10439**: I saw [Armittie/Cadepure/Clearite/Epilleve/Liabelle/Nauthima/Radille/Vimechue] going into a weapon store carrying one of our gifts...
- **10440**: I saw [Balu-Falu/Burg-Ladarg/Ehgo-Ryuhgo/Kolui-Pelui/Nokum-Akkum/Savul-Kivul/Vinja-Kanja/Yarga-Umiga] going into a weapon store carrying one of our gifts...
- **10441**: I saw [Cupapa/Jajuju/Kalokoko/Mahoyaya/Pakurara/Ripokeke/Yawawa/Yufafa] going into a weapon store carrying one of our gifts...
- **10442**: I saw [Fhig Lahrv/Khuma Tagyawhan/Pimy Kettihl/Raka Maimhov/Sahyu Banjyao/Sufhi Uchnouma/Tsuim Nhomango/Yoli Kohlpaka] going into a weapon store carrying one of our gifts...
- **10443**: I saw [Durib/Dzapiwa/Jugowa/Mugido/Voldai/Wagwei/Zayag/Zoldof] going into a weapon store carrying one of our gifts...
- **10444**: Why would someone want to visit a weapon store after rrreceiving such fine prrresents from us?
- **10445**: If you still wish to give [Feliz/Ferdinand/Gunnar/Massimo/Oldrich/Siegward/Theobald/Zenji] new weapons or shields, I'll gladly handle the deliveries. Just keep in mind that they might not be going to good use...
- **10446**: If you still wish to give [Amerita/Beatrice/Henrietta/Jesimae/Karyn/Nanako/Sharlene/Sieghilde] new weapons or shields, I'll gladly handle the deliveries. Just keep in mind that they might not be going to good use...
- **10447**: If you still wish to give [Chanandit/Deulmaeux/Demresinaux/Ephealgaux/Gauldeval/Grauffemart/Migaifongut/Romidiant] new weapons or shields, I'll gladly handle the deliveries. Just keep in mind that they might not be going to good use...
- **10448**: If you still wish to give [Armittie/Cadepure/Clearite/Epilleve/Liabelle/Nauthima/Radille/Vimechue] new weapons or shields, I'll gladly handle the deliveries. Just keep in mind that they might not be going to good use...
- **10449**: If you still wish to give [Balu-Falu/Burg-Ladarg/Ehgo-Ryuhgo/Kolui-Pelui/Nokum-Akkum/Savul-Kivul/Vinja-Kanja/Yarga-Umiga] new weapons or shields, I'll gladly handle the deliveries. Just keep in mind that they might not be going to good use...
- **10450**: If you still wish to give [Cupapa/Jajuju/Kalokoko/Mahoyaya/Pakurara/Ripokeke/Yawawa/Yufafa] new weapons or shields, I'll gladly handle the deliveries. Just keep in mind that they might not be going to good use...
- **10451**: If you still wish to give [Fhig Lahrv/Khuma Tagyawhan/Pimy Kettihl/Raka Maimhov/Sahyu Banjyao/Sufhi Uchnouma/Tsuim Nhomango/Yoli Kohlpaka] new weapons or shields, I'll gladly handle the deliveries. Just keep in mind that they might not be going to good use...
- **10452**: If you still wish to give [Durib/Dzapiwa/Jugowa/Mugido/Voldai/Wagwei/Zayag/Zoldof] new weapons or shields, I'll gladly handle the deliveries. Just keep in mind that they might not be going to good use...
- **10453**: Hi, <Player>. Guess what I saw the other day? There was a moogle wandering along carrying some weapon.
- **10454**: The moogle must take good care of it, because it was the polished gleam that caught my eye. He seemed to be on his way to a Mog House.
- **10455**: I heard him mutter something like, "I must take care of my master's favorite weapon, kupo!"
- **10456**: Anyway, I gave his antenna-thing a little flick as he walked past. What? I couldn't help myself...
- **10457**: Oh, that rrreminds me. If you have anything to hand to [Feliz/Ferdinand/Gunnar/Massimo/Oldrich/Siegward/Theobald/Zenji], I'll be happy to do the honors.
- **10458**: Oh, that rrreminds me. If you have anything to hand to [Amerita/Beatrice/Henrietta/Jesimae/Karyn/Nanako/Sharlene/Sieghilde], I'll be happy to do the honors.
- **10459**: Oh, that rrreminds me. If you have anything to hand to [Chanandit/Deulmaeux/Demresinaux/Ephealgaux/Gauldeval/Grauffemart/Migaifongut/Romidiant], I'll be happy to do the honors.
- **10460**: Oh, that rrreminds me. If you have anything to hand to [Armittie/Cadepure/Clearite/Epilleve/Liabelle/Nauthima/Radille/Vimechue], I'll be happy to do the honors.
- **10461**: Oh, that rrreminds me. If you have anything to hand to [Balu-Falu/Burg-Ladarg/Ehgo-Ryuhgo/Kolui-Pelui/Nokum-Akkum/Savul-Kivul/Vinja-Kanja/Yarga-Umiga], I'll be happy to do the honors.
- **10462**: Oh, that rrreminds me. If you have anything to hand to [Cupapa/Jajuju/Kalokoko/Mahoyaya/Pakurara/Ripokeke/Yawawa/Yufafa], I'll be happy to do the honors.
- **10463**: Oh, that rrreminds me. If you have anything to hand to [Fhig Lahrv/Khuma Tagyawhan/Pimy Kettihl/Raka Maimhov/Sahyu Banjyao/Sufhi Uchnouma/Tsuim Nhomango/Yoli Kohlpaka], I'll be happy to do the honors.
- **10464**: Oh, that rrreminds me. If you have anything to hand to [Durib/Dzapiwa/Jugowa/Mugido/Voldai/Wagwei/Zayag/Zoldof], I'll be happy to do the honors.
- **10853**: Palometa is rrresting at the Neptune's Spire in Lower Jeuno. Would you mind checking up on her?
- **10854**: Maybe you should find this guardian spirit and ask about the Glass of All-Seeing.
- **10855**: Hm? Yes, I gave the Mirror of Blighted Gloom to Palometa alrrready.
- **10856**: [Feliz/Ferdinand/Gunnar/Massimo/Oldrich/Siegward/Theobald/Zenji] says that the power of the mirror is still unstable.
- **10857**: [Amerita/Beatrice/Henrietta/Jesimae/Karyn/Nanako/Sharlene/Sieghilde] says that the power of the mirror is still unstable.
- **10858**: [Chanandit/Deulmaeux/Demresinaux/Ephealgaux/Gauldeval/Grauffemart/Migaifongut/Romidiant] says that the power of the mirror is still unstable.
- **10859**: [Armittie/Cadepure/Clearite/Epilleve/Liabelle/Nauthima/Radille/Vimechue] says that the power of the mirror is still unstable.
- **10860**: [Balu-Falu/Burg-Ladarg/Ehgo-Ryuhgo/Kolui-Pelui/Nokum-Akkum/Savul-Kivul/Vinja-Kanja/Yarga-Umiga] says that the power of the mirror is still unstable.
- **10861**: [Cupapa/Jajuju/Kalokoko/Mahoyaya/Pakurara/Ripokeke/Yawawa/Yufafa] says that the power of the mirror is still unstable.
- **10862**: [Fhig Lahrv/Khuma Tagyawhan/Pimy Kettihl/Raka Maimhov/Sahyu Banjyao/Sufhi Uchnouma/Tsuim Nhomango/Yoli Kohlpaka] says that the power of the mirror is still unstable.
- **10863**: [Durib/Dzapiwa/Jugowa/Mugido/Voldai/Wagwei/Zayag/Zoldof] says that the power of the mirror is still unstable.
- **10864**: I'm prrretty sure the place where the mirror showed Palometa was the Qu'Bia Arena...
- **10865**: Shouldn't you be off to the Neptune's Spire to see [Feliz/Ferdinand/Gunnar/Massimo/Oldrich/Siegward/Theobald/Zenji]?
- **10866**: Shouldn't you be off to the Neptune's Spire to see [Amerita/Beatrice/Henrietta/Jesimae/Karyn/Nanako/Sharlene/Sieghilde]?
- **10867**: Shouldn't you be off to the Neptune's Spire to see [Chanandit/Deulmaeux/Demresinaux/Ephealgaux/Gauldeval/Grauffemart/Migaifongut/Romidiant]?
- **10868**: Shouldn't you be off to the Neptune's Spire to see [Armittie/Cadepure/Clearite/Epilleve/Liabelle/Nauthima/Radille/Vimechue]?
- **10869**: Shouldn't you be off to the Neptune's Spire to see [Balu-Falu/Burg-Ladarg/Ehgo-Ryuhgo/Kolui-Pelui/Nokum-Akkum/Savul-Kivul/Vinja-Kanja/Yarga-Umiga]?
- **10870**: Shouldn't you be off to the Neptune's Spire to see [Cupapa/Jajuju/Kalokoko/Mahoyaya/Pakurara/Ripokeke/Yawawa/Yufafa]?
- **10871**: Shouldn't you be off to the Neptune's Spire to see [Fhig Lahrv/Khuma Tagyawhan/Pimy Kettihl/Raka Maimhov/Sahyu Banjyao/Sufhi Uchnouma/Tsuim Nhomango/Yoli Kohlpaka]?
- **10872**: Shouldn't you be off to the Neptune's Spire to see [Durib/Dzapiwa/Jugowa/Mugido/Voldai/Wagwei/Zayag/Zoldof]?
- **10873**: You've been a grrreat help as always, <Player>. I'm sure you'll be hearing from me in the future.
- **10875**: All by yourself, <Player>? Where's [Feliz/Ferdinand/Gunnar/Massimo/Oldrich/Siegward/Theobald/Zenji]?
- **10876**: All by yourself, <Player>? Where's [Amerita/Beatrice/Henrietta/Jesimae/Karyn/Nanako/Sharlene/Sieghilde]?
- **10877**: All by yourself, <Player>? Where's [Chanandit/Deulmaeux/Demresinaux/Ephealgaux/Gauldeval/Grauffemart/Migaifongut/Romidiant]?
- **10878**: All by yourself, <Player>? Where's [Armittie/Cadepure/Clearite/Epilleve/Liabelle/Nauthima/Radille/Vimechue]?
- **10879**: All by yourself, <Player>? Where's [Balu-Falu/Burg-Ladarg/Ehgo-Ryuhgo/Kolui-Pelui/Nokum-Akkum/Savul-Kivul/Vinja-Kanja/Yarga-Umiga]?
- **10880**: All by yourself, <Player>? Where's [Cupapa/Jajuju/Kalokoko/Mahoyaya/Pakurara/Ripokeke/Yawawa/Yufafa]?
- **10881**: All by yourself, <Player>? Where's [Fhig Lahrv/Khuma Tagyawhan/Pimy Kettihl/Raka Maimhov/Sahyu Banjyao/Sufhi Uchnouma/Tsuim Nhomango/Yoli Kohlpaka]?
- **10882**: All by yourself, <Player>? Where's [Durib/Dzapiwa/Jugowa/Mugido/Voldai/Wagwei/Zayag/Zoldof]?
- **11120**: <Player>'s badge flashes brightly.
- **11125**: Heheh, I just can't rrresist anything shiny...
- **11126**: Luto Mewrilah's badge flashes brightly.
- **11127**: Still, I wonder why they've come all the way here to recruit mercenaries. I bet their expenses are through the rrroof!

## Events

### Event 65535

#### Metadata

| Field        | Value   |
|--------------|---------|
| Entrypoint   | 0x0000  |
| Data Size    | 1 bytes |
| Instructions | 1       |

```
      00 01 02 03 04 05 06 07  08 09 0A 0B 0C 0D 0E 0F
      -- -- -- -- -- -- -- --  -- -- -- -- -- -- -- --
0000: 00                                                .               
```

#### Opcodes

```
  0: 0x0000 [0x00] END_REQSTACK()
```

### Event 10031

#### Metadata

| Field        | Value   |
|--------------|---------|
| Entrypoint   | 0x0001  |
| Data Size    | 1 bytes |
| Instructions | 1       |

```
      00 01 02 03 04 05 06 07  08 09 0A 0B 0C 0D 0E 0F
      -- -- -- -- -- -- -- --  -- -- -- -- -- -- -- --
0000:    00                                              .              
```

#### Opcodes

```
  0: 0x0001 [0x00] END_REQSTACK()
```

### Event 10032

#### Metadata

| Field        | Value   |
|--------------|---------|
| Entrypoint   | 0x0002  |
| Data Size    | 1 bytes |
| Instructions | 1       |

```
      00 01 02 03 04 05 06 07  08 09 0A 0B 0C 0D 0E 0F
      -- -- -- -- -- -- -- --  -- -- -- -- -- -- -- --
0000:       00                                            .             
```

#### Opcodes

```
  0: 0x0002 [0x00] END_REQSTACK()
```

### Event 10033

#### Metadata

| Field        | Value    |
|--------------|----------|
| Entrypoint   | 0x0003   |
| Data Size    | 36 bytes |
| Instructions | 8        |

```
      00 01 02 03 04 05 06 07  08 09 0A 0B 0C 0D 0E 0F
      -- -- -- -- -- -- -- --  -- -- -- -- -- -- -- --
0000:          1E F0 FF FF 7F  1C 00 80 66 01 80 8C 40     ........f...@
0010: 0F 01 8C 40 0F 01 74 6C  63 30 2B 8C 40 0F 01 02  ...@..tlc0+.@...
0020: 80 23 1C 03 80 21 00                              .#...!.         
```

#### Opcodes

```
  0: 0x0003 [0x1E] EventEntity looks at LocalPlayer and starts talking
  1: 0x0008 [0x1C] WAIT(30* ticks)
  2: 0x000B [0x66] LOAD_EXT_SCHEDULER_MAIN: Load scheduler "tlc0" with entities [Luto Mewrilah (ID: 17776780/0x010F408C), Luto Mewrilah (ID: 17776780/0x010F408C)], work=48*
  3: 0x001A [0x2B] Luto Mewrilah (ID: 17776780/0x010F408C) [8849*]:
     "Better be on your way while the trail's still warm!"
  4: 0x0021 [0x23] WAIT_FOR_DIALOG_INTERACTION
  5: 0x0022 [0x1C] WAIT(60* ticks)
  6: 0x0025 [0x21] END_EVENT
  7: 0x0026 [0x00] END_REQSTACK()
```

### Event 10034

#### Metadata

| Field        | Value    |
|--------------|----------|
| Entrypoint   | 0x0027   |
| Data Size    | 11 bytes |
| Instructions | 5        |

```
      00 01 02 03 04 05 06 07  08 09 0A 0B 0C 0D 0E 0F
      -- -- -- -- -- -- -- --  -- -- -- -- -- -- -- --
0020:                      1E  F0 FF FF 7F 1D 04 80 23         ........#
0030: 21 00                                             !.              
```

#### Opcodes

```
  0: 0x0027 [0x1E] EventEntity looks at LocalPlayer and starts talking
  1: 0x002C [0x1D] PRINT_EVENT_MESSAGE(message_id=9252*)
     "Thanks to you, I got my paws on some great information. Be in touch."
  2: 0x002F [0x23] WAIT_FOR_DIALOG_INTERACTION
  3: 0x0030 [0x21] END_EVENT
  4: 0x0031 [0x00] END_REQSTACK()
```

### Event 65535.1

#### Metadata

| Field        | Value    |
|--------------|----------|
| Entrypoint   | 0x0032   |
| Data Size    | 14 bytes |
| Instructions | 4        |

```
      00 01 02 03 04 05 06 07  08 09 0A 0B 0C 0D 0E 0F
      -- -- -- -- -- -- -- --  -- -- -- -- -- -- -- --
0030:       32 05 80 1F 00 06  80 07 80 08 80 1F 01 00    2.............
```

#### Opcodes

```
  0: 0x0032 [0x32] ExtData[1]->MainSpeed = 13* * 0.1
  1: 0x0035 [0x1F] MOVE_ENTITY: EventEntity moves to X=-50.477*, Z=46.056*, Y=0.000*
  2: 0x003D [0x1F] MOVE_ENTITY: Update entity position (mode=1)
  3: 0x003F [0x00] END_REQSTACK()
```

### Event 65535.2

#### Metadata

| Field        | Value    |
|--------------|----------|
| Entrypoint   | 0x0040   |
| Data Size    | 14 bytes |
| Instructions | 4        |

```
      00 01 02 03 04 05 06 07  08 09 0A 0B 0C 0D 0E 0F
      -- -- -- -- -- -- -- --  -- -- -- -- -- -- -- --
0040: 32 05 80 1F 00 09 80 0A  80 0B 80 1F 01 00        2.............  
```

#### Opcodes

```
  0: 0x0040 [0x32] ExtData[1]->MainSpeed = 13* * 0.1
  1: 0x0043 [0x1F] MOVE_ENTITY: EventEntity moves to X=-52.203*, Z=45.238*, Y=-0.199*
  2: 0x004B [0x1F] MOVE_ENTITY: Update entity position (mode=1)
  3: 0x004D [0x00] END_REQSTACK()
```

### Event 65535.3

#### Metadata

| Field        | Value    |
|--------------|----------|
| Entrypoint   | 0x004E   |
| Data Size    | 14 bytes |
| Instructions | 4        |

```
      00 01 02 03 04 05 06 07  08 09 0A 0B 0C 0D 0E 0F
      -- -- -- -- -- -- -- --  -- -- -- -- -- -- -- --
0040:                                            32 05                2.
0050: 80 1F 00 0C 80 0D 80 0E  80 1F 01 00              ............    
```

#### Opcodes

```
  0: 0x004E [0x32] ExtData[1]->MainSpeed = 13* * 0.1
  1: 0x0051 [0x1F] MOVE_ENTITY: EventEntity moves to X=-54.548*, Z=44.383*, Y=-0.301*
  2: 0x0059 [0x1F] MOVE_ENTITY: Update entity position (mode=1)
  3: 0x005B [0x00] END_REQSTACK()
```

### Event 10039

#### Metadata

| Field        | Value     |
|--------------|-----------|
| Entrypoint   | 0x005C    |
| Data Size    | 811 bytes |
| Instructions | 99        |

```
      00 01 02 03 04 05 06 07  08 09 0A 0B 0C 0D 0E 0F
      -- -- -- -- -- -- -- --  -- -- -- -- -- -- -- --
0050:                                      42 1A 0F 03              B...
0060: 46 01 92 01 8C 40 0F 01  92 01 8D 40 0F 01 92 01  F....@.....@....
0070: 8E 40 0F 01 38 0F 80 27  0A F0 FF FF 7F 3F 2F 00  .@..8..'.....?/.
0080: 8D 40 0F 01 4E 00 8D 40  0F 01 45 10 80 F8 FF FF  .@..N..@..E.....
0090: 7F F8 FF FF 7F 73 30 34  38 08 80 1A 63 03 27 0F  .....s048...c.'.
00A0: 8D 40 0F 01 02 2A 0F 8D  40 0F 01 1C 11 80 5B 08  .@...*..@.....[.
00B0: 80 8D 40 0F 01 8D 40 0F  01 74 68 6B 31 2B 8D 40  ..@...@..thk1+.@
00C0: 0F 01 12 80 23 5B 08 80  8D 40 0F 01 8D 40 0F 01  ....#[...@...@..
00D0: 74 68 6B 32 1C 13 80 4A  8D 40 0F 01 8C 40 0F 01  thk2...J.@...@..
00E0: 1C 00 80 5B 08 80 8D 40  0F 01 8D 40 0F 01 74 6C  ...[...@...@..tl
00F0: 6B 30 2B 8D 40 0F 01 14  80 23 5B 08 80 8D 40 0F  k0+.@....#[...@.
0100: 01 8D 40 0F 01 74 6C 6B  31 52 10 80 F8 FF FF 7F  ..@..tlk1R......
0110: F8 FF FF 7F 73 30 34 38  45 10 80 F8 FF FF 7F F8  ....s048E.......
0120: FF FF 7F 73 30 34 39 08  80 1C 00 80 4A 8C 40 0F  ...s049.....J.@.
0130: 01 8D 40 0F 01 2B 8C 40  0F 01 15 80 23 79 00 8D  ..@..+.@....#y..
0140: 40 0F 01 F0 FF FF 7F 2B  8D 40 0F 01 16 80 23 4A  @......+.@....#J
0150: F0 FF FF 7F 8D 40 0F 01  52 10 80 F8 FF FF 7F F8  .....@..R.......
0160: FF FF 7F 73 30 34 39 45  10 80 F8 FF FF 7F F8 FF  ...s049E........
0170: FF 7F 73 30 35 30 08 80  32 05 80 1F 00 17 80 18  ..s050..2.......
0180: 80 0B 80 1F 01 4A 8C 40  0F 01 8D 40 0F 01 66 19  .....J.@...@..f.
0190: 80 8C 40 0F 01 8C 40 0F  01 74 6C 6B 30 2B 8C 40  ..@...@..tlk0+.@
01A0: 0F 01 1A 80 23 66 19 80  8C 40 0F 01 8C 40 0F 01  ....#f...@...@..
01B0: 74 6C 6B 32 52 10 80 F8  FF FF 7F F8 FF FF 7F 73  tlk2R..........s
01C0: 30 35 30 1A 0F 03 2F 00  8E 40 0F 01 4E 00 8E 40  050.../..@..N..@
01D0: 0F 01 77 1B 80 1C 80 45  10 80 F8 FF FF 7F F8 FF  ..w....E........
01E0: FF 7F 73 30 35 34 08 80  1A 63 03 27 0A 8E 40 0F  ..s054...c.'..@.
01F0: 01 07 2B 8D 40 0F 01 1D  80 23 2A 0A 8E 40 0F 01  ..+.@....#*..@..
0200: 5B 1E 80 8E 40 0F 01 8E  40 0F 01 65 30 30 30 1C  [...@...@..e000.
0210: 03 80 5B 1E 80 8E 40 0F  01 8E 40 0F 01 65 30 30  ..[...@...@..e00
0220: 31 1C 1F 80 4B 8E 40 0F  01 20 80 2B 8D 40 0F 01  1...K.@.. .+.@..
0230: 21 80 23 55 10 80 F8 FF  FF 7F F8 FF FF 7F 73 30  !.#U..........s0
0240: 35 34 1A 0F 03 52 10 80  F8 FF FF 7F F8 FF FF 7F  54...R..........
0250: 73 30 35 34 78 22 01 2F  01 8E 40 0F 01 4E 01 8E  s054x"./..@..N..
0260: 40 0F 01 1A 63 03 45 10  80 F8 FF FF 7F F8 FF FF  @...c.E.........
0270: 7F 73 30 35 31 08 80 5B  08 80 8D 40 0F 01 8D 40  .s051..[...@...@
0280: 0F 01 74 6C 6B 30 2B 8D  40 0F 01 22 80 23 5B 08  ..tlk0+.@..".#[.
0290: 80 8D 40 0F 01 8D 40 0F  01 74 6C 6B 31 1C 00 80  ..@...@..tlk1...
02A0: 5B 08 80 8D 40 0F 01 8D  40 0F 01 74 68 6B 31 2B  [...@...@..thk1+
02B0: 8D 40 0F 01 23 80 23 5B  08 80 8D 40 0F 01 8D 40  .@..#.#[...@...@
02C0: 0F 01 74 68 6B 32 1A 30  03 52 10 80 F8 FF FF 7F  ..thk2.0.R......
02D0: F8 FF FF 7F 73 30 35 31  2F 01 8D 40 0F 01 4E 01  ....s051/..@..N.
02E0: 8D 40 0F 01 46 00 1C 03  80 1A 63 03 21 00 45 24  .@..F.....c.!.E$
02F0: 80 F8 FF FF 7F F8 FF FF  7F 66 64 6F 30 08 80 55  .........fdo0..U
0300: 24 80 F8 FF FF 7F F8 FF  FF 7F 66 64 6F 30 1B 45  $.........fdo0.E
0310: 24 80 F8 FF FF 7F F8 FF  FF 7F 66 64 6F 31 08 80  $.........fdo1..
0320: 55 24 80 F8 FF FF 7F F8  FF FF 7F 66 64 6F 31 1B  U$.........fdo1.
0330: 45 24 80 F8 FF FF 7F F8  FF FF 7F 66 64 6F 32 08  E$.........fdo2.
0340: 80 55 24 80 F8 FF FF 7F  F8 FF FF 7F 66 64 6F 32  .U$.........fdo2
0350: 1B 45 24 80 F8 FF FF 7F  F8 FF FF 7F 66 64 69 30  .E$.........fdi0
0360: 08 80 1B 45 24 80 F8 FF  FF 7F F8 FF FF 7F 66 64  ...E$.........fd
0370: 69 31 08 80 1B 45 24 80  F8 FF FF 7F F8 FF FF 7F  i1...E$.........
0380: 66 64 69 32 08 80 1B                              fdi2...         
```

#### Opcodes

```
  0: 0x005C [0x42] SET_CLI_EVENT_CANCEL_DATA()
  1: 0x005D [0x1A] CALL_SUBROUTINE(address=0x030F)
  2: 0x0060 [0x46] CAMERA_CONTROL: Disable user control
  3: 0x0062 [0x92] Luto Mewrilah (ID: 17776780/0x010F408C)->Render.Flags3 ^= 0x01
  4: 0x0068 [0x92] Laurana (ID: 17776781/0x010F408D)->Render.Flags3 ^= 0x01
  5: 0x006E [0x92] Palometa (ID: 17776782/0x010F408E)->Render.Flags3 ^= 0x01
  6: 0x0074 [0x38] SET_CLIENT_EVENT_MODE(mode=19*)
  7: 0x0077 [0x27] REQ_SET(priority=0x0A, entity_id=LocalPlayer, tag_num=0x3F)
  8: 0x007E [0x2F] Laurana (ID: 17776781/0x010F408D)->Render.Flags0 &= ~0x80000 // Bit 19
  9: 0x0084 [0x4E] SET_ENTITY_HIDE_FLAG: Show Laurana (ID: 17776781/0x010F408D)
 10: 0x008A [0x45] LOAD_SCHEDULED_TASK: Load scheduler "s048" with entities [EventEntity, EventEntity], work=[191*, 0*]
 11: 0x009B [0x1A] CALL_SUBROUTINE(address=0x0363)
 12: 0x009E [0x27] REQ_SET(priority=0x0F, entity_id=Laurana (ID: 17776781/0x010F408D), tag_num=0x02)
 13: 0x00A5 [0x2A] GET_REQ_LEVEL(level=15, entity_id=Laurana (ID: 17776781/0x010F408D))
 14: 0x00AB [0x1C] WAIT(10* ticks)
 15: 0x00AE [0x5B] LOAD_EXT_SCHEDULER: Load scheduler "thk1" with entities [Laurana (ID: 17776781/0x010F408D), Laurana (ID: 17776781/0x010F408D)], work=0*
 16: 0x00BD [0x2B] Laurana (ID: 17776781/0x010F408D) [8891*]:
     "Where could she be...? I pray to Altana nothing has happened to her..."
 17: 0x00C4 [0x23] WAIT_FOR_DIALOG_INTERACTION
 18: 0x00C5 [0x5B] LOAD_EXT_SCHEDULER: Load scheduler "thk2" with entities [Laurana (ID: 17776781/0x010F408D), Laurana (ID: 17776781/0x010F408D)], work=0*
 19: 0x00D4 [0x1C] WAIT(150* ticks)
 20: 0x00D7 [0x4A] Laurana (ID: 17776781/0x010F408D) looks at Luto Mewrilah (ID: 17776780/0x010F408C)
 21: 0x00E0 [0x1C] WAIT(30* ticks)
 22: 0x00E3 [0x5B] LOAD_EXT_SCHEDULER: Load scheduler "tlk0" with entities [Laurana (ID: 17776781/0x010F408D), Laurana (ID: 17776781/0x010F408D)], work=0*
 23: 0x00F2 [0x2B] Laurana (ID: 17776781/0x010F408D) [8892*]:
     "Excuse me. You haven't seen a little girl anywhere, have you? My daughter has gone missing..."
 24: 0x00F9 [0x23] WAIT_FOR_DIALOG_INTERACTION
 25: 0x00FA [0x5B] LOAD_EXT_SCHEDULER: Load scheduler "tlk1" with entities [Laurana (ID: 17776781/0x010F408D), Laurana (ID: 17776781/0x010F408D)], work=0*
 26: 0x0109 [0x52] END_LOAD_SCHEDULER: End scheduler "s048" with entities [EventEntity, EventEntity], work=191*
 27: 0x0118 [0x45] LOAD_SCHEDULED_TASK: Load scheduler "s049" with entities [EventEntity, EventEntity], work=[191*, 0*]
 28: 0x0129 [0x1C] WAIT(30* ticks)
 29: 0x012C [0x4A] Luto Mewrilah (ID: 17776780/0x010F408C) looks at Laurana (ID: 17776781/0x010F408D)
 30: 0x0135 [0x2B] Luto Mewrilah (ID: 17776780/0x010F408C) [8893*]:
     "Are you talking to us?"
 31: 0x013C [0x23] WAIT_FOR_DIALOG_INTERACTION
 32: 0x013D [0x79] Laurana (ID: 17776781/0x010F408D) looks at LocalPlayer (Basic look)
 33: 0x0147 [0x2B] Laurana (ID: 17776781/0x010F408D) [8894*]:
     "Yes, could you help me look for her?"
 34: 0x014E [0x23] WAIT_FOR_DIALOG_INTERACTION
 35: 0x014F [0x4A] LocalPlayer looks at Laurana (ID: 17776781/0x010F408D)
 36: 0x0158 [0x52] END_LOAD_SCHEDULER: End scheduler "s049" with entities [EventEntity, EventEntity], work=191*
 37: 0x0167 [0x45] LOAD_SCHEDULED_TASK: Load scheduler "s050" with entities [EventEntity, EventEntity], work=[191*, 0*]
 38: 0x0178 [0x32] ExtData[1]->MainSpeed = 13* * 0.1
 39: 0x017B [0x1F] MOVE_ENTITY: EventEntity moves to X=-54.458*, Z=45.378*, Y=-0.199*
 40: 0x0183 [0x1F] MOVE_ENTITY: Update entity position (mode=1)
 41: 0x0185 [0x4A] Luto Mewrilah (ID: 17776780/0x010F408C) looks at Laurana (ID: 17776781/0x010F408D)
 42: 0x018E [0x66] LOAD_EXT_SCHEDULER_MAIN: Load scheduler "tlk0" with entities [Luto Mewrilah (ID: 17776780/0x010F408C), Luto Mewrilah (ID: 17776780/0x010F408C)], work=50*
 43: 0x019D [0x2B] Luto Mewrilah (ID: 17776780/0x010F408C) [8895*]:
     "If you're looking for someone, then <Player> here is your [man/woman]. [He/She] has a knack for finding people."
 44: 0x01A4 [0x23] WAIT_FOR_DIALOG_INTERACTION
 45: 0x01A5 [0x66] LOAD_EXT_SCHEDULER_MAIN: Load scheduler "tlk2" with entities [Luto Mewrilah (ID: 17776780/0x010F408C), Luto Mewrilah (ID: 17776780/0x010F408C)], work=50*
 46: 0x01B4 [0x52] END_LOAD_SCHEDULER: End scheduler "s050" with entities [EventEntity, EventEntity], work=191*
 47: 0x01C3 [0x1A] CALL_SUBROUTINE(address=0x030F)
 48: 0x01C6 [0x2F] Palometa (ID: 17776782/0x010F408E)->Render.Flags0 &= ~0x80000 // Bit 19
 49: 0x01CC [0x4E] SET_ENTITY_HIDE_FLAG: Show Palometa (ID: 17776782/0x010F408E)
 50: 0x01D2 [0x77] SET_EVENT_TIME_WEATHER(hour=12*, weather=1*)
 51: 0x01D7 [0x45] LOAD_SCHEDULED_TASK: Load scheduler "s054" with entities [EventEntity, EventEntity], work=[191*, 0*]
 52: 0x01E8 [0x1A] CALL_SUBROUTINE(address=0x0363)
 53: 0x01EB [0x27] REQ_SET(priority=0x0A, entity_id=Palometa (ID: 17776782/0x010F408E), tag_num=0x07)
 54: 0x01F2 [0x2B] Laurana (ID: 17776781/0x010F408D) [8896*]:
     "Then please, find my daughter. She has blonde hair and is wearing a brown dress."
 55: 0x01F9 [0x23] WAIT_FOR_DIALOG_INTERACTION
 56: 0x01FA [0x2A] GET_REQ_LEVEL(level=10, entity_id=Palometa (ID: 17776782/0x010F408E))
 57: 0x0200 [0x5B] LOAD_EXT_SCHEDULER: Load scheduler "e000" with entities [Palometa (ID: 17776782/0x010F408E), Palometa (ID: 17776782/0x010F408E)], work=80*
 58: 0x020F [0x1C] WAIT(60* ticks)
 59: 0x0212 [0x5B] LOAD_EXT_SCHEDULER: Load scheduler "e001" with entities [Palometa (ID: 17776782/0x010F408E), Palometa (ID: 17776782/0x010F408E)], work=80*
 60: 0x0221 [0x1C] WAIT(240* ticks)
 61: 0x0224 [0x4B] UPDATE_ENTITY_YAW(entity=Palometa (ID: 17776782/0x010F408E), yaw=4.7*)
 62: 0x022B [0x2B] Laurana (ID: 17776781/0x010F408D) [8897*]:
     "She should be wearing a brown cap as well. Oh, how she loves that little cap...<sniff>"
 63: 0x0232 [0x23] WAIT_FOR_DIALOG_INTERACTION
 64: 0x0233 [0x55] WAIT_LOAD_SCHEDULER: Wait for scheduler "s054" with entities [EventEntity, EventEntity], work=191*
 65: 0x0242 [0x1A] CALL_SUBROUTINE(address=0x030F)
 66: 0x0245 [0x52] END_LOAD_SCHEDULER: End scheduler "s054" with entities [EventEntity, EventEntity], work=191*
 67: 0x0254 [0x78] ENABLE_GAME_TIMER_RESET_WEATHER()
 68: 0x0255 [0x22] ENTITY_HIDE_FLAG(enabled=0x01)
 69: 0x0257 [0x2F] Palometa (ID: 17776782/0x010F408E)->Render.Flags0 |= 0x80000 // Bit 19
 70: 0x025D [0x4E] SET_ENTITY_HIDE_FLAG: Hide Palometa (ID: 17776782/0x010F408E)
 71: 0x0263 [0x1A] CALL_SUBROUTINE(address=0x0363)
 72: 0x0266 [0x45] LOAD_SCHEDULED_TASK: Load scheduler "s051" with entities [EventEntity, EventEntity], work=[191*, 0*]
 73: 0x0277 [0x5B] LOAD_EXT_SCHEDULER: Load scheduler "tlk0" with entities [Laurana (ID: 17776781/0x010F408D), Laurana (ID: 17776781/0x010F408D)], work=0*
 74: 0x0286 [0x2B] Laurana (ID: 17776781/0x010F408D) [8898*]:
     "She went out to play, and never came back..."
 75: 0x028D [0x23] WAIT_FOR_DIALOG_INTERACTION
 76: 0x028E [0x5B] LOAD_EXT_SCHEDULER: Load scheduler "tlk1" with entities [Laurana (ID: 17776781/0x010F408D), Laurana (ID: 17776781/0x010F408D)], work=0*
 77: 0x029D [0x1C] WAIT(30* ticks)
 78: 0x02A0 [0x5B] LOAD_EXT_SCHEDULER: Load scheduler "thk1" with entities [Laurana (ID: 17776781/0x010F408D), Laurana (ID: 17776781/0x010F408D)], work=0*
 79: 0x02AF [0x2B] Laurana (ID: 17776781/0x010F408D) [8899*]:
     "Great Goddess, I don't know what I'd do if I lost her..."
 80: 0x02B6 [0x23] WAIT_FOR_DIALOG_INTERACTION
 81: 0x02B7 [0x5B] LOAD_EXT_SCHEDULER: Load scheduler "thk2" with entities [Laurana (ID: 17776781/0x010F408D), Laurana (ID: 17776781/0x010F408D)], work=0*
 82: 0x02C6 [0x1A] CALL_SUBROUTINE(address=0x0330)
 83: 0x02C9 [0x52] END_LOAD_SCHEDULER: End scheduler "s051" with entities [EventEntity, EventEntity], work=191*
 84: 0x02D8 [0x2F] Laurana (ID: 17776781/0x010F408D)->Render.Flags0 |= 0x80000 // Bit 19
 85: 0x02DE [0x4E] SET_ENTITY_HIDE_FLAG: Hide Laurana (ID: 17776781/0x010F408D)
 86: 0x02E4 [0x46] CAMERA_CONTROL: Restore default settings
 87: 0x02E6 [0x1C] WAIT(60* ticks)
 88: 0x02E9 [0x1A] CALL_SUBROUTINE(address=0x0363)
 89: 0x02EC [0x21] END_EVENT
 90: 0x02ED [0x00] END_REQSTACK()

SUBROUTINE_030F:
 91: 0x030F [0x45] LOAD_SCHEDULED_TASK: Load scheduler "fdo1" with entities [EventEntity, EventEntity], work=[200*, 0*]
 92: 0x0320 [0x55] WAIT_LOAD_SCHEDULER: Wait for scheduler "fdo1" with entities [EventEntity, EventEntity], work=200*
 93: 0x032F [0x1B] RETURN

SUBROUTINE_0330:
 94: 0x0330 [0x45] LOAD_SCHEDULED_TASK: Load scheduler "fdo2" with entities [EventEntity, EventEntity], work=[200*, 0*]
 95: 0x0341 [0x55] WAIT_LOAD_SCHEDULER: Wait for scheduler "fdo2" with entities [EventEntity, EventEntity], work=200*
 96: 0x0350 [0x1B] RETURN

SUBROUTINE_0363:
 97: 0x0363 [0x45] LOAD_SCHEDULED_TASK: Load scheduler "fdi1" with entities [EventEntity, EventEntity], work=[200*, 0*]
 98: 0x0374 [0x1B] RETURN
```

#### Data or dead code:

```
# Dead code (unreachable instructions):
     0x02EE [0x45] LOAD_SCHEDULED_TASK: Load scheduler "fdo0" with entities [EventEntity, EventEntity], work=[200*, 0*]
     0x02FF [0x55] WAIT_LOAD_SCHEDULER: Wait for scheduler "fdo0" with entities [EventEntity, EventEntity], work=200*
     0x030E [0x1B] RETURN
# Dead code (unreachable instructions):
     0x0351 [0x45] LOAD_SCHEDULED_TASK: Load scheduler "fdi0" with entities [EventEntity, EventEntity], work=[200*, 0*]
     0x0362 [0x1B] RETURN
# Dead code (unreachable instructions):
     0x0375 [0x45] LOAD_SCHEDULED_TASK: Load scheduler "fdi2" with entities [EventEntity, EventEntity], work=[200*, 0*]
     0x0386 [0x1B] RETURN
```

### Event 10041

#### Metadata

| Field        | Value    |
|--------------|----------|
| Entrypoint   | 0x0387   |
| Data Size    | 49 bytes |
| Instructions | 11       |

```
      00 01 02 03 04 05 06 07  08 09 0A 0B 0C 0D 0E 0F
      -- -- -- -- -- -- -- --  -- -- -- -- -- -- -- --
0380:                      1E  F0 FF FF 7F 1D 25 80 23         ......%.#
0390: 66 26 80 F8 FF FF 7F F8  FF FF 7F 74 6C 6B 30 1D  f&.........tlk0.
03A0: 27 80 23 1D 28 80 23 66  26 80 F8 FF FF 7F F8 FF  '.#.(.#f&.......
03B0: FF 7F 74 6C 6B 32 21 00                           ..tlk2!.        
```

#### Opcodes

```
  0: 0x0387 [0x1E] EventEntity looks at LocalPlayer and starts talking
  1: 0x038C [0x1D] PRINT_EVENT_MESSAGE(message_id=8814*)
     "There're so many people in this town. It takes me by surprrrise no matter how many times I come here."
  2: 0x038F [0x23] WAIT_FOR_DIALOG_INTERACTION
  3: 0x0390 [0x66] LOAD_EXT_SCHEDULER_MAIN: Load scheduler "tlk0" with entities [EventEntity, EventEntity], work=51*
  4: 0x039F [0x1D] PRINT_EVENT_MESSAGE(message_id=8815*)
     "All this activity makes it difficult to get anything done. It's enough to make my whiskers curl."
  5: 0x03A2 [0x23] WAIT_FOR_DIALOG_INTERACTION
  6: 0x03A3 [0x1D] PRINT_EVENT_MESSAGE(message_id=8816*)
     "I don't think you'd be able to help me out, though. Why don't you rrrun along?"
  7: 0x03A6 [0x23] WAIT_FOR_DIALOG_INTERACTION
  8: 0x03A7 [0x66] LOAD_EXT_SCHEDULER_MAIN: Load scheduler "tlk2" with entities [EventEntity, EventEntity], work=51*
  9: 0x03B6 [0x21] END_EVENT
 10: 0x03B7 [0x00] END_REQSTACK()
```

### Event 10044

#### Metadata

| Field        | Value   |
|--------------|---------|
| Entrypoint   | 0x03B8  |
| Data Size    | 1 bytes |
| Instructions | 1       |

```
      00 01 02 03 04 05 06 07  08 09 0A 0B 0C 0D 0E 0F
      -- -- -- -- -- -- -- --  -- -- -- -- -- -- -- --
03B0:                          00                               .       
```

#### Opcodes

```
  0: 0x03B8 [0x00] END_REQSTACK()
```

### Event 65535.4

#### Metadata

| Field        | Value   |
|--------------|---------|
| Entrypoint   | 0x03B9  |
| Data Size    | 1 bytes |
| Instructions | 1       |

```
      00 01 02 03 04 05 06 07  08 09 0A 0B 0C 0D 0E 0F
      -- -- -- -- -- -- -- --  -- -- -- -- -- -- -- --
03B0:                             00                             .      
```

#### Opcodes

```
  0: 0x03B9 [0x00] END_REQSTACK()
```

### Event 10042

#### Metadata

| Field        | Value    |
|--------------|----------|
| Entrypoint   | 0x03BA   |
| Data Size    | 45 bytes |
| Instructions | 9        |

```
      00 01 02 03 04 05 06 07  08 09 0A 0B 0C 0D 0E 0F
      -- -- -- -- -- -- -- --  -- -- -- -- -- -- -- --
03B0:                                1E F0 FF FF 7F 1D            ......
03C0: 29 80 23 66 26 80 F8 FF  FF 7F F8 FF FF 7F 74 6C  ).#f&.........tl
03D0: 6B 30 1D 2A 80 23 66 26  80 F8 FF FF 7F F8 FF FF  k0.*.#f&........
03E0: 7F 74 6C 6B 32 21 00                              .tlk2!.         
```

#### Opcodes

```
  0: 0x03BA [0x1E] EventEntity looks at LocalPlayer and starts talking
  1: 0x03BF [0x1D] PRINT_EVENT_MESSAGE(message_id=8900*)
     "Must be harrrd to have a child go missing."
  2: 0x03C2 [0x23] WAIT_FOR_DIALOG_INTERACTION
  3: 0x03C3 [0x66] LOAD_EXT_SCHEDULER_MAIN: Load scheduler "tlk0" with entities [EventEntity, EventEntity], work=51*
  4: 0x03D2 [0x1D] PRINT_EVENT_MESSAGE(message_id=8901*)
     "But I have no time for family drrramas. Missing treasure would be a whole other story, of course."
  5: 0x03D5 [0x23] WAIT_FOR_DIALOG_INTERACTION
  6: 0x03D6 [0x66] LOAD_EXT_SCHEDULER_MAIN: Load scheduler "tlk2" with entities [EventEntity, EventEntity], work=51*
  7: 0x03E5 [0x21] END_EVENT
  8: 0x03E6 [0x00] END_REQSTACK()
```

### Event 10048

#### Metadata

| Field        | Value    |
|--------------|----------|
| Entrypoint   | 0x03E7   |
| Data Size    | 41 bytes |
| Instructions | 7        |

```
      00 01 02 03 04 05 06 07  08 09 0A 0B 0C 0D 0E 0F
      -- -- -- -- -- -- -- --  -- -- -- -- -- -- -- --
03E0:                      1E  F0 FF FF 7F 66 26 80 F8         .....f&..
03F0: FF FF 7F F8 FF FF 7F 74  6C 6B 30 1D 2B 80 23 66  .......tlk0.+.#f
0400: 26 80 F8 FF FF 7F F8 FF  FF 7F 74 6C 6B 31 21 00  &.........tlk1!.
```

#### Opcodes

```
  0: 0x03E7 [0x1E] EventEntity looks at LocalPlayer and starts talking
  1: 0x03EC [0x66] LOAD_EXT_SCHEDULER_MAIN: Load scheduler "tlk0" with entities [EventEntity, EventEntity], work=51*
  2: 0x03FB [0x1D] PRINT_EVENT_MESSAGE(message_id=8996*)
     "The scent of treasure on you is making my nose twitch. Some people have all the luck..."
  3: 0x03FE [0x23] WAIT_FOR_DIALOG_INTERACTION
  4: 0x03FF [0x66] LOAD_EXT_SCHEDULER_MAIN: Load scheduler "tlk1" with entities [EventEntity, EventEntity], work=51*
  5: 0x040E [0x21] END_EVENT
  6: 0x040F [0x00] END_REQSTACK()
```

### Event 10045

#### Metadata

| Field        | Value    |
|--------------|----------|
| Entrypoint   | 0x0410   |
| Data Size    | 45 bytes |
| Instructions | 9        |

```
      00 01 02 03 04 05 06 07  08 09 0A 0B 0C 0D 0E 0F
      -- -- -- -- -- -- -- --  -- -- -- -- -- -- -- --
0410: 1E F0 FF FF 7F 66 2C 80  F8 FF FF 7F F8 FF FF 7F  .....f,.........
0420: 74 6C 63 30 1D 2D 80 23  1D 2E 80 23 66 2C 80 F8  tlc0.-.#...#f,..
0430: FF FF 7F F8 FF FF 7F 74  6C 63 31 21 00           .......tlc1!.   
```

#### Opcodes

```
  0: 0x0410 [0x1E] EventEntity looks at LocalPlayer and starts talking
  1: 0x0415 [0x66] LOAD_EXT_SCHEDULER_MAIN: Load scheduler "tlc0" with entities [EventEntity, EventEntity], work=52*
  2: 0x0424 [0x1D] PRINT_EVENT_MESSAGE(message_id=9036*)
     "That mirror should hold powers similar to the Glass of All-Seeing."
  3: 0x0427 [0x23] WAIT_FOR_DIALOG_INTERACTION
  4: 0x0428 [0x1D] PRINT_EVENT_MESSAGE(message_id=9037*)
     "Sends a thrill down my spine..."
  5: 0x042B [0x23] WAIT_FOR_DIALOG_INTERACTION
  6: 0x042C [0x66] LOAD_EXT_SCHEDULER_MAIN: Load scheduler "tlc1" with entities [EventEntity, EventEntity], work=52*
  7: 0x043B [0x21] END_EVENT
  8: 0x043C [0x00] END_REQSTACK()
```

### Event 10047

#### Metadata

| Field        | Value     |
|--------------|-----------|
| Entrypoint   | 0x043D    |
| Data Size    | 282 bytes |
| Instructions | 76        |

```
      00 01 02 03 04 05 06 07  08 09 0A 0B 0C 0D 0E 0F
      -- -- -- -- -- -- -- --  -- -- -- -- -- -- -- --
0430:                                         03 01 10               ...
0440: 08 80 1E F0 FF FF 7F 03  00 00 03 10 1A 2D 3F 1A  .............-?.
0450: 23 3F 03 02 10 04 00 03  03 10 0E 00 1D 2F 80 23  #?.........../.#
0460: 24 30 80 08 80 08 80 25  02 00 10 08 80 00 77 04  $0.....%......w.
0470: 1D 31 80 23 01 55 05 02  00 10 1C 80 00 55 05 1D  .1.#.U.......U..
0480: 32 80 23 24 33 80 1C 80  08 80 25 02 00 10 08 80  2.#$3.....%.....
0490: 00 43 05 02 0E 00 08 80  80 A2 04 1D 34 80 23 01  .C..........4.#.
04A0: 0B 05 02 0E 00 1C 80 80  B1 04 1D 35 80 23 01 0B  ...........5.#..
04B0: 05 02 0E 00 36 80 80 C0  04 1D 37 80 23 01 0B 05  ....6.....7.#...
04C0: 02 0E 00 38 80 80 CF 04  1D 39 80 23 01 0B 05 02  ...8.....9.#....
04D0: 0E 00 3A 80 80 DE 04 1D  3B 80 23 01 0B 05 02 0E  ..:.....;.#.....
04E0: 00 3C 80 80 ED 04 1D 3D  80 23 01 0B 05 02 0E 00  .<.....=.#......
04F0: 3E 80 80 FC 04 1D 3F 80  23 01 0B 05 02 0E 00 40  >.....?.#......@
0500: 80 80 0B 05 1D 41 80 23  01 0B 05 1D 42 80 23 24  .....A.#....B.#$
0510: 43 80 1C 80 08 80 25 02  00 10 08 80 00 31 05 42  C.....%......1.B
0520: 03 03 10 00 00 1D 44 80  23 03 01 10 45 80 01 40  ......D.#...E..@
0530: 05 02 00 10 1C 80 00 40  05 1D 46 80 23 01 40 05  .......@..F.#.@.
0540: 01 52 05 02 00 10 1C 80  00 52 05 1D 46 80 23 01  .R.......R..F.#.
0550: 52 05 01 55 05 21 00                              R..U.!.         
```

#### Opcodes

```
  0: 0x043D [0x03] Work_Zone[1] = 0*
  1: 0x0442 [0x1E] EventEntity looks at LocalPlayer and starts talking
  2: 0x0447 [0x03] ExtData[1]->WorkLocal[0] = Work_Zone[3]
  3: 0x044C [0x1A] CALL_SUBROUTINE(address=0x3F2D)
  4: 0x044F [0x1A] CALL_SUBROUTINE(address=0x3F23)
  5: 0x0452 [0x03] Work_Zone[2] = ExtData[1]->WorkLocal[4]
  6: 0x0457 [0x03] Work_Zone[3] = ExtData[1]->WorkLocal[14]
  7: 0x045C [0x1D] PRINT_EVENT_MESSAGE(message_id=9222*)
     "What can I do for you?"
  8: 0x045F [0x23] WAIT_FOR_DIALOG_INTERACTION
  9: 0x0460 [0x24] CREATE_DIALOG(message_id=9223*, default_option=0*, option_flags=0*)
     "What's up? [Anything new happening?/I want to start over.]"
 10: 0x0467 [0x25] WAIT_DIALOG_SELECT()
 11: 0x0468 [0x02] IF !(Work_Zone[0] == 0*) GOTO 0x0477
 12: 0x0470 [0x1D] PRINT_EVENT_MESSAGE(message_id=9224*)
     "Hmmm. Nothing at the moment. Check back with me again later."
 13: 0x0473 [0x23] WAIT_FOR_DIALOG_INTERACTION
 14: 0x0474 [0x01] GOTO 0x0555
 15: 0x0477 [0x02] IF !(Work_Zone[0] == 1*) GOTO 0x0555
 16: 0x047F [0x1D] PRINT_EVENT_MESSAGE(message_id=9225*)
     "Are you serrrious?"
 17: 0x0482 [0x23] WAIT_FOR_DIALOG_INTERACTION
 18: 0x0483 [0x24] CREATE_DIALOG(message_id=9226*, default_option=1*, option_flags=0*)
     "Are you serious? [Dead serious./No, not really.]"
 19: 0x048A [0x25] WAIT_DIALOG_SELECT()
 20: 0x048B [0x02] IF !(Work_Zone[0] == 0*) GOTO 0x0543
 21: 0x0493 [0x02] IF !(ExtData[1]->WorkLocal[14] == 0*) GOTO 0x04A2
 22: 0x049B [0x1D] PRINT_EVENT_MESSAGE(message_id=9227*)
     "Well, if you're serrrious, then you'll have to forget everything I've told you. You'll also lose all ties with [Feliz/Ferdinand/Gunnar/Massimo/Oldrich/Siegward/Theobald/Zenji]."
 23: 0x049E [0x23] WAIT_FOR_DIALOG_INTERACTION
 24: 0x049F [0x01] GOTO 0x050B
 25: 0x04A2 [0x02] IF !(ExtData[1]->WorkLocal[14] == 1*) GOTO 0x04B1
 26: 0x04AA [0x1D] PRINT_EVENT_MESSAGE(message_id=9228*)
     "Well, if you're serrrious, then you'll have to forget everything I've told you. You'll also lose all ties with [Amerita/Beatrice/Henrietta/Jesimae/Karyn/Nanako/Sharlene/Sieghilde]."
 27: 0x04AD [0x23] WAIT_FOR_DIALOG_INTERACTION
 28: 0x04AE [0x01] GOTO 0x050B
 29: 0x04B1 [0x02] IF !(ExtData[1]->WorkLocal[14] == 2*) GOTO 0x04C0
 30: 0x04B9 [0x1D] PRINT_EVENT_MESSAGE(message_id=9229*)
     "Well, if you're serrrious, then you'll have to forget everything I've told you. You'll also lose all ties with [Chanandit/Deulmaeux/Demresinaux/Ephealgaux/Gauldeval/Grauffemart/Migaifongut/Romidiant]."
 31: 0x04BC [0x23] WAIT_FOR_DIALOG_INTERACTION
 32: 0x04BD [0x01] GOTO 0x050B
 33: 0x04C0 [0x02] IF !(ExtData[1]->WorkLocal[14] == 3*) GOTO 0x04CF
 34: 0x04C8 [0x1D] PRINT_EVENT_MESSAGE(message_id=9230*)
     "Well, if you're serrrious, then you'll have to forget everything I've told you. You'll also lose all ties with [Armittie/Cadepure/Clearite/Epilleve/Liabelle/Nauthima/Radille/Vimechue]."
 35: 0x04CB [0x23] WAIT_FOR_DIALOG_INTERACTION
 36: 0x04CC [0x01] GOTO 0x050B
 37: 0x04CF [0x02] IF !(ExtData[1]->WorkLocal[14] == 4*) GOTO 0x04DE
 38: 0x04D7 [0x1D] PRINT_EVENT_MESSAGE(message_id=9231*)
     "Well, if you're serrrious, then you'll have to forget everything I've told you. You'll also lose all ties with [Balu-Falu/Burg-Ladarg/Ehgo-Ryuhgo/Kolui-Pelui/Nokum-Akkum/Savul-Kivul/Vinja-Kanja/Yarga-Umiga]."
 39: 0x04DA [0x23] WAIT_FOR_DIALOG_INTERACTION
 40: 0x04DB [0x01] GOTO 0x050B
 41: 0x04DE [0x02] IF !(ExtData[1]->WorkLocal[14] == 5*) GOTO 0x04ED
 42: 0x04E6 [0x1D] PRINT_EVENT_MESSAGE(message_id=9232*)
     "Well, if you're serrrious, then you'll have to forget everything I've told you. You'll also lose all ties with [Cupapa/Jajuju/Kalokoko/Mahoyaya/Pakurara/Ripokeke/Yawawa/Yufafa]."
 43: 0x04E9 [0x23] WAIT_FOR_DIALOG_INTERACTION
 44: 0x04EA [0x01] GOTO 0x050B
 45: 0x04ED [0x02] IF !(ExtData[1]->WorkLocal[14] == 6*) GOTO 0x04FC
 46: 0x04F5 [0x1D] PRINT_EVENT_MESSAGE(message_id=9233*)
     "Well, if you're serrrious, then you'll have to forget everything I've told you. You'll also lose all ties with [Fhig Lahrv/Khuma Tagyawhan/Pimy Kettihl/Raka Maimhov/Sahyu Banjyao/Sufhi Uchnouma/Tsuim Nhomango/Yoli Kohlpaka]."
 47: 0x04F8 [0x23] WAIT_FOR_DIALOG_INTERACTION
 48: 0x04F9 [0x01] GOTO 0x050B
 49: 0x04FC [0x02] IF !(ExtData[1]->WorkLocal[14] == 7*) GOTO 0x050B
 50: 0x0504 [0x1D] PRINT_EVENT_MESSAGE(message_id=9234*)
     "Well, if you're serrrious, then you'll have to forget everything I've told you. You'll also lose all ties with [Durib/Dzapiwa/Jugowa/Mugido/Voldai/Wagwei/Zayag/Zoldof]."
 51: 0x0507 [0x23] WAIT_FOR_DIALOG_INTERACTION
 52: 0x0508 [0x01] GOTO 0x050B

SUBROUTINE_050B:
 53: 0x050B [0x1D] PRINT_EVENT_MESSAGE(message_id=9235*)
     "You'll never see [him/her/him/her/him/her/her/him] again. Are you okay with that?"
 54: 0x050E [0x23] WAIT_FOR_DIALOG_INTERACTION
 55: 0x050F [0x24] CREATE_DIALOG(message_id=9236*, default_option=1*, option_flags=0*)
     "Are you okay with that? [Doesn't bother me./Never? Wait a minute...]"
 56: 0x0516 [0x25] WAIT_DIALOG_SELECT()
 57: 0x0517 [0x02] IF !(Work_Zone[0] == 0*) GOTO 0x0531
 58: 0x051F [0x42] SET_CLI_EVENT_CANCEL_DATA()
 59: 0x0520 [0x03] Work_Zone[3] = ExtData[1]->WorkLocal[0]
 60: 0x0525 [0x1D] PRINT_EVENT_MESSAGE(message_id=9238*)
     "Fine. Hand over the $1 and we'll forget any of this ever happened."
 61: 0x0528 [0x23] WAIT_FOR_DIALOG_INTERACTION
 62: 0x0529 [0x03] Work_Zone[1] = 100*
 63: 0x052E [0x01] GOTO 0x0540
 64: 0x0531 [0x02] IF !(Work_Zone[0] == 1*) GOTO 0x0540
 65: 0x0539 [0x1D] PRINT_EVENT_MESSAGE(message_id=9237*)
     "Please don't play games with me, <Player>."
 66: 0x053C [0x23] WAIT_FOR_DIALOG_INTERACTION
 67: 0x053D [0x01] GOTO 0x0540

SUBROUTINE_0540:
 68: 0x0540 [0x01] GOTO 0x0552
 69: 0x0543 [0x02] IF !(Work_Zone[0] == 1*) GOTO 0x0552
 70: 0x054B [0x1D] PRINT_EVENT_MESSAGE(message_id=9237*)
     "Please don't play games with me, <Player>."
 71: 0x054E [0x23] WAIT_FOR_DIALOG_INTERACTION
 72: 0x054F [0x01] GOTO 0x0552

SUBROUTINE_0552:
 73: 0x0552 [0x01] GOTO 0x0555

SUBROUTINE_0555:
 74: 0x0555 [0x21] END_EVENT
 75: 0x0556 [0x00] END_REQSTACK()
```

### Event 10071

#### Metadata

| Field        | Value     |
|--------------|-----------|
| Entrypoint   | 0x0557    |
| Data Size    | 735 bytes |
| Instructions | 193       |

```
      00 01 02 03 04 05 06 07  08 09 0A 0B 0C 0D 0E 0F
      -- -- -- -- -- -- -- --  -- -- -- -- -- -- -- --
0550:                      03  01 10 08 80 1E F0 FF FF         .........
0560: 7F 03 00 00 03 10 03 01  00 04 10 1A 2D 3F 1A 23  ............-?.#
0570: 3F 03 02 10 04 00 03 03  10 0E 00 1D 2F 80 23 24  ?.........../.#$
0580: 30 80 08 80 08 80 25 02  00 10 08 80 00 42 07 02  0.....%......B..
0590: 05 10 08 80 80 9E 05 1D  31 80 23 01 3F 07 02 05  ........1.#.?...
05A0: 10 1C 80 80 AD 05 1D 47  80 23 01 3F 07 02 05 10  .......G.#.?....
05B0: 36 80 80 BC 05 1D 48 80  23 01 3F 07 02 05 10 38  6.....H.#.?....8
05C0: 80 80 D0 05 03 02 10 49  80 1D 4A 80 23 01 3F 07  .......I..J.#.?.
05D0: 02 05 10 3A 80 80 DF 05  1D 4B 80 23 01 3F 07 02  ...:.....K.#.?..
05E0: 05 10 3C 80 80 EE 05 1D  4C 80 23 01 3F 07 02 05  ..<.....L.#.?...
05F0: 10 3E 80 80 FD 05 1D 4D  80 23 01 3F 07 02 05 10  .>.....M.#.?....
0600: 40 80 80 0C 06 1D 4E 80  23 01 3F 07 02 05 10 4F  @.....N.#.?....O
0610: 80 80 1B 06 1D 50 80 23  01 3F 07 02 05 10 51 80  .....P.#.?....Q.
0620: 80 9E 06 02 0E 00 08 80  80 32 06 1D 52 80 23 01  .........2..R.#.
0630: 9B 06 02 0E 00 1C 80 80  41 06 1D 53 80 23 01 9B  ........A..S.#..
0640: 06 02 0E 00 36 80 80 50  06 1D 54 80 23 01 9B 06  ....6..P..T.#...
0650: 02 0E 00 38 80 80 5F 06  1D 55 80 23 01 9B 06 02  ...8.._..U.#....
0660: 0E 00 3A 80 80 6E 06 1D  56 80 23 01 9B 06 02 0E  ..:..n..V.#.....
0670: 00 3C 80 80 7D 06 1D 57  80 23 01 9B 06 02 0E 00  .<..}..W.#......
0680: 3E 80 80 8C 06 1D 58 80  23 01 9B 06 02 0E 00 40  >.....X.#......@
0690: 80 80 9B 06 1D 59 80 23  01 9B 06 01 3F 07 02 05  .....Y.#....?...
06A0: 10 11 80 80 AD 06 1D 5A  80 23 01 3F 07 02 05 10  .......Z.#.?....
06B0: 5B 80 80 30 07 02 0E 00  08 80 80 C4 06 1D 5C 80  [..0..........\.
06C0: 23 01 2D 07 02 0E 00 1C  80 80 D3 06 1D 5D 80 23  #.-..........].#
06D0: 01 2D 07 02 0E 00 36 80  80 E2 06 1D 5E 80 23 01  .-....6.....^.#.
06E0: 2D 07 02 0E 00 38 80 80  F1 06 1D 5F 80 23 01 2D  -....8....._.#.-
06F0: 07 02 0E 00 3A 80 80 00  07 1D 60 80 23 01 2D 07  ....:.....`.#.-.
0700: 02 0E 00 3C 80 80 0F 07  1D 61 80 23 01 2D 07 02  ...<.....a.#.-..
0710: 0E 00 3E 80 80 1E 07 1D  62 80 23 01 2D 07 02 0E  ..>.....b.#.-...
0720: 00 40 80 80 2D 07 1D 63  80 23 01 2D 07 01 3F 07  .@..-..c.#.-..?.
0730: 02 05 10 1B 80 80 3F 07  1D 64 80 23 01 3F 07 01  ......?..d.#.?..
0740: 34 08 02 00 10 1C 80 00  34 08 1D 32 80 23 24 33  4.......4..2.#$3
0750: 80 1C 80 08 80 25 02 00  10 08 80 00 22 08 02 0E  .....%......"...
0760: 00 08 80 80 6D 07 1D 34  80 23 01 D6 07 02 0E 00  ....m..4.#......
0770: 1C 80 80 7C 07 1D 35 80  23 01 D6 07 02 0E 00 36  ...|..5.#......6
0780: 80 80 8B 07 1D 37 80 23  01 D6 07 02 0E 00 38 80  .....7.#......8.
0790: 80 9A 07 1D 39 80 23 01  D6 07 02 0E 00 3A 80 80  ....9.#......:..
07A0: A9 07 1D 3B 80 23 01 D6  07 02 0E 00 3C 80 80 B8  ...;.#......<...
07B0: 07 1D 3D 80 23 01 D6 07  02 0E 00 3E 80 80 C7 07  ..=.#......>....
07C0: 1D 3F 80 23 01 D6 07 02  0E 00 40 80 80 D6 07 1D  .?.#......@.....
07D0: 41 80 23 01 D6 07 1D 42  80 23 24 43 80 1C 80 08  A.#....B.#$C....
07E0: 80 25 02 00 10 08 80 00  10 08 42 03 03 10 00 00  .%........B.....
07F0: 02 01 00 08 80 00 FF 07  1D 44 80 23 01 08 08 03  .........D.#....
0800: 04 10 01 00 1D 65 80 23  03 01 10 45 80 01 1F 08  .....e.#...E....
0810: 02 00 10 1C 80 00 1F 08  1D 46 80 23 01 1F 08 01  .........F.#....
0820: 31 08 02 00 10 1C 80 00  31 08 1D 46 80 23 01 31  1.......1..F.#.1
0830: 08 01 34 08 21 00                                 ..4.!.          
```

#### Opcodes

```
  0: 0x0557 [0x03] Work_Zone[1] = 0*
  1: 0x055C [0x1E] EventEntity looks at LocalPlayer and starts talking
  2: 0x0561 [0x03] ExtData[1]->WorkLocal[0] = Work_Zone[3]
  3: 0x0566 [0x03] ExtData[1]->WorkLocal[1] = Work_Zone[4]
  4: 0x056B [0x1A] CALL_SUBROUTINE(address=0x3F2D)
  5: 0x056E [0x1A] CALL_SUBROUTINE(address=0x3F23)
  6: 0x0571 [0x03] Work_Zone[2] = ExtData[1]->WorkLocal[4]
  7: 0x0576 [0x03] Work_Zone[3] = ExtData[1]->WorkLocal[14]
  8: 0x057B [0x1D] PRINT_EVENT_MESSAGE(message_id=9222*)
     "What can I do for you?"
  9: 0x057E [0x23] WAIT_FOR_DIALOG_INTERACTION
 10: 0x057F [0x24] CREATE_DIALOG(message_id=9223*, default_option=0*, option_flags=0*)
     "What's up? [Anything new happening?/I want to start over.]"
 11: 0x0586 [0x25] WAIT_DIALOG_SELECT()
 12: 0x0587 [0x02] IF !(Work_Zone[0] == 0*) GOTO 0x0742
 13: 0x058F [0x02] IF !(Work_Zone[5] == 0*) GOTO 0x059E
 14: 0x0597 [0x1D] PRINT_EVENT_MESSAGE(message_id=9224*)
