# 17776669 - Adaruel

## Common Data

| Field            | Value                 |
|------------------|-----------------------|
| Zone             | Upper Jeuno (ID: 244) |
| Block Size       | 308 bytes             |
| Total Events     | 10                    |
| References Count | 24                    |

## List of Events

| Event ID                 | Entrypoint   |   Size |   Instructions |
|--------------------------|--------------|--------|----------------|
| [65535](#event-65535)    | 0x0000       |      6 |              3 |
| [198](#event-198)        | 0x0006       |      1 |              1 |
| [65535.1](#event-655351) | 0x0007       |     12 |              3 |
| [65535.2](#event-655352) | 0x0013       |     10 |              2 |
| [65535.3](#event-655353) | 0x001D       |     10 |              2 |
| [65535.4](#event-655354) | 0x0027       |     10 |              2 |
| [65535.5](#event-655355) | 0x0031       |     11 |              3 |
| [65535.6](#event-655356) | 0x003C       |     62 |             10 |
| [65535.7](#event-655357) | 0x007A       |     29 |              3 |
| [65535.8](#event-655358) | 0x0097       |      3 |              2 |

## DAT References (imed_data)

|   Index | Hex Value   |   Dec Value |
|---------|-------------|-------------|
|       0 | 0x000D      |          13 |
|       1 | 0xFFFED9A8  |  4294891944 |
|       2 | 0xE330      |       58160 |
|       3 | 0xFFFFFB50  |  4294966096 |
|       4 | 0x08F4      |        2292 |
|       5 | 0xFFFEF850  |  4294899792 |
|       6 | 0xEA5B      |       59995 |
|       7 | 0x0ED2      |        3794 |
|       8 | 0xFFFEE947  |  4294895943 |
|       9 | 0xCD9D      |       52637 |
|      10 | 0x06BE      |        1726 |
|      11 | 0xFFFEF265  |  4294898277 |
|      12 | 0xD10E      |       53518 |
|      13 | 0x0721      |        1825 |
|      14 | 0xFFFEECDB  |  4294896859 |
|      15 | 0xE4CC      |       58572 |
|      16 | 0xFFFFFB46  |  4294966086 |
|      17 | 0xFFFEEBC8  |  4294896584 |
|      18 | 0xEF3A      |       61242 |
|      19 | 0x0ACF      |        2767 |
|      20 | 0xFFFEE5A0  |  4294895008 |
|      21 | 0xFCB6      |       64694 |
|      22 | 0x0E2C      |        3628 |
|      23 | 0x0014      |          20 |

## Events

### Event 65535

#### Metadata

| Field        | Value   |
|--------------|---------|
| Entrypoint   | 0x0000  |
| Data Size    | 6 bytes |
| Instructions | 3       |

```
      00 01 02 03 04 05 06 07  08 09 0A 0B 0C 0D 0E 0F
      -- -- -- -- -- -- -- --  -- -- -- -- -- -- -- --
0000: 32 00 80 61 00 00                                 2..a..          
```

#### Opcodes

```
  0: 0x0000 [0x32] ExtData[1]->MainSpeed = 13* * 0.1
  1: 0x0003 [0x61] EventEntity->Render.Flags2 &= ~0x00000001
  2: 0x0005 [0x00] END_REQSTACK()
```

### Event 198

#### Metadata

| Field        | Value   |
|--------------|---------|
| Entrypoint   | 0x0006  |
| Data Size    | 1 bytes |
| Instructions | 1       |

```
      00 01 02 03 04 05 06 07  08 09 0A 0B 0C 0D 0E 0F
      -- -- -- -- -- -- -- --  -- -- -- -- -- -- -- --
0000:                   00                                    .         
```

#### Opcodes

```
  0: 0x0006 [0x00] END_REQSTACK()
```

### Event 65535.1

#### Metadata

| Field        | Value    |
|--------------|----------|
| Entrypoint   | 0x0007   |
| Data Size    | 12 bytes |
| Instructions | 3        |

```
      00 01 02 03 04 05 06 07  08 09 0A 0B 0C 0D 0E 0F
      -- -- -- -- -- -- -- --  -- -- -- -- -- -- -- --
0000:                      22  00 37 01 80 02 80 03 80         ".7......
0010: 04 80 00                                          ...             
```

#### Opcodes

```
  0: 0x0007 [0x22] ENTITY_HIDE_FLAG(enabled=0x00)
  1: 0x0009 [0x37] UPDATE_EVENT_POSITION_AND_DIR: x=-75.352*, z=58.160*, y=-1.200*, direction=201.4°*
  2: 0x0012 [0x00] END_REQSTACK()
```

### Event 65535.2

#### Metadata

| Field        | Value    |
|--------------|----------|
| Entrypoint   | 0x0013   |
| Data Size    | 10 bytes |
| Instructions | 2        |

```
      00 01 02 03 04 05 06 07  08 09 0A 0B 0C 0D 0E 0F
      -- -- -- -- -- -- -- --  -- -- -- -- -- -- -- --
0010:          37 05 80 06 80  03 80 07 80 00              7.........   
```

#### Opcodes

```
  0: 0x0013 [0x37] UPDATE_EVENT_POSITION_AND_DIR: x=-67.504*, z=59.995*, y=-1.200*, direction=333.4°*
  1: 0x001C [0x00] END_REQSTACK()
```

### Event 65535.3

#### Metadata

| Field        | Value    |
|--------------|----------|
| Entrypoint   | 0x001D   |
| Data Size    | 10 bytes |
| Instructions | 2        |

```
      00 01 02 03 04 05 06 07  08 09 0A 0B 0C 0D 0E 0F
      -- -- -- -- -- -- -- --  -- -- -- -- -- -- -- --
0010:                                         37 08 80               7..
0020: 09 80 03 80 0A 80 00                              .......         
```

#### Opcodes

```
  0: 0x001D [0x37] UPDATE_EVENT_POSITION_AND_DIR: x=-71.353*, z=52.637*, y=-1.200*, direction=151.7°*
  1: 0x0026 [0x00] END_REQSTACK()
```

### Event 65535.4

#### Metadata

| Field        | Value    |
|--------------|----------|
| Entrypoint   | 0x0027   |
| Data Size    | 10 bytes |
| Instructions | 2        |

```
      00 01 02 03 04 05 06 07  08 09 0A 0B 0C 0D 0E 0F
      -- -- -- -- -- -- -- --  -- -- -- -- -- -- -- --
0020:                      37  0B 80 0C 80 03 80 0D 80         7........
0030: 00                                                .               
```

#### Opcodes

```
  0: 0x0027 [0x37] UPDATE_EVENT_POSITION_AND_DIR: x=-69.019*, z=53.518*, y=-1.200*, direction=160.4°*
  1: 0x0030 [0x00] END_REQSTACK()
```

### Event 65535.5

#### Metadata

| Field        | Value    |
|--------------|----------|
| Entrypoint   | 0x0031   |
| Data Size    | 11 bytes |
| Instructions | 3        |

```
      00 01 02 03 04 05 06 07  08 09 0A 0B 0C 0D 0E 0F
      -- -- -- -- -- -- -- --  -- -- -- -- -- -- -- --
0030:    1F 00 0E 80 0F 80 10  80 1F 01 00               ...........    
```

#### Opcodes

```
  0: 0x0031 [0x1F] MOVE_ENTITY: EventEntity moves to X=-70.437*, Z=58.572*, Y=-1.210*
  1: 0x0039 [0x1F] MOVE_ENTITY: Update entity position (mode=1)
  2: 0x003B [0x00] END_REQSTACK()
```

### Event 65535.6

#### Metadata

| Field        | Value    |
|--------------|----------|
| Entrypoint   | 0x003C   |
| Data Size    | 62 bytes |
| Instructions | 10       |

```
      00 01 02 03 04 05 06 07  08 09 0A 0B 0C 0D 0E 0F
      -- -- -- -- -- -- -- --  -- -- -- -- -- -- -- --
0030:                                      37 11 80 12              7...
0040: 80 10 80 13 80 1F 00 14  80 15 80 03 80 1F 01 6F  ...............o
0050: 4B F8 FF FF 7F 16 80 6F  76 F8 FF FF 7F 66 17 80  K......ov....f..
0060: F8 FF FF 7F F8 FF FF 7F  70 61 73 30 53 F8 FF FF  ........pas0S...
0070: 7F F8 FF FF 7F 70 61 73  30 00                    .....pas0.      
```

#### Opcodes

```
  0: 0x003C [0x37] UPDATE_EVENT_POSITION_AND_DIR: x=-70.712*, z=61.242*, y=-1.210*, direction=243.2°*
  1: 0x0045 [0x1F] MOVE_ENTITY: EventEntity moves to X=-72.288*, Z=64.694*, Y=-1.200*
  2: 0x004D [0x1F] MOVE_ENTITY: Update entity position (mode=1)
  3: 0x004F [0x6F] WAIT_FRAME_DELAY: Yield until WaitTime reaches zero
  4: 0x0050 [0x4B] UPDATE_ENTITY_YAW(entity=EventEntity, yaw=19.9°*)
  5: 0x0057 [0x6F] WAIT_FRAME_DELAY: Yield until WaitTime reaches zero
  6: 0x0058 [0x76] CHECK_ENTITY_RENDER_FLAGS: Wait until EventEntity Render.Flags0 and Render.Flags3 conditions are met
  7: 0x005D [0x66] LOAD_EXT_SCHEDULER_MAIN: Load scheduler "pas0" with entities [EventEntity, EventEntity], work=20*
  8: 0x006C [0x53] WAIT_SCHEDULER_TASK: Wait for scheduler "pas0" with entities [EventEntity, EventEntity]
  9: 0x0079 [0x00] END_REQSTACK()
```

### Event 65535.7

#### Metadata

| Field        | Value    |
|--------------|----------|
| Entrypoint   | 0x007A   |
| Data Size    | 29 bytes |
| Instructions | 3        |

```
      00 01 02 03 04 05 06 07  08 09 0A 0B 0C 0D 0E 0F
      -- -- -- -- -- -- -- --  -- -- -- -- -- -- -- --
0070:                                66 17 80 F8 FF FF            f.....
0080: 7F F8 FF FF 7F 74 68 6B  31 53 F8 FF FF 7F F8 FF  .....thk1S......
0090: FF 7F 74 68 6B 31 00                              ..thk1.         
```

#### Opcodes

```
  0: 0x007A [0x66] LOAD_EXT_SCHEDULER_MAIN: Load scheduler "thk1" with entities [EventEntity, EventEntity], work=20*
  1: 0x0089 [0x53] WAIT_SCHEDULER_TASK: Wait for scheduler "thk1" with entities [EventEntity, EventEntity]
  2: 0x0096 [0x00] END_REQSTACK()
```

### Event 65535.8

#### Metadata

| Field        | Value   |
|--------------|---------|
| Entrypoint   | 0x0097  |
| Data Size    | 3 bytes |
| Instructions | 2       |

```
      00 01 02 03 04 05 06 07  08 09 0A 0B 0C 0D 0E 0F
      -- -- -- -- -- -- -- --  -- -- -- -- -- -- -- --
0090:                      22  01 00                           "..      
```

#### Opcodes

```
  0: 0x0097 [0x22] ENTITY_HIDE_FLAG(enabled=0x01)
  1: 0x0099 [0x00] END_REQSTACK()
```
