# 17776674 - Fickblix

## Common Data

| Field            | Value                 |
|------------------|-----------------------|
| Zone             | Upper Jeuno (ID: 244) |
| Block Size       | 348 bytes             |
| Total Events     | 9                     |
| References Count | 22                    |

## List of Events

| Event ID                 | Entrypoint   |   Size |   Instructions |
|--------------------------|--------------|--------|----------------|
| [65535](#event-65535)    | 0x0000       |      6 |              3 |
| [80](#event-80)          | 0x0006       |     10 |              2 |
| [65535.1](#event-655351) | 0x0010       |     52 |             12 |
| [94](#event-94)          | 0x0044       |     12 |              3 |
| [65535.2](#event-655352) | 0x0050       |     50 |              9 |
| [65535.3](#event-655353) | 0x0082       |     49 |              9 |
| [65535.4](#event-655354) | 0x00B3       |     19 |              3 |
| [65535.5](#event-655355) | 0x00C6       |      9 |              3 |
| [65535.6](#event-655356) | 0x00CF       |      1 |              1 |

## DAT References (imed_data)

|   Index | Hex Value   |   Dec Value |
|---------|-------------|-------------|
|       0 | 0x000D      |          13 |
|       1 | 0x1B6A      |        7018 |
|       2 | 0x11086     |       69766 |
|       3 | 0x07CF      |        1999 |
|       4 | 0x0FC4      |        4036 |
|       5 | 0x2A08      |       10760 |
|       6 | 0x112DA     |       70362 |
|       7 | 0x00C1      |         193 |
|       8 | 0x000A      |          10 |
|       9 | 0x31A8      |       12712 |
|      10 | 0x10FAC     |       69548 |
|      11 | 0x06A3      |        1699 |
|      12 | 0x0636      |        1590 |
|      13 | 0x2450      |        9296 |
|      14 | 0x10FA1     |       69537 |
|      15 | 0xFFFFF409  |  4294964233 |
|      16 | 0xFB0C      |       64268 |
|      17 | 0x07D0      |        2000 |
|      18 | 0x000F      |          15 |
|      19 | 0x00D7      |         215 |
|      20 | 0x001E      |          30 |
|      21 | 0x003C      |          60 |

## Events

### Event 65535

#### Metadata

| Field        | Value   |
|--------------|---------|
| Entrypoint   | 0x0000  |
| Data Size    | 6 bytes |
| Instructions | 3       |

```
      00 01 02 03 04 05 06 07  08 09 0A 0B 0C 0D 0E 0F
      -- -- -- -- -- -- -- --  -- -- -- -- -- -- -- --
0000: 22 01 32 00 80 00                                 ".2...          
```

#### Opcodes

```
  0: 0x0000 [0x22] ENTITY_HIDE_FLAG(enabled=0x01)
  1: 0x0002 [0x32] ExtData[1]->MainSpeed = 13* * 0.1
  2: 0x0005 [0x00] END_REQSTACK()
```

### Event 80

#### Metadata

| Field        | Value    |
|--------------|----------|
| Entrypoint   | 0x0006   |
| Data Size    | 10 bytes |
| Instructions | 2        |

```
      00 01 02 03 04 05 06 07  08 09 0A 0B 0C 0D 0E 0F
      -- -- -- -- -- -- -- --  -- -- -- -- -- -- -- --
0000:                   37 01  80 02 80 03 80 04 80 00        7.........
```

#### Opcodes

```
  0: 0x0006 [0x37] UPDATE_EVENT_POSITION_AND_DIR: x=7.018*, z=69.766*, y=1.999*, direction=354.7°*
  1: 0x000F [0x00] END_REQSTACK()
```

### Event 65535.1

#### Metadata

| Field        | Value    |
|--------------|----------|
| Entrypoint   | 0x0010   |
| Data Size    | 52 bytes |
| Instructions | 12       |

```
      00 01 02 03 04 05 06 07  08 09 0A 0B 0C 0D 0E 0F
      -- -- -- -- -- -- -- --  -- -- -- -- -- -- -- --
0010: 1F 00 05 80 06 80 03 80  1F 01 39 07 80 4A 21 40  ..........9..J!@
0020: 0F 01 22 40 0F 01 1C 08  80 4A 20 40 0F 01 22 40  .."@.....J @.."@
0030: 0F 01 1C 08 80 4A F0 FF  FF 7F 22 40 0F 01 1C 08  .....J...."@....
0040: 80 6F 70 00                                       .op.            
```

#### Opcodes

```
  0: 0x0010 [0x1F] MOVE_ENTITY: EventEntity moves to X=10.760*, Z=70.362*, Y=1.999*
  1: 0x0018 [0x1F] MOVE_ENTITY: Update entity position (mode=1)
  2: 0x001A [0x39] SET_ENTITY_DIRECTION(direction=1.1°*)
  3: 0x001D [0x4A] Geebeh (ID: 17776673/0x010F4021) looks at Fickblix (ID: 17776674/0x010F4022)
  4: 0x0026 [0x1C] WAIT(10* ticks)
  5: 0x0029 [0x4A] Paya-Sabya (ID: 17776672/0x010F4020) looks at Fickblix (ID: 17776674/0x010F4022)
  6: 0x0032 [0x1C] WAIT(10* ticks)
  7: 0x0035 [0x4A] LocalPlayer looks at Fickblix (ID: 17776674/0x010F4022)
  8: 0x003E [0x1C] WAIT(10* ticks)
  9: 0x0041 [0x6F] WAIT_FRAME_DELAY: Yield until WaitTime reaches zero
 10: 0x0042 [0x70] WAIT_ENTITY_RENDER_FLAG: Wait while EventEntity->Render.Flags3 bit 2 is set (cancel turn if not)
 11: 0x0043 [0x00] END_REQSTACK()
```

### Event 94

#### Metadata

| Field        | Value    |
|--------------|----------|
| Entrypoint   | 0x0044   |
| Data Size    | 12 bytes |
| Instructions | 3        |

```
      00 01 02 03 04 05 06 07  08 09 0A 0B 0C 0D 0E 0F
      -- -- -- -- -- -- -- --  -- -- -- -- -- -- -- --
0040:             33 01 37 09  80 0A 80 0B 80 0C 80 00      3.7.........
```

#### Opcodes

```
  0: 0x0044 [0x33] EventEntity->Render.Flags0 |= 0x200000 // Bit 21 (flag=0x01)
  1: 0x0046 [0x37] UPDATE_EVENT_POSITION_AND_DIR: x=12.712*, z=69.548*, y=1.699*, direction=139.7°*
  2: 0x004F [0x00] END_REQSTACK()
```

### Event 65535.2

#### Metadata

| Field        | Value    |
|--------------|----------|
| Entrypoint   | 0x0050   |
| Data Size    | 50 bytes |
| Instructions | 9        |

```
      00 01 02 03 04 05 06 07  08 09 0A 0B 0C 0D 0E 0F
      -- -- -- -- -- -- -- --  -- -- -- -- -- -- -- --
0050: 1F 00 0D 80 0E 80 03 80  1F 01 4A 23 40 0F 01 22  ..........J#@.."
0060: 40 0F 01 4A 20 40 0F 01  22 40 0F 01 4A F0 FF FF  @..J @.."@..J...
0070: 7F 22 40 0F 01 1F 00 0F  80 10 80 11 80 1F 01 22  ."@............"
0080: 01 00                                             ..              
```

#### Opcodes

```
  0: 0x0050 [0x1F] MOVE_ENTITY: EventEntity moves to X=9.296*, Z=69.537*, Y=1.999*
  1: 0x0058 [0x1F] MOVE_ENTITY: Update entity position (mode=1)
  2: 0x005A [0x4A] Verena (ID: 17776675/0x010F4023) looks at Fickblix (ID: 17776674/0x010F4022)
  3: 0x0063 [0x4A] Paya-Sabya (ID: 17776672/0x010F4020) looks at Fickblix (ID: 17776674/0x010F4022)
  4: 0x006C [0x4A] LocalPlayer looks at Fickblix (ID: 17776674/0x010F4022)
  5: 0x0075 [0x1F] MOVE_ENTITY: EventEntity moves to X=-3.063*, Z=64.268*, Y=2.000*
  6: 0x007D [0x1F] MOVE_ENTITY: Update entity position (mode=1)
  7: 0x007F [0x22] ENTITY_HIDE_FLAG(enabled=0x01)
  8: 0x0081 [0x00] END_REQSTACK()
```

### Event 65535.3

#### Metadata

| Field        | Value    |
|--------------|----------|
| Entrypoint   | 0x0082   |
| Data Size    | 49 bytes |
| Instructions | 9        |

```
      00 01 02 03 04 05 06 07  08 09 0A 0B 0C 0D 0E 0F
      -- -- -- -- -- -- -- --  -- -- -- -- -- -- -- --
0080:       1C 12 80 4A 23 40  0F 01 22 40 0F 01 1C 12    ...J#@.."@....
0090: 80 4A 20 40 0F 01 22 40  0F 01 1C 12 80 4A F0 FF  .J @.."@.....J..
00A0: FF 7F 22 40 0F 01 1C 12  80 4A 21 40 0F 01 22 40  .."@.....J!@.."@
00B0: 0F 01 00                                          ...             
```

#### Opcodes

```
  0: 0x0082 [0x1C] WAIT(15* ticks)
  1: 0x0085 [0x4A] Verena (ID: 17776675/0x010F4023) looks at Fickblix (ID: 17776674/0x010F4022)
  2: 0x008E [0x1C] WAIT(15* ticks)
  3: 0x0091 [0x4A] Paya-Sabya (ID: 17776672/0x010F4020) looks at Fickblix (ID: 17776674/0x010F4022)
  4: 0x009A [0x1C] WAIT(15* ticks)
  5: 0x009D [0x4A] LocalPlayer looks at Fickblix (ID: 17776674/0x010F4022)
  6: 0x00A6 [0x1C] WAIT(15* ticks)
  7: 0x00A9 [0x4A] Geebeh (ID: 17776673/0x010F4021) looks at Fickblix (ID: 17776674/0x010F4022)
  8: 0x00B2 [0x00] END_REQSTACK()
```

### Event 65535.4

#### Metadata

| Field        | Value    |
|--------------|----------|
| Entrypoint   | 0x00B3   |
| Data Size    | 19 bytes |
| Instructions | 3        |

```
      00 01 02 03 04 05 06 07  08 09 0A 0B 0C 0D 0E 0F
      -- -- -- -- -- -- -- --  -- -- -- -- -- -- -- --
00B0:          5B 13 80 F8 FF  FF 7F F8 FF FF 7F 74 6C     [..........tl
00C0: 6B 30 1C 14 80 00                                 k0....          
```

#### Opcodes

```
  0: 0x00B3 [0x5B] LOAD_EXT_SCHEDULER: Load scheduler "tlk0" with entities [EventEntity, EventEntity], work=215*
  1: 0x00C2 [0x1C] WAIT(30* ticks)
  2: 0x00C5 [0x00] END_REQSTACK()
```

### Event 65535.5

#### Metadata

| Field        | Value   |
|--------------|---------|
| Entrypoint   | 0x00C6  |
| Data Size    | 9 bytes |
| Instructions | 3       |

```
      00 01 02 03 04 05 06 07  08 09 0A 0B 0C 0D 0E 0F
      -- -- -- -- -- -- -- --  -- -- -- -- -- -- -- --
00C0:                   5E 69  64 6C 30 1C 15 80 00           ^idl0.... 
```

#### Opcodes

```
  0: 0x00C6 [0x5E] EventEntity goes idle (kills current action) (animation: "idl0")
  1: 0x00CB [0x1C] WAIT(60* ticks)
  2: 0x00CE [0x00] END_REQSTACK()
```

### Event 65535.6

#### Metadata

| Field        | Value   |
|--------------|---------|
| Entrypoint   | 0x00CF  |
| Data Size    | 1 bytes |
| Instructions | 1       |

```
      00 01 02 03 04 05 06 07  08 09 0A 0B 0C 0D 0E 0F
      -- -- -- -- -- -- -- --  -- -- -- -- -- -- -- --
00C0:                                               00                 .
```

#### Opcodes

```
  0: 0x00CF [0x00] END_REQSTACK()
```
