# 17776667 - Ilumida

## Common Data

| Field            | Value                 |
|------------------|-----------------------|
| Zone             | Upper Jeuno (ID: 244) |
| Block Size       | 924 bytes             |
| Total Events     | 33                    |
| References Count | 42                    |

## List of Events

| Event ID                   | Entrypoint   |   Size |   Instructions |
|----------------------------|--------------|--------|----------------|
| [65535](#event-65535)      | 0x0000       |     22 |              4 |
| [197](#event-197)          | 0x0016       |      1 |              1 |
| [201](#event-201)          | 0x0017       |     72 |             19 |
| [199](#event-199)          | 0x005F       |     21 |              6 |
| [198](#event-198)          | 0x0074       |      1 |              1 |
| [200](#event-200)          | 0x0075       |     16 |              5 |
| [196](#event-196)          | 0x0085       |     20 |              7 |
| [189](#event-189)          | 0x0099       |     16 |              5 |
| [192](#event-192)          | 0x00A9       |      1 |              1 |
| [193](#event-193)          | 0x00AA       |     72 |             17 |
| [191](#event-191)          | 0x00F2       |     16 |              5 |
| [195](#event-195)          | 0x0102       |      1 |              1 |
| [194](#event-194)          | 0x0103       |      1 |              1 |
| [190](#event-190)          | 0x0104       |     16 |              5 |
| [65535.1](#event-655351)   | 0x0114       |     33 |              5 |
| [65535.2](#event-655352)   | 0x0135       |     34 |              6 |
| [65535.3](#event-655353)   | 0x0157       |     11 |              3 |
| [65535.4](#event-655354)   | 0x0162       |     10 |              2 |
| [65535.5](#event-655355)   | 0x016C       |     12 |              4 |
| [65535.6](#event-655356)   | 0x0178       |     15 |              3 |
| [65535.7](#event-655357)   | 0x0187       |      3 |              2 |
| [65535.8](#event-655358)   | 0x018A       |     12 |              3 |
| [65535.9](#event-655359)   | 0x0196       |     24 |              4 |
| [65535.10](#event-6553510) | 0x01AE       |     29 |              3 |
| [65535.11](#event-6553511) | 0x01CB       |     19 |              3 |
| [65535.12](#event-6553512) | 0x01DE       |      9 |              3 |
| [65535.13](#event-6553513) | 0x01E7       |     19 |              3 |
| [65535.14](#event-6553514) | 0x01FA       |      9 |              3 |
| [65535.15](#event-6553515) | 0x0203       |     16 |              2 |
| [65535.16](#event-6553516) | 0x0213       |     42 |              4 |
| [65535.17](#event-6553517) | 0x023D       |      1 |              1 |
| [65535.18](#event-6553518) | 0x023E       |     16 |              4 |
| [65535.19](#event-6553519) | 0x024E       |     17 |              5 |

## DAT References (imed_data)

|   Index | Hex Value   |   Dec Value |
|---------|-------------|-------------|
|       0 | 0x000A      |          10 |
|       1 | 0x01DC      |         476 |
|       2 | 0x1FC0      |        8128 |
|       3 | 0x1FBC      |        8124 |
|       4 | 0x0001      |           1 |
|       5 | 0x0000      |           0 |
|       6 | 0x1FBD      |        8125 |
|       7 | 0x1FBF      |        8127 |
|       8 | 0x1FC1      |        8129 |
|       9 | 0x1FDB      |        8155 |
|      10 | 0x1FDC      |        8156 |
|      11 | 0x1FDD      |        8157 |
|      12 | 0x1CF8      |        7416 |
|      13 | 0x1D0E      |        7438 |
|      14 | 0x0032      |          50 |
|      15 | 0x1D0F      |        7439 |
|      16 | 0x1D10      |        7440 |
|      17 | 0x1D11      |        7441 |
|      18 | 0x1D12      |        7442 |
|      19 | 0x1D17      |        7447 |
|      20 | 0x0024      |          36 |
|      21 | 0x003C      |          60 |
|      22 | 0x0078      |         120 |
|      23 | 0xFFFEDB7C  |  4294892412 |
|      24 | 0xE5E6      |       58854 |
|      25 | 0xFFFFFB51  |  4294966097 |
|      26 | 0xFFFEDF05  |  4294893317 |
|      27 | 0xEDE8      |       60904 |
|      28 | 0xFFFEE0C5  |  4294893765 |
|      29 | 0xFA3A      |       64058 |
|      30 | 0xFFFFFB50  |  4294966096 |
|      31 | 0x0EF5      |        3829 |
|      32 | 0xFFFEE5A0  |  4294895008 |
|      33 | 0xFCB6      |       64694 |
|      34 | 0x0E2C      |        3628 |
|      35 | 0x0023      |          35 |
|      36 | 0x001E      |          30 |
|      37 | 0xFFFEE19F  |  4294893983 |
|      38 | 0xE6DE      |       59102 |
|      39 | 0xFFFEE3DA  |  4294894554 |
|      40 | 0xFE58      |       65112 |
|      41 | 0x0ED8      |        3800 |

## String References

- **7416**: Oh, hello there. You won't find anything here but memories long gone. Young, sprightly folk like yourself would likely die of boredom!
- **7438**: Would you mind running to the temple and picking one up for me? At my age, even short walks leave me quite out of breath.
- **7439**: Will you bring $6? [At once./Not yet.]
- **7442**: I think the Temple of the Goddess should have some candles. I know it's a bother, but would you mind fetching one?
- **7447**: And thank you so much. My husband must be very pleased. Don't be a stranger, all right?
- **8124**: Travel to the Boyahda Tree? [Yes./No.]
- **8125**: What a kind young [lad/lady] you are. I appreciate that you would take on such a dangerous task for a feeble old woman.
- **8127**: Oh well, I guess it was too much to ask of you...
- **8128**: Ah, <Player>. You have come back. I know that it is asking a lot, but could you find it in your heart to assist me in finding the $3 that Kurou-Morou spoke of?
- **8129**: According to our little friend, there is a place deep within the Boyahda Tree where the moonlight penetrates the leaves. Once you have arrived at that spot, offering a prayer to the gods is the only way to obtain $6.
- **8155**: Thank you again for all of your help. Those words my husband left me still echo in my mind... It is as if he were here in this room, standing with me now...
- **8156**: Our little friend was able to express his feelings to his girlfriend? I knew that he would do the right thing.
- **8157**: I would like to sit down and have a cup of tea with that Chululu. I'm sure we would have a great deal to chat about...

## Events

### Event 65535

#### Metadata

| Field        | Value    |
|--------------|----------|
| Entrypoint   | 0x0000   |
| Data Size    | 22 bytes |
| Instructions | 4        |

```
      00 01 02 03 04 05 06 07  08 09 0A 0B 0C 0D 0E 0F
      -- -- -- -- -- -- -- --  -- -- -- -- -- -- -- --
0000: 3B F8 FF FF 7F 00 00 01  00 02 00 3A F8 FF FF 7F  ;..........:....
0010: 03 00 32 00 80 00                                 ..2...          
```

#### Opcodes

```
  0: 0x0000 [0x3B] GET_ENTITY_POSITION(entity=EventEntity, x_destination=ExtData[1]->WorkLocal[0], y_destination=ExtData[1]->WorkLocal[1], z_destination=ExtData[1]->WorkLocal[2])
  1: 0x000B [0x3A] CONVERT_YAW_TO_BYTE(entity=EventEntity, result_destination=ExtData[1]->WorkLocal[3])
  2: 0x0012 [0x32] ExtData[1]->MainSpeed = 10* * 0.1
  3: 0x0015 [0x00] END_REQSTACK()
```

### Event 197

#### Metadata

| Field        | Value   |
|--------------|---------|
| Entrypoint   | 0x0016  |
| Data Size    | 1 bytes |
| Instructions | 1       |

```
      00 01 02 03 04 05 06 07  08 09 0A 0B 0C 0D 0E 0F
      -- -- -- -- -- -- -- --  -- -- -- -- -- -- -- --
0010:                   00                                    .         
```

#### Opcodes

```
  0: 0x0016 [0x00] END_REQSTACK()
```

### Event 201

#### Metadata

| Field        | Value    |
|--------------|----------|
| Entrypoint   | 0x0017   |
| Data Size    | 72 bytes |
| Instructions | 19       |

```
      00 01 02 03 04 05 06 07  08 09 0A 0B 0C 0D 0E 0F
      -- -- -- -- -- -- -- --  -- -- -- -- -- -- -- --
0010:                      79  00 F8 FF FF 7F F0 FF FF         y........
0020: 7F 03 02 10 01 80 1D 02  80 23 06 01 10 24 03 80  .........#...$..
0030: 04 80 05 80 25 02 00 10  05 80 00 49 00 03 01 10  ....%......I....
0040: 04 80 1D 06 80 23 01 5D  00 02 00 10 04 80 00 5D  .....#.].......]
0050: 00 7B F8 FF FF 7F 1D 07  80 23 01 5D 00 21 00     .{.......#.].!. 
```

#### Opcodes

```
  0: 0x0017 [0x79] EventEntity looks at LocalPlayer (Basic look)
  1: 0x0021 [0x03] Work_Zone[2] = 476*
  2: 0x0026 [0x1D] PRINT_EVENT_MESSAGE(message_id=8128*)
    → "Ah, <Player>. You have come back. I know that it is asking a lot, but could you find it in your heart to assist me in finding the $3 that Kurou-Morou spoke of?"
  3: 0x0029 [0x23] WAIT_FOR_DIALOG_INTERACTION
  4: 0x002A [0x06] Work_Zone[1] = 0
  5: 0x002D [0x24] CREATE_DIALOG(message_id=8124*, default_option=1*, option_flags=0*)
    → "Travel to the Boyahda Tree? [Yes./No.]"
  6: 0x0034 [0x25] WAIT_DIALOG_SELECT()
  7: 0x0035 [0x02] IF !(Work_Zone[0] == 0*) GOTO 0x0049
  8: 0x003D [0x03] Work_Zone[1] = 1*
  9: 0x0042 [0x1D] PRINT_EVENT_MESSAGE(message_id=8125*)
    → "What a kind young [lad/lady] you are. I appreciate that you would take on such a dangerous task for a feeble old woman."
 10: 0x0045 [0x23] WAIT_FOR_DIALOG_INTERACTION
 11: 0x0046 [0x01] GOTO 0x005D
 12: 0x0049 [0x02] IF !(Work_Zone[0] == 1*) GOTO 0x005D
 13: 0x0051 [0x7B] EventEntity stops talking
 14: 0x0056 [0x1D] PRINT_EVENT_MESSAGE(message_id=8127*)
    → "Oh well, I guess it was too much to ask of you..."
 15: 0x0059 [0x23] WAIT_FOR_DIALOG_INTERACTION
 16: 0x005A [0x01] GOTO 0x005D

SUBROUTINE_005D:
 17: 0x005D [0x21] END_EVENT
 18: 0x005E [0x00] END_REQSTACK()
```

### Event 199

#### Metadata

| Field        | Value    |
|--------------|----------|
| Entrypoint   | 0x005F   |
| Data Size    | 21 bytes |
| Instructions | 6        |

```
      00 01 02 03 04 05 06 07  08 09 0A 0B 0C 0D 0E 0F
      -- -- -- -- -- -- -- --  -- -- -- -- -- -- -- --
0050:                                               79                 y
0060: 00 F8 FF FF 7F F0 FF FF  7F 03 02 10 01 80 1D 08  ................
0070: 80 23 21 00                                       .#!.            
```

#### Opcodes

```
  0: 0x005F [0x79] EventEntity looks at LocalPlayer (Basic look)
  1: 0x0069 [0x03] Work_Zone[2] = 476*
  2: 0x006E [0x1D] PRINT_EVENT_MESSAGE(message_id=8129*)
    → "According to our little friend, there is a place deep within the Boyahda Tree where the moonlight penetrates the leaves. Once you have arrived at that spot, offering a prayer to the gods is the only way to obtain $6."
  3: 0x0071 [0x23] WAIT_FOR_DIALOG_INTERACTION
  4: 0x0072 [0x21] END_EVENT
  5: 0x0073 [0x00] END_REQSTACK()
```

### Event 198

#### Metadata

| Field        | Value   |
|--------------|---------|
| Entrypoint   | 0x0074  |
| Data Size    | 1 bytes |
| Instructions | 1       |

```
      00 01 02 03 04 05 06 07  08 09 0A 0B 0C 0D 0E 0F
      -- -- -- -- -- -- -- --  -- -- -- -- -- -- -- --
0070:             00                                        .           
```

#### Opcodes

```
  0: 0x0074 [0x00] END_REQSTACK()
```

### Event 200

#### Metadata

| Field        | Value    |
|--------------|----------|
| Entrypoint   | 0x0075   |
| Data Size    | 16 bytes |
| Instructions | 5        |

```
      00 01 02 03 04 05 06 07  08 09 0A 0B 0C 0D 0E 0F
      -- -- -- -- -- -- -- --  -- -- -- -- -- -- -- --
0070:                79 00 F8  FF FF 7F F0 FF FF 7F 1D       y..........
0080: 09 80 23 21 00                                    ..#!.           
```

#### Opcodes

```
  0: 0x0075 [0x79] EventEntity looks at LocalPlayer (Basic look)
  1: 0x007F [0x1D] PRINT_EVENT_MESSAGE(message_id=8155*)
    → "Thank you again for all of your help. Those words my husband left me still echo in my mind... It is as if he were here in this room, standing with me now..."
  2: 0x0082 [0x23] WAIT_FOR_DIALOG_INTERACTION
  3: 0x0083 [0x21] END_EVENT
  4: 0x0084 [0x00] END_REQSTACK()
```

### Event 196

#### Metadata

| Field        | Value    |
|--------------|----------|
| Entrypoint   | 0x0085   |
| Data Size    | 20 bytes |
| Instructions | 7        |

```
      00 01 02 03 04 05 06 07  08 09 0A 0B 0C 0D 0E 0F
      -- -- -- -- -- -- -- --  -- -- -- -- -- -- -- --
0080:                79 00 F8  FF FF 7F F0 FF FF 7F 1D       y..........
0090: 0A 80 23 1D 0B 80 23 21  00                       ..#...#!.       
```

#### Opcodes

```
  0: 0x0085 [0x79] EventEntity looks at LocalPlayer (Basic look)
  1: 0x008F [0x1D] PRINT_EVENT_MESSAGE(message_id=8156*)
    → "Our little friend was able to express his feelings to his girlfriend? I knew that he would do the right thing."
  2: 0x0092 [0x23] WAIT_FOR_DIALOG_INTERACTION
  3: 0x0093 [0x1D] PRINT_EVENT_MESSAGE(message_id=8157*)
    → "I would like to sit down and have a cup of tea with that Chululu. I'm sure we would have a great deal to chat about..."
  4: 0x0096 [0x23] WAIT_FOR_DIALOG_INTERACTION
  5: 0x0097 [0x21] END_EVENT
  6: 0x0098 [0x00] END_REQSTACK()
```

### Event 189

#### Metadata

| Field        | Value    |
|--------------|----------|
| Entrypoint   | 0x0099   |
| Data Size    | 16 bytes |
| Instructions | 5        |

```
      00 01 02 03 04 05 06 07  08 09 0A 0B 0C 0D 0E 0F
      -- -- -- -- -- -- -- --  -- -- -- -- -- -- -- --
0090:                             79 00 F8 FF FF 7F F0           y......
00A0: FF FF 7F 1D 0C 80 23 21  00                       ......#!.       
```

#### Opcodes

```
  0: 0x0099 [0x79] EventEntity looks at LocalPlayer (Basic look)
  1: 0x00A3 [0x1D] PRINT_EVENT_MESSAGE(message_id=7416*)
    → "Oh, hello there. You won't find anything here but memories long gone. Young, sprightly folk like yourself would likely die of boredom!"
  2: 0x00A6 [0x23] WAIT_FOR_DIALOG_INTERACTION
  3: 0x00A7 [0x21] END_EVENT
  4: 0x00A8 [0x00] END_REQSTACK()
```

### Event 192

#### Metadata

| Field        | Value   |
|--------------|---------|
| Entrypoint   | 0x00A9  |
| Data Size    | 1 bytes |
| Instructions | 1       |

```
      00 01 02 03 04 05 06 07  08 09 0A 0B 0C 0D 0E 0F
      -- -- -- -- -- -- -- --  -- -- -- -- -- -- -- --
00A0:                             00                             .      
```

#### Opcodes

```
  0: 0x00A9 [0x00] END_REQSTACK()
```

### Event 193

#### Metadata

| Field        | Value    |
|--------------|----------|
| Entrypoint   | 0x00AA   |
| Data Size    | 72 bytes |
| Instructions | 17       |

```
      00 01 02 03 04 05 06 07  08 09 0A 0B 0C 0D 0E 0F
      -- -- -- -- -- -- -- --  -- -- -- -- -- -- -- --
00A0:                                79 00 F8 FF FF 7F            y.....
00B0: F0 FF FF 7F 1D 0D 80 23  03 09 10 0E 80 24 0F 80  .......#.....$..
00C0: 05 80 05 80 25 02 00 10  05 80 00 DD 00 03 01 10  ....%...........
00D0: 04 80 2B 1B 40 0F 01 10  80 23 01 F0 00 02 00 10  ..+.@....#......
00E0: 04 80 00 F0 00 2B 1B 40  0F 01 11 80 23 01 F0 00  .....+.@....#...
00F0: 21 00                                             !.              
```

#### Opcodes

```
  0: 0x00AA [0x79] EventEntity looks at LocalPlayer (Basic look)
  1: 0x00B4 [0x1D] PRINT_EVENT_MESSAGE(message_id=7438*)
    → "Would you mind running to the temple and picking one up for me? At my age, even short walks leave me quite out of breath."
  2: 0x00B7 [0x23] WAIT_FOR_DIALOG_INTERACTION
  3: 0x00B8 [0x03] Work_Zone[9] = 50*
  4: 0x00BD [0x24] CREATE_DIALOG(message_id=7439*, default_option=0*, option_flags=0*)
    → "Will you bring $6? [At once./Not yet.]"
  5: 0x00C4 [0x25] WAIT_DIALOG_SELECT()
  6: 0x00C5 [0x02] IF !(Work_Zone[0] == 0*) GOTO 0x00DD
  7: 0x00CD [0x03] Work_Zone[1] = 1*
  8: 0x00D2 [0x2B] Ilumida (ID: 17776667/0x010F401B) [7440*]:
    → "Oh, what a kind soul! I'll be waiting here."
  9: 0x00D9 [0x23] WAIT_FOR_DIALOG_INTERACTION
 10: 0x00DA [0x01] GOTO 0x00F0
 11: 0x00DD [0x02] IF !(Work_Zone[0] == 1*) GOTO 0x00F0
 12: 0x00E5 [0x2B] Ilumida (ID: 17776667/0x010F401B) [7441*]:
    → "Oh, of course. You must have so many things to attend to. I'll find someone else."
 13: 0x00EC [0x23] WAIT_FOR_DIALOG_INTERACTION
 14: 0x00ED [0x01] GOTO 0x00F0

SUBROUTINE_00F0:
 15: 0x00F0 [0x21] END_EVENT
 16: 0x00F1 [0x00] END_REQSTACK()
```

### Event 191

#### Metadata

| Field        | Value    |
|--------------|----------|
| Entrypoint   | 0x00F2   |
| Data Size    | 16 bytes |
| Instructions | 5        |

```
      00 01 02 03 04 05 06 07  08 09 0A 0B 0C 0D 0E 0F
      -- -- -- -- -- -- -- --  -- -- -- -- -- -- -- --
00F0:       79 00 F8 FF FF 7F  F0 FF FF 7F 1D 12 80 23    y............#
0100: 21 00                                             !.              
```

#### Opcodes

```
  0: 0x00F2 [0x79] EventEntity looks at LocalPlayer (Basic look)
  1: 0x00FC [0x1D] PRINT_EVENT_MESSAGE(message_id=7442*)
    → "I think the Temple of the Goddess should have some candles. I know it's a bother, but would you mind fetching one?"
  2: 0x00FF [0x23] WAIT_FOR_DIALOG_INTERACTION
  3: 0x0100 [0x21] END_EVENT
  4: 0x0101 [0x00] END_REQSTACK()
```

### Event 195

#### Metadata

| Field        | Value   |
|--------------|---------|
| Entrypoint   | 0x0102  |
| Data Size    | 1 bytes |
| Instructions | 1       |

```
      00 01 02 03 04 05 06 07  08 09 0A 0B 0C 0D 0E 0F
      -- -- -- -- -- -- -- --  -- -- -- -- -- -- -- --
0100:       00                                            .             
```

#### Opcodes

```
  0: 0x0102 [0x00] END_REQSTACK()
```

### Event 194

#### Metadata

| Field        | Value   |
|--------------|---------|
| Entrypoint   | 0x0103  |
| Data Size    | 1 bytes |
| Instructions | 1       |

```
      00 01 02 03 04 05 06 07  08 09 0A 0B 0C 0D 0E 0F
      -- -- -- -- -- -- -- --  -- -- -- -- -- -- -- --
0100:          00                                          .            
```

#### Opcodes

```
  0: 0x0103 [0x00] END_REQSTACK()
```

### Event 190

#### Metadata

| Field        | Value    |
|--------------|----------|
| Entrypoint   | 0x0104   |
| Data Size    | 16 bytes |
| Instructions | 5        |

```
      00 01 02 03 04 05 06 07  08 09 0A 0B 0C 0D 0E 0F
      -- -- -- -- -- -- -- --  -- -- -- -- -- -- -- --
0100:             79 00 F8 FF  FF 7F F0 FF FF 7F 1D 13      y...........
0110: 80 23 21 00                                       .#!.            
```

#### Opcodes

```
  0: 0x0104 [0x79] EventEntity looks at LocalPlayer (Basic look)
  1: 0x010E [0x1D] PRINT_EVENT_MESSAGE(message_id=7447*)
    → "And thank you so much. My husband must be very pleased. Don't be a stranger, all right?"
  2: 0x0111 [0x23] WAIT_FOR_DIALOG_INTERACTION
  3: 0x0112 [0x21] END_EVENT
  4: 0x0113 [0x00] END_REQSTACK()
```

### Event 65535.1

#### Metadata

| Field        | Value    |
|--------------|----------|
| Entrypoint   | 0x0114   |
| Data Size    | 33 bytes |
| Instructions | 5        |

```
      00 01 02 03 04 05 06 07  08 09 0A 0B 0C 0D 0E 0F
      -- -- -- -- -- -- -- --  -- -- -- -- -- -- -- --
0110:             37 00 00 01  00 02 00 03 00 5B 14 80      7........[..
0120: F8 FF FF 7F F8 FF FF 7F  73 69 74 30 5E 64 66 74  ........sit0^dft
0130: 30 1C 15 80 00                                    0....           
```

#### Opcodes

```
  0: 0x0114 [0x37] UPDATE_EVENT_POSITION_AND_DIR: x=ExtData[1]->WorkLocal[0], z=ExtData[1]->WorkLocal[1], y=ExtData[1]->WorkLocal[2], direction=ExtData[1]->WorkLocal[3]
  1: 0x011D [0x5B] LOAD_EXT_SCHEDULER: Load scheduler "sit0" with entities [EventEntity, EventEntity], work=36*
  2: 0x012C [0x5E] EventEntity goes idle (kills current action) (animation: "dft0")
  3: 0x0131 [0x1C] WAIT(60* ticks)
  4: 0x0134 [0x00] END_REQSTACK()
```

### Event 65535.2

#### Metadata

| Field        | Value    |
|--------------|----------|
| Entrypoint   | 0x0135   |
| Data Size    | 34 bytes |
| Instructions | 6        |

```
      00 01 02 03 04 05 06 07  08 09 0A 0B 0C 0D 0E 0F
      -- -- -- -- -- -- -- --  -- -- -- -- -- -- -- --
0130:                5B 14 80  F8 FF FF 7F F8 FF FF 7F       [..........
0140: 73 69 74 31 1C 16 80 5E  69 64 6C 30 1F 00 17 80  sit1...^idl0....
0150: 18 80 19 80 1F 01 00                              .......         
```

#### Opcodes

```
  0: 0x0135 [0x5B] LOAD_EXT_SCHEDULER: Load scheduler "sit1" with entities [EventEntity, EventEntity], work=36*
  1: 0x0144 [0x1C] WAIT(120* ticks)
  2: 0x0147 [0x5E] EventEntity goes idle (kills current action) (animation: "idl0")
  3: 0x014C [0x1F] MOVE_ENTITY: EventEntity moves to X=-74.884*, Z=58.854*, Y=-1.199*
  4: 0x0154 [0x1F] MOVE_ENTITY: Update entity position (mode=1)
  5: 0x0156 [0x00] END_REQSTACK()
```

### Event 65535.3

#### Metadata

| Field        | Value    |
|--------------|----------|
| Entrypoint   | 0x0157   |
| Data Size    | 11 bytes |
| Instructions | 3        |

```
      00 01 02 03 04 05 06 07  08 09 0A 0B 0C 0D 0E 0F
      -- -- -- -- -- -- -- --  -- -- -- -- -- -- -- --
0150:                      1F  00 1A 80 1B 80 19 80 1F         .........
0160: 01 00                                             ..              
```

#### Opcodes

```
  0: 0x0157 [0x1F] MOVE_ENTITY: EventEntity moves to X=-73.979*, Z=60.904*, Y=-1.199*
  1: 0x015F [0x1F] MOVE_ENTITY: Update entity position (mode=1)
  2: 0x0161 [0x00] END_REQSTACK()
```

### Event 65535.4

#### Metadata

| Field        | Value    |
|--------------|----------|
| Entrypoint   | 0x0162   |
| Data Size    | 10 bytes |
| Instructions | 2        |

```
      00 01 02 03 04 05 06 07  08 09 0A 0B 0C 0D 0E 0F
      -- -- -- -- -- -- -- --  -- -- -- -- -- -- -- --
0160:       37 1C 80 1D 80 1E  80 1F 80 00                7.........    
```

#### Opcodes

```
  0: 0x0162 [0x37] UPDATE_EVENT_POSITION_AND_DIR: x=-73.531*, z=64.058*, y=-1.200*, direction=336.5°*
  1: 0x016B [0x00] END_REQSTACK()
```

### Event 65535.5

#### Metadata

| Field        | Value    |
|--------------|----------|
| Entrypoint   | 0x016C   |
| Data Size    | 12 bytes |
| Instructions | 4        |

```
      00 01 02 03 04 05 06 07  08 09 0A 0B 0C 0D 0E 0F
      -- -- -- -- -- -- -- --  -- -- -- -- -- -- -- --
0160:                                      1F 00 20 80              .. .
0170: 21 80 1E 80 1F 01 6F 00                           !.....o.        
```

#### Opcodes

```
  0: 0x016C [0x1F] MOVE_ENTITY: EventEntity moves to X=-72.288*, Z=64.694*, Y=-1.200*
  1: 0x0174 [0x1F] MOVE_ENTITY: Update entity position (mode=1)
  2: 0x0176 [0x6F] WAIT_FRAME_DELAY: Yield until WaitTime reaches zero
  3: 0x0177 [0x00] END_REQSTACK()
```

### Event 65535.6

#### Metadata

| Field        | Value    |
|--------------|----------|
| Entrypoint   | 0x0178   |
| Data Size    | 15 bytes |
| Instructions | 3        |

```
      00 01 02 03 04 05 06 07  08 09 0A 0B 0C 0D 0E 0F
      -- -- -- -- -- -- -- --  -- -- -- -- -- -- -- --
0170:                          5E 69 64 6C 30 37 20 80          ^idl07 .
0180: 21 80 1E 80 22 80 00                              !..."..         
```

#### Opcodes

```
  0: 0x0178 [0x5E] EventEntity goes idle (kills current action) (animation: "idl0")
  1: 0x017D [0x37] UPDATE_EVENT_POSITION_AND_DIR: x=-72.288*, z=64.694*, y=-1.200*, direction=318.9°*
  2: 0x0186 [0x00] END_REQSTACK()
```

### Event 65535.7

#### Metadata

| Field        | Value   |
|--------------|---------|
| Entrypoint   | 0x0187  |
| Data Size    | 3 bytes |
| Instructions | 2       |

```
      00 01 02 03 04 05 06 07  08 09 0A 0B 0C 0D 0E 0F
      -- -- -- -- -- -- -- --  -- -- -- -- -- -- -- --
0180:                      22  01 00                           "..      
```

#### Opcodes

```
  0: 0x0187 [0x22] ENTITY_HIDE_FLAG(enabled=0x01)
  1: 0x0189 [0x00] END_REQSTACK()
```

### Event 65535.8

#### Metadata

| Field        | Value    |
|--------------|----------|
| Entrypoint   | 0x018A   |
| Data Size    | 12 bytes |
| Instructions | 3        |

```
      00 01 02 03 04 05 06 07  08 09 0A 0B 0C 0D 0E 0F
      -- -- -- -- -- -- -- --  -- -- -- -- -- -- -- --
0180:                                22 00 37 20 80 21            ".7 .!
0190: 80 1E 80 22 80 00                                 ..."..          
```

#### Opcodes

```
  0: 0x018A [0x22] ENTITY_HIDE_FLAG(enabled=0x00)
  1: 0x018C [0x37] UPDATE_EVENT_POSITION_AND_DIR: x=-72.288*, z=64.694*, y=-1.200*, direction=318.9°*
  2: 0x0195 [0x00] END_REQSTACK()
```

### Event 65535.9

#### Metadata

| Field        | Value    |
|--------------|----------|
| Entrypoint   | 0x0196   |
| Data Size    | 24 bytes |
| Instructions | 4        |

```
      00 01 02 03 04 05 06 07  08 09 0A 0B 0C 0D 0E 0F
      -- -- -- -- -- -- -- --  -- -- -- -- -- -- -- --
0190:                   5B 14  80 F8 FF FF 7F F8 FF FF        [.........
01A0: 7F 73 69 74 31 1C 16 80  5E 69 64 6C 30 00        .sit1...^idl0.  
```

#### Opcodes

```
  0: 0x0196 [0x5B] LOAD_EXT_SCHEDULER: Load scheduler "sit1" with entities [EventEntity, EventEntity], work=36*
  1: 0x01A5 [0x1C] WAIT(120* ticks)
  2: 0x01A8 [0x5E] EventEntity goes idle (kills current action) (animation: "idl0")
  3: 0x01AD [0x00] END_REQSTACK()
```

### Event 65535.10

#### Metadata

| Field        | Value    |
|--------------|----------|
| Entrypoint   | 0x01AE   |
| Data Size    | 29 bytes |
| Instructions | 3        |

```
      00 01 02 03 04 05 06 07  08 09 0A 0B 0C 0D 0E 0F
      -- -- -- -- -- -- -- --  -- -- -- -- -- -- -- --
01A0:                                            5B 23                [#
01B0: 80 F8 FF FF 7F F8 FF FF  7F 70 61 73 30 53 F8 FF  .........pas0S..
01C0: FF 7F F8 FF FF 7F 70 61  73 30 00                 ......pas0.     
```

#### Opcodes

```
  0: 0x01AE [0x5B] LOAD_EXT_SCHEDULER: Load scheduler "pas0" with entities [EventEntity, EventEntity], work=35*
  1: 0x01BD [0x53] WAIT_SCHEDULER_TASK: Wait for scheduler "pas0" with entities [EventEntity, EventEntity]
  2: 0x01CA [0x00] END_REQSTACK()
```

### Event 65535.11

#### Metadata

| Field        | Value    |
|--------------|----------|
| Entrypoint   | 0x01CB   |
| Data Size    | 19 bytes |
| Instructions | 3        |

```
      00 01 02 03 04 05 06 07  08 09 0A 0B 0C 0D 0E 0F
      -- -- -- -- -- -- -- --  -- -- -- -- -- -- -- --
01C0:                                   5B 23 80 F8 FF             [#...
01D0: FF 7F F8 FF FF 7F 74 6C  6B 30 1C 24 80 00        ......tlk0.$..  
```

#### Opcodes

```
  0: 0x01CB [0x5B] LOAD_EXT_SCHEDULER: Load scheduler "tlk0" with entities [EventEntity, EventEntity], work=35*
  1: 0x01DA [0x1C] WAIT(30* ticks)
  2: 0x01DD [0x00] END_REQSTACK()
```

### Event 65535.12

#### Metadata

| Field        | Value   |
|--------------|---------|
| Entrypoint   | 0x01DE  |
| Data Size    | 9 bytes |
| Instructions | 3       |

```
      00 01 02 03 04 05 06 07  08 09 0A 0B 0C 0D 0E 0F
      -- -- -- -- -- -- -- --  -- -- -- -- -- -- -- --
01D0:                                            5E 69                ^i
01E0: 64 6C 30 1C 24 80 00                              dl0.$..         
```

#### Opcodes

```
  0: 0x01DE [0x5E] EventEntity goes idle (kills current action) (animation: "idl0")
  1: 0x01E3 [0x1C] WAIT(30* ticks)
  2: 0x01E6 [0x00] END_REQSTACK()
```

### Event 65535.13

#### Metadata

| Field        | Value    |
|--------------|----------|
| Entrypoint   | 0x01E7   |
| Data Size    | 19 bytes |
| Instructions | 3        |

```
      00 01 02 03 04 05 06 07  08 09 0A 0B 0C 0D 0E 0F
      -- -- -- -- -- -- -- --  -- -- -- -- -- -- -- --
01E0:                      5B  23 80 F8 FF FF 7F F8 FF         [#.......
01F0: FF 7F 74 6C 6B 30 1C 24  80 00                    ..tlk0.$..      
```

#### Opcodes

```
  0: 0x01E7 [0x5B] LOAD_EXT_SCHEDULER: Load scheduler "tlk0" with entities [EventEntity, EventEntity], work=35*
  1: 0x01F6 [0x1C] WAIT(30* ticks)
  2: 0x01F9 [0x00] END_REQSTACK()
```

### Event 65535.14

#### Metadata

| Field        | Value   |
|--------------|---------|
| Entrypoint   | 0x01FA  |
| Data Size    | 9 bytes |
| Instructions | 3       |

```
      00 01 02 03 04 05 06 07  08 09 0A 0B 0C 0D 0E 0F
      -- -- -- -- -- -- -- --  -- -- -- -- -- -- -- --
01F0:                                5E 69 64 6C 30 1C            ^idl0.
0200: 24 80 00                                          $..             
```

#### Opcodes

```
  0: 0x01FA [0x5E] EventEntity goes idle (kills current action) (animation: "idl0")
  1: 0x01FF [0x1C] WAIT(30* ticks)
  2: 0x0202 [0x00] END_REQSTACK()
```

### Event 65535.15

#### Metadata

| Field        | Value    |
|--------------|----------|
| Entrypoint   | 0x0203   |
| Data Size    | 16 bytes |
| Instructions | 2        |

```
      00 01 02 03 04 05 06 07  08 09 0A 0B 0C 0D 0E 0F
      -- -- -- -- -- -- -- --  -- -- -- -- -- -- -- --
0200:          5B 23 80 F8 FF  FF 7F F8 FF FF 7F 74 68     [#.........th
0210: 6B 31 00                                          k1.             
```

#### Opcodes

```
  0: 0x0203 [0x5B] LOAD_EXT_SCHEDULER: Load scheduler "thk1" with entities [EventEntity, EventEntity], work=35*
  1: 0x0212 [0x00] END_REQSTACK()
```

### Event 65535.16

#### Metadata

| Field        | Value    |
|--------------|----------|
| Entrypoint   | 0x0213   |
| Data Size    | 42 bytes |
| Instructions | 4        |

```
      00 01 02 03 04 05 06 07  08 09 0A 0B 0C 0D 0E 0F
      -- -- -- -- -- -- -- --  -- -- -- -- -- -- -- --
0210:          53 F8 FF FF 7F  F8 FF FF 7F 74 68 6B 31     S........thk1
0220: 5B 23 80 F8 FF FF 7F F8  FF FF 7F 74 68 6B 32 53  [#.........thk2S
0230: F8 FF FF 7F F8 FF FF 7F  74 68 6B 32 00           ........thk2.   
```

#### Opcodes

```
  0: 0x0213 [0x53] WAIT_SCHEDULER_TASK: Wait for scheduler "thk1" with entities [EventEntity, EventEntity]
  1: 0x0220 [0x5B] LOAD_EXT_SCHEDULER: Load scheduler "thk2" with entities [EventEntity, EventEntity], work=35*
  2: 0x022F [0x53] WAIT_SCHEDULER_TASK: Wait for scheduler "thk2" with entities [EventEntity, EventEntity]
  3: 0x023C [0x00] END_REQSTACK()
```

### Event 65535.17

#### Metadata

| Field        | Value   |
|--------------|---------|
| Entrypoint   | 0x023D  |
| Data Size    | 1 bytes |
| Instructions | 1       |

```
      00 01 02 03 04 05 06 07  08 09 0A 0B 0C 0D 0E 0F
      -- -- -- -- -- -- -- --  -- -- -- -- -- -- -- --
0230:                                         00                     .  
```

#### Opcodes

```
  0: 0x023D [0x00] END_REQSTACK()
```

### Event 65535.18

#### Metadata

| Field        | Value    |
|--------------|----------|
| Entrypoint   | 0x023E   |
| Data Size    | 16 bytes |
| Instructions | 4        |

```
      00 01 02 03 04 05 06 07  08 09 0A 0B 0C 0D 0E 0F
      -- -- -- -- -- -- -- --  -- -- -- -- -- -- -- --
0230:                                            1F 00                ..
0240: 25 80 26 80 1E 80 1F 01  1E 08 40 0F 01 00        %.&.......@...  
```

#### Opcodes

```
  0: 0x023E [0x1F] MOVE_ENTITY: EventEntity moves to X=-73.313*, Z=59.102*, Y=-1.200*
  1: 0x0246 [0x1F] MOVE_ENTITY: Update entity position (mode=1)
  2: 0x0248 [0x1E] EventEntity looks at Wolfgang (ID: 17776648/0x010F4008) and starts talking
  3: 0x024D [0x00] END_REQSTACK()
```

### Event 65535.19

#### Metadata

| Field        | Value    |
|--------------|----------|
| Entrypoint   | 0x024E   |
| Data Size    | 17 bytes |
| Instructions | 5        |

```
      00 01 02 03 04 05 06 07  08 09 0A 0B 0C 0D 0E 0F
      -- -- -- -- -- -- -- --  -- -- -- -- -- -- -- --
0240:                                            1F 00                ..
0250: 27 80 28 80 1E 80 1F 01  39 29 80 1C 24 80 00     '.(.....9)..$.. 
```

#### Opcodes

```
  0: 0x024E [0x1F] MOVE_ENTITY: EventEntity moves to X=-72.742*, Z=65.112*, Y=-1.200*
  1: 0x0256 [0x1F] MOVE_ENTITY: Update entity position (mode=1)
  2: 0x0258 [0x39] SET_ENTITY_DIRECTION(direction=20.9°*)
  3: 0x025B [0x1C] WAIT(30* ticks)
  4: 0x025E [0x00] END_REQSTACK()
```
