# 17776901

## Common Data

| Field            | Value                 |
|------------------|-----------------------|
| Zone             | Upper Jeuno (ID: 244) |
| Block Size       | 128 bytes             |
| Total Events     | 4                     |
| References Count | 8                     |

## List of Events

| Event ID                 | Entrypoint   |   Size |   Instructions |
|--------------------------|--------------|--------|----------------|
| [65535](#event-65535)    | 0x0000       |      1 |              1 |
| [10234](#event-10234)    | 0x0001       |      1 |              1 |
| [65535.1](#event-655351) | 0x0002       |     42 |              5 |
| [65535.2](#event-655352) | 0x002C       |     19 |              4 |

## DAT References (imed_data)

|   Index | Hex Value   |   Dec Value |
|---------|-------------|-------------|
|       0 | 0x0034      |          52 |
|       1 | 0x0003      |           3 |
|       2 | 0x0000      |           0 |
|       3 | 0x08FC      |        2300 |
|       4 | 0xFFFF26F8  |  4294911736 |
|       5 | 0x164CC     |       91340 |
|       6 | 0x2328      |        9000 |
|       7 | 0x0EED      |        3821 |

## Events

### Event 65535

#### Metadata

| Field        | Value   |
|--------------|---------|
| Entrypoint   | 0x0000  |
| Data Size    | 1 bytes |
| Instructions | 1       |

```
      00 01 02 03 04 05 06 07  08 09 0A 0B 0C 0D 0E 0F
      -- -- -- -- -- -- -- --  -- -- -- -- -- -- -- --
0000: 00                                                .               
```

#### Opcodes

```
  0: 0x0000 [0x00] END_REQSTACK()
```

### Event 10234

#### Metadata

| Field        | Value   |
|--------------|---------|
| Entrypoint   | 0x0001  |
| Data Size    | 1 bytes |
| Instructions | 1       |

```
      00 01 02 03 04 05 06 07  08 09 0A 0B 0C 0D 0E 0F
      -- -- -- -- -- -- -- --  -- -- -- -- -- -- -- --
0000:    00                                              .              
```

#### Opcodes

```
  0: 0x0001 [0x00] END_REQSTACK()
```

### Event 65535.1

#### Metadata

| Field        | Value    |
|--------------|----------|
| Entrypoint   | 0x0002   |
| Data Size    | 42 bytes |
| Instructions | 5        |

```
      00 01 02 03 04 05 06 07  08 09 0A 0B 0C 0D 0E 0F
      -- -- -- -- -- -- -- --  -- -- -- -- -- -- -- --
0000:       B6 00 00 80 80 F8  FF FF 7F 62 01 80 F8 FF    .........b....
0010: FF 7F F8 FF FF 7F 6D 61  69 6E 02 80 A0 01 80 F8  ......main......
0020: FF FF 7F F8 FF FF 7F 6D  61 69 6E 00              .......main.    
```

#### Opcodes

```
  0: 0x0002 [0xB6] ENTITY_APPEARANCE_HANDLER(case=Hair style, value=52*)
  1: 0x0006 [0x80] LOAD_WAIT(entity=EventEntity)
  2: 0x000B [0x62] LOAD_EVENT_SCHEDULER: Load scheduler "main" with entities [EventEntity, EventEntity], work=[3*, 0*]
  3: 0x001C [0xA0] WAIT_LOAD_SCHEDULER_MAIN_ALT2: Wait for scheduler "main" with entities [EventEntity, EventEntity], work=3*
  4: 0x002B [0x00] END_REQSTACK()
```

### Event 65535.2

#### Metadata

| Field        | Value    |
|--------------|----------|
| Entrypoint   | 0x002C   |
| Data Size    | 19 bytes |
| Instructions | 4        |

```
      00 01 02 03 04 05 06 07  08 09 0A 0B 0C 0D 0E 0F
      -- -- -- -- -- -- -- --  -- -- -- -- -- -- -- --
0020:                                      B6 00 03 80              ....
0030: 80 F8 FF FF 7F 37 04 80  05 80 06 80 07 80 00     .....7......... 
```

#### Opcodes

```
  0: 0x002C [0xB6] ENTITY_APPEARANCE_HANDLER(case=Hair style, value=2300*)
  1: 0x0030 [0x80] LOAD_WAIT(entity=EventEntity)
  2: 0x0035 [0x37] UPDATE_EVENT_POSITION_AND_DIR: x=-55.560*, z=91.340*, y=9.000*, direction=335.8°*
  3: 0x003E [0x00] END_REQSTACK()
```
