# 17776683 - Hinda

## Common Data

| Field            | Value                 |
|------------------|-----------------------|
| Zone             | Upper Jeuno (ID: 244) |
| Block Size       | 324 bytes             |
| Total Events     | 12                    |
| References Count | 19                    |

## List of Events

| Event ID                 | Entrypoint   |   Size |   Instructions |
|--------------------------|--------------|--------|----------------|
| [65535](#event-65535)    | 0x0000       |      1 |              1 |
| [161](#event-161)        | 0x0001       |     21 |              8 |
| [10023](#event-10023)    | 0x0016       |     19 |             10 |
| [10087](#event-10087)    | 0x0029       |     22 |             10 |
| [10128](#event-10128)    | 0x003F       |     21 |              8 |
| [10151](#event-10151)    | 0x0054       |      7 |              2 |
| [10209](#event-10209)    | 0x005B       |      7 |              2 |
| [10210](#event-10210)    | 0x0062       |      7 |              2 |
| [10211](#event-10211)    | 0x0069       |      7 |              2 |
| [10149](#event-10149)    | 0x0070       |      7 |              2 |
| [65535.1](#event-655351) | 0x0077       |     34 |              8 |
| [65535.2](#event-655352) | 0x0099       |     28 |              6 |

## DAT References (imed_data)

|   Index | Hex Value   |   Dec Value |
|---------|-------------|-------------|
|       0 | 0x1DB1      |        7601 |
|       1 | 0x1DB2      |        7602 |
|       2 | 0x206E      |        8302 |
|       3 | 0x206F      |        8303 |
|       4 | 0x2B70      |       11120 |
|       5 | 0x001E      |          30 |
|       6 | 0x2B7A      |       11130 |
|       7 | 0x2B7B      |       11131 |
|       8 | 0x2E55      |       11861 |
|       9 | 0x2E56      |       11862 |
|      10 | 0x0384      |         900 |
|      11 | 0x0001      |           1 |
|      12 | 0x0028      |          40 |
|      13 | 0xFFFF140C  |  4294906892 |
|      14 | 0x190DE     |      102622 |
|      15 | 0x0000      |           0 |
|      16 | 0x027F      |         639 |
|      17 | 0xFFFF1E53  |  4294909523 |
|      18 | 0x1965C     |      104028 |

## String References

- **7601**: Glory be to Altana! Ever does she watch over her flock.
- **7602**: If you find yourself in need, pray to her. Only through her divine light can we see the truth.
- **8302**: You say you know the Elvaan girl who collapsed here?
- **8303**: A strangely-dressed traveler from the East carried her off to Doctor Monberaux's clinic. Oh, I do hope she is alright.
- **11120**: <Player>'s badge flashes brightly.
- **11130**: The people of Aht Urhgan do not worship Altana. Instead, they offer their prayers to a heathen deity. Such a vile practice.
- **11131**: Still, the light of the Goddess shines upon all without favor. I am sure that someday they will also come to know Altana's compassion.
- **11861**: Do the beastmen also have a god to whom they pray, in the same way we ask for the blessings of Altana?
- **11862**: Although I'm not sure I would want to know what twisted prayers the beastmen might make. Would you?

## Events

### Event 65535

#### Metadata

| Field        | Value   |
|--------------|---------|
| Entrypoint   | 0x0000  |
| Data Size    | 1 bytes |
| Instructions | 1       |

```
      00 01 02 03 04 05 06 07  08 09 0A 0B 0C 0D 0E 0F
      -- -- -- -- -- -- -- --  -- -- -- -- -- -- -- --
0000: 00                                                .               
```

#### Opcodes

```
  0: 0x0000 [0x00] END_REQSTACK()
```

### Event 161

#### Metadata

| Field        | Value    |
|--------------|----------|
| Entrypoint   | 0x0001   |
| Data Size    | 21 bytes |
| Instructions | 8        |

```
      00 01 02 03 04 05 06 07  08 09 0A 0B 0C 0D 0E 0F
      -- -- -- -- -- -- -- --  -- -- -- -- -- -- -- --
0000:    42 79 00 F8 FF FF 7F  F0 FF FF 7F 1D 00 80 23   By............#
0010: 1D 01 80 23 21 00                                 ...#!.          
```

#### Opcodes

```
  0: 0x0001 [0x42] SET_CLI_EVENT_CANCEL_DATA()
  1: 0x0002 [0x79] EventEntity looks at LocalPlayer (Basic look)
  2: 0x000C [0x1D] PRINT_EVENT_MESSAGE(message_id=7601*)
    → "Glory be to Altana! Ever does she watch over her flock."
  3: 0x000F [0x23] WAIT_FOR_DIALOG_INTERACTION
  4: 0x0010 [0x1D] PRINT_EVENT_MESSAGE(message_id=7602*)
    → "If you find yourself in need, pray to her. Only through her divine light can we see the truth."
  5: 0x0013 [0x23] WAIT_FOR_DIALOG_INTERACTION
  6: 0x0014 [0x21] END_EVENT
  7: 0x0015 [0x00] END_REQSTACK()
```

### Event 10023

#### Metadata

| Field        | Value    |
|--------------|----------|
| Entrypoint   | 0x0016   |
| Data Size    | 19 bytes |
| Instructions | 10       |

```
      00 01 02 03 04 05 06 07  08 09 0A 0B 0C 0D 0E 0F
      -- -- -- -- -- -- -- --  -- -- -- -- -- -- -- --
0010:                   1E F0  FF FF 7F 6F 70 1D 02 80        .....op...
0020: 23 1D 03 80 23 20 00 21  00                       #...# .!.       
```

#### Opcodes

```
  0: 0x0016 [0x1E] EventEntity looks at LocalPlayer and starts talking
  1: 0x001B [0x6F] WAIT_FRAME_DELAY: Yield until WaitTime reaches zero
  2: 0x001C [0x70] WAIT_ENTITY_RENDER_FLAG: Wait while EventEntity->Render.Flags3 bit 2 is set (cancel turn if not)
  3: 0x001D [0x1D] PRINT_EVENT_MESSAGE(message_id=8302*)
    → "You say you know the Elvaan girl who collapsed here?"
  4: 0x0020 [0x23] WAIT_FOR_DIALOG_INTERACTION
  5: 0x0021 [0x1D] PRINT_EVENT_MESSAGE(message_id=8303*)
    → "A strangely-dressed traveler from the East carried her off to Doctor Monberaux's clinic. Oh, I do hope she is alright."
  6: 0x0024 [0x23] WAIT_FOR_DIALOG_INTERACTION
  7: 0x0025 [0x20] SET_CLI_EVENT_UC_FLAG: Unlock player control
  8: 0x0027 [0x21] END_EVENT
  9: 0x0028 [0x00] END_REQSTACK()
```

### Event 10087

#### Metadata

| Field        | Value    |
|--------------|----------|
| Entrypoint   | 0x0029   |
| Data Size    | 22 bytes |
| Instructions | 10       |

```
      00 01 02 03 04 05 06 07  08 09 0A 0B 0C 0D 0E 0F
      -- -- -- -- -- -- -- --  -- -- -- -- -- -- -- --
0020:                             42 48 04 80 1E F0 FF           BH.....
0030: FF 7F 1C 05 80 1D 06 80  23 1D 07 80 23 21 00     ........#...#!. 
```

#### Opcodes

```
  0: 0x0029 [0x42] SET_CLI_EVENT_CANCEL_DATA()
  1: 0x002A [0x48] [System] [11120*]:
    → "<Player>'s badge flashes brightly."
  2: 0x002D [0x1E] EventEntity looks at LocalPlayer and starts talking
  3: 0x0032 [0x1C] WAIT(30* ticks)
  4: 0x0035 [0x1D] PRINT_EVENT_MESSAGE(message_id=11130*)
    → "The people of Aht Urhgan do not worship Altana. Instead, they offer their prayers to a heathen deity. Such a vile practice."
  5: 0x0038 [0x23] WAIT_FOR_DIALOG_INTERACTION
  6: 0x0039 [0x1D] PRINT_EVENT_MESSAGE(message_id=11131*)
    → "Still, the light of the Goddess shines upon all without favor. I am sure that someday they will also come to know Altana's compassion."
  7: 0x003C [0x23] WAIT_FOR_DIALOG_INTERACTION
  8: 0x003D [0x21] END_EVENT
  9: 0x003E [0x00] END_REQSTACK()
```

### Event 10128

#### Metadata

| Field        | Value    |
|--------------|----------|
| Entrypoint   | 0x003F   |
| Data Size    | 21 bytes |
| Instructions | 8        |

```
      00 01 02 03 04 05 06 07  08 09 0A 0B 0C 0D 0E 0F
      -- -- -- -- -- -- -- --  -- -- -- -- -- -- -- --
0030:                                               42                 B
0040: 79 00 F8 FF FF 7F F0 FF  FF 7F 1D 08 80 23 1D 09  y............#..
0050: 80 23 21 00                                       .#!.            
```

#### Opcodes

```
  0: 0x003F [0x42] SET_CLI_EVENT_CANCEL_DATA()
  1: 0x0040 [0x79] EventEntity looks at LocalPlayer (Basic look)
  2: 0x004A [0x1D] PRINT_EVENT_MESSAGE(message_id=11861*)
    → "Do the beastmen also have a god to whom they pray, in the same way we ask for the blessings of Altana?"
  3: 0x004D [0x23] WAIT_FOR_DIALOG_INTERACTION
  4: 0x004E [0x1D] PRINT_EVENT_MESSAGE(message_id=11862*)
    → "Although I'm not sure I would want to know what twisted prayers the beastmen might make. Would you?"
  5: 0x0051 [0x23] WAIT_FOR_DIALOG_INTERACTION
  6: 0x0052 [0x21] END_EVENT
  7: 0x0053 [0x00] END_REQSTACK()
```

### Event 10151

#### Metadata

| Field        | Value   |
|--------------|---------|
| Entrypoint   | 0x0054  |
| Data Size    | 7 bytes |
| Instructions | 2       |

```
      00 01 02 03 04 05 06 07  08 09 0A 0B 0C 0D 0E 0F
      -- -- -- -- -- -- -- --  -- -- -- -- -- -- -- --
0050:             92 01 F8 FF  FF 7F 00                     .......     
```

#### Opcodes

```
  0: 0x0054 [0x92] EventEntity->Render.Flags3 ^= 0x01
  1: 0x005A [0x00] END_REQSTACK()
```

### Event 10209

#### Metadata

| Field        | Value   |
|--------------|---------|
| Entrypoint   | 0x005B  |
| Data Size    | 7 bytes |
| Instructions | 2       |

```
      00 01 02 03 04 05 06 07  08 09 0A 0B 0C 0D 0E 0F
      -- -- -- -- -- -- -- --  -- -- -- -- -- -- -- --
0050:                                   92 01 F8 FF FF             .....
0060: 7F 00                                             ..              
```

#### Opcodes

```
  0: 0x005B [0x92] EventEntity->Render.Flags3 ^= 0x01
  1: 0x0061 [0x00] END_REQSTACK()
```

### Event 10210

#### Metadata

| Field        | Value   |
|--------------|---------|
| Entrypoint   | 0x0062  |
| Data Size    | 7 bytes |
| Instructions | 2       |

```
      00 01 02 03 04 05 06 07  08 09 0A 0B 0C 0D 0E 0F
      -- -- -- -- -- -- -- --  -- -- -- -- -- -- -- --
0060:       92 01 F8 FF FF 7F  00                         .......       
```

#### Opcodes

```
  0: 0x0062 [0x92] EventEntity->Render.Flags3 ^= 0x01
  1: 0x0068 [0x00] END_REQSTACK()
```

### Event 10211

#### Metadata

| Field        | Value   |
|--------------|---------|
| Entrypoint   | 0x0069  |
| Data Size    | 7 bytes |
| Instructions | 2       |

```
      00 01 02 03 04 05 06 07  08 09 0A 0B 0C 0D 0E 0F
      -- -- -- -- -- -- -- --  -- -- -- -- -- -- -- --
0060:                             92 01 F8 FF FF 7F 00           .......
```

#### Opcodes

```
  0: 0x0069 [0x92] EventEntity->Render.Flags3 ^= 0x01
  1: 0x006F [0x00] END_REQSTACK()
```

### Event 10149

#### Metadata

| Field        | Value   |
|--------------|---------|
| Entrypoint   | 0x0070  |
| Data Size    | 7 bytes |
| Instructions | 2       |

```
      00 01 02 03 04 05 06 07  08 09 0A 0B 0C 0D 0E 0F
      -- -- -- -- -- -- -- --  -- -- -- -- -- -- -- --
0070: 92 01 F8 FF FF 7F 00                              .......         
```

#### Opcodes

```
  0: 0x0070 [0x92] EventEntity->Render.Flags3 ^= 0x01
  1: 0x0076 [0x00] END_REQSTACK()
```

### Event 65535.1

#### Metadata

| Field        | Value    |
|--------------|----------|
| Entrypoint   | 0x0077   |
| Data Size    | 34 bytes |
| Instructions | 8        |

```
      00 01 02 03 04 05 06 07  08 09 0A 0B 0C 0D 0E 0F
      -- -- -- -- -- -- -- --  -- -- -- -- -- -- -- --
0070:                      1C  0A 80 03 2C 10 0B 80 32         ....,...2
0080: 0C 80 1F 00 0D 80 0E 80  0F 80 1F 01 03 25 10 0B  .............%..
0090: 80 4B 2B 40 0F 01 10 80  00                       .K+@.....       
```

#### Opcodes

```
  0: 0x0077 [0x1C] WAIT(900* ticks)
  1: 0x007A [0x03] Work_Zone[44] = 1*
  2: 0x007F [0x32] ExtData[1]->MainSpeed = 40* * 0.1
  3: 0x0082 [0x1F] MOVE_ENTITY: EventEntity moves to X=-60.404*, Z=102.622*, Y=0.000*
  4: 0x008A [0x1F] MOVE_ENTITY: Update entity position (mode=1)
  5: 0x008C [0x03] Work_Zone[37] = 1*
  6: 0x0091 [0x4B] UPDATE_ENTITY_YAW(entity=Hinda (ID: 17776683/0x010F402B), yaw=3.5°*)
  7: 0x0098 [0x00] END_REQSTACK()
```

### Event 65535.2

#### Metadata

| Field        | Value    |
|--------------|----------|
| Entrypoint   | 0x0099   |
| Data Size    | 28 bytes |
| Instructions | 6        |

```
      00 01 02 03 04 05 06 07  08 09 0A 0B 0C 0D 0E 0F
      -- -- -- -- -- -- -- --  -- -- -- -- -- -- -- --
0090:                             32 0C 80 1F 00 11 80           2......
00A0: 12 80 0F 80 1F 01 4B 2B  40 0F 01 10 80 27 05 2B  ......K+@....'.+
00B0: 40 0F 01 0A 00                                    @....           
```

#### Opcodes

```
  0: 0x0099 [0x32] ExtData[1]->MainSpeed = 40* * 0.1
  1: 0x009C [0x1F] MOVE_ENTITY: EventEntity moves to X=-57.773*, Z=104.028*, Y=0.000*
  2: 0x00A4 [0x1F] MOVE_ENTITY: Update entity position (mode=1)
  3: 0x00A6 [0x4B] UPDATE_ENTITY_YAW(entity=Hinda (ID: 17776683/0x010F402B), yaw=3.5°*)
  4: 0x00AD [0x27] REQ_SET(priority=0x05, entity_id=Hinda (ID: 17776683/0x010F402B), tag_num=0x0A)
  5: 0x00B4 [0x00] END_REQSTACK()
```
