# 17776654 - Shalott

## Common Data

| Field            | Value                 |
|------------------|-----------------------|
| Zone             | Upper Jeuno (ID: 244) |
| Block Size       | 852 bytes             |
| Total Events     | 28                    |
| References Count | 49                    |

## List of Events

| Event ID                   | Entrypoint   |   Size |   Instructions |
|----------------------------|--------------|--------|----------------|
| [65535](#event-65535)      | 0x0000       |      1 |              1 |
| [17](#event-17)            | 0x0001       |      1 |              1 |
| [13](#event-13)            | 0x0002       |      1 |              1 |
| [12](#event-12)            | 0x0003       |      1 |              1 |
| [104](#event-104)          | 0x0004       |    170 |             29 |
| [101](#event-101)          | 0x00AE       |      1 |              1 |
| [100](#event-100)          | 0x00AF       |     50 |             10 |
| [44](#event-44)            | 0x00E1       |     14 |              7 |
| [150](#event-150)          | 0x00EF       |     20 |              8 |
| [133](#event-133)          | 0x0103       |     11 |              5 |
| [132](#event-132)          | 0x010E       |     11 |              5 |
| [65535.1](#event-655351)   | 0x0119       |     19 |              3 |
| [65535.2](#event-655352)   | 0x012C       |     19 |              3 |
| [65535.3](#event-655353)   | 0x013F       |     19 |              3 |
| [65535.4](#event-655354)   | 0x0152       |      9 |              3 |
| [65535.5](#event-655355)   | 0x015B       |      1 |              1 |
| [10015](#event-10015)      | 0x015C       |      1 |              1 |
| [10017](#event-10017)      | 0x015D       |      1 |              1 |
| [65535.6](#event-655356)   | 0x015E       |     12 |              3 |
| [65535.7](#event-655357)   | 0x016A       |     37 |             10 |
| [65535.8](#event-655358)   | 0x018F       |     10 |              2 |
| [65535.9](#event-655359)   | 0x0199       |     25 |              9 |
| [10230](#event-10230)      | 0x01B2       |      1 |              1 |
| [10231](#event-10231)      | 0x01B3       |      1 |              1 |
| [10232](#event-10232)      | 0x01B4       |      1 |              1 |
| [10233](#event-10233)      | 0x01B5       |      1 |              1 |
| [10234](#event-10234)      | 0x01B6       |      1 |              1 |
| [65535.10](#event-6553510) | 0x01B7       |     87 |             19 |

## DAT References (imed_data)

|   Index | Hex Value   |   Dec Value |
|---------|-------------|-------------|
|       0 | 0x0050      |          80 |
|       1 | 0x00DC      |         220 |
|       2 | 0x003C      |          60 |
|       3 | 0x1BD6      |        7126 |
|       4 | 0x1BD7      |        7127 |
|       5 | 0x1BD8      |        7128 |
|       6 | 0x1C0D      |        7181 |
|       7 | 0x1C28      |        7208 |
|       8 | 0x3341      |       13121 |
|       9 | 0x1E3E      |        7742 |
|      10 | 0x1E3F      |        7743 |
|      11 | 0x1E28      |        7720 |
|      12 | 0x1E48      |        7752 |
|      13 | 0xFFFF3336  |  4294914870 |
|      14 | 0x13837     |       79927 |
|      15 | 0x0943      |        2371 |
|      16 | 0x0698      |        1688 |
|      17 | 0x000D      |          13 |
|      18 | 0xFFFF21FD  |  4294910461 |
|      19 | 0x12F46     |       77638 |
|      20 | 0x0000      |           0 |
|      21 | 0xFFFF18D7  |  4294908119 |
|      22 | 0x12B8B     |       76683 |
|      23 | 0x000F      |          15 |
|      24 | 0x0AAE      |        2734 |
|      25 | 0xFFFF09E4  |  4294904292 |
|      26 | 0x14176     |       82294 |
|      27 | 0x0073      |         115 |
|      28 | 0x001E      |          30 |
|      29 | 0xFFFF19C6  |  4294908358 |
|      30 | 0x12D13     |       77075 |
|      31 | 0xFFFF3828  |  4294916136 |
|      32 | 0x1721E     |       94750 |
|      33 | 0x1F40      |        8000 |
|      34 | 0xFFFF4E26  |  4294921766 |
|      35 | 0x17DF4     |       97780 |
|      36 | 0xFFFF601E  |  4294926366 |
|      37 | 0x16774     |       92020 |
|      38 | 0xFFFF574A  |  4294924106 |
|      39 | 0x14EA6     |       85670 |
|      40 | 0x1E14      |        7700 |
|      41 | 0xFFFF1924  |  4294908196 |
|      42 | 0x12ADE     |       76510 |
|      43 | 0xFFFF05B0  |  4294903216 |
|      44 | 0x1324A     |       78410 |
|      45 | 0xFFFEF19C  |  4294898076 |
|      46 | 0x167A6     |       92070 |
|      47 | 0xFFFEFAFC  |  4294900476 |
|      48 | 0x1D858     |      120920 |

## String References

- **7126**: Chocobos like to be fed by hand. See? Like this.
- **7127**: They learn your scent after you feed them by hand each and every day for a really long time.
- **7128**: Little by little, you gain their trust. And you pick up what kind of personality your chocobo has.
- **7181**: Well, look at who you're talking about. I don't think it's even possible... Feel bad about the kid, though.
- **7208**: What? Oh, that guy's kid got better? Well, that's good to hear. I'd like to have him over sometime.
- **7720**: When I think that someday I'll be parted from this chocobo... Oh, it's so sad!
- **7742**: I heard that $0 is hidden somewhere deep inside Castle Oztroja! Huh? You don't know what that is?
- **7743**: It's a really nice collar. I bet our chocobos would love to wear one, but maybe that one isn't for chocobos.
- **7752**: Even when they're gone forever, your memory of them stays. I want to treasure every moment with this chocobo.

## Events

### Event 65535

#### Metadata

| Field        | Value   |
|--------------|---------|
| Entrypoint   | 0x0000  |
| Data Size    | 1 bytes |
| Instructions | 1       |

```
      00 01 02 03 04 05 06 07  08 09 0A 0B 0C 0D 0E 0F
      -- -- -- -- -- -- -- --  -- -- -- -- -- -- -- --
0000: 00                                                .               
```

#### Opcodes

```
  0: 0x0000 [0x00] END_REQSTACK()
```

### Event 17

#### Metadata

| Field        | Value   |
|--------------|---------|
| Entrypoint   | 0x0001  |
| Data Size    | 1 bytes |
| Instructions | 1       |

```
      00 01 02 03 04 05 06 07  08 09 0A 0B 0C 0D 0E 0F
      -- -- -- -- -- -- -- --  -- -- -- -- -- -- -- --
0000:    00                                              .              
```

#### Opcodes

```
  0: 0x0001 [0x00] END_REQSTACK()
```

### Event 13

#### Metadata

| Field        | Value   |
|--------------|---------|
| Entrypoint   | 0x0002  |
| Data Size    | 1 bytes |
| Instructions | 1       |

```
      00 01 02 03 04 05 06 07  08 09 0A 0B 0C 0D 0E 0F
      -- -- -- -- -- -- -- --  -- -- -- -- -- -- -- --
0000:       00                                            .             
```

#### Opcodes

```
  0: 0x0002 [0x00] END_REQSTACK()
```

### Event 12

#### Metadata

| Field        | Value   |
|--------------|---------|
| Entrypoint   | 0x0003  |
| Data Size    | 1 bytes |
| Instructions | 1       |

```
      00 01 02 03 04 05 06 07  08 09 0A 0B 0C 0D 0E 0F
      -- -- -- -- -- -- -- --  -- -- -- -- -- -- -- --
0000:          00                                          .            
```

#### Opcodes

```
  0: 0x0003 [0x00] END_REQSTACK()
```

### Event 104

#### Metadata

| Field        | Value     |
|--------------|-----------|
| Entrypoint   | 0x0004    |
| Data Size    | 170 bytes |
| Instructions | 29        |

```
      00 01 02 03 04 05 06 07  08 09 0A 0B 0C 0D 0E 0F
      -- -- -- -- -- -- -- --  -- -- -- -- -- -- -- --
0000:             20 01 42 3A  09 40 0F 01 00 00 1E 09       .B:.@......
0010: 40 0F 01 6F 76 F8 FF FF  7F 4A 09 40 0F 01 0E 40  @..ov....J.@...@
0020: 0F 01 6F 76 09 40 0F 01  5B 00 80 F8 FF FF 7F F8  ..ov.@..[.......
0030: FF FF 7F 70 61 73 30 5B  01 80 09 40 0F 01 09 40  ...pas0[...@...@
0040: 0F 01 6D 6F 67 30 53 09  40 0F 01 09 40 0F 01 6D  ..mog0S.@...@..m
0050: 6F 67 30 53 F8 FF FF 7F  F8 FF FF 7F 70 61 73 30  og0S........pas0
0060: 1C 02 80 5B 01 80 09 40  0F 01 09 40 0F 01 6D 6F  ...[...@...@..mo
0070: 67 31 53 09 40 0F 01 09  40 0F 01 6D 6F 67 31 4B  g1S.@...@..mog1K
0080: 09 40 0F 01 00 00 1E F0  FF FF 7F 6F 76 F8 FF FF  .@.........ov...
0090: 7F 5B 00 80 F8 FF FF 7F  F8 FF FF 7F 74 6C 6B 30  .[..........tlk0
00A0: 1D 03 80 23 1D 04 80 23  1D 05 80 23 21 00        ...#...#...#!.  
```

#### Opcodes

```
  0: 0x0004 [0x20] SET_CLI_EVENT_UC_FLAG: Lock player control
  1: 0x0006 [0x42] SET_CLI_EVENT_CANCEL_DATA()
  2: 0x0007 [0x3A] CONVERT_YAW_TO_BYTE(entity=Chocobo (ID: 17776649/0x010F4009), result_destination=ExtData[1]->WorkLocal[0])
  3: 0x000E [0x1E] EventEntity looks at Chocobo (ID: 17776649/0x010F4009) and starts talking
  4: 0x0013 [0x6F] WAIT_FRAME_DELAY: Yield until WaitTime reaches zero
  5: 0x0014 [0x76] CHECK_ENTITY_RENDER_FLAGS: Wait until EventEntity Render.Flags0 and Render.Flags3 conditions are met
  6: 0x0019 [0x4A] Chocobo (ID: 17776649/0x010F4009) looks at Shalott (ID: 17776654/0x010F400E)
  7: 0x0022 [0x6F] WAIT_FRAME_DELAY: Yield until WaitTime reaches zero
  8: 0x0023 [0x76] CHECK_ENTITY_RENDER_FLAGS: Wait until Chocobo (ID: 17776649/0x010F4009) Render.Flags0 and Render.Flags3 conditions are met
  9: 0x0028 [0x5B] LOAD_EXT_SCHEDULER: Load scheduler "pas0" with entities [EventEntity, EventEntity], work=80*
 10: 0x0037 [0x5B] LOAD_EXT_SCHEDULER: Load scheduler "mog0" with entities [Chocobo (ID: 17776649/0x010F4009), Chocobo (ID: 17776649/0x010F4009)], work=220*
 11: 0x0046 [0x53] WAIT_SCHEDULER_TASK: Wait for scheduler "mog0" with entities [Chocobo (ID: 17776649/0x010F4009), Chocobo (ID: 17776649/0x010F4009)]
 12: 0x0053 [0x53] WAIT_SCHEDULER_TASK: Wait for scheduler "pas0" with entities [EventEntity, EventEntity]
 13: 0x0060 [0x1C] WAIT(60* ticks)
 14: 0x0063 [0x5B] LOAD_EXT_SCHEDULER: Load scheduler "mog1" with entities [Chocobo (ID: 17776649/0x010F4009), Chocobo (ID: 17776649/0x010F4009)], work=220*
 15: 0x0072 [0x53] WAIT_SCHEDULER_TASK: Wait for scheduler "mog1" with entities [Chocobo (ID: 17776649/0x010F4009), Chocobo (ID: 17776649/0x010F4009)]
 16: 0x007F [0x4B] UPDATE_ENTITY_YAW(entity=Chocobo (ID: 17776649/0x010F4009), yaw=ExtData[1]->WorkLocal[0])
 17: 0x0086 [0x1E] EventEntity looks at LocalPlayer and starts talking
 18: 0x008B [0x6F] WAIT_FRAME_DELAY: Yield until WaitTime reaches zero
 19: 0x008C [0x76] CHECK_ENTITY_RENDER_FLAGS: Wait until EventEntity Render.Flags0 and Render.Flags3 conditions are met
 20: 0x0091 [0x5B] LOAD_EXT_SCHEDULER: Load scheduler "tlk0" with entities [EventEntity, EventEntity], work=80*
 21: 0x00A0 [0x1D] PRINT_EVENT_MESSAGE(message_id=7126*)
    → "Chocobos like to be fed by hand. See? Like this."
 22: 0x00A3 [0x23] WAIT_FOR_DIALOG_INTERACTION
 23: 0x00A4 [0x1D] PRINT_EVENT_MESSAGE(message_id=7127*)
    → "They learn your scent after you feed them by hand each and every day for a really long time."
 24: 0x00A7 [0x23] WAIT_FOR_DIALOG_INTERACTION
 25: 0x00A8 [0x1D] PRINT_EVENT_MESSAGE(message_id=7128*)
    → "Little by little, you gain their trust. And you pick up what kind of personality your chocobo has."
 26: 0x00AB [0x23] WAIT_FOR_DIALOG_INTERACTION
 27: 0x00AC [0x21] END_EVENT
 28: 0x00AD [0x00] END_REQSTACK()
```

### Event 101

#### Metadata

| Field        | Value   |
|--------------|---------|
| Entrypoint   | 0x00AE  |
| Data Size    | 1 bytes |
| Instructions | 1       |

```
      00 01 02 03 04 05 06 07  08 09 0A 0B 0C 0D 0E 0F
      -- -- -- -- -- -- -- --  -- -- -- -- -- -- -- --
00A0:                                            00                   . 
```

#### Opcodes

```
  0: 0x00AE [0x00] END_REQSTACK()
```

### Event 100

#### Metadata

| Field        | Value    |
|--------------|----------|
| Entrypoint   | 0x00AF   |
| Data Size    | 50 bytes |
| Instructions | 10       |

```
      00 01 02 03 04 05 06 07  08 09 0A 0B 0C 0D 0E 0F
      -- -- -- -- -- -- -- --  -- -- -- -- -- -- -- --
00A0:                                               1E                 .
00B0: F0 FF FF 7F 6F 76 F8 FF  FF 7F 5B 00 80 F8 FF FF  ....ov....[.....
00C0: 7F F8 FF FF 7F 74 68 6B  31 1D 06 80 23 5B 00 80  .....thk1...#[..
00D0: F8 FF FF 7F F8 FF FF 7F  74 68 6B 32 1C 02 80 21  ........thk2...!
00E0: 00                                                .               
```

#### Opcodes

```
  0: 0x00AF [0x1E] EventEntity looks at LocalPlayer and starts talking
  1: 0x00B4 [0x6F] WAIT_FRAME_DELAY: Yield until WaitTime reaches zero
  2: 0x00B5 [0x76] CHECK_ENTITY_RENDER_FLAGS: Wait until EventEntity Render.Flags0 and Render.Flags3 conditions are met
  3: 0x00BA [0x5B] LOAD_EXT_SCHEDULER: Load scheduler "thk1" with entities [EventEntity, EventEntity], work=80*
  4: 0x00C9 [0x1D] PRINT_EVENT_MESSAGE(message_id=7181*)
    → "Well, look at who you're talking about. I don't think it's even possible... Feel bad about the kid, though."
  5: 0x00CC [0x23] WAIT_FOR_DIALOG_INTERACTION
  6: 0x00CD [0x5B] LOAD_EXT_SCHEDULER: Load scheduler "thk2" with entities [EventEntity, EventEntity], work=80*
  7: 0x00DC [0x1C] WAIT(60* ticks)
  8: 0x00DF [0x21] END_EVENT
  9: 0x00E0 [0x00] END_REQSTACK()
```

### Event 44

#### Metadata

| Field        | Value    |
|--------------|----------|
| Entrypoint   | 0x00E1   |
| Data Size    | 14 bytes |
| Instructions | 7        |

```
      00 01 02 03 04 05 06 07  08 09 0A 0B 0C 0D 0E 0F
      -- -- -- -- -- -- -- --  -- -- -- -- -- -- -- --
00E0:    20 01 42 1E F0 FF FF  7F 1D 07 80 23 21 00       .B........#!. 
```

#### Opcodes

```
  0: 0x00E1 [0x20] SET_CLI_EVENT_UC_FLAG: Lock player control
  1: 0x00E3 [0x42] SET_CLI_EVENT_CANCEL_DATA()
  2: 0x00E4 [0x1E] EventEntity looks at LocalPlayer and starts talking
  3: 0x00E9 [0x1D] PRINT_EVENT_MESSAGE(message_id=7208*)
    → "What? Oh, that guy's kid got better? Well, that's good to hear. I'd like to have him over sometime."
  4: 0x00EC [0x23] WAIT_FOR_DIALOG_INTERACTION
  5: 0x00ED [0x21] END_EVENT
  6: 0x00EE [0x00] END_REQSTACK()
```

### Event 150

#### Metadata

| Field        | Value    |
|--------------|----------|
| Entrypoint   | 0x00EF   |
| Data Size    | 20 bytes |
| Instructions | 8        |

```
      00 01 02 03 04 05 06 07  08 09 0A 0B 0C 0D 0E 0F
      -- -- -- -- -- -- -- --  -- -- -- -- -- -- -- --
00E0:                                               1E                 .
00F0: F0 FF FF 7F 03 02 10 08  80 1D 09 80 23 1D 0A 80  ............#...
0100: 23 21 00                                          #!.             
```

#### Opcodes

```
  0: 0x00EF [0x1E] EventEntity looks at LocalPlayer and starts talking
  1: 0x00F4 [0x03] Work_Zone[2] = 13121*
  2: 0x00F9 [0x1D] PRINT_EVENT_MESSAGE(message_id=7742*)
    → "I heard that $0 is hidden somewhere deep inside Castle Oztroja! Huh? You don't know what that is?"
  3: 0x00FC [0x23] WAIT_FOR_DIALOG_INTERACTION
  4: 0x00FD [0x1D] PRINT_EVENT_MESSAGE(message_id=7743*)
    → "It's a really nice collar. I bet our chocobos would love to wear one, but maybe that one isn't for chocobos."
  5: 0x0100 [0x23] WAIT_FOR_DIALOG_INTERACTION
  6: 0x0101 [0x21] END_EVENT
  7: 0x0102 [0x00] END_REQSTACK()
```

### Event 133

#### Metadata

| Field        | Value    |
|--------------|----------|
| Entrypoint   | 0x0103   |
| Data Size    | 11 bytes |
| Instructions | 5        |

```
      00 01 02 03 04 05 06 07  08 09 0A 0B 0C 0D 0E 0F
      -- -- -- -- -- -- -- --  -- -- -- -- -- -- -- --
0100:          1E F0 FF FF 7F  1D 0B 80 23 21 00           ........#!.  
```

#### Opcodes

```
  0: 0x0103 [0x1E] EventEntity looks at LocalPlayer and starts talking
  1: 0x0108 [0x1D] PRINT_EVENT_MESSAGE(message_id=7720*)
    → "When I think that someday I'll be parted from this chocobo... Oh, it's so sad!"
  2: 0x010B [0x23] WAIT_FOR_DIALOG_INTERACTION
  3: 0x010C [0x21] END_EVENT
  4: 0x010D [0x00] END_REQSTACK()
```

### Event 132

#### Metadata

| Field        | Value    |
|--------------|----------|
| Entrypoint   | 0x010E   |
| Data Size    | 11 bytes |
| Instructions | 5        |

```
      00 01 02 03 04 05 06 07  08 09 0A 0B 0C 0D 0E 0F
      -- -- -- -- -- -- -- --  -- -- -- -- -- -- -- --
0100:                                            1E F0                ..
0110: FF FF 7F 1D 0C 80 23 21  00                       ......#!.       
```

#### Opcodes

```
  0: 0x010E [0x1E] EventEntity looks at LocalPlayer and starts talking
  1: 0x0113 [0x1D] PRINT_EVENT_MESSAGE(message_id=7752*)
    → "Even when they're gone forever, your memory of them stays. I want to treasure every moment with this chocobo."
  2: 0x0116 [0x23] WAIT_FOR_DIALOG_INTERACTION
  3: 0x0117 [0x21] END_EVENT
  4: 0x0118 [0x00] END_REQSTACK()
```

### Event 65535.1

#### Metadata

| Field        | Value    |
|--------------|----------|
| Entrypoint   | 0x0119   |
| Data Size    | 19 bytes |
| Instructions | 3        |

```
      00 01 02 03 04 05 06 07  08 09 0A 0B 0C 0D 0E 0F
      -- -- -- -- -- -- -- --  -- -- -- -- -- -- -- --
0110:                             5B 00 80 F8 FF FF 7F           [......
0120: F8 FF FF 7F 74 6C 6B 30  1C 02 80 00              ....tlk0....    
```

#### Opcodes

```
  0: 0x0119 [0x5B] LOAD_EXT_SCHEDULER: Load scheduler "tlk0" with entities [EventEntity, EventEntity], work=80*
  1: 0x0128 [0x1C] WAIT(60* ticks)
  2: 0x012B [0x00] END_REQSTACK()
```

### Event 65535.2

#### Metadata

| Field        | Value    |
|--------------|----------|
| Entrypoint   | 0x012C   |
| Data Size    | 19 bytes |
| Instructions | 3        |

```
      00 01 02 03 04 05 06 07  08 09 0A 0B 0C 0D 0E 0F
      -- -- -- -- -- -- -- --  -- -- -- -- -- -- -- --
0120:                                      5B 00 80 F8              [...
0130: FF FF 7F F8 FF FF 7F 74  68 6B 31 1C 02 80 00     .......thk1.... 
```

#### Opcodes

```
  0: 0x012C [0x5B] LOAD_EXT_SCHEDULER: Load scheduler "thk1" with entities [EventEntity, EventEntity], work=80*
  1: 0x013B [0x1C] WAIT(60* ticks)
  2: 0x013E [0x00] END_REQSTACK()
```

### Event 65535.3

#### Metadata

| Field        | Value    |
|--------------|----------|
| Entrypoint   | 0x013F   |
| Data Size    | 19 bytes |
| Instructions | 3        |

```
      00 01 02 03 04 05 06 07  08 09 0A 0B 0C 0D 0E 0F
      -- -- -- -- -- -- -- --  -- -- -- -- -- -- -- --
0130:                                               5B                 [
0140: 00 80 F8 FF FF 7F F8 FF  FF 7F 74 68 6B 32 1C 02  ..........thk2..
0150: 80 00                                             ..              
```

#### Opcodes

```
  0: 0x013F [0x5B] LOAD_EXT_SCHEDULER: Load scheduler "thk2" with entities [EventEntity, EventEntity], work=80*
  1: 0x014E [0x1C] WAIT(60* ticks)
  2: 0x0151 [0x00] END_REQSTACK()
```

### Event 65535.4

#### Metadata

| Field        | Value   |
|--------------|---------|
| Entrypoint   | 0x0152  |
| Data Size    | 9 bytes |
| Instructions | 3       |

```
      00 01 02 03 04 05 06 07  08 09 0A 0B 0C 0D 0E 0F
      -- -- -- -- -- -- -- --  -- -- -- -- -- -- -- --
0150:       5E 69 64 6C 30 1C  02 80 00                   ^idl0....     
```

#### Opcodes

```
  0: 0x0152 [0x5E] EventEntity goes idle (kills current action) (animation: "idl0")
  1: 0x0157 [0x1C] WAIT(60* ticks)
  2: 0x015A [0x00] END_REQSTACK()
```

### Event 65535.5

#### Metadata

| Field        | Value   |
|--------------|---------|
| Entrypoint   | 0x015B  |
| Data Size    | 1 bytes |
| Instructions | 1       |

```
      00 01 02 03 04 05 06 07  08 09 0A 0B 0C 0D 0E 0F
      -- -- -- -- -- -- -- --  -- -- -- -- -- -- -- --
0150:                                   00                         .    
```

#### Opcodes

```
  0: 0x015B [0x00] END_REQSTACK()
```

### Event 10015

#### Metadata

| Field        | Value   |
|--------------|---------|
| Entrypoint   | 0x015C  |
| Data Size    | 1 bytes |
| Instructions | 1       |

```
      00 01 02 03 04 05 06 07  08 09 0A 0B 0C 0D 0E 0F
      -- -- -- -- -- -- -- --  -- -- -- -- -- -- -- --
0150:                                      00                       .   
```

#### Opcodes

```
  0: 0x015C [0x00] END_REQSTACK()
```

### Event 10017

#### Metadata

| Field        | Value   |
|--------------|---------|
| Entrypoint   | 0x015D  |
| Data Size    | 1 bytes |
| Instructions | 1       |

```
      00 01 02 03 04 05 06 07  08 09 0A 0B 0C 0D 0E 0F
      -- -- -- -- -- -- -- --  -- -- -- -- -- -- -- --
0150:                                         00                     .  
```

#### Opcodes

```
  0: 0x015D [0x00] END_REQSTACK()
```

### Event 65535.6

#### Metadata

| Field        | Value    |
|--------------|----------|
| Entrypoint   | 0x015E   |
| Data Size    | 12 bytes |
| Instructions | 3        |

```
      00 01 02 03 04 05 06 07  08 09 0A 0B 0C 0D 0E 0F
      -- -- -- -- -- -- -- --  -- -- -- -- -- -- -- --
0150:                                            33 01                3.
0160: 37 0D 80 0E 80 0F 80 10  80 00                    7.........      
```

#### Opcodes

```
  0: 0x015E [0x33] EventEntity->Render.Flags0 |= 0x200000 // Bit 21 (flag=0x01)
  1: 0x0160 [0x37] UPDATE_EVENT_POSITION_AND_DIR: x=-52.426*, z=79.927*, y=2.371*, direction=148.4°*
  2: 0x0169 [0x00] END_REQSTACK()
```

### Event 65535.7

#### Metadata

| Field        | Value    |
|--------------|----------|
| Entrypoint   | 0x016A   |
| Data Size    | 37 bytes |
| Instructions | 10       |

```
      00 01 02 03 04 05 06 07  08 09 0A 0B 0C 0D 0E 0F
      -- -- -- -- -- -- -- --  -- -- -- -- -- -- -- --
0160:                                32 11 80 5A 00 12            2..Z..
0170: 80 13 80 14 80 5A 01 33  00 1F 00 15 80 16 80 14  .....Z.3........
0180: 80 1F 01 6F 1C 17 80 4B  F8 FF FF 7F 18 80 00     ...o...K....... 
```

#### Opcodes

```
  0: 0x016A [0x32] ExtData[1]->MainSpeed = 13* * 0.1
  1: 0x016D [0x5A] UPDATE_EVENT_POSITION: Set EventEntity MovePosition to X=-56.835*, Z=77.638*, Y=0.000*
  2: 0x0175 [0x5A] UPDATE_EVENT_POSITION: Move EventEntity incrementally towards MovePosition
  3: 0x0177 [0x33] EventEntity->Render.Flags0 &= ~ 0x200000 // Bit 21 (flag=0x00)
  4: 0x0179 [0x1F] MOVE_ENTITY: EventEntity moves to X=-59.177*, Z=76.683*, Y=0.000*
  5: 0x0181 [0x1F] MOVE_ENTITY: Update entity position (mode=1)
  6: 0x0183 [0x6F] WAIT_FRAME_DELAY: Yield until WaitTime reaches zero
  7: 0x0184 [0x1C] WAIT(15* ticks)
  8: 0x0187 [0x4B] UPDATE_ENTITY_YAW(entity=EventEntity, yaw=15.0°*)
  9: 0x018E [0x00] END_REQSTACK()
```

### Event 65535.8

#### Metadata

| Field        | Value    |
|--------------|----------|
| Entrypoint   | 0x018F   |
| Data Size    | 10 bytes |
| Instructions | 2        |

```
      00 01 02 03 04 05 06 07  08 09 0A 0B 0C 0D 0E 0F
      -- -- -- -- -- -- -- --  -- -- -- -- -- -- -- --
0180:                                               37                 7
0190: 19 80 1A 80 14 80 1B 80  00                       .........       
```

#### Opcodes

```
  0: 0x018F [0x37] UPDATE_EVENT_POSITION_AND_DIR: x=-63.004*, z=82.294*, y=0.000*, direction=10.1°*
  1: 0x0198 [0x00] END_REQSTACK()
```

### Event 65535.9

#### Metadata

| Field        | Value    |
|--------------|----------|
| Entrypoint   | 0x0199   |
| Data Size    | 25 bytes |
| Instructions | 9        |

```
      00 01 02 03 04 05 06 07  08 09 0A 0B 0C 0D 0E 0F
      -- -- -- -- -- -- -- --  -- -- -- -- -- -- -- --
0190:                             1C 1C 80 1E 0C 40 0F           .....@.
01A0: 01 6F 70 32 11 80 1F 00  1D 80 1E 80 14 80 1F 01  .op2............
01B0: 6F 00                                             o.              
```

#### Opcodes

```
  0: 0x0199 [0x1C] WAIT(30* ticks)
  1: 0x019C [0x1E] EventEntity looks at Brutus (ID: 17776652/0x010F400C) and starts talking
  2: 0x01A1 [0x6F] WAIT_FRAME_DELAY: Yield until WaitTime reaches zero
  3: 0x01A2 [0x70] WAIT_ENTITY_RENDER_FLAG: Wait while EventEntity->Render.Flags3 bit 2 is set (cancel turn if not)
  4: 0x01A3 [0x32] ExtData[1]->MainSpeed = 13* * 0.1
  5: 0x01A6 [0x1F] MOVE_ENTITY: EventEntity moves to X=-58.938*, Z=77.075*, Y=0.000*
  6: 0x01AE [0x1F] MOVE_ENTITY: Update entity position (mode=1)
  7: 0x01B0 [0x6F] WAIT_FRAME_DELAY: Yield until WaitTime reaches zero
  8: 0x01B1 [0x00] END_REQSTACK()
```

### Event 10230

#### Metadata

| Field        | Value   |
|--------------|---------|
| Entrypoint   | 0x01B2  |
| Data Size    | 1 bytes |
| Instructions | 1       |

```
      00 01 02 03 04 05 06 07  08 09 0A 0B 0C 0D 0E 0F
      -- -- -- -- -- -- -- --  -- -- -- -- -- -- -- --
01B0:       00                                            .             
```

#### Opcodes

```
  0: 0x01B2 [0x00] END_REQSTACK()
```

### Event 10231

#### Metadata

| Field        | Value   |
|--------------|---------|
| Entrypoint   | 0x01B3  |
| Data Size    | 1 bytes |
| Instructions | 1       |

```
      00 01 02 03 04 05 06 07  08 09 0A 0B 0C 0D 0E 0F
      -- -- -- -- -- -- -- --  -- -- -- -- -- -- -- --
01B0:          00                                          .            
```

#### Opcodes

```
  0: 0x01B3 [0x00] END_REQSTACK()
```

### Event 10232

#### Metadata

| Field        | Value   |
|--------------|---------|
| Entrypoint   | 0x01B4  |
| Data Size    | 1 bytes |
| Instructions | 1       |

```
      00 01 02 03 04 05 06 07  08 09 0A 0B 0C 0D 0E 0F
      -- -- -- -- -- -- -- --  -- -- -- -- -- -- -- --
01B0:             00                                        .           
```

#### Opcodes

```
  0: 0x01B4 [0x00] END_REQSTACK()
```

### Event 10233

#### Metadata

| Field        | Value   |
|--------------|---------|
| Entrypoint   | 0x01B5  |
| Data Size    | 1 bytes |
| Instructions | 1       |

```
      00 01 02 03 04 05 06 07  08 09 0A 0B 0C 0D 0E 0F
      -- -- -- -- -- -- -- --  -- -- -- -- -- -- -- --
01B0:                00                                      .          
```

#### Opcodes

```
  0: 0x01B5 [0x00] END_REQSTACK()
```

### Event 10234

#### Metadata

| Field        | Value   |
|--------------|---------|
| Entrypoint   | 0x01B6  |
| Data Size    | 1 bytes |
| Instructions | 1       |

```
      00 01 02 03 04 05 06 07  08 09 0A 0B 0C 0D 0E 0F
      -- -- -- -- -- -- -- --  -- -- -- -- -- -- -- --
01B0:                   00                                    .         
```

#### Opcodes

```
  0: 0x01B6 [0x00] END_REQSTACK()
```

### Event 65535.10

#### Metadata

| Field        | Value    |
|--------------|----------|
| Entrypoint   | 0x01B7   |
| Data Size    | 87 bytes |
| Instructions | 19       |

```
      00 01 02 03 04 05 06 07  08 09 0A 0B 0C 0D 0E 0F
      -- -- -- -- -- -- -- --  -- -- -- -- -- -- -- --
01B0:                      32  02 80 1C 17 80 1F 00 1F         2........
01C0: 80 20 80 21 80 1F 01 1F  00 22 80 23 80 21 80 1F  . .!.....".#.!..
01D0: 01 1F 00 24 80 25 80 21  80 1F 01 1F 00 26 80 27  ...$.%.!.....&.'
01E0: 80 28 80 1F 01 1F 00 29  80 2A 80 14 80 1F 01 1F  .(.....).*......
01F0: 00 2B 80 2C 80 14 80 1F  01 1F 00 2D 80 2E 80 14  .+.,.......-....
0200: 80 1F 01 1F 00 2F 80 30  80 14 80 1F 01 00        ...../.0......  
```

#### Opcodes

```
  0: 0x01B7 [0x32] ExtData[1]->MainSpeed = 60* * 0.1
  1: 0x01BA [0x1C] WAIT(15* ticks)
  2: 0x01BD [0x1F] MOVE_ENTITY: EventEntity moves to X=-51.160*, Z=94.750*, Y=8.000*
  3: 0x01C5 [0x1F] MOVE_ENTITY: Update entity position (mode=1)
  4: 0x01C7 [0x1F] MOVE_ENTITY: EventEntity moves to X=-45.530*, Z=97.780*, Y=8.000*
  5: 0x01CF [0x1F] MOVE_ENTITY: Update entity position (mode=1)
  6: 0x01D1 [0x1F] MOVE_ENTITY: EventEntity moves to X=-40.930*, Z=92.020*, Y=8.000*
  7: 0x01D9 [0x1F] MOVE_ENTITY: Update entity position (mode=1)
  8: 0x01DB [0x1F] MOVE_ENTITY: EventEntity moves to X=-43.190*, Z=85.670*, Y=7.700*
  9: 0x01E3 [0x1F] MOVE_ENTITY: Update entity position (mode=1)
 10: 0x01E5 [0x1F] MOVE_ENTITY: EventEntity moves to X=-59.100*, Z=76.510*, Y=0.000*
 11: 0x01ED [0x1F] MOVE_ENTITY: Update entity position (mode=1)
 12: 0x01EF [0x1F] MOVE_ENTITY: EventEntity moves to X=-64.080*, Z=78.410*, Y=0.000*
 13: 0x01F7 [0x1F] MOVE_ENTITY: Update entity position (mode=1)
 14: 0x01F9 [0x1F] MOVE_ENTITY: EventEntity moves to X=-69.220*, Z=92.070*, Y=0.000*
 15: 0x0201 [0x1F] MOVE_ENTITY: Update entity position (mode=1)
 16: 0x0203 [0x1F] MOVE_ENTITY: EventEntity moves to X=-66.820*, Z=120.920*, Y=0.000*
 17: 0x020B [0x1F] MOVE_ENTITY: Update entity position (mode=1)
 18: 0x020D [0x00] END_REQSTACK()
```
