# 17776898

## Common Data

| Field            | Value                 |
|------------------|-----------------------|
| Zone             | Upper Jeuno (ID: 244) |
| Block Size       | 8500 bytes            |
| Total Events     | 4                     |
| References Count | 227                   |

## List of Events

| Event ID              | Entrypoint   |   Size |   Instructions |
|-----------------------|--------------|--------|----------------|
| [65535](#event-65535) | 0x0000       |      1 |              1 |
| [10230](#event-10230) | 0x0001       |   2329 |            273 |
| [10232](#event-10232) | 0x091A       |   1454 |            197 |
| [10234](#event-10234) | 0x0EC8       |   3773 |            456 |

## DAT References (imed_data)

|   Index | Hex Value   |   Dec Value |
|---------|-------------|-------------|
|       0 | 0x0013      |          19 |
|       1 | 0xFFFF33FA  |  4294915066 |
|       2 | 0x15900     |       88320 |
|       3 | 0x2008      |        8200 |
|       4 | 0x0C5F      |        3167 |
|       5 | 0xFFFF4DA4  |  4294921636 |
|       6 | 0x17EB2     |       97970 |
|       7 | 0x1F40      |        8000 |
|       8 | 0x06A0      |        1696 |
|       9 | 0x0078      |         120 |
|      10 | 0x0334      |         820 |
|      11 | 0x0000      |           0 |
|      12 | 0x35BA      |       13754 |
|      13 | 0x35BB      |       13755 |
|      14 | 0x001E      |          30 |
|      15 | 0x35BC      |       13756 |
|      16 | 0x35BD      |       13757 |
|      17 | 0x35BE      |       13758 |
|      18 | 0x35BF      |       13759 |
|      19 | 0x0001      |           1 |
|      20 | 0x0002      |           2 |
|      21 | 0x0003      |           3 |
|      22 | 0x0004      |           4 |
|      23 | 0x0005      |           5 |
|      24 | 0x0006      |           6 |
|      25 | 0x0007      |           7 |
|      26 | 0x0008      |           8 |
|      27 | 0x35C0      |       13760 |
|      28 | 0x0016      |          22 |
|      29 | 0x35C1      |       13761 |
|      30 | 0x0024      |          36 |
|      31 | 0x35C2      |       13762 |
|      32 | 0x005A      |          90 |
|      33 | 0x35C3      |       13763 |
|      34 | 0x35C4      |       13764 |
|      35 | 0x0009      |           9 |
|      36 | 0x35C5      |       13765 |
|      37 | 0x35C6      |       13766 |
|      38 | 0x35C7      |       13767 |
|      39 | 0x35C8      |       13768 |
|      40 | 0x35C9      |       13769 |
|      41 | 0x35CA      |       13770 |
|      42 | 0x0031      |          49 |
|      43 | 0x35CB      |       13771 |
|      44 | 0x35CC      |       13772 |
|      45 | 0x35CD      |       13773 |
|      46 | 0x35CE      |       13774 |
|      47 | 0x35CF      |       13775 |
|      48 | 0x35D0      |       13776 |
|      49 | 0x35D1      |       13777 |
|      50 | 0x35D2      |       13778 |
|      51 | 0x0095      |         149 |
|      52 | 0x35D3      |       13779 |
|      53 | 0x35D4      |       13780 |
|      54 | 0x35D5      |       13781 |
|      55 | 0x35D6      |       13782 |
|      56 | 0x35D7      |       13783 |
|      57 | 0x35D8      |       13784 |
|      58 | 0x35D9      |       13785 |
|      59 | 0x003C      |          60 |
|      60 | 0x35DA      |       13786 |
|      61 | 0x35DB      |       13787 |
|      62 | 0x35DC      |       13788 |
|      63 | 0x35DD      |       13789 |
|      64 | 0x35DE      |       13790 |
|      65 | 0xFFFF2BDA  |  4294912986 |
|      66 | 0x14FB4     |       85940 |
|      67 | 0x0AC9      |        2761 |
|      68 | 0x00C8      |         200 |
|      69 | 0xFFFF2BC6  |  4294912966 |
|      70 | 0x1644A     |       91210 |
|      71 | 0xFFFF2DD8  |  4294913496 |
|      72 | 0x15860     |       88160 |
|      73 | 0x0A75      |        2677 |
|      74 | 0xFFFF26E4  |  4294911716 |
|      75 | 0x153B0     |       86960 |
|      76 | 0x06E0      |        1760 |
|      77 | 0x033E      |         830 |
|      78 | 0x35DF      |       13791 |
|      79 | 0x35E0      |       13792 |
|      80 | 0x35E1      |       13793 |
|      81 | 0xFFFF3C1A  |  4294917146 |
|      82 | 0x172DC     |       94940 |
|      83 | 0x05D0      |        1488 |
|      84 | 0x35E2      |       13794 |
|      85 | 0x00A3      |         163 |
|      86 | 0x000B      |          11 |
|      87 | 0x35E3      |       13795 |
|      88 | 0x35E4      |       13796 |
|      89 | 0x35E5      |       13797 |
|      90 | 0x0BE5      |        3045 |
|      91 | 0x35E6      |       13798 |
|      92 | 0x35E7      |       13799 |
|      93 | 0x35E8      |       13800 |
|      94 | 0x35E9      |       13801 |
|      95 | 0x35EA      |       13802 |
|      96 | 0x35EB      |       13803 |
|      97 | 0x0015      |          21 |
|      98 | 0x35EC      |       13804 |
|      99 | 0x35ED      |       13805 |
|     100 | 0x35EE      |       13806 |
|     101 | 0x35EF      |       13807 |
|     102 | 0x35F0      |       13808 |
|     103 | 0x0010      |          16 |
|     104 | 0x35F1      |       13809 |
|     105 | 0x35F2      |       13810 |
|     106 | 0x35F3      |       13811 |
|     107 | 0x35F4      |       13812 |
|     108 | 0x35F5      |       13813 |
|     109 | 0x006E      |         110 |
|     110 | 0x35F6      |       13814 |
|     111 | 0x35F7      |       13815 |
|     112 | 0xFFFF2F7C  |  4294913916 |
|     113 | 0x153BA     |       86970 |
|     114 | 0xFFFF2234  |  4294910516 |
|     115 | 0x1543C     |       87100 |
|     116 | 0x35F9      |       13817 |
|     117 | 0x35FA      |       13818 |
|     118 | 0x0018      |          24 |
|     119 | 0x35FB      |       13819 |
|     120 | 0x0050      |          80 |
|     121 | 0x35FC      |       13820 |
|     122 | 0x35FD      |       13821 |
|     123 | 0xFFFF2DBA  |  4294913466 |
|     124 | 0x158CE     |       88270 |
|     125 | 0x0096      |         150 |
|     126 | 0xFFFF26F8  |  4294911736 |
|     127 | 0x164CC     |       91340 |
|     128 | 0x2328      |        9000 |
|     129 | 0x0EED      |        3821 |
|     130 | 0x35FE      |       13822 |
|     131 | 0x00D6      |         214 |
|     132 | 0xFFFF2658  |  4294911576 |
|     133 | 0x16486     |       91270 |
|     134 | 0x1A90      |        6800 |
|     135 | 0x35FF      |       13823 |
|     136 | 0xFFFF383C  |  4294916156 |
|     137 | 0x1746C     |       95340 |
|     138 | 0x0672      |        1650 |
|     139 | 0x0ADE      |        2782 |
|     140 | 0x000A      |          10 |
|     141 | 0xFFFF237E  |  4294910846 |
|     142 | 0x15B4E     |       88910 |
|     143 | 0x0EF2      |        3826 |
|     144 | 0xFFFF30F8  |  4294914296 |
|     145 | 0x14FF0     |       86000 |
|     146 | 0x028B      |         651 |
|     147 | 0xFFFF5D1C  |  4294925596 |
|     148 | 0x1960E     |      103950 |
|     149 | 0x00E0      |         224 |
|     150 | 0x0019      |          25 |
|     151 | 0x004B      |          75 |
|     152 | 0x3600      |       13824 |
|     153 | 0x0028      |          40 |
|     154 | 0x3601      |       13825 |
|     155 | 0xFFFF1013  |  4294905875 |
|     156 | 0x16FD2     |       94162 |
|     157 | 0x2007      |        8199 |
|     158 | 0x051F      |        1311 |
|     159 | 0xFFFF3A93  |  4294916755 |
|     160 | 0x15482     |       87170 |
|     161 | 0x005F      |          95 |
|     162 | 0xFFFF3335  |  4294914869 |
|     163 | 0x180A4     |       98468 |
|     164 | 0x0448      |        1096 |
|     165 | 0xFFFF4009  |  4294918153 |
|     166 | 0x159FE     |       88574 |
|     167 | 0x0266      |         614 |
|     168 | 0xFFFF10B7  |  4294906039 |
|     169 | 0x16AFD     |       92925 |
|     170 | 0x0899      |        2201 |
|     171 | 0xFFFF22DE  |  4294910686 |
|     172 | 0x14830     |       84016 |
|     173 | 0x029E      |         670 |
|     174 | 0xFFFF52CD  |  4294922957 |
|     175 | 0x15C4C     |       89164 |
|     176 | 0x1F3F      |        7999 |
|     177 | 0x076D      |        1901 |
|     178 | 0xFFFF2022  |  4294909986 |
|     179 | 0x161AC     |       90540 |
|     180 | 0x037E      |         894 |
|     181 | 0xFFFF25AE  |  4294911406 |
|     182 | 0x160BC     |       90300 |
|     183 | 0x04D7      |        1239 |
|     184 | 0xFFFF2A9A  |  4294912666 |
|     185 | 0x15BC6     |       89030 |
|     186 | 0x07A8      |        1960 |
|     187 | 0x3602      |       13826 |
|     188 | 0x3603      |       13827 |
|     189 | 0x001A      |          26 |
|     190 | 0x3604      |       13828 |
|     191 | 0xFFFF2770  |  4294911856 |
|     192 | 0x165D0     |       91600 |
|     193 | 0xFFFF2E50  |  4294913616 |
|     194 | 0x15C48     |       89160 |
|     195 | 0x0017      |          23 |
|     196 | 0x000D      |          13 |
|     197 | 0x3605      |       13829 |
|     198 | 0x3606      |       13830 |
|     199 | 0x3607      |       13831 |
|     200 | 0x3608      |       13832 |
|     201 | 0x3609      |       13833 |
|     202 | 0x360A      |       13834 |
|     203 | 0x360B      |       13835 |
|     204 | 0x0026      |          38 |
|     205 | 0x360C      |       13836 |
|     206 | 0x0FAF      |        4015 |
|     207 | 0xFFFF2612  |  4294911506 |
|     208 | 0x152F2     |       86770 |
|     209 | 0x0F16      |        3862 |
|     210 | 0x360D      |       13837 |
|     211 | 0x360E      |       13838 |
|     212 | 0xFFFF264E  |  4294911566 |
|     213 | 0x15392     |       86930 |
|     214 | 0x1B58      |        7000 |
|     215 | 0x1C20      |        7200 |
|     216 | 0x1EDC      |        7900 |
|     217 | 0x19C8      |        6600 |
|     218 | 0x360F      |       13839 |
|     219 | 0x3610      |       13840 |
|     220 | 0x3611      |       13841 |
|     221 | 0x3612      |       13842 |
|     222 | 0x3613      |       13843 |
|     223 | 0x00C9      |         201 |
|     224 | 0x0046      |          70 |
|     225 | 0x008C      |         140 |
|     226 | 0x00D2      |         210 |

## String References

- **13760**: Can you summon it? [What are you talking about?/How did you know?]

## Events

### Event 65535

#### Metadata

| Field        | Value   |
|--------------|---------|
| Entrypoint   | 0x0000  |
| Data Size    | 1 bytes |
| Instructions | 1       |

```
      00 01 02 03 04 05 06 07  08 09 0A 0B 0C 0D 0E 0F
      -- -- -- -- -- -- -- --  -- -- -- -- -- -- -- --
0000: 00                                                .               
```

#### Opcodes

```
  0: 0x0000 [0x00] END_REQSTACK()
```

### Event 10230

#### Metadata

| Field        | Value      |
|--------------|------------|
| Entrypoint   | 0x0001     |
| Data Size    | 2329 bytes |
| Instructions | 273        |

```
      00 01 02 03 04 05 06 07  08 09 0A 0B 0C 0D 0E 0F
      -- -- -- -- -- -- -- --  -- -- -- -- -- -- -- --
0000:    42 1A D0 1C 46 01 38  00 80 92 01 00 41 0F 01   B...F.8.....A..
0010: 92 01 03 41 0F 01 2F 00  03 41 0F 01 4E 00 03 41  ...A../..A..N..A
0020: 0F 01 92 01 09 40 0F 01  92 01 0A 40 0F 01 92 01  .....@.....@....
0030: 0B 40 0F 01 92 01 0D 40  0F 01 92 01 0E 40 0F 01  .@.....@.....@..
0040: 92 01 0C 40 0F 01 92 01  30 40 0F 01 92 01 5C 40  ...@....0@....\@
0050: 0F 01 92 01 5D 40 0F 01  92 01 60 40 0F 01 92 01  ....]@....`@....
0060: B5 40 0F 01 BA 03 41 0F  01 01 80 02 80 03 80 04  .@....A.........
0070: 80 BA F0 FF FF 7F 05 80  06 80 07 80 08 80 4A 00  ..............J.
0080: 41 0F 01 0B 40 0F 01 1C  09 80 45 0A 80 F8 FF FF  A...@.....E.....
0090: 7F F8 FF FF 7F 73 30 30  30 0B 80 27 10 F0 FF FF  .....s000..'....
00A0: 7F 97 1A AF 1C 1C 09 80  27 10 03 41 0F 01 06 4A  ........'..A...J
00B0: F0 FF FF 7F 03 41 0F 01  B4 00 00 00 3F 3F 3F 00  .....A......???.
00C0: 00 00 00 00 00 00 00 00  00 00 00 00 B5 00 00 00  ................
00D0: B0 00 F8 FF FF 7F 03 41  0F 01 0C 80 23 55 0A 80  .......A....#U..
00E0: F8 FF FF 7F F8 FF FF 7F  73 30 30 30 45 0A 80 F8  ........s000E...
00F0: FF FF 7F F8 FF FF 7F 73  30 30 31 0B 80 4A F0 FF  .......s001..J..
0100: FF 7F 03 41 0F 01 B0 00  F8 FF FF 7F 03 41 0F 01  ...A.........A..
0110: 0D 80 23 1C 0E 80 B4 00  00 00 3F 3F 3F 00 00 00  ..#.......???...
0120: 00 00 00 00 00 00 00 00  00 00 B5 00 00 00 2B 03  ..............+.
0130: 41 0F 01 0F 80 23 2B 03  41 0F 01 10 80 23 52 0A  A....#+.A....#R.
0140: 80 F8 FF FF 7F F8 FF FF  7F 73 30 30 31 45 0A 80  .........s001E..
0150: F8 FF FF 7F F8 FF FF 7F  73 30 30 32 0B 80 2B 03  ........s002..+.
0160: 41 0F 01 11 80 23 52 0A  80 F8 FF FF 7F F8 FF FF  A....#R.........
0170: 7F 73 30 30 32 45 0A 80  F8 FF FF 7F F8 FF FF 7F  .s002E..........
0180: 73 30 30 33 0B 80 7B 03  41 0F 01 2B 03 41 0F 01  s003..{.A..+.A..
0190: 12 80 23 52 0A 80 F8 FF  FF 7F F8 FF FF 7F 73 30  ..#R..........s0
01A0: 30 33 02 87 7F 13 80 80  BE 01 45 0A 80 F8 FF FF  03........E.....
01B0: 7F F8 FF FF 7F 73 30 30  34 0B 80 01 82 02 02 87  .....s004.......
01C0: 7F 14 80 80 DA 01 45 0A  80 F8 FF FF 7F F8 FF FF  ......E.........
01D0: 7F 73 61 30 34 0B 80 01  82 02 02 87 7F 15 80 80  .sa04...........
01E0: F6 01 45 0A 80 F8 FF FF  7F F8 FF FF 7F 73 62 30  ..E..........sb0
01F0: 34 0B 80 01 82 02 02 87  7F 16 80 80 12 02 45 0A  4.............E.
0200: 80 F8 FF FF 7F F8 FF FF  7F 73 63 30 34 0B 80 01  .........sc04...
0210: 82 02 02 87 7F 17 80 80  2E 02 45 0A 80 F8 FF FF  ..........E.....
0220: 7F F8 FF FF 7F 73 64 30  34 0B 80 01 82 02 02 87  .....sd04.......
0230: 7F 18 80 80 4A 02 45 0A  80 F8 FF FF 7F F8 FF FF  ....J.E.........
0240: 7F 73 64 30 34 0B 80 01  82 02 02 87 7F 19 80 80  .sd04...........
0250: 66 02 45 0A 80 F8 FF FF  7F F8 FF FF 7F 73 65 30  f.E..........se0
0260: 34 0B 80 01 82 02 02 87  7F 1A 80 80 82 02 45 0A  4.............E.
0270: 80 F8 FF FF 7F F8 FF FF  7F 73 66 30 34 0B 80 01  .........sf04...
0280: 82 02 24 1B 80 0B 80 0B  80 25 02 00 10 0B 80 00  ..$......%......
0290: 32 03 52 0A 80 F8 FF FF  7F F8 FF FF 7F 73 30 30  2.R..........s00
02A0: 34 52 0A 80 F8 FF FF 7F  F8 FF FF 7F 73 61 30 34  4R..........sa04
02B0: 52 0A 80 F8 FF FF 7F F8  FF FF 7F 73 62 30 34 52  R..........sb04R
02C0: 0A 80 F8 FF FF 7F F8 FF  FF 7F 73 63 30 34 52 0A  ..........sc04R.
02D0: 80 F8 FF FF 7F F8 FF FF  7F 73 64 30 34 52 0A 80  .........sd04R..
02E0: F8 FF FF 7F F8 FF FF 7F  73 65 30 34 52 0A 80 F8  ........se04R...
02F0: FF FF 7F F8 FF FF 7F 73  66 30 34 45 0A 80 F8 FF  .......sf04E....
0300: FF 7F F8 FF FF 7F 73 30  30 35 0B 80 4A 03 41 0F  ......s005..J.A.
0310: 01 F0 FF FF 7F 6F 76 03  41 0F 01 6E 03 41 0F 01  .....ov.A..n.A..
0320: 1C 80 99 03 41 0F 01 2B  03 41 0F 01 1D 80 23 01  ....A..+.A....#.
0330: DA 03 02 00 10 13 80 00  DA 03 52 0A 80 F8 FF FF  ..........R.....
0340: 7F F8 FF FF 7F 73 30 30  34 52 0A 80 F8 FF FF 7F  .....s004R......
0350: F8 FF FF 7F 73 61 30 34  52 0A 80 F8 FF FF 7F F8  ....sa04R.......
0360: FF FF 7F 73 62 30 34 52  0A 80 F8 FF FF 7F F8 FF  ...sb04R........
0370: FF 7F 73 63 30 34 52 0A  80 F8 FF FF 7F F8 FF FF  ..sc04R.........
0380: 7F 73 64 30 34 52 0A 80  F8 FF FF 7F F8 FF FF 7F  .sd04R..........
0390: 73 65 30 34 52 0A 80 F8  FF FF 7F F8 FF FF 7F 73  se04R..........s
03A0: 66 30 34 45 0A 80 F8 FF  FF 7F F8 FF FF 7F 73 30  f04E..........s0
03B0: 30 35 0B 80 4A 03 41 0F  01 F0 FF FF 7F 6F 76 03  05..J.A......ov.
03C0: 41 0F 01 6E 03 41 0F 01  1E 80 99 03 41 0F 01 2B  A..n.A......A..+
03D0: 03 41 0F 01 1F 80 23 01  DA 03 1C 20 80 52 0A 80  .A....#.... .R..
03E0: F8 FF FF 7F F8 FF FF 7F  73 30 30 35 45 0A 80 F8  ........s005E...
03F0: FF FF 7F F8 FF FF 7F 73  30 30 33 0B 80 7B 03 41  .......s003..{.A
0400: 0F 01 2B 03 41 0F 01 21  80 23 4A 03 41 0F 01 F0  ..+.A..!.#J.A...
0410: FF FF 7F 52 0A 80 F8 FF  FF 7F F8 FF FF 7F 73 30  ...R..........s0
0420: 30 33 45 0A 80 F8 FF FF  7F F8 FF FF 7F 73 30 30  03E..........s00
0430: 36 0B 80 03 04 00 87 7F  1A F1 1C 66 05 00 F0 FF  6..........f....
0440: FF 7F F0 FF FF 7F 74 6C  6B 30 53 F0 FF FF 7F F0  ......tlk0S.....
0450: FF FF 7F 74 6C 6B 30 66  05 00 F0 FF FF 7F F0 FF  ...tlk0f........
0460: FF 7F 74 6C 6B 31 52 0A  80 F8 FF FF 7F F8 FF FF  ..tlk1R.........
0470: 7F 73 30 30 36 45 0A 80  F8 FF FF 7F F8 FF FF 7F  .s006E..........
0480: 73 30 30 37 0B 80 6E 03  41 0F 01 16 80 99 03 41  s007..n.A......A
0490: 0F 01 2B 03 41 0F 01 22  80 23 52 0A 80 F8 FF FF  ..+.A..".#R.....
04A0: 7F F8 FF FF 7F 73 30 30  37 45 0A 80 F8 FF FF 7F  .....s007E......
04B0: F8 FF FF 7F 73 30 30 38  0B 80 66 23 80 03 41 0F  ....s008..f#..A.
04C0: 01 03 41 0F 01 74 6C 6B  30 2B 03 41 0F 01 24 80  ..A..tlk0+.A..$.
04D0: 23 2B 03 41 0F 01 25 80  23 66 23 80 03 41 0F 01  #+.A..%.#f#..A..
04E0: 03 41 0F 01 74 6C 6B 31  2B 03 41 0F 01 26 80 23  .A..tlk1+.A..&.#
04F0: 27 10 00 41 0F 01 0C 52  0A 80 F8 FF FF 7F F8 FF  '..A...R........
0500: FF 7F 73 30 30 38 45 0A  80 F8 FF FF 7F F8 FF FF  ..s008E.........
0510: 7F 73 30 30 39 0B 80 2B  00 41 0F 01 27 80 23 55  .s009..+.A..'.#U
0520: 0A 80 F8 FF FF 7F F8 FF  FF 7F 73 30 30 39 4A 03  ..........s009J.
0530: 41 0F 01 00 41 0F 01 2B  03 41 0F 01 28 80 23 4A  A...A..+.A..(.#J
0540: 00 41 0F 01 F0 FF FF 7F  4A 03 41 0F 01 F0 FF FF  .A......J.A.....
0550: 7F 6F 76 00 41 0F 01 6F  76 03 41 0F 01 2B 00 41  .ov.A..ov.A..+.A
0560: 0F 01 29 80 23 52 0A 80  F8 FF FF 7F F8 FF FF 7F  ..).#R..........
0570: 73 30 30 39 45 0A 80 F8  FF FF 7F F8 FF FF 7F 73  s009E..........s
0580: 30 31 30 0B 80 66 2A 80  00 41 0F 01 00 41 0F 01  010..f*..A...A..
0590: 74 6C 6B 30 2B 00 41 0F  01 2B 80 23 66 2A 80 00  tlk0+.A..+.#f*..
05A0: 41 0F 01 00 41 0F 01 74  6C 6B 31 52 0A 80 F8 FF  A...A..tlk1R....
05B0: FF 7F F8 FF FF 7F 73 30  31 30 45 0A 80 F8 FF FF  ......s010E.....
05C0: 7F F8 FF FF 7F 73 30 31  31 0B 80 4A 00 41 0F 01  .....s011..J.A..
05D0: 03 41 0F 01 4A 03 41 0F  01 00 41 0F 01 6F 76 00  .A..J.A...A..ov.
05E0: 41 0F 01 6F 76 03 41 0F  01 66 23 80 03 41 0F 01  A..ov.A..f#..A..
05F0: 03 41 0F 01 74 6C 6B 30  2B 03 41 0F 01 2C 80 23  .A..tlk0+.A..,.#
0600: 66 23 80 03 41 0F 01 03  41 0F 01 74 6C 6B 31 66  f#..A...A..tlk1f
0610: 2A 80 00 41 0F 01 00 41  0F 01 74 6C 6B 30 2B 00  *..A...A..tlk0+.
0620: 41 0F 01 2D 80 23 66 2A  80 00 41 0F 01 00 41 0F  A..-.#f*..A...A.
0630: 01 74 6C 6B 31 45 0A 80  F8 FF FF 7F F8 FF FF 7F  .tlk1E..........
0640: 73 30 31 32 0B 80 2B 00  41 0F 01 2E 80 23 45 0A  s012..+.A....#E.
0650: 80 F8 FF FF 7F F8 FF FF  7F 73 30 31 31 0B 80 2B  .........s011..+
0660: 03 41 0F 01 2F 80 23 2B  00 41 0F 01 30 80 23 45  .A../.#+.A..0.#E
0670: 0A 80 F8 FF FF 7F F8 FF  FF 7F 73 30 31 32 0B 80  ..........s012..
0680: 2B 00 41 0F 01 31 80 23  45 0A 80 F8 FF FF 7F F8  +.A..1.#E.......
0690: FF FF 7F 73 30 31 33 0B  80 66 23 80 03 41 0F 01  ...s013..f#..A..
06A0: 03 41 0F 01 74 6C 6B 30  2B 03 41 0F 01 32 80 23  .A..tlk0+.A..2.#
06B0: 66 23 80 03 41 0F 01 03  41 0F 01 74 6C 6B 31 53  f#..A...A..tlk1S
06C0: 03 41 0F 01 03 41 0F 01  74 6C 6B 31 66 33 80 03  .A...A..tlk1f3..
06D0: 41 0F 01 03 41 0F 01 74  68 6B 30 2B 03 41 0F 01  A...A..thk0+.A..
06E0: 34 80 23 66 33 80 03 41  0F 01 03 41 0F 01 74 68  4.#f3..A...A..th
06F0: 6B 31 53 03 41 0F 01 03  41 0F 01 74 68 6B 31 2B  k1S.A...A..thk1+
0700: 03 41 0F 01 35 80 23 52  0A 80 F8 FF FF 7F F8 FF  .A..5.#R........
0710: FF 7F 73 30 31 33 45 0A  80 F8 FF FF 7F F8 FF FF  ..s013E.........
0720: 7F 73 30 30 32 0B 80 4A  03 41 0F 01 F0 FF FF 7F  .s002..J.A......
0730: 4A 00 41 0F 01 F0 FF FF  7F 4A F0 FF FF 7F 03 41  J.A......J.....A
0740: 0F 01 6F 76 03 41 0F 01  66 23 80 03 41 0F 01 03  ..ov.A..f#..A...
0750: 41 0F 01 74 6C 6B 30 2B  03 41 0F 01 36 80 23 66  A..tlk0+.A..6.#f
0760: 23 80 03 41 0F 01 03 41  0F 01 74 6C 6B 31 45 0A  #..A...A..tlk1E.
0770: 80 F8 FF FF 7F F8 FF FF  7F 73 30 31 31 0B 80 4A  .........s011..J
0780: 00 41 0F 01 03 41 0F 01  4A 03 41 0F 01 00 41 0F  .A...A..J.A...A.
0790: 01 4A F0 FF FF 7F 00 41  0F 01 2B 00 41 0F 01 37  .J.....A..+.A..7
07A0: 80 23 66 23 80 03 41 0F  01 03 41 0F 01 74 6C 6B  .#f#..A...A..tlk
07B0: 30 2B 03 41 0F 01 38 80  23 66 23 80 03 41 0F 01  0+.A..8.#f#..A..
07C0: 03 41 0F 01 74 6C 6B 31  45 0A 80 F8 FF FF 7F F8  .A..tlk1E.......
07D0: FF FF 7F 73 30 31 34 0B  80 4A F0 FF FF 7F 03 41  ...s014..J.....A
07E0: 0F 01 2B 03 41 0F 01 39  80 23 45 0A 80 F8 FF FF  ..+.A..9.#E.....
07F0: 7F F8 FF FF 7F 73 30 31  35 0B 80 4A 03 41 0F 01  .....s015..J.A..
0800: F0 FF FF 7F 4A 00 41 0F  01 F0 FF FF 7F 2B 03 41  ....J.A......+.A
0810: 0F 01 3A 80 23 27 10 03  41 0F 01 07 1C 3B 80 4A  ..:.#'..A....;.J
0820: 00 41 0F 01 03 41 0F 01  4A F0 FF FF 7F 03 41 0F  .A...A..J.....A.
0830: 01 2B 00 41 0F 01 3C 80  23 1C 3B 80 4A 00 41 0F  .+.A..<.#.;.J.A.
0840: 01 F0 FF FF 7F 4A F0 FF  FF 7F 00 41 0F 01 29 10  .....J.....A..).
0850: 00 41 0F 01 0D 2B 00 41  0F 01 3D 80 23 4E 01 03  .A...+.A..=.#N..
0860: 41 0F 01 45 0A 80 F8 FF  FF 7F F8 FF FF 7F 73 30  A..E..........s0
0870: 31 36 0B 80 66 2A 80 00  41 0F 01 00 41 0F 01 74  16..f*..A...A..t
0880: 6C 6B 30 2B 00 41 0F 01  3E 80 23 2B 00 41 0F 01  lk0+.A..>.#+.A..
0890: 3F 80 23 66 2A 80 00 41  0F 01 00 41 0F 01 74 6C  ?.#f*..A...A..tl
08A0: 6B 31 53 00 41 0F 01 00  41 0F 01 74 6C 6B 31 52  k1S.A...A..tlk1R
08B0: 0A 80 F8 FF FF 7F F8 FF  FF 7F 73 30 31 36 45 0A  ..........s016E.
08C0: 80 F8 FF FF 7F F8 FF FF  7F 73 30 31 35 0B 80 6E  .........s015..n
08D0: 00 41 0F 01 1E 80 99 00  41 0F 01 2B 00 41 0F 01  .A......A..+.A..
08E0: 40 80 23 1A D0 1C 52 0A  80 F8 FF FF 7F F8 FF FF  @.#...R.........
08F0: 7F 73 30 31 35 1C 3B 80  BA 00 41 0F 01 41 80 42  .s015.;...A..A.B
0900: 80 03 80 43 80 46 00 45  44 80 F0 FF FF 7F F0 FF  ...C.F.ED.......
0910: FF 7F 66 64 69 32 0B 80  21 00                    ..fdi2..!.      
```

#### Opcodes

```
  0: 0x0001 [0x42] SET_CLI_EVENT_CANCEL_DATA()
  1: 0x0002 [0x1A] CALL_SUBROUTINE(address=0x1CD0)
  2: 0x0005 [0x46] CAMERA_CONTROL: Disable user control
  3: 0x0007 [0x38] SET_CLIENT_EVENT_MODE(mode=19*)
  4: 0x000A [0x92] Mapitoto (ID: 17776896/0x010F4100)->Render.Flags3 ^= 0x01
  5: 0x0010 [0x92] Jeridade (ID: 17776899/0x010F4103)->Render.Flags3 ^= 0x01
  6: 0x0016 [0x2F] Jeridade (ID: 17776899/0x010F4103)->Render.Flags0 &= ~0x80000 // Bit 19
  7: 0x001C [0x4E] SET_ENTITY_HIDE_FLAG: Show Jeridade (ID: 17776899/0x010F4103)
  8: 0x0022 [0x92] Chocobo (ID: 17776649/0x010F4009)->Render.Flags3 ^= 0x01
  9: 0x0028 [0x92] Chocobo (ID: 17776650/0x010F400A)->Render.Flags3 ^= 0x01
 10: 0x002E [0x92] Chocobo (ID: 17776651/0x010F400B)->Render.Flags3 ^= 0x01
 11: 0x0034 [0x92] Osker (ID: 17776653/0x010F400D)->Render.Flags3 ^= 0x01
 12: 0x003A [0x92] Shalott (ID: 17776654/0x010F400E)->Render.Flags3 ^= 0x01
 13: 0x0040 [0x92] Brutus (ID: 17776652/0x010F400C)->Render.Flags3 ^= 0x01
 14: 0x0046 [0x92] Silver Tail (ID: 17776688/0x010F4030)->Render.Flags3 ^= 0x01
 15: 0x004C [0x92] Indika (ID: 17776732/0x010F405C)->Render.Flags3 ^= 0x01
 16: 0x0052 [0x92] Ulesa (ID: 17776733/0x010F405D)->Render.Flags3 ^= 0x01
 17: 0x0058 [0x92] Kasra (ID: 17776736/0x010F4060)->Render.Flags3 ^= 0x01
 18: 0x005E [0x92] Finbarr (ID: 17776821/0x010F40B5)->Render.Flags3 ^= 0x01
 19: 0x0064 [0xBA] SET_ENTITY_POSITION(entity_id=Jeridade (ID: 17776899/0x010F4103), pos_x=-52.230*, pos_z=88.320*, pos_y=8.200*, direction=278.3°*)
 20: 0x0071 [0xBA] SET_ENTITY_POSITION(entity_id=LocalPlayer, pos_x=-45.660*, pos_z=97.970*, pos_y=8.000*, direction=149.1°*)
 21: 0x007E [0x4A] Mapitoto (ID: 17776896/0x010F4100) looks at Chocobo (ID: 17776651/0x010F400B)
 22: 0x0087 [0x1C] WAIT(120* ticks)
 23: 0x008A [0x45] LOAD_SCHEDULED_TASK: Load scheduler "s000" with entities [EventEntity, EventEntity], work=[820*, 0*]
 24: 0x009B [0x27] REQ_SET(priority=0x10, entity_id=LocalPlayer, tag_num=0x97)
 25: 0x00A2 [0x1A] CALL_SUBROUTINE(address=0x1CAF)
 26: 0x00A5 [0x1C] WAIT(120* ticks)
 27: 0x00A8 [0x27] REQ_SET(priority=0x10, entity_id=Jeridade (ID: 17776899/0x010F4103), tag_num=0x06)
 28: 0x00AF [0x4A] LocalPlayer looks at Jeridade (ID: 17776899/0x010F4103)
 29: 0x00B8 [0xB4] UI_WINDOW_STRING_HANDLER(case=0x00 - Copy string from opcode, work_offset=ExtData[1]->WorkLocal[0], string="???")
 30: 0x00CC [0xB5] SET_EVENT_ENTITY_NAME: Change EventEntity name to ExtData[1]->WorkLocal[0]
 31: 0x00D0 [0xB0] PRINT_EVENT_MESSAGE(unknown1=0x00, speaker_id=EventEntity, listener_id=0x010F4103, message_offset=0x800C)
 32: 0x00DC [0x23] WAIT_FOR_DIALOG_INTERACTION
 33: 0x00DD [0x55] WAIT_LOAD_SCHEDULER: Wait for scheduler "s000" with entities [EventEntity, EventEntity], work=820*
 34: 0x00EC [0x45] LOAD_SCHEDULED_TASK: Load scheduler "s001" with entities [EventEntity, EventEntity], work=[820*, 0*]
 35: 0x00FD [0x4A] LocalPlayer looks at Jeridade (ID: 17776899/0x010F4103)
 36: 0x0106 [0xB0] PRINT_EVENT_MESSAGE(unknown1=0x00, speaker_id=EventEntity, listener_id=0x010F4103, message_offset=0x800D)
 37: 0x0112 [0x23] WAIT_FOR_DIALOG_INTERACTION
 38: 0x0113 [0x1C] WAIT(30* ticks)
 39: 0x0116 [0xB4] UI_WINDOW_STRING_HANDLER(case=0x00 - Copy string from opcode, work_offset=ExtData[1]->WorkLocal[0], string="???")
 40: 0x012A [0xB5] SET_EVENT_ENTITY_NAME: Change EventEntity name to ExtData[1]->WorkLocal[0]
 41: 0x012E [0x2B] Jeridade (ID: 17776899/0x010F4103) [13756*]:
    → "My name is Jeridade."
 42: 0x0135 [0x23] WAIT_FOR_DIALOG_INTERACTION
 43: 0x0136 [0x2B] Jeridade (ID: 17776899/0x010F4103) [13757*]:
    → "I look after the chocobos' food, check on their health, and perform various other tasks behind the scenes here."
 44: 0x013D [0x23] WAIT_FOR_DIALOG_INTERACTION
 45: 0x013E [0x52] END_LOAD_SCHEDULER: End scheduler "s001" with entities [EventEntity, EventEntity], work=820*
 46: 0x014D [0x45] LOAD_SCHEDULED_TASK: Load scheduler "s002" with entities [EventEntity, EventEntity], work=[820*, 0*]
 47: 0x015E [0x2B] Jeridade (ID: 17776899/0x010F4103) [13758*]:
    → "If you don't mind, there was something I was hoping to ask you."
 48: 0x0165 [0x23] WAIT_FOR_DIALOG_INTERACTION
 49: 0x0166 [0x52] END_LOAD_SCHEDULER: End scheduler "s002" with entities [EventEntity, EventEntity], work=820*
 50: 0x0175 [0x45] LOAD_SCHEDULED_TASK: Load scheduler "s003" with entities [EventEntity, EventEntity], work=[820*, 0*]
 51: 0x0186 [0x7B] Jeridade (ID: 17776899/0x010F4103) stops talking
 52: 0x018B [0x2B] Jeridade (ID: 17776899/0x010F4103) [13759*]:
    → "You're able to summon it, aren't you?"
 53: 0x0192 [0x23] WAIT_FOR_DIALOG_INTERACTION
 54: 0x0193 [0x52] END_LOAD_SCHEDULER: End scheduler "s003" with entities [EventEntity, EventEntity], work=820*
 55: 0x01A2 [0x02] IF !(LocalPlayer->Race == 1*) GOTO 0x01BE
 56: 0x01AA [0x45] LOAD_SCHEDULED_TASK: Load scheduler "s004" with entities [EventEntity, EventEntity], work=[820*, 0*]
 57: 0x01BB [0x01] GOTO 0x0282
 58: 0x01BE [0x02] IF !(LocalPlayer->Race == 2*) GOTO 0x01DA
 59: 0x01C6 [0x45] LOAD_SCHEDULED_TASK: Load scheduler "sa04" with entities [EventEntity, EventEntity], work=[820*, 0*]
 60: 0x01D7 [0x01] GOTO 0x0282
 61: 0x01DA [0x02] IF !(LocalPlayer->Race == 3*) GOTO 0x01F6
 62: 0x01E2 [0x45] LOAD_SCHEDULED_TASK: Load scheduler "sb04" with entities [EventEntity, EventEntity], work=[820*, 0*]
 63: 0x01F3 [0x01] GOTO 0x0282
 64: 0x01F6 [0x02] IF !(LocalPlayer->Race == 4*) GOTO 0x0212
 65: 0x01FE [0x45] LOAD_SCHEDULED_TASK: Load scheduler "sc04" with entities [EventEntity, EventEntity], work=[820*, 0*]
 66: 0x020F [0x01] GOTO 0x0282
 67: 0x0212 [0x02] IF !(LocalPlayer->Race == 5*) GOTO 0x022E
 68: 0x021A [0x45] LOAD_SCHEDULED_TASK: Load scheduler "sd04" with entities [EventEntity, EventEntity], work=[820*, 0*]
 69: 0x022B [0x01] GOTO 0x0282
 70: 0x022E [0x02] IF !(LocalPlayer->Race == 6*) GOTO 0x024A
 71: 0x0236 [0x45] LOAD_SCHEDULED_TASK: Load scheduler "sd04" with entities [EventEntity, EventEntity], work=[820*, 0*]
 72: 0x0247 [0x01] GOTO 0x0282
 73: 0x024A [0x02] IF !(LocalPlayer->Race == 7*) GOTO 0x0266
 74: 0x0252 [0x45] LOAD_SCHEDULED_TASK: Load scheduler "se04" with entities [EventEntity, EventEntity], work=[820*, 0*]
 75: 0x0263 [0x01] GOTO 0x0282
 76: 0x0266 [0x02] IF !(LocalPlayer->Race == 8*) GOTO 0x0282
 77: 0x026E [0x45] LOAD_SCHEDULED_TASK: Load scheduler "sf04" with entities [EventEntity, EventEntity], work=[820*, 0*]
 78: 0x027F [0x01] GOTO 0x0282

SUBROUTINE_0282:
 79: 0x0282 [0x24] CREATE_DIALOG(message_id=13760*, default_option=0*, option_flags=0*)
    → "Can you summon it? [What are you talking about?/How did you know?]"
 80: 0x0289 [0x25] WAIT_DIALOG_SELECT()
 81: 0x028A [0x02] IF !(Work_Zone[0] == 0*) GOTO 0x0332
 82: 0x0292 [0x52] END_LOAD_SCHEDULER: End scheduler "s004" with entities [EventEntity, EventEntity], work=820*
 83: 0x02A1 [0x52] END_LOAD_SCHEDULER: End scheduler "sa04" with entities [EventEntity, EventEntity], work=820*
 84: 0x02B0 [0x52] END_LOAD_SCHEDULER: End scheduler "sb04" with entities [EventEntity, EventEntity], work=820*
 85: 0x02BF [0x52] END_LOAD_SCHEDULER: End scheduler "sc04" with entities [EventEntity, EventEntity], work=820*
 86: 0x02CE [0x52] END_LOAD_SCHEDULER: End scheduler "sd04" with entities [EventEntity, EventEntity], work=820*
 87: 0x02DD [0x52] END_LOAD_SCHEDULER: End scheduler "se04" with entities [EventEntity, EventEntity], work=820*
 88: 0x02EC [0x52] END_LOAD_SCHEDULER: End scheduler "sf04" with entities [EventEntity, EventEntity], work=820*
 89: 0x02FB [0x45] LOAD_SCHEDULED_TASK: Load scheduler "s005" with entities [EventEntity, EventEntity], work=[820*, 0*]
 90: 0x030C [0x4A] Jeridade (ID: 17776899/0x010F4103) looks at LocalPlayer
 91: 0x0315 [0x6F] WAIT_FRAME_DELAY: Yield until WaitTime reaches zero
 92: 0x0316 [0x76] CHECK_ENTITY_RENDER_FLAGS: Wait until Jeridade (ID: 17776899/0x010F4103) Render.Flags0 and Render.Flags3 conditions are met
 93: 0x031B [0x6E] Jeridade (ID: 17776899/0x010F4103) uses emote 22*
 94: 0x0322 [0x99] Wait for Jeridade (ID: 17776899/0x010F4103) animation to complete
 95: 0x0327 [0x2B] Jeridade (ID: 17776899/0x010F4103) [13761*]:
    → "Come on now... You've got $6, don't you? You can't fool me."
 96: 0x032E [0x23] WAIT_FOR_DIALOG_INTERACTION
 97: 0x032F [0x01] GOTO 0x03DA
 98: 0x0332 [0x02] IF !(Work_Zone[0] == 1*) GOTO 0x03DA
 99: 0x033A [0x52] END_LOAD_SCHEDULER: End scheduler "s004" with entities [EventEntity, EventEntity], work=820*
100: 0x0349 [0x52] END_LOAD_SCHEDULER: End scheduler "sa04" with entities [EventEntity, EventEntity], work=820*
101: 0x0358 [0x52] END_LOAD_SCHEDULER: End scheduler "sb04" with entities [EventEntity, EventEntity], work=820*
102: 0x0367 [0x52] END_LOAD_SCHEDULER: End scheduler "sc04" with entities [EventEntity, EventEntity], work=820*
103: 0x0376 [0x52] END_LOAD_SCHEDULER: End scheduler "sd04" with entities [EventEntity, EventEntity], work=820*
104: 0x0385 [0x52] END_LOAD_SCHEDULER: End scheduler "se04" with entities [EventEntity, EventEntity], work=820*
105: 0x0394 [0x52] END_LOAD_SCHEDULER: End scheduler "sf04" with entities [EventEntity, EventEntity], work=820*
106: 0x03A3 [0x45] LOAD_SCHEDULED_TASK: Load scheduler "s005" with entities [EventEntity, EventEntity], work=[820*, 0*]
107: 0x03B4 [0x4A] Jeridade (ID: 17776899/0x010F4103) looks at LocalPlayer
108: 0x03BD [0x6F] WAIT_FRAME_DELAY: Yield until WaitTime reaches zero
109: 0x03BE [0x76] CHECK_ENTITY_RENDER_FLAGS: Wait until Jeridade (ID: 17776899/0x010F4103) Render.Flags0 and Render.Flags3 conditions are met
110: 0x03C3 [0x6E] Jeridade (ID: 17776899/0x010F4103) uses emote 36*
111: 0x03CA [0x99] Wait for Jeridade (ID: 17776899/0x010F4103) animation to complete
112: 0x03CF [0x2B] Jeridade (ID: 17776899/0x010F4103) [13762*]:
    → "I knew it! I saw that you had that $3. You wouldn't be involved with her otherwise."
113: 0x03D6 [0x23] WAIT_FOR_DIALOG_INTERACTION
114: 0x03D7 [0x01] GOTO 0x03DA

SUBROUTINE_03DA:
115: 0x03DA [0x1C] WAIT(90* ticks)
116: 0x03DD [0x52] END_LOAD_SCHEDULER: End scheduler "s005" with entities [EventEntity, EventEntity], work=820*
117: 0x03EC [0x45] LOAD_SCHEDULED_TASK: Load scheduler "s003" with entities [EventEntity, EventEntity], work=[820*, 0*]
118: 0x03FD [0x7B] Jeridade (ID: 17776899/0x010F4103) stops talking
119: 0x0402 [0x2B] Jeridade (ID: 17776899/0x010F4103) [13763*]:
    → "Anyways... What do you want to ride?"
120: 0x0409 [0x23] WAIT_FOR_DIALOG_INTERACTION
121: 0x040A [0x4A] Jeridade (ID: 17776899/0x010F4103) looks at LocalPlayer
122: 0x0413 [0x52] END_LOAD_SCHEDULER: End scheduler "s003" with entities [EventEntity, EventEntity], work=820*
123: 0x0422 [0x45] LOAD_SCHEDULED_TASK: Load scheduler "s006" with entities [EventEntity, EventEntity], work=[820*, 0*]
124: 0x0433 [0x03] ExtData[1]->WorkLocal[4] = LocalPlayer->Race
125: 0x0438 [0x1A] CALL_SUBROUTINE(address=0x1CF1)
126: 0x043B [0x66] LOAD_EXT_SCHEDULER_MAIN: Load scheduler "tlk0" with entities [LocalPlayer, LocalPlayer], work=ExtData[1]->WorkLocal[5]
127: 0x044A [0x53] WAIT_SCHEDULER_TASK: Wait for scheduler "tlk0" with entities [LocalPlayer, LocalPlayer]
128: 0x0457 [0x66] LOAD_EXT_SCHEDULER_MAIN: Load scheduler "tlk1" with entities [LocalPlayer, LocalPlayer], work=ExtData[1]->WorkLocal[5]
129: 0x0466 [0x52] END_LOAD_SCHEDULER: End scheduler "s006" with entities [EventEntity, EventEntity], work=820*
130: 0x0475 [0x45] LOAD_SCHEDULED_TASK: Load scheduler "s007" with entities [EventEntity, EventEntity], work=[820*, 0*]
131: 0x0486 [0x6E] Jeridade (ID: 17776899/0x010F4103) uses emote 4*
132: 0x048D [0x99] Wait for Jeridade (ID: 17776899/0x010F4103) animation to complete
133: 0x0492 [0x2B] Jeridade (ID: 17776899/0x010F4103) [13764*]:
    → "Ah, an excellent choice."
134: 0x0499 [0x23] WAIT_FOR_DIALOG_INTERACTION
135: 0x049A [0x52] END_LOAD_SCHEDULER: End scheduler "s007" with entities [EventEntity, EventEntity], work=820*
136: 0x04A9 [0x45] LOAD_SCHEDULED_TASK: Load scheduler "s008" with entities [EventEntity, EventEntity], work=[820*, 0*]
137: 0x04BA [0x66] LOAD_EXT_SCHEDULER_MAIN: Load scheduler "tlk0" with entities [Jeridade (ID: 17776899/0x010F4103), Jeridade (ID: 17776899/0x010F4103)], work=9*
138: 0x04C9 [0x2B] Jeridade (ID: 17776899/0x010F4103) [13765*]:
    → "I'm interested in mounts that can fly. You know about magic pots and spheroids, right?"
139: 0x04D0 [0x23] WAIT_FOR_DIALOG_INTERACTION
140: 0x04D1 [0x2B] Jeridade (ID: 17776899/0x010F4103) [13766*]:
    → "Flying mounts are great, aren't they?"
141: 0x04D8 [0x23] WAIT_FOR_DIALOG_INTERACTION
142: 0x04D9 [0x66] LOAD_EXT_SCHEDULER_MAIN: Load scheduler "tlk1" with entities [Jeridade (ID: 17776899/0x010F4103), Jeridade (ID: 17776899/0x010F4103)], work=9*
143: 0x04E8 [0x2B] Jeridade (ID: 17776899/0x010F4103) [13767*]:
    → "For somebody like me who only rides chocobos, they're like something straight out of a dream."
144: 0x04EF [0x23] WAIT_FOR_DIALOG_INTERACTION
145: 0x04F0 [0x27] REQ_SET(priority=0x10, entity_id=Mapitoto (ID: 17776896/0x010F4100), tag_num=0x0C)
146: 0x04F7 [0x52] END_LOAD_SCHEDULER: End scheduler "s008" with entities [EventEntity, EventEntity], work=820*
147: 0x0506 [0x45] LOAD_SCHEDULED_TASK: Load scheduler "s009" with entities [EventEntity, EventEntity], work=[820*, 0*]
148: 0x0517 [0x2B] Mapitoto (ID: 17776896/0x010F4100) [13768*]:
    → "Hey! What are you doing-woing!? Did you finish repairing the chocobo stethoscope?"
149: 0x051E [0x23] WAIT_FOR_DIALOG_INTERACTION
150: 0x051F [0x55] WAIT_LOAD_SCHEDULER: Wait for scheduler "s009" with entities [EventEntity, EventEntity], work=820*
151: 0x052E [0x4A] Jeridade (ID: 17776899/0x010F4103) looks at Mapitoto (ID: 17776896/0x010F4100)
152: 0x0537 [0x2B] Jeridade (ID: 17776899/0x010F4103) [13769*]:
    → "Oh! The stethoscope is almost finished. I think..."
153: 0x053E [0x23] WAIT_FOR_DIALOG_INTERACTION
154: 0x053F [0x4A] Mapitoto (ID: 17776896/0x010F4100) looks at LocalPlayer
155: 0x0548 [0x4A] Jeridade (ID: 17776899/0x010F4103) looks at LocalPlayer
156: 0x0551 [0x6F] WAIT_FRAME_DELAY: Yield until WaitTime reaches zero
157: 0x0552 [0x76] CHECK_ENTITY_RENDER_FLAGS: Wait until Mapitoto (ID: 17776896/0x010F4100) Render.Flags0 and Render.Flags3 conditions are met
158: 0x0557 [0x6F] WAIT_FRAME_DELAY: Yield until WaitTime reaches zero
159: 0x0558 [0x76] CHECK_ENTITY_RENDER_FLAGS: Wait until Jeridade (ID: 17776899/0x010F4103) Render.Flags0 and Render.Flags3 conditions are met
160: 0x055D [0x2B] Mapitoto (ID: 17776896/0x010F4100) [13770*]:
    → "Ah, let me guess. He was talking about flying mounts-wounts again, wasn't he?"
161: 0x0564 [0x23] WAIT_FOR_DIALOG_INTERACTION
162: 0x0565 [0x52] END_LOAD_SCHEDULER: End scheduler "s009" with entities [EventEntity, EventEntity], work=820*
163: 0x0574 [0x45] LOAD_SCHEDULED_TASK: Load scheduler "s010" with entities [EventEntity, EventEntity], work=[820*, 0*]
164: 0x0585 [0x66] LOAD_EXT_SCHEDULER_MAIN: Load scheduler "tlk0" with entities [Mapitoto (ID: 17776896/0x010F4100), Mapitoto (ID: 17776896/0x010F4100)], work=49*
165: 0x0594 [0x2B] Mapitoto (ID: 17776896/0x010F4100) [13771*]:
    → "I apologize. Whenever Jeridade sees someone carrying-warrying $6, he immediately starts talking about it nonstop."
166: 0x059B [0x23] WAIT_FOR_DIALOG_INTERACTION
167: 0x059C [0x66] LOAD_EXT_SCHEDULER_MAIN: Load scheduler "tlk1" with entities [Mapitoto (ID: 17776896/0x010F4100), Mapitoto (ID: 17776896/0x010F4100)], work=49*
168: 0x05AB [0x52] END_LOAD_SCHEDULER: End scheduler "s010" with entities [EventEntity, EventEntity], work=820*
169: 0x05BA [0x45] LOAD_SCHEDULED_TASK: Load scheduler "s011" with entities [EventEntity, EventEntity], work=[820*, 0*]
170: 0x05CB [0x4A] Mapitoto (ID: 17776896/0x010F4100) looks at Jeridade (ID: 17776899/0x010F4103)
171: 0x05D4 [0x4A] Jeridade (ID: 17776899/0x010F4103) looks at Mapitoto (ID: 17776896/0x010F4100)
172: 0x05DD [0x6F] WAIT_FRAME_DELAY: Yield until WaitTime reaches zero
173: 0x05DE [0x76] CHECK_ENTITY_RENDER_FLAGS: Wait until Mapitoto (ID: 17776896/0x010F4100) Render.Flags0 and Render.Flags3 conditions are met
174: 0x05E3 [0x6F] WAIT_FRAME_DELAY: Yield until WaitTime reaches zero
175: 0x05E4 [0x76] CHECK_ENTITY_RENDER_FLAGS: Wait until Jeridade (ID: 17776899/0x010F4103) Render.Flags0 and Render.Flags3 conditions are met
176: 0x05E9 [0x66] LOAD_EXT_SCHEDULER_MAIN: Load scheduler "tlk0" with entities [Jeridade (ID: 17776899/0x010F4103), Jeridade (ID: 17776899/0x010F4103)], work=9*
177: 0x05F8 [0x2B] Jeridade (ID: 17776899/0x010F4103) [13772*]:
    → "It's like I've always said... It's my dream. Who wouldn't want to fly freely through the skies!?"
178: 0x05FF [0x23] WAIT_FOR_DIALOG_INTERACTION
179: 0x0600 [0x66] LOAD_EXT_SCHEDULER_MAIN: Load scheduler "tlk1" with entities [Jeridade (ID: 17776899/0x010F4103), Jeridade (ID: 17776899/0x010F4103)], work=9*
180: 0x060F [0x66] LOAD_EXT_SCHEDULER_MAIN: Load scheduler "tlk0" with entities [Mapitoto (ID: 17776896/0x010F4100), Mapitoto (ID: 17776896/0x010F4100)], work=49*
181: 0x061E [0x2B] Mapitoto (ID: 17776896/0x010F4100) [13773*]:
    → "I know all aboutaru your dream, but you shouldn't go bothering others with it!"
182: 0x0625 [0x23] WAIT_FOR_DIALOG_INTERACTION
183: 0x0626 [0x66] LOAD_EXT_SCHEDULER_MAIN: Load scheduler "tlk1" with entities [Mapitoto (ID: 17776896/0x010F4100), Mapitoto (ID: 17776896/0x010F4100)], work=49*
184: 0x0635 [0x45] LOAD_SCHEDULED_TASK: Load scheduler "s012" with entities [EventEntity, EventEntity], work=[820*, 0*]
185: 0x0646 [0x2B] Mapitoto (ID: 17776896/0x010F4100) [13774*]:
    → "You need to startaru with chocobos first, and then work your way up to bombs and magic pots."
186: 0x064D [0x23] WAIT_FOR_DIALOG_INTERACTION
187: 0x064E [0x45] LOAD_SCHEDULED_TASK: Load scheduler "s011" with entities [EventEntity, EventEntity], work=[820*, 0*]
188: 0x065F [0x2B] Jeridade (ID: 17776899/0x010F4103) [13775*]:
    → "Never."
189: 0x0666 [0x23] WAIT_FOR_DIALOG_INTERACTION
190: 0x0667 [0x2B] Mapitoto (ID: 17776896/0x010F4100) [13776*]:
    → "..."
191: 0x066E [0x23] WAIT_FOR_DIALOG_INTERACTION
192: 0x066F [0x45] LOAD_SCHEDULED_TASK: Load scheduler "s012" with entities [EventEntity, EventEntity], work=[820*, 0*]
193: 0x0680 [0x2B] Mapitoto (ID: 17776896/0x010F4100) [13777*]:
    → "Fine. How about you aim to be an airship pilotaru then?"
194: 0x0687 [0x23] WAIT_FOR_DIALOG_INTERACTION
195: 0x0688 [0x45] LOAD_SCHEDULED_TASK: Load scheduler "s013" with entities [EventEntity, EventEntity], work=[820*, 0*]
196: 0x0699 [0x66] LOAD_EXT_SCHEDULER_MAIN: Load scheduler "tlk0" with entities [Jeridade (ID: 17776899/0x010F4103), Jeridade (ID: 17776899/0x010F4103)], work=9*
197: 0x06A8 [0x2B] Jeridade (ID: 17776899/0x010F4103) [13778*]:
    → "Airships are fine and all, but I'd rather fly through the sky like a bird."
198: 0x06AF [0x23] WAIT_FOR_DIALOG_INTERACTION
199: 0x06B0 [0x66] LOAD_EXT_SCHEDULER_MAIN: Load scheduler "tlk1" with entities [Jeridade (ID: 17776899/0x010F4103), Jeridade (ID: 17776899/0x010F4103)], work=9*
200: 0x06BF [0x53] WAIT_SCHEDULER_TASK: Wait for scheduler "tlk1" with entities [Jeridade (ID: 17776899/0x010F4103), Jeridade (ID: 17776899/0x010F4103)]
201: 0x06CC [0x66] LOAD_EXT_SCHEDULER_MAIN: Load scheduler "thk0" with entities [Jeridade (ID: 17776899/0x010F4103), Jeridade (ID: 17776899/0x010F4103)], work=149*
202: 0x06DB [0x2B] Jeridade (ID: 17776899/0x010F4103) [13779*]:
    → "I suppose I've got no choice but to make something myself. It'll be a mount that is so stable even I'll be able to ride it!"
203: 0x06E2 [0x23] WAIT_FOR_DIALOG_INTERACTION
204: 0x06E3 [0x66] LOAD_EXT_SCHEDULER_MAIN: Load scheduler "thk1" with entities [Jeridade (ID: 17776899/0x010F4103), Jeridade (ID: 17776899/0x010F4103)], work=149*
205: 0x06F2 [0x53] WAIT_SCHEDULER_TASK: Wait for scheduler "thk1" with entities [Jeridade (ID: 17776899/0x010F4103), Jeridade (ID: 17776899/0x010F4103)]
206: 0x06FF [0x2B] Jeridade (ID: 17776899/0x010F4103) [13780*]:
    → "Okay, I just need to sneak into the Grand Duke Palace and borrow a set of airship blueprints."
207: 0x0706 [0x23] WAIT_FOR_DIALOG_INTERACTION
208: 0x0707 [0x52] END_LOAD_SCHEDULER: End scheduler "s013" with entities [EventEntity, EventEntity], work=820*
209: 0x0716 [0x45] LOAD_SCHEDULED_TASK: Load scheduler "s002" with entities [EventEntity, EventEntity], work=[820*, 0*]
210: 0x0727 [0x4A] Jeridade (ID: 17776899/0x010F4103) looks at LocalPlayer
211: 0x0730 [0x4A] Mapitoto (ID: 17776896/0x010F4100) looks at LocalPlayer
212: 0x0739 [0x4A] LocalPlayer looks at Jeridade (ID: 17776899/0x010F4103)
213: 0x0742 [0x6F] WAIT_FRAME_DELAY: Yield until WaitTime reaches zero
214: 0x0743 [0x76] CHECK_ENTITY_RENDER_FLAGS: Wait until Jeridade (ID: 17776899/0x010F4103) Render.Flags0 and Render.Flags3 conditions are met
215: 0x0748 [0x66] LOAD_EXT_SCHEDULER_MAIN: Load scheduler "tlk0" with entities [Jeridade (ID: 17776899/0x010F4103), Jeridade (ID: 17776899/0x010F4103)], work=9*
216: 0x0757 [0x2B] Jeridade (ID: 17776899/0x010F4103) [13781*]:
    → "Hey, you'll help me, won't you?"
217: 0x075E [0x23] WAIT_FOR_DIALOG_INTERACTION
218: 0x075F [0x66] LOAD_EXT_SCHEDULER_MAIN: Load scheduler "tlk1" with entities [Jeridade (ID: 17776899/0x010F4103), Jeridade (ID: 17776899/0x010F4103)], work=9*
219: 0x076E [0x45] LOAD_SCHEDULED_TASK: Load scheduler "s011" with entities [EventEntity, EventEntity], work=[820*, 0*]
220: 0x077F [0x4A] Mapitoto (ID: 17776896/0x010F4100) looks at Jeridade (ID: 17776899/0x010F4103)
221: 0x0788 [0x4A] Jeridade (ID: 17776899/0x010F4103) looks at Mapitoto (ID: 17776896/0x010F4100)
222: 0x0791 [0x4A] LocalPlayer looks at Mapitoto (ID: 17776896/0x010F4100)
223: 0x079A [0x2B] Mapitoto (ID: 17776896/0x010F4100) [13782*]:
    → "W-wait just a momentaru!"
224: 0x07A1 [0x23] WAIT_FOR_DIALOG_INTERACTION
225: 0x07A2 [0x66] LOAD_EXT_SCHEDULER_MAIN: Load scheduler "tlk0" with entities [Jeridade (ID: 17776899/0x010F4103), Jeridade (ID: 17776899/0x010F4103)], work=9*
226: 0x07B1 [0x2B] Jeridade (ID: 17776899/0x010F4103) [13783*]:
    → "I'm just joking. The blueprints won't do me any good without some kind of engine. That's the one thing that I can't make by myself."
227: 0x07B8 [0x23] WAIT_FOR_DIALOG_INTERACTION
228: 0x07B9 [0x66] LOAD_EXT_SCHEDULER_MAIN: Load scheduler "tlk1" with entities [Jeridade (ID: 17776899/0x010F4103), Jeridade (ID: 17776899/0x010F4103)], work=9*
229: 0x07C8 [0x45] LOAD_SCHEDULED_TASK: Load scheduler "s014" with entities [EventEntity, EventEntity], work=[820*, 0*]
230: 0x07D9 [0x4A] LocalPlayer looks at Jeridade (ID: 17776899/0x010F4103)
231: 0x07E2 [0x2B] Jeridade (ID: 17776899/0x010F4103) [13784*]:
    → "Hm... I wonder if there's anything out there that could help me build my own engine..."
232: 0x07E9 [0x23] WAIT_FOR_DIALOG_INTERACTION
233: 0x07EA [0x45] LOAD_SCHEDULED_TASK: Load scheduler "s015" with entities [EventEntity, EventEntity], work=[820*, 0*]
234: 0x07FB [0x4A] Jeridade (ID: 17776899/0x010F4103) looks at LocalPlayer
235: 0x0804 [0x4A] Mapitoto (ID: 17776896/0x010F4100) looks at LocalPlayer
236: 0x080D [0x2B] Jeridade (ID: 17776899/0x010F4103) [13785*]:
    → "Maybe it's up above the sky? Or perhaps..."
237: 0x0814 [0x23] WAIT_FOR_DIALOG_INTERACTION
238: 0x0815 [0x27] REQ_SET(priority=0x10, entity_id=Jeridade (ID: 17776899/0x010F4103), tag_num=0x07)
239: 0x081C [0x1C] WAIT(60* ticks)
240: 0x081F [0x4A] Mapitoto (ID: 17776896/0x010F4100) looks at Jeridade (ID: 17776899/0x010F4103)
241: 0x0828 [0x4A] LocalPlayer looks at Jeridade (ID: 17776899/0x010F4103)
242: 0x0831 [0x2B] Mapitoto (ID: 17776896/0x010F4100) [13786*]:
    → "Get back to fixing-wixing that stethoscope already!"
243: 0x0838 [0x23] WAIT_FOR_DIALOG_INTERACTION
244: 0x0839 [0x1C] WAIT(60* ticks)
245: 0x083C [0x4A] Mapitoto (ID: 17776896/0x010F4100) looks at LocalPlayer
246: 0x0845 [0x4A] LocalPlayer looks at Mapitoto (ID: 17776896/0x010F4100)
247: 0x084E [0x29] REQ_SET_WAIT(priority=0x10, entity_id=Mapitoto (ID: 17776896/0x010F4100), tag_num=0x0D)
248: 0x0855 [0x2B] Mapitoto (ID: 17776896/0x010F4100) [13787*]:
    → "I know how he seems, but Jeridade is quite capable-wapable and super smart too, so I imagine if he had the materials, he could probably make a flying mount."
249: 0x085C [0x23] WAIT_FOR_DIALOG_INTERACTION
250: 0x085D [0x4E] SET_ENTITY_HIDE_FLAG: Hide Jeridade (ID: 17776899/0x010F4103)
251: 0x0863 [0x45] LOAD_SCHEDULED_TASK: Load scheduler "s016" with entities [EventEntity, EventEntity], work=[820*, 0*]
252: 0x0874 [0x66] LOAD_EXT_SCHEDULER_MAIN: Load scheduler "tlk0" with entities [Mapitoto (ID: 17776896/0x010F4100), Mapitoto (ID: 17776896/0x010F4100)], work=49*
253: 0x0883 [0x2B] Mapitoto (ID: 17776896/0x010F4100) [13788*]:
    → "It's all because of Jeridade that we can summon magic pots and warmachines."
254: 0x088A [0x23] WAIT_FOR_DIALOG_INTERACTION
255: 0x088B [0x2B] Mapitoto (ID: 17776896/0x010F4100) [13789*]:
    → "I imagine it'll be quite difficultaru, but if you find any information that might help him, can you please let him know?"
256: 0x0892 [0x23] WAIT_FOR_DIALOG_INTERACTION
257: 0x0893 [0x66] LOAD_EXT_SCHEDULER_MAIN: Load scheduler "tlk1" with entities [Mapitoto (ID: 17776896/0x010F4100), Mapitoto (ID: 17776896/0x010F4100)], work=49*
258: 0x08A2 [0x53] WAIT_SCHEDULER_TASK: Wait for scheduler "tlk1" with entities [Mapitoto (ID: 17776896/0x010F4100), Mapitoto (ID: 17776896/0x010F4100)]
259: 0x08AF [0x52] END_LOAD_SCHEDULER: End scheduler "s016" with entities [EventEntity, EventEntity], work=820*
260: 0x08BE [0x45] LOAD_SCHEDULED_TASK: Load scheduler "s015" with entities [EventEntity, EventEntity], work=[820*, 0*]
261: 0x08CF [0x6E] Mapitoto (ID: 17776896/0x010F4100) uses emote 36*
262: 0x08D6 [0x99] Wait for Mapitoto (ID: 17776896/0x010F4100) animation to complete
263: 0x08DB [0x2B] Mapitoto (ID: 17776896/0x010F4100) [13790*]:
    → "Oh, remember that I always welcome any astral notebooks-wotebooks that you might find!"
264: 0x08E2 [0x23] WAIT_FOR_DIALOG_INTERACTION
265: 0x08E3 [0x1A] CALL_SUBROUTINE(address=0x1CD0)
266: 0x08E6 [0x52] END_LOAD_SCHEDULER: End scheduler "s015" with entities [EventEntity, EventEntity], work=820*
267: 0x08F5 [0x1C] WAIT(60* ticks)
268: 0x08F8 [0xBA] SET_ENTITY_POSITION(entity_id=Mapitoto (ID: 17776896/0x010F4100), pos_x=-54.310*, pos_z=85.940*, pos_y=8.200*, direction=242.7°*)
269: 0x0905 [0x46] CAMERA_CONTROL: Restore default settings
270: 0x0907 [0x45] LOAD_SCHEDULED_TASK: Load scheduler "fdi2" with entities [LocalPlayer, LocalPlayer], work=[200*, 0*]
271: 0x0918 [0x21] END_EVENT
272: 0x0919 [0x00] END_REQSTACK()
```

### Event 10232

#### Metadata

| Field        | Value      |
|--------------|------------|
| Entrypoint   | 0x091A     |
| Data Size    | 1454 bytes |
| Instructions | 197        |

```
      00 01 02 03 04 05 06 07  08 09 0A 0B 0C 0D 0E 0F
      -- -- -- -- -- -- -- --  -- -- -- -- -- -- -- --
0910:                                42 1A D0 1C 46 01            B...F.
0920: 38 00 80 92 01 00 41 0F  01 92 01 03 41 0F 01 2F  8.....A.....A../
0930: 00 03 41 0F 01 2F 00 04  41 0F 01 4E 00 04 41 0F  ..A../..A..N..A.
0940: 01 92 01 09 40 0F 01 92  01 0A 40 0F 01 92 01 0B  ....@.....@.....
0950: 40 0F 01 92 01 0D 40 0F  01 92 01 0E 40 0F 01 92  @.....@.....@...
0960: 01 0C 40 0F 01 92 01 30  40 0F 01 92 01 5C 40 0F  ..@....0@....\@.
0970: 01 92 01 5D 40 0F 01 92  01 60 40 0F 01 92 01 B5  ...]@....`@.....
0980: 40 0F 01 92 01 04 41 0F  01 BA 04 41 0F 01 45 80  @.....A....A..E.
0990: 46 80 07 80 0B 80 BA 00  41 0F 01 47 80 48 80 03  F.......A..G.H..
09A0: 80 49 80 BA F0 FF FF 7F  4A 80 4B 80 07 80 0B 80  .I......J.K.....
09B0: 4A F0 FF FF 7F 04 41 0F  01 2C 04 41 0F 01 04 41  J.....A..,.A...A
09C0: 0F 01 73 70 66 66 53 04  41 0F 01 04 41 0F 01 73  ..spffS.A...A..s
09D0: 70 66 66 2C 04 41 0F 01  04 41 0F 01 73 70 30 30  pff,.A...A..sp00
09E0: D8 01 04 41 0F 01 0B 80  D8 02 04 41 0F 01 4C 80  ...A.......A..L.
09F0: D8 03 04 41 0F 01 4D 80  1C 09 80 45 0A 80 F8 FF  ...A..M....E....
0A00: FF 7F F8 FF FF 7F 73 30  33 30 0B 80 1A AF 1C 6E  ......s030.....n
0A10: 00 41 0F 01 0B 80 99 00  41 0F 01 2B 00 41 0F 01  .A......A..+.A..
0A20: 4E 80 23 52 0A 80 F8 FF  FF 7F F8 FF FF 7F 73 30  N.#R..........s0
0A30: 33 30 45 0A 80 F8 FF FF  7F F8 FF FF 7F 73 30 33  30E..........s03
0A40: 31 0B 80 03 16 17 1E 80  2B 00 41 0F 01 4F 80 23  1.......+.A..O.#
0A50: 52 0A 80 F8 FF FF 7F F8  FF FF 7F 73 30 33 31 45  R..........s031E
0A60: 44 80 F0 FF FF 7F F0 FF  FF 7F 62 6C 6F 66 0B 80  D.........blof..
0A70: 45 0A 80 F8 FF FF 7F F8  FF FF 7F 73 30 33 32 0B  E..........s032.
0A80: 80 4A 00 41 0F 01 F0 FF  FF 7F 4A F0 FF FF 7F 00  .J.A......J.....
0A90: 41 0F 01 2B 00 41 0F 01  50 80 23 BA 03 41 0F 01  A..+.A..P.#..A..
0AA0: 51 80 52 80 03 80 53 80  4E 00 03 41 0F 01 2B 03  Q.R...S.N..A..+.
0AB0: 41 0F 01 54 80 23 4A F0  FF FF 7F 03 41 0F 01 4A  A..T.#J.....A..J
0AC0: 00 41 0F 01 03 41 0F 01  1C 3B 80 5C 00 0B 80 5C  .A...A...;.\...\
0AD0: 01 0B 80 9A 45 0A 80 F8  FF FF 7F F8 FF FF 7F 73  ....E..........s
0AE0: 30 33 33 0B 80 1C 3B 80  5C 00 55 80 5C 01 55 80  033...;.\.U.\.U.
0AF0: 9A 27 10 03 41 0F 01 08  45 0A 80 F8 FF FF 7F F8  .'..A...E.......
0B00: FF FF 7F 73 30 33 34 0B  80 1C 09 80 4A 00 41 0F  ...s034.....J.A.
0B10: 01 03 41 0F 01 1C 0E 80  6E 03 41 0F 01 56 80 99  ..A.....n.A..V..
0B20: 03 41 0F 01 2B 03 41 0F  01 57 80 23 4A F0 FF FF  .A..+.A..W.#J...
0B30: 7F 00 41 0F 01 4A 00 41  0F 01 F0 FF FF 7F 03 04  ..A..J.A........
0B40: 00 87 7F 1A F1 1C 66 05  00 F0 FF FF 7F F0 FF FF  ......f.........
0B50: 7F 74 6C 6B 30 53 F0 FF  FF 7F F0 FF FF 7F 74 6C  .tlk0S........tl
0B60: 6B 30 66 05 00 F0 FF FF  7F F0 FF FF 7F 74 6C 6B  k0f..........tlk
0B70: 31 2B 00 41 0F 01 58 80  23 4A 03 41 0F 01 F0 FF  1+.A..X.#J.A....
0B80: FF 7F 6F 76 03 41 0F 01  2B 03 41 0F 01 59 80 23  ..ov.A..+.A..Y.#
0B90: 45 0A 80 F8 FF FF 7F F8  FF FF 7F 73 30 33 35 0B  E..........s035.
0BA0: 80 29 10 03 41 0F 01 09  4A F0 FF FF 7F 03 41 0F  .)..A...J.....A.
0BB0: 01 4A 00 41 0F 01 03 41  0F 01 4A 03 41 0F 01 04  .J.A...A..J.A...
0BC0: 41 0F 01 6F 76 03 41 0F  01 4B 03 41 0F 01 5A 80  A..ov.A..K.A..Z.
0BD0: 6F 76 03 41 0F 01 66 23  80 03 41 0F 01 03 41 0F  ov.A..f#..A...A.
0BE0: 01 73 68 61 30 2B 03 41  0F 01 5B 80 23 66 23 80  .sha0+.A..[.#f#.
0BF0: 03 41 0F 01 03 41 0F 01  73 69 72 30 2B 03 41 0F  .A...A..sir0+.A.
0C00: 01 5C 80 23 66 23 80 03  41 0F 01 03 41 0F 01 73  .\.#f#..A...A..s
0C10: 69 72 31 53 03 41 0F 01  03 41 0F 01 73 69 72 31  ir1S.A...A..sir1
0C20: 66 23 80 03 41 0F 01 03  41 0F 01 73 68 61 31 53  f#..A...A..sha1S
0C30: 03 41 0F 01 03 41 0F 01  73 68 61 31 66 33 80 03  .A...A..sha1f3..
0C40: 41 0F 01 03 41 0F 01 74  68 6B 30 2B 03 41 0F 01  A...A..thk0+.A..
0C50: 5D 80 23 66 2A 80 00 41  0F 01 00 41 0F 01 74 6C  ].#f*..A...A..tl
0C60: 6B 30 2B 00 41 0F 01 5E  80 23 66 2A 80 00 41 0F  k0+.A..^.#f*..A.
0C70: 01 00 41 0F 01 74 6C 6B  31 66 33 80 03 41 0F 01  ..A..tlk1f3..A..
0C80: 03 41 0F 01 74 68 6B 31  45 0A 80 F8 FF FF 7F F8  .A..thk1E.......
0C90: FF FF 7F 73 30 33 36 0B  80 2B 03 41 0F 01 5F 80  ...s036..+.A.._.
0CA0: 23 4A 03 41 0F 01 00 41  0F 01 2B 03 41 0F 01 60  #J.A...A..+.A..`
0CB0: 80 23 45 0A 80 F8 FF FF  7F F8 FF FF 7F 73 30 33  .#E..........s03
0CC0: 37 0B 80 6E 00 41 0F 01  61 80 99 00 41 0F 01 2B  7..n.A..a...A..+
0CD0: 00 41 0F 01 62 80 23 45  0A 80 F8 FF FF 7F F8 FF  .A..b.#E........
0CE0: FF 7F 73 30 33 38 0B 80  7B 03 41 0F 01 66 23 80  ..s038..{.A..f#.
0CF0: 03 41 0F 01 03 41 0F 01  74 6C 6B 30 2B 03 41 0F  .A...A..tlk0+.A.
0D00: 01 63 80 23 66 23 80 03  41 0F 01 03 41 0F 01 74  .c.#f#..A...A..t
0D10: 6C 6B 31 53 03 41 0F 01  03 41 0F 01 74 6C 6B 31  lk1S.A...A..tlk1
0D20: 6E 03 41 0F 01 16 80 99  03 41 0F 01 2B 03 41 0F  n.A......A..+.A.
0D30: 01 64 80 23 59 06 03 41  0F 01 52 0A 80 F8 FF FF  .d.#Y..A..R.....
0D40: 7F F8 FF FF 7F 73 30 33  38 45 0A 80 F8 FF FF 7F  .....s038E......
0D50: F8 FF FF 7F 73 30 33 36  0B 80 4A 03 41 0F 01 F0  ....s036..J.A...
0D60: FF FF 7F 6F 76 03 41 0F  01 66 23 80 03 41 0F 01  ...ov.A..f#..A..
0D70: 03 41 0F 01 74 6C 6B 30  2B 03 41 0F 01 65 80 23  .A..tlk0+.A..e.#
0D80: 66 23 80 03 41 0F 01 03  41 0F 01 74 6C 6B 31 53  f#..A...A..tlk1S
0D90: 03 41 0F 01 03 41 0F 01  74 6C 6B 31 2B 03 41 0F  .A...A..tlk1+.A.
0DA0: 01 66 80 23 29 10 03 41  0F 01 0A 6E 00 41 0F 01  .f.#)..A...n.A..
0DB0: 67 80 99 00 41 0F 01 2B  00 41 0F 01 68 80 23 4A  g...A..+.A..h.#J
0DC0: 03 41 0F 01 00 41 0F 01  6F 76 03 41 0F 01 2B 03  .A...A..ov.A..+.
0DD0: 41 0F 01 69 80 23 27 10  03 41 0F 01 0B 4A 03 41  A..i.#'..A...J.A
0DE0: 0F 01 F0 FF FF 7F 66 23  80 03 41 0F 01 03 41 0F  ......f#..A...A.
0DF0: 01 74 6C 6B 30 2B 03 41  0F 01 6A 80 23 66 23 80  .tlk0+.A..j.#f#.
0E00: 03 41 0F 01 03 41 0F 01  74 6C 6B 31 2B 03 41 0F  .A...A..tlk1+.A.
0E10: 01 6B 80 23 6E 03 41 0F  01 1A 80 99 03 41 0F 01  .k.#n.A......A..
0E20: 2B 03 41 0F 01 6C 80 23  27 10 03 41 0F 01 0C 1C  +.A..l.#'..A....
0E30: 3B 80 5C 00 6D 80 5C 01  6D 80 9A 45 0A 80 F8 FF  ;.\.m.\.m..E....
0E40: FF 7F F8 FF FF 7F 73 30  33 39 0B 80 4E 01 03 41  ......s039..N..A
0E50: 0F 01 4A F0 FF FF 7F 00  41 0F 01 4A 00 41 0F 01  ..J.....A..J.A..
0E60: F0 FF FF 7F 66 2A 80 00  41 0F 01 00 41 0F 01 74  ....f*..A...A..t
0E70: 6C 6B 30 2B 00 41 0F 01  6E 80 23 2B 00 41 0F 01  lk0+.A..n.#+.A..
0E80: 6F 80 23 66 2A 80 00 41  0F 01 00 41 0F 01 74 6C  o.#f*..A...A..tl
0E90: 6B 31 1A D0 1C 52 0A 80  F8 FF FF 7F F8 FF FF 7F  k1...R..........
0EA0: 73 30 33 39 1C 3B 80 4E  01 03 41 0F 01 4E 01 04  s039.;.N..A..N..
0EB0: 41 0F 01 46 00 45 44 80  F0 FF FF 7F F0 FF FF 7F  A..F.ED.........
0EC0: 66 64 69 32 0B 80 21 00                           fdi2..!.        
```

#### Opcodes

```
  0: 0x091A [0x42] SET_CLI_EVENT_CANCEL_DATA()
  1: 0x091B [0x1A] CALL_SUBROUTINE(address=0x1CD0)
  2: 0x091E [0x46] CAMERA_CONTROL: Disable user control
  3: 0x0920 [0x38] SET_CLIENT_EVENT_MODE(mode=19*)
  4: 0x0923 [0x92] Mapitoto (ID: 17776896/0x010F4100)->Render.Flags3 ^= 0x01
  5: 0x0929 [0x92] Jeridade (ID: 17776899/0x010F4103)->Render.Flags3 ^= 0x01
  6: 0x092F [0x2F] Jeridade (ID: 17776899/0x010F4103)->Render.Flags0 &= ~0x80000 // Bit 19
  7: 0x0935 [0x2F] Unnamed NPC (ID: 17776900/0x010F4104)->Render.Flags0 &= ~0x80000 // Bit 19
  8: 0x093B [0x4E] SET_ENTITY_HIDE_FLAG: Show Unnamed NPC (ID: 17776900/0x010F4104)
  9: 0x0941 [0x92] Chocobo (ID: 17776649/0x010F4009)->Render.Flags3 ^= 0x01
 10: 0x0947 [0x92] Chocobo (ID: 17776650/0x010F400A)->Render.Flags3 ^= 0x01
 11: 0x094D [0x92] Chocobo (ID: 17776651/0x010F400B)->Render.Flags3 ^= 0x01
 12: 0x0953 [0x92] Osker (ID: 17776653/0x010F400D)->Render.Flags3 ^= 0x01
 13: 0x0959 [0x92] Shalott (ID: 17776654/0x010F400E)->Render.Flags3 ^= 0x01
 14: 0x095F [0x92] Brutus (ID: 17776652/0x010F400C)->Render.Flags3 ^= 0x01
 15: 0x0965 [0x92] Silver Tail (ID: 17776688/0x010F4030)->Render.Flags3 ^= 0x01
 16: 0x096B [0x92] Indika (ID: 17776732/0x010F405C)->Render.Flags3 ^= 0x01
 17: 0x0971 [0x92] Ulesa (ID: 17776733/0x010F405D)->Render.Flags3 ^= 0x01
 18: 0x0977 [0x92] Kasra (ID: 17776736/0x010F4060)->Render.Flags3 ^= 0x01
 19: 0x097D [0x92] Finbarr (ID: 17776821/0x010F40B5)->Render.Flags3 ^= 0x01
 20: 0x0983 [0x92] Unnamed NPC (ID: 17776900/0x010F4104)->Render.Flags3 ^= 0x01
 21: 0x0989 [0xBA] SET_ENTITY_POSITION(entity_id=Unnamed NPC (ID: 17776900/0x010F4104), pos_x=-54.330*, pos_z=91.210*, pos_y=8.000*, direction=0.0°*)
 22: 0x0996 [0xBA] SET_ENTITY_POSITION(entity_id=Mapitoto (ID: 17776896/0x010F4100), pos_x=-53.800*, pos_z=88.160*, pos_y=8.200*, direction=235.3°*)
 23: 0x09A3 [0xBA] SET_ENTITY_POSITION(entity_id=LocalPlayer, pos_x=-55.580*, pos_z=86.960*, pos_y=8.000*, direction=0.0°*)
 24: 0x09B0 [0x4A] LocalPlayer looks at Unnamed NPC (ID: 17776900/0x010F4104)
 25: 0x09B9 [0x2C] CREATE_SCHEDULER_TASK: Create scheduler "spff" with entities [Unnamed NPC (ID: 17776900/0x010F4104), Unnamed NPC (ID: 17776900/0x010F4104)]
 26: 0x09C6 [0x53] WAIT_SCHEDULER_TASK: Wait for scheduler "spff" with entities [Unnamed NPC (ID: 17776900/0x010F4104), Unnamed NPC (ID: 17776900/0x010F4104)]
 27: 0x09D3 [0x2C] CREATE_SCHEDULER_TASK: Create scheduler "sp00" with entities [Unnamed NPC (ID: 17776900/0x010F4104), Unnamed NPC (ID: 17776900/0x010F4104)]
 28: 0x09E0 [0xD8] SET_ENTITY_EVENT_DIR: Set Unnamed NPC (ID: 17776900/0x010F4104) EventDir[0] = 0*
 29: 0x09E8 [0xD8] SET_ENTITY_EVENT_DIR: Set Unnamed NPC (ID: 17776900/0x010F4104) EventDir[1] = 1760*
 30: 0x09F0 [0xD8] SET_ENTITY_EVENT_DIR: Set Unnamed NPC (ID: 17776900/0x010F4104) EventDir[2] = 830*
 31: 0x09F8 [0x1C] WAIT(120* ticks)
 32: 0x09FB [0x45] LOAD_SCHEDULED_TASK: Load scheduler "s030" with entities [EventEntity, EventEntity], work=[820*, 0*]
 33: 0x0A0C [0x1A] CALL_SUBROUTINE(address=0x1CAF)
 34: 0x0A0F [0x6E] Mapitoto (ID: 17776896/0x010F4100) uses emote 0*
 35: 0x0A16 [0x99] Wait for Mapitoto (ID: 17776896/0x010F4100) animation to complete
 36: 0x0A1B [0x2B] Mapitoto (ID: 17776896/0x010F4100) [13791*]:
    → "Hey, that looks-wooks like an astral notebook!"
 37: 0x0A22 [0x23] WAIT_FOR_DIALOG_INTERACTION
 38: 0x0A23 [0x52] END_LOAD_SCHEDULER: End scheduler "s030" with entities [EventEntity, EventEntity], work=820*
 39: 0x0A32 [0x45] LOAD_SCHEDULED_TASK: Load scheduler "s031" with entities [EventEntity, EventEntity], work=[820*, 0*]
 40: 0x0A43 [0x03] Work_Zone_1700[22] = 36*
 41: 0x0A48 [0x2B] Mapitoto (ID: 17776896/0x010F4100) [13792*]:
    → "Or maybe not!$30"
 42: 0x0A4F [0x23] WAIT_FOR_DIALOG_INTERACTION
 43: 0x0A50 [0x52] END_LOAD_SCHEDULER: End scheduler "s031" with entities [EventEntity, EventEntity], work=820*
 44: 0x0A5F [0x45] LOAD_SCHEDULED_TASK: Load scheduler "blof" with entities [LocalPlayer, LocalPlayer], work=[200*, 0*]
 45: 0x0A70 [0x45] LOAD_SCHEDULED_TASK: Load scheduler "s032" with entities [EventEntity, EventEntity], work=[820*, 0*]
 46: 0x0A81 [0x4A] Mapitoto (ID: 17776896/0x010F4100) looks at LocalPlayer
 47: 0x0A8A [0x4A] LocalPlayer looks at Mapitoto (ID: 17776896/0x010F4100)
 48: 0x0A93 [0x2B] Mapitoto (ID: 17776896/0x010F4100) [13793*]:
    → "Wait a momentaru, could this be..."
 49: 0x0A9A [0x23] WAIT_FOR_DIALOG_INTERACTION
 50: 0x0A9B [0xBA] SET_ENTITY_POSITION(entity_id=Jeridade (ID: 17776899/0x010F4103), pos_x=-50.150*, pos_z=94.940*, pos_y=8.200*, direction=130.8°*)
 51: 0x0AA8 [0x4E] SET_ENTITY_HIDE_FLAG: Show Jeridade (ID: 17776899/0x010F4103)
 52: 0x0AAE [0x2B] Jeridade (ID: 17776899/0x010F4103) [13794*]:
    → "Whoa! What is this!?"
 53: 0x0AB5 [0x23] WAIT_FOR_DIALOG_INTERACTION
 54: 0x0AB6 [0x4A] LocalPlayer looks at Jeridade (ID: 17776899/0x010F4103)
 55: 0x0ABF [0x4A] Mapitoto (ID: 17776896/0x010F4100) looks at Jeridade (ID: 17776899/0x010F4103)
 56: 0x0AC8 [0x1C] WAIT(60* ticks)
 57: 0x0ACB [0x5C] MUSIC_CONTROL: Set Idle (Day) music to song 0*
 58: 0x0ACF [0x5C] MUSIC_CONTROL: Set Idle (Night) music to song 0*
 59: 0x0AD3 [0x9A] WAIT_MUSIC_SERVER()
 60: 0x0AD4 [0x45] LOAD_SCHEDULED_TASK: Load scheduler "s033" with entities [EventEntity, EventEntity], work=[820*, 0*]
 61: 0x0AE5 [0x1C] WAIT(60* ticks)
 62: 0x0AE8 [0x5C] MUSIC_CONTROL: Set Idle (Day) music to song 163*
 63: 0x0AEC [0x5C] MUSIC_CONTROL: Set Idle (Night) music to song 163*
 64: 0x0AF0 [0x9A] WAIT_MUSIC_SERVER()
 65: 0x0AF1 [0x27] REQ_SET(priority=0x10, entity_id=Jeridade (ID: 17776899/0x010F4103), tag_num=0x08)
 66: 0x0AF8 [0x45] LOAD_SCHEDULED_TASK: Load scheduler "s034" with entities [EventEntity, EventEntity], work=[820*, 0*]
 67: 0x0B09 [0x1C] WAIT(120* ticks)
 68: 0x0B0C [0x4A] Mapitoto (ID: 17776896/0x010F4100) looks at Jeridade (ID: 17776899/0x010F4103)
 69: 0x0B15 [0x1C] WAIT(30* ticks)
 70: 0x0B18 [0x6E] Jeridade (ID: 17776899/0x010F4103) uses emote 11*
 71: 0x0B1F [0x99] Wait for Jeridade (ID: 17776899/0x010F4103) animation to complete
 72: 0x0B24 [0x2B] Jeridade (ID: 17776899/0x010F4103) [13795*]:
    → "This thing really fires up my engineering spirit!"
 73: 0x0B2B [0x23] WAIT_FOR_DIALOG_INTERACTION
 74: 0x0B2C [0x4A] LocalPlayer looks at Mapitoto (ID: 17776896/0x010F4100)
 75: 0x0B35 [0x4A] Mapitoto (ID: 17776896/0x010F4100) looks at LocalPlayer
 76: 0x0B3E [0x03] ExtData[1]->WorkLocal[4] = LocalPlayer->Race
 77: 0x0B43 [0x1A] CALL_SUBROUTINE(address=0x1CF1)
 78: 0x0B46 [0x66] LOAD_EXT_SCHEDULER_MAIN: Load scheduler "tlk0" with entities [LocalPlayer, LocalPlayer], work=ExtData[1]->WorkLocal[5]
 79: 0x0B55 [0x53] WAIT_SCHEDULER_TASK: Wait for scheduler "tlk0" with entities [LocalPlayer, LocalPlayer]
 80: 0x0B62 [0x66] LOAD_EXT_SCHEDULER_MAIN: Load scheduler "tlk1" with entities [LocalPlayer, LocalPlayer], work=ExtData[1]->WorkLocal[5]
 81: 0x0B71 [0x2B] Mapitoto (ID: 17776896/0x010F4100) [13796*]:
    → "Hm? Did this thing really fly with humans riding-widing it?"
 82: 0x0B78 [0x23] WAIT_FOR_DIALOG_INTERACTION
 83: 0x0B79 [0x4A] Jeridade (ID: 17776899/0x010F4103) looks at LocalPlayer
 84: 0x0B82 [0x6F] WAIT_FRAME_DELAY: Yield until WaitTime reaches zero
 85: 0x0B83 [0x76] CHECK_ENTITY_RENDER_FLAGS: Wait until Jeridade (ID: 17776899/0x010F4103) Render.Flags0 and Render.Flags3 conditions are met
 86: 0x0B88 [0x2B] Jeridade (ID: 17776899/0x010F4103) [13797*]:
    → "Really!? I've got to repair it right away!"
 87: 0x0B8F [0x23] WAIT_FOR_DIALOG_INTERACTION
 88: 0x0B90 [0x45] LOAD_SCHEDULED_TASK: Load scheduler "s035" with entities [EventEntity, EventEntity], work=[820*, 0*]
 89: 0x0BA1 [0x29] REQ_SET_WAIT(priority=0x10, entity_id=Jeridade (ID: 17776899/0x010F4103), tag_num=0x09)
 90: 0x0BA8 [0x4A] LocalPlayer looks at Jeridade (ID: 17776899/0x010F4103)
 91: 0x0BB1 [0x4A] Mapitoto (ID: 17776896/0x010F4100) looks at Jeridade (ID: 17776899/0x010F4103)
 92: 0x0BBA [0x4A] Jeridade (ID: 17776899/0x010F4103) looks at Unnamed NPC (ID: 17776900/0x010F4104)
 93: 0x0BC3 [0x6F] WAIT_FRAME_DELAY: Yield until WaitTime reaches zero
 94: 0x0BC4 [0x76] CHECK_ENTITY_RENDER_FLAGS: Wait until Jeridade (ID: 17776899/0x010F4103) Render.Flags0 and Render.Flags3 conditions are met
 95: 0x0BC9 [0x4B] UPDATE_ENTITY_YAW(entity=Jeridade (ID: 17776899/0x010F4103), yaw=16.7°*)
 96: 0x0BD0 [0x6F] WAIT_FRAME_DELAY: Yield until WaitTime reaches zero
 97: 0x0BD1 [0x76] CHECK_ENTITY_RENDER_FLAGS: Wait until Jeridade (ID: 17776899/0x010F4103) Render.Flags0 and Render.Flags3 conditions are met
 98: 0x0BD6 [0x66] LOAD_EXT_SCHEDULER_MAIN: Load scheduler "sha0" with entities [Jeridade (ID: 17776899/0x010F4103), Jeridade (ID: 17776899/0x010F4103)], work=9*
 99: 0x0BE5 [0x2B] Jeridade (ID: 17776899/0x010F4103) [13798*]:
    → "The damage to the chassis can be fixed. The problem is the engine..."
100: 0x0BEC [0x23] WAIT_FOR_DIALOG_INTERACTION
101: 0x0BED [0x66] LOAD_EXT_SCHEDULER_MAIN: Load scheduler "sir0" with entities [Jeridade (ID: 17776899/0x010F4103), Jeridade (ID: 17776899/0x010F4103)], work=9*
102: 0x0BFC [0x2B] Jeridade (ID: 17776899/0x010F4103) [13799*]:
    → "Let's see... This goes like this... Which means that this..."
103: 0x0C03 [0x23] WAIT_FOR_DIALOG_INTERACTION
104: 0x0C04 [0x66] LOAD_EXT_SCHEDULER_MAIN: Load scheduler "sir1" with entities [Jeridade (ID: 17776899/0x010F4103), Jeridade (ID: 17776899/0x010F4103)], work=9*
105: 0x0C13 [0x53] WAIT_SCHEDULER_TASK: Wait for scheduler "sir1" with entities [Jeridade (ID: 17776899/0x010F4103), Jeridade (ID: 17776899/0x010F4103)]
106: 0x0C20 [0x66] LOAD_EXT_SCHEDULER_MAIN: Load scheduler "sha1" with entities [Jeridade (ID: 17776899/0x010F4103), Jeridade (ID: 17776899/0x010F4103)], work=9*
107: 0x0C2F [0x53] WAIT_SCHEDULER_TASK: Wait for scheduler "sha1" with entities [Jeridade (ID: 17776899/0x010F4103), Jeridade (ID: 17776899/0x010F4103)]
108: 0x0C3C [0x66] LOAD_EXT_SCHEDULER_MAIN: Load scheduler "thk0" with entities [Jeridade (ID: 17776899/0x010F4103), Jeridade (ID: 17776899/0x010F4103)], work=149*
109: 0x0C4B [0x2B] Jeridade (ID: 17776899/0x010F4103) [13800*]:
    → "Hmm... Wait a moment. This here is..."
110: 0x0C52 [0x23] WAIT_FOR_DIALOG_INTERACTION
111: 0x0C53 [0x66] LOAD_EXT_SCHEDULER_MAIN: Load scheduler "tlk0" with entities [Mapitoto (ID: 17776896/0x010F4100), Mapitoto (ID: 17776896/0x010F4100)], work=49*
112: 0x0C62 [0x2B] Mapitoto (ID: 17776896/0x010F4100) [13801*]:
    → "What is it?"
113: 0x0C69 [0x23] WAIT_FOR_DIALOG_INTERACTION
114: 0x0C6A [0x66] LOAD_EXT_SCHEDULER_MAIN: Load scheduler "tlk1" with entities [Mapitoto (ID: 17776896/0x010F4100), Mapitoto (ID: 17776896/0x010F4100)], work=49*
115: 0x0C79 [0x66] LOAD_EXT_SCHEDULER_MAIN: Load scheduler "thk1" with entities [Jeridade (ID: 17776899/0x010F4103), Jeridade (ID: 17776899/0x010F4103)], work=149*
116: 0x0C88 [0x45] LOAD_SCHEDULED_TASK: Load scheduler "s036" with entities [EventEntity, EventEntity], work=[820*, 0*]
117: 0x0C99 [0x2B] Jeridade (ID: 17776899/0x010F4103) [13802*]:
    → "I feel as if I've seen this before..."
118: 0x0CA0 [0x23] WAIT_FOR_DIALOG_INTERACTION
119: 0x0CA1 [0x4A] Jeridade (ID: 17776899/0x010F4103) looks at Mapitoto (ID: 17776896/0x010F4100)
120: 0x0CAA [0x2B] Jeridade (ID: 17776899/0x010F4103) [13803*]:
    → "I know! I saw it in $7!"
121: 0x0CB1 [0x23] WAIT_FOR_DIALOG_INTERACTION
122: 0x0CB2 [0x45] LOAD_SCHEDULED_TASK: Load scheduler "s037" with entities [EventEntity, EventEntity], work=[820*, 0*]
123: 0x0CC3 [0x6E] Mapitoto (ID: 17776896/0x010F4100) uses emote 21*
124: 0x0CCA [0x99] Wait for Mapitoto (ID: 17776896/0x010F4100) animation to complete
125: 0x0CCF [0x2B] Mapitoto (ID: 17776896/0x010F4100) [13804*]:
    → "Wait! Isn't $7 that place in the north with the ruins-wuins? What were you doing there!?"
126: 0x0CD6 [0x23] WAIT_FOR_DIALOG_INTERACTION
127: 0x0CD7 [0x45] LOAD_SCHEDULED_TASK: Load scheduler "s038" with entities [EventEntity, EventEntity], work=[820*, 0*]
128: 0x0CE8 [0x7B] Jeridade (ID: 17776899/0x010F4103) stops talking
129: 0x0CED [0x66] LOAD_EXT_SCHEDULER_MAIN: Load scheduler "tlk0" with entities [Jeridade (ID: 17776899/0x010F4103), Jeridade (ID: 17776899/0x010F4103)], work=9*
130: 0x0CFC [0x2B] Jeridade (ID: 17776899/0x010F4103) [13805*]:
    → "Well, I heard a rumor from an adventurer and decided to go check it out on my day off..."
131: 0x0D03 [0x23] WAIT_FOR_DIALOG_INTERACTION
132: 0x0D04 [0x66] LOAD_EXT_SCHEDULER_MAIN: Load scheduler "tlk1" with entities [Jeridade (ID: 17776899/0x010F4103), Jeridade (ID: 17776899/0x010F4103)], work=9*
133: 0x0D13 [0x53] WAIT_SCHEDULER_TASK: Wait for scheduler "tlk1" with entities [Jeridade (ID: 17776899/0x010F4103), Jeridade (ID: 17776899/0x010F4103)]
134: 0x0D20 [0x6E] Jeridade (ID: 17776899/0x010F4103) uses emote 4*
135: 0x0D27 [0x99] Wait for Jeridade (ID: 17776899/0x010F4103) animation to complete
136: 0x0D2C [0x2B] Jeridade (ID: 17776899/0x010F4103) [13806*]:
    → "That place sure was dangerous! It was so cold that as soon as my nose started running, it froze to my face! I thought I was done for."
137: 0x0D33 [0x23] WAIT_FOR_DIALOG_INTERACTION
138: 0x0D34 [0x59] UPDATE_ENTITY_DATA: Check if Jeridade (ID: 17776899/0x010F4103) is performing moving action
139: 0x0D3A [0x52] END_LOAD_SCHEDULER: End scheduler "s038" with entities [EventEntity, EventEntity], work=820*
140: 0x0D49 [0x45] LOAD_SCHEDULED_TASK: Load scheduler "s036" with entities [EventEntity, EventEntity], work=[820*, 0*]
141: 0x0D5A [0x4A] Jeridade (ID: 17776899/0x010F4103) looks at LocalPlayer
142: 0x0D63 [0x6F] WAIT_FRAME_DELAY: Yield until WaitTime reaches zero
143: 0x0D64 [0x76] CHECK_ENTITY_RENDER_FLAGS: Wait until Jeridade (ID: 17776899/0x010F4103) Render.Flags0 and Render.Flags3 conditions are met
144: 0x0D69 [0x66] LOAD_EXT_SCHEDULER_MAIN: Load scheduler "tlk0" with entities [Jeridade (ID: 17776899/0x010F4103), Jeridade (ID: 17776899/0x010F4103)], work=9*
145: 0x0D78 [0x2B] Jeridade (ID: 17776899/0x010F4103) [13807*]:
    → "Anyways, back to this machine here! So you see, I haven't actually seen the real thing. I think it was displayed on some sort of device."
146: 0x0D7F [0x23] WAIT_FOR_DIALOG_INTERACTION
147: 0x0D80 [0x66] LOAD_EXT_SCHEDULER_MAIN: Load scheduler "tlk1" with entities [Jeridade (ID: 17776899/0x010F4103), Jeridade (ID: 17776899/0x010F4103)], work=9*
148: 0x0D8F [0x53] WAIT_SCHEDULER_TASK: Wait for scheduler "tlk1" with entities [Jeridade (ID: 17776899/0x010F4103), Jeridade (ID: 17776899/0x010F4103)]
149: 0x0D9C [0x2B] Jeridade (ID: 17776899/0x010F4103) [13808*]:
    → "Therefore, we'll need to go back to $7 to find a clue about how to get this thing working!"
150: 0x0DA3 [0x23] WAIT_FOR_DIALOG_INTERACTION
151: 0x0DA4 [0x29] REQ_SET_WAIT(priority=0x10, entity_id=Jeridade (ID: 17776899/0x010F4103), tag_num=0x0A)
152: 0x0DAB [0x6E] Mapitoto (ID: 17776896/0x010F4100) uses emote 16*
153: 0x0DB2 [0x99] Wait for Mapitoto (ID: 17776896/0x010F4100) animation to complete
154: 0x0DB7 [0x2B] Mapitoto (ID: 17776896/0x010F4100) [13809*]:
    → "Now that's enough of that! If you get yourself killed-willed, who's going to repair the stethoscope!?"
155: 0x0DBE [0x23] WAIT_FOR_DIALOG_INTERACTION
156: 0x0DBF [0x4A] Jeridade (ID: 17776899/0x010F4103) looks at Mapitoto (ID: 17776896/0x010F4100)
157: 0x0DC8 [0x6F] WAIT_FRAME_DELAY: Yield until WaitTime reaches zero
158: 0x0DC9 [0x76] CHECK_ENTITY_RENDER_FLAGS: Wait until Jeridade (ID: 17776899/0x010F4103) Render.Flags0 and Render.Flags3 conditions are met
159: 0x0DCE [0x2B] Jeridade (ID: 17776899/0x010F4103) [13810*]:
    → "Umm... Wh-when you put it like that... I don't know."
160: 0x0DD5 [0x23] WAIT_FOR_DIALOG_INTERACTION
161: 0x0DD6 [0x27] REQ_SET(priority=0x10, entity_id=Jeridade (ID: 17776899/0x010F4103), tag_num=0x0B)
162: 0x0DDD [0x4A] Jeridade (ID: 17776899/0x010F4103) looks at LocalPlayer
163: 0x0DE6 [0x66] LOAD_EXT_SCHEDULER_MAIN: Load scheduler "tlk0" with entities [Jeridade (ID: 17776899/0x010F4103), Jeridade (ID: 17776899/0x010F4103)], work=9*
164: 0x0DF5 [0x2B] Jeridade (ID: 17776899/0x010F4103) [13811*]:
    → "Oh, I got it! Maybe you could go to $7 and search for clues for me?"
165: 0x0DFC [0x23] WAIT_FOR_DIALOG_INTERACTION
166: 0x0DFD [0x66] LOAD_EXT_SCHEDULER_MAIN: Load scheduler "tlk1" with entities [Jeridade (ID: 17776899/0x010F4103), Jeridade (ID: 17776899/0x010F4103)], work=9*
167: 0x0E0C [0x2B] Jeridade (ID: 17776899/0x010F4103) [13812*]:
    → "I'll keep examining this thing here. And deal with the stethoscope too, of course..."
168: 0x0E13 [0x23] WAIT_FOR_DIALOG_INTERACTION
169: 0x0E14 [0x6E] Jeridade (ID: 17776899/0x010F4103) uses emote 8*
170: 0x0E1B [0x99] Wait for Jeridade (ID: 17776899/0x010F4103) animation to complete
171: 0x0E20 [0x2B] Jeridade (ID: 17776899/0x010F4103) [13813*]:
    → "Good luck out there!"
172: 0x0E27 [0x23] WAIT_FOR_DIALOG_INTERACTION
173: 0x0E28 [0x27] REQ_SET(priority=0x10, entity_id=Jeridade (ID: 17776899/0x010F4103), tag_num=0x0C)
174: 0x0E2F [0x1C] WAIT(60* ticks)
175: 0x0E32 [0x5C] MUSIC_CONTROL: Set Idle (Day) music to song 110*
176: 0x0E36 [0x5C] MUSIC_CONTROL: Set Idle (Night) music to song 110*
177: 0x0E3A [0x9A] WAIT_MUSIC_SERVER()
178: 0x0E3B [0x45] LOAD_SCHEDULED_TASK: Load scheduler "s039" with entities [EventEntity, EventEntity], work=[820*, 0*]
179: 0x0E4C [0x4E] SET_ENTITY_HIDE_FLAG: Hide Jeridade (ID: 17776899/0x010F4103)
180: 0x0E52 [0x4A] LocalPlayer looks at Mapitoto (ID: 17776896/0x010F4100)
181: 0x0E5B [0x4A] Mapitoto (ID: 17776896/0x010F4100) looks at LocalPlayer
182: 0x0E64 [0x66] LOAD_EXT_SCHEDULER_MAIN: Load scheduler "tlk0" with entities [Mapitoto (ID: 17776896/0x010F4100), Mapitoto (ID: 17776896/0x010F4100)], work=49*
183: 0x0E73 [0x2B] Mapitoto (ID: 17776896/0x010F4100) [13814*]:
    → "$7... I hear it's quite an unusual place, to say the leastaru. I feel there's definitely something there."
184: 0x0E7A [0x23] WAIT_FOR_DIALOG_INTERACTION
185: 0x0E7B [0x2B] Mapitoto (ID: 17776896/0x010F4100) [13815*]:
    → "Let me know if you find anything out there. Be careful that your nose-wose doesn't freeze off either."
186: 0x0E82 [0x23] WAIT_FOR_DIALOG_INTERACTION
187: 0x0E83 [0x66] LOAD_EXT_SCHEDULER_MAIN: Load scheduler "tlk1" with entities [Mapitoto (ID: 17776896/0x010F4100), Mapitoto (ID: 17776896/0x010F4100)], work=49*
188: 0x0E92 [0x1A] CALL_SUBROUTINE(address=0x1CD0)
189: 0x0E95 [0x52] END_LOAD_SCHEDULER: End scheduler "s039" with entities [EventEntity, EventEntity], work=820*
190: 0x0EA4 [0x1C] WAIT(60* ticks)
191: 0x0EA7 [0x4E] SET_ENTITY_HIDE_FLAG: Hide Jeridade (ID: 17776899/0x010F4103)
192: 0x0EAD [0x4E] SET_ENTITY_HIDE_FLAG: Hide Unnamed NPC (ID: 17776900/0x010F4104)
193: 0x0EB3 [0x46] CAMERA_CONTROL: Restore default settings
194: 0x0EB5 [0x45] LOAD_SCHEDULED_TASK: Load scheduler "fdi2" with entities [LocalPlayer, LocalPlayer], work=[200*, 0*]
195: 0x0EC6 [0x21] END_EVENT
196: 0x0EC7 [0x00] END_REQSTACK()
```

### Event 10234

#### Metadata

| Field        | Value      |
|--------------|------------|
| Entrypoint   | 0x0EC8     |
| Data Size    | 3773 bytes |
| Instructions | 432        |

```
      00 01 02 03 04 05 06 07  08 09 0A 0B 0C 0D 0E 0F
      -- -- -- -- -- -- -- --  -- -- -- -- -- -- -- --
0EC0:                          42 1A D0 1C 46 01 38 00          B...F.8.
0ED0: 80 92 01 00 41 0F 01 92  01 03 41 0F 01 2F 00 03  ....A.....A../..
0EE0: 41 0F 01 4E 00 03 41 0F  01 2F 00 05 41 0F 01 4E  A..N..A../..A..N
0EF0: 00 05 41 0F 01 2F 00 04  41 0F 01 4E 00 04 41 0F  ..A../..A..N..A.
0F00: 01 92 01 09 40 0F 01 92  01 0A 40 0F 01 92 01 0B  ....@.....@.....
0F10: 40 0F 01 92 01 0D 40 0F  01 92 01 0E 40 0F 01 92  @.....@.....@...
0F20: 01 0C 40 0F 01 92 01 30  40 0F 01 92 01 5C 40 0F  ..@....0@....\@.
0F30: 01 92 01 5D 40 0F 01 92  01 60 40 0F 01 92 01 B5  ...]@....`@.....
0F40: 40 0F 01 92 01 04 41 0F  01 92 01 05 41 0F 01 BA  @.....A.....A...
0F50: 04 41 0F 01 45 80 46 80  07 80 0B 80 BA 03 41 0F  .A..E.F.......A.
0F60: 01 70 80 71 80 03 80 0B  80 BA F0 FF FF 7F 72 80  .p.q..........r.
0F70: 73 80 03 80 0B 80 4A F0  FF FF 7F 03 41 0F 01 4A  s.....J.....A..J
0F80: 03 41 0F 01 00 41 0F 01  27 10 05 41 0F 01 03 2C  .A...A..'..A...,
0F90: 04 41 0F 01 04 41 0F 01  73 70 66 66 2C 04 41 0F  .A...A..spff,.A.
0FA0: 01 04 41 0F 01 73 70 30  30 D8 01 04 41 0F 01 0B  ..A..sp00...A...
0FB0: 80 D8 02 04 41 0F 01 4C  80 D8 03 04 41 0F 01 4D  ....A..L....A..M
0FC0: 80 1C 09 80 45 0A 80 F8  FF FF 7F F8 FF FF 7F 73  ....E..........s
0FD0: 30 34 30 0B 80 1A AF 1C  6E 00 41 0F 01 0B 80 99  040.....n.A.....
0FE0: 00 41 0F 01 2B 00 41 0F  01 74 80 23 52 0A 80 F8  .A..+.A..t.#R...
0FF0: FF FF 7F F8 FF FF 7F 73  30 34 30 45 0A 80 F8 FF  .......s040E....
1000: FF 7F F8 FF FF 7F 73 30  34 31 0B 80 4A 03 41 0F  ......s041..J.A.
1010: 01 00 41 0F 01 6F 76 03  41 0F 01 2B 03 41 0F 01  ..A..ov.A..+.A..
1020: 75 80 23 6E 00 41 0F 01  76 80 99 00 41 0F 01 4A  u.#n.A..v...A..J
1030: 03 41 0F 01 F0 FF FF 7F  2B 03 41 0F 01 77 80 23  .A......+.A..w.#
1040: 27 10 F0 FF FF 7F 99 52  0A 80 F8 FF FF 7F F8 FF  '......R........
1050: FF 7F 73 30 34 31 45 0A  80 F8 FF FF 7F F8 FF FF  ..s041E.........
1060: 7F 73 30 34 32 0B 80 1C  78 80 4A F0 FF FF 7F 03  .s042...x.J.....
1070: 41 0F 01 6F 76 F0 FF FF  7F 4A 00 41 0F 01 F0 FF  A..ov....J.A....
1080: FF 7F 6F 76 F0 FF FF 7F  03 04 00 87 7F 1A 16 1D  ..ov............
1090: 0B 05 00 66 05 00 F0 FF  FF 7F F0 FF FF 7F 70 61  ...f..........pa
10A0: 73 30 53 F0 FF FF 7F F0  FF FF 7F 70 61 73 30 6E  s0S........pas0n
10B0: 03 41 0F 01 19 80 99 03  41 0F 01 2B 03 41 0F 01  .A......A..+.A..
10C0: 79 80 23 66 23 80 03 41  0F 01 03 41 0F 01 74 6C  y.#f#..A...A..tl
10D0: 6B 30 2B 03 41 0F 01 7A  80 23 66 23 80 03 41 0F  k0+.A..z.#f#..A.
10E0: 01 03 41 0F 01 74 6C 6B  31 53 03 41 0F 01 03 41  ..A..tlk1S.A...A
10F0: 0F 01 74 6C 6B 31 52 0A  80 F8 FF FF 7F F8 FF FF  ..tlk1R.........
1100: 7F 73 30 34 32 45 0A 80  F8 FF FF 7F F8 FF FF 7F  .s042E..........
1110: 73 30 34 33 0B 80 4A F0  FF FF 7F 04 41 0F 01 4A  s043..J.....A..J
1120: 00 41 0F 01 04 41 0F 01  29 10 03 41 0F 01 0D 4A  .A...A..)..A...J
1130: 03 41 0F 01 04 41 0F 01  1C 0E 80 6E 03 41 0F 01  .A...A.....n.A..
1140: 15 80 99 03 41 0F 01 1C  0E 80 1A D0 1C BA 00 41  ....A..........A
1150: 0F 01 7B 80 7C 80 03 80  0B 80 4A 00 41 0F 01 04  ..{.|.....J.A...
1160: 41 0F 01 1C 7D 80 52 0A  80 F8 FF FF 7F F8 FF FF  A...}.R.........
1170: 7F 73 30 34 33 45 0A 80  F8 FF FF 7F F8 FF FF 7F  .s043E..........
1180: 73 30 34 34 0B 80 D8 00  04 41 0F 01 BA 04 41 0F  s044.....A....A.
1190: 01 7E 80 7F 80 80 80 81  80 4A 03 41 0F 01 04 41  .~.......J.A...A
11A0: 0F 01 2C 04 41 0F 01 04  41 0F 01 73 70 6F 6E 1C  ..,.A...A..spon.
11B0: 3B 80 1A AF 1C 29 10 03  41 0F 01 0E 55 0A 80 F8  ;....)..A...U...
11C0: FF FF 7F F8 FF FF 7F 73  30 34 34 2B 03 41 0F 01  .......s044+.A..
11D0: 82 80 23 C4 00 83 80 03  41 0F 01 04 41 0F 01 1A  ..#.....A...A...
11E0: D0 1C 1C 09 80 59 05 03  41 0F 01 01 BA 03 41 0F  .....Y..A.....A.
11F0: 01 84 80 85 80 86 80 81  80 1C 09 80 45 0A 80 F8  ............E...
1200: FF FF 7F F8 FF FF 7F 73  30 34 35 0B 80 1A AF 1C  .......s045.....
1210: 55 0A 80 F8 FF FF 7F F8  FF FF 7F 73 30 34 35 45  U..........s045E
1220: 0A 80 F8 FF FF 7F F8 FF  FF 7F 73 30 34 36 0B 80  ..........s046..
1230: 4A 03 41 0F 01 03 41 0F  01 2B 03 41 0F 01 87 80  J.A...A..+.A....
1240: 23 52 0A 80 F8 FF FF 7F  F8 FF FF 7F 73 30 34 36  #R..........s046
1250: 45 0A 80 F8 FF FF 7F F8  FF FF 7F 73 30 34 37 0B  E..........s047.
1260: 80 1C 09 80 5C 00 0B 80  5C 01 0B 80 55 0A 80 F8  ....\...\...U...
1270: FF FF 7F F8 FF FF 7F 73  30 34 37 2C 05 41 0F 01  .......s047,.A..
1280: 05 41 0F 01 62 6F 6D 31  59 05 03 41 0F 01 00 29  .A..bom1Y..A...)
1290: 10 00 41 0F 01 0E 1C 20  80 BA 04 41 0F 01 45 80  ..A.... ...A..E.
12A0: 46 80 07 80 0B 80 2C 04  41 0F 01 04 41 0F 01 73  F.....,.A...A..s
12B0: 70 6F 66 2C 04 41 0F 01  04 41 0F 01 73 70 30 30  pof,.A...A..sp00
12C0: D8 01 04 41 0F 01 0B 80  D8 02 04 41 0F 01 4C 80  ...A.......A..L.
12D0: D8 03 04 41 0F 01 4D 80  45 44 80 F8 FF FF 7F F8  ...A..M.ED......
12E0: FF FF 7F 62 6C 6F 6E 0B  80 59 05 00 41 0F 01 01  ...blon..Y..A...
12F0: BA 00 41 0F 01 88 80 89  80 07 80 8A 80 45 0A 80  ..A..........E..
1300: F8 FF FF 7F F8 FF FF 7F  73 30 34 38 0B 80 4A 09  ........s048..J.
1310: 40 0F 01 04 41 0F 01 4A  0A 40 0F 01 04 41 0F 01  @...A..J.@...A..
1320: 4A 0B 40 0F 01 04 41 0F  01 27 10 00 41 0F 01 10  J.@...A..'..A...
1330: 6B 69 64 6C 30 30 40 0F  01 1C 0E 80 4B 30 40 0F  kidl00@.....K0@.
1340: 01 8B 80 6F 76 30 40 0F  01 6E 30 40 0F 01 61 80  ...ov0@..n0@..a.
1350: 99 30 40 0F 01 1C 8C 80  4E 01 03 41 0F 01 BA 03  .0@.....N..A....
1360: 41 0F 01 8D 80 8E 80 03  80 8F 80 BA F0 FF FF 7F  A...............
1370: 90 80 91 80 07 80 92 80  2C F0 FF FF 7F F0 FF FF  ........,.......
1380: 7F 63 6F 72 70 1C 0E 80  BA 00 41 0F 01 93 80 94  .corp.....A.....
1390: 80 07 80 0B 80 59 05 00  41 0F 01 00 52 0A 80 F8  .....Y..A...R...
13A0: FF FF 7F F8 FF FF 7F 73  30 34 38 45 0A 80 F8 FF  .......s048E....
13B0: FF 7F F8 FF FF 7F 73 30  36 35 0B 80 55 0A 80 F8  ......s065..U...
13C0: FF FF 7F F8 FF FF 7F 73  30 36 35 1C 0E 80 45 44  .......s065...ED
13D0: 80 F8 FF FF 7F F8 FF FF  7F 62 6C 6F 66 0B 80 6B  .........blof..k
13E0: 69 64 6C 31 30 40 0F 01  45 0A 80 F8 FF FF 7F F8  idl10@..E.......
13F0: FF FF 7F 73 30 34 39 0B  80 27 10 09 40 0F 01 10  ...s049..'..@...
1400: 5B 95 80 09 40 0F 01 09  40 0F 01 38 32 32 39 4A  [...@...@..8229J
1410: 0E 40 0F 01 09 40 0F 01  6F 76 0E 40 0F 01 5B 78  .@...@..ov.@..[x
1420: 80 0E 40 0F 01 0E 40 0F  01 61 77 77 30 27 10 0A  ..@...@..aww0'..
1430: 40 0F 01 23 5B 95 80 0A  40 0F 01 0A 40 0F 01 38  @..#[...@...@..8
1440: 32 30 31 27 10 0B 40 0F  01 11 1C 96 80 5B 95 80  201'..@......[..
1450: 09 40 0F 01 09 40 0F 01  38 32 30 31 27 10 0D 40  .@...@..8201'..@
1460: 0F 01 3E 27 10 0E 40 0F  01 1B 27 10 B5 40 0F 01  ..>'..@...'..@..
1470: 17 1C 97 80 27 10 00 41  0F 01 11 2B 00 41 0F 01  ....'..A...+.A..
1480: 98 80 5B 95 80 0A 40 0F  01 0A 40 0F 01 38 32 30  ..[...@...@..820
1490: 31 1C 99 80 4A 30 40 0F  01 00 41 0F 01 1C 99 80  1...J0@...A.....
14A0: 5B 95 80 09 40 0F 01 09  40 0F 01 38 32 30 31 4A  [...@...@..8201J
14B0: 30 40 0F 01 00 41 0F 01  1C 99 80 4A 30 40 0F 01  0@...A.....J0@..
14C0: 00 41 0F 01 5B 95 80 0A  40 0F 01 0A 40 0F 01 38  .A..[...@...@..8
14D0: 32 30 31 1C 99 80 4A 30  40 0F 01 00 41 0F 01 1C  201...J0@...A...
14E0: 99 80 4A 30 40 0F 01 00  41 0F 01 1C 99 80 4E 00  ..J0@...A.....N.
14F0: 03 41 0F 01 7B 03 41 0F  01 52 0A 80 F8 FF FF 7F  .A..{.A..R......
1500: F8 FF FF 7F 73 30 34 39  45 0A 80 F8 FF FF 7F F8  ....s049E.......
1510: FF FF 7F 73 30 35 30 0B  80 2B 03 41 0F 01 9A 80  ...s050..+.A....
1520: 23 4A 03 41 0F 01 04 41  0F 01 6F 70 6E 03 41 0F  #J.A...A..opn.A.
1530: 01 15 80 99 03 41 0F 01  1A D0 1C 1C 09 80 7A 00  .....A........z.
1540: 00 41 0F 01 7A 00 0D 40  0F 01 7A 00 0E 40 0F 01  .A..z..@..z..@..
1550: 7A 00 B5 40 0F 01 7A 00  09 40 0F 01 7A 00 0A 40  z..@..z..@..z..@
1560: 0F 01 7A 00 0B 40 0F 01  BA 0D 40 0F 01 9B 80 9C  ..z..@....@.....
1570: 80 9D 80 9E 80 BA 0E 40  0F 01 9F 80 A0 80 9D 80  .......@........
1580: A1 80 BA B5 40 0F 01 A2  80 A3 80 9D 80 A4 80 BA  ....@...........
1590: 09 40 0F 01 A5 80 A6 80  9D 80 A7 80 BA 0A 40 0F  .@............@.
15A0: 01 A8 80 A9 80 9D 80 AA  80 BA 0B 40 0F 01 AB 80  ...........@....
15B0: AC 80 9D 80 AD 80 BA 30  40 0F 01 AE 80 AF 80 B0  .......0@.......
15C0: 80 B1 80 D8 00 04 41 0F  01 50 04 41 0F 01 04 41  ......A..P.A...A
15D0: 0F 01 73 70 30 30 2C 04  41 0F 01 04 41 0F 01 73  ..sp00,.A...A..s
15E0: 70 6F 6E BA 04 41 0F 01  8D 80 8E 80 80 80 81 80  pon..A..........
15F0: BA F0 FF FF 7F B2 80 B3  80 03 80 0B 80 4B F0 FF  .............K..
1600: FF 7F B4 80 2C F0 FF FF  7F F0 FF FF 7F 69 64 6C  ....,........idl
1610: 30 BA 03 41 0F 01 B5 80  B6 80 03 80 B7 80 BA 00  0..A............
1620: 41 0F 01 B8 80 B9 80 03  80 BA 80 29 10 00 41 0F  A..........)..A.
1630: 01 0F 1C 09 80 52 0A 80  F8 FF FF 7F F8 FF FF 7F  .....R..........
1640: 73 30 35 30 5C 00 6D 80  5C 01 6D 80 9A 45 0A 80  s050\.m.\.m..E..
1650: F8 FF FF 7F F8 FF FF 7F  73 30 35 31 0B 80 1A AF  ........s051....
1660: 1C 2B 03 41 0F 01 BB 80  23 52 0A 80 F8 FF FF 7F  .+.A....#R......
1670: F8 FF FF 7F 73 30 35 31  45 0A 80 F8 FF FF 7F F8  ....s051E.......
1680: FF FF 7F 73 30 35 32 0B  80 4A 03 41 0F 01 F0 FF  ...s052..J.A....
1690: FF 7F 4A F0 FF FF 7F 03  41 0F 01 6F 76 03 41 0F  ..J.....A..ov.A.
16A0: 01 66 23 80 03 41 0F 01  03 41 0F 01 74 6C 6B 30  .f#..A...A..tlk0
16B0: 2B 03 41 0F 01 BC 80 23  66 23 80 03 41 0F 01 03  +.A....#f#..A...
16C0: 41 0F 01 74 6C 6B 31 52  0A 80 F8 FF FF 7F F8 FF  A..tlk1R........
16D0: FF 7F 73 30 35 32 45 0A  80 F8 FF FF 7F F8 FF FF  ..s052E.........
16E0: 7F 73 30 35 33 0B 80 6E  00 41 0F 01 BD 80 99 00  .s053..n.A......
16F0: 41 0F 01 2B 00 41 0F 01  BE 80 23 1A D0 1C 1C 09  A..+.A....#.....
1700: 80 BA 03 41 0F 01 BF 80  C0 80 03 80 B7 80 BA 00  ...A............
1710: 41 0F 01 C1 80 C2 80 03  80 BA 80 BA F0 FF FF 7F  A...............
1720: 8D 80 8E 80 80 80 81 80  BA 04 41 0F 01 0B 80 0B  ..........A.....
1730: 80 0B 80 0B 80 7E 07 F0  FF FF 7F C3 80 7E 02 F0  .....~.......~..
1740: FF FF 7F 52 0A 80 F8 FF  FF 7F F8 FF FF 7F 73 30  ...R..........s0
1750: 35 33 5C 00 09 80 5C 01  09 80 9A 45 0A 80 F8 FF  53\...\....E....
1760: FF 7F F8 FF FF 7F 73 30  35 34 0B 80 1A AF 1C 6E  ......s054.....n
1770: 03 41 0F 01 C4 80 99 03  41 0F 01 2B 03 41 0F 01  .A......A..+.A..
1780: C5 80 23 52 0A 80 F8 FF  FF 7F F8 FF FF 7F 73 30  ..#R..........s0
1790: 35 34 45 0A 80 F8 FF FF  7F F8 FF FF 7F 73 30 35  54E..........s05
17A0: 35 0B 80 2B 03 41 0F 01  C6 80 23 4A 0C 40 0F 01  5..+.A....#J.@..
17B0: 03 41 0F 01 52 0A 80 F8  FF FF 7F F8 FF FF 7F 73  .A..R..........s
17C0: 30 35 35 45 0A 80 F8 FF  FF 7F F8 FF FF 7F 73 30  055E..........s0
17D0: 35 36 0B 80 BA F0 FF FF  7F 0B 80 0B 80 0B 80 0B  56..............
17E0: 80 7E 08 F0 FF FF 7F 4A  00 41 0F 01 03 41 0F 01  .~.....J.A...A..
17F0: 4A 03 41 0F 01 00 41 0F  01 2B 00 41 0F 01 C7 80  J.A...A..+.A....
1800: 23 BA 04 41 0F 01 8D 80  8E 80 80 80 81 80 50 04  #..A..........P.
1810: 41 0F 01 04 41 0F 01 73  70 30 30 2C 04 41 0F 01  A...A..sp00,.A..
1820: 04 41 0F 01 73 70 6F 6E  27 10 0C 40 0F 01 4A 52  .A..spon'..@..JR
1830: 0A 80 F8 FF FF 7F F8 FF  FF 7F 73 30 35 36 45 0A  ..........s056E.
1840: 80 F8 FF FF 7F F8 FF FF  7F 73 30 35 37 0B 80 2B  .........s057..+
1850: 03 41 0F 01 C8 80 23 55  0A 80 F8 FF FF 7F F8 FF  .A....#U........
1860: FF 7F 73 30 35 37 45 0A  80 F8 FF FF 7F F8 FF FF  ..s057E.........
1870: 7F 73 30 35 36 0B 80 66  23 80 03 41 0F 01 03 41  .s056..f#..A...A
1880: 0F 01 74 6C 6B 30 2B 03  41 0F 01 C9 80 23 66 23  ..tlk0+.A....#f#
1890: 80 03 41 0F 01 03 41 0F  01 74 6C 6B 31 2B 03 41  ..A...A..tlk1+.A
18A0: 0F 01 CA 80 23 BA F0 FF  FF 7F 8D 80 8E 80 80 80  ....#...........
18B0: 81 80 52 0A 80 F8 FF FF  7F F8 FF FF 7F 73 30 35  ..R..........s05
18C0: 36 5C 00 0B 80 5C 01 0B  80 45 0A 80 F8 FF FF 7F  6\...\...E......
18D0: F8 FF FF 7F 73 30 35 38  0B 80 CD 19 80 F8 FF FF  ....s058........
18E0: 7F F8 FF FF 7F 73 30 30  31 0B 80 45 44 80 F8 FF  .....s001..ED...
18F0: FF 7F F8 FF FF 7F 38 31  36 30 0B 80 2B 0C 40 0F  ......8160..+.@.
1900: 01 CB 80 23 CE 19 80 F8  FF FF 7F F8 FF FF 7F 73  ...#...........s
1910: 30 30 31 7B 03 41 0F 01  52 0A 80 F8 FF FF 7F F8  001{.A..R.......
1920: FF FF 7F 73 30 35 38 6E  03 41 0F 01 CC 80 99 03  ...s058n.A......
1930: 41 0F 01 45 0A 80 F8 FF  FF 7F F8 FF FF 7F 73 30  A..E..........s0
1940: 36 36 0B 80 1C 09 80 45  0A 80 F8 FF FF 7F F8 FF  66.....E........
1950: FF 7F 73 30 35 39 0B 80  27 10 03 41 0F 01 0F 1C  ..s059..'..A....
1960: 0E 80 4A 0C 40 0F 01 03  41 0F 01 2B 0C 40 0F 01  ..J.@...A..+.@..
1970: CD 80 1C 09 80 7B F0 FF  FF 7F 7B 00 41 0F 01 4B  .....{....{.A..K
1980: 00 41 0F 01 CE 80 6F 76  00 41 0F 01 BA F0 FF FF  .A....ov.A......
1990: 7F CF 80 D0 80 03 80 D1  80 52 0A 80 F8 FF FF 7F  .........R......
19A0: F8 FF FF 7F 73 30 35 39  5C 00 6D 80 5C 01 6D 80  ....s059\.m.\.m.
19B0: 9A 45 0A 80 F8 FF FF 7F  F8 FF FF 7F 73 30 36 30  .E..........s060
19C0: 0B 80 4E 01 03 41 0F 01  6E 00 41 0F 01 BD 80 99  ..N..A..n.A.....
19D0: 00 41 0F 01 2B 00 41 0F  01 D2 80 23 59 06 00 41  .A..+.A....#Y..A
19E0: 0F 01 52 0A 80 F8 FF FF  7F F8 FF FF 7F 73 30 36  ..R..........s06
19F0: 30 45 0A 80 F8 FF FF 7F  F8 FF FF 7F 73 30 36 31  0E..........s061
1A00: 0B 80 29 10 00 41 0F 01  12 4A F0 FF FF 7F 04 41  ..)..A...J.....A
1A10: 0F 01 2B 00 41 0F 01 D3  80 23 52 0A 80 F8 FF FF  ..+.A....#R.....
1A20: 7F F8 FF FF 7F 73 30 36  31 59 05 05 41 0F 01 01  .....s061Y..A...
1A30: 02 87 7F 13 80 80 59 1A  BA 05 41 0F 01 D4 80 D5  ......Y...A.....
1A40: 80 D6 80 D1 80 45 0A 80  F8 FF FF 7F F8 FF FF 7F  .....E..........
1A50: 73 30 36 32 0B 80 01 78  1B 02 87 7F 14 80 80 82  s062...x........
1A60: 1A BA 05 41 0F 01 D4 80  D5 80 D7 80 D1 80 45 0A  ...A..........E.
1A70: 80 F8 FF FF 7F F8 FF FF  7F 73 30 36 32 0B 80 01  .........s062...
1A80: 78 1B 02 87 7F 15 80 80  AB 1A BA 05 41 0F 01 D4  x...........A...
1A90: 80 D5 80 86 80 D1 80 45  0A 80 F8 FF FF 7F F8 FF  .......E........
1AA0: FF 7F 73 62 36 32 0B 80  01 78 1B 02 87 7F 16 80  ..sb62...x......
1AB0: 80 D4 1A BA 05 41 0F 01  D4 80 D5 80 86 80 D1 80  .....A..........
1AC0: 45 0A 80 F8 FF FF 7F F8  FF FF 7F 73 30 36 32 0B  E..........s062.
1AD0: 80 01 78 1B 02 87 7F 17  80 80 FD 1A BA 05 41 0F  ..x...........A.
1AE0: 01 D4 80 D5 80 D8 80 D1  80 45 0A 80 F8 FF FF 7F  .........E......
1AF0: F8 FF FF 7F 73 64 36 32  0B 80 01 78 1B 02 87 7F  ....sd62...x....
1B00: 18 80 80 26 1B BA 05 41  0F 01 D4 80 D5 80 D8 80  ...&...A........
1B10: D1 80 45 0A 80 F8 FF FF  7F F8 FF FF 7F 73 64 36  ..E..........sd6
1B20: 32 0B 80 01 78 1B 02 87  7F 19 80 80 4F 1B BA 05  2...x.......O...
1B30: 41 0F 01 D4 80 D5 80 D7  80 D1 80 45 0A 80 F8 FF  A..........E....
1B40: FF 7F F8 FF FF 7F 73 65  36 32 0B 80 01 78 1B 02  ......se62...x..
1B50: 87 7F 1A 80 80 78 1B BA  05 41 0F 01 D4 80 D5 80  .....x...A......
1B60: D9 80 D1 80 45 0A 80 F8  FF FF 7F F8 FF FF 7F 73  ....E..........s
1B70: 66 36 32 0B 80 01 78 1B  29 10 05 41 0F 01 02 45  f62...x.)..A...E
1B80: 0A 80 F8 FF FF 7F F8 FF  FF 7F 73 30 36 34 0B 80  ..........s064..
1B90: 4A 00 41 0F 01 F0 FF FF  7F 4A F0 FF FF 7F 00 41  J.A......J.....A
1BA0: 0F 01 2B 00 41 0F 01 DA  80 23 52 0A 80 F8 FF FF  ..+.A....#R.....
1BB0: 7F F8 FF FF 7F 73 30 36  34 45 0A 80 F8 FF FF 7F  .....s064E......
1BC0: F8 FF FF 7F 73 30 36 33  0B 80 02 09 10 13 80 00  ....s063........
1BD0: 10 1C 66 2A 80 00 41 0F  01 00 41 0F 01 74 6C 6B  ..f*..A...A..tlk
1BE0: 30 2B 00 41 0F 01 DB 80  23 2B 00 41 0F 01 DC 80  0+.A....#+.A....
1BF0: 23 66 2A 80 00 41 0F 01  00 41 0F 01 74 6C 6B 31  #f*..A...A..tlk1
1C00: 53 00 41 0F 01 00 41 0F  01 74 6C 6B 31 01 43 1C  S.A...A..tlk1.C.
1C10: 66 2A 80 00 41 0F 01 00  41 0F 01 74 68 6B 31 2B  f*..A...A..thk1+
1C20: 00 41 0F 01 DD 80 23 66  2A 80 00 41 0F 01 00 41  .A....#f*..A...A
1C30: 0F 01 74 68 6B 32 53 00  41 0F 01 00 41 0F 01 74  ..thk2S.A...A..t
1C40: 68 6B 32 52 0A 80 F8 FF  FF 7F F8 FF FF 7F 73 30  hk2R..........s0
1C50: 36 33 45 0A 80 F8 FF FF  7F F8 FF FF 7F 73 30 36  63E..........s06
1C60: 34 0B 80 6E 00 41 0F 01  1E 80 99 00 41 0F 01 2B  4..n.A......A..+
1C70: 00 41 0F 01 DE 80 23 1A  D0 1C 52 0A 80 F8 FF FF  .A....#...R.....
1C80: 7F F8 FF FF 7F 73 30 36  34 46 00 45 DF 80 F0 FF  .....s064F.E....
1C90: FF 7F F0 FF FF 7F 71 73  74 63 0B 80 45 44 80 F0  ......qstc..ED..
1CA0: FF FF 7F F0 FF FF 7F 66  64 69 32 0B 80 21 00 45  .......fdi2..!.E
1CB0: 44 80 F0 FF FF 7F F0 FF  FF 7F 66 64 69 31 0B 80  D.........fdi1..
1CC0: 55 44 80 F0 FF FF 7F F0  FF FF 7F 66 64 69 31 1B  UD.........fdi1.
1CD0: 45 44 80 F0 FF FF 7F F0  FF FF 7F 66 64 6F 31 0B  ED.........fdo1.
1CE0: 80 55 44 80 F0 FF FF 7F  F0 FF FF 7F 66 64 6F 31  .UD.........fdo1
1CF0: 1B 03 05 00 04 00 02 05  00 17 80 05 06 1D 08 05  ................
1D00: 00 13 80 01 0B 1D 08 05  00 14 80 14 05 00 8C 80  ................
1D10: 07 05 00 23 80 1B 03 05  00 04 00 02 05 00 17 80  ...#............
1D20: 05 2B 1D 08 05 00 13 80  01 30 1D 08 05 00 14 80  .+.......0......
1D30: 14 05 00 8C 80 07 05 00  E0 80 1B 03 05 00 04 00  ................
1D40: 02 05 00 17 80 05 50 1D  08 05 00 13 80 01 55 1D  ......P.......U.
1D50: 08 05 00 14 80 14 05 00  8C 80 07 05 00 E1 80 1B  ................
1D60: 03 05 00 04 00 02 05 00  17 80 05 75 1D 08 05 00  ...........u....
1D70: 13 80 01 7A 1D 08 05 00  14 80 14 05 00 8C 80 07  ...z............
1D80: 05 00 E2 80 1B                                    .....           
```

#### Opcodes

```
  0: 0x0EC8 [0x42] SET_CLI_EVENT_CANCEL_DATA()
  1: 0x0EC9 [0x1A] CALL_SUBROUTINE(address=0x1CD0)
  2: 0x0ECC [0x46] CAMERA_CONTROL: Disable user control
  3: 0x0ECE [0x38] SET_CLIENT_EVENT_MODE(mode=19*)
  4: 0x0ED1 [0x92] Mapitoto (ID: 17776896/0x010F4100)->Render.Flags3 ^= 0x01
  5: 0x0ED7 [0x92] Jeridade (ID: 17776899/0x010F4103)->Render.Flags3 ^= 0x01
  6: 0x0EDD [0x2F] Jeridade (ID: 17776899/0x010F4103)->Render.Flags0 &= ~0x80000 // Bit 19
  7: 0x0EE3 [0x4E] SET_ENTITY_HIDE_FLAG: Show Jeridade (ID: 17776899/0x010F4103)
  8: 0x0EE9 [0x2F] Unnamed NPC (ID: 17776901/0x010F4105)->Render.Flags0 &= ~0x80000 // Bit 19
  9: 0x0EEF [0x4E] SET_ENTITY_HIDE_FLAG: Show Unnamed NPC (ID: 17776901/0x010F4105)
 10: 0x0EF5 [0x2F] Unnamed NPC (ID: 17776900/0x010F4104)->Render.Flags0 &= ~0x80000 // Bit 19
 11: 0x0EFB [0x4E] SET_ENTITY_HIDE_FLAG: Show Unnamed NPC (ID: 17776900/0x010F4104)
 12: 0x0F01 [0x92] Chocobo (ID: 17776649/0x010F4009)->Render.Flags3 ^= 0x01
 13: 0x0F07 [0x92] Chocobo (ID: 17776650/0x010F400A)->Render.Flags3 ^= 0x01
 14: 0x0F0D [0x92] Chocobo (ID: 17776651/0x010F400B)->Render.Flags3 ^= 0x01
 15: 0x0F13 [0x92] Osker (ID: 17776653/0x010F400D)->Render.Flags3 ^= 0x01
 16: 0x0F19 [0x92] Shalott (ID: 17776654/0x010F400E)->Render.Flags3 ^= 0x01
 17: 0x0F1F [0x92] Brutus (ID: 17776652/0x010F400C)->Render.Flags3 ^= 0x01
 18: 0x0F25 [0x92] Silver Tail (ID: 17776688/0x010F4030)->Render.Flags3 ^= 0x01
 19: 0x0F2B [0x92] Indika (ID: 17776732/0x010F405C)->Render.Flags3 ^= 0x01
 20: 0x0F31 [0x92] Ulesa (ID: 17776733/0x010F405D)->Render.Flags3 ^= 0x01
 21: 0x0F37 [0x92] Kasra (ID: 17776736/0x010F4060)->Render.Flags3 ^= 0x01
 22: 0x0F3D [0x92] Finbarr (ID: 17776821/0x010F40B5)->Render.Flags3 ^= 0x01
 23: 0x0F43 [0x92] Unnamed NPC (ID: 17776900/0x010F4104)->Render.Flags3 ^= 0x01
 24: 0x0F49 [0x92] Unnamed NPC (ID: 17776901/0x010F4105)->Render.Flags3 ^= 0x01
 25: 0x0F4F [0xBA] SET_ENTITY_POSITION(entity_id=Unnamed NPC (ID: 17776900/0x010F4104), pos_x=-54.330*, pos_z=91.210*, pos_y=8.000*, direction=0.0°*)
 26: 0x0F5C [0xBA] SET_ENTITY_POSITION(entity_id=Jeridade (ID: 17776899/0x010F4103), pos_x=-53.380*, pos_z=86.970*, pos_y=8.200*, direction=0.0°*)
 27: 0x0F69 [0xBA] SET_ENTITY_POSITION(entity_id=LocalPlayer, pos_x=-56.780*, pos_z=87.100*, pos_y=8.200*, direction=0.0°*)
 28: 0x0F76 [0x4A] LocalPlayer looks at Jeridade (ID: 17776899/0x010F4103)
 29: 0x0F7F [0x4A] Jeridade (ID: 17776899/0x010F4103) looks at Mapitoto (ID: 17776896/0x010F4100)
 30: 0x0F88 [0x27] REQ_SET(priority=0x10, entity_id=Unnamed NPC (ID: 17776901/0x010F4105), tag_num=0x03)
 31: 0x0F8F [0x2C] CREATE_SCHEDULER_TASK: Create scheduler "spff" with entities [Unnamed NPC (ID: 17776900/0x010F4104), Unnamed NPC (ID: 17776900/0x010F4104)]
 32: 0x0F9C [0x2C] CREATE_SCHEDULER_TASK: Create scheduler "sp00" with entities [Unnamed NPC (ID: 17776900/0x010F4104), Unnamed NPC (ID: 17776900/0x010F4104)]
 33: 0x0FA9 [0xD8] SET_ENTITY_EVENT_DIR: Set Unnamed NPC (ID: 17776900/0x010F4104) EventDir[0] = 0*
 34: 0x0FB1 [0xD8] SET_ENTITY_EVENT_DIR: Set Unnamed NPC (ID: 17776900/0x010F4104) EventDir[1] = 1760*
 35: 0x0FB9 [0xD8] SET_ENTITY_EVENT_DIR: Set Unnamed NPC (ID: 17776900/0x010F4104) EventDir[2] = 830*
 36: 0x0FC1 [0x1C] WAIT(120* ticks)
 37: 0x0FC4 [0x45] LOAD_SCHEDULED_TASK: Load scheduler "s040" with entities [EventEntity, EventEntity], work=[820*, 0*]
 38: 0x0FD5 [0x1A] CALL_SUBROUTINE(address=0x1CAF)
 39: 0x0FD8 [0x6E] Mapitoto (ID: 17776896/0x010F4100) uses emote 0*
 40: 0x0FDF [0x99] Wait for Mapitoto (ID: 17776896/0x010F4100) animation to complete
 41: 0x0FE4 [0x2B] Mapitoto (ID: 17776896/0x010F4100) [13817*]:
    → "Huh!? Is that...!?"
 42: 0x0FEB [0x23] WAIT_FOR_DIALOG_INTERACTION
 43: 0x0FEC [0x52] END_LOAD_SCHEDULER: End scheduler "s040" with entities [EventEntity, EventEntity], work=820*
 44: 0x0FFB [0x45] LOAD_SCHEDULED_TASK: Load scheduler "s041" with entities [EventEntity, EventEntity], work=[820*, 0*]
 45: 0x100C [0x4A] Jeridade (ID: 17776899/0x010F4103) looks at Mapitoto (ID: 17776896/0x010F4100)
 46: 0x1015 [0x6F] WAIT_FRAME_DELAY: Yield until WaitTime reaches zero
 47: 0x1016 [0x76] CHECK_ENTITY_RENDER_FLAGS: Wait until Jeridade (ID: 17776899/0x010F4103) Render.Flags0 and Render.Flags3 conditions are met
 48: 0x101B [0x2B] Jeridade (ID: 17776899/0x010F4103) [13818*]:
    → "I think you're overreacting a bit..."
 49: 0x1022 [0x23] WAIT_FOR_DIALOG_INTERACTION
 50: 0x1023 [0x6E] Mapitoto (ID: 17776896/0x010F4100) uses emote 24*
 51: 0x102A [0x99] Wait for Mapitoto (ID: 17776896/0x010F4100) animation to complete
 52: 0x102F [0x4A] Jeridade (ID: 17776899/0x010F4103) looks at LocalPlayer
 53: 0x1038 [0x2B] Jeridade (ID: 17776899/0x010F4103) [13819*]:
    → "Besides, it looks like we've got ourselves a new clue!"
 54: 0x103F [0x23] WAIT_FOR_DIALOG_INTERACTION
 55: 0x1040 [0x27] REQ_SET(priority=0x10, entity_id=LocalPlayer, tag_num=0x99)
 56: 0x1047 [0x52] END_LOAD_SCHEDULER: End scheduler "s041" with entities [EventEntity, EventEntity], work=820*
 57: 0x1056 [0x45] LOAD_SCHEDULED_TASK: Load scheduler "s042" with entities [EventEntity, EventEntity], work=[820*, 0*]
 58: 0x1067 [0x1C] WAIT(80* ticks)
 59: 0x106A [0x4A] LocalPlayer looks at Jeridade (ID: 17776899/0x010F4103)
 60: 0x1073 [0x6F] WAIT_FRAME_DELAY: Yield until WaitTime reaches zero
 61: 0x1074 [0x76] CHECK_ENTITY_RENDER_FLAGS: Wait until LocalPlayer Render.Flags0 and Render.Flags3 conditions are met
 62: 0x1079 [0x4A] Mapitoto (ID: 17776896/0x010F4100) looks at LocalPlayer
 63: 0x1082 [0x6F] WAIT_FRAME_DELAY: Yield until WaitTime reaches zero
 64: 0x1083 [0x76] CHECK_ENTITY_RENDER_FLAGS: Wait until LocalPlayer Render.Flags0 and Render.Flags3 conditions are met
 65: 0x1088 [0x03] ExtData[1]->WorkLocal[4] = LocalPlayer->Race
 66: 0x108D [0x1A] CALL_SUBROUTINE(address=0x1D16)
 67: 0x1090 [0x0B] ExtData[1]->WorkLocal[5]++
 68: 0x1093 [0x66] LOAD_EXT_SCHEDULER_MAIN: Load scheduler "pas0" with entities [LocalPlayer, LocalPlayer], work=ExtData[1]->WorkLocal[5]
 69: 0x10A2 [0x53] WAIT_SCHEDULER_TASK: Wait for scheduler "pas0" with entities [LocalPlayer, LocalPlayer]
 70: 0x10AF [0x6E] Jeridade (ID: 17776899/0x010F4103) uses emote 7*
 71: 0x10B6 [0x99] Wait for Jeridade (ID: 17776899/0x010F4103) animation to complete
 72: 0x10BB [0x2B] Jeridade (ID: 17776899/0x010F4103) [13820*]:
    → "Amazing! This is exactly what we needed!"
 73: 0x10C2 [0x23] WAIT_FOR_DIALOG_INTERACTION
 74: 0x10C3 [0x66] LOAD_EXT_SCHEDULER_MAIN: Load scheduler "tlk0" with entities [Jeridade (ID: 17776899/0x010F4103), Jeridade (ID: 17776899/0x010F4103)], work=9*
 75: 0x10D2 [0x2B] Jeridade (ID: 17776899/0x010F4103) [13821*]:
    → "I took the $3 apart for repairs, and there was something just like it in there. Give me a moment to replace it..."
 76: 0x10D9 [0x23] WAIT_FOR_DIALOG_INTERACTION
 77: 0x10DA [0x66] LOAD_EXT_SCHEDULER_MAIN: Load scheduler "tlk1" with entities [Jeridade (ID: 17776899/0x010F4103), Jeridade (ID: 17776899/0x010F4103)], work=9*
 78: 0x10E9 [0x53] WAIT_SCHEDULER_TASK: Wait for scheduler "tlk1" with entities [Jeridade (ID: 17776899/0x010F4103), Jeridade (ID: 17776899/0x010F4103)]
 79: 0x10F6 [0x52] END_LOAD_SCHEDULER: End scheduler "s042" with entities [EventEntity, EventEntity], work=820*
 80: 0x1105 [0x45] LOAD_SCHEDULED_TASK: Load scheduler "s043" with entities [EventEntity, EventEntity], work=[820*, 0*]
 81: 0x1116 [0x4A] LocalPlayer looks at Unnamed NPC (ID: 17776900/0x010F4104)
 82: 0x111F [0x4A] Mapitoto (ID: 17776896/0x010F4100) looks at Unnamed NPC (ID: 17776900/0x010F4104)
 83: 0x1128 [0x29] REQ_SET_WAIT(priority=0x10, entity_id=Jeridade (ID: 17776899/0x010F4103), tag_num=0x0D)
 84: 0x112F [0x4A] Jeridade (ID: 17776899/0x010F4103) looks at Unnamed NPC (ID: 17776900/0x010F4104)
 85: 0x1138 [0x1C] WAIT(30* ticks)
 86: 0x113B [0x6E] Jeridade (ID: 17776899/0x010F4103) uses emote 3*
 87: 0x1142 [0x99] Wait for Jeridade (ID: 17776899/0x010F4103) animation to complete
 88: 0x1147 [0x1C] WAIT(30* ticks)
 89: 0x114A [0x1A] CALL_SUBROUTINE(address=0x1CD0)
 90: 0x114D [0xBA] SET_ENTITY_POSITION(entity_id=Mapitoto (ID: 17776896/0x010F4100), pos_x=-53.830*, pos_z=88.270*, pos_y=8.200*, direction=0.0°*)
 91: 0x115A [0x4A] Mapitoto (ID: 17776896/0x010F4100) looks at Unnamed NPC (ID: 17776900/0x010F4104)
 92: 0x1163 [0x1C] WAIT(150* ticks)
 93: 0x1166 [0x52] END_LOAD_SCHEDULER: End scheduler "s043" with entities [EventEntity, EventEntity], work=820*
 94: 0x1175 [0x45] LOAD_SCHEDULED_TASK: Load scheduler "s044" with entities [EventEntity, EventEntity], work=[820*, 0*]
 95: 0x1186 [0xD8] SET_ENTITY_EVENT_DIR: Copy Unnamed NPC (ID: 17776900/0x010F4104) LastPosition to EventDir
