# 17776740 - DoorHouse

## Common Data

| Field            | Value                 |
|------------------|-----------------------|
| Zone             | Upper Jeuno (ID: 244) |
| Block Size       | 4240 bytes            |
| Total Events     | 11                    |
| References Count | 97                    |

## List of Events

| Event ID                 | Entrypoint   |   Size |   Instructions |
|--------------------------|--------------|--------|----------------|
| [65535](#event-65535)    | 0x0000       |      1 |              1 |
| [10172](#event-10172)    | 0x0001       |      2 |              2 |
| [116](#event-116)        | 0x0003       |     73 |             18 |
| [119](#event-119)        | 0x004C       |   1942 |            273 |
| [118](#event-118)        | 0x07E2       |    155 |             34 |
| [117](#event-117)        | 0x087D       |     78 |             19 |
| [202](#event-202)        | 0x08CB       |    549 |             89 |
| [152](#event-152)        | 0x0AF0       |    885 |            141 |
| [110](#event-110)        | 0x0E65       |    102 |             24 |
| [65535.1](#event-655351) | 0x0ECB       |      2 |              2 |
| [65535.2](#event-655352) | 0x0ECD       |      2 |              2 |

## DAT References (imed_data)

|   Index | Hex Value   |   Dec Value |
|---------|-------------|-------------|
|       0 | 0x003C      |          60 |
|       1 | 0x1C44      |        7236 |
|       2 | 0x0078      |         120 |
|       3 | 0x0013      |          19 |
|       4 | 0x01C4      |         452 |
|       5 | 0x00C8      |         200 |
|       6 | 0x0000      |           0 |
|       7 | 0x0090      |         144 |
|       8 | 0x0003      |           3 |
|       9 | 0x000A      |          10 |
|      10 | 0x1C45      |        7237 |
|      11 | 0x0A75      |        2677 |
|      12 | 0x1C46      |        7238 |
|      13 | 0x0096      |         150 |
|      14 | 0x1C47      |        7239 |
|      15 | 0x1C48      |        7240 |
|      16 | 0x1C49      |        7241 |
|      17 | 0x1C4A      |        7242 |
|      18 | 0x1C4B      |        7243 |
|      19 | 0x1C4C      |        7244 |
|      20 | 0x1C4D      |        7245 |
|      21 | 0x1C4E      |        7246 |
|      22 | 0x1C4F      |        7247 |
|      23 | 0x1C50      |        7248 |
|      24 | 0x1C51      |        7249 |
|      25 | 0x1C52      |        7250 |
|      26 | 0x1C53      |        7251 |
|      27 | 0x1C54      |        7252 |
|      28 | 0x1C55      |        7253 |
|      29 | 0x1C56      |        7254 |
|      30 | 0x007C      |         124 |
|      31 | 0x000C      |          12 |
|      32 | 0x1C57      |        7255 |
|      33 | 0x1C58      |        7256 |
|      34 | 0x0016      |          22 |
|      35 | 0x1C59      |        7257 |
|      36 | 0x1C5A      |        7258 |
|      37 | 0x0012      |          18 |
|      38 | 0x1C5B      |        7259 |
|      39 | 0x0EC2      |        3778 |
|      40 | 0x1C5C      |        7260 |
|      41 | 0x0006      |           6 |
|      42 | 0x1C5D      |        7261 |
|      43 | 0x0835      |        2101 |
|      44 | 0x1C5E      |        7262 |
|      45 | 0x1C5F      |        7263 |
|      46 | 0x1C60      |        7264 |
|      47 | 0x1C61      |        7265 |
|      48 | 0x1C62      |        7266 |
|      49 | 0x1C63      |        7267 |
|      50 | 0x1C64      |        7268 |
|      51 | 0x1C65      |        7269 |
|      52 | 0x1C66      |        7270 |
|      53 | 0x1C67      |        7271 |
|      54 | 0x0001      |           1 |
|      55 | 0x1C68      |        7272 |
|      56 | 0x006E      |         110 |
|      57 | 0x1C69      |        7273 |
|      58 | 0x1C6A      |        7274 |
|      59 | 0x022B      |         555 |
|      60 | 0x007F      |         127 |
|      61 | 0x1C6B      |        7275 |
|      62 | 0x1C6C      |        7276 |
|      63 | 0x1C6D      |        7277 |
|      64 | 0x1C6E      |        7278 |
|      65 | 0x001E      |          30 |
|      66 | 0x1C6F      |        7279 |
|      67 | 0x1C70      |        7280 |
|      68 | 0x1C71      |        7281 |
|      69 | 0x1C72      |        7282 |
|      70 | 0x1C73      |        7283 |
|      71 | 0x1C74      |        7284 |
|      72 | 0x00C9      |         201 |
|      73 | 0x007A      |         122 |
|      74 | 0x1C7B      |        7291 |
|      75 | 0x1C7C      |        7292 |
|      76 | 0x1C7D      |        7293 |
|      77 | 0x1C7E      |        7294 |
|      78 | 0x1C7F      |        7295 |
|      79 | 0x1C80      |        7296 |
|      80 | 0x1C81      |        7297 |
|      81 | 0x1C82      |        7298 |
|      82 | 0x1C83      |        7299 |
|      83 | 0x1C84      |        7300 |
|      84 | 0x1C85      |        7301 |
|      85 | 0x1C86      |        7302 |
|      86 | 0x1C88      |        7304 |
|      87 | 0x1C89      |        7305 |
|      88 | 0x1C8A      |        7306 |
|      89 | 0x1C8B      |        7307 |
|      90 | 0x1C8C      |        7308 |
|      91 | 0x000F      |          15 |
|      92 | 0x1C8D      |        7309 |
|      93 | 0x1C8E      |        7310 |
|      94 | 0x1C8F      |        7311 |
|      95 | 0x1C90      |        7312 |
|      96 | 0x1C94      |        7316 |

## String References

- **7269**: Will you help them? [Yes./Not right now.]

## Events

### Event 65535

#### Metadata

| Field        | Value   |
|--------------|---------|
| Entrypoint   | 0x0000  |
| Data Size    | 1 bytes |
| Instructions | 1       |

```
      00 01 02 03 04 05 06 07  08 09 0A 0B 0C 0D 0E 0F
      -- -- -- -- -- -- -- --  -- -- -- -- -- -- -- --
0000: 00                                                .               
```

#### Opcodes

```
  0: 0x0000 [0x00] END_REQSTACK()
```

### Event 10172

#### Metadata

| Field        | Value   |
|--------------|---------|
| Entrypoint   | 0x0001  |
| Data Size    | 2 bytes |
| Instructions | 2       |

```
      00 01 02 03 04 05 06 07  08 09 0A 0B 0C 0D 0E 0F
      -- -- -- -- -- -- -- --  -- -- -- -- -- -- -- --
0000:    4D 00                                           M.             
```

#### Opcodes

```
  0: 0x0001 [0x4D] EventEntity->StatusEvent = 9 // Close door
  1: 0x0002 [0x00] END_REQSTACK()
```

### Event 116

#### Metadata

| Field        | Value    |
|--------------|----------|
| Entrypoint   | 0x0003   |
| Data Size    | 73 bytes |
| Instructions | 18       |

```
      00 01 02 03 04 05 06 07  08 09 0A 0B 0C 0D 0E 0F
      -- -- -- -- -- -- -- --  -- -- -- -- -- -- -- --
0000:          20 01 42 4C 1C  00 80 29 03 11 40 0F 01      .BL...)..@..
0010: 08 4A 11 40 0F 01 F0 FF  FF 7F 6F 76 11 40 0F 01  .J.@......ov.@..
0020: 4A F0 FF FF 7F 11 40 0F  01 27 04 11 40 0F 01 1C  J.....@..'..@...
0030: 2B 11 40 0F 01 01 80 23  29 04 11 40 0F 01 24 29  +.@....#)..@..$)
0040: 03 11 40 0F 01 09 4D 1C  02 80 21 00              ..@...M...!.    
```

#### Opcodes

```
  0: 0x0003 [0x20] SET_CLI_EVENT_UC_FLAG: Lock player control
  1: 0x0005 [0x42] SET_CLI_EVENT_CANCEL_DATA()
  2: 0x0006 [0x4C] EventEntity->StatusEvent = 8 // Open door
  3: 0x0007 [0x1C] WAIT(60* ticks)
  4: 0x000A [0x29] REQ_SET_WAIT(priority=0x03, entity_id=Galmut (ID: 17776657/0x010F4011), tag_num=0x08)
  5: 0x0011 [0x4A] Galmut (ID: 17776657/0x010F4011) looks at LocalPlayer
  6: 0x001A [0x6F] WAIT_FRAME_DELAY: Yield until WaitTime reaches zero
  7: 0x001B [0x76] CHECK_ENTITY_RENDER_FLAGS: Wait until Galmut (ID: 17776657/0x010F4011) Render.Flags0 and Render.Flags3 conditions are met
  8: 0x0020 [0x4A] LocalPlayer looks at Galmut (ID: 17776657/0x010F4011)
  9: 0x0029 [0x27] REQ_SET(priority=0x04, entity_id=Galmut (ID: 17776657/0x010F4011), tag_num=0x1C)
 10: 0x0030 [0x2B] Galmut (ID: 17776657/0x010F4011) [7236*]:
    → "Oh, it's you... Sorry, but I'm right in the middle of something. Could you come back later?"
 11: 0x0037 [0x23] WAIT_FOR_DIALOG_INTERACTION
 12: 0x0038 [0x29] REQ_SET_WAIT(priority=0x04, entity_id=Galmut (ID: 17776657/0x010F4011), tag_num=0x24)
 13: 0x003F [0x29] REQ_SET_WAIT(priority=0x03, entity_id=Galmut (ID: 17776657/0x010F4011), tag_num=0x09)
 14: 0x0046 [0x4D] EventEntity->StatusEvent = 9 // Close door
 15: 0x0047 [0x1C] WAIT(120* ticks)
 16: 0x004A [0x21] END_EVENT
 17: 0x004B [0x00] END_REQSTACK()
```

### Event 119

#### Metadata

| Field        | Value      |
|--------------|------------|
| Entrypoint   | 0x004C     |
| Data Size    | 1942 bytes |
| Instructions | 273        |

```
      00 01 02 03 04 05 06 07  08 09 0A 0B 0C 0D 0E 0F
      -- -- -- -- -- -- -- --  -- -- -- -- -- -- -- --
0040:                                      03 09 10 03              ....
0050: 80 20 01 46 01 75 00 04  80 75 01 42 4C 1C 00 80  . .F.u...u.BL...
0060: 45 05 80 F0 FF FF 7F F0  FF FF 7F 66 64 6F 31 06  E..........fdo1.
0070: 80 55 05 80 F0 FF FF 7F  F0 FF FF 7F 66 64 6F 31  .U..........fdo1
0080: 5C 00 06 80 5C 01 06 80  45 07 80 F0 FF FF 7F F0  \...\...E.......
0090: FF FF 7F 63 6D 32 62 06  80 55 07 80 F0 FF FF 7F  ...cm2b..U......
00A0: F0 FF FF 7F 63 6D 32 62  38 08 80 29 03 F0 FF FF  ....cm2b8..)....
00B0: 7F 19 4E 00 11 40 0F 01  45 05 80 F0 FF FF 7F F0  ..N..@..E.......
00C0: FF FF 7F 66 64 69 31 06  80 55 05 80 F0 FF FF 7F  ...fdi1..U......
00D0: F0 FF FF 7F 66 64 69 31  29 04 F0 FF FF 7F 1A 4D  ....fdi1)......M
00E0: 4A F0 FF FF 7F 11 40 0F  01 6F 76 F0 FF FF 7F 1C  J.....@..ov.....
00F0: 09 80 4A 11 40 0F 01 F0  FF FF 7F 6F 76 11 40 0F  ..J.@......ov.@.
0100: 01 27 03 11 40 0F 01 1C  2B 11 40 0F 01 0A 80 23  .'..@...+.@....#
0110: 29 04 11 40 0F 01 24 7B  F0 FF FF 7F 27 03 F0 FF  )..@..${....'...
0120: FF 7F 1B 1C 09 80 45 07  80 F0 FF FF 7F F0 FF FF  ......E.........
0130: 7F 63 6D 32 64 06 80 55  07 80 F0 FF FF 7F F0 FF  .cm2d..U........
0140: FF 7F 63 6D 32 64 29 04  F0 FF FF 7F 26 7B 11 40  ..cm2d).....&{.@
0150: 0F 01 4B 11 40 0F 01 0B  80 2B 11 40 0F 01 0C 80  ..K.@....+.@....
0160: 23 27 03 F0 FF FF 7F 1C  1C 0D 80 45 07 80 F0 FF  #'.........E....
0170: FF 7F F0 FF FF 7F 63 6D  32 69 06 80 55 07 80 F0  ......cm2i..U...
0180: FF FF 7F F0 FF FF 7F 63  6D 32 69 29 04 F0 FF FF  .......cm2i)....
0190: 7F 1D 2B 11 40 0F 01 0E  80 23 1C 00 80 27 03 F0  ..+.@....#...'..
01A0: FF FF 7F 1E 27 03 11 40  0F 01 1C 1C 00 80 2B 11  ....'..@......+.
01B0: 40 0F 01 0F 80 23 29 04  11 40 0F 01 24 29 04 F0  @....#)..@..$)..
01C0: FF FF 7F 26 4C 4E 00 12  40 0F 01 2B 12 40 0F 01  ...&LN..@..+.@..
01D0: 10 80 23 4A 11 40 0F 01  12 40 0F 01 4A F0 FF FF  ..#J.@...@..J...
01E0: 7F 12 40 0F 01 6F 76 F0  FF FF 7F 45 07 80 F0 FF  ..@..ov....E....
01F0: FF 7F F0 FF FF 7F 63 6D  32 66 06 80 55 07 80 F0  ......cm2f..U...
0200: FF FF 7F F0 FF FF 7F 63  6D 32 66 29 03 12 40 0F  .......cm2f)..@.
0210: 01 07 4D 2B 11 40 0F 01  11 80 23 45 07 80 F0 FF  ..M+.@....#E....
0220: FF 7F F0 FF FF 7F 63 6D  32 67 06 80 27 03 12 40  ......cm2g..'..@
0230: 0F 01 08 2B 11 40 0F 01  12 80 23 4A 12 40 0F 01  ...+.@....#J.@..
0240: 11 40 0F 01 1C 00 80 27  03 12 40 0F 01 11 2B 12  .@.....'..@...+.
0250: 40 0F 01 13 80 23 29 04  12 40 0F 01 19 29 04 12  @....#)..@...)..
0260: 40 0F 01 1A 27 03 11 40  0F 01 1D 2B 11 40 0F 01  @...'..@...+.@..
0270: 14 80 23 27 03 12 40 0F  01 11 2B 12 40 0F 01 15  ..#'..@...+.@...
0280: 80 23 29 04 12 40 0F 01  19 27 04 11 40 0F 01 1E  .#)..@...'..@...
0290: 2B 11 40 0F 01 16 80 23  27 05 12 40 0F 01 14 2B  +.@....#'..@...+
02A0: 12 40 0F 01 17 80 23 29  06 12 40 0F 01 12 2B 12  .@....#)..@...+.
02B0: 40 0F 01 18 80 23 27 05  12 40 0F 01 13 27 03 11  @....#'..@...'..
02C0: 40 0F 01 1D 2B 11 40 0F  01 19 80 23 29 06 12 40  @...+.@....#)..@
02D0: 0F 01 1A 4A 12 40 0F 01  F0 FF FF 7F 6F 76 12 40  ...J.@......ov.@
02E0: 0F 01 45 07 80 F0 FF FF  7F F0 FF FF 7F 63 6D 32  ..E..........cm2
02F0: 61 06 80 2B 12 40 0F 01  1A 80 23 27 03 12 40 0F  a..+.@....#'..@.
0300: 01 11 2B 12 40 0F 01 1B  80 23 27 04 11 40 0F 01  ..+.@....#'..@..
0310: 1E 2B 11 40 0F 01 1C 80  23 29 04 12 40 0F 01 19  .+.@....#)..@...
0320: 27 05 12 40 0F 01 12 2B  12 40 0F 01 1D 80 23 45  '..@...+.@....#E
0330: 05 80 F0 FF FF 7F F0 FF  FF 7F 66 64 6F 32 06 80  ..........fdo2..
0340: 55 05 80 F0 FF FF 7F F0  FF FF 7F 66 64 6F 32 5C  U..........fdo2\
0350: 00 1E 80 5C 01 1E 80 27  06 12 40 0F 01 13 77 1F  ...\...'..@...w.
0360: 80 06 80 7B 11 40 0F 01  1C 00 80 45 05 80 F0 FF  ...{.@.....E....
0370: FF 7F F0 FF FF 7F 66 64  69 32 06 80 45 07 80 F0  ......fdi2..E...
0380: FF FF 7F F0 FF FF 7F 63  6D 32 30 06 80 27 03 11  .......cm20..'..
0390: 40 0F 01 17 55 05 80 F0  FF FF 7F F0 FF FF 7F 66  @...U..........f
03A0: 64 69 32 2B 12 40 0F 01  20 80 23 29 04 11 40 0F  di2+.@.. .#)..@.
03B0: 01 23 55 07 80 F0 FF FF  7F F0 FF FF 7F 63 6D 32  .#U..........cm2
03C0: 30 2B 11 40 0F 01 21 80  23 45 05 80 F0 FF FF 7F  0+.@..!.#E......
03D0: F0 FF FF 7F 66 64 6F 32  06 80 55 05 80 F0 FF FF  ....fdo2..U.....
03E0: 7F F0 FF FF 7F 66 64 6F  32 77 22 80 06 80 45 07  .....fdo2w"...E.
03F0: 80 F0 FF FF 7F F0 FF FF  7F 63 6D 32 31 06 80 55  .........cm21..U
0400: 07 80 F0 FF FF 7F F0 FF  FF 7F 63 6D 32 31 1C 00  ..........cm21..
0410: 80 45 05 80 F0 FF FF 7F  F0 FF FF 7F 66 64 69 32  .E..........fdi2
0420: 06 80 27 03 11 40 0F 01  18 55 05 80 F0 FF FF 7F  ..'..@...U......
0430: F0 FF FF 7F 66 64 69 32  2B 11 40 0F 01 23 80 23  ....fdi2+.@..#.#
0440: 29 04 11 40 0F 01 23 2B  12 40 0F 01 24 80 23 45  )..@..#+.@..$.#E
0450: 05 80 F0 FF FF 7F F0 FF  FF 7F 66 64 6F 32 06 80  ..........fdo2..
0460: 55 05 80 F0 FF FF 7F F0  FF FF 7F 66 64 6F 32 77  U..........fdo2w
0470: 25 80 06 80 29 03 11 40  0F 01 19 29 03 12 40 0F  %...)..@...)..@.
0480: 01 0B 4A 12 40 0F 01 11  40 0F 01 6F 76 12 40 0F  ..J.@...@..ov.@.
0490: 01 29 04 12 40 0F 01 11  45 07 80 F0 FF FF 7F F0  .)..@...E.......
04A0: FF FF 7F 63 6D 32 32 06  80 55 07 80 F0 FF FF 7F  ...cm22..U......
04B0: F0 FF FF 7F 63 6D 32 32  45 05 80 F0 FF FF 7F F0  ....cm22E.......
04C0: FF FF 7F 66 64 69 32 06  80 55 05 80 F0 FF FF 7F  ...fdi2..U......
04D0: F0 FF FF 7F 66 64 69 32  2B 11 40 0F 01 26 80 23  ....fdi2+.@..&.#
04E0: 1C 00 80 29 04 12 40 0F  01 19 4B 12 40 0F 01 27  ...)..@...K.@..'
04F0: 80 45 07 80 F0 FF FF 7F  F0 FF FF 7F 63 6D 32 33  .E..........cm23
0500: 06 80 55 07 80 F0 FF FF  7F F0 FF FF 7F 63 6D 32  ..U..........cm2
0510: 33 4B 11 40 0F 01 27 80  6F 76 11 40 0F 01 2B 11  3K.@..'.ov.@..+.
0520: 40 0F 01 28 80 23 45 05  80 F0 FF FF 7F F0 FF FF  @..(.#E.........
0530: 7F 66 64 6F 32 06 80 55  05 80 F0 FF FF 7F F0 FF  .fdo2..U........
0540: FF 7F 66 64 6F 32 77 29  80 06 80 45 07 80 F0 FF  ..fdo2w)...E....
0550: FF 7F F0 FF FF 7F 63 6D  32 34 06 80 55 07 80 F0  ......cm24..U...
0560: FF FF 7F F0 FF FF 7F 63  6D 32 34 29 03 11 40 0F  .......cm24)..@.
0570: 01 04 29 03 12 40 0F 01  0D 29 03 10 40 0F 01 0A  ..)..@...)..@...
0580: 45 05 80 F0 FF FF 7F F0  FF FF 7F 66 64 69 32 06  E..........fdi2.
0590: 80 55 05 80 F0 FF FF 7F  F0 FF FF 7F 66 64 69 32  .U..........fdi2
05A0: 2B 11 40 0F 01 2A 80 23  27 03 11 40 0F 01 15 4B  +.@..*.#'..@...K
05B0: 11 40 0F 01 2B 80 6F 76  11 40 0F 01 45 07 80 F0  .@..+.ov.@..E...
05C0: FF FF 7F F0 FF FF 7F 63  6D 32 35 06 80 55 07 80  .......cm25..U..
05D0: F0 FF FF 7F F0 FF FF 7F  63 6D 32 35 29 04 12 40  ........cm25)..@
05E0: 0F 01 12 1C 02 80 27 05  12 40 0F 01 13 45 05 80  ......'..@...E..
05F0: F0 FF FF 7F F0 FF FF 7F  66 64 6F 32 06 80 55 05  ........fdo2..U.
0600: 80 F0 FF FF 7F F0 FF FF  7F 66 64 6F 32 1C 00 80  .........fdo2...
0610: 29 03 11 40 0F 01 1A 29  03 12 40 0F 01 0C 4A 11  )..@...)..@...J.
0620: 40 0F 01 12 40 0F 01 6F  76 11 40 0F 01 4A 12 40  @...@..ov.@..J.@
0630: 0F 01 F0 FF FF 7F 6F 76  12 40 0F 01 45 07 80 F0  ......ov.@..E...
0640: FF FF 7F F0 FF FF 7F 63  6D 32 61 06 80 55 07 80  .......cm2a..U..
0650: F0 FF FF 7F F0 FF FF 7F  63 6D 32 61 45 05 80 F0  ........cm2aE...
0660: FF FF 7F F0 FF FF 7F 66  64 69 32 06 80 55 05 80  .......fdi2..U..
0670: F0 FF FF 7F F0 FF FF 7F  66 64 69 32 2B 12 40 0F  ........fdi2+.@.
0680: 01 2C 80 23 2B 12 40 0F  01 2D 80 23 4A 12 40 0F  .,.#+.@..-.#J.@.
0690: 01 11 40 0F 01 6F 76 12  40 0F 01 27 03 12 40 0F  ..@..ov.@..'..@.
06A0: 01 12 2B 12 40 0F 01 2E  80 23 29 04 12 40 0F 01  ..+.@....#)..@..
06B0: 13 27 03 11 40 0F 01 1D  2B 11 40 0F 01 2F 80 23  .'..@...+.@../.#
06C0: 27 05 12 40 0F 01 11 2B  12 40 0F 01 30 80 23 29  '..@...+.@..0.#)
06D0: 06 12 40 0F 01 19 29 03  11 40 0F 01 1E 4A 11 40  ..@...)..@...J.@
06E0: 0F 01 F0 FF FF 7F 6F 76  11 40 0F 01 45 07 80 F0  ......ov.@..E...
06F0: FF FF 7F F0 FF FF 7F 63  6D 32 68 06 80 55 07 80  .......cm2h..U..
0700: F0 FF FF 7F F0 FF FF 7F  63 6D 32 68 27 03 11 40  ........cm2h'..@
0710: 0F 01 1C 27 03 F0 FF FF  7F 20 2B 11 40 0F 01 31  ...'..... +.@..1
0720: 80 23 4A 12 40 0F 01 F0  FF FF 7F 2B 11 40 0F 01  .#J.@......+.@..
0730: 32 80 23 29 04 11 40 0F  01 24 24 33 80 06 80 06  2.#)..@..$$3....
0740: 80 25 02 00 10 06 80 00  7C 07 05 01 10 27 04 11  .%......|....'..
0750: 40 0F 01 1C 2B 11 40 0F  01 34 80 23 27 05 11 40  @...+.@..4.#'..@
0760: 0F 01 24 27 03 12 40 0F  01 11 2B 12 40 0F 01 35  ..$'..@...+.@..5
0770: 80 23 27 04 12 40 0F 01  19 01 9D 07 02 00 10 36  .#'..@.........6
0780: 80 00 9D 07 29 04 11 40  0F 01 1D 2B 11 40 0F 01  ....)..@...+.@..
0790: 37 80 23 29 05 11 40 0F  01 1E 01 9D 07 45 05 80  7.#)..@......E..
07A0: F0 FF FF 7F F0 FF FF 7F  66 64 6F 32 06 80 55 05  ........fdo2..U.
07B0: 80 F0 FF FF 7F F0 FF FF  7F 66 64 6F 32 5C 00 38  .........fdo2\.8
07C0: 80 5C 01 38 80 29 03 F0  FF FF 7F 21 46 00 78 45  .\.8.).....!F.xE
07D0: 05 80 F0 FF FF 7F F0 FF  FF 7F 66 64 69 32 06 80  ..........fdi2..
07E0: 21 00                                             !.              
```

#### Opcodes

```
  0: 0x004C [0x03] Work_Zone[9] = 19*
  1: 0x0051 [0x20] SET_CLI_EVENT_UC_FLAG: Lock player control
  2: 0x0053 [0x46] CAMERA_CONTROL: Disable user control
  3: 0x0055 [0x75] LOAD_ROOM(Load indoor room, room=452*)
  4: 0x0059 [0x75] LOAD_ROOM(No action)
  5: 0x005B [0x42] SET_CLI_EVENT_CANCEL_DATA()
  6: 0x005C [0x4C] EventEntity->StatusEvent = 8 // Open door
  7: 0x005D [0x1C] WAIT(60* ticks)
  8: 0x0060 [0x45] LOAD_SCHEDULED_TASK: Load scheduler "fdo1" with entities [LocalPlayer, LocalPlayer], work=[200*, 0*]
  9: 0x0071 [0x55] WAIT_LOAD_SCHEDULER: Wait for scheduler "fdo1" with entities [LocalPlayer, LocalPlayer], work=200*
 10: 0x0080 [0x5C] MUSIC_CONTROL: Set Idle (Day) music to song 0*
 11: 0x0084 [0x5C] MUSIC_CONTROL: Set Idle (Night) music to song 0*
 12: 0x0088 [0x45] LOAD_SCHEDULED_TASK: Load scheduler "cm2b" with entities [LocalPlayer, LocalPlayer], work=[144*, 0*]
 13: 0x0099 [0x55] WAIT_LOAD_SCHEDULER: Wait for scheduler "cm2b" with entities [LocalPlayer, LocalPlayer], work=144*
 14: 0x00A8 [0x38] SET_CLIENT_EVENT_MODE(mode=3*)
 15: 0x00AB [0x29] REQ_SET_WAIT(priority=0x03, entity_id=LocalPlayer, tag_num=0x19)
 16: 0x00B2 [0x4E] SET_ENTITY_HIDE_FLAG: Show Galmut (ID: 17776657/0x010F4011)
 17: 0x00B8 [0x45] LOAD_SCHEDULED_TASK: Load scheduler "fdi1" with entities [LocalPlayer, LocalPlayer], work=[200*, 0*]
 18: 0x00C9 [0x55] WAIT_LOAD_SCHEDULER: Wait for scheduler "fdi1" with entities [LocalPlayer, LocalPlayer], work=200*
 19: 0x00D8 [0x29] REQ_SET_WAIT(priority=0x04, entity_id=LocalPlayer, tag_num=0x1A)
 20: 0x00DF [0x4D] EventEntity->StatusEvent = 9 // Close door
 21: 0x00E0 [0x4A] LocalPlayer looks at Galmut (ID: 17776657/0x010F4011)
 22: 0x00E9 [0x6F] WAIT_FRAME_DELAY: Yield until WaitTime reaches zero
 23: 0x00EA [0x76] CHECK_ENTITY_RENDER_FLAGS: Wait until LocalPlayer Render.Flags0 and Render.Flags3 conditions are met
 24: 0x00EF [0x1C] WAIT(10* ticks)
 25: 0x00F2 [0x4A] Galmut (ID: 17776657/0x010F4011) looks at LocalPlayer
 26: 0x00FB [0x6F] WAIT_FRAME_DELAY: Yield until WaitTime reaches zero
 27: 0x00FC [0x76] CHECK_ENTITY_RENDER_FLAGS: Wait until Galmut (ID: 17776657/0x010F4011) Render.Flags0 and Render.Flags3 conditions are met
 28: 0x0101 [0x27] REQ_SET(priority=0x03, entity_id=Galmut (ID: 17776657/0x010F4011), tag_num=0x1C)
 29: 0x0108 [0x2B] Galmut (ID: 17776657/0x010F4011) [7237*]:
    → "Well, look who's here! Welcome to my humble abode."
 30: 0x010F [0x23] WAIT_FOR_DIALOG_INTERACTION
 31: 0x0110 [0x29] REQ_SET_WAIT(priority=0x04, entity_id=Galmut (ID: 17776657/0x010F4011), tag_num=0x24)
 32: 0x0117 [0x7B] LocalPlayer stops talking
 33: 0x011C [0x27] REQ_SET(priority=0x03, entity_id=LocalPlayer, tag_num=0x1B)
 34: 0x0123 [0x1C] WAIT(10* ticks)
 35: 0x0126 [0x45] LOAD_SCHEDULED_TASK: Load scheduler "cm2d" with entities [LocalPlayer, LocalPlayer], work=[144*, 0*]
 36: 0x0137 [0x55] WAIT_LOAD_SCHEDULER: Wait for scheduler "cm2d" with entities [LocalPlayer, LocalPlayer], work=144*
 37: 0x0146 [0x29] REQ_SET_WAIT(priority=0x04, entity_id=LocalPlayer, tag_num=0x26)
 38: 0x014D [0x7B] Galmut (ID: 17776657/0x010F4011) stops talking
 39: 0x0152 [0x4B] UPDATE_ENTITY_YAW(entity=Galmut (ID: 17776657/0x010F4011), yaw=14.7°*)
 40: 0x0159 [0x2B] Galmut (ID: 17776657/0x010F4011) [7238*]:
    → "I've got lots of wacky stuff, don't I?"
 41: 0x0160 [0x23] WAIT_FOR_DIALOG_INTERACTION
 42: 0x0161 [0x27] REQ_SET(priority=0x03, entity_id=LocalPlayer, tag_num=0x1C)
 43: 0x0168 [0x1C] WAIT(150* ticks)
 44: 0x016B [0x45] LOAD_SCHEDULED_TASK: Load scheduler "cm2i" with entities [LocalPlayer, LocalPlayer], work=[144*, 0*]
 45: 0x017C [0x55] WAIT_LOAD_SCHEDULER: Wait for scheduler "cm2i" with entities [LocalPlayer, LocalPlayer], work=144*
 46: 0x018B [0x29] REQ_SET_WAIT(priority=0x04, entity_id=LocalPlayer, tag_num=0x1D)
 47: 0x0192 [0x2B] Galmut (ID: 17776657/0x010F4011) [7239*]:
    → "Heh. They may be scrap, but they're all priceless things a certain person gave me."
 48: 0x0199 [0x23] WAIT_FOR_DIALOG_INTERACTION
 49: 0x019A [0x1C] WAIT(60* ticks)
 50: 0x019D [0x27] REQ_SET(priority=0x03, entity_id=LocalPlayer, tag_num=0x1E)
 51: 0x01A4 [0x27] REQ_SET(priority=0x03, entity_id=Galmut (ID: 17776657/0x010F4011), tag_num=0x1C)
 52: 0x01AB [0x1C] WAIT(60* ticks)
 53: 0x01AE [0x2B] Galmut (ID: 17776657/0x010F4011) [7240*]:
    → "Hey, what are you doin'? That's my bed!"
 54: 0x01B5 [0x23] WAIT_FOR_DIALOG_INTERACTION
 55: 0x01B6 [0x29] REQ_SET_WAIT(priority=0x04, entity_id=Galmut (ID: 17776657/0x010F4011), tag_num=0x24)
 56: 0x01BD [0x29] REQ_SET_WAIT(priority=0x04, entity_id=LocalPlayer, tag_num=0x26)
 57: 0x01C4 [0x4C] EventEntity->StatusEvent = 8 // Open door
 58: 0x01C5 [0x4E] SET_ENTITY_HIDE_FLAG: Show Narihira (ID: 17776658/0x010F4012)
 59: 0x01CB [0x2B] Narihira (ID: 17776658/0x010F4012) [7241*]:
    → "Anybody home?"
 60: 0x01D2 [0x23] WAIT_FOR_DIALOG_INTERACTION
 61: 0x01D3 [0x4A] Galmut (ID: 17776657/0x010F4011) looks at Narihira (ID: 17776658/0x010F4012)
 62: 0x01DC [0x4A] LocalPlayer looks at Narihira (ID: 17776658/0x010F4012)
 63: 0x01E5 [0x6F] WAIT_FRAME_DELAY: Yield until WaitTime reaches zero
 64: 0x01E6 [0x76] CHECK_ENTITY_RENDER_FLAGS: Wait until LocalPlayer Render.Flags0 and Render.Flags3 conditions are met
 65: 0x01EB [0x45] LOAD_SCHEDULED_TASK: Load scheduler "cm2f" with entities [LocalPlayer, LocalPlayer], work=[144*, 0*]
 66: 0x01FC [0x55] WAIT_LOAD_SCHEDULER: Wait for scheduler "cm2f" with entities [LocalPlayer, LocalPlayer], work=144*
 67: 0x020B [0x29] REQ_SET_WAIT(priority=0x03, entity_id=Narihira (ID: 17776658/0x010F4012), tag_num=0x07)
 68: 0x0212 [0x4D] EventEntity->StatusEvent = 9 // Close door
 69: 0x0213 [0x2B] Galmut (ID: 17776657/0x010F4011) [7242*]:
    → "Well, speak of the devil... It's Mr. Narihira!"
 70: 0x021A [0x23] WAIT_FOR_DIALOG_INTERACTION
 71: 0x021B [0x45] LOAD_SCHEDULED_TASK: Load scheduler "cm2g" with entities [LocalPlayer, LocalPlayer], work=[144*, 0*]
 72: 0x022C [0x27] REQ_SET(priority=0x03, entity_id=Narihira (ID: 17776658/0x010F4012), tag_num=0x08)
 73: 0x0233 [0x2B] Galmut (ID: 17776657/0x010F4011) [7243*]:
    → "I see you're still kickin'."
 74: 0x023A [0x23] WAIT_FOR_DIALOG_INTERACTION
 75: 0x023B [0x4A] Narihira (ID: 17776658/0x010F4012) looks at Galmut (ID: 17776657/0x010F4011)
 76: 0x0244 [0x1C] WAIT(60* ticks)
 77: 0x0247 [0x27] REQ_SET(priority=0x03, entity_id=Narihira (ID: 17776658/0x010F4012), tag_num=0x11)
 78: 0x024E [0x2B] Narihira (ID: 17776658/0x010F4012) [7244*]:
    → "Hah! You post-war youngsters ain't got nothin' on my generation!"
 79: 0x0255 [0x23] WAIT_FOR_DIALOG_INTERACTION
 80: 0x0256 [0x29] REQ_SET_WAIT(priority=0x04, entity_id=Narihira (ID: 17776658/0x010F4012), tag_num=0x19)
 81: 0x025D [0x29] REQ_SET_WAIT(priority=0x04, entity_id=Narihira (ID: 17776658/0x010F4012), tag_num=0x1A)
 82: 0x0264 [0x27] REQ_SET(priority=0x03, entity_id=Galmut (ID: 17776657/0x010F4011), tag_num=0x1D)
 83: 0x026B [0x2B] Galmut (ID: 17776657/0x010F4011) [7245*]:
    → "Well, it's good to see you."
 84: 0x0272 [0x23] WAIT_FOR_DIALOG_INTERACTION
 85: 0x0273 [0x27] REQ_SET(priority=0x03, entity_id=Narihira (ID: 17776658/0x010F4012), tag_num=0x11)
 86: 0x027A [0x2B] Narihira (ID: 17776658/0x010F4012) [7246*]:
    → "How's the clock, Galmut?"
 87: 0x0281 [0x23] WAIT_FOR_DIALOG_INTERACTION
 88: 0x0282 [0x29] REQ_SET_WAIT(priority=0x04, entity_id=Narihira (ID: 17776658/0x010F4012), tag_num=0x19)
 89: 0x0289 [0x27] REQ_SET(priority=0x04, entity_id=Galmut (ID: 17776657/0x010F4011), tag_num=0x1E)
 90: 0x0290 [0x2B] Galmut (ID: 17776657/0x010F4011) [7247*]:
    → "I've been taking good care of her. Don't tell me you can't hear her ring!"
 91: 0x0297 [0x23] WAIT_FOR_DIALOG_INTERACTION
 92: 0x0298 [0x27] REQ_SET(priority=0x05, entity_id=Narihira (ID: 17776658/0x010F4012), tag_num=0x14)
 93: 0x029F [0x2B] Narihira (ID: 17776658/0x010F4012) [7248*]:
    → "Huh? What did you say? Just kiddin'. Of course I hear her fine!"
 94: 0x02A6 [0x23] WAIT_FOR_DIALOG_INTERACTION
 95: 0x02A7 [0x29] REQ_SET_WAIT(priority=0x06, entity_id=Narihira (ID: 17776658/0x010F4012), tag_num=0x12)
 96: 0x02AE [0x2B] Narihira (ID: 17776658/0x010F4012) [7249*]:
    → "But I hear the gears struggling a little. Might be time to give her some oil."
 97: 0x02B5 [0x23] WAIT_FOR_DIALOG_INTERACTION
 98: 0x02B6 [0x27] REQ_SET(priority=0x05, entity_id=Narihira (ID: 17776658/0x010F4012), tag_num=0x13)
 99: 0x02BD [0x27] REQ_SET(priority=0x03, entity_id=Galmut (ID: 17776657/0x010F4011), tag_num=0x1D)
100: 0x02C4 [0x2B] Galmut (ID: 17776657/0x010F4011) [7250*]:
    → "Well, you haven't changed a bit!"
101: 0x02CB [0x23] WAIT_FOR_DIALOG_INTERACTION
102: 0x02CC [0x29] REQ_SET_WAIT(priority=0x06, entity_id=Narihira (ID: 17776658/0x010F4012), tag_num=0x1A)
103: 0x02D3 [0x4A] Narihira (ID: 17776658/0x010F4012) looks at LocalPlayer
104: 0x02DC [0x6F] WAIT_FRAME_DELAY: Yield until WaitTime reaches zero
105: 0x02DD [0x76] CHECK_ENTITY_RENDER_FLAGS: Wait until Narihira (ID: 17776658/0x010F4012) Render.Flags0 and Render.Flags3 conditions are met
106: 0x02E2 [0x45] LOAD_SCHEDULED_TASK: Load scheduler "cm2a" with entities [LocalPlayer, LocalPlayer], work=[144*, 0*]
107: 0x02F3 [0x2B] Narihira (ID: 17776658/0x010F4012) [7251*]:
    → "And I see you've got a friend over!"
108: 0x02FA [0x23] WAIT_FOR_DIALOG_INTERACTION
109: 0x02FB [0x27] REQ_SET(priority=0x03, entity_id=Narihira (ID: 17776658/0x010F4012), tag_num=0x11)
110: 0x0302 [0x2B] Narihira (ID: 17776658/0x010F4012) [7252*]:
    → "Listen here, young one. Galmut's a model citizen now, but he was a regular hooligan before!"
111: 0x0309 [0x23] WAIT_FOR_DIALOG_INTERACTION
112: 0x030A [0x27] REQ_SET(priority=0x04, entity_id=Galmut (ID: 17776657/0x010F4011), tag_num=0x1E)
113: 0x0311 [0x2B] Galmut (ID: 17776657/0x010F4011) [7253*]:
    → "Oh, no, not that again!"
114: 0x0318 [0x23] WAIT_FOR_DIALOG_INTERACTION
115: 0x0319 [0x29] REQ_SET_WAIT(priority=0x04, entity_id=Narihira (ID: 17776658/0x010F4012), tag_num=0x19)
116: 0x0320 [0x27] REQ_SET(priority=0x05, entity_id=Narihira (ID: 17776658/0x010F4012), tag_num=0x12)
117: 0x0327 [0x2B] Narihira (ID: 17776658/0x010F4012) [7254*]:
    → "Ohohoho! Defensive, aren't we? Anyway, Galmut came to Jeuno about three years ago..."
118: 0x032E [0x23] WAIT_FOR_DIALOG_INTERACTION
119: 0x032F [0x45] LOAD_SCHEDULED_TASK: Load scheduler "fdo2" with entities [LocalPlayer, LocalPlayer], work=[200*, 0*]
120: 0x0340 [0x55] WAIT_LOAD_SCHEDULER: Wait for scheduler "fdo2" with entities [LocalPlayer, LocalPlayer], work=200*
121: 0x034F [0x5C] MUSIC_CONTROL: Set Idle (Day) music to song 124*
122: 0x0353 [0x5C] MUSIC_CONTROL: Set Idle (Night) music to song 124*
123: 0x0357 [0x27] REQ_SET(priority=0x06, entity_id=Narihira (ID: 17776658/0x010F4012), tag_num=0x13)
124: 0x035E [0x77] SET_EVENT_TIME_WEATHER(hour=12*, weather=0*)
125: 0x0363 [0x7B] Galmut (ID: 17776657/0x010F4011) stops talking
126: 0x0368 [0x1C] WAIT(60* ticks)
127: 0x036B [0x45] LOAD_SCHEDULED_TASK: Load scheduler "fdi2" with entities [LocalPlayer, LocalPlayer], work=[200*, 0*]
128: 0x037C [0x45] LOAD_SCHEDULED_TASK: Load scheduler "cm20" with entities [LocalPlayer, LocalPlayer], work=[144*, 0*]
129: 0x038D [0x27] REQ_SET(priority=0x03, entity_id=Galmut (ID: 17776657/0x010F4011), tag_num=0x17)
130: 0x0394 [0x55] WAIT_LOAD_SCHEDULER: Wait for scheduler "fdi2" with entities [LocalPlayer, LocalPlayer], work=200*
131: 0x03A3 [0x2B] Narihira (ID: 17776658/0x010F4012) [7255*]:
    → "He came to the big city to make his mark. Every day he worked from sunrise to sunset!"
132: 0x03AA [0x23] WAIT_FOR_DIALOG_INTERACTION
133: 0x03AB [0x29] REQ_SET_WAIT(priority=0x04, entity_id=Galmut (ID: 17776657/0x010F4011), tag_num=0x23)
134: 0x03B2 [0x55] WAIT_LOAD_SCHEDULER: Wait for scheduler "cm20" with entities [LocalPlayer, LocalPlayer], work=144*
135: 0x03C1 [0x2B] Galmut (ID: 17776657/0x010F4011) [7256*]:
    → "And when I finally got enough dough to open my own shop..."
136: 0x03C8 [0x23] WAIT_FOR_DIALOG_INTERACTION
137: 0x03C9 [0x45] LOAD_SCHEDULED_TASK: Load scheduler "fdo2" with entities [LocalPlayer, LocalPlayer], work=[200*, 0*]
138: 0x03DA [0x55] WAIT_LOAD_SCHEDULER: Wait for scheduler "fdo2" with entities [LocalPlayer, LocalPlayer], work=200*
139: 0x03E9 [0x77] SET_EVENT_TIME_WEATHER(hour=22*, weather=0*)
140: 0x03EE [0x45] LOAD_SCHEDULED_TASK: Load scheduler "cm21" with entities [LocalPlayer, LocalPlayer], work=[144*, 0*]
141: 0x03FF [0x55] WAIT_LOAD_SCHEDULER: Wait for scheduler "cm21" with entities [LocalPlayer, LocalPlayer], work=144*
142: 0x040E [0x1C] WAIT(60* ticks)
143: 0x0411 [0x45] LOAD_SCHEDULED_TASK: Load scheduler "fdi2" with entities [LocalPlayer, LocalPlayer], work=[200*, 0*]
144: 0x0422 [0x27] REQ_SET(priority=0x03, entity_id=Galmut (ID: 17776657/0x010F4011), tag_num=0x18)
145: 0x0429 [0x55] WAIT_LOAD_SCHEDULER: Wait for scheduler "fdi2" with entities [LocalPlayer, LocalPlayer], work=200*
146: 0x0438 [0x2B] Galmut (ID: 17776657/0x010F4011) [7257*]:
    → "I got conned out of all of it. I lost every last gil..."
147: 0x043F [0x23] WAIT_FOR_DIALOG_INTERACTION
148: 0x0440 [0x29] REQ_SET_WAIT(priority=0x04, entity_id=Galmut (ID: 17776657/0x010F4011), tag_num=0x23)
149: 0x0447 [0x2B] Narihira (ID: 17776658/0x010F4012) [7258*]:
    → "And that really shook him! He lost faith in his fellow man...scowling at everyone like a starving dog."
150: 0x044E [0x23] WAIT_FOR_DIALOG_INTERACTION
151: 0x044F [0x45] LOAD_SCHEDULED_TASK: Load scheduler "fdo2" with entities [LocalPlayer, LocalPlayer], work=[200*, 0*]
152: 0x0460 [0x55] WAIT_LOAD_SCHEDULER: Wait for scheduler "fdo2" with entities [LocalPlayer, LocalPlayer], work=200*
153: 0x046F [0x77] SET_EVENT_TIME_WEATHER(hour=18*, weather=0*)
154: 0x0474 [0x29] REQ_SET_WAIT(priority=0x03, entity_id=Galmut (ID: 17776657/0x010F4011), tag_num=0x19)
155: 0x047B [0x29] REQ_SET_WAIT(priority=0x03, entity_id=Narihira (ID: 17776658/0x010F4012), tag_num=0x0B)
156: 0x0482 [0x4A] Narihira (ID: 17776658/0x010F4012) looks at Galmut (ID: 17776657/0x010F4011)
157: 0x048B [0x6F] WAIT_FRAME_DELAY: Yield until WaitTime reaches zero
158: 0x048C [0x76] CHECK_ENTITY_RENDER_FLAGS: Wait until Narihira (ID: 17776658/0x010F4012) Render.Flags0 and Render.Flags3 conditions are met
159: 0x0491 [0x29] REQ_SET_WAIT(priority=0x04, entity_id=Narihira (ID: 17776658/0x010F4012), tag_num=0x11)
160: 0x0498 [0x45] LOAD_SCHEDULED_TASK: Load scheduler "cm22" with entities [LocalPlayer, LocalPlayer], work=[144*, 0*]
161: 0x04A9 [0x55] WAIT_LOAD_SCHEDULER: Wait for scheduler "cm22" with entities [LocalPlayer, LocalPlayer], work=144*
162: 0x04B8 [0x45] LOAD_SCHEDULED_TASK: Load scheduler "fdi2" with entities [LocalPlayer, LocalPlayer], work=[200*, 0*]
163: 0x04C9 [0x55] WAIT_LOAD_SCHEDULER: Wait for scheduler "fdi2" with entities [LocalPlayer, LocalPlayer], work=200*
164: 0x04D8 [0x2B] Galmut (ID: 17776657/0x010F4011) [7259*]:
    → "That's when Mr. Narihira offered me a job in the clock tower."
165: 0x04DF [0x23] WAIT_FOR_DIALOG_INTERACTION
166: 0x04E0 [0x1C] WAIT(60* ticks)
167: 0x04E3 [0x29] REQ_SET_WAIT(priority=0x04, entity_id=Narihira (ID: 17776658/0x010F4012), tag_num=0x19)
168: 0x04EA [0x4B] UPDATE_ENTITY_YAW(entity=Narihira (ID: 17776658/0x010F4012), yaw=20.8°*)
169: 0x04F1 [0x45] LOAD_SCHEDULED_TASK: Load scheduler "cm23" with entities [LocalPlayer, LocalPlayer], work=[144*, 0*]
170: 0x0502 [0x55] WAIT_LOAD_SCHEDULER: Wait for scheduler "cm23" with entities [LocalPlayer, LocalPlayer], work=144*
171: 0x0511 [0x4B] UPDATE_ENTITY_YAW(entity=Galmut (ID: 17776657/0x010F4011), yaw=20.8°*)
172: 0x0518 [0x6F] WAIT_FRAME_DELAY: Yield until WaitTime reaches zero
173: 0x0519 [0x76] CHECK_ENTITY_RENDER_FLAGS: Wait until Galmut (ID: 17776657/0x010F4011) Render.Flags0 and Render.Flags3 conditions are met
174: 0x051E [0x2B] Galmut (ID: 17776657/0x010F4011) [7260*]:
    → "At first I thought he was just another con man. But once I started, I really enjoyed it."
175: 0x0525 [0x23] WAIT_FOR_DIALOG_INTERACTION
176: 0x0526 [0x45] LOAD_SCHEDULED_TASK: Load scheduler "fdo2" with entities [LocalPlayer, LocalPlayer], work=[200*, 0*]
177: 0x0537 [0x55] WAIT_LOAD_SCHEDULER: Wait for scheduler "fdo2" with entities [LocalPlayer, LocalPlayer], work=200*
178: 0x0546 [0x77] SET_EVENT_TIME_WEATHER(hour=6*, weather=0*)
179: 0x054B [0x45] LOAD_SCHEDULED_TASK: Load scheduler "cm24" with entities [LocalPlayer, LocalPlayer], work=[144*, 0*]
180: 0x055C [0x55] WAIT_LOAD_SCHEDULER: Wait for scheduler "cm24" with entities [LocalPlayer, LocalPlayer], work=144*
181: 0x056B [0x29] REQ_SET_WAIT(priority=0x03, entity_id=Galmut (ID: 17776657/0x010F4011), tag_num=0x04)
182: 0x0572 [0x29] REQ_SET_WAIT(priority=0x03, entity_id=Narihira (ID: 17776658/0x010F4012), tag_num=0x0D)
183: 0x0579 [0x29] REQ_SET_WAIT(priority=0x03, entity_id=Collet (ID: 17776656/0x010F4010), tag_num=0x0A)
184: 0x0580 [0x45] LOAD_SCHEDULED_TASK: Load scheduler "fdi2" with entities [LocalPlayer, LocalPlayer], work=[200*, 0*]
185: 0x0591 [0x55] WAIT_LOAD_SCHEDULER: Wait for scheduler "fdi2" with entities [LocalPlayer, LocalPlayer], work=200*
186: 0x05A0 [0x2B] Galmut (ID: 17776657/0x010F4011) [7261*]:
    → "You know, you work so hard in there that when you finally hear the bell ring... Man, it echoes right to the heart!"
187: 0x05A7 [0x23] WAIT_FOR_DIALOG_INTERACTION
188: 0x05A8 [0x27] REQ_SET(priority=0x03, entity_id=Galmut (ID: 17776657/0x010F4011), tag_num=0x15)
189: 0x05AF [0x4B] UPDATE_ENTITY_YAW(entity=Galmut (ID: 17776657/0x010F4011), yaw=11.5°*)
190: 0x05B6 [0x6F] WAIT_FRAME_DELAY: Yield until WaitTime reaches zero
191: 0x05B7 [0x76] CHECK_ENTITY_RENDER_FLAGS: Wait until Galmut (ID: 17776657/0x010F4011) Render.Flags0 and Render.Flags3 conditions are met
192: 0x05BC [0x45] LOAD_SCHEDULED_TASK: Load scheduler "cm25" with entities [LocalPlayer, LocalPlayer], work=[144*, 0*]
193: 0x05CD [0x55] WAIT_LOAD_SCHEDULER: Wait for scheduler "cm25" with entities [LocalPlayer, LocalPlayer], work=144*
194: 0x05DC [0x29] REQ_SET_WAIT(priority=0x04, entity_id=Narihira (ID: 17776658/0x010F4012), tag_num=0x12)
195: 0x05E3 [0x1C] WAIT(120* ticks)
196: 0x05E6 [0x27] REQ_SET(priority=0x05, entity_id=Narihira (ID: 17776658/0x010F4012), tag_num=0x13)
197: 0x05ED [0x45] LOAD_SCHEDULED_TASK: Load scheduler "fdo2" with entities [LocalPlayer, LocalPlayer], work=[200*, 0*]
198: 0x05FE [0x55] WAIT_LOAD_SCHEDULER: Wait for scheduler "fdo2" with entities [LocalPlayer, LocalPlayer], work=200*
199: 0x060D [0x1C] WAIT(60* ticks)
200: 0x0610 [0x29] REQ_SET_WAIT(priority=0x03, entity_id=Galmut (ID: 17776657/0x010F4011), tag_num=0x1A)
201: 0x0617 [0x29] REQ_SET_WAIT(priority=0x03, entity_id=Narihira (ID: 17776658/0x010F4012), tag_num=0x0C)
202: 0x061E [0x4A] Galmut (ID: 17776657/0x010F4011) looks at Narihira (ID: 17776658/0x010F4012)
203: 0x0627 [0x6F] WAIT_FRAME_DELAY: Yield until WaitTime reaches zero
204: 0x0628 [0x76] CHECK_ENTITY_RENDER_FLAGS: Wait until Galmut (ID: 17776657/0x010F4011) Render.Flags0 and Render.Flags3 conditions are met
205: 0x062D [0x4A] Narihira (ID: 17776658/0x010F4012) looks at LocalPlayer
206: 0x0636 [0x6F] WAIT_FRAME_DELAY: Yield until WaitTime reaches zero
207: 0x0637 [0x76] CHECK_ENTITY_RENDER_FLAGS: Wait until Narihira (ID: 17776658/0x010F4012) Render.Flags0 and Render.Flags3 conditions are met
208: 0x063C [0x45] LOAD_SCHEDULED_TASK: Load scheduler "cm2a" with entities [LocalPlayer, LocalPlayer], work=[144*, 0*]
209: 0x064D [0x55] WAIT_LOAD_SCHEDULER: Wait for scheduler "cm2a" with entities [LocalPlayer, LocalPlayer], work=144*
210: 0x065C [0x45] LOAD_SCHEDULED_TASK: Load scheduler "fdi2" with entities [LocalPlayer, LocalPlayer], work=[200*, 0*]
211: 0x066D [0x55] WAIT_LOAD_SCHEDULER: Wait for scheduler "fdi2" with entities [LocalPlayer, LocalPlayer], work=200*
212: 0x067C [0x2B] Narihira (ID: 17776658/0x010F4012) [7262*]:
    → "And I was glad to find someone who'd carry on in my place."
213: 0x0683 [0x23] WAIT_FOR_DIALOG_INTERACTION
214: 0x0684 [0x2B] Narihira (ID: 17776658/0x010F4012) [7263*]:
    → "Oh yeah... I almost forgot!"
215: 0x068B [0x23] WAIT_FOR_DIALOG_INTERACTION
216: 0x068C [0x4A] Narihira (ID: 17776658/0x010F4012) looks at Galmut (ID: 17776657/0x010F4011)
217: 0x0695 [0x6F] WAIT_FRAME_DELAY: Yield until WaitTime reaches zero
218: 0x0696 [0x76] CHECK_ENTITY_RENDER_FLAGS: Wait until Narihira (ID: 17776658/0x010F4012) Render.Flags0 and Render.Flags3 conditions are met
219: 0x069B [0x27] REQ_SET(priority=0x03, entity_id=Narihira (ID: 17776658/0x010F4012), tag_num=0x12)
220: 0x06A2 [0x2B] Narihira (ID: 17776658/0x010F4012) [7264*]:
    → "We need $6. And with the beastmen on the rampage, the store's almost out."
221: 0x06A9 [0x23] WAIT_FOR_DIALOG_INTERACTION
222: 0x06AA [0x29] REQ_SET_WAIT(priority=0x04, entity_id=Narihira (ID: 17776658/0x010F4012), tag_num=0x13)
223: 0x06B1 [0x27] REQ_SET(priority=0x03, entity_id=Galmut (ID: 17776657/0x010F4011), tag_num=0x1D)
224: 0x06B8 [0x2B] Galmut (ID: 17776657/0x010F4011) [7265*]:
    → "No way, really? Without oil, we..."
225: 0x06BF [0x23] WAIT_FOR_DIALOG_INTERACTION
226: 0x06C0 [0x27] REQ_SET(priority=0x05, entity_id=Narihira (ID: 17776658/0x010F4012), tag_num=0x11)
227: 0x06C7 [0x2B] Narihira (ID: 17776658/0x010F4012) [7266*]:
    → "Maybe the Tenshodo still has some. I hate doing business with their kind, though."
228: 0x06CE [0x23] WAIT_FOR_DIALOG_INTERACTION
229: 0x06CF [0x29] REQ_SET_WAIT(priority=0x06, entity_id=Narihira (ID: 17776658/0x010F4012), tag_num=0x19)
230: 0x06D6 [0x29] REQ_SET_WAIT(priority=0x03, entity_id=Galmut (ID: 17776657/0x010F4011), tag_num=0x1E)
231: 0x06DD [0x4A] Galmut (ID: 17776657/0x010F4011) looks at LocalPlayer
232: 0x06E6 [0x6F] WAIT_FRAME_DELAY: Yield until WaitTime reaches zero
233: 0x06E7 [0x76] CHECK_ENTITY_RENDER_FLAGS: Wait until Galmut (ID: 17776657/0x010F4011) Render.Flags0 and Render.Flags3 conditions are met
234: 0x06EC [0x45] LOAD_SCHEDULED_TASK: Load scheduler "cm2h" with entities [LocalPlayer, LocalPlayer], work=[144*, 0*]
235: 0x06FD [0x55] WAIT_LOAD_SCHEDULER: Wait for scheduler "cm2h" with entities [LocalPlayer, LocalPlayer], work=144*
236: 0x070C [0x27] REQ_SET(priority=0x03, entity_id=Galmut (ID: 17776657/0x010F4011), tag_num=0x1C)
237: 0x0713 [0x27] REQ_SET(priority=0x03, entity_id=LocalPlayer, tag_num=0x20)
238: 0x071A [0x2B] Galmut (ID: 17776657/0x010F4011) [7267*]:
    → "Me, too... Hey, I know! Would you mind bringing us $6?"
239: 0x0721 [0x23] WAIT_FOR_DIALOG_INTERACTION
240: 0x0722 [0x4A] Narihira (ID: 17776658/0x010F4012) looks at LocalPlayer
241: 0x072B [0x2B] Galmut (ID: 17776657/0x010F4011) [7268*]:
    → "We'd be so grateful. She's such a delicate machine... Without it, I'm afraid she'd go haywire!"
242: 0x0732 [0x23] WAIT_FOR_DIALOG_INTERACTION
243: 0x0733 [0x29] REQ_SET_WAIT(priority=0x04, entity_id=Galmut (ID: 17776657/0x010F4011), tag_num=0x24)
244: 0x073A [0x24] CREATE_DIALOG(message_id=7269*, default_option=0*, option_flags=0*)
    → "Will you help them? [Yes./Not right now.]"
245: 0x0741 [0x25] WAIT_DIALOG_SELECT()
246: 0x0742 [0x02] IF !(Work_Zone[0] == 0*) GOTO 0x077C
247: 0x074A [0x05] Work_Zone[1] = 1
248: 0x074D [0x27] REQ_SET(priority=0x04, entity_id=Galmut (ID: 17776657/0x010F4011), tag_num=0x1C)
249: 0x0754 [0x2B] Galmut (ID: 17776657/0x010F4011) [7270*]:
    → "All right! Thanks a bunch!"
250: 0x075B [0x23] WAIT_FOR_DIALOG_INTERACTION
251: 0x075C [0x27] REQ_SET(priority=0x05, entity_id=Galmut (ID: 17776657/0x010F4011), tag_num=0x24)
252: 0x0763 [0x27] REQ_SET(priority=0x03, entity_id=Narihira (ID: 17776658/0x010F4012), tag_num=0x11)
253: 0x076A [0x2B] Narihira (ID: 17776658/0x010F4012) [7271*]:
    → "First, head over to the Tenshodo, here in Jeuno."
254: 0x0771 [0x23] WAIT_FOR_DIALOG_INTERACTION
255: 0x0772 [0x27] REQ_SET(priority=0x04, entity_id=Narihira (ID: 17776658/0x010F4012), tag_num=0x19)
256: 0x0779 [0x01] GOTO 0x079D
257: 0x077C [0x02] IF !(Work_Zone[0] == 1*) GOTO 0x079D
258: 0x0784 [0x29] REQ_SET_WAIT(priority=0x04, entity_id=Galmut (ID: 17776657/0x010F4011), tag_num=0x1D)
259: 0x078B [0x2B] Galmut (ID: 17776657/0x010F4011) [7272*]:
    → "Oh, yeah? Well, tell me if you change your mind. We've gotta do something."
260: 0x0792 [0x23] WAIT_FOR_DIALOG_INTERACTION
261: 0x0793 [0x29] REQ_SET_WAIT(priority=0x05, entity_id=Galmut (ID: 17776657/0x010F4011), tag_num=0x1E)
262: 0x079A [0x01] GOTO 0x079D

SUBROUTINE_079D:
263: 0x079D [0x45] LOAD_SCHEDULED_TASK: Load scheduler "fdo2" with entities [LocalPlayer, LocalPlayer], work=[200*, 0*]
264: 0x07AE [0x55] WAIT_LOAD_SCHEDULER: Wait for scheduler "fdo2" with entities [LocalPlayer, LocalPlayer], work=200*
265: 0x07BD [0x5C] MUSIC_CONTROL: Set Idle (Day) music to song 110*
266: 0x07C1 [0x5C] MUSIC_CONTROL: Set Idle (Night) music to song 110*
267: 0x07C5 [0x29] REQ_SET_WAIT(priority=0x03, entity_id=LocalPlayer, tag_num=0x21)
268: 0x07CC [0x46] CAMERA_CONTROL: Restore default settings
269: 0x07CE [0x78] ENABLE_GAME_TIMER_RESET_WEATHER()
270: 0x07CF [0x45] LOAD_SCHEDULED_TASK: Load scheduler "fdi2" with entities [LocalPlayer, LocalPlayer], work=[200*, 0*]
271: 0x07E0 [0x21] END_EVENT
272: 0x07E1 [0x00] END_REQSTACK()
```

### Event 118

#### Metadata

| Field        | Value     |
|--------------|-----------|
| Entrypoint   | 0x07E2    |
| Data Size    | 155 bytes |
| Instructions | 34        |

```
      00 01 02 03 04 05 06 07  08 09 0A 0B 0C 0D 0E 0F
      -- -- -- -- -- -- -- --  -- -- -- -- -- -- -- --
07E0:       03 09 10 03 80 20  01 42 4C 1C 00 80 29 03    ..... .BL...).
07F0: 11 40 0F 01 08 4A 11 40  0F 01 F0 FF FF 7F 6F 76  .@...J.@......ov
0800: 11 40 0F 01 4A F0 FF FF  7F 11 40 0F 01 27 04 11  .@..J.....@..'..
0810: 40 0F 01 1C 2B 11 40 0F  01 39 80 23 29 04 11 40  @...+.@..9.#)..@
0820: 0F 01 24 24 33 80 06 80  06 80 25 02 00 10 06 80  ..$$3.....%.....
0830: 00 4F 08 05 01 10 27 04  11 40 0F 01 1C 2B 11 40  .O....'..@...+.@
0840: 0F 01 3A 80 23 29 05 11  40 0F 01 24 01 70 08 02  ..:.#)..@..$.p..
0850: 00 10 36 80 00 70 08 29  04 11 40 0F 01 1D 2B 11  ..6..p.)..@...+.
0860: 40 0F 01 37 80 23 29 05  11 40 0F 01 1E 01 70 08  @..7.#)..@....p.
0870: 29 03 11 40 0F 01 09 4D  1C 02 80 21 00           )..@...M...!.   
```

#### Opcodes

```
  0: 0x07E2 [0x03] Work_Zone[9] = 19*
  1: 0x07E7 [0x20] SET_CLI_EVENT_UC_FLAG: Lock player control
  2: 0x07E9 [0x42] SET_CLI_EVENT_CANCEL_DATA()
  3: 0x07EA [0x4C] EventEntity->StatusEvent = 8 // Open door
  4: 0x07EB [0x1C] WAIT(60* ticks)
  5: 0x07EE [0x29] REQ_SET_WAIT(priority=0x03, entity_id=Galmut (ID: 17776657/0x010F4011), tag_num=0x08)
  6: 0x07F5 [0x4A] Galmut (ID: 17776657/0x010F4011) looks at LocalPlayer
  7: 0x07FE [0x6F] WAIT_FRAME_DELAY: Yield until WaitTime reaches zero
  8: 0x07FF [0x76] CHECK_ENTITY_RENDER_FLAGS: Wait until Galmut (ID: 17776657/0x010F4011) Render.Flags0 and Render.Flags3 conditions are met
  9: 0x0804 [0x4A] LocalPlayer looks at Galmut (ID: 17776657/0x010F4011)
 10: 0x080D [0x27] REQ_SET(priority=0x04, entity_id=Galmut (ID: 17776657/0x010F4011), tag_num=0x1C)
 11: 0x0814 [0x2B] Galmut (ID: 17776657/0x010F4011) [7273*]:
    → "Oh, it's you. We still can't find any $3."
 12: 0x081B [0x23] WAIT_FOR_DIALOG_INTERACTION
 13: 0x081C [0x29] REQ_SET_WAIT(priority=0x04, entity_id=Galmut (ID: 17776657/0x010F4011), tag_num=0x24)
 14: 0x0823 [0x24] CREATE_DIALOG(message_id=7269*, default_option=0*, option_flags=0*)
    → "Will you help them? [Yes./Not right now.]"
 15: 0x082A [0x25] WAIT_DIALOG_SELECT()
 16: 0x082B [0x02] IF !(Work_Zone[0] == 0*) GOTO 0x084F
 17: 0x0833 [0x05] Work_Zone[1] = 1
 18: 0x0836 [0x27] REQ_SET(priority=0x04, entity_id=Galmut (ID: 17776657/0x010F4011), tag_num=0x1C)
 19: 0x083D [0x2B] Galmut (ID: 17776657/0x010F4011) [7274*]:
    → "Mr. Narihira said that the Tenshodo has some. Without it, sooner or later the gears will come to a stop!"
 20: 0x0844 [0x23] WAIT_FOR_DIALOG_INTERACTION
 21: 0x0845 [0x29] REQ_SET_WAIT(priority=0x05, entity_id=Galmut (ID: 17776657/0x010F4011), tag_num=0x24)
 22: 0x084C [0x01] GOTO 0x0870
 23: 0x084F [0x02] IF !(Work_Zone[0] == 1*) GOTO 0x0870
 24: 0x0857 [0x29] REQ_SET_WAIT(priority=0x04, entity_id=Galmut (ID: 17776657/0x010F4011), tag_num=0x1D)
 25: 0x085E [0x2B] Galmut (ID: 17776657/0x010F4011) [7272*]:
    → "Oh, yeah? Well, tell me if you change your mind. We've gotta do something."
 26: 0x0865 [0x23] WAIT_FOR_DIALOG_INTERACTION
 27: 0x0866 [0x29] REQ_SET_WAIT(priority=0x05, entity_id=Galmut (ID: 17776657/0x010F4011), tag_num=0x1E)
 28: 0x086D [0x01] GOTO 0x0870

SUBROUTINE_0870:
 29: 0x0870 [0x29] REQ_SET_WAIT(priority=0x03, entity_id=Galmut (ID: 17776657/0x010F4011), tag_num=0x09)
 30: 0x0877 [0x4D] EventEntity->StatusEvent = 9 // Close door
 31: 0x0878 [0x1C] WAIT(120* ticks)
 32: 0x087B [0x21] END_EVENT
 33: 0x087C [0x00] END_REQSTACK()
```

### Event 117

#### Metadata

| Field        | Value    |
|--------------|----------|
| Entrypoint   | 0x087D   |
| Data Size    | 78 bytes |
| Instructions | 19       |

```
      00 01 02 03 04 05 06 07  08 09 0A 0B 0C 0D 0E 0F
      -- -- -- -- -- -- -- --  -- -- -- -- -- -- -- --
0870:                                         03 09 10               ...
0880: 03 80 20 01 42 4C 1C 00  80 29 03 11 40 0F 01 08  .. .BL...)..@...
0890: 4A 11 40 0F 01 F0 FF FF  7F 6F 76 11 40 0F 01 4A  J.@......ov.@..J
08A0: F0 FF FF 7F 11 40 0F 01  27 04 11 40 0F 01 1C 2B  .....@..'..@...+
08B0: 11 40 0F 01 3A 80 23 29  04 11 40 0F 01 24 29 03  .@..:.#)..@..$).
08C0: 11 40 0F 01 09 4D 1C 02  80 21 00                 .@...M...!.     
```

#### Opcodes

```
  0: 0x087D [0x03] Work_Zone[9] = 19*
  1: 0x0882 [0x20] SET_CLI_EVENT_UC_FLAG: Lock player control
  2: 0x0884 [0x42] SET_CLI_EVENT_CANCEL_DATA()
  3: 0x0885 [0x4C] EventEntity->StatusEvent = 8 // Open door
  4: 0x0886 [0x1C] WAIT(60* ticks)
  5: 0x0889 [0x29] REQ_SET_WAIT(priority=0x03, entity_id=Galmut (ID: 17776657/0x010F4011), tag_num=0x08)
  6: 0x0890 [0x4A] Galmut (ID: 17776657/0x010F4011) looks at LocalPlayer
  7: 0x0899 [0x6F] WAIT_FRAME_DELAY: Yield until WaitTime reaches zero
  8: 0x089A [0x76] CHECK_ENTITY_RENDER_FLAGS: Wait until Galmut (ID: 17776657/0x010F4011) Render.Flags0 and Render.Flags3 conditions are met
  9: 0x089F [0x4A] LocalPlayer looks at Galmut (ID: 17776657/0x010F4011)
 10: 0x08A8 [0x27] REQ_SET(priority=0x04, entity_id=Galmut (ID: 17776657/0x010F4011), tag_num=0x1C)
 11: 0x08AF [0x2B] Galmut (ID: 17776657/0x010F4011) [7274*]:
    → "Mr. Narihira said that the Tenshodo has some. Without it, sooner or later the gears will come to a stop!"
 12: 0x08B6 [0x23] WAIT_FOR_DIALOG_INTERACTION
 13: 0x08B7 [0x29] REQ_SET_WAIT(priority=0x04, entity_id=Galmut (ID: 17776657/0x010F4011), tag_num=0x24)
 14: 0x08BE [0x29] REQ_SET_WAIT(priority=0x03, entity_id=Galmut (ID: 17776657/0x010F4011), tag_num=0x09)
 15: 0x08C5 [0x4D] EventEntity->StatusEvent = 9 // Close door
 16: 0x08C6 [0x1C] WAIT(120* ticks)
 17: 0x08C9 [0x21] END_EVENT
 18: 0x08CA [0x00] END_REQSTACK()
```

### Event 202

#### Metadata

| Field        | Value     |
|--------------|-----------|
| Entrypoint   | 0x08CB    |
| Data Size    | 549 bytes |
| Instructions | 89        |

```
      00 01 02 03 04 05 06 07  08 09 0A 0B 0C 0D 0E 0F
      -- -- -- -- -- -- -- --  -- -- -- -- -- -- -- --
08C0:                                   03 08 10 3B 80             ...;.
08D0: 03 09 10 03 80 20 01 46  01 42 75 00 04 80 75 01  ..... .F.Bu...u.
08E0: 4C 1C 00 80 45 05 80 F0  FF FF 7F F0 FF FF 7F 66  L...E..........f
08F0: 64 6F 31 06 80 55 05 80  F0 FF FF 7F F0 FF FF 7F  do1..U..........
0900: 66 64 6F 31 5C 00 3C 80  5C 01 3C 80 38 08 80 29  fdo1\.<.\.<.8..)
0910: 03 F0 FF FF 7F 19 45 07  80 F0 FF FF 7F F0 FF FF  ......E.........
0920: 7F 63 6D 38 30 06 80 4E  00 11 40 0F 01 45 05 80  .cm80..N..@..E..
0930: F0 FF FF 7F F0 FF FF 7F  66 64 69 31 06 80 55 05  ........fdi1..U.
0940: 80 F0 FF FF 7F F0 FF FF  7F 66 64 69 31 29 04 F0  .........fdi1)..
0950: FF FF 7F 1A 4D 4A F0 FF  FF 7F 11 40 0F 01 2B 11  ....MJ.....@..+.
0960: 40 0F 01 3D 80 23 29 03  11 40 0F 01 0C 4A F0 FF  @..=.#)..@...J..
0970: FF 7F 11 40 0F 01 27 03  11 40 0F 01 1C 2B 11 40  ...@..'..@...+.@
0980: 0F 01 3E 80 23 29 04 11  40 0F 01 24 45 07 80 F0  ..>.#)..@..$E...
0990: FF FF 7F F0 FF FF 7F 63  6D 38 31 06 80 29 03 11  .......cm81..)..
09A0: 40 0F 01 0D 55 07 80 F0  FF FF 7F F0 FF FF 7F 63  @...U..........c
09B0: 6D 38 31 2B 11 40 0F 01  3F 80 23 2B 11 40 0F 01  m81+.@..?.#+.@..
09C0: 40 80 23 1C 41 80 27 03  11 40 0F 01 1F 2B 11 40  @.#.A.'..@...+.@
09D0: 0F 01 42 80 23 29 04 11  40 0F 01 23 27 03 F0 FF  ..B.#)..@..#'...
09E0: FF 7F 22 27 03 11 40 0F  01 0E 1C 00 80 45 07 80  .."'..@......E..
09F0: F0 FF FF 7F F0 FF FF 7F  63 6D 38 32 06 80 4C 29  ........cm82..L)
0A00: 05 11 40 0F 01 23 1C 00  80 2B 11 40 0F 01 43 80  ..@..#...+.@..C.
0A10: 23 27 06 11 40 0F 01 0F  1C 41 80 4D 55 07 80 F0  #'..@....A.MU...
0A20: FF FF 7F F0 FF FF 7F 63  6D 38 32 1C 02 80 4E 00  .......cm82...N.
0A30: 12 40 0F 01 29 06 11 40  0F 01 23 2B 12 40 0F 01  .@..)..@..#+.@..
0A40: 44 80 23 27 03 F0 FF FF  7F 23 1C 41 80 4C 1C 41  D.#'.....#.A.L.A
0A50: 80 29 03 12 40 0F 01 04  4A 12 40 0F 01 F0 FF FF  .)..@...J.@.....
0A60: 7F 2B 12 40 0F 01 45 80  23 29 03 12 40 0F 01 10  .+.@..E.#)..@...
0A70: 27 03 12 40 0F 01 14 2B  12 40 0F 01 46 80 23 29  '..@...+.@..F.#)
0A80: 04 12 40 0F 01 12 2B 12  40 0F 01 47 80 23 1C 00  ..@...+.@..G.#..
0A90: 80 45 48 80 F0 FF FF 7F  F0 FF FF 7F 71 73 74 63  .EH.........qstc
0AA0: 06 80 45 05 80 F0 FF FF  7F F0 FF FF 7F 66 64 6F  ..E..........fdo
0AB0: 31 06 80 55 05 80 F0 FF  FF 7F F0 FF FF 7F 66 64  1..U..........fd
0AC0: 6F 31 5C 00 38 80 5C 01  38 80 29 03 F0 FF FF 7F  o1\.8.\.8.).....
0AD0: 21 46 00 4E 01 12 40 0F  01 4D 1C 02 80 45 05 80  !F.N..@..M...E..
0AE0: F0 FF FF 7F F0 FF FF 7F  66 64 69 32 06 80 21 00  ........fdi2..!.
```

#### Opcodes

```
  0: 0x08CB [0x03] Work_Zone[8] = 555*
  1: 0x08D0 [0x03] Work_Zone[9] = 19*
  2: 0x08D5 [0x20] SET_CLI_EVENT_UC_FLAG: Lock player control
  3: 0x08D7 [0x46] CAMERA_CONTROL: Disable user control
  4: 0x08D9 [0x42] SET_CLI_EVENT_CANCEL_DATA()
  5: 0x08DA [0x75] LOAD_ROOM(Load indoor room, room=452*)
  6: 0x08DE [0x75] LOAD_ROOM(No action)
  7: 0x08E0 [0x4C] EventEntity->StatusEvent = 8 // Open door
  8: 0x08E1 [0x1C] WAIT(60* ticks)
  9: 0x08E4 [0x45] LOAD_SCHEDULED_TASK: Load scheduler "fdo1" with entities [LocalPlayer, LocalPlayer], work=[200*, 0*]
 10: 0x08F5 [0x55] WAIT_LOAD_SCHEDULER: Wait for scheduler "fdo1" with entities [LocalPlayer, LocalPlayer], work=200*
 11: 0x0904 [0x5C] MUSIC_CONTROL: Set Idle (Day) music to song 127*
 12: 0x0908 [0x5C] MUSIC_CONTROL: Set Idle (Night) music to song 127*
 13: 0x090C [0x38] SET_CLIENT_EVENT_MODE(mode=3*)
 14: 0x090F [0x29] REQ_SET_WAIT(priority=0x03, entity_id=LocalPlayer, tag_num=0x19)
 15: 0x0916 [0x45] LOAD_SCHEDULED_TASK: Load scheduler "cm80" with entities [LocalPlayer, LocalPlayer], work=[144*, 0*]
 16: 0x0927 [0x4E] SET_ENTITY_HIDE_FLAG: Show Galmut (ID: 17776657/0x010F4011)
 17: 0x092D [0x45] LOAD_SCHEDULED_TASK: Load scheduler "fdi1" with entities [LocalPlayer, LocalPlayer], work=[200*, 0*]
 18: 0x093E [0x55] WAIT_LOAD_SCHEDULER: Wait for scheduler "fdi1" with entities [LocalPlayer, LocalPlayer], work=200*
 19: 0x094D [0x29] REQ_SET_WAIT(priority=0x04, entity_id=LocalPlayer, tag_num=0x1A)
 20: 0x0954 [0x4D] EventEntity->StatusEvent = 9 // Close door
 21: 0x0955 [0x4A] LocalPlayer looks at Galmut (ID: 17776657/0x010F4011)
 22: 0x095E [0x2B] Galmut (ID: 17776657/0x010F4011) [7275*]:
    → "Who's there!?"
 23: 0x0965 [0x23] WAIT_FOR_DIALOG_INTERACTION
 24: 0x0966 [0x29] REQ_SET_WAIT(priority=0x03, entity_id=Galmut (ID: 17776657/0x010F4011), tag_num=0x0C)
 25: 0x096D [0x4A] LocalPlayer looks at Galmut (ID: 17776657/0x010F4011)
 26: 0x0976 [0x27] REQ_SET(priority=0x03, entity_id=Galmut (ID: 17776657/0x010F4011), tag_num=0x1C)
 27: 0x097D [0x2B] Galmut (ID: 17776657/0x010F4011) [7276*]:
    → "Oh, you... Thanks for bringing the oil, but we don't need it anymore!"
 28: 0x0984 [0x23] WAIT_FOR_DIALOG_INTERACTION
 29: 0x0985 [0x29] REQ_SET_WAIT(priority=0x04, entity_id=Galmut (ID: 17776657/0x010F4011), tag_num=0x24)
 30: 0x098C [0x45] LOAD_SCHEDULED_TASK: Load scheduler "cm81" with entities [LocalPlayer, LocalPlayer], work=[144*, 0*]
 31: 0x099D [0x29] REQ_SET_WAIT(priority=0x03, entity_id=Galmut (ID: 17776657/0x010F4011), tag_num=0x0D)
 32: 0x09A4 [0x55] WAIT_LOAD_SCHEDULER: Wait for scheduler "cm81" with entities [LocalPlayer, LocalPlayer], work=144*
 33: 0x09B3 [0x2B] Galmut (ID: 17776657/0x010F4011) [7277*]:
    → "I heard they're gonna tear her down and make her into some kinda crane to lift cargo from ships."
 34: 0x09BA [0x23] WAIT_FOR_DIALOG_INTERACTION
 35: 0x09BB [0x2B] Galmut (ID: 17776657/0x010F4011) [7278*]:
    → "The plan's already passed. Ain't nothing I can do now!"
 36: 0x09C2 [0x23] WAIT_FOR_DIALOG_INTERACTION
 37: 0x09C3 [0x1C] WAIT(30* ticks)
 38: 0x09C6 [0x27] REQ_SET(priority=0x03, entity_id=Galmut (ID: 17776657/0x010F4011), tag_num=0x1F)
 39: 0x09CD [0x2B] Galmut (ID: 17776657/0x010F4011) [7279*]:
    → "Well, I'll go ahead and take that $3. Thanks for trying, [pal/though]. This is for you."
 40: 0x09D4 [0x23] WAIT_FOR_DIALOG_INTERACTION
 41: 0x09D5 [0x29] REQ_SET_WAIT(priority=0x04, entity_id=Galmut (ID: 17776657/0x010F4011), tag_num=0x23)
 42: 0x09DC [0x27] REQ_SET(priority=0x03, entity_id=LocalPlayer, tag_num=0x22)
 43: 0x09E3 [0x27] REQ_SET(priority=0x03, entity_id=Galmut (ID: 17776657/0x010F4011), tag_num=0x0E)
 44: 0x09EA [0x1C] WAIT(60* ticks)
 45: 0x09ED [0x45] LOAD_SCHEDULED_TASK: Load scheduler "cm82" with entities [LocalPlayer, LocalPlayer], work=[144*, 0*]
 46: 0x09FE [0x4C] EventEntity->StatusEvent = 8 // Open door
 47: 0x09FF [0x29] REQ_SET_WAIT(priority=0x05, entity_id=Galmut (ID: 17776657/0x010F4011), tag_num=0x23)
 48: 0x0A06 [0x1C] WAIT(60* ticks)
 49: 0x0A09 [0x2B] Galmut (ID: 17776657/0x010F4011) [7280*]:
    → "I try to believe in something, and look what happens!"
 50: 0x0A10 [0x23] WAIT_FOR_DIALOG_INTERACTION
 51: 0x0A11 [0x27] REQ_SET(priority=0x06, entity_id=Galmut (ID: 17776657/0x010F4011), tag_num=0x0F)
 52: 0x0A18 [0x1C] WAIT(30* ticks)
 53: 0x0A1B [0x4D] EventEntity->StatusEvent = 9 // Close door
 54: 0x0A1C [0x55] WAIT_LOAD_SCHEDULER: Wait for scheduler "cm82" with entities [LocalPlayer, LocalPlayer], work=144*
 55: 0x0A2B [0x1C] WAIT(120* ticks)
 56: 0x0A2E [0x4E] SET_ENTITY_HIDE_FLAG: Show Narihira (ID: 17776658/0x010F4012)
 57: 0x0A34 [0x29] REQ_SET_WAIT(priority=0x06, entity_id=Galmut (ID: 17776657/0x010F4011), tag_num=0x23)
 58: 0x0A3B [0x2B] Narihira (ID: 17776658/0x010F4012) [7281*]:
    → "Galmut, it's me! You here?"
 59: 0x0A42 [0x23] WAIT_FOR_DIALOG_INTERACTION
 60: 0x0A43 [0x27] REQ_SET(priority=0x03, entity_id=LocalPlayer, tag_num=0x23)
 61: 0x0A4A [0x1C] WAIT(30* ticks)
 62: 0x0A4D [0x4C] EventEntity->StatusEvent = 8 // Open door
 63: 0x0A4E [0x1C] WAIT(30* ticks)
 64: 0x0A51 [0x29] REQ_SET_WAIT(priority=0x03, entity_id=Narihira (ID: 17776658/0x010F4012), tag_num=0x04)
 65: 0x0A58 [0x4A] Narihira (ID: 17776658/0x010F4012) looks at LocalPlayer
 66: 0x0A61 [0x2B] Narihira (ID: 17776658/0x010F4012) [7282*]:
    → "Oh, it's you. Where's Galmut?"
 67: 0x0A68 [0x23] WAIT_FOR_DIALOG_INTERACTION
 68: 0x0A69 [0x29] REQ_SET_WAIT(priority=0x03, entity_id=Narihira (ID: 17776658/0x010F4012), tag_num=0x10)
 69: 0x0A70 [0x27] REQ_SET(priority=0x03, entity_id=Narihira (ID: 17776658/0x010F4012), tag_num=0x14)
 70: 0x0A77 [0x2B] Narihira (ID: 17776658/0x010F4012) [7283*]:
    → "He's out, huh? And he heard about the clock? He must've been shocked."
 71: 0x0A7E [0x23] WAIT_FOR_DIALOG_INTERACTION
 72: 0x0A7F [0x29] REQ_SET_WAIT(priority=0x04, entity_id=Narihira (ID: 17776658/0x010F4012), tag_num=0x12)
 73: 0x0A86 [0x2B] Narihira (ID: 17776658/0x010F4012) [7284*]:
    → "That's Galmut for you. Look, if we get enough signatures with $6, we might be able to stop the plan!"
 74: 0x0A8D [0x23] WAIT_FOR_DIALOG_INTERACTION
 75: 0x0A8E [0x1C] WAIT(60* ticks)
 76: 0x0A91 [0x45] LOAD_SCHEDULED_TASK: Load scheduler "qstc" with entities [LocalPlayer, LocalPlayer], work=[201*, 0*]
 77: 0x0AA2 [0x45] LOAD_SCHEDULED_TASK: Load scheduler "fdo1" with entities [LocalPlayer, LocalPlayer], work=[200*, 0*]
 78: 0x0AB3 [0x55] WAIT_LOAD_SCHEDULER: Wait for scheduler "fdo1" with entities [LocalPlayer, LocalPlayer], work=200*
 79: 0x0AC2 [0x5C] MUSIC_CONTROL: Set Idle (Day) music to song 110*
 80: 0x0AC6 [0x5C] MUSIC_CONTROL: Set Idle (Night) music to song 110*
 81: 0x0ACA [0x29] REQ_SET_WAIT(priority=0x03, entity_id=LocalPlayer, tag_num=0x21)
 82: 0x0AD1 [0x46] CAMERA_CONTROL: Restore default settings
 83: 0x0AD3 [0x4E] SET_ENTITY_HIDE_FLAG: Hide Narihira (ID: 17776658/0x010F4012)
 84: 0x0AD9 [0x4D] EventEntity->StatusEvent = 9 // Close door
 85: 0x0ADA [0x1C] WAIT(120* ticks)
 86: 0x0ADD [0x45] LOAD_SCHEDULED_TASK: Load scheduler "fdi2" with entities [LocalPlayer, LocalPlayer], work=[200*, 0*]
 87: 0x0AEE [0x21] END_EVENT
 88: 0x0AEF [0x00] END_REQSTACK()
```

### Event 152

#### Metadata

| Field        | Value     |
|--------------|-----------|
| Entrypoint   | 0x0AF0    |
| Data Size    | 885 bytes |
| Instructions | 141       |

```
      00 01 02 03 04 05 06 07  08 09 0A 0B 0C 0D 0E 0F
      -- -- -- -- -- -- -- --  -- -- -- -- -- -- -- --
0AF0: 20 01 46 01 42 75 00 04  80 75 01 4C 1C 00 80 45   .F.Bu...u.L...E
0B00: 05 80 F0 FF FF 7F F0 FF  FF 7F 66 64 6F 31 06 80  ..........fdo1..
0B10: 55 05 80 F0 FF FF 7F F0  FF FF 7F 66 64 6F 31 5C  U..........fdo1\
0B20: 00 49 80 5C 01 49 80 38  08 80 29 03 F0 FF FF 7F  .I.\.I.8..).....
0B30: 19 4E 00 12 40 0F 01 45  07 80 F0 FF FF 7F F0 FF  .N..@..E........
0B40: FF 7F 63 6D 39 32 06 80  55 07 80 F0 FF FF 7F F0  ..cm92..U.......
0B50: FF FF 7F 63 6D 39 32 45  05 80 F0 FF FF 7F F0 FF  ...cm92E........
0B60: FF 7F 66 64 69 31 06 80  55 05 80 F0 FF FF 7F F0  ..fdi1..U.......
0B70: FF FF 7F 66 64 69 31 29  04 F0 FF FF 7F 1A 4D 4A  ...fdi1)......MJ
0B80: F0 FF FF 7F 12 40 0F 01  4A 12 40 0F 01 F0 FF FF  .....@..J.@.....
0B90: 7F 2B 12 40 0F 01 4A 80  23 27 03 F0 FF FF 7F 24  .+.@..J.#'.....$
0BA0: 27 03 12 40 0F 01 12 2B  12 40 0F 01 4B 80 23 2B  '..@...+.@..K.#+
0BB0: 12 40 0F 01 4C 80 23 29  04 F0 FF FF 7F 26 4E 00  .@..L.#).....&N.
0BC0: 11 40 0F 01 4C 1C 00 80  27 04 12 40 0F 01 13 4A  .@..L...'..@...J
0BD0: F0 FF FF 7F 11 40 0F 01  4A 12 40 0F 01 11 40 0F  .....@..J.@...@.
0BE0: 01 27 04 11 40 0F 01 11  1C 09 80 2B 11 40 0F 01  .'..@......+.@..
0BF0: 4D 80 23 29 05 11 40 0F  01 23 45 07 80 F0 FF FF  M.#)..@..#E.....
0C00: 7F F0 FF FF 7F 63 6D 39  33 06 80 55 07 80 F0 FF  .....cm93..U....
0C10: FF 7F F0 FF FF 7F 63 6D  39 33 4D 4A 11 40 0F 01  ......cm93MJ.@..
0C20: 12 40 0F 01 6F 76 11 40  0F 01 2B 11 40 0F 01 4E  .@..ov.@..+.@..N
0C30: 80 23 27 06 12 40 0F 01  0E 2B 12 40 0F 01 4F 80  .#'..@...+.@..O.
0C40: 23 29 07 12 40 0F 01 1A  4A 11 40 0F 01 12 40 0F  #)..@...J.@...@.
0C50: 01 1C 02 80 4A 11 40 0F  01 F0 FF FF 7F 2B 11 40  ....J.@......+.@
0C60: 0F 01 50 80 23 27 03 12  40 0F 01 15 2B 12 40 0F  ..P.#'..@...+.@.
0C70: 01 51 80 23 4A 11 40 0F  01 12 40 0F 01 2B 12 40  .Q.#J.@...@..+.@
0C80: 0F 01 52 80 23 1C 00 80  2B 11 40 0F 01 53 80 23  ..R.#...+.@..S.#
0C90: 2B 12 40 0F 01 54 80 23  2B 12 40 0F 01 55 80 23  +.@..T.#+.@..U.#
0CA0: 29 04 12 40 0F 01 16 27  05 12 40 0F 01 18 1C 41  )..@...'..@....A
0CB0: 80 27 03 11 40 0F 01 20  1C 41 80 27 03 F0 FF FF  .'..@.. .A.'....
0CC0: 7F 25 45 07 80 F0 FF FF  7F F0 FF FF 7F 63 6D 39  .%E..........cm9
0CD0: 34 06 80 55 07 80 F0 FF  FF 7F F0 FF FF 7F 63 6D  4..U..........cm
0CE0: 39 34 2B 11 40 0F 01 56  80 23 29 06 12 40 0F 01  94+.@..V.#)..@..
0CF0: 1A 27 04 11 40 0F 01 21  4A 12 40 0F 01 11 40 0F  .'..@..!J.@...@.
0D00: 01 2B 12 40 0F 01 57 80  23 27 05 11 40 0F 01 1C  .+.@..W.#'..@...
0D10: 2B 11 40 0F 01 58 80 23  4A F0 FF FF 7F 11 40 0F  +.@..X.#J.....@.
0D20: 01 29 06 11 40 0F 01 24  2B 12 40 0F 01 59 80 23  .)..@..$+.@..Y.#
0D30: 4A 12 40 0F 01 F0 FF FF  7F 6F 76 12 40 0F 01 27  J.@......ov.@..'
0D40: 04 12 40 0F 01 11 2B 12  40 0F 01 5A 80 23 27 05  ..@...+.@..Z.#'.
0D50: 12 40 0F 01 19 4A 11 40  0F 01 F0 FF FF 7F 6F 76  .@...J.@......ov
0D60: 11 40 0F 01 45 07 80 F0  FF FF 7F F0 FF FF 7F 63  .@..E..........c
0D70: 6D 39 35 06 80 55 07 80  F0 FF FF 7F F0 FF FF 7F  m95..U..........
0D80: 63 6D 39 35 1C 5B 80 2B  11 40 0F 01 5C 80 23 29  cm95.[.+.@..\.#)
0D90: 03 11 40 0F 01 1F 27 04  11 40 0F 01 1C 2B 11 40  ..@...'..@...+.@
0DA0: 0F 01 5D 80 23 29 04 11  40 0F 01 24 1C 00 80 4A  ..].#)..@..$...J
0DB0: 12 40 0F 01 11 40 0F 01  6F 76 12 40 0F 01 45 07  .@...@..ov.@..E.
0DC0: 80 F0 FF FF 7F F0 FF FF  7F 63 6D 39 36 06 80 55  .........cm96..U
0DD0: 07 80 F0 FF FF 7F F0 FF  FF 7F 63 6D 39 36 27 04  ..........cm96'.
0DE0: 12 40 0F 01 11 2B 12 40  0F 01 5E 80 23 27 05 12  .@...+.@..^.#'..
0DF0: 40 0F 01 19 4A 11 40 0F  01 12 40 0F 01 6F 76 11  @...J.@...@..ov.
0E00: 40 0F 01 2B 12 40 0F 01  5F 80 23 45 48 80 F0 FF  @..+.@.._.#EH...
0E10: FF 7F F0 FF FF 7F 71 73  74 63 06 80 45 05 80 F0  ......qstc..E...
0E20: FF FF 7F F0 FF FF 7F 66  64 6F 32 06 80 55 05 80  .......fdo2..U..
0E30: F0 FF FF 7F F0 FF FF 7F  66 64 6F 32 5C 00 38 80  ........fdo2\.8.
0E40: 5C 01 38 80 29 03 F0 FF  FF 7F 21 46 00 1C 00 80  \.8.).....!F....
0E50: 45 05 80 F0 FF FF 7F F0  FF FF 7F 66 64 69 32 06  E..........fdi2.
0E60: 80 46 00 21 00                                    .F.!.           
```

#### Opcodes

```
  0: 0x0AF0 [0x20] SET_CLI_EVENT_UC_FLAG: Lock player control
  1: 0x0AF2 [0x46] CAMERA_CONTROL: Disable user control
  2: 0x0AF4 [0x42] SET_CLI_EVENT_CANCEL_DATA()
  3: 0x0AF5 [0x75] LOAD_ROOM(Load indoor room, room=452*)
  4: 0x0AF9 [0x75] LOAD_ROOM(No action)
  5: 0x0AFB [0x4C] EventEntity->StatusEvent = 8 // Open door
  6: 0x0AFC [0x1C] WAIT(60* ticks)
  7: 0x0AFF [0x45] LOAD_SCHEDULED_TASK: Load scheduler "fdo1" with entities [LocalPlayer, LocalPlayer], work=[200*, 0*]
  8: 0x0B10 [0x55] WAIT_LOAD_SCHEDULER: Wait for scheduler "fdo1" with entities [LocalPlayer, LocalPlayer], work=200*
  9: 0x0B1F [0x5C] MUSIC_CONTROL: Set Idle (Day) music to song 122*
 10: 0x0B23 [0x5C] MUSIC_CONTROL: Set Idle (Night) music to song 122*
 11: 0x0B27 [0x38] SET_CLIENT_EVENT_MODE(mode=3*)
 12: 0x0B2A [0x29] REQ_SET_WAIT(priority=0x03, entity_id=LocalPlayer, tag_num=0x19)
 13: 0x0B31 [0x4E] SET_ENTITY_HIDE_FLAG: Show Narihira (ID: 17776658/0x010F4012)
 14: 0x0B37 [0x45] LOAD_SCHEDULED_TASK: Load scheduler "cm92" with entities [LocalPlayer, LocalPlayer], work=[144*, 0*]
 15: 0x0B48 [0x55] WAIT_LOAD_SCHEDULER: Wait for scheduler "cm92" with entities [LocalPlayer, LocalPlayer], work=144*
 16: 0x0B57 [0x45] LOAD_SCHEDULED_TASK: Load scheduler "fdi1" with entities [LocalPlayer, LocalPlayer], work=[200*, 0*]
 17: 0x0B68 [0x55] WAIT_LOAD_SCHEDULER: Wait for scheduler "fdi1" with entities [LocalPlayer, LocalPlayer], work=200*
 18: 0x0B77 [0x29] REQ_SET_WAIT(priority=0x04, entity_id=LocalPlayer, tag_num=0x1A)
 19: 0x0B7E [0x4D] EventEntity->StatusEvent = 9 // Close door
 20: 0x0B7F [0x4A] LocalPlayer looks at Narihira (ID: 17776658/0x010F4012)
 21: 0x0B88 [0x4A] Narihira (ID: 17776658/0x010F4012) looks at LocalPlayer
 22: 0x0B91 [0x2B] Narihira (ID: 17776658/0x010F4012) [7291*]:
    → "What!? You've..."
 23: 0x0B98 [0x23] WAIT_FOR_DIALOG_INTERACTION
 24: 0x0B99 [0x27] REQ_SET(priority=0x03, entity_id=LocalPlayer, tag_num=0x24)
 25: 0x0BA0 [0x27] REQ_SET(priority=0x03, entity_id=Narihira (ID: 17776658/0x010F4012), tag_num=0x12)
 26: 0x0BA7 [0x2B] Narihira (ID: 17776658/0x010F4012) [7292*]:
    → "I heard somebody started a petition. But it was you? Galmut should be happy to have such a good friend."
 27: 0x0BAE [0x23] WAIT_FOR_DIALOG_INTERACTION
 28: 0x0BAF [0x2B] Narihira (ID: 17776658/0x010F4012) [7293*]:
    → "I wonder where he ran off to, anyway. How pathetic!"
 29: 0x0BB6 [0x23] WAIT_FOR_DIALOG_INTERACTION
 30: 0x0BB7 [0x29] REQ_SET_WAIT(priority=0x04, entity_id=LocalPlayer, tag_num=0x26)
 31: 0x0BBE [0x4E] SET_ENTITY_HIDE_FLAG: Show Galmut (ID: 17776657/0x010F4011)
 32: 0x0BC4 [0x4C] EventEntity->StatusEvent = 8 // Open door
 33: 0x0BC5 [0x1C] WAIT(60* ticks)
 34: 0x0BC8 [0x27] REQ_SET(priority=0x04, entity_id=Narihira (ID: 17776658/0x010F4012), tag_num=0x13)
 35: 0x0BCF [0x4A] LocalPlayer looks at Galmut (ID: 17776657/0x010F4011)
 36: 0x0BD8 [0x4A] Narihira (ID: 17776658/0x010F4012) looks at Galmut (ID: 17776657/0x010F4011)
 37: 0x0BE1 [0x27] REQ_SET(priority=0x04, entity_id=Galmut (ID: 17776657/0x010F4011), tag_num=0x11)
 38: 0x0BE8 [0x1C] WAIT(10* ticks)
 39: 0x0BEB [0x2B] Galmut (ID: 17776657/0x010F4011) [7294*]:
    → "Everyone's out to get me! It's all over!"
 40: 0x0BF2 [0x23] WAIT_FOR_DIALOG_INTERACTION
 41: 0x0BF3 [0x29] REQ_SET_WAIT(priority=0x05, entity_id=Galmut (ID: 17776657/0x010F4011), tag_num=0x23)
 42: 0x0BFA [0x45] LOAD_SCHEDULED_TASK: Load scheduler "cm93" with entities [LocalPlayer, LocalPlayer], work=[144*, 0*]
 43: 0x0C0B [0x55] WAIT_LOAD_SCHEDULER: Wait for scheduler "cm93" with entities [LocalPlayer, LocalPlayer], work=144*
 44: 0x0C1A [0x4D] EventEntity->StatusEvent = 9 // Close door
 45: 0x0C1B [0x4A] Galmut (ID: 17776657/0x010F4011) looks at Narihira (ID: 17776658/0x010F4012)
 46: 0x0C24 [0x6F] WAIT_FRAME_DELAY: Yield until WaitTime reaches zero
 47: 0x0C25 [0x76] CHECK_ENTITY_RENDER_FLAGS: Wait until Galmut (ID: 17776657/0x010F4011) Render.Flags0 and Render.Flags3 conditions are met
 48: 0x0C2A [0x2B] Galmut (ID: 17776657/0x010F4011) [7295*]:
    → "Mr. Narihira... And you... What are you doing here?"
 49: 0x0C31 [0x23] WAIT_FOR_DIALOG_INTERACTION
 50: 0x0C32 [0x27] REQ_SET(priority=0x06, entity_id=Narihira (ID: 17776658/0x010F4012), tag_num=0x0E)
 51: 0x0C39 [0x2B] Narihira (ID: 17776658/0x010F4012) [7296*]:
    → "Shut your trap and listen for once! Your friend here's gathered so many signatures, the petition to save the clock tower was a success!"
 52: 0x0C40 [0x23] WAIT_FOR_DIALOG_INTERACTION
 53: 0x0C41 [0x29] REQ_SET_WAIT(priority=0x07, entity_id=Narihira (ID: 17776658/0x010F4012), tag_num=0x1A)
 54: 0x0C48 [0x4A] Galmut (ID: 17776657/0x010F4011) looks at Narihira (ID: 17776658/0x010F4012)
 55: 0x0C51 [0x1C] WAIT(120* ticks)
 56: 0x0C54 [0x4A] Galmut (ID: 17776657/0x010F4011) looks at LocalPlayer
 57: 0x0C5D [0x2B] Galmut (ID: 17776657/0x010F4011) [7297*]:
    → "Huh? Petition? Does that mean her gears'll keep turning?"
 58: 0x0C64 [0x23] WAIT_FOR_DIALOG_INTERACTION
 59: 0x0C65 [0x27] REQ_SET(priority=0x03, entity_id=Narihira (ID: 17776658/0x010F4012), tag_num=0x15)
 60: 0x0C6C [0x2B] Narihira (ID: 17776658/0x010F4012) [7298*]:
    → "Of course, you fool! Right now, you're the stopped clock."
 61: 0x0C73 [0x23] WAIT_FOR_DIALOG_INTERACTION
 62: 0x0C74 [0x4A] Galmut (ID: 17776657/0x010F4011) looks at Narihira (ID: 17776658/0x010F4012)
 63: 0x0C7D [0x2B] Narihira (ID: 17776658/0x010F4012) [7299*]:
    → "You know what that means, don'tcha? No more resounding rings. Catch my drift, sonny?"
 64: 0x0C84 [0x23] WAIT_FOR_DIALOG_INTERACTION
 65: 0x0C85 [0x1C] WAIT(60* ticks)
 66: 0x0C88 [0x2B] Galmut (ID: 17776657/0x010F4011) [7300*]:
    → "Mr. Narihira... I'm sorry."
 67: 0x0C8F [0x23] WAIT_FOR_DIALOG_INTERACTION
 68: 0x0C90 [0x2B] Narihira (ID: 17776658/0x010F4012) [7301*]:
    → "Hell, I don't care how you feel!"
 69: 0x0C97 [0x23] WAIT_FOR_DIALOG_INTERACTION
 70: 0x0C98 [0x2B] Narihira (ID: 17776658/0x010F4012) [7302*]:
    → "You gotta face all the people out there who count on that clock! Without the bells each day..."
 71: 0x0C9F [0x23] WAIT_FOR_DIALOG_INTERACTION
 72: 0x0CA0 [0x29] REQ_SET_WAIT(priority=0x04, entity_id=Narihira (ID: 17776658/0x010F4012), tag_num=0x16)
 73: 0x0CA7 [0x27] REQ_SET(priority=0x05, entity_id=Narihira (ID: 17776658/0x010F4012), tag_num=0x18)
 74: 0x0CAE [0x1C] WAIT(30* ticks)
 75: 0x0CB1 [0x27] REQ_SET(priority=0x03, entity_id=Galmut (ID: 17776657/0x010F4011), tag_num=0x20)
 76: 0x0CB8 [0x1C] WAIT(30* ticks)
 77: 0x0CBB [0x27] REQ_SET(priority=0x03, entity_id=LocalPlayer, tag_num=0x25)
 78: 0x0CC2 [0x45] LOAD_SCHEDULED_TASK: Load scheduler "cm94" with entities [LocalPlayer, LocalPlayer], work=[144*, 0*]
 79: 0x0CD3 [0x55] WAIT_LOAD_SCHEDULER: Wait for scheduler "cm94" with entities [LocalPlayer, LocalPlayer], work=144*
 80: 0x0CE2 [0x2B] Galmut (ID: 17776657/0x010F4011) [7304*]:
    → "Mr. Narihira!"
 81: 0x0CE9 [0x23] WAIT_FOR_DIALOG_INTERACTION
 82: 0x0CEA [0x29] REQ_SET_WAIT(priority=0x06, entity_id=Narihira (ID: 17776658/0x010F4012), tag_num=0x1A)
 83: 0x0CF1 [0x27] REQ_SET(priority=0x04, entity_id=Galmut (ID: 17776657/0x010F4011), tag_num=0x21)
 84: 0x0CF8 [0x4A] Narihira (ID: 17776658/0x010F4012) looks at Galmut (ID: 17776657/0x010F4011)
 85: 0x0D01 [0x2B] Narihira (ID: 17776658/0x010F4012) [7305*]:
    → "Oh, I'm all right. I just kept the clock going while you were gone. And by golly, I was rustier than she was!"
 86: 0x0D08 [0x23] WAIT_FOR_DIALOG_INTERACTION
 87: 0x0D09 [0x27] REQ_SET(priority=0x05, entity_id=Galmut (ID: 17776657/0x010F4011), tag_num=0x1C)
 88: 0x0D10 [0x2B] Galmut (ID: 17776657/0x010F4011) [7306*]:
    → "I don't know how to thank you. Nobody's ever cared enough to talk straight to me."
 89: 0x0D17 [0x23] WAIT_FOR_DIALOG_INTERACTION
 90: 0x0D18 [0x4A] LocalPlayer looks at Galmut (ID: 17776657/0x010F4011)
 91: 0x0D21 [0x29] REQ_SET_WAIT(priority=0x06, entity_id=Galmut (ID: 17776657/0x010F4011), tag_num=0x24)
 92: 0x0D28 [0x2B] Narihira (ID: 17776658/0x010F4012) [7307*]:
    → "Hah! What kinda moron likes getting chewed out!?"
 93: 0x0D2F [0x23] WAIT_FOR_DIALOG_INTERACTION
 94: 0x0D30 [0x4A] Narihira (ID: 17776658/0x010F4012) looks at LocalPlayer
 95: 0x0D39 [0x6F] WAIT_FRAME_DELAY: Yield until WaitTime reaches zero
 96: 0x0D3A [0x76] CHECK_ENTITY_RENDER_FLAGS: Wait until Narihira (ID: 17776658/0x010F4012) Render.Flags0 and Render.Flags3 conditions are met
 97: 0x0D3F [0x27] REQ_SET(priority=0x04, entity_id=Narihira (ID: 17776658/0x010F4012), tag_num=0x11)
 98: 0x0D46 [0x2B] Narihira (ID: 17776658/0x010F4012) [7308*]:
    → "Besides, I think there's someone else you should be thankin'. Your precious clock'd be scrap if it weren't for [him/her]."
 99: 0x0D4D [0x23] WAIT_FOR_DIALOG_INTERACTION
100: 0x0D4E [0x27] REQ_SET(priority=0x05, entity_id=Narihira (ID: 17776658/0x010F4012), tag_num=0x19)
101: 0x0D55 [0x4A] Galmut (ID: 17776657/0x010F4011) looks at LocalPlayer
102: 0x0D5E [0x6F] WAIT_FRAME_DELAY: Yield until WaitTime reaches zero
103: 0x0D5F [0x76] CHECK_ENTITY_RENDER_FLAGS: Wait until Galmut (ID: 17776657/0x010F4011) Render.Flags0 and Render.Flags3 conditions are met
104: 0x0D64 [0x45] LOAD_SCHEDULED_TASK: Load scheduler "cm95" with entities [LocalPlayer, LocalPlayer], work=[144*, 0*]
105: 0x0D75 [0x55] WAIT_LOAD_SCHEDULER: Wait for scheduler "cm95" with entities [LocalPlayer, LocalPlayer], work=144*
106: 0x0D84 [0x1C] WAIT(15* ticks)
107: 0x0D87 [0x2B] Galmut (ID: 17776657/0x010F4011) [7309*]:
    → "I don't know what to say... Or how to thank you... This ain't much, but it means a lot to me. Please, I want you to have it."
108: 0x0D8E [0x23] WAIT_FOR_DIALOG_INTERACTION
109: 0x0D8F [0x29] REQ_SET_WAIT(priority=0x03, entity_id=Galmut (ID: 17776657/0x010F4011), tag_num=0x1F)
110: 0x0D96 [0x27] REQ_SET(priority=0x04, entity_id=Galmut (ID: 17776657/0x010F4011), tag_num=0x1C)
111: 0x0D9D [0x2B] Galmut (ID: 17776657/0x010F4011) [7310*]:
    → "I'm so grateful. I'll make sure nothing ever happens to that clock, because it's what binds all the people together."
112: 0x0DA4 [0x23] WAIT_FOR_DIALOG_INTERACTION
113: 0x0DA5 [0x29] REQ_SET_WAIT(priority=0x04, entity_id=Galmut (ID: 17776657/0x010F4011), tag_num=0x24)
114: 0x0DAC [0x1C] WAIT(60* ticks)
115: 0x0DAF [0x4A] Narihira (ID: 17776658/0x010F4012) looks at Galmut (ID: 17776657/0x010F4011)
116: 0x0DB8 [0x6F] WAIT_FRAME_DELAY: Yield until WaitTime reaches zero
117: 0x0DB9 [0x76] CHECK_ENTITY_RENDER_FLAGS: Wait until Narihira (ID: 17776658/0x010F4012) Render.Flags0 and Render.Flags3 conditions are met
118: 0x0DBE [0x45] LOAD_SCHEDULED_TASK: Load scheduler "cm96" with entities [LocalPlayer, LocalPlayer], work=[144*, 0*]
119: 0x0DCF [0x55] WAIT_LOAD_SCHEDULER: Wait for scheduler "cm96" with entities [LocalPlayer, LocalPlayer], work=144*
120: 0x0DDE [0x27] REQ_SET(priority=0x04, entity_id=Narihira (ID: 17776658/0x010F4012), tag_num=0x11)
121: 0x0DE5 [0x2B] Narihira (ID: 17776658/0x010F4012) [7311*]:
    → "I believe you, Galmut."
122: 0x0DEC [0x23] WAIT_FOR_DIALOG_INTERACTION
123: 0x0DED [0x27] REQ_SET(priority=0x05, entity_id=Narihira (ID: 17776658/0x010F4012), tag_num=0x19)
124: 0x0DF4 [0x4A] Galmut (ID: 17776657/0x010F4011) looks at Narihira (ID: 17776658/0x010F4012)
125: 0x0DFD [0x6F] WAIT_FRAME_DELAY: Yield until WaitTime reaches zero
126: 0x0DFE [0x76] CHECK_ENTITY_RENDER_FLAGS: Wait until Galmut (ID: 17776657/0x010F4011) Render.Flags0 and Render.Flags3 conditions are met
127: 0x0E03 [0x2B] Narihira (ID: 17776658/0x010F4012) [7312*]:
    → "Well, you got your work cut out for you. Get to it, kiddo!"
128: 0x0E0A [0x23] WAIT_FOR_DIALOG_INTERACTION
129: 0x0E0B [0x45] LOAD_SCHEDULED_TASK: Load scheduler "qstc" with entities [LocalPlayer, LocalPlayer], work=[201*, 0*]
130: 0x0E1C [0x45] LOAD_SCHEDULED_TASK: Load scheduler "fdo2" with entities [LocalPlayer, LocalPlayer], work=[200*, 0*]
131: 0x0E2D [0x55] WAIT_LOAD_SCHEDULER: Wait for scheduler "fdo2" with entities [LocalPlayer, LocalPlayer], work=200*
132: 0x0E3C [0x5C] MUSIC_CONTROL: Set Idle (Day) music to song 110*
133: 0x0E40 [0x5C] MUSIC_CONTROL: Set Idle (Night) music to song 110*
134: 0x0E44 [0x29] REQ_SET_WAIT(priority=0x03, entity_id=LocalPlayer, tag_num=0x21)
135: 0x0E4B [0x46] CAMERA_CONTROL: Restore default settings
136: 0x0E4D [0x1C] WAIT(60* ticks)
137: 0x0E50 [0x45] LOAD_SCHEDULED_TASK: Load scheduler "fdi2" with entities [LocalPlayer, LocalPlayer], work=[200*, 0*]
138: 0x0E61 [0x46] CAMERA_CONTROL: Restore default settings
139: 0x0E63 [0x21] END_EVENT
140: 0x0E64 [0x00] END_REQSTACK()
```

### Event 110

#### Metadata

| Field        | Value     |
|--------------|-----------|
| Entrypoint   | 0x0E65    |
| Data Size    | 102 bytes |
| Instructions | 24        |

```
      00 01 02 03 04 05 06 07  08 09 0A 0B 0C 0D 0E 0F
      -- -- -- -- -- -- -- --  -- -- -- -- -- -- -- --
0E60:                20 01 42  80 12 40 0F 01 4E 00 12        .B..@..N..
0E70: 40 0F 01 4C 1C 09 80 4E  00 12 40 0F 01 1C 00 80  @..L...N..@.....
0E80: 29 03 12 40 0F 01 09 4A  12 40 0F 01 F0 FF FF 7F  )..@...J.@......
0E90: 6F 76 12 40 0F 01 4A F0  FF FF 7F 12 40 0F 01 27  ov.@..J.....@..'
0EA0: 04 12 40 0F 01 11 2B 12  40 0F 01 60 80 23 29 05  ..@...+.@..`.#).
0EB0: 12 40 0F 01 19 29 03 12  40 0F 01 0A 4D 1C 02 80  .@...)..@...M...
0EC0: 4E 01 12 40 0F 01 1C 09  80 21 00                 N..@.....!.     
```

#### Opcodes

```
  0: 0x0E65 [0x20] SET_CLI_EVENT_UC_FLAG: Lock player control
  1: 0x0E67 [0x42] SET_CLI_EVENT_CANCEL_DATA()
  2: 0x0E68 [0x80] LOAD_WAIT(entity=Narihira (ID: 17776658/0x010F4012))
  3: 0x0E6D [0x4E] SET_ENTITY_HIDE_FLAG: Show Narihira (ID: 17776658/0x010F4012)
  4: 0x0E73 [0x4C] EventEntity->StatusEvent = 8 // Open door
  5: 0x0E74 [0x1C] WAIT(10* ticks)
  6: 0x0E77 [0x4E] SET_ENTITY_HIDE_FLAG: Show Narihira (ID: 17776658/0x010F4012)
  7: 0x0E7D [0x1C] WAIT(60* ticks)
  8: 0x0E80 [0x29] REQ_SET_WAIT(priority=0x03, entity_id=Narihira (ID: 17776658/0x010F4012), tag_num=0x09)
  9: 0x0E87 [0x4A] Narihira (ID: 17776658/0x010F4012) looks at LocalPlayer
 10: 0x0E90 [0x6F] WAIT_FRAME_DELAY: Yield until WaitTime reaches zero
 11: 0x0E91 [0x76] CHECK_ENTITY_RENDER_FLAGS: Wait until Narihira (ID: 17776658/0x010F4012) Render.Flags0 and Render.Flags3 conditions are met
 12: 0x0E96 [0x4A] LocalPlayer looks at Narihira (ID: 17776658/0x010F4012)
 13: 0x0E9F [0x27] REQ_SET(priority=0x04, entity_id=Narihira (ID: 17776658/0x010F4012), tag_num=0x11)
 14: 0x0EA6 [0x2B] Narihira (ID: 17776658/0x010F4012) [7316*]:
    → "Oh, it's you, huh? Galmut's workin' hard as ever, thanks to you. Do me a favor and check up on him once in a while, okay?"
 15: 0x0EAD [0x23] WAIT_FOR_DIALOG_INTERACTION
 16: 0x0EAE [0x29] REQ_SET_WAIT(priority=0x05, entity_id=Narihira (ID: 17776658/0x010F4012), tag_num=0x19)
 17: 0x0EB5 [0x29] REQ_SET_WAIT(priority=0x03, entity_id=Narihira (ID: 17776658/0x010F4012), tag_num=0x0A)
 18: 0x0EBC [0x4D] EventEntity->StatusEvent = 9 // Close door
 19: 0x0EBD [0x1C] WAIT(120* ticks)
 20: 0x0EC0 [0x4E] SET_ENTITY_HIDE_FLAG: Hide Narihira (ID: 17776658/0x010F4012)
 21: 0x0EC6 [0x1C] WAIT(10* ticks)
 22: 0x0EC9 [0x21] END_EVENT
 23: 0x0ECA [0x00] END_REQSTACK()
```

### Event 65535.1

#### Metadata

| Field        | Value   |
|--------------|---------|
| Entrypoint   | 0x0ECB  |
| Data Size    | 2 bytes |
| Instructions | 2       |

```
      00 01 02 03 04 05 06 07  08 09 0A 0B 0C 0D 0E 0F
      -- -- -- -- -- -- -- --  -- -- -- -- -- -- -- --
0EC0:                                   4C 00                      L.   
```

#### Opcodes

```
  0: 0x0ECB [0x4C] EventEntity->StatusEvent = 8 // Open door
  1: 0x0ECC [0x00] END_REQSTACK()
```

### Event 65535.2

#### Metadata

| Field        | Value   |
|--------------|---------|
| Entrypoint   | 0x0ECD  |
| Data Size    | 2 bytes |
| Instructions | 2       |

```
      00 01 02 03 04 05 06 07  08 09 0A 0B 0C 0D 0E 0F
      -- -- -- -- -- -- -- --  -- -- -- -- -- -- -- --
0EC0:                                         4D 00                  M. 
```

#### Opcodes

```
  0: 0x0ECD [0x4D] EventEntity->StatusEvent = 9 // Close door
  1: 0x0ECE [0x00] END_REQSTACK()
```
