# 17776829 - Laila

## Common Data

| Field            | Value                 |
|------------------|-----------------------|
| Zone             | Upper Jeuno (ID: 244) |
| Block Size       | 656 bytes             |
| Total Events     | 41                    |
| References Count | 38                    |

## List of Events

| Event ID                 | Entrypoint   |   Size |   Instructions |
|--------------------------|--------------|--------|----------------|
| [65535](#event-65535)    | 0x0000       |      1 |              1 |
| [10111](#event-10111)    | 0x0001       |      1 |              1 |
| [10112](#event-10112)    | 0x0002       |     11 |              5 |
| [10113](#event-10113)    | 0x000D       |      1 |              1 |
| [10115](#event-10115)    | 0x000E       |      1 |              1 |
| [10118](#event-10118)    | 0x000F       |      1 |              1 |
| [65535.1](#event-655351) | 0x0010       |     35 |              7 |
| [65535.2](#event-655352) | 0x0033       |     14 |              4 |
| [10119](#event-10119)    | 0x0041       |      6 |              4 |
| [10120](#event-10120)    | 0x0047       |      6 |              4 |
| [112](#event-112)        | 0x004D       |      1 |              1 |
| [10129](#event-10129)    | 0x004E       |      1 |              1 |
| [10130](#event-10130)    | 0x004F       |     10 |              6 |
| [10133](#event-10133)    | 0x0059       |      1 |              1 |
| [10134](#event-10134)    | 0x005A       |      6 |              4 |
| [10136](#event-10136)    | 0x0060       |      1 |              1 |
| [10137](#event-10137)    | 0x0061       |      6 |              4 |
| [10139](#event-10139)    | 0x0067       |      1 |              1 |
| [10214](#event-10214)    | 0x0068       |      1 |              1 |
| [10215](#event-10215)    | 0x0069       |      1 |              1 |
| [10140](#event-10140)    | 0x006A       |      6 |              4 |
| [10143](#event-10143)    | 0x0070       |      1 |              1 |
| [10144](#event-10144)    | 0x0071       |     11 |              5 |
| [10147](#event-10147)    | 0x007C       |      1 |              1 |
| [10148](#event-10148)    | 0x007D       |      6 |              4 |
| [10149](#event-10149)    | 0x0083       |      1 |              1 |
| [10151](#event-10151)    | 0x0084       |      1 |              1 |
| [10209](#event-10209)    | 0x0085       |      1 |              1 |
| [10210](#event-10210)    | 0x0086       |      1 |              1 |
| [10211](#event-10211)    | 0x0087       |      1 |              1 |
| [10152](#event-10152)    | 0x0088       |      6 |              4 |
| [10170](#event-10170)    | 0x008E       |     28 |              9 |
| [10154](#event-10154)    | 0x00AA       |     10 |              6 |
| [65535.3](#event-655353) | 0x00B4       |      6 |              2 |
| [65535.4](#event-655354) | 0x00BA       |     57 |             12 |
| [65535.5](#event-655355) | 0x00F3       |      6 |              2 |
| [10160](#event-10160)    | 0x00F9       |      1 |              1 |
| [10161](#event-10161)    | 0x00FA       |     19 |              9 |
| [10162](#event-10162)    | 0x010D       |      1 |              1 |
| [10163](#event-10163)    | 0x010E       |     47 |             13 |
| [10164](#event-10164)    | 0x013D       |      6 |              4 |

## DAT References (imed_data)

|   Index | Hex Value   |   Dec Value |
|---------|-------------|-------------|
|       0 | 0x038F      |         911 |
|       1 | 0x2E26      |       11814 |
|       2 | 0x000D      |          13 |
|       3 | 0xFFFF1C87  |  4294909063 |
|       4 | 0x18D20     |      101664 |
|       5 | 0x0000      |           0 |
|       6 | 0x000F      |          15 |
|       7 | 0x04E5      |        1253 |
|       8 | 0x001E      |          30 |
|       9 | 0xFFFF2CE3  |  4294913251 |
|      10 | 0x18A84     |      100996 |
|      11 | 0x2E4A      |       11850 |
|      12 | 0x2E4B      |       11851 |
|      13 | 0x2E5E      |       11870 |
|      14 | 0x2E5D      |       11869 |
|      15 | 0x2E78      |       11896 |
|      16 | 0x2E87      |       11911 |
|      17 | 0x2EC4      |       11972 |
|      18 | 0x03CD      |         973 |
|      19 | 0x2ED6      |       11990 |
|      20 | 0x2EE5      |       12005 |
|      21 | 0x2F06      |       12038 |
|      22 | 0x2F41      |       12097 |
|      23 | 0x0001      |           1 |
|      24 | 0x0002      |           2 |
|      25 | 0x2F42      |       12098 |
|      26 | 0x2F43      |       12099 |
|      27 | 0x0041      |          65 |
|      28 | 0x00B4      |         180 |
|      29 | 0x0042      |          66 |
|      30 | 0x0043      |          67 |
|      31 | 0x2F4D      |       12109 |
|      32 | 0x09FC      |        2556 |
|      33 | 0x2F4E      |       12110 |
|      34 | 0x2F4F      |       12111 |
|      35 | 0x2F57      |       12119 |
|      36 | 0x2F58      |       12120 |
|      37 | 0x2F5C      |       12124 |

## String References

- **11814**: If ye can bring me $6, I'll rethink me stance on lettin' ye into me troupe.
- **11850**: Dance is learned by doin', not by watchin'. Get yer body movin', and dance until ye drop!
- **11851**: What are you gawpin' at? I don't give out autographs.
- **11869**: I want ye to think about how ye can make yer dance "shine."
- **11870**: What Troupe Brilioth is aimin' fer is a dance style that captivates and enchants.
- **11896**: Enough with the daydreamin'! <Player>, I wanna see more "shine" on that dance o' yers!
- **11911**: If ye want t'become a top-notch dancer, ye better go an' find a top-notch musician t'work with.
- **11972**: I've never forgotten the humiliation I felt when I was rejected by Valeriano.
- **11990**: Pass $3 to the owner o' the music shop in Bastok Markets. Valeriano is supposed t'be a regular patron.
- **12005**: No slackin' off before the performance!
- **12038**: We'll show them next time.
- **12097**: Here, take this. Ye deserve it fer all yer hard work.
- **12098**: Dance can be illusive at times--the harder ye seek, the more ye lose sight o' it...
- **12099**: When that happens, just clear all unnecessary thoughts from ye mind an' ev'rythin' will be alright.
- **12109**: Ye've traveled through many a land durin' yer trainin' t'become a dancer.
- **12110**: If ye retrace yer steps, the Divinity o' Dance may appear before ye an' present ye with $0.
- **12111**: If that ever happens, bring the $0 back here an' show me.
- **12119**: We'll duke it out at Qu'Bia Arena. Ye ready to go?
- **12120**: Go to Qu'Bia Arena? [Ready when you are!/I need time to prepare...]
- **12124**: Yer destiny is t'seek out bigger stages until ye one day become diva to the whole o' Vana'diel.

## Events

### Event 65535

#### Metadata

| Field        | Value   |
|--------------|---------|
| Entrypoint   | 0x0000  |
| Data Size    | 1 bytes |
| Instructions | 1       |

```
      00 01 02 03 04 05 06 07  08 09 0A 0B 0C 0D 0E 0F
      -- -- -- -- -- -- -- --  -- -- -- -- -- -- -- --
0000: 00                                                .               
```

#### Opcodes

```
  0: 0x0000 [0x00] END_REQSTACK()
```

### Event 10111

#### Metadata

| Field        | Value   |
|--------------|---------|
| Entrypoint   | 0x0001  |
| Data Size    | 1 bytes |
| Instructions | 1       |

```
      00 01 02 03 04 05 06 07  08 09 0A 0B 0C 0D 0E 0F
      -- -- -- -- -- -- -- --  -- -- -- -- -- -- -- --
0000:    00                                              .              
```

#### Opcodes

```
  0: 0x0001 [0x00] END_REQSTACK()
```

### Event 10112

#### Metadata

| Field        | Value    |
|--------------|----------|
| Entrypoint   | 0x0002   |
| Data Size    | 11 bytes |
| Instructions | 5        |

```
      00 01 02 03 04 05 06 07  08 09 0A 0B 0C 0D 0E 0F
      -- -- -- -- -- -- -- --  -- -- -- -- -- -- -- --
0000:       03 02 10 00 80 1D  01 80 23 21 00             ........#!.   
```

#### Opcodes

```
  0: 0x0002 [0x03] Work_Zone[2] = 911*
  1: 0x0007 [0x1D] PRINT_EVENT_MESSAGE(message_id=11814*)
    → "If ye can bring me $6, I'll rethink me stance on lettin' ye into me troupe."
  2: 0x000A [0x23] WAIT_FOR_DIALOG_INTERACTION
  3: 0x000B [0x21] END_EVENT
  4: 0x000C [0x00] END_REQSTACK()
```

### Event 10113

#### Metadata

| Field        | Value   |
|--------------|---------|
| Entrypoint   | 0x000D  |
| Data Size    | 1 bytes |
| Instructions | 1       |

```
      00 01 02 03 04 05 06 07  08 09 0A 0B 0C 0D 0E 0F
      -- -- -- -- -- -- -- --  -- -- -- -- -- -- -- --
0000:                                         00                     .  
```

#### Opcodes

```
  0: 0x000D [0x00] END_REQSTACK()
```

### Event 10115

#### Metadata

| Field        | Value   |
|--------------|---------|
| Entrypoint   | 0x000E  |
| Data Size    | 1 bytes |
| Instructions | 1       |

```
      00 01 02 03 04 05 06 07  08 09 0A 0B 0C 0D 0E 0F
      -- -- -- -- -- -- -- --  -- -- -- -- -- -- -- --
0000:                                            00                   . 
```

#### Opcodes

```
  0: 0x000E [0x00] END_REQSTACK()
```

### Event 10118

#### Metadata

| Field        | Value   |
|--------------|---------|
| Entrypoint   | 0x000F  |
| Data Size    | 1 bytes |
| Instructions | 1       |

```
      00 01 02 03 04 05 06 07  08 09 0A 0B 0C 0D 0E 0F
      -- -- -- -- -- -- -- --  -- -- -- -- -- -- -- --
0000:                                               00                 .
```

#### Opcodes

```
  0: 0x000F [0x00] END_REQSTACK()
```

### Event 65535.1

#### Metadata

| Field        | Value    |
|--------------|----------|
| Entrypoint   | 0x0010   |
| Data Size    | 35 bytes |
| Instructions | 7        |

```
      00 01 02 03 04 05 06 07  08 09 0A 0B 0C 0D 0E 0F
      -- -- -- -- -- -- -- --  -- -- -- -- -- -- -- --
0010: 32 02 80 1F 00 03 80 04  80 05 80 1F 01 1C 06 80  2...............
0020: 5B 07 80 BD 40 0F 01 BD  40 0F 01 73 74 6E 31 1C  [...@...@..stn1.
0030: 08 80 00                                          ...             
```

#### Opcodes

```
  0: 0x0010 [0x32] ExtData[1]->MainSpeed = 13* * 0.1
  1: 0x0013 [0x1F] MOVE_ENTITY: EventEntity moves to X=-58.233*, Z=101.664*, Y=0.000*
  2: 0x001B [0x1F] MOVE_ENTITY: Update entity position (mode=1)
  3: 0x001D [0x1C] WAIT(15* ticks)
  4: 0x0020 [0x5B] LOAD_EXT_SCHEDULER: Load scheduler "stn1" with entities [Laila (ID: 17776829/0x010F40BD), Laila (ID: 17776829/0x010F40BD)], work=1253*
  5: 0x002F [0x1C] WAIT(30* ticks)
  6: 0x0032 [0x00] END_REQSTACK()
```

### Event 65535.2

#### Metadata

| Field        | Value    |
|--------------|----------|
| Entrypoint   | 0x0033   |
| Data Size    | 14 bytes |
| Instructions | 4        |

```
      00 01 02 03 04 05 06 07  08 09 0A 0B 0C 0D 0E 0F
      -- -- -- -- -- -- -- --  -- -- -- -- -- -- -- --
0030:          32 02 80 1F 00  09 80 0A 80 05 80 1F 01     2............
0040: 00                                                .               
```

#### Opcodes

```
  0: 0x0033 [0x32] ExtData[1]->MainSpeed = 13* * 0.1
  1: 0x0036 [0x1F] MOVE_ENTITY: EventEntity moves to X=-54.045*, Z=100.996*, Y=0.000*
  2: 0x003E [0x1F] MOVE_ENTITY: Update entity position (mode=1)
  3: 0x0040 [0x00] END_REQSTACK()
```

### Event 10119

#### Metadata

| Field        | Value   |
|--------------|---------|
| Entrypoint   | 0x0041  |
| Data Size    | 6 bytes |
| Instructions | 4       |

```
      00 01 02 03 04 05 06 07  08 09 0A 0B 0C 0D 0E 0F
      -- -- -- -- -- -- -- --  -- -- -- -- -- -- -- --
0040:    1D 0B 80 23 21 00                               ...#!.         
```

#### Opcodes

```
  0: 0x0041 [0x1D] PRINT_EVENT_MESSAGE(message_id=11850*)
    → "Dance is learned by doin', not by watchin'. Get yer body movin', and dance until ye drop!"
  1: 0x0044 [0x23] WAIT_FOR_DIALOG_INTERACTION
  2: 0x0045 [0x21] END_EVENT
  3: 0x0046 [0x00] END_REQSTACK()
```

### Event 10120

#### Metadata

| Field        | Value   |
|--------------|---------|
| Entrypoint   | 0x0047  |
| Data Size    | 6 bytes |
| Instructions | 4       |

```
      00 01 02 03 04 05 06 07  08 09 0A 0B 0C 0D 0E 0F
      -- -- -- -- -- -- -- --  -- -- -- -- -- -- -- --
0040:                      1D  0C 80 23 21 00                  ...#!.   
```

#### Opcodes

```
  0: 0x0047 [0x1D] PRINT_EVENT_MESSAGE(message_id=11851*)
    → "What are you gawpin' at? I don't give out autographs."
  1: 0x004A [0x23] WAIT_FOR_DIALOG_INTERACTION
  2: 0x004B [0x21] END_EVENT
  3: 0x004C [0x00] END_REQSTACK()
```

### Event 112

#### Metadata

| Field        | Value   |
|--------------|---------|
| Entrypoint   | 0x004D  |
| Data Size    | 1 bytes |
| Instructions | 1       |

```
      00 01 02 03 04 05 06 07  08 09 0A 0B 0C 0D 0E 0F
      -- -- -- -- -- -- -- --  -- -- -- -- -- -- -- --
0040:                                         00                     .  
```

#### Opcodes

```
  0: 0x004D [0x00] END_REQSTACK()
```

### Event 10129

#### Metadata

| Field        | Value   |
|--------------|---------|
| Entrypoint   | 0x004E  |
| Data Size    | 1 bytes |
| Instructions | 1       |

```
      00 01 02 03 04 05 06 07  08 09 0A 0B 0C 0D 0E 0F
      -- -- -- -- -- -- -- --  -- -- -- -- -- -- -- --
0040:                                            00                   . 
```

#### Opcodes

```
  0: 0x004E [0x00] END_REQSTACK()
```

### Event 10130

#### Metadata

| Field        | Value    |
|--------------|----------|
| Entrypoint   | 0x004F   |
| Data Size    | 10 bytes |
| Instructions | 6        |

```
      00 01 02 03 04 05 06 07  08 09 0A 0B 0C 0D 0E 0F
      -- -- -- -- -- -- -- --  -- -- -- -- -- -- -- --
0040:                                               1D                 .
0050: 0D 80 23 1D 0E 80 23 21  00                       ..#...#!.       
```

#### Opcodes

```
  0: 0x004F [0x1D] PRINT_EVENT_MESSAGE(message_id=11870*)
    → "What Troupe Brilioth is aimin' fer is a dance style that captivates and enchants."
  1: 0x0052 [0x23] WAIT_FOR_DIALOG_INTERACTION
  2: 0x0053 [0x1D] PRINT_EVENT_MESSAGE(message_id=11869*)
    → "I want ye to think about how ye can make yer dance "shine.""
  3: 0x0056 [0x23] WAIT_FOR_DIALOG_INTERACTION
  4: 0x0057 [0x21] END_EVENT
  5: 0x0058 [0x00] END_REQSTACK()
```

### Event 10133

#### Metadata

| Field        | Value   |
|--------------|---------|
| Entrypoint   | 0x0059  |
| Data Size    | 1 bytes |
| Instructions | 1       |

```
      00 01 02 03 04 05 06 07  08 09 0A 0B 0C 0D 0E 0F
      -- -- -- -- -- -- -- --  -- -- -- -- -- -- -- --
0050:                             00                             .      
```

#### Opcodes

```
  0: 0x0059 [0x00] END_REQSTACK()
```

### Event 10134

#### Metadata

| Field        | Value   |
|--------------|---------|
| Entrypoint   | 0x005A  |
| Data Size    | 6 bytes |
| Instructions | 4       |

```
      00 01 02 03 04 05 06 07  08 09 0A 0B 0C 0D 0E 0F
      -- -- -- -- -- -- -- --  -- -- -- -- -- -- -- --
0050:                                1D 0F 80 23 21 00            ...#!.
```

#### Opcodes

```
  0: 0x005A [0x1D] PRINT_EVENT_MESSAGE(message_id=11896*)
    → "Enough with the daydreamin'! <Player>, I wanna see more "shine" on that dance o' yers!"
  1: 0x005D [0x23] WAIT_FOR_DIALOG_INTERACTION
  2: 0x005E [0x21] END_EVENT
  3: 0x005F [0x00] END_REQSTACK()
```

### Event 10136

#### Metadata

| Field        | Value   |
|--------------|---------|
| Entrypoint   | 0x0060  |
| Data Size    | 1 bytes |
| Instructions | 1       |

```
      00 01 02 03 04 05 06 07  08 09 0A 0B 0C 0D 0E 0F
      -- -- -- -- -- -- -- --  -- -- -- -- -- -- -- --
0060: 00                                                .               
```

#### Opcodes

```
  0: 0x0060 [0x00] END_REQSTACK()
```

### Event 10137

#### Metadata

| Field        | Value   |
|--------------|---------|
| Entrypoint   | 0x0061  |
| Data Size    | 6 bytes |
| Instructions | 4       |

```
      00 01 02 03 04 05 06 07  08 09 0A 0B 0C 0D 0E 0F
      -- -- -- -- -- -- -- --  -- -- -- -- -- -- -- --
0060:    1D 10 80 23 21 00                               ...#!.         
```

#### Opcodes

```
  0: 0x0061 [0x1D] PRINT_EVENT_MESSAGE(message_id=11911*)
    → "If ye want t'become a top-notch dancer, ye better go an' find a top-notch musician t'work with."
  1: 0x0064 [0x23] WAIT_FOR_DIALOG_INTERACTION
  2: 0x0065 [0x21] END_EVENT
  3: 0x0066 [0x00] END_REQSTACK()
```

### Event 10139

#### Metadata

| Field        | Value   |
|--------------|---------|
| Entrypoint   | 0x0067  |
| Data Size    | 1 bytes |
| Instructions | 1       |

```
      00 01 02 03 04 05 06 07  08 09 0A 0B 0C 0D 0E 0F
      -- -- -- -- -- -- -- --  -- -- -- -- -- -- -- --
0060:                      00                                  .        
```

#### Opcodes

```
  0: 0x0067 [0x00] END_REQSTACK()
```

### Event 10214

#### Metadata

| Field        | Value   |
|--------------|---------|
| Entrypoint   | 0x0068  |
| Data Size    | 1 bytes |
| Instructions | 1       |

```
      00 01 02 03 04 05 06 07  08 09 0A 0B 0C 0D 0E 0F
      -- -- -- -- -- -- -- --  -- -- -- -- -- -- -- --
0060:                          00                               .       
```

#### Opcodes

```
  0: 0x0068 [0x00] END_REQSTACK()
```

### Event 10215

#### Metadata

| Field        | Value   |
|--------------|---------|
| Entrypoint   | 0x0069  |
| Data Size    | 1 bytes |
| Instructions | 1       |

```
      00 01 02 03 04 05 06 07  08 09 0A 0B 0C 0D 0E 0F
      -- -- -- -- -- -- -- --  -- -- -- -- -- -- -- --
0060:                             00                             .      
```

#### Opcodes

```
  0: 0x0069 [0x00] END_REQSTACK()
```

### Event 10140

#### Metadata

| Field        | Value   |
|--------------|---------|
| Entrypoint   | 0x006A  |
| Data Size    | 6 bytes |
| Instructions | 4       |

```
      00 01 02 03 04 05 06 07  08 09 0A 0B 0C 0D 0E 0F
      -- -- -- -- -- -- -- --  -- -- -- -- -- -- -- --
0060:                                1D 11 80 23 21 00            ...#!.
```

#### Opcodes

```
  0: 0x006A [0x1D] PRINT_EVENT_MESSAGE(message_id=11972*)
    → "I've never forgotten the humiliation I felt when I was rejected by Valeriano."
  1: 0x006D [0x23] WAIT_FOR_DIALOG_INTERACTION
  2: 0x006E [0x21] END_EVENT
  3: 0x006F [0x00] END_REQSTACK()
```

### Event 10143

#### Metadata

| Field        | Value   |
|--------------|---------|
| Entrypoint   | 0x0070  |
| Data Size    | 1 bytes |
| Instructions | 1       |

```
      00 01 02 03 04 05 06 07  08 09 0A 0B 0C 0D 0E 0F
      -- -- -- -- -- -- -- --  -- -- -- -- -- -- -- --
0070: 00                                                .               
```

#### Opcodes

```
  0: 0x0070 [0x00] END_REQSTACK()
```

### Event 10144

#### Metadata

| Field        | Value    |
|--------------|----------|
| Entrypoint   | 0x0071   |
| Data Size    | 11 bytes |
| Instructions | 5        |

```
      00 01 02 03 04 05 06 07  08 09 0A 0B 0C 0D 0E 0F
      -- -- -- -- -- -- -- --  -- -- -- -- -- -- -- --
0070:    03 02 10 12 80 1D 13  80 23 21 00               ........#!.    
```

#### Opcodes

```
  0: 0x0071 [0x03] Work_Zone[2] = 973*
  1: 0x0076 [0x1D] PRINT_EVENT_MESSAGE(message_id=11990*)
    → "Pass $3 to the owner o' the music shop in Bastok Markets. Valeriano is supposed t'be a regular patron."
  2: 0x0079 [0x23] WAIT_FOR_DIALOG_INTERACTION
  3: 0x007A [0x21] END_EVENT
  4: 0x007B [0x00] END_REQSTACK()
```

### Event 10147

#### Metadata

| Field        | Value   |
|--------------|---------|
| Entrypoint   | 0x007C  |
| Data Size    | 1 bytes |
| Instructions | 1       |

```
      00 01 02 03 04 05 06 07  08 09 0A 0B 0C 0D 0E 0F
      -- -- -- -- -- -- -- --  -- -- -- -- -- -- -- --
0070:                                      00                       .   
```

#### Opcodes

```
  0: 0x007C [0x00] END_REQSTACK()
```

### Event 10148

#### Metadata

| Field        | Value   |
|--------------|---------|
| Entrypoint   | 0x007D  |
| Data Size    | 6 bytes |
| Instructions | 4       |

```
      00 01 02 03 04 05 06 07  08 09 0A 0B 0C 0D 0E 0F
      -- -- -- -- -- -- -- --  -- -- -- -- -- -- -- --
0070:                                         1D 14 80               ...
0080: 23 21 00                                          #!.             
```

#### Opcodes

```
  0: 0x007D [0x1D] PRINT_EVENT_MESSAGE(message_id=12005*)
    → "No slackin' off before the performance!"
  1: 0x0080 [0x23] WAIT_FOR_DIALOG_INTERACTION
  2: 0x0081 [0x21] END_EVENT
  3: 0x0082 [0x00] END_REQSTACK()
```

### Event 10149

#### Metadata

| Field        | Value   |
|--------------|---------|
| Entrypoint   | 0x0083  |
| Data Size    | 1 bytes |
| Instructions | 1       |

```
      00 01 02 03 04 05 06 07  08 09 0A 0B 0C 0D 0E 0F
      -- -- -- -- -- -- -- --  -- -- -- -- -- -- -- --
0080:          00                                          .            
```

#### Opcodes

```
  0: 0x0083 [0x00] END_REQSTACK()
```

### Event 10151

#### Metadata

| Field        | Value   |
|--------------|---------|
| Entrypoint   | 0x0084  |
| Data Size    | 1 bytes |
| Instructions | 1       |

```
      00 01 02 03 04 05 06 07  08 09 0A 0B 0C 0D 0E 0F
      -- -- -- -- -- -- -- --  -- -- -- -- -- -- -- --
0080:             00                                        .           
```

#### Opcodes

```
  0: 0x0084 [0x00] END_REQSTACK()
```

### Event 10209

#### Metadata

| Field        | Value   |
|--------------|---------|
| Entrypoint   | 0x0085  |
| Data Size    | 1 bytes |
| Instructions | 1       |

```
      00 01 02 03 04 05 06 07  08 09 0A 0B 0C 0D 0E 0F
      -- -- -- -- -- -- -- --  -- -- -- -- -- -- -- --
0080:                00                                      .          
```

#### Opcodes

```
  0: 0x0085 [0x00] END_REQSTACK()
```

### Event 10210

#### Metadata

| Field        | Value   |
|--------------|---------|
| Entrypoint   | 0x0086  |
| Data Size    | 1 bytes |
| Instructions | 1       |

```
      00 01 02 03 04 05 06 07  08 09 0A 0B 0C 0D 0E 0F
      -- -- -- -- -- -- -- --  -- -- -- -- -- -- -- --
0080:                   00                                    .         
```

#### Opcodes

```
  0: 0x0086 [0x00] END_REQSTACK()
```

### Event 10211

#### Metadata

| Field        | Value   |
|--------------|---------|
| Entrypoint   | 0x0087  |
| Data Size    | 1 bytes |
| Instructions | 1       |

```
      00 01 02 03 04 05 06 07  08 09 0A 0B 0C 0D 0E 0F
      -- -- -- -- -- -- -- --  -- -- -- -- -- -- -- --
0080:                      00                                  .        
```

#### Opcodes

```
  0: 0x0087 [0x00] END_REQSTACK()
```

### Event 10152

#### Metadata

| Field        | Value   |
|--------------|---------|
| Entrypoint   | 0x0088  |
| Data Size    | 6 bytes |
| Instructions | 4       |

```
      00 01 02 03 04 05 06 07  08 09 0A 0B 0C 0D 0E 0F
      -- -- -- -- -- -- -- --  -- -- -- -- -- -- -- --
0080:                          1D 15 80 23 21 00                ...#!.  
```

#### Opcodes

```
  0: 0x0088 [0x1D] PRINT_EVENT_MESSAGE(message_id=12038*)
    → "We'll show them next time."
  1: 0x008B [0x23] WAIT_FOR_DIALOG_INTERACTION
  2: 0x008C [0x21] END_EVENT
  3: 0x008D [0x00] END_REQSTACK()
```

### Event 10170

#### Metadata

| Field        | Value    |
|--------------|----------|
| Entrypoint   | 0x008E   |
| Data Size    | 28 bytes |
| Instructions | 9        |

```
      00 01 02 03 04 05 06 07  08 09 0A 0B 0C 0D 0E 0F
      -- -- -- -- -- -- -- --  -- -- -- -- -- -- -- --
0080:                                            42 1D                B.
0090: 16 80 23 02 8B 7F 17 80  00 A3 00 03 01 10 17 80  ..#.............
00A0: 01 A8 00 03 01 10 18 80  21 00                    ........!.      
```

#### Opcodes

```
  0: 0x008E [0x42] SET_CLI_EVENT_CANCEL_DATA()
  1: 0x008F [0x1D] PRINT_EVENT_MESSAGE(message_id=12097*)
    → "Here, take this. Ye deserve it fer all yer hard work."
  2: 0x0092 [0x23] WAIT_FOR_DIALOG_INTERACTION
  3: 0x0093 [0x02] IF !((LocalPlayer->Render.Flags01 >> 25) & 1 == 1*) GOTO 0x00A3
  4: 0x009B [0x03] Work_Zone[1] = 1*
  5: 0x00A0 [0x01] GOTO 0x00A8
  6: 0x00A3 [0x03] Work_Zone[1] = 2*

SUBROUTINE_00A8:
  7: 0x00A8 [0x21] END_EVENT
  8: 0x00A9 [0x00] END_REQSTACK()
```

### Event 10154

#### Metadata

| Field        | Value    |
|--------------|----------|
| Entrypoint   | 0x00AA   |
| Data Size    | 10 bytes |
| Instructions | 6        |

```
      00 01 02 03 04 05 06 07  08 09 0A 0B 0C 0D 0E 0F
      -- -- -- -- -- -- -- --  -- -- -- -- -- -- -- --
00A0:                                1D 19 80 23 1D 1A            ...#..
00B0: 80 23 21 00                                       .#!.            
```

#### Opcodes

```
  0: 0x00AA [0x1D] PRINT_EVENT_MESSAGE(message_id=12098*)
    → "Dance can be illusive at times--the harder ye seek, the more ye lose sight o' it..."
  1: 0x00AD [0x23] WAIT_FOR_DIALOG_INTERACTION
  2: 0x00AE [0x1D] PRINT_EVENT_MESSAGE(message_id=12099*)
    → "When that happens, just clear all unnecessary thoughts from ye mind an' ev'rythin' will be alright."
  3: 0x00B1 [0x23] WAIT_FOR_DIALOG_INTERACTION
  4: 0x00B2 [0x21] END_EVENT
  5: 0x00B3 [0x00] END_REQSTACK()
```

### Event 65535.3

#### Metadata

| Field        | Value   |
|--------------|---------|
| Entrypoint   | 0x00B4  |
| Data Size    | 6 bytes |
| Instructions | 2       |

```
      00 01 02 03 04 05 06 07  08 09 0A 0B 0C 0D 0E 0F
      -- -- -- -- -- -- -- --  -- -- -- -- -- -- -- --
00B0:             03 00 00 05  80 00                        ......      
```

#### Opcodes

```
  0: 0x00B4 [0x03] ExtData[1]->WorkLocal[0] = 0*
  1: 0x00B9 [0x00] END_REQSTACK()
```

### Event 65535.4

#### Metadata

| Field        | Value    |
|--------------|----------|
| Entrypoint   | 0x00BA   |
| Data Size    | 57 bytes |
| Instructions | 12       |

```
      00 01 02 03 04 05 06 07  08 09 0A 0B 0C 0D 0E 0F
      -- -- -- -- -- -- -- --  -- -- -- -- -- -- -- --
00B0:                                02 00 00 05 80 00            ......
00C0: F2 00 6E F8 FF FF 7F 1B  80 99 F8 FF FF 7F 1C 1C  ..n.............
00D0: 80 6E F8 FF FF 7F 1D 80  99 F8 FF FF 7F 1C 1C 80  .n..............
00E0: 6E F8 FF FF 7F 1E 80 99  F8 FF FF 7F 1C 1C 80 01  n...............
00F0: BA 00 00                                          ...             
```

#### Opcodes

```
  0: 0x00BA [0x02] IF !(ExtData[1]->WorkLocal[0] == 0*) GOTO 0x00F2
  1: 0x00C2 [0x6E] EventEntity uses emote 65*
  2: 0x00C9 [0x99] Wait for EventEntity animation to complete
  3: 0x00CE [0x1C] WAIT(180* ticks)
  4: 0x00D1 [0x6E] EventEntity uses emote 66*
  5: 0x00D8 [0x99] Wait for EventEntity animation to complete
  6: 0x00DD [0x1C] WAIT(180* ticks)
  7: 0x00E0 [0x6E] EventEntity uses emote 67*
  8: 0x00E7 [0x99] Wait for EventEntity animation to complete
  9: 0x00EC [0x1C] WAIT(180* ticks)
 10: 0x00EF [0x01] GOTO 0x00BA
 11: 0x00F2 [0x00] END_REQSTACK()
```

### Event 65535.5

#### Metadata

| Field        | Value   |
|--------------|---------|
| Entrypoint   | 0x00F3  |
| Data Size    | 6 bytes |
| Instructions | 2       |

```
      00 01 02 03 04 05 06 07  08 09 0A 0B 0C 0D 0E 0F
      -- -- -- -- -- -- -- --  -- -- -- -- -- -- -- --
00F0:          03 00 00 17 80  00                          ......       
```

#### Opcodes

```
  0: 0x00F3 [0x03] ExtData[1]->WorkLocal[0] = 1*
  1: 0x00F8 [0x00] END_REQSTACK()
```

### Event 10160

#### Metadata

| Field        | Value   |
|--------------|---------|
| Entrypoint   | 0x00F9  |
| Data Size    | 1 bytes |
| Instructions | 1       |

```
      00 01 02 03 04 05 06 07  08 09 0A 0B 0C 0D 0E 0F
      -- -- -- -- -- -- -- --  -- -- -- -- -- -- -- --
00F0:                             00                             .      
```

#### Opcodes

```
  0: 0x00F9 [0x00] END_REQSTACK()
```

### Event 10161

#### Metadata

| Field        | Value    |
|--------------|----------|
| Entrypoint   | 0x00FA   |
| Data Size    | 19 bytes |
| Instructions | 9        |

```
      00 01 02 03 04 05 06 07  08 09 0A 0B 0C 0D 0E 0F
      -- -- -- -- -- -- -- --  -- -- -- -- -- -- -- --
00F0:                                1D 1F 80 23 03 02            ...#..
0100: 10 20 80 1D 21 80 23 1D  22 80 23 21 00           . ..!.#.".#!.   
```

#### Opcodes

```
  0: 0x00FA [0x1D] PRINT_EVENT_MESSAGE(message_id=12109*)
    → "Ye've traveled through many a land durin' yer trainin' t'become a dancer."
  1: 0x00FD [0x23] WAIT_FOR_DIALOG_INTERACTION
  2: 0x00FE [0x03] Work_Zone[2] = 2556*
  3: 0x0103 [0x1D] PRINT_EVENT_MESSAGE(message_id=12110*)
    → "If ye retrace yer steps, the Divinity o' Dance may appear before ye an' present ye with $0."
  4: 0x0106 [0x23] WAIT_FOR_DIALOG_INTERACTION
  5: 0x0107 [0x1D] PRINT_EVENT_MESSAGE(message_id=12111*)
    → "If that ever happens, bring the $0 back here an' show me."
  6: 0x010A [0x23] WAIT_FOR_DIALOG_INTERACTION
  7: 0x010B [0x21] END_EVENT
  8: 0x010C [0x00] END_REQSTACK()
```

### Event 10162

#### Metadata

| Field        | Value   |
|--------------|---------|
| Entrypoint   | 0x010D  |
| Data Size    | 1 bytes |
| Instructions | 1       |

```
      00 01 02 03 04 05 06 07  08 09 0A 0B 0C 0D 0E 0F
      -- -- -- -- -- -- -- --  -- -- -- -- -- -- -- --
0100:                                         00                     .  
```

#### Opcodes

```
  0: 0x010D [0x00] END_REQSTACK()
```

### Event 10163

#### Metadata

| Field        | Value    |
|--------------|----------|
| Entrypoint   | 0x010E   |
| Data Size    | 47 bytes |
| Instructions | 13       |

```
      00 01 02 03 04 05 06 07  08 09 0A 0B 0C 0D 0E 0F
      -- -- -- -- -- -- -- --  -- -- -- -- -- -- -- --
0100:                                            42 1D                B.
0110: 23 80 23 24 24 80 17 80  05 80 25 02 00 10 05 80  #.#$$.....%.....
0120: 00 2B 01 03 01 10 17 80  01 3B 01 02 00 10 17 80  .+.......;......
0130: 00 3B 01 03 01 10 05 80  01 3B 01 21 00           .;.......;.!.   
```

#### Opcodes

```
  0: 0x010E [0x42] SET_CLI_EVENT_CANCEL_DATA()
  1: 0x010F [0x1D] PRINT_EVENT_MESSAGE(message_id=12119*)
    → "We'll duke it out at Qu'Bia Arena. Ye ready to go?"
  2: 0x0112 [0x23] WAIT_FOR_DIALOG_INTERACTION
  3: 0x0113 [0x24] CREATE_DIALOG(message_id=12120*, default_option=1*, option_flags=0*)
    → "Go to Qu'Bia Arena? [Ready when you are!/I need time to prepare...]"
  4: 0x011A [0x25] WAIT_DIALOG_SELECT()
  5: 0x011B [0x02] IF !(Work_Zone[0] == 0*) GOTO 0x012B
  6: 0x0123 [0x03] Work_Zone[1] = 1*
  7: 0x0128 [0x01] GOTO 0x013B
  8: 0x012B [0x02] IF !(Work_Zone[0] == 1*) GOTO 0x013B
  9: 0x0133 [0x03] Work_Zone[1] = 0*
 10: 0x0138 [0x01] GOTO 0x013B

SUBROUTINE_013B:
 11: 0x013B [0x21] END_EVENT
 12: 0x013C [0x00] END_REQSTACK()
```

### Event 10164

#### Metadata

| Field        | Value   |
|--------------|---------|
| Entrypoint   | 0x013D  |
| Data Size    | 6 bytes |
| Instructions | 4       |

```
      00 01 02 03 04 05 06 07  08 09 0A 0B 0C 0D 0E 0F
      -- -- -- -- -- -- -- --  -- -- -- -- -- -- -- --
0130:                                         1D 25 80               .%.
0140: 23 21 00                                          #!.             
```

#### Opcodes

```
  0: 0x013D [0x1D] PRINT_EVENT_MESSAGE(message_id=12124*)
    → "Yer destiny is t'seek out bigger stages until ye one day become diva to the whole o' Vana'diel."
  1: 0x0140 [0x23] WAIT_FOR_DIALOG_INTERACTION
  2: 0x0141 [0x21] END_EVENT
  3: 0x0142 [0x00] END_REQSTACK()
```
