# 17776794 - Pelagia

## Common Data

| Field            | Value                 |
|------------------|-----------------------|
| Zone             | Upper Jeuno (ID: 244) |
| Block Size       | 748 bytes             |
| Total Events     | 23                    |
| References Count | 40                    |

## List of Events

| Event ID                   | Entrypoint   |   Size |   Instructions |
|----------------------------|--------------|--------|----------------|
| [65535](#event-65535)      | 0x0000       |      1 |              1 |
| [10060](#event-10060)      | 0x0001       |      1 |              1 |
| [10205](#event-10205)      | 0x0002       |      1 |              1 |
| [10062](#event-10062)      | 0x0003       |      1 |              1 |
| [10206](#event-10206)      | 0x0004       |      1 |              1 |
| [10207](#event-10207)      | 0x0005       |      1 |              1 |
| [65535.1](#event-655351)   | 0x0006       |     23 |              5 |
| [65535.2](#event-655352)   | 0x001D       |     14 |              4 |
| [65535.3](#event-655353)   | 0x002B       |     23 |              3 |
| [65535.4](#event-655354)   | 0x0042       |     38 |             10 |
| [65535.5](#event-655355)   | 0x0068       |     14 |              4 |
| [65535.6](#event-655356)   | 0x0076       |     33 |              5 |
| [65535.7](#event-655357)   | 0x0097       |     32 |              6 |
| [65535.8](#event-655358)   | 0x00B7       |     17 |              3 |
| [65535.9](#event-655359)   | 0x00C8       |     22 |              4 |
| [65535.10](#event-6553510) | 0x00DE       |     15 |              3 |
| [65535.11](#event-6553511) | 0x00ED       |    200 |             19 |
| [10139](#event-10139)      | 0x01B5       |      7 |              2 |
| [10214](#event-10214)      | 0x01BC       |      7 |              2 |
| [10151](#event-10151)      | 0x01C3       |      7 |              2 |
| [10209](#event-10209)      | 0x01CA       |      7 |              2 |
| [10210](#event-10210)      | 0x01D1       |      7 |              2 |
| [10211](#event-10211)      | 0x01D8       |      7 |              2 |

## DAT References (imed_data)

|   Index | Hex Value   |   Dec Value |
|---------|-------------|-------------|
|       0 | 0xFFFF267E  |  4294911614 |
|       1 | 0x1CFB1     |      118705 |
|       2 | 0x0000      |           0 |
|       3 | 0x001D      |          29 |
|       4 | 0x000D      |          13 |
|       5 | 0xFFFF4B31  |  4294921009 |
|       6 | 0x1A66E     |      108142 |
|       7 | 0xFFFF1A27  |  4294908455 |
|       8 | 0xFFFFD497  |  4294956183 |
|       9 | 0xFFFFFB92  |  4294966162 |
|      10 | 0x0322      |         802 |
|      11 | 0x273C2     |      160706 |
|      12 | 0xFFFC7D57  |  4294737239 |
|      13 | 0x4F4E      |       20302 |
|      14 | 0x003C      |          60 |
|      15 | 0x26869     |      157801 |
|      16 | 0xFFFC7D63  |  4294737251 |
|      17 | 0x4F0D      |       20237 |
|      18 | 0x0028      |          40 |
|      19 | 0x26B85     |      158597 |
|      20 | 0xFFFC90DC  |  4294742236 |
|      21 | 0x517C      |       20860 |
|      22 | 0x0013      |          19 |
|      23 | 0x000F      |          15 |
|      24 | 0x26B60     |      158560 |
|      25 | 0xFFFC85ED  |  4294739437 |
|      26 | 0x501E      |       20510 |
|      27 | 0x2856A     |      165226 |
|      28 | 0xFFFC525C  |  4294726236 |
|      29 | 0x4EB2      |       20146 |
|      30 | 0x28203     |      164355 |
|      31 | 0xFFFC4CDD  |  4294724829 |
|      32 | 0x4E45      |       20037 |
|      33 | 0x27B52     |      162642 |
|      34 | 0xFFFC49A7  |  4294724007 |
|      35 | 0x4E1F      |       19999 |
|      36 | 0x0D35      |        3381 |
|      37 | 0x001E      |          30 |
|      38 | 0x00C9      |         201 |
|      39 | 0x0025      |          37 |

## Events

### Event 65535

#### Metadata

| Field        | Value   |
|--------------|---------|
| Entrypoint   | 0x0000  |
| Data Size    | 1 bytes |
| Instructions | 1       |

```
      00 01 02 03 04 05 06 07  08 09 0A 0B 0C 0D 0E 0F
      -- -- -- -- -- -- -- --  -- -- -- -- -- -- -- --
0000: 00                                                .               
```

#### Opcodes

```
  0: 0x0000 [0x00] END_REQSTACK()
```

### Event 10060

#### Metadata

| Field        | Value   |
|--------------|---------|
| Entrypoint   | 0x0001  |
| Data Size    | 1 bytes |
| Instructions | 1       |

```
      00 01 02 03 04 05 06 07  08 09 0A 0B 0C 0D 0E 0F
      -- -- -- -- -- -- -- --  -- -- -- -- -- -- -- --
0000:    00                                              .              
```

#### Opcodes

```
  0: 0x0001 [0x00] END_REQSTACK()
```

### Event 10205

#### Metadata

| Field        | Value   |
|--------------|---------|
| Entrypoint   | 0x0002  |
| Data Size    | 1 bytes |
| Instructions | 1       |

```
      00 01 02 03 04 05 06 07  08 09 0A 0B 0C 0D 0E 0F
      -- -- -- -- -- -- -- --  -- -- -- -- -- -- -- --
0000:       00                                            .             
```

#### Opcodes

```
  0: 0x0002 [0x00] END_REQSTACK()
```

### Event 10062

#### Metadata

| Field        | Value   |
|--------------|---------|
| Entrypoint   | 0x0003  |
| Data Size    | 1 bytes |
| Instructions | 1       |

```
      00 01 02 03 04 05 06 07  08 09 0A 0B 0C 0D 0E 0F
      -- -- -- -- -- -- -- --  -- -- -- -- -- -- -- --
0000:          00                                          .            
```

#### Opcodes

```
  0: 0x0003 [0x00] END_REQSTACK()
```

### Event 10206

#### Metadata

| Field        | Value   |
|--------------|---------|
| Entrypoint   | 0x0004  |
| Data Size    | 1 bytes |
| Instructions | 1       |

```
      00 01 02 03 04 05 06 07  08 09 0A 0B 0C 0D 0E 0F
      -- -- -- -- -- -- -- --  -- -- -- -- -- -- -- --
0000:             00                                        .           
```

#### Opcodes

```
  0: 0x0004 [0x00] END_REQSTACK()
```

### Event 10207

#### Metadata

| Field        | Value   |
|--------------|---------|
| Entrypoint   | 0x0005  |
| Data Size    | 1 bytes |
| Instructions | 1       |

```
      00 01 02 03 04 05 06 07  08 09 0A 0B 0C 0D 0E 0F
      -- -- -- -- -- -- -- --  -- -- -- -- -- -- -- --
0000:                00                                      .          
```

#### Opcodes

```
  0: 0x0005 [0x00] END_REQSTACK()
```

### Event 65535.1

#### Metadata

| Field        | Value    |
|--------------|----------|
| Entrypoint   | 0x0006   |
| Data Size    | 23 bytes |
| Instructions | 5        |

```
      00 01 02 03 04 05 06 07  08 09 0A 0B 0C 0D 0E 0F
      -- -- -- -- -- -- -- --  -- -- -- -- -- -- -- --
0000:                   2F 00  F8 FF FF 7F 37 00 80 01        /.....7...
0010: 80 02 80 03 80 22 00 80  F8 FF FF 7F 00           .....".......   
```

#### Opcodes

```
  0: 0x0006 [0x2F] EventEntity->Render.Flags0 &= ~0x80000 // Bit 19
  1: 0x000C [0x37] UPDATE_EVENT_POSITION_AND_DIR: x=-55.682*, z=118.705*, y=0.000*, direction=2.5°*
  2: 0x0015 [0x22] ENTITY_HIDE_FLAG(enabled=0x00)
  3: 0x0017 [0x80] LOAD_WAIT(entity=EventEntity)
  4: 0x001C [0x00] END_REQSTACK()
```

### Event 65535.2

#### Metadata

| Field        | Value    |
|--------------|----------|
| Entrypoint   | 0x001D   |
| Data Size    | 14 bytes |
| Instructions | 4        |

```
      00 01 02 03 04 05 06 07  08 09 0A 0B 0C 0D 0E 0F
      -- -- -- -- -- -- -- --  -- -- -- -- -- -- -- --
0010:                                         32 04 80               2..
0020: 1F 00 05 80 06 80 02 80  1F 01 00                 ...........     
```

#### Opcodes

```
  0: 0x001D [0x32] ExtData[1]->MainSpeed = 13* * 0.1
  1: 0x0020 [0x1F] MOVE_ENTITY: EventEntity moves to X=-46.287*, Z=108.142*, Y=0.000*
  2: 0x0028 [0x1F] MOVE_ENTITY: Update entity position (mode=1)
  3: 0x002A [0x00] END_REQSTACK()
```

### Event 65535.3

#### Metadata

| Field        | Value    |
|--------------|----------|
| Entrypoint   | 0x002B   |
| Data Size    | 23 bytes |
| Instructions | 3        |

```
      00 01 02 03 04 05 06 07  08 09 0A 0B 0C 0D 0E 0F
      -- -- -- -- -- -- -- --  -- -- -- -- -- -- -- --
0020:                                   37 07 80 08 80             7....
0030: 09 80 0A 80 2C 9A 40 0F  01 9A 40 0F 01 64 65 61  ....,.@...@..dea
0040: 64 00                                             d.              
```

#### Opcodes

```
  0: 0x002B [0x37] UPDATE_EVENT_POSITION_AND_DIR: x=-58.841*, z=-11.113*, y=-1.134*, direction=70.5°*
  1: 0x0034 [0x2C] CREATE_SCHEDULER_TASK: Create scheduler "dead" with entities [Pelagia (ID: 17776794/0x010F409A), Pelagia (ID: 17776794/0x010F409A)]
  2: 0x0041 [0x00] END_REQSTACK()
```

### Event 65535.4

#### Metadata

| Field        | Value    |
|--------------|----------|
| Entrypoint   | 0x0042   |
| Data Size    | 38 bytes |
| Instructions | 10       |

```
      00 01 02 03 04 05 06 07  08 09 0A 0B 0C 0D 0E 0F
      -- -- -- -- -- -- -- --  -- -- -- -- -- -- -- --
0040:       2F 00 F8 FF FF 7F  36 0B 80 0C 80 0D 80 22    /.....6......"
0050: 00 80 F8 FF FF 7F 1C 0E  80 32 04 80 1F 00 0F 80  .........2......
0060: 10 80 11 80 1F 01 6F 00                           ......o.        
```

#### Opcodes

```
  0: 0x0042 [0x2F] EventEntity->Render.Flags0 &= ~0x80000 // Bit 19
  1: 0x0048 [0x36] SET_ENTITY_EVENT_POSITION(pos_x=160.706*, pos_z=-230.057*, pos_y=20.302*)
  2: 0x004F [0x22] ENTITY_HIDE_FLAG(enabled=0x00)
  3: 0x0051 [0x80] LOAD_WAIT(entity=EventEntity)
  4: 0x0056 [0x1C] WAIT(60* ticks)
  5: 0x0059 [0x32] ExtData[1]->MainSpeed = 13* * 0.1
  6: 0x005C [0x1F] MOVE_ENTITY: EventEntity moves to X=157.801*, Z=-230.045*, Y=20.237*
  7: 0x0064 [0x1F] MOVE_ENTITY: Update entity position (mode=1)
  8: 0x0066 [0x6F] WAIT_FRAME_DELAY: Yield until WaitTime reaches zero
  9: 0x0067 [0x00] END_REQSTACK()
```

### Event 65535.5

#### Metadata

| Field        | Value    |
|--------------|----------|
| Entrypoint   | 0x0068   |
| Data Size    | 14 bytes |
| Instructions | 4        |

```
      00 01 02 03 04 05 06 07  08 09 0A 0B 0C 0D 0E 0F
      -- -- -- -- -- -- -- --  -- -- -- -- -- -- -- --
0060:                          32 12 80 1F 00 13 80 14          2.......
0070: 80 15 80 1F 01 00                                 ......          
```

#### Opcodes

```
  0: 0x0068 [0x32] ExtData[1]->MainSpeed = 40* * 0.1
  1: 0x006B [0x1F] MOVE_ENTITY: EventEntity moves to X=158.597*, Z=-225.060*, Y=20.860*
  2: 0x0073 [0x1F] MOVE_ENTITY: Update entity position (mode=1)
  3: 0x0075 [0x00] END_REQSTACK()
```

### Event 65535.6

#### Metadata

| Field        | Value    |
|--------------|----------|
| Entrypoint   | 0x0076   |
| Data Size    | 33 bytes |
| Instructions | 5        |

```
      00 01 02 03 04 05 06 07  08 09 0A 0B 0C 0D 0E 0F
      -- -- -- -- -- -- -- --  -- -- -- -- -- -- -- --
0070:                   6E 9A  40 0F 01 03 80 99 9A 40        n.@......@
0080: 0F 01 99 9A 40 0F 01 66  16 80 9A 40 0F 01 9A 40  ....@..f...@...@
0090: 0F 01 73 68 61 30 00                              ..sha0.         
```

#### Opcodes

```
  0: 0x0076 [0x6E] Pelagia (ID: 17776794/0x010F409A) uses emote 29*
  1: 0x007D [0x99] Wait for Pelagia (ID: 17776794/0x010F409A) animation to complete
  2: 0x0082 [0x99] Wait for Pelagia (ID: 17776794/0x010F409A) animation to complete
  3: 0x0087 [0x66] LOAD_EXT_SCHEDULER_MAIN: Load scheduler "sha0" with entities [Pelagia (ID: 17776794/0x010F409A), Pelagia (ID: 17776794/0x010F409A)], work=19*
  4: 0x0096 [0x00] END_REQSTACK()
```

### Event 65535.7

#### Metadata

| Field        | Value    |
|--------------|----------|
| Entrypoint   | 0x0097   |
| Data Size    | 32 bytes |
| Instructions | 6        |

```
      00 01 02 03 04 05 06 07  08 09 0A 0B 0C 0D 0E 0F
      -- -- -- -- -- -- -- --  -- -- -- -- -- -- -- --
0090:                      1C  17 80 66 16 80 9A 40 0F         ...f...@.
00A0: 01 9A 40 0F 01 73 68 61  31 32 12 80 1F 00 18 80  ..@..sha12......
00B0: 19 80 1A 80 1F 01 00                              .......         
```

#### Opcodes

```
  0: 0x0097 [0x1C] WAIT(15* ticks)
  1: 0x009A [0x66] LOAD_EXT_SCHEDULER_MAIN: Load scheduler "sha1" with entities [Pelagia (ID: 17776794/0x010F409A), Pelagia (ID: 17776794/0x010F409A)], work=19*
  2: 0x00A9 [0x32] ExtData[1]->MainSpeed = 40* * 0.1
  3: 0x00AC [0x1F] MOVE_ENTITY: EventEntity moves to X=158.560*, Z=-227.859*, Y=20.510*
  4: 0x00B4 [0x1F] MOVE_ENTITY: Update entity position (mode=1)
  5: 0x00B6 [0x00] END_REQSTACK()
```

### Event 65535.8

#### Metadata

| Field        | Value    |
|--------------|----------|
| Entrypoint   | 0x00B7   |
| Data Size    | 17 bytes |
| Instructions | 3        |

```
      00 01 02 03 04 05 06 07  08 09 0A 0B 0C 0D 0E 0F
      -- -- -- -- -- -- -- --  -- -- -- -- -- -- -- --
00B0:                      36  1B 80 1C 80 1D 80 4A 9A         6......J.
00C0: 40 0F 01 99 40 0F 01 00                           @...@...        
```

#### Opcodes

```
  0: 0x00B7 [0x36] SET_ENTITY_EVENT_POSITION(pos_x=165.226*, pos_z=-241.060*, pos_y=20.146*)
  1: 0x00BE [0x4A] Pelagia (ID: 17776794/0x010F409A) looks at Pembroke (ID: 17776793/0x010F4099)
  2: 0x00C7 [0x00] END_REQSTACK()
```

### Event 65535.9

#### Metadata

| Field        | Value    |
|--------------|----------|
| Entrypoint   | 0x00C8   |
| Data Size    | 22 bytes |
| Instructions | 4        |

```
      00 01 02 03 04 05 06 07  08 09 0A 0B 0C 0D 0E 0F
      -- -- -- -- -- -- -- --  -- -- -- -- -- -- -- --
00C0:                          36 1E 80 1F 80 20 80 80          6.... ..
00D0: F8 FF FF 7F 4A 9A 40 0F  01 99 40 0F 01 00        ....J.@...@...  
```

#### Opcodes

```
  0: 0x00C8 [0x36] SET_ENTITY_EVENT_POSITION(pos_x=164.355*, pos_z=-242.467*, pos_y=20.037*)
  1: 0x00CF [0x80] LOAD_WAIT(entity=EventEntity)
  2: 0x00D4 [0x4A] Pelagia (ID: 17776794/0x010F409A) looks at Pembroke (ID: 17776793/0x010F4099)
  3: 0x00DD [0x00] END_REQSTACK()
```

### Event 65535.10

#### Metadata

| Field        | Value    |
|--------------|----------|
| Entrypoint   | 0x00DE   |
| Data Size    | 15 bytes |
| Instructions | 3        |

```
      00 01 02 03 04 05 06 07  08 09 0A 0B 0C 0D 0E 0F
      -- -- -- -- -- -- -- --  -- -- -- -- -- -- -- --
00D0:                                            37 21                7!
00E0: 80 22 80 23 80 24 80 80  F8 FF FF 7F 00           .".#.$.......   
```

#### Opcodes

```
  0: 0x00DE [0x37] UPDATE_EVENT_POSITION_AND_DIR: x=162.642*, z=-243.289*, y=19.999*, direction=297.1°*
  1: 0x00E7 [0x80] LOAD_WAIT(entity=EventEntity)
  2: 0x00EC [0x00] END_REQSTACK()
```

### Event 65535.11

#### Metadata

| Field        | Value     |
|--------------|-----------|
| Entrypoint   | 0x00ED    |
| Data Size    | 200 bytes |
| Instructions | 19        |

```
      00 01 02 03 04 05 06 07  08 09 0A 0B 0C 0D 0E 0F
      -- -- -- -- -- -- -- --  -- -- -- -- -- -- -- --
00E0:                                         1C 25 80               .%.
00F0: 79 00 9A 40 0F 01 99 40  0F 01 6E 9A 40 0F 01 03  y..@...@..n.@...
0100: 80 99 9A 40 0F 01 99 9A  40 0F 01 1C 25 80 45 26  ...@....@...%.E&
0110: 80 F0 FF FF 7F F0 FF FF  7F 77 68 6F 31 02 80 55  .........who1..U
0120: 26 80 F0 FF FF 7F F0 FF  FF 7F 77 68 6F 31 52 27  &.........who1R'
0130: 80 F0 FF FF 7F F0 FF FF  7F 73 30 35 34 45 27 80  .........s054E'.
0140: F0 FF FF 7F F0 FF FF 7F  73 30 35 35 02 80 45 26  ........s055..E&
0150: 80 F0 FF FF 7F F0 FF FF  7F 77 68 69 30 02 80 1C  .........whi0...
0160: 17 80 66 16 80 9A 40 0F  01 9A 40 0F 01 73 68 61  ..f...@...@..sha
0170: 30 1C 0E 80 45 26 80 F0  FF FF 7F F0 FF FF 7F 77  0...E&.........w
0180: 68 6F 30 02 80 55 26 80  F0 FF FF 7F F0 FF FF 7F  ho0..U&.........
0190: 77 68 6F 30 52 27 80 F0  FF FF 7F F0 FF FF 7F 73  who0R'.........s
01A0: 30 35 35 45 27 80 F0 FF  FF 7F F0 FF FF 7F 73 30  055E'.........s0
01B0: 35 36 02 80 00                                    56...           
```

#### Opcodes

```
  0: 0x00ED [0x1C] WAIT(30* ticks)
  1: 0x00F0 [0x79] Pelagia (ID: 17776794/0x010F409A) looks at Pembroke (ID: 17776793/0x010F4099) (Basic look)
  2: 0x00FA [0x6E] Pelagia (ID: 17776794/0x010F409A) uses emote 29*
  3: 0x0101 [0x99] Wait for Pelagia (ID: 17776794/0x010F409A) animation to complete
  4: 0x0106 [0x99] Wait for Pelagia (ID: 17776794/0x010F409A) animation to complete
  5: 0x010B [0x1C] WAIT(30* ticks)
  6: 0x010E [0x45] LOAD_SCHEDULED_TASK: Load scheduler "who1" with entities [LocalPlayer, LocalPlayer], work=[201*, 0*]
  7: 0x011F [0x55] WAIT_LOAD_SCHEDULER: Wait for scheduler "who1" with entities [LocalPlayer, LocalPlayer], work=201*
  8: 0x012E [0x52] END_LOAD_SCHEDULER: End scheduler "s054" with entities [LocalPlayer, LocalPlayer], work=37*
  9: 0x013D [0x45] LOAD_SCHEDULED_TASK: Load scheduler "s055" with entities [LocalPlayer, LocalPlayer], work=[37*, 0*]
 10: 0x014E [0x45] LOAD_SCHEDULED_TASK: Load scheduler "whi0" with entities [LocalPlayer, LocalPlayer], work=[201*, 0*]
 11: 0x015F [0x1C] WAIT(15* ticks)
 12: 0x0162 [0x66] LOAD_EXT_SCHEDULER_MAIN: Load scheduler "sha0" with entities [Pelagia (ID: 17776794/0x010F409A), Pelagia (ID: 17776794/0x010F409A)], work=19*
 13: 0x0171 [0x1C] WAIT(60* ticks)
 14: 0x0174 [0x45] LOAD_SCHEDULED_TASK: Load scheduler "who0" with entities [LocalPlayer, LocalPlayer], work=[201*, 0*]
 15: 0x0185 [0x55] WAIT_LOAD_SCHEDULER: Wait for scheduler "who0" with entities [LocalPlayer, LocalPlayer], work=201*
 16: 0x0194 [0x52] END_LOAD_SCHEDULER: End scheduler "s055" with entities [LocalPlayer, LocalPlayer], work=37*
 17: 0x01A3 [0x45] LOAD_SCHEDULED_TASK: Load scheduler "s056" with entities [LocalPlayer, LocalPlayer], work=[37*, 0*]
 18: 0x01B4 [0x00] END_REQSTACK()
```

### Event 10139

#### Metadata

| Field        | Value   |
|--------------|---------|
| Entrypoint   | 0x01B5  |
| Data Size    | 7 bytes |
| Instructions | 2       |

```
      00 01 02 03 04 05 06 07  08 09 0A 0B 0C 0D 0E 0F
      -- -- -- -- -- -- -- --  -- -- -- -- -- -- -- --
01B0:                92 01 F8  FF FF 7F 00                   .......    
```

#### Opcodes

```
  0: 0x01B5 [0x92] EventEntity->Render.Flags3 ^= 0x01
  1: 0x01BB [0x00] END_REQSTACK()
```

### Event 10214

#### Metadata

| Field        | Value   |
|--------------|---------|
| Entrypoint   | 0x01BC  |
| Data Size    | 7 bytes |
| Instructions | 2       |

```
      00 01 02 03 04 05 06 07  08 09 0A 0B 0C 0D 0E 0F
      -- -- -- -- -- -- -- --  -- -- -- -- -- -- -- --
01B0:                                      92 01 F8 FF              ....
01C0: FF 7F 00                                          ...             
```

#### Opcodes

```
  0: 0x01BC [0x92] EventEntity->Render.Flags3 ^= 0x01
  1: 0x01C2 [0x00] END_REQSTACK()
```

### Event 10151

#### Metadata

| Field        | Value   |
|--------------|---------|
| Entrypoint   | 0x01C3  |
| Data Size    | 7 bytes |
| Instructions | 2       |

```
      00 01 02 03 04 05 06 07  08 09 0A 0B 0C 0D 0E 0F
      -- -- -- -- -- -- -- --  -- -- -- -- -- -- -- --
01C0:          92 01 F8 FF FF  7F 00                       .......      
```

#### Opcodes

```
  0: 0x01C3 [0x92] EventEntity->Render.Flags3 ^= 0x01
  1: 0x01C9 [0x00] END_REQSTACK()
```

### Event 10209

#### Metadata

| Field        | Value   |
|--------------|---------|
| Entrypoint   | 0x01CA  |
| Data Size    | 7 bytes |
| Instructions | 2       |

```
      00 01 02 03 04 05 06 07  08 09 0A 0B 0C 0D 0E 0F
      -- -- -- -- -- -- -- --  -- -- -- -- -- -- -- --
01C0:                                92 01 F8 FF FF 7F            ......
01D0: 00                                                .               
```

#### Opcodes

```
  0: 0x01CA [0x92] EventEntity->Render.Flags3 ^= 0x01
  1: 0x01D0 [0x00] END_REQSTACK()
```

### Event 10210

#### Metadata

| Field        | Value   |
|--------------|---------|
| Entrypoint   | 0x01D1  |
| Data Size    | 7 bytes |
| Instructions | 2       |

```
      00 01 02 03 04 05 06 07  08 09 0A 0B 0C 0D 0E 0F
      -- -- -- -- -- -- -- --  -- -- -- -- -- -- -- --
01D0:    92 01 F8 FF FF 7F 00                            .......        
```

#### Opcodes

```
  0: 0x01D1 [0x92] EventEntity->Render.Flags3 ^= 0x01
  1: 0x01D7 [0x00] END_REQSTACK()
```

### Event 10211

#### Metadata

| Field        | Value   |
|--------------|---------|
| Entrypoint   | 0x01D8  |
| Data Size    | 7 bytes |
| Instructions | 2       |

```
      00 01 02 03 04 05 06 07  08 09 0A 0B 0C 0D 0E 0F
      -- -- -- -- -- -- -- --  -- -- -- -- -- -- -- --
01D0:                          92 01 F8 FF FF 7F 00             ....... 
```

#### Opcodes

```
  0: 0x01D8 [0x92] EventEntity->Render.Flags3 ^= 0x01
  1: 0x01DE [0x00] END_REQSTACK()
```
