# 17776658 - Narihira

## Common Data

| Field            | Value                 |
|------------------|-----------------------|
| Zone             | Upper Jeuno (ID: 244) |
| Block Size       | 840 bytes             |
| Total Events     | 27                    |
| References Count | 45                    |

## List of Events

| Event ID                   | Entrypoint   |   Size |   Instructions |
|----------------------------|--------------|--------|----------------|
| [65535](#event-65535)      | 0x0000       |      6 |              3 |
| [112](#event-112)          | 0x0006       |     12 |              3 |
| [119](#event-119)          | 0x0012       |     10 |              2 |
| [202](#event-202)          | 0x001C       |     12 |              3 |
| [65535.1](#event-655351)   | 0x0028       |     11 |              3 |
| [152](#event-152)          | 0x0033       |     10 |              2 |
| [110](#event-110)          | 0x003D       |     10 |              2 |
| [65535.2](#event-655352)   | 0x0047       |     19 |              7 |
| [65535.3](#event-655353)   | 0x005A       |     18 |              4 |
| [65535.4](#event-655354)   | 0x006C       |     11 |              3 |
| [65535.5](#event-655355)   | 0x0077       |     11 |              3 |
| [65535.6](#event-655356)   | 0x0082       |     28 |              4 |
| [65535.7](#event-655357)   | 0x009E       |     10 |              2 |
| [65535.8](#event-655358)   | 0x00A8       |     10 |              2 |
| [65535.9](#event-655359)   | 0x00B2       |     26 |              6 |
| [65535.10](#event-6553510) | 0x00CC       |     38 |              7 |
| [65535.11](#event-6553511) | 0x00F2       |     24 |              8 |
| [65535.12](#event-6553512) | 0x010A       |     19 |              3 |
| [65535.13](#event-6553513) | 0x011D       |     19 |              3 |
| [65535.14](#event-6553514) | 0x0130       |     19 |              3 |
| [65535.15](#event-6553515) | 0x0143       |     57 |              5 |
| [65535.16](#event-6553516) | 0x017C       |     19 |              3 |
| [65535.17](#event-6553517) | 0x018F       |     29 |              3 |
| [65535.18](#event-6553518) | 0x01AC       |     29 |              3 |
| [65535.19](#event-6553519) | 0x01C9       |     68 |              8 |
| [65535.20](#event-6553520) | 0x020D       |      9 |              3 |
| [65535.21](#event-6553521) | 0x0216       |      1 |              1 |

## DAT References (imed_data)

|   Index | Hex Value   |   Dec Value |
|---------|-------------|-------------|
|       0 | 0x000D      |          13 |
|       1 | 0xFFFF7045  |  4294930501 |
|       2 | 0x19D6C     |      105836 |
|       3 | 0x0000      |           0 |
|       4 | 0x083E      |        2110 |
|       5 | 0xFFFEC3B1  |  4294886321 |
|       6 | 0x1A041     |      106561 |
|       7 | 0xFFFFFB50  |  4294966096 |
|       8 | 0x0A1F      |        2591 |
|       9 | 0xFFFEC50F  |  4294886671 |
|      10 | 0x19E31     |      106033 |
|      11 | 0x0A6A      |        2666 |
|      12 | 0xFFFEC0EA  |  4294885610 |
|      13 | 0x1A48A     |      107658 |
|      14 | 0xFFFEA9BF  |  4294879679 |
|      15 | 0x1AF2A     |      110378 |
|      16 | 0xFFFFFB46  |  4294966086 |
|      17 | 0x092B      |        2347 |
|      18 | 0xFFFEBD9F  |  4294884767 |
|      19 | 0x1AA2B     |      109099 |
|      20 | 0xFFFFFB51  |  4294966097 |
|      21 | 0x025B      |         603 |
|      22 | 0xFFFEBD20  |  4294884640 |
|      23 | 0x1A924     |      108836 |
|      24 | 0xFFFEB203  |  4294881795 |
|      25 | 0x1A644     |      108100 |
|      26 | 0xFFFEC0A1  |  4294885537 |
|      27 | 0x1A470     |      107632 |
|      28 | 0xFFFF06F3  |  4294903539 |
|      29 | 0x146C8     |       83656 |
|      30 | 0x0E3F      |        3647 |
|      31 | 0xFFFF50D5  |  4294922453 |
|      32 | 0x19F85     |      106373 |
|      33 | 0x001E      |          30 |
|      34 | 0xFFFEB125  |  4294881573 |
|      35 | 0x1B3C3     |      111555 |
|      36 | 0x0B2D      |        2861 |
|      37 | 0xFFFEB9A0  |  4294883744 |
|      38 | 0x1ADA6     |      109990 |
|      39 | 0x0004      |           4 |
|      40 | 0x0090      |         144 |
|      41 | 0x0078      |         120 |
|      42 | 0x085D      |        2141 |
|      43 | 0x003C      |          60 |
|      44 | 0x1C87      |        7303 |

## Events

### Event 65535

#### Metadata

| Field        | Value   |
|--------------|---------|
| Entrypoint   | 0x0000  |
| Data Size    | 6 bytes |
| Instructions | 3       |

```
      00 01 02 03 04 05 06 07  08 09 0A 0B 0C 0D 0E 0F
      -- -- -- -- -- -- -- --  -- -- -- -- -- -- -- --
0000: 22 01 32 00 80 00                                 ".2...          
```

#### Opcodes

```
  0: 0x0000 [0x22] ENTITY_HIDE_FLAG(enabled=0x01)
  1: 0x0002 [0x32] ExtData[1]->MainSpeed = 13* * 0.1
  2: 0x0005 [0x00] END_REQSTACK()
```

### Event 112

#### Metadata

| Field        | Value    |
|--------------|----------|
| Entrypoint   | 0x0006   |
| Data Size    | 12 bytes |
| Instructions | 3        |

```
      00 01 02 03 04 05 06 07  08 09 0A 0B 0C 0D 0E 0F
      -- -- -- -- -- -- -- --  -- -- -- -- -- -- -- --
0000:                   33 01  37 01 80 02 80 03 80 04        3.7.......
0010: 80 00                                             ..              
```

#### Opcodes

```
  0: 0x0006 [0x33] EventEntity->Render.Flags0 |= 0x200000 // Bit 21 (flag=0x01)
  1: 0x0008 [0x37] UPDATE_EVENT_POSITION_AND_DIR: x=-36.795*, z=105.836*, y=0.000*, direction=185.4°*
  2: 0x0011 [0x00] END_REQSTACK()
```

### Event 119

#### Metadata

| Field        | Value    |
|--------------|----------|
| Entrypoint   | 0x0012   |
| Data Size    | 10 bytes |
| Instructions | 2        |

```
      00 01 02 03 04 05 06 07  08 09 0A 0B 0C 0D 0E 0F
      -- -- -- -- -- -- -- --  -- -- -- -- -- -- -- --
0010:       37 05 80 06 80 07  80 08 80 00                7.........    
```

#### Opcodes

```
  0: 0x0012 [0x37] UPDATE_EVENT_POSITION_AND_DIR: x=-80.975*, z=106.561*, y=-1.200*, direction=227.7°*
  1: 0x001B [0x00] END_REQSTACK()
```

### Event 202

#### Metadata

| Field        | Value    |
|--------------|----------|
| Entrypoint   | 0x001C   |
| Data Size    | 12 bytes |
| Instructions | 3        |

```
      00 01 02 03 04 05 06 07  08 09 0A 0B 0C 0D 0E 0F
      -- -- -- -- -- -- -- --  -- -- -- -- -- -- -- --
0010:                                      22 01 37 09              ".7.
0020: 80 0A 80 07 80 0B 80 00                           ........        
```

#### Opcodes

```
  0: 0x001C [0x22] ENTITY_HIDE_FLAG(enabled=0x01)
  1: 0x001E [0x37] UPDATE_EVENT_POSITION_AND_DIR: x=-80.625*, z=106.033*, y=-1.200*, direction=234.3°*
  2: 0x0027 [0x00] END_REQSTACK()
```

### Event 65535.1

#### Metadata

| Field        | Value    |
|--------------|----------|
| Entrypoint   | 0x0028   |
| Data Size    | 11 bytes |
| Instructions | 3        |

```
      00 01 02 03 04 05 06 07  08 09 0A 0B 0C 0D 0E 0F
      -- -- -- -- -- -- -- --  -- -- -- -- -- -- -- --
0020:                          1F 00 0C 80 0D 80 07 80          ........
0030: 1F 01 00                                          ...             
```

#### Opcodes

```
  0: 0x0028 [0x1F] MOVE_ENTITY: EventEntity moves to X=-81.686*, Z=107.658*, Y=-1.200*
  1: 0x0030 [0x1F] MOVE_ENTITY: Update entity position (mode=1)
  2: 0x0032 [0x00] END_REQSTACK()
```

### Event 152

#### Metadata

| Field        | Value    |
|--------------|----------|
| Entrypoint   | 0x0033   |
| Data Size    | 10 bytes |
| Instructions | 2        |

```
      00 01 02 03 04 05 06 07  08 09 0A 0B 0C 0D 0E 0F
      -- -- -- -- -- -- -- --  -- -- -- -- -- -- -- --
0030:          37 0E 80 0F 80  10 80 11 80 00              7.........   
```

#### Opcodes

```
  0: 0x0033 [0x37] UPDATE_EVENT_POSITION_AND_DIR: x=-87.617*, z=110.378*, y=-1.210*, direction=206.3°*
  1: 0x003C [0x00] END_REQSTACK()
```

### Event 110

#### Metadata

| Field        | Value    |
|--------------|----------|
| Entrypoint   | 0x003D   |
| Data Size    | 10 bytes |
| Instructions | 2        |

```
      00 01 02 03 04 05 06 07  08 09 0A 0B 0C 0D 0E 0F
      -- -- -- -- -- -- -- --  -- -- -- -- -- -- -- --
0030:                                         37 12 80               7..
0040: 13 80 14 80 15 80 00                              .......         
```

#### Opcodes

```
  0: 0x003D [0x37] UPDATE_EVENT_POSITION_AND_DIR: x=-82.529*, z=109.099*, y=-1.199*, direction=53.0°*
  1: 0x0046 [0x00] END_REQSTACK()
```

### Event 65535.2

#### Metadata

| Field        | Value    |
|--------------|----------|
| Entrypoint   | 0x0047   |
| Data Size    | 19 bytes |
| Instructions | 7        |

```
      00 01 02 03 04 05 06 07  08 09 0A 0B 0C 0D 0E 0F
      -- -- -- -- -- -- -- --  -- -- -- -- -- -- -- --
0040:                      1F  00 16 80 17 80 07 80 1F         .........
0050: 01 6F 1E 11 40 0F 01 6F  70 00                    .o..@..op.      
```

#### Opcodes

```
  0: 0x0047 [0x1F] MOVE_ENTITY: EventEntity moves to X=-82.656*, Z=108.836*, Y=-1.200*
  1: 0x004F [0x1F] MOVE_ENTITY: Update entity position (mode=1)
  2: 0x0051 [0x6F] WAIT_FRAME_DELAY: Yield until WaitTime reaches zero
  3: 0x0052 [0x1E] EventEntity looks at Galmut (ID: 17776657/0x010F4011) and starts talking
  4: 0x0057 [0x6F] WAIT_FRAME_DELAY: Yield until WaitTime reaches zero
  5: 0x0058 [0x70] WAIT_ENTITY_RENDER_FLAG: Wait while EventEntity->Render.Flags3 bit 2 is set (cancel turn if not)
  6: 0x0059 [0x00] END_REQSTACK()
```

### Event 65535.3

#### Metadata

| Field        | Value    |
|--------------|----------|
| Entrypoint   | 0x005A   |
| Data Size    | 18 bytes |
| Instructions | 4        |

```
      00 01 02 03 04 05 06 07  08 09 0A 0B 0C 0D 0E 0F
      -- -- -- -- -- -- -- --  -- -- -- -- -- -- -- --
0050:                                1F 00 18 80 19 80            ......
0060: 07 80 1F 01 27 03 F0 FF  FF 7F 1F 00              ....'.......    
```

#### Opcodes

```
  0: 0x005A [0x1F] MOVE_ENTITY: EventEntity moves to X=-85.501*, Z=108.100*, Y=-1.200*
  1: 0x0062 [0x1F] MOVE_ENTITY: Update entity position (mode=1)
  2: 0x0064 [0x27] REQ_SET(priority=0x03, entity_id=LocalPlayer, tag_num=0x1F)
  3: 0x006B [0x00] END_REQSTACK()
```

### Event 65535.4

#### Metadata

| Field        | Value    |
|--------------|----------|
| Entrypoint   | 0x006C   |
| Data Size    | 11 bytes |
| Instructions | 3        |

```
      00 01 02 03 04 05 06 07  08 09 0A 0B 0C 0D 0E 0F
      -- -- -- -- -- -- -- --  -- -- -- -- -- -- -- --
0060:                                      1F 00 1A 80              ....
0070: 1B 80 14 80 1F 01 00                              .......         
```

#### Opcodes

```
  0: 0x006C [0x1F] MOVE_ENTITY: EventEntity moves to X=-81.759*, Z=107.632*, Y=-1.199*
  1: 0x0074 [0x1F] MOVE_ENTITY: Update entity position (mode=1)
  2: 0x0076 [0x00] END_REQSTACK()
```

### Event 65535.5

#### Metadata

| Field        | Value    |
|--------------|----------|
| Entrypoint   | 0x0077   |
| Data Size    | 11 bytes |
| Instructions | 3        |

```
      00 01 02 03 04 05 06 07  08 09 0A 0B 0C 0D 0E 0F
      -- -- -- -- -- -- -- --  -- -- -- -- -- -- -- --
0070:                      1F  00 12 80 13 80 14 80 1F         .........
0080: 01 00                                             ..              
```

#### Opcodes

```
  0: 0x0077 [0x1F] MOVE_ENTITY: EventEntity moves to X=-82.529*, Z=109.099*, Y=-1.199*
  1: 0x007F [0x1F] MOVE_ENTITY: Update entity position (mode=1)
  2: 0x0081 [0x00] END_REQSTACK()
```

### Event 65535.6

#### Metadata

| Field        | Value    |
|--------------|----------|
| Entrypoint   | 0x0082   |
| Data Size    | 28 bytes |
| Instructions | 4        |

```
      00 01 02 03 04 05 06 07  08 09 0A 0B 0C 0D 0E 0F
      -- -- -- -- -- -- -- --  -- -- -- -- -- -- -- --
0080:       3B F8 FF FF 7F 00  00 01 00 02 00 3A F8 FF    ;..........:..
0090: FF 7F 03 00 37 1C 80 1D  80 03 80 1E 80 00        ....7.........  
```

#### Opcodes

```
  0: 0x0082 [0x3B] GET_ENTITY_POSITION(entity=EventEntity, x_destination=ExtData[1]->WorkLocal[0], y_destination=ExtData[1]->WorkLocal[1], z_destination=ExtData[1]->WorkLocal[2])
  1: 0x008D [0x3A] CONVERT_YAW_TO_BYTE(entity=EventEntity, result_destination=ExtData[1]->WorkLocal[3])
  2: 0x0094 [0x37] UPDATE_EVENT_POSITION_AND_DIR: x=-63.757*, z=83.656*, y=0.000*, direction=320.5°*
  3: 0x009D [0x00] END_REQSTACK()
```

### Event 65535.7

#### Metadata

| Field        | Value    |
|--------------|----------|
| Entrypoint   | 0x009E   |
| Data Size    | 10 bytes |
| Instructions | 2        |

```
      00 01 02 03 04 05 06 07  08 09 0A 0B 0C 0D 0E 0F
      -- -- -- -- -- -- -- --  -- -- -- -- -- -- -- --
0090:                                            37 00                7.
00A0: 00 01 00 02 00 03 00 00                           ........        
```

#### Opcodes

```
  0: 0x009E [0x37] UPDATE_EVENT_POSITION_AND_DIR: x=ExtData[1]->WorkLocal[0], z=ExtData[1]->WorkLocal[1], y=ExtData[1]->WorkLocal[2], direction=ExtData[1]->WorkLocal[3]
  1: 0x00A7 [0x00] END_REQSTACK()
```

### Event 65535.8

#### Metadata

| Field        | Value    |
|--------------|----------|
| Entrypoint   | 0x00A8   |
| Data Size    | 10 bytes |
| Instructions | 2        |

```
      00 01 02 03 04 05 06 07  08 09 0A 0B 0C 0D 0E 0F
      -- -- -- -- -- -- -- --  -- -- -- -- -- -- -- --
00A0:                          37 1F 80 20 80 03 80 21          7.. ...!
00B0: 80 00                                             ..              
```

#### Opcodes

```
  0: 0x00A8 [0x37] UPDATE_EVENT_POSITION_AND_DIR: x=-44.843*, z=106.373*, y=0.000*, direction=2.6°*
  1: 0x00B1 [0x00] END_REQSTACK()
```

### Event 65535.9

#### Metadata

| Field        | Value    |
|--------------|----------|
| Entrypoint   | 0x00B2   |
| Data Size    | 26 bytes |
| Instructions | 6        |

```
      00 01 02 03 04 05 06 07  08 09 0A 0B 0C 0D 0E 0F
      -- -- -- -- -- -- -- --  -- -- -- -- -- -- -- --
00B0:       37 22 80 23 80 07  80 24 80 1F 00 25 80 26    7".#...$...%.&
00C0: 80 07 80 1F 01 6F 1E 11  40 0F 01 00              .....o..@...    
```

#### Opcodes

```
  0: 0x00B2 [0x37] UPDATE_EVENT_POSITION_AND_DIR: x=-85.723*, z=111.555*, y=-1.200*, direction=251.4°*
  1: 0x00BB [0x1F] MOVE_ENTITY: EventEntity moves to X=-83.552*, Z=109.990*, Y=-1.200*
  2: 0x00C3 [0x1F] MOVE_ENTITY: Update entity position (mode=1)
  3: 0x00C5 [0x6F] WAIT_FRAME_DELAY: Yield until WaitTime reaches zero
  4: 0x00C6 [0x1E] EventEntity looks at Galmut (ID: 17776657/0x010F4011) and starts talking
  5: 0x00CB [0x00] END_REQSTACK()
```

### Event 65535.10

#### Metadata

| Field        | Value    |
|--------------|----------|
| Entrypoint   | 0x00CC   |
| Data Size    | 38 bytes |
| Instructions | 7        |

```
      00 01 02 03 04 05 06 07  08 09 0A 0B 0C 0D 0E 0F
      -- -- -- -- -- -- -- --  -- -- -- -- -- -- -- --
00C0:                                      06 04 00 02              ....
00D0: 04 00 27 80 01 F1 00 45  28 80 F8 FF FF 7F F8 FF  ..'....E(.......
00E0: FF 7F 73 65 30 30 03 80  1C 29 80 0B 04 00 01 CF  ..se00...)......
00F0: 00 00                                             ..              
```

#### Opcodes

```
  0: 0x00CC [0x06] ExtData[1]->WorkLocal[4] = 0
  1: 0x00CF [0x02] IF !(ExtData[1]->WorkLocal[4] == 4*) GOTO 0x00F1
  2: 0x00D7 [0x45] LOAD_SCHEDULED_TASK: Load scheduler "se00" with entities [EventEntity, EventEntity], work=[144*, 0*]
  3: 0x00E8 [0x1C] WAIT(120* ticks)
  4: 0x00EB [0x0B] ExtData[1]->WorkLocal[4]++
  5: 0x00EE [0x01] GOTO 0x00CF
  6: 0x00F1 [0x00] END_REQSTACK()
```

### Event 65535.11

#### Metadata

| Field        | Value    |
|--------------|----------|
| Entrypoint   | 0x00F2   |
| Data Size    | 24 bytes |
| Instructions | 8        |

```
      00 01 02 03 04 05 06 07  08 09 0A 0B 0C 0D 0E 0F
      -- -- -- -- -- -- -- --  -- -- -- -- -- -- -- --
00F0:       39 2A 80 6F 76 F8  FF FF 7F 1C 21 80 1E F0    9*.ov.....!...
0100: FF FF 7F 6F 76 F8 FF FF  7F 00                    ...ov.....      
```

#### Opcodes

```
  0: 0x00F2 [0x39] SET_ENTITY_DIRECTION(direction=11.8°*)
  1: 0x00F5 [0x6F] WAIT_FRAME_DELAY: Yield until WaitTime reaches zero
  2: 0x00F6 [0x76] CHECK_ENTITY_RENDER_FLAGS: Wait until EventEntity Render.Flags0 and Render.Flags3 conditions are met
  3: 0x00FB [0x1C] WAIT(30* ticks)
  4: 0x00FE [0x1E] EventEntity looks at LocalPlayer and starts talking
  5: 0x0103 [0x6F] WAIT_FRAME_DELAY: Yield until WaitTime reaches zero
  6: 0x0104 [0x76] CHECK_ENTITY_RENDER_FLAGS: Wait until EventEntity Render.Flags0 and Render.Flags3 conditions are met
  7: 0x0109 [0x00] END_REQSTACK()
```

### Event 65535.12

#### Metadata

| Field        | Value    |
|--------------|----------|
| Entrypoint   | 0x010A   |
| Data Size    | 19 bytes |
| Instructions | 3        |

```
      00 01 02 03 04 05 06 07  08 09 0A 0B 0C 0D 0E 0F
      -- -- -- -- -- -- -- --  -- -- -- -- -- -- -- --
0100:                                5B 2B 80 F8 FF FF            [+....
0110: 7F F8 FF FF 7F 74 6C 6B  30 1C 2B 80 00           .....tlk0.+..   
```

#### Opcodes

```
  0: 0x010A [0x5B] LOAD_EXT_SCHEDULER: Load scheduler "tlk0" with entities [EventEntity, EventEntity], work=60*
  1: 0x0119 [0x1C] WAIT(60* ticks)
  2: 0x011C [0x00] END_REQSTACK()
```

### Event 65535.13

#### Metadata

| Field        | Value    |
|--------------|----------|
| Entrypoint   | 0x011D   |
| Data Size    | 19 bytes |
| Instructions | 3        |

```
      00 01 02 03 04 05 06 07  08 09 0A 0B 0C 0D 0E 0F
      -- -- -- -- -- -- -- --  -- -- -- -- -- -- -- --
0110:                                         5B 2B 80               [+.
0120: F8 FF FF 7F F8 FF FF 7F  74 68 6B 31 1C 2B 80 00  ........thk1.+..
```

#### Opcodes

```
  0: 0x011D [0x5B] LOAD_EXT_SCHEDULER: Load scheduler "thk1" with entities [EventEntity, EventEntity], work=60*
  1: 0x012C [0x1C] WAIT(60* ticks)
  2: 0x012F [0x00] END_REQSTACK()
```

### Event 65535.14

#### Metadata

| Field        | Value    |
|--------------|----------|
| Entrypoint   | 0x0130   |
| Data Size    | 19 bytes |
| Instructions | 3        |

```
      00 01 02 03 04 05 06 07  08 09 0A 0B 0C 0D 0E 0F
      -- -- -- -- -- -- -- --  -- -- -- -- -- -- -- --
0130: 5B 2B 80 F8 FF FF 7F F8  FF FF 7F 74 68 6B 32 1C  [+.........thk2.
0140: 2B 80 00                                          +..             
```

#### Opcodes

```
  0: 0x0130 [0x5B] LOAD_EXT_SCHEDULER: Load scheduler "thk2" with entities [EventEntity, EventEntity], work=60*
  1: 0x013F [0x1C] WAIT(60* ticks)
  2: 0x0142 [0x00] END_REQSTACK()
```

### Event 65535.15

#### Metadata

| Field        | Value    |
|--------------|----------|
| Entrypoint   | 0x0143   |
| Data Size    | 57 bytes |
| Instructions | 5        |

```
      00 01 02 03 04 05 06 07  08 09 0A 0B 0C 0D 0E 0F
      -- -- -- -- -- -- -- --  -- -- -- -- -- -- -- --
0140:          5B 2B 80 F8 FF  FF 7F F8 FF FF 7F 61 6E     [+.........an
0150: 6E 30 53 F8 FF FF 7F F8  FF FF 7F 61 6E 6E 30 5B  n0S........ann0[
0160: 2B 80 F8 FF FF 7F F8 FF  FF 7F 61 6E 6E 31 53 F8  +.........ann1S.
0170: FF FF 7F F8 FF FF 7F 61  6E 6E 31 00              .......ann1.    
```

#### Opcodes

```
  0: 0x0143 [0x5B] LOAD_EXT_SCHEDULER: Load scheduler "ann0" with entities [EventEntity, EventEntity], work=60*
  1: 0x0152 [0x53] WAIT_SCHEDULER_TASK: Wait for scheduler "ann0" with entities [EventEntity, EventEntity]
  2: 0x015F [0x5B] LOAD_EXT_SCHEDULER: Load scheduler "ann1" with entities [EventEntity, EventEntity], work=60*
  3: 0x016E [0x53] WAIT_SCHEDULER_TASK: Wait for scheduler "ann1" with entities [EventEntity, EventEntity]
  4: 0x017B [0x00] END_REQSTACK()
```

### Event 65535.16

#### Metadata

| Field        | Value    |
|--------------|----------|
| Entrypoint   | 0x017C   |
| Data Size    | 19 bytes |
| Instructions | 3        |

```
      00 01 02 03 04 05 06 07  08 09 0A 0B 0C 0D 0E 0F
      -- -- -- -- -- -- -- --  -- -- -- -- -- -- -- --
0170:                                      5B 2B 80 F8              [+..
0180: FF FF 7F F8 FF FF 7F 69  6B 61 30 1C 2B 80 00     .......ika0.+.. 
```

#### Opcodes

```
  0: 0x017C [0x5B] LOAD_EXT_SCHEDULER: Load scheduler "ika0" with entities [EventEntity, EventEntity], work=60*
  1: 0x018B [0x1C] WAIT(60* ticks)
  2: 0x018E [0x00] END_REQSTACK()
```

### Event 65535.17

#### Metadata

| Field        | Value    |
|--------------|----------|
| Entrypoint   | 0x018F   |
| Data Size    | 29 bytes |
| Instructions | 3        |

```
      00 01 02 03 04 05 06 07  08 09 0A 0B 0C 0D 0E 0F
      -- -- -- -- -- -- -- --  -- -- -- -- -- -- -- --
0180:                                               5B                 [
0190: 2B 80 F8 FF FF 7F F8 FF  FF 7F 69 6B 61 31 53 F8  +.........ika1S.
01A0: FF FF 7F F8 FF FF 7F 69  6B 61 31 00              .......ika1.    
```

#### Opcodes

```
  0: 0x018F [0x5B] LOAD_EXT_SCHEDULER: Load scheduler "ika1" with entities [EventEntity, EventEntity], work=60*
  1: 0x019E [0x53] WAIT_SCHEDULER_TASK: Wait for scheduler "ika1" with entities [EventEntity, EventEntity]
  2: 0x01AB [0x00] END_REQSTACK()
```

### Event 65535.18

#### Metadata

| Field        | Value    |
|--------------|----------|
| Entrypoint   | 0x01AC   |
| Data Size    | 29 bytes |
| Instructions | 3        |

```
      00 01 02 03 04 05 06 07  08 09 0A 0B 0C 0D 0E 0F
      -- -- -- -- -- -- -- --  -- -- -- -- -- -- -- --
01A0:                                      5B 2B 80 F8              [+..
01B0: FF FF 7F F8 FF FF 7F 73  6B 69 30 53 F8 FF FF 7F  .......ski0S....
01C0: F8 FF FF 7F 73 6B 69 30  00                       ....ski0.       
```

#### Opcodes

```
  0: 0x01AC [0x5B] LOAD_EXT_SCHEDULER: Load scheduler "ski0" with entities [EventEntity, EventEntity], work=60*
  1: 0x01BB [0x53] WAIT_SCHEDULER_TASK: Wait for scheduler "ski0" with entities [EventEntity, EventEntity]
  2: 0x01C8 [0x00] END_REQSTACK()
```

### Event 65535.19

#### Metadata

| Field        | Value    |
|--------------|----------|
| Entrypoint   | 0x01C9   |
| Data Size    | 68 bytes |
| Instructions | 8        |

```
      00 01 02 03 04 05 06 07  08 09 0A 0B 0C 0D 0E 0F
      -- -- -- -- -- -- -- --  -- -- -- -- -- -- -- --
01C0:                             5B 2B 80 F8 FF FF 7F           [+.....
01D0: F8 FF FF 7F 79 6F 72 30  53 F8 FF FF 7F F8 FF FF  ....yor0S.......
01E0: 7F 79 6F 72 30 5B 2B 80  F8 FF FF 7F F8 FF FF 7F  .yor0[+.........
01F0: 73 6B 69 30 1C 2B 80 2B  12 40 0F 01 2C 80 23 53  ski0.+.+.@..,.#S
0200: F8 FF FF 7F F8 FF FF 7F  73 6B 69 30 00           ........ski0.   
```

#### Opcodes

```
  0: 0x01C9 [0x5B] LOAD_EXT_SCHEDULER: Load scheduler "yor0" with entities [EventEntity, EventEntity], work=60*
  1: 0x01D8 [0x53] WAIT_SCHEDULER_TASK: Wait for scheduler "yor0" with entities [EventEntity, EventEntity]
  2: 0x01E5 [0x5B] LOAD_EXT_SCHEDULER: Load scheduler "ski0" with entities [EventEntity, EventEntity], work=60*
  3: 0x01F4 [0x1C] WAIT(60* ticks)
  4: 0x01F7 [0x2B] Narihira (ID: 17776658/0x010F4012) [7303*]:
    → "Ugh..."
  5: 0x01FE [0x23] WAIT_FOR_DIALOG_INTERACTION
  6: 0x01FF [0x53] WAIT_SCHEDULER_TASK: Wait for scheduler "ski0" with entities [EventEntity, EventEntity]
  7: 0x020C [0x00] END_REQSTACK()
```

### Event 65535.20

#### Metadata

| Field        | Value   |
|--------------|---------|
| Entrypoint   | 0x020D  |
| Data Size    | 9 bytes |
| Instructions | 3       |

```
      00 01 02 03 04 05 06 07  08 09 0A 0B 0C 0D 0E 0F
      -- -- -- -- -- -- -- --  -- -- -- -- -- -- -- --
0200:                                         5E 69 64               ^id
0210: 6C 30 1C 2B 80 00                                 l0.+..          
```

#### Opcodes

```
  0: 0x020D [0x5E] EventEntity goes idle (kills current action) (animation: "idl0")
  1: 0x0212 [0x1C] WAIT(60* ticks)
  2: 0x0215 [0x00] END_REQSTACK()
```

### Event 65535.21

#### Metadata

| Field        | Value   |
|--------------|---------|
| Entrypoint   | 0x0216  |
| Data Size    | 1 bytes |
| Instructions | 1       |

```
      00 01 02 03 04 05 06 07  08 09 0A 0B 0C 0D 0E 0F
      -- -- -- -- -- -- -- --  -- -- -- -- -- -- -- --
0210:                   00                                    .         
```

#### Opcodes

```
  0: 0x0216 [0x00] END_REQSTACK()
```
