# 17776805 - Afdeen

## Common Data

| Field            | Value                 |
|------------------|-----------------------|
| Zone             | Upper Jeuno (ID: 244) |
| Block Size       | 6892 bytes            |
| Total Events     | 11                    |
| References Count | 216                   |

## List of Events

| Event ID                 | Entrypoint   |   Size |   Instructions |
|--------------------------|--------------|--------|----------------|
| [65535](#event-65535)    | 0x0000       |      1 |              1 |
| [81](#event-81)          | 0x0001       |      1 |              1 |
| [65535.1](#event-655351) | 0x0002       |     19 |              3 |
| [65535.2](#event-655352) | 0x0015       |     10 |              2 |
| [65535.3](#event-655353) | 0x001F       |     15 |              3 |
| [65535.4](#event-655354) | 0x002E       |     15 |              5 |
| [83](#event-83)          | 0x003D       |     13 |              7 |
| [178](#event-178)        | 0x004A       |   4472 |            993 |
| [203](#event-203)        | 0x11C2       |    798 |            187 |
| [166](#event-166)        | 0x14E0       |    117 |             37 |
| [179](#event-179)        | 0x1555       |    507 |            105 |

## DAT References (imed_data)

|   Index | Hex Value   |   Dec Value |
|---------|-------------|-------------|
|       0 | 0x5F28      |       24360 |
|       1 | 0xFA08      |       64008 |
|       2 | 0x07CB      |        1995 |
|       3 | 0x0000      |           0 |
|       4 | 0x000D      |          13 |
|       5 | 0x6BFF      |       27647 |
|       6 | 0xFC6E      |       64622 |
|       7 | 0x2A83      |       10883 |
|       8 | 0x0001      |           1 |
|       9 | 0x0002      |           2 |
|      10 | 0x0003      |           3 |
|      11 | 0x0004      |           4 |
|      12 | 0x0005      |           5 |
|      13 | 0x0006      |           6 |
|      14 | 0x0007      |           7 |
|      15 | 0x0009      |           9 |
|      16 | 0x000A      |          10 |
|      17 | 0x000B      |          11 |
|      18 | 0x000C      |          12 |
|      19 | 0x000E      |          14 |
|      20 | 0x1C20      |        7200 |
|      21 | 0x2ACB      |       10955 |
|      22 | 0x2ACC      |       10956 |
|      23 | 0x2ACD      |       10957 |
|      24 | 0x2ACE      |       10958 |
|      25 | 0x0008      |           8 |
|      26 | 0x2ACF      |       10959 |
|      27 | 0x0010      |          16 |
|      28 | 0x001F      |          31 |
|      29 | 0x0834      |        2100 |
|      30 | 0x1194      |        4500 |
|      31 | 0x2197      |        8599 |
|      32 | 0x004B      |          75 |
|      33 | 0x02EE      |         750 |
|      34 | 0x003C      |          60 |
|      35 | 0x0258      |         600 |
|      36 | 0x0032      |          50 |
|      37 | 0x01F4      |         500 |
|      38 | 0x0028      |          40 |
|      39 | 0x0190      |         400 |
|      40 | 0x001E      |          30 |
|      41 | 0x012C      |         300 |
|      42 | 0x2198      |        8600 |
|      43 | 0x2199      |        8601 |
|      44 | 0x007A      |         122 |
|      45 | 0x0104      |         260 |
|      46 | 0xFFFFFFFF  |  4294967295 |
|      47 | 0x007F      |         127 |
|      48 | 0x21B6      |        8630 |
|      49 | 0x2196      |        8598 |
|      50 | 0x2AD7      |       10967 |
|      51 | 0x14CD      |        5325 |
|      52 | 0x2B0B      |       11019 |
|      53 | 0x2AD0      |       10960 |
|      54 | 0x2AD8      |       10968 |
|      55 | 0x2AD9      |       10969 |
|      56 | 0x0017      |          23 |
|      57 | 0x0064      |         100 |
|      58 | 0x2ADA      |       10970 |
|      59 | 0x2AD6      |       10966 |
|      60 | 0x0021      |          33 |
|      61 | 0x16DA0     |       93600 |
|      62 | 0x2000      |        8192 |
|      63 | 0x2A300     |      172800 |
|      64 | 0x2AF1      |       10993 |
|      65 | 0x2AF5      |       10997 |
|      66 | 0x14CB      |        5323 |
|      67 | 0x2AF6      |       10998 |
|      68 | 0x2AF4      |       10996 |
|      69 | 0x2ADC      |       10972 |
|      70 | 0x2AF2      |       10994 |
|      71 | 0x2AF3      |       10995 |
|      72 | 0x2B3A      |       11066 |
|      73 | 0x2B38      |       11064 |
|      74 | 0x2B37      |       11063 |
|      75 | 0x2B39      |       11065 |
|      76 | 0x2B3B      |       11067 |
|      77 | 0x2B0E      |       11022 |
|      78 | 0x2B0F      |       11023 |
|      79 | 0x2B10      |       11024 |
|      80 | 0x000F      |          15 |
|      81 | 0x2B11      |       11025 |
|      82 | 0x14CC      |        5324 |
|      83 | 0x14CE      |        5326 |
|      84 | 0x2B12      |       11026 |
|      85 | 0x2B13      |       11027 |
|      86 | 0x2B14      |       11028 |
|      87 | 0x2B15      |       11029 |
|      88 | 0x2B16      |       11030 |
|      89 | 0x2B17      |       11031 |
|      90 | 0x2B08      |       11016 |
|      91 | 0x00C8      |         200 |
|      92 | 0x2B18      |       11032 |
|      93 | 0x2B19      |       11033 |
|      94 | 0x2B1A      |       11034 |
|      95 | 0x2B1B      |       11035 |
|      96 | 0x2B1C      |       11036 |
|      97 | 0x2B1D      |       11037 |
|      98 | 0x2B1E      |       11038 |
|      99 | 0x3F4800    |     4147200 |
|     100 | 0x2B1F      |       11039 |
|     101 | 0x2B20      |       11040 |
|     102 | 0x2B21      |       11041 |
|     103 | 0x2B26      |       11046 |
|     104 | 0x2B28      |       11048 |
|     105 | 0x2B29      |       11049 |
|     106 | 0x2B2A      |       11050 |
|     107 | 0x2B2B      |       11051 |
|     108 | 0x2B2C      |       11052 |
|     109 | 0x2B2D      |       11053 |
|     110 | 0x2B22      |       11042 |
|     111 | 0x2B23      |       11043 |
|     112 | 0x2B24      |       11044 |
|     113 | 0x2B25      |       11045 |
|     114 | 0x2B27      |       11047 |
|     115 | 0x2B2E      |       11054 |
|     116 | 0x219A      |        8602 |
|     117 | 0x219B      |        8603 |
|     118 | 0x219C      |        8604 |
|     119 | 0x219D      |        8605 |
|     120 | 0x219E      |        8606 |
|     121 | 0x219F      |        8607 |
|     122 | 0x21A0      |        8608 |
|     123 | 0x21A1      |        8609 |
|     124 | 0x21A2      |        8610 |
|     125 | 0x21A3      |        8611 |
|     126 | 0x21A4      |        8612 |
|     127 | 0x21A5      |        8613 |
|     128 | 0x21A6      |        8614 |
|     129 | 0x21A7      |        8615 |
|     130 | 0x21A8      |        8616 |
|     131 | 0x21A9      |        8617 |
|     132 | 0x21AA      |        8618 |
|     133 | 0x21AB      |        8619 |
|     134 | 0x21AC      |        8620 |
|     135 | 0x21AD      |        8621 |
|     136 | 0x21AE      |        8622 |
|     137 | 0x21AF      |        8623 |
|     138 | 0x21B0      |        8624 |
|     139 | 0x21B1      |        8625 |
|     140 | 0x21B2      |        8626 |
|     141 | 0x21B3      |        8627 |
|     142 | 0x21B4      |        8628 |
|     143 | 0x21B5      |        8629 |
|     144 | 0x2193      |        8595 |
|     145 | 0x0054      |          84 |
|     146 | 0x93A80     |      604800 |
|     147 | 0x07FF      |        2047 |
|     148 | 0x2194      |        8596 |
|     149 | 0x021C      |         540 |
|     150 | 0x0924      |        2340 |
|     151 | 0x1284      |        4740 |
|     152 | 0x2195      |        8597 |
|     153 | 0x2AF7      |       10999 |
|     154 | 0x2AFA      |       11002 |
|     155 | 0x2AFB      |       11003 |
|     156 | 0x40000000  |  1073741824 |
|     157 | 0x2AFC      |       11004 |
|     158 | 0x2ADF      |       10975 |
|     159 | 0x2AE0      |       10976 |
|     160 | 0x2AE1      |       10977 |
|     161 | 0x2B30      |       11056 |
|     162 | 0x2B31      |       11057 |
|     163 | 0x2B32      |       11058 |
|     164 | 0x2B33      |       11059 |
|     165 | 0x2B35      |       11061 |
|     166 | 0x2B36      |       11062 |
|     167 | 0x2AE2      |       10978 |
|     168 | 0x2AE3      |       10979 |
|     169 | 0x2AE4      |       10980 |
|     170 | 0x0384      |         900 |
|     171 | 0x2AE6      |       10982 |
|     172 | 0x2AE7      |       10983 |
|     173 | 0x2AE8      |       10984 |
|     174 | 0x2AE9      |       10985 |
|     175 | 0x2AEA      |       10986 |
|     176 | 0x2AEB      |       10987 |
|     177 | 0x2AEC      |       10988 |
|     178 | 0x2AED      |       10989 |
|     179 | 0x2AEE      |       10990 |
|     180 | 0x2AEF      |       10991 |
|     181 | 0xFFFFFFFE  |  4294967294 |
|     182 | 0x2ADD      |       10973 |
|     183 | 0xFFFFFFFD  |  4294967293 |
|     184 | 0x2AF0      |       10992 |
|     185 | 0xFFFFFFFC  |  4294967292 |
|     186 | 0x2AFF      |       11007 |
|     187 | 0x2B02      |       11010 |
|     188 | 0x2B03      |       11011 |
|     189 | 0x2B04      |       11012 |
|     190 | 0xFFFFFFFB  |  4294967291 |
|     191 | 0x2AF8      |       11000 |
|     192 | 0x2AF9      |       11001 |
|     193 | 0x2AFD      |       11005 |
|     194 | 0x2AFE      |       11006 |
|     195 | 0x2B00      |       11008 |
|     196 | 0x2B05      |       11013 |
|     197 | 0x2B07      |       11015 |
|     198 | 0x2B06      |       11014 |
|     199 | 0x2B09      |       11017 |
|     200 | 0x004E      |          78 |
|     201 | 0x0012      |          18 |
|     202 | 0x002A      |          42 |
|     203 | 0x0035      |          53 |
|     204 | 0x0036      |          54 |
|     205 | 0x0040      |          64 |
|     206 | 0x0041      |          65 |
|     207 | 0x0042      |          66 |
|     208 | 0x0053      |          83 |
|     209 | 0x0023      |          35 |
|     210 | 0x002F      |          47 |
|     211 | 0x0038      |          56 |
|     212 | 0x0039      |          57 |
|     213 | 0x003A      |          58 |
|     214 | 0x0044      |          68 |
|     215 | 0x0045      |          69 |

## String References

- **8595**: Select a match level... [View all levels./No restriction ($0 gil per match)./Level 60 ($1 gil per match)./Level 50 ($2 gil per match)./Level 40 ($3 gil per match)./Level 30 ($4 gil per match)./Return.]
- **8596**: Select for more information... [, [ / / /Lv. 30/Lv. 40/Lv. 50/Lv. 60/Lv. $7]/, [ / / /Lv. 30/Lv. 40/Lv. 50/Lv. 60/Lv. $794668[ / / /Lv. 30/Lv. 40/Lv. 50/Lv. 60/Lv. $7]/, [ / / /Lv. 30/Lv. 40/Lv. 50/Lv. 60/Lv. $7]/, [ / / /Lv. 30/Lv. 40/Lv. 50/Lv. 60/Lv. $7]/, [ / / /Lv. 30/Lv. 40/Lv. 50/Lv. 60/Lv. $7]/, [ / / /Lv. 30/Lv. 40/Lv. 50/Lv. 60/Lv. $7]/, [ / / /Lv. 30/Lv. 40/Lv. 50/Lv. 60/Lv. $7]/, [ / / /Lv. 30/Lv. 40/Lv. 50/Lv. 60/Lv. $7]/, [ / / /Lv. 30/Lv. 40/Lv. 50/Lv. 60/Lv. $7]/Next./Return.]
- **8597**: <Match $0> Entry period begins: Briefing begins:
- **8598**: I apologize, but your level is too low to participate in an official Brenner match.
- **8599**: Official matches are scheduled to begin at the following times: Match 1: Match 2: Match 3:
- **8600**: Teleportation to the Isle is free of charge, but a participation fee of $0 gil is required before each match.
- **8601**: Travel to the Isle? [Yes./Not yet.]
- **8602**: What would you like to know about? [Basic rules./Official/private matches./Flammen-Brenner./Flamme./Match score./Petras and quarrying./Sprint./KO./Return.]
- **8603**: The basic rules of Brenner are as follows:
- **8604**: First, the participants divide into two teams. Each side's camp contains the same number of "Flammen-Brenner."
- **8605**: At the beginning of the match, half of each side's Flammen-Brenner will be ablaze with "Flamme," or flame, while the other half will remain unlit.
- **8606**: Participants can seize a Flamme from the opposing side's Flammen-Brenner and carry it around the Isle.
- **8607**: The goal is to steal your opponent's Flamme and use them to light your side's Flammen-Brenner.
- **8608**: The side that succeeds in lighting all of its Flammen-Brenner will be declared the winner after a specified amount of time.
- **8609**: If neither side is victorious before the match ends, the outcome will be judged based on the score. The "match score" section of the rulebook contains more information on this subject.
- **8610**: Brenner is significantly divided into public and private matches. Official matches are held periodically according to level and feature general participation.
- **8611**: You cannot reserve the Isle when an official match is being held.
- **8612**: No items are necessary for participation, but a minor fee will be collected. You will be unable to participate if your level is too low.
- **8613**: The match outcome will be recorded unless the number of participants fails to exceed $0 members, or if there are fewer than $1 members in a match where the two sides' numbers differ. In such cases, the game will be considered a training match and will not be recorded.
- **8614**: Private matches require a reservation, and participation may be limited. The Master of Ceremonies (MC) can freely adjust the rules and control match proceedings.
- **8615**: "LS Liga" is a form of private match. You can learn more about LS Liga by speaking to a Marshal.
- **8616**: A Flammen-Brenner is a device that contains a Flamme (flame). The Flammen-Brenner is covered by a grate that will open after taking a set amount of damage, exposing the Flamme.
- **8617**: The participants must utilize this chance to seize the Flamme before the grate recloses. Once the grate is closed, the Flammen-Brenner will begin recovering from the damage it has been dealt.
- **8618**: If you manage to open the opposing team's Flammen-Brenner and capture their Flamme, you should make haste to light one of the Flammen-Brenner on your side.
- **8619**: After a certain amount of time, the Flamme will burn out and the opposing team's Flammen-Brenner will be relit.
- **8620**: Also, please note that you cannot quicken your pace using any special abilities while you are in possession of a Flamme.
- **8621**: In the event that neither side fulfills the conditions for victory, the outcome of the match will be evaluated based on score.
- **8622**: Ten points are awarded to each side for every lit Flammen-Brenner, while one point is awarded whenever a Flamme is captured, used to light a Flammen-Brenner, or recaptured from an opponent. One point is also awarded for protecting the Flammen-Brenner for a certain period of time.
- **8623**: Like Ballista, quarry (/quarry) can be used while playing Brenner. Participants may use this ability to dig up Petras and temporary items.
- **8624**: However, unlike Ballista Petras, Brenner Petras have no effect on the match score. You can trade a Petra to a Pursuivant to recover your HP and MP at no expense to TP.
- **8625**: Sprint cannot be used while carrying a Petra. Also, please note that the scout ability cannot be used in Brenner.
- **8626**: Petras will be lost in the event of a KO, but can be carried over from one match to another.
- **8627**: The sprint (/sprint) ability can be used to increase the player's speed when not in possession of a Flamme or Petras.
- **8628**: In the event of a KO, you will be returned to your team's camp. However, recovery will take longer the more often you fall in battle.
- **8629**: In other words, you will receive a penalty if you fall immediately after recovering from KO. In addition, your TP will be reduced to zero and you will lose any Petras in your possession.
- **8630**: I'm sorry. I wasn't listening. Could you start over from the beginning?
- **10883**: I apologize, but it seems that you cannot visit the Isle yet. I have nothing to say to you.
- **10955**: I am Afdeen, pupil of the great and honorable mage Abdhaljs. I have been assigned with the management of his spectacular creation--Abdhaljs Isle-Purgonorgo.
- **10956**: Access to the Isle for the period of to is no longer available.
- **10957**: Since you are a candidate for Master of Ceremonies (MC), you are authorized to make certain rule changes concerning participation.
- **10958**: The current Abdhaljs Isle participation rules set by the Master of Ceremonies are as follows: [ /Anyone can attend/Anyone can participate/Anyone can attend or participate].
- **10959**: Select one... [Quit./Join an official match (Level $2)./Reserve the Isle (2 days from now)./Reserve the Isle (now)./Reservation status./[Allow/Restrict] gallery./[Allow/Restrict] participation./View a match./Participate in a match./Enter the Isle./FAQ: Reserving the Isle./FAQ: What is Brenner?/Official match dates.]
- **10960**: I see that you have recently utilized our services. I apologize, but I must ask that you wait a few more moments before attempting any further transactions.
- **10966**: I apologize, but the Isle is currently out of service.
- **10967**: Currently, no parties occupy the Isle.
- **10968**: The Isle is currently under occupation from until .
- **10969**: In addition, reservations for to have also come to a close.
- **10970**: Reservations for the next available block will be accepted from .
- **10972**: Since you already possess $0, I cannot allow you to make any further reservations. Also, remember to dispose of the $0 after the time inscribed on it has passed.
- **10973**: $0 for has already been distributed.
- **10975**: $1 gil is required to purchase $0.
- **10976**: Would you like a copy? [Not at this time./Level restriction: $7./Level restriction: 60./Level restriction: 50./Level restriction: 40./Level restriction: 30./Level restriction: 20./Level restriction: 10.]
- **10977**: Please note that teleportation to the Isle will require a one-time fee of $4 gil.
- **10978**: Are you sure you wish to purchase $0 ([no level restriction/level restriction: 60/level restriction: 50/level restriction: 40/level restriction: 30/level restriction: 20/level restriction: 10]) with a reservation comment of [no comment/Recruiting for LS Liga/Recruiting Members] and reserve the Diorama for ?
- **10979**: Are you sure you wish to purchase $0 ([no level restriction/level restriction: 60/level restriction: 50/level restriction: 40/level restriction: 30/level restriction: 20/level restriction: 10])?
- **10980**: Complete the transaction? [Yes./No.]
- **10982**: Congratulations. You have reserved the Isle from to . The level restriction will be set to [$7/60/50/40/30/20/10].
- **10983**: All other rules regarding gameplay can be changed by speaking with the Herald stationed on the Isle.
- **10984**: Finally, remember that your reservation at this time does not guarantee your passage to the Isle.
- **10985**: You can gain access to the area only by showing me $0 or $3 between and .
- **10986**: Your reservation will be lost if you do not speak with me during this period, and you will receive no refund.
- **10987**: Access to the Isle is currently possible. [There is no level limit set/The level limit is set to 60/The level limit is set to 50/The level limit is set to 40/The level limit is set to 30/The level limit is set to 20/The level limit is set to 10].
- **10988**: Since you are a candidate for Master of Ceremonies (MC), you are authorized to make certain rule changes concerning participation. You can also adjust the rules of play after reaching the Isle.
- **10989**: You must be in possession of your $0 if you wish to make any rule adjustments, so take care not to misplace it. No refunds will be granted in the event of loss and/or theft.
- **10990**: Also, $3 can be taken from the $0 by using it. Give the pages to any and all adventurers you wish to join you on the Isle.
- **10991**: $3 can also be reproduced by using them in the same manner as you would with the book.
- **10992**: I am sorry. The reservation period starting on has just concluded. You must go through the application process once again.
- **10993**: Reservation status is as follows: [Previous page./ [H/|/~/~!/OM] [$7/60/50/40/30/20/10/]/ [H/|/~/~!/OM] [$7/60/50/40/30/20/10/]/ [H/|/~/~!/OM] [$7/60/50/40/30/20/10/]/ [H/|/~/~!/OM] [$7/60/50/40/30/20/10/]/ [H/|/~/~!/OM] [$7/60/50/40/30/20/10/]/ [H/|/~/~!/OM] [$7/60/50/40/30/20/10/]/ [H/|/~/~!/OM] [$7/60/50/40/30/20/10/]/ [H/|/~/~!/OM] [$7/60/50/40/30/20/10/]/ [H/|/~/~!/OM] [$7/60/50/40/30/20/10/]/ [H/|/~/~!/OM] [$7/60/50/40/30/20/10/]/ [H/|/~/~!/OM] "[$7/60/50/40/30/20/10/]/ [H/|/~/~!/OM] #[$7/60/50/40/30/20/10/]/Next Page./Return.]
- **10994**: I cannot reserve that block. An official match is scheduled on the Isle on with a level restriction of [$7/60/50/40/30/20/10].
- **10995**: There is currently a reservation for the Diorama on . Level restriction: [None/60/50/40/30/20/10] Comment: [None/Starting Recruitment for LS Liga/Recruiting for LS Liga/Recruiting Members]
- **10996**: Currently, no reservations have been made for .
- **10997**: I am sorry. I seem to have misplaced the reservation documents for ...
- **10998**: However, any reservation you might have made for this block is still in effect. I can replace the information if you bring me the correct $0.
- **10999**: According to the $0 you currently possess, you must apply with me between and for access to the Isle.
- **11000**: Thanks to your efforts, I have recovered your reservation information for .
- **11001**: Now you may change your reservation comment by trading the $0 to me.
- **11002**: Currently, your reservation comment is set to: [None/Starting Recruitment for LS Liga/Recruiting for LS Liga/Recruiting Members]
- **11003**: Change your reservation comment? [No changes./Delete comment./Change to "Recruiting Members."/Change to "Recruiting for LS Liga."]
- **11004**: Your reservation comment has been set to: [None/Starting Recruitment for LS Liga/Recruiting for LS Liga/Recruiting Members]
- **11005**: Your application for access to the Isle ( \` ) has been granted. Teleportation services will begin shortly. Please wait one moment.
- **11006**: You must present your $0 at the time of teleportation. Take care not to lose it.
- **11007**: You have been granted access to the Isle ( \` ). Teleportation services will begin shortly. Please wait one moment.
- **11008**: As Master of Ceremonies (MC), you will be required to conduct the proceedings of all matches held on the Isle. This includes the adjustment of participation rules (speak with me) and the setting of match rules (speak with the Herald).
- **11010**: I am sorry, but you were required to reconfirm your reservation on . You no longer have access to the Isle.
- **11011**: Your $0 can no longer be used. You may dispose of it now.
- **11012**: This $0 can no longer be used. You may dispose of it now.
- **11013**: Your level is lower than the restriction. Please be warned that by traveling to the Isle at this level, you may not be eligible to participate in the match(es) held.
- **11014**: Travel to the Isle? ($0 gil) [Yes./Not yet.]
- **11015**: Travel to the Isle? [Yes./Not yet.]
- **11016**: You do not possess the $0 gil necessary for teleportation.
- **11017**: The current Isle reservation has expired. I can no longer teleport you.
- **11019**: Since you already possess $0, I cannot allow you to make any further reservations. Also, remember to dispose of the $0 after the time inscribed on it has passed.
- **11022**: By allowing a gallery, I can teleport to the Isle anyone who wishes to view the matches (for a small fee).
- **11023**: However, remember that these gallery members will be restricted from match participation.
- **11024**: Allow gallery attendance? [No./Yes./Leave at current setting.]
- **11025**: Understood. Gallery attendance will [not /]be allowed at the Isle.
- **11026**: By allowing general participation, I can provide adventurers with $0 that they can use to travel to the Isle and take part in any Brenner matches held within.
- **11027**: Allow general participation? [No./Yes./Leave at current setting.]
- **11028**: Understood. General participation will [not /]be allowed at the Isle.
- **11029**: Any adventurers who wish to travel to the Isle to witness the events currently being held may do so. However, please note that all "gallery members" will not be allowed to participate in any matches.
- **11030**: If you still wish to be teleported, I will require a fee of $0 gil.
- **11031**: Become a gallery member? [Yes./No.]
- **11032**: General participation is currently being allowed for the next Brenner match. [There is no level limit set/The level limit is set to 60/The level limit is set to 50/The level limit is set to 40/The level limit is set to 30/The level limit is set to 20/The level limit is set to 10].
- **11033**: I have been given authorization by the acting Master of Ceremonies to provide any adventurer who wishes to take part in the event with $1, as well as teleport him or her to the battlefield (for a small fee of $0 gil).
- **11034**: Do you wish to participate? [Yes./No.]
- **11035**: When you have made your preparations, show me your $0 and I shall teleport you to the Isle.
- **11036**: A valid $0, $1, $2, or $3 is required for access to the Isle.
- **11037**: Present one to me when you have completed your preparations.
- **11038**: What would you like to know about? [Making reservations./Reservation guidelines./Reservation status./The waiting list./Return.]
- **11039**: The Isle can be reserved in blocks of two hours (Earth time).
- **11040**: Reservations can be made for blocks up to two days in advance. For example, you could currently make a reservation for a match anytime until .
- **11041**: If no reservations have been made for the current block, or a person fails to reconfirm his or her reservation, other adventurers may be granted access to the area.
- **11042**: You can ask about reservation status to view a list of symbols you can use to confirm your reservation.
- **11043**: The symbols' meanings are as follows: "H": The reservation documents have been misplaced. "|": No reservation. "OM": Official match.
- **11044**: You can make a reservation for any block marked with "|".
- **11045**: A "~" mark represents a block that is already reserved. "~!" designates a reserved block whose team is still recruiting. You can select the block to find out more.
- **11046**: At the time of the reservation, the client will be required to decide on a level restriction. Once this is set, $0 inscribed with the Isle access time and the level restriction will be presented.
- **11047**: If there is no reservation for the current two-hour block, or a person fails to reconfirm his or her reservation, other adventurers may be granted access to the area.
- **11048**: The person who possesses the original $0 is automatically named the Master of Ceremonies (MC), and will be granted authorization to change various Isle access settings, as well as Brenner-related rules within the area.
- **11049**: Reservations are only good for blocks of two hours. When a party's time on the Isle is up, all participants will be teleported back here to Upper Jeuno.
- **11050**: By using $0, adventurers can create $1. Any person who possesses one of these pages will be granted access to the Isle from the time indicated on the bottom.
- **11051**: Also, more $1 can be made by simply using the page as one would a normal item.
- **11052**: If not a single adventurer possessing the appropriate $0 or $1 reports for reservation reconfirmation (up until 15 Earth minutes before the reserved time), the reservation will be cancelled.
- **11053**: Once the reservation has been cancelled, the $0 and all $1 will become void. At this time, other adventurers will have the opportunity to immediately reserve the area.
- **11054**: I have here the Brenner rulebook, sent to me by Sir Volker of Bastok. You may inquire about the game's rules, and I will read a passage of the book to you.
- **11056**: Comments are reflected on the reservation status list and may be viewed by selecting an entry.
- **11057**: Would you like to set a reservation comment? [No thanks./Recruiting for LS Liga./Recruiting Members.]
- **11058**: By setting your comment to "Recruiting to LS Liga," I can provide a rulebook to the leader of any linkshell that wishes to participate in the match. In some cases, there are no applicants.
- **11059**: Set comment to "Recruiting for LS Liga"? [Set comment./Return.]
- **11061**: By setting your comment to "Recruiting Members," I can provide a rulebook to anyone with a job within the match's specified level restriction.
- **11062**: Set comment to "Recruiting Members"? [Set comment./Return.]
- **11063**: You are currently registered for LS Liga, and are eligible to apply for this match.
- **11064**: You are currently not registered for LS Liga, and are not eligible to apply for this match.
- **11065**: Apply for the match? [Yes./No.]
- **11066**: Apply for the match? [Yes./No.]
- **11067**: I apologize, but I failed to process your application. Please try again.

## Events

### Event 65535

#### Metadata

| Field        | Value   |
|--------------|---------|
| Entrypoint   | 0x0000  |
| Data Size    | 1 bytes |
| Instructions | 1       |

```
      00 01 02 03 04 05 06 07  08 09 0A 0B 0C 0D 0E 0F
      -- -- -- -- -- -- -- --  -- -- -- -- -- -- -- --
0000: 00                                                .               
```

#### Opcodes

```
  0: 0x0000 [0x00] END_REQSTACK()
```

### Event 81

#### Metadata

| Field        | Value   |
|--------------|---------|
| Entrypoint   | 0x0001  |
| Data Size    | 1 bytes |
| Instructions | 1       |

```
      00 01 02 03 04 05 06 07  08 09 0A 0B 0C 0D 0E 0F
      -- -- -- -- -- -- -- --  -- -- -- -- -- -- -- --
0000:    00                                              .              
```

#### Opcodes

```
  0: 0x0001 [0x00] END_REQSTACK()
```

### Event 65535.1

#### Metadata

| Field        | Value    |
|--------------|----------|
| Entrypoint   | 0x0002   |
| Data Size    | 19 bytes |
| Instructions | 3        |

```
      00 01 02 03 04 05 06 07  08 09 0A 0B 0C 0D 0E 0F
      -- -- -- -- -- -- -- --  -- -- -- -- -- -- -- --
0000:       3B F8 FF FF 7F 21  00 22 00 23 00 3A F8 FF    ;....!.".#.:..
0010: FF 7F 24 00 00                                    ..$..           
```

#### Opcodes

```
  0: 0x0002 [0x3B] GET_ENTITY_POSITION(entity=EventEntity, x_destination=ExtData[1]->WorkLocal[33], y_destination=ExtData[1]->WorkLocal[34], z_destination=ExtData[1]->WorkLocal[35])
  1: 0x000D [0x3A] CONVERT_YAW_TO_BYTE(entity=EventEntity, result_destination=ExtData[1]->WorkLocal[36])
  2: 0x0014 [0x00] END_REQSTACK()
```

### Event 65535.2

#### Metadata

| Field        | Value    |
|--------------|----------|
| Entrypoint   | 0x0015   |
| Data Size    | 10 bytes |
| Instructions | 2        |

```
      00 01 02 03 04 05 06 07  08 09 0A 0B 0C 0D 0E 0F
      -- -- -- -- -- -- -- --  -- -- -- -- -- -- -- --
0010:                37 21 00  22 00 23 00 24 00 00          7!.".#.$.. 
```

#### Opcodes

```
  0: 0x0015 [0x37] UPDATE_EVENT_POSITION_AND_DIR: x=ExtData[1]->WorkLocal[33], z=ExtData[1]->WorkLocal[34], y=ExtData[1]->WorkLocal[35], direction=ExtData[1]->WorkLocal[36]
  1: 0x001E [0x00] END_REQSTACK()
```

### Event 65535.3

#### Metadata

| Field        | Value    |
|--------------|----------|
| Entrypoint   | 0x001F   |
| Data Size    | 15 bytes |
| Instructions | 3        |

```
      00 01 02 03 04 05 06 07  08 09 0A 0B 0C 0D 0E 0F
      -- -- -- -- -- -- -- --  -- -- -- -- -- -- -- --
0010:                                               37                 7
0020: 00 80 01 80 02 80 03 80  7B F8 FF FF 7F 00        ........{.....  
```

#### Opcodes

```
  0: 0x001F [0x37] UPDATE_EVENT_POSITION_AND_DIR: x=24.360*, z=64.008*, y=1.995*, direction=0.0°*
  1: 0x0028 [0x7B] EventEntity stops talking
  2: 0x002D [0x00] END_REQSTACK()
```

### Event 65535.4

#### Metadata

| Field        | Value    |
|--------------|----------|
| Entrypoint   | 0x002E   |
| Data Size    | 15 bytes |
| Instructions | 5        |

```
      00 01 02 03 04 05 06 07  08 09 0A 0B 0C 0D 0E 0F
      -- -- -- -- -- -- -- --  -- -- -- -- -- -- -- --
0020:                                            32 04                2.
0030: 80 1F 00 05 80 06 80 02  80 1F 01 6F 00           ...........o.   
```

#### Opcodes

```
  0: 0x002E [0x32] ExtData[1]->MainSpeed = 13* * 0.1
  1: 0x0031 [0x1F] MOVE_ENTITY: EventEntity moves to X=27.647*, Z=64.622*, Y=1.995*
  2: 0x0039 [0x1F] MOVE_ENTITY: Update entity position (mode=1)
  3: 0x003B [0x6F] WAIT_FRAME_DELAY: Yield until WaitTime reaches zero
  4: 0x003C [0x00] END_REQSTACK()
```

### Event 83

#### Metadata

| Field        | Value    |
|--------------|----------|
| Entrypoint   | 0x003D   |
| Data Size    | 13 bytes |
| Instructions | 7        |

```
      00 01 02 03 04 05 06 07  08 09 0A 0B 0C 0D 0E 0F
      -- -- -- -- -- -- -- --  -- -- -- -- -- -- -- --
0030:                                         1E F0 FF               ...
0040: FF 7F 6F 70 1D 07 80 23  21 00                    ..op...#!.      
```

#### Opcodes

```
  0: 0x003D [0x1E] EventEntity looks at LocalPlayer and starts talking
  1: 0x0042 [0x6F] WAIT_FRAME_DELAY: Yield until WaitTime reaches zero
  2: 0x0043 [0x70] WAIT_ENTITY_RENDER_FLAG: Wait while EventEntity->Render.Flags3 bit 2 is set (cancel turn if not)
  3: 0x0044 [0x1D] PRINT_EVENT_MESSAGE(message_id=10883*)
    → "I apologize, but it seems that you cannot visit the Isle yet. I have nothing to say to you."
  4: 0x0047 [0x23] WAIT_FOR_DIALOG_INTERACTION
  5: 0x0048 [0x21] END_EVENT
  6: 0x0049 [0x00] END_REQSTACK()
```

### Event 178

#### Metadata

| Field        | Value      |
|--------------|------------|
| Entrypoint   | 0x004A     |
| Data Size    | 4472 bytes |
| Instructions | 687        |

```
      00 01 02 03 04 05 06 07  08 09 0A 0B 0C 0D 0E 0F
      -- -- -- -- -- -- -- --  -- -- -- -- -- -- -- --
0040:                                1E F0 FF FF 7F 6F            .....o
0050: 70 03 00 00 02 10 41 03  80 03 80 03 10 01 00 41  p.....A........A
0060: 08 80 09 80 03 10 04 00  41 0A 80 0A 80 03 10 06  ........A.......
0070: 00 41 0B 80 0B 80 03 10  10 00 41 0C 80 0C 80 03  .A........A.....
0080: 10 11 00 41 0D 80 0D 80  03 10 12 00 41 0E 80 0E  ...A........A...
0090: 80 03 10 13 00 41 0F 80  0F 80 03 10 02 00 41 10  .....A........A.
00A0: 80 10 80 03 10 03 00 41  11 80 11 80 03 10 1A 00  .......A........
00B0: 41 12 80 12 80 03 10 1C  00 41 04 80 04 80 03 10  A........A......
00C0: 1D 00 41 13 80 13 80 03  10 20 00 03 07 00 04 10  ..A...... ......
00D0: 03 08 00 07 00 07 08 00  14 80 03 19 00 05 10 03  ................
00E0: 1E 00 06 10 03 1F 00 08  10 1D 15 80 23 02 06 00  ............#...
00F0: 08 80 00 08 01 03 02 10  08 00 03 03 10 08 00 07  ................
0100: 03 10 14 80 1D 16 80 23  02 10 00 08 80 00 17 01  .......#........
0110: 1D 17 80 23 01 44 01 06  02 10 02 11 00 08 80 00  ...#.D..........
0120: 29 01 3C 02 10 03 80 08  80 02 12 00 08 80 00 38  ).<............8
0130: 01 3C 02 10 08 80 08 80  02 02 10 03 80 01 44 01  .<............D.
0140: 1D 18 80 23 06 0B 00 06  0A 00 3C 0A 00 09 80 08  ...#......<.....
0150: 80 03 16 00 07 00 1A FE  15 02 36 00 03 80 00 6B  ..........6....k
0160: 01 3C 0A 00 08 80 08 80  01 72 01 3C 0A 00 0A 80  .<.......r.<....
0170: 08 80 02 10 00 03 80 00  88 01 3C 0A 00 0C 80 08  ..........<.....
0180: 80 3C 0A 00 0D 80 08 80  02 11 00 03 80 00 97 01  .<..............
0190: 3C 0A 00 0E 80 08 80 02  12 00 03 80 00 A6 01 3C  <..............<
01A0: 0A 00 19 80 08 80 02 00  00 03 80 00 B5 01 3C 0A  ..............<.
01B0: 00 0F 80 08 80 03 02 10  11 00 03 03 10 12 00 03  ................
01C0: 04 10 36 00 24 1A 80 0B  00 0A 00 25 40 1B 80 1C  ..6.$......%@...
01D0: 80 01 10 00 10 03 0B 00  00 10 02 00 10 08 80 00  ................
01E0: A9 02 02 88 7F 36 00 04  A2 02 03 02 10 07 00 07  .....6..........
01F0: 02 10 03 80 03 03 10 07  00 07 03 10 1D 80 03 04  ................
0200: 10 07 00 07 04 10 1E 80  1D 1F 80 23 02 36 00 20  ...........#.6. 
0210: 80 80 1C 02 03 02 10 21  80 01 5C 02 02 36 00 22  .......!..\..6."
0220: 80 80 2C 02 03 02 10 23  80 01 5C 02 02 36 00 24  ..,....#..\..6.$
0230: 80 80 3C 02 03 02 10 25  80 01 5C 02 02 36 00 26  ..<....%..\..6.&
0240: 80 80 4C 02 03 02 10 27  80 01 5C 02 02 36 00 28  ..L....'..\..6.(
0250: 80 80 5C 02 03 02 10 29  80 01 5C 02 1D 2A 80 23  ..\....)..\..*.#
0260: 24 2B 80 08 80 03 80 25  02 00 10 03 80 00 9F 02  $+.....%........
0270: 42 73 2C 80 F8 FF FF 7F  F0 FF FF 7F 1C 2D 80 43  Bs,..........-.C
0280: 00 43 01 02 02 10 2E 80  00 9B 02 6C F0 FF FF 7F  .C.........l....
0290: 2F 80 08 80 48 30 80 23  01 9C 02 30 01 9F 02 01  /...H0.#...0....
02A0: A6 02 1D 31 80 23 01 C0  11 02 00 10 09 80 00 B4  ...1.#..........
02B0: 02 01 C0 11 02 00 10 0A  80 00 69 03 02 03 00 03  ..........i.....
02C0: 80 00 62 03 02 04 00 03  80 00 FD 02 1D 32 80 23  ..b..........2.#
02D0: 03 02 10 33 80 02 1A 00  03 80 00 F6 02 3E 00 00  ...3.........>..
02E0: 09 80 EB 02 1D 34 80 23  01 F3 02 03 26 00 07 00  .....4.#....&...
02F0: 1A 71 12 01 FA 02 1D 35  80 23 01 5F 03 03 02 10  .q.....5.#._....
0300: 07 00 03 03 10 02 10 07  03 10 14 80 1D 36 80 23  .............6.#
0310: 02 06 00 08 80 00 26 03  07 02 10 14 80 07 03 10  ......&.........
0320: 14 80 1D 37 80 23 06 14  00 03 17 00 07 00 02 14  ...7.#..........
0330: 00 38 80 05 56 03 07 17  00 14 80 03 16 00 17 00  .8..V...........
0340: 1A FE 15 02 36 00 03 80  00 50 03 03 14 00 39 80  ....6....P....9.
0350: 0B 14 00 01 2E 03 03 02  10 17 00 1D 3A 80 23 01  ............:.#.
0360: 66 03 1D 3B 80 23 01 C0  11 02 00 10 0B 80 00 21  f..;.#.........!
0370: 0A 06 28 00 03 0B 00 03  80 40 0A 80 19 80 01 10  ..(......@......
0380: 3C 80 43 00 43 01 02 09  10 2E 80 00 95 03 48 30  <.C.C.........H0
0390: 80 23 01 1E 0A 03 2C 00  02 10 03 2D 00 03 10 03  .#....,....-....
03A0: 2E 00 04 10 03 2F 00 05  10 03 30 00 06 10 03 31  ...../....0....1
03B0: 00 07 10 03 32 00 08 10  03 25 00 07 00 02 28 00  ....2....%....(.
03C0: 03 80 00 D7 03 07 25 00  14 80 03 27 00 03 80 03  ......%....'....
03D0: 0A 00 08 80 01 EB 03 03  27 00 12 80 03 25 00 07  ........'....%..
03E0: 00 07 25 00 3D 80 03 0A  00 3E 80 06 29 00 06 02  ..%.=....>..)...
03F0: 10 06 03 10 06 04 10 06  05 10 06 06 10 06 07 10  ................
0400: 06 08 10 06 09 10 06 00  17 06 01 17 06 02 17 06  ................
0410: 03 17 06 04 17 06 05 17  06 06 17 06 07 17 06 08  ................
0420: 17 06 09 17 06 0A 17 06  0B 17 06 0C 17 06 0D 17  ................
0430: 06 0E 17 06 0F 17 06 10  17 06 11 17 06 12 17 06  ................
0440: 13 17 06 14 17 06 15 17  06 16 17 06 17 17 02 29  ...............)
0450: 00 11 80 05 3E 07 02 29  00 03 80 80 66 04 03 02  ....>..)....f...
0460: 10 25 00 01 16 05 02 29  00 08 80 80 76 04 03 03  .%.....)....v...
0470: 10 25 00 01 16 05 02 29  00 09 80 80 86 04 03 04  .%.....)........
0480: 10 25 00 01 16 05 02 29  00 0A 80 80 96 04 03 05  .%.....)........
0490: 10 25 00 01 16 05 02 29  00 0B 80 80 A6 04 03 06  .%.....)........
04A0: 10 25 00 01 16 05 02 29  00 0C 80 80 B6 04 03 07  .%.....)........
04B0: 10 25 00 01 16 05 02 29  00 0D 80 80 C6 04 03 08  .%.....)........
04C0: 10 25 00 01 16 05 02 29  00 0E 80 80 D6 04 03 09  .%.....)........
04D0: 10 25 00 01 16 05 02 29  00 19 80 80 E6 04 03 00  .%.....)........
04E0: 17 25 00 01 16 05 02 29  00 0F 80 80 F6 04 03 01  .%.....)........
04F0: 17 25 00 01 16 05 02 29  00 10 80 80 06 05 03 02  .%.....)........
0500: 17 25 00 01 16 05 02 29  00 11 80 80 16 05 03 03  .%.....)........
0510: 17 25 00 01 16 05 03 26  00 25 00 08 26 00 3F 80  .%.....&.%..&.?.
0520: 3E 32 00 27 00 2F 05 03  16 00 0B 80 01 6C 05 3E  >2.'./.......l.>
0530: 1E 00 27 00 57 05 03 16  00 0A 80 3E 2F 00 27 00  ..'.W......>/.'.
0540: 45 05 01 54 05 3E 31 00  27 00 4F 05 01 54 05 03  E..T.>1.'.O..T..
0550: 16 00 09 80 01 6C 05 02  26 00 1F 00 05 67 05 03  .....l..&....g..
0560: 16 00 03 80 01 6C 05 03  16 00 08 80 02 29 00 03  .....l.......)..
0570: 80 80 7C 05 03 04 17 16  00 01 2C 06 02 29 00 08  ..|.......,..)..
0580: 80 80 8C 05 03 05 17 16  00 01 2C 06 02 29 00 09  ..........,..)..
0590: 80 80 9C 05 03 06 17 16  00 01 2C 06 02 29 00 0A  ..........,..)..
05A0: 80 80 AC 05 03 07 17 16  00 01 2C 06 02 29 00 0B  ..........,..)..
05B0: 80 80 BC 05 03 08 17 16  00 01 2C 06 02 29 00 0C  ..........,..)..
05C0: 80 80 CC 05 03 09 17 16  00 01 2C 06 02 29 00 0D  ..........,..)..
05D0: 80 80 DC 05 03 0A 17 16  00 01 2C 06 02 29 00 0E  ..........,..)..
05E0: 80 80 EC 05 03 0B 17 16  00 01 2C 06 02 29 00 19  ..........,..)..
05F0: 80 80 FC 05 03 0C 17 16  00 01 2C 06 02 29 00 0F  ..........,..)..
0600: 80 80 0C 06 03 0D 17 16  00 01 2C 06 02 29 00 10  ..........,..)..
0610: 80 80 1C 06 03 0E 17 16  00 01 2C 06 02 29 00 11  ..........,..)..
0620: 80 80 2C 06 03 0F 17 16  00 01 2C 06 06 16 00 02  ..,.......,.....
0630: 16 00 03 80 00 70 06 3E  1E 00 27 00 6B 06 3E 2C  .....p.>..'.k.>,
0640: 00 27 00 4C 06 3C 16 00  03 80 08 80 3E 2D 00 27  .'.L.<......>-.'
0650: 00 5A 06 3C 16 00 08 80  08 80 3E 2E 00 27 00 68  .Z.<......>..'.h
0660: 06 3C 16 00 09 80 08 80  01 70 06 03 16 00 0E 80  .<.......p......
0670: 02 29 00 03 80 80 80 06  03 10 17 16 00 01 30 07  .)............0.
0680: 02 29 00 08 80 80 90 06  03 11 17 16 00 01 30 07  .)............0.
0690: 02 29 00 09 80 80 A0 06  03 12 17 16 00 01 30 07  .)............0.
06A0: 02 29 00 0A 80 80 B0 06  03 13 17 16 00 01 30 07  .)............0.
06B0: 02 29 00 0B 80 80 C0 06  03 14 17 16 00 01 30 07  .)............0.
06C0: 02 29 00 0C 80 80 D0 06  03 15 17 16 00 01 30 07  .)............0.
06D0: 02 29 00 0D 80 80 E0 06  03 16 17 16 00 01 30 07  .)............0.
06E0: 02 29 00 0E 80 80 F0 06  03 17 17 16 00 01 30 07  .)............0.
06F0: 02 29 00 19 80 80 00 07  03 18 17 16 00 01 30 07  .)............0.
0700: 02 29 00 0F 80 80 10 07  03 19 17 16 00 01 30 07  .)............0.
0710: 02 29 00 10 80 80 20 07  03 1A 17 16 00 01 30 07  .).... .......0.
0720: 02 29 00 11 80 80 30 07  03 1B 17 16 00 01 30 07  .)....0.......0.
0730: 07 25 00 14 80 0B 27 00  0B 29 00 01 4E 04 24 40  .%....'..)..N.$@
0740: 80 0B 00 0A 00 25 02 00  10 03 80 00 5C 07 06 28  .....%......\..(
0750: 00 03 0B 00 04 80 01 B8  03 01 1E 0A 02 00 10 04  ................
0760: 80 00 72 07 05 28 00 03  0B 00 03 80 01 B8 03 01  ..r..(..........
0770: 1E 0A 02 00 10 13 80 00  85 07 03 0B 00 0B 80 01  ................
0780: 47 01 01 1E 0A 06 2A 00  03 0B 00 00 10 03 16 00  G.....*.........
0790: 00 10 0C 16 00 02 16 00  03 80 80 AF 07 03 26 00  ..............&.
07A0: 02 10 03 2A 00 04 17 03  33 00 10 17 01 CD 08 02  ...*....3.......
07B0: 16 00 08 80 80 C9 07 03  26 00 03 10 03 2A 00 05  ........&....*..
07C0: 17 03 33 00 11 17 01 CD  08 02 16 00 09 80 80 E3  ..3.............
07D0: 07 03 26 00 04 10 03 2A  00 06 17 03 33 00 12 17  ..&....*....3...
07E0: 01 CD 08 02 16 00 0A 80  80 FD 07 03 26 00 05 10  ............&...
07F0: 03 2A 00 07 17 03 33 00  13 17 01 CD 08 02 16 00  .*....3.........
0800: 0B 80 80 17 08 03 26 00  06 10 03 2A 00 08 17 03  ......&....*....
0810: 33 00 14 17 01 CD 08 02  16 00 0C 80 80 31 08 03  3............1..
0820: 26 00 07 10 03 2A 00 09  17 03 33 00 15 17 01 CD  &....*....3.....
0830: 08 02 16 00 0D 80 80 4B  08 03 26 00 08 10 03 2A  .......K..&....*
0840: 00 0A 17 03 33 00 16 17  01 CD 08 02 16 00 0E 80  ....3...........
0850: 80 65 08 03 26 00 09 10  03 2A 00 0B 17 03 33 00  .e..&....*....3.
0860: 17 17 01 CD 08 02 16 00  19 80 80 7F 08 03 26 00  ..............&.
0870: 00 17 03 2A 00 0C 17 03  33 00 18 17 01 CD 08 02  ...*....3.......
0880: 16 00 0F 80 80 99 08 03  26 00 01 17 03 2A 00 0D  ........&....*..
0890: 17 03 33 00 19 17 01 CD  08 02 16 00 10 80 80 B3  ..3.............
08A0: 08 03 26 00 02 17 03 2A  00 0E 17 03 33 00 1A 17  ..&....*....3...
08B0: 01 CD 08 02 16 00 11 80  80 CD 08 03 26 00 03 17  ............&...
08C0: 03 2A 00 0F 17 03 33 00  1B 17 01 CD 08 06 09 10  .*....3.........
08D0: 03 0E 00 26 00 08 0E 00  07 00 15 0E 00 14 80 0C  ...&............
08E0: 0E 00 02 2A 00 03 80 80  02 09 03 03 10 26 00 1D  ...*.........&..
08F0: 41 80 23 03 02 10 42 80  1D 43 80 23 01 B8 03 01  A.#...B..C.#....
0900: 03 0A 02 2A 00 08 80 80  3B 09 03 03 10 26 00 1D  ...*....;....&..
0910: 44 80 23 03 02 10 42 80  3E 00 00 03 80 26 09 1D  D.#...B.>....&..
0920: 45 80 23 01 38 09 02 1A  00 03 80 00 34 09 1A 71  E.#.8.......4..q
0930: 12 01 38 09 1D 35 80 23  01 03 0A 02 2A 00 0B 80  ..8..5.#....*...
0940: 80 57 09 03 02 10 33 00  03 03 10 26 00 1D 46 80  .W....3....&..F.
0950: 23 01 B8 03 01 03 0A 03  02 10 33 00 03 03 10 26  #.........3....&
0960: 00 3E 31 00 0E 00 70 09  03 17 00 0A 80 01 93 09  .>1...p.........
0970: 3E 30 00 0E 00 7F 09 03  17 00 09 80 01 93 09 3E  >0.............>
0980: 2F 00 0E 00 8E 09 03 17  00 08 80 01 93 09 03 17  /...............
0990: 00 03 80 03 04 10 17 00  1D 47 80 23 40 0A 80 19  .........G.#@...
09A0: 80 01 10 0E 00 03 02 10  0E 00 02 17 00 03 80 80  ................
09B0: B5 09 01 03 0A 02 17 00  0A 80 80 D8 09 24 48 80  .............$H.
09C0: 08 80 03 80 25 02 00 10  03 80 00 D5 09 42 43 00  ....%........BC.
09D0: 43 01 01 D5 09 01 03 0A  02 20 00 03 80 00 E7 09  C........ ......
09E0: 1D 49 80 23 01 03 0A 1D  4A 80 23 24 4B 80 08 80  .I.#....J.#$K...
09F0: 03 80 25 02 00 10 03 80  00 03 0A 42 43 00 43 01  ..%........BC.C.
0A00: 01 03 0A 2E 02 09 10 08  80 01 1E 0A 02 09 10 2E  ................
0A10: 80 00 1B 0A 1D 4C 80 23  01 1E 0A 01 B8 03 01 C0  .....L.#........
0A20: 11 02 00 10 0C 80 00 73  0A 1D 4D 80 23 1D 4E 80  .......s..M.#.N.
0A30: 23 24 4F 80 11 00 03 80  25 02 00 10 09 80 00 47  #$O.....%......G
0A40: 0A 01 47 01 01 70 0A 02  11 00 00 10 01 70 0A 42  ..G..p.......p.B
0A50: 40 03 80 50 80 01 10 00  10 43 00 43 01 02 02 10  @..P.....C.C....
0A60: 2E 80 00 6C 0A 48 30 80  23 01 70 0A 1D 51 80 23  ...l.H0.#.p..Q.#
0A70: 01 C0 11 02 00 10 0D 80  00 D6 0A 02 04 00 08 80  ................
0A80: 00 8B 0A 03 02 10 52 80  01 90 0A 03 02 10 53 80  ......R.......S.
0A90: 1D 54 80 23 24 55 80 12  00 03 80 25 02 00 10 09  .T.#$U.....%....
0AA0: 80 00 AA 0A 01 47 01 01  D3 0A 02 12 00 00 10 01  .....G..........
0AB0: D3 0A 42 40 03 80 50 80  01 10 00 10 43 00 43 01  ..B@..P.....C.C.
0AC0: 02 02 10 2E 80 00 CF 0A  48 30 80 23 01 D3 0A 1D  ........H0.#....
0AD0: 56 80 23 01 C0 11 02 00  10 0E 80 00 6A 0B 1D 57  V.#.........j..W
0AE0: 80 23 02 1D 00 03 80 00  F3 0A 03 02 10 39 80 1D  .#...........9..
0AF0: 58 80 23 24 59 80 08 80  03 80 25 02 00 10 03 80  X.#$Y.....%.....
0B00: 00 67 0B 42 73 2C 80 F8  FF FF 7F F0 FF FF 7F 1C  .g.Bs,..........
0B10: 2D 80 40 03 80 50 80 01  10 08 80 43 00 43 01 02  -.@..P.....C.C..
0B20: 02 10 2E 80 00 37 0B 6C  F0 FF FF 7F 2F 80 08 80  .....7.l..../...
0B30: 48 30 80 23 01 64 0B 02  09 10 2E 80 80 4F 0B 6C  H0.#.d.......O.l
0B40: F0 FF FF 7F 2F 80 08 80  1D 5A 80 23 01 64 0B 02  ..../....Z.#.d..
0B50: 09 10 03 80 00 5B 0B 30  01 64 0B 6C F0 FF FF 7F  .....[.0.d.l....
0B60: 2F 80 08 80 01 67 0B 01  C0 11 02 00 10 19 80 00  /....g..........
0B70: 3A 0C 02 04 00 08 80 00  82 0B 03 03 10 52 80 01  :............R..
0B80: 87 0B 03 03 10 53 80 03  04 10 19 00 02 19 00 03  .....S..........
0B90: 80 80 9C 0B 03 02 10 21  80 01 FC 0B 02 19 00 08  .......!........
0BA0: 80 80 AC 0B 03 02 10 23  80 01 FC 0B 02 19 00 09  .......#........
0BB0: 80 80 BC 0B 03 02 10 25  80 01 FC 0B 02 19 00 0A  .......%........
0BC0: 80 80 CC 0B 03 02 10 27  80 01 FC 0B 02 19 00 0B  .......'........
0BD0: 80 80 DC 0B 03 02 10 29  80 01 FC 0B 02 19 00 0C  .......)........
0BE0: 80 80 EC 0B 03 02 10 5B  80 01 FC 0B 02 19 00 0D  .......[........
0BF0: 80 80 FC 0B 03 02 10 39  80 01 FC 0B 1D 5C 80 23  .......9.....\.#
0C00: 1D 5D 80 23 24 5E 80 08  80 03 80 25 02 00 10 03  .].#$^.....%....
0C10: 80 00 37 0C 40 03 80 50  80 01 10 08 80 43 00 43  ..7.@..P.....C.C
0C20: 01 02 02 10 2E 80 00 30  0C 48 30 80 23 01 34 0C  .......0.H0.#.4.
0C30: 1D 5F 80 23 01 37 0C 01  C0 11 02 00 10 0F 80 00  ._.#.7..........
0C40: 64 0C 03 02 10 42 80 03  03 10 52 80 03 04 10 33  d....B....R....3
0C50: 80 03 05 10 53 80 1D 60  80 23 1D 61 80 23 01 47  ....S..`.#.a.#.G
0C60: 01 01 C0 11 02 00 10 10  80 00 39 0D 06 34 00 24  ..........9..4.$
0C70: 62 80 34 00 03 80 25 03  34 00 00 10 02 00 10 03  b.4...%.4.......
0C80: 80 00 AA 0C 03 02 10 07  00 07 02 10 3F 80 03 03  ............?...
0C90: 10 08 00 07 03 10 63 80  1D 64 80 23 1D 65 80 23  ......c..d.#.e.#
0CA0: 1D 66 80 23 01 6F 0C 01  36 0D 02 00 10 08 80 00  .f.#.o..6.......
0CB0: DE 0C 03 02 10 42 80 03  03 10 52 80 1D 67 80 23  .....B....R..g.#
0CC0: 1D 68 80 23 1D 69 80 23  1D 6A 80 23 1D 6B 80 23  .h.#.i.#.j.#.k.#
0CD0: 1D 6C 80 23 1D 6D 80 23  01 6F 0C 01 36 0D 02 00  .l.#.m.#.o..6...
0CE0: 10 09 80 00 FC 0C 1D 6E  80 23 1D 6F 80 23 1D 70  .......n.#.o.#.p
0CF0: 80 23 1D 71 80 23 01 6F  0C 01 36 0D 02 00 10 0A  .#.q.#.o..6.....
0D00: 80 00 28 0D 03 02 10 33  80 03 03 10 53 80 1D 72  ..(....3....S..r
0D10: 80 23 1D 68 80 23 1D 69  80 23 1D 6A 80 23 1D 6B  .#.h.#.i.#.j.#.k
0D20: 80 23 01 6F 0C 01 36 0D  02 00 10 0B 80 00 36 0D  .#.o..6.......6.
0D30: 01 47 01 01 36 0D 01 C0  11 02 00 10 11 80 00 46  .G..6..........F
0D40: 0E 1D 73 80 23 06 16 00  24 74 80 16 00 03 80 25  ..s.#...$t.....%
0D50: 03 16 00 00 10 02 00 10  03 80 00 7F 0D 48 75 80  .............Hu.
0D60: 23 48 76 80 23 48 77 80  23 48 78 80 23 48 79 80  #Hv.#Hw.#Hx.#Hy.
0D70: 23 48 7A 80 23 48 7B 80  23 01 48 0D 01 3B 0E 02  #Hz.#H{.#.H..;..
0D80: 00 10 08 80 00 AF 0D 48  7C 80 23 48 7D 80 23 48  .......H|.#H}.#H
0D90: 7E 80 23 03 02 10 0D 80  03 03 10 12 80 48 7F 80  ~.#..........H..
0DA0: 23 48 80 80 23 48 81 80  23 01 48 0D 01 3B 0E 02  #H..#H..#.H..;..
0DB0: 00 10 09 80 00 C5 0D 48  82 80 23 48 83 80 23 01  .......H..#H..#.
0DC0: 48 0D 01 3B 0E 02 00 10  0A 80 00 DF 0D 48 84 80  H..;.........H..
0DD0: 23 48 85 80 23 48 86 80  23 01 48 0D 01 3B 0E 02  #H..#H..#.H..;..
0DE0: 00 10 0B 80 00 F5 0D 48  87 80 23 48 88 80 23 01  .......H..#H..#.
0DF0: 48 0D 01 3B 0E 02 00 10  0C 80 00 13 0E 48 89 80  H..;.........H..
0E00: 23 48 8A 80 23 48 8B 80  23 48 8C 80 23 01 48 0D  #H..#H..#H..#.H.
0E10: 01 3B 0E 02 00 10 0D 80  00 25 0E 48 8D 80 23 01  .;.......%.H..#.
0E20: 48 0D 01 3B 0E 02 00 10  0E 80 00 3B 0E 48 8E 80  H..;.......;.H..
0E30: 23 48 8F 80 23 01 48 0D  01 3B 0E 03 0B 00 11 80  #H..#.H..;......
0E40: 01 47 01 01 C0 11 02 00  10 12 80 00 C0 11 06 18  .G..............
0E50: 00 03 02 10 21 80 03 03  10 23 80 03 04 10 25 80  ....!....#....%.
0E60: 03 05 10 27 80 03 06 10  29 80 24 90 80 03 80 03  ...'....).$.....
0E70: 80 25 02 00 10 03 80 00  82 0E 03 18 00 2E 80 01  .%..............
0E80: DD 0E 02 00 10 08 80 00  92 0E 03 18 00 20 80 01  ............. ..
0E90: DD 0E 02 00 10 09 80 00  A2 0E 03 18 00 22 80 01  ............."..
0EA0: DD 0E 02 00 10 0A 80 00  B2 0E 03 18 00 24 80 01  .............$..
0EB0: DD 0E 02 00 10 0B 80 00  C2 0E 03 18 00 26 80 01  .............&..
0EC0: DD 0E 02 00 10 0C 80 00  D2 0E 03 18 00 28 80 01  .............(..
0ED0: DD 0E 02 00 10 0D 80 00  DD 0E 01 DD 0E 02 00 10  ................
0EE0: 0C 80 05 B5 11 03 35 00  07 00 03 17 00 35 00 06  ......5......5..
0EF0: 14 00 06 15 00 02 14 00  91 80 05 65 10 03 16 00  ...........e....
0F00: 17 00 1A FE 15 02 36 00  03 80 01 52 10 06 16 00  ......6....R....
0F10: 02 18 00 2E 80 00 1E 0F  05 16 00 01 29 0F 02 18  ............)...
0F20: 00 36 00 00 29 0F 05 16  00 02 16 00 08 80 00 52  .6..)..........R
0F30: 10 03 16 00 07 00 07 16  00 92 80 02 17 00 16 00  ................
0F40: 05 52 10 02 15 00 10 80  05 52 10 02 15 00 03 80  .R.......R......
0F50: 80 65 0F 03 02 10 17 00  03 02 17 36 00 15 02 17  .e.........6....
0F60: 10 80 01 4F 10 02 15 00  08 80 80 7F 0F 03 03 10  ...O............
0F70: 17 00 03 03 17 36 00 15  03 17 10 80 01 4F 10 02  .....6.......O..
0F80: 15 00 09 80 80 99 0F 03  04 10 17 00 03 04 17 36  ...............6
0F90: 00 15 04 17 10 80 01 4F  10 02 15 00 0A 80 80 B3  .......O........
0FA0: 0F 03 05 10 17 00 03 05  17 36 00 15 05 17 10 80  .........6......
0FB0: 01 4F 10 02 15 00 0B 80  80 CD 0F 03 06 10 17 00  .O..............
0FC0: 03 06 17 36 00 15 06 17  10 80 01 4F 10 02 15 00  ...6.......O....
0FD0: 0C 80 80 E7 0F 03 07 10  17 00 03 07 17 36 00 15  .............6..
0FE0: 07 17 10 80 01 4F 10 02  15 00 0D 80 80 01 10 03  .....O..........
0FF0: 08 10 17 00 03 08 17 36  00 15 08 17 10 80 01 4F  .......6.......O
1000: 10 02 15 00 0E 80 80 1B  10 03 09 10 17 00 03 09  ................
1010: 17 36 00 15 09 17 10 80  01 4F 10 02 15 00 19 80  .6.......O......
1020: 80 35 10 03 00 17 17 00  03 0A 17 36 00 15 0A 17  .5.........6....
1030: 10 80 01 4F 10 02 15 00  0F 80 80 4F 10 03 01 17  ...O.......O....
1040: 17 00 03 0B 17 36 00 15  0B 17 10 80 01 4F 10 0B  .....6.......O..
1050: 15 00 02 15 00 10 80 05  5F 10 07 17 00 14 80 0B  ........_.......
1060: 14 00 01 F5 0E 03 0A 00  93 80 0C 15 00 02 15 00  ................
1070: 03 80 04 82 10 3D 0A 00  15 00 08 80 0C 15 00 01  .....=..........
1080: 6D 10 24 94 80 0B 00 0A  00 25 03 0B 00 00 10 02  m.$......%......
1090: 00 10 10 80 00 A7 10 03  35 00 17 00 03 0B 00 03  ........5.......
10A0: 80 01 EA 0E 01 B5 11 02  00 10 11 80 00 B2 10 01  ................
10B0: B5 11 02 00 10 03 80 80  C2 10 03 16 00 02 10 01  ................
10C0: 52 11 02 00 10 08 80 80  D2 10 03 16 00 03 10 01  R...............
10D0: 52 11 02 00 10 09 80 80  E2 10 03 16 00 04 10 01  R...............
10E0: 52 11 02 00 10 0A 80 80  F2 10 03 16 00 05 10 01  R...............
10F0: 52 11 02 00 10 0B 80 80  02 11 03 16 00 06 10 01  R...............
1100: 52 11 02 00 10 0C 80 80  12 11 03 16 00 07 10 01  R...............
1110: 52 11 02 00 10 0D 80 80  22 11 03 16 00 08 10 01  R.......".......
1120: 52 11 02 00 10 0E 80 80  32 11 03 16 00 09 10 01  R.......2.......
1130: 52 11 02 00 10 19 80 80  42 11 03 16 00 00 17 01  R.......B.......
1140: 52 11 02 00 10 0F 80 80  52 11 03 16 00 01 17 01  R.......R.......
1150: 52 11 03 02 10 08 80 02  02 10 0A 80 05 B2 11 03  R...............
1160: 03 10 16 00 03 04 10 16  00 02 02 10 08 80 80 7E  ...............~
1170: 11 07 03 10 03 80 07 04  10 95 80 01 A8 11 02 02  ................
1180: 10 09 80 80 93 11 07 03  10 1D 80 07 04 10 96 80  ................
1190: 01 A8 11 02 02 10 0A 80  80 A8 11 07 03 10 1E 80  ................
11A0: 07 04 10 97 80 01 A8 11  1D 98 80 23 0B 02 10 01  ...........#....
11B0: 57 11 01 EA 0E 03 0B 00  12 80 01 47 01 01 C0 11  W..........G....
11C0: 21 00                                             !.              
```

#### Opcodes

```
  0: 0x004A [0x1E] EventEntity looks at LocalPlayer and starts talking
  1: 0x004F [0x6F] WAIT_FRAME_DELAY: Yield until WaitTime reaches zero
  2: 0x0050 [0x70] WAIT_ENTITY_RENDER_FLAG: Wait while EventEntity->Render.Flags3 bit 2 is set (cancel turn if not)
  3: 0x0051 [0x03] ExtData[1]->WorkLocal[0] = Work_Zone[2]
  4: 0x0056 [0x41] ExtData[1]->WorkLocal[1] = Work_Zone[3] (bits 0*-0*)
  5: 0x005F [0x41] ExtData[1]->WorkLocal[4] = Work_Zone[3] (bits 1*-2*)
  6: 0x0068 [0x41] ExtData[1]->WorkLocal[6] = Work_Zone[3] (bits 3*-3*)
  7: 0x0071 [0x41] ExtData[1]->WorkLocal[16] = Work_Zone[3] (bits 4*-4*)
  8: 0x007A [0x41] ExtData[1]->WorkLocal[17] = Work_Zone[3] (bits 5*-5*)
  9: 0x0083 [0x41] ExtData[1]->WorkLocal[18] = Work_Zone[3] (bits 6*-6*)
 10: 0x008C [0x41] ExtData[1]->WorkLocal[19] = Work_Zone[3] (bits 7*-7*)
 11: 0x0095 [0x41] ExtData[1]->WorkLocal[2] = Work_Zone[3] (bits 9*-9*)
 12: 0x009E [0x41] ExtData[1]->WorkLocal[3] = Work_Zone[3] (bits 10*-10*)
 13: 0x00A7 [0x41] ExtData[1]->WorkLocal[26] = Work_Zone[3] (bits 11*-11*)
 14: 0x00B0 [0x41] ExtData[1]->WorkLocal[28] = Work_Zone[3] (bits 12*-12*)
 15: 0x00B9 [0x41] ExtData[1]->WorkLocal[29] = Work_Zone[3] (bits 13*-13*)
 16: 0x00C2 [0x41] ExtData[1]->WorkLocal[32] = Work_Zone[3] (bits 14*-14*)
 17: 0x00CB [0x03] ExtData[1]->WorkLocal[7] = Work_Zone[4]
 18: 0x00D0 [0x03] ExtData[1]->WorkLocal[8] = ExtData[1]->WorkLocal[7]
 19: 0x00D5 [0x07] ExtData[1]->WorkLocal[8] += 7200*
 20: 0x00DA [0x03] ExtData[1]->WorkLocal[25] = Work_Zone[5]
 21: 0x00DF [0x03] ExtData[1]->WorkLocal[30] = Work_Zone[6]
 22: 0x00E4 [0x03] ExtData[1]->WorkLocal[31] = Work_Zone[8]
 23: 0x00E9 [0x1D] PRINT_EVENT_MESSAGE(message_id=10955*)
    → "I am Afdeen, pupil of the great and honorable mage Abdhaljs. I have been assigned with the management of his spectacular creation--Abdhaljs Isle-Purgonorgo."
 24: 0x00EC [0x23] WAIT_FOR_DIALOG_INTERACTION
 25: 0x00ED [0x02] IF !(ExtData[1]->WorkLocal[6] == 1*) GOTO 0x0108
 26: 0x00F5 [0x03] Work_Zone[2] = ExtData[1]->WorkLocal[8]
 27: 0x00FA [0x03] Work_Zone[3] = ExtData[1]->WorkLocal[8]
 28: 0x00FF [0x07] Work_Zone[3] += 7200*
 29: 0x0104 [0x1D] PRINT_EVENT_MESSAGE(message_id=10956*)
    → "Access to the Isle for the period of to is no longer available."
 30: 0x0107 [0x23] WAIT_FOR_DIALOG_INTERACTION
 31: 0x0108 [0x02] IF !(ExtData[1]->WorkLocal[16] == 1*) GOTO 0x0117
 32: 0x0110 [0x1D] PRINT_EVENT_MESSAGE(message_id=10957*)
    → "Since you are a candidate for Master of Ceremonies (MC), you are authorized to make certain rule changes concerning participation."
 33: 0x0113 [0x23] WAIT_FOR_DIALOG_INTERACTION
 34: 0x0114 [0x01] GOTO 0x0144
 35: 0x0117 [0x06] Work_Zone[2] = 0
 36: 0x011A [0x02] IF !(ExtData[1]->WorkLocal[17] == 1*) GOTO 0x0129
 37: 0x0122 [0x3C] SET_BIT_FLAG_CONDITIONAL(target_work_offset=Work_Zone[2], bit_index_work_offset=0*, condition_work_offset=1*)
 38: 0x0129 [0x02] IF !(ExtData[1]->WorkLocal[18] == 1*) GOTO 0x0138
 39: 0x0131 [0x3C] SET_BIT_FLAG_CONDITIONAL(target_work_offset=Work_Zone[2], bit_index_work_offset=1*, condition_work_offset=1*)
 40: 0x0138 [0x02] IF !(Work_Zone[2] == 0*) GOTO 0x0144
 41: 0x0140 [0x1D] PRINT_EVENT_MESSAGE(message_id=10958*)
    → "The current Abdhaljs Isle participation rules set by the Master of Ceremonies are as follows: [ /Anyone can attend/Anyone can participate/Anyone can attend or participate]."
 42: 0x0143 [0x23] WAIT_FOR_DIALOG_INTERACTION

SUBROUTINE_0144:
 43: 0x0144 [0x06] ExtData[1]->WorkLocal[11] = 0

SUBROUTINE_0147:
 44: 0x0147 [0x06] ExtData[1]->WorkLocal[10] = 0
 45: 0x014A [0x3C] SET_BIT_FLAG_CONDITIONAL(target_work_offset=ExtData[1]->WorkLocal[10], bit_index_work_offset=2*, condition_work_offset=1*)
 46: 0x0151 [0x03] ExtData[1]->WorkLocal[22] = ExtData[1]->WorkLocal[7]
 47: 0x0156 [0x1A] CALL_SUBROUTINE(address=0x15FE)
 48: 0x0159 [0x02] IF !(ExtData[1]->WorkLocal[54] == 0*) GOTO 0x016B
 49: 0x0161 [0x3C] SET_BIT_FLAG_CONDITIONAL(target_work_offset=ExtData[1]->WorkLocal[10], bit_index_work_offset=1*, condition_work_offset=1*)
 50: 0x0168 [0x01] GOTO 0x0172
 51: 0x016B [0x3C] SET_BIT_FLAG_CONDITIONAL(target_work_offset=ExtData[1]->WorkLocal[10], bit_index_work_offset=3*, condition_work_offset=1*)

SUBROUTINE_0172:
 52: 0x0172 [0x02] IF !(ExtData[1]->WorkLocal[16] == 0*) GOTO 0x0188
 53: 0x017A [0x3C] SET_BIT_FLAG_CONDITIONAL(target_work_offset=ExtData[1]->WorkLocal[10], bit_index_work_offset=5*, condition_work_offset=1*)
 54: 0x0181 [0x3C] SET_BIT_FLAG_CONDITIONAL(target_work_offset=ExtData[1]->WorkLocal[10], bit_index_work_offset=6*, condition_work_offset=1*)
 55: 0x0188 [0x02] IF !(ExtData[1]->WorkLocal[17] == 0*) GOTO 0x0197
 56: 0x0190 [0x3C] SET_BIT_FLAG_CONDITIONAL(target_work_offset=ExtData[1]->WorkLocal[10], bit_index_work_offset=7*, condition_work_offset=1*)
 57: 0x0197 [0x02] IF !(ExtData[1]->WorkLocal[18] == 0*) GOTO 0x01A6
 58: 0x019F [0x3C] SET_BIT_FLAG_CONDITIONAL(target_work_offset=ExtData[1]->WorkLocal[10], bit_index_work_offset=8*, condition_work_offset=1*)
 59: 0x01A6 [0x02] IF !(ExtData[1]->WorkLocal[0] == 0*) GOTO 0x01B5
 60: 0x01AE [0x3C] SET_BIT_FLAG_CONDITIONAL(target_work_offset=ExtData[1]->WorkLocal[10], bit_index_work_offset=9*, condition_work_offset=1*)
 61: 0x01B5 [0x03] Work_Zone[2] = ExtData[1]->WorkLocal[17]
 62: 0x01BA [0x03] Work_Zone[3] = ExtData[1]->WorkLocal[18]
 63: 0x01BF [0x03] Work_Zone[4] = ExtData[1]->WorkLocal[54]
 64: 0x01C4 [0x24] CREATE_DIALOG(message_id=10959*, default_option=ExtData[1]->WorkLocal[11], option_flags=ExtData[1]->WorkLocal[10])
    → "Select one... [Quit./Join an official match (Level $2)./Reserve the Isle (2 days from now)./Reserve the Isle (now)./Reservation status./[Allow/Restrict] gallery./[Allow/Restrict] participation./View a match./Participate in a match./Enter the Isle./FAQ: Reserving the Isle./FAQ: What is Brenner?/Official match dates.]"
 65: 0x01CB [0x25] WAIT_DIALOG_SELECT()
 66: 0x01CC [0x40] SET_BIT_WORK_RANGE(start_bit=16*, end_bit=31*, target=Work_Zone[1], source=Work_Zone[0])
 67: 0x01D5 [0x03] ExtData[1]->WorkLocal[11] = Work_Zone[0]
 68: 0x01DA [0x02] IF !(Work_Zone[0] == 1*) GOTO 0x02A9
 69: 0x01E2 [0x02] IF !(LocalPlayer->JobLevel < ExtData[1]->WorkLocal[54]) GOTO 0x02A2
 70: 0x01EA [0x03] Work_Zone[2] = ExtData[1]->WorkLocal[7]
 71: 0x01EF [0x07] Work_Zone[2] += 0*
 72: 0x01F4 [0x03] Work_Zone[3] = ExtData[1]->WorkLocal[7]
 73: 0x01F9 [0x07] Work_Zone[3] += 2100*
 74: 0x01FE [0x03] Work_Zone[4] = ExtData[1]->WorkLocal[7]
 75: 0x0203 [0x07] Work_Zone[4] += 4500*
 76: 0x0208 [0x1D] PRINT_EVENT_MESSAGE(message_id=8599*)
    → "Official matches are scheduled to begin at the following times: Match 1: Match 2: Match 3:"
 77: 0x020B [0x23] WAIT_FOR_DIALOG_INTERACTION
 78: 0x020C [0x02] IF !(ExtData[1]->WorkLocal[54] == 75*) GOTO 0x021C
 79: 0x0214 [0x03] Work_Zone[2] = 750*
 80: 0x0219 [0x01] GOTO 0x025C
 81: 0x021C [0x02] IF !(ExtData[1]->WorkLocal[54] == 60*) GOTO 0x022C
 82: 0x0224 [0x03] Work_Zone[2] = 600*
 83: 0x0229 [0x01] GOTO 0x025C
 84: 0x022C [0x02] IF !(ExtData[1]->WorkLocal[54] == 50*) GOTO 0x023C
 85: 0x0234 [0x03] Work_Zone[2] = 500*
 86: 0x0239 [0x01] GOTO 0x025C
 87: 0x023C [0x02] IF !(ExtData[1]->WorkLocal[54] == 40*) GOTO 0x024C
 88: 0x0244 [0x03] Work_Zone[2] = 400*
 89: 0x0249 [0x01] GOTO 0x025C
 90: 0x024C [0x02] IF !(ExtData[1]->WorkLocal[54] == 30*) GOTO 0x025C
 91: 0x0254 [0x03] Work_Zone[2] = 300*
 92: 0x0259 [0x01] GOTO 0x025C

SUBROUTINE_025C:
 93: 0x025C [0x1D] PRINT_EVENT_MESSAGE(message_id=8600*)
    → "Teleportation to the Isle is free of charge, but a participation fee of $0 gil is required before each match."
 94: 0x025F [0x23] WAIT_FOR_DIALOG_INTERACTION
 95: 0x0260 [0x24] CREATE_DIALOG(message_id=8601*, default_option=1*, option_flags=0*)
    → "Travel to the Isle? [Yes./Not yet.]"
 96: 0x0267 [0x25] WAIT_DIALOG_SELECT()
 97: 0x0268 [0x02] IF !(Work_Zone[0] == 0*) GOTO 0x029F
 98: 0x0270 [0x42] SET_CLI_EVENT_CANCEL_DATA()
 99: 0x0271 [0x73] EventEntity casts magic 122* on LocalPlayer
100: 0x027C [0x1C] WAIT(260* ticks)
101: 0x027F [0x43] SEND_EVENT_UPDATE: Send pending tag to server (packet 0x005B)
102: 0x0281 [0x43] SEND_EVENT_UPDATE: Check pending flag (skip if not pending)
103: 0x0283 [0x02] IF !(Work_Zone[2] == 4294967295*) GOTO 0x029B
104: 0x028B [0x6C] FADE_ENTITY_COLOR(entity_id=LocalPlayer, end_alpha=127*, fade_time=1*)
105: 0x0294 [0x48] [System] [8630*]:
    → "I'm sorry. I wasn't listening. Could you start over from the beginning?"
106: 0x0297 [0x23] WAIT_FOR_DIALOG_INTERACTION
107: 0x0298 [0x01] GOTO 0x029C
108: 0x029B [0x30] SET_UCOFF_CONTINUE_ZERO()

SUBROUTINE_029C:
109: 0x029C [0x01] GOTO 0x029F

SUBROUTINE_029F:
110: 0x029F [0x01] GOTO 0x02A6
111: 0x02A2 [0x1D] PRINT_EVENT_MESSAGE(message_id=8598*)
    → "I apologize, but your level is too low to participate in an official Brenner match."
112: 0x02A5 [0x23] WAIT_FOR_DIALOG_INTERACTION

SUBROUTINE_02A6:
113: 0x02A6 [0x01] GOTO 0x11C0
114: 0x02A9 [0x02] IF !(Work_Zone[0] == 2*) GOTO 0x02B4
115: 0x02B1 [0x01] GOTO 0x11C0
116: 0x02B4 [0x02] IF !(Work_Zone[0] == 3*) GOTO 0x0369
117: 0x02BC [0x02] IF !(ExtData[1]->WorkLocal[3] == 0*) GOTO 0x0362
118: 0x02C4 [0x02] IF !(ExtData[1]->WorkLocal[4] == 0*) GOTO 0x02FD
119: 0x02CC [0x1D] PRINT_EVENT_MESSAGE(message_id=10967*)
    → "Currently, no parties occupy the Isle."
120: 0x02CF [0x23] WAIT_FOR_DIALOG_INTERACTION
121: 0x02D0 [0x03] Work_Zone[2] = 5325*
122: 0x02D5 [0x02] IF !(ExtData[1]->WorkLocal[26] == 0*) GOTO 0x02F6
123: 0x02DD [0x3E] IF !(ExtData[1]->WorkLocal[0] bit 2*) GOTO 0x02EB
124: 0x02E4 [0x1D] PRINT_EVENT_MESSAGE(message_id=11019*)
    → "Since you already possess $0, I cannot allow you to make any further reservations. Also, remember to dispose of the $0 after the time inscribed on it has passed."
125: 0x02E7 [0x23] WAIT_FOR_DIALOG_INTERACTION
126: 0x02E8 [0x01] GOTO 0x02F3
127: 0x02EB [0x03] ExtData[1]->WorkLocal[38] = ExtData[1]->WorkLocal[7]
128: 0x02F0 [0x1A] CALL_SUBROUTINE(address=0x1271)

SUBROUTINE_02F3:
129: 0x02F3 [0x01] GOTO 0x02FA
130: 0x02F6 [0x1D] PRINT_EVENT_MESSAGE(message_id=10960*)
    → "I see that you have recently utilized our services. I apologize, but I must ask that you wait a few more moments before attempting any further transactions."
131: 0x02F9 [0x23] WAIT_FOR_DIALOG_INTERACTION

SUBROUTINE_02FA:
132: 0x02FA [0x01] GOTO 0x035F
133: 0x02FD [0x03] Work_Zone[2] = ExtData[1]->WorkLocal[7]
134: 0x0302 [0x03] Work_Zone[3] = Work_Zone[2]
135: 0x0307 [0x07] Work_Zone[3] += 7200*
136: 0x030C [0x1D] PRINT_EVENT_MESSAGE(message_id=10968*)
    → "The Isle is currently under occupation from until ."
137: 0x030F [0x23] WAIT_FOR_DIALOG_INTERACTION
138: 0x0310 [0x02] IF !(ExtData[1]->WorkLocal[6] == 1*) GOTO 0x0326
139: 0x0318 [0x07] Work_Zone[2] += 7200*
140: 0x031D [0x07] Work_Zone[3] += 7200*
141: 0x0322 [0x1D] PRINT_EVENT_MESSAGE(message_id=10969*)
    → "In addition, reservations for to have also come to a close."
142: 0x0325 [0x23] WAIT_FOR_DIALOG_INTERACTION
143: 0x0326 [0x06] ExtData[1]->WorkLocal[20] = 0
144: 0x0329 [0x03] ExtData[1]->WorkLocal[23] = ExtData[1]->WorkLocal[7]

SUBROUTINE_032E:
145: 0x032E [0x02] IF !(ExtData[1]->WorkLocal[20] > 23*) GOTO 0x0356
146: 0x0336 [0x07] ExtData[1]->WorkLocal[23] += 7200*
147: 0x033B [0x03] ExtData[1]->WorkLocal[22] = ExtData[1]->WorkLocal[23]
148: 0x0340 [0x1A] CALL_SUBROUTINE(address=0x15FE)
149: 0x0343 [0x02] IF !(ExtData[1]->WorkLocal[54] == 0*) GOTO 0x0350
150: 0x034B [0x03] ExtData[1]->WorkLocal[20] = 100*
151: 0x0350 [0x0B] ExtData[1]->WorkLocal[20]++
152: 0x0353 [0x01] GOTO 0x032E
153: 0x0356 [0x03] Work_Zone[2] = ExtData[1]->WorkLocal[23]
154: 0x035B [0x1D] PRINT_EVENT_MESSAGE(message_id=10970*)
    → "Reservations for the next available block will be accepted from ."
155: 0x035E [0x23] WAIT_FOR_DIALOG_INTERACTION

SUBROUTINE_035F:
156: 0x035F [0x01] GOTO 0x0366
157: 0x0362 [0x1D] PRINT_EVENT_MESSAGE(message_id=10966*)
    → "I apologize, but the Isle is currently out of service."
158: 0x0365 [0x23] WAIT_FOR_DIALOG_INTERACTION

SUBROUTINE_0366:
159: 0x0366 [0x01] GOTO 0x11C0
160: 0x0369 [0x02] IF !(Work_Zone[0] == 4*) GOTO 0x0A21
161: 0x0371 [0x06] ExtData[1]->WorkLocal[40] = 0
162: 0x0374 [0x03] ExtData[1]->WorkLocal[11] = 0*
163: 0x0379 [0x40] SET_BIT_WORK_RANGE(start_bit=3*, end_bit=8*, target=Work_Zone[1], source=33*)
164: 0x0382 [0x43] SEND_EVENT_UPDATE: Send pending tag to server (packet 0x005B)
165: 0x0384 [0x43] SEND_EVENT_UPDATE: Check pending flag (skip if not pending)
166: 0x0386 [0x02] IF !(Work_Zone[9] == 4294967295*) GOTO 0x0395
167: 0x038E [0x48] [System] [8630*]:
    → "I'm sorry. I wasn't listening. Could you start over from the beginning?"
168: 0x0391 [0x23] WAIT_FOR_DIALOG_INTERACTION
169: 0x0392 [0x01] GOTO 0x0A1E
170: 0x0395 [0x03] ExtData[1]->WorkLocal[44] = Work_Zone[2]
171: 0x039A [0x03] ExtData[1]->WorkLocal[45] = Work_Zone[3]
172: 0x039F [0x03] ExtData[1]->WorkLocal[46] = Work_Zone[4]
173: 0x03A4 [0x03] ExtData[1]->WorkLocal[47] = Work_Zone[5]
174: 0x03A9 [0x03] ExtData[1]->WorkLocal[48] = Work_Zone[6]
175: 0x03AE [0x03] ExtData[1]->WorkLocal[49] = Work_Zone[7]
176: 0x03B3 [0x03] ExtData[1]->WorkLocal[50] = Work_Zone[8]

SUBROUTINE_03B8:
177: 0x03B8 [0x03] ExtData[1]->WorkLocal[37] = ExtData[1]->WorkLocal[7]
178: 0x03BD [0x02] IF !(ExtData[1]->WorkLocal[40] == 0*) GOTO 0x03D7
179: 0x03C5 [0x07] ExtData[1]->WorkLocal[37] += 7200*
180: 0x03CA [0x03] ExtData[1]->WorkLocal[39] = 0*
181: 0x03CF [0x03] ExtData[1]->WorkLocal[10] = 1*
182: 0x03D4 [0x01] GOTO 0x03EB
183: 0x03D7 [0x03] ExtData[1]->WorkLocal[39] = 12*
184: 0x03DC [0x03] ExtData[1]->WorkLocal[37] = ExtData[1]->WorkLocal[7]
185: 0x03E1 [0x07] ExtData[1]->WorkLocal[37] += 93600*
186: 0x03E6 [0x03] ExtData[1]->WorkLocal[10] = 8192*

SUBROUTINE_03EB:
187: 0x03EB [0x06] ExtData[1]->WorkLocal[41] = 0
188: 0x03EE [0x06] Work_Zone[2] = 0
189: 0x03F1 [0x06] Work_Zone[3] = 0
190: 0x03F4 [0x06] Work_Zone[4] = 0
191: 0x03F7 [0x06] Work_Zone[5] = 0
192: 0x03FA [0x06] Work_Zone[6] = 0
193: 0x03FD [0x06] Work_Zone[7] = 0
194: 0x0400 [0x06] Work_Zone[8] = 0
195: 0x0403 [0x06] Work_Zone[9] = 0
196: 0x0406 [0x06] Work_Zone_1700[0] = 0
197: 0x0409 [0x06] Work_Zone_1700[1] = 0
198: 0x040C [0x06] Work_Zone_1700[2] = 0
199: 0x040F [0x06] Work_Zone_1700[3] = 0
200: 0x0412 [0x06] Work_Zone_1700[4] = 0
201: 0x0415 [0x06] Work_Zone_1700[5] = 0
202: 0x0418 [0x06] Work_Zone_1700[6] = 0
203: 0x041B [0x06] Work_Zone_1700[7] = 0
204: 0x041E [0x06] Work_Zone_1700[8] = 0
205: 0x0421 [0x06] Work_Zone_1700[9] = 0
206: 0x0424 [0x06] Work_Zone_1700[10] = 0
207: 0x0427 [0x06] Work_Zone_1700[11] = 0
208: 0x042A [0x06] Work_Zone_1700[12] = 0
209: 0x042D [0x06] Work_Zone_1700[13] = 0
210: 0x0430 [0x06] Work_Zone_1700[14] = 0
211: 0x0433 [0x06] Work_Zone_1700[15] = 0
212: 0x0436 [0x06] Work_Zone_1700[16] = 0
213: 0x0439 [0x06] Work_Zone_1700[17] = 0
214: 0x043C [0x06] Work_Zone_1700[18] = 0
215: 0x043F [0x06] Work_Zone_1700[19] = 0
216: 0x0442 [0x06] Work_Zone_1700[20] = 0
217: 0x0445 [0x06] Work_Zone_1700[21] = 0
218: 0x0448 [0x06] Work_Zone_1700[22] = 0
219: 0x044B [0x06] Work_Zone_1700[23] = 0

SUBROUTINE_044E:
220: 0x044E [0x02] IF !(ExtData[1]->WorkLocal[41] > 11*) GOTO 0x073E
221: 0x0456 [0x02] IF !(ExtData[1]->WorkLocal[41] == 0*) GOTO 0x0466
222: 0x045E [0x03] Work_Zone[2] = ExtData[1]->WorkLocal[37]
223: 0x0463 [0x01] GOTO 0x0516
224: 0x0466 [0x02] IF !(ExtData[1]->WorkLocal[41] == 1*) GOTO 0x0476
225: 0x046E [0x03] Work_Zone[3] = ExtData[1]->WorkLocal[37]
226: 0x0473 [0x01] GOTO 0x0516
227: 0x0476 [0x02] IF !(ExtData[1]->WorkLocal[41] == 2*) GOTO 0x0486
228: 0x047E [0x03] Work_Zone[4] = ExtData[1]->WorkLocal[37]
229: 0x0483 [0x01] GOTO 0x0516
230: 0x0486 [0x02] IF !(ExtData[1]->WorkLocal[41] == 3*) GOTO 0x0496
231: 0x048E [0x03] Work_Zone[5] = ExtData[1]->WorkLocal[37]
232: 0x0493 [0x01] GOTO 0x0516
233: 0x0496 [0x02] IF !(ExtData[1]->WorkLocal[41] == 4*) GOTO 0x04A6
234: 0x049E [0x03] Work_Zone[6] = ExtData[1]->WorkLocal[37]
235: 0x04A3 [0x01] GOTO 0x0516
236: 0x04A6 [0x02] IF !(ExtData[1]->WorkLocal[41] == 5*) GOTO 0x04B6
237: 0x04AE [0x03] Work_Zone[7] = ExtData[1]->WorkLocal[37]
238: 0x04B3 [0x01] GOTO 0x0516
239: 0x04B6 [0x02] IF !(ExtData[1]->WorkLocal[41] == 6*) GOTO 0x04C6
240: 0x04BE [0x03] Work_Zone[8] = ExtData[1]->WorkLocal[37]
241: 0x04C3 [0x01] GOTO 0x0516
242: 0x04C6 [0x02] IF !(ExtData[1]->WorkLocal[41] == 7*) GOTO 0x04D6
243: 0x04CE [0x03] Work_Zone[9] = ExtData[1]->WorkLocal[37]
244: 0x04D3 [0x01] GOTO 0x0516
245: 0x04D6 [0x02] IF !(ExtData[1]->WorkLocal[41] == 8*) GOTO 0x04E6
246: 0x04DE [0x03] Work_Zone_1700[0] = ExtData[1]->WorkLocal[37]
247: 0x04E3 [0x01] GOTO 0x0516
248: 0x04E6 [0x02] IF !(ExtData[1]->WorkLocal[41] == 9*) GOTO 0x04F6
249: 0x04EE [0x03] Work_Zone_1700[1] = ExtData[1]->WorkLocal[37]
250: 0x04F3 [0x01] GOTO 0x0516
251: 0x04F6 [0x02] IF !(ExtData[1]->WorkLocal[41] == 10*) GOTO 0x0506
252: 0x04FE [0x03] Work_Zone_1700[2] = ExtData[1]->WorkLocal[37]
253: 0x0503 [0x01] GOTO 0x0516
254: 0x0506 [0x02] IF !(ExtData[1]->WorkLocal[41] == 11*) GOTO 0x0516
255: 0x050E [0x03] Work_Zone_1700[3] = ExtData[1]->WorkLocal[37]
256: 0x0513 [0x01] GOTO 0x0516

SUBROUTINE_0516:
257: 0x0516 [0x03] ExtData[1]->WorkLocal[38] = ExtData[1]->WorkLocal[37]
258: 0x051B [0x08] ExtData[1]->WorkLocal[38] -= 172800*
259: 0x0520 [0x3E] IF !(ExtData[1]->WorkLocal[50] bit ExtData[1]->WorkLocal[39]) GOTO 0x052F
260: 0x0527 [0x03] ExtData[1]->WorkLocal[22] = 4*
261: 0x052C [0x01] GOTO 0x056C
262: 0x052F [0x3E] IF !(ExtData[1]->WorkLocal[30] bit ExtData[1]->WorkLocal[39]) GOTO 0x0557
263: 0x0536 [0x03] ExtData[1]->WorkLocal[22] = 3*
264: 0x053B [0x3E] IF !(ExtData[1]->WorkLocal[47] bit ExtData[1]->WorkLocal[39]) GOTO 0x0545
265: 0x0542 [0x01] GOTO 0x0554
266: 0x0545 [0x3E] IF !(ExtData[1]->WorkLocal[49] bit ExtData[1]->WorkLocal[39]) GOTO 0x054F
267: 0x054C [0x01] GOTO 0x0554
268: 0x054F [0x03] ExtData[1]->WorkLocal[22] = 2*

SUBROUTINE_0554:
269: 0x0554 [0x01] GOTO 0x056C
270: 0x0557 [0x02] IF !(ExtData[1]->WorkLocal[38] > ExtData[1]->WorkLocal[31]) GOTO 0x0567
271: 0x055F [0x03] ExtData[1]->WorkLocal[22] = 0*
272: 0x0564 [0x01] GOTO 0x056C
273: 0x0567 [0x03] ExtData[1]->WorkLocal[22] = 1*

SUBROUTINE_056C:
274: 0x056C [0x02] IF !(ExtData[1]->WorkLocal[41] == 0*) GOTO 0x057C
275: 0x0574 [0x03] Work_Zone_1700[4] = ExtData[1]->WorkLocal[22]
276: 0x0579 [0x01] GOTO 0x062C
277: 0x057C [0x02] IF !(ExtData[1]->WorkLocal[41] == 1*) GOTO 0x058C
278: 0x0584 [0x03] Work_Zone_1700[5] = ExtData[1]->WorkLocal[22]
279: 0x0589 [0x01] GOTO 0x062C
280: 0x058C [0x02] IF !(ExtData[1]->WorkLocal[41] == 2*) GOTO 0x059C
281: 0x0594 [0x03] Work_Zone_1700[6] = ExtData[1]->WorkLocal[22]
282: 0x0599 [0x01] GOTO 0x062C
283: 0x059C [0x02] IF !(ExtData[1]->WorkLocal[41] == 3*) GOTO 0x05AC
284: 0x05A4 [0x03] Work_Zone_1700[7] = ExtData[1]->WorkLocal[22]
285: 0x05A9 [0x01] GOTO 0x062C
286: 0x05AC [0x02] IF !(ExtData[1]->WorkLocal[41] == 4*) GOTO 0x05BC
287: 0x05B4 [0x03] Work_Zone_1700[8] = ExtData[1]->WorkLocal[22]
288: 0x05B9 [0x01] GOTO 0x062C
289: 0x05BC [0x02] IF !(ExtData[1]->WorkLocal[41] == 5*) GOTO 0x05CC
290: 0x05C4 [0x03] Work_Zone_1700[9] = ExtData[1]->WorkLocal[22]
291: 0x05C9 [0x01] GOTO 0x062C
292: 0x05CC [0x02] IF !(ExtData[1]->WorkLocal[41] == 6*) GOTO 0x05DC
293: 0x05D4 [0x03] Work_Zone_1700[10] = ExtData[1]->WorkLocal[22]
294: 0x05D9 [0x01] GOTO 0x062C
295: 0x05DC [0x02] IF !(ExtData[1]->WorkLocal[41] == 7*) GOTO 0x05EC
296: 0x05E4 [0x03] Work_Zone_1700[11] = ExtData[1]->WorkLocal[22]
297: 0x05E9 [0x01] GOTO 0x062C
298: 0x05EC [0x02] IF !(ExtData[1]->WorkLocal[41] == 8*) GOTO 0x05FC
299: 0x05F4 [0x03] Work_Zone_1700[12] = ExtData[1]->WorkLocal[22]
300: 0x05F9 [0x01] GOTO 0x062C
301: 0x05FC [0x02] IF !(ExtData[1]->WorkLocal[41] == 9*) GOTO 0x060C
302: 0x0604 [0x03] Work_Zone_1700[13] = ExtData[1]->WorkLocal[22]
303: 0x0609 [0x01] GOTO 0x062C
304: 0x060C [0x02] IF !(ExtData[1]->WorkLocal[41] == 10*) GOTO 0x061C
305: 0x0614 [0x03] Work_Zone_1700[14] = ExtData[1]->WorkLocal[22]
306: 0x0619 [0x01] GOTO 0x062C
307: 0x061C [0x02] IF !(ExtData[1]->WorkLocal[41] == 11*) GOTO 0x062C
308: 0x0624 [0x03] Work_Zone_1700[15] = ExtData[1]->WorkLocal[22]
309: 0x0629 [0x01] GOTO 0x062C

SUBROUTINE_062C:
310: 0x062C [0x06] ExtData[1]->WorkLocal[22] = 0
311: 0x062F [0x02] IF !(ExtData[1]->WorkLocal[22] == 0*) GOTO 0x0670
312: 0x0637 [0x3E] IF !(ExtData[1]->WorkLocal[30] bit ExtData[1]->WorkLocal[39]) GOTO 0x066B
313: 0x063E [0x3E] IF !(ExtData[1]->WorkLocal[44] bit ExtData[1]->WorkLocal[39]) GOTO 0x064C
314: 0x0645 [0x3C] SET_BIT_FLAG_CONDITIONAL(target_work_offset=ExtData[1]->WorkLocal[22], bit_index_work_offset=0*, condition_work_offset=1*)
315: 0x064C [0x3E] IF !(ExtData[1]->WorkLocal[45] bit ExtData[1]->WorkLocal[39]) GOTO 0x065A
316: 0x0653 [0x3C] SET_BIT_FLAG_CONDITIONAL(target_work_offset=ExtData[1]->WorkLocal[22], bit_index_work_offset=1*, condition_work_offset=1*)
317: 0x065A [0x3E] IF !(ExtData[1]->WorkLocal[46] bit ExtData[1]->WorkLocal[39]) GOTO 0x0668
318: 0x0661 [0x3C] SET_BIT_FLAG_CONDITIONAL(target_work_offset=ExtData[1]->WorkLocal[22], bit_index_work_offset=2*, condition_work_offset=1*)
319: 0x0668 [0x01] GOTO 0x0670
320: 0x066B [0x03] ExtData[1]->WorkLocal[22] = 7*

SUBROUTINE_0670:
321: 0x0670 [0x02] IF !(ExtData[1]->WorkLocal[41] == 0*) GOTO 0x0680
322: 0x0678 [0x03] Work_Zone_1700[16] = ExtData[1]->WorkLocal[22]
323: 0x067D [0x01] GOTO 0x0730
324: 0x0680 [0x02] IF !(ExtData[1]->WorkLocal[41] == 1*) GOTO 0x0690
325: 0x0688 [0x03] Work_Zone_1700[17] = ExtData[1]->WorkLocal[22]
326: 0x068D [0x01] GOTO 0x0730
327: 0x0690 [0x02] IF !(ExtData[1]->WorkLocal[41] == 2*) GOTO 0x06A0
328: 0x0698 [0x03] Work_Zone_1700[18] = ExtData[1]->WorkLocal[22]
329: 0x069D [0x01] GOTO 0x0730
330: 0x06A0 [0x02] IF !(ExtData[1]->WorkLocal[41] == 3*) GOTO 0x06B0
331: 0x06A8 [0x03] Work_Zone_1700[19] = ExtData[1]->WorkLocal[22]
332: 0x06AD [0x01] GOTO 0x0730
333: 0x06B0 [0x02] IF !(ExtData[1]->WorkLocal[41] == 4*) GOTO 0x06C0
334: 0x06B8 [0x03] Work_Zone_1700[20] = ExtData[1]->WorkLocal[22]
335: 0x06BD [0x01] GOTO 0x0730
336: 0x06C0 [0x02] IF !(ExtData[1]->WorkLocal[41] == 5*) GOTO 0x06D0
337: 0x06C8 [0x03] Work_Zone_1700[21] = ExtData[1]->WorkLocal[22]
338: 0x06CD [0x01] GOTO 0x0730
339: 0x06D0 [0x02] IF !(ExtData[1]->WorkLocal[41] == 6*) GOTO 0x06E0
340: 0x06D8 [0x03] Work_Zone_1700[22] = ExtData[1]->WorkLocal[22]
341: 0x06DD [0x01] GOTO 0x0730
342: 0x06E0 [0x02] IF !(ExtData[1]->WorkLocal[41] == 7*) GOTO 0x06F0
343: 0x06E8 [0x03] Work_Zone_1700[23] = ExtData[1]->WorkLocal[22]
344: 0x06ED [0x01] GOTO 0x0730
345: 0x06F0 [0x02] IF !(ExtData[1]->WorkLocal[41] == 8*) GOTO 0x0700
346: 0x06F8 [0x03] Work_Zone_1700[24] = ExtData[1]->WorkLocal[22]
347: 0x06FD [0x01] GOTO 0x0730
348: 0x0700 [0x02] IF !(ExtData[1]->WorkLocal[41] == 9*) GOTO 0x0710
349: 0x0708 [0x03] Work_Zone_1700[25] = ExtData[1]->WorkLocal[22]
350: 0x070D [0x01] GOTO 0x0730
351: 0x0710 [0x02] IF !(ExtData[1]->WorkLocal[41] == 10*) GOTO 0x0720
352: 0x0718 [0x03] Work_Zone_1700[26] = ExtData[1]->WorkLocal[22]
353: 0x071D [0x01] GOTO 0x0730
354: 0x0720 [0x02] IF !(ExtData[1]->WorkLocal[41] == 11*) GOTO 0x0730
355: 0x0728 [0x03] Work_Zone_1700[27] = ExtData[1]->WorkLocal[22]
356: 0x072D [0x01] GOTO 0x0730

SUBROUTINE_0730:
357: 0x0730 [0x07] ExtData[1]->WorkLocal[37] += 7200*
358: 0x0735 [0x0B] ExtData[1]->WorkLocal[39]++
359: 0x0738 [0x0B] ExtData[1]->WorkLocal[41]++
360: 0x073B [0x01] GOTO 0x044E
361: 0x073E [0x24] CREATE_DIALOG(message_id=10993*, default_option=ExtData[1]->WorkLocal[11], option_flags=ExtData[1]->WorkLocal[10])
    → "Reservation status is as follows: [Previous page./ [H/|/~/~!/OM] [$7/60/50/40/30/20/10/]/ [H/|/~/~!/OM] [$7/60/50/40/30/20/10/]/ [H/|/~/~!/OM] [$7/60/50/40/30/20/10/]/ [H/|/~/~!/OM] [$7/60/50/40/30/20/10/]/ [H/|/~/~!/OM] [$7/60/50/40/30/20/10/]/ [H/|/~/~!/OM] [$7/60/50/40/30/20/10/]/ [H/|/~/~!/OM] [$7/60/50/40/30/20/10/]/ [H/|/~/~!/OM] [$7/60/50/40/30/20/10/]/ [H/|/~/~!/OM] [$7/60/50/40/30/20/10/]/ [H/|/~/~!/OM] [$7/60/50/40/30/20/10/]/ [H/|/~/~!/OM] "[$7/60/50/40/30/20/10/]/ [H/|/~/~!/OM] #[$7/60/50/40/30/20/10/]/Next Page./Return.]"
362: 0x0745 [0x25] WAIT_DIALOG_SELECT()
363: 0x0746 [0x02] IF !(Work_Zone[0] == 0*) GOTO 0x075C
364: 0x074E [0x06] ExtData[1]->WorkLocal[40] = 0
365: 0x0751 [0x03] ExtData[1]->WorkLocal[11] = 13*
366: 0x0756 [0x01] GOTO 0x03B8

SUBROUTINE_08CD:
367: 0x08CD [0x06] Work_Zone[9] = 0
368: 0x08D0 [0x03] ExtData[1]->WorkLocal[14] = ExtData[1]->WorkLocal[38]
369: 0x08D5 [0x08] ExtData[1]->WorkLocal[14] -= ExtData[1]->WorkLocal[7]
370: 0x08DA [0x15] ExtData[1]->WorkLocal[14] /= 7200*
371: 0x08DF [0x0C] ExtData[1]->WorkLocal[14]--
372: 0x08E2 [0x02] IF !(ExtData[1]->WorkLocal[42] == 0*) GOTO 0x0902
373: 0x08EA [0x03] Work_Zone[3] = ExtData[1]->WorkLocal[38]
374: 0x08EF [0x1D] PRINT_EVENT_MESSAGE(message_id=10997*)
    → "I am sorry. I seem to have misplaced the reservation documents for ..."
375: 0x08F2 [0x23] WAIT_FOR_DIALOG_INTERACTION
376: 0x08F3 [0x03] Work_Zone[2] = 5323*
377: 0x08F8 [0x1D] PRINT_EVENT_MESSAGE(message_id=10998*)
    → "However, any reservation you might have made for this block is still in effect. I can replace the information if you bring me the correct $0."
378: 0x08FB [0x23] WAIT_FOR_DIALOG_INTERACTION
379: 0x08FC [0x01] GOTO 0x03B8

SUBROUTINE_0938:
380: 0x0938 [0x01] GOTO 0x0A03
381: 0x093B [0x02] IF !(ExtData[1]->WorkLocal[42] == 4*) GOTO 0x0957
382: 0x0943 [0x03] Work_Zone[2] = ExtData[1]->WorkLocal[51]
383: 0x0948 [0x03] Work_Zone[3] = ExtData[1]->WorkLocal[38]
384: 0x094D [0x1D] PRINT_EVENT_MESSAGE(message_id=10994*)
    → "I cannot reserve that block. An official match is scheduled on the Isle on with a level restriction of [$7/60/50/40/30/20/10]."
385: 0x0950 [0x23] WAIT_FOR_DIALOG_INTERACTION
386: 0x0951 [0x01] GOTO 0x03B8

SUBROUTINE_0993:
387: 0x0993 [0x03] Work_Zone[4] = ExtData[1]->WorkLocal[23]
388: 0x0998 [0x1D] PRINT_EVENT_MESSAGE(message_id=10995*)
    → "There is currently a reservation for the Diorama on . Level restriction: [None/60/50/40/30/20/10] Comment: [None/Starting Recruitment for LS Liga/Recruiting for LS Liga/Recruiting Members]"
389: 0x099B [0x23] WAIT_FOR_DIALOG_INTERACTION
390: 0x099C [0x40] SET_BIT_WORK_RANGE(start_bit=3*, end_bit=8*, target=Work_Zone[1], source=ExtData[1]->WorkLocal[14])
391: 0x09A5 [0x03] Work_Zone[2] = ExtData[1]->WorkLocal[14]
392: 0x09AA [0x02] IF !(ExtData[1]->WorkLocal[23] == 0*) GOTO 0x09B5
393: 0x09B2 [0x01] GOTO 0x0A03
394: 0x09B5 [0x02] IF !(ExtData[1]->WorkLocal[23] == 3*) GOTO 0x09D8
395: 0x09BD [0x24] CREATE_DIALOG(message_id=11066*, default_option=1*, option_flags=0*)
    → "Apply for the match? [Yes./No.]"
396: 0x09C4 [0x25] WAIT_DIALOG_SELECT()
397: 0x09C5 [0x02] IF !(Work_Zone[0] == 0*) GOTO 0x09D5
398: 0x09CD [0x42] SET_CLI_EVENT_CANCEL_DATA()
399: 0x09CE [0x43] SEND_EVENT_UPDATE: Send pending tag to server (packet 0x005B)
400: 0x09D0 [0x43] SEND_EVENT_UPDATE: Check pending flag (skip if not pending)
401: 0x09D2 [0x01] GOTO 0x09D5

SUBROUTINE_09D5:
402: 0x09D5 [0x01] GOTO 0x0A03
403: 0x09D8 [0x02] IF !(ExtData[1]->WorkLocal[32] == 0*) GOTO 0x09E7
404: 0x09E0 [0x1D] PRINT_EVENT_MESSAGE(message_id=11064*)
    → "You are currently not registered for LS Liga, and are not eligible to apply for this match."
405: 0x09E3 [0x23] WAIT_FOR_DIALOG_INTERACTION
406: 0x09E4 [0x01] GOTO 0x0A03
407: 0x09E7 [0x1D] PRINT_EVENT_MESSAGE(message_id=11063*)
    → "You are currently registered for LS Liga, and are eligible to apply for this match."
408: 0x09EA [0x23] WAIT_FOR_DIALOG_INTERACTION
409: 0x09EB [0x24] CREATE_DIALOG(message_id=11065*, default_option=1*, option_flags=0*)
    → "Apply for the match? [Yes./No.]"
410: 0x09F2 [0x25] WAIT_DIALOG_SELECT()
411: 0x09F3 [0x02] IF !(Work_Zone[0] == 0*) GOTO 0x0A03
412: 0x09FB [0x42] SET_CLI_EVENT_CANCEL_DATA()
413: 0x09FC [0x43] SEND_EVENT_UPDATE: Send pending tag to server (packet 0x005B)
414: 0x09FE [0x43] SEND_EVENT_UPDATE: Check pending flag (skip if not pending)
415: 0x0A00 [0x01] GOTO 0x0A03

SUBROUTINE_0A03:
416: 0x0A03 [0x2E] SET_CLI_EVENT_CANCEL_FLAGS()
417: 0x0A04 [0x02] IF !(Work_Zone[9] == 1*) GOTO 0x0A1E
418: 0x0A0C [0x02] IF !(Work_Zone[9] == 4294967295*) GOTO 0x0A1B
419: 0x0A14 [0x1D] PRINT_EVENT_MESSAGE(message_id=11067*)
    → "I apologize, but I failed to process your application. Please try again."
420: 0x0A17 [0x23] WAIT_FOR_DIALOG_INTERACTION
421: 0x0A18 [0x01] GOTO 0x0A1E
422: 0x0A1B [0x01] GOTO 0x03B8

SUBROUTINE_0A1E:
423: 0x0A1E [0x01] GOTO 0x11C0
424: 0x0A21 [0x02] IF !(Work_Zone[0] == 5*) GOTO 0x0A73
425: 0x0A29 [0x1D] PRINT_EVENT_MESSAGE(message_id=11022*)
    → "By allowing a gallery, I can teleport to the Isle anyone who wishes to view the matches (for a small fee)."
426: 0x0A2C [0x23] WAIT_FOR_DIALOG_INTERACTION
427: 0x0A2D [0x1D] PRINT_EVENT_MESSAGE(message_id=11023*)
    → "However, remember that these gallery members will be restricted from match participation."
428: 0x0A30 [0x23] WAIT_FOR_DIALOG_INTERACTION
429: 0x0A31 [0x24] CREATE_DIALOG(message_id=11024*, default_option=ExtData[1]->WorkLocal[17], option_flags=0*)
    → "Allow gallery attendance? [No./Yes./Leave at current setting.]"
430: 0x0A38 [0x25] WAIT_DIALOG_SELECT()
431: 0x0A39 [0x02] IF !(Work_Zone[0] == 2*) GOTO 0x0A47
432: 0x0A41 [0x01] GOTO 0x0147

SUBROUTINE_0A70:
433: 0x0A70 [0x01] GOTO 0x11C0
434: 0x0A73 [0x02] IF !(Work_Zone[0] == 6*) GOTO 0x0AD6
435: 0x0A7B [0x02] IF !(ExtData[1]->WorkLocal[4] == 1*) GOTO 0x0A8B
436: 0x0A83 [0x03] Work_Zone[2] = 5324*
437: 0x0A88 [0x01] GOTO 0x0A90
438: 0x0A8B [0x03] Work_Zone[2] = 5326*

SUBROUTINE_0A90:
439: 0x0A90 [0x1D] PRINT_EVENT_MESSAGE(message_id=11026*)
    → "By allowing general participation, I can provide adventurers with $0 that they can use to travel to the Isle and take part in any Brenner matches held within."
440: 0x0A93 [0x23] WAIT_FOR_DIALOG_INTERACTION
441: 0x0A94 [0x24] CREATE_DIALOG(message_id=11027*, default_option=ExtData[1]->WorkLocal[18], option_flags=0*)
    → "Allow general participation? [No./Yes./Leave at current setting.]"
442: 0x0A9B [0x25] WAIT_DIALOG_SELECT()
443: 0x0A9C [0x02] IF !(Work_Zone[0] == 2*) GOTO 0x0AAA
444: 0x0AA4 [0x01] GOTO 0x0147

SUBROUTINE_0AD3:
445: 0x0AD3 [0x01] GOTO 0x11C0
446: 0x0AD6 [0x02] IF !(Work_Zone[0] == 7*) GOTO 0x0B6A
447: 0x0ADE [0x1D] PRINT_EVENT_MESSAGE(message_id=11029*)
    → "Any adventurers who wish to travel to the Isle to witness the events currently being held may do so. However, please note that all "gallery members" will not be allowed to participate in any matches."
448: 0x0AE1 [0x23] WAIT_FOR_DIALOG_INTERACTION
449: 0x0AE2 [0x02] IF !(ExtData[1]->WorkLocal[29] == 0*) GOTO 0x0AF3
450: 0x0AEA [0x03] Work_Zone[2] = 100*
451: 0x0AEF [0x1D] PRINT_EVENT_MESSAGE(message_id=11030*)
    → "If you still wish to be teleported, I will require a fee of $0 gil."
452: 0x0AF2 [0x23] WAIT_FOR_DIALOG_INTERACTION
453: 0x0AF3 [0x24] CREATE_DIALOG(message_id=11031*, default_option=1*, option_flags=0*)
    → "Become a gallery member? [Yes./No.]"
454: 0x0AFA [0x25] WAIT_DIALOG_SELECT()
455: 0x0AFB [0x02] IF !(Work_Zone[0] == 0*) GOTO 0x0B67
456: 0x0B03 [0x42] SET_CLI_EVENT_CANCEL_DATA()
457: 0x0B04 [0x73] EventEntity casts magic 122* on LocalPlayer
458: 0x0B0F [0x1C] WAIT(260* ticks)
459: 0x0B12 [0x40] SET_BIT_WORK_RANGE(start_bit=0*, end_bit=15*, target=Work_Zone[1], source=1*)
460: 0x0B1B [0x43] SEND_EVENT_UPDATE: Send pending tag to server (packet 0x005B)
461: 0x0B1D [0x43] SEND_EVENT_UPDATE: Check pending flag (skip if not pending)
462: 0x0B1F [0x02] IF !(Work_Zone[2] == 4294967295*) GOTO 0x0B37
463: 0x0B27 [0x6C] FADE_ENTITY_COLOR(entity_id=LocalPlayer, end_alpha=127*, fade_time=1*)
464: 0x0B30 [0x48] [System] [8630*]:
    → "I'm sorry. I wasn't listening. Could you start over from the beginning?"
465: 0x0B33 [0x23] WAIT_FOR_DIALOG_INTERACTION
466: 0x0B34 [0x01] GOTO 0x0B64
467: 0x0B37 [0x02] IF !(Work_Zone[9] == 4294967295*) GOTO 0x0B4F
468: 0x0B3F [0x6C] FADE_ENTITY_COLOR(entity_id=LocalPlayer, end_alpha=127*, fade_time=1*)
469: 0x0B48 [0x1D] PRINT_EVENT_MESSAGE(message_id=11016*)
    → "You do not possess the $0 gil necessary for teleportation."
470: 0x0B4B [0x23] WAIT_FOR_DIALOG_INTERACTION
471: 0x0B4C [0x01] GOTO 0x0B64
472: 0x0B4F [0x02] IF !(Work_Zone[9] == 0*) GOTO 0x0B5B
473: 0x0B57 [0x30] SET_UCOFF_CONTINUE_ZERO()
474: 0x0B58 [0x01] GOTO 0x0B64
475: 0x0B5B [0x6C] FADE_ENTITY_COLOR(entity_id=LocalPlayer, end_alpha=127*, fade_time=1*)

SUBROUTINE_0B64:
476: 0x0B64 [0x01] GOTO 0x0B67

SUBROUTINE_0B67:
477: 0x0B67 [0x01] GOTO 0x11C0
478: 0x0B6A [0x02] IF !(Work_Zone[0] == 8*) GOTO 0x0C3A
479: 0x0B72 [0x02] IF !(ExtData[1]->WorkLocal[4] == 1*) GOTO 0x0B82
480: 0x0B7A [0x03] Work_Zone[3] = 5324*
481: 0x0B7F [0x01] GOTO 0x0B87
482: 0x0B82 [0x03] Work_Zone[3] = 5326*

SUBROUTINE_0B87:
483: 0x0B87 [0x03] Work_Zone[4] = ExtData[1]->WorkLocal[25]
484: 0x0B8C [0x02] IF !(ExtData[1]->WorkLocal[25] == 0*) GOTO 0x0B9C
485: 0x0B94 [0x03] Work_Zone[2] = 750*
486: 0x0B99 [0x01] GOTO 0x0BFC
487: 0x0B9C [0x02] IF !(ExtData[1]->WorkLocal[25] == 1*) GOTO 0x0BAC
488: 0x0BA4 [0x03] Work_Zone[2] = 600*
489: 0x0BA9 [0x01] GOTO 0x0BFC
490: 0x0BAC [0x02] IF !(ExtData[1]->WorkLocal[25] == 2*) GOTO 0x0BBC
491: 0x0BB4 [0x03] Work_Zone[2] = 500*
492: 0x0BB9 [0x01] GOTO 0x0BFC
493: 0x0BBC [0x02] IF !(ExtData[1]->WorkLocal[25] == 3*) GOTO 0x0BCC
494: 0x0BC4 [0x03] Work_Zone[2] = 400*
495: 0x0BC9 [0x01] GOTO 0x0BFC
496: 0x0BCC [0x02] IF !(ExtData[1]->WorkLocal[25] == 4*) GOTO 0x0BDC
497: 0x0BD4 [0x03] Work_Zone[2] = 300*
498: 0x0BD9 [0x01] GOTO 0x0BFC
499: 0x0BDC [0x02] IF !(ExtData[1]->WorkLocal[25] == 5*) GOTO 0x0BEC
500: 0x0BE4 [0x03] Work_Zone[2] = 200*
501: 0x0BE9 [0x01] GOTO 0x0BFC
502: 0x0BEC [0x02] IF !(ExtData[1]->WorkLocal[25] == 6*) GOTO 0x0BFC
503: 0x0BF4 [0x03] Work_Zone[2] = 100*
504: 0x0BF9 [0x01] GOTO 0x0BFC

SUBROUTINE_0BFC:
505: 0x0BFC [0x1D] PRINT_EVENT_MESSAGE(message_id=11032*)
    → "General participation is currently being allowed for the next Brenner match. [There is no level limit set/The level limit is set to 60/The level limit is set to 50/The level limit is set to 40/The level limit is set to 30/The level limit is set to 20/The level limit is set to 10]."
506: 0x0BFF [0x23] WAIT_FOR_DIALOG_INTERACTION
507: 0x0C00 [0x1D] PRINT_EVENT_MESSAGE(message_id=11033*)
    → "I have been given authorization by the acting Master of Ceremonies to provide any adventurer who wishes to take part in the event with $1, as well as teleport him or her to the battlefield (for a small fee of $0 gil)."
508: 0x0C03 [0x23] WAIT_FOR_DIALOG_INTERACTION
509: 0x0C04 [0x24] CREATE_DIALOG(message_id=11034*, default_option=1*, option_flags=0*)
    → "Do you wish to participate? [Yes./No.]"
510: 0x0C0B [0x25] WAIT_DIALOG_SELECT()
511: 0x0C0C [0x02] IF !(Work_Zone[0] == 0*) GOTO 0x0C37
512: 0x0C14 [0x40] SET_BIT_WORK_RANGE(start_bit=0*, end_bit=15*, target=Work_Zone[1], source=1*)
513: 0x0C1D [0x43] SEND_EVENT_UPDATE: Send pending tag to server (packet 0x005B)
514: 0x0C1F [0x43] SEND_EVENT_UPDATE: Check pending flag (skip if not pending)
515: 0x0C21 [0x02] IF !(Work_Zone[2] == 4294967295*) GOTO 0x0C30
516: 0x0C29 [0x48] [System] [8630*]:
    → "I'm sorry. I wasn't listening. Could you start over from the beginning?"
517: 0x0C2C [0x23] WAIT_FOR_DIALOG_INTERACTION
518: 0x0C2D [0x01] GOTO 0x0C34
519: 0x0C30 [0x1D] PRINT_EVENT_MESSAGE(message_id=11035*)
    → "When you have made your preparations, show me your $0 and I shall teleport you to the Isle."
520: 0x0C33 [0x23] WAIT_FOR_DIALOG_INTERACTION

SUBROUTINE_0C34:
521: 0x0C34 [0x01] GOTO 0x0C37

SUBROUTINE_0C37:
522: 0x0C37 [0x01] GOTO 0x11C0
523: 0x0C3A [0x02] IF !(Work_Zone[0] == 9*) GOTO 0x0C64
524: 0x0C42 [0x03] Work_Zone[2] = 5323*
525: 0x0C47 [0x03] Work_Zone[3] = 5324*
526: 0x0C4C [0x03] Work_Zone[4] = 5325*
527: 0x0C51 [0x03] Work_Zone[5] = 5326*
528: 0x0C56 [0x1D] PRINT_EVENT_MESSAGE(message_id=11036*)
    → "A valid $0, $1, $2, or $3 is required for access to the Isle."
529: 0x0C59 [0x23] WAIT_FOR_DIALOG_INTERACTION
530: 0x0C5A [0x1D] PRINT_EVENT_MESSAGE(message_id=11037*)
    → "Present one to me when you have completed your preparations."
531: 0x0C5D [0x23] WAIT_FOR_DIALOG_INTERACTION
532: 0x0C5E [0x01] GOTO 0x0147

SUBROUTINE_0C6F:
533: 0x0C6F [0x24] CREATE_DIALOG(message_id=11038*, default_option=ExtData[1]->WorkLocal[52], option_flags=0*)
    → "What would you like to know about? [Making reservations./Reservation guidelines./Reservation status./The waiting list./Return.]"
534: 0x0C76 [0x25] WAIT_DIALOG_SELECT()
535: 0x0C77 [0x03] ExtData[1]->WorkLocal[52] = Work_Zone[0]
536: 0x0C7C [0x02] IF !(Work_Zone[0] == 0*) GOTO 0x0CAA
537: 0x0C84 [0x03] Work_Zone[2] = ExtData[1]->WorkLocal[7]
538: 0x0C89 [0x07] Work_Zone[2] += 172800*
539: 0x0C8E [0x03] Work_Zone[3] = ExtData[1]->WorkLocal[8]
540: 0x0C93 [0x07] Work_Zone[3] += 4147200*
541: 0x0C98 [0x1D] PRINT_EVENT_MESSAGE(message_id=11039*)
    → "The Isle can be reserved in blocks of two hours (Earth time)."
542: 0x0C9B [0x23] WAIT_FOR_DIALOG_INTERACTION
543: 0x0C9C [0x1D] PRINT_EVENT_MESSAGE(message_id=11040*)
    → "Reservations can be made for blocks up to two days in advance. For example, you could currently make a reservation for a match anytime until ."
544: 0x0C9F [0x23] WAIT_FOR_DIALOG_INTERACTION
545: 0x0CA0 [0x1D] PRINT_EVENT_MESSAGE(message_id=11041*)
    → "If no reservations have been made for the current block, or a person fails to reconfirm his or her reservation, other adventurers may be granted access to the area."
546: 0x0CA3 [0x23] WAIT_FOR_DIALOG_INTERACTION
547: 0x0CA4 [0x01] GOTO 0x0C6F

SUBROUTINE_0D36:
548: 0x0D36 [0x01] GOTO 0x11C0
549: 0x0D39 [0x02] IF !(Work_Zone[0] == 11*) GOTO 0x0E46
550: 0x0D41 [0x1D] PRINT_EVENT_MESSAGE(message_id=11054*)
    → "I have here the Brenner rulebook, sent to me by Sir Volker of Bastok. You may inquire about the game's rules, and I will read a passage of the book to you."
551: 0x0D44 [0x23] WAIT_FOR_DIALOG_INTERACTION
552: 0x0D45 [0x06] ExtData[1]->WorkLocal[22] = 0

SUBROUTINE_0D48:
553: 0x0D48 [0x24] CREATE_DIALOG(message_id=8602*, default_option=ExtData[1]->WorkLocal[22], option_flags=0*)
    → "What would you like to know about? [Basic rules./Official/private matches./Flammen-Brenner./Flamme./Match score./Petras and quarrying./Sprint./KO./Return.]"
554: 0x0D4F [0x25] WAIT_DIALOG_SELECT()
555: 0x0D50 [0x03] ExtData[1]->WorkLocal[22] = Work_Zone[0]
556: 0x0D55 [0x02] IF !(Work_Zone[0] == 0*) GOTO 0x0D7F
557: 0x0D5D [0x48] [System] [8603*]:
    → "The basic rules of Brenner are as follows:"
558: 0x0D60 [0x23] WAIT_FOR_DIALOG_INTERACTION
559: 0x0D61 [0x48] [System] [8604*]:
    → "First, the participants divide into two teams. Each side's camp contains the same number of "Flammen-Brenner.""
560: 0x0D64 [0x23] WAIT_FOR_DIALOG_INTERACTION
561: 0x0D65 [0x48] [System] [8605*]:
    → "At the beginning of the match, half of each side's Flammen-Brenner will be ablaze with "Flamme," or flame, while the other half will remain unlit."
562: 0x0D68 [0x23] WAIT_FOR_DIALOG_INTERACTION
563: 0x0D69 [0x48] [System] [8606*]:
    → "Participants can seize a Flamme from the opposing side's Flammen-Brenner and carry it around the Isle."
564: 0x0D6C [0x23] WAIT_FOR_DIALOG_INTERACTION
565: 0x0D6D [0x48] [System] [8607*]:
    → "The goal is to steal your opponent's Flamme and use them to light your side's Flammen-Brenner."
566: 0x0D70 [0x23] WAIT_FOR_DIALOG_INTERACTION
567: 0x0D71 [0x48] [System] [8608*]:
    → "The side that succeeds in lighting all of its Flammen-Brenner will be declared the winner after a specified amount of time."
568: 0x0D74 [0x23] WAIT_FOR_DIALOG_INTERACTION
569: 0x0D75 [0x48] [System] [8609*]:
    → "If neither side is victorious before the match ends, the outcome will be judged based on the score. The "match score" section of the rulebook contains more information on this subject."
570: 0x0D78 [0x23] WAIT_FOR_DIALOG_INTERACTION
571: 0x0D79 [0x01] GOTO 0x0D48

SUBROUTINE_0E3B:
572: 0x0E3B [0x03] ExtData[1]->WorkLocal[11] = 11*
573: 0x0E40 [0x01] GOTO 0x0147

SUBROUTINE_0EDD:
574: 0x0EDD [0x02] IF !(Work_Zone[0] > 5*) GOTO 0x11B5
575: 0x0EE5 [0x03] ExtData[1]->WorkLocal[53] = ExtData[1]->WorkLocal[7]

SUBROUTINE_0EEA:
576: 0x0EEA [0x03] ExtData[1]->WorkLocal[23] = ExtData[1]->WorkLocal[53]
577: 0x0EEF [0x06] ExtData[1]->WorkLocal[20] = 0
578: 0x0EF2 [0x06] ExtData[1]->WorkLocal[21] = 0

SUBROUTINE_0EF5:
579: 0x0EF5 [0x02] IF !(ExtData[1]->WorkLocal[20] > 84*) GOTO 0x1065
580: 0x0EFD [0x03] ExtData[1]->WorkLocal[22] = ExtData[1]->WorkLocal[23]
581: 0x0F02 [0x1A] CALL_SUBROUTINE(address=0x15FE)
582: 0x0F05 [0x02] IF !(ExtData[1]->WorkLocal[54] == 0*) GOTO 0x1052
583: 0x0F0D [0x06] ExtData[1]->WorkLocal[22] = 0
584: 0x0F10 [0x02] IF !(ExtData[1]->WorkLocal[24] == 4294967295*) GOTO 0x0F1E
585: 0x0F18 [0x05] ExtData[1]->WorkLocal[22] = 1
586: 0x0F1B [0x01] GOTO 0x0F29
587: 0x0F1E [0x02] IF !(ExtData[1]->WorkLocal[24] == ExtData[1]->WorkLocal[54]) GOTO 0x0F29
588: 0x0F26 [0x05] ExtData[1]->WorkLocal[22] = 1

SUBROUTINE_0F29:
589: 0x0F29 [0x02] IF !(ExtData[1]->WorkLocal[22] == 1*) GOTO 0x1052
590: 0x0F31 [0x03] ExtData[1]->WorkLocal[22] = ExtData[1]->WorkLocal[7]
591: 0x0F36 [0x07] ExtData[1]->WorkLocal[22] += 604800*
592: 0x0F3B [0x02] IF !(ExtData[1]->WorkLocal[23] > ExtData[1]->WorkLocal[22]) GOTO 0x1052
593: 0x0F43 [0x02] IF !(ExtData[1]->WorkLocal[21] > 10*) GOTO 0x1052
594: 0x0F4B [0x02] IF !(ExtData[1]->WorkLocal[21] == 0*) GOTO 0x0F65
595: 0x0F53 [0x03] Work_Zone[2] = ExtData[1]->WorkLocal[23]
596: 0x0F58 [0x03] Work_Zone_1700[2] = ExtData[1]->WorkLocal[54]
597: 0x0F5D [0x15] Work_Zone_1700[2] /= 10*
598: 0x0F62 [0x01] GOTO 0x104F
599: 0x0F65 [0x02] IF !(ExtData[1]->WorkLocal[21] == 1*) GOTO 0x0F7F
600: 0x0F6D [0x03] Work_Zone[3] = ExtData[1]->WorkLocal[23]
601: 0x0F72 [0x03] Work_Zone_1700[3] = ExtData[1]->WorkLocal[54]
602: 0x0F77 [0x15] Work_Zone_1700[3] /= 10*
603: 0x0F7C [0x01] GOTO 0x104F
604: 0x0F7F [0x02] IF !(ExtData[1]->WorkLocal[21] == 2*) GOTO 0x0F99
605: 0x0F87 [0x03] Work_Zone[4] = ExtData[1]->WorkLocal[23]
606: 0x0F8C [0x03] Work_Zone_1700[4] = ExtData[1]->WorkLocal[54]
607: 0x0F91 [0x15] Work_Zone_1700[4] /= 10*
608: 0x0F96 [0x01] GOTO 0x104F
609: 0x0F99 [0x02] IF !(ExtData[1]->WorkLocal[21] == 3*) GOTO 0x0FB3
610: 0x0FA1 [0x03] Work_Zone[5] = ExtData[1]->WorkLocal[23]
611: 0x0FA6 [0x03] Work_Zone_1700[5] = ExtData[1]->WorkLocal[54]
612: 0x0FAB [0x15] Work_Zone_1700[5] /= 10*
613: 0x0FB0 [0x01] GOTO 0x104F
614: 0x0FB3 [0x02] IF !(ExtData[1]->WorkLocal[21] == 4*) GOTO 0x0FCD
615: 0x0FBB [0x03] Work_Zone[6] = ExtData[1]->WorkLocal[23]
616: 0x0FC0 [0x03] Work_Zone_1700[6] = ExtData[1]->WorkLocal[54]
617: 0x0FC5 [0x15] Work_Zone_1700[6] /= 10*
618: 0x0FCA [0x01] GOTO 0x104F
619: 0x0FCD [0x02] IF !(ExtData[1]->WorkLocal[21] == 5*) GOTO 0x0FE7
620: 0x0FD5 [0x03] Work_Zone[7] = ExtData[1]->WorkLocal[23]
621: 0x0FDA [0x03] Work_Zone_1700[7] = ExtData[1]->WorkLocal[54]
622: 0x0FDF [0x15] Work_Zone_1700[7] /= 10*
623: 0x0FE4 [0x01] GOTO 0x104F
624: 0x0FE7 [0x02] IF !(ExtData[1]->WorkLocal[21] == 6*) GOTO 0x1001
625: 0x0FEF [0x03] Work_Zone[8] = ExtData[1]->WorkLocal[23]
626: 0x0FF4 [0x03] Work_Zone_1700[8] = ExtData[1]->WorkLocal[54]
627: 0x0FF9 [0x15] Work_Zone_1700[8] /= 10*
628: 0x0FFE [0x01] GOTO 0x104F
629: 0x1001 [0x02] IF !(ExtData[1]->WorkLocal[21] == 7*) GOTO 0x101B
630: 0x1009 [0x03] Work_Zone[9] = ExtData[1]->WorkLocal[23]
631: 0x100E [0x03] Work_Zone_1700[9] = ExtData[1]->WorkLocal[54]
632: 0x1013 [0x15] Work_Zone_1700[9] /= 10*
633: 0x1018 [0x01] GOTO 0x104F
634: 0x101B [0x02] IF !(ExtData[1]->WorkLocal[21] == 8*) GOTO 0x1035
635: 0x1023 [0x03] Work_Zone_1700[0] = ExtData[1]->WorkLocal[23]
636: 0x1028 [0x03] Work_Zone_1700[10] = ExtData[1]->WorkLocal[54]
637: 0x102D [0x15] Work_Zone_1700[10] /= 10*
638: 0x1032 [0x01] GOTO 0x104F
639: 0x1035 [0x02] IF !(ExtData[1]->WorkLocal[21] == 9*) GOTO 0x104F
640: 0x103D [0x03] Work_Zone_1700[1] = ExtData[1]->WorkLocal[23]
641: 0x1042 [0x03] Work_Zone_1700[11] = ExtData[1]->WorkLocal[54]
642: 0x1047 [0x15] Work_Zone_1700[11] /= 10*
643: 0x104C [0x01] GOTO 0x104F

SUBROUTINE_104F:
644: 0x104F [0x0B] ExtData[1]->WorkLocal[21]++
645: 0x1052 [0x02] IF !(ExtData[1]->WorkLocal[21] > 10*) GOTO 0x105F
646: 0x105A [0x07] ExtData[1]->WorkLocal[23] += 7200*
647: 0x105F [0x0B] ExtData[1]->WorkLocal[20]++
648: 0x1062 [0x01] GOTO 0x0EF5
649: 0x1065 [0x03] ExtData[1]->WorkLocal[10] = 2047*
650: 0x106A [0x0C] ExtData[1]->WorkLocal[21]--

SUBROUTINE_106D:
651: 0x106D [0x02] IF !(ExtData[1]->WorkLocal[21] < 0*) GOTO 0x1082
652: 0x1075 [0x3D] CLEAR_BIT_FLAG_CONDITIONAL(target_work_offset=ExtData[1]->WorkLocal[10], bit_index_work_offset=ExtData[1]->WorkLocal[21], condition_work_offset=1*)
653: 0x107C [0x0C] ExtData[1]->WorkLocal[21]--
654: 0x107F [0x01] GOTO 0x106D
655: 0x1082 [0x24] CREATE_DIALOG(message_id=8596*, default_option=ExtData[1]->WorkLocal[11], option_flags=ExtData[1]->WorkLocal[10])
    → "Select for more information... [, [ / / /Lv. 30/Lv. 40/Lv. 50/Lv. 60/Lv. $7]/, [ / / /Lv. 30/Lv. 40/Lv. 50/Lv. 60/Lv. $794668[ / / /Lv. 30/Lv. 40/Lv. 50/Lv. 60/Lv. $7]/, [ / / /Lv. 30/Lv. 40/Lv. 50/Lv. 60/Lv. $7]/, [ / / /Lv. 30/Lv. 40/Lv. 50/Lv. 60/Lv. $7]/, [ / / /Lv. 30/Lv. 40/Lv. 50/Lv. 60/Lv. $7]/, [ / / /Lv. 30/Lv. 40/Lv. 50/Lv. 60/Lv. $7]/, [ / / /Lv. 30/Lv. 40/Lv. 50/Lv. 60/Lv. $7]/, [ / / /Lv. 30/Lv. 40/Lv. 50/Lv. 60/Lv. $7]/, [ / / /Lv. 30/Lv. 40/Lv. 50/Lv. 60/Lv. $7]/Next./Return.]"
656: 0x1089 [0x25] WAIT_DIALOG_SELECT()
657: 0x108A [0x03] ExtData[1]->WorkLocal[11] = Work_Zone[0]
658: 0x108F [0x02] IF !(Work_Zone[0] == 10*) GOTO 0x10A7
659: 0x1097 [0x03] ExtData[1]->WorkLocal[53] = ExtData[1]->WorkLocal[23]
660: 0x109C [0x03] ExtData[1]->WorkLocal[11] = 0*
661: 0x10A1 [0x01] GOTO 0x0EEA

SUBROUTINE_1152:
