# 17776684 - Bozz

## Common Data

| Field            | Value                 |
|------------------|-----------------------|
| Zone             | Upper Jeuno (ID: 244) |
| Block Size       | 392 bytes             |
| Total Events     | 8                     |
| References Count | 8                     |

## List of Events

| Event ID              | Entrypoint   |   Size |   Instructions |
|-----------------------|--------------|--------|----------------|
| [65535](#event-65535) | 0x0000       |      1 |              1 |
| [10](#event-10)       | 0x0001       |      1 |              1 |
| [207](#event-207)     | 0x0002       |      1 |              1 |
| [35](#event-35)       | 0x0003       |     60 |             10 |
| [41](#event-41)       | 0x003F       |     64 |             12 |
| [40](#event-40)       | 0x007F       |     64 |             12 |
| [77](#event-77)       | 0x00BF       |     60 |             10 |
| [78](#event-78)       | 0x00FB       |     60 |             10 |

## DAT References (imed_data)

|   Index | Hex Value   |   Dec Value |
|---------|-------------|-------------|
|       0 | 0x005A      |          90 |
|       1 | 0x1DB5      |        7605 |
|       2 | 0x1DB6      |        7606 |
|       3 | 0x1DB7      |        7607 |
|       4 | 0x1DB8      |        7608 |
|       5 | 0x1DB9      |        7609 |
|       6 | 0x1DBA      |        7610 |
|       7 | 0x1DBB      |        7611 |

## String References

- **7605**: I've never lost a fight here. This town is full of wimps!
- **7606**: How dare that Panta send me a challenge! I bet he's still fuming over that beating I gave him.
- **7607**: I wonder what Panta's gonna bring this time. Eh, won't help that pipsqueak anyway.
- **7608**: Hah! That Panta's still at it.. Well, I don't care. He'll never beat me with this kind of stuff!
- **7609**: Oh, yeah. The Goblins were carrying Panta's Cardian to the doctor's. I wonder what's going on...
- **7610**: Panta never cries after he loses a fight, but he was bawling after he left the doctor's. Maybe he had a cavity?
- **7611**: Panta said he's gonna give up fighting. Geez, what a coward! I think I'm gonna miss him.

## Events

### Event 65535

#### Metadata

| Field        | Value   |
|--------------|---------|
| Entrypoint   | 0x0000  |
| Data Size    | 1 bytes |
| Instructions | 1       |

```
      00 01 02 03 04 05 06 07  08 09 0A 0B 0C 0D 0E 0F
      -- -- -- -- -- -- -- --  -- -- -- -- -- -- -- --
0000: 00                                                .               
```

#### Opcodes

```
  0: 0x0000 [0x00] END_REQSTACK()
```

### Event 10

#### Metadata

| Field        | Value   |
|--------------|---------|
| Entrypoint   | 0x0001  |
| Data Size    | 1 bytes |
| Instructions | 1       |

```
      00 01 02 03 04 05 06 07  08 09 0A 0B 0C 0D 0E 0F
      -- -- -- -- -- -- -- --  -- -- -- -- -- -- -- --
0000:    00                                              .              
```

#### Opcodes

```
  0: 0x0001 [0x00] END_REQSTACK()
```

### Event 207

#### Metadata

| Field        | Value   |
|--------------|---------|
| Entrypoint   | 0x0002  |
| Data Size    | 1 bytes |
| Instructions | 1       |

```
      00 01 02 03 04 05 06 07  08 09 0A 0B 0C 0D 0E 0F
      -- -- -- -- -- -- -- --  -- -- -- -- -- -- -- --
0000:       00                                            .             
```

#### Opcodes

```
  0: 0x0002 [0x00] END_REQSTACK()
```

### Event 35

#### Metadata

| Field        | Value    |
|--------------|----------|
| Entrypoint   | 0x0003   |
| Data Size    | 60 bytes |
| Instructions | 10       |

```
      00 01 02 03 04 05 06 07  08 09 0A 0B 0C 0D 0E 0F
      -- -- -- -- -- -- -- --  -- -- -- -- -- -- -- --
0000:          1E F0 FF FF 7F  6F 76 F8 FF FF 7F 5B 00     .....ov....[.
0010: 80 F8 FF FF 7F F8 FF FF  7F 74 6C 6B 30 1D 01 80  .........tlk0...
0020: 23 5B 00 80 F8 FF FF 7F  F8 FF FF 7F 74 6C 6B 31  #[..........tlk1
0030: 53 F8 FF FF 7F F8 FF FF  7F 74 6C 6B 31 21 00     S........tlk1!. 
```

#### Opcodes

```
  0: 0x0003 [0x1E] EventEntity looks at LocalPlayer and starts talking
  1: 0x0008 [0x6F] WAIT_FRAME_DELAY: Yield until WaitTime reaches zero
  2: 0x0009 [0x76] CHECK_ENTITY_RENDER_FLAGS: Wait until EventEntity Render.Flags0 and Render.Flags3 conditions are met
  3: 0x000E [0x5B] LOAD_EXT_SCHEDULER: Load scheduler "tlk0" with entities [EventEntity, EventEntity], work=90*
  4: 0x001D [0x1D] PRINT_EVENT_MESSAGE(message_id=7605*)
    → "I've never lost a fight here. This town is full of wimps!"
  5: 0x0020 [0x23] WAIT_FOR_DIALOG_INTERACTION
  6: 0x0021 [0x5B] LOAD_EXT_SCHEDULER: Load scheduler "tlk1" with entities [EventEntity, EventEntity], work=90*
  7: 0x0030 [0x53] WAIT_SCHEDULER_TASK: Wait for scheduler "tlk1" with entities [EventEntity, EventEntity]
  8: 0x003D [0x21] END_EVENT
  9: 0x003E [0x00] END_REQSTACK()
```

### Event 41

#### Metadata

| Field        | Value    |
|--------------|----------|
| Entrypoint   | 0x003F   |
| Data Size    | 64 bytes |
| Instructions | 12       |

```
      00 01 02 03 04 05 06 07  08 09 0A 0B 0C 0D 0E 0F
      -- -- -- -- -- -- -- --  -- -- -- -- -- -- -- --
0030:                                               1E                 .
0040: F0 FF FF 7F 6F 76 F8 FF  FF 7F 5B 00 80 F8 FF FF  ....ov....[.....
0050: 7F F8 FF FF 7F 74 68 6B  31 1D 02 80 23 5B 00 80  .....thk1...#[..
0060: F8 FF FF 7F F8 FF FF 7F  74 68 6B 32 53 F8 FF FF  ........thk2S...
0070: 7F F8 FF FF 7F 74 68 6B  32 1D 03 80 23 21 00     .....thk2...#!. 
```

#### Opcodes

```
  0: 0x003F [0x1E] EventEntity looks at LocalPlayer and starts talking
  1: 0x0044 [0x6F] WAIT_FRAME_DELAY: Yield until WaitTime reaches zero
  2: 0x0045 [0x76] CHECK_ENTITY_RENDER_FLAGS: Wait until EventEntity Render.Flags0 and Render.Flags3 conditions are met
  3: 0x004A [0x5B] LOAD_EXT_SCHEDULER: Load scheduler "thk1" with entities [EventEntity, EventEntity], work=90*
  4: 0x0059 [0x1D] PRINT_EVENT_MESSAGE(message_id=7606*)
    → "How dare that Panta send me a challenge! I bet he's still fuming over that beating I gave him."
  5: 0x005C [0x23] WAIT_FOR_DIALOG_INTERACTION
  6: 0x005D [0x5B] LOAD_EXT_SCHEDULER: Load scheduler "thk2" with entities [EventEntity, EventEntity], work=90*
  7: 0x006C [0x53] WAIT_SCHEDULER_TASK: Wait for scheduler "thk2" with entities [EventEntity, EventEntity]
  8: 0x0079 [0x1D] PRINT_EVENT_MESSAGE(message_id=7607*)
    → "I wonder what Panta's gonna bring this time. Eh, won't help that pipsqueak anyway."
  9: 0x007C [0x23] WAIT_FOR_DIALOG_INTERACTION
 10: 0x007D [0x21] END_EVENT
 11: 0x007E [0x00] END_REQSTACK()
```

### Event 40

#### Metadata

| Field        | Value    |
|--------------|----------|
| Entrypoint   | 0x007F   |
| Data Size    | 64 bytes |
| Instructions | 12       |

```
      00 01 02 03 04 05 06 07  08 09 0A 0B 0C 0D 0E 0F
      -- -- -- -- -- -- -- --  -- -- -- -- -- -- -- --
0070:                                               1E                 .
0080: F0 FF FF 7F 6F 76 F8 FF  FF 7F 5B 00 80 F8 FF FF  ....ov....[.....
0090: 7F F8 FF FF 7F 74 6C 6B  30 1D 04 80 23 1D 05 80  .....tlk0...#...
00A0: 23 5B 00 80 F8 FF FF 7F  F8 FF FF 7F 74 6C 6B 31  #[..........tlk1
00B0: 53 F8 FF FF 7F F8 FF FF  7F 74 6C 6B 31 21 00     S........tlk1!. 
```

#### Opcodes

```
  0: 0x007F [0x1E] EventEntity looks at LocalPlayer and starts talking
  1: 0x0084 [0x6F] WAIT_FRAME_DELAY: Yield until WaitTime reaches zero
  2: 0x0085 [0x76] CHECK_ENTITY_RENDER_FLAGS: Wait until EventEntity Render.Flags0 and Render.Flags3 conditions are met
  3: 0x008A [0x5B] LOAD_EXT_SCHEDULER: Load scheduler "tlk0" with entities [EventEntity, EventEntity], work=90*
  4: 0x0099 [0x1D] PRINT_EVENT_MESSAGE(message_id=7608*)
    → "Hah! That Panta's still at it.. Well, I don't care. He'll never beat me with this kind of stuff!"
  5: 0x009C [0x23] WAIT_FOR_DIALOG_INTERACTION
  6: 0x009D [0x1D] PRINT_EVENT_MESSAGE(message_id=7609*)
    → "Oh, yeah. The Goblins were carrying Panta's Cardian to the doctor's. I wonder what's going on..."
  7: 0x00A0 [0x23] WAIT_FOR_DIALOG_INTERACTION
  8: 0x00A1 [0x5B] LOAD_EXT_SCHEDULER: Load scheduler "tlk1" with entities [EventEntity, EventEntity], work=90*
  9: 0x00B0 [0x53] WAIT_SCHEDULER_TASK: Wait for scheduler "tlk1" with entities [EventEntity, EventEntity]
 10: 0x00BD [0x21] END_EVENT
 11: 0x00BE [0x00] END_REQSTACK()
```

### Event 77

#### Metadata

| Field        | Value    |
|--------------|----------|
| Entrypoint   | 0x00BF   |
| Data Size    | 60 bytes |
| Instructions | 10       |

```
      00 01 02 03 04 05 06 07  08 09 0A 0B 0C 0D 0E 0F
      -- -- -- -- -- -- -- --  -- -- -- -- -- -- -- --
00B0:                                               1E                 .
00C0: F0 FF FF 7F 6F 76 F8 FF  FF 7F 5B 00 80 F8 FF FF  ....ov....[.....
00D0: 7F F8 FF FF 7F 74 6C 6B  30 1D 06 80 23 5B 00 80  .....tlk0...#[..
00E0: F8 FF FF 7F F8 FF FF 7F  74 6C 6B 31 53 F8 FF FF  ........tlk1S...
00F0: 7F F8 FF FF 7F 74 6C 6B  31 21 00                 .....tlk1!.     
```

#### Opcodes

```
  0: 0x00BF [0x1E] EventEntity looks at LocalPlayer and starts talking
  1: 0x00C4 [0x6F] WAIT_FRAME_DELAY: Yield until WaitTime reaches zero
  2: 0x00C5 [0x76] CHECK_ENTITY_RENDER_FLAGS: Wait until EventEntity Render.Flags0 and Render.Flags3 conditions are met
  3: 0x00CA [0x5B] LOAD_EXT_SCHEDULER: Load scheduler "tlk0" with entities [EventEntity, EventEntity], work=90*
  4: 0x00D9 [0x1D] PRINT_EVENT_MESSAGE(message_id=7610*)
    → "Panta never cries after he loses a fight, but he was bawling after he left the doctor's. Maybe he had a cavity?"
  5: 0x00DC [0x23] WAIT_FOR_DIALOG_INTERACTION
  6: 0x00DD [0x5B] LOAD_EXT_SCHEDULER: Load scheduler "tlk1" with entities [EventEntity, EventEntity], work=90*
  7: 0x00EC [0x53] WAIT_SCHEDULER_TASK: Wait for scheduler "tlk1" with entities [EventEntity, EventEntity]
  8: 0x00F9 [0x21] END_EVENT
  9: 0x00FA [0x00] END_REQSTACK()
```

### Event 78

#### Metadata

| Field        | Value    |
|--------------|----------|
| Entrypoint   | 0x00FB   |
| Data Size    | 60 bytes |
| Instructions | 10       |

```
      00 01 02 03 04 05 06 07  08 09 0A 0B 0C 0D 0E 0F
      -- -- -- -- -- -- -- --  -- -- -- -- -- -- -- --
00F0:                                   1E F0 FF FF 7F             .....
0100: 6F 76 F8 FF FF 7F 5B 00  80 F8 FF FF 7F F8 FF FF  ov....[.........
0110: 7F 74 68 6B 31 1D 07 80  23 5B 00 80 F8 FF FF 7F  .thk1...#[......
0120: F8 FF FF 7F 74 68 6B 32  53 F8 FF FF 7F F8 FF FF  ....thk2S.......
0130: 7F 74 68 6B 32 21 00                              .thk2!.         
```

#### Opcodes

```
  0: 0x00FB [0x1E] EventEntity looks at LocalPlayer and starts talking
  1: 0x0100 [0x6F] WAIT_FRAME_DELAY: Yield until WaitTime reaches zero
  2: 0x0101 [0x76] CHECK_ENTITY_RENDER_FLAGS: Wait until EventEntity Render.Flags0 and Render.Flags3 conditions are met
  3: 0x0106 [0x5B] LOAD_EXT_SCHEDULER: Load scheduler "thk1" with entities [EventEntity, EventEntity], work=90*
  4: 0x0115 [0x1D] PRINT_EVENT_MESSAGE(message_id=7611*)
    → "Panta said he's gonna give up fighting. Geez, what a coward! I think I'm gonna miss him."
  5: 0x0118 [0x23] WAIT_FOR_DIALOG_INTERACTION
  6: 0x0119 [0x5B] LOAD_EXT_SCHEDULER: Load scheduler "thk2" with entities [EventEntity, EventEntity], work=90*
  7: 0x0128 [0x53] WAIT_SCHEDULER_TASK: Wait for scheduler "thk2" with entities [EventEntity, EventEntity]
  8: 0x0135 [0x21] END_EVENT
  9: 0x0136 [0x00] END_REQSTACK()
```
