# 17776817 - Chocobo

## Common Data

| Field            | Value                 |
|------------------|-----------------------|
| Zone             | Upper Jeuno (ID: 244) |
| Block Size       | 1360 bytes            |
| Total Events     | 29                    |
| References Count | 137                   |

## List of Events

| Event ID                   | Entrypoint   |   Size |   Instructions |
|----------------------------|--------------|--------|----------------|
| [65535](#event-65535)      | 0x0000       |      1 |              1 |
| [10100](#event-10100)      | 0x0001       |      1 |              1 |
| [65535.1](#event-655351)   | 0x0002       |     15 |              3 |
| [65535.2](#event-655352)   | 0x0011       |     14 |              4 |
| [65535.3](#event-655353)   | 0x001F       |     31 |              7 |
| [65535.4](#event-655354)   | 0x003E       |     29 |              7 |
| [65535.5](#event-655355)   | 0x005B       |     41 |              9 |
| [65535.6](#event-655356)   | 0x0084       |     41 |              9 |
| [10102](#event-10102)      | 0x00AD       |      1 |              1 |
| [65535.7](#event-655357)   | 0x00AE       |     51 |              6 |
| [65535.8](#event-655358)   | 0x00E1       |     10 |              2 |
| [65535.9](#event-655359)   | 0x00EB       |     14 |              4 |
| [65535.10](#event-6553510) | 0x00F9       |     24 |              6 |
| [65535.11](#event-6553511) | 0x0111       |     24 |              6 |
| [65535.12](#event-6553512) | 0x0129       |     64 |             14 |
| [65535.13](#event-6553513) | 0x0169       |     24 |              6 |
| [65535.14](#event-6553514) | 0x0181       |     10 |              2 |
| [65535.15](#event-6553515) | 0x018B       |     56 |              8 |
| [65535.16](#event-6553516) | 0x01C3       |     10 |              2 |
| [65535.17](#event-6553517) | 0x01CD       |     24 |              6 |
| [65535.18](#event-6553518) | 0x01E5       |     54 |             12 |
| [65535.19](#event-6553519) | 0x021B       |     10 |              2 |
| [65535.20](#event-6553520) | 0x0225       |     14 |              4 |
| [65535.21](#event-6553521) | 0x0233       |     10 |              2 |
| [65535.22](#event-6553522) | 0x023D       |     24 |              6 |
| [65535.23](#event-6553523) | 0x0255       |     28 |              6 |
| [65535.24](#event-6553524) | 0x0271       |     10 |              2 |
| [65535.25](#event-6553525) | 0x027B       |     14 |              4 |
| [65535.26](#event-6553526) | 0x0289       |     28 |              6 |

## DAT References (imed_data)

|   Index | Hex Value   |   Dec Value |
|---------|-------------|-------------|
|       0 | 0xFFFF46A5  |  4294919845 |
|       1 | 0x1476D     |       83821 |
|       2 | 0x14D4      |        5332 |
|       3 | 0x0F55      |        3925 |
|       4 | 0x0014      |          20 |
|       5 | 0xFFFF5ED1  |  4294926033 |
|       6 | 0x1545B     |       87131 |
|       7 | 0x1F3F      |        7999 |
|       8 | 0x003C      |          60 |
|       9 | 0xFFFF4DDB  |  4294921691 |
|      10 | 0x16F1F     |       93983 |
|      11 | 0xFFFF4489  |  4294919305 |
|      12 | 0x176C7     |       95943 |
|      13 | 0x1F83      |        8067 |
|      14 | 0xFFFF2FD8  |  4294914008 |
|      15 | 0x16BC6     |       93126 |
|      16 | 0x2007      |        8199 |
|      17 | 0xFFFF373A  |  4294915898 |
|      18 | 0x15112     |       86290 |
|      19 | 0xFFFF18A4  |  4294908068 |
|      20 | 0x15AA9     |       88745 |
|      21 | 0xFFFF22E8  |  4294910696 |
|      22 | 0x167DE     |       92126 |
|      23 | 0x0000      |           0 |
|      24 | 0x0002      |           2 |
|      25 | 0x0003      |           3 |
|      26 | 0x0005      |           5 |
|      27 | 0x0006      |           6 |
|      28 | 0x0008      |           8 |
|      29 | 0x0009      |           9 |
|      30 | 0x000B      |          11 |
|      31 | 0x0001      |           1 |
|      32 | 0xFFFABF63  |  4294623075 |
|      33 | 0xFFFF3085  |  4294914181 |
|      34 | 0xFFFFFDFF  |  4294966783 |
|      35 | 0x07F0      |        2032 |
|      36 | 0x001B      |          27 |
|      37 | 0xFFFAA5CD  |  4294616525 |
|      38 | 0xFFFF315A  |  4294914394 |
|      39 | 0xFFFFFC8B  |  4294966411 |
|      40 | 0x0046      |          70 |
|      41 | 0xFFFA67DD  |  4294600669 |
|      42 | 0xFFFF3D02  |  4294917378 |
|      43 | 0x00A8      |         168 |
|      44 | 0xFFFA68FF  |  4294600959 |
|      45 | 0xFFFF3E30  |  4294917680 |
|      46 | 0x00A0      |         160 |
|      47 | 0xFFFA1EAA  |  4294581930 |
|      48 | 0xFFFF2257  |  4294910551 |
|      49 | 0x0111      |         273 |
|      50 | 0xFFFA1E61  |  4294581857 |
|      51 | 0xFFFF205C  |  4294910044 |
|      52 | 0x00F3      |         243 |
|      53 | 0xFFFA1DF5  |  4294581749 |
|      54 | 0xFFFF0B5C  |  4294904668 |
|      55 | 0x008F      |         143 |
|      56 | 0x0038      |          56 |
|      57 | 0xFFFA2F18  |  4294586136 |
|      58 | 0xFFFF0C8E  |  4294904974 |
|      59 | 0x0102      |         258 |
|      60 | 0xFFFA304D  |  4294586445 |
|      61 | 0xFFFF0CBF  |  4294905023 |
|      62 | 0x0118      |         280 |
|      63 | 0xFFFA47D2  |  4294592466 |
|      64 | 0xFFFF0DD6  |  4294905302 |
|      65 | 0x0194      |         404 |
|      66 | 0xFFFA4944  |  4294592836 |
|      67 | 0xFFFF0C6F  |  4294904943 |
|      68 | 0x018C      |         396 |
|      69 | 0xFFFA60EB  |  4294598891 |
|      70 | 0xFFFF0BF3  |  4294904819 |
|      71 | 0x01B7      |         439 |
|      72 | 0xFFFA614E  |  4294598990 |
|      73 | 0xFFFF0ADF  |  4294904543 |
|      74 | 0x01B0      |         432 |
|      75 | 0xFFFF44A9  |  4294919337 |
|      76 | 0x17BF1     |       97265 |
|      77 | 0x1F3D      |        7997 |
|      78 | 0x05ED      |        1517 |
|      79 | 0xFFFF34CE  |  4294915278 |
|      80 | 0x16D0D     |       93453 |
|      81 | 0x001E      |          30 |
|      82 | 0x0090      |         144 |
|      83 | 0x00FB      |         251 |
|      84 | 0x52A9      |       21161 |
|      85 | 0xFFF4A1DB  |  4294222299 |
|      86 | 0xFFFFE8D1  |  4294961361 |
|      87 | 0x0C04      |        3076 |
|      88 | 0x5413      |       21523 |
|      89 | 0xFFF50766  |  4294248294 |
|      90 | 0xFFFFEF9B  |  4294963099 |
|      91 | 0x3BF8      |       15352 |
|      92 | 0xFFF53BB9  |  4294261689 |
|      93 | 0xFFFFF32A  |  4294964010 |
|      94 | 0x2B65      |       11109 |
|      95 | 0xFFF54ABA  |  4294265530 |
|      96 | 0xFFFFF314  |  4294963988 |
|      97 | 0x105C      |        4188 |
|      98 | 0xFFF5540C  |  4294267916 |
|      99 | 0xFFFFF0B3  |  4294963379 |
|     100 | 0xFFFFE029  |  4294959145 |
|     101 | 0xFFF55A51  |  4294269521 |
|     102 | 0xFFFFF3BA  |  4294964154 |
|     103 | 0xFFFFCA5B  |  4294953563 |
|     104 | 0xFFF56F42  |  4294274882 |
|     105 | 0xFFFFF430  |  4294964272 |
|     106 | 0xFFFFB5A5  |  4294948261 |
|     107 | 0xFFF58D98  |  4294282648 |
|     108 | 0xFFFFF37D  |  4294964093 |
|     109 | 0x41BB0     |      269232 |
|     110 | 0xFFFC402A  |  4294721578 |
|     111 | 0xFFFF8359  |  4294935385 |
|     112 | 0x0627      |        1575 |
|     113 | 0x40FBF     |      266175 |
|     114 | 0xFFFC34BD  |  4294718653 |
|     115 | 0xFFFF8608  |  4294936072 |
|     116 | 0xFFFF44CC  |  4294919372 |
|     117 | 0x19FBD     |      106429 |
|     118 | 0x0E37      |        3639 |
|     119 | 0xFFFF4DE5  |  4294921701 |
|     120 | 0x1A781     |      108417 |
|     121 | 0xFFFF15D3  |  4294907347 |
|     122 | 0x43B0      |       17328 |
|     123 | 0x03E8      |        1000 |
|     124 | 0x071D      |        1821 |
|     125 | 0xFFFF04A9  |  4294902953 |
|     126 | 0x39A5      |       14757 |
|     127 | 0xFFFFE091  |  4294959249 |
|     128 | 0x09ED      |        2541 |
|     129 | 0x06C9      |        1737 |
|     130 | 0xFFFFD427  |  4294956071 |
|     131 | 0x02EF      |         751 |
|     132 | 0xFFFED5B1  |  4294890929 |
|     133 | 0xFFFE44C2  |  4294853826 |
|     134 | 0x08FA      |        2298 |
|     135 | 0xFFFEC1BF  |  4294885823 |
|     136 | 0xFFFE49F9  |  4294855161 |

## Events

### Event 65535

#### Metadata

| Field        | Value   |
|--------------|---------|
| Entrypoint   | 0x0000  |
| Data Size    | 1 bytes |
| Instructions | 1       |

```
      00 01 02 03 04 05 06 07  08 09 0A 0B 0C 0D 0E 0F
      -- -- -- -- -- -- -- --  -- -- -- -- -- -- -- --
0000: 00                                                .               
```

#### Opcodes

```
  0: 0x0000 [0x00] END_REQSTACK()
```

### Event 10100

#### Metadata

| Field        | Value   |
|--------------|---------|
| Entrypoint   | 0x0001  |
| Data Size    | 1 bytes |
| Instructions | 1       |

```
      00 01 02 03 04 05 06 07  08 09 0A 0B 0C 0D 0E 0F
      -- -- -- -- -- -- -- --  -- -- -- -- -- -- -- --
0000:    00                                              .              
```

#### Opcodes

```
  0: 0x0001 [0x00] END_REQSTACK()
```

### Event 65535.1

#### Metadata

| Field        | Value    |
|--------------|----------|
| Entrypoint   | 0x0002   |
| Data Size    | 15 bytes |
| Instructions | 3        |

```
      00 01 02 03 04 05 06 07  08 09 0A 0B 0C 0D 0E 0F
      -- -- -- -- -- -- -- --  -- -- -- -- -- -- -- --
0000:       37 00 80 01 80 02  80 03 80 80 F8 FF FF 7F    7.............
0010: 00                                                .               
```

#### Opcodes

```
  0: 0x0002 [0x37] UPDATE_EVENT_POSITION_AND_DIR: x=-47.451*, z=83.821*, y=5.332*, direction=345.0°*
  1: 0x000B [0x80] LOAD_WAIT(entity=EventEntity)
  2: 0x0010 [0x00] END_REQSTACK()
```

### Event 65535.2

#### Metadata

| Field        | Value    |
|--------------|----------|
| Entrypoint   | 0x0011   |
| Data Size    | 14 bytes |
| Instructions | 4        |

```
      00 01 02 03 04 05 06 07  08 09 0A 0B 0C 0D 0E 0F
      -- -- -- -- -- -- -- --  -- -- -- -- -- -- -- --
0010:    32 04 80 1F 00 05 80  06 80 07 80 1F 01 00      2............. 
```

#### Opcodes

```
  0: 0x0011 [0x32] ExtData[1]->MainSpeed = 20* * 0.1
  1: 0x0014 [0x1F] MOVE_ENTITY: EventEntity moves to X=-41.263*, Z=87.131*, Y=7.999*
  2: 0x001C [0x1F] MOVE_ENTITY: Update entity position (mode=1)
  3: 0x001E [0x00] END_REQSTACK()
```

### Event 65535.3

#### Metadata

| Field        | Value    |
|--------------|----------|
| Entrypoint   | 0x001F   |
| Data Size    | 31 bytes |
| Instructions | 7        |

```
      00 01 02 03 04 05 06 07  08 09 0A 0B 0C 0D 0E 0F
      -- -- -- -- -- -- -- --  -- -- -- -- -- -- -- --
0010:                                               32                 2
0020: 08 80 1F 00 09 80 0A 80  07 80 1F 01 1E B0 40 0F  ..............@.
0030: 01 4A B0 40 0F 01 B1 40  0F 01 1C 08 80 00        .J.@...@......  
```

#### Opcodes

```
  0: 0x001F [0x32] ExtData[1]->MainSpeed = 60* * 0.1
  1: 0x0022 [0x1F] MOVE_ENTITY: EventEntity moves to X=-45.605*, Z=93.983*, Y=7.999*
  2: 0x002A [0x1F] MOVE_ENTITY: Update entity position (mode=1)
  3: 0x002C [0x1E] EventEntity looks at Chocobo (ID: 17776816/0x010F40B0) and starts talking
  4: 0x0031 [0x4A] Chocobo (ID: 17776816/0x010F40B0) looks at Chocobo (ID: 17776817/0x010F40B1)
  5: 0x003A [0x1C] WAIT(60* ticks)
  6: 0x003D [0x00] END_REQSTACK()
```

### Event 65535.4

#### Metadata

| Field        | Value    |
|--------------|----------|
| Entrypoint   | 0x003E   |
| Data Size    | 29 bytes |
| Instructions | 7        |

```
      00 01 02 03 04 05 06 07  08 09 0A 0B 0C 0D 0E 0F
      -- -- -- -- -- -- -- --  -- -- -- -- -- -- -- --
0030:                                            32 08                2.
0040: 80 1F 00 0B 80 0C 80 0D  80 1F 01 1F 00 0E 80 0F  ................
0050: 80 10 80 1F 01 1E B0 40  0F 01 00                 .......@...     
```

#### Opcodes

```
  0: 0x003E [0x32] ExtData[1]->MainSpeed = 60* * 0.1
  1: 0x0041 [0x1F] MOVE_ENTITY: EventEntity moves to X=-47.991*, Z=95.943*, Y=8.067*
  2: 0x0049 [0x1F] MOVE_ENTITY: Update entity position (mode=1)
  3: 0x004B [0x1F] MOVE_ENTITY: EventEntity moves to X=-53.288*, Z=93.126*, Y=8.199*
  4: 0x0053 [0x1F] MOVE_ENTITY: Update entity position (mode=1)
  5: 0x0055 [0x1E] EventEntity looks at Chocobo (ID: 17776816/0x010F40B0) and starts talking
  6: 0x005A [0x00] END_REQSTACK()
```

### Event 65535.5

#### Metadata

| Field        | Value    |
|--------------|----------|
| Entrypoint   | 0x005B   |
| Data Size    | 41 bytes |
| Instructions | 9        |

```
      00 01 02 03 04 05 06 07  08 09 0A 0B 0C 0D 0E 0F
      -- -- -- -- -- -- -- --  -- -- -- -- -- -- -- --
0050:                                   32 08 80 1F 00             2....
0060: 11 80 12 80 10 80 1F 01  1F 00 13 80 14 80 10 80  ................
0070: 1F 01 1F 00 15 80 16 80  10 80 1F 01 27 05 B1 40  ............'..@
0080: 0F 01 07 00                                       ....            
```

#### Opcodes

```
  0: 0x005B [0x32] ExtData[1]->MainSpeed = 60* * 0.1
  1: 0x005E [0x1F] MOVE_ENTITY: EventEntity moves to X=-51.398*, Z=86.290*, Y=8.199*
  2: 0x0066 [0x1F] MOVE_ENTITY: Update entity position (mode=1)
  3: 0x0068 [0x1F] MOVE_ENTITY: EventEntity moves to X=-59.228*, Z=88.745*, Y=8.199*
  4: 0x0070 [0x1F] MOVE_ENTITY: Update entity position (mode=1)
  5: 0x0072 [0x1F] MOVE_ENTITY: EventEntity moves to X=-56.600*, Z=92.126*, Y=8.199*
  6: 0x007A [0x1F] MOVE_ENTITY: Update entity position (mode=1)
  7: 0x007C [0x27] REQ_SET(priority=0x05, entity_id=Chocobo (ID: 17776817/0x010F40B1), tag_num=0x07)
  8: 0x0083 [0x00] END_REQSTACK()
```

### Event 65535.6

#### Metadata

| Field        | Value    |
|--------------|----------|
| Entrypoint   | 0x0084   |
| Data Size    | 41 bytes |
| Instructions | 9        |

```
      00 01 02 03 04 05 06 07  08 09 0A 0B 0C 0D 0E 0F
      -- -- -- -- -- -- -- --  -- -- -- -- -- -- -- --
0080:             32 08 80 1F  00 11 80 12 80 10 80 1F      2...........
0090: 01 1F 00 13 80 14 80 10  80 1F 01 1F 00 15 80 16  ................
00A0: 80 10 80 1F 01 27 05 B1  40 0F 01 06 00           .....'..@....   
```

#### Opcodes

```
  0: 0x0084 [0x32] ExtData[1]->MainSpeed = 60* * 0.1
  1: 0x0087 [0x1F] MOVE_ENTITY: EventEntity moves to X=-51.398*, Z=86.290*, Y=8.199*
  2: 0x008F [0x1F] MOVE_ENTITY: Update entity position (mode=1)
  3: 0x0091 [0x1F] MOVE_ENTITY: EventEntity moves to X=-59.228*, Z=88.745*, Y=8.199*
  4: 0x0099 [0x1F] MOVE_ENTITY: Update entity position (mode=1)
  5: 0x009B [0x1F] MOVE_ENTITY: EventEntity moves to X=-56.600*, Z=92.126*, Y=8.199*
  6: 0x00A3 [0x1F] MOVE_ENTITY: Update entity position (mode=1)
  7: 0x00A5 [0x27] REQ_SET(priority=0x05, entity_id=Chocobo (ID: 17776817/0x010F40B1), tag_num=0x06)
  8: 0x00AC [0x00] END_REQSTACK()
```

### Event 10102

#### Metadata

| Field        | Value   |
|--------------|---------|
| Entrypoint   | 0x00AD  |
| Data Size    | 1 bytes |
| Instructions | 1       |

```
      00 01 02 03 04 05 06 07  08 09 0A 0B 0C 0D 0E 0F
      -- -- -- -- -- -- -- --  -- -- -- -- -- -- -- --
00A0:                                         00                     .  
```

#### Opcodes

```
  0: 0x00AD [0x00] END_REQSTACK()
```

### Event 65535.7

#### Metadata

| Field        | Value    |
|--------------|----------|
| Entrypoint   | 0x00AE   |
| Data Size    | 51 bytes |
| Instructions | 6        |

```
      00 01 02 03 04 05 06 07  08 09 0A 0B 0C 0D 0E 0F
      -- -- -- -- -- -- -- --  -- -- -- -- -- -- -- --
00A0:                                            41 17                A.
00B0: 80 18 80 04 10 07 10 41  19 80 1A 80 04 10 08 10  .......A........
00C0: 41 1B 80 1C 80 04 10 09  10 41 1D 80 1E 80 04 10  A........A......
00D0: 05 10 B6 0D 17 80 05 10  1F 80 07 10 08 10 09 10  ................
00E0: 00                                                .               
```

#### Opcodes

```
  0: 0x00AE [0x41] Work_Zone[7] = Work_Zone[4] (bits 0*-2*)
  1: 0x00B7 [0x41] Work_Zone[8] = Work_Zone[4] (bits 3*-5*)
  2: 0x00C0 [0x41] Work_Zone[9] = Work_Zone[4] (bits 6*-8*)
  3: 0x00C9 [0x41] Work_Zone[5] = Work_Zone[4] (bits 9*-11*)
  4: 0x00D2 [0xB6] ENTITY_APPEARANCE_HANDLER(case=Look with Render flags, race=0*, face=Work_Zone[5], head=1*, body=Work_Zone[7], hands=Work_Zone[8], render_flags=0x1009)
  5: 0x00E0 [0x00] END_REQSTACK()
```

### Event 65535.8

#### Metadata

| Field        | Value    |
|--------------|----------|
| Entrypoint   | 0x00E1   |
| Data Size    | 10 bytes |
| Instructions | 2        |

```
      00 01 02 03 04 05 06 07  08 09 0A 0B 0C 0D 0E 0F
      -- -- -- -- -- -- -- --  -- -- -- -- -- -- -- --
00E0:    37 20 80 21 80 22 80  23 80 00                  7 .!.".#..     
```

#### Opcodes

```
  0: 0x00E1 [0x37] UPDATE_EVENT_POSITION_AND_DIR: x=-344.221*, z=-53.115*, y=-0.513*, direction=178.6°*
  1: 0x00EA [0x00] END_REQSTACK()
```

### Event 65535.9

#### Metadata

| Field        | Value    |
|--------------|----------|
| Entrypoint   | 0x00EB   |
| Data Size    | 14 bytes |
| Instructions | 4        |

```
      00 01 02 03 04 05 06 07  08 09 0A 0B 0C 0D 0E 0F
      -- -- -- -- -- -- -- --  -- -- -- -- -- -- -- --
00E0:                                   32 24 80 1F 00             2$...
00F0: 25 80 26 80 27 80 1F 01  00                       %.&.'....       
```

#### Opcodes

```
  0: 0x00EB [0x32] ExtData[1]->MainSpeed = 27* * 0.1
  1: 0x00EE [0x1F] MOVE_ENTITY: EventEntity moves to X=-350.771*, Z=-52.902*, Y=-0.885*
  2: 0x00F6 [0x1F] MOVE_ENTITY: Update entity position (mode=1)
  3: 0x00F8 [0x00] END_REQSTACK()
```

### Event 65535.10

#### Metadata

| Field        | Value    |
|--------------|----------|
| Entrypoint   | 0x00F9   |
| Data Size    | 24 bytes |
| Instructions | 6        |

```
      00 01 02 03 04 05 06 07  08 09 0A 0B 0C 0D 0E 0F
      -- -- -- -- -- -- -- --  -- -- -- -- -- -- -- --
00F0:                             32 28 80 1F 00 29 80           2(...).
0100: 2A 80 2B 80 1F 01 1F 00  2C 80 2D 80 2E 80 1F 01  *.+.....,.-.....
0110: 00                                                .               
```

#### Opcodes

```
  0: 0x00F9 [0x32] ExtData[1]->MainSpeed = 70* * 0.1
  1: 0x00FC [0x1F] MOVE_ENTITY: EventEntity moves to X=-366.627*, Z=-49.918*, Y=0.168*
  2: 0x0104 [0x1F] MOVE_ENTITY: Update entity position (mode=1)
  3: 0x0106 [0x1F] MOVE_ENTITY: EventEntity moves to X=-366.337*, Z=-49.616*, Y=0.160*
  4: 0x010E [0x1F] MOVE_ENTITY: Update entity position (mode=1)
  5: 0x0110 [0x00] END_REQSTACK()
```

### Event 65535.11

#### Metadata

| Field        | Value    |
|--------------|----------|
| Entrypoint   | 0x0111   |
| Data Size    | 24 bytes |
| Instructions | 6        |

```
      00 01 02 03 04 05 06 07  08 09 0A 0B 0C 0D 0E 0F
      -- -- -- -- -- -- -- --  -- -- -- -- -- -- -- --
0110:    32 28 80 1F 00 2F 80  30 80 31 80 1F 01 1F 00   2(.../.0.1.....
0120: 32 80 33 80 34 80 1F 01  00                       2.3.4....       
```

#### Opcodes

```
  0: 0x0111 [0x32] ExtData[1]->MainSpeed = 70* * 0.1
  1: 0x0114 [0x1F] MOVE_ENTITY: EventEntity moves to X=-385.366*, Z=-56.745*, Y=0.273*
  2: 0x011C [0x1F] MOVE_ENTITY: Update entity position (mode=1)
  3: 0x011E [0x1F] MOVE_ENTITY: EventEntity moves to X=-385.439*, Z=-57.252*, Y=0.243*
  4: 0x0126 [0x1F] MOVE_ENTITY: Update entity position (mode=1)
  5: 0x0128 [0x00] END_REQSTACK()
```

### Event 65535.12

#### Metadata

| Field        | Value    |
|--------------|----------|
| Entrypoint   | 0x0129   |
| Data Size    | 64 bytes |
| Instructions | 14       |

```
      00 01 02 03 04 05 06 07  08 09 0A 0B 0C 0D 0E 0F
      -- -- -- -- -- -- -- --  -- -- -- -- -- -- -- --
0120:                             37 35 80 36 80 37 80           75.6.7.
0130: 38 80 80 F8 FF FF 7F 32  28 80 1F 00 39 80 3A 80  8......2(...9.:.
0140: 3B 80 1F 01 1F 00 3C 80  3D 80 3E 80 1F 01 1C 08  ;.....<.=.>.....
0150: 80 1F 00 3F 80 40 80 41  80 1F 01 1F 00 42 80 43  ...?.@.A.....B.C
0160: 80 44 80 1F 01 1C 08 80  00                       .D.......       
```

#### Opcodes

```
  0: 0x0129 [0x37] UPDATE_EVENT_POSITION_AND_DIR: x=-385.547*, z=-62.628*, y=0.143*, direction=4.9°*
  1: 0x0132 [0x80] LOAD_WAIT(entity=EventEntity)
  2: 0x0137 [0x32] ExtData[1]->MainSpeed = 70* * 0.1
  3: 0x013A [0x1F] MOVE_ENTITY: EventEntity moves to X=-381.160*, Z=-62.322*, Y=0.258*
  4: 0x0142 [0x1F] MOVE_ENTITY: Update entity position (mode=1)
  5: 0x0144 [0x1F] MOVE_ENTITY: EventEntity moves to X=-380.851*, Z=-62.273*, Y=0.280*
  6: 0x014C [0x1F] MOVE_ENTITY: Update entity position (mode=1)
  7: 0x014E [0x1C] WAIT(60* ticks)
  8: 0x0151 [0x1F] MOVE_ENTITY: EventEntity moves to X=-374.830*, Z=-61.994*, Y=0.404*
  9: 0x0159 [0x1F] MOVE_ENTITY: Update entity position (mode=1)
 10: 0x015B [0x1F] MOVE_ENTITY: EventEntity moves to X=-374.460*, Z=-62.353*, Y=0.396*
 11: 0x0163 [0x1F] MOVE_ENTITY: Update entity position (mode=1)
 12: 0x0165 [0x1C] WAIT(60* ticks)
 13: 0x0168 [0x00] END_REQSTACK()
```

### Event 65535.13

#### Metadata

| Field        | Value    |
|--------------|----------|
| Entrypoint   | 0x0169   |
| Data Size    | 24 bytes |
| Instructions | 6        |

```
      00 01 02 03 04 05 06 07  08 09 0A 0B 0C 0D 0E 0F
      -- -- -- -- -- -- -- --  -- -- -- -- -- -- -- --
0160:                             32 28 80 1F 00 45 80           2(...E.
0170: 46 80 47 80 1F 01 1F 00  48 80 49 80 4A 80 1F 01  F.G.....H.I.J...
0180: 00                                                .               
```

#### Opcodes

```
  0: 0x0169 [0x32] ExtData[1]->MainSpeed = 70* * 0.1
  1: 0x016C [0x1F] MOVE_ENTITY: EventEntity moves to X=-368.405*, Z=-62.477*, Y=0.439*
  2: 0x0174 [0x1F] MOVE_ENTITY: Update entity position (mode=1)
  3: 0x0176 [0x1F] MOVE_ENTITY: EventEntity moves to X=-368.306*, Z=-62.753*, Y=0.432*
  4: 0x017E [0x1F] MOVE_ENTITY: Update entity position (mode=1)
  5: 0x0180 [0x00] END_REQSTACK()
```

### Event 65535.14

#### Metadata

| Field        | Value    |
|--------------|----------|
| Entrypoint   | 0x0181   |
| Data Size    | 10 bytes |
| Instructions | 2        |

```
      00 01 02 03 04 05 06 07  08 09 0A 0B 0C 0D 0E 0F
      -- -- -- -- -- -- -- --  -- -- -- -- -- -- -- --
0180:    37 4B 80 4C 80 4D 80  4E 80 00                  7K.L.M.N..     
```

#### Opcodes

```
  0: 0x0181 [0x37] UPDATE_EVENT_POSITION_AND_DIR: x=-47.959*, z=97.265*, y=7.997*, direction=133.3°*
  1: 0x018A [0x00] END_REQSTACK()
```

### Event 65535.15

#### Metadata

| Field        | Value    |
|--------------|----------|
| Entrypoint   | 0x018B   |
| Data Size    | 56 bytes |
| Instructions | 8        |

```
      00 01 02 03 04 05 06 07  08 09 0A 0B 0C 0D 0E 0F
      -- -- -- -- -- -- -- --  -- -- -- -- -- -- -- --
0180:                                   32 24 80 1F 00             2$...
0190: 4F 80 50 80 10 80 1F 01  1E B0 40 0F 01 1C 51 80  O.P.......@...Q.
01A0: 45 52 80 F0 FF FF 7F F0  FF FF 7F 6E 61 6B 32 17  ER.........nak2.
01B0: 80 9F 53 80 B1 40 0F 01  B1 40 0F 01 6D 61 69 6E  ..S..@...@..main
01C0: 17 80 00                                          ...             
```

#### Opcodes

```
  0: 0x018B [0x32] ExtData[1]->MainSpeed = 27* * 0.1
  1: 0x018E [0x1F] MOVE_ENTITY: EventEntity moves to X=-52.018*, Z=93.453*, Y=8.199*
  2: 0x0196 [0x1F] MOVE_ENTITY: Update entity position (mode=1)
  3: 0x0198 [0x1E] EventEntity looks at Chocobo (ID: 17776816/0x010F40B0) and starts talking
  4: 0x019D [0x1C] WAIT(30* ticks)
  5: 0x01A0 [0x45] LOAD_SCHEDULED_TASK: Load scheduler "nak2" with entities [LocalPlayer, LocalPlayer], work=[144*, 0*]
  6: 0x01B1 [0x9F] LOAD_SCHEDULED_TASK_ALT: Load scheduler "main" with entities [Chocobo (ID: 17776817/0x010F40B1), Chocobo (ID: 17776817/0x010F40B1)], work=[251*, 0*]
  7: 0x01C2 [0x00] END_REQSTACK()
```

### Event 65535.16

#### Metadata

| Field        | Value    |
|--------------|----------|
| Entrypoint   | 0x01C3   |
| Data Size    | 10 bytes |
| Instructions | 2        |

```
      00 01 02 03 04 05 06 07  08 09 0A 0B 0C 0D 0E 0F
      -- -- -- -- -- -- -- --  -- -- -- -- -- -- -- --
01C0:          37 54 80 55 80  56 80 57 80 00              7T.U.V.W..   
```

#### Opcodes

```
  0: 0x01C3 [0x37] UPDATE_EVENT_POSITION_AND_DIR: x=21.161*, z=-744.997*, y=-5.935*, direction=270.3°*
  1: 0x01CC [0x00] END_REQSTACK()
```

### Event 65535.17

#### Metadata

| Field        | Value    |
|--------------|----------|
| Entrypoint   | 0x01CD   |
| Data Size    | 24 bytes |
| Instructions | 6        |

```
      00 01 02 03 04 05 06 07  08 09 0A 0B 0C 0D 0E 0F
      -- -- -- -- -- -- -- --  -- -- -- -- -- -- -- --
01C0:                                         32 28 80               2(.
01D0: 1F 00 58 80 59 80 5A 80  1F 01 1F 00 5B 80 5C 80  ..X.Y.Z.....[.\.
01E0: 5D 80 1F 01 00                                    ]....           
```

#### Opcodes

```
  0: 0x01CD [0x32] ExtData[1]->MainSpeed = 70* * 0.1
  1: 0x01D0 [0x1F] MOVE_ENTITY: EventEntity moves to X=21.523*, Z=-719.002*, Y=-4.197*
  2: 0x01D8 [0x1F] MOVE_ENTITY: Update entity position (mode=1)
  3: 0x01DA [0x1F] MOVE_ENTITY: EventEntity moves to X=15.352*, Z=-705.607*, Y=-3.286*
  4: 0x01E2 [0x1F] MOVE_ENTITY: Update entity position (mode=1)
  5: 0x01E4 [0x00] END_REQSTACK()
```

### Event 65535.18

#### Metadata

| Field        | Value    |
|--------------|----------|
| Entrypoint   | 0x01E5   |
| Data Size    | 54 bytes |
| Instructions | 12       |

```
      00 01 02 03 04 05 06 07  08 09 0A 0B 0C 0D 0E 0F
      -- -- -- -- -- -- -- --  -- -- -- -- -- -- -- --
01E0:                32 28 80  1F 00 5E 80 5F 80 60 80       2(...^._.`.
01F0: 1F 01 1F 00 61 80 62 80  63 80 1F 01 1F 00 64 80  ....a.b.c.....d.
0200: 65 80 66 80 1F 01 1F 00  67 80 68 80 69 80 1F 01  e.f.....g.h.i...
0210: 1F 00 6A 80 6B 80 6C 80  1F 01 00                 ..j.k.l....     
```

#### Opcodes

```
  0: 0x01E5 [0x32] ExtData[1]->MainSpeed = 70* * 0.1
  1: 0x01E8 [0x1F] MOVE_ENTITY: EventEntity moves to X=11.109*, Z=-701.766*, Y=-3.308*
  2: 0x01F0 [0x1F] MOVE_ENTITY: Update entity position (mode=1)
  3: 0x01F2 [0x1F] MOVE_ENTITY: EventEntity moves to X=4.188*, Z=-699.380*, Y=-3.917*
  4: 0x01FA [0x1F] MOVE_ENTITY: Update entity position (mode=1)
  5: 0x01FC [0x1F] MOVE_ENTITY: EventEntity moves to X=-8.151*, Z=-697.775*, Y=-3.142*
  6: 0x0204 [0x1F] MOVE_ENTITY: Update entity position (mode=1)
  7: 0x0206 [0x1F] MOVE_ENTITY: EventEntity moves to X=-13.733*, Z=-692.414*, Y=-3.024*
  8: 0x020E [0x1F] MOVE_ENTITY: Update entity position (mode=1)
  9: 0x0210 [0x1F] MOVE_ENTITY: EventEntity moves to X=-19.035*, Z=-684.648*, Y=-3.203*
 10: 0x0218 [0x1F] MOVE_ENTITY: Update entity position (mode=1)
 11: 0x021A [0x00] END_REQSTACK()
```

### Event 65535.19

#### Metadata

| Field        | Value    |
|--------------|----------|
| Entrypoint   | 0x021B   |
| Data Size    | 10 bytes |
| Instructions | 2        |

```
      00 01 02 03 04 05 06 07  08 09 0A 0B 0C 0D 0E 0F
      -- -- -- -- -- -- -- --  -- -- -- -- -- -- -- --
0210:                                   37 6D 80 6E 80             7m.n.
0220: 6F 80 70 80 00                                    o.p..           
```

#### Opcodes

```
  0: 0x021B [0x37] UPDATE_EVENT_POSITION_AND_DIR: x=269.232*, z=-245.718*, y=-31.911*, direction=138.4°*
  1: 0x0224 [0x00] END_REQSTACK()
```

### Event 65535.20

#### Metadata

| Field        | Value    |
|--------------|----------|
| Entrypoint   | 0x0225   |
| Data Size    | 14 bytes |
| Instructions | 4        |

```
      00 01 02 03 04 05 06 07  08 09 0A 0B 0C 0D 0E 0F
      -- -- -- -- -- -- -- --  -- -- -- -- -- -- -- --
0220:                32 24 80  1F 00 71 80 72 80 73 80       2$...q.r.s.
0230: 1F 01 00                                          ...             
```

#### Opcodes

```
  0: 0x0225 [0x32] ExtData[1]->MainSpeed = 27* * 0.1
  1: 0x0228 [0x1F] MOVE_ENTITY: EventEntity moves to X=266.175*, Z=-248.643*, Y=-31.224*
  2: 0x0230 [0x1F] MOVE_ENTITY: Update entity position (mode=1)
  3: 0x0232 [0x00] END_REQSTACK()
```

### Event 65535.21

#### Metadata

| Field        | Value    |
|--------------|----------|
| Entrypoint   | 0x0233   |
| Data Size    | 10 bytes |
| Instructions | 2        |

```
      00 01 02 03 04 05 06 07  08 09 0A 0B 0C 0D 0E 0F
      -- -- -- -- -- -- -- --  -- -- -- -- -- -- -- --
0230:          37 74 80 75 80  17 80 76 80 00              7t.u...v..   
```

#### Opcodes

```
  0: 0x0233 [0x37] UPDATE_EVENT_POSITION_AND_DIR: x=-47.924*, z=106.429*, y=0.000*, direction=319.8°*
  1: 0x023C [0x00] END_REQSTACK()
```

### Event 65535.22

#### Metadata

| Field        | Value    |
|--------------|----------|
| Entrypoint   | 0x023D   |
| Data Size    | 24 bytes |
| Instructions | 6        |

```
      00 01 02 03 04 05 06 07  08 09 0A 0B 0C 0D 0E 0F
      -- -- -- -- -- -- -- --  -- -- -- -- -- -- -- --
0230:                                         32 04 80               2..
0240: 1F 00 77 80 78 80 17 80  1F 01 4B B1 40 0F 01 1D  ..w.x.....K.@...
0250: 80 1C 51 80 00                                    ..Q..           
```

#### Opcodes

```
  0: 0x023D [0x32] ExtData[1]->MainSpeed = 20* * 0.1
  1: 0x0240 [0x1F] MOVE_ENTITY: EventEntity moves to X=-45.595*, Z=108.417*, Y=0.000*
  2: 0x0248 [0x1F] MOVE_ENTITY: Update entity position (mode=1)
  3: 0x024A [0x4B] UPDATE_ENTITY_YAW(entity=Chocobo (ID: 17776817/0x010F40B1), yaw=0.0°*)
  4: 0x0251 [0x1C] WAIT(30* ticks)
  5: 0x0254 [0x00] END_REQSTACK()
```

### Event 65535.23

#### Metadata

| Field        | Value    |
|--------------|----------|
| Entrypoint   | 0x0255   |
| Data Size    | 28 bytes |
| Instructions | 6        |

```
      00 01 02 03 04 05 06 07  08 09 0A 0B 0C 0D 0E 0F
      -- -- -- -- -- -- -- --  -- -- -- -- -- -- -- --
0250:                37 79 80  7A 80 7B 80 7C 80 80 F8       7y.z.{.|...
0260: FF FF 7F 32 04 80 1F 00  7D 80 7E 80 7B 80 1F 01  ...2....}.~.{...
0270: 00                                                .               
```

#### Opcodes

```
  0: 0x0255 [0x37] UPDATE_EVENT_POSITION_AND_DIR: x=-59.949*, z=17.328*, y=1.000*, direction=160.0°*
  1: 0x025E [0x80] LOAD_WAIT(entity=EventEntity)
  2: 0x0263 [0x32] ExtData[1]->MainSpeed = 20* * 0.1
  3: 0x0266 [0x1F] MOVE_ENTITY: EventEntity moves to X=-64.343*, Z=14.757*, Y=1.000*
  4: 0x026E [0x1F] MOVE_ENTITY: Update entity position (mode=1)
  5: 0x0270 [0x00] END_REQSTACK()
```

### Event 65535.24

#### Metadata

| Field        | Value    |
|--------------|----------|
| Entrypoint   | 0x0271   |
| Data Size    | 10 bytes |
| Instructions | 2        |

```
      00 01 02 03 04 05 06 07  08 09 0A 0B 0C 0D 0E 0F
      -- -- -- -- -- -- -- --  -- -- -- -- -- -- -- --
0270:    37 7F 80 80 80 17 80  81 80 00                  7.........     
```

#### Opcodes

```
  0: 0x0271 [0x37] UPDATE_EVENT_POSITION_AND_DIR: x=-8.047*, z=2.541*, y=0.000*, direction=152.7°*
  1: 0x027A [0x00] END_REQSTACK()
```

### Event 65535.25

#### Metadata

| Field        | Value    |
|--------------|----------|
| Entrypoint   | 0x027B   |
| Data Size    | 14 bytes |
| Instructions | 4        |

```
      00 01 02 03 04 05 06 07  08 09 0A 0B 0C 0D 0E 0F
      -- -- -- -- -- -- -- --  -- -- -- -- -- -- -- --
0270:                                   32 24 80 1F 00             2$...
0280: 82 80 83 80 17 80 1F 01  00                       .........       
```

#### Opcodes

```
  0: 0x027B [0x32] ExtData[1]->MainSpeed = 27* * 0.1
  1: 0x027E [0x1F] MOVE_ENTITY: EventEntity moves to X=-11.225*, Z=0.751*, Y=0.000*
  2: 0x0286 [0x1F] MOVE_ENTITY: Update entity position (mode=1)
  3: 0x0288 [0x00] END_REQSTACK()
```

### Event 65535.26

#### Metadata

| Field        | Value    |
|--------------|----------|
| Entrypoint   | 0x0289   |
| Data Size    | 28 bytes |
| Instructions | 6        |

```
      00 01 02 03 04 05 06 07  08 09 0A 0B 0C 0D 0E 0F
      -- -- -- -- -- -- -- --  -- -- -- -- -- -- -- --
0280:                             37 84 80 85 80 17 80           7......
0290: 86 80 80 F8 FF FF 7F 32  04 80 1F 00 87 80 88 80  .......2........
02A0: 17 80 1F 01 00                                    .....           
```

#### Opcodes

```
  0: 0x0289 [0x37] UPDATE_EVENT_POSITION_AND_DIR: x=-76.367*, z=-113.470*, y=0.000*, direction=202.0°*
  1: 0x0292 [0x80] LOAD_WAIT(entity=EventEntity)
  2: 0x0297 [0x32] ExtData[1]->MainSpeed = 20* * 0.1
  3: 0x029A [0x1F] MOVE_ENTITY: EventEntity moves to X=-81.473*, Z=-112.135*, Y=0.000*
  4: 0x02A2 [0x1F] MOVE_ENTITY: Update entity position (mode=1)
  5: 0x02A4 [0x00] END_REQSTACK()
```
