# 17776676 - Zuber

## Common Data

| Field            | Value                 |
|------------------|-----------------------|
| Zone             | Upper Jeuno (ID: 244) |
| Block Size       | 1364 bytes            |
| Total Events     | 16                    |
| References Count | 101                   |

## List of Events

| Event ID                 | Entrypoint   |   Size |   Instructions |
|--------------------------|--------------|--------|----------------|
| [65535](#event-65535)    | 0x0000       |      1 |              1 |
| [18](#event-18)          | 0x0001       |    140 |             44 |
| [19](#event-19)          | 0x008D       |     66 |             23 |
| [125](#event-125)        | 0x00CF       |    502 |            136 |
| [127](#event-127)        | 0x02C5       |     13 |              5 |
| [112](#event-112)        | 0x02D2       |     12 |              3 |
| [65535.1](#event-655351) | 0x02DE       |     53 |             10 |
| [65535.2](#event-655352) | 0x0313       |      1 |              1 |
| [65535.3](#event-655353) | 0x0314       |     16 |              5 |
| [126](#event-126)        | 0x0324       |     37 |             15 |
| [10011](#event-10011)    | 0x0349       |      3 |              2 |
| [10012](#event-10012)    | 0x034C       |      3 |              2 |
| [129](#event-129)        | 0x034F       |      3 |              2 |
| [84](#event-84)          | 0x0352       |     10 |              2 |
| [204](#event-204)        | 0x035C       |     10 |              2 |
| [205](#event-205)        | 0x0366       |     10 |              2 |

## DAT References (imed_data)

|   Index | Hex Value   |   Dec Value |
|---------|-------------|-------------|
|       0 | 0x0000      |           0 |
|       1 | 0x02C1      |         705 |
|       2 | 0x1D8B      |        7563 |
|       3 | 0x1D8C      |        7564 |
|       4 | 0x1D8D      |        7565 |
|       5 | 0x1D8E      |        7566 |
|       6 | 0x0001      |           1 |
|       7 | 0x1D8F      |        7567 |
|       8 | 0x1D90      |        7568 |
|       9 | 0x1D91      |        7569 |
|      10 | 0x1D92      |        7570 |
|      11 | 0x1D93      |        7571 |
|      12 | 0x1D94      |        7572 |
|      13 | 0x1D95      |        7573 |
|      14 | 0x1D96      |        7574 |
|      15 | 0x1D97      |        7575 |
|      16 | 0x1D98      |        7576 |
|      17 | 0x1D99      |        7577 |
|      18 | 0x1D86      |        7558 |
|      19 | 0x1D65      |        7525 |
|      20 | 0x1D66      |        7526 |
|      21 | 0x0002      |           2 |
|      22 | 0x1D67      |        7527 |
|      23 | 0x0003      |           3 |
|      24 | 0x1D68      |        7528 |
|      25 | 0x0004      |           4 |
|      26 | 0x1D69      |        7529 |
|      27 | 0x0005      |           5 |
|      28 | 0x1D6A      |        7530 |
|      29 | 0x0006      |           6 |
|      30 | 0x1D6B      |        7531 |
|      31 | 0x0007      |           7 |
|      32 | 0x1D6C      |        7532 |
|      33 | 0x0008      |           8 |
|      34 | 0x1D6D      |        7533 |
|      35 | 0x0009      |           9 |
|      36 | 0x1D6E      |        7534 |
|      37 | 0x000A      |          10 |
|      38 | 0x1D6F      |        7535 |
|      39 | 0x000B      |          11 |
|      40 | 0x1D70      |        7536 |
|      41 | 0x000C      |          12 |
|      42 | 0x1D71      |        7537 |
|      43 | 0x000D      |          13 |
|      44 | 0x1D72      |        7538 |
|      45 | 0x000E      |          14 |
|      46 | 0x1D73      |        7539 |
|      47 | 0x000F      |          15 |
|      48 | 0x1D74      |        7540 |
|      49 | 0x0010      |          16 |
|      50 | 0x1D75      |        7541 |
|      51 | 0x0011      |          17 |
|      52 | 0x1D76      |        7542 |
|      53 | 0x0012      |          18 |
|      54 | 0x1D77      |        7543 |
|      55 | 0x0013      |          19 |
|      56 | 0x1D78      |        7544 |
|      57 | 0x0014      |          20 |
|      58 | 0x1D79      |        7545 |
|      59 | 0x0015      |          21 |
|      60 | 0x1D7A      |        7546 |
|      61 | 0x0016      |          22 |
|      62 | 0x1D7B      |        7547 |
|      63 | 0x0017      |          23 |
|      64 | 0x1D7C      |        7548 |
|      65 | 0x0018      |          24 |
|      66 | 0x1D7D      |        7549 |
|      67 | 0x0019      |          25 |
|      68 | 0x1D7E      |        7550 |
|      69 | 0x001A      |          26 |
|      70 | 0x1D7F      |        7551 |
|      71 | 0x001B      |          27 |
|      72 | 0x1D80      |        7552 |
|      73 | 0x001C      |          28 |
|      74 | 0x1D81      |        7553 |
|      75 | 0x001D      |          29 |
|      76 | 0x1D82      |        7554 |
|      77 | 0x001E      |          30 |
|      78 | 0x1D83      |        7555 |
|      79 | 0x001F      |          31 |
|      80 | 0x1D84      |        7556 |
|      81 | 0x003C      |          60 |
|      82 | 0x1D87      |        7559 |
|      83 | 0xFFFF1F1D  |  4294909725 |
|      84 | 0x115BB     |       71099 |
|      85 | 0x0A7F      |        2687 |
|      86 | 0xFFFF0A6B  |  4294904427 |
|      87 | 0x13496     |       78998 |
|      88 | 0x0E8C      |        3724 |
|      89 | 0x0041      |          65 |
|      90 | 0x0ADC      |        2780 |
|      91 | 0xFFFEFDF7  |  4294901239 |
|      92 | 0x14956     |       84310 |
|      93 | 0x1D88      |        7560 |
|      94 | 0x1D89      |        7561 |
|      95 | 0x1B5D      |        7005 |
|      96 | 0x1B5E      |        7006 |
|      97 | 0xFFFE6857  |  4294862935 |
|      98 | 0x16AC7     |       92871 |
|      99 | 0xFFFFFF39  |  4294967097 |
|     100 | 0x02B7      |         695 |

## String References

- **7005**: The petition is complete!
- **7006**: You have $0 more [signature/signatures] to go.
- **7525**: Isn't San d'Oria swell? They're so proper and austere there, I'm always so impressed.
- **7526**: Isn't Bastok swell? They're so practical and hardworking there, I'm always so impressed.
- **7527**: Isn't Windurst swell? The town of the short and cute. I'm always so impressed.
- **7528**: Aren't warriors swell? They're the foundation of it all. I'm always so impressed.
- **7529**: Aren't monks swell? They don't even need weapons. I'm always so impressed.
- **7530**: Aren't white mages swell? They're such pillars of strength. I'm always so impressed.
- **7531**: Aren't black mages swell? They're so deadly from afar. I'm always so impressed.
- **7532**: Aren't red mages swell? They're like jacks-of-all-trades. I'm always so impressed.
- **7533**: Aren't thieves swell? They're such clever folk. I'm always so impressed...at least when they're not stealing from me.
- **7534**: Aren't paladins swell? They're such powerful bastions of offense. I'm always so impressed.
- **7535**: Aren't dark knights swell? They're such cool and shadowy figures. I'm always so impressed.
- **7536**: Aren't beastmasters swell? They're so in touch with nature's minions. I'm always so impressed.
- **7537**: Aren't bards swell? Their music soothes savage beasts. I'm always so impressed.
- **7538**: Aren't rangers swell? They're such good shots. I'm always so impressed.
- **7539**: Aren't samurai swell? They're so good with weapons. I heard they can do skillchains by themselves! I'm always so impressed.
- **7540**: Aren't ninja swell? Weapons in both hands and ninja tools in their pockets!
- **7541**: Aren't dragoons swell? I want a wyvern just like theirs!
- **7542**: Aren't summoners swell? I'd sure love to call Shiva for a night on the town!
- **7543**: Aren't blue mages swell? Must be great to use your opponents' abilities against them!
- **7544**: Aren't corsairs swell? Life must be thrilling when everything rests on the roll of the dice!
- **7545**: Aren't puppetmasters swell? I wish I had a little automaton to run errands for me!
- **7546**: Aren't dancers swell? It must be nice to turn your enemy into a source of healing and support magic. I'm always so impressed.
- **7547**: Aren't scholars swell? The way they utilize both white and black magic, not to mention their other abilities, really gets you to thinking, doesn't it?
- **7548**: Aren't geomancers swell? They can support their allies, weaken their enemies, and blast people into the past with powerful elemental magic! It makes me wonder, "What can't they do?"
- **7549**: Aren't rune fencers swell? Their runes aren't just pretty to look at, they're also what makes them such graceful combative technicians. I swoon every time I see one in action.
- **7550**: Aren't Humes swell? They're balanced in every way.
- **7551**: Aren't Elvaan swell? If any race was fit for royalty, they sure are the one!
- **7552**: Aren't Tarutaru swell? They're so cute and tiny! So tiny, in fact, that sometimes I miss them when they come up to the counter!
- **7553**: Aren't Mithra swell? Those pointy ears and long tails quicken my heart!
- **7554**: Aren't Galka swell? Their muscles remind me of me when I was young... What? Don't you believe me?
- **7555**: Aren't gentlemen swell? Except for that guy who's after my daughter. I hate him!
- **7556**: Aren't ladies swell? It'd be neat if my daughter could stay for a while. But, I'd never get any work done with her here.
- **7558**: Hello. Welcome to the Marble Bridge. Each day we have a new entrance policy. So, enjoy talking with your peers.
- **7559**: I'm sorry, but it's time for you to go. Please come again!
- **7560**: Huh? A petition to save the clock tower? Where do I sign? So this is why Galmut looked so worried when he stopped by a while ago.
- **7561**: That Galmut... He's always pestering us to have a clock workers' day. I tell him nobody would come except for him and Mr. Narihira.
- **7563**: <Player>, could I ask you a favor?
- **7564**: You know that our motto is "every day is a special day," right? Well, lately I've been hearing lots of rumors about how confusing our entrance policies are.
- **7565**: What do you think? [No problems at all./They are pretty confusing...]
- **7566**: Hah, you don't have to be nice. I know what you're really thinking.
- **7567**: Hmmm... So you think so too... Well, then I guess that it's time to do something!
- **7568**: And that's why I've come up with this plan. I've made up a batch of these special $5 that will let you know if today's your "special day" the moment you enter Upper Jeuno.
- **7569**: Ah ha! I knew you'd be back! Can't live without $6, can you?
- **7570**: How much? No! I wouldn't think of charging one of my best customers for something like this!
- **7571**: What do you say? [I'll take one!/Thanks, but no thanks.]
- **7572**: Wonderful! Remember, if you think that you no longer need the coaster, just come back and I'll take it off your hands.
- **7573**: Oh... Well, if you ever change your mind, just come back any time. I've made up hundreds of these things!
- **7574**: How do you like the $3? Pretty useful, huh?
- **7575**: What do you think? [I want to return the coaster./I can't live without my coaster!]
- **7576**: You want to return it!? Well, I can't force you to carry it around... You know what they say, "The customer is always right." But if you ever need another one, you know where to come!
- **7577**: Heh heh! I knew you'd say that!

## Events

### Event 65535

#### Metadata

| Field        | Value   |
|--------------|---------|
| Entrypoint   | 0x0000  |
| Data Size    | 1 bytes |
| Instructions | 1       |

```
      00 01 02 03 04 05 06 07  08 09 0A 0B 0C 0D 0E 0F
      -- -- -- -- -- -- -- --  -- -- -- -- -- -- -- --
0000: 00                                                .               
```

#### Opcodes

```
  0: 0x0000 [0x00] END_REQSTACK()
```

### Event 18

#### Metadata

| Field        | Value     |
|--------------|-----------|
| Entrypoint   | 0x0001    |
| Data Size    | 140 bytes |
| Instructions | 44        |

```
      00 01 02 03 04 05 06 07  08 09 0A 0B 0C 0D 0E 0F
      -- -- -- -- -- -- -- --  -- -- -- -- -- -- -- --
0000:    03 00 00 02 10 20 01  1E F0 FF FF 7F 6F 70 02   ..... ......op.
0010: 00 00 00 80 00 51 00 03  02 10 01 80 1D 02 80 23  .....Q.........#
0020: 1D 03 80 23 24 04 80 00  80 00 80 25 02 00 10 00  ...#$......%....
0030: 80 00 3B 00 1D 05 80 23  01 4A 00 02 00 10 06 80  ..;....#.J......
0040: 00 4A 00 1D 07 80 23 01  4A 00 1D 08 80 23 01 5A  .J....#.J....#.Z
0050: 00 03 02 10 01 80 1D 09  80 23 1D 0A 80 23 06 01  .........#...#..
0060: 10 24 0B 80 06 80 00 80  25 02 00 10 00 80 00 7C  .$......%......|
0070: 00 42 1D 0C 80 23 05 01  10 01 8B 00 02 00 10 06  .B...#..........
0080: 80 00 8B 00 1D 0D 80 23  01 8B 00 21 00           .......#...!.   
```

#### Opcodes

```
  0: 0x0001 [0x03] ExtData[1]->WorkLocal[0] = Work_Zone[2]
  1: 0x0006 [0x20] SET_CLI_EVENT_UC_FLAG: Lock player control
  2: 0x0008 [0x1E] EventEntity looks at LocalPlayer and starts talking
  3: 0x000D [0x6F] WAIT_FRAME_DELAY: Yield until WaitTime reaches zero
  4: 0x000E [0x70] WAIT_ENTITY_RENDER_FLAG: Wait while EventEntity->Render.Flags3 bit 2 is set (cancel turn if not)
  5: 0x000F [0x02] IF !(ExtData[1]->WorkLocal[0] == 0*) GOTO 0x0051
  6: 0x0017 [0x03] Work_Zone[2] = 705*
  7: 0x001C [0x1D] PRINT_EVENT_MESSAGE(message_id=7563*)
    → "<Player>, could I ask you a favor?"
  8: 0x001F [0x23] WAIT_FOR_DIALOG_INTERACTION
  9: 0x0020 [0x1D] PRINT_EVENT_MESSAGE(message_id=7564*)
    → "You know that our motto is "every day is a special day," right? Well, lately I've been hearing lots of rumors about how confusing our entrance policies are."
 10: 0x0023 [0x23] WAIT_FOR_DIALOG_INTERACTION
 11: 0x0024 [0x24] CREATE_DIALOG(message_id=7565*, default_option=0*, option_flags=0*)
    → "What do you think? [No problems at all./They are pretty confusing...]"
 12: 0x002B [0x25] WAIT_DIALOG_SELECT()
 13: 0x002C [0x02] IF !(Work_Zone[0] == 0*) GOTO 0x003B
 14: 0x0034 [0x1D] PRINT_EVENT_MESSAGE(message_id=7566*)
    → "Hah, you don't have to be nice. I know what you're really thinking."
 15: 0x0037 [0x23] WAIT_FOR_DIALOG_INTERACTION
 16: 0x0038 [0x01] GOTO 0x004A
 17: 0x003B [0x02] IF !(Work_Zone[0] == 1*) GOTO 0x004A
 18: 0x0043 [0x1D] PRINT_EVENT_MESSAGE(message_id=7567*)
    → "Hmmm... So you think so too... Well, then I guess that it's time to do something!"
 19: 0x0046 [0x23] WAIT_FOR_DIALOG_INTERACTION
 20: 0x0047 [0x01] GOTO 0x004A

SUBROUTINE_004A:
 21: 0x004A [0x1D] PRINT_EVENT_MESSAGE(message_id=7568*)
    → "And that's why I've come up with this plan. I've made up a batch of these special $5 that will let you know if today's your "special day" the moment you enter Upper Jeuno."
 22: 0x004D [0x23] WAIT_FOR_DIALOG_INTERACTION
 23: 0x004E [0x01] GOTO 0x005A
 24: 0x0051 [0x03] Work_Zone[2] = 705*
 25: 0x0056 [0x1D] PRINT_EVENT_MESSAGE(message_id=7569*)
    → "Ah ha! I knew you'd be back! Can't live without $6, can you?"
 26: 0x0059 [0x23] WAIT_FOR_DIALOG_INTERACTION

SUBROUTINE_005A:
 27: 0x005A [0x1D] PRINT_EVENT_MESSAGE(message_id=7570*)
    → "How much? No! I wouldn't think of charging one of my best customers for something like this!"
 28: 0x005D [0x23] WAIT_FOR_DIALOG_INTERACTION
 29: 0x005E [0x06] Work_Zone[1] = 0
 30: 0x0061 [0x24] CREATE_DIALOG(message_id=7571*, default_option=1*, option_flags=0*)
    → "What do you say? [I'll take one!/Thanks, but no thanks.]"
 31: 0x0068 [0x25] WAIT_DIALOG_SELECT()
 32: 0x0069 [0x02] IF !(Work_Zone[0] == 0*) GOTO 0x007C
 33: 0x0071 [0x42] SET_CLI_EVENT_CANCEL_DATA()
 34: 0x0072 [0x1D] PRINT_EVENT_MESSAGE(message_id=7572*)
    → "Wonderful! Remember, if you think that you no longer need the coaster, just come back and I'll take it off your hands."
 35: 0x0075 [0x23] WAIT_FOR_DIALOG_INTERACTION
 36: 0x0076 [0x05] Work_Zone[1] = 1
 37: 0x0079 [0x01] GOTO 0x008B
 38: 0x007C [0x02] IF !(Work_Zone[0] == 1*) GOTO 0x008B
 39: 0x0084 [0x1D] PRINT_EVENT_MESSAGE(message_id=7573*)
    → "Oh... Well, if you ever change your mind, just come back any time. I've made up hundreds of these things!"
 40: 0x0087 [0x23] WAIT_FOR_DIALOG_INTERACTION
 41: 0x0088 [0x01] GOTO 0x008B

SUBROUTINE_008B:
 42: 0x008B [0x21] END_EVENT
 43: 0x008C [0x00] END_REQSTACK()
```

### Event 19

#### Metadata

| Field        | Value    |
|--------------|----------|
| Entrypoint   | 0x008D   |
| Data Size    | 66 bytes |
| Instructions | 23       |

```
      00 01 02 03 04 05 06 07  08 09 0A 0B 0C 0D 0E 0F
      -- -- -- -- -- -- -- --  -- -- -- -- -- -- -- --
0080:                                         20 01 1E                ..
0090: F0 FF FF 7F 6F 70 03 02  10 01 80 1D 0E 80 23 06  ....op........#.
00A0: 01 10 24 0F 80 06 80 00  80 25 02 00 10 00 80 00  ..$......%......
00B0: BE 00 42 1D 10 80 23 42  05 01 10 01 CD 00 02 00  ..B...#B........
00C0: 10 06 80 00 CD 00 1D 11  80 23 01 CD 00 21 00     .........#...!. 
```

#### Opcodes

```
  0: 0x008D [0x20] SET_CLI_EVENT_UC_FLAG: Lock player control
  1: 0x008F [0x1E] EventEntity looks at LocalPlayer and starts talking
  2: 0x0094 [0x6F] WAIT_FRAME_DELAY: Yield until WaitTime reaches zero
  3: 0x0095 [0x70] WAIT_ENTITY_RENDER_FLAG: Wait while EventEntity->Render.Flags3 bit 2 is set (cancel turn if not)
  4: 0x0096 [0x03] Work_Zone[2] = 705*
  5: 0x009B [0x1D] PRINT_EVENT_MESSAGE(message_id=7574*)
    → "How do you like the $3? Pretty useful, huh?"
  6: 0x009E [0x23] WAIT_FOR_DIALOG_INTERACTION
  7: 0x009F [0x06] Work_Zone[1] = 0
  8: 0x00A2 [0x24] CREATE_DIALOG(message_id=7575*, default_option=1*, option_flags=0*)
    → "What do you think? [I want to return the coaster./I can't live without my coaster!]"
  9: 0x00A9 [0x25] WAIT_DIALOG_SELECT()
 10: 0x00AA [0x02] IF !(Work_Zone[0] == 0*) GOTO 0x00BE
 11: 0x00B2 [0x42] SET_CLI_EVENT_CANCEL_DATA()
 12: 0x00B3 [0x1D] PRINT_EVENT_MESSAGE(message_id=7576*)
    → "You want to return it!? Well, I can't force you to carry it around... You know what they say, "The customer is always right." But if you ever need another one, you know where to come!"
 13: 0x00B6 [0x23] WAIT_FOR_DIALOG_INTERACTION
 14: 0x00B7 [0x42] SET_CLI_EVENT_CANCEL_DATA()
 15: 0x00B8 [0x05] Work_Zone[1] = 1
 16: 0x00BB [0x01] GOTO 0x00CD
 17: 0x00BE [0x02] IF !(Work_Zone[0] == 1*) GOTO 0x00CD
 18: 0x00C6 [0x1D] PRINT_EVENT_MESSAGE(message_id=7577*)
    → "Heh heh! I knew you'd say that!"
 19: 0x00C9 [0x23] WAIT_FOR_DIALOG_INTERACTION
 20: 0x00CA [0x01] GOTO 0x00CD

SUBROUTINE_00CD:
 21: 0x00CD [0x21] END_EVENT
 22: 0x00CE [0x00] END_REQSTACK()
```

### Event 125

#### Metadata

| Field        | Value     |
|--------------|-----------|
| Entrypoint   | 0x00CF    |
| Data Size    | 502 bytes |
| Instructions | 136       |

```
      00 01 02 03 04 05 06 07  08 09 0A 0B 0C 0D 0E 0F
      -- -- -- -- -- -- -- --  -- -- -- -- -- -- -- --
00C0:                                               1E                 .
00D0: F0 FF FF 7F 6F 76 F8 FF  FF 7F 1D 12 80 23 03 01  ....ov.......#..
00E0: 00 02 10 02 01 00 00 80  80 F2 00 1D 13 80 23 01  ..............#.
00F0: C3 02 02 01 00 06 80 80  01 01 1D 14 80 23 01 C3  .............#..
0100: 02 02 01 00 15 80 80 10  01 1D 16 80 23 01 C3 02  ............#...
0110: 02 01 00 17 80 80 1F 01  1D 18 80 23 01 C3 02 02  ...........#....
0120: 01 00 19 80 80 2E 01 1D  1A 80 23 01 C3 02 02 01  ..........#.....
0130: 00 1B 80 80 3D 01 1D 1C  80 23 01 C3 02 02 01 00  ....=....#......
0140: 1D 80 80 4C 01 1D 1E 80  23 01 C3 02 02 01 00 1F  ...L....#.......
0150: 80 80 5B 01 1D 20 80 23  01 C3 02 02 01 00 21 80  ..[.. .#......!.
0160: 80 6A 01 1D 22 80 23 01  C3 02 02 01 00 23 80 80  .j..".#......#..
0170: 79 01 1D 24 80 23 01 C3  02 02 01 00 25 80 80 88  y..$.#......%...
0180: 01 1D 26 80 23 01 C3 02  02 01 00 27 80 80 97 01  ..&.#......'....
0190: 1D 28 80 23 01 C3 02 02  01 00 29 80 80 A6 01 1D  .(.#......).....
01A0: 2A 80 23 01 C3 02 02 01  00 2B 80 80 B5 01 1D 2C  *.#......+.....,
01B0: 80 23 01 C3 02 02 01 00  2D 80 80 C4 01 1D 2E 80  .#......-.......
01C0: 23 01 C3 02 02 01 00 2F  80 80 D3 01 1D 30 80 23  #....../.....0.#
01D0: 01 C3 02 02 01 00 31 80  80 E2 01 1D 32 80 23 01  ......1.....2.#.
01E0: C3 02 02 01 00 33 80 80  F1 01 1D 34 80 23 01 C3  .....3.....4.#..
01F0: 02 02 01 00 35 80 80 00  02 1D 36 80 23 01 C3 02  ....5.....6.#...
0200: 02 01 00 37 80 80 0F 02  1D 38 80 23 01 C3 02 02  ...7.....8.#....
0210: 01 00 39 80 80 1E 02 1D  3A 80 23 01 C3 02 02 01  ..9.....:.#.....
0220: 00 3B 80 80 2D 02 1D 3C  80 23 01 C3 02 02 01 00  .;..-..<.#......
0230: 3D 80 80 3C 02 1D 3E 80  23 01 C3 02 02 01 00 3F  =..<..>.#......?
0240: 80 80 4B 02 1D 40 80 23  01 C3 02 02 01 00 41 80  ..K..@.#......A.
0250: 80 5A 02 1D 42 80 23 01  C3 02 02 01 00 43 80 80  .Z..B.#......C..
0260: 69 02 1D 44 80 23 01 C3  02 02 01 00 45 80 80 78  i..D.#......E..x
0270: 02 1D 46 80 23 01 C3 02  02 01 00 47 80 80 87 02  ..F.#......G....
0280: 1D 48 80 23 01 C3 02 02  01 00 49 80 80 96 02 1D  .H.#......I.....
0290: 4A 80 23 01 C3 02 02 01  00 4B 80 80 A5 02 1D 4C  J.#......K.....L
02A0: 80 23 01 C3 02 02 01 00  4D 80 80 B4 02 1D 4E 80  .#......M.....N.
02B0: 23 01 C3 02 02 01 00 4F  80 80 C3 02 1D 50 80 23  #......O.....P.#
02C0: 01 C3 02 21 00                                    ...!.           
```

#### Opcodes

```
  0: 0x00CF [0x1E] EventEntity looks at LocalPlayer and starts talking
  1: 0x00D4 [0x6F] WAIT_FRAME_DELAY: Yield until WaitTime reaches zero
  2: 0x00D5 [0x76] CHECK_ENTITY_RENDER_FLAGS: Wait until EventEntity Render.Flags0 and Render.Flags3 conditions are met
  3: 0x00DA [0x1D] PRINT_EVENT_MESSAGE(message_id=7558*)
    → "Hello. Welcome to the Marble Bridge. Each day we have a new entrance policy. So, enjoy talking with your peers."
  4: 0x00DD [0x23] WAIT_FOR_DIALOG_INTERACTION
  5: 0x00DE [0x03] ExtData[1]->WorkLocal[1] = Work_Zone[2]
  6: 0x00E3 [0x02] IF !(ExtData[1]->WorkLocal[1] == 0*) GOTO 0x00F2
  7: 0x00EB [0x1D] PRINT_EVENT_MESSAGE(message_id=7525*)
    → "Isn't San d'Oria swell? They're so proper and austere there, I'm always so impressed."
  8: 0x00EE [0x23] WAIT_FOR_DIALOG_INTERACTION
  9: 0x00EF [0x01] GOTO 0x02C3
 10: 0x00F2 [0x02] IF !(ExtData[1]->WorkLocal[1] == 1*) GOTO 0x0101
 11: 0x00FA [0x1D] PRINT_EVENT_MESSAGE(message_id=7526*)
    → "Isn't Bastok swell? They're so practical and hardworking there, I'm always so impressed."
 12: 0x00FD [0x23] WAIT_FOR_DIALOG_INTERACTION
 13: 0x00FE [0x01] GOTO 0x02C3
 14: 0x0101 [0x02] IF !(ExtData[1]->WorkLocal[1] == 2*) GOTO 0x0110
 15: 0x0109 [0x1D] PRINT_EVENT_MESSAGE(message_id=7527*)
    → "Isn't Windurst swell? The town of the short and cute. I'm always so impressed."
 16: 0x010C [0x23] WAIT_FOR_DIALOG_INTERACTION
 17: 0x010D [0x01] GOTO 0x02C3
 18: 0x0110 [0x02] IF !(ExtData[1]->WorkLocal[1] == 3*) GOTO 0x011F
 19: 0x0118 [0x1D] PRINT_EVENT_MESSAGE(message_id=7528*)
    → "Aren't warriors swell? They're the foundation of it all. I'm always so impressed."
 20: 0x011B [0x23] WAIT_FOR_DIALOG_INTERACTION
 21: 0x011C [0x01] GOTO 0x02C3
 22: 0x011F [0x02] IF !(ExtData[1]->WorkLocal[1] == 4*) GOTO 0x012E
 23: 0x0127 [0x1D] PRINT_EVENT_MESSAGE(message_id=7529*)
    → "Aren't monks swell? They don't even need weapons. I'm always so impressed."
 24: 0x012A [0x23] WAIT_FOR_DIALOG_INTERACTION
 25: 0x012B [0x01] GOTO 0x02C3
 26: 0x012E [0x02] IF !(ExtData[1]->WorkLocal[1] == 5*) GOTO 0x013D
 27: 0x0136 [0x1D] PRINT_EVENT_MESSAGE(message_id=7530*)
    → "Aren't white mages swell? They're such pillars of strength. I'm always so impressed."
 28: 0x0139 [0x23] WAIT_FOR_DIALOG_INTERACTION
 29: 0x013A [0x01] GOTO 0x02C3
 30: 0x013D [0x02] IF !(ExtData[1]->WorkLocal[1] == 6*) GOTO 0x014C
 31: 0x0145 [0x1D] PRINT_EVENT_MESSAGE(message_id=7531*)
    → "Aren't black mages swell? They're so deadly from afar. I'm always so impressed."
 32: 0x0148 [0x23] WAIT_FOR_DIALOG_INTERACTION
 33: 0x0149 [0x01] GOTO 0x02C3
 34: 0x014C [0x02] IF !(ExtData[1]->WorkLocal[1] == 7*) GOTO 0x015B
 35: 0x0154 [0x1D] PRINT_EVENT_MESSAGE(message_id=7532*)
    → "Aren't red mages swell? They're like jacks-of-all-trades. I'm always so impressed."
 36: 0x0157 [0x23] WAIT_FOR_DIALOG_INTERACTION
 37: 0x0158 [0x01] GOTO 0x02C3
 38: 0x015B [0x02] IF !(ExtData[1]->WorkLocal[1] == 8*) GOTO 0x016A
 39: 0x0163 [0x1D] PRINT_EVENT_MESSAGE(message_id=7533*)
    → "Aren't thieves swell? They're such clever folk. I'm always so impressed...at least when they're not stealing from me."
 40: 0x0166 [0x23] WAIT_FOR_DIALOG_INTERACTION
 41: 0x0167 [0x01] GOTO 0x02C3
 42: 0x016A [0x02] IF !(ExtData[1]->WorkLocal[1] == 9*) GOTO 0x0179
 43: 0x0172 [0x1D] PRINT_EVENT_MESSAGE(message_id=7534*)
    → "Aren't paladins swell? They're such powerful bastions of offense. I'm always so impressed."
 44: 0x0175 [0x23] WAIT_FOR_DIALOG_INTERACTION
 45: 0x0176 [0x01] GOTO 0x02C3
 46: 0x0179 [0x02] IF !(ExtData[1]->WorkLocal[1] == 10*) GOTO 0x0188
 47: 0x0181 [0x1D] PRINT_EVENT_MESSAGE(message_id=7535*)
    → "Aren't dark knights swell? They're such cool and shadowy figures. I'm always so impressed."
 48: 0x0184 [0x23] WAIT_FOR_DIALOG_INTERACTION
 49: 0x0185 [0x01] GOTO 0x02C3
 50: 0x0188 [0x02] IF !(ExtData[1]->WorkLocal[1] == 11*) GOTO 0x0197
 51: 0x0190 [0x1D] PRINT_EVENT_MESSAGE(message_id=7536*)
    → "Aren't beastmasters swell? They're so in touch with nature's minions. I'm always so impressed."
 52: 0x0193 [0x23] WAIT_FOR_DIALOG_INTERACTION
 53: 0x0194 [0x01] GOTO 0x02C3
 54: 0x0197 [0x02] IF !(ExtData[1]->WorkLocal[1] == 12*) GOTO 0x01A6
 55: 0x019F [0x1D] PRINT_EVENT_MESSAGE(message_id=7537*)
    → "Aren't bards swell? Their music soothes savage beasts. I'm always so impressed."
 56: 0x01A2 [0x23] WAIT_FOR_DIALOG_INTERACTION
 57: 0x01A3 [0x01] GOTO 0x02C3
 58: 0x01A6 [0x02] IF !(ExtData[1]->WorkLocal[1] == 13*) GOTO 0x01B5
 59: 0x01AE [0x1D] PRINT_EVENT_MESSAGE(message_id=7538*)
    → "Aren't rangers swell? They're such good shots. I'm always so impressed."
 60: 0x01B1 [0x23] WAIT_FOR_DIALOG_INTERACTION
 61: 0x01B2 [0x01] GOTO 0x02C3
 62: 0x01B5 [0x02] IF !(ExtData[1]->WorkLocal[1] == 14*) GOTO 0x01C4
 63: 0x01BD [0x1D] PRINT_EVENT_MESSAGE(message_id=7539*)
    → "Aren't samurai swell? They're so good with weapons. I heard they can do skillchains by themselves! I'm always so impressed."
 64: 0x01C0 [0x23] WAIT_FOR_DIALOG_INTERACTION
 65: 0x01C1 [0x01] GOTO 0x02C3
 66: 0x01C4 [0x02] IF !(ExtData[1]->WorkLocal[1] == 15*) GOTO 0x01D3
 67: 0x01CC [0x1D] PRINT_EVENT_MESSAGE(message_id=7540*)
    → "Aren't ninja swell? Weapons in both hands and ninja tools in their pockets!"
 68: 0x01CF [0x23] WAIT_FOR_DIALOG_INTERACTION
 69: 0x01D0 [0x01] GOTO 0x02C3
 70: 0x01D3 [0x02] IF !(ExtData[1]->WorkLocal[1] == 16*) GOTO 0x01E2
 71: 0x01DB [0x1D] PRINT_EVENT_MESSAGE(message_id=7541*)
    → "Aren't dragoons swell? I want a wyvern just like theirs!"
 72: 0x01DE [0x23] WAIT_FOR_DIALOG_INTERACTION
 73: 0x01DF [0x01] GOTO 0x02C3
 74: 0x01E2 [0x02] IF !(ExtData[1]->WorkLocal[1] == 17*) GOTO 0x01F1
 75: 0x01EA [0x1D] PRINT_EVENT_MESSAGE(message_id=7542*)
    → "Aren't summoners swell? I'd sure love to call Shiva for a night on the town!"
 76: 0x01ED [0x23] WAIT_FOR_DIALOG_INTERACTION
 77: 0x01EE [0x01] GOTO 0x02C3
 78: 0x01F1 [0x02] IF !(ExtData[1]->WorkLocal[1] == 18*) GOTO 0x0200
 79: 0x01F9 [0x1D] PRINT_EVENT_MESSAGE(message_id=7543*)
    → "Aren't blue mages swell? Must be great to use your opponents' abilities against them!"
 80: 0x01FC [0x23] WAIT_FOR_DIALOG_INTERACTION
 81: 0x01FD [0x01] GOTO 0x02C3
 82: 0x0200 [0x02] IF !(ExtData[1]->WorkLocal[1] == 19*) GOTO 0x020F
 83: 0x0208 [0x1D] PRINT_EVENT_MESSAGE(message_id=7544*)
    → "Aren't corsairs swell? Life must be thrilling when everything rests on the roll of the dice!"
 84: 0x020B [0x23] WAIT_FOR_DIALOG_INTERACTION
 85: 0x020C [0x01] GOTO 0x02C3
 86: 0x020F [0x02] IF !(ExtData[1]->WorkLocal[1] == 20*) GOTO 0x021E
 87: 0x0217 [0x1D] PRINT_EVENT_MESSAGE(message_id=7545*)
    → "Aren't puppetmasters swell? I wish I had a little automaton to run errands for me!"
 88: 0x021A [0x23] WAIT_FOR_DIALOG_INTERACTION
 89: 0x021B [0x01] GOTO 0x02C3
 90: 0x021E [0x02] IF !(ExtData[1]->WorkLocal[1] == 21*) GOTO 0x022D
 91: 0x0226 [0x1D] PRINT_EVENT_MESSAGE(message_id=7546*)
    → "Aren't dancers swell? It must be nice to turn your enemy into a source of healing and support magic. I'm always so impressed."
 92: 0x0229 [0x23] WAIT_FOR_DIALOG_INTERACTION
 93: 0x022A [0x01] GOTO 0x02C3
 94: 0x022D [0x02] IF !(ExtData[1]->WorkLocal[1] == 22*) GOTO 0x023C
 95: 0x0235 [0x1D] PRINT_EVENT_MESSAGE(message_id=7547*)
    → "Aren't scholars swell? The way they utilize both white and black magic, not to mention their other abilities, really gets you to thinking, doesn't it?"
 96: 0x0238 [0x23] WAIT_FOR_DIALOG_INTERACTION
 97: 0x0239 [0x01] GOTO 0x02C3
 98: 0x023C [0x02] IF !(ExtData[1]->WorkLocal[1] == 23*) GOTO 0x024B
 99: 0x0244 [0x1D] PRINT_EVENT_MESSAGE(message_id=7548*)
    → "Aren't geomancers swell? They can support their allies, weaken their enemies, and blast people into the past with powerful elemental magic! It makes me wonder, "What can't they do?""
100: 0x0247 [0x23] WAIT_FOR_DIALOG_INTERACTION
101: 0x0248 [0x01] GOTO 0x02C3
102: 0x024B [0x02] IF !(ExtData[1]->WorkLocal[1] == 24*) GOTO 0x025A
103: 0x0253 [0x1D] PRINT_EVENT_MESSAGE(message_id=7549*)
    → "Aren't rune fencers swell? Their runes aren't just pretty to look at, they're also what makes them such graceful combative technicians. I swoon every time I see one in action."
104: 0x0256 [0x23] WAIT_FOR_DIALOG_INTERACTION
105: 0x0257 [0x01] GOTO 0x02C3
106: 0x025A [0x02] IF !(ExtData[1]->WorkLocal[1] == 25*) GOTO 0x0269
107: 0x0262 [0x1D] PRINT_EVENT_MESSAGE(message_id=7550*)
    → "Aren't Humes swell? They're balanced in every way."
108: 0x0265 [0x23] WAIT_FOR_DIALOG_INTERACTION
109: 0x0266 [0x01] GOTO 0x02C3
110: 0x0269 [0x02] IF !(ExtData[1]->WorkLocal[1] == 26*) GOTO 0x0278
111: 0x0271 [0x1D] PRINT_EVENT_MESSAGE(message_id=7551*)
    → "Aren't Elvaan swell? If any race was fit for royalty, they sure are the one!"
112: 0x0274 [0x23] WAIT_FOR_DIALOG_INTERACTION
113: 0x0275 [0x01] GOTO 0x02C3
114: 0x0278 [0x02] IF !(ExtData[1]->WorkLocal[1] == 27*) GOTO 0x0287
115: 0x0280 [0x1D] PRINT_EVENT_MESSAGE(message_id=7552*)
    → "Aren't Tarutaru swell? They're so cute and tiny! So tiny, in fact, that sometimes I miss them when they come up to the counter!"
116: 0x0283 [0x23] WAIT_FOR_DIALOG_INTERACTION
117: 0x0284 [0x01] GOTO 0x02C3
118: 0x0287 [0x02] IF !(ExtData[1]->WorkLocal[1] == 28*) GOTO 0x0296
119: 0x028F [0x1D] PRINT_EVENT_MESSAGE(message_id=7553*)
    → "Aren't Mithra swell? Those pointy ears and long tails quicken my heart!"
120: 0x0292 [0x23] WAIT_FOR_DIALOG_INTERACTION
121: 0x0293 [0x01] GOTO 0x02C3
122: 0x0296 [0x02] IF !(ExtData[1]->WorkLocal[1] == 29*) GOTO 0x02A5
123: 0x029E [0x1D] PRINT_EVENT_MESSAGE(message_id=7554*)
    → "Aren't Galka swell? Their muscles remind me of me when I was young... What? Don't you believe me?"
124: 0x02A1 [0x23] WAIT_FOR_DIALOG_INTERACTION
125: 0x02A2 [0x01] GOTO 0x02C3
126: 0x02A5 [0x02] IF !(ExtData[1]->WorkLocal[1] == 30*) GOTO 0x02B4
127: 0x02AD [0x1D] PRINT_EVENT_MESSAGE(message_id=7555*)
    → "Aren't gentlemen swell? Except for that guy who's after my daughter. I hate him!"
128: 0x02B0 [0x23] WAIT_FOR_DIALOG_INTERACTION
129: 0x02B1 [0x01] GOTO 0x02C3
130: 0x02B4 [0x02] IF !(ExtData[1]->WorkLocal[1] == 31*) GOTO 0x02C3
131: 0x02BC [0x1D] PRINT_EVENT_MESSAGE(message_id=7556*)
    → "Aren't ladies swell? It'd be neat if my daughter could stay for a while. But, I'd never get any work done with her here."
132: 0x02BF [0x23] WAIT_FOR_DIALOG_INTERACTION
133: 0x02C0 [0x01] GOTO 0x02C3

SUBROUTINE_02C3:
134: 0x02C3 [0x21] END_EVENT
135: 0x02C4 [0x00] END_REQSTACK()
```

### Event 127

#### Metadata

| Field        | Value    |
|--------------|----------|
| Entrypoint   | 0x02C5   |
| Data Size    | 13 bytes |
| Instructions | 5        |

```
      00 01 02 03 04 05 06 07  08 09 0A 0B 0C 0D 0E 0F
      -- -- -- -- -- -- -- --  -- -- -- -- -- -- -- --
02C0:                1C 51 80  1E F0 FF FF 7F 1D 52 80       .Q.......R.
02D0: 23 00                                             #.              
```

#### Opcodes

```
  0: 0x02C5 [0x1C] WAIT(60* ticks)
  1: 0x02C8 [0x1E] EventEntity looks at LocalPlayer and starts talking
  2: 0x02CD [0x1D] PRINT_EVENT_MESSAGE(message_id=7559*)
    → "I'm sorry, but it's time for you to go. Please come again!"
  3: 0x02D0 [0x23] WAIT_FOR_DIALOG_INTERACTION
  4: 0x02D1 [0x00] END_REQSTACK()
```

### Event 112

#### Metadata

| Field        | Value    |
|--------------|----------|
| Entrypoint   | 0x02D2   |
| Data Size    | 12 bytes |
| Instructions | 3        |

```
      00 01 02 03 04 05 06 07  08 09 0A 0B 0C 0D 0E 0F
      -- -- -- -- -- -- -- --  -- -- -- -- -- -- -- --
02D0:       22 01 37 53 80 54  80 00 80 55 80 00          ".7S.T...U..  
```

#### Opcodes

```
  0: 0x02D2 [0x22] ENTITY_HIDE_FLAG(enabled=0x01)
  1: 0x02D4 [0x37] UPDATE_EVENT_POSITION_AND_DIR: x=-57.571*, z=71.099*, y=0.000*, direction=236.2°*
  2: 0x02DD [0x00] END_REQSTACK()
```

### Event 65535.1

#### Metadata

| Field        | Value    |
|--------------|----------|
| Entrypoint   | 0x02DE   |
| Data Size    | 53 bytes |
| Instructions | 10       |

```
      00 01 02 03 04 05 06 07  08 09 0A 0B 0C 0D 0E 0F
      -- -- -- -- -- -- -- --  -- -- -- -- -- -- -- --
02D0:                                            22 00                ".
02E0: 32 2B 80 1F 00 56 80 57  80 00 80 1F 01 39 58 80  2+...V.W.....9X.
02F0: 6F 76 F8 FF FF 7F 5B 59  80 F8 FF FF 7F F8 FF FF  ov....[Y........
0300: 7F 67 72 65 30 53 F8 FF  FF 7F F8 FF FF 7F 67 72  .gre0S........gr
0310: 65 30 00                                          e0.             
```

#### Opcodes

```
  0: 0x02DE [0x22] ENTITY_HIDE_FLAG(enabled=0x00)
  1: 0x02E0 [0x32] ExtData[1]->MainSpeed = 13* * 0.1
  2: 0x02E3 [0x1F] MOVE_ENTITY: EventEntity moves to X=-62.869*, Z=78.998*, Y=0.000*
  3: 0x02EB [0x1F] MOVE_ENTITY: Update entity position (mode=1)
  4: 0x02ED [0x39] SET_ENTITY_DIRECTION(direction=20.5°*)
  5: 0x02F0 [0x6F] WAIT_FRAME_DELAY: Yield until WaitTime reaches zero
  6: 0x02F1 [0x76] CHECK_ENTITY_RENDER_FLAGS: Wait until EventEntity Render.Flags0 and Render.Flags3 conditions are met
  7: 0x02F6 [0x5B] LOAD_EXT_SCHEDULER: Load scheduler "gre0" with entities [EventEntity, EventEntity], work=65*
  8: 0x0305 [0x53] WAIT_SCHEDULER_TASK: Wait for scheduler "gre0" with entities [EventEntity, EventEntity]
  9: 0x0312 [0x00] END_REQSTACK()
```

### Event 65535.2

#### Metadata

| Field        | Value   |
|--------------|---------|
| Entrypoint   | 0x0313  |
| Data Size    | 1 bytes |
| Instructions | 1       |

```
      00 01 02 03 04 05 06 07  08 09 0A 0B 0C 0D 0E 0F
      -- -- -- -- -- -- -- --  -- -- -- -- -- -- -- --
0310:          00                                          .            
```

#### Opcodes

```
  0: 0x0313 [0x00] END_REQSTACK()
```

### Event 65535.3

#### Metadata

| Field        | Value    |
|--------------|----------|
| Entrypoint   | 0x0314   |
| Data Size    | 16 bytes |
| Instructions | 5        |

```
      00 01 02 03 04 05 06 07  08 09 0A 0B 0C 0D 0E 0F
      -- -- -- -- -- -- -- --  -- -- -- -- -- -- -- --
0310:             39 5A 80 1F  00 5B 80 5C 80 00 80 1F      9Z...[.\....
0320: 01 22 01 00                                       ."..            
```

#### Opcodes

```
  0: 0x0314 [0x39] SET_ENTITY_DIRECTION(direction=15.3°*)
  1: 0x0317 [0x1F] MOVE_ENTITY: EventEntity moves to X=-66.057*, Z=84.310*, Y=0.000*
  2: 0x031F [0x1F] MOVE_ENTITY: Update entity position (mode=1)
  3: 0x0321 [0x22] ENTITY_HIDE_FLAG(enabled=0x01)
  4: 0x0323 [0x00] END_REQSTACK()
```

### Event 126

#### Metadata

| Field        | Value    |
|--------------|----------|
| Entrypoint   | 0x0324   |
| Data Size    | 37 bytes |
| Instructions | 15       |

```
      00 01 02 03 04 05 06 07  08 09 0A 0B 0C 0D 0E 0F
      -- -- -- -- -- -- -- --  -- -- -- -- -- -- -- --
0320:             20 01 42 1E  F0 FF FF 7F 1D 5D 80 23       .B......].#
0330: 1D 5E 80 23 02 02 10 00  80 00 43 03 48 5F 80 23  .^.#......C.H_.#
0340: 01 47 03 48 60 80 23 21  00                       .G.H`.#!.       
```

#### Opcodes

```
  0: 0x0324 [0x20] SET_CLI_EVENT_UC_FLAG: Lock player control
  1: 0x0326 [0x42] SET_CLI_EVENT_CANCEL_DATA()
  2: 0x0327 [0x1E] EventEntity looks at LocalPlayer and starts talking
  3: 0x032C [0x1D] PRINT_EVENT_MESSAGE(message_id=7560*)
    → "Huh? A petition to save the clock tower? Where do I sign? So this is why Galmut looked so worried when he stopped by a while ago."
  4: 0x032F [0x23] WAIT_FOR_DIALOG_INTERACTION
  5: 0x0330 [0x1D] PRINT_EVENT_MESSAGE(message_id=7561*)
    → "That Galmut... He's always pestering us to have a clock workers' day. I tell him nobody would come except for him and Mr. Narihira."
  6: 0x0333 [0x23] WAIT_FOR_DIALOG_INTERACTION
  7: 0x0334 [0x02] IF !(Work_Zone[2] == 0*) GOTO 0x0343
  8: 0x033C [0x48] [System] [7005*]:
    → "The petition is complete!"
  9: 0x033F [0x23] WAIT_FOR_DIALOG_INTERACTION
 10: 0x0340 [0x01] GOTO 0x0347
 11: 0x0343 [0x48] [System] [7006*]:
    → "You have $0 more [signature/signatures] to go."
 12: 0x0346 [0x23] WAIT_FOR_DIALOG_INTERACTION

SUBROUTINE_0347:
 13: 0x0347 [0x21] END_EVENT
 14: 0x0348 [0x00] END_REQSTACK()
```

### Event 10011

#### Metadata

| Field        | Value   |
|--------------|---------|
| Entrypoint   | 0x0349  |
| Data Size    | 3 bytes |
| Instructions | 2       |

```
      00 01 02 03 04 05 06 07  08 09 0A 0B 0C 0D 0E 0F
      -- -- -- -- -- -- -- --  -- -- -- -- -- -- -- --
0340:                             22 01 00                       "..    
```

#### Opcodes

```
  0: 0x0349 [0x22] ENTITY_HIDE_FLAG(enabled=0x01)
  1: 0x034B [0x00] END_REQSTACK()
```

### Event 10012

#### Metadata

| Field        | Value   |
|--------------|---------|
| Entrypoint   | 0x034C  |
| Data Size    | 3 bytes |
| Instructions | 2       |

```
      00 01 02 03 04 05 06 07  08 09 0A 0B 0C 0D 0E 0F
      -- -- -- -- -- -- -- --  -- -- -- -- -- -- -- --
0340:                                      22 01 00                 ".. 
```

#### Opcodes

```
  0: 0x034C [0x22] ENTITY_HIDE_FLAG(enabled=0x01)
  1: 0x034E [0x00] END_REQSTACK()
```

### Event 129

#### Metadata

| Field        | Value   |
|--------------|---------|
| Entrypoint   | 0x034F  |
| Data Size    | 3 bytes |
| Instructions | 2       |

```
      00 01 02 03 04 05 06 07  08 09 0A 0B 0C 0D 0E 0F
      -- -- -- -- -- -- -- --  -- -- -- -- -- -- -- --
0340:                                               22                 "
0350: 01 00                                             ..              
```

#### Opcodes

```
  0: 0x034F [0x22] ENTITY_HIDE_FLAG(enabled=0x01)
  1: 0x0351 [0x00] END_REQSTACK()
```

### Event 84

#### Metadata

| Field        | Value    |
|--------------|----------|
| Entrypoint   | 0x0352   |
| Data Size    | 10 bytes |
| Instructions | 2        |

```
      00 01 02 03 04 05 06 07  08 09 0A 0B 0C 0D 0E 0F
      -- -- -- -- -- -- -- --  -- -- -- -- -- -- -- --
0350:       37 61 80 62 80 63  80 64 80 00                7a.b.c.d..    
```

#### Opcodes

```
  0: 0x0352 [0x37] UPDATE_EVENT_POSITION_AND_DIR: x=-104.361*, z=92.871*, y=-0.199*, direction=61.1°*
  1: 0x035B [0x00] END_REQSTACK()
```

### Event 204

#### Metadata

| Field        | Value    |
|--------------|----------|
| Entrypoint   | 0x035C   |
| Data Size    | 10 bytes |
| Instructions | 2        |

```
      00 01 02 03 04 05 06 07  08 09 0A 0B 0C 0D 0E 0F
      -- -- -- -- -- -- -- --  -- -- -- -- -- -- -- --
0350:                                      37 61 80 62              7a.b
0360: 80 63 80 64 80 00                                 .c.d..          
```

#### Opcodes

```
  0: 0x035C [0x37] UPDATE_EVENT_POSITION_AND_DIR: x=-104.361*, z=92.871*, y=-0.199*, direction=61.1°*
  1: 0x0365 [0x00] END_REQSTACK()
```

### Event 205

#### Metadata

| Field        | Value    |
|--------------|----------|
| Entrypoint   | 0x0366   |
| Data Size    | 10 bytes |
| Instructions | 2        |

```
      00 01 02 03 04 05 06 07  08 09 0A 0B 0C 0D 0E 0F
      -- -- -- -- -- -- -- --  -- -- -- -- -- -- -- --
0360:                   37 61  80 62 80 63 80 64 80 00        7a.b.c.d..
```

#### Opcodes

```
  0: 0x0366 [0x37] UPDATE_EVENT_POSITION_AND_DIR: x=-104.361*, z=92.871*, y=-0.199*, direction=61.1°*
  1: 0x036F [0x00] END_REQSTACK()
```
