# 17776766 - Ulmia

## Common Data

| Field            | Value                 |
|------------------|-----------------------|
| Zone             | Upper Jeuno (ID: 244) |
| Block Size       | 1588 bytes            |
| Total Events     | 76                    |
| References Count | 34                    |

## List of Events

| Event ID                   | Entrypoint   |   Size |   Instructions |
|----------------------------|--------------|--------|----------------|
| [65535](#event-65535)      | 0x0000       |      1 |              1 |
| [65535.1](#event-655351)   | 0x0001       |     16 |              2 |
| [65535.2](#event-655352)   | 0x0011       |     14 |              2 |
| [65535.3](#event-655353)   | 0x001F       |     16 |              2 |
| [65535.4](#event-655354)   | 0x002F       |     14 |              2 |
| [65535.5](#event-655355)   | 0x003D       |     16 |              2 |
| [65535.6](#event-655356)   | 0x004D       |     14 |              2 |
| [65535.7](#event-655357)   | 0x005B       |     16 |              2 |
| [65535.8](#event-655358)   | 0x006B       |     14 |              2 |
| [65535.9](#event-655359)   | 0x0079       |     16 |              2 |
| [65535.10](#event-6553510) | 0x0089       |     14 |              2 |
| [65535.11](#event-6553511) | 0x0097       |     16 |              2 |
| [65535.12](#event-6553512) | 0x00A7       |     14 |              2 |
| [65535.13](#event-6553513) | 0x00B5       |     16 |              2 |
| [65535.14](#event-6553514) | 0x00C5       |     14 |              2 |
| [65535.15](#event-6553515) | 0x00D3       |     16 |              2 |
| [65535.16](#event-6553516) | 0x00E3       |     14 |              2 |
| [65535.17](#event-6553517) | 0x00F1       |     16 |              2 |
| [65535.18](#event-6553518) | 0x0101       |     14 |              2 |
| [65535.19](#event-6553519) | 0x010F       |     16 |              2 |
| [65535.20](#event-6553520) | 0x011F       |     14 |              2 |
| [65535.21](#event-6553521) | 0x012D       |     16 |              2 |
| [65535.22](#event-6553522) | 0x013D       |     14 |              2 |
| [65535.23](#event-6553523) | 0x014B       |     16 |              2 |
| [65535.24](#event-6553524) | 0x015B       |     14 |              2 |
| [65535.25](#event-6553525) | 0x0169       |     16 |              2 |
| [65535.26](#event-6553526) | 0x0179       |     14 |              2 |
| [65535.27](#event-6553527) | 0x0187       |     16 |              2 |
| [65535.28](#event-6553528) | 0x0197       |     14 |              2 |
| [65535.29](#event-6553529) | 0x01A5       |     16 |              2 |
| [65535.30](#event-6553530) | 0x01B5       |     14 |              2 |
| [65535.31](#event-6553531) | 0x01C3       |     16 |              2 |
| [65535.32](#event-6553532) | 0x01D3       |     14 |              2 |
| [65535.33](#event-6553533) | 0x01E1       |     16 |              2 |
| [65535.34](#event-6553534) | 0x01F1       |     14 |              2 |
| [65535.35](#event-6553535) | 0x01FF       |     22 |              3 |
| [65535.36](#event-6553536) | 0x0215       |     14 |              2 |
| [65535.37](#event-6553537) | 0x0223       |     16 |              2 |
| [65535.38](#event-6553538) | 0x0233       |     20 |              3 |
| [65535.39](#event-6553539) | 0x0247       |     16 |              2 |
| [65535.40](#event-6553540) | 0x0257       |     14 |              2 |
| [65535.41](#event-6553541) | 0x0265       |     16 |              2 |
| [65535.42](#event-6553542) | 0x0275       |     14 |              2 |
| [65535.43](#event-6553543) | 0x0283       |     16 |              2 |
| [65535.44](#event-6553544) | 0x0293       |     14 |              2 |
| [65535.45](#event-6553545) | 0x02A1       |     16 |              2 |
| [65535.46](#event-6553546) | 0x02B1       |     14 |              2 |
| [65535.47](#event-6553547) | 0x02BF       |     16 |              2 |
| [65535.48](#event-6553548) | 0x02CF       |     14 |              2 |
| [65535.49](#event-6553549) | 0x02DD       |     16 |              2 |
| [65535.50](#event-6553550) | 0x02ED       |     14 |              2 |
| [65535.51](#event-6553551) | 0x02FB       |     16 |              2 |
| [65535.52](#event-6553552) | 0x030B       |     14 |              2 |
| [65535.53](#event-6553553) | 0x0319       |     16 |              2 |
| [65535.54](#event-6553554) | 0x0329       |     14 |              2 |
| [65535.55](#event-6553555) | 0x0337       |     16 |              2 |
| [65535.56](#event-6553556) | 0x0347       |     14 |              2 |
| [65535.57](#event-6553557) | 0x0355       |     16 |              2 |
| [65535.58](#event-6553558) | 0x0365       |     14 |              2 |
| [65535.59](#event-6553559) | 0x0373       |     16 |              2 |
| [65535.60](#event-6553560) | 0x0383       |     14 |              2 |
| [65535.61](#event-6553561) | 0x0391       |     28 |              4 |
| [65535.62](#event-6553562) | 0x03AD       |     14 |              2 |
| [65535.63](#event-6553563) | 0x03BB       |     16 |              2 |
| [65535.64](#event-6553564) | 0x03CB       |     26 |              4 |
| [65535.65](#event-6553565) | 0x03E5       |      9 |              3 |
| [10011](#event-10011)      | 0x03EE       |     13 |              3 |
| [65535.66](#event-6553566) | 0x03FB       |     10 |              2 |
| [65535.67](#event-6553567) | 0x0405       |     15 |              5 |
| [65535.68](#event-6553568) | 0x0414       |     10 |              2 |
| [65535.69](#event-6553569) | 0x041E       |     15 |              5 |
| [65535.70](#event-6553570) | 0x042D       |     14 |              4 |
| [10012](#event-10012)      | 0x043B       |     13 |              3 |
| [65535.71](#event-6553571) | 0x0448       |     10 |              2 |
| [65535.72](#event-6553572) | 0x0452       |     14 |              4 |
| [65535.73](#event-6553573) | 0x0460       |     10 |              2 |

## DAT References (imed_data)

|   Index | Hex Value   |   Dec Value |
|---------|-------------|-------------|
|       0 | 0x01A4      |         420 |
|       1 | 0x01A5      |         421 |
|       2 | 0x01A6      |         422 |
|       3 | 0x01A7      |         423 |
|       4 | 0x0279      |         633 |
|       5 | 0x001E      |          30 |
|       6 | 0xFFFE8560  |  4294870368 |
|       7 | 0x162DB     |       90843 |
|       8 | 0xFFFFFF39  |  4294967097 |
|       9 | 0x0726      |        1830 |
|      10 | 0x000D      |          13 |
|      11 | 0xFFFE7A5D  |  4294867549 |
|      12 | 0x15E02     |       89602 |
|      13 | 0xFFFFFF29  |  4294967081 |
|      14 | 0xFFFE6AE1  |  4294863585 |
|      15 | 0x1588D     |       88205 |
|      16 | 0xFFFFFF2D  |  4294967085 |
|      17 | 0x070B      |        1803 |
|      18 | 0xFFFE708D  |  4294865037 |
|      19 | 0x15AC4     |       88772 |
|      20 | 0x0028      |          40 |
|      21 | 0xFFFEB823  |  4294883363 |
|      22 | 0x182B3     |       98995 |
|      23 | 0x0000      |           0 |
|      24 | 0xFFFE9412  |  4294874130 |
|      25 | 0x16A91     |       92817 |
|      26 | 0x03E7      |         999 |
|      27 | 0x0822      |        2082 |
|      28 | 0xFFFE7C20  |  4294868000 |
|      29 | 0x15DCF     |       89551 |
|      30 | 0xFFFE6D6F  |  4294864239 |
|      31 | 0x15435     |       87093 |
|      32 | 0xFFFFFF19  |  4294967065 |
|      33 | 0x0CB2      |        3250 |

## Events

### Event 65535

#### Metadata

| Field        | Value   |
|--------------|---------|
| Entrypoint   | 0x0000  |
| Data Size    | 1 bytes |
| Instructions | 1       |

```
      00 01 02 03 04 05 06 07  08 09 0A 0B 0C 0D 0E 0F
      -- -- -- -- -- -- -- --  -- -- -- -- -- -- -- --
0000: 00                                                .               
```

#### Opcodes

```
  0: 0x0000 [0x00] END_REQSTACK()
```

### Event 65535.1

#### Metadata

| Field        | Value    |
|--------------|----------|
| Entrypoint   | 0x0001   |
| Data Size    | 16 bytes |
| Instructions | 2        |

```
      00 01 02 03 04 05 06 07  08 09 0A 0B 0C 0D 0E 0F
      -- -- -- -- -- -- -- --  -- -- -- -- -- -- -- --
0000:    5B 00 80 F8 FF FF 7F  F8 FF FF 7F 74 6C 61 30   [..........tla0
0010: 00                                                .               
```

#### Opcodes

```
  0: 0x0001 [0x5B] LOAD_EXT_SCHEDULER: Load scheduler "tla0" with entities [EventEntity, EventEntity], work=420*
  1: 0x0010 [0x00] END_REQSTACK()
```

### Event 65535.2

#### Metadata

| Field        | Value    |
|--------------|----------|
| Entrypoint   | 0x0011   |
| Data Size    | 14 bytes |
| Instructions | 2        |

```
      00 01 02 03 04 05 06 07  08 09 0A 0B 0C 0D 0E 0F
      -- -- -- -- -- -- -- --  -- -- -- -- -- -- -- --
0010:    53 F8 FF FF 7F F8 FF  FF 7F 74 6C 61 30 00      S........tla0. 
```

#### Opcodes

```
  0: 0x0011 [0x53] WAIT_SCHEDULER_TASK: Wait for scheduler "tla0" with entities [EventEntity, EventEntity]
  1: 0x001E [0x00] END_REQSTACK()
```

### Event 65535.3

#### Metadata

| Field        | Value    |
|--------------|----------|
| Entrypoint   | 0x001F   |
| Data Size    | 16 bytes |
| Instructions | 2        |

```
      00 01 02 03 04 05 06 07  08 09 0A 0B 0C 0D 0E 0F
      -- -- -- -- -- -- -- --  -- -- -- -- -- -- -- --
0010:                                               5B                 [
0020: 00 80 F8 FF FF 7F F8 FF  FF 7F 74 6C 61 31 00     ..........tla1. 
```

#### Opcodes

```
  0: 0x001F [0x5B] LOAD_EXT_SCHEDULER: Load scheduler "tla1" with entities [EventEntity, EventEntity], work=420*
  1: 0x002E [0x00] END_REQSTACK()
```

### Event 65535.4

#### Metadata

| Field        | Value    |
|--------------|----------|
| Entrypoint   | 0x002F   |
| Data Size    | 14 bytes |
| Instructions | 2        |

```
      00 01 02 03 04 05 06 07  08 09 0A 0B 0C 0D 0E 0F
      -- -- -- -- -- -- -- --  -- -- -- -- -- -- -- --
0020:                                               53                 S
0030: F8 FF FF 7F F8 FF FF 7F  74 6C 61 31 00           ........tla1.   
```

#### Opcodes

```
  0: 0x002F [0x53] WAIT_SCHEDULER_TASK: Wait for scheduler "tla1" with entities [EventEntity, EventEntity]
  1: 0x003C [0x00] END_REQSTACK()
```

### Event 65535.5

#### Metadata

| Field        | Value    |
|--------------|----------|
| Entrypoint   | 0x003D   |
| Data Size    | 16 bytes |
| Instructions | 2        |

```
      00 01 02 03 04 05 06 07  08 09 0A 0B 0C 0D 0E 0F
      -- -- -- -- -- -- -- --  -- -- -- -- -- -- -- --
0030:                                         5B 00 80               [..
0040: F8 FF FF 7F F8 FF FF 7F  74 6C 62 30 00           ........tlb0.   
```

#### Opcodes

```
  0: 0x003D [0x5B] LOAD_EXT_SCHEDULER: Load scheduler "tlb0" with entities [EventEntity, EventEntity], work=420*
  1: 0x004C [0x00] END_REQSTACK()
```

### Event 65535.6

#### Metadata

| Field        | Value    |
|--------------|----------|
| Entrypoint   | 0x004D   |
| Data Size    | 14 bytes |
| Instructions | 2        |

```
      00 01 02 03 04 05 06 07  08 09 0A 0B 0C 0D 0E 0F
      -- -- -- -- -- -- -- --  -- -- -- -- -- -- -- --
0040:                                         53 F8 FF               S..
0050: FF 7F F8 FF FF 7F 74 6C  62 30 00                 ......tlb0.     
```

#### Opcodes

```
  0: 0x004D [0x53] WAIT_SCHEDULER_TASK: Wait for scheduler "tlb0" with entities [EventEntity, EventEntity]
  1: 0x005A [0x00] END_REQSTACK()
```

### Event 65535.7

#### Metadata

| Field        | Value    |
|--------------|----------|
| Entrypoint   | 0x005B   |
| Data Size    | 16 bytes |
| Instructions | 2        |

```
      00 01 02 03 04 05 06 07  08 09 0A 0B 0C 0D 0E 0F
      -- -- -- -- -- -- -- --  -- -- -- -- -- -- -- --
0050:                                   5B 00 80 F8 FF             [....
0060: FF 7F F8 FF FF 7F 74 6C  62 31 00                 ......tlb1.     
```

#### Opcodes

```
  0: 0x005B [0x5B] LOAD_EXT_SCHEDULER: Load scheduler "tlb1" with entities [EventEntity, EventEntity], work=420*
  1: 0x006A [0x00] END_REQSTACK()
```

### Event 65535.8

#### Metadata

| Field        | Value    |
|--------------|----------|
| Entrypoint   | 0x006B   |
| Data Size    | 14 bytes |
| Instructions | 2        |

```
      00 01 02 03 04 05 06 07  08 09 0A 0B 0C 0D 0E 0F
      -- -- -- -- -- -- -- --  -- -- -- -- -- -- -- --
0060:                                   53 F8 FF FF 7F             S....
0070: F8 FF FF 7F 74 6C 62 31  00                       ....tlb1.       
```

#### Opcodes

```
  0: 0x006B [0x53] WAIT_SCHEDULER_TASK: Wait for scheduler "tlb1" with entities [EventEntity, EventEntity]
  1: 0x0078 [0x00] END_REQSTACK()
```

### Event 65535.9

#### Metadata

| Field        | Value    |
|--------------|----------|
| Entrypoint   | 0x0079   |
| Data Size    | 16 bytes |
| Instructions | 2        |

```
      00 01 02 03 04 05 06 07  08 09 0A 0B 0C 0D 0E 0F
      -- -- -- -- -- -- -- --  -- -- -- -- -- -- -- --
0070:                             5B 00 80 F8 FF FF 7F           [......
0080: F8 FF FF 7F 74 6C 63 30  00                       ....tlc0.       
```

#### Opcodes

```
  0: 0x0079 [0x5B] LOAD_EXT_SCHEDULER: Load scheduler "tlc0" with entities [EventEntity, EventEntity], work=420*
  1: 0x0088 [0x00] END_REQSTACK()
```

### Event 65535.10

#### Metadata

| Field        | Value    |
|--------------|----------|
| Entrypoint   | 0x0089   |
| Data Size    | 14 bytes |
| Instructions | 2        |

```
      00 01 02 03 04 05 06 07  08 09 0A 0B 0C 0D 0E 0F
      -- -- -- -- -- -- -- --  -- -- -- -- -- -- -- --
0080:                             53 F8 FF FF 7F F8 FF           S......
0090: FF 7F 74 6C 63 30 00                              ..tlc0.         
```

#### Opcodes

```
  0: 0x0089 [0x53] WAIT_SCHEDULER_TASK: Wait for scheduler "tlc0" with entities [EventEntity, EventEntity]
  1: 0x0096 [0x00] END_REQSTACK()
```

### Event 65535.11

#### Metadata

| Field        | Value    |
|--------------|----------|
| Entrypoint   | 0x0097   |
| Data Size    | 16 bytes |
| Instructions | 2        |

```
      00 01 02 03 04 05 06 07  08 09 0A 0B 0C 0D 0E 0F
      -- -- -- -- -- -- -- --  -- -- -- -- -- -- -- --
0090:                      5B  00 80 F8 FF FF 7F F8 FF         [........
00A0: FF 7F 74 6C 63 31 00                              ..tlc1.         
```

#### Opcodes

```
  0: 0x0097 [0x5B] LOAD_EXT_SCHEDULER: Load scheduler "tlc1" with entities [EventEntity, EventEntity], work=420*
  1: 0x00A6 [0x00] END_REQSTACK()
```

### Event 65535.12

#### Metadata

| Field        | Value    |
|--------------|----------|
| Entrypoint   | 0x00A7   |
| Data Size    | 14 bytes |
| Instructions | 2        |

```
      00 01 02 03 04 05 06 07  08 09 0A 0B 0C 0D 0E 0F
      -- -- -- -- -- -- -- --  -- -- -- -- -- -- -- --
00A0:                      53  F8 FF FF 7F F8 FF FF 7F         S........
00B0: 74 6C 63 31 00                                    tlc1.           
```

#### Opcodes

```
  0: 0x00A7 [0x53] WAIT_SCHEDULER_TASK: Wait for scheduler "tlc1" with entities [EventEntity, EventEntity]
  1: 0x00B4 [0x00] END_REQSTACK()
```

### Event 65535.13

#### Metadata

| Field        | Value    |
|--------------|----------|
| Entrypoint   | 0x00B5   |
| Data Size    | 16 bytes |
| Instructions | 2        |

```
      00 01 02 03 04 05 06 07  08 09 0A 0B 0C 0D 0E 0F
      -- -- -- -- -- -- -- --  -- -- -- -- -- -- -- --
00B0:                5B 00 80  F8 FF FF 7F F8 FF FF 7F       [..........
00C0: 74 63 74 68 00                                    tcth.           
```

#### Opcodes

```
  0: 0x00B5 [0x5B] LOAD_EXT_SCHEDULER: Load scheduler "tcth" with entities [EventEntity, EventEntity], work=420*
  1: 0x00C4 [0x00] END_REQSTACK()
```

### Event 65535.14

#### Metadata

| Field        | Value    |
|--------------|----------|
| Entrypoint   | 0x00C5   |
| Data Size    | 14 bytes |
| Instructions | 2        |

```
      00 01 02 03 04 05 06 07  08 09 0A 0B 0C 0D 0E 0F
      -- -- -- -- -- -- -- --  -- -- -- -- -- -- -- --
00C0:                53 F8 FF  FF 7F F8 FF FF 7F 74 63       S........tc
00D0: 74 68 00                                          th.             
```

#### Opcodes

```
  0: 0x00C5 [0x53] WAIT_SCHEDULER_TASK: Wait for scheduler "tcth" with entities [EventEntity, EventEntity]
  1: 0x00D2 [0x00] END_REQSTACK()
```

### Event 65535.15

#### Metadata

| Field        | Value    |
|--------------|----------|
| Entrypoint   | 0x00D3   |
| Data Size    | 16 bytes |
| Instructions | 2        |

```
      00 01 02 03 04 05 06 07  08 09 0A 0B 0C 0D 0E 0F
      -- -- -- -- -- -- -- --  -- -- -- -- -- -- -- --
00D0:          5B 00 80 F8 FF  FF 7F F8 FF FF 7F 74 63     [..........tc
00E0: 61 30 00                                          a0.             
```

#### Opcodes

```
  0: 0x00D3 [0x5B] LOAD_EXT_SCHEDULER: Load scheduler "tca0" with entities [EventEntity, EventEntity], work=420*
  1: 0x00E2 [0x00] END_REQSTACK()
```

### Event 65535.16

#### Metadata

| Field        | Value    |
|--------------|----------|
| Entrypoint   | 0x00E3   |
| Data Size    | 14 bytes |
| Instructions | 2        |

```
      00 01 02 03 04 05 06 07  08 09 0A 0B 0C 0D 0E 0F
      -- -- -- -- -- -- -- --  -- -- -- -- -- -- -- --
00E0:          53 F8 FF FF 7F  F8 FF FF 7F 74 63 61 30     S........tca0
00F0: 00                                                .               
```

#### Opcodes

```
  0: 0x00E3 [0x53] WAIT_SCHEDULER_TASK: Wait for scheduler "tca0" with entities [EventEntity, EventEntity]
  1: 0x00F0 [0x00] END_REQSTACK()
```

### Event 65535.17

#### Metadata

| Field        | Value    |
|--------------|----------|
| Entrypoint   | 0x00F1   |
| Data Size    | 16 bytes |
| Instructions | 2        |

```
      00 01 02 03 04 05 06 07  08 09 0A 0B 0C 0D 0E 0F
      -- -- -- -- -- -- -- --  -- -- -- -- -- -- -- --
00F0:    5B 00 80 F8 FF FF 7F  F8 FF FF 7F 74 62 61 30   [..........tba0
0100: 00                                                .               
```

#### Opcodes

```
  0: 0x00F1 [0x5B] LOAD_EXT_SCHEDULER: Load scheduler "tba0" with entities [EventEntity, EventEntity], work=420*
  1: 0x0100 [0x00] END_REQSTACK()
```

### Event 65535.18

#### Metadata

| Field        | Value    |
|--------------|----------|
| Entrypoint   | 0x0101   |
| Data Size    | 14 bytes |
| Instructions | 2        |

```
      00 01 02 03 04 05 06 07  08 09 0A 0B 0C 0D 0E 0F
      -- -- -- -- -- -- -- --  -- -- -- -- -- -- -- --
0100:    53 F8 FF FF 7F F8 FF  FF 7F 74 62 61 30 00      S........tba0. 
```

#### Opcodes

```
  0: 0x0101 [0x53] WAIT_SCHEDULER_TASK: Wait for scheduler "tba0" with entities [EventEntity, EventEntity]
  1: 0x010E [0x00] END_REQSTACK()
```

### Event 65535.19

#### Metadata

| Field        | Value    |
|--------------|----------|
| Entrypoint   | 0x010F   |
| Data Size    | 16 bytes |
| Instructions | 2        |

```
      00 01 02 03 04 05 06 07  08 09 0A 0B 0C 0D 0E 0F
      -- -- -- -- -- -- -- --  -- -- -- -- -- -- -- --
0100:                                               5B                 [
0110: 00 80 F8 FF FF 7F F8 FF  FF 7F 74 61 62 30 00     ..........tab0. 
```

#### Opcodes

```
  0: 0x010F [0x5B] LOAD_EXT_SCHEDULER: Load scheduler "tab0" with entities [EventEntity, EventEntity], work=420*
  1: 0x011E [0x00] END_REQSTACK()
```

### Event 65535.20

#### Metadata

| Field        | Value    |
|--------------|----------|
| Entrypoint   | 0x011F   |
| Data Size    | 14 bytes |
| Instructions | 2        |

```
      00 01 02 03 04 05 06 07  08 09 0A 0B 0C 0D 0E 0F
      -- -- -- -- -- -- -- --  -- -- -- -- -- -- -- --
0110:                                               53                 S
0120: F8 FF FF 7F F8 FF FF 7F  74 61 62 30 00           ........tab0.   
```

#### Opcodes

```
  0: 0x011F [0x53] WAIT_SCHEDULER_TASK: Wait for scheduler "tab0" with entities [EventEntity, EventEntity]
  1: 0x012C [0x00] END_REQSTACK()
```

### Event 65535.21

#### Metadata

| Field        | Value    |
|--------------|----------|
| Entrypoint   | 0x012D   |
| Data Size    | 16 bytes |
| Instructions | 2        |

```
      00 01 02 03 04 05 06 07  08 09 0A 0B 0C 0D 0E 0F
      -- -- -- -- -- -- -- --  -- -- -- -- -- -- -- --
0120:                                         5B 00 80               [..
0130: F8 FF FF 7F F8 FF FF 7F  74 61 74 68 00           ........tath.   
```

#### Opcodes

```
  0: 0x012D [0x5B] LOAD_EXT_SCHEDULER: Load scheduler "tath" with entities [EventEntity, EventEntity], work=420*
  1: 0x013C [0x00] END_REQSTACK()
```

### Event 65535.22

#### Metadata

| Field        | Value    |
|--------------|----------|
| Entrypoint   | 0x013D   |
| Data Size    | 14 bytes |
| Instructions | 2        |

```
      00 01 02 03 04 05 06 07  08 09 0A 0B 0C 0D 0E 0F
      -- -- -- -- -- -- -- --  -- -- -- -- -- -- -- --
0130:                                         53 F8 FF               S..
0140: FF 7F F8 FF FF 7F 74 61  74 68 00                 ......tath.     
```

#### Opcodes

```
  0: 0x013D [0x53] WAIT_SCHEDULER_TASK: Wait for scheduler "tath" with entities [EventEntity, EventEntity]
  1: 0x014A [0x00] END_REQSTACK()
```

### Event 65535.23

#### Metadata

| Field        | Value    |
|--------------|----------|
| Entrypoint   | 0x014B   |
| Data Size    | 16 bytes |
| Instructions | 2        |

```
      00 01 02 03 04 05 06 07  08 09 0A 0B 0C 0D 0E 0F
      -- -- -- -- -- -- -- --  -- -- -- -- -- -- -- --
0140:                                   5B 00 80 F8 FF             [....
0150: FF 7F F8 FF FF 7F 74 61  63 30 00                 ......tac0.     
```

#### Opcodes

```
  0: 0x014B [0x5B] LOAD_EXT_SCHEDULER: Load scheduler "tac0" with entities [EventEntity, EventEntity], work=420*
  1: 0x015A [0x00] END_REQSTACK()
```

### Event 65535.24

#### Metadata

| Field        | Value    |
|--------------|----------|
| Entrypoint   | 0x015B   |
| Data Size    | 14 bytes |
| Instructions | 2        |

```
      00 01 02 03 04 05 06 07  08 09 0A 0B 0C 0D 0E 0F
      -- -- -- -- -- -- -- --  -- -- -- -- -- -- -- --
0150:                                   53 F8 FF FF 7F             S....
0160: F8 FF FF 7F 74 61 63 30  00                       ....tac0.       
```

#### Opcodes

```
  0: 0x015B [0x53] WAIT_SCHEDULER_TASK: Wait for scheduler "tac0" with entities [EventEntity, EventEntity]
  1: 0x0168 [0x00] END_REQSTACK()
```

### Event 65535.25

#### Metadata

| Field        | Value    |
|--------------|----------|
| Entrypoint   | 0x0169   |
| Data Size    | 16 bytes |
| Instructions | 2        |

```
      00 01 02 03 04 05 06 07  08 09 0A 0B 0C 0D 0E 0F
      -- -- -- -- -- -- -- --  -- -- -- -- -- -- -- --
0160:                             5B 00 80 F8 FF FF 7F           [......
0170: F8 FF FF 7F 68 74 61 30  00                       ....hta0.       
```

#### Opcodes

```
  0: 0x0169 [0x5B] LOAD_EXT_SCHEDULER: Load scheduler "hta0" with entities [EventEntity, EventEntity], work=420*
  1: 0x0178 [0x00] END_REQSTACK()
```

### Event 65535.26

#### Metadata

| Field        | Value    |
|--------------|----------|
| Entrypoint   | 0x0179   |
| Data Size    | 14 bytes |
| Instructions | 2        |

```
      00 01 02 03 04 05 06 07  08 09 0A 0B 0C 0D 0E 0F
      -- -- -- -- -- -- -- --  -- -- -- -- -- -- -- --
0170:                             53 F8 FF FF 7F F8 FF           S......
0180: FF 7F 68 74 61 30 00                              ..hta0.         
```

#### Opcodes

```
  0: 0x0179 [0x53] WAIT_SCHEDULER_TASK: Wait for scheduler "hta0" with entities [EventEntity, EventEntity]
  1: 0x0186 [0x00] END_REQSTACK()
```

### Event 65535.27

#### Metadata

| Field        | Value    |
|--------------|----------|
| Entrypoint   | 0x0187   |
| Data Size    | 16 bytes |
| Instructions | 2        |

```
      00 01 02 03 04 05 06 07  08 09 0A 0B 0C 0D 0E 0F
      -- -- -- -- -- -- -- --  -- -- -- -- -- -- -- --
0180:                      5B  00 80 F8 FF FF 7F F8 FF         [........
0190: FF 7F 62 69 6B 30 00                              ..bik0.         
```

#### Opcodes

```
  0: 0x0187 [0x5B] LOAD_EXT_SCHEDULER: Load scheduler "bik0" with entities [EventEntity, EventEntity], work=420*
  1: 0x0196 [0x00] END_REQSTACK()
```

### Event 65535.28

#### Metadata

| Field        | Value    |
|--------------|----------|
| Entrypoint   | 0x0197   |
| Data Size    | 14 bytes |
| Instructions | 2        |

```
      00 01 02 03 04 05 06 07  08 09 0A 0B 0C 0D 0E 0F
      -- -- -- -- -- -- -- --  -- -- -- -- -- -- -- --
0190:                      53  F8 FF FF 7F F8 FF FF 7F         S........
01A0: 62 69 6B 30 00                                    bik0.           
```

#### Opcodes

```
  0: 0x0197 [0x53] WAIT_SCHEDULER_TASK: Wait for scheduler "bik0" with entities [EventEntity, EventEntity]
  1: 0x01A4 [0x00] END_REQSTACK()
```

### Event 65535.29

#### Metadata

| Field        | Value    |
|--------------|----------|
| Entrypoint   | 0x01A5   |
| Data Size    | 16 bytes |
| Instructions | 2        |

```
      00 01 02 03 04 05 06 07  08 09 0A 0B 0C 0D 0E 0F
      -- -- -- -- -- -- -- --  -- -- -- -- -- -- -- --
01A0:                5B 00 80  F8 FF FF 7F F8 FF FF 7F       [..........
01B0: 62 69 6B 31 00                                    bik1.           
```

#### Opcodes

```
  0: 0x01A5 [0x5B] LOAD_EXT_SCHEDULER: Load scheduler "bik1" with entities [EventEntity, EventEntity], work=420*
  1: 0x01B4 [0x00] END_REQSTACK()
```

### Event 65535.30

#### Metadata

| Field        | Value    |
|--------------|----------|
| Entrypoint   | 0x01B5   |
| Data Size    | 14 bytes |
| Instructions | 2        |

```
      00 01 02 03 04 05 06 07  08 09 0A 0B 0C 0D 0E 0F
      -- -- -- -- -- -- -- --  -- -- -- -- -- -- -- --
01B0:                53 F8 FF  FF 7F F8 FF FF 7F 62 69       S........bi
01C0: 6B 31 00                                          k1.             
```

#### Opcodes

```
  0: 0x01B5 [0x53] WAIT_SCHEDULER_TASK: Wait for scheduler "bik1" with entities [EventEntity, EventEntity]
  1: 0x01C2 [0x00] END_REQSTACK()
```

### Event 65535.31

#### Metadata

| Field        | Value    |
|--------------|----------|
| Entrypoint   | 0x01C3   |
| Data Size    | 16 bytes |
| Instructions | 2        |

```
      00 01 02 03 04 05 06 07  08 09 0A 0B 0C 0D 0E 0F
      -- -- -- -- -- -- -- --  -- -- -- -- -- -- -- --
01C0:          5B 00 80 F8 FF  FF 7F F8 FF FF 7F 74 68     [..........th
01D0: 6B 30 00                                          k0.             
```

#### Opcodes

```
  0: 0x01C3 [0x5B] LOAD_EXT_SCHEDULER: Load scheduler "thk0" with entities [EventEntity, EventEntity], work=420*
  1: 0x01D2 [0x00] END_REQSTACK()
```

### Event 65535.32

#### Metadata

| Field        | Value    |
|--------------|----------|
| Entrypoint   | 0x01D3   |
| Data Size    | 14 bytes |
| Instructions | 2        |

```
      00 01 02 03 04 05 06 07  08 09 0A 0B 0C 0D 0E 0F
      -- -- -- -- -- -- -- --  -- -- -- -- -- -- -- --
01D0:          53 F8 FF FF 7F  F8 FF FF 7F 74 68 6B 30     S........thk0
01E0: 00                                                .               
```

#### Opcodes

```
  0: 0x01D3 [0x53] WAIT_SCHEDULER_TASK: Wait for scheduler "thk0" with entities [EventEntity, EventEntity]
  1: 0x01E0 [0x00] END_REQSTACK()
```

### Event 65535.33

#### Metadata

| Field        | Value    |
|--------------|----------|
| Entrypoint   | 0x01E1   |
| Data Size    | 16 bytes |
| Instructions | 2        |

```
      00 01 02 03 04 05 06 07  08 09 0A 0B 0C 0D 0E 0F
      -- -- -- -- -- -- -- --  -- -- -- -- -- -- -- --
01E0:    5B 00 80 F8 FF FF 7F  F8 FF FF 7F 74 68 6B 31   [..........thk1
01F0: 00                                                .               
```

#### Opcodes

```
  0: 0x01E1 [0x5B] LOAD_EXT_SCHEDULER: Load scheduler "thk1" with entities [EventEntity, EventEntity], work=420*
  1: 0x01F0 [0x00] END_REQSTACK()
```

### Event 65535.34

#### Metadata

| Field        | Value    |
|--------------|----------|
| Entrypoint   | 0x01F1   |
| Data Size    | 14 bytes |
| Instructions | 2        |

```
      00 01 02 03 04 05 06 07  08 09 0A 0B 0C 0D 0E 0F
      -- -- -- -- -- -- -- --  -- -- -- -- -- -- -- --
01F0:    53 F8 FF FF 7F F8 FF  FF 7F 74 68 6B 31 00      S........thk1. 
```

#### Opcodes

```
  0: 0x01F1 [0x53] WAIT_SCHEDULER_TASK: Wait for scheduler "thk1" with entities [EventEntity, EventEntity]
  1: 0x01FE [0x00] END_REQSTACK()
```

### Event 65535.35

#### Metadata

| Field        | Value    |
|--------------|----------|
| Entrypoint   | 0x01FF   |
| Data Size    | 22 bytes |
| Instructions | 3        |

```
      00 01 02 03 04 05 06 07  08 09 0A 0B 0C 0D 0E 0F
      -- -- -- -- -- -- -- --  -- -- -- -- -- -- -- --
01F0:                                               81                 .
0200: 00 F8 FF FF 7F 5B 01 80  F8 FF FF 7F F8 FF FF 7F  .....[..........
0210: 68 72 70 32 00                                    hrp2.           
```

#### Opcodes

```
  0: 0x01FF [0x81] SET_ENTITY_BLINKING(blink_flag=0x00, entity=EventEntity)
  1: 0x0205 [0x5B] LOAD_EXT_SCHEDULER: Load scheduler "hrp2" with entities [EventEntity, EventEntity], work=421*
  2: 0x0214 [0x00] END_REQSTACK()
```

### Event 65535.36

#### Metadata

| Field        | Value    |
|--------------|----------|
| Entrypoint   | 0x0215   |
| Data Size    | 14 bytes |
| Instructions | 2        |

```
      00 01 02 03 04 05 06 07  08 09 0A 0B 0C 0D 0E 0F
      -- -- -- -- -- -- -- --  -- -- -- -- -- -- -- --
0210:                53 F8 FF  FF 7F F8 FF FF 7F 68 72       S........hr
0220: 70 32 00                                          p2.             
```

#### Opcodes

```
  0: 0x0215 [0x53] WAIT_SCHEDULER_TASK: Wait for scheduler "hrp2" with entities [EventEntity, EventEntity]
  1: 0x0222 [0x00] END_REQSTACK()
```

### Event 65535.37

#### Metadata

| Field        | Value    |
|--------------|----------|
| Entrypoint   | 0x0223   |
| Data Size    | 16 bytes |
| Instructions | 2        |

```
      00 01 02 03 04 05 06 07  08 09 0A 0B 0C 0D 0E 0F
      -- -- -- -- -- -- -- --  -- -- -- -- -- -- -- --
0220:          5B 01 80 F8 FF  FF 7F F8 FF FF 7F 68 72     [..........hr
0230: 70 33 00                                          p3.             
```

#### Opcodes

```
  0: 0x0223 [0x5B] LOAD_EXT_SCHEDULER: Load scheduler "hrp3" with entities [EventEntity, EventEntity], work=421*
  1: 0x0232 [0x00] END_REQSTACK()
```

### Event 65535.38

#### Metadata

| Field        | Value    |
|--------------|----------|
| Entrypoint   | 0x0233   |
| Data Size    | 20 bytes |
| Instructions | 3        |

```
      00 01 02 03 04 05 06 07  08 09 0A 0B 0C 0D 0E 0F
      -- -- -- -- -- -- -- --  -- -- -- -- -- -- -- --
0230:          53 F8 FF FF 7F  F8 FF FF 7F 68 72 70 33     S........hrp3
0240: 81 01 F8 FF FF 7F 00                              .......         
```

#### Opcodes

```
  0: 0x0233 [0x53] WAIT_SCHEDULER_TASK: Wait for scheduler "hrp3" with entities [EventEntity, EventEntity]
  1: 0x0240 [0x81] SET_ENTITY_BLINKING(blink_flag=0x01, entity=EventEntity)
  2: 0x0246 [0x00] END_REQSTACK()
```

### Event 65535.39

#### Metadata

| Field        | Value    |
|--------------|----------|
| Entrypoint   | 0x0247   |
| Data Size    | 16 bytes |
| Instructions | 2        |

```
      00 01 02 03 04 05 06 07  08 09 0A 0B 0C 0D 0E 0F
      -- -- -- -- -- -- -- --  -- -- -- -- -- -- -- --
0240:                      5B  02 80 F8 FF FF 7F F8 FF         [........
0250: FF 7F 74 6C 77 30 00                              ..tlw0.         
```

#### Opcodes

```
  0: 0x0247 [0x5B] LOAD_EXT_SCHEDULER: Load scheduler "tlw0" with entities [EventEntity, EventEntity], work=422*
  1: 0x0256 [0x00] END_REQSTACK()
```

### Event 65535.40

#### Metadata

| Field        | Value    |
|--------------|----------|
| Entrypoint   | 0x0257   |
| Data Size    | 14 bytes |
| Instructions | 2        |

```
      00 01 02 03 04 05 06 07  08 09 0A 0B 0C 0D 0E 0F
      -- -- -- -- -- -- -- --  -- -- -- -- -- -- -- --
0250:                      53  F8 FF FF 7F F8 FF FF 7F         S........
0260: 74 6C 77 30 00                                    tlw0.           
```

#### Opcodes

```
  0: 0x0257 [0x53] WAIT_SCHEDULER_TASK: Wait for scheduler "tlw0" with entities [EventEntity, EventEntity]
  1: 0x0264 [0x00] END_REQSTACK()
```

### Event 65535.41

#### Metadata

| Field        | Value    |
|--------------|----------|
| Entrypoint   | 0x0265   |
| Data Size    | 16 bytes |
| Instructions | 2        |

```
      00 01 02 03 04 05 06 07  08 09 0A 0B 0C 0D 0E 0F
      -- -- -- -- -- -- -- --  -- -- -- -- -- -- -- --
0260:                5B 02 80  F8 FF FF 7F F8 FF FF 7F       [..........
0270: 74 6C 77 31 00                                    tlw1.           
```

#### Opcodes

```
  0: 0x0265 [0x5B] LOAD_EXT_SCHEDULER: Load scheduler "tlw1" with entities [EventEntity, EventEntity], work=422*
  1: 0x0274 [0x00] END_REQSTACK()
```

### Event 65535.42

#### Metadata

| Field        | Value    |
|--------------|----------|
| Entrypoint   | 0x0275   |
| Data Size    | 14 bytes |
| Instructions | 2        |

```
      00 01 02 03 04 05 06 07  08 09 0A 0B 0C 0D 0E 0F
      -- -- -- -- -- -- -- --  -- -- -- -- -- -- -- --
0270:                53 F8 FF  FF 7F F8 FF FF 7F 74 6C       S........tl
0280: 77 31 00                                          w1.             
```

#### Opcodes

```
  0: 0x0275 [0x53] WAIT_SCHEDULER_TASK: Wait for scheduler "tlw1" with entities [EventEntity, EventEntity]
  1: 0x0282 [0x00] END_REQSTACK()
```

### Event 65535.43

#### Metadata

| Field        | Value    |
|--------------|----------|
| Entrypoint   | 0x0283   |
| Data Size    | 16 bytes |
| Instructions | 2        |

```
      00 01 02 03 04 05 06 07  08 09 0A 0B 0C 0D 0E 0F
      -- -- -- -- -- -- -- --  -- -- -- -- -- -- -- --
0280:          5B 02 80 F8 FF  FF 7F F8 FF FF 7F 6E 6F     [..........no
0290: 30 30 00                                          00.             
```

#### Opcodes

```
  0: 0x0283 [0x5B] LOAD_EXT_SCHEDULER: Load scheduler "no00" with entities [EventEntity, EventEntity], work=422*
  1: 0x0292 [0x00] END_REQSTACK()
```

### Event 65535.44

#### Metadata

| Field        | Value    |
|--------------|----------|
| Entrypoint   | 0x0293   |
| Data Size    | 14 bytes |
| Instructions | 2        |

```
      00 01 02 03 04 05 06 07  08 09 0A 0B 0C 0D 0E 0F
      -- -- -- -- -- -- -- --  -- -- -- -- -- -- -- --
0290:          53 F8 FF FF 7F  F8 FF FF 7F 6E 6F 30 30     S........no00
02A0: 00                                                .               
```

#### Opcodes

```
  0: 0x0293 [0x53] WAIT_SCHEDULER_TASK: Wait for scheduler "no00" with entities [EventEntity, EventEntity]
  1: 0x02A0 [0x00] END_REQSTACK()
```

### Event 65535.45

#### Metadata

| Field        | Value    |
|--------------|----------|
| Entrypoint   | 0x02A1   |
| Data Size    | 16 bytes |
| Instructions | 2        |

```
      00 01 02 03 04 05 06 07  08 09 0A 0B 0C 0D 0E 0F
      -- -- -- -- -- -- -- --  -- -- -- -- -- -- -- --
02A0:    5B 02 80 F8 FF FF 7F  F8 FF FF 7F 6E 6F 30 31   [..........no01
02B0: 00                                                .               
```

#### Opcodes

```
  0: 0x02A1 [0x5B] LOAD_EXT_SCHEDULER: Load scheduler "no01" with entities [EventEntity, EventEntity], work=422*
  1: 0x02B0 [0x00] END_REQSTACK()
```

### Event 65535.46

#### Metadata

| Field        | Value    |
|--------------|----------|
| Entrypoint   | 0x02B1   |
| Data Size    | 14 bytes |
| Instructions | 2        |

```
      00 01 02 03 04 05 06 07  08 09 0A 0B 0C 0D 0E 0F
      -- -- -- -- -- -- -- --  -- -- -- -- -- -- -- --
02B0:    53 F8 FF FF 7F F8 FF  FF 7F 6E 6F 30 31 00      S........no01. 
```

#### Opcodes

```
  0: 0x02B1 [0x53] WAIT_SCHEDULER_TASK: Wait for scheduler "no01" with entities [EventEntity, EventEntity]
  1: 0x02BE [0x00] END_REQSTACK()
```

### Event 65535.47

#### Metadata

| Field        | Value    |
|--------------|----------|
| Entrypoint   | 0x02BF   |
| Data Size    | 16 bytes |
| Instructions | 2        |

```
      00 01 02 03 04 05 06 07  08 09 0A 0B 0C 0D 0E 0F
      -- -- -- -- -- -- -- --  -- -- -- -- -- -- -- --
02B0:                                               5B                 [
02C0: 03 80 F8 FF FF 7F F8 FF  FF 7F 68 74 61 30 00     ..........hta0. 
```

#### Opcodes

```
  0: 0x02BF [0x5B] LOAD_EXT_SCHEDULER: Load scheduler "hta0" with entities [EventEntity, EventEntity], work=423*
  1: 0x02CE [0x00] END_REQSTACK()
```

### Event 65535.48

#### Metadata

| Field        | Value    |
|--------------|----------|
| Entrypoint   | 0x02CF   |
| Data Size    | 14 bytes |
| Instructions | 2        |

```
      00 01 02 03 04 05 06 07  08 09 0A 0B 0C 0D 0E 0F
      -- -- -- -- -- -- -- --  -- -- -- -- -- -- -- --
02C0:                                               53                 S
02D0: F8 FF FF 7F F8 FF FF 7F  68 74 61 30 00           ........hta0.   
```

#### Opcodes

```
  0: 0x02CF [0x53] WAIT_SCHEDULER_TASK: Wait for scheduler "hta0" with entities [EventEntity, EventEntity]
  1: 0x02DC [0x00] END_REQSTACK()
```

### Event 65535.49

#### Metadata

| Field        | Value    |
|--------------|----------|
| Entrypoint   | 0x02DD   |
| Data Size    | 16 bytes |
| Instructions | 2        |

```
      00 01 02 03 04 05 06 07  08 09 0A 0B 0C 0D 0E 0F
      -- -- -- -- -- -- -- --  -- -- -- -- -- -- -- --
02D0:                                         5B 03 80               [..
02E0: F8 FF FF 7F F8 FF FF 7F  68 74 61 31 00           ........hta1.   
```

#### Opcodes

```
  0: 0x02DD [0x5B] LOAD_EXT_SCHEDULER: Load scheduler "hta1" with entities [EventEntity, EventEntity], work=423*
  1: 0x02EC [0x00] END_REQSTACK()
```

### Event 65535.50

#### Metadata

| Field        | Value    |
|--------------|----------|
| Entrypoint   | 0x02ED   |
| Data Size    | 14 bytes |
| Instructions | 2        |

```
      00 01 02 03 04 05 06 07  08 09 0A 0B 0C 0D 0E 0F
      -- -- -- -- -- -- -- --  -- -- -- -- -- -- -- --
02E0:                                         53 F8 FF               S..
02F0: FF 7F F8 FF FF 7F 68 74  61 31 00                 ......hta1.     
```

#### Opcodes

```
  0: 0x02ED [0x53] WAIT_SCHEDULER_TASK: Wait for scheduler "hta1" with entities [EventEntity, EventEntity]
  1: 0x02FA [0x00] END_REQSTACK()
```

### Event 65535.51

#### Metadata

| Field        | Value    |
|--------------|----------|
| Entrypoint   | 0x02FB   |
| Data Size    | 16 bytes |
| Instructions | 2        |

```
      00 01 02 03 04 05 06 07  08 09 0A 0B 0C 0D 0E 0F
      -- -- -- -- -- -- -- --  -- -- -- -- -- -- -- --
02F0:                                   5B 03 80 F8 FF             [....
0300: FF 7F F8 FF FF 7F 68 74  62 30 00                 ......htb0.     
```

#### Opcodes

```
  0: 0x02FB [0x5B] LOAD_EXT_SCHEDULER: Load scheduler "htb0" with entities [EventEntity, EventEntity], work=423*
  1: 0x030A [0x00] END_REQSTACK()
```

### Event 65535.52

#### Metadata

| Field        | Value    |
|--------------|----------|
| Entrypoint   | 0x030B   |
| Data Size    | 14 bytes |
| Instructions | 2        |

```
      00 01 02 03 04 05 06 07  08 09 0A 0B 0C 0D 0E 0F
      -- -- -- -- -- -- -- --  -- -- -- -- -- -- -- --
0300:                                   53 F8 FF FF 7F             S....
0310: F8 FF FF 7F 68 74 62 30  00                       ....htb0.       
```

#### Opcodes

```
  0: 0x030B [0x53] WAIT_SCHEDULER_TASK: Wait for scheduler "htb0" with entities [EventEntity, EventEntity]
  1: 0x0318 [0x00] END_REQSTACK()
```

### Event 65535.53

#### Metadata

| Field        | Value    |
|--------------|----------|
| Entrypoint   | 0x0319   |
| Data Size    | 16 bytes |
| Instructions | 2        |

```
      00 01 02 03 04 05 06 07  08 09 0A 0B 0C 0D 0E 0F
      -- -- -- -- -- -- -- --  -- -- -- -- -- -- -- --
0310:                             5B 03 80 F8 FF FF 7F           [......
0320: F8 FF FF 7F 68 74 62 31  00                       ....htb1.       
```

#### Opcodes

```
  0: 0x0319 [0x5B] LOAD_EXT_SCHEDULER: Load scheduler "htb1" with entities [EventEntity, EventEntity], work=423*
  1: 0x0328 [0x00] END_REQSTACK()
```

### Event 65535.54

#### Metadata

| Field        | Value    |
|--------------|----------|
| Entrypoint   | 0x0329   |
| Data Size    | 14 bytes |
| Instructions | 2        |

```
      00 01 02 03 04 05 06 07  08 09 0A 0B 0C 0D 0E 0F
      -- -- -- -- -- -- -- --  -- -- -- -- -- -- -- --
0320:                             53 F8 FF FF 7F F8 FF           S......
0330: FF 7F 68 74 62 31 00                              ..htb1.         
```

#### Opcodes

```
  0: 0x0329 [0x53] WAIT_SCHEDULER_TASK: Wait for scheduler "htb1" with entities [EventEntity, EventEntity]
  1: 0x0336 [0x00] END_REQSTACK()
```

### Event 65535.55

#### Metadata

| Field        | Value    |
|--------------|----------|
| Entrypoint   | 0x0337   |
| Data Size    | 16 bytes |
| Instructions | 2        |

```
      00 01 02 03 04 05 06 07  08 09 0A 0B 0C 0D 0E 0F
      -- -- -- -- -- -- -- --  -- -- -- -- -- -- -- --
0330:                      5B  03 80 F8 FF FF 7F F8 FF         [........
0340: FF 7F 68 74 62 32 00                              ..htb2.         
```

#### Opcodes

```
  0: 0x0337 [0x5B] LOAD_EXT_SCHEDULER: Load scheduler "htb2" with entities [EventEntity, EventEntity], work=423*
  1: 0x0346 [0x00] END_REQSTACK()
```

### Event 65535.56

#### Metadata

| Field        | Value    |
|--------------|----------|
| Entrypoint   | 0x0347   |
| Data Size    | 14 bytes |
| Instructions | 2        |

```
      00 01 02 03 04 05 06 07  08 09 0A 0B 0C 0D 0E 0F
      -- -- -- -- -- -- -- --  -- -- -- -- -- -- -- --
0340:                      53  F8 FF FF 7F F8 FF FF 7F         S........
0350: 68 74 62 32 00                                    htb2.           
```

#### Opcodes

```
  0: 0x0347 [0x53] WAIT_SCHEDULER_TASK: Wait for scheduler "htb2" with entities [EventEntity, EventEntity]
  1: 0x0354 [0x00] END_REQSTACK()
```

### Event 65535.57

#### Metadata

| Field        | Value    |
|--------------|----------|
| Entrypoint   | 0x0355   |
| Data Size    | 16 bytes |
| Instructions | 2        |

```
      00 01 02 03 04 05 06 07  08 09 0A 0B 0C 0D 0E 0F
      -- -- -- -- -- -- -- --  -- -- -- -- -- -- -- --
0350:                5B 03 80  F8 FF FF 7F F8 FF FF 7F       [..........
0360: 68 61 62 30 00                                    hab0.           
```

#### Opcodes

```
  0: 0x0355 [0x5B] LOAD_EXT_SCHEDULER: Load scheduler "hab0" with entities [EventEntity, EventEntity], work=423*
  1: 0x0364 [0x00] END_REQSTACK()
```

### Event 65535.58

#### Metadata

| Field        | Value    |
|--------------|----------|
| Entrypoint   | 0x0365   |
| Data Size    | 14 bytes |
| Instructions | 2        |

```
      00 01 02 03 04 05 06 07  08 09 0A 0B 0C 0D 0E 0F
      -- -- -- -- -- -- -- --  -- -- -- -- -- -- -- --
0360:                53 F8 FF  FF 7F F8 FF FF 7F 68 61       S........ha
0370: 62 30 00                                          b0.             
```

#### Opcodes

```
  0: 0x0365 [0x53] WAIT_SCHEDULER_TASK: Wait for scheduler "hab0" with entities [EventEntity, EventEntity]
  1: 0x0372 [0x00] END_REQSTACK()
```

### Event 65535.59

#### Metadata

| Field        | Value    |
|--------------|----------|
| Entrypoint   | 0x0373   |
| Data Size    | 16 bytes |
| Instructions | 2        |

```
      00 01 02 03 04 05 06 07  08 09 0A 0B 0C 0D 0E 0F
      -- -- -- -- -- -- -- --  -- -- -- -- -- -- -- --
0370:          5B 03 80 F8 FF  FF 7F F8 FF FF 7F 68 62     [..........hb
0380: 61 30 00                                          a0.             
```

#### Opcodes

```
  0: 0x0373 [0x5B] LOAD_EXT_SCHEDULER: Load scheduler "hba0" with entities [EventEntity, EventEntity], work=423*
  1: 0x0382 [0x00] END_REQSTACK()
```

### Event 65535.60

#### Metadata

| Field        | Value    |
|--------------|----------|
| Entrypoint   | 0x0383   |
| Data Size    | 14 bytes |
| Instructions | 2        |

```
      00 01 02 03 04 05 06 07  08 09 0A 0B 0C 0D 0E 0F
      -- -- -- -- -- -- -- --  -- -- -- -- -- -- -- --
0380:          53 F8 FF FF 7F  F8 FF FF 7F 68 62 61 30     S........hba0
0390: 00                                                .               
```

#### Opcodes

```
  0: 0x0383 [0x53] WAIT_SCHEDULER_TASK: Wait for scheduler "hba0" with entities [EventEntity, EventEntity]
  1: 0x0390 [0x00] END_REQSTACK()
```

### Event 65535.61

#### Metadata

| Field        | Value    |
|--------------|----------|
| Entrypoint   | 0x0391   |
| Data Size    | 28 bytes |
| Instructions | 4        |

```
      00 01 02 03 04 05 06 07  08 09 0A 0B 0C 0D 0E 0F
      -- -- -- -- -- -- -- --  -- -- -- -- -- -- -- --
0390:    81 00 F8 FF FF 7F 7C  00 F8 FF FF 7F 5B 04 80   ......|.....[..
03A0: F8 FF FF 7F F8 FF FF 7F  6D 74 65 30 00           ........mte0.   
```

#### Opcodes

```
  0: 0x0391 [0x81] SET_ENTITY_BLINKING(blink_flag=0x00, entity=EventEntity)
  1: 0x0397 [0x7C] EventEntity->Render.Flags2 |= 0x00
  2: 0x039D [0x5B] LOAD_EXT_SCHEDULER: Load scheduler "mte0" with entities [EventEntity, EventEntity], work=633*
  3: 0x03AC [0x00] END_REQSTACK()
```

### Event 65535.62

#### Metadata

| Field        | Value    |
|--------------|----------|
| Entrypoint   | 0x03AD   |
| Data Size    | 14 bytes |
| Instructions | 2        |

```
      00 01 02 03 04 05 06 07  08 09 0A 0B 0C 0D 0E 0F
      -- -- -- -- -- -- -- --  -- -- -- -- -- -- -- --
03A0:                                         53 F8 FF               S..
03B0: FF 7F F8 FF FF 7F 6D 74  65 30 00                 ......mte0.     
```

#### Opcodes

```
  0: 0x03AD [0x53] WAIT_SCHEDULER_TASK: Wait for scheduler "mte0" with entities [EventEntity, EventEntity]
  1: 0x03BA [0x00] END_REQSTACK()
```

### Event 65535.63

#### Metadata

| Field        | Value    |
|--------------|----------|
| Entrypoint   | 0x03BB   |
| Data Size    | 16 bytes |
| Instructions | 2        |

```
      00 01 02 03 04 05 06 07  08 09 0A 0B 0C 0D 0E 0F
      -- -- -- -- -- -- -- --  -- -- -- -- -- -- -- --
03B0:                                   5B 04 80 F8 FF             [....
03C0: FF 7F F8 FF FF 7F 6D 74  65 31 00                 ......mte1.     
```

#### Opcodes

```
  0: 0x03BB [0x5B] LOAD_EXT_SCHEDULER: Load scheduler "mte1" with entities [EventEntity, EventEntity], work=633*
  1: 0x03CA [0x00] END_REQSTACK()
```

### Event 65535.64

#### Metadata

| Field        | Value    |
|--------------|----------|
| Entrypoint   | 0x03CB   |
| Data Size    | 26 bytes |
| Instructions | 4        |

```
      00 01 02 03 04 05 06 07  08 09 0A 0B 0C 0D 0E 0F
      -- -- -- -- -- -- -- --  -- -- -- -- -- -- -- --
03C0:                                   53 F8 FF FF 7F             S....
03D0: F8 FF FF 7F 6D 74 65 31  81 01 F8 FF FF 7F 7C 01  ....mte1......|.
03E0: F8 FF FF 7F 00                                    .....           
```

#### Opcodes

```
  0: 0x03CB [0x53] WAIT_SCHEDULER_TASK: Wait for scheduler "mte1" with entities [EventEntity, EventEntity]
  1: 0x03D8 [0x81] SET_ENTITY_BLINKING(blink_flag=0x01, entity=EventEntity)
  2: 0x03DE [0x7C] EventEntity->Render.Flags2 |= 0x01
  3: 0x03E4 [0x00] END_REQSTACK()
```

### Event 65535.65

#### Metadata

| Field        | Value   |
|--------------|---------|
| Entrypoint   | 0x03E5  |
| Data Size    | 9 bytes |
| Instructions | 3       |

```
      00 01 02 03 04 05 06 07  08 09 0A 0B 0C 0D 0E 0F
      -- -- -- -- -- -- -- --  -- -- -- -- -- -- -- --
03E0:                5E 69 64  6C 30 1C 05 80 00             ^idl0....  
```

#### Opcodes

```
  0: 0x03E5 [0x5E] EventEntity goes idle (kills current action) (animation: "idl0")
  1: 0x03EA [0x1C] WAIT(30* ticks)
  2: 0x03ED [0x00] END_REQSTACK()
```

### Event 10011

#### Metadata

| Field        | Value    |
|--------------|----------|
| Entrypoint   | 0x03EE   |
| Data Size    | 13 bytes |
| Instructions | 3        |

```
      00 01 02 03 04 05 06 07  08 09 0A 0B 0C 0D 0E 0F
      -- -- -- -- -- -- -- --  -- -- -- -- -- -- -- --
03E0:                                            92 01                ..
03F0: F8 FF FF 7F 94 01 F8 FF  FF 7F 00                 ...........     
```

#### Opcodes

```
  0: 0x03EE [0x92] EventEntity->Render.Flags3 ^= 0x01
  1: 0x03F4 [0x94] EventEntity->Render.Flags3 ^= 0x01
  2: 0x03FA [0x00] END_REQSTACK()
```

### Event 65535.66

#### Metadata

| Field        | Value    |
|--------------|----------|
| Entrypoint   | 0x03FB   |
| Data Size    | 10 bytes |
| Instructions | 2        |

```
      00 01 02 03 04 05 06 07  08 09 0A 0B 0C 0D 0E 0F
      -- -- -- -- -- -- -- --  -- -- -- -- -- -- -- --
03F0:                                   37 06 80 07 80             7....
0400: 08 80 09 80 00                                    .....           
```

#### Opcodes

```
  0: 0x03FB [0x37] UPDATE_EVENT_POSITION_AND_DIR: x=-96.928*, z=90.843*, y=-0.199*, direction=160.8°*
  1: 0x0404 [0x00] END_REQSTACK()
```

### Event 65535.67

#### Metadata

| Field        | Value    |
|--------------|----------|
| Entrypoint   | 0x0405   |
| Data Size    | 15 bytes |
| Instructions | 5        |

```
      00 01 02 03 04 05 06 07  08 09 0A 0B 0C 0D 0E 0F
      -- -- -- -- -- -- -- --  -- -- -- -- -- -- -- --
0400:                32 0A 80  1F 00 0B 80 0C 80 0D 80       2..........
0410: 1F 01 6F 00                                       ..o.            
```

#### Opcodes

```
  0: 0x0405 [0x32] ExtData[1]->MainSpeed = 13* * 0.1
  1: 0x0408 [0x1F] MOVE_ENTITY: EventEntity moves to X=-99.747*, Z=89.602*, Y=-0.215*
  2: 0x0410 [0x1F] MOVE_ENTITY: Update entity position (mode=1)
  3: 0x0412 [0x6F] WAIT_FRAME_DELAY: Yield until WaitTime reaches zero
  4: 0x0413 [0x00] END_REQSTACK()
```

### Event 65535.68

#### Metadata

| Field        | Value    |
|--------------|----------|
| Entrypoint   | 0x0414   |
| Data Size    | 10 bytes |
| Instructions | 2        |

```
      00 01 02 03 04 05 06 07  08 09 0A 0B 0C 0D 0E 0F
      -- -- -- -- -- -- -- --  -- -- -- -- -- -- -- --
0410:             37 0E 80 0F  80 10 80 11 80 00            7.........  
```

#### Opcodes

```
  0: 0x0414 [0x37] UPDATE_EVENT_POSITION_AND_DIR: x=-103.711*, z=88.205*, y=-0.211*, direction=158.5°*
  1: 0x041D [0x00] END_REQSTACK()
```

### Event 65535.69

#### Metadata

| Field        | Value    |
|--------------|----------|
| Entrypoint   | 0x041E   |
| Data Size    | 15 bytes |
| Instructions | 5        |

```
      00 01 02 03 04 05 06 07  08 09 0A 0B 0C 0D 0E 0F
      -- -- -- -- -- -- -- --  -- -- -- -- -- -- -- --
0410:                                            32 0A                2.
0420: 80 1F 00 12 80 13 80 10  80 1F 01 6F 00           ...........o.   
```

#### Opcodes

```
  0: 0x041E [0x32] ExtData[1]->MainSpeed = 13* * 0.1
  1: 0x0421 [0x1F] MOVE_ENTITY: EventEntity moves to X=-102.259*, Z=88.772*, Y=-0.211*
  2: 0x0429 [0x1F] MOVE_ENTITY: Update entity position (mode=1)
  3: 0x042B [0x6F] WAIT_FRAME_DELAY: Yield until WaitTime reaches zero
  4: 0x042C [0x00] END_REQSTACK()
```

### Event 65535.70

#### Metadata

| Field        | Value    |
|--------------|----------|
| Entrypoint   | 0x042D   |
| Data Size    | 14 bytes |
| Instructions | 4        |

```
      00 01 02 03 04 05 06 07  08 09 0A 0B 0C 0D 0E 0F
      -- -- -- -- -- -- -- --  -- -- -- -- -- -- -- --
0420:                                         32 14 80               2..
0430: 5A 00 15 80 16 80 17 80  5A 01 00                 Z.......Z..     
```

#### Opcodes

```
  0: 0x042D [0x32] ExtData[1]->MainSpeed = 40* * 0.1
  1: 0x0430 [0x5A] UPDATE_EVENT_POSITION: Set EventEntity MovePosition to X=-83.933*, Z=98.995*, Y=0.000*
  2: 0x0438 [0x5A] UPDATE_EVENT_POSITION: Move EventEntity incrementally towards MovePosition
  3: 0x043A [0x00] END_REQSTACK()
```

### Event 10012

#### Metadata

| Field        | Value    |
|--------------|----------|
| Entrypoint   | 0x043B   |
| Data Size    | 13 bytes |
| Instructions | 3        |

```
      00 01 02 03 04 05 06 07  08 09 0A 0B 0C 0D 0E 0F
      -- -- -- -- -- -- -- --  -- -- -- -- -- -- -- --
0430:                                   92 01 F8 FF FF             .....
0440: 7F 94 01 F8 FF FF 7F 00                           ........        
```

#### Opcodes

```
  0: 0x043B [0x92] EventEntity->Render.Flags3 ^= 0x01
  1: 0x0441 [0x94] EventEntity->Render.Flags3 ^= 0x01
  2: 0x0447 [0x00] END_REQSTACK()
```

### Event 65535.71

#### Metadata

| Field        | Value    |
|--------------|----------|
| Entrypoint   | 0x0448   |
| Data Size    | 10 bytes |
| Instructions | 2        |

```
      00 01 02 03 04 05 06 07  08 09 0A 0B 0C 0D 0E 0F
      -- -- -- -- -- -- -- --  -- -- -- -- -- -- -- --
0440:                          37 18 80 19 80 1A 80 1B          7.......
0450: 80 00                                             ..              
```

#### Opcodes

```
  0: 0x0448 [0x37] UPDATE_EVENT_POSITION_AND_DIR: x=-93.166*, z=92.817*, y=0.999*, direction=183.0°*
  1: 0x0451 [0x00] END_REQSTACK()
```

### Event 65535.72

#### Metadata

| Field        | Value    |
|--------------|----------|
| Entrypoint   | 0x0452   |
| Data Size    | 14 bytes |
| Instructions | 4        |

```
      00 01 02 03 04 05 06 07  08 09 0A 0B 0C 0D 0E 0F
      -- -- -- -- -- -- -- --  -- -- -- -- -- -- -- --
0450:       32 0A 80 5A 00 1C  80 1D 80 08 80 5A 01 00    2..Z.......Z..
```

#### Opcodes

```
  0: 0x0452 [0x32] ExtData[1]->MainSpeed = 13* * 0.1
  1: 0x0455 [0x5A] UPDATE_EVENT_POSITION: Set EventEntity MovePosition to X=-99.296*, Z=89.551*, Y=-0.199*
  2: 0x045D [0x5A] UPDATE_EVENT_POSITION: Move EventEntity incrementally towards MovePosition
  3: 0x045F [0x00] END_REQSTACK()
```

### Event 65535.73

#### Metadata

| Field        | Value    |
|--------------|----------|
| Entrypoint   | 0x0460   |
| Data Size    | 10 bytes |
| Instructions | 2        |

```
      00 01 02 03 04 05 06 07  08 09 0A 0B 0C 0D 0E 0F
      -- -- -- -- -- -- -- --  -- -- -- -- -- -- -- --
0460: 37 1E 80 1F 80 20 80 21  80 00                    7.... .!..      
```

#### Opcodes

```
  0: 0x0460 [0x37] UPDATE_EVENT_POSITION_AND_DIR: x=-103.057*, z=87.093*, y=-0.231*, direction=285.6°*
  1: 0x0469 [0x00] END_REQSTACK()
```
