# 17776830 - Rhea Myuliah

## Common Data

| Field            | Value                 |
|------------------|-----------------------|
| Zone             | Upper Jeuno (ID: 244) |
| Block Size       | 132 bytes             |
| Total Events     | 15                    |
| References Count | 5                     |

## List of Events

| Event ID                 | Entrypoint   |   Size |   Instructions |
|--------------------------|--------------|--------|----------------|
| [65535](#event-65535)    | 0x0000       |      1 |              1 |
| [10113](#event-10113)    | 0x0001       |      1 |              1 |
| [10115](#event-10115)    | 0x0002       |      1 |              1 |
| [10118](#event-10118)    | 0x0003       |      1 |              1 |
| [10131](#event-10131)    | 0x0004       |      1 |              1 |
| [10133](#event-10133)    | 0x0005       |      1 |              1 |
| [65535.1](#event-655351) | 0x0006       |     22 |              6 |
| [10139](#event-10139)    | 0x001C       |      1 |              1 |
| [10215](#event-10215)    | 0x001D       |      1 |              1 |
| [10143](#event-10143)    | 0x001E       |      1 |              1 |
| [10149](#event-10149)    | 0x001F       |      1 |              1 |
| [10151](#event-10151)    | 0x0020       |      1 |              1 |
| [10209](#event-10209)    | 0x0021       |      1 |              1 |
| [10211](#event-10211)    | 0x0022       |      1 |              1 |
| [10162](#event-10162)    | 0x0023       |      1 |              1 |

## DAT References (imed_data)

|   Index | Hex Value   |   Dec Value |
|---------|-------------|-------------|
|       0 | 0x000D      |          13 |
|       1 | 0xFFFF24C9  |  4294911177 |
|       2 | 0x185EC     |       99820 |
|       3 | 0x0000      |           0 |
|       4 | 0x001E      |          30 |

## Events

### Event 65535

#### Metadata

| Field        | Value   |
|--------------|---------|
| Entrypoint   | 0x0000  |
| Data Size    | 1 bytes |
| Instructions | 1       |

```
      00 01 02 03 04 05 06 07  08 09 0A 0B 0C 0D 0E 0F
      -- -- -- -- -- -- -- --  -- -- -- -- -- -- -- --
0000: 00                                                .               
```

#### Opcodes

```
  0: 0x0000 [0x00] END_REQSTACK()
```

### Event 10113

#### Metadata

| Field        | Value   |
|--------------|---------|
| Entrypoint   | 0x0001  |
| Data Size    | 1 bytes |
| Instructions | 1       |

```
      00 01 02 03 04 05 06 07  08 09 0A 0B 0C 0D 0E 0F
      -- -- -- -- -- -- -- --  -- -- -- -- -- -- -- --
0000:    00                                              .              
```

#### Opcodes

```
  0: 0x0001 [0x00] END_REQSTACK()
```

### Event 10115

#### Metadata

| Field        | Value   |
|--------------|---------|
| Entrypoint   | 0x0002  |
| Data Size    | 1 bytes |
| Instructions | 1       |

```
      00 01 02 03 04 05 06 07  08 09 0A 0B 0C 0D 0E 0F
      -- -- -- -- -- -- -- --  -- -- -- -- -- -- -- --
0000:       00                                            .             
```

#### Opcodes

```
  0: 0x0002 [0x00] END_REQSTACK()
```

### Event 10118

#### Metadata

| Field        | Value   |
|--------------|---------|
| Entrypoint   | 0x0003  |
| Data Size    | 1 bytes |
| Instructions | 1       |

```
      00 01 02 03 04 05 06 07  08 09 0A 0B 0C 0D 0E 0F
      -- -- -- -- -- -- -- --  -- -- -- -- -- -- -- --
0000:          00                                          .            
```

#### Opcodes

```
  0: 0x0003 [0x00] END_REQSTACK()
```

### Event 10131

#### Metadata

| Field        | Value   |
|--------------|---------|
| Entrypoint   | 0x0004  |
| Data Size    | 1 bytes |
| Instructions | 1       |

```
      00 01 02 03 04 05 06 07  08 09 0A 0B 0C 0D 0E 0F
      -- -- -- -- -- -- -- --  -- -- -- -- -- -- -- --
0000:             00                                        .           
```

#### Opcodes

```
  0: 0x0004 [0x00] END_REQSTACK()
```

### Event 10133

#### Metadata

| Field        | Value   |
|--------------|---------|
| Entrypoint   | 0x0005  |
| Data Size    | 1 bytes |
| Instructions | 1       |

```
      00 01 02 03 04 05 06 07  08 09 0A 0B 0C 0D 0E 0F
      -- -- -- -- -- -- -- --  -- -- -- -- -- -- -- --
0000:                00                                      .          
```

#### Opcodes

```
  0: 0x0005 [0x00] END_REQSTACK()
```

### Event 65535.1

#### Metadata

| Field        | Value    |
|--------------|----------|
| Entrypoint   | 0x0006   |
| Data Size    | 22 bytes |
| Instructions | 6        |

```
      00 01 02 03 04 05 06 07  08 09 0A 0B 0C 0D 0E 0F
      -- -- -- -- -- -- -- --  -- -- -- -- -- -- -- --
0000:                   32 00  80 1F 00 01 80 02 80 03        2.........
0010: 80 1F 01 1E BD 40 0F 01  1C 04 80 00              .....@......    
```

#### Opcodes

```
  0: 0x0006 [0x32] ExtData[1]->MainSpeed = 13* * 0.1
  1: 0x0009 [0x1F] MOVE_ENTITY: EventEntity moves to X=-56.119*, Z=99.820*, Y=0.000*
  2: 0x0011 [0x1F] MOVE_ENTITY: Update entity position (mode=1)
  3: 0x0013 [0x1E] EventEntity looks at Laila (ID: 17776829/0x010F40BD) and starts talking
  4: 0x0018 [0x1C] WAIT(30* ticks)
  5: 0x001B [0x00] END_REQSTACK()
```

### Event 10139

#### Metadata

| Field        | Value   |
|--------------|---------|
| Entrypoint   | 0x001C  |
| Data Size    | 1 bytes |
| Instructions | 1       |

```
      00 01 02 03 04 05 06 07  08 09 0A 0B 0C 0D 0E 0F
      -- -- -- -- -- -- -- --  -- -- -- -- -- -- -- --
0010:                                      00                       .   
```

#### Opcodes

```
  0: 0x001C [0x00] END_REQSTACK()
```

### Event 10215

#### Metadata

| Field        | Value   |
|--------------|---------|
| Entrypoint   | 0x001D  |
| Data Size    | 1 bytes |
| Instructions | 1       |

```
      00 01 02 03 04 05 06 07  08 09 0A 0B 0C 0D 0E 0F
      -- -- -- -- -- -- -- --  -- -- -- -- -- -- -- --
0010:                                         00                     .  
```

#### Opcodes

```
  0: 0x001D [0x00] END_REQSTACK()
```

### Event 10143

#### Metadata

| Field        | Value   |
|--------------|---------|
| Entrypoint   | 0x001E  |
| Data Size    | 1 bytes |
| Instructions | 1       |

```
      00 01 02 03 04 05 06 07  08 09 0A 0B 0C 0D 0E 0F
      -- -- -- -- -- -- -- --  -- -- -- -- -- -- -- --
0010:                                            00                   . 
```

#### Opcodes

```
  0: 0x001E [0x00] END_REQSTACK()
```

### Event 10149

#### Metadata

| Field        | Value   |
|--------------|---------|
| Entrypoint   | 0x001F  |
| Data Size    | 1 bytes |
| Instructions | 1       |

```
      00 01 02 03 04 05 06 07  08 09 0A 0B 0C 0D 0E 0F
      -- -- -- -- -- -- -- --  -- -- -- -- -- -- -- --
0010:                                               00                 .
```

#### Opcodes

```
  0: 0x001F [0x00] END_REQSTACK()
```

### Event 10151

#### Metadata

| Field        | Value   |
|--------------|---------|
| Entrypoint   | 0x0020  |
| Data Size    | 1 bytes |
| Instructions | 1       |

```
      00 01 02 03 04 05 06 07  08 09 0A 0B 0C 0D 0E 0F
      -- -- -- -- -- -- -- --  -- -- -- -- -- -- -- --
0020: 00                                                .               
```

#### Opcodes

```
  0: 0x0020 [0x00] END_REQSTACK()
```

### Event 10209

#### Metadata

| Field        | Value   |
|--------------|---------|
| Entrypoint   | 0x0021  |
| Data Size    | 1 bytes |
| Instructions | 1       |

```
      00 01 02 03 04 05 06 07  08 09 0A 0B 0C 0D 0E 0F
      -- -- -- -- -- -- -- --  -- -- -- -- -- -- -- --
0020:    00                                              .              
```

#### Opcodes

```
  0: 0x0021 [0x00] END_REQSTACK()
```

### Event 10211

#### Metadata

| Field        | Value   |
|--------------|---------|
| Entrypoint   | 0x0022  |
| Data Size    | 1 bytes |
| Instructions | 1       |

```
      00 01 02 03 04 05 06 07  08 09 0A 0B 0C 0D 0E 0F
      -- -- -- -- -- -- -- --  -- -- -- -- -- -- -- --
0020:       00                                            .             
```

#### Opcodes

```
  0: 0x0022 [0x00] END_REQSTACK()
```

### Event 10162

#### Metadata

| Field        | Value   |
|--------------|---------|
| Entrypoint   | 0x0023  |
| Data Size    | 1 bytes |
| Instructions | 1       |

```
      00 01 02 03 04 05 06 07  08 09 0A 0B 0C 0D 0E 0F
      -- -- -- -- -- -- -- --  -- -- -- -- -- -- -- --
0020:          00                                          .            
```

#### Opcodes

```
  0: 0x0023 [0x00] END_REQSTACK()
```
