# 17776671 - Shiroro

## Common Data

| Field            | Value                 |
|------------------|-----------------------|
| Zone             | Upper Jeuno (ID: 244) |
| Block Size       | 236 bytes             |
| Total Events     | 7                     |
| References Count | 12                    |

## List of Events

| Event ID              | Entrypoint   |   Size |   Instructions |
|-----------------------|--------------|--------|----------------|
| [65535](#event-65535) | 0x0000       |      1 |              1 |
| [197](#event-197)     | 0x0001       |      1 |              1 |
| [198](#event-198)     | 0x0002       |      1 |              1 |
| [85](#event-85)       | 0x0003       |     41 |             13 |
| [192](#event-192)     | 0x002C       |      3 |              2 |
| [10084](#event-10084) | 0x002F       |     52 |             12 |
| [10127](#event-10127) | 0x0063       |     45 |             15 |

## DAT References (imed_data)

|   Index | Hex Value   |   Dec Value |
|---------|-------------|-------------|
|       0 | 0x0028      |          40 |
|       1 | 0x1CF9      |        7417 |
|       2 | 0x1CFA      |        7418 |
|       3 | 0x1CFB      |        7419 |
|       4 | 0x2B70      |       11120 |
|       5 | 0x001E      |          30 |
|       6 | 0x2B73      |       11123 |
|       7 | 0x2B74      |       11124 |
|       8 | 0x2E51      |       11857 |
|       9 | 0x2E52      |       11858 |
|      10 | 0x2E53      |       11859 |
|      11 | 0x2E54      |       11860 |

## String References

- **7417**: Hello. I always come and help Ilumida. She has problems with her back, and really can't live on her own anymore.
- **7418**: The war may be over, but the pain is everlasting. Ilumida lost her husband, and people like her suffer each and every day.
- **7419**: Jeuno seems like a lively place, but look deeper and you'll find scars that linger. War is indeed a terrible thing.
- **11120**: <Player>'s badge flashes brightly.
- **11123**: I'm a little surprised that there are so many adventurers in our nation who are set on becoming mercenaries.
- **11124**: Have they forgotten the pain and fear they went through in the last war?
- **11857**: I've learned a lot about the Crystal War while looking after Ilumida.
- **11858**: She's even told me about those awful statues people are calling "maws."
- **11859**: I haven't had the experience myself, but they say just the very sight of these idols brings back the most horrendous memories of the war...
- **11860**: I wonder if there are other things in the world that remind people of that horrible time. If only such atrocities could be buried forever.

## Events

### Event 65535

#### Metadata

| Field        | Value   |
|--------------|---------|
| Entrypoint   | 0x0000  |
| Data Size    | 1 bytes |
| Instructions | 1       |

```
      00 01 02 03 04 05 06 07  08 09 0A 0B 0C 0D 0E 0F
      -- -- -- -- -- -- -- --  -- -- -- -- -- -- -- --
0000: 00                                                .               
```

#### Opcodes

```
  0: 0x0000 [0x00] END_REQSTACK()
```

### Event 197

#### Metadata

| Field        | Value   |
|--------------|---------|
| Entrypoint   | 0x0001  |
| Data Size    | 1 bytes |
| Instructions | 1       |

```
      00 01 02 03 04 05 06 07  08 09 0A 0B 0C 0D 0E 0F
      -- -- -- -- -- -- -- --  -- -- -- -- -- -- -- --
0000:    00                                              .              
```

#### Opcodes

```
  0: 0x0001 [0x00] END_REQSTACK()
```

### Event 198

#### Metadata

| Field        | Value   |
|--------------|---------|
| Entrypoint   | 0x0002  |
| Data Size    | 1 bytes |
| Instructions | 1       |

```
      00 01 02 03 04 05 06 07  08 09 0A 0B 0C 0D 0E 0F
      -- -- -- -- -- -- -- --  -- -- -- -- -- -- -- --
0000:       00                                            .             
```

#### Opcodes

```
  0: 0x0002 [0x00] END_REQSTACK()
```

### Event 85

#### Metadata

| Field        | Value    |
|--------------|----------|
| Entrypoint   | 0x0003   |
| Data Size    | 41 bytes |
| Instructions | 13       |

```
      00 01 02 03 04 05 06 07  08 09 0A 0B 0C 0D 0E 0F
      -- -- -- -- -- -- -- --  -- -- -- -- -- -- -- --
0000:          42 1E F0 FF FF  7F 6F 76 F8 FF FF 7F 66     B.....ov....f
0010: 00 80 F8 FF FF 7F F8 FF  FF 7F 74 6C 6B 30 1D 01  ..........tlk0..
0020: 80 23 1D 02 80 23 1D 03  80 23 21 00              .#...#...#!.    
```

#### Opcodes

```
  0: 0x0003 [0x42] SET_CLI_EVENT_CANCEL_DATA()
  1: 0x0004 [0x1E] EventEntity looks at LocalPlayer and starts talking
  2: 0x0009 [0x6F] WAIT_FRAME_DELAY: Yield until WaitTime reaches zero
  3: 0x000A [0x76] CHECK_ENTITY_RENDER_FLAGS: Wait until EventEntity Render.Flags0 and Render.Flags3 conditions are met
  4: 0x000F [0x66] LOAD_EXT_SCHEDULER_MAIN: Load scheduler "tlk0" with entities [EventEntity, EventEntity], work=40*
  5: 0x001E [0x1D] PRINT_EVENT_MESSAGE(message_id=7417*)
    → "Hello. I always come and help Ilumida. She has problems with her back, and really can't live on her own anymore."
  6: 0x0021 [0x23] WAIT_FOR_DIALOG_INTERACTION
  7: 0x0022 [0x1D] PRINT_EVENT_MESSAGE(message_id=7418*)
    → "The war may be over, but the pain is everlasting. Ilumida lost her husband, and people like her suffer each and every day."
  8: 0x0025 [0x23] WAIT_FOR_DIALOG_INTERACTION
  9: 0x0026 [0x1D] PRINT_EVENT_MESSAGE(message_id=7419*)
    → "Jeuno seems like a lively place, but look deeper and you'll find scars that linger. War is indeed a terrible thing."
 10: 0x0029 [0x23] WAIT_FOR_DIALOG_INTERACTION
 11: 0x002A [0x21] END_EVENT
 12: 0x002B [0x00] END_REQSTACK()
```

### Event 192

#### Metadata

| Field        | Value   |
|--------------|---------|
| Entrypoint   | 0x002C  |
| Data Size    | 3 bytes |
| Instructions | 2       |

```
      00 01 02 03 04 05 06 07  08 09 0A 0B 0C 0D 0E 0F
      -- -- -- -- -- -- -- --  -- -- -- -- -- -- -- --
0020:                                      22 01 00                 ".. 
```

#### Opcodes

```
  0: 0x002C [0x22] ENTITY_HIDE_FLAG(enabled=0x01)
  1: 0x002E [0x00] END_REQSTACK()
```

### Event 10084

#### Metadata

| Field        | Value    |
|--------------|----------|
| Entrypoint   | 0x002F   |
| Data Size    | 52 bytes |
| Instructions | 12       |

```
      00 01 02 03 04 05 06 07  08 09 0A 0B 0C 0D 0E 0F
      -- -- -- -- -- -- -- --  -- -- -- -- -- -- -- --
0020:                                               42                 B
0030: 48 04 80 1E F0 FF FF 7F  1C 05 80 66 00 80 F8 FF  H..........f....
0040: FF 7F F8 FF FF 7F 74 6C  6B 30 1D 06 80 23 66 00  ......tlk0...#f.
0050: 80 F8 FF FF 7F F8 FF FF  7F 74 6C 6B 31 1D 07 80  .........tlk1...
0060: 23 21 00                                          #!.             
```

#### Opcodes

```
  0: 0x002F [0x42] SET_CLI_EVENT_CANCEL_DATA()
  1: 0x0030 [0x48] [System] [11120*]:
    → "<Player>'s badge flashes brightly."
  2: 0x0033 [0x1E] EventEntity looks at LocalPlayer and starts talking
  3: 0x0038 [0x1C] WAIT(30* ticks)
  4: 0x003B [0x66] LOAD_EXT_SCHEDULER_MAIN: Load scheduler "tlk0" with entities [EventEntity, EventEntity], work=40*
  5: 0x004A [0x1D] PRINT_EVENT_MESSAGE(message_id=11123*)
    → "I'm a little surprised that there are so many adventurers in our nation who are set on becoming mercenaries."
  6: 0x004D [0x23] WAIT_FOR_DIALOG_INTERACTION
  7: 0x004E [0x66] LOAD_EXT_SCHEDULER_MAIN: Load scheduler "tlk1" with entities [EventEntity, EventEntity], work=40*
  8: 0x005D [0x1D] PRINT_EVENT_MESSAGE(message_id=11124*)
    → "Have they forgotten the pain and fear they went through in the last war?"
  9: 0x0060 [0x23] WAIT_FOR_DIALOG_INTERACTION
 10: 0x0061 [0x21] END_EVENT
 11: 0x0062 [0x00] END_REQSTACK()
```

### Event 10127

#### Metadata

| Field        | Value    |
|--------------|----------|
| Entrypoint   | 0x0063   |
| Data Size    | 45 bytes |
| Instructions | 15       |

```
      00 01 02 03 04 05 06 07  08 09 0A 0B 0C 0D 0E 0F
      -- -- -- -- -- -- -- --  -- -- -- -- -- -- -- --
0060:          42 1E F0 FF FF  7F 6F 76 F8 FF FF 7F 66     B.....ov....f
0070: 00 80 F8 FF FF 7F F8 FF  FF 7F 74 6C 6B 30 1D 08  ..........tlk0..
0080: 80 23 1D 09 80 23 1D 0A  80 23 1D 0B 80 23 21 00  .#...#...#...#!.
```

#### Opcodes

```
  0: 0x0063 [0x42] SET_CLI_EVENT_CANCEL_DATA()
  1: 0x0064 [0x1E] EventEntity looks at LocalPlayer and starts talking
  2: 0x0069 [0x6F] WAIT_FRAME_DELAY: Yield until WaitTime reaches zero
  3: 0x006A [0x76] CHECK_ENTITY_RENDER_FLAGS: Wait until EventEntity Render.Flags0 and Render.Flags3 conditions are met
  4: 0x006F [0x66] LOAD_EXT_SCHEDULER_MAIN: Load scheduler "tlk0" with entities [EventEntity, EventEntity], work=40*
  5: 0x007E [0x1D] PRINT_EVENT_MESSAGE(message_id=11857*)
    → "I've learned a lot about the Crystal War while looking after Ilumida."
  6: 0x0081 [0x23] WAIT_FOR_DIALOG_INTERACTION
  7: 0x0082 [0x1D] PRINT_EVENT_MESSAGE(message_id=11858*)
    → "She's even told me about those awful statues people are calling "maws.""
  8: 0x0085 [0x23] WAIT_FOR_DIALOG_INTERACTION
  9: 0x0086 [0x1D] PRINT_EVENT_MESSAGE(message_id=11859*)
    → "I haven't had the experience myself, but they say just the very sight of these idols brings back the most horrendous memories of the war..."
 10: 0x0089 [0x23] WAIT_FOR_DIALOG_INTERACTION
 11: 0x008A [0x1D] PRINT_EVENT_MESSAGE(message_id=11860*)
    → "I wonder if there are other things in the world that remind people of that horrible time. If only such atrocities could be buried forever."
 12: 0x008D [0x23] WAIT_FOR_DIALOG_INTERACTION
 13: 0x008E [0x21] END_EVENT
 14: 0x008F [0x00] END_REQSTACK()
```
