# 17776660 - Audia

## Common Data

| Field            | Value                 |
|------------------|-----------------------|
| Zone             | Upper Jeuno (ID: 244) |
| Block Size       | 436 bytes             |
| Total Events     | 14                    |
| References Count | 18                    |

## List of Events

| Event ID                   | Entrypoint   |   Size |   Instructions |
|----------------------------|--------------|--------|----------------|
| [65535](#event-65535)      | 0x0000       |      1 |              1 |
| [171](#event-171)          | 0x0001       |      1 |              1 |
| [107](#event-107)          | 0x0002       |      1 |              1 |
| [65535.1](#event-655351)   | 0x0003       |     50 |             10 |
| [65535.2](#event-655352)   | 0x0035       |     33 |              9 |
| [65535.3](#event-655353)   | 0x0056       |     29 |              3 |
| [65535.4](#event-655354)   | 0x0073       |     29 |              3 |
| [65535.5](#event-655355)   | 0x0090       |     29 |              3 |
| [65535.6](#event-655356)   | 0x00AD       |     29 |              3 |
| [65535.7](#event-655357)   | 0x00CA       |     34 |              4 |
| [65535.8](#event-655358)   | 0x00EC       |      9 |              3 |
| [65535.9](#event-655359)   | 0x00F5       |      1 |              1 |
| [112](#event-112)          | 0x00F6       |     27 |              5 |
| [65535.10](#event-6553510) | 0x0111       |     18 |              6 |

## DAT References (imed_data)

|   Index | Hex Value   |   Dec Value |
|---------|-------------|-------------|
|       0 | 0x000D      |          13 |
|       1 | 0xFFFEB17D  |  4294881661 |
|       2 | 0x12D47     |       77127 |
|       3 | 0xFFFFFB50  |  4294966096 |
|       4 | 0xFFFEB9EA  |  4294883818 |
|       5 | 0x13278     |       78456 |
|       6 | 0xFFFEBB18  |  4294884120 |
|       7 | 0x130DC     |       78044 |
|       8 | 0x013D      |         317 |
|       9 | 0x003C      |          60 |
|      10 | 0x0141      |         321 |
|      11 | 0x001E      |          30 |
|      12 | 0xFFFF0719  |  4294903577 |
|      13 | 0x14E91     |       85649 |
|      14 | 0x0000      |           0 |
|      15 | 0x0297      |         663 |
|      16 | 0xFFFF2623  |  4294911523 |
|      17 | 0x11364     |       70500 |

## Events

### Event 65535

#### Metadata

| Field        | Value   |
|--------------|---------|
| Entrypoint   | 0x0000  |
| Data Size    | 1 bytes |
| Instructions | 1       |

```
      00 01 02 03 04 05 06 07  08 09 0A 0B 0C 0D 0E 0F
      -- -- -- -- -- -- -- --  -- -- -- -- -- -- -- --
0000: 00                                                .               
```

#### Opcodes

```
  0: 0x0000 [0x00] END_REQSTACK()
```

### Event 171

#### Metadata

| Field        | Value   |
|--------------|---------|
| Entrypoint   | 0x0001  |
| Data Size    | 1 bytes |
| Instructions | 1       |

```
      00 01 02 03 04 05 06 07  08 09 0A 0B 0C 0D 0E 0F
      -- -- -- -- -- -- -- --  -- -- -- -- -- -- -- --
0000:    00                                              .              
```

#### Opcodes

```
  0: 0x0001 [0x00] END_REQSTACK()
```

### Event 107

#### Metadata

| Field        | Value   |
|--------------|---------|
| Entrypoint   | 0x0002  |
| Data Size    | 1 bytes |
| Instructions | 1       |

```
      00 01 02 03 04 05 06 07  08 09 0A 0B 0C 0D 0E 0F
      -- -- -- -- -- -- -- --  -- -- -- -- -- -- -- --
0000:       00                                            .             
```

#### Opcodes

```
  0: 0x0002 [0x00] END_REQSTACK()
```

### Event 65535.1

#### Metadata

| Field        | Value    |
|--------------|----------|
| Entrypoint   | 0x0003   |
| Data Size    | 50 bytes |
| Instructions | 10       |

```
      00 01 02 03 04 05 06 07  08 09 0A 0B 0C 0D 0E 0F
      -- -- -- -- -- -- -- --  -- -- -- -- -- -- -- --
0000:          32 00 80 1F 00  01 80 02 80 03 80 1F 01     2............
0010: 1F 00 04 80 05 80 03 80  1F 01 1F 00 06 80 07 80  ................
0020: 03 80 1F 01 6F 5B 08 80  F8 FF FF 7F F8 FF FF 7F  ....o[..........
0030: 74 6C 6B 30 00                                    tlk0.           
```

#### Opcodes

```
  0: 0x0003 [0x32] ExtData[1]->MainSpeed = 13* * 0.1
  1: 0x0006 [0x1F] MOVE_ENTITY: EventEntity moves to X=-85.635*, Z=77.127*, Y=-1.200*
  2: 0x000E [0x1F] MOVE_ENTITY: Update entity position (mode=1)
  3: 0x0010 [0x1F] MOVE_ENTITY: EventEntity moves to X=-83.478*, Z=78.456*, Y=-1.200*
  4: 0x0018 [0x1F] MOVE_ENTITY: Update entity position (mode=1)
  5: 0x001A [0x1F] MOVE_ENTITY: EventEntity moves to X=-83.176*, Z=78.044*, Y=-1.200*
  6: 0x0022 [0x1F] MOVE_ENTITY: Update entity position (mode=1)
  7: 0x0024 [0x6F] WAIT_FRAME_DELAY: Yield until WaitTime reaches zero
  8: 0x0025 [0x5B] LOAD_EXT_SCHEDULER: Load scheduler "tlk0" with entities [EventEntity, EventEntity], work=317*
  9: 0x0034 [0x00] END_REQSTACK()
```

### Event 65535.2

#### Metadata

| Field        | Value    |
|--------------|----------|
| Entrypoint   | 0x0035   |
| Data Size    | 33 bytes |
| Instructions | 9        |

```
      00 01 02 03 04 05 06 07  08 09 0A 0B 0C 0D 0E 0F
      -- -- -- -- -- -- -- --  -- -- -- -- -- -- -- --
0030:                1E 1A 40  0F 01 1C 09 80 1E 19 40       ..@.......@
0040: 0F 01 1C 09 80 1E F0 FF  FF 7F 1C 09 80 1E 13 40  ...............@
0050: 0F 01 1C 09 80 00                                 ......          
```

#### Opcodes

```
  0: 0x0035 [0x1E] EventEntity looks at Alista (ID: 17776666/0x010F401A) and starts talking
  1: 0x003A [0x1C] WAIT(60* ticks)
  2: 0x003D [0x1E] EventEntity looks at Albrecht (ID: 17776665/0x010F4019) and starts talking
  3: 0x0042 [0x1C] WAIT(60* ticks)
  4: 0x0045 [0x1E] EventEntity looks at LocalPlayer and starts talking
  5: 0x004A [0x1C] WAIT(60* ticks)
  6: 0x004D [0x1E] EventEntity looks at Baudin (ID: 17776659/0x010F4013) and starts talking
  7: 0x0052 [0x1C] WAIT(60* ticks)
  8: 0x0055 [0x00] END_REQSTACK()
```

### Event 65535.3

#### Metadata

| Field        | Value    |
|--------------|----------|
| Entrypoint   | 0x0056   |
| Data Size    | 29 bytes |
| Instructions | 3        |

```
      00 01 02 03 04 05 06 07  08 09 0A 0B 0C 0D 0E 0F
      -- -- -- -- -- -- -- --  -- -- -- -- -- -- -- --
0050:                   5B 08  80 F8 FF FF 7F F8 FF FF        [.........
0060: 7F 74 68 6B 31 53 F8 FF  FF 7F F8 FF FF 7F 74 68  .thk1S........th
0070: 6B 31 00                                          k1.             
```

#### Opcodes

```
  0: 0x0056 [0x5B] LOAD_EXT_SCHEDULER: Load scheduler "thk1" with entities [EventEntity, EventEntity], work=317*
  1: 0x0065 [0x53] WAIT_SCHEDULER_TASK: Wait for scheduler "thk1" with entities [EventEntity, EventEntity]
  2: 0x0072 [0x00] END_REQSTACK()
```

### Event 65535.4

#### Metadata

| Field        | Value    |
|--------------|----------|
| Entrypoint   | 0x0073   |
| Data Size    | 29 bytes |
| Instructions | 3        |

```
      00 01 02 03 04 05 06 07  08 09 0A 0B 0C 0D 0E 0F
      -- -- -- -- -- -- -- --  -- -- -- -- -- -- -- --
0070:          5B 08 80 F8 FF  FF 7F F8 FF FF 7F 74 68     [..........th
0080: 6B 32 53 F8 FF FF 7F F8  FF FF 7F 74 68 6B 32 00  k2S........thk2.
```

#### Opcodes

```
  0: 0x0073 [0x5B] LOAD_EXT_SCHEDULER: Load scheduler "thk2" with entities [EventEntity, EventEntity], work=317*
  1: 0x0082 [0x53] WAIT_SCHEDULER_TASK: Wait for scheduler "thk2" with entities [EventEntity, EventEntity]
  2: 0x008F [0x00] END_REQSTACK()
```

### Event 65535.5

#### Metadata

| Field        | Value    |
|--------------|----------|
| Entrypoint   | 0x0090   |
| Data Size    | 29 bytes |
| Instructions | 3        |

```
      00 01 02 03 04 05 06 07  08 09 0A 0B 0C 0D 0E 0F
      -- -- -- -- -- -- -- --  -- -- -- -- -- -- -- --
0090: 5B 08 80 F8 FF FF 7F F8  FF FF 7F 74 6C 6B 30 53  [..........tlk0S
00A0: F8 FF FF 7F F8 FF FF 7F  74 6C 6B 30 00           ........tlk0.   
```

#### Opcodes

```
  0: 0x0090 [0x5B] LOAD_EXT_SCHEDULER: Load scheduler "tlk0" with entities [EventEntity, EventEntity], work=317*
  1: 0x009F [0x53] WAIT_SCHEDULER_TASK: Wait for scheduler "tlk0" with entities [EventEntity, EventEntity]
  2: 0x00AC [0x00] END_REQSTACK()
```

### Event 65535.6

#### Metadata

| Field        | Value    |
|--------------|----------|
| Entrypoint   | 0x00AD   |
| Data Size    | 29 bytes |
| Instructions | 3        |

```
      00 01 02 03 04 05 06 07  08 09 0A 0B 0C 0D 0E 0F
      -- -- -- -- -- -- -- --  -- -- -- -- -- -- -- --
00A0:                                         5B 08 80               [..
00B0: F8 FF FF 7F F8 FF FF 7F  74 6C 6B 31 53 F8 FF FF  ........tlk1S...
00C0: 7F F8 FF FF 7F 74 6C 6B  31 00                    .....tlk1.      
```

#### Opcodes

```
  0: 0x00AD [0x5B] LOAD_EXT_SCHEDULER: Load scheduler "tlk1" with entities [EventEntity, EventEntity], work=317*
  1: 0x00BC [0x53] WAIT_SCHEDULER_TASK: Wait for scheduler "tlk1" with entities [EventEntity, EventEntity]
  2: 0x00C9 [0x00] END_REQSTACK()
```

### Event 65535.7

#### Metadata

| Field        | Value    |
|--------------|----------|
| Entrypoint   | 0x00CA   |
| Data Size    | 34 bytes |
| Instructions | 4        |

```
      00 01 02 03 04 05 06 07  08 09 0A 0B 0C 0D 0E 0F
      -- -- -- -- -- -- -- --  -- -- -- -- -- -- -- --
00C0:                                5B 0A 80 F8 FF FF            [.....
00D0: 7F F8 FF FF 7F 73 69 74  31 53 F8 FF FF 7F F8 FF  .....sit1S......
00E0: FF 7F 73 69 74 31 5E 69  64 6C 30 00              ..sit1^idl0.    
```

#### Opcodes

```
  0: 0x00CA [0x5B] LOAD_EXT_SCHEDULER: Load scheduler "sit1" with entities [EventEntity, EventEntity], work=321*
  1: 0x00D9 [0x53] WAIT_SCHEDULER_TASK: Wait for scheduler "sit1" with entities [EventEntity, EventEntity]
  2: 0x00E6 [0x5E] EventEntity goes idle (kills current action) (animation: "idl0")
  3: 0x00EB [0x00] END_REQSTACK()
```

### Event 65535.8

#### Metadata

| Field        | Value   |
|--------------|---------|
| Entrypoint   | 0x00EC  |
| Data Size    | 9 bytes |
| Instructions | 3       |

```
      00 01 02 03 04 05 06 07  08 09 0A 0B 0C 0D 0E 0F
      -- -- -- -- -- -- -- --  -- -- -- -- -- -- -- --
00E0:                                      5E 69 64 6C              ^idl
00F0: 30 1C 0B 80 00                                    0....           
```

#### Opcodes

```
  0: 0x00EC [0x5E] EventEntity goes idle (kills current action) (animation: "idl0")
  1: 0x00F1 [0x1C] WAIT(30* ticks)
  2: 0x00F4 [0x00] END_REQSTACK()
```

### Event 65535.9

#### Metadata

| Field        | Value   |
|--------------|---------|
| Entrypoint   | 0x00F5  |
| Data Size    | 1 bytes |
| Instructions | 1       |

```
      00 01 02 03 04 05 06 07  08 09 0A 0B 0C 0D 0E 0F
      -- -- -- -- -- -- -- --  -- -- -- -- -- -- -- --
00F0:                00                                      .          
```

#### Opcodes

```
  0: 0x00F5 [0x00] END_REQSTACK()
```

### Event 112

#### Metadata

| Field        | Value    |
|--------------|----------|
| Entrypoint   | 0x00F6   |
| Data Size    | 27 bytes |
| Instructions | 5        |

```
      00 01 02 03 04 05 06 07  08 09 0A 0B 0C 0D 0E 0F
      -- -- -- -- -- -- -- --  -- -- -- -- -- -- -- --
00F0:                   37 0C  80 0D 80 0E 80 0F 80 5E        7........^
0100: 69 64 6C 30 79 00 F8 FF  FF 7F 19 40 0F 01 22 01  idl0y......@..".
0110: 00                                                .               
```

#### Opcodes

```
  0: 0x00F6 [0x37] UPDATE_EVENT_POSITION_AND_DIR: x=-63.719*, z=85.649*, y=0.000*, direction=58.3°*
  1: 0x00FF [0x5E] EventEntity goes idle (kills current action) (animation: "idl0")
  2: 0x0104 [0x79] EventEntity looks at Albrecht (ID: 17776665/0x010F4019) (Basic look)
  3: 0x010E [0x22] ENTITY_HIDE_FLAG(enabled=0x01)
  4: 0x0110 [0x00] END_REQSTACK()
```

### Event 65535.10

#### Metadata

| Field        | Value    |
|--------------|----------|
| Entrypoint   | 0x0111   |
| Data Size    | 18 bytes |
| Instructions | 6        |

```
      00 01 02 03 04 05 06 07  08 09 0A 0B 0C 0D 0E 0F
      -- -- -- -- -- -- -- --  -- -- -- -- -- -- -- --
0110:    22 00 32 00 80 1F 00  10 80 11 80 0E 80 1F 01   ".2............
0120: 22 01 00                                          "..             
```

#### Opcodes

```
  0: 0x0111 [0x22] ENTITY_HIDE_FLAG(enabled=0x00)
  1: 0x0113 [0x32] ExtData[1]->MainSpeed = 13* * 0.1
  2: 0x0116 [0x1F] MOVE_ENTITY: EventEntity moves to X=-55.773*, Z=70.500*, Y=0.000*
  3: 0x011E [0x1F] MOVE_ENTITY: Update entity position (mode=1)
  4: 0x0120 [0x22] ENTITY_HIDE_FLAG(enabled=0x01)
  5: 0x0122 [0x00] END_REQSTACK()
```
