# 17776815 - Ajithaam

## Common Data

| Field            | Value                 |
|------------------|-----------------------|
| Zone             | Upper Jeuno (ID: 244) |
| Block Size       | 796 bytes             |
| Total Events     | 8                     |
| References Count | 34                    |

## List of Events

| Event ID              | Entrypoint   |   Size |   Instructions |
|-----------------------|--------------|--------|----------------|
| [65535](#event-65535) | 0x0000       |      1 |              1 |
| [10088](#event-10088) | 0x0001       |    144 |             32 |
| [10089](#event-10089) | 0x0091       |     52 |             10 |
| [10090](#event-10090) | 0x00C5       |     47 |              9 |
| [10091](#event-10091) | 0x00F4       |    108 |             22 |
| [10092](#event-10092) | 0x0160       |     47 |              9 |
| [10176](#event-10176) | 0x018F       |    108 |             22 |
| [10177](#event-10177) | 0x01FB       |    102 |             17 |

## DAT References (imed_data)

|   Index | Hex Value   |   Dec Value |
|---------|-------------|-------------|
|       0 | 0x002D      |          45 |
|       1 | 0x2B5F      |       11103 |
|       2 | 0x2B60      |       11104 |
|       3 | 0x0000      |           0 |
|       4 | 0x2B61      |       11105 |
|       5 | 0x0001      |           1 |
|       6 | 0x2B62      |       11106 |
|       7 | 0x02EA      |         746 |
|       8 | 0x2B63      |       11107 |
|       9 | 0x003C      |          60 |
|      10 | 0x2B64      |       11108 |
|      11 | 0x2B65      |       11109 |
|      12 | 0x2B66      |       11110 |
|      13 | 0x2B68      |       11112 |
|      14 | 0x2B67      |       11111 |
|      15 | 0x2B69      |       11113 |
|      16 | 0x2B6A      |       11114 |
|      17 | 0x2B6B      |       11115 |
|      18 | 0x2B6C      |       11116 |
|      19 | 0x2B6D      |       11117 |
|      20 | 0x00C9      |         201 |
|      21 | 0x2B6F      |       11119 |
|      22 | 0x0014      |          20 |
|      23 | 0x303C      |       12348 |
|      24 | 0x303D      |       12349 |
|      25 | 0x303E      |       12350 |
|      26 | 0x012C      |         300 |
|      27 | 0x000A      |          10 |
|      28 | 0x303F      |       12351 |
|      29 | 0x3040      |       12352 |
|      30 | 0x3041      |       12353 |
|      31 | 0x007A      |         122 |
|      32 | 0x0104      |         260 |
|      33 | 0x00C8      |         200 |

## String References

- **11103**: Hello there, [mister/miss]! Would you happen to be an "adventurer"?
- **11104**: 'Fess up. [Yes...why?/Definitely not!]
- **11105**: Splendid! You must wear this, [mister/miss]!
- **11106**: No? Well, I think this would look splendid on you anyway!
- **11107**: Ajithaam tacks a $3 on you!
- **11108**: This badge is made to resemble the head of a wildcat, the mark of the prestigious mercenary company "Salaheem's Sentinels." Beautiful, isn't it?
- **11109**: Our company is also authorized by the empress of Aht Urhgan. Does not that alone make your heart race?
- **11110**: It doesn't? Well, if you change your mind, we are currently recruiting. Be sure to let everyone know!
- **11111**: The number of people interested in our company seems to be gradually increasing. Or could it simply be my imagination?
- **11112**: I have something to tell you that may be of use. The $3 was created using advanced alchemy techniques. It contains a device that makes the eyes of the wildcat glimmer when somebody catches a glimpse of it.
- **11113**: Thanks to you, I have had to deal with huge lines of Jeunoans looking for information on Salaheem's Sentinels!
- **11114**: Okay, that was an untruth...but honestly, people are talking about our company. I suppose that means I will be able to keep my job. Thank you for your fantastic work!
- **11115**: The wildcat on your $3 seems drained of its energy. It must be restored now, so if you please...
- **11116**: <Player> hands over the $3.
- **11117**: You can have this instead. When you join our company, you will learn of its use. That will be something to look forward to...
- **11119**: When you go to the town of "Al Zahbi," give my regards to everyone at Salaheem's Sentinels! And remind them to be polite, because Ajithaam here is going to be in a top position someday!
- **12348**: Ah, I've seen you before. You're a mercenary from Salaheem's Sentinels, are you not? It is so refreshing to see one of our own out in these parts, spreading the company's good name.
- **12349**: By the way, might you have already heard the news? You haven't? In that case, it'd be my pleasure to inform you!
- **12350**: With our beloved President Naja's blessing, we've commenced the operation of a teleportation service right here in Jeuno! Within the space of a heartbeat, you'll be whisked all the way to Aht Urhgan Whitegate, the gateway to the exotic Near East! Doesn't the thought alone invigorate your entire being?
- **12351**: Oh, it doesn't? Well, if ever you change your mind, just come here and trade me $0 gil. What's it for, you ask? Ha! You are quite the jokester, my friend!
- **12352**: <Gasp>... I see... You needn't say another word. Just close your eyes, take a deep breath, and try to relax.
- **12353**: A pleasant journey to you!

## Events

### Event 65535

#### Metadata

| Field        | Value   |
|--------------|---------|
| Entrypoint   | 0x0000  |
| Data Size    | 1 bytes |
| Instructions | 1       |

```
      00 01 02 03 04 05 06 07  08 09 0A 0B 0C 0D 0E 0F
      -- -- -- -- -- -- -- --  -- -- -- -- -- -- -- --
0000: 00                                                .               
```

#### Opcodes

```
  0: 0x0000 [0x00] END_REQSTACK()
```

### Event 10088

#### Metadata

| Field        | Value     |
|--------------|-----------|
| Entrypoint   | 0x0001    |
| Data Size    | 144 bytes |
| Instructions | 32        |

```
      00 01 02 03 04 05 06 07  08 09 0A 0B 0C 0D 0E 0F
      -- -- -- -- -- -- -- --  -- -- -- -- -- -- -- --
0000:    42 1E F0 FF FF 7F 1C  00 80 03 02 10 8B 7F 1D   B..............
0010: 01 80 23 24 02 80 03 80  03 80 25 02 00 10 03 80  ..#$......%.....
0020: 00 39 00 66 03 80 F8 FF  FF 7F F8 FF FF 7F 70 61  .9.f..........pa
0030: 73 30 1D 04 80 23 01 57  00 02 00 10 05 80 00 57  s0...#.W.......W
0040: 00 66 03 80 F8 FF FF 7F  F8 FF FF 7F 70 61 73 30  .f..........pas0
0050: 1D 06 80 23 01 57 00 03  02 10 07 80 48 08 80 1C  ...#.W......H...
0060: 09 80 66 03 80 F8 FF FF  7F F8 FF FF 7F 74 6C 6B  ..f..........tlk
0070: 30 1D 0A 80 23 1D 0B 80  23 66 03 80 F8 FF FF 7F  0...#...#f......
0080: F8 FF FF 7F 74 6C 6B 31  1C 09 80 1D 0C 80 23 21  ....tlk1......#!
0090: 00                                                .               
```

#### Opcodes

```
  0: 0x0001 [0x42] SET_CLI_EVENT_CANCEL_DATA()
  1: 0x0002 [0x1E] EventEntity looks at LocalPlayer and starts talking
  2: 0x0007 [0x1C] WAIT(45* ticks)
  3: 0x000A [0x03] Work_Zone[2] = (LocalPlayer->Render.Flags01 >> 25) & 1
  4: 0x000F [0x1D] PRINT_EVENT_MESSAGE(message_id=11103*)
    → "Hello there, [mister/miss]! Would you happen to be an "adventurer"?"
  5: 0x0012 [0x23] WAIT_FOR_DIALOG_INTERACTION
  6: 0x0013 [0x24] CREATE_DIALOG(message_id=11104*, default_option=0*, option_flags=0*)
    → "'Fess up. [Yes...why?/Definitely not!]"
  7: 0x001A [0x25] WAIT_DIALOG_SELECT()
  8: 0x001B [0x02] IF !(Work_Zone[0] == 0*) GOTO 0x0039
  9: 0x0023 [0x66] LOAD_EXT_SCHEDULER_MAIN: Load scheduler "pas0" with entities [EventEntity, EventEntity], work=0*
 10: 0x0032 [0x1D] PRINT_EVENT_MESSAGE(message_id=11105*)
    → "Splendid! You must wear this, [mister/miss]!"
 11: 0x0035 [0x23] WAIT_FOR_DIALOG_INTERACTION
 12: 0x0036 [0x01] GOTO 0x0057
 13: 0x0039 [0x02] IF !(Work_Zone[0] == 1*) GOTO 0x0057
 14: 0x0041 [0x66] LOAD_EXT_SCHEDULER_MAIN: Load scheduler "pas0" with entities [EventEntity, EventEntity], work=0*
 15: 0x0050 [0x1D] PRINT_EVENT_MESSAGE(message_id=11106*)
    → "No? Well, I think this would look splendid on you anyway!"
 16: 0x0053 [0x23] WAIT_FOR_DIALOG_INTERACTION
 17: 0x0054 [0x01] GOTO 0x0057

SUBROUTINE_0057:
 18: 0x0057 [0x03] Work_Zone[2] = 746*
 19: 0x005C [0x48] [System] [11107*]:
    → "Ajithaam tacks a $3 on you!"
 20: 0x005F [0x1C] WAIT(60* ticks)
 21: 0x0062 [0x66] LOAD_EXT_SCHEDULER_MAIN: Load scheduler "tlk0" with entities [EventEntity, EventEntity], work=0*
 22: 0x0071 [0x1D] PRINT_EVENT_MESSAGE(message_id=11108*)
    → "This badge is made to resemble the head of a wildcat, the mark of the prestigious mercenary company "Salaheem's Sentinels." Beautiful, isn't it?"
 23: 0x0074 [0x23] WAIT_FOR_DIALOG_INTERACTION
 24: 0x0075 [0x1D] PRINT_EVENT_MESSAGE(message_id=11109*)
    → "Our company is also authorized by the empress of Aht Urhgan. Does not that alone make your heart race?"
 25: 0x0078 [0x23] WAIT_FOR_DIALOG_INTERACTION
 26: 0x0079 [0x66] LOAD_EXT_SCHEDULER_MAIN: Load scheduler "tlk1" with entities [EventEntity, EventEntity], work=0*
 27: 0x0088 [0x1C] WAIT(60* ticks)
 28: 0x008B [0x1D] PRINT_EVENT_MESSAGE(message_id=11110*)
    → "It doesn't? Well, if you change your mind, we are currently recruiting. Be sure to let everyone know!"
 29: 0x008E [0x23] WAIT_FOR_DIALOG_INTERACTION
 30: 0x008F [0x21] END_EVENT
 31: 0x0090 [0x00] END_REQSTACK()
```

### Event 10089

#### Metadata

| Field        | Value    |
|--------------|----------|
| Entrypoint   | 0x0091   |
| Data Size    | 52 bytes |
| Instructions | 10       |

```
      00 01 02 03 04 05 06 07  08 09 0A 0B 0C 0D 0E 0F
      -- -- -- -- -- -- -- --  -- -- -- -- -- -- -- --
0090:    1E F0 FF FF 7F 1C 00  80 66 03 80 F8 FF FF 7F   ........f......
00A0: F8 FF FF 7F 74 6C 6B 30  03 02 10 07 80 1D 0D 80  ....tlk0........
00B0: 23 66 03 80 F8 FF FF 7F  F8 FF FF 7F 74 6C 6B 31  #f..........tlk1
00C0: 1C 09 80 21 00                                    ...!.           
```

#### Opcodes

```
  0: 0x0091 [0x1E] EventEntity looks at LocalPlayer and starts talking
  1: 0x0096 [0x1C] WAIT(45* ticks)
  2: 0x0099 [0x66] LOAD_EXT_SCHEDULER_MAIN: Load scheduler "tlk0" with entities [EventEntity, EventEntity], work=0*
  3: 0x00A8 [0x03] Work_Zone[2] = 746*
  4: 0x00AD [0x1D] PRINT_EVENT_MESSAGE(message_id=11112*)
    → "I have something to tell you that may be of use. The $3 was created using advanced alchemy techniques. It contains a device that makes the eyes of the wildcat glimmer when somebody catches a glimpse of it."
  5: 0x00B0 [0x23] WAIT_FOR_DIALOG_INTERACTION
  6: 0x00B1 [0x66] LOAD_EXT_SCHEDULER_MAIN: Load scheduler "tlk1" with entities [EventEntity, EventEntity], work=0*
  7: 0x00C0 [0x1C] WAIT(60* ticks)
  8: 0x00C3 [0x21] END_EVENT
  9: 0x00C4 [0x00] END_REQSTACK()
```

### Event 10090

#### Metadata

| Field        | Value    |
|--------------|----------|
| Entrypoint   | 0x00C5   |
| Data Size    | 47 bytes |
| Instructions | 9        |

```
      00 01 02 03 04 05 06 07  08 09 0A 0B 0C 0D 0E 0F
      -- -- -- -- -- -- -- --  -- -- -- -- -- -- -- --
00C0:                1E F0 FF  FF 7F 1C 00 80 66 03 80       ........f..
00D0: F8 FF FF 7F F8 FF FF 7F  74 6C 6B 30 1D 0E 80 23  ........tlk0...#
00E0: 66 03 80 F8 FF FF 7F F8  FF FF 7F 74 6C 6B 31 1C  f..........tlk1.
00F0: 09 80 21 00                                       ..!.            
```

#### Opcodes

```
  0: 0x00C5 [0x1E] EventEntity looks at LocalPlayer and starts talking
  1: 0x00CA [0x1C] WAIT(45* ticks)
  2: 0x00CD [0x66] LOAD_EXT_SCHEDULER_MAIN: Load scheduler "tlk0" with entities [EventEntity, EventEntity], work=0*
  3: 0x00DC [0x1D] PRINT_EVENT_MESSAGE(message_id=11111*)
    → "The number of people interested in our company seems to be gradually increasing. Or could it simply be my imagination?"
  4: 0x00DF [0x23] WAIT_FOR_DIALOG_INTERACTION
  5: 0x00E0 [0x66] LOAD_EXT_SCHEDULER_MAIN: Load scheduler "tlk1" with entities [EventEntity, EventEntity], work=0*
  6: 0x00EF [0x1C] WAIT(60* ticks)
  7: 0x00F2 [0x21] END_EVENT
  8: 0x00F3 [0x00] END_REQSTACK()
```

### Event 10091

#### Metadata

| Field        | Value     |
|--------------|-----------|
| Entrypoint   | 0x00F4    |
| Data Size    | 108 bytes |
| Instructions | 22        |

```
      00 01 02 03 04 05 06 07  08 09 0A 0B 0C 0D 0E 0F
      -- -- -- -- -- -- -- --  -- -- -- -- -- -- -- --
00F0:             42 1E F0 FF  FF 7F 1C 00 80 66 03 80      B........f..
0100: F8 FF FF 7F F8 FF FF 7F  74 6C 6B 30 1D 0F 80 23  ........tlk0...#
0110: 1D 10 80 23 66 03 80 F8  FF FF 7F F8 FF FF 7F 74  ...#f..........t
0120: 6C 6B 31 03 02 10 07 80  1D 11 80 23 48 12 80 66  lk1........#H..f
0130: 03 80 F8 FF FF 7F F8 FF  FF 7F 70 61 73 30 1C 09  ..........pas0..
0140: 80 03 02 10 8B 7F 1D 13  80 23 45 14 80 F0 FF FF  .........#E.....
0150: 7F F0 FF FF 7F 71 73 74  63 03 80 1C 09 80 21 00  .....qstc.....!.
```

#### Opcodes

```
  0: 0x00F4 [0x42] SET_CLI_EVENT_CANCEL_DATA()
  1: 0x00F5 [0x1E] EventEntity looks at LocalPlayer and starts talking
  2: 0x00FA [0x1C] WAIT(45* ticks)
  3: 0x00FD [0x66] LOAD_EXT_SCHEDULER_MAIN: Load scheduler "tlk0" with entities [EventEntity, EventEntity], work=0*
  4: 0x010C [0x1D] PRINT_EVENT_MESSAGE(message_id=11113*)
    → "Thanks to you, I have had to deal with huge lines of Jeunoans looking for information on Salaheem's Sentinels!"
  5: 0x010F [0x23] WAIT_FOR_DIALOG_INTERACTION
  6: 0x0110 [0x1D] PRINT_EVENT_MESSAGE(message_id=11114*)
    → "Okay, that was an untruth...but honestly, people are talking about our company. I suppose that means I will be able to keep my job. Thank you for your fantastic work!"
  7: 0x0113 [0x23] WAIT_FOR_DIALOG_INTERACTION
  8: 0x0114 [0x66] LOAD_EXT_SCHEDULER_MAIN: Load scheduler "tlk1" with entities [EventEntity, EventEntity], work=0*
  9: 0x0123 [0x03] Work_Zone[2] = 746*
 10: 0x0128 [0x1D] PRINT_EVENT_MESSAGE(message_id=11115*)
    → "The wildcat on your $3 seems drained of its energy. It must be restored now, so if you please..."
 11: 0x012B [0x23] WAIT_FOR_DIALOG_INTERACTION
 12: 0x012C [0x48] [System] [11116*]:
    → "<Player> hands over the $3."
 13: 0x012F [0x66] LOAD_EXT_SCHEDULER_MAIN: Load scheduler "pas0" with entities [EventEntity, EventEntity], work=0*
 14: 0x013E [0x1C] WAIT(60* ticks)
 15: 0x0141 [0x03] Work_Zone[2] = (LocalPlayer->Render.Flags01 >> 25) & 1
 16: 0x0146 [0x1D] PRINT_EVENT_MESSAGE(message_id=11117*)
    → "You can have this instead. When you join our company, you will learn of its use. That will be something to look forward to..."
 17: 0x0149 [0x23] WAIT_FOR_DIALOG_INTERACTION
 18: 0x014A [0x45] LOAD_SCHEDULED_TASK: Load scheduler "qstc" with entities [LocalPlayer, LocalPlayer], work=[201*, 0*]
 19: 0x015B [0x1C] WAIT(60* ticks)
 20: 0x015E [0x21] END_EVENT
 21: 0x015F [0x00] END_REQSTACK()
```

### Event 10092

#### Metadata

| Field        | Value    |
|--------------|----------|
| Entrypoint   | 0x0160   |
| Data Size    | 47 bytes |
| Instructions | 9        |

```
      00 01 02 03 04 05 06 07  08 09 0A 0B 0C 0D 0E 0F
      -- -- -- -- -- -- -- --  -- -- -- -- -- -- -- --
0160: 1E F0 FF FF 7F 1C 00 80  66 03 80 F8 FF FF 7F F8  ........f.......
0170: FF FF 7F 74 6C 6B 30 1D  15 80 23 66 03 80 F8 FF  ...tlk0...#f....
0180: FF 7F F8 FF FF 7F 74 6C  6B 31 1C 09 80 21 00     ......tlk1...!. 
```

#### Opcodes

```
  0: 0x0160 [0x1E] EventEntity looks at LocalPlayer and starts talking
  1: 0x0165 [0x1C] WAIT(45* ticks)
  2: 0x0168 [0x66] LOAD_EXT_SCHEDULER_MAIN: Load scheduler "tlk0" with entities [EventEntity, EventEntity], work=0*
  3: 0x0177 [0x1D] PRINT_EVENT_MESSAGE(message_id=11119*)
    → "When you go to the town of "Al Zahbi," give my regards to everyone at Salaheem's Sentinels! And remind them to be polite, because Ajithaam here is going to be in a top position someday!"
  4: 0x017A [0x23] WAIT_FOR_DIALOG_INTERACTION
  5: 0x017B [0x66] LOAD_EXT_SCHEDULER_MAIN: Load scheduler "tlk1" with entities [EventEntity, EventEntity], work=0*
  6: 0x018A [0x1C] WAIT(60* ticks)
  7: 0x018D [0x21] END_EVENT
  8: 0x018E [0x00] END_REQSTACK()
```

### Event 10176

#### Metadata

| Field        | Value     |
|--------------|-----------|
| Entrypoint   | 0x018F    |
| Data Size    | 108 bytes |
| Instructions | 22        |

```
      00 01 02 03 04 05 06 07  08 09 0A 0B 0C 0D 0E 0F
      -- -- -- -- -- -- -- --  -- -- -- -- -- -- -- --
0180:                                               1E                 .
0190: F0 FF FF 7F 1C 00 80 6E  AF 40 0F 01 16 80 99 AF  .......n.@......
01A0: 40 0F 01 1D 17 80 23 99  AF 40 0F 01 66 03 80 F8  @.....#..@..f...
01B0: FF FF 7F F8 FF FF 7F 74  6C 6B 30 1D 18 80 23 1D  .......tlk0...#.
01C0: 19 80 23 03 02 10 1A 80  66 03 80 F8 FF FF 7F F8  ..#.....f.......
01D0: FF FF 7F 74 65 6E 30 53  F8 FF FF 7F F8 FF FF 7F  ...ten0S........
01E0: 74 65 6E 30 6E AF 40 0F  01 1B 80 99 AF 40 0F 01  ten0n.@......@..
01F0: 1D 1C 80 23 99 AF 40 0F  01 21 00                 ...#..@..!.     
```

#### Opcodes

```
  0: 0x018F [0x1E] EventEntity looks at LocalPlayer and starts talking
  1: 0x0194 [0x1C] WAIT(45* ticks)
  2: 0x0197 [0x6E] Ajithaam (ID: 17776815/0x010F40AF) uses emote 20*
  3: 0x019E [0x99] Wait for Ajithaam (ID: 17776815/0x010F40AF) animation to complete
  4: 0x01A3 [0x1D] PRINT_EVENT_MESSAGE(message_id=12348*)
    → "Ah, I've seen you before. You're a mercenary from Salaheem's Sentinels, are you not? It is so refreshing to see one of our own out in these parts, spreading the company's good name."
  5: 0x01A6 [0x23] WAIT_FOR_DIALOG_INTERACTION
  6: 0x01A7 [0x99] Wait for Ajithaam (ID: 17776815/0x010F40AF) animation to complete
  7: 0x01AC [0x66] LOAD_EXT_SCHEDULER_MAIN: Load scheduler "tlk0" with entities [EventEntity, EventEntity], work=0*
  8: 0x01BB [0x1D] PRINT_EVENT_MESSAGE(message_id=12349*)
    → "By the way, might you have already heard the news? You haven't? In that case, it'd be my pleasure to inform you!"
  9: 0x01BE [0x23] WAIT_FOR_DIALOG_INTERACTION
 10: 0x01BF [0x1D] PRINT_EVENT_MESSAGE(message_id=12350*)
    → "With our beloved President Naja's blessing, we've commenced the operation of a teleportation service right here in Jeuno! Within the space of a heartbeat, you'll be whisked all the way to Aht Urhgan Whitegate, the gateway to the exotic Near East! Doesn't the thought alone invigorate your entire being?"
 11: 0x01C2 [0x23] WAIT_FOR_DIALOG_INTERACTION
 12: 0x01C3 [0x03] Work_Zone[2] = 300*
 13: 0x01C8 [0x66] LOAD_EXT_SCHEDULER_MAIN: Load scheduler "ten0" with entities [EventEntity, EventEntity], work=0*
 14: 0x01D7 [0x53] WAIT_SCHEDULER_TASK: Wait for scheduler "ten0" with entities [EventEntity, EventEntity]
 15: 0x01E4 [0x6E] Ajithaam (ID: 17776815/0x010F40AF) uses emote 10*
 16: 0x01EB [0x99] Wait for Ajithaam (ID: 17776815/0x010F40AF) animation to complete
 17: 0x01F0 [0x1D] PRINT_EVENT_MESSAGE(message_id=12351*)
    → "Oh, it doesn't? Well, if ever you change your mind, just come here and trade me $0 gil. What's it for, you ask? Ha! You are quite the jokester, my friend!"
 18: 0x01F3 [0x23] WAIT_FOR_DIALOG_INTERACTION
 19: 0x01F4 [0x99] Wait for Ajithaam (ID: 17776815/0x010F40AF) animation to complete
 20: 0x01F9 [0x21] END_EVENT
 21: 0x01FA [0x00] END_REQSTACK()
```

### Event 10177

#### Metadata

| Field        | Value     |
|--------------|-----------|
| Entrypoint   | 0x01FB    |
| Data Size    | 102 bytes |
| Instructions | 17        |

```
      00 01 02 03 04 05 06 07  08 09 0A 0B 0C 0D 0E 0F
      -- -- -- -- -- -- -- --  -- -- -- -- -- -- -- --
01F0:                                   42 20 01 1E F0             B ...
0200: FF FF 7F 1C 00 80 66 03  80 F8 FF FF 7F F8 FF FF  ......f.........
0210: 7F 74 6C 6B 30 1D 1D 80  23 66 03 80 F8 FF FF 7F  .tlk0...#f......
0220: F8 FF FF 7F 74 65 6E 30  53 F8 FF FF 7F F8 FF FF  ....ten0S.......
0230: 7F 74 65 6E 30 1D 1E 80  03 01 10 05 80 73 1F 80  .ten0........s..
0240: AF 40 0F 01 F0 FF FF 7F  1C 20 80 45 21 80 F0 FF  .@....... .E!...
0250: FF 7F F0 FF FF 7F 66 64  6F 31 03 80 1C 09 80 21  ......fdo1.....!
0260: 00                                                .               
```

#### Opcodes

```
  0: 0x01FB [0x42] SET_CLI_EVENT_CANCEL_DATA()
  1: 0x01FC [0x20] SET_CLI_EVENT_UC_FLAG: Lock player control
  2: 0x01FE [0x1E] EventEntity looks at LocalPlayer and starts talking
  3: 0x0203 [0x1C] WAIT(45* ticks)
  4: 0x0206 [0x66] LOAD_EXT_SCHEDULER_MAIN: Load scheduler "tlk0" with entities [EventEntity, EventEntity], work=0*
  5: 0x0215 [0x1D] PRINT_EVENT_MESSAGE(message_id=12352*)
    → "<Gasp>... I see... You needn't say another word. Just close your eyes, take a deep breath, and try to relax."
  6: 0x0218 [0x23] WAIT_FOR_DIALOG_INTERACTION
  7: 0x0219 [0x66] LOAD_EXT_SCHEDULER_MAIN: Load scheduler "ten0" with entities [EventEntity, EventEntity], work=0*
  8: 0x0228 [0x53] WAIT_SCHEDULER_TASK: Wait for scheduler "ten0" with entities [EventEntity, EventEntity]
  9: 0x0235 [0x1D] PRINT_EVENT_MESSAGE(message_id=12353*)
    → "A pleasant journey to you!"
 10: 0x0238 [0x03] Work_Zone[1] = 1*
 11: 0x023D [0x73] Ajithaam (ID: 17776815/0x010F40AF) casts magic 122* on LocalPlayer
 12: 0x0248 [0x1C] WAIT(260* ticks)
 13: 0x024B [0x45] LOAD_SCHEDULED_TASK: Load scheduler "fdo1" with entities [LocalPlayer, LocalPlayer], work=[200*, 0*]
 14: 0x025C [0x1C] WAIT(60* ticks)
 15: 0x025F [0x21] END_EVENT
 16: 0x0260 [0x00] END_REQSTACK()
```
