# 17776862

## Common Data

| Field            | Value                 |
|------------------|-----------------------|
| Zone             | Upper Jeuno (ID: 244) |
| Block Size       | 600 bytes             |
| Total Events     | 31                    |
| References Count | 20                    |

## List of Events

| Event ID                   | Entrypoint   |   Size |   Instructions |
|----------------------------|--------------|--------|----------------|
| [65535](#event-65535)      | 0x0000       |      1 |              1 |
| [10178](#event-10178)      | 0x0001       |      1 |              1 |
| [10180](#event-10180)      | 0x0002       |      1 |              1 |
| [10181](#event-10181)      | 0x0003       |      1 |              1 |
| [10182](#event-10182)      | 0x0004       |      1 |              1 |
| [10183](#event-10183)      | 0x0005       |      1 |              1 |
| [10184](#event-10184)      | 0x0006       |      1 |              1 |
| [10185](#event-10185)      | 0x0007       |      1 |              1 |
| [65535.1](#event-655351)   | 0x0008       |      4 |              2 |
| [65535.2](#event-655352)   | 0x000C       |     39 |              6 |
| [65535.3](#event-655353)   | 0x0033       |     10 |              2 |
| [65535.4](#event-655354)   | 0x003D       |     10 |              2 |
| [65535.5](#event-655355)   | 0x0047       |      1 |              1 |
| [65535.6](#event-655356)   | 0x0048       |      8 |              3 |
| [65535.7](#event-655357)   | 0x0050       |      5 |              2 |
| [65535.8](#event-655358)   | 0x0055       |     16 |              2 |
| [65535.9](#event-655359)   | 0x0065       |     18 |              2 |
| [65535.10](#event-6553510) | 0x0077       |     18 |              2 |
| [65535.11](#event-6553511) | 0x0089       |     18 |              2 |
| [65535.12](#event-6553512) | 0x009B       |     18 |              2 |
| [65535.13](#event-6553513) | 0x00AD       |     18 |              2 |
| [65535.14](#event-6553514) | 0x00BF       |     18 |              2 |
| [65535.15](#event-6553515) | 0x00D1       |      8 |              3 |
| [65535.16](#event-6553516) | 0x00D9       |     22 |              4 |
| [65535.17](#event-6553517) | 0x00EF       |     16 |              2 |
| [65535.18](#event-6553518) | 0x00FF       |     19 |              3 |
| [65535.19](#event-6553519) | 0x0112       |     18 |              2 |
| [65535.20](#event-6553520) | 0x0124       |     16 |              2 |
| [65535.21](#event-6553521) | 0x0134       |     16 |              2 |
| [65535.22](#event-6553522) | 0x0144       |     16 |              2 |
| [65535.23](#event-6553523) | 0x0154       |     38 |              4 |

## DAT References (imed_data)

|   Index | Hex Value   |   Dec Value |
|---------|-------------|-------------|
|       0 | 0x0080      |         128 |
|       1 | 0x0000      |           0 |
|       2 | 0x08E3      |        2275 |
|       3 | 0x0001      |           1 |
|       4 | 0x0034      |          52 |
|       5 | 0x0A4D      |        2637 |
|       6 | 0x0081      |         129 |
|       7 | 0x0083      |         131 |
|       8 | 0x0939      |        2361 |
|       9 | 0xFFFE9FBF  |  4294877119 |
|      10 | 0x13A09     |       80393 |
|      11 | 0xFFFFFB51  |  4294966097 |
|      12 | 0x0AAA      |        2730 |
|      13 | 0x000F      |          15 |
|      14 | 0x0A4E      |        2638 |
|      15 | 0x0164      |         356 |
|      16 | 0x0085      |         133 |
|      17 | 0x0A4F      |        2639 |
|      18 | 0x007F      |         127 |
|      19 | 0x002D      |          45 |

## Events

### Event 65535

#### Metadata

| Field        | Value   |
|--------------|---------|
| Entrypoint   | 0x0000  |
| Data Size    | 1 bytes |
| Instructions | 1       |

```
      00 01 02 03 04 05 06 07  08 09 0A 0B 0C 0D 0E 0F
      -- -- -- -- -- -- -- --  -- -- -- -- -- -- -- --
0000: 00                                                .               
```

#### Opcodes

```
  0: 0x0000 [0x00] END_REQSTACK()
```

### Event 10178

#### Metadata

| Field        | Value   |
|--------------|---------|
| Entrypoint   | 0x0001  |
| Data Size    | 1 bytes |
| Instructions | 1       |

```
      00 01 02 03 04 05 06 07  08 09 0A 0B 0C 0D 0E 0F
      -- -- -- -- -- -- -- --  -- -- -- -- -- -- -- --
0000:    00                                              .              
```

#### Opcodes

```
  0: 0x0001 [0x00] END_REQSTACK()
```

### Event 10180

#### Metadata

| Field        | Value   |
|--------------|---------|
| Entrypoint   | 0x0002  |
| Data Size    | 1 bytes |
| Instructions | 1       |

```
      00 01 02 03 04 05 06 07  08 09 0A 0B 0C 0D 0E 0F
      -- -- -- -- -- -- -- --  -- -- -- -- -- -- -- --
0000:       00                                            .             
```

#### Opcodes

```
  0: 0x0002 [0x00] END_REQSTACK()
```

### Event 10181

#### Metadata

| Field        | Value   |
|--------------|---------|
| Entrypoint   | 0x0003  |
| Data Size    | 1 bytes |
| Instructions | 1       |

```
      00 01 02 03 04 05 06 07  08 09 0A 0B 0C 0D 0E 0F
      -- -- -- -- -- -- -- --  -- -- -- -- -- -- -- --
0000:          00                                          .            
```

#### Opcodes

```
  0: 0x0003 [0x00] END_REQSTACK()
```

### Event 10182

#### Metadata

| Field        | Value   |
|--------------|---------|
| Entrypoint   | 0x0004  |
| Data Size    | 1 bytes |
| Instructions | 1       |

```
      00 01 02 03 04 05 06 07  08 09 0A 0B 0C 0D 0E 0F
      -- -- -- -- -- -- -- --  -- -- -- -- -- -- -- --
0000:             00                                        .           
```

#### Opcodes

```
  0: 0x0004 [0x00] END_REQSTACK()
```

### Event 10183

#### Metadata

| Field        | Value   |
|--------------|---------|
| Entrypoint   | 0x0005  |
| Data Size    | 1 bytes |
| Instructions | 1       |

```
      00 01 02 03 04 05 06 07  08 09 0A 0B 0C 0D 0E 0F
      -- -- -- -- -- -- -- --  -- -- -- -- -- -- -- --
0000:                00                                      .          
```

#### Opcodes

```
  0: 0x0005 [0x00] END_REQSTACK()
```

### Event 10184

#### Metadata

| Field        | Value   |
|--------------|---------|
| Entrypoint   | 0x0006  |
| Data Size    | 1 bytes |
| Instructions | 1       |

```
      00 01 02 03 04 05 06 07  08 09 0A 0B 0C 0D 0E 0F
      -- -- -- -- -- -- -- --  -- -- -- -- -- -- -- --
0000:                   00                                    .         
```

#### Opcodes

```
  0: 0x0006 [0x00] END_REQSTACK()
```

### Event 10185

#### Metadata

| Field        | Value   |
|--------------|---------|
| Entrypoint   | 0x0007  |
| Data Size    | 1 bytes |
| Instructions | 1       |

```
      00 01 02 03 04 05 06 07  08 09 0A 0B 0C 0D 0E 0F
      -- -- -- -- -- -- -- --  -- -- -- -- -- -- -- --
0000:                      00                                  .        
```

#### Opcodes

```
  0: 0x0007 [0x00] END_REQSTACK()
```

### Event 65535.1

#### Metadata

| Field        | Value   |
|--------------|---------|
| Entrypoint   | 0x0008  |
| Data Size    | 4 bytes |
| Instructions | 2       |

```
      00 01 02 03 04 05 06 07  08 09 0A 0B 0C 0D 0E 0F
      -- -- -- -- -- -- -- --  -- -- -- -- -- -- -- --
0000:                          1C 02 10 00                      ....    
```

#### Opcodes

```
  0: 0x0008 [0x1C] WAIT(Work_Zone[2] ticks)
  1: 0x000B [0x00] END_REQSTACK()
```

### Event 65535.2

#### Metadata

| Field        | Value    |
|--------------|----------|
| Entrypoint   | 0x000C   |
| Data Size    | 39 bytes |
| Instructions | 6        |

```
      00 01 02 03 04 05 06 07  08 09 0A 0B 0C 0D 0E 0F
      -- -- -- -- -- -- -- --  -- -- -- -- -- -- -- --
0000:                                      B4 00 00 00              ....
0010: 3F 3F 3F 00 00 00 00 00  00 00 00 00 00 00 00 00  ???.............
0020: B5 00 00 00 22 00 92 01  F8 FF FF 7F 94 01 F8 FF  ...."...........
0030: FF 7F 00                                          ...             
```

#### Opcodes

```
  0: 0x000C [0xB4] UI_WINDOW_STRING_HANDLER(case=0x00 - Copy string from opcode, work_offset=ExtData[1]->WorkLocal[0], string="???")
  1: 0x0020 [0xB5] SET_EVENT_ENTITY_NAME: Change EventEntity name to ExtData[1]->WorkLocal[0]
  2: 0x0024 [0x22] ENTITY_HIDE_FLAG(enabled=0x00)
  3: 0x0026 [0x92] EventEntity->Render.Flags3 ^= 0x01
  4: 0x002C [0x94] EventEntity->Render.Flags3 ^= 0x01
  5: 0x0032 [0x00] END_REQSTACK()
```

### Event 65535.3

#### Metadata

| Field        | Value    |
|--------------|----------|
| Entrypoint   | 0x0033   |
| Data Size    | 10 bytes |
| Instructions | 2        |

```
      00 01 02 03 04 05 06 07  08 09 0A 0B 0C 0D 0E 0F
      -- -- -- -- -- -- -- --  -- -- -- -- -- -- -- --
0030:          6C F8 FF FF 7F  00 80 01 80 00              l.........   
```

#### Opcodes

```
  0: 0x0033 [0x6C] FADE_ENTITY_COLOR(entity_id=EventEntity, end_alpha=128*, fade_time=0*)
  1: 0x003C [0x00] END_REQSTACK()
```

### Event 65535.4

#### Metadata

| Field        | Value    |
|--------------|----------|
| Entrypoint   | 0x003D   |
| Data Size    | 10 bytes |
| Instructions | 2        |

```
      00 01 02 03 04 05 06 07  08 09 0A 0B 0C 0D 0E 0F
      -- -- -- -- -- -- -- --  -- -- -- -- -- -- -- --
0030:                                         6C F8 FF               l..
0040: FF 7F 01 80 01 80 00                              .......         
```

#### Opcodes

```
  0: 0x003D [0x6C] FADE_ENTITY_COLOR(entity_id=EventEntity, end_alpha=0*, fade_time=0*)
  1: 0x0046 [0x00] END_REQSTACK()
```

### Event 65535.5

#### Metadata

| Field        | Value   |
|--------------|---------|
| Entrypoint   | 0x0047  |
| Data Size    | 1 bytes |
| Instructions | 1       |

```
      00 01 02 03 04 05 06 07  08 09 0A 0B 0C 0D 0E 0F
      -- -- -- -- -- -- -- --  -- -- -- -- -- -- -- --
0040:                      00                                  .        
```

#### Opcodes

```
  0: 0x0047 [0x00] END_REQSTACK()
```

### Event 65535.6

#### Metadata

| Field        | Value   |
|--------------|---------|
| Entrypoint   | 0x0048  |
| Data Size    | 8 bytes |
| Instructions | 3       |

```
      00 01 02 03 04 05 06 07  08 09 0A 0B 0C 0D 0E 0F
      -- -- -- -- -- -- -- --  -- -- -- -- -- -- -- --
0040:                          B6 00 02 80 C0 03 80 00          ........
```

#### Opcodes

```
  0: 0x0048 [0xB6] ENTITY_APPEARANCE_HANDLER(case=Hair style, value=2275*)
  1: 0x004C [0xC0] EventEntity->Render.Flags3 |= 0x1000 // Set bit 12 (from 1*)
  2: 0x004F [0x00] END_REQSTACK()
```

### Event 65535.7

#### Metadata

| Field        | Value   |
|--------------|---------|
| Entrypoint   | 0x0050  |
| Data Size    | 5 bytes |
| Instructions | 2       |

```
      00 01 02 03 04 05 06 07  08 09 0A 0B 0C 0D 0E 0F
      -- -- -- -- -- -- -- --  -- -- -- -- -- -- -- --
0050: B6 00 04 80 00                                    .....           
```

#### Opcodes

```
  0: 0x0050 [0xB6] ENTITY_APPEARANCE_HANDLER(case=Hair style, value=52*)
  1: 0x0054 [0x00] END_REQSTACK()
```

### Event 65535.8

#### Metadata

| Field        | Value    |
|--------------|----------|
| Entrypoint   | 0x0055   |
| Data Size    | 16 bytes |
| Instructions | 2        |

```
      00 01 02 03 04 05 06 07  08 09 0A 0B 0C 0D 0E 0F
      -- -- -- -- -- -- -- --  -- -- -- -- -- -- -- --
0050:                5B 05 80  F8 FF FF 7F F8 FF FF 7F       [..........
0060: 66 77 61 30 00                                    fwa0.           
```

#### Opcodes

```
  0: 0x0055 [0x5B] LOAD_EXT_SCHEDULER: Load scheduler "fwa0" with entities [EventEntity, EventEntity], work=2637*
  1: 0x0064 [0x00] END_REQSTACK()
```

### Event 65535.9

#### Metadata

| Field        | Value    |
|--------------|----------|
| Entrypoint   | 0x0065   |
| Data Size    | 18 bytes |
| Instructions | 2        |

```
      00 01 02 03 04 05 06 07  08 09 0A 0B 0C 0D 0E 0F
      -- -- -- -- -- -- -- --  -- -- -- -- -- -- -- --
0060:                C5 06 80  F8 FF FF 7F F8 FF FF 7F       ...........
0070: 73 30 30 30 01 80 00                              s000...         
```

#### Opcodes

```
  0: 0x0065 [0xC5] LOAD_SCHEDULED_TASK_ALT3: Load scheduler 0x80013030 for entities [EventEntity, EventEntity], work=129*, param=12403
  1: 0x0076 [0x00] END_REQSTACK()
```

### Event 65535.10

#### Metadata

| Field        | Value    |
|--------------|----------|
| Entrypoint   | 0x0077   |
| Data Size    | 18 bytes |
| Instructions | 2        |

```
      00 01 02 03 04 05 06 07  08 09 0A 0B 0C 0D 0E 0F
      -- -- -- -- -- -- -- --  -- -- -- -- -- -- -- --
0070:                      C5  06 80 F8 FF FF 7F F8 FF         .........
0080: FF 7F 73 30 30 31 01 80  00                       ..s001...       
```

#### Opcodes

```
  0: 0x0077 [0xC5] LOAD_SCHEDULED_TASK_ALT3: Load scheduler 0x80013130 for entities [EventEntity, EventEntity], work=129*, param=12403
  1: 0x0088 [0x00] END_REQSTACK()
```

### Event 65535.11

#### Metadata

| Field        | Value    |
|--------------|----------|
| Entrypoint   | 0x0089   |
| Data Size    | 18 bytes |
| Instructions | 2        |

```
      00 01 02 03 04 05 06 07  08 09 0A 0B 0C 0D 0E 0F
      -- -- -- -- -- -- -- --  -- -- -- -- -- -- -- --
0080:                             C5 07 80 F8 FF FF 7F           .......
0090: F8 FF FF 7F 73 30 30 30  01 80 00                 ....s000...     
```

#### Opcodes

```
  0: 0x0089 [0xC5] LOAD_SCHEDULED_TASK_ALT3: Load scheduler 0x80013030 for entities [EventEntity, EventEntity], work=131*, param=12403
  1: 0x009A [0x00] END_REQSTACK()
```

### Event 65535.12

#### Metadata

| Field        | Value    |
|--------------|----------|
| Entrypoint   | 0x009B   |
| Data Size    | 18 bytes |
| Instructions | 2        |

```
      00 01 02 03 04 05 06 07  08 09 0A 0B 0C 0D 0E 0F
      -- -- -- -- -- -- -- --  -- -- -- -- -- -- -- --
0090:                                   C5 07 80 F8 FF             .....
00A0: FF 7F F8 FF FF 7F 73 30  30 31 01 80 00           ......s001...   
```

#### Opcodes

```
  0: 0x009B [0xC5] LOAD_SCHEDULED_TASK_ALT3: Load scheduler 0x80013130 for entities [EventEntity, EventEntity], work=131*, param=12403
  1: 0x00AC [0x00] END_REQSTACK()
```

### Event 65535.13

#### Metadata

| Field        | Value    |
|--------------|----------|
| Entrypoint   | 0x00AD   |
| Data Size    | 18 bytes |
| Instructions | 2        |

```
      00 01 02 03 04 05 06 07  08 09 0A 0B 0C 0D 0E 0F
      -- -- -- -- -- -- -- --  -- -- -- -- -- -- -- --
00A0:                                         C5 07 80               ...
00B0: F8 FF FF 7F F8 FF FF 7F  73 74 30 30 01 80 00     ........st00... 
```

#### Opcodes

```
  0: 0x00AD [0xC5] LOAD_SCHEDULED_TASK_ALT3: Load scheduler 0x80013030 for entities [EventEntity, EventEntity], work=131*, param=29811
  1: 0x00BE [0x00] END_REQSTACK()
```

### Event 65535.14

#### Metadata

| Field        | Value    |
|--------------|----------|
| Entrypoint   | 0x00BF   |
| Data Size    | 18 bytes |
| Instructions | 2        |

```
      00 01 02 03 04 05 06 07  08 09 0A 0B 0C 0D 0E 0F
      -- -- -- -- -- -- -- --  -- -- -- -- -- -- -- --
00B0:                                               C5                 .
00C0: 07 80 F8 FF FF 7F F8 FF  FF 7F 6B 69 6C 6C 01 80  ..........kill..
00D0: 00                                                .               
```

#### Opcodes

```
  0: 0x00BF [0xC5] LOAD_SCHEDULED_TASK_ALT3: Load scheduler 0x80016C6C for entities [EventEntity, EventEntity], work=131*, param=26987
  1: 0x00D0 [0x00] END_REQSTACK()
```

### Event 65535.15

#### Metadata

| Field        | Value   |
|--------------|---------|
| Entrypoint   | 0x00D1  |
| Data Size    | 8 bytes |
| Instructions | 3       |

```
      00 01 02 03 04 05 06 07  08 09 0A 0B 0C 0D 0E 0F
      -- -- -- -- -- -- -- --  -- -- -- -- -- -- -- --
00D0:    B6 00 08 80 C0 03 80  00                        ........       
```

#### Opcodes

```
  0: 0x00D1 [0xB6] ENTITY_APPEARANCE_HANDLER(case=Hair style, value=2361*)
  1: 0x00D5 [0xC0] EventEntity->Render.Flags3 |= 0x1000 // Set bit 12 (from 1*)
  2: 0x00D8 [0x00] END_REQSTACK()
```

### Event 65535.16

#### Metadata

| Field        | Value    |
|--------------|----------|
| Entrypoint   | 0x00D9   |
| Data Size    | 22 bytes |
| Instructions | 4        |

```
      00 01 02 03 04 05 06 07  08 09 0A 0B 0C 0D 0E 0F
      -- -- -- -- -- -- -- --  -- -- -- -- -- -- -- --
00D0:                             BA F8 FF FF 7F 09 80           .......
00E0: 0A 80 0B 80 0C 80 80 F8  FF FF 7F 1C 0D 80 00     ............... 
```

#### Opcodes

```
  0: 0x00D9 [0xBA] SET_ENTITY_POSITION(entity_id=EventEntity, pos_x=-90.177*, pos_z=80.393*, pos_y=-1.199*, direction=239.9°*)
  1: 0x00E6 [0x80] LOAD_WAIT(entity=EventEntity)
  2: 0x00EB [0x1C] WAIT(15* ticks)
  3: 0x00EE [0x00] END_REQSTACK()
```

### Event 65535.17

#### Metadata

| Field        | Value    |
|--------------|----------|
| Entrypoint   | 0x00EF   |
| Data Size    | 16 bytes |
| Instructions | 2        |

```
      00 01 02 03 04 05 06 07  08 09 0A 0B 0C 0D 0E 0F
      -- -- -- -- -- -- -- --  -- -- -- -- -- -- -- --
00E0:                                               5B                 [
00F0: 0E 80 F8 FF FF 7F F8 FF  FF 7F 68 6F 6E 30 00     ..........hon0. 
```

#### Opcodes

```
  0: 0x00EF [0x5B] LOAD_EXT_SCHEDULER: Load scheduler "hon0" with entities [EventEntity, EventEntity], work=2638*
  1: 0x00FE [0x00] END_REQSTACK()
```

### Event 65535.18

#### Metadata

| Field        | Value    |
|--------------|----------|
| Entrypoint   | 0x00FF   |
| Data Size    | 19 bytes |
| Instructions | 3        |

```
      00 01 02 03 04 05 06 07  08 09 0A 0B 0C 0D 0E 0F
      -- -- -- -- -- -- -- --  -- -- -- -- -- -- -- --
00F0:                                               5B                 [
0100: 0E 80 F8 FF FF 7F F8 FF  FF 7F 68 6F 6E 31 1C 0F  ..........hon1..
0110: 80 00                                             ..              
```

#### Opcodes

```
  0: 0x00FF [0x5B] LOAD_EXT_SCHEDULER: Load scheduler "hon1" with entities [EventEntity, EventEntity], work=2638*
  1: 0x010E [0x1C] WAIT(356* ticks)
  2: 0x0111 [0x00] END_REQSTACK()
```

### Event 65535.19

#### Metadata

| Field        | Value    |
|--------------|----------|
| Entrypoint   | 0x0112   |
| Data Size    | 18 bytes |
| Instructions | 2        |

```
      00 01 02 03 04 05 06 07  08 09 0A 0B 0C 0D 0E 0F
      -- -- -- -- -- -- -- --  -- -- -- -- -- -- -- --
0110:       C5 10 80 F8 FF FF  7F F8 FF FF 7F 73 30 30    ...........s00
0120: 31 01 80 00                                       1...            
```

#### Opcodes

```
  0: 0x0112 [0xC5] LOAD_SCHEDULED_TASK_ALT3: Load scheduler 0x80013130 for entities [EventEntity, EventEntity], work=133*, param=12403
  1: 0x0123 [0x00] END_REQSTACK()
```

### Event 65535.20

#### Metadata

| Field        | Value    |
|--------------|----------|
| Entrypoint   | 0x0124   |
| Data Size    | 16 bytes |
| Instructions | 2        |

```
      00 01 02 03 04 05 06 07  08 09 0A 0B 0C 0D 0E 0F
      -- -- -- -- -- -- -- --  -- -- -- -- -- -- -- --
0120:             5B 11 80 F8  FF FF 7F F8 FF FF 7F 68      [..........h
0130: 6F 6E 32 00                                       on2.            
```

#### Opcodes

```
  0: 0x0124 [0x5B] LOAD_EXT_SCHEDULER: Load scheduler "hon2" with entities [EventEntity, EventEntity], work=2639*
  1: 0x0133 [0x00] END_REQSTACK()
```

### Event 65535.21

#### Metadata

| Field        | Value    |
|--------------|----------|
| Entrypoint   | 0x0134   |
| Data Size    | 16 bytes |
| Instructions | 2        |

```
      00 01 02 03 04 05 06 07  08 09 0A 0B 0C 0D 0E 0F
      -- -- -- -- -- -- -- --  -- -- -- -- -- -- -- --
0130:             5B 11 80 F8  FF FF 7F F8 FF FF 7F 68      [..........h
0140: 6F 6E 33 00                                       on3.            
```

#### Opcodes

```
  0: 0x0134 [0x5B] LOAD_EXT_SCHEDULER: Load scheduler "hon3" with entities [EventEntity, EventEntity], work=2639*
  1: 0x0143 [0x00] END_REQSTACK()
```

### Event 65535.22

#### Metadata

| Field        | Value    |
|--------------|----------|
| Entrypoint   | 0x0144   |
| Data Size    | 16 bytes |
| Instructions | 2        |

```
      00 01 02 03 04 05 06 07  08 09 0A 0B 0C 0D 0E 0F
      -- -- -- -- -- -- -- --  -- -- -- -- -- -- -- --
0140:             5B 11 80 F8  FF FF 7F F8 FF FF 7F 68      [..........h
0150: 6F 6E 34 00                                       on4.            
```

#### Opcodes

```
  0: 0x0144 [0x5B] LOAD_EXT_SCHEDULER: Load scheduler "hon4" with entities [EventEntity, EventEntity], work=2639*
  1: 0x0153 [0x00] END_REQSTACK()
```

### Event 65535.23

#### Metadata

| Field        | Value    |
|--------------|----------|
| Entrypoint   | 0x0154   |
| Data Size    | 38 bytes |
| Instructions | 4        |

```
      00 01 02 03 04 05 06 07  08 09 0A 0B 0C 0D 0E 0F
      -- -- -- -- -- -- -- --  -- -- -- -- -- -- -- --
0150:             9F 12 80 F8  FF FF 7F F8 FF FF 7F 73      ...........s
0160: 74 72 30 01 80 1C 13 80  9F 12 80 F8 FF FF 7F F8  tr0.............
0170: FF FF 7F 6B 69 6C 6C 01  80 00                    ...kill...      
```

#### Opcodes

```
  0: 0x0154 [0x9F] LOAD_SCHEDULED_TASK_ALT: Load scheduler "str0" with entities [EventEntity, EventEntity], work=[127*, 0*]
  1: 0x0165 [0x1C] WAIT(45* ticks)
  2: 0x0168 [0x9F] LOAD_SCHEDULED_TASK_ALT: Load scheduler "kill" with entities [EventEntity, EventEntity], work=[127*, 0*]
  3: 0x0179 [0x00] END_REQSTACK()
```
