# 17776855

## Common Data

| Field            | Value                 |
|------------------|-----------------------|
| Zone             | Upper Jeuno (ID: 244) |
| Block Size       | 19632 bytes           |
| Total Events     | 23                    |
| References Count | 466                   |

## List of Events

| Event ID              | Entrypoint   |   Size |   Instructions |
|-----------------------|--------------|--------|----------------|
| [65535](#event-65535) | 0x0000       |      1 |              1 |
| [2](#event-2)         | 0x0001       |    832 |            122 |
| [74](#event-74)       | 0x0341       |   1827 |            242 |
| [17](#event-17)       | 0x0A64       |   1364 |            201 |
| [13](#event-13)       | 0x0FB8       |    329 |             43 |
| [12](#event-12)       | 0x1101       |    753 |            109 |
| [197](#event-197)     | 0x13F2       |   1933 |            238 |
| [198](#event-198)     | 0x1B7F       |   1899 |            232 |
| [112](#event-112)     | 0x22EA       |   1273 |            177 |
| [163](#event-163)     | 0x27E3       |    228 |             30 |
| [173](#event-173)     | 0x28C7       |     30 |              7 |
| [174](#event-174)     | 0x28E5       |    154 |             33 |
| [159](#event-159)     | 0x297F       |    787 |            106 |
| [105](#event-105)     | 0x2C92       |    824 |            129 |
| [107](#event-107)     | 0x2FCA       |   1853 |            276 |
| [192](#event-192)     | 0x3707       |    841 |            126 |
| [194](#event-194)     | 0x3A50       |    302 |             43 |
| [109](#event-109)     | 0x3B7E       |     87 |             20 |
| [101](#event-101)     | 0x3BD5       |    487 |             66 |
| [80](#event-80)       | 0x3DBC       |    897 |            140 |
| [94](#event-94)       | 0x413D       |    430 |             56 |
| [11](#event-11)       | 0x42EB       |     31 |              9 |
| [155](#event-155)     | 0x430A       |    497 |             81 |

## DAT References (imed_data)

|   Index | Hex Value   |   Dec Value |
|---------|-------------|-------------|
|       0 | 0x00C8      |         200 |
|       1 | 0x0000      |           0 |
|       2 | 0x0038      |          56 |
|       3 | 0x0003      |           3 |
|       4 | 0x007B      |         123 |
|       5 | 0x01BE      |         446 |
|       6 | 0x0001      |           1 |
|       7 | 0x003C      |          60 |
|       8 | 0x001E      |          30 |
|       9 | 0x0014      |          20 |
|      10 | 0x201E      |        8222 |
|      11 | 0x201F      |        8223 |
|      12 | 0x2020      |        8224 |
|      13 | 0x2021      |        8225 |
|      14 | 0x005A      |          90 |
|      15 | 0x2022      |        8226 |
|      16 | 0x2023      |        8227 |
|      17 | 0x000A      |          10 |
|      18 | 0x2024      |        8228 |
|      19 | 0x0078      |         120 |
|      20 | 0x2025      |        8229 |
|      21 | 0x2026      |        8230 |
|      22 | 0x2027      |        8231 |
|      23 | 0x2028      |        8232 |
|      24 | 0x2029      |        8233 |
|      25 | 0x202A      |        8234 |
|      26 | 0x202B      |        8235 |
|      27 | 0x012C      |         300 |
|      28 | 0x006E      |         110 |
|      29 | 0x007F      |         127 |
|      30 | 0xFFFF511C  |  4294922524 |
|      31 | 0xFFFFF893  |  4294965395 |
|      32 | 0xFFFFFE0D  |  4294966797 |
|      33 | 0x20A6      |        8358 |
|      34 | 0x004C      |          76 |
|      35 | 0x20A7      |        8359 |
|      36 | 0x20A8      |        8360 |
|      37 | 0x20A9      |        8361 |
|      38 | 0x20AA      |        8362 |
|      39 | 0x20AB      |        8363 |
|      40 | 0x006C      |         108 |
|      41 | 0x20AC      |        8364 |
|      42 | 0x20AD      |        8365 |
|      43 | 0x20AE      |        8366 |
|      44 | 0x20AF      |        8367 |
|      45 | 0x20B0      |        8368 |
|      46 | 0x20B1      |        8369 |
|      47 | 0x20B2      |        8370 |
|      48 | 0x0028      |          40 |
|      49 | 0x20B3      |        8371 |
|      50 | 0x20B4      |        8372 |
|      51 | 0x00B4      |         180 |
|      52 | 0x00E0      |         224 |
|      53 | 0x20B5      |        8373 |
|      54 | 0x20B6      |        8374 |
|      55 | 0x20B7      |        8375 |
|      56 | 0x20B8      |        8376 |
|      57 | 0x20B9      |        8377 |
|      58 | 0x000F      |          15 |
|      59 | 0x20BA      |        8378 |
|      60 | 0x20BB      |        8379 |
|      61 | 0x20BC      |        8380 |
|      62 | 0x20BD      |        8381 |
|      63 | 0x20BE      |        8382 |
|      64 | 0x20BF      |        8383 |
|      65 | 0x20C0      |        8384 |
|      66 | 0x20C1      |        8385 |
|      67 | 0x20C2      |        8386 |
|      68 | 0x20C3      |        8387 |
|      69 | 0x20C4      |        8388 |
|      70 | 0x20C5      |        8389 |
|      71 | 0x20C6      |        8390 |
|      72 | 0x20C7      |        8391 |
|      73 | 0x20C8      |        8392 |
|      74 | 0x20C9      |        8393 |
|      75 | 0x099A      |        2458 |
|      76 | 0x20CA      |        8394 |
|      77 | 0x20CB      |        8395 |
|      78 | 0x20CC      |        8396 |
|      79 | 0x20CD      |        8397 |
|      80 | 0xFFFF2490  |  4294911120 |
|      81 | 0x1756F     |       95599 |
|      82 | 0x2007      |        8199 |
|      83 | 0x0ABB      |        2747 |
|      84 | 0x0035      |          53 |
|      85 | 0x0159      |         345 |
|      86 | 0x1FFD      |        8189 |
|      87 | 0x1FFE      |        8190 |
|      88 | 0x1FFF      |        8191 |
|      89 | 0x2000      |        8192 |
|      90 | 0x2001      |        8193 |
|      91 | 0x2002      |        8194 |
|      92 | 0x2003      |        8195 |
|      93 | 0x2004      |        8196 |
|      94 | 0x2005      |        8197 |
|      95 | 0x2006      |        8198 |
|      96 | 0x0258      |         600 |
|      97 | 0x2008      |        8200 |
|      98 | 0x2009      |        8201 |
|      99 | 0x200A      |        8202 |
|     100 | 0x200B      |        8203 |
|     101 | 0x007C      |         124 |
|     102 | 0x200C      |        8204 |
|     103 | 0x200D      |        8205 |
|     104 | 0x0064      |         100 |
|     105 | 0x200E      |        8206 |
|     106 | 0x200F      |        8207 |
|     107 | 0x2010      |        8208 |
|     108 | 0x2011      |        8209 |
|     109 | 0x2012      |        8210 |
|     110 | 0x2013      |        8211 |
|     111 | 0x2014      |        8212 |
|     112 | 0x2015      |        8213 |
|     113 | 0x2016      |        8214 |
|     114 | 0x2017      |        8215 |
|     115 | 0x2018      |        8216 |
|     116 | 0x2019      |        8217 |
|     117 | 0x0711      |        1809 |
|     118 | 0x00C9      |         201 |
|     119 | 0x460D      |       17933 |
|     120 | 0x0158      |         344 |
|     121 | 0x1FF7      |        8183 |
|     122 | 0x1FF8      |        8184 |
|     123 | 0x1FF9      |        8185 |
|     124 | 0x1FFA      |        8186 |
|     125 | 0x1FFB      |        8187 |
|     126 | 0x0005      |           5 |
|     127 | 0x1FDE      |        8158 |
|     128 | 0x1FDF      |        8159 |
|     129 | 0x1FE0      |        8160 |
|     130 | 0x1FE1      |        8161 |
|     131 | 0x0090      |         144 |
|     132 | 0x1FE2      |        8162 |
|     133 | 0x1FE3      |        8163 |
|     134 | 0x1FE4      |        8164 |
|     135 | 0x1FE5      |        8165 |
|     136 | 0x1FE6      |        8166 |
|     137 | 0x1FE7      |        8167 |
|     138 | 0x1FE8      |        8168 |
|     139 | 0x1FE9      |        8169 |
|     140 | 0x1FEA      |        8170 |
|     141 | 0x1FEB      |        8171 |
|     142 | 0x1FEC      |        8172 |
|     143 | 0x01C2      |         450 |
|     144 | 0xFFFEDDF6  |  4294893046 |
|     145 | 0xE274      |       57972 |
|     146 | 0xFFFFFB50  |  4294966096 |
|     147 | 0x061D      |        1565 |
|     148 | 0x0007      |           7 |
|     149 | 0x01DC      |         476 |
|     150 | 0x1FA3      |        8099 |
|     151 | 0xFFFEDD5C  |  4294892892 |
|     152 | 0xEB85      |       60293 |
|     153 | 0x0CBE      |        3262 |
|     154 | 0x1FA4      |        8100 |
|     155 | 0x1FA5      |        8101 |
|     156 | 0x0998      |        2456 |
|     157 | 0x1FA6      |        8102 |
|     158 | 0x1FA7      |        8103 |
|     159 | 0x007A      |         122 |
|     160 | 0x1FA8      |        8104 |
|     161 | 0x1FA9      |        8105 |
|     162 | 0x1FAA      |        8106 |
|     163 | 0x1FAB      |        8107 |
|     164 | 0x1FAC      |        8108 |
|     165 | 0x1FAD      |        8109 |
|     166 | 0x1FAE      |        8110 |
|     167 | 0x0E2C      |        3628 |
|     168 | 0x1FAF      |        8111 |
|     169 | 0x1FB0      |        8112 |
|     170 | 0x0006      |           6 |
|     171 | 0x1FB1      |        8113 |
|     172 | 0x1FB2      |        8114 |
|     173 | 0x1FB6      |        8118 |
|     174 | 0x1FB7      |        8119 |
|     175 | 0x1FB3      |        8115 |
|     176 | 0x1FB4      |        8116 |
|     177 | 0x1FB5      |        8117 |
|     178 | 0x1FB8      |        8120 |
|     179 | 0x1FB9      |        8121 |
|     180 | 0x1FBA      |        8122 |
|     181 | 0x1FBB      |        8123 |
|     182 | 0x1FBC      |        8124 |
|     183 | 0x1FBD      |        8125 |
|     184 | 0x1FBF      |        8127 |
|     185 | 0x1FC2      |        8130 |
|     186 | 0xFFFEE048  |  4294893640 |
|     187 | 0xFDA6      |       64934 |
|     188 | 0x0F25      |        3877 |
|     189 | 0x00F0      |         240 |
|     190 | 0x1FC3      |        8131 |
|     191 | 0x1FC4      |        8132 |
|     192 | 0x1FC5      |        8133 |
|     193 | 0x1FC6      |        8134 |
|     194 | 0x1FC7      |        8135 |
|     195 | 0x1FC8      |        8136 |
|     196 | 0x009F      |         159 |
|     197 | 0x00CF      |         207 |
|     198 | 0x1FC9      |        8137 |
|     199 | 0x1FCA      |        8138 |
|     200 | 0x1FCB      |        8139 |
|     201 | 0x1FCC      |        8140 |
|     202 | 0x1FCD      |        8141 |
|     203 | 0x1FCE      |        8142 |
|     204 | 0x1FCF      |        8143 |
|     205 | 0x1FD0      |        8144 |
|     206 | 0x0096      |         150 |
|     207 | 0x1FD1      |        8145 |
|     208 | 0x1FD2      |        8146 |
|     209 | 0x1FD3      |        8147 |
|     210 | 0x1FD4      |        8148 |
|     211 | 0x1FD5      |        8149 |
|     212 | 0x1FD6      |        8150 |
|     213 | 0x1FD7      |        8151 |
|     214 | 0x1FD8      |        8152 |
|     215 | 0x1FD9      |        8153 |
|     216 | 0x1FDA      |        8154 |
|     217 | 0x1C2A      |        7210 |
|     218 | 0x0013      |          19 |
|     219 | 0xFFFF5172  |  4294922610 |
|     220 | 0x1A4CD     |      107725 |
|     221 | 0x01E8      |         488 |
|     222 | 0x1C2B      |        7211 |
|     223 | 0x1C2C      |        7212 |
|     224 | 0x1C2D      |        7213 |
|     225 | 0x1C2E      |        7214 |
|     226 | 0x1C2F      |        7215 |
|     227 | 0x1C30      |        7216 |
|     228 | 0x1C31      |        7217 |
|     229 | 0x1C32      |        7218 |
|     230 | 0x0FD3      |        4051 |
|     231 | 0x1C34      |        7220 |
|     232 | 0x1C35      |        7221 |
|     233 | 0x1C36      |        7222 |
|     234 | 0x0E74      |        3700 |
|     235 | 0x0564      |        1380 |
|     236 | 0x1C37      |        7223 |
|     237 | 0x1C38      |        7224 |
|     238 | 0x1C39      |        7225 |
|     239 | 0x1C3A      |        7226 |
|     240 | 0x1C3B      |        7227 |
|     241 | 0x1C3C      |        7228 |
|     242 | 0x1C3D      |        7229 |
|     243 | 0x1C3E      |        7230 |
|     244 | 0x1C3F      |        7231 |
|     245 | 0x1C40      |        7232 |
|     246 | 0x1C41      |        7233 |
|     247 | 0x1C91      |        7313 |
|     248 | 0x1C92      |        7314 |
|     249 | 0x1C95      |        7317 |
|     250 | 0x1119      |        4377 |
|     251 | 0x0015      |          21 |
|     252 | 0x1C96      |        7318 |
|     253 | 0x1C97      |        7319 |
|     254 | 0x1C98      |        7320 |
|     255 | 0x1C99      |        7321 |
|     256 | 0x1C9A      |        7322 |
|     257 | 0x1C9B      |        7323 |
|     258 | 0x01C1      |         449 |
|     259 | 0x00A0      |         160 |
|     260 | 0xFFFF873D  |  4294936381 |
|     261 | 0x1C52      |        7250 |
|     262 | 0xFFFFFA24  |  4294965796 |
|     263 | 0x06DA      |        1754 |
|     264 | 0x1BAA      |        7082 |
|     265 | 0x1BAB      |        7083 |
|     266 | 0x1BAC      |        7084 |
|     267 | 0x1BAD      |        7085 |
|     268 | 0x1BAE      |        7086 |
|     269 | 0x1BAF      |        7087 |
|     270 | 0x002D      |          45 |
|     271 | 0x1BB0      |        7088 |
|     272 | 0x1BB1      |        7089 |
|     273 | 0x1BB2      |        7090 |
|     274 | 0x1BB3      |        7091 |
|     275 | 0x00A3      |         163 |
|     276 | 0xFFFEDAB4  |  4294892212 |
|     277 | 0x13B65     |       80741 |
|     278 | 0xFFFFFC4B  |  4294966347 |
|     279 | 0x06A5      |        1701 |
|     280 | 0x1CAF      |        7343 |
|     281 | 0x1CB0      |        7344 |
|     282 | 0x1CB1      |        7345 |
|     283 | 0x1CB2      |        7346 |
|     284 | 0x1CB3      |        7347 |
|     285 | 0x1CB4      |        7348 |
|     286 | 0x1CB5      |        7349 |
|     287 | 0x1CB6      |        7350 |
|     288 | 0x1CB7      |        7351 |
|     289 | 0x1CB8      |        7352 |
|     290 | 0x1CB9      |        7353 |
|     291 | 0x1CBA      |        7354 |
|     292 | 0x1CBB      |        7355 |
|     293 | 0x1CBC      |        7356 |
|     294 | 0x1CBD      |        7357 |
|     295 | 0x1CBE      |        7358 |
|     296 | 0x1CBF      |        7359 |
|     297 | 0x1CC0      |        7360 |
|     298 | 0x1CC1      |        7361 |
|     299 | 0x1CC2      |        7362 |
|     300 | 0x1CC3      |        7363 |
|     301 | 0x01C3      |         451 |
|     302 | 0x1CC6      |        7366 |
|     303 | 0xFFFEAFB4  |  4294881204 |
|     304 | 0x120AC     |       73900 |
|     305 | 0x004A      |          74 |
|     306 | 0x1CC7      |        7367 |
|     307 | 0x1CC8      |        7368 |
|     308 | 0x1CC9      |        7369 |
|     309 | 0x1CCA      |        7370 |
|     310 | 0x1CCB      |        7371 |
|     311 | 0x1CCC      |        7372 |
|     312 | 0x1CCE      |        7374 |
|     313 | 0x026C      |         620 |
|     314 | 0x1CCD      |        7373 |
|     315 | 0x1CCF      |        7375 |
|     316 | 0x1CD0      |        7376 |
|     317 | 0x1CD1      |        7377 |
|     318 | 0x1CD2      |        7378 |
|     319 | 0x1CD3      |        7379 |
|     320 | 0x1CD4      |        7380 |
|     321 | 0x1CD5      |        7381 |
|     322 | 0x1CD6      |        7382 |
|     323 | 0x1CD7      |        7383 |
|     324 | 0xFFFEB13B  |  4294881595 |
|     325 | 0x11DFA     |       73210 |
|     326 | 0x0F28      |        3880 |
|     327 | 0x1CD8      |        7384 |
|     328 | 0x1CD9      |        7385 |
|     329 | 0xFFFEB43D  |  4294882365 |
|     330 | 0x120E5     |       73957 |
|     331 | 0x0F66      |        3942 |
|     332 | 0x1CDA      |        7386 |
|     333 | 0x1CDB      |        7387 |
|     334 | 0x1CDC      |        7388 |
|     335 | 0x1CDD      |        7389 |
|     336 | 0x1CDE      |        7390 |
|     337 | 0x1CE0      |        7392 |
|     338 | 0x1CE1      |        7393 |
|     339 | 0x1CE2      |        7394 |
|     340 | 0x1CE3      |        7395 |
|     341 | 0x1CE4      |        7396 |
|     342 | 0x1CE5      |        7397 |
|     343 | 0x1CE6      |        7398 |
|     344 | 0x1CE7      |        7399 |
|     345 | 0x1CE8      |        7400 |
|     346 | 0x1CE9      |        7401 |
|     347 | 0x1CEA      |        7402 |
|     348 | 0x1CEB      |        7403 |
|     349 | 0x1CEC      |        7404 |
|     350 | 0x1CED      |        7405 |
|     351 | 0x1CEE      |        7406 |
|     352 | 0x1CEF      |        7407 |
|     353 | 0x1CF0      |        7408 |
|     354 | 0x1CF1      |        7409 |
|     355 | 0x1CF2      |        7410 |
|     356 | 0x1CF3      |        7411 |
|     357 | 0x1CF4      |        7412 |
|     358 | 0xFFFEDB12  |  4294892306 |
|     359 | 0xE817      |       59415 |
|     360 | 0xFFFFFB47  |  4294966087 |
|     361 | 0x042C      |        1068 |
|     362 | 0x1CFC      |        7420 |
|     363 | 0x1CFD      |        7421 |
|     364 | 0x1CFE      |        7422 |
|     365 | 0x1CFF      |        7423 |
|     366 | 0x1D00      |        7424 |
|     367 | 0x1D01      |        7425 |
|     368 | 0x1D02      |        7426 |
|     369 | 0x1D03      |        7427 |
|     370 | 0x1D04      |        7428 |
|     371 | 0x1D05      |        7429 |
|     372 | 0x1D06      |        7430 |
|     373 | 0x1D07      |        7431 |
|     374 | 0x1D08      |        7432 |
|     375 | 0x1D09      |        7433 |
|     376 | 0x1D0A      |        7434 |
|     377 | 0x1D0B      |        7435 |
|     378 | 0x1D0C      |        7436 |
|     379 | 0x1D0D      |        7437 |
|     380 | 0x1D0E      |        7438 |
|     381 | 0x0032      |          50 |
|     382 | 0x1D0F      |        7439 |
|     383 | 0x1D10      |        7440 |
|     384 | 0x1D11      |        7441 |
|     385 | 0x1D13      |        7443 |
|     386 | 0x1D14      |        7444 |
|     387 | 0x1D15      |        7445 |
|     388 | 0x1D16      |        7446 |
|     389 | 0x1B65      |        7013 |
|     390 | 0x1B66      |        7014 |
|     391 | 0x1B67      |        7015 |
|     392 | 0x1B68      |        7016 |
|     393 | 0xFFFF3557  |  4294915415 |
|     394 | 0x15217     |       86551 |
|     395 | 0x0EC9      |        3785 |
|     396 | 0x1C07      |        7175 |
|     397 | 0x1C08      |        7176 |
|     398 | 0x1C09      |        7177 |
|     399 | 0x1C0A      |        7178 |
|     400 | 0x1C0B      |        7179 |
|     401 | 0x1C0C      |        7180 |
|     402 | 0x1C0D      |        7181 |
|     403 | 0x1C0E      |        7182 |
|     404 | 0x00DC      |         220 |
|     405 | 0x1C0F      |        7183 |
|     406 | 0x1C10      |        7184 |
|     407 | 0x31CE      |       12750 |
|     408 | 0x107CC     |       67532 |
|     409 | 0x07CF      |        1999 |
|     410 | 0x0C4F      |        3151 |
|     411 | 0x1D19      |        7449 |
|     412 | 0x1D21      |        7457 |
|     413 | 0x1D22      |        7458 |
|     414 | 0x1D23      |        7459 |
|     415 | 0x1D24      |        7460 |
|     416 | 0x1D25      |        7461 |
|     417 | 0x1D26      |        7462 |
|     418 | 0x1D27      |        7463 |
|     419 | 0x0092      |         146 |
|     420 | 0x1D28      |        7464 |
|     421 | 0x1D29      |        7465 |
|     422 | 0x1D2A      |        7466 |
|     423 | 0x1D2B      |        7467 |
|     424 | 0x1D2C      |        7468 |
|     425 | 0x023A      |         570 |
|     426 | 0x1D2D      |        7469 |
|     427 | 0x1D2E      |        7470 |
|     428 | 0x1D2F      |        7471 |
|     429 | 0x1D30      |        7472 |
|     430 | 0x1D31      |        7473 |
|     431 | 0x1D32      |        7474 |
|     432 | 0x1D33      |        7475 |
|     433 | 0x2AF9      |       11001 |
|     434 | 0x1110C     |       69900 |
|     435 | 0x0F54      |        3924 |
|     436 | 0x1D36      |        7478 |
|     437 | 0x1D37      |        7479 |
|     438 | 0x1D38      |        7480 |
|     439 | 0x1D39      |        7481 |
|     440 | 0x1D3A      |        7482 |
|     441 | 0x1D3B      |        7483 |
|     442 | 0xFFFEE789  |  4294895497 |
|     443 | 0xC453      |       50259 |
|     444 | 0x0EAD      |        3757 |
|     445 | 0x1DB3      |        7603 |
|     446 | 0x01BC      |         444 |
|     447 | 0xFFFFE86D  |  4294961261 |
|     448 | 0xBC0D      |       48141 |
|     449 | 0x0513      |        1299 |
|     450 | 0x0E50      |        3664 |
|     451 | 0x1E04      |        7684 |
|     452 | 0x1E05      |        7685 |
|     453 | 0x1E06      |        7686 |
|     454 | 0x1E07      |        7687 |
|     455 | 0x1E08      |        7688 |
|     456 | 0x1E09      |        7689 |
|     457 | 0x1E0A      |        7690 |
|     458 | 0x1E0B      |        7691 |
|     459 | 0x1E0C      |        7692 |
|     460 | 0x1E0D      |        7693 |
|     461 | 0x1E0E      |        7694 |
|     462 | 0x1E0F      |        7695 |
|     463 | 0x1E10      |        7696 |
|     464 | 0x1E11      |        7697 |
|     465 | 0x1E12      |        7698 |

## String References

- **7321**: Will you bring me $6? [I'll do it for the crest./Not right now.]
- **7344**: Did you learn anything about her sickness? [Nope, nothing./As a matter of fact...]
- **7439**: Will you bring $6? [At once./Not yet.]
- **7603**: You know, this pub's got different requirements to get in every day. Like on Tarutaru Day, only Tarutaru can get intaru!
- **7688**: Do you want to hear about Borghertz? [Yes, tell me./No, thank you.]
- **8124**: Travel to the Boyahda Tree? [Yes./No.]
- **8137**: My dear Ilumida, I don't know why I am writing this. You know I have never been good at telling you how I feel.
- **8138**: Many a time I have tried to put into words my love for you, but those words never seemed to make their way out.
- **8139**: Drinking tea together on an autumn morning, or resting in the shade on a summer afternoon...it was the little things that brought me happiness.
- **8140**: As much as I would like to throw away everything and spend all my time with you, the situation in Vana'diel now will not let me.
- **8141**: I wish that I could be by your side when you read this letter, but that may not be what destiny has in store for me. I must tell you how I feel now.
- **8142**: I love you.
- **8143**: To this day I regret never saying these words to you, and I beg that one day you will forgive me. Adaruel
- **8169**: How about it? [Okay, I'll help you out./I'm sorry...]

## Events

### Event 65535

#### Metadata

| Field        | Value   |
|--------------|---------|
| Entrypoint   | 0x0000  |
| Data Size    | 1 bytes |
| Instructions | 1       |

```
      00 01 02 03 04 05 06 07  08 09 0A 0B 0C 0D 0E 0F
      -- -- -- -- -- -- -- --  -- -- -- -- -- -- -- --
0000: 00                                                .               
```

#### Opcodes

```
  0: 0x0000 [0x00] END_REQSTACK()
```

### Event 2

#### Metadata

| Field        | Value     |
|--------------|-----------|
| Entrypoint   | 0x0001    |
| Data Size    | 832 bytes |
| Instructions | 122       |

```
      00 01 02 03 04 05 06 07  08 09 0A 0B 0C 0D 0E 0F
      -- -- -- -- -- -- -- --  -- -- -- -- -- -- -- --
0000:    20 01 46 01 42 45 00  80 F0 FF FF 7F F0 FF FF    .F.BE.........
0010: 7F 66 64 6F 31 01 80 55  00 80 F0 FF FF 7F F0 FF  .fdo1..U........
0020: FF 7F 66 64 6F 31 45 02  80 F0 FF FF 7F F0 FF FF  ..fdo1E.........
0030: 7F 76 30 30 30 01 80 55  02 80 F0 FF FF 7F F0 FF  .v000..U........
0040: FF 7F 76 30 30 30 38 03  80 94 01 F8 FF FF 7F 5C  ..v0008........\
0050: 00 04 80 5C 01 04 80 75  00 05 80 75 01 97 01 80  ...\...u...u....
0060: 06 80 4E 01 F0 FF FF 7F  4E 00 08 40 0F 01 80 01  ..N.....N..@....
0070: 40 0F 01 80 08 40 0F 01  80 39 40 0F 01 29 03 39  @....@...9@..).9
0080: 40 0F 01 0B 45 00 80 F0  FF FF 7F F0 FF FF 7F 66  @...E..........f
0090: 64 69 31 01 80 55 00 80  F0 FF FF 7F F0 FF FF 7F  di1..U..........
00A0: 66 64 69 31 1C 07 80 45  02 80 F0 FF FF 7F F0 FF  fdi1...E........
00B0: FF 7F 76 30 30 31 01 80  55 02 80 F0 FF FF 7F F0  ..v001..U.......
00C0: FF FF 7F 76 30 30 31 29  03 01 40 0F 01 15 45 02  ...v001)..@...E.
00D0: 80 F0 FF FF 7F F0 FF FF  7F 76 30 30 32 01 80 55  .........v002..U
00E0: 02 80 F0 FF FF 7F F0 FF  FF 7F 76 30 30 32 1C 07  ..........v002..
00F0: 80 27 03 6D 40 0F 01 06  1C 08 80 27 03 01 40 0F  .'.m@......'..@.
0100: 01 16 1C 09 80 29 03 08  40 0F 01 02 27 03 6D 40  .....)..@...'.m@
0110: 0F 01 07 1C 07 80 2B 08  40 0F 01 0A 80 23 2A 03  ......+.@....#*.
0120: 01 40 0F 01 2B 01 40 0F  01 0B 80 23 45 02 80 F0  .@..+.@....#E...
0130: FF FF 7F F0 FF FF 7F 76  30 30 33 01 80 55 02 80  .......v003..U..
0140: F0 FF FF 7F F0 FF FF 7F  76 30 30 33 2B 08 40 0F  ........v003+.@.
0150: 01 0C 80 23 2B 01 40 0F  01 0D 80 23 27 03 01 40  ...#+.@....#'..@
0160: 0F 01 17 1C 0E 80 45 02  80 F0 FF FF 7F F0 FF FF  ......E.........
0170: 7F 76 30 30 34 01 80 1C  07 80 27 03 08 40 0F 01  .v004.....'..@..
0180: 11 2B 08 40 0F 01 0F 80  23 28 04 08 40 0F 01 12  .+.@....#(..@...
0190: 2A 03 01 40 0F 01 55 02  80 F0 FF FF 7F F0 FF FF  *..@..U.........
01A0: 7F 76 30 30 34 1C 08 80  2B 01 40 0F 01 10 80 1C  .v004...+.@.....
01B0: 07 80 23 4A 01 40 0F 01  08 40 0F 01 1C 11 80 45  ..#J.@...@.....E
01C0: 02 80 F0 FF FF 7F F0 FF  FF 7F 76 30 30 36 01 80  ..........v006..
01D0: 6F 76 01 40 0F 01 2B 01  40 0F 01 12 80 1C 13 80  ov.@..+.@.......
01E0: 23 2B 08 40 0F 01 14 80  23 1C 09 80 27 03 01 40  #+.@....#...'..@
01F0: 0F 01 32 2B 01 40 0F 01  15 80 23 1C 08 80 7B 08  ..2+.@....#...{.
0200: 40 0F 01 1C 08 80 52 02  80 F0 FF FF 7F F0 FF FF  @.....R.........
0210: 7F 76 30 30 36 45 02 80  F0 FF FF 7F F0 FF FF 7F  .v006E..........
0220: 76 30 30 35 01 80 2B 08  40 0F 01 16 80 1C 07 80  v005..+.@.......
0230: 23 2B 01 40 0F 01 17 80  23 27 03 01 40 0F 01 33  #+.@....#'..@..3
0240: 2B 01 40 0F 01 18 80 23  4A 08 40 0F 01 01 40 0F  +.@....#J.@...@.
0250: 01 6F 76 08 40 0F 01 2B  08 40 0F 01 19 80 23 52  .ov.@..+.@....#R
0260: 02 80 F0 FF FF 7F F0 FF  FF 7F 76 30 30 35 45 02  ..........v005E.
0270: 80 F0 FF FF 7F F0 FF FF  7F 76 30 30 37 01 80 55  .........v007..U
0280: 02 80 F0 FF FF 7F F0 FF  FF 7F 76 30 30 37 27 03  ..........v007'.
0290: 08 40 0F 01 0F 2B 08 40  0F 01 1A 80 23 29 03 08  .@...+.@....#)..
02A0: 40 0F 01 10 27 03 08 40  0F 01 03 1C 11 80 45 02  @...'..@......E.
02B0: 80 F0 FF FF 7F F0 FF FF  7F 76 30 30 38 01 80 2A  .........v008..*
02C0: 03 08 40 0F 01 27 03 6A  40 0F 01 05 1C 07 80 27  ..@..'.j@......'
02D0: 03 08 40 0F 01 04 1C 13  80 27 03 6A 40 0F 01 06  ..@......'.j@...
02E0: 45 00 80 F0 FF FF 7F F0  FF FF 7F 66 64 6F 32 01  E..........fdo2.
02F0: 80 55 00 80 F0 FF FF 7F  F0 FF FF 7F 66 64 6F 32  .U..........fdo2
0300: 52 02 80 F0 FF FF 7F F0  FF FF 7F 76 30 30 38 27  R..........v008'
0310: 03 01 40 0F 01 2D 5D 01  80 1B 80 1C 1B 80 2A 03  ..@..-].......*.
0320: 01 40 0F 01 5C 00 1C 80  5C 01 1C 80 46 00 45 00  .@..\...\...F.E.
0330: 80 F0 FF FF 7F F0 FF FF  7F 66 64 69 32 01 80 21  .........fdi2..!
0340: 00                                                .               
```

#### Opcodes

```
  0: 0x0001 [0x20] SET_CLI_EVENT_UC_FLAG: Lock player control
  1: 0x0003 [0x46] CAMERA_CONTROL: Disable user control
  2: 0x0005 [0x42] SET_CLI_EVENT_CANCEL_DATA()
  3: 0x0006 [0x45] LOAD_SCHEDULED_TASK: Load scheduler "fdo1" with entities [LocalPlayer, LocalPlayer], work=[200*, 0*]
  4: 0x0017 [0x55] WAIT_LOAD_SCHEDULER: Wait for scheduler "fdo1" with entities [LocalPlayer, LocalPlayer], work=200*
  5: 0x0026 [0x45] LOAD_SCHEDULED_TASK: Load scheduler "v000" with entities [LocalPlayer, LocalPlayer], work=[56*, 0*]
  6: 0x0037 [0x55] WAIT_LOAD_SCHEDULER: Wait for scheduler "v000" with entities [LocalPlayer, LocalPlayer], work=56*
  7: 0x0046 [0x38] SET_CLIENT_EVENT_MODE(mode=3*)
  8: 0x0049 [0x94] EventEntity->Render.Flags3 ^= 0x01
  9: 0x004F [0x5C] MUSIC_CONTROL: Set Idle (Day) music to song 123*
 10: 0x0053 [0x5C] MUSIC_CONTROL: Set Idle (Night) music to song 123*
 11: 0x0057 [0x75] LOAD_ROOM(Load indoor room, room=446*)
 12: 0x005B [0x75] LOAD_ROOM(No action)
 13: 0x005D [0x97] SAVE_SET_WIND_VALUES(wind_base=0x8001, wind_width=0x8006)
 14: 0x0062 [0x4E] SET_ENTITY_HIDE_FLAG: Hide LocalPlayer
 15: 0x0068 [0x4E] SET_ENTITY_HIDE_FLAG: Show Wolfgang (ID: 17776648/0x010F4008)
 16: 0x006E [0x80] LOAD_WAIT(entity=Monberaux (ID: 17776641/0x010F4001))
 17: 0x0073 [0x80] LOAD_WAIT(entity=Wolfgang (ID: 17776648/0x010F4008))
 18: 0x0078 [0x80] LOAD_WAIT(entity=Unnamed NPC (ID: 17776697/0x010F4039))
 19: 0x007D [0x29] REQ_SET_WAIT(priority=0x03, entity_id=Unnamed NPC (ID: 17776697/0x010F4039), tag_num=0x0B)
 20: 0x0084 [0x45] LOAD_SCHEDULED_TASK: Load scheduler "fdi1" with entities [LocalPlayer, LocalPlayer], work=[200*, 0*]
 21: 0x0095 [0x55] WAIT_LOAD_SCHEDULER: Wait for scheduler "fdi1" with entities [LocalPlayer, LocalPlayer], work=200*
 22: 0x00A4 [0x1C] WAIT(60* ticks)
 23: 0x00A7 [0x45] LOAD_SCHEDULED_TASK: Load scheduler "v001" with entities [LocalPlayer, LocalPlayer], work=[56*, 0*]
 24: 0x00B8 [0x55] WAIT_LOAD_SCHEDULER: Wait for scheduler "v001" with entities [LocalPlayer, LocalPlayer], work=56*
 25: 0x00C7 [0x29] REQ_SET_WAIT(priority=0x03, entity_id=Monberaux (ID: 17776641/0x010F4001), tag_num=0x15)
 26: 0x00CE [0x45] LOAD_SCHEDULED_TASK: Load scheduler "v002" with entities [LocalPlayer, LocalPlayer], work=[56*, 0*]
 27: 0x00DF [0x55] WAIT_LOAD_SCHEDULER: Wait for scheduler "v002" with entities [LocalPlayer, LocalPlayer], work=56*
 28: 0x00EE [0x1C] WAIT(60* ticks)
 29: 0x00F1 [0x27] REQ_SET(priority=0x03, entity_id=Door:Infirmary (ID: 17776749/0x010F406D), tag_num=0x06)
 30: 0x00F8 [0x1C] WAIT(30* ticks)
 31: 0x00FB [0x27] REQ_SET(priority=0x03, entity_id=Monberaux (ID: 17776641/0x010F4001), tag_num=0x16)
 32: 0x0102 [0x1C] WAIT(20* ticks)
 33: 0x0105 [0x29] REQ_SET_WAIT(priority=0x03, entity_id=Wolfgang (ID: 17776648/0x010F4008), tag_num=0x02)
 34: 0x010C [0x27] REQ_SET(priority=0x03, entity_id=Door:Infirmary (ID: 17776749/0x010F406D), tag_num=0x07)
 35: 0x0113 [0x1C] WAIT(60* ticks)
 36: 0x0116 [0x2B] Wolfgang (ID: 17776648/0x010F4008) [8222*]:
    → "How is he doing?"
 37: 0x011D [0x23] WAIT_FOR_DIALOG_INTERACTION
 38: 0x011E [0x2A] GET_REQ_LEVEL(level=3, entity_id=Monberaux (ID: 17776641/0x010F4001))
 39: 0x0124 [0x2B] Monberaux (ID: 17776641/0x010F4001) [8223*]:
    → "Well, there don't seem to be any external wounds. To tell you the truth, I don't exactly know what is wrong with him."
 40: 0x012B [0x23] WAIT_FOR_DIALOG_INTERACTION
 41: 0x012C [0x45] LOAD_SCHEDULED_TASK: Load scheduler "v003" with entities [LocalPlayer, LocalPlayer], work=[56*, 0*]
 42: 0x013D [0x55] WAIT_LOAD_SCHEDULER: Wait for scheduler "v003" with entities [LocalPlayer, LocalPlayer], work=56*
 43: 0x014C [0x2B] Wolfgang (ID: 17776648/0x010F4008) [8224*]:
    → "You don't exactly know? So you have some sort of theory?"
 44: 0x0153 [0x23] WAIT_FOR_DIALOG_INTERACTION
 45: 0x0154 [0x2B] Monberaux (ID: 17776641/0x010F4001) [8225*]:
    → "... I'm sorry, but I'm not inclined to speak of a patient's condition. Not even to the captain of the Ducal Guard."
 46: 0x015B [0x23] WAIT_FOR_DIALOG_INTERACTION
 47: 0x015C [0x27] REQ_SET(priority=0x03, entity_id=Monberaux (ID: 17776641/0x010F4001), tag_num=0x17)
 48: 0x0163 [0x1C] WAIT(90* ticks)
 49: 0x0166 [0x45] LOAD_SCHEDULED_TASK: Load scheduler "v004" with entities [LocalPlayer, LocalPlayer], work=[56*, 0*]
 50: 0x0177 [0x1C] WAIT(60* ticks)
 51: 0x017A [0x27] REQ_SET(priority=0x03, entity_id=Wolfgang (ID: 17776648/0x010F4008), tag_num=0x11)
 52: 0x0181 [0x2B] Wolfgang (ID: 17776648/0x010F4008) [8226*]:
    → "As you wish. But that boy is an important witness. When he comes to, he will be taken in for questioning. Has he shown any signs of consciousness?"
 53: 0x0188 [0x23] WAIT_FOR_DIALOG_INTERACTION
 54: 0x0189 [0x28] REQ_SET_WITH_CONDITIONS(priority=0x04, target_entity=Wolfgang (ID: 17776648/0x010F4008), tag_num=0x12)
 55: 0x0190 [0x2A] GET_REQ_LEVEL(level=3, entity_id=Monberaux (ID: 17776641/0x010F4001))
 56: 0x0196 [0x55] WAIT_LOAD_SCHEDULER: Wait for scheduler "v004" with entities [LocalPlayer, LocalPlayer], work=56*
 57: 0x01A5 [0x1C] WAIT(30* ticks)
 58: 0x01A8 [0x2B] Monberaux (ID: 17776641/0x010F4001) [8227*]:
    → "I'm afraid not..."
 59: 0x01AF [0x1C] WAIT(60* ticks)
 60: 0x01B2 [0x23] WAIT_FOR_DIALOG_INTERACTION
 61: 0x01B3 [0x4A] Monberaux (ID: 17776641/0x010F4001) looks at Wolfgang (ID: 17776648/0x010F4008)
 62: 0x01BC [0x1C] WAIT(10* ticks)
 63: 0x01BF [0x45] LOAD_SCHEDULED_TASK: Load scheduler "v006" with entities [LocalPlayer, LocalPlayer], work=[56*, 0*]
 64: 0x01D0 [0x6F] WAIT_FRAME_DELAY: Yield until WaitTime reaches zero
 65: 0x01D1 [0x76] CHECK_ENTITY_RENDER_FLAGS: Wait until Monberaux (ID: 17776641/0x010F4001) Render.Flags0 and Render.Flags3 conditions are met
 66: 0x01D6 [0x2B] Monberaux (ID: 17776641/0x010F4001) [8228*]:
    → "Wolfgang, what really happened back in that room? What was that device, and what were Jeuno's scientists trying to do with it? You know something, don't you?"
 67: 0x01DD [0x1C] WAIT(120* ticks)
 68: 0x01E0 [0x23] WAIT_FOR_DIALOG_INTERACTION
 69: 0x01E1 [0x2B] Wolfgang (ID: 17776648/0x010F4008) [8229*]:
    → "You need not worry yourself with the affairs of the Duchy."
 70: 0x01E8 [0x23] WAIT_FOR_DIALOG_INTERACTION
 71: 0x01E9 [0x1C] WAIT(20* ticks)
 72: 0x01EC [0x27] REQ_SET(priority=0x03, entity_id=Monberaux (ID: 17776641/0x010F4001), tag_num=0x32)
 73: 0x01F3 [0x2B] Monberaux (ID: 17776641/0x010F4001) [8230*]:
    → "I see... I suppose some things are better left unknown. I often ponder over whether to inform a patient when their disease is incurable. However, if there still remains even a thread of hope to cure that disease..."
 74: 0x01FA [0x23] WAIT_FOR_DIALOG_INTERACTION
 75: 0x01FB [0x1C] WAIT(30* ticks)
 76: 0x01FE [0x7B] Wolfgang (ID: 17776648/0x010F4008) stops talking
 77: 0x0203 [0x1C] WAIT(30* ticks)
 78: 0x0206 [0x52] END_LOAD_SCHEDULER: End scheduler "v006" with entities [LocalPlayer, LocalPlayer], work=56*
 79: 0x0215 [0x45] LOAD_SCHEDULED_TASK: Load scheduler "v005" with entities [LocalPlayer, LocalPlayer], work=[56*, 0*]
 80: 0x0226 [0x2B] Wolfgang (ID: 17776648/0x010F4008) [8231*]:
    → "If you are trying to say that Jeuno is ill, you are quite mistaken."
 81: 0x022D [0x1C] WAIT(60* ticks)
 82: 0x0230 [0x23] WAIT_FOR_DIALOG_INTERACTION
 83: 0x0231 [0x2B] Monberaux (ID: 17776641/0x010F4001) [8232*]:
    → "<Sigh> Let me rephrase my question."
 84: 0x0238 [0x23] WAIT_FOR_DIALOG_INTERACTION
 85: 0x0239 [0x27] REQ_SET(priority=0x03, entity_id=Monberaux (ID: 17776641/0x010F4001), tag_num=0x33)
 86: 0x0240 [0x2B] Monberaux (ID: 17776641/0x010F4001) [8233*]:
    → "Friend to friend, what simply happened that day?"
 87: 0x0247 [0x23] WAIT_FOR_DIALOG_INTERACTION
 88: 0x0248 [0x4A] Wolfgang (ID: 17776648/0x010F4008) looks at Monberaux (ID: 17776641/0x010F4001)
 89: 0x0251 [0x6F] WAIT_FRAME_DELAY: Yield until WaitTime reaches zero
 90: 0x0252 [0x76] CHECK_ENTITY_RENDER_FLAGS: Wait until Wolfgang (ID: 17776648/0x010F4008) Render.Flags0 and Render.Flags3 conditions are met
 91: 0x0257 [0x2B] Wolfgang (ID: 17776648/0x010F4008) [8234*]:
    → "I... I truly do not know. That is why it is crucial we question that boy."
 92: 0x025E [0x23] WAIT_FOR_DIALOG_INTERACTION
 93: 0x025F [0x52] END_LOAD_SCHEDULER: End scheduler "v005" with entities [LocalPlayer, LocalPlayer], work=56*
 94: 0x026E [0x45] LOAD_SCHEDULED_TASK: Load scheduler "v007" with entities [LocalPlayer, LocalPlayer], work=[56*, 0*]
 95: 0x027F [0x55] WAIT_LOAD_SCHEDULER: Wait for scheduler "v007" with entities [LocalPlayer, LocalPlayer], work=56*
 96: 0x028E [0x27] REQ_SET(priority=0x03, entity_id=Wolfgang (ID: 17776648/0x010F4008), tag_num=0x0F)
 97: 0x0295 [0x2B] Wolfgang (ID: 17776648/0x010F4008) [8235*]:
    → "If there is nothing wrong with him, then there is no reason why we cannot move him to the Grand Duke Palace immediately. Monberaux, make the preparations for his transport."
 98: 0x029C [0x23] WAIT_FOR_DIALOG_INTERACTION
 99: 0x029D [0x29] REQ_SET_WAIT(priority=0x03, entity_id=Wolfgang (ID: 17776648/0x010F4008), tag_num=0x10)
100: 0x02A4 [0x27] REQ_SET(priority=0x03, entity_id=Wolfgang (ID: 17776648/0x010F4008), tag_num=0x03)
101: 0x02AB [0x1C] WAIT(10* ticks)
102: 0x02AE [0x45] LOAD_SCHEDULED_TASK: Load scheduler "v008" with entities [LocalPlayer, LocalPlayer], work=[56*, 0*]
103: 0x02BF [0x2A] GET_REQ_LEVEL(level=3, entity_id=Wolfgang (ID: 17776648/0x010F4008))
104: 0x02C5 [0x27] REQ_SET(priority=0x03, entity_id=Door:Infirmary (ID: 17776746/0x010F406A), tag_num=0x05)
105: 0x02CC [0x1C] WAIT(60* ticks)
106: 0x02CF [0x27] REQ_SET(priority=0x03, entity_id=Wolfgang (ID: 17776648/0x010F4008), tag_num=0x04)
107: 0x02D6 [0x1C] WAIT(120* ticks)
108: 0x02D9 [0x27] REQ_SET(priority=0x03, entity_id=Door:Infirmary (ID: 17776746/0x010F406A), tag_num=0x06)
109: 0x02E0 [0x45] LOAD_SCHEDULED_TASK: Load scheduler "fdo2" with entities [LocalPlayer, LocalPlayer], work=[200*, 0*]
110: 0x02F1 [0x55] WAIT_LOAD_SCHEDULER: Wait for scheduler "fdo2" with entities [LocalPlayer, LocalPlayer], work=200*
111: 0x0300 [0x52] END_LOAD_SCHEDULER: End scheduler "v008" with entities [LocalPlayer, LocalPlayer], work=56*
112: 0x030F [0x27] REQ_SET(priority=0x03, entity_id=Monberaux (ID: 17776641/0x010F4001), tag_num=0x2D)
113: 0x0316 [0x5D] SET_MUSIC_VOLUME(volume=0*, fade_time=300*)
114: 0x031B [0x1C] WAIT(300* ticks)
115: 0x031E [0x2A] GET_REQ_LEVEL(level=3, entity_id=Monberaux (ID: 17776641/0x010F4001))
116: 0x0324 [0x5C] MUSIC_CONTROL: Set Idle (Day) music to song 110*
117: 0x0328 [0x5C] MUSIC_CONTROL: Set Idle (Night) music to song 110*
118: 0x032C [0x46] CAMERA_CONTROL: Restore default settings
119: 0x032E [0x45] LOAD_SCHEDULED_TASK: Load scheduler "fdi2" with entities [LocalPlayer, LocalPlayer], work=[200*, 0*]
120: 0x033F [0x21] END_EVENT
121: 0x0340 [0x00] END_REQSTACK()
```

### Event 74

#### Metadata

| Field        | Value      |
|--------------|------------|
| Entrypoint   | 0x0341     |
| Data Size    | 1827 bytes |
| Instructions | 242        |

```
      00 01 02 03 04 05 06 07  08 09 0A 0B 0C 0D 0E 0F
      -- -- -- -- -- -- -- --  -- -- -- -- -- -- -- --
0340:    20 01 46 01 42 45 00  80 F0 FF FF 7F F0 FF FF    .F.BE.........
0350: 7F 66 64 6F 31 01 80 55  00 80 F0 FF FF 7F F0 FF  .fdo1..U........
0360: FF 7F 66 64 6F 31 75 00  05 80 75 01 38 03 80 5C  ..fdo1u...u.8..\
0370: 00 1D 80 5C 01 1D 80 94  01 F0 FF FF 7F BA F0 FF  ...\............
0380: FF 7F 1E 80 1F 80 20 80  01 80 92 01 01 40 0F 01  ...... ......@..
0390: 92 01 02 40 0F 01 79 00  F0 FF FF 7F 01 40 0F 01  ...@..y......@..
03A0: 79 00 01 40 0F 01 F0 FF  FF 7F 97 01 80 06 80 45  y..@...........E
03B0: 02 80 F0 FF FF 7F F0 FF  FF 7F 74 30 30 30 01 80  ..........t000..
03C0: 55 02 80 F0 FF FF 7F F0  FF FF 7F 74 30 30 30 45  U..........t000E
03D0: 00 80 F0 FF FF 7F F0 FF  FF 7F 66 64 69 31 01 80  ..........fdi1..
03E0: 55 00 80 F0 FF FF 7F F0  FF FF 7F 66 64 69 31 2B  U..........fdi1+
03F0: 01 40 0F 01 21 80 23 45  22 80 F0 FF FF 7F F0 FF  .@..!.#E".......
0400: FF 7F 7A 30 30 30 01 80  2B 01 40 0F 01 23 80 23  ..z000..+.@..#.#
0410: 2B 01 40 0F 01 24 80 23  52 22 80 F0 FF FF 7F F0  +.@..$.#R"......
0420: FF FF 7F 7A 30 30 30 45  00 80 F0 FF FF 7F F0 FF  ...z000E........
0430: FF 7F 6F 76 6C 31 01 80  45 22 80 F0 FF FF 7F F0  ..ovl1..E"......
0440: FF FF 7F 7A 30 30 31 01  80 2B 01 40 0F 01 25 80  ...z001..+.@..%.
0450: 23 2B 01 40 0F 01 26 80  23 1C 08 80 4E 00 43 40  #+.@..&.#...N.C@
0460: 0F 01 2B 43 40 0F 01 27  80 27 03 43 40 0F 01 02  ..+C@..'.'.C@...
0470: 1C 11 80 45 28 80 F0 FF  FF 7F F0 FF FF 7F 62 61  ...E(.........ba
0480: 73 68 01 80 79 00 01 40  0F 01 43 40 0F 01 1C 09  sh..y..@..C@....
0490: 80 52 22 80 F0 FF FF 7F  F0 FF FF 7F 7A 30 30 31  .R".........z001
04A0: 45 22 80 F0 FF FF 7F F0  FF FF 7F 7A 30 30 32 01  E".........z002.
04B0: 80 1C 08 80 4A F0 FF FF  7F 43 40 0F 01 1C 09 80  ....J....C@.....
04C0: 55 22 80 F0 FF FF 7F F0  FF FF 7F 7A 30 30 32 23  U".........z002#
04D0: 2B 01 40 0F 01 29 80 23  2A 03 43 40 0F 01 27 03  +.@..).#*.C@..'.
04E0: 43 40 0F 01 03 1C 08 80  45 22 80 F0 FF FF 7F F0  C@......E"......
04F0: FF FF 7F 7A 30 30 33 01  80 2A 03 43 40 0F 01 2B  ...z003..*.C@..+
0500: 43 40 0F 01 2A 80 23 55  22 80 F0 FF FF 7F F0 FF  C@..*.#U".......
0510: FF 7F 7A 30 30 33 2A 03  43 40 0F 01 4A 43 40 0F  ..z003*.C@..JC@.
0520: 01 F0 FF FF 7F 1C 11 80  45 22 80 F0 FF FF 7F F0  ........E"......
0530: FF FF 7F 7A 30 30 34 01  80 6F 76 43 40 0F 01 27  ...z004..ovC@..'
0540: 03 43 40 0F 01 11 2B 43  40 0F 01 2B 80 23 2B 43  .C@...+C@..+.#+C
0550: 40 0F 01 2C 80 23 27 03  43 40 0F 01 12 52 22 80  @..,.#'.C@...R".
0560: F0 FF FF 7F F0 FF FF 7F  7A 30 30 34 45 22 80 F0  ........z004E"..
0570: FF FF 7F F0 FF FF 7F 7A  30 30 35 01 80 2B 43 40  .......z005..+C@
0580: 0F 01 2D 80 23 2B 43 40  0F 01 2E 80 23 52 22 80  ..-.#+C@....#R".
0590: F0 FF FF 7F F0 FF FF 7F  7A 30 30 35 45 00 80 F0  ........z005E...
05A0: FF FF 7F F0 FF FF 7F 6F  76 6C 31 01 80 45 22 80  .......ovl1..E".
05B0: F0 FF FF 7F F0 FF FF 7F  7A 30 30 36 01 80 1C 07  ........z006....
05C0: 80 2B 43 40 0F 01 2F 80  23 55 22 80 F0 FF FF 7F  .+C@../.#U".....
05D0: F0 FF FF 7F 7A 30 30 36  27 03 01 40 0F 01 2C 1C  ....z006'..@..,.
05E0: 30 80 45 22 80 F0 FF FF  7F F0 FF FF 7F 7A 30 30  0.E".........z00
05F0: 37 01 80 55 22 80 F0 FF  FF 7F F0 FF FF 7F 7A 30  7..U".........z0
0600: 30 37 2B 01 40 0F 01 31  80 23 4A 43 40 0F 01 01  07+.@..1.#JC@...
0610: 40 0F 01 2B 01 40 0F 01  32 80 23 5D 01 80 00 80  @..+.@..2.#]....
0620: 45 00 80 F0 FF FF 7F F0  FF FF 7F 6F 76 6C 31 01  E..........ovl1.
0630: 80 45 22 80 F0 FF FF 7F  F0 FF FF 7F 7A 30 30 38  .E".........z008
0640: 01 80 27 03 01 40 0F 01  1B 1C 33 80 5C 00 34 80  ..'..@....3.\.4.
0650: 5C 01 34 80 1C 07 80 9A  55 22 80 F0 FF FF 7F F0  \.4.....U"......
0660: FF FF 7F 7A 30 30 38 45  00 80 F0 FF FF 7F F0 FF  ...z008E........
0670: FF 7F 6F 76 6C 31 01 80  45 22 80 F0 FF FF 7F F0  ..ovl1..E"......
0680: FF FF 7F 79 30 30 30 01  80 27 03 01 40 0F 01 2E  ...y000..'..@...
0690: 2B 01 40 0F 01 35 80 23  2B 01 40 0F 01 36 80 23  +.@..5.#+.@..6.#
06A0: 27 03 01 40 0F 01 2F 55  22 80 F0 FF FF 7F F0 FF  '..@../U".......
06B0: FF 7F 79 30 30 30 27 03  43 40 0F 01 15 2B 43 40  ..y000'.C@...+C@
06C0: 0F 01 37 80 23 45 22 80  F0 FF FF 7F F0 FF FF 7F  ..7.#E".........
06D0: 79 30 30 31 01 80 2B 43  40 0F 01 38 80 23 2B 01  y001..+C@..8.#+.
06E0: 40 0F 01 39 80 23 27 03  43 40 0F 01 16 1C 3A 80  @..9.#'.C@....:.
06F0: 2B 43 40 0F 01 3B 80 23  7C 00 01 40 0F 01 2B 01  +C@..;.#|..@..+.
0700: 40 0F 01 3C 80 23 7C 01  01 40 0F 01 52 22 80 F0  @..<.#|..@..R"..
0710: FF FF 7F F0 FF FF 7F 79  30 30 31 45 00 80 F0 FF  .......y001E....
0720: FF 7F F0 FF FF 7F 6F 76  6C 31 01 80 45 22 80 F0  ......ovl1..E"..
0730: FF FF 7F F0 FF FF 7F 79  30 30 32 01 80 27 03 43  .......y002..'.C
0740: 40 0F 01 13 2B 43 40 0F  01 3D 80 23 2B 43 40 0F  @...+C@..=.#+C@.
0750: 01 3E 80 23 2B 43 40 0F  01 3F 80 23 55 22 80 F0  .>.#+C@..?.#U"..
0760: FF FF 7F F0 FF FF 7F 79  30 30 32 28 04 01 40 0F  .......y002(..@.
0770: 01 2D 1C 08 80 27 03 43  40 0F 01 14 45 22 80 F0  .-...'.C@...E"..
0780: FF FF 7F F0 FF FF 7F 79  30 30 33 01 80 55 22 80  .......y003..U".
0790: F0 FF FF 7F F0 FF FF 7F  79 30 30 33 2A 04 01 40  ........y003*..@
07A0: 0F 01 2B 01 40 0F 01 40  80 23 27 03 43 40 0F 01  ..+.@..@.#'.C@..
07B0: 0F 2B 43 40 0F 01 41 80  23 45 22 80 F0 FF FF 7F  .+C@..A.#E".....
07C0: F0 FF FF 7F 79 30 30 34  01 80 55 22 80 F0 FF FF  ....y004..U"....
07D0: 7F F0 FF FF 7F 79 30 30  34 2B 43 40 0F 01 42 80  .....y004+C@..B.
07E0: 23 28 03 43 40 0F 01 10  2B 43 40 0F 01 43 80 2A  #(.C@...+C@..C.*
07F0: 03 43 40 0F 01 81 00 01  40 0F 01 81 00 43 40 0F  .C@.....@....C@.
0800: 01 45 00 80 F0 FF FF 7F  F0 FF FF 7F 6F 76 6C 31  .E..........ovl1
0810: 01 80 45 28 80 F0 FF FF  7F F0 FF FF 7F 62 61 73  ..E(.........bas
0820: 68 01 80 45 22 80 F0 FF  FF 7F F0 FF FF 7F 79 30  h..E".........y0
0830: 30 35 01 80 55 22 80 F0  FF FF 7F F0 FF FF 7F 79  05..U".........y
0840: 30 30 35 23 7C 00 01 40  0F 01 2B 01 40 0F 01 44  005#|..@..+.@..D
0850: 80 1C 0E 80 45 00 80 F0  FF FF 7F F0 FF FF 7F 6F  ....E..........o
0860: 76 6C 31 01 80 45 22 80  F0 FF FF 7F F0 FF FF 7F  vl1..E".........
0870: 79 30 30 36 01 80 55 22  80 F0 FF FF 7F F0 FF FF  y006..U"........
0880: 7F 79 30 30 36 1C 13 80  45 00 80 F0 FF FF 7F F0  .y006...E.......
0890: FF FF 7F 6F 76 6C 31 01  80 45 22 80 F0 FF FF 7F  ...ovl1..E".....
08A0: F0 FF FF 7F 79 30 30 33  01 80 55 22 80 F0 FF FF  ....y003..U"....
08B0: 7F F0 FF FF 7F 79 30 30  33 81 01 01 40 0F 01 81  .....y003...@...
08C0: 01 43 40 0F 01 1C 07 80  23 7C 01 01 40 0F 01 2B  .C@.....#|..@..+
08D0: 01 40 0F 01 45 80 23 45  22 80 F0 FF FF 7F F0 FF  .@..E.#E".......
08E0: FF 7F 79 30 30 37 01 80  2B 01 40 0F 01 46 80 23  ..y007..+.@..F.#
08F0: 2B 01 40 0F 01 47 80 23  55 22 80 F0 FF FF 7F F0  +.@..G.#U"......
0900: FF FF 7F 79 30 30 37 27  03 43 40 0F 01 11 2B 43  ...y007'.C@...+C
0910: 40 0F 01 48 80 23 29 03  43 40 0F 01 12 27 03 43  @..H.#).C@...'.C
0920: 40 0F 01 04 1C 11 80 45  22 80 F0 FF FF 7F F0 FF  @......E".......
0930: FF 7F 79 30 30 38 01 80  55 22 80 F0 FF FF 7F F0  ..y008..U"......
0940: FF FF 7F 79 30 30 38 27  03 01 40 0F 01 2C 2B 01  ...y008'..@..,+.
0950: 40 0F 01 49 80 23 2A 03  43 40 0F 01 45 22 80 F0  @..I.#*.C@..E"..
0960: FF FF 7F F0 FF FF 7F 79  30 30 39 01 80 55 22 80  .......y009..U".
0970: F0 FF FF 7F F0 FF FF 7F  79 30 30 39 2B 43 40 0F  ........y009+C@.
0980: 01 4A 80 23 4B 43 40 0F  01 4B 80 6F 76 43 40 0F  .J.#KC@..K.ovC@.
0990: 01 27 03 43 40 0F 01 05  1C 11 80 2B 43 40 0F 01  .'.C@......+C@..
09A0: 4C 80 23 2A 03 43 40 0F  01 4A 01 40 0F 01 F0 FF  L.#*.C@..J.@....
09B0: FF 7F 2B 01 40 0F 01 4D  80 1C 08 80 6F 76 01 40  ..+.@..M....ov.@
09C0: 0F 01 4A F0 FF FF 7F 01  40 0F 01 6F 76 F0 FF FF  ..J.....@..ov...
09D0: 7F 23 45 22 80 F0 FF FF  7F F0 FF FF 7F 79 30 30  .#E".........y00
09E0: 61 01 80 55 22 80 F0 FF  FF 7F F0 FF FF 7F 79 30  a..U".........y0
09F0: 30 61 27 03 01 40 0F 01  30 1C 09 80 2B 01 40 0F  0a'..@..0...+.@.
0A00: 01 4E 80 23 2B 01 40 0F  01 4F 80 23 2A 03 01 40  .N.#+.@..O.#*..@
0A10: 0F 01 45 00 80 F0 FF FF  7F F0 FF FF 7F 66 64 6F  ..E..........fdo
0A20: 32 01 80 55 00 80 F0 FF  FF 7F F0 FF FF 7F 66 64  2..U..........fd
0A30: 6F 32 27 03 01 40 0F 01  2D 5D 01 80 1B 80 1C 1B  o2'..@..-]......
0A40: 80 2A 03 01 40 0F 01 5C  00 1C 80 5C 01 1C 80 46  .*..@..\...\...F
0A50: 00 45 00 80 F0 FF FF 7F  F0 FF FF 7F 66 64 69 32  .E..........fdi2
0A60: 01 80 21 00                                       ..!.            
```

#### Opcodes

```
  0: 0x0341 [0x20] SET_CLI_EVENT_UC_FLAG: Lock player control
  1: 0x0343 [0x46] CAMERA_CONTROL: Disable user control
  2: 0x0345 [0x42] SET_CLI_EVENT_CANCEL_DATA()
  3: 0x0346 [0x45] LOAD_SCHEDULED_TASK: Load scheduler "fdo1" with entities [LocalPlayer, LocalPlayer], work=[200*, 0*]
  4: 0x0357 [0x55] WAIT_LOAD_SCHEDULER: Wait for scheduler "fdo1" with entities [LocalPlayer, LocalPlayer], work=200*
  5: 0x0366 [0x75] LOAD_ROOM(Load indoor room, room=446*)
  6: 0x036A [0x75] LOAD_ROOM(No action)
  7: 0x036C [0x38] SET_CLIENT_EVENT_MODE(mode=3*)
  8: 0x036F [0x5C] MUSIC_CONTROL: Set Idle (Day) music to song 127*
  9: 0x0373 [0x5C] MUSIC_CONTROL: Set Idle (Night) music to song 127*
 10: 0x0377 [0x94] LocalPlayer->Render.Flags3 ^= 0x01
 11: 0x037D [0xBA] SET_ENTITY_POSITION(entity_id=LocalPlayer, pos_x=-44.772*, pos_z=-1.901*, pos_y=-0.499*, direction=0.0°*)
 12: 0x038A [0x92] Monberaux (ID: 17776641/0x010F4001)->Render.Flags3 ^= 0x01
 13: 0x0390 [0x92] Rosaline (ID: 17776642/0x010F4002)->Render.Flags3 ^= 0x01
 14: 0x0396 [0x79] LocalPlayer looks at Monberaux (ID: 17776641/0x010F4001) (Basic look)
 15: 0x03A0 [0x79] Monberaux (ID: 17776641/0x010F4001) looks at LocalPlayer (Basic look)
 16: 0x03AA [0x97] SAVE_SET_WIND_VALUES(wind_base=0x8001, wind_width=0x8006)
 17: 0x03AF [0x45] LOAD_SCHEDULED_TASK: Load scheduler "t000" with entities [LocalPlayer, LocalPlayer], work=[56*, 0*]
 18: 0x03C0 [0x55] WAIT_LOAD_SCHEDULER: Wait for scheduler "t000" with entities [LocalPlayer, LocalPlayer], work=56*
 19: 0x03CF [0x45] LOAD_SCHEDULED_TASK: Load scheduler "fdi1" with entities [LocalPlayer, LocalPlayer], work=[200*, 0*]
 20: 0x03E0 [0x55] WAIT_LOAD_SCHEDULER: Wait for scheduler "fdi1" with entities [LocalPlayer, LocalPlayer], work=200*
 21: 0x03EF [0x2B] Monberaux (ID: 17776641/0x010F4001) [8358*]:
    → "<Player>, it seems as if you have experienced a trying ordeal in the Northlands."
 22: 0x03F6 [0x23] WAIT_FOR_DIALOG_INTERACTION
 23: 0x03F7 [0x45] LOAD_SCHEDULED_TASK: Load scheduler "z000" with entities [LocalPlayer, LocalPlayer], work=[76*, 0*]
 24: 0x0408 [0x2B] Monberaux (ID: 17776641/0x010F4001) [8359*]:
    → "I have attempted to gather information from the Ducal Guard; however, none are willing--or should I say allowed--to speak of the matter, though the fear in their eyes tells much."
 25: 0x040F [0x23] WAIT_FOR_DIALOG_INTERACTION
 26: 0x0410 [0x2B] Monberaux (ID: 17776641/0x010F4001) [8360*]:
    → "And that is not all... Recently there have been unsettling rumors that the end of the world is near."
 27: 0x0417 [0x23] WAIT_FOR_DIALOG_INTERACTION
 28: 0x0418 [0x52] END_LOAD_SCHEDULER: End scheduler "z000" with entities [LocalPlayer, LocalPlayer], work=76*
 29: 0x0427 [0x45] LOAD_SCHEDULED_TASK: Load scheduler "ovl1" with entities [LocalPlayer, LocalPlayer], work=[200*, 0*]
 30: 0x0438 [0x45] LOAD_SCHEDULED_TASK: Load scheduler "z001" with entities [LocalPlayer, LocalPlayer], work=[76*, 0*]
 31: 0x0449 [0x2B] Monberaux (ID: 17776641/0x010F4001) [8361*]:
    → "Those rumors also say that the young patient that I treated--the girl who had her amulet stolen--is connected with all this in some matter."
 32: 0x0450 [0x23] WAIT_FOR_DIALOG_INTERACTION
 33: 0x0451 [0x2B] Monberaux (ID: 17776641/0x010F4001) [8362*]:
    → "I have even heard that the Ducal Guard has a warrant out for her arrest..."
 34: 0x0458 [0x23] WAIT_FOR_DIALOG_INTERACTION
 35: 0x0459 [0x1C] WAIT(30* ticks)
 36: 0x045C [0x4E] SET_ENTITY_HIDE_FLAG: Show Tenzen (ID: 17776707/0x010F4043)
 37: 0x0462 [0x2B] Tenzen (ID: 17776707/0x010F4043) [8363*]:
    → "Preposterous! Lady Prishe is simply being used. The true criminal is that boy!"
 38: 0x0469 [0x27] REQ_SET(priority=0x03, entity_id=Tenzen (ID: 17776707/0x010F4043), tag_num=0x02)
 39: 0x0470 [0x1C] WAIT(10* ticks)
 40: 0x0473 [0x45] LOAD_SCHEDULED_TASK: Load scheduler "bash" with entities [LocalPlayer, LocalPlayer], work=[108*, 0*]
 41: 0x0484 [0x79] Monberaux (ID: 17776641/0x010F4001) looks at Tenzen (ID: 17776707/0x010F4043) (Basic look)
 42: 0x048E [0x1C] WAIT(20* ticks)
 43: 0x0491 [0x52] END_LOAD_SCHEDULER: End scheduler "z001" with entities [LocalPlayer, LocalPlayer], work=76*
 44: 0x04A0 [0x45] LOAD_SCHEDULED_TASK: Load scheduler "z002" with entities [LocalPlayer, LocalPlayer], work=[76*, 0*]
 45: 0x04B1 [0x1C] WAIT(30* ticks)
 46: 0x04B4 [0x4A] LocalPlayer looks at Tenzen (ID: 17776707/0x010F4043)
 47: 0x04BD [0x1C] WAIT(20* ticks)
 48: 0x04C0 [0x55] WAIT_LOAD_SCHEDULER: Wait for scheduler "z002" with entities [LocalPlayer, LocalPlayer], work=76*
 49: 0x04CF [0x23] WAIT_FOR_DIALOG_INTERACTION
 50: 0x04D0 [0x2B] Monberaux (ID: 17776641/0x010F4001) [8364*]:
    → "Why, if it is not..."
 51: 0x04D7 [0x23] WAIT_FOR_DIALOG_INTERACTION
 52: 0x04D8 [0x2A] GET_REQ_LEVEL(level=3, entity_id=Tenzen (ID: 17776707/0x010F4043))
 53: 0x04DE [0x27] REQ_SET(priority=0x03, entity_id=Tenzen (ID: 17776707/0x010F4043), tag_num=0x03)
 54: 0x04E5 [0x1C] WAIT(30* ticks)
 55: 0x04E8 [0x45] LOAD_SCHEDULED_TASK: Load scheduler "z003" with entities [LocalPlayer, LocalPlayer], work=[76*, 0*]
 56: 0x04F9 [0x2A] GET_REQ_LEVEL(level=3, entity_id=Tenzen (ID: 17776707/0x010F4043))
 57: 0x04FF [0x2B] Tenzen (ID: 17776707/0x010F4043) [8365*]:
    → "I apologize for my sudden entrance, Doctor."
 58: 0x0506 [0x23] WAIT_FOR_DIALOG_INTERACTION
 59: 0x0507 [0x55] WAIT_LOAD_SCHEDULER: Wait for scheduler "z003" with entities [LocalPlayer, LocalPlayer], work=76*
 60: 0x0516 [0x2A] GET_REQ_LEVEL(level=3, entity_id=Tenzen (ID: 17776707/0x010F4043))
 61: 0x051C [0x4A] Tenzen (ID: 17776707/0x010F4043) looks at LocalPlayer
 62: 0x0525 [0x1C] WAIT(10* ticks)
 63: 0x0528 [0x45] LOAD_SCHEDULED_TASK: Load scheduler "z004" with entities [LocalPlayer, LocalPlayer], work=[76*, 0*]
 64: 0x0539 [0x6F] WAIT_FRAME_DELAY: Yield until WaitTime reaches zero
 65: 0x053A [0x76] CHECK_ENTITY_RENDER_FLAGS: Wait until Tenzen (ID: 17776707/0x010F4043) Render.Flags0 and Render.Flags3 conditions are met
 66: 0x053F [0x27] REQ_SET(priority=0x03, entity_id=Tenzen (ID: 17776707/0x010F4043), tag_num=0x11)
 67: 0x0546 [0x2B] Tenzen (ID: 17776707/0x010F4043) [8366*]:
    → "<Player>! Something terrible is underway!"
 68: 0x054D [0x23] WAIT_FOR_DIALOG_INTERACTION
 69: 0x054E [0x2B] Tenzen (ID: 17776707/0x010F4043) [8367*]:
    → "I have come from the Grand Duke Palace, where I heard of the Duchy's ridiculous plan. Jeuno has begun to mobilize the Ducal Guard in preparation for an attack on...Bahamut!"
 70: 0x0555 [0x23] WAIT_FOR_DIALOG_INTERACTION
 71: 0x0556 [0x27] REQ_SET(priority=0x03, entity_id=Tenzen (ID: 17776707/0x010F4043), tag_num=0x12)
 72: 0x055D [0x52] END_LOAD_SCHEDULER: End scheduler "z004" with entities [LocalPlayer, LocalPlayer], work=76*
 73: 0x056C [0x45] LOAD_SCHEDULED_TASK: Load scheduler "z005" with entities [LocalPlayer, LocalPlayer], work=[76*, 0*]
 74: 0x057D [0x2B] Tenzen (ID: 17776707/0x010F4043) [8368*]:
    → "Yes, Bahamut has threatened Vana'diel with the promise of apocalypse. However, he is still one of the terrestrial avatars bound to protect our world."
 75: 0x0584 [0x23] WAIT_FOR_DIALOG_INTERACTION
 76: 0x0585 [0x2B] Tenzen (ID: 17776707/0x010F4043) [8369*]:
    → "There must be some way to persuade the conqueror of the skies...and that is why I requested to accompany the commander of this operation, Lady Esha'ntarl. Unfortunately..."
 77: 0x058C [0x23] WAIT_FOR_DIALOG_INTERACTION
 78: 0x058D [0x52] END_LOAD_SCHEDULER: End scheduler "z005" with entities [LocalPlayer, LocalPlayer], work=76*
 79: 0x059C [0x45] LOAD_SCHEDULED_TASK: Load scheduler "ovl1" with entities [LocalPlayer, LocalPlayer], work=[200*, 0*]
 80: 0x05AD [0x45] LOAD_SCHEDULED_TASK: Load scheduler "z006" with entities [LocalPlayer, LocalPlayer], work=[76*, 0*]
 81: 0x05BE [0x1C] WAIT(60* ticks)
 82: 0x05C1 [0x2B] Tenzen (ID: 17776707/0x010F4043) [8370*]:
    → "...the commander was not one to listen to reason. She is convinced that it would be futile to try and communicate with Bahamut, and the only way to save the people of Vana'diel is to attack the Wyrmking and his minions before they attack our cities."
 83: 0x05C8 [0x23] WAIT_FOR_DIALOG_INTERACTION
 84: 0x05C9 [0x55] WAIT_LOAD_SCHEDULER: Wait for scheduler "z006" with entities [LocalPlayer, LocalPlayer], work=76*
 85: 0x05D8 [0x27] REQ_SET(priority=0x03, entity_id=Monberaux (ID: 17776641/0x010F4001), tag_num=0x2C)
 86: 0x05DF [0x1C] WAIT(40* ticks)
 87: 0x05E2 [0x45] LOAD_SCHEDULED_TASK: Load scheduler "z007" with entities [LocalPlayer, LocalPlayer], work=[76*, 0*]
 88: 0x05F3 [0x55] WAIT_LOAD_SCHEDULER: Wait for scheduler "z007" with entities [LocalPlayer, LocalPlayer], work=76*
 89: 0x0602 [0x2B] Monberaux (ID: 17776641/0x010F4001) [8371*]:
    → "Excuse me, sir. I am not sure if I fully comprehend what you are trying to say."
 90: 0x0609 [0x23] WAIT_FOR_DIALOG_INTERACTION
 91: 0x060A [0x4A] Tenzen (ID: 17776707/0x010F4043) looks at Monberaux (ID: 17776641/0x010F4001)
 92: 0x0613 [0x2B] Monberaux (ID: 17776641/0x010F4001) [8372*]:
    → "Bahamut is readying to launch an attack on the four nations? That cannot be true!"
 93: 0x061A [0x23] WAIT_FOR_DIALOG_INTERACTION
 94: 0x061B [0x5D] SET_MUSIC_VOLUME(volume=0*, fade_time=200*)
 95: 0x0620 [0x45] LOAD_SCHEDULED_TASK: Load scheduler "ovl1" with entities [LocalPlayer, LocalPlayer], work=[200*, 0*]
 96: 0x0631 [0x45] LOAD_SCHEDULED_TASK: Load scheduler "z008" with entities [LocalPlayer, LocalPlayer], work=[76*, 0*]
 97: 0x0642 [0x27] REQ_SET(priority=0x03, entity_id=Monberaux (ID: 17776641/0x010F4001), tag_num=0x1B)
 98: 0x0649 [0x1C] WAIT(180* ticks)
 99: 0x064C [0x5C] MUSIC_CONTROL: Set Idle (Day) music to song 224*
100: 0x0650 [0x5C] MUSIC_CONTROL: Set Idle (Night) music to song 224*
101: 0x0654 [0x1C] WAIT(60* ticks)
102: 0x0657 [0x9A] WAIT_MUSIC_SERVER()
103: 0x0658 [0x55] WAIT_LOAD_SCHEDULER: Wait for scheduler "z008" with entities [LocalPlayer, LocalPlayer], work=76*
104: 0x0667 [0x45] LOAD_SCHEDULED_TASK: Load scheduler "ovl1" with entities [LocalPlayer, LocalPlayer], work=[200*, 0*]
105: 0x0678 [0x45] LOAD_SCHEDULED_TASK: Load scheduler "y000" with entities [LocalPlayer, LocalPlayer], work=[76*, 0*]
106: 0x0689 [0x27] REQ_SET(priority=0x03, entity_id=Monberaux (ID: 17776641/0x010F4001), tag_num=0x2E)
107: 0x0690 [0x2B] Monberaux (ID: 17776641/0x010F4001) [8373*]:
    → "But if it was..."
108: 0x0697 [0x23] WAIT_FOR_DIALOG_INTERACTION
109: 0x0698 [0x2B] Monberaux (ID: 17776641/0x010F4001) [8374*]:
    → "Have the leaders of the nations been informed? Have their armies begun preparations?"
110: 0x069F [0x23] WAIT_FOR_DIALOG_INTERACTION
111: 0x06A0 [0x27] REQ_SET(priority=0x03, entity_id=Monberaux (ID: 17776641/0x010F4001), tag_num=0x2F)
112: 0x06A7 [0x55] WAIT_LOAD_SCHEDULER: Wait for scheduler "y000" with entities [LocalPlayer, LocalPlayer], work=76*
113: 0x06B6 [0x27] REQ_SET(priority=0x03, entity_id=Tenzen (ID: 17776707/0x010F4043), tag_num=0x15)
114: 0x06BD [0x2B] Tenzen (ID: 17776707/0x010F4043) [8375*]:
    → "Unfortunately, San d'Oria, Bastok, and Windurst more than likely remain oblivious to the situation at hand. And even if they did know, they would have no means of mounting a counterattack."
115: 0x06C4 [0x23] WAIT_FOR_DIALOG_INTERACTION
116: 0x06C5 [0x45] LOAD_SCHEDULED_TASK: Load scheduler "y001" with entities [LocalPlayer, LocalPlayer], work=[76*, 0*]
117: 0x06D6 [0x2B] Tenzen (ID: 17776707/0x010F4043) [8376*]:
    → "Bahamut is known as the conqueror of the skies for a reason. The power he and his minions possess is beyond anything we could imagine--the power to control time and space."
118: 0x06DD [0x23] WAIT_FOR_DIALOG_INTERACTION
119: 0x06DE [0x2B] Monberaux (ID: 17776641/0x010F4001) [8377*]:
    → "Control time and space...?"
120: 0x06E5 [0x23] WAIT_FOR_DIALOG_INTERACTION
121: 0x06E6 [0x27] REQ_SET(priority=0x03, entity_id=Tenzen (ID: 17776707/0x010F4043), tag_num=0x16)
122: 0x06ED [0x1C] WAIT(15* ticks)
123: 0x06F0 [0x2B] Tenzen (ID: 17776707/0x010F4043) [8378*]:
    → "The moment he and his minions were to arrive above our cities would be the moment of our defeat. We would have no choice but to accept annihilation..."
124: 0x06F7 [0x23] WAIT_FOR_DIALOG_INTERACTION
125: 0x06F8 [0x7C] Monberaux (ID: 17776641/0x010F4001)->Render.Flags2 |= 0x00
126: 0x06FE [0x2B] Monberaux (ID: 17776641/0x010F4001) [8379*]:
    → "..."
127: 0x0705 [0x23] WAIT_FOR_DIALOG_INTERACTION
128: 0x0706 [0x7C] Monberaux (ID: 17776641/0x010F4001)->Render.Flags2 |= 0x01
129: 0x070C [0x52] END_LOAD_SCHEDULER: End scheduler "y001" with entities [LocalPlayer, LocalPlayer], work=76*
130: 0x071B [0x45] LOAD_SCHEDULED_TASK: Load scheduler "ovl1" with entities [LocalPlayer, LocalPlayer], work=[200*, 0*]
131: 0x072C [0x45] LOAD_SCHEDULED_TASK: Load scheduler "y002" with entities [LocalPlayer, LocalPlayer], work=[76*, 0*]
132: 0x073D [0x27] REQ_SET(priority=0x03, entity_id=Tenzen (ID: 17776707/0x010F4043), tag_num=0x13)
133: 0x0744 [0x2B] Tenzen (ID: 17776707/0x010F4043) [8380*]:
    → "But I feel there is still a way..."
134: 0x074B [0x23] WAIT_FOR_DIALOG_INTERACTION
135: 0x074C [0x2B] Tenzen (ID: 17776707/0x010F4043) [8381*]:
    → "Lady Esha'ntarl mentioned that Bahamut is currently building up the energy necessary for teleporting his fellow wyrms to the locations of attack."
136: 0x0753 [0x23] WAIT_FOR_DIALOG_INTERACTION
137: 0x0754 [0x2B] Tenzen (ID: 17776707/0x010F4043) [8382*]:
    → "If we could reach Bahamut before he has stored enough power, we may be able to persuade him not to begin his ambush of Vana'diel."
138: 0x075B [0x23] WAIT_FOR_DIALOG_INTERACTION
139: 0x075C [0x55] WAIT_LOAD_SCHEDULER: Wait for scheduler "y002" with entities [LocalPlayer, LocalPlayer], work=76*
140: 0x076B [0x28] REQ_SET_WITH_CONDITIONS(priority=0x04, target_entity=Monberaux (ID: 17776641/0x010F4001), tag_num=0x2D)
141: 0x0772 [0x1C] WAIT(30* ticks)
142: 0x0775 [0x27] REQ_SET(priority=0x03, entity_id=Tenzen (ID: 17776707/0x010F4043), tag_num=0x14)
143: 0x077C [0x45] LOAD_SCHEDULED_TASK: Load scheduler "y003" with entities [LocalPlayer, LocalPlayer], work=[76*, 0*]
144: 0x078D [0x55] WAIT_LOAD_SCHEDULER: Wait for scheduler "y003" with entities [LocalPlayer, LocalPlayer], work=76*
145: 0x079C [0x2A] GET_REQ_LEVEL(level=4, entity_id=Monberaux (ID: 17776641/0x010F4001))
146: 0x07A2 [0x2B] Monberaux (ID: 17776641/0x010F4001) [8383*]:
    → "Persuade him? The end of the world is right before us, and you want to sit down and chat with the bringer of that destruction!?"
147: 0x07A9 [0x23] WAIT_FOR_DIALOG_INTERACTION
148: 0x07AA [0x27] REQ_SET(priority=0x03, entity_id=Tenzen (ID: 17776707/0x010F4043), tag_num=0x0F)
149: 0x07B1 [0x2B] Tenzen (ID: 17776707/0x010F4043) [8384*]:
    → "Exactly! With the Phoenix Blade and <Player> by my side, I am positive that I can convince Bahamut to spare the lives of those on this world."
150: 0x07B8 [0x23] WAIT_FOR_DIALOG_INTERACTION
151: 0x07B9 [0x45] LOAD_SCHEDULED_TASK: Load scheduler "y004" with entities [LocalPlayer, LocalPlayer], work=[76*, 0*]
152: 0x07CA [0x55] WAIT_LOAD_SCHEDULER: Wait for scheduler "y004" with entities [LocalPlayer, LocalPlayer], work=76*
153: 0x07D9 [0x2B] Tenzen (ID: 17776707/0x010F4043) [8385*]:
    → "But to succeed, I require your assistance, Doctor."
154: 0x07E0 [0x23] WAIT_FOR_DIALOG_INTERACTION
155: 0x07E1 [0x28] REQ_SET_WITH_CONDITIONS(priority=0x03, target_entity=Tenzen (ID: 17776707/0x010F4043), tag_num=0x10)
156: 0x07E8 [0x2B] Tenzen (ID: 17776707/0x010F4043) [8386*]:
    → "I need to know where that boy was first discovered!"
157: 0x07EF [0x2A] GET_REQ_LEVEL(level=3, entity_id=Tenzen (ID: 17776707/0x010F4043))
158: 0x07F5 [0x81] SET_ENTITY_BLINKING(blink_flag=0x00, entity=Monberaux (ID: 17776641/0x010F4001))
159: 0x07FB [0x81] SET_ENTITY_BLINKING(blink_flag=0x00, entity=Tenzen (ID: 17776707/0x010F4043))
160: 0x0801 [0x45] LOAD_SCHEDULED_TASK: Load scheduler "ovl1" with entities [LocalPlayer, LocalPlayer], work=[200*, 0*]
161: 0x0812 [0x45] LOAD_SCHEDULED_TASK: Load scheduler "bash" with entities [LocalPlayer, LocalPlayer], work=[108*, 0*]
162: 0x0823 [0x45] LOAD_SCHEDULED_TASK: Load scheduler "y005" with entities [LocalPlayer, LocalPlayer], work=[76*, 0*]
163: 0x0834 [0x55] WAIT_LOAD_SCHEDULER: Wait for scheduler "y005" with entities [LocalPlayer, LocalPlayer], work=76*
164: 0x0843 [0x23] WAIT_FOR_DIALOG_INTERACTION
165: 0x0844 [0x7C] Monberaux (ID: 17776641/0x010F4001)->Render.Flags2 |= 0x00
166: 0x084A [0x2B] Monberaux (ID: 17776641/0x010F4001) [8387*]:
    → "...!"
167: 0x0851 [0x1C] WAIT(90* ticks)
168: 0x0854 [0x45] LOAD_SCHEDULED_TASK: Load scheduler "ovl1" with entities [LocalPlayer, LocalPlayer], work=[200*, 0*]
169: 0x0865 [0x45] LOAD_SCHEDULED_TASK: Load scheduler "y006" with entities [LocalPlayer, LocalPlayer], work=[76*, 0*]
170: 0x0876 [0x55] WAIT_LOAD_SCHEDULER: Wait for scheduler "y006" with entities [LocalPlayer, LocalPlayer], work=76*
171: 0x0885 [0x1C] WAIT(120* ticks)
172: 0x0888 [0x45] LOAD_SCHEDULED_TASK: Load scheduler "ovl1" with entities [LocalPlayer, LocalPlayer], work=[200*, 0*]
173: 0x0899 [0x45] LOAD_SCHEDULED_TASK: Load scheduler "y003" with entities [LocalPlayer, LocalPlayer], work=[76*, 0*]
174: 0x08AA [0x55] WAIT_LOAD_SCHEDULER: Wait for scheduler "y003" with entities [LocalPlayer, LocalPlayer], work=76*
175: 0x08B9 [0x81] SET_ENTITY_BLINKING(blink_flag=0x01, entity=Monberaux (ID: 17776641/0x010F4001))
176: 0x08BF [0x81] SET_ENTITY_BLINKING(blink_flag=0x01, entity=Tenzen (ID: 17776707/0x010F4043))
177: 0x08C5 [0x1C] WAIT(60* ticks)
178: 0x08C8 [0x23] WAIT_FOR_DIALOG_INTERACTION
179: 0x08C9 [0x7C] Monberaux (ID: 17776641/0x010F4001)->Render.Flags2 |= 0x01
180: 0x08CF [0x2B] Monberaux (ID: 17776641/0x010F4001) [8388*]:
    → "... Understood. Wolfgang, captain of the Ducal Guard, ordered me not to reveal this information to anyone...however, I am afraid I no longer have any choice."
181: 0x08D6 [0x23] WAIT_FOR_DIALOG_INTERACTION
182: 0x08D7 [0x45] LOAD_SCHEDULED_TASK: Load scheduler "y007" with entities [LocalPlayer, LocalPlayer], work=[76*, 0*]
183: 0x08E8 [0x2B] Monberaux (ID: 17776641/0x010F4001) [8389*]:
    → "On the first floor of Delkfutt's Tower, there is a large doorway that leads into the deeper areas of the spire."
184: 0x08EF [0x23] WAIT_FOR_DIALOG_INTERACTION
185: 0x08F0 [0x2B] Monberaux (ID: 17776641/0x010F4001) [8390*]:
    → "It is somewhere down there that the boy mysteriously appeared. A large, central chamber...but that is all I remember."
186: 0x08F7 [0x23] WAIT_FOR_DIALOG_INTERACTION
187: 0x08F8 [0x55] WAIT_LOAD_SCHEDULER: Wait for scheduler "y007" with entities [LocalPlayer, LocalPlayer], work=76*
188: 0x0907 [0x27] REQ_SET(priority=0x03, entity_id=Tenzen (ID: 17776707/0x010F4043), tag_num=0x11)
189: 0x090E [0x2B] Tenzen (ID: 17776707/0x010F4043) [8391*]:
    → "I am extremely grateful for all you have done for us, Doctor. Come, <Player>, we have no time to lose."
190: 0x0915 [0x23] WAIT_FOR_DIALOG_INTERACTION
191: 0x0916 [0x29] REQ_SET_WAIT(priority=0x03, entity_id=Tenzen (ID: 17776707/0x010F4043), tag_num=0x12)
192: 0x091D [0x27] REQ_SET(priority=0x03, entity_id=Tenzen (ID: 17776707/0x010F4043), tag_num=0x04)
193: 0x0924 [0x1C] WAIT(10* ticks)
194: 0x0927 [0x45] LOAD_SCHEDULED_TASK: Load scheduler "y008" with entities [LocalPlayer, LocalPlayer], work=[76*, 0*]
195: 0x0938 [0x55] WAIT_LOAD_SCHEDULER: Wait for scheduler "y008" with entities [LocalPlayer, LocalPlayer], work=76*
196: 0x0947 [0x27] REQ_SET(priority=0x03, entity_id=Monberaux (ID: 17776641/0x010F4001), tag_num=0x2C)
197: 0x094E [0x2B] Monberaux (ID: 17776641/0x010F4001) [8392*]:
    → "Ah, but there is a door--a locked door, and only Wolfgang knows how to open it."
198: 0x0955 [0x23] WAIT_FOR_DIALOG_INTERACTION
199: 0x0956 [0x2A] GET_REQ_LEVEL(level=3, entity_id=Tenzen (ID: 17776707/0x010F4043))
200: 0x095C [0x45] LOAD_SCHEDULED_TASK: Load scheduler "y009" with entities [LocalPlayer, LocalPlayer], work=[76*, 0*]
201: 0x096D [0x55] WAIT_LOAD_SCHEDULER: Wait for scheduler "y009" with entities [LocalPlayer, LocalPlayer], work=76*
202: 0x097C [0x2B] Tenzen (ID: 17776707/0x010F4043) [8393*]:
    → "I have no worries, as Phoenix will lead the way."
203: 0x0983 [0x23] WAIT_FOR_DIALOG_INTERACTION
204: 0x0984 [0x4B] UPDATE_ENTITY_YAW(entity=Tenzen (ID: 17776707/0x010F4043), yaw=13.5°*)
205: 0x098B [0x6F] WAIT_FRAME_DELAY: Yield until WaitTime reaches zero
206: 0x098C [0x76] CHECK_ENTITY_RENDER_FLAGS: Wait until Tenzen (ID: 17776707/0x010F4043) Render.Flags0 and Render.Flags3 conditions are met
207: 0x0991 [0x27] REQ_SET(priority=0x03, entity_id=Tenzen (ID: 17776707/0x010F4043), tag_num=0x05)
208: 0x0998 [0x1C] WAIT(10* ticks)
209: 0x099B [0x2B] Tenzen (ID: 17776707/0x010F4043) [8394*]:
    → "<Player>, make your preparations quickly and meet me at the tower."
210: 0x09A2 [0x23] WAIT_FOR_DIALOG_INTERACTION
211: 0x09A3 [0x2A] GET_REQ_LEVEL(level=3, entity_id=Tenzen (ID: 17776707/0x010F4043))
212: 0x09A9 [0x4A] Monberaux (ID: 17776641/0x010F4001) looks at LocalPlayer
213: 0x09B2 [0x2B] Monberaux (ID: 17776641/0x010F4001) [8395*]:
    → "<Player>, it may be a worthless effort, but let me ask Wolfgang for the key to that chamber."
214: 0x09B9 [0x1C] WAIT(30* ticks)
215: 0x09BC [0x6F] WAIT_FRAME_DELAY: Yield until WaitTime reaches zero
216: 0x09BD [0x76] CHECK_ENTITY_RENDER_FLAGS: Wait until Monberaux (ID: 17776641/0x010F4001) Render.Flags0 and Render.Flags3 conditions are met
217: 0x09C2 [0x4A] LocalPlayer looks at Monberaux (ID: 17776641/0x010F4001)
218: 0x09CB [0x6F] WAIT_FRAME_DELAY: Yield until WaitTime reaches zero
219: 0x09CC [0x76] CHECK_ENTITY_RENDER_FLAGS: Wait until LocalPlayer Render.Flags0 and Render.Flags3 conditions are met
220: 0x09D1 [0x23] WAIT_FOR_DIALOG_INTERACTION
221: 0x09D2 [0x45] LOAD_SCHEDULED_TASK: Load scheduler "y00a" with entities [LocalPlayer, LocalPlayer], work=[76*, 0*]
222: 0x09E3 [0x55] WAIT_LOAD_SCHEDULER: Wait for scheduler "y00a" with entities [LocalPlayer, LocalPlayer], work=76*
223: 0x09F2 [0x27] REQ_SET(priority=0x03, entity_id=Monberaux (ID: 17776641/0x010F4001), tag_num=0x30)
224: 0x09F9 [0x1C] WAIT(20* ticks)
225: 0x09FC [0x2B] Monberaux (ID: 17776641/0x010F4001) [8396*]:
    → "While sometimes misled, he is a man who strongly believes in justice. He may feel that it is solely his duty to protect the world on the eve of its destruction."
226: 0x0A03 [0x23] WAIT_FOR_DIALOG_INTERACTION
227: 0x0A04 [0x2B] Monberaux (ID: 17776641/0x010F4001) [8397*]:
    → "We must let him know that there are those of us who also follow the same path as he. Here. Take this envelope to the palace guard post. I will be praying for your success, <Player>."
228: 0x0A0B [0x23] WAIT_FOR_DIALOG_INTERACTION
229: 0x0A0C [0x2A] GET_REQ_LEVEL(level=3, entity_id=Monberaux (ID: 17776641/0x010F4001))
230: 0x0A12 [0x45] LOAD_SCHEDULED_TASK: Load scheduler "fdo2" with entities [LocalPlayer, LocalPlayer], work=[200*, 0*]
231: 0x0A23 [0x55] WAIT_LOAD_SCHEDULER: Wait for scheduler "fdo2" with entities [LocalPlayer, LocalPlayer], work=200*
232: 0x0A32 [0x27] REQ_SET(priority=0x03, entity_id=Monberaux (ID: 17776641/0x010F4001), tag_num=0x2D)
233: 0x0A39 [0x5D] SET_MUSIC_VOLUME(volume=0*, fade_time=300*)
234: 0x0A3E [0x1C] WAIT(300* ticks)
235: 0x0A41 [0x2A] GET_REQ_LEVEL(level=3, entity_id=Monberaux (ID: 17776641/0x010F4001))
236: 0x0A47 [0x5C] MUSIC_CONTROL: Set Idle (Day) music to song 110*
237: 0x0A4B [0x5C] MUSIC_CONTROL: Set Idle (Night) music to song 110*
238: 0x0A4F [0x46] CAMERA_CONTROL: Restore default settings
239: 0x0A51 [0x45] LOAD_SCHEDULED_TASK: Load scheduler "fdi2" with entities [LocalPlayer, LocalPlayer], work=[200*, 0*]
240: 0x0A62 [0x21] END_EVENT
241: 0x0A63 [0x00] END_REQSTACK()
```

### Event 17

#### Metadata

| Field        | Value      |
|--------------|------------|
| Entrypoint   | 0x0A64     |
| Data Size    | 1364 bytes |
| Instructions | 201        |

```
      00 01 02 03 04 05 06 07  08 09 0A 0B 0C 0D 0E 0F
      -- -- -- -- -- -- -- --  -- -- -- -- -- -- -- --
0A60:             03 00 00 02  10 20 01 46 01 42 45 00      ..... .F.BE.
0A70: 80 F0 FF FF 7F F0 FF FF  7F 66 64 6F 31 01 80 55  .........fdo1..U
0A80: 00 80 F0 FF FF 7F F0 FF  FF 7F 66 64 6F 31 38 03  ..........fdo18.
0A90: 80 BA F0 FF FF 7F 50 80  51 80 52 80 53 80 27 03  ......P.Q.R.S.'.
0AA0: 0C 40 0F 01 05 27 03 0D  40 0F 01 04 97 01 80 06  .@...'..@.......
0AB0: 80 45 54 80 F0 FF FF 7F  F0 FF FF 7F 7A 30 30 36  .ET.........z006
0AC0: 01 80 55 54 80 F0 FF FF  7F F0 FF FF 7F 7A 30 30  ..UT.........z00
0AD0: 36 45 00 80 F0 FF FF 7F  F0 FF FF 7F 66 64 69 31  6E..........fdi1
0AE0: 01 80 55 00 80 F0 FF FF  7F F0 FF FF 7F 66 64 69  ..U..........fdi
0AF0: 31 2A 03 0C 40 0F 01 79  00 0C 40 0F 01 F0 FF FF  1*..@..y..@.....
0B00: 7F 03 02 10 55 80 2B 0C  40 0F 01 56 80 23 2B 0C  ....U.+.@..V.#+.
0B10: 40 0F 01 57 80 23 2A 03  0D 40 0F 01 27 03 0D 40  @..W.#*..@..'..@
0B20: 0F 01 2A 1C 09 80 45 54  80 F0 FF FF 7F F0 FF FF  ..*...ET........
0B30: 7F 7A 30 30 37 01 80 55  54 80 F0 FF FF 7F F0 FF  .z007..UT.......
0B40: FF 7F 7A 30 30 37 2B 0D  40 0F 01 58 80 1C 07 80  ..z007+.@..X....
0B50: 27 03 0D 40 0F 01 2B 23  1C 08 80 2B 0C 40 0F 01  '..@..+#...+.@..
0B60: 59 80 23 27 03 0C 40 0F  01 06 1C 0E 80 4A F0 FF  Y.#'..@......J..
0B70: FF 7F 0C 40 0F 01 45 54  80 F0 FF FF 7F F0 FF FF  ...@..ET........
0B80: 7F 7A 30 30 38 01 80 55  54 80 F0 FF FF 7F F0 FF  .z008..UT.......
0B90: FF 7F 7A 30 30 38 2A 03  0C 40 0F 01 27 03 0C 40  ..z008*..@..'..@
0BA0: 0F 01 28 2B 0C 40 0F 01  5A 80 23 29 03 0C 40 0F  ..(+.@..Z.#)..@.
0BB0: 01 29 4A 0C 40 0F 01 0D  40 0F 01 6F 76 0C 40 0F  .)J.@...@..ov.@.
0BC0: 01 2B 0C 40 0F 01 5B 80  23 45 54 80 F0 FF FF 7F  .+.@..[.#ET.....
0BD0: F0 FF FF 7F 7A 30 30 39  01 80 1C 08 80 2B 0D 40  ....z009.....+.@
0BE0: 0F 01 5C 80 23 55 54 80  F0 FF FF 7F F0 FF FF 7F  ..\.#UT.........
0BF0: 7A 30 30 39 2A 03 0C 40  0F 01 06 01 10 02 00 00  z009*..@........
0C00: 06 80 00 6A 0F 4A 0C 40  0F 01 0F 40 0F 01 45 54  ...j.J.@...@..ET
0C10: 80 F0 FF FF 7F F0 FF FF  7F 79 30 30 30 01 80 55  .........y000..U
0C20: 54 80 F0 FF FF 7F F0 FF  FF 7F 79 30 30 30 6F 76  T.........y000ov
0C30: 0C 40 0F 01 27 03 0C 40  0F 01 28 2B 0C 40 0F 01  .@..'..@..(+.@..
0C40: 5D 80 23 27 03 0D 40 0F  01 29 2B 0D 40 0F 01 5E  ].#'..@..)+.@..^
0C50: 80 23 27 03 0D 40 0F 01  2C 27 03 0C 40 0F 01 29  .#'..@..,'..@..)
0C60: 2B 0C 40 0F 01 5F 80 23  2A 03 0C 40 0F 01 4E 00  +.@.._.#*..@..N.
0C70: 0F 40 0F 01 5D 01 80 60  80 27 03 0F 40 0F 01 02  .@..]..`.'..@...
0C80: 1C 3A 80 45 54 80 F0 FF  FF 7F F0 FF FF 7F 79 30  .:.ET.........y0
0C90: 30 31 01 80 1C 11 80 4E  01 F0 FF FF 7F 2A 03 0F  01.....N.....*..
0CA0: 40 0F 01 55 54 80 F0 FF  FF 7F F0 FF FF 7F 79 30  @..UT.........y0
0CB0: 30 31 27 03 0F 40 0F 01  1F 2B 0F 40 0F 01 52 80  01'..@...+.@..R.
0CC0: 23 2A 03 0F 40 0F 01 27  03 0F 40 0F 01 1D 2B 0F  #*..@..'..@...+.
0CD0: 40 0F 01 61 80 23 45 54  80 F0 FF FF 7F F0 FF FF  @..a.#ET........
0CE0: 7F 79 30 30 32 01 80 55  54 80 F0 FF FF 7F F0 FF  .y002..UT.......
0CF0: FF 7F 79 30 30 32 4E 00  F0 FF FF 7F 27 03 0C 40  ..y002N.....'..@
0D00: 0F 01 28 2B 0C 40 0F 01  62 80 1C 08 80 28 03 0F  ..(+.@..b....(..
0D10: 40 0F 01 1E 23 2B 0F 40  0F 01 63 80 23 2A 03 0F  @...#+.@..c.#*..
0D20: 40 0F 01 27 03 0C 40 0F  01 29 2B 0C 40 0F 01 64  @..'..@..)+.@..d
0D30: 80 23 2A 03 0C 40 0F 01  5C 00 65 80 5C 01 65 80  .#*..@..\.e.\.e.
0D40: 27 03 0C 40 0F 01 07 2B  0C 40 0F 01 66 80 23 2B  '..@...+.@..f.#+
0D50: 0F 40 0F 01 67 80 2A 03  0C 40 0F 01 4A 0A 40 0F  .@..g.*..@..J.@.
0D60: 01 0F 40 0F 01 27 03 0F  40 0F 01 03 27 03 0C 40  ..@..'..@...'..@
0D70: 0F 01 08 1C 68 80 45 54  80 F0 FF FF 7F F0 FF FF  ....h.ET........
0D80: 7F 79 30 30 33 01 80 2A  03 0C 40 0F 01 27 03 0C  .y003..*..@..'..
0D90: 40 0F 01 28 55 54 80 F0  FF FF 7F F0 FF FF 7F 79  @..(UT.........y
0DA0: 30 30 33 23 2B 0C 40 0F  01 69 80 23 27 03 0C 40  003#+.@..i.#'..@
0DB0: 0F 01 29 2B 0C 40 0F 01  6A 80 23 2A 03 0C 40 0F  ..)+.@..j.#*..@.
0DC0: 01 45 54 80 F0 FF FF 7F  F0 FF FF 7F 79 30 30 34  .ET.........y004
0DD0: 01 80 55 54 80 F0 FF FF  7F F0 FF FF 7F 79 30 30  ..UT.........y00
0DE0: 34 2B 0F 40 0F 01 6B 80  23 29 03 0F 40 0F 01 04  4+.@..k.#)..@...
0DF0: 1C 07 80 7B 0F 40 0F 01  1C 13 80 45 54 80 F0 FF  ...{.@.....ET...
0E00: FF 7F F0 FF FF 7F 79 30  30 35 01 80 55 54 80 F0  ......y005..UT..
0E10: FF FF 7F F0 FF FF 7F 79  30 30 35 1C 13 80 2B 0F  .......y005...+.
0E20: 40 0F 01 6C 80 23 2B 0C  40 0F 01 6D 80 23 79 00  @..l.#+.@..m.#y.
0E30: 0C 40 0F 01 0A 40 0F 01  1C 08 80 79 00 0F 40 0F  .@...@.....y..@.
0E40: 01 0A 40 0F 01 1C 08 80  45 54 80 F0 FF FF 7F F0  ..@.....ET......
0E50: FF FF 7F 79 30 30 36 01  80 55 54 80 F0 FF FF 7F  ...y006..UT.....
0E60: F0 FF FF 7F 79 30 30 36  29 03 0A 40 0F 01 17 2B  ....y006)..@...+
0E70: 0C 40 0F 01 6E 80 23 1C  07 80 45 54 80 F0 FF FF  .@..n.#...ET....
0E80: 7F F0 FF FF 7F 79 30 30  37 01 80 1C 07 80 2B 0F  .....y007.....+.
0E90: 40 0F 01 6F 80 1C 07 80  23 2B 0C 40 0F 01 70 80  @..o....#+.@..p.
0EA0: 23 7B 0F 40 0F 01 1C 09  80 55 54 80 F0 FF FF 7F  #{.@.....UT.....
0EB0: F0 FF FF 7F 79 30 30 37  2B 0F 40 0F 01 71 80 23  ....y007+.@..q.#
0EC0: 27 03 0C 40 0F 01 28 2B  0C 40 0F 01 72 80 23 79  '..@..(+.@..r.#y
0ED0: 00 0F 40 0F 01 0A 40 0F  01 2B 0F 40 0F 01 73 80  ..@...@..+.@..s.
0EE0: 23 29 03 0F 40 0F 01 19  7B 0F 40 0F 01 29 03 0F  #)..@...{.@..)..
0EF0: 40 0F 01 1A 1C 3A 80 27  03 0F 40 0F 01 05 27 03  @....:.'..@...'.
0F00: 0A 40 0F 01 04 1C 13 80  27 03 0C 40 0F 01 29 45  .@......'..@..)E
0F10: 54 80 F0 FF FF 7F F0 FF  FF 7F 79 30 30 38 01 80  T.........y008..
0F20: 2A 03 0F 40 0F 01 2A 03  0A 40 0F 01 55 54 80 F0  *..@..*..@..UT..
0F30: FF FF 7F F0 FF FF 7F 79  30 30 38 1C 07 80 2B 0F  .......y008...+.
0F40: 40 0F 01 74 80 23 1C 08  80 4B 0F 40 0F 01 75 80  @..t.#...K.@..u.
0F50: 6F 76 0F 40 0F 01 27 03  0F 40 0F 01 06 27 03 0A  ov.@..'..@...'..
0F60: 40 0F 01 05 1C 08 80 05  01 10 45 76 80 F0 FF FF  @.........Ev....
0F70: 7F F0 FF FF 7F 71 73 74  63 01 80 45 00 80 F0 FF  .....qstc..E....
0F80: FF 7F F0 FF FF 7F 66 64  6F 32 01 80 55 00 80 F0  ......fdo2..U...
0F90: FF FF 7F F0 FF FF 7F 66  64 6F 32 5C 00 1C 80 5C  .......fdo2\...\
0FA0: 01 1C 80 46 00 45 00 80  F0 FF FF 7F F0 FF FF 7F  ...F.E..........
0FB0: 66 64 69 32 01 80 21 00                           fdi2..!.        
```

#### Opcodes

```
  0: 0x0A64 [0x03] ExtData[1]->WorkLocal[0] = Work_Zone[2]
  1: 0x0A69 [0x20] SET_CLI_EVENT_UC_FLAG: Lock player control
  2: 0x0A6B [0x46] CAMERA_CONTROL: Disable user control
  3: 0x0A6D [0x42] SET_CLI_EVENT_CANCEL_DATA()
  4: 0x0A6E [0x45] LOAD_SCHEDULED_TASK: Load scheduler "fdo1" with entities [LocalPlayer, LocalPlayer], work=[200*, 0*]
  5: 0x0A7F [0x55] WAIT_LOAD_SCHEDULER: Wait for scheduler "fdo1" with entities [LocalPlayer, LocalPlayer], work=200*
  6: 0x0A8E [0x38] SET_CLIENT_EVENT_MODE(mode=3*)
  7: 0x0A91 [0xBA] SET_ENTITY_POSITION(entity_id=LocalPlayer, pos_x=-56.176*, pos_z=95.599*, pos_y=8.199*, direction=241.4°*)
  8: 0x0A9E [0x27] REQ_SET(priority=0x03, entity_id=Brutus (ID: 17776652/0x010F400C), tag_num=0x05)
  9: 0x0AA5 [0x27] REQ_SET(priority=0x03, entity_id=Osker (ID: 17776653/0x010F400D), tag_num=0x04)
 10: 0x0AAC [0x97] SAVE_SET_WIND_VALUES(wind_base=0x8001, wind_width=0x8006)
 11: 0x0AB1 [0x45] LOAD_SCHEDULED_TASK: Load scheduler "z006" with entities [LocalPlayer, LocalPlayer], work=[53*, 0*]
 12: 0x0AC2 [0x55] WAIT_LOAD_SCHEDULER: Wait for scheduler "z006" with entities [LocalPlayer, LocalPlayer], work=53*
 13: 0x0AD1 [0x45] LOAD_SCHEDULED_TASK: Load scheduler "fdi1" with entities [LocalPlayer, LocalPlayer], work=[200*, 0*]
 14: 0x0AE2 [0x55] WAIT_LOAD_SCHEDULER: Wait for scheduler "fdi1" with entities [LocalPlayer, LocalPlayer], work=200*
 15: 0x0AF1 [0x2A] GET_REQ_LEVEL(level=3, entity_id=Brutus (ID: 17776652/0x010F400C))
 16: 0x0AF7 [0x79] Brutus (ID: 17776652/0x010F400C) looks at LocalPlayer (Basic look)
 17: 0x0B01 [0x03] Work_Zone[2] = 345*
 18: 0x0B06 [0x2B] Brutus (ID: 17776652/0x010F400C) [8189*]:
    → "Ha hah! You dog, you! I can tell by the grin on your face that you kicked that monster in the be-hind!"
 19: 0x0B0D [0x23] WAIT_FOR_DIALOG_INTERACTION
 20: 0x0B0E [0x2B] Brutus (ID: 17776652/0x010F400C) [8190*]:
    → "But enough with the small talk! Let's take a look at that there $3."
 21: 0x0B15 [0x23] WAIT_FOR_DIALOG_INTERACTION
 22: 0x0B16 [0x2A] GET_REQ_LEVEL(level=3, entity_id=Osker (ID: 17776653/0x010F400D))
 23: 0x0B1C [0x27] REQ_SET(priority=0x03, entity_id=Osker (ID: 17776653/0x010F400D), tag_num=0x2A)
 24: 0x0B23 [0x1C] WAIT(20* ticks)
 25: 0x0B26 [0x45] LOAD_SCHEDULED_TASK: Load scheduler "z007" with entities [LocalPlayer, LocalPlayer], work=[53*, 0*]
 26: 0x0B37 [0x55] WAIT_LOAD_SCHEDULER: Wait for scheduler "z007" with entities [LocalPlayer, LocalPlayer], work=53*
 27: 0x0B46 [0x2B] Osker (ID: 17776653/0x010F400D) [8191*]:
    → "Whoa! I wish I could be as strong as you and my boss someday! No, someday I will be as strong as you. You just wait and see!"
 28: 0x0B4D [0x1C] WAIT(60* ticks)
 29: 0x0B50 [0x27] REQ_SET(priority=0x03, entity_id=Osker (ID: 17776653/0x010F400D), tag_num=0x2B)
 30: 0x0B57 [0x23] WAIT_FOR_DIALOG_INTERACTION
 31: 0x0B58 [0x1C] WAIT(30* ticks)
 32: 0x0B5B [0x2B] Brutus (ID: 17776652/0x010F400C) [8192*]:
    → "...I take my hat off to you, <Player>."
 33: 0x0B62 [0x23] WAIT_FOR_DIALOG_INTERACTION
 34: 0x0B63 [0x27] REQ_SET(priority=0x03, entity_id=Brutus (ID: 17776652/0x010F400C), tag_num=0x06)
 35: 0x0B6A [0x1C] WAIT(90* ticks)
 36: 0x0B6D [0x4A] LocalPlayer looks at Brutus (ID: 17776652/0x010F400C)
 37: 0x0B76 [0x45] LOAD_SCHEDULED_TASK: Load scheduler "z008" with entities [LocalPlayer, LocalPlayer], work=[53*, 0*]
 38: 0x0B87 [0x55] WAIT_LOAD_SCHEDULER: Wait for scheduler "z008" with entities [LocalPlayer, LocalPlayer], work=53*
 39: 0x0B96 [0x2A] GET_REQ_LEVEL(level=3, entity_id=Brutus (ID: 17776652/0x010F400C))
 40: 0x0B9C [0x27] REQ_SET(priority=0x03, entity_id=Brutus (ID: 17776652/0x010F400C), tag_num=0x28)
 41: 0x0BA3 [0x2B] Brutus (ID: 17776652/0x010F400C) [8193*]:
    → "As long as there are hard-hittin' white knuckled [men/ladies] like you out there, Vana'diel won't have to worry about no beastmen or no Shadow Lords."
 42: 0x0BAA [0x23] WAIT_FOR_DIALOG_INTERACTION
 43: 0x0BAB [0x29] REQ_SET_WAIT(priority=0x03, entity_id=Brutus (ID: 17776652/0x010F400C), tag_num=0x29)
 44: 0x0BB2 [0x4A] Brutus (ID: 17776652/0x010F400C) looks at Osker (ID: 17776653/0x010F400D)
 45: 0x0BBB [0x6F] WAIT_FRAME_DELAY: Yield until WaitTime reaches zero
 46: 0x0BBC [0x76] CHECK_ENTITY_RENDER_FLAGS: Wait until Brutus (ID: 17776652/0x010F400C) Render.Flags0 and Render.Flags3 conditions are met
 47: 0x0BC1 [0x2B] Brutus (ID: 17776652/0x010F400C) [8194*]:
    → "Now it's time to get back to work. Osker! Stop your dilly-dallying!"
 48: 0x0BC8 [0x23] WAIT_FOR_DIALOG_INTERACTION
 49: 0x0BC9 [0x45] LOAD_SCHEDULED_TASK: Load scheduler "z009" with entities [LocalPlayer, LocalPlayer], work=[53*, 0*]
 50: 0x0BDA [0x1C] WAIT(30* ticks)
 51: 0x0BDD [0x2B] Osker (ID: 17776653/0x010F400D) [8195*]:
    → "More work? I'll never get a chance to practice my axe!"
 52: 0x0BE4 [0x23] WAIT_FOR_DIALOG_INTERACTION
 53: 0x0BE5 [0x55] WAIT_LOAD_SCHEDULER: Wait for scheduler "z009" with entities [LocalPlayer, LocalPlayer], work=53*
 54: 0x0BF4 [0x2A] GET_REQ_LEVEL(level=3, entity_id=Brutus (ID: 17776652/0x010F400C))
 55: 0x0BFA [0x06] Work_Zone[1] = 0
 56: 0x0BFD [0x02] IF !(ExtData[1]->WorkLocal[0] == 1*) GOTO 0x0F6A
 57: 0x0C05 [0x4A] Brutus (ID: 17776652/0x010F400C) looks at Dietmund (ID: 17776655/0x010F400F)
 58: 0x0C0E [0x45] LOAD_SCHEDULED_TASK: Load scheduler "y000" with entities [LocalPlayer, LocalPlayer], work=[53*, 0*]
 59: 0x0C1F [0x55] WAIT_LOAD_SCHEDULER: Wait for scheduler "y000" with entities [LocalPlayer, LocalPlayer], work=53*
 60: 0x0C2E [0x6F] WAIT_FRAME_DELAY: Yield until WaitTime reaches zero
 61: 0x0C2F [0x76] CHECK_ENTITY_RENDER_FLAGS: Wait until Brutus (ID: 17776652/0x010F400C) Render.Flags0 and Render.Flags3 conditions are met
 62: 0x0C34 [0x27] REQ_SET(priority=0x03, entity_id=Brutus (ID: 17776652/0x010F400C), tag_num=0x28)
 63: 0x0C3B [0x2B] Brutus (ID: 17776652/0x010F400C) [8196*]:
    → "Oh, quit your whining. One of my acquaintances should be here any minute."
 64: 0x0C42 [0x23] WAIT_FOR_DIALOG_INTERACTION
 65: 0x0C43 [0x27] REQ_SET(priority=0x03, entity_id=Osker (ID: 17776653/0x010F400D), tag_num=0x29)
 66: 0x0C4A [0x2B] Osker (ID: 17776653/0x010F400D) [8197*]:
    → "Acquaintance? Wow, I didn't think you had any friends, boss."
 67: 0x0C51 [0x23] WAIT_FOR_DIALOG_INTERACTION
 68: 0x0C52 [0x27] REQ_SET(priority=0x03, entity_id=Osker (ID: 17776653/0x010F400D), tag_num=0x2C)
 69: 0x0C59 [0x27] REQ_SET(priority=0x03, entity_id=Brutus (ID: 17776652/0x010F400C), tag_num=0x29)
 70: 0x0C60 [0x2B] Brutus (ID: 17776652/0x010F400C) [8198*]:
    → "You just shut your trap, Osker, or I'll glue it shut!"
 71: 0x0C67 [0x23] WAIT_FOR_DIALOG_INTERACTION
 72: 0x0C68 [0x2A] GET_REQ_LEVEL(level=3, entity_id=Brutus (ID: 17776652/0x010F400C))
 73: 0x0C6E [0x4E] SET_ENTITY_HIDE_FLAG: Show Dietmund (ID: 17776655/0x010F400F)
 74: 0x0C74 [0x5D] SET_MUSIC_VOLUME(volume=0*, fade_time=600*)
 75: 0x0C79 [0x27] REQ_SET(priority=0x03, entity_id=Dietmund (ID: 17776655/0x010F400F), tag_num=0x02)
 76: 0x0C80 [0x1C] WAIT(15* ticks)
 77: 0x0C83 [0x45] LOAD_SCHEDULED_TASK: Load scheduler "y001" with entities [LocalPlayer, LocalPlayer], work=[53*, 0*]
 78: 0x0C94 [0x1C] WAIT(10* ticks)
 79: 0x0C97 [0x4E] SET_ENTITY_HIDE_FLAG: Hide LocalPlayer
 80: 0x0C9D [0x2A] GET_REQ_LEVEL(level=3, entity_id=Dietmund (ID: 17776655/0x010F400F))
 81: 0x0CA3 [0x55] WAIT_LOAD_SCHEDULER: Wait for scheduler "y001" with entities [LocalPlayer, LocalPlayer], work=53*
 82: 0x0CB2 [0x27] REQ_SET(priority=0x03, entity_id=Dietmund (ID: 17776655/0x010F400F), tag_num=0x1F)
 83: 0x0CB9 [0x2B] Dietmund (ID: 17776655/0x010F400F) [8199*]:
    → "Hello there, Brutus. I've brought back the axe you had me testing. It's a fine piece of work, but the head's a little too heavy for my taste."
 84: 0x0CC0 [0x23] WAIT_FOR_DIALOG_INTERACTION
 85: 0x0CC1 [0x2A] GET_REQ_LEVEL(level=3, entity_id=Dietmund (ID: 17776655/0x010F400F))
 86: 0x0CC7 [0x27] REQ_SET(priority=0x03, entity_id=Dietmund (ID: 17776655/0x010F400F), tag_num=0x1D)
 87: 0x0CCE [0x2B] Dietmund (ID: 17776655/0x010F400F) [8200*]:
    → "Anyway, Brutus, do you remember what day it is today?"
 88: 0x0CD5 [0x23] WAIT_FOR_DIALOG_INTERACTION
 89: 0x0CD6 [0x45] LOAD_SCHEDULED_TASK: Load scheduler "y002" with entities [LocalPlayer, LocalPlayer], work=[53*, 0*]
 90: 0x0CE7 [0x55] WAIT_LOAD_SCHEDULER: Wait for scheduler "y002" with entities [LocalPlayer, LocalPlayer], work=53*
 91: 0x0CF6 [0x4E] SET_ENTITY_HIDE_FLAG: Show LocalPlayer
 92: 0x0CFC [0x27] REQ_SET(priority=0x03, entity_id=Brutus (ID: 17776652/0x010F400C), tag_num=0x28)
 93: 0x0D03 [0x2B] Brutus (ID: 17776652/0x010F400C) [8201*]:
    → "What day it is? Of course I do! One look on the calendar over there and..."
 94: 0x0D0A [0x1C] WAIT(30* ticks)
 95: 0x0D0D [0x28] REQ_SET_WITH_CONDITIONS(priority=0x03, target_entity=Dietmund (ID: 17776655/0x010F400F), tag_num=0x1E)
 96: 0x0D14 [0x23] WAIT_FOR_DIALOG_INTERACTION
 97: 0x0D15 [0x2B] Dietmund (ID: 17776655/0x010F400F) [8202*]:
    → "Don't tell me you forgot that today was the day you'd let me ride my old chocobo?"
 98: 0x0D1C [0x23] WAIT_FOR_DIALOG_INTERACTION
 99: 0x0D1D [0x2A] GET_REQ_LEVEL(level=3, entity_id=Dietmund (ID: 17776655/0x010F400F))
100: 0x0D23 [0x27] REQ_SET(priority=0x03, entity_id=Brutus (ID: 17776652/0x010F400C), tag_num=0x29)
101: 0x0D2A [0x2B] Brutus (ID: 17776652/0x010F400C) [8203*]:
    → "Ha ha ha! I had you going there for a while, didn't I? Of course I remember. You did a good job with that girl. All the folks over here at the stables rave about how she's been the easiest to work with."
102: 0x0D31 [0x23] WAIT_FOR_DIALOG_INTERACTION
103: 0x0D32 [0x2A] GET_REQ_LEVEL(level=3, entity_id=Brutus (ID: 17776652/0x010F400C))
104: 0x0D38 [0x5C] MUSIC_CONTROL: Set Idle (Day) music to song 124*
105: 0x0D3C [0x5C] MUSIC_CONTROL: Set Idle (Night) music to song 124*
106: 0x0D40 [0x27] REQ_SET(priority=0x03, entity_id=Brutus (ID: 17776652/0x010F400C), tag_num=0x07)
107: 0x0D47 [0x2B] Brutus (ID: 17776652/0x010F400C) [8204*]:
    → "The adventurers do, too! They say she's the most obedient chocobo they've ever ridden."
108: 0x0D4E [0x23] WAIT_FOR_DIALOG_INTERACTION
109: 0x0D4F [0x2B] Dietmund (ID: 17776655/0x010F400F) [8205*]:
    → "Heh heh. They didn't say that, did they?"
110: 0x0D56 [0x2A] GET_REQ_LEVEL(level=3, entity_id=Brutus (ID: 17776652/0x010F400C))
111: 0x0D5C [0x4A] Chocobo (ID: 17776650/0x010F400A) looks at Dietmund (ID: 17776655/0x010F400F)
112: 0x0D65 [0x27] REQ_SET(priority=0x03, entity_id=Dietmund (ID: 17776655/0x010F400F), tag_num=0x03)
113: 0x0D6C [0x27] REQ_SET(priority=0x03, entity_id=Brutus (ID: 17776652/0x010F400C), tag_num=0x08)
114: 0x0D73 [0x1C] WAIT(100* ticks)
115: 0x0D76 [0x45] LOAD_SCHEDULED_TASK: Load scheduler "y003" with entities [LocalPlayer, LocalPlayer], work=[53*, 0*]
116: 0x0D87 [0x2A] GET_REQ_LEVEL(level=3, entity_id=Brutus (ID: 17776652/0x010F400C))
117: 0x0D8D [0x27] REQ_SET(priority=0x03, entity_id=Brutus (ID: 17776652/0x010F400C), tag_num=0x28)
118: 0x0D94 [0x55] WAIT_LOAD_SCHEDULER: Wait for scheduler "y003" with entities [LocalPlayer, LocalPlayer], work=53*
119: 0x0DA3 [0x23] WAIT_FOR_DIALOG_INTERACTION
120: 0x0DA4 [0x2B] Brutus (ID: 17776652/0x010F400C) [8206*]:
    → "Would I lie to you? You've become one helluva beastmaster, if you ask me."
121: 0x0DAB [0x23] WAIT_FOR_DIALOG_INTERACTION
122: 0x0DAC [0x27] REQ_SET(priority=0x03, entity_id=Brutus (ID: 17776652/0x010F400C), tag_num=0x29)
123: 0x0DB3 [0x2B] Brutus (ID: 17776652/0x010F400C) [8207*]:
    → "Her wounds are still not fully healed, but I don't think that a quick ride around the Duchy would hurt. Go on!"
124: 0x0DBA [0x23] WAIT_FOR_DIALOG_INTERACTION
125: 0x0DBB [0x2A] GET_REQ_LEVEL(level=3, entity_id=Brutus (ID: 17776652/0x010F400C))
126: 0x0DC1 [0x45] LOAD_SCHEDULED_TASK: Load scheduler "y004" with entities [LocalPlayer, LocalPlayer], work=[53*, 0*]
127: 0x0DD2 [0x55] WAIT_LOAD_SCHEDULER: Wait for scheduler "y004" with entities [LocalPlayer, LocalPlayer], work=53*
128: 0x0DE1 [0x2B] Dietmund (ID: 17776655/0x010F400F) [8208*]:
    → "Thanks again, Brutus."
129: 0x0DE8 [0x23] WAIT_FOR_DIALOG_INTERACTION
130: 0x0DE9 [0x29] REQ_SET_WAIT(priority=0x03, entity_id=Dietmund (ID: 17776655/0x010F400F), tag_num=0x04)
131: 0x0DF0 [0x1C] WAIT(60* ticks)
132: 0x0DF3 [0x7B] Dietmund (ID: 17776655/0x010F400F) stops talking
133: 0x0DF8 [0x1C] WAIT(120* ticks)
134: 0x0DFB [0x45] LOAD_SCHEDULED_TASK: Load scheduler "y005" with entities [LocalPlayer, LocalPlayer], work=[53*, 0*]
135: 0x0E0C [0x55] WAIT_LOAD_SCHEDULER: Wait for scheduler "y005" with entities [LocalPlayer, LocalPlayer], work=53*
136: 0x0E1B [0x1C] WAIT(120* ticks)
137: 0x0E1E [0x2B] Dietmund (ID: 17776655/0x010F400F) [8209*]:
    → "But you know...I'm still worried that she won't trust me riding her yet...you know, after all that I put her through..."
138: 0x0E25 [0x23] WAIT_FOR_DIALOG_INTERACTION
139: 0x0E26 [0x2B] Brutus (ID: 17776652/0x010F400C) [8210*]:
    → "Are you still fretting over that? Come on, take a look at her eyes."
140: 0x0E2D [0x23] WAIT_FOR_DIALOG_INTERACTION
141: 0x0E2E [0x79] Brutus (ID: 17776652/0x010F400C) looks at Chocobo (ID: 17776650/0x010F400A) (Basic look)
142: 0x0E38 [0x1C] WAIT(30* ticks)
143: 0x0E3B [0x79] Dietmund (ID: 17776655/0x010F400F) looks at Chocobo (ID: 17776650/0x010F400A) (Basic look)
144: 0x0E45 [0x1C] WAIT(30* ticks)
145: 0x0E48 [0x45] LOAD_SCHEDULED_TASK: Load scheduler "y006" with entities [LocalPlayer, LocalPlayer], work=[53*, 0*]
146: 0x0E59 [0x55] WAIT_LOAD_SCHEDULER: Wait for scheduler "y006" with entities [LocalPlayer, LocalPlayer], work=53*
147: 0x0E68 [0x29] REQ_SET_WAIT(priority=0x03, entity_id=Chocobo (ID: 17776650/0x010F400A), tag_num=0x17)
148: 0x0E6F [0x2B] Brutus (ID: 17776652/0x010F400C) [8211*]:
    → "They're shining as bright as yours, Dietmund."
149: 0x0E76 [0x23] WAIT_FOR_DIALOG_INTERACTION
150: 0x0E77 [0x1C] WAIT(60* ticks)
151: 0x0E7A [0x45] LOAD_SCHEDULED_TASK: Load scheduler "y007" with entities [LocalPlayer, LocalPlayer], work=[53*, 0*]
152: 0x0E8B [0x1C] WAIT(60* ticks)
153: 0x0E8E [0x2B] Dietmund (ID: 17776655/0x010F400F) [8212*]:
    → "Brutus..."
154: 0x0E95 [0x1C] WAIT(60* ticks)
155: 0x0E98 [0x23] WAIT_FOR_DIALOG_INTERACTION
156: 0x0E99 [0x2B] Brutus (ID: 17776652/0x010F400C) [8213*]:
    → "Hey, hey! You're not going get all sissy on me now, are you!?"
157: 0x0EA0 [0x23] WAIT_FOR_DIALOG_INTERACTION
158: 0x0EA1 [0x7B] Dietmund (ID: 17776655/0x010F400F) stops talking
159: 0x0EA6 [0x1C] WAIT(20* ticks)
160: 0x0EA9 [0x55] WAIT_LOAD_SCHEDULER: Wait for scheduler "y007" with entities [LocalPlayer, LocalPlayer], work=53*
161: 0x0EB8 [0x2B] Dietmund (ID: 17776655/0x010F400F) [8214*]:
    → "I-I-I don't know what t-to say. I think I've g-got something in me eye..."
162: 0x0EBF [0x23] WAIT_FOR_DIALOG_INTERACTION
163: 0x0EC0 [0x27] REQ_SET(priority=0x03, entity_id=Brutus (ID: 17776652/0x010F400C), tag_num=0x28)
164: 0x0EC7 [0x2B] Brutus (ID: 17776652/0x010F400C) [8215*]:
    → "If all you're going to do is stand there and cry, the get the hell out of my stables! You're scaring away business!"
165: 0x0ECE [0x23] WAIT_FOR_DIALOG_INTERACTION
166: 0x0ECF [0x79] Dietmund (ID: 17776655/0x010F400F) looks at Chocobo (ID: 17776650/0x010F400A) (Basic look)
167: 0x0ED9 [0x2B] Dietmund (ID: 17776655/0x010F400F) [8216*]:
    → "Th-thank you, Brutus..."
168: 0x0EE0 [0x23] WAIT_FOR_DIALOG_INTERACTION
169: 0x0EE1 [0x29] REQ_SET_WAIT(priority=0x03, entity_id=Dietmund (ID: 17776655/0x010F400F), tag_num=0x19)
170: 0x0EE8 [0x7B] Dietmund (ID: 17776655/0x010F400F) stops talking
171: 0x0EED [0x29] REQ_SET_WAIT(priority=0x03, entity_id=Dietmund (ID: 17776655/0x010F400F), tag_num=0x1A)
172: 0x0EF4 [0x1C] WAIT(15* ticks)
173: 0x0EF7 [0x27] REQ_SET(priority=0x03, entity_id=Dietmund (ID: 17776655/0x010F400F), tag_num=0x05)
174: 0x0EFE [0x27] REQ_SET(priority=0x03, entity_id=Chocobo (ID: 17776650/0x010F400A), tag_num=0x04)
175: 0x0F05 [0x1C] WAIT(120* ticks)
176: 0x0F08 [0x27] REQ_SET(priority=0x03, entity_id=Brutus (ID: 17776652/0x010F400C), tag_num=0x29)
177: 0x0F0F [0x45] LOAD_SCHEDULED_TASK: Load scheduler "y008" with entities [LocalPlayer, LocalPlayer], work=[53*, 0*]
178: 0x0F20 [0x2A] GET_REQ_LEVEL(level=3, entity_id=Dietmund (ID: 17776655/0x010F400F))
179: 0x0F26 [0x2A] GET_REQ_LEVEL(level=3, entity_id=Chocobo (ID: 17776650/0x010F400A))
180: 0x0F2C [0x55] WAIT_LOAD_SCHEDULER: Wait for scheduler "y008" with entities [LocalPlayer, LocalPlayer], work=53*
181: 0x0F3B [0x1C] WAIT(60* ticks)
182: 0x0F3E [0x2B] Dietmund (ID: 17776655/0x010F400F) [8217*]:
    → "No, thank you, everyone. I'll never forget this day...never..."
183: 0x0F45 [0x23] WAIT_FOR_DIALOG_INTERACTION
184: 0x0F46 [0x1C] WAIT(30* ticks)
185: 0x0F49 [0x4B] UPDATE_ENTITY_YAW(entity=Dietmund (ID: 17776655/0x010F400F), yaw=9.9°*)
186: 0x0F50 [0x6F] WAIT_FRAME_DELAY: Yield until WaitTime reaches zero
187: 0x0F51 [0x76] CHECK_ENTITY_RENDER_FLAGS: Wait until Dietmund (ID: 17776655/0x010F400F) Render.Flags0 and Render.Flags3 conditions are met
188: 0x0F56 [0x27] REQ_SET(priority=0x03, entity_id=Dietmund (ID: 17776655/0x010F400F), tag_num=0x06)
189: 0x0F5D [0x27] REQ_SET(priority=0x03, entity_id=Chocobo (ID: 17776650/0x010F400A), tag_num=0x05)
190: 0x0F64 [0x1C] WAIT(30* ticks)
191: 0x0F67 [0x05] Work_Zone[1] = 1
192: 0x0F6A [0x45] LOAD_SCHEDULED_TASK: Load scheduler "qstc" with entities [LocalPlayer, LocalPlayer], work=[201*, 0*]
193: 0x0F7B [0x45] LOAD_SCHEDULED_TASK: Load scheduler "fdo2" with entities [LocalPlayer, LocalPlayer], work=[200*, 0*]
194: 0x0F8C [0x55] WAIT_LOAD_SCHEDULER: Wait for scheduler "fdo2" with entities [LocalPlayer, LocalPlayer], work=200*
195: 0x0F9B [0x5C] MUSIC_CONTROL: Set Idle (Day) music to song 110*
196: 0x0F9F [0x5C] MUSIC_CONTROL: Set Idle (Night) music to song 110*
197: 0x0FA3 [0x46] CAMERA_CONTROL: Restore default settings
198: 0x0FA5 [0x45] LOAD_SCHEDULED_TASK: Load scheduler "fdi2" with entities [LocalPlayer, LocalPlayer], work=[200*, 0*]
199: 0x0FB6 [0x21] END_EVENT
200: 0x0FB7 [0x00] END_REQSTACK()
```

### Event 13

#### Metadata

| Field        | Value     |
|--------------|-----------|
| Entrypoint   | 0x0FB8    |
| Data Size    | 329 bytes |
| Instructions | 43        |

```
      00 01 02 03 04 05 06 07  08 09 0A 0B 0C 0D 0E 0F
      -- -- -- -- -- -- -- --  -- -- -- -- -- -- -- --
0FB0:                          20 01 46 01 42 45 00 80           .F.BE..
0FC0: F0 FF FF 7F F0 FF FF 7F  66 64 6F 31 01 80 55 00  ........fdo1..U.
0FD0: 80 F0 FF FF 7F F0 FF FF  7F 66 64 6F 31 38 03 80  .........fdo18..
0FE0: BA F0 FF FF 7F 50 80 51  80 52 80 53 80 27 03 0C  .....P.Q.R.S.'..
0FF0: 40 0F 01 05 97 01 80 06  80 45 54 80 F0 FF FF 7F  @........ET.....
1000: F0 FF FF 7F 7A 30 30 34  01 80 55 54 80 F0 FF FF  ....z004..UT....
1010: 7F F0 FF FF 7F 7A 30 30  34 45 00 80 F0 FF FF 7F  .....z004E......
1020: F0 FF FF 7F 66 64 69 31  01 80 55 00 80 F0 FF FF  ....fdi1..U.....
1030: 7F F0 FF FF 7F 66 64 69  31 2A 03 0C 40 0F 01 79  .....fdi1*..@..y
1040: 00 0C 40 0F 01 F0 FF FF  7F 03 02 10 77 80 03 03  ..@.........w...
1050: 10 78 80 03 04 10 55 80  27 03 0C 40 0F 01 27 2B  .x....U.'..@..'+
1060: 0C 40 0F 01 79 80 23 2B  0C 40 0F 01 7A 80 23 29  .@..y.#+.@..z.#)
1070: 03 0C 40 0F 01 2B 27 03  0C 40 0F 01 28 1C 08 80  ..@..+'..@..(...
1080: 45 54 80 F0 FF FF 7F F0  FF FF 7F 7A 30 30 35 01  ET.........z005.
1090: 80 55 54 80 F0 FF FF 7F  F0 FF FF 7F 7A 30 30 35  .UT.........z005
10A0: 2B 0C 40 0F 01 7B 80 23  2B 0C 40 0F 01 7C 80 23  +.@..{.#+.@..|.#
10B0: 29 03 0C 40 0F 01 29 27  03 0C 40 0F 01 2A 2B 0C  )..@..)'..@..*+.
10C0: 40 0F 01 7D 80 23 2A 03  0C 40 0F 01 45 00 80 F0  @..}.#*..@..E...
10D0: FF FF 7F F0 FF FF 7F 66  64 6F 32 01 80 55 00 80  .......fdo2..U..
10E0: F0 FF FF 7F F0 FF FF 7F  66 64 6F 32 46 00 45 00  ........fdo2F.E.
10F0: 80 F0 FF FF 7F F0 FF FF  7F 66 64 69 32 01 80 21  .........fdi2..!
1100: 00                                                .               
```

#### Opcodes

```
  0: 0x0FB8 [0x20] SET_CLI_EVENT_UC_FLAG: Lock player control
  1: 0x0FBA [0x46] CAMERA_CONTROL: Disable user control
  2: 0x0FBC [0x42] SET_CLI_EVENT_CANCEL_DATA()
  3: 0x0FBD [0x45] LOAD_SCHEDULED_TASK: Load scheduler "fdo1" with entities [LocalPlayer, LocalPlayer], work=[200*, 0*]
  4: 0x0FCE [0x55] WAIT_LOAD_SCHEDULER: Wait for scheduler "fdo1" with entities [LocalPlayer, LocalPlayer], work=200*
  5: 0x0FDD [0x38] SET_CLIENT_EVENT_MODE(mode=3*)
  6: 0x0FE0 [0xBA] SET_ENTITY_POSITION(entity_id=LocalPlayer, pos_x=-56.176*, pos_z=95.599*, pos_y=8.199*, direction=241.4°*)
  7: 0x0FED [0x27] REQ_SET(priority=0x03, entity_id=Brutus (ID: 17776652/0x010F400C), tag_num=0x05)
  8: 0x0FF4 [0x97] SAVE_SET_WIND_VALUES(wind_base=0x8001, wind_width=0x8006)
  9: 0x0FF9 [0x45] LOAD_SCHEDULED_TASK: Load scheduler "z004" with entities [LocalPlayer, LocalPlayer], work=[53*, 0*]
 10: 0x100A [0x55] WAIT_LOAD_SCHEDULER: Wait for scheduler "z004" with entities [LocalPlayer, LocalPlayer], work=53*
 11: 0x1019 [0x45] LOAD_SCHEDULED_TASK: Load scheduler "fdi1" with entities [LocalPlayer, LocalPlayer], work=[200*, 0*]
 12: 0x102A [0x55] WAIT_LOAD_SCHEDULER: Wait for scheduler "fdi1" with entities [LocalPlayer, LocalPlayer], work=200*
 13: 0x1039 [0x2A] GET_REQ_LEVEL(level=3, entity_id=Brutus (ID: 17776652/0x010F400C))
 14: 0x103F [0x79] Brutus (ID: 17776652/0x010F400C) looks at LocalPlayer (Basic look)
 15: 0x1049 [0x03] Work_Zone[2] = 17933*
 16: 0x104E [0x03] Work_Zone[3] = 344*
 17: 0x1053 [0x03] Work_Zone[4] = 345*
 18: 0x1058 [0x27] REQ_SET(priority=0x03, entity_id=Brutus (ID: 17776652/0x010F400C), tag_num=0x27)
 19: 0x105F [0x2B] Brutus (ID: 17776652/0x010F400C) [8183*]:
    → "Well, I'll be! You've worked this axe so hard that I could whack Osker over the head with it and he wouldn't even get a scratch. Now I think I'll be able to decide on which axe I recommend to the Tenshodo."
 20: 0x1066 [0x23] WAIT_FOR_DIALOG_INTERACTION
 21: 0x1067 [0x2B] Brutus (ID: 17776652/0x010F400C) [8184*]:
    → "To tell you the truth, <Player>, I didn't think you'd be able to handle the test. I'm really impressed. To show my true gratification, how'd you like to put your axe-wielding skills to a real test?"
 22: 0x106E [0x23] WAIT_FOR_DIALOG_INTERACTION
 23: 0x106F [0x29] REQ_SET_WAIT(priority=0x03, entity_id=Brutus (ID: 17776652/0x010F400C), tag_num=0x2B)
 24: 0x1076 [0x27] REQ_SET(priority=0x03, entity_id=Brutus (ID: 17776652/0x010F400C), tag_num=0x28)
 25: 0x107D [0x1C] WAIT(30* ticks)
 26: 0x1080 [0x45] LOAD_SCHEDULED_TASK: Load scheduler "z005" with entities [LocalPlayer, LocalPlayer], work=[53*, 0*]
 27: 0x1091 [0x55] WAIT_LOAD_SCHEDULER: Wait for scheduler "z005" with entities [LocalPlayer, LocalPlayer], work=53*
 28: 0x10A0 [0x2B] Brutus (ID: 17776652/0x010F400C) [8185*]:
    → "Back when I was still a blazin' young'un, me and my partners used to compete over who was the strongest of our pack. There was no real meaning to it, but it was fun and helped us build up our confidence on the battlefield."
 29: 0x10A7 [0x23] WAIT_FOR_DIALOG_INTERACTION
 30: 0x10A8 [0x2B] Brutus (ID: 17776652/0x010F400C) [8186*]:
    → "And after a few of those sessions, I could feel my skills getting more and more refined, until I was smashing through anything that got in my path."
 31: 0x10AF [0x23] WAIT_FOR_DIALOG_INTERACTION
 32: 0x10B0 [0x29] REQ_SET_WAIT(priority=0x03, entity_id=Brutus (ID: 17776652/0x010F400C), tag_num=0x29)
 33: 0x10B7 [0x27] REQ_SET(priority=0x03, entity_id=Brutus (ID: 17776652/0x010F400C), tag_num=0x2A)
