# 17776816 - Chocobo

## Common Data

| Field            | Value                 |
|------------------|-----------------------|
| Zone             | Upper Jeuno (ID: 244) |
| Block Size       | 1628 bytes            |
| Total Events     | 35                    |
| References Count | 167                   |

## List of Events

| Event ID                   | Entrypoint   |   Size |   Instructions |
|----------------------------|--------------|--------|----------------|
| [65535](#event-65535)      | 0x0000       |      1 |              1 |
| [10093](#event-10093)      | 0x0001       |      1 |              1 |
| [65535.1](#event-655351)   | 0x0002       |     15 |              3 |
| [65535.2](#event-655352)   | 0x0011       |     34 |              8 |
| [10095](#event-10095)      | 0x0033       |      1 |              1 |
| [10100](#event-10100)      | 0x0034       |      1 |              1 |
| [65535.3](#event-655353)   | 0x0035       |     28 |              6 |
| [65535.4](#event-655354)   | 0x0051       |     41 |              9 |
| [65535.5](#event-655355)   | 0x007A       |     41 |              9 |
| [65535.6](#event-655356)   | 0x00A3       |     15 |              3 |
| [10102](#event-10102)      | 0x00B2       |      1 |              1 |
| [65535.7](#event-655357)   | 0x00B3       |     51 |              6 |
| [65535.8](#event-655358)   | 0x00E6       |     10 |              2 |
| [65535.9](#event-655359)   | 0x00F0       |     14 |              4 |
| [65535.10](#event-6553510) | 0x00FE       |     24 |              6 |
| [65535.11](#event-6553511) | 0x0116       |     24 |              6 |
| [65535.12](#event-6553512) | 0x012E       |     64 |             14 |
| [65535.13](#event-6553513) | 0x016E       |     24 |              6 |
| [65535.14](#event-6553514) | 0x0186       |     10 |              2 |
| [65535.15](#event-6553515) | 0x0190       |     56 |              8 |
| [65535.16](#event-6553516) | 0x01C8       |     10 |              2 |
| [65535.17](#event-6553517) | 0x01D2       |     24 |              6 |
| [65535.18](#event-6553518) | 0x01EA       |     54 |             12 |
| [65535.19](#event-6553519) | 0x0220       |     10 |              2 |
| [65535.20](#event-6553520) | 0x022A       |     14 |              4 |
| [65535.21](#event-6553521) | 0x0238       |     74 |             16 |
| [65535.22](#event-6553522) | 0x0282       |     10 |              2 |
| [65535.23](#event-6553523) | 0x028C       |     24 |              6 |
| [65535.24](#event-6553524) | 0x02A4       |     41 |              7 |
| [65535.25](#event-6553525) | 0x02CD       |     14 |              4 |
| [65535.26](#event-6553526) | 0x02DB       |     10 |              2 |
| [65535.27](#event-6553527) | 0x02E5       |     28 |              6 |
| [10214](#event-10214)      | 0x0301       |      7 |              2 |
| [65535.28](#event-6553528) | 0x0308       |     14 |              4 |
| [65535.29](#event-6553529) | 0x0316       |     14 |              4 |

## DAT References (imed_data)

|   Index | Hex Value   |   Dec Value |
|---------|-------------|-------------|
|       0 | 0xFFFF421E  |  4294918686 |
|       1 | 0x16953     |       92499 |
|       2 | 0x1F3F      |        7999 |
|       3 | 0x0EC3      |        3779 |
|       4 | 0x003C      |          60 |
|       5 | 0xFFFF3B51  |  4294916945 |
|       6 | 0x17115     |       94485 |
|       7 | 0x2007      |        8199 |
|       8 | 0xFFFF4AE0  |  4294920928 |
|       9 | 0x17A61     |       96865 |
|      10 | 0xFFFF70EB  |  4294930667 |
|      11 | 0x16C5A     |       93274 |
|      12 | 0xFFFF30F1  |  4294914289 |
|      13 | 0x15E57     |       89687 |
|      14 | 0xFFFF373A  |  4294915898 |
|      15 | 0x15112     |       86290 |
|      16 | 0xFFFF18A4  |  4294908068 |
|      17 | 0x15AA9     |       88745 |
|      18 | 0xFFFF22E8  |  4294910696 |
|      19 | 0x167DE     |       92126 |
|      20 | 0xFFFF3E69  |  4294917737 |
|      21 | 0x16974     |       92532 |
|      22 | 0x0CCA      |        3274 |
|      23 | 0x0000      |           0 |
|      24 | 0x0002      |           2 |
|      25 | 0x0003      |           3 |
|      26 | 0x0005      |           5 |
|      27 | 0x0006      |           6 |
|      28 | 0x0008      |           8 |
|      29 | 0x0009      |           9 |
|      30 | 0x000B      |          11 |
|      31 | 0x0001      |           1 |
|      32 | 0xFFFABC2D  |  4294622253 |
|      33 | 0xFFFF29BE  |  4294912446 |
|      34 | 0xFFFFFDE6  |  4294966758 |
|      35 | 0x07C3      |        1987 |
|      36 | 0x001B      |          27 |
|      37 | 0xFFFAA3D6  |  4294616022 |
|      38 | 0xFFFF2A83  |  4294912643 |
|      39 | 0xFFFFFD32  |  4294966578 |
|      40 | 0x0046      |          70 |
|      41 | 0xFFFA68CF  |  4294600911 |
|      42 | 0xFFFF2229  |  4294910505 |
|      43 | 0x01EE      |         494 |
|      44 | 0xFFFA6913  |  4294600979 |
|      45 | 0xFFFF2073  |  4294910067 |
|      46 | 0x01D4      |         468 |
|      47 | 0xFFFA3B37  |  4294589239 |
|      48 | 0xFFFF3BAA  |  4294917034 |
|      49 | 0x01EA      |         490 |
|      50 | 0xFFFA3AF3  |  4294589171 |
|      51 | 0xFFFF3E40  |  4294917696 |
|      52 | 0x01C3      |         451 |
|      53 | 0xFFFAA38A  |  4294615946 |
|      54 | 0xFFFF009F  |  4294901919 |
|      55 | 0x01EF      |         495 |
|      56 | 0x06FF      |        1791 |
|      57 | 0xFFFA93AC  |  4294611884 |
|      58 | 0xFFFEFEBE  |  4294901438 |
|      59 | 0x01F5      |         501 |
|      60 | 0xFFFA92A4  |  4294611620 |
|      61 | 0xFFFF001F  |  4294901791 |
|      62 | 0x01BD      |         445 |
|      63 | 0xFFFA7DCD  |  4294606285 |
|      64 | 0xFFFEFDEB  |  4294901227 |
|      65 | 0x020B      |         523 |
|      66 | 0xFFFA7D91  |  4294606225 |
|      67 | 0xFFFEFFA1  |  4294901665 |
|      68 | 0x0233      |         563 |
|      69 | 0xFFFA6068  |  4294598760 |
|      70 | 0xFFFEFF8E  |  4294901646 |
|      71 | 0x01B8      |         440 |
|      72 | 0xFFFA5FBA  |  4294598586 |
|      73 | 0xFFFF00CB  |  4294901963 |
|      74 | 0x01B0      |         432 |
|      75 | 0xFFFF47A0  |  4294920096 |
|      76 | 0x17778     |       96120 |
|      77 | 0x1F35      |        7989 |
|      78 | 0x0767      |        1895 |
|      79 | 0xFFFF3A20  |  4294916640 |
|      80 | 0x177B6     |       96182 |
|      81 | 0x001E      |          30 |
|      82 | 0x0090      |         144 |
|      83 | 0x00FB      |         251 |
|      84 | 0x48B2      |       18610 |
|      85 | 0xFFF4A119  |  4294222105 |
|      86 | 0xFFFFE91A  |  4294961434 |
|      87 | 0x0BA4      |        2980 |
|      88 | 0x4C7E      |       19582 |
|      89 | 0xFFF5053E  |  4294247742 |
|      90 | 0xFFFFF026  |  4294963238 |
|      91 | 0x366F      |       13935 |
|      92 | 0xFFF537FE  |  4294260734 |
|      93 | 0xFFFFF445  |  4294964293 |
|      94 | 0x2690      |        9872 |
|      95 | 0xFFF53F11  |  4294262545 |
|      96 | 0xFFFFF46B  |  4294964331 |
|      97 | 0x1152      |        4434 |
|      98 | 0xFFF54B66  |  4294265702 |
|      99 | 0xFFFFF156  |  4294963542 |
|     100 | 0xFFFFE036  |  4294959158 |
|     101 | 0xFFF55365  |  4294267749 |
|     102 | 0xFFFFF322  |  4294964002 |
|     103 | 0xFFFFC331  |  4294951729 |
|     104 | 0xFFF56794  |  4294272916 |
|     105 | 0xFFFFF307  |  4294963975 |
|     106 | 0xFFFFAB44  |  4294945604 |
|     107 | 0xFFF58BEB  |  4294282219 |
|     108 | 0xFFFFF22B  |  4294963755 |
|     109 | 0x420A2     |      270498 |
|     110 | 0xFFFC3C82  |  4294720642 |
|     111 | 0xFFFF8235  |  4294935093 |
|     112 | 0x05EF      |        1519 |
|     113 | 0x417AC     |      268204 |
|     114 | 0xFFFC2F26  |  4294717222 |
|     115 | 0xFFFF84C2  |  4294935746 |
|     116 | 0x429AA     |      272810 |
|     117 | 0xFFFC1B35  |  4294712117 |
|     118 | 0xFFFF864B  |  4294936139 |
|     119 | 0x4295B     |      272731 |
|     120 | 0xFFFBF86D  |  4294703213 |
|     121 | 0xFFFF86AD  |  4294936237 |
|     122 | 0x41807     |      268295 |
|     123 | 0xFFFBDE74  |  4294696564 |
|     124 | 0xFFFF858D  |  4294935949 |
|     125 | 0x3FE00     |      261632 |
|     126 | 0xFFFBD015  |  4294692885 |
|     127 | 0xFFFF89F6  |  4294937078 |
|     128 | 0x3E1B3     |      254387 |
|     129 | 0xFFFBCD5D  |  4294692189 |
|     130 | 0xFFFF88AF  |  4294936751 |
|     131 | 0x3D1A2     |      250274 |
|     132 | 0xFFFBD5A6  |  4294694310 |
|     133 | 0xFFFF886A  |  4294936682 |
|     134 | 0x3D2BC     |      250556 |
|     135 | 0xFFFBDA3F  |  4294695487 |
|     136 | 0xFFFF8A1D  |  4294937117 |
|     137 | 0xFFFF42EA  |  4294918890 |
|     138 | 0x1A653     |      108115 |
|     139 | 0x0E8C      |        3724 |
|     140 | 0x0014      |          20 |
|     141 | 0xFFFF4E5C  |  4294921820 |
|     142 | 0x1AE6F     |      110191 |
|     143 | 0x003E      |          62 |
|     144 | 0xFFFF44F0  |  4294919408 |
|     145 | 0x1BFCE     |      114638 |
|     146 | 0xFFFF082B  |  4294903851 |
|     147 | 0x348C      |       13452 |
|     148 | 0x03E8      |        1000 |
|     149 | 0x064E      |        1614 |
|     150 | 0xFFFF2A15  |  4294912533 |
|     151 | 0x3F0D      |       16141 |
|     152 | 0xFFFFC6BA  |  4294952634 |
|     153 | 0x028A      |         650 |
|     154 | 0x0AB9      |        2745 |
|     155 | 0xFFFEDE99  |  4294893209 |
|     156 | 0xFFFE37BF  |  4294850495 |
|     157 | 0x0CB7      |        3255 |
|     158 | 0xFFFEBBE3  |  4294884323 |
|     159 | 0xFFFE408A  |  4294852746 |
|     160 | 0x000D      |          13 |
|     161 | 0xFFFA8338  |  4294607672 |
|     162 | 0xFFFD5F2B  |  4294795051 |
|     163 | 0xFFFFD8EE  |  4294957294 |
|     164 | 0xFFFA7D05  |  4294606085 |
|     165 | 0xFFFD3D47  |  4294786375 |
|     166 | 0xFFFFD6FB  |  4294956795 |

## Events

### Event 65535

#### Metadata

| Field        | Value   |
|--------------|---------|
| Entrypoint   | 0x0000  |
| Data Size    | 1 bytes |
| Instructions | 1       |

```
      00 01 02 03 04 05 06 07  08 09 0A 0B 0C 0D 0E 0F
      -- -- -- -- -- -- -- --  -- -- -- -- -- -- -- --
0000: 00                                                .               
```

#### Opcodes

```
  0: 0x0000 [0x00] END_REQSTACK()
```

### Event 10093

#### Metadata

| Field        | Value   |
|--------------|---------|
| Entrypoint   | 0x0001  |
| Data Size    | 1 bytes |
| Instructions | 1       |

```
      00 01 02 03 04 05 06 07  08 09 0A 0B 0C 0D 0E 0F
      -- -- -- -- -- -- -- --  -- -- -- -- -- -- -- --
0000:    00                                              .              
```

#### Opcodes

```
  0: 0x0001 [0x00] END_REQSTACK()
```

### Event 65535.1

#### Metadata

| Field        | Value    |
|--------------|----------|
| Entrypoint   | 0x0002   |
| Data Size    | 15 bytes |
| Instructions | 3        |

```
      00 01 02 03 04 05 06 07  08 09 0A 0B 0C 0D 0E 0F
      -- -- -- -- -- -- -- --  -- -- -- -- -- -- -- --
0000:       37 00 80 01 80 02  80 03 80 80 F8 FF FF 7F    7.............
0010: 00                                                .               
```

#### Opcodes

```
  0: 0x0002 [0x37] UPDATE_EVENT_POSITION_AND_DIR: x=-48.610*, z=92.499*, y=7.999*, direction=332.1°*
  1: 0x000B [0x80] LOAD_WAIT(entity=EventEntity)
  2: 0x0010 [0x00] END_REQSTACK()
```

### Event 65535.2

#### Metadata

| Field        | Value    |
|--------------|----------|
| Entrypoint   | 0x0011   |
| Data Size    | 34 bytes |
| Instructions | 8        |

```
      00 01 02 03 04 05 06 07  08 09 0A 0B 0C 0D 0E 0F
      -- -- -- -- -- -- -- --  -- -- -- -- -- -- -- --
0010:    32 04 80 1F 00 05 80  06 80 07 80 1F 01 1F 00   2..............
0020: 08 80 09 80 02 80 1F 01  1F 00 0A 80 0B 80 02 80  ................
0030: 1F 01 00                                          ...             
```

#### Opcodes

```
  0: 0x0011 [0x32] ExtData[1]->MainSpeed = 60* * 0.1
  1: 0x0014 [0x1F] MOVE_ENTITY: EventEntity moves to X=-50.351*, Z=94.485*, Y=8.199*
  2: 0x001C [0x1F] MOVE_ENTITY: Update entity position (mode=1)
  3: 0x001E [0x1F] MOVE_ENTITY: EventEntity moves to X=-46.368*, Z=96.865*, Y=7.999*
  4: 0x0026 [0x1F] MOVE_ENTITY: Update entity position (mode=1)
  5: 0x0028 [0x1F] MOVE_ENTITY: EventEntity moves to X=-36.629*, Z=93.274*, Y=7.999*
  6: 0x0030 [0x1F] MOVE_ENTITY: Update entity position (mode=1)
  7: 0x0032 [0x00] END_REQSTACK()
```

### Event 10095

#### Metadata

| Field        | Value   |
|--------------|---------|
| Entrypoint   | 0x0033  |
| Data Size    | 1 bytes |
| Instructions | 1       |

```
      00 01 02 03 04 05 06 07  08 09 0A 0B 0C 0D 0E 0F
      -- -- -- -- -- -- -- --  -- -- -- -- -- -- -- --
0030:          00                                          .            
```

#### Opcodes

```
  0: 0x0033 [0x00] END_REQSTACK()
```

### Event 10100

#### Metadata

| Field        | Value   |
|--------------|---------|
| Entrypoint   | 0x0034  |
| Data Size    | 1 bytes |
| Instructions | 1       |

```
      00 01 02 03 04 05 06 07  08 09 0A 0B 0C 0D 0E 0F
      -- -- -- -- -- -- -- --  -- -- -- -- -- -- -- --
0030:             00                                        .           
```

#### Opcodes

```
  0: 0x0034 [0x00] END_REQSTACK()
```

### Event 65535.3

#### Metadata

| Field        | Value    |
|--------------|----------|
| Entrypoint   | 0x0035   |
| Data Size    | 28 bytes |
| Instructions | 6        |

```
      00 01 02 03 04 05 06 07  08 09 0A 0B 0C 0D 0E 0F
      -- -- -- -- -- -- -- --  -- -- -- -- -- -- -- --
0030:                32 04 80  1F 00 0C 80 0D 80 07 80       2..........
0040: 1F 01 1E B1 40 0F 01 4A  B1 40 0F 01 B0 40 0F 01  ....@..J.@...@..
0050: 00                                                .               
```

#### Opcodes

```
  0: 0x0035 [0x32] ExtData[1]->MainSpeed = 60* * 0.1
  1: 0x0038 [0x1F] MOVE_ENTITY: EventEntity moves to X=-53.007*, Z=89.687*, Y=8.199*
  2: 0x0040 [0x1F] MOVE_ENTITY: Update entity position (mode=1)
  3: 0x0042 [0x1E] EventEntity looks at Chocobo (ID: 17776817/0x010F40B1) and starts talking
  4: 0x0047 [0x4A] Chocobo (ID: 17776817/0x010F40B1) looks at Chocobo (ID: 17776816/0x010F40B0)
  5: 0x0050 [0x00] END_REQSTACK()
```

### Event 65535.4

#### Metadata

| Field        | Value    |
|--------------|----------|
| Entrypoint   | 0x0051   |
| Data Size    | 41 bytes |
| Instructions | 9        |

```
      00 01 02 03 04 05 06 07  08 09 0A 0B 0C 0D 0E 0F
      -- -- -- -- -- -- -- --  -- -- -- -- -- -- -- --
0050:    32 04 80 1F 00 0E 80  0F 80 07 80 1F 01 1F 00   2..............
0060: 10 80 11 80 07 80 1F 01  1F 00 12 80 13 80 07 80  ................
0070: 1F 01 27 05 B0 40 0F 01  08 00                    ..'..@....      
```

#### Opcodes

```
  0: 0x0051 [0x32] ExtData[1]->MainSpeed = 60* * 0.1
  1: 0x0054 [0x1F] MOVE_ENTITY: EventEntity moves to X=-51.398*, Z=86.290*, Y=8.199*
  2: 0x005C [0x1F] MOVE_ENTITY: Update entity position (mode=1)
  3: 0x005E [0x1F] MOVE_ENTITY: EventEntity moves to X=-59.228*, Z=88.745*, Y=8.199*
  4: 0x0066 [0x1F] MOVE_ENTITY: Update entity position (mode=1)
  5: 0x0068 [0x1F] MOVE_ENTITY: EventEntity moves to X=-56.600*, Z=92.126*, Y=8.199*
  6: 0x0070 [0x1F] MOVE_ENTITY: Update entity position (mode=1)
  7: 0x0072 [0x27] REQ_SET(priority=0x05, entity_id=Chocobo (ID: 17776816/0x010F40B0), tag_num=0x08)
  8: 0x0079 [0x00] END_REQSTACK()
```

### Event 65535.5

#### Metadata

| Field        | Value    |
|--------------|----------|
| Entrypoint   | 0x007A   |
| Data Size    | 41 bytes |
| Instructions | 9        |

```
      00 01 02 03 04 05 06 07  08 09 0A 0B 0C 0D 0E 0F
      -- -- -- -- -- -- -- --  -- -- -- -- -- -- -- --
0070:                                32 04 80 1F 00 0E            2.....
0080: 80 0F 80 07 80 1F 01 1F  00 10 80 11 80 07 80 1F  ................
0090: 01 1F 00 12 80 13 80 07  80 1F 01 27 05 B0 40 0F  ...........'..@.
00A0: 01 07 00                                          ...             
```

#### Opcodes

```
  0: 0x007A [0x32] ExtData[1]->MainSpeed = 60* * 0.1
  1: 0x007D [0x1F] MOVE_ENTITY: EventEntity moves to X=-51.398*, Z=86.290*, Y=8.199*
  2: 0x0085 [0x1F] MOVE_ENTITY: Update entity position (mode=1)
  3: 0x0087 [0x1F] MOVE_ENTITY: EventEntity moves to X=-59.228*, Z=88.745*, Y=8.199*
  4: 0x008F [0x1F] MOVE_ENTITY: Update entity position (mode=1)
  5: 0x0091 [0x1F] MOVE_ENTITY: EventEntity moves to X=-56.600*, Z=92.126*, Y=8.199*
  6: 0x0099 [0x1F] MOVE_ENTITY: Update entity position (mode=1)
  7: 0x009B [0x27] REQ_SET(priority=0x05, entity_id=Chocobo (ID: 17776816/0x010F40B0), tag_num=0x07)
  8: 0x00A2 [0x00] END_REQSTACK()
```

### Event 65535.6

#### Metadata

| Field        | Value    |
|--------------|----------|
| Entrypoint   | 0x00A3   |
| Data Size    | 15 bytes |
| Instructions | 3        |

```
      00 01 02 03 04 05 06 07  08 09 0A 0B 0C 0D 0E 0F
      -- -- -- -- -- -- -- --  -- -- -- -- -- -- -- --
00A0:          37 14 80 15 80  07 80 16 80 80 F8 FF FF     7............
00B0: 7F 00                                             ..              
```

#### Opcodes

```
  0: 0x00A3 [0x37] UPDATE_EVENT_POSITION_AND_DIR: x=-49.559*, z=92.532*, y=8.199*, direction=287.7°*
  1: 0x00AC [0x80] LOAD_WAIT(entity=EventEntity)
  2: 0x00B1 [0x00] END_REQSTACK()
```

### Event 10102

#### Metadata

| Field        | Value   |
|--------------|---------|
| Entrypoint   | 0x00B2  |
| Data Size    | 1 bytes |
| Instructions | 1       |

```
      00 01 02 03 04 05 06 07  08 09 0A 0B 0C 0D 0E 0F
      -- -- -- -- -- -- -- --  -- -- -- -- -- -- -- --
00B0:       00                                            .             
```

#### Opcodes

```
  0: 0x00B2 [0x00] END_REQSTACK()
```

### Event 65535.7

#### Metadata

| Field        | Value    |
|--------------|----------|
| Entrypoint   | 0x00B3   |
| Data Size    | 51 bytes |
| Instructions | 6        |

```
      00 01 02 03 04 05 06 07  08 09 0A 0B 0C 0D 0E 0F
      -- -- -- -- -- -- -- --  -- -- -- -- -- -- -- --
00B0:          41 17 80 18 80  03 10 07 10 41 19 80 1A     A........A...
00C0: 80 03 10 08 10 41 1B 80  1C 80 03 10 09 10 41 1D  .....A........A.
00D0: 80 1E 80 03 10 05 10 B6  0D 17 80 05 10 1F 80 07  ................
00E0: 10 08 10 09 10 00                                 ......          
```

#### Opcodes

```
  0: 0x00B3 [0x41] Work_Zone[7] = Work_Zone[3] (bits 0*-2*)
  1: 0x00BC [0x41] Work_Zone[8] = Work_Zone[3] (bits 3*-5*)
  2: 0x00C5 [0x41] Work_Zone[9] = Work_Zone[3] (bits 6*-8*)
  3: 0x00CE [0x41] Work_Zone[5] = Work_Zone[3] (bits 9*-11*)
  4: 0x00D7 [0xB6] ENTITY_APPEARANCE_HANDLER(case=Look with Render flags, race=0*, face=Work_Zone[5], head=1*, body=Work_Zone[7], hands=Work_Zone[8], render_flags=0x1009)
  5: 0x00E5 [0x00] END_REQSTACK()
```

### Event 65535.8

#### Metadata

| Field        | Value    |
|--------------|----------|
| Entrypoint   | 0x00E6   |
| Data Size    | 10 bytes |
| Instructions | 2        |

```
      00 01 02 03 04 05 06 07  08 09 0A 0B 0C 0D 0E 0F
      -- -- -- -- -- -- -- --  -- -- -- -- -- -- -- --
00E0:                   37 20  80 21 80 22 80 23 80 00        7 .!.".#..
```

#### Opcodes

```
  0: 0x00E6 [0x37] UPDATE_EVENT_POSITION_AND_DIR: x=-345.043*, z=-54.850*, y=-0.538*, direction=174.6°*
  1: 0x00EF [0x00] END_REQSTACK()
```

### Event 65535.9

#### Metadata

| Field        | Value    |
|--------------|----------|
| Entrypoint   | 0x00F0   |
| Data Size    | 14 bytes |
| Instructions | 4        |

```
      00 01 02 03 04 05 06 07  08 09 0A 0B 0C 0D 0E 0F
      -- -- -- -- -- -- -- --  -- -- -- -- -- -- -- --
00F0: 32 24 80 1F 00 25 80 26  80 27 80 1F 01 00        2$...%.&.'....  
```

#### Opcodes

```
  0: 0x00F0 [0x32] ExtData[1]->MainSpeed = 27* * 0.1
  1: 0x00F3 [0x1F] MOVE_ENTITY: EventEntity moves to X=-351.274*, Z=-54.653*, Y=-0.718*
  2: 0x00FB [0x1F] MOVE_ENTITY: Update entity position (mode=1)
  3: 0x00FD [0x00] END_REQSTACK()
```

### Event 65535.10

#### Metadata

| Field        | Value    |
|--------------|----------|
| Entrypoint   | 0x00FE   |
| Data Size    | 24 bytes |
| Instructions | 6        |

```
      00 01 02 03 04 05 06 07  08 09 0A 0B 0C 0D 0E 0F
      -- -- -- -- -- -- -- --  -- -- -- -- -- -- -- --
00F0:                                            32 28                2(
0100: 80 1F 00 29 80 2A 80 2B  80 1F 01 1F 00 2C 80 2D  ...).*.+.....,.-
0110: 80 2E 80 1F 01 00                                 ......          
```

#### Opcodes

```
  0: 0x00FE [0x32] ExtData[1]->MainSpeed = 70* * 0.1
  1: 0x0101 [0x1F] MOVE_ENTITY: EventEntity moves to X=-366.385*, Z=-56.791*, Y=0.494*
  2: 0x0109 [0x1F] MOVE_ENTITY: Update entity position (mode=1)
  3: 0x010B [0x1F] MOVE_ENTITY: EventEntity moves to X=-366.317*, Z=-57.229*, Y=0.468*
  4: 0x0113 [0x1F] MOVE_ENTITY: Update entity position (mode=1)
  5: 0x0115 [0x00] END_REQSTACK()
```

### Event 65535.11

#### Metadata

| Field        | Value    |
|--------------|----------|
| Entrypoint   | 0x0116   |
| Data Size    | 24 bytes |
| Instructions | 6        |

```
      00 01 02 03 04 05 06 07  08 09 0A 0B 0C 0D 0E 0F
      -- -- -- -- -- -- -- --  -- -- -- -- -- -- -- --
0110:                   32 28  80 1F 00 2F 80 30 80 31        2(.../.0.1
0120: 80 1F 01 1F 00 32 80 33  80 34 80 1F 01 00        .....2.3.4....  
```

#### Opcodes

```
  0: 0x0116 [0x32] ExtData[1]->MainSpeed = 70* * 0.1
  1: 0x0119 [0x1F] MOVE_ENTITY: EventEntity moves to X=-378.057*, Z=-50.262*, Y=0.490*
  2: 0x0121 [0x1F] MOVE_ENTITY: Update entity position (mode=1)
  3: 0x0123 [0x1F] MOVE_ENTITY: EventEntity moves to X=-378.125*, Z=-49.600*, Y=0.451*
  4: 0x012B [0x1F] MOVE_ENTITY: Update entity position (mode=1)
  5: 0x012D [0x00] END_REQSTACK()
```

### Event 65535.12

#### Metadata

| Field        | Value    |
|--------------|----------|
| Entrypoint   | 0x012E   |
| Data Size    | 64 bytes |
| Instructions | 14       |

```
      00 01 02 03 04 05 06 07  08 09 0A 0B 0C 0D 0E 0F
      -- -- -- -- -- -- -- --  -- -- -- -- -- -- -- --
0120:                                            37 35                75
0130: 80 36 80 37 80 38 80 80  F8 FF FF 7F 32 28 80 1F  .6.7.8......2(..
0140: 00 39 80 3A 80 3B 80 1F  01 1F 00 3C 80 3D 80 3E  .9.:.;.....<.=.>
0150: 80 1F 01 1C 04 80 1F 00  3F 80 40 80 41 80 1F 01  ........?.@.A...
0160: 1F 00 42 80 43 80 44 80  1F 01 1C 04 80 00        ..B.C.D.......  
```

#### Opcodes

```
  0: 0x012E [0x37] UPDATE_EVENT_POSITION_AND_DIR: x=-351.350*, z=-65.377*, y=0.495*, direction=157.4°*
  1: 0x0137 [0x80] LOAD_WAIT(entity=EventEntity)
  2: 0x013C [0x32] ExtData[1]->MainSpeed = 70* * 0.1
  3: 0x013F [0x1F] MOVE_ENTITY: EventEntity moves to X=-355.412*, Z=-65.858*, Y=0.501*
  4: 0x0147 [0x1F] MOVE_ENTITY: Update entity position (mode=1)
  5: 0x0149 [0x1F] MOVE_ENTITY: EventEntity moves to X=-355.676*, Z=-65.505*, Y=0.445*
  6: 0x0151 [0x1F] MOVE_ENTITY: Update entity position (mode=1)
  7: 0x0153 [0x1C] WAIT(60* ticks)
  8: 0x0156 [0x1F] MOVE_ENTITY: EventEntity moves to X=-361.011*, Z=-66.069*, Y=0.523*
  9: 0x015E [0x1F] MOVE_ENTITY: Update entity position (mode=1)
 10: 0x0160 [0x1F] MOVE_ENTITY: EventEntity moves to X=-361.071*, Z=-65.631*, Y=0.563*
 11: 0x0168 [0x1F] MOVE_ENTITY: Update entity position (mode=1)
 12: 0x016A [0x1C] WAIT(60* ticks)
 13: 0x016D [0x00] END_REQSTACK()
```

### Event 65535.13

#### Metadata

| Field        | Value    |
|--------------|----------|
| Entrypoint   | 0x016E   |
| Data Size    | 24 bytes |
| Instructions | 6        |

```
      00 01 02 03 04 05 06 07  08 09 0A 0B 0C 0D 0E 0F
      -- -- -- -- -- -- -- --  -- -- -- -- -- -- -- --
0160:                                            32 28                2(
0170: 80 1F 00 45 80 46 80 47  80 1F 01 1F 00 48 80 49  ...E.F.G.....H.I
0180: 80 4A 80 1F 01 00                                 .J....          
```

#### Opcodes

```
  0: 0x016E [0x32] ExtData[1]->MainSpeed = 70* * 0.1
  1: 0x0171 [0x1F] MOVE_ENTITY: EventEntity moves to X=-368.536*, Z=-65.650*, Y=0.440*
  2: 0x0179 [0x1F] MOVE_ENTITY: Update entity position (mode=1)
  3: 0x017B [0x1F] MOVE_ENTITY: EventEntity moves to X=-368.710*, Z=-65.333*, Y=0.432*
  4: 0x0183 [0x1F] MOVE_ENTITY: Update entity position (mode=1)
  5: 0x0185 [0x00] END_REQSTACK()
```

### Event 65535.14

#### Metadata

| Field        | Value    |
|--------------|----------|
| Entrypoint   | 0x0186   |
| Data Size    | 10 bytes |
| Instructions | 2        |

```
      00 01 02 03 04 05 06 07  08 09 0A 0B 0C 0D 0E 0F
      -- -- -- -- -- -- -- --  -- -- -- -- -- -- -- --
0180:                   37 4B  80 4C 80 4D 80 4E 80 00        7K.L.M.N..
```

#### Opcodes

```
  0: 0x0186 [0x37] UPDATE_EVENT_POSITION_AND_DIR: x=-47.200*, z=96.120*, y=7.989*, direction=166.5°*
  1: 0x018F [0x00] END_REQSTACK()
```

### Event 65535.15

#### Metadata

| Field        | Value    |
|--------------|----------|
| Entrypoint   | 0x0190   |
| Data Size    | 56 bytes |
| Instructions | 8        |

```
      00 01 02 03 04 05 06 07  08 09 0A 0B 0C 0D 0E 0F
      -- -- -- -- -- -- -- --  -- -- -- -- -- -- -- --
0190: 32 24 80 1F 00 4F 80 50  80 07 80 1F 01 1E B1 40  2$...O.P.......@
01A0: 0F 01 1C 51 80 45 52 80  F0 FF FF 7F F0 FF FF 7F  ...Q.ER.........
01B0: 6E 61 6B 32 17 80 9F 53  80 B0 40 0F 01 B0 40 0F  nak2...S..@...@.
01C0: 01 6D 61 69 6E 17 80 00                           .main...        
```

#### Opcodes

```
  0: 0x0190 [0x32] ExtData[1]->MainSpeed = 27* * 0.1
  1: 0x0193 [0x1F] MOVE_ENTITY: EventEntity moves to X=-50.656*, Z=96.182*, Y=8.199*
  2: 0x019B [0x1F] MOVE_ENTITY: Update entity position (mode=1)
  3: 0x019D [0x1E] EventEntity looks at Chocobo (ID: 17776817/0x010F40B1) and starts talking
  4: 0x01A2 [0x1C] WAIT(30* ticks)
  5: 0x01A5 [0x45] LOAD_SCHEDULED_TASK: Load scheduler "nak2" with entities [LocalPlayer, LocalPlayer], work=[144*, 0*]
  6: 0x01B6 [0x9F] LOAD_SCHEDULED_TASK_ALT: Load scheduler "main" with entities [Chocobo (ID: 17776816/0x010F40B0), Chocobo (ID: 17776816/0x010F40B0)], work=[251*, 0*]
  7: 0x01C7 [0x00] END_REQSTACK()
```

### Event 65535.16

#### Metadata

| Field        | Value    |
|--------------|----------|
| Entrypoint   | 0x01C8   |
| Data Size    | 10 bytes |
| Instructions | 2        |

```
      00 01 02 03 04 05 06 07  08 09 0A 0B 0C 0D 0E 0F
      -- -- -- -- -- -- -- --  -- -- -- -- -- -- -- --
01C0:                          37 54 80 55 80 56 80 57          7T.U.V.W
01D0: 80 00                                             ..              
```

#### Opcodes

```
  0: 0x01C8 [0x37] UPDATE_EVENT_POSITION_AND_DIR: x=18.610*, z=-745.191*, y=-5.862*, direction=261.9°*
  1: 0x01D1 [0x00] END_REQSTACK()
```

### Event 65535.17

#### Metadata

| Field        | Value    |
|--------------|----------|
| Entrypoint   | 0x01D2   |
| Data Size    | 24 bytes |
| Instructions | 6        |

```
      00 01 02 03 04 05 06 07  08 09 0A 0B 0C 0D 0E 0F
      -- -- -- -- -- -- -- --  -- -- -- -- -- -- -- --
01D0:       32 28 80 1F 00 58  80 59 80 5A 80 1F 01 1F    2(...X.Y.Z....
01E0: 00 5B 80 5C 80 5D 80 1F  01 00                    .[.\.]....      
```

#### Opcodes

```
  0: 0x01D2 [0x32] ExtData[1]->MainSpeed = 70* * 0.1
  1: 0x01D5 [0x1F] MOVE_ENTITY: EventEntity moves to X=19.582*, Z=-719.554*, Y=-4.058*
  2: 0x01DD [0x1F] MOVE_ENTITY: Update entity position (mode=1)
  3: 0x01DF [0x1F] MOVE_ENTITY: EventEntity moves to X=13.935*, Z=-706.562*, Y=-3.003*
  4: 0x01E7 [0x1F] MOVE_ENTITY: Update entity position (mode=1)
  5: 0x01E9 [0x00] END_REQSTACK()
```

### Event 65535.18

#### Metadata

| Field        | Value    |
|--------------|----------|
| Entrypoint   | 0x01EA   |
| Data Size    | 54 bytes |
| Instructions | 12       |

```
      00 01 02 03 04 05 06 07  08 09 0A 0B 0C 0D 0E 0F
      -- -- -- -- -- -- -- --  -- -- -- -- -- -- -- --
01E0:                                32 28 80 1F 00 5E            2(...^
01F0: 80 5F 80 60 80 1F 01 1F  00 61 80 62 80 63 80 1F  ._.`.....a.b.c..
0200: 01 1F 00 64 80 65 80 66  80 1F 01 1F 00 67 80 68  ...d.e.f.....g.h
0210: 80 69 80 1F 01 1F 00 6A  80 6B 80 6C 80 1F 01 00  .i.....j.k.l....
```

#### Opcodes

```
  0: 0x01EA [0x32] ExtData[1]->MainSpeed = 70* * 0.1
  1: 0x01ED [0x1F] MOVE_ENTITY: EventEntity moves to X=9.872*, Z=-704.751*, Y=-2.965*
  2: 0x01F5 [0x1F] MOVE_ENTITY: Update entity position (mode=1)
  3: 0x01F7 [0x1F] MOVE_ENTITY: EventEntity moves to X=4.434*, Z=-701.594*, Y=-3.754*
  4: 0x01FF [0x1F] MOVE_ENTITY: Update entity position (mode=1)
  5: 0x0201 [0x1F] MOVE_ENTITY: EventEntity moves to X=-8.138*, Z=-699.547*, Y=-3.294*
  6: 0x0209 [0x1F] MOVE_ENTITY: Update entity position (mode=1)
  7: 0x020B [0x1F] MOVE_ENTITY: EventEntity moves to X=-15.567*, Z=-694.380*, Y=-3.321*
  8: 0x0213 [0x1F] MOVE_ENTITY: Update entity position (mode=1)
  9: 0x0215 [0x1F] MOVE_ENTITY: EventEntity moves to X=-21.692*, Z=-685.077*, Y=-3.541*
 10: 0x021D [0x1F] MOVE_ENTITY: Update entity position (mode=1)
 11: 0x021F [0x00] END_REQSTACK()
```

### Event 65535.19

#### Metadata

| Field        | Value    |
|--------------|----------|
| Entrypoint   | 0x0220   |
| Data Size    | 10 bytes |
| Instructions | 2        |

```
      00 01 02 03 04 05 06 07  08 09 0A 0B 0C 0D 0E 0F
      -- -- -- -- -- -- -- --  -- -- -- -- -- -- -- --
0220: 37 6D 80 6E 80 6F 80 70  80 00                    7m.n.o.p..      
```

#### Opcodes

```
  0: 0x0220 [0x37] UPDATE_EVENT_POSITION_AND_DIR: x=270.498*, z=-246.654*, y=-32.203*, direction=133.5°*
  1: 0x0229 [0x00] END_REQSTACK()
```

### Event 65535.20

#### Metadata

| Field        | Value    |
|--------------|----------|
| Entrypoint   | 0x022A   |
| Data Size    | 14 bytes |
| Instructions | 4        |

```
      00 01 02 03 04 05 06 07  08 09 0A 0B 0C 0D 0E 0F
      -- -- -- -- -- -- -- --  -- -- -- -- -- -- -- --
0220:                                32 24 80 1F 00 71            2$...q
0230: 80 72 80 73 80 1F 01 00                           .r.s....        
```

#### Opcodes

```
  0: 0x022A [0x32] ExtData[1]->MainSpeed = 27* * 0.1
  1: 0x022D [0x1F] MOVE_ENTITY: EventEntity moves to X=268.204*, Z=-250.074*, Y=-31.550*
  2: 0x0235 [0x1F] MOVE_ENTITY: Update entity position (mode=1)
  3: 0x0237 [0x00] END_REQSTACK()
```

### Event 65535.21

#### Metadata

| Field        | Value    |
|--------------|----------|
| Entrypoint   | 0x0238   |
| Data Size    | 74 bytes |
| Instructions | 16       |

```
      00 01 02 03 04 05 06 07  08 09 0A 0B 0C 0D 0E 0F
      -- -- -- -- -- -- -- --  -- -- -- -- -- -- -- --
0230:                          32 28 80 1F 00 74 80 75          2(...t.u
0240: 80 76 80 1F 01 1F 00 77  80 78 80 79 80 1F 01 1F  .v.....w.x.y....
0250: 00 7A 80 7B 80 7C 80 1F  01 1F 00 7D 80 7E 80 7F  .z.{.|.....}.~..
0260: 80 1F 01 1F 00 80 80 81  80 82 80 1F 01 1F 00 83  ................
0270: 80 84 80 85 80 1F 01 1F  00 86 80 87 80 88 80 1F  ................
0280: 01 00                                             ..              
```

#### Opcodes

```
  0: 0x0238 [0x32] ExtData[1]->MainSpeed = 70* * 0.1
  1: 0x023B [0x1F] MOVE_ENTITY: EventEntity moves to X=272.810*, Z=-255.179*, Y=-31.157*
  2: 0x0243 [0x1F] MOVE_ENTITY: Update entity position (mode=1)
  3: 0x0245 [0x1F] MOVE_ENTITY: EventEntity moves to X=272.731*, Z=-264.083*, Y=-31.059*
  4: 0x024D [0x1F] MOVE_ENTITY: Update entity position (mode=1)
  5: 0x024F [0x1F] MOVE_ENTITY: EventEntity moves to X=268.295*, Z=-270.732*, Y=-31.347*
  6: 0x0257 [0x1F] MOVE_ENTITY: Update entity position (mode=1)
  7: 0x0259 [0x1F] MOVE_ENTITY: EventEntity moves to X=261.632*, Z=-274.411*, Y=-30.218*
  8: 0x0261 [0x1F] MOVE_ENTITY: Update entity position (mode=1)
  9: 0x0263 [0x1F] MOVE_ENTITY: EventEntity moves to X=254.387*, Z=-275.107*, Y=-30.545*
 10: 0x026B [0x1F] MOVE_ENTITY: Update entity position (mode=1)
 11: 0x026D [0x1F] MOVE_ENTITY: EventEntity moves to X=250.274*, Z=-272.986*, Y=-30.614*
 12: 0x0275 [0x1F] MOVE_ENTITY: Update entity position (mode=1)
 13: 0x0277 [0x1F] MOVE_ENTITY: EventEntity moves to X=250.556*, Z=-271.809*, Y=-30.179*
 14: 0x027F [0x1F] MOVE_ENTITY: Update entity position (mode=1)
 15: 0x0281 [0x00] END_REQSTACK()
```

### Event 65535.22

#### Metadata

| Field        | Value    |
|--------------|----------|
| Entrypoint   | 0x0282   |
| Data Size    | 10 bytes |
| Instructions | 2        |

```
      00 01 02 03 04 05 06 07  08 09 0A 0B 0C 0D 0E 0F
      -- -- -- -- -- -- -- --  -- -- -- -- -- -- -- --
0280:       37 89 80 8A 80 17  80 8B 80 00                7.........    
```

#### Opcodes

```
  0: 0x0282 [0x37] UPDATE_EVENT_POSITION_AND_DIR: x=-48.406*, z=108.115*, y=0.000*, direction=327.3°*
  1: 0x028B [0x00] END_REQSTACK()
```

### Event 65535.23

#### Metadata

| Field        | Value    |
|--------------|----------|
| Entrypoint   | 0x028C   |
| Data Size    | 24 bytes |
| Instructions | 6        |

```
      00 01 02 03 04 05 06 07  08 09 0A 0B 0C 0D 0E 0F
      -- -- -- -- -- -- -- --  -- -- -- -- -- -- -- --
0280:                                      32 8C 80 1F              2...
0290: 00 8D 80 8E 80 17 80 1F  01 4B B0 40 0F 01 8F 80  .........K.@....
02A0: 1C 51 80 00                                       .Q..            
```

#### Opcodes

```
  0: 0x028C [0x32] ExtData[1]->MainSpeed = 20* * 0.1
  1: 0x028F [0x1F] MOVE_ENTITY: EventEntity moves to X=-45.476*, Z=110.191*, Y=0.000*
  2: 0x0297 [0x1F] MOVE_ENTITY: Update entity position (mode=1)
  3: 0x0299 [0x4B] UPDATE_ENTITY_YAW(entity=Chocobo (ID: 17776816/0x010F40B0), yaw=0.3°*)
  4: 0x02A0 [0x1C] WAIT(30* ticks)
  5: 0x02A3 [0x00] END_REQSTACK()
```

### Event 65535.24

#### Metadata

| Field        | Value    |
|--------------|----------|
| Entrypoint   | 0x02A4   |
| Data Size    | 41 bytes |
| Instructions | 7        |

```
      00 01 02 03 04 05 06 07  08 09 0A 0B 0C 0D 0E 0F
      -- -- -- -- -- -- -- --  -- -- -- -- -- -- -- --
02A0:             32 28 80 1F  00 90 80 91 80 17 80 1F      2(..........
02B0: 01 4A B5 40 0F 01 B0 40  0F 01 4A B1 40 0F 01 B0  .J.@...@..J.@...
02C0: 40 0F 01 37 92 80 93 80  94 80 95 80 00           @..7.........   
```

#### Opcodes

```
  0: 0x02A4 [0x32] ExtData[1]->MainSpeed = 70* * 0.1
  1: 0x02A7 [0x1F] MOVE_ENTITY: EventEntity moves to X=-47.888*, Z=114.638*, Y=0.000*
  2: 0x02AF [0x1F] MOVE_ENTITY: Update entity position (mode=1)
  3: 0x02B1 [0x4A] Finbarr (ID: 17776821/0x010F40B5) looks at Chocobo (ID: 17776816/0x010F40B0)
  4: 0x02BA [0x4A] Chocobo (ID: 17776817/0x010F40B1) looks at Chocobo (ID: 17776816/0x010F40B0)
  5: 0x02C3 [0x37] UPDATE_EVENT_POSITION_AND_DIR: x=-63.445*, z=13.452*, y=1.000*, direction=141.9°*
  6: 0x02CC [0x00] END_REQSTACK()
```

### Event 65535.25

#### Metadata

| Field        | Value    |
|--------------|----------|
| Entrypoint   | 0x02CD   |
| Data Size    | 14 bytes |
| Instructions | 4        |

```
      00 01 02 03 04 05 06 07  08 09 0A 0B 0C 0D 0E 0F
      -- -- -- -- -- -- -- --  -- -- -- -- -- -- -- --
02C0:                                         32 28 80               2(.
02D0: 1F 00 96 80 97 80 94 80  1F 01 00                 ...........     
```

#### Opcodes

```
  0: 0x02CD [0x32] ExtData[1]->MainSpeed = 70* * 0.1
  1: 0x02D0 [0x1F] MOVE_ENTITY: EventEntity moves to X=-54.763*, Z=16.141*, Y=1.000*
  2: 0x02D8 [0x1F] MOVE_ENTITY: Update entity position (mode=1)
  3: 0x02DA [0x00] END_REQSTACK()
```

### Event 65535.26

#### Metadata

| Field        | Value    |
|--------------|----------|
| Entrypoint   | 0x02DB   |
| Data Size    | 10 bytes |
| Instructions | 2        |

```
      00 01 02 03 04 05 06 07  08 09 0A 0B 0C 0D 0E 0F
      -- -- -- -- -- -- -- --  -- -- -- -- -- -- -- --
02D0:                                   37 98 80 99 80             7....
02E0: 17 80 9A 80 00                                    .....           
```

#### Opcodes

```
  0: 0x02DB [0x37] UPDATE_EVENT_POSITION_AND_DIR: x=-14.662*, z=0.650*, y=0.000*, direction=241.3°*
  1: 0x02E4 [0x00] END_REQSTACK()
```

### Event 65535.27

#### Metadata

| Field        | Value    |
|--------------|----------|
| Entrypoint   | 0x02E5   |
| Data Size    | 28 bytes |
| Instructions | 6        |

```
      00 01 02 03 04 05 06 07  08 09 0A 0B 0C 0D 0E 0F
      -- -- -- -- -- -- -- --  -- -- -- -- -- -- -- --
02E0:                37 9B 80  9C 80 17 80 9D 80 80 F8       7..........
02F0: FF FF 7F 32 8C 80 1F 00  9E 80 9F 80 17 80 1F 01  ...2............
0300: 00                                                .               
```

#### Opcodes

```
  0: 0x02E5 [0x37] UPDATE_EVENT_POSITION_AND_DIR: x=-74.087*, z=-116.801*, y=0.000*, direction=286.1°*
  1: 0x02EE [0x80] LOAD_WAIT(entity=EventEntity)
  2: 0x02F3 [0x32] ExtData[1]->MainSpeed = 20* * 0.1
  3: 0x02F6 [0x1F] MOVE_ENTITY: EventEntity moves to X=-82.973*, Z=-114.550*, Y=0.000*
  4: 0x02FE [0x1F] MOVE_ENTITY: Update entity position (mode=1)
  5: 0x0300 [0x00] END_REQSTACK()
```

### Event 10214

#### Metadata

| Field        | Value   |
|--------------|---------|
| Entrypoint   | 0x0301  |
| Data Size    | 7 bytes |
| Instructions | 2       |

```
      00 01 02 03 04 05 06 07  08 09 0A 0B 0C 0D 0E 0F
      -- -- -- -- -- -- -- --  -- -- -- -- -- -- -- --
0300:    92 01 F8 FF FF 7F 00                            .......        
```

#### Opcodes

```
  0: 0x0301 [0x92] EventEntity->Render.Flags3 ^= 0x01
  1: 0x0307 [0x00] END_REQSTACK()
```

### Event 65535.28

#### Metadata

| Field        | Value    |
|--------------|----------|
| Entrypoint   | 0x0308   |
| Data Size    | 14 bytes |
| Instructions | 4        |

```
      00 01 02 03 04 05 06 07  08 09 0A 0B 0C 0D 0E 0F
      -- -- -- -- -- -- -- --  -- -- -- -- -- -- -- --
0300:                          32 A0 80 1F 00 A1 80 A2          2.......
0310: 80 A3 80 1F 01 00                                 ......          
```

#### Opcodes

```
  0: 0x0308 [0x32] ExtData[1]->MainSpeed = 13* * 0.1
  1: 0x030B [0x1F] MOVE_ENTITY: EventEntity moves to X=-359.624*, Z=-172.245*, Y=-10.002*
  2: 0x0313 [0x1F] MOVE_ENTITY: Update entity position (mode=1)
  3: 0x0315 [0x00] END_REQSTACK()
```

### Event 65535.29

#### Metadata

| Field        | Value    |
|--------------|----------|
| Entrypoint   | 0x0316   |
| Data Size    | 14 bytes |
| Instructions | 4        |

```
      00 01 02 03 04 05 06 07  08 09 0A 0B 0C 0D 0E 0F
      -- -- -- -- -- -- -- --  -- -- -- -- -- -- -- --
0310:                   32 A0  80 1F 00 A4 80 A5 80 A6        2.........
0320: 80 1F 01 00                                       ....            
```

#### Opcodes

```
  0: 0x0316 [0x32] ExtData[1]->MainSpeed = 13* * 0.1
  1: 0x0319 [0x1F] MOVE_ENTITY: EventEntity moves to X=-361.211*, Z=-180.921*, Y=-10.501*
  2: 0x0321 [0x1F] MOVE_ENTITY: Update entity position (mode=1)
  3: 0x0323 [0x00] END_REQSTACK()
```
