# 17776657 - Galmut

## Common Data

| Field            | Value                 |
|------------------|-----------------------|
| Zone             | Upper Jeuno (ID: 244) |
| Block Size       | 1080 bytes            |
| Total Events     | 38                    |
| References Count | 72                    |

## List of Events

| Event ID                   | Entrypoint   |   Size |   Instructions |
|----------------------------|--------------|--------|----------------|
| [65535](#event-65535)      | 0x0000       |      6 |              3 |
| [112](#event-112)          | 0x0006       |      4 |              2 |
| [163](#event-163)          | 0x000A       |     16 |              5 |
| [65535.1](#event-655351)   | 0x001A       |     12 |              3 |
| [65535.2](#event-655352)   | 0x0026       |     12 |              3 |
| [116](#event-116)          | 0x0032       |     12 |              3 |
| [119](#event-119)          | 0x003E       |     10 |              2 |
| [118](#event-118)          | 0x0048       |     12 |              3 |
| [65535.3](#event-655353)   | 0x0054       |     11 |              3 |
| [65535.4](#event-655354)   | 0x005F       |     11 |              3 |
| [117](#event-117)          | 0x006A       |     12 |              3 |
| [202](#event-202)          | 0x0076       |     10 |              2 |
| [65535.5](#event-655355)   | 0x0080       |     30 |              8 |
| [65535.6](#event-655356)   | 0x009E       |     26 |              6 |
| [65535.7](#event-655357)   | 0x00B8       |     17 |              7 |
| [65535.8](#event-655358)   | 0x00C9       |     13 |              4 |
| [152](#event-152)          | 0x00D6       |     10 |              2 |
| [65535.9](#event-655359)   | 0x00E0       |     12 |              4 |
| [65535.10](#event-6553510) | 0x00EC       |     14 |              4 |
| [65535.11](#event-6553511) | 0x00FA       |     12 |              3 |
| [65535.12](#event-6553512) | 0x0106       |     14 |              4 |
| [65535.13](#event-6553513) | 0x0114       |     38 |              7 |
| [65535.14](#event-6553514) | 0x013A       |      9 |              3 |
| [65535.15](#event-6553515) | 0x0143       |     41 |              7 |
| [65535.16](#event-6553516) | 0x016C       |     23 |              5 |
| [65535.17](#event-6553517) | 0x0183       |     10 |              2 |
| [65535.18](#event-6553518) | 0x018D       |     12 |              3 |
| [65535.19](#event-6553519) | 0x0199       |     17 |              5 |
| [65535.20](#event-6553520) | 0x01AA       |     19 |              3 |
| [65535.21](#event-6553521) | 0x01BD       |     19 |              3 |
| [65535.22](#event-6553522) | 0x01D0       |     19 |              3 |
| [65535.23](#event-6553523) | 0x01E3       |     29 |              3 |
| [65535.24](#event-6553524) | 0x0200       |     29 |              3 |
| [65535.25](#event-6553525) | 0x021D       |     29 |              3 |
| [65535.26](#event-6553526) | 0x023A       |     29 |              3 |
| [65535.27](#event-6553527) | 0x0257       |      1 |              1 |
| [65535.28](#event-6553528) | 0x0258       |      9 |              3 |
| [65535.29](#event-6553529) | 0x0261       |     15 |              4 |

## DAT References (imed_data)

|   Index | Hex Value   |   Dec Value |
|---------|-------------|-------------|
|       0 | 0x000D      |          13 |
|       1 | 0xFFFF9BD8  |  4294941656 |
|       2 | 0x1A4BC     |      107708 |
|       3 | 0xFFFFDDA0  |  4294958496 |
|       4 | 0x00D0      |         208 |
|       5 | 0xFFFF9CB4  |  4294941876 |
|       6 | 0x19EB7     |      106167 |
|       7 | 0x07D8      |        2008 |
|       8 | 0x0043      |          67 |
|       9 | 0xFFFEBD9F  |  4294884767 |
|      10 | 0x1AA2B     |      109099 |
|      11 | 0xFFFFFB51  |  4294966097 |
|      12 | 0x025B      |         603 |
|      13 | 0xFFFEA983  |  4294879619 |
|      14 | 0x1A52D     |      107821 |
|      15 | 0xFFFFFB50  |  4294966096 |
|      16 | 0x02DD      |         733 |
|      17 | 0xFFFEC0A1  |  4294885537 |
|      18 | 0x1A470     |      107632 |
|      19 | 0xFFFEA62C  |  4294878764 |
|      20 | 0x1BAAB     |      113323 |
|      21 | 0x0263      |         611 |
|      22 | 0xFFFEA934  |  4294879540 |
|      23 | 0x1B094     |      110740 |
|      24 | 0xFFFFFB46  |  4294966086 |
|      25 | 0xFFFEB645  |  4294882885 |
|      26 | 0x1AD31     |      109873 |
|      27 | 0x003C      |          60 |
|      28 | 0xFFFEC240  |  4294885952 |
|      29 | 0x1A2B3     |      107187 |
|      30 | 0x0251      |         593 |
|      31 | 0xFFFEC9B9  |  4294887865 |
|      32 | 0x1960E     |      103950 |
|      33 | 0xFFFFFF39  |  4294967097 |
|      34 | 0xFFFEC346  |  4294886214 |
|      35 | 0x1A0AE     |      106670 |
|      36 | 0x0AB5      |        2741 |
|      37 | 0xFFFEBDE6  |  4294884838 |
|      38 | 0x1AA33     |      109107 |
|      39 | 0xFFFF325A  |  4294914650 |
|      40 | 0x18EB1     |      102065 |
|      41 | 0x0000      |           0 |
|      42 | 0x0ED6      |        3798 |
|      43 | 0xFFFF4D31  |  4294921521 |
|      44 | 0x19C87     |      105607 |
|      45 | 0x0CCF      |        3279 |
|      46 | 0x0028      |          40 |
|      47 | 0x0004      |           4 |
|      48 | 0x0090      |         144 |
|      49 | 0x0078      |         120 |
|      50 | 0x005A      |          90 |
|      51 | 0xFFFECA8A  |  4294888074 |
|      52 | 0x23250     |      143952 |
|      53 | 0x02C6      |         710 |
|      54 | 0xFFFEDDF6  |  4294893046 |
|      55 | 0x20D8C     |      134540 |
|      56 | 0xFFFF0A0A  |  4294904330 |
|      57 | 0x48B3      |       18611 |
|      58 | 0x03E7      |         999 |
|      59 | 0x0611      |        1553 |
|      60 | 0xFFFEF509  |  4294898953 |
|      61 | 0x38B5      |       14517 |
|      62 | 0xFFFF0931  |  4294904113 |
|      63 | 0x142DD     |       82653 |
|      64 | 0x0A86      |        2694 |
|      65 | 0xFFFEBC48  |  4294884424 |
|      66 | 0x1AA4E     |      109134 |
|      67 | 0x0045      |          69 |
|      68 | 0x003D      |          61 |
|      69 | 0xFFFEC8B3  |  4294887603 |
|      70 | 0x1942D     |      103469 |
|      71 | 0x00B4      |         180 |

## Events

### Event 65535

#### Metadata

| Field        | Value   |
|--------------|---------|
| Entrypoint   | 0x0000  |
| Data Size    | 6 bytes |
| Instructions | 3       |

```
      00 01 02 03 04 05 06 07  08 09 0A 0B 0C 0D 0E 0F
      -- -- -- -- -- -- -- --  -- -- -- -- -- -- -- --
0000: 22 01 32 00 80 00                                 ".2...          
```

#### Opcodes

```
  0: 0x0000 [0x22] ENTITY_HIDE_FLAG(enabled=0x01)
  1: 0x0002 [0x32] ExtData[1]->MainSpeed = 13* * 0.1
  2: 0x0005 [0x00] END_REQSTACK()
```

### Event 112

#### Metadata

| Field        | Value   |
|--------------|---------|
| Entrypoint   | 0x0006  |
| Data Size    | 4 bytes |
| Instructions | 2       |

```
      00 01 02 03 04 05 06 07  08 09 0A 0B 0C 0D 0E 0F
      -- -- -- -- -- -- -- --  -- -- -- -- -- -- -- --
0000:                   1A 0E  00 00                          ....      
```

#### Opcodes

```
  0: 0x0006 [0x1A] CALL_SUBROUTINE(address=0x000E)
  1: 0x0009 [0x00] END_REQSTACK()
```

### Event 163

#### Metadata

| Field        | Value    |
|--------------|----------|
| Entrypoint   | 0x000A   |
| Data Size    | 16 bytes |
| Instructions | 5        |

```
      00 01 02 03 04 05 06 07  08 09 0A 0B 0C 0D 0E 0F
      -- -- -- -- -- -- -- --  -- -- -- -- -- -- -- --
0000:                                1A 0E 00 00 33 01            ....3.
0010: 37 01 80 02 80 03 80 04  80 1B                    7.........      
```

#### Opcodes

```
  0: 0x000A [0x1A] CALL_SUBROUTINE(address=0x000E)
  1: 0x000D [0x00] END_REQSTACK()

SUBROUTINE_000E:
  2: 0x000E [0x33] EventEntity->Render.Flags0 |= 0x200000 // Bit 21 (flag=0x01)
  3: 0x0010 [0x37] UPDATE_EVENT_POSITION_AND_DIR: x=-25.640*, z=107.708*, y=-8.800*, direction=18.3°*
  4: 0x0019 [0x1B] RETURN
```

### Event 65535.1

#### Metadata

| Field        | Value    |
|--------------|----------|
| Entrypoint   | 0x001A   |
| Data Size    | 12 bytes |
| Instructions | 3        |

```
      00 01 02 03 04 05 06 07  08 09 0A 0B 0C 0D 0E 0F
      -- -- -- -- -- -- -- --  -- -- -- -- -- -- -- --
0010:                                33 01 37 05 80 06            3.7...
0020: 80 03 80 07 80 00                                 ......          
```

#### Opcodes

```
  0: 0x001A [0x33] EventEntity->Render.Flags0 |= 0x200000 // Bit 21 (flag=0x01)
  1: 0x001C [0x37] UPDATE_EVENT_POSITION_AND_DIR: x=-25.420*, z=106.167*, y=-8.800*, direction=176.5°*
  2: 0x0025 [0x00] END_REQSTACK()
```

### Event 65535.2

#### Metadata

| Field        | Value    |
|--------------|----------|
| Entrypoint   | 0x0026   |
| Data Size    | 12 bytes |
| Instructions | 3        |

```
      00 01 02 03 04 05 06 07  08 09 0A 0B 0C 0D 0E 0F
      -- -- -- -- -- -- -- --  -- -- -- -- -- -- -- --
0020:                   33 01  37 05 80 06 80 03 80 08        3.7.......
0030: 80 00                                             ..              
```

#### Opcodes

```
  0: 0x0026 [0x33] EventEntity->Render.Flags0 |= 0x200000 // Bit 21 (flag=0x01)
  1: 0x0028 [0x37] UPDATE_EVENT_POSITION_AND_DIR: x=-25.420*, z=106.167*, y=-8.800*, direction=5.9°*
  2: 0x0031 [0x00] END_REQSTACK()
```

### Event 116

#### Metadata

| Field        | Value    |
|--------------|----------|
| Entrypoint   | 0x0032   |
| Data Size    | 12 bytes |
| Instructions | 3        |

```
      00 01 02 03 04 05 06 07  08 09 0A 0B 0C 0D 0E 0F
      -- -- -- -- -- -- -- --  -- -- -- -- -- -- -- --
0030:       37 09 80 0A 80 0B  80 0C 80 22 00 00          7........"..  
```

#### Opcodes

```
  0: 0x0032 [0x37] UPDATE_EVENT_POSITION_AND_DIR: x=-82.529*, z=109.099*, y=-1.199*, direction=53.0°*
  1: 0x003B [0x22] ENTITY_HIDE_FLAG(enabled=0x00)
  2: 0x003D [0x00] END_REQSTACK()
```

### Event 119

#### Metadata

| Field        | Value    |
|--------------|----------|
| Entrypoint   | 0x003E   |
| Data Size    | 10 bytes |
| Instructions | 2        |

```
      00 01 02 03 04 05 06 07  08 09 0A 0B 0C 0D 0E 0F
      -- -- -- -- -- -- -- --  -- -- -- -- -- -- -- --
0030:                                            37 0D                7.
0040: 80 0E 80 0F 80 10 80 00                           ........        
```

#### Opcodes

```
  0: 0x003E [0x37] UPDATE_EVENT_POSITION_AND_DIR: x=-87.677*, z=107.821*, y=-1.200*, direction=64.4°*
  1: 0x0047 [0x00] END_REQSTACK()
```

### Event 118

#### Metadata

| Field        | Value    |
|--------------|----------|
| Entrypoint   | 0x0048   |
| Data Size    | 12 bytes |
| Instructions | 3        |

```
      00 01 02 03 04 05 06 07  08 09 0A 0B 0C 0D 0E 0F
      -- -- -- -- -- -- -- --  -- -- -- -- -- -- -- --
0040:                          37 09 80 0A 80 0B 80 0C          7.......
0050: 80 22 00 00                                       ."..            
```

#### Opcodes

```
  0: 0x0048 [0x37] UPDATE_EVENT_POSITION_AND_DIR: x=-82.529*, z=109.099*, y=-1.199*, direction=53.0°*
  1: 0x0051 [0x22] ENTITY_HIDE_FLAG(enabled=0x00)
  2: 0x0053 [0x00] END_REQSTACK()
```

### Event 65535.3

#### Metadata

| Field        | Value    |
|--------------|----------|
| Entrypoint   | 0x0054   |
| Data Size    | 11 bytes |
| Instructions | 3        |

```
      00 01 02 03 04 05 06 07  08 09 0A 0B 0C 0D 0E 0F
      -- -- -- -- -- -- -- --  -- -- -- -- -- -- -- --
0050:             1F 00 11 80  12 80 0B 80 1F 01 00         ........... 
```

#### Opcodes

```
  0: 0x0054 [0x1F] MOVE_ENTITY: EventEntity moves to X=-81.759*, Z=107.632*, Y=-1.199*
  1: 0x005C [0x1F] MOVE_ENTITY: Update entity position (mode=1)
  2: 0x005E [0x00] END_REQSTACK()
```

### Event 65535.4

#### Metadata

| Field        | Value    |
|--------------|----------|
| Entrypoint   | 0x005F   |
| Data Size    | 11 bytes |
| Instructions | 3        |

```
      00 01 02 03 04 05 06 07  08 09 0A 0B 0C 0D 0E 0F
      -- -- -- -- -- -- -- --  -- -- -- -- -- -- -- --
0050:                                               1F                 .
0060: 00 09 80 0A 80 0B 80 1F  01 00                    ..........      
```

#### Opcodes

```
  0: 0x005F [0x1F] MOVE_ENTITY: EventEntity moves to X=-82.529*, Z=109.099*, Y=-1.199*
  1: 0x0067 [0x1F] MOVE_ENTITY: Update entity position (mode=1)
  2: 0x0069 [0x00] END_REQSTACK()
```

### Event 117

#### Metadata

| Field        | Value    |
|--------------|----------|
| Entrypoint   | 0x006A   |
| Data Size    | 12 bytes |
| Instructions | 3        |

```
      00 01 02 03 04 05 06 07  08 09 0A 0B 0C 0D 0E 0F
      -- -- -- -- -- -- -- --  -- -- -- -- -- -- -- --
0060:                                37 09 80 0A 80 0B            7.....
0070: 80 0C 80 22 00 00                                 ..."..          
```

#### Opcodes

```
  0: 0x006A [0x37] UPDATE_EVENT_POSITION_AND_DIR: x=-82.529*, z=109.099*, y=-1.199*, direction=53.0°*
  1: 0x0073 [0x22] ENTITY_HIDE_FLAG(enabled=0x00)
  2: 0x0075 [0x00] END_REQSTACK()
```

### Event 202

#### Metadata

| Field        | Value    |
|--------------|----------|
| Entrypoint   | 0x0076   |
| Data Size    | 10 bytes |
| Instructions | 2        |

```
      00 01 02 03 04 05 06 07  08 09 0A 0B 0C 0D 0E 0F
      -- -- -- -- -- -- -- --  -- -- -- -- -- -- -- --
0070:                   37 13  80 14 80 0F 80 15 80 00        7.........
```

#### Opcodes

```
  0: 0x0076 [0x37] UPDATE_EVENT_POSITION_AND_DIR: x=-88.532*, z=113.323*, y=-1.200*, direction=53.7°*
  1: 0x007F [0x00] END_REQSTACK()
```

### Event 65535.5

#### Metadata

| Field        | Value    |
|--------------|----------|
| Entrypoint   | 0x0080   |
| Data Size    | 30 bytes |
| Instructions | 8        |

```
      00 01 02 03 04 05 06 07  08 09 0A 0B 0C 0D 0E 0F
      -- -- -- -- -- -- -- --  -- -- -- -- -- -- -- --
0080: 32 00 80 1F 00 16 80 17  80 18 80 1F 01 6F 4A 11  2............oJ.
0090: 40 0F 01 F0 FF FF 7F 6F  76 11 40 0F 01 00        @......ov.@...  
```

#### Opcodes

```
  0: 0x0080 [0x32] ExtData[1]->MainSpeed = 13* * 0.1
  1: 0x0083 [0x1F] MOVE_ENTITY: EventEntity moves to X=-87.756*, Z=110.740*, Y=-1.210*
  2: 0x008B [0x1F] MOVE_ENTITY: Update entity position (mode=1)
  3: 0x008D [0x6F] WAIT_FRAME_DELAY: Yield until WaitTime reaches zero
  4: 0x008E [0x4A] Galmut (ID: 17776657/0x010F4011) looks at LocalPlayer
  5: 0x0097 [0x6F] WAIT_FRAME_DELAY: Yield until WaitTime reaches zero
  6: 0x0098 [0x76] CHECK_ENTITY_RENDER_FLAGS: Wait until Galmut (ID: 17776657/0x010F4011) Render.Flags0 and Render.Flags3 conditions are met
  7: 0x009D [0x00] END_REQSTACK()
```

### Event 65535.6

#### Metadata

| Field        | Value    |
|--------------|----------|
| Entrypoint   | 0x009E   |
| Data Size    | 26 bytes |
| Instructions | 6        |

```
      00 01 02 03 04 05 06 07  08 09 0A 0B 0C 0D 0E 0F
      -- -- -- -- -- -- -- --  -- -- -- -- -- -- -- --
0090:                                            32 00                2.
00A0: 80 1F 00 19 80 1A 80 0F  80 1F 01 4A 11 40 0F 01  ...........J.@..
00B0: F0 FF FF 7F 1C 1B 80 00                           ........        
```

#### Opcodes

```
  0: 0x009E [0x32] ExtData[1]->MainSpeed = 13* * 0.1
  1: 0x00A1 [0x1F] MOVE_ENTITY: EventEntity moves to X=-84.411*, Z=109.873*, Y=-1.200*
  2: 0x00A9 [0x1F] MOVE_ENTITY: Update entity position (mode=1)
  3: 0x00AB [0x4A] Galmut (ID: 17776657/0x010F4011) looks at LocalPlayer
  4: 0x00B4 [0x1C] WAIT(60* ticks)
  5: 0x00B7 [0x00] END_REQSTACK()
```

### Event 65535.7

#### Metadata

| Field        | Value    |
|--------------|----------|
| Entrypoint   | 0x00B8   |
| Data Size    | 17 bytes |
| Instructions | 7        |

```
      00 01 02 03 04 05 06 07  08 09 0A 0B 0C 0D 0E 0F
      -- -- -- -- -- -- -- --  -- -- -- -- -- -- -- --
00B0:                          1F 00 1C 80 1D 80 0B 80          ........
00C0: 1F 01 6F 39 1E 80 6F 70  00                       ..o9..op.       
```

#### Opcodes

```
  0: 0x00B8 [0x1F] MOVE_ENTITY: EventEntity moves to X=-81.344*, Z=107.187*, Y=-1.199*
  1: 0x00C0 [0x1F] MOVE_ENTITY: Update entity position (mode=1)
  2: 0x00C2 [0x6F] WAIT_FRAME_DELAY: Yield until WaitTime reaches zero
  3: 0x00C3 [0x39] SET_ENTITY_DIRECTION(direction=3.3°*)
  4: 0x00C6 [0x6F] WAIT_FRAME_DELAY: Yield until WaitTime reaches zero
  5: 0x00C7 [0x70] WAIT_ENTITY_RENDER_FLAG: Wait while EventEntity->Render.Flags3 bit 2 is set (cancel turn if not)
  6: 0x00C8 [0x00] END_REQSTACK()
```

### Event 65535.8

#### Metadata

| Field        | Value    |
|--------------|----------|
| Entrypoint   | 0x00C9   |
| Data Size    | 13 bytes |
| Instructions | 4        |

```
      00 01 02 03 04 05 06 07  08 09 0A 0B 0C 0D 0E 0F
      -- -- -- -- -- -- -- --  -- -- -- -- -- -- -- --
00C0:                             1F 00 1F 80 20 80 21           .... .!
00D0: 80 1F 01 22 01 00                                 ..."..          
```

#### Opcodes

```
  0: 0x00C9 [0x1F] MOVE_ENTITY: EventEntity moves to X=-79.431*, Z=103.950*, Y=-0.199*
  1: 0x00D1 [0x1F] MOVE_ENTITY: Update entity position (mode=1)
  2: 0x00D3 [0x22] ENTITY_HIDE_FLAG(enabled=0x01)
  3: 0x00D5 [0x00] END_REQSTACK()
```

### Event 152

#### Metadata

| Field        | Value    |
|--------------|----------|
| Entrypoint   | 0x00D6   |
| Data Size    | 10 bytes |
| Instructions | 2        |

```
      00 01 02 03 04 05 06 07  08 09 0A 0B 0C 0D 0E 0F
      -- -- -- -- -- -- -- --  -- -- -- -- -- -- -- --
00D0:                   37 22  80 23 80 0B 80 24 80 00        7".#...$..
```

#### Opcodes

```
  0: 0x00D6 [0x37] UPDATE_EVENT_POSITION_AND_DIR: x=-81.082*, z=106.670*, y=-1.199*, direction=240.9°*
  1: 0x00DF [0x00] END_REQSTACK()
```

### Event 65535.9

#### Metadata

| Field        | Value    |
|--------------|----------|
| Entrypoint   | 0x00E0   |
| Data Size    | 12 bytes |
| Instructions | 4        |

```
      00 01 02 03 04 05 06 07  08 09 0A 0B 0C 0D 0E 0F
      -- -- -- -- -- -- -- --  -- -- -- -- -- -- -- --
00E0: 1F 00 25 80 26 80 0B 80  1F 01 6F 00              ..%.&.....o.    
```

#### Opcodes

```
  0: 0x00E0 [0x1F] MOVE_ENTITY: EventEntity moves to X=-82.458*, Z=109.107*, Y=-1.199*
  1: 0x00E8 [0x1F] MOVE_ENTITY: Update entity position (mode=1)
  2: 0x00EA [0x6F] WAIT_FRAME_DELAY: Yield until WaitTime reaches zero
  3: 0x00EB [0x00] END_REQSTACK()
```

### Event 65535.10

#### Metadata

| Field        | Value    |
|--------------|----------|
| Entrypoint   | 0x00EC   |
| Data Size    | 14 bytes |
| Instructions | 4        |

```
      00 01 02 03 04 05 06 07  08 09 0A 0B 0C 0D 0E 0F
      -- -- -- -- -- -- -- --  -- -- -- -- -- -- -- --
00E0:                                      33 00 37 27              3.7'
00F0: 80 28 80 29 80 2A 80 22  00 00                    .(.).*."..      
```

#### Opcodes

```
  0: 0x00EC [0x33] EventEntity->Render.Flags0 &= ~ 0x200000 // Bit 21 (flag=0x00)
  1: 0x00EE [0x37] UPDATE_EVENT_POSITION_AND_DIR: x=-52.646*, z=102.065*, y=0.000*, direction=333.8°*
  2: 0x00F7 [0x22] ENTITY_HIDE_FLAG(enabled=0x00)
  3: 0x00F9 [0x00] END_REQSTACK()
```

### Event 65535.11

#### Metadata

| Field        | Value    |
|--------------|----------|
| Entrypoint   | 0x00FA   |
| Data Size    | 12 bytes |
| Instructions | 3        |

```
      00 01 02 03 04 05 06 07  08 09 0A 0B 0C 0D 0E 0F
      -- -- -- -- -- -- -- --  -- -- -- -- -- -- -- --
00F0:                                33 00 37 2B 80 2C            3.7+.,
0100: 80 29 80 2D 80 00                                 .).-..          
```

#### Opcodes

```
  0: 0x00FA [0x33] EventEntity->Render.Flags0 &= ~ 0x200000 // Bit 21 (flag=0x00)
  1: 0x00FC [0x37] UPDATE_EVENT_POSITION_AND_DIR: x=-45.775*, z=105.607*, y=0.000*, direction=288.2°*
  2: 0x0105 [0x00] END_REQSTACK()
```

### Event 65535.12

#### Metadata

| Field        | Value    |
|--------------|----------|
| Entrypoint   | 0x0106   |
| Data Size    | 14 bytes |
| Instructions | 4        |

```
      00 01 02 03 04 05 06 07  08 09 0A 0B 0C 0D 0E 0F
      -- -- -- -- -- -- -- --  -- -- -- -- -- -- -- --
0100:                   32 2E  80 1F 00 2B 80 2C 80 29        2....+.,.)
0110: 80 1F 01 00                                       ....            
```

#### Opcodes

```
  0: 0x0106 [0x32] ExtData[1]->MainSpeed = 40* * 0.1
  1: 0x0109 [0x1F] MOVE_ENTITY: EventEntity moves to X=-45.775*, Z=105.607*, Y=0.000*
  2: 0x0111 [0x1F] MOVE_ENTITY: Update entity position (mode=1)
  3: 0x0113 [0x00] END_REQSTACK()
```

### Event 65535.13

#### Metadata

| Field        | Value    |
|--------------|----------|
| Entrypoint   | 0x0114   |
| Data Size    | 38 bytes |
| Instructions | 7        |

```
      00 01 02 03 04 05 06 07  08 09 0A 0B 0C 0D 0E 0F
      -- -- -- -- -- -- -- --  -- -- -- -- -- -- -- --
0110:             06 00 00 02  00 00 2F 80 01 39 01 45      ....../..9.E
0120: 30 80 F8 FF FF 7F F8 FF  FF 7F 73 65 30 30 29 80  0.........se00).
0130: 1C 31 80 0B 00 00 01 17  01 00                    .1........      
```

#### Opcodes

```
  0: 0x0114 [0x06] ExtData[1]->WorkLocal[0] = 0
  1: 0x0117 [0x02] IF !(ExtData[1]->WorkLocal[0] == 4*) GOTO 0x0139
  2: 0x011F [0x45] LOAD_SCHEDULED_TASK: Load scheduler "se00" with entities [EventEntity, EventEntity], work=[144*, 0*]
  3: 0x0130 [0x1C] WAIT(120* ticks)
  4: 0x0133 [0x0B] ExtData[1]->WorkLocal[0]++
  5: 0x0136 [0x01] GOTO 0x0117
  6: 0x0139 [0x00] END_REQSTACK()
```

### Event 65535.14

#### Metadata

| Field        | Value   |
|--------------|---------|
| Entrypoint   | 0x013A  |
| Data Size    | 9 bytes |
| Instructions | 3       |

```
      00 01 02 03 04 05 06 07  08 09 0A 0B 0C 0D 0E 0F
      -- -- -- -- -- -- -- --  -- -- -- -- -- -- -- --
0130:                                1C 32 80 1E F0 FF            .2....
0140: FF 7F 00                                          ...             
```

#### Opcodes

```
  0: 0x013A [0x1C] WAIT(90* ticks)
  1: 0x013D [0x1E] EventEntity looks at LocalPlayer and starts talking
  2: 0x0142 [0x00] END_REQSTACK()
```

### Event 65535.15

#### Metadata

| Field        | Value    |
|--------------|----------|
| Entrypoint   | 0x0143   |
| Data Size    | 41 bytes |
| Instructions | 7        |

```
      00 01 02 03 04 05 06 07  08 09 0A 0B 0C 0D 0E 0F
      -- -- -- -- -- -- -- --  -- -- -- -- -- -- -- --
0140:          3B F8 FF FF 7F  01 00 02 00 03 00 3A F8     ;..........:.
0150: FF FF 7F 04 00 37 33 80  34 80 29 80 35 80 32 00  .....73.4.).5.2.
0160: 80 1F 00 36 80 37 80 29  80 1F 01 00              ...6.7.)....    
```

#### Opcodes

```
  0: 0x0143 [0x3B] GET_ENTITY_POSITION(entity=EventEntity, x_destination=ExtData[1]->WorkLocal[1], y_destination=ExtData[1]->WorkLocal[2], z_destination=ExtData[1]->WorkLocal[3])
  1: 0x014E [0x3A] CONVERT_YAW_TO_BYTE(entity=EventEntity, result_destination=ExtData[1]->WorkLocal[4])
  2: 0x0155 [0x37] UPDATE_EVENT_POSITION_AND_DIR: x=-79.222*, z=143.952*, y=0.000*, direction=62.4°*
  3: 0x015E [0x32] ExtData[1]->MainSpeed = 13* * 0.1
  4: 0x0161 [0x1F] MOVE_ENTITY: EventEntity moves to X=-74.250*, Z=134.540*, Y=0.000*
  5: 0x0169 [0x1F] MOVE_ENTITY: Update entity position (mode=1)
  6: 0x016B [0x00] END_REQSTACK()
```

### Event 65535.16

#### Metadata

| Field        | Value    |
|--------------|----------|
| Entrypoint   | 0x016C   |
| Data Size    | 23 bytes |
| Instructions | 5        |

```
      00 01 02 03 04 05 06 07  08 09 0A 0B 0C 0D 0E 0F
      -- -- -- -- -- -- -- --  -- -- -- -- -- -- -- --
0160:                                      37 38 80 39              78.9
0170: 80 3A 80 3B 80 32 00 80  1F 00 3C 80 3D 80 3A 80  .:.;.2....<.=.:.
0180: 1F 01 00                                          ...             
```

#### Opcodes

```
  0: 0x016C [0x37] UPDATE_EVENT_POSITION_AND_DIR: x=-62.966*, z=18.611*, y=0.999*, direction=136.5°*
  1: 0x0175 [0x32] ExtData[1]->MainSpeed = 13* * 0.1
  2: 0x0178 [0x1F] MOVE_ENTITY: EventEntity moves to X=-68.343*, Z=14.517*, Y=0.999*
  3: 0x0180 [0x1F] MOVE_ENTITY: Update entity position (mode=1)
  4: 0x0182 [0x00] END_REQSTACK()
```

### Event 65535.17

#### Metadata

| Field        | Value    |
|--------------|----------|
| Entrypoint   | 0x0183   |
| Data Size    | 10 bytes |
| Instructions | 2        |

```
      00 01 02 03 04 05 06 07  08 09 0A 0B 0C 0D 0E 0F
      -- -- -- -- -- -- -- --  -- -- -- -- -- -- -- --
0180:          37 3E 80 3F 80  29 80 40 80 00              7>.?.).@..   
```

#### Opcodes

```
  0: 0x0183 [0x37] UPDATE_EVENT_POSITION_AND_DIR: x=-63.183*, z=82.653*, y=0.000*, direction=236.8°*
  1: 0x018C [0x00] END_REQSTACK()
```

### Event 65535.18

#### Metadata

| Field        | Value    |
|--------------|----------|
| Entrypoint   | 0x018D   |
| Data Size    | 12 bytes |
| Instructions | 3        |

```
      00 01 02 03 04 05 06 07  08 09 0A 0B 0C 0D 0E 0F
      -- -- -- -- -- -- -- --  -- -- -- -- -- -- -- --
0180:                                         37 01 00               7..
0190: 02 00 03 00 04 00 33 00  00                       ......3..       
```

#### Opcodes

```
  0: 0x018D [0x37] UPDATE_EVENT_POSITION_AND_DIR: x=ExtData[1]->WorkLocal[1], z=ExtData[1]->WorkLocal[2], y=ExtData[1]->WorkLocal[3], direction=ExtData[1]->WorkLocal[4]
  1: 0x0196 [0x33] EventEntity->Render.Flags0 &= ~ 0x200000 // Bit 21 (flag=0x00)
  2: 0x0198 [0x00] END_REQSTACK()
```

### Event 65535.19

#### Metadata

| Field        | Value    |
|--------------|----------|
| Entrypoint   | 0x0199   |
| Data Size    | 17 bytes |
| Instructions | 5        |

```
      00 01 02 03 04 05 06 07  08 09 0A 0B 0C 0D 0E 0F
      -- -- -- -- -- -- -- --  -- -- -- -- -- -- -- --
0190:                             32 2E 80 1F 00 41 80           2....A.
01A0: 42 80 0F 80 1F 01 32 00  80 00                    B.....2...      
```

#### Opcodes

```
  0: 0x0199 [0x32] ExtData[1]->MainSpeed = 40* * 0.1
  1: 0x019C [0x1F] MOVE_ENTITY: EventEntity moves to X=-82.872*, Z=109.134*, Y=-1.200*
  2: 0x01A4 [0x1F] MOVE_ENTITY: Update entity position (mode=1)
  3: 0x01A6 [0x32] ExtData[1]->MainSpeed = 13* * 0.1
  4: 0x01A9 [0x00] END_REQSTACK()
```

### Event 65535.20

#### Metadata

| Field        | Value    |
|--------------|----------|
| Entrypoint   | 0x01AA   |
| Data Size    | 19 bytes |
| Instructions | 3        |

```
      00 01 02 03 04 05 06 07  08 09 0A 0B 0C 0D 0E 0F
      -- -- -- -- -- -- -- --  -- -- -- -- -- -- -- --
01A0:                                66 1B 80 F8 FF FF            f.....
01B0: 7F F8 FF FF 7F 74 6C 6B  30 1C 1B 80 00           .....tlk0....   
```

#### Opcodes

```
  0: 0x01AA [0x66] LOAD_EXT_SCHEDULER_MAIN: Load scheduler "tlk0" with entities [EventEntity, EventEntity], work=60*
  1: 0x01B9 [0x1C] WAIT(60* ticks)
  2: 0x01BC [0x00] END_REQSTACK()
```

### Event 65535.21

#### Metadata

| Field        | Value    |
|--------------|----------|
| Entrypoint   | 0x01BD   |
| Data Size    | 19 bytes |
| Instructions | 3        |

```
      00 01 02 03 04 05 06 07  08 09 0A 0B 0C 0D 0E 0F
      -- -- -- -- -- -- -- --  -- -- -- -- -- -- -- --
01B0:                                         66 1B 80               f..
01C0: F8 FF FF 7F F8 FF FF 7F  74 68 6B 31 1C 1B 80 00  ........thk1....
```

#### Opcodes

```
  0: 0x01BD [0x66] LOAD_EXT_SCHEDULER_MAIN: Load scheduler "thk1" with entities [EventEntity, EventEntity], work=60*
  1: 0x01CC [0x1C] WAIT(60* ticks)
  2: 0x01CF [0x00] END_REQSTACK()
```

### Event 65535.22

#### Metadata

| Field        | Value    |
|--------------|----------|
| Entrypoint   | 0x01D0   |
| Data Size    | 19 bytes |
| Instructions | 3        |

```
      00 01 02 03 04 05 06 07  08 09 0A 0B 0C 0D 0E 0F
      -- -- -- -- -- -- -- --  -- -- -- -- -- -- -- --
01D0: 66 1B 80 F8 FF FF 7F F8  FF FF 7F 74 68 6B 32 1C  f..........thk2.
01E0: 32 80 00                                          2..             
```

#### Opcodes

```
  0: 0x01D0 [0x66] LOAD_EXT_SCHEDULER_MAIN: Load scheduler "thk2" with entities [EventEntity, EventEntity], work=60*
  1: 0x01DF [0x1C] WAIT(90* ticks)
  2: 0x01E2 [0x00] END_REQSTACK()
```

### Event 65535.23

#### Metadata

| Field        | Value    |
|--------------|----------|
| Entrypoint   | 0x01E3   |
| Data Size    | 29 bytes |
| Instructions | 3        |

```
      00 01 02 03 04 05 06 07  08 09 0A 0B 0C 0D 0E 0F
      -- -- -- -- -- -- -- --  -- -- -- -- -- -- -- --
01E0:          66 1B 80 F8 FF  FF 7F F8 FF FF 7F 70 61     f..........pa
01F0: 73 30 53 F8 FF FF 7F F8  FF FF 7F 70 61 73 30 00  s0S........pas0.
```

#### Opcodes

```
  0: 0x01E3 [0x66] LOAD_EXT_SCHEDULER_MAIN: Load scheduler "pas0" with entities [EventEntity, EventEntity], work=60*
  1: 0x01F2 [0x53] WAIT_SCHEDULER_TASK: Wait for scheduler "pas0" with entities [EventEntity, EventEntity]
  2: 0x01FF [0x00] END_REQSTACK()
```

### Event 65535.24

#### Metadata

| Field        | Value    |
|--------------|----------|
| Entrypoint   | 0x0200   |
| Data Size    | 29 bytes |
| Instructions | 3        |

```
      00 01 02 03 04 05 06 07  08 09 0A 0B 0C 0D 0E 0F
      -- -- -- -- -- -- -- --  -- -- -- -- -- -- -- --
0200: 66 43 80 F8 FF FF 7F F8  FF FF 7F 73 68 61 30 53  fC.........sha0S
0210: F8 FF FF 7F F8 FF FF 7F  73 68 61 30 00           ........sha0.   
```

#### Opcodes

```
  0: 0x0200 [0x66] LOAD_EXT_SCHEDULER_MAIN: Load scheduler "sha0" with entities [EventEntity, EventEntity], work=69*
  1: 0x020F [0x53] WAIT_SCHEDULER_TASK: Wait for scheduler "sha0" with entities [EventEntity, EventEntity]
  2: 0x021C [0x00] END_REQSTACK()
```

### Event 65535.25

#### Metadata

| Field        | Value    |
|--------------|----------|
| Entrypoint   | 0x021D   |
| Data Size    | 29 bytes |
| Instructions | 3        |

```
      00 01 02 03 04 05 06 07  08 09 0A 0B 0C 0D 0E 0F
      -- -- -- -- -- -- -- --  -- -- -- -- -- -- -- --
0210:                                         66 43 80               fC.
0220: F8 FF FF 7F F8 FF FF 7F  73 68 61 31 53 F8 FF FF  ........sha1S...
0230: 7F F8 FF FF 7F 73 68 61  31 00                    .....sha1.      
```

#### Opcodes

```
  0: 0x021D [0x66] LOAD_EXT_SCHEDULER_MAIN: Load scheduler "sha1" with entities [EventEntity, EventEntity], work=69*
  1: 0x022C [0x53] WAIT_SCHEDULER_TASK: Wait for scheduler "sha1" with entities [EventEntity, EventEntity]
  2: 0x0239 [0x00] END_REQSTACK()
```

### Event 65535.26

#### Metadata

| Field        | Value    |
|--------------|----------|
| Entrypoint   | 0x023A   |
| Data Size    | 29 bytes |
| Instructions | 3        |

```
      00 01 02 03 04 05 06 07  08 09 0A 0B 0C 0D 0E 0F
      -- -- -- -- -- -- -- --  -- -- -- -- -- -- -- --
0230:                                66 44 80 F8 FF FF            fD....
0240: 7F F8 FF FF 7F 77 61 76  30 53 F8 FF FF 7F F8 FF  .....wav0S......
0250: FF 7F 77 61 76 30 00                              ..wav0.         
```

#### Opcodes

```
  0: 0x023A [0x66] LOAD_EXT_SCHEDULER_MAIN: Load scheduler "wav0" with entities [EventEntity, EventEntity], work=61*
  1: 0x0249 [0x53] WAIT_SCHEDULER_TASK: Wait for scheduler "wav0" with entities [EventEntity, EventEntity]
  2: 0x0256 [0x00] END_REQSTACK()
```

### Event 65535.27

#### Metadata

| Field        | Value   |
|--------------|---------|
| Entrypoint   | 0x0257  |
| Data Size    | 1 bytes |
| Instructions | 1       |

```
      00 01 02 03 04 05 06 07  08 09 0A 0B 0C 0D 0E 0F
      -- -- -- -- -- -- -- --  -- -- -- -- -- -- -- --
0250:                      00                                  .        
```

#### Opcodes

```
  0: 0x0257 [0x00] END_REQSTACK()
```

### Event 65535.28

#### Metadata

| Field        | Value   |
|--------------|---------|
| Entrypoint   | 0x0258  |
| Data Size    | 9 bytes |
| Instructions | 3       |

```
      00 01 02 03 04 05 06 07  08 09 0A 0B 0C 0D 0E 0F
      -- -- -- -- -- -- -- --  -- -- -- -- -- -- -- --
0250:                          5E 69 64 6C 30 1C 1B 80          ^idl0...
0260: 00                                                .               
```

#### Opcodes

```
  0: 0x0258 [0x5E] EventEntity goes idle (kills current action) (animation: "idl0")
  1: 0x025D [0x1C] WAIT(60* ticks)
  2: 0x0260 [0x00] END_REQSTACK()
```

### Event 65535.29

#### Metadata

| Field        | Value    |
|--------------|----------|
| Entrypoint   | 0x0261   |
| Data Size    | 15 bytes |
| Instructions | 4        |

```
      00 01 02 03 04 05 06 07  08 09 0A 0B 0C 0D 0E 0F
      -- -- -- -- -- -- -- --  -- -- -- -- -- -- -- --
0260:    31 00 45 80 46 80 21  80 47 80 31 01 22 01 00   1.E.F.!.G.1."..
```

#### Opcodes

```
  0: 0x0261 [0x31] UPDATE_ENTITY_POSITION: Set EventEntity goal position to X=-79.693*, Z=103.469*, Y=-0.199*, Time=180*
  1: 0x026B [0x31] UPDATE_ENTITY_POSITION: Move EventEntity towards goal position
  2: 0x026D [0x22] ENTITY_HIDE_FLAG(enabled=0x01)
  3: 0x026F [0x00] END_REQSTACK()
```
