# 17776706 - Ulmia

## Common Data

| Field            | Value                 |
|------------------|-----------------------|
| Zone             | Upper Jeuno (ID: 244) |
| Block Size       | 764 bytes             |
| Total Events     | 24                    |
| References Count | 46                    |

## List of Events

| Event ID                   | Entrypoint   |   Size |   Instructions |
|----------------------------|--------------|--------|----------------|
| [65535](#event-65535)      | 0x0000       |     13 |              3 |
| [75](#event-75)            | 0x000D       |     20 |              3 |
| [65535.1](#event-655351)   | 0x0021       |     12 |              4 |
| [82](#event-82)            | 0x002D       |     18 |              4 |
| [65535.2](#event-655352)   | 0x003F       |     10 |              2 |
| [65535.3](#event-655353)   | 0x0049       |     23 |              7 |
| [65535.4](#event-655354)   | 0x0060       |     28 |              6 |
| [65535.5](#event-655355)   | 0x007C       |     10 |              2 |
| [65535.6](#event-655356)   | 0x0086       |     17 |              5 |
| [65535.7](#event-655357)   | 0x0097       |     38 |              8 |
| [65535.8](#event-655358)   | 0x00BD       |     13 |              3 |
| [65535.9](#event-655359)   | 0x00CA       |     24 |              5 |
| [65535.10](#event-6553510) | 0x00E2       |     20 |              6 |
| [65535.11](#event-6553511) | 0x00F6       |     16 |              2 |
| [65535.12](#event-6553512) | 0x0106       |     29 |              3 |
| [65535.13](#event-6553513) | 0x0123       |     16 |              2 |
| [65535.14](#event-6553514) | 0x0133       |     29 |              3 |
| [65535.15](#event-6553515) | 0x0150       |     16 |              2 |
| [65535.16](#event-6553516) | 0x0160       |     29 |              3 |
| [65535.17](#event-6553517) | 0x017D       |     16 |              2 |
| [65535.18](#event-6553518) | 0x018D       |     29 |              3 |
| [10221](#event-10221)      | 0x01AA       |      1 |              1 |
| [65535.19](#event-6553519) | 0x01AB       |     17 |              5 |
| [65535.20](#event-6553520) | 0x01BC       |     24 |              6 |

## DAT References (imed_data)

|   Index | Hex Value   |   Dec Value |
|---------|-------------|-------------|
|       0 | 0xFFFF2456  |  4294911062 |
|       1 | 0xFFFFE50F  |  4294960399 |
|       2 | 0xFFFFFE0C  |  4294966796 |
|       3 | 0x0F10      |        3856 |
|       4 | 0x003C      |          60 |
|       5 | 0x2079      |        8313 |
|       6 | 0xFFFF2E58  |  4294913624 |
|       7 | 0x0A82      |        2690 |
|       8 | 0xFFFFFE0D  |  4294966797 |
|       9 | 0x0002      |           2 |
|      10 | 0xFFFF5136  |  4294922550 |
|      11 | 0xFFFFF6B2  |  4294964914 |
|      12 | 0x0F5A      |        3930 |
|      13 | 0x0028      |          40 |
|      14 | 0xFFFF3F3B  |  4294917947 |
|      15 | 0x0B07      |        2823 |
|      16 | 0x0005      |           5 |
|      17 | 0xFFFF2FCA  |  4294913994 |
|      18 | 0x02D3      |         723 |
|      19 | 0x06D6      |        1750 |
|      20 | 0x000D      |          13 |
|      21 | 0xFFFF195C  |  4294908252 |
|      22 | 0xFFFFF54C  |  4294964556 |
|      23 | 0x0288      |         648 |
|      24 | 0xFFFF1EF7  |  4294909687 |
|      25 | 0xFFFFEF13  |  4294962963 |
|      26 | 0x01B5      |         437 |
|      27 | 0xFFFF315D  |  4294914397 |
|      28 | 0xFFFFDF6B  |  4294958955 |
|      29 | 0x000A      |          10 |
|      30 | 0x0187      |         391 |
|      31 | 0x01A6      |         422 |
|      32 | 0xFFFF2DA3  |  4294913443 |
|      33 | 0xFFFFE36B  |  4294959979 |
|      34 | 0xFFFF18F2  |  4294908146 |
|      35 | 0xFFFFF4A7  |  4294964391 |
|      36 | 0x01A4      |         420 |
|      37 | 0x01A7      |         423 |
|      38 | 0xFFFF5A83  |  4294924931 |
|      39 | 0x168CC     |       92364 |
|      40 | 0x1F3F      |        7999 |
|      41 | 0x001E      |          30 |
|      42 | 0xFFFF61F5  |  4294926837 |
|      43 | 0x1580A     |       88074 |
|      44 | 0xFFFF5B19  |  4294925081 |
|      45 | 0x14D78     |       85368 |

## Events

### Event 65535

#### Metadata

| Field        | Value    |
|--------------|----------|
| Entrypoint   | 0x0000   |
| Data Size    | 13 bytes |
| Instructions | 3        |

```
      00 01 02 03 04 05 06 07  08 09 0A 0B 0C 0D 0E 0F
      -- -- -- -- -- -- -- --  -- -- -- -- -- -- -- --
0000: 92 01 F8 FF FF 7F 94 01  F8 FF FF 7F 00           .............   
```

#### Opcodes

```
  0: 0x0000 [0x92] EventEntity->Render.Flags3 ^= 0x01
  1: 0x0006 [0x94] EventEntity->Render.Flags3 ^= 0x01
  2: 0x000C [0x00] END_REQSTACK()
```

### Event 75

#### Metadata

| Field        | Value    |
|--------------|----------|
| Entrypoint   | 0x000D   |
| Data Size    | 20 bytes |
| Instructions | 3        |

```
      00 01 02 03 04 05 06 07  08 09 0A 0B 0C 0D 0E 0F
      -- -- -- -- -- -- -- --  -- -- -- -- -- -- -- --
0000:                                         37 00 80               7..
0010: 01 80 02 80 03 80 79 00  F8 FF FF 7F 40 40 0F 01  ......y.....@@..
0020: 00                                                .               
```

#### Opcodes

```
  0: 0x000D [0x37] UPDATE_EVENT_POSITION_AND_DIR: x=-56.234*, z=-6.897*, y=-0.500*, direction=338.9°*
  1: 0x0016 [0x79] EventEntity looks at Prishe (ID: 17776704/0x010F4040) (Basic look)
  2: 0x0020 [0x00] END_REQSTACK()
```

### Event 65535.1

#### Metadata

| Field        | Value    |
|--------------|----------|
| Entrypoint   | 0x0021   |
| Data Size    | 12 bytes |
| Instructions | 4        |

```
      00 01 02 03 04 05 06 07  08 09 0A 0B 0C 0D 0E 0F
      -- -- -- -- -- -- -- --  -- -- -- -- -- -- -- --
0020:    1C 04 80 2B 42 40 0F  01 05 80 23 00            ...+B@....#.   
```

#### Opcodes

```
  0: 0x0021 [0x1C] WAIT(60* ticks)
  1: 0x0024 [0x2B] Ulmia (ID: 17776706/0x010F4042) [8313*]:
    → "Oh, <Player>. I cannot begin to express my gratitude for you saving Prishe."
  2: 0x002B [0x23] WAIT_FOR_DIALOG_INTERACTION
  3: 0x002C [0x00] END_REQSTACK()
```

### Event 82

#### Metadata

| Field        | Value    |
|--------------|----------|
| Entrypoint   | 0x002D   |
| Data Size    | 18 bytes |
| Instructions | 4        |

```
      00 01 02 03 04 05 06 07  08 09 0A 0B 0C 0D 0E 0F
      -- -- -- -- -- -- -- --  -- -- -- -- -- -- -- --
0020:                                         94 01 F8               ...
0030: FF FF 7F A4 01 37 06 80  07 80 08 80 09 80 00     .....7......... 
```

#### Opcodes

```
  0: 0x002D [0x94] EventEntity->Render.Flags3 ^= 0x01
  1: 0x0033 [0xA4] EventEntity->Flags3.unknown_3_2 = 1
  2: 0x0035 [0x37] UPDATE_EVENT_POSITION_AND_DIR: x=-53.672*, z=2.690*, y=-0.499*, direction=0.2°*
  3: 0x003E [0x00] END_REQSTACK()
```

### Event 65535.2

#### Metadata

| Field        | Value    |
|--------------|----------|
| Entrypoint   | 0x003F   |
| Data Size    | 10 bytes |
| Instructions | 2        |

```
      00 01 02 03 04 05 06 07  08 09 0A 0B 0C 0D 0E 0F
      -- -- -- -- -- -- -- --  -- -- -- -- -- -- -- --
0030:                                               37                 7
0040: 0A 80 0B 80 08 80 0C 80  00                       .........       
```

#### Opcodes

```
  0: 0x003F [0x37] UPDATE_EVENT_POSITION_AND_DIR: x=-44.746*, z=-2.382*, y=-0.499*, direction=345.4°*
  1: 0x0048 [0x00] END_REQSTACK()
```

### Event 65535.3

#### Metadata

| Field        | Value    |
|--------------|----------|
| Entrypoint   | 0x0049   |
| Data Size    | 23 bytes |
| Instructions | 7        |

```
      00 01 02 03 04 05 06 07  08 09 0A 0B 0C 0D 0E 0F
      -- -- -- -- -- -- -- --  -- -- -- -- -- -- -- --
0040:                             32 0D 80 1F 00 0E 80           2......
0050: 0F 80 08 80 1F 01 6F 1C  10 80 1E 01 40 0F 01 00  ......o.....@...
```

#### Opcodes

```
  0: 0x0049 [0x32] ExtData[1]->MainSpeed = 40* * 0.1
  1: 0x004C [0x1F] MOVE_ENTITY: EventEntity moves to X=-49.349*, Z=2.823*, Y=-0.499*
  2: 0x0054 [0x1F] MOVE_ENTITY: Update entity position (mode=1)
  3: 0x0056 [0x6F] WAIT_FRAME_DELAY: Yield until WaitTime reaches zero
  4: 0x0057 [0x1C] WAIT(5* ticks)
  5: 0x005A [0x1E] EventEntity looks at Monberaux (ID: 17776641/0x010F4001) and starts talking
  6: 0x005F [0x00] END_REQSTACK()
```

### Event 65535.4

#### Metadata

| Field        | Value    |
|--------------|----------|
| Entrypoint   | 0x0060   |
| Data Size    | 28 bytes |
| Instructions | 6        |

```
      00 01 02 03 04 05 06 07  08 09 0A 0B 0C 0D 0E 0F
      -- -- -- -- -- -- -- --  -- -- -- -- -- -- -- --
0060: 7B F8 FF FF 7F 37 11 80  12 80 08 80 13 80 32 14  {....7........2.
0070: 80 1F 00 15 80 16 80 02  80 1F 01 00              ............    
```

#### Opcodes

```
  0: 0x0060 [0x7B] EventEntity stops talking
  1: 0x0065 [0x37] UPDATE_EVENT_POSITION_AND_DIR: x=-53.302*, z=0.723*, y=-0.499*, direction=153.8°*
  2: 0x006E [0x32] ExtData[1]->MainSpeed = 13* * 0.1
  3: 0x0071 [0x1F] MOVE_ENTITY: EventEntity moves to X=-59.044*, Z=-2.740*, Y=-0.500*
  4: 0x0079 [0x1F] MOVE_ENTITY: Update entity position (mode=1)
  5: 0x007B [0x00] END_REQSTACK()
```

### Event 65535.5

#### Metadata

| Field        | Value    |
|--------------|----------|
| Entrypoint   | 0x007C   |
| Data Size    | 10 bytes |
| Instructions | 2        |

```
      00 01 02 03 04 05 06 07  08 09 0A 0B 0C 0D 0E 0F
      -- -- -- -- -- -- -- --  -- -- -- -- -- -- -- --
0070:                                      37 15 80 16              7...
0080: 80 02 80 17 80 00                                 ......          
```

#### Opcodes

```
  0: 0x007C [0x37] UPDATE_EVENT_POSITION_AND_DIR: x=-59.044*, z=-2.740*, y=-0.500*, direction=57.0°*
  1: 0x0085 [0x00] END_REQSTACK()
```

### Event 65535.6

#### Metadata

| Field        | Value    |
|--------------|----------|
| Entrypoint   | 0x0086   |
| Data Size    | 17 bytes |
| Instructions | 5        |

```
      00 01 02 03 04 05 06 07  08 09 0A 0B 0C 0D 0E 0F
      -- -- -- -- -- -- -- --  -- -- -- -- -- -- -- --
0080:                   32 14  80 1F 00 18 80 19 80 02        2.........
0090: 80 1F 01 39 1A 80 00                              ...9...         
```

#### Opcodes

```
  0: 0x0086 [0x32] ExtData[1]->MainSpeed = 13* * 0.1
  1: 0x0089 [0x1F] MOVE_ENTITY: EventEntity moves to X=-57.609*, Z=-4.333*, Y=-0.500*
  2: 0x0091 [0x1F] MOVE_ENTITY: Update entity position (mode=1)
  3: 0x0093 [0x39] SET_ENTITY_DIRECTION(direction=2.4°*)
  4: 0x0096 [0x00] END_REQSTACK()
```

### Event 65535.7

#### Metadata

| Field        | Value    |
|--------------|----------|
| Entrypoint   | 0x0097   |
| Data Size    | 38 bytes |
| Instructions | 8        |

```
      00 01 02 03 04 05 06 07  08 09 0A 0B 0C 0D 0E 0F
      -- -- -- -- -- -- -- --  -- -- -- -- -- -- -- --
0090:                      32  0D 80 1F 00 1B 80 1C 80         2........
00A0: 02 80 1F 01 1C 1D 80 39  1E 80 1C 1D 80 5B 1F 80  .......9.....[..
00B0: F8 FF FF 7F F8 FF FF 7F  6B 61 69 30 00           ........kai0.   
```

#### Opcodes

```
  0: 0x0097 [0x32] ExtData[1]->MainSpeed = 40* * 0.1
  1: 0x009A [0x1F] MOVE_ENTITY: EventEntity moves to X=-52.899*, Z=-8.341*, Y=-0.500*
  2: 0x00A2 [0x1F] MOVE_ENTITY: Update entity position (mode=1)
  3: 0x00A4 [0x1C] WAIT(10* ticks)
  4: 0x00A7 [0x39] SET_ENTITY_DIRECTION(direction=2.1°*)
  5: 0x00AA [0x1C] WAIT(10* ticks)
  6: 0x00AD [0x5B] LOAD_EXT_SCHEDULER: Load scheduler "kai0" with entities [EventEntity, EventEntity], work=422*
  7: 0x00BC [0x00] END_REQSTACK()
```

### Event 65535.8

#### Metadata

| Field        | Value    |
|--------------|----------|
| Entrypoint   | 0x00BD   |
| Data Size    | 13 bytes |
| Instructions | 3        |

```
      00 01 02 03 04 05 06 07  08 09 0A 0B 0C 0D 0E 0F
      -- -- -- -- -- -- -- --  -- -- -- -- -- -- -- --
00B0:                                         6B 69 64               kid
00C0: 6C 30 F8 FF FF 7F 1C 1D  80 00                    l0........      
```

#### Opcodes

```
  0: 0x00BD [0x6B] STOP_AND_IDLE: EventEntity stops current action and resets to idle (animation="idl0")
  1: 0x00C6 [0x1C] WAIT(10* ticks)
  2: 0x00C9 [0x00] END_REQSTACK()
```

### Event 65535.9

#### Metadata

| Field        | Value    |
|--------------|----------|
| Entrypoint   | 0x00CA   |
| Data Size    | 24 bytes |
| Instructions | 5        |

```
      00 01 02 03 04 05 06 07  08 09 0A 0B 0C 0D 0E 0F
      -- -- -- -- -- -- -- --  -- -- -- -- -- -- -- --
00C0:                                79 00 42 40 0F 01            y.B@..
00D0: F0 FF FF 7F 32 14 80 1F  00 20 80 21 80 02 80 1F  ....2.... .!....
00E0: 01 00                                             ..              
```

#### Opcodes

```
  0: 0x00CA [0x79] Ulmia (ID: 17776706/0x010F4042) looks at LocalPlayer (Basic look)
  1: 0x00D4 [0x32] ExtData[1]->MainSpeed = 13* * 0.1
  2: 0x00D7 [0x1F] MOVE_ENTITY: EventEntity moves to X=-53.853*, Z=-7.317*, Y=-0.500*
  3: 0x00DF [0x1F] MOVE_ENTITY: Update entity position (mode=1)
  4: 0x00E1 [0x00] END_REQSTACK()
```

### Event 65535.10

#### Metadata

| Field        | Value    |
|--------------|----------|
| Entrypoint   | 0x00E2   |
| Data Size    | 20 bytes |
| Instructions | 6        |

```
      00 01 02 03 04 05 06 07  08 09 0A 0B 0C 0D 0E 0F
      -- -- -- -- -- -- -- --  -- -- -- -- -- -- -- --
00E0:       32 14 80 1F 00 22  80 23 80 02 80 1F 01 6F    2....".#.....o
00F0: 1E 40 40 0F 01 00                                 .@@...          
```

#### Opcodes

```
  0: 0x00E2 [0x32] ExtData[1]->MainSpeed = 13* * 0.1
  1: 0x00E5 [0x1F] MOVE_ENTITY: EventEntity moves to X=-59.150*, Z=-2.905*, Y=-0.500*
  2: 0x00ED [0x1F] MOVE_ENTITY: Update entity position (mode=1)
  3: 0x00EF [0x6F] WAIT_FRAME_DELAY: Yield until WaitTime reaches zero
  4: 0x00F0 [0x1E] EventEntity looks at Prishe (ID: 17776704/0x010F4040) and starts talking
  5: 0x00F5 [0x00] END_REQSTACK()
```

### Event 65535.11

#### Metadata

| Field        | Value    |
|--------------|----------|
| Entrypoint   | 0x00F6   |
| Data Size    | 16 bytes |
| Instructions | 2        |

```
      00 01 02 03 04 05 06 07  08 09 0A 0B 0C 0D 0E 0F
      -- -- -- -- -- -- -- --  -- -- -- -- -- -- -- --
00F0:                   5B 24  80 F8 FF FF 7F F8 FF FF        [$........
0100: 7F 74 6C 63 30 00                                 .tlc0.          
```

#### Opcodes

```
  0: 0x00F6 [0x5B] LOAD_EXT_SCHEDULER: Load scheduler "tlc0" with entities [EventEntity, EventEntity], work=420*
  1: 0x0105 [0x00] END_REQSTACK()
```

### Event 65535.12

#### Metadata

| Field        | Value    |
|--------------|----------|
| Entrypoint   | 0x0106   |
| Data Size    | 29 bytes |
| Instructions | 3        |

```
      00 01 02 03 04 05 06 07  08 09 0A 0B 0C 0D 0E 0F
      -- -- -- -- -- -- -- --  -- -- -- -- -- -- -- --
0100:                   5B 24  80 F8 FF FF 7F F8 FF FF        [$........
0110: 7F 74 6C 63 31 53 F8 FF  FF 7F F8 FF FF 7F 74 6C  .tlc1S........tl
0120: 63 31 00                                          c1.             
```

#### Opcodes

```
  0: 0x0106 [0x5B] LOAD_EXT_SCHEDULER: Load scheduler "tlc1" with entities [EventEntity, EventEntity], work=420*
  1: 0x0115 [0x53] WAIT_SCHEDULER_TASK: Wait for scheduler "tlc1" with entities [EventEntity, EventEntity]
  2: 0x0122 [0x00] END_REQSTACK()
```

### Event 65535.13

#### Metadata

| Field        | Value    |
|--------------|----------|
| Entrypoint   | 0x0123   |
| Data Size    | 16 bytes |
| Instructions | 2        |

```
      00 01 02 03 04 05 06 07  08 09 0A 0B 0C 0D 0E 0F
      -- -- -- -- -- -- -- --  -- -- -- -- -- -- -- --
0120:          5B 24 80 F8 FF  FF 7F F8 FF FF 7F 74 6C     [$.........tl
0130: 61 30 00                                          a0.             
```

#### Opcodes

```
  0: 0x0123 [0x5B] LOAD_EXT_SCHEDULER: Load scheduler "tla0" with entities [EventEntity, EventEntity], work=420*
  1: 0x0132 [0x00] END_REQSTACK()
```

### Event 65535.14

#### Metadata

| Field        | Value    |
|--------------|----------|
| Entrypoint   | 0x0133   |
| Data Size    | 29 bytes |
| Instructions | 3        |

```
      00 01 02 03 04 05 06 07  08 09 0A 0B 0C 0D 0E 0F
      -- -- -- -- -- -- -- --  -- -- -- -- -- -- -- --
0130:          5B 24 80 F8 FF  FF 7F F8 FF FF 7F 74 6C     [$.........tl
0140: 61 31 53 F8 FF FF 7F F8  FF FF 7F 74 6C 61 31 00  a1S........tla1.
```

#### Opcodes

```
  0: 0x0133 [0x5B] LOAD_EXT_SCHEDULER: Load scheduler "tla1" with entities [EventEntity, EventEntity], work=420*
  1: 0x0142 [0x53] WAIT_SCHEDULER_TASK: Wait for scheduler "tla1" with entities [EventEntity, EventEntity]
  2: 0x014F [0x00] END_REQSTACK()
```

### Event 65535.15

#### Metadata

| Field        | Value    |
|--------------|----------|
| Entrypoint   | 0x0150   |
| Data Size    | 16 bytes |
| Instructions | 2        |

```
      00 01 02 03 04 05 06 07  08 09 0A 0B 0C 0D 0E 0F
      -- -- -- -- -- -- -- --  -- -- -- -- -- -- -- --
0150: 5B 24 80 F8 FF FF 7F F8  FF FF 7F 74 6C 62 30 00  [$.........tlb0.
```

#### Opcodes

```
  0: 0x0150 [0x5B] LOAD_EXT_SCHEDULER: Load scheduler "tlb0" with entities [EventEntity, EventEntity], work=420*
  1: 0x015F [0x00] END_REQSTACK()
```

### Event 65535.16

#### Metadata

| Field        | Value    |
|--------------|----------|
| Entrypoint   | 0x0160   |
| Data Size    | 29 bytes |
| Instructions | 3        |

```
      00 01 02 03 04 05 06 07  08 09 0A 0B 0C 0D 0E 0F
      -- -- -- -- -- -- -- --  -- -- -- -- -- -- -- --
0160: 5B 24 80 F8 FF FF 7F F8  FF FF 7F 74 6C 62 31 53  [$.........tlb1S
0170: F8 FF FF 7F F8 FF FF 7F  74 6C 62 31 00           ........tlb1.   
```

#### Opcodes

```
  0: 0x0160 [0x5B] LOAD_EXT_SCHEDULER: Load scheduler "tlb1" with entities [EventEntity, EventEntity], work=420*
  1: 0x016F [0x53] WAIT_SCHEDULER_TASK: Wait for scheduler "tlb1" with entities [EventEntity, EventEntity]
  2: 0x017C [0x00] END_REQSTACK()
```

### Event 65535.17

#### Metadata

| Field        | Value    |
|--------------|----------|
| Entrypoint   | 0x017D   |
| Data Size    | 16 bytes |
| Instructions | 2        |

```
      00 01 02 03 04 05 06 07  08 09 0A 0B 0C 0D 0E 0F
      -- -- -- -- -- -- -- --  -- -- -- -- -- -- -- --
0170:                                         5B 25 80               [%.
0180: F8 FF FF 7F F8 FF FF 7F  68 74 61 30 00           ........hta0.   
```

#### Opcodes

```
  0: 0x017D [0x5B] LOAD_EXT_SCHEDULER: Load scheduler "hta0" with entities [EventEntity, EventEntity], work=423*
  1: 0x018C [0x00] END_REQSTACK()
```

### Event 65535.18

#### Metadata

| Field        | Value    |
|--------------|----------|
| Entrypoint   | 0x018D   |
| Data Size    | 29 bytes |
| Instructions | 3        |

```
      00 01 02 03 04 05 06 07  08 09 0A 0B 0C 0D 0E 0F
      -- -- -- -- -- -- -- --  -- -- -- -- -- -- -- --
0180:                                         5B 25 80               [%.
0190: F8 FF FF 7F F8 FF FF 7F  68 74 61 31 53 F8 FF FF  ........hta1S...
01A0: 7F F8 FF FF 7F 68 74 61  31 00                    .....hta1.      
```

#### Opcodes

```
  0: 0x018D [0x5B] LOAD_EXT_SCHEDULER: Load scheduler "hta1" with entities [EventEntity, EventEntity], work=423*
  1: 0x019C [0x53] WAIT_SCHEDULER_TASK: Wait for scheduler "hta1" with entities [EventEntity, EventEntity]
  2: 0x01A9 [0x00] END_REQSTACK()
```

### Event 10221

#### Metadata

| Field        | Value   |
|--------------|---------|
| Entrypoint   | 0x01AA  |
| Data Size    | 1 bytes |
| Instructions | 1       |

```
      00 01 02 03 04 05 06 07  08 09 0A 0B 0C 0D 0E 0F
      -- -- -- -- -- -- -- --  -- -- -- -- -- -- -- --
01A0:                                00                           .     
```

#### Opcodes

```
  0: 0x01AA [0x00] END_REQSTACK()
```

### Event 65535.19

#### Metadata

| Field        | Value    |
|--------------|----------|
| Entrypoint   | 0x01AB   |
| Data Size    | 17 bytes |
| Instructions | 5        |

```
      00 01 02 03 04 05 06 07  08 09 0A 0B 0C 0D 0E 0F
      -- -- -- -- -- -- -- --  -- -- -- -- -- -- -- --
01A0:                                   32 14 80 1F 00             2....
01B0: 26 80 27 80 28 80 1F 01  1C 29 80 00              &.'.(....)..    
```

#### Opcodes

```
  0: 0x01AB [0x32] ExtData[1]->MainSpeed = 13* * 0.1
  1: 0x01AE [0x1F] MOVE_ENTITY: EventEntity moves to X=-42.365*, Z=92.364*, Y=7.999*
  2: 0x01B6 [0x1F] MOVE_ENTITY: Update entity position (mode=1)
  3: 0x01B8 [0x1C] WAIT(30* ticks)
  4: 0x01BB [0x00] END_REQSTACK()
```

### Event 65535.20

#### Metadata

| Field        | Value    |
|--------------|----------|
| Entrypoint   | 0x01BC   |
| Data Size    | 24 bytes |
| Instructions | 6        |

```
      00 01 02 03 04 05 06 07  08 09 0A 0B 0C 0D 0E 0F
      -- -- -- -- -- -- -- --  -- -- -- -- -- -- -- --
01B0:                                      32 14 80 1F              2...
01C0: 00 2A 80 2B 80 28 80 1F  01 1F 00 2C 80 2D 80 28  .*.+.(.....,.-.(
01D0: 80 1F 01 00                                       ....            
```

#### Opcodes

```
  0: 0x01BC [0x32] ExtData[1]->MainSpeed = 13* * 0.1
  1: 0x01BF [0x1F] MOVE_ENTITY: EventEntity moves to X=-40.459*, Z=88.074*, Y=7.999*
  2: 0x01C7 [0x1F] MOVE_ENTITY: Update entity position (mode=1)
  3: 0x01C9 [0x1F] MOVE_ENTITY: EventEntity moves to X=-42.215*, Z=85.368*, Y=7.999*
  4: 0x01D1 [0x1F] MOVE_ENTITY: Update entity position (mode=1)
  5: 0x01D3 [0x00] END_REQSTACK()
```
