# 17776643 - Souren

## Common Data

| Field            | Value                 |
|------------------|-----------------------|
| Zone             | Upper Jeuno (ID: 244) |
| Block Size       | 488 bytes             |
| Total Events     | 13                    |
| References Count | 28                    |

## List of Events

| Event ID                 | Entrypoint   |   Size |   Instructions |
|--------------------------|--------------|--------|----------------|
| [65535](#event-65535)    | 0x0000       |      1 |              1 |
| [74](#event-74)          | 0x0001       |      1 |              1 |
| [10](#event-10)          | 0x0002       |     22 |              4 |
| [207](#event-207)        | 0x0018       |     22 |              4 |
| [65535.1](#event-655351) | 0x002E       |     24 |              6 |
| [65535.2](#event-655352) | 0x0046       |     23 |              5 |
| [65535.3](#event-655353) | 0x005D       |     43 |              8 |
| [65535.4](#event-655354) | 0x0088       |     16 |              4 |
| [88](#event-88)          | 0x0098       |     36 |             10 |
| [120](#event-120)        | 0x00BC       |     36 |             10 |
| [182](#event-182)        | 0x00E0       |     47 |             19 |
| [181](#event-181)        | 0x010F       |     35 |             10 |
| [33](#event-33)          | 0x0132       |      1 |              1 |

## DAT References (imed_data)

|   Index | Hex Value   |   Dec Value |
|---------|-------------|-------------|
|       0 | 0x0000      |           0 |
|       1 | 0x0001      |           1 |
|       2 | 0xFFFF3D07  |  4294917383 |
|       3 | 0x0BD3      |        3027 |
|       4 | 0xFFFFFE0D  |  4294966797 |
|       5 | 0x0211      |         529 |
|       6 | 0x000D      |          13 |
|       7 | 0xFFFF415E  |  4294918494 |
|       8 | 0x07C6      |        1990 |
|       9 | 0x001E      |          30 |
|      10 | 0xFFFF40F8  |  4294918392 |
|      11 | 0x16B5      |        5813 |
|      12 | 0xFFFF364B  |  4294915659 |
|      13 | 0x1B27      |        6951 |
|      14 | 0x0272      |         626 |
|      15 | 0x0320      |         800 |
|      16 | 0x03E8      |        1000 |
|      17 | 0x003C      |          60 |
|      18 | 0x1B7B      |        7035 |
|      19 | 0x1B7C      |        7036 |
|      20 | 0x1B7D      |        7037 |
|      21 | 0x1B7E      |        7038 |
|      22 | 0x1B7F      |        7039 |
|      23 | 0x1B80      |        7040 |
|      24 | 0x1B81      |        7041 |
|      25 | 0x1B5D      |        7005 |
|      26 | 0x1B5E      |        7006 |
|      27 | 0x1B82      |        7042 |

## String References

- **7005**: The petition is complete!
- **7006**: You have $0 more [signature/signatures] to go.
- **7035**: Monberaux's a fine lad. Aye, I wish every doctor was more like him. Why, today I'm fit as a fiddle, but I stopped by all the same.
- **7036**: That doctor, bless his heart, always greets us with a smile. The ladies like him so much, they've put a fan club together.
- **7037**: Come to think of it, Narihira doesn't stop by anymore. I suppose he's been feeling better ever since Galmut took over as clockmaster.
- **7038**: It would be tough at his age. But not a day goes by without hearing its glorious ring now that Galmut is on the job.
- **7039**: What!? They're going to tear it down? Well, of all the hare-brained ideas... I'll sign yer petition. You betcha!
- **7040**: Back when Galmut first started, you couldn't get Narihira to stop talking about him. That old gearhead looked mighty happy to find a youth who would follow in his footsteps.
- **7041**: Well, I guess those two mules had enough in common to get along. Now, run back out there and get some more signatures!
- **7042**: So the clock tower's safe? Well, bless my buttons! I bet Narihira's happy as a goat!

## Events

### Event 65535

#### Metadata

| Field        | Value   |
|--------------|---------|
| Entrypoint   | 0x0000  |
| Data Size    | 1 bytes |
| Instructions | 1       |

```
      00 01 02 03 04 05 06 07  08 09 0A 0B 0C 0D 0E 0F
      -- -- -- -- -- -- -- --  -- -- -- -- -- -- -- --
0000: 00                                                .               
```

#### Opcodes

```
  0: 0x0000 [0x00] END_REQSTACK()
```

### Event 74

#### Metadata

| Field        | Value   |
|--------------|---------|
| Entrypoint   | 0x0001  |
| Data Size    | 1 bytes |
| Instructions | 1       |

```
      00 01 02 03 04 05 06 07  08 09 0A 0B 0C 0D 0E 0F
      -- -- -- -- -- -- -- --  -- -- -- -- -- -- -- --
0000:    00                                              .              
```

#### Opcodes

```
  0: 0x0001 [0x00] END_REQSTACK()
```

### Event 10

#### Metadata

| Field        | Value    |
|--------------|----------|
| Entrypoint   | 0x0002   |
| Data Size    | 22 bytes |
| Instructions | 4        |

```
      00 01 02 03 04 05 06 07  08 09 0A 0B 0C 0D 0E 0F
      -- -- -- -- -- -- -- --  -- -- -- -- -- -- -- --
0000:       92 01 F8 FF FF 7F  94 01 F8 FF FF 7F 6C F8    ............l.
0010: FF FF 7F 00 80 01 80 00                           ........        
```

#### Opcodes

```
  0: 0x0002 [0x92] EventEntity->Render.Flags3 ^= 0x01
  1: 0x0008 [0x94] EventEntity->Render.Flags3 ^= 0x01
  2: 0x000E [0x6C] FADE_ENTITY_COLOR(entity_id=EventEntity, end_alpha=0*, fade_time=1*)
  3: 0x0017 [0x00] END_REQSTACK()
```

### Event 207

#### Metadata

| Field        | Value    |
|--------------|----------|
| Entrypoint   | 0x0018   |
| Data Size    | 22 bytes |
| Instructions | 4        |

```
      00 01 02 03 04 05 06 07  08 09 0A 0B 0C 0D 0E 0F
      -- -- -- -- -- -- -- --  -- -- -- -- -- -- -- --
0010:                          92 01 F8 FF FF 7F 94 01          ........
0020: F8 FF FF 7F 6C F8 FF FF  7F 00 80 01 80 00        ....l.........  
```

#### Opcodes

```
  0: 0x0018 [0x92] EventEntity->Render.Flags3 ^= 0x01
  1: 0x001E [0x94] EventEntity->Render.Flags3 ^= 0x01
  2: 0x0024 [0x6C] FADE_ENTITY_COLOR(entity_id=EventEntity, end_alpha=0*, fade_time=1*)
  3: 0x002D [0x00] END_REQSTACK()
```

### Event 65535.1

#### Metadata

| Field        | Value    |
|--------------|----------|
| Entrypoint   | 0x002E   |
| Data Size    | 24 bytes |
| Instructions | 6        |

```
      00 01 02 03 04 05 06 07  08 09 0A 0B 0C 0D 0E 0F
      -- -- -- -- -- -- -- --  -- -- -- -- -- -- -- --
0020:                                            37 02                7.
0030: 80 03 80 04 80 05 80 32  06 80 1F 00 07 80 08 80  .......2........
0040: 04 80 1F 01 6F 00                                 ....o.          
```

#### Opcodes

```
  0: 0x002E [0x37] UPDATE_EVENT_POSITION_AND_DIR: x=-49.913*, z=3.027*, y=-0.499*, direction=46.5°*
  1: 0x0037 [0x32] ExtData[1]->MainSpeed = 13* * 0.1
  2: 0x003A [0x1F] MOVE_ENTITY: EventEntity moves to X=-48.802*, Z=1.990*, Y=-0.499*
  3: 0x0042 [0x1F] MOVE_ENTITY: Update entity position (mode=1)
  4: 0x0044 [0x6F] WAIT_FRAME_DELAY: Yield until WaitTime reaches zero
  5: 0x0045 [0x00] END_REQSTACK()
```

### Event 65535.2

#### Metadata

| Field        | Value    |
|--------------|----------|
| Entrypoint   | 0x0046   |
| Data Size    | 23 bytes |
| Instructions | 5        |

```
      00 01 02 03 04 05 06 07  08 09 0A 0B 0C 0D 0E 0F
      -- -- -- -- -- -- -- --  -- -- -- -- -- -- -- --
0040:                   1C 09  80 1F 00 0A 80 0B 80 04        ..........
0050: 80 1F 01 37 0C 80 0D 80  04 80 0E 80 00           ...7.........   
```

#### Opcodes

```
  0: 0x0046 [0x1C] WAIT(30* ticks)
  1: 0x0049 [0x1F] MOVE_ENTITY: EventEntity moves to X=-48.904*, Z=5.813*, Y=-0.499*
  2: 0x0051 [0x1F] MOVE_ENTITY: Update entity position (mode=1)
  3: 0x0053 [0x37] UPDATE_EVENT_POSITION_AND_DIR: x=-51.637*, z=6.951*, y=-0.499*, direction=55.0°*
  4: 0x005C [0x00] END_REQSTACK()
```

### Event 65535.3

#### Metadata

| Field        | Value    |
|--------------|----------|
| Entrypoint   | 0x005D   |
| Data Size    | 43 bytes |
| Instructions | 8        |

```
      00 01 02 03 04 05 06 07  08 09 0A 0B 0C 0D 0E 0F
      -- -- -- -- -- -- -- --  -- -- -- -- -- -- -- --
0050:                                         92 01 F8               ...
0060: FF FF 7F 33 01 22 00 3B  39 40 0F 01 00 00 01 00  ...3.".;9@......
0070: 02 00 3A 39 40 0F 01 03  00 07 02 00 0F 80 37 00  ..:9@.........7.
0080: 00 01 00 02 00 03 00 00                           ........        
```

#### Opcodes

```
  0: 0x005D [0x92] EventEntity->Render.Flags3 ^= 0x01
  1: 0x0063 [0x33] EventEntity->Render.Flags0 |= 0x200000 // Bit 21 (flag=0x01)
  2: 0x0065 [0x22] ENTITY_HIDE_FLAG(enabled=0x00)
  3: 0x0067 [0x3B] GET_ENTITY_POSITION(entity=Unnamed NPC (ID: 17776697/0x010F4039), x_destination=ExtData[1]->WorkLocal[0], y_destination=ExtData[1]->WorkLocal[1], z_destination=ExtData[1]->WorkLocal[2])
  4: 0x0072 [0x3A] CONVERT_YAW_TO_BYTE(entity=Unnamed NPC (ID: 17776697/0x010F4039), result_destination=ExtData[1]->WorkLocal[3])
  5: 0x0079 [0x07] ExtData[1]->WorkLocal[2] += 800*
  6: 0x007E [0x37] UPDATE_EVENT_POSITION_AND_DIR: x=ExtData[1]->WorkLocal[0], z=ExtData[1]->WorkLocal[1], y=ExtData[1]->WorkLocal[2], direction=ExtData[1]->WorkLocal[3]
  7: 0x0087 [0x00] END_REQSTACK()
```

### Event 65535.4

#### Metadata

| Field        | Value    |
|--------------|----------|
| Entrypoint   | 0x0088   |
| Data Size    | 16 bytes |
| Instructions | 4        |

```
      00 01 02 03 04 05 06 07  08 09 0A 0B 0C 0D 0E 0F
      -- -- -- -- -- -- -- --  -- -- -- -- -- -- -- --
0080:                          08 02 00 10 80 1F 00 00          ........
0090: 00 01 00 02 00 1F 01 00                           ........        
```

#### Opcodes

```
  0: 0x0088 [0x08] ExtData[1]->WorkLocal[2] -= 1000*
  1: 0x008D [0x1F] MOVE_ENTITY: EventEntity moves to X=ExtData[1]->WorkLocal[0], Z=ExtData[1]->WorkLocal[1], Y=ExtData[1]->WorkLocal[2]
  2: 0x0095 [0x1F] MOVE_ENTITY: Update entity position (mode=1)
  3: 0x0097 [0x00] END_REQSTACK()
```

### Event 88

#### Metadata

| Field        | Value    |
|--------------|----------|
| Entrypoint   | 0x0098   |
| Data Size    | 36 bytes |
| Instructions | 10       |

```
      00 01 02 03 04 05 06 07  08 09 0A 0B 0C 0D 0E 0F
      -- -- -- -- -- -- -- --  -- -- -- -- -- -- -- --
0090:                          1E F0 FF FF 7F 6F 76 F8          .....ov.
00A0: FF FF 7F 5B 11 80 F8 FF  FF 7F F8 FF FF 7F 74 6C  ...[..........tl
00B0: 6B 30 1D 12 80 23 1D 13  80 23 21 00              k0...#...#!.    
```

#### Opcodes

```
  0: 0x0098 [0x1E] EventEntity looks at LocalPlayer and starts talking
  1: 0x009D [0x6F] WAIT_FRAME_DELAY: Yield until WaitTime reaches zero
  2: 0x009E [0x76] CHECK_ENTITY_RENDER_FLAGS: Wait until EventEntity Render.Flags0 and Render.Flags3 conditions are met
  3: 0x00A3 [0x5B] LOAD_EXT_SCHEDULER: Load scheduler "tlk0" with entities [EventEntity, EventEntity], work=60*
  4: 0x00B2 [0x1D] PRINT_EVENT_MESSAGE(message_id=7035*)
    → "Monberaux's a fine lad. Aye, I wish every doctor was more like him. Why, today I'm fit as a fiddle, but I stopped by all the same."
  5: 0x00B5 [0x23] WAIT_FOR_DIALOG_INTERACTION
  6: 0x00B6 [0x1D] PRINT_EVENT_MESSAGE(message_id=7036*)
    → "That doctor, bless his heart, always greets us with a smile. The ladies like him so much, they've put a fan club together."
  7: 0x00B9 [0x23] WAIT_FOR_DIALOG_INTERACTION
  8: 0x00BA [0x21] END_EVENT
  9: 0x00BB [0x00] END_REQSTACK()
```

### Event 120

#### Metadata

| Field        | Value    |
|--------------|----------|
| Entrypoint   | 0x00BC   |
| Data Size    | 36 bytes |
| Instructions | 10       |

```
      00 01 02 03 04 05 06 07  08 09 0A 0B 0C 0D 0E 0F
      -- -- -- -- -- -- -- --  -- -- -- -- -- -- -- --
00B0:                                      1E F0 FF FF              ....
00C0: 7F 6F 76 F8 FF FF 7F 5B  11 80 F8 FF FF 7F F8 FF  .ov....[........
00D0: FF 7F 74 68 6B 31 1D 14  80 23 1D 15 80 23 21 00  ..thk1...#...#!.
```

#### Opcodes

```
  0: 0x00BC [0x1E] EventEntity looks at LocalPlayer and starts talking
  1: 0x00C1 [0x6F] WAIT_FRAME_DELAY: Yield until WaitTime reaches zero
  2: 0x00C2 [0x76] CHECK_ENTITY_RENDER_FLAGS: Wait until EventEntity Render.Flags0 and Render.Flags3 conditions are met
  3: 0x00C7 [0x5B] LOAD_EXT_SCHEDULER: Load scheduler "thk1" with entities [EventEntity, EventEntity], work=60*
  4: 0x00D6 [0x1D] PRINT_EVENT_MESSAGE(message_id=7037*)
    → "Come to think of it, Narihira doesn't stop by anymore. I suppose he's been feeling better ever since Galmut took over as clockmaster."
  5: 0x00D9 [0x23] WAIT_FOR_DIALOG_INTERACTION
  6: 0x00DA [0x1D] PRINT_EVENT_MESSAGE(message_id=7038*)
    → "It would be tough at his age. But not a day goes by without hearing its glorious ring now that Galmut is on the job."
  7: 0x00DD [0x23] WAIT_FOR_DIALOG_INTERACTION
  8: 0x00DE [0x21] END_EVENT
  9: 0x00DF [0x00] END_REQSTACK()
```

### Event 182

#### Metadata

| Field        | Value    |
|--------------|----------|
| Entrypoint   | 0x00E0   |
| Data Size    | 47 bytes |
| Instructions | 19       |

```
      00 01 02 03 04 05 06 07  08 09 0A 0B 0C 0D 0E 0F
      -- -- -- -- -- -- -- --  -- -- -- -- -- -- -- --
00E0: 20 01 42 1E F0 FF FF 7F  6F 76 F8 FF FF 7F 1D 16   .B.....ov......
00F0: 80 23 1D 17 80 23 1D 18  80 23 02 02 10 00 80 00  .#...#...#......
0100: 09 01 48 19 80 23 01 0D  01 48 1A 80 23 21 00     ..H..#...H..#!. 
```

#### Opcodes

```
  0: 0x00E0 [0x20] SET_CLI_EVENT_UC_FLAG: Lock player control
  1: 0x00E2 [0x42] SET_CLI_EVENT_CANCEL_DATA()
  2: 0x00E3 [0x1E] EventEntity looks at LocalPlayer and starts talking
  3: 0x00E8 [0x6F] WAIT_FRAME_DELAY: Yield until WaitTime reaches zero
  4: 0x00E9 [0x76] CHECK_ENTITY_RENDER_FLAGS: Wait until EventEntity Render.Flags0 and Render.Flags3 conditions are met
  5: 0x00EE [0x1D] PRINT_EVENT_MESSAGE(message_id=7039*)
    → "What!? They're going to tear it down? Well, of all the hare-brained ideas... I'll sign yer petition. You betcha!"
  6: 0x00F1 [0x23] WAIT_FOR_DIALOG_INTERACTION
  7: 0x00F2 [0x1D] PRINT_EVENT_MESSAGE(message_id=7040*)
    → "Back when Galmut first started, you couldn't get Narihira to stop talking about him. That old gearhead looked mighty happy to find a youth who would follow in his footsteps."
  8: 0x00F5 [0x23] WAIT_FOR_DIALOG_INTERACTION
  9: 0x00F6 [0x1D] PRINT_EVENT_MESSAGE(message_id=7041*)
    → "Well, I guess those two mules had enough in common to get along. Now, run back out there and get some more signatures!"
 10: 0x00F9 [0x23] WAIT_FOR_DIALOG_INTERACTION
 11: 0x00FA [0x02] IF !(Work_Zone[2] == 0*) GOTO 0x0109
 12: 0x0102 [0x48] [System] [7005*]:
    → "The petition is complete!"
 13: 0x0105 [0x23] WAIT_FOR_DIALOG_INTERACTION
 14: 0x0106 [0x01] GOTO 0x010D
 15: 0x0109 [0x48] [System] [7006*]:
    → "You have $0 more [signature/signatures] to go."
 16: 0x010C [0x23] WAIT_FOR_DIALOG_INTERACTION

SUBROUTINE_010D:
 17: 0x010D [0x21] END_EVENT
 18: 0x010E [0x00] END_REQSTACK()
```

### Event 181

#### Metadata

| Field        | Value    |
|--------------|----------|
| Entrypoint   | 0x010F   |
| Data Size    | 35 bytes |
| Instructions | 10       |

```
      00 01 02 03 04 05 06 07  08 09 0A 0B 0C 0D 0E 0F
      -- -- -- -- -- -- -- --  -- -- -- -- -- -- -- --
0100:                                               20                  
0110: 01 42 1E F0 FF FF 7F 6F  76 F8 FF FF 7F 5B 11 80  .B.....ov....[..
0120: F8 FF FF 7F F8 FF FF 7F  74 6C 6B 30 1D 1B 80 23  ........tlk0...#
0130: 21 00                                             !.              
```

#### Opcodes

```
  0: 0x010F [0x20] SET_CLI_EVENT_UC_FLAG: Lock player control
  1: 0x0111 [0x42] SET_CLI_EVENT_CANCEL_DATA()
  2: 0x0112 [0x1E] EventEntity looks at LocalPlayer and starts talking
  3: 0x0117 [0x6F] WAIT_FRAME_DELAY: Yield until WaitTime reaches zero
  4: 0x0118 [0x76] CHECK_ENTITY_RENDER_FLAGS: Wait until EventEntity Render.Flags0 and Render.Flags3 conditions are met
  5: 0x011D [0x5B] LOAD_EXT_SCHEDULER: Load scheduler "tlk0" with entities [EventEntity, EventEntity], work=60*
  6: 0x012C [0x1D] PRINT_EVENT_MESSAGE(message_id=7042*)
    → "So the clock tower's safe? Well, bless my buttons! I bet Narihira's happy as a goat!"
  7: 0x012F [0x23] WAIT_FOR_DIALOG_INTERACTION
  8: 0x0130 [0x21] END_EVENT
  9: 0x0131 [0x00] END_REQSTACK()
```

### Event 33

#### Metadata

| Field        | Value   |
|--------------|---------|
| Entrypoint   | 0x0132  |
| Data Size    | 1 bytes |
| Instructions | 1       |

```
      00 01 02 03 04 05 06 07  08 09 0A 0B 0C 0D 0E 0F
      -- -- -- -- -- -- -- --  -- -- -- -- -- -- -- --
0130:       00                                            .             
```

#### Opcodes

```
  0: 0x0132 [0x00] END_REQSTACK()
```
