# 17776650 - Chocobo

## Common Data

| Field            | Value                 |
|------------------|-----------------------|
| Zone             | Upper Jeuno (ID: 244) |
| Block Size       | 2660 bytes            |
| Total Events     | 36                    |
| References Count | 87                    |

## List of Events

| Event ID                 | Entrypoint   |   Size |   Instructions |
|--------------------------|--------------|--------|----------------|
| [65535](#event-65535)    | 0x0000       |      1 |              1 |
| [12](#event-12)          | 0x0001       |      1 |              1 |
| [13](#event-13)          | 0x0002       |      1 |              1 |
| [17](#event-17)          | 0x0003       |      1 |              1 |
| [65535.1](#event-655351) | 0x0004       |     25 |              7 |
| [65535.2](#event-655352) | 0x001D       |     17 |              5 |
| [55](#event-55)          | 0x002E       |     43 |             10 |
| [71](#event-71)          | 0x0059       |      1 |              1 |
| [62](#event-62)          | 0x005A       |     40 |              8 |
| [63](#event-63)          | 0x0082       |     51 |             11 |
| [61](#event-61)          | 0x00B5       |     51 |             11 |
| [72](#event-72)          | 0x00E8       |     51 |             11 |
| [57](#event-57)          | 0x011B       |     43 |             10 |
| [58](#event-58)          | 0x0146       |     43 |             10 |
| [73](#event-73)          | 0x0171       |      1 |              1 |
| [99](#event-99)          | 0x0172       |   1155 |            169 |
| [59](#event-59)          | 0x05F5       |     39 |             10 |
| [60](#event-60)          | 0x061C       |     39 |             10 |
| [64](#event-64)          | 0x0643       |    389 |             59 |
| [101](#event-101)        | 0x07C8       |      1 |              1 |
| [70](#event-70)          | 0x07C9       |      1 |              1 |
| [76](#event-76)          | 0x07CA       |      1 |              1 |
| [38](#event-38)          | 0x07CB       |      1 |              1 |
| [65535.3](#event-655353) | 0x07CC       |     29 |              3 |
| [65535.4](#event-655354) | 0x07E9       |      1 |              1 |
| [10093](#event-10093)    | 0x07EA       |      1 |              1 |
| [10097](#event-10097)    | 0x07EB       |     28 |              6 |
| [10095](#event-10095)    | 0x0807       |      1 |              1 |
| [10100](#event-10100)    | 0x0808       |      1 |              1 |
| [10221](#event-10221)    | 0x0809       |      1 |              1 |
| [10230](#event-10230)    | 0x080A       |      1 |              1 |
| [10231](#event-10231)    | 0x080B       |      1 |              1 |
| [10232](#event-10232)    | 0x080C       |      1 |              1 |
| [10233](#event-10233)    | 0x080D       |      1 |              1 |
| [10234](#event-10234)    | 0x080E       |      1 |              1 |
| [65535.5](#event-655355) | 0x080F       |     87 |             19 |

## DAT References (imed_data)

|   Index | Hex Value   |   Dec Value |
|---------|-------------|-------------|
|       0 | 0x000D      |          13 |
|       1 | 0x001E      |          30 |
|       2 | 0x0014      |          20 |
|       3 | 0xFFFF199A  |  4294908314 |
|       4 | 0x15670     |       87664 |
|       5 | 0x2007      |        8199 |
|       6 | 0xFFFF1222  |  4294906402 |
|       7 | 0x14C26     |       85030 |
|       8 | 0x00DC      |         220 |
|       9 | 0x201D      |        8221 |
|      10 | 0x0090      |         144 |
|      11 | 0x0000      |           0 |
|      12 | 0x1BB8      |        7096 |
|      13 | 0x1BDC      |        7132 |
|      14 | 0x1BB9      |        7097 |
|      15 | 0x1BF8      |        7160 |
|      16 | 0x1C11      |        7185 |
|      17 | 0x1C12      |        7186 |
|      18 | 0x1BDD      |        7133 |
|      19 | 0x1BDE      |        7134 |
|      20 | 0x1BDF      |        7135 |
|      21 | 0x1BE0      |        7136 |
|      22 | 0x00C8      |         200 |
|      23 | 0x0003      |           3 |
|      24 | 0xFFFF10B7  |  4294906039 |
|      25 | 0x16AFD     |       92925 |
|      26 | 0x0899      |        2201 |
|      27 | 0x1BE1      |        7137 |
|      28 | 0x1BE2      |        7138 |
|      29 | 0x1BE3      |        7139 |
|      30 | 0x007B      |         123 |
|      31 | 0x003C      |          60 |
|      32 | 0x085F      |        2143 |
|      33 | 0x1BE4      |        7140 |
|      34 | 0x1BE5      |        7141 |
|      35 | 0x1BE6      |        7142 |
|      36 | 0x1BE7      |        7143 |
|      37 | 0x1BE8      |        7144 |
|      38 | 0x1BE9      |        7145 |
|      39 | 0x1BEA      |        7146 |
|      40 | 0x1BEB      |        7147 |
|      41 | 0x1BEC      |        7148 |
|      42 | 0x1BED      |        7149 |
|      43 | 0x1BEE      |        7150 |
|      44 | 0x1BEF      |        7151 |
|      45 | 0x1BF0      |        7152 |
|      46 | 0x1BF1      |        7153 |
|      47 | 0x1BF2      |        7154 |
|      48 | 0x0096      |         150 |
|      49 | 0x0001      |           1 |
|      50 | 0x1BF3      |        7155 |
|      51 | 0x1BF4      |        7156 |
|      52 | 0x1BF5      |        7157 |
|      53 | 0x005A      |          90 |
|      54 | 0x1BF6      |        7158 |
|      55 | 0x006E      |         110 |
|      56 | 0x1BF9      |        7161 |
|      57 | 0x1BFA      |        7162 |
|      58 | 0x1BFB      |        7163 |
|      59 | 0x1BFC      |        7164 |
|      60 | 0x007C      |         124 |
|      61 | 0x1BFF      |        7167 |
|      62 | 0x1C00      |        7168 |
|      63 | 0x1C01      |        7169 |
|      64 | 0x1C03      |        7171 |
|      65 | 0x1C02      |        7170 |
|      66 | 0x1C04      |        7172 |
|      67 | 0x00C9      |         201 |
|      68 | 0x2B98      |       11160 |
|      69 | 0xFFFF3828  |  4294916136 |
|      70 | 0x1721E     |       94750 |
|      71 | 0x1F40      |        8000 |
|      72 | 0xFFFF4E26  |  4294921766 |
|      73 | 0x17DF4     |       97780 |
|      74 | 0xFFFF601E  |  4294926366 |
|      75 | 0x16774     |       92020 |
|      76 | 0xFFFF574A  |  4294924106 |
|      77 | 0x14EA6     |       85670 |
|      78 | 0x1E14      |        7700 |
|      79 | 0xFFFF1924  |  4294908196 |
|      80 | 0x12ADE     |       76510 |
|      81 | 0xFFFF05B0  |  4294903216 |
|      82 | 0x1324A     |       78410 |
|      83 | 0xFFFEF19C  |  4294898076 |
|      84 | 0x167A6     |       92070 |
|      85 | 0xFFFEFAFC  |  4294900476 |
|      86 | 0x1D858     |      120920 |

## String References

- **7096**: Kweeeeh...
- **7097**: Kweh!!!
- **7133**: Kweh... (He still looks terrified of you.)
- **7135**: Kweh... (He still looks a little wary of you.)
- **7137**: Kweh! (He still looks slightly uncomfortable with you.)
- **7161**: Kweh! (He seems to be comfortable with you.)
- **7163**: Kweh! (He's eating joyfully.)
- **8221**: The chocobo looks extremely happy.
- **11160**: Kweh!!!

## Events

### Event 65535

#### Metadata

| Field        | Value   |
|--------------|---------|
| Entrypoint   | 0x0000  |
| Data Size    | 1 bytes |
| Instructions | 1       |

```
      00 01 02 03 04 05 06 07  08 09 0A 0B 0C 0D 0E 0F
      -- -- -- -- -- -- -- --  -- -- -- -- -- -- -- --
0000: 00                                                .               
```

#### Opcodes

```
  0: 0x0000 [0x00] END_REQSTACK()
```

### Event 12

#### Metadata

| Field        | Value   |
|--------------|---------|
| Entrypoint   | 0x0001  |
| Data Size    | 1 bytes |
| Instructions | 1       |

```
      00 01 02 03 04 05 06 07  08 09 0A 0B 0C 0D 0E 0F
      -- -- -- -- -- -- -- --  -- -- -- -- -- -- -- --
0000:    00                                              .              
```

#### Opcodes

```
  0: 0x0001 [0x00] END_REQSTACK()
```

### Event 13

#### Metadata

| Field        | Value   |
|--------------|---------|
| Entrypoint   | 0x0002  |
| Data Size    | 1 bytes |
| Instructions | 1       |

```
      00 01 02 03 04 05 06 07  08 09 0A 0B 0C 0D 0E 0F
      -- -- -- -- -- -- -- --  -- -- -- -- -- -- -- --
0000:       00                                            .             
```

#### Opcodes

```
  0: 0x0002 [0x00] END_REQSTACK()
```

### Event 17

#### Metadata

| Field        | Value   |
|--------------|---------|
| Entrypoint   | 0x0003  |
| Data Size    | 1 bytes |
| Instructions | 1       |

```
      00 01 02 03 04 05 06 07  08 09 0A 0B 0C 0D 0E 0F
      -- -- -- -- -- -- -- --  -- -- -- -- -- -- -- --
0000:          00                                          .            
```

#### Opcodes

```
  0: 0x0003 [0x00] END_REQSTACK()
```

### Event 65535.1

#### Metadata

| Field        | Value    |
|--------------|----------|
| Entrypoint   | 0x0004   |
| Data Size    | 25 bytes |
| Instructions | 7        |

```
      00 01 02 03 04 05 06 07  08 09 0A 0B 0C 0D 0E 0F
      -- -- -- -- -- -- -- --  -- -- -- -- -- -- -- --
0000:             32 00 80 1C  01 80 1E 0F 40 0F 01 1C      2.......@...
0010: 02 80 1F 00 03 80 04 80  05 80 1F 01 00           .............   
```

#### Opcodes

```
  0: 0x0004 [0x32] ExtData[1]->MainSpeed = 13* * 0.1
  1: 0x0007 [0x1C] WAIT(30* ticks)
  2: 0x000A [0x1E] EventEntity looks at Dietmund (ID: 17776655/0x010F400F) and starts talking
  3: 0x000F [0x1C] WAIT(20* ticks)
  4: 0x0012 [0x1F] MOVE_ENTITY: EventEntity moves to X=-58.982*, Z=87.664*, Y=8.199*
  5: 0x001A [0x1F] MOVE_ENTITY: Update entity position (mode=1)
  6: 0x001C [0x00] END_REQSTACK()
```

### Event 65535.2

#### Metadata

| Field        | Value    |
|--------------|----------|
| Entrypoint   | 0x001D   |
| Data Size    | 17 bytes |
| Instructions | 5        |

```
      00 01 02 03 04 05 06 07  08 09 0A 0B 0C 0D 0E 0F
      -- -- -- -- -- -- -- --  -- -- -- -- -- -- -- --
0010:                                         32 00 80               2..
0020: 1C 01 80 1F 00 06 80 07  80 05 80 1F 01 00        ..............  
```

#### Opcodes

```
  0: 0x001D [0x32] ExtData[1]->MainSpeed = 13* * 0.1
  1: 0x0020 [0x1C] WAIT(30* ticks)
  2: 0x0023 [0x1F] MOVE_ENTITY: EventEntity moves to X=-60.894*, Z=85.030*, Y=8.199*
  3: 0x002B [0x1F] MOVE_ENTITY: Update entity position (mode=1)
  4: 0x002D [0x00] END_REQSTACK()
```

### Event 55

#### Metadata

| Field        | Value    |
|--------------|----------|
| Entrypoint   | 0x002E   |
| Data Size    | 43 bytes |
| Instructions | 10       |

```
      00 01 02 03 04 05 06 07  08 09 0A 0B 0C 0D 0E 0F
      -- -- -- -- -- -- -- --  -- -- -- -- -- -- -- --
0020:                                            20 01                 .
0030: 1E F0 FF FF 7F 6F 70 5B  08 80 F8 FF FF 7F F8 FF  .....op[........
0040: FF 7F 79 6F 72 30 53 F8  FF FF 7F F8 FF FF 7F 79  ..yor0S........y
0050: 6F 72 30 48 09 80 23 21  00                       or0H..#!.       
```

#### Opcodes

```
  0: 0x002E [0x20] SET_CLI_EVENT_UC_FLAG: Lock player control
  1: 0x0030 [0x1E] EventEntity looks at LocalPlayer and starts talking
  2: 0x0035 [0x6F] WAIT_FRAME_DELAY: Yield until WaitTime reaches zero
  3: 0x0036 [0x70] WAIT_ENTITY_RENDER_FLAG: Wait while EventEntity->Render.Flags3 bit 2 is set (cancel turn if not)
  4: 0x0037 [0x5B] LOAD_EXT_SCHEDULER: Load scheduler "yor0" with entities [EventEntity, EventEntity], work=220*
  5: 0x0046 [0x53] WAIT_SCHEDULER_TASK: Wait for scheduler "yor0" with entities [EventEntity, EventEntity]
  6: 0x0053 [0x48] [System] [8221*]:
    → "The chocobo looks extremely happy."
  7: 0x0056 [0x23] WAIT_FOR_DIALOG_INTERACTION
  8: 0x0057 [0x21] END_EVENT
  9: 0x0058 [0x00] END_REQSTACK()
```

### Event 71

#### Metadata

| Field        | Value   |
|--------------|---------|
| Entrypoint   | 0x0059  |
| Data Size    | 1 bytes |
| Instructions | 1       |

```
      00 01 02 03 04 05 06 07  08 09 0A 0B 0C 0D 0E 0F
      -- -- -- -- -- -- -- --  -- -- -- -- -- -- -- --
0050:                             00                             .      
```

#### Opcodes

```
  0: 0x0059 [0x00] END_REQSTACK()
```

### Event 62

#### Metadata

| Field        | Value    |
|--------------|----------|
| Entrypoint   | 0x005A   |
| Data Size    | 40 bytes |
| Instructions | 8        |

```
      00 01 02 03 04 05 06 07  08 09 0A 0B 0C 0D 0E 0F
      -- -- -- -- -- -- -- --  -- -- -- -- -- -- -- --
0050:                                45 0A 80 F0 FF FF            E.....
0060: 7F F0 FF FF 7F 6E 61 6B  31 0B 80 1D 0C 80 23 4A  .....nak1.....#J
0070: 0D 40 0F 01 F0 FF FF 7F  2B 0D 40 0F 01 0D 80 23  .@......+.@....#
0080: 21 00                                             !.              
```

#### Opcodes

```
  0: 0x005A [0x45] LOAD_SCHEDULED_TASK: Load scheduler "nak1" with entities [LocalPlayer, LocalPlayer], work=[144*, 0*]
  1: 0x006B [0x1D] PRINT_EVENT_MESSAGE(message_id=7096*)
    → "Kweeeeh..."
  2: 0x006E [0x23] WAIT_FOR_DIALOG_INTERACTION
  3: 0x006F [0x4A] Osker (ID: 17776653/0x010F400D) looks at LocalPlayer
  4: 0x0078 [0x2B] Osker (ID: 17776653/0x010F400D) [7132*]:
    → "He's afraid of you. They're like that with people they don't know."
  5: 0x007F [0x23] WAIT_FOR_DIALOG_INTERACTION
  6: 0x0080 [0x21] END_EVENT
  7: 0x0081 [0x00] END_REQSTACK()
```

### Event 63

#### Metadata

| Field        | Value    |
|--------------|----------|
| Entrypoint   | 0x0082   |
| Data Size    | 51 bytes |
| Instructions | 11       |

```
      00 01 02 03 04 05 06 07  08 09 0A 0B 0C 0D 0E 0F
      -- -- -- -- -- -- -- --  -- -- -- -- -- -- -- --
0080:       1E F0 FF FF 7F 6F  76 F8 FF FF 7F 45 0A 80    .....ov....E..
0090: F0 FF FF 7F F0 FF FF 7F  6E 61 6B 31 0B 80 1D 0E  ........nak1....
00A0: 80 23 4A 0D 40 0F 01 F0  FF FF 7F 2B 0D 40 0F 01  .#J.@......+.@..
00B0: 0F 80 23 21 00                                    ..#!.           
```

#### Opcodes

```
  0: 0x0082 [0x1E] EventEntity looks at LocalPlayer and starts talking
  1: 0x0087 [0x6F] WAIT_FRAME_DELAY: Yield until WaitTime reaches zero
  2: 0x0088 [0x76] CHECK_ENTITY_RENDER_FLAGS: Wait until EventEntity Render.Flags0 and Render.Flags3 conditions are met
  3: 0x008D [0x45] LOAD_SCHEDULED_TASK: Load scheduler "nak1" with entities [LocalPlayer, LocalPlayer], work=[144*, 0*]
  4: 0x009E [0x1D] PRINT_EVENT_MESSAGE(message_id=7097*)
    → "Kweh!!!"
  5: 0x00A1 [0x23] WAIT_FOR_DIALOG_INTERACTION
  6: 0x00A2 [0x4A] Osker (ID: 17776653/0x010F400D) looks at LocalPlayer
  7: 0x00AB [0x2B] Osker (ID: 17776653/0x010F400D) [7160*]:
    → "Looks like he's used to you. He's not scared at all anymore."
  8: 0x00B2 [0x23] WAIT_FOR_DIALOG_INTERACTION
  9: 0x00B3 [0x21] END_EVENT
 10: 0x00B4 [0x00] END_REQSTACK()
```

### Event 61

#### Metadata

| Field        | Value    |
|--------------|----------|
| Entrypoint   | 0x00B5   |
| Data Size    | 51 bytes |
| Instructions | 11       |

```
      00 01 02 03 04 05 06 07  08 09 0A 0B 0C 0D 0E 0F
      -- -- -- -- -- -- -- --  -- -- -- -- -- -- -- --
00B0:                1E F0 FF  FF 7F 6F 76 F8 FF FF 7F       .....ov....
00C0: 45 0A 80 F0 FF FF 7F F0  FF FF 7F 6E 61 6B 32 0B  E..........nak2.
00D0: 80 1D 0E 80 23 4A 0D 40  0F 01 F0 FF FF 7F 2B 0D  ....#J.@......+.
00E0: 40 0F 01 10 80 23 21 00                           @....#!.        
```

#### Opcodes

```
  0: 0x00B5 [0x1E] EventEntity looks at LocalPlayer and starts talking
  1: 0x00BA [0x6F] WAIT_FRAME_DELAY: Yield until WaitTime reaches zero
  2: 0x00BB [0x76] CHECK_ENTITY_RENDER_FLAGS: Wait until EventEntity Render.Flags0 and Render.Flags3 conditions are met
  3: 0x00C0 [0x45] LOAD_SCHEDULED_TASK: Load scheduler "nak2" with entities [LocalPlayer, LocalPlayer], work=[144*, 0*]
  4: 0x00D1 [0x1D] PRINT_EVENT_MESSAGE(message_id=7097*)
    → "Kweh!!!"
  5: 0x00D4 [0x23] WAIT_FOR_DIALOG_INTERACTION
  6: 0x00D5 [0x4A] Osker (ID: 17776653/0x010F400D) looks at LocalPlayer
  7: 0x00DE [0x2B] Osker (ID: 17776653/0x010F400D) [7185*]:
    → "Ha-ha! He's so docile now."
  8: 0x00E5 [0x23] WAIT_FOR_DIALOG_INTERACTION
  9: 0x00E6 [0x21] END_EVENT
 10: 0x00E7 [0x00] END_REQSTACK()
```

### Event 72

#### Metadata

| Field        | Value    |
|--------------|----------|
| Entrypoint   | 0x00E8   |
| Data Size    | 51 bytes |
| Instructions | 11       |

```
      00 01 02 03 04 05 06 07  08 09 0A 0B 0C 0D 0E 0F
      -- -- -- -- -- -- -- --  -- -- -- -- -- -- -- --
00E0:                          1E F0 FF FF 7F 6F 76 F8          .....ov.
00F0: FF FF 7F 45 0A 80 F0 FF  FF 7F F0 FF FF 7F 6E 61  ...E..........na
0100: 6B 32 0B 80 1D 0E 80 23  4A 0D 40 0F 01 F0 FF FF  k2.....#J.@.....
0110: 7F 2B 0D 40 0F 01 11 80  23 21 00                 .+.@....#!.     
```

#### Opcodes

```
  0: 0x00E8 [0x1E] EventEntity looks at LocalPlayer and starts talking
  1: 0x00ED [0x6F] WAIT_FRAME_DELAY: Yield until WaitTime reaches zero
  2: 0x00EE [0x76] CHECK_ENTITY_RENDER_FLAGS: Wait until EventEntity Render.Flags0 and Render.Flags3 conditions are met
  3: 0x00F3 [0x45] LOAD_SCHEDULED_TASK: Load scheduler "nak2" with entities [LocalPlayer, LocalPlayer], work=[144*, 0*]
  4: 0x0104 [0x1D] PRINT_EVENT_MESSAGE(message_id=7097*)
    → "Kweh!!!"
  5: 0x0107 [0x23] WAIT_FOR_DIALOG_INTERACTION
  6: 0x0108 [0x4A] Osker (ID: 17776653/0x010F400D) looks at LocalPlayer
  7: 0x0111 [0x2B] Osker (ID: 17776653/0x010F400D) [7186*]:
    → "I'd hate to see him go, but maybe sending him back would be the best thing for him."
  8: 0x0118 [0x23] WAIT_FOR_DIALOG_INTERACTION
  9: 0x0119 [0x21] END_EVENT
 10: 0x011A [0x00] END_REQSTACK()
```

### Event 57

#### Metadata

| Field        | Value    |
|--------------|----------|
| Entrypoint   | 0x011B   |
| Data Size    | 43 bytes |
| Instructions | 10       |

```
      00 01 02 03 04 05 06 07  08 09 0A 0B 0C 0D 0E 0F
      -- -- -- -- -- -- -- --  -- -- -- -- -- -- -- --
0110:                                   20 01 42 45 0A              .BE.
0120: 80 F0 FF FF 7F F0 FF FF  7F 6E 61 6B 31 0B 80 1D  .........nak1...
0130: 12 80 23 4A 0D 40 0F 01  F0 FF FF 7F 2B 0D 40 0F  ..#J.@......+.@.
0140: 01 13 80 23 21 00                                 ...#!.          
```

#### Opcodes

```
  0: 0x011B [0x20] SET_CLI_EVENT_UC_FLAG: Lock player control
  1: 0x011D [0x42] SET_CLI_EVENT_CANCEL_DATA()
  2: 0x011E [0x45] LOAD_SCHEDULED_TASK: Load scheduler "nak1" with entities [LocalPlayer, LocalPlayer], work=[144*, 0*]
  3: 0x012F [0x1D] PRINT_EVENT_MESSAGE(message_id=7133*)
    → "Kweh... (He still looks terrified of you.)"
  4: 0x0132 [0x23] WAIT_FOR_DIALOG_INTERACTION
  5: 0x0133 [0x4A] Osker (ID: 17776653/0x010F400D) looks at LocalPlayer
  6: 0x013C [0x2B] Osker (ID: 17776653/0x010F400D) [7134*]:
    → "They won't eat a thing until they're comfortable with you. Just keep at it, okay?"
  7: 0x0143 [0x23] WAIT_FOR_DIALOG_INTERACTION
  8: 0x0144 [0x21] END_EVENT
  9: 0x0145 [0x00] END_REQSTACK()
```

### Event 58

#### Metadata

| Field        | Value    |
|--------------|----------|
| Entrypoint   | 0x0146   |
| Data Size    | 43 bytes |
| Instructions | 10       |

```
      00 01 02 03 04 05 06 07  08 09 0A 0B 0C 0D 0E 0F
      -- -- -- -- -- -- -- --  -- -- -- -- -- -- -- --
0140:                   20 01  42 45 0A 80 F0 FF FF 7F         .BE......
0150: F0 FF FF 7F 6E 61 6B 31  0B 80 1D 14 80 23 4A 0D  ....nak1.....#J.
0160: 40 0F 01 F0 FF FF 7F 2B  0D 40 0F 01 15 80 23 21  @......+.@....#!
0170: 00                                                .               
```

#### Opcodes

```
  0: 0x0146 [0x20] SET_CLI_EVENT_UC_FLAG: Lock player control
  1: 0x0148 [0x42] SET_CLI_EVENT_CANCEL_DATA()
  2: 0x0149 [0x45] LOAD_SCHEDULED_TASK: Load scheduler "nak1" with entities [LocalPlayer, LocalPlayer], work=[144*, 0*]
  3: 0x015A [0x1D] PRINT_EVENT_MESSAGE(message_id=7135*)
    → "Kweh... (He still looks a little wary of you.)"
  4: 0x015D [0x23] WAIT_FOR_DIALOG_INTERACTION
  5: 0x015E [0x4A] Osker (ID: 17776653/0x010F400D) looks at LocalPlayer
  6: 0x0167 [0x2B] Osker (ID: 17776653/0x010F400D) [7136*]:
    → "Nope, still no go. A friendly chocobo would be eating already, but this one's different."
  7: 0x016E [0x23] WAIT_FOR_DIALOG_INTERACTION
  8: 0x016F [0x21] END_EVENT
  9: 0x0170 [0x00] END_REQSTACK()
```

### Event 73

#### Metadata

| Field        | Value   |
|--------------|---------|
| Entrypoint   | 0x0171  |
| Data Size    | 1 bytes |
| Instructions | 1       |

```
      00 01 02 03 04 05 06 07  08 09 0A 0B 0C 0D 0E 0F
      -- -- -- -- -- -- -- --  -- -- -- -- -- -- -- --
0170:    00                                              .              
```

#### Opcodes

```
  0: 0x0171 [0x00] END_REQSTACK()
```

### Event 99

#### Metadata

| Field        | Value      |
|--------------|------------|
| Entrypoint   | 0x0172     |
| Data Size    | 1155 bytes |
| Instructions | 167        |

```
      00 01 02 03 04 05 06 07  08 09 0A 0B 0C 0D 0E 0F
      -- -- -- -- -- -- -- --  -- -- -- -- -- -- -- --
0170:       20 01 46 01 42 45  16 80 F0 FF FF 7F F0 FF     .F.BE........
0180: FF 7F 66 64 6F 31 0B 80  55 16 80 F0 FF FF 7F F0  ..fdo1..U.......
0190: FF FF 7F 66 64 6F 31 38  17 80 37 18 80 19 80 05  ...fdo18..7.....
01A0: 80 1A 80 29 03 F0 FF FF  7F 11 45 0A 80 F0 FF FF  ...)......E.....
01B0: 7F F0 FF FF 7F 63 6D 31  30 0B 80 1E F0 FF FF 7F  .....cm10.......
01C0: 6F 76 F0 FF FF 7F 45 16  80 F0 FF FF 7F F0 FF FF  ov....E.........
01D0: 7F 66 64 69 31 0B 80 55  16 80 F0 FF FF 7F F0 FF  .fdi1..U........
01E0: FF 7F 66 64 69 31 45 0A  80 F0 FF FF 7F F0 FF FF  ..fdi1E.........
01F0: 7F 6E 61 6B 32 0B 80 1D  1B 80 23 5B 08 80 0A 40  .nak2.....#[...@
0200: 0F 01 0A 40 0F 01 6D 6F  67 30 53 0A 40 0F 01 0A  ...@..mog0S.@...
0210: 40 0F 01 6D 6F 67 30 4A  0D 40 0F 01 F0 FF FF 7F  @..mog0J.@......
0220: 2B 0D 40 0F 01 1C 80 23  29 03 0C 40 0F 01 22 45  +.@....#)..@.."E
0230: 0A 80 F0 FF FF 7F F0 FF  FF 7F 6E 61 6B 32 0B 80  ..........nak2..
0240: 5B 08 80 0A 40 0F 01 0A  40 0F 01 79 6F 72 30 4A  [...@...@..yor0J
0250: F0 FF FF 7F 0C 40 0F 01  27 03 0C 40 0F 01 27 2B  .....@..'..@..'+
0260: 0C 40 0F 01 1D 80 23 29  04 0C 40 0F 01 2B 4A 0A  .@....#)..@..+J.
0270: 40 0F 01 0F 40 0F 01 5C  00 1E 80 5C 01 1E 80 4E  @...@..\...\...N
0280: 00 0F 40 0F 01 27 03 0F  40 0F 01 09 1C 1F 80 7B  ..@..'..@......{
0290: 0A 40 0F 01 45 0A 80 F0  FF FF 7F F0 FF FF 7F 6E  .@..E..........n
02A0: 61 6B 31 0B 80 4B 0A 40  0F 01 20 80 6F 76 0A 40  ak1..K.@.. .ov.@
02B0: 0F 01 29 04 0F 40 0F 01  0C 5B 08 80 0A 40 0F 01  ..)..@...[...@..
02C0: 0A 40 0F 01 62 69 6B 30  2B 0F 40 0F 01 21 80 23  .@..bik0+.@..!.#
02D0: 29 04 0F 40 0F 01 0C 4A  0D 40 0F 01 0F 40 0F 01  )..@...J.@...@..
02E0: 4A 0C 40 0F 01 0F 40 0F  01 4A F0 FF FF 7F 0F 40  J.@...@..J.....@
02F0: 0F 01 6F 76 0D 40 0F 01  45 0A 80 F0 FF FF 7F F0  ..ov.@..E.......
0300: FF FF 7F 63 6D 31 31 0B  80 55 0A 80 F0 FF FF 7F  ...cm11..U......
0310: F0 FF FF 7F 63 6D 31 31  29 03 0D 40 0F 01 25 2B  ....cm11)..@..%+
0320: 0D 40 0F 01 22 80 23 4A  0F 40 0F 01 0D 40 0F 01  .@..".#J.@...@..
0330: 6F 76 0F 40 0F 01 27 03  0F 40 0F 01 13 2B 0F 40  ov.@..'..@...+.@
0340: 0F 01 23 80 23 29 04 0F  40 0F 01 14 27 03 0D 40  ..#.#)..@...'..@
0350: 0F 01 29 2B 0D 40 0F 01  24 80 23 29 04 0D 40 0F  ..)+.@..$.#)..@.
0360: 01 2C 27 03 0F 40 0F 01  15 2B 0F 40 0F 01 25 80  .,'..@...+.@..%.
0370: 23 29 04 0F 40 0F 01 16  4A 0D 40 0F 01 0C 40 0F  #)..@...J.@...@.
0380: 01 2B 0D 40 0F 01 26 80  23 27 03 0C 40 0F 01 28  .+.@..&.#'..@..(
0390: 2B 0C 40 0F 01 27 80 23  4A 0D 40 0F 01 0F 40 0F  +.@..'.#J.@...@.
03A0: 01 4A 0F 40 0F 01 0C 40  0F 01 27 03 0F 40 0F 01  .J.@...@..'..@..
03B0: 17 2B 0F 40 0F 01 28 80  23 2B 0F 40 0F 01 29 80  .+.@..(.#+.@..).
03C0: 23 2B 0F 40 0F 01 2A 80  23 29 05 0F 40 0F 01 18  #+.@..*.#)..@...
03D0: 27 04 0C 40 0F 01 29 7B  0F 40 0F 01 27 03 0F 40  '..@..){.@..'..@
03E0: 0F 01 0D 1C 1F 80 45 0A  80 F0 FF FF 7F F0 FF FF  ......E.........
03F0: 7F 63 6D 31 32 0B 80 4A  F0 FF FF 7F 0F 40 0F 01  .cm12..J.....@..
0400: 4A 0C 40 0F 01 0F 40 0F  01 4A 0D 40 0F 01 0F 40  J.@...@..J.@...@
0410: 0F 01 1C 1F 80 4A F0 FF  FF 7F 0F 40 0F 01 4A 0C  .....J.....@..J.
0420: 40 0F 01 0F 40 0F 01 4A  0D 40 0F 01 0F 40 0F 01  @...@..J.@...@..
0430: 29 04 0F 40 0F 01 0C 55  0A 80 F0 FF FF 7F F0 FF  )..@...U........
0440: FF 7F 63 6D 31 32 2B 0F  40 0F 01 2B 80 23 5B 08  ..cm12+.@..+.#[.
0450: 80 0A 40 0F 01 0A 40 0F  01 69 79 61 30 45 0A 80  ..@...@..iya0E..
0460: F0 FF FF 7F F0 FF FF 7F  6E 61 6B 31 0B 80 2B 0A  ........nak1..+.
0470: 40 0F 01 2C 80 23 2B 0D  40 0F 01 2D 80 23 4A 0F  @..,.#+.@..-.#J.
0480: 40 0F 01 0D 40 0F 01 2B  0F 40 0F 01 2E 80 23 4A  @...@..+.@....#J
0490: 0F 40 0F 01 0C 40 0F 01  2B 0F 40 0F 01 2F 80 23  .@...@..+.@../.#
04A0: 27 03 0F 40 0F 01 0E 1C  01 80 4A F0 FF FF 7F 0F  '..@......J.....
04B0: 40 0F 01 4A 0D 40 0F 01  0F 40 0F 01 4A 0C 40 0F  @..J.@...@..J.@.
04C0: 01 0F 40 0F 01 1C 01 80  45 0A 80 F0 FF FF 7F F0  ..@.....E.......
04D0: FF FF 7F 63 6D 31 33 0B  80 06 00 00 02 00 00 30  ...cm13........0
04E0: 80 05 08 05 4A F0 FF FF  7F 0F 40 0F 01 4A 0D 40  ....J.....@..J.@
04F0: 0F 01 0F 40 0F 01 4A 0C  40 0F 01 0F 40 0F 01 1C  ...@..J.@...@...
0500: 31 80 0B 00 00 01 DC 04  29 04 0F 40 0F 01 0C 6F  1.......)..@...o
0510: 76 0C 40 0F 01 5B 08 80  0A 40 0F 01 0A 40 0F 01  v.@..[...@...@..
0520: 69 79 61 31 55 0A 80 F0  FF FF 7F F0 FF FF 7F 63  iya1U..........c
0530: 6D 31 33 29 03 0C 40 0F  01 28 2B 0C 40 0F 01 32  m13)..@..(+.@..2
0540: 80 23 29 04 0C 40 0F 01  29 4A 0C 40 0F 01 F0 FF  .#)..@..)J.@....
0550: FF 7F 6F 76 0C 40 0F 01  4A F0 FF FF 7F 0C 40 0F  ..ov.@..J.....@.
0560: 01 4A 0D 40 0F 01 0C 40  0F 01 29 03 0C 40 0F 01  .J.@...@..)..@..
0570: 27 2B 0C 40 0F 01 33 80  23 2B 0C 40 0F 01 34 80  '+.@..3.#+.@..4.
0580: 23 29 04 0C 40 0F 01 2B  27 05 0C 40 0F 01 24 1C  #)..@..+'..@..$.
0590: 35 80 4A 0D 40 0F 01 F0  FF FF 7F 6F 76 0D 40 0F  5.J.@......ov.@.
05A0: 01 2B 0D 40 0F 01 36 80  23 29 04 0C 40 0F 01 2C  .+.@..6.#)..@..,
05B0: 45 16 80 F0 FF FF 7F F0  FF FF 7F 66 64 6F 32 0B  E..........fdo2.
05C0: 80 55 16 80 F0 FF FF 7F  F0 FF FF 7F 66 64 6F 32  .U..........fdo2
05D0: 4E 01 0F 40 0F 01 5C 00  37 80 5C 01 37 80 46 00  N..@..\.7.\.7.F.
05E0: 45 16 80 F0 FF FF 7F F0  FF FF 7F 66 64 69 32 0B  E..........fdi2.
05F0: 80 21 00 21 00                                    .!.!.           
```

#### Opcodes

```
  0: 0x0172 [0x20] SET_CLI_EVENT_UC_FLAG: Lock player control
  1: 0x0174 [0x46] CAMERA_CONTROL: Disable user control
  2: 0x0176 [0x42] SET_CLI_EVENT_CANCEL_DATA()
  3: 0x0177 [0x45] LOAD_SCHEDULED_TASK: Load scheduler "fdo1" with entities [LocalPlayer, LocalPlayer], work=[200*, 0*]
  4: 0x0188 [0x55] WAIT_LOAD_SCHEDULER: Wait for scheduler "fdo1" with entities [LocalPlayer, LocalPlayer], work=200*
  5: 0x0197 [0x38] SET_CLIENT_EVENT_MODE(mode=3*)
  6: 0x019A [0x37] UPDATE_EVENT_POSITION_AND_DIR: x=-61.257*, z=92.925*, y=8.199*, direction=193.4°*
  7: 0x01A3 [0x29] REQ_SET_WAIT(priority=0x03, entity_id=LocalPlayer, tag_num=0x11)
  8: 0x01AA [0x45] LOAD_SCHEDULED_TASK: Load scheduler "cm10" with entities [LocalPlayer, LocalPlayer], work=[144*, 0*]
  9: 0x01BB [0x1E] EventEntity looks at LocalPlayer and starts talking
 10: 0x01C0 [0x6F] WAIT_FRAME_DELAY: Yield until WaitTime reaches zero
 11: 0x01C1 [0x76] CHECK_ENTITY_RENDER_FLAGS: Wait until LocalPlayer Render.Flags0 and Render.Flags3 conditions are met
 12: 0x01C6 [0x45] LOAD_SCHEDULED_TASK: Load scheduler "fdi1" with entities [LocalPlayer, LocalPlayer], work=[200*, 0*]
 13: 0x01D7 [0x55] WAIT_LOAD_SCHEDULER: Wait for scheduler "fdi1" with entities [LocalPlayer, LocalPlayer], work=200*
 14: 0x01E6 [0x45] LOAD_SCHEDULED_TASK: Load scheduler "nak2" with entities [LocalPlayer, LocalPlayer], work=[144*, 0*]
 15: 0x01F7 [0x1D] PRINT_EVENT_MESSAGE(message_id=7137*)
    → "Kweh! (He still looks slightly uncomfortable with you.)"
 16: 0x01FA [0x23] WAIT_FOR_DIALOG_INTERACTION
 17: 0x01FB [0x5B] LOAD_EXT_SCHEDULER: Load scheduler "mog0" with entities [Chocobo (ID: 17776650/0x010F400A), Chocobo (ID: 17776650/0x010F400A)], work=220*
 18: 0x020A [0x53] WAIT_SCHEDULER_TASK: Wait for scheduler "mog0" with entities [Chocobo (ID: 17776650/0x010F400A), Chocobo (ID: 17776650/0x010F400A)]
 19: 0x0217 [0x4A] Osker (ID: 17776653/0x010F400D) looks at LocalPlayer
 20: 0x0220 [0x2B] Osker (ID: 17776653/0x010F400D) [7138*]:
    → "Wow, I thought it would take longer. I think we've almost won him over!"
 21: 0x0227 [0x23] WAIT_FOR_DIALOG_INTERACTION
 22: 0x0228 [0x29] REQ_SET_WAIT(priority=0x03, entity_id=Brutus (ID: 17776652/0x010F400C), tag_num=0x22)
 23: 0x022F [0x45] LOAD_SCHEDULED_TASK: Load scheduler "nak2" with entities [LocalPlayer, LocalPlayer], work=[144*, 0*]
 24: 0x0240 [0x5B] LOAD_EXT_SCHEDULER: Load scheduler "yor0" with entities [Chocobo (ID: 17776650/0x010F400A), Chocobo (ID: 17776650/0x010F400A)], work=220*
 25: 0x024F [0x4A] LocalPlayer looks at Brutus (ID: 17776652/0x010F400C)
 26: 0x0258 [0x27] REQ_SET(priority=0x03, entity_id=Brutus (ID: 17776652/0x010F400C), tag_num=0x27)
 27: 0x025F [0x2B] Brutus (ID: 17776652/0x010F400C) [7139*]:
    → "Well, look what we have here! He's already munchin' away. Looks like he's almost ready."
 28: 0x0266 [0x23] WAIT_FOR_DIALOG_INTERACTION
 29: 0x0267 [0x29] REQ_SET_WAIT(priority=0x04, entity_id=Brutus (ID: 17776652/0x010F400C), tag_num=0x2B)
 30: 0x026E [0x4A] Chocobo (ID: 17776650/0x010F400A) looks at Dietmund (ID: 17776655/0x010F400F)
 31: 0x0277 [0x5C] MUSIC_CONTROL: Set Idle (Day) music to song 123*
 32: 0x027B [0x5C] MUSIC_CONTROL: Set Idle (Night) music to song 123*
 33: 0x027F [0x4E] SET_ENTITY_HIDE_FLAG: Show Dietmund (ID: 17776655/0x010F400F)
 34: 0x0285 [0x27] REQ_SET(priority=0x03, entity_id=Dietmund (ID: 17776655/0x010F400F), tag_num=0x09)
 35: 0x028C [0x1C] WAIT(60* ticks)
 36: 0x028F [0x7B] Chocobo (ID: 17776650/0x010F400A) stops talking
 37: 0x0294 [0x45] LOAD_SCHEDULED_TASK: Load scheduler "nak1" with entities [LocalPlayer, LocalPlayer], work=[144*, 0*]
 38: 0x02A5 [0x4B] UPDATE_ENTITY_YAW(entity=Chocobo (ID: 17776650/0x010F400A), yaw=11.8°*)
 39: 0x02AC [0x6F] WAIT_FRAME_DELAY: Yield until WaitTime reaches zero
 40: 0x02AD [0x76] CHECK_ENTITY_RENDER_FLAGS: Wait until Chocobo (ID: 17776650/0x010F400A) Render.Flags0 and Render.Flags3 conditions are met
 41: 0x02B2 [0x29] REQ_SET_WAIT(priority=0x04, entity_id=Dietmund (ID: 17776655/0x010F400F), tag_num=0x0C)
 42: 0x02B9 [0x5B] LOAD_EXT_SCHEDULER: Load scheduler "bik0" with entities [Chocobo (ID: 17776650/0x010F400A), Chocobo (ID: 17776650/0x010F400A)], work=220*
 43: 0x02C8 [0x2B] Dietmund (ID: 17776655/0x010F400F) [7140*]:
    → "Right when I thought I'd lost you, I find your sorry face here."
 44: 0x02CF [0x23] WAIT_FOR_DIALOG_INTERACTION
 45: 0x02D0 [0x29] REQ_SET_WAIT(priority=0x04, entity_id=Dietmund (ID: 17776655/0x010F400F), tag_num=0x0C)
 46: 0x02D7 [0x4A] Osker (ID: 17776653/0x010F400D) looks at Dietmund (ID: 17776655/0x010F400F)
 47: 0x02E0 [0x4A] Brutus (ID: 17776652/0x010F400C) looks at Dietmund (ID: 17776655/0x010F400F)
 48: 0x02E9 [0x4A] LocalPlayer looks at Dietmund (ID: 17776655/0x010F400F)
 49: 0x02F2 [0x6F] WAIT_FRAME_DELAY: Yield until WaitTime reaches zero
 50: 0x02F3 [0x76] CHECK_ENTITY_RENDER_FLAGS: Wait until Osker (ID: 17776653/0x010F400D) Render.Flags0 and Render.Flags3 conditions are met
 51: 0x02F8 [0x45] LOAD_SCHEDULED_TASK: Load scheduler "cm11" with entities [LocalPlayer, LocalPlayer], work=[144*, 0*]
 52: 0x0309 [0x55] WAIT_LOAD_SCHEDULER: Wait for scheduler "cm11" with entities [LocalPlayer, LocalPlayer], work=144*
 53: 0x0318 [0x29] REQ_SET_WAIT(priority=0x03, entity_id=Osker (ID: 17776653/0x010F400D), tag_num=0x25)
 54: 0x031F [0x2B] Osker (ID: 17776653/0x010F400D) [7141*]:
    → "Who the heck are you!? It ain't polite to barge into a chocobo corral, partner."
 55: 0x0326 [0x23] WAIT_FOR_DIALOG_INTERACTION
 56: 0x0327 [0x4A] Dietmund (ID: 17776655/0x010F400F) looks at Osker (ID: 17776653/0x010F400D)
 57: 0x0330 [0x6F] WAIT_FRAME_DELAY: Yield until WaitTime reaches zero
 58: 0x0331 [0x76] CHECK_ENTITY_RENDER_FLAGS: Wait until Dietmund (ID: 17776655/0x010F400F) Render.Flags0 and Render.Flags3 conditions are met
 59: 0x0336 [0x27] REQ_SET(priority=0x03, entity_id=Dietmund (ID: 17776655/0x010F400F), tag_num=0x13)
 60: 0x033D [0x2B] Dietmund (ID: 17776655/0x010F400F) [7142*]:
    → "Don't talk like that to me, thief. I'm here to take back what's rightfully mine."
 61: 0x0344 [0x23] WAIT_FOR_DIALOG_INTERACTION
 62: 0x0345 [0x29] REQ_SET_WAIT(priority=0x04, entity_id=Dietmund (ID: 17776655/0x010F400F), tag_num=0x14)
 63: 0x034C [0x27] REQ_SET(priority=0x03, entity_id=Osker (ID: 17776653/0x010F400D), tag_num=0x29)
 64: 0x0353 [0x2B] Osker (ID: 17776653/0x010F400D) [7143*]:
    → "We don't house thieves here, mister. And I don't recall taking anyone's property."
 65: 0x035A [0x23] WAIT_FOR_DIALOG_INTERACTION
 66: 0x035B [0x29] REQ_SET_WAIT(priority=0x04, entity_id=Osker (ID: 17776653/0x010F400D), tag_num=0x2C)
 67: 0x0362 [0x27] REQ_SET(priority=0x03, entity_id=Dietmund (ID: 17776655/0x010F400F), tag_num=0x15)
 68: 0x0369 [0x2B] Dietmund (ID: 17776655/0x010F400F) [7144*]:
    → "This chocobo belongs to me. Can't you see the brand? Now give him back."
 69: 0x0370 [0x23] WAIT_FOR_DIALOG_INTERACTION
 70: 0x0371 [0x29] REQ_SET_WAIT(priority=0x04, entity_id=Dietmund (ID: 17776655/0x010F400F), tag_num=0x16)
 71: 0x0378 [0x4A] Osker (ID: 17776653/0x010F400D) looks at Brutus (ID: 17776652/0x010F400C)
 72: 0x0381 [0x2B] Osker (ID: 17776653/0x010F400D) [7145*]:
    → "Wait, that means--Master, come quickly!"
 73: 0x0388 [0x23] WAIT_FOR_DIALOG_INTERACTION
 74: 0x0389 [0x27] REQ_SET(priority=0x03, entity_id=Brutus (ID: 17776652/0x010F400C), tag_num=0x28)
 75: 0x0390 [0x2B] Brutus (ID: 17776652/0x010F400C) [7146*]:
    → "Mister, you may be a chocobo handler, but I reckon you handle 'em roughly!"
 76: 0x0397 [0x23] WAIT_FOR_DIALOG_INTERACTION
 77: 0x0398 [0x4A] Osker (ID: 17776653/0x010F400D) looks at Dietmund (ID: 17776655/0x010F400F)
 78: 0x03A1 [0x4A] Dietmund (ID: 17776655/0x010F400F) looks at Brutus (ID: 17776652/0x010F400C)
 79: 0x03AA [0x27] REQ_SET(priority=0x03, entity_id=Dietmund (ID: 17776655/0x010F400F), tag_num=0x17)
 80: 0x03B1 [0x2B] Dietmund (ID: 17776655/0x010F400F) [7147*]:
    → "So? You got a problem with that? Spoil your animals and they'll never obey."
 81: 0x03B8 [0x23] WAIT_FOR_DIALOG_INTERACTION
 82: 0x03B9 [0x2B] Dietmund (ID: 17776655/0x010F400F) [7148*]:
    → "You gotta instill 'em with fear! I mean, come on... They're just animals! You eat meat, don't you?"
 83: 0x03C0 [0x23] WAIT_FOR_DIALOG_INTERACTION
 84: 0x03C1 [0x2B] Dietmund (ID: 17776655/0x010F400F) [7149*]:
    → "So don't lecture me over what I do with 'em."
 85: 0x03C8 [0x23] WAIT_FOR_DIALOG_INTERACTION
 86: 0x03C9 [0x29] REQ_SET_WAIT(priority=0x05, entity_id=Dietmund (ID: 17776655/0x010F400F), tag_num=0x18)
 87: 0x03D0 [0x27] REQ_SET(priority=0x04, entity_id=Brutus (ID: 17776652/0x010F400C), tag_num=0x29)
 88: 0x03D7 [0x7B] Dietmund (ID: 17776655/0x010F400F) stops talking
 89: 0x03DC [0x27] REQ_SET(priority=0x03, entity_id=Dietmund (ID: 17776655/0x010F400F), tag_num=0x0D)
 90: 0x03E3 [0x1C] WAIT(60* ticks)
 91: 0x03E6 [0x45] LOAD_SCHEDULED_TASK: Load scheduler "cm12" with entities [LocalPlayer, LocalPlayer], work=[144*, 0*]
 92: 0x03F7 [0x4A] LocalPlayer looks at Dietmund (ID: 17776655/0x010F400F)
 93: 0x0400 [0x4A] Brutus (ID: 17776652/0x010F400C) looks at Dietmund (ID: 17776655/0x010F400F)
 94: 0x0409 [0x4A] Osker (ID: 17776653/0x010F400D) looks at Dietmund (ID: 17776655/0x010F400F)
 95: 0x0412 [0x1C] WAIT(60* ticks)
 96: 0x0415 [0x4A] LocalPlayer looks at Dietmund (ID: 17776655/0x010F400F)
 97: 0x041E [0x4A] Brutus (ID: 17776652/0x010F400C) looks at Dietmund (ID: 17776655/0x010F400F)
 98: 0x0427 [0x4A] Osker (ID: 17776653/0x010F400D) looks at Dietmund (ID: 17776655/0x010F400F)
 99: 0x0430 [0x29] REQ_SET_WAIT(priority=0x04, entity_id=Dietmund (ID: 17776655/0x010F400F), tag_num=0x0C)
100: 0x0437 [0x55] WAIT_LOAD_SCHEDULER: Wait for scheduler "cm12" with entities [LocalPlayer, LocalPlayer], work=144*
101: 0x0446 [0x2B] Dietmund (ID: 17776655/0x010F400F) [7150*]:
    → "Come on, let's go."
102: 0x044D [0x23] WAIT_FOR_DIALOG_INTERACTION
103: 0x044E [0x5B] LOAD_EXT_SCHEDULER: Load scheduler "iya0" with entities [Chocobo (ID: 17776650/0x010F400A), Chocobo (ID: 17776650/0x010F400A)], work=220*
104: 0x045D [0x45] LOAD_SCHEDULED_TASK: Load scheduler "nak1" with entities [LocalPlayer, LocalPlayer], work=[144*, 0*]
105: 0x046E [0x2B] Chocobo (ID: 17776650/0x010F400A) [7151*]:
    → "Kweh!"
106: 0x0475 [0x23] WAIT_FOR_DIALOG_INTERACTION
107: 0x0476 [0x2B] Osker (ID: 17776653/0x010F400D) [7152*]:
    → "Lay off, mister! You're scaring him!"
108: 0x047D [0x23] WAIT_FOR_DIALOG_INTERACTION
109: 0x047E [0x4A] Dietmund (ID: 17776655/0x010F400F) looks at Osker (ID: 17776653/0x010F400D)
110: 0x0487 [0x2B] Dietmund (ID: 17776655/0x010F400F) [7153*]:
    → "Yeah? Well, that's 'cause you've spoiled him rotten!"
111: 0x048E [0x23] WAIT_FOR_DIALOG_INTERACTION
112: 0x048F [0x4A] Dietmund (ID: 17776655/0x010F400F) looks at Brutus (ID: 17776652/0x010F400C)
113: 0x0498 [0x2B] Dietmund (ID: 17776655/0x010F400F) [7154*]:
    → "I'll be back for what's mine. You mark my words!"
114: 0x049F [0x23] WAIT_FOR_DIALOG_INTERACTION
115: 0x04A0 [0x27] REQ_SET(priority=0x03, entity_id=Dietmund (ID: 17776655/0x010F400F), tag_num=0x0E)
116: 0x04A7 [0x1C] WAIT(30* ticks)
117: 0x04AA [0x4A] LocalPlayer looks at Dietmund (ID: 17776655/0x010F400F)
118: 0x04B3 [0x4A] Osker (ID: 17776653/0x010F400D) looks at Dietmund (ID: 17776655/0x010F400F)
119: 0x04BC [0x4A] Brutus (ID: 17776652/0x010F400C) looks at Dietmund (ID: 17776655/0x010F400F)
120: 0x04C5 [0x1C] WAIT(30* ticks)
121: 0x04C8 [0x45] LOAD_SCHEDULED_TASK: Load scheduler "cm13" with entities [LocalPlayer, LocalPlayer], work=[144*, 0*]
122: 0x04D9 [0x06] ExtData[1]->WorkLocal[0] = 0
123: 0x04DC [0x02] IF !(ExtData[1]->WorkLocal[0] > 150*) GOTO 0x0508
124: 0x04E4 [0x4A] LocalPlayer looks at Dietmund (ID: 17776655/0x010F400F)
125: 0x04ED [0x4A] Osker (ID: 17776653/0x010F400D) looks at Dietmund (ID: 17776655/0x010F400F)
126: 0x04F6 [0x4A] Brutus (ID: 17776652/0x010F400C) looks at Dietmund (ID: 17776655/0x010F400F)
127: 0x04FF [0x1C] WAIT(1* ticks)
128: 0x0502 [0x0B] ExtData[1]->WorkLocal[0]++
129: 0x0505 [0x01] GOTO 0x04DC
130: 0x0508 [0x29] REQ_SET_WAIT(priority=0x04, entity_id=Dietmund (ID: 17776655/0x010F400F), tag_num=0x0C)
131: 0x050F [0x6F] WAIT_FRAME_DELAY: Yield until WaitTime reaches zero
132: 0x0510 [0x76] CHECK_ENTITY_RENDER_FLAGS: Wait until Brutus (ID: 17776652/0x010F400C) Render.Flags0 and Render.Flags3 conditions are met
133: 0x0515 [0x5B] LOAD_EXT_SCHEDULER: Load scheduler "iya1" with entities [Chocobo (ID: 17776650/0x010F400A), Chocobo (ID: 17776650/0x010F400A)], work=220*
134: 0x0524 [0x55] WAIT_LOAD_SCHEDULER: Wait for scheduler "cm13" with entities [LocalPlayer, LocalPlayer], work=144*
135: 0x0533 [0x29] REQ_SET_WAIT(priority=0x03, entity_id=Brutus (ID: 17776652/0x010F400C), tag_num=0x28)
136: 0x053A [0x2B] Brutus (ID: 17776652/0x010F400C) [7155*]:
    → "That kind of scum is the worst!"
137: 0x0541 [0x23] WAIT_FOR_DIALOG_INTERACTION
138: 0x0542 [0x29] REQ_SET_WAIT(priority=0x04, entity_id=Brutus (ID: 17776652/0x010F400C), tag_num=0x29)
139: 0x0549 [0x4A] Brutus (ID: 17776652/0x010F400C) looks at LocalPlayer
140: 0x0552 [0x6F] WAIT_FRAME_DELAY: Yield until WaitTime reaches zero
141: 0x0553 [0x76] CHECK_ENTITY_RENDER_FLAGS: Wait until Brutus (ID: 17776652/0x010F400C) Render.Flags0 and Render.Flags3 conditions are met
142: 0x0558 [0x4A] LocalPlayer looks at Brutus (ID: 17776652/0x010F400C)
143: 0x0561 [0x4A] Osker (ID: 17776653/0x010F400D) looks at Brutus (ID: 17776652/0x010F400C)
144: 0x056A [0x29] REQ_SET_WAIT(priority=0x03, entity_id=Brutus (ID: 17776652/0x010F400C), tag_num=0x27)
145: 0x0571 [0x2B] Brutus (ID: 17776652/0x010F400C) [7156*]:
    → "Ah, well. This doesn't really concern you."
146: 0x0578 [0x23] WAIT_FOR_DIALOG_INTERACTION
147: 0x0579 [0x2B] Brutus (ID: 17776652/0x010F400C) [7157*]:
    → "So look, kiddo... You've got talent. This birdie here's almost yours. Keep up the good work, okay?"
148: 0x0580 [0x23] WAIT_FOR_DIALOG_INTERACTION
149: 0x0581 [0x29] REQ_SET_WAIT(priority=0x04, entity_id=Brutus (ID: 17776652/0x010F400C), tag_num=0x2B)
150: 0x0588 [0x27] REQ_SET(priority=0x05, entity_id=Brutus (ID: 17776652/0x010F400C), tag_num=0x24)
151: 0x058F [0x1C] WAIT(90* ticks)
152: 0x0592 [0x4A] Osker (ID: 17776653/0x010F400D) looks at LocalPlayer
153: 0x059B [0x6F] WAIT_FRAME_DELAY: Yield until WaitTime reaches zero
154: 0x059C [0x76] CHECK_ENTITY_RENDER_FLAGS: Wait until Osker (ID: 17776653/0x010F400D) Render.Flags0 and Render.Flags3 conditions are met
155: 0x05A1 [0x2B] Osker (ID: 17776653/0x010F400D) [7158*]:
    → "Aw, that brute doesn't scare me. Anyway...look at you! The master said you got talent! I'm so jealous."
156: 0x05A8 [0x23] WAIT_FOR_DIALOG_INTERACTION
157: 0x05A9 [0x29] REQ_SET_WAIT(priority=0x04, entity_id=Brutus (ID: 17776652/0x010F400C), tag_num=0x2C)
158: 0x05B0 [0x45] LOAD_SCHEDULED_TASK: Load scheduler "fdo2" with entities [LocalPlayer, LocalPlayer], work=[200*, 0*]
159: 0x05C1 [0x55] WAIT_LOAD_SCHEDULER: Wait for scheduler "fdo2" with entities [LocalPlayer, LocalPlayer], work=200*
160: 0x05D0 [0x4E] SET_ENTITY_HIDE_FLAG: Hide Dietmund (ID: 17776655/0x010F400F)
161: 0x05D6 [0x5C] MUSIC_CONTROL: Set Idle (Day) music to song 110*
162: 0x05DA [0x5C] MUSIC_CONTROL: Set Idle (Night) music to song 110*
163: 0x05DE [0x46] CAMERA_CONTROL: Restore default settings
164: 0x05E0 [0x45] LOAD_SCHEDULED_TASK: Load scheduler "fdi2" with entities [LocalPlayer, LocalPlayer], work=[200*, 0*]
165: 0x05F1 [0x21] END_EVENT
166: 0x05F2 [0x00] END_REQSTACK()
```

#### Data or dead code:

```
# Dead code (unreachable instructions):
     0x05F3 [0x21] END_EVENT
     0x05F4 [0x00] END_REQSTACK()
```

### Event 59

#### Metadata

| Field        | Value    |
|--------------|----------|
| Entrypoint   | 0x05F5   |
| Data Size    | 39 bytes |
| Instructions | 10       |

```
      00 01 02 03 04 05 06 07  08 09 0A 0B 0C 0D 0E 0F
      -- -- -- -- -- -- -- --  -- -- -- -- -- -- -- --
05F0:                20 01 42  1E F0 FF FF 7F 45 0A 80        .B.....E..
0600: F0 FF FF 7F F0 FF FF 7F  6E 61 6B 32 0B 80 1D 38  ........nak2...8
0610: 80 23 2B 0D 40 0F 01 39  80 23 21 00              .#+.@..9.#!.    
```

#### Opcodes

```
  0: 0x05F5 [0x20] SET_CLI_EVENT_UC_FLAG: Lock player control
  1: 0x05F7 [0x42] SET_CLI_EVENT_CANCEL_DATA()
  2: 0x05F8 [0x1E] EventEntity looks at LocalPlayer and starts talking
  3: 0x05FD [0x45] LOAD_SCHEDULED_TASK: Load scheduler "nak2" with entities [LocalPlayer, LocalPlayer], work=[144*, 0*]
  4: 0x060E [0x1D] PRINT_EVENT_MESSAGE(message_id=7161*)
    → "Kweh! (He seems to be comfortable with you.)"
  5: 0x0611 [0x23] WAIT_FOR_DIALOG_INTERACTION
  6: 0x0612 [0x2B] Osker (ID: 17776653/0x010F400D) [7162*]:
    → "Just a little bit more! Thanks to you, he's eating more, and his feathers have a healthier glow!"
  7: 0x0619 [0x23] WAIT_FOR_DIALOG_INTERACTION
  8: 0x061A [0x21] END_EVENT
  9: 0x061B [0x00] END_REQSTACK()
```

### Event 60

#### Metadata

| Field        | Value    |
|--------------|----------|
| Entrypoint   | 0x061C   |
| Data Size    | 39 bytes |
| Instructions | 10       |

```
      00 01 02 03 04 05 06 07  08 09 0A 0B 0C 0D 0E 0F
      -- -- -- -- -- -- -- --  -- -- -- -- -- -- -- --
0610:                                      20 01 42 1E               .B.
0620: F0 FF FF 7F 45 0A 80 F0  FF FF 7F F0 FF FF 7F 6E  ....E..........n
0630: 61 6B 32 0B 80 1D 3A 80  23 2B 0D 40 0F 01 3B 80  ak2...:.#+.@..;.
0640: 23 21 00                                          #!.             
```

#### Opcodes

```
  0: 0x061C [0x20] SET_CLI_EVENT_UC_FLAG: Lock player control
  1: 0x061E [0x42] SET_CLI_EVENT_CANCEL_DATA()
  2: 0x061F [0x1E] EventEntity looks at LocalPlayer and starts talking
  3: 0x0624 [0x45] LOAD_SCHEDULED_TASK: Load scheduler "nak2" with entities [LocalPlayer, LocalPlayer], work=[144*, 0*]
  4: 0x0635 [0x1D] PRINT_EVENT_MESSAGE(message_id=7163*)
    → "Kweh! (He's eating joyfully.)"
  5: 0x0638 [0x23] WAIT_FOR_DIALOG_INTERACTION
  6: 0x0639 [0x2B] Osker (ID: 17776653/0x010F400D) [7164*]:
    → "Hah! I've never heard him squeal so happily!"
  7: 0x0640 [0x23] WAIT_FOR_DIALOG_INTERACTION
  8: 0x0641 [0x21] END_EVENT
  9: 0x0642 [0x00] END_REQSTACK()
```

### Event 64

#### Metadata

| Field        | Value     |
|--------------|-----------|
| Entrypoint   | 0x0643    |
| Data Size    | 389 bytes |
| Instructions | 57        |

```
      00 01 02 03 04 05 06 07  08 09 0A 0B 0C 0D 0E 0F
      -- -- -- -- -- -- -- --  -- -- -- -- -- -- -- --
0640:          20 01 46 01 42  45 16 80 F0 FF FF 7F F0      .F.BE.......
0650: FF FF 7F 66 64 6F 31 0B  80 55 16 80 F0 FF FF 7F  ...fdo1..U......
0660: F0 FF FF 7F 66 64 6F 31  38 17 80 29 03 F0 FF FF  ....fdo18..)....
0670: 7F 13 4A 0D 40 0F 01 F0  FF FF 7F 45 0A 80 F0 FF  ..J.@......E....
0680: FF 7F F0 FF FF 7F 63 6D  31 34 0B 80 5C 00 3C 80  ......cm14..\.<.
0690: 5C 01 3C 80 45 16 80 F0  FF FF 7F F0 FF FF 7F 66  \.<.E..........f
06A0: 64 69 31 0B 80 55 16 80  F0 FF FF 7F F0 FF FF 7F  di1..U..........
06B0: 66 64 69 31 4A F0 FF FF  7F 0A 40 0F 01 1E F0 FF  fdi1J.....@.....
06C0: FF 7F 6F 76 F8 FF FF 7F  5B 08 80 0A 40 0F 01 0A  ..ov....[...@...
06D0: 40 0F 01 79 6F 72 30 27  03 0C 40 0F 01 23 2B 0D  @..yor0'..@..#+.
06E0: 40 0F 01 3D 80 23 29 04  0C 40 0F 01 2C 4A F0 FF  @..=.#)..@..,J..
06F0: FF 7F 0C 40 0F 01 27 03  0C 40 0F 01 27 2B 0C 40  ...@..'..@..'+.@
0700: 0F 01 3E 80 23 2B 0C 40  0F 01 3F 80 23 29 04 0C  ..>.#+.@..?.#)..
0710: 40 0F 01 2B 4A 0C 40 0F  01 F0 FF FF 7F 6F 76 0C  @..+J.@......ov.
0720: 40 0F 01 02 02 10 31 80  00 36 07 2B 0C 40 0F 01  @.....1..6.+.@..
0730: 40 80 23 01 3E 07 2B 0C  40 0F 01 41 80 23 29 05  @.#.>.+.@..A.#).
0740: 0C 40 0F 01 2A 27 03 0C  40 0F 01 24 4A 0D 40 0F  .@..*'..@..$J.@.
0750: 01 F0 FF FF 7F 6F 76 0D  40 0F 01 27 03 0D 40 0F  .....ov.@..'..@.
0760: 01 2A 2B 0D 40 0F 01 42  80 23 29 04 0D 40 0F 01  .*+.@..B.#)..@..
0770: 2B 29 04 0C 40 0F 01 2C  45 43 80 F0 FF FF 7F F0  +)..@..,EC......
0780: FF FF 7F 71 73 74 63 0B  80 45 16 80 F0 FF FF 7F  ...qstc..E......
0790: F0 FF FF 7F 66 64 6F 32  0B 80 55 16 80 F0 FF FF  ....fdo2..U.....
07A0: 7F F0 FF FF 7F 66 64 6F  32 46 00 5C 00 37 80 5C  .....fdo2F.\.7.\
07B0: 01 37 80 45 16 80 F0 FF  FF 7F F0 FF FF 7F 66 64  .7.E..........fd
07C0: 69 32 0B 80 21 00 21 00                           i2..!.!.        
```

#### Opcodes

```
  0: 0x0643 [0x20] SET_CLI_EVENT_UC_FLAG: Lock player control
  1: 0x0645 [0x46] CAMERA_CONTROL: Disable user control
  2: 0x0647 [0x42] SET_CLI_EVENT_CANCEL_DATA()
  3: 0x0648 [0x45] LOAD_SCHEDULED_TASK: Load scheduler "fdo1" with entities [LocalPlayer, LocalPlayer], work=[200*, 0*]
  4: 0x0659 [0x55] WAIT_LOAD_SCHEDULER: Wait for scheduler "fdo1" with entities [LocalPlayer, LocalPlayer], work=200*
  5: 0x0668 [0x38] SET_CLIENT_EVENT_MODE(mode=3*)
  6: 0x066B [0x29] REQ_SET_WAIT(priority=0x03, entity_id=LocalPlayer, tag_num=0x13)
  7: 0x0672 [0x4A] Osker (ID: 17776653/0x010F400D) looks at LocalPlayer
  8: 0x067B [0x45] LOAD_SCHEDULED_TASK: Load scheduler "cm14" with entities [LocalPlayer, LocalPlayer], work=[144*, 0*]
  9: 0x068C [0x5C] MUSIC_CONTROL: Set Idle (Day) music to song 124*
 10: 0x0690 [0x5C] MUSIC_CONTROL: Set Idle (Night) music to song 124*
 11: 0x0694 [0x45] LOAD_SCHEDULED_TASK: Load scheduler "fdi1" with entities [LocalPlayer, LocalPlayer], work=[200*, 0*]
 12: 0x06A5 [0x55] WAIT_LOAD_SCHEDULER: Wait for scheduler "fdi1" with entities [LocalPlayer, LocalPlayer], work=200*
 13: 0x06B4 [0x4A] LocalPlayer looks at Chocobo (ID: 17776650/0x010F400A)
 14: 0x06BD [0x1E] EventEntity looks at LocalPlayer and starts talking
 15: 0x06C2 [0x6F] WAIT_FRAME_DELAY: Yield until WaitTime reaches zero
 16: 0x06C3 [0x76] CHECK_ENTITY_RENDER_FLAGS: Wait until EventEntity Render.Flags0 and Render.Flags3 conditions are met
 17: 0x06C8 [0x5B] LOAD_EXT_SCHEDULER: Load scheduler "yor0" with entities [Chocobo (ID: 17776650/0x010F400A), Chocobo (ID: 17776650/0x010F400A)], work=220*
 18: 0x06D7 [0x27] REQ_SET(priority=0x03, entity_id=Brutus (ID: 17776652/0x010F400C), tag_num=0x23)
 19: 0x06DE [0x2B] Osker (ID: 17776653/0x010F400D) [7167*]:
    → "Well, looks like he's used to you now!"
 20: 0x06E5 [0x23] WAIT_FOR_DIALOG_INTERACTION
 21: 0x06E6 [0x29] REQ_SET_WAIT(priority=0x04, entity_id=Brutus (ID: 17776652/0x010F400C), tag_num=0x2C)
 22: 0x06ED [0x4A] LocalPlayer looks at Brutus (ID: 17776652/0x010F400C)
 23: 0x06F6 [0x27] REQ_SET(priority=0x03, entity_id=Brutus (ID: 17776652/0x010F400C), tag_num=0x27)
 24: 0x06FD [0x2B] Brutus (ID: 17776652/0x010F400C) [7168*]:
    → "Good job! Now you're a qualified chocobo rider."
 25: 0x0704 [0x23] WAIT_FOR_DIALOG_INTERACTION
 26: 0x0705 [0x2B] Brutus (ID: 17776652/0x010F400C) [7169*]:
    → "Now that you can read animals' minds, maybe you can become a beastmaster. Of course, I can't teach you how... You'll just have to practice."
 27: 0x070C [0x23] WAIT_FOR_DIALOG_INTERACTION
 28: 0x070D [0x29] REQ_SET_WAIT(priority=0x04, entity_id=Brutus (ID: 17776652/0x010F400C), tag_num=0x2B)
 29: 0x0714 [0x4A] Brutus (ID: 17776652/0x010F400C) looks at LocalPlayer
 30: 0x071D [0x6F] WAIT_FRAME_DELAY: Yield until WaitTime reaches zero
 31: 0x071E [0x76] CHECK_ENTITY_RENDER_FLAGS: Wait until Brutus (ID: 17776652/0x010F400C) Render.Flags0 and Render.Flags3 conditions are met
 32: 0x0723 [0x02] IF !(Work_Zone[2] == 1*) GOTO 0x0736
 33: 0x072B [0x2B] Brutus (ID: 17776652/0x010F400C) [7171*]:
    → "The rest is up to you, kiddo. For now, take this to the stables."
 34: 0x0732 [0x23] WAIT_FOR_DIALOG_INTERACTION
 35: 0x0733 [0x01] GOTO 0x073E
 36: 0x0736 [0x2B] Brutus (ID: 17776652/0x010F400C) [7170*]:
    → "The rest is up to you, kiddo. For now, take this to the stables."
 37: 0x073D [0x23] WAIT_FOR_DIALOG_INTERACTION

SUBROUTINE_073E:
 38: 0x073E [0x29] REQ_SET_WAIT(priority=0x05, entity_id=Brutus (ID: 17776652/0x010F400C), tag_num=0x2A)
 39: 0x0745 [0x27] REQ_SET(priority=0x03, entity_id=Brutus (ID: 17776652/0x010F400C), tag_num=0x24)
 40: 0x074C [0x4A] Osker (ID: 17776653/0x010F400D) looks at LocalPlayer
 41: 0x0755 [0x6F] WAIT_FRAME_DELAY: Yield until WaitTime reaches zero
 42: 0x0756 [0x76] CHECK_ENTITY_RENDER_FLAGS: Wait until Osker (ID: 17776653/0x010F400D) Render.Flags0 and Render.Flags3 conditions are met
 43: 0x075B [0x27] REQ_SET(priority=0x03, entity_id=Osker (ID: 17776653/0x010F400D), tag_num=0x2A)
 44: 0x0762 [0x2B] Osker (ID: 17776653/0x010F400D) [7172*]:
    → "The master sure was profound, talking about reading their minds... At least we know the last owner didn't have that gift!"
 45: 0x0769 [0x23] WAIT_FOR_DIALOG_INTERACTION
 46: 0x076A [0x29] REQ_SET_WAIT(priority=0x04, entity_id=Osker (ID: 17776653/0x010F400D), tag_num=0x2B)
 47: 0x0771 [0x29] REQ_SET_WAIT(priority=0x04, entity_id=Brutus (ID: 17776652/0x010F400C), tag_num=0x2C)
 48: 0x0778 [0x45] LOAD_SCHEDULED_TASK: Load scheduler "qstc" with entities [LocalPlayer, LocalPlayer], work=[201*, 0*]
 49: 0x0789 [0x45] LOAD_SCHEDULED_TASK: Load scheduler "fdo2" with entities [LocalPlayer, LocalPlayer], work=[200*, 0*]
 50: 0x079A [0x55] WAIT_LOAD_SCHEDULER: Wait for scheduler "fdo2" with entities [LocalPlayer, LocalPlayer], work=200*
 51: 0x07A9 [0x46] CAMERA_CONTROL: Restore default settings
 52: 0x07AB [0x5C] MUSIC_CONTROL: Set Idle (Day) music to song 110*
 53: 0x07AF [0x5C] MUSIC_CONTROL: Set Idle (Night) music to song 110*
 54: 0x07B3 [0x45] LOAD_SCHEDULED_TASK: Load scheduler "fdi2" with entities [LocalPlayer, LocalPlayer], work=[200*, 0*]
 55: 0x07C4 [0x21] END_EVENT
 56: 0x07C5 [0x00] END_REQSTACK()
```

#### Data or dead code:

```
# Dead code (unreachable instructions):
     0x07C6 [0x21] END_EVENT
     0x07C7 [0x00] END_REQSTACK()
```

### Event 101

#### Metadata

| Field        | Value   |
|--------------|---------|
| Entrypoint   | 0x07C8  |
| Data Size    | 1 bytes |
| Instructions | 1       |

```
      00 01 02 03 04 05 06 07  08 09 0A 0B 0C 0D 0E 0F
      -- -- -- -- -- -- -- --  -- -- -- -- -- -- -- --
07C0:                          00                               .       
```

#### Opcodes

```
  0: 0x07C8 [0x00] END_REQSTACK()
```

### Event 70

#### Metadata

| Field        | Value   |
|--------------|---------|
| Entrypoint   | 0x07C9  |
| Data Size    | 1 bytes |
| Instructions | 1       |

```
      00 01 02 03 04 05 06 07  08 09 0A 0B 0C 0D 0E 0F
      -- -- -- -- -- -- -- --  -- -- -- -- -- -- -- --
07C0:                             00                             .      
```

#### Opcodes

```
  0: 0x07C9 [0x00] END_REQSTACK()
```

### Event 76

#### Metadata

| Field        | Value   |
|--------------|---------|
| Entrypoint   | 0x07CA  |
| Data Size    | 1 bytes |
| Instructions | 1       |

```
      00 01 02 03 04 05 06 07  08 09 0A 0B 0C 0D 0E 0F
      -- -- -- -- -- -- -- --  -- -- -- -- -- -- -- --
07C0:                                00                           .     
```

#### Opcodes

```
  0: 0x07CA [0x00] END_REQSTACK()
```

### Event 38

#### Metadata

| Field        | Value   |
|--------------|---------|
| Entrypoint   | 0x07CB  |
| Data Size    | 1 bytes |
| Instructions | 1       |

```
      00 01 02 03 04 05 06 07  08 09 0A 0B 0C 0D 0E 0F
      -- -- -- -- -- -- -- --  -- -- -- -- -- -- -- --
07C0:                                   00                         .    
```

#### Opcodes

```
  0: 0x07CB [0x00] END_REQSTACK()
```

### Event 65535.3

#### Metadata

| Field        | Value    |
|--------------|----------|
| Entrypoint   | 0x07CC   |
| Data Size    | 29 bytes |
| Instructions | 3        |

```
      00 01 02 03 04 05 06 07  08 09 0A 0B 0C 0D 0E 0F
      -- -- -- -- -- -- -- --  -- -- -- -- -- -- -- --
07C0:                                      5B 08 80 F8              [...
07D0: FF FF 7F F8 FF FF 7F 79  6F 72 30 53 F8 FF FF 7F  .......yor0S....
07E0: F8 FF FF 7F 79 6F 72 30  00                       ....yor0.       
```

#### Opcodes

```
  0: 0x07CC [0x5B] LOAD_EXT_SCHEDULER: Load scheduler "yor0" with entities [EventEntity, EventEntity], work=220*
  1: 0x07DB [0x53] WAIT_SCHEDULER_TASK: Wait for scheduler "yor0" with entities [EventEntity, EventEntity]
  2: 0x07E8 [0x00] END_REQSTACK()
```

### Event 65535.4

#### Metadata

| Field        | Value   |
|--------------|---------|
| Entrypoint   | 0x07E9  |
| Data Size    | 1 bytes |
| Instructions | 1       |

```
      00 01 02 03 04 05 06 07  08 09 0A 0B 0C 0D 0E 0F
      -- -- -- -- -- -- -- --  -- -- -- -- -- -- -- --
07E0:                             00                             .      
```

#### Opcodes

```
  0: 0x07E9 [0x00] END_REQSTACK()
```

### Event 10093

#### Metadata

| Field        | Value   |
|--------------|---------|
| Entrypoint   | 0x07EA  |
| Data Size    | 1 bytes |
| Instructions | 1       |

```
      00 01 02 03 04 05 06 07  08 09 0A 0B 0C 0D 0E 0F
      -- -- -- -- -- -- -- --  -- -- -- -- -- -- -- --
07E0:                                00                           .     
```

#### Opcodes

```
  0: 0x07EA [0x00] END_REQSTACK()
```

### Event 10097

#### Metadata

| Field        | Value    |
|--------------|----------|
| Entrypoint   | 0x07EB   |
| Data Size    | 28 bytes |
| Instructions | 6        |

```
      00 01 02 03 04 05 06 07  08 09 0A 0B 0C 0D 0E 0F
      -- -- -- -- -- -- -- --  -- -- -- -- -- -- -- --
07E0:                                   1E F0 FF FF 7F             .....
07F0: 45 0A 80 F0 FF FF 7F F0  FF FF 7F 6E 61 6B 32 0B  E..........nak2.
0800: 80 1D 44 80 23 21 00                              ..D.#!.         
```

#### Opcodes

```
  0: 0x07EB [0x1E] EventEntity looks at LocalPlayer and starts talking
  1: 0x07F0 [0x45] LOAD_SCHEDULED_TASK: Load scheduler "nak2" with entities [LocalPlayer, LocalPlayer], work=[144*, 0*]
  2: 0x0801 [0x1D] PRINT_EVENT_MESSAGE(message_id=11160*)
    → "Kweh!!!"
  3: 0x0804 [0x23] WAIT_FOR_DIALOG_INTERACTION
  4: 0x0805 [0x21] END_EVENT
  5: 0x0806 [0x00] END_REQSTACK()
```

### Event 10095

#### Metadata

| Field        | Value   |
|--------------|---------|
| Entrypoint   | 0x0807  |
| Data Size    | 1 bytes |
| Instructions | 1       |

```
      00 01 02 03 04 05 06 07  08 09 0A 0B 0C 0D 0E 0F
      -- -- -- -- -- -- -- --  -- -- -- -- -- -- -- --
0800:                      00                                  .        
```

#### Opcodes

```
  0: 0x0807 [0x00] END_REQSTACK()
```

### Event 10100

#### Metadata

| Field        | Value   |
|--------------|---------|
| Entrypoint   | 0x0808  |
| Data Size    | 1 bytes |
| Instructions | 1       |

```
      00 01 02 03 04 05 06 07  08 09 0A 0B 0C 0D 0E 0F
      -- -- -- -- -- -- -- --  -- -- -- -- -- -- -- --
0800:                          00                               .       
```

#### Opcodes

```
  0: 0x0808 [0x00] END_REQSTACK()
```

### Event 10221

#### Metadata

| Field        | Value   |
|--------------|---------|
| Entrypoint   | 0x0809  |
| Data Size    | 1 bytes |
| Instructions | 1       |

```
      00 01 02 03 04 05 06 07  08 09 0A 0B 0C 0D 0E 0F
      -- -- -- -- -- -- -- --  -- -- -- -- -- -- -- --
0800:                             00                             .      
```

#### Opcodes

```
  0: 0x0809 [0x00] END_REQSTACK()
```

### Event 10230

#### Metadata

| Field        | Value   |
|--------------|---------|
| Entrypoint   | 0x080A  |
| Data Size    | 1 bytes |
| Instructions | 1       |

```
      00 01 02 03 04 05 06 07  08 09 0A 0B 0C 0D 0E 0F
      -- -- -- -- -- -- -- --  -- -- -- -- -- -- -- --
0800:                                00                           .     
```

#### Opcodes

```
  0: 0x080A [0x00] END_REQSTACK()
```

### Event 10231

#### Metadata

| Field        | Value   |
|--------------|---------|
| Entrypoint   | 0x080B  |
| Data Size    | 1 bytes |
| Instructions | 1       |

```
      00 01 02 03 04 05 06 07  08 09 0A 0B 0C 0D 0E 0F
      -- -- -- -- -- -- -- --  -- -- -- -- -- -- -- --
0800:                                   00                         .    
```

#### Opcodes

```
  0: 0x080B [0x00] END_REQSTACK()
```

### Event 10232

#### Metadata

| Field        | Value   |
|--------------|---------|
| Entrypoint   | 0x080C  |
| Data Size    | 1 bytes |
| Instructions | 1       |

```
      00 01 02 03 04 05 06 07  08 09 0A 0B 0C 0D 0E 0F
      -- -- -- -- -- -- -- --  -- -- -- -- -- -- -- --
0800:                                      00                       .   
```

#### Opcodes

```
  0: 0x080C [0x00] END_REQSTACK()
```

### Event 10233

#### Metadata

| Field        | Value   |
|--------------|---------|
| Entrypoint   | 0x080D  |
| Data Size    | 1 bytes |
| Instructions | 1       |

```
      00 01 02 03 04 05 06 07  08 09 0A 0B 0C 0D 0E 0F
      -- -- -- -- -- -- -- --  -- -- -- -- -- -- -- --
0800:                                         00                     .  
```

#### Opcodes

```
  0: 0x080D [0x00] END_REQSTACK()
```

### Event 10234

#### Metadata

| Field        | Value   |
|--------------|---------|
| Entrypoint   | 0x080E  |
| Data Size    | 1 bytes |
| Instructions | 1       |

```
      00 01 02 03 04 05 06 07  08 09 0A 0B 0C 0D 0E 0F
      -- -- -- -- -- -- -- --  -- -- -- -- -- -- -- --
0800:                                            00                   . 
```

#### Opcodes

```
  0: 0x080E [0x00] END_REQSTACK()
```

### Event 65535.5

#### Metadata

| Field        | Value    |
|--------------|----------|
| Entrypoint   | 0x080F   |
| Data Size    | 87 bytes |
| Instructions | 19       |

```
      00 01 02 03 04 05 06 07  08 09 0A 0B 0C 0D 0E 0F
      -- -- -- -- -- -- -- --  -- -- -- -- -- -- -- --
0800:                                               32                 2
0810: 35 80 1C 0B 80 1F 00 45  80 46 80 47 80 1F 01 1F  5......E.F.G....
0820: 00 48 80 49 80 47 80 1F  01 1F 00 4A 80 4B 80 47  .H.I.G.....J.K.G
0830: 80 1F 01 1F 00 4C 80 4D  80 4E 80 1F 01 1F 00 4F  .....L.M.N.....O
0840: 80 50 80 0B 80 1F 01 1F  00 51 80 52 80 0B 80 1F  .P.......Q.R....
0850: 01 1F 00 53 80 54 80 0B  80 1F 01 1F 00 55 80 56  ...S.T.......U.V
0860: 80 0B 80 1F 01 00                                 ......          
```

#### Opcodes

```
  0: 0x080F [0x32] ExtData[1]->MainSpeed = 90* * 0.1
  1: 0x0812 [0x1C] WAIT(0* ticks)
  2: 0x0815 [0x1F] MOVE_ENTITY: EventEntity moves to X=-51.160*, Z=94.750*, Y=8.000*
  3: 0x081D [0x1F] MOVE_ENTITY: Update entity position (mode=1)
  4: 0x081F [0x1F] MOVE_ENTITY: EventEntity moves to X=-45.530*, Z=97.780*, Y=8.000*
  5: 0x0827 [0x1F] MOVE_ENTITY: Update entity position (mode=1)
  6: 0x0829 [0x1F] MOVE_ENTITY: EventEntity moves to X=-40.930*, Z=92.020*, Y=8.000*
  7: 0x0831 [0x1F] MOVE_ENTITY: Update entity position (mode=1)
  8: 0x0833 [0x1F] MOVE_ENTITY: EventEntity moves to X=-43.190*, Z=85.670*, Y=7.700*
  9: 0x083B [0x1F] MOVE_ENTITY: Update entity position (mode=1)
 10: 0x083D [0x1F] MOVE_ENTITY: EventEntity moves to X=-59.100*, Z=76.510*, Y=0.000*
 11: 0x0845 [0x1F] MOVE_ENTITY: Update entity position (mode=1)
 12: 0x0847 [0x1F] MOVE_ENTITY: EventEntity moves to X=-64.080*, Z=78.410*, Y=0.000*
 13: 0x084F [0x1F] MOVE_ENTITY: Update entity position (mode=1)
 14: 0x0851 [0x1F] MOVE_ENTITY: EventEntity moves to X=-69.220*, Z=92.070*, Y=0.000*
 15: 0x0859 [0x1F] MOVE_ENTITY: Update entity position (mode=1)
 16: 0x085B [0x1F] MOVE_ENTITY: EventEntity moves to X=-66.820*, Z=120.920*, Y=0.000*
 17: 0x0863 [0x1F] MOVE_ENTITY: Update entity position (mode=1)
 18: 0x0865 [0x00] END_REQSTACK()
```
