# 17776902 - Elijah

## Common Data

| Field            | Value                 |
|------------------|-----------------------|
| Zone             | Upper Jeuno (ID: 244) |
| Block Size       | 3512 bytes            |
| Total Events     | 18                    |
| References Count | 207                   |

## List of Events

| Event ID              | Entrypoint   |   Size |   Instructions |
|-----------------------|--------------|--------|----------------|
| [65535](#event-65535) | 0x0000       |      1 |              1 |
| [10247](#event-10247) | 0x0001       |     30 |              9 |
| [10248](#event-10248) | 0x001F       |    279 |             65 |
| [10249](#event-10249) | 0x0136       |     43 |             12 |
| [10250](#event-10250) | 0x0161       |    192 |             41 |
| [10251](#event-10251) | 0x0221       |    240 |             54 |
| [10252](#event-10252) | 0x0311       |    246 |             57 |
| [10256](#event-10256) | 0x0407       |     47 |             14 |
| [10253](#event-10253) | 0x0436       |    273 |             70 |
| [10254](#event-10254) | 0x0547       |    362 |             95 |
| [10255](#event-10255) | 0x06B1       |    213 |             55 |
| [10257](#event-10257) | 0x0786       |     43 |             12 |
| [10258](#event-10258) | 0x07B1       |    243 |             61 |
| [10259](#event-10259) | 0x08A4       |     43 |             12 |
| [10260](#event-10260) | 0x08CF       |    189 |             48 |
| [10261](#event-10261) | 0x098C       |     55 |             18 |
| [10262](#event-10262) | 0x09C3       |     47 |             14 |
| [10263](#event-10263) | 0x09F2       |     47 |             14 |

## DAT References (imed_data)

|   Index | Hex Value   |   Dec Value |
|---------|-------------|-------------|
|       0 | 0x0000      |           0 |
|       1 | 0x3638      |       13880 |
|       2 | 0x3639      |       13881 |
|       3 | 0x003C      |          60 |
|       4 | 0x363A      |       13882 |
|       5 | 0x363B      |       13883 |
|       6 | 0x363C      |       13884 |
|       7 | 0x363D      |       13885 |
|       8 | 0x363E      |       13886 |
|       9 | 0x363F      |       13887 |
|      10 | 0x3640      |       13888 |
|      11 | 0x3641      |       13889 |
|      12 | 0x005A      |          90 |
|      13 | 0x3643      |       13891 |
|      14 | 0x3644      |       13892 |
|      15 | 0x3645      |       13893 |
|      16 | 0x3646      |       13894 |
|      17 | 0x364D      |       13901 |
|      18 | 0x3647      |       13895 |
|      19 | 0x3648      |       13896 |
|      20 | 0x3649      |       13897 |
|      21 | 0x0001      |           1 |
|      22 | 0x364A      |       13898 |
|      23 | 0x3642      |       13890 |
|      24 | 0x0002      |           2 |
|      25 | 0x364B      |       13899 |
|      26 | 0x364C      |       13900 |
|      27 | 0x364E      |       13902 |
|      28 | 0x364F      |       13903 |
|      29 | 0x3650      |       13904 |
|      30 | 0x3651      |       13905 |
|      31 | 0x3652      |       13906 |
|      32 | 0x3653      |       13907 |
|      33 | 0x3654      |       13908 |
|      34 | 0x3655      |       13909 |
|      35 | 0x3656      |       13910 |
|      36 | 0x3657      |       13911 |
|      37 | 0x3658      |       13912 |
|      38 | 0x3659      |       13913 |
|      39 | 0x365A      |       13914 |
|      40 | 0x365B      |       13915 |
|      41 | 0x365C      |       13916 |
|      42 | 0x365D      |       13917 |
|      43 | 0x365E      |       13918 |
|      44 | 0x365F      |       13919 |
|      45 | 0x3660      |       13920 |
|      46 | 0x3661      |       13921 |
|      47 | 0x3662      |       13922 |
|      48 | 0x3663      |       13923 |
|      49 | 0x3664      |       13924 |
|      50 | 0x3665      |       13925 |
|      51 | 0x3666      |       13926 |
|      52 | 0x3667      |       13927 |
|      53 | 0x3668      |       13928 |
|      54 | 0x3669      |       13929 |
|      55 | 0x366A      |       13930 |
|      56 | 0x366B      |       13931 |
|      57 | 0x366C      |       13932 |
|      58 | 0x366D      |       13933 |
|      59 | 0x366E      |       13934 |
|      60 | 0x366F      |       13935 |
|      61 | 0x3670      |       13936 |
|      62 | 0x3671      |       13937 |
|      63 | 0x3672      |       13938 |
|      64 | 0x3673      |       13939 |
|      65 | 0x0014      |          20 |
|      66 | 0x0078      |         120 |
|      67 | 0x3674      |       13940 |
|      68 | 0x3675      |       13941 |
|      69 | 0x3676      |       13942 |
|      70 | 0x3677      |       13943 |
|      71 | 0x3678      |       13944 |
|      72 | 0x3679      |       13945 |
|      73 | 0x367A      |       13946 |
|      74 | 0x367B      |       13947 |
|      75 | 0x367C      |       13948 |
|      76 | 0x367D      |       13949 |
|      77 | 0x367E      |       13950 |
|      78 | 0x367F      |       13951 |
|      79 | 0x3680      |       13952 |
|      80 | 0x3681      |       13953 |
|      81 | 0x3682      |       13954 |
|      82 | 0x3683      |       13955 |
|      83 | 0x0025      |          37 |
|      84 | 0x3684      |       13956 |
|      85 | 0x3685      |       13957 |
|      86 | 0x3686      |       13958 |
|      87 | 0x3687      |       13959 |
|      88 | 0x3688      |       13960 |
|      89 | 0x3689      |       13961 |
|      90 | 0x368A      |       13962 |
|      91 | 0x368B      |       13963 |
|      92 | 0x368C      |       13964 |
|      93 | 0x368D      |       13965 |
|      94 | 0x368E      |       13966 |
|      95 | 0x368F      |       13967 |
|      96 | 0x3690      |       13968 |
|      97 | 0x3691      |       13969 |
|      98 | 0x3692      |       13970 |
|      99 | 0x3693      |       13971 |
|     100 | 0x3694      |       13972 |
|     101 | 0x3695      |       13973 |
|     102 | 0x3696      |       13974 |
|     103 | 0x3697      |       13975 |
|     104 | 0x3698      |       13976 |
|     105 | 0x3699      |       13977 |
|     106 | 0x369A      |       13978 |
|     107 | 0x369C      |       13980 |
|     108 | 0x369B      |       13979 |
|     109 | 0x369D      |       13981 |
|     110 | 0x369E      |       13982 |
|     111 | 0x369F      |       13983 |
|     112 | 0x36A0      |       13984 |
|     113 | 0x36A1      |       13985 |
|     114 | 0x36A2      |       13986 |
|     115 | 0x36A3      |       13987 |
|     116 | 0x36A4      |       13988 |
|     117 | 0x36A5      |       13989 |
|     118 | 0x36A6      |       13990 |
|     119 | 0x000F      |          15 |
|     120 | 0x36B7      |       14007 |
|     121 | 0x36A7      |       13991 |
|     122 | 0x36A8      |       13992 |
|     123 | 0x36A9      |       13993 |
|     124 | 0x36AA      |       13994 |
|     125 | 0x36AB      |       13995 |
|     126 | 0x0004      |           4 |
|     127 | 0x36B8      |       14008 |
|     128 | 0x36AC      |       13996 |
|     129 | 0x36AD      |       13997 |
|     130 | 0x36AE      |       13998 |
|     131 | 0x36AF      |       13999 |
|     132 | 0x36B0      |       14000 |
|     133 | 0x36B1      |       14001 |
|     134 | 0x001E      |          30 |
|     135 | 0x36B2      |       14002 |
|     136 | 0x36B3      |       14003 |
|     137 | 0x36B4      |       14004 |
|     138 | 0x36B5      |       14005 |
|     139 | 0x36B6      |       14006 |
|     140 | 0x36B9      |       14009 |
|     141 | 0x36BA      |       14010 |
|     142 | 0x36BB      |       14011 |
|     143 | 0x36BC      |       14012 |
|     144 | 0x36BD      |       14013 |
|     145 | 0x36BE      |       14014 |
|     146 | 0x36BF      |       14015 |
|     147 | 0x36C0      |       14016 |
|     148 | 0x36C1      |       14017 |
|     149 | 0x36C2      |       14018 |
|     150 | 0x36C3      |       14019 |
|     151 | 0x36C4      |       14020 |
|     152 | 0x36C5      |       14021 |
|     153 | 0x36C6      |       14022 |
|     154 | 0x36C7      |       14023 |
|     155 | 0x36C8      |       14024 |
|     156 | 0x36C9      |       14025 |
|     157 | 0x36CA      |       14026 |
|     158 | 0x36CB      |       14027 |
|     159 | 0x36CC      |       14028 |
|     160 | 0x36CD      |       14029 |
|     161 | 0x36CE      |       14030 |
|     162 | 0x0013      |          19 |
|     163 | 0x36CF      |       14031 |
|     164 | 0x36D0      |       14032 |
|     165 | 0x36D1      |       14033 |
|     166 | 0x36D2      |       14034 |
|     167 | 0x36D3      |       14035 |
|     168 | 0x36D4      |       14036 |
|     169 | 0x36D5      |       14037 |
|     170 | 0x36D6      |       14038 |
|     171 | 0x36D7      |       14039 |
|     172 | 0x36D8      |       14040 |
|     173 | 0x36D9      |       14041 |
|     174 | 0x36DA      |       14042 |
|     175 | 0x36DB      |       14043 |
|     176 | 0x36DC      |       14044 |
|     177 | 0x36DD      |       14045 |
|     178 | 0x36DE      |       14046 |
|     179 | 0x36DF      |       14047 |
|     180 | 0x36E0      |       14048 |
|     181 | 0x36E1      |       14049 |
|     182 | 0x36E2      |       14050 |
|     183 | 0x36E3      |       14051 |
|     184 | 0x0022      |          34 |
|     185 | 0x36E4      |       14052 |
|     186 | 0x36E5      |       14053 |
|     187 | 0x36E6      |       14054 |
|     188 | 0x36E7      |       14055 |
|     189 | 0x36E8      |       14056 |
|     190 | 0x36E9      |       14057 |
|     191 | 0x36EA      |       14058 |
|     192 | 0x36EB      |       14059 |
|     193 | 0x36EC      |       14060 |
|     194 | 0x36ED      |       14061 |
|     195 | 0x36EE      |       14062 |
|     196 | 0x36EF      |       14063 |
|     197 | 0x36F0      |       14064 |
|     198 | 0x36F1      |       14065 |
|     199 | 0x36F2      |       14066 |
|     200 | 0x36F3      |       14067 |
|     201 | 0x36F4      |       14068 |
|     202 | 0x36F5      |       14069 |
|     203 | 0x36F6      |       14070 |
|     204 | 0x36F7      |       14071 |
|     205 | 0x36F8      |       14072 |
|     206 | 0x36F9      |       14073 |

## String References

- **13880**: Let us hope that those at Salahaam's Sentinels keep up their end of the bargain...
- **13881**: Ah. And you must be...
- **13882**: <Player>. Of course. Your reputation precedes you.
- **13883**: I am well aware of the deeds you have performed for me via your connections in Salaheem's Sentinels.
- **13884**: But where are my manners? I have yet to introduce myself.
- **13885**: I am Elijah, but a humble member of the Adventurers' Mutual Aid Network (A.M.A.N.).
- **13886**: I have acquired some information about threats that need to be vanquished as part of your excellent work in the Records of Eminence initiative.
- **13887**: I am loath to admit that these foes may be beneath your station, but I would ask you to remove them nonetheless.
- **13888**: Accept the request? [Of course./No thanks.]
- **13889**: You have my gratitude. Allow me to provide you with the relevant intel.
- **13890**: Unfortunate, but not altogether unexpected.
- **13891**: Your quarry resides on the continent of Aradjiah.
- **13892**: Though I would ordinarily rely on local mercenaries for the task, this requires a more...delicate touch.
- **13893**: I promise that the reward will be worthwhile. Double so if you bring proof of the kill.
- **13894**: Should you be able to do so, that is...
- **13895**: While I appreciate your efforts, I am only able to provide you with rewards once per month (Earth time).
- **13896**: I am positive that we will be able to uncover more threats in the upcoming months.
- **13897**: Of course, I will provide you with more information as circumstances warrant.
- **13898**: Once again, your assistance is most appreciated.
- **13899**: Thank you for setting the appropriate objective.
- **13900**: May you strike true.
- **13901**: Elijah smirks at you.
- **13902**: Well, well, if it isn't my favorite intrepid adventurer, <Player>.
- **13903**: You seem to have been quite busy of late, what with all the fiend slaying and equipment collecting going on.
- **13904**: And in between all your marauding, you still found time to deal with Falak. Heroism truly is your most impressive attribute.
- **13905**: You've really helped me to regain my faith in humanity.
- **13906**: And given your track record and breadth of talents, I would ask another favor of you.
- **13907**: And just as before, this will be handled via Records of Eminence. Have to make sure all the Is are dotted and the Ts crossed, as you know.
- **13908**: For you see, the fiends I hunt are not just limited to Aradjiah.
- **13909**: Although it does seem they aimed to break a particular seal...
- **13910**: ...this time they aim to lay claim to the World Eater Egg. No, this simply will not do.
- **13911**: This goes directly against the will of my master, and I shall suffer none to cross him.
- **13912**: I trust you will vanquish this threat with all due haste.
- **13913**: We're counting on you, hero.
- **13914**: Pleasure as always, <Player>.
- **13915**: Your fervor in vanquishing those which threaten us all has not gone unappreciated.
- **13916**: Although perhaps you were only assisting me for baubles and glory rather than righteousness and justice, I must thank you all the same.
- **13917**: So without further ado, permit me to introduce you to your next targets.
- **13918**: You are to make for Aydeewa and Arrapago.
- **13919**: It appears that the dead have redoubled their efforts to usher in the egg's hatching, and it has already been brought to the reef.
- **13920**: And if we can hinder their efforts...well, suffice it to say that my lord will be quite pleased indeed.
- **13921**: Though I would normally be content to leave the dead well alone, I fear that his will is indeed absolute in this matter.
- **13922**: Of course, I need not tell you that for every one you strike down two more will doubtless take its place. I can think of no task more Sisyphean.
- **13923**: Were it up to me, I would see the entire place set ablaze.
- **13924**: I must admit that my mental health has taken a turn for the better knowing I can count on you to handle this issue.
- **13925**: I must remain resolute, for it will not be much longer before my plans come to full fruition.
- **13926**: But I am vexed that my comrades--my lord's right-hand troops--have been lax in their reporting of late.
- **13927**: Doubtless they have their hands full. May the will of my lord be done.
- **13928**: Goddesspeed, hero.
- **13929**: Why won't the dead just stay dead? This goes against all our calculations.
- **13930**: Perhaps they fear my lord's wrath and deemed their chances best on this side of the veil.
- **13931**: Ah, my erstwhile friend! You couldn't have arrived at a more fortuitous time.
- **13932**: At risk of sounding like a broken orchestrion, I confess that I require your assistance once more.
- **13933**: I had been under the impression that the dead were set on returning here, to the world of the living--but it appears I was mistaken.
- **13934**: What their true aim is remains yet a mystery, but one thing is certain--their leader possesses an immense power that defies expectations. Their plans must not be allowed to succeed.
- **13935**: I say this not to diminish the vast capabilities of my master, but to demonstrate to you the commitment of my colleagues and I to ensuring that their machinations bear no fruit.
- **13936**: Yet as the field of battle expands, our forces find themselves stretched increasingly thin. Even my master is vexed at where best to concentrate our efforts.
- **13937**: And so my master created--employed--new soldiers to aid in the efforts. Prompt though their reports were, I found the content thereof to be impudent at best.
- **13938**: "Stop yapping and clean up the stragglers. Those are your orders, and you'd best follow them."
- **13939**: The audacity! Whether they are right or not is immaterial--their tone is completely unaccpetable.
- **13940**: Ugh. To think they get to me so easily...
- **13941**: The will of my master is paramount. If we are to clean up the "stragglers," then so be it.
- **13942**: I will fill my charge without fail.
- **13943**: I have taken the liberty of preparing a list of your next targets.
- **13944**: Though information on previous marks was collected by my underlings, this time I have taken it upon myself to collate the necessary materials.
- **13945**: Fear not. It is as accurate as the previous entries. I take my job quite seriously.
- **13946**: It remains to be seen why our foes are mustering their forces here in Vana'diel.
- **13947**: Ah, but you fancy yourself a defender of Vana'diel, do you not? How quaint.
- **13948**: I wish you the best of luck.
- **13949**: What is this? You wish to know if I'm familiar with a black-clad Goblin?
- **13950**: Yes, I have had the displeasure. A more uncouth specimen I have never come across.
- **13951**: But if you're going to wallow in the mud like a pig, then it was only appropriate that I gave them an appropriate porcine companion...so I introduced them to Shami.
- **13952**: Pleasure to see you, <Player>. How are those two pig-headed buffoons doing?
- **13953**: "What buffoons?" Why, Shami and Shemo, of course.
- **13954**: I sent them that accursed Goblin and their accompanying retinue. Filth loves its own kind.
- **13955**: Hahaha... Tell me how that turned out?
- **13956**: Wh-what? Not only were the Goblin team not there, but then Duke Alloces...?
- **13957**: But if the gate is closed, then it stands to reason that Duke Alloces shouldn't even be here!
- **13958**: Ugh. This is why you can never trust anything to a low-level demon.
- **13959**: But setting that small matter aside... You are after more information on the World Eater Egg, are you not?
- **13960**: You must wonder what this means for the baneful dead.
- **13961**: Worry not. I have prepared a list of more targets for you.
- **13962**: Haha... Surely each one you banish brings a little bit more peace back to Vana'diel.
- **13963**: Perhaps you have already surmised my true identity, but it is too late for you to turn back now.
- **13964**: After all, the proverbial contract has already been signed.
- **13965**: Hoho...a deal with the devil is not so easily overturned...at least not without paying the ultimate price.
- **13966**: And with what you now know about some of the world's ugly truths, well...
- **13967**: And that lovely retinue who depends on you oh-so-much will surely come through for you in the end.
- **13968**: And of course, my lord Odin is depending on you as well.
- **13969**: And I'm sure none of us want these targets to be in cahoots with Garazu-Horeizu, correct?
- **13970**: Betrayal will be deemed a failure to fulfill the obligations of your contract. Surely I need not say more.
- **13971**: So keep doing what you do best, and there will be no problems.
- **13972**: Ah, and one last thing. If you try to flee, or tell anyone who we really are, it will not end well for you.
- **13973**: This, too, would be an egregious violation of the terms of our little "agreement."
- **13974**: You see, <Player>, we have eyes and ears in every corner of Vana'diel.
- **13975**: And we are always watching...listening...
- **13976**: Ah, <Player>. Somehow, I knew you would come.
- **13977**: The sealing of the gate has been quite the catalyst. Wouldn't you agree?
- **13978**: My understanding is that you are working together with Skokkr to reforge the Prime Weapons, are you not?
- **13979**: My understanding is that you have worked together with Skokkr and succeeded in reforging a Prime Weapon, have you not?
- **13980**: I wish you all the best in your journey to vanquish Chaos. After all, the Prime Weapons are the keys.
- **13981**: Your Prime Weapon holds the key to besting Chaos, as you doubtless already know.
- **13982**: But I would advise you one thing: the Prime Weapons belong to my master, and my master alone.
- **13983**: And when they return to him, I have no doubt that they will make their way into my hands...as my just reward for all I have accomplished.
- **13984**: Oh, yes. The time for me to wield the Prime Weapons is close at hand.
- **13985**: In fact, this puts me in the mood for a rousing tale. A secondhand tale, so I leave the analysis of its veracity to you.
- **13986**: 5000 years ago, the Prime Weapons were made manifest after an eternity of trial and error.
- **13987**: Those in charge searched endlessly for a way to figure out how to stop Chaos from devouring the astral plane.
- **13988**: Of course, that was eons ago, so the exact time frame isn't clear, but I am led to believe that over one hundred years of effort were poured into this endeavor.
- **13989**: It started with research into souls that hungered for more. A contract between them was established.
- **13990**: But those initial results were...disappointing. More pure souls were required.
- **13991**: I need not spell out for you what that implied.
- **13992**: Many souls were snuffed out on the altar of progress, irrevocably removed from the cycle of life and death.
- **13993**: And that is how those involved eventually arrived at the idea of imbuing souls into implements of power.
- **13994**: If those souls are angered or cry out for vengeance, well...I'm sure that manifests itself in the potency of the armament.
- **13995**: Perhaps that is why the Prime Weapons gleam with that beautiful obsidian light.
- **13996**: Why, it is positively inspiring! Surely you wish to brandish them in battle even more than before.
- **13997**: Ah, but we have time for one more tale. You know of the relic weapons, correct?
- **13998**: My master conceived them during Ragnarok, and they contain the souls of the enlightened races.
- **13999**: My master chose only the strongest from among those who proffered themselves up in his service.
- **14000**: They cried out for succor. Who were we to deny them?
- **14001**: Why, we were even able to help them defend their kingdoms, although perhaps in a different way than they had envisioned.
- **14002**: Not that those nations exist anymore, mind you.
- **14003**: That is enough stories for one day.
- **14004**: I trust you found it a pleasant enough diversion, but now I bid you return to the task at hand.
- **14005**: My success is linked to your success, after all. And I have new targets for you to hunt.
- **14006**: Yes...I can feel it. The Prime Weapons will soon be mine to wield...
- **14007**: Elijah smiles at you.
- **14008**: Elijah begins laughing boisterously!
- **14009**: <Player>. I must confess, I thought you had forgotten about me.
- **14010**: We are at our watershed moment. I promise to be brief.
- **14011**: As you are eminently aware, Garazu-Horeizu is on the move.
- **14012**: Of course, we have no choice but to answer in kind.
- **14013**: Yet moving too hastily has caused the downfall of many, so I would ask for your aid once more.
- **14014**: The first issue is dealing with the defectors amongst the beastmen who have joined forces with Chaos.
- **14015**: Unfortunately, their contingent is present not only in the Middle Lands, but Aht Urhgan and the Far East as well.
- **14016**: With the enemy spread out across the world, I have had to dispatch some of my most loyal retainers to the far reaches of the globe.
- **14017**: While they are dealing with the threat above, you will deal with Garazu-Horeizu at the gate between this world and the next.
- **14018**: Of course, this will allow the gate to be opened.
- **14019**: I will take up the rear guard, so you have not to fear.
- **14020**: Ah, but perhaps you are concerned that my protection alone may prove insufficient.
- **14021**: Are you concerned? [Of course!/Of course not!]
- **14022**: Then we shall continue along the same path we have traveled to date.
- **14023**: Oho. I may not have a Prime Weapon, but I promise that my skills are more than sufficient.
- **14024**: Then we have our tasks. Let us see them through.
- **14025**: This is our watershed moment. We must defeat Garazu-Horeizu and his minions.
- **14026**: Best of luck to us all.
- **14027**: <Player>. It has been a spell, hasn't it?
- **14028**: You did well in ridding us of Garazu-Horeizu and Chaos.
- **14029**: I would venture to say that your performance exceeded my wildest expectations.
- **14030**: So much so, in fact, that I find myself at a bit of a loss.
- **14031**: The original plan involved my master having a bit more of a...pivotal role in the aftermath, so to speak.
- **14032**: But you kept all the best parts for yourself.
- **14033**: Still, he was quite pleased with how you presented yourself during the entire ordeal.
- **14034**: And my efforts were rewarded in turn, as I have been permitted to remain in this world for a spell.
- **14035**: A curse in disguise, if you will, for I had hoped to return to his side.
- **14036**: Yet you deserve to know a little bit more...perhaps my true name. Consider it a gift.
- **14037**: I am Markgraf Eligos, and I serve as one of Odin's elite.
- **14038**: May our relationship remain as fruitful going forward as it has been to date.
- **14039**: Yes, "going forward," as I still have the usual tasks for you to fulfill.
- **14040**: Though Garazu-Horeizu no longer poses a threat, his hypnosis magic has still not completely dissipated from the land.
- **14041**: And given the details of our pact, that means you still have your end to hold up.
- **14042**: The pact cannot be broken, but rest assured that you will continue to be rewarded.
- **14043**: The terms should be familiar to you by now. Continue to serve.
- **14044**: And just to reiterate--there is no way to escape your obligation.
- **14045**: I wish you the best of luck...
- **14046**: ...and trust you will continue to meet the terms of our deal.
- **14047**: Keep at it.
- **14048**: Good day, <Player>.
- **14049**: It seems you have been quite busy cleaning up the riff-raff.
- **14050**: The A.M.A.N. has reported to me that your data has come in quite handy--and that you have filled all the tasks I have required of you.
- **14051**: What's this? You wish to discuss it further?
- **14052**: Ah, you wish to receive additional rewards for vanquishing what threats remain. I see, I see.
- **14053**: And you have been unsuccessful in your efforts to procure such rewards, no?
- **14054**: For when you defeat them, they keep coming back?
- **14055**: Forgive me for laughing, but you are aware that you are asking for rewards for killing that which is already dead.
- **14056**: They are of a different world than ours, after all, and trapping them in this one is a fool's errand.
- **14057**: But I do admire your gumption.
- **14058**: I am not an unreasonable man. If you are able to best them again if and when they should appear in our plane, then who am I to deny you an extra prize?
- **14059**: Then I shall prepare some more objectives for you to sink your teeth into. That strikes me as fair, wouldn't you agree?
- **14060**: Let us set the rate: one additional reward for every three objectives completed.
- **14061**: After all, what adventurer does not love rewards, hmm? Just don't get yourself offed in the process.
- **14062**: Oh, yes, and be aware that the additional reward can only be earned monthly (Earth time).
- **14063**: Just keep doing what you're doing.
- **14064**: Good day, <Player>.
- **14065**: Oh, worry not. Your achievements have not gone without notice.
- **14066**: Here are your additional rewards.
- **14067**: May our paths cross again soon.
- **14068**: Good day, <Player>.
- **14069**: "Additional rewards?" Surely you do not think you have earned any.
- **14070**: Remember that your contract with me must be carried out in full.
- **14071**: Good day, <Player>.
- **14072**: You may consider your monthly duties filled. As always, your support is greatly appreciated.
- **14073**: Hopefully our paths will cross again next month.

## Events

### Event 65535

#### Metadata

| Field        | Value   |
|--------------|---------|
| Entrypoint   | 0x0000  |
| Data Size    | 1 bytes |
| Instructions | 1       |

```
      00 01 02 03 04 05 06 07  08 09 0A 0B 0C 0D 0E 0F
      -- -- -- -- -- -- -- --  -- -- -- -- -- -- -- --
0000: 00                                                .               
```

#### Opcodes

```
  0: 0x0000 [0x00] END_REQSTACK()
```

### Event 10247

#### Metadata

| Field        | Value    |
|--------------|----------|
| Entrypoint   | 0x0001   |
| Data Size    | 30 bytes |
| Instructions | 9        |

```
      00 01 02 03 04 05 06 07  08 09 0A 0B 0C 0D 0E 0F
      -- -- -- -- -- -- -- --  -- -- -- -- -- -- -- --
0000:    1E F0 FF FF 7F 6F 70  66 00 80 F8 FF FF 7F F8   .....opf.......
0010: FF FF 7F 74 6C 6B 30 1D  01 80 23 20 00 21 00     ...tlk0...# .!. 
```

#### Opcodes

```
  0: 0x0001 [0x1E] EventEntity looks at LocalPlayer and starts talking
  1: 0x0006 [0x6F] WAIT_FRAME_DELAY: Yield until WaitTime reaches zero
  2: 0x0007 [0x70] WAIT_ENTITY_RENDER_FLAG: Wait while EventEntity->Render.Flags3 bit 2 is set (cancel turn if not)
  3: 0x0008 [0x66] LOAD_EXT_SCHEDULER_MAIN: Load scheduler "tlk0" with entities [EventEntity, EventEntity], work=0*
  4: 0x0017 [0x1D] PRINT_EVENT_MESSAGE(message_id=13880*)
    → "Let us hope that those at Salahaam's Sentinels keep up their end of the bargain..."
  5: 0x001A [0x23] WAIT_FOR_DIALOG_INTERACTION
  6: 0x001B [0x20] SET_CLI_EVENT_UC_FLAG: Unlock player control
  7: 0x001D [0x21] END_EVENT
  8: 0x001E [0x00] END_REQSTACK()
```

### Event 10248

#### Metadata

| Field        | Value     |
|--------------|-----------|
| Entrypoint   | 0x001F    |
| Data Size    | 279 bytes |
| Instructions | 65        |

```
      00 01 02 03 04 05 06 07  08 09 0A 0B 0C 0D 0E 0F
      -- -- -- -- -- -- -- --  -- -- -- -- -- -- -- --
0010:                                               1E                 .
0020: F0 FF FF 7F 4A F0 FF FF  7F F8 FF FF 7F 6F 70 66  ....J........opf
0030: 00 80 F8 FF FF 7F F8 FF  FF 7F 74 68 6B 31 1D 02  ..........thk1..
0040: 80 23 66 00 80 F8 FF FF  7F F8 FF FF 7F 74 68 6B  .#f..........thk
0050: 32 1C 03 80 1D 04 80 23  1D 05 80 23 66 00 80 F8  2......#...#f...
0060: FF FF 7F F8 FF FF 7F 74  6C 6B 30 1D 06 80 23 1D  .......tlk0...#.
0070: 07 80 23 1D 08 80 23 1D  09 80 23 24 0A 80 00 80  ..#...#...#$....
0080: 00 80 25 02 00 10 00 80  00 0F 01 42 66 00 80 F8  ..%........Bf...
0090: FF FF 7F F8 FF FF 7F 74  65 6E 30 1C 03 80 1D 0B  .......ten0.....
00A0: 80 66 00 80 F8 FF FF 7F  F8 FF FF 7F 70 61 73 30  .f..........pas0
00B0: 1C 0C 80 23 1D 0D 80 23  1D 0E 80 23 66 00 80 F8  ...#...#...#f...
00C0: FF FF 7F F8 FF FF 7F 74  6C 6B 30 1D 0F 80 23 1D  .......tlk0...#.
00D0: 10 80 23 48 11 80 1D 12  80 23 1D 13 80 23 66 00  ..#H.....#...#f.
00E0: 80 F8 FF FF 7F F8 FF FF  7F 74 65 6E 30 1D 14 80  .........ten0...
00F0: 23 6E 06 41 0F 01 15 80  99 06 41 0F 01 1D 16 80  #n.A......A.....
0100: 23 59 06 06 41 0F 01 03  01 10 15 80 01 32 01 02  #Y..A........2..
0110: 00 10 15 80 00 32 01 66  00 80 F8 FF FF 7F F8 FF  .....2.f........
0120: FF 7F 74 65 6E 31 1D 17  80 23 03 01 10 18 80 01  ..ten1...#......
0130: 32 01 20 00 21 00                                 2. .!.          
```

#### Opcodes

```
  0: 0x001F [0x1E] EventEntity looks at LocalPlayer and starts talking
  1: 0x0024 [0x4A] LocalPlayer looks at EventEntity
  2: 0x002D [0x6F] WAIT_FRAME_DELAY: Yield until WaitTime reaches zero
  3: 0x002E [0x70] WAIT_ENTITY_RENDER_FLAG: Wait while EventEntity->Render.Flags3 bit 2 is set (cancel turn if not)
  4: 0x002F [0x66] LOAD_EXT_SCHEDULER_MAIN: Load scheduler "thk1" with entities [EventEntity, EventEntity], work=0*
  5: 0x003E [0x1D] PRINT_EVENT_MESSAGE(message_id=13881*)
    → "Ah. And you must be..."
  6: 0x0041 [0x23] WAIT_FOR_DIALOG_INTERACTION
  7: 0x0042 [0x66] LOAD_EXT_SCHEDULER_MAIN: Load scheduler "thk2" with entities [EventEntity, EventEntity], work=0*
  8: 0x0051 [0x1C] WAIT(60* ticks)
  9: 0x0054 [0x1D] PRINT_EVENT_MESSAGE(message_id=13882*)
    → "<Player>. Of course. Your reputation precedes you."
 10: 0x0057 [0x23] WAIT_FOR_DIALOG_INTERACTION
 11: 0x0058 [0x1D] PRINT_EVENT_MESSAGE(message_id=13883*)
    → "I am well aware of the deeds you have performed for me via your connections in Salaheem's Sentinels."
 12: 0x005B [0x23] WAIT_FOR_DIALOG_INTERACTION
 13: 0x005C [0x66] LOAD_EXT_SCHEDULER_MAIN: Load scheduler "tlk0" with entities [EventEntity, EventEntity], work=0*
 14: 0x006B [0x1D] PRINT_EVENT_MESSAGE(message_id=13884*)
    → "But where are my manners? I have yet to introduce myself."
 15: 0x006E [0x23] WAIT_FOR_DIALOG_INTERACTION
 16: 0x006F [0x1D] PRINT_EVENT_MESSAGE(message_id=13885*)
    → "I am Elijah, but a humble member of the Adventurers' Mutual Aid Network (A.M.A.N.)."
 17: 0x0072 [0x23] WAIT_FOR_DIALOG_INTERACTION
 18: 0x0073 [0x1D] PRINT_EVENT_MESSAGE(message_id=13886*)
    → "I have acquired some information about threats that need to be vanquished as part of your excellent work in the Records of Eminence initiative."
 19: 0x0076 [0x23] WAIT_FOR_DIALOG_INTERACTION
 20: 0x0077 [0x1D] PRINT_EVENT_MESSAGE(message_id=13887*)
    → "I am loath to admit that these foes may be beneath your station, but I would ask you to remove them nonetheless."
 21: 0x007A [0x23] WAIT_FOR_DIALOG_INTERACTION
 22: 0x007B [0x24] CREATE_DIALOG(message_id=13888*, default_option=0*, option_flags=0*)
    → "Accept the request? [Of course./No thanks.]"
 23: 0x0082 [0x25] WAIT_DIALOG_SELECT()
 24: 0x0083 [0x02] IF !(Work_Zone[0] == 0*) GOTO 0x010F
 25: 0x008B [0x42] SET_CLI_EVENT_CANCEL_DATA()
 26: 0x008C [0x66] LOAD_EXT_SCHEDULER_MAIN: Load scheduler "ten0" with entities [EventEntity, EventEntity], work=0*
 27: 0x009B [0x1C] WAIT(60* ticks)
 28: 0x009E [0x1D] PRINT_EVENT_MESSAGE(message_id=13889*)
    → "You have my gratitude. Allow me to provide you with the relevant intel."
 29: 0x00A1 [0x66] LOAD_EXT_SCHEDULER_MAIN: Load scheduler "pas0" with entities [EventEntity, EventEntity], work=0*
 30: 0x00B0 [0x1C] WAIT(90* ticks)
 31: 0x00B3 [0x23] WAIT_FOR_DIALOG_INTERACTION
 32: 0x00B4 [0x1D] PRINT_EVENT_MESSAGE(message_id=13891*)
    → "Your quarry resides on the continent of Aradjiah."
 33: 0x00B7 [0x23] WAIT_FOR_DIALOG_INTERACTION
 34: 0x00B8 [0x1D] PRINT_EVENT_MESSAGE(message_id=13892*)
    → "Though I would ordinarily rely on local mercenaries for the task, this requires a more...delicate touch."
 35: 0x00BB [0x23] WAIT_FOR_DIALOG_INTERACTION
 36: 0x00BC [0x66] LOAD_EXT_SCHEDULER_MAIN: Load scheduler "tlk0" with entities [EventEntity, EventEntity], work=0*
 37: 0x00CB [0x1D] PRINT_EVENT_MESSAGE(message_id=13893*)
    → "I promise that the reward will be worthwhile. Double so if you bring proof of the kill."
 38: 0x00CE [0x23] WAIT_FOR_DIALOG_INTERACTION
 39: 0x00CF [0x1D] PRINT_EVENT_MESSAGE(message_id=13894*)
    → "Should you be able to do so, that is..."
 40: 0x00D2 [0x23] WAIT_FOR_DIALOG_INTERACTION
 41: 0x00D3 [0x48] [System] [13901*]:
    → "Elijah smirks at you."
 42: 0x00D6 [0x1D] PRINT_EVENT_MESSAGE(message_id=13895*)
    → "While I appreciate your efforts, I am only able to provide you with rewards once per month (Earth time)."
 43: 0x00D9 [0x23] WAIT_FOR_DIALOG_INTERACTION
 44: 0x00DA [0x1D] PRINT_EVENT_MESSAGE(message_id=13896*)
    → "I am positive that we will be able to uncover more threats in the upcoming months."
 45: 0x00DD [0x23] WAIT_FOR_DIALOG_INTERACTION
 46: 0x00DE [0x66] LOAD_EXT_SCHEDULER_MAIN: Load scheduler "ten0" with entities [EventEntity, EventEntity], work=0*
 47: 0x00ED [0x1D] PRINT_EVENT_MESSAGE(message_id=13897*)
    → "Of course, I will provide you with more information as circumstances warrant."
 48: 0x00F0 [0x23] WAIT_FOR_DIALOG_INTERACTION
 49: 0x00F1 [0x6E] Elijah (ID: 17776902/0x010F4106) uses emote 1*
 50: 0x00F8 [0x99] Wait for Elijah (ID: 17776902/0x010F4106) animation to complete
 51: 0x00FD [0x1D] PRINT_EVENT_MESSAGE(message_id=13898*)
    → "Once again, your assistance is most appreciated."
 52: 0x0100 [0x23] WAIT_FOR_DIALOG_INTERACTION
 53: 0x0101 [0x59] UPDATE_ENTITY_DATA: Check if Elijah (ID: 17776902/0x010F4106) is performing moving action
 54: 0x0107 [0x03] Work_Zone[1] = 1*
 55: 0x010C [0x01] GOTO 0x0132
 56: 0x010F [0x02] IF !(Work_Zone[0] == 1*) GOTO 0x0132
 57: 0x0117 [0x66] LOAD_EXT_SCHEDULER_MAIN: Load scheduler "ten1" with entities [EventEntity, EventEntity], work=0*
 58: 0x0126 [0x1D] PRINT_EVENT_MESSAGE(message_id=13890*)
    → "Unfortunate, but not altogether unexpected."
 59: 0x0129 [0x23] WAIT_FOR_DIALOG_INTERACTION
 60: 0x012A [0x03] Work_Zone[1] = 2*
 61: 0x012F [0x01] GOTO 0x0132

SUBROUTINE_0132:
 62: 0x0132 [0x20] SET_CLI_EVENT_UC_FLAG: Unlock player control
 63: 0x0134 [0x21] END_EVENT
 64: 0x0135 [0x00] END_REQSTACK()
```

### Event 10249

#### Metadata

| Field        | Value    |
|--------------|----------|
| Entrypoint   | 0x0136   |
| Data Size    | 43 bytes |
| Instructions | 12       |

```
      00 01 02 03 04 05 06 07  08 09 0A 0B 0C 0D 0E 0F
      -- -- -- -- -- -- -- --  -- -- -- -- -- -- -- --
0130:                   1E F0  FF FF 7F 4A F0 FF FF 7F        .....J....
0140: F8 FF FF 7F 6F 70 66 00  80 F8 FF FF 7F F8 FF FF  ....opf.........
0150: 7F 74 6C 6B 30 1D 19 80  23 1D 1A 80 23 20 00 21  .tlk0...#...# .!
0160: 00                                                .               
```

#### Opcodes

```
  0: 0x0136 [0x1E] EventEntity looks at LocalPlayer and starts talking
  1: 0x013B [0x4A] LocalPlayer looks at EventEntity
  2: 0x0144 [0x6F] WAIT_FRAME_DELAY: Yield until WaitTime reaches zero
  3: 0x0145 [0x70] WAIT_ENTITY_RENDER_FLAG: Wait while EventEntity->Render.Flags3 bit 2 is set (cancel turn if not)
  4: 0x0146 [0x66] LOAD_EXT_SCHEDULER_MAIN: Load scheduler "tlk0" with entities [EventEntity, EventEntity], work=0*
  5: 0x0155 [0x1D] PRINT_EVENT_MESSAGE(message_id=13899*)
    → "Thank you for setting the appropriate objective."
  6: 0x0158 [0x23] WAIT_FOR_DIALOG_INTERACTION
  7: 0x0159 [0x1D] PRINT_EVENT_MESSAGE(message_id=13900*)
    → "May you strike true."
  8: 0x015C [0x23] WAIT_FOR_DIALOG_INTERACTION
  9: 0x015D [0x20] SET_CLI_EVENT_UC_FLAG: Unlock player control
 10: 0x015F [0x21] END_EVENT
 11: 0x0160 [0x00] END_REQSTACK()
```

### Event 10250

#### Metadata

| Field        | Value     |
|--------------|-----------|
| Entrypoint   | 0x0161    |
| Data Size    | 192 bytes |
| Instructions | 41        |

```
      00 01 02 03 04 05 06 07  08 09 0A 0B 0C 0D 0E 0F
      -- -- -- -- -- -- -- --  -- -- -- -- -- -- -- --
0160:    1E F0 FF FF 7F 4A F0  FF FF 7F F8 FF FF 7F 6F   .....J........o
0170: 70 66 00 80 F8 FF FF 7F  F8 FF FF 7F 74 6C 6B 30  pf..........tlk0
0180: 1D 1B 80 23 1D 1C 80 23  1D 1D 80 23 66 00 80 F8  ...#...#...#f...
0190: FF FF 7F F8 FF FF 7F 74  65 6E 30 1D 1E 80 23 66  .......ten0...#f
01A0: 00 80 F8 FF FF 7F F8 FF  FF 7F 74 68 6B 31 1D 1F  ..........thk1..
01B0: 80 23 66 00 80 F8 FF FF  7F F8 FF FF 7F 74 68 6B  .#f..........thk
01C0: 32 42 1D 20 80 66 00 80  F8 FF FF 7F F8 FF FF 7F  2B. .f..........
01D0: 70 61 73 30 1C 0C 80 23  66 00 80 F8 FF FF 7F F8  pas0...#f.......
01E0: FF FF 7F 74 6C 6B 31 1D  21 80 23 1D 22 80 23 1D  ...tlk1.!.#.".#.
01F0: 23 80 23 1D 24 80 23 66  00 80 F8 FF FF 7F F8 FF  #.#.$.#f........
0200: FF 7F 74 65 6E 31 1D 25  80 23 66 00 80 F8 FF FF  ..ten1.%.#f.....
0210: 7F F8 FF FF 7F 74 6C 6B  30 1D 26 80 23 20 00 21  .....tlk0.&.# .!
0220: 00                                                .               
```

#### Opcodes

```
  0: 0x0161 [0x1E] EventEntity looks at LocalPlayer and starts talking
  1: 0x0166 [0x4A] LocalPlayer looks at EventEntity
  2: 0x016F [0x6F] WAIT_FRAME_DELAY: Yield until WaitTime reaches zero
  3: 0x0170 [0x70] WAIT_ENTITY_RENDER_FLAG: Wait while EventEntity->Render.Flags3 bit 2 is set (cancel turn if not)
  4: 0x0171 [0x66] LOAD_EXT_SCHEDULER_MAIN: Load scheduler "tlk0" with entities [EventEntity, EventEntity], work=0*
  5: 0x0180 [0x1D] PRINT_EVENT_MESSAGE(message_id=13902*)
    → "Well, well, if it isn't my favorite intrepid adventurer, <Player>."
  6: 0x0183 [0x23] WAIT_FOR_DIALOG_INTERACTION
  7: 0x0184 [0x1D] PRINT_EVENT_MESSAGE(message_id=13903*)
    → "You seem to have been quite busy of late, what with all the fiend slaying and equipment collecting going on."
  8: 0x0187 [0x23] WAIT_FOR_DIALOG_INTERACTION
  9: 0x0188 [0x1D] PRINT_EVENT_MESSAGE(message_id=13904*)
    → "And in between all your marauding, you still found time to deal with Falak. Heroism truly is your most impressive attribute."
 10: 0x018B [0x23] WAIT_FOR_DIALOG_INTERACTION
 11: 0x018C [0x66] LOAD_EXT_SCHEDULER_MAIN: Load scheduler "ten0" with entities [EventEntity, EventEntity], work=0*
 12: 0x019B [0x1D] PRINT_EVENT_MESSAGE(message_id=13905*)
    → "You've really helped me to regain my faith in humanity."
 13: 0x019E [0x23] WAIT_FOR_DIALOG_INTERACTION
 14: 0x019F [0x66] LOAD_EXT_SCHEDULER_MAIN: Load scheduler "thk1" with entities [EventEntity, EventEntity], work=0*
 15: 0x01AE [0x1D] PRINT_EVENT_MESSAGE(message_id=13906*)
    → "And given your track record and breadth of talents, I would ask another favor of you."
 16: 0x01B1 [0x23] WAIT_FOR_DIALOG_INTERACTION
 17: 0x01B2 [0x66] LOAD_EXT_SCHEDULER_MAIN: Load scheduler "thk2" with entities [EventEntity, EventEntity], work=0*
 18: 0x01C1 [0x42] SET_CLI_EVENT_CANCEL_DATA()
 19: 0x01C2 [0x1D] PRINT_EVENT_MESSAGE(message_id=13907*)
    → "And just as before, this will be handled via Records of Eminence. Have to make sure all the Is are dotted and the Ts crossed, as you know."
 20: 0x01C5 [0x66] LOAD_EXT_SCHEDULER_MAIN: Load scheduler "pas0" with entities [EventEntity, EventEntity], work=0*
 21: 0x01D4 [0x1C] WAIT(90* ticks)
 22: 0x01D7 [0x23] WAIT_FOR_DIALOG_INTERACTION
 23: 0x01D8 [0x66] LOAD_EXT_SCHEDULER_MAIN: Load scheduler "tlk1" with entities [EventEntity, EventEntity], work=0*
 24: 0x01E7 [0x1D] PRINT_EVENT_MESSAGE(message_id=13908*)
    → "For you see, the fiends I hunt are not just limited to Aradjiah."
 25: 0x01EA [0x23] WAIT_FOR_DIALOG_INTERACTION
 26: 0x01EB [0x1D] PRINT_EVENT_MESSAGE(message_id=13909*)
    → "Although it does seem they aimed to break a particular seal..."
 27: 0x01EE [0x23] WAIT_FOR_DIALOG_INTERACTION
 28: 0x01EF [0x1D] PRINT_EVENT_MESSAGE(message_id=13910*)
    → "...this time they aim to lay claim to the World Eater Egg. No, this simply will not do."
 29: 0x01F2 [0x23] WAIT_FOR_DIALOG_INTERACTION
 30: 0x01F3 [0x1D] PRINT_EVENT_MESSAGE(message_id=13911*)
    → "This goes directly against the will of my master, and I shall suffer none to cross him."
 31: 0x01F6 [0x23] WAIT_FOR_DIALOG_INTERACTION
 32: 0x01F7 [0x66] LOAD_EXT_SCHEDULER_MAIN: Load scheduler "ten1" with entities [EventEntity, EventEntity], work=0*
 33: 0x0206 [0x1D] PRINT_EVENT_MESSAGE(message_id=13912*)
    → "I trust you will vanquish this threat with all due haste."
 34: 0x0209 [0x23] WAIT_FOR_DIALOG_INTERACTION
 35: 0x020A [0x66] LOAD_EXT_SCHEDULER_MAIN: Load scheduler "tlk0" with entities [EventEntity, EventEntity], work=0*
 36: 0x0219 [0x1D] PRINT_EVENT_MESSAGE(message_id=13913*)
    → "We're counting on you, hero."
 37: 0x021C [0x23] WAIT_FOR_DIALOG_INTERACTION
 38: 0x021D [0x20] SET_CLI_EVENT_UC_FLAG: Unlock player control
 39: 0x021F [0x21] END_EVENT
 40: 0x0220 [0x00] END_REQSTACK()
```

### Event 10251

#### Metadata

| Field        | Value     |
|--------------|-----------|
| Entrypoint   | 0x0221    |
| Data Size    | 240 bytes |
| Instructions | 54        |

```
      00 01 02 03 04 05 06 07  08 09 0A 0B 0C 0D 0E 0F
      -- -- -- -- -- -- -- --  -- -- -- -- -- -- -- --
0220:    03 00 00 02 10 1E F0  FF FF 7F 4A F0 FF FF 7F   ..........J....
0230: F8 FF FF 7F 6F 70 66 00  80 F8 FF FF 7F F8 FF FF  ....opf.........
0240: 7F 74 6C 6B 30 1D 27 80  23 02 00 00 15 80 00 59  .tlk0.'.#......Y
0250: 02 1D 28 80 23 1D 29 80  23 1D 2A 80 23 66 00 80  ..(.#.).#.*.#f..
0260: F8 FF FF 7F F8 FF FF 7F  74 65 6E 30 42 1D 2B 80  ........ten0B.+.
0270: 66 00 80 F8 FF FF 7F F8  FF FF 7F 70 61 73 30 1C  f..........pas0.
0280: 0C 80 23 66 00 80 F8 FF  FF 7F F8 FF FF 7F 74 6C  ..#f..........tl
0290: 6B 31 1D 2C 80 23 1D 2D  80 23 1D 2E 80 23 1D 2F  k1.,.#.-.#...#./
02A0: 80 23 1D 30 80 23 66 00  80 F8 FF FF 7F F8 FF FF  .#.0.#f.........
02B0: 7F 74 65 6E 31 1D 31 80  23 66 00 80 F8 FF FF 7F  .ten1.1.#f......
02C0: F8 FF FF 7F 74 6C 6B 30  1D 32 80 23 1D 33 80 23  ....tlk0.2.#.3.#
02D0: 1D 34 80 23 66 00 80 F8  FF FF 7F F8 FF FF 7F 74  .4.#f..........t
02E0: 65 6E 30 1D 35 80 23 66  00 80 F8 FF FF 7F F8 FF  en0.5.#f........
02F0: FF 7F 74 68 6B 31 1D 36  80 23 1D 37 80 23 66 00  ..thk1.6.#.7.#f.
0300: 80 F8 FF FF 7F F8 FF FF  7F 74 68 6B 32 20 00 21  .........thk2 .!
0310: 00                                                .               
```

#### Opcodes

```
  0: 0x0221 [0x03] ExtData[1]->WorkLocal[0] = Work_Zone[2]
  1: 0x0226 [0x1E] EventEntity looks at LocalPlayer and starts talking
  2: 0x022B [0x4A] LocalPlayer looks at EventEntity
  3: 0x0234 [0x6F] WAIT_FRAME_DELAY: Yield until WaitTime reaches zero
  4: 0x0235 [0x70] WAIT_ENTITY_RENDER_FLAG: Wait while EventEntity->Render.Flags3 bit 2 is set (cancel turn if not)
  5: 0x0236 [0x66] LOAD_EXT_SCHEDULER_MAIN: Load scheduler "tlk0" with entities [EventEntity, EventEntity], work=0*
  6: 0x0245 [0x1D] PRINT_EVENT_MESSAGE(message_id=13914*)
    → "Pleasure as always, <Player>."
  7: 0x0248 [0x23] WAIT_FOR_DIALOG_INTERACTION
  8: 0x0249 [0x02] IF !(ExtData[1]->WorkLocal[0] == 1*) GOTO 0x0259
  9: 0x0251 [0x1D] PRINT_EVENT_MESSAGE(message_id=13915*)
    → "Your fervor in vanquishing those which threaten us all has not gone unappreciated."
 10: 0x0254 [0x23] WAIT_FOR_DIALOG_INTERACTION
 11: 0x0255 [0x1D] PRINT_EVENT_MESSAGE(message_id=13916*)
    → "Although perhaps you were only assisting me for baubles and glory rather than righteousness and justice, I must thank you all the same."
 12: 0x0258 [0x23] WAIT_FOR_DIALOG_INTERACTION
 13: 0x0259 [0x1D] PRINT_EVENT_MESSAGE(message_id=13917*)
    → "So without further ado, permit me to introduce you to your next targets."
 14: 0x025C [0x23] WAIT_FOR_DIALOG_INTERACTION
 15: 0x025D [0x66] LOAD_EXT_SCHEDULER_MAIN: Load scheduler "ten0" with entities [EventEntity, EventEntity], work=0*
 16: 0x026C [0x42] SET_CLI_EVENT_CANCEL_DATA()
 17: 0x026D [0x1D] PRINT_EVENT_MESSAGE(message_id=13918*)
    → "You are to make for Aydeewa and Arrapago."
 18: 0x0270 [0x66] LOAD_EXT_SCHEDULER_MAIN: Load scheduler "pas0" with entities [EventEntity, EventEntity], work=0*
 19: 0x027F [0x1C] WAIT(90* ticks)
 20: 0x0282 [0x23] WAIT_FOR_DIALOG_INTERACTION
 21: 0x0283 [0x66] LOAD_EXT_SCHEDULER_MAIN: Load scheduler "tlk1" with entities [EventEntity, EventEntity], work=0*
 22: 0x0292 [0x1D] PRINT_EVENT_MESSAGE(message_id=13919*)
    → "It appears that the dead have redoubled their efforts to usher in the egg's hatching, and it has already been brought to the reef."
 23: 0x0295 [0x23] WAIT_FOR_DIALOG_INTERACTION
 24: 0x0296 [0x1D] PRINT_EVENT_MESSAGE(message_id=13920*)
    → "And if we can hinder their efforts...well, suffice it to say that my lord will be quite pleased indeed."
 25: 0x0299 [0x23] WAIT_FOR_DIALOG_INTERACTION
 26: 0x029A [0x1D] PRINT_EVENT_MESSAGE(message_id=13921*)
    → "Though I would normally be content to leave the dead well alone, I fear that his will is indeed absolute in this matter."
 27: 0x029D [0x23] WAIT_FOR_DIALOG_INTERACTION
 28: 0x029E [0x1D] PRINT_EVENT_MESSAGE(message_id=13922*)
    → "Of course, I need not tell you that for every one you strike down two more will doubtless take its place. I can think of no task more Sisyphean."
 29: 0x02A1 [0x23] WAIT_FOR_DIALOG_INTERACTION
 30: 0x02A2 [0x1D] PRINT_EVENT_MESSAGE(message_id=13923*)
    → "Were it up to me, I would see the entire place set ablaze."
 31: 0x02A5 [0x23] WAIT_FOR_DIALOG_INTERACTION
 32: 0x02A6 [0x66] LOAD_EXT_SCHEDULER_MAIN: Load scheduler "ten1" with entities [EventEntity, EventEntity], work=0*
 33: 0x02B5 [0x1D] PRINT_EVENT_MESSAGE(message_id=13924*)
    → "I must admit that my mental health has taken a turn for the better knowing I can count on you to handle this issue."
 34: 0x02B8 [0x23] WAIT_FOR_DIALOG_INTERACTION
 35: 0x02B9 [0x66] LOAD_EXT_SCHEDULER_MAIN: Load scheduler "tlk0" with entities [EventEntity, EventEntity], work=0*
 36: 0x02C8 [0x1D] PRINT_EVENT_MESSAGE(message_id=13925*)
    → "I must remain resolute, for it will not be much longer before my plans come to full fruition."
 37: 0x02CB [0x23] WAIT_FOR_DIALOG_INTERACTION
 38: 0x02CC [0x1D] PRINT_EVENT_MESSAGE(message_id=13926*)
    → "But I am vexed that my comrades--my lord's right-hand troops--have been lax in their reporting of late."
 39: 0x02CF [0x23] WAIT_FOR_DIALOG_INTERACTION
 40: 0x02D0 [0x1D] PRINT_EVENT_MESSAGE(message_id=13927*)
    → "Doubtless they have their hands full. May the will of my lord be done."
 41: 0x02D3 [0x23] WAIT_FOR_DIALOG_INTERACTION
 42: 0x02D4 [0x66] LOAD_EXT_SCHEDULER_MAIN: Load scheduler "ten0" with entities [EventEntity, EventEntity], work=0*
 43: 0x02E3 [0x1D] PRINT_EVENT_MESSAGE(message_id=13928*)
    → "Goddesspeed, hero."
 44: 0x02E6 [0x23] WAIT_FOR_DIALOG_INTERACTION
 45: 0x02E7 [0x66] LOAD_EXT_SCHEDULER_MAIN: Load scheduler "thk1" with entities [EventEntity, EventEntity], work=0*
 46: 0x02F6 [0x1D] PRINT_EVENT_MESSAGE(message_id=13929*)
    → "Why won't the dead just stay dead? This goes against all our calculations."
 47: 0x02F9 [0x23] WAIT_FOR_DIALOG_INTERACTION
 48: 0x02FA [0x1D] PRINT_EVENT_MESSAGE(message_id=13930*)
    → "Perhaps they fear my lord's wrath and deemed their chances best on this side of the veil."
 49: 0x02FD [0x23] WAIT_FOR_DIALOG_INTERACTION
 50: 0x02FE [0x66] LOAD_EXT_SCHEDULER_MAIN: Load scheduler "thk2" with entities [EventEntity, EventEntity], work=0*
 51: 0x030D [0x20] SET_CLI_EVENT_UC_FLAG: Unlock player control
 52: 0x030F [0x21] END_EVENT
 53: 0x0310 [0x00] END_REQSTACK()
```

### Event 10252

#### Metadata

| Field        | Value     |
|--------------|-----------|
| Entrypoint   | 0x0311    |
| Data Size    | 246 bytes |
| Instructions | 57        |

```
      00 01 02 03 04 05 06 07  08 09 0A 0B 0C 0D 0E 0F
      -- -- -- -- -- -- -- --  -- -- -- -- -- -- -- --
0310:    1E F0 FF FF 7F 4A F0  FF FF 7F F8 FF FF 7F 6F   .....J........o
0320: 70 1D 38 80 23 66 00 80  F8 FF FF 7F F8 FF FF 7F  p.8.#f..........
0330: 74 68 6B 31 1D 39 80 23  1D 3A 80 23 1D 3B 80 23  thk1.9.#.:.#.;.#
0340: 1D 3C 80 23 66 00 80 F8  FF FF 7F F8 FF FF 7F 74  .<.#f..........t
0350: 68 6B 32 1D 3D 80 23 66  00 80 F8 FF FF 7F F8 FF  hk2.=.#f........
0360: FF 7F 74 6C 6B 30 1D 3E  80 23 1D 3F 80 23 1D 40  ..tlk0.>.#.?.#.@
0370: 80 23 66 00 80 F8 FF FF  7F F8 FF FF 7F 74 65 6E  .#f..........ten
0380: 30 6E F0 FF FF 7F 41 80  99 F0 FF FF 7F 1C 42 80  0n....A.......B.
0390: 1D 43 80 23 66 00 80 F8  FF FF 7F F8 FF FF 7F 74  .C.#f..........t
03A0: 68 6B 31 1D 44 80 23 1D  45 80 23 66 00 80 F8 FF  hk1.D.#.E.#f....
03B0: FF 7F F8 FF FF 7F 74 68  6B 32 42 1D 46 80 66 00  ......thk2B.F.f.
03C0: 80 F8 FF FF 7F F8 FF FF  7F 70 61 73 30 1C 0C 80  .........pas0...
03D0: 23 1D 47 80 23 1D 48 80  23 66 00 80 F8 FF FF 7F  #.G.#.H.#f......
03E0: F8 FF FF 7F 74 6C 6B 30  1D 49 80 23 1D 4A 80 23  ....tlk0.I.#.J.#
03F0: 1D 4B 80 23 66 00 80 F8  FF FF 7F F8 FF FF 7F 74  .K.#f..........t
0400: 65 6E 30 20 00 21 00                              en0 .!.         
```

#### Opcodes

```
  0: 0x0311 [0x1E] EventEntity looks at LocalPlayer and starts talking
  1: 0x0316 [0x4A] LocalPlayer looks at EventEntity
  2: 0x031F [0x6F] WAIT_FRAME_DELAY: Yield until WaitTime reaches zero
  3: 0x0320 [0x70] WAIT_ENTITY_RENDER_FLAG: Wait while EventEntity->Render.Flags3 bit 2 is set (cancel turn if not)
  4: 0x0321 [0x1D] PRINT_EVENT_MESSAGE(message_id=13931*)
    → "Ah, my erstwhile friend! You couldn't have arrived at a more fortuitous time."
  5: 0x0324 [0x23] WAIT_FOR_DIALOG_INTERACTION
  6: 0x0325 [0x66] LOAD_EXT_SCHEDULER_MAIN: Load scheduler "thk1" with entities [EventEntity, EventEntity], work=0*
  7: 0x0334 [0x1D] PRINT_EVENT_MESSAGE(message_id=13932*)
    → "At risk of sounding like a broken orchestrion, I confess that I require your assistance once more."
  8: 0x0337 [0x23] WAIT_FOR_DIALOG_INTERACTION
  9: 0x0338 [0x1D] PRINT_EVENT_MESSAGE(message_id=13933*)
    → "I had been under the impression that the dead were set on returning here, to the world of the living--but it appears I was mistaken."
 10: 0x033B [0x23] WAIT_FOR_DIALOG_INTERACTION
 11: 0x033C [0x1D] PRINT_EVENT_MESSAGE(message_id=13934*)
    → "What their true aim is remains yet a mystery, but one thing is certain--their leader possesses an immense power that defies expectations. Their plans must not be allowed to succeed."
 12: 0x033F [0x23] WAIT_FOR_DIALOG_INTERACTION
 13: 0x0340 [0x1D] PRINT_EVENT_MESSAGE(message_id=13935*)
    → "I say this not to diminish the vast capabilities of my master, but to demonstrate to you the commitment of my colleagues and I to ensuring that their machinations bear no fruit."
 14: 0x0343 [0x23] WAIT_FOR_DIALOG_INTERACTION
 15: 0x0344 [0x66] LOAD_EXT_SCHEDULER_MAIN: Load scheduler "thk2" with entities [EventEntity, EventEntity], work=0*
 16: 0x0353 [0x1D] PRINT_EVENT_MESSAGE(message_id=13936*)
    → "Yet as the field of battle expands, our forces find themselves stretched increasingly thin. Even my master is vexed at where best to concentrate our efforts."
 17: 0x0356 [0x23] WAIT_FOR_DIALOG_INTERACTION
 18: 0x0357 [0x66] LOAD_EXT_SCHEDULER_MAIN: Load scheduler "tlk0" with entities [EventEntity, EventEntity], work=0*
 19: 0x0366 [0x1D] PRINT_EVENT_MESSAGE(message_id=13937*)
    → "And so my master created--employed--new soldiers to aid in the efforts. Prompt though their reports were, I found the content thereof to be impudent at best."
 20: 0x0369 [0x23] WAIT_FOR_DIALOG_INTERACTION
 21: 0x036A [0x1D] PRINT_EVENT_MESSAGE(message_id=13938*)
    → ""Stop yapping and clean up the stragglers. Those are your orders, and you'd best follow them.""
 22: 0x036D [0x23] WAIT_FOR_DIALOG_INTERACTION
 23: 0x036E [0x1D] PRINT_EVENT_MESSAGE(message_id=13939*)
    → "The audacity! Whether they are right or not is immaterial--their tone is completely unaccpetable."
 24: 0x0371 [0x23] WAIT_FOR_DIALOG_INTERACTION
 25: 0x0372 [0x66] LOAD_EXT_SCHEDULER_MAIN: Load scheduler "ten0" with entities [EventEntity, EventEntity], work=0*
 26: 0x0381 [0x6E] LocalPlayer uses emote 20*
 27: 0x0388 [0x99] Wait for LocalPlayer animation to complete
 28: 0x038D [0x1C] WAIT(120* ticks)
 29: 0x0390 [0x1D] PRINT_EVENT_MESSAGE(message_id=13940*)
    → "Ugh. To think they get to me so easily..."
 30: 0x0393 [0x23] WAIT_FOR_DIALOG_INTERACTION
 31: 0x0394 [0x66] LOAD_EXT_SCHEDULER_MAIN: Load scheduler "thk1" with entities [EventEntity, EventEntity], work=0*
 32: 0x03A3 [0x1D] PRINT_EVENT_MESSAGE(message_id=13941*)
    → "The will of my master is paramount. If we are to clean up the "stragglers," then so be it."
 33: 0x03A6 [0x23] WAIT_FOR_DIALOG_INTERACTION
 34: 0x03A7 [0x1D] PRINT_EVENT_MESSAGE(message_id=13942*)
    → "I will fill my charge without fail."
 35: 0x03AA [0x23] WAIT_FOR_DIALOG_INTERACTION
 36: 0x03AB [0x66] LOAD_EXT_SCHEDULER_MAIN: Load scheduler "thk2" with entities [EventEntity, EventEntity], work=0*
 37: 0x03BA [0x42] SET_CLI_EVENT_CANCEL_DATA()
 38: 0x03BB [0x1D] PRINT_EVENT_MESSAGE(message_id=13943*)
    → "I have taken the liberty of preparing a list of your next targets."
 39: 0x03BE [0x66] LOAD_EXT_SCHEDULER_MAIN: Load scheduler "pas0" with entities [EventEntity, EventEntity], work=0*
 40: 0x03CD [0x1C] WAIT(90* ticks)
 41: 0x03D0 [0x23] WAIT_FOR_DIALOG_INTERACTION
 42: 0x03D1 [0x1D] PRINT_EVENT_MESSAGE(message_id=13944*)
    → "Though information on previous marks was collected by my underlings, this time I have taken it upon myself to collate the necessary materials."
 43: 0x03D4 [0x23] WAIT_FOR_DIALOG_INTERACTION
 44: 0x03D5 [0x1D] PRINT_EVENT_MESSAGE(message_id=13945*)
    → "Fear not. It is as accurate as the previous entries. I take my job quite seriously."
 45: 0x03D8 [0x23] WAIT_FOR_DIALOG_INTERACTION
 46: 0x03D9 [0x66] LOAD_EXT_SCHEDULER_MAIN: Load scheduler "tlk0" with entities [EventEntity, EventEntity], work=0*
 47: 0x03E8 [0x1D] PRINT_EVENT_MESSAGE(message_id=13946*)
    → "It remains to be seen why our foes are mustering their forces here in Vana'diel."
 48: 0x03EB [0x23] WAIT_FOR_DIALOG_INTERACTION
 49: 0x03EC [0x1D] PRINT_EVENT_MESSAGE(message_id=13947*)
    → "Ah, but you fancy yourself a defender of Vana'diel, do you not? How quaint."
 50: 0x03EF [0x23] WAIT_FOR_DIALOG_INTERACTION
 51: 0x03F0 [0x1D] PRINT_EVENT_MESSAGE(message_id=13948*)
    → "I wish you the best of luck."
 52: 0x03F3 [0x23] WAIT_FOR_DIALOG_INTERACTION
 53: 0x03F4 [0x66] LOAD_EXT_SCHEDULER_MAIN: Load scheduler "ten0" with entities [EventEntity, EventEntity], work=0*
 54: 0x0403 [0x20] SET_CLI_EVENT_UC_FLAG: Unlock player control
 55: 0x0405 [0x21] END_EVENT
 56: 0x0406 [0x00] END_REQSTACK()
```

### Event 10256

#### Metadata

| Field        | Value    |
|--------------|----------|
| Entrypoint   | 0x0407   |
| Data Size    | 47 bytes |
| Instructions | 14       |

```
      00 01 02 03 04 05 06 07  08 09 0A 0B 0C 0D 0E 0F
      -- -- -- -- -- -- -- --  -- -- -- -- -- -- -- --
0400:                      1E  F0 FF FF 7F 4A F0 FF FF         .....J...
0410: 7F F8 FF FF 7F 6F 70 66  00 80 F8 FF FF 7F F8 FF  .....opf........
0420: FF 7F 74 6C 6B 30 1D 4C  80 23 1D 4D 80 23 1D 4E  ..tlk0.L.#.M.#.N
0430: 80 23 20 00 21 00                                 .# .!.          
```

#### Opcodes

```
  0: 0x0407 [0x1E] EventEntity looks at LocalPlayer and starts talking
  1: 0x040C [0x4A] LocalPlayer looks at EventEntity
  2: 0x0415 [0x6F] WAIT_FRAME_DELAY: Yield until WaitTime reaches zero
  3: 0x0416 [0x70] WAIT_ENTITY_RENDER_FLAG: Wait while EventEntity->Render.Flags3 bit 2 is set (cancel turn if not)
  4: 0x0417 [0x66] LOAD_EXT_SCHEDULER_MAIN: Load scheduler "tlk0" with entities [EventEntity, EventEntity], work=0*
  5: 0x0426 [0x1D] PRINT_EVENT_MESSAGE(message_id=13949*)
    → "What is this? You wish to know if I'm familiar with a black-clad Goblin?"
  6: 0x0429 [0x23] WAIT_FOR_DIALOG_INTERACTION
  7: 0x042A [0x1D] PRINT_EVENT_MESSAGE(message_id=13950*)
    → "Yes, I have had the displeasure. A more uncouth specimen I have never come across."
  8: 0x042D [0x23] WAIT_FOR_DIALOG_INTERACTION
  9: 0x042E [0x1D] PRINT_EVENT_MESSAGE(message_id=13951*)
    → "But if you're going to wallow in the mud like a pig, then it was only appropriate that I gave them an appropriate porcine companion...so I introduced them to Shami."
 10: 0x0431 [0x23] WAIT_FOR_DIALOG_INTERACTION
 11: 0x0432 [0x20] SET_CLI_EVENT_UC_FLAG: Unlock player control
 12: 0x0434 [0x21] END_EVENT
 13: 0x0435 [0x00] END_REQSTACK()
```

### Event 10253

#### Metadata

| Field        | Value     |
|--------------|-----------|
| Entrypoint   | 0x0436    |
| Data Size    | 273 bytes |
| Instructions | 70        |

```
      00 01 02 03 04 05 06 07  08 09 0A 0B 0C 0D 0E 0F
      -- -- -- -- -- -- -- --  -- -- -- -- -- -- -- --
0430:                   1E F0  FF FF 7F 4A F0 FF FF 7F        .....J....
0440: F8 FF FF 7F 6F 70 1D 4F  80 23 66 00 80 F8 FF FF  ....op.O.#f.....
0450: 7F F8 FF FF 7F 74 6C 6B  30 1D 50 80 23 1D 51 80  .....tlk0.P.#.Q.
0460: 23 1D 52 80 23 66 00 80  F8 FF FF 7F F8 FF FF 7F  #.R.#f..........
0470: 74 65 6E 30 6E F0 FF FF  7F 53 80 99 F0 FF FF 7F  ten0n....S......
0480: 1C 42 80 1D 54 80 23 1D  55 80 23 66 00 80 F8 FF  .B..T.#.U.#f....
0490: FF 7F F8 FF FF 7F 74 68  6B 31 1D 56 80 23 1D 57  ......thk1.V.#.W
04A0: 80 23 1D 58 80 23 66 00  80 F8 FF FF 7F F8 FF FF  .#.X.#f.........
04B0: 7F 74 68 6B 32 1D 59 80  23 42 1D 5A 80 66 00 80  .thk2.Y.#B.Z.f..
04C0: F8 FF FF 7F F8 FF FF 7F  70 61 73 30 1C 0C 80 23  ........pas0...#
04D0: 1D 5B 80 23 1D 5C 80 23  1D 5D 80 23 48 11 80 66  .[.#.\.#.].#H..f
04E0: 00 80 F8 FF FF 7F F8 FF  FF 7F 74 6C 6B 30 1D 5E  ..........tlk0.^
04F0: 80 23 1D 5F 80 23 1D 60  80 23 1D 61 80 23 66 00  .#._.#.`.#.a.#f.
0500: 80 F8 FF FF 7F F8 FF FF  7F 74 65 6E 30 1D 62 80  .........ten0.b.
0510: 23 1D 63 80 23 66 00 80  F8 FF FF 7F F8 FF FF 7F  #.c.#f..........
0520: 74 68 6B 31 1D 64 80 23  1D 65 80 23 1D 66 80 23  thk1.d.#.e.#.f.#
0530: 1D 67 80 23 66 00 80 F8  FF FF 7F F8 FF FF 7F 74  .g.#f..........t
0540: 68 6B 32 20 00 21 00                              hk2 .!.         
```

#### Opcodes

```
  0: 0x0436 [0x1E] EventEntity looks at LocalPlayer and starts talking
  1: 0x043B [0x4A] LocalPlayer looks at EventEntity
  2: 0x0444 [0x6F] WAIT_FRAME_DELAY: Yield until WaitTime reaches zero
  3: 0x0445 [0x70] WAIT_ENTITY_RENDER_FLAG: Wait while EventEntity->Render.Flags3 bit 2 is set (cancel turn if not)
  4: 0x0446 [0x1D] PRINT_EVENT_MESSAGE(message_id=13952*)
    → "Pleasure to see you, <Player>. How are those two pig-headed buffoons doing?"
  5: 0x0449 [0x23] WAIT_FOR_DIALOG_INTERACTION
  6: 0x044A [0x66] LOAD_EXT_SCHEDULER_MAIN: Load scheduler "tlk0" with entities [EventEntity, EventEntity], work=0*
  7: 0x0459 [0x1D] PRINT_EVENT_MESSAGE(message_id=13953*)
    → ""What buffoons?" Why, Shami and Shemo, of course."
  8: 0x045C [0x23] WAIT_FOR_DIALOG_INTERACTION
  9: 0x045D [0x1D] PRINT_EVENT_MESSAGE(message_id=13954*)
    → "I sent them that accursed Goblin and their accompanying retinue. Filth loves its own kind."
 10: 0x0460 [0x23] WAIT_FOR_DIALOG_INTERACTION
 11: 0x0461 [0x1D] PRINT_EVENT_MESSAGE(message_id=13955*)
    → "Hahaha... Tell me how that turned out?"
 12: 0x0464 [0x23] WAIT_FOR_DIALOG_INTERACTION
 13: 0x0465 [0x66] LOAD_EXT_SCHEDULER_MAIN: Load scheduler "ten0" with entities [EventEntity, EventEntity], work=0*
 14: 0x0474 [0x6E] LocalPlayer uses emote 37*
 15: 0x047B [0x99] Wait for LocalPlayer animation to complete
 16: 0x0480 [0x1C] WAIT(120* ticks)
 17: 0x0483 [0x1D] PRINT_EVENT_MESSAGE(message_id=13956*)
    → "Wh-what? Not only were the Goblin team not there, but then Duke Alloces...?"
 18: 0x0486 [0x23] WAIT_FOR_DIALOG_INTERACTION
 19: 0x0487 [0x1D] PRINT_EVENT_MESSAGE(message_id=13957*)
    → "But if the gate is closed, then it stands to reason that Duke Alloces shouldn't even be here!"
 20: 0x048A [0x23] WAIT_FOR_DIALOG_INTERACTION
 21: 0x048B [0x66] LOAD_EXT_SCHEDULER_MAIN: Load scheduler "thk1" with entities [EventEntity, EventEntity], work=0*
 22: 0x049A [0x1D] PRINT_EVENT_MESSAGE(message_id=13958*)
    → "Ugh. This is why you can never trust anything to a low-level demon."
 23: 0x049D [0x23] WAIT_FOR_DIALOG_INTERACTION
 24: 0x049E [0x1D] PRINT_EVENT_MESSAGE(message_id=13959*)
    → "But setting that small matter aside... You are after more information on the World Eater Egg, are you not?"
 25: 0x04A1 [0x23] WAIT_FOR_DIALOG_INTERACTION
 26: 0x04A2 [0x1D] PRINT_EVENT_MESSAGE(message_id=13960*)
    → "You must wonder what this means for the baneful dead."
 27: 0x04A5 [0x23] WAIT_FOR_DIALOG_INTERACTION
 28: 0x04A6 [0x66] LOAD_EXT_SCHEDULER_MAIN: Load scheduler "thk2" with entities [EventEntity, EventEntity], work=0*
 29: 0x04B5 [0x1D] PRINT_EVENT_MESSAGE(message_id=13961*)
    → "Worry not. I have prepared a list of more targets for you."
 30: 0x04B8 [0x23] WAIT_FOR_DIALOG_INTERACTION
 31: 0x04B9 [0x42] SET_CLI_EVENT_CANCEL_DATA()
 32: 0x04BA [0x1D] PRINT_EVENT_MESSAGE(message_id=13962*)
    → "Haha... Surely each one you banish brings a little bit more peace back to Vana'diel."
 33: 0x04BD [0x66] LOAD_EXT_SCHEDULER_MAIN: Load scheduler "pas0" with entities [EventEntity, EventEntity], work=0*
 34: 0x04CC [0x1C] WAIT(90* ticks)
 35: 0x04CF [0x23] WAIT_FOR_DIALOG_INTERACTION
 36: 0x04D0 [0x1D] PRINT_EVENT_MESSAGE(message_id=13963*)
    → "Perhaps you have already surmised my true identity, but it is too late for you to turn back now."
 37: 0x04D3 [0x23] WAIT_FOR_DIALOG_INTERACTION
 38: 0x04D4 [0x1D] PRINT_EVENT_MESSAGE(message_id=13964*)
    → "After all, the proverbial contract has already been signed."
 39: 0x04D7 [0x23] WAIT_FOR_DIALOG_INTERACTION
 40: 0x04D8 [0x1D] PRINT_EVENT_MESSAGE(message_id=13965*)
    → "Hoho...a deal with the devil is not so easily overturned...at least not without paying the ultimate price."
 41: 0x04DB [0x23] WAIT_FOR_DIALOG_INTERACTION
 42: 0x04DC [0x48] [System] [13901*]:
    → "Elijah smirks at you."
 43: 0x04DF [0x66] LOAD_EXT_SCHEDULER_MAIN: Load scheduler "tlk0" with entities [EventEntity, EventEntity], work=0*
 44: 0x04EE [0x1D] PRINT_EVENT_MESSAGE(message_id=13966*)
    → "And with what you now know about some of the world's ugly truths, well..."
 45: 0x04F1 [0x23] WAIT_FOR_DIALOG_INTERACTION
 46: 0x04F2 [0x1D] PRINT_EVENT_MESSAGE(message_id=13967*)
    → "And that lovely retinue who depends on you oh-so-much will surely come through for you in the end."
 47: 0x04F5 [0x23] WAIT_FOR_DIALOG_INTERACTION
 48: 0x04F6 [0x1D] PRINT_EVENT_MESSAGE(message_id=13968*)
    → "And of course, my lord Odin is depending on you as well."
 49: 0x04F9 [0x23] WAIT_FOR_DIALOG_INTERACTION
 50: 0x04FA [0x1D] PRINT_EVENT_MESSAGE(message_id=13969*)
    → "And I'm sure none of us want these targets to be in cahoots with Garazu-Horeizu, correct?"
 51: 0x04FD [0x23] WAIT_FOR_DIALOG_INTERACTION
 52: 0x04FE [0x66] LOAD_EXT_SCHEDULER_MAIN: Load scheduler "ten0" with entities [EventEntity, EventEntity], work=0*
 53: 0x050D [0x1D] PRINT_EVENT_MESSAGE(message_id=13970*)
    → "Betrayal will be deemed a failure to fulfill the obligations of your contract. Surely I need not say more."
 54: 0x0510 [0x23] WAIT_FOR_DIALOG_INTERACTION
 55: 0x0511 [0x1D] PRINT_EVENT_MESSAGE(message_id=13971*)
    → "So keep doing what you do best, and there will be no problems."
 56: 0x0514 [0x23] WAIT_FOR_DIALOG_INTERACTION
 57: 0x0515 [0x66] LOAD_EXT_SCHEDULER_MAIN: Load scheduler "thk1" with entities [EventEntity, EventEntity], work=0*
 58: 0x0524 [0x1D] PRINT_EVENT_MESSAGE(message_id=13972*)
    → "Ah, and one last thing. If you try to flee, or tell anyone who we really are, it will not end well for you."
 59: 0x0527 [0x23] WAIT_FOR_DIALOG_INTERACTION
 60: 0x0528 [0x1D] PRINT_EVENT_MESSAGE(message_id=13973*)
    → "This, too, would be an egregious violation of the terms of our little "agreement.""
 61: 0x052B [0x23] WAIT_FOR_DIALOG_INTERACTION
 62: 0x052C [0x1D] PRINT_EVENT_MESSAGE(message_id=13974*)
    → "You see, <Player>, we have eyes and ears in every corner of Vana'diel."
 63: 0x052F [0x23] WAIT_FOR_DIALOG_INTERACTION
 64: 0x0530 [0x1D] PRINT_EVENT_MESSAGE(message_id=13975*)
    → "And we are always watching...listening..."
 65: 0x0533 [0x23] WAIT_FOR_DIALOG_INTERACTION
 66: 0x0534 [0x66] LOAD_EXT_SCHEDULER_MAIN: Load scheduler "thk2" with entities [EventEntity, EventEntity], work=0*
 67: 0x0543 [0x20] SET_CLI_EVENT_UC_FLAG: Unlock player control
 68: 0x0545 [0x21] END_EVENT
 69: 0x0546 [0x00] END_REQSTACK()
```

### Event 10254

#### Metadata

| Field        | Value     |
|--------------|-----------|
| Entrypoint   | 0x0547    |
| Data Size    | 362 bytes |
| Instructions | 95        |

```
      00 01 02 03 04 05 06 07  08 09 0A 0B 0C 0D 0E 0F
      -- -- -- -- -- -- -- --  -- -- -- -- -- -- -- --
0540:                      03  01 00 02 10 1E F0 FF FF         .........
0550: 7F 4A F0 FF FF 7F F8 FF  FF 7F 6F 70 1D 68 80 23  .J........op.h.#
0560: 66 00 80 F8 FF FF 7F F8  FF FF 7F 74 6C 6B 30 1D  f..........tlk0.
0570: 69 80 23 02 01 00 00 80  00 86 05 1D 6A 80 23 1D  i.#.........j.#.
0580: 6B 80 23 01 8E 05 1D 6C  80 23 1D 6D 80 23 66 00  k.#....l.#.m.#f.
0590: 80 F8 FF FF 7F F8 FF FF  7F 74 65 6E 30 1D 6E 80  .........ten0.n.
05A0: 23 66 00 80 F8 FF FF 7F  F8 FF FF 7F 74 68 6B 31  #f..........thk1
05B0: 1D 6F 80 23 1D 70 80 23  66 00 80 F8 FF FF 7F F8  .o.#.p.#f.......
05C0: FF FF 7F 74 68 6B 32 1D  71 80 23 66 00 80 F8 FF  ...thk2.q.#f....
05D0: FF 7F F8 FF FF 7F 74 6C  6B 30 1D 72 80 23 1D 73  ......tlk0.r.#.s
05E0: 80 23 1D 74 80 23 1D 75  80 23 66 00 80 F8 FF FF  .#.t.#.u.#f.....
05F0: 7F F8 FF FF 7F 74 65 6E  30 1D 76 80 23 6E 06 41  .....ten0.v.#n.A
0600: 0F 01 77 80 99 06 41 0F  01 48 78 80 1D 79 80 23  ..w...A..Hx..y.#
0610: 59 06 06 41 0F 01 1D 7A  80 23 1D 7B 80 23 1D 7C  Y..A...z.#.{.#.|
0620: 80 23 1D 7D 80 23 6E 06  41 0F 01 7E 80 99 06 41  .#.}.#n.A..~...A
0630: 0F 01 48 7F 80 1D 80 80  23 59 06 06 41 0F 01 66  ..H.....#Y..A..f
0640: 00 80 F8 FF FF 7F F8 FF  FF 7F 74 6C 6B 30 1D 81  ..........tlk0..
0650: 80 23 1D 82 80 23 1D 83  80 23 1D 84 80 23 1D 85  .#...#...#...#..
0660: 80 23 66 00 80 F8 FF FF  7F F8 FF FF 7F 74 65 6E  .#f..........ten
0670: 30 6E 06 41 0F 01 86 80  99 06 41 0F 01 48 11 80  0n.A......A..H..
0680: 1D 87 80 23 59 06 06 41  0F 01 1D 88 80 23 1D 89  ...#Y..A.....#..
0690: 80 23 42 1D 8A 80 66 00  80 F8 FF FF 7F F8 FF FF  .#B...f.........
06A0: 7F 70 61 73 30 1C 0C 80  23 1D 8B 80 23 20 00 21  .pas0...#...# .!
06B0: 00                                                .               
```

#### Opcodes

```
  0: 0x0547 [0x03] ExtData[1]->WorkLocal[1] = Work_Zone[2]
  1: 0x054C [0x1E] EventEntity looks at LocalPlayer and starts talking
  2: 0x0551 [0x4A] LocalPlayer looks at EventEntity
  3: 0x055A [0x6F] WAIT_FRAME_DELAY: Yield until WaitTime reaches zero
  4: 0x055B [0x70] WAIT_ENTITY_RENDER_FLAG: Wait while EventEntity->Render.Flags3 bit 2 is set (cancel turn if not)
  5: 0x055C [0x1D] PRINT_EVENT_MESSAGE(message_id=13976*)
    → "Ah, <Player>. Somehow, I knew you would come."
  6: 0x055F [0x23] WAIT_FOR_DIALOG_INTERACTION
  7: 0x0560 [0x66] LOAD_EXT_SCHEDULER_MAIN: Load scheduler "tlk0" with entities [EventEntity, EventEntity], work=0*
  8: 0x056F [0x1D] PRINT_EVENT_MESSAGE(message_id=13977*)
    → "The sealing of the gate has been quite the catalyst. Wouldn't you agree?"
  9: 0x0572 [0x23] WAIT_FOR_DIALOG_INTERACTION
 10: 0x0573 [0x02] IF !(ExtData[1]->WorkLocal[1] == 0*) GOTO 0x0586
 11: 0x057B [0x1D] PRINT_EVENT_MESSAGE(message_id=13978*)
    → "My understanding is that you are working together with Skokkr to reforge the Prime Weapons, are you not?"
 12: 0x057E [0x23] WAIT_FOR_DIALOG_INTERACTION
 13: 0x057F [0x1D] PRINT_EVENT_MESSAGE(message_id=13980*)
    → "I wish you all the best in your journey to vanquish Chaos. After all, the Prime Weapons are the keys."
 14: 0x0582 [0x23] WAIT_FOR_DIALOG_INTERACTION
 15: 0x0583 [0x01] GOTO 0x058E
 16: 0x0586 [0x1D] PRINT_EVENT_MESSAGE(message_id=13979*)
    → "My understanding is that you have worked together with Skokkr and succeeded in reforging a Prime Weapon, have you not?"
 17: 0x0589 [0x23] WAIT_FOR_DIALOG_INTERACTION
 18: 0x058A [0x1D] PRINT_EVENT_MESSAGE(message_id=13981*)
    → "Your Prime Weapon holds the key to besting Chaos, as you doubtless already know."
 19: 0x058D [0x23] WAIT_FOR_DIALOG_INTERACTION

SUBROUTINE_058E:
 20: 0x058E [0x66] LOAD_EXT_SCHEDULER_MAIN: Load scheduler "ten0" with entities [EventEntity, EventEntity], work=0*
 21: 0x059D [0x1D] PRINT_EVENT_MESSAGE(message_id=13982*)
    → "But I would advise you one thing: the Prime Weapons belong to my master, and my master alone."
 22: 0x05A0 [0x23] WAIT_FOR_DIALOG_INTERACTION
 23: 0x05A1 [0x66] LOAD_EXT_SCHEDULER_MAIN: Load scheduler "thk1" with entities [EventEntity, EventEntity], work=0*
 24: 0x05B0 [0x1D] PRINT_EVENT_MESSAGE(message_id=13983*)
    → "And when they return to him, I have no doubt that they will make their way into my hands...as my just reward for all I have accomplished."
 25: 0x05B3 [0x23] WAIT_FOR_DIALOG_INTERACTION
 26: 0x05B4 [0x1D] PRINT_EVENT_MESSAGE(message_id=13984*)
    → "Oh, yes. The time for me to wield the Prime Weapons is close at hand."
 27: 0x05B7 [0x23] WAIT_FOR_DIALOG_INTERACTION
 28: 0x05B8 [0x66] LOAD_EXT_SCHEDULER_MAIN: Load scheduler "thk2" with entities [EventEntity, EventEntity], work=0*
 29: 0x05C7 [0x1D] PRINT_EVENT_MESSAGE(message_id=13985*)
    → "In fact, this puts me in the mood for a rousing tale. A secondhand tale, so I leave the analysis of its veracity to you."
 30: 0x05CA [0x23] WAIT_FOR_DIALOG_INTERACTION
 31: 0x05CB [0x66] LOAD_EXT_SCHEDULER_MAIN: Load scheduler "tlk0" with entities [EventEntity, EventEntity], work=0*
 32: 0x05DA [0x1D] PRINT_EVENT_MESSAGE(message_id=13986*)
    → "5000 years ago, the Prime Weapons were made manifest after an eternity of trial and error."
 33: 0x05DD [0x23] WAIT_FOR_DIALOG_INTERACTION
 34: 0x05DE [0x1D] PRINT_EVENT_MESSAGE(message_id=13987*)
    → "Those in charge searched endlessly for a way to figure out how to stop Chaos from devouring the astral plane."
 35: 0x05E1 [0x23] WAIT_FOR_DIALOG_INTERACTION
 36: 0x05E2 [0x1D] PRINT_EVENT_MESSAGE(message_id=13988*)
    → "Of course, that was eons ago, so the exact time frame isn't clear, but I am led to believe that over one hundred years of effort were poured into this endeavor."
 37: 0x05E5 [0x23] WAIT_FOR_DIALOG_INTERACTION
 38: 0x05E6 [0x1D] PRINT_EVENT_MESSAGE(message_id=13989*)
    → "It started with research into souls that hungered for more. A contract between them was established."
 39: 0x05E9 [0x23] WAIT_FOR_DIALOG_INTERACTION
 40: 0x05EA [0x66] LOAD_EXT_SCHEDULER_MAIN: Load scheduler "ten0" with entities [EventEntity, EventEntity], work=0*
 41: 0x05F9 [0x1D] PRINT_EVENT_MESSAGE(message_id=13990*)
    → "But those initial results were...disappointing. More pure souls were required."
 42: 0x05FC [0x23] WAIT_FOR_DIALOG_INTERACTION
 43: 0x05FD [0x6E] Elijah (ID: 17776902/0x010F4106) uses emote 15*
 44: 0x0604 [0x99] Wait for Elijah (ID: 17776902/0x010F4106) animation to complete
 45: 0x0609 [0x48] [System] [14007*]:
    → "Elijah smiles at you."
 46: 0x060C [0x1D] PRINT_EVENT_MESSAGE(message_id=13991*)
    → "I need not spell out for you what that implied."
 47: 0x060F [0x23] WAIT_FOR_DIALOG_INTERACTION
 48: 0x0610 [0x59] UPDATE_ENTITY_DATA: Check if Elijah (ID: 17776902/0x010F4106) is performing moving action
 49: 0x0616 [0x1D] PRINT_EVENT_MESSAGE(message_id=13992*)
    → "Many souls were snuffed out on the altar of progress, irrevocably removed from the cycle of life and death."
 50: 0x0619 [0x23] WAIT_FOR_DIALOG_INTERACTION
 51: 0x061A [0x1D] PRINT_EVENT_MESSAGE(message_id=13993*)
    → "And that is how those involved eventually arrived at the idea of imbuing souls into implements of power."
 52: 0x061D [0x23] WAIT_FOR_DIALOG_INTERACTION
 53: 0x061E [0x1D] PRINT_EVENT_MESSAGE(message_id=13994*)
    → "If those souls are angered or cry out for vengeance, well...I'm sure that manifests itself in the potency of the armament."
 54: 0x0621 [0x23] WAIT_FOR_DIALOG_INTERACTION
 55: 0x0622 [0x1D] PRINT_EVENT_MESSAGE(message_id=13995*)
    → "Perhaps that is why the Prime Weapons gleam with that beautiful obsidian light."
 56: 0x0625 [0x23] WAIT_FOR_DIALOG_INTERACTION
 57: 0x0626 [0x6E] Elijah (ID: 17776902/0x010F4106) uses emote 4*
 58: 0x062D [0x99] Wait for Elijah (ID: 17776902/0x010F4106) animation to complete
 59: 0x0632 [0x48] [System] [14008*]:
    → "Elijah begins laughing boisterously!"
 60: 0x0635 [0x1D] PRINT_EVENT_MESSAGE(message_id=13996*)
    → "Why, it is positively inspiring! Surely you wish to brandish them in battle even more than before."
 61: 0x0638 [0x23] WAIT_FOR_DIALOG_INTERACTION
 62: 0x0639 [0x59] UPDATE_ENTITY_DATA: Check if Elijah (ID: 17776902/0x010F4106) is performing moving action
 63: 0x063F [0x66] LOAD_EXT_SCHEDULER_MAIN: Load scheduler "tlk0" with entities [EventEntity, EventEntity], work=0*
 64: 0x064E [0x1D] PRINT_EVENT_MESSAGE(message_id=13997*)
    → "Ah, but we have time for one more tale. You know of the relic weapons, correct?"
 65: 0x0651 [0x23] WAIT_FOR_DIALOG_INTERACTION
 66: 0x0652 [0x1D] PRINT_EVENT_MESSAGE(message_id=13998*)
    → "My master conceived them during Ragnarok, and they contain the souls of the enlightened races."
 67: 0x0655 [0x23] WAIT_FOR_DIALOG_INTERACTION
 68: 0x0656 [0x1D] PRINT_EVENT_MESSAGE(message_id=13999*)
    → "My master chose only the strongest from among those who proffered themselves up in his service."
 69: 0x0659 [0x23] WAIT_FOR_DIALOG_INTERACTION
 70: 0x065A [0x1D] PRINT_EVENT_MESSAGE(message_id=14000*)
    → "They cried out for succor. Who were we to deny them?"
 71: 0x065D [0x23] WAIT_FOR_DIALOG_INTERACTION
 72: 0x065E [0x1D] PRINT_EVENT_MESSAGE(message_id=14001*)
    → "Why, we were even able to help them defend their kingdoms, although perhaps in a different way than they had envisioned."
 73: 0x0661 [0x23] WAIT_FOR_DIALOG_INTERACTION
 74: 0x0662 [0x66] LOAD_EXT_SCHEDULER_MAIN: Load scheduler "ten0" with entities [EventEntity, EventEntity], work=0*
 75: 0x0671 [0x6E] Elijah (ID: 17776902/0x010F4106) uses emote 30*
 76: 0x0678 [0x99] Wait for Elijah (ID: 17776902/0x010F4106) animation to complete
 77: 0x067D [0x48] [System] [13901*]:
    → "Elijah smirks at you."
 78: 0x0680 [0x1D] PRINT_EVENT_MESSAGE(message_id=14002*)
    → "Not that those nations exist anymore, mind you."
 79: 0x0683 [0x23] WAIT_FOR_DIALOG_INTERACTION
 80: 0x0684 [0x59] UPDATE_ENTITY_DATA: Check if Elijah (ID: 17776902/0x010F4106) is performing moving action
 81: 0x068A [0x1D] PRINT_EVENT_MESSAGE(message_id=14003*)
    → "That is enough stories for one day."
 82: 0x068D [0x23] WAIT_FOR_DIALOG_INTERACTION
 83: 0x068E [0x1D] PRINT_EVENT_MESSAGE(message_id=14004*)
    → "I trust you found it a pleasant enough diversion, but now I bid you return to the task at hand."
 84: 0x0691 [0x23] WAIT_FOR_DIALOG_INTERACTION
 85: 0x0692 [0x42] SET_CLI_EVENT_CANCEL_DATA()
 86: 0x0693 [0x1D] PRINT_EVENT_MESSAGE(message_id=14005*)
    → "My success is linked to your success, after all. And I have new targets for you to hunt."
 87: 0x0696 [0x66] LOAD_EXT_SCHEDULER_MAIN: Load scheduler "pas0" with entities [EventEntity, EventEntity], work=0*
 88: 0x06A5 [0x1C] WAIT(90* ticks)
 89: 0x06A8 [0x23] WAIT_FOR_DIALOG_INTERACTION
 90: 0x06A9 [0x1D] PRINT_EVENT_MESSAGE(message_id=14006*)
    → "Yes...I can feel it. The Prime Weapons will soon be mine to wield..."
 91: 0x06AC [0x23] WAIT_FOR_DIALOG_INTERACTION
 92: 0x06AD [0x20] SET_CLI_EVENT_UC_FLAG: Unlock player control
 93: 0x06AF [0x21] END_EVENT
 94: 0x06B0 [0x00] END_REQSTACK()
```

### Event 10255

#### Metadata

| Field        | Value     |
|--------------|-----------|
| Entrypoint   | 0x06B1    |
| Data Size    | 213 bytes |
| Instructions | 54        |

```
      00 01 02 03 04 05 06 07  08 09 0A 0B 0C 0D 0E 0F
      -- -- -- -- -- -- -- --  -- -- -- -- -- -- -- --
06B0:    1E F0 FF FF 7F 4A F0  FF FF 7F F8 FF FF 7F 6F   .....J........o
06C0: 70 66 00 80 F8 FF FF 7F  F8 FF FF 7F 74 68 6B 31  pf..........thk1
06D0: 1D 8C 80 23 1D 8D 80 23  66 00 80 F8 FF FF 7F F8  ...#...#f.......
06E0: FF FF 7F 74 68 6B 32 1D  8E 80 23 1D 8F 80 23 1D  ...thk2...#...#.
06F0: 90 80 23 66 00 80 F8 FF  FF 7F F8 FF FF 7F 74 6C  ..#f..........tl
0700: 6B 30 1D 91 80 23 1D 92  80 23 1D 93 80 23 1D 94  k0...#...#...#..
0710: 80 23 1D 95 80 23 1D 96  80 23 66 00 80 F8 FF FF  .#...#...#f.....
0720: 7F F8 FF FF 7F 74 65 6E  30 1D 97 80 23 24 98 80  .....ten0...#$..
0730: 00 80 00 80 25 02 00 10  00 80 00 41 07 42 01 4F  ....%......A.B.O
0740: 07 02 00 10 15 80 00 4F  07 01 29 07 01 4F 07 1D  .......O..)..O..
0750: 99 80 66 00 80 F8 FF FF  7F F8 FF FF 7F 70 61 73  ..f..........pas
0760: 30 1C 0C 80 23 6E 06 41  0F 01 86 80 99 06 41 0F  0...#n.A......A.
0770: 01 48 11 80 1D 9A 80 23  59 06 06 41 0F 01 1D 9B  .H.....#Y..A....
0780: 80 23 20 00 21 00                                 .# .!.          
```

#### Opcodes

```
  0: 0x06B1 [0x1E] EventEntity looks at LocalPlayer and starts talking
  1: 0x06B6 [0x4A] LocalPlayer looks at EventEntity
  2: 0x06BF [0x6F] WAIT_FRAME_DELAY: Yield until WaitTime reaches zero
  3: 0x06C0 [0x70] WAIT_ENTITY_RENDER_FLAG: Wait while EventEntity->Render.Flags3 bit 2 is set (cancel turn if not)
  4: 0x06C1 [0x66] LOAD_EXT_SCHEDULER_MAIN: Load scheduler "thk1" with entities [EventEntity, EventEntity], work=0*
  5: 0x06D0 [0x1D] PRINT_EVENT_MESSAGE(message_id=14009*)
    → "<Player>. I must confess, I thought you had forgotten about me."
  6: 0x06D3 [0x23] WAIT_FOR_DIALOG_INTERACTION
  7: 0x06D4 [0x1D] PRINT_EVENT_MESSAGE(message_id=14010*)
    → "We are at our watershed moment. I promise to be brief."
  8: 0x06D7 [0x23] WAIT_FOR_DIALOG_INTERACTION
  9: 0x06D8 [0x66] LOAD_EXT_SCHEDULER_MAIN: Load scheduler "thk2" with entities [EventEntity, EventEntity], work=0*
 10: 0x06E7 [0x1D] PRINT_EVENT_MESSAGE(message_id=14011*)
    → "As you are eminently aware, Garazu-Horeizu is on the move."
 11: 0x06EA [0x23] WAIT_FOR_DIALOG_INTERACTION
 12: 0x06EB [0x1D] PRINT_EVENT_MESSAGE(message_id=14012*)
    → "Of course, we have no choice but to answer in kind."
 13: 0x06EE [0x23] WAIT_FOR_DIALOG_INTERACTION
 14: 0x06EF [0x1D] PRINT_EVENT_MESSAGE(message_id=14013*)
    → "Yet moving too hastily has caused the downfall of many, so I would ask for your aid once more."
 15: 0x06F2 [0x23] WAIT_FOR_DIALOG_INTERACTION
 16: 0x06F3 [0x66] LOAD_EXT_SCHEDULER_MAIN: Load scheduler "tlk0" with entities [EventEntity, EventEntity], work=0*
 17: 0x0702 [0x1D] PRINT_EVENT_MESSAGE(message_id=14014*)
    → "The first issue is dealing with the defectors amongst the beastmen who have joined forces with Chaos."
 18: 0x0705 [0x23] WAIT_FOR_DIALOG_INTERACTION
 19: 0x0706 [0x1D] PRINT_EVENT_MESSAGE(message_id=14015*)
    → "Unfortunately, their contingent is present not only in the Middle Lands, but Aht Urhgan and the Far East as well."
 20: 0x0709 [0x23] WAIT_FOR_DIALOG_INTERACTION
 21: 0x070A [0x1D] PRINT_EVENT_MESSAGE(message_id=14016*)
    → "With the enemy spread out across the world, I have had to dispatch some of my most loyal retainers to the far reaches of the globe."
 22: 0x070D [0x23] WAIT_FOR_DIALOG_INTERACTION
 23: 0x070E [0x1D] PRINT_EVENT_MESSAGE(message_id=14017*)
    → "While they are dealing with the threat above, you will deal with Garazu-Horeizu at the gate between this world and the next."
 24: 0x0711 [0x23] WAIT_FOR_DIALOG_INTERACTION
 25: 0x0712 [0x1D] PRINT_EVENT_MESSAGE(message_id=14018*)
    → "Of course, this will allow the gate to be opened."
 26: 0x0715 [0x23] WAIT_FOR_DIALOG_INTERACTION
 27: 0x0716 [0x1D] PRINT_EVENT_MESSAGE(message_id=14019*)
    → "I will take up the rear guard, so you have not to fear."
 28: 0x0719 [0x23] WAIT_FOR_DIALOG_INTERACTION
 29: 0x071A [0x66] LOAD_EXT_SCHEDULER_MAIN: Load scheduler "ten0" with entities [EventEntity, EventEntity], work=0*
 30: 0x0729 [0x1D] PRINT_EVENT_MESSAGE(message_id=14020*)
    → "Ah, but perhaps you are concerned that my protection alone may prove insufficient."
 31: 0x072C [0x23] WAIT_FOR_DIALOG_INTERACTION
 32: 0x072D [0x24] CREATE_DIALOG(message_id=14021*, default_option=0*, option_flags=0*)
    → "Are you concerned? [Of course!/Of course not!]"
 33: 0x0734 [0x25] WAIT_DIALOG_SELECT()
 34: 0x0735 [0x02] IF !(Work_Zone[0] == 0*) GOTO 0x0741
 35: 0x073D [0x42] SET_CLI_EVENT_CANCEL_DATA()
 36: 0x073E [0x01] GOTO 0x074F
 37: 0x0741 [0x02] IF !(Work_Zone[0] == 1*) GOTO 0x074F
 38: 0x0749 [0x01] GOTO 0x0729

SUBROUTINE_074F:
 39: 0x074F [0x1D] PRINT_EVENT_MESSAGE(message_id=14022*)
    → "Then we shall continue along the same path we have traveled to date."
 40: 0x0752 [0x66] LOAD_EXT_SCHEDULER_MAIN: Load scheduler "pas0" with entities [EventEntity, EventEntity], work=0*
 41: 0x0761 [0x1C] WAIT(90* ticks)
 42: 0x0764 [0x23] WAIT_FOR_DIALOG_INTERACTION
 43: 0x0765 [0x6E] Elijah (ID: 17776902/0x010F4106) uses emote 30*
 44: 0x076C [0x99] Wait for Elijah (ID: 17776902/0x010F4106) animation to complete
 45: 0x0771 [0x48] [System] [13901*]:
    → "Elijah smirks at you."
 46: 0x0774 [0x1D] PRINT_EVENT_MESSAGE(message_id=14023*)
    → "Oho. I may not have a Prime Weapon, but I promise that my skills are more than sufficient."
 47: 0x0777 [0x23] WAIT_FOR_DIALOG_INTERACTION
 48: 0x0778 [0x59] UPDATE_ENTITY_DATA: Check if Elijah (ID: 17776902/0x010F4106) is performing moving action
 49: 0x077E [0x1D] PRINT_EVENT_MESSAGE(message_id=14024*)
    → "Then we have our tasks. Let us see them through."
 50: 0x0781 [0x23] WAIT_FOR_DIALOG_INTERACTION
 51: 0x0782 [0x20] SET_CLI_EVENT_UC_FLAG: Unlock player control
 52: 0x0784 [0x21] END_EVENT
 53: 0x0785 [0x00] END_REQSTACK()
```

#### Data or dead code:

```
# Dead code (unreachable instructions):
     0x074C [0x01] GOTO 0x074F
```

### Event 10257

#### Metadata

| Field        | Value    |
|--------------|----------|
| Entrypoint   | 0x0786   |
| Data Size    | 43 bytes |
| Instructions | 12       |

```
      00 01 02 03 04 05 06 07  08 09 0A 0B 0C 0D 0E 0F
      -- -- -- -- -- -- -- --  -- -- -- -- -- -- -- --
0780:                   1E F0  FF FF 7F 4A F0 FF FF 7F        .....J....
0790: F8 FF FF 7F 6F 70 66 00  80 F8 FF FF 7F F8 FF FF  ....opf.........
07A0: 7F 74 6C 6B 30 1D 9C 80  23 1D 9D 80 23 20 00 21  .tlk0...#...# .!
07B0: 00                                                .               
```

#### Opcodes

```
  0: 0x0786 [0x1E] EventEntity looks at LocalPlayer and starts talking
  1: 0x078B [0x4A] LocalPlayer looks at EventEntity
  2: 0x0794 [0x6F] WAIT_FRAME_DELAY: Yield until WaitTime reaches zero
  3: 0x0795 [0x70] WAIT_ENTITY_RENDER_FLAG: Wait while EventEntity->Render.Flags3 bit 2 is set (cancel turn if not)
  4: 0x0796 [0x66] LOAD_EXT_SCHEDULER_MAIN: Load scheduler "tlk0" with entities [EventEntity, EventEntity], work=0*
  5: 0x07A5 [0x1D] PRINT_EVENT_MESSAGE(message_id=14025*)
    → "This is our watershed moment. We must defeat Garazu-Horeizu and his minions."
  6: 0x07A8 [0x23] WAIT_FOR_DIALOG_INTERACTION
  7: 0x07A9 [0x1D] PRINT_EVENT_MESSAGE(message_id=14026*)
    → "Best of luck to us all."
  8: 0x07AC [0x23] WAIT_FOR_DIALOG_INTERACTION
  9: 0x07AD [0x20] SET_CLI_EVENT_UC_FLAG: Unlock player control
 10: 0x07AF [0x21] END_EVENT
 11: 0x07B0 [0x00] END_REQSTACK()
```

### Event 10258

#### Metadata

| Field        | Value     |
|--------------|-----------|
| Entrypoint   | 0x07B1    |
| Data Size    | 243 bytes |
| Instructions | 61        |

```
      00 01 02 03 04 05 06 07  08 09 0A 0B 0C 0D 0E 0F
      -- -- -- -- -- -- -- --  -- -- -- -- -- -- -- --
07B0:    1E F0 FF FF 7F 4A F0  FF FF 7F F8 FF FF 7F 6F   .....J........o
07C0: 70 66 00 80 F8 FF FF 7F  F8 FF FF 7F 74 6C 6B 30  pf..........tlk0
07D0: 1D 9E 80 23 1D 9F 80 23  1D A0 80 23 66 00 80 F8  ...#...#...#f...
07E0: FF FF 7F F8 FF FF 7F 74  65 6E 30 1D A1 80 23 6E  .......ten0...#n
07F0: 06 41 0F 01 A2 80 99 06  41 0F 01 1D A3 80 23 59  .A......A.....#Y
0800: 06 06 41 0F 01 1D A4 80  23 1D A5 80 23 66 00 80  ..A.....#...#f..
0810: F8 FF FF 7F F8 FF FF 7F  74 6C 6B 30 1D A6 80 23  ........tlk0...#
0820: 1D A7 80 23 1D A8 80 23  66 00 80 F8 FF FF 7F F8  ...#...#f.......
0830: FF FF 7F 74 65 6E 30 1D  A9 80 23 1D AA 80 23 6E  ...ten0...#...#n
0840: 06 41 0F 01 15 80 99 06  41 0F 01 1D AB 80 23 59  .A......A.....#Y
0850: 06 06 41 0F 01 1D AC 80  23 66 00 80 F8 FF FF 7F  ..A.....#f......
0860: F8 FF FF 7F 74 6C 6B 31  1D AD 80 23 1D AE 80 23  ....tlk1...#...#
0870: 6E 06 41 0F 01 86 80 99  06 41 0F 01 48 11 80 1D  n.A......A..H...
0880: AF 80 23 59 06 06 41 0F  01 1D B0 80 23 66 00 80  ..#Y..A.....#f..
0890: F8 FF FF 7F F8 FF FF 7F  74 65 6E 31 1D B1 80 23  ........ten1...#
08A0: 20 00 21 00                                        .!.            
```

#### Opcodes

```
  0: 0x07B1 [0x1E] EventEntity looks at LocalPlayer and starts talking
  1: 0x07B6 [0x4A] LocalPlayer looks at EventEntity
  2: 0x07BF [0x6F] WAIT_FRAME_DELAY: Yield until WaitTime reaches zero
  3: 0x07C0 [0x70] WAIT_ENTITY_RENDER_FLAG: Wait while EventEntity->Render.Flags3 bit 2 is set (cancel turn if not)
  4: 0x07C1 [0x66] LOAD_EXT_SCHEDULER_MAIN: Load scheduler "tlk0" with entities [EventEntity, EventEntity], work=0*
  5: 0x07D0 [0x1D] PRINT_EVENT_MESSAGE(message_id=14027*)
    → "<Player>. It has been a spell, hasn't it?"
  6: 0x07D3 [0x23] WAIT_FOR_DIALOG_INTERACTION
  7: 0x07D4 [0x1D] PRINT_EVENT_MESSAGE(message_id=14028*)
    → "You did well in ridding us of Garazu-Horeizu and Chaos."
  8: 0x07D7 [0x23] WAIT_FOR_DIALOG_INTERACTION
  9: 0x07D8 [0x1D] PRINT_EVENT_MESSAGE(message_id=14029*)
    → "I would venture to say that your performance exceeded my wildest expectations."
 10: 0x07DB [0x23] WAIT_FOR_DIALOG_INTERACTION
 11: 0x07DC [0x66] LOAD_EXT_SCHEDULER_MAIN: Load scheduler "ten0" with entities [EventEntity, EventEntity], work=0*
 12: 0x07EB [0x1D] PRINT_EVENT_MESSAGE(message_id=14030*)
    → "So much so, in fact, that I find myself at a bit of a loss."
 13: 0x07EE [0x23] WAIT_FOR_DIALOG_INTERACTION
 14: 0x07EF [0x6E] Elijah (ID: 17776902/0x010F4106) uses emote 19*
 15: 0x07F6 [0x99] Wait for Elijah (ID: 17776902/0x010F4106) animation to complete
 16: 0x07FB [0x1D] PRINT_EVENT_MESSAGE(message_id=14031*)
    → "The original plan involved my master having a bit more of a...pivotal role in the aftermath, so to speak."
 17: 0x07FE [0x23] WAIT_FOR_DIALOG_INTERACTION
 18: 0x07FF [0x59] UPDATE_ENTITY_DATA: Check if Elijah (ID: 17776902/0x010F4106) is performing moving action
 19: 0x0805 [0x1D] PRINT_EVENT_MESSAGE(message_id=14032*)
    → "But you kept all the best parts for yourself."
 20: 0x0808 [0x23] WAIT_FOR_DIALOG_INTERACTION
 21: 0x0809 [0x1D] PRINT_EVENT_MESSAGE(message_id=14033*)
    → "Still, he was quite pleased with how you presented yourself during the entire ordeal."
 22: 0x080C [0x23] WAIT_FOR_DIALOG_INTERACTION
 23: 0x080D [0x66] LOAD_EXT_SCHEDULER_MAIN: Load scheduler "tlk0" with entities [EventEntity, EventEntity], work=0*
 24: 0x081C [0x1D] PRINT_EVENT_MESSAGE(message_id=14034*)
    → "And my efforts were rewarded in turn, as I have been permitted to remain in this world for a spell."
 25: 0x081F [0x23] WAIT_FOR_DIALOG_INTERACTION
 26: 0x0820 [0x1D] PRINT_EVENT_MESSAGE(message_id=14035*)
    → "A curse in disguise, if you will, for I had hoped to return to his side."
 27: 0x0823 [0x23] WAIT_FOR_DIALOG_INTERACTION
 28: 0x0824 [0x1D] PRINT_EVENT_MESSAGE(message_id=14036*)
    → "Yet you deserve to know a little bit more...perhaps my true name. Consider it a gift."
 29: 0x0827 [0x23] WAIT_FOR_DIALOG_INTERACTION
 30: 0x0828 [0x66] LOAD_EXT_SCHEDULER_MAIN: Load scheduler "ten0" with entities [EventEntity, EventEntity], work=0*
 31: 0x0837 [0x1D] PRINT_EVENT_MESSAGE(message_id=14037*)
    → "I am Markgraf Eligos, and I serve as one of Odin's elite."
 32: 0x083A [0x23] WAIT_FOR_DIALOG_INTERACTION
 33: 0x083B [0x1D] PRINT_EVENT_MESSAGE(message_id=14038*)
    → "May our relationship remain as fruitful going forward as it has been to date."
 34: 0x083E [0x23] WAIT_FOR_DIALOG_INTERACTION
 35: 0x083F [0x6E] Elijah (ID: 17776902/0x010F4106) uses emote 1*
 36: 0x0846 [0x99] Wait for Elijah (ID: 17776902/0x010F4106) animation to complete
 37: 0x084B [0x1D] PRINT_EVENT_MESSAGE(message_id=14039*)
    → "Yes, "going forward," as I still have the usual tasks for you to fulfill."
 38: 0x084E [0x23] WAIT_FOR_DIALOG_INTERACTION
 39: 0x084F [0x59] UPDATE_ENTITY_DATA: Check if Elijah (ID: 17776902/0x010F4106) is performing moving action
 40: 0x0855 [0x1D] PRINT_EVENT_MESSAGE(message_id=14040*)
    → "Though Garazu-Horeizu no longer poses a threat, his hypnosis magic has still not completely dissipated from the land."
 41: 0x0858 [0x23] WAIT_FOR_DIALOG_INTERACTION
 42: 0x0859 [0x66] LOAD_EXT_SCHEDULER_MAIN: Load scheduler "tlk1" with entities [EventEntity, EventEntity], work=0*
 43: 0x0868 [0x1D] PRINT_EVENT_MESSAGE(message_id=14041*)
    → "And given the details of our pact, that means you still have your end to hold up."
 44: 0x086B [0x23] WAIT_FOR_DIALOG_INTERACTION
 45: 0x086C [0x1D] PRINT_EVENT_MESSAGE(message_id=14042*)
    → "The pact cannot be broken, but rest assured that you will continue to be rewarded."
 46: 0x086F [0x23] WAIT_FOR_DIALOG_INTERACTION
 47: 0x0870 [0x6E] Elijah (ID: 17776902/0x010F4106) uses emote 30*
 48: 0x0877 [0x99] Wait for Elijah (ID: 17776902/0x010F4106) animation to complete
 49: 0x087C [0x48] [System] [13901*]:
    → "Elijah smirks at you."
 50: 0x087F [0x1D] PRINT_EVENT_MESSAGE(message_id=14043*)
    → "The terms should be familiar to you by now. Continue to serve."
 51: 0x0882 [0x23] WAIT_FOR_DIALOG_INTERACTION
 52: 0x0883 [0x59] UPDATE_ENTITY_DATA: Check if Elijah (ID: 17776902/0x010F4106) is performing moving action
 53: 0x0889 [0x1D] PRINT_EVENT_MESSAGE(message_id=14044*)
    → "And just to reiterate--there is no way to escape your obligation."
 54: 0x088C [0x23] WAIT_FOR_DIALOG_INTERACTION
 55: 0x088D [0x66] LOAD_EXT_SCHEDULER_MAIN: Load scheduler "ten1" with entities [EventEntity, EventEntity], work=0*
 56: 0x089C [0x1D] PRINT_EVENT_MESSAGE(message_id=14045*)
    → "I wish you the best of luck..."
 57: 0x089F [0x23] WAIT_FOR_DIALOG_INTERACTION
 58: 0x08A0 [0x20] SET_CLI_EVENT_UC_FLAG: Unlock player control
 59: 0x08A2 [0x21] END_EVENT
 60: 0x08A3 [0x00] END_REQSTACK()
```

### Event 10259

#### Metadata

| Field        | Value    |
|--------------|----------|
| Entrypoint   | 0x08A4   |
| Data Size    | 43 bytes |
| Instructions | 12       |

```
      00 01 02 03 04 05 06 07  08 09 0A 0B 0C 0D 0E 0F
      -- -- -- -- -- -- -- --  -- -- -- -- -- -- -- --
08A0:             1E F0 FF FF  7F 4A F0 FF FF 7F F8 FF      .....J......
08B0: FF 7F 6F 70 66 00 80 F8  FF FF 7F F8 FF FF 7F 74  ..opf..........t
08C0: 6C 6B 30 1D B2 80 23 1D  B3 80 23 20 00 21 00     lk0...#...# .!. 
```

#### Opcodes

```
  0: 0x08A4 [0x1E] EventEntity looks at LocalPlayer and starts talking
  1: 0x08A9 [0x4A] LocalPlayer looks at EventEntity
  2: 0x08B2 [0x6F] WAIT_FRAME_DELAY: Yield until WaitTime reaches zero
  3: 0x08B3 [0x70] WAIT_ENTITY_RENDER_FLAG: Wait while EventEntity->Render.Flags3 bit 2 is set (cancel turn if not)
  4: 0x08B4 [0x66] LOAD_EXT_SCHEDULER_MAIN: Load scheduler "tlk0" with entities [EventEntity, EventEntity], work=0*
  5: 0x08C3 [0x1D] PRINT_EVENT_MESSAGE(message_id=14046*)
    → "...and trust you will continue to meet the terms of our deal."
  6: 0x08C6 [0x23] WAIT_FOR_DIALOG_INTERACTION
  7: 0x08C7 [0x1D] PRINT_EVENT_MESSAGE(message_id=14047*)
    → "Keep at it."
  8: 0x08CA [0x23] WAIT_FOR_DIALOG_INTERACTION
  9: 0x08CB [0x20] SET_CLI_EVENT_UC_FLAG: Unlock player control
 10: 0x08CD [0x21] END_EVENT
 11: 0x08CE [0x00] END_REQSTACK()
```

### Event 10260

#### Metadata

| Field        | Value     |
|--------------|-----------|
| Entrypoint   | 0x08CF    |
| Data Size    | 189 bytes |
| Instructions | 48        |

```
      00 01 02 03 04 05 06 07  08 09 0A 0B 0C 0D 0E 0F
      -- -- -- -- -- -- -- --  -- -- -- -- -- -- -- --
08C0:                                               1E                 .
08D0: F0 FF FF 7F 4A F0 FF FF  7F F8 FF FF 7F 6F 70 66  ....J........opf
08E0: 00 80 F8 FF FF 7F F8 FF  FF 7F 74 6C 6B 30 1D B4  ..........tlk0..
08F0: 80 23 1D B5 80 23 1D B6  80 23 1D B7 80 23 66 00  .#...#...#...#f.
0900: 80 F8 FF FF 7F F8 FF FF  7F 74 65 6E 30 6E F0 FF  .........ten0n..
0910: FF 7F B8 80 99 F0 FF FF  7F 1C 42 80 66 00 80 F8  ..........B.f...
0920: FF FF 7F F8 FF FF 7F 74  68 6B 31 1D B9 80 23 1D  .......thk1...#.
0930: BA 80 23 1D BB 80 23 66  00 80 F8 FF FF 7F F8 FF  ..#...#f........
0940: FF 7F 74 68 6B 32 1D BC  80 23 1D BD 80 23 66 00  ..thk2...#...#f.
0950: 80 F8 FF FF 7F F8 FF FF  7F 74 6C 6B 31 1D BE 80  .........tlk1...
0960: 23 1D BF 80 23 1D C0 80  23 1D C1 80 23 1D C2 80  #...#...#...#...
0970: 23 66 00 80 F8 FF FF 7F  F8 FF FF 7F 74 65 6E 31  #f..........ten1
0980: 1D C3 80 23 1D C4 80 23  20 00 21 00              ...#...# .!.    
```

#### Opcodes

```
  0: 0x08CF [0x1E] EventEntity looks at LocalPlayer and starts talking
  1: 0x08D4 [0x4A] LocalPlayer looks at EventEntity
  2: 0x08DD [0x6F] WAIT_FRAME_DELAY: Yield until WaitTime reaches zero
  3: 0x08DE [0x70] WAIT_ENTITY_RENDER_FLAG: Wait while EventEntity->Render.Flags3 bit 2 is set (cancel turn if not)
  4: 0x08DF [0x66] LOAD_EXT_SCHEDULER_MAIN: Load scheduler "tlk0" with entities [EventEntity, EventEntity], work=0*
  5: 0x08EE [0x1D] PRINT_EVENT_MESSAGE(message_id=14048*)
    → "Good day, <Player>."
  6: 0x08F1 [0x23] WAIT_FOR_DIALOG_INTERACTION
  7: 0x08F2 [0x1D] PRINT_EVENT_MESSAGE(message_id=14049*)
    → "It seems you have been quite busy cleaning up the riff-raff."
  8: 0x08F5 [0x23] WAIT_FOR_DIALOG_INTERACTION
  9: 0x08F6 [0x1D] PRINT_EVENT_MESSAGE(message_id=14050*)
    → "The A.M.A.N. has reported to me that your data has come in quite handy--and that you have filled all the tasks I have required of you."
 10: 0x08F9 [0x23] WAIT_FOR_DIALOG_INTERACTION
 11: 0x08FA [0x1D] PRINT_EVENT_MESSAGE(message_id=14051*)
    → "What's this? You wish to discuss it further?"
 12: 0x08FD [0x23] WAIT_FOR_DIALOG_INTERACTION
 13: 0x08FE [0x66] LOAD_EXT_SCHEDULER_MAIN: Load scheduler "ten0" with entities [EventEntity, EventEntity], work=0*
 14: 0x090D [0x6E] LocalPlayer uses emote 34*
 15: 0x0914 [0x99] Wait for LocalPlayer animation to complete
 16: 0x0919 [0x1C] WAIT(120* ticks)
 17: 0x091C [0x66] LOAD_EXT_SCHEDULER_MAIN: Load scheduler "thk1" with entities [EventEntity, EventEntity], work=0*
 18: 0x092B [0x1D] PRINT_EVENT_MESSAGE(message_id=14052*)
    → "Ah, you wish to receive additional rewards for vanquishing what threats remain. I see, I see."
 19: 0x092E [0x23] WAIT_FOR_DIALOG_INTERACTION
 20: 0x092F [0x1D] PRINT_EVENT_MESSAGE(message_id=14053*)
    → "And you have been unsuccessful in your efforts to procure such rewards, no?"
 21: 0x0932 [0x23] WAIT_FOR_DIALOG_INTERACTION
 22: 0x0933 [0x1D] PRINT_EVENT_MESSAGE(message_id=14054*)
    → "For when you defeat them, they keep coming back?"
 23: 0x0936 [0x23] WAIT_FOR_DIALOG_INTERACTION
 24: 0x0937 [0x66] LOAD_EXT_SCHEDULER_MAIN: Load scheduler "thk2" with entities [EventEntity, EventEntity], work=0*
 25: 0x0946 [0x1D] PRINT_EVENT_MESSAGE(message_id=14055*)
    → "Forgive me for laughing, but you are aware that you are asking for rewards for killing that which is already dead."
 26: 0x0949 [0x23] WAIT_FOR_DIALOG_INTERACTION
 27: 0x094A [0x1D] PRINT_EVENT_MESSAGE(message_id=14056*)
    → "They are of a different world than ours, after all, and trapping them in this one is a fool's errand."
 28: 0x094D [0x23] WAIT_FOR_DIALOG_INTERACTION
 29: 0x094E [0x66] LOAD_EXT_SCHEDULER_MAIN: Load scheduler "tlk1" with entities [EventEntity, EventEntity], work=0*
 30: 0x095D [0x1D] PRINT_EVENT_MESSAGE(message_id=14057*)
    → "But I do admire your gumption."
 31: 0x0960 [0x23] WAIT_FOR_DIALOG_INTERACTION
 32: 0x0961 [0x1D] PRINT_EVENT_MESSAGE(message_id=14058*)
    → "I am not an unreasonable man. If you are able to best them again if and when they should appear in our plane, then who am I to deny you an extra prize?"
 33: 0x0964 [0x23] WAIT_FOR_DIALOG_INTERACTION
 34: 0x0965 [0x1D] PRINT_EVENT_MESSAGE(message_id=14059*)
    → "Then I shall prepare some more objectives for you to sink your teeth into. That strikes me as fair, wouldn't you agree?"
 35: 0x0968 [0x23] WAIT_FOR_DIALOG_INTERACTION
 36: 0x0969 [0x1D] PRINT_EVENT_MESSAGE(message_id=14060*)
    → "Let us set the rate: one additional reward for every three objectives completed."
 37: 0x096C [0x23] WAIT_FOR_DIALOG_INTERACTION
 38: 0x096D [0x1D] PRINT_EVENT_MESSAGE(message_id=14061*)
    → "After all, what adventurer does not love rewards, hmm? Just don't get yourself offed in the process."
 39: 0x0970 [0x23] WAIT_FOR_DIALOG_INTERACTION
 40: 0x0971 [0x66] LOAD_EXT_SCHEDULER_MAIN: Load scheduler "ten1" with entities [EventEntity, EventEntity], work=0*
 41: 0x0980 [0x1D] PRINT_EVENT_MESSAGE(message_id=14062*)
    → "Oh, yes, and be aware that the additional reward can only be earned monthly (Earth time)."
 42: 0x0983 [0x23] WAIT_FOR_DIALOG_INTERACTION
 43: 0x0984 [0x1D] PRINT_EVENT_MESSAGE(message_id=14063*)
    → "Just keep doing what you're doing."
 44: 0x0987 [0x23] WAIT_FOR_DIALOG_INTERACTION
 45: 0x0988 [0x20] SET_CLI_EVENT_UC_FLAG: Unlock player control
 46: 0x098A [0x21] END_EVENT
 47: 0x098B [0x00] END_REQSTACK()
```

### Event 10261

#### Metadata

| Field        | Value    |
|--------------|----------|
| Entrypoint   | 0x098C   |
| Data Size    | 55 bytes |
| Instructions | 18       |

```
      00 01 02 03 04 05 06 07  08 09 0A 0B 0C 0D 0E 0F
      -- -- -- -- -- -- -- --  -- -- -- -- -- -- -- --
0980:                                      1E F0 FF FF              ....
