# 17776790 - Pheauclemand

## Common Data

| Field            | Value                 |
|------------------|-----------------------|
| Zone             | Upper Jeuno (ID: 244) |
| Block Size       | 584 bytes             |
| Total Events     | 13                    |
| References Count | 33                    |

## List of Events

| Event ID                 | Entrypoint   |   Size |   Instructions |
|--------------------------|--------------|--------|----------------|
| [65535](#event-65535)    | 0x0000       |      1 |              1 |
| [10060](#event-10060)    | 0x0001       |      1 |              1 |
| [10205](#event-10205)    | 0x0002       |      1 |              1 |
| [10062](#event-10062)    | 0x0003       |      1 |              1 |
| [10207](#event-10207)    | 0x0004       |      1 |              1 |
| [65535.1](#event-655351) | 0x0005       |     23 |              5 |
| [65535.2](#event-655352) | 0x001C       |     23 |              5 |
| [65535.3](#event-655353) | 0x0033       |     26 |              6 |
| [65535.4](#event-655354) | 0x004D       |     14 |              4 |
| [65535.5](#event-655355) | 0x005B       |    159 |             25 |
| [65535.6](#event-655356) | 0x00FA       |     73 |             15 |
| [65535.7](#event-655357) | 0x0143       |     27 |              7 |
| [65535.8](#event-655358) | 0x015E       |     34 |              4 |

## DAT References (imed_data)

|   Index | Hex Value   |   Dec Value |
|---------|-------------|-------------|
|       0 | 0xFFFF5576  |  4294923638 |
|       1 | 0x1A1CB     |      106955 |
|       2 | 0x0000      |           0 |
|       3 | 0x001D      |          29 |
|       4 | 0xFFFF082B  |  4294903851 |
|       5 | 0x3352      |       13138 |
|       6 | 0x03E8      |        1000 |
|       7 | 0x0125      |         293 |
|       8 | 0x0028      |          40 |
|       9 | 0xFFFF1F33  |  4294909747 |
|      10 | 0x07E9      |        2025 |
|      11 | 0xFFFFFE0C  |  4294966796 |
|      12 | 0xFFFF182D  |  4294907949 |
|      13 | 0xFFFFF8B2  |  4294965426 |
|      14 | 0x027F      |         639 |
|      15 | 0x000F      |          15 |
|      16 | 0xFFFF1DE1  |  4294909409 |
|      17 | 0xFFFFDF29  |  4294958889 |
|      18 | 0x000D      |          13 |
|      19 | 0xFFFF1E20  |  4294909472 |
|      20 | 0xFFFFDB6C  |  4294957932 |
|      21 | 0x0009      |           9 |
|      22 | 0x00B4      |         180 |
|      23 | 0x001E      |          30 |
|      24 | 0x0004      |           4 |
|      25 | 0x005A      |          90 |
|      26 | 0x003C      |          60 |
|      27 | 0x0019      |          25 |
|      28 | 0x0016      |          22 |
|      29 | 0xFFFF1F4D  |  4294909773 |
|      30 | 0xFFFFD977  |  4294957431 |
|      31 | 0x0022      |          34 |
|      32 | 0x0078      |         120 |

## Events

### Event 65535

#### Metadata

| Field        | Value   |
|--------------|---------|
| Entrypoint   | 0x0000  |
| Data Size    | 1 bytes |
| Instructions | 1       |

```
      00 01 02 03 04 05 06 07  08 09 0A 0B 0C 0D 0E 0F
      -- -- -- -- -- -- -- --  -- -- -- -- -- -- -- --
0000: 00                                                .               
```

#### Opcodes

```
  0: 0x0000 [0x00] END_REQSTACK()
```

### Event 10060

#### Metadata

| Field        | Value   |
|--------------|---------|
| Entrypoint   | 0x0001  |
| Data Size    | 1 bytes |
| Instructions | 1       |

```
      00 01 02 03 04 05 06 07  08 09 0A 0B 0C 0D 0E 0F
      -- -- -- -- -- -- -- --  -- -- -- -- -- -- -- --
0000:    00                                              .              
```

#### Opcodes

```
  0: 0x0001 [0x00] END_REQSTACK()
```

### Event 10205

#### Metadata

| Field        | Value   |
|--------------|---------|
| Entrypoint   | 0x0002  |
| Data Size    | 1 bytes |
| Instructions | 1       |

```
      00 01 02 03 04 05 06 07  08 09 0A 0B 0C 0D 0E 0F
      -- -- -- -- -- -- -- --  -- -- -- -- -- -- -- --
0000:       00                                            .             
```

#### Opcodes

```
  0: 0x0002 [0x00] END_REQSTACK()
```

### Event 10062

#### Metadata

| Field        | Value   |
|--------------|---------|
| Entrypoint   | 0x0003  |
| Data Size    | 1 bytes |
| Instructions | 1       |

```
      00 01 02 03 04 05 06 07  08 09 0A 0B 0C 0D 0E 0F
      -- -- -- -- -- -- -- --  -- -- -- -- -- -- -- --
0000:          00                                          .            
```

#### Opcodes

```
  0: 0x0003 [0x00] END_REQSTACK()
```

### Event 10207

#### Metadata

| Field        | Value   |
|--------------|---------|
| Entrypoint   | 0x0004  |
| Data Size    | 1 bytes |
| Instructions | 1       |

```
      00 01 02 03 04 05 06 07  08 09 0A 0B 0C 0D 0E 0F
      -- -- -- -- -- -- -- --  -- -- -- -- -- -- -- --
0000:             00                                        .           
```

#### Opcodes

```
  0: 0x0004 [0x00] END_REQSTACK()
```

### Event 65535.1

#### Metadata

| Field        | Value    |
|--------------|----------|
| Entrypoint   | 0x0005   |
| Data Size    | 23 bytes |
| Instructions | 5        |

```
      00 01 02 03 04 05 06 07  08 09 0A 0B 0C 0D 0E 0F
      -- -- -- -- -- -- -- --  -- -- -- -- -- -- -- --
0000:                2F 00 F8  FF FF 7F 37 00 80 01 80       /.....7....
0010: 02 80 03 80 22 00 80 F8  FF FF 7F 00              ....".......    
```

#### Opcodes

```
  0: 0x0005 [0x2F] EventEntity->Render.Flags0 &= ~0x80000 // Bit 19
  1: 0x000B [0x37] UPDATE_EVENT_POSITION_AND_DIR: x=-43.658*, z=106.955*, y=0.000*, direction=2.5°*
  2: 0x0014 [0x22] ENTITY_HIDE_FLAG(enabled=0x00)
  3: 0x0016 [0x80] LOAD_WAIT(entity=EventEntity)
  4: 0x001B [0x00] END_REQSTACK()
```

### Event 65535.2

#### Metadata

| Field        | Value    |
|--------------|----------|
| Entrypoint   | 0x001C   |
| Data Size    | 23 bytes |
| Instructions | 5        |

```
      00 01 02 03 04 05 06 07  08 09 0A 0B 0C 0D 0E 0F
      -- -- -- -- -- -- -- --  -- -- -- -- -- -- -- --
0010:                                      37 04 80 05              7...
0020: 80 06 80 07 80 32 08 80  1F 00 09 80 0A 80 0B 80  .....2..........
0030: 1F 01 00                                          ...             
```

#### Opcodes

```
  0: 0x001C [0x37] UPDATE_EVENT_POSITION_AND_DIR: x=-63.445*, z=13.138*, y=1.000*, direction=25.8°*
  1: 0x0025 [0x32] ExtData[1]->MainSpeed = 40* * 0.1
  2: 0x0028 [0x1F] MOVE_ENTITY: EventEntity moves to X=-57.549*, Z=2.025*, Y=-0.500*
  3: 0x0030 [0x1F] MOVE_ENTITY: Update entity position (mode=1)
  4: 0x0032 [0x00] END_REQSTACK()
```

### Event 65535.3

#### Metadata

| Field        | Value    |
|--------------|----------|
| Entrypoint   | 0x0033   |
| Data Size    | 26 bytes |
| Instructions | 6        |

```
      00 01 02 03 04 05 06 07  08 09 0A 0B 0C 0D 0E 0F
      -- -- -- -- -- -- -- --  -- -- -- -- -- -- -- --
0030:          37 0C 80 0D 80  0B 80 0E 80 1C 0F 80 32     7...........2
0040: 08 80 1F 00 10 80 11 80  0B 80 1F 01 00           .............   
```

#### Opcodes

```
  0: 0x0033 [0x37] UPDATE_EVENT_POSITION_AND_DIR: x=-59.347*, z=-1.870*, y=-0.500*, direction=56.2°*
  1: 0x003C [0x1C] WAIT(15* ticks)
  2: 0x003F [0x32] ExtData[1]->MainSpeed = 40* * 0.1
  3: 0x0042 [0x1F] MOVE_ENTITY: EventEntity moves to X=-57.887*, Z=-8.407*, Y=-0.500*
  4: 0x004A [0x1F] MOVE_ENTITY: Update entity position (mode=1)
  5: 0x004C [0x00] END_REQSTACK()
```

### Event 65535.4

#### Metadata

| Field        | Value    |
|--------------|----------|
| Entrypoint   | 0x004D   |
| Data Size    | 14 bytes |
| Instructions | 4        |

```
      00 01 02 03 04 05 06 07  08 09 0A 0B 0C 0D 0E 0F
      -- -- -- -- -- -- -- --  -- -- -- -- -- -- -- --
0040:                                         32 12 80               2..
0050: 1F 00 13 80 14 80 0B 80  1F 01 00                 ...........     
```

#### Opcodes

```
  0: 0x004D [0x32] ExtData[1]->MainSpeed = 13* * 0.1
  1: 0x0050 [0x1F] MOVE_ENTITY: EventEntity moves to X=-57.824*, Z=-9.364*, Y=-0.500*
  2: 0x0058 [0x1F] MOVE_ENTITY: Update entity position (mode=1)
  3: 0x005A [0x00] END_REQSTACK()
```

### Event 65535.5

#### Metadata

| Field        | Value     |
|--------------|-----------|
| Entrypoint   | 0x005B    |
| Data Size    | 159 bytes |
| Instructions | 25        |

```
      00 01 02 03 04 05 06 07  08 09 0A 0B 0C 0D 0E 0F
      -- -- -- -- -- -- -- --  -- -- -- -- -- -- -- --
0050:                                   66 03 80 96 40             f...@
0060: 0F 01 96 40 0F 01 74 6C  6B 30 66 15 80 98 40 0F  ...@..tlk0f...@.
0070: 01 98 40 0F 01 74 6C 6B  30 1C 16 80 66 03 80 96  ..@..tlk0...f...
0080: 40 0F 01 96 40 0F 01 74  6C 6B 31 1C 17 80 66 15  @...@..tlk1...f.
0090: 80 98 40 0F 01 98 40 0F  01 74 6C 6B 31 1C 17 80  ..@...@..tlk1...
00A0: 6E 96 40 0F 01 18 80 99  96 40 0F 01 6E 98 40 0F  n.@......@..n.@.
00B0: 01 18 80 99 98 40 0F 01  1C 0F 80 6E 9A 40 0F 01  .....@.....n.@..
00C0: 18 80 99 9A 40 0F 01 1C  19 80 99 96 40 0F 01 6E  ....@.......@..n
00D0: 96 40 0F 01 18 80 99 96  40 0F 01 99 98 40 0F 01  .@......@....@..
00E0: 6E 98 40 0F 01 18 80 99  98 40 0F 01 99 9A 40 0F  n.@......@....@.
00F0: 01 1C 1A 80 99 96 40 0F  01 00                    ......@...      
```

#### Opcodes

```
  0: 0x005B [0x66] LOAD_EXT_SCHEDULER_MAIN: Load scheduler "tlk0" with entities [Pheauclemand (ID: 17776790/0x010F4096), Pheauclemand (ID: 17776790/0x010F4096)], work=29*
  1: 0x006A [0x66] LOAD_EXT_SCHEDULER_MAIN: Load scheduler "tlk0" with entities [??? (ID: 17776792/0x010F4098), ??? (ID: 17776792/0x010F4098)], work=9*
  2: 0x0079 [0x1C] WAIT(180* ticks)
  3: 0x007C [0x66] LOAD_EXT_SCHEDULER_MAIN: Load scheduler "tlk1" with entities [Pheauclemand (ID: 17776790/0x010F4096), Pheauclemand (ID: 17776790/0x010F4096)], work=29*
  4: 0x008B [0x1C] WAIT(30* ticks)
  5: 0x008E [0x66] LOAD_EXT_SCHEDULER_MAIN: Load scheduler "tlk1" with entities [??? (ID: 17776792/0x010F4098), ??? (ID: 17776792/0x010F4098)], work=9*
  6: 0x009D [0x1C] WAIT(30* ticks)
  7: 0x00A0 [0x6E] Pheauclemand (ID: 17776790/0x010F4096) uses emote 4*
  8: 0x00A7 [0x99] Wait for Pheauclemand (ID: 17776790/0x010F4096) animation to complete
  9: 0x00AC [0x6E] ??? (ID: 17776792/0x010F4098) uses emote 4*
 10: 0x00B3 [0x99] Wait for ??? (ID: 17776792/0x010F4098) animation to complete
 11: 0x00B8 [0x1C] WAIT(15* ticks)
 12: 0x00BB [0x6E] Pelagia (ID: 17776794/0x010F409A) uses emote 4*
 13: 0x00C2 [0x99] Wait for Pelagia (ID: 17776794/0x010F409A) animation to complete
 14: 0x00C7 [0x1C] WAIT(90* ticks)
 15: 0x00CA [0x99] Wait for Pheauclemand (ID: 17776790/0x010F4096) animation to complete
 16: 0x00CF [0x6E] Pheauclemand (ID: 17776790/0x010F4096) uses emote 4*
 17: 0x00D6 [0x99] Wait for Pheauclemand (ID: 17776790/0x010F4096) animation to complete
 18: 0x00DB [0x99] Wait for ??? (ID: 17776792/0x010F4098) animation to complete
 19: 0x00E0 [0x6E] ??? (ID: 17776792/0x010F4098) uses emote 4*
 20: 0x00E7 [0x99] Wait for ??? (ID: 17776792/0x010F4098) animation to complete
 21: 0x00EC [0x99] Wait for Pelagia (ID: 17776794/0x010F409A) animation to complete
 22: 0x00F1 [0x1C] WAIT(60* ticks)
 23: 0x00F4 [0x99] Wait for Pheauclemand (ID: 17776790/0x010F4096) animation to complete
 24: 0x00F9 [0x00] END_REQSTACK()
```

### Event 65535.6

#### Metadata

| Field        | Value    |
|--------------|----------|
| Entrypoint   | 0x00FA   |
| Data Size    | 73 bytes |
| Instructions | 15       |

```
      00 01 02 03 04 05 06 07  08 09 0A 0B 0C 0D 0E 0F
      -- -- -- -- -- -- -- --  -- -- -- -- -- -- -- --
00F0:                                4A 96 40 0F 01 98            J.@...
0100: 40 0F 01 6F 76 96 40 0F  01 1C 17 80 6E 96 40 0F  @..ov.@.....n.@.
0110: 01 03 80 99 96 40 0F 01  99 96 40 0F 01 6E 96 40  .....@....@..n.@
0120: 0F 01 1B 80 99 96 40 0F  01 99 96 40 0F 01 1C 17  ......@....@....
0130: 80 6E 96 40 0F 01 1C 80  99 96 40 0F 01 99 96 40  .n.@......@....@
0140: 0F 01 00                                          ...             
```

#### Opcodes

```
  0: 0x00FA [0x4A] Pheauclemand (ID: 17776790/0x010F4096) looks at ??? (ID: 17776792/0x010F4098)
  1: 0x0103 [0x6F] WAIT_FRAME_DELAY: Yield until WaitTime reaches zero
  2: 0x0104 [0x76] CHECK_ENTITY_RENDER_FLAGS: Wait until Pheauclemand (ID: 17776790/0x010F4096) Render.Flags0 and Render.Flags3 conditions are met
  3: 0x0109 [0x1C] WAIT(30* ticks)
  4: 0x010C [0x6E] Pheauclemand (ID: 17776790/0x010F4096) uses emote 29*
  5: 0x0113 [0x99] Wait for Pheauclemand (ID: 17776790/0x010F4096) animation to complete
  6: 0x0118 [0x99] Wait for Pheauclemand (ID: 17776790/0x010F4096) animation to complete
  7: 0x011D [0x6E] Pheauclemand (ID: 17776790/0x010F4096) uses emote 25*
  8: 0x0124 [0x99] Wait for Pheauclemand (ID: 17776790/0x010F4096) animation to complete
  9: 0x0129 [0x99] Wait for Pheauclemand (ID: 17776790/0x010F4096) animation to complete
 10: 0x012E [0x1C] WAIT(30* ticks)
 11: 0x0131 [0x6E] Pheauclemand (ID: 17776790/0x010F4096) uses emote 22*
 12: 0x0138 [0x99] Wait for Pheauclemand (ID: 17776790/0x010F4096) animation to complete
 13: 0x013D [0x99] Wait for Pheauclemand (ID: 17776790/0x010F4096) animation to complete
 14: 0x0142 [0x00] END_REQSTACK()
```

### Event 65535.7

#### Metadata

| Field        | Value    |
|--------------|----------|
| Entrypoint   | 0x0143   |
| Data Size    | 27 bytes |
| Instructions | 7        |

```
      00 01 02 03 04 05 06 07  08 09 0A 0B 0C 0D 0E 0F
      -- -- -- -- -- -- -- --  -- -- -- -- -- -- -- --
0140:          32 08 80 1F 00  1D 80 1E 80 0B 80 1F 01     2............
0150: 6F 6E 96 40 0F 01 1F 80  99 96 40 0F 01 00        on.@......@...  
```

#### Opcodes

```
  0: 0x0143 [0x32] ExtData[1]->MainSpeed = 40* * 0.1
  1: 0x0146 [0x1F] MOVE_ENTITY: EventEntity moves to X=-57.523*, Z=-9.865*, Y=-0.500*
  2: 0x014E [0x1F] MOVE_ENTITY: Update entity position (mode=1)
  3: 0x0150 [0x6F] WAIT_FRAME_DELAY: Yield until WaitTime reaches zero
  4: 0x0151 [0x6E] Pheauclemand (ID: 17776790/0x010F4096) uses emote 34*
  5: 0x0158 [0x99] Wait for Pheauclemand (ID: 17776790/0x010F4096) animation to complete
  6: 0x015D [0x00] END_REQSTACK()
```

### Event 65535.8

#### Metadata

| Field        | Value    |
|--------------|----------|
| Entrypoint   | 0x015E   |
| Data Size    | 34 bytes |
| Instructions | 4        |

```
      00 01 02 03 04 05 06 07  08 09 0A 0B 0C 0D 0E 0F
      -- -- -- -- -- -- -- --  -- -- -- -- -- -- -- --
0150:                                            66 03                f.
0160: 80 96 40 0F 01 96 40 0F  01 74 77 61 30 1C 20 80  ..@...@..twa0. .
0170: 66 03 80 96 40 0F 01 96  40 0F 01 74 77 61 31 00  f...@...@..twa1.
```

#### Opcodes

```
  0: 0x015E [0x66] LOAD_EXT_SCHEDULER_MAIN: Load scheduler "twa0" with entities [Pheauclemand (ID: 17776790/0x010F4096), Pheauclemand (ID: 17776790/0x010F4096)], work=29*
  1: 0x016D [0x1C] WAIT(120* ticks)
  2: 0x0170 [0x66] LOAD_EXT_SCHEDULER_MAIN: Load scheduler "twa1" with entities [Pheauclemand (ID: 17776790/0x010F4096), Pheauclemand (ID: 17776790/0x010F4096)], work=29*
  3: 0x017F [0x00] END_REQSTACK()
```
