# 17776782 - Palometa

## Common Data

| Field            | Value                 |
|------------------|-----------------------|
| Zone             | Upper Jeuno (ID: 244) |
| Block Size       | 364 bytes             |
| Total Events     | 17                    |
| References Count | 29                    |

## List of Events

| Event ID                 | Entrypoint   |   Size |   Instructions |
|--------------------------|--------------|--------|----------------|
| [65535](#event-65535)    | 0x0000       |      1 |              1 |
| [10171](#event-10171)    | 0x0001       |      1 |              1 |
| [10036](#event-10036)    | 0x0002       |      1 |              1 |
| [10038](#event-10038)    | 0x0003       |      1 |              1 |
| [65535.1](#event-655351) | 0x0004       |     24 |              6 |
| [65535.2](#event-655352) | 0x001C       |     26 |              6 |
| [10039](#event-10039)    | 0x0036       |      1 |              1 |
| [65535.3](#event-655353) | 0x0037       |     20 |              4 |
| [10040](#event-10040)    | 0x004B       |      1 |              1 |
| [65535.4](#event-655354) | 0x004C       |     10 |              2 |
| [10043](#event-10043)    | 0x0056       |      1 |              1 |
| [65535.5](#event-655355) | 0x0057       |     23 |              5 |
| [65535.6](#event-655356) | 0x006E       |     17 |              5 |
| [10054](#event-10054)    | 0x007F       |      1 |              1 |
| [10066](#event-10066)    | 0x0080       |      1 |              1 |
| [65535.7](#event-655357) | 0x0081       |     15 |              3 |
| [65535.8](#event-655358) | 0x0090       |     19 |              5 |

## DAT References (imed_data)

|   Index | Hex Value   |   Dec Value |
|---------|-------------|-------------|
|       0 | 0xFFFE8DC5  |  4294872517 |
|       1 | 0x29C48     |      171080 |
|       2 | 0x0000      |           0 |
|       3 | 0x027F      |         639 |
|       4 | 0x000D      |          13 |
|       5 | 0xFFFE8611  |  4294870545 |
|       6 | 0x2813F     |      164159 |
|       7 | 0x0050      |          80 |
|       8 | 0x001E      |          30 |
|       9 | 0xFFFF470D  |  4294919949 |
|      10 | 0xBB98      |       48024 |
|      11 | 0x0B04      |        2820 |
|      12 | 0xFFFF3621  |  4294915617 |
|      13 | 0xDA37      |       55863 |
|      14 | 0x011C      |         284 |
|      15 | 0xFFFF6789  |  4294928265 |
|      16 | 0xAE0F      |       44559 |
|      17 | 0x0885      |        2181 |
|      18 | 0xFFFF4C0A  |  4294921226 |
|      19 | 0xB07D      |       45181 |
|      20 | 0x0028      |          40 |
|      21 | 0xFFFF2927  |  4294912295 |
|      22 | 0xB5F1      |       46577 |
|      23 | 0xFFFFFF39  |  4294967097 |
|      24 | 0xFFFF3C1C  |  4294917148 |
|      25 | 0xB748      |       46920 |
|      26 | 0x0783      |        1923 |
|      27 | 0xFFFF2DF0  |  4294913520 |
|      28 | 0xB129      |       45353 |

## Events

### Event 65535

#### Metadata

| Field        | Value   |
|--------------|---------|
| Entrypoint   | 0x0000  |
| Data Size    | 1 bytes |
| Instructions | 1       |

```
      00 01 02 03 04 05 06 07  08 09 0A 0B 0C 0D 0E 0F
      -- -- -- -- -- -- -- --  -- -- -- -- -- -- -- --
0000: 00                                                .               
```

#### Opcodes

```
  0: 0x0000 [0x00] END_REQSTACK()
```

### Event 10171

#### Metadata

| Field        | Value   |
|--------------|---------|
| Entrypoint   | 0x0001  |
| Data Size    | 1 bytes |
| Instructions | 1       |

```
      00 01 02 03 04 05 06 07  08 09 0A 0B 0C 0D 0E 0F
      -- -- -- -- -- -- -- --  -- -- -- -- -- -- -- --
0000:    00                                              .              
```

#### Opcodes

```
  0: 0x0001 [0x00] END_REQSTACK()
```

### Event 10036

#### Metadata

| Field        | Value   |
|--------------|---------|
| Entrypoint   | 0x0002  |
| Data Size    | 1 bytes |
| Instructions | 1       |

```
      00 01 02 03 04 05 06 07  08 09 0A 0B 0C 0D 0E 0F
      -- -- -- -- -- -- -- --  -- -- -- -- -- -- -- --
0000:       00                                            .             
```

#### Opcodes

```
  0: 0x0002 [0x00] END_REQSTACK()
```

### Event 10038

#### Metadata

| Field        | Value   |
|--------------|---------|
| Entrypoint   | 0x0003  |
| Data Size    | 1 bytes |
| Instructions | 1       |

```
      00 01 02 03 04 05 06 07  08 09 0A 0B 0C 0D 0E 0F
      -- -- -- -- -- -- -- --  -- -- -- -- -- -- -- --
0000:          00                                          .            
```

#### Opcodes

```
  0: 0x0003 [0x00] END_REQSTACK()
```

### Event 65535.1

#### Metadata

| Field        | Value    |
|--------------|----------|
| Entrypoint   | 0x0004   |
| Data Size    | 24 bytes |
| Instructions | 6        |

```
      00 01 02 03 04 05 06 07  08 09 0A 0B 0C 0D 0E 0F
      -- -- -- -- -- -- -- --  -- -- -- -- -- -- -- --
0000:             37 00 80 01  80 02 80 03 80 32 04 80      7........2..
0010: 1F 00 05 80 06 80 02 80  1F 01 6F 00              ..........o.    
```

#### Opcodes

```
  0: 0x0004 [0x37] UPDATE_EVENT_POSITION_AND_DIR: x=-94.779*, z=171.080*, y=0.000*, direction=56.2°*
  1: 0x000D [0x32] ExtData[1]->MainSpeed = 13* * 0.1
  2: 0x0010 [0x1F] MOVE_ENTITY: EventEntity moves to X=-96.751*, Z=164.159*, Y=0.000*
  3: 0x0018 [0x1F] MOVE_ENTITY: Update entity position (mode=1)
  4: 0x001A [0x6F] WAIT_FRAME_DELAY: Yield until WaitTime reaches zero
  5: 0x001B [0x00] END_REQSTACK()
```

### Event 65535.2

#### Metadata

| Field        | Value    |
|--------------|----------|
| Entrypoint   | 0x001C   |
| Data Size    | 26 bytes |
| Instructions | 6        |

```
      00 01 02 03 04 05 06 07  08 09 0A 0B 0C 0D 0E 0F
      -- -- -- -- -- -- -- --  -- -- -- -- -- -- -- --
0010:                                      1E 8F 40 0F              ..@.
0020: 01 6F 70 5B 07 80 F8 FF  FF 7F F8 FF FF 7F 74 6C  .op[..........tl
0030: 6B 30 1C 08 80 00                                 k0....          
```

#### Opcodes

```
  0: 0x001C [0x1E] EventEntity looks at Unnamed NPC (ID: 17776783/0x010F408F) and starts talking
  1: 0x0021 [0x6F] WAIT_FRAME_DELAY: Yield until WaitTime reaches zero
  2: 0x0022 [0x70] WAIT_ENTITY_RENDER_FLAG: Wait while EventEntity->Render.Flags3 bit 2 is set (cancel turn if not)
  3: 0x0023 [0x5B] LOAD_EXT_SCHEDULER: Load scheduler "tlk0" with entities [EventEntity, EventEntity], work=80*
  4: 0x0032 [0x1C] WAIT(30* ticks)
  5: 0x0035 [0x00] END_REQSTACK()
```

### Event 10039

#### Metadata

| Field        | Value   |
|--------------|---------|
| Entrypoint   | 0x0036  |
| Data Size    | 1 bytes |
| Instructions | 1       |

```
      00 01 02 03 04 05 06 07  08 09 0A 0B 0C 0D 0E 0F
      -- -- -- -- -- -- -- --  -- -- -- -- -- -- -- --
0030:                   00                                    .         
```

#### Opcodes

```
  0: 0x0036 [0x00] END_REQSTACK()
```

### Event 65535.3

#### Metadata

| Field        | Value    |
|--------------|----------|
| Entrypoint   | 0x0037   |
| Data Size    | 20 bytes |
| Instructions | 4        |

```
      00 01 02 03 04 05 06 07  08 09 0A 0B 0C 0D 0E 0F
      -- -- -- -- -- -- -- --  -- -- -- -- -- -- -- --
0030:                      37  09 80 0A 80 02 80 0B 80         7........
0040: 1F 00 0C 80 0D 80 02 80  1F 01 00                 ...........     
```

#### Opcodes

```
  0: 0x0037 [0x37] UPDATE_EVENT_POSITION_AND_DIR: x=-47.347*, z=48.024*, y=0.000*, direction=247.8°*
  1: 0x0040 [0x1F] MOVE_ENTITY: EventEntity moves to X=-51.679*, Z=55.863*, Y=0.000*
  2: 0x0048 [0x1F] MOVE_ENTITY: Update entity position (mode=1)
  3: 0x004A [0x00] END_REQSTACK()
```

### Event 10040

#### Metadata

| Field        | Value   |
|--------------|---------|
| Entrypoint   | 0x004B  |
| Data Size    | 1 bytes |
| Instructions | 1       |

```
      00 01 02 03 04 05 06 07  08 09 0A 0B 0C 0D 0E 0F
      -- -- -- -- -- -- -- --  -- -- -- -- -- -- -- --
0040:                                   00                         .    
```

#### Opcodes

```
  0: 0x004B [0x00] END_REQSTACK()
```

### Event 65535.4

#### Metadata

| Field        | Value    |
|--------------|----------|
| Entrypoint   | 0x004C   |
| Data Size    | 10 bytes |
| Instructions | 2        |

```
      00 01 02 03 04 05 06 07  08 09 0A 0B 0C 0D 0E 0F
      -- -- -- -- -- -- -- --  -- -- -- -- -- -- -- --
0040:                                      37 05 80 06              7...
0050: 80 02 80 0E 80 00                                 ......          
```

#### Opcodes

```
  0: 0x004C [0x37] UPDATE_EVENT_POSITION_AND_DIR: x=-96.751*, z=164.159*, y=0.000*, direction=25.0°*
  1: 0x0055 [0x00] END_REQSTACK()
```

### Event 10043

#### Metadata

| Field        | Value   |
|--------------|---------|
| Entrypoint   | 0x0056  |
| Data Size    | 1 bytes |
| Instructions | 1       |

```
      00 01 02 03 04 05 06 07  08 09 0A 0B 0C 0D 0E 0F
      -- -- -- -- -- -- -- --  -- -- -- -- -- -- -- --
0050:                   00                                    .         
```

#### Opcodes

```
  0: 0x0056 [0x00] END_REQSTACK()
```

### Event 65535.5

#### Metadata

| Field        | Value    |
|--------------|----------|
| Entrypoint   | 0x0057   |
| Data Size    | 23 bytes |
| Instructions | 5        |

```
      00 01 02 03 04 05 06 07  08 09 0A 0B 0C 0D 0E 0F
      -- -- -- -- -- -- -- --  -- -- -- -- -- -- -- --
0050:                      37  0F 80 10 80 02 80 11 80         7........
0060: 32 04 80 1F 00 12 80 13  80 02 80 1F 01 00        2.............  
```

#### Opcodes

```
  0: 0x0057 [0x37] UPDATE_EVENT_POSITION_AND_DIR: x=-39.031*, z=44.559*, y=0.000*, direction=191.7°*
  1: 0x0060 [0x32] ExtData[1]->MainSpeed = 13* * 0.1
  2: 0x0063 [0x1F] MOVE_ENTITY: EventEntity moves to X=-46.070*, Z=45.181*, Y=0.000*
  3: 0x006B [0x1F] MOVE_ENTITY: Update entity position (mode=1)
  4: 0x006D [0x00] END_REQSTACK()
```

### Event 65535.6

#### Metadata

| Field        | Value    |
|--------------|----------|
| Entrypoint   | 0x006E   |
| Data Size    | 17 bytes |
| Instructions | 5        |

```
      00 01 02 03 04 05 06 07  08 09 0A 0B 0C 0D 0E 0F
      -- -- -- -- -- -- -- --  -- -- -- -- -- -- -- --
0060:                                            1C 08                ..
0070: 80 32 14 80 1F 00 15 80  16 80 17 80 1F 01 00     .2............. 
```

#### Opcodes

```
  0: 0x006E [0x1C] WAIT(30* ticks)
  1: 0x0071 [0x32] ExtData[1]->MainSpeed = 40* * 0.1
  2: 0x0074 [0x1F] MOVE_ENTITY: EventEntity moves to X=-55.001*, Z=46.577*, Y=-0.199*
  3: 0x007C [0x1F] MOVE_ENTITY: Update entity position (mode=1)
  4: 0x007E [0x00] END_REQSTACK()
```

### Event 10054

#### Metadata

| Field        | Value   |
|--------------|---------|
| Entrypoint   | 0x007F  |
| Data Size    | 1 bytes |
| Instructions | 1       |

```
      00 01 02 03 04 05 06 07  08 09 0A 0B 0C 0D 0E 0F
      -- -- -- -- -- -- -- --  -- -- -- -- -- -- -- --
0070:                                               00                 .
```

#### Opcodes

```
  0: 0x007F [0x00] END_REQSTACK()
```

### Event 10066

#### Metadata

| Field        | Value   |
|--------------|---------|
| Entrypoint   | 0x0080  |
| Data Size    | 1 bytes |
| Instructions | 1       |

```
      00 01 02 03 04 05 06 07  08 09 0A 0B 0C 0D 0E 0F
      -- -- -- -- -- -- -- --  -- -- -- -- -- -- -- --
0080: 00                                                .               
```

#### Opcodes

```
  0: 0x0080 [0x00] END_REQSTACK()
```

### Event 65535.7

#### Metadata

| Field        | Value    |
|--------------|----------|
| Entrypoint   | 0x0081   |
| Data Size    | 15 bytes |
| Instructions | 3        |

```
      00 01 02 03 04 05 06 07  08 09 0A 0B 0C 0D 0E 0F
      -- -- -- -- -- -- -- --  -- -- -- -- -- -- -- --
0080:    37 18 80 19 80 02 80  1A 80 80 F8 FF FF 7F 00   7..............
```

#### Opcodes

```
  0: 0x0081 [0x37] UPDATE_EVENT_POSITION_AND_DIR: x=-50.148*, z=46.920*, y=0.000*, direction=169.0°*
  1: 0x008A [0x80] LOAD_WAIT(entity=EventEntity)
  2: 0x008F [0x00] END_REQSTACK()
```

### Event 65535.8

#### Metadata

| Field        | Value    |
|--------------|----------|
| Entrypoint   | 0x0090   |
| Data Size    | 19 bytes |
| Instructions | 5        |

```
      00 01 02 03 04 05 06 07  08 09 0A 0B 0C 0D 0E 0F
      -- -- -- -- -- -- -- --  -- -- -- -- -- -- -- --
0090: 32 14 80 1F 00 1B 80 1C  80 17 80 1F 01 1E 8C 40  2..............@
00A0: 0F 01 00                                          ...             
```

#### Opcodes

```
  0: 0x0090 [0x32] ExtData[1]->MainSpeed = 40* * 0.1
  1: 0x0093 [0x1F] MOVE_ENTITY: EventEntity moves to X=-53.776*, Z=45.353*, Y=-0.199*
  2: 0x009B [0x1F] MOVE_ENTITY: Update entity position (mode=1)
  3: 0x009D [0x1E] EventEntity looks at Luto Mewrilah (ID: 17776780/0x010F408C) and starts talking
  4: 0x00A2 [0x00] END_REQSTACK()
```
