# 17776786 - Yvenoile

## Common Data

| Field            | Value                 |
|------------------|-----------------------|
| Zone             | Upper Jeuno (ID: 244) |
| Block Size       | 192 bytes             |
| Total Events     | 4                     |
| References Count | 8                     |

## List of Events

| Event ID                 | Entrypoint   |   Size |   Instructions |
|--------------------------|--------------|--------|----------------|
| [65535](#event-65535)    | 0x0000       |      1 |              1 |
| [129](#event-129)        | 0x0001       |     26 |              4 |
| [65535.1](#event-655351) | 0x001B       |     10 |              2 |
| [65535.2](#event-655352) | 0x0025       |     91 |             19 |

## DAT References (imed_data)

|   Index | Hex Value   |   Dec Value |
|---------|-------------|-------------|
|       0 | 0x0000      |           0 |
|       1 | 0xFFFFCD38  |  4294954296 |
|       2 | 0x0400      |        1024 |
|       3 | 0x4A37      |       18999 |
|       4 | 0xFFFFD509  |  4294956297 |
|       5 | 0x0C00      |        3072 |
|       6 | 0x4E20      |       20000 |
|       7 | 0x000A      |          10 |

## Events

### Event 65535

#### Metadata

| Field        | Value   |
|--------------|---------|
| Entrypoint   | 0x0000  |
| Data Size    | 1 bytes |
| Instructions | 1       |

```
      00 01 02 03 04 05 06 07  08 09 0A 0B 0C 0D 0E 0F
      -- -- -- -- -- -- -- --  -- -- -- -- -- -- -- --
0000: 00                                                .               
```

#### Opcodes

```
  0: 0x0000 [0x00] END_REQSTACK()
```

### Event 129

#### Metadata

| Field        | Value    |
|--------------|----------|
| Entrypoint   | 0x0001   |
| Data Size    | 26 bytes |
| Instructions | 4        |

```
      00 01 02 03 04 05 06 07  08 09 0A 0B 0C 0D 0E 0F
      -- -- -- -- -- -- -- --  -- -- -- -- -- -- -- --
0000:    37 00 80 00 80 01 80  02 80 79 00 F8 FF FF 7F   7........y.....
0010: 91 40 0F 01 92 01 F8 FF  FF 7F 00                 .@.........     
```

#### Opcodes

```
  0: 0x0001 [0x37] UPDATE_EVENT_POSITION_AND_DIR: x=0.000*, z=0.000*, y=-13.000*, direction=90.0°*
  1: 0x000A [0x79] EventEntity looks at Esha'ntarl (ID: 17776785/0x010F4091) (Basic look)
  2: 0x0014 [0x92] EventEntity->Render.Flags3 ^= 0x01
  3: 0x001A [0x00] END_REQSTACK()
```

### Event 65535.1

#### Metadata

| Field        | Value    |
|--------------|----------|
| Entrypoint   | 0x001B   |
| Data Size    | 10 bytes |
| Instructions | 2        |

```
      00 01 02 03 04 05 06 07  08 09 0A 0B 0C 0D 0E 0F
      -- -- -- -- -- -- -- --  -- -- -- -- -- -- -- --
0010:                                   37 00 80 03 80             7....
0020: 04 80 05 80 00                                    .....           
```

#### Opcodes

```
  0: 0x001B [0x37] UPDATE_EVENT_POSITION_AND_DIR: x=0.000*, z=18.999*, y=-10.999*, direction=270.0°*
  1: 0x0024 [0x00] END_REQSTACK()
```

### Event 65535.2

#### Metadata

| Field        | Value    |
|--------------|----------|
| Entrypoint   | 0x0025   |
| Data Size    | 91 bytes |
| Instructions | 14       |

```
      00 01 02 03 04 05 06 07  08 09 0A 0B 0C 0D 0E 0F
      -- -- -- -- -- -- -- --  -- -- -- -- -- -- -- --
0020:                03 00 00  06 80 1A 3C 00 32 07 80       ......<.2..
0030: 1F 00 01 00 02 00 03 00  1F 01 6F 00 3B F8 FF FF  ..........o.;...
0040: 7F 01 00 02 00 03 00 3A  F8 FF FF 7F 04 00 17 05  .......:........
0050: 00 04 00 00 00 16 06 00  04 00 00 00 07 01 00 05  ................
0060: 00 07 02 00 06 00 1B 17  05 00 04 00 00 00 16 06  ................
0070: 00 04 00 00 00 07 01 00  05 00 07 02 00 06 00 1B  ................
```

#### Opcodes

```
  0: 0x0025 [0x03] ExtData[1]->WorkLocal[0] = 20000*
  1: 0x002A [0x1A] CALL_SUBROUTINE(address=0x003C)
  2: 0x002D [0x32] ExtData[1]->MainSpeed = 10* * 0.1
  3: 0x0030 [0x1F] MOVE_ENTITY: EventEntity moves to X=ExtData[1]->WorkLocal[1], Z=ExtData[1]->WorkLocal[2], Y=ExtData[1]->WorkLocal[3]
  4: 0x0038 [0x1F] MOVE_ENTITY: Update entity position (mode=1)
  5: 0x003A [0x6F] WAIT_FRAME_DELAY: Yield until WaitTime reaches zero
  6: 0x003B [0x00] END_REQSTACK()

SUBROUTINE_003C:
  7: 0x003C [0x3B] GET_ENTITY_POSITION(entity=EventEntity, x_destination=ExtData[1]->WorkLocal[1], y_destination=ExtData[1]->WorkLocal[2], z_destination=ExtData[1]->WorkLocal[3])
  8: 0x0047 [0x3A] CONVERT_YAW_TO_BYTE(entity=EventEntity, result_destination=ExtData[1]->WorkLocal[4])
  9: 0x004E [0x17] ExtData[1]->WorkLocal[5] = cos(ExtData[1]->WorkLocal[4]) * ExtData[1]->WorkLocal[0]
 10: 0x0055 [0x16] ExtData[1]->WorkLocal[6] = sin(ExtData[1]->WorkLocal[4]) * ExtData[1]->WorkLocal[0]
 11: 0x005C [0x07] ExtData[1]->WorkLocal[1] += ExtData[1]->WorkLocal[5]
 12: 0x0061 [0x07] ExtData[1]->WorkLocal[2] += ExtData[1]->WorkLocal[6]
 13: 0x0066 [0x1B] RETURN
```

#### Data or dead code:

```
# Dead code (unreachable instructions):
     0x0067 [0x17] ExtData[1]->WorkLocal[5] = cos(ExtData[1]->WorkLocal[4]) * ExtData[1]->WorkLocal[0]
     0x006E [0x16] ExtData[1]->WorkLocal[6] = sin(ExtData[1]->WorkLocal[4]) * ExtData[1]->WorkLocal[0]
     0x0075 [0x07] ExtData[1]->WorkLocal[1] += ExtData[1]->WorkLocal[5]
     0x007A [0x07] ExtData[1]->WorkLocal[2] += ExtData[1]->WorkLocal[6]
     0x007F [0x1B] RETURN
```
