# 17776889

## Common Data

| Field            | Value                 |
|------------------|-----------------------|
| Zone             | Upper Jeuno (ID: 244) |
| Block Size       | 30780 bytes           |
| Total Events     | 7                     |
| References Count | 481                   |

## List of Events

| Event ID              | Entrypoint   |   Size |   Instructions |
|-----------------------|--------------|--------|----------------|
| [65535](#event-65535) | 0x0000       |      1 |              1 |
| [10060](#event-10060) | 0x0001       |   2640 |            414 |
| [10204](#event-10204) | 0x0A51       |   1051 |            190 |
| [10205](#event-10205) | 0x0E6C       |    700 |            123 |
| [10062](#event-10062) | 0x1128       |    916 |            132 |
| [10206](#event-10206) | 0x14BC       |   1247 |            176 |
| [10207](#event-10207) | 0x199B       |  22255 |           3782 |

## DAT References (imed_data)

|   Index | Hex Value   |   Dec Value |
|---------|-------------|-------------|
|       0 | 0x001B      |          27 |
|       1 | 0xFFFF440B  |  4294919179 |
|       2 | 0x9F42      |       40770 |
|       3 | 0x0000      |           0 |
|       4 | 0x06D4      |        1748 |
|       5 | 0x0025      |          37 |
|       6 | 0x003C      |          60 |
|       7 | 0x0032      |          50 |
|       8 | 0x001E      |          30 |
|       9 | 0x24B1      |        9393 |
|      10 | 0x0001      |           1 |
|      11 | 0x24B2      |        9394 |
|      12 | 0x0002      |           2 |
|      13 | 0x24B3      |        9395 |
|      14 | 0x0003      |           3 |
|      15 | 0x24B4      |        9396 |
|      16 | 0x0004      |           4 |
|      17 | 0x24B5      |        9397 |
|      18 | 0x0005      |           5 |
|      19 | 0x24B6      |        9398 |
|      20 | 0x0006      |           6 |
|      21 | 0x24B7      |        9399 |
|      22 | 0x0007      |           7 |
|      23 | 0x24B8      |        9400 |
|      24 | 0x24B9      |        9401 |
|      25 | 0x24BA      |        9402 |
|      26 | 0x24BB      |        9403 |
|      27 | 0x00C2      |         194 |
|      28 | 0x24BC      |        9404 |
|      29 | 0x24BD      |        9405 |
|      30 | 0x24BE      |        9406 |
|      31 | 0x24BF      |        9407 |
|      32 | 0x24C0      |        9408 |
|      33 | 0x24C1      |        9409 |
|      34 | 0x24C2      |        9410 |
|      35 | 0x24C3      |        9411 |
|      36 | 0x24C4      |        9412 |
|      37 | 0x24C5      |        9413 |
|      38 | 0x24C6      |        9414 |
|      39 | 0x24C7      |        9415 |
|      40 | 0x0078      |         120 |
|      41 | 0x24C8      |        9416 |
|      42 | 0x000C      |          12 |
|      43 | 0x009F      |         159 |
|      44 | 0x24C9      |        9417 |
|      45 | 0x010E      |         270 |
|      46 | 0x24CA      |        9418 |
|      47 | 0x00C8      |         200 |
|      48 | 0x24CB      |        9419 |
|      49 | 0x24CC      |        9420 |
|      50 | 0x24CD      |        9421 |
|      51 | 0x24CE      |        9422 |
|      52 | 0x01BE      |         446 |
|      53 | 0x24CF      |        9423 |
|      54 | 0x0013      |          19 |
|      55 | 0x00B4      |         180 |
|      56 | 0x24D0      |        9424 |
|      57 | 0x0015      |          21 |
|      58 | 0x24D1      |        9425 |
|      59 | 0x24D2      |        9426 |
|      60 | 0x24D3      |        9427 |
|      61 | 0x24D4      |        9428 |
|      62 | 0x02B4      |         692 |
|      63 | 0x000F      |          15 |
|      64 | 0x24D5      |        9429 |
|      65 | 0x24D7      |        9431 |
|      66 | 0x24D8      |        9432 |
|      67 | 0xFFFF33E8  |  4294915048 |
|      68 | 0xAC88      |       44168 |
|      69 | 0xFFFFFF39  |  4294967097 |
|      70 | 0x000A      |          10 |
|      71 | 0x24D9      |        9433 |
|      72 | 0x24DA      |        9434 |
|      73 | 0x24DB      |        9435 |
|      74 | 0x00D2      |         210 |
|      75 | 0x0026      |          38 |
|      76 | 0x24DC      |        9436 |
|      77 | 0x24DD      |        9437 |
|      78 | 0x24DE      |        9438 |
|      79 | 0x24DF      |        9439 |
|      80 | 0x24E0      |        9440 |
|      81 | 0x24E1      |        9441 |
|      82 | 0x24E2      |        9442 |
|      83 | 0x24E3      |        9443 |
|      84 | 0x24E4      |        9444 |
|      85 | 0x00CB      |         203 |
|      86 | 0x005A      |          90 |
|      87 | 0x006E      |         110 |
|      88 | 0x007E      |         126 |
|      89 | 0x0012      |          18 |
|      90 | 0x0020      |          32 |
|      91 | 0x24E5      |        9445 |
|      92 | 0x24E6      |        9446 |
|      93 | 0x24E7      |        9447 |
|      94 | 0x24E8      |        9448 |
|      95 | 0x24EB      |        9451 |
|      96 | 0x24EC      |        9452 |
|      97 | 0x24ED      |        9453 |
|      98 | 0x0008      |           8 |
|      99 | 0x24EE      |        9454 |
|     100 | 0x0009      |           9 |
|     101 | 0x24EF      |        9455 |
|     102 | 0x24E9      |        9449 |
|     103 | 0x000B      |          11 |
|     104 | 0x24EA      |        9450 |
|     105 | 0x24F0      |        9456 |
|     106 | 0x001A      |          26 |
|     107 | 0x24F1      |        9457 |
|     108 | 0x24F2      |        9458 |
|     109 | 0x24F3      |        9459 |
|     110 | 0x24F4      |        9460 |
|     111 | 0x24F7      |        9463 |
|     112 | 0x24F8      |        9464 |
|     113 | 0x24F9      |        9465 |
|     114 | 0x24FA      |        9466 |
|     115 | 0x24FB      |        9467 |
|     116 | 0x24F5      |        9461 |
|     117 | 0x24F6      |        9462 |
|     118 | 0x24FC      |        9468 |
|     119 | 0x0DC9      |        3529 |
|     120 | 0x00F4      |         244 |
|     121 | 0x24FD      |        9469 |
|     122 | 0x24FE      |        9470 |
|     123 | 0x24FF      |        9471 |
|     124 | 0x2500      |        9472 |
|     125 | 0x2501      |        9473 |
|     126 | 0x2502      |        9474 |
|     127 | 0x2503      |        9475 |
|     128 | 0x2504      |        9476 |
|     129 | 0x2505      |        9477 |
|     130 | 0x2506      |        9478 |
|     131 | 0x2507      |        9479 |
|     132 | 0x2508      |        9480 |
|     133 | 0x2509      |        9481 |
|     134 | 0x250A      |        9482 |
|     135 | 0x250B      |        9483 |
|     136 | 0x250C      |        9484 |
|     137 | 0x250D      |        9485 |
|     138 | 0xFFFF55BB  |  4294923707 |
|     139 | 0xFFFFFE75  |  4294966901 |
|     140 | 0xFFFFFE0D  |  4294966797 |
|     141 | 0x258B      |        9611 |
|     142 | 0x007C      |         124 |
|     143 | 0x258C      |        9612 |
|     144 | 0x258D      |        9613 |
|     145 | 0x258E      |        9614 |
|     146 | 0x258F      |        9615 |
|     147 | 0x2590      |        9616 |
|     148 | 0x067C      |        1660 |
|     149 | 0x0129      |         297 |
|     150 | 0x2591      |        9617 |
|     151 | 0x2593      |        9619 |
|     152 | 0x2594      |        9620 |
|     153 | 0x2595      |        9621 |
|     154 | 0x2596      |        9622 |
|     155 | 0x2597      |        9623 |
|     156 | 0x2598      |        9624 |
|     157 | 0x0DC8      |        3528 |
|     158 | 0x0014      |          20 |
|     159 | 0x2599      |        9625 |
|     160 | 0x001D      |          29 |
|     161 | 0x259A      |        9626 |
|     162 | 0x259B      |        9627 |
|     163 | 0x259C      |        9628 |
|     164 | 0x002D      |          45 |
|     165 | 0x259E      |        9630 |
|     166 | 0xFFFF561F  |  4294923807 |
|     167 | 0xFFFFFF3D  |  4294967101 |
|     168 | 0x259F      |        9631 |
|     169 | 0x25A0      |        9632 |
|     170 | 0x25A1      |        9633 |
|     171 | 0x25A2      |        9634 |
|     172 | 0x25A3      |        9635 |
|     173 | 0x25A4      |        9636 |
|     174 | 0x25A7      |        9639 |
|     175 | 0x25A8      |        9640 |
|     176 | 0x25A9      |        9641 |
|     177 | 0x25AA      |        9642 |
|     178 | 0x25AB      |        9643 |
|     179 | 0x25A5      |        9637 |
|     180 | 0x25A6      |        9638 |
|     181 | 0x25AC      |        9644 |
|     182 | 0x25AD      |        9645 |
|     183 | 0x04A3      |        1187 |
|     184 | 0x25AE      |        9646 |
|     185 | 0x25AF      |        9647 |
|     186 | 0x25B0      |        9648 |
|     187 | 0x25B1      |        9649 |
|     188 | 0x25B2      |        9650 |
|     189 | 0x25B3      |        9651 |
|     190 | 0xFFFF4D53  |  4294921555 |
|     191 | 0x0370      |         880 |
|     192 | 0xFFFF4DE9  |  4294921705 |
|     193 | 0x25B4      |        9652 |
|     194 | 0x25B5      |        9653 |
|     195 | 0x25B6      |        9654 |
|     196 | 0x25B7      |        9655 |
|     197 | 0x00F0      |         240 |
|     198 | 0x25B8      |        9656 |
|     199 | 0x25B9      |        9657 |
|     200 | 0x25BA      |        9658 |
|     201 | 0x25BB      |        9659 |
|     202 | 0x25BE      |        9662 |
|     203 | 0x25BF      |        9663 |
|     204 | 0x25C0      |        9664 |
|     205 | 0x25C1      |        9665 |
|     206 | 0x25C2      |        9666 |
|     207 | 0x25BC      |        9660 |
|     208 | 0x25BD      |        9661 |
|     209 | 0x25C3      |        9667 |
|     210 | 0x25C4      |        9668 |
|     211 | 0x25C5      |        9669 |
|     212 | 0x25C6      |        9670 |
|     213 | 0x25C7      |        9671 |
|     214 | 0x25CA      |        9674 |
|     215 | 0x25CB      |        9675 |
|     216 | 0x25CC      |        9676 |
|     217 | 0x25CD      |        9677 |
|     218 | 0x25CE      |        9678 |
|     219 | 0x25C8      |        9672 |
|     220 | 0x25C9      |        9673 |
|     221 | 0x25CF      |        9679 |
|     222 | 0xFFFF49E5  |  4294920677 |
|     223 | 0x089F      |        2207 |
|     224 | 0x25D0      |        9680 |
|     225 | 0x25D1      |        9681 |
|     226 | 0x25D2      |        9682 |
|     227 | 0x25D3      |        9683 |
|     228 | 0x25D6      |        9686 |
|     229 | 0x25D7      |        9687 |
|     230 | 0x25D8      |        9688 |
|     231 | 0x25D9      |        9689 |
|     232 | 0x25DA      |        9690 |
|     233 | 0x25D4      |        9684 |
|     234 | 0x25D5      |        9685 |
|     235 | 0x25DB      |        9691 |
|     236 | 0x0027      |          39 |
|     237 | 0x0031      |          49 |
|     238 | 0x003B      |          59 |
|     239 | 0x0045      |          69 |
|     240 | 0x25DC      |        9692 |
|     241 | 0x25DD      |        9693 |
|     242 | 0x25DE      |        9694 |
|     243 | 0x25DF      |        9695 |
|     244 | 0x25E2      |        9698 |
|     245 | 0x25E3      |        9699 |
|     246 | 0x25E4      |        9700 |
|     247 | 0x25E5      |        9701 |
|     248 | 0x25E6      |        9702 |
|     249 | 0x25E0      |        9696 |
|     250 | 0x25E1      |        9697 |
|     251 | 0x25E7      |        9703 |
|     252 | 0x25E8      |        9704 |
|     253 | 0x25E9      |        9705 |
|     254 | 0x25EA      |        9706 |
|     255 | 0x25EB      |        9707 |
|     256 | 0x25EE      |        9710 |
|     257 | 0x25EF      |        9711 |
|     258 | 0x25F0      |        9712 |
|     259 | 0x25F1      |        9713 |
|     260 | 0x25F2      |        9714 |
|     261 | 0x25EC      |        9708 |
|     262 | 0x25ED      |        9709 |
|     263 | 0x25F3      |        9715 |
|     264 | 0x25F4      |        9716 |
|     265 | 0x00C9      |         201 |
|     266 | 0x00D7      |         215 |
|     267 | 0x005F      |          95 |
|     268 | 0x0064      |         100 |
|     269 | 0x0069      |         105 |
|     270 | 0x0052      |          82 |
|     271 | 0x0057      |          87 |
|     272 | 0x005C      |          92 |
|     273 | 0x0059      |          89 |
|     274 | 0x005D      |          93 |
|     275 | 0x0061      |          97 |
|     276 | 0x0060      |          96 |
|     277 | 0x000D      |          13 |
|     278 | 0x0017      |          23 |
|     279 | 0x000E      |          14 |
|     280 | 0x0018      |          24 |
|     281 | 0x001F      |          31 |
|     282 | 0x0010      |          16 |
|     283 | 0x018D      |         397 |
|     284 | 0x0175      |         373 |
|     285 | 0x0170      |         368 |
|     286 | 0x0171      |         369 |
|     287 | 0x014C      |         332 |
|     288 | 0x01C1      |         449 |
|     289 | 0x027C      |         636 |
|     290 | 0x027B      |         635 |
|     291 | 0x027D      |         637 |
|     292 | 0x02D3      |         723 |
|     293 | 0x0321      |         801 |
|     294 | 0x0326      |         806 |
|     295 | 0x01E1      |         481 |
|     296 | 0x0343      |         835 |
|     297 | 0x0386      |         902 |
|     298 | 0x0388      |         904 |
|     299 | 0x0361      |         865 |
|     300 | 0x0387      |         903 |
|     301 | 0x038A      |         906 |
|     302 | 0x003F      |          63 |
|     303 | 0x0282      |         642 |
|     304 | 0x0283      |         643 |
|     305 | 0x0288      |         648 |
|     306 | 0x0289      |         649 |
|     307 | 0x028A      |         650 |
|     308 | 0x028B      |         651 |
|     309 | 0x029E      |         670 |
|     310 | 0x0019      |          25 |
|     311 | 0x00C6      |         198 |
|     312 | 0x00B5      |         181 |
|     313 | 0x008C      |         140 |
|     314 | 0x008E      |         142 |
|     315 | 0x007A      |         122 |
|     316 | 0x014B      |         331 |
|     317 | 0x0148      |         328 |
|     318 | 0x0166      |         358 |
|     319 | 0x017A      |         378 |
|     320 | 0x0182      |         386 |
|     321 | 0x0183      |         387 |
|     322 | 0x0192      |         402 |
|     323 | 0x01DF      |         479 |
|     324 | 0x01E9      |         489 |
|     325 | 0x001C      |          28 |
|     326 | 0x00E6      |         230 |
|     327 | 0x00EB      |         235 |
|     328 | 0x00F5      |         245 |
|     329 | 0x007F      |         127 |
|     330 | 0x00F3      |         243 |
|     331 | 0x00E0      |         224 |
|     332 | 0x00E9      |         233 |
|     333 | 0x009E      |         158 |
|     334 | 0x009D      |         157 |
|     335 | 0x00E2      |         226 |
|     336 | 0x00E1      |         225 |
|     337 | 0x014F      |         335 |
|     338 | 0x014E      |         334 |
|     339 | 0x0167      |         359 |
|     340 | 0x00E5      |         229 |
|     341 | 0x0169      |         361 |
|     342 | 0x016A      |         362 |
|     343 | 0x0168      |         360 |
|     344 | 0x0133      |         307 |
|     345 | 0x0174      |         372 |
|     346 | 0x018C      |         396 |
|     347 | 0x0194      |         404 |
|     348 | 0x0195      |         405 |
|     349 | 0x0178      |         376 |
|     350 | 0x0240      |         576 |
|     351 | 0x0197      |         407 |
|     352 | 0x0198      |         408 |
|     353 | 0x01A3      |         419 |
|     354 | 0x019E      |         414 |
|     355 | 0x0246      |         582 |
|     356 | 0x0247      |         583 |
|     357 | 0x0248      |         584 |
|     358 | 0x024B      |         587 |
|     359 | 0x024A      |         586 |
|     360 | 0x0011      |          17 |
|     361 | 0x024F      |         591 |
|     362 | 0x01C3      |         451 |
|     363 | 0x01C4      |         452 |
|     364 | 0x01EF      |         495 |
|     365 | 0x01F0      |         496 |
|     366 | 0x0095      |         149 |
|     367 | 0x0073      |         115 |
|     368 | 0x0034      |          52 |
|     369 | 0x0024      |          36 |
|     370 | 0x005E      |          94 |
|     371 | 0x0072      |         114 |
|     372 | 0x006C      |         108 |
|     373 | 0x003A      |          58 |
|     374 | 0x0096      |         150 |
|     375 | 0x0016      |          22 |
|     376 | 0x0035      |          53 |
|     377 | 0x0085      |         133 |
|     378 | 0x0081      |         129 |
|     379 | 0x0023      |          35 |
|     380 | 0x0033      |          51 |
|     381 | 0x0082      |         130 |
|     382 | 0x0039      |          57 |
|     383 | 0x0038      |          56 |
|     384 | 0x0036      |          54 |
|     385 | 0x0083      |         131 |
|     386 | 0x00A2      |         162 |
|     387 | 0x0022      |          34 |
|     388 | 0x0021      |          33 |
|     389 | 0x0065      |         101 |
|     390 | 0x0086      |         134 |
|     391 | 0x0062      |          98 |
|     392 | 0x008D      |         141 |
|     393 | 0x0037      |          55 |
|     394 | 0x008A      |         138 |
|     395 | 0x008B      |         139 |
|     396 | 0x002B      |          43 |
|     397 | 0x0067      |         103 |
|     398 | 0x0030      |          48 |
|     399 | 0x00A1      |         161 |
|     400 | 0x0066      |         102 |
|     401 | 0x0075      |         117 |
|     402 | 0x0068      |         104 |
|     403 | 0x007B      |         123 |
|     404 | 0x0077      |         119 |
|     405 | 0x01FE      |         510 |
|     406 | 0x00A4      |         164 |
|     407 | 0x00A9      |         169 |
|     408 | 0x00AC      |         172 |
|     409 | 0x00B2      |         178 |
|     410 | 0x00B0      |         176 |
|     411 | 0x013D      |         317 |
|     412 | 0x0108      |         264 |
|     413 | 0x010C      |         268 |
|     414 | 0x0100      |         256 |
|     415 | 0x00FB      |         251 |
|     416 | 0x00B8      |         184 |
|     417 | 0x011C      |         284 |
|     418 | 0x0041      |          65 |
|     419 | 0x0042      |          66 |
|     420 | 0x0047      |          71 |
|     421 | 0x0160      |         352 |
|     422 | 0x0043      |          67 |
|     423 | 0x0048      |          72 |
|     424 | 0x004B      |          75 |
|     425 | 0x004C      |          76 |
|     426 | 0x004D      |          77 |
|     427 | 0x005B      |          91 |
|     428 | 0x0058      |          88 |
|     429 | 0x0053      |          83 |
|     430 | 0x0054      |          84 |
|     431 | 0x0161      |         353 |
|     432 | 0x015C      |         348 |
|     433 | 0x016D      |         365 |
|     434 | 0x00C5      |         197 |
|     435 | 0x00C3      |         195 |
|     436 | 0x00C7      |         199 |
|     437 | 0x015E      |         350 |
|     438 | 0x00C4      |         196 |
|     439 | 0x016E      |         366 |
|     440 | 0x00D0      |         208 |
|     441 | 0x00CD      |         205 |
|     442 | 0x00CA      |         202 |
|     443 | 0x00D8      |         216 |
|     444 | 0x00D5      |         213 |
|     445 | 0x00D6      |         214 |
|     446 | 0x013B      |         315 |
|     447 | 0x0136      |         310 |
|     448 | 0x013A      |         314 |
|     449 | 0x0137      |         311 |
|     450 | 0x016F      |         367 |
|     451 | 0x0138      |         312 |
|     452 | 0x0139      |         313 |
|     453 | 0x009A      |         154 |
|     454 | 0x0091      |         145 |
|     455 | 0x009B      |         155 |
|     456 | 0x0099      |         153 |
|     457 | 0x0093      |         147 |
|     458 | 0x0092      |         146 |
|     459 | 0x0098      |         152 |
|     460 | 0x0071      |         113 |
|     461 | 0x00E8      |         232 |
|     462 | 0x00DD      |         221 |
|     463 | 0x00F8      |         248 |
|     464 | 0x00F1      |         241 |
|     465 | 0x0124      |         292 |
|     466 | 0x012E      |         302 |
|     467 | 0x0122      |         290 |
|     468 | 0x0132      |         306 |
|     469 | 0x0126      |         294 |
|     470 | 0x0155      |         341 |
|     471 | 0x0029      |          41 |
|     472 | 0x0028      |          40 |
|     473 | 0x007D      |         125 |
|     474 | 0x0079      |         121 |
|     475 | 0x0074      |         116 |
|     476 | 0x00EC      |         236 |
|     477 | 0x019C      |         412 |
|     478 | 0x0193      |         403 |
|     479 | 0x01C6      |         454 |
|     480 | 0x01C7      |         455 |

## String References

- **9716**: Your adventuring fellow's level limit is now 60.

## Events

### Event 65535

#### Metadata

| Field        | Value   |
|--------------|---------|
| Entrypoint   | 0x0000  |
| Data Size    | 1 bytes |
| Instructions | 1       |

```
      00 01 02 03 04 05 06 07  08 09 0A 0B 0C 0D 0E 0F
      -- -- -- -- -- -- -- --  -- -- -- -- -- -- -- --
0000: 00                                                .               
```

#### Opcodes

```
  0: 0x0000 [0x00] END_REQSTACK()
```

### Event 10060

#### Metadata

| Field        | Value      |
|--------------|------------|
| Entrypoint   | 0x0001     |
| Data Size    | 2640 bytes |
| Instructions | 414        |

```
      00 01 02 03 04 05 06 07  08 09 0A 0B 0C 0D 0E 0F
      -- -- -- -- -- -- -- --  -- -- -- -- -- -- -- --
0000:    42 1A A5 27 03 00 00  04 10 46 01 92 01 95 40   B..'.....F....@
0010: 0F 01 92 01 96 40 0F 01  92 01 8C 40 0F 01 92 01  .....@.....@....
0020: 98 40 0F 01 92 01 9A 40  0F 01 38 00 80 29 05 6B  .@.....@..8..).k
0030: 40 0F 01 03 27 19 95 40  0F 01 05 27 0A 8C 40 0F  @...'..@...'..@.
0040: 01 2F BA F0 FF FF 7F 01  80 02 80 03 80 04 80 4E  ./.............N
0050: 00 F0 FF FF 7F 29 0F 8F  40 0F 01 17 80 8F 40 0F  .....)..@.....@.
0060: 01 2A 19 95 40 0F 01 2A  0A 8C 40 0F 01 45 05 80  .*..@..*..@..E..
0070: F0 FF FF 7F F0 FF FF 7F  73 30 31 35 03 80 1C 06  ........s015....
0080: 80 27 23 9F 40 0F 01 05  66 07 80 8C 40 0F 01 8C  .'#.@...f...@...
0090: 40 0F 01 74 6C 6B 30 1A  F9 27 5B 08 80 95 40 0F  @..tlk0..'[...@.
00A0: 01 95 40 0F 01 74 68 6B  30 29 10 F0 FF FF 7F 8B  ..@..thk0)......
00B0: 66 07 80 8C 40 0F 01 8C  40 0F 01 74 6C 6B 32 1C  f...@...@..tlk2.
00C0: 08 80 4A 8C 40 0F 01 F0  FF FF 7F 79 00 95 40 0F  ..J.@......y..@.
00D0: 01 F0 FF FF 7F 29 05 8F  40 0F 01 3A 1A 84 3C 02  .....)..@..:..<.
00E0: 0E 00 03 80 80 F2 00 2B  8C 40 0F 01 09 80 23 01  .......+.@....#.
00F0: 77 01 02 0E 00 0A 80 80  05 01 2B 8C 40 0F 01 0B  w.........+.@...
0100: 80 23 01 77 01 02 0E 00  0C 80 80 18 01 2B 8C 40  .#.w.........+.@
0110: 0F 01 0D 80 23 01 77 01  02 0E 00 0E 80 80 2B 01  ....#.w.......+.
0120: 2B 8C 40 0F 01 0F 80 23  01 77 01 02 0E 00 10 80  +.@....#.w......
0130: 80 3E 01 2B 8C 40 0F 01  11 80 23 01 77 01 02 0E  .>.+.@....#.w...
0140: 00 12 80 80 51 01 2B 8C  40 0F 01 13 80 23 01 77  ....Q.+.@....#.w
0150: 01 02 0E 00 14 80 80 64  01 2B 8C 40 0F 01 15 80  .......d.+.@....
0160: 23 01 77 01 02 0E 00 16  80 80 77 01 2B 8C 40 0F  #.w.......w.+.@.
0170: 01 17 80 23 01 77 01 6F  76 8C 40 0F 01 1A 84 27  ...#.w.ov.@....'
0180: 52 05 80 F0 FF FF 7F F0  FF FF 7F 73 30 31 35 29  R..........s015)
0190: 0A 8C 40 0F 01 30 45 05  80 F0 FF FF 7F F0 FF FF  ..@..0E.........
01A0: 7F 73 30 31 36 03 80 1A  F9 27 2B 8C 40 0F 01 18  .s016....'+.@...
01B0: 80 23 79 00 95 40 0F 01  8C 40 0F 01 1C 08 80 2B  .#y..@...@.....+
01C0: 95 40 0F 01 19 80 23 4A  8C 40 0F 01 95 40 0F 01  .@....#J.@...@..
01D0: 1C 08 80 2B 8C 40 0F 01  1A 80 23 52 05 80 F0 FF  ...+.@....#R....
01E0: FF 7F F0 FF FF 7F 73 30  31 36 45 1B 80 F0 FF FF  ......s016E.....
01F0: 7F F0 FF FF 7F 73 30 31  39 03 80 4A 8C 40 0F 01  .....s019..J.@..
0200: F0 FF FF 7F 1C 08 80 79  00 95 40 0F 01 F0 FF FF  .......y..@.....
0210: 7F 2B 8C 40 0F 01 1C 80  23 66 07 80 8C 40 0F 01  .+.@....#f...@..
0220: 8C 40 0F 01 74 6C 6B 30  29 05 8F 40 0F 01 3A 1A  .@..tlk0)..@..:.
0230: 84 3C 02 0E 00 03 80 80  45 02 2B 8C 40 0F 01 1D  .<......E.+.@...
0240: 80 23 01 CA 02 02 0E 00  0A 80 80 58 02 2B 8C 40  .#.........X.+.@
0250: 0F 01 1E 80 23 01 CA 02  02 0E 00 0C 80 80 6B 02  ....#.........k.
0260: 2B 8C 40 0F 01 1F 80 23  01 CA 02 02 0E 00 0E 80  +.@....#........
0270: 80 7E 02 2B 8C 40 0F 01  20 80 23 01 CA 02 02 0E  .~.+.@.. .#.....
0280: 00 10 80 80 91 02 2B 8C  40 0F 01 21 80 23 01 CA  ......+.@..!.#..
0290: 02 02 0E 00 12 80 80 A4  02 2B 8C 40 0F 01 22 80  .........+.@..".
02A0: 23 01 CA 02 02 0E 00 14  80 80 B7 02 2B 8C 40 0F  #...........+.@.
02B0: 01 23 80 23 01 CA 02 02  0E 00 16 80 80 CA 02 2B  .#.#...........+
02C0: 8C 40 0F 01 24 80 23 01  CA 02 2B 8C 40 0F 01 25  .@..$.#...+.@..%
02D0: 80 23 66 07 80 8C 40 0F  01 8C 40 0F 01 74 6C 6B  .#f...@...@..tlk
02E0: 32 1C 08 80 4A 95 40 0F  01 8C 40 0F 01 2B 95 40  2...J.@...@..+.@
02F0: 0F 01 26 80 23 6F 76 95  40 0F 01 4A 8C 40 0F 01  ..&.#ov.@..J.@..
0300: 95 40 0F 01 6F 76 8C 40  0F 01 66 07 80 8C 40 0F  .@..ov.@..f...@.
0310: 01 8C 40 0F 01 74 6C 6B  30 2B 8C 40 0F 01 27 80  ..@..tlk0+.@..'.
0320: 23 66 07 80 8C 40 0F 01  8C 40 0F 01 74 6C 6B 32  #f...@...@..tlk2
0330: 52 1B 80 F0 FF FF 7F F0  FF FF 7F 73 30 31 39 5D  R..........s019]
0340: 03 80 28 80 45 05 80 F0  FF FF 7F F0 FF FF 7F 73  ..(.E..........s
0350: 30 31 37 03 80 2B 95 40  0F 01 29 80 23 7B 95 40  017..+.@..).#{.@
0360: 0F 01 1C 06 80 1A 1E 27  52 05 80 F0 FF FF 7F F0  .......'R.......
0370: FF FF 7F 73 30 31 37 77  2A 80 0A 80 45 05 80 F0  ...s017w*...E...
0380: FF FF 7F F0 FF FF 7F 73  30 31 38 03 80 1C 08 80  .......s018.....
0390: 27 19 96 40 0F 01 05 27  05 98 40 0F 01 06 27 1E  '..@...'..@...'.
03A0: 9A 40 0F 01 06 2A 19 96  40 0F 01 2A 05 98 40 0F  .@...*..@..*..@.
03B0: 01 2A 1E 9A 40 0F 01 92  01 98 40 0F 01 1A 1D 28  .*..@.....@....(
03C0: 1A 72 27 5C 00 2B 80 5C  01 2B 80 9A 1C 06 80 2B  .r'\.+.\.+.....+
03D0: 95 40 0F 01 2C 80 23 27  05 98 40 0F 01 07 27 1E  .@..,.#'..@...'.
03E0: 9A 40 0F 01 07 1C 2D 80  2B 95 40 0F 01 2E 80 23  .@....-.+.@....#
03F0: 1C 08 80 45 2F 80 F0 FF  FF 7F F0 FF FF 7F 6F 76  ...E/.........ov
0400: 6C 31 03 80 52 05 80 F0  FF FF 7F F0 FF FF 7F 73  l1..R..........s
0410: 30 31 38 45 05 80 F0 FF  FF 7F F0 FF FF 7F 73 30  018E..........s0
0420: 31 39 03 80 2A 05 98 40  0F 01 2A 1E 9A 40 0F 01  19..*..@..*..@..
0430: 4A 96 40 0F 01 98 40 0F  01 6F 76 96 40 0F 01 4A  J.@...@..ov.@..J
0440: 95 40 0F 01 9A 40 0F 01  6E 9A 40 0F 01 0A 80 99  .@...@..n.@.....
0450: 9A 40 0F 01 1C 08 80 6E  96 40 0F 01 0A 80 99 96  .@.....n.@......
0460: 40 0F 01 99 96 40 0F 01  79 00 9A 40 0F 01 96 40  @....@..y..@...@
0470: 0F 01 45 2F 80 F0 FF FF  7F F0 FF FF 7F 6F 76 6C  ..E/.........ovl
0480: 31 03 80 52 05 80 F0 FF  FF 7F F0 FF FF 7F 73 30  1..R..........s0
0490: 31 39 45 05 80 F0 FF FF  7F F0 FF FF 7F 73 30 32  19E..........s02
04A0: 37 03 80 1C 08 80 2B 95  40 0F 01 30 80 23 4A 96  7.....+.@..0.#J.
04B0: 40 0F 01 98 40 0F 01 4A  98 40 0F 01 96 40 0F 01  @...@..J.@...@..
04C0: 1C 06 80 45 2F 80 F0 FF  FF 7F F0 FF FF 7F 6F 76  ...E/.........ov
04D0: 6C 31 03 80 52 05 80 F0  FF FF 7F F0 FF FF 7F 73  l1..R..........s
04E0: 30 32 37 27 19 96 40 0F  01 09 45 05 80 F0 FF FF  027'..@...E.....
04F0: 7F F0 FF FF 7F 73 30 32  30 03 80 1C 08 80 27 05  .....s020.....'.
0500: 98 40 0F 01 09 2B 95 40  0F 01 31 80 23 2A 05 98  .@...+.@..1.#*..
0510: 40 0F 01 78 45 2F 80 F8  FF FF 7F F8 FF FF 7F 66  @..xE/.........f
0520: 64 69 30 03 80 1A 60 27  79 00 95 40 0F 01 9F 40  di0...`'y..@...@
0530: 0F 01 2B 95 40 0F 01 32  80 23 2B 95 40 0F 01 33  ..+.@..2.#+.@..3
0540: 80 23 1A 1E 27 52 05 80  F0 FF FF 7F F0 FF FF 7F  .#..'R..........
0550: 73 30 32 30 75 00 34 80  75 01 29 05 6A 40 0F 01  s020u.4.u.).j@..
0560: 06 27 1E 9A 40 0F 01 08  27 05 98 40 0F 01 08 45  .'..@...'..@...E
0570: 05 80 F0 FF FF 7F F0 FF  FF 7F 73 30 32 31 03 80  ..........s021..
0580: 2B 95 40 0F 01 35 80 23  77 36 80 14 80 27 19 96  +.@..5.#w6...'..
0590: 40 0F 01 06 27 1E 6A 40  0F 01 05 1A 1D 28 1A 72  @...'.j@.....(.r
05A0: 27 1C 37 80 27 23 6D 40  0F 01 06 2A 19 96 40 0F  '.7.'#m@...*..@.
05B0: 01 27 1E 6A 40 0F 01 06  45 2F 80 F0 FF FF 7F F0  .'.j@...E/......
05C0: FF FF 7F 6F 76 6C 31 03  80 52 05 80 F0 FF FF 7F  ...ovl1..R......
05D0: F0 FF FF 7F 73 30 32 31  79 00 98 40 0F 01 9A 40  ....s021y..@...@
05E0: 0F 01 45 05 80 F0 FF FF  7F F0 FF FF 7F 73 30 32  ..E..........s02
05F0: 32 03 80 27 19 96 40 0F  01 07 2B 95 40 0F 01 38  2..'..@...+.@..8
0600: 80 23 79 00 98 40 0F 01  96 40 0F 01 2A 19 96 40  .#y..@...@..*..@
0610: 0F 01 27 23 6D 40 0F 01  07 1A 1E 27 52 05 80 F0  ..'#m@.....'R...
0620: FF FF 7F F0 FF FF 7F 73  30 32 32 45 05 80 F0 FF  .......s022E....
0630: FF 7F F0 FF FF 7F 73 30  32 33 03 80 1A 72 27 4A  ......s023...r'J
0640: 96 40 0F 01 9A 40 0F 01  6F 76 96 40 0F 01 6E 96  .@...@..ov.@..n.
0650: 40 0F 01 39 80 99 96 40  0F 01 2B 96 40 0F 01 3A  @..9...@..+.@..:
0660: 80 23 52 05 80 F0 FF FF  7F F0 FF FF 7F 73 30 32  .#R..........s02
0670: 33 45 05 80 F0 FF FF 7F  F0 FF FF 7F 73 30 32 34  3E..........s024
0680: 03 80 27 19 96 40 0F 01  08 2A 19 96 40 0F 01 1C  ..'..@...*..@...
0690: 08 80 27 19 96 40 0F 01  0A 2B 96 40 0F 01 3B 80  ..'..@...+.@..;.
06A0: 23 2A 19 96 40 0F 01 1C  08 80 79 00 98 40 0F 01  #*..@.....y..@..
06B0: 9A 40 0F 01 7C 00 98 40  0F 01 2B 98 40 0F 01 3C  .@..|..@..+.@..<
06C0: 80 23 1C 08 80 27 19 96  40 0F 01 0C 2B 96 40 0F  .#...'..@...+.@.
06D0: 01 3D 80 23 1C 08 80 4B  98 40 0F 01 3E 80 6F 76  .=.#...K.@..>.ov
06E0: 98 40 0F 01 1C 3F 80 52  05 80 F0 FF FF 7F F0 FF  .@...?.R........
06F0: FF 7F 73 30 32 34 45 05  80 F0 FF FF 7F F0 FF FF  ..s024E.........
0700: 7F 73 30 32 38 03 80 1C  08 80 6E 96 40 0F 01 14  .s028.....n.@...
0710: 80 99 96 40 0F 01 2B 96  40 0F 01 40 80 23 99 96  ...@..+.@..@.#..
0720: 40 0F 01 1C 06 80 27 19  96 40 0F 01 0B 2B 96 40  @.....'..@...+.@
0730: 0F 01 41 80 23 1C 08 80  52 05 80 F0 FF FF 7F F0  ..A.#...R.......
0740: FF FF 7F 73 30 32 38 45  05 80 F0 FF FF 7F F0 FF  ...s028E........
0750: FF 7F 73 30 33 34 03 80  1C 06 80 79 00 96 40 0F  ..s034.....y..@.
0760: 01 9A 40 0F 01 1C 28 80  6E 96 40 0F 01 14 80 99  ..@...(.n.@.....
0770: 96 40 0F 01 2B 96 40 0F  01 42 80 23 7C 01 98 40  .@..+.@..B.#|..@
0780: 0F 01 1A 3F 27 52 05 80  F0 FF FF 7F F0 FF FF 7F  ...?'R..........
0790: 73 30 33 34 45 05 80 F0  FF FF 7F F0 FF FF 7F 73  s034E..........s
07A0: 30 32 36 03 80 BA F0 FF  FF 7F 43 80 44 80 45 80  026.......C.D.E.
07B0: 03 80 4A F0 FF FF 7F 95  40 0F 01 1C 46 80 4E 01  ..J.....@...F.N.
07C0: F0 FF FF 7F 4E 01 8C 40  0F 01 79 00 95 40 0F 01  ....N..@..y..@..
07D0: 9F 40 0F 01 1E 95 40 0F  01 78 1C 06 80 45 2F 80  .@....@..x...E/.
07E0: F8 FF FF 7F F8 FF FF 7F  66 64 69 30 03 80 1A 72  ........fdi0...r
07F0: 27 27 0A 8C 40 0F 01 31  79 00 F0 FF FF 7F 95 40  ''..@..1y......@
0800: 0F 01 79 00 8C 40 0F 01  95 40 0F 01 2B 95 40 0F  ..y..@...@..+.@.
0810: 01 47 80 23 2B 95 40 0F  01 48 80 23 45 2F 80 F0  .G.#+.@..H.#E/..
0820: FF FF 7F F0 FF FF 7F 6F  76 6C 31 03 80 52 05 80  .......ovl1..R..
0830: F0 FF FF 7F F0 FF FF 7F  73 30 32 36 4E 00 F0 FF  ........s026N...
0840: FF 7F 4E 00 8C 40 0F 01  45 05 80 F0 FF FF 7F F0  ..N..@..E.......
0850: FF FF 7F 73 30 32 39 03  80 7B 95 40 0F 01 2B 95  ...s029..{.@..+.
0860: 40 0F 01 49 80 23 27 19  95 40 0F 01 06 1C 4A 80  @..I.#'..@....J.
0870: 52 05 80 F0 FF FF 7F F0  FF FF 7F 73 30 32 39 02  R..........s029.
0880: 87 7F 12 80 80 9B 08 45  4B 80 F0 FF FF 7F F0 FF  .......EK.......
0890: FF 7F 73 30 31 30 03 80  01 C8 08 02 87 7F 14 80  ..s010..........
08A0: 80 B7 08 45 4B 80 F0 FF  FF 7F F0 FF FF 7F 73 30  ...EK.........s0
08B0: 31 30 03 80 01 C8 08 45  05 80 F0 FF FF 7F F0 FF  10.....E........
08C0: FF 7F 73 30 33 30 03 80  1C 06 80 2B 8C 40 0F 01  ..s030.....+.@..
08D0: 4C 80 23 79 00 F0 FF FF  7F 8C 40 0F 01 5D 03 80  L.#y......@..]..
08E0: 37 80 1C 08 80 4A 8C 40  0F 01 F0 FF FF 7F 29 05  7....J.@......).
08F0: 8F 40 0F 01 3A 1A 84 3C  02 0E 00 03 80 80 0B 09  .@..:..<........
0900: 2B 8C 40 0F 01 4D 80 23  01 90 09 02 0E 00 0A 80  +.@..M.#........
0910: 80 1E 09 2B 8C 40 0F 01  4E 80 23 01 90 09 02 0E  ...+.@..N.#.....
0920: 00 0C 80 80 31 09 2B 8C  40 0F 01 4F 80 23 01 90  ....1.+.@..O.#..
0930: 09 02 0E 00 0E 80 80 44  09 2B 8C 40 0F 01 50 80  .......D.+.@..P.
0940: 23 01 90 09 02 0E 00 10  80 80 57 09 2B 8C 40 0F  #.........W.+.@.
0950: 01 51 80 23 01 90 09 02  0E 00 12 80 80 6A 09 2B  .Q.#.........j.+
0960: 8C 40 0F 01 52 80 23 01  90 09 02 0E 00 14 80 80  .@..R.#.........
0970: 7D 09 2B 8C 40 0F 01 53  80 23 01 90 09 02 0E 00  }.+.@..S.#......
0980: 16 80 80 90 09 2B 8C 40  0F 01 54 80 23 01 90 09  .....+.@..T.#...
0990: 6E F0 FF FF 7F 16 80 99  F0 FF FF 7F 1C 06 80 79  n..............y
09A0: 00 F0 FF FF 7F 9F 40 0F  01 02 02 00 0E 80 03 CD  ......@.........
09B0: 09 45 55 80 F0 FF FF 7F  F0 FF FF 7F 6B 69 72 61  .EU.........kira
09C0: 03 80 1C 56 80 07 02 00  0A 80 01 A9 09 1A 3F 27  ...V..........?'
09D0: 5D 03 80 37 80 02 87 7F  12 80 80 EF 09 52 4B 80  ]..7.........RK.
09E0: F0 FF FF 7F F0 FF FF 7F  73 30 31 30 01 18 0A 02  ........s010....
09F0: 87 7F 14 80 80 09 0A 52  4B 80 F0 FF FF 7F F0 FF  .......RK.......
0A00: FF 7F 73 30 31 30 01 18  0A 52 05 80 F0 FF FF 7F  ..s010...R......
0A10: F0 FF FF 7F 73 30 33 30  1C 3F 80 AB 11 03 80 1C  ....s030.?......
0A20: 0A 80 1A 84 27 1A 60 27  02 00 00 03 80 00 33 0A  ....'.`'......3.
0A30: 30 21 00 5C 00 57 80 5C  01 57 80 9A 46 00 45 2F  0!.\.W.\.W..F.E/
0A40: 80 F0 FF FF 7F F0 FF FF  7F 66 64 69 32 03 80 21  .........fdi2..!
0A50: 00                                                .               
```

#### Opcodes

```
  0: 0x0001 [0x42] SET_CLI_EVENT_CANCEL_DATA()
  1: 0x0002 [0x1A] CALL_SUBROUTINE(address=0x27A5)
  2: 0x0005 [0x03] ExtData[1]->WorkLocal[0] = Work_Zone[4]
  3: 0x000A [0x46] CAMERA_CONTROL: Disable user control
  4: 0x000C [0x92] Pheauclemand (ID: 17776789/0x010F4095)->Render.Flags3 ^= 0x01
  5: 0x0012 [0x92] Pheauclemand (ID: 17776790/0x010F4096)->Render.Flags3 ^= 0x01
  6: 0x0018 [0x92] Luto Mewrilah (ID: 17776780/0x010F408C)->Render.Flags3 ^= 0x01
  7: 0x001E [0x92] ??? (ID: 17776792/0x010F4098)->Render.Flags3 ^= 0x01
  8: 0x0024 [0x92] Pelagia (ID: 17776794/0x010F409A)->Render.Flags3 ^= 0x01
  9: 0x002A [0x38] SET_CLIENT_EVENT_MODE(mode=27*)
 10: 0x002D [0x29] REQ_SET_WAIT(priority=0x05, entity_id=Door:Goddess Temple (ID: 17776747/0x010F406B), tag_num=0x03)
 11: 0x0034 [0x27] REQ_SET(priority=0x19, entity_id=Pheauclemand (ID: 17776789/0x010F4095), tag_num=0x05)
 12: 0x003B [0x27] REQ_SET(priority=0x0A, entity_id=Luto Mewrilah (ID: 17776780/0x010F408C), tag_num=0x2F)
 13: 0x0042 [0xBA] SET_ENTITY_POSITION(entity_id=LocalPlayer, pos_x=-48.117*, pos_z=40.770*, pos_y=0.000*, direction=153.6°*)
 14: 0x004F [0x4E] SET_ENTITY_HIDE_FLAG: Show LocalPlayer
 15: 0x0055 [0x29] REQ_SET_WAIT(priority=0x0F, entity_id=Unnamed NPC (ID: 17776783/0x010F408F), tag_num=0x17)
 16: 0x005C [0x80] LOAD_WAIT(entity=Unnamed NPC (ID: 17776783/0x010F408F))
 17: 0x0061 [0x2A] GET_REQ_LEVEL(level=25, entity_id=Pheauclemand (ID: 17776789/0x010F4095))
 18: 0x0067 [0x2A] GET_REQ_LEVEL(level=10, entity_id=Luto Mewrilah (ID: 17776780/0x010F408C))
 19: 0x006D [0x45] LOAD_SCHEDULED_TASK: Load scheduler "s015" with entities [LocalPlayer, LocalPlayer], work=[37*, 0*]
 20: 0x007E [0x1C] WAIT(60* ticks)
 21: 0x0081 [0x27] REQ_SET(priority=0x23, entity_id=Unnamed NPC (ID: 17776799/0x010F409F), tag_num=0x05)
 22: 0x0088 [0x66] LOAD_EXT_SCHEDULER_MAIN: Load scheduler "tlk0" with entities [Luto Mewrilah (ID: 17776780/0x010F408C), Luto Mewrilah (ID: 17776780/0x010F408C)], work=50*
 23: 0x0097 [0x1A] CALL_SUBROUTINE(address=0x27F9)
 24: 0x009A [0x5B] LOAD_EXT_SCHEDULER: Load scheduler "thk0" with entities [Pheauclemand (ID: 17776789/0x010F4095), Pheauclemand (ID: 17776789/0x010F4095)], work=30*
 25: 0x00A9 [0x29] REQ_SET_WAIT(priority=0x10, entity_id=LocalPlayer, tag_num=0x8B)
 26: 0x00B0 [0x66] LOAD_EXT_SCHEDULER_MAIN: Load scheduler "tlk2" with entities [Luto Mewrilah (ID: 17776780/0x010F408C), Luto Mewrilah (ID: 17776780/0x010F408C)], work=50*
 27: 0x00BF [0x1C] WAIT(30* ticks)
 28: 0x00C2 [0x4A] Luto Mewrilah (ID: 17776780/0x010F408C) looks at LocalPlayer
 29: 0x00CB [0x79] Pheauclemand (ID: 17776789/0x010F4095) looks at LocalPlayer (Basic look)
 30: 0x00D5 [0x29] REQ_SET_WAIT(priority=0x05, entity_id=Unnamed NPC (ID: 17776783/0x010F408F), tag_num=0x3A)
 31: 0x00DC [0x1A] CALL_SUBROUTINE(address=0x3C84)
 32: 0x00DF [0x02] IF !(ExtData[1]->WorkLocal[14] == 0*) GOTO 0x00F2
 33: 0x00E7 [0x2B] Luto Mewrilah (ID: 17776780/0x010F408C) [9393*]:
    → "Oh, <Player>! How was [Feliz/Ferdinand/Gunnar/Massimo/Oldrich/Siegward/Theobald/Zenji]?"
 34: 0x00EE [0x23] WAIT_FOR_DIALOG_INTERACTION
 35: 0x00EF [0x01] GOTO 0x0177
 36: 0x00F2 [0x02] IF !(ExtData[1]->WorkLocal[14] == 1*) GOTO 0x0105
 37: 0x00FA [0x2B] Luto Mewrilah (ID: 17776780/0x010F408C) [9394*]:
    → "Oh, <Player>! How was [Amerita/Beatrice/Henrietta/Jesimae/Karyn/Nanako/Sharlene/Sieghilde]?"
 38: 0x0101 [0x23] WAIT_FOR_DIALOG_INTERACTION
 39: 0x0102 [0x01] GOTO 0x0177
 40: 0x0105 [0x02] IF !(ExtData[1]->WorkLocal[14] == 2*) GOTO 0x0118
 41: 0x010D [0x2B] Luto Mewrilah (ID: 17776780/0x010F408C) [9395*]:
    → "Oh, <Player>! How was [Chanandit/Deulmaeux/Demresinaux/Ephealgaux/Gauldeval/Grauffemart/Migaifongut/Romidiant]?"
 42: 0x0114 [0x23] WAIT_FOR_DIALOG_INTERACTION
 43: 0x0115 [0x01] GOTO 0x0177
 44: 0x0118 [0x02] IF !(ExtData[1]->WorkLocal[14] == 3*) GOTO 0x012B
 45: 0x0120 [0x2B] Luto Mewrilah (ID: 17776780/0x010F408C) [9396*]:
    → "Oh, <Player>! How was [Armittie/Cadepure/Clearite/Epilleve/Liabelle/Nauthima/Radille/Vimechue]?"
 46: 0x0127 [0x23] WAIT_FOR_DIALOG_INTERACTION
 47: 0x0128 [0x01] GOTO 0x0177
 48: 0x012B [0x02] IF !(ExtData[1]->WorkLocal[14] == 4*) GOTO 0x013E
 49: 0x0133 [0x2B] Luto Mewrilah (ID: 17776780/0x010F408C) [9397*]:
    → "Oh, <Player>! How was [Balu-Falu/Burg-Ladarg/Ehgo-Ryuhgo/Kolui-Pelui/Nokum-Akkum/Savul-Kivul/Vinja-Kanja/Yarga-Umiga]?"
 50: 0x013A [0x23] WAIT_FOR_DIALOG_INTERACTION
 51: 0x013B [0x01] GOTO 0x0177
 52: 0x013E [0x02] IF !(ExtData[1]->WorkLocal[14] == 5*) GOTO 0x0151
 53: 0x0146 [0x2B] Luto Mewrilah (ID: 17776780/0x010F408C) [9398*]:
    → "Oh, <Player>! How was [Cupapa/Jajuju/Kalokoko/Mahoyaya/Pakurara/Ripokeke/Yawawa/Yufafa]?"
 54: 0x014D [0x23] WAIT_FOR_DIALOG_INTERACTION
 55: 0x014E [0x01] GOTO 0x0177
 56: 0x0151 [0x02] IF !(ExtData[1]->WorkLocal[14] == 6*) GOTO 0x0164
 57: 0x0159 [0x2B] Luto Mewrilah (ID: 17776780/0x010F408C) [9399*]:
    → "Oh, <Player>! How was [Fhig Lahrv/Khuma Tagyawhan/Pimy Kettihl/Raka Maimhov/Sahyu Banjyao/Sufhi Uchnouma/Tsuim Nhomango/Yoli Kohlpaka]?"
 58: 0x0160 [0x23] WAIT_FOR_DIALOG_INTERACTION
 59: 0x0161 [0x01] GOTO 0x0177
 60: 0x0164 [0x02] IF !(ExtData[1]->WorkLocal[14] == 7*) GOTO 0x0177
 61: 0x016C [0x2B] Luto Mewrilah (ID: 17776780/0x010F408C) [9400*]:
    → "Oh, <Player>! How was [Durib/Dzapiwa/Jugowa/Mugido/Voldai/Wagwei/Zayag/Zoldof]?"
 62: 0x0173 [0x23] WAIT_FOR_DIALOG_INTERACTION
 63: 0x0174 [0x01] GOTO 0x0177

SUBROUTINE_0177:
 64: 0x0177 [0x6F] WAIT_FRAME_DELAY: Yield until WaitTime reaches zero
 65: 0x0178 [0x76] CHECK_ENTITY_RENDER_FLAGS: Wait until Luto Mewrilah (ID: 17776780/0x010F408C) Render.Flags0 and Render.Flags3 conditions are met
 66: 0x017D [0x1A] CALL_SUBROUTINE(address=0x2784)
 67: 0x0180 [0x52] END_LOAD_SCHEDULER: End scheduler "s015" with entities [LocalPlayer, LocalPlayer], work=37*
 68: 0x018F [0x29] REQ_SET_WAIT(priority=0x0A, entity_id=Luto Mewrilah (ID: 17776780/0x010F408C), tag_num=0x30)
 69: 0x0196 [0x45] LOAD_SCHEDULED_TASK: Load scheduler "s016" with entities [LocalPlayer, LocalPlayer], work=[37*, 0*]
 70: 0x01A7 [0x1A] CALL_SUBROUTINE(address=0x27F9)
 71: 0x01AA [0x2B] Luto Mewrilah (ID: 17776780/0x010F408C) [9401*]:
    → "So the injury wasn't so bad after all? That's good."
 72: 0x01B1 [0x23] WAIT_FOR_DIALOG_INTERACTION
 73: 0x01B2 [0x79] Pheauclemand (ID: 17776789/0x010F4095) looks at Luto Mewrilah (ID: 17776780/0x010F408C) (Basic look)
 74: 0x01BC [0x1C] WAIT(30* ticks)
 75: 0x01BF [0x2B] Pheauclemand (ID: 17776789/0x010F4095) [9402*]:
    → "Is something the matter?"
 76: 0x01C6 [0x23] WAIT_FOR_DIALOG_INTERACTION
 77: 0x01C7 [0x4A] Luto Mewrilah (ID: 17776780/0x010F408C) looks at Pheauclemand (ID: 17776789/0x010F4095)
 78: 0x01D0 [0x1C] WAIT(30* ticks)
 79: 0x01D3 [0x2B] Luto Mewrilah (ID: 17776780/0x010F408C) [9403*]:
    → "Someone I know is in the hospital..."
 80: 0x01DA [0x23] WAIT_FOR_DIALOG_INTERACTION
 81: 0x01DB [0x52] END_LOAD_SCHEDULER: End scheduler "s016" with entities [LocalPlayer, LocalPlayer], work=37*
 82: 0x01EA [0x45] LOAD_SCHEDULED_TASK: Load scheduler "s019" with entities [LocalPlayer, LocalPlayer], work=[194*, 0*]
 83: 0x01FB [0x4A] Luto Mewrilah (ID: 17776780/0x010F408C) looks at LocalPlayer
 84: 0x0204 [0x1C] WAIT(30* ticks)
 85: 0x0207 [0x79] Pheauclemand (ID: 17776789/0x010F4095) looks at LocalPlayer (Basic look)
 86: 0x0211 [0x2B] Luto Mewrilah (ID: 17776780/0x010F408C) [9404*]:
    → "Oh yes, I suppose I should introduce Pheauclemand herrre. I just met him recently, but he is the one who told me about a fearrrsome monster living in Qufim."
 87: 0x0218 [0x23] WAIT_FOR_DIALOG_INTERACTION
 88: 0x0219 [0x66] LOAD_EXT_SCHEDULER_MAIN: Load scheduler "tlk0" with entities [Luto Mewrilah (ID: 17776780/0x010F408C), Luto Mewrilah (ID: 17776780/0x010F408C)], work=50*
 89: 0x0228 [0x29] REQ_SET_WAIT(priority=0x05, entity_id=Unnamed NPC (ID: 17776783/0x010F408F), tag_num=0x3A)
 90: 0x022F [0x1A] CALL_SUBROUTINE(address=0x3C84)
 91: 0x0232 [0x02] IF !(ExtData[1]->WorkLocal[14] == 0*) GOTO 0x0245
 92: 0x023A [0x2B] Luto Mewrilah (ID: 17776780/0x010F408C) [9405*]:
    → "I passed the information on to [Feliz/Ferdinand/Gunnar/Massimo/Oldrich/Siegward/Theobald/Zenji]..."
 93: 0x0241 [0x23] WAIT_FOR_DIALOG_INTERACTION
 94: 0x0242 [0x01] GOTO 0x02CA
 95: 0x0245 [0x02] IF !(ExtData[1]->WorkLocal[14] == 1*) GOTO 0x0258
 96: 0x024D [0x2B] Luto Mewrilah (ID: 17776780/0x010F408C) [9406*]:
    → "I passed the information on to [Amerita/Beatrice/Henrietta/Jesimae/Karyn/Nanako/Sharlene/Sieghilde]..."
 97: 0x0254 [0x23] WAIT_FOR_DIALOG_INTERACTION
 98: 0x0255 [0x01] GOTO 0x02CA
 99: 0x0258 [0x02] IF !(ExtData[1]->WorkLocal[14] == 2*) GOTO 0x026B
100: 0x0260 [0x2B] Luto Mewrilah (ID: 17776780/0x010F408C) [9407*]:
    → "I passed the information on to [Chanandit/Deulmaeux/Demresinaux/Ephealgaux/Gauldeval/Grauffemart/Migaifongut/Romidiant]..."
101: 0x0267 [0x23] WAIT_FOR_DIALOG_INTERACTION
102: 0x0268 [0x01] GOTO 0x02CA
103: 0x026B [0x02] IF !(ExtData[1]->WorkLocal[14] == 3*) GOTO 0x027E
104: 0x0273 [0x2B] Luto Mewrilah (ID: 17776780/0x010F408C) [9408*]:
    → "I passed the information on to [Armittie/Cadepure/Clearite/Epilleve/Liabelle/Nauthima/Radille/Vimechue]..."
105: 0x027A [0x23] WAIT_FOR_DIALOG_INTERACTION
106: 0x027B [0x01] GOTO 0x02CA
107: 0x027E [0x02] IF !(ExtData[1]->WorkLocal[14] == 4*) GOTO 0x0291
108: 0x0286 [0x2B] Luto Mewrilah (ID: 17776780/0x010F408C) [9409*]:
    → "I passed the information on to [Balu-Falu/Burg-Ladarg/Ehgo-Ryuhgo/Kolui-Pelui/Nokum-Akkum/Savul-Kivul/Vinja-Kanja/Yarga-Umiga]..."
109: 0x028D [0x23] WAIT_FOR_DIALOG_INTERACTION
110: 0x028E [0x01] GOTO 0x02CA
111: 0x0291 [0x02] IF !(ExtData[1]->WorkLocal[14] == 5*) GOTO 0x02A4
112: 0x0299 [0x2B] Luto Mewrilah (ID: 17776780/0x010F408C) [9410*]:
    → "I passed the information on to [Cupapa/Jajuju/Kalokoko/Mahoyaya/Pakurara/Ripokeke/Yawawa/Yufafa]..."
113: 0x02A0 [0x23] WAIT_FOR_DIALOG_INTERACTION
114: 0x02A1 [0x01] GOTO 0x02CA
115: 0x02A4 [0x02] IF !(ExtData[1]->WorkLocal[14] == 6*) GOTO 0x02B7
116: 0x02AC [0x2B] Luto Mewrilah (ID: 17776780/0x010F408C) [9411*]:
    → "I passed the information on to [Fhig Lahrv/Khuma Tagyawhan/Pimy Kettihl/Raka Maimhov/Sahyu Banjyao/Sufhi Uchnouma/Tsuim Nhomango/Yoli Kohlpaka]..."
117: 0x02B3 [0x23] WAIT_FOR_DIALOG_INTERACTION
118: 0x02B4 [0x01] GOTO 0x02CA
119: 0x02B7 [0x02] IF !(ExtData[1]->WorkLocal[14] == 7*) GOTO 0x02CA
120: 0x02BF [0x2B] Luto Mewrilah (ID: 17776780/0x010F408C) [9412*]:
    → "I passed the information on to [Durib/Dzapiwa/Jugowa/Mugido/Voldai/Wagwei/Zayag/Zoldof]..."
121: 0x02C6 [0x23] WAIT_FOR_DIALOG_INTERACTION
122: 0x02C7 [0x01] GOTO 0x02CA

SUBROUTINE_02CA:
123: 0x02CA [0x2B] Luto Mewrilah (ID: 17776780/0x010F408C) [9413*]:
    → "I suggested that you two defeat the monster together, but I couldn't have imagined that your frrriend would attempt such a battle alone."
124: 0x02D1 [0x23] WAIT_FOR_DIALOG_INTERACTION
125: 0x02D2 [0x66] LOAD_EXT_SCHEDULER_MAIN: Load scheduler "tlk2" with entities [Luto Mewrilah (ID: 17776780/0x010F408C), Luto Mewrilah (ID: 17776780/0x010F408C)], work=50*
126: 0x02E1 [0x1C] WAIT(30* ticks)
127: 0x02E4 [0x4A] Pheauclemand (ID: 17776789/0x010F4095) looks at Luto Mewrilah (ID: 17776780/0x010F408C)
128: 0x02ED [0x2B] Pheauclemand (ID: 17776789/0x010F4095) [9414*]:
    → "I am terribly sorry..."
129: 0x02F4 [0x23] WAIT_FOR_DIALOG_INTERACTION
130: 0x02F5 [0x6F] WAIT_FRAME_DELAY: Yield until WaitTime reaches zero
131: 0x02F6 [0x76] CHECK_ENTITY_RENDER_FLAGS: Wait until Pheauclemand (ID: 17776789/0x010F4095) Render.Flags0 and Render.Flags3 conditions are met
132: 0x02FB [0x4A] Luto Mewrilah (ID: 17776780/0x010F408C) looks at Pheauclemand (ID: 17776789/0x010F4095)
133: 0x0304 [0x6F] WAIT_FRAME_DELAY: Yield until WaitTime reaches zero
134: 0x0305 [0x76] CHECK_ENTITY_RENDER_FLAGS: Wait until Luto Mewrilah (ID: 17776780/0x010F408C) Render.Flags0 and Render.Flags3 conditions are met
135: 0x030A [0x66] LOAD_EXT_SCHEDULER_MAIN: Load scheduler "tlk0" with entities [Luto Mewrilah (ID: 17776780/0x010F408C), Luto Mewrilah (ID: 17776780/0x010F408C)], work=50*
136: 0x0319 [0x2B] Luto Mewrilah (ID: 17776780/0x010F408C) [9415*]:
    → "It wasn't yourrr fault, Pheauclemand."
137: 0x0320 [0x23] WAIT_FOR_DIALOG_INTERACTION
138: 0x0321 [0x66] LOAD_EXT_SCHEDULER_MAIN: Load scheduler "tlk2" with entities [Luto Mewrilah (ID: 17776780/0x010F408C), Luto Mewrilah (ID: 17776780/0x010F408C)], work=50*
139: 0x0330 [0x52] END_LOAD_SCHEDULER: End scheduler "s019" with entities [LocalPlayer, LocalPlayer], work=194*
140: 0x033F [0x5D] SET_MUSIC_VOLUME(volume=0*, fade_time=120*)
141: 0x0344 [0x45] LOAD_SCHEDULED_TASK: Load scheduler "s017" with entities [LocalPlayer, LocalPlayer], work=[37*, 0*]
142: 0x0355 [0x2B] Pheauclemand (ID: 17776789/0x010F4095) [9416*]:
    → "No, I should never have mentioned it. That monster only brings misfortune to adventurers."
143: 0x035C [0x23] WAIT_FOR_DIALOG_INTERACTION
144: 0x035D [0x7B] Pheauclemand (ID: 17776789/0x010F4095) stops talking
145: 0x0362 [0x1C] WAIT(60* ticks)
146: 0x0365 [0x1A] CALL_SUBROUTINE(address=0x271E)
147: 0x0368 [0x52] END_LOAD_SCHEDULER: End scheduler "s017" with entities [LocalPlayer, LocalPlayer], work=37*
148: 0x0377 [0x77] SET_EVENT_TIME_WEATHER(hour=12*, weather=1*)
149: 0x037C [0x45] LOAD_SCHEDULED_TASK: Load scheduler "s018" with entities [LocalPlayer, LocalPlayer], work=[37*, 0*]
150: 0x038D [0x1C] WAIT(30* ticks)
151: 0x0390 [0x27] REQ_SET(priority=0x19, entity_id=Pheauclemand (ID: 17776790/0x010F4096), tag_num=0x05)
152: 0x0397 [0x27] REQ_SET(priority=0x05, entity_id=??? (ID: 17776792/0x010F4098), tag_num=0x06)
153: 0x039E [0x27] REQ_SET(priority=0x1E, entity_id=Pelagia (ID: 17776794/0x010F409A), tag_num=0x06)
154: 0x03A5 [0x2A] GET_REQ_LEVEL(level=25, entity_id=Pheauclemand (ID: 17776790/0x010F4096))
155: 0x03AB [0x2A] GET_REQ_LEVEL(level=5, entity_id=??? (ID: 17776792/0x010F4098))
156: 0x03B1 [0x2A] GET_REQ_LEVEL(level=30, entity_id=Pelagia (ID: 17776794/0x010F409A))
157: 0x03B7 [0x92] ??? (ID: 17776792/0x010F4098)->Render.Flags3 ^= 0x01
158: 0x03BD [0x1A] CALL_SUBROUTINE(address=0x281D)
159: 0x03C0 [0x1A] CALL_SUBROUTINE(address=0x2772)
160: 0x03C3 [0x5C] MUSIC_CONTROL: Set Idle (Day) music to song 159*
161: 0x03C7 [0x5C] MUSIC_CONTROL: Set Idle (Night) music to song 159*
162: 0x03CB [0x9A] WAIT_MUSIC_SERVER()
163: 0x03CC [0x1C] WAIT(60* ticks)
164: 0x03CF [0x2B] Pheauclemand (ID: 17776789/0x010F4095) [9417*]:
    → "Long ago, I was an adventurer like you. I also had a close friend..."
165: 0x03D6 [0x23] WAIT_FOR_DIALOG_INTERACTION
166: 0x03D7 [0x27] REQ_SET(priority=0x05, entity_id=??? (ID: 17776792/0x010F4098), tag_num=0x07)
167: 0x03DE [0x27] REQ_SET(priority=0x1E, entity_id=Pelagia (ID: 17776794/0x010F409A), tag_num=0x07)
168: 0x03E5 [0x1C] WAIT(270* ticks)
169: 0x03E8 [0x2B] Pheauclemand (ID: 17776789/0x010F4095) [9418*]:
    → "One day, he introduced his fianc<Player>ie to me."
170: 0x03EF [0x23] WAIT_FOR_DIALOG_INTERACTION
171: 0x03F0 [0x1C] WAIT(30* ticks)
172: 0x03F3 [0x45] LOAD_SCHEDULED_TASK: Load scheduler "ovl1" with entities [LocalPlayer, LocalPlayer], work=[200*, 0*]
173: 0x0404 [0x52] END_LOAD_SCHEDULER: End scheduler "s018" with entities [LocalPlayer, LocalPlayer], work=37*
174: 0x0413 [0x45] LOAD_SCHEDULED_TASK: Load scheduler "s019" with entities [LocalPlayer, LocalPlayer], work=[37*, 0*]
175: 0x0424 [0x2A] GET_REQ_LEVEL(level=5, entity_id=??? (ID: 17776792/0x010F4098))
176: 0x042A [0x2A] GET_REQ_LEVEL(level=30, entity_id=Pelagia (ID: 17776794/0x010F409A))
177: 0x0430 [0x4A] Pheauclemand (ID: 17776790/0x010F4096) looks at ??? (ID: 17776792/0x010F4098)
178: 0x0439 [0x6F] WAIT_FRAME_DELAY: Yield until WaitTime reaches zero
179: 0x043A [0x76] CHECK_ENTITY_RENDER_FLAGS: Wait until Pheauclemand (ID: 17776790/0x010F4096) Render.Flags0 and Render.Flags3 conditions are met
180: 0x043F [0x4A] Pheauclemand (ID: 17776789/0x010F4095) looks at Pelagia (ID: 17776794/0x010F409A)
181: 0x0448 [0x6E] Pelagia (ID: 17776794/0x010F409A) uses emote 1*
182: 0x044F [0x99] Wait for Pelagia (ID: 17776794/0x010F409A) animation to complete
183: 0x0454 [0x1C] WAIT(30* ticks)
184: 0x0457 [0x6E] Pheauclemand (ID: 17776790/0x010F4096) uses emote 1*
185: 0x045E [0x99] Wait for Pheauclemand (ID: 17776790/0x010F4096) animation to complete
186: 0x0463 [0x99] Wait for Pheauclemand (ID: 17776790/0x010F4096) animation to complete
187: 0x0468 [0x79] Pelagia (ID: 17776794/0x010F409A) looks at Pheauclemand (ID: 17776790/0x010F4096) (Basic look)
188: 0x0472 [0x45] LOAD_SCHEDULED_TASK: Load scheduler "ovl1" with entities [LocalPlayer, LocalPlayer], work=[200*, 0*]
189: 0x0483 [0x52] END_LOAD_SCHEDULER: End scheduler "s019" with entities [LocalPlayer, LocalPlayer], work=37*
190: 0x0492 [0x45] LOAD_SCHEDULED_TASK: Load scheduler "s027" with entities [LocalPlayer, LocalPlayer], work=[37*, 0*]
191: 0x04A3 [0x1C] WAIT(30* ticks)
192: 0x04A6 [0x2B] Pheauclemand (ID: 17776789/0x010F4095) [9419*]:
    → "Her name was Pelagia, and she was very beautiful."
193: 0x04AD [0x23] WAIT_FOR_DIALOG_INTERACTION
194: 0x04AE [0x4A] Pheauclemand (ID: 17776790/0x010F4096) looks at ??? (ID: 17776792/0x010F4098)
195: 0x04B7 [0x4A] ??? (ID: 17776792/0x010F4098) looks at Pheauclemand (ID: 17776790/0x010F4096)
196: 0x04C0 [0x1C] WAIT(60* ticks)
197: 0x04C3 [0x45] LOAD_SCHEDULED_TASK: Load scheduler "ovl1" with entities [LocalPlayer, LocalPlayer], work=[200*, 0*]
198: 0x04D4 [0x52] END_LOAD_SCHEDULER: End scheduler "s027" with entities [LocalPlayer, LocalPlayer], work=37*
199: 0x04E3 [0x27] REQ_SET(priority=0x19, entity_id=Pheauclemand (ID: 17776790/0x010F4096), tag_num=0x09)
200: 0x04EA [0x45] LOAD_SCHEDULED_TASK: Load scheduler "s020" with entities [LocalPlayer, LocalPlayer], work=[37*, 0*]
201: 0x04FB [0x1C] WAIT(30* ticks)
202: 0x04FE [0x27] REQ_SET(priority=0x05, entity_id=??? (ID: 17776792/0x010F4098), tag_num=0x09)
203: 0x0505 [0x2B] Pheauclemand (ID: 17776789/0x010F4095) [9420*]:
    → "They were planning to marry a few days later, and I was so happy for them."
204: 0x050C [0x23] WAIT_FOR_DIALOG_INTERACTION
205: 0x050D [0x2A] GET_REQ_LEVEL(level=5, entity_id=??? (ID: 17776792/0x010F4098))
206: 0x0513 [0x78] ENABLE_GAME_TIMER_RESET_WEATHER()
207: 0x0514 [0x45] LOAD_SCHEDULED_TASK: Load scheduler "fdi0" with entities [EventEntity, EventEntity], work=[200*, 0*]
208: 0x0525 [0x1A] CALL_SUBROUTINE(address=0x2760)
209: 0x0528 [0x79] Pheauclemand (ID: 17776789/0x010F4095) looks at Unnamed NPC (ID: 17776799/0x010F409F) (Basic look)
210: 0x0532 [0x2B] Pheauclemand (ID: 17776789/0x010F4095) [9421*]:
    → "However, he was badly injured just before his wedding and sent to the hospital."
211: 0x0539 [0x23] WAIT_FOR_DIALOG_INTERACTION
212: 0x053A [0x2B] Pheauclemand (ID: 17776789/0x010F4095) [9422*]:
    → "A rumor spread through the streets that he had been defeated by a fearsome monster in Qufim."
213: 0x0541 [0x23] WAIT_FOR_DIALOG_INTERACTION
214: 0x0542 [0x1A] CALL_SUBROUTINE(address=0x271E)
215: 0x0545 [0x52] END_LOAD_SCHEDULER: End scheduler "s020" with entities [LocalPlayer, LocalPlayer], work=37*
216: 0x0554 [0x75] LOAD_ROOM(Load indoor room, room=446*)
217: 0x0558 [0x75] LOAD_ROOM(No action)
218: 0x055A [0x29] REQ_SET_WAIT(priority=0x05, entity_id=Door:Infirmary (ID: 17776746/0x010F406A), tag_num=0x06)
219: 0x0561 [0x27] REQ_SET(priority=0x1E, entity_id=Pelagia (ID: 17776794/0x010F409A), tag_num=0x08)
220: 0x0568 [0x27] REQ_SET(priority=0x05, entity_id=??? (ID: 17776792/0x010F4098), tag_num=0x08)
221: 0x056F [0x45] LOAD_SCHEDULED_TASK: Load scheduler "s021" with entities [LocalPlayer, LocalPlayer], work=[37*, 0*]
222: 0x0580 [0x2B] Pheauclemand (ID: 17776789/0x010F4095) [9423*]:
    → "When I went to the hospital, Pelagia was also there for some reason."
223: 0x0587 [0x23] WAIT_FOR_DIALOG_INTERACTION
224: 0x0588 [0x77] SET_EVENT_TIME_WEATHER(hour=19*, weather=6*)
225: 0x058D [0x27] REQ_SET(priority=0x19, entity_id=Pheauclemand (ID: 17776790/0x010F4096), tag_num=0x06)
226: 0x0594 [0x27] REQ_SET(priority=0x1E, entity_id=Door:Infirmary (ID: 17776746/0x010F406A), tag_num=0x05)
227: 0x059B [0x1A] CALL_SUBROUTINE(address=0x281D)
228: 0x059E [0x1A] CALL_SUBROUTINE(address=0x2772)
229: 0x05A1 [0x1C] WAIT(180* ticks)
230: 0x05A4 [0x27] REQ_SET(priority=0x23, entity_id=Door:Infirmary (ID: 17776749/0x010F406D), tag_num=0x06)
231: 0x05AB [0x2A] GET_REQ_LEVEL(level=25, entity_id=Pheauclemand (ID: 17776790/0x010F4096))
232: 0x05B1 [0x27] REQ_SET(priority=0x1E, entity_id=Door:Infirmary (ID: 17776746/0x010F406A), tag_num=0x06)
233: 0x05B8 [0x45] LOAD_SCHEDULED_TASK: Load scheduler "ovl1" with entities [LocalPlayer, LocalPlayer], work=[200*, 0*]
234: 0x05C9 [0x52] END_LOAD_SCHEDULER: End scheduler "s021" with entities [LocalPlayer, LocalPlayer], work=37*
235: 0x05D8 [0x79] ??? (ID: 17776792/0x010F4098) looks at Pelagia (ID: 17776794/0x010F409A) (Basic look)
236: 0x05E2 [0x45] LOAD_SCHEDULED_TASK: Load scheduler "s022" with entities [LocalPlayer, LocalPlayer], work=[37*, 0*]
237: 0x05F3 [0x27] REQ_SET(priority=0x19, entity_id=Pheauclemand (ID: 17776790/0x010F4096), tag_num=0x07)
238: 0x05FA [0x2B] Pheauclemand (ID: 17776789/0x010F4095) [9424*]:
    → "She had arrived at the hospital too late. When I arrived, Pelagia was already..."
239: 0x0601 [0x23] WAIT_FOR_DIALOG_INTERACTION
240: 0x0602 [0x79] ??? (ID: 17776792/0x010F4098) looks at Pheauclemand (ID: 17776790/0x010F4096) (Basic look)
241: 0x060C [0x2A] GET_REQ_LEVEL(level=25, entity_id=Pheauclemand (ID: 17776790/0x010F4096))
242: 0x0612 [0x27] REQ_SET(priority=0x23, entity_id=Door:Infirmary (ID: 17776749/0x010F406D), tag_num=0x07)
243: 0x0619 [0x1A] CALL_SUBROUTINE(address=0x271E)
244: 0x061C [0x52] END_LOAD_SCHEDULER: End scheduler "s022" with entities [LocalPlayer, LocalPlayer], work=37*
245: 0x062B [0x45] LOAD_SCHEDULED_TASK: Load scheduler "s023" with entities [LocalPlayer, LocalPlayer], work=[37*, 0*]
246: 0x063C [0x1A] CALL_SUBROUTINE(address=0x2772)
247: 0x063F [0x4A] Pheauclemand (ID: 17776790/0x010F4096) looks at Pelagia (ID: 17776794/0x010F409A)
248: 0x0648 [0x6F] WAIT_FRAME_DELAY: Yield until WaitTime reaches zero
249: 0x0649 [0x76] CHECK_ENTITY_RENDER_FLAGS: Wait until Pheauclemand (ID: 17776790/0x010F4096) Render.Flags0 and Render.Flags3 conditions are met
250: 0x064E [0x6E] Pheauclemand (ID: 17776790/0x010F4096) uses emote 21*
251: 0x0655 [0x99] Wait for Pheauclemand (ID: 17776790/0x010F4096) animation to complete
252: 0x065A [0x2B] Pheauclemand (ID: 17776790/0x010F4096) [9425*]:
    → "...!"
253: 0x0661 [0x23] WAIT_FOR_DIALOG_INTERACTION
254: 0x0662 [0x52] END_LOAD_SCHEDULER: End scheduler "s023" with entities [LocalPlayer, LocalPlayer], work=37*
255: 0x0671 [0x45] LOAD_SCHEDULED_TASK: Load scheduler "s024" with entities [LocalPlayer, LocalPlayer], work=[37*, 0*]
256: 0x0682 [0x27] REQ_SET(priority=0x19, entity_id=Pheauclemand (ID: 17776790/0x010F4096), tag_num=0x08)
257: 0x0689 [0x2A] GET_REQ_LEVEL(level=25, entity_id=Pheauclemand (ID: 17776790/0x010F4096))
258: 0x068F [0x1C] WAIT(30* ticks)
259: 0x0692 [0x27] REQ_SET(priority=0x19, entity_id=Pheauclemand (ID: 17776790/0x010F4096), tag_num=0x0A)
260: 0x0699 [0x2B] Pheauclemand (ID: 17776790/0x010F4096) [9426*]:
    → "What on... What happened to Pelagia!?"
261: 0x06A0 [0x23] WAIT_FOR_DIALOG_INTERACTION
262: 0x06A1 [0x2A] GET_REQ_LEVEL(level=25, entity_id=Pheauclemand (ID: 17776790/0x010F4096))
263: 0x06A7 [0x1C] WAIT(30* ticks)
264: 0x06AA [0x79] ??? (ID: 17776792/0x010F4098) looks at Pelagia (ID: 17776794/0x010F409A) (Basic look)
265: 0x06B4 [0x7C] ??? (ID: 17776792/0x010F4098)->Render.Flags2 |= 0x00
266: 0x06BA [0x2B] ??? (ID: 17776792/0x010F4098) [9427*]:
    → "..."
267: 0x06C1 [0x23] WAIT_FOR_DIALOG_INTERACTION
268: 0x06C2 [0x1C] WAIT(30* ticks)
269: 0x06C5 [0x27] REQ_SET(priority=0x19, entity_id=Pheauclemand (ID: 17776790/0x010F4096), tag_num=0x0C)
270: 0x06CC [0x2B] Pheauclemand (ID: 17776790/0x010F4096) [9428*]:
    → "Did you go to Qufim? Did you take her to Qufim!?"
271: 0x06D3 [0x23] WAIT_FOR_DIALOG_INTERACTION
272: 0x06D4 [0x1C] WAIT(30* ticks)
273: 0x06D7 [0x4B] UPDATE_ENTITY_YAW(entity=??? (ID: 17776792/0x010F4098), yaw=3.8°*)
274: 0x06DE [0x6F] WAIT_FRAME_DELAY: Yield until WaitTime reaches zero
275: 0x06DF [0x76] CHECK_ENTITY_RENDER_FLAGS: Wait until ??? (ID: 17776792/0x010F4098) Render.Flags0 and Render.Flags3 conditions are met
276: 0x06E4 [0x1C] WAIT(15* ticks)
277: 0x06E7 [0x52] END_LOAD_SCHEDULER: End scheduler "s024" with entities [LocalPlayer, LocalPlayer], work=37*
278: 0x06F6 [0x45] LOAD_SCHEDULED_TASK: Load scheduler "s028" with entities [LocalPlayer, LocalPlayer], work=[37*, 0*]
279: 0x0707 [0x1C] WAIT(30* ticks)
280: 0x070A [0x6E] Pheauclemand (ID: 17776790/0x010F4096) uses emote 6*
281: 0x0711 [0x99] Wait for Pheauclemand (ID: 17776790/0x010F4096) animation to complete
282: 0x0716 [0x2B] Pheauclemand (ID: 17776790/0x010F4096) [9429*]:
    → "Why would you take her to such a place!? You knew it was dangerous!"
283: 0x071D [0x23] WAIT_FOR_DIALOG_INTERACTION
284: 0x071E [0x99] Wait for Pheauclemand (ID: 17776790/0x010F4096) animation to complete
285: 0x0723 [0x1C] WAIT(60* ticks)
286: 0x0726 [0x27] REQ_SET(priority=0x19, entity_id=Pheauclemand (ID: 17776790/0x010F4096), tag_num=0x0B)
287: 0x072D [0x2B] Pheauclemand (ID: 17776790/0x010F4096) [9431*]:
    → "Answer me!"
288: 0x0734 [0x23] WAIT_FOR_DIALOG_INTERACTION
289: 0x0735 [0x1C] WAIT(30* ticks)
290: 0x0738 [0x52] END_LOAD_SCHEDULER: End scheduler "s028" with entities [LocalPlayer, LocalPlayer], work=37*
291: 0x0747 [0x45] LOAD_SCHEDULED_TASK: Load scheduler "s034" with entities [LocalPlayer, LocalPlayer], work=[37*, 0*]
292: 0x0758 [0x1C] WAIT(60* ticks)
293: 0x075B [0x79] Pheauclemand (ID: 17776790/0x010F4096) looks at Pelagia (ID: 17776794/0x010F409A) (Basic look)
294: 0x0765 [0x1C] WAIT(120* ticks)
295: 0x0768 [0x6E] Pheauclemand (ID: 17776790/0x010F4096) uses emote 6*
296: 0x076F [0x99] Wait for Pheauclemand (ID: 17776790/0x010F4096) animation to complete
297: 0x0774 [0x2B] Pheauclemand (ID: 17776790/0x010F4096) [9432*]:
    → "He would not even say a single word to me..."
298: 0x077B [0x23] WAIT_FOR_DIALOG_INTERACTION
299: 0x077C [0x7C] ??? (ID: 17776792/0x010F4098)->Render.Flags2 |= 0x01
300: 0x0782 [0x1A] CALL_SUBROUTINE(address=0x273F)
301: 0x0785 [0x52] END_LOAD_SCHEDULER: End scheduler "s034" with entities [LocalPlayer, LocalPlayer], work=37*
302: 0x0794 [0x45] LOAD_SCHEDULED_TASK: Load scheduler "s026" with entities [LocalPlayer, LocalPlayer], work=[37*, 0*]
303: 0x07A5 [0xBA] SET_ENTITY_POSITION(entity_id=LocalPlayer, pos_x=-52.248*, pos_z=44.168*, pos_y=-0.199*, direction=0.0°*)
304: 0x07B2 [0x4A] LocalPlayer looks at Pheauclemand (ID: 17776789/0x010F4095)
305: 0x07BB [0x1C] WAIT(10* ticks)
306: 0x07BE [0x4E] SET_ENTITY_HIDE_FLAG: Hide LocalPlayer
307: 0x07C4 [0x4E] SET_ENTITY_HIDE_FLAG: Hide Luto Mewrilah (ID: 17776780/0x010F408C)
308: 0x07CA [0x79] Pheauclemand (ID: 17776789/0x010F4095) looks at Unnamed NPC (ID: 17776799/0x010F409F) (Basic look)
309: 0x07D4 [0x1E] EventEntity looks at Pheauclemand (ID: 17776789/0x010F4095) and starts talking
310: 0x07D9 [0x78] ENABLE_GAME_TIMER_RESET_WEATHER()
311: 0x07DA [0x1C] WAIT(60* ticks)
312: 0x07DD [0x45] LOAD_SCHEDULED_TASK: Load scheduler "fdi0" with entities [EventEntity, EventEntity], work=[200*, 0*]
313: 0x07EE [0x1A] CALL_SUBROUTINE(address=0x2772)
314: 0x07F1 [0x27] REQ_SET(priority=0x0A, entity_id=Luto Mewrilah (ID: 17776780/0x010F408C), tag_num=0x31)
315: 0x07F8 [0x79] LocalPlayer looks at Pheauclemand (ID: 17776789/0x010F4095) (Basic look)
316: 0x0802 [0x79] Luto Mewrilah (ID: 17776780/0x010F408C) looks at Pheauclemand (ID: 17776789/0x010F4095) (Basic look)
317: 0x080C [0x2B] Pheauclemand (ID: 17776789/0x010F4095) [9433*]:
    → "His silence confused me, tortured me."
318: 0x0813 [0x23] WAIT_FOR_DIALOG_INTERACTION
319: 0x0814 [0x2B] Pheauclemand (ID: 17776789/0x010F4095) [9434*]:
    → "I never did find out what actually happened that day."
320: 0x081B [0x23] WAIT_FOR_DIALOG_INTERACTION
321: 0x081C [0x45] LOAD_SCHEDULED_TASK: Load scheduler "ovl1" with entities [LocalPlayer, LocalPlayer], work=[200*, 0*]
322: 0x082D [0x52] END_LOAD_SCHEDULER: End scheduler "s026" with entities [LocalPlayer, LocalPlayer], work=37*
323: 0x083C [0x4E] SET_ENTITY_HIDE_FLAG: Show LocalPlayer
324: 0x0842 [0x4E] SET_ENTITY_HIDE_FLAG: Show Luto Mewrilah (ID: 17776780/0x010F408C)
325: 0x0848 [0x45] LOAD_SCHEDULED_TASK: Load scheduler "s029" with entities [LocalPlayer, LocalPlayer], work=[37*, 0*]
326: 0x0859 [0x7B] Pheauclemand (ID: 17776789/0x010F4095) stops talking
327: 0x085E [0x2B] Pheauclemand (ID: 17776789/0x010F4095) [9435*]:
    → "That was just the kind of person he was."
328: 0x0865 [0x23] WAIT_FOR_DIALOG_INTERACTION
329: 0x0866 [0x27] REQ_SET(priority=0x19, entity_id=Pheauclemand (ID: 17776789/0x010F4095), tag_num=0x06)
330: 0x086D [0x1C] WAIT(210* ticks)
331: 0x0870 [0x52] END_LOAD_SCHEDULER: End scheduler "s029" with entities [LocalPlayer, LocalPlayer], work=37*
332: 0x087F [0x02] IF !(LocalPlayer->Race == 5*) GOTO 0x089B
333: 0x0887 [0x45] LOAD_SCHEDULED_TASK: Load scheduler "s010" with entities [LocalPlayer, LocalPlayer], work=[38*, 0*]
334: 0x0898 [0x01] GOTO 0x08C8
335: 0x089B [0x02] IF !(LocalPlayer->Race == 6*) GOTO 0x08B7
336: 0x08A3 [0x45] LOAD_SCHEDULED_TASK: Load scheduler "s010" with entities [LocalPlayer, LocalPlayer], work=[38*, 0*]
337: 0x08B4 [0x01] GOTO 0x08C8
338: 0x08B7 [0x45] LOAD_SCHEDULED_TASK: Load scheduler "s030" with entities [LocalPlayer, LocalPlayer], work=[37*, 0*]

SUBROUTINE_08C8:
339: 0x08C8 [0x1C] WAIT(60* ticks)
340: 0x08CB [0x2B] Luto Mewrilah (ID: 17776780/0x010F408C) [9436*]:
    → "What a sad story! I don't want that to happen again."
341: 0x08D2 [0x23] WAIT_FOR_DIALOG_INTERACTION
342: 0x08D3 [0x79] LocalPlayer looks at Luto Mewrilah (ID: 17776780/0x010F408C) (Basic look)
343: 0x08DD [0x5D] SET_MUSIC_VOLUME(volume=0*, fade_time=180*)
344: 0x08E2 [0x1C] WAIT(30* ticks)
345: 0x08E5 [0x4A] Luto Mewrilah (ID: 17776780/0x010F408C) looks at LocalPlayer
346: 0x08EE [0x29] REQ_SET_WAIT(priority=0x05, entity_id=Unnamed NPC (ID: 17776783/0x010F408F), tag_num=0x3A)
347: 0x08F5 [0x1A] CALL_SUBROUTINE(address=0x3C84)
348: 0x08F8 [0x02] IF !(ExtData[1]->WorkLocal[14] == 0*) GOTO 0x090B
349: 0x0900 [0x2B] Luto Mewrilah (ID: 17776780/0x010F408C) [9437*]:
    → "I wonder where [Feliz/Ferdinand/Gunnar/Massimo/Oldrich/Siegward/Theobald/Zenji] is now. Why don't you try contacting him with your signal pearl, <Player>?"
350: 0x0907 [0x23] WAIT_FOR_DIALOG_INTERACTION
351: 0x0908 [0x01] GOTO 0x0990
352: 0x090B [0x02] IF !(ExtData[1]->WorkLocal[14] == 1*) GOTO 0x091E
353: 0x0913 [0x2B] Luto Mewrilah (ID: 17776780/0x010F408C) [9438*]:
    → "I wonder where [Amerita/Beatrice/Henrietta/Jesimae/Karyn/Nanako/Sharlene/Sieghilde] is now. Why don't you try contacting her with your signal pearl, <Player>?"
354: 0x091A [0x23] WAIT_FOR_DIALOG_INTERACTION
355: 0x091B [0x01] GOTO 0x0990
356: 0x091E [0x02] IF !(ExtData[1]->WorkLocal[14] == 2*) GOTO 0x0931
357: 0x0926 [0x2B] Luto Mewrilah (ID: 17776780/0x010F408C) [9439*]:
    → "I wonder where [Chanandit/Deulmaeux/Demresinaux/Ephealgaux/Gauldeval/Grauffemart/Migaifongut/Romidiant] is now. Why don't you try contacting him with your signal pearl, <Player>?"
358: 0x092D [0x23] WAIT_FOR_DIALOG_INTERACTION
359: 0x092E [0x01] GOTO 0x0990
360: 0x0931 [0x02] IF !(ExtData[1]->WorkLocal[14] == 3*) GOTO 0x0944
361: 0x0939 [0x2B] Luto Mewrilah (ID: 17776780/0x010F408C) [9440*]:
    → "I wonder where [Armittie/Cadepure/Clearite/Epilleve/Liabelle/Nauthima/Radille/Vimechue] is now. Why don't you try contacting her with your signal pearl, <Player>?"
362: 0x0940 [0x23] WAIT_FOR_DIALOG_INTERACTION
363: 0x0941 [0x01] GOTO 0x0990
364: 0x0944 [0x02] IF !(ExtData[1]->WorkLocal[14] == 4*) GOTO 0x0957
365: 0x094C [0x2B] Luto Mewrilah (ID: 17776780/0x010F408C) [9441*]:
    → "I wonder where [Balu-Falu/Burg-Ladarg/Ehgo-Ryuhgo/Kolui-Pelui/Nokum-Akkum/Savul-Kivul/Vinja-Kanja/Yarga-Umiga] is now. Why don't you try contacting him with your signal pearl, <Player>?"
366: 0x0953 [0x23] WAIT_FOR_DIALOG_INTERACTION
367: 0x0954 [0x01] GOTO 0x0990
368: 0x0957 [0x02] IF !(ExtData[1]->WorkLocal[14] == 5*) GOTO 0x096A
369: 0x095F [0x2B] Luto Mewrilah (ID: 17776780/0x010F408C) [9442*]:
    → "I wonder where [Cupapa/Jajuju/Kalokoko/Mahoyaya/Pakurara/Ripokeke/Yawawa/Yufafa] is now. Why don't you try contacting her with your signal pearl, <Player>?"
370: 0x0966 [0x23] WAIT_FOR_DIALOG_INTERACTION
371: 0x0967 [0x01] GOTO 0x0990
372: 0x096A [0x02] IF !(ExtData[1]->WorkLocal[14] == 6*) GOTO 0x097D
373: 0x0972 [0x2B] Luto Mewrilah (ID: 17776780/0x010F408C) [9443*]:
    → "I wonder where [Fhig Lahrv/Khuma Tagyawhan/Pimy Kettihl/Raka Maimhov/Sahyu Banjyao/Sufhi Uchnouma/Tsuim Nhomango/Yoli Kohlpaka] is now. Why don't you try contacting her with your signal pearl, <Player>?"
374: 0x0979 [0x23] WAIT_FOR_DIALOG_INTERACTION
375: 0x097A [0x01] GOTO 0x0990
376: 0x097D [0x02] IF !(ExtData[1]->WorkLocal[14] == 7*) GOTO 0x0990
377: 0x0985 [0x2B] Luto Mewrilah (ID: 17776780/0x010F408C) [9444*]:
    → "I wonder where [Durib/Dzapiwa/Jugowa/Mugido/Voldai/Wagwei/Zayag/Zoldof] is now. Why don't you try contacting him with your signal pearl, <Player>?"
378: 0x098C [0x23] WAIT_FOR_DIALOG_INTERACTION
379: 0x098D [0x01] GOTO 0x0990

SUBROUTINE_0990:
380: 0x0990 [0x6E] LocalPlayer uses emote 7*
381: 0x0997 [0x99] Wait for LocalPlayer animation to complete
382: 0x099C [0x1C] WAIT(60* ticks)
383: 0x099F [0x79] LocalPlayer looks at Unnamed NPC (ID: 17776799/0x010F409F) (Basic look)

SUBROUTINE_09A9:
384: 0x09A9 [0x02] IF !(ExtData[1]->WorkLocal[2] >= 3*) GOTO 0x09CD
385: 0x09B1 [0x45] LOAD_SCHEDULED_TASK: Load scheduler "kira" with entities [LocalPlayer, LocalPlayer], work=[203*, 0*]
386: 0x09C2 [0x1C] WAIT(90* ticks)
387: 0x09C5 [0x07] ExtData[1]->WorkLocal[2] += 1*
388: 0x09CA [0x01] GOTO 0x09A9
389: 0x09CD [0x1A] CALL_SUBROUTINE(address=0x273F)
390: 0x09D0 [0x5D] SET_MUSIC_VOLUME(volume=0*, fade_time=180*)
391: 0x09D5 [0x02] IF !(LocalPlayer->Race == 5*) GOTO 0x09EF
392: 0x09DD [0x52] END_LOAD_SCHEDULER: End scheduler "s010" with entities [LocalPlayer, LocalPlayer], work=38*
393: 0x09EC [0x01] GOTO 0x0A18
394: 0x09EF [0x02] IF !(LocalPlayer->Race == 6*) GOTO 0x0A09
395: 0x09F7 [0x52] END_LOAD_SCHEDULER: End scheduler "s010" with entities [LocalPlayer, LocalPlayer], work=38*
396: 0x0A06 [0x01] GOTO 0x0A18
397: 0x0A09 [0x52] END_LOAD_SCHEDULER: End scheduler "s030" with entities [LocalPlayer, LocalPlayer], work=37*

SUBROUTINE_0A18:
398: 0x0A18 [0x1C] WAIT(15* ticks)
399: 0x0A1B [0xAB] EventEntity->DespawnValue = 0* // Set despawn value
400: 0x0A1F [0x1C] WAIT(1* ticks)
401: 0x0A22 [0x1A] CALL_SUBROUTINE(address=0x2784)
402: 0x0A25 [0x1A] CALL_SUBROUTINE(address=0x2760)
403: 0x0A28 [0x02] IF !(ExtData[1]->WorkLocal[0] == 0*) GOTO 0x0A33
404: 0x0A30 [0x30] SET_UCOFF_CONTINUE_ZERO()
405: 0x0A31 [0x21] END_EVENT
406: 0x0A32 [0x00] END_REQSTACK()
407: 0x0A33 [0x5C] MUSIC_CONTROL: Set Idle (Day) music to song 110*
408: 0x0A37 [0x5C] MUSIC_CONTROL: Set Idle (Night) music to song 110*
409: 0x0A3B [0x9A] WAIT_MUSIC_SERVER()
410: 0x0A3C [0x46] CAMERA_CONTROL: Restore default settings
411: 0x0A3E [0x45] LOAD_SCHEDULED_TASK: Load scheduler "fdi2" with entities [LocalPlayer, LocalPlayer], work=[200*, 0*]
412: 0x0A4F [0x21] END_EVENT
413: 0x0A50 [0x00] END_REQSTACK()
```

### Event 10204

#### Metadata

| Field        | Value      |
|--------------|------------|
| Entrypoint   | 0x0A51     |
| Data Size    | 1051 bytes |
| Instructions | 190        |

```
      00 01 02 03 04 05 06 07  08 09 0A 0B 0C 0D 0E 0F
      -- -- -- -- -- -- -- --  -- -- -- -- -- -- -- --
0A50:    42 1A A5 27 46 01 38  00 80 43 00 43 01 03 00   B..'F.8..C.C...
0A60: 00 04 10 5C 00 03 80 5C  01 03 80 9A 34 58 80 77  ...\...\....4X.w
0A70: 59 80 0A 80 1C 0A 80 29  0F 8F 40 0F 01 17 80 8F  Y......)..@.....
0A80: 40 0F 01 29 0F 8F 40 0F  01 2C 45 05 80 F0 FF FF  @..)..@..,E.....
0A90: 7F F0 FF FF 7F 73 30 33  32 03 80 1A F9 27 29 0F  .....s032....').
0AA0: 8F 40 0F 01 2D 1C 3F 80  6E 8F 40 0F 01 5A 80 99  .@..-.?.n.@..Z..
0AB0: 8F 40 0F 01 1A 65 3D 02  0B 00 0A 80 80 CA 0A 2B  .@...e=........+
0AC0: 8F 40 0F 01 5B 80 23 01  9B 0B 02 0B 00 0C 80 80  .@..[.#.........
0AD0: DD 0A 2B 8F 40 0F 01 5C  80 23 01 9B 0B 02 0B 00  ..+.@..\.#......
0AE0: 0E 80 80 F0 0A 2B 8F 40  0F 01 5D 80 23 01 9B 0B  .....+.@..].#...
0AF0: 02 0B 00 10 80 80 03 0B  2B 8F 40 0F 01 5E 80 23  ........+.@..^.#
0B00: 01 9B 0B 02 0B 00 12 80  80 16 0B 2B 8F 40 0F 01  ...........+.@..
0B10: 5F 80 23 01 9B 0B 02 0B  00 14 80 80 29 0B 2B 8F  _.#.........).+.
0B20: 40 0F 01 60 80 23 01 9B  0B 02 0B 00 16 80 80 3C  @..`.#.........<
0B30: 0B 2B 8F 40 0F 01 61 80  23 01 9B 0B 02 0B 00 62  .+.@..a.#......b
0B40: 80 80 4F 0B 2B 8F 40 0F  01 63 80 23 01 9B 0B 02  ..O.+.@..c.#....
0B50: 0B 00 64 80 80 62 0B 2B  8F 40 0F 01 65 80 23 01  ..d..b.+.@..e.#.
0B60: 9B 0B 02 0B 00 46 80 80  75 0B 2B 8F 40 0F 01 66  .....F..u.+.@..f
0B70: 80 23 01 9B 0B 02 0B 00  67 80 80 88 0B 2B 8F 40  .#......g....+.@
0B80: 0F 01 68 80 23 01 9B 0B  02 0B 00 2A 80 80 9B 0B  ..h.#......*....
0B90: 2B 8F 40 0F 01 69 80 23  01 9B 0B 52 05 80 F0 FF  +.@..i.#...R....
0BA0: FF 7F F0 FF FF 7F 73 30  33 32 1A 84 3C 02 0E 00  ......s032..<...
0BB0: 0C 80 80 C9 0B 45 4B 80  F0 FF FF 7F F0 FF FF 7F  .....EK.........
0BC0: 73 30 31 31 03 80 01 4A  0C 02 0E 00 0E 80 80 E5  s011...J........
0BD0: 0B 45 4B 80 F0 FF FF 7F  F0 FF FF 7F 73 30 31 31  .EK.........s011
0BE0: 03 80 01 4A 0C 02 0E 00  10 80 80 01 0C 45 4B 80  ...J.........EK.
0BF0: F0 FF FF 7F F0 FF FF 7F  73 30 30 39 03 80 01 4A  ........s009...J
0C00: 0C 02 0E 00 12 80 80 1D  0C 45 4B 80 F0 FF FF 7F  .........EK.....
0C10: F0 FF FF 7F 73 30 30 39  03 80 01 4A 0C 02 0E 00  ....s009...J....
0C20: 16 80 80 39 0C 45 4B 80  F0 FF FF 7F F0 FF FF 7F  ...9.EK.........
0C30: 73 30 31 31 03 80 01 4A  0C 45 05 80 F0 FF FF 7F  s011...J.E......
0C40: F0 FF FF 7F 73 30 33 33  03 80 1C 3F 80 6E 8F 40  ....s033...?.n.@
0C50: 0F 01 6A 80 99 8F 40 0F  01 1A 65 3D 02 0B 00 0A  ..j...@...e=....
0C60: 80 80 6F 0C 2B 8F 40 0F  01 6B 80 23 01 40 0D 02  ..o.+.@..k.#.@..
0C70: 0B 00 0C 80 80 82 0C 2B  8F 40 0F 01 6C 80 23 01  .......+.@..l.#.
0C80: 40 0D 02 0B 00 0E 80 80  95 0C 2B 8F 40 0F 01 6D  @.........+.@..m
0C90: 80 23 01 40 0D 02 0B 00  10 80 80 A8 0C 2B 8F 40  .#.@.........+.@
0CA0: 0F 01 6E 80 23 01 40 0D  02 0B 00 12 80 80 BB 0C  ..n.#.@.........
0CB0: 2B 8F 40 0F 01 6F 80 23  01 40 0D 02 0B 00 14 80  +.@..o.#.@......
0CC0: 80 CE 0C 2B 8F 40 0F 01  70 80 23 01 40 0D 02 0B  ...+.@..p.#.@...
0CD0: 00 16 80 80 E1 0C 2B 8F  40 0F 01 71 80 23 01 40  ......+.@..q.#.@
0CE0: 0D 02 0B 00 62 80 80 F4  0C 2B 8F 40 0F 01 72 80  ....b....+.@..r.
0CF0: 23 01 40 0D 02 0B 00 64  80 80 07 0D 2B 8F 40 0F  #.@....d....+.@.
0D00: 01 73 80 23 01 40 0D 02  0B 00 46 80 80 1A 0D 2B  .s.#.@....F....+
0D10: 8F 40 0F 01 74 80 23 01  40 0D 02 0B 00 67 80 80  .@..t.#.@....g..
0D20: 2D 0D 2B 8F 40 0F 01 75  80 23 01 40 0D 02 0B 00  -.+.@..u.#.@....
0D30: 2A 80 80 40 0D 2B 8F 40  0F 01 76 80 23 01 40 0D  *..@.+.@..v.#.@.
0D40: 99 8F 40 0F 01 4B 8F 40  0F 01 77 80 6F 76 8F 40  ..@..K.@..w.ov.@
0D50: 0F 01 1C 3F 80 27 0F 8F  40 0F 01 2E 1C 08 80 45  ...?.'..@......E
0D60: 2F 80 F0 FF FF 7F F0 FF  FF 7F 6F 76 6C 31 03 80  /.........ovl1..
0D70: 1A 84 3C 02 0E 00 0C 80  80 8D 0D 52 4B 80 F0 FF  ..<........RK...
0D80: FF 7F F0 FF FF 7F 73 30  31 31 01 04 0E 02 0E 00  ......s011......
0D90: 0E 80 80 A7 0D 52 4B 80  F0 FF FF 7F F0 FF FF 7F  .....RK.........
0DA0: 73 30 31 31 01 04 0E 02  0E 00 10 80 80 C1 0D 52  s011...........R
0DB0: 4B 80 F0 FF FF 7F F0 FF  FF 7F 73 30 30 39 01 04  K.........s009..
0DC0: 0E 02 0E 00 12 80 80 DB  0D 52 4B 80 F0 FF FF 7F  .........RK.....
0DD0: F0 FF FF 7F 73 30 30 39  01 04 0E 02 0E 00 16 80  ....s009........
0DE0: 80 F5 0D 52 4B 80 F0 FF  FF 7F F0 FF FF 7F 73 30  ...RK.........s0
0DF0: 31 31 01 04 0E 52 05 80  F0 FF FF 7F F0 FF FF 7F  11...R..........
0E00: 73 30 33 33 45 05 80 F0  FF FF 7F F0 FF FF 7F 73  s033E..........s
0E10: 30 37 38 03 80 1C 4A 80  1A 3F 27 52 05 80 F0 FF  078...J..?'R....
0E20: FF 7F F0 FF FF 7F 73 30  37 38 1C 3F 80 AB 11 03  ......s078.?....
0E30: 80 1C 0A 80 35 78 80 78  1C 3F 80 AB 0A 1A 84 27  ....5x.x.?.....'
0E40: 1A 60 27 02 00 00 03 80  00 4E 0E 30 21 00 5C 00  .`'......N.0!.\.
0E50: 57 80 5C 01 57 80 9A 46  00 45 2F 80 F0 FF FF 7F  W.\.W..F.E/.....
0E60: F0 FF FF 7F 66 64 69 32  03 80 21 00              ....fdi2..!.    
```

#### Opcodes

```
  0: 0x0A51 [0x42] SET_CLI_EVENT_CANCEL_DATA()
  1: 0x0A52 [0x1A] CALL_SUBROUTINE(address=0x27A5)
  2: 0x0A55 [0x46] CAMERA_CONTROL: Disable user control
  3: 0x0A57 [0x38] SET_CLIENT_EVENT_MODE(mode=27*)
  4: 0x0A5A [0x43] SEND_EVENT_UPDATE: Send pending tag to server (packet 0x005B)
  5: 0x0A5C [0x43] SEND_EVENT_UPDATE: Check pending flag (skip if not pending)
  6: 0x0A5E [0x03] ExtData[1]->WorkLocal[0] = Work_Zone[4]
  7: 0x0A63 [0x5C] MUSIC_CONTROL: Set Idle (Day) music to song 0*
  8: 0x0A67 [0x5C] MUSIC_CONTROL: Set Idle (Night) music to song 0*
  9: 0x0A6B [0x9A] WAIT_MUSIC_SERVER()
 10: 0x0A6C [0x34] LOAD_UNLOAD_ZONE(zone_id=126*)
 11: 0x0A6F [0x77] SET_EVENT_TIME_WEATHER(hour=18*, weather=1*)
 12: 0x0A74 [0x1C] WAIT(1* ticks)
 13: 0x0A77 [0x29] REQ_SET_WAIT(priority=0x0F, entity_id=Unnamed NPC (ID: 17776783/0x010F408F), tag_num=0x17)
 14: 0x0A7E [0x80] LOAD_WAIT(entity=Unnamed NPC (ID: 17776783/0x010F408F))
 15: 0x0A83 [0x29] REQ_SET_WAIT(priority=0x0F, entity_id=Unnamed NPC (ID: 17776783/0x010F408F), tag_num=0x2C)
 16: 0x0A8A [0x45] LOAD_SCHEDULED_TASK: Load scheduler "s032" with entities [LocalPlayer, LocalPlayer], work=[37*, 0*]
 17: 0x0A9B [0x1A] CALL_SUBROUTINE(address=0x27F9)
 18: 0x0A9E [0x29] REQ_SET_WAIT(priority=0x0F, entity_id=Unnamed NPC (ID: 17776783/0x010F408F), tag_num=0x2D)
 19: 0x0AA5 [0x1C] WAIT(15* ticks)
 20: 0x0AA8 [0x6E] Unnamed NPC (ID: 17776783/0x010F408F) uses emote 32*
 21: 0x0AAF [0x99] Wait for Unnamed NPC (ID: 17776783/0x010F408F) animation to complete
 22: 0x0AB4 [0x1A] CALL_SUBROUTINE(address=0x3D65)
 23: 0x0AB7 [0x02] IF !(ExtData[1]->WorkLocal[11] == 1*) GOTO 0x0ACA
 24: 0x0ABF [0x2B] Unnamed NPC (ID: 17776783/0x010F408F) [9445*]:
    → "<Player>? Is something wrong? You want to know where I am?"
 25: 0x0AC6 [0x23] WAIT_FOR_DIALOG_INTERACTION
 26: 0x0AC7 [0x01] GOTO 0x0B9B
 27: 0x0ACA [0x02] IF !(ExtData[1]->WorkLocal[11] == 2*) GOTO 0x0ADD
 28: 0x0AD2 [0x2B] Unnamed NPC (ID: 17776783/0x010F408F) [9446*]:
    → "Hey, <Player>! Something wrong? What? You wanna know where I am, do you?"
 29: 0x0AD9 [0x23] WAIT_FOR_DIALOG_INTERACTION
 30: 0x0ADA [0x01] GOTO 0x0B9B
 31: 0x0ADD [0x02] IF !(ExtData[1]->WorkLocal[11] == 3*) GOTO 0x0AF0
 32: 0x0AE5 [0x2B] Unnamed NPC (ID: 17776783/0x010F408F) [9447*]:
    → "<Player>? Is something wrong? ...You want to know where I am?"
 33: 0x0AEC [0x23] WAIT_FOR_DIALOG_INTERACTION
 34: 0x0AED [0x01] GOTO 0x0B9B
 35: 0x0AF0 [0x02] IF !(ExtData[1]->WorkLocal[11] == 4*) GOTO 0x0B03
 36: 0x0AF8 [0x2B] Unnamed NPC (ID: 17776783/0x010F408F) [9448*]:
    → "<Player>? Is something the matter? You wish to know my location?"
 37: 0x0AFF [0x23] WAIT_FOR_DIALOG_INTERACTION
 38: 0x0B00 [0x01] GOTO 0x0B9B
 39: 0x0B03 [0x02] IF !(ExtData[1]->WorkLocal[11] == 5*) GOTO 0x0B16
 40: 0x0B0B [0x2B] Unnamed NPC (ID: 17776783/0x010F408F) [9451*]:
    → "<Player>? What's wrong? Huh? You want to know where I am?"
 41: 0x0B12 [0x23] WAIT_FOR_DIALOG_INTERACTION
 42: 0x0B13 [0x01] GOTO 0x0B9B
 43: 0x0B16 [0x02] IF !(ExtData[1]->WorkLocal[11] == 6*) GOTO 0x0B29
 44: 0x0B1E [0x2B] Unnamed NPC (ID: 17776783/0x010F408F) [9452*]:
    → "Hi! <Player>? Something wrong? Huh? You want to know where I am?"
 45: 0x0B25 [0x23] WAIT_FOR_DIALOG_INTERACTION
 46: 0x0B26 [0x01] GOTO 0x0B9B
 47: 0x0B29 [0x02] IF !(ExtData[1]->WorkLocal[11] == 7*) GOTO 0x0B3C
 48: 0x0B31 [0x2B] Unnamed NPC (ID: 17776783/0x010F408F) [9453*]:
    → "<Player>? Is something wrong? You want to know where I am?"
 49: 0x0B38 [0x23] WAIT_FOR_DIALOG_INTERACTION
 50: 0x0B39 [0x01] GOTO 0x0B9B
 51: 0x0B3C [0x02] IF !(ExtData[1]->WorkLocal[11] == 8*) GOTO 0x0B4F
 52: 0x0B44 [0x2B] Unnamed NPC (ID: 17776783/0x010F408F) [9454*]:
    → "Oh hi, <Player>! What's up? Huh? You want to know where I am?"
 53: 0x0B4B [0x23] WAIT_FOR_DIALOG_INTERACTION
 54: 0x0B4C [0x01] GOTO 0x0B9B
 55: 0x0B4F [0x02] IF !(ExtData[1]->WorkLocal[11] == 9*) GOTO 0x0B62
 56: 0x0B57 [0x2B] Unnamed NPC (ID: 17776783/0x010F408F) [9455*]:
    → "<Player>? Is something the matter? You wish to know my location?"
 57: 0x0B5E [0x23] WAIT_FOR_DIALOG_INTERACTION
 58: 0x0B5F [0x01] GOTO 0x0B9B
 59: 0x0B62 [0x02] IF !(ExtData[1]->WorkLocal[11] == 10*) GOTO 0x0B75
 60: 0x0B6A [0x2B] Unnamed NPC (ID: 17776783/0x010F408F) [9449*]:
    → "<Player>? What's the matter? Oh...you want to know where I am?"
 61: 0x0B71 [0x23] WAIT_FOR_DIALOG_INTERACTION
 62: 0x0B72 [0x01] GOTO 0x0B9B
 63: 0x0B75 [0x02] IF !(ExtData[1]->WorkLocal[11] == 11*) GOTO 0x0B88
 64: 0x0B7D [0x2B] Unnamed NPC (ID: 17776783/0x010F408F) [9450*]:
    → "Hey, <Player>, what's up? Hm? You wanna know my whereabouts?"
 65: 0x0B84 [0x23] WAIT_FOR_DIALOG_INTERACTION
 66: 0x0B85 [0x01] GOTO 0x0B9B
 67: 0x0B88 [0x02] IF !(ExtData[1]->WorkLocal[11] == 12*) GOTO 0x0B9B
 68: 0x0B90 [0x2B] Unnamed NPC (ID: 17776783/0x010F408F) [9456*]:
    → "What is it now, <Player>? You wish to know my location?"
 69: 0x0B97 [0x23] WAIT_FOR_DIALOG_INTERACTION
 70: 0x0B98 [0x01] GOTO 0x0B9B

SUBROUTINE_0B9B:
 71: 0x0B9B [0x52] END_LOAD_SCHEDULER: End scheduler "s032" with entities [LocalPlayer, LocalPlayer], work=37*
 72: 0x0BAA [0x1A] CALL_SUBROUTINE(address=0x3C84)
 73: 0x0BAD [0x02] IF !(ExtData[1]->WorkLocal[14] == 2*) GOTO 0x0BC9
 74: 0x0BB5 [0x45] LOAD_SCHEDULED_TASK: Load scheduler "s011" with entities [LocalPlayer, LocalPlayer], work=[38*, 0*]
 75: 0x0BC6 [0x01] GOTO 0x0C4A
 76: 0x0BC9 [0x02] IF !(ExtData[1]->WorkLocal[14] == 3*) GOTO 0x0BE5
 77: 0x0BD1 [0x45] LOAD_SCHEDULED_TASK: Load scheduler "s011" with entities [LocalPlayer, LocalPlayer], work=[38*, 0*]
 78: 0x0BE2 [0x01] GOTO 0x0C4A
 79: 0x0BE5 [0x02] IF !(ExtData[1]->WorkLocal[14] == 4*) GOTO 0x0C01
 80: 0x0BED [0x45] LOAD_SCHEDULED_TASK: Load scheduler "s009" with entities [LocalPlayer, LocalPlayer], work=[38*, 0*]
 81: 0x0BFE [0x01] GOTO 0x0C4A
 82: 0x0C01 [0x02] IF !(ExtData[1]->WorkLocal[14] == 5*) GOTO 0x0C1D
 83: 0x0C09 [0x45] LOAD_SCHEDULED_TASK: Load scheduler "s009" with entities [LocalPlayer, LocalPlayer], work=[38*, 0*]
 84: 0x0C1A [0x01] GOTO 0x0C4A
 85: 0x0C1D [0x02] IF !(ExtData[1]->WorkLocal[14] == 7*) GOTO 0x0C39
 86: 0x0C25 [0x45] LOAD_SCHEDULED_TASK: Load scheduler "s011" with entities [LocalPlayer, LocalPlayer], work=[38*, 0*]
 87: 0x0C36 [0x01] GOTO 0x0C4A
 88: 0x0C39 [0x45] LOAD_SCHEDULED_TASK: Load scheduler "s033" with entities [LocalPlayer, LocalPlayer], work=[37*, 0*]

SUBROUTINE_0C4A:
 89: 0x0C4A [0x1C] WAIT(15* ticks)
 90: 0x0C4D [0x6E] Unnamed NPC (ID: 17776783/0x010F408F) uses emote 26*
 91: 0x0C54 [0x99] Wait for Unnamed NPC (ID: 17776783/0x010F408F) animation to complete
 92: 0x0C59 [0x1A] CALL_SUBROUTINE(address=0x3D65)
 93: 0x0C5C [0x02] IF !(ExtData[1]->WorkLocal[11] == 1*) GOTO 0x0C6F
 94: 0x0C64 [0x2B] Unnamed NPC (ID: 17776783/0x010F408F) [9457*]:
    → "Does it really matter? Hey, I'm busy now, so I'll catch you later."
 95: 0x0C6B [0x23] WAIT_FOR_DIALOG_INTERACTION
 96: 0x0C6C [0x01] GOTO 0x0D40
 97: 0x0C6F [0x02] IF !(ExtData[1]->WorkLocal[11] == 2*) GOTO 0x0C82
 98: 0x0C77 [0x2B] Unnamed NPC (ID: 17776783/0x010F408F) [9458*]:
    → "Who cares, anyway? Let's talk later. I gotta go!"
 99: 0x0C7E [0x23] WAIT_FOR_DIALOG_INTERACTION
100: 0x0C7F [0x01] GOTO 0x0D40
101: 0x0C82 [0x02] IF !(ExtData[1]->WorkLocal[11] == 3*) GOTO 0x0C95
102: 0x0C8A [0x2B] Unnamed NPC (ID: 17776783/0x010F408F) [9459*]:
    → "Does it matter? I'm busy now. Later."
103: 0x0C91 [0x23] WAIT_FOR_DIALOG_INTERACTION
104: 0x0C92 [0x01] GOTO 0x0D40
105: 0x0C95 [0x02] IF !(ExtData[1]->WorkLocal[11] == 4*) GOTO 0x0CA8
106: 0x0C9D [0x2B] Unnamed NPC (ID: 17776783/0x010F408F) [9460*]:
    → "I am afraid that does not concern you. I am busy now, so let us talk later."
107: 0x0CA4 [0x23] WAIT_FOR_DIALOG_INTERACTION
108: 0x0CA5 [0x01] GOTO 0x0D40
109: 0x0CA8 [0x02] IF !(ExtData[1]->WorkLocal[11] == 5*) GOTO 0x0CBB
110: 0x0CB0 [0x2B] Unnamed NPC (ID: 17776783/0x010F408F) [9463*]:
    → "Does it matter where I am? I'm kind of busy now, so I'll catch you later, okay?"
111: 0x0CB7 [0x23] WAIT_FOR_DIALOG_INTERACTION
112: 0x0CB8 [0x01] GOTO 0x0D40
113: 0x0CBB [0x02] IF !(ExtData[1]->WorkLocal[11] == 6*) GOTO 0x0CCE
114: 0x0CC3 [0x2B] Unnamed NPC (ID: 17776783/0x010F408F) [9464*]:
    → "Well, does it matter? I'm busy now! Gotta go!"
115: 0x0CCA [0x23] WAIT_FOR_DIALOG_INTERACTION
116: 0x0CCB [0x01] GOTO 0x0D40
117: 0x0CCE [0x02] IF !(ExtData[1]->WorkLocal[11] == 7*) GOTO 0x0CE1
118: 0x0CD6 [0x2B] Unnamed NPC (ID: 17776783/0x010F408F) [9465*]:
    → "I don't think that's any of your concern. I am busy now, so let's talk later."
119: 0x0CDD [0x23] WAIT_FOR_DIALOG_INTERACTION
120: 0x0CDE [0x01] GOTO 0x0D40
121: 0x0CE1 [0x02] IF !(ExtData[1]->WorkLocal[11] == 8*) GOTO 0x0CF4
122: 0x0CE9 [0x2B] Unnamed NPC (ID: 17776783/0x010F408F) [9466*]:
    → "Hm, why do you care, anyway? Hey, I'm busy, so I'll catch ya later, 'kay?"
123: 0x0CF0 [0x23] WAIT_FOR_DIALOG_INTERACTION
124: 0x0CF1 [0x01] GOTO 0x0D40
125: 0x0CF4 [0x02] IF !(ExtData[1]->WorkLocal[11] == 9*) GOTO 0x0D07
126: 0x0CFC [0x2B] Unnamed NPC (ID: 17776783/0x010F408F) [9467*]:
    → "I am afraid that does not concern you. I am busy now, so let us talk later."
127: 0x0D03 [0x23] WAIT_FOR_DIALOG_INTERACTION
128: 0x0D04 [0x01] GOTO 0x0D40
129: 0x0D07 [0x02] IF !(ExtData[1]->WorkLocal[11] == 10*) GOTO 0x0D1A
130: 0x0D0F [0x2B] Unnamed NPC (ID: 17776783/0x010F408F) [9461*]:
    → "I'm...nowhere. Sorry, but I have to run. Talk to you later."
131: 0x0D16 [0x23] WAIT_FOR_DIALOG_INTERACTION
132: 0x0D17 [0x01] GOTO 0x0D40
133: 0x0D1A [0x02] IF !(ExtData[1]->WorkLocal[11] == 11*) GOTO 0x0D2D
134: 0x0D22 [0x2B] Unnamed NPC (ID: 17776783/0x010F408F) [9462*]:
    → "Um, yeah... Just running some errands, that's all. Nothing to worry about. See you later."
135: 0x0D29 [0x23] WAIT_FOR_DIALOG_INTERACTION
136: 0x0D2A [0x01] GOTO 0x0D40
137: 0x0D2D [0x02] IF !(ExtData[1]->WorkLocal[11] == 12*) GOTO 0x0D40
138: 0x0D35 [0x2B] Unnamed NPC (ID: 17776783/0x010F408F) [9468*]:
    → "Do you presume to be my guardian? I have urgent matters to attend to. There will be time for chatter later."
139: 0x0D3C [0x23] WAIT_FOR_DIALOG_INTERACTION
140: 0x0D3D [0x01] GOTO 0x0D40

SUBROUTINE_0D40:
141: 0x0D40 [0x99] Wait for Unnamed NPC (ID: 17776783/0x010F408F) animation to complete
142: 0x0D45 [0x4B] UPDATE_ENTITY_YAW(entity=Unnamed NPC (ID: 17776783/0x010F408F), yaw=19.4°*)
143: 0x0D4C [0x6F] WAIT_FRAME_DELAY: Yield until WaitTime reaches zero
144: 0x0D4D [0x76] CHECK_ENTITY_RENDER_FLAGS: Wait until Unnamed NPC (ID: 17776783/0x010F408F) Render.Flags0 and Render.Flags3 conditions are met
145: 0x0D52 [0x1C] WAIT(15* ticks)
146: 0x0D55 [0x27] REQ_SET(priority=0x0F, entity_id=Unnamed NPC (ID: 17776783/0x010F408F), tag_num=0x2E)
147: 0x0D5C [0x1C] WAIT(30* ticks)
148: 0x0D5F [0x45] LOAD_SCHEDULED_TASK: Load scheduler "ovl1" with entities [LocalPlayer, LocalPlayer], work=[200*, 0*]
149: 0x0D70 [0x1A] CALL_SUBROUTINE(address=0x3C84)
150: 0x0D73 [0x02] IF !(ExtData[1]->WorkLocal[14] == 2*) GOTO 0x0D8D
151: 0x0D7B [0x52] END_LOAD_SCHEDULER: End scheduler "s011" with entities [LocalPlayer, LocalPlayer], work=38*
152: 0x0D8A [0x01] GOTO 0x0E04
153: 0x0D8D [0x02] IF !(ExtData[1]->WorkLocal[14] == 3*) GOTO 0x0DA7
154: 0x0D95 [0x52] END_LOAD_SCHEDULER: End scheduler "s011" with entities [LocalPlayer, LocalPlayer], work=38*
155: 0x0DA4 [0x01] GOTO 0x0E04
156: 0x0DA7 [0x02] IF !(ExtData[1]->WorkLocal[14] == 4*) GOTO 0x0DC1
157: 0x0DAF [0x52] END_LOAD_SCHEDULER: End scheduler "s009" with entities [LocalPlayer, LocalPlayer], work=38*
158: 0x0DBE [0x01] GOTO 0x0E04
159: 0x0DC1 [0x02] IF !(ExtData[1]->WorkLocal[14] == 5*) GOTO 0x0DDB
160: 0x0DC9 [0x52] END_LOAD_SCHEDULER: End scheduler "s009" with entities [LocalPlayer, LocalPlayer], work=38*
161: 0x0DD8 [0x01] GOTO 0x0E04
162: 0x0DDB [0x02] IF !(ExtData[1]->WorkLocal[14] == 7*) GOTO 0x0DF5
163: 0x0DE3 [0x52] END_LOAD_SCHEDULER: End scheduler "s011" with entities [LocalPlayer, LocalPlayer], work=38*
164: 0x0DF2 [0x01] GOTO 0x0E04
165: 0x0DF5 [0x52] END_LOAD_SCHEDULER: End scheduler "s033" with entities [LocalPlayer, LocalPlayer], work=37*

SUBROUTINE_0E04:
166: 0x0E04 [0x45] LOAD_SCHEDULED_TASK: Load scheduler "s078" with entities [LocalPlayer, LocalPlayer], work=[37*, 0*]
167: 0x0E15 [0x1C] WAIT(210* ticks)
168: 0x0E18 [0x1A] CALL_SUBROUTINE(address=0x273F)
169: 0x0E1B [0x52] END_LOAD_SCHEDULER: End scheduler "s078" with entities [LocalPlayer, LocalPlayer], work=37*
170: 0x0E2A [0x1C] WAIT(15* ticks)
171: 0x0E2D [0xAB] EventEntity->DespawnValue = 0* // Set despawn value
172: 0x0E31 [0x1C] WAIT(1* ticks)
173: 0x0E34 [0x35] LOAD_ZONE_NO_CLOSE(zone_id=244*)
174: 0x0E37 [0x78] ENABLE_GAME_TIMER_RESET_WEATHER()
175: 0x0E38 [0x1C] WAIT(15* ticks)
176: 0x0E3B [0xAB] EventEntity->UnknownFlag = 0 // Disable unknown flag
177: 0x0E3D [0x1A] CALL_SUBROUTINE(address=0x2784)
178: 0x0E40 [0x1A] CALL_SUBROUTINE(address=0x2760)
179: 0x0E43 [0x02] IF !(ExtData[1]->WorkLocal[0] == 0*) GOTO 0x0E4E
180: 0x0E4B [0x30] SET_UCOFF_CONTINUE_ZERO()
181: 0x0E4C [0x21] END_EVENT
182: 0x0E4D [0x00] END_REQSTACK()
183: 0x0E4E [0x5C] MUSIC_CONTROL: Set Idle (Day) music to song 110*
184: 0x0E52 [0x5C] MUSIC_CONTROL: Set Idle (Night) music to song 110*
185: 0x0E56 [0x9A] WAIT_MUSIC_SERVER()
186: 0x0E57 [0x46] CAMERA_CONTROL: Restore default settings
187: 0x0E59 [0x45] LOAD_SCHEDULED_TASK: Load scheduler "fdi2" with entities [LocalPlayer, LocalPlayer], work=[200*, 0*]
188: 0x0E6A [0x21] END_EVENT
189: 0x0E6B [0x00] END_REQSTACK()
```

### Event 10205

#### Metadata

| Field        | Value     |
|--------------|-----------|
| Entrypoint   | 0x0E6C    |
| Data Size    | 700 bytes |
| Instructions | 123       |

```
      00 01 02 03 04 05 06 07  08 09 0A 0B 0C 0D 0E 0F
      -- -- -- -- -- -- -- --  -- -- -- -- -- -- -- --
0E60:                                      42 1A A5 27              B..'
0E70: 46 01 92 01 95 40 0F 01  92 01 96 40 0F 01 92 01  F....@.....@....
0E80: 8C 40 0F 01 92 01 98 40  0F 01 92 01 9A 40 0F 01  .@.....@.....@..
0E90: 38 00 80 4E 00 F0 FF FF  7F 29 0F 8F 40 0F 01 17  8..N.....)..@...
0EA0: 80 8F 40 0F 01 27 0A 8C  40 0F 01 31 BA F0 FF FF  ..@..'..@..1....
0EB0: 7F 43 80 44 80 45 80 03  80 4E 00 F0 FF FF 7F 4E  .C.D.E...N.....N
0EC0: 00 8C 40 0F 01 80 8C 40  0F 01 4A 8C 40 0F 01 F0  ..@....@..J.@...
0ED0: FF FF 7F 4A F0 FF FF 7F  8C 40 0F 01 02 87 7F 12  ...J.....@......
0EE0: 80 80 F8 0E 45 4B 80 F0  FF FF 7F F0 FF FF 7F 73  ....EK.........s
0EF0: 30 31 30 03 80 01 25 0F  02 87 7F 14 80 80 14 0F  010...%.........
0F00: 45 4B 80 F0 FF FF 7F F0  FF FF 7F 73 30 31 30 03  EK.........s010.
0F10: 80 01 25 0F 45 05 80 F0  FF FF 7F F0 FF FF 7F 73  ..%.E..........s
0F20: 30 33 30 03 80 5C 00 57  80 5C 01 57 80 9A 1A F9  030..\.W.\.W....
0F30: 27 29 05 8F 40 0F 01 3A  1A 84 3C 02 0E 00 03 80  ')..@..:..<.....
0F40: 80 4E 0F 2B 8C 40 0F 01  79 80 23 01 D3 0F 02 0E  .N.+.@..y.#.....
0F50: 00 0A 80 80 61 0F 2B 8C  40 0F 01 7A 80 23 01 D3  ....a.+.@..z.#..
0F60: 0F 02 0E 00 0C 80 80 74  0F 2B 8C 40 0F 01 7B 80  .......t.+.@..{.
0F70: 23 01 D3 0F 02 0E 00 0E  80 80 87 0F 2B 8C 40 0F  #...........+.@.
0F80: 01 7C 80 23 01 D3 0F 02  0E 00 10 80 80 9A 0F 2B  .|.#...........+
0F90: 8C 40 0F 01 7D 80 23 01  D3 0F 02 0E 00 12 80 80  .@..}.#.........
0FA0: AD 0F 2B 8C 40 0F 01 7E  80 23 01 D3 0F 02 0E 00  ..+.@..~.#......
0FB0: 14 80 80 C0 0F 2B 8C 40  0F 01 7F 80 23 01 D3 0F  .....+.@....#...
0FC0: 02 0E 00 16 80 80 D3 0F  2B 8C 40 0F 01 80 80 23  ........+.@....#
0FD0: 01 D3 0F 6E F0 FF FF 7F  14 80 99 F0 FF FF 7F 1C  ...n............
0FE0: 06 80 02 87 7F 12 80 80  FC 0F 52 4B 80 F0 FF FF  ..........RK....
0FF0: 7F F0 FF FF 7F 73 30 31  30 01 25 10 02 87 7F 14  .....s010.%.....
1000: 80 80 16 10 52 4B 80 F0  FF FF 7F F0 FF FF 7F 73  ....RK.........s
1010: 30 31 30 01 25 10 52 05  80 F0 FF FF 7F F0 FF FF  010.%.R.........
1020: 7F 73 30 33 30 45 05 80  F0 FF FF 7F F0 FF FF 7F  .s030E..........
1030: 73 30 33 31 03 80 1C 08  80 66 07 80 8C 40 0F 01  s031.....f...@..
1040: 8C 40 0F 01 74 68 6B 31  29 05 8F 40 0F 01 3A 1A  .@..thk1)..@..:.
1050: 84 3C 02 0E 00 03 80 80  65 10 2B 8C 40 0F 01 81  .<......e.+.@...
1060: 80 23 01 EA 10 02 0E 00  0A 80 80 78 10 2B 8C 40  .#.........x.+.@
1070: 0F 01 82 80 23 01 EA 10  02 0E 00 0C 80 80 8B 10  ....#...........
1080: 2B 8C 40 0F 01 83 80 23  01 EA 10 02 0E 00 0E 80  +.@....#........
1090: 80 9E 10 2B 8C 40 0F 01  84 80 23 01 EA 10 02 0E  ...+.@....#.....
10A0: 00 10 80 80 B1 10 2B 8C  40 0F 01 85 80 23 01 EA  ......+.@....#..
10B0: 10 02 0E 00 12 80 80 C4  10 2B 8C 40 0F 01 86 80  .........+.@....
10C0: 23 01 EA 10 02 0E 00 14  80 80 D7 10 2B 8C 40 0F  #...........+.@.
10D0: 01 87 80 23 01 EA 10 02  0E 00 16 80 80 EA 10 2B  ...#...........+
10E0: 8C 40 0F 01 88 80 23 01  EA 10 66 07 80 8C 40 0F  .@....#...f...@.
10F0: 01 8C 40 0F 01 74 68 6B  32 2B 8C 40 0F 01 89 80  ..@..thk2+.@....
1100: 23 1C 06 80 1A A5 27 45  05 80 F0 FF FF 7F F0 FF  #.....'E........
1110: FF 7F 73 30 33 31 03 80  92 00 98 40 0F 01 46 00  ..s031.....@..F.
1120: 1C 28 80 1A E7 27 21 00                           .(...'!.        
```

#### Opcodes

```
  0: 0x0E6C [0x42] SET_CLI_EVENT_CANCEL_DATA()
  1: 0x0E6D [0x1A] CALL_SUBROUTINE(address=0x27A5)
  2: 0x0E70 [0x46] CAMERA_CONTROL: Disable user control
  3: 0x0E72 [0x92] Pheauclemand (ID: 17776789/0x010F4095)->Render.Flags3 ^= 0x01
  4: 0x0E78 [0x92] Pheauclemand (ID: 17776790/0x010F4096)->Render.Flags3 ^= 0x01
  5: 0x0E7E [0x92] Luto Mewrilah (ID: 17776780/0x010F408C)->Render.Flags3 ^= 0x01
  6: 0x0E84 [0x92] ??? (ID: 17776792/0x010F4098)->Render.Flags3 ^= 0x01
  7: 0x0E8A [0x92] Pelagia (ID: 17776794/0x010F409A)->Render.Flags3 ^= 0x01
  8: 0x0E90 [0x38] SET_CLIENT_EVENT_MODE(mode=27*)
  9: 0x0E93 [0x4E] SET_ENTITY_HIDE_FLAG: Show LocalPlayer
 10: 0x0E99 [0x29] REQ_SET_WAIT(priority=0x0F, entity_id=Unnamed NPC (ID: 17776783/0x010F408F), tag_num=0x17)
 11: 0x0EA0 [0x80] LOAD_WAIT(entity=Unnamed NPC (ID: 17776783/0x010F408F))
 12: 0x0EA5 [0x27] REQ_SET(priority=0x0A, entity_id=Luto Mewrilah (ID: 17776780/0x010F408C), tag_num=0x31)
 13: 0x0EAC [0xBA] SET_ENTITY_POSITION(entity_id=LocalPlayer, pos_x=-52.248*, pos_z=44.168*, pos_y=-0.199*, direction=0.0°*)
 14: 0x0EB9 [0x4E] SET_ENTITY_HIDE_FLAG: Show LocalPlayer
 15: 0x0EBF [0x4E] SET_ENTITY_HIDE_FLAG: Show Luto Mewrilah (ID: 17776780/0x010F408C)
 16: 0x0EC5 [0x80] LOAD_WAIT(entity=Luto Mewrilah (ID: 17776780/0x010F408C))
 17: 0x0ECA [0x4A] Luto Mewrilah (ID: 17776780/0x010F408C) looks at LocalPlayer
 18: 0x0ED3 [0x4A] LocalPlayer looks at Luto Mewrilah (ID: 17776780/0x010F408C)
 19: 0x0EDC [0x02] IF !(LocalPlayer->Race == 5*) GOTO 0x0EF8
 20: 0x0EE4 [0x45] LOAD_SCHEDULED_TASK: Load scheduler "s010" with entities [LocalPlayer, LocalPlayer], work=[38*, 0*]
 21: 0x0EF5 [0x01] GOTO 0x0F25
 22: 0x0EF8 [0x02] IF !(LocalPlayer->Race == 6*) GOTO 0x0F14
 23: 0x0F00 [0x45] LOAD_SCHEDULED_TASK: Load scheduler "s010" with entities [LocalPlayer, LocalPlayer], work=[38*, 0*]
 24: 0x0F11 [0x01] GOTO 0x0F25
 25: 0x0F14 [0x45] LOAD_SCHEDULED_TASK: Load scheduler "s030" with entities [LocalPlayer, LocalPlayer], work=[37*, 0*]

SUBROUTINE_0F25:
 26: 0x0F25 [0x5C] MUSIC_CONTROL: Set Idle (Day) music to song 110*
 27: 0x0F29 [0x5C] MUSIC_CONTROL: Set Idle (Night) music to song 110*
 28: 0x0F2D [0x9A] WAIT_MUSIC_SERVER()
 29: 0x0F2E [0x1A] CALL_SUBROUTINE(address=0x27F9)
 30: 0x0F31 [0x29] REQ_SET_WAIT(priority=0x05, entity_id=Unnamed NPC (ID: 17776783/0x010F408F), tag_num=0x3A)
 31: 0x0F38 [0x1A] CALL_SUBROUTINE(address=0x3C84)
 32: 0x0F3B [0x02] IF !(ExtData[1]->WorkLocal[14] == 0*) GOTO 0x0F4E
 33: 0x0F43 [0x2B] Luto Mewrilah (ID: 17776780/0x010F408C) [9469*]:
    → "Did you get a hold of [Feliz/Ferdinand/Gunnar/Massimo/Oldrich/Siegward/Theobald/Zenji]? Where is he now?"
 34: 0x0F4A [0x23] WAIT_FOR_DIALOG_INTERACTION
 35: 0x0F4B [0x01] GOTO 0x0FD3
 36: 0x0F4E [0x02] IF !(ExtData[1]->WorkLocal[14] == 1*) GOTO 0x0F61
 37: 0x0F56 [0x2B] Luto Mewrilah (ID: 17776780/0x010F408C) [9470*]:
    → "Did you get a hold of [Amerita/Beatrice/Henrietta/Jesimae/Karyn/Nanako/Sharlene/Sieghilde]? Where is she now?"
 38: 0x0F5D [0x23] WAIT_FOR_DIALOG_INTERACTION
 39: 0x0F5E [0x01] GOTO 0x0FD3
 40: 0x0F61 [0x02] IF !(ExtData[1]->WorkLocal[14] == 2*) GOTO 0x0F74
 41: 0x0F69 [0x2B] Luto Mewrilah (ID: 17776780/0x010F408C) [9471*]:
    → "Did you get a hold of [Chanandit/Deulmaeux/Demresinaux/Ephealgaux/Gauldeval/Grauffemart/Migaifongut/Romidiant]? Where is he now?"
 42: 0x0F70 [0x23] WAIT_FOR_DIALOG_INTERACTION
 43: 0x0F71 [0x01] GOTO 0x0FD3
 44: 0x0F74 [0x02] IF !(ExtData[1]->WorkLocal[14] == 3*) GOTO 0x0F87
 45: 0x0F7C [0x2B] Luto Mewrilah (ID: 17776780/0x010F408C) [9472*]:
    → "Did you get a hold of [Armittie/Cadepure/Clearite/Epilleve/Liabelle/Nauthima/Radille/Vimechue]? Where is she now?"
 46: 0x0F83 [0x23] WAIT_FOR_DIALOG_INTERACTION
 47: 0x0F84 [0x01] GOTO 0x0FD3
 48: 0x0F87 [0x02] IF !(ExtData[1]->WorkLocal[14] == 4*) GOTO 0x0F9A
 49: 0x0F8F [0x2B] Luto Mewrilah (ID: 17776780/0x010F408C) [9473*]:
    → "Did you get a hold of [Balu-Falu/Burg-Ladarg/Ehgo-Ryuhgo/Kolui-Pelui/Nokum-Akkum/Savul-Kivul/Vinja-Kanja/Yarga-Umiga]? Where is he now?"
 50: 0x0F96 [0x23] WAIT_FOR_DIALOG_INTERACTION
 51: 0x0F97 [0x01] GOTO 0x0FD3
 52: 0x0F9A [0x02] IF !(ExtData[1]->WorkLocal[14] == 5*) GOTO 0x0FAD
 53: 0x0FA2 [0x2B] Luto Mewrilah (ID: 17776780/0x010F408C) [9474*]:
    → "Did you get a hold of [Cupapa/Jajuju/Kalokoko/Mahoyaya/Pakurara/Ripokeke/Yawawa/Yufafa]? Where is she now?"
 54: 0x0FA9 [0x23] WAIT_FOR_DIALOG_INTERACTION
 55: 0x0FAA [0x01] GOTO 0x0FD3
 56: 0x0FAD [0x02] IF !(ExtData[1]->WorkLocal[14] == 6*) GOTO 0x0FC0
 57: 0x0FB5 [0x2B] Luto Mewrilah (ID: 17776780/0x010F408C) [9475*]:
    → "Did you get a hold of [Fhig Lahrv/Khuma Tagyawhan/Pimy Kettihl/Raka Maimhov/Sahyu Banjyao/Sufhi Uchnouma/Tsuim Nhomango/Yoli Kohlpaka]? Where is she now?"
 58: 0x0FBC [0x23] WAIT_FOR_DIALOG_INTERACTION
 59: 0x0FBD [0x01] GOTO 0x0FD3
 60: 0x0FC0 [0x02] IF !(ExtData[1]->WorkLocal[14] == 7*) GOTO 0x0FD3
 61: 0x0FC8 [0x2B] Luto Mewrilah (ID: 17776780/0x010F408C) [9476*]:
    → "Did you get a hold of [Durib/Dzapiwa/Jugowa/Mugido/Voldai/Wagwei/Zayag/Zoldof]? Where is he now?"
 62: 0x0FCF [0x23] WAIT_FOR_DIALOG_INTERACTION
 63: 0x0FD0 [0x01] GOTO 0x0FD3

SUBROUTINE_0FD3:
 64: 0x0FD3 [0x6E] LocalPlayer uses emote 6*
 65: 0x0FDA [0x99] Wait for LocalPlayer animation to complete
 66: 0x0FDF [0x1C] WAIT(60* ticks)
 67: 0x0FE2 [0x02] IF !(LocalPlayer->Race == 5*) GOTO 0x0FFC
 68: 0x0FEA [0x52] END_LOAD_SCHEDULER: End scheduler "s010" with entities [LocalPlayer, LocalPlayer], work=38*
 69: 0x0FF9 [0x01] GOTO 0x1025
 70: 0x0FFC [0x02] IF !(LocalPlayer->Race == 6*) GOTO 0x1016
 71: 0x1004 [0x52] END_LOAD_SCHEDULER: End scheduler "s010" with entities [LocalPlayer, LocalPlayer], work=38*
 72: 0x1013 [0x01] GOTO 0x1025
 73: 0x1016 [0x52] END_LOAD_SCHEDULER: End scheduler "s030" with entities [LocalPlayer, LocalPlayer], work=37*

SUBROUTINE_1025:
 74: 0x1025 [0x45] LOAD_SCHEDULED_TASK: Load scheduler "s031" with entities [LocalPlayer, LocalPlayer], work=[37*, 0*]
 75: 0x1036 [0x1C] WAIT(30* ticks)
 76: 0x1039 [0x66] LOAD_EXT_SCHEDULER_MAIN: Load scheduler "thk1" with entities [Luto Mewrilah (ID: 17776780/0x010F408C), Luto Mewrilah (ID: 17776780/0x010F408C)], work=50*
 77: 0x1048 [0x29] REQ_SET_WAIT(priority=0x05, entity_id=Unnamed NPC (ID: 17776783/0x010F408F), tag_num=0x3A)
 78: 0x104F [0x1A] CALL_SUBROUTINE(address=0x3C84)
 79: 0x1052 [0x02] IF !(ExtData[1]->WorkLocal[14] == 0*) GOTO 0x1065
 80: 0x105A [0x2B] Luto Mewrilah (ID: 17776780/0x010F408C) [9477*]:
    → "So he wouldn't tell you... Don't tell me he went rrrunning back to Qufim alone!"
 81: 0x1061 [0x23] WAIT_FOR_DIALOG_INTERACTION
 82: 0x1062 [0x01] GOTO 0x10EA
 83: 0x1065 [0x02] IF !(ExtData[1]->WorkLocal[14] == 1*) GOTO 0x1078
 84: 0x106D [0x2B] Luto Mewrilah (ID: 17776780/0x010F408C) [9478*]:
    → "So she wouldn't tell you... Don't tell me she went rrrunning back to Qufim alone!"
 85: 0x1074 [0x23] WAIT_FOR_DIALOG_INTERACTION
 86: 0x1075 [0x01] GOTO 0x10EA
 87: 0x1078 [0x02] IF !(ExtData[1]->WorkLocal[14] == 2*) GOTO 0x108B
 88: 0x1080 [0x2B] Luto Mewrilah (ID: 17776780/0x010F408C) [9479*]:
    → "So he wouldn't tell you... Don't tell me he went rrrunning back to Qufim alone!"
 89: 0x1087 [0x23] WAIT_FOR_DIALOG_INTERACTION
 90: 0x1088 [0x01] GOTO 0x10EA
 91: 0x108B [0x02] IF !(ExtData[1]->WorkLocal[14] == 3*) GOTO 0x109E
 92: 0x1093 [0x2B] Luto Mewrilah (ID: 17776780/0x010F408C) [9480*]:
    → "So she wouldn't tell you... Don't tell me she went rrrunning back to Qufim alone!"
 93: 0x109A [0x23] WAIT_FOR_DIALOG_INTERACTION
 94: 0x109B [0x01] GOTO 0x10EA
 95: 0x109E [0x02] IF !(ExtData[1]->WorkLocal[14] == 4*) GOTO 0x10B1
 96: 0x10A6 [0x2B] Luto Mewrilah (ID: 17776780/0x010F408C) [9481*]:
    → "So he wouldn't tell you... Don't tell me he went rrrunning back to Qufim alone!"
 97: 0x10AD [0x23] WAIT_FOR_DIALOG_INTERACTION
 98: 0x10AE [0x01] GOTO 0x10EA
 99: 0x10B1 [0x02] IF !(ExtData[1]->WorkLocal[14] == 5*) GOTO 0x10C4
100: 0x10B9 [0x2B] Luto Mewrilah (ID: 17776780/0x010F408C) [9482*]:
    → "So she wouldn't tell you... Don't tell me she went rrrunning back to Qufim alone!"
101: 0x10C0 [0x23] WAIT_FOR_DIALOG_INTERACTION
102: 0x10C1 [0x01] GOTO 0x10EA
103: 0x10C4 [0x02] IF !(ExtData[1]->WorkLocal[14] == 6*) GOTO 0x10D7
104: 0x10CC [0x2B] Luto Mewrilah (ID: 17776780/0x010F408C) [9483*]:
    → "So she wouldn't tell you... Don't tell me she went rrrunning back to Qufim alone!"
105: 0x10D3 [0x23] WAIT_FOR_DIALOG_INTERACTION
106: 0x10D4 [0x01] GOTO 0x10EA
107: 0x10D7 [0x02] IF !(ExtData[1]->WorkLocal[14] == 7*) GOTO 0x10EA
108: 0x10DF [0x2B] Luto Mewrilah (ID: 17776780/0x010F408C) [9484*]:
    → "So he wouldn't tell you... Don't tell me he went rrrunning back to Qufim alone!"
109: 0x10E6 [0x23] WAIT_FOR_DIALOG_INTERACTION
110: 0x10E7 [0x01] GOTO 0x10EA

SUBROUTINE_10EA:
111: 0x10EA [0x66] LOAD_EXT_SCHEDULER_MAIN: Load scheduler "thk2" with entities [Luto Mewrilah (ID: 17776780/0x010F408C), Luto Mewrilah (ID: 17776780/0x010F408C)], work=50*
112: 0x10F9 [0x2B] Luto Mewrilah (ID: 17776780/0x010F408C) [9485*]:
    → "Such foolish behavior for someone who's injurrred. <Player>, you should go make sure nothing bad happens again!"
113: 0x1100 [0x23] WAIT_FOR_DIALOG_INTERACTION
114: 0x1101 [0x1C] WAIT(60* ticks)
115: 0x1104 [0x1A] CALL_SUBROUTINE(address=0x27A5)
