# 17776648 - Wolfgang

## Common Data

| Field            | Value                 |
|------------------|-----------------------|
| Zone             | Upper Jeuno (ID: 244) |
| Block Size       | 912 bytes             |
| Total Events     | 27                    |
| References Count | 53                    |

## List of Events

| Event ID                   | Entrypoint   |   Size |   Instructions |
|----------------------------|--------------|--------|----------------|
| [65535](#event-65535)      | 0x0000       |     12 |              4 |
| [2](#event-2)              | 0x000C       |     16 |              3 |
| [65535.1](#event-655351)   | 0x001C       |     24 |              5 |
| [65535.2](#event-655352)   | 0x0034       |     15 |              5 |
| [65535.3](#event-655353)   | 0x0043       |     21 |              5 |
| [207](#event-207)          | 0x0058       |     26 |              4 |
| [65535.4](#event-655354)   | 0x0072       |     26 |              7 |
| [106](#event-106)          | 0x008C       |     10 |              2 |
| [192](#event-192)          | 0x0096       |     10 |              2 |
| [65535.5](#event-655355)   | 0x00A0       |     35 |              8 |
| [65535.6](#event-655356)   | 0x00C3       |     16 |              4 |
| [65535.7](#event-655357)   | 0x00D3       |     11 |              3 |
| [65535.8](#event-655358)   | 0x00DE       |      6 |              2 |
| [65535.9](#event-655359)   | 0x00E4       |     29 |              3 |
| [65535.10](#event-6553510) | 0x0101       |     48 |             11 |
| [65535.11](#event-6553511) | 0x0131       |     19 |              3 |
| [65535.12](#event-6553512) | 0x0144       |     29 |              3 |
| [65535.13](#event-6553513) | 0x0161       |     19 |              3 |
| [65535.14](#event-6553514) | 0x0174       |     29 |              3 |
| [65535.15](#event-6553515) | 0x0191       |      1 |              1 |
| [81](#event-81)            | 0x0192       |     18 |              4 |
| [65535.16](#event-6553516) | 0x01A4       |     19 |              3 |
| [65535.17](#event-6553517) | 0x01B7       |     29 |              3 |
| [65535.18](#event-6553518) | 0x01D4       |     19 |              3 |
| [65535.19](#event-6553519) | 0x01E7       |     29 |              3 |
| [65535.20](#event-6553520) | 0x0204       |     29 |              3 |
| [65535.21](#event-6553521) | 0x0221       |     29 |              3 |

## DAT References (imed_data)

|   Index | Hex Value   |   Dec Value |
|---------|-------------|-------------|
|       0 | 0x000D      |          13 |
|       1 | 0xFFFF184B  |  4294907979 |
|       2 | 0x03DA      |         986 |
|       3 | 0xFFFFFE0C  |  4294966796 |
|       4 | 0x036A      |         874 |
|       5 | 0xFFFF19AE  |  4294908334 |
|       6 | 0xFFFFFE2E  |  4294966830 |
|       7 | 0xFFFF1A84  |  4294908548 |
|       8 | 0x0EE9      |        3817 |
|       9 | 0x0ACA      |        2762 |
|      10 | 0xFFFF0A41  |  4294904385 |
|      11 | 0x2BA0      |       11168 |
|      12 | 0x03E8      |        1000 |
|      13 | 0xFFFF1B02  |  4294908674 |
|      14 | 0x3FEF      |       16367 |
|      15 | 0xFFFF070C  |  4294903564 |
|      16 | 0x3E1B      |       15899 |
|      17 | 0x0400      |        1024 |
|      18 | 0x0028      |          40 |
|      19 | 0xFFFF48D2  |  4294920402 |
|      20 | 0x791C      |       31004 |
|      21 | 0x0000      |           0 |
|      22 | 0x0F84      |        3972 |
|      23 | 0x1118B     |       70027 |
|      24 | 0x07D0      |        2000 |
|      25 | 0xFFFF9D49  |  4294942025 |
|      26 | 0xFFFF75F6  |  4294931958 |
|      27 | 0x0534      |        1332 |
|      28 | 0x041F      |        1055 |
|      29 | 0xFFFEFD43  |  4294901059 |
|      30 | 0xEBBE      |       60350 |
|      31 | 0xFFFFFB50  |  4294966096 |
|      32 | 0x065E      |        1630 |
|      33 | 0x0078      |         120 |
|      34 | 0xFFFEF7AE  |  4294899630 |
|      35 | 0xE793      |       59283 |
|      36 | 0xFFFFFB47  |  4294966087 |
|      37 | 0xFFFEE786  |  4294895494 |
|      38 | 0xE854      |       59476 |
|      39 | 0xFFFF9CCA  |  4294941898 |
|      40 | 0xFFFF7CC0  |  4294933696 |
|      41 | 0xFFFEF666  |  4294899302 |
|      42 | 0xE896      |       59542 |
|      43 | 0xFFFFFB46  |  4294966086 |
|      44 | 0x0E9A      |        3738 |
|      45 | 0x005A      |          90 |
|      46 | 0xFFFF10B1  |  4294906033 |
|      47 | 0xF6DA      |       63194 |
|      48 | 0x003C      |          60 |
|      49 | 0x7A1A      |       31258 |
|      50 | 0x116CB     |       71371 |
|      51 | 0x07C7      |        1991 |
|      52 | 0x03C4      |         964 |

## Events

### Event 65535

#### Metadata

| Field        | Value    |
|--------------|----------|
| Entrypoint   | 0x0000   |
| Data Size    | 12 bytes |
| Instructions | 4        |

```
      00 01 02 03 04 05 06 07  08 09 0A 0B 0C 0D 0E 0F
      -- -- -- -- -- -- -- --  -- -- -- -- -- -- -- --
0000: 22 01 32 00 80 94 01 F8  FF FF 7F 00              ".2.........    
```

#### Opcodes

```
  0: 0x0000 [0x22] ENTITY_HIDE_FLAG(enabled=0x01)
  1: 0x0002 [0x32] ExtData[1]->MainSpeed = 13* * 0.1
  2: 0x0005 [0x94] EventEntity->Render.Flags3 ^= 0x01
  3: 0x000B [0x00] END_REQSTACK()
```

### Event 2

#### Metadata

| Field        | Value    |
|--------------|----------|
| Entrypoint   | 0x000C   |
| Data Size    | 16 bytes |
| Instructions | 3        |

```
      00 01 02 03 04 05 06 07  08 09 0A 0B 0C 0D 0E 0F
      -- -- -- -- -- -- -- --  -- -- -- -- -- -- -- --
0000:                                      37 01 80 02              7...
0010: 80 03 80 04 80 92 01 F8  FF FF 7F 00              ............    
```

#### Opcodes

```
  0: 0x000C [0x37] UPDATE_EVENT_POSITION_AND_DIR: x=-59.317*, z=0.986*, y=-0.500*, direction=76.8°*
  1: 0x0015 [0x92] EventEntity->Render.Flags3 ^= 0x01
  2: 0x001B [0x00] END_REQSTACK()
```

### Event 65535.1

#### Metadata

| Field        | Value    |
|--------------|----------|
| Entrypoint   | 0x001C   |
| Data Size    | 24 bytes |
| Instructions | 5        |

```
      00 01 02 03 04 05 06 07  08 09 0A 0B 0C 0D 0E 0F
      -- -- -- -- -- -- -- --  -- -- -- -- -- -- -- --
0010:                                      32 00 80 79              2..y
0020: 00 F8 FF FF 7F 01 40 0F  01 1F 00 05 80 06 80 03  ......@.........
0030: 80 1F 01 00                                       ....            
```

#### Opcodes

```
  0: 0x001C [0x32] ExtData[1]->MainSpeed = 13* * 0.1
  1: 0x001F [0x79] EventEntity looks at Monberaux (ID: 17776641/0x010F4001) (Basic look)
  2: 0x0029 [0x1F] MOVE_ENTITY: EventEntity moves to X=-58.962*, Z=-0.466*, Y=-0.500*
  3: 0x0031 [0x1F] MOVE_ENTITY: Update entity position (mode=1)
  4: 0x0033 [0x00] END_REQSTACK()
```

### Event 65535.2

#### Metadata

| Field        | Value    |
|--------------|----------|
| Entrypoint   | 0x0034   |
| Data Size    | 15 bytes |
| Instructions | 5        |

```
      00 01 02 03 04 05 06 07  08 09 0A 0B 0C 0D 0E 0F
      -- -- -- -- -- -- -- --  -- -- -- -- -- -- -- --
0030:             1F 00 07 80  08 80 03 80 1F 01 6F 39      ..........o9
0040: 09 80 00                                          ...             
```

#### Opcodes

```
  0: 0x0034 [0x1F] MOVE_ENTITY: EventEntity moves to X=-58.748*, Z=3.817*, Y=-0.500*
  1: 0x003C [0x1F] MOVE_ENTITY: Update entity position (mode=1)
  2: 0x003E [0x6F] WAIT_FRAME_DELAY: Yield until WaitTime reaches zero
  3: 0x003F [0x39] SET_ENTITY_DIRECTION(direction=15.2°*)
  4: 0x0042 [0x00] END_REQSTACK()
```

### Event 65535.3

#### Metadata

| Field        | Value    |
|--------------|----------|
| Entrypoint   | 0x0043   |
| Data Size    | 21 bytes |
| Instructions | 5        |

```
      00 01 02 03 04 05 06 07  08 09 0A 0B 0C 0D 0E 0F
      -- -- -- -- -- -- -- --  -- -- -- -- -- -- -- --
0040:          1F 00 0A 80 0B  80 0C 80 1F 01 1F 00 0D     .............
0050: 80 0E 80 0C 80 1F 01 00                           ........        
```

#### Opcodes

```
  0: 0x0043 [0x1F] MOVE_ENTITY: EventEntity moves to X=-62.911*, Z=11.168*, Y=1.000*
  1: 0x004B [0x1F] MOVE_ENTITY: Update entity position (mode=1)
  2: 0x004D [0x1F] MOVE_ENTITY: EventEntity moves to X=-58.622*, Z=16.367*, Y=1.000*
  3: 0x0055 [0x1F] MOVE_ENTITY: Update entity position (mode=1)
  4: 0x0057 [0x00] END_REQSTACK()
```

### Event 207

#### Metadata

| Field        | Value    |
|--------------|----------|
| Entrypoint   | 0x0058   |
| Data Size    | 26 bytes |
| Instructions | 4        |

```
      00 01 02 03 04 05 06 07  08 09 0A 0B 0C 0D 0E 0F
      -- -- -- -- -- -- -- --  -- -- -- -- -- -- -- --
0050:                          37 0F 80 10 80 0C 80 11          7.......
0060: 80 79 00 F8 FF FF 7F 01  40 0F 01 92 01 F8 FF FF  .y......@.......
0070: 7F 00                                             ..              
```

#### Opcodes

```
  0: 0x0058 [0x37] UPDATE_EVENT_POSITION_AND_DIR: x=-63.732*, z=15.899*, y=1.000*, direction=90.0°*
  1: 0x0061 [0x79] EventEntity looks at Monberaux (ID: 17776641/0x010F4001) (Basic look)
  2: 0x006B [0x92] EventEntity->Render.Flags3 ^= 0x01
  3: 0x0071 [0x00] END_REQSTACK()
```

### Event 65535.4

#### Metadata

| Field        | Value    |
|--------------|----------|
| Entrypoint   | 0x0072   |
| Data Size    | 26 bytes |
| Instructions | 7        |

```
      00 01 02 03 04 05 06 07  08 09 0A 0B 0C 0D 0E 0F
      -- -- -- -- -- -- -- --  -- -- -- -- -- -- -- --
0070:       32 12 80 1F 00 13  80 14 80 15 80 1F 01 1F    2.............
0080: 00 16 80 17 80 18 80 1F  01 22 01 00              ........."..    
```

#### Opcodes

```
  0: 0x0072 [0x32] ExtData[1]->MainSpeed = 40* * 0.1
  1: 0x0075 [0x1F] MOVE_ENTITY: EventEntity moves to X=-46.894*, Z=31.004*, Y=0.000*
  2: 0x007D [0x1F] MOVE_ENTITY: Update entity position (mode=1)
  3: 0x007F [0x1F] MOVE_ENTITY: EventEntity moves to X=3.972*, Z=70.027*, Y=2.000*
  4: 0x0087 [0x1F] MOVE_ENTITY: Update entity position (mode=1)
  5: 0x0089 [0x22] ENTITY_HIDE_FLAG(enabled=0x01)
  6: 0x008B [0x00] END_REQSTACK()
```

### Event 106

#### Metadata

| Field        | Value    |
|--------------|----------|
| Entrypoint   | 0x008C   |
| Data Size    | 10 bytes |
| Instructions | 2        |

```
      00 01 02 03 04 05 06 07  08 09 0A 0B 0C 0D 0E 0F
      -- -- -- -- -- -- -- --  -- -- -- -- -- -- -- --
0080:                                      37 19 80 1A              7...
0090: 80 1B 80 1C 80 00                                 ......          
```

#### Opcodes

```
  0: 0x008C [0x37] UPDATE_EVENT_POSITION_AND_DIR: x=-25.271*, z=-35.338*, y=1.332*, direction=92.7°*
  1: 0x0095 [0x00] END_REQSTACK()
```

### Event 192

#### Metadata

| Field        | Value    |
|--------------|----------|
| Entrypoint   | 0x0096   |
| Data Size    | 10 bytes |
| Instructions | 2        |

```
      00 01 02 03 04 05 06 07  08 09 0A 0B 0C 0D 0E 0F
      -- -- -- -- -- -- -- --  -- -- -- -- -- -- -- --
0090:                   37 1D  80 1E 80 1F 80 20 80 00        7...... ..
```

#### Opcodes

```
  0: 0x0096 [0x37] UPDATE_EVENT_POSITION_AND_DIR: x=-66.237*, z=60.350*, y=-1.200*, direction=143.3°*
  1: 0x009F [0x00] END_REQSTACK()
```

### Event 65535.5

#### Metadata

| Field        | Value    |
|--------------|----------|
| Entrypoint   | 0x00A0   |
| Data Size    | 35 bytes |
| Instructions | 8        |

```
      00 01 02 03 04 05 06 07  08 09 0A 0B 0C 0D 0E 0F
      -- -- -- -- -- -- -- --  -- -- -- -- -- -- -- --
00A0: 22 00 27 03 67 40 0F 01  04 1C 21 80 1F 00 22 80  ".'.g@....!...".
00B0: 23 80 24 80 1F 01 1E 1B  40 0F 01 27 04 67 40 0F  #.$.....@..'.g@.
00C0: 01 05 00                                          ...             
```

#### Opcodes

```
  0: 0x00A0 [0x22] ENTITY_HIDE_FLAG(enabled=0x00)
  1: 0x00A2 [0x27] REQ_SET(priority=0x03, entity_id=Door:House (ID: 17776743/0x010F4067), tag_num=0x04)
  2: 0x00A9 [0x1C] WAIT(120* ticks)
  3: 0x00AC [0x1F] MOVE_ENTITY: EventEntity moves to X=-67.666*, Z=59.283*, Y=-1.209*
  4: 0x00B4 [0x1F] MOVE_ENTITY: Update entity position (mode=1)
  5: 0x00B6 [0x1E] EventEntity looks at Ilumida (ID: 17776667/0x010F401B) and starts talking
  6: 0x00BB [0x27] REQ_SET(priority=0x04, entity_id=Door:House (ID: 17776743/0x010F4067), tag_num=0x05)
  7: 0x00C2 [0x00] END_REQSTACK()
```

### Event 65535.6

#### Metadata

| Field        | Value    |
|--------------|----------|
| Entrypoint   | 0x00C3   |
| Data Size    | 16 bytes |
| Instructions | 4        |

```
      00 01 02 03 04 05 06 07  08 09 0A 0B 0C 0D 0E 0F
      -- -- -- -- -- -- -- --  -- -- -- -- -- -- -- --
00C0:          1F 00 25 80 26  80 24 80 1F 01 1E 1B 40     ..%.&.$.....@
00D0: 0F 01 00                                          ...             
```

#### Opcodes

```
  0: 0x00C3 [0x1F] MOVE_ENTITY: EventEntity moves to X=-71.802*, Z=59.476*, Y=-1.209*
  1: 0x00CB [0x1F] MOVE_ENTITY: Update entity position (mode=1)
  2: 0x00CD [0x1E] EventEntity looks at Ilumida (ID: 17776667/0x010F401B) and starts talking
  3: 0x00D2 [0x00] END_REQSTACK()
```

### Event 65535.7

#### Metadata

| Field        | Value    |
|--------------|----------|
| Entrypoint   | 0x00D3   |
| Data Size    | 11 bytes |
| Instructions | 3        |

```
      00 01 02 03 04 05 06 07  08 09 0A 0B 0C 0D 0E 0F
      -- -- -- -- -- -- -- --  -- -- -- -- -- -- -- --
00D0:          1F 00 27 80 28  80 1B 80 1F 01 00           ..'.(......  
```

#### Opcodes

```
  0: 0x00D3 [0x1F] MOVE_ENTITY: EventEntity moves to X=-25.398*, Z=-33.600*, Y=1.332*
  1: 0x00DB [0x1F] MOVE_ENTITY: Update entity position (mode=1)
  2: 0x00DD [0x00] END_REQSTACK()
```

### Event 65535.8

#### Metadata

| Field        | Value   |
|--------------|---------|
| Entrypoint   | 0x00DE  |
| Data Size    | 6 bytes |
| Instructions | 2       |

```
      00 01 02 03 04 05 06 07  08 09 0A 0B 0C 0D 0E 0F
      -- -- -- -- -- -- -- --  -- -- -- -- -- -- -- --
00D0:                                            1E 01                ..
00E0: 40 0F 01 00                                       @...            
```

#### Opcodes

```
  0: 0x00DE [0x1E] EventEntity looks at Monberaux (ID: 17776641/0x010F4001) and starts talking
  1: 0x00E3 [0x00] END_REQSTACK()
```

### Event 65535.9

#### Metadata

| Field        | Value    |
|--------------|----------|
| Entrypoint   | 0x00E4   |
| Data Size    | 29 bytes |
| Instructions | 3        |

```
      00 01 02 03 04 05 06 07  08 09 0A 0B 0C 0D 0E 0F
      -- -- -- -- -- -- -- --  -- -- -- -- -- -- -- --
00E0:             66 15 80 F8  FF FF 7F F8 FF FF 7F 70      f..........p
00F0: 61 73 30 53 F8 FF FF 7F  F8 FF FF 7F 70 61 73 30  as0S........pas0
0100: 00                                                .               
```

#### Opcodes

```
  0: 0x00E4 [0x66] LOAD_EXT_SCHEDULER_MAIN: Load scheduler "pas0" with entities [EventEntity, EventEntity], work=0*
  1: 0x00F3 [0x53] WAIT_SCHEDULER_TASK: Wait for scheduler "pas0" with entities [EventEntity, EventEntity]
  2: 0x0100 [0x00] END_REQSTACK()
```

### Event 65535.10

#### Metadata

| Field        | Value    |
|--------------|----------|
| Entrypoint   | 0x0101   |
| Data Size    | 48 bytes |
| Instructions | 11       |

```
      00 01 02 03 04 05 06 07  08 09 0A 0B 0C 0D 0E 0F
      -- -- -- -- -- -- -- --  -- -- -- -- -- -- -- --
0100:    1F 00 29 80 2A 80 2B  80 1F 01 39 2C 80 1E 67   ..).*.+...9,..g
0110: 40 0F 01 27 03 67 40 0F  01 04 1C 2D 80 1F 00 2E  @..'.g@....-....
0120: 80 2F 80 15 80 1F 01 22  01 27 03 67 40 0F 01 05  ./.....".'.g@...
0130: 00                                                .               
```

#### Opcodes

```
  0: 0x0101 [0x1F] MOVE_ENTITY: EventEntity moves to X=-67.994*, Z=59.542*, Y=-1.210*
  1: 0x0109 [0x1F] MOVE_ENTITY: Update entity position (mode=1)
  2: 0x010B [0x39] SET_ENTITY_DIRECTION(direction=20.5°*)
  3: 0x010E [0x1E] EventEntity looks at Door:House (ID: 17776743/0x010F4067) and starts talking
  4: 0x0113 [0x27] REQ_SET(priority=0x03, entity_id=Door:House (ID: 17776743/0x010F4067), tag_num=0x04)
  5: 0x011A [0x1C] WAIT(90* ticks)
  6: 0x011D [0x1F] MOVE_ENTITY: EventEntity moves to X=-61.263*, Z=63.194*, Y=0.000*
  7: 0x0125 [0x1F] MOVE_ENTITY: Update entity position (mode=1)
  8: 0x0127 [0x22] ENTITY_HIDE_FLAG(enabled=0x01)
  9: 0x0129 [0x27] REQ_SET(priority=0x03, entity_id=Door:House (ID: 17776743/0x010F4067), tag_num=0x05)
 10: 0x0130 [0x00] END_REQSTACK()
```

### Event 65535.11

#### Metadata

| Field        | Value    |
|--------------|----------|
| Entrypoint   | 0x0131   |
| Data Size    | 19 bytes |
| Instructions | 3        |

```
      00 01 02 03 04 05 06 07  08 09 0A 0B 0C 0D 0E 0F
      -- -- -- -- -- -- -- --  -- -- -- -- -- -- -- --
0130:    66 15 80 F8 FF FF 7F  F8 FF FF 7F 74 6C 6B 30   f..........tlk0
0140: 1C 30 80 00                                       .0..            
```

#### Opcodes

```
  0: 0x0131 [0x66] LOAD_EXT_SCHEDULER_MAIN: Load scheduler "tlk0" with entities [EventEntity, EventEntity], work=0*
  1: 0x0140 [0x1C] WAIT(60* ticks)
  2: 0x0143 [0x00] END_REQSTACK()
```

### Event 65535.12

#### Metadata

| Field        | Value    |
|--------------|----------|
| Entrypoint   | 0x0144   |
| Data Size    | 29 bytes |
| Instructions | 3        |

```
      00 01 02 03 04 05 06 07  08 09 0A 0B 0C 0D 0E 0F
      -- -- -- -- -- -- -- --  -- -- -- -- -- -- -- --
0140:             66 15 80 F8  FF FF 7F F8 FF FF 7F 74      f..........t
0150: 65 6E 30 53 F8 FF FF 7F  F8 FF FF 7F 74 65 6E 30  en0S........ten0
0160: 00                                                .               
```

#### Opcodes

```
  0: 0x0144 [0x66] LOAD_EXT_SCHEDULER_MAIN: Load scheduler "ten0" with entities [EventEntity, EventEntity], work=0*
  1: 0x0153 [0x53] WAIT_SCHEDULER_TASK: Wait for scheduler "ten0" with entities [EventEntity, EventEntity]
  2: 0x0160 [0x00] END_REQSTACK()
```

### Event 65535.13

#### Metadata

| Field        | Value    |
|--------------|----------|
| Entrypoint   | 0x0161   |
| Data Size    | 19 bytes |
| Instructions | 3        |

```
      00 01 02 03 04 05 06 07  08 09 0A 0B 0C 0D 0E 0F
      -- -- -- -- -- -- -- --  -- -- -- -- -- -- -- --
0160:    66 15 80 F8 FF FF 7F  F8 FF FF 7F 74 6C 6B 31   f..........tlk1
0170: 1C 30 80 00                                       .0..            
```

#### Opcodes

```
  0: 0x0161 [0x66] LOAD_EXT_SCHEDULER_MAIN: Load scheduler "tlk1" with entities [EventEntity, EventEntity], work=0*
  1: 0x0170 [0x1C] WAIT(60* ticks)
  2: 0x0173 [0x00] END_REQSTACK()
```

### Event 65535.14

#### Metadata

| Field        | Value    |
|--------------|----------|
| Entrypoint   | 0x0174   |
| Data Size    | 29 bytes |
| Instructions | 3        |

```
      00 01 02 03 04 05 06 07  08 09 0A 0B 0C 0D 0E 0F
      -- -- -- -- -- -- -- --  -- -- -- -- -- -- -- --
0170:             66 15 80 F8  FF FF 7F F8 FF FF 7F 74      f..........t
0180: 65 6E 32 53 F8 FF FF 7F  F8 FF FF 7F 74 65 6E 32  en2S........ten2
0190: 00                                                .               
```

#### Opcodes

```
  0: 0x0174 [0x66] LOAD_EXT_SCHEDULER_MAIN: Load scheduler "ten2" with entities [EventEntity, EventEntity], work=0*
  1: 0x0183 [0x53] WAIT_SCHEDULER_TASK: Wait for scheduler "ten2" with entities [EventEntity, EventEntity]
  2: 0x0190 [0x00] END_REQSTACK()
```

### Event 65535.15

#### Metadata

| Field        | Value   |
|--------------|---------|
| Entrypoint   | 0x0191  |
| Data Size    | 1 bytes |
| Instructions | 1       |

```
      00 01 02 03 04 05 06 07  08 09 0A 0B 0C 0D 0E 0F
      -- -- -- -- -- -- -- --  -- -- -- -- -- -- -- --
0190:    00                                              .              
```

#### Opcodes

```
  0: 0x0191 [0x00] END_REQSTACK()
```

### Event 81

#### Metadata

| Field        | Value    |
|--------------|----------|
| Entrypoint   | 0x0192   |
| Data Size    | 18 bytes |
| Instructions | 4        |

```
      00 01 02 03 04 05 06 07  08 09 0A 0B 0C 0D 0E 0F
      -- -- -- -- -- -- -- --  -- -- -- -- -- -- -- --
0190:       22 01 94 01 F8 FF  FF 7F 37 31 80 32 80 33    ".......71.2.3
01A0: 80 34 80 00                                       .4..            
```

#### Opcodes

```
  0: 0x0192 [0x22] ENTITY_HIDE_FLAG(enabled=0x01)
  1: 0x0194 [0x94] EventEntity->Render.Flags3 ^= 0x01
  2: 0x019A [0x37] UPDATE_EVENT_POSITION_AND_DIR: x=31.258*, z=71.371*, y=1.991*, direction=84.7°*
  3: 0x01A3 [0x00] END_REQSTACK()
```

### Event 65535.16

#### Metadata

| Field        | Value    |
|--------------|----------|
| Entrypoint   | 0x01A4   |
| Data Size    | 19 bytes |
| Instructions | 3        |

```
      00 01 02 03 04 05 06 07  08 09 0A 0B 0C 0D 0E 0F
      -- -- -- -- -- -- -- --  -- -- -- -- -- -- -- --
01A0:             66 15 80 F8  FF FF 7F F8 FF FF 7F 74      f..........t
01B0: 6C 6B 31 1C 30 80 00                              lk1.0..         
```

#### Opcodes

```
  0: 0x01A4 [0x66] LOAD_EXT_SCHEDULER_MAIN: Load scheduler "tlk1" with entities [EventEntity, EventEntity], work=0*
  1: 0x01B3 [0x1C] WAIT(60* ticks)
  2: 0x01B6 [0x00] END_REQSTACK()
```

### Event 65535.17

#### Metadata

| Field        | Value    |
|--------------|----------|
| Entrypoint   | 0x01B7   |
| Data Size    | 29 bytes |
| Instructions | 3        |

```
      00 01 02 03 04 05 06 07  08 09 0A 0B 0C 0D 0E 0F
      -- -- -- -- -- -- -- --  -- -- -- -- -- -- -- --
01B0:                      66  15 80 F8 FF FF 7F F8 FF         f........
01C0: FF 7F 74 65 6E 31 53 F8  FF FF 7F F8 FF FF 7F 74  ..ten1S........t
01D0: 65 6E 31 00                                       en1.            
```

#### Opcodes

```
  0: 0x01B7 [0x66] LOAD_EXT_SCHEDULER_MAIN: Load scheduler "ten1" with entities [EventEntity, EventEntity], work=0*
  1: 0x01C6 [0x53] WAIT_SCHEDULER_TASK: Wait for scheduler "ten1" with entities [EventEntity, EventEntity]
  2: 0x01D3 [0x00] END_REQSTACK()
```

### Event 65535.18

#### Metadata

| Field        | Value    |
|--------------|----------|
| Entrypoint   | 0x01D4   |
| Data Size    | 19 bytes |
| Instructions | 3        |

```
      00 01 02 03 04 05 06 07  08 09 0A 0B 0C 0D 0E 0F
      -- -- -- -- -- -- -- --  -- -- -- -- -- -- -- --
01D0:             66 15 80 F8  FF FF 7F F8 FF FF 7F 74      f..........t
01E0: 6C 6B 30 1C 30 80 00                              lk0.0..         
```

#### Opcodes

```
  0: 0x01D4 [0x66] LOAD_EXT_SCHEDULER_MAIN: Load scheduler "tlk0" with entities [EventEntity, EventEntity], work=0*
  1: 0x01E3 [0x1C] WAIT(60* ticks)
  2: 0x01E6 [0x00] END_REQSTACK()
```

### Event 65535.19

#### Metadata

| Field        | Value    |
|--------------|----------|
| Entrypoint   | 0x01E7   |
| Data Size    | 29 bytes |
| Instructions | 3        |

```
      00 01 02 03 04 05 06 07  08 09 0A 0B 0C 0D 0E 0F
      -- -- -- -- -- -- -- --  -- -- -- -- -- -- -- --
01E0:                      66  15 80 F8 FF FF 7F F8 FF         f........
01F0: FF 7F 74 65 6E 30 53 F8  FF FF 7F F8 FF FF 7F 74  ..ten0S........t
0200: 65 6E 30 00                                       en0.            
```

#### Opcodes

```
  0: 0x01E7 [0x66] LOAD_EXT_SCHEDULER_MAIN: Load scheduler "ten0" with entities [EventEntity, EventEntity], work=0*
  1: 0x01F6 [0x53] WAIT_SCHEDULER_TASK: Wait for scheduler "ten0" with entities [EventEntity, EventEntity]
  2: 0x0203 [0x00] END_REQSTACK()
```

### Event 65535.20

#### Metadata

| Field        | Value    |
|--------------|----------|
| Entrypoint   | 0x0204   |
| Data Size    | 29 bytes |
| Instructions | 3        |

```
      00 01 02 03 04 05 06 07  08 09 0A 0B 0C 0D 0E 0F
      -- -- -- -- -- -- -- --  -- -- -- -- -- -- -- --
0200:             66 15 80 F8  FF FF 7F F8 FF FF 7F 74      f..........t
0210: 68 6B 31 53 F8 FF FF 7F  F8 FF FF 7F 74 68 6B 31  hk1S........thk1
0220: 00                                                .               
```

#### Opcodes

```
  0: 0x0204 [0x66] LOAD_EXT_SCHEDULER_MAIN: Load scheduler "thk1" with entities [EventEntity, EventEntity], work=0*
  1: 0x0213 [0x53] WAIT_SCHEDULER_TASK: Wait for scheduler "thk1" with entities [EventEntity, EventEntity]
  2: 0x0220 [0x00] END_REQSTACK()
```

### Event 65535.21

#### Metadata

| Field        | Value    |
|--------------|----------|
| Entrypoint   | 0x0221   |
| Data Size    | 29 bytes |
| Instructions | 3        |

```
      00 01 02 03 04 05 06 07  08 09 0A 0B 0C 0D 0E 0F
      -- -- -- -- -- -- -- --  -- -- -- -- -- -- -- --
0220:    66 15 80 F8 FF FF 7F  F8 FF FF 7F 74 68 6B 32   f..........thk2
0230: 53 F8 FF FF 7F F8 FF FF  7F 74 68 6B 32 00        S........thk2.  
```

#### Opcodes

```
  0: 0x0221 [0x66] LOAD_EXT_SCHEDULER_MAIN: Load scheduler "thk2" with entities [EventEntity, EventEntity], work=0*
  1: 0x0230 [0x53] WAIT_SCHEDULER_TASK: Wait for scheduler "thk2" with entities [EventEntity, EventEntity]
  2: 0x023D [0x00] END_REQSTACK()
```
