# 17776875

## Common Data

| Field            | Value                 |
|------------------|-----------------------|
| Zone             | Upper Jeuno (ID: 244) |
| Block Size       | 4344 bytes            |
| Total Events     | 5                     |
| References Count | 90                    |

## List of Events

| Event ID              | Entrypoint   |   Size |   Instructions |
|-----------------------|--------------|--------|----------------|
| [65535](#event-65535) | 0x0000       |      1 |              1 |
| [10129](#event-10129) | 0x0001       |    603 |             69 |
| [10131](#event-10131) | 0x025C       |    508 |             55 |
| [10133](#event-10133) | 0x0458       |   1574 |            165 |
| [10136](#event-10136) | 0x0A7E       |   1259 |            133 |

## DAT References (imed_data)

|   Index | Hex Value   |   Dec Value |
|---------|-------------|-------------|
|       0 | 0x00C8      |         200 |
|       1 | 0x0000      |           0 |
|       2 | 0x0013      |          19 |
|       3 | 0xFFFF25FA  |  4294911482 |
|       4 | 0x191CE     |      102862 |
|       5 | 0x02B9      |         697 |
|       6 | 0xFFFF24C9  |  4294911177 |
|       7 | 0x185EC     |       99820 |
|       8 | 0x0A82      |        2690 |
|       9 | 0x001E      |          30 |
|      10 | 0x04E4      |        1252 |
|      11 | 0x014F      |         335 |
|      12 | 0x000F      |          15 |
|      13 | 0x2E57      |       11863 |
|      14 | 0x2E58      |       11864 |
|      15 | 0x0042      |          66 |
|      16 | 0x00D2      |         210 |
|      17 | 0x2E59      |       11865 |
|      18 | 0x2E5A      |       11866 |
|      19 | 0x2E5B      |       11867 |
|      20 | 0x2E5C      |       11868 |
|      21 | 0x2E5D      |       11869 |
|      22 | 0x003C      |          60 |
|      23 | 0xFFFF2241  |  4294910529 |
|      24 | 0x1950B     |      103691 |
|      25 | 0x0364      |         868 |
|      26 | 0x2E5F      |       11871 |
|      27 | 0x0032      |          50 |
|      28 | 0x2E60      |       11872 |
|      29 | 0x2E61      |       11873 |
|      30 | 0x2E62      |       11874 |
|      31 | 0x2E63      |       11875 |
|      32 | 0x2E64      |       11876 |
|      33 | 0xFFFF1AF9  |  4294908665 |
|      34 | 0x1805F     |       98399 |
|      35 | 0x0211      |         529 |
|      36 | 0x2E66      |       11878 |
|      37 | 0x2E67      |       11879 |
|      38 | 0x000D      |          13 |
|      39 | 0x2E68      |       11880 |
|      40 | 0x2E69      |       11881 |
|      41 | 0x2E6A      |       11882 |
|      42 | 0x2E6B      |       11883 |
|      43 | 0x2E6C      |       11884 |
|      44 | 0x2E6D      |       11885 |
|      45 | 0x2E6E      |       11886 |
|      46 | 0x2E6F      |       11887 |
|      47 | 0x2E70      |       11888 |
|      48 | 0x2E71      |       11889 |
|      49 | 0x2E72      |       11890 |
|      50 | 0xFFFF2417  |  4294910999 |
|      51 | 0x18E01     |      101889 |
|      52 | 0x0A47      |        2631 |
|      53 | 0x2E73      |       11891 |
|      54 | 0xFFFF2636  |  4294911542 |
|      55 | 0x1942C     |      103468 |
|      56 | 0x2E74      |       11892 |
|      57 | 0xFFFF2464  |  4294911076 |
|      58 | 0x18DAD     |      101805 |
|      59 | 0x0A5E      |        2654 |
|      60 | 0x0034      |          52 |
|      61 | 0x2E75      |       11893 |
|      62 | 0x2E76      |       11894 |
|      63 | 0x2E77      |       11895 |
|      64 | 0x00C9      |         201 |
|      65 | 0x2E7A      |       11898 |
|      66 | 0x2E7B      |       11899 |
|      67 | 0x0041      |          65 |
|      68 | 0x2E7C      |       11900 |
|      69 | 0x2E7D      |       11901 |
|      70 | 0x2E7E      |       11902 |
|      71 | 0x0006      |           6 |
|      72 | 0x005A      |          90 |
|      73 | 0x2E7F      |       11903 |
|      74 | 0x2E80      |       11904 |
|      75 | 0x2E81      |       11905 |
|      76 | 0x2E82      |       11906 |
|      77 | 0x0001      |           1 |
|      78 | 0x0052      |          82 |
|      79 | 0x0009      |           9 |
|      80 | 0x18EC6     |      102086 |
|      81 | 0x6B6BF     |      439999 |
|      82 | 0x1662      |        5730 |
|      83 | 0x07F9      |        2041 |
|      84 | 0x04FC      |        1276 |
|      85 | 0x2E83      |       11907 |
|      86 | 0x00F4      |         244 |
|      87 | 0x2E84      |       11908 |
|      88 | 0x2E85      |       11909 |
|      89 | 0x2E86      |       11910 |

## Events

### Event 65535

#### Metadata

| Field        | Value   |
|--------------|---------|
| Entrypoint   | 0x0000  |
| Data Size    | 1 bytes |
| Instructions | 1       |

```
      00 01 02 03 04 05 06 07  08 09 0A 0B 0C 0D 0E 0F
      -- -- -- -- -- -- -- --  -- -- -- -- -- -- -- --
0000: 00                                                .               
```

#### Opcodes

```
  0: 0x0000 [0x00] END_REQSTACK()
```

### Event 10129

#### Metadata

| Field        | Value     |
|--------------|-----------|
| Entrypoint   | 0x0001    |
| Data Size    | 603 bytes |
| Instructions | 69        |

```
      00 01 02 03 04 05 06 07  08 09 0A 0B 0C 0D 0E 0F
      -- -- -- -- -- -- -- --  -- -- -- -- -- -- -- --
0000:    42 45 00 80 F8 FF FF  7F F8 FF FF 7F 66 64 6F   BE..........fdo
0010: 31 01 80 55 00 80 F8 FF  FF 7F F8 FF FF 7F 66 64  1..U..........fd
0020: 6F 31 46 01 38 02 80 27  05 65 40 0F 01 01 27 05  o1F.8..'.e@...'.
0030: 67 40 0F 01 05 27 10 BB  40 0F 01 09 27 10 BC 40  g@...'..@...'..@
0040: 0F 01 05 92 01 BD 40 0F  01 92 01 BC 40 0F 01 92  ......@.....@...
0050: 01 BB 40 0F 01 2F 00 BD  40 0F 01 4E 00 BD 40 0F  ..@../..@..N..@.
0060: 01 80 BD 40 0F 01 94 01  BD 40 0F 01 BA F0 FF FF  ...@.....@......
0070: 7F 03 80 04 80 01 80 05  80 BA BB 40 0F 01 06 80  ...........@....
0080: 07 80 01 80 08 80 80 F0  FF FF 7F 80 BB 40 0F 01  .............@..
0090: 4A BD 40 0F 01 F0 FF FF  7F 4A F0 FF FF 7F BD 40  J.@......J.....@
00A0: 0F 01 1C 09 80 5B 0A 80  BD 40 0F 01 BD 40 0F 01  .....[...@...@..
00B0: 66 75 6E 30 53 BD 40 0F  01 BD 40 0F 01 66 75 6E  fun0S.@...@..fun
00C0: 30 45 0B 80 F8 FF FF 7F  F8 FF FF 7F 73 30 36 34  0E..........s064
00D0: 01 80 1C 0C 80 45 00 80  F8 FF FF 7F F8 FF FF 7F  .....E..........
00E0: 66 64 69 31 01 80 55 00  80 F8 FF FF 7F F8 FF FF  fdi1..U.........
00F0: 7F 66 64 69 31 2B BD 40  0F 01 0D 80 23 52 0B 80  .fdi1+.@....#R..
0100: F8 FF FF 7F F8 FF FF 7F  73 30 36 34 45 0B 80 F8  ........s064E...
0110: FF FF 7F F8 FF FF 7F 73  30 36 35 01 80 2B BD 40  .......s065..+.@
0120: 0F 01 0E 80 23 52 0B 80  F8 FF FF 7F F8 FF FF 7F  ....#R..........
0130: 73 30 36 35 45 0B 80 F8  FF FF 7F F8 FF FF 7F 73  s065E..........s
0140: 30 36 36 01 80 6E F0 FF  FF 7F 0F 80 99 F0 FF FF  066..n..........
0150: 7F 1C 10 80 52 0B 80 F8  FF FF 7F F8 FF FF 7F 73  ....R..........s
0160: 30 36 36 45 0B 80 F8 FF  FF 7F F8 FF FF 7F 73 30  066E..........s0
0170: 36 37 01 80 2B BD 40 0F  01 11 80 23 2B BD 40 0F  67..+.@....#+.@.
0180: 01 12 80 23 52 0B 80 F8  FF FF 7F F8 FF FF 7F 73  ...#R..........s
0190: 30 36 37 45 0B 80 F8 FF  FF 7F F8 FF FF 7F 73 30  067E..........s0
01A0: 36 38 01 80 5B 0A 80 BD  40 0F 01 BD 40 0F 01 66  68..[...@...@..f
01B0: 75 6E 31 2B BD 40 0F 01  13 80 23 53 BD 40 0F 01  un1+.@....#S.@..
01C0: BD 40 0F 01 66 75 6E 31  52 0B 80 F8 FF FF 7F F8  .@..fun1R.......
01D0: FF FF 7F 73 30 36 38 45  0B 80 F8 FF FF 7F F8 FF  ...s068E........
01E0: FF 7F 73 30 36 39 01 80  66 02 80 BD 40 0F 01 BD  ..s069..f...@...
01F0: 40 0F 01 74 6C 6B 30 2B  BD 40 0F 01 14 80 23 2B  @..tlk0+.@....#+
0200: BD 40 0F 01 15 80 23 45  00 80 F8 FF FF 7F F8 FF  .@....#E........
0210: FF 7F 66 64 6F 31 01 80  55 00 80 F8 FF FF 7F F8  ..fdo1..U.......
0220: FF FF 7F 66 64 6F 31 52  0B 80 F8 FF FF 7F F8 FF  ...fdo1R........
0230: FF 7F 73 30 36 39 27 10  BB 40 0F 01 08 27 10 BC  ..s069'..@...'..
0240: 40 0F 01 04 46 00 1C 16  80 45 00 80 F8 FF FF 7F  @...F....E......
0250: F8 FF FF 7F 66 64 69 31  01 80 21 00              ....fdi1..!.    
```

#### Opcodes

```
  0: 0x0001 [0x42] SET_CLI_EVENT_CANCEL_DATA()
  1: 0x0002 [0x45] LOAD_SCHEDULED_TASK: Load scheduler "fdo1" with entities [EventEntity, EventEntity], work=[200*, 0*]
  2: 0x0013 [0x55] WAIT_LOAD_SCHEDULER: Wait for scheduler "fdo1" with entities [EventEntity, EventEntity], work=200*
  3: 0x0022 [0x46] CAMERA_CONTROL: Disable user control
  4: 0x0024 [0x38] SET_CLIENT_EVENT_MODE(mode=19*)
  5: 0x0027 [0x27] REQ_SET(priority=0x05, entity_id=Door:M & P's Market (ID: 17776741/0x010F4065), tag_num=0x01)
  6: 0x002E [0x27] REQ_SET(priority=0x05, entity_id=Door:House (ID: 17776743/0x010F4067), tag_num=0x05)
  7: 0x0035 [0x27] REQ_SET(priority=0x10, entity_id=Rhea Myuliah (ID: 17776827/0x010F40BB), tag_num=0x09)
  8: 0x003C [0x27] REQ_SET(priority=0x10, entity_id=Olgald (ID: 17776828/0x010F40BC), tag_num=0x05)
  9: 0x0043 [0x92] Laila (ID: 17776829/0x010F40BD)->Render.Flags3 ^= 0x01
 10: 0x0049 [0x92] Olgald (ID: 17776828/0x010F40BC)->Render.Flags3 ^= 0x01
 11: 0x004F [0x92] Rhea Myuliah (ID: 17776827/0x010F40BB)->Render.Flags3 ^= 0x01
 12: 0x0055 [0x2F] Laila (ID: 17776829/0x010F40BD)->Render.Flags0 &= ~0x80000 // Bit 19
 13: 0x005B [0x4E] SET_ENTITY_HIDE_FLAG: Show Laila (ID: 17776829/0x010F40BD)
 14: 0x0061 [0x80] LOAD_WAIT(entity=Laila (ID: 17776829/0x010F40BD))
 15: 0x0066 [0x94] Laila (ID: 17776829/0x010F40BD)->Render.Flags3 ^= 0x01
 16: 0x006C [0xBA] SET_ENTITY_POSITION(entity_id=LocalPlayer, pos_x=-55.814*, pos_z=102.862*, pos_y=0.000*, direction=61.3°*)
 17: 0x0079 [0xBA] SET_ENTITY_POSITION(entity_id=Rhea Myuliah (ID: 17776827/0x010F40BB), pos_x=-56.119*, pos_z=99.820*, pos_y=0.000*, direction=236.4°*)
 18: 0x0086 [0x80] LOAD_WAIT(entity=LocalPlayer)
 19: 0x008B [0x80] LOAD_WAIT(entity=Rhea Myuliah (ID: 17776827/0x010F40BB))
 20: 0x0090 [0x4A] Laila (ID: 17776829/0x010F40BD) looks at LocalPlayer
 21: 0x0099 [0x4A] LocalPlayer looks at Laila (ID: 17776829/0x010F40BD)
 22: 0x00A2 [0x1C] WAIT(30* ticks)
 23: 0x00A5 [0x5B] LOAD_EXT_SCHEDULER: Load scheduler "fun0" with entities [Laila (ID: 17776829/0x010F40BD), Laila (ID: 17776829/0x010F40BD)], work=1252*
 24: 0x00B4 [0x53] WAIT_SCHEDULER_TASK: Wait for scheduler "fun0" with entities [Laila (ID: 17776829/0x010F40BD), Laila (ID: 17776829/0x010F40BD)]
 25: 0x00C1 [0x45] LOAD_SCHEDULED_TASK: Load scheduler "s064" with entities [EventEntity, EventEntity], work=[335*, 0*]
 26: 0x00D2 [0x1C] WAIT(15* ticks)
 27: 0x00D5 [0x45] LOAD_SCHEDULED_TASK: Load scheduler "fdi1" with entities [EventEntity, EventEntity], work=[200*, 0*]
 28: 0x00E6 [0x55] WAIT_LOAD_SCHEDULER: Wait for scheduler "fdi1" with entities [EventEntity, EventEntity], work=200*
 29: 0x00F5 [0x2B] Laila (ID: 17776829/0x010F40BD) [11863*]:
    → "Why, isn't it <Player>? Been workin' hard on yer steps, have ye?"
 30: 0x00FC [0x23] WAIT_FOR_DIALOG_INTERACTION
 31: 0x00FD [0x52] END_LOAD_SCHEDULER: End scheduler "s064" with entities [EventEntity, EventEntity], work=335*
 32: 0x010C [0x45] LOAD_SCHEDULED_TASK: Load scheduler "s065" with entities [EventEntity, EventEntity], work=[335*, 0*]
 33: 0x011D [0x2B] Laila (ID: 17776829/0x010F40BD) [11864*]:
    → "Why don't ye show me some o' yer moves? Go on, let me see."
 34: 0x0124 [0x23] WAIT_FOR_DIALOG_INTERACTION
 35: 0x0125 [0x52] END_LOAD_SCHEDULER: End scheduler "s065" with entities [EventEntity, EventEntity], work=335*
 36: 0x0134 [0x45] LOAD_SCHEDULED_TASK: Load scheduler "s066" with entities [EventEntity, EventEntity], work=[335*, 0*]
 37: 0x0145 [0x6E] LocalPlayer uses emote 66*
 38: 0x014C [0x99] Wait for LocalPlayer animation to complete
 39: 0x0151 [0x1C] WAIT(210* ticks)
 40: 0x0154 [0x52] END_LOAD_SCHEDULER: End scheduler "s066" with entities [EventEntity, EventEntity], work=335*
 41: 0x0163 [0x45] LOAD_SCHEDULED_TASK: Load scheduler "s067" with entities [EventEntity, EventEntity], work=[335*, 0*]
 42: 0x0174 [0x2B] Laila (ID: 17776829/0x010F40BD) [11865*]:
    → "Hmmm...sharp, conf'dent steps, an' great upper body balance t'boot. Without a doubt, ye've improved."
 43: 0x017B [0x23] WAIT_FOR_DIALOG_INTERACTION
 44: 0x017C [0x2B] Laila (ID: 17776829/0x010F40BD) [11866*]:
    → "Looks like ye've been faithfully rehearsin' the basics o' our martial style, the "Kriegstanz.""
 45: 0x0183 [0x23] WAIT_FOR_DIALOG_INTERACTION
 46: 0x0184 [0x52] END_LOAD_SCHEDULER: End scheduler "s067" with entities [EventEntity, EventEntity], work=335*
 47: 0x0193 [0x45] LOAD_SCHEDULED_TASK: Load scheduler "s068" with entities [EventEntity, EventEntity], work=[335*, 0*]
 48: 0x01A4 [0x5B] LOAD_EXT_SCHEDULER: Load scheduler "fun1" with entities [Laila (ID: 17776829/0x010F40BD), Laila (ID: 17776829/0x010F40BD)], work=1252*
 49: 0x01B3 [0x2B] Laila (ID: 17776829/0x010F40BD) [11867*]:
    → "But yer dance still lacks a certain..."shine.""
 50: 0x01BA [0x23] WAIT_FOR_DIALOG_INTERACTION
 51: 0x01BB [0x53] WAIT_SCHEDULER_TASK: Wait for scheduler "fun1" with entities [Laila (ID: 17776829/0x010F40BD), Laila (ID: 17776829/0x010F40BD)]
 52: 0x01C8 [0x52] END_LOAD_SCHEDULER: End scheduler "s068" with entities [EventEntity, EventEntity], work=335*
 53: 0x01D7 [0x45] LOAD_SCHEDULED_TASK: Load scheduler "s069" with entities [EventEntity, EventEntity], work=[335*, 0*]
 54: 0x01E8 [0x66] LOAD_EXT_SCHEDULER_MAIN: Load scheduler "tlk0" with entities [Laila (ID: 17776829/0x010F40BD), Laila (ID: 17776829/0x010F40BD)], work=19*
 55: 0x01F7 [0x2B] Laila (ID: 17776829/0x010F40BD) [11868*]:
    → "Listen up. What Troupe Brilioth is aimin' fer is a dance style that captivates an' enchants."
 56: 0x01FE [0x23] WAIT_FOR_DIALOG_INTERACTION
 57: 0x01FF [0x2B] Laila (ID: 17776829/0x010F40BD) [11869*]:
    → "I want ye to think about how ye can make yer dance "shine.""
 58: 0x0206 [0x23] WAIT_FOR_DIALOG_INTERACTION
 59: 0x0207 [0x45] LOAD_SCHEDULED_TASK: Load scheduler "fdo1" with entities [EventEntity, EventEntity], work=[200*, 0*]
 60: 0x0218 [0x55] WAIT_LOAD_SCHEDULER: Wait for scheduler "fdo1" with entities [EventEntity, EventEntity], work=200*
 61: 0x0227 [0x52] END_LOAD_SCHEDULER: End scheduler "s069" with entities [EventEntity, EventEntity], work=335*
 62: 0x0236 [0x27] REQ_SET(priority=0x10, entity_id=Rhea Myuliah (ID: 17776827/0x010F40BB), tag_num=0x08)
 63: 0x023D [0x27] REQ_SET(priority=0x10, entity_id=Olgald (ID: 17776828/0x010F40BC), tag_num=0x04)
 64: 0x0244 [0x46] CAMERA_CONTROL: Restore default settings
 65: 0x0246 [0x1C] WAIT(60* ticks)
 66: 0x0249 [0x45] LOAD_SCHEDULED_TASK: Load scheduler "fdi1" with entities [EventEntity, EventEntity], work=[200*, 0*]
 67: 0x025A [0x21] END_EVENT
 68: 0x025B [0x00] END_REQSTACK()
```

### Event 10131

#### Metadata

| Field        | Value     |
|--------------|-----------|
| Entrypoint   | 0x025C    |
| Data Size    | 508 bytes |
| Instructions | 55        |

```
      00 01 02 03 04 05 06 07  08 09 0A 0B 0C 0D 0E 0F
      -- -- -- -- -- -- -- --  -- -- -- -- -- -- -- --
0250:                                      42 45 00 80              BE..
0260: F8 FF FF 7F F8 FF FF 7F  66 64 6F 31 01 80 55 00  ........fdo1..U.
0270: 80 F8 FF FF 7F F8 FF FF  7F 66 64 6F 31 46 01 38  .........fdo1F.8
0280: 02 80 27 05 67 40 0F 01  05 92 01 BE 40 0F 01 92  ..'.g@......@...
0290: 01 BD 40 0F 01 2F 00 BE  40 0F 01 4E 00 BE 40 0F  ..@../..@..N..@.
02A0: 01 BA F0 FF FF 7F 17 80  18 80 01 80 19 80 80 BE  ................
02B0: 40 0F 01 80 BD 40 0F 01  80 F0 FF FF 7F 94 01 BE  @....@..........
02C0: 40 0F 01 4A BE 40 0F 01  F0 FF FF 7F 4A F0 FF FF  @..J.@......J...
02D0: 7F BE 40 0F 01 5B 0A 80  BD 40 0F 01 BD 40 0F 01  ..@..[...@...@..
02E0: 66 75 6E 30 53 BD 40 0F  01 BD 40 0F 01 66 75 6E  fun0S.@...@..fun
02F0: 30 45 0B 80 F8 FF FF 7F  F8 FF FF 7F 73 30 37 30  0E..........s070
0300: 01 80 1C 0C 80 45 00 80  F8 FF FF 7F F8 FF FF 7F  .....E..........
0310: 66 64 69 31 01 80 55 00  80 F8 FF FF 7F F8 FF FF  fdi1..U.........
0320: 7F 66 64 69 31 2B BE 40  0F 01 1A 80 23 52 0B 80  .fdi1+.@....#R..
0330: F8 FF FF 7F F8 FF FF 7F  73 30 37 30 45 0B 80 F8  ........s070E...
0340: FF FF 7F F8 FF FF 7F 73  30 37 31 01 80 66 1B 80  .......s071..f..
0350: BE 40 0F 01 BE 40 0F 01  74 68 6B 31 2B BE 40 0F  .@...@..thk1+.@.
0360: 01 1C 80 23 52 0B 80 F8  FF FF 7F F8 FF FF 7F 73  ...#R..........s
0370: 30 37 31 45 0B 80 F8 FF  FF 7F F8 FF FF 7F 73 30  071E..........s0
0380: 37 32 01 80 66 1B 80 BE  40 0F 01 BE 40 0F 01 74  72..f...@...@..t
0390: 68 6B 32 2B BE 40 0F 01  1D 80 23 52 0B 80 F8 FF  hk2+.@....#R....
03A0: FF 7F F8 FF FF 7F 73 30  37 32 45 0B 80 F8 FF FF  ......s072E.....
03B0: 7F F8 FF FF 7F 73 30 37  33 01 80 66 1B 80 BE 40  .....s073..f...@
03C0: 0F 01 BE 40 0F 01 74 6C  6B 30 2B BE 40 0F 01 1E  ...@..tlk0+.@...
03D0: 80 23 2B BE 40 0F 01 1F  80 23 52 0B 80 F8 FF FF  .#+.@....#R.....
03E0: 7F F8 FF FF 7F 73 30 37  33 45 0B 80 F8 FF FF 7F  .....s073E......
03F0: F8 FF FF 7F 73 30 37 34  01 80 66 1B 80 BE 40 0F  ....s074..f...@.
0400: 01 BE 40 0F 01 74 6C 6B  32 2B BE 40 0F 01 20 80  ..@..tlk2+.@.. .
0410: 23 45 00 80 F8 FF FF 7F  F8 FF FF 7F 66 64 6F 31  #E..........fdo1
0420: 01 80 55 00 80 F8 FF FF  7F F8 FF FF 7F 66 64 6F  ..U..........fdo
0430: 31 52 0B 80 F8 FF FF 7F  F8 FF FF 7F 73 30 37 34  1R..........s074
0440: 46 00 1C 16 80 45 00 80  F8 FF FF 7F F8 FF FF 7F  F....E..........
0450: 66 64 69 31 01 80 21 00                           fdi1..!.        
```

#### Opcodes

```
  0: 0x025C [0x42] SET_CLI_EVENT_CANCEL_DATA()
  1: 0x025D [0x45] LOAD_SCHEDULED_TASK: Load scheduler "fdo1" with entities [EventEntity, EventEntity], work=[200*, 0*]
  2: 0x026E [0x55] WAIT_LOAD_SCHEDULER: Wait for scheduler "fdo1" with entities [EventEntity, EventEntity], work=200*
  3: 0x027D [0x46] CAMERA_CONTROL: Disable user control
  4: 0x027F [0x38] SET_CLIENT_EVENT_MODE(mode=19*)
  5: 0x0282 [0x27] REQ_SET(priority=0x05, entity_id=Door:House (ID: 17776743/0x010F4067), tag_num=0x05)
  6: 0x0289 [0x92] Rhea Myuliah (ID: 17776830/0x010F40BE)->Render.Flags3 ^= 0x01
  7: 0x028F [0x92] Laila (ID: 17776829/0x010F40BD)->Render.Flags3 ^= 0x01
  8: 0x0295 [0x2F] Rhea Myuliah (ID: 17776830/0x010F40BE)->Render.Flags0 &= ~0x80000 // Bit 19
  9: 0x029B [0x4E] SET_ENTITY_HIDE_FLAG: Show Rhea Myuliah (ID: 17776830/0x010F40BE)
 10: 0x02A1 [0xBA] SET_ENTITY_POSITION(entity_id=LocalPlayer, pos_x=-56.767*, pos_z=103.691*, pos_y=0.000*, direction=76.3°*)
 11: 0x02AE [0x80] LOAD_WAIT(entity=Rhea Myuliah (ID: 17776830/0x010F40BE))
 12: 0x02B3 [0x80] LOAD_WAIT(entity=Laila (ID: 17776829/0x010F40BD))
 13: 0x02B8 [0x80] LOAD_WAIT(entity=LocalPlayer)
 14: 0x02BD [0x94] Rhea Myuliah (ID: 17776830/0x010F40BE)->Render.Flags3 ^= 0x01
 15: 0x02C3 [0x4A] Rhea Myuliah (ID: 17776830/0x010F40BE) looks at LocalPlayer
 16: 0x02CC [0x4A] LocalPlayer looks at Rhea Myuliah (ID: 17776830/0x010F40BE)
 17: 0x02D5 [0x5B] LOAD_EXT_SCHEDULER: Load scheduler "fun0" with entities [Laila (ID: 17776829/0x010F40BD), Laila (ID: 17776829/0x010F40BD)], work=1252*
 18: 0x02E4 [0x53] WAIT_SCHEDULER_TASK: Wait for scheduler "fun0" with entities [Laila (ID: 17776829/0x010F40BD), Laila (ID: 17776829/0x010F40BD)]
 19: 0x02F1 [0x45] LOAD_SCHEDULED_TASK: Load scheduler "s070" with entities [EventEntity, EventEntity], work=[335*, 0*]
 20: 0x0302 [0x1C] WAIT(15* ticks)
 21: 0x0305 [0x45] LOAD_SCHEDULED_TASK: Load scheduler "fdi1" with entities [EventEntity, EventEntity], work=[200*, 0*]
 22: 0x0316 [0x55] WAIT_LOAD_SCHEDULER: Wait for scheduler "fdi1" with entities [EventEntity, EventEntity], work=200*
 23: 0x0325 [0x2B] Rhea Myuliah (ID: 17776830/0x010F40BE) [11871*]:
    → "What? You want to know what's lacking in your dance?"
 24: 0x032C [0x23] WAIT_FOR_DIALOG_INTERACTION
 25: 0x032D [0x52] END_LOAD_SCHEDULER: End scheduler "s070" with entities [EventEntity, EventEntity], work=335*
 26: 0x033C [0x45] LOAD_SCHEDULED_TASK: Load scheduler "s071" with entities [EventEntity, EventEntity], work=[335*, 0*]
 27: 0x034D [0x66] LOAD_EXT_SCHEDULER_MAIN: Load scheduler "thk1" with entities [Rhea Myuliah (ID: 17776830/0x010F40BE), Rhea Myuliah (ID: 17776830/0x010F40BE)], work=50*
 28: 0x035C [0x2B] Rhea Myuliah (ID: 17776830/0x010F40BE) [11872*]:
    → "That's a tough one... I personally believe you've imprrroved in leaps and bounds."
 29: 0x0363 [0x23] WAIT_FOR_DIALOG_INTERACTION
 30: 0x0364 [0x52] END_LOAD_SCHEDULER: End scheduler "s071" with entities [EventEntity, EventEntity], work=335*
 31: 0x0373 [0x45] LOAD_SCHEDULED_TASK: Load scheduler "s072" with entities [EventEntity, EventEntity], work=[335*, 0*]
 32: 0x0384 [0x66] LOAD_EXT_SCHEDULER_MAIN: Load scheduler "thk2" with entities [Rhea Myuliah (ID: 17776830/0x010F40BE), Rhea Myuliah (ID: 17776830/0x010F40BE)], work=50*
 33: 0x0393 [0x2B] Rhea Myuliah (ID: 17776830/0x010F40BE) [11873*]:
    → "Laila once told me about her childhood. Witchfire Glen, in Grauberg, was where her mother taught her to dance. She said that it was there she learned the true essence of dance."
 34: 0x039A [0x23] WAIT_FOR_DIALOG_INTERACTION
 35: 0x039B [0x52] END_LOAD_SCHEDULER: End scheduler "s072" with entities [EventEntity, EventEntity], work=335*
 36: 0x03AA [0x45] LOAD_SCHEDULED_TASK: Load scheduler "s073" with entities [EventEntity, EventEntity], work=[335*, 0*]
 37: 0x03BB [0x66] LOAD_EXT_SCHEDULER_MAIN: Load scheduler "tlk0" with entities [Rhea Myuliah (ID: 17776830/0x010F40BE), Rhea Myuliah (ID: 17776830/0x010F40BE)], work=50*
 38: 0x03CA [0x2B] Rhea Myuliah (ID: 17776830/0x010F40BE) [11874*]:
    → "During the Great War, Witchfire Glen was rumored to be a mystical place, where pixies could be seen frolicking."
 39: 0x03D1 [0x23] WAIT_FOR_DIALOG_INTERACTION
 40: 0x03D2 [0x2B] Rhea Myuliah (ID: 17776830/0x010F40BE) [11875*]:
    → "Laila's mother selected only the most talented dancers, and trrrained them there. I would love to have been part of those lessons!"
 41: 0x03D9 [0x23] WAIT_FOR_DIALOG_INTERACTION
 42: 0x03DA [0x52] END_LOAD_SCHEDULER: End scheduler "s073" with entities [EventEntity, EventEntity], work=335*
 43: 0x03E9 [0x45] LOAD_SCHEDULED_TASK: Load scheduler "s074" with entities [EventEntity, EventEntity], work=[335*, 0*]
 44: 0x03FA [0x66] LOAD_EXT_SCHEDULER_MAIN: Load scheduler "tlk2" with entities [Rhea Myuliah (ID: 17776830/0x010F40BE), Rhea Myuliah (ID: 17776830/0x010F40BE)], work=50*
 45: 0x0409 [0x2B] Rhea Myuliah (ID: 17776830/0x010F40BE) [11876*]:
    → "I'm sorry I couldn't help you spice up your steps..."
 46: 0x0410 [0x23] WAIT_FOR_DIALOG_INTERACTION
 47: 0x0411 [0x45] LOAD_SCHEDULED_TASK: Load scheduler "fdo1" with entities [EventEntity, EventEntity], work=[200*, 0*]
 48: 0x0422 [0x55] WAIT_LOAD_SCHEDULER: Wait for scheduler "fdo1" with entities [EventEntity, EventEntity], work=200*
 49: 0x0431 [0x52] END_LOAD_SCHEDULER: End scheduler "s074" with entities [EventEntity, EventEntity], work=335*
 50: 0x0440 [0x46] CAMERA_CONTROL: Restore default settings
 51: 0x0442 [0x1C] WAIT(60* ticks)
 52: 0x0445 [0x45] LOAD_SCHEDULED_TASK: Load scheduler "fdi1" with entities [EventEntity, EventEntity], work=[200*, 0*]
 53: 0x0456 [0x21] END_EVENT
 54: 0x0457 [0x00] END_REQSTACK()
```

### Event 10133

#### Metadata

| Field        | Value      |
|--------------|------------|
| Entrypoint   | 0x0458     |
| Data Size    | 1574 bytes |
| Instructions | 165        |

```
      00 01 02 03 04 05 06 07  08 09 0A 0B 0C 0D 0E 0F
      -- -- -- -- -- -- -- --  -- -- -- -- -- -- -- --
0450:                          42 45 00 80 F8 FF FF 7F          BE......
0460: F8 FF FF 7F 66 64 6F 31  01 80 55 00 80 F8 FF FF  ....fdo1..U.....
0470: 7F F8 FF FF 7F 66 64 6F  31 46 01 38 02 80 27 05  .....fdo1F.8..'.
0480: 65 40 0F 01 01 27 05 67  40 0F 01 05 92 01 BD 40  e@...'.g@......@
0490: 0F 01 92 01 BF 40 0F 01  92 01 BE 40 0F 01 2F 00  .....@.....@../.
04A0: BD 40 0F 01 4E 00 BD 40  0F 01 2F 00 BE 40 0F 01  .@..N..@../..@..
04B0: 2F 00 BF 40 0F 01 80 BD  40 0F 01 94 01 BD 40 0F  /..@....@.....@.
04C0: 01 BA F0 FF FF 7F 03 80  04 80 01 80 05 80 BA BE  ................
04D0: 40 0F 01 21 80 22 80 01  80 23 80 80 F0 FF FF 7F  @..!."...#......
04E0: 4A BD 40 0F 01 F0 FF FF  7F 4A F0 FF FF 7F BD 40  J.@......J.....@
04F0: 0F 01 1C 09 80 5B 0A 80  BD 40 0F 01 BD 40 0F 01  .....[...@...@..
0500: 66 75 6E 30 53 BD 40 0F  01 BD 40 0F 01 66 75 6E  fun0S.@...@..fun
0510: 30 45 0B 80 F8 FF FF 7F  F8 FF FF 7F 73 30 37 35  0E..........s075
0520: 01 80 1C 0C 80 45 00 80  F8 FF FF 7F F8 FF FF 7F  .....E..........
0530: 66 64 69 31 01 80 55 00  80 F8 FF FF 7F F8 FF FF  fdi1..U.........
0540: 7F 66 64 69 31 2B BD 40  0F 01 24 80 23 52 0B 80  .fdi1+.@..$.#R..
0550: F8 FF FF 7F F8 FF FF 7F  73 30 37 35 45 0B 80 F8  ........s075E...
0560: FF FF 7F F8 FF FF 7F 73  30 37 36 01 80 5B 0A 80  .......s076..[..
0570: BD 40 0F 01 BD 40 0F 01  66 75 6E 31 2B BD 40 0F  .@...@..fun1+.@.
0580: 01 25 80 23 53 BD 40 0F  01 BD 40 0F 01 66 75 6E  .%.#S.@...@..fun
0590: 31 52 0B 80 F8 FF FF 7F  F8 FF FF 7F 73 30 37 36  1R..........s076
05A0: 45 0B 80 F8 FF FF 7F F8  FF FF 7F 73 30 36 36 01  E..........s066.
05B0: 80 6E F0 FF FF 7F 0F 80  99 F0 FF FF 7F 1C 10 80  .n..............
05C0: 52 0B 80 F8 FF FF 7F F8  FF FF 7F 73 30 36 36 45  R..........s066E
05D0: 0B 80 F8 FF FF 7F F8 FF  FF 7F 73 30 37 37 01 80  ..........s077..
05E0: 6E BD 40 0F 01 26 80 99  BD 40 0F 01 1C 09 80 2B  n.@..&...@.....+
05F0: BD 40 0F 01 27 80 23 1C  09 80 52 0B 80 F8 FF FF  .@..'.#...R.....
0600: 7F F8 FF FF 7F 73 30 37  37 45 0B 80 F8 FF FF 7F  .....s077E......
0610: F8 FF FF 7F 73 30 37 38  01 80 2B BD 40 0F 01 28  ....s078..+.@..(
0620: 80 23 5B 0A 80 BD 40 0F  01 BD 40 0F 01 66 75 6E  .#[...@...@..fun
0630: 30 1C 09 80 52 0B 80 F8  FF FF 7F F8 FF FF 7F 73  0...R..........s
0640: 30 37 38 45 0B 80 F8 FF  FF 7F F8 FF FF 7F 73 30  078E..........s0
0650: 37 39 01 80 2B BD 40 0F  01 29 80 23 2B BD 40 0F  79..+.@..).#+.@.
0660: 01 2A 80 23 53 BD 40 0F  01 BD 40 0F 01 66 75 6E  .*.#S.@...@..fun
0670: 30 52 0B 80 F8 FF FF 7F  F8 FF FF 7F 73 30 37 39  0R..........s079
0680: 45 0B 80 F8 FF FF 7F F8  FF FF 7F 73 30 38 30 01  E..........s080.
0690: 80 2B BD 40 0F 01 2B 80  23 4E 00 BE 40 0F 01 80  .+.@..+.#N..@...
06A0: BE 40 0F 01 27 05 BE 40  0F 01 06 1C 09 80 52 0B  .@..'..@......R.
06B0: 80 F8 FF FF 7F F8 FF FF  7F 73 30 38 30 45 0B 80  .........s080E..
06C0: F8 FF FF 7F F8 FF FF 7F  73 30 38 31 01 80 2B BE  ........s081..+.
06D0: 40 0F 01 2C 80 23 4E 00  BF 40 0F 01 80 BF 40 0F  @..,.#N..@....@.
06E0: 01 4A BF 40 0F 01 BD 40  0F 01 2A 05 BE 40 0F 01  .J.@...@..*..@..
06F0: 52 0B 80 F8 FF FF 7F F8  FF FF 7F 73 30 38 31 45  R..........s081E
0700: 0B 80 F8 FF FF 7F F8 FF  FF 7F 73 30 38 32 01 80  ..........s082..
0710: 6B 69 64 6C 30 BD 40 0F  01 4A BD 40 0F 01 BE 40  kidl0.@..J.@...@
0720: 0F 01 66 1B 80 BE 40 0F  01 BE 40 0F 01 74 6C 6B  ..f...@...@..tlk
0730: 30 2B BE 40 0F 01 2D 80  23 53 BE 40 0F 01 BE 40  0+.@..-.#S.@...@
0740: 0F 01 74 6C 6B 30 66 1B  80 BE 40 0F 01 BE 40 0F  ..tlk0f...@...@.
0750: 01 74 6C 6B 32 52 0B 80  F8 FF FF 7F F8 FF FF 7F  .tlk2R..........
0760: 73 30 38 32 45 0B 80 F8  FF FF 7F F8 FF FF 7F 73  s082E..........s
0770: 30 38 33 01 80 2B BD 40  0F 01 2E 80 23 52 0B 80  083..+.@....#R..
0780: F8 FF FF 7F F8 FF FF 7F  73 30 38 33 45 0B 80 F8  ........s083E...
0790: FF FF 7F F8 FF FF 7F 73  30 38 34 01 80 66 1B 80  .......s084..f..
07A0: BE 40 0F 01 BE 40 0F 01  74 6C 6B 30 2B BE 40 0F  .@...@..tlk0+.@.
07B0: 01 2F 80 23 66 1B 80 BE  40 0F 01 BE 40 0F 01 74  ./.#f...@...@..t
07C0: 6C 6B 32 52 0B 80 F8 FF  FF 7F F8 FF FF 7F 73 30  lk2R..........s0
07D0: 38 34 45 0B 80 F8 FF FF  7F F8 FF FF 7F 73 30 38  84E..........s08
07E0: 35 01 80 66 02 80 BD 40  0F 01 BD 40 0F 01 74 6C  5..f...@...@..tl
07F0: 6B 30 2B BD 40 0F 01 30  80 23 66 02 80 BD 40 0F  k0+.@..0.#f...@.
0800: 01 BD 40 0F 01 74 6C 6B  31 2B BE 40 0F 01 31 80  ..@..tlk1+.@..1.
0810: 23 BA F0 FF FF 7F 32 80  33 80 01 80 23 80 80 F0  #.....2.3...#...
0820: FF FF 7F 52 0B 80 F8 FF  FF 7F F8 FF FF 7F 73 30  ...R..........s0
0830: 38 35 45 0B 80 F8 FF FF  7F F8 FF FF 7F 73 30 38  85E..........s08
0840: 36 01 80 4B BD 40 0F 01  34 80 7B BD 40 0F 01 1C  6..K.@..4.{.@...
0850: 09 80 5B 0A 80 BD 40 0F  01 BD 40 0F 01 66 75 6E  ..[...@...@..fun
0860: 30 53 BD 40 0F 01 BD 40  0F 01 66 75 6E 30 52 0B  0S.@...@..fun0R.
0870: 80 F8 FF FF 7F F8 FF FF  7F 73 30 38 36 45 0B 80  .........s086E..
0880: F8 FF FF 7F F8 FF FF 7F  73 30 38 37 01 80 5B 0A  ........s087..[.
0890: 80 BD 40 0F 01 BD 40 0F  01 63 6C 70 30 2B BD 40  ..@...@..clp0+.@
08A0: 0F 01 35 80 23 BA F0 FF  FF 7F 36 80 37 80 01 80  ..5.#.....6.7...
08B0: 23 80 80 F0 FF FF 7F 53  BD 40 0F 01 BD 40 0F 01  #......S.@...@..
08C0: 63 6C 70 30 52 0B 80 F8  FF FF 7F F8 FF FF 7F 73  clp0R..........s
08D0: 30 38 37 45 0B 80 F8 FF  FF 7F F8 FF FF 7F 73 30  087E..........s0
08E0: 38 38 01 80 2B BD 40 0F  01 38 80 23 45 00 80 F8  88..+.@..8.#E...
08F0: FF FF 7F F8 FF FF 7F 66  64 6F 31 01 80 55 00 80  .......fdo1..U..
0900: F8 FF FF 7F F8 FF FF 7F  66 64 6F 31 52 0B 80 F8  ........fdo1R...
0910: FF FF 7F F8 FF FF 7F 73  30 38 38 4E 01 BD 40 0F  .......s088N..@.
0920: 01 4E 01 BF 40 0F 01 BA  F0 FF FF 7F 17 80 18 80  .N..@...........
0930: 01 80 19 80 BA BE 40 0F  01 39 80 3A 80 01 80 3B  ......@..9.:...;
0940: 80 80 F0 FF FF 7F 80 BE  40 0F 01 4A F0 FF FF 7F  ........@..J....
0950: BE 40 0F 01 4A BE 40 0F  01 F0 FF FF 7F 1C 09 80  .@..J.@.........
0960: 45 0B 80 F8 FF FF 7F F8  FF FF 7F 73 30 38 39 01  E..........s089.
0970: 80 1C 0C 80 45 00 80 F8  FF FF 7F F8 FF FF 7F 66  ....E..........f
0980: 64 69 31 01 80 55 00 80  F8 FF FF 7F F8 FF FF 7F  di1..U..........
0990: 66 64 69 31 66 3C 80 BE  40 0F 01 BE 40 0F 01 64  fdi1f<..@...@..d
09A0: 69 73 30 2B BE 40 0F 01  3D 80 23 53 BE 40 0F 01  is0+.@..=.#S.@..
09B0: BE 40 0F 01 64 69 73 30  52 0B 80 F8 FF FF 7F F8  .@..dis0R.......
09C0: FF FF 7F 73 30 38 39 45  0B 80 F8 FF FF 7F F8 FF  ...s089E........
09D0: FF 7F 73 30 39 30 01 80  66 1B 80 BE 40 0F 01 BE  ..s090..f...@...
09E0: 40 0F 01 70 61 73 30 2B  BE 40 0F 01 3E 80 23 52  @..pas0+.@..>.#R
09F0: 0B 80 F8 FF FF 7F F8 FF  FF 7F 73 30 39 30 45 0B  ..........s090E.
0A00: 80 F8 FF FF 7F F8 FF FF  7F 73 30 39 31 01 80 66  .........s091..f
0A10: 1B 80 BE 40 0F 01 BE 40  0F 01 74 6C 6B 30 2B BE  ...@...@..tlk0+.
0A20: 40 0F 01 3F 80 23 45 00  80 F8 FF FF 7F F8 FF FF  @..?.#E.........
0A30: 7F 66 64 6F 31 01 80 55  00 80 F8 FF FF 7F F8 FF  .fdo1..U........
0A40: FF 7F 66 64 6F 31 52 0B  80 F8 FF FF 7F F8 FF FF  ..fdo1R.........
0A50: 7F 73 30 39 31 45 40 80  F0 FF FF 7F F0 FF FF 7F  .s091E@.........
0A60: 71 73 74 63 01 80 46 00  1C 16 80 45 00 80 F8 FF  qstc..F....E....
0A70: FF 7F F8 FF FF 7F 66 64  69 31 01 80 21 00        ......fdi1..!.  
```

#### Opcodes

```
  0: 0x0458 [0x42] SET_CLI_EVENT_CANCEL_DATA()
  1: 0x0459 [0x45] LOAD_SCHEDULED_TASK: Load scheduler "fdo1" with entities [EventEntity, EventEntity], work=[200*, 0*]
  2: 0x046A [0x55] WAIT_LOAD_SCHEDULER: Wait for scheduler "fdo1" with entities [EventEntity, EventEntity], work=200*
  3: 0x0479 [0x46] CAMERA_CONTROL: Disable user control
  4: 0x047B [0x38] SET_CLIENT_EVENT_MODE(mode=19*)
  5: 0x047E [0x27] REQ_SET(priority=0x05, entity_id=Door:M & P's Market (ID: 17776741/0x010F4065), tag_num=0x01)
  6: 0x0485 [0x27] REQ_SET(priority=0x05, entity_id=Door:House (ID: 17776743/0x010F4067), tag_num=0x05)
  7: 0x048C [0x92] Laila (ID: 17776829/0x010F40BD)->Render.Flags3 ^= 0x01
  8: 0x0492 [0x92] Olgald (ID: 17776831/0x010F40BF)->Render.Flags3 ^= 0x01
  9: 0x0498 [0x92] Rhea Myuliah (ID: 17776830/0x010F40BE)->Render.Flags3 ^= 0x01
 10: 0x049E [0x2F] Laila (ID: 17776829/0x010F40BD)->Render.Flags0 &= ~0x80000 // Bit 19
 11: 0x04A4 [0x4E] SET_ENTITY_HIDE_FLAG: Show Laila (ID: 17776829/0x010F40BD)
 12: 0x04AA [0x2F] Rhea Myuliah (ID: 17776830/0x010F40BE)->Render.Flags0 &= ~0x80000 // Bit 19
 13: 0x04B0 [0x2F] Olgald (ID: 17776831/0x010F40BF)->Render.Flags0 &= ~0x80000 // Bit 19
 14: 0x04B6 [0x80] LOAD_WAIT(entity=Laila (ID: 17776829/0x010F40BD))
 15: 0x04BB [0x94] Laila (ID: 17776829/0x010F40BD)->Render.Flags3 ^= 0x01
 16: 0x04C1 [0xBA] SET_ENTITY_POSITION(entity_id=LocalPlayer, pos_x=-55.814*, pos_z=102.862*, pos_y=0.000*, direction=61.3°*)
 17: 0x04CE [0xBA] SET_ENTITY_POSITION(entity_id=Rhea Myuliah (ID: 17776830/0x010F40BE), pos_x=-58.631*, pos_z=98.399*, pos_y=0.000*, direction=46.5°*)
 18: 0x04DB [0x80] LOAD_WAIT(entity=LocalPlayer)
 19: 0x04E0 [0x4A] Laila (ID: 17776829/0x010F40BD) looks at LocalPlayer
 20: 0x04E9 [0x4A] LocalPlayer looks at Laila (ID: 17776829/0x010F40BD)
 21: 0x04F2 [0x1C] WAIT(30* ticks)
 22: 0x04F5 [0x5B] LOAD_EXT_SCHEDULER: Load scheduler "fun0" with entities [Laila (ID: 17776829/0x010F40BD), Laila (ID: 17776829/0x010F40BD)], work=1252*
 23: 0x0504 [0x53] WAIT_SCHEDULER_TASK: Wait for scheduler "fun0" with entities [Laila (ID: 17776829/0x010F40BD), Laila (ID: 17776829/0x010F40BD)]
 24: 0x0511 [0x45] LOAD_SCHEDULED_TASK: Load scheduler "s075" with entities [EventEntity, EventEntity], work=[335*, 0*]
 25: 0x0522 [0x1C] WAIT(15* ticks)
 26: 0x0525 [0x45] LOAD_SCHEDULED_TASK: Load scheduler "fdi1" with entities [EventEntity, EventEntity], work=[200*, 0*]
 27: 0x0536 [0x55] WAIT_LOAD_SCHEDULER: Wait for scheduler "fdi1" with entities [EventEntity, EventEntity], work=200*
 28: 0x0545 [0x2B] Laila (ID: 17776829/0x010F40BD) [11878*]:
    → "So, <Player>. Did ye work out how to make yer dance "shine"?"
 29: 0x054C [0x23] WAIT_FOR_DIALOG_INTERACTION
 30: 0x054D [0x52] END_LOAD_SCHEDULER: End scheduler "s075" with entities [EventEntity, EventEntity], work=335*
 31: 0x055C [0x45] LOAD_SCHEDULED_TASK: Load scheduler "s076" with entities [EventEntity, EventEntity], work=[335*, 0*]
 32: 0x056D [0x5B] LOAD_EXT_SCHEDULER: Load scheduler "fun1" with entities [Laila (ID: 17776829/0x010F40BD), Laila (ID: 17776829/0x010F40BD)], work=1252*
 33: 0x057C [0x2B] Laila (ID: 17776829/0x010F40BD) [11879*]:
    → "Ye think ye got the goods now? Go on then, give us a gander."
 34: 0x0583 [0x23] WAIT_FOR_DIALOG_INTERACTION
 35: 0x0584 [0x53] WAIT_SCHEDULER_TASK: Wait for scheduler "fun1" with entities [Laila (ID: 17776829/0x010F40BD), Laila (ID: 17776829/0x010F40BD)]
 36: 0x0591 [0x52] END_LOAD_SCHEDULER: End scheduler "s076" with entities [EventEntity, EventEntity], work=335*
 37: 0x05A0 [0x45] LOAD_SCHEDULED_TASK: Load scheduler "s066" with entities [EventEntity, EventEntity], work=[335*, 0*]
 38: 0x05B1 [0x6E] LocalPlayer uses emote 66*
 39: 0x05B8 [0x99] Wait for LocalPlayer animation to complete
 40: 0x05BD [0x1C] WAIT(210* ticks)
 41: 0x05C0 [0x52] END_LOAD_SCHEDULER: End scheduler "s066" with entities [EventEntity, EventEntity], work=335*
 42: 0x05CF [0x45] LOAD_SCHEDULED_TASK: Load scheduler "s077" with entities [EventEntity, EventEntity], work=[335*, 0*]
 43: 0x05E0 [0x6E] Laila (ID: 17776829/0x010F40BD) uses emote 13*
 44: 0x05E7 [0x99] Wait for Laila (ID: 17776829/0x010F40BD) animation to complete
 45: 0x05EC [0x1C] WAIT(30* ticks)
 46: 0x05EF [0x2B] Laila (ID: 17776829/0x010F40BD) [11880*]:
    → "Well, well, wasn't that somethin'."
 47: 0x05F6 [0x23] WAIT_FOR_DIALOG_INTERACTION
 48: 0x05F7 [0x1C] WAIT(30* ticks)
 49: 0x05FA [0x52] END_LOAD_SCHEDULER: End scheduler "s077" with entities [EventEntity, EventEntity], work=335*
 50: 0x0609 [0x45] LOAD_SCHEDULED_TASK: Load scheduler "s078" with entities [EventEntity, EventEntity], work=[335*, 0*]
 51: 0x061A [0x2B] Laila (ID: 17776829/0x010F40BD) [11881*]:
    → ""A masterful dance can be the most lethal of weapons; a skillful fight, the most elegant of dances." These be the words of me dear mother."
 52: 0x0621 [0x23] WAIT_FOR_DIALOG_INTERACTION
 53: 0x0622 [0x5B] LOAD_EXT_SCHEDULER: Load scheduler "fun0" with entities [Laila (ID: 17776829/0x010F40BD), Laila (ID: 17776829/0x010F40BD)], work=1252*
 54: 0x0631 [0x1C] WAIT(30* ticks)
 55: 0x0634 [0x52] END_LOAD_SCHEDULER: End scheduler "s078" with entities [EventEntity, EventEntity], work=335*
 56: 0x0643 [0x45] LOAD_SCHEDULED_TASK: Load scheduler "s079" with entities [EventEntity, EventEntity], work=[335*, 0*]
 57: 0x0654 [0x2B] Laila (ID: 17776829/0x010F40BD) [11882*]:
    → "But there's a key difference b'tween dancin' on stage, an' dancin' in battle."
 58: 0x065B [0x23] WAIT_FOR_DIALOG_INTERACTION
 59: 0x065C [0x2B] Laila (ID: 17776829/0x010F40BD) [11883*]:
    → "On stage, ye're dancin' in front o' an audience, with the goal o' bringin' smiles to their faces."
 60: 0x0663 [0x23] WAIT_FOR_DIALOG_INTERACTION
 61: 0x0664 [0x53] WAIT_SCHEDULER_TASK: Wait for scheduler "fun0" with entities [Laila (ID: 17776829/0x010F40BD), Laila (ID: 17776829/0x010F40BD)]
 62: 0x0671 [0x52] END_LOAD_SCHEDULER: End scheduler "s079" with entities [EventEntity, EventEntity], work=335*
 63: 0x0680 [0x45] LOAD_SCHEDULED_TASK: Load scheduler "s080" with entities [EventEntity, EventEntity], work=[335*, 0*]
 64: 0x0691 [0x2B] Laila (ID: 17776829/0x010F40BD) [11884*]:
    → "Yer desire to entertain an' please the audience is what makes yer dance "shine." Don't ye be forgettin' that."
 65: 0x0698 [0x23] WAIT_FOR_DIALOG_INTERACTION
 66: 0x0699 [0x4E] SET_ENTITY_HIDE_FLAG: Show Rhea Myuliah (ID: 17776830/0x010F40BE)
 67: 0x069F [0x80] LOAD_WAIT(entity=Rhea Myuliah (ID: 17776830/0x010F40BE))
 68: 0x06A4 [0x27] REQ_SET(priority=0x05, entity_id=Rhea Myuliah (ID: 17776830/0x010F40BE), tag_num=0x06)
 69: 0x06AB [0x1C] WAIT(30* ticks)
 70: 0x06AE [0x52] END_LOAD_SCHEDULER: End scheduler "s080" with entities [EventEntity, EventEntity], work=335*
 71: 0x06BD [0x45] LOAD_SCHEDULED_TASK: Load scheduler "s081" with entities [EventEntity, EventEntity], work=[335*, 0*]
 72: 0x06CE [0x2B] Rhea Myuliah (ID: 17776830/0x010F40BE) [11885*]:
    → "Laila! I've just met with Wyatt, the guy who runs a business prrromoting performance troupes..."
 73: 0x06D5 [0x23] WAIT_FOR_DIALOG_INTERACTION
 74: 0x06D6 [0x4E] SET_ENTITY_HIDE_FLAG: Show Olgald (ID: 17776831/0x010F40BF)
 75: 0x06DC [0x80] LOAD_WAIT(entity=Olgald (ID: 17776831/0x010F40BF))
 76: 0x06E1 [0x4A] Olgald (ID: 17776831/0x010F40BF) looks at Laila (ID: 17776829/0x010F40BD)
 77: 0x06EA [0x2A] GET_REQ_LEVEL(level=5, entity_id=Rhea Myuliah (ID: 17776830/0x010F40BE))
 78: 0x06F0 [0x52] END_LOAD_SCHEDULER: End scheduler "s081" with entities [EventEntity, EventEntity], work=335*
 79: 0x06FF [0x45] LOAD_SCHEDULED_TASK: Load scheduler "s082" with entities [EventEntity, EventEntity], work=[335*, 0*]
 80: 0x0710 [0x6B] STOP_AND_IDLE: Laila (ID: 17776829/0x010F40BD) stops current action and resets to idle (animation="idl0")
 81: 0x0719 [0x4A] Laila (ID: 17776829/0x010F40BD) looks at Rhea Myuliah (ID: 17776830/0x010F40BE)
 82: 0x0722 [0x66] LOAD_EXT_SCHEDULER_MAIN: Load scheduler "tlk0" with entities [Rhea Myuliah (ID: 17776830/0x010F40BE), Rhea Myuliah (ID: 17776830/0x010F40BE)], work=50*
 83: 0x0731 [0x2B] Rhea Myuliah (ID: 17776830/0x010F40BE) [11886*]:
    → "He said that Troupe Valeriano is next scheduled to perform rrright here, in Jeuno."
 84: 0x0738 [0x23] WAIT_FOR_DIALOG_INTERACTION
 85: 0x0739 [0x53] WAIT_SCHEDULER_TASK: Wait for scheduler "tlk0" with entities [Rhea Myuliah (ID: 17776830/0x010F40BE), Rhea Myuliah (ID: 17776830/0x010F40BE)]
 86: 0x0746 [0x66] LOAD_EXT_SCHEDULER_MAIN: Load scheduler "tlk2" with entities [Rhea Myuliah (ID: 17776830/0x010F40BE), Rhea Myuliah (ID: 17776830/0x010F40BE)], work=50*
 87: 0x0755 [0x52] END_LOAD_SCHEDULER: End scheduler "s082" with entities [EventEntity, EventEntity], work=335*
 88: 0x0764 [0x45] LOAD_SCHEDULED_TASK: Load scheduler "s083" with entities [EventEntity, EventEntity], work=[335*, 0*]
 89: 0x0775 [0x2B] Laila (ID: 17776829/0x010F40BD) [11887*]:
    → "Troupe Valeriano...in Jeuno!?"
 90: 0x077C [0x23] WAIT_FOR_DIALOG_INTERACTION
 91: 0x077D [0x52] END_LOAD_SCHEDULER: End scheduler "s083" with entities [EventEntity, EventEntity], work=335*
 92: 0x078C [0x45] LOAD_SCHEDULED_TASK: Load scheduler "s084" with entities [EventEntity, EventEntity], work=[335*, 0*]
 93: 0x079D [0x66] LOAD_EXT_SCHEDULER_MAIN: Load scheduler "tlk0" with entities [Rhea Myuliah (ID: 17776830/0x010F40BE), Rhea Myuliah (ID: 17776830/0x010F40BE)], work=50*
 94: 0x07AC [0x2B] Rhea Myuliah (ID: 17776830/0x010F40BE) [11888*]:
    → "Apparently, the leader of the trrroupe wants to come speak with you when they arrive."
 95: 0x07B3 [0x23] WAIT_FOR_DIALOG_INTERACTION
 96: 0x07B4 [0x66] LOAD_EXT_SCHEDULER_MAIN: Load scheduler "tlk2" with entities [Rhea Myuliah (ID: 17776830/0x010F40BE), Rhea Myuliah (ID: 17776830/0x010F40BE)], work=50*
 97: 0x07C3 [0x52] END_LOAD_SCHEDULER: End scheduler "s084" with entities [EventEntity, EventEntity], work=335*
 98: 0x07D2 [0x45] LOAD_SCHEDULED_TASK: Load scheduler "s085" with entities [EventEntity, EventEntity], work=[335*, 0*]
 99: 0x07E3 [0x66] LOAD_EXT_SCHEDULER_MAIN: Load scheduler "tlk0" with entities [Laila (ID: 17776829/0x010F40BD), Laila (ID: 17776829/0x010F40BD)], work=19*
100: 0x07F2 [0x2B] Laila (ID: 17776829/0x010F40BD) [11889*]:
    → "What business would the likes o' Troupe Valeriano possibly have with me?"
101: 0x07F9 [0x23] WAIT_FOR_DIALOG_INTERACTION
102: 0x07FA [0x66] LOAD_EXT_SCHEDULER_MAIN: Load scheduler "tlk1" with entities [Laila (ID: 17776829/0x010F40BD), Laila (ID: 17776829/0x010F40BD)], work=19*
103: 0x0809 [0x2B] Rhea Myuliah (ID: 17776830/0x010F40BE) [11890*]:
    → "..."
104: 0x0810 [0x23] WAIT_FOR_DIALOG_INTERACTION
105: 0x0811 [0xBA] SET_ENTITY_POSITION(entity_id=LocalPlayer, pos_x=-56.297*, pos_z=101.889*, pos_y=0.000*, direction=46.5°*)
106: 0x081E [0x80] LOAD_WAIT(entity=LocalPlayer)
107: 0x0823 [0x52] END_LOAD_SCHEDULER: End scheduler "s085" with entities [EventEntity, EventEntity], work=335*
108: 0x0832 [0x45] LOAD_SCHEDULED_TASK: Load scheduler "s086" with entities [EventEntity, EventEntity], work=[335*, 0*]
109: 0x0843 [0x4B] UPDATE_ENTITY_YAW(entity=Laila (ID: 17776829/0x010F40BD), yaw=14.5°*)
110: 0x084A [0x7B] Laila (ID: 17776829/0x010F40BD) stops talking
111: 0x084F [0x1C] WAIT(30* ticks)
112: 0x0852 [0x5B] LOAD_EXT_SCHEDULER: Load scheduler "fun0" with entities [Laila (ID: 17776829/0x010F40BD), Laila (ID: 17776829/0x010F40BD)], work=1252*
113: 0x0861 [0x53] WAIT_SCHEDULER_TASK: Wait for scheduler "fun0" with entities [Laila (ID: 17776829/0x010F40BD), Laila (ID: 17776829/0x010F40BD)]
114: 0x086E [0x52] END_LOAD_SCHEDULER: End scheduler "s086" with entities [EventEntity, EventEntity], work=335*
115: 0x087D [0x45] LOAD_SCHEDULED_TASK: Load scheduler "s087" with entities [EventEntity, EventEntity], work=[335*, 0*]
116: 0x088E [0x5B] LOAD_EXT_SCHEDULER: Load scheduler "clp0" with entities [Laila (ID: 17776829/0x010F40BD), Laila (ID: 17776829/0x010F40BD)], work=1252*
117: 0x089D [0x2B] Laila (ID: 17776829/0x010F40BD) [11891*]:
    → "Hey hey, that's enough daydreamin' already! Get back t'yer practicin'!"
118: 0x08A4 [0x23] WAIT_FOR_DIALOG_INTERACTION
119: 0x08A5 [0xBA] SET_ENTITY_POSITION(entity_id=LocalPlayer, pos_x=-55.754*, pos_z=103.468*, pos_y=0.000*, direction=46.5°*)
120: 0x08B2 [0x80] LOAD_WAIT(entity=LocalPlayer)
121: 0x08B7 [0x53] WAIT_SCHEDULER_TASK: Wait for scheduler "clp0" with entities [Laila (ID: 17776829/0x010F40BD), Laila (ID: 17776829/0x010F40BD)]
122: 0x08C4 [0x52] END_LOAD_SCHEDULER: End scheduler "s087" with entities [EventEntity, EventEntity], work=335*
123: 0x08D3 [0x45] LOAD_SCHEDULED_TASK: Load scheduler "s088" with entities [EventEntity, EventEntity], work=[335*, 0*]
124: 0x08E4 [0x2B] Laila (ID: 17776829/0x010F40BD) [11892*]:
    → "I won't tolerate any o' yer makin' a fool o' yerself in front o' Troupe Valeriano!"
125: 0x08EB [0x23] WAIT_FOR_DIALOG_INTERACTION
126: 0x08EC [0x45] LOAD_SCHEDULED_TASK: Load scheduler "fdo1" with entities [EventEntity, EventEntity], work=[200*, 0*]
127: 0x08FD [0x55] WAIT_LOAD_SCHEDULER: Wait for scheduler "fdo1" with entities [EventEntity, EventEntity], work=200*
128: 0x090C [0x52] END_LOAD_SCHEDULER: End scheduler "s088" with entities [EventEntity, EventEntity], work=335*
129: 0x091B [0x4E] SET_ENTITY_HIDE_FLAG: Hide Laila (ID: 17776829/0x010F40BD)
130: 0x0921 [0x4E] SET_ENTITY_HIDE_FLAG: Hide Olgald (ID: 17776831/0x010F40BF)
131: 0x0927 [0xBA] SET_ENTITY_POSITION(entity_id=LocalPlayer, pos_x=-56.767*, pos_z=103.691*, pos_y=0.000*, direction=76.3°*)
132: 0x0934 [0xBA] SET_ENTITY_POSITION(entity_id=Rhea Myuliah (ID: 17776830/0x010F40BE), pos_x=-56.220*, pos_z=101.805*, pos_y=0.000*, direction=233.3°*)
133: 0x0941 [0x80] LOAD_WAIT(entity=LocalPlayer)
134: 0x0946 [0x80] LOAD_WAIT(entity=Rhea Myuliah (ID: 17776830/0x010F40BE))
135: 0x094B [0x4A] LocalPlayer looks at Rhea Myuliah (ID: 17776830/0x010F40BE)
136: 0x0954 [0x4A] Rhea Myuliah (ID: 17776830/0x010F40BE) looks at LocalPlayer
137: 0x095D [0x1C] WAIT(30* ticks)
138: 0x0960 [0x45] LOAD_SCHEDULED_TASK: Load scheduler "s089" with entities [EventEntity, EventEntity], work=[335*, 0*]
139: 0x0971 [0x1C] WAIT(15* ticks)
140: 0x0974 [0x45] LOAD_SCHEDULED_TASK: Load scheduler "fdi1" with entities [EventEntity, EventEntity], work=[200*, 0*]
141: 0x0985 [0x55] WAIT_LOAD_SCHEDULER: Wait for scheduler "fdi1" with entities [EventEntity, EventEntity], work=200*
142: 0x0994 [0x66] LOAD_EXT_SCHEDULER_MAIN: Load scheduler "dis0" with entities [Rhea Myuliah (ID: 17776830/0x010F40BE), Rhea Myuliah (ID: 17776830/0x010F40BE)], work=52*
143: 0x09A3 [0x2B] Rhea Myuliah (ID: 17776830/0x010F40BE) [11893*]:
    → "I wonder why she's gotten crrranky all of a sudden."
144: 0x09AA [0x23] WAIT_FOR_DIALOG_INTERACTION
145: 0x09AB [0x53] WAIT_SCHEDULER_TASK: Wait for scheduler "dis0" with entities [Rhea Myuliah (ID: 17776830/0x010F40BE), Rhea Myuliah (ID: 17776830/0x010F40BE)]
146: 0x09B8 [0x52] END_LOAD_SCHEDULER: End scheduler "s089" with entities [EventEntity, EventEntity], work=335*
147: 0x09C7 [0x45] LOAD_SCHEDULED_TASK: Load scheduler "s090" with entities [EventEntity, EventEntity], work=[335*, 0*]
148: 0x09D8 [0x66] LOAD_EXT_SCHEDULER_MAIN: Load scheduler "pas0" with entities [Rhea Myuliah (ID: 17776830/0x010F40BE), Rhea Myuliah (ID: 17776830/0x010F40BE)], work=50*
149: 0x09E7 [0x2B] Rhea Myuliah (ID: 17776830/0x010F40BE) [11894*]:
    → "Just a minute ago she was singing prrraises of you, <Player>, and even asked me to prepare something to give to you."
150: 0x09EE [0x23] WAIT_FOR_DIALOG_INTERACTION
151: 0x09EF [0x52] END_LOAD_SCHEDULER: End scheduler "s090" with entities [EventEntity, EventEntity], work=335*
152: 0x09FE [0x45] LOAD_SCHEDULED_TASK: Load scheduler "s091" with entities [EventEntity, EventEntity], work=[335*, 0*]
153: 0x0A0F [0x66] LOAD_EXT_SCHEDULER_MAIN: Load scheduler "tlk0" with entities [Rhea Myuliah (ID: 17776830/0x010F40BE), Rhea Myuliah (ID: 17776830/0x010F40BE)], work=50*
154: 0x0A1E [0x2B] Rhea Myuliah (ID: 17776830/0x010F40BE) [11895*]:
    → "I didn't think the news would tick her off like that... No news is good news, huh?"
155: 0x0A25 [0x23] WAIT_FOR_DIALOG_INTERACTION
156: 0x0A26 [0x45] LOAD_SCHEDULED_TASK: Load scheduler "fdo1" with entities [EventEntity, EventEntity], work=[200*, 0*]
157: 0x0A37 [0x55] WAIT_LOAD_SCHEDULER: Wait for scheduler "fdo1" with entities [EventEntity, EventEntity], work=200*
158: 0x0A46 [0x52] END_LOAD_SCHEDULER: End scheduler "s091" with entities [EventEntity, EventEntity], work=335*
159: 0x0A55 [0x45] LOAD_SCHEDULED_TASK: Load scheduler "qstc" with entities [LocalPlayer, LocalPlayer], work=[201*, 0*]
160: 0x0A66 [0x46] CAMERA_CONTROL: Restore default settings
161: 0x0A68 [0x1C] WAIT(60* ticks)
162: 0x0A6B [0x45] LOAD_SCHEDULED_TASK: Load scheduler "fdi1" with entities [EventEntity, EventEntity], work=[200*, 0*]
163: 0x0A7C [0x21] END_EVENT
164: 0x0A7D [0x00] END_REQSTACK()
```

### Event 10136

#### Metadata

| Field        | Value      |
|--------------|------------|
| Entrypoint   | 0x0A7E     |
| Data Size    | 1259 bytes |
| Instructions | 133        |

```
      00 01 02 03 04 05 06 07  08 09 0A 0B 0C 0D 0E 0F
      -- -- -- -- -- -- -- --  -- -- -- -- -- -- -- --
0A70:                                            42 45                BE
0A80: 00 80 F8 FF FF 7F F8 FF  FF 7F 66 64 6F 31 01 80  ..........fdo1..
0A90: 55 00 80 F8 FF FF 7F F8  FF FF 7F 66 64 6F 31 46  U..........fdo1F
0AA0: 01 38 02 80 27 05 65 40  0F 01 01 27 05 67 40 0F  .8..'.e@...'.g@.
0AB0: 01 05 27 10 BB 40 0F 01  09 27 10 BC 40 0F 01 05  ..'..@...'..@...
0AC0: 92 01 BD 40 0F 01 92 01  BC 40 0F 01 92 01 BB 40  ...@.....@.....@
0AD0: 0F 01 2F 00 BD 40 0F 01  4E 00 BD 40 0F 01 BA F0  ../..@..N..@....
0AE0: FF FF 7F 03 80 04 80 01  80 05 80 BA BB 40 0F 01  .............@..
0AF0: 06 80 07 80 01 80 08 80  80 BD 40 0F 01 80 F0 FF  ..........@.....
0B00: FF 7F 80 BC 40 0F 01 80  BB 40 0F 01 94 01 BD 40  ....@....@.....@
0B10: 0F 01 4A BD 40 0F 01 F0  FF FF 7F 4A F0 FF FF 7F  ..J.@......J....
0B20: BD 40 0F 01 1C 09 80 5B  0A 80 BD 40 0F 01 BD 40  .@.....[...@...@
0B30: 0F 01 66 75 6E 30 53 BD  40 0F 01 BD 40 0F 01 66  ..fun0S.@...@..f
0B40: 75 6E 30 45 0B 80 F8 FF  FF 7F F8 FF FF 7F 73 31  un0E..........s1
0B50: 32 38 01 80 1C 0C 80 45  00 80 F8 FF FF 7F F8 FF  28.....E........
0B60: FF 7F 66 64 69 31 01 80  55 00 80 F8 FF FF 7F F8  ..fdi1..U.......
0B70: FF FF 7F 66 64 69 31 2B  BD 40 0F 01 41 80 23 52  ...fdi1+.@..A.#R
0B80: 0B 80 F8 FF FF 7F F8 FF  FF 7F 73 31 32 38 45 0B  ..........s128E.
0B90: 80 F8 FF FF 7F F8 FF FF  7F 73 31 32 39 01 80 5B  .........s129..[
0BA0: 0A 80 BD 40 0F 01 BD 40  0F 01 66 75 6E 31 2B BD  ...@...@..fun1+.
0BB0: 40 0F 01 42 80 23 53 BD  40 0F 01 BD 40 0F 01 66  @..B.#S.@...@..f
0BC0: 75 6E 31 52 0B 80 F8 FF  FF 7F F8 FF FF 7F 73 31  un1R..........s1
0BD0: 32 39 45 0B 80 F8 FF FF  7F F8 FF FF 7F 73 30 36  29E..........s06
0BE0: 36 01 80 6E F0 FF FF 7F  43 80 99 F0 FF FF 7F 1C  6..n....C.......
0BF0: 10 80 66 02 80 BD 40 0F  01 BD 40 0F 01 74 68 6B  ..f...@...@..thk
0C00: 31 52 0B 80 F8 FF FF 7F  F8 FF FF 7F 73 30 36 36  1R..........s066
0C10: 45 0B 80 F8 FF FF 7F F8  FF FF 7F 73 31 33 30 01  E..........s130.
0C20: 80 2B BD 40 0F 01 44 80  23 53 BD 40 0F 01 BD 40  .+.@..D.#S.@...@
0C30: 0F 01 74 68 6B 31 52 0B  80 F8 FF FF 7F F8 FF FF  ..thk1R.........
0C40: 7F 73 31 33 30 45 0B 80  F8 FF FF 7F F8 FF FF 7F  .s130E..........
0C50: 73 31 33 31 01 80 66 02  80 BD 40 0F 01 BD 40 0F  s131..f...@...@.
0C60: 01 74 68 6B 32 2B BD 40  0F 01 45 80 23 52 0B 80  .thk2+.@..E.#R..
0C70: F8 FF FF 7F F8 FF FF 7F  73 31 33 31 45 0B 80 F8  ........s131E...
0C80: FF FF 7F F8 FF FF 7F 73  31 33 32 01 80 66 02 80  .......s132..f..
0C90: BD 40 0F 01 BD 40 0F 01  74 6C 6B 30 2B BD 40 0F  .@...@..tlk0+.@.
0CA0: 01 46 80 23 66 02 80 BD  40 0F 01 BD 40 0F 01 74  .F.#f...@...@..t
0CB0: 6C 6B 31 6E F0 FF FF 7F  47 80 99 F0 FF FF 7F 1C  lk1n....G.......
0CC0: 48 80 52 0B 80 F8 FF FF  7F F8 FF FF 7F 73 31 33  H.R..........s13
0CD0: 32 45 0B 80 F8 FF FF 7F  F8 FF FF 7F 73 31 33 33  2E..........s133
0CE0: 01 80 66 02 80 BD 40 0F  01 BD 40 0F 01 74 6C 6B  ..f...@...@..tlk
0CF0: 30 2B BD 40 0F 01 49 80  23 52 0B 80 F8 FF FF 7F  0+.@..I.#R......
0D00: F8 FF FF 7F 73 31 33 33  45 0B 80 F8 FF FF 7F F8  ....s133E.......
0D10: FF FF 7F 73 31 33 34 01  80 2B BD 40 0F 01 4A 80  ...s134..+.@..J.
0D20: 23 52 0B 80 F8 FF FF 7F  F8 FF FF 7F 73 31 33 34  #R..........s134
0D30: 45 0B 80 F8 FF FF 7F F8  FF FF 7F 73 31 33 35 01  E..........s135.
0D40: 80 2B BD 40 0F 01 4B 80  23 52 0B 80 F8 FF FF 7F  .+.@..K.#R......
0D50: F8 FF FF 7F 73 31 33 35  45 0B 80 F8 FF FF 7F F8  ....s135E.......
0D60: FF FF 7F 73 31 33 36 01  80 66 02 80 BD 40 0F 01  ...s136..f...@..
0D70: BD 40 0F 01 74 6C 6B 31  2B BD 40 0F 01 4C 80 23  .@..tlk1+.@..L.#
0D80: 45 00 80 F8 FF FF 7F F8  FF FF 7F 66 64 6F 31 01  E..........fdo1.
0D90: 80 55 00 80 F8 FF FF 7F  F8 FF FF 7F 66 64 6F 31  .U..........fdo1
0DA0: 52 0B 80 F8 FF FF 7F F8  FF FF 7F 73 31 33 36 1C  R..........s136.
0DB0: 4D 80 34 4E 80 77 4F 80  4D 80 1C 4D 80 2F 00 C4  M.4N.wO.M..M./..
0DC0: 40 0F 01 4E 00 C4 40 0F  01 BA C4 40 0F 01 50 80  @..N..@....@..P.
0DD0: 51 80 52 80 53 80 80 C4  40 0F 01 1C 09 80 5B 54  Q.R.S...@.....[T
0DE0: 80 C4 40 0F 01 C4 40 0F  01 64 61 6E 30 53 C4 40  ..@...@..dan0S.@
0DF0: 0F 01 C4 40 0F 01 64 61  6E 30 45 0B 80 F8 FF FF  ...@..dan0E.....
0E00: 7F F8 FF FF 7F 73 31 33  37 01 80 1C 0C 80 45 00  .....s137.....E.
0E10: 80 F8 FF FF 7F F8 FF FF  7F 66 64 69 31 01 80 55  .........fdi1..U
0E20: 00 80 F8 FF FF 7F F8 FF  FF 7F 66 64 69 31 2B BD  ..........fdi1+.
0E30: 40 0F 01 55 80 23 55 0B  80 F8 FF FF 7F F8 FF FF  @..U.#U.........
0E40: 7F 73 31 33 37 45 00 80  F8 FF FF 7F F8 FF FF 7F  .s137E..........
0E50: 66 64 6F 31 01 80 55 00  80 F8 FF FF 7F F8 FF FF  fdo1..U.........
0E60: 7F 66 64 6F 31 35 56 80  78 1C 4D 80 5B 0A 80 BD  .fdo15V.x.M.[...
0E70: 40 0F 01 BD 40 0F 01 66  75 6E 30 53 BD 40 0F 01  @...@..fun0S.@..
0E80: BD 40 0F 01 66 75 6E 30  45 0B 80 F8 FF FF 7F F8  .@..fun0E.......
0E90: FF FF 7F 73 31 33 38 01  80 1C 0C 80 45 00 80 F8  ...s138.....E...
0EA0: FF FF 7F F8 FF FF 7F 66  64 69 31 01 80 55 00 80  .......fdi1..U..
0EB0: F8 FF FF 7F F8 FF FF 7F  66 64 69 31 2B BD 40 0F  ........fdi1+.@.
0EC0: 01 57 80 23 52 0B 80 F8  FF FF 7F F8 FF FF 7F 73  .W.#R..........s
0ED0: 31 33 38 45 0B 80 F8 FF  FF 7F F8 FF FF 7F 73 31  138E..........s1
0EE0: 33 39 01 80 2B BD 40 0F  01 58 80 23 52 0B 80 F8  39..+.@..X.#R...
0EF0: FF FF 7F F8 FF FF 7F 73  31 33 39 45 0B 80 F8 FF  .......s139E....
0F00: FF 7F F8 FF FF 7F 73 31  34 30 01 80 2B BD 40 0F  ......s140..+.@.
0F10: 01 59 80 23 45 00 80 F8  FF FF 7F F8 FF FF 7F 66  .Y.#E..........f
0F20: 64 6F 31 01 80 55 00 80  F8 FF FF 7F F8 FF FF 7F  do1..U..........
0F30: 66 64 6F 31 52 0B 80 F8  FF FF 7F F8 FF FF 7F 73  fdo1R..........s
0F40: 31 34 30 27 10 BB 40 0F  01 08 27 10 BC 40 0F 01  140'..@...'..@..
0F50: 04 46 00 1C 16 80 45 00  80 F8 FF FF 7F F8 FF FF  .F....E.........
0F60: 7F 66 64 69 31 01 80 21  00                       .fdi1..!.       
```

#### Opcodes

```
  0: 0x0A7E [0x42] SET_CLI_EVENT_CANCEL_DATA()
  1: 0x0A7F [0x45] LOAD_SCHEDULED_TASK: Load scheduler "fdo1" with entities [EventEntity, EventEntity], work=[200*, 0*]
  2: 0x0A90 [0x55] WAIT_LOAD_SCHEDULER: Wait for scheduler "fdo1" with entities [EventEntity, EventEntity], work=200*
  3: 0x0A9F [0x46] CAMERA_CONTROL: Disable user control
  4: 0x0AA1 [0x38] SET_CLIENT_EVENT_MODE(mode=19*)
  5: 0x0AA4 [0x27] REQ_SET(priority=0x05, entity_id=Door:M & P's Market (ID: 17776741/0x010F4065), tag_num=0x01)
  6: 0x0AAB [0x27] REQ_SET(priority=0x05, entity_id=Door:House (ID: 17776743/0x010F4067), tag_num=0x05)
  7: 0x0AB2 [0x27] REQ_SET(priority=0x10, entity_id=Rhea Myuliah (ID: 17776827/0x010F40BB), tag_num=0x09)
  8: 0x0AB9 [0x27] REQ_SET(priority=0x10, entity_id=Olgald (ID: 17776828/0x010F40BC), tag_num=0x05)
  9: 0x0AC0 [0x92] Laila (ID: 17776829/0x010F40BD)->Render.Flags3 ^= 0x01
 10: 0x0AC6 [0x92] Olgald (ID: 17776828/0x010F40BC)->Render.Flags3 ^= 0x01
 11: 0x0ACC [0x92] Rhea Myuliah (ID: 17776827/0x010F40BB)->Render.Flags3 ^= 0x01
 12: 0x0AD2 [0x2F] Laila (ID: 17776829/0x010F40BD)->Render.Flags0 &= ~0x80000 // Bit 19
 13: 0x0AD8 [0x4E] SET_ENTITY_HIDE_FLAG: Show Laila (ID: 17776829/0x010F40BD)
 14: 0x0ADE [0xBA] SET_ENTITY_POSITION(entity_id=LocalPlayer, pos_x=-55.814*, pos_z=102.862*, pos_y=0.000*, direction=61.3°*)
 15: 0x0AEB [0xBA] SET_ENTITY_POSITION(entity_id=Rhea Myuliah (ID: 17776827/0x010F40BB), pos_x=-56.119*, pos_z=99.820*, pos_y=0.000*, direction=236.4°*)
 16: 0x0AF8 [0x80] LOAD_WAIT(entity=Laila (ID: 17776829/0x010F40BD))
 17: 0x0AFD [0x80] LOAD_WAIT(entity=LocalPlayer)
 18: 0x0B02 [0x80] LOAD_WAIT(entity=Olgald (ID: 17776828/0x010F40BC))
 19: 0x0B07 [0x80] LOAD_WAIT(entity=Rhea Myuliah (ID: 17776827/0x010F40BB))
 20: 0x0B0C [0x94] Laila (ID: 17776829/0x010F40BD)->Render.Flags3 ^= 0x01
 21: 0x0B12 [0x4A] Laila (ID: 17776829/0x010F40BD) looks at LocalPlayer
 22: 0x0B1B [0x4A] LocalPlayer looks at Laila (ID: 17776829/0x010F40BD)
 23: 0x0B24 [0x1C] WAIT(30* ticks)
 24: 0x0B27 [0x5B] LOAD_EXT_SCHEDULER: Load scheduler "fun0" with entities [Laila (ID: 17776829/0x010F40BD), Laila (ID: 17776829/0x010F40BD)], work=1252*
 25: 0x0B36 [0x53] WAIT_SCHEDULER_TASK: Wait for scheduler "fun0" with entities [Laila (ID: 17776829/0x010F40BD), Laila (ID: 17776829/0x010F40BD)]
 26: 0x0B43 [0x45] LOAD_SCHEDULED_TASK: Load scheduler "s128" with entities [EventEntity, EventEntity], work=[335*, 0*]
 27: 0x0B54 [0x1C] WAIT(15* ticks)
 28: 0x0B57 [0x45] LOAD_SCHEDULED_TASK: Load scheduler "fdi1" with entities [EventEntity, EventEntity], work=[200*, 0*]
 29: 0x0B68 [0x55] WAIT_LOAD_SCHEDULER: Wait for scheduler "fdi1" with entities [EventEntity, EventEntity], work=200*
 30: 0x0B77 [0x2B] Laila (ID: 17776829/0x010F40BD) [11898*]:
    → "Practicin' hard, <Player>?"
 31: 0x0B7E [0x23] WAIT_FOR_DIALOG_INTERACTION
 32: 0x0B7F [0x52] END_LOAD_SCHEDULER: End scheduler "s128" with entities [EventEntity, EventEntity], work=335*
 33: 0x0B8E [0x45] LOAD_SCHEDULED_TASK: Load scheduler "s129" with entities [EventEntity, EventEntity], work=[335*, 0*]
 34: 0x0B9F [0x5B] LOAD_EXT_SCHEDULER: Load scheduler "fun1" with entities [Laila (ID: 17776829/0x010F40BD), Laila (ID: 17776829/0x010F40BD)], work=1252*
 35: 0x0BAE [0x2B] Laila (ID: 17776829/0x010F40BD) [11899*]:
    → "Show me yer progress from time t'time, will ye?"
 36: 0x0BB5 [0x23] WAIT_FOR_DIALOG_INTERACTION
 37: 0x0BB6 [0x53] WAIT_SCHEDULER_TASK: Wait for scheduler "fun1" with entities [Laila (ID: 17776829/0x010F40BD), Laila (ID: 17776829/0x010F40BD)]
 38: 0x0BC3 [0x52] END_LOAD_SCHEDULER: End scheduler "s129" with entities [EventEntity, EventEntity], work=335*
 39: 0x0BD2 [0x45] LOAD_SCHEDULED_TASK: Load scheduler "s066" with entities [EventEntity, EventEntity], work=[335*, 0*]
 40: 0x0BE3 [0x6E] LocalPlayer uses emote 65*
 41: 0x0BEA [0x99] Wait for LocalPlayer animation to complete
 42: 0x0BEF [0x1C] WAIT(210* ticks)
 43: 0x0BF2 [0x66] LOAD_EXT_SCHEDULER_MAIN: Load scheduler "thk1" with entities [Laila (ID: 17776829/0x010F40BD), Laila (ID: 17776829/0x010F40BD)], work=19*
 44: 0x0C01 [0x52] END_LOAD_SCHEDULER: End scheduler "s066" with entities [EventEntity, EventEntity], work=335*
 45: 0x0C10 [0x45] LOAD_SCHEDULED_TASK: Load scheduler "s130" with entities [EventEntity, EventEntity], work=[335*, 0*]
 46: 0x0C21 [0x2B] Laila (ID: 17776829/0x010F40BD) [11900*]:
    → "Hmmm..."
 47: 0x0C28 [0x23] WAIT_FOR_DIALOG_INTERACTION
 48: 0x0C29 [0x53] WAIT_SCHEDULER_TASK: Wait for scheduler "thk1" with entities [Laila (ID: 17776829/0x010F40BD), Laila (ID: 17776829/0x010F40BD)]
 49: 0x0C36 [0x52] END_LOAD_SCHEDULER: End scheduler "s130" with entities [EventEntity, EventEntity], work=335*
 50: 0x0C45 [0x45] LOAD_SCHEDULED_TASK: Load scheduler "s131" with entities [EventEntity, EventEntity], work=[335*, 0*]
 51: 0x0C56 [0x66] LOAD_EXT_SCHEDULER_MAIN: Load scheduler "thk2" with entities [Laila (ID: 17776829/0x010F40BD), Laila (ID: 17776829/0x010F40BD)], work=19*
 52: 0x0C65 [0x2B] Laila (ID: 17776829/0x010F40BD) [11901*]:
    → "Not bad, but ye still have a long way t'go if ye want t'be diva o' the dance troupe."
 53: 0x0C6C [0x23] WAIT_FOR_DIALOG_INTERACTION
 54: 0x0C6D [0x52] END_LOAD_SCHEDULER: End scheduler "s131" with entities [EventEntity, EventEntity], work=335*
 55: 0x0C7C [0x45] LOAD_SCHEDULED_TASK: Load scheduler "s132" with entities [EventEntity, EventEntity], work=[335*, 0*]
 56: 0x0C8D [0x66] LOAD_EXT_SCHEDULER_MAIN: Load scheduler "tlk0" with entities [Laila (ID: 17776829/0x010F40BD), Laila (ID: 17776829/0x010F40BD)], work=19*
 57: 0x0C9C [0x2B] Laila (ID: 17776829/0x010F40BD) [11902*]:
    → "Have ye ever danced to a musician's tune?"
 58: 0x0CA3 [0x23] WAIT_FOR_DIALOG_INTERACTION
 59: 0x0CA4 [0x66] LOAD_EXT_SCHEDULER_MAIN: Load scheduler "tlk1" with entities [Laila (ID: 17776829/0x010F40BD), Laila (ID: 17776829/0x010F40BD)], work=19*
 60: 0x0CB3 [0x6E] LocalPlayer uses emote 6*
 61: 0x0CBA [0x99] Wait for LocalPlayer animation to complete
 62: 0x0CBF [0x1C] WAIT(90* ticks)
 63: 0x0CC2 [0x52] END_LOAD_SCHEDULER: End scheduler "s132" with entities [EventEntity, EventEntity], work=335*
 64: 0x0CD1 [0x45] LOAD_SCHEDULED_TASK: Load scheduler "s133" with entities [EventEntity, EventEntity], work=[335*, 0*]
 65: 0x0CE2 [0x66] LOAD_EXT_SCHEDULER_MAIN: Load scheduler "tlk0" with entities [Laila (ID: 17776829/0x010F40BD), Laila (ID: 17776829/0x010F40BD)], work=19*
 66: 0x0CF1 [0x2B] Laila (ID: 17776829/0x010F40BD) [11903*]:
    → "On stage, a dancer must be one with the musicians who perform the accompaniment."
 67: 0x0CF8 [0x23] WAIT_FOR_DIALOG_INTERACTION
 68: 0x0CF9 [0x52] END_LOAD_SCHEDULER: End scheduler "s133" with entities [EventEntity, EventEntity], work=335*
 69: 0x0D08 [0x45] LOAD_SCHEDULED_TASK: Load scheduler "s134" with entities [EventEntity, EventEntity], work=[335*, 0*]
 70: 0x0D19 [0x2B] Laila (ID: 17776829/0x010F40BD) [11904*]:
    → "Even when ye practice, ye've to visualize the music in yer mind, or ye'll become a self-centered dancer."
 71: 0x0D20 [0x23] WAIT_FOR_DIALOG_INTERACTION
 72: 0x0D21 [0x52] END_LOAD_SCHEDULER: End scheduler "s134" with entities [EventEntity, EventEntity], work=335*
 73: 0x0D30 [0x45] LOAD_SCHEDULED_TASK: Load scheduler "s135" with entities [EventEntity, EventEntity], work=[335*, 0*]
 74: 0x0D41 [0x2B] Laila (ID: 17776829/0x010F40BD) [11905*]:
    → "An' I guarantee ye, self-centered dancers don't get very far."
 75: 0x0D48 [0x23] WAIT_FOR_DIALOG_INTERACTION
 76: 0x0D49 [0x52] END_LOAD_SCHEDULER: End scheduler "s135" with entities [EventEntity, EventEntity], work=335*
 77: 0x0D58 [0x45] LOAD_SCHEDULED_TASK: Load scheduler "s136" with entities [EventEntity, EventEntity], work=[335*, 0*]
 78: 0x0D69 [0x66] LOAD_EXT_SCHEDULER_MAIN: Load scheduler "tlk1" with entities [Laila (ID: 17776829/0x010F40BD), Laila (ID: 17776829/0x010F40BD)], work=19*
 79: 0x0D78 [0x2B] Laila (ID: 17776829/0x010F40BD) [11906*]:
    → "To become a top-notch dancer, ye have t'work with a top-notch musician. I recommend ye find yerself a good musician who'll play a tune fer ye t'dance to."
 80: 0x0D7F [0x23] WAIT_FOR_DIALOG_INTERACTION
 81: 0x0D80 [0x45] LOAD_SCHEDULED_TASK: Load scheduler "fdo1" with entities [EventEntity, EventEntity], work=[200*, 0*]
 82: 0x0D91 [0x55] WAIT_LOAD_SCHEDULER: Wait for scheduler "fdo1" with entities [EventEntity, EventEntity], work=200*
 83: 0x0DA0 [0x52] END_LOAD_SCHEDULER: End scheduler "s136" with entities [EventEntity, EventEntity], work=335*
 84: 0x0DAF [0x1C] WAIT(1* ticks)
 85: 0x0DB2 [0x34] LOAD_UNLOAD_ZONE(zone_id=82*)
 86: 0x0DB5 [0x77] SET_EVENT_TIME_WEATHER(hour=9*, weather=1*)
 87: 0x0DBA [0x1C] WAIT(1* ticks)
 88: 0x0DBD [0x2F] Unnamed NPC (ID: 17776836/0x010F40C4)->Render.Flags0 &= ~0x80000 // Bit 19
 89: 0x0DC3 [0x4E] SET_ENTITY_HIDE_FLAG: Show Unnamed NPC (ID: 17776836/0x010F40C4)
 90: 0x0DC9 [0xBA] SET_ENTITY_POSITION(entity_id=Unnamed NPC (ID: 17776836/0x010F40C4), pos_x=102.086*, pos_z=439.999*, pos_y=5.730*, direction=179.4°*)
 91: 0x0DD6 [0x80] LOAD_WAIT(entity=Unnamed NPC (ID: 17776836/0x010F40C4))
 92: 0x0DDB [0x1C] WAIT(30* ticks)
 93: 0x0DDE [0x5B] LOAD_EXT_SCHEDULER: Load scheduler "dan0" with entities [Unnamed NPC (ID: 17776836/0x010F40C4), Unnamed NPC (ID: 17776836/0x010F40C4)], work=1276*
 94: 0x0DED [0x53] WAIT_SCHEDULER_TASK: Wait for scheduler "dan0" with entities [Unnamed NPC (ID: 17776836/0x010F40C4), Unnamed NPC (ID: 17776836/0x010F40C4)]
 95: 0x0DFA [0x45] LOAD_SCHEDULED_TASK: Load scheduler "s137" with entities [EventEntity, EventEntity], work=[335*, 0*]
 96: 0x0E0B [0x1C] WAIT(15* ticks)
 97: 0x0E0E [0x45] LOAD_SCHEDULED_TASK: Load scheduler "fdi1" with entities [EventEntity, EventEntity], work=[200*, 0*]
 98: 0x0E1F [0x55] WAIT_LOAD_SCHEDULER: Wait for scheduler "fdi1" with entities [EventEntity, EventEntity], work=200*
 99: 0x0E2E [0x2B] Laila (ID: 17776829/0x010F40BD) [11907*]:
    → "Let me tell ye a story. When I was little, I once skipped practice an' stole off to a lake in Jugner Forest. It was there that me ears were treated to a most marvelous pipe tune. Its soul-stirrin' melody is still vivid in me mind t'this day."
100: 0x0E35 [0x23] WAIT_FOR_DIALOG_INTERACTION
101: 0x0E36 [0x55] WAIT_LOAD_SCHEDULER: Wait for scheduler "s137" with entities [EventEntity, EventEntity], work=335*
102: 0x0E45 [0x45] LOAD_SCHEDULED_TASK: Load scheduler "fdo1" with entities [EventEntity, EventEntity], work=[200*, 0*]
103: 0x0E56 [0x55] WAIT_LOAD_SCHEDULER: Wait for scheduler "fdo1" with entities [EventEntity, EventEntity], work=200*
104: 0x0E65 [0x35] LOAD_ZONE_NO_CLOSE(zone_id=244*)
105: 0x0E68 [0x78] ENABLE_GAME_TIMER_RESET_WEATHER()
106: 0x0E69 [0x1C] WAIT(1* ticks)
107: 0x0E6C [0x5B] LOAD_EXT_SCHEDULER: Load scheduler "fun0" with entities [Laila (ID: 17776829/0x010F40BD), Laila (ID: 17776829/0x010F40BD)], work=1252*
108: 0x0E7B [0x53] WAIT_SCHEDULER_TASK: Wait for scheduler "fun0" with entities [Laila (ID: 17776829/0x010F40BD), Laila (ID: 17776829/0x010F40BD)]
109: 0x0E88 [0x45] LOAD_SCHEDULED_TASK: Load scheduler "s138" with entities [EventEntity, EventEntity], work=[335*, 0*]
110: 0x0E99 [0x1C] WAIT(15* ticks)
111: 0x0E9C [0x45] LOAD_SCHEDULED_TASK: Load scheduler "fdi1" with entities [EventEntity, EventEntity], work=[200*, 0*]
112: 0x0EAD [0x55] WAIT_LOAD_SCHEDULER: Wait for scheduler "fdi1" with entities [EventEntity, EventEntity], work=200*
113: 0x0EBC [0x2B] Laila (ID: 17776829/0x010F40BD) [11908*]:
    → "Even though I never actually saw the person playin', it was this chance encounter that made me the dancer I am today."
114: 0x0EC3 [0x23] WAIT_FOR_DIALOG_INTERACTION
115: 0x0EC4 [0x52] END_LOAD_SCHEDULER: End scheduler "s138" with entities [EventEntity, EventEntity], work=335*
116: 0x0ED3 [0x45] LOAD_SCHEDULED_TASK: Load scheduler "s139" with entities [EventEntity, EventEntity], work=[335*, 0*]
117: 0x0EE4 [0x2B] Laila (ID: 17776829/0x010F40BD) [11909*]:
    → "If only I knew who was playing that tune, I would share its inspiration with ye, <Player>."
118: 0x0EEB [0x23] WAIT_FOR_DIALOG_INTERACTION
119: 0x0EEC [0x52] END_LOAD_SCHEDULER: End scheduler "s139" with entities [EventEntity, EventEntity], work=335*
120: 0x0EFB [0x45] LOAD_SCHEDULED_TASK: Load scheduler "s140" with entities [EventEntity, EventEntity], work=[335*, 0*]
121: 0x0F0C [0x2B] Laila (ID: 17776829/0x010F40BD) [11910*]:
    → "<Sigh> It was such a long time ago..."
122: 0x0F13 [0x23] WAIT_FOR_DIALOG_INTERACTION
123: 0x0F14 [0x45] LOAD_SCHEDULED_TASK: Load scheduler "fdo1" with entities [EventEntity, EventEntity], work=[200*, 0*]
124: 0x0F25 [0x55] WAIT_LOAD_SCHEDULER: Wait for scheduler "fdo1" with entities [EventEntity, EventEntity], work=200*
125: 0x0F34 [0x52] END_LOAD_SCHEDULER: End scheduler "s140" with entities [EventEntity, EventEntity], work=335*
126: 0x0F43 [0x27] REQ_SET(priority=0x10, entity_id=Rhea Myuliah (ID: 17776827/0x010F40BB), tag_num=0x08)
127: 0x0F4A [0x27] REQ_SET(priority=0x10, entity_id=Olgald (ID: 17776828/0x010F40BC), tag_num=0x04)
128: 0x0F51 [0x46] CAMERA_CONTROL: Restore default settings
129: 0x0F53 [0x1C] WAIT(60* ticks)
130: 0x0F56 [0x45] LOAD_SCHEDULED_TASK: Load scheduler "fdi1" with entities [EventEntity, EventEntity], work=[200*, 0*]
131: 0x0F67 [0x21] END_EVENT
132: 0x0F68 [0x00] END_REQSTACK()
```
