# 17776707 - Tenzen

## Common Data

| Field            | Value                 |
|------------------|-----------------------|
| Zone             | Upper Jeuno (ID: 244) |
| Block Size       | 1200 bytes            |
| Total Events     | 35                    |
| References Count | 62                    |

## List of Events

| Event ID                   | Entrypoint   |   Size |   Instructions |
|----------------------------|--------------|--------|----------------|
| [65535](#event-65535)      | 0x0000       |     13 |              3 |
| [74](#event-74)            | 0x000D       |     16 |              3 |
| [65535.1](#event-655351)   | 0x001D       |     16 |              4 |
| [65535.2](#event-655352)   | 0x002D       |     15 |              5 |
| [65535.3](#event-655353)   | 0x003C       |     13 |              3 |
| [65535.4](#event-655354)   | 0x0049       |     16 |              5 |
| [82](#event-82)            | 0x0059       |     16 |              3 |
| [65535.5](#event-655355)   | 0x0069       |     17 |              5 |
| [65535.6](#event-655356)   | 0x007A       |     10 |              2 |
| [65535.7](#event-655357)   | 0x0084       |     24 |              6 |
| [65535.8](#event-655358)   | 0x009C       |     24 |              6 |
| [75](#event-75)            | 0x00B4       |     26 |              4 |
| [65535.9](#event-655359)   | 0x00CE       |     14 |              4 |
| [65535.10](#event-6553510) | 0x00DC       |     29 |              3 |
| [65535.11](#event-6553511) | 0x00F9       |     29 |              3 |
| [65535.12](#event-6553512) | 0x0116       |     49 |              5 |
| [65535.13](#event-6553513) | 0x0147       |     29 |              3 |
| [65535.14](#event-6553514) | 0x0164       |     29 |              3 |
| [65535.15](#event-6553515) | 0x0181       |     29 |              3 |
| [65535.16](#event-6553516) | 0x019E       |     16 |              2 |
| [65535.17](#event-6553517) | 0x01AE       |     29 |              3 |
| [65535.18](#event-6553518) | 0x01CB       |     29 |              3 |
| [65535.19](#event-6553519) | 0x01E8       |     29 |              3 |
| [65535.20](#event-6553520) | 0x0205       |     29 |              3 |
| [65535.21](#event-6553521) | 0x0222       |     29 |              3 |
| [65535.22](#event-6553522) | 0x023F       |     22 |              6 |
| [65535.23](#event-6553523) | 0x0255       |     69 |             14 |
| [10221](#event-10221)      | 0x029A       |      1 |              1 |
| [65535.24](#event-6553524) | 0x029B       |     17 |              5 |
| [65535.25](#event-6553525) | 0x02AC       |     14 |              4 |
| [65535.26](#event-6553526) | 0x02BA       |     14 |              4 |
| [65535.27](#event-6553527) | 0x02C8       |     14 |              4 |
| [65535.28](#event-6553528) | 0x02D6       |     14 |              4 |
| [65535.29](#event-6553529) | 0x02E4       |     22 |              6 |
| [65535.30](#event-6553530) | 0x02FA       |     34 |              8 |

## DAT References (imed_data)

|   Index | Hex Value   |   Dec Value |
|---------|-------------|-------------|
|       0 | 0xFFFF407B  |  4294918267 |
|       1 | 0x0C4C      |        3148 |
|       2 | 0xFFFFFE0D  |  4294966797 |
|       3 | 0x019E      |         414 |
|       4 | 0x000D      |          13 |
|       5 | 0xFFFF5096  |  4294922390 |
|       6 | 0x0096      |         150 |
|       7 | 0x0078      |         120 |
|       8 | 0xFFFF3D7F  |  4294917503 |
|       9 | 0x0EC0      |        3776 |
|      10 | 0x0028      |          40 |
|      11 | 0xFFFF340F  |  4294915087 |
|      12 | 0xFFFFEF1F  |  4294962975 |
|      13 | 0xFFFFFE0C  |  4294966796 |
|      14 | 0x0701      |        1793 |
|      15 | 0x003C      |          60 |
|      16 | 0xFFFF313E  |  4294914366 |
|      17 | 0xFFFFEED1  |  4294962897 |
|      18 | 0xFFFF5118  |  4294922520 |
|      19 | 0xFFFFFD96  |  4294966678 |
|      20 | 0x011B      |         283 |
|      21 | 0xFFFF3E88  |  4294917768 |
|      22 | 0x09E3      |        2531 |
|      23 | 0x001E      |          30 |
|      24 | 0xFFFF1E00  |  4294909440 |
|      25 | 0x106C      |        4204 |
|      26 | 0xFFFF1789  |  4294907785 |
|      27 | 0xFFFFF945  |  4294965573 |
|      28 | 0x024C      |         588 |
|      29 | 0xFFFF23AE  |  4294910894 |
|      30 | 0xFFFFEBEF  |  4294962159 |
|      31 | 0x01AC      |         428 |
|      32 | 0x01AB      |         427 |
|      33 | 0x0046      |          70 |
|      34 | 0x004B      |          75 |
|      35 | 0x0000      |           0 |
|      36 | 0x01A9      |         425 |
|      37 | 0x01AA      |         426 |
|      38 | 0x02EE      |         750 |
|      39 | 0xFFFF1ABF  |  4294908607 |
|      40 | 0xFFFFF614  |  4294964756 |
|      41 | 0xFFFF222A  |  4294910506 |
|      42 | 0x0171      |         369 |
|      43 | 0xFFFEC10E  |  4294885646 |
|      44 | 0x177B4     |       96180 |
|      45 | 0xFFFEE1AA  |  4294893994 |
|      46 | 0x165AA     |       91562 |
|      47 | 0xFFFEF965  |  4294900069 |
|      48 | 0x13C20     |       80928 |
|      49 | 0xFFFED6F6  |  4294891254 |
|      50 | 0x16509     |       91401 |
|      51 | 0xFFFF0DEA  |  4294905322 |
|      52 | 0x14639     |       83513 |
|      53 | 0xFFFF4F9E  |  4294922142 |
|      54 | 0x178EF     |       96495 |
|      55 | 0x1F3F      |        7999 |
|      56 | 0xFFFF60D5  |  4294926549 |
|      57 | 0x16CF0     |       93424 |
|      58 | 0xFFFF5E82  |  4294925954 |
|      59 | 0x15570     |       87408 |
|      60 | 0xFFFF1EFD  |  4294909693 |
|      61 | 0x12F8C     |       77708 |

## Events

### Event 65535

#### Metadata

| Field        | Value    |
|--------------|----------|
| Entrypoint   | 0x0000   |
| Data Size    | 13 bytes |
| Instructions | 3        |

```
      00 01 02 03 04 05 06 07  08 09 0A 0B 0C 0D 0E 0F
      -- -- -- -- -- -- -- --  -- -- -- -- -- -- -- --
0000: 92 01 F8 FF FF 7F 94 01  F8 FF FF 7F 00           .............   
```

#### Opcodes

```
  0: 0x0000 [0x92] EventEntity->Render.Flags3 ^= 0x01
  1: 0x0006 [0x94] EventEntity->Render.Flags3 ^= 0x01
  2: 0x000C [0x00] END_REQSTACK()
```

### Event 74

#### Metadata

| Field        | Value    |
|--------------|----------|
| Entrypoint   | 0x000D   |
| Data Size    | 16 bytes |
| Instructions | 3        |

```
      00 01 02 03 04 05 06 07  08 09 0A 0B 0C 0D 0E 0F
      -- -- -- -- -- -- -- --  -- -- -- -- -- -- -- --
0000:                                         94 01 F8               ...
0010: FF FF 7F 37 00 80 01 80  02 80 03 80 00           ...7.........   
```

#### Opcodes

```
  0: 0x000D [0x94] EventEntity->Render.Flags3 ^= 0x01
  1: 0x0013 [0x37] UPDATE_EVENT_POSITION_AND_DIR: x=-49.029*, z=3.148*, y=-0.499*, direction=36.4째*
  2: 0x001C [0x00] END_REQSTACK()
```

### Event 65535.1

#### Metadata

| Field        | Value    |
|--------------|----------|
| Entrypoint   | 0x001D   |
| Data Size    | 16 bytes |
| Instructions | 4        |

```
      00 01 02 03 04 05 06 07  08 09 0A 0B 0C 0D 0E 0F
      -- -- -- -- -- -- -- --  -- -- -- -- -- -- -- --
0010:                                         32 04 80               2..
0020: 31 00 05 80 06 80 02 80  07 80 31 01 00           1.........1..   
```

#### Opcodes

```
  0: 0x001D [0x32] ExtData[1]->MainSpeed = 13* * 0.1
  1: 0x0020 [0x31] UPDATE_ENTITY_POSITION: Set EventEntity goal position to X=-44.906*, Z=0.150*, Y=-0.499*, Time=120*
  2: 0x002A [0x31] UPDATE_ENTITY_POSITION: Move EventEntity towards goal position
  3: 0x002C [0x00] END_REQSTACK()
```

### Event 65535.2

#### Metadata

| Field        | Value    |
|--------------|----------|
| Entrypoint   | 0x002D   |
| Data Size    | 15 bytes |
| Instructions | 5        |

```
      00 01 02 03 04 05 06 07  08 09 0A 0B 0C 0D 0E 0F
      -- -- -- -- -- -- -- --  -- -- -- -- -- -- -- --
0020:                                         32 04 80               2..
0030: 1F 00 05 80 06 80 02 80  1F 01 6F 00              ..........o.    
```

#### Opcodes

```
  0: 0x002D [0x32] ExtData[1]->MainSpeed = 13* * 0.1
  1: 0x0030 [0x1F] MOVE_ENTITY: EventEntity moves to X=-44.906*, Z=0.150*, Y=-0.499*
  2: 0x0038 [0x1F] MOVE_ENTITY: Update entity position (mode=1)
  3: 0x003A [0x6F] WAIT_FRAME_DELAY: Yield until WaitTime reaches zero
  4: 0x003B [0x00] END_REQSTACK()
```

### Event 65535.3

#### Metadata

| Field        | Value    |
|--------------|----------|
| Entrypoint   | 0x003C   |
| Data Size    | 13 bytes |
| Instructions | 3        |

```
      00 01 02 03 04 05 06 07  08 09 0A 0B 0C 0D 0E 0F
      -- -- -- -- -- -- -- --  -- -- -- -- -- -- -- --
0030:                                      31 00 08 80              1...
0040: 09 80 02 80 0A 80 31 01  00                       ......1..       
```

#### Opcodes

```
  0: 0x003C [0x31] UPDATE_ENTITY_POSITION: Set EventEntity goal position to X=-49.793*, Z=3.776*, Y=-0.499*, Time=40*
  1: 0x0046 [0x31] UPDATE_ENTITY_POSITION: Move EventEntity towards goal position
  2: 0x0048 [0x00] END_REQSTACK()
```

### Event 65535.4

#### Metadata

| Field        | Value    |
|--------------|----------|
| Entrypoint   | 0x0049   |
| Data Size    | 16 bytes |
| Instructions | 5        |

```
      00 01 02 03 04 05 06 07  08 09 0A 0B 0C 0D 0E 0F
      -- -- -- -- -- -- -- --  -- -- -- -- -- -- -- --
0040:                             32 0A 80 1F 00 08 80           2......
0050: 09 80 02 80 1F 01 22 01  00                       ......"..       
```

#### Opcodes

```
  0: 0x0049 [0x32] ExtData[1]->MainSpeed = 40* * 0.1
  1: 0x004C [0x1F] MOVE_ENTITY: EventEntity moves to X=-49.793*, Z=3.776*, Y=-0.499*
  2: 0x0054 [0x1F] MOVE_ENTITY: Update entity position (mode=1)
  3: 0x0056 [0x22] ENTITY_HIDE_FLAG(enabled=0x01)
  4: 0x0058 [0x00] END_REQSTACK()
```

### Event 82

#### Metadata

| Field        | Value    |
|--------------|----------|
| Entrypoint   | 0x0059   |
| Data Size    | 16 bytes |
| Instructions | 3        |

```
      00 01 02 03 04 05 06 07  08 09 0A 0B 0C 0D 0E 0F
      -- -- -- -- -- -- -- --  -- -- -- -- -- -- -- --
0050:                             94 01 F8 FF FF 7F 37           ......7
0060: 0B 80 0C 80 0D 80 0E 80  00                       .........       
```

#### Opcodes

```
  0: 0x0059 [0x94] EventEntity->Render.Flags3 ^= 0x01
  1: 0x005F [0x37] UPDATE_EVENT_POSITION_AND_DIR: x=-52.209*, z=-4.321*, y=-0.500*, direction=157.6째*
  2: 0x0068 [0x00] END_REQSTACK()
```

### Event 65535.5

#### Metadata

| Field        | Value    |
|--------------|----------|
| Entrypoint   | 0x0069   |
| Data Size    | 17 bytes |
| Instructions | 5        |

```
      00 01 02 03 04 05 06 07  08 09 0A 0B 0C 0D 0E 0F
      -- -- -- -- -- -- -- --  -- -- -- -- -- -- -- --
0060:                             1C 0F 80 32 04 80 1F           ...2...
0070: 00 10 80 11 80 0D 80 1F  01 00                    ..........      
```

#### Opcodes

```
  0: 0x0069 [0x1C] WAIT(60* ticks)
  1: 0x006C [0x32] ExtData[1]->MainSpeed = 13* * 0.1
  2: 0x006F [0x1F] MOVE_ENTITY: EventEntity moves to X=-52.930*, Z=-4.399*, Y=-0.500*
  3: 0x0077 [0x1F] MOVE_ENTITY: Update entity position (mode=1)
  4: 0x0079 [0x00] END_REQSTACK()
```

### Event 65535.6

#### Metadata

| Field        | Value    |
|--------------|----------|
| Entrypoint   | 0x007A   |
| Data Size    | 10 bytes |
| Instructions | 2        |

```
      00 01 02 03 04 05 06 07  08 09 0A 0B 0C 0D 0E 0F
      -- -- -- -- -- -- -- --  -- -- -- -- -- -- -- --
0070:                                37 12 80 13 80 02            7.....
0080: 80 14 80 00                                       ....            
```

#### Opcodes

```
  0: 0x007A [0x37] UPDATE_EVENT_POSITION_AND_DIR: x=-44.776*, z=-0.618*, y=-0.499*, direction=24.9째*
  1: 0x0083 [0x00] END_REQSTACK()
```

### Event 65535.7

#### Metadata

| Field        | Value    |
|--------------|----------|
| Entrypoint   | 0x0084   |
| Data Size    | 24 bytes |
| Instructions | 6        |

```
      00 01 02 03 04 05 06 07  08 09 0A 0B 0C 0D 0E 0F
      -- -- -- -- -- -- -- --  -- -- -- -- -- -- -- --
0080:             32 0A 80 31  00 15 80 16 80 02 80 0F      2..1........
0090: 80 31 01 1C 17 80 1E 01  40 0F 01 00              .1......@...    
```

#### Opcodes

```
  0: 0x0084 [0x32] ExtData[1]->MainSpeed = 40* * 0.1
  1: 0x0087 [0x31] UPDATE_ENTITY_POSITION: Set EventEntity goal position to X=-49.528*, Z=2.531*, Y=-0.499*, Time=60*
  2: 0x0091 [0x31] UPDATE_ENTITY_POSITION: Move EventEntity towards goal position
  3: 0x0093 [0x1C] WAIT(30* ticks)
  4: 0x0096 [0x1E] EventEntity looks at Monberaux (ID: 17776641/0x010F4001) and starts talking
  5: 0x009B [0x00] END_REQSTACK()
```

### Event 65535.8

#### Metadata

| Field        | Value    |
|--------------|----------|
| Entrypoint   | 0x009C   |
| Data Size    | 24 bytes |
| Instructions | 6        |

```
      00 01 02 03 04 05 06 07  08 09 0A 0B 0C 0D 0E 0F
      -- -- -- -- -- -- -- --  -- -- -- -- -- -- -- --
0090:                                      32 0A 80 1F              2...
00A0: 00 15 80 16 80 02 80 1F  01 1F 00 18 80 19 80 0D  ................
00B0: 80 1F 01 00                                       ....            
```

#### Opcodes

```
  0: 0x009C [0x32] ExtData[1]->MainSpeed = 40* * 0.1
  1: 0x009F [0x1F] MOVE_ENTITY: EventEntity moves to X=-49.528*, Z=2.531*, Y=-0.499*
  2: 0x00A7 [0x1F] MOVE_ENTITY: Update entity position (mode=1)
  3: 0x00A9 [0x1F] MOVE_ENTITY: EventEntity moves to X=-57.856*, Z=4.204*, Y=-0.500*
  4: 0x00B1 [0x1F] MOVE_ENTITY: Update entity position (mode=1)
  5: 0x00B3 [0x00] END_REQSTACK()
```

### Event 75

#### Metadata

| Field        | Value    |
|--------------|----------|
| Entrypoint   | 0x00B4   |
| Data Size    | 26 bytes |
| Instructions | 4        |

```
      00 01 02 03 04 05 06 07  08 09 0A 0B 0C 0D 0E 0F
      -- -- -- -- -- -- -- --  -- -- -- -- -- -- -- --
00B0:             94 01 F8 FF  FF 7F 37 1A 80 1B 80 0D      ......7.....
00C0: 80 1C 80 79 00 F8 FF FF  7F 42 40 0F 01 00        ...y.....B@...  
```

#### Opcodes

```
  0: 0x00B4 [0x94] EventEntity->Render.Flags3 ^= 0x01
  1: 0x00BA [0x37] UPDATE_EVENT_POSITION_AND_DIR: x=-59.511*, z=-1.723*, y=-0.500*, direction=51.7째*
  2: 0x00C3 [0x79] EventEntity looks at Ulmia (ID: 17776706/0x010F4042) (Basic look)
  3: 0x00CD [0x00] END_REQSTACK()
```

### Event 65535.9

#### Metadata

| Field        | Value    |
|--------------|----------|
| Entrypoint   | 0x00CE   |
| Data Size    | 14 bytes |
| Instructions | 4        |

```
      00 01 02 03 04 05 06 07  08 09 0A 0B 0C 0D 0E 0F
      -- -- -- -- -- -- -- --  -- -- -- -- -- -- -- --
00C0:                                            32 0A                2.
00D0: 80 1F 00 1D 80 1E 80 0D  80 1F 01 00              ............    
```

#### Opcodes

```
  0: 0x00CE [0x32] ExtData[1]->MainSpeed = 40* * 0.1
  1: 0x00D1 [0x1F] MOVE_ENTITY: EventEntity moves to X=-56.402*, Z=-5.137*, Y=-0.500*
  2: 0x00D9 [0x1F] MOVE_ENTITY: Update entity position (mode=1)
  3: 0x00DB [0x00] END_REQSTACK()
```

### Event 65535.10

#### Metadata

| Field        | Value    |
|--------------|----------|
| Entrypoint   | 0x00DC   |
| Data Size    | 29 bytes |
| Instructions | 3        |

```
      00 01 02 03 04 05 06 07  08 09 0A 0B 0C 0D 0E 0F
      -- -- -- -- -- -- -- --  -- -- -- -- -- -- -- --
00D0:                                      5B 1F 80 F8              [...
00E0: FF FF 7F F8 FF FF 7F 6B  74 6E 30 53 F8 FF FF 7F  .......ktn0S....
00F0: F8 FF FF 7F 6B 74 6E 30  00                       ....ktn0.       
```

#### Opcodes

```
  0: 0x00DC [0x5B] LOAD_EXT_SCHEDULER: Load scheduler "ktn0" with entities [EventEntity, EventEntity], work=428*
  1: 0x00EB [0x53] WAIT_SCHEDULER_TASK: Wait for scheduler "ktn0" with entities [EventEntity, EventEntity]
  2: 0x00F8 [0x00] END_REQSTACK()
```

### Event 65535.11

#### Metadata

| Field        | Value    |
|--------------|----------|
| Entrypoint   | 0x00F9   |
| Data Size    | 29 bytes |
| Instructions | 3        |

```
      00 01 02 03 04 05 06 07  08 09 0A 0B 0C 0D 0E 0F
      -- -- -- -- -- -- -- --  -- -- -- -- -- -- -- --
00F0:                             5B 1F 80 F8 FF FF 7F           [......
0100: F8 FF FF 7F 6B 74 6E 31  53 F8 FF FF 7F F8 FF FF  ....ktn1S.......
0110: 7F 6B 74 6E 31 00                                 .ktn1.          
```

#### Opcodes

```
  0: 0x00F9 [0x5B] LOAD_EXT_SCHEDULER: Load scheduler "ktn1" with entities [EventEntity, EventEntity], work=428*
  1: 0x0108 [0x53] WAIT_SCHEDULER_TASK: Wait for scheduler "ktn1" with entities [EventEntity, EventEntity]
  2: 0x0115 [0x00] END_REQSTACK()
```

### Event 65535.12

#### Metadata

| Field        | Value    |
|--------------|----------|
| Entrypoint   | 0x0116   |
| Data Size    | 49 bytes |
| Instructions | 5        |

```
      00 01 02 03 04 05 06 07  08 09 0A 0B 0C 0D 0E 0F
      -- -- -- -- -- -- -- --  -- -- -- -- -- -- -- --
0110:                   5B 20  80 F8 FF FF 7F F8 FF FF        [ ........
0120: 7F 68 6F 75 30 1C 21 80  45 22 80 F8 FF FF 7F F8  .hou0.!.E"......
0130: FF FF 7F 73 30 30 31 23  80 53 F8 FF FF 7F F8 FF  ...s001#.S......
0140: FF 7F 68 6F 75 30 00                              ..hou0.         
```

#### Opcodes

```
  0: 0x0116 [0x5B] LOAD_EXT_SCHEDULER: Load scheduler "hou0" with entities [EventEntity, EventEntity], work=427*
  1: 0x0125 [0x1C] WAIT(70* ticks)
  2: 0x0128 [0x45] LOAD_SCHEDULED_TASK: Load scheduler "s001" with entities [EventEntity, EventEntity], work=[75*, 0*]
  3: 0x0139 [0x53] WAIT_SCHEDULER_TASK: Wait for scheduler "hou0" with entities [EventEntity, EventEntity]
  4: 0x0146 [0x00] END_REQSTACK()
```

### Event 65535.13

#### Metadata

| Field        | Value    |
|--------------|----------|
| Entrypoint   | 0x0147   |
| Data Size    | 29 bytes |
| Instructions | 3        |

```
      00 01 02 03 04 05 06 07  08 09 0A 0B 0C 0D 0E 0F
      -- -- -- -- -- -- -- --  -- -- -- -- -- -- -- --
0140:                      5B  20 80 F8 FF FF 7F F8 FF         [ .......
0150: FF 7F 68 6F 75 31 53 F8  FF FF 7F F8 FF FF 7F 68  ..hou1S........h
0160: 6F 75 31 00                                       ou1.            
```

#### Opcodes

```
  0: 0x0147 [0x5B] LOAD_EXT_SCHEDULER: Load scheduler "hou1" with entities [EventEntity, EventEntity], work=427*
  1: 0x0156 [0x53] WAIT_SCHEDULER_TASK: Wait for scheduler "hou1" with entities [EventEntity, EventEntity]
  2: 0x0163 [0x00] END_REQSTACK()
```

### Event 65535.14

#### Metadata

| Field        | Value    |
|--------------|----------|
| Entrypoint   | 0x0164   |
| Data Size    | 29 bytes |
| Instructions | 3        |

```
      00 01 02 03 04 05 06 07  08 09 0A 0B 0C 0D 0E 0F
      -- -- -- -- -- -- -- --  -- -- -- -- -- -- -- --
0160:             5B 24 80 F8  FF FF 7F F8 FF FF 7F 74      [$.........t
0170: 6C 61 30 53 F8 FF FF 7F  F8 FF FF 7F 74 6C 61 30  la0S........tla0
0180: 00                                                .               
```

#### Opcodes

```
  0: 0x0164 [0x5B] LOAD_EXT_SCHEDULER: Load scheduler "tla0" with entities [EventEntity, EventEntity], work=425*
  1: 0x0173 [0x53] WAIT_SCHEDULER_TASK: Wait for scheduler "tla0" with entities [EventEntity, EventEntity]
  2: 0x0180 [0x00] END_REQSTACK()
```

### Event 65535.15

#### Metadata

| Field        | Value    |
|--------------|----------|
| Entrypoint   | 0x0181   |
| Data Size    | 29 bytes |
| Instructions | 3        |

```
      00 01 02 03 04 05 06 07  08 09 0A 0B 0C 0D 0E 0F
      -- -- -- -- -- -- -- --  -- -- -- -- -- -- -- --
0180:    5B 24 80 F8 FF FF 7F  F8 FF FF 7F 74 6C 61 31   [$.........tla1
0190: 53 F8 FF FF 7F F8 FF FF  7F 74 6C 61 31 00        S........tla1.  
```

#### Opcodes

```
  0: 0x0181 [0x5B] LOAD_EXT_SCHEDULER: Load scheduler "tla1" with entities [EventEntity, EventEntity], work=425*
  1: 0x0190 [0x53] WAIT_SCHEDULER_TASK: Wait for scheduler "tla1" with entities [EventEntity, EventEntity]
  2: 0x019D [0x00] END_REQSTACK()
```

### Event 65535.16

#### Metadata

| Field        | Value    |
|--------------|----------|
| Entrypoint   | 0x019E   |
| Data Size    | 16 bytes |
| Instructions | 2        |

```
      00 01 02 03 04 05 06 07  08 09 0A 0B 0C 0D 0E 0F
      -- -- -- -- -- -- -- --  -- -- -- -- -- -- -- --
0190:                                            5B 24                [$
01A0: 80 F8 FF FF 7F F8 FF FF  7F 74 6C 62 30 00        .........tlb0.  
```

#### Opcodes

```
  0: 0x019E [0x5B] LOAD_EXT_SCHEDULER: Load scheduler "tlb0" with entities [EventEntity, EventEntity], work=425*
  1: 0x01AD [0x00] END_REQSTACK()
```

### Event 65535.17

#### Metadata

| Field        | Value    |
|--------------|----------|
| Entrypoint   | 0x01AE   |
| Data Size    | 29 bytes |
| Instructions | 3        |

```
      00 01 02 03 04 05 06 07  08 09 0A 0B 0C 0D 0E 0F
      -- -- -- -- -- -- -- --  -- -- -- -- -- -- -- --
01A0:                                            5B 24                [$
01B0: 80 F8 FF FF 7F F8 FF FF  7F 74 6C 62 31 53 F8 FF  .........tlb1S..
01C0: FF 7F F8 FF FF 7F 74 6C  62 31 00                 ......tlb1.     
```

#### Opcodes

```
  0: 0x01AE [0x5B] LOAD_EXT_SCHEDULER: Load scheduler "tlb1" with entities [EventEntity, EventEntity], work=425*
  1: 0x01BD [0x53] WAIT_SCHEDULER_TASK: Wait for scheduler "tlb1" with entities [EventEntity, EventEntity]
  2: 0x01CA [0x00] END_REQSTACK()
```

### Event 65535.18

#### Metadata

| Field        | Value    |
|--------------|----------|
| Entrypoint   | 0x01CB   |
| Data Size    | 29 bytes |
| Instructions | 3        |

```
      00 01 02 03 04 05 06 07  08 09 0A 0B 0C 0D 0E 0F
      -- -- -- -- -- -- -- --  -- -- -- -- -- -- -- --
01C0:                                   5B 24 80 F8 FF             [$...
01D0: FF 7F F8 FF FF 7F 74 68  6B 30 53 F8 FF FF 7F F8  ......thk0S.....
01E0: FF FF 7F 74 68 6B 30 00                           ...thk0.        
```

#### Opcodes

```
  0: 0x01CB [0x5B] LOAD_EXT_SCHEDULER: Load scheduler "thk0" with entities [EventEntity, EventEntity], work=425*
  1: 0x01DA [0x53] WAIT_SCHEDULER_TASK: Wait for scheduler "thk0" with entities [EventEntity, EventEntity]
  2: 0x01E7 [0x00] END_REQSTACK()
```

### Event 65535.19

#### Metadata

| Field        | Value    |
|--------------|----------|
| Entrypoint   | 0x01E8   |
| Data Size    | 29 bytes |
| Instructions | 3        |

```
      00 01 02 03 04 05 06 07  08 09 0A 0B 0C 0D 0E 0F
      -- -- -- -- -- -- -- --  -- -- -- -- -- -- -- --
01E0:                          5B 24 80 F8 FF FF 7F F8          [$......
01F0: FF FF 7F 74 68 6B 31 53  F8 FF FF 7F F8 FF FF 7F  ...thk1S........
0200: 74 68 6B 31 00                                    thk1.           
```

#### Opcodes

```
  0: 0x01E8 [0x5B] LOAD_EXT_SCHEDULER: Load scheduler "thk1" with entities [EventEntity, EventEntity], work=425*
  1: 0x01F7 [0x53] WAIT_SCHEDULER_TASK: Wait for scheduler "thk1" with entities [EventEntity, EventEntity]
  2: 0x0204 [0x00] END_REQSTACK()
```

### Event 65535.20

#### Metadata

| Field        | Value    |
|--------------|----------|
| Entrypoint   | 0x0205   |
| Data Size    | 29 bytes |
| Instructions | 3        |

```
      00 01 02 03 04 05 06 07  08 09 0A 0B 0C 0D 0E 0F
      -- -- -- -- -- -- -- --  -- -- -- -- -- -- -- --
0200:                5B 25 80  F8 FF FF 7F F8 FF FF 7F       [%.........
0210: 73 72 61 30 53 F8 FF FF  7F F8 FF FF 7F 73 72 61  sra0S........sra
0220: 30 00                                             0.              
```

#### Opcodes

```
  0: 0x0205 [0x5B] LOAD_EXT_SCHEDULER: Load scheduler "sra0" with entities [EventEntity, EventEntity], work=426*
  1: 0x0214 [0x53] WAIT_SCHEDULER_TASK: Wait for scheduler "sra0" with entities [EventEntity, EventEntity]
  2: 0x0221 [0x00] END_REQSTACK()
```

### Event 65535.21

#### Metadata

| Field        | Value    |
|--------------|----------|
| Entrypoint   | 0x0222   |
| Data Size    | 29 bytes |
| Instructions | 3        |

```
      00 01 02 03 04 05 06 07  08 09 0A 0B 0C 0D 0E 0F
      -- -- -- -- -- -- -- --  -- -- -- -- -- -- -- --
0220:       5B 25 80 F8 FF FF  7F F8 FF FF 7F 73 72 61    [%.........sra
0230: 31 53 F8 FF FF 7F F8 FF  FF 7F 73 72 61 31 00     1S........sra1. 
```

#### Opcodes

```
  0: 0x0222 [0x5B] LOAD_EXT_SCHEDULER: Load scheduler "sra1" with entities [EventEntity, EventEntity], work=426*
  1: 0x0231 [0x53] WAIT_SCHEDULER_TASK: Wait for scheduler "sra1" with entities [EventEntity, EventEntity]
  2: 0x023E [0x00] END_REQSTACK()
```

### Event 65535.22

#### Metadata

| Field        | Value    |
|--------------|----------|
| Entrypoint   | 0x023F   |
| Data Size    | 22 bytes |
| Instructions | 6        |

```
      00 01 02 03 04 05 06 07  08 09 0A 0B 0C 0D 0E 0F
      -- -- -- -- -- -- -- --  -- -- -- -- -- -- -- --
0230:                                               03                 .
0240: 00 00 26 80 1A 6F 02 32  04 80 1F 00 01 00 02 00  ..&..o.2........
0250: 03 00 1F 01 00                                    .....           
```

#### Opcodes

```
  0: 0x023F [0x03] ExtData[1]->WorkLocal[0] = 750*
  1: 0x0244 [0x1A] CALL_SUBROUTINE(address=0x026F)
  2: 0x0247 [0x32] ExtData[1]->MainSpeed = 13* * 0.1
  3: 0x024A [0x1F] MOVE_ENTITY: EventEntity moves to X=ExtData[1]->WorkLocal[1], Z=ExtData[1]->WorkLocal[2], Y=ExtData[1]->WorkLocal[3]
  4: 0x0252 [0x1F] MOVE_ENTITY: Update entity position (mode=1)
  5: 0x0254 [0x00] END_REQSTACK()
```

### Event 65535.23

#### Metadata

| Field        | Value    |
|--------------|----------|
| Entrypoint   | 0x0255   |
| Data Size    | 69 bytes |
| Instructions | 7        |

```
      00 01 02 03 04 05 06 07  08 09 0A 0B 0C 0D 0E 0F
      -- -- -- -- -- -- -- --  -- -- -- -- -- -- -- --
0250:                32 04 80  1F 00 27 80 28 80 0D 80       2....'.(...
0260: 1F 01 1F 00 29 80 2A 80  0D 80 1F 01 22 01 00 3B  ....).*....."..;
0270: F8 FF FF 7F 01 00 02 00  03 00 3A F8 FF FF 7F 04  ..........:.....
0280: 00 17 05 00 04 00 00 00  16 06 00 04 00 00 00 07  ................
0290: 01 00 05 00 07 02 00 06  00 1B                    ..........      
```

#### Opcodes

```
  0: 0x0255 [0x32] ExtData[1]->MainSpeed = 13* * 0.1
  1: 0x0258 [0x1F] MOVE_ENTITY: EventEntity moves to X=-58.689*, Z=-2.540*, Y=-0.500*
  2: 0x0260 [0x1F] MOVE_ENTITY: Update entity position (mode=1)
  3: 0x0262 [0x1F] MOVE_ENTITY: EventEntity moves to X=-56.790*, Z=0.369*, Y=-0.500*
  4: 0x026A [0x1F] MOVE_ENTITY: Update entity position (mode=1)
  5: 0x026C [0x22] ENTITY_HIDE_FLAG(enabled=0x01)
  6: 0x026E [0x00] END_REQSTACK()
```

#### Data or dead code:

```
# Dead code (unreachable instructions):
     0x026F [0x3B] GET_ENTITY_POSITION(entity=EventEntity, x_destination=ExtData[1]->WorkLocal[1], y_destination=ExtData[1]->WorkLocal[2], z_destination=ExtData[1]->WorkLocal[3])
     0x027A [0x3A] CONVERT_YAW_TO_BYTE(entity=EventEntity, result_destination=ExtData[1]->WorkLocal[4])
     0x0281 [0x17] ExtData[1]->WorkLocal[5] = cos(ExtData[1]->WorkLocal[4]) * ExtData[1]->WorkLocal[0]
     0x0288 [0x16] ExtData[1]->WorkLocal[6] = sin(ExtData[1]->WorkLocal[4]) * ExtData[1]->WorkLocal[0]
     0x028F [0x07] ExtData[1]->WorkLocal[1] += ExtData[1]->WorkLocal[5]
     0x0294 [0x07] ExtData[1]->WorkLocal[2] += ExtData[1]->WorkLocal[6]
     0x0299 [0x1B] RETURN
```

### Event 10221

#### Metadata

| Field        | Value   |
|--------------|---------|
| Entrypoint   | 0x029A  |
| Data Size    | 1 bytes |
| Instructions | 1       |

```
      00 01 02 03 04 05 06 07  08 09 0A 0B 0C 0D 0E 0F
      -- -- -- -- -- -- -- --  -- -- -- -- -- -- -- --
0290:                                00                           .     
```

#### Opcodes

```
  0: 0x029A [0x00] END_REQSTACK()
```

### Event 65535.24

#### Metadata

| Field        | Value    |
|--------------|----------|
| Entrypoint   | 0x029B   |
| Data Size    | 17 bytes |
| Instructions | 5        |

```
      00 01 02 03 04 05 06 07  08 09 0A 0B 0C 0D 0E 0F
      -- -- -- -- -- -- -- --  -- -- -- -- -- -- -- --
0290:                                   32 04 80 1F 00             2....
02A0: 2B 80 2C 80 23 80 1F 01  1C 17 80 00              +.,.#.......    
```

#### Opcodes

```
  0: 0x029B [0x32] ExtData[1]->MainSpeed = 13* * 0.1
  1: 0x029E [0x1F] MOVE_ENTITY: EventEntity moves to X=-81.650*, Z=96.180*, Y=0.000*
  2: 0x02A6 [0x1F] MOVE_ENTITY: Update entity position (mode=1)
  3: 0x02A8 [0x1C] WAIT(30* ticks)
  4: 0x02AB [0x00] END_REQSTACK()
```

### Event 65535.25

#### Metadata

| Field        | Value    |
|--------------|----------|
| Entrypoint   | 0x02AC   |
| Data Size    | 14 bytes |
| Instructions | 4        |

```
      00 01 02 03 04 05 06 07  08 09 0A 0B 0C 0D 0E 0F
      -- -- -- -- -- -- -- --  -- -- -- -- -- -- -- --
02A0:                                      32 0A 80 1F              2...
02B0: 00 2D 80 2E 80 23 80 1F  01 00                    .-...#....      
```

#### Opcodes

```
  0: 0x02AC [0x32] ExtData[1]->MainSpeed = 40* * 0.1
  1: 0x02AF [0x1F] MOVE_ENTITY: EventEntity moves to X=-73.302*, Z=91.562*, Y=0.000*
  2: 0x02B7 [0x1F] MOVE_ENTITY: Update entity position (mode=1)
  3: 0x02B9 [0x00] END_REQSTACK()
```

### Event 65535.26

#### Metadata

| Field        | Value    |
|--------------|----------|
| Entrypoint   | 0x02BA   |
| Data Size    | 14 bytes |
| Instructions | 4        |

```
      00 01 02 03 04 05 06 07  08 09 0A 0B 0C 0D 0E 0F
      -- -- -- -- -- -- -- --  -- -- -- -- -- -- -- --
02B0:                                32 0A 80 1F 00 2F            2..../
02C0: 80 30 80 23 80 1F 01 00                           .0.#....        
```

#### Opcodes

```
  0: 0x02BA [0x32] ExtData[1]->MainSpeed = 40* * 0.1
  1: 0x02BD [0x1F] MOVE_ENTITY: EventEntity moves to X=-67.227*, Z=80.928*, Y=0.000*
  2: 0x02C5 [0x1F] MOVE_ENTITY: Update entity position (mode=1)
  3: 0x02C7 [0x00] END_REQSTACK()
```

### Event 65535.27

#### Metadata

| Field        | Value    |
|--------------|----------|
| Entrypoint   | 0x02C8   |
| Data Size    | 14 bytes |
| Instructions | 4        |

```
      00 01 02 03 04 05 06 07  08 09 0A 0B 0C 0D 0E 0F
      -- -- -- -- -- -- -- --  -- -- -- -- -- -- -- --
02C0:                          32 0A 80 1F 00 31 80 32          2....1.2
02D0: 80 23 80 1F 01 00                                 .#....          
```

#### Opcodes

```
  0: 0x02C8 [0x32] ExtData[1]->MainSpeed = 40* * 0.1
  1: 0x02CB [0x1F] MOVE_ENTITY: EventEntity moves to X=-76.042*, Z=91.401*, Y=0.000*
  2: 0x02D3 [0x1F] MOVE_ENTITY: Update entity position (mode=1)
  3: 0x02D5 [0x00] END_REQSTACK()
```

### Event 65535.28

#### Metadata

| Field        | Value    |
|--------------|----------|
| Entrypoint   | 0x02D6   |
| Data Size    | 14 bytes |
| Instructions | 4        |

```
      00 01 02 03 04 05 06 07  08 09 0A 0B 0C 0D 0E 0F
      -- -- -- -- -- -- -- --  -- -- -- -- -- -- -- --
02D0:                   32 0A  80 1F 00 33 80 34 80 23        2....3.4.#
02E0: 80 1F 01 00                                       ....            
```

#### Opcodes

```
  0: 0x02D6 [0x32] ExtData[1]->MainSpeed = 40* * 0.1
  1: 0x02D9 [0x1F] MOVE_ENTITY: EventEntity moves to X=-61.974*, Z=83.513*, Y=0.000*
  2: 0x02E1 [0x1F] MOVE_ENTITY: Update entity position (mode=1)
  3: 0x02E3 [0x00] END_REQSTACK()
```

### Event 65535.29

#### Metadata

| Field        | Value    |
|--------------|----------|
| Entrypoint   | 0x02E4   |
| Data Size    | 22 bytes |
| Instructions | 6        |

```
      00 01 02 03 04 05 06 07  08 09 0A 0B 0C 0D 0E 0F
      -- -- -- -- -- -- -- --  -- -- -- -- -- -- -- --
02E0:             32 0A 80 1F  00 35 80 36 80 37 80 1F      2....5.6.7..
02F0: 01 1E FF 40 0F 01 1C 17  80 00                    ...@......      
```

#### Opcodes

```
  0: 0x02E4 [0x32] ExtData[1]->MainSpeed = 40* * 0.1
  1: 0x02E7 [0x1F] MOVE_ENTITY: EventEntity moves to X=-45.154*, Z=96.495*, Y=7.999*
  2: 0x02EF [0x1F] MOVE_ENTITY: Update entity position (mode=1)
  3: 0x02F1 [0x1E] EventEntity looks at Iroha (ID: 17776895/0x010F40FF) and starts talking
  4: 0x02F6 [0x1C] WAIT(30* ticks)
  5: 0x02F9 [0x00] END_REQSTACK()
```

### Event 65535.30

#### Metadata

| Field        | Value    |
|--------------|----------|
| Entrypoint   | 0x02FA   |
| Data Size    | 34 bytes |
| Instructions | 8        |

```
      00 01 02 03 04 05 06 07  08 09 0A 0B 0C 0D 0E 0F
      -- -- -- -- -- -- -- --  -- -- -- -- -- -- -- --
02F0:                                32 0A 80 1F 00 38            2....8
0300: 80 39 80 37 80 1F 01 1F  00 3A 80 3B 80 37 80 1F  .9.7.....:.;.7..
0310: 01 1F 00 3C 80 3D 80 23  80 1F 01 00              ...<.=.#....    
```

#### Opcodes

```
  0: 0x02FA [0x32] ExtData[1]->MainSpeed = 40* * 0.1
  1: 0x02FD [0x1F] MOVE_ENTITY: EventEntity moves to X=-40.747*, Z=93.424*, Y=7.999*
  2: 0x0305 [0x1F] MOVE_ENTITY: Update entity position (mode=1)
  3: 0x0307 [0x1F] MOVE_ENTITY: EventEntity moves to X=-41.342*, Z=87.408*, Y=7.999*
  4: 0x030F [0x1F] MOVE_ENTITY: Update entity position (mode=1)
  5: 0x0311 [0x1F] MOVE_ENTITY: EventEntity moves to X=-57.603*, Z=77.708*, Y=0.000*
  6: 0x0319 [0x1F] MOVE_ENTITY: Update entity position (mode=1)
  7: 0x031B [0x00] END_REQSTACK()
```
