# 17776861

## Common Data

| Field            | Value                 |
|------------------|-----------------------|
| Zone             | Upper Jeuno (ID: 244) |
| Block Size       | 26244 bytes           |
| Total Events     | 9                     |
| References Count | 445                   |

## List of Events

| Event ID              | Entrypoint   |   Size |   Instructions |
|-----------------------|--------------|--------|----------------|
| [65535](#event-65535) | 0x0000       |      1 |              1 |
| [10178](#event-10178) | 0x0001       |   1672 |            262 |
| [10179](#event-10179) | 0x0689       |    626 |            104 |
| [10180](#event-10180) | 0x08FB       |   2161 |            327 |
| [10181](#event-10181) | 0x116C       |   4396 |            645 |
| [10182](#event-10182) | 0x2298       |   8326 |           1252 |
| [10183](#event-10183) | 0x431E       |   1946 |            295 |
| [10184](#event-10184) | 0x4AB8       |   3779 |            570 |
| [10185](#event-10185) | 0x597B       |   1504 |            228 |

## DAT References (imed_data)

|   Index | Hex Value   |   Dec Value |
|---------|-------------|-------------|
|       0 | 0x0013      |          19 |
|       1 | 0x01C3      |         451 |
|       2 | 0xFFFFCC69  |  4294954089 |
|       3 | 0xFE7D      |       65149 |
|       4 | 0x07CF      |        1999 |
|       5 | 0x0000      |           0 |
|       6 | 0xFFFFC8AA  |  4294953130 |
|       7 | 0x104BF     |       66751 |
|       8 | 0x0660      |        1632 |
|       9 | 0x000F      |          15 |
|      10 | 0x001E      |          30 |
|      11 | 0x0001      |           1 |
|      12 | 0x000A      |          10 |
|      13 | 0x0002      |           2 |
|      14 | 0x0003      |           3 |
|      15 | 0x0004      |           4 |
|      16 | 0xFFFECDCB  |  4294888907 |
|      17 | 0x12FBF     |       77759 |
|      18 | 0xFFFFFB47  |  4294966087 |
|      19 | 0xFFFECE38  |  4294889016 |
|      20 | 0x12955     |       76117 |
|      21 | 0xFFFEC239  |  4294885945 |
|      22 | 0x11CF9     |       72953 |
|      23 | 0xFFFFF75F  |  4294965087 |
|      24 | 0x0AAA      |        2730 |
|      25 | 0x0005      |           5 |
|      26 | 0xFFFEC790  |  4294887312 |
|      27 | 0x1202E     |       73774 |
|      28 | 0xFFFECE42  |  4294889026 |
|      29 | 0x12434     |       74804 |
|      30 | 0x0006      |           6 |
|      31 | 0x0008      |           8 |
|      32 | 0x0009      |           9 |
|      33 | 0x00C8      |         200 |
|      34 | 0x3043      |       12355 |
|      35 | 0x01CF      |         463 |
|      36 | 0x0032      |          50 |
|      37 | 0x3044      |       12356 |
|      38 | 0x3045      |       12357 |
|      39 | 0x003C      |          60 |
|      40 | 0x3089      |       12425 |
|      41 | 0x3046      |       12358 |
|      42 | 0x00B4      |         180 |
|      43 | 0x3047      |       12359 |
|      44 | 0x3048      |       12360 |
|      45 | 0x3049      |       12361 |
|      46 | 0x304A      |       12362 |
|      47 | 0x304B      |       12363 |
|      48 | 0x0007      |           7 |
|      49 | 0x304C      |       12364 |
|      50 | 0x304D      |       12365 |
|      51 | 0x0082      |         130 |
|      52 | 0x304E      |       12366 |
|      53 | 0x304F      |       12367 |
|      54 | 0x0470      |        1136 |
|      55 | 0x3050      |       12368 |
|      56 | 0x3051      |       12369 |
|      57 | 0x3052      |       12370 |
|      58 | 0xFFFEB1DD  |  4294881757 |
|      59 | 0x1344B     |       78923 |
|      60 | 0xFFFFFB50  |  4294966096 |
|      61 | 0xFFFEB8CA  |  4294883530 |
|      62 | 0x13913     |       80147 |
|      63 | 0x3059      |       12377 |
|      64 | 0x3058      |       12376 |
|      65 | 0x00AF      |         175 |
|      66 | 0x0140      |         320 |
|      67 | 0x0471      |        1137 |
|      68 | 0x305A      |       12378 |
|      69 | 0xFFFEB94E  |  4294883662 |
|      70 | 0x13687     |       79495 |
|      71 | 0xFFFEC9FA  |  4294887930 |
|      72 | 0x11B74     |       72564 |
|      73 | 0xFFFEC851  |  4294887505 |
|      74 | 0x11A75     |       72309 |
|      75 | 0xFFFEB220  |  4294881824 |
|      76 | 0x12054     |       73812 |
|      77 | 0xFFFFEBB0  |  4294962096 |
|      78 | 0xFFFEB126  |  4294881574 |
|      79 | 0x12202     |       74242 |
|      80 | 0x0012      |          18 |
|      81 | 0x000B      |          11 |
|      82 | 0x000C      |          12 |
|      83 | 0x000D      |          13 |
|      84 | 0x000E      |          14 |
|      85 | 0x0010      |          16 |
|      86 | 0x0011      |          17 |
|      87 | 0x005A      |          90 |
|      88 | 0x00A0      |         160 |
|      89 | 0x012C      |         300 |
|      90 | 0x305B      |       12379 |
|      91 | 0x305C      |       12380 |
|      92 | 0x305D      |       12381 |
|      93 | 0x0039      |          57 |
|      94 | 0x305F      |       12383 |
|      95 | 0x3060      |       12384 |
|      96 | 0x0472      |        1138 |
|      97 | 0x3061      |       12385 |
|      98 | 0x3062      |       12386 |
|      99 | 0x3063      |       12387 |
|     100 | 0x3064      |       12388 |
|     101 | 0xFFFEB218  |  4294881816 |
|     102 | 0x1350D     |       79117 |
|     103 | 0xFFFFEE6C  |  4294962796 |
|     104 | 0xFFFEBD3B  |  4294884667 |
|     105 | 0x13B96     |       80790 |
|     106 | 0x0023      |          35 |
|     107 | 0x001D      |          29 |
|     108 | 0x0014      |          20 |
|     109 | 0x0015      |          21 |
|     110 | 0x0016      |          22 |
|     111 | 0x0017      |          23 |
|     112 | 0x0018      |          24 |
|     113 | 0x0019      |          25 |
|     114 | 0x001A      |          26 |
|     115 | 0x001B      |          27 |
|     116 | 0xFFFEAC89  |  4294880393 |
|     117 | 0x124C2     |       74946 |
|     118 | 0x001C      |          28 |
|     119 | 0x001F      |          31 |
|     120 | 0x0020      |          32 |
|     121 | 0x0021      |          33 |
|     122 | 0x0022      |          34 |
|     123 | 0x0024      |          36 |
|     124 | 0x006E      |         110 |
|     125 | 0x308A      |       12426 |
|     126 | 0x0064      |         100 |
|     127 | 0x3065      |       12389 |
|     128 | 0x3066      |       12390 |
|     129 | 0x3067      |       12391 |
|     130 | 0x01F4      |         500 |
|     131 | 0x3068      |       12392 |
|     132 | 0x3069      |       12393 |
|     133 | 0x306A      |       12394 |
|     134 | 0x306B      |       12395 |
|     135 | 0x306C      |       12396 |
|     136 | 0x007B      |         123 |
|     137 | 0x306D      |       12397 |
|     138 | 0x306E      |       12398 |
|     139 | 0x306F      |       12399 |
|     140 | 0x3070      |       12400 |
|     141 | 0x3071      |       12401 |
|     142 | 0x3072      |       12402 |
|     143 | 0x3073      |       12403 |
|     144 | 0x0028      |          40 |
|     145 | 0x0078      |         120 |
|     146 | 0x00A4      |         164 |
|     147 | 0x3074      |       12404 |
|     148 | 0x3075      |       12405 |
|     149 | 0x3076      |       12406 |
|     150 | 0x3077      |       12407 |
|     151 | 0x015E      |         350 |
|     152 | 0x3078      |       12408 |
|     153 | 0x3079      |       12409 |
|     154 | 0x307A      |       12410 |
|     155 | 0x307B      |       12411 |
|     156 | 0x307C      |       12412 |
|     157 | 0x307D      |       12413 |
|     158 | 0x307E      |       12414 |
|     159 | 0x307F      |       12415 |
|     160 | 0x3080      |       12416 |
|     161 | 0x3081      |       12417 |
|     162 | 0x3082      |       12418 |
|     163 | 0x3083      |       12419 |
|     164 | 0x3084      |       12420 |
|     165 | 0x3085      |       12421 |
|     166 | 0x3086      |       12422 |
|     167 | 0x3087      |       12423 |
|     168 | 0x3088      |       12424 |
|     169 | 0xFFFED0E4  |  4294889700 |
|     170 | 0x130E2     |       78050 |
|     171 | 0xFFFFFB51  |  4294966097 |
|     172 | 0xFFFEBCBF  |  4294884543 |
|     173 | 0x13E8B     |       81547 |
|     174 | 0x0C80      |        3200 |
|     175 | 0x16041     |       90177 |
|     176 | 0x13A09     |       80393 |
|     177 | 0x06AA      |        1706 |
|     178 | 0xFFFEB9AC  |  4294883756 |
|     179 | 0x14226     |       82470 |
|     180 | 0xFFFFF6F5  |  4294964981 |
|     181 | 0x0400      |        1024 |
|     182 | 0xFFFEB46A  |  4294882410 |
|     183 | 0x11BC1     |       72641 |
|     184 | 0xFFFEBD8C  |  4294884748 |
|     185 | 0x140B0     |       82096 |
|     186 | 0xFFFFFE0C  |  4294966796 |
|     187 | 0x0E26      |        3622 |
|     188 | 0xFFFFFC18  |  4294966296 |
|     189 | 0xFFFEB0A3  |  4294881443 |
|     190 | 0x12057     |       73815 |
|     191 | 0xFFFEA000  |  4294877184 |
|     192 | 0x139B6     |       80310 |
|     193 | 0x0038      |          56 |
|     194 | 0xFFFEC262  |  4294885986 |
|     195 | 0x13E87     |       81543 |
|     196 | 0x0EAA      |        3754 |
|     197 | 0x0E77      |        3703 |
|     198 | 0xFFFEC1B3  |  4294885811 |
|     199 | 0x13E26     |       81446 |
|     200 | 0xFFFEC74B  |  4294887243 |
|     201 | 0x111D6     |       70102 |
|     202 | 0xFFFEC099  |  4294885529 |
|     203 | 0x10DD0     |       69072 |
|     204 | 0xFFFEB448  |  4294882376 |
|     205 | 0x11DEF     |       73199 |
|     206 | 0xFFFEB297  |  4294881943 |
|     207 | 0x11CF5     |       72949 |
|     208 | 0xFFFEB254  |  4294881876 |
|     209 | 0x12151     |       74065 |
|     210 | 0xFFFEA0BE  |  4294877374 |
|     211 | 0x13860     |       79968 |
|     212 | 0xFFFE9FC4  |  4294877124 |
|     213 | 0x13A0E     |       80398 |
|     214 | 0xFFFEA7CB  |  4294879179 |
|     215 | 0x133BF     |       78783 |
|     216 | 0x02AA      |         682 |
|     217 | 0x0025      |          37 |
|     218 | 0x0026      |          38 |
|     219 | 0x0027      |          39 |
|     220 | 0x0029      |          41 |
|     221 | 0x002A      |          42 |
|     222 | 0x002B      |          43 |
|     223 | 0x002C      |          44 |
|     224 | 0x002D      |          45 |
|     225 | 0x002E      |          46 |
|     226 | 0x002F      |          47 |
|     227 | 0x0030      |          48 |
|     228 | 0x0031      |          49 |
|     229 | 0xFFFEAFB9  |  4294881209 |
|     230 | 0x126E3     |       75491 |
|     231 | 0x0335      |         821 |
|     232 | 0xFFFEB3BF  |  4294882239 |
|     233 | 0x12031     |       73777 |
|     234 | 0x0033      |          51 |
|     235 | 0x0034      |          52 |
|     236 | 0x0035      |          53 |
|     237 | 0x0036      |          54 |
|     238 | 0x0037      |          55 |
|     239 | 0x308E      |       12430 |
|     240 | 0x30CE      |       12494 |
|     241 | 0x01D4      |         468 |
|     242 | 0x02F8      |         760 |
|     243 | 0x01AE      |         430 |
|     244 | 0x0096      |         150 |
|     245 | 0x308B      |       12427 |
|     246 | 0x308C      |       12428 |
|     247 | 0x308D      |       12429 |
|     248 | 0x0384      |         900 |
|     249 | 0x308F      |       12431 |
|     250 | 0x3090      |       12432 |
|     251 | 0x3091      |       12433 |
|     252 | 0x0104      |         260 |
|     253 | 0x3092      |       12434 |
|     254 | 0x0050      |          80 |
|     255 | 0x3093      |       12435 |
|     256 | 0x3094      |       12436 |
|     257 | 0x3095      |       12437 |
|     258 | 0x3096      |       12438 |
|     259 | 0x3097      |       12439 |
|     260 | 0x0168      |         360 |
|     261 | 0x3098      |       12440 |
|     262 | 0x3099      |       12441 |
|     263 | 0x309A      |       12442 |
|     264 | 0x309B      |       12443 |
|     265 | 0x309C      |       12444 |
|     266 | 0x309D      |       12445 |
|     267 | 0x01C2      |         450 |
|     268 | 0x019A      |         410 |
|     269 | 0x309E      |       12446 |
|     270 | 0xFFFEAF88  |  4294881160 |
|     271 | 0x12436     |       74806 |
|     272 | 0xFFFFD828  |  4294957096 |
|     273 | 0xFFFEAE8E  |  4294880910 |
|     274 | 0x125E7     |       75239 |
|     275 | 0xFFFEB370  |  4294882160 |
|     276 | 0x11D72     |       73074 |
|     277 | 0xFFFEB276  |  4294881910 |
|     278 | 0x11F23     |       73507 |
|     279 | 0xFFFEB17C  |  4294881660 |
|     280 | 0x120D4     |       73940 |
|     281 | 0xFFFEB082  |  4294881410 |
|     282 | 0x12285     |       74373 |
|     283 | 0x309F      |       12447 |
|     284 | 0x01D6      |         470 |
|     285 | 0x30A0      |       12448 |
|     286 | 0x30A1      |       12449 |
|     287 | 0x30A2      |       12450 |
|     288 | 0x30A3      |       12451 |
|     289 | 0x30A4      |       12452 |
|     290 | 0x30A5      |       12453 |
|     291 | 0x30A6      |       12454 |
|     292 | 0x30A7      |       12455 |
|     293 | 0x30A8      |       12456 |
|     294 | 0x30A9      |       12457 |
|     295 | 0x30AA      |       12458 |
|     296 | 0x30AB      |       12459 |
|     297 | 0x30AC      |       12460 |
|     298 | 0x30AD      |       12461 |
|     299 | 0x30AE      |       12462 |
|     300 | 0x30AF      |       12463 |
|     301 | 0x30B0      |       12464 |
|     302 | 0x30B1      |       12465 |
|     303 | 0x30B2      |       12466 |
|     304 | 0x30B3      |       12467 |
|     305 | 0x30B4      |       12468 |
|     306 | 0x30B5      |       12469 |
|     307 | 0x30B6      |       12470 |
|     308 | 0x30B7      |       12471 |
|     309 | 0x30B8      |       12472 |
|     310 | 0x30B9      |       12473 |
|     311 | 0x30BA      |       12474 |
|     312 | 0x30BB      |       12475 |
|     313 | 0x30BC      |       12476 |
|     314 | 0x30BD      |       12477 |
|     315 | 0x30BE      |       12478 |
|     316 | 0x30BF      |       12479 |
|     317 | 0x30C0      |       12480 |
|     318 | 0x30C1      |       12481 |
|     319 | 0x007F      |         127 |
|     320 | 0x30C2      |       12482 |
|     321 | 0x30C3      |       12483 |
|     322 | 0x30C4      |       12484 |
|     323 | 0x30C5      |       12485 |
|     324 | 0x006C      |         108 |
|     325 | 0x30C6      |       12486 |
|     326 | 0x30C7      |       12487 |
|     327 | 0x30C8      |       12488 |
|     328 | 0x30C9      |       12489 |
|     329 | 0x30CA      |       12490 |
|     330 | 0x30CB      |       12491 |
|     331 | 0x30CC      |       12492 |
|     332 | 0x30CD      |       12493 |
|     333 | 0xFFFEB8D3  |  4294883539 |
|     334 | 0x13904     |       80132 |
|     335 | 0xFFFEBC2C  |  4294884396 |
|     336 | 0x13B07     |       80647 |
|     337 | 0x0AC0      |        2752 |
|     338 | 0x30CF      |       12495 |
|     339 | 0x01D2      |         466 |
|     340 | 0x0081      |         129 |
|     341 | 0x30D0      |       12496 |
|     342 | 0x30D1      |       12497 |
|     343 | 0x00D2      |         210 |
|     344 | 0x30D2      |       12498 |
|     345 | 0x30D3      |       12499 |
|     346 | 0x30D4      |       12500 |
|     347 | 0x30D5      |       12501 |
|     348 | 0x30D6      |       12502 |
|     349 | 0x30D7      |       12503 |
|     350 | 0x30D8      |       12504 |
|     351 | 0x0079      |         121 |
|     352 | 0x30D9      |       12505 |
|     353 | 0x30DA      |       12506 |
|     354 | 0x30DB      |       12507 |
|     355 | 0x30DC      |       12508 |
|     356 | 0x30DD      |       12509 |
|     357 | 0x30DE      |       12510 |
|     358 | 0x30DF      |       12511 |
|     359 | 0x30E0      |       12512 |
|     360 | 0x30E1      |       12513 |
|     361 | 0xFFFEB511  |  4294882577 |
|     362 | 0x13A4F     |       80463 |
|     363 | 0xFFFEBAC4  |  4294884036 |
|     364 | 0x13DBC     |       81340 |
|     365 | 0xFFFEB035  |  4294881333 |
|     366 | 0x12F92     |       77714 |
|     367 | 0xFFFEA967  |  4294879591 |
|     368 | 0x12F63     |       77667 |
|     369 | 0xFFFEB127  |  4294881575 |
|     370 | 0x1294F     |       76111 |
|     371 | 0xFFFEB5E2  |  4294882786 |
|     372 | 0x13698     |       79512 |
|     373 | 0xFFFEB48F  |  4294882447 |
|     374 | 0x13CB9     |       81081 |
|     375 | 0x30E2      |       12514 |
|     376 | 0x01D5      |         469 |
|     377 | 0x30E3      |       12515 |
|     378 | 0x30E4      |       12516 |
|     379 | 0xFFFEB390  |  4294882192 |
|     380 | 0x13C20     |       80928 |
|     381 | 0x30E5      |       12517 |
|     382 | 0x30E6      |       12518 |
|     383 | 0x0088      |         136 |
|     384 | 0x30E7      |       12519 |
|     385 | 0x30E8      |       12520 |
|     386 | 0x30E9      |       12521 |
|     387 | 0x30EA      |       12522 |
|     388 | 0x30EB      |       12523 |
|     389 | 0x30EC      |       12524 |
|     390 | 0x30ED      |       12525 |
|     391 | 0x30EE      |       12526 |
|     392 | 0x30EF      |       12527 |
|     393 | 0x30F0      |       12528 |
|     394 | 0x30F1      |       12529 |
|     395 | 0x30F2      |       12530 |
|     396 | 0x30F3      |       12531 |
|     397 | 0x30F4      |       12532 |
|     398 | 0x30F5      |       12533 |
|     399 | 0x30F6      |       12534 |
|     400 | 0x30F7      |       12535 |
|     401 | 0x30F8      |       12536 |
|     402 | 0x30F9      |       12537 |
|     403 | 0x30FA      |       12538 |
|     404 | 0x30FB      |       12539 |
|     405 | 0x30FC      |       12540 |
|     406 | 0x30FD      |       12541 |
|     407 | 0x30FE      |       12542 |
|     408 | 0x30FF      |       12543 |
|     409 | 0x3100      |       12544 |
|     410 | 0x3101      |       12545 |
|     411 | 0x3102      |       12546 |
|     412 | 0x3103      |       12547 |
|     413 | 0x3104      |       12548 |
|     414 | 0x3105      |       12549 |
|     415 | 0x3106      |       12550 |
|     416 | 0x3107      |       12551 |
|     417 | 0x3108      |       12552 |
|     418 | 0x3109      |       12553 |
|     419 | 0x310A      |       12554 |
|     420 | 0xFFFF82CA  |  4294935242 |
|     421 | 0xFFFE7494  |  4294866068 |
|     422 | 0x2328      |        9000 |
|     423 | 0x310B      |       12555 |
|     424 | 0x01D3      |         467 |
|     425 | 0x310C      |       12556 |
|     426 | 0x310D      |       12557 |
|     427 | 0x310E      |       12558 |
|     428 | 0x310F      |       12559 |
|     429 | 0x0226      |         550 |
|     430 | 0x3110      |       12560 |
|     431 | 0x3111      |       12561 |
|     432 | 0x3112      |       12562 |
|     433 | 0x3113      |       12563 |
|     434 | 0x3114      |       12564 |
|     435 | 0x3115      |       12565 |
|     436 | 0x3116      |       12566 |
|     437 | 0x00F0      |         240 |
|     438 | 0x006A      |         106 |
|     439 | 0x3117      |       12567 |
|     440 | 0x3118      |       12568 |
|     441 | 0x3119      |       12569 |
|     442 | 0x311A      |       12570 |
|     443 | 0x00C9      |         201 |
|     444 | 0x00D7      |         215 |

## String References

- **12355**: Oh, Master, there you are!
- **12376**: Incredible! What speed! What alacrity! I knew I could count on you, kupo! Now all it'll take is a tippity-tap here, a nudgety-nudge there, and...
- **12377**: There! And sublimely done, if I do say so myself. But no rest for the weary moogle, kupo! To replace these rotting roofboards, we're going to need... Yes, $6 should do the trick.
- **12425**: 
- **12426**: What will you do? [<Sigh>./Fine, kupo.]
- **12430**: Oh yes, there can be no doubt. This hex packs some serious clout.
- **12494**: $P11\`%q$P11I$P11p [<Player>j%q/$P13q%q]
- **12495**: Well, Master? Did you find my secret moggy bank?
- **12514**: Oh, Master, there you are! Did Riko approve our loan?
- **12555**: Welcome home, Master!
- **12563**: "But let's let bygones be things that have gone by. A bridge under water, as they say.
- **12564**: "As a token of my benevol-osity, I'd like to invite you to be the guests of honor at a spectacularrific Mog Festival!
- **12565**: "To be held at scenic Castle Zvahl, we'll be holding a Mega Mog Bonanza-Rama-Palooza featuring extortionate prizes, plus a virtual copa-cornia of exciting events!
- **12566**: "It just wouldn't be the same without your attend-ification, so do stop by! Your bestest pal, Toto Kupeliaure"

## Events

### Event 65535

#### Metadata

| Field        | Value   |
|--------------|---------|
| Entrypoint   | 0x0000  |
| Data Size    | 1 bytes |
| Instructions | 1       |

```
      00 01 02 03 04 05 06 07  08 09 0A 0B 0C 0D 0E 0F
      -- -- -- -- -- -- -- --  -- -- -- -- -- -- -- --
0000: 00                                                .               
```

#### Opcodes

```
  0: 0x0000 [0x00] END_REQSTACK()
```

### Event 10178

#### Metadata

| Field        | Value      |
|--------------|------------|
| Entrypoint   | 0x0001     |
| Data Size    | 1672 bytes |
| Instructions | 258        |

```
      00 01 02 03 04 05 06 07  08 09 0A 0B 0C 0D 0E 0F
      -- -- -- -- -- -- -- --  -- -- -- -- -- -- -- --
0000:    42 1A 95 5E 46 01 38  00 80 75 00 01 80 75 01   B..^F.8..u...u.
0010: 27 10 F0 FF FF 7F 7D 27  10 E0 40 0F 01 01 27 10  '.....}'..@...'.
0020: DE 40 0F 01 09 27 10 DF  40 0F 01 09 27 10 DE 40  .@...'..@...'..@
0030: 0F 01 0D 27 10 DF 40 0F  01 0A 59 05 DE 40 0F 01  ...'..@...Y..@..
0040: 01 BA F0 FF FF 7F 02 80  03 80 04 80 05 80 BA E0  ................
0050: 40 0F 01 06 80 07 80 08  80 05 80 80 F0 FF FF 7F  @...............
0060: 80 E0 40 0F 01 1C 09 80  4A F0 FF FF 7F E0 40 0F  ..@.....J.....@.
0070: 01 4A E0 40 0F 01 F0 FF  FF 7F 6F 76 F0 FF FF 7F  .J.@......ov....
0080: 6F 76 E0 40 0F 01 1C 09  80 7B E0 40 0F 01 27 10  ov.@.....{.@..'.
0090: E0 40 0F 01 10 1C 0A 80  03 00 00 0B 80 02 00 00  .@..............
00A0: 0C 80 05 27 02 02 05 80  00 00 04 1F 02 02 00 00  ...'............
00B0: 0D 80 80 D3 00 27 10 E0  40 0F 01 11 1A 74 5E 27  .....'..@....t^'
00C0: 10 E0 40 0F 01 1A 27 10  E0 40 0F 01 1D 1A 74 5E  ..@...'..@....t^
00D0: 01 1F 02 02 00 00 0E 80  80 EF 00 27 10 E0 40 0F  ...........'..@.
00E0: 01 1C 27 10 E0 40 0F 01  1D 1A 95 5E 01 1F 02 02  ..'..@.....^....
00F0: 00 00 0F 80 80 5D 01 BA  F0 FF FF 7F 10 80 11 80  .....]..........
0100: 12 80 05 80 BA E0 40 0F  01 13 80 14 80 12 80 05  ......@.........
0110: 80 BA DE 40 0F 01 15 80  16 80 17 80 18 80 80 F0  ...@............
0120: FF FF 7F 80 E0 40 0F 01  80 DF 40 0F 01 27 10 DE  .....@....@..'..
0130: 40 0F 01 0F 4A F0 FF FF  7F E0 40 0F 01 4A E0 40  @...J.....@..J.@
0140: 0F 01 DE 40 0F 01 1A 74  5E 27 10 E0 40 0F 01 0A  ...@...t^'..@...
0150: 27 10 E0 40 0F 01 2E 1A  95 5E 01 1F 02 02 00 00  '..@.....^......
0160: 19 80 80 D0 01 BA DF 40  0F 01 1A 80 1B 80 12 80  .......@........
0170: 05 80 BA E0 40 0F 01 1A  80 1B 80 12 80 05 80 BA  ....@...........
0180: F0 FF FF 7F 1C 80 1D 80  12 80 05 80 80 DF 40 0F  ..............@.
0190: 01 80 E0 40 0F 01 80 F0  FF FF 7F 4A DF 40 0F 01  ...@.......J.@..
01A0: F0 FF FF 7F 4A E0 40 0F  01 F0 FF FF 7F 4A F0 FF  ....J.@......J..
01B0: FF 7F E0 40 0F 01 27 10  DF 40 0F 01 0E 27 10 E0  ...@..'..@...'..
01C0: 40 0F 01 2A 4E 01 DE 40  0F 01 1A 74 5E 01 1F 02  @..*N..@...t^...
01D0: 02 00 00 1E 80 80 E9 01  27 10 DF 40 0F 01 13 27  ........'..@...'
01E0: 10 E0 40 0F 01 35 01 1F  02 02 00 00 1F 80 80 F4  ..@..5..........
01F0: 01 01 1F 02 02 00 00 20  80 80 0D 02 27 10 DF 40  ....... ....'..@
0200: 0F 01 11 27 10 E0 40 0F  01 2C 01 1F 02 02 00 00  ...'..@..,......
0210: 0C 80 80 1F 02 27 10 E0  40 0F 01 0F 01 1F 02 07  .....'..@.......
0220: 00 00 0B 80 01 9D 00 03  00 00 0B 80 02 00 00 0C  ................
0230: 80 05 47 02 02 05 80 00  00 05 3F 02 1A 8A 02 07  ..G.......?.....
0240: 00 00 0B 80 01 2C 02 1A  95 5E 1C 0A 80 29 10 DE  .....,...^...)..
0250: 40 0F 01 0E 29 10 DF 40  0F 01 0D 80 DE 40 0F 01  @...)..@.....@..
0260: 80 DF 40 0F 01 1C 0A 80  46 00 45 21 80 F0 FF FF  ..@.....F.E!....
0270: 7F F0 FF FF 7F 66 64 69  32 05 80 21 00 02 05 80  .....fdi2..!....
0280: 0B 80 00 89 02 48 22 80  23 1B 02 00 00 0B 80 80  .....H".#.......
0290: F5 02 45 23 80 F0 FF FF  7F F0 FF FF 7F 34 30 30  ..E#.........400
02A0: 31 05 80 27 10 E0 40 0F  01 11 1C 0A 80 1A 74 5E  1..'..@.......t^
02B0: 1C 24 80 2B E0 40 0F 01  22 80 2A 10 E0 40 0F 01  .$.+.@..".*..@..
02C0: 79 00 E0 40 0F 01 F0 FF  FF 7F 1C 0A 80 27 10 E0  y..@.........'..
02D0: 40 0F 01 1A 2B E0 40 0F  01 25 80 23 27 10 E0 40  @...+.@..%.#'..@
02E0: 0F 01 1D 52 23 80 F0 FF  FF 7F F0 FF FF 7F 34 30  ...R#.........40
02F0: 30 31 01 88 06 02 00 00  0D 80 80 39 03 45 23 80  01.........9.E#.
0300: F0 FF FF 7F F0 FF FF 7F  34 30 30 32 05 80 27 10  ........4002..'.
0310: E0 40 0F 01 1C 2B E0 40  0F 01 26 80 23 27 10 E0  .@...+.@..&.#'..
0320: 40 0F 01 1D 1A 95 5E 52  23 80 F0 FF FF 7F F0 FF  @.....^R#.......
0330: FF 7F 34 30 30 32 01 88  06 02 00 00 0E 80 80 F2  ..4002..........
0340: 03 BA F0 FF FF 7F 10 80  11 80 12 80 05 80 BA E0  ................
0350: 40 0F 01 13 80 14 80 12  80 05 80 BA DE 40 0F 01  @............@..
0360: 15 80 16 80 17 80 18 80  80 F0 FF FF 7F 80 E0 40  ...............@
0370: 0F 01 80 DF 40 0F 01 1C  09 80 27 10 DE 40 0F 01  ....@.....'..@..
0380: 0F 4A F0 FF FF 7F E0 40  0F 01 4A E0 40 0F 01 DE  .J.....@..J.@...
0390: 40 0F 01 1C 27 80 48 28  80 23 45 23 80 F0 FF FF  @...'.H(.#E#....
03A0: 7F F0 FF FF 7F 34 30 30  33 05 80 1A 74 5E 1C 0A  .....4003...t^..
03B0: 80 27 10 E0 40 0F 01 0A  2B E0 40 0F 01 29 80 23  .'..@...+.@..).#
03C0: 2A 10 E0 40 0F 01 79 00  F0 FF FF 7F DE 40 0F 01  *..@..y......@..
03D0: 1C 09 80 27 10 E0 40 0F  01 2E 1C 2A 80 1A 95 5E  ...'..@....*...^
03E0: 52 23 80 F0 FF FF 7F F0  FF FF 7F 34 30 30 33 01  R#.........4003.
03F0: 88 06 02 00 00 0F 80 80  B2 04 BA DF 40 0F 01 1A  ............@...
0400: 80 1B 80 12 80 05 80 BA  E0 40 0F 01 1A 80 1B 80  .........@......
0410: 12 80 05 80 BA F0 FF FF  7F 1C 80 1D 80 12 80 05  ................
0420: 80 80 DF 40 0F 01 80 E0  40 0F 01 80 F0 FF FF 7F  ...@....@.......
0430: 1C 09 80 4A DF 40 0F 01  F0 FF FF 7F 4A E0 40 0F  ...J.@......J.@.
0440: 01 F0 FF FF 7F 4A F0 FF  FF 7F E0 40 0F 01 6F 76  .....J.....@..ov
0450: DF 40 0F 01 6F 76 E0 40  0F 01 6F 76 F0 FF FF 7F  .@..ov.@..ov....
0460: 27 10 DF 40 0F 01 0E 27  10 E0 40 0F 01 2A 4E 01  '..@...'..@..*N.
0470: DE 40 0F 01 7B E0 40 0F  01 1C 27 80 45 23 80 F0  .@..{.@...'.E#..
0480: FF FF 7F F0 FF FF 7F 34  30 30 34 05 80 1A 74 5E  .......4004...t^
0490: 2B E0 40 0F 01 2B 80 23  2B E0 40 0F 01 2C 80 23  +.@..+.#+.@..,.#
04A0: 52 23 80 F0 FF FF 7F F0  FF FF 7F 34 30 30 34 01  R#.........4004.
04B0: 88 06 02 00 00 19 80 80  04 05 45 23 80 F0 FF FF  ..........E#....
04C0: 7F F0 FF FF 7F 34 30 30  35 05 80 27 10 DF 40 0F  .....4005..'..@.
04D0: 01 11 27 10 E0 40 0F 01  2C 1C 21 80 27 10 E0 40  ..'..@..,.!.'..@
04E0: 0F 01 1C 2B E0 40 0F 01  2D 80 23 27 10 E0 40 0F  ...+.@..-.#'..@.
04F0: 01 1D 52 23 80 F0 FF FF  7F F0 FF FF 7F 34 30 30  ..R#.........400
0500: 35 01 88 06 02 00 00 1E  80 80 57 05 45 23 80 F0  5.........W.E#..
0510: FF FF 7F F0 FF FF 7F 34  30 30 37 05 80 79 00 E0  .......4007..y..
0520: 40 0F 01 F0 FF FF 7F 27  10 E0 40 0F 01 1C 2B E0  @......'..@...+.
0530: 40 0F 01 2E 80 23 2B E0  40 0F 01 2F 80 23 27 10  @....#+.@../.#'.
0540: E0 40 0F 01 1D 52 23 80  F0 FF FF 7F F0 FF FF 7F  .@...R#.........
0550: 34 30 30 37 01 88 06 02  00 00 30 80 80 62 05 01  4007......0..b..
0560: 88 06 02 00 00 1F 80 80  C0 05 45 23 80 F0 FF FF  ..........E#....
0570: 7F F0 FF FF 7F 34 30 30  38 05 80 7B E0 40 0F 01  .....4008..{.@..
0580: 27 10 E0 40 0F 01 27 1C  0A 80 2B E0 40 0F 01 31  '..@..'...+.@..1
0590: 80 23 2A 10 E0 40 0F 01  27 10 E0 40 0F 01 1A 2B  .#*..@..'..@...+
05A0: E0 40 0F 01 32 80 23 27  10 E0 40 0F 01 1C 52 23  .@..2.#'..@...R#
05B0: 80 F0 FF FF 7F F0 FF FF  7F 34 30 30 38 01 88 06  .........4008...
05C0: 02 00 00 20 80 80 F8 05  45 23 80 F0 FF FF 7F F0  ... ....E#......
05D0: FF FF 7F 34 30 30 39 05  80 27 10 E0 40 0F 01 0F  ...4009..'..@...
05E0: 1C 33 80 1A 95 5E 52 23  80 F0 FF FF 7F F0 FF FF  .3...^R#........
05F0: 7F 34 30 30 39 01 88 06  02 00 00 0C 80 80 88 06  .4009...........
0600: 4E 01 E0 40 0F 01 1C 27  80 2B E0 40 0F 01 34 80  N..@...'.+.@..4.
0610: 23 1C 27 80 45 23 80 F0  FF FF 7F F0 FF FF 7F 34  #.'.E#.........4
0620: 30 30 61 05 80 1A 74 5E  1C 27 80 2B E0 40 0F 01  00a...t^.'.+.@..
0630: 35 80 23 03 02 10 36 80  2B E0 40 0F 01 37 80 23  5.#...6.+.@..7.#
0640: 2B E0 40 0F 01 38 80 23  52 23 80 F0 FF FF 7F F0  +.@..8.#R#......
0650: FF FF 7F 34 30 30 61 45  23 80 F0 FF FF 7F F0 FF  ...400aE#.......
0660: FF 7F 34 31 30 61 05 80  2B E0 40 0F 01 39 80 23  ..410a..+.@..9.#
0670: 1C 27 80 1A 95 5E 52 23  80 F0 FF FF 7F F0 FF FF  .'...^R#........
0680: 7F 34 31 30 61 01 88 06  1B                       .410a....       
```

#### Opcodes

```
  0: 0x0001 [0x42] SET_CLI_EVENT_CANCEL_DATA()
  1: 0x0002 [0x1A] CALL_SUBROUTINE(address=0x5E95)
  2: 0x0005 [0x46] CAMERA_CONTROL: Disable user control
  3: 0x0007 [0x38] SET_CLIENT_EVENT_MODE(mode=19*)
  4: 0x000A [0x75] LOAD_ROOM(Load indoor room, room=451*)
  5: 0x000E [0x75] LOAD_ROOM(No action)
  6: 0x0010 [0x27] REQ_SET(priority=0x10, entity_id=LocalPlayer, tag_num=0x7D)
  7: 0x0017 [0x27] REQ_SET(priority=0x10, entity_id=Moogle (ID: 17776864/0x010F40E0), tag_num=0x01)
  8: 0x001E [0x27] REQ_SET(priority=0x10, entity_id=??? (ID: 17776862/0x010F40DE), tag_num=0x09)
  9: 0x0025 [0x27] REQ_SET(priority=0x10, entity_id=Unnamed NPC (ID: 17776863/0x010F40DF), tag_num=0x09)
 10: 0x002C [0x27] REQ_SET(priority=0x10, entity_id=??? (ID: 17776862/0x010F40DE), tag_num=0x0D)
 11: 0x0033 [0x27] REQ_SET(priority=0x10, entity_id=Unnamed NPC (ID: 17776863/0x010F40DF), tag_num=0x0A)
 12: 0x003A [0x59] UPDATE_ENTITY_DATA: ??? (ID: 17776862/0x010F40DE)->Render.Flags0 |= 0x200000
 13: 0x0041 [0xBA] SET_ENTITY_POSITION(entity_id=LocalPlayer, pos_x=-13.207*, pos_z=65.149*, pos_y=1.999*, direction=0.0°*)
 14: 0x004E [0xBA] SET_ENTITY_POSITION(entity_id=Moogle (ID: 17776864/0x010F40E0), pos_x=-14.166*, pos_z=66.751*, pos_y=1.632*, direction=0.0°*)
 15: 0x005B [0x80] LOAD_WAIT(entity=LocalPlayer)
 16: 0x0060 [0x80] LOAD_WAIT(entity=Moogle (ID: 17776864/0x010F40E0))
 17: 0x0065 [0x1C] WAIT(15* ticks)
 18: 0x0068 [0x4A] LocalPlayer looks at Moogle (ID: 17776864/0x010F40E0)
 19: 0x0071 [0x4A] Moogle (ID: 17776864/0x010F40E0) looks at LocalPlayer
 20: 0x007A [0x6F] WAIT_FRAME_DELAY: Yield until WaitTime reaches zero
 21: 0x007B [0x76] CHECK_ENTITY_RENDER_FLAGS: Wait until LocalPlayer Render.Flags0 and Render.Flags3 conditions are met
 22: 0x0080 [0x6F] WAIT_FRAME_DELAY: Yield until WaitTime reaches zero
 23: 0x0081 [0x76] CHECK_ENTITY_RENDER_FLAGS: Wait until Moogle (ID: 17776864/0x010F40E0) Render.Flags0 and Render.Flags3 conditions are met
 24: 0x0086 [0x1C] WAIT(15* ticks)
 25: 0x0089 [0x7B] Moogle (ID: 17776864/0x010F40E0) stops talking
 26: 0x008E [0x27] REQ_SET(priority=0x10, entity_id=Moogle (ID: 17776864/0x010F40E0), tag_num=0x10)
 27: 0x0095 [0x1C] WAIT(30* ticks)
 28: 0x0098 [0x03] ExtData[1]->WorkLocal[0] = 1*
 29: 0x009D [0x02] IF !(ExtData[1]->WorkLocal[0] > 10*) GOTO 0x0227
 30: 0x00A5 [0x02] IF !(0* < ExtData[1]->WorkLocal[0]) GOTO 0x021F
 31: 0x00AD [0x02] IF !(ExtData[1]->WorkLocal[0] == 2*) GOTO 0x00D3
 32: 0x00B5 [0x27] REQ_SET(priority=0x10, entity_id=Moogle (ID: 17776864/0x010F40E0), tag_num=0x11)
 33: 0x00BC [0x1A] CALL_SUBROUTINE(address=0x5E74)
 34: 0x00BF [0x27] REQ_SET(priority=0x10, entity_id=Moogle (ID: 17776864/0x010F40E0), tag_num=0x1A)
 35: 0x00C6 [0x27] REQ_SET(priority=0x10, entity_id=Moogle (ID: 17776864/0x010F40E0), tag_num=0x1D)
 36: 0x00CD [0x1A] CALL_SUBROUTINE(address=0x5E74)
 37: 0x00D0 [0x01] GOTO 0x021F
 38: 0x00D3 [0x02] IF !(ExtData[1]->WorkLocal[0] == 3*) GOTO 0x00EF
 39: 0x00DB [0x27] REQ_SET(priority=0x10, entity_id=Moogle (ID: 17776864/0x010F40E0), tag_num=0x1C)
 40: 0x00E2 [0x27] REQ_SET(priority=0x10, entity_id=Moogle (ID: 17776864/0x010F40E0), tag_num=0x1D)
 41: 0x00E9 [0x1A] CALL_SUBROUTINE(address=0x5E95)
 42: 0x00EC [0x01] GOTO 0x021F
 43: 0x00EF [0x02] IF !(ExtData[1]->WorkLocal[0] == 4*) GOTO 0x015D
 44: 0x00F7 [0xBA] SET_ENTITY_POSITION(entity_id=LocalPlayer, pos_x=-78.389*, pos_z=77.759*, pos_y=-1.209*, direction=0.0°*)
 45: 0x0104 [0xBA] SET_ENTITY_POSITION(entity_id=Moogle (ID: 17776864/0x010F40E0), pos_x=-78.280*, pos_z=76.117*, pos_y=-1.209*, direction=0.0°*)
 46: 0x0111 [0xBA] SET_ENTITY_POSITION(entity_id=??? (ID: 17776862/0x010F40DE), pos_x=-81.351*, pos_z=72.953*, pos_y=-2.209*, direction=239.9°*)
 47: 0x011E [0x80] LOAD_WAIT(entity=LocalPlayer)
 48: 0x0123 [0x80] LOAD_WAIT(entity=Moogle (ID: 17776864/0x010F40E0))
 49: 0x0128 [0x80] LOAD_WAIT(entity=Unnamed NPC (ID: 17776863/0x010F40DF))
 50: 0x012D [0x27] REQ_SET(priority=0x10, entity_id=??? (ID: 17776862/0x010F40DE), tag_num=0x0F)
 51: 0x0134 [0x4A] LocalPlayer looks at Moogle (ID: 17776864/0x010F40E0)
 52: 0x013D [0x4A] Moogle (ID: 17776864/0x010F40E0) looks at ??? (ID: 17776862/0x010F40DE)
 53: 0x0146 [0x1A] CALL_SUBROUTINE(address=0x5E74)
 54: 0x0149 [0x27] REQ_SET(priority=0x10, entity_id=Moogle (ID: 17776864/0x010F40E0), tag_num=0x0A)
 55: 0x0150 [0x27] REQ_SET(priority=0x10, entity_id=Moogle (ID: 17776864/0x010F40E0), tag_num=0x2E)
 56: 0x0157 [0x1A] CALL_SUBROUTINE(address=0x5E95)
 57: 0x015A [0x01] GOTO 0x021F
 58: 0x015D [0x02] IF !(ExtData[1]->WorkLocal[0] == 5*) GOTO 0x01D0
 59: 0x0165 [0xBA] SET_ENTITY_POSITION(entity_id=Unnamed NPC (ID: 17776863/0x010F40DF), pos_x=-79.984*, pos_z=73.774*, pos_y=-1.209*, direction=0.0°*)
 60: 0x0172 [0xBA] SET_ENTITY_POSITION(entity_id=Moogle (ID: 17776864/0x010F40E0), pos_x=-79.984*, pos_z=73.774*, pos_y=-1.209*, direction=0.0°*)
 61: 0x017F [0xBA] SET_ENTITY_POSITION(entity_id=LocalPlayer, pos_x=-78.270*, pos_z=74.804*, pos_y=-1.209*, direction=0.0°*)
 62: 0x018C [0x80] LOAD_WAIT(entity=Unnamed NPC (ID: 17776863/0x010F40DF))
 63: 0x0191 [0x80] LOAD_WAIT(entity=Moogle (ID: 17776864/0x010F40E0))
 64: 0x0196 [0x80] LOAD_WAIT(entity=LocalPlayer)
 65: 0x019B [0x4A] Unnamed NPC (ID: 17776863/0x010F40DF) looks at LocalPlayer
 66: 0x01A4 [0x4A] Moogle (ID: 17776864/0x010F40E0) looks at LocalPlayer
 67: 0x01AD [0x4A] LocalPlayer looks at Moogle (ID: 17776864/0x010F40E0)
 68: 0x01B6 [0x27] REQ_SET(priority=0x10, entity_id=Unnamed NPC (ID: 17776863/0x010F40DF), tag_num=0x0E)
 69: 0x01BD [0x27] REQ_SET(priority=0x10, entity_id=Moogle (ID: 17776864/0x010F40E0), tag_num=0x2A)
 70: 0x01C4 [0x4E] SET_ENTITY_HIDE_FLAG: Hide ??? (ID: 17776862/0x010F40DE)
 71: 0x01CA [0x1A] CALL_SUBROUTINE(address=0x5E74)
 72: 0x01CD [0x01] GOTO 0x021F
 73: 0x01D0 [0x02] IF !(ExtData[1]->WorkLocal[0] == 6*) GOTO 0x01E9
 74: 0x01D8 [0x27] REQ_SET(priority=0x10, entity_id=Unnamed NPC (ID: 17776863/0x010F40DF), tag_num=0x13)
 75: 0x01DF [0x27] REQ_SET(priority=0x10, entity_id=Moogle (ID: 17776864/0x010F40E0), tag_num=0x35)
 76: 0x01E6 [0x01] GOTO 0x021F
 77: 0x01E9 [0x02] IF !(ExtData[1]->WorkLocal[0] == 8*) GOTO 0x01F4
 78: 0x01F1 [0x01] GOTO 0x021F
 79: 0x01F4 [0x02] IF !(ExtData[1]->WorkLocal[0] == 9*) GOTO 0x020D
 80: 0x01FC [0x27] REQ_SET(priority=0x10, entity_id=Unnamed NPC (ID: 17776863/0x010F40DF), tag_num=0x11)
 81: 0x0203 [0x27] REQ_SET(priority=0x10, entity_id=Moogle (ID: 17776864/0x010F40E0), tag_num=0x2C)
 82: 0x020A [0x01] GOTO 0x021F
 83: 0x020D [0x02] IF !(ExtData[1]->WorkLocal[0] == 10*) GOTO 0x021F
 84: 0x0215 [0x27] REQ_SET(priority=0x10, entity_id=Moogle (ID: 17776864/0x010F40E0), tag_num=0x0F)
 85: 0x021C [0x01] GOTO 0x021F

SUBROUTINE_021F:
 86: 0x021F [0x07] ExtData[1]->WorkLocal[0] += 1*
 87: 0x0224 [0x01] GOTO 0x009D
 88: 0x0227 [0x03] ExtData[1]->WorkLocal[0] = 1*

SUBROUTINE_022C:
 89: 0x022C [0x02] IF !(ExtData[1]->WorkLocal[0] > 10*) GOTO 0x0247
 90: 0x0234 [0x02] IF !(0* > ExtData[1]->WorkLocal[0]) GOTO 0x023F
 91: 0x023C [0x1A] CALL_SUBROUTINE(address=0x028A)
 92: 0x023F [0x07] ExtData[1]->WorkLocal[0] += 1*
 93: 0x0244 [0x01] GOTO 0x022C
 94: 0x0247 [0x1A] CALL_SUBROUTINE(address=0x5E95)
 95: 0x024A [0x1C] WAIT(30* ticks)
 96: 0x024D [0x29] REQ_SET_WAIT(priority=0x10, entity_id=??? (ID: 17776862/0x010F40DE), tag_num=0x0E)
 97: 0x0254 [0x29] REQ_SET_WAIT(priority=0x10, entity_id=Unnamed NPC (ID: 17776863/0x010F40DF), tag_num=0x0D)
 98: 0x025B [0x80] LOAD_WAIT(entity=??? (ID: 17776862/0x010F40DE))
 99: 0x0260 [0x80] LOAD_WAIT(entity=Unnamed NPC (ID: 17776863/0x010F40DF))
100: 0x0265 [0x1C] WAIT(30* ticks)
101: 0x0268 [0x46] CAMERA_CONTROL: Restore default settings
102: 0x026A [0x45] LOAD_SCHEDULED_TASK: Load scheduler "fdi2" with entities [LocalPlayer, LocalPlayer], work=[200*, 0*]
103: 0x027B [0x21] END_EVENT
104: 0x027C [0x00] END_REQSTACK()

SUBROUTINE_028A:
105: 0x028A [0x02] IF !(ExtData[1]->WorkLocal[0] == 1*) GOTO 0x02F5
106: 0x0292 [0x45] LOAD_SCHEDULED_TASK: Load scheduler "4001" with entities [LocalPlayer, LocalPlayer], work=[463*, 0*]
107: 0x02A3 [0x27] REQ_SET(priority=0x10, entity_id=Moogle (ID: 17776864/0x010F40E0), tag_num=0x11)
108: 0x02AA [0x1C] WAIT(30* ticks)
109: 0x02AD [0x1A] CALL_SUBROUTINE(address=0x5E74)
110: 0x02B0 [0x1C] WAIT(50* ticks)
111: 0x02B3 [0x2B] Moogle (ID: 17776864/0x010F40E0) [12355*]:
    → "Oh, Master, there you are!"
112: 0x02BA [0x2A] GET_REQ_LEVEL(level=16, entity_id=Moogle (ID: 17776864/0x010F40E0))
113: 0x02C0 [0x79] Moogle (ID: 17776864/0x010F40E0) looks at LocalPlayer (Basic look)
114: 0x02CA [0x1C] WAIT(30* ticks)
115: 0x02CD [0x27] REQ_SET(priority=0x10, entity_id=Moogle (ID: 17776864/0x010F40E0), tag_num=0x1A)
116: 0x02D4 [0x2B] Moogle (ID: 17776864/0x010F40E0) [12356*]:
    → "And not a moment too soon, kupo! This way, this way!"
117: 0x02DB [0x23] WAIT_FOR_DIALOG_INTERACTION
118: 0x02DC [0x27] REQ_SET(priority=0x10, entity_id=Moogle (ID: 17776864/0x010F40E0), tag_num=0x1D)
119: 0x02E3 [0x52] END_LOAD_SCHEDULER: End scheduler "4001" with entities [LocalPlayer, LocalPlayer], work=463*
120: 0x02F2 [0x01] GOTO 0x0688
121: 0x02F5 [0x02] IF !(ExtData[1]->WorkLocal[0] == 2*) GOTO 0x0339
122: 0x02FD [0x45] LOAD_SCHEDULED_TASK: Load scheduler "4002" with entities [LocalPlayer, LocalPlayer], work=[463*, 0*]
123: 0x030E [0x27] REQ_SET(priority=0x10, entity_id=Moogle (ID: 17776864/0x010F40E0), tag_num=0x1C)
124: 0x0315 [0x2B] Moogle (ID: 17776864/0x010F40E0) [12357*]:
    → "Now, whatever could the trouble be? Let's take a look-see."
125: 0x031C [0x23] WAIT_FOR_DIALOG_INTERACTION
126: 0x031D [0x27] REQ_SET(priority=0x10, entity_id=Moogle (ID: 17776864/0x010F40E0), tag_num=0x1D)
127: 0x0324 [0x1A] CALL_SUBROUTINE(address=0x5E95)
128: 0x0327 [0x52] END_LOAD_SCHEDULER: End scheduler "4002" with entities [LocalPlayer, LocalPlayer], work=463*
129: 0x0336 [0x01] GOTO 0x0688
130: 0x0339 [0x02] IF !(ExtData[1]->WorkLocal[0] == 3*) GOTO 0x03F2
131: 0x0341 [0xBA] SET_ENTITY_POSITION(entity_id=LocalPlayer, pos_x=-78.389*, pos_z=77.759*, pos_y=-1.209*, direction=0.0°*)
132: 0x034E [0xBA] SET_ENTITY_POSITION(entity_id=Moogle (ID: 17776864/0x010F40E0), pos_x=-78.280*, pos_z=76.117*, pos_y=-1.209*, direction=0.0°*)
133: 0x035B [0xBA] SET_ENTITY_POSITION(entity_id=??? (ID: 17776862/0x010F40DE), pos_x=-81.351*, pos_z=72.953*, pos_y=-2.209*, direction=239.9°*)
134: 0x0368 [0x80] LOAD_WAIT(entity=LocalPlayer)
135: 0x036D [0x80] LOAD_WAIT(entity=Moogle (ID: 17776864/0x010F40E0))
136: 0x0372 [0x80] LOAD_WAIT(entity=Unnamed NPC (ID: 17776863/0x010F40DF))
137: 0x0377 [0x1C] WAIT(15* ticks)
138: 0x037A [0x27] REQ_SET(priority=0x10, entity_id=??? (ID: 17776862/0x010F40DE), tag_num=0x0F)
139: 0x0381 [0x4A] LocalPlayer looks at Moogle (ID: 17776864/0x010F40E0)
140: 0x038A [0x4A] Moogle (ID: 17776864/0x010F40E0) looks at ??? (ID: 17776862/0x010F40DE)
141: 0x0393 [0x1C] WAIT(60* ticks)
142: 0x0396 [0x48] [System] [12425*]:
    → ""
143: 0x0399 [0x23] WAIT_FOR_DIALOG_INTERACTION
144: 0x039A [0x45] LOAD_SCHEDULED_TASK: Load scheduler "4003" with entities [LocalPlayer, LocalPlayer], work=[463*, 0*]
145: 0x03AB [0x1A] CALL_SUBROUTINE(address=0x5E74)
146: 0x03AE [0x1C] WAIT(30* ticks)
147: 0x03B1 [0x27] REQ_SET(priority=0x10, entity_id=Moogle (ID: 17776864/0x010F40E0), tag_num=0x0A)
148: 0x03B8 [0x2B] Moogle (ID: 17776864/0x010F40E0) [12358*]:
    → "A letter? How curious, kupo..."
149: 0x03BF [0x23] WAIT_FOR_DIALOG_INTERACTION
150: 0x03C0 [0x2A] GET_REQ_LEVEL(level=16, entity_id=Moogle (ID: 17776864/0x010F40E0))
151: 0x03C6 [0x79] LocalPlayer looks at ??? (ID: 17776862/0x010F40DE) (Basic look)
152: 0x03D0 [0x1C] WAIT(15* ticks)
153: 0x03D3 [0x27] REQ_SET(priority=0x10, entity_id=Moogle (ID: 17776864/0x010F40E0), tag_num=0x2E)
154: 0x03DA [0x1C] WAIT(180* ticks)
155: 0x03DD [0x1A] CALL_SUBROUTINE(address=0x5E95)
156: 0x03E0 [0x52] END_LOAD_SCHEDULER: End scheduler "4003" with entities [LocalPlayer, LocalPlayer], work=463*
157: 0x03EF [0x01] GOTO 0x0688
158: 0x03F2 [0x02] IF !(ExtData[1]->WorkLocal[0] == 4*) GOTO 0x04B2
159: 0x03FA [0xBA] SET_ENTITY_POSITION(entity_id=Unnamed NPC (ID: 17776863/0x010F40DF), pos_x=-79.984*, pos_z=73.774*, pos_y=-1.209*, direction=0.0°*)
160: 0x0407 [0xBA] SET_ENTITY_POSITION(entity_id=Moogle (ID: 17776864/0x010F40E0), pos_x=-79.984*, pos_z=73.774*, pos_y=-1.209*, direction=0.0°*)
161: 0x0414 [0xBA] SET_ENTITY_POSITION(entity_id=LocalPlayer, pos_x=-78.270*, pos_z=74.804*, pos_y=-1.209*, direction=0.0°*)
162: 0x0421 [0x80] LOAD_WAIT(entity=Unnamed NPC (ID: 17776863/0x010F40DF))
163: 0x0426 [0x80] LOAD_WAIT(entity=Moogle (ID: 17776864/0x010F40E0))
164: 0x042B [0x80] LOAD_WAIT(entity=LocalPlayer)
165: 0x0430 [0x1C] WAIT(15* ticks)
166: 0x0433 [0x4A] Unnamed NPC (ID: 17776863/0x010F40DF) looks at LocalPlayer
167: 0x043C [0x4A] Moogle (ID: 17776864/0x010F40E0) looks at LocalPlayer
168: 0x0445 [0x4A] LocalPlayer looks at Moogle (ID: 17776864/0x010F40E0)
169: 0x044E [0x6F] WAIT_FRAME_DELAY: Yield until WaitTime reaches zero
170: 0x044F [0x76] CHECK_ENTITY_RENDER_FLAGS: Wait until Unnamed NPC (ID: 17776863/0x010F40DF) Render.Flags0 and Render.Flags3 conditions are met
171: 0x0454 [0x6F] WAIT_FRAME_DELAY: Yield until WaitTime reaches zero
172: 0x0455 [0x76] CHECK_ENTITY_RENDER_FLAGS: Wait until Moogle (ID: 17776864/0x010F40E0) Render.Flags0 and Render.Flags3 conditions are met
173: 0x045A [0x6F] WAIT_FRAME_DELAY: Yield until WaitTime reaches zero
174: 0x045B [0x76] CHECK_ENTITY_RENDER_FLAGS: Wait until LocalPlayer Render.Flags0 and Render.Flags3 conditions are met
175: 0x0460 [0x27] REQ_SET(priority=0x10, entity_id=Unnamed NPC (ID: 17776863/0x010F40DF), tag_num=0x0E)
176: 0x0467 [0x27] REQ_SET(priority=0x10, entity_id=Moogle (ID: 17776864/0x010F40E0), tag_num=0x2A)
177: 0x046E [0x4E] SET_ENTITY_HIDE_FLAG: Hide ??? (ID: 17776862/0x010F40DE)
178: 0x0474 [0x7B] Moogle (ID: 17776864/0x010F40E0) stops talking
179: 0x0479 [0x1C] WAIT(60* ticks)
180: 0x047C [0x45] LOAD_SCHEDULED_TASK: Load scheduler "4004" with entities [LocalPlayer, LocalPlayer], work=[463*, 0*]
181: 0x048D [0x1A] CALL_SUBROUTINE(address=0x5E74)
182: 0x0490 [0x2B] Moogle (ID: 17776864/0x010F40E0) [12359*]:
    → "Let's see what this mysterious missive has to say..."
183: 0x0497 [0x23] WAIT_FOR_DIALOG_INTERACTION
184: 0x0498 [0x2B] Moogle (ID: 17776864/0x010F40E0) [12360*]:
    → ""Deer valyooed kustomer, Thank yoo for choozing Moogle-House, Inc. This deelux domicyle has ben furnishd with an abundense of furst-class acooterments for yoor living lukshury, kupo.""
185: 0x049F [0x23] WAIT_FOR_DIALOG_INTERACTION
186: 0x04A0 [0x52] END_LOAD_SCHEDULER: End scheduler "4004" with entities [LocalPlayer, LocalPlayer], work=463*
187: 0x04AF [0x01] GOTO 0x0688
188: 0x04B2 [0x02] IF !(ExtData[1]->WorkLocal[0] == 5*) GOTO 0x0504
189: 0x04BA [0x45] LOAD_SCHEDULED_TASK: Load scheduler "4005" with entities [LocalPlayer, LocalPlayer], work=[463*, 0*]
190: 0x04CB [0x27] REQ_SET(priority=0x10, entity_id=Unnamed NPC (ID: 17776863/0x010F40DF), tag_num=0x11)
191: 0x04D2 [0x27] REQ_SET(priority=0x10, entity_id=Moogle (ID: 17776864/0x010F40E0), tag_num=0x2C)
192: 0x04D9 [0x1C] WAIT(200* ticks)
193: 0x04DC [0x27] REQ_SET(priority=0x10, entity_id=Moogle (ID: 17776864/0x010F40E0), tag_num=0x1C)
194: 0x04E3 [0x2B] Moogle (ID: 17776864/0x010F40E0) [12361*]:
    → ""We are shoore yoo will enjoy yoor stay. Lyke our mottoe sez: Moogle-House--leese it, live it, luv it!" -Kupeliaure"
195: 0x04EA [0x23] WAIT_FOR_DIALOG_INTERACTION
196: 0x04EB [0x27] REQ_SET(priority=0x10, entity_id=Moogle (ID: 17776864/0x010F40E0), tag_num=0x1D)
197: 0x04F2 [0x52] END_LOAD_SCHEDULER: End scheduler "4005" with entities [LocalPlayer, LocalPlayer], work=463*
198: 0x0501 [0x01] GOTO 0x0688
199: 0x0504 [0x02] IF !(ExtData[1]->WorkLocal[0] == 6*) GOTO 0x0557
200: 0x050C [0x45] LOAD_SCHEDULED_TASK: Load scheduler "4007" with entities [LocalPlayer, LocalPlayer], work=[463*, 0*]
201: 0x051D [0x79] Moogle (ID: 17776864/0x010F40E0) looks at LocalPlayer (Basic look)
202: 0x0527 [0x27] REQ_SET(priority=0x10, entity_id=Moogle (ID: 17776864/0x010F40E0), tag_num=0x1C)
203: 0x052E [0x2B] Moogle (ID: 17776864/0x010F40E0) [12362*]:
    → "What's that? Oh, Dom Kupeliaure is the MHMU representative in charge of administering all Mog House-related affairs. A most charming and charitable chap, kupo!"
204: 0x0535 [0x23] WAIT_FOR_DIALOG_INTERACTION
205: 0x0536 [0x2B] Moogle (ID: 17776864/0x010F40E0) [12363*]:
    → "That's odd, though... He always struck me as a bit more...literate?"
206: 0x053D [0x23] WAIT_FOR_DIALOG_INTERACTION
207: 0x053E [0x27] REQ_SET(priority=0x10, entity_id=Moogle (ID: 17776864/0x010F40E0), tag_num=0x1D)
208: 0x0545 [0x52] END_LOAD_SCHEDULER: End scheduler "4007" with entities [LocalPlayer, LocalPlayer], work=463*
209: 0x0554 [0x01] GOTO 0x0688
210: 0x0557 [0x02] IF !(ExtData[1]->WorkLocal[0] == 7*) GOTO 0x0562
211: 0x055F [0x01] GOTO 0x0688
212: 0x0562 [0x02] IF !(ExtData[1]->WorkLocal[0] == 8*) GOTO 0x05C0
213: 0x056A [0x45] LOAD_SCHEDULED_TASK: Load scheduler "4008" with entities [LocalPlayer, LocalPlayer], work=[463*, 0*]
214: 0x057B [0x7B] Moogle (ID: 17776864/0x010F40E0) stops talking
215: 0x0580 [0x27] REQ_SET(priority=0x10, entity_id=Moogle (ID: 17776864/0x010F40E0), tag_num=0x27)
216: 0x0587 [0x1C] WAIT(30* ticks)
217: 0x058A [0x2B] Moogle (ID: 17776864/0x010F40E0) [12364*]:
    → "Then again, he is a busy moogle. Contracts to sign, inspections to oversee, deadbeat adventurers to evict... You know how it is, kupo. Perhaps he was just in a hurry?"
218: 0x0591 [0x23] WAIT_FOR_DIALOG_INTERACTION
219: 0x0592 [0x2A] GET_REQ_LEVEL(level=16, entity_id=Moogle (ID: 17776864/0x010F40E0))
220: 0x0598 [0x27] REQ_SET(priority=0x10, entity_id=Moogle (ID: 17776864/0x010F40E0), tag_num=0x1A)
221: 0x059F [0x2B] Moogle (ID: 17776864/0x010F40E0) [12365*]:
    → "Anyway, let's take a swift survey of the area, shall we?"
222: 0x05A6 [0x23] WAIT_FOR_DIALOG_INTERACTION
223: 0x05A7 [0x27] REQ_SET(priority=0x10, entity_id=Moogle (ID: 17776864/0x010F40E0), tag_num=0x1C)
224: 0x05AE [0x52] END_LOAD_SCHEDULER: End scheduler "4008" with entities [LocalPlayer, LocalPlayer], work=463*
225: 0x05BD [0x01] GOTO 0x0688
226: 0x05C0 [0x02] IF !(ExtData[1]->WorkLocal[0] == 9*) GOTO 0x05F8
227: 0x05C8 [0x45] LOAD_SCHEDULED_TASK: Load scheduler "4009" with entities [LocalPlayer, LocalPlayer], work=[463*, 0*]
228: 0x05D9 [0x27] REQ_SET(priority=0x10, entity_id=Moogle (ID: 17776864/0x010F40E0), tag_num=0x0F)
229: 0x05E0 [0x1C] WAIT(130* ticks)
230: 0x05E3 [0x1A] CALL_SUBROUTINE(address=0x5E95)
231: 0x05E6 [0x52] END_LOAD_SCHEDULER: End scheduler "4009" with entities [LocalPlayer, LocalPlayer], work=463*
232: 0x05F5 [0x01] GOTO 0x0688
233: 0x05F8 [0x02] IF !(ExtData[1]->WorkLocal[0] == 10*) GOTO 0x0688
234: 0x0600 [0x4E] SET_ENTITY_HIDE_FLAG: Hide Moogle (ID: 17776864/0x010F40E0)
235: 0x0606 [0x1C] WAIT(60* ticks)
236: 0x0609 [0x2B] Moogle (ID: 17776864/0x010F40E0) [12366*]:
    → "Walls...worrisomely worn. Ceiling...categorically crumbling. Floor stones...frighteningly falling apart."
237: 0x0610 [0x23] WAIT_FOR_DIALOG_INTERACTION
238: 0x0611 [0x1C] WAIT(60* ticks)
239: 0x0614 [0x45] LOAD_SCHEDULED_TASK: Load scheduler "400a" with entities [LocalPlayer, LocalPlayer], work=[463*, 0*]
240: 0x0625 [0x1A] CALL_SUBROUTINE(address=0x5E74)
241: 0x0628 [0x1C] WAIT(60* ticks)
242: 0x062B [0x2B] Moogle (ID: 17776864/0x010F40E0) [12367*]:
    → "I'm afraid it's just as I feared, kupo. This place needs some serious sprucing up!"
243: 0x0632 [0x23] WAIT_FOR_DIALOG_INTERACTION
244: 0x0633 [0x03] Work_Zone[2] = 1136*
245: 0x0638 [0x2B] Moogle (ID: 17776864/0x010F40E0) [12368*]:
    → "First, let's take care of this gaping gash in the ceiling. 6 should do the trick, don't you think?"
246: 0x063F [0x23] WAIT_FOR_DIALOG_INTERACTION
247: 0x0640 [0x2B] Moogle (ID: 17776864/0x010F40E0) [12369*]:
    → "An adventurer with your mining mastery should be able to find it in a flash, kupo! You wouldn't object to obtaining it for me, would you?"
248: 0x0647 [0x23] WAIT_FOR_DIALOG_INTERACTION
249: 0x0648 [0x52] END_LOAD_SCHEDULER: End scheduler "400a" with entities [LocalPlayer, LocalPlayer], work=463*
250: 0x0657 [0x45] LOAD_SCHEDULED_TASK: Load scheduler "410a" with entities [LocalPlayer, LocalPlayer], work=[463*, 0*]
251: 0x0668 [0x2B] Moogle (ID: 17776864/0x010F40E0) [12370*]:
    → "While you're out, I'll take up my tools and get cracking. Happy hunting!"
252: 0x066F [0x23] WAIT_FOR_DIALOG_INTERACTION
253: 0x0670 [0x1C] WAIT(60* ticks)
254: 0x0673 [0x1A] CALL_SUBROUTINE(address=0x5E95)
255: 0x0676 [0x52] END_LOAD_SCHEDULER: End scheduler "410a" with entities [LocalPlayer, LocalPlayer], work=463*
256: 0x0685 [0x01] GOTO 0x0688

SUBROUTINE_0688:
257: 0x0688 [0x1B] RETURN
```

#### Data or dead code:

```
# Dead code (unreachable instructions):
     0x027D [0x02] IF !(0* == 1*) GOTO 0x0289
     0x0285 [0x48] [System] [12355*]:
    → "Oh, Master, there you are!"
     0x0288 [0x23] WAIT_FOR_DIALOG_INTERACTION
     0x0289 [0x1B] RETURN
```

### Event 10179

#### Metadata

| Field        | Value     |
|--------------|-----------|
| Entrypoint   | 0x0689    |
| Data Size    | 626 bytes |
| Instructions | 100       |

```
      00 01 02 03 04 05 06 07  08 09 0A 0B 0C 0D 0E 0F
      -- -- -- -- -- -- -- --  -- -- -- -- -- -- -- --
0680:                             42 1A 95 5E 46 01 38           B..^F.8
0690: 00 80 75 00 01 80 75 01  27 10 F0 FF FF 7F 7D 27  ..u...u.'.....}'
06A0: 10 E0 40 0F 01 01 27 10  DF 40 0F 01 09 29 10 DF  ..@...'..@...)..
06B0: 40 0F 01 0D BA F0 FF FF  7F 3A 80 3B 80 3C 80 05  @........:.;.<..
06C0: 80 BA E0 40 0F 01 3D 80  3E 80 3C 80 05 80 BA DF  ...@..=.>.<.....
06D0: 40 0F 01 3D 80 3E 80 3C  80 05 80 80 F0 FF FF 7F  @..=.>.<........
06E0: 80 E0 40 0F 01 80 DF 40  0F 01 1C 09 80 4A F0 FF  ..@....@.....J..
06F0: FF 7F E0 40 0F 01 4A E0  40 0F 01 F0 FF FF 7F 6F  ...@..J.@......o
0700: 76 F0 FF FF 7F 6F 76 E0  40 0F 01 1C 09 80 7B E0  v....ov.@.....{.
0710: 40 0F 01 1C 0A 80 03 01  00 0B 80 02 01 00 19 80  @...............
0720: 05 41 07 02 05 80 01 00  04 39 07 02 01 00 0D 80  .A.......9......
0730: 80 39 07 1A 74 5E 01 39  07 07 01 00 0B 80 01 1B  .9..t^.9........
0740: 07 03 01 00 0B 80 02 01  00 19 80 05 61 07 02 05  ............a...
0750: 80 01 00 05 59 07 1A 89  07 07 01 00 0B 80 01 46  ....Y..........F
0760: 07 1A 95 5E 1C 0A 80 46  00 45 21 80 F0 FF FF 7F  ...^...F.E!.....
0770: F0 FF FF 7F 66 64 69 32  05 80 21 00 02 05 80 0B  ....fdi2..!.....
0780: 80 00 88 07 48 3F 80 23  1B 02 01 00 0B 80 80 D7  ....H?.#........
0790: 07 45 23 80 F0 FF FF 7F  F0 FF FF 7F 36 30 30 31  .E#.........6001
07A0: 05 80 27 10 E0 40 0F 01  30 1A 74 5E 1C 0A 80 27  ..'..@..0.t^...'
07B0: 10 E0 40 0F 01 1C 2B E0  40 0F 01 40 80 23 27 10  ..@...+.@..@.#'.
07C0: E0 40 0F 01 1D 52 23 80  F0 FF FF 7F F0 FF FF 7F  .@...R#.........
07D0: 36 30 30 31 01 FA 08 02  01 00 0D 80 80 0F 08 27  6001...........'
07E0: 10 E0 40 0F 01 0F 45 23  80 F0 FF FF 7F F0 FF FF  ..@...E#........
07F0: 7F 36 30 30 32 05 80 1C  41 80 1A 95 5E 52 23 80  .6002...A...^R#.
0800: F0 FF FF 7F F0 FF FF 7F  36 30 30 32 01 FA 08 02  ........6002....
0810: 01 00 0E 80 80 5D 08 27  10 E0 40 0F 01 10 4E 01  .....].'..@...N.
0820: E0 40 0F 01 1C 27 80 45  23 80 F0 FF FF 7F F0 FF  .@...'.E#.......
0830: FF 7F 36 30 30 33 05 80  1A 74 5E 27 10 DF 40 0F  ..6003...t^'..@.
0840: 01 28 1C 42 80 1C 27 80  1A 95 5E 52 23 80 F0 FF  .(.B..'...^R#...
0850: FF 7F F0 FF FF 7F 36 30  30 33 01 FA 08 02 01 00  ......6003......
0860: 0F 80 80 B9 08 4E 00 E0  40 0F 01 27 10 E0 40 0F  .....N..@..'..@.
0870: 01 11 1C 0A 80 45 23 80  F0 FF FF 7F F0 FF FF 7F  .....E#.........
0880: 36 30 30 34 05 80 1A 74  5E 03 02 10 43 80 2B E0  6004...t^...C.+.
0890: 40 0F 01 3F 80 23 2B E0  40 0F 01 44 80 23 2A 10  @..?.#+.@..D.#*.
08A0: E0 40 0F 01 1C 0A 80 52  23 80 F0 FF FF 7F F0 FF  .@.....R#.......
08B0: FF 7F 36 30 30 34 01 FA  08 02 01 00 19 80 80 FA  ..6004..........
08C0: 08 45 23 80 F0 FF FF 7F  F0 FF FF 7F 36 30 30 35  .E#.........6005
08D0: 05 80 27 10 E0 40 0F 01  1C 2B E0 40 0F 01 39 80  ..'..@...+.@..9.
08E0: 23 27 10 E0 40 0F 01 1D  52 23 80 F0 FF FF 7F F0  #'..@...R#......
08F0: FF FF 7F 36 30 30 35 01  FA 08 1B                 ...6005....     
```

#### Opcodes

```
  0: 0x0689 [0x42] SET_CLI_EVENT_CANCEL_DATA()
  1: 0x068A [0x1A] CALL_SUBROUTINE(address=0x5E95)
  2: 0x068D [0x46] CAMERA_CONTROL: Disable user control
  3: 0x068F [0x38] SET_CLIENT_EVENT_MODE(mode=19*)
  4: 0x0692 [0x75] LOAD_ROOM(Load indoor room, room=451*)
  5: 0x0696 [0x75] LOAD_ROOM(No action)
  6: 0x0698 [0x27] REQ_SET(priority=0x10, entity_id=LocalPlayer, tag_num=0x7D)
  7: 0x069F [0x27] REQ_SET(priority=0x10, entity_id=Moogle (ID: 17776864/0x010F40E0), tag_num=0x01)
  8: 0x06A6 [0x27] REQ_SET(priority=0x10, entity_id=Unnamed NPC (ID: 17776863/0x010F40DF), tag_num=0x09)
  9: 0x06AD [0x29] REQ_SET_WAIT(priority=0x10, entity_id=Unnamed NPC (ID: 17776863/0x010F40DF), tag_num=0x0D)
 10: 0x06B4 [0xBA] SET_ENTITY_POSITION(entity_id=LocalPlayer, pos_x=-85.539*, pos_z=78.923*, pos_y=-1.200*, direction=0.0°*)
 11: 0x06C1 [0xBA] SET_ENTITY_POSITION(entity_id=Moogle (ID: 17776864/0x010F40E0), pos_x=-83.766*, pos_z=80.147*, pos_y=-1.200*, direction=0.0°*)
 12: 0x06CE [0xBA] SET_ENTITY_POSITION(entity_id=Unnamed NPC (ID: 17776863/0x010F40DF), pos_x=-83.766*, pos_z=80.147*, pos_y=-1.200*, direction=0.0°*)
 13: 0x06DB [0x80] LOAD_WAIT(entity=LocalPlayer)
 14: 0x06E0 [0x80] LOAD_WAIT(entity=Moogle (ID: 17776864/0x010F40E0))
 15: 0x06E5 [0x80] LOAD_WAIT(entity=Unnamed NPC (ID: 17776863/0x010F40DF))
 16: 0x06EA [0x1C] WAIT(15* ticks)
 17: 0x06ED [0x4A] LocalPlayer looks at Moogle (ID: 17776864/0x010F40E0)
 18: 0x06F6 [0x4A] Moogle (ID: 17776864/0x010F40E0) looks at LocalPlayer
 19: 0x06FF [0x6F] WAIT_FRAME_DELAY: Yield until WaitTime reaches zero
 20: 0x0700 [0x76] CHECK_ENTITY_RENDER_FLAGS: Wait until LocalPlayer Render.Flags0 and Render.Flags3 conditions are met
 21: 0x0705 [0x6F] WAIT_FRAME_DELAY: Yield until WaitTime reaches zero
 22: 0x0706 [0x76] CHECK_ENTITY_RENDER_FLAGS: Wait until Moogle (ID: 17776864/0x010F40E0) Render.Flags0 and Render.Flags3 conditions are met
 23: 0x070B [0x1C] WAIT(15* ticks)
 24: 0x070E [0x7B] Moogle (ID: 17776864/0x010F40E0) stops talking
 25: 0x0713 [0x1C] WAIT(30* ticks)
 26: 0x0716 [0x03] ExtData[1]->WorkLocal[1] = 1*
 27: 0x071B [0x02] IF !(ExtData[1]->WorkLocal[1] > 5*) GOTO 0x0741
 28: 0x0723 [0x02] IF !(0* < ExtData[1]->WorkLocal[1]) GOTO 0x0739
 29: 0x072B [0x02] IF !(ExtData[1]->WorkLocal[1] == 2*) GOTO 0x0739
 30: 0x0733 [0x1A] CALL_SUBROUTINE(address=0x5E74)
 31: 0x0736 [0x01] GOTO 0x0739

SUBROUTINE_0739:
 32: 0x0739 [0x07] ExtData[1]->WorkLocal[1] += 1*
 33: 0x073E [0x01] GOTO 0x071B
 34: 0x0741 [0x03] ExtData[1]->WorkLocal[1] = 1*

SUBROUTINE_0746:
 35: 0x0746 [0x02] IF !(ExtData[1]->WorkLocal[1] > 5*) GOTO 0x0761
 36: 0x074E [0x02] IF !(0* > ExtData[1]->WorkLocal[1]) GOTO 0x0759
 37: 0x0756 [0x1A] CALL_SUBROUTINE(address=0x0789)
 38: 0x0759 [0x07] ExtData[1]->WorkLocal[1] += 1*
 39: 0x075E [0x01] GOTO 0x0746
 40: 0x0761 [0x1A] CALL_SUBROUTINE(address=0x5E95)
 41: 0x0764 [0x1C] WAIT(30* ticks)
 42: 0x0767 [0x46] CAMERA_CONTROL: Restore default settings
 43: 0x0769 [0x45] LOAD_SCHEDULED_TASK: Load scheduler "fdi2" with entities [LocalPlayer, LocalPlayer], work=[200*, 0*]
 44: 0x077A [0x21] END_EVENT
 45: 0x077B [0x00] END_REQSTACK()

SUBROUTINE_0789:
 46: 0x0789 [0x02] IF !(ExtData[1]->WorkLocal[1] == 1*) GOTO 0x07D7
 47: 0x0791 [0x45] LOAD_SCHEDULED_TASK: Load scheduler "6001" with entities [LocalPlayer, LocalPlayer], work=[463*, 0*]
 48: 0x07A2 [0x27] REQ_SET(priority=0x10, entity_id=Moogle (ID: 17776864/0x010F40E0), tag_num=0x30)
 49: 0x07A9 [0x1A] CALL_SUBROUTINE(address=0x5E74)
 50: 0x07AC [0x1C] WAIT(30* ticks)
 51: 0x07AF [0x27] REQ_SET(priority=0x10, entity_id=Moogle (ID: 17776864/0x010F40E0), tag_num=0x1C)
 52: 0x07B6 [0x2B] Moogle (ID: 17776864/0x010F40E0) [12376*]:
    → "Incredible! What speed! What alacrity! I knew I could count on you, kupo! Now all it'll take is a tippity-tap here, a nudgety-nudge there, and..."
 53: 0x07BD [0x23] WAIT_FOR_DIALOG_INTERACTION
 54: 0x07BE [0x27] REQ_SET(priority=0x10, entity_id=Moogle (ID: 17776864/0x010F40E0), tag_num=0x1D)
 55: 0x07C5 [0x52] END_LOAD_SCHEDULER: End scheduler "6001" with entities [LocalPlayer, LocalPlayer], work=463*
 56: 0x07D4 [0x01] GOTO 0x08FA
 57: 0x07D7 [0x02] IF !(ExtData[1]->WorkLocal[1] == 2*) GOTO 0x080F
 58: 0x07DF [0x27] REQ_SET(priority=0x10, entity_id=Moogle (ID: 17776864/0x010F40E0), tag_num=0x0F)
 59: 0x07E6 [0x45] LOAD_SCHEDULED_TASK: Load scheduler "6002" with entities [LocalPlayer, LocalPlayer], work=[463*, 0*]
 60: 0x07F7 [0x1C] WAIT(175* ticks)
 61: 0x07FA [0x1A] CALL_SUBROUTINE(address=0x5E95)
 62: 0x07FD [0x52] END_LOAD_SCHEDULER: End scheduler "6002" with entities [LocalPlayer, LocalPlayer], work=463*
 63: 0x080C [0x01] GOTO 0x08FA
 64: 0x080F [0x02] IF !(ExtData[1]->WorkLocal[1] == 3*) GOTO 0x085D
 65: 0x0817 [0x27] REQ_SET(priority=0x10, entity_id=Moogle (ID: 17776864/0x010F40E0), tag_num=0x10)
 66: 0x081E [0x4E] SET_ENTITY_HIDE_FLAG: Hide Moogle (ID: 17776864/0x010F40E0)
 67: 0x0824 [0x1C] WAIT(60* ticks)
 68: 0x0827 [0x45] LOAD_SCHEDULED_TASK: Load scheduler "6003" with entities [LocalPlayer, LocalPlayer], work=[463*, 0*]
 69: 0x0838 [0x1A] CALL_SUBROUTINE(address=0x5E74)
 70: 0x083B [0x27] REQ_SET(priority=0x10, entity_id=Unnamed NPC (ID: 17776863/0x010F40DF), tag_num=0x28)
 71: 0x0842 [0x1C] WAIT(320* ticks)
 72: 0x0845 [0x1C] WAIT(60* ticks)
 73: 0x0848 [0x1A] CALL_SUBROUTINE(address=0x5E95)
 74: 0x084B [0x52] END_LOAD_SCHEDULER: End scheduler "6003" with entities [LocalPlayer, LocalPlayer], work=463*
 75: 0x085A [0x01] GOTO 0x08FA
 76: 0x085D [0x02] IF !(ExtData[1]->WorkLocal[1] == 4*) GOTO 0x08B9
 77: 0x0865 [0x4E] SET_ENTITY_HIDE_FLAG: Show Moogle (ID: 17776864/0x010F40E0)
 78: 0x086B [0x27] REQ_SET(priority=0x10, entity_id=Moogle (ID: 17776864/0x010F40E0), tag_num=0x11)
 79: 0x0872 [0x1C] WAIT(30* ticks)
 80: 0x0875 [0x45] LOAD_SCHEDULED_TASK: Load scheduler "6004" with entities [LocalPlayer, LocalPlayer], work=[463*, 0*]
 81: 0x0886 [0x1A] CALL_SUBROUTINE(address=0x5E74)
 82: 0x0889 [0x03] Work_Zone[2] = 1137*
 83: 0x088E [0x2B] Moogle (ID: 17776864/0x010F40E0) [12377*]:
    → "There! And sublimely done, if I do say so myself. But no rest for the weary moogle, kupo! To replace these rotting roofboards, we're going to need... Yes, $6 should do the trick."
 84: 0x0895 [0x23] WAIT_FOR_DIALOG_INTERACTION
 85: 0x0896 [0x2B] Moogle (ID: 17776864/0x010F40E0) [12378*]:
    → "You should be able to log it somewhere, I think."
 86: 0x089D [0x23] WAIT_FOR_DIALOG_INTERACTION
 87: 0x089E [0x2A] GET_REQ_LEVEL(level=16, entity_id=Moogle (ID: 17776864/0x010F40E0))
 88: 0x08A4 [0x1C] WAIT(30* ticks)
 89: 0x08A7 [0x52] END_LOAD_SCHEDULER: End scheduler "6004" with entities [LocalPlayer, LocalPlayer], work=463*
 90: 0x08B6 [0x01] GOTO 0x08FA
 91: 0x08B9 [0x02] IF !(ExtData[1]->WorkLocal[1] == 5*) GOTO 0x08FA
 92: 0x08C1 [0x45] LOAD_SCHEDULED_TASK: Load scheduler "6005" with entities [LocalPlayer, LocalPlayer], work=[463*, 0*]
 93: 0x08D2 [0x27] REQ_SET(priority=0x10, entity_id=Moogle (ID: 17776864/0x010F40E0), tag_num=0x1C)
 94: 0x08D9 [0x2B] Moogle (ID: 17776864/0x010F40E0) [12370*]:
    → "While you're out, I'll take up my tools and get cracking. Happy hunting!"
 95: 0x08E0 [0x23] WAIT_FOR_DIALOG_INTERACTION
 96: 0x08E1 [0x27] REQ_SET(priority=0x10, entity_id=Moogle (ID: 17776864/0x010F40E0), tag_num=0x1D)
 97: 0x08E8 [0x52] END_LOAD_SCHEDULER: End scheduler "6005" with entities [LocalPlayer, LocalPlayer], work=463*
 98: 0x08F7 [0x01] GOTO 0x08FA

SUBROUTINE_08FA:
 99: 0x08FA [0x1B] RETURN
```

#### Data or dead code:

```
# Dead code (unreachable instructions):
     0x077C [0x02] IF !(0* == 1*) GOTO 0x0788
     0x0784 [0x48] [System] [12377*]:
    → "There! And sublimely done, if I do say so myself. But no rest for the weary moogle, kupo! To replace these rotting roofboards, we're going to need... Yes, $6 should do the trick."
     0x0787 [0x23] WAIT_FOR_DIALOG_INTERACTION
     0x0788 [0x1B] RETURN
```

### Event 10180

#### Metadata

| Field        | Value      |
|--------------|------------|
| Entrypoint   | 0x08FB     |
| Data Size    | 2161 bytes |
| Instructions | 323        |

```
      00 01 02 03 04 05 06 07  08 09 0A 0B 0C 0D 0E 0F
      -- -- -- -- -- -- -- --  -- -- -- -- -- -- -- --
08F0:                                   42 1A 95 5E 46             B..^F
0900: 01 38 00 80 75 00 01 80  75 01 27 10 F0 FF FF 7F  .8..u...u.'.....
0910: 7D 27 10 DE 40 0F 01 09  27 10 E0 40 0F 01 01 27  }'..@...'..@...'
0920: 10 E3 40 0F 01 01 27 10  E4 40 0F 01 01 27 10 E5  ..@...'..@...'..
0930: 40 0F 01 01 27 10 E6 40  0F 01 01 27 10 E7 40 0F  @...'..@...'..@.
0940: 01 01 27 10 DF 40 0F 01  09 29 10 DE 40 0F 01 0E  ..'..@...)..@...
0950: 29 10 DF 40 0F 01 0D 59  05 DE 40 0F 01 01 59 05  )..@...Y..@...Y.
0960: E3 40 0F 01 01 59 05 E5  40 0F 01 01 BA F0 FF FF  .@...Y..@.......
0970: 7F 3A 80 3B 80 3C 80 05  80 BA DE 40 0F 01 45 80  .:.;.<.....@..E.
0980: 46 80 3C 80 05 80 BA E0  40 0F 01 3D 80 3E 80 3C  F.<.....@..=.>.<
0990: 80 05 80 BA E3 40 0F 01  47 80 48 80 3C 80 05 80  .....@..G.H.<...
09A0: BA E4 40 0F 01 49 80 4A  80 3C 80 05 80 BA E5 40  ..@..I.J.<.....@
09B0: 0F 01 4B 80 4C 80 4D 80  05 80 BA E6 40 0F 01 4B  ..K.L.M.....@..K
09C0: 80 4C 80 3C 80 05 80 BA  E7 40 0F 01 4E 80 4F 80  .L.<.....@..N.O.
09D0: 3C 80 05 80 BA DF 40 0F  01 3D 80 3E 80 3C 80 05  <.....@..=.>.<..
09E0: 80 80 F0 FF FF 7F 80 DE  40 0F 01 80 E0 40 0F 01  ........@....@..
09F0: 80 E3 40 0F 01 80 E4 40  0F 01 80 E5 40 0F 01 80  ..@....@....@...
0A00: E6 40 0F 01 80 E7 40 0F  01 80 DF 40 0F 01 1C 09  .@....@....@....
0A10: 80 4A F0 FF FF 7F E0 40  0F 01 4A E0 40 0F 01 F0  .J.....@..J.@...
0A20: FF FF 7F 6F 76 F0 FF FF  7F 6F 76 E0 40 0F 01 1C  ...ov....ov.@...
0A30: 09 80 7B E0 40 0F 01 27  10 DE 40 0F 01 0B 27 10  ..{.@..'..@...'.
0A40: E3 40 0F 01 03 27 10 E4  40 0F 01 03 27 10 E5 40  .@...'..@...'..@
0A50: 0F 01 03 27 10 E6 40 0F  01 03 27 10 E7 40 0F 01  ...'..@...'..@..
0A60: 03 1C 0A 80 03 02 00 0B  80 02 02 00 50 80 05 57  ............P..W
0A70: 0C 02 05 80 02 00 04 4F  0C 02 02 00 0D 80 80 9A  .......O........
0A80: 0A 1A 74 5E 6E F0 FF FF  7F 05 80 99 F0 FF FF 7F  ..t^n...........
0A90: 27 10 E0 40 0F 01 08 01  4F 0C 02 02 00 0E 80 80  '..@....O.......
0AA0: B3 0A 27 10 E0 40 0F 01  1C 27 10 E0 40 0F 01 1D  ..'..@...'..@...
0AB0: 01 4F 0C 02 02 00 0F 80  80 C8 0A 27 10 E0 40 0F  .O.........'..@.
0AC0: 01 0F 1A 95 5E 01 4F 0C  02 02 00 19 80 80 ED 0A  ....^.O.........
0AD0: 1A 74 5E 27 10 E4 40 0F  01 07 27 10 E3 40 0F 01  .t^'..@...'..@..
0AE0: 06 4A F0 FF FF 7F E5 40  0F 01 01 4F 0C 02 02 00  .J.....@...O....
0AF0: 1E 80 80 06 0B 27 10 E7  40 0F 01 06 27 10 E6 40  .....'..@...'..@
0B00: 0F 01 06 01 4F 0C 02 02  00 30 80 80 2B 0B 27 10  ....O....0..+.'.
0B10: E0 40 0F 01 04 4A F0 FF  FF 7F E0 40 0F 01 27 10  .@...J.....@..'.
0B20: E0 40 0F 01 1E 1A 95 5E  01 4F 0C 02 02 00 1F 80  .@.....^.O......
0B30: 80 47 0B 27 10 E0 40 0F  01 03 1A 74 5E 27 10 E0  .G.'..@....t^'..
0B40: 40 0F 01 11 01 4F 0C 02  02 00 20 80 80 60 0B 27  @....O.... ..`.'
0B50: 10 E0 40 0F 01 1C 27 10  E0 40 0F 01 1D 01 4F 0C  ..@...'..@....O.
0B60: 02 02 00 0C 80 80 7C 0B  79 00 E0 40 0F 01 F0 FF  ......|.y..@....
0B70: FF 7F 27 10 E0 40 0F 01  1A 01 4F 0C 02 02 00 51  ..'..@....O....Q
0B80: 80 80 8E 0B 27 10 E0 40  0F 01 1D 01 4F 0C 02 02  ....'..@....O...
0B90: 00 52 80 80 B3 0B 7B E0  40 0F 01 27 10 E0 40 0F  .R....{.@..'..@.
0BA0: 01 26 27 10 E0 40 0F 01  1A 27 10 E0 40 0F 01 1D  .&'..@...'..@...
0BB0: 01 4F 0C 02 02 00 53 80  80 C8 0B 27 10 E0 40 0F  .O....S....'..@.
0BC0: 01 0F 1A 95 5E 01 4F 0C  02 02 00 54 80 80 D3 0B  ....^.O....T....
0BD0: 01 4F 0C 02 02 00 09 80  80 F2 0B 27 10 E0 40 0F  .O.........'..@.
0BE0: 01 04 27 10 E0 40 0F 01  10 1A 74 5E 1A 95 5E 01  ..'..@....t^..^.
0BF0: 4F 0C 02 02 00 55 80 80  0E 0C 27 10 E0 40 0F 01  O....U....'..@..
0C00: 03 27 10 E0 40 0F 01 11  1A 74 5E 01 4F 0C 02 02  .'..@....t^.O...
0C10: 00 56 80 80 28 0C 79 00  E0 40 0F 01 DE 40 0F 01  .V..(.y..@...@..
0C20: 7B E0 40 0F 01 01 4F 0C  02 02 00 50 80 80 3A 0C  {.@...O....P..:.
0C30: 27 10 E0 40 0F 01 18 01  4F 0C 02 02 00 00 80 80  '..@....O.......
0C40: 4F 0C 27 10 E0 40 0F 01  09 1A 95 5E 01 4F 0C 07  O.'..@.....^.O..
0C50: 02 00 0B 80 01 69 0A 03  02 00 0B 80 02 02 00 50  .....i.........P
0C60: 80 05 77 0C 02 05 80 02  00 05 6F 0C 1A 9C 0C 07  ..w.......o.....
0C70: 02 00 0B 80 01 5C 0C 1C  0A 80 46 00 45 21 80 F0  .....\....F.E!..
0C80: FF FF 7F F0 FF FF 7F 66  64 69 32 05 80 21 00 02  .......fdi2..!..
0C90: 05 80 0B 80 00 9B 0C 48  40 80 23 1B 02 02 00 0B  .......H@.#.....
0CA0: 80 80 E7 0C 45 23 80 F0  FF FF 7F F0 FF FF 7F 37  ....E#.........7
0CB0: 30 30 31 05 80 1A 74 5E  27 10 F0 FF FF 7F 86 1C  001...t^'.......
0CC0: 57 80 1C 09 80 27 10 E0  40 0F 01 08 2A 10 E0 40  W....'..@...*..@
0CD0: 0F 01 1C 0A 80 52 23 80  F0 FF FF 7F F0 FF FF 7F  .....R#.........
0CE0: 37 30 30 31 01 6B 11 02  02 00 0D 80 80 28 0D 45  7001.k.......(.E
0CF0: 23 80 F0 FF FF 7F F0 FF  FF 7F 37 31 30 31 05 80  #.........7101..
0D00: 27 10 E0 40 0F 01 1C 2B  E0 40 0F 01 40 80 23 27  '..@...+.@..@.#'
0D10: 10 E0 40 0F 01 1D 52 23  80 F0 FF FF 7F F0 FF FF  ..@...R#........
0D20: 7F 37 31 30 31 01 6B 11  02 02 00 0E 80 80 60 0D  .7101.k.......`.
0D30: 45 23 80 F0 FF FF 7F F0  FF FF 7F 37 30 30 32 05  E#.........7002.
0D40: 80 27 10 E0 40 0F 01 0F  1C 58 80 1A 95 5E 52 23  .'..@....X...^R#
0D50: 80 F0 FF FF 7F F0 FF FF  7F 37 30 30 32 01 6B 11  .........7002.k.
0D60: 02 02 00 0F 80 80 B8 0D  4B F0 FF FF 7F 05 80 6F  ........K......o
0D70: 76 F0 FF FF 7F 4E 01 E0  40 0F 01 1C 27 80 45 23  v....N..@...'.E#
0D80: 80 F0 FF FF 7F F0 FF FF  7F 37 31 30 33 05 80 1A  .........7103...
0D90: 74 5E 1C 0A 80 27 10 E4  40 0F 01 07 1C 27 80 29  t^...'..@....'.)
0DA0: 10 E3 40 0F 01 06 55 23  80 F0 FF FF 7F F0 FF FF  ..@...U#........
0DB0: 7F 37 31 30 33 01 6B 11  02 02 00 19 80 80 00 0E  .7103.k.........
0DC0: 45 23 80 F0 FF FF 7F F0  FF FF 7F 37 32 30 33 05  E#.........7203.
0DD0: 80 1C 0A 80 27 10 E7 40  0F 01 06 1C 27 80 4A F0  ....'..@....'.J.
0DE0: FF FF 7F E5 40 0F 01 29  10 E6 40 0F 01 06 55 23  ....@..)..@...U#
0DF0: 80 F0 FF FF 7F F0 FF FF  7F 37 32 30 33 01 6B 11  .........7203.k.
0E00: 02 02 00 1E 80 80 4A 0E  1C 0A 80 45 23 80 F0 FF  ......J....E#...
0E10: FF 7F F0 FF FF 7F 37 30  30 33 05 80 1C 27 80 29  ......7003...'.)
0E20: 10 DF 40 0F 01 28 1C 0A  80 4A F0 FF FF 7F E0 40  ..@..(...J.....@
0E30: 0F 01 1C 59 80 1A 95 5E  52 23 80 F0 FF FF 7F F0  ...Y...^R#......
0E40: FF FF 7F 37 30 30 33 01  6B 11 02 02 00 30 80 80  ...7003.k....0..
0E50: 94 0E 4E 00 E0 40 0F 01  1C 0A 80 27 10 E0 40 0F  ..N..@.....'..@.
0E60: 01 11 1C 0A 80 45 23 80  F0 FF FF 7F F0 FF FF 7F  .....E#.........
0E70: 37 30 30 34 05 80 1A 74  5E 2A 10 E0 40 0F 01 1C  7004...t^*..@...
0E80: 0A 80 52 23 80 F0 FF FF  7F F0 FF FF 7F 37 30 30  ..R#.........700
0E90: 34 01 6B 11 02 02 00 1F  80 80 D5 0E 45 23 80 F0  4.k.........E#..
0EA0: FF FF 7F F0 FF FF 7F 37  30 30 35 05 80 27 10 E0  .......7005..'..
0EB0: 40 0F 01 1C 2B E0 40 0F  01 5A 80 23 27 10 E0 40  @...+.@..Z.#'..@
0EC0: 0F 01 1D 52 23 80 F0 FF  FF 7F F0 FF FF 7F 37 30  ...R#.........70
0ED0: 30 35 01 6B 11 02 02 00  20 80 80 31 0F 45 23 80  05.k.... ..1.E#.
0EE0: F0 FF FF 7F F0 FF FF 7F  37 30 30 36 05 80 79 00  ........7006..y.
0EF0: E0 40 0F 01 F0 FF FF 7F  27 10 E0 40 0F 01 1A 2B  .@......'..@...+
0F00: E0 40 0F 01 5B 80 23 2B  E0 40 0F 01 5C 80 23 2A  .@..[.#+.@..\.#*
0F10: 10 E0 40 0F 01 1C 09 80  29 10 E0 40 0F 01 1D 52  ..@.....)..@...R
0F20: 23 80 F0 FF FF 7F F0 FF  FF 7F 37 30 30 36 01 6B  #.........7006.k
0F30: 11 02 02 00 0C 80 80 3C  0F 01 6B 11 02 02 00 51  .......<..k....Q
0F40: 80 80 BB 0F 7B E0 40 0F  01 45 23 80 F0 FF FF 7F  ....{.@..E#.....
0F50: F0 FF FF 7F 37 30 30 38  05 80 1C 0C 80 52 23 80  ....7008.....R#.
0F60: F0 FF FF 7F F0 FF FF 7F  37 30 30 38 27 10 E0 40  ........7008'..@
0F70: 0F 01 32 1C 5D 80 45 23  80 F0 FF FF 7F F0 FF FF  ..2.].E#........
0F80: 7F 37 31 30 38 05 80 1C  0A 80 55 23 80 F0 FF FF  .7108.....U#....
0F90: 7F F0 FF FF 7F 37 31 30  38 2A 10 E0 40 0F 01 1C  .....7108*..@...
0FA0: 09 80 27 10 E0 40 0F 01  1A 2B E0 40 0F 01 5E 80  ..'..@...+.@..^.
0FB0: 23 29 10 E0 40 0F 01 1D  01 6B 11 02 02 00 52 80  #)..@....k....R.
0FC0: 80 F0 0F 45 23 80 F0 FF  FF 7F F0 FF FF 7F 37 30  ...E#.........70
0FD0: 30 39 05 80 29 10 E0 40  0F 01 0F 1A 95 5E 52 23  09..)..@.....^R#
0FE0: 80 F0 FF FF 7F F0 FF FF  7F 37 30 30 39 01 6B 11  .........7009.k.
0FF0: 02 02 00 53 80 80 FB 0F  01 6B 11 02 02 00 54 80  ...S.....k....T.
1000: 80 45 10 27 10 E0 40 0F  01 04 27 10 E0 40 0F 01  .E.'..@...'..@..
1010: 10 1C 0A 80 45 23 80 F0  FF FF 7F F0 FF FF 7F 37  ....E#.........7
1020: 30 30 62 05 80 1A 74 5E  2B E0 40 0F 01 5F 80 23  00b...t^+.@.._.#
1030: 1A 95 5E 52 23 80 F0 FF  FF 7F F0 FF FF 7F 37 30  ..^R#.........70
1040: 30 62 01 6B 11 02 02 00  09 80 80 8D 10 27 10 E0  0b.k.........'..
1050: 40 0F 01 03 27 10 E0 40  0F 01 11 1C 0A 80 45 23  @...'..@......E#
1060: 80 F0 FF FF 7F F0 FF FF  7F 37 30 30 63 05 80 1A  .........700c...
1070: 74 5E 2A 10 E0 40 0F 01  1C 27 80 52 23 80 F0 FF  t^*..@...'.R#...
1080: FF 7F F0 FF FF 7F 37 30  30 63 01 6B 11 02 02 00  ......700c.k....
1090: 55 80 80 E5 10 45 23 80  F0 FF FF 7F F0 FF FF 7F  U....E#.........
10A0: 37 30 30 64 05 80 79 00  E0 40 0F 01 DE 40 0F 01  700d..y..@...@..
10B0: 1C 0A 80 03 02 10 60 80  2B E0 40 0F 01 61 80 23  ......`.+.@..a.#
10C0: 2B E0 40 0F 01 62 80 23  1C 0A 80 7B E0 40 0F 01  +.@..b.#...{.@..
10D0: 1C 0A 80 52 23 80 F0 FF  FF 7F F0 FF FF 7F 37 30  ...R#.........70
10E0: 30 64 01 6B 11 02 02 00  56 80 80 28 11 45 23 80  0d.k....V..(.E#.
10F0: F0 FF FF 7F F0 FF FF 7F  37 30 30 65 05 80 27 10  ........700e..'.
1100: E0 40 0F 01 18 1C 0A 80  2B E0 40 0F 01 63 80 23  .@......+.@..c.#
1110: 2A 10 E0 40 0F 01 52 23  80 F0 FF FF 7F F0 FF FF  *..@..R#........
1120: 7F 37 30 30 65 01 6B 11  02 02 00 50 80 80 6B 11  .700e.k....P..k.
1130: 45 23 80 F0 FF FF 7F F0  FF FF 7F 37 30 30 66 05  E#.........700f.
1140: 80 27 10 E0 40 0F 01 09  2B E0 40 0F 01 64 80 23  .'..@...+.@..d.#
1150: 2A 10 E0 40 0F 01 1A 95  5E 52 23 80 F0 FF FF 7F  *..@....^R#.....
1160: F0 FF FF 7F 37 30 30 66  01 6B 11 1B              ....700f.k..    
```

#### Opcodes

```
  0: 0x08FB [0x42] SET_CLI_EVENT_CANCEL_DATA()
  1: 0x08FC [0x1A] CALL_SUBROUTINE(address=0x5E95)
  2: 0x08FF [0x46] CAMERA_CONTROL: Disable user control
  3: 0x0901 [0x38] SET_CLIENT_EVENT_MODE(mode=19*)
  4: 0x0904 [0x75] LOAD_ROOM(Load indoor room, room=451*)
  5: 0x0908 [0x75] LOAD_ROOM(No action)
  6: 0x090A [0x27] REQ_SET(priority=0x10, entity_id=LocalPlayer, tag_num=0x7D)
  7: 0x0911 [0x27] REQ_SET(priority=0x10, entity_id=??? (ID: 17776862/0x010F40DE), tag_num=0x09)
  8: 0x0918 [0x27] REQ_SET(priority=0x10, entity_id=Moogle (ID: 17776864/0x010F40E0), tag_num=0x01)
  9: 0x091F [0x27] REQ_SET(priority=0x10, entity_id=Goblin Repossessor (ID: 17776867/0x010F40E3), tag_num=0x01)
 10: 0x0926 [0x27] REQ_SET(priority=0x10, entity_id=Goblin Intimidator (ID: 17776868/0x010F40E4), tag_num=0x01)
 11: 0x092D [0x27] REQ_SET(priority=0x10, entity_id=Goblin Enforcer (ID: 17776869/0x010F40E5), tag_num=0x01)
 12: 0x0934 [0x27] REQ_SET(priority=0x10, entity_id=4 (ID: 17776870/0x010F40E6), tag_num=0x01)
 13: 0x093B [0x27] REQ_SET(priority=0x10, entity_id=5 (ID: 17776871/0x010F40E7), tag_num=0x01)
 14: 0x0942 [0x27] REQ_SET(priority=0x10, entity_id=Unnamed NPC (ID: 17776863/0x010F40DF), tag_num=0x09)
 15: 0x0949 [0x29] REQ_SET_WAIT(priority=0x10, entity_id=??? (ID: 17776862/0x010F40DE), tag_num=0x0E)
 16: 0x0950 [0x29] REQ_SET_WAIT(priority=0x10, entity_id=Unnamed NPC (ID: 17776863/0x010F40DF), tag_num=0x0D)
 17: 0x0957 [0x59] UPDATE_ENTITY_DATA: ??? (ID: 17776862/0x010F40DE)->Render.Flags0 |= 0x200000
 18: 0x095E [0x59] UPDATE_ENTITY_DATA: Goblin Repossessor (ID: 17776867/0x010F40E3)->Render.Flags0 |= 0x200000
 19: 0x0965 [0x59] UPDATE_ENTITY_DATA: Goblin Enforcer (ID: 17776869/0x010F40E5)->Render.Flags0 |= 0x200000
 20: 0x096C [0xBA] SET_ENTITY_POSITION(entity_id=LocalPlayer, pos_x=-85.539*, pos_z=78.923*, pos_y=-1.200*, direction=0.0°*)
 21: 0x0979 [0xBA] SET_ENTITY_POSITION(entity_id=??? (ID: 17776862/0x010F40DE), pos_x=-83.634*, pos_z=79.495*, pos_y=-1.200*, direction=0.0°*)
 22: 0x0986 [0xBA] SET_ENTITY_POSITION(entity_id=Moogle (ID: 17776864/0x010F40E0), pos_x=-83.766*, pos_z=80.147*, pos_y=-1.200*, direction=0.0°*)
 23: 0x0993 [0xBA] SET_ENTITY_POSITION(entity_id=Goblin Repossessor (ID: 17776867/0x010F40E3), pos_x=-79.366*, pos_z=72.564*, pos_y=-1.200*, direction=0.0°*)
 24: 0x09A0 [0xBA] SET_ENTITY_POSITION(entity_id=Goblin Intimidator (ID: 17776868/0x010F40E4), pos_x=-79.791*, pos_z=72.309*, pos_y=-1.200*, direction=0.0°*)
 25: 0x09AD [0xBA] SET_ENTITY_POSITION(entity_id=Goblin Enforcer (ID: 17776869/0x010F40E5), pos_x=-85.472*, pos_z=73.812*, pos_y=-5.200*, direction=0.0°*)
 26: 0x09BA [0xBA] SET_ENTITY_POSITION(entity_id=4 (ID: 17776870/0x010F40E6), pos_x=-85.472*, pos_z=73.812*, pos_y=-1.200*, direction=0.0°*)
 27: 0x09C7 [0xBA] SET_ENTITY_POSITION(entity_id=5 (ID: 17776871/0x010F40E7), pos_x=-85.722*, pos_z=74.242*, pos_y=-1.200*, direction=0.0°*)
 28: 0x09D4 [0xBA] SET_ENTITY_POSITION(entity_id=Unnamed NPC (ID: 17776863/0x010F40DF), pos_x=-83.766*, pos_z=80.147*, pos_y=-1.200*, direction=0.0°*)
 29: 0x09E1 [0x80] LOAD_WAIT(entity=LocalPlayer)
 30: 0x09E6 [0x80] LOAD_WAIT(entity=??? (ID: 17776862/0x010F40DE))
 31: 0x09EB [0x80] LOAD_WAIT(entity=Moogle (ID: 17776864/0x010F40E0))
 32: 0x09F0 [0x80] LOAD_WAIT(entity=Goblin Repossessor (ID: 17776867/0x010F40E3))
 33: 0x09F5 [0x80] LOAD_WAIT(entity=Goblin Intimidator (ID: 17776868/0x010F40E4))
 34: 0x09FA [0x80] LOAD_WAIT(entity=Goblin Enforcer (ID: 17776869/0x010F40E5))
 35: 0x09FF [0x80] LOAD_WAIT(entity=4 (ID: 17776870/0x010F40E6))
 36: 0x0A04 [0x80] LOAD_WAIT(entity=5 (ID: 17776871/0x010F40E7))
 37: 0x0A09 [0x80] LOAD_WAIT(entity=Unnamed NPC (ID: 17776863/0x010F40DF))
 38: 0x0A0E [0x1C] WAIT(15* ticks)
 39: 0x0A11 [0x4A] LocalPlayer looks at Moogle (ID: 17776864/0x010F40E0)
 40: 0x0A1A [0x4A] Moogle (ID: 17776864/0x010F40E0) looks at LocalPlayer
 41: 0x0A23 [0x6F] WAIT_FRAME_DELAY: Yield until WaitTime reaches zero
 42: 0x0A24 [0x76] CHECK_ENTITY_RENDER_FLAGS: Wait until LocalPlayer Render.Flags0 and Render.Flags3 conditions are met
 43: 0x0A29 [0x6F] WAIT_FRAME_DELAY: Yield until WaitTime reaches zero
 44: 0x0A2A [0x76] CHECK_ENTITY_RENDER_FLAGS: Wait until Moogle (ID: 17776864/0x010F40E0) Render.Flags0 and Render.Flags3 conditions are met
 45: 0x0A2F [0x1C] WAIT(15* ticks)
 46: 0x0A32 [0x7B] Moogle (ID: 17776864/0x010F40E0) stops talking
 47: 0x0A37 [0x27] REQ_SET(priority=0x10, entity_id=??? (ID: 17776862/0x010F40DE), tag_num=0x0B)
 48: 0x0A3E [0x27] REQ_SET(priority=0x10, entity_id=Goblin Repossessor (ID: 17776867/0x010F40E3), tag_num=0x03)
 49: 0x0A45 [0x27] REQ_SET(priority=0x10, entity_id=Goblin Intimidator (ID: 17776868/0x010F40E4), tag_num=0x03)
 50: 0x0A4C [0x27] REQ_SET(priority=0x10, entity_id=Goblin Enforcer (ID: 17776869/0x010F40E5), tag_num=0x03)
 51: 0x0A53 [0x27] REQ_SET(priority=0x10, entity_id=4 (ID: 17776870/0x010F40E6), tag_num=0x03)
 52: 0x0A5A [0x27] REQ_SET(priority=0x10, entity_id=5 (ID: 17776871/0x010F40E7), tag_num=0x03)
 53: 0x0A61 [0x1C] WAIT(30* ticks)
 54: 0x0A64 [0x03] ExtData[1]->WorkLocal[2] = 1*
 55: 0x0A69 [0x02] IF !(ExtData[1]->WorkLocal[2] > 18*) GOTO 0x0C57
 56: 0x0A71 [0x02] IF !(0* < ExtData[1]->WorkLocal[2]) GOTO 0x0C4F
 57: 0x0A79 [0x02] IF !(ExtData[1]->WorkLocal[2] == 2*) GOTO 0x0A9A
 58: 0x0A81 [0x1A] CALL_SUBROUTINE(address=0x5E74)
 59: 0x0A84 [0x6E] LocalPlayer uses emote 0*
 60: 0x0A8B [0x99] Wait for LocalPlayer animation to complete
 61: 0x0A90 [0x27] REQ_SET(priority=0x10, entity_id=Moogle (ID: 17776864/0x010F40E0), tag_num=0x08)
 62: 0x0A97 [0x01] GOTO 0x0C4F
 63: 0x0A9A [0x02] IF !(ExtData[1]->WorkLocal[2] == 3*) GOTO 0x0AB3
 64: 0x0AA2 [0x27] REQ_SET(priority=0x10, entity_id=Moogle (ID: 17776864/0x010F40E0), tag_num=0x1C)
 65: 0x0AA9 [0x27] REQ_SET(priority=0x10, entity_id=Moogle (ID: 17776864/0x010F40E0), tag_num=0x1D)
 66: 0x0AB0 [0x01] GOTO 0x0C4F
 67: 0x0AB3 [0x02] IF !(ExtData[1]->WorkLocal[2] == 4*) GOTO 0x0AC8
 68: 0x0ABB [0x27] REQ_SET(priority=0x10, entity_id=Moogle (ID: 17776864/0x010F40E0), tag_num=0x0F)
 69: 0x0AC2 [0x1A] CALL_SUBROUTINE(address=0x5E95)
 70: 0x0AC5 [0x01] GOTO 0x0C4F
 71: 0x0AC8 [0x02] IF !(ExtData[1]->WorkLocal[2] == 5*) GOTO 0x0AED
 72: 0x0AD0 [0x1A] CALL_SUBROUTINE(address=0x5E74)
 73: 0x0AD3 [0x27] REQ_SET(priority=0x10, entity_id=Goblin Intimidator (ID: 17776868/0x010F40E4), tag_num=0x07)
 74: 0x0ADA [0x27] REQ_SET(priority=0x10, entity_id=Goblin Repossessor (ID: 17776867/0x010F40E3), tag_num=0x06)
 75: 0x0AE1 [0x4A] LocalPlayer looks at Goblin Enforcer (ID: 17776869/0x010F40E5)
 76: 0x0AEA [0x01] GOTO 0x0C4F
 77: 0x0AED [0x02] IF !(ExtData[1]->WorkLocal[2] == 6*) GOTO 0x0B06
 78: 0x0AF5 [0x27] REQ_SET(priority=0x10, entity_id=5 (ID: 17776871/0x010F40E7), tag_num=0x06)
 79: 0x0AFC [0x27] REQ_SET(priority=0x10, entity_id=4 (ID: 17776870/0x010F40E6), tag_num=0x06)
 80: 0x0B03 [0x01] GOTO 0x0C4F
 81: 0x0B06 [0x02] IF !(ExtData[1]->WorkLocal[2] == 7*) GOTO 0x0B2B
 82: 0x0B0E [0x27] REQ_SET(priority=0x10, entity_id=Moogle (ID: 17776864/0x010F40E0), tag_num=0x04)
 83: 0x0B15 [0x4A] LocalPlayer looks at Moogle (ID: 17776864/0x010F40E0)
 84: 0x0B1E [0x27] REQ_SET(priority=0x10, entity_id=Moogle (ID: 17776864/0x010F40E0), tag_num=0x1E)
 85: 0x0B25 [0x1A] CALL_SUBROUTINE(address=0x5E95)
 86: 0x0B28 [0x01] GOTO 0x0C4F
 87: 0x0B2B [0x02] IF !(ExtData[1]->WorkLocal[2] == 8*) GOTO 0x0B47
 88: 0x0B33 [0x27] REQ_SET(priority=0x10, entity_id=Moogle (ID: 17776864/0x010F40E0), tag_num=0x03)
 89: 0x0B3A [0x1A] CALL_SUBROUTINE(address=0x5E74)
 90: 0x0B3D [0x27] REQ_SET(priority=0x10, entity_id=Moogle (ID: 17776864/0x010F40E0), tag_num=0x11)
 91: 0x0B44 [0x01] GOTO 0x0C4F
 92: 0x0B47 [0x02] IF !(ExtData[1]->WorkLocal[2] == 9*) GOTO 0x0B60
 93: 0x0B4F [0x27] REQ_SET(priority=0x10, entity_id=Moogle (ID: 17776864/0x010F40E0), tag_num=0x1C)
 94: 0x0B56 [0x27] REQ_SET(priority=0x10, entity_id=Moogle (ID: 17776864/0x010F40E0), tag_num=0x1D)
 95: 0x0B5D [0x01] GOTO 0x0C4F
 96: 0x0B60 [0x02] IF !(ExtData[1]->WorkLocal[2] == 10*) GOTO 0x0B7C
 97: 0x0B68 [0x79] Moogle (ID: 17776864/0x010F40E0) looks at LocalPlayer (Basic look)
 98: 0x0B72 [0x27] REQ_SET(priority=0x10, entity_id=Moogle (ID: 17776864/0x010F40E0), tag_num=0x1A)
 99: 0x0B79 [0x01] GOTO 0x0C4F
100: 0x0B7C [0x02] IF !(ExtData[1]->WorkLocal[2] == 11*) GOTO 0x0B8E
101: 0x0B84 [0x27] REQ_SET(priority=0x10, entity_id=Moogle (ID: 17776864/0x010F40E0), tag_num=0x1D)
102: 0x0B8B [0x01] GOTO 0x0C4F
103: 0x0B8E [0x02] IF !(ExtData[1]->WorkLocal[2] == 12*) GOTO 0x0BB3
104: 0x0B96 [0x7B] Moogle (ID: 17776864/0x010F40E0) stops talking
105: 0x0B9B [0x27] REQ_SET(priority=0x10, entity_id=Moogle (ID: 17776864/0x010F40E0), tag_num=0x26)
106: 0x0BA2 [0x27] REQ_SET(priority=0x10, entity_id=Moogle (ID: 17776864/0x010F40E0), tag_num=0x1A)
107: 0x0BA9 [0x27] REQ_SET(priority=0x10, entity_id=Moogle (ID: 17776864/0x010F40E0), tag_num=0x1D)
108: 0x0BB0 [0x01] GOTO 0x0C4F
109: 0x0BB3 [0x02] IF !(ExtData[1]->WorkLocal[2] == 13*) GOTO 0x0BC8
110: 0x0BBB [0x27] REQ_SET(priority=0x10, entity_id=Moogle (ID: 17776864/0x010F40E0), tag_num=0x0F)
111: 0x0BC2 [0x1A] CALL_SUBROUTINE(address=0x5E95)
112: 0x0BC5 [0x01] GOTO 0x0C4F
113: 0x0BC8 [0x02] IF !(ExtData[1]->WorkLocal[2] == 14*) GOTO 0x0BD3
114: 0x0BD0 [0x01] GOTO 0x0C4F
115: 0x0BD3 [0x02] IF !(ExtData[1]->WorkLocal[2] == 15*) GOTO 0x0BF2
116: 0x0BDB [0x27] REQ_SET(priority=0x10, entity_id=Moogle (ID: 17776864/0x010F40E0), tag_num=0x04)
117: 0x0BE2 [0x27] REQ_SET(priority=0x10, entity_id=Moogle (ID: 17776864/0x010F40E0), tag_num=0x10)
118: 0x0BE9 [0x1A] CALL_SUBROUTINE(address=0x5E74)
119: 0x0BEC [0x1A] CALL_SUBROUTINE(address=0x5E95)
120: 0x0BEF [0x01] GOTO 0x0C4F
121: 0x0BF2 [0x02] IF !(ExtData[1]->WorkLocal[2] == 16*) GOTO 0x0C0E
122: 0x0BFA [0x27] REQ_SET(priority=0x10, entity_id=Moogle (ID: 17776864/0x010F40E0), tag_num=0x03)
123: 0x0C01 [0x27] REQ_SET(priority=0x10, entity_id=Moogle (ID: 17776864/0x010F40E0), tag_num=0x11)
124: 0x0C08 [0x1A] CALL_SUBROUTINE(address=0x5E74)
125: 0x0C0B [0x01] GOTO 0x0C4F
126: 0x0C0E [0x02] IF !(ExtData[1]->WorkLocal[2] == 17*) GOTO 0x0C28
127: 0x0C16 [0x79] Moogle (ID: 17776864/0x010F40E0) looks at ??? (ID: 17776862/0x010F40DE) (Basic look)
128: 0x0C20 [0x7B] Moogle (ID: 17776864/0x010F40E0) stops talking
129: 0x0C25 [0x01] GOTO 0x0C4F
130: 0x0C28 [0x02] IF !(ExtData[1]->WorkLocal[2] == 18*) GOTO 0x0C3A
131: 0x0C30 [0x27] REQ_SET(priority=0x10, entity_id=Moogle (ID: 17776864/0x010F40E0), tag_num=0x18)
132: 0x0C37 [0x01] GOTO 0x0C4F
133: 0x0C3A [0x02] IF !(ExtData[1]->WorkLocal[2] == 19*) GOTO 0x0C4F
134: 0x0C42 [0x27] REQ_SET(priority=0x10, entity_id=Moogle (ID: 17776864/0x010F40E0), tag_num=0x09)
135: 0x0C49 [0x1A] CALL_SUBROUTINE(address=0x5E95)
136: 0x0C4C [0x01] GOTO 0x0C4F

SUBROUTINE_0C4F:
137: 0x0C4F [0x07] ExtData[1]->WorkLocal[2] += 1*
138: 0x0C54 [0x01] GOTO 0x0A69
139: 0x0C57 [0x03] ExtData[1]->WorkLocal[2] = 1*

SUBROUTINE_0C5C:
140: 0x0C5C [0x02] IF !(ExtData[1]->WorkLocal[2] > 18*) GOTO 0x0C77
141: 0x0C64 [0x02] IF !(0* > ExtData[1]->WorkLocal[2]) GOTO 0x0C6F
142: 0x0C6C [0x1A] CALL_SUBROUTINE(address=0x0C9C)
143: 0x0C6F [0x07] ExtData[1]->WorkLocal[2] += 1*
144: 0x0C74 [0x01] GOTO 0x0C5C
145: 0x0C77 [0x1C] WAIT(30* ticks)
146: 0x0C7A [0x46] CAMERA_CONTROL: Restore default settings
147: 0x0C7C [0x45] LOAD_SCHEDULED_TASK: Load scheduler "fdi2" with entities [LocalPlayer, LocalPlayer], work=[200*, 0*]
148: 0x0C8D [0x21] END_EVENT
149: 0x0C8E [0x00] END_REQSTACK()

SUBROUTINE_0C9C:
150: 0x0C9C [0x02] IF !(ExtData[1]->WorkLocal[2] == 1*) GOTO 0x0CE7
151: 0x0CA4 [0x45] LOAD_SCHEDULED_TASK: Load scheduler "7001" with entities [LocalPlayer, LocalPlayer], work=[463*, 0*]
152: 0x0CB5 [0x1A] CALL_SUBROUTINE(address=0x5E74)
153: 0x0CB8 [0x27] REQ_SET(priority=0x10, entity_id=LocalPlayer, tag_num=0x86)
154: 0x0CBF [0x1C] WAIT(90* ticks)
155: 0x0CC2 [0x1C] WAIT(15* ticks)
156: 0x0CC5 [0x27] REQ_SET(priority=0x10, entity_id=Moogle (ID: 17776864/0x010F40E0), tag_num=0x08)
157: 0x0CCC [0x2A] GET_REQ_LEVEL(level=16, entity_id=Moogle (ID: 17776864/0x010F40E0))
158: 0x0CD2 [0x1C] WAIT(30* ticks)
159: 0x0CD5 [0x52] END_LOAD_SCHEDULER: End scheduler "7001" with entities [LocalPlayer, LocalPlayer], work=463*
160: 0x0CE4 [0x01] GOTO 0x116B
161: 0x0CE7 [0x02] IF !(ExtData[1]->WorkLocal[2] == 2*) GOTO 0x0D28
162: 0x0CEF [0x45] LOAD_SCHEDULED_TASK: Load scheduler "7101" with entities [LocalPlayer, LocalPlayer], work=[463*, 0*]
163: 0x0D00 [0x27] REQ_SET(priority=0x10, entity_id=Moogle (ID: 17776864/0x010F40E0), tag_num=0x1C)
164: 0x0D07 [0x2B] Moogle (ID: 17776864/0x010F40E0) [12376*]:
    → "Incredible! What speed! What alacrity! I knew I could count on you, kupo! Now all it'll take is a tippity-tap here, a nudgety-nudge there, and..."
165: 0x0D0E [0x23] WAIT_FOR_DIALOG_INTERACTION
166: 0x0D0F [0x27] REQ_SET(priority=0x10, entity_id=Moogle (ID: 17776864/0x010F40E0), tag_num=0x1D)
167: 0x0D16 [0x52] END_LOAD_SCHEDULER: End scheduler "7101" with entities [LocalPlayer, LocalPlayer], work=463*
168: 0x0D25 [0x01] GOTO 0x116B
169: 0x0D28 [0x02] IF !(ExtData[1]->WorkLocal[2] == 3*) GOTO 0x0D60
170: 0x0D30 [0x45] LOAD_SCHEDULED_TASK: Load scheduler "7002" with entities [LocalPlayer, LocalPlayer], work=[463*, 0*]
171: 0x0D41 [0x27] REQ_SET(priority=0x10, entity_id=Moogle (ID: 17776864/0x010F40E0), tag_num=0x0F)
172: 0x0D48 [0x1C] WAIT(160* ticks)
173: 0x0D4B [0x1A] CALL_SUBROUTINE(address=0x5E95)
174: 0x0D4E [0x52] END_LOAD_SCHEDULER: End scheduler "7002" with entities [LocalPlayer, LocalPlayer], work=463*
175: 0x0D5D [0x01] GOTO 0x116B
176: 0x0D60 [0x02] IF !(ExtData[1]->WorkLocal[2] == 4*) GOTO 0x0DB8
177: 0x0D68 [0x4B] UPDATE_ENTITY_YAW(entity=LocalPlayer, yaw=0.0°*)
178: 0x0D6F [0x6F] WAIT_FRAME_DELAY: Yield until WaitTime reaches zero
179: 0x0D70 [0x76] CHECK_ENTITY_RENDER_FLAGS: Wait until LocalPlayer Render.Flags0 and Render.Flags3 conditions are met
180: 0x0D75 [0x4E] SET_ENTITY_HIDE_FLAG: Hide Moogle (ID: 17776864/0x010F40E0)
181: 0x0D7B [0x1C] WAIT(60* ticks)
182: 0x0D7E [0x45] LOAD_SCHEDULED_TASK: Load scheduler "7103" with entities [LocalPlayer, LocalPlayer], work=[463*, 0*]
183: 0x0D8F [0x1A] CALL_SUBROUTINE(address=0x5E74)
184: 0x0D92 [0x1C] WAIT(30* ticks)
185: 0x0D95 [0x27] REQ_SET(priority=0x10, entity_id=Goblin Intimidator (ID: 17776868/0x010F40E4), tag_num=0x07)
186: 0x0D9C [0x1C] WAIT(60* ticks)
187: 0x0D9F [0x29] REQ_SET_WAIT(priority=0x10, entity_id=Goblin Repossessor (ID: 17776867/0x010F40E3), tag_num=0x06)
188: 0x0DA6 [0x55] WAIT_LOAD_SCHEDULER: Wait for scheduler "7103" with entities [LocalPlayer, LocalPlayer], work=463*
189: 0x0DB5 [0x01] GOTO 0x116B
190: 0x0DB8 [0x02] IF !(ExtData[1]->WorkLocal[2] == 5*) GOTO 0x0E00
191: 0x0DC0 [0x45] LOAD_SCHEDULED_TASK: Load scheduler "7203" with entities [LocalPlayer, LocalPlayer], work=[463*, 0*]
192: 0x0DD1 [0x1C] WAIT(30* ticks)
193: 0x0DD4 [0x27] REQ_SET(priority=0x10, entity_id=5 (ID: 17776871/0x010F40E7), tag_num=0x06)
194: 0x0DDB [0x1C] WAIT(60* ticks)
195: 0x0DDE [0x4A] LocalPlayer looks at Goblin Enforcer (ID: 17776869/0x010F40E5)
196: 0x0DE7 [0x29] REQ_SET_WAIT(priority=0x10, entity_id=4 (ID: 17776870/0x010F40E6), tag_num=0x06)
197: 0x0DEE [0x55] WAIT_LOAD_SCHEDULER: Wait for scheduler "7203" with entities [LocalPlayer, LocalPlayer], work=463*
198: 0x0DFD [0x01] GOTO 0x116B
199: 0x0E00 [0x02] IF !(ExtData[1]->WorkLocal[2] == 6*) GOTO 0x0E4A
200: 0x0E08 [0x1C] WAIT(30* ticks)
201: 0x0E0B [0x45] LOAD_SCHEDULED_TASK: Load scheduler "7003" with entities [LocalPlayer, LocalPlayer], work=[463*, 0*]
202: 0x0E1C [0x1C] WAIT(60* ticks)
203: 0x0E1F [0x29] REQ_SET_WAIT(priority=0x10, entity_id=Unnamed NPC (ID: 17776863/0x010F40DF), tag_num=0x28)
204: 0x0E26 [0x1C] WAIT(30* ticks)
205: 0x0E29 [0x4A] LocalPlayer looks at Moogle (ID: 17776864/0x010F40E0)
206: 0x0E32 [0x1C] WAIT(300* ticks)
207: 0x0E35 [0x1A] CALL_SUBROUTINE(address=0x5E95)
208: 0x0E38 [0x52] END_LOAD_SCHEDULER: End scheduler "7003" with entities [LocalPlayer, LocalPlayer], work=463*
209: 0x0E47 [0x01] GOTO 0x116B
210: 0x0E4A [0x02] IF !(ExtData[1]->WorkLocal[2] == 7*) GOTO 0x0E94
211: 0x0E52 [0x4E] SET_ENTITY_HIDE_FLAG: Show Moogle (ID: 17776864/0x010F40E0)
212: 0x0E58 [0x1C] WAIT(30* ticks)
213: 0x0E5B [0x27] REQ_SET(priority=0x10, entity_id=Moogle (ID: 17776864/0x010F40E0), tag_num=0x11)
214: 0x0E62 [0x1C] WAIT(30* ticks)
215: 0x0E65 [0x45] LOAD_SCHEDULED_TASK: Load scheduler "7004" with entities [LocalPlayer, LocalPlayer], work=[463*, 0*]
216: 0x0E76 [0x1A] CALL_SUBROUTINE(address=0x5E74)
217: 0x0E79 [0x2A] GET_REQ_LEVEL(level=16, entity_id=Moogle (ID: 17776864/0x010F40E0))
218: 0x0E7F [0x1C] WAIT(30* ticks)
219: 0x0E82 [0x52] END_LOAD_SCHEDULER: End scheduler "7004" with entities [LocalPlayer, LocalPlayer], work=463*
220: 0x0E91 [0x01] GOTO 0x116B
221: 0x0E94 [0x02] IF !(ExtData[1]->WorkLocal[2] == 8*) GOTO 0x0ED5
222: 0x0E9C [0x45] LOAD_SCHEDULED_TASK: Load scheduler "7005" with entities [LocalPlayer, LocalPlayer], work=[463*, 0*]
223: 0x0EAD [0x27] REQ_SET(priority=0x10, entity_id=Moogle (ID: 17776864/0x010F40E0), tag_num=0x1C)
224: 0x0EB4 [0x2B] Moogle (ID: 17776864/0x010F40E0) [12379*]:
    → "Phew! That'll do it. Truly, I'm shocked--stupefied, even--that our union-run Mog Houses are in a state of such disrepair! Something must be done...and soon, kupo!"
225: 0x0EBB [0x23] WAIT_FOR_DIALOG_INTERACTION
226: 0x0EBC [0x27] REQ_SET(priority=0x10, entity_id=Moogle (ID: 17776864/0x010F40E0), tag_num=0x1D)
227: 0x0EC3 [0x52] END_LOAD_SCHEDULER: End scheduler "7005" with entities [LocalPlayer, LocalPlayer], work=463*
228: 0x0ED2 [0x01] GOTO 0x116B
229: 0x0ED5 [0x02] IF !(ExtData[1]->WorkLocal[2] == 9*) GOTO 0x0F31
230: 0x0EDD [0x45] LOAD_SCHEDULED_TASK: Load scheduler "7006" with entities [LocalPlayer, LocalPlayer], work=[463*, 0*]
231: 0x0EEE [0x79] Moogle (ID: 17776864/0x010F40E0) looks at LocalPlayer (Basic look)
232: 0x0EF8 [0x27] REQ_SET(priority=0x10, entity_id=Moogle (ID: 17776864/0x010F40E0), tag_num=0x1A)
233: 0x0EFF [0x2B] Moogle (ID: 17776864/0x010F40E0) [12380*]:
    → "I know! I'll talk to Dom Kupeliaure!"
234: 0x0F06 [0x23] WAIT_FOR_DIALOG_INTERACTION
235: 0x0F07 [0x2B] Moogle (ID: 17776864/0x010F40E0) [12381*]:
    → "Knowing him, he'll fix these right up into lavish three-bedroom suites fit for King Kupofried himself! That's just the magnanimous moogle he is, kupo."
236: 0x0F0E [0x23] WAIT_FOR_DIALOG_INTERACTION
237: 0x0F0F [0x2A] GET_REQ_LEVEL(level=16, entity_id=Moogle (ID: 17776864/0x010F40E0))
238: 0x0F15 [0x1C] WAIT(15* ticks)
239: 0x0F18 [0x29] REQ_SET_WAIT(priority=0x10, entity_id=Moogle (ID: 17776864/0x010F40E0), tag_num=0x1D)
240: 0x0F1F [0x52] END_LOAD_SCHEDULER: End scheduler "7006" with entities [LocalPlayer, LocalPlayer], work=463*
241: 0x0F2E [0x01] GOTO 0x116B
242: 0x0F31 [0x02] IF !(ExtData[1]->WorkLocal[2] == 10*) GOTO 0x0F3C
243: 0x0F39 [0x01] GOTO 0x116B
244: 0x0F3C [0x02] IF !(ExtData[1]->WorkLocal[2] == 11*) GOTO 0x0FBB
245: 0x0F44 [0x7B] Moogle (ID: 17776864/0x010F40E0) stops talking
246: 0x0F49 [0x45] LOAD_SCHEDULED_TASK: Load scheduler "7008" with entities [LocalPlayer, LocalPlayer], work=[463*, 0*]
247: 0x0F5A [0x1C] WAIT(10* ticks)
248: 0x0F5D [0x52] END_LOAD_SCHEDULER: End scheduler "7008" with entities [LocalPlayer, LocalPlayer], work=463*
249: 0x0F6C [0x27] REQ_SET(priority=0x10, entity_id=Moogle (ID: 17776864/0x010F40E0), tag_num=0x32)
250: 0x0F73 [0x1C] WAIT(57* ticks)
251: 0x0F76 [0x45] LOAD_SCHEDULED_TASK: Load scheduler "7108" with entities [LocalPlayer, LocalPlayer], work=[463*, 0*]
252: 0x0F87 [0x1C] WAIT(30* ticks)
253: 0x0F8A [0x55] WAIT_LOAD_SCHEDULER: Wait for scheduler "7108" with entities [LocalPlayer, LocalPlayer], work=463*
254: 0x0F99 [0x2A] GET_REQ_LEVEL(level=16, entity_id=Moogle (ID: 17776864/0x010F40E0))
255: 0x0F9F [0x1C] WAIT(15* ticks)
256: 0x0FA2 [0x27] REQ_SET(priority=0x10, entity_id=Moogle (ID: 17776864/0x010F40E0), tag_num=0x1A)
257: 0x0FA9 [0x2B] Moogle (ID: 17776864/0x010F40E0) [12383*]:
    → "As for the pressing repairs at hand..."
258: 0x0FB0 [0x23] WAIT_FOR_DIALOG_INTERACTION
259: 0x0FB1 [0x29] REQ_SET_WAIT(priority=0x10, entity_id=Moogle (ID: 17776864/0x010F40E0), tag_num=0x1D)
260: 0x0FB8 [0x01] GOTO 0x116B
261: 0x0FBB [0x02] IF !(ExtData[1]->WorkLocal[2] == 12*) GOTO 0x0FF0
262: 0x0FC3 [0x45] LOAD_SCHEDULED_TASK: Load scheduler "7009" with entities [LocalPlayer, LocalPlayer], work=[463*, 0*]
263: 0x0FD4 [0x29] REQ_SET_WAIT(priority=0x10, entity_id=Moogle (ID: 17776864/0x010F40E0), tag_num=0x0F)
264: 0x0FDB [0x1A] CALL_SUBROUTINE(address=0x5E95)
265: 0x0FDE [0x52] END_LOAD_SCHEDULER: End scheduler "7009" with entities [LocalPlayer, LocalPlayer], work=463*
266: 0x0FED [0x01] GOTO 0x116B
267: 0x0FF0 [0x02] IF !(ExtData[1]->WorkLocal[2] == 13*) GOTO 0x0FFB
268: 0x0FF8 [0x01] GOTO 0x116B
269: 0x0FFB [0x02] IF !(ExtData[1]->WorkLocal[2] == 14*) GOTO 0x1045
270: 0x1003 [0x27] REQ_SET(priority=0x10, entity_id=Moogle (ID: 17776864/0x010F40E0), tag_num=0x04)
271: 0x100A [0x27] REQ_SET(priority=0x10, entity_id=Moogle (ID: 17776864/0x010F40E0), tag_num=0x10)
272: 0x1011 [0x1C] WAIT(30* ticks)
273: 0x1014 [0x45] LOAD_SCHEDULED_TASK: Load scheduler "700b" with entities [LocalPlayer, LocalPlayer], work=[463*, 0*]
274: 0x1025 [0x1A] CALL_SUBROUTINE(address=0x5E74)
275: 0x1028 [0x2B] Moogle (ID: 17776864/0x010F40E0) [12384*]:
    → "Yes, yes... Why, it looks as if we're just about--"
276: 0x102F [0x23] WAIT_FOR_DIALOG_INTERACTION
277: 0x1030 [0x1A] CALL_SUBROUTINE(address=0x5E95)
278: 0x1033 [0x52] END_LOAD_SCHEDULER: End scheduler "700b" with entities [LocalPlayer, LocalPlayer], work=463*
279: 0x1042 [0x01] GOTO 0x116B
280: 0x1045 [0x02] IF !(ExtData[1]->WorkLocal[2] == 15*) GOTO 0x108D
281: 0x104D [0x27] REQ_SET(priority=0x10, entity_id=Moogle (ID: 17776864/0x010F40E0), tag_num=0x03)
282: 0x1054 [0x27] REQ_SET(priority=0x10, entity_id=Moogle (ID: 17776864/0x010F40E0), tag_num=0x11)
283: 0x105B [0x1C] WAIT(30* ticks)
284: 0x105E [0x45] LOAD_SCHEDULED_TASK: Load scheduler "700c" with entities [LocalPlayer, LocalPlayer], work=[463*, 0*]
285: 0x106F [0x1A] CALL_SUBROUTINE(address=0x5E74)
286: 0x1072 [0x2A] GET_REQ_LEVEL(level=16, entity_id=Moogle (ID: 17776864/0x010F40E0))
287: 0x1078 [0x1C] WAIT(60* ticks)
288: 0x107B [0x52] END_LOAD_SCHEDULER: End scheduler "700c" with entities [LocalPlayer, LocalPlayer], work=463*
289: 0x108A [0x01] GOTO 0x116B
290: 0x108D [0x02] IF !(ExtData[1]->WorkLocal[2] == 16*) GOTO 0x10E5
291: 0x1095 [0x45] LOAD_SCHEDULED_TASK: Load scheduler "700d" with entities [LocalPlayer, LocalPlayer], work=[463*, 0*]
292: 0x10A6 [0x79] Moogle (ID: 17776864/0x010F40E0) looks at ??? (ID: 17776862/0x010F40DE) (Basic look)
293: 0x10B0 [0x1C] WAIT(30* ticks)
294: 0x10B3 [0x03] Work_Zone[2] = 1138*
295: 0x10B8 [0x2B] Moogle (ID: 17776864/0x010F40E0) [12385*]:
    → "Er--wait one minute. Yes, I...ah...almost forgot. One last piece of material to put on the critical coup-de-grace! A...$3, kupo."
296: 0x10BF [0x23] WAIT_FOR_DIALOG_INTERACTION
297: 0x10C0 [0x2B] Moogle (ID: 17776864/0x010F40E0) [12386*]:
    → "Don't worry. Preoccupied predators are leaving their hard-earned catches all over the place these days. Succulent slabs of meat are literally lying around waiting to be harvested by a keen-eyed adventurer like yourself!"
298: 0x10C7 [0x23] WAIT_FOR_DIALOG_INTERACTION
299: 0x10C8 [0x1C] WAIT(30* ticks)
300: 0x10CB [0x7B] Moogle (ID: 17776864/0x010F40E0) stops talking
301: 0x10D0 [0x1C] WAIT(30* ticks)
302: 0x10D3 [0x52] END_LOAD_SCHEDULER: End scheduler "700d" with entities [LocalPlayer, LocalPlayer], work=463*
303: 0x10E2 [0x01] GOTO 0x116B
304: 0x10E5 [0x02] IF !(ExtData[1]->WorkLocal[2] == 17*) GOTO 0x1128
305: 0x10ED [0x45] LOAD_SCHEDULED_TASK: Load scheduler "700e" with entities [LocalPlayer, LocalPlayer], work=[463*, 0*]
306: 0x10FE [0x27] REQ_SET(priority=0x10, entity_id=Moogle (ID: 17776864/0x010F40E0), tag_num=0x18)
307: 0x1105 [0x1C] WAIT(30* ticks)
308: 0x1108 [0x2B] Moogle (ID: 17776864/0x010F40E0) [12387*]:
    → "What's that, Master? Why, of course it's required for the repairs! Whatever are you insinuating, kupo!?"
309: 0x110F [0x23] WAIT_FOR_DIALOG_INTERACTION
310: 0x1110 [0x2A] GET_REQ_LEVEL(level=16, entity_id=Moogle (ID: 17776864/0x010F40E0))
311: 0x1116 [0x52] END_LOAD_SCHEDULER: End scheduler "700e" with entities [LocalPlayer, LocalPlayer], work=463*
312: 0x1125 [0x01] GOTO 0x116B
313: 0x1128 [0x02] IF !(ExtData[1]->WorkLocal[2] == 18*) GOTO 0x116B
314: 0x1130 [0x45] LOAD_SCHEDULED_TASK: Load scheduler "700f" with entities [LocalPlayer, LocalPlayer], work=[463*, 0*]
315: 0x1141 [0x27] REQ_SET(priority=0x10, entity_id=Moogle (ID: 17776864/0x010F40E0), tag_num=0x09)
316: 0x1148 [0x2B] Moogle (ID: 17776864/0x010F40E0) [12388*]:
    → "I wouldn't dream of roasting it medium-rare, glazed with a delectable dragon-fruit-and-rolanberry sauce, and serving it on a romantic candlelit dinner date with my darling Kupiruru! That's the furthest thing from my innocent moogle mind! Please, Master! You're the only one who can save my romantic prospects--I mean, this dilapidated dwelling, kupo!"
317: 0x114F [0x23] WAIT_FOR_DIALOG_INTERACTION
318: 0x1150 [0x2A] GET_REQ_LEVEL(level=16, entity_id=Moogle (ID: 17776864/0x010F40E0))
319: 0x1156 [0x1A] CALL_SUBROUTINE(address=0x5E95)
320: 0x1159 [0x52] END_LOAD_SCHEDULER: End scheduler "700f" with entities [LocalPlayer, LocalPlayer], work=463*
321: 0x1168 [0x01] GOTO 0x116B

SUBROUTINE_116B:
322: 0x116B [0x1B] RETURN
```

#### Data or dead code:

```
# Dead code (unreachable instructions):
     0x0C8F [0x02] IF !(0* == 1*) GOTO 0x0C9B
     0x0C97 [0x48] [System] [12376*]:
    → "Incredible! What speed! What alacrity! I knew I could count on you, kupo! Now all it'll take is a tippity-tap here, a nudgety-nudge there, and..."
     0x0C9A [0x23] WAIT_FOR_DIALOG_INTERACTION
     0x0C9B [0x1B] RETURN
```

### Event 10181

#### Metadata

| Field        | Value      |
|--------------|------------|
| Entrypoint   | 0x116C     |
| Data Size    | 4396 bytes |
| Instructions | 641        |

```
      00 01 02 03 04 05 06 07  08 09 0A 0B 0C 0D 0E 0F
      -- -- -- -- -- -- -- --  -- -- -- -- -- -- -- --
1160:                                      42 1A 95 5E              B..^
1170: 46 01 38 00 80 75 00 01  80 75 01 27 10 F0 FF FF  F.8..u...u.'....
1180: 7F 7D 27 10 E0 40 0F 01  01 27 10 DE 40 0F 01 09  .}'..@...'..@...
1190: 27 10 DF 40 0F 01 09 27  10 E3 40 0F 01 01 27 10  '..@...'..@...'.
11A0: DE 40 0F 01 0D 27 10 DF  40 0F 01 0A 27 10 E3 40  .@...'..@...'..@
11B0: 0F 01 04 27 10 E4 40 0F  01 01 59 05 DE 40 0F 01  ...'..@...Y..@..
11C0: 01 BA F0 FF FF 7F 65 80  66 80 3C 80 05 80 BA E0  ......e.f.<.....
11D0: 40 0F 01 3D 80 3E 80 3C  80 05 80 BA DE 40 0F 01  @..=.>.<.....@..
11E0: 3D 80 3E 80 67 80 05 80  BA DF 40 0F 01 3D 80 3E  =.>.g.....@..=.>
11F0: 80 3C 80 05 80 BA E3 40  0F 01 68 80 69 80 3C 80  .<.....@..h.i.<.
1200: 05 80 BA E4 40 0F 01 3D  80 3E 80 3C 80 05 80 80  ....@..=.>.<....
1210: F0 FF FF 7F 80 E0 40 0F  01 80 DE 40 0F 01 80 DF  ......@....@....
1220: 40 0F 01 80 E3 40 0F 01  80 E4 40 0F 01 1C 09 80  @....@....@.....
1230: 4A F0 FF FF 7F E0 40 0F  01 4A E0 40 0F 01 F0 FF  J.....@..J.@....
1240: FF 7F 4A DF 40 0F 01 F0  FF FF 7F 4A E3 40 0F 01  ..J.@......J.@..
1250: F0 FF FF 7F 4B DE 40 0F  01 18 80 6F 76 F0 FF FF  ....K.@....ov...
1260: 7F 6F 76 E0 40 0F 01 6F  76 DE 40 0F 01 6F 76 DF  .ov.@..ov.@..ov.
1270: 40 0F 01 6F 76 E3 40 0F  01 1C 09 80 7B DE 40 0F  @..ov.@.....{.@.
1280: 01 7B DF 40 0F 01 7B E3  40 0F 01 27 10 DE 40 0F  .{.@..{.@..'..@.
1290: 01 0B 27 10 DF 40 0F 01  0C 27 10 DE 40 0F 01 0F  ..'..@...'..@...
12A0: 27 10 DF 40 0F 01 0F 1C  0A 80 03 03 00 0B 80 02  '..@............
12B0: 03 00 6A 80 05 79 16 02  05 80 03 00 04 71 16 02  ..j..y.......q..
12C0: 03 00 0D 80 80 EE 12 1A  74 5E 6E F0 FF FF 7F 05  ........t^n.....
12D0: 80 99 F0 FF FF 7F 27 10  E0 40 0F 01 08 27 10 E0  ......'..@...'..
12E0: 40 0F 01 1C 27 10 E0 40  0F 01 1D 01 71 16 02 03  @...'..@....q...
12F0: 00 0E 80 80 08 13 7B E0  40 0F 01 27 10 E0 40 0F  ......{.@..'..@.
1300: 01 0F 1A 95 5E 01 71 16  02 03 00 0F 80 80 1D 13  ....^.q.........
1310: 1A 74 5E 27 10 E0 40 0F  01 1E 01 71 16 02 03 00  .t^'..@....q....
1320: 19 80 80 32 13 27 10 E0  40 0F 01 10 1A 95 5E 01  ...2.'..@.....^.
1330: 71 16 02 03 00 1E 80 80  47 13 27 10 E0 40 0F 01  q.......G.'..@..
1340: 11 1A 74 5E 01 71 16 02  03 00 30 80 80 60 13 27  ..t^.q....0..`.'
1350: 10 E0 40 0F 01 1C 27 10  E0 40 0F 01 1D 01 71 16  ..@...'..@....q.
1360: 02 03 00 1F 80 80 83 13  27 10 DE 40 0F 01 10 27  ........'..@...'
1370: 10 E0 40 0F 01 1F 79 00  F0 FF FF 7F DE 40 0F 01  ..@...y......@..
1380: 01 71 16 02 03 00 20 80  80 B6 13 7B E0 40 0F 01  .q.... ....{.@..
1390: 27 10 E0 40 0F 01 20 27  10 DE 40 0F 01 11 27 10  '..@.. '..@...'.
13A0: DF 40 0F 01 0B 27 10 DF  40 0F 01 10 27 10 E0 40  .@...'..@...'..@
13B0: 0F 01 2B 01 71 16 02 03  00 0C 80 80 C1 13 01 71  ..+.q..........q
13C0: 16 02 03 00 51 80 80 DA  13 27 10 DF 40 0F 01 12  ....Q....'..@...
13D0: 27 10 E0 40 0F 01 34 01  71 16 02 03 00 52 80 80  '..@..4.q....R..
