# 17776705 - Prishe

## Common Data

| Field            | Value                 |
|------------------|-----------------------|
| Zone             | Upper Jeuno (ID: 244) |
| Block Size       | 248 bytes             |
| Total Events     | 7                     |
| References Count | 5                     |

## List of Events

| Event ID                 | Entrypoint   |   Size |   Instructions |
|--------------------------|--------------|--------|----------------|
| [65535](#event-65535)    | 0x0000       |     13 |              3 |
| [82](#event-82)          | 0x000D       |      3 |              2 |
| [65535.1](#event-655351) | 0x0010       |     49 |              6 |
| [65535.2](#event-655352) | 0x0041       |     29 |              3 |
| [65535.3](#event-655353) | 0x005E       |     29 |              3 |
| [65535.4](#event-655354) | 0x007B       |     29 |              3 |
| [65535.5](#event-655355) | 0x0098       |     29 |              3 |

## DAT References (imed_data)

|   Index | Hex Value   |   Dec Value |
|---------|-------------|-------------|
|       0 | 0xFFFF3826  |  4294916134 |
|       1 | 0xFFFFE050  |  4294959184 |
|       2 | 0xFFFFFAE1  |  4294965985 |
|       3 | 0x0A84      |        2692 |
|       4 | 0x01DC      |         476 |

## Events

### Event 65535

#### Metadata

| Field        | Value    |
|--------------|----------|
| Entrypoint   | 0x0000   |
| Data Size    | 13 bytes |
| Instructions | 3        |

```
      00 01 02 03 04 05 06 07  08 09 0A 0B 0C 0D 0E 0F
      -- -- -- -- -- -- -- --  -- -- -- -- -- -- -- --
0000: 92 01 F8 FF FF 7F 94 01  F8 FF FF 7F 00           .............   
```

#### Opcodes

```
  0: 0x0000 [0x92] EventEntity->Render.Flags3 ^= 0x01
  1: 0x0006 [0x94] EventEntity->Render.Flags3 ^= 0x01
  2: 0x000C [0x00] END_REQSTACK()
```

### Event 82

#### Metadata

| Field        | Value   |
|--------------|---------|
| Entrypoint   | 0x000D  |
| Data Size    | 3 bytes |
| Instructions | 2       |

```
      00 01 02 03 04 05 06 07  08 09 0A 0B 0C 0D 0E 0F
      -- -- -- -- -- -- -- --  -- -- -- -- -- -- -- --
0000:                                         A4 01 00               ...
```

#### Opcodes

```
  0: 0x000D [0xA4] EventEntity->Flags3.unknown_3_2 = 1
  1: 0x000F [0x00] END_REQSTACK()
```

### Event 65535.1

#### Metadata

| Field        | Value    |
|--------------|----------|
| Entrypoint   | 0x0010   |
| Data Size    | 49 bytes |
| Instructions | 6        |

```
      00 01 02 03 04 05 06 07  08 09 0A 0B 0C 0D 0E 0F
      -- -- -- -- -- -- -- --  -- -- -- -- -- -- -- --
0010: 37 00 80 01 80 02 80 03  80 80 F8 FF FF 7F 81 00  7...............
0020: F8 FF FF 7F 5B 04 80 F8  FF FF 7F F8 FF FF 7F 6E  ....[..........n
0030: 6D 61 30 53 F8 FF FF 7F  F8 FF FF 7F 6E 6D 61 30  ma0S........nma0
0040: 00                                                .               
```

#### Opcodes

```
  0: 0x0010 [0x37] UPDATE_EVENT_POSITION_AND_DIR: x=-51.162*, z=-8.112*, y=-1.311*, direction=236.6°*
  1: 0x0019 [0x80] LOAD_WAIT(entity=EventEntity)
  2: 0x001E [0x81] SET_ENTITY_BLINKING(blink_flag=0x00, entity=EventEntity)
  3: 0x0024 [0x5B] LOAD_EXT_SCHEDULER: Load scheduler "nma0" with entities [EventEntity, EventEntity], work=476*
  4: 0x0033 [0x53] WAIT_SCHEDULER_TASK: Wait for scheduler "nma0" with entities [EventEntity, EventEntity]
  5: 0x0040 [0x00] END_REQSTACK()
```

### Event 65535.2

#### Metadata

| Field        | Value    |
|--------------|----------|
| Entrypoint   | 0x0041   |
| Data Size    | 29 bytes |
| Instructions | 3        |

```
      00 01 02 03 04 05 06 07  08 09 0A 0B 0C 0D 0E 0F
      -- -- -- -- -- -- -- --  -- -- -- -- -- -- -- --
0040:    5B 04 80 F8 FF FF 7F  F8 FF FF 7F 6E 6D 62 30   [..........nmb0
0050: 53 F8 FF FF 7F F8 FF FF  7F 6E 6D 62 30 00        S........nmb0.  
```

#### Opcodes

```
  0: 0x0041 [0x5B] LOAD_EXT_SCHEDULER: Load scheduler "nmb0" with entities [EventEntity, EventEntity], work=476*
  1: 0x0050 [0x53] WAIT_SCHEDULER_TASK: Wait for scheduler "nmb0" with entities [EventEntity, EventEntity]
  2: 0x005D [0x00] END_REQSTACK()
```

### Event 65535.3

#### Metadata

| Field        | Value    |
|--------------|----------|
| Entrypoint   | 0x005E   |
| Data Size    | 29 bytes |
| Instructions | 3        |

```
      00 01 02 03 04 05 06 07  08 09 0A 0B 0C 0D 0E 0F
      -- -- -- -- -- -- -- --  -- -- -- -- -- -- -- --
0050:                                            5B 04                [.
0060: 80 F8 FF FF 7F F8 FF FF  7F 6E 6D 63 30 53 F8 FF  .........nmc0S..
0070: FF 7F F8 FF FF 7F 6E 6D  63 30 00                 ......nmc0.     
```

#### Opcodes

```
  0: 0x005E [0x5B] LOAD_EXT_SCHEDULER: Load scheduler "nmc0" with entities [EventEntity, EventEntity], work=476*
  1: 0x006D [0x53] WAIT_SCHEDULER_TASK: Wait for scheduler "nmc0" with entities [EventEntity, EventEntity]
  2: 0x007A [0x00] END_REQSTACK()
```

### Event 65535.4

#### Metadata

| Field        | Value    |
|--------------|----------|
| Entrypoint   | 0x007B   |
| Data Size    | 29 bytes |
| Instructions | 3        |

```
      00 01 02 03 04 05 06 07  08 09 0A 0B 0C 0D 0E 0F
      -- -- -- -- -- -- -- --  -- -- -- -- -- -- -- --
0070:                                   5B 04 80 F8 FF             [....
0080: FF 7F F8 FF FF 7F 6E 6D  64 30 53 F8 FF FF 7F F8  ......nmd0S.....
0090: FF FF 7F 6E 6D 64 30 00                           ...nmd0.        
```

#### Opcodes

```
  0: 0x007B [0x5B] LOAD_EXT_SCHEDULER: Load scheduler "nmd0" with entities [EventEntity, EventEntity], work=476*
  1: 0x008A [0x53] WAIT_SCHEDULER_TASK: Wait for scheduler "nmd0" with entities [EventEntity, EventEntity]
  2: 0x0097 [0x00] END_REQSTACK()
```

### Event 65535.5

#### Metadata

| Field        | Value    |
|--------------|----------|
| Entrypoint   | 0x0098   |
| Data Size    | 29 bytes |
| Instructions | 3        |

```
      00 01 02 03 04 05 06 07  08 09 0A 0B 0C 0D 0E 0F
      -- -- -- -- -- -- -- --  -- -- -- -- -- -- -- --
0090:                          5B 04 80 F8 FF FF 7F F8          [.......
00A0: FF FF 7F 6E 6D 65 30 53  F8 FF FF 7F F8 FF FF 7F  ...nme0S........
00B0: 6E 6D 65 30 00                                    nme0.           
```

#### Opcodes

```
  0: 0x0098 [0x5B] LOAD_EXT_SCHEDULER: Load scheduler "nme0" with entities [EventEntity, EventEntity], work=476*
  1: 0x00A7 [0x53] WAIT_SCHEDULER_TASK: Wait for scheduler "nme0" with entities [EventEntity, EventEntity]
  2: 0x00B4 [0x00] END_REQSTACK()
```
