# 17776864 - Moogle

## Common Data

| Field            | Value                 |
|------------------|-----------------------|
| Zone             | Upper Jeuno (ID: 244) |
| Block Size       | 1852 bytes            |
| Total Events     | 83                    |
| References Count | 56                    |

## List of Events

| Event ID                   | Entrypoint   |   Size |   Instructions |
|----------------------------|--------------|--------|----------------|
| [65535](#event-65535)      | 0x0000       |      1 |              1 |
| [65535.1](#event-655351)   | 0x0001       |     22 |              6 |
| [65535.2](#event-655352)   | 0x0017       |      2 |              2 |
| [65535.3](#event-655353)   | 0x0019       |     10 |              2 |
| [65535.4](#event-655354)   | 0x0023       |     10 |              2 |
| [65535.5](#event-655355)   | 0x002D       |      3 |              2 |
| [65535.6](#event-655356)   | 0x0030       |      3 |              2 |
| [65535.7](#event-655357)   | 0x0033       |     16 |              2 |
| [65535.8](#event-655358)   | 0x0043       |     37 |              5 |
| [65535.9](#event-655359)   | 0x0068       |     19 |              3 |
| [65535.10](#event-6553510) | 0x007B       |     19 |              3 |
| [65535.11](#event-6553511) | 0x008E       |     19 |              3 |
| [65535.12](#event-6553512) | 0x00A1       |     19 |              3 |
| [65535.13](#event-6553513) | 0x00B4       |     16 |              2 |
| [65535.14](#event-6553514) | 0x00C4       |     19 |              3 |
| [65535.15](#event-6553515) | 0x00D7       |     19 |              3 |
| [65535.16](#event-6553516) | 0x00EA       |     16 |              2 |
| [65535.17](#event-6553517) | 0x00FA       |     19 |              3 |
| [65535.18](#event-6553518) | 0x010D       |     16 |              2 |
| [65535.19](#event-6553519) | 0x011D       |     16 |              2 |
| [65535.20](#event-6553520) | 0x012D       |     16 |              2 |
| [65535.21](#event-6553521) | 0x013D       |     16 |              2 |
| [65535.22](#event-6553522) | 0x014D       |     19 |              3 |
| [65535.23](#event-6553523) | 0x0160       |     19 |              3 |
| [65535.24](#event-6553524) | 0x0173       |     16 |              2 |
| [65535.25](#event-6553525) | 0x0183       |     16 |              2 |
| [65535.26](#event-6553526) | 0x0193       |     16 |              2 |
| [65535.27](#event-6553527) | 0x01A3       |     19 |              3 |
| [65535.28](#event-6553528) | 0x01B6       |     16 |              2 |
| [65535.29](#event-6553529) | 0x01C6       |     19 |              3 |
| [65535.30](#event-6553530) | 0x01D9       |     18 |              2 |
| [65535.31](#event-6553531) | 0x01EB       |     16 |              2 |
| [65535.32](#event-6553532) | 0x01FB       |     16 |              2 |
| [65535.33](#event-6553533) | 0x020B       |     19 |              3 |
| [65535.34](#event-6553534) | 0x021E       |     19 |              3 |
| [65535.35](#event-6553535) | 0x0231       |     16 |              2 |
| [65535.36](#event-6553536) | 0x0241       |     19 |              3 |
| [65535.37](#event-6553537) | 0x0254       |     19 |              3 |
| [65535.38](#event-6553538) | 0x0267       |     19 |              3 |
| [65535.39](#event-6553539) | 0x027A       |     19 |              3 |
| [65535.40](#event-6553540) | 0x028D       |     16 |              2 |
| [65535.41](#event-6553541) | 0x029D       |     16 |              2 |
| [65535.42](#event-6553542) | 0x02AD       |     16 |              2 |
| [65535.43](#event-6553543) | 0x02BD       |     16 |              2 |
| [65535.44](#event-6553544) | 0x02CD       |     16 |              2 |
| [10178](#event-10178)      | 0x02DD       |      1 |              1 |
| [65535.45](#event-6553545) | 0x02DE       |     24 |              6 |
| [10179](#event-10179)      | 0x02F6       |      1 |              1 |
| [65535.46](#event-6553546) | 0x02F7       |     19 |              3 |
| [10180](#event-10180)      | 0x030A       |      1 |              1 |
| [65535.47](#event-6553547) | 0x030B       |     24 |              4 |
| [10181](#event-10181)      | 0x0323       |      1 |              1 |
| [65535.48](#event-6553548) | 0x0324       |     16 |              2 |
| [65535.49](#event-6553549) | 0x0334       |     16 |              2 |
| [65535.50](#event-6553550) | 0x0344       |     19 |              3 |
| [65535.51](#event-6553551) | 0x0357       |     19 |              3 |
| [65535.52](#event-6553552) | 0x036A       |     19 |              3 |
| [65535.53](#event-6553553) | 0x037D       |     16 |              2 |
| [65535.54](#event-6553554) | 0x038D       |     16 |              2 |
| [65535.55](#event-6553555) | 0x039D       |     16 |              2 |
| [65535.56](#event-6553556) | 0x03AD       |     16 |              2 |
| [65535.57](#event-6553557) | 0x03BD       |     21 |              3 |
| [65535.58](#event-6553558) | 0x03D2       |     21 |              3 |
| [65535.59](#event-6553559) | 0x03E7       |     18 |              2 |
| [10182](#event-10182)      | 0x03F9       |      1 |              1 |
| [65535.60](#event-6553560) | 0x03FA       |     15 |              5 |
| [65535.61](#event-6553561) | 0x0409       |     42 |              6 |
| [65535.62](#event-6553562) | 0x0433       |     36 |              4 |
| [65535.63](#event-6553563) | 0x0457       |     44 |              6 |
| [65535.64](#event-6553564) | 0x0483       |     14 |              4 |
| [10183](#event-10183)      | 0x0491       |      1 |              1 |
| [65535.65](#event-6553565) | 0x0492       |     19 |              3 |
| [65535.66](#event-6553566) | 0x04A5       |     19 |              3 |
| [65535.67](#event-6553567) | 0x04B8       |     19 |              3 |
| [65535.68](#event-6553568) | 0x04CB       |     19 |              3 |
| [10184](#event-10184)      | 0x04DE       |      1 |              1 |
| [65535.69](#event-6553569) | 0x04DF       |     13 |              3 |
| [65535.70](#event-6553570) | 0x04EC       |     12 |              4 |
| [10185](#event-10185)      | 0x04F8       |      1 |              1 |
| [10186](#event-10186)      | 0x04F9       |      1 |              1 |
| [10187](#event-10187)      | 0x04FA       |      1 |              1 |
| [10188](#event-10188)      | 0x04FB       |      1 |              1 |
| [10189](#event-10189)      | 0x04FC       |      1 |              1 |

## DAT References (imed_data)

|   Index | Hex Value   |   Dec Value |
|---------|-------------|-------------|
|       0 | 0x0939      |        2361 |
|       1 | 0x0001      |           1 |
|       2 | 0x0080      |         128 |
|       3 | 0x0000      |           0 |
|       4 | 0x0A52      |        2642 |
|       5 | 0x0AC3      |        2755 |
|       6 | 0x0078      |         120 |
|       7 | 0x0028      |          40 |
|       8 | 0x0A57      |        2647 |
|       9 | 0x00A0      |         160 |
|      10 | 0x00B4      |         180 |
|      11 | 0x0168      |         360 |
|      12 | 0x0A53      |        2643 |
|      13 | 0x00C8      |         200 |
|      14 | 0x0A4C      |        2636 |
|      15 | 0x00F0      |         240 |
|      16 | 0x003C      |          60 |
|      17 | 0x007C      |         124 |
|      18 | 0x0050      |          80 |
|      19 | 0x0AC2      |        2754 |
|      20 | 0x0A49      |        2633 |
|      21 | 0x000F      |          15 |
|      22 | 0xFFFEC437  |  4294886455 |
|      23 | 0x11E2B     |       73259 |
|      24 | 0xFFFFFB47  |  4294966087 |
|      25 | 0x305E      |       12382 |
|      26 | 0x005F      |          95 |
|      27 | 0x0068      |         104 |
|      28 | 0x0A4A      |        2634 |
|      29 | 0x0084      |         132 |
|      30 | 0x0172      |         370 |
|      31 | 0x01CC      |         460 |
|      32 | 0xFFFEB9E2  |  4294883810 |
|      33 | 0x13993     |       80275 |
|      34 | 0xFFFFFB50  |  4294966096 |
|      35 | 0xFFFEBCBA  |  4294884538 |
|      36 | 0x10F3E     |       69438 |
|      37 | 0xFFFFFB51  |  4294966097 |
|      38 | 0x0A91      |        2705 |
|      39 | 0x0A4E      |        2638 |
|      40 | 0x0085      |         133 |
|      41 | 0x0210      |         528 |
|      42 | 0xFFFEA491  |  4294878353 |
|      43 | 0x1391D     |       80157 |
|      44 | 0x0335      |         821 |
|      45 | 0x02AA      |         682 |
|      46 | 0x0005      |           5 |
|      47 | 0xFFFEA7CB  |  4294879179 |
|      48 | 0x133BF     |       78783 |
|      49 | 0x0ABF      |        2751 |
|      50 | 0x0208      |         520 |
|      51 | 0x0064      |         100 |
|      52 | 0x00BC      |         188 |
|      53 | 0x0014      |          20 |
|      54 | 0xFFFEB5E2  |  4294882786 |
|      55 | 0x13698     |       79512 |

## Events

### Event 65535

#### Metadata

| Field        | Value   |
|--------------|---------|
| Entrypoint   | 0x0000  |
| Data Size    | 1 bytes |
| Instructions | 1       |

```
      00 01 02 03 04 05 06 07  08 09 0A 0B 0C 0D 0E 0F
      -- -- -- -- -- -- -- --  -- -- -- -- -- -- -- --
0000: 00                                                .               
```

#### Opcodes

```
  0: 0x0000 [0x00] END_REQSTACK()
```

### Event 65535.1

#### Metadata

| Field        | Value    |
|--------------|----------|
| Entrypoint   | 0x0001   |
| Data Size    | 22 bytes |
| Instructions | 6        |

```
      00 01 02 03 04 05 06 07  08 09 0A 0B 0C 0D 0E 0F
      -- -- -- -- -- -- -- --  -- -- -- -- -- -- -- --
0000:    B6 00 00 80 22 00 92  01 F8 FF FF 7F 94 01 F8   ...."..........
0010: FF FF 7F C0 01 80 00                              .......         
```

#### Opcodes

```
  0: 0x0001 [0xB6] ENTITY_APPEARANCE_HANDLER(case=Hair style, value=2361*)
  1: 0x0005 [0x22] ENTITY_HIDE_FLAG(enabled=0x00)
  2: 0x0007 [0x92] EventEntity->Render.Flags3 ^= 0x01
  3: 0x000D [0x94] EventEntity->Render.Flags3 ^= 0x01
  4: 0x0013 [0xC0] EventEntity->Render.Flags3 |= 0x1000 // Set bit 12 (from 1*)
  5: 0x0016 [0x00] END_REQSTACK()
```

### Event 65535.2

#### Metadata

| Field        | Value   |
|--------------|---------|
| Entrypoint   | 0x0017  |
| Data Size    | 2 bytes |
| Instructions | 2       |

```
      00 01 02 03 04 05 06 07  08 09 0A 0B 0C 0D 0E 0F
      -- -- -- -- -- -- -- --  -- -- -- -- -- -- -- --
0010:                      84  00                              ..       
```

#### Opcodes

```
  0: 0x0017 [0x84] ADJUST_RENDER_FLAGS3_BIT0()
  1: 0x0018 [0x00] END_REQSTACK()
```

### Event 65535.3

#### Metadata

| Field        | Value    |
|--------------|----------|
| Entrypoint   | 0x0019   |
| Data Size    | 10 bytes |
| Instructions | 2        |

```
      00 01 02 03 04 05 06 07  08 09 0A 0B 0C 0D 0E 0F
      -- -- -- -- -- -- -- --  -- -- -- -- -- -- -- --
0010:                             6C F8 FF FF 7F 02 80           l......
0020: 03 80 00                                          ...             
```

#### Opcodes

```
  0: 0x0019 [0x6C] FADE_ENTITY_COLOR(entity_id=EventEntity, end_alpha=128*, fade_time=0*)
  1: 0x0022 [0x00] END_REQSTACK()
```

### Event 65535.4

#### Metadata

| Field        | Value    |
|--------------|----------|
| Entrypoint   | 0x0023   |
| Data Size    | 10 bytes |
| Instructions | 2        |

```
      00 01 02 03 04 05 06 07  08 09 0A 0B 0C 0D 0E 0F
      -- -- -- -- -- -- -- --  -- -- -- -- -- -- -- --
0020:          6C F8 FF FF 7F  03 80 03 80 00              l.........   
```

#### Opcodes

```
  0: 0x0023 [0x6C] FADE_ENTITY_COLOR(entity_id=EventEntity, end_alpha=0*, fade_time=0*)
  1: 0x002C [0x00] END_REQSTACK()
```

### Event 65535.5

#### Metadata

| Field        | Value   |
|--------------|---------|
| Entrypoint   | 0x002D  |
| Data Size    | 3 bytes |
| Instructions | 2       |

```
      00 01 02 03 04 05 06 07  08 09 0A 0B 0C 0D 0E 0F
      -- -- -- -- -- -- -- --  -- -- -- -- -- -- -- --
0020:                                         A4 01 00               ...
```

#### Opcodes

```
  0: 0x002D [0xA4] EventEntity->Flags3.unknown_3_2 = 1
  1: 0x002F [0x00] END_REQSTACK()
```

### Event 65535.6

#### Metadata

| Field        | Value   |
|--------------|---------|
| Entrypoint   | 0x0030  |
| Data Size    | 3 bytes |
| Instructions | 2       |

```
      00 01 02 03 04 05 06 07  08 09 0A 0B 0C 0D 0E 0F
      -- -- -- -- -- -- -- --  -- -- -- -- -- -- -- --
0030: A4 00 00                                          ...             
```

#### Opcodes

```
  0: 0x0030 [0xA4] EventEntity->Flags3.unknown_3_2 = 0
  1: 0x0032 [0x00] END_REQSTACK()
```

### Event 65535.7

#### Metadata

| Field        | Value    |
|--------------|----------|
| Entrypoint   | 0x0033   |
| Data Size    | 16 bytes |
| Instructions | 2        |

```
      00 01 02 03 04 05 06 07  08 09 0A 0B 0C 0D 0E 0F
      -- -- -- -- -- -- -- --  -- -- -- -- -- -- -- --
0030:          5B 04 80 F8 FF  FF 7F F8 FF FF 7F 6C 75     [..........lu
0040: 70 30 00                                          p0.             
```

#### Opcodes

```
  0: 0x0033 [0x5B] LOAD_EXT_SCHEDULER: Load scheduler "lup0" with entities [EventEntity, EventEntity], work=2642*
  1: 0x0042 [0x00] END_REQSTACK()
```

### Event 65535.8

#### Metadata

| Field        | Value    |
|--------------|----------|
| Entrypoint   | 0x0043   |
| Data Size    | 37 bytes |
| Instructions | 5        |

```
      00 01 02 03 04 05 06 07  08 09 0A 0B 0C 0D 0E 0F
      -- -- -- -- -- -- -- --  -- -- -- -- -- -- -- --
0040:          5B 05 80 F8 FF  FF 7F F8 FF FF 7F 70 6E     [..........pn
0050: 62 30 1C 06 80 5B 05 80  F8 FF FF 7F F8 FF FF 7F  b0...[..........
0060: 70 6E 62 31 1C 07 80 00                           pnb1....        
```

#### Opcodes

```
  0: 0x0043 [0x5B] LOAD_EXT_SCHEDULER: Load scheduler "pnb0" with entities [EventEntity, EventEntity], work=2755*
  1: 0x0052 [0x1C] WAIT(120* ticks)
  2: 0x0055 [0x5B] LOAD_EXT_SCHEDULER: Load scheduler "pnb1" with entities [EventEntity, EventEntity], work=2755*
  3: 0x0064 [0x1C] WAIT(40* ticks)
  4: 0x0067 [0x00] END_REQSTACK()
```

### Event 65535.9

#### Metadata

| Field        | Value    |
|--------------|----------|
| Entrypoint   | 0x0068   |
| Data Size    | 19 bytes |
| Instructions | 3        |

```
      00 01 02 03 04 05 06 07  08 09 0A 0B 0C 0D 0E 0F
      -- -- -- -- -- -- -- --  -- -- -- -- -- -- -- --
0060:                          5B 08 80 F8 FF FF 7F F8          [.......
0070: FF FF 7F 61 6E 67 30 1C  09 80 00                 ...ang0....     
```

#### Opcodes

```
  0: 0x0068 [0x5B] LOAD_EXT_SCHEDULER: Load scheduler "ang0" with entities [EventEntity, EventEntity], work=2647*
  1: 0x0077 [0x1C] WAIT(160* ticks)
  2: 0x007A [0x00] END_REQSTACK()
```

### Event 65535.10

#### Metadata

| Field        | Value    |
|--------------|----------|
| Entrypoint   | 0x007B   |
| Data Size    | 19 bytes |
| Instructions | 3        |

```
      00 01 02 03 04 05 06 07  08 09 0A 0B 0C 0D 0E 0F
      -- -- -- -- -- -- -- --  -- -- -- -- -- -- -- --
0070:                                   5B 08 80 F8 FF             [....
0080: FF 7F F8 FF FF 7F 70 6E  74 30 1C 09 80 00        ......pnt0....  
```

#### Opcodes

```
  0: 0x007B [0x5B] LOAD_EXT_SCHEDULER: Load scheduler "pnt0" with entities [EventEntity, EventEntity], work=2647*
  1: 0x008A [0x1C] WAIT(160* ticks)
  2: 0x008D [0x00] END_REQSTACK()
```

### Event 65535.11

#### Metadata

| Field        | Value    |
|--------------|----------|
| Entrypoint   | 0x008E   |
| Data Size    | 19 bytes |
| Instructions | 3        |

```
      00 01 02 03 04 05 06 07  08 09 0A 0B 0C 0D 0E 0F
      -- -- -- -- -- -- -- --  -- -- -- -- -- -- -- --
0080:                                            5B 08                [.
0090: 80 F8 FF FF 7F F8 FF FF  7F 77 61 76 30 1C 09 80  .........wav0...
00A0: 00                                                .               
```

#### Opcodes

```
  0: 0x008E [0x5B] LOAD_EXT_SCHEDULER: Load scheduler "wav0" with entities [EventEntity, EventEntity], work=2647*
  1: 0x009D [0x1C] WAIT(160* ticks)
  2: 0x00A0 [0x00] END_REQSTACK()
```

### Event 65535.12

#### Metadata

| Field        | Value    |
|--------------|----------|
| Entrypoint   | 0x00A1   |
| Data Size    | 19 bytes |
| Instructions | 3        |

```
      00 01 02 03 04 05 06 07  08 09 0A 0B 0C 0D 0E 0F
      -- -- -- -- -- -- -- --  -- -- -- -- -- -- -- --
00A0:    5B 08 80 F8 FF FF 7F  F8 FF FF 7F 74 68 61 30   [..........tha0
00B0: 1C 09 80 00                                       ....            
```

#### Opcodes

```
  0: 0x00A1 [0x5B] LOAD_EXT_SCHEDULER: Load scheduler "tha0" with entities [EventEntity, EventEntity], work=2647*
  1: 0x00B0 [0x1C] WAIT(160* ticks)
  2: 0x00B3 [0x00] END_REQSTACK()
```

### Event 65535.13

#### Metadata

| Field        | Value    |
|--------------|----------|
| Entrypoint   | 0x00B4   |
| Data Size    | 16 bytes |
| Instructions | 2        |

```
      00 01 02 03 04 05 06 07  08 09 0A 0B 0C 0D 0E 0F
      -- -- -- -- -- -- -- --  -- -- -- -- -- -- -- --
00B0:             5B 08 80 F8  FF FF 7F F8 FF FF 7F 74      [..........t
00C0: 68 62 30 00                                       hb0.            
```

#### Opcodes

```
  0: 0x00B4 [0x5B] LOAD_EXT_SCHEDULER: Load scheduler "thb0" with entities [EventEntity, EventEntity], work=2647*
  1: 0x00C3 [0x00] END_REQSTACK()
```

### Event 65535.14

#### Metadata

| Field        | Value    |
|--------------|----------|
| Entrypoint   | 0x00C4   |
| Data Size    | 19 bytes |
| Instructions | 3        |

```
      00 01 02 03 04 05 06 07  08 09 0A 0B 0C 0D 0E 0F
      -- -- -- -- -- -- -- --  -- -- -- -- -- -- -- --
00C0:             5B 08 80 F8  FF FF 7F F8 FF FF 7F 74      [..........t
00D0: 68 62 31 1C 07 80 00                              hb1....         
```

#### Opcodes

```
  0: 0x00C4 [0x5B] LOAD_EXT_SCHEDULER: Load scheduler "thb1" with entities [EventEntity, EventEntity], work=2647*
  1: 0x00D3 [0x1C] WAIT(40* ticks)
  2: 0x00D6 [0x00] END_REQSTACK()
```

### Event 65535.15

#### Metadata

| Field        | Value    |
|--------------|----------|
| Entrypoint   | 0x00D7   |
| Data Size    | 19 bytes |
| Instructions | 3        |

```
      00 01 02 03 04 05 06 07  08 09 0A 0B 0C 0D 0E 0F
      -- -- -- -- -- -- -- --  -- -- -- -- -- -- -- --
00D0:                      5B  08 80 F8 FF FF 7F F8 FF         [........
00E0: FF 7F 6D 75 70 30 1C 0A  80 00                    ..mup0....      
```

#### Opcodes

```
  0: 0x00D7 [0x5B] LOAD_EXT_SCHEDULER: Load scheduler "mup0" with entities [EventEntity, EventEntity], work=2647*
  1: 0x00E6 [0x1C] WAIT(180* ticks)
  2: 0x00E9 [0x00] END_REQSTACK()
```

### Event 65535.16

#### Metadata

| Field        | Value    |
|--------------|----------|
| Entrypoint   | 0x00EA   |
| Data Size    | 16 bytes |
| Instructions | 2        |

```
      00 01 02 03 04 05 06 07  08 09 0A 0B 0C 0D 0E 0F
      -- -- -- -- -- -- -- --  -- -- -- -- -- -- -- --
00E0:                                5B 08 80 F8 FF FF            [.....
00F0: 7F F8 FF FF 7F 6D 64 77  30 00                    .....mdw0.      
```

#### Opcodes

```
  0: 0x00EA [0x5B] LOAD_EXT_SCHEDULER: Load scheduler "mdw0" with entities [EventEntity, EventEntity], work=2647*
  1: 0x00F9 [0x00] END_REQSTACK()
```

### Event 65535.17

#### Metadata

| Field        | Value    |
|--------------|----------|
| Entrypoint   | 0x00FA   |
| Data Size    | 19 bytes |
| Instructions | 3        |

```
      00 01 02 03 04 05 06 07  08 09 0A 0B 0C 0D 0E 0F
      -- -- -- -- -- -- -- --  -- -- -- -- -- -- -- --
00F0:                                5B 08 80 F8 FF FF            [.....
0100: 7F F8 FF FF 7F 6D 64 77  31 1C 0B 80 00           .....mdw1....   
```

#### Opcodes

```
  0: 0x00FA [0x5B] LOAD_EXT_SCHEDULER: Load scheduler "mdw1" with entities [EventEntity, EventEntity], work=2647*
  1: 0x0109 [0x1C] WAIT(360* ticks)
  2: 0x010C [0x00] END_REQSTACK()
```

### Event 65535.18

#### Metadata

| Field        | Value    |
|--------------|----------|
| Entrypoint   | 0x010D   |
| Data Size    | 16 bytes |
| Instructions | 2        |

```
      00 01 02 03 04 05 06 07  08 09 0A 0B 0C 0D 0E 0F
      -- -- -- -- -- -- -- --  -- -- -- -- -- -- -- --
0100:                                         5B 0C 80               [..
0110: F8 FF FF 7F F8 FF FF 7F  6B 72 69 30 00           ........kri0.   
```

#### Opcodes

```
  0: 0x010D [0x5B] LOAD_EXT_SCHEDULER: Load scheduler "kri0" with entities [EventEntity, EventEntity], work=2643*
  1: 0x011C [0x00] END_REQSTACK()
```

### Event 65535.19

#### Metadata

| Field        | Value    |
|--------------|----------|
| Entrypoint   | 0x011D   |
| Data Size    | 16 bytes |
| Instructions | 2        |

```
      00 01 02 03 04 05 06 07  08 09 0A 0B 0C 0D 0E 0F
      -- -- -- -- -- -- -- --  -- -- -- -- -- -- -- --
0110:                                         5B 0C 80               [..
0120: F8 FF FF 7F F8 FF FF 7F  6B 72 69 31 00           ........kri1.   
```

#### Opcodes

```
  0: 0x011D [0x5B] LOAD_EXT_SCHEDULER: Load scheduler "kri1" with entities [EventEntity, EventEntity], work=2643*
  1: 0x012C [0x00] END_REQSTACK()
```

### Event 65535.20

#### Metadata

| Field        | Value    |
|--------------|----------|
| Entrypoint   | 0x012D   |
| Data Size    | 16 bytes |
| Instructions | 2        |

```
      00 01 02 03 04 05 06 07  08 09 0A 0B 0C 0D 0E 0F
      -- -- -- -- -- -- -- --  -- -- -- -- -- -- -- --
0120:                                         5B 04 80               [..
0130: F8 FF FF 7F F8 FF FF 7F  6C 64 77 30 00           ........ldw0.   
```

#### Opcodes

```
  0: 0x012D [0x5B] LOAD_EXT_SCHEDULER: Load scheduler "ldw0" with entities [EventEntity, EventEntity], work=2642*
  1: 0x013C [0x00] END_REQSTACK()
```

### Event 65535.21

#### Metadata

| Field        | Value    |
|--------------|----------|
| Entrypoint   | 0x013D   |
| Data Size    | 16 bytes |
| Instructions | 2        |

```
      00 01 02 03 04 05 06 07  08 09 0A 0B 0C 0D 0E 0F
      -- -- -- -- -- -- -- --  -- -- -- -- -- -- -- --
0130:                                         5B 04 80               [..
0140: F8 FF FF 7F F8 FF FF 7F  6C 64 77 31 00           ........ldw1.   
```

#### Opcodes

```
  0: 0x013D [0x5B] LOAD_EXT_SCHEDULER: Load scheduler "ldw1" with entities [EventEntity, EventEntity], work=2642*
  1: 0x014C [0x00] END_REQSTACK()
```

### Event 65535.22

#### Metadata

| Field        | Value    |
|--------------|----------|
| Entrypoint   | 0x014D   |
| Data Size    | 19 bytes |
| Instructions | 3        |

```
      00 01 02 03 04 05 06 07  08 09 0A 0B 0C 0D 0E 0F
      -- -- -- -- -- -- -- --  -- -- -- -- -- -- -- --
0140:                                         5B 04 80               [..
0150: F8 FF FF 7F F8 FF FF 7F  6B 79 6F 30 1C 0D 80 00  ........kyo0....
```

#### Opcodes

```
  0: 0x014D [0x5B] LOAD_EXT_SCHEDULER: Load scheduler "kyo0" with entities [EventEntity, EventEntity], work=2642*
  1: 0x015C [0x1C] WAIT(200* ticks)
  2: 0x015F [0x00] END_REQSTACK()
```

### Event 65535.23

#### Metadata

| Field        | Value    |
|--------------|----------|
| Entrypoint   | 0x0160   |
| Data Size    | 19 bytes |
| Instructions | 3        |

```
      00 01 02 03 04 05 06 07  08 09 0A 0B 0C 0D 0E 0F
      -- -- -- -- -- -- -- --  -- -- -- -- -- -- -- --
0160: 5B 04 80 F8 FF FF 7F F8  FF FF 7F 6F 6A 69 30 1C  [..........oji0.
0170: 09 80 00                                          ...             
```

#### Opcodes

```
  0: 0x0160 [0x5B] LOAD_EXT_SCHEDULER: Load scheduler "oji0" with entities [EventEntity, EventEntity], work=2642*
  1: 0x016F [0x1C] WAIT(160* ticks)
  2: 0x0172 [0x00] END_REQSTACK()
```

### Event 65535.24

#### Metadata

| Field        | Value    |
|--------------|----------|
| Entrypoint   | 0x0173   |
| Data Size    | 16 bytes |
| Instructions | 2        |

```
      00 01 02 03 04 05 06 07  08 09 0A 0B 0C 0D 0E 0F
      -- -- -- -- -- -- -- --  -- -- -- -- -- -- -- --
0170:          5B 04 80 F8 FF  FF 7F F8 FF FF 7F 6E 6F     [..........no
0180: 30 30 00                                          00.             
```

#### Opcodes

```
  0: 0x0173 [0x5B] LOAD_EXT_SCHEDULER: Load scheduler "no00" with entities [EventEntity, EventEntity], work=2642*
  1: 0x0182 [0x00] END_REQSTACK()
```

### Event 65535.25

#### Metadata

| Field        | Value    |
|--------------|----------|
| Entrypoint   | 0x0183   |
| Data Size    | 16 bytes |
| Instructions | 2        |

```
      00 01 02 03 04 05 06 07  08 09 0A 0B 0C 0D 0E 0F
      -- -- -- -- -- -- -- --  -- -- -- -- -- -- -- --
0180:          5B 04 80 F8 FF  FF 7F F8 FF FF 7F 6E 6F     [..........no
0190: 30 31 00                                          01.             
```

#### Opcodes

```
  0: 0x0183 [0x5B] LOAD_EXT_SCHEDULER: Load scheduler "no01" with entities [EventEntity, EventEntity], work=2642*
  1: 0x0192 [0x00] END_REQSTACK()
```

### Event 65535.26

#### Metadata

| Field        | Value    |
|--------------|----------|
| Entrypoint   | 0x0193   |
| Data Size    | 16 bytes |
| Instructions | 2        |

```
      00 01 02 03 04 05 06 07  08 09 0A 0B 0C 0D 0E 0F
      -- -- -- -- -- -- -- --  -- -- -- -- -- -- -- --
0190:          5B 0E 80 F8 FF  FF 7F F8 FF FF 7F 68 61     [..........ha
01A0: 70 30 00                                          p0.             
```

#### Opcodes

```
  0: 0x0193 [0x5B] LOAD_EXT_SCHEDULER: Load scheduler "hap0" with entities [EventEntity, EventEntity], work=2636*
  1: 0x01A2 [0x00] END_REQSTACK()
```

### Event 65535.27

#### Metadata

| Field        | Value    |
|--------------|----------|
| Entrypoint   | 0x01A3   |
| Data Size    | 19 bytes |
| Instructions | 3        |

```
      00 01 02 03 04 05 06 07  08 09 0A 0B 0C 0D 0E 0F
      -- -- -- -- -- -- -- --  -- -- -- -- -- -- -- --
01A0:          5B 0E 80 F8 FF  FF 7F F8 FF FF 7F 6B 72     [..........kr
01B0: 75 30 1C 0F 80 00                                 u0....          
```

#### Opcodes

```
  0: 0x01A3 [0x5B] LOAD_EXT_SCHEDULER: Load scheduler "kru0" with entities [EventEntity, EventEntity], work=2636*
  1: 0x01B2 [0x1C] WAIT(240* ticks)
  2: 0x01B5 [0x00] END_REQSTACK()
```

### Event 65535.28

#### Metadata

| Field        | Value    |
|--------------|----------|
| Entrypoint   | 0x01B6   |
| Data Size    | 16 bytes |
| Instructions | 2        |

```
      00 01 02 03 04 05 06 07  08 09 0A 0B 0C 0D 0E 0F
      -- -- -- -- -- -- -- --  -- -- -- -- -- -- -- --
01B0:                   5B 0E  80 F8 FF FF 7F F8 FF FF        [.........
01C0: 7F 74 6C 6B 30 00                                 .tlk0.          
```

#### Opcodes

```
  0: 0x01B6 [0x5B] LOAD_EXT_SCHEDULER: Load scheduler "tlk0" with entities [EventEntity, EventEntity], work=2636*
  1: 0x01C5 [0x00] END_REQSTACK()
```

### Event 65535.29

#### Metadata

| Field        | Value    |
|--------------|----------|
| Entrypoint   | 0x01C6   |
| Data Size    | 19 bytes |
| Instructions | 3        |

```
      00 01 02 03 04 05 06 07  08 09 0A 0B 0C 0D 0E 0F
      -- -- -- -- -- -- -- --  -- -- -- -- -- -- -- --
01C0:                   5B 0E  80 F8 FF FF 7F F8 FF FF        [.........
01D0: 7F 73 74 64 30 1C 10 80  00                       .std0....       
```

#### Opcodes

```
  0: 0x01C6 [0x5B] LOAD_EXT_SCHEDULER: Load scheduler "std0" with entities [EventEntity, EventEntity], work=2636*
  1: 0x01D5 [0x1C] WAIT(60* ticks)
  2: 0x01D8 [0x00] END_REQSTACK()
```

### Event 65535.30

#### Metadata

| Field        | Value    |
|--------------|----------|
| Entrypoint   | 0x01D9   |
| Data Size    | 18 bytes |
| Instructions | 2        |

```
      00 01 02 03 04 05 06 07  08 09 0A 0B 0C 0D 0E 0F
      -- -- -- -- -- -- -- --  -- -- -- -- -- -- -- --
01D0:                             C5 11 80 F8 FF FF 7F           .......
01E0: F8 FF FF 7F 6D 61 69 6E  03 80 00                 ....main...     
```

#### Opcodes

```
  0: 0x01D9 [0xC5] LOAD_SCHEDULED_TASK_ALT3: Load scheduler 0x80036E69 for entities [EventEntity, EventEntity], work=124*, param=24941
  1: 0x01EA [0x00] END_REQSTACK()
```

### Event 65535.31

#### Metadata

| Field        | Value    |
|--------------|----------|
| Entrypoint   | 0x01EB   |
| Data Size    | 16 bytes |
| Instructions | 2        |

```
      00 01 02 03 04 05 06 07  08 09 0A 0B 0C 0D 0E 0F
      -- -- -- -- -- -- -- --  -- -- -- -- -- -- -- --
01E0:                                   5B 04 80 F8 FF             [....
01F0: FF 7F F8 FF FF 7F 6C 75  70 30 00                 ......lup0.     
```

#### Opcodes

```
  0: 0x01EB [0x5B] LOAD_EXT_SCHEDULER: Load scheduler "lup0" with entities [EventEntity, EventEntity], work=2642*
  1: 0x01FA [0x00] END_REQSTACK()
```

### Event 65535.32

#### Metadata

| Field        | Value    |
|--------------|----------|
| Entrypoint   | 0x01FB   |
| Data Size    | 16 bytes |
| Instructions | 2        |

```
      00 01 02 03 04 05 06 07  08 09 0A 0B 0C 0D 0E 0F
      -- -- -- -- -- -- -- --  -- -- -- -- -- -- -- --
01F0:                                   5B 04 80 F8 FF             [....
0200: FF 7F F8 FF FF 7F 6C 75  70 31 00                 ......lup1.     
```

#### Opcodes

```
  0: 0x01FB [0x5B] LOAD_EXT_SCHEDULER: Load scheduler "lup1" with entities [EventEntity, EventEntity], work=2642*
  1: 0x020A [0x00] END_REQSTACK()
```

### Event 65535.33

#### Metadata

| Field        | Value    |
|--------------|----------|
| Entrypoint   | 0x020B   |
| Data Size    | 19 bytes |
| Instructions | 3        |

```
      00 01 02 03 04 05 06 07  08 09 0A 0B 0C 0D 0E 0F
      -- -- -- -- -- -- -- --  -- -- -- -- -- -- -- --
0200:                                   5B 04 80 F8 FF             [....
0210: FF 7F F8 FF FF 7F 79 65  73 30 1C 12 80 00        ......yes0....  
```

#### Opcodes

```
  0: 0x020B [0x5B] LOAD_EXT_SCHEDULER: Load scheduler "yes0" with entities [EventEntity, EventEntity], work=2642*
  1: 0x021A [0x1C] WAIT(80* ticks)
  2: 0x021D [0x00] END_REQSTACK()
```

### Event 65535.34

#### Metadata

| Field        | Value    |
|--------------|----------|
| Entrypoint   | 0x021E   |
| Data Size    | 19 bytes |
| Instructions | 3        |

```
      00 01 02 03 04 05 06 07  08 09 0A 0B 0C 0D 0E 0F
      -- -- -- -- -- -- -- --  -- -- -- -- -- -- -- --
0210:                                            5B 04                [.
0220: 80 F8 FF FF 7F F8 FF FF  7F 79 65 73 31 1C 09 80  .........yes1...
0230: 00                                                .               
```

#### Opcodes

```
  0: 0x021E [0x5B] LOAD_EXT_SCHEDULER: Load scheduler "yes1" with entities [EventEntity, EventEntity], work=2642*
  1: 0x022D [0x1C] WAIT(160* ticks)
  2: 0x0230 [0x00] END_REQSTACK()
```

### Event 65535.35

#### Metadata

| Field        | Value    |
|--------------|----------|
| Entrypoint   | 0x0231   |
| Data Size    | 16 bytes |
| Instructions | 2        |

```
      00 01 02 03 04 05 06 07  08 09 0A 0B 0C 0D 0E 0F
      -- -- -- -- -- -- -- --  -- -- -- -- -- -- -- --
0230:    5B 0E 80 F8 FF FF 7F  F8 FF FF 7F 70 6E 63 30   [..........pnc0
0240: 00                                                .               
```

#### Opcodes

```
  0: 0x0231 [0x5B] LOAD_EXT_SCHEDULER: Load scheduler "pnc0" with entities [EventEntity, EventEntity], work=2636*
  1: 0x0240 [0x00] END_REQSTACK()
```

### Event 65535.36

#### Metadata

| Field        | Value    |
|--------------|----------|
| Entrypoint   | 0x0241   |
| Data Size    | 19 bytes |
| Instructions | 3        |

```
      00 01 02 03 04 05 06 07  08 09 0A 0B 0C 0D 0E 0F
      -- -- -- -- -- -- -- --  -- -- -- -- -- -- -- --
0240:    5B 13 80 F8 FF FF 7F  F8 FF FF 7F 62 69 6B 30   [..........bik0
0250: 1C 06 80 00                                       ....            
```

#### Opcodes

```
  0: 0x0241 [0x5B] LOAD_EXT_SCHEDULER: Load scheduler "bik0" with entities [EventEntity, EventEntity], work=2754*
  1: 0x0250 [0x1C] WAIT(120* ticks)
  2: 0x0253 [0x00] END_REQSTACK()
```

### Event 65535.37

#### Metadata

| Field        | Value    |
|--------------|----------|
| Entrypoint   | 0x0254   |
| Data Size    | 19 bytes |
| Instructions | 3        |

```
      00 01 02 03 04 05 06 07  08 09 0A 0B 0C 0D 0E 0F
      -- -- -- -- -- -- -- --  -- -- -- -- -- -- -- --
0250:             5B 05 80 F8  FF FF 7F F8 FF FF 7F 79      [..........y
0260: 72 6F 30 1C 09 80 00                              ro0....         
```

#### Opcodes

```
  0: 0x0254 [0x5B] LOAD_EXT_SCHEDULER: Load scheduler "yro0" with entities [EventEntity, EventEntity], work=2755*
  1: 0x0263 [0x1C] WAIT(160* ticks)
  2: 0x0266 [0x00] END_REQSTACK()
```

### Event 65535.38

#### Metadata

| Field        | Value    |
|--------------|----------|
| Entrypoint   | 0x0267   |
| Data Size    | 19 bytes |
| Instructions | 3        |

```
      00 01 02 03 04 05 06 07  08 09 0A 0B 0C 0D 0E 0F
      -- -- -- -- -- -- -- --  -- -- -- -- -- -- -- --
0260:                      5B  0C 80 F8 FF FF 7F F8 FF         [........
0270: FF 7F 65 69 6F 30 1C 09  80 00                    ..eio0....      
```

#### Opcodes

```
  0: 0x0267 [0x5B] LOAD_EXT_SCHEDULER: Load scheduler "eio0" with entities [EventEntity, EventEntity], work=2643*
  1: 0x0276 [0x1C] WAIT(160* ticks)
  2: 0x0279 [0x00] END_REQSTACK()
```

### Event 65535.39

#### Metadata

| Field        | Value    |
|--------------|----------|
| Entrypoint   | 0x027A   |
| Data Size    | 19 bytes |
| Instructions | 3        |

```
      00 01 02 03 04 05 06 07  08 09 0A 0B 0C 0D 0E 0F
      -- -- -- -- -- -- -- --  -- -- -- -- -- -- -- --
0270:                                5B 0C 80 F8 FF FF            [.....
0280: 7F F8 FF FF 7F 6B 73 75  30 1C 09 80 00           .....ksu0....   
```

#### Opcodes

```
  0: 0x027A [0x5B] LOAD_EXT_SCHEDULER: Load scheduler "ksu0" with entities [EventEntity, EventEntity], work=2643*
  1: 0x0289 [0x1C] WAIT(160* ticks)
  2: 0x028C [0x00] END_REQSTACK()
```

### Event 65535.40

#### Metadata

| Field        | Value    |
|--------------|----------|
| Entrypoint   | 0x028D   |
| Data Size    | 16 bytes |
| Instructions | 2        |

```
      00 01 02 03 04 05 06 07  08 09 0A 0B 0C 0D 0E 0F
      -- -- -- -- -- -- -- --  -- -- -- -- -- -- -- --
0280:                                         5B 0C 80               [..
0290: F8 FF FF 7F F8 FF FF 7F  67 61 6B 30 00           ........gak0.   
```

#### Opcodes

```
  0: 0x028D [0x5B] LOAD_EXT_SCHEDULER: Load scheduler "gak0" with entities [EventEntity, EventEntity], work=2643*
  1: 0x029C [0x00] END_REQSTACK()
```

### Event 65535.41

#### Metadata

| Field        | Value    |
|--------------|----------|
| Entrypoint   | 0x029D   |
| Data Size    | 16 bytes |
| Instructions | 2        |

```
      00 01 02 03 04 05 06 07  08 09 0A 0B 0C 0D 0E 0F
      -- -- -- -- -- -- -- --  -- -- -- -- -- -- -- --
0290:                                         5B 0C 80               [..
02A0: F8 FF FF 7F F8 FF FF 7F  67 61 6B 31 00           ........gak1.   
```

#### Opcodes

```
  0: 0x029D [0x5B] LOAD_EXT_SCHEDULER: Load scheduler "gak1" with entities [EventEntity, EventEntity], work=2643*
  1: 0x02AC [0x00] END_REQSTACK()
```

### Event 65535.42

#### Metadata

| Field        | Value    |
|--------------|----------|
| Entrypoint   | 0x02AD   |
| Data Size    | 16 bytes |
| Instructions | 2        |

```
      00 01 02 03 04 05 06 07  08 09 0A 0B 0C 0D 0E 0F
      -- -- -- -- -- -- -- --  -- -- -- -- -- -- -- --
02A0:                                         5B 14 80               [..
02B0: F8 FF FF 7F F8 FF FF 7F  6C 61 74 6C 00           ........latl.   
```

#### Opcodes

```
  0: 0x02AD [0x5B] LOAD_EXT_SCHEDULER: Load scheduler "latl" with entities [EventEntity, EventEntity], work=2633*
  1: 0x02BC [0x00] END_REQSTACK()
```

### Event 65535.43

#### Metadata

| Field        | Value    |
|--------------|----------|
| Entrypoint   | 0x02BD   |
| Data Size    | 16 bytes |
| Instructions | 2        |

```
      00 01 02 03 04 05 06 07  08 09 0A 0B 0C 0D 0E 0F
      -- -- -- -- -- -- -- --  -- -- -- -- -- -- -- --
02B0:                                         5B 14 80               [..
02C0: F8 FF FF 7F F8 FF FF 7F  6C 61 74 30 00           ........lat0.   
```

#### Opcodes

```
  0: 0x02BD [0x5B] LOAD_EXT_SCHEDULER: Load scheduler "lat0" with entities [EventEntity, EventEntity], work=2633*
  1: 0x02CC [0x00] END_REQSTACK()
```

### Event 65535.44

#### Metadata

| Field        | Value    |
|--------------|----------|
| Entrypoint   | 0x02CD   |
| Data Size    | 16 bytes |
| Instructions | 2        |

```
      00 01 02 03 04 05 06 07  08 09 0A 0B 0C 0D 0E 0F
      -- -- -- -- -- -- -- --  -- -- -- -- -- -- -- --
02C0:                                         5B 14 80               [..
02D0: F8 FF FF 7F F8 FF FF 7F  6C 61 74 31 00           ........lat1.   
```

#### Opcodes

```
  0: 0x02CD [0x5B] LOAD_EXT_SCHEDULER: Load scheduler "lat1" with entities [EventEntity, EventEntity], work=2633*
  1: 0x02DC [0x00] END_REQSTACK()
```

### Event 10178

#### Metadata

| Field        | Value   |
|--------------|---------|
| Entrypoint   | 0x02DD  |
| Data Size    | 1 bytes |
| Instructions | 1       |

```
      00 01 02 03 04 05 06 07  08 09 0A 0B 0C 0D 0E 0F
      -- -- -- -- -- -- -- --  -- -- -- -- -- -- -- --
02D0:                                         00                     .  
```

#### Opcodes

```
  0: 0x02DD [0x00] END_REQSTACK()
```

### Event 65535.45

#### Metadata

| Field        | Value    |
|--------------|----------|
| Entrypoint   | 0x02DE   |
| Data Size    | 24 bytes |
| Instructions | 6        |

```
      00 01 02 03 04 05 06 07  08 09 0A 0B 0C 0D 0E 0F
      -- -- -- -- -- -- -- --  -- -- -- -- -- -- -- --
02D0:                                            32 15                2.
02E0: 80 1F 00 16 80 17 80 18  80 1F 01 6F 4A F8 FF FF  ...........oJ...
02F0: 7F DE 40 0F 01 00                                 ..@...          
```

#### Opcodes

```
  0: 0x02DE [0x32] ExtData[1]->MainSpeed = 15* * 0.1
  1: 0x02E1 [0x1F] MOVE_ENTITY: EventEntity moves to X=-80.841*, Z=73.259*, Y=-1.209*
  2: 0x02E9 [0x1F] MOVE_ENTITY: Update entity position (mode=1)
  3: 0x02EB [0x6F] WAIT_FRAME_DELAY: Yield until WaitTime reaches zero
  4: 0x02EC [0x4A] EventEntity looks at ??? (ID: 17776862/0x010F40DE)
  5: 0x02F5 [0x00] END_REQSTACK()
```

### Event 10179

#### Metadata

| Field        | Value   |
|--------------|---------|
| Entrypoint   | 0x02F6  |
| Data Size    | 1 bytes |
| Instructions | 1       |

```
      00 01 02 03 04 05 06 07  08 09 0A 0B 0C 0D 0E 0F
      -- -- -- -- -- -- -- --  -- -- -- -- -- -- -- --
02F0:                   00                                    .         
```

#### Opcodes

```
  0: 0x02F6 [0x00] END_REQSTACK()
```

### Event 65535.46

#### Metadata

| Field        | Value    |
|--------------|----------|
| Entrypoint   | 0x02F7   |
| Data Size    | 19 bytes |
| Instructions | 3        |

```
      00 01 02 03 04 05 06 07  08 09 0A 0B 0C 0D 0E 0F
      -- -- -- -- -- -- -- --  -- -- -- -- -- -- -- --
02F0:                      5B  04 80 F8 FF FF 7F F8 FF         [........
0300: FF 7F 79 65 73 30 1C 12  80 00                    ..yes0....      
```

#### Opcodes

```
  0: 0x02F7 [0x5B] LOAD_EXT_SCHEDULER: Load scheduler "yes0" with entities [EventEntity, EventEntity], work=2642*
  1: 0x0306 [0x1C] WAIT(80* ticks)
  2: 0x0309 [0x00] END_REQSTACK()
```

### Event 10180

#### Metadata

| Field        | Value   |
|--------------|---------|
| Entrypoint   | 0x030A  |
| Data Size    | 1 bytes |
| Instructions | 1       |

```
      00 01 02 03 04 05 06 07  08 09 0A 0B 0C 0D 0E 0F
      -- -- -- -- -- -- -- --  -- -- -- -- -- -- -- --
0300:                                00                           .     
```

#### Opcodes

```
  0: 0x030A [0x00] END_REQSTACK()
```

### Event 65535.47

#### Metadata

| Field        | Value    |
|--------------|----------|
| Entrypoint   | 0x030B   |
| Data Size    | 24 bytes |
| Instructions | 4        |

```
      00 01 02 03 04 05 06 07  08 09 0A 0B 0C 0D 0E 0F
      -- -- -- -- -- -- -- --  -- -- -- -- -- -- -- --
0300:                                   5B 0C 80 F8 FF             [....
0310: FF 7F F8 FF FF 7F 65 69  6F 30 2B E0 40 0F 01 19  ......eio0+.@...
0320: 80 23 00                                          .#.             
```

#### Opcodes

```
  0: 0x030B [0x5B] LOAD_EXT_SCHEDULER: Load scheduler "eio0" with entities [EventEntity, EventEntity], work=2643*
  1: 0x031A [0x2B] Moogle (ID: 17776864/0x010F40E0) [12382*]:
    → "Just leave it to me! I'll draft up an official renovation request. Why, we'll be living in the lap of luxury before you know it, kupo!"
  2: 0x0321 [0x23] WAIT_FOR_DIALOG_INTERACTION
  3: 0x0322 [0x00] END_REQSTACK()
```

### Event 10181

#### Metadata

| Field        | Value   |
|--------------|---------|
| Entrypoint   | 0x0323  |
| Data Size    | 1 bytes |
| Instructions | 1       |

```
      00 01 02 03 04 05 06 07  08 09 0A 0B 0C 0D 0E 0F
      -- -- -- -- -- -- -- --  -- -- -- -- -- -- -- --
0320:          00                                          .            
```

#### Opcodes

```
  0: 0x0323 [0x00] END_REQSTACK()
```

### Event 65535.48

#### Metadata

| Field        | Value    |
|--------------|----------|
| Entrypoint   | 0x0324   |
| Data Size    | 16 bytes |
| Instructions | 2        |

```
      00 01 02 03 04 05 06 07  08 09 0A 0B 0C 0D 0E 0F
      -- -- -- -- -- -- -- --  -- -- -- -- -- -- -- --
0320:             5B 14 80 F8  FF FF 7F F8 FF FF 7F 6C      [..........l
0330: 61 74 32 00                                       at2.            
```

#### Opcodes

```
  0: 0x0324 [0x5B] LOAD_EXT_SCHEDULER: Load scheduler "lat2" with entities [EventEntity, EventEntity], work=2633*
  1: 0x0333 [0x00] END_REQSTACK()
```

### Event 65535.49

#### Metadata

| Field        | Value    |
|--------------|----------|
| Entrypoint   | 0x0334   |
| Data Size    | 16 bytes |
| Instructions | 2        |

```
      00 01 02 03 04 05 06 07  08 09 0A 0B 0C 0D 0E 0F
      -- -- -- -- -- -- -- --  -- -- -- -- -- -- -- --
0330:             5B 14 80 F8  FF FF 7F F8 FF FF 7F 6C      [..........l
0340: 61 74 33 00                                       at3.            
```

#### Opcodes

```
  0: 0x0334 [0x5B] LOAD_EXT_SCHEDULER: Load scheduler "lat3" with entities [EventEntity, EventEntity], work=2633*
  1: 0x0343 [0x00] END_REQSTACK()
```

### Event 65535.50

#### Metadata

| Field        | Value    |
|--------------|----------|
| Entrypoint   | 0x0344   |
| Data Size    | 19 bytes |
| Instructions | 3        |

```
      00 01 02 03 04 05 06 07  08 09 0A 0B 0C 0D 0E 0F
      -- -- -- -- -- -- -- --  -- -- -- -- -- -- -- --
0340:             5B 14 80 F8  FF FF 7F F8 FF FF 7F 6C      [..........l
0350: 61 74 34 1C 1A 80 00                              at4....         
```

#### Opcodes

```
  0: 0x0344 [0x5B] LOAD_EXT_SCHEDULER: Load scheduler "lat4" with entities [EventEntity, EventEntity], work=2633*
  1: 0x0353 [0x1C] WAIT(95* ticks)
  2: 0x0356 [0x00] END_REQSTACK()
```

### Event 65535.51

#### Metadata

| Field        | Value    |
|--------------|----------|
| Entrypoint   | 0x0357   |
| Data Size    | 19 bytes |
| Instructions | 3        |

```
      00 01 02 03 04 05 06 07  08 09 0A 0B 0C 0D 0E 0F
      -- -- -- -- -- -- -- --  -- -- -- -- -- -- -- --
0350:                      5B  14 80 F8 FF FF 7F F8 FF         [........
0360: FF 7F 6C 61 74 35 1C 1B  80 00                    ..lat5....      
```

#### Opcodes

```
  0: 0x0357 [0x5B] LOAD_EXT_SCHEDULER: Load scheduler "lat5" with entities [EventEntity, EventEntity], work=2633*
  1: 0x0366 [0x1C] WAIT(104* ticks)
  2: 0x0369 [0x00] END_REQSTACK()
```

### Event 65535.52

#### Metadata

| Field        | Value    |
|--------------|----------|
| Entrypoint   | 0x036A   |
| Data Size    | 19 bytes |
| Instructions | 3        |

```
      00 01 02 03 04 05 06 07  08 09 0A 0B 0C 0D 0E 0F
      -- -- -- -- -- -- -- --  -- -- -- -- -- -- -- --
0360:                                5B 14 80 F8 FF FF            [.....
0370: 7F F8 FF FF 7F 6C 61 74  36 1C 06 80 00           .....lat6....   
```

#### Opcodes

```
  0: 0x036A [0x5B] LOAD_EXT_SCHEDULER: Load scheduler "lat6" with entities [EventEntity, EventEntity], work=2633*
  1: 0x0379 [0x1C] WAIT(120* ticks)
  2: 0x037C [0x00] END_REQSTACK()
```

### Event 65535.53

#### Metadata

| Field        | Value    |
|--------------|----------|
| Entrypoint   | 0x037D   |
| Data Size    | 16 bytes |
| Instructions | 2        |

```
      00 01 02 03 04 05 06 07  08 09 0A 0B 0C 0D 0E 0F
      -- -- -- -- -- -- -- --  -- -- -- -- -- -- -- --
0370:                                         5B 14 80               [..
0380: F8 FF FF 7F F8 FF FF 7F  6C 61 74 37 00           ........lat7.   
```

#### Opcodes

```
  0: 0x037D [0x5B] LOAD_EXT_SCHEDULER: Load scheduler "lat7" with entities [EventEntity, EventEntity], work=2633*
  1: 0x038C [0x00] END_REQSTACK()
```

### Event 65535.54

#### Metadata

| Field        | Value    |
|--------------|----------|
| Entrypoint   | 0x038D   |
| Data Size    | 16 bytes |
| Instructions | 2        |

```
      00 01 02 03 04 05 06 07  08 09 0A 0B 0C 0D 0E 0F
      -- -- -- -- -- -- -- --  -- -- -- -- -- -- -- --
0380:                                         5B 1C 80               [..
0390: F8 FF FF 7F F8 FF FF 7F  62 72 75 30 00           ........bru0.   
```

#### Opcodes

```
  0: 0x038D [0x5B] LOAD_EXT_SCHEDULER: Load scheduler "bru0" with entities [EventEntity, EventEntity], work=2634*
  1: 0x039C [0x00] END_REQSTACK()
```

### Event 65535.55

#### Metadata

| Field        | Value    |
|--------------|----------|
| Entrypoint   | 0x039D   |
| Data Size    | 16 bytes |
| Instructions | 2        |

```
      00 01 02 03 04 05 06 07  08 09 0A 0B 0C 0D 0E 0F
      -- -- -- -- -- -- -- --  -- -- -- -- -- -- -- --
0390:                                         5B 1C 80               [..
03A0: F8 FF FF 7F F8 FF FF 7F  62 72 75 31 00           ........bru1.   
```

#### Opcodes

```
  0: 0x039D [0x5B] LOAD_EXT_SCHEDULER: Load scheduler "bru1" with entities [EventEntity, EventEntity], work=2634*
  1: 0x03AC [0x00] END_REQSTACK()
```

### Event 65535.56

#### Metadata

| Field        | Value    |
|--------------|----------|
| Entrypoint   | 0x03AD   |
| Data Size    | 16 bytes |
| Instructions | 2        |

```
      00 01 02 03 04 05 06 07  08 09 0A 0B 0C 0D 0E 0F
      -- -- -- -- -- -- -- --  -- -- -- -- -- -- -- --
03A0:                                         5B 1C 80               [..
03B0: F8 FF FF 7F F8 FF FF 7F  62 72 75 32 00           ........bru2.   
```

#### Opcodes

```
  0: 0x03AD [0x5B] LOAD_EXT_SCHEDULER: Load scheduler "bru2" with entities [EventEntity, EventEntity], work=2634*
  1: 0x03BC [0x00] END_REQSTACK()
```

### Event 65535.57

#### Metadata

| Field        | Value    |
|--------------|----------|
| Entrypoint   | 0x03BD   |
| Data Size    | 21 bytes |
| Instructions | 3        |

```
      00 01 02 03 04 05 06 07  08 09 0A 0B 0C 0D 0E 0F
      -- -- -- -- -- -- -- --  -- -- -- -- -- -- -- --
03B0:                                         C5 1D 80               ...
03C0: F8 FF FF 7F F8 FF FF 7F  73 30 30 30 03 80 1C 1E  ........s000....
03D0: 80 00                                             ..              
```

#### Opcodes

```
  0: 0x03BD [0xC5] LOAD_SCHEDULED_TASK_ALT3: Load scheduler 0x80033030 for entities [EventEntity, EventEntity], work=132*, param=12403
  1: 0x03CE [0x1C] WAIT(370* ticks)
  2: 0x03D1 [0x00] END_REQSTACK()
```

### Event 65535.58

#### Metadata

| Field        | Value    |
|--------------|----------|
| Entrypoint   | 0x03D2   |
| Data Size    | 21 bytes |
| Instructions | 3        |

```
      00 01 02 03 04 05 06 07  08 09 0A 0B 0C 0D 0E 0F
      -- -- -- -- -- -- -- --  -- -- -- -- -- -- -- --
03D0:       C5 1D 80 F8 FF FF  7F F8 FF FF 7F 73 30 30    ...........s00
03E0: 31 03 80 1C 1F 80 00                              1......         
```

#### Opcodes

```
  0: 0x03D2 [0xC5] LOAD_SCHEDULED_TASK_ALT3: Load scheduler 0x80033130 for entities [EventEntity, EventEntity], work=132*, param=12403
  1: 0x03E3 [0x1C] WAIT(460* ticks)
  2: 0x03E6 [0x00] END_REQSTACK()
```

### Event 65535.59

#### Metadata

| Field        | Value    |
|--------------|----------|
| Entrypoint   | 0x03E7   |
| Data Size    | 18 bytes |
| Instructions | 2        |

```
      00 01 02 03 04 05 06 07  08 09 0A 0B 0C 0D 0E 0F
      -- -- -- -- -- -- -- --  -- -- -- -- -- -- -- --
03E0:                      C5  1D 80 F8 FF FF 7F F8 FF         .........
03F0: FF 7F 73 30 30 32 03 80  00                       ..s002...       
```

#### Opcodes

```
  0: 0x03E7 [0xC5] LOAD_SCHEDULED_TASK_ALT3: Load scheduler 0x80033230 for entities [EventEntity, EventEntity], work=132*, param=12403
  1: 0x03F8 [0x00] END_REQSTACK()
```

### Event 10182

#### Metadata

| Field        | Value   |
|--------------|---------|
| Entrypoint   | 0x03F9  |
| Data Size    | 1 bytes |
| Instructions | 1       |

```
      00 01 02 03 04 05 06 07  08 09 0A 0B 0C 0D 0E 0F
      -- -- -- -- -- -- -- --  -- -- -- -- -- -- -- --
03F0:                             00                             .      
```

#### Opcodes

```
  0: 0x03F9 [0x00] END_REQSTACK()
```

### Event 65535.60

#### Metadata

| Field        | Value    |
|--------------|----------|
| Entrypoint   | 0x03FA   |
| Data Size    | 15 bytes |
| Instructions | 5        |

```
      00 01 02 03 04 05 06 07  08 09 0A 0B 0C 0D 0E 0F
      -- -- -- -- -- -- -- --  -- -- -- -- -- -- -- --
03F0:                                32 07 80 1F 00 20            2.... 
0400: 80 21 80 22 80 1F 01 6F  00                       .!."...o.       
```

#### Opcodes

```
  0: 0x03FA [0x32] ExtData[1]->MainSpeed = 40* * 0.1
  1: 0x03FD [0x1F] MOVE_ENTITY: EventEntity moves to X=-83.486*, Z=80.275*, Y=-1.200*
  2: 0x0405 [0x1F] MOVE_ENTITY: Update entity position (mode=1)
  3: 0x0407 [0x6F] WAIT_FRAME_DELAY: Yield until WaitTime reaches zero
  4: 0x0408 [0x00] END_REQSTACK()
```

### Event 65535.61

#### Metadata

| Field        | Value    |
|--------------|----------|
| Entrypoint   | 0x0409   |
| Data Size    | 42 bytes |
| Instructions | 6        |

```
      00 01 02 03 04 05 06 07  08 09 0A 0B 0C 0D 0E 0F
      -- -- -- -- -- -- -- --  -- -- -- -- -- -- -- --
0400:                             7B F8 FF FF 7F BA F8           {......
0410: FF FF 7F 23 80 24 80 25  80 26 80 80 F8 FF FF 7F  ...#.$.%.&......
0420: 1C 15 80 5B 27 80 F8 FF  FF 7F F8 FF FF 7F 6B 6F  ...['.........ko
0430: 75 30 00                                          u0.             
```

#### Opcodes

```
  0: 0x0409 [0x7B] EventEntity stops talking
  1: 0x040E [0xBA] SET_ENTITY_POSITION(entity_id=EventEntity, pos_x=-82.758*, pos_z=69.438*, pos_y=-1.199*, direction=237.7°*)
  2: 0x041B [0x80] LOAD_WAIT(entity=EventEntity)
  3: 0x0420 [0x1C] WAIT(15* ticks)
  4: 0x0423 [0x5B] LOAD_EXT_SCHEDULER: Load scheduler "kou0" with entities [EventEntity, EventEntity], work=2638*
  5: 0x0432 [0x00] END_REQSTACK()
```

### Event 65535.62

#### Metadata

| Field        | Value    |
|--------------|----------|
| Entrypoint   | 0x0433   |
| Data Size    | 36 bytes |
| Instructions | 4        |

```
      00 01 02 03 04 05 06 07  08 09 0A 0B 0C 0D 0E 0F
      -- -- -- -- -- -- -- --  -- -- -- -- -- -- -- --
0430:          C5 28 80 F8 FF  FF 7F F8 FF FF 7F 73 30     .(.........s0
0440: 30 30 03 80 5B 27 80 F8  FF FF 7F F8 FF FF 7F 6B  00..['.........k
0450: 6F 73 31 1C 29 80 00                              os1.)..         
```

#### Opcodes

```
  0: 0x0433 [0xC5] LOAD_SCHEDULED_TASK_ALT3: Load scheduler 0x80033030 for entities [EventEntity, EventEntity], work=133*, param=12403
  1: 0x0444 [0x5B] LOAD_EXT_SCHEDULER: Load scheduler "kos1" with entities [EventEntity, EventEntity], work=2638*
  2: 0x0453 [0x1C] WAIT(528* ticks)
  3: 0x0456 [0x00] END_REQSTACK()
```

### Event 65535.63

#### Metadata

| Field        | Value    |
|--------------|----------|
| Entrypoint   | 0x0457   |
| Data Size    | 44 bytes |
| Instructions | 6        |

```
      00 01 02 03 04 05 06 07  08 09 0A 0B 0C 0D 0E 0F
      -- -- -- -- -- -- -- --  -- -- -- -- -- -- -- --
0450:                      59  05 F8 FF FF 7F 01 37 2A         Y......7*
0460: 80 2B 80 03 80 2C 80 80  F8 FF FF 7F 5B 04 80 F8  .+...,......[...
0470: FF FF 7F F8 FF FF 7F 6C  75 70 31 4B F8 FF FF 7F  .......lup1K....
0480: 2D 80 00                                          -..             
```

#### Opcodes

```
  0: 0x0457 [0x59] UPDATE_ENTITY_DATA: EventEntity->Render.Flags0 |= 0x200000
  1: 0x045E [0x37] UPDATE_EVENT_POSITION_AND_DIR: x=-88.943*, z=80.157*, y=0.000*, direction=72.2°*
  2: 0x0467 [0x80] LOAD_WAIT(entity=EventEntity)
  3: 0x046C [0x5B] LOAD_EXT_SCHEDULER: Load scheduler "lup1" with entities [EventEntity, EventEntity], work=2642*
  4: 0x047B [0x4B] UPDATE_ENTITY_YAW(entity=EventEntity, yaw=3.7°*)
  5: 0x0482 [0x00] END_REQSTACK()
```

### Event 65535.64

#### Metadata

| Field        | Value    |
|--------------|----------|
| Entrypoint   | 0x0483   |
| Data Size    | 14 bytes |
| Instructions | 4        |

```
      00 01 02 03 04 05 06 07  08 09 0A 0B 0C 0D 0E 0F
      -- -- -- -- -- -- -- --  -- -- -- -- -- -- -- --
0480:          32 2E 80 5A 00  2F 80 30 80 22 80 5A 01     2..Z./.0.".Z.
0490: 00                                                .               
```

#### Opcodes

```
  0: 0x0483 [0x32] ExtData[1]->MainSpeed = 5* * 0.1
  1: 0x0486 [0x5A] UPDATE_EVENT_POSITION: Set EventEntity MovePosition to X=-88.117*, Z=78.783*, Y=-1.200*
  2: 0x048E [0x5A] UPDATE_EVENT_POSITION: Move EventEntity incrementally towards MovePosition
  3: 0x0490 [0x00] END_REQSTACK()
```

### Event 10183

#### Metadata

| Field        | Value   |
|--------------|---------|
| Entrypoint   | 0x0491  |
| Data Size    | 1 bytes |
| Instructions | 1       |

```
      00 01 02 03 04 05 06 07  08 09 0A 0B 0C 0D 0E 0F
      -- -- -- -- -- -- -- --  -- -- -- -- -- -- -- --
0490:    00                                              .              
```

#### Opcodes

```
  0: 0x0491 [0x00] END_REQSTACK()
```

### Event 65535.65

#### Metadata

| Field        | Value    |
|--------------|----------|
| Entrypoint   | 0x0492   |
| Data Size    | 19 bytes |
| Instructions | 3        |

```
      00 01 02 03 04 05 06 07  08 09 0A 0B 0C 0D 0E 0F
      -- -- -- -- -- -- -- --  -- -- -- -- -- -- -- --
0490:       5B 31 80 F8 FF FF  7F F8 FF FF 7F 6B 69 6E    [1.........kin
04A0: 30 1C 32 80 00                                    0.2..           
```

#### Opcodes

```
  0: 0x0492 [0x5B] LOAD_EXT_SCHEDULER: Load scheduler "kin0" with entities [EventEntity, EventEntity], work=2751*
  1: 0x04A1 [0x1C] WAIT(520* ticks)
  2: 0x04A4 [0x00] END_REQSTACK()
```

### Event 65535.66

#### Metadata

| Field        | Value    |
|--------------|----------|
| Entrypoint   | 0x04A5   |
| Data Size    | 19 bytes |
| Instructions | 3        |

```
      00 01 02 03 04 05 06 07  08 09 0A 0B 0C 0D 0E 0F
      -- -- -- -- -- -- -- --  -- -- -- -- -- -- -- --
04A0:                5B 31 80  F8 FF FF 7F F8 FF FF 7F       [1.........
04B0: 6B 69 6E 31 1C 09 80 00                           kin1....        
```

#### Opcodes

```
  0: 0x04A5 [0x5B] LOAD_EXT_SCHEDULER: Load scheduler "kin1" with entities [EventEntity, EventEntity], work=2751*
  1: 0x04B4 [0x1C] WAIT(160* ticks)
  2: 0x04B7 [0x00] END_REQSTACK()
```

### Event 65535.67

#### Metadata

| Field        | Value    |
|--------------|----------|
| Entrypoint   | 0x04B8   |
| Data Size    | 19 bytes |
| Instructions | 3        |

```
      00 01 02 03 04 05 06 07  08 09 0A 0B 0C 0D 0E 0F
      -- -- -- -- -- -- -- --  -- -- -- -- -- -- -- --
04B0:                          5B 31 80 F8 FF FF 7F F8          [1......
04C0: FF FF 7F 6B 69 6E 32 1C  33 80 00                 ...kin2.3..     
```

#### Opcodes

```
  0: 0x04B8 [0x5B] LOAD_EXT_SCHEDULER: Load scheduler "kin2" with entities [EventEntity, EventEntity], work=2751*
  1: 0x04C7 [0x1C] WAIT(100* ticks)
  2: 0x04CA [0x00] END_REQSTACK()
```

### Event 65535.68

#### Metadata

| Field        | Value    |
|--------------|----------|
| Entrypoint   | 0x04CB   |
| Data Size    | 19 bytes |
| Instructions | 3        |

```
      00 01 02 03 04 05 06 07  08 09 0A 0B 0C 0D 0E 0F
      -- -- -- -- -- -- -- --  -- -- -- -- -- -- -- --
04C0:                                   5B 31 80 F8 FF             [1...
04D0: FF 7F F8 FF FF 7F 6B 69  6E 33 1C 34 80 00        ......kin3.4..  
```

#### Opcodes

```
  0: 0x04CB [0x5B] LOAD_EXT_SCHEDULER: Load scheduler "kin3" with entities [EventEntity, EventEntity], work=2751*
  1: 0x04DA [0x1C] WAIT(188* ticks)
  2: 0x04DD [0x00] END_REQSTACK()
```

### Event 10184

#### Metadata

| Field        | Value   |
|--------------|---------|
| Entrypoint   | 0x04DE  |
| Data Size    | 1 bytes |
| Instructions | 1       |

```
      00 01 02 03 04 05 06 07  08 09 0A 0B 0C 0D 0E 0F
      -- -- -- -- -- -- -- --  -- -- -- -- -- -- -- --
04D0:                                            00                   . 
```

#### Opcodes

```
  0: 0x04DE [0x00] END_REQSTACK()
```

### Event 65535.69

#### Metadata

| Field        | Value    |
|--------------|----------|
| Entrypoint   | 0x04DF   |
| Data Size    | 13 bytes |
| Instructions | 3        |

```
      00 01 02 03 04 05 06 07  08 09 0A 0B 0C 0D 0E 0F
      -- -- -- -- -- -- -- --  -- -- -- -- -- -- -- --
04D0:                                               1C                 .
04E0: 35 80 4A F8 FF FF 7F E3  40 0F 01 00              5.J.....@...    
```

#### Opcodes

```
  0: 0x04DF [0x1C] WAIT(20* ticks)
  1: 0x04E2 [0x4A] EventEntity looks at Goblin Repossessor (ID: 17776867/0x010F40E3)
  2: 0x04EB [0x00] END_REQSTACK()
```

### Event 65535.70

#### Metadata

| Field        | Value    |
|--------------|----------|
| Entrypoint   | 0x04EC   |
| Data Size    | 12 bytes |
| Instructions | 4        |

```
      00 01 02 03 04 05 06 07  08 09 0A 0B 0C 0D 0E 0F
      -- -- -- -- -- -- -- --  -- -- -- -- -- -- -- --
04E0:                                      1F 00 36 80              ..6.
04F0: 37 80 22 80 1F 01 6F 00                           7."...o.        
```

#### Opcodes

```
  0: 0x04EC [0x1F] MOVE_ENTITY: EventEntity moves to X=-84.510*, Z=79.512*, Y=-1.200*
  1: 0x04F4 [0x1F] MOVE_ENTITY: Update entity position (mode=1)
  2: 0x04F6 [0x6F] WAIT_FRAME_DELAY: Yield until WaitTime reaches zero
  3: 0x04F7 [0x00] END_REQSTACK()
```

### Event 10185

#### Metadata

| Field        | Value   |
|--------------|---------|
| Entrypoint   | 0x04F8  |
| Data Size    | 1 bytes |
| Instructions | 1       |

```
      00 01 02 03 04 05 06 07  08 09 0A 0B 0C 0D 0E 0F
      -- -- -- -- -- -- -- --  -- -- -- -- -- -- -- --
04F0:                          00                               .       
```

#### Opcodes

```
  0: 0x04F8 [0x00] END_REQSTACK()
```

### Event 10186

#### Metadata

| Field        | Value   |
|--------------|---------|
| Entrypoint   | 0x04F9  |
| Data Size    | 1 bytes |
| Instructions | 1       |

```
      00 01 02 03 04 05 06 07  08 09 0A 0B 0C 0D 0E 0F
      -- -- -- -- -- -- -- --  -- -- -- -- -- -- -- --
04F0:                             00                             .      
```

#### Opcodes

```
  0: 0x04F9 [0x00] END_REQSTACK()
```

### Event 10187

#### Metadata

| Field        | Value   |
|--------------|---------|
| Entrypoint   | 0x04FA  |
| Data Size    | 1 bytes |
| Instructions | 1       |

```
      00 01 02 03 04 05 06 07  08 09 0A 0B 0C 0D 0E 0F
      -- -- -- -- -- -- -- --  -- -- -- -- -- -- -- --
04F0:                                00                           .     
```

#### Opcodes

```
  0: 0x04FA [0x00] END_REQSTACK()
```

### Event 10188

#### Metadata

| Field        | Value   |
|--------------|---------|
| Entrypoint   | 0x04FB  |
| Data Size    | 1 bytes |
| Instructions | 1       |

```
      00 01 02 03 04 05 06 07  08 09 0A 0B 0C 0D 0E 0F
      -- -- -- -- -- -- -- --  -- -- -- -- -- -- -- --
04F0:                                   00                         .    
```

#### Opcodes

```
  0: 0x04FB [0x00] END_REQSTACK()
```

### Event 10189

#### Metadata

| Field        | Value   |
|--------------|---------|
| Entrypoint   | 0x04FC  |
| Data Size    | 1 bytes |
| Instructions | 1       |

```
      00 01 02 03 04 05 06 07  08 09 0A 0B 0C 0D 0E 0F
      -- -- -- -- -- -- -- --  -- -- -- -- -- -- -- --
04F0:                                      00                       .   
```

#### Opcodes

```
  0: 0x04FC [0x00] END_REQSTACK()
```
