# 17776765

## Common Data

| Field            | Value                 |
|------------------|-----------------------|
| Zone             | Upper Jeuno (ID: 244) |
| Block Size       | 9516 bytes            |
| Total Events     | 7                     |
| References Count | 156                   |

## List of Events

| Event ID                 | Entrypoint   |   Size |   Instructions |
|--------------------------|--------------|--------|----------------|
| [65535](#event-65535)    | 0x0000       |      1 |              1 |
| [81](#event-81)          | 0x0001       |      1 |              1 |
| [65535.1](#event-655351) | 0x0002       |      2 |              2 |
| [65535.2](#event-655352) | 0x0004       |      2 |              2 |
| [10011](#event-10011)    | 0x0006       |   3891 |            514 |
| [10012](#event-10012)    | 0x0F39       |   3400 |            450 |
| [10019](#event-10019)    | 0x1C81       |   1550 |            209 |

## DAT References (imed_data)

|   Index | Hex Value   |   Dec Value |
|---------|-------------|-------------|
|       0 | 0x00C8      |         200 |
|       1 | 0x0000      |           0 |
|       2 | 0x003C      |          60 |
|       3 | 0x0013      |          19 |
|       4 | 0x01C0      |         448 |
|       5 | 0x007F      |         127 |
|       6 | 0x0064      |         100 |
|       7 | 0x00AC      |         172 |
|       8 | 0x00B4      |         180 |
|       9 | 0x001E      |          30 |
|      10 | 0x0CC9      |        3273 |
|      11 | 0x0014      |          20 |
|      12 | 0x0028      |          40 |
|      13 | 0x0003      |           3 |
|      14 | 0x0005      |           5 |
|      15 | 0x0006      |           6 |
|      16 | 0x0008      |           8 |
|      17 | 0x20D7      |        8407 |
|      18 | 0x20D8      |        8408 |
|      19 | 0x20D9      |        8409 |
|      20 | 0x20DA      |        8410 |
|      21 | 0x20DB      |        8411 |
|      22 | 0x20DC      |        8412 |
|      23 | 0x20DD      |        8413 |
|      24 | 0x20DE      |        8414 |
|      25 | 0x000A      |          10 |
|      26 | 0x20DF      |        8415 |
|      27 | 0x20E0      |        8416 |
|      28 | 0x20E1      |        8417 |
|      29 | 0x20E2      |        8418 |
|      30 | 0x20E3      |        8419 |
|      31 | 0x0078      |         120 |
|      32 | 0x20E4      |        8420 |
|      33 | 0x20E5      |        8421 |
|      34 | 0x00E7      |         231 |
|      35 | 0x20E6      |        8422 |
|      36 | 0x20E7      |        8423 |
|      37 | 0x20E8      |        8424 |
|      38 | 0x20E9      |        8425 |
|      39 | 0x20EA      |        8426 |
|      40 | 0x20EB      |        8427 |
|      41 | 0x20EC      |        8428 |
|      42 | 0x20ED      |        8429 |
|      43 | 0x20EE      |        8430 |
|      44 | 0x20EF      |        8431 |
|      45 | 0x20F0      |        8432 |
|      46 | 0x20F1      |        8433 |
|      47 | 0x20F2      |        8434 |
|      48 | 0x20F3      |        8435 |
|      49 | 0x20F4      |        8436 |
|      50 | 0x20F5      |        8437 |
|      51 | 0x20F6      |        8438 |
|      52 | 0x20F7      |        8439 |
|      53 | 0x20F8      |        8440 |
|      54 | 0x005A      |          90 |
|      55 | 0x20F9      |        8441 |
|      56 | 0x0C01      |        3073 |
|      57 | 0x20FA      |        8442 |
|      58 | 0x20FB      |        8443 |
|      59 | 0x20FC      |        8444 |
|      60 | 0x0001      |           1 |
|      61 | 0x20FD      |        8445 |
|      62 | 0x20FE      |        8446 |
|      63 | 0x20FF      |        8447 |
|      64 | 0x0002      |           2 |
|      65 | 0x2103      |        8451 |
|      66 | 0x2104      |        8452 |
|      67 | 0x2105      |        8453 |
|      68 | 0x2106      |        8454 |
|      69 | 0x2107      |        8455 |
|      70 | 0x2100      |        8448 |
|      71 | 0x2101      |        8449 |
|      72 | 0x2102      |        8450 |
|      73 | 0x006E      |         110 |
|      74 | 0x00DB      |         219 |
|      75 | 0x00AF      |         175 |
|      76 | 0x210A      |        8458 |
|      77 | 0x210B      |        8459 |
|      78 | 0x210C      |        8460 |
|      79 | 0x210D      |        8461 |
|      80 | 0x210E      |        8462 |
|      81 | 0x210F      |        8463 |
|      82 | 0x2110      |        8464 |
|      83 | 0x2111      |        8465 |
|      84 | 0x2112      |        8466 |
|      85 | 0x2113      |        8467 |
|      86 | 0x2114      |        8468 |
|      87 | 0x2115      |        8469 |
|      88 | 0x2116      |        8470 |
|      89 | 0x2117      |        8471 |
|      90 | 0x2118      |        8472 |
|      91 | 0x2119      |        8473 |
|      92 | 0x211A      |        8474 |
|      93 | 0x211B      |        8475 |
|      94 | 0x211C      |        8476 |
|      95 | 0x211D      |        8477 |
|      96 | 0x211E      |        8478 |
|      97 | 0x211F      |        8479 |
|      98 | 0x2120      |        8480 |
|      99 | 0x2121      |        8481 |
|     100 | 0x2122      |        8482 |
|     101 | 0x2123      |        8483 |
|     102 | 0x2124      |        8484 |
|     103 | 0x2125      |        8485 |
|     104 | 0x0050      |          80 |
|     105 | 0x2126      |        8486 |
|     106 | 0x2127      |        8487 |
|     107 | 0x2128      |        8488 |
|     108 | 0x2129      |        8489 |
|     109 | 0x04CE      |        1230 |
|     110 | 0x212A      |        8490 |
|     111 | 0x212B      |        8491 |
|     112 | 0x212C      |        8492 |
|     113 | 0x212D      |        8493 |
|     114 | 0x212E      |        8494 |
|     115 | 0x212F      |        8495 |
|     116 | 0x2130      |        8496 |
|     117 | 0x2131      |        8497 |
|     118 | 0x2132      |        8498 |
|     119 | 0x2133      |        8499 |
|     120 | 0x2134      |        8500 |
|     121 | 0x2135      |        8501 |
|     122 | 0x2136      |        8502 |
|     123 | 0x2137      |        8503 |
|     124 | 0x06A4      |        1700 |
|     125 | 0x2138      |        8504 |
|     126 | 0x2139      |        8505 |
|     127 | 0x01C1      |         449 |
|     128 | 0x0019      |          25 |
|     129 | 0x213D      |        8509 |
|     130 | 0x213E      |        8510 |
|     131 | 0x213F      |        8511 |
|     132 | 0x2140      |        8512 |
|     133 | 0x2141      |        8513 |
|     134 | 0x006F      |         111 |
|     135 | 0x000C      |          12 |
|     136 | 0x000D      |          13 |
|     137 | 0x2142      |        8514 |
|     138 | 0x2143      |        8515 |
|     139 | 0x2144      |        8516 |
|     140 | 0x2145      |        8517 |
|     141 | 0x00F4      |         244 |
|     142 | 0x2146      |        8518 |
|     143 | 0x2147      |        8519 |
|     144 | 0x2148      |        8520 |
|     145 | 0x2149      |        8521 |
|     146 | 0x214A      |        8522 |
|     147 | 0x214B      |        8523 |
|     148 | 0x214C      |        8524 |
|     149 | 0x214D      |        8525 |
|     150 | 0x214E      |        8526 |
|     151 | 0x214F      |        8527 |
|     152 | 0x2150      |        8528 |
|     153 | 0x2151      |        8529 |
|     154 | 0x0004      |           4 |
|     155 | 0x2152      |        8530 |

## String References

- **8444**: Do you agree? [No, I don't./There's no other way./What decision?]
- **8512**: Listen to his request? [I'll listen./I come here for the peace and quiet.]
- **8527**: Will you go? [I will./I don't think so.]

## Events

### Event 65535

#### Metadata

| Field        | Value   |
|--------------|---------|
| Entrypoint   | 0x0000  |
| Data Size    | 1 bytes |
| Instructions | 1       |

```
      00 01 02 03 04 05 06 07  08 09 0A 0B 0C 0D 0E 0F
      -- -- -- -- -- -- -- --  -- -- -- -- -- -- -- --
0000: 00                                                .               
```

#### Opcodes

```
  0: 0x0000 [0x00] END_REQSTACK()
```

### Event 81

#### Metadata

| Field        | Value   |
|--------------|---------|
| Entrypoint   | 0x0001  |
| Data Size    | 1 bytes |
| Instructions | 1       |

```
      00 01 02 03 04 05 06 07  08 09 0A 0B 0C 0D 0E 0F
      -- -- -- -- -- -- -- --  -- -- -- -- -- -- -- --
0000:    00                                              .              
```

#### Opcodes

```
  0: 0x0001 [0x00] END_REQSTACK()
```

### Event 65535.1

#### Metadata

| Field        | Value   |
|--------------|---------|
| Entrypoint   | 0x0002  |
| Data Size    | 2 bytes |
| Instructions | 2       |

```
      00 01 02 03 04 05 06 07  08 09 0A 0B 0C 0D 0E 0F
      -- -- -- -- -- -- -- --  -- -- -- -- -- -- -- --
0000:       4C 00                                         L.            
```

#### Opcodes

```
  0: 0x0002 [0x4C] EventEntity->StatusEvent = 8 // Open door
  1: 0x0003 [0x00] END_REQSTACK()
```

### Event 65535.2

#### Metadata

| Field        | Value   |
|--------------|---------|
| Entrypoint   | 0x0004  |
| Data Size    | 2 bytes |
| Instructions | 2       |

```
      00 01 02 03 04 05 06 07  08 09 0A 0B 0C 0D 0E 0F
      -- -- -- -- -- -- -- --  -- -- -- -- -- -- -- --
0000:             4D 00                                     M.          
```

#### Opcodes

```
  0: 0x0004 [0x4D] EventEntity->StatusEvent = 9 // Close door
  1: 0x0005 [0x00] END_REQSTACK()
```

### Event 10011

#### Metadata

| Field        | Value      |
|--------------|------------|
| Entrypoint   | 0x0006     |
| Data Size    | 3891 bytes |
| Instructions | 514        |

```
      00 01 02 03 04 05 06 07  08 09 0A 0B 0C 0D 0E 0F
      -- -- -- -- -- -- -- --  -- -- -- -- -- -- -- --
0000:                   20 01  42 46 01 45 00 80 F8 FF         .BF.E....
0010: FF 7F F8 FF FF 7F 66 64  6F 31 01 80 1C 02 80 38  ......fdo1.....8
0020: 03 80 29 08 F0 FF FF 7F  29 75 00 04 80 75 01 29  ..).....)u...u.)
0030: 0B F0 FF FF 7F 2C 29 0B  82 40 0F 01 02 29 0B 80  .....,)..@...)..
0040: 40 0F 01 30 29 0B 81 40  0F 01 3F 29 0B 7F 40 0F  @..0)..@..?)..@.
0050: 01 38 29 0B 7E 40 0F 01  43 4E 00 82 40 0F 01 4E  .8).~@..CN..@..N
0060: 00 80 40 0F 01 4E 00 81  40 0F 01 4E 00 7F 40 0F  ..@..N..@..N..@.
0070: 01 4E 00 7E 40 0F 01 80  82 40 0F 01 80 80 40 0F  .N.~@....@....@.
0080: 01 80 81 40 0F 01 80 7F  40 0F 01 80 7E 40 0F 01  ...@....@...~@..
0090: 5C 00 05 80 5C 01 05 80  1C 06 80 45 07 80 F8 FF  \...\......E....
00A0: FF 7F F8 FF FF 7F 73 30  34 30 01 80 45 00 80 F8  ......s040..E...
00B0: FF FF 7F F8 FF FF 7F 66  64 69 31 01 80 1C 08 80  .......fdi1.....
00C0: 79 00 80 40 0F 01 F0 FF  FF 7F 79 00 81 40 0F 01  y..@......y..@..
00D0: F0 FF FF 7F 1C 09 80 4B  81 40 0F 01 0A 80 4A 7F  .......K.@....J.
00E0: 40 0F 01 F0 FF FF 7F 29  0B 63 40 0F 01 06 27 0B  @......).c@...'.
00F0: F0 FF FF 7F 2D 1C 0B 80  4A 82 40 0F 01 F0 FF FF  ....-...J.@.....
0100: 7F 1C 0C 80 6F 76 7F 40  0F 01 27 0B 7F 40 0F 01  ....ov.@..'..@..
0110: 39 1C 0C 80 29 0B 63 40  0F 01 07 52 07 80 F8 FF  9...).c@...R....
0120: FF 7F F8 FF FF 7F 73 30  34 30 02 09 10 0D 80 00  ......s040......
0130: 46 01 45 07 80 F8 FF FF  7F F8 FF FF 7F 73 30 36  F.E..........s06
0140: 38 01 80 01 AB 01 02 09  10 0E 80 00 62 01 45 07  8...........b.E.
0150: 80 F8 FF FF 7F F8 FF FF  7F 73 30 36 36 01 80 01  .........s066...
0160: AB 01 02 09 10 0F 80 00  7E 01 45 07 80 F8 FF FF  ........~.E.....
0170: 7F F8 FF FF 7F 73 30 36  36 01 80 01 AB 01 02 09  .....s066.......
0180: 10 10 80 00 9A 01 45 07  80 F8 FF FF 7F F8 FF FF  ......E.........
0190: 7F 73 30 36 38 01 80 01  AB 01 45 07 80 F8 FF FF  .s068.....E.....
01A0: 7F F8 FF FF 7F 73 30 34  31 01 80 2B 7F 40 0F 01  .....s041..+.@..
01B0: 11 80 23 2A 0B F0 FF FF  7F 2B 7F 40 0F 01 12 80  ..#*.....+.@....
01C0: 23 02 09 10 0D 80 00 DB  01 52 07 80 F8 FF FF 7F  #........R......
01D0: F8 FF FF 7F 73 30 36 38  01 38 02 02 09 10 0E 80  ....s068.8......
01E0: 00 F5 01 52 07 80 F8 FF  FF 7F F8 FF FF 7F 73 30  ...R..........s0
01F0: 36 36 01 38 02 02 09 10  0F 80 00 0F 02 52 07 80  66.8.........R..
0200: F8 FF FF 7F F8 FF FF 7F  73 30 36 36 01 38 02 02  ........s066.8..
0210: 09 10 10 80 00 29 02 52  07 80 F8 FF FF 7F F8 FF  .....).R........
0220: FF 7F 73 30 36 38 01 38  02 52 07 80 F8 FF FF 7F  ..s068.8.R......
0230: F8 FF FF 7F 73 30 34 31  45 07 80 F8 FF FF 7F F8  ....s041E.......
0240: FF FF 7F 73 30 34 32 01  80 27 0B 7F 40 0F 01 3A  ...s042..'..@..:
0250: 2A 0B 7F 40 0F 01 2B 7F  40 0F 01 13 80 23 29 08  *..@..+.@....#).
0260: 7F 40 0F 01 1D 2B 7F 40  0F 01 14 80 23 29 08 7F  .@...+.@....#)..
0270: 40 0F 01 1E 29 0B 63 40  0F 01 06 29 08 7F 40 0F  @...).c@...)..@.
0280: 01 1F 1C 0B 80 52 07 80  F8 FF FF 7F F8 FF FF 7F  .....R..........
0290: 73 30 34 32 45 07 80 F8  FF FF 7F F8 FF FF 7F 73  s042E..........s
02A0: 30 34 34 01 80 79 00 7E  40 0F 01 F0 FF FF 7F 27  044..y.~@......'
02B0: 0B 7E 40 0F 01 44 4A F0  FF FF 7F 7E 40 0F 01 29  .~@..DJ....~@..)
02C0: 08 7F 40 0F 01 20 4A 7F  40 0F 01 7E 40 0F 01 2A  ..@.. J.@..~@..*
02D0: 0B 7E 40 0F 01 4A 7F 40  0F 01 7E 40 0F 01 29 08  .~@..J.@..~@..).
02E0: 7E 40 0F 01 05 2B 7E 40  0F 01 15 80 23 29 08 7E  ~@...+~@....#).~
02F0: 40 0F 01 06 6F 76 7F 40  0F 01 52 07 80 F8 FF FF  @...ov.@..R.....
0300: 7F F8 FF FF 7F 73 30 34  34 45 00 80 F0 FF FF 7F  .....s044E......
0310: F0 FF FF 7F 6F 76 6C 31  01 80 45 07 80 F8 FF FF  ....ovl1..E.....
0320: 7F F8 FF FF 7F 73 30 34  32 01 80 29 0B 63 40 0F  .....s042..).c@.
0330: 01 07 29 08 7F 40 0F 01  05 2B 7F 40 0F 01 16 80  ..)..@...+.@....
0340: 23 45 00 80 F8 FF FF 7F  F8 FF FF 7F 66 64 6F 31  #E..........fdo1
0350: 01 80 1C 02 80 52 07 80  F8 FF FF 7F F8 FF FF 7F  .....R..........
0360: 73 30 34 32 29 08 7F 40  0F 01 06 29 08 7F 40 0F  s042)..@...)..@.
0370: 01 07 29 08 7E 40 0F 01  07 29 08 7F 40 0F 01 08  ..).~@...)..@...
0380: 29 08 7E 40 0F 01 08 29  0B 81 40 0F 01 40 29 0B  ).~@...)..@..@).
0390: 82 40 0F 01 03 29 0B 7E  40 0F 01 45 29 0B 7F 40  .@...).~@..E)..@
03A0: 0F 01 3B 29 0B F0 FF FF  7F 2E 29 0B 80 40 0F 01  ..;)......)..@..
03B0: 31 4A 7F 40 0F 01 81 40  0F 01 6F 76 7F 40 0F 01  1J.@...@..ov.@..
03C0: 79 00 F0 FF FF 7F 7F 40  0F 01 79 00 7E 40 0F 01  y......@..y.~@..
03D0: 7F 40 0F 01 79 00 82 40  0F 01 7F 40 0F 01 79 00  .@..y..@...@..y.
03E0: 81 40 0F 01 7F 40 0F 01  79 00 80 40 0F 01 7F 40  .@...@..y..@...@
03F0: 0F 01 7B 7F 40 0F 01 29  08 7F 40 0F 01 11 29 08  ..{.@..)..@...).
0400: 7F 40 0F 01 12 45 07 80  F8 FF FF 7F F8 FF FF 7F  .@...E..........
0410: 73 30 34 33 01 80 45 00  80 F8 FF FF 7F F8 FF FF  s043..E.........
0420: 7F 66 64 69 31 01 80 1C  00 80 2B 7F 40 0F 01 17  .fdi1.....+.@...
0430: 80 23 79 00 7F 40 0F 01  7E 40 0F 01 29 08 7F 40  .#y..@..~@..)..@
0440: 0F 01 13 2B 7F 40 0F 01  18 80 23 29 08 7F 40 0F  ...+.@....#)..@.
0450: 01 14 79 00 7F 40 0F 01  81 40 0F 01 79 00 7E 40  ..y..@...@..y.~@
0460: 0F 01 81 40 0F 01 79 00  F0 FF FF 7F 81 40 0F 01  ...@..y......@..
0470: 79 00 82 40 0F 01 81 40  0F 01 27 0B 81 40 0F 01  y..@...@..'..@..
0480: 41 1C 19 80 52 07 80 F8  FF FF 7F F8 FF FF 7F 73  A...R..........s
0490: 30 34 33 45 07 80 F8 FF  FF 7F F8 FF FF 7F 73 30  043E..........s0
04A0: 34 35 01 80 2B 81 40 0F  01 1A 80 23 2A 0B 81 40  45..+.@....#*..@
04B0: 0F 01 52 07 80 F8 FF FF  7F F8 FF FF 7F 73 30 34  ..R..........s04
04C0: 35 45 07 80 F8 FF FF 7F  F8 FF FF 7F 73 30 34 36  5E..........s046
04D0: 01 80 4A 7E 40 0F 01 80  40 0F 01 79 00 81 40 0F  ..J~@...@..y..@.
04E0: 01 82 40 0F 01 79 00 82  40 0F 01 7E 40 0F 01 2B  ..@..y..@..~@..+
04F0: 82 40 0F 01 1B 80 23 6F  76 7E 40 0F 01 52 07 80  .@....#ov~@..R..
0500: F8 FF FF 7F F8 FF FF 7F  73 30 34 36 45 07 80 F8  ........s046E...
0510: FF FF 7F F8 FF FF 7F 73  30 34 37 01 80 4A 81 40  .......s047..J.@
0520: 0F 01 7E 40 0F 01 4A 7F  40 0F 01 7E 40 0F 01 79  ..~@..J.@..~@..y
0530: 00 80 40 0F 01 7E 40 0F  01 79 00 7E 40 0F 01 80  ..@..~@..y.~@...
0540: 40 0F 01 27 0B 80 40 0F  01 32 2B 80 40 0F 01 1C  @..'..@..2+.@...
0550: 80 23 2A 0B 80 40 0F 01  29 08 80 40 0F 01 01 2B  .#*..@..)..@...+
0560: 80 40 0F 01 1D 80 23 29  08 80 40 0F 01 02 6F 76  .@....#)..@...ov
0570: 7F 40 0F 01 6F 76 81 40  0F 01 29 08 7E 40 0F 01  .@..ov.@..).~@..
0580: 01 1C 0B 80 52 07 80 F8  FF FF 7F F8 FF FF 7F 73  ....R..........s
0590: 30 34 37 45 07 80 F8 FF  FF 7F F8 FF FF 7F 73 30  047E..........s0
05A0: 34 38 01 80 29 08 80 40  0F 01 03 1C 09 80 79 00  48..)..@......y.
05B0: 7E 40 0F 01 7F 40 0F 01  29 08 7F 40 0F 01 05 2B  ~@...@..)..@...+
05C0: 7F 40 0F 01 1E 80 23 5D  01 80 1F 80 2B 7F 40 0F  .@....#]....+.@.
05D0: 01 20 80 23 29 08 7F 40  0F 01 06 29 08 7E 40 0F  . .#)..@...).~@.
05E0: 01 02 29 08 80 40 0F 01  04 52 07 80 F8 FF FF 7F  ..)..@...R......
05F0: F8 FF FF 7F 73 30 34 38  45 07 80 F8 FF FF 7F F8  ....s048E.......
0600: FF FF 7F 73 30 34 39 01  80 4A 7E 40 0F 01 82 40  ...s049..J~@...@
0610: 0F 01 79 00 7E 40 0F 01  7F 40 0F 01 29 08 7F 40  ..y.~@...@..)..@
0620: 0F 01 0F 2B 7F 40 0F 01  21 80 23 29 08 7F 40 0F  ...+.@..!.#)..@.
0630: 01 10 6F 76 7E 40 0F 01  52 07 80 F8 FF FF 7F F8  ..ov~@..R.......
0640: FF FF 7F 73 30 34 39 45  07 80 F8 FF FF 7F F8 FF  ...s049E........
0650: FF 7F 73 30 35 30 01 80  5C 00 22 80 5C 01 22 80  ..s050..\.".\.".
0660: 29 08 7E 40 0F 01 03 29  08 7F 40 0F 01 03 7B 7E  ).~@...)..@...{~
0670: 40 0F 01 1C 00 80 29 08  7F 40 0F 01 04 29 08 7E  @.....)..@...).~
0680: 40 0F 01 04 52 07 80 F8  FF FF 7F F8 FF FF 7F 73  @...R..........s
0690: 30 35 30 45 00 80 F0 FF  FF 7F F0 FF FF 7F 6F 76  050E..........ov
06A0: 6C 31 01 80 45 07 80 F8  FF FF 7F F8 FF FF 7F 73  l1..E..........s
06B0: 30 35 31 01 80 2B 7E 40  0F 01 23 80 23 29 08 7E  051..+~@..#.#).~
06C0: 40 0F 01 09 2B 7E 40 0F  01 24 80 23 2B 7E 40 0F  @...+~@..$.#+~@.
06D0: 01 25 80 23 29 08 7E 40  0F 01 0A 52 07 80 F8 FF  .%.#).~@...R....
06E0: FF 7F F8 FF FF 7F 73 30  35 31 45 00 80 F0 FF FF  ......s051E.....
06F0: 7F F0 FF FF 7F 6F 76 6C  31 01 80 45 07 80 F8 FF  .....ovl1..E....
0700: FF 7F F8 FF FF 7F 73 30  35 34 01 80 79 00 F0 FF  ......s054..y...
0710: FF 7F 7E 40 0F 01 29 08  7E 40 0F 01 0B 2B 7E 40  ..~@..).~@...+~@
0720: 0F 01 26 80 23 52 07 80  F8 FF FF 7F F8 FF FF 7F  ..&.#R..........
0730: 73 30 35 34 45 00 80 F0  FF FF 7F F0 FF FF 7F 6F  s054E..........o
0740: 76 6C 31 01 80 45 07 80  F8 FF FF 7F F8 FF FF 7F  vl1..E..........
0750: 73 30 35 35 01 80 2B 7E  40 0F 01 27 80 23 29 08  s055..+~@..'.#).
0760: 7E 40 0F 01 0C 52 07 80  F8 FF FF 7F F8 FF FF 7F  ~@...R..........
0770: 73 30 35 35 45 07 80 F8  FF FF 7F F8 FF FF 7F 73  s055E..........s
0780: 30 35 32 01 80 29 08 7E  40 0F 01 09 2B 7E 40 0F  052..).~@...+~@.
0790: 01 28 80 23 29 08 7E 40  0F 01 0A 7B 7F 40 0F 01  .(.#).~@...{.@..
07A0: 29 08 7F 40 0F 01 11 52  07 80 F8 FF FF 7F F8 FF  )..@...R........
07B0: FF 7F 73 30 35 32 45 07  80 F8 FF FF 7F F8 FF FF  ..s052E.........
07C0: 7F 73 30 35 36 01 80 4E  01 F0 FF FF 7F 79 00 7E  .s056..N.....y.~
07D0: 40 0F 01 7F 40 0F 01 79  00 82 40 0F 01 7F 40 0F  @...@..y..@...@.
07E0: 01 29 08 7E 40 0F 01 0B  2B 7F 40 0F 01 29 80 23  .).~@...+.@..).#
07F0: 29 08 7F 40 0F 01 12 29  08 7F 40 0F 01 13 2B 7F  )..@...)..@...+.
0800: 40 0F 01 2A 80 23 29 08  7F 40 0F 01 14 29 08 7E  @..*.#)..@...).~
0810: 40 0F 01 0C 52 07 80 F8  FF FF 7F F8 FF FF 7F 73  @...R..........s
0820: 30 35 36 45 07 80 F8 FF  FF 7F F8 FF FF 7F 73 30  056E..........s0
0830: 35 37 01 80 4E 00 F0 FF  FF 7F 79 00 7F 40 0F 01  57..N.....y..@..
0840: 7E 40 0F 01 4A 82 40 0F  01 7E 40 0F 01 29 08 80  ~@..J.@..~@..)..
0850: 40 0F 01 05 29 08 7F 40  0F 01 26 2B 7F 40 0F 01  @...)..@..&+.@..
0860: 2B 80 23 29 08 7F 40 0F  01 27 29 08 7F 40 0F 01  +.#)..@..')..@..
0870: 29 2B 7F 40 0F 01 2C 80  23 29 08 80 40 0F 01 06  )+.@..,.#)..@...
0880: 6F 76 82 40 0F 01 52 07  80 F8 FF FF 7F F8 FF FF  ov.@..R.........
0890: 7F 73 30 35 37 45 07 80  F8 FF FF 7F F8 FF FF 7F  .s057E..........
08A0: 73 30 35 38 01 80 7B 7E  40 0F 01 4A F0 FF FF 7F  s058..{~@..J....
08B0: 7E 40 0F 01 29 08 7F 40  0F 01 28 2B 80 40 0F 01  ~@..)..@..(+.@..
08C0: 2D 80 23 29 08 80 40 0F  01 07 2B 80 40 0F 01 2E  -.#)..@...+.@...
08D0: 80 23 29 08 80 40 0F 01  08 2B 82 40 0F 01 2F 80  .#)..@...+.@../.
08E0: 23 6F 76 F0 FF FF 7F 52  07 80 F8 FF FF 7F F8 FF  #ov....R........
08F0: FF 7F 73 30 35 38 45 07  80 F8 FF FF 7F F8 FF FF  ..s058E.........
0900: 7F 73 30 35 39 01 80 27  0B 7E 40 0F 01 46 2B 7E  .s059..'.~@..F+~
0910: 40 0F 01 30 80 23 2A 0B  7E 40 0F 01 4A 7E 40 0F  @..0.#*.~@..J~@.
0920: 01 82 40 0F 01 6F 76 7E  40 0F 01 29 08 7E 40 0F  ..@..ov~@..).~@.
0930: 01 33 2B 7E 40 0F 01 31  80 23 5D 01 80 1F 80 45  .3+~@..1.#]....E
0940: 00 80 F8 FF FF 7F F8 FF  FF 7F 66 64 6F 31 01 80  ..........fdo1..
0950: 1C 02 80 29 08 7E 40 0F  01 34 52 07 80 F8 FF FF  ...).~@..4R.....
0960: 7F F8 FF FF 7F 73 30 35  39 45 07 80 F8 FF FF 7F  .....s059E......
0970: F8 FF FF 7F 73 30 36 30  01 80 45 00 80 F8 FF FF  ....s060..E.....
0980: 7F F8 FF FF 7F 66 64 69  31 01 80 7B 7F 40 0F 01  .....fdi1..{.@..
0990: 29 0B 63 40 0F 01 06 27  0B 7E 40 0F 01 47 2B 7F  ).c@...'.~@..G+.
09A0: 40 0F 01 32 80 23 29 0B  82 40 0F 01 03 29 0B 81  @..2.#)..@...)..
09B0: 40 0F 01 42 29 0B 80 40  0F 01 33 29 0B 7F 40 0F  @..B)..@..3)..@.
09C0: 01 3C 29 0B F0 FF FF 7F  2F 52 07 80 F8 FF FF 7F  .<)...../R......
09D0: F8 FF FF 7F 73 30 36 30  45 07 80 F8 FF FF 7F F8  ....s060E.......
09E0: FF FF 7F 73 30 36 32 01  80 5C 00 05 80 5C 01 05  ...s062..\...\..
09F0: 80 79 00 80 40 0F 01 7F  40 0F 01 79 00 81 40 0F  .y..@...@..y..@.
0A00: 01 7F 40 0F 01 79 00 82  40 0F 01 7F 40 0F 01 29  ..@..y..@...@..)
0A10: 08 7F 40 0F 01 1D 7C 00  7F 40 0F 01 2B 7F 40 0F  ..@...|..@..+.@.
0A20: 01 33 80 23 7C 01 7F 40  0F 01 1C 09 80 52 07 80  .3.#|..@.....R..
0A30: F8 FF FF 7F F8 FF FF 7F  73 30 36 32 45 00 80 F0  ........s062E...
0A40: FF FF 7F F0 FF FF 7F 6F  76 6C 31 01 80 45 07 80  .......ovl1..E..
0A50: F8 FF FF 7F F8 FF FF 7F  73 30 36 31 01 80 4E 01  ........s061..N.
0A60: F0 FF FF 7F 29 0B 80 40  0F 01 34 2B 80 40 0F 01  ....)..@..4+.@..
0A70: 34 80 23 6F 76 7F 40 0F  01 7B 80 40 0F 01 27 0B  4.#ov.@..{.@..'.
0A80: 80 40 0F 01 35 29 0B 81  40 0F 01 43 2B 81 40 0F  .@..5)..@..C+.@.
0A90: 01 35 80 23 7B 81 40 0F  01 27 0B 81 40 0F 01 44  .5.#{.@..'..@..D
0AA0: 1C 36 80 29 08 7F 40 0F  01 1E 29 0B 82 40 0F 01  .6.)..@...)..@..
0AB0: 05 2B 82 40 0F 01 37 80  23 7B 82 40 0F 01 27 0B  .+.@..7.#{.@..'.
0AC0: 82 40 0F 01 06 2A 0B 82  40 0F 01 29 08 7F 40 0F  .@...*..@..)..@.
0AD0: 01 1F 29 08 7F 40 0F 01  20 52 07 80 F8 FF FF 7F  ..)..@.. R......
0AE0: F8 FF FF 7F 73 30 36 31  02 09 10 0D 80 00 04 0B  ....s061........
0AF0: 45 07 80 F8 FF FF 7F F8  FF FF 7F 73 30 36 39 01  E..........s069.
0B00: 80 01 69 0B 02 09 10 0E  80 00 20 0B 45 07 80 F8  ..i....... .E...
0B10: FF FF 7F F8 FF FF 7F 73  30 36 37 01 80 01 69 0B  .......s067...i.
0B20: 02 09 10 0F 80 00 3C 0B  45 07 80 F8 FF FF 7F F8  ......<.E.......
0B30: FF FF 7F 73 30 36 37 01  80 01 69 0B 02 09 10 10  ...s067...i.....
0B40: 80 00 58 0B 45 07 80 F8  FF FF 7F F8 FF FF 7F 73  ..X.E..........s
0B50: 30 36 39 01 80 01 69 0B  45 07 80 F8 FF FF 7F F8  069...i.E.......
0B60: FF FF 7F 73 30 36 33 01  80 4E 00 F0 FF FF 7F 79  ...s063..N.....y
0B70: 00 7F 40 0F 01 F0 FF FF  7F 79 00 F0 FF FF 7F 7F  ..@......y......
0B80: 40 0F 01 4B 7F 40 0F 01  38 80 6F 76 7F 40 0F 01  @..K.@..8.ov.@..
0B90: 2B 7F 40 0F 01 39 80 23  2B 7F 40 0F 01 3A 80 23  +.@..9.#+.@..:.#
0BA0: 02 09 10 0D 80 00 BA 0B  52 07 80 F8 FF FF 7F F8  ........R.......
0BB0: FF FF 7F 73 30 36 39 01  17 0C 02 09 10 0E 80 00  ...s069.........
0BC0: D4 0B 52 07 80 F8 FF FF  7F F8 FF FF 7F 73 30 36  ..R..........s06
0BD0: 37 01 17 0C 02 09 10 0F  80 00 EE 0B 52 07 80 F8  7...........R...
0BE0: FF FF 7F F8 FF FF 7F 73  30 36 37 01 17 0C 02 09  .......s067.....
0BF0: 10 10 80 00 08 0C 52 07  80 F8 FF FF 7F F8 FF FF  ......R.........
0C00: 7F 73 30 36 39 01 17 0C  52 07 80 F8 FF FF 7F F8  .s069...R.......
0C10: FF FF 7F 73 30 36 33 03  00 00 01 80 02 00 00 01  ...s063.........
0C20: 80 00 5F 0E 24 3B 80 01  80 01 80 25 02 00 10 01  .._.$;.....%....
0C30: 80 00 26 0D 03 01 10 3C  80 45 07 80 F8 FF FF 7F  ..&....<.E......
0C40: F8 FF FF 7F 73 30 35 33  01 80 7B 7F 40 0F 01 2B  ....s053..{.@..+
0C50: 7F 40 0F 01 3D 80 23 79  00 7F 40 0F 01 F0 FF FF  .@..=.#y..@.....
0C60: 7F 2B 7F 40 0F 01 3E 80  23 52 07 80 F8 FF FF 7F  .+.@..>.#R......
0C70: F8 FF FF 7F 73 30 35 33  02 09 10 0D 80 00 94 0C  ....s053........
0C80: 45 07 80 F8 FF FF 7F F8  FF FF 7F 73 30 37 30 01  E..........s070.
0C90: 80 01 C1 0C 02 09 10 10  80 00 B0 0C 45 07 80 F8  ............E...
0CA0: FF FF 7F F8 FF FF 7F 73  30 37 30 01 80 01 C1 0C  .......s070.....
0CB0: 45 07 80 F8 FF FF 7F F8  FF FF 7F 73 30 36 34 01  E..........s064.
0CC0: 80 7B 7F 40 0F 01 27 0B  7F 40 0F 01 3D 2B 7F 40  .{.@..'..@..=+.@
0CD0: 0F 01 3F 80 23 2A 0B 7F  40 0F 01 02 09 10 0D 80  ..?.#*..@.......
0CE0: 00 F5 0C 52 07 80 F8 FF  FF 7F F8 FF FF 7F 73 30  ...R..........s0
0CF0: 37 30 01 1E 0D 02 09 10  10 80 00 0F 0D 52 07 80  70...........R..
0D00: F8 FF FF 7F F8 FF FF 7F  73 30 37 30 01 1E 0D 52  ........s070...R
0D10: 07 80 F8 FF FF 7F F8 FF  FF 7F 73 30 36 34 03 00  ..........s064..
0D20: 00 3C 80 01 5C 0E 02 00  10 3C 80 00 11 0E 03 01  .<..\....<......
0D30: 10 40 80 45 07 80 F8 FF  FF 7F F8 FF FF 7F 73 30  .@.E..........s0
0D40: 35 33 01 80 2B 7F 40 0F  01 41 80 23 7B 7F 40 0F  53..+.@..A.#{.@.
0D50: 01 2B 7F 40 0F 01 42 80  23 52 07 80 F8 FF FF 7F  .+.@..B.#R......
0D60: F8 FF FF 7F 73 30 35 33  02 09 10 0D 80 00 84 0D  ....s053........
0D70: 45 07 80 F8 FF FF 7F F8  FF FF 7F 73 30 37 30 01  E..........s070.
0D80: 80 01 B1 0D 02 09 10 10  80 00 A0 0D 45 07 80 F8  ............E...
0D90: FF FF 7F F8 FF FF 7F 73  30 37 30 01 80 01 B1 0D  .......s070.....
0DA0: 45 07 80 F8 FF FF 7F F8  FF FF 7F 73 30 36 34 01  E..........s064.
0DB0: 80 27 0B 7F 40 0F 01 3D  2B 7F 40 0F 01 43 80 23  .'..@..=+.@..C.#
0DC0: 2A 0B 7F 40 0F 01 02 09  10 0D 80 00 E0 0D 52 07  *..@..........R.
0DD0: 80 F8 FF FF 7F F8 FF FF  7F 73 30 37 30 01 09 0E  .........s070...
0DE0: 02 09 10 10 80 00 FA 0D  52 07 80 F8 FF FF 7F F8  ........R.......
0DF0: FF FF 7F 73 30 37 30 01  09 0E 52 07 80 F8 FF FF  ...s070...R.....
0E00: 7F F8 FF FF 7F 73 30 36  34 03 00 00 3C 80 01 5C  .....s064...<..\
0E10: 0E 02 00 10 40 80 00 5C  0E 03 01 10 0D 80 7B 7F  ....@..\......{.
0E20: 40 0F 01 29 08 7F 40 0F  01 11 2B 7F 40 0F 01 44  @..)..@...+.@..D
0E30: 80 23 29 08 7F 40 0F 01  12 79 00 7F 40 0F 01 F0  .#)..@...y..@...
0E40: FF FF 7F 29 08 7F 40 0F  01 13 2B 7F 40 0F 01 45  ...)..@...+.@..E
0E50: 80 23 29 08 7F 40 0F 01  14 01 5C 0E 01 1C 0C 45  .#)..@....\....E
0E60: 07 80 F8 FF FF 7F F8 FF  FF 7F 73 30 36 35 01 80  ..........s065..
0E70: 4A 7F 40 0F 01 F0 FF FF  7F 6F 76 7F 40 0F 01 29  J.@......ov.@..)
0E80: 08 7F 40 0F 01 32 2B 7F  40 0F 01 46 80 23 29 08  ..@..2+.@..F.#).
0E90: 7F 40 0F 01 33 29 08 7F  40 0F 01 34 2B 7F 40 0F  .@..3)..@..4+.@.
0EA0: 01 47 80 23 2B 7F 40 0F  01 48 80 23 29 08 7F 40  .G.#+.@..H.#)..@
0EB0: 0F 01 35 52 07 80 F8 FF  FF 7F F8 FF FF 7F 73 30  ..5R..........s0
0EC0: 36 35 5D 01 80 1F 80 45  07 80 F8 FF FF 7F F8 FF  65]....E........
0ED0: FF 7F 73 30 36 30 01 80  27 0B 7F 40 0F 01 3E 1C  ..s060..'..@..>.
0EE0: 36 80 45 00 80 F0 FF FF  7F F0 FF FF 7F 66 64 6F  6.E..........fdo
0EF0: 31 01 80 1C 02 80 52 07  80 F8 FF FF 7F F8 FF FF  1.....R.........
0F00: 7F 73 30 36 30 29 0B 63  40 0F 01 07 5C 00 49 80  .s060).c@...\.I.
0F10: 5C 01 49 80 1C 06 80 4E  00 F0 FF FF 7F 80 F0 FF  \.I....N........
0F20: FF 7F 46 00 45 00 80 F0  FF FF 7F F0 FF FF 7F 66  ..F.E..........f
0F30: 64 69 31 01 80 20 00 21  00                       di1.. .!.       
```

#### Opcodes

```
  0: 0x0006 [0x20] SET_CLI_EVENT_UC_FLAG: Lock player control
  1: 0x0008 [0x42] SET_CLI_EVENT_CANCEL_DATA()
  2: 0x0009 [0x46] CAMERA_CONTROL: Disable user control
  3: 0x000B [0x45] LOAD_SCHEDULED_TASK: Load scheduler "fdo1" with entities [EventEntity, EventEntity], work=[200*, 0*]
  4: 0x001C [0x1C] WAIT(60* ticks)
  5: 0x001F [0x38] SET_CLIENT_EVENT_MODE(mode=19*)
  6: 0x0022 [0x29] REQ_SET_WAIT(priority=0x08, entity_id=LocalPlayer, tag_num=0x29)
  7: 0x0029 [0x75] LOAD_ROOM(Load indoor room, room=448*)
  8: 0x002D [0x75] LOAD_ROOM(No action)
  9: 0x002F [0x29] REQ_SET_WAIT(priority=0x0B, entity_id=LocalPlayer, tag_num=0x2C)
 10: 0x0036 [0x29] REQ_SET_WAIT(priority=0x0B, entity_id=Jabbos (ID: 17776770/0x010F4082), tag_num=0x02)
 11: 0x003D [0x29] REQ_SET_WAIT(priority=0x0B, entity_id=Shikaree Z (ID: 17776768/0x010F4080), tag_num=0x30)
 12: 0x0044 [0x29] REQ_SET_WAIT(priority=0x0B, entity_id=Louverance (ID: 17776769/0x010F4081), tag_num=0x3F)
 13: 0x004B [0x29] REQ_SET_WAIT(priority=0x0B, entity_id=Tenzen (ID: 17776767/0x010F407F), tag_num=0x38)
 14: 0x0052 [0x29] REQ_SET_WAIT(priority=0x0B, entity_id=Ulmia (ID: 17776766/0x010F407E), tag_num=0x43)
 15: 0x0059 [0x4E] SET_ENTITY_HIDE_FLAG: Show Jabbos (ID: 17776770/0x010F4082)
 16: 0x005F [0x4E] SET_ENTITY_HIDE_FLAG: Show Shikaree Z (ID: 17776768/0x010F4080)
 17: 0x0065 [0x4E] SET_ENTITY_HIDE_FLAG: Show Louverance (ID: 17776769/0x010F4081)
 18: 0x006B [0x4E] SET_ENTITY_HIDE_FLAG: Show Tenzen (ID: 17776767/0x010F407F)
 19: 0x0071 [0x4E] SET_ENTITY_HIDE_FLAG: Show Ulmia (ID: 17776766/0x010F407E)
 20: 0x0077 [0x80] LOAD_WAIT(entity=Jabbos (ID: 17776770/0x010F4082))
 21: 0x007C [0x80] LOAD_WAIT(entity=Shikaree Z (ID: 17776768/0x010F4080))
 22: 0x0081 [0x80] LOAD_WAIT(entity=Louverance (ID: 17776769/0x010F4081))
 23: 0x0086 [0x80] LOAD_WAIT(entity=Tenzen (ID: 17776767/0x010F407F))
 24: 0x008B [0x80] LOAD_WAIT(entity=Ulmia (ID: 17776766/0x010F407E))
 25: 0x0090 [0x5C] MUSIC_CONTROL: Set Idle (Day) music to song 127*
 26: 0x0094 [0x5C] MUSIC_CONTROL: Set Idle (Night) music to song 127*
 27: 0x0098 [0x1C] WAIT(100* ticks)
 28: 0x009B [0x45] LOAD_SCHEDULED_TASK: Load scheduler "s040" with entities [EventEntity, EventEntity], work=[172*, 0*]
 29: 0x00AC [0x45] LOAD_SCHEDULED_TASK: Load scheduler "fdi1" with entities [EventEntity, EventEntity], work=[200*, 0*]
 30: 0x00BD [0x1C] WAIT(180* ticks)
 31: 0x00C0 [0x79] Shikaree Z (ID: 17776768/0x010F4080) looks at LocalPlayer (Basic look)
 32: 0x00CA [0x79] Louverance (ID: 17776769/0x010F4081) looks at LocalPlayer (Basic look)
 33: 0x00D4 [0x1C] WAIT(30* ticks)
 34: 0x00D7 [0x4B] UPDATE_ENTITY_YAW(entity=Louverance (ID: 17776769/0x010F4081), yaw=18.0°*)
 35: 0x00DE [0x4A] Tenzen (ID: 17776767/0x010F407F) looks at LocalPlayer
 36: 0x00E7 [0x29] REQ_SET_WAIT(priority=0x0B, entity_id=Door:"Marble Bridge" (ID: 17776739/0x010F4063), tag_num=0x06)
 37: 0x00EE [0x27] REQ_SET(priority=0x0B, entity_id=LocalPlayer, tag_num=0x2D)
 38: 0x00F5 [0x1C] WAIT(20* ticks)
 39: 0x00F8 [0x4A] Jabbos (ID: 17776770/0x010F4082) looks at LocalPlayer
 40: 0x0101 [0x1C] WAIT(40* ticks)
 41: 0x0104 [0x6F] WAIT_FRAME_DELAY: Yield until WaitTime reaches zero
 42: 0x0105 [0x76] CHECK_ENTITY_RENDER_FLAGS: Wait until Tenzen (ID: 17776767/0x010F407F) Render.Flags0 and Render.Flags3 conditions are met
 43: 0x010A [0x27] REQ_SET(priority=0x0B, entity_id=Tenzen (ID: 17776767/0x010F407F), tag_num=0x39)
 44: 0x0111 [0x1C] WAIT(40* ticks)
 45: 0x0114 [0x29] REQ_SET_WAIT(priority=0x0B, entity_id=Door:"Marble Bridge" (ID: 17776739/0x010F4063), tag_num=0x07)
 46: 0x011B [0x52] END_LOAD_SCHEDULER: End scheduler "s040" with entities [EventEntity, EventEntity], work=172*
 47: 0x012A [0x02] IF !(Work_Zone[9] == 3*) GOTO 0x0146
 48: 0x0132 [0x45] LOAD_SCHEDULED_TASK: Load scheduler "s068" with entities [EventEntity, EventEntity], work=[172*, 0*]
 49: 0x0143 [0x01] GOTO 0x01AB
 50: 0x0146 [0x02] IF !(Work_Zone[9] == 5*) GOTO 0x0162
 51: 0x014E [0x45] LOAD_SCHEDULED_TASK: Load scheduler "s066" with entities [EventEntity, EventEntity], work=[172*, 0*]
 52: 0x015F [0x01] GOTO 0x01AB
 53: 0x0162 [0x02] IF !(Work_Zone[9] == 6*) GOTO 0x017E
 54: 0x016A [0x45] LOAD_SCHEDULED_TASK: Load scheduler "s066" with entities [EventEntity, EventEntity], work=[172*, 0*]
 55: 0x017B [0x01] GOTO 0x01AB
 56: 0x017E [0x02] IF !(Work_Zone[9] == 8*) GOTO 0x019A
 57: 0x0186 [0x45] LOAD_SCHEDULED_TASK: Load scheduler "s068" with entities [EventEntity, EventEntity], work=[172*, 0*]
 58: 0x0197 [0x01] GOTO 0x01AB
 59: 0x019A [0x45] LOAD_SCHEDULED_TASK: Load scheduler "s041" with entities [EventEntity, EventEntity], work=[172*, 0*]

SUBROUTINE_01AB:
 60: 0x01AB [0x2B] Tenzen (ID: 17776767/0x010F407F) [8407*]:
    → "<Player>, it is good to see you."
 61: 0x01B2 [0x23] WAIT_FOR_DIALOG_INTERACTION
 62: 0x01B3 [0x2A] GET_REQ_LEVEL(level=11, entity_id=LocalPlayer)
 63: 0x01B9 [0x2B] Tenzen (ID: 17776767/0x010F407F) [8408*]:
    → "We have finally grasped the entire tapestry that our separate tales have woven."
 64: 0x01C0 [0x23] WAIT_FOR_DIALOG_INTERACTION
 65: 0x01C1 [0x02] IF !(Work_Zone[9] == 3*) GOTO 0x01DB
 66: 0x01C9 [0x52] END_LOAD_SCHEDULER: End scheduler "s068" with entities [EventEntity, EventEntity], work=172*
 67: 0x01D8 [0x01] GOTO 0x0238
 68: 0x01DB [0x02] IF !(Work_Zone[9] == 5*) GOTO 0x01F5
 69: 0x01E3 [0x52] END_LOAD_SCHEDULER: End scheduler "s066" with entities [EventEntity, EventEntity], work=172*
 70: 0x01F2 [0x01] GOTO 0x0238
 71: 0x01F5 [0x02] IF !(Work_Zone[9] == 6*) GOTO 0x020F
 72: 0x01FD [0x52] END_LOAD_SCHEDULER: End scheduler "s066" with entities [EventEntity, EventEntity], work=172*
 73: 0x020C [0x01] GOTO 0x0238
 74: 0x020F [0x02] IF !(Work_Zone[9] == 8*) GOTO 0x0229
 75: 0x0217 [0x52] END_LOAD_SCHEDULER: End scheduler "s068" with entities [EventEntity, EventEntity], work=172*
 76: 0x0226 [0x01] GOTO 0x0238
 77: 0x0229 [0x52] END_LOAD_SCHEDULER: End scheduler "s041" with entities [EventEntity, EventEntity], work=172*

SUBROUTINE_0238:
 78: 0x0238 [0x45] LOAD_SCHEDULED_TASK: Load scheduler "s042" with entities [EventEntity, EventEntity], work=[172*, 0*]
 79: 0x0249 [0x27] REQ_SET(priority=0x0B, entity_id=Tenzen (ID: 17776767/0x010F407F), tag_num=0x3A)
 80: 0x0250 [0x2A] GET_REQ_LEVEL(level=11, entity_id=Tenzen (ID: 17776767/0x010F407F))
 81: 0x0256 [0x2B] Tenzen (ID: 17776767/0x010F407F) [8409*]:
    → "I never believed that something like this was possible."
 82: 0x025D [0x23] WAIT_FOR_DIALOG_INTERACTION
 83: 0x025E [0x29] REQ_SET_WAIT(priority=0x08, entity_id=Tenzen (ID: 17776767/0x010F407F), tag_num=0x1D)
 84: 0x0265 [0x2B] Tenzen (ID: 17776767/0x010F407F) [8410*]:
    → "I suggest you prepare yourself before Lady Ulmia arrives."
 85: 0x026C [0x23] WAIT_FOR_DIALOG_INTERACTION
 86: 0x026D [0x29] REQ_SET_WAIT(priority=0x08, entity_id=Tenzen (ID: 17776767/0x010F407F), tag_num=0x1E)
 87: 0x0274 [0x29] REQ_SET_WAIT(priority=0x0B, entity_id=Door:"Marble Bridge" (ID: 17776739/0x010F4063), tag_num=0x06)
 88: 0x027B [0x29] REQ_SET_WAIT(priority=0x08, entity_id=Tenzen (ID: 17776767/0x010F407F), tag_num=0x1F)
 89: 0x0282 [0x1C] WAIT(20* ticks)
 90: 0x0285 [0x52] END_LOAD_SCHEDULER: End scheduler "s042" with entities [EventEntity, EventEntity], work=172*
 91: 0x0294 [0x45] LOAD_SCHEDULED_TASK: Load scheduler "s044" with entities [EventEntity, EventEntity], work=[172*, 0*]
 92: 0x02A5 [0x79] Ulmia (ID: 17776766/0x010F407E) looks at LocalPlayer (Basic look)
 93: 0x02AF [0x27] REQ_SET(priority=0x0B, entity_id=Ulmia (ID: 17776766/0x010F407E), tag_num=0x44)
 94: 0x02B6 [0x4A] LocalPlayer looks at Ulmia (ID: 17776766/0x010F407E)
 95: 0x02BF [0x29] REQ_SET_WAIT(priority=0x08, entity_id=Tenzen (ID: 17776767/0x010F407F), tag_num=0x20)
 96: 0x02C6 [0x4A] Tenzen (ID: 17776767/0x010F407F) looks at Ulmia (ID: 17776766/0x010F407E)
 97: 0x02CF [0x2A] GET_REQ_LEVEL(level=11, entity_id=Ulmia (ID: 17776766/0x010F407E))
 98: 0x02D5 [0x4A] Tenzen (ID: 17776767/0x010F407F) looks at Ulmia (ID: 17776766/0x010F407E)
 99: 0x02DE [0x29] REQ_SET_WAIT(priority=0x08, entity_id=Ulmia (ID: 17776766/0x010F407E), tag_num=0x05)
100: 0x02E5 [0x2B] Ulmia (ID: 17776766/0x010F407E) [8411*]:
    → "Why is everyone so quiet? Is something wrong?"
101: 0x02EC [0x23] WAIT_FOR_DIALOG_INTERACTION
102: 0x02ED [0x29] REQ_SET_WAIT(priority=0x08, entity_id=Ulmia (ID: 17776766/0x010F407E), tag_num=0x06)
103: 0x02F4 [0x6F] WAIT_FRAME_DELAY: Yield until WaitTime reaches zero
104: 0x02F5 [0x76] CHECK_ENTITY_RENDER_FLAGS: Wait until Tenzen (ID: 17776767/0x010F407F) Render.Flags0 and Render.Flags3 conditions are met
105: 0x02FA [0x52] END_LOAD_SCHEDULER: End scheduler "s044" with entities [EventEntity, EventEntity], work=172*
106: 0x0309 [0x45] LOAD_SCHEDULED_TASK: Load scheduler "ovl1" with entities [LocalPlayer, LocalPlayer], work=[200*, 0*]
107: 0x031A [0x45] LOAD_SCHEDULED_TASK: Load scheduler "s042" with entities [EventEntity, EventEntity], work=[172*, 0*]
108: 0x032B [0x29] REQ_SET_WAIT(priority=0x0B, entity_id=Door:"Marble Bridge" (ID: 17776739/0x010F4063), tag_num=0x07)
109: 0x0332 [0x29] REQ_SET_WAIT(priority=0x08, entity_id=Tenzen (ID: 17776767/0x010F407F), tag_num=0x05)
110: 0x0339 [0x2B] Tenzen (ID: 17776767/0x010F407F) [8412*]:
    → "Lady Ulmia, we have been waiting for you. Will you steel your heart and listen to the story we have to tell?"
111: 0x0340 [0x23] WAIT_FOR_DIALOG_INTERACTION
112: 0x0341 [0x45] LOAD_SCHEDULED_TASK: Load scheduler "fdo1" with entities [EventEntity, EventEntity], work=[200*, 0*]
113: 0x0352 [0x1C] WAIT(60* ticks)
114: 0x0355 [0x52] END_LOAD_SCHEDULER: End scheduler "s042" with entities [EventEntity, EventEntity], work=172*
115: 0x0364 [0x29] REQ_SET_WAIT(priority=0x08, entity_id=Tenzen (ID: 17776767/0x010F407F), tag_num=0x06)
116: 0x036B [0x29] REQ_SET_WAIT(priority=0x08, entity_id=Tenzen (ID: 17776767/0x010F407F), tag_num=0x07)
117: 0x0372 [0x29] REQ_SET_WAIT(priority=0x08, entity_id=Ulmia (ID: 17776766/0x010F407E), tag_num=0x07)
118: 0x0379 [0x29] REQ_SET_WAIT(priority=0x08, entity_id=Tenzen (ID: 17776767/0x010F407F), tag_num=0x08)
119: 0x0380 [0x29] REQ_SET_WAIT(priority=0x08, entity_id=Ulmia (ID: 17776766/0x010F407E), tag_num=0x08)
120: 0x0387 [0x29] REQ_SET_WAIT(priority=0x0B, entity_id=Louverance (ID: 17776769/0x010F4081), tag_num=0x40)
121: 0x038E [0x29] REQ_SET_WAIT(priority=0x0B, entity_id=Jabbos (ID: 17776770/0x010F4082), tag_num=0x03)
122: 0x0395 [0x29] REQ_SET_WAIT(priority=0x0B, entity_id=Ulmia (ID: 17776766/0x010F407E), tag_num=0x45)
123: 0x039C [0x29] REQ_SET_WAIT(priority=0x0B, entity_id=Tenzen (ID: 17776767/0x010F407F), tag_num=0x3B)
124: 0x03A3 [0x29] REQ_SET_WAIT(priority=0x0B, entity_id=LocalPlayer, tag_num=0x2E)
125: 0x03AA [0x29] REQ_SET_WAIT(priority=0x0B, entity_id=Shikaree Z (ID: 17776768/0x010F4080), tag_num=0x31)
126: 0x03B1 [0x4A] Tenzen (ID: 17776767/0x010F407F) looks at Louverance (ID: 17776769/0x010F4081)
127: 0x03BA [0x6F] WAIT_FRAME_DELAY: Yield until WaitTime reaches zero
128: 0x03BB [0x76] CHECK_ENTITY_RENDER_FLAGS: Wait until Tenzen (ID: 17776767/0x010F407F) Render.Flags0 and Render.Flags3 conditions are met
129: 0x03C0 [0x79] LocalPlayer looks at Tenzen (ID: 17776767/0x010F407F) (Basic look)
130: 0x03CA [0x79] Ulmia (ID: 17776766/0x010F407E) looks at Tenzen (ID: 17776767/0x010F407F) (Basic look)
131: 0x03D4 [0x79] Jabbos (ID: 17776770/0x010F4082) looks at Tenzen (ID: 17776767/0x010F407F) (Basic look)
132: 0x03DE [0x79] Louverance (ID: 17776769/0x010F4081) looks at Tenzen (ID: 17776767/0x010F407F) (Basic look)
133: 0x03E8 [0x79] Shikaree Z (ID: 17776768/0x010F4080) looks at Tenzen (ID: 17776767/0x010F407F) (Basic look)
134: 0x03F2 [0x7B] Tenzen (ID: 17776767/0x010F407F) stops talking
135: 0x03F7 [0x29] REQ_SET_WAIT(priority=0x08, entity_id=Tenzen (ID: 17776767/0x010F407F), tag_num=0x11)
136: 0x03FE [0x29] REQ_SET_WAIT(priority=0x08, entity_id=Tenzen (ID: 17776767/0x010F407F), tag_num=0x12)
137: 0x0405 [0x45] LOAD_SCHEDULED_TASK: Load scheduler "s043" with entities [EventEntity, EventEntity], work=[172*, 0*]
138: 0x0416 [0x45] LOAD_SCHEDULED_TASK: Load scheduler "fdi1" with entities [EventEntity, EventEntity], work=[200*, 0*]
139: 0x0427 [0x1C] WAIT(200* ticks)
140: 0x042A [0x2B] Tenzen (ID: 17776767/0x010F407F) [8413*]:
    → "Of course, we have tried to refute this conclusion and find some other explanation."
141: 0x0431 [0x23] WAIT_FOR_DIALOG_INTERACTION
142: 0x0432 [0x79] Tenzen (ID: 17776767/0x010F407F) looks at Ulmia (ID: 17776766/0x010F407E) (Basic look)
143: 0x043C [0x29] REQ_SET_WAIT(priority=0x08, entity_id=Tenzen (ID: 17776767/0x010F407F), tag_num=0x13)
144: 0x0443 [0x2B] Tenzen (ID: 17776767/0x010F407F) [8414*]:
    → "However, we now know that the boy, Selh'teus, has come to thwart the plans of the ancient ones and steal the light of the crystals."
145: 0x044A [0x23] WAIT_FOR_DIALOG_INTERACTION
146: 0x044B [0x29] REQ_SET_WAIT(priority=0x08, entity_id=Tenzen (ID: 17776767/0x010F407F), tag_num=0x14)
147: 0x0452 [0x79] Tenzen (ID: 17776767/0x010F407F) looks at Louverance (ID: 17776769/0x010F4081) (Basic look)
148: 0x045C [0x79] Ulmia (ID: 17776766/0x010F407E) looks at Louverance (ID: 17776769/0x010F4081) (Basic look)
149: 0x0466 [0x79] LocalPlayer looks at Louverance (ID: 17776769/0x010F4081) (Basic look)
150: 0x0470 [0x79] Jabbos (ID: 17776770/0x010F4082) looks at Louverance (ID: 17776769/0x010F4081) (Basic look)
151: 0x047A [0x27] REQ_SET(priority=0x0B, entity_id=Louverance (ID: 17776769/0x010F4081), tag_num=0x41)
152: 0x0481 [0x1C] WAIT(10* ticks)
153: 0x0484 [0x52] END_LOAD_SCHEDULER: End scheduler "s043" with entities [EventEntity, EventEntity], work=172*
154: 0x0493 [0x45] LOAD_SCHEDULED_TASK: Load scheduler "s045" with entities [EventEntity, EventEntity], work=[172*, 0*]
155: 0x04A4 [0x2B] Louverance (ID: 17776769/0x010F4081) [8415*]:
    → "We also know that the Divinity of Darkness that rules over the Kindred was not Promathia after all."
156: 0x04AB [0x23] WAIT_FOR_DIALOG_INTERACTION
157: 0x04AC [0x2A] GET_REQ_LEVEL(level=11, entity_id=Louverance (ID: 17776769/0x010F4081))
158: 0x04B2 [0x52] END_LOAD_SCHEDULER: End scheduler "s045" with entities [EventEntity, EventEntity], work=172*
159: 0x04C1 [0x45] LOAD_SCHEDULED_TASK: Load scheduler "s046" with entities [EventEntity, EventEntity], work=[172*, 0*]
160: 0x04D2 [0x4A] Ulmia (ID: 17776766/0x010F407E) looks at Shikaree Z (ID: 17776768/0x010F4080)
161: 0x04DB [0x79] Louverance (ID: 17776769/0x010F4081) looks at Jabbos (ID: 17776770/0x010F4082) (Basic look)
162: 0x04E5 [0x79] Jabbos (ID: 17776770/0x010F4082) looks at Ulmia (ID: 17776766/0x010F407E) (Basic look)
163: 0x04EF [0x2B] Jabbos (ID: 17776770/0x010F4082) [8416*]:
    → "But...the Moblins...heard from...the Divinity of Darkness...that the...Keeper of the Apocalypse...has already...arisen."
164: 0x04F6 [0x23] WAIT_FOR_DIALOG_INTERACTION
165: 0x04F7 [0x6F] WAIT_FRAME_DELAY: Yield until WaitTime reaches zero
166: 0x04F8 [0x76] CHECK_ENTITY_RENDER_FLAGS: Wait until Ulmia (ID: 17776766/0x010F407E) Render.Flags0 and Render.Flags3 conditions are met
167: 0x04FD [0x52] END_LOAD_SCHEDULER: End scheduler "s046" with entities [EventEntity, EventEntity], work=172*
168: 0x050C [0x45] LOAD_SCHEDULED_TASK: Load scheduler "s047" with entities [EventEntity, EventEntity], work=[172*, 0*]
169: 0x051D [0x4A] Louverance (ID: 17776769/0x010F4081) looks at Ulmia (ID: 17776766/0x010F407E)
170: 0x0526 [0x4A] Tenzen (ID: 17776767/0x010F407F) looks at Ulmia (ID: 17776766/0x010F407E)
171: 0x052F [0x79] Shikaree Z (ID: 17776768/0x010F4080) looks at Ulmia (ID: 17776766/0x010F407E) (Basic look)
172: 0x0539 [0x79] Ulmia (ID: 17776766/0x010F407E) looks at Shikaree Z (ID: 17776768/0x010F4080) (Basic look)
173: 0x0543 [0x27] REQ_SET(priority=0x0B, entity_id=Shikaree Z (ID: 17776768/0x010F4080), tag_num=0x32)
174: 0x054A [0x2B] Shikaree Z (ID: 17776768/0x010F4080) [8417*]:
    → "And surely you have seen the magicite imbedded in Prishe's chest?"
175: 0x0551 [0x23] WAIT_FOR_DIALOG_INTERACTION
176: 0x0552 [0x2A] GET_REQ_LEVEL(level=11, entity_id=Shikaree Z (ID: 17776768/0x010F4080))
177: 0x0558 [0x29] REQ_SET_WAIT(priority=0x08, entity_id=Shikaree Z (ID: 17776768/0x010F4080), tag_num=0x01)
178: 0x055F [0x2B] Shikaree Z (ID: 17776768/0x010F4080) [8418*]:
    → "According to your explanation, that stone contained the Emptiness of the Twilight God, Promathia."
179: 0x0566 [0x23] WAIT_FOR_DIALOG_INTERACTION
180: 0x0567 [0x29] REQ_SET_WAIT(priority=0x08, entity_id=Shikaree Z (ID: 17776768/0x010F4080), tag_num=0x02)
181: 0x056E [0x6F] WAIT_FRAME_DELAY: Yield until WaitTime reaches zero
182: 0x056F [0x76] CHECK_ENTITY_RENDER_FLAGS: Wait until Tenzen (ID: 17776767/0x010F407F) Render.Flags0 and Render.Flags3 conditions are met
183: 0x0574 [0x6F] WAIT_FRAME_DELAY: Yield until WaitTime reaches zero
184: 0x0575 [0x76] CHECK_ENTITY_RENDER_FLAGS: Wait until Louverance (ID: 17776769/0x010F4081) Render.Flags0 and Render.Flags3 conditions are met
185: 0x057A [0x29] REQ_SET_WAIT(priority=0x08, entity_id=Ulmia (ID: 17776766/0x010F407E), tag_num=0x01)
186: 0x0581 [0x1C] WAIT(20* ticks)
187: 0x0584 [0x52] END_LOAD_SCHEDULER: End scheduler "s047" with entities [EventEntity, EventEntity], work=172*
188: 0x0593 [0x45] LOAD_SCHEDULED_TASK: Load scheduler "s048" with entities [EventEntity, EventEntity], work=[172*, 0*]
189: 0x05A4 [0x29] REQ_SET_WAIT(priority=0x08, entity_id=Shikaree Z (ID: 17776768/0x010F4080), tag_num=0x03)
190: 0x05AB [0x1C] WAIT(30* ticks)
191: 0x05AE [0x79] Ulmia (ID: 17776766/0x010F407E) looks at Tenzen (ID: 17776767/0x010F407F) (Basic look)
192: 0x05B8 [0x29] REQ_SET_WAIT(priority=0x08, entity_id=Tenzen (ID: 17776767/0x010F407F), tag_num=0x05)
193: 0x05BF [0x2B] Tenzen (ID: 17776767/0x010F407F) [8419*]:
    → "Lady Ulmia. This must come as a shock for one so close to Lady Prishe."
194: 0x05C6 [0x23] WAIT_FOR_DIALOG_INTERACTION
195: 0x05C7 [0x5D] SET_MUSIC_VOLUME(volume=0*, fade_time=120*)
196: 0x05CC [0x2B] Tenzen (ID: 17776767/0x010F407F) [8420*]:
    → "But I must inform you of the facts I have learned from the terrestrial avatars Carbuncle and Fenrir."
197: 0x05D3 [0x23] WAIT_FOR_DIALOG_INTERACTION
198: 0x05D4 [0x29] REQ_SET_WAIT(priority=0x08, entity_id=Tenzen (ID: 17776767/0x010F407F), tag_num=0x06)
199: 0x05DB [0x29] REQ_SET_WAIT(priority=0x08, entity_id=Ulmia (ID: 17776766/0x010F407E), tag_num=0x02)
200: 0x05E2 [0x29] REQ_SET_WAIT(priority=0x08, entity_id=Shikaree Z (ID: 17776768/0x010F4080), tag_num=0x04)
201: 0x05E9 [0x52] END_LOAD_SCHEDULER: End scheduler "s048" with entities [EventEntity, EventEntity], work=172*
202: 0x05F8 [0x45] LOAD_SCHEDULED_TASK: Load scheduler "s049" with entities [EventEntity, EventEntity], work=[172*, 0*]
203: 0x0609 [0x4A] Ulmia (ID: 17776766/0x010F407E) looks at Jabbos (ID: 17776770/0x010F4082)
204: 0x0612 [0x79] Ulmia (ID: 17776766/0x010F407E) looks at Tenzen (ID: 17776767/0x010F407F) (Basic look)
205: 0x061C [0x29] REQ_SET_WAIT(priority=0x08, entity_id=Tenzen (ID: 17776767/0x010F407F), tag_num=0x0F)
206: 0x0623 [0x2B] Tenzen (ID: 17776767/0x010F407F) [8421*]:
    → "After ten thousand years, the Keeper of the Apocalypse was fated to be born in the nation of Tavnazia!"
207: 0x062A [0x23] WAIT_FOR_DIALOG_INTERACTION
208: 0x062B [0x29] REQ_SET_WAIT(priority=0x08, entity_id=Tenzen (ID: 17776767/0x010F407F), tag_num=0x10)
209: 0x0632 [0x6F] WAIT_FRAME_DELAY: Yield until WaitTime reaches zero
210: 0x0633 [0x76] CHECK_ENTITY_RENDER_FLAGS: Wait until Ulmia (ID: 17776766/0x010F407E) Render.Flags0 and Render.Flags3 conditions are met
211: 0x0638 [0x52] END_LOAD_SCHEDULER: End scheduler "s049" with entities [EventEntity, EventEntity], work=172*
212: 0x0647 [0x45] LOAD_SCHEDULED_TASK: Load scheduler "s050" with entities [EventEntity, EventEntity], work=[172*, 0*]
213: 0x0658 [0x5C] MUSIC_CONTROL: Set Idle (Day) music to song 231*
214: 0x065C [0x5C] MUSIC_CONTROL: Set Idle (Night) music to song 231*
215: 0x0660 [0x29] REQ_SET_WAIT(priority=0x08, entity_id=Ulmia (ID: 17776766/0x010F407E), tag_num=0x03)
216: 0x0667 [0x29] REQ_SET_WAIT(priority=0x08, entity_id=Tenzen (ID: 17776767/0x010F407F), tag_num=0x03)
217: 0x066E [0x7B] Ulmia (ID: 17776766/0x010F407E) stops talking
218: 0x0673 [0x1C] WAIT(200* ticks)
219: 0x0676 [0x29] REQ_SET_WAIT(priority=0x08, entity_id=Tenzen (ID: 17776767/0x010F407F), tag_num=0x04)
220: 0x067D [0x29] REQ_SET_WAIT(priority=0x08, entity_id=Ulmia (ID: 17776766/0x010F407E), tag_num=0x04)
221: 0x0684 [0x52] END_LOAD_SCHEDULER: End scheduler "s050" with entities [EventEntity, EventEntity], work=172*
222: 0x0693 [0x45] LOAD_SCHEDULED_TASK: Load scheduler "ovl1" with entities [LocalPlayer, LocalPlayer], work=[200*, 0*]
223: 0x06A4 [0x45] LOAD_SCHEDULED_TASK: Load scheduler "s051" with entities [EventEntity, EventEntity], work=[172*, 0*]
224: 0x06B5 [0x2B] Ulmia (ID: 17776766/0x010F407E) [8422*]:
    → "Surely you are not saying that this keeper you speak of is Prishe!"
225: 0x06BC [0x23] WAIT_FOR_DIALOG_INTERACTION
226: 0x06BD [0x29] REQ_SET_WAIT(priority=0x08, entity_id=Ulmia (ID: 17776766/0x010F407E), tag_num=0x09)
227: 0x06C4 [0x2B] Ulmia (ID: 17776766/0x010F407E) [8423*]:
    → "That is impossible! I refuse to believe it!"
228: 0x06CB [0x23] WAIT_FOR_DIALOG_INTERACTION
229: 0x06CC [0x2B] Ulmia (ID: 17776766/0x010F407E) [8424*]:
    → "We have been friends since the time before Tavnazia's destruction!"
230: 0x06D3 [0x23] WAIT_FOR_DIALOG_INTERACTION
231: 0x06D4 [0x29] REQ_SET_WAIT(priority=0x08, entity_id=Ulmia (ID: 17776766/0x010F407E), tag_num=0x0A)
232: 0x06DB [0x52] END_LOAD_SCHEDULER: End scheduler "s051" with entities [EventEntity, EventEntity], work=172*
233: 0x06EA [0x45] LOAD_SCHEDULED_TASK: Load scheduler "ovl1" with entities [LocalPlayer, LocalPlayer], work=[200*, 0*]
234: 0x06FB [0x45] LOAD_SCHEDULED_TASK: Load scheduler "s054" with entities [EventEntity, EventEntity], work=[172*, 0*]
235: 0x070C [0x79] LocalPlayer looks at Ulmia (ID: 17776766/0x010F407E) (Basic look)
236: 0x0716 [0x29] REQ_SET_WAIT(priority=0x08, entity_id=Ulmia (ID: 17776766/0x010F407E), tag_num=0x0B)
237: 0x071D [0x2B] Ulmia (ID: 17776766/0x010F407E) [8425*]:
    → "I can honestly say that I have never met a person more pure of heart."
238: 0x0724 [0x23] WAIT_FOR_DIALOG_INTERACTION
239: 0x0725 [0x52] END_LOAD_SCHEDULER: End scheduler "s054" with entities [EventEntity, EventEntity], work=172*
240: 0x0734 [0x45] LOAD_SCHEDULED_TASK: Load scheduler "ovl1" with entities [LocalPlayer, LocalPlayer], work=[200*, 0*]
241: 0x0745 [0x45] LOAD_SCHEDULED_TASK: Load scheduler "s055" with entities [EventEntity, EventEntity], work=[172*, 0*]
242: 0x0756 [0x2B] Ulmia (ID: 17776766/0x010F407E) [8426*]:
    → "She has more faith, and more courage..."
243: 0x075D [0x23] WAIT_FOR_DIALOG_INTERACTION
244: 0x075E [0x29] REQ_SET_WAIT(priority=0x08, entity_id=Ulmia (ID: 17776766/0x010F407E), tag_num=0x0C)
245: 0x0765 [0x52] END_LOAD_SCHEDULER: End scheduler "s055" with entities [EventEntity, EventEntity], work=172*
246: 0x0774 [0x45] LOAD_SCHEDULED_TASK: Load scheduler "s052" with entities [EventEntity, EventEntity], work=[172*, 0*]
247: 0x0785 [0x29] REQ_SET_WAIT(priority=0x08, entity_id=Ulmia (ID: 17776766/0x010F407E), tag_num=0x09)
248: 0x078C [0x2B] Ulmia (ID: 17776766/0x010F407E) [8427*]:
    → "How could she be the Keeper of the Apocalypse and still urge Diabolos to save the world?"
249: 0x0793 [0x23] WAIT_FOR_DIALOG_INTERACTION
250: 0x0794 [0x29] REQ_SET_WAIT(priority=0x08, entity_id=Ulmia (ID: 17776766/0x010F407E), tag_num=0x0A)
251: 0x079B [0x7B] Tenzen (ID: 17776767/0x010F407F) stops talking
252: 0x07A0 [0x29] REQ_SET_WAIT(priority=0x08, entity_id=Tenzen (ID: 17776767/0x010F407F), tag_num=0x11)
253: 0x07A7 [0x52] END_LOAD_SCHEDULER: End scheduler "s052" with entities [EventEntity, EventEntity], work=172*
254: 0x07B6 [0x45] LOAD_SCHEDULED_TASK: Load scheduler "s056" with entities [EventEntity, EventEntity], work=[172*, 0*]
255: 0x07C7 [0x4E] SET_ENTITY_HIDE_FLAG: Hide LocalPlayer
256: 0x07CD [0x79] Ulmia (ID: 17776766/0x010F407E) looks at Tenzen (ID: 17776767/0x010F407F) (Basic look)
257: 0x07D7 [0x79] Jabbos (ID: 17776770/0x010F4082) looks at Tenzen (ID: 17776767/0x010F407F) (Basic look)
258: 0x07E1 [0x29] REQ_SET_WAIT(priority=0x08, entity_id=Ulmia (ID: 17776766/0x010F407E), tag_num=0x0B)
259: 0x07E8 [0x2B] Tenzen (ID: 17776767/0x010F407F) [8428*]:
    → "It is true that I do not know of anyone who possesses the zest for life that Prishe has."
260: 0x07EF [0x23] WAIT_FOR_DIALOG_INTERACTION
261: 0x07F0 [0x29] REQ_SET_WAIT(priority=0x08, entity_id=Tenzen (ID: 17776767/0x010F407F), tag_num=0x12)
262: 0x07F7 [0x29] REQ_SET_WAIT(priority=0x08, entity_id=Tenzen (ID: 17776767/0x010F407F), tag_num=0x13)
263: 0x07FE [0x2B] Tenzen (ID: 17776767/0x010F407F) [8429*]:
    → "And if we had but the time and the knowledge, we would rescue Lady Prishe from this destiny."
264: 0x0805 [0x23] WAIT_FOR_DIALOG_INTERACTION
265: 0x0806 [0x29] REQ_SET_WAIT(priority=0x08, entity_id=Tenzen (ID: 17776767/0x010F407F), tag_num=0x14)
266: 0x080D [0x29] REQ_SET_WAIT(priority=0x08, entity_id=Ulmia (ID: 17776766/0x010F407E), tag_num=0x0C)
267: 0x0814 [0x52] END_LOAD_SCHEDULER: End scheduler "s056" with entities [EventEntity, EventEntity], work=172*
268: 0x0823 [0x45] LOAD_SCHEDULED_TASK: Load scheduler "s057" with entities [EventEntity, EventEntity], work=[172*, 0*]
269: 0x0834 [0x4E] SET_ENTITY_HIDE_FLAG: Show LocalPlayer
270: 0x083A [0x79] Tenzen (ID: 17776767/0x010F407F) looks at Ulmia (ID: 17776766/0x010F407E) (Basic look)
271: 0x0844 [0x4A] Jabbos (ID: 17776770/0x010F4082) looks at Ulmia (ID: 17776766/0x010F407E)
272: 0x084D [0x29] REQ_SET_WAIT(priority=0x08, entity_id=Shikaree Z (ID: 17776768/0x010F4080), tag_num=0x05)
273: 0x0854 [0x29] REQ_SET_WAIT(priority=0x08, entity_id=Tenzen (ID: 17776767/0x010F407F), tag_num=0x26)
274: 0x085B [0x2B] Tenzen (ID: 17776767/0x010F407F) [8430*]:
    → "However, we have no time remaining."
275: 0x0862 [0x23] WAIT_FOR_DIALOG_INTERACTION
276: 0x0863 [0x29] REQ_SET_WAIT(priority=0x08, entity_id=Tenzen (ID: 17776767/0x010F407F), tag_num=0x27)
277: 0x086A [0x29] REQ_SET_WAIT(priority=0x08, entity_id=Tenzen (ID: 17776767/0x010F407F), tag_num=0x29)
278: 0x0871 [0x2B] Tenzen (ID: 17776767/0x010F407F) [8431*]:
    → "A duty lies before us: Lord Bahamut and his minions must be stopped!"
279: 0x0878 [0x23] WAIT_FOR_DIALOG_INTERACTION
280: 0x0879 [0x29] REQ_SET_WAIT(priority=0x08, entity_id=Shikaree Z (ID: 17776768/0x010F4080), tag_num=0x06)
281: 0x0880 [0x6F] WAIT_FRAME_DELAY: Yield until WaitTime reaches zero
282: 0x0881 [0x76] CHECK_ENTITY_RENDER_FLAGS: Wait until Jabbos (ID: 17776770/0x010F4082) Render.Flags0 and Render.Flags3 conditions are met
283: 0x0886 [0x52] END_LOAD_SCHEDULER: End scheduler "s057" with entities [EventEntity, EventEntity], work=172*
284: 0x0895 [0x45] LOAD_SCHEDULED_TASK: Load scheduler "s058" with entities [EventEntity, EventEntity], work=[172*, 0*]
285: 0x08A6 [0x7B] Ulmia (ID: 17776766/0x010F407E) stops talking
286: 0x08AB [0x4A] LocalPlayer looks at Ulmia (ID: 17776766/0x010F407E)
287: 0x08B4 [0x29] REQ_SET_WAIT(priority=0x08, entity_id=Tenzen (ID: 17776767/0x010F407F), tag_num=0x28)
288: 0x08BB [0x2B] Shikaree Z (ID: 17776768/0x010F4080) [8432*]:
    → "And if Cardinal Mildaurion is still alive as we believe, she will be planning to use Prishe to awaken the Twilight God."
289: 0x08C2 [0x23] WAIT_FOR_DIALOG_INTERACTION
290: 0x08C3 [0x29] REQ_SET_WAIT(priority=0x08, entity_id=Shikaree Z (ID: 17776768/0x010F4080), tag_num=0x07)
291: 0x08CA [0x2B] Shikaree Z (ID: 17776768/0x010F4080) [8433*]:
    → "With Prishe and her magicite in the cardinal's possession, the world is one step away from oblivion!"
292: 0x08D1 [0x23] WAIT_FOR_DIALOG_INTERACTION
293: 0x08D2 [0x29] REQ_SET_WAIT(priority=0x08, entity_id=Shikaree Z (ID: 17776768/0x010F4080), tag_num=0x08)
294: 0x08D9 [0x2B] Jabbos (ID: 17776770/0x010F4082) [8434*]:
    → "When Promathia...awakens...there will be...no stopping...the Moblins."
295: 0x08E0 [0x23] WAIT_FOR_DIALOG_INTERACTION
296: 0x08E1 [0x6F] WAIT_FRAME_DELAY: Yield until WaitTime reaches zero
297: 0x08E2 [0x76] CHECK_ENTITY_RENDER_FLAGS: Wait until LocalPlayer Render.Flags0 and Render.Flags3 conditions are met
298: 0x08E7 [0x52] END_LOAD_SCHEDULER: End scheduler "s058" with entities [EventEntity, EventEntity], work=172*
299: 0x08F6 [0x45] LOAD_SCHEDULED_TASK: Load scheduler "s059" with entities [EventEntity, EventEntity], work=[172*, 0*]
300: 0x0907 [0x27] REQ_SET(priority=0x0B, entity_id=Ulmia (ID: 17776766/0x010F407E), tag_num=0x46)
301: 0x090E [0x2B] Ulmia (ID: 17776766/0x010F407E) [8435*]:
    → "Stop it, all of you. You truly intend to do away with Prishe if it means the plans of Wyrmking Bahamut will be prevented?"
302: 0x0915 [0x23] WAIT_FOR_DIALOG_INTERACTION
303: 0x0916 [0x2A] GET_REQ_LEVEL(level=11, entity_id=Ulmia (ID: 17776766/0x010F407E))
304: 0x091C [0x4A] Ulmia (ID: 17776766/0x010F407E) looks at Jabbos (ID: 17776770/0x010F4082)
305: 0x0925 [0x6F] WAIT_FRAME_DELAY: Yield until WaitTime reaches zero
306: 0x0926 [0x76] CHECK_ENTITY_RENDER_FLAGS: Wait until Ulmia (ID: 17776766/0x010F407E) Render.Flags0 and Render.Flags3 conditions are met
307: 0x092B [0x29] REQ_SET_WAIT(priority=0x08, entity_id=Ulmia (ID: 17776766/0x010F407E), tag_num=0x33)
308: 0x0932 [0x2B] Ulmia (ID: 17776766/0x010F407E) [8436*]:
    → "That is something I cannot do!"
309: 0x0939 [0x23] WAIT_FOR_DIALOG_INTERACTION
310: 0x093A [0x5D] SET_MUSIC_VOLUME(volume=0*, fade_time=120*)
311: 0x093F [0x45] LOAD_SCHEDULED_TASK: Load scheduler "fdo1" with entities [EventEntity, EventEntity], work=[200*, 0*]
312: 0x0950 [0x1C] WAIT(60* ticks)
313: 0x0953 [0x29] REQ_SET_WAIT(priority=0x08, entity_id=Ulmia (ID: 17776766/0x010F407E), tag_num=0x34)
314: 0x095A [0x52] END_LOAD_SCHEDULER: End scheduler "s059" with entities [EventEntity, EventEntity], work=172*
315: 0x0969 [0x45] LOAD_SCHEDULED_TASK: Load scheduler "s060" with entities [EventEntity, EventEntity], work=[172*, 0*]
316: 0x097A [0x45] LOAD_SCHEDULED_TASK: Load scheduler "fdi1" with entities [EventEntity, EventEntity], work=[200*, 0*]
317: 0x098B [0x7B] Tenzen (ID: 17776767/0x010F407F) stops talking
318: 0x0990 [0x29] REQ_SET_WAIT(priority=0x0B, entity_id=Door:"Marble Bridge" (ID: 17776739/0x010F4063), tag_num=0x06)
319: 0x0997 [0x27] REQ_SET(priority=0x0B, entity_id=Ulmia (ID: 17776766/0x010F407E), tag_num=0x47)
320: 0x099E [0x2B] Tenzen (ID: 17776767/0x010F407F) [8437*]:
    → "Lady Ulmia!"
321: 0x09A5 [0x23] WAIT_FOR_DIALOG_INTERACTION
322: 0x09A6 [0x29] REQ_SET_WAIT(priority=0x0B, entity_id=Jabbos (ID: 17776770/0x010F4082), tag_num=0x03)
323: 0x09AD [0x29] REQ_SET_WAIT(priority=0x0B, entity_id=Louverance (ID: 17776769/0x010F4081), tag_num=0x42)
324: 0x09B4 [0x29] REQ_SET_WAIT(priority=0x0B, entity_id=Shikaree Z (ID: 17776768/0x010F4080), tag_num=0x33)
325: 0x09BB [0x29] REQ_SET_WAIT(priority=0x0B, entity_id=Tenzen (ID: 17776767/0x010F407F), tag_num=0x3C)
326: 0x09C2 [0x29] REQ_SET_WAIT(priority=0x0B, entity_id=LocalPlayer, tag_num=0x2F)
327: 0x09C9 [0x52] END_LOAD_SCHEDULER: End scheduler "s060" with entities [EventEntity, EventEntity], work=172*
328: 0x09D8 [0x45] LOAD_SCHEDULED_TASK: Load scheduler "s062" with entities [EventEntity, EventEntity], work=[172*, 0*]
329: 0x09E9 [0x5C] MUSIC_CONTROL: Set Idle (Day) music to song 127*
330: 0x09ED [0x5C] MUSIC_CONTROL: Set Idle (Night) music to song 127*
331: 0x09F1 [0x79] Shikaree Z (ID: 17776768/0x010F4080) looks at Tenzen (ID: 17776767/0x010F407F) (Basic look)
332: 0x09FB [0x79] Louverance (ID: 17776769/0x010F4081) looks at Tenzen (ID: 17776767/0x010F407F) (Basic look)
333: 0x0A05 [0x79] Jabbos (ID: 17776770/0x010F4082) looks at Tenzen (ID: 17776767/0x010F407F) (Basic look)
334: 0x0A0F [0x29] REQ_SET_WAIT(priority=0x08, entity_id=Tenzen (ID: 17776767/0x010F407F), tag_num=0x1D)
335: 0x0A16 [0x7C] Tenzen (ID: 17776767/0x010F407F)->Render.Flags2 |= 0x00
336: 0x0A1C [0x2B] Tenzen (ID: 17776767/0x010F407F) [8438*]:
    → "..."
337: 0x0A23 [0x23] WAIT_FOR_DIALOG_INTERACTION
338: 0x0A24 [0x7C] Tenzen (ID: 17776767/0x010F407F)->Render.Flags2 |= 0x01
339: 0x0A2A [0x1C] WAIT(30* ticks)
340: 0x0A2D [0x52] END_LOAD_SCHEDULER: End scheduler "s062" with entities [EventEntity, EventEntity], work=172*
341: 0x0A3C [0x45] LOAD_SCHEDULED_TASK: Load scheduler "ovl1" with entities [LocalPlayer, LocalPlayer], work=[200*, 0*]
342: 0x0A4D [0x45] LOAD_SCHEDULED_TASK: Load scheduler "s061" with entities [EventEntity, EventEntity], work=[172*, 0*]
343: 0x0A5E [0x4E] SET_ENTITY_HIDE_FLAG: Hide LocalPlayer
344: 0x0A64 [0x29] REQ_SET_WAIT(priority=0x0B, entity_id=Shikaree Z (ID: 17776768/0x010F4080), tag_num=0x34)
345: 0x0A6B [0x2B] Shikaree Z (ID: 17776768/0x010F4080) [8439*]:
    → "Let her be. The first thing we have to do is rrrescue Prishe from the Grand Duke Palace. I'll start working on a plan."
346: 0x0A72 [0x23] WAIT_FOR_DIALOG_INTERACTION
347: 0x0A73 [0x6F] WAIT_FRAME_DELAY: Yield until WaitTime reaches zero
348: 0x0A74 [0x76] CHECK_ENTITY_RENDER_FLAGS: Wait until Tenzen (ID: 17776767/0x010F407F) Render.Flags0 and Render.Flags3 conditions are met
349: 0x0A79 [0x7B] Shikaree Z (ID: 17776768/0x010F4080) stops talking
350: 0x0A7E [0x27] REQ_SET(priority=0x0B, entity_id=Shikaree Z (ID: 17776768/0x010F4080), tag_num=0x35)
351: 0x0A85 [0x29] REQ_SET_WAIT(priority=0x0B, entity_id=Louverance (ID: 17776769/0x010F4081), tag_num=0x43)
352: 0x0A8C [0x2B] Louverance (ID: 17776769/0x010F4081) [8440*]:
    → "I will call upon some old acquaintances. They may be able to help us."
353: 0x0A93 [0x23] WAIT_FOR_DIALOG_INTERACTION
354: 0x0A94 [0x7B] Louverance (ID: 17776769/0x010F4081) stops talking
355: 0x0A99 [0x27] REQ_SET(priority=0x0B, entity_id=Louverance (ID: 17776769/0x010F4081), tag_num=0x44)
356: 0x0AA0 [0x1C] WAIT(90* ticks)
357: 0x0AA3 [0x29] REQ_SET_WAIT(priority=0x08, entity_id=Tenzen (ID: 17776767/0x010F407F), tag_num=0x1E)
358: 0x0AAA [0x29] REQ_SET_WAIT(priority=0x0B, entity_id=Jabbos (ID: 17776770/0x010F4082), tag_num=0x05)
359: 0x0AB1 [0x2B] Jabbos (ID: 17776770/0x010F4082) [8441*]:
    → "I wish...no more lives...to be lost. I...will do...what I can."
360: 0x0AB8 [0x23] WAIT_FOR_DIALOG_INTERACTION
361: 0x0AB9 [0x7B] Jabbos (ID: 17776770/0x010F4082) stops talking
362: 0x0ABE [0x27] REQ_SET(priority=0x0B, entity_id=Jabbos (ID: 17776770/0x010F4082), tag_num=0x06)
363: 0x0AC5 [0x2A] GET_REQ_LEVEL(level=11, entity_id=Jabbos (ID: 17776770/0x010F4082))
364: 0x0ACB [0x29] REQ_SET_WAIT(priority=0x08, entity_id=Tenzen (ID: 17776767/0x010F407F), tag_num=0x1F)
365: 0x0AD2 [0x29] REQ_SET_WAIT(priority=0x08, entity_id=Tenzen (ID: 17776767/0x010F407F), tag_num=0x20)
366: 0x0AD9 [0x52] END_LOAD_SCHEDULER: End scheduler "s061" with entities [EventEntity, EventEntity], work=172*
367: 0x0AE8 [0x02] IF !(Work_Zone[9] == 3*) GOTO 0x0B04
368: 0x0AF0 [0x45] LOAD_SCHEDULED_TASK: Load scheduler "s069" with entities [EventEntity, EventEntity], work=[172*, 0*]
369: 0x0B01 [0x01] GOTO 0x0B69
370: 0x0B04 [0x02] IF !(Work_Zone[9] == 5*) GOTO 0x0B20
371: 0x0B0C [0x45] LOAD_SCHEDULED_TASK: Load scheduler "s067" with entities [EventEntity, EventEntity], work=[172*, 0*]
372: 0x0B1D [0x01] GOTO 0x0B69
373: 0x0B20 [0x02] IF !(Work_Zone[9] == 6*) GOTO 0x0B3C
374: 0x0B28 [0x45] LOAD_SCHEDULED_TASK: Load scheduler "s067" with entities [EventEntity, EventEntity], work=[172*, 0*]
375: 0x0B39 [0x01] GOTO 0x0B69
376: 0x0B3C [0x02] IF !(Work_Zone[9] == 8*) GOTO 0x0B58
377: 0x0B44 [0x45] LOAD_SCHEDULED_TASK: Load scheduler "s069" with entities [EventEntity, EventEntity], work=[172*, 0*]
378: 0x0B55 [0x01] GOTO 0x0B69
379: 0x0B58 [0x45] LOAD_SCHEDULED_TASK: Load scheduler "s063" with entities [EventEntity, EventEntity], work=[172*, 0*]

SUBROUTINE_0B69:
380: 0x0B69 [0x4E] SET_ENTITY_HIDE_FLAG: Show LocalPlayer
381: 0x0B6F [0x79] Tenzen (ID: 17776767/0x010F407F) looks at LocalPlayer (Basic look)
382: 0x0B79 [0x79] LocalPlayer looks at Tenzen (ID: 17776767/0x010F407F) (Basic look)
383: 0x0B83 [0x4B] UPDATE_ENTITY_YAW(entity=Tenzen (ID: 17776767/0x010F407F), yaw=16.9°*)
384: 0x0B8A [0x6F] WAIT_FRAME_DELAY: Yield until WaitTime reaches zero
385: 0x0B8B [0x76] CHECK_ENTITY_RENDER_FLAGS: Wait until Tenzen (ID: 17776767/0x010F407F) Render.Flags0 and Render.Flags3 conditions are met
386: 0x0B90 [0x2B] Tenzen (ID: 17776767/0x010F407F) [8442*]:
    → "<Player>."
387: 0x0B97 [0x23] WAIT_FOR_DIALOG_INTERACTION
388: 0x0B98 [0x2B] Tenzen (ID: 17776767/0x010F407F) [8443*]:
    → "Do you agree with our decision?"
389: 0x0B9F [0x23] WAIT_FOR_DIALOG_INTERACTION
390: 0x0BA0 [0x02] IF !(Work_Zone[9] == 3*) GOTO 0x0BBA
391: 0x0BA8 [0x52] END_LOAD_SCHEDULER: End scheduler "s069" with entities [EventEntity, EventEntity], work=172*
392: 0x0BB7 [0x01] GOTO 0x0C17
393: 0x0BBA [0x02] IF !(Work_Zone[9] == 5*) GOTO 0x0BD4
394: 0x0BC2 [0x52] END_LOAD_SCHEDULER: End scheduler "s067" with entities [EventEntity, EventEntity], work=172*
395: 0x0BD1 [0x01] GOTO 0x0C17
396: 0x0BD4 [0x02] IF !(Work_Zone[9] == 6*) GOTO 0x0BEE
397: 0x0BDC [0x52] END_LOAD_SCHEDULER: End scheduler "s067" with entities [EventEntity, EventEntity], work=172*
398: 0x0BEB [0x01] GOTO 0x0C17
399: 0x0BEE [0x02] IF !(Work_Zone[9] == 8*) GOTO 0x0C08
400: 0x0BF6 [0x52] END_LOAD_SCHEDULER: End scheduler "s069" with entities [EventEntity, EventEntity], work=172*
401: 0x0C05 [0x01] GOTO 0x0C17
402: 0x0C08 [0x52] END_LOAD_SCHEDULER: End scheduler "s063" with entities [EventEntity, EventEntity], work=172*

SUBROUTINE_0C17:
403: 0x0C17 [0x03] ExtData[1]->WorkLocal[0] = 0*

SUBROUTINE_0C1C:
404: 0x0C1C [0x02] IF !(ExtData[1]->WorkLocal[0] == 0*) GOTO 0x0E5F
405: 0x0C24 [0x24] CREATE_DIALOG(message_id=8444*, default_option=0*, option_flags=0*)
    → "Do you agree? [No, I don't./There's no other way./What decision?]"
406: 0x0C2B [0x25] WAIT_DIALOG_SELECT()
407: 0x0C2C [0x02] IF !(Work_Zone[0] == 0*) GOTO 0x0D26
408: 0x0C34 [0x03] Work_Zone[1] = 1*
409: 0x0C39 [0x45] LOAD_SCHEDULED_TASK: Load scheduler "s053" with entities [EventEntity, EventEntity], work=[172*, 0*]
410: 0x0C4A [0x7B] Tenzen (ID: 17776767/0x010F407F) stops talking
411: 0x0C4F [0x2B] Tenzen (ID: 17776767/0x010F407F) [8445*]:
    → "Do not let our actions concern you."
412: 0x0C56 [0x23] WAIT_FOR_DIALOG_INTERACTION
413: 0x0C57 [0x79] Tenzen (ID: 17776767/0x010F407F) looks at LocalPlayer (Basic look)
414: 0x0C61 [0x2B] Tenzen (ID: 17776767/0x010F407F) [8446*]:
    → "You are free to follow your own path from here."
415: 0x0C68 [0x23] WAIT_FOR_DIALOG_INTERACTION
416: 0x0C69 [0x52] END_LOAD_SCHEDULER: End scheduler "s053" with entities [EventEntity, EventEntity], work=172*
417: 0x0C78 [0x02] IF !(Work_Zone[9] == 3*) GOTO 0x0C94
418: 0x0C80 [0x45] LOAD_SCHEDULED_TASK: Load scheduler "s070" with entities [EventEntity, EventEntity], work=[172*, 0*]
419: 0x0C91 [0x01] GOTO 0x0CC1
420: 0x0C94 [0x02] IF !(Work_Zone[9] == 8*) GOTO 0x0CB0
421: 0x0C9C [0x45] LOAD_SCHEDULED_TASK: Load scheduler "s070" with entities [EventEntity, EventEntity], work=[172*, 0*]
422: 0x0CAD [0x01] GOTO 0x0CC1
423: 0x0CB0 [0x45] LOAD_SCHEDULED_TASK: Load scheduler "s064" with entities [EventEntity, EventEntity], work=[172*, 0*]

SUBROUTINE_0CC1:
424: 0x0CC1 [0x7B] Tenzen (ID: 17776767/0x010F407F) stops talking
425: 0x0CC6 [0x27] REQ_SET(priority=0x0B, entity_id=Tenzen (ID: 17776767/0x010F407F), tag_num=0x3D)
426: 0x0CCD [0x2B] Tenzen (ID: 17776767/0x010F407F) [8447*]:
    → "I only ask that you look after Lady Ulmia. She did not take this news well."
427: 0x0CD4 [0x23] WAIT_FOR_DIALOG_INTERACTION
428: 0x0CD5 [0x2A] GET_REQ_LEVEL(level=11, entity_id=Tenzen (ID: 17776767/0x010F407F))
429: 0x0CDB [0x02] IF !(Work_Zone[9] == 3*) GOTO 0x0CF5
430: 0x0CE3 [0x52] END_LOAD_SCHEDULER: End scheduler "s070" with entities [EventEntity, EventEntity], work=172*
431: 0x0CF2 [0x01] GOTO 0x0D1E
432: 0x0CF5 [0x02] IF !(Work_Zone[9] == 8*) GOTO 0x0D0F
433: 0x0CFD [0x52] END_LOAD_SCHEDULER: End scheduler "s070" with entities [EventEntity, EventEntity], work=172*
434: 0x0D0C [0x01] GOTO 0x0D1E
435: 0x0D0F [0x52] END_LOAD_SCHEDULER: End scheduler "s064" with entities [EventEntity, EventEntity], work=172*

SUBROUTINE_0D1E:
436: 0x0D1E [0x03] ExtData[1]->WorkLocal[0] = 1*
437: 0x0D23 [0x01] GOTO 0x0E5C
438: 0x0D26 [0x02] IF !(Work_Zone[0] == 1*) GOTO 0x0E11
439: 0x0D2E [0x03] Work_Zone[1] = 2*
440: 0x0D33 [0x45] LOAD_SCHEDULED_TASK: Load scheduler "s053" with entities [EventEntity, EventEntity], work=[172*, 0*]
441: 0x0D44 [0x2B] Tenzen (ID: 17776767/0x010F407F) [8451*]:
    → "You understand what we have all agreed to here? We have come to a brutal and bloody conclusion."
442: 0x0D4B [0x23] WAIT_FOR_DIALOG_INTERACTION
443: 0x0D4C [0x7B] Tenzen (ID: 17776767/0x010F407F) stops talking
444: 0x0D51 [0x2B] Tenzen (ID: 17776767/0x010F407F) [8452*]:
    → "Although no one life holds more importance than another, I have a duty to save the world, no matter the cost."
445: 0x0D58 [0x23] WAIT_FOR_DIALOG_INTERACTION
446: 0x0D59 [0x52] END_LOAD_SCHEDULER: End scheduler "s053" with entities [EventEntity, EventEntity], work=172*
447: 0x0D68 [0x02] IF !(Work_Zone[9] == 3*) GOTO 0x0D84
448: 0x0D70 [0x45] LOAD_SCHEDULED_TASK: Load scheduler "s070" with entities [EventEntity, EventEntity], work=[172*, 0*]
449: 0x0D81 [0x01] GOTO 0x0DB1
450: 0x0D84 [0x02] IF !(Work_Zone[9] == 8*) GOTO 0x0DA0
451: 0x0D8C [0x45] LOAD_SCHEDULED_TASK: Load scheduler "s070" with entities [EventEntity, EventEntity], work=[172*, 0*]
452: 0x0D9D [0x01] GOTO 0x0DB1
453: 0x0DA0 [0x45] LOAD_SCHEDULED_TASK: Load scheduler "s064" with entities [EventEntity, EventEntity], work=[172*, 0*]

SUBROUTINE_0DB1:
454: 0x0DB1 [0x27] REQ_SET(priority=0x0B, entity_id=Tenzen (ID: 17776767/0x010F407F), tag_num=0x3D)
455: 0x0DB8 [0x2B] Tenzen (ID: 17776767/0x010F407F) [8453*]:
    → "But still... I worry for Lady Ulmia."
456: 0x0DBF [0x23] WAIT_FOR_DIALOG_INTERACTION
457: 0x0DC0 [0x2A] GET_REQ_LEVEL(level=11, entity_id=Tenzen (ID: 17776767/0x010F407F))
458: 0x0DC6 [0x02] IF !(Work_Zone[9] == 3*) GOTO 0x0DE0
459: 0x0DCE [0x52] END_LOAD_SCHEDULER: End scheduler "s070" with entities [EventEntity, EventEntity], work=172*
460: 0x0DDD [0x01] GOTO 0x0E09
461: 0x0DE0 [0x02] IF !(Work_Zone[9] == 8*) GOTO 0x0DFA
462: 0x0DE8 [0x52] END_LOAD_SCHEDULER: End scheduler "s070" with entities [EventEntity, EventEntity], work=172*
463: 0x0DF7 [0x01] GOTO 0x0E09
464: 0x0DFA [0x52] END_LOAD_SCHEDULER: End scheduler "s064" with entities [EventEntity, EventEntity], work=172*

SUBROUTINE_0E09:
465: 0x0E09 [0x03] ExtData[1]->WorkLocal[0] = 1*
466: 0x0E0E [0x01] GOTO 0x0E5C
467: 0x0E11 [0x02] IF !(Work_Zone[0] == 2*) GOTO 0x0E5C
468: 0x0E19 [0x03] Work_Zone[1] = 3*
469: 0x0E1E [0x7B] Tenzen (ID: 17776767/0x010F407F) stops talking
470: 0x0E23 [0x29] REQ_SET_WAIT(priority=0x08, entity_id=Tenzen (ID: 17776767/0x010F407F), tag_num=0x11)
471: 0x0E2A [0x2B] Tenzen (ID: 17776767/0x010F407F) [8454*]:
    → "In order to save the world from destruction, we must defeat the one known as the Keeper of the Apocalypse."
472: 0x0E31 [0x23] WAIT_FOR_DIALOG_INTERACTION
473: 0x0E32 [0x29] REQ_SET_WAIT(priority=0x08, entity_id=Tenzen (ID: 17776767/0x010F407F), tag_num=0x12)
474: 0x0E39 [0x79] Tenzen (ID: 17776767/0x010F407F) looks at LocalPlayer (Basic look)
475: 0x0E43 [0x29] REQ_SET_WAIT(priority=0x08, entity_id=Tenzen (ID: 17776767/0x010F407F), tag_num=0x13)
476: 0x0E4A [0x2B] Tenzen (ID: 17776767/0x010F407F) [8455*]:
    → "Even if Lady Prishe herself is the Keeper, I will not fail to carry out this task."
477: 0x0E51 [0x23] WAIT_FOR_DIALOG_INTERACTION
478: 0x0E52 [0x29] REQ_SET_WAIT(priority=0x08, entity_id=Tenzen (ID: 17776767/0x010F407F), tag_num=0x14)
479: 0x0E59 [0x01] GOTO 0x0E5C

SUBROUTINE_0E5C:
480: 0x0E5C [0x01] GOTO 0x0C1C
481: 0x0E5F [0x45] LOAD_SCHEDULED_TASK: Load scheduler "s065" with entities [EventEntity, EventEntity], work=[172*, 0*]
482: 0x0E70 [0x4A] Tenzen (ID: 17776767/0x010F407F) looks at LocalPlayer
483: 0x0E79 [0x6F] WAIT_FRAME_DELAY: Yield until WaitTime reaches zero
484: 0x0E7A [0x76] CHECK_ENTITY_RENDER_FLAGS: Wait until Tenzen (ID: 17776767/0x010F407F) Render.Flags0 and Render.Flags3 conditions are met
485: 0x0E7F [0x29] REQ_SET_WAIT(priority=0x08, entity_id=Tenzen (ID: 17776767/0x010F407F), tag_num=0x32)
486: 0x0E86 [0x2B] Tenzen (ID: 17776767/0x010F407F) [8448*]:
    → "There is little you can say to comfort her, but at least see her safely to Tavnazia."
487: 0x0E8D [0x23] WAIT_FOR_DIALOG_INTERACTION
488: 0x0E8E [0x29] REQ_SET_WAIT(priority=0x08, entity_id=Tenzen (ID: 17776767/0x010F407F), tag_num=0x33)
489: 0x0E95 [0x29] REQ_SET_WAIT(priority=0x08, entity_id=Tenzen (ID: 17776767/0x010F407F), tag_num=0x34)
490: 0x0E9C [0x2B] Tenzen (ID: 17776767/0x010F407F) [8449*]:
    → "If you ask the aid of Lady Esha'ntarl, I am sure your return will be a swift one."
491: 0x0EA3 [0x23] WAIT_FOR_DIALOG_INTERACTION
492: 0x0EA4 [0x2B] Tenzen (ID: 17776767/0x010F407F) [8450*]:
    → "Until we meet again!"
493: 0x0EAB [0x23] WAIT_FOR_DIALOG_INTERACTION
494: 0x0EAC [0x29] REQ_SET_WAIT(priority=0x08, entity_id=Tenzen (ID: 17776767/0x010F407F), tag_num=0x35)
495: 0x0EB3 [0x52] END_LOAD_SCHEDULER: End scheduler "s065" with entities [EventEntity, EventEntity], work=172*
496: 0x0EC2 [0x5D] SET_MUSIC_VOLUME(volume=0*, fade_time=120*)
497: 0x0EC7 [0x45] LOAD_SCHEDULED_TASK: Load scheduler "s060" with entities [EventEntity, EventEntity], work=[172*, 0*]
498: 0x0ED8 [0x27] REQ_SET(priority=0x0B, entity_id=Tenzen (ID: 17776767/0x010F407F), tag_num=0x3E)
499: 0x0EDF [0x1C] WAIT(90* ticks)
500: 0x0EE2 [0x45] LOAD_SCHEDULED_TASK: Load scheduler "fdo1" with entities [LocalPlayer, LocalPlayer], work=[200*, 0*]
501: 0x0EF3 [0x1C] WAIT(60* ticks)
502: 0x0EF6 [0x52] END_LOAD_SCHEDULER: End scheduler "s060" with entities [EventEntity, EventEntity], work=172*
503: 0x0F05 [0x29] REQ_SET_WAIT(priority=0x0B, entity_id=Door:"Marble Bridge" (ID: 17776739/0x010F4063), tag_num=0x07)
504: 0x0F0C [0x5C] MUSIC_CONTROL: Set Idle (Day) music to song 110*
505: 0x0F10 [0x5C] MUSIC_CONTROL: Set Idle (Night) music to song 110*
506: 0x0F14 [0x1C] WAIT(100* ticks)
507: 0x0F17 [0x4E] SET_ENTITY_HIDE_FLAG: Show LocalPlayer
508: 0x0F1D [0x80] LOAD_WAIT(entity=LocalPlayer)
509: 0x0F22 [0x46] CAMERA_CONTROL: Restore default settings
510: 0x0F24 [0x45] LOAD_SCHEDULED_TASK: Load scheduler "fdi1" with entities [LocalPlayer, LocalPlayer], work=[200*, 0*]
511: 0x0F35 [0x20] SET_CLI_EVENT_UC_FLAG: Unlock player control
512: 0x0F37 [0x21] END_EVENT
513: 0x0F38 [0x00] END_REQSTACK()
```

### Event 10012

#### Metadata

| Field        | Value      |
|--------------|------------|
| Entrypoint   | 0x0F39     |
| Data Size    | 3400 bytes |
| Instructions | 450        |

```
      00 01 02 03 04 05 06 07  08 09 0A 0B 0C 0D 0E 0F
      -- -- -- -- -- -- -- --  -- -- -- -- -- -- -- --
0F30:                             20 01 42 46 01 5D 01            .BF.].
0F40: 80 1F 80 45 00 80 F8 FF  FF 7F F8 FF FF 7F 66 64  ...E..........fd
0F50: 6F 31 01 80 1C 1F 80 38  03 80 29 08 F0 FF FF 7F  o1.....8..).....
0F60: 29 75 00 04 80 75 01 29  0B F0 FF FF 7F 30 29 0B  )u...u.).....0).
0F70: 80 40 0F 01 37 29 0B 81  40 0F 01 46 29 0B 7F 40  .@..7)..@..F)..@
0F80: 0F 01 40 29 0B 7E 40 0F  01 49 29 0B 83 40 0F 01  ..@).~@..I)..@..
0F90: 0C 29 0B 84 40 0F 01 8F  29 0B 82 40 0F 01 08 4E  .)..@...)..@...N
0FA0: 00 82 40 0F 01 4E 00 80  40 0F 01 4E 00 81 40 0F  ..@..N..@..N..@.
0FB0: 01 4E 00 7F 40 0F 01 4E  00 7E 40 0F 01 4E 00 83  .N..@..N.~@..N..
0FC0: 40 0F 01 4E 00 84 40 0F  01 80 82 40 0F 01 80 80  @..N..@....@....
0FD0: 40 0F 01 80 81 40 0F 01  80 7F 40 0F 01 80 7E 40  @....@....@...~@
0FE0: 0F 01 80 83 40 0F 01 80  84 40 0F 01 29 08 7F 40  ....@....@..)..@
0FF0: 0F 01 11 29 08 80 40 0F  01 05 29 08 80 40 0F 01  ...)..@...)..@..
1000: 06 02 09 10 0E 80 00 12  10 4E 01 F0 FF FF 7F 01  .........N......
1010: 20 10 02 09 10 0F 80 00  20 10 4E 01 F0 FF FF 7F   ....... .N.....
1020: 5C 00 4A 80 5C 01 4A 80  45 4B 80 F8 FF FF 7F F8  \.J.\.J.EK......
1030: FF FF 7F 73 30 30 30 01  80 45 00 80 F8 FF FF 7F  ...s000..E......
1040: F8 FF FF 7F 66 64 69 31  01 80 1C 1F 80 52 4B 80  ....fdi1.....RK.
1050: F8 FF FF 7F F8 FF FF 7F  73 30 30 30 45 00 80 F0  ........s000E...
1060: FF FF 7F F0 FF FF 7F 6F  76 6C 31 01 80 02 09 10  .......ovl1.....
1070: 0D 80 00 89 10 45 4B 80  F8 FF FF 7F F8 FF FF 7F  .....EK.........
1080: 73 30 33 31 01 80 01 B6  10 02 09 10 10 80 00 A5  s031............
1090: 10 45 4B 80 F8 FF FF 7F  F8 FF FF 7F 73 30 33 31  .EK.........s031
10A0: 01 80 01 B6 10 45 4B 80  F8 FF FF 7F F8 FF FF 7F  .....EK.........
10B0: 73 30 30 32 01 80 1C 1F  80 29 0B 63 40 0F 01 06  s002.....).c@...
10C0: 29 08 7F 40 0F 01 13 4A  F0 FF FF 7F 83 40 0F 01  )..@...J.....@..
10D0: 6F 76 F0 FF FF 7F 79 00  7F 40 0F 01 83 40 0F 01  ov....y..@...@..
10E0: 4A 80 40 0F 01 83 40 0F  01 79 00 82 40 0F 01 83  J.@...@..y..@...
10F0: 40 0F 01 79 00 81 40 0F  01 83 40 0F 01 7B 83 40  @..y..@...@..{.@
1100: 0F 01 27 0B 83 40 0F 01  0D 27 0B 84 40 0F 01 90  ..'..@...'..@...
1110: 27 0B 7E 40 0F 01 4A 1C  09 80 02 09 10 0D 80 00  '.~@..J.........
1120: 34 11 52 4B 80 F8 FF FF  7F F8 FF FF 7F 73 30 33  4.RK.........s03
1130: 31 01 5D 11 02 09 10 10  80 00 4E 11 52 4B 80 F8  1.].......N.RK..
1140: FF FF 7F F8 FF FF 7F 73  30 33 31 01 5D 11 52 4B  .......s031.].RK
1150: 80 F8 FF FF 7F F8 FF FF  7F 73 30 30 32 45 4B 80  .........s002EK.
1160: F8 FF FF 7F F8 FF FF 7F  73 30 30 31 01 80 4E 00  ........s001..N.
1170: F0 FF FF 7F 1C 06 80 79  00 84 40 0F 01 83 40 0F  .......y..@...@.
1180: 01 79 00 7E 40 0F 01 83  40 0F 01 6F 76 80 40 0F  .y.~@...@..ov.@.
1190: 01 80 F0 FF FF 7F 52 4B  80 F8 FF FF 7F F8 FF FF  ......RK........
11A0: 7F 73 30 30 31 45 00 80  F0 FF FF 7F F0 FF FF 7F  .s001E..........
11B0: 6F 76 6C 31 01 80 45 4B  80 F8 FF FF 7F F8 FF FF  ovl1..EK........
11C0: 7F 73 30 30 39 01 80 2A  0B 83 40 0F 01 29 08 80  .s009..*..@..)..
11D0: 40 0F 01 07 2B 83 40 0F  01 4C 80 23 29 08 80 40  @...+.@..L.#)..@
11E0: 0F 01 08 29 0B F0 FF FF  7F 31 29 0B 81 40 0F 01  ...).....1)..@..
11F0: 47 29 0B 82 40 0F 01 09  2A 0B 7E 40 0F 01 52 4B  G)..@...*.~@..RK
1200: 80 F8 FF FF 7F F8 FF FF  7F 73 30 30 39 45 4B 80  .........s009EK.
1210: F8 FF FF 7F F8 FF FF 7F  73 30 30 33 01 80 29 0B  ........s003..).
1220: 63 40 0F 01 07 79 00 84  40 0F 01 80 40 0F 01 79  c@...y..@...@..y
1230: 00 7E 40 0F 01 80 40 0F  01 4A 83 40 0F 01 80 40  .~@...@..J.@...@
1240: 0F 01 2B 80 40 0F 01 4D  80 23 79 00 84 40 0F 01  ..+.@..M.#y..@..
1250: 82 40 0F 01 79 00 7E 40  0F 01 82 40 0F 01 79 00  .@..y.~@...@..y.
1260: 83 40 0F 01 82 40 0F 01  2B 82 40 0F 01 4E 80 23  .@...@..+.@..N.#
1270: 27 0B 83 40 0F 01 0E 2B  83 40 0F 01 4F 80 23 2A  '..@...+.@..O.#*
1280: 0B 83 40 0F 01 1C 19 80  52 4B 80 F8 FF FF 7F F8  ..@.....RK......
1290: FF FF 7F 73 30 30 33 45  4B 80 F8 FF FF 7F F8 FF  ...s003EK.......
12A0: FF 7F 73 30 30 34 01 80  2B 83 40 0F 01 50 80 23  ..s004..+.@..P.#
12B0: 52 4B 80 F8 FF FF 7F F8  FF FF 7F 73 30 30 34 45  RK.........s004E
12C0: 00 80 F0 FF FF 7F F0 FF  FF 7F 6F 76 6C 31 01 80  ..........ovl1..
12D0: 45 4B 80 F8 FF FF 7F F8  FF FF 7F 73 30 30 35 01  EK.........s005.
12E0: 80 79 00 84 40 0F 01 81  40 0F 01 79 00 83 40 0F  .y..@...@..y..@.
12F0: 01 81 40 0F 01 2B 83 40  0F 01 51 80 23 2B 81 40  ..@..+.@..Q.#+.@
1300: 0F 01 52 80 23 52 4B 80  F8 FF FF 7F F8 FF FF 7F  ..R.#RK.........
1310: 73 30 30 35 45 4B 80 F8  FF FF 7F F8 FF FF 7F 73  s005EK.........s
1320: 30 30 36 01 80 27 0B 83  40 0F 01 0F 2B 83 40 0F  006..'..@...+.@.
1330: 01 53 80 23 2A 0B 83 40  0F 01 4A 83 40 0F 01 7F  .S.#*..@..J.@...
1340: 40 0F 01 2B 83 40 0F 01  54 80 23 6F 76 83 40 0F  @..+.@..T.#ov.@.
1350: 01 52 4B 80 F8 FF FF 7F  F8 FF FF 7F 73 30 30 36  .RK.........s006
1360: 45 4B 80 F8 FF FF 7F F8  FF FF 7F 73 30 30 37 01  EK.........s007.
1370: 80 29 0B 82 40 0F 01 0A  29 0B 84 40 0F 01 91 4A  .)..@...)..@...J
1380: 84 40 0F 01 83 40 0F 01  2B 83 40 0F 01 55 80 23  .@...@..+.@..U.#
1390: 2B 83 40 0F 01 56 80 23  6F 76 84 40 0F 01 52 4B  +.@..V.#ov.@..RK
13A0: 80 F8 FF FF 7F F8 FF FF  7F 73 30 30 37 45 00 80  .........s007E..
13B0: F0 FF FF 7F F0 FF FF 7F  6F 76 6C 31 01 80 45 4B  ........ovl1..EK
13C0: 80 F8 FF FF 7F F8 FF FF  7F 73 30 30 38 01 80 7B  .........s008..{
13D0: 83 40 0F 01 2B 83 40 0F  01 57 80 23 2B 83 40 0F  .@..+.@..W.#+.@.
13E0: 01 58 80 23 29 0B 7E 40  0F 01 4B 52 4B 80 F8 FF  .X.#).~@..KRK...
13F0: FF 7F F8 FF FF 7F 73 30  30 38 45 4B 80 F8 FF FF  ......s008EK....
1400: 7F F8 FF FF 7F 73 30 31  30 01 80 7B 84 40 0F 01  .....s010..{.@..
1410: 27 0B 83 40 0F 01 10 2B  83 40 0F 01 59 80 23 2A  '..@...+.@..Y.#*
1420: 0B 83 40 0F 01 29 08 83  40 0F 01 03 2B 83 40 0F  ..@..)..@...+.@.
1430: 01 5A 80 23 29 08 83 40  0F 01 04 52 4B 80 F8 FF  .Z.#)..@...RK...
1440: FF 7F F8 FF FF 7F 73 30  31 30 45 4B 80 F8 FF FF  ......s010EK....
1450: 7F F8 FF FF 7F 73 30 31  31 01 80 79 00 83 40 0F  .....s011..y..@.
1460: 01 81 40 0F 01 29 08 83  40 0F 01 05 2B 81 40 0F  ..@..)..@...+.@.
1470: 01 5B 80 23 79 00 83 40  0F 01 84 40 0F 01 29 08  .[.#y..@...@..).
1480: 84 40 0F 01 0F 2B 84 40  0F 01 5C 80 23 2B 84 40  .@...+.@..\.#+.@
1490: 0F 01 5D 80 23 29 08 84  40 0F 01 10 29 08 83 40  ..].#)..@...)..@
14A0: 0F 01 06 29 0B 80 40 0F  01 38 52 4B 80 F8 FF FF  ...)..@..8RK....
14B0: 7F F8 FF FF 7F 73 30 31  31 45 4B 80 F8 FF FF 7F  .....s011EK.....
14C0: F8 FF FF 7F 73 30 31 32  01 80 29 08 84 40 0F 01  ....s012..)..@..
14D0: 11 29 08 7F 40 0F 01 11  2B 7F 40 0F 01 5E 80 23  .)..@...+.@..^.#
14E0: 29 08 7F 40 0F 01 12 27  0B 80 40 0F 01 39 2B 80  )..@...'..@..9+.
14F0: 40 0F 01 5F 80 23 2B 80  40 0F 01 60 80 23 2A 0B  @.._.#+.@..`.#*.
1500: 80 40 0F 01 29 08 84 40  0F 01 12 52 4B 80 F8 FF  .@..)..@...RK...
1510: FF 7F F8 FF FF 7F 73 30  31 32 45 4B 80 F8 FF FF  ......s012EK....
1520: 7F F8 FF FF 7F 73 30 31  33 01 80 29 08 7F 40 0F  .....s013..)..@.
1530: 01 13 29 08 83 40 0F 01  07 2B 83 40 0F 01 61 80  ..)..@...+.@..a.
1540: 23 2B 83 40 0F 01 62 80  23 29 08 83 40 0F 01 08  #+.@..b.#)..@...
1550: 29 0B 84 40 0F 01 92 29  08 7F 40 0F 01 14 52 4B  )..@...)..@...RK
1560: 80 F8 FF FF 7F F8 FF FF  7F 73 30 31 33 45 4B 80  .........s013EK.
1570: F8 FF FF 7F F8 FF FF 7F  73 30 31 34 01 80 29 08  ........s014..).
1580: 83 40 0F 01 09 79 00 83  40 0F 01 82 40 0F 01 79  .@...y..@...@..y
1590: 00 84 40 0F 01 82 40 0F  01 79 00 81 40 0F 01 82  ..@...@..y..@...
15A0: 40 0F 01 79 00 80 40 0F  01 82 40 0F 01 4A 82 40  @..y..@...@..J.@
15B0: 0F 01 83 40 0F 01 2B 82  40 0F 01 63 80 23 6F 76  ...@..+.@..c.#ov
15C0: 82 40 0F 01 7B 82 40 0F  01 2B 82 40 0F 01 64 80  .@..{.@..+.@..d.
15D0: 23 29 08 83 40 0F 01 0A  52 4B 80 F8 FF FF 7F F8  #)..@...RK......
15E0: FF FF 7F 73 30 31 34 45  4B 80 F8 FF FF 7F F8 FF  ...s014EK.......
15F0: FF 7F 73 30 31 35 01 80  27 0B 83 40 0F 01 11 29  ..s015..'..@...)
1600: 0B 82 40 0F 01 0B 29 0B  63 40 0F 01 06 2B 81 40  ..@...).c@...+.@
1610: 0F 01 65 80 23 79 00 81  40 0F 01 83 40 0F 01 2B  ..e.#y..@...@..+
1620: 81 40 0F 01 66 80 23 7B  81 40 0F 01 2A 0B 83 40  .@..f.#{.@..*..@
1630: 0F 01 27 0B 81 40 0F 01  48 1C 09 80 52 4B 80 F8  ..'..@..H...RK..
1640: FF FF 7F F8 FF FF 7F 73  30 31 35 45 4B 80 F8 FF  .......s015EK...
1650: FF 7F F8 FF FF 7F 73 30  31 36 01 80 2B 80 40 0F  ......s016..+.@.
1660: 01 67 80 23 27 0B 80 40  0F 01 3A 27 0B 7F 40 0F  .g.#'..@..:'..@.
1670: 01 41 1C 68 80 52 4B 80  F8 FF FF 7F F8 FF FF 7F  .A.h.RK.........
1680: 73 30 31 36 45 4B 80 F8  FF FF 7F F8 FF FF 7F 73  s016EK.........s
1690: 30 31 37 01 80 1C 36 80  52 4B 80 F8 FF FF 7F F8  017...6.RK......
16A0: FF FF 7F 73 30 31 37 4A  84 40 0F 01 83 40 0F 01  ...s017J.@...@..
16B0: 79 00 7F 40 0F 01 83 40  0F 01 2B 83 40 0F 01 69  y..@...@..+.@..i
16C0: 80 23 6F 76 84 40 0F 01  2B 83 40 0F 01 6A 80 23  .#ov.@..+.@..j.#
16D0: 45 4B 80 F8 FF FF 7F F8  FF FF 7F 73 30 31 38 01  EK.........s018.
16E0: 80 29 0B 63 40 0F 01 07  29 0B F0 FF FF 7F 32 7B  .).c@...).....2{
16F0: 83 40 0F 01 2B 83 40 0F  01 6B 80 23 2A 0B 7F 40  .@..+.@..k.#*..@
1700: 0F 01 29 08 7F 40 0F 01  09 2B 7F 40 0F 01 6C 80  ..)..@...+.@..l.
1710: 23 29 08 7F 40 0F 01 0A  52 4B 80 F8 FF FF 7F F8  #)..@...RK......
1720: FF FF 7F 73 30 31 38 45  4B 80 F8 FF FF 7F F8 FF  ...s018EK.......
1730: FF 7F 73 30 31 39 01 80  4B 83 40 0F 01 6D 80 6F  ..s019..K.@..m.o
1740: 76 83 40 0F 01 29 08 7F  40 0F 01 0B 2B 83 40 0F  v.@..)..@...+.@.
1750: 01 6E 80 23 4A 7E 40 0F  01 83 40 0F 01 4A F0 FF  .n.#J~@...@..J..
1760: FF 7F 83 40 0F 01 2B 83  40 0F 01 6F 80 23 6F 76  ...@..+.@..o.#ov
1770: 7E 40 0F 01 6F 76 F0 FF  FF 7F 29 08 7F 40 0F 01  ~@..ov....)..@..
1780: 0C 52 4B 80 F8 FF FF 7F  F8 FF FF 7F 73 30 31 39  .RK.........s019
1790: 02 09 10 0E 80 00 AC 17  45 4B 80 F8 FF FF 7F F8  ........EK......
17A0: FF FF 7F 73 30 32 37 01  80 01 D9 17 02 09 10 0F  ...s027.........
17B0: 80 00 C8 17 45 4B 80 F8  FF FF 7F F8 FF FF 7F 73  ....EK.........s
17C0: 30 32 37 01 80 01 D9 17  45 4B 80 F8 FF FF 7F F8  027.....EK......
17D0: FF FF 7F 73 30 32 30 01  80 79 00 83 40 0F 01 7E  ...s020..y..@..~
17E0: 40 0F 01 79 00 84 40 0F  01 7E 40 0F 01 29 08 7E  @..y..@..~@..).~
17F0: 40 0F 01 01 2B 7E 40 0F  01 70 80 23 29 08 7E 40  @...+~@..p.#).~@
1800: 0F 01 02 79 00 7E 40 0F  01 84 40 0F 01 79 00 83  ...y.~@...@..y..
1810: 40 0F 01 84 40 0F 01 4A  F0 FF FF 7F 84 40 0F 01  @...@..J.....@..
1820: 27 0B 84 40 0F 01 93 2B  84 40 0F 01 71 80 23 2A  '..@...+.@..q.#*
1830: 0B 84 40 0F 01 7C 00 7E  40 0F 01 29 08 7E 40 0F  ..@..|.~@..).~@.
1840: 01 03 2B 7E 40 0F 01 72  80 23 7C 01 7E 40 0F 01  ..+~@..r.#|.~@..
1850: 6F 76 F0 FF FF 7F 29 0B  7F 40 0F 01 42 02 09 10  ov....)..@..B...
1860: 0E 80 00 77 18 52 4B 80  F8 FF FF 7F F8 FF FF 7F  ...w.RK.........
1870: 73 30 32 37 01 A0 18 02  09 10 0F 80 00 91 18 52  s027...........R
1880: 4B 80 F8 FF FF 7F F8 FF  FF 7F 73 30 32 37 01 A0  K.........s027..
1890: 18 52 4B 80 F8 FF FF 7F  F8 FF FF 7F 73 30 32 30  .RK.........s020
18A0: 02 09 10 0E 80 00 BC 18  45 4B 80 F8 FF FF 7F F8  ........EK......
18B0: FF FF 7F 73 30 32 38 01  80 01 E9 18 02 09 10 0F  ...s028.........
18C0: 80 00 D8 18 45 4B 80 F8  FF FF 7F F8 FF FF 7F 73  ....EK.........s
18D0: 30 32 38 01 80 01 E9 18  45 4B 80 F8 FF FF 7F F8  028.....EK......
18E0: FF FF 7F 73 30 32 31 01  80 4A 83 40 0F 01 84 40  ...s021..J.@...@
18F0: 0F 01 4A 84 40 0F 01 83  40 0F 01 4A 7F 40 0F 01  ..J.@...@..J.@..
1900: 84 40 0F 01 6F 76 84 40  0F 01 29 08 84 40 0F 01  .@..ov.@..)..@..
1910: 0B 2B 84 40 0F 01 73 80  23 29 08 7E 40 0F 01 04  .+.@..s.#).~@...
1920: 2B 84 40 0F 01 74 80 23  29 08 84 40 0F 01 0C 6F  +.@..t.#)..@...o
1930: 76 83 40 0F 01 6F 76 7F  40 0F 01 02 09 10 0E 80  v.@..ov.@.......
1940: 00 55 19 52 4B 80 F8 FF  FF 7F F8 FF FF 7F 73 30  .U.RK.........s0
1950: 32 38 01 7E 19 02 09 10  0F 80 00 6F 19 52 4B 80  28.~.......o.RK.
1960: F8 FF FF 7F F8 FF FF 7F  73 30 32 38 01 7E 19 52  ........s028.~.R
1970: 4B 80 F8 FF FF 7F F8 FF  FF 7F 73 30 32 31 45 00  K.........s021E.
1980: 80 F0 FF FF 7F F0 FF FF  7F 6F 76 6C 31 01 80 45  .........ovl1..E
1990: 4B 80 F8 FF FF 7F F8 FF  FF 7F 73 30 32 32 01 80  K.........s022..
19A0: 4E 01 F0 FF FF 7F 4A 83  40 0F 01 84 40 0F 01 2B  N.....J.@...@..+
19B0: 84 40 0F 01 75 80 23 6F  76 83 40 0F 01 7B 83 40  .@..u.#ov.@..{.@
19C0: 0F 01 7C 00 7F 40 0F 01  2B 7F 40 0F 01 76 80 23  ..|..@..+.@..v.#
19D0: 7C 01 7F 40 0F 01 52 4B  80 F8 FF FF 7F F8 FF FF  |..@..RK........
19E0: 7F 73 30 32 32 45 00 80  F0 FF FF 7F F0 FF FF 7F  .s022E..........
19F0: 6F 76 6C 31 01 80 45 4B  80 F8 FF FF 7F F8 FF FF  ovl1..EK........
1A00: 7F 73 30 32 33 01 80 29  08 84 40 0F 01 0D 4E 00  .s023..)..@...N.
1A10: F0 FF FF 7F 79 00 7F 40  0F 01 83 40 0F 01 2B 83  ....y..@...@..+.
1A20: 40 0F 01 77 80 23 29 08  84 40 0F 01 0E 29 0B 84  @..w.#)..@...)..
1A30: 40 0F 01 94 2B 83 40 0F  01 78 80 23 2B 84 40 0F  @...+.@..x.#+.@.
1A40: 01 79 80 23 52 4B 80 F8  FF FF 7F F8 FF FF 7F 73  .y.#RK.........s
1A50: 30 32 33 45 4B 80 F8 FF  FF 7F F8 FF FF 7F 73 30  023EK.........s0
1A60: 32 34 01 80 27 0B 83 40  0F 01 12 2A 0B 83 40 0F  24..'..@...*..@.
1A70: 01 29 0B F0 FF FF 7F 33  4A 83 40 0F 01 84 40 0F  .).....3J.@...@.
1A80: 01 6F 76 83 40 0F 01 2B  83 40 0F 01 7A 80 23 52  .ov.@..+.@..z.#R
1A90: 4B 80 F8 FF FF 7F F8 FF  FF 7F 73 30 32 34 45 00  K.........s024E.
1AA0: 80 F0 FF FF 7F F0 FF FF  7F 6F 76 6C 31 01 80 45  .........ovl1..E
1AB0: 4B 80 F8 FF FF 7F F8 FF  FF 7F 73 30 32 35 01 80  K.........s025..
1AC0: 2B 83 40 0F 01 7B 80 23  29 08 83 40 0F 01 04 29  +.@..{.#)..@...)
1AD0: 08 84 40 0F 01 12 52 4B  80 F8 FF FF 7F F8 FF FF  ..@...RK........
1AE0: 7F 73 30 32 35 02 09 10  0D 80 00 01 1B 45 4B 80  .s025........EK.
1AF0: F8 FF FF 7F F8 FF FF 7F  73 30 33 32 01 80 01 66  ........s032...f
1B00: 1B 02 09 10 0E 80 00 1D  1B 45 4B 80 F8 FF FF 7F  .........EK.....
1B10: F8 FF FF 7F 73 30 32 39  01 80 01 66 1B 02 09 10  ....s029...f....
1B20: 0F 80 00 39 1B 45 4B 80  F8 FF FF 7F F8 FF FF 7F  ...9.EK.........
1B30: 73 30 32 39 01 80 01 66  1B 02 09 10 10 80 00 55  s029...f.......U
1B40: 1B 45 4B 80 F8 FF FF 7F  F8 FF FF 7F 73 30 33 32  .EK.........s032
1B50: 01 80 01 66 1B 45 4B 80  F8 FF FF 7F F8 FF FF 7F  ...f.EK.........
1B60: 73 30 32 36 01 80 29 08  83 40 0F 01 05 7B 84 40  s026..)..@...{.@
1B70: 0F 01 4B 84 40 0F 01 7C  80 6F 76 84 40 0F 01 29  ..K.@..|.ov.@..)
1B80: 08 84 40 0F 01 1B 2B 84  40 0F 01 7D 80 23 29 08  ..@...+.@..}.#).
1B90: 84 40 0F 01 1C 02 09 10  0D 80 00 AF 1B 52 4B 80  .@...........RK.
1BA0: F8 FF FF 7F F8 FF FF 7F  73 30 33 32 01 0C 1C 02  ........s032....
1BB0: 09 10 0E 80 00 C9 1B 52  4B 80 F8 FF FF 7F F8 FF  .......RK.......
1BC0: FF 7F 73 30 32 39 01 0C  1C 02 09 10 0F 80 00 E3  ..s029..........
1BD0: 1B 52 4B 80 F8 FF FF 7F  F8 FF FF 7F 73 30 32 39  .RK.........s029
1BE0: 01 0C 1C 02 09 10 10 80  00 FD 1B 52 4B 80 F8 FF  ...........RK...
1BF0: FF 7F F8 FF FF 7F 73 30  33 32 01 0C 1C 52 4B 80  ......s032...RK.
1C00: F8 FF FF 7F F8 FF FF 7F  73 30 32 36 45 4B 80 F8  ........s026EK..
1C10: FF FF 7F F8 FF FF 7F 73  30 33 30 01 80 2B 84 40  .......s030..+.@
1C20: 0F 01 7E 80 23 5D 01 80  06 80 45 00 80 F0 FF FF  ..~.#]....E.....
1C30: 7F F0 FF FF 7F 66 64 6F  31 01 80 1C 02 80 52 4B  .....fdo1.....RK
1C40: 80 F8 FF FF 7F F8 FF FF  7F 73 30 33 30 29 08 83  .........s030)..
1C50: 40 0F 01 06 5C 00 49 80  5C 01 49 80 1C 06 80 4E  @...\.I.\.I....N
1C60: 00 F0 FF FF 7F 80 F0 FF  FF 7F 46 00 45 00 80 F0  ..........F.E...
1C70: FF FF 7F F0 FF FF 7F 66  64 69 31 01 80 20 00 21  .......fdi1.. .!
1C80: 00                                                .               
```

#### Opcodes

```
  0: 0x0F39 [0x20] SET_CLI_EVENT_UC_FLAG: Lock player control
  1: 0x0F3B [0x42] SET_CLI_EVENT_CANCEL_DATA()
  2: 0x0F3C [0x46] CAMERA_CONTROL: Disable user control
  3: 0x0F3E [0x5D] SET_MUSIC_VOLUME(volume=0*, fade_time=120*)
  4: 0x0F43 [0x45] LOAD_SCHEDULED_TASK: Load scheduler "fdo1" with entities [EventEntity, EventEntity], work=[200*, 0*]
  5: 0x0F54 [0x1C] WAIT(120* ticks)
  6: 0x0F57 [0x38] SET_CLIENT_EVENT_MODE(mode=19*)
  7: 0x0F5A [0x29] REQ_SET_WAIT(priority=0x08, entity_id=LocalPlayer, tag_num=0x29)
  8: 0x0F61 [0x75] LOAD_ROOM(Load indoor room, room=448*)
  9: 0x0F65 [0x75] LOAD_ROOM(No action)
 10: 0x0F67 [0x29] REQ_SET_WAIT(priority=0x0B, entity_id=LocalPlayer, tag_num=0x30)
 11: 0x0F6E [0x29] REQ_SET_WAIT(priority=0x0B, entity_id=Shikaree Z (ID: 17776768/0x010F4080), tag_num=0x37)
 12: 0x0F75 [0x29] REQ_SET_WAIT(priority=0x0B, entity_id=Louverance (ID: 17776769/0x010F4081), tag_num=0x46)
 13: 0x0F7C [0x29] REQ_SET_WAIT(priority=0x0B, entity_id=Tenzen (ID: 17776767/0x010F407F), tag_num=0x40)
 14: 0x0F83 [0x29] REQ_SET_WAIT(priority=0x0B, entity_id=Ulmia (ID: 17776766/0x010F407E), tag_num=0x49)
 15: 0x0F8A [0x29] REQ_SET_WAIT(priority=0x0B, entity_id=Mildaurion (ID: 17776771/0x010F4083), tag_num=0x0C)
 16: 0x0F91 [0x29] REQ_SET_WAIT(priority=0x0B, entity_id=Prishe (ID: 17776772/0x010F4084), tag_num=0x8F)
 17: 0x0F98 [0x29] REQ_SET_WAIT(priority=0x0B, entity_id=Jabbos (ID: 17776770/0x010F4082), tag_num=0x08)
 18: 0x0F9F [0x4E] SET_ENTITY_HIDE_FLAG: Show Jabbos (ID: 17776770/0x010F4082)
 19: 0x0FA5 [0x4E] SET_ENTITY_HIDE_FLAG: Show Shikaree Z (ID: 17776768/0x010F4080)
 20: 0x0FAB [0x4E] SET_ENTITY_HIDE_FLAG: Show Louverance (ID: 17776769/0x010F4081)
 21: 0x0FB1 [0x4E] SET_ENTITY_HIDE_FLAG: Show Tenzen (ID: 17776767/0x010F407F)
 22: 0x0FB7 [0x4E] SET_ENTITY_HIDE_FLAG: Show Ulmia (ID: 17776766/0x010F407E)
 23: 0x0FBD [0x4E] SET_ENTITY_HIDE_FLAG: Show Mildaurion (ID: 17776771/0x010F4083)
 24: 0x0FC3 [0x4E] SET_ENTITY_HIDE_FLAG: Show Prishe (ID: 17776772/0x010F4084)
 25: 0x0FC9 [0x80] LOAD_WAIT(entity=Jabbos (ID: 17776770/0x010F4082))
 26: 0x0FCE [0x80] LOAD_WAIT(entity=Shikaree Z (ID: 17776768/0x010F4080))
 27: 0x0FD3 [0x80] LOAD_WAIT(entity=Louverance (ID: 17776769/0x010F4081))
 28: 0x0FD8 [0x80] LOAD_WAIT(entity=Tenzen (ID: 17776767/0x010F407F))
 29: 0x0FDD [0x80] LOAD_WAIT(entity=Ulmia (ID: 17776766/0x010F407E))
 30: 0x0FE2 [0x80] LOAD_WAIT(entity=Mildaurion (ID: 17776771/0x010F4083))
 31: 0x0FE7 [0x80] LOAD_WAIT(entity=Prishe (ID: 17776772/0x010F4084))
 32: 0x0FEC [0x29] REQ_SET_WAIT(priority=0x08, entity_id=Tenzen (ID: 17776767/0x010F407F), tag_num=0x11)
 33: 0x0FF3 [0x29] REQ_SET_WAIT(priority=0x08, entity_id=Shikaree Z (ID: 17776768/0x010F4080), tag_num=0x05)
 34: 0x0FFA [0x29] REQ_SET_WAIT(priority=0x08, entity_id=Shikaree Z (ID: 17776768/0x010F4080), tag_num=0x06)
 35: 0x1001 [0x02] IF !(Work_Zone[9] == 5*) GOTO 0x1012
 36: 0x1009 [0x4E] SET_ENTITY_HIDE_FLAG: Hide LocalPlayer
 37: 0x100F [0x01] GOTO 0x1020
 38: 0x1012 [0x02] IF !(Work_Zone[9] == 6*) GOTO 0x1020
 39: 0x101A [0x4E] SET_ENTITY_HIDE_FLAG: Hide LocalPlayer

SUBROUTINE_1020:
 40: 0x1020 [0x5C] MUSIC_CONTROL: Set Idle (Day) music to song 219*
 41: 0x1024 [0x5C] MUSIC_CONTROL: Set Idle (Night) music to song 219*
 42: 0x1028 [0x45] LOAD_SCHEDULED_TASK: Load scheduler "s000" with entities [EventEntity, EventEntity], work=[175*, 0*]
 43: 0x1039 [0x45] LOAD_SCHEDULED_TASK: Load scheduler "fdi1" with entities [EventEntity, EventEntity], work=[200*, 0*]
 44: 0x104A [0x1C] WAIT(120* ticks)
 45: 0x104D [0x52] END_LOAD_SCHEDULER: End scheduler "s000" with entities [EventEntity, EventEntity], work=175*
 46: 0x105C [0x45] LOAD_SCHEDULED_TASK: Load scheduler "ovl1" with entities [LocalPlayer, LocalPlayer], work=[200*, 0*]
 47: 0x106D [0x02] IF !(Work_Zone[9] == 3*) GOTO 0x1089
 48: 0x1075 [0x45] LOAD_SCHEDULED_TASK: Load scheduler "s031" with entities [EventEntity, EventEntity], work=[175*, 0*]
 49: 0x1086 [0x01] GOTO 0x10B6
 50: 0x1089 [0x02] IF !(Work_Zone[9] == 8*) GOTO 0x10A5
 51: 0x1091 [0x45] LOAD_SCHEDULED_TASK: Load scheduler "s031" with entities [EventEntity, EventEntity], work=[175*, 0*]
 52: 0x10A2 [0x01] GOTO 0x10B6
 53: 0x10A5 [0x45] LOAD_SCHEDULED_TASK: Load scheduler "s002" with entities [EventEntity, EventEntity], work=[175*, 0*]

SUBROUTINE_10B6:
 54: 0x10B6 [0x1C] WAIT(120* ticks)
 55: 0x10B9 [0x29] REQ_SET_WAIT(priority=0x0B, entity_id=Door:"Marble Bridge" (ID: 17776739/0x010F4063), tag_num=0x06)
 56: 0x10C0 [0x29] REQ_SET_WAIT(priority=0x08, entity_id=Tenzen (ID: 17776767/0x010F407F), tag_num=0x13)
 57: 0x10C7 [0x4A] LocalPlayer looks at Mildaurion (ID: 17776771/0x010F4083)
 58: 0x10D0 [0x6F] WAIT_FRAME_DELAY: Yield until WaitTime reaches zero
 59: 0x10D1 [0x76] CHECK_ENTITY_RENDER_FLAGS: Wait until LocalPlayer Render.Flags0 and Render.Flags3 conditions are met
 60: 0x10D6 [0x79] Tenzen (ID: 17776767/0x010F407F) looks at Mildaurion (ID: 17776771/0x010F4083) (Basic look)
 61: 0x10E0 [0x4A] Shikaree Z (ID: 17776768/0x010F4080) looks at Mildaurion (ID: 17776771/0x010F4083)
 62: 0x10E9 [0x79] Jabbos (ID: 17776770/0x010F4082) looks at Mildaurion (ID: 17776771/0x010F4083) (Basic look)
 63: 0x10F3 [0x79] Louverance (ID: 17776769/0x010F4081) looks at Mildaurion (ID: 17776771/0x010F4083) (Basic look)
 64: 0x10FD [0x7B] Mildaurion (ID: 17776771/0x010F4083) stops talking
 65: 0x1102 [0x27] REQ_SET(priority=0x0B, entity_id=Mildaurion (ID: 17776771/0x010F4083), tag_num=0x0D)
 66: 0x1109 [0x27] REQ_SET(priority=0x0B, entity_id=Prishe (ID: 17776772/0x010F4084), tag_num=0x90)
 67: 0x1110 [0x27] REQ_SET(priority=0x0B, entity_id=Ulmia (ID: 17776766/0x010F407E), tag_num=0x4A)
 68: 0x1117 [0x1C] WAIT(30* ticks)
 69: 0x111A [0x02] IF !(Work_Zone[9] == 3*) GOTO 0x1134
 70: 0x1122 [0x52] END_LOAD_SCHEDULER: End scheduler "s031" with entities [EventEntity, EventEntity], work=175*
 71: 0x1131 [0x01] GOTO 0x115D
 72: 0x1134 [0x02] IF !(Work_Zone[9] == 8*) GOTO 0x114E
 73: 0x113C [0x52] END_LOAD_SCHEDULER: End scheduler "s031" with entities [EventEntity, EventEntity], work=175*
 74: 0x114B [0x01] GOTO 0x115D
 75: 0x114E [0x52] END_LOAD_SCHEDULER: End scheduler "s002" with entities [EventEntity, EventEntity], work=175*

SUBROUTINE_115D:
 76: 0x115D [0x45] LOAD_SCHEDULED_TASK: Load scheduler "s001" with entities [EventEntity, EventEntity], work=[175*, 0*]
 77: 0x116E [0x4E] SET_ENTITY_HIDE_FLAG: Show LocalPlayer
 78: 0x1174 [0x1C] WAIT(100* ticks)
 79: 0x1177 [0x79] Prishe (ID: 17776772/0x010F4084) looks at Mildaurion (ID: 17776771/0x010F4083) (Basic look)
 80: 0x1181 [0x79] Ulmia (ID: 17776766/0x010F407E) looks at Mildaurion (ID: 17776771/0x010F4083) (Basic look)
 81: 0x118B [0x6F] WAIT_FRAME_DELAY: Yield until WaitTime reaches zero
 82: 0x118C [0x76] CHECK_ENTITY_RENDER_FLAGS: Wait until Shikaree Z (ID: 17776768/0x010F4080) Render.Flags0 and Render.Flags3 conditions are met
 83: 0x1191 [0x80] LOAD_WAIT(entity=LocalPlayer)
 84: 0x1196 [0x52] END_LOAD_SCHEDULER: End scheduler "s001" with entities [EventEntity, EventEntity], work=175*
 85: 0x11A5 [0x45] LOAD_SCHEDULED_TASK: Load scheduler "ovl1" with entities [LocalPlayer, LocalPlayer], work=[200*, 0*]
 86: 0x11B6 [0x45] LOAD_SCHEDULED_TASK: Load scheduler "s009" with entities [EventEntity, EventEntity], work=[175*, 0*]
 87: 0x11C7 [0x2A] GET_REQ_LEVEL(level=11, entity_id=Mildaurion (ID: 17776771/0x010F4083))
 88: 0x11CD [0x29] REQ_SET_WAIT(priority=0x08, entity_id=Shikaree Z (ID: 17776768/0x010F4080), tag_num=0x07)
 89: 0x11D4 [0x2B] Mildaurion (ID: 17776771/0x010F4083) [8458*]:
    → "I am glad to see that you have all survived unscathed."
 90: 0x11DB [0x23] WAIT_FOR_DIALOG_INTERACTION
 91: 0x11DC [0x29] REQ_SET_WAIT(priority=0x08, entity_id=Shikaree Z (ID: 17776768/0x010F4080), tag_num=0x08)
 92: 0x11E3 [0x29] REQ_SET_WAIT(priority=0x0B, entity_id=LocalPlayer, tag_num=0x31)
 93: 0x11EA [0x29] REQ_SET_WAIT(priority=0x0B, entity_id=Louverance (ID: 17776769/0x010F4081), tag_num=0x47)
 94: 0x11F1 [0x29] REQ_SET_WAIT(priority=0x0B, entity_id=Jabbos (ID: 17776770/0x010F4082), tag_num=0x09)
 95: 0x11F8 [0x2A] GET_REQ_LEVEL(level=11, entity_id=Ulmia (ID: 17776766/0x010F407E))
 96: 0x11FE [0x52] END_LOAD_SCHEDULER: End scheduler "s009" with entities [EventEntity, EventEntity], work=175*
 97: 0x120D [0x45] LOAD_SCHEDULED_TASK: Load scheduler "s003" with entities [EventEntity, EventEntity], work=[175*, 0*]
 98: 0x121E [0x29] REQ_SET_WAIT(priority=0x0B, entity_id=Door:"Marble Bridge" (ID: 17776739/0x010F4063), tag_num=0x07)
 99: 0x1225 [0x79] Prishe (ID: 17776772/0x010F4084) looks at Shikaree Z (ID: 17776768/0x010F4080) (Basic look)
100: 0x122F [0x79] Ulmia (ID: 17776766/0x010F407E) looks at Shikaree Z (ID: 17776768/0x010F4080) (Basic look)
101: 0x1239 [0x4A] Mildaurion (ID: 17776771/0x010F4083) looks at Shikaree Z (ID: 17776768/0x010F4080)
102: 0x1242 [0x2B] Shikaree Z (ID: 17776768/0x010F4080) [8459*]:
    → "You...!"
103: 0x1249 [0x23] WAIT_FOR_DIALOG_INTERACTION
104: 0x124A [0x79] Prishe (ID: 17776772/0x010F4084) looks at Jabbos (ID: 17776770/0x010F4082) (Basic look)
105: 0x1254 [0x79] Ulmia (ID: 17776766/0x010F407E) looks at Jabbos (ID: 17776770/0x010F4082) (Basic look)
106: 0x125E [0x79] Mildaurion (ID: 17776771/0x010F4083) looks at Jabbos (ID: 17776770/0x010F4082) (Basic look)
107: 0x1268 [0x2B] Jabbos (ID: 17776770/0x010F4082) [8460*]:
    → "You are...the priest...!?"
108: 0x126F [0x23] WAIT_FOR_DIALOG_INTERACTION
109: 0x1270 [0x27] REQ_SET(priority=0x0B, entity_id=Mildaurion (ID: 17776771/0x010F4083), tag_num=0x0E)
110: 0x1277 [0x2B] Mildaurion (ID: 17776771/0x010F4083) [8461*]:
    → "Nice to see you both again after so long."
111: 0x127E [0x23] WAIT_FOR_DIALOG_INTERACTION
112: 0x127F [0x2A] GET_REQ_LEVEL(level=11, entity_id=Mildaurion (ID: 17776771/0x010F4083))
113: 0x1285 [0x1C] WAIT(10* ticks)
114: 0x1288 [0x52] END_LOAD_SCHEDULER: End scheduler "s003" with entities [EventEntity, EventEntity], work=175*
115: 0x1297 [0x45] LOAD_SCHEDULED_TASK: Load scheduler "s004" with entities [EventEntity, EventEntity], work=[175*, 0*]
116: 0x12A8 [0x2B] Mildaurion (ID: 17776771/0x010F4083) [8462*]:
    → "It's been twenty years since I've seen you, Shikaree Z. And a hundred years for you, Jabbos, if I'm not mistaken."
