# 17776704 - Prishe

## Common Data

| Field            | Value                 |
|------------------|-----------------------|
| Zone             | Upper Jeuno (ID: 244) |
| Block Size       | 1064 bytes            |
| Total Events     | 34                    |
| References Count | 45                    |

## List of Events

| Event ID                   | Entrypoint   |   Size |   Instructions |
|----------------------------|--------------|--------|----------------|
| [65535](#event-65535)      | 0x0000       |     13 |              3 |
| [65535.1](#event-655351)   | 0x000D       |     45 |              6 |
| [65535.2](#event-655352)   | 0x003A       |     19 |              3 |
| [65535.3](#event-655353)   | 0x004D       |     29 |              3 |
| [65535.4](#event-655354)   | 0x006A       |     22 |              6 |
| [65535.5](#event-655355)   | 0x0080       |     16 |              2 |
| [65535.6](#event-655356)   | 0x0090       |     19 |              3 |
| [65535.7](#event-655357)   | 0x00A3       |     29 |              3 |
| [65535.8](#event-655358)   | 0x00C0       |     29 |              3 |
| [65535.9](#event-655359)   | 0x00DD       |     29 |              3 |
| [65535.10](#event-6553510) | 0x00FA       |     29 |              3 |
| [65535.11](#event-6553511) | 0x0117       |     29 |              3 |
| [65535.12](#event-6553512) | 0x0134       |     29 |              3 |
| [65535.13](#event-6553513) | 0x0151       |     29 |              3 |
| [65535.14](#event-6553514) | 0x016E       |     29 |              3 |
| [65535.15](#event-6553515) | 0x018B       |     29 |              3 |
| [65535.16](#event-6553516) | 0x01A8       |     29 |              3 |
| [65535.17](#event-6553517) | 0x01C5       |     16 |              2 |
| [65535.18](#event-6553518) | 0x01D5       |     29 |              3 |
| [75](#event-75)            | 0x01F2       |     26 |              4 |
| [10015](#event-10015)      | 0x020C       |      1 |              1 |
| [65535.19](#event-6553519) | 0x020D       |     18 |              4 |
| [65535.20](#event-6553520) | 0x021F       |     10 |              2 |
| [65535.21](#event-6553521) | 0x0229       |     25 |              6 |
| [65535.22](#event-6553522) | 0x0242       |     32 |              8 |
| [10221](#event-10221)      | 0x0262       |      1 |              1 |
| [65535.23](#event-6553523) | 0x0263       |     17 |              5 |
| [65535.24](#event-6553524) | 0x0274       |     17 |              5 |
| [65535.25](#event-6553525) | 0x0285       |     34 |              8 |
| [65535.26](#event-6553526) | 0x02A7       |     34 |              8 |
| [65535.27](#event-6553527) | 0x02C9       |      5 |              2 |
| [65535.28](#event-6553528) | 0x02CE       |      4 |              2 |
| [65535.29](#event-6553529) | 0x02D2       |      2 |              2 |
| [65535.30](#event-6553530) | 0x02D4       |      5 |              2 |

## DAT References (imed_data)

|   Index | Hex Value   |   Dec Value |
|---------|-------------|-------------|
|       0 | 0xFFFF2546  |  4294911302 |
|       1 | 0xFFFFEB5B  |  4294962011 |
|       2 | 0xFFFFFE0C  |  4294966796 |
|       3 | 0x085E      |        2142 |
|       4 | 0x01E1      |         481 |
|       5 | 0x00B4      |         180 |
|       6 | 0x0272      |         626 |
|       7 | 0x0028      |          40 |
|       8 | 0xFFFF1BEE  |  4294908910 |
|       9 | 0xFFFFF538  |  4294964536 |
|      10 | 0x000A      |          10 |
|      11 | 0x026D      |         621 |
|      12 | 0x003C      |          60 |
|      13 | 0x01DB      |         475 |
|      14 | 0x01DD      |         477 |
|      15 | 0xFFFF2B1D  |  4294912797 |
|      16 | 0xFFFFE8FF  |  4294961407 |
|      17 | 0x06F0      |        1776 |
|      18 | 0x0000      |           0 |
|      19 | 0x0001      |           1 |
|      20 | 0xFFFF15EB  |  4294907371 |
|      21 | 0x12AFD     |       76541 |
|      22 | 0x0BE1      |        3041 |
|      23 | 0x000D      |          13 |
|      24 | 0xFFFF1659  |  4294907481 |
|      25 | 0x136CE     |       79566 |
|      26 | 0xFFFF17A7  |  4294907815 |
|      27 | 0x1390B     |       80139 |
|      28 | 0x0003      |           3 |
|      29 | 0x0016      |          22 |
|      30 | 0xFFFF5318  |  4294923032 |
|      31 | 0x16C0B     |       93195 |
|      32 | 0x1F3F      |        7999 |
|      33 | 0x001E      |          30 |
|      34 | 0x0010      |          16 |
|      35 | 0xFFFF5B05  |  4294925061 |
|      36 | 0x15B6B     |       88939 |
|      37 | 0xFFFF5728  |  4294924072 |
|      38 | 0x15210     |       86544 |
|      39 | 0xFFFF3D9D  |  4294917533 |
|      40 | 0x14419     |       82969 |
|      41 | 0x1034      |        4148 |
|      42 | 0x05B1      |        1457 |
|      43 | 0x0002      |           2 |
|      44 | 0x05A6      |        1446 |

## Events

### Event 65535

#### Metadata

| Field        | Value    |
|--------------|----------|
| Entrypoint   | 0x0000   |
| Data Size    | 13 bytes |
| Instructions | 3        |

```
      00 01 02 03 04 05 06 07  08 09 0A 0B 0C 0D 0E 0F
      -- -- -- -- -- -- -- --  -- -- -- -- -- -- -- --
0000: 92 01 F8 FF FF 7F 94 01  F8 FF FF 7F 00           .............   
```

#### Opcodes

```
  0: 0x0000 [0x92] EventEntity->Render.Flags3 ^= 0x01
  1: 0x0006 [0x94] EventEntity->Render.Flags3 ^= 0x01
  2: 0x000C [0x00] END_REQSTACK()
```

### Event 65535.1

#### Metadata

| Field        | Value    |
|--------------|----------|
| Entrypoint   | 0x000D   |
| Data Size    | 45 bytes |
| Instructions | 6        |

```
      00 01 02 03 04 05 06 07  08 09 0A 0B 0C 0D 0E 0F
      -- -- -- -- -- -- -- --  -- -- -- -- -- -- -- --
0000:                                         7B F8 FF               {..
0010: FF 7F 37 00 80 01 80 02  80 03 80 5B 04 80 F8 FF  ..7........[....
0020: FF 7F F8 FF FF 7F 62 74  75 30 53 F8 FF FF 7F F8  ......btu0S.....
0030: FF FF 7F 62 74 75 30 AB  08 00                    ...btu0...      
```

#### Opcodes

```
  0: 0x000D [0x7B] EventEntity stops talking
  1: 0x0012 [0x37] UPDATE_EVENT_POSITION_AND_DIR: x=-55.994*, z=-5.285*, y=-0.500*, direction=188.3°*
  2: 0x001B [0x5B] LOAD_EXT_SCHEDULER: Load scheduler "btu0" with entities [EventEntity, EventEntity], work=481*
  3: 0x002A [0x53] WAIT_SCHEDULER_TASK: Wait for scheduler "btu0" with entities [EventEntity, EventEntity]
  4: 0x0037 [0xAB] EventEntity->Render.Flags2 |= 0x02 // Set bit 1
  5: 0x0039 [0x00] END_REQSTACK()
```

### Event 65535.2

#### Metadata

| Field        | Value    |
|--------------|----------|
| Entrypoint   | 0x003A   |
| Data Size    | 19 bytes |
| Instructions | 3        |

```
      00 01 02 03 04 05 06 07  08 09 0A 0B 0C 0D 0E 0F
      -- -- -- -- -- -- -- --  -- -- -- -- -- -- -- --
0030:                                5B 04 80 F8 FF FF            [.....
0040: 7F F8 FF FF 7F 62 74 75  31 1C 05 80 00           .....btu1....   
```

#### Opcodes

```
  0: 0x003A [0x5B] LOAD_EXT_SCHEDULER: Load scheduler "btu1" with entities [EventEntity, EventEntity], work=481*
  1: 0x0049 [0x1C] WAIT(180* ticks)
  2: 0x004C [0x00] END_REQSTACK()
```

### Event 65535.3

#### Metadata

| Field        | Value    |
|--------------|----------|
| Entrypoint   | 0x004D   |
| Data Size    | 29 bytes |
| Instructions | 3        |

```
      00 01 02 03 04 05 06 07  08 09 0A 0B 0C 0D 0E 0F
      -- -- -- -- -- -- -- --  -- -- -- -- -- -- -- --
0040:                                         5B 06 80               [..
0050: F8 FF FF 7F F8 FF FF 7F  62 74 75 32 53 F8 FF FF  ........btu2S...
0060: 7F F8 FF FF 7F 62 74 75  32 00                    .....btu2.      
```

#### Opcodes

```
  0: 0x004D [0x5B] LOAD_EXT_SCHEDULER: Load scheduler "btu2" with entities [EventEntity, EventEntity], work=626*
  1: 0x005C [0x53] WAIT_SCHEDULER_TASK: Wait for scheduler "btu2" with entities [EventEntity, EventEntity]
  2: 0x0069 [0x00] END_REQSTACK()
```

### Event 65535.4

#### Metadata

| Field        | Value    |
|--------------|----------|
| Entrypoint   | 0x006A   |
| Data Size    | 22 bytes |
| Instructions | 6        |

```
      00 01 02 03 04 05 06 07  08 09 0A 0B 0C 0D 0E 0F
      -- -- -- -- -- -- -- --  -- -- -- -- -- -- -- --
0060:                                32 07 80 1F 00 08            2.....
0070: 80 09 80 02 80 1F 01 1E  F0 FF FF 7F 1C 0A 80 00  ................
```

#### Opcodes

```
  0: 0x006A [0x32] ExtData[1]->MainSpeed = 40* * 0.1
  1: 0x006D [0x1F] MOVE_ENTITY: EventEntity moves to X=-58.386*, Z=-2.760*, Y=-0.500*
  2: 0x0075 [0x1F] MOVE_ENTITY: Update entity position (mode=1)
  3: 0x0077 [0x1E] EventEntity looks at LocalPlayer and starts talking
  4: 0x007C [0x1C] WAIT(10* ticks)
  5: 0x007F [0x00] END_REQSTACK()
```

### Event 65535.5

#### Metadata

| Field        | Value    |
|--------------|----------|
| Entrypoint   | 0x0080   |
| Data Size    | 16 bytes |
| Instructions | 2        |

```
      00 01 02 03 04 05 06 07  08 09 0A 0B 0C 0D 0E 0F
      -- -- -- -- -- -- -- --  -- -- -- -- -- -- -- --
0080: 5B 0B 80 F8 FF FF 7F F8  FF FF 7F 6A 6E 61 30 00  [..........jna0.
```

#### Opcodes

```
  0: 0x0080 [0x5B] LOAD_EXT_SCHEDULER: Load scheduler "jna0" with entities [EventEntity, EventEntity], work=621*
  1: 0x008F [0x00] END_REQSTACK()
```

### Event 65535.6

#### Metadata

| Field        | Value    |
|--------------|----------|
| Entrypoint   | 0x0090   |
| Data Size    | 19 bytes |
| Instructions | 3        |

```
      00 01 02 03 04 05 06 07  08 09 0A 0B 0C 0D 0E 0F
      -- -- -- -- -- -- -- --  -- -- -- -- -- -- -- --
0090: 5B 04 80 F8 FF FF 7F F8  FF FF 7F 74 62 6F 30 1C  [..........tbo0.
00A0: 0C 80 00                                          ...             
```

#### Opcodes

```
  0: 0x0090 [0x5B] LOAD_EXT_SCHEDULER: Load scheduler "tbo0" with entities [EventEntity, EventEntity], work=481*
  1: 0x009F [0x1C] WAIT(60* ticks)
  2: 0x00A2 [0x00] END_REQSTACK()
```

### Event 65535.7

#### Metadata

| Field        | Value    |
|--------------|----------|
| Entrypoint   | 0x00A3   |
| Data Size    | 29 bytes |
| Instructions | 3        |

```
      00 01 02 03 04 05 06 07  08 09 0A 0B 0C 0D 0E 0F
      -- -- -- -- -- -- -- --  -- -- -- -- -- -- -- --
00A0:          5B 04 80 F8 FF  FF 7F F8 FF FF 7F 74 62     [..........tb
00B0: 6F 67 53 F8 FF FF 7F F8  FF FF 7F 74 62 6F 67 00  ogS........tbog.
```

#### Opcodes

```
  0: 0x00A3 [0x5B] LOAD_EXT_SCHEDULER: Load scheduler "tbog" with entities [EventEntity, EventEntity], work=481*
  1: 0x00B2 [0x53] WAIT_SCHEDULER_TASK: Wait for scheduler "tbog" with entities [EventEntity, EventEntity]
  2: 0x00BF [0x00] END_REQSTACK()
```

### Event 65535.8

#### Metadata

| Field        | Value    |
|--------------|----------|
| Entrypoint   | 0x00C0   |
| Data Size    | 29 bytes |
| Instructions | 3        |

```
      00 01 02 03 04 05 06 07  08 09 0A 0B 0C 0D 0E 0F
      -- -- -- -- -- -- -- --  -- -- -- -- -- -- -- --
00C0: 5B 04 80 F8 FF FF 7F F8  FF FF 7F 74 62 6F 31 53  [..........tbo1S
00D0: F8 FF FF 7F F8 FF FF 7F  74 62 6F 31 00           ........tbo1.   
```

#### Opcodes

```
  0: 0x00C0 [0x5B] LOAD_EXT_SCHEDULER: Load scheduler "tbo1" with entities [EventEntity, EventEntity], work=481*
  1: 0x00CF [0x53] WAIT_SCHEDULER_TASK: Wait for scheduler "tbo1" with entities [EventEntity, EventEntity]
  2: 0x00DC [0x00] END_REQSTACK()
```

### Event 65535.9

#### Metadata

| Field        | Value    |
|--------------|----------|
| Entrypoint   | 0x00DD   |
| Data Size    | 29 bytes |
| Instructions | 3        |

```
      00 01 02 03 04 05 06 07  08 09 0A 0B 0C 0D 0E 0F
      -- -- -- -- -- -- -- --  -- -- -- -- -- -- -- --
00D0:                                         5B 04 80               [..
00E0: F8 FF FF 7F F8 FF FF 7F  73 72 61 30 53 F8 FF FF  ........sra0S...
00F0: 7F F8 FF FF 7F 73 72 61  30 00                    .....sra0.      
```

#### Opcodes

```
  0: 0x00DD [0x5B] LOAD_EXT_SCHEDULER: Load scheduler "sra0" with entities [EventEntity, EventEntity], work=481*
  1: 0x00EC [0x53] WAIT_SCHEDULER_TASK: Wait for scheduler "sra0" with entities [EventEntity, EventEntity]
  2: 0x00F9 [0x00] END_REQSTACK()
```

### Event 65535.10

#### Metadata

| Field        | Value    |
|--------------|----------|
| Entrypoint   | 0x00FA   |
| Data Size    | 29 bytes |
| Instructions | 3        |

```
      00 01 02 03 04 05 06 07  08 09 0A 0B 0C 0D 0E 0F
      -- -- -- -- -- -- -- --  -- -- -- -- -- -- -- --
00F0:                                5B 04 80 F8 FF FF            [.....
0100: 7F F8 FF FF 7F 73 72 61  31 53 F8 FF FF 7F F8 FF  .....sra1S......
0110: FF 7F 73 72 61 31 00                              ..sra1.         
```

#### Opcodes

```
  0: 0x00FA [0x5B] LOAD_EXT_SCHEDULER: Load scheduler "sra1" with entities [EventEntity, EventEntity], work=481*
  1: 0x0109 [0x53] WAIT_SCHEDULER_TASK: Wait for scheduler "sra1" with entities [EventEntity, EventEntity]
  2: 0x0116 [0x00] END_REQSTACK()
```

### Event 65535.11

#### Metadata

| Field        | Value    |
|--------------|----------|
| Entrypoint   | 0x0117   |
| Data Size    | 29 bytes |
| Instructions | 3        |

```
      00 01 02 03 04 05 06 07  08 09 0A 0B 0C 0D 0E 0F
      -- -- -- -- -- -- -- --  -- -- -- -- -- -- -- --
0110:                      5B  0D 80 F8 FF FF 7F F8 FF         [........
0120: FF 7F 74 6C 62 30 53 F8  FF FF 7F F8 FF FF 7F 74  ..tlb0S........t
0130: 6C 62 30 00                                       lb0.            
```

#### Opcodes

```
  0: 0x0117 [0x5B] LOAD_EXT_SCHEDULER: Load scheduler "tlb0" with entities [EventEntity, EventEntity], work=475*
  1: 0x0126 [0x53] WAIT_SCHEDULER_TASK: Wait for scheduler "tlb0" with entities [EventEntity, EventEntity]
  2: 0x0133 [0x00] END_REQSTACK()
```

### Event 65535.12

#### Metadata

| Field        | Value    |
|--------------|----------|
| Entrypoint   | 0x0134   |
| Data Size    | 29 bytes |
| Instructions | 3        |

```
      00 01 02 03 04 05 06 07  08 09 0A 0B 0C 0D 0E 0F
      -- -- -- -- -- -- -- --  -- -- -- -- -- -- -- --
0130:             5B 0D 80 F8  FF FF 7F F8 FF FF 7F 74      [..........t
0140: 6C 62 31 53 F8 FF FF 7F  F8 FF FF 7F 74 6C 62 31  lb1S........tlb1
0150: 00                                                .               
```

#### Opcodes

```
  0: 0x0134 [0x5B] LOAD_EXT_SCHEDULER: Load scheduler "tlb1" with entities [EventEntity, EventEntity], work=475*
  1: 0x0143 [0x53] WAIT_SCHEDULER_TASK: Wait for scheduler "tlb1" with entities [EventEntity, EventEntity]
  2: 0x0150 [0x00] END_REQSTACK()
```

### Event 65535.13

#### Metadata

| Field        | Value    |
|--------------|----------|
| Entrypoint   | 0x0151   |
| Data Size    | 29 bytes |
| Instructions | 3        |

```
      00 01 02 03 04 05 06 07  08 09 0A 0B 0C 0D 0E 0F
      -- -- -- -- -- -- -- --  -- -- -- -- -- -- -- --
0150:    5B 0D 80 F8 FF FF 7F  F8 FF FF 7F 74 6C 65 30   [..........tle0
0160: 53 F8 FF FF 7F F8 FF FF  7F 74 6C 65 30 00        S........tle0.  
```

#### Opcodes

```
  0: 0x0151 [0x5B] LOAD_EXT_SCHEDULER: Load scheduler "tle0" with entities [EventEntity, EventEntity], work=475*
  1: 0x0160 [0x53] WAIT_SCHEDULER_TASK: Wait for scheduler "tle0" with entities [EventEntity, EventEntity]
  2: 0x016D [0x00] END_REQSTACK()
```

### Event 65535.14

#### Metadata

| Field        | Value    |
|--------------|----------|
| Entrypoint   | 0x016E   |
| Data Size    | 29 bytes |
| Instructions | 3        |

```
      00 01 02 03 04 05 06 07  08 09 0A 0B 0C 0D 0E 0F
      -- -- -- -- -- -- -- --  -- -- -- -- -- -- -- --
0160:                                            5B 0D                [.
0170: 80 F8 FF FF 7F F8 FF FF  7F 74 6C 65 31 53 F8 FF  .........tle1S..
0180: FF 7F F8 FF FF 7F 74 6C  65 31 00                 ......tle1.     
```

#### Opcodes

```
  0: 0x016E [0x5B] LOAD_EXT_SCHEDULER: Load scheduler "tle1" with entities [EventEntity, EventEntity], work=475*
  1: 0x017D [0x53] WAIT_SCHEDULER_TASK: Wait for scheduler "tle1" with entities [EventEntity, EventEntity]
  2: 0x018A [0x00] END_REQSTACK()
```

### Event 65535.15

#### Metadata

| Field        | Value    |
|--------------|----------|
| Entrypoint   | 0x018B   |
| Data Size    | 29 bytes |
| Instructions | 3        |

```
      00 01 02 03 04 05 06 07  08 09 0A 0B 0C 0D 0E 0F
      -- -- -- -- -- -- -- --  -- -- -- -- -- -- -- --
0180:                                   5B 0D 80 F8 FF             [....
0190: FF 7F F8 FF FF 7F 74 6C  61 30 53 F8 FF FF 7F F8  ......tla0S.....
01A0: FF FF 7F 74 6C 61 30 00                           ...tla0.        
```

#### Opcodes

```
  0: 0x018B [0x5B] LOAD_EXT_SCHEDULER: Load scheduler "tla0" with entities [EventEntity, EventEntity], work=475*
  1: 0x019A [0x53] WAIT_SCHEDULER_TASK: Wait for scheduler "tla0" with entities [EventEntity, EventEntity]
  2: 0x01A7 [0x00] END_REQSTACK()
```

### Event 65535.16

#### Metadata

| Field        | Value    |
|--------------|----------|
| Entrypoint   | 0x01A8   |
| Data Size    | 29 bytes |
| Instructions | 3        |

```
      00 01 02 03 04 05 06 07  08 09 0A 0B 0C 0D 0E 0F
      -- -- -- -- -- -- -- --  -- -- -- -- -- -- -- --
01A0:                          5B 0D 80 F8 FF FF 7F F8          [.......
01B0: FF FF 7F 74 6C 61 31 53  F8 FF FF 7F F8 FF FF 7F  ...tla1S........
01C0: 74 6C 61 31 00                                    tla1.           
```

#### Opcodes

```
  0: 0x01A8 [0x5B] LOAD_EXT_SCHEDULER: Load scheduler "tla1" with entities [EventEntity, EventEntity], work=475*
  1: 0x01B7 [0x53] WAIT_SCHEDULER_TASK: Wait for scheduler "tla1" with entities [EventEntity, EventEntity]
  2: 0x01C4 [0x00] END_REQSTACK()
```

### Event 65535.17

#### Metadata

| Field        | Value    |
|--------------|----------|
| Entrypoint   | 0x01C5   |
| Data Size    | 16 bytes |
| Instructions | 2        |

```
      00 01 02 03 04 05 06 07  08 09 0A 0B 0C 0D 0E 0F
      -- -- -- -- -- -- -- --  -- -- -- -- -- -- -- --
01C0:                5B 0E 80  F8 FF FF 7F F8 FF FF 7F       [..........
01D0: 74 68 6B 30 00                                    thk0.           
```

#### Opcodes

```
  0: 0x01C5 [0x5B] LOAD_EXT_SCHEDULER: Load scheduler "thk0" with entities [EventEntity, EventEntity], work=477*
  1: 0x01D4 [0x00] END_REQSTACK()
```

### Event 65535.18

#### Metadata

| Field        | Value    |
|--------------|----------|
| Entrypoint   | 0x01D5   |
| Data Size    | 29 bytes |
| Instructions | 3        |

```
      00 01 02 03 04 05 06 07  08 09 0A 0B 0C 0D 0E 0F
      -- -- -- -- -- -- -- --  -- -- -- -- -- -- -- --
01D0:                5B 0E 80  F8 FF FF 7F F8 FF FF 7F       [..........
01E0: 74 68 6B 31 53 F8 FF FF  7F F8 FF FF 7F 74 68 6B  thk1S........thk
01F0: 31 00                                             1.              
```

#### Opcodes

```
  0: 0x01D5 [0x5B] LOAD_EXT_SCHEDULER: Load scheduler "thk1" with entities [EventEntity, EventEntity], work=477*
  1: 0x01E4 [0x53] WAIT_SCHEDULER_TASK: Wait for scheduler "thk1" with entities [EventEntity, EventEntity]
  2: 0x01F1 [0x00] END_REQSTACK()
```

### Event 75

#### Metadata

| Field        | Value    |
|--------------|----------|
| Entrypoint   | 0x01F2   |
| Data Size    | 26 bytes |
| Instructions | 4        |

```
      00 01 02 03 04 05 06 07  08 09 0A 0B 0C 0D 0E 0F
      -- -- -- -- -- -- -- --  -- -- -- -- -- -- -- --
01F0:       94 01 F8 FF FF 7F  37 0F 80 10 80 02 80 11    ......7.......
0200: 80 79 00 F8 FF FF 7F 42  40 0F 01 00              .y.....B@...    
```

#### Opcodes

```
  0: 0x01F2 [0x94] EventEntity->Render.Flags3 ^= 0x01
  1: 0x01F8 [0x37] UPDATE_EVENT_POSITION_AND_DIR: x=-54.499*, z=-5.889*, y=-0.500*, direction=156.1°*
  2: 0x0201 [0x79] EventEntity looks at Ulmia (ID: 17776706/0x010F4042) (Basic look)
  3: 0x020B [0x00] END_REQSTACK()
```

### Event 10015

#### Metadata

| Field        | Value   |
|--------------|---------|
| Entrypoint   | 0x020C  |
| Data Size    | 1 bytes |
| Instructions | 1       |

```
      00 01 02 03 04 05 06 07  08 09 0A 0B 0C 0D 0E 0F
      -- -- -- -- -- -- -- --  -- -- -- -- -- -- -- --
0200:                                      00                       .   
```

#### Opcodes

```
  0: 0x020C [0x00] END_REQSTACK()
```

### Event 65535.19

#### Metadata

| Field        | Value    |
|--------------|----------|
| Entrypoint   | 0x020D   |
| Data Size    | 18 bytes |
| Instructions | 4        |

```
      00 01 02 03 04 05 06 07  08 09 0A 0B 0C 0D 0E 0F
      -- -- -- -- -- -- -- --  -- -- -- -- -- -- -- --
0200:                                         22 00 2F               "./
0210: 00 F8 FF FF 7F 6C F8 FF  FF 7F 12 80 13 80 00     .....l......... 
```

#### Opcodes

```
  0: 0x020D [0x22] ENTITY_HIDE_FLAG(enabled=0x00)
  1: 0x020F [0x2F] EventEntity->Render.Flags0 &= ~0x80000 // Bit 19
  2: 0x0215 [0x6C] FADE_ENTITY_COLOR(entity_id=EventEntity, end_alpha=0*, fade_time=1*)
  3: 0x021E [0x00] END_REQSTACK()
```

### Event 65535.20

#### Metadata

| Field        | Value    |
|--------------|----------|
| Entrypoint   | 0x021F   |
| Data Size    | 10 bytes |
| Instructions | 2        |

```
      00 01 02 03 04 05 06 07  08 09 0A 0B 0C 0D 0E 0F
      -- -- -- -- -- -- -- --  -- -- -- -- -- -- -- --
0210:                                               37                 7
0220: 14 80 15 80 12 80 16 80  00                       .........       
```

#### Opcodes

```
  0: 0x021F [0x37] UPDATE_EVENT_POSITION_AND_DIR: x=-59.925*, z=76.541*, y=0.000*, direction=267.3°*
  1: 0x0228 [0x00] END_REQSTACK()
```

### Event 65535.21

#### Metadata

| Field        | Value    |
|--------------|----------|
| Entrypoint   | 0x0229   |
| Data Size    | 25 bytes |
| Instructions | 6        |

```
      00 01 02 03 04 05 06 07  08 09 0A 0B 0C 0D 0E 0F
      -- -- -- -- -- -- -- --  -- -- -- -- -- -- -- --
0220:                             79 00 F8 FF FF 7F 31           y.....1
0230: 40 0F 01 32 17 80 1F 00  18 80 19 80 12 80 1F 01  @..2............
0240: 6F 00                                             o.              
```

#### Opcodes

```
  0: 0x0229 [0x79] EventEntity looks at Nevela (ID: 17776689/0x010F4031) (Basic look)
  1: 0x0233 [0x32] ExtData[1]->MainSpeed = 13* * 0.1
  2: 0x0236 [0x1F] MOVE_ENTITY: EventEntity moves to X=-59.815*, Z=79.566*, Y=0.000*
  3: 0x023E [0x1F] MOVE_ENTITY: Update entity position (mode=1)
  4: 0x0240 [0x6F] WAIT_FRAME_DELAY: Yield until WaitTime reaches zero
  5: 0x0241 [0x00] END_REQSTACK()
```

### Event 65535.22

#### Metadata

| Field        | Value    |
|--------------|----------|
| Entrypoint   | 0x0242   |
| Data Size    | 32 bytes |
| Instructions | 8        |

```
      00 01 02 03 04 05 06 07  08 09 0A 0B 0C 0D 0E 0F
      -- -- -- -- -- -- -- --  -- -- -- -- -- -- -- --
0240:       7B F8 FF FF 7F 32  17 80 1F 00 1A 80 1B 80    {....2........
0250: 12 80 1F 01 6F 1C 1C 80  4A F8 FF FF 7F 0E 40 0F  ....o...J.....@.
0260: 01 00                                             ..              
```

#### Opcodes

```
  0: 0x0242 [0x7B] EventEntity stops talking
  1: 0x0247 [0x32] ExtData[1]->MainSpeed = 13* * 0.1
  2: 0x024A [0x1F] MOVE_ENTITY: EventEntity moves to X=-59.481*, Z=80.139*, Y=0.000*
  3: 0x0252 [0x1F] MOVE_ENTITY: Update entity position (mode=1)
  4: 0x0254 [0x6F] WAIT_FRAME_DELAY: Yield until WaitTime reaches zero
  5: 0x0255 [0x1C] WAIT(3* ticks)
  6: 0x0258 [0x4A] EventEntity looks at Shalott (ID: 17776654/0x010F400E)
  7: 0x0261 [0x00] END_REQSTACK()
```

### Event 10221

#### Metadata

| Field        | Value   |
|--------------|---------|
| Entrypoint   | 0x0262  |
| Data Size    | 1 bytes |
| Instructions | 1       |

```
      00 01 02 03 04 05 06 07  08 09 0A 0B 0C 0D 0E 0F
      -- -- -- -- -- -- -- --  -- -- -- -- -- -- -- --
0260:       00                                            .             
```

#### Opcodes

```
  0: 0x0262 [0x00] END_REQSTACK()
```

### Event 65535.23

#### Metadata

| Field        | Value    |
|--------------|----------|
| Entrypoint   | 0x0263   |
| Data Size    | 17 bytes |
| Instructions | 5        |

```
      00 01 02 03 04 05 06 07  08 09 0A 0B 0C 0D 0E 0F
      -- -- -- -- -- -- -- --  -- -- -- -- -- -- -- --
0260:          32 1D 80 1F 00  1E 80 1F 80 20 80 1F 01     2........ ...
0270: 1C 21 80 00                                       .!..            
```

#### Opcodes

```
  0: 0x0263 [0x32] ExtData[1]->MainSpeed = 22* * 0.1
  1: 0x0266 [0x1F] MOVE_ENTITY: EventEntity moves to X=-44.264*, Z=93.195*, Y=7.999*
  2: 0x026E [0x1F] MOVE_ENTITY: Update entity position (mode=1)
  3: 0x0270 [0x1C] WAIT(30* ticks)
  4: 0x0273 [0x00] END_REQSTACK()
```

### Event 65535.24

#### Metadata

| Field        | Value    |
|--------------|----------|
| Entrypoint   | 0x0274   |
| Data Size    | 17 bytes |
| Instructions | 5        |

```
      00 01 02 03 04 05 06 07  08 09 0A 0B 0C 0D 0E 0F
      -- -- -- -- -- -- -- --  -- -- -- -- -- -- -- --
0270:             32 22 80 1F  00 1E 80 1F 80 20 80 1F      2"....... ..
0280: 01 1C 21 80 00                                    ..!..           
```

#### Opcodes

```
  0: 0x0274 [0x32] ExtData[1]->MainSpeed = 16* * 0.1
  1: 0x0277 [0x1F] MOVE_ENTITY: EventEntity moves to X=-44.264*, Z=93.195*, Y=7.999*
  2: 0x027F [0x1F] MOVE_ENTITY: Update entity position (mode=1)
  3: 0x0281 [0x1C] WAIT(30* ticks)
  4: 0x0284 [0x00] END_REQSTACK()
```

### Event 65535.25

#### Metadata

| Field        | Value    |
|--------------|----------|
| Entrypoint   | 0x0285   |
| Data Size    | 34 bytes |
| Instructions | 8        |

```
      00 01 02 03 04 05 06 07  08 09 0A 0B 0C 0D 0E 0F
      -- -- -- -- -- -- -- --  -- -- -- -- -- -- -- --
0280:                32 1D 80  1F 00 23 80 24 80 20 80       2....#.$. .
0290: 1F 01 1F 00 25 80 26 80  20 80 1F 01 1F 00 27 80  ....%.&. .....'.
02A0: 28 80 29 80 1F 01 00                              (.)....         
```

#### Opcodes

```
  0: 0x0285 [0x32] ExtData[1]->MainSpeed = 22* * 0.1
  1: 0x0288 [0x1F] MOVE_ENTITY: EventEntity moves to X=-42.235*, Z=88.939*, Y=7.999*
  2: 0x0290 [0x1F] MOVE_ENTITY: Update entity position (mode=1)
  3: 0x0292 [0x1F] MOVE_ENTITY: EventEntity moves to X=-43.224*, Z=86.544*, Y=7.999*
  4: 0x029A [0x1F] MOVE_ENTITY: Update entity position (mode=1)
  5: 0x029C [0x1F] MOVE_ENTITY: EventEntity moves to X=-49.763*, Z=82.969*, Y=4.148*
  6: 0x02A4 [0x1F] MOVE_ENTITY: Update entity position (mode=1)
  7: 0x02A6 [0x00] END_REQSTACK()
```

### Event 65535.26

#### Metadata

| Field        | Value    |
|--------------|----------|
| Entrypoint   | 0x02A7   |
| Data Size    | 34 bytes |
| Instructions | 8        |

```
      00 01 02 03 04 05 06 07  08 09 0A 0B 0C 0D 0E 0F
      -- -- -- -- -- -- -- --  -- -- -- -- -- -- -- --
02A0:                      32  22 80 1F 00 23 80 24 80         2"...#.$.
02B0: 20 80 1F 01 1F 00 25 80  26 80 20 80 1F 01 1F 00   .....%.&. .....
02C0: 27 80 28 80 29 80 1F 01  00                       '.(.)....       
```

#### Opcodes

```
  0: 0x02A7 [0x32] ExtData[1]->MainSpeed = 16* * 0.1
  1: 0x02AA [0x1F] MOVE_ENTITY: EventEntity moves to X=-42.235*, Z=88.939*, Y=7.999*
  2: 0x02B2 [0x1F] MOVE_ENTITY: Update entity position (mode=1)
  3: 0x02B4 [0x1F] MOVE_ENTITY: EventEntity moves to X=-43.224*, Z=86.544*, Y=7.999*
  4: 0x02BC [0x1F] MOVE_ENTITY: Update entity position (mode=1)
  5: 0x02BE [0x1F] MOVE_ENTITY: EventEntity moves to X=-49.763*, Z=82.969*, Y=4.148*
  6: 0x02C6 [0x1F] MOVE_ENTITY: Update entity position (mode=1)
  7: 0x02C8 [0x00] END_REQSTACK()
```

### Event 65535.27

#### Metadata

| Field        | Value   |
|--------------|---------|
| Entrypoint   | 0x02C9  |
| Data Size    | 5 bytes |
| Instructions | 2       |

```
      00 01 02 03 04 05 06 07  08 09 0A 0B 0C 0D 0E 0F
      -- -- -- -- -- -- -- --  -- -- -- -- -- -- -- --
02C0:                             B6 00 2A 80 00                 ..*..  
```

#### Opcodes

```
  0: 0x02C9 [0xB6] ENTITY_APPEARANCE_HANDLER(case=Hair style, value=1457*)
  1: 0x02CD [0x00] END_REQSTACK()
```

### Event 65535.28

#### Metadata

| Field        | Value   |
|--------------|---------|
| Entrypoint   | 0x02CE  |
| Data Size    | 4 bytes |
| Instructions | 2       |

```
      00 01 02 03 04 05 06 07  08 09 0A 0B 0C 0D 0E 0F
      -- -- -- -- -- -- -- --  -- -- -- -- -- -- -- --
02C0:                                            95 2B                .+
02D0: 80 00                                             ..              
```

#### Opcodes

```
  0: 0x02CE [0x95] SETUP_EVENT_NPC: Prepare NPC for event (Render.Flags3 = 2*)
  1: 0x02D1 [0x00] END_REQSTACK()
```

### Event 65535.29

#### Metadata

| Field        | Value   |
|--------------|---------|
| Entrypoint   | 0x02D2  |
| Data Size    | 2 bytes |
| Instructions | 2       |

```
      00 01 02 03 04 05 06 07  08 09 0A 0B 0C 0D 0E 0F
      -- -- -- -- -- -- -- --  -- -- -- -- -- -- -- --
02D0:       96 00                                         ..            
```

#### Opcodes

```
  0: 0x02D2 [0x96] UNSET_EVENT_NPC: Restore NPC after event (removes event NPC status)
  1: 0x02D3 [0x00] END_REQSTACK()
```

### Event 65535.30

#### Metadata

| Field        | Value   |
|--------------|---------|
| Entrypoint   | 0x02D4  |
| Data Size    | 5 bytes |
| Instructions | 2       |

```
      00 01 02 03 04 05 06 07  08 09 0A 0B 0C 0D 0E 0F
      -- -- -- -- -- -- -- --  -- -- -- -- -- -- -- --
02D0:             B6 00 2C 80  00                           ..,..       
```

#### Opcodes

```
  0: 0x02D4 [0xB6] ENTITY_APPEARANCE_HANDLER(case=Hair style, value=1446*)
  1: 0x02D8 [0x00] END_REQSTACK()
```
