# 17776655 - Dietmund

## Common Data

| Field            | Value                 |
|------------------|-----------------------|
| Zone             | Upper Jeuno (ID: 244) |
| Block Size       | 1260 bytes            |
| Total Events     | 32                    |
| References Count | 48                    |

## List of Events

| Event ID                   | Entrypoint   |   Size |   Instructions |
|----------------------------|--------------|--------|----------------|
| [65535](#event-65535)      | 0x0000       |      6 |              3 |
| [17](#event-17)            | 0x0006       |     10 |              2 |
| [65535.1](#event-655351)   | 0x0010       |     96 |             17 |
| [65535.2](#event-655352)   | 0x0070       |     49 |             11 |
| [65535.3](#event-655353)   | 0x00A1       |     60 |             10 |
| [65535.4](#event-655354)   | 0x00DD       |     19 |              7 |
| [65535.5](#event-655355)   | 0x00F0       |     14 |              4 |
| [99](#event-99)            | 0x00FE       |     21 |              3 |
| [70](#event-70)            | 0x0113       |      1 |              1 |
| [65535.6](#event-655356)   | 0x0114       |     13 |              4 |
| [65535.7](#event-655357)   | 0x0121       |     37 |              9 |
| [65535.8](#event-655358)   | 0x0146       |     11 |              3 |
| [65535.9](#event-655359)   | 0x0151       |      1 |              1 |
| [65535.10](#event-6553510) | 0x0152       |     83 |             15 |
| [65535.11](#event-6553511) | 0x01A5       |     26 |              6 |
| [65535.12](#event-6553512) | 0x01BF       |     60 |             13 |
| [65535.13](#event-6553513) | 0x01FB       |     61 |             13 |
| [65535.14](#event-6553514) | 0x0238       |     23 |              6 |
| [65535.15](#event-6553515) | 0x024F       |      6 |              2 |
| [65535.16](#event-6553516) | 0x0255       |     19 |              3 |
| [65535.17](#event-6553517) | 0x0268       |     29 |              3 |
| [65535.18](#event-6553518) | 0x0285       |     19 |              3 |
| [65535.19](#event-6553519) | 0x0298       |     29 |              3 |
| [65535.20](#event-6553520) | 0x02B5       |     19 |              3 |
| [65535.21](#event-6553521) | 0x02C8       |     29 |              3 |
| [65535.22](#event-6553522) | 0x02E5       |     19 |              3 |
| [65535.23](#event-6553523) | 0x02F8       |     29 |              3 |
| [65535.24](#event-6553524) | 0x0315       |     29 |              3 |
| [65535.25](#event-6553525) | 0x0332       |     29 |              3 |
| [65535.26](#event-6553526) | 0x034F       |     29 |              3 |
| [65535.27](#event-6553527) | 0x036C       |     29 |              3 |
| [65535.28](#event-6553528) | 0x0389       |     19 |              3 |

## DAT References (imed_data)

|   Index | Hex Value   |   Dec Value |
|---------|-------------|-------------|
|       0 | 0x000D      |          13 |
|       1 | 0xFFFF4C1A  |  4294921242 |
|       2 | 0x1687F     |       92287 |
|       3 | 0x1F3F      |        7999 |
|       4 | 0x0A97      |        2711 |
|       5 | 0xFFFF46E1  |  4294919905 |
|       6 | 0x1745D     |       95325 |
|       7 | 0x1F6D      |        8045 |
|       8 | 0xFFFF305F  |  4294914143 |
|       9 | 0x17271     |       94833 |
|      10 | 0x2007      |        8199 |
|      11 | 0xFFFF1D98  |  4294909336 |
|      12 | 0x16A81     |       92801 |
|      13 | 0x0046      |          70 |
|      14 | 0x0359      |         857 |
|      15 | 0xFFFF1E45  |  4294909509 |
|      16 | 0x154FE     |       87294 |
|      17 | 0xFFFF134C  |  4294906700 |
|      18 | 0x14771     |       83825 |
|      19 | 0x1F40      |        8000 |
|      20 | 0xFFFF28B6  |  4294912182 |
|      21 | 0x16C1E     |       93214 |
|      22 | 0x0700      |        1792 |
|      23 | 0xFFFF1B1A  |  4294908698 |
|      24 | 0x16BCC     |       93132 |
|      25 | 0xFFFF1949  |  4294908233 |
|      26 | 0x16E9A     |       93850 |
|      27 | 0xFFFF441F  |  4294919199 |
|      28 | 0x17049     |       94281 |
|      29 | 0x1F9F      |        8095 |
|      30 | 0xFFFF1722  |  4294907682 |
|      31 | 0x16E6F     |       93807 |
|      32 | 0xFFFF0D9B  |  4294905243 |
|      33 | 0x16D52     |       93522 |
|      34 | 0xFFFF18DF  |  4294908127 |
|      35 | 0x16FB8     |       94136 |
|      36 | 0xFFFF2B9D  |  4294912925 |
|      37 | 0x15D29     |       89385 |
|      38 | 0x16B95     |       93077 |
|      39 | 0x0004      |           4 |
|      40 | 0xFFFF4818  |  4294920216 |
|      41 | 0x178E8     |       96488 |
|      42 | 0xFFFF5D50  |  4294925648 |
|      43 | 0x153D0     |       86992 |
|      44 | 0x0000      |           0 |
|      45 | 0x003C      |          60 |
|      46 | 0x0002      |           2 |
|      47 | 0x0078      |         120 |

## Events

### Event 65535

#### Metadata

| Field        | Value   |
|--------------|---------|
| Entrypoint   | 0x0000  |
| Data Size    | 6 bytes |
| Instructions | 3       |

```
      00 01 02 03 04 05 06 07  08 09 0A 0B 0C 0D 0E 0F
      -- -- -- -- -- -- -- --  -- -- -- -- -- -- -- --
0000: 22 01 32 00 80 00                                 ".2...          
```

#### Opcodes

```
  0: 0x0000 [0x22] ENTITY_HIDE_FLAG(enabled=0x01)
  1: 0x0002 [0x32] ExtData[1]->MainSpeed = 13* * 0.1
  2: 0x0005 [0x00] END_REQSTACK()
```

### Event 17

#### Metadata

| Field        | Value    |
|--------------|----------|
| Entrypoint   | 0x0006   |
| Data Size    | 10 bytes |
| Instructions | 2        |

```
      00 01 02 03 04 05 06 07  08 09 0A 0B 0C 0D 0E 0F
      -- -- -- -- -- -- -- --  -- -- -- -- -- -- -- --
0000:                   37 01  80 02 80 03 80 04 80 00        7.........
```

#### Opcodes

```
  0: 0x0006 [0x37] UPDATE_EVENT_POSITION_AND_DIR: x=-46.054*, z=92.287*, y=7.999*, direction=238.3째*
  1: 0x000F [0x00] END_REQSTACK()
```

### Event 65535.1

#### Metadata

| Field        | Value    |
|--------------|----------|
| Entrypoint   | 0x0010   |
| Data Size    | 96 bytes |
| Instructions | 17       |

```
      00 01 02 03 04 05 06 07  08 09 0A 0B 0C 0D 0E 0F
      -- -- -- -- -- -- -- --  -- -- -- -- -- -- -- --
0010: 4A 0C 40 0F 01 F8 FF FF  7F 32 00 80 1F 00 05 80  J.@......2......
0020: 06 80 07 80 1F 01 4A F0  FF FF 7F F8 FF FF 7F 4A  ......J........J
0030: 0D 40 0F 01 F8 FF FF 7F  79 00 F8 FF FF 7F 0C 40  .@......y......@
0040: 0F 01 1F 00 08 80 09 80  0A 80 1F 01 6F 4A F0 FF  ............oJ..
0050: FF 7F F8 FF FF 7F 4A 0C  40 0F 01 F8 FF FF 7F 4A  ......J.@......J
0060: 0D 40 0F 01 F8 FF FF 7F  1E 0C 40 0F 01 6F 70 00  .@........@..op.
```

#### Opcodes

```
  0: 0x0010 [0x4A] Brutus (ID: 17776652/0x010F400C) looks at EventEntity
  1: 0x0019 [0x32] ExtData[1]->MainSpeed = 13* * 0.1
  2: 0x001C [0x1F] MOVE_ENTITY: EventEntity moves to X=-47.391*, Z=95.325*, Y=8.045*
  3: 0x0024 [0x1F] MOVE_ENTITY: Update entity position (mode=1)
  4: 0x0026 [0x4A] LocalPlayer looks at EventEntity
  5: 0x002F [0x4A] Osker (ID: 17776653/0x010F400D) looks at EventEntity
  6: 0x0038 [0x79] EventEntity looks at Brutus (ID: 17776652/0x010F400C) (Basic look)
  7: 0x0042 [0x1F] MOVE_ENTITY: EventEntity moves to X=-53.153*, Z=94.833*, Y=8.199*
  8: 0x004A [0x1F] MOVE_ENTITY: Update entity position (mode=1)
  9: 0x004C [0x6F] WAIT_FRAME_DELAY: Yield until WaitTime reaches zero
 10: 0x004D [0x4A] LocalPlayer looks at EventEntity
 11: 0x0056 [0x4A] Brutus (ID: 17776652/0x010F400C) looks at EventEntity
 12: 0x005F [0x4A] Osker (ID: 17776653/0x010F400D) looks at EventEntity
 13: 0x0068 [0x1E] EventEntity looks at Brutus (ID: 17776652/0x010F400C) and starts talking
 14: 0x006D [0x6F] WAIT_FRAME_DELAY: Yield until WaitTime reaches zero
 15: 0x006E [0x70] WAIT_ENTITY_RENDER_FLAG: Wait while EventEntity->Render.Flags3 bit 2 is set (cancel turn if not)
 16: 0x006F [0x00] END_REQSTACK()
```

### Event 65535.2

#### Metadata

| Field        | Value    |
|--------------|----------|
| Entrypoint   | 0x0070   |
| Data Size    | 49 bytes |
| Instructions | 11       |

```
      00 01 02 03 04 05 06 07  08 09 0A 0B 0C 0D 0E 0F
      -- -- -- -- -- -- -- --  -- -- -- -- -- -- -- --
0070: 32 00 80 1F 00 0B 80 0C  80 0A 80 1F 01 6F 4A 0D  2............oJ.
0080: 40 0F 01 F8 FF FF 7F 4A  F0 FF FF 7F F8 FF FF 7F  @......J........
0090: 1E 0A 40 0F 01 6F 70 4A  0A 40 0F 01 F8 FF FF 7F  ..@..opJ.@......
00A0: 00                                                .               
```

#### Opcodes

```
  0: 0x0070 [0x32] ExtData[1]->MainSpeed = 13* * 0.1
  1: 0x0073 [0x1F] MOVE_ENTITY: EventEntity moves to X=-57.960*, Z=92.801*, Y=8.199*
  2: 0x007B [0x1F] MOVE_ENTITY: Update entity position (mode=1)
  3: 0x007D [0x6F] WAIT_FRAME_DELAY: Yield until WaitTime reaches zero
  4: 0x007E [0x4A] Osker (ID: 17776653/0x010F400D) looks at EventEntity
  5: 0x0087 [0x4A] LocalPlayer looks at EventEntity
  6: 0x0090 [0x1E] EventEntity looks at Chocobo (ID: 17776650/0x010F400A) and starts talking
  7: 0x0095 [0x6F] WAIT_FRAME_DELAY: Yield until WaitTime reaches zero
  8: 0x0096 [0x70] WAIT_ENTITY_RENDER_FLAG: Wait while EventEntity->Render.Flags3 bit 2 is set (cancel turn if not)
  9: 0x0097 [0x4A] Chocobo (ID: 17776650/0x010F400A) looks at EventEntity
 10: 0x00A0 [0x00] END_REQSTACK()
```

### Event 65535.3

#### Metadata

| Field        | Value    |
|--------------|----------|
| Entrypoint   | 0x00A1   |
| Data Size    | 60 bytes |
| Instructions | 10       |

```
      00 01 02 03 04 05 06 07  08 09 0A 0B 0C 0D 0E 0F
      -- -- -- -- -- -- -- --  -- -- -- -- -- -- -- --
00A0:    3B 0A 40 0F 01 00 00  01 00 02 00 32 00 80 31   ;.@........2..1
00B0: 00 00 00 01 00 02 00 0D  80 31 01 4A 0D 40 0F 01  .........1.J.@..
00C0: F8 FF FF 7F 6F 76 0D 40  0F 01 4A 0C 40 0F 01 F8  ....ov.@..J.@...
00D0: FF FF 7F 4A F0 FF FF 7F  F8 FF FF 7F 00           ...J.........   
```

#### Opcodes

```
  0: 0x00A1 [0x3B] GET_ENTITY_POSITION(entity=Chocobo (ID: 17776650/0x010F400A), x_destination=ExtData[1]->WorkLocal[0], y_destination=ExtData[1]->WorkLocal[1], z_destination=ExtData[1]->WorkLocal[2])
  1: 0x00AC [0x32] ExtData[1]->MainSpeed = 13* * 0.1
  2: 0x00AF [0x31] UPDATE_ENTITY_POSITION: Set EventEntity goal position to X=ExtData[1]->WorkLocal[0], Z=ExtData[1]->WorkLocal[1], Y=ExtData[1]->WorkLocal[2], Time=70*
  3: 0x00B9 [0x31] UPDATE_ENTITY_POSITION: Move EventEntity towards goal position
  4: 0x00BB [0x4A] Osker (ID: 17776653/0x010F400D) looks at EventEntity
  5: 0x00C4 [0x6F] WAIT_FRAME_DELAY: Yield until WaitTime reaches zero
  6: 0x00C5 [0x76] CHECK_ENTITY_RENDER_FLAGS: Wait until Osker (ID: 17776653/0x010F400D) Render.Flags0 and Render.Flags3 conditions are met
  7: 0x00CA [0x4A] Brutus (ID: 17776652/0x010F400C) looks at EventEntity
  8: 0x00D3 [0x4A] LocalPlayer looks at EventEntity
  9: 0x00DC [0x00] END_REQSTACK()
```

### Event 65535.4

#### Metadata

| Field        | Value    |
|--------------|----------|
| Entrypoint   | 0x00DD   |
| Data Size    | 19 bytes |
| Instructions | 7        |

```
      00 01 02 03 04 05 06 07  08 09 0A 0B 0C 0D 0E 0F
      -- -- -- -- -- -- -- --  -- -- -- -- -- -- -- --
00D0:                                         32 00 80               2..
00E0: 39 0E 80 6F 70 1F 00 0F  80 10 80 0A 80 1F 01 00  9..op...........
```

#### Opcodes

```
  0: 0x00DD [0x32] ExtData[1]->MainSpeed = 13* * 0.1
  1: 0x00E0 [0x39] SET_ENTITY_DIRECTION(direction=4.7째*)
  2: 0x00E3 [0x6F] WAIT_FRAME_DELAY: Yield until WaitTime reaches zero
  3: 0x00E4 [0x70] WAIT_ENTITY_RENDER_FLAG: Wait while EventEntity->Render.Flags3 bit 2 is set (cancel turn if not)
  4: 0x00E5 [0x1F] MOVE_ENTITY: EventEntity moves to X=-57.787*, Z=87.294*, Y=8.199*
  5: 0x00ED [0x1F] MOVE_ENTITY: Update entity position (mode=1)
  6: 0x00EF [0x00] END_REQSTACK()
```

### Event 65535.5

#### Metadata

| Field        | Value    |
|--------------|----------|
| Entrypoint   | 0x00F0   |
| Data Size    | 14 bytes |
| Instructions | 4        |

```
      00 01 02 03 04 05 06 07  08 09 0A 0B 0C 0D 0E 0F
      -- -- -- -- -- -- -- --  -- -- -- -- -- -- -- --
00F0: 32 00 80 1F 00 11 80 12  80 13 80 1F 01 00        2.............  
```

#### Opcodes

```
  0: 0x00F0 [0x32] ExtData[1]->MainSpeed = 13* * 0.1
  1: 0x00F3 [0x1F] MOVE_ENTITY: EventEntity moves to X=-60.596*, Z=83.825*, Y=8.000*
  2: 0x00FB [0x1F] MOVE_ENTITY: Update entity position (mode=1)
  3: 0x00FD [0x00] END_REQSTACK()
```

### Event 99

#### Metadata

| Field        | Value    |
|--------------|----------|
| Entrypoint   | 0x00FE   |
| Data Size    | 21 bytes |
| Instructions | 3        |

```
      00 01 02 03 04 05 06 07  08 09 0A 0B 0C 0D 0E 0F
      -- -- -- -- -- -- -- --  -- -- -- -- -- -- -- --
00F0:                                            37 14                7.
0100: 80 15 80 0A 80 16 80 3B  F8 FF FF 7F 00 00 01 00  .......;........
0110: 02 00 00                                          ...             
```

#### Opcodes

```
  0: 0x00FE [0x37] UPDATE_EVENT_POSITION_AND_DIR: x=-55.114*, z=93.214*, y=8.199*, direction=157.5째*
  1: 0x0107 [0x3B] GET_ENTITY_POSITION(entity=EventEntity, x_destination=ExtData[1]->WorkLocal[0], y_destination=ExtData[1]->WorkLocal[1], z_destination=ExtData[1]->WorkLocal[2])
  2: 0x0112 [0x00] END_REQSTACK()
```

### Event 70

#### Metadata

| Field        | Value   |
|--------------|---------|
| Entrypoint   | 0x0113  |
| Data Size    | 1 bytes |
| Instructions | 1       |

```
      00 01 02 03 04 05 06 07  08 09 0A 0B 0C 0D 0E 0F
      -- -- -- -- -- -- -- --  -- -- -- -- -- -- -- --
0110:          00                                          .            
```

#### Opcodes

```
  0: 0x0113 [0x00] END_REQSTACK()
```

### Event 65535.6

#### Metadata

| Field        | Value    |
|--------------|----------|
| Entrypoint   | 0x0114   |
| Data Size    | 13 bytes |
| Instructions | 4        |

```
      00 01 02 03 04 05 06 07  08 09 0A 0B 0C 0D 0E 0F
      -- -- -- -- -- -- -- --  -- -- -- -- -- -- -- --
0110:             22 00 1F 00  17 80 18 80 0A 80 1F 01      "...........
0120: 00                                                .               
```

#### Opcodes

```
  0: 0x0114 [0x22] ENTITY_HIDE_FLAG(enabled=0x00)
  1: 0x0116 [0x1F] MOVE_ENTITY: EventEntity moves to X=-58.598*, Z=93.132*, Y=8.199*
  2: 0x011E [0x1F] MOVE_ENTITY: Update entity position (mode=1)
  3: 0x0120 [0x00] END_REQSTACK()
```

### Event 65535.7

#### Metadata

| Field        | Value    |
|--------------|----------|
| Entrypoint   | 0x0121   |
| Data Size    | 37 bytes |
| Instructions | 9        |

```
      00 01 02 03 04 05 06 07  08 09 0A 0B 0C 0D 0E 0F
      -- -- -- -- -- -- -- --  -- -- -- -- -- -- -- --
0120:    1F 00 19 80 1A 80 0A  80 1F 01 6F 1E F0 FF FF   ..........o....
0130: 7F 4A 0C 40 0F 01 F8 FF  FF 7F 4A 0D 40 0F 01 F8  .J.@......J.@...
0140: FF FF 7F 6F 70 00                                 ...op.          
```

#### Opcodes

```
  0: 0x0121 [0x1F] MOVE_ENTITY: EventEntity moves to X=-59.063*, Z=93.850*, Y=8.199*
  1: 0x0129 [0x1F] MOVE_ENTITY: Update entity position (mode=1)
  2: 0x012B [0x6F] WAIT_FRAME_DELAY: Yield until WaitTime reaches zero
  3: 0x012C [0x1E] EventEntity looks at LocalPlayer and starts talking
  4: 0x0131 [0x4A] Brutus (ID: 17776652/0x010F400C) looks at EventEntity
  5: 0x013A [0x4A] Osker (ID: 17776653/0x010F400D) looks at EventEntity
  6: 0x0143 [0x6F] WAIT_FRAME_DELAY: Yield until WaitTime reaches zero
  7: 0x0144 [0x70] WAIT_ENTITY_RENDER_FLAG: Wait while EventEntity->Render.Flags3 bit 2 is set (cancel turn if not)
  8: 0x0145 [0x00] END_REQSTACK()
```

### Event 65535.8

#### Metadata

| Field        | Value    |
|--------------|----------|
| Entrypoint   | 0x0146   |
| Data Size    | 11 bytes |
| Instructions | 3        |

```
      00 01 02 03 04 05 06 07  08 09 0A 0B 0C 0D 0E 0F
      -- -- -- -- -- -- -- --  -- -- -- -- -- -- -- --
0140:                   1F 00  1B 80 1C 80 1D 80 1F 01        ..........
0150: 00                                                .               
```

#### Opcodes

```
  0: 0x0146 [0x1F] MOVE_ENTITY: EventEntity moves to X=-48.097*, Z=94.281*, Y=8.095*
  1: 0x014E [0x1F] MOVE_ENTITY: Update entity position (mode=1)
  2: 0x0150 [0x00] END_REQSTACK()
```

### Event 65535.9

#### Metadata

| Field        | Value   |
|--------------|---------|
| Entrypoint   | 0x0151  |
| Data Size    | 1 bytes |
| Instructions | 1       |

```
      00 01 02 03 04 05 06 07  08 09 0A 0B 0C 0D 0E 0F
      -- -- -- -- -- -- -- --  -- -- -- -- -- -- -- --
0150:    00                                              .              
```

#### Opcodes

```
  0: 0x0151 [0x00] END_REQSTACK()
```

### Event 65535.10

#### Metadata

| Field        | Value    |
|--------------|----------|
| Entrypoint   | 0x0152   |
| Data Size    | 83 bytes |
| Instructions | 15       |

```
      00 01 02 03 04 05 06 07  08 09 0A 0B 0C 0D 0E 0F
      -- -- -- -- -- -- -- --  -- -- -- -- -- -- -- --
0150:       1F 00 1E 80 1F 80  0A 80 1F 01 4A F0 FF FF    ..........J...
0160: 7F F8 FF FF 7F 4A 0C 40  0F 01 F8 FF FF 7F 4A 0D  .....J.@......J.
0170: 40 0F 01 F8 FF FF 7F 1F  00 20 80 21 80 0A 80 1F  @........ .!....
0180: 01 6F 4A F0 FF FF 7F F8  FF FF 7F 4A 0C 40 0F 01  .oJ........J.@..
0190: F8 FF FF 7F 4A 0D 40 0F  01 F8 FF FF 7F 1E 0A 40  ....J.@........@
01A0: 0F 01 6F 70 00                                    ..op.           
```

#### Opcodes

```
  0: 0x0152 [0x1F] MOVE_ENTITY: EventEntity moves to X=-59.614*, Z=93.807*, Y=8.199*
  1: 0x015A [0x1F] MOVE_ENTITY: Update entity position (mode=1)
  2: 0x015C [0x4A] LocalPlayer looks at EventEntity
  3: 0x0165 [0x4A] Brutus (ID: 17776652/0x010F400C) looks at EventEntity
  4: 0x016E [0x4A] Osker (ID: 17776653/0x010F400D) looks at EventEntity
  5: 0x0177 [0x1F] MOVE_ENTITY: EventEntity moves to X=-62.053*, Z=93.522*, Y=8.199*
  6: 0x017F [0x1F] MOVE_ENTITY: Update entity position (mode=1)
  7: 0x0181 [0x6F] WAIT_FRAME_DELAY: Yield until WaitTime reaches zero
  8: 0x0182 [0x4A] LocalPlayer looks at EventEntity
  9: 0x018B [0x4A] Brutus (ID: 17776652/0x010F400C) looks at EventEntity
 10: 0x0194 [0x4A] Osker (ID: 17776653/0x010F400D) looks at EventEntity
 11: 0x019D [0x1E] EventEntity looks at Chocobo (ID: 17776650/0x010F400A) and starts talking
 12: 0x01A2 [0x6F] WAIT_FRAME_DELAY: Yield until WaitTime reaches zero
 13: 0x01A3 [0x70] WAIT_ENTITY_RENDER_FLAG: Wait while EventEntity->Render.Flags3 bit 2 is set (cancel turn if not)
 14: 0x01A4 [0x00] END_REQSTACK()
```

### Event 65535.11

#### Metadata

| Field        | Value    |
|--------------|----------|
| Entrypoint   | 0x01A5   |
| Data Size    | 26 bytes |
| Instructions | 6        |

```
      00 01 02 03 04 05 06 07  08 09 0A 0B 0C 0D 0E 0F
      -- -- -- -- -- -- -- --  -- -- -- -- -- -- -- --
01A0:                7B F8 FF  FF 7F 1F 00 22 80 23 80       {......".#.
01B0: 0A 80 1F 01 1F 00 24 80  25 80 0A 80 1F 01 00     ......$.%...... 
```

#### Opcodes

```
  0: 0x01A5 [0x7B] EventEntity stops talking
  1: 0x01AA [0x1F] MOVE_ENTITY: EventEntity moves to X=-59.169*, Z=94.136*, Y=8.199*
  2: 0x01B2 [0x1F] MOVE_ENTITY: Update entity position (mode=1)
  3: 0x01B4 [0x1F] MOVE_ENTITY: EventEntity moves to X=-54.371*, Z=89.385*, Y=8.199*
  4: 0x01BC [0x1F] MOVE_ENTITY: Update entity position (mode=1)
  5: 0x01BE [0x00] END_REQSTACK()
```

### Event 65535.12

#### Metadata

| Field        | Value    |
|--------------|----------|
| Entrypoint   | 0x01BF   |
| Data Size    | 60 bytes |
| Instructions | 13       |

```
      00 01 02 03 04 05 06 07  08 09 0A 0B 0C 0D 0E 0F
      -- -- -- -- -- -- -- --  -- -- -- -- -- -- -- --
01B0:                                               37                 7
01C0: 14 80 15 80 0A 80 16 80  22 00 1F 00 1E 80 26 80  ........".....&.
01D0: 0A 80 1F 01 6F 1E 0A 40  0F 01 4A 0A 40 0F 01 0F  ....o..@..J.@...
01E0: 40 0F 01 6F 76 0A 40 0F  01 6F 70 66 27 80 F8 FF  @..ov.@..opf'...
01F0: FF 7F F8 FF FF 7F 6E 64  65 30 00                 ......nde0.     
```

#### Opcodes

```
  0: 0x01BF [0x37] UPDATE_EVENT_POSITION_AND_DIR: x=-55.114*, z=93.214*, y=8.199*, direction=157.5째*
  1: 0x01C8 [0x22] ENTITY_HIDE_FLAG(enabled=0x00)
  2: 0x01CA [0x1F] MOVE_ENTITY: EventEntity moves to X=-59.614*, Z=93.077*, Y=8.199*
  3: 0x01D2 [0x1F] MOVE_ENTITY: Update entity position (mode=1)
  4: 0x01D4 [0x6F] WAIT_FRAME_DELAY: Yield until WaitTime reaches zero
  5: 0x01D5 [0x1E] EventEntity looks at Chocobo (ID: 17776650/0x010F400A) and starts talking
  6: 0x01DA [0x4A] Chocobo (ID: 17776650/0x010F400A) looks at Dietmund (ID: 17776655/0x010F400F)
  7: 0x01E3 [0x6F] WAIT_FRAME_DELAY: Yield until WaitTime reaches zero
  8: 0x01E4 [0x76] CHECK_ENTITY_RENDER_FLAGS: Wait until Chocobo (ID: 17776650/0x010F400A) Render.Flags0 and Render.Flags3 conditions are met
  9: 0x01E9 [0x6F] WAIT_FRAME_DELAY: Yield until WaitTime reaches zero
 10: 0x01EA [0x70] WAIT_ENTITY_RENDER_FLAG: Wait while EventEntity->Render.Flags3 bit 2 is set (cancel turn if not)
 11: 0x01EB [0x66] LOAD_EXT_SCHEDULER_MAIN: Load scheduler "nde0" with entities [EventEntity, EventEntity], work=4*
 12: 0x01FA [0x00] END_REQSTACK()
```

### Event 65535.13

#### Metadata

| Field        | Value    |
|--------------|----------|
| Entrypoint   | 0x01FB   |
| Data Size    | 61 bytes |
| Instructions | 13       |

```
      00 01 02 03 04 05 06 07  08 09 0A 0B 0C 0D 0E 0F
      -- -- -- -- -- -- -- --  -- -- -- -- -- -- -- --
01F0:                                   1E 0A 40 0F 01             ..@..
0200: 6F 76 0A 40 0F 01 1F 00  1E 80 26 80 0A 80 1F 01  ov.@......&.....
0210: 6F 4A F0 FF FF 7F F8 FF  FF 7F 4A 0C 40 0F 01 F8  oJ........J.@...
0220: FF FF 7F 4A 0D 40 0F 01  F8 FF FF 7F 1E 0A 40 0F  ...J.@........@.
0230: 01 6F 76 F8 FF FF 7F 00                           .ov.....        
```

#### Opcodes

```
  0: 0x01FB [0x1E] EventEntity looks at Chocobo (ID: 17776650/0x010F400A) and starts talking
  1: 0x0200 [0x6F] WAIT_FRAME_DELAY: Yield until WaitTime reaches zero
  2: 0x0201 [0x76] CHECK_ENTITY_RENDER_FLAGS: Wait until Chocobo (ID: 17776650/0x010F400A) Render.Flags0 and Render.Flags3 conditions are met
  3: 0x0206 [0x1F] MOVE_ENTITY: EventEntity moves to X=-59.614*, Z=93.077*, Y=8.199*
  4: 0x020E [0x1F] MOVE_ENTITY: Update entity position (mode=1)
  5: 0x0210 [0x6F] WAIT_FRAME_DELAY: Yield until WaitTime reaches zero
  6: 0x0211 [0x4A] LocalPlayer looks at EventEntity
  7: 0x021A [0x4A] Brutus (ID: 17776652/0x010F400C) looks at EventEntity
  8: 0x0223 [0x4A] Osker (ID: 17776653/0x010F400D) looks at EventEntity
  9: 0x022C [0x1E] EventEntity looks at Chocobo (ID: 17776650/0x010F400A) and starts talking
 10: 0x0231 [0x6F] WAIT_FRAME_DELAY: Yield until WaitTime reaches zero
 11: 0x0232 [0x76] CHECK_ENTITY_RENDER_FLAGS: Wait until EventEntity Render.Flags0 and Render.Flags3 conditions are met
 12: 0x0237 [0x00] END_REQSTACK()
```

### Event 65535.14

#### Metadata

| Field        | Value    |
|--------------|----------|
| Entrypoint   | 0x0238   |
| Data Size    | 23 bytes |
| Instructions | 6        |

```
      00 01 02 03 04 05 06 07  08 09 0A 0B 0C 0D 0E 0F
      -- -- -- -- -- -- -- --  -- -- -- -- -- -- -- --
0230:                          1F 00 28 80 29 80 03 80          ..(.)...
0240: 1F 01 1F 00 2A 80 2B 80  03 80 1F 01 22 01 00     ....*.+.....".. 
```

#### Opcodes

```
  0: 0x0238 [0x1F] MOVE_ENTITY: EventEntity moves to X=-47.080*, Z=96.488*, Y=7.999*
  1: 0x0240 [0x1F] MOVE_ENTITY: Update entity position (mode=1)
  2: 0x0242 [0x1F] MOVE_ENTITY: EventEntity moves to X=-41.648*, Z=86.992*, Y=7.999*
  3: 0x024A [0x1F] MOVE_ENTITY: Update entity position (mode=1)
  4: 0x024C [0x22] ENTITY_HIDE_FLAG(enabled=0x01)
  5: 0x024E [0x00] END_REQSTACK()
```

### Event 65535.15

#### Metadata

| Field        | Value   |
|--------------|---------|
| Entrypoint   | 0x024F  |
| Data Size    | 6 bytes |
| Instructions | 2       |

```
      00 01 02 03 04 05 06 07  08 09 0A 0B 0C 0D 0E 0F
      -- -- -- -- -- -- -- --  -- -- -- -- -- -- -- --
0240:                                               5E                 ^
0250: 69 64 6C 30 00                                    idl0.           
```

#### Opcodes

```
  0: 0x024F [0x5E] EventEntity goes idle (kills current action) (animation: "idl0")
  1: 0x0254 [0x00] END_REQSTACK()
```

### Event 65535.16

#### Metadata

| Field        | Value    |
|--------------|----------|
| Entrypoint   | 0x0255   |
| Data Size    | 19 bytes |
| Instructions | 3        |

```
      00 01 02 03 04 05 06 07  08 09 0A 0B 0C 0D 0E 0F
      -- -- -- -- -- -- -- --  -- -- -- -- -- -- -- --
0250:                66 2C 80  F8 FF FF 7F F8 FF FF 7F       f,.........
0260: 74 6C 6B 32 1C 2D 80 00                           tlk2.-..        
```

#### Opcodes

```
  0: 0x0255 [0x66] LOAD_EXT_SCHEDULER_MAIN: Load scheduler "tlk2" with entities [EventEntity, EventEntity], work=0*
  1: 0x0264 [0x1C] WAIT(60* ticks)
  2: 0x0267 [0x00] END_REQSTACK()
```

### Event 65535.17

#### Metadata

| Field        | Value    |
|--------------|----------|
| Entrypoint   | 0x0268   |
| Data Size    | 29 bytes |
| Instructions | 3        |

```
      00 01 02 03 04 05 06 07  08 09 0A 0B 0C 0D 0E 0F
      -- -- -- -- -- -- -- --  -- -- -- -- -- -- -- --
0260:                          66 2C 80 F8 FF FF 7F F8          f,......
0270: FF FF 7F 74 65 6E 32 53  F8 FF FF 7F F8 FF FF 7F  ...ten2S........
0280: 74 65 6E 32 00                                    ten2.           
```

#### Opcodes

```
  0: 0x0268 [0x66] LOAD_EXT_SCHEDULER_MAIN: Load scheduler "ten2" with entities [EventEntity, EventEntity], work=0*
  1: 0x0277 [0x53] WAIT_SCHEDULER_TASK: Wait for scheduler "ten2" with entities [EventEntity, EventEntity]
  2: 0x0284 [0x00] END_REQSTACK()
```

### Event 65535.18

#### Metadata

| Field        | Value    |
|--------------|----------|
| Entrypoint   | 0x0285   |
| Data Size    | 19 bytes |
| Instructions | 3        |

```
      00 01 02 03 04 05 06 07  08 09 0A 0B 0C 0D 0E 0F
      -- -- -- -- -- -- -- --  -- -- -- -- -- -- -- --
0280:                66 2C 80  F8 FF FF 7F F8 FF FF 7F       f,.........
0290: 74 6C 6B 31 1C 2D 80 00                           tlk1.-..        
```

#### Opcodes

```
  0: 0x0285 [0x66] LOAD_EXT_SCHEDULER_MAIN: Load scheduler "tlk1" with entities [EventEntity, EventEntity], work=0*
  1: 0x0294 [0x1C] WAIT(60* ticks)
  2: 0x0297 [0x00] END_REQSTACK()
```

### Event 65535.19

#### Metadata

| Field        | Value    |
|--------------|----------|
| Entrypoint   | 0x0298   |
| Data Size    | 29 bytes |
| Instructions | 3        |

```
      00 01 02 03 04 05 06 07  08 09 0A 0B 0C 0D 0E 0F
      -- -- -- -- -- -- -- --  -- -- -- -- -- -- -- --
0290:                          66 2C 80 F8 FF FF 7F F8          f,......
02A0: FF FF 7F 74 65 6E 31 53  F8 FF FF 7F F8 FF FF 7F  ...ten1S........
02B0: 74 65 6E 31 00                                    ten1.           
```

#### Opcodes

```
  0: 0x0298 [0x66] LOAD_EXT_SCHEDULER_MAIN: Load scheduler "ten1" with entities [EventEntity, EventEntity], work=0*
  1: 0x02A7 [0x53] WAIT_SCHEDULER_TASK: Wait for scheduler "ten1" with entities [EventEntity, EventEntity]
  2: 0x02B4 [0x00] END_REQSTACK()
```

### Event 65535.20

#### Metadata

| Field        | Value    |
|--------------|----------|
| Entrypoint   | 0x02B5   |
| Data Size    | 19 bytes |
| Instructions | 3        |

```
      00 01 02 03 04 05 06 07  08 09 0A 0B 0C 0D 0E 0F
      -- -- -- -- -- -- -- --  -- -- -- -- -- -- -- --
02B0:                66 2C 80  F8 FF FF 7F F8 FF FF 7F       f,.........
02C0: 74 6C 6B 30 1C 2D 80 00                           tlk0.-..        
```

#### Opcodes

```
  0: 0x02B5 [0x66] LOAD_EXT_SCHEDULER_MAIN: Load scheduler "tlk0" with entities [EventEntity, EventEntity], work=0*
  1: 0x02C4 [0x1C] WAIT(60* ticks)
  2: 0x02C7 [0x00] END_REQSTACK()
```

### Event 65535.21

#### Metadata

| Field        | Value    |
|--------------|----------|
| Entrypoint   | 0x02C8   |
| Data Size    | 29 bytes |
| Instructions | 3        |

```
      00 01 02 03 04 05 06 07  08 09 0A 0B 0C 0D 0E 0F
      -- -- -- -- -- -- -- --  -- -- -- -- -- -- -- --
02C0:                          66 2C 80 F8 FF FF 7F F8          f,......
02D0: FF FF 7F 74 65 6E 30 53  F8 FF FF 7F F8 FF FF 7F  ...ten0S........
02E0: 74 65 6E 30 00                                    ten0.           
```

#### Opcodes

```
  0: 0x02C8 [0x66] LOAD_EXT_SCHEDULER_MAIN: Load scheduler "ten0" with entities [EventEntity, EventEntity], work=0*
  1: 0x02D7 [0x53] WAIT_SCHEDULER_TASK: Wait for scheduler "ten0" with entities [EventEntity, EventEntity]
  2: 0x02E4 [0x00] END_REQSTACK()
```

### Event 65535.22

#### Metadata

| Field        | Value    |
|--------------|----------|
| Entrypoint   | 0x02E5   |
| Data Size    | 19 bytes |
| Instructions | 3        |

```
      00 01 02 03 04 05 06 07  08 09 0A 0B 0C 0D 0E 0F
      -- -- -- -- -- -- -- --  -- -- -- -- -- -- -- --
02E0:                66 27 80  F8 FF FF 7F F8 FF FF 7F       f'.........
02F0: 6E 64 65 30 1C 2D 80 00                           nde0.-..        
```

#### Opcodes

```
  0: 0x02E5 [0x66] LOAD_EXT_SCHEDULER_MAIN: Load scheduler "nde0" with entities [EventEntity, EventEntity], work=4*
  1: 0x02F4 [0x1C] WAIT(60* ticks)
  2: 0x02F7 [0x00] END_REQSTACK()
```

### Event 65535.23

#### Metadata

| Field        | Value    |
|--------------|----------|
| Entrypoint   | 0x02F8   |
| Data Size    | 29 bytes |
| Instructions | 3        |

```
      00 01 02 03 04 05 06 07  08 09 0A 0B 0C 0D 0E 0F
      -- -- -- -- -- -- -- --  -- -- -- -- -- -- -- --
02F0:                          66 27 80 F8 FF FF 7F F8          f'......
0300: FF FF 7F 6E 64 65 31 53  F8 FF FF 7F F8 FF FF 7F  ...nde1S........
0310: 6E 64 65 31 00                                    nde1.           
```

#### Opcodes

```
  0: 0x02F8 [0x66] LOAD_EXT_SCHEDULER_MAIN: Load scheduler "nde1" with entities [EventEntity, EventEntity], work=4*
  1: 0x0307 [0x53] WAIT_SCHEDULER_TASK: Wait for scheduler "nde1" with entities [EventEntity, EventEntity]
  2: 0x0314 [0x00] END_REQSTACK()
```

### Event 65535.24

#### Metadata

| Field        | Value    |
|--------------|----------|
| Entrypoint   | 0x0315   |
| Data Size    | 29 bytes |
| Instructions | 3        |

```
      00 01 02 03 04 05 06 07  08 09 0A 0B 0C 0D 0E 0F
      -- -- -- -- -- -- -- --  -- -- -- -- -- -- -- --
0310:                66 2E 80  F8 FF FF 7F F8 FF FF 7F       f..........
0320: 74 6C 64 30 53 F8 FF FF  7F F8 FF FF 7F 74 6C 64  tld0S........tld
0330: 30 00                                             0.              
```

#### Opcodes

```
  0: 0x0315 [0x66] LOAD_EXT_SCHEDULER_MAIN: Load scheduler "tld0" with entities [EventEntity, EventEntity], work=2*
  1: 0x0324 [0x53] WAIT_SCHEDULER_TASK: Wait for scheduler "tld0" with entities [EventEntity, EventEntity]
  2: 0x0331 [0x00] END_REQSTACK()
```

### Event 65535.25

#### Metadata

| Field        | Value    |
|--------------|----------|
| Entrypoint   | 0x0332   |
| Data Size    | 29 bytes |
| Instructions | 3        |

```
      00 01 02 03 04 05 06 07  08 09 0A 0B 0C 0D 0E 0F
      -- -- -- -- -- -- -- --  -- -- -- -- -- -- -- --
0330:       66 2E 80 F8 FF FF  7F F8 FF FF 7F 74 6C 64    f..........tld
0340: 31 53 F8 FF FF 7F F8 FF  FF 7F 74 6C 64 31 00     1S........tld1. 
```

#### Opcodes

```
  0: 0x0332 [0x66] LOAD_EXT_SCHEDULER_MAIN: Load scheduler "tld1" with entities [EventEntity, EventEntity], work=2*
  1: 0x0341 [0x53] WAIT_SCHEDULER_TASK: Wait for scheduler "tld1" with entities [EventEntity, EventEntity]
  2: 0x034E [0x00] END_REQSTACK()
```

### Event 65535.26

#### Metadata

| Field        | Value    |
|--------------|----------|
| Entrypoint   | 0x034F   |
| Data Size    | 29 bytes |
| Instructions | 3        |

```
      00 01 02 03 04 05 06 07  08 09 0A 0B 0C 0D 0E 0F
      -- -- -- -- -- -- -- --  -- -- -- -- -- -- -- --
0340:                                               66                 f
0350: 2C 80 F8 FF FF 7F F8 FF  FF 7F 74 68 6B 31 53 F8  ,.........thk1S.
0360: FF FF 7F F8 FF FF 7F 74  68 6B 31 00              .......thk1.    
```

#### Opcodes

```
  0: 0x034F [0x66] LOAD_EXT_SCHEDULER_MAIN: Load scheduler "thk1" with entities [EventEntity, EventEntity], work=0*
  1: 0x035E [0x53] WAIT_SCHEDULER_TASK: Wait for scheduler "thk1" with entities [EventEntity, EventEntity]
  2: 0x036B [0x00] END_REQSTACK()
```

### Event 65535.27

#### Metadata

| Field        | Value    |
|--------------|----------|
| Entrypoint   | 0x036C   |
| Data Size    | 29 bytes |
| Instructions | 3        |

```
      00 01 02 03 04 05 06 07  08 09 0A 0B 0C 0D 0E 0F
      -- -- -- -- -- -- -- --  -- -- -- -- -- -- -- --
0360:                                      66 2C 80 F8              f,..
0370: FF FF 7F F8 FF FF 7F 74  68 6B 32 53 F8 FF FF 7F  .......thk2S....
0380: F8 FF FF 7F 74 68 6B 32  00                       ....thk2.       
```

#### Opcodes

```
  0: 0x036C [0x66] LOAD_EXT_SCHEDULER_MAIN: Load scheduler "thk2" with entities [EventEntity, EventEntity], work=0*
  1: 0x037B [0x53] WAIT_SCHEDULER_TASK: Wait for scheduler "thk2" with entities [EventEntity, EventEntity]
  2: 0x0388 [0x00] END_REQSTACK()
```

### Event 65535.28

#### Metadata

| Field        | Value    |
|--------------|----------|
| Entrypoint   | 0x0389   |
| Data Size    | 19 bytes |
| Instructions | 3        |

```
      00 01 02 03 04 05 06 07  08 09 0A 0B 0C 0D 0E 0F
      -- -- -- -- -- -- -- --  -- -- -- -- -- -- -- --
0380:                             66 2C 80 F8 FF FF 7F           f,.....
0390: F8 FF FF 7F 70 61 73 30  1C 2F 80 00              ....pas0./..    
```

#### Opcodes

```
  0: 0x0389 [0x66] LOAD_EXT_SCHEDULER_MAIN: Load scheduler "pas0" with entities [EventEntity, EventEntity], work=0*
  1: 0x0398 [0x1C] WAIT(120* ticks)
  2: 0x039B [0x00] END_REQSTACK()
```
