# 17776821 - Finbarr

## Common Data

| Field            | Value                 |
|------------------|-----------------------|
| Zone             | Upper Jeuno (ID: 244) |
| Block Size       | 1128 bytes            |
| Total Events     | 24                    |
| References Count | 78                    |

## List of Events

| Event ID                 | Entrypoint   |   Size |   Instructions |
|--------------------------|--------------|--------|----------------|
| [65535](#event-65535)    | 0x0000       |      1 |              1 |
| [10103](#event-10103)    | 0x0001       |     13 |              7 |
| [10104](#event-10104)    | 0x000E       |     16 |              9 |
| [10105](#event-10105)    | 0x001E       |     20 |             11 |
| [10106](#event-10106)    | 0x0032       |     16 |              9 |
| [10101](#event-10101)    | 0x0042       |    107 |             27 |
| [10108](#event-10108)    | 0x00AD       |    279 |             64 |
| [10102](#event-10102)    | 0x01C4       |      1 |              1 |
| [65535.1](#event-655351) | 0x01C5       |     10 |              2 |
| [65535.2](#event-655352) | 0x01CF       |     24 |              6 |
| [65535.3](#event-655353) | 0x01E7       |     28 |              6 |
| [65535.4](#event-655354) | 0x0203       |     10 |              2 |
| [65535.5](#event-655355) | 0x020D       |     14 |              4 |
| [65535.6](#event-655356) | 0x021B       |     22 |              6 |
| [65535.7](#event-655357) | 0x0231       |     10 |              2 |
| [65535.8](#event-655358) | 0x023B       |     10 |              2 |
| [10107](#event-10107)    | 0x0245       |     30 |              8 |
| [10221](#event-10221)    | 0x0263       |      1 |              1 |
| [10230](#event-10230)    | 0x0264       |      1 |              1 |
| [10231](#event-10231)    | 0x0265       |      1 |              1 |
| [10232](#event-10232)    | 0x0266       |      1 |              1 |
| [10233](#event-10233)    | 0x0267       |      1 |              1 |
| [10234](#event-10234)    | 0x0268       |      1 |              1 |
| [65535.9](#event-655359) | 0x0269       |     87 |             19 |

## DAT References (imed_data)

|   Index | Hex Value   |   Dec Value |
|---------|-------------|-------------|
|       0 | 0x2BBB      |       11195 |
|       1 | 0x2BBC      |       11196 |
|       2 | 0x2DE0      |       11744 |
|       3 | 0x2DE1      |       11745 |
|       4 | 0x2BBE      |       11198 |
|       5 | 0x2DC5      |       11717 |
|       6 | 0x2DC6      |       11718 |
|       7 | 0x001E      |          30 |
|       8 | 0x2DC7      |       11719 |
|       9 | 0x004B      |          75 |
|      10 | 0x2DC8      |       11720 |
|      11 | 0x2DC9      |       11721 |
|      12 | 0x2DCA      |       11722 |
|      13 | 0x2DCB      |       11723 |
|      14 | 0x2DCC      |       11724 |
|      15 | 0x2DCD      |       11725 |
|      16 | 0x0000      |           0 |
|      17 | 0x0DAC      |        3500 |
|      18 | 0x2DCE      |       11726 |
|      19 | 0x2DCF      |       11727 |
|      20 | 0x0001      |           1 |
|      21 | 0x000A      |          10 |
|      22 | 0x2DD0      |       11728 |
|      23 | 0x2DD4      |       11732 |
|      24 | 0x0002      |           2 |
|      25 | 0x2DD1      |       11729 |
|      26 | 0x0003      |           3 |
|      27 | 0x2DD2      |       11730 |
|      28 | 0x0004      |           4 |
|      29 | 0x2DD3      |       11731 |
|      30 | 0xFFFF3D7B  |  4294917499 |
|      31 | 0x1AB2C     |      109356 |
|      32 | 0x0F2D      |        3885 |
|      33 | 0x000D      |          13 |
|      34 | 0xFFFF4880  |  4294920320 |
|      35 | 0x1AF64     |      110436 |
|      36 | 0x0034      |          52 |
|      37 | 0xFFFF0FD5  |  4294905813 |
|      38 | 0x4A6E      |       19054 |
|      39 | 0x03E8      |        1000 |
|      40 | 0x06A6      |        1702 |
|      41 | 0xFFFF083C  |  4294903868 |
|      42 | 0x421B      |       16923 |
|      43 | 0xFFFFDC86  |  4294958214 |
|      44 | 0x00FA      |         250 |
|      45 | 0x0765      |        1893 |
|      46 | 0xFFFFD4CD  |  4294956237 |
|      47 | 0xFFFFFFCD  |  4294967245 |
|      48 | 0xFFFFCF4E  |  4294954830 |
|      49 | 0x0307      |         775 |
|      50 | 0xFFFED86C  |  4294891628 |
|      51 | 0xFFFE3EF2  |  4294852338 |
|      52 | 0x08E4      |        2276 |
|      53 | 0xFFFF3335  |  4294914869 |
|      54 | 0x180A4     |       98468 |
|      55 | 0x2007      |        8199 |
|      56 | 0x0448      |        1096 |
|      57 | 0x2DE2      |       11746 |
|      58 | 0x003C      |          60 |
|      59 | 0x005A      |          90 |
|      60 | 0xFFFF3828  |  4294916136 |
|      61 | 0x1721E     |       94750 |
|      62 | 0x1F40      |        8000 |
|      63 | 0xFFFF4E26  |  4294921766 |
|      64 | 0x17DF4     |       97780 |
|      65 | 0xFFFF601E  |  4294926366 |
|      66 | 0x16774     |       92020 |
|      67 | 0xFFFF574A  |  4294924106 |
|      68 | 0x14EA6     |       85670 |
|      69 | 0x1E14      |        7700 |
|      70 | 0xFFFF1924  |  4294908196 |
|      71 | 0x12ADE     |       76510 |
|      72 | 0xFFFF05B0  |  4294903216 |
|      73 | 0x1324A     |       78410 |
|      74 | 0xFFFEF19C  |  4294898076 |
|      75 | 0x167A6     |       92070 |
|      76 | 0xFFFEFAFC  |  4294900476 |
|      77 | 0x1D858     |      120920 |

## String References

- **11195**: I'm Finbarr, the chocoguy!
- **11196**: Thanks!
- **11198**: A chick was born!
- **11717**: ...So, dam A's chick would inherit the sire's blue color and fancy plumage, but dam B's chick would not...
- **11718**: But...B's chick's chick...would you call it B's grandchick? Anyway, the grandchick might just inherit the blue color? Man... All this pedigree stuff is so complicated.
- **11719**: My boss is entrusting me with all the chocobo matchmaking work, so I'm trying to study about inherited traits as much as I can each day.
- **11720**: But I think that there's so much more to this work than worrying about pedigree all the time.
- **11721**: For example...the chocobos' compatibility and the timing play a part, too... There's so much to it, it's amazing!
- **11722**: Actually... That's just what my boss told me.
- **11723**: Anyway, I'm busy thinking of date plans for the chocobos to get to know each other better. Brilliant idea, huh?
- **11724**: I spent so much time observing people dating, my plans should be failproof!
- **11725**: I'm selling tickets for my date plans. If you want one, just let me know.
- **11726**: So you want to buy a date plan for your chocobo, right? Which one do you want?
- **11727**: Which ticket do you want? ($0 gil each) [None./Gourmet plan./Sports plan./Hiking plan./Jeuno Tour plan.]
- **11728**: With this plan, the chocobos can enjoy fine dining together. Good food gives the chocobos strength, and increases chances that a male chick will be born. Would you like to choose this plan?
- **11729**: With this plan, the chocobos can enjoy a vigorous exercise program together. This increases the chance that a chick with high endurance will be born. Competition also raises the possibility that the male chocobo's traits will be inherited. Would you like to choose this plan?
- **11730**: With this plan, the chocobos can enjoy the sights and sounds of nature together. The fresh air will have a beneficial effect on your chocobo's intelligence, and increase the chance that a female chick will be born. Would you like to choose this plan?
- **11731**: With this plan, the chocobos will get a tour of the Jeunoan streets led by yours truly. Seeing new sights will improve the chances of a highly receptive chick being born. Another of this date's features is the increased possibility that the female's traits will be inherited. Would you like to choose this plan?
- **11732**: Purchase this ticket? [Yes./No thanks.]
- **11744**: ...So the chick of a sire of that coloring and a mother of this coloring would be...
- **11745**: Oh, you want to know about the egg? I wonder if it'll hatch soon...
- **11746**: The chocobo laid an egg! Take good care of it, now!

## Events

### Event 65535

#### Metadata

| Field        | Value   |
|--------------|---------|
| Entrypoint   | 0x0000  |
| Data Size    | 1 bytes |
| Instructions | 1       |

```
      00 01 02 03 04 05 06 07  08 09 0A 0B 0C 0D 0E 0F
      -- -- -- -- -- -- -- --  -- -- -- -- -- -- -- --
0000: 00                                                .               
```

#### Opcodes

```
  0: 0x0000 [0x00] END_REQSTACK()
```

### Event 10103

#### Metadata

| Field        | Value    |
|--------------|----------|
| Entrypoint   | 0x0001   |
| Data Size    | 13 bytes |
| Instructions | 7        |

```
      00 01 02 03 04 05 06 07  08 09 0A 0B 0C 0D 0E 0F
      -- -- -- -- -- -- -- --  -- -- -- -- -- -- -- --
0000:    1E F0 FF FF 7F 6F 70  1D 00 80 23 21 00         .....op...#!.  
```

#### Opcodes

```
  0: 0x0001 [0x1E] EventEntity looks at LocalPlayer and starts talking
  1: 0x0006 [0x6F] WAIT_FRAME_DELAY: Yield until WaitTime reaches zero
  2: 0x0007 [0x70] WAIT_ENTITY_RENDER_FLAG: Wait while EventEntity->Render.Flags3 bit 2 is set (cancel turn if not)
  3: 0x0008 [0x1D] PRINT_EVENT_MESSAGE(message_id=11195*)
    → "I'm Finbarr, the chocoguy!"
  4: 0x000B [0x23] WAIT_FOR_DIALOG_INTERACTION
  5: 0x000C [0x21] END_EVENT
  6: 0x000D [0x00] END_REQSTACK()
```

### Event 10104

#### Metadata

| Field        | Value    |
|--------------|----------|
| Entrypoint   | 0x000E   |
| Data Size    | 16 bytes |
| Instructions | 9        |

```
      00 01 02 03 04 05 06 07  08 09 0A 0B 0C 0D 0E 0F
      -- -- -- -- -- -- -- --  -- -- -- -- -- -- -- --
0000:                                            20 01                 .
0010: 42 1E F0 FF FF 7F 6F 70  1D 01 80 23 21 00        B.....op...#!.  
```

#### Opcodes

```
  0: 0x000E [0x20] SET_CLI_EVENT_UC_FLAG: Lock player control
  1: 0x0010 [0x42] SET_CLI_EVENT_CANCEL_DATA()
  2: 0x0011 [0x1E] EventEntity looks at LocalPlayer and starts talking
  3: 0x0016 [0x6F] WAIT_FRAME_DELAY: Yield until WaitTime reaches zero
  4: 0x0017 [0x70] WAIT_ENTITY_RENDER_FLAG: Wait while EventEntity->Render.Flags3 bit 2 is set (cancel turn if not)
  5: 0x0018 [0x1D] PRINT_EVENT_MESSAGE(message_id=11196*)
    → "Thanks!"
  6: 0x001B [0x23] WAIT_FOR_DIALOG_INTERACTION
  7: 0x001C [0x21] END_EVENT
  8: 0x001D [0x00] END_REQSTACK()
```

### Event 10105

#### Metadata

| Field        | Value    |
|--------------|----------|
| Entrypoint   | 0x001E   |
| Data Size    | 20 bytes |
| Instructions | 11       |

```
      00 01 02 03 04 05 06 07  08 09 0A 0B 0C 0D 0E 0F
      -- -- -- -- -- -- -- --  -- -- -- -- -- -- -- --
0010:                                            20 01                 .
0020: 42 1D 02 80 23 1E F0 FF  FF 7F 6F 70 1D 03 80 23  B...#.....op...#
0030: 21 00                                             !.              
```

#### Opcodes

```
  0: 0x001E [0x20] SET_CLI_EVENT_UC_FLAG: Lock player control
  1: 0x0020 [0x42] SET_CLI_EVENT_CANCEL_DATA()
  2: 0x0021 [0x1D] PRINT_EVENT_MESSAGE(message_id=11744*)
    → "...So the chick of a sire of that coloring and a mother of this coloring would be..."
  3: 0x0024 [0x23] WAIT_FOR_DIALOG_INTERACTION
  4: 0x0025 [0x1E] EventEntity looks at LocalPlayer and starts talking
  5: 0x002A [0x6F] WAIT_FRAME_DELAY: Yield until WaitTime reaches zero
  6: 0x002B [0x70] WAIT_ENTITY_RENDER_FLAG: Wait while EventEntity->Render.Flags3 bit 2 is set (cancel turn if not)
  7: 0x002C [0x1D] PRINT_EVENT_MESSAGE(message_id=11745*)
    → "Oh, you want to know about the egg? I wonder if it'll hatch soon..."
  8: 0x002F [0x23] WAIT_FOR_DIALOG_INTERACTION
  9: 0x0030 [0x21] END_EVENT
 10: 0x0031 [0x00] END_REQSTACK()
```

### Event 10106

#### Metadata

| Field        | Value    |
|--------------|----------|
| Entrypoint   | 0x0032   |
| Data Size    | 16 bytes |
| Instructions | 9        |

```
      00 01 02 03 04 05 06 07  08 09 0A 0B 0C 0D 0E 0F
      -- -- -- -- -- -- -- --  -- -- -- -- -- -- -- --
0030:       20 01 42 1E F0 FF  FF 7F 6F 70 1D 04 80 23     .B.....op...#
0040: 21 00                                             !.              
```

#### Opcodes

```
  0: 0x0032 [0x20] SET_CLI_EVENT_UC_FLAG: Lock player control
  1: 0x0034 [0x42] SET_CLI_EVENT_CANCEL_DATA()
  2: 0x0035 [0x1E] EventEntity looks at LocalPlayer and starts talking
  3: 0x003A [0x6F] WAIT_FRAME_DELAY: Yield until WaitTime reaches zero
  4: 0x003B [0x70] WAIT_ENTITY_RENDER_FLAG: Wait while EventEntity->Render.Flags3 bit 2 is set (cancel turn if not)
  5: 0x003C [0x1D] PRINT_EVENT_MESSAGE(message_id=11198*)
    → "A chick was born!"
  6: 0x003F [0x23] WAIT_FOR_DIALOG_INTERACTION
  7: 0x0040 [0x21] END_EVENT
  8: 0x0041 [0x00] END_REQSTACK()
```

### Event 10101

#### Metadata

| Field        | Value     |
|--------------|-----------|
| Entrypoint   | 0x0042    |
| Data Size    | 107 bytes |
| Instructions | 27        |

```
      00 01 02 03 04 05 06 07  08 09 0A 0B 0C 0D 0E 0F
      -- -- -- -- -- -- -- --  -- -- -- -- -- -- -- --
0040:       42 1D 05 80 23 1D  06 80 23 1E F0 FF FF 7F    B...#...#.....
0050: 1C 07 80 1D 08 80 23 5B  09 80 B5 40 0F 01 B5 40  ......#[...@...@
0060: 0F 01 74 6C 6B 30 1D 0A  80 23 1D 0B 80 23 5B 09  ..tlk0...#...#[.
0070: 80 B5 40 0F 01 B5 40 0F  01 74 6C 6B 31 1D 0C 80  ..@...@..tlk1...
0080: 23 5B 09 80 B5 40 0F 01  B5 40 0F 01 74 6C 6B 30  #[...@...@..tlk0
0090: 1D 0D 80 23 1D 0E 80 23  5B 09 80 B5 40 0F 01 B5  ...#...#[...@...
00A0: 40 0F 01 74 6C 6B 31 1D  0F 80 23 21 00           @..tlk1...#!.   
```

#### Opcodes

```
  0: 0x0042 [0x42] SET_CLI_EVENT_CANCEL_DATA()
  1: 0x0043 [0x1D] PRINT_EVENT_MESSAGE(message_id=11717*)
    → "...So, dam A's chick would inherit the sire's blue color and fancy plumage, but dam B's chick would not..."
  2: 0x0046 [0x23] WAIT_FOR_DIALOG_INTERACTION
  3: 0x0047 [0x1D] PRINT_EVENT_MESSAGE(message_id=11718*)
    → "But...B's chick's chick...would you call it B's grandchick? Anyway, the grandchick might just inherit the blue color? Man... All this pedigree stuff is so complicated."
  4: 0x004A [0x23] WAIT_FOR_DIALOG_INTERACTION
  5: 0x004B [0x1E] EventEntity looks at LocalPlayer and starts talking
  6: 0x0050 [0x1C] WAIT(30* ticks)
  7: 0x0053 [0x1D] PRINT_EVENT_MESSAGE(message_id=11719*)
    → "My boss is entrusting me with all the chocobo matchmaking work, so I'm trying to study about inherited traits as much as I can each day."
  8: 0x0056 [0x23] WAIT_FOR_DIALOG_INTERACTION
  9: 0x0057 [0x5B] LOAD_EXT_SCHEDULER: Load scheduler "tlk0" with entities [Finbarr (ID: 17776821/0x010F40B5), Finbarr (ID: 17776821/0x010F40B5)], work=75*
 10: 0x0066 [0x1D] PRINT_EVENT_MESSAGE(message_id=11720*)
    → "But I think that there's so much more to this work than worrying about pedigree all the time."
 11: 0x0069 [0x23] WAIT_FOR_DIALOG_INTERACTION
 12: 0x006A [0x1D] PRINT_EVENT_MESSAGE(message_id=11721*)
    → "For example...the chocobos' compatibility and the timing play a part, too... There's so much to it, it's amazing!"
 13: 0x006D [0x23] WAIT_FOR_DIALOG_INTERACTION
 14: 0x006E [0x5B] LOAD_EXT_SCHEDULER: Load scheduler "tlk1" with entities [Finbarr (ID: 17776821/0x010F40B5), Finbarr (ID: 17776821/0x010F40B5)], work=75*
 15: 0x007D [0x1D] PRINT_EVENT_MESSAGE(message_id=11722*)
    → "Actually... That's just what my boss told me."
 16: 0x0080 [0x23] WAIT_FOR_DIALOG_INTERACTION
 17: 0x0081 [0x5B] LOAD_EXT_SCHEDULER: Load scheduler "tlk0" with entities [Finbarr (ID: 17776821/0x010F40B5), Finbarr (ID: 17776821/0x010F40B5)], work=75*
 18: 0x0090 [0x1D] PRINT_EVENT_MESSAGE(message_id=11723*)
    → "Anyway, I'm busy thinking of date plans for the chocobos to get to know each other better. Brilliant idea, huh?"
 19: 0x0093 [0x23] WAIT_FOR_DIALOG_INTERACTION
 20: 0x0094 [0x1D] PRINT_EVENT_MESSAGE(message_id=11724*)
    → "I spent so much time observing people dating, my plans should be failproof!"
 21: 0x0097 [0x23] WAIT_FOR_DIALOG_INTERACTION
 22: 0x0098 [0x5B] LOAD_EXT_SCHEDULER: Load scheduler "tlk1" with entities [Finbarr (ID: 17776821/0x010F40B5), Finbarr (ID: 17776821/0x010F40B5)], work=75*
 23: 0x00A7 [0x1D] PRINT_EVENT_MESSAGE(message_id=11725*)
    → "I'm selling tickets for my date plans. If you want one, just let me know."
 24: 0x00AA [0x23] WAIT_FOR_DIALOG_INTERACTION
 25: 0x00AB [0x21] END_EVENT
 26: 0x00AC [0x00] END_REQSTACK()
```

### Event 10108

#### Metadata

| Field        | Value     |
|--------------|-----------|
| Entrypoint   | 0x00AD    |
| Data Size    | 279 bytes |
| Instructions | 64        |

```
      00 01 02 03 04 05 06 07  08 09 0A 0B 0C 0D 0E 0F
      -- -- -- -- -- -- -- --  -- -- -- -- -- -- -- --
00A0:                                         42 03 00               B..
00B0: 00 10 80 1E F0 FF FF 7F  1C 07 80 03 02 10 11 80  ................
00C0: 1D 12 80 23 24 13 80 10  80 10 80 25 02 00 10 10  ...#$......%....
00D0: 80 00 E1 00 03 00 00 14  80 03 01 10 15 80 01 C2  ................
00E0: 01 02 00 10 14 80 00 1D  01 1D 16 80 23 24 17 80  ............#$..
00F0: 14 80 10 80 25 02 00 10  10 80 00 0A 01 03 01 10  ....%...........
0100: 14 80 03 01 00 14 80 01  1A 01 02 00 10 14 80 00  ................
0110: 1A 01 03 01 10 15 80 01  1A 01 01 C2 01 02 00 10  ................
0120: 18 80 00 54 01 1D 19 80  23 24 17 80 14 80 10 80  ...T....#$......
0130: 25 02 00 10 10 80 00 41  01 03 01 10 18 80 01 51  %......A.......Q
0140: 01 02 00 10 14 80 00 51  01 03 01 10 15 80 01 51  .......Q.......Q
0150: 01 01 C2 01 02 00 10 1A  80 00 8B 01 1D 1B 80 23  ...............#
0160: 24 17 80 14 80 10 80 25  02 00 10 10 80 00 78 01  $......%......x.
0170: 03 01 10 1A 80 01 88 01  02 00 10 14 80 00 88 01  ................
0180: 03 01 10 15 80 01 88 01  01 C2 01 02 00 10 1C 80  ................
0190: 00 C2 01 1D 1D 80 23 24  17 80 14 80 10 80 25 02  ......#$......%.
01A0: 00 10 10 80 00 AF 01 03  01 10 1C 80 01 BF 01 02  ................
01B0: 00 10 14 80 00 BF 01 03  01 10 15 80 01 BF 01 01  ................
01C0: C2 01 21 00                                       ..!.            
```

#### Opcodes

```
  0: 0x00AD [0x42] SET_CLI_EVENT_CANCEL_DATA()
  1: 0x00AE [0x03] ExtData[1]->WorkLocal[0] = 0*
  2: 0x00B3 [0x1E] EventEntity looks at LocalPlayer and starts talking
  3: 0x00B8 [0x1C] WAIT(30* ticks)
  4: 0x00BB [0x03] Work_Zone[2] = 3500*
  5: 0x00C0 [0x1D] PRINT_EVENT_MESSAGE(message_id=11726*)
    → "So you want to buy a date plan for your chocobo, right? Which one do you want?"
  6: 0x00C3 [0x23] WAIT_FOR_DIALOG_INTERACTION
  7: 0x00C4 [0x24] CREATE_DIALOG(message_id=11727*, default_option=0*, option_flags=0*)
    → "Which ticket do you want? ($0 gil each) [None./Gourmet plan./Sports plan./Hiking plan./Jeuno Tour plan.]"
  8: 0x00CB [0x25] WAIT_DIALOG_SELECT()
  9: 0x00CC [0x02] IF !(Work_Zone[0] == 0*) GOTO 0x00E1
 10: 0x00D4 [0x03] ExtData[1]->WorkLocal[0] = 1*
 11: 0x00D9 [0x03] Work_Zone[1] = 10*
 12: 0x00DE [0x01] GOTO 0x01C2
 13: 0x00E1 [0x02] IF !(Work_Zone[0] == 1*) GOTO 0x011D
 14: 0x00E9 [0x1D] PRINT_EVENT_MESSAGE(message_id=11728*)
    → "With this plan, the chocobos can enjoy fine dining together. Good food gives the chocobos strength, and increases chances that a male chick will be born. Would you like to choose this plan?"
 15: 0x00EC [0x23] WAIT_FOR_DIALOG_INTERACTION
 16: 0x00ED [0x24] CREATE_DIALOG(message_id=11732*, default_option=1*, option_flags=0*)
    → "Purchase this ticket? [Yes./No thanks.]"
 17: 0x00F4 [0x25] WAIT_DIALOG_SELECT()
 18: 0x00F5 [0x02] IF !(Work_Zone[0] == 0*) GOTO 0x010A
 19: 0x00FD [0x03] Work_Zone[1] = 1*
 20: 0x0102 [0x03] ExtData[1]->WorkLocal[1] = 1*
 21: 0x0107 [0x01] GOTO 0x011A
 22: 0x010A [0x02] IF !(Work_Zone[0] == 1*) GOTO 0x011A
 23: 0x0112 [0x03] Work_Zone[1] = 10*
 24: 0x0117 [0x01] GOTO 0x011A

SUBROUTINE_011A:
 25: 0x011A [0x01] GOTO 0x01C2
 26: 0x011D [0x02] IF !(Work_Zone[0] == 2*) GOTO 0x0154
 27: 0x0125 [0x1D] PRINT_EVENT_MESSAGE(message_id=11729*)
    → "With this plan, the chocobos can enjoy a vigorous exercise program together. This increases the chance that a chick with high endurance will be born. Competition also raises the possibility that the male chocobo's traits will be inherited. Would you like to choose this plan?"
 28: 0x0128 [0x23] WAIT_FOR_DIALOG_INTERACTION
 29: 0x0129 [0x24] CREATE_DIALOG(message_id=11732*, default_option=1*, option_flags=0*)
    → "Purchase this ticket? [Yes./No thanks.]"
 30: 0x0130 [0x25] WAIT_DIALOG_SELECT()
 31: 0x0131 [0x02] IF !(Work_Zone[0] == 0*) GOTO 0x0141
 32: 0x0139 [0x03] Work_Zone[1] = 2*
 33: 0x013E [0x01] GOTO 0x0151
 34: 0x0141 [0x02] IF !(Work_Zone[0] == 1*) GOTO 0x0151
 35: 0x0149 [0x03] Work_Zone[1] = 10*
 36: 0x014E [0x01] GOTO 0x0151

SUBROUTINE_0151:
 37: 0x0151 [0x01] GOTO 0x01C2
 38: 0x0154 [0x02] IF !(Work_Zone[0] == 3*) GOTO 0x018B
 39: 0x015C [0x1D] PRINT_EVENT_MESSAGE(message_id=11730*)
    → "With this plan, the chocobos can enjoy the sights and sounds of nature together. The fresh air will have a beneficial effect on your chocobo's intelligence, and increase the chance that a female chick will be born. Would you like to choose this plan?"
 40: 0x015F [0x23] WAIT_FOR_DIALOG_INTERACTION
 41: 0x0160 [0x24] CREATE_DIALOG(message_id=11732*, default_option=1*, option_flags=0*)
    → "Purchase this ticket? [Yes./No thanks.]"
 42: 0x0167 [0x25] WAIT_DIALOG_SELECT()
 43: 0x0168 [0x02] IF !(Work_Zone[0] == 0*) GOTO 0x0178
 44: 0x0170 [0x03] Work_Zone[1] = 3*
 45: 0x0175 [0x01] GOTO 0x0188
 46: 0x0178 [0x02] IF !(Work_Zone[0] == 1*) GOTO 0x0188
 47: 0x0180 [0x03] Work_Zone[1] = 10*
 48: 0x0185 [0x01] GOTO 0x0188

SUBROUTINE_0188:
 49: 0x0188 [0x01] GOTO 0x01C2
 50: 0x018B [0x02] IF !(Work_Zone[0] == 4*) GOTO 0x01C2
 51: 0x0193 [0x1D] PRINT_EVENT_MESSAGE(message_id=11731*)
    → "With this plan, the chocobos will get a tour of the Jeunoan streets led by yours truly. Seeing new sights will improve the chances of a highly receptive chick being born. Another of this date's features is the increased possibility that the female's traits will be inherited. Would you like to choose this plan?"
 52: 0x0196 [0x23] WAIT_FOR_DIALOG_INTERACTION
 53: 0x0197 [0x24] CREATE_DIALOG(message_id=11732*, default_option=1*, option_flags=0*)
    → "Purchase this ticket? [Yes./No thanks.]"
 54: 0x019E [0x25] WAIT_DIALOG_SELECT()
 55: 0x019F [0x02] IF !(Work_Zone[0] == 0*) GOTO 0x01AF
 56: 0x01A7 [0x03] Work_Zone[1] = 4*
 57: 0x01AC [0x01] GOTO 0x01BF
 58: 0x01AF [0x02] IF !(Work_Zone[0] == 1*) GOTO 0x01BF
 59: 0x01B7 [0x03] Work_Zone[1] = 10*
 60: 0x01BC [0x01] GOTO 0x01BF

SUBROUTINE_01BF:
 61: 0x01BF [0x01] GOTO 0x01C2

SUBROUTINE_01C2:
 62: 0x01C2 [0x21] END_EVENT
 63: 0x01C3 [0x00] END_REQSTACK()
```

### Event 10102

#### Metadata

| Field        | Value   |
|--------------|---------|
| Entrypoint   | 0x01C4  |
| Data Size    | 1 bytes |
| Instructions | 1       |

```
      00 01 02 03 04 05 06 07  08 09 0A 0B 0C 0D 0E 0F
      -- -- -- -- -- -- -- --  -- -- -- -- -- -- -- --
01C0:             00                                        .           
```

#### Opcodes

```
  0: 0x01C4 [0x00] END_REQSTACK()
```

### Event 65535.1

#### Metadata

| Field        | Value    |
|--------------|----------|
| Entrypoint   | 0x01C5   |
| Data Size    | 10 bytes |
| Instructions | 2        |

```
      00 01 02 03 04 05 06 07  08 09 0A 0B 0C 0D 0E 0F
      -- -- -- -- -- -- -- --  -- -- -- -- -- -- -- --
01C0:                37 1E 80  1F 80 10 80 20 80 00          7...... .. 
```

#### Opcodes

```
  0: 0x01C5 [0x37] UPDATE_EVENT_POSITION_AND_DIR: x=-49.797*, z=109.356*, y=0.000*, direction=341.4°*
  1: 0x01CE [0x00] END_REQSTACK()
```

### Event 65535.2

#### Metadata

| Field        | Value    |
|--------------|----------|
| Entrypoint   | 0x01CF   |
| Data Size    | 24 bytes |
| Instructions | 6        |

```
      00 01 02 03 04 05 06 07  08 09 0A 0B 0C 0D 0E 0F
      -- -- -- -- -- -- -- --  -- -- -- -- -- -- -- --
01C0:                                               32                 2
01D0: 21 80 1F 00 22 80 23 80  10 80 1F 01 4B B5 40 0F  !...".#.....K.@.
01E0: 01 24 80 1C 07 80 00                              .$.....         
```

#### Opcodes

```
  0: 0x01CF [0x32] ExtData[1]->MainSpeed = 13* * 0.1
  1: 0x01D2 [0x1F] MOVE_ENTITY: EventEntity moves to X=-46.976*, Z=110.436*, Y=0.000*
  2: 0x01DA [0x1F] MOVE_ENTITY: Update entity position (mode=1)
  3: 0x01DC [0x4B] UPDATE_ENTITY_YAW(entity=Finbarr (ID: 17776821/0x010F40B5), yaw=0.3°*)
  4: 0x01E3 [0x1C] WAIT(30* ticks)
  5: 0x01E6 [0x00] END_REQSTACK()
```

### Event 65535.3

#### Metadata

| Field        | Value    |
|--------------|----------|
| Entrypoint   | 0x01E7   |
| Data Size    | 28 bytes |
| Instructions | 6        |

```
      00 01 02 03 04 05 06 07  08 09 0A 0B 0C 0D 0E 0F
      -- -- -- -- -- -- -- --  -- -- -- -- -- -- -- --
01E0:                      37  25 80 26 80 27 80 28 80         7%.&.'.(.
01F0: 80 F8 FF FF 7F 32 21 80  1F 00 29 80 2A 80 27 80  .....2!...).*.'.
0200: 1F 01 00                                          ...             
```

#### Opcodes

```
  0: 0x01E7 [0x37] UPDATE_EVENT_POSITION_AND_DIR: x=-61.483*, z=19.054*, y=1.000*, direction=149.6°*
  1: 0x01F0 [0x80] LOAD_WAIT(entity=EventEntity)
  2: 0x01F5 [0x32] ExtData[1]->MainSpeed = 13* * 0.1
  3: 0x01F8 [0x1F] MOVE_ENTITY: EventEntity moves to X=-63.428*, Z=16.923*, Y=1.000*
  4: 0x0200 [0x1F] MOVE_ENTITY: Update entity position (mode=1)
  5: 0x0202 [0x00] END_REQSTACK()
```

### Event 65535.4

#### Metadata

| Field        | Value    |
|--------------|----------|
| Entrypoint   | 0x0203   |
| Data Size    | 10 bytes |
| Instructions | 2        |

```
      00 01 02 03 04 05 06 07  08 09 0A 0B 0C 0D 0E 0F
      -- -- -- -- -- -- -- --  -- -- -- -- -- -- -- --
0200:          37 2B 80 2C 80  10 80 2D 80 00              7+.,...-..   
```

#### Opcodes

```
  0: 0x0203 [0x37] UPDATE_EVENT_POSITION_AND_DIR: x=-9.082*, z=0.250*, y=0.000*, direction=166.4°*
  1: 0x020C [0x00] END_REQSTACK()
```

### Event 65535.5

#### Metadata

| Field        | Value    |
|--------------|----------|
| Entrypoint   | 0x020D   |
| Data Size    | 14 bytes |
| Instructions | 4        |

```
      00 01 02 03 04 05 06 07  08 09 0A 0B 0C 0D 0E 0F
      -- -- -- -- -- -- -- --  -- -- -- -- -- -- -- --
0200:                                         32 21 80               2!.
0210: 1F 00 2E 80 2F 80 10 80  1F 01 00                 ..../......     
```

#### Opcodes

```
  0: 0x020D [0x32] ExtData[1]->MainSpeed = 13* * 0.1
  1: 0x0210 [0x1F] MOVE_ENTITY: EventEntity moves to X=-11.059*, Z=-0.051*, Y=0.000*
  2: 0x0218 [0x1F] MOVE_ENTITY: Update entity position (mode=1)
  3: 0x021A [0x00] END_REQSTACK()
```

### Event 65535.6

#### Metadata

| Field        | Value    |
|--------------|----------|
| Entrypoint   | 0x021B   |
| Data Size    | 22 bytes |
| Instructions | 6        |

```
      00 01 02 03 04 05 06 07  08 09 0A 0B 0C 0D 0E 0F
      -- -- -- -- -- -- -- --  -- -- -- -- -- -- -- --
0210:                                   32 21 80 1F 00             2!...
0220: 30 80 31 80 10 80 1F 01  1E B0 40 0F 01 1C 07 80  0.1.......@.....
0230: 00                                                .               
```

#### Opcodes

```
  0: 0x021B [0x32] ExtData[1]->MainSpeed = 13* * 0.1
  1: 0x021E [0x1F] MOVE_ENTITY: EventEntity moves to X=-12.466*, Z=0.775*, Y=0.000*
  2: 0x0226 [0x1F] MOVE_ENTITY: Update entity position (mode=1)
  3: 0x0228 [0x1E] EventEntity looks at Chocobo (ID: 17776816/0x010F40B0) and starts talking
  4: 0x022D [0x1C] WAIT(30* ticks)
  5: 0x0230 [0x00] END_REQSTACK()
```

### Event 65535.7

#### Metadata

| Field        | Value    |
|--------------|----------|
| Entrypoint   | 0x0231   |
| Data Size    | 10 bytes |
| Instructions | 2        |

```
      00 01 02 03 04 05 06 07  08 09 0A 0B 0C 0D 0E 0F
      -- -- -- -- -- -- -- --  -- -- -- -- -- -- -- --
0230:    37 32 80 33 80 10 80  34 80 00                  72.3...4..     
```

#### Opcodes

```
  0: 0x0231 [0x37] UPDATE_EVENT_POSITION_AND_DIR: x=-75.668*, z=-114.958*, y=0.000*, direction=200.0°*
  1: 0x023A [0x00] END_REQSTACK()
```

### Event 65535.8

#### Metadata

| Field        | Value    |
|--------------|----------|
| Entrypoint   | 0x023B   |
| Data Size    | 10 bytes |
| Instructions | 2        |

```
      00 01 02 03 04 05 06 07  08 09 0A 0B 0C 0D 0E 0F
      -- -- -- -- -- -- -- --  -- -- -- -- -- -- -- --
0230:                                   37 35 80 36 80             75.6.
0240: 37 80 38 80 00                                    7.8..           
```

#### Opcodes

```
  0: 0x023B [0x37] UPDATE_EVENT_POSITION_AND_DIR: x=-52.427*, z=98.468*, y=8.199*, direction=96.3°*
  1: 0x0244 [0x00] END_REQSTACK()
```

### Event 10107

#### Metadata

| Field        | Value    |
|--------------|----------|
| Entrypoint   | 0x0245   |
| Data Size    | 30 bytes |
| Instructions | 8        |

```
      00 01 02 03 04 05 06 07  08 09 0A 0B 0C 0D 0E 0F
      -- -- -- -- -- -- -- --  -- -- -- -- -- -- -- --
0240:                42 1E F0  FF FF 7F 1C 07 80 5B 09       B........[.
0250: 80 B5 40 0F 01 B5 40 0F  01 74 6C 6B 30 1D 39 80  ..@...@..tlk0.9.
0260: 23 21 00                                          #!.             
```

#### Opcodes

```
  0: 0x0245 [0x42] SET_CLI_EVENT_CANCEL_DATA()
  1: 0x0246 [0x1E] EventEntity looks at LocalPlayer and starts talking
  2: 0x024B [0x1C] WAIT(30* ticks)
  3: 0x024E [0x5B] LOAD_EXT_SCHEDULER: Load scheduler "tlk0" with entities [Finbarr (ID: 17776821/0x010F40B5), Finbarr (ID: 17776821/0x010F40B5)], work=75*
  4: 0x025D [0x1D] PRINT_EVENT_MESSAGE(message_id=11746*)
    → "The chocobo laid an egg! Take good care of it, now!"
  5: 0x0260 [0x23] WAIT_FOR_DIALOG_INTERACTION
  6: 0x0261 [0x21] END_EVENT
  7: 0x0262 [0x00] END_REQSTACK()
```

### Event 10221

#### Metadata

| Field        | Value   |
|--------------|---------|
| Entrypoint   | 0x0263  |
| Data Size    | 1 bytes |
| Instructions | 1       |

```
      00 01 02 03 04 05 06 07  08 09 0A 0B 0C 0D 0E 0F
      -- -- -- -- -- -- -- --  -- -- -- -- -- -- -- --
0260:          00                                          .            
```

#### Opcodes

```
  0: 0x0263 [0x00] END_REQSTACK()
```

### Event 10230

#### Metadata

| Field        | Value   |
|--------------|---------|
| Entrypoint   | 0x0264  |
| Data Size    | 1 bytes |
| Instructions | 1       |

```
      00 01 02 03 04 05 06 07  08 09 0A 0B 0C 0D 0E 0F
      -- -- -- -- -- -- -- --  -- -- -- -- -- -- -- --
0260:             00                                        .           
```

#### Opcodes

```
  0: 0x0264 [0x00] END_REQSTACK()
```

### Event 10231

#### Metadata

| Field        | Value   |
|--------------|---------|
| Entrypoint   | 0x0265  |
| Data Size    | 1 bytes |
| Instructions | 1       |

```
      00 01 02 03 04 05 06 07  08 09 0A 0B 0C 0D 0E 0F
      -- -- -- -- -- -- -- --  -- -- -- -- -- -- -- --
0260:                00                                      .          
```

#### Opcodes

```
  0: 0x0265 [0x00] END_REQSTACK()
```

### Event 10232

#### Metadata

| Field        | Value   |
|--------------|---------|
| Entrypoint   | 0x0266  |
| Data Size    | 1 bytes |
| Instructions | 1       |

```
      00 01 02 03 04 05 06 07  08 09 0A 0B 0C 0D 0E 0F
      -- -- -- -- -- -- -- --  -- -- -- -- -- -- -- --
0260:                   00                                    .         
```

#### Opcodes

```
  0: 0x0266 [0x00] END_REQSTACK()
```

### Event 10233

#### Metadata

| Field        | Value   |
|--------------|---------|
| Entrypoint   | 0x0267  |
| Data Size    | 1 bytes |
| Instructions | 1       |

```
      00 01 02 03 04 05 06 07  08 09 0A 0B 0C 0D 0E 0F
      -- -- -- -- -- -- -- --  -- -- -- -- -- -- -- --
0260:                      00                                  .        
```

#### Opcodes

```
  0: 0x0267 [0x00] END_REQSTACK()
```

### Event 10234

#### Metadata

| Field        | Value   |
|--------------|---------|
| Entrypoint   | 0x0268  |
| Data Size    | 1 bytes |
| Instructions | 1       |

```
      00 01 02 03 04 05 06 07  08 09 0A 0B 0C 0D 0E 0F
      -- -- -- -- -- -- -- --  -- -- -- -- -- -- -- --
0260:                          00                               .       
```

#### Opcodes

```
  0: 0x0268 [0x00] END_REQSTACK()
```

### Event 65535.9

#### Metadata

| Field        | Value    |
|--------------|----------|
| Entrypoint   | 0x0269   |
| Data Size    | 87 bytes |
| Instructions | 19       |

```
      00 01 02 03 04 05 06 07  08 09 0A 0B 0C 0D 0E 0F
      -- -- -- -- -- -- -- --  -- -- -- -- -- -- -- --
0260:                             32 3A 80 1C 3B 80 1F           2:..;..
0270: 00 3C 80 3D 80 3E 80 1F  01 1F 00 3F 80 40 80 3E  .<.=.>.....?.@.>
0280: 80 1F 01 1F 00 41 80 42  80 3E 80 1F 01 1F 00 43  .....A.B.>.....C
0290: 80 44 80 45 80 1F 01 1F  00 46 80 47 80 10 80 1F  .D.E.....F.G....
02A0: 01 1F 00 48 80 49 80 10  80 1F 01 1F 00 4A 80 4B  ...H.I.......J.K
02B0: 80 10 80 1F 01 1F 00 4C  80 4D 80 10 80 1F 01 00  .......L.M......
```

#### Opcodes

```
  0: 0x0269 [0x32] ExtData[1]->MainSpeed = 60* * 0.1
  1: 0x026C [0x1C] WAIT(90* ticks)
  2: 0x026F [0x1F] MOVE_ENTITY: EventEntity moves to X=-51.160*, Z=94.750*, Y=8.000*
  3: 0x0277 [0x1F] MOVE_ENTITY: Update entity position (mode=1)
  4: 0x0279 [0x1F] MOVE_ENTITY: EventEntity moves to X=-45.530*, Z=97.780*, Y=8.000*
  5: 0x0281 [0x1F] MOVE_ENTITY: Update entity position (mode=1)
  6: 0x0283 [0x1F] MOVE_ENTITY: EventEntity moves to X=-40.930*, Z=92.020*, Y=8.000*
  7: 0x028B [0x1F] MOVE_ENTITY: Update entity position (mode=1)
  8: 0x028D [0x1F] MOVE_ENTITY: EventEntity moves to X=-43.190*, Z=85.670*, Y=7.700*
  9: 0x0295 [0x1F] MOVE_ENTITY: Update entity position (mode=1)
 10: 0x0297 [0x1F] MOVE_ENTITY: EventEntity moves to X=-59.100*, Z=76.510*, Y=0.000*
 11: 0x029F [0x1F] MOVE_ENTITY: Update entity position (mode=1)
 12: 0x02A1 [0x1F] MOVE_ENTITY: EventEntity moves to X=-64.080*, Z=78.410*, Y=0.000*
 13: 0x02A9 [0x1F] MOVE_ENTITY: Update entity position (mode=1)
 14: 0x02AB [0x1F] MOVE_ENTITY: EventEntity moves to X=-69.220*, Z=92.070*, Y=0.000*
 15: 0x02B3 [0x1F] MOVE_ENTITY: Update entity position (mode=1)
 16: 0x02B5 [0x1F] MOVE_ENTITY: EventEntity moves to X=-66.820*, Z=120.920*, Y=0.000*
 17: 0x02BD [0x1F] MOVE_ENTITY: Update entity position (mode=1)
 18: 0x02BF [0x00] END_REQSTACK()
```
