# 17776863

## Common Data

| Field            | Value                 |
|------------------|-----------------------|
| Zone             | Upper Jeuno (ID: 244) |
| Block Size       | 780 bytes             |
| Total Events     | 41                    |
| References Count | 20                    |

## List of Events

| Event ID                   | Entrypoint   |   Size |   Instructions |
|----------------------------|--------------|--------|----------------|
| [65535](#event-65535)      | 0x0000       |      1 |              1 |
| [10178](#event-10178)      | 0x0001       |      1 |              1 |
| [10179](#event-10179)      | 0x0002       |      4 |              2 |
| [10180](#event-10180)      | 0x0006       |      4 |              2 |
| [10181](#event-10181)      | 0x000A       |      1 |              1 |
| [10182](#event-10182)      | 0x000B       |      1 |              1 |
| [10183](#event-10183)      | 0x000C       |      1 |              1 |
| [10184](#event-10184)      | 0x000D       |      1 |              1 |
| [10185](#event-10185)      | 0x000E       |      1 |              1 |
| [65535.1](#event-655351)   | 0x000F       |     15 |              4 |
| [65535.2](#event-655352)   | 0x001E       |      8 |              3 |
| [65535.3](#event-655353)   | 0x0026       |     10 |              2 |
| [65535.4](#event-655354)   | 0x0030       |     10 |              2 |
| [65535.5](#event-655355)   | 0x003A       |      5 |              2 |
| [65535.6](#event-655356)   | 0x003F       |     16 |              2 |
| [65535.7](#event-655357)   | 0x004F       |     16 |              2 |
| [65535.8](#event-655358)   | 0x005F       |     16 |              2 |
| [65535.9](#event-655359)   | 0x006F       |     16 |              2 |
| [65535.10](#event-6553510) | 0x007F       |     16 |              2 |
| [65535.11](#event-6553511) | 0x008F       |     16 |              2 |
| [65535.12](#event-6553512) | 0x009F       |     16 |              2 |
| [65535.13](#event-6553513) | 0x00AF       |     16 |              2 |
| [65535.14](#event-6553514) | 0x00BF       |     16 |              2 |
| [65535.15](#event-6553515) | 0x00CF       |     16 |              2 |
| [65535.16](#event-6553516) | 0x00DF       |     16 |              2 |
| [65535.17](#event-6553517) | 0x00EF       |     16 |              2 |
| [65535.18](#event-6553518) | 0x00FF       |     16 |              2 |
| [65535.19](#event-6553519) | 0x010F       |     18 |              2 |
| [65535.20](#event-6553520) | 0x0121       |     18 |              2 |
| [65535.21](#event-6553521) | 0x0133       |     18 |              2 |
| [65535.22](#event-6553522) | 0x0145       |     18 |              2 |
| [65535.23](#event-6553523) | 0x0157       |      8 |              3 |
| [65535.24](#event-6553524) | 0x015F       |     37 |              5 |
| [65535.25](#event-6553525) | 0x0184       |     19 |              3 |
| [65535.26](#event-6553526) | 0x0197       |     16 |              2 |
| [65535.27](#event-6553527) | 0x01A7       |     19 |              3 |
| [65535.28](#event-6553528) | 0x01BA       |     19 |              3 |
| [65535.29](#event-6553529) | 0x01CD       |      8 |              3 |
| [65535.30](#event-6553530) | 0x01D5       |     16 |              2 |
| [65535.31](#event-6553531) | 0x01E5       |     16 |              2 |
| [65535.32](#event-6553532) | 0x01F5       |     18 |              2 |

## DAT References (imed_data)

|   Index | Hex Value   |   Dec Value |
|---------|-------------|-------------|
|       0 | 0x0001      |           1 |
|       1 | 0x08EB      |        2283 |
|       2 | 0x0080      |         128 |
|       3 | 0x0000      |           0 |
|       4 | 0x0034      |          52 |
|       5 | 0x0A4B      |        2635 |
|       6 | 0x0082      |         130 |
|       7 | 0x08DD      |        2269 |
|       8 | 0xFFFE9FBF  |  4294877119 |
|       9 | 0x13A09     |       80393 |
|      10 | 0xFFFFFB51  |  4294966097 |
|      11 | 0x0AAA      |        2730 |
|      12 | 0x000F      |          15 |
|      13 | 0x0A51      |        2641 |
|      14 | 0x0138      |         312 |
|      15 | 0x00B1      |         177 |
|      16 | 0x0129      |         297 |
|      17 | 0x03C0      |         960 |
|      18 | 0x0AC0      |        2752 |
|      19 | 0x007C      |         124 |

## Events

### Event 65535

#### Metadata

| Field        | Value   |
|--------------|---------|
| Entrypoint   | 0x0000  |
| Data Size    | 1 bytes |
| Instructions | 1       |

```
      00 01 02 03 04 05 06 07  08 09 0A 0B 0C 0D 0E 0F
      -- -- -- -- -- -- -- --  -- -- -- -- -- -- -- --
0000: 00                                                .               
```

#### Opcodes

```
  0: 0x0000 [0x00] END_REQSTACK()
```

### Event 10178

#### Metadata

| Field        | Value   |
|--------------|---------|
| Entrypoint   | 0x0001  |
| Data Size    | 1 bytes |
| Instructions | 1       |

```
      00 01 02 03 04 05 06 07  08 09 0A 0B 0C 0D 0E 0F
      -- -- -- -- -- -- -- --  -- -- -- -- -- -- -- --
0000:    00                                              .              
```

#### Opcodes

```
  0: 0x0001 [0x00] END_REQSTACK()
```

### Event 10179

#### Metadata

| Field        | Value   |
|--------------|---------|
| Entrypoint   | 0x0002  |
| Data Size    | 4 bytes |
| Instructions | 2       |

```
      00 01 02 03 04 05 06 07  08 09 0A 0B 0C 0D 0E 0F
      -- -- -- -- -- -- -- --  -- -- -- -- -- -- -- --
0000:       C0 00 80 00                                   ....          
```

#### Opcodes

```
  0: 0x0002 [0xC0] EventEntity->Render.Flags3 |= 0x1000 // Set bit 12 (from 1*)
  1: 0x0005 [0x00] END_REQSTACK()
```

### Event 10180

#### Metadata

| Field        | Value   |
|--------------|---------|
| Entrypoint   | 0x0006  |
| Data Size    | 4 bytes |
| Instructions | 2       |

```
      00 01 02 03 04 05 06 07  08 09 0A 0B 0C 0D 0E 0F
      -- -- -- -- -- -- -- --  -- -- -- -- -- -- -- --
0000:                   C0 00  80 00                          ....      
```

#### Opcodes

```
  0: 0x0006 [0xC0] EventEntity->Render.Flags3 |= 0x1000 // Set bit 12 (from 1*)
  1: 0x0009 [0x00] END_REQSTACK()
```

### Event 10181

#### Metadata

| Field        | Value   |
|--------------|---------|
| Entrypoint   | 0x000A  |
| Data Size    | 1 bytes |
| Instructions | 1       |

```
      00 01 02 03 04 05 06 07  08 09 0A 0B 0C 0D 0E 0F
      -- -- -- -- -- -- -- --  -- -- -- -- -- -- -- --
0000:                                00                           .     
```

#### Opcodes

```
  0: 0x000A [0x00] END_REQSTACK()
```

### Event 10182

#### Metadata

| Field        | Value   |
|--------------|---------|
| Entrypoint   | 0x000B  |
| Data Size    | 1 bytes |
| Instructions | 1       |

```
      00 01 02 03 04 05 06 07  08 09 0A 0B 0C 0D 0E 0F
      -- -- -- -- -- -- -- --  -- -- -- -- -- -- -- --
0000:                                   00                         .    
```

#### Opcodes

```
  0: 0x000B [0x00] END_REQSTACK()
```

### Event 10183

#### Metadata

| Field        | Value   |
|--------------|---------|
| Entrypoint   | 0x000C  |
| Data Size    | 1 bytes |
| Instructions | 1       |

```
      00 01 02 03 04 05 06 07  08 09 0A 0B 0C 0D 0E 0F
      -- -- -- -- -- -- -- --  -- -- -- -- -- -- -- --
0000:                                      00                       .   
```

#### Opcodes

```
  0: 0x000C [0x00] END_REQSTACK()
```

### Event 10184

#### Metadata

| Field        | Value   |
|--------------|---------|
| Entrypoint   | 0x000D  |
| Data Size    | 1 bytes |
| Instructions | 1       |

```
      00 01 02 03 04 05 06 07  08 09 0A 0B 0C 0D 0E 0F
      -- -- -- -- -- -- -- --  -- -- -- -- -- -- -- --
0000:                                         00                     .  
```

#### Opcodes

```
  0: 0x000D [0x00] END_REQSTACK()
```

### Event 10185

#### Metadata

| Field        | Value   |
|--------------|---------|
| Entrypoint   | 0x000E  |
| Data Size    | 1 bytes |
| Instructions | 1       |

```
      00 01 02 03 04 05 06 07  08 09 0A 0B 0C 0D 0E 0F
      -- -- -- -- -- -- -- --  -- -- -- -- -- -- -- --
0000:                                            00                   . 
```

#### Opcodes

```
  0: 0x000E [0x00] END_REQSTACK()
```

### Event 65535.1

#### Metadata

| Field        | Value    |
|--------------|----------|
| Entrypoint   | 0x000F   |
| Data Size    | 15 bytes |
| Instructions | 4        |

```
      00 01 02 03 04 05 06 07  08 09 0A 0B 0C 0D 0E 0F
      -- -- -- -- -- -- -- --  -- -- -- -- -- -- -- --
0000:                                               22                 "
0010: 00 92 01 F8 FF FF 7F 94  01 F8 FF FF 7F 00        ..............  
```

#### Opcodes

```
  0: 0x000F [0x22] ENTITY_HIDE_FLAG(enabled=0x00)
  1: 0x0011 [0x92] EventEntity->Render.Flags3 ^= 0x01
  2: 0x0017 [0x94] EventEntity->Render.Flags3 ^= 0x01
  3: 0x001D [0x00] END_REQSTACK()
```

### Event 65535.2

#### Metadata

| Field        | Value   |
|--------------|---------|
| Entrypoint   | 0x001E  |
| Data Size    | 8 bytes |
| Instructions | 3       |

```
      00 01 02 03 04 05 06 07  08 09 0A 0B 0C 0D 0E 0F
      -- -- -- -- -- -- -- --  -- -- -- -- -- -- -- --
0010:                                            B6 00                ..
0020: 01 80 C0 00 80 00                                 ......          
```

#### Opcodes

```
  0: 0x001E [0xB6] ENTITY_APPEARANCE_HANDLER(case=Hair style, value=2283*)
  1: 0x0022 [0xC0] EventEntity->Render.Flags3 |= 0x1000 // Set bit 12 (from 1*)
  2: 0x0025 [0x00] END_REQSTACK()
```

### Event 65535.3

#### Metadata

| Field        | Value    |
|--------------|----------|
| Entrypoint   | 0x0026   |
| Data Size    | 10 bytes |
| Instructions | 2        |

```
      00 01 02 03 04 05 06 07  08 09 0A 0B 0C 0D 0E 0F
      -- -- -- -- -- -- -- --  -- -- -- -- -- -- -- --
0020:                   6C F8  FF FF 7F 02 80 03 80 00        l.........
```

#### Opcodes

```
  0: 0x0026 [0x6C] FADE_ENTITY_COLOR(entity_id=EventEntity, end_alpha=128*, fade_time=0*)
  1: 0x002F [0x00] END_REQSTACK()
```

### Event 65535.4

#### Metadata

| Field        | Value    |
|--------------|----------|
| Entrypoint   | 0x0030   |
| Data Size    | 10 bytes |
| Instructions | 2        |

```
      00 01 02 03 04 05 06 07  08 09 0A 0B 0C 0D 0E 0F
      -- -- -- -- -- -- -- --  -- -- -- -- -- -- -- --
0030: 6C F8 FF FF 7F 03 80 03  80 00                    l.........      
```

#### Opcodes

```
  0: 0x0030 [0x6C] FADE_ENTITY_COLOR(entity_id=EventEntity, end_alpha=0*, fade_time=0*)
  1: 0x0039 [0x00] END_REQSTACK()
```

### Event 65535.5

#### Metadata

| Field        | Value   |
|--------------|---------|
| Entrypoint   | 0x003A  |
| Data Size    | 5 bytes |
| Instructions | 2       |

```
      00 01 02 03 04 05 06 07  08 09 0A 0B 0C 0D 0E 0F
      -- -- -- -- -- -- -- --  -- -- -- -- -- -- -- --
0030:                                B6 00 04 80 00               ..... 
```

#### Opcodes

```
  0: 0x003A [0xB6] ENTITY_APPEARANCE_HANDLER(case=Hair style, value=52*)
  1: 0x003E [0x00] END_REQSTACK()
```

### Event 65535.6

#### Metadata

| Field        | Value    |
|--------------|----------|
| Entrypoint   | 0x003F   |
| Data Size    | 16 bytes |
| Instructions | 2        |

```
      00 01 02 03 04 05 06 07  08 09 0A 0B 0C 0D 0E 0F
      -- -- -- -- -- -- -- --  -- -- -- -- -- -- -- --
0030:                                               5B                 [
0040: 05 80 F8 FF FF 7F F8 FF  FF 7F 6C 61 74 6C 00     ..........latl. 
```

#### Opcodes

```
  0: 0x003F [0x5B] LOAD_EXT_SCHEDULER: Load scheduler "latl" with entities [EventEntity, EventEntity], work=2635*
  1: 0x004E [0x00] END_REQSTACK()
```

### Event 65535.7

#### Metadata

| Field        | Value    |
|--------------|----------|
| Entrypoint   | 0x004F   |
| Data Size    | 16 bytes |
| Instructions | 2        |

```
      00 01 02 03 04 05 06 07  08 09 0A 0B 0C 0D 0E 0F
      -- -- -- -- -- -- -- --  -- -- -- -- -- -- -- --
0040:                                               5B                 [
0050: 05 80 F8 FF FF 7F F8 FF  FF 7F 6C 61 74 7A 00     ..........latz. 
```

#### Opcodes

```
  0: 0x004F [0x5B] LOAD_EXT_SCHEDULER: Load scheduler "latz" with entities [EventEntity, EventEntity], work=2635*
  1: 0x005E [0x00] END_REQSTACK()
```

### Event 65535.8

#### Metadata

| Field        | Value    |
|--------------|----------|
| Entrypoint   | 0x005F   |
| Data Size    | 16 bytes |
| Instructions | 2        |

```
      00 01 02 03 04 05 06 07  08 09 0A 0B 0C 0D 0E 0F
      -- -- -- -- -- -- -- --  -- -- -- -- -- -- -- --
0050:                                               5B                 [
0060: 05 80 F8 FF FF 7F F8 FF  FF 7F 6C 61 74 30 00     ..........lat0. 
```

#### Opcodes

```
  0: 0x005F [0x5B] LOAD_EXT_SCHEDULER: Load scheduler "lat0" with entities [EventEntity, EventEntity], work=2635*
  1: 0x006E [0x00] END_REQSTACK()
```

### Event 65535.9

#### Metadata

| Field        | Value    |
|--------------|----------|
| Entrypoint   | 0x006F   |
| Data Size    | 16 bytes |
| Instructions | 2        |

```
      00 01 02 03 04 05 06 07  08 09 0A 0B 0C 0D 0E 0F
      -- -- -- -- -- -- -- --  -- -- -- -- -- -- -- --
0060:                                               5B                 [
0070: 05 80 F8 FF FF 7F F8 FF  FF 7F 6C 61 74 31 00     ..........lat1. 
```

#### Opcodes

```
  0: 0x006F [0x5B] LOAD_EXT_SCHEDULER: Load scheduler "lat1" with entities [EventEntity, EventEntity], work=2635*
  1: 0x007E [0x00] END_REQSTACK()
```

### Event 65535.10

#### Metadata

| Field        | Value    |
|--------------|----------|
| Entrypoint   | 0x007F   |
| Data Size    | 16 bytes |
| Instructions | 2        |

```
      00 01 02 03 04 05 06 07  08 09 0A 0B 0C 0D 0E 0F
      -- -- -- -- -- -- -- --  -- -- -- -- -- -- -- --
0070:                                               5B                 [
0080: 05 80 F8 FF FF 7F F8 FF  FF 7F 6C 61 74 32 00     ..........lat2. 
```

#### Opcodes

```
  0: 0x007F [0x5B] LOAD_EXT_SCHEDULER: Load scheduler "lat2" with entities [EventEntity, EventEntity], work=2635*
  1: 0x008E [0x00] END_REQSTACK()
```

### Event 65535.11

#### Metadata

| Field        | Value    |
|--------------|----------|
| Entrypoint   | 0x008F   |
| Data Size    | 16 bytes |
| Instructions | 2        |

```
      00 01 02 03 04 05 06 07  08 09 0A 0B 0C 0D 0E 0F
      -- -- -- -- -- -- -- --  -- -- -- -- -- -- -- --
0080:                                               5B                 [
0090: 05 80 F8 FF FF 7F F8 FF  FF 7F 6C 61 74 33 00     ..........lat3. 
```

#### Opcodes

```
  0: 0x008F [0x5B] LOAD_EXT_SCHEDULER: Load scheduler "lat3" with entities [EventEntity, EventEntity], work=2635*
  1: 0x009E [0x00] END_REQSTACK()
```

### Event 65535.12

#### Metadata

| Field        | Value    |
|--------------|----------|
| Entrypoint   | 0x009F   |
| Data Size    | 16 bytes |
| Instructions | 2        |

```
      00 01 02 03 04 05 06 07  08 09 0A 0B 0C 0D 0E 0F
      -- -- -- -- -- -- -- --  -- -- -- -- -- -- -- --
0090:                                               5B                 [
00A0: 05 80 F8 FF FF 7F F8 FF  FF 7F 6C 61 74 34 00     ..........lat4. 
```

#### Opcodes

```
  0: 0x009F [0x5B] LOAD_EXT_SCHEDULER: Load scheduler "lat4" with entities [EventEntity, EventEntity], work=2635*
  1: 0x00AE [0x00] END_REQSTACK()
```

### Event 65535.13

#### Metadata

| Field        | Value    |
|--------------|----------|
| Entrypoint   | 0x00AF   |
| Data Size    | 16 bytes |
| Instructions | 2        |

```
      00 01 02 03 04 05 06 07  08 09 0A 0B 0C 0D 0E 0F
      -- -- -- -- -- -- -- --  -- -- -- -- -- -- -- --
00A0:                                               5B                 [
00B0: 05 80 F8 FF FF 7F F8 FF  FF 7F 6C 61 74 35 00     ..........lat5. 
```

#### Opcodes

```
  0: 0x00AF [0x5B] LOAD_EXT_SCHEDULER: Load scheduler "lat5" with entities [EventEntity, EventEntity], work=2635*
  1: 0x00BE [0x00] END_REQSTACK()
```

### Event 65535.14

#### Metadata

| Field        | Value    |
|--------------|----------|
| Entrypoint   | 0x00BF   |
| Data Size    | 16 bytes |
| Instructions | 2        |

```
      00 01 02 03 04 05 06 07  08 09 0A 0B 0C 0D 0E 0F
      -- -- -- -- -- -- -- --  -- -- -- -- -- -- -- --
00B0:                                               5B                 [
00C0: 05 80 F8 FF FF 7F F8 FF  FF 7F 6C 61 74 36 00     ..........lat6. 
```

#### Opcodes

```
  0: 0x00BF [0x5B] LOAD_EXT_SCHEDULER: Load scheduler "lat6" with entities [EventEntity, EventEntity], work=2635*
  1: 0x00CE [0x00] END_REQSTACK()
```

### Event 65535.15

#### Metadata

| Field        | Value    |
|--------------|----------|
| Entrypoint   | 0x00CF   |
| Data Size    | 16 bytes |
| Instructions | 2        |

```
      00 01 02 03 04 05 06 07  08 09 0A 0B 0C 0D 0E 0F
      -- -- -- -- -- -- -- --  -- -- -- -- -- -- -- --
00C0:                                               5B                 [
00D0: 05 80 F8 FF FF 7F F8 FF  FF 7F 6C 61 74 37 00     ..........lat7. 
```

#### Opcodes

```
  0: 0x00CF [0x5B] LOAD_EXT_SCHEDULER: Load scheduler "lat7" with entities [EventEntity, EventEntity], work=2635*
  1: 0x00DE [0x00] END_REQSTACK()
```

### Event 65535.16

#### Metadata

| Field        | Value    |
|--------------|----------|
| Entrypoint   | 0x00DF   |
| Data Size    | 16 bytes |
| Instructions | 2        |

```
      00 01 02 03 04 05 06 07  08 09 0A 0B 0C 0D 0E 0F
      -- -- -- -- -- -- -- --  -- -- -- -- -- -- -- --
00D0:                                               5B                 [
00E0: 05 80 F8 FF FF 7F F8 FF  FF 7F 68 72 61 30 00     ..........hra0. 
```

#### Opcodes

```
  0: 0x00DF [0x5B] LOAD_EXT_SCHEDULER: Load scheduler "hra0" with entities [EventEntity, EventEntity], work=2635*
  1: 0x00EE [0x00] END_REQSTACK()
```

### Event 65535.17

#### Metadata

| Field        | Value    |
|--------------|----------|
| Entrypoint   | 0x00EF   |
| Data Size    | 16 bytes |
| Instructions | 2        |

```
      00 01 02 03 04 05 06 07  08 09 0A 0B 0C 0D 0E 0F
      -- -- -- -- -- -- -- --  -- -- -- -- -- -- -- --
00E0:                                               5B                 [
00F0: 05 80 F8 FF FF 7F F8 FF  FF 7F 68 72 61 31 00     ..........hra1. 
```

#### Opcodes

```
  0: 0x00EF [0x5B] LOAD_EXT_SCHEDULER: Load scheduler "hra1" with entities [EventEntity, EventEntity], work=2635*
  1: 0x00FE [0x00] END_REQSTACK()
```

### Event 65535.18

#### Metadata

| Field        | Value    |
|--------------|----------|
| Entrypoint   | 0x00FF   |
| Data Size    | 16 bytes |
| Instructions | 2        |

```
      00 01 02 03 04 05 06 07  08 09 0A 0B 0C 0D 0E 0F
      -- -- -- -- -- -- -- --  -- -- -- -- -- -- -- --
00F0:                                               5B                 [
0100: 05 80 F8 FF FF 7F F8 FF  FF 7F 75 72 61 30 00     ..........ura0. 
```

#### Opcodes

```
  0: 0x00FF [0x5B] LOAD_EXT_SCHEDULER: Load scheduler "ura0" with entities [EventEntity, EventEntity], work=2635*
  1: 0x010E [0x00] END_REQSTACK()
```

### Event 65535.19

#### Metadata

| Field        | Value    |
|--------------|----------|
| Entrypoint   | 0x010F   |
| Data Size    | 18 bytes |
| Instructions | 2        |

```
      00 01 02 03 04 05 06 07  08 09 0A 0B 0C 0D 0E 0F
      -- -- -- -- -- -- -- --  -- -- -- -- -- -- -- --
0100:                                               C5                 .
0110: 06 80 F8 FF FF 7F F8 FF  FF 7F 73 30 30 30 03 80  ..........s000..
0120: 00                                                .               
```

#### Opcodes

```
  0: 0x010F [0xC5] LOAD_SCHEDULED_TASK_ALT3: Load scheduler 0x80033030 for entities [EventEntity, EventEntity], work=130*, param=12403
  1: 0x0120 [0x00] END_REQSTACK()
```

### Event 65535.20

#### Metadata

| Field        | Value    |
|--------------|----------|
| Entrypoint   | 0x0121   |
| Data Size    | 18 bytes |
| Instructions | 2        |

```
      00 01 02 03 04 05 06 07  08 09 0A 0B 0C 0D 0E 0F
      -- -- -- -- -- -- -- --  -- -- -- -- -- -- -- --
0120:    C5 06 80 F8 FF FF 7F  F8 FF FF 7F 73 74 30 30   ...........st00
0130: 03 80 00                                          ...             
```

#### Opcodes

```
  0: 0x0121 [0xC5] LOAD_SCHEDULED_TASK_ALT3: Load scheduler 0x80033030 for entities [EventEntity, EventEntity], work=130*, param=29811
  1: 0x0132 [0x00] END_REQSTACK()
```

### Event 65535.21

#### Metadata

| Field        | Value    |
|--------------|----------|
| Entrypoint   | 0x0133   |
| Data Size    | 18 bytes |
| Instructions | 2        |

```
      00 01 02 03 04 05 06 07  08 09 0A 0B 0C 0D 0E 0F
      -- -- -- -- -- -- -- --  -- -- -- -- -- -- -- --
0130:          C5 06 80 F8 FF  FF 7F F8 FF FF 7F 73 30     ...........s0
0140: 30 31 03 80 00                                    01...           
```

#### Opcodes

```
  0: 0x0133 [0xC5] LOAD_SCHEDULED_TASK_ALT3: Load scheduler 0x80033130 for entities [EventEntity, EventEntity], work=130*, param=12403
  1: 0x0144 [0x00] END_REQSTACK()
```

### Event 65535.22

#### Metadata

| Field        | Value    |
|--------------|----------|
| Entrypoint   | 0x0145   |
| Data Size    | 18 bytes |
| Instructions | 2        |

```
      00 01 02 03 04 05 06 07  08 09 0A 0B 0C 0D 0E 0F
      -- -- -- -- -- -- -- --  -- -- -- -- -- -- -- --
0140:                C5 06 80  F8 FF FF 7F F8 FF FF 7F       ...........
0150: 73 74 30 31 03 80 00                              st01...         
```

#### Opcodes

```
  0: 0x0145 [0xC5] LOAD_SCHEDULED_TASK_ALT3: Load scheduler 0x80033130 for entities [EventEntity, EventEntity], work=130*, param=29811
  1: 0x0156 [0x00] END_REQSTACK()
```

### Event 65535.23

#### Metadata

| Field        | Value   |
|--------------|---------|
| Entrypoint   | 0x0157  |
| Data Size    | 8 bytes |
| Instructions | 3       |

```
      00 01 02 03 04 05 06 07  08 09 0A 0B 0C 0D 0E 0F
      -- -- -- -- -- -- -- --  -- -- -- -- -- -- -- --
0150:                      B6  00 07 80 C0 00 80 00            ........ 
```

#### Opcodes

```
  0: 0x0157 [0xB6] ENTITY_APPEARANCE_HANDLER(case=Hair style, value=2269*)
  1: 0x015B [0xC0] EventEntity->Render.Flags3 |= 0x1000 // Set bit 12 (from 1*)
  2: 0x015E [0x00] END_REQSTACK()
```

### Event 65535.24

#### Metadata

| Field        | Value    |
|--------------|----------|
| Entrypoint   | 0x015F   |
| Data Size    | 37 bytes |
| Instructions | 5        |

```
      00 01 02 03 04 05 06 07  08 09 0A 0B 0C 0D 0E 0F
      -- -- -- -- -- -- -- --  -- -- -- -- -- -- -- --
0150:                                               BA                 .
0160: F8 FF FF 7F 08 80 09 80  0A 80 0B 80 80 F8 FF FF  ................
0170: 7F 1C 0C 80 5B 0D 80 F8  FF FF 7F F8 FF FF 7F 68  ....[..........h
0180: 6F 6E 30 00                                       on0.            
```

#### Opcodes

```
  0: 0x015F [0xBA] SET_ENTITY_POSITION(entity_id=EventEntity, pos_x=-90.177*, pos_z=80.393*, pos_y=-1.199*, direction=239.9°*)
  1: 0x016C [0x80] LOAD_WAIT(entity=EventEntity)
  2: 0x0171 [0x1C] WAIT(15* ticks)
  3: 0x0174 [0x5B] LOAD_EXT_SCHEDULER: Load scheduler "hon0" with entities [EventEntity, EventEntity], work=2641*
  4: 0x0183 [0x00] END_REQSTACK()
```

### Event 65535.25

#### Metadata

| Field        | Value    |
|--------------|----------|
| Entrypoint   | 0x0184   |
| Data Size    | 19 bytes |
| Instructions | 3        |

```
      00 01 02 03 04 05 06 07  08 09 0A 0B 0C 0D 0E 0F
      -- -- -- -- -- -- -- --  -- -- -- -- -- -- -- --
0180:             5B 0D 80 F8  FF FF 7F F8 FF FF 7F 68      [..........h
0190: 6F 6E 31 1C 0E 80 00                              on1....         
```

#### Opcodes

```
  0: 0x0184 [0x5B] LOAD_EXT_SCHEDULER: Load scheduler "hon1" with entities [EventEntity, EventEntity], work=2641*
  1: 0x0193 [0x1C] WAIT(312* ticks)
  2: 0x0196 [0x00] END_REQSTACK()
```

### Event 65535.26

#### Metadata

| Field        | Value    |
|--------------|----------|
| Entrypoint   | 0x0197   |
| Data Size    | 16 bytes |
| Instructions | 2        |

```
      00 01 02 03 04 05 06 07  08 09 0A 0B 0C 0D 0E 0F
      -- -- -- -- -- -- -- --  -- -- -- -- -- -- -- --
0190:                      5B  05 80 F8 FF FF 7F F8 FF         [........
01A0: FF 7F 73 65 69 6C 00                              ..seil.         
```

#### Opcodes

```
  0: 0x0197 [0x5B] LOAD_EXT_SCHEDULER: Load scheduler "seil" with entities [EventEntity, EventEntity], work=2635*
  1: 0x01A6 [0x00] END_REQSTACK()
```

### Event 65535.27

#### Metadata

| Field        | Value    |
|--------------|----------|
| Entrypoint   | 0x01A7   |
| Data Size    | 19 bytes |
| Instructions | 3        |

```
      00 01 02 03 04 05 06 07  08 09 0A 0B 0C 0D 0E 0F
      -- -- -- -- -- -- -- --  -- -- -- -- -- -- -- --
01A0:                      5B  05 80 F8 FF FF 7F F8 FF         [........
01B0: FF 7F 73 65 69 30 1C 0F  80 00                    ..sei0....      
```

#### Opcodes

```
  0: 0x01A7 [0x5B] LOAD_EXT_SCHEDULER: Load scheduler "sei0" with entities [EventEntity, EventEntity], work=2635*
  1: 0x01B6 [0x1C] WAIT(177* ticks)
  2: 0x01B9 [0x00] END_REQSTACK()
```

### Event 65535.28

#### Metadata

| Field        | Value    |
|--------------|----------|
| Entrypoint   | 0x01BA   |
| Data Size    | 19 bytes |
| Instructions | 3        |

```
      00 01 02 03 04 05 06 07  08 09 0A 0B 0C 0D 0E 0F
      -- -- -- -- -- -- -- --  -- -- -- -- -- -- -- --
01B0:                                5B 05 80 F8 FF FF            [.....
01C0: 7F F8 FF FF 7F 73 65 69  31 1C 10 80 00           .....sei1....   
```

#### Opcodes

```
  0: 0x01BA [0x5B] LOAD_EXT_SCHEDULER: Load scheduler "sei1" with entities [EventEntity, EventEntity], work=2635*
  1: 0x01C9 [0x1C] WAIT(297* ticks)
  2: 0x01CC [0x00] END_REQSTACK()
```

### Event 65535.29

#### Metadata

| Field        | Value   |
|--------------|---------|
| Entrypoint   | 0x01CD  |
| Data Size    | 8 bytes |
| Instructions | 3       |

```
      00 01 02 03 04 05 06 07  08 09 0A 0B 0C 0D 0E 0F
      -- -- -- -- -- -- -- --  -- -- -- -- -- -- -- --
01C0:                                         B6 00 11               ...
01D0: 80 C0 00 80 00                                    .....           
```

#### Opcodes

```
  0: 0x01CD [0xB6] ENTITY_APPEARANCE_HANDLER(case=Hair style, value=960*)
  1: 0x01D1 [0xC0] EventEntity->Render.Flags3 |= 0x1000 // Set bit 12 (from 1*)
  2: 0x01D4 [0x00] END_REQSTACK()
```

### Event 65535.30

#### Metadata

| Field        | Value    |
|--------------|----------|
| Entrypoint   | 0x01D5   |
| Data Size    | 16 bytes |
| Instructions | 2        |

```
      00 01 02 03 04 05 06 07  08 09 0A 0B 0C 0D 0E 0F
      -- -- -- -- -- -- -- --  -- -- -- -- -- -- -- --
01D0:                5B 12 80  F8 FF FF 7F F8 FF FF 7F       [..........
01E0: 6B 69 6E 6C 00                                    kinl.           
```

#### Opcodes

```
  0: 0x01D5 [0x5B] LOAD_EXT_SCHEDULER: Load scheduler "kinl" with entities [EventEntity, EventEntity], work=2752*
  1: 0x01E4 [0x00] END_REQSTACK()
```

### Event 65535.31

#### Metadata

| Field        | Value    |
|--------------|----------|
| Entrypoint   | 0x01E5   |
| Data Size    | 16 bytes |
| Instructions | 2        |

```
      00 01 02 03 04 05 06 07  08 09 0A 0B 0C 0D 0E 0F
      -- -- -- -- -- -- -- --  -- -- -- -- -- -- -- --
01E0:                5B 12 80  F8 FF FF 7F F8 FF FF 7F       [..........
01F0: 6B 69 6E 30 00                                    kin0.           
```

#### Opcodes

```
  0: 0x01E5 [0x5B] LOAD_EXT_SCHEDULER: Load scheduler "kin0" with entities [EventEntity, EventEntity], work=2752*
  1: 0x01F4 [0x00] END_REQSTACK()
```

### Event 65535.32

#### Metadata

| Field        | Value    |
|--------------|----------|
| Entrypoint   | 0x01F5   |
| Data Size    | 18 bytes |
| Instructions | 2        |

```
      00 01 02 03 04 05 06 07  08 09 0A 0B 0C 0D 0E 0F
      -- -- -- -- -- -- -- --  -- -- -- -- -- -- -- --
01F0:                C5 13 80  F8 FF FF 7F F8 FF FF 7F       ...........
0200: 6D 61 69 6E 03 80 00                              main...         
```

#### Opcodes

```
  0: 0x01F5 [0xC5] LOAD_SCHEDULED_TASK_ALT3: Load scheduler 0x80036E69 for entities [EventEntity, EventEntity], work=124*, param=24941
  1: 0x0206 [0x00] END_REQSTACK()
```
