# 17776779

## Common Data

| Field            | Value                 |
|------------------|-----------------------|
| Zone             | Upper Jeuno (ID: 244) |
| Block Size       | 5640 bytes            |
| Total Events     | 5                     |
| References Count | 108                   |

## List of Events

| Event ID              | Entrypoint   |   Size |   Instructions |
|-----------------------|--------------|--------|----------------|
| [65535](#event-65535) | 0x0000       |      1 |              1 |
| [129](#event-129)     | 0x0001       |   1837 |            252 |
| [84](#event-84)       | 0x072E       |    802 |            150 |
| [204](#event-204)     | 0x0A50       |   1329 |            221 |
| [205](#event-205)     | 0x0F81       |   1201 |            143 |

## DAT References (imed_data)

|   Index | Hex Value   |   Dec Value |
|---------|-------------|-------------|
|       0 | 0x0013      |          19 |
|       1 | 0x01C0      |         448 |
|       2 | 0x007F      |         127 |
|       3 | 0x0055      |          85 |
|       4 | 0x0000      |           0 |
|       5 | 0x2246      |        8774 |
|       6 | 0x2247      |        8775 |
|       7 | 0x2248      |        8776 |
|       8 | 0x0003      |           3 |
|       9 | 0x0004      |           4 |
|      10 | 0x0005      |           5 |
|      11 | 0x0006      |           6 |
|      12 | 0x0007      |           7 |
|      13 | 0x0008      |           8 |
|      14 | 0x2249      |        8777 |
|      15 | 0x224A      |        8778 |
|      16 | 0x224B      |        8779 |
|      17 | 0x003C      |          60 |
|      18 | 0x224C      |        8780 |
|      19 | 0x0001      |           1 |
|      20 | 0x224D      |        8781 |
|      21 | 0x0078      |         120 |
|      22 | 0x00C8      |         200 |
|      23 | 0x043E      |        1086 |
|      24 | 0x224E      |        8782 |
|      25 | 0x224F      |        8783 |
|      26 | 0x2250      |        8784 |
|      27 | 0x2251      |        8785 |
|      28 | 0x2252      |        8786 |
|      29 | 0x2253      |        8787 |
|      30 | 0x021F      |         543 |
|      31 | 0x0064      |         100 |
|      32 | 0x2254      |        8788 |
|      33 | 0x2255      |        8789 |
|      34 | 0x2256      |        8790 |
|      35 | 0x000A      |          10 |
|      36 | 0x2257      |        8791 |
|      37 | 0x2258      |        8792 |
|      38 | 0x00F4      |         244 |
|      39 | 0x001E      |          30 |
|      40 | 0x2259      |        8793 |
|      41 | 0x225A      |        8794 |
|      42 | 0x225B      |        8795 |
|      43 | 0x225C      |        8796 |
|      44 | 0x225D      |        8797 |
|      45 | 0x225E      |        8798 |
|      46 | 0x225F      |        8799 |
|      47 | 0x2260      |        8800 |
|      48 | 0x2261      |        8801 |
|      49 | 0x2262      |        8802 |
|      50 | 0x2263      |        8803 |
|      51 | 0x2264      |        8804 |
|      52 | 0x2265      |        8805 |
|      53 | 0x2266      |        8806 |
|      54 | 0x2267      |        8807 |
|      55 | 0x0032      |          50 |
|      56 | 0x2268      |        8808 |
|      57 | 0x2269      |        8809 |
|      58 | 0x226A      |        8810 |
|      59 | 0x226B      |        8811 |
|      60 | 0x0C0D      |        3085 |
|      61 | 0x226C      |        8812 |
|      62 | 0x226D      |        8813 |
|      63 | 0x006E      |         110 |
|      64 | 0x00EA      |         234 |
|      65 | 0x00EE      |         238 |
|      66 | 0x22B1      |        8881 |
|      67 | 0x22B2      |        8882 |
|      68 | 0x22B3      |        8883 |
|      69 | 0x0063      |          99 |
|      70 | 0x002D      |          45 |
|      71 | 0x22B7      |        8887 |
|      72 | 0x22B4      |        8884 |
|      73 | 0x22B9      |        8889 |
|      74 | 0x22B5      |        8885 |
|      75 | 0x22B6      |        8886 |
|      76 | 0x22BA      |        8890 |
|      77 | 0x22B8      |        8888 |
|      78 | 0x0002      |           2 |
|      79 | 0x0041      |          65 |
|      80 | 0x2E04      |       11780 |
|      81 | 0x2E05      |       11781 |
|      82 | 0x2E06      |       11782 |
|      83 | 0x2E07      |       11783 |
|      84 | 0x0016      |          22 |
|      85 | 0x2E08      |       11784 |
|      86 | 0x2E09      |       11785 |
|      87 | 0x2E0A      |       11786 |
|      88 | 0x2E0B      |       11787 |
|      89 | 0x2E0C      |       11788 |
|      90 | 0x2E0D      |       11789 |
|      91 | 0x2E0E      |       11790 |
|      92 | 0x001D      |          29 |
|      93 | 0x2E0F      |       11791 |
|      94 | 0x2E10      |       11792 |
|      95 | 0x00DE      |         222 |
|      96 | 0x2E11      |       11793 |
|      97 | 0x2E12      |       11794 |
|      98 | 0x2E13      |       11795 |
|      99 | 0x2E14      |       11796 |
|     100 | 0x2E15      |       11797 |
|     101 | 0x0023      |          35 |
|     102 | 0x2E16      |       11798 |
|     103 | 0x2E17      |       11799 |
|     104 | 0x2E18      |       11800 |
|     105 | 0x2E19      |       11801 |
|     106 | 0x00C9      |         201 |
|     107 | 0x00D7      |         215 |

## String References

- **8779**: Has the keeper been defeated? [Completely./Who can say?]
- **8884**: Which do you choose? [Let me think about it./$0./$1./$2.]
- **8886**: Do you choose the $0? [Yes./I've changed my mind.]
- **11790**: What's your poison? [I-I'm not ready.../Choose a ring.]

## Events

### Event 65535

#### Metadata

| Field        | Value   |
|--------------|---------|
| Entrypoint   | 0x0000  |
| Data Size    | 1 bytes |
| Instructions | 1       |

```
      00 01 02 03 04 05 06 07  08 09 0A 0B 0C 0D 0E 0F
      -- -- -- -- -- -- -- --  -- -- -- -- -- -- -- --
0000: 00                                                .               
```

#### Opcodes

```
  0: 0x0000 [0x00] END_REQSTACK()
```

### Event 129

#### Metadata

| Field        | Value      |
|--------------|------------|
| Entrypoint   | 0x0001     |
| Data Size    | 1837 bytes |
| Instructions | 252        |

```
      00 01 02 03 04 05 06 07  08 09 0A 0B 0C 0D 0E 0F
      -- -- -- -- -- -- -- --  -- -- -- -- -- -- -- --
0000:    42 03 00 00 09 10 1A  04 12 46 01 38 00 80 79   B........F.8..y
0010: 00 F0 FF FF 7F F0 FF FF  7F 79 00 83 40 0F 01 F0  .........y..@...
0020: FF FF 7F 75 00 01 80 75  01 92 01 83 40 0F 01 92  ...u...u....@...
0030: 01 24 40 0F 01 92 01 25  40 0F 01 4E 00 83 40 0F  .$@....%@..N..@.
0040: 01 94 01 F0 FF FF 7F 94  01 83 40 0F 01 80 F0 FF  ..........@.....
0050: FF 7F 80 83 40 0F 01 5C  00 02 80 5C 01 02 80 9A  ....@..\...\....
0060: 27 10 F0 FF FF 7F 03 45  03 80 F0 FF FF 7F F0 FF  '......E........
0070: FF 7F 77 30 30 30 04 80  1A E3 11 55 03 80 F0 FF  ..w000.....U....
0080: FF 7F F0 FF FF 7F 77 30  30 30 45 03 80 F0 FF FF  ......w000E.....
0090: 7F F0 FF FF 7F 77 30 30  31 04 80 2B 83 40 0F 01  .....w001..+.@..
00A0: 05 80 23 2B 83 40 0F 01  06 80 23 2B 83 40 0F 01  ..#+.@....#+.@..
00B0: 07 80 23 55 03 80 F0 FF  FF 7F F0 FF FF 7F 77 30  ..#U..........w0
00C0: 30 31 02 20 10 08 80 80  DE 00 45 03 80 F0 FF FF  01. ......E.....
00D0: 7F F0 FF FF 7F 77 30 30  36 04 80 01 7B 01 02 20  .....w006...{.. 
00E0: 10 09 80 80 FA 00 45 03  80 F0 FF FF 7F F0 FF FF  ......E.........
00F0: 7F 77 30 30 36 04 80 01  7B 01 02 20 10 0A 80 80  .w006...{.. ....
0100: 16 01 45 03 80 F0 FF FF  7F F0 FF FF 7F 77 30 30  ..E..........w00
0110: 33 04 80 01 7B 01 02 20  10 0B 80 80 32 01 45 03  3...{.. ....2.E.
0120: 80 F0 FF FF 7F F0 FF FF  7F 77 30 30 33 04 80 01  .........w003...
0130: 7B 01 02 20 10 0C 80 80  4E 01 45 03 80 F0 FF FF  {.. ....N.E.....
0140: 7F F0 FF FF 7F 77 30 30  34 04 80 01 7B 01 02 20  .....w004...{.. 
0150: 10 0D 80 80 6A 01 45 03  80 F0 FF FF 7F F0 FF FF  ....j.E.........
0160: 7F 77 30 30 35 04 80 01  7B 01 45 03 80 F0 FF FF  .w005...{.E.....
0170: 7F F0 FF FF 7F 77 30 30  32 04 80 2B 83 40 0F 01  .....w002..+.@..
0180: 0E 80 23 2B 83 40 0F 01  0F 80 23 24 10 80 04 80  ..#+.@....#$....
0190: 04 80 25 02 00 10 04 80  00 C6 01 6E F0 FF FF 7F  ..%........n....
01A0: 0C 80 99 F0 FF FF 7F 1C  11 80 45 03 80 F0 FF FF  ..........E.....
01B0: 7F F0 FF FF 7F 77 30 30  37 04 80 2B 83 40 0F 01  .....w007..+.@..
01C0: 12 80 23 01 F1 01 02 00  10 13 80 00 F1 01 6E F0  ..#...........n.
01D0: FF FF 7F 0B 80 99 F0 FF  FF 7F 1C 11 80 45 03 80  .............E..
01E0: F0 FF FF 7F F0 FF FF 7F  77 30 30 37 04 80 01 F1  ........w007....
01F0: 01 2B 83 40 0F 01 14 80  23 55 03 80 F0 FF FF 7F  .+.@....#U......
0200: F0 FF FF 7F 77 30 30 37  1A 04 12 7B 83 40 0F 01  ....w007...{.@..
0210: 1C 15 80 45 03 80 F0 FF  FF 7F F0 FF FF 7F 77 30  ...E..........w0
0220: 30 38 04 80 45 16 80 F0  FF FF 7F F0 FF FF 7F 66  08..E..........f
0230: 64 69 32 04 80 55 16 80  F0 FF FF 7F F0 FF FF 7F  di2..U..........
0240: 66 64 69 32 4B 83 40 0F  01 17 80 6F 76 83 40 0F  fdi2K.@....ov.@.
0250: 01 2B 83 40 0F 01 18 80  23 55 03 80 F0 FF FF 7F  .+.@....#U......
0260: F0 FF FF 7F 77 30 30 38  27 03 83 40 0F 01 07 2B  ....w008'..@...+
0270: 83 40 0F 01 19 80 23 2B  83 40 0F 01 1A 80 23 45  .@....#+.@....#E
0280: 03 80 F0 FF FF 7F F0 FF  FF 7F 77 30 30 39 04 80  ..........w009..
0290: 2B 83 40 0F 01 1B 80 23  2B 83 40 0F 01 1C 80 23  +.@....#+.@....#
02A0: 27 03 83 40 0F 01 09 29  04 83 40 0F 01 0A 2B 83  '..@...)..@...+.
02B0: 40 0F 01 1D 80 23 55 03  80 F0 FF FF 7F F0 FF FF  @....#U.........
02C0: 7F 77 30 30 39 45 16 80  F0 FF FF 7F F0 FF FF 7F  .w009E..........
02D0: 66 64 6F 32 04 80 55 16  80 F0 FF FF 7F F0 FF FF  fdo2..U.........
02E0: 7F 66 64 6F 32 4E 01 83  40 0F 01 4E 01 F0 FF FF  .fdo2N..@..N....
02F0: 7F 4E 00 92 40 0F 01 4E  00 91 40 0F 01 27 03 92  .N..@..N..@..'..
0300: 40 0F 01 01 27 03 91 40  0F 01 01 27 03 83 40 0F  @...'..@...'..@.
0310: 01 01 27 03 F0 FF FF 7F  04 34 1E 80 1C 1F 80 77  ..'......4.....w
0320: 04 80 04 80 45 03 80 F0  FF FF 7F F0 FF FF 7F 74  ....E..........t
0330: 30 30 30 04 80 45 16 80  F0 FF FF 7F F0 FF FF 7F  000..E..........
0340: 66 64 69 32 04 80 55 16  80 F0 FF FF 7F F0 FF FF  fdi2..U.........
0350: 7F 66 64 69 32 2B 83 40  0F 01 20 80 23 55 03 80  .fdi2+.@.. .#U..
0360: F0 FF FF 7F F0 FF FF 7F  74 30 30 30 45 16 80 F8  ........t000E...
0370: FF FF 7F F8 FF FF 7F 6F  76 6C 31 04 80 45 03 80  .......ovl1..E..
0380: F0 FF FF 7F F0 FF FF 7F  74 30 30 31 04 80 2B 83  ........t001..+.
0390: 40 0F 01 21 80 23 55 03  80 F0 FF FF 7F F0 FF FF  @..!.#U.........
03A0: 7F 74 30 30 31 45 03 80  F0 FF FF 7F F0 FF FF 7F  .t001E..........
03B0: 74 30 30 32 04 80 27 03  92 40 0F 01 02 2B 83 40  t002..'..@...+.@
03C0: 0F 01 22 80 23 27 03 92  40 0F 01 03 1C 23 80 27  ..".#'..@....#.'
03D0: 03 91 40 0F 01 02 52 03  80 F0 FF FF 7F F0 FF FF  ..@...R.........
03E0: 7F 74 30 30 32 45 16 80  F8 FF FF 7F F8 FF FF 7F  .t002E..........
03F0: 6F 76 6C 31 04 80 45 03  80 F0 FF FF 7F F0 FF FF  ovl1..E.........
0400: 7F 74 30 30 33 04 80 2B  83 40 0F 01 24 80 23 2B  .t003..+.@..$.#+
0410: 83 40 0F 01 25 80 23 45  16 80 F0 FF FF 7F F0 FF  .@..%.#E........
0420: FF 7F 66 64 6F 32 04 80  55 16 80 F0 FF FF 7F F0  ..fdo2..U.......
0430: FF FF 7F 66 64 6F 32 52  03 80 F0 FF FF 7F F0 FF  ...fdo2R........
0440: FF 7F 74 30 30 33 2A 03  91 40 0F 01 4E 00 83 40  ..t003*..@..N..@
0450: 0F 01 4E 00 F0 FF FF 7F  35 26 80 1C 1F 80 78 75  ..N.....5&....xu
0460: 00 01 80 75 01 80 83 40  0F 01 80 F0 FF FF 7F 27  ...u...@.......'
0470: 03 83 40 0F 01 02 27 03  F0 FF FF 7F 05 45 03 80  ..@...'......E..
0480: F0 FF FF 7F F0 FF FF 7F  76 30 30 30 04 80 45 16  ........v000..E.
0490: 80 F0 FF FF 7F F0 FF FF  7F 66 64 69 32 04 80 55  .........fdi2..U
04A0: 16 80 F0 FF FF 7F F0 FF  FF 7F 66 64 69 32 79 00  ..........fdi2y.
04B0: 83 40 0F 01 F0 FF FF 7F  1C 27 80 2B 83 40 0F 01  .@.......'.+.@..
04C0: 28 80 23 2B 83 40 0F 01  29 80 23 2B 83 40 0F 01  (.#+.@..).#+.@..
04D0: 2A 80 23 55 03 80 F0 FF  FF 7F F0 FF FF 7F 76 30  *.#U..........v0
04E0: 30 30 45 03 80 F0 FF FF  7F F0 FF FF 7F 76 30 30  00E..........v00
04F0: 31 04 80 2B 83 40 0F 01  2B 80 23 2B 83 40 0F 01  1..+.@..+.#+.@..
0500: 2C 80 23 55 03 80 F0 FF  FF 7F F0 FF FF 7F 76 30  ,.#U..........v0
0510: 30 31 45 03 80 F0 FF FF  7F F0 FF FF 7F 76 30 30  01E..........v00
0520: 32 04 80 2B 83 40 0F 01  2D 80 1C 27 80 7B 83 40  2..+.@..-..'.{.@
0530: 0F 01 23 2B 83 40 0F 01  2E 80 23 55 03 80 F0 FF  ..#+.@....#U....
0540: FF 7F F0 FF FF 7F 76 30  30 32 45 16 80 F8 FF FF  ......v002E.....
0550: 7F F8 FF FF 7F 6F 76 6C  31 04 80 45 03 80 F0 FF  .....ovl1..E....
0560: FF 7F F0 FF FF 7F 76 30  30 33 04 80 02 00 00 04  ......v003......
0570: 80 00 8F 05 2B 83 40 0F  01 2F 80 23 2B 83 40 0F  ....+.@../.#+.@.
0580: 01 30 80 23 2B 83 40 0F  01 31 80 23 01 A7 05 2B  .0.#+.@..1.#...+
0590: 83 40 0F 01 32 80 23 2B  83 40 0F 01 33 80 23 2B  .@..2.#+.@..3.#+
05A0: 83 40 0F 01 34 80 23 27  03 83 40 0F 01 14 1C 23  .@..4.#'..@....#
05B0: 80 52 03 80 F0 FF FF 7F  F0 FF FF 7F 76 30 30 33  .R..........v003
05C0: 45 16 80 F8 FF FF 7F F8  FF FF 7F 6F 76 6C 31 04  E..........ovl1.
05D0: 80 45 03 80 F0 FF FF 7F  F0 FF FF 7F 76 30 30 34  .E..........v004
05E0: 04 80 2A 03 83 40 0F 01  2B 83 40 0F 01 35 80 23  ..*..@..+.@..5.#
05F0: 55 03 80 F0 FF FF 7F F0  FF FF 7F 76 30 30 34 45  U..........v004E
0600: 16 80 F8 FF FF 7F F8 FF  FF 7F 6F 76 6C 31 04 80  ..........ovl1..
0610: 45 03 80 F0 FF FF 7F F0  FF FF 7F 76 30 30 35 04  E..........v005.
0620: 80 1C 27 80 2B 83 40 0F  01 36 80 23 55 03 80 F0  ..'.+.@..6.#U...
0630: FF FF 7F F0 FF FF 7F 76  30 30 35 27 03 83 40 0F  .......v005'..@.
0640: 01 15 1C 37 80 45 03 80  F0 FF FF 7F F0 FF FF 7F  ...7.E..........
0650: 76 30 30 36 04 80 4A F0  FF FF 7F 83 40 0F 01 2A  v006..J.....@..*
0660: 03 83 40 0F 01 4A F0 FF  FF 7F 83 40 0F 01 2B 83  ..@..J.....@..+.
0670: 40 0F 01 38 80 23 2B 83  40 0F 01 39 80 23 2B 83  @..8.#+.@..9.#+.
0680: 40 0F 01 3A 80 23 55 03  80 F0 FF FF 7F F0 FF FF  @..:.#U.........
0690: 7F 76 30 30 36 27 03 83  40 0F 01 16 1C 27 80 45  .v006'..@....'.E
06A0: 03 80 F0 FF FF 7F F0 FF  FF 7F 76 30 30 37 04 80  ..........v007..
06B0: 2A 03 83 40 0F 01 4A F0  FF FF 7F 83 40 0F 01 2B  *..@..J.....@..+
06C0: 83 40 0F 01 3B 80 23 55  03 80 F0 FF FF 7F F0 FF  .@..;.#U........
06D0: FF 7F 76 30 30 37 79 00  83 40 0F 01 F0 FF FF 7F  ..v007y..@......
06E0: 4B 83 40 0F 01 3C 80 1C  23 80 6F 76 83 40 0F 01  K.@..<..#.ov.@..
06F0: 2B 83 40 0F 01 3D 80 23  2B 83 40 0F 01 3E 80 23  +.@..=.#+.@..>.#
0700: 27 03 83 40 0F 01 17 1C  11 80 1A 04 12 1C 27 80  '..@..........'.
0710: 5C 00 3F 80 5C 01 3F 80  9A 46 00 45 16 80 F0 FF  \.?.\.?..F.E....
0720: FF 7F F0 FF FF 7F 66 64  69 32 04 80 21 00        ......fdi2..!.  
```

#### Opcodes

```
  0: 0x0001 [0x42] SET_CLI_EVENT_CANCEL_DATA()
  1: 0x0002 [0x03] ExtData[1]->WorkLocal[0] = Work_Zone[9]
  2: 0x0007 [0x1A] CALL_SUBROUTINE(address=0x1204)
  3: 0x000A [0x46] CAMERA_CONTROL: Disable user control
  4: 0x000C [0x38] SET_CLIENT_EVENT_MODE(mode=19*)
  5: 0x000F [0x79] LocalPlayer looks at LocalPlayer (Basic look)
  6: 0x0019 [0x79] Mildaurion (ID: 17776771/0x010F4083) looks at LocalPlayer (Basic look)
  7: 0x0023 [0x75] LOAD_ROOM(Load indoor room, room=448*)
  8: 0x0027 [0x75] LOAD_ROOM(No action)
  9: 0x0029 [0x92] Mildaurion (ID: 17776771/0x010F4083)->Render.Flags3 ^= 0x01
 10: 0x002F [0x92] Zuber (ID: 17776676/0x010F4024)->Render.Flags3 ^= 0x01
 11: 0x0035 [0x92] Glyke (ID: 17776677/0x010F4025)->Render.Flags3 ^= 0x01
 12: 0x003B [0x4E] SET_ENTITY_HIDE_FLAG: Show Mildaurion (ID: 17776771/0x010F4083)
 13: 0x0041 [0x94] LocalPlayer->Render.Flags3 ^= 0x01
 14: 0x0047 [0x94] Mildaurion (ID: 17776771/0x010F4083)->Render.Flags3 ^= 0x01
 15: 0x004D [0x80] LOAD_WAIT(entity=LocalPlayer)
 16: 0x0052 [0x80] LOAD_WAIT(entity=Mildaurion (ID: 17776771/0x010F4083))
 17: 0x0057 [0x5C] MUSIC_CONTROL: Set Idle (Day) music to song 127*
 18: 0x005B [0x5C] MUSIC_CONTROL: Set Idle (Night) music to song 127*
 19: 0x005F [0x9A] WAIT_MUSIC_SERVER()
 20: 0x0060 [0x27] REQ_SET(priority=0x10, entity_id=LocalPlayer, tag_num=0x03)
 21: 0x0067 [0x45] LOAD_SCHEDULED_TASK: Load scheduler "w000" with entities [LocalPlayer, LocalPlayer], work=[85*, 0*]
 22: 0x0078 [0x1A] CALL_SUBROUTINE(address=0x11E3)
 23: 0x007B [0x55] WAIT_LOAD_SCHEDULER: Wait for scheduler "w000" with entities [LocalPlayer, LocalPlayer], work=85*
 24: 0x008A [0x45] LOAD_SCHEDULED_TASK: Load scheduler "w001" with entities [LocalPlayer, LocalPlayer], work=[85*, 0*]
 25: 0x009B [0x2B] Mildaurion (ID: 17776771/0x010F4083) [8774*]:
    → "I have awaited your return, <Player>. You must tell me all that has happened."
 26: 0x00A2 [0x23] WAIT_FOR_DIALOG_INTERACTION
 27: 0x00A3 [0x2B] Mildaurion (ID: 17776771/0x010F4083) [8775*]:
    → "After clashing with our army several times, the dragons suddenly broke off their attack and disappeared into the distant clouds."
 28: 0x00AA [0x23] WAIT_FOR_DIALOG_INTERACTION
 29: 0x00AB [0x2B] Mildaurion (ID: 17776771/0x010F4083) [8776*]:
    → "There were voices raised in support of hunting the wyrms into extinction, but for the moment we have returned to resupply and reconsider our position."
 30: 0x00B2 [0x23] WAIT_FOR_DIALOG_INTERACTION
 31: 0x00B3 [0x55] WAIT_LOAD_SCHEDULER: Wait for scheduler "w001" with entities [LocalPlayer, LocalPlayer], work=85*
 32: 0x00C2 [0x02] IF !(Work_Zone[32] == 3*) GOTO 0x00DE
 33: 0x00CA [0x45] LOAD_SCHEDULED_TASK: Load scheduler "w006" with entities [LocalPlayer, LocalPlayer], work=[85*, 0*]
 34: 0x00DB [0x01] GOTO 0x017B
 35: 0x00DE [0x02] IF !(Work_Zone[32] == 4*) GOTO 0x00FA
 36: 0x00E6 [0x45] LOAD_SCHEDULED_TASK: Load scheduler "w006" with entities [LocalPlayer, LocalPlayer], work=[85*, 0*]
 37: 0x00F7 [0x01] GOTO 0x017B
 38: 0x00FA [0x02] IF !(Work_Zone[32] == 5*) GOTO 0x0116
 39: 0x0102 [0x45] LOAD_SCHEDULED_TASK: Load scheduler "w003" with entities [LocalPlayer, LocalPlayer], work=[85*, 0*]
 40: 0x0113 [0x01] GOTO 0x017B
 41: 0x0116 [0x02] IF !(Work_Zone[32] == 6*) GOTO 0x0132
 42: 0x011E [0x45] LOAD_SCHEDULED_TASK: Load scheduler "w003" with entities [LocalPlayer, LocalPlayer], work=[85*, 0*]
 43: 0x012F [0x01] GOTO 0x017B
 44: 0x0132 [0x02] IF !(Work_Zone[32] == 7*) GOTO 0x014E
 45: 0x013A [0x45] LOAD_SCHEDULED_TASK: Load scheduler "w004" with entities [LocalPlayer, LocalPlayer], work=[85*, 0*]
 46: 0x014B [0x01] GOTO 0x017B
 47: 0x014E [0x02] IF !(Work_Zone[32] == 8*) GOTO 0x016A
 48: 0x0156 [0x45] LOAD_SCHEDULED_TASK: Load scheduler "w005" with entities [LocalPlayer, LocalPlayer], work=[85*, 0*]
 49: 0x0167 [0x01] GOTO 0x017B
 50: 0x016A [0x45] LOAD_SCHEDULED_TASK: Load scheduler "w002" with entities [LocalPlayer, LocalPlayer], work=[85*, 0*]

SUBROUTINE_017B:
 51: 0x017B [0x2B] Mildaurion (ID: 17776771/0x010F4083) [8777*]:
    → "Now that you are here, I can finally be certain."
 52: 0x0182 [0x23] WAIT_FOR_DIALOG_INTERACTION
 53: 0x0183 [0x2B] Mildaurion (ID: 17776771/0x010F4083) [8778*]:
    → "Am I to assume from your jubilant features that the Keeper of the Apocalypse has been defeated?"
 54: 0x018A [0x23] WAIT_FOR_DIALOG_INTERACTION
 55: 0x018B [0x24] CREATE_DIALOG(message_id=8779*, default_option=0*, option_flags=0*)
    → "Has the keeper been defeated? [Completely./Who can say?]"
 56: 0x0192 [0x25] WAIT_DIALOG_SELECT()
 57: 0x0193 [0x02] IF !(Work_Zone[0] == 0*) GOTO 0x01C6
 58: 0x019B [0x6E] LocalPlayer uses emote 7*
 59: 0x01A2 [0x99] Wait for LocalPlayer animation to complete
 60: 0x01A7 [0x1C] WAIT(60* ticks)
 61: 0x01AA [0x45] LOAD_SCHEDULED_TASK: Load scheduler "w007" with entities [LocalPlayer, LocalPlayer], work=[85*, 0*]
 62: 0x01BB [0x2B] Mildaurion (ID: 17776771/0x010F4083) [8780*]:
    → "I knew it! Bahamut sensed the keeper's downfall and pulled his forces out of battle..."
 63: 0x01C2 [0x23] WAIT_FOR_DIALOG_INTERACTION
 64: 0x01C3 [0x01] GOTO 0x01F1
 65: 0x01C6 [0x02] IF !(Work_Zone[0] == 1*) GOTO 0x01F1
 66: 0x01CE [0x6E] LocalPlayer uses emote 6*
 67: 0x01D5 [0x99] Wait for LocalPlayer animation to complete
 68: 0x01DA [0x1C] WAIT(60* ticks)
 69: 0x01DD [0x45] LOAD_SCHEDULED_TASK: Load scheduler "w007" with entities [LocalPlayer, LocalPlayer], work=[85*, 0*]
 70: 0x01EE [0x01] GOTO 0x01F1

SUBROUTINE_01F1:
 71: 0x01F1 [0x2B] Mildaurion (ID: 17776771/0x010F4083) [8781*]:
    → "Tell me. What momentous events transpired in the Celestial Capital?"
 72: 0x01F8 [0x23] WAIT_FOR_DIALOG_INTERACTION
 73: 0x01F9 [0x55] WAIT_LOAD_SCHEDULER: Wait for scheduler "w007" with entities [LocalPlayer, LocalPlayer], work=85*
 74: 0x0208 [0x1A] CALL_SUBROUTINE(address=0x1204)
 75: 0x020B [0x7B] Mildaurion (ID: 17776771/0x010F4083) stops talking
 76: 0x0210 [0x1C] WAIT(120* ticks)
 77: 0x0213 [0x45] LOAD_SCHEDULED_TASK: Load scheduler "w008" with entities [LocalPlayer, LocalPlayer], work=[85*, 0*]
 78: 0x0224 [0x45] LOAD_SCHEDULED_TASK: Load scheduler "fdi2" with entities [LocalPlayer, LocalPlayer], work=[200*, 0*]
 79: 0x0235 [0x55] WAIT_LOAD_SCHEDULER: Wait for scheduler "fdi2" with entities [LocalPlayer, LocalPlayer], work=200*
 80: 0x0244 [0x4B] UPDATE_ENTITY_YAW(entity=Mildaurion (ID: 17776771/0x010F4083), yaw=6.0°*)
 81: 0x024B [0x6F] WAIT_FRAME_DELAY: Yield until WaitTime reaches zero
 82: 0x024C [0x76] CHECK_ENTITY_RENDER_FLAGS: Wait until Mildaurion (ID: 17776771/0x010F4083) Render.Flags0 and Render.Flags3 conditions are met
 83: 0x0251 [0x2B] Mildaurion (ID: 17776771/0x010F4083) [8782*]:
    → "On Cape Riverne, the images that flowed into me from Selh'teus..."
 84: 0x0258 [0x23] WAIT_FOR_DIALOG_INTERACTION
 85: 0x0259 [0x55] WAIT_LOAD_SCHEDULER: Wait for scheduler "w008" with entities [LocalPlayer, LocalPlayer], work=85*
 86: 0x0268 [0x27] REQ_SET(priority=0x03, entity_id=Mildaurion (ID: 17776771/0x010F4083), tag_num=0x07)
 87: 0x026F [0x2B] Mildaurion (ID: 17776771/0x010F4083) [8783*]:
    → "They were of the incomplete Paradise, Al'Taieu..."
 88: 0x0276 [0x23] WAIT_FOR_DIALOG_INTERACTION
 89: 0x0277 [0x2B] Mildaurion (ID: 17776771/0x010F4083) [8784*]:
    → "The people of Al'Taieu returned to their deity ten thousand years ago. Returned to Promathia..."
 90: 0x027E [0x23] WAIT_FOR_DIALOG_INTERACTION
 91: 0x027F [0x45] LOAD_SCHEDULED_TASK: Load scheduler "w009" with entities [LocalPlayer, LocalPlayer], work=[85*, 0*]
 92: 0x0290 [0x2B] Mildaurion (ID: 17776771/0x010F4083) [8785*]:
    → ""Opening the Gates of Paradise" is a metaphor for restoring the shattered mothercrystal. A way to return the world to its original state."
 93: 0x0297 [0x23] WAIT_FOR_DIALOG_INTERACTION
 94: 0x0298 [0x2B] Mildaurion (ID: 17776771/0x010F4083) [8786*]:
    → "The world becomes a paradise, and its people ascend to godhood. The Dawnmaiden Yve'noile has memories of witnessing the true form of the great goddess Altana."
 95: 0x029F [0x23] WAIT_FOR_DIALOG_INTERACTION
 96: 0x02A0 [0x27] REQ_SET(priority=0x03, entity_id=Mildaurion (ID: 17776771/0x010F4083), tag_num=0x09)
 97: 0x02A7 [0x29] REQ_SET_WAIT(priority=0x04, entity_id=Mildaurion (ID: 17776771/0x010F4083), tag_num=0x0A)
 98: 0x02AE [0x2B] Mildaurion (ID: 17776771/0x010F4083) [8787*]:
    → "Yve'noile spoke to me before we parted ways."
 99: 0x02B5 [0x23] WAIT_FOR_DIALOG_INTERACTION
100: 0x02B6 [0x55] WAIT_LOAD_SCHEDULER: Wait for scheduler "w009" with entities [LocalPlayer, LocalPlayer], work=85*
101: 0x02C5 [0x45] LOAD_SCHEDULED_TASK: Load scheduler "fdo2" with entities [LocalPlayer, LocalPlayer], work=[200*, 0*]
102: 0x02D6 [0x55] WAIT_LOAD_SCHEDULER: Wait for scheduler "fdo2" with entities [LocalPlayer, LocalPlayer], work=200*
103: 0x02E5 [0x4E] SET_ENTITY_HIDE_FLAG: Hide Mildaurion (ID: 17776771/0x010F4083)
104: 0x02EB [0x4E] SET_ENTITY_HIDE_FLAG: Hide LocalPlayer
105: 0x02F1 [0x4E] SET_ENTITY_HIDE_FLAG: Show Yve'noile (ID: 17776786/0x010F4092)
106: 0x02F7 [0x4E] SET_ENTITY_HIDE_FLAG: Show Esha'ntarl (ID: 17776785/0x010F4091)
107: 0x02FD [0x27] REQ_SET(priority=0x03, entity_id=Yve'noile (ID: 17776786/0x010F4092), tag_num=0x01)
108: 0x0304 [0x27] REQ_SET(priority=0x03, entity_id=Esha'ntarl (ID: 17776785/0x010F4091), tag_num=0x01)
109: 0x030B [0x27] REQ_SET(priority=0x03, entity_id=Mildaurion (ID: 17776771/0x010F4083), tag_num=0x01)
110: 0x0312 [0x27] REQ_SET(priority=0x03, entity_id=LocalPlayer, tag_num=0x04)
111: 0x0319 [0x34] LOAD_UNLOAD_ZONE(zone_id=543*)
112: 0x031C [0x1C] WAIT(100* ticks)
113: 0x031F [0x77] SET_EVENT_TIME_WEATHER(hour=0*, weather=0*)
114: 0x0324 [0x45] LOAD_SCHEDULED_TASK: Load scheduler "t000" with entities [LocalPlayer, LocalPlayer], work=[85*, 0*]
115: 0x0335 [0x45] LOAD_SCHEDULED_TASK: Load scheduler "fdi2" with entities [LocalPlayer, LocalPlayer], work=[200*, 0*]
116: 0x0346 [0x55] WAIT_LOAD_SCHEDULER: Wait for scheduler "fdi2" with entities [LocalPlayer, LocalPlayer], work=200*
117: 0x0355 [0x2B] Mildaurion (ID: 17776771/0x010F4083) [8788*]:
    → "She said, "As I gazed upon her perfection, I realized I could not be a part of her. I wondered who I could possibly be.""
118: 0x035C [0x23] WAIT_FOR_DIALOG_INTERACTION
119: 0x035D [0x55] WAIT_LOAD_SCHEDULER: Wait for scheduler "t000" with entities [LocalPlayer, LocalPlayer], work=85*
120: 0x036C [0x45] LOAD_SCHEDULED_TASK: Load scheduler "ovl1" with entities [EventEntity, EventEntity], work=[200*, 0*]
121: 0x037D [0x45] LOAD_SCHEDULED_TASK: Load scheduler "t001" with entities [LocalPlayer, LocalPlayer], work=[85*, 0*]
122: 0x038E [0x2B] Mildaurion (ID: 17776771/0x010F4083) [8789*]:
    → "That was when she began her research into the race of people."
123: 0x0395 [0x23] WAIT_FOR_DIALOG_INTERACTION
124: 0x0396 [0x55] WAIT_LOAD_SCHEDULER: Wait for scheduler "t001" with entities [LocalPlayer, LocalPlayer], work=85*
125: 0x03A5 [0x45] LOAD_SCHEDULED_TASK: Load scheduler "t002" with entities [LocalPlayer, LocalPlayer], work=[85*, 0*]
126: 0x03B6 [0x27] REQ_SET(priority=0x03, entity_id=Yve'noile (ID: 17776786/0x010F4092), tag_num=0x02)
127: 0x03BD [0x2B] Mildaurion (ID: 17776771/0x010F4083) [8790*]:
    → "After shifting her focus to the inexplicable appearance of the Kuluu phenomenon, Yve'noile became aware of the darkness that resided within us all."
128: 0x03C4 [0x23] WAIT_FOR_DIALOG_INTERACTION
129: 0x03C5 [0x27] REQ_SET(priority=0x03, entity_id=Yve'noile (ID: 17776786/0x010F4092), tag_num=0x03)
130: 0x03CC [0x1C] WAIT(10* ticks)
131: 0x03CF [0x27] REQ_SET(priority=0x03, entity_id=Esha'ntarl (ID: 17776785/0x010F4091), tag_num=0x02)
132: 0x03D6 [0x52] END_LOAD_SCHEDULER: End scheduler "t002" with entities [LocalPlayer, LocalPlayer], work=85*
133: 0x03E5 [0x45] LOAD_SCHEDULED_TASK: Load scheduler "ovl1" with entities [EventEntity, EventEntity], work=[200*, 0*]
134: 0x03F6 [0x45] LOAD_SCHEDULED_TASK: Load scheduler "t003" with entities [LocalPlayer, LocalPlayer], work=[85*, 0*]
135: 0x0407 [0x2B] Mildaurion (ID: 17776771/0x010F4083) [8791*]:
    → "Her realization led her to betray the king and his son, and adamantly oppose any plan to open the Gates of Paradise."
136: 0x040E [0x23] WAIT_FOR_DIALOG_INTERACTION
137: 0x040F [0x2B] Mildaurion (ID: 17776771/0x010F4083) [8792*]:
    → "She had discovered our origins as the children of Promathia..."
138: 0x0416 [0x23] WAIT_FOR_DIALOG_INTERACTION
139: 0x0417 [0x45] LOAD_SCHEDULED_TASK: Load scheduler "fdo2" with entities [LocalPlayer, LocalPlayer], work=[200*, 0*]
140: 0x0428 [0x55] WAIT_LOAD_SCHEDULER: Wait for scheduler "fdo2" with entities [LocalPlayer, LocalPlayer], work=200*
141: 0x0437 [0x52] END_LOAD_SCHEDULER: End scheduler "t003" with entities [LocalPlayer, LocalPlayer], work=85*
142: 0x0446 [0x2A] GET_REQ_LEVEL(level=3, entity_id=Esha'ntarl (ID: 17776785/0x010F4091))
143: 0x044C [0x4E] SET_ENTITY_HIDE_FLAG: Show Mildaurion (ID: 17776771/0x010F4083)
144: 0x0452 [0x4E] SET_ENTITY_HIDE_FLAG: Show LocalPlayer
145: 0x0458 [0x35] LOAD_ZONE_NO_CLOSE(zone_id=244*)
146: 0x045B [0x1C] WAIT(100* ticks)
147: 0x045E [0x78] ENABLE_GAME_TIMER_RESET_WEATHER()
148: 0x045F [0x75] LOAD_ROOM(Load indoor room, room=448*)
149: 0x0463 [0x75] LOAD_ROOM(No action)
150: 0x0465 [0x80] LOAD_WAIT(entity=Mildaurion (ID: 17776771/0x010F4083))
151: 0x046A [0x80] LOAD_WAIT(entity=LocalPlayer)
152: 0x046F [0x27] REQ_SET(priority=0x03, entity_id=Mildaurion (ID: 17776771/0x010F4083), tag_num=0x02)
153: 0x0476 [0x27] REQ_SET(priority=0x03, entity_id=LocalPlayer, tag_num=0x05)
154: 0x047D [0x45] LOAD_SCHEDULED_TASK: Load scheduler "v000" with entities [LocalPlayer, LocalPlayer], work=[85*, 0*]
155: 0x048E [0x45] LOAD_SCHEDULED_TASK: Load scheduler "fdi2" with entities [LocalPlayer, LocalPlayer], work=[200*, 0*]
156: 0x049F [0x55] WAIT_LOAD_SCHEDULER: Wait for scheduler "fdi2" with entities [LocalPlayer, LocalPlayer], work=200*
157: 0x04AE [0x79] Mildaurion (ID: 17776771/0x010F4083) looks at LocalPlayer (Basic look)
158: 0x04B8 [0x1C] WAIT(30* ticks)
159: 0x04BB [0x2B] Mildaurion (ID: 17776771/0x010F4083) [8793*]:
    → "But all has not been resolved."
160: 0x04C2 [0x23] WAIT_FOR_DIALOG_INTERACTION
161: 0x04C3 [0x2B] Mildaurion (ID: 17776771/0x010F4083) [8794*]:
    → "The Emptiness still seethes within the mothercrystals."
162: 0x04CA [0x23] WAIT_FOR_DIALOG_INTERACTION
163: 0x04CB [0x2B] Mildaurion (ID: 17776771/0x010F4083) [8795*]:
    → "And the surviving Zilart yet cling desperately to their shadowy plan of returning to Paradise."
164: 0x04D2 [0x23] WAIT_FOR_DIALOG_INTERACTION
165: 0x04D3 [0x55] WAIT_LOAD_SCHEDULER: Wait for scheduler "v000" with entities [LocalPlayer, LocalPlayer], work=85*
166: 0x04E2 [0x45] LOAD_SCHEDULED_TASK: Load scheduler "v001" with entities [LocalPlayer, LocalPlayer], work=[85*, 0*]
167: 0x04F3 [0x2B] Mildaurion (ID: 17776771/0x010F4083) [8796*]:
    → "I gave up my life in Tavnazia almost thirty years ago to infiltrate the organization of the newly awakened Zilart."
168: 0x04FA [0x23] WAIT_FOR_DIALOG_INTERACTION
169: 0x04FB [0x2B] Mildaurion (ID: 17776771/0x010F4083) [8797*]:
    → "But I have been unable to stem their vast power on my own."
170: 0x0502 [0x23] WAIT_FOR_DIALOG_INTERACTION
171: 0x0503 [0x55] WAIT_LOAD_SCHEDULER: Wait for scheduler "v001" with entities [LocalPlayer, LocalPlayer], work=85*
172: 0x0512 [0x45] LOAD_SCHEDULED_TASK: Load scheduler "v002" with entities [LocalPlayer, LocalPlayer], work=[85*, 0*]
173: 0x0523 [0x2B] Mildaurion (ID: 17776771/0x010F4083) [8798*]:
    → "However, we now have a common enemy in the Emptiness. For a time, the people of this age will require the aid of the ancients."
174: 0x052A [0x1C] WAIT(30* ticks)
175: 0x052D [0x7B] Mildaurion (ID: 17776771/0x010F4083) stops talking
176: 0x0532 [0x23] WAIT_FOR_DIALOG_INTERACTION
177: 0x0533 [0x2B] Mildaurion (ID: 17776771/0x010F4083) [8799*]:
    → "The ancients, too, will need your continuing help."
178: 0x053A [0x23] WAIT_FOR_DIALOG_INTERACTION
179: 0x053B [0x55] WAIT_LOAD_SCHEDULER: Wait for scheduler "v002" with entities [LocalPlayer, LocalPlayer], work=85*
180: 0x054A [0x45] LOAD_SCHEDULED_TASK: Load scheduler "ovl1" with entities [EventEntity, EventEntity], work=[200*, 0*]
181: 0x055B [0x45] LOAD_SCHEDULED_TASK: Load scheduler "v003" with entities [LocalPlayer, LocalPlayer], work=[85*, 0*]
182: 0x056C [0x02] IF !(ExtData[1]->WorkLocal[0] == 0*) GOTO 0x058F
183: 0x0574 [0x2B] Mildaurion (ID: 17776771/0x010F4083) [8800*]:
    → "Surely the Dawn Maiden has bequeathed something of value to her younger kin."
184: 0x057B [0x23] WAIT_FOR_DIALOG_INTERACTION
185: 0x057C [0x2B] Mildaurion (ID: 17776771/0x010F4083) [8801*]:
    → "I will find out what this may be, and speak with Archduke Kam'lanaut. He will heed my words."
186: 0x0583 [0x23] WAIT_FOR_DIALOG_INTERACTION
187: 0x0584 [0x2B] Mildaurion (ID: 17776771/0x010F4083) [8802*]:
    → "I shall continue to watch over the world that you and your companions have fought so valiantly to protect."
188: 0x058B [0x23] WAIT_FOR_DIALOG_INTERACTION
189: 0x058C [0x01] GOTO 0x05A7
190: 0x058F [0x2B] Mildaurion (ID: 17776771/0x010F4083) [8803*]:
    → "Now that Nag'molada is gone and the wyrms have ceased their attacks, it is time to remind the Zilart of their true responsibility:"
191: 0x0596 [0x23] WAIT_FOR_DIALOG_INTERACTION
192: 0x0597 [0x2B] Mildaurion (ID: 17776771/0x010F4083) [8804*]:
    → "The safety of the mothercrystals and the battle against the Emptiness."
193: 0x059E [0x23] WAIT_FOR_DIALOG_INTERACTION
194: 0x059F [0x2B] Mildaurion (ID: 17776771/0x010F4083) [8805*]:
    → "I will continue to monitor their actions as I watch over the world that you and your companions have fought so valiantly to protect."
195: 0x05A6 [0x23] WAIT_FOR_DIALOG_INTERACTION

SUBROUTINE_05A7:
196: 0x05A7 [0x27] REQ_SET(priority=0x03, entity_id=Mildaurion (ID: 17776771/0x010F4083), tag_num=0x14)
197: 0x05AE [0x1C] WAIT(10* ticks)
198: 0x05B1 [0x52] END_LOAD_SCHEDULER: End scheduler "v003" with entities [LocalPlayer, LocalPlayer], work=85*
199: 0x05C0 [0x45] LOAD_SCHEDULED_TASK: Load scheduler "ovl1" with entities [EventEntity, EventEntity], work=[200*, 0*]
200: 0x05D1 [0x45] LOAD_SCHEDULED_TASK: Load scheduler "v004" with entities [LocalPlayer, LocalPlayer], work=[85*, 0*]
201: 0x05E2 [0x2A] GET_REQ_LEVEL(level=3, entity_id=Mildaurion (ID: 17776771/0x010F4083))
202: 0x05E8 [0x2B] Mildaurion (ID: 17776771/0x010F4083) [8806*]:
    → "There is one thing I'd like you to keep in mind, <Player>."
203: 0x05EF [0x23] WAIT_FOR_DIALOG_INTERACTION
204: 0x05F0 [0x55] WAIT_LOAD_SCHEDULER: Wait for scheduler "v004" with entities [LocalPlayer, LocalPlayer], work=85*
205: 0x05FF [0x45] LOAD_SCHEDULED_TASK: Load scheduler "ovl1" with entities [EventEntity, EventEntity], work=[200*, 0*]
206: 0x0610 [0x45] LOAD_SCHEDULED_TASK: Load scheduler "v005" with entities [LocalPlayer, LocalPlayer], work=[85*, 0*]
207: 0x0621 [0x1C] WAIT(30* ticks)
208: 0x0624 [0x2B] Mildaurion (ID: 17776771/0x010F4083) [8807*]:
    → "You were able to save the world and her people without sacrificing one or the other."
209: 0x062B [0x23] WAIT_FOR_DIALOG_INTERACTION
210: 0x062C [0x55] WAIT_LOAD_SCHEDULER: Wait for scheduler "v005" with entities [LocalPlayer, LocalPlayer], work=85*
211: 0x063B [0x27] REQ_SET(priority=0x03, entity_id=Mildaurion (ID: 17776771/0x010F4083), tag_num=0x15)
212: 0x0642 [0x1C] WAIT(50* ticks)
213: 0x0645 [0x45] LOAD_SCHEDULED_TASK: Load scheduler "v006" with entities [LocalPlayer, LocalPlayer], work=[85*, 0*]
214: 0x0656 [0x4A] LocalPlayer looks at Mildaurion (ID: 17776771/0x010F4083)
215: 0x065F [0x2A] GET_REQ_LEVEL(level=3, entity_id=Mildaurion (ID: 17776771/0x010F4083))
216: 0x0665 [0x4A] LocalPlayer looks at Mildaurion (ID: 17776771/0x010F4083)
217: 0x066E [0x2B] Mildaurion (ID: 17776771/0x010F4083) [8808*]:
    → "But do not misunderstand."
218: 0x0675 [0x23] WAIT_FOR_DIALOG_INTERACTION
219: 0x0676 [0x2B] Mildaurion (ID: 17776771/0x010F4083) [8809*]:
    → "This possibility did not always exist."
220: 0x067D [0x23] WAIT_FOR_DIALOG_INTERACTION
221: 0x067E [0x2B] Mildaurion (ID: 17776771/0x010F4083) [8810*]:
    → "It was only with the strength and faith of many people that such a path could open before you."
222: 0x0685 [0x23] WAIT_FOR_DIALOG_INTERACTION
223: 0x0686 [0x55] WAIT_LOAD_SCHEDULER: Wait for scheduler "v006" with entities [LocalPlayer, LocalPlayer], work=85*
224: 0x0695 [0x27] REQ_SET(priority=0x03, entity_id=Mildaurion (ID: 17776771/0x010F4083), tag_num=0x16)
225: 0x069C [0x1C] WAIT(30* ticks)
226: 0x069F [0x45] LOAD_SCHEDULED_TASK: Load scheduler "v007" with entities [LocalPlayer, LocalPlayer], work=[85*, 0*]
227: 0x06B0 [0x2A] GET_REQ_LEVEL(level=3, entity_id=Mildaurion (ID: 17776771/0x010F4083))
228: 0x06B6 [0x4A] LocalPlayer looks at Mildaurion (ID: 17776771/0x010F4083)
229: 0x06BF [0x2B] Mildaurion (ID: 17776771/0x010F4083) [8811*]:
    → "I have left with the owner of this tavern three rewards that may help you on your adventures. Feel free to choose one."
230: 0x06C6 [0x23] WAIT_FOR_DIALOG_INTERACTION
231: 0x06C7 [0x55] WAIT_LOAD_SCHEDULER: Wait for scheduler "v007" with entities [LocalPlayer, LocalPlayer], work=85*
232: 0x06D6 [0x79] Mildaurion (ID: 17776771/0x010F4083) looks at LocalPlayer (Basic look)
233: 0x06E0 [0x4B] UPDATE_ENTITY_YAW(entity=Mildaurion (ID: 17776771/0x010F4083), yaw=16.9°*)
234: 0x06E7 [0x1C] WAIT(10* ticks)
235: 0x06EA [0x6F] WAIT_FRAME_DELAY: Yield until WaitTime reaches zero
236: 0x06EB [0x76] CHECK_ENTITY_RENDER_FLAGS: Wait until Mildaurion (ID: 17776771/0x010F4083) Render.Flags0 and Render.Flags3 conditions are met
237: 0x06F0 [0x2B] Mildaurion (ID: 17776771/0x010F4083) [8812*]:
    → "Until our paths cross once more, <Player>."
238: 0x06F7 [0x23] WAIT_FOR_DIALOG_INTERACTION
239: 0x06F8 [0x2B] Mildaurion (ID: 17776771/0x010F4083) [8813*]:
    → "Thank you, and farewell."
240: 0x06FF [0x23] WAIT_FOR_DIALOG_INTERACTION
241: 0x0700 [0x27] REQ_SET(priority=0x03, entity_id=Mildaurion (ID: 17776771/0x010F4083), tag_num=0x17)
242: 0x0707 [0x1C] WAIT(60* ticks)
243: 0x070A [0x1A] CALL_SUBROUTINE(address=0x1204)
244: 0x070D [0x1C] WAIT(30* ticks)
245: 0x0710 [0x5C] MUSIC_CONTROL: Set Idle (Day) music to song 110*
246: 0x0714 [0x5C] MUSIC_CONTROL: Set Idle (Night) music to song 110*
247: 0x0718 [0x9A] WAIT_MUSIC_SERVER()
248: 0x0719 [0x46] CAMERA_CONTROL: Restore default settings
249: 0x071B [0x45] LOAD_SCHEDULED_TASK: Load scheduler "fdi2" with entities [LocalPlayer, LocalPlayer], work=[200*, 0*]
250: 0x072C [0x21] END_EVENT
251: 0x072D [0x00] END_REQSTACK()
```

### Event 84

#### Metadata

| Field        | Value     |
|--------------|-----------|
| Entrypoint   | 0x072E    |
| Data Size    | 802 bytes |
| Instructions | 147       |

```
      00 01 02 03 04 05 06 07  08 09 0A 0B 0C 0D 0E 0F
      -- -- -- -- -- -- -- --  -- -- -- -- -- -- -- --
0720:                                            42 03                B.
0730: 01 00 08 10 27 10 63 40  0F 01 03 1A 04 12 46 01  ....'.c@......F.
0740: 38 00 80 79 00 F0 FF FF  7F 24 40 0F 01 75 00 01  8..y.....$@..u..
0750: 80 75 01 92 01 24 40 0F  01 92 01 25 40 0F 01 94  .u...$@....%@...
0760: 01 F0 FF FF 7F 29 10 F0  FF FF 7F 3B 80 F0 FF FF  .....).....;....
0770: 7F 80 24 40 0F 01 80 25  40 0F 01 27 10 63 40 0F  ..$@...%@..'.c@.
0780: 01 04 5C 00 40 80 5C 01  40 80 9A 1C 27 80 4A 24  ..\.@.\.@...'.J$
0790: 40 0F 01 F0 FF FF 7F 4A  25 40 0F 01 F0 FF FF 7F  @......J%@......
07A0: 45 27 80 F0 FF FF 7F F0  FF FF 7F 6A 63 30 30 04  E'.........jc00.
07B0: 80 1A E3 11 5B 41 80 24  40 0F 01 24 40 0F 01 74  ....[A.$@..$@..t
07C0: 6C 6B 30 2B 24 40 0F 01  42 80 23 5B 41 80 24 40  lk0+$@..B.#[A.$@
07D0: 0F 01 24 40 0F 01 74 6C  6B 31 53 24 40 0F 01 24  ..$@..tlk1S$@..$
07E0: 40 0F 01 74 6C 6B 31 5B  41 80 24 40 0F 01 24 40  @..tlk1[A.$@..$@
07F0: 0F 01 74 68 6B 31 2B 24  40 0F 01 43 80 23 5B 41  ..thk1+$@..C.#[A
0800: 80 24 40 0F 01 24 40 0F  01 74 68 6B 32 2B 24 40  .$@..$@..thk2+$@
0810: 0F 01 44 80 23 02 01 00  45 80 00 40 08 1A 04 12  ..D.#...E..@....
0820: 1C 46 80 1A E3 11 5B 41  80 24 40 0F 01 24 40 0F  .F....[A.$@..$@.
0830: 01 70 61 73 30 2B 24 40  0F 01 47 80 23 01 1D 0A  .pas0+$@..G.#...
0840: 03 01 10 09 80 43 00 43  01 24 48 80 04 80 04 80  .....C.C.$H.....
0850: 25 02 00 10 04 80 00 64  08 2B 24 40 0F 01 49 80  %......d.+$@..I.
0860: 23 01 1D 0A 02 00 10 13  80 00 F7 08 93 02 10 03  #...............
0870: 02 10 02 10 2B 24 40 0F  01 4A 80 23 93 04 80 24  ....+$@..J.#...$
0880: 4B 80 13 80 04 80 25 02  00 10 04 80 00 CF 08 03  K.....%.........
0890: 01 10 13 80 43 00 43 01  02 09 10 04 80 00 C4 08  ....C.C.........
08A0: 5B 41 80 24 40 0F 01 24  40 0F 01 70 61 73 30 2B  [A.$@..$@..pas0+
08B0: 24 40 0F 01 47 80 23 03  07 10 13 80 03 01 10 0A  $@..G.#.........
08C0: 80 01 CC 08 2B 24 40 0F  01 4C 80 23 01 F4 08 02  ....+$@..L.#....
08D0: 00 10 13 80 00 F4 08 5B  41 80 24 40 0F 01 24 40  .......[A.$@..$@
08E0: 0F 01 74 68 6B 30 2B 24  40 0F 01 4D 80 23 01 0D  ..thk0+$@..M.#..
08F0: 08 01 F4 08 01 1D 0A 02  00 10 4E 80 00 8A 09 93  ..........N.....
0900: 03 10 03 02 10 03 10 2B  24 40 0F 01 4A 80 23 93  .......+$@..J.#.
0910: 04 80 24 4B 80 13 80 04  80 25 02 00 10 04 80 00  ..$K.....%......
0920: 62 09 03 01 10 4E 80 43  00 43 01 02 09 10 04 80  b....N.C.C......
0930: 00 57 09 5B 41 80 24 40  0F 01 24 40 0F 01 70 61  .W.[A.$@..$@..pa
0940: 73 30 2B 24 40 0F 01 47  80 23 03 07 10 13 80 03  s0+$@..G.#......
0950: 01 10 0B 80 01 5F 09 2B  24 40 0F 01 4C 80 23 01  ....._.+$@..L.#.
0960: 87 09 02 00 10 13 80 00  87 09 5B 41 80 24 40 0F  ..........[A.$@.
0970: 01 24 40 0F 01 74 68 6B  30 2B 24 40 0F 01 4D 80  .$@..thk0+$@..M.
0980: 23 01 0D 08 01 87 09 01  1D 0A 02 00 10 08 80 00  #...............
0990: 1D 0A 93 04 10 03 02 10  04 10 2B 24 40 0F 01 4A  ..........+$@..J
09A0: 80 23 93 04 80 24 4B 80  13 80 04 80 25 02 00 10  .#...$K.....%...
09B0: 04 80 00 F5 09 03 01 10  08 80 43 00 43 01 02 09  ..........C.C...
09C0: 10 04 80 00 EA 09 5B 41  80 24 40 0F 01 24 40 0F  ......[A.$@..$@.
09D0: 01 70 61 73 30 2B 24 40  0F 01 47 80 23 03 07 10  .pas0+$@..G.#...
09E0: 13 80 03 01 10 0C 80 01  F2 09 2B 24 40 0F 01 4C  ..........+$@..L
09F0: 80 23 01 1A 0A 02 00 10  13 80 00 1A 0A 5B 41 80  .#...........[A.
0A00: 24 40 0F 01 24 40 0F 01  74 68 6B 30 2B 24 40 0F  $@..$@..thk0+$@.
0A10: 01 4D 80 23 01 0D 08 01  1A 0A 01 1D 0A 1A 04 12  .M.#............
0A20: 1C 27 80 52 27 80 F0 FF  FF 7F F0 FF FF 7F 6A 63  .'.R'.........jc
0A30: 30 30 5C 00 3F 80 5C 01  3F 80 9A 46 00 45 16 80  00\.?.\.?..F.E..
0A40: F0 FF FF 7F F0 FF FF 7F  66 64 69 32 04 80 21 00  ........fdi2..!.
```

#### Opcodes

```
  0: 0x072E [0x42] SET_CLI_EVENT_CANCEL_DATA()
  1: 0x072F [0x03] ExtData[1]->WorkLocal[1] = Work_Zone[8]
  2: 0x0734 [0x27] REQ_SET(priority=0x10, entity_id=Door:"Marble Bridge" (ID: 17776739/0x010F4063), tag_num=0x03)
  3: 0x073B [0x1A] CALL_SUBROUTINE(address=0x1204)
  4: 0x073E [0x46] CAMERA_CONTROL: Disable user control
  5: 0x0740 [0x38] SET_CLIENT_EVENT_MODE(mode=19*)
  6: 0x0743 [0x79] LocalPlayer looks at Zuber (ID: 17776676/0x010F4024) (Basic look)
  7: 0x074D [0x75] LOAD_ROOM(Load indoor room, room=448*)
  8: 0x0751 [0x75] LOAD_ROOM(No action)
  9: 0x0753 [0x92] Zuber (ID: 17776676/0x010F4024)->Render.Flags3 ^= 0x01
 10: 0x0759 [0x92] Glyke (ID: 17776677/0x010F4025)->Render.Flags3 ^= 0x01
 11: 0x075F [0x94] LocalPlayer->Render.Flags3 ^= 0x01
 12: 0x0765 [0x29] REQ_SET_WAIT(priority=0x10, entity_id=LocalPlayer, tag_num=0x3B)
 13: 0x076C [0x80] LOAD_WAIT(entity=LocalPlayer)
 14: 0x0771 [0x80] LOAD_WAIT(entity=Zuber (ID: 17776676/0x010F4024))
 15: 0x0776 [0x80] LOAD_WAIT(entity=Glyke (ID: 17776677/0x010F4025))
 16: 0x077B [0x27] REQ_SET(priority=0x10, entity_id=Door:"Marble Bridge" (ID: 17776739/0x010F4063), tag_num=0x04)
 17: 0x0782 [0x5C] MUSIC_CONTROL: Set Idle (Day) music to song 234*
 18: 0x0786 [0x5C] MUSIC_CONTROL: Set Idle (Night) music to song 234*
 19: 0x078A [0x9A] WAIT_MUSIC_SERVER()
 20: 0x078B [0x1C] WAIT(30* ticks)
 21: 0x078E [0x4A] Zuber (ID: 17776676/0x010F4024) looks at LocalPlayer
 22: 0x0797 [0x4A] Glyke (ID: 17776677/0x010F4025) looks at LocalPlayer
 23: 0x07A0 [0x45] LOAD_SCHEDULED_TASK: Load scheduler "jc00" with entities [LocalPlayer, LocalPlayer], work=[30*, 0*]
 24: 0x07B1 [0x1A] CALL_SUBROUTINE(address=0x11E3)
 25: 0x07B4 [0x5B] LOAD_EXT_SCHEDULER: Load scheduler "tlk0" with entities [Zuber (ID: 17776676/0x010F4024), Zuber (ID: 17776676/0x010F4024)], work=238*
 26: 0x07C3 [0x2B] Zuber (ID: 17776676/0x010F4024) [8881*]:
    → "Ah, my favorite customer! A pretty blonde came in earlier and asked me to hold on to some things for you."
 27: 0x07CA [0x23] WAIT_FOR_DIALOG_INTERACTION
 28: 0x07CB [0x5B] LOAD_EXT_SCHEDULER: Load scheduler "tlk1" with entities [Zuber (ID: 17776676/0x010F4024), Zuber (ID: 17776676/0x010F4024)], work=238*
 29: 0x07DA [0x53] WAIT_SCHEDULER_TASK: Wait for scheduler "tlk1" with entities [Zuber (ID: 17776676/0x010F4024), Zuber (ID: 17776676/0x010F4024)]
 30: 0x07E7 [0x5B] LOAD_EXT_SCHEDULER: Load scheduler "thk1" with entities [Zuber (ID: 17776676/0x010F4024), Zuber (ID: 17776676/0x010F4024)], work=238*
 31: 0x07F6 [0x2B] Zuber (ID: 17776676/0x010F4024) [8882*]:
    → "There are three items in total, but I'm only supposed to give you one..."
 32: 0x07FD [0x23] WAIT_FOR_DIALOG_INTERACTION
 33: 0x07FE [0x5B] LOAD_EXT_SCHEDULER: Load scheduler "thk2" with entities [Zuber (ID: 17776676/0x010F4024), Zuber (ID: 17776676/0x010F4024)], work=238*
 34: 0x080D [0x2B] Zuber (ID: 17776676/0x010F4024) [8883*]:
    → "So, what'll it be?"
 35: 0x0814 [0x23] WAIT_FOR_DIALOG_INTERACTION
 36: 0x0815 [0x02] IF !(ExtData[1]->WorkLocal[1] == 99*) GOTO 0x0840
 37: 0x081D [0x1A] CALL_SUBROUTINE(address=0x1204)
 38: 0x0820 [0x1C] WAIT(45* ticks)
 39: 0x0823 [0x1A] CALL_SUBROUTINE(address=0x11E3)
 40: 0x0826 [0x5B] LOAD_EXT_SCHEDULER: Load scheduler "pas0" with entities [Zuber (ID: 17776676/0x010F4024), Zuber (ID: 17776676/0x010F4024)], work=238*
 41: 0x0835 [0x2B] Zuber (ID: 17776676/0x010F4024) [8887*]:
    → "A fine choice, [sir/madame]."
 42: 0x083C [0x23] WAIT_FOR_DIALOG_INTERACTION
 43: 0x083D [0x01] GOTO 0x0A1D
 44: 0x0840 [0x03] Work_Zone[1] = 4*
 45: 0x0845 [0x43] SEND_EVENT_UPDATE: Send pending tag to server (packet 0x005B)
 46: 0x0847 [0x43] SEND_EVENT_UPDATE: Check pending flag (skip if not pending)
 47: 0x0849 [0x24] CREATE_DIALOG(message_id=8884*, default_option=0*, option_flags=0*)
    → "Which do you choose? [Let me think about it./$0./$1./$2.]"
 48: 0x0850 [0x25] WAIT_DIALOG_SELECT()
 49: 0x0851 [0x02] IF !(Work_Zone[0] == 0*) GOTO 0x0864
 50: 0x0859 [0x2B] Zuber (ID: 17776676/0x010F4024) [8889*]:
    → "Still can't decide? Well, I'll be happy to look after them for the time being. Please come again!"
 51: 0x0860 [0x23] WAIT_FOR_DIALOG_INTERACTION
 52: 0x0861 [0x01] GOTO 0x0A1D
 53: 0x0864 [0x02] IF !(Work_Zone[0] == 1*) GOTO 0x08F7
 54: 0x086C [0x93] DISPLAY_ITEM_INFO(item_id=Work_Zone[2])
 55: 0x086F [0x03] Work_Zone[2] = Work_Zone[2]
 56: 0x0874 [0x2B] Zuber (ID: 17776676/0x010F4024) [8885*]:
    → "The $0? Is that your final decision?"
 57: 0x087B [0x23] WAIT_FOR_DIALOG_INTERACTION
 58: 0x087C [0x93] DISPLAY_ITEM_INFO(item_id=0*)
 59: 0x087F [0x24] CREATE_DIALOG(message_id=8886*, default_option=1*, option_flags=0*)
    → "Do you choose the $0? [Yes./I've changed my mind.]"
 60: 0x0886 [0x25] WAIT_DIALOG_SELECT()
 61: 0x0887 [0x02] IF !(Work_Zone[0] == 0*) GOTO 0x08CF
 62: 0x088F [0x03] Work_Zone[1] = 1*
 63: 0x0894 [0x43] SEND_EVENT_UPDATE: Send pending tag to server (packet 0x005B)
 64: 0x0896 [0x43] SEND_EVENT_UPDATE: Check pending flag (skip if not pending)
 65: 0x0898 [0x02] IF !(Work_Zone[9] == 0*) GOTO 0x08C4
 66: 0x08A0 [0x5B] LOAD_EXT_SCHEDULER: Load scheduler "pas0" with entities [Zuber (ID: 17776676/0x010F4024), Zuber (ID: 17776676/0x010F4024)], work=238*
 67: 0x08AF [0x2B] Zuber (ID: 17776676/0x010F4024) [8887*]:
    → "A fine choice, [sir/madame]."
 68: 0x08B6 [0x23] WAIT_FOR_DIALOG_INTERACTION
 69: 0x08B7 [0x03] Work_Zone[7] = 1*
 70: 0x08BC [0x03] Work_Zone[1] = 5*
 71: 0x08C1 [0x01] GOTO 0x08CC
 72: 0x08C4 [0x2B] Zuber (ID: 17776676/0x010F4024) [8890*]:
    → "I'm sorry, [sir/madame], but it wouldn't be right for me to force any more luggage on such a heavily laden person..."
 73: 0x08CB [0x23] WAIT_FOR_DIALOG_INTERACTION

SUBROUTINE_08CC:
 74: 0x08CC [0x01] GOTO 0x08F4
 75: 0x08CF [0x02] IF !(Work_Zone[0] == 1*) GOTO 0x08F4
 76: 0x08D7 [0x5B] LOAD_EXT_SCHEDULER: Load scheduler "thk0" with entities [Zuber (ID: 17776676/0x010F4024), Zuber (ID: 17776676/0x010F4024)], work=238*
 77: 0x08E6 [0x2B] Zuber (ID: 17776676/0x010F4024) [8888*]:
    → "Making these kind of choices is difficult, isn't it? That blonde lady sure has a strange sense of humor. Oh dear, there I go criticizing my customers again..."
 78: 0x08ED [0x23] WAIT_FOR_DIALOG_INTERACTION
 79: 0x08EE [0x01] GOTO 0x080D

SUBROUTINE_08F4:
 80: 0x08F4 [0x01] GOTO 0x0A1D
 81: 0x08F7 [0x02] IF !(Work_Zone[0] == 2*) GOTO 0x098A
 82: 0x08FF [0x93] DISPLAY_ITEM_INFO(item_id=Work_Zone[3])
 83: 0x0902 [0x03] Work_Zone[2] = Work_Zone[3]
 84: 0x0907 [0x2B] Zuber (ID: 17776676/0x010F4024) [8885*]:
    → "The $0? Is that your final decision?"
 85: 0x090E [0x23] WAIT_FOR_DIALOG_INTERACTION
 86: 0x090F [0x93] DISPLAY_ITEM_INFO(item_id=0*)
 87: 0x0912 [0x24] CREATE_DIALOG(message_id=8886*, default_option=1*, option_flags=0*)
    → "Do you choose the $0? [Yes./I've changed my mind.]"
 88: 0x0919 [0x25] WAIT_DIALOG_SELECT()
 89: 0x091A [0x02] IF !(Work_Zone[0] == 0*) GOTO 0x0962
 90: 0x0922 [0x03] Work_Zone[1] = 2*
 91: 0x0927 [0x43] SEND_EVENT_UPDATE: Send pending tag to server (packet 0x005B)
 92: 0x0929 [0x43] SEND_EVENT_UPDATE: Check pending flag (skip if not pending)
 93: 0x092B [0x02] IF !(Work_Zone[9] == 0*) GOTO 0x0957
 94: 0x0933 [0x5B] LOAD_EXT_SCHEDULER: Load scheduler "pas0" with entities [Zuber (ID: 17776676/0x010F4024), Zuber (ID: 17776676/0x010F4024)], work=238*
 95: 0x0942 [0x2B] Zuber (ID: 17776676/0x010F4024) [8887*]:
    → "A fine choice, [sir/madame]."
 96: 0x0949 [0x23] WAIT_FOR_DIALOG_INTERACTION
 97: 0x094A [0x03] Work_Zone[7] = 1*
 98: 0x094F [0x03] Work_Zone[1] = 6*
 99: 0x0954 [0x01] GOTO 0x095F
100: 0x0957 [0x2B] Zuber (ID: 17776676/0x010F4024) [8890*]:
    → "I'm sorry, [sir/madame], but it wouldn't be right for me to force any more luggage on such a heavily laden person..."
101: 0x095E [0x23] WAIT_FOR_DIALOG_INTERACTION

SUBROUTINE_095F:
102: 0x095F [0x01] GOTO 0x0987
103: 0x0962 [0x02] IF !(Work_Zone[0] == 1*) GOTO 0x0987
104: 0x096A [0x5B] LOAD_EXT_SCHEDULER: Load scheduler "thk0" with entities [Zuber (ID: 17776676/0x010F4024), Zuber (ID: 17776676/0x010F4024)], work=238*
105: 0x0979 [0x2B] Zuber (ID: 17776676/0x010F4024) [8888*]:
    → "Making these kind of choices is difficult, isn't it? That blonde lady sure has a strange sense of humor. Oh dear, there I go criticizing my customers again..."
106: 0x0980 [0x23] WAIT_FOR_DIALOG_INTERACTION
107: 0x0981 [0x01] GOTO 0x080D

SUBROUTINE_0987:
108: 0x0987 [0x01] GOTO 0x0A1D
109: 0x098A [0x02] IF !(Work_Zone[0] == 3*) GOTO 0x0A1D
110: 0x0992 [0x93] DISPLAY_ITEM_INFO(item_id=Work_Zone[4])
111: 0x0995 [0x03] Work_Zone[2] = Work_Zone[4]
112: 0x099A [0x2B] Zuber (ID: 17776676/0x010F4024) [8885*]:
    → "The $0? Is that your final decision?"
113: 0x09A1 [0x23] WAIT_FOR_DIALOG_INTERACTION
114: 0x09A2 [0x93] DISPLAY_ITEM_INFO(item_id=0*)
115: 0x09A5 [0x24] CREATE_DIALOG(message_id=8886*, default_option=1*, option_flags=0*)
    → "Do you choose the $0? [Yes./I've changed my mind.]"
116: 0x09AC [0x25] WAIT_DIALOG_SELECT()
117: 0x09AD [0x02] IF !(Work_Zone[0] == 0*) GOTO 0x09F5
118: 0x09B5 [0x03] Work_Zone[1] = 3*
119: 0x09BA [0x43] SEND_EVENT_UPDATE: Send pending tag to server (packet 0x005B)
120: 0x09BC [0x43] SEND_EVENT_UPDATE: Check pending flag (skip if not pending)
121: 0x09BE [0x02] IF !(Work_Zone[9] == 0*) GOTO 0x09EA
122: 0x09C6 [0x5B] LOAD_EXT_SCHEDULER: Load scheduler "pas0" with entities [Zuber (ID: 17776676/0x010F4024), Zuber (ID: 17776676/0x010F4024)], work=238*
123: 0x09D5 [0x2B] Zuber (ID: 17776676/0x010F4024) [8887*]:
    → "A fine choice, [sir/madame]."
124: 0x09DC [0x23] WAIT_FOR_DIALOG_INTERACTION
125: 0x09DD [0x03] Work_Zone[7] = 1*
126: 0x09E2 [0x03] Work_Zone[1] = 7*
127: 0x09E7 [0x01] GOTO 0x09F2
128: 0x09EA [0x2B] Zuber (ID: 17776676/0x010F4024) [8890*]:
    → "I'm sorry, [sir/madame], but it wouldn't be right for me to force any more luggage on such a heavily laden person..."
129: 0x09F1 [0x23] WAIT_FOR_DIALOG_INTERACTION

SUBROUTINE_09F2:
130: 0x09F2 [0x01] GOTO 0x0A1A
131: 0x09F5 [0x02] IF !(Work_Zone[0] == 1*) GOTO 0x0A1A
132: 0x09FD [0x5B] LOAD_EXT_SCHEDULER: Load scheduler "thk0" with entities [Zuber (ID: 17776676/0x010F4024), Zuber (ID: 17776676/0x010F4024)], work=238*
133: 0x0A0C [0x2B] Zuber (ID: 17776676/0x010F4024) [8888*]:
    → "Making these kind of choices is difficult, isn't it? That blonde lady sure has a strange sense of humor. Oh dear, there I go criticizing my customers again..."
134: 0x0A13 [0x23] WAIT_FOR_DIALOG_INTERACTION
135: 0x0A14 [0x01] GOTO 0x080D

SUBROUTINE_0A1A:
136: 0x0A1A [0x01] GOTO 0x0A1D

SUBROUTINE_0A1D:
137: 0x0A1D [0x1A] CALL_SUBROUTINE(address=0x1204)
138: 0x0A20 [0x1C] WAIT(30* ticks)
139: 0x0A23 [0x52] END_LOAD_SCHEDULER: End scheduler "jc00" with entities [LocalPlayer, LocalPlayer], work=30*
140: 0x0A32 [0x5C] MUSIC_CONTROL: Set Idle (Day) music to song 110*
141: 0x0A36 [0x5C] MUSIC_CONTROL: Set Idle (Night) music to song 110*
142: 0x0A3A [0x9A] WAIT_MUSIC_SERVER()
143: 0x0A3B [0x46] CAMERA_CONTROL: Restore default settings
144: 0x0A3D [0x45] LOAD_SCHEDULED_TASK: Load scheduler "fdi2" with entities [LocalPlayer, LocalPlayer], work=[200*, 0*]
145: 0x0A4E [0x21] END_EVENT
146: 0x0A4F [0x00] END_REQSTACK()
```

#### Data or dead code:

```
# Dead code (unreachable instructions):
     0x08F1 [0x01] GOTO 0x08F4
# Dead code (unreachable instructions):
     0x0984 [0x01] GOTO 0x0987
# Dead code (unreachable instructions):
     0x0A17 [0x01] GOTO 0x0A1A
```

### Event 204

#### Metadata

| Field        | Value      |
|--------------|------------|
| Entrypoint   | 0x0A50     |
| Data Size    | 1329 bytes |
| Instructions | 195        |

```
      00 01 02 03 04 05 06 07  08 09 0A 0B 0C 0D 0E 0F
      -- -- -- -- -- -- -- --  -- -- -- -- -- -- -- --
0A50: 42 03 01 00 08 10 03 02  00 09 10 27 10 63 40 0F  B..........'.c@.
0A60: 01 03 1A 04 12 46 01 38  00 80 79 00 F0 FF FF 7F  .....F.8..y.....
0A70: 24 40 0F 01 75 00 01 80  75 01 92 01 24 40 0F 01  $@..u...u...$@..
0A80: 92 01 25 40 0F 01 94 01  F0 FF FF 7F 29 10 F0 FF  ..%@........)...
0A90: FF 7F 3B 29 10 B9 40 0F  01 03 80 F0 FF FF 7F 80  ..;)..@.........
0AA0: 24 40 0F 01 80 25 40 0F  01 27 10 63 40 0F 01 04  $@...%@..'.c@...
0AB0: 5C 00 40 80 5C 01 40 80  9A 1C 27 80 4A 24 40 0F  \.@.\.@...'.J$@.
0AC0: 01 F0 FF FF 7F 4A 25 40  0F 01 F0 FF FF 7F 02 02  .....J%@........
0AD0: 00 04 80 00 FE 0B 45 27  80 F0 FF FF 7F F0 FF FF  ......E'........
0AE0: 7F 6A 63 30 30 04 80 1A  E3 11 5B 4F 80 24 40 0F  .jc00.....[O.$@.
0AF0: 01 24 40 0F 01 67 72 65  30 2B 24 40 0F 01 50 80  .$@..gre0+$@..P.
0B00: 23 53 24 40 0F 01 24 40  0F 01 67 72 65 30 5B 4F  #S$@..$@..gre0[O
0B10: 80 24 40 0F 01 24 40 0F  01 70 61 73 30 2B 24 40  .$@..$@..pas0+$@
0B20: 0F 01 51 80 23 5B 4F 80  24 40 0F 01 24 40 0F 01  ..Q.#[O.$@..$@..
0B30: 74 68 6B 30 2B 24 40 0F  01 52 80 23 6E F0 FF FF  thk0+$@..R.#n...
0B40: 7F 09 80 99 F0 FF FF 7F  99 F0 FF FF 7F 1C 11 80  ................
0B50: 2B 24 40 0F 01 53 80 23  6E F0 FF FF 7F 54 80 99  +$@..S.#n....T..
0B60: F0 FF FF 7F 99 F0 FF FF  7F 1C 46 80 2B 24 40 0F  ..........F.+$@.
0B70: 01 55 80 23 1A 04 12 1C  27 80 52 27 80 F0 FF FF  .U.#....'.R'....
0B80: 7F F0 FF FF 7F 6A 63 30  30 45 27 80 F0 FF FF 7F  .....jc00E'.....
0B90: F0 FF FF 7F 6A 63 30 31  04 80 1A 78 13 1C 27 80  ....jc01...x..'.
0BA0: 62 08 80 B9 40 0F 01 B9  40 0F 01 6D 61 69 6E 04  b...@...@..main.
0BB0: 80 2B 24 40 0F 01 56 80  23 52 27 80 F0 FF FF 7F  .+$@..V.#R'.....
0BC0: F0 FF FF 7F 6A 63 30 31  45 27 80 F0 FF FF 7F F0  ....jc01E'......
0BD0: FF FF 7F 6A 63 30 33 04  80 2B 24 40 0F 01 57 80  ...jc03..+$@..W.
0BE0: 23 1A 04 12 1C 27 80 2B  24 40 0F 01 58 80 23 52  #....'.+$@..X.#R
0BF0: 27 80 F0 FF FF 7F F0 FF  FF 7F 6A 63 30 33 45 27  '.........jc03E'
0C00: 80 F0 FF FF 7F F0 FF FF  7F 6A 63 30 32 04 80 1A  .........jc02...
0C10: E3 11 2B 24 40 0F 01 59  80 23 52 27 80 F0 FF FF  ..+$@..Y.#R'....
0C20: 7F F0 FF FF 7F 6A 63 30  32 45 27 80 F0 FF FF 7F  .....jc02E'.....
0C30: F0 FF FF 7F 6A 63 30 34  04 80 5B 4F 80 24 40 0F  ....jc04..[O.$@.
0C40: 01 24 40 0F 01 68 69 73  30 2B 24 40 0F 01 5A 80  .$@..his0+$@..Z.
0C50: 23 5B 4F 80 24 40 0F 01  24 40 0F 01 68 69 73 31  #[O.$@..$@..his1
0C60: 52 27 80 F0 FF FF 7F F0  FF FF 7F 6A 63 30 34 45  R'.........jc04E
0C70: 27 80 F0 FF FF 7F F0 FF  FF 7F 6A 63 30 35 04 80  '.........jc05..
0C80: 24 5B 80 04 80 04 80 25  02 00 10 04 80 00 E9 0C  $[.....%........
0C90: 6E F0 FF FF 7F 5C 80 99  F0 FF FF 7F 99 F0 FF FF  n....\..........
0CA0: 7F 1C 11 80 52 27 80 F0  FF FF 7F F0 FF FF 7F 6A  ....R'.........j
0CB0: 63 30 35 45 27 80 F0 FF  FF 7F F0 FF FF 7F 6A 63  c05E'.........jc
0CC0: 30 36 04 80 5B 4F 80 24  40 0F 01 24 40 0F 01 74  06..[O.$@..$@..t
0CD0: 68 6B 30 2B 24 40 0F 01  5D 80 23 2B 24 40 0F 01  hk0+$@..].#+$@..
0CE0: 5E 80 23 01 3F 0F 01 E9  0C 02 01 00 45 80 00 14  ^.#.?.......E...
0CF0: 0D 1A 04 12 1C 46 80 1A  E3 11 5B 4F 80 24 40 0F  .....F....[O.$@.
0D00: 01 24 40 0F 01 70 61 73  30 2B 24 40 0F 01 47 80  .$@..pas0+$@..G.
0D10: 23 01 3F 0F 03 01 10 09  80 43 00 43 01 24 48 80  #.?......C.C.$H.
0D20: 04 80 04 80 25 02 00 10  04 80 00 86 0D 6E F0 FF  ....%........n..
0D30: FF 7F 5C 80 99 F0 FF FF  7F 99 F0 FF FF 7F 1C 11  ..\.............
0D40: 80 52 27 80 F0 FF FF 7F  F0 FF FF 7F 6A 63 30 35  .R'.........jc05
0D50: 45 27 80 F0 FF FF 7F F0  FF FF 7F 6A 63 30 36 04  E'.........jc06.
0D60: 80 5B 4F 80 24 40 0F 01  24 40 0F 01 74 68 6B 30  .[O.$@..$@..thk0
0D70: 2B 24 40 0F 01 5D 80 23  2B 24 40 0F 01 5E 80 23  +$@..].#+$@..^.#
0D80: 01 3F 0F 01 3F 0F 02 00  10 13 80 00 19 0E 93 02  .?..?...........
0D90: 10 03 02 10 02 10 2B 24  40 0F 01 4A 80 23 93 04  ......+$@..J.#..
0DA0: 80 24 4B 80 13 80 04 80  25 02 00 10 04 80 00 F1  .$K.....%.......
0DB0: 0D 03 01 10 13 80 43 00  43 01 02 09 10 04 80 00  ......C.C.......
0DC0: E6 0D 5B 4F 80 24 40 0F  01 24 40 0F 01 70 61 73  ..[O.$@..$@..pas
0DD0: 30 2B 24 40 0F 01 47 80  23 03 07 10 13 80 03 01  0+$@..G.#.......
0DE0: 10 0A 80 01 EE 0D 2B 24  40 0F 01 4C 80 23 01 16  ......+$@..L.#..
0DF0: 0E 02 00 10 13 80 00 16  0E 5B 4F 80 24 40 0F 01  .........[O.$@..
0E00: 24 40 0F 01 74 68 6B 30  2B 24 40 0F 01 4D 80 23  $@..thk0+$@..M.#
0E10: 01 14 0D 01 16 0E 01 3F  0F 02 00 10 4E 80 00 AC  .......?....N...
0E20: 0E 93 03 10 03 02 10 03  10 2B 24 40 0F 01 4A 80  .........+$@..J.
0E30: 23 93 04 80 24 4B 80 13  80 04 80 25 02 00 10 04  #...$K.....%....
0E40: 80 00 84 0E 03 01 10 4E  80 43 00 43 01 02 09 10  .......N.C.C....
0E50: 04 80 00 79 0E 5B 4F 80  24 40 0F 01 24 40 0F 01  ...y.[O.$@..$@..
0E60: 70 61 73 30 2B 24 40 0F  01 47 80 23 03 07 10 13  pas0+$@..G.#....
0E70: 80 03 01 10 0B 80 01 81  0E 2B 24 40 0F 01 4C 80  .........+$@..L.
0E80: 23 01 A9 0E 02 00 10 13  80 00 A9 0E 5B 4F 80 24  #...........[O.$
0E90: 40 0F 01 24 40 0F 01 74  68 6B 30 2B 24 40 0F 01  @..$@..thk0+$@..
0EA0: 4D 80 23 01 14 0D 01 A9  0E 01 3F 0F 02 00 10 08  M.#.......?.....
0EB0: 80 00 3F 0F 93 04 10 03  02 10 04 10 2B 24 40 0F  ..?.........+$@.
0EC0: 01 4A 80 23 93 04 80 24  4B 80 13 80 04 80 25 02  .J.#...$K.....%.
0ED0: 00 10 04 80 00 17 0F 03  01 10 08 80 43 00 43 01  ............C.C.
0EE0: 02 09 10 04 80 00 0C 0F  5B 4F 80 24 40 0F 01 24  ........[O.$@..$
0EF0: 40 0F 01 70 61 73 30 2B  24 40 0F 01 47 80 23 03  @..pas0+$@..G.#.
0F00: 07 10 13 80 03 01 10 0C  80 01 14 0F 2B 24 40 0F  ............+$@.
0F10: 01 4C 80 23 01 3C 0F 02  00 10 13 80 00 3C 0F 5B  .L.#.<.......<.[
0F20: 4F 80 24 40 0F 01 24 40  0F 01 74 68 6B 30 2B 24  O.$@..$@..thk0+$
0F30: 40 0F 01 4D 80 23 01 14  0D 01 3C 0F 01 3F 0F 1A  @..M.#....<..?..
0F40: 04 12 1C 27 80 52 27 80  F0 FF FF 7F F0 FF FF 7F  ...'.R'.........
0F50: 6A 63 30 35 52 27 80 F0  FF FF 7F F0 FF FF 7F 6A  jc05R'.........j
0F60: 63 30 36 5C 00 3F 80 5C  01 3F 80 9A 46 00 45 16  c06\.?.\.?..F.E.
0F70: 80 F0 FF FF 7F F0 FF FF  7F 66 64 69 32 04 80 21  .........fdi2..!
0F80: 00                                                .               
```

#### Opcodes

```
  0: 0x0A50 [0x42] SET_CLI_EVENT_CANCEL_DATA()
  1: 0x0A51 [0x03] ExtData[1]->WorkLocal[1] = Work_Zone[8]
  2: 0x0A56 [0x03] ExtData[1]->WorkLocal[2] = Work_Zone[9]
  3: 0x0A5B [0x27] REQ_SET(priority=0x10, entity_id=Door:"Marble Bridge" (ID: 17776739/0x010F4063), tag_num=0x03)
  4: 0x0A62 [0x1A] CALL_SUBROUTINE(address=0x1204)
  5: 0x0A65 [0x46] CAMERA_CONTROL: Disable user control
  6: 0x0A67 [0x38] SET_CLIENT_EVENT_MODE(mode=19*)
  7: 0x0A6A [0x79] LocalPlayer looks at Zuber (ID: 17776676/0x010F4024) (Basic look)
  8: 0x0A74 [0x75] LOAD_ROOM(Load indoor room, room=448*)
  9: 0x0A78 [0x75] LOAD_ROOM(No action)
 10: 0x0A7A [0x92] Zuber (ID: 17776676/0x010F4024)->Render.Flags3 ^= 0x01
 11: 0x0A80 [0x92] Glyke (ID: 17776677/0x010F4025)->Render.Flags3 ^= 0x01
 12: 0x0A86 [0x94] LocalPlayer->Render.Flags3 ^= 0x01
 13: 0x0A8C [0x29] REQ_SET_WAIT(priority=0x10, entity_id=LocalPlayer, tag_num=0x3B)
 14: 0x0A93 [0x29] REQ_SET_WAIT(priority=0x10, entity_id=Unnamed NPC (ID: 17776825/0x010F40B9), tag_num=0x03)
 15: 0x0A9A [0x80] LOAD_WAIT(entity=LocalPlayer)
 16: 0x0A9F [0x80] LOAD_WAIT(entity=Zuber (ID: 17776676/0x010F4024))
 17: 0x0AA4 [0x80] LOAD_WAIT(entity=Glyke (ID: 17776677/0x010F4025))
 18: 0x0AA9 [0x27] REQ_SET(priority=0x10, entity_id=Door:"Marble Bridge" (ID: 17776739/0x010F4063), tag_num=0x04)
 19: 0x0AB0 [0x5C] MUSIC_CONTROL: Set Idle (Day) music to song 234*
 20: 0x0AB4 [0x5C] MUSIC_CONTROL: Set Idle (Night) music to song 234*
 21: 0x0AB8 [0x9A] WAIT_MUSIC_SERVER()
 22: 0x0AB9 [0x1C] WAIT(30* ticks)
 23: 0x0ABC [0x4A] Zuber (ID: 17776676/0x010F4024) looks at LocalPlayer
 24: 0x0AC5 [0x4A] Glyke (ID: 17776677/0x010F4025) looks at LocalPlayer
 25: 0x0ACE [0x02] IF !(ExtData[1]->WorkLocal[2] == 0*) GOTO 0x0BFE
 26: 0x0AD6 [0x45] LOAD_SCHEDULED_TASK: Load scheduler "jc00" with entities [LocalPlayer, LocalPlayer], work=[30*, 0*]
 27: 0x0AE7 [0x1A] CALL_SUBROUTINE(address=0x11E3)
 28: 0x0AEA [0x5B] LOAD_EXT_SCHEDULER: Load scheduler "gre0" with entities [Zuber (ID: 17776676/0x010F4024), Zuber (ID: 17776676/0x010F4024)], work=65*
 29: 0x0AF9 [0x2B] Zuber (ID: 17776676/0x010F4024) [11780*]:
    → "Ah, my favorite customer! I've been hoping you'd walk through my door."
 30: 0x0B00 [0x23] WAIT_FOR_DIALOG_INTERACTION
 31: 0x0B01 [0x53] WAIT_SCHEDULER_TASK: Wait for scheduler "gre0" with entities [Zuber (ID: 17776676/0x010F4024), Zuber (ID: 17776676/0x010F4024)]
 32: 0x0B0E [0x5B] LOAD_EXT_SCHEDULER: Load scheduler "pas0" with entities [Zuber (ID: 17776676/0x010F4024), Zuber (ID: 17776676/0x010F4024)], work=65*
 33: 0x0B1D [0x2B] Zuber (ID: 17776676/0x010F4024) [11781*]:
    → "Doesn't this ring belong to you?"
 34: 0x0B24 [0x23] WAIT_FOR_DIALOG_INTERACTION
 35: 0x0B25 [0x5B] LOAD_EXT_SCHEDULER: Load scheduler "thk0" with entities [Zuber (ID: 17776676/0x010F4024), Zuber (ID: 17776676/0x010F4024)], work=65*
 36: 0x0B34 [0x2B] Zuber (ID: 17776676/0x010F4024) [11782*]:
    → "I remembered it because of the pretty blon...ah, I mean, the peculiar shape."
 37: 0x0B3B [0x23] WAIT_FOR_DIALOG_INTERACTION
 38: 0x0B3C [0x6E] LocalPlayer uses emote 4*
 39: 0x0B43 [0x99] Wait for LocalPlayer animation to complete
 40: 0x0B48 [0x99] Wait for LocalPlayer animation to complete
 41: 0x0B4D [0x1C] WAIT(60* ticks)
 42: 0x0B50 [0x2B] Zuber (ID: 17776676/0x010F4024) [11783*]:
    → "Hm? Beautiful? Oh yes, she was quite attractive..."
 43: 0x0B57 [0x23] WAIT_FOR_DIALOG_INTERACTION
 44: 0x0B58 [0x6E] LocalPlayer uses emote 22*
 45: 0x0B5F [0x99] Wait for LocalPlayer animation to complete
 46: 0x0B64 [0x99] Wait for LocalPlayer animation to complete
 47: 0x0B69 [0x1C] WAIT(45* ticks)
 48: 0x0B6C [0x2B] Zuber (ID: 17776676/0x010F4024) [11784*]:
    → "Oh! The ring! Yes, exquisite!"
 49: 0x0B73 [0x23] WAIT_FOR_DIALOG_INTERACTION
 50: 0x0B74 [0x1A] CALL_SUBROUTINE(address=0x1204)
 51: 0x0B77 [0x1C] WAIT(30* ticks)
 52: 0x0B7A [0x52] END_LOAD_SCHEDULER: End scheduler "jc00" with entities [LocalPlayer, LocalPlayer], work=30*
 53: 0x0B89 [0x45] LOAD_SCHEDULED_TASK: Load scheduler "jc01" with entities [LocalPlayer, LocalPlayer], work=[30*, 0*]
 54: 0x0B9A [0x1A] CALL_SUBROUTINE(address=0x1378)
 55: 0x0B9D [0x1C] WAIT(30* ticks)
 56: 0x0BA0 [0x62] LOAD_EVENT_SCHEDULER: Load scheduler "main" with entities [Unnamed NPC (ID: 17776825/0x010F40B9), Unnamed NPC (ID: 17776825/0x010F40B9)], work=[3*, 0*]
 57: 0x0BB1 [0x2B] Zuber (ID: 17776676/0x010F4024) [11785*]:
    → "You must have dropped it right outside the tavern--I found it lying on one of the drains at the bottom of the stairs."
 58: 0x0BB8 [0x23] WAIT_FOR_DIALOG_INTERACTION
 59: 0x0BB9 [0x52] END_LOAD_SCHEDULER: End scheduler "jc01" with entities [LocalPlayer, LocalPlayer], work=30*
 60: 0x0BC8 [0x45] LOAD_SCHEDULED_TASK: Load scheduler "jc03" with entities [LocalPlayer, LocalPlayer], work=[30*, 0*]
 61: 0x0BD9 [0x2B] Zuber (ID: 17776676/0x010F4024) [11786*]:
    → "You're lucky it got caught in the grille. One good storm and it would've been washed out to sea!"
 62: 0x0BE0 [0x23] WAIT_FOR_DIALOG_INTERACTION
 63: 0x0BE1 [0x1A] CALL_SUBROUTINE(address=0x1204)
 64: 0x0BE4 [0x1C] WAIT(30* ticks)
 65: 0x0BE7 [0x2B] Zuber (ID: 17776676/0x010F4024) [11787*]:
    → "Ah, yes!"
 66: 0x0BEE [0x23] WAIT_FOR_DIALOG_INTERACTION
 67: 0x0BEF [0x52] END_LOAD_SCHEDULER: End scheduler "jc03" with entities [LocalPlayer, LocalPlayer], work=30*
 68: 0x0BFE [0x45] LOAD_SCHEDULED_TASK: Load scheduler "jc02" with entities [LocalPlayer, LocalPlayer], work=[30*, 0*]
 69: 0x0C0F [0x1A] CALL_SUBROUTINE(address=0x11E3)
 70: 0x0C12 [0x2B] Zuber (ID: 17776676/0x010F4024) [11788*]:
    → "It just so happens that I have yet to return the remaining rings. Which means I have all three rattling in my hand here."
 71: 0x0C19 [0x23] WAIT_FOR_DIALOG_INTERACTION
 72: 0x0C1A [0x52] END_LOAD_SCHEDULER: End scheduler "jc02" with entities [LocalPlayer, LocalPlayer], work=30*
 73: 0x0C29 [0x45] LOAD_SCHEDULED_TASK: Load scheduler "jc04" with entities [LocalPlayer, LocalPlayer], work=[30*, 0*]
 74: 0x0C3A [0x5B] LOAD_EXT_SCHEDULER: Load scheduler "his0" with entities [Zuber (ID: 17776676/0x010F4024), Zuber (ID: 17776676/0x010F4024)], work=65*
 75: 0x0C49 [0x2B] Zuber (ID: 17776676/0x010F4024) [11789*]:
    → "Sooo... (The one you dropped is still in fine shape, now's your chance to choose a different one!)"
 76: 0x0C50 [0x23] WAIT_FOR_DIALOG_INTERACTION
 77: 0x0C51 [0x5B] LOAD_EXT_SCHEDULER: Load scheduler "his1" with entities [Zuber (ID: 17776676/0x010F4024), Zuber (ID: 17776676/0x010F4024)], work=65*
 78: 0x0C60 [0x52] END_LOAD_SCHEDULER: End scheduler "jc04" with entities [LocalPlayer, LocalPlayer], work=30*
 79: 0x0C6F [0x45] LOAD_SCHEDULED_TASK: Load scheduler "jc05" with entities [LocalPlayer, LocalPlayer], work=[30*, 0*]
 80: 0x0C80 [0x24] CREATE_DIALOG(message_id=11790*, default_option=0*, option_flags=0*)
    → "What's your poison? [I-I'm not ready.../Choose a ring.]"
 81: 0x0C87 [0x25] WAIT_DIALOG_SELECT()
 82: 0x0C88 [0x02] IF !(Work_Zone[0] == 0*) GOTO 0x0CE9
 83: 0x0C90 [0x6E] LocalPlayer uses emote 29*
 84: 0x0C97 [0x99] Wait for LocalPlayer animation to complete
 85: 0x0C9C [0x99] Wait for LocalPlayer animation to complete
 86: 0x0CA1 [0x1C] WAIT(60* ticks)
 87: 0x0CA4 [0x52] END_LOAD_SCHEDULER: End scheduler "jc05" with entities [LocalPlayer, LocalPlayer], work=30*
 88: 0x0CB3 [0x45] LOAD_SCHEDULED_TASK: Load scheduler "jc06" with entities [LocalPlayer, LocalPlayer], work=[30*, 0*]
 89: 0x0CC4 [0x5B] LOAD_EXT_SCHEDULER: Load scheduler "thk0" with entities [Zuber (ID: 17776676/0x010F4024), Zuber (ID: 17776676/0x010F4024)], work=65*
 90: 0x0CD3 [0x2B] Zuber (ID: 17776676/0x010F4024) [11791*]:
    → "I know, I know. It's a difficult choice to make."
 91: 0x0CDA [0x23] WAIT_FOR_DIALOG_INTERACTION
 92: 0x0CDB [0x2B] Zuber (ID: 17776676/0x010F4024) [11792*]:
    → "I tell you what; I'll be happy to look after them until you're ready to make a decision. Please come again any time!"
 93: 0x0CE2 [0x23] WAIT_FOR_DIALOG_INTERACTION
 94: 0x0CE3 [0x01] GOTO 0x0F3F

SUBROUTINE_0CE9:
 95: 0x0CE9 [0x02] IF !(ExtData[1]->WorkLocal[1] == 99*) GOTO 0x0D14
 96: 0x0CF1 [0x1A] CALL_SUBROUTINE(address=0x1204)
 97: 0x0CF4 [0x1C] WAIT(45* ticks)
 98: 0x0CF7 [0x1A] CALL_SUBROUTINE(address=0x11E3)
 99: 0x0CFA [0x5B] LOAD_EXT_SCHEDULER: Load scheduler "pas0" with entities [Zuber (ID: 17776676/0x010F4024), Zuber (ID: 17776676/0x010F4024)], work=65*
100: 0x0D09 [0x2B] Zuber (ID: 17776676/0x010F4024) [8887*]:
    → "A fine choice, [sir/madame]."
101: 0x0D10 [0x23] WAIT_FOR_DIALOG_INTERACTION
102: 0x0D11 [0x01] GOTO 0x0F3F

SUBROUTINE_0D14:
103: 0x0D14 [0x03] Work_Zone[1] = 4*
104: 0x0D19 [0x43] SEND_EVENT_UPDATE: Send pending tag to server (packet 0x005B)
105: 0x0D1B [0x43] SEND_EVENT_UPDATE: Check pending flag (skip if not pending)
106: 0x0D1D [0x24] CREATE_DIALOG(message_id=8884*, default_option=0*, option_flags=0*)
    → "Which do you choose? [Let me think about it./$0./$1./$2.]"
107: 0x0D24 [0x25] WAIT_DIALOG_SELECT()
108: 0x0D25 [0x02] IF !(Work_Zone[0] == 0*) GOTO 0x0D86
109: 0x0D2D [0x6E] LocalPlayer uses emote 29*
110: 0x0D34 [0x99] Wait for LocalPlayer animation to complete
111: 0x0D39 [0x99] Wait for LocalPlayer animation to complete
112: 0x0D3E [0x1C] WAIT(60* ticks)
113: 0x0D41 [0x52] END_LOAD_SCHEDULER: End scheduler "jc05" with entities [LocalPlayer, LocalPlayer], work=30*
114: 0x0D50 [0x45] LOAD_SCHEDULED_TASK: Load scheduler "jc06" with entities [LocalPlayer, LocalPlayer], work=[30*, 0*]
115: 0x0D61 [0x5B] LOAD_EXT_SCHEDULER: Load scheduler "thk0" with entities [Zuber (ID: 17776676/0x010F4024), Zuber (ID: 17776676/0x010F4024)], work=65*
116: 0x0D70 [0x2B] Zuber (ID: 17776676/0x010F4024) [11791*]:
    → "I know, I know. It's a difficult choice to make."
117: 0x0D77 [0x23] WAIT_FOR_DIALOG_INTERACTION
118: 0x0D78 [0x2B] Zuber (ID: 17776676/0x010F4024) [11792*]:
    → "I tell you what; I'll be happy to look after them until you're ready to make a decision. Please come again any time!"
119: 0x0D7F [0x23] WAIT_FOR_DIALOG_INTERACTION
120: 0x0D80 [0x01] GOTO 0x0F3F

SUBROUTINE_0DEE:
121: 0x0DEE [0x01] GOTO 0x0E16
122: 0x0DF1 [0x02] IF !(Work_Zone[0] == 1*) GOTO 0x0E16
123: 0x0DF9 [0x5B] LOAD_EXT_SCHEDULER: Load scheduler "thk0" with entities [Zuber (ID: 17776676/0x010F4024), Zuber (ID: 17776676/0x010F4024)], work=65*
124: 0x0E08 [0x2B] Zuber (ID: 17776676/0x010F4024) [8888*]:
    → "Making these kind of choices is difficult, isn't it? That blonde lady sure has a strange sense of humor. Oh dear, there I go criticizing my customers again..."
125: 0x0E0F [0x23] WAIT_FOR_DIALOG_INTERACTION
126: 0x0E10 [0x01] GOTO 0x0D14

SUBROUTINE_0E16:
127: 0x0E16 [0x01] GOTO 0x0F3F
128: 0x0E19 [0x02] IF !(Work_Zone[0] == 2*) GOTO 0x0EAC
129: 0x0E21 [0x93] DISPLAY_ITEM_INFO(item_id=Work_Zone[3])
130: 0x0E24 [0x03] Work_Zone[2] = Work_Zone[3]
131: 0x0E29 [0x2B] Zuber (ID: 17776676/0x010F4024) [8885*]:
    → "The $0? Is that your final decision?"
132: 0x0E30 [0x23] WAIT_FOR_DIALOG_INTERACTION
133: 0x0E31 [0x93] DISPLAY_ITEM_INFO(item_id=0*)
134: 0x0E34 [0x24] CREATE_DIALOG(message_id=8886*, default_option=1*, option_flags=0*)
    → "Do you choose the $0? [Yes./I've changed my mind.]"
135: 0x0E3B [0x25] WAIT_DIALOG_SELECT()
136: 0x0E3C [0x02] IF !(Work_Zone[0] == 0*) GOTO 0x0E84
137: 0x0E44 [0x03] Work_Zone[1] = 2*
138: 0x0E49 [0x43] SEND_EVENT_UPDATE: Send pending tag to server (packet 0x005B)
139: 0x0E4B [0x43] SEND_EVENT_UPDATE: Check pending flag (skip if not pending)
140: 0x0E4D [0x02] IF !(Work_Zone[9] == 0*) GOTO 0x0E79
141: 0x0E55 [0x5B] LOAD_EXT_SCHEDULER: Load scheduler "pas0" with entities [Zuber (ID: 17776676/0x010F4024), Zuber (ID: 17776676/0x010F4024)], work=65*
142: 0x0E64 [0x2B] Zuber (ID: 17776676/0x010F4024) [8887*]:
    → "A fine choice, [sir/madame]."
143: 0x0E6B [0x23] WAIT_FOR_DIALOG_INTERACTION
144: 0x0E6C [0x03] Work_Zone[7] = 1*
145: 0x0E71 [0x03] Work_Zone[1] = 6*
146: 0x0E76 [0x01] GOTO 0x0E81
147: 0x0E79 [0x2B] Zuber (ID: 17776676/0x010F4024) [8890*]:
    → "I'm sorry, [sir/madame], but it wouldn't be right for me to force any more luggage on such a heavily laden person..."
148: 0x0E80 [0x23] WAIT_FOR_DIALOG_INTERACTION

SUBROUTINE_0E81:
149: 0x0E81 [0x01] GOTO 0x0EA9
150: 0x0E84 [0x02] IF !(Work_Zone[0] == 1*) GOTO 0x0EA9
151: 0x0E8C [0x5B] LOAD_EXT_SCHEDULER: Load scheduler "thk0" with entities [Zuber (ID: 17776676/0x010F4024), Zuber (ID: 17776676/0x010F4024)], work=65*
152: 0x0E9B [0x2B] Zuber (ID: 17776676/0x010F4024) [8888*]:
    → "Making these kind of choices is difficult, isn't it? That blonde lady sure has a strange sense of humor. Oh dear, there I go criticizing my customers again..."
153: 0x0EA2 [0x23] WAIT_FOR_DIALOG_INTERACTION
154: 0x0EA3 [0x01] GOTO 0x0D14

SUBROUTINE_0EA9:
155: 0x0EA9 [0x01] GOTO 0x0F3F
156: 0x0EAC [0x02] IF !(Work_Zone[0] == 3*) GOTO 0x0F3F
157: 0x0EB4 [0x93] DISPLAY_ITEM_INFO(item_id=Work_Zone[4])
158: 0x0EB7 [0x03] Work_Zone[2] = Work_Zone[4]
159: 0x0EBC [0x2B] Zuber (ID: 17776676/0x010F4024) [8885*]:
    → "The $0? Is that your final decision?"
160: 0x0EC3 [0x23] WAIT_FOR_DIALOG_INTERACTION
161: 0x0EC4 [0x93] DISPLAY_ITEM_INFO(item_id=0*)
162: 0x0EC7 [0x24] CREATE_DIALOG(message_id=8886*, default_option=1*, option_flags=0*)
    → "Do you choose the $0? [Yes./I've changed my mind.]"
163: 0x0ECE [0x25] WAIT_DIALOG_SELECT()
164: 0x0ECF [0x02] IF !(Work_Zone[0] == 0*) GOTO 0x0F17
165: 0x0ED7 [0x03] Work_Zone[1] = 3*
166: 0x0EDC [0x43] SEND_EVENT_UPDATE: Send pending tag to server (packet 0x005B)
167: 0x0EDE [0x43] SEND_EVENT_UPDATE: Check pending flag (skip if not pending)
168: 0x0EE0 [0x02] IF !(Work_Zone[9] == 0*) GOTO 0x0F0C
169: 0x0EE8 [0x5B] LOAD_EXT_SCHEDULER: Load scheduler "pas0" with entities [Zuber (ID: 17776676/0x010F4024), Zuber (ID: 17776676/0x010F4024)], work=65*
170: 0x0EF7 [0x2B] Zuber (ID: 17776676/0x010F4024) [8887*]:
    → "A fine choice, [sir/madame]."
171: 0x0EFE [0x23] WAIT_FOR_DIALOG_INTERACTION
172: 0x0EFF [0x03] Work_Zone[7] = 1*
173: 0x0F04 [0x03] Work_Zone[1] = 7*
174: 0x0F09 [0x01] GOTO 0x0F14
175: 0x0F0C [0x2B] Zuber (ID: 17776676/0x010F4024) [8890*]:
    → "I'm sorry, [sir/madame], but it wouldn't be right for me to force any more luggage on such a heavily laden person..."
176: 0x0F13 [0x23] WAIT_FOR_DIALOG_INTERACTION

SUBROUTINE_0F14:
177: 0x0F14 [0x01] GOTO 0x0F3C
178: 0x0F17 [0x02] IF !(Work_Zone[0] == 1*) GOTO 0x0F3C
179: 0x0F1F [0x5B] LOAD_EXT_SCHEDULER: Load scheduler "thk0" with entities [Zuber (ID: 17776676/0x010F4024), Zuber (ID: 17776676/0x010F4024)], work=65*
180: 0x0F2E [0x2B] Zuber (ID: 17776676/0x010F4024) [8888*]:
    → "Making these kind of choices is difficult, isn't it? That blonde lady sure has a strange sense of humor. Oh dear, there I go criticizing my customers again..."
181: 0x0F35 [0x23] WAIT_FOR_DIALOG_INTERACTION
182: 0x0F36 [0x01] GOTO 0x0D14

SUBROUTINE_0F3C:
183: 0x0F3C [0x01] GOTO 0x0F3F

SUBROUTINE_0F3F:
184: 0x0F3F [0x1A] CALL_SUBROUTINE(address=0x1204)
185: 0x0F42 [0x1C] WAIT(30* ticks)
186: 0x0F45 [0x52] END_LOAD_SCHEDULER: End scheduler "jc05" with entities [LocalPlayer, LocalPlayer], work=30*
187: 0x0F54 [0x52] END_LOAD_SCHEDULER: End scheduler "jc06" with entities [LocalPlayer, LocalPlayer], work=30*
188: 0x0F63 [0x5C] MUSIC_CONTROL: Set Idle (Day) music to song 110*
189: 0x0F67 [0x5C] MUSIC_CONTROL: Set Idle (Night) music to song 110*
190: 0x0F6B [0x9A] WAIT_MUSIC_SERVER()
191: 0x0F6C [0x46] CAMERA_CONTROL: Restore default settings
192: 0x0F6E [0x45] LOAD_SCHEDULED_TASK: Load scheduler "fdi2" with entities [LocalPlayer, LocalPlayer], work=[200*, 0*]
193: 0x0F7F [0x21] END_EVENT
194: 0x0F80 [0x00] END_REQSTACK()
```

#### Data or dead code:

```
# Dead code (unreachable instructions):
     0x0CE6 [0x01] GOTO 0x0CE9
# Dead code (unreachable instructions):
     0x0D83 [0x01] GOTO 0x0F3F
# Dead code (unreachable instructions):
     0x0E13 [0x01] GOTO 0x0E16
# Dead code (unreachable instructions):
     0x0EA6 [0x01] GOTO 0x0EA9
# Dead code (unreachable instructions):
     0x0F39 [0x01] GOTO 0x0F3C
```

### Event 205

#### Metadata

| Field        | Value      |
|--------------|------------|
| Entrypoint   | 0x0F81     |
| Data Size    | 1201 bytes |
| Instructions | 91         |

```
      00 01 02 03 04 05 06 07  08 09 0A 0B 0C 0D 0E 0F
      -- -- -- -- -- -- -- --  -- -- -- -- -- -- -- --
0F80:    42 03 01 00 08 10 27  10 63 40 0F 01 03 1A 04   B.....'.c@.....
0F90: 12 46 01 38 00 80 79 00  F0 FF FF 7F 24 40 0F 01  .F.8..y.....$@..
0FA0: 75 00 01 80 75 01 92 01  24 40 0F 01 92 01 25 40  u...u...$@....%@
0FB0: 0F 01 94 01 F0 FF FF 7F  29 10 F0 FF FF 7F 3B 29  ........).....;)
0FC0: 10 B9 40 0F 01 03 80 F0  FF FF 7F 80 24 40 0F 01  ..@.........$@..
0FD0: 80 25 40 0F 01 27 10 63  40 0F 01 04 5C 00 5F 80  .%@..'.c@...\._.
0FE0: 5C 01 5F 80 9A 1C 27 80  4A 24 40 0F 01 F0 FF FF  \._...'.J$@.....
0FF0: 7F 4A 25 40 0F 01 F0 FF  FF 7F 45 27 80 F0 FF FF  .J%@......E'....
1000: 7F F0 FF FF 7F 6A 63 30  30 04 80 1A E3 11 2B 24  .....jc00.....+$
1010: 40 0F 01 60 80 23 5B 4F  80 24 40 0F 01 24 40 0F  @..`.#[O.$@..$@.
1020: 01 74 68 6B 31 2B 24 40  0F 01 61 80 23 1A 04 12  .thk1+$@..a.#...
1030: 1C 27 80 52 27 80 F0 FF  FF 7F F0 FF FF 7F 6A 63  .'.R'.........jc
1040: 30 30 45 27 80 F0 FF FF  7F F0 FF FF 7F 6A 63 30  00E'.........jc0
1050: 31 04 80 1A 78 13 1C 27  80 62 08 80 B9 40 0F 01  1...x..'.b...@..
1060: B9 40 0F 01 6D 61 69 6E  04 80 2B 24 40 0F 01 62  .@..main..+$@..b
1070: 80 23 52 27 80 F0 FF FF  7F F0 FF FF 7F 6A 63 30  .#R'.........jc0
1080: 31 45 27 80 F0 FF FF 7F  F0 FF FF 7F 6A 63 30 33  1E'.........jc03
1090: 04 80 2B 24 40 0F 01 63  80 23 1A 04 12 1C 27 80  ..+$@..c.#....'.
10A0: 52 27 80 F0 FF FF 7F F0  FF FF 7F 6A 63 30 33 45  R'.........jc03E
10B0: 27 80 F0 FF FF 7F F0 FF  FF 7F 6A 63 30 32 04 80  '.........jc02..
10C0: 1A E3 11 2B 24 40 0F 01  64 80 23 52 27 80 F0 FF  ...+$@..d.#R'...
10D0: FF 7F F0 FF FF 7F 6A 63  30 32 45 27 80 F0 FF FF  ......jc02E'....
10E0: 7F F0 FF FF 7F 6A 63 30  35 04 80 6E F0 FF FF 7F  .....jc05..n....
10F0: 65 80 99 F0 FF FF 7F 99  F0 FF FF 7F 1C 46 80 5B  e............F.[
1100: 4F 80 24 40 0F 01 24 40  0F 01 74 68 6B 32 2B 24  O.$@..$@..thk2+$
1110: 40 0F 01 66 80 23 2B 24  40 0F 01 67 80 23 6E F0  @..f.#+$@..g.#n.
1120: FF FF 7F 0A 80 99 F0 FF  FF 7F 2B 24 40 0F 01 68  ..........+$@..h
1130: 80 23 99 F0 FF FF 7F 52  27 80 F0 FF FF 7F F0 FF  .#.....R'.......
1140: FF 7F 6A 63 30 35 45 27  80 F0 FF FF 7F F0 FF FF  ..jc05E'........
1150: 7F 6A 63 30 36 04 80 5B  4F 80 24 40 0F 01 24 40  .jc06..[O.$@..$@
1160: 0F 01 67 72 65 30 2B 24  40 0F 01 69 80 23 1A 04  ..gre0+$@..i.#..
1170: 12 1C 27 80 52 27 80 F0  FF FF 7F F0 FF FF 7F 6A  ..'.R'.........j
1180: 63 30 36 5C 00 3F 80 5C  01 3F 80 9A 46 00 45 16  c06\.?.\.?..F.E.
1190: 80 F0 FF FF 7F F0 FF FF  7F 66 64 69 32 04 80 21  .........fdi2..!
11A0: 00 45 16 80 F0 FF FF 7F  F0 FF FF 7F 66 64 69 30  .E..........fdi0
11B0: 04 80 55 16 80 F0 FF FF  7F F0 FF FF 7F 66 64 69  ..U..........fdi
11C0: 30 1B 45 16 80 F0 FF FF  7F F0 FF FF 7F 66 64 6F  0.E..........fdo
11D0: 30 04 80 55 16 80 F0 FF  FF 7F F0 FF FF 7F 66 64  0..U..........fd
11E0: 6F 30 1B 45 16 80 F0 FF  FF 7F F0 FF FF 7F 66 64  o0.E..........fd
11F0: 69 31 04 80 55 16 80 F0  FF FF 7F F0 FF FF 7F 66  i1..U..........f
1200: 64 69 31 1B 45 16 80 F0  FF FF 7F F0 FF FF 7F 66  di1.E..........f
1210: 64 6F 31 04 80 55 16 80  F0 FF FF 7F F0 FF FF 7F  do1..U..........
1220: 66 64 6F 31 1B 45 6A 80  F0 FF FF 7F F0 FF FF 7F  fdo1.Ej.........
1230: 77 68 69 31 04 80 55 6A  80 F0 FF FF 7F F0 FF FF  whi1..Uj........
1240: 7F 77 68 69 31 1B 45 6A  80 F0 FF FF 7F F0 FF FF  .whi1.Ej........
1250: 7F 77 68 6F 31 04 80 55  6A 80 F0 FF FF 7F F0 FF  .who1..Uj.......
1260: FF 7F 77 68 6F 31 1B 45  6A 80 F0 FF FF 7F F0 FF  ..who1.Ej.......
1270: FF 7F 77 68 6F 32 04 80  55 6A 80 F0 FF FF 7F F0  ..who2..Uj......
1280: FF FF 7F 77 68 6F 32 1B  45 6A 80 F0 FF FF 7F F0  ...who2.Ej......
1290: FF FF 7F 77 68 6F 33 04  80 55 6A 80 F0 FF FF 7F  ...who3..Uj.....
12A0: F0 FF FF 7F 77 68 6F 33  1B 62 13 80 F0 FF FF 7F  ....who3.b......
12B0: F0 FF FF 7F 6D 61 69 6E  04 80 1C 46 80 45 16 80  ....main...F.E..
12C0: F0 FF FF 7F F0 FF FF 7F  66 64 6F 31 04 80 55 16  ........fdo1..U.
12D0: 80 F0 FF FF 7F F0 FF FF  7F 66 64 6F 31 1B 45 16  .........fdo1.E.
12E0: 80 F0 FF FF 7F F0 FF FF  7F 66 64 69 31 04 80 62  .........fdi1..b
12F0: 4E 80 F0 FF FF 7F F0 FF  FF 7F 6D 61 69 6E 04 80  N.........main..
1300: 1C 27 80 55 16 80 F0 FF  FF 7F F0 FF FF 7F 66 64  .'.U..........fd
1310: 69 31 1B 45 16 80 F0 FF  FF 7F F0 FF FF 7F 62 6C  i1.E..........bl
1320: 6F 6E 04 80 45 6A 80 F0  FF FF 7F F0 FF FF 7F 62  on..Ej.........b
1330: 6C 6F 6E 04 80 1B 45 6A  80 F0 FF FF 7F F0 FF FF  lon...Ej........
1340: 7F 77 68 69 30 04 80 55  6A 80 F0 FF FF 7F F0 FF  .whi0..Uj.......
1350: FF 7F 77 68 69 30 1B 45  6A 80 F0 FF FF 7F F0 FF  ..whi0.Ej.......
1360: FF 7F 77 68 6F 30 04 80  55 6A 80 F0 FF FF 7F F0  ..who0..Uj......
1370: FF FF 7F 77 68 6F 30 1B  45 6B 80 F0 FF FF 7F F0  ...who0.Ek......
1380: FF FF 7F 65 66 6F 6E 04  80 55 6B 80 F0 FF FF 7F  ...efon..Uk.....
1390: F0 FF FF 7F 65 66 6F 6E  1B 45 16 80 F0 FF FF 7F  ....efon.E......
13A0: F0 FF FF 7F 66 64 69 73  04 80 1B 45 16 80 F0 FF  ....fdis...E....
13B0: FF 7F F0 FF FF 7F 66 64  6F 73 04 80 55 16 80 F0  ......fdos..U...
13C0: FF FF 7F F0 FF FF 7F 66  64 6F 73 1B 45 16 80 F0  .......fdos.E...
13D0: FF FF 7F F0 FF FF 7F 66  64 69 66 04 80 1B 45 16  .......fdif...E.
13E0: 80 F0 FF FF 7F F0 FF FF  7F 66 64 6F 66 04 80 55  .........fdof..U
13F0: 16 80 F0 FF FF 7F F0 FF  FF 7F 66 64 6F 66 1B 45  ..........fdof.E
1400: 16 80 F0 FF FF 7F F0 FF  FF 7F 66 64 69 70 04 80  ..........fdip..
1410: 1B 45 16 80 F0 FF FF 7F  F0 FF FF 7F 66 64 6F 70  .E..........fdop
1420: 04 80 55 16 80 F0 FF FF  7F F0 FF FF 7F 66 64 6F  ..U..........fdo
1430: 70 1B                                             p.              
```

#### Opcodes

```
  0: 0x0F81 [0x42] SET_CLI_EVENT_CANCEL_DATA()
  1: 0x0F82 [0x03] ExtData[1]->WorkLocal[1] = Work_Zone[8]
  2: 0x0F87 [0x27] REQ_SET(priority=0x10, entity_id=Door:"Marble Bridge" (ID: 17776739/0x010F4063), tag_num=0x03)
  3: 0x0F8E [0x1A] CALL_SUBROUTINE(address=0x1204)
  4: 0x0F91 [0x46] CAMERA_CONTROL: Disable user control
  5: 0x0F93 [0x38] SET_CLIENT_EVENT_MODE(mode=19*)
  6: 0x0F96 [0x79] LocalPlayer looks at Zuber (ID: 17776676/0x010F4024) (Basic look)
  7: 0x0FA0 [0x75] LOAD_ROOM(Load indoor room, room=448*)
  8: 0x0FA4 [0x75] LOAD_ROOM(No action)
  9: 0x0FA6 [0x92] Zuber (ID: 17776676/0x010F4024)->Render.Flags3 ^= 0x01
 10: 0x0FAC [0x92] Glyke (ID: 17776677/0x010F4025)->Render.Flags3 ^= 0x01
 11: 0x0FB2 [0x94] LocalPlayer->Render.Flags3 ^= 0x01
 12: 0x0FB8 [0x29] REQ_SET_WAIT(priority=0x10, entity_id=LocalPlayer, tag_num=0x3B)
 13: 0x0FBF [0x29] REQ_SET_WAIT(priority=0x10, entity_id=Unnamed NPC (ID: 17776825/0x010F40B9), tag_num=0x03)
 14: 0x0FC6 [0x80] LOAD_WAIT(entity=LocalPlayer)
 15: 0x0FCB [0x80] LOAD_WAIT(entity=Zuber (ID: 17776676/0x010F4024))
 16: 0x0FD0 [0x80] LOAD_WAIT(entity=Glyke (ID: 17776677/0x010F4025))
 17: 0x0FD5 [0x27] REQ_SET(priority=0x10, entity_id=Door:"Marble Bridge" (ID: 17776739/0x010F4063), tag_num=0x04)
 18: 0x0FDC [0x5C] MUSIC_CONTROL: Set Idle (Day) music to song 222*
 19: 0x0FE0 [0x5C] MUSIC_CONTROL: Set Idle (Night) music to song 222*
 20: 0x0FE4 [0x9A] WAIT_MUSIC_SERVER()
 21: 0x0FE5 [0x1C] WAIT(30* ticks)
 22: 0x0FE8 [0x4A] Zuber (ID: 17776676/0x010F4024) looks at LocalPlayer
 23: 0x0FF1 [0x4A] Glyke (ID: 17776677/0x010F4025) looks at LocalPlayer
 24: 0x0FFA [0x45] LOAD_SCHEDULED_TASK: Load scheduler "jc00" with entities [LocalPlayer, LocalPlayer], work=[30*, 0*]
 25: 0x100B [0x1A] CALL_SUBROUTINE(address=0x11E3)
 26: 0x100E [0x2B] Zuber (ID: 17776676/0x010F4024) [11793*]:
    → "You seem distraught, [sir/madame]... You've gone and dropped it again, haven't you?"
 27: 0x1015 [0x23] WAIT_FOR_DIALOG_INTERACTION
 28: 0x1016 [0x5B] LOAD_EXT_SCHEDULER: Load scheduler "thk1" with entities [Zuber (ID: 17776676/0x010F4024), Zuber (ID: 17776676/0x010F4024)], work=65*
 29: 0x1025 [0x2B] Zuber (ID: 17776676/0x010F4024) [11794*]:
    → "And it just so happens that I found another ring lying in the exact same place."
 30: 0x102C [0x23] WAIT_FOR_DIALOG_INTERACTION
 31: 0x102D [0x1A] CALL_SUBROUTINE(address=0x1204)
 32: 0x1030 [0x1C] WAIT(30* ticks)
 33: 0x1033 [0x52] END_LOAD_SCHEDULER: End scheduler "jc00" with entities [LocalPlayer, LocalPlayer], work=30*
 34: 0x1042 [0x45] LOAD_SCHEDULED_TASK: Load scheduler "jc01" with entities [LocalPlayer, LocalPlayer], work=[30*, 0*]
 35: 0x1053 [0x1A] CALL_SUBROUTINE(address=0x1378)
 36: 0x1056 [0x1C] WAIT(30* ticks)
 37: 0x1059 [0x62] LOAD_EVENT_SCHEDULER: Load scheduler "main" with entities [Unnamed NPC (ID: 17776825/0x010F40B9), Unnamed NPC (ID: 17776825/0x010F40B9)], work=[3*, 0*]
 38: 0x106A [0x2B] Zuber (ID: 17776676/0x010F4024) [11795*]:
    → "The thing is, though..."
 39: 0x1071 [0x23] WAIT_FOR_DIALOG_INTERACTION
 40: 0x1072 [0x52] END_LOAD_SCHEDULER: End scheduler "jc01" with entities [LocalPlayer, LocalPlayer], work=30*
 41: 0x1081 [0x45] LOAD_SCHEDULED_TASK: Load scheduler "jc03" with entities [LocalPlayer, LocalPlayer], work=[30*, 0*]
 42: 0x1092 [0x2B] Zuber (ID: 17776676/0x010F4024) [11796*]:
    → "It rolled away when I tried to pick it up. I'm not sure if it was yours or not."
 43: 0x1099 [0x23] WAIT_FOR_DIALOG_INTERACTION
 44: 0x109A [0x1A] CALL_SUBROUTINE(address=0x1204)
 45: 0x109D [0x1C] WAIT(30* ticks)
 46: 0x10A0 [0x52] END_LOAD_SCHEDULER: End scheduler "jc03" with entities [LocalPlayer, LocalPlayer], work=30*
 47: 0x10AF [0x45] LOAD_SCHEDULED_TASK: Load scheduler "jc02" with entities [LocalPlayer, LocalPlayer], work=[30*, 0*]
 48: 0x10C0 [0x1A] CALL_SUBROUTINE(address=0x11E3)
 49: 0x10C3 [0x2B] Zuber (ID: 17776676/0x010F4024) [11797*]:
    → "Although, the look on your face tells me..."
 50: 0x10CA [0x23] WAIT_FOR_DIALOG_INTERACTION
 51: 0x10CB [0x52] END_LOAD_SCHEDULER: End scheduler "jc02" with entities [LocalPlayer, LocalPlayer], work=30*
 52: 0x10DA [0x45] LOAD_SCHEDULED_TASK: Load scheduler "jc05" with entities [LocalPlayer, LocalPlayer], work=[30*, 0*]
 53: 0x10EB [0x6E] LocalPlayer uses emote 35*
 54: 0x10F2 [0x99] Wait for LocalPlayer animation to complete
 55: 0x10F7 [0x99] Wait for LocalPlayer animation to complete
 56: 0x10FC [0x1C] WAIT(45* ticks)
 57: 0x10FF [0x5B] LOAD_EXT_SCHEDULER: Load scheduler "thk2" with entities [Zuber (ID: 17776676/0x010F4024), Zuber (ID: 17776676/0x010F4024)], work=65*
 58: 0x110E [0x2B] Zuber (ID: 17776676/0x010F4024) [11798*]:
    → "Hm? The other rings?"
 59: 0x1115 [0x23] WAIT_FOR_DIALOG_INTERACTION
 60: 0x1116 [0x2B] Zuber (ID: 17776676/0x010F4024) [11799*]:
    → "Now, now, let's not be greedy, [sir/madame]."
 61: 0x111D [0x23] WAIT_FOR_DIALOG_INTERACTION
 62: 0x111E [0x6E] LocalPlayer uses emote 5*
 63: 0x1125 [0x99] Wait for LocalPlayer animation to complete
 64: 0x112A [0x2B] Zuber (ID: 17776676/0x010F4024) [11800*]:
    → "I made a promise to a customer--you can't ask me to break my word."
 65: 0x1131 [0x23] WAIT_FOR_DIALOG_INTERACTION
 66: 0x1132 [0x99] Wait for LocalPlayer animation to complete
 67: 0x1137 [0x52] END_LOAD_SCHEDULER: End scheduler "jc05" with entities [LocalPlayer, LocalPlayer], work=30*
 68: 0x1146 [0x45] LOAD_SCHEDULED_TASK: Load scheduler "jc06" with entities [LocalPlayer, LocalPlayer], work=[30*, 0*]
 69: 0x1157 [0x5B] LOAD_EXT_SCHEDULER: Load scheduler "gre0" with entities [Zuber (ID: 17776676/0x010F4024), Zuber (ID: 17776676/0x010F4024)], work=65*
 70: 0x1166 [0x2B] Zuber (ID: 17776676/0x010F4024) [11801*]:
    → "Who would then trust the owner of the Marble Bridge!?"
 71: 0x116D [0x23] WAIT_FOR_DIALOG_INTERACTION
 72: 0x116E [0x1A] CALL_SUBROUTINE(address=0x1204)
 73: 0x1171 [0x1C] WAIT(30* ticks)
 74: 0x1174 [0x52] END_LOAD_SCHEDULER: End scheduler "jc06" with entities [LocalPlayer, LocalPlayer], work=30*
 75: 0x1183 [0x5C] MUSIC_CONTROL: Set Idle (Day) music to song 110*
 76: 0x1187 [0x5C] MUSIC_CONTROL: Set Idle (Night) music to song 110*
 77: 0x118B [0x9A] WAIT_MUSIC_SERVER()
 78: 0x118C [0x46] CAMERA_CONTROL: Restore default settings
 79: 0x118E [0x45] LOAD_SCHEDULED_TASK: Load scheduler "fdi2" with entities [LocalPlayer, LocalPlayer], work=[200*, 0*]
 80: 0x119F [0x21] END_EVENT
 81: 0x11A0 [0x00] END_REQSTACK()

SUBROUTINE_11E3:
 82: 0x11E3 [0x45] LOAD_SCHEDULED_TASK: Load scheduler "fdi1" with entities [LocalPlayer, LocalPlayer], work=[200*, 0*]
 83: 0x11F4 [0x55] WAIT_LOAD_SCHEDULER: Wait for scheduler "fdi1" with entities [LocalPlayer, LocalPlayer], work=200*
 84: 0x1203 [0x1B] RETURN

SUBROUTINE_1204:
 85: 0x1204 [0x45] LOAD_SCHEDULED_TASK: Load scheduler "fdo1" with entities [LocalPlayer, LocalPlayer], work=[200*, 0*]
 86: 0x1215 [0x55] WAIT_LOAD_SCHEDULER: Wait for scheduler "fdo1" with entities [LocalPlayer, LocalPlayer], work=200*
 87: 0x1224 [0x1B] RETURN

SUBROUTINE_1378:
 88: 0x1378 [0x45] LOAD_SCHEDULED_TASK: Load scheduler "efon" with entities [LocalPlayer, LocalPlayer], work=[215*, 0*]
 89: 0x1389 [0x55] WAIT_LOAD_SCHEDULER: Wait for scheduler "efon" with entities [LocalPlayer, LocalPlayer], work=215*
 90: 0x1398 [0x1B] RETURN
```

#### Data or dead code:

```
# Dead code (unreachable instructions):
     0x11A1 [0x45] LOAD_SCHEDULED_TASK: Load scheduler "fdi0" with entities [LocalPlayer, LocalPlayer], work=[200*, 0*]
     0x11B2 [0x55] WAIT_LOAD_SCHEDULER: Wait for scheduler "fdi0" with entities [LocalPlayer, LocalPlayer], work=200*
     0x11C1 [0x1B] RETURN
     0x11C2 [0x45] LOAD_SCHEDULED_TASK: Load scheduler "fdo0" with entities [LocalPlayer, LocalPlayer], work=[200*, 0*]
     0x11D3 [0x55] WAIT_LOAD_SCHEDULER: Wait for scheduler "fdo0" with entities [LocalPlayer, LocalPlayer], work=200*
     0x11E2 [0x1B] RETURN
# Dead code (unreachable instructions):
     0x1225 [0x45] LOAD_SCHEDULED_TASK: Load scheduler "whi1" with entities [LocalPlayer, LocalPlayer], work=[201*, 0*]
     0x1236 [0x55] WAIT_LOAD_SCHEDULER: Wait for scheduler "whi1" with entities [LocalPlayer, LocalPlayer], work=201*
     0x1245 [0x1B] RETURN
     0x1246 [0x45] LOAD_SCHEDULED_TASK: Load scheduler "who1" with entities [LocalPlayer, LocalPlayer], work=[201*, 0*]
     0x1257 [0x55] WAIT_LOAD_SCHEDULER: Wait for scheduler "who1" with entities [LocalPlayer, LocalPlayer], work=201*
     0x1266 [0x1B] RETURN
     0x1267 [0x45] LOAD_SCHEDULED_TASK: Load scheduler "who2" with entities [LocalPlayer, LocalPlayer], work=[201*, 0*]
     0x1278 [0x55] WAIT_LOAD_SCHEDULER: Wait for scheduler "who2" with entities [LocalPlayer, LocalPlayer], work=201*
     0x1287 [0x1B] RETURN
     0x1288 [0x45] LOAD_SCHEDULED_TASK: Load scheduler "who3" with entities [LocalPlayer, LocalPlayer], work=[201*, 0*]
     0x1299 [0x55] WAIT_LOAD_SCHEDULER: Wait for scheduler "who3" with entities [LocalPlayer, LocalPlayer], work=201*
     0x12A8 [0x1B] RETURN
     0x12A9 [0x62] LOAD_EVENT_SCHEDULER: Load scheduler "main" with entities [LocalPlayer, LocalPlayer], work=[1*, 0*]
     0x12BA [0x1C] WAIT(45* ticks)
     0x12BD [0x45] LOAD_SCHEDULED_TASK: Load scheduler "fdo1" with entities [LocalPlayer, LocalPlayer], work=[200*, 0*]
     0x12CE [0x55] WAIT_LOAD_SCHEDULER: Wait for scheduler "fdo1" with entities [LocalPlayer, LocalPlayer], work=200*
     0x12DD [0x1B] RETURN
     0x12DE [0x45] LOAD_SCHEDULED_TASK: Load scheduler "fdi1" with entities [LocalPlayer, LocalPlayer], work=[200*, 0*]
     0x12EF [0x62] LOAD_EVENT_SCHEDULER: Load scheduler "main" with entities [LocalPlayer, LocalPlayer], work=[2*, 0*]
     0x1300 [0x1C] WAIT(30* ticks)
     0x1303 [0x55] WAIT_LOAD_SCHEDULER: Wait for scheduler "fdi1" with entities [LocalPlayer, LocalPlayer], work=200*
     0x1312 [0x1B] RETURN
     0x1313 [0x45] LOAD_SCHEDULED_TASK: Load scheduler "blon" with entities [LocalPlayer, LocalPlayer], work=[200*, 0*]
     0x1324 [0x45] LOAD_SCHEDULED_TASK: Load scheduler "blon" with entities [LocalPlayer, LocalPlayer], work=[201*, 0*]
     0x1335 [0x1B] RETURN
     0x1336 [0x45] LOAD_SCHEDULED_TASK: Load scheduler "whi0" with entities [LocalPlayer, LocalPlayer], work=[201*, 0*]
     0x1347 [0x55] WAIT_LOAD_SCHEDULER: Wait for scheduler "whi0" with entities [LocalPlayer, LocalPlayer], work=201*
     0x1356 [0x1B] RETURN
     0x1357 [0x45] LOAD_SCHEDULED_TASK: Load scheduler "who0" with entities [LocalPlayer, LocalPlayer], work=[201*, 0*]
     0x1368 [0x55] WAIT_LOAD_SCHEDULER: Wait for scheduler "who0" with entities [LocalPlayer, LocalPlayer], work=201*
     0x1377 [0x1B] RETURN
# Dead code (unreachable instructions):
     0x1399 [0x45] LOAD_SCHEDULED_TASK: Load scheduler "fdis" with entities [LocalPlayer, LocalPlayer], work=[200*, 0*]
     0x13AA [0x1B] RETURN
     0x13AB [0x45] LOAD_SCHEDULED_TASK: Load scheduler "fdos" with entities [LocalPlayer, LocalPlayer], work=[200*, 0*]
     0x13BC [0x55] WAIT_LOAD_SCHEDULER: Wait for scheduler "fdos" with entities [LocalPlayer, LocalPlayer], work=200*
     0x13CB [0x1B] RETURN
     0x13CC [0x45] LOAD_SCHEDULED_TASK: Load scheduler "fdif" with entities [LocalPlayer, LocalPlayer], work=[200*, 0*]
     0x13DD [0x1B] RETURN
     0x13DE [0x45] LOAD_SCHEDULED_TASK: Load scheduler "fdof" with entities [LocalPlayer, LocalPlayer], work=[200*, 0*]
     0x13EF [0x55] WAIT_LOAD_SCHEDULER: Wait for scheduler "fdof" with entities [LocalPlayer, LocalPlayer], work=200*
     0x13FE [0x1B] RETURN
     0x13FF [0x45] LOAD_SCHEDULED_TASK: Load scheduler "fdip" with entities [LocalPlayer, LocalPlayer], work=[200*, 0*]
     0x1410 [0x1B] RETURN
     0x1411 [0x45] LOAD_SCHEDULED_TASK: Load scheduler "fdop" with entities [LocalPlayer, LocalPlayer], work=[200*, 0*]
     0x1422 [0x55] WAIT_LOAD_SCHEDULER: Wait for scheduler "fdop" with entities [LocalPlayer, LocalPlayer], work=200*
     0x1431 [0x1B] RETURN
```
