# 17776697

## Common Data

| Field            | Value                 |
|------------------|-----------------------|
| Zone             | Upper Jeuno (ID: 244) |
| Block Size       | 488 bytes             |
| Total Events     | 12                    |
| References Count | 28                    |

## List of Events

| Event ID                 | Entrypoint   |   Size |   Instructions |
|--------------------------|--------------|--------|----------------|
| [65535](#event-65535)    | 0x0000       |     13 |              3 |
| [10](#event-10)          | 0x000D       |     16 |              3 |
| [207](#event-207)        | 0x001D       |      7 |              2 |
| [65535.1](#event-655351) | 0x0024       |     16 |              2 |
| [65535.2](#event-655352) | 0x0034       |    109 |             21 |
| [65535.3](#event-655353) | 0x00A1       |     16 |              2 |
| [65535.4](#event-655354) | 0x00B1       |     16 |              2 |
| [65535.5](#event-655355) | 0x00C1       |     49 |              6 |
| [65535.6](#event-655356) | 0x00F2       |      4 |              2 |
| [65535.7](#event-655357) | 0x00F6       |     26 |              7 |
| [2](#event-2)            | 0x0110       |     20 |              5 |
| [65535.8](#event-655358) | 0x0124       |     19 |              3 |

## DAT References (imed_data)

|   Index | Hex Value   |   Dec Value |
|---------|-------------|-------------|
|       0 | 0xFFFF3D34  |  4294917428 |
|       1 | 0xFFFFF1AE  |  4294963630 |
|       2 | 0xFFFFFE0D  |  4294966797 |
|       3 | 0x0EA9      |        3753 |
|       4 | 0x01CE      |         462 |
|       5 | 0x0BB8      |        3000 |
|       6 | 0x000D      |          13 |
|       7 | 0x0005      |           5 |
|       8 | 0xFFFF170E  |  4294907662 |
|       9 | 0x15BE      |        5566 |
|      10 | 0xFFFFFE0C  |  4294966796 |
|      11 | 0x0AA7      |        2727 |
|      12 | 0x01CA      |         458 |
|      13 | 0x0000      |           0 |
|      14 | 0x0001      |           1 |
|      15 | 0x0028      |          40 |
|      16 | 0xFFFF0BAB  |  4294904747 |
|      17 | 0x29C3      |       10691 |
|      18 | 0x03E8      |        1000 |
|      19 | 0xFFFF2C37  |  4294913079 |
|      20 | 0x5A32      |       23090 |
|      21 | 0x03E7      |         999 |
|      22 | 0xFFFF1B87  |  4294908807 |
|      23 | 0xFFFFD113  |  4294955283 |
|      24 | 0xFFFFFB4D  |  4294966093 |
|      25 | 0x0AA1      |        2721 |
|      26 | 0x01C8      |         456 |
|      27 | 0x000A      |          10 |

## Events

### Event 65535

#### Metadata

| Field        | Value    |
|--------------|----------|
| Entrypoint   | 0x0000   |
| Data Size    | 13 bytes |
| Instructions | 3        |

```
      00 01 02 03 04 05 06 07  08 09 0A 0B 0C 0D 0E 0F
      -- -- -- -- -- -- -- --  -- -- -- -- -- -- -- --
0000: 92 01 F8 FF FF 7F 94 01  F8 FF FF 7F 00           .............   
```

#### Opcodes

```
  0: 0x0000 [0x92] EventEntity->Render.Flags3 ^= 0x01
  1: 0x0006 [0x94] EventEntity->Render.Flags3 ^= 0x01
  2: 0x000C [0x00] END_REQSTACK()
```

### Event 10

#### Metadata

| Field        | Value    |
|--------------|----------|
| Entrypoint   | 0x000D   |
| Data Size    | 16 bytes |
| Instructions | 3        |

```
      00 01 02 03 04 05 06 07  08 09 0A 0B 0C 0D 0E 0F
      -- -- -- -- -- -- -- --  -- -- -- -- -- -- -- --
0000:                                         37 00 80               7..
0010: 01 80 02 80 03 80 81 00  F8 FF FF 7F 00           .............   
```

#### Opcodes

```
  0: 0x000D [0x37] UPDATE_EVENT_POSITION_AND_DIR: x=-49.868*, z=-3.666*, y=-0.499*, direction=329.8°*
  1: 0x0016 [0x81] SET_ENTITY_BLINKING(blink_flag=0x00, entity=EventEntity)
  2: 0x001C [0x00] END_REQSTACK()
```

### Event 207

#### Metadata

| Field        | Value   |
|--------------|---------|
| Entrypoint   | 0x001D  |
| Data Size    | 7 bytes |
| Instructions | 2       |

```
      00 01 02 03 04 05 06 07  08 09 0A 0B 0C 0D 0E 0F
      -- -- -- -- -- -- -- --  -- -- -- -- -- -- -- --
0010:                                         81 00 F8               ...
0020: FF FF 7F 00                                       ....            
```

#### Opcodes

```
  0: 0x001D [0x81] SET_ENTITY_BLINKING(blink_flag=0x00, entity=EventEntity)
  1: 0x0023 [0x00] END_REQSTACK()
```

### Event 65535.1

#### Metadata

| Field        | Value    |
|--------------|----------|
| Entrypoint   | 0x0024   |
| Data Size    | 16 bytes |
| Instructions | 2        |

```
      00 01 02 03 04 05 06 07  08 09 0A 0B 0C 0D 0E 0F
      -- -- -- -- -- -- -- --  -- -- -- -- -- -- -- --
0020:             5B 04 80 F8  FF FF 7F F8 FF FF 7F 61      [..........a
0030: 6D 75 30 00                                       mu0.            
```

#### Opcodes

```
  0: 0x0024 [0x5B] LOAD_EXT_SCHEDULER: Load scheduler "amu0" with entities [EventEntity, EventEntity], work=462*
  1: 0x0033 [0x00] END_REQSTACK()
```

### Event 65535.2

#### Metadata

| Field        | Value     |
|--------------|-----------|
| Entrypoint   | 0x0034    |
| Data Size    | 109 bytes |
| Instructions | 16        |

```
      00 01 02 03 04 05 06 07  08 09 0A 0B 0C 0D 0E 0F
      -- -- -- -- -- -- -- --  -- -- -- -- -- -- -- --
0030:             03 00 00 05  80 1A 5D 00 32 06 80 1F      ......].2...
0040: 00 01 00 02 00 03 00 1F  01 6F 1C 07 80 5B 04 80  .........o...[..
0050: F8 FF FF 7F F8 FF FF 7F  61 6D 75 30 00 3B F8 FF  ........amu0.;..
0060: FF 7F 01 00 02 00 03 00  3A F8 FF FF 7F 04 00 17  ........:.......
0070: 05 00 04 00 00 00 16 06  00 04 00 00 00 07 01 00  ................
0080: 05 00 07 02 00 06 00 1B  17 05 00 04 00 00 00 16  ................
0090: 06 00 04 00 00 00 07 01  00 05 00 07 02 00 06 00  ................
00A0: 1B                                                .               
```

#### Opcodes

```
  0: 0x0034 [0x03] ExtData[1]->WorkLocal[0] = 3000*
  1: 0x0039 [0x1A] CALL_SUBROUTINE(address=0x005D)
  2: 0x003C [0x32] ExtData[1]->MainSpeed = 13* * 0.1
  3: 0x003F [0x1F] MOVE_ENTITY: EventEntity moves to X=ExtData[1]->WorkLocal[1], Z=ExtData[1]->WorkLocal[2], Y=ExtData[1]->WorkLocal[3]
  4: 0x0047 [0x1F] MOVE_ENTITY: Update entity position (mode=1)
  5: 0x0049 [0x6F] WAIT_FRAME_DELAY: Yield until WaitTime reaches zero
  6: 0x004A [0x1C] WAIT(5* ticks)
  7: 0x004D [0x5B] LOAD_EXT_SCHEDULER: Load scheduler "amu0" with entities [EventEntity, EventEntity], work=462*
  8: 0x005C [0x00] END_REQSTACK()

SUBROUTINE_005D:
  9: 0x005D [0x3B] GET_ENTITY_POSITION(entity=EventEntity, x_destination=ExtData[1]->WorkLocal[1], y_destination=ExtData[1]->WorkLocal[2], z_destination=ExtData[1]->WorkLocal[3])
 10: 0x0068 [0x3A] CONVERT_YAW_TO_BYTE(entity=EventEntity, result_destination=ExtData[1]->WorkLocal[4])
 11: 0x006F [0x17] ExtData[1]->WorkLocal[5] = cos(ExtData[1]->WorkLocal[4]) * ExtData[1]->WorkLocal[0]
 12: 0x0076 [0x16] ExtData[1]->WorkLocal[6] = sin(ExtData[1]->WorkLocal[4]) * ExtData[1]->WorkLocal[0]
 13: 0x007D [0x07] ExtData[1]->WorkLocal[1] += ExtData[1]->WorkLocal[5]
 14: 0x0082 [0x07] ExtData[1]->WorkLocal[2] += ExtData[1]->WorkLocal[6]
 15: 0x0087 [0x1B] RETURN
```

#### Data or dead code:

```
# Dead code (unreachable instructions):
     0x0088 [0x17] ExtData[1]->WorkLocal[5] = cos(ExtData[1]->WorkLocal[4]) * ExtData[1]->WorkLocal[0]
     0x008F [0x16] ExtData[1]->WorkLocal[6] = sin(ExtData[1]->WorkLocal[4]) * ExtData[1]->WorkLocal[0]
     0x0096 [0x07] ExtData[1]->WorkLocal[1] += ExtData[1]->WorkLocal[5]
     0x009B [0x07] ExtData[1]->WorkLocal[2] += ExtData[1]->WorkLocal[6]
     0x00A0 [0x1B] RETURN
```

### Event 65535.3

#### Metadata

| Field        | Value    |
|--------------|----------|
| Entrypoint   | 0x00A1   |
| Data Size    | 16 bytes |
| Instructions | 2        |

```
      00 01 02 03 04 05 06 07  08 09 0A 0B 0C 0D 0E 0F
      -- -- -- -- -- -- -- --  -- -- -- -- -- -- -- --
00A0:    5B 04 80 F8 FF FF 7F  F8 FF FF 7F 61 6D 75 31   [..........amu1
00B0: 00                                                .               
```

#### Opcodes

```
  0: 0x00A1 [0x5B] LOAD_EXT_SCHEDULER: Load scheduler "amu1" with entities [EventEntity, EventEntity], work=462*
  1: 0x00B0 [0x00] END_REQSTACK()
```

### Event 65535.4

#### Metadata

| Field        | Value    |
|--------------|----------|
| Entrypoint   | 0x00B1   |
| Data Size    | 16 bytes |
| Instructions | 2        |

```
      00 01 02 03 04 05 06 07  08 09 0A 0B 0C 0D 0E 0F
      -- -- -- -- -- -- -- --  -- -- -- -- -- -- -- --
00B0:    5B 04 80 F8 FF FF 7F  F8 FF FF 7F 61 6D 75 32   [..........amu2
00C0: 00                                                .               
```

#### Opcodes

```
  0: 0x00B1 [0x5B] LOAD_EXT_SCHEDULER: Load scheduler "amu2" with entities [EventEntity, EventEntity], work=462*
  1: 0x00C0 [0x00] END_REQSTACK()
```

### Event 65535.5

#### Metadata

| Field        | Value    |
|--------------|----------|
| Entrypoint   | 0x00C1   |
| Data Size    | 49 bytes |
| Instructions | 6        |

```
      00 01 02 03 04 05 06 07  08 09 0A 0B 0C 0D 0E 0F
      -- -- -- -- -- -- -- --  -- -- -- -- -- -- -- --
00C0:    37 08 80 09 80 0A 80  0B 80 2C F8 FF FF 7F F8   7........,.....
00D0: FF FF 7F 77 6F 66 32 5B  0C 80 F8 FF FF 7F F8 FF  ...wof2[........
00E0: FF 7F 63 34 30 34 6C F8  FF FF 7F 0D 80 0E 80 22  ..c404l........"
00F0: 00 00                                             ..              
```

#### Opcodes

```
  0: 0x00C1 [0x37] UPDATE_EVENT_POSITION_AND_DIR: x=-59.634*, z=5.566*, y=-0.500*, direction=239.7°*
  1: 0x00CA [0x2C] CREATE_SCHEDULER_TASK: Create scheduler "wof2" with entities [EventEntity, EventEntity]
  2: 0x00D7 [0x5B] LOAD_EXT_SCHEDULER: Load scheduler "c404" with entities [EventEntity, EventEntity], work=458*
  3: 0x00E6 [0x6C] FADE_ENTITY_COLOR(entity_id=EventEntity, end_alpha=0*, fade_time=1*)
  4: 0x00EF [0x22] ENTITY_HIDE_FLAG(enabled=0x00)
  5: 0x00F1 [0x00] END_REQSTACK()
```

### Event 65535.6

#### Metadata

| Field        | Value   |
|--------------|---------|
| Entrypoint   | 0x00F2  |
| Data Size    | 4 bytes |
| Instructions | 2       |

```
      00 01 02 03 04 05 06 07  08 09 0A 0B 0C 0D 0E 0F
      -- -- -- -- -- -- -- --  -- -- -- -- -- -- -- --
00F0:       32 0F 80 00                                   2...          
```

#### Opcodes

```
  0: 0x00F2 [0x32] ExtData[1]->MainSpeed = 40* * 0.1
  1: 0x00F5 [0x00] END_REQSTACK()
```

### Event 65535.7

#### Metadata

| Field        | Value    |
|--------------|----------|
| Entrypoint   | 0x00F6   |
| Data Size    | 26 bytes |
| Instructions | 7        |

```
      00 01 02 03 04 05 06 07  08 09 0A 0B 0C 0D 0E 0F
      -- -- -- -- -- -- -- --  -- -- -- -- -- -- -- --
00F0:                   32 06  80 1F 00 10 80 11 80 12        2.........
0100: 80 1F 01 1F 00 13 80 14  80 15 80 1F 01 22 01 00  ............."..
```

#### Opcodes

```
  0: 0x00F6 [0x32] ExtData[1]->MainSpeed = 13* * 0.1
  1: 0x00F9 [0x1F] MOVE_ENTITY: EventEntity moves to X=-62.549*, Z=10.691*, Y=1.000*
  2: 0x0101 [0x1F] MOVE_ENTITY: Update entity position (mode=1)
  3: 0x0103 [0x1F] MOVE_ENTITY: EventEntity moves to X=-54.217*, Z=23.090*, Y=0.999*
  4: 0x010B [0x1F] MOVE_ENTITY: Update entity position (mode=1)
  5: 0x010D [0x22] ENTITY_HIDE_FLAG(enabled=0x01)
  6: 0x010F [0x00] END_REQSTACK()
```

### Event 2

#### Metadata

| Field        | Value    |
|--------------|----------|
| Entrypoint   | 0x0110   |
| Data Size    | 20 bytes |
| Instructions | 5        |

```
      00 01 02 03 04 05 06 07  08 09 0A 0B 0C 0D 0E 0F
      -- -- -- -- -- -- -- --  -- -- -- -- -- -- -- --
0110: 22 00 33 01 37 16 80 17  80 18 80 19 80 81 00 F8  ".3.7...........
0120: FF FF 7F 00                                       ....            
```

#### Opcodes

```
  0: 0x0110 [0x22] ENTITY_HIDE_FLAG(enabled=0x00)
  1: 0x0112 [0x33] EventEntity->Render.Flags0 |= 0x200000 // Bit 21 (flag=0x01)
  2: 0x0114 [0x37] UPDATE_EVENT_POSITION_AND_DIR: x=-58.489*, z=-12.013*, y=-1.203*, direction=239.1°*
  3: 0x011D [0x81] SET_ENTITY_BLINKING(blink_flag=0x00, entity=EventEntity)
  4: 0x0123 [0x00] END_REQSTACK()
```

### Event 65535.8

#### Metadata

| Field        | Value    |
|--------------|----------|
| Entrypoint   | 0x0124   |
| Data Size    | 19 bytes |
| Instructions | 3        |

```
      00 01 02 03 04 05 06 07  08 09 0A 0B 0C 0D 0E 0F
      -- -- -- -- -- -- -- --  -- -- -- -- -- -- -- --
0120:             5B 1A 80 F8  FF FF 7F F8 FF FF 7F 73      [..........s
0130: 6C 70 30 1C 1B 80 00                              lp0....         
```

#### Opcodes

```
  0: 0x0124 [0x5B] LOAD_EXT_SCHEDULER: Load scheduler "slp0" with entities [EventEntity, EventEntity], work=456*
  1: 0x0133 [0x1C] WAIT(10* ticks)
  2: 0x0136 [0x00] END_REQSTACK()
```
