# 17776659 - Baudin

## Common Data

| Field            | Value                 |
|------------------|-----------------------|
| Zone             | Upper Jeuno (ID: 244) |
| Block Size       | 856 bytes             |
| Total Events     | 33                    |
| References Count | 54                    |

## List of Events

| Event ID                   | Entrypoint   |   Size |   Instructions |
|----------------------------|--------------|--------|----------------|
| [65535](#event-65535)      | 0x0000       |      4 |              2 |
| [173](#event-173)          | 0x0004       |      1 |              1 |
| [174](#event-174)          | 0x0005       |      1 |              1 |
| [175](#event-175)          | 0x0006       |     21 |              7 |
| [171](#event-171)          | 0x001B       |      1 |              1 |
| [172](#event-172)          | 0x001C       |     15 |              7 |
| [105](#event-105)          | 0x002B       |      1 |              1 |
| [122](#event-122)          | 0x002C       |     15 |              5 |
| [27](#event-27)            | 0x003B       |     15 |              5 |
| [107](#event-107)          | 0x004A       |      1 |              1 |
| [176](#event-176)          | 0x004B       |     11 |              5 |
| [177](#event-177)          | 0x0056       |     37 |             15 |
| [65535.1](#event-655351)   | 0x007B       |     12 |              4 |
| [65535.2](#event-655352)   | 0x0087       |     36 |              6 |
| [65535.3](#event-655353)   | 0x00AB       |     12 |              4 |
| [65535.4](#event-655354)   | 0x00B7       |     19 |              3 |
| [65535.5](#event-655355)   | 0x00CA       |     29 |              3 |
| [65535.6](#event-655356)   | 0x00E7       |     19 |              3 |
| [65535.7](#event-655357)   | 0x00FA       |     29 |              3 |
| [65535.8](#event-655358)   | 0x0117       |     29 |              3 |
| [65535.9](#event-655359)   | 0x0134       |      9 |              3 |
| [65535.10](#event-6553510) | 0x013D       |      1 |              1 |
| [65535.11](#event-6553511) | 0x013E       |      1 |              1 |
| [65535.12](#event-6553512) | 0x013F       |      1 |              1 |
| [65535.13](#event-6553513) | 0x0140       |     10 |              2 |
| [65535.14](#event-6553514) | 0x014A       |     15 |              3 |
| [65535.15](#event-6553515) | 0x0159       |     30 |              8 |
| [65535.16](#event-6553516) | 0x0177       |     55 |             13 |
| [65535.17](#event-6553517) | 0x01AE       |     12 |              4 |
| [65535.18](#event-6553518) | 0x01BA       |     10 |              2 |
| [65535.19](#event-6553519) | 0x01C4       |     10 |              2 |
| [65535.20](#event-6553520) | 0x01CE       |     26 |              8 |
| [10221](#event-10221)      | 0x01E8       |      1 |              1 |

## DAT References (imed_data)

|   Index | Hex Value   |   Dec Value |
|---------|-------------|-------------|
|       0 | 0x000D      |          13 |
|       1 | 0x1119      |        4377 |
|       2 | 0x0015      |          21 |
|       3 | 0x1C9C      |        7324 |
|       4 | 0x1CAD      |        7341 |
|       5 | 0x1CAE      |        7342 |
|       6 | 0x1CC4      |        7364 |
|       7 | 0x1CC5      |        7365 |
|       8 | 0x1CF5      |        7413 |
|       9 | 0x1CF6      |        7414 |
|      10 | 0x1CF7      |        7415 |
|      11 | 0x0000      |           0 |
|      12 | 0x1B5D      |        7005 |
|      13 | 0x1B5E      |        7006 |
|      14 | 0xFFFEB745  |  4294883141 |
|      15 | 0x11EE0     |       73440 |
|      16 | 0xFFFFFB50  |  4294966096 |
|      17 | 0x005A      |          90 |
|      18 | 0x0019      |          25 |
|      19 | 0x004B      |          75 |
|      20 | 0x001E      |          30 |
|      21 | 0x004C      |          76 |
|      22 | 0x003C      |          60 |
|      23 | 0xFFFED6B9  |  4294891193 |
|      24 | 0x13463     |       78947 |
|      25 | 0xFFFFFB51  |  4294966097 |
|      26 | 0x06C0      |        1728 |
|      27 | 0xFFFED581  |  4294890881 |
|      28 | 0x1388B     |       80011 |
|      29 | 0x0E82      |        3714 |
|      30 | 0xFFFED3D4  |  4294890452 |
|      31 | 0x13255     |       78421 |
|      32 | 0xFFFEC8F0  |  4294887664 |
|      33 | 0x12CE9     |       77033 |
|      34 | 0xFFFECA90  |  4294888080 |
|      35 | 0x118CC     |       71884 |
|      36 | 0xFFFFFB46  |  4294966086 |
|      37 | 0xFFFEC225  |  4294885925 |
|      38 | 0x114F3     |       70899 |
|      39 | 0xFFFFFB47  |  4294966087 |
|      40 | 0xFFFEBDFD  |  4294884861 |
|      41 | 0x11635     |       71221 |
|      42 | 0xFFFEBA38  |  4294883896 |
|      43 | 0x11B46     |       72518 |
|      44 | 0xFFFEBA6C  |  4294883948 |
|      45 | 0x11D7C     |       73084 |
|      46 | 0xFFFEB5DF  |  4294882783 |
|      47 | 0x11D4B     |       73035 |
|      48 | 0x0EB9      |        3769 |
|      49 | 0xFFFEB5E4  |  4294882788 |
|      50 | 0x11D47     |       73031 |
|      51 | 0x0EFD      |        3837 |
|      52 | 0xFFFEB884  |  4294883460 |
|      53 | 0x119A9     |       72105 |

## String References

- **7005**: The petition is complete!
- **7006**: You have $0 more [signature/signatures] to go.
- **7324**: Did you find $6? I've heard there are coeurls on the Sauromugue Champaign. Be careful!
- **7341**: I don't like to show her like this, but I don't know what to do anymore.
- **7342**: That fianc<Player>i of hers, Albrecht, is always at the temple.
- **7413**: Looks like she's okay now. Thanks for helping us out. It's been forever since I've seen her smile.
- **7414**: What? The clock tower!? Galmut once showed me inside. It was dark and grimy and smelled like oil, but Galmut knew it inside and out.
- **7415**: You bet I'll sign! Also, here's a secret: Galmut used to have a crush on my sister!

## Events

### Event 65535

#### Metadata

| Field        | Value   |
|--------------|---------|
| Entrypoint   | 0x0000  |
| Data Size    | 4 bytes |
| Instructions | 2       |

```
      00 01 02 03 04 05 06 07  08 09 0A 0B 0C 0D 0E 0F
      -- -- -- -- -- -- -- --  -- -- -- -- -- -- -- --
0000: 32 00 80 00                                       2...            
```

#### Opcodes

```
  0: 0x0000 [0x32] ExtData[1]->MainSpeed = 13* * 0.1
  1: 0x0003 [0x00] END_REQSTACK()
```

### Event 173

#### Metadata

| Field        | Value   |
|--------------|---------|
| Entrypoint   | 0x0004  |
| Data Size    | 1 bytes |
| Instructions | 1       |

```
      00 01 02 03 04 05 06 07  08 09 0A 0B 0C 0D 0E 0F
      -- -- -- -- -- -- -- --  -- -- -- -- -- -- -- --
0000:             00                                        .           
```

#### Opcodes

```
  0: 0x0004 [0x00] END_REQSTACK()
```

### Event 174

#### Metadata

| Field        | Value   |
|--------------|---------|
| Entrypoint   | 0x0005  |
| Data Size    | 1 bytes |
| Instructions | 1       |

```
      00 01 02 03 04 05 06 07  08 09 0A 0B 0C 0D 0E 0F
      -- -- -- -- -- -- -- --  -- -- -- -- -- -- -- --
0000:                00                                      .          
```

#### Opcodes

```
  0: 0x0005 [0x00] END_REQSTACK()
```

### Event 175

#### Metadata

| Field        | Value    |
|--------------|----------|
| Entrypoint   | 0x0006   |
| Data Size    | 21 bytes |
| Instructions | 7        |

```
      00 01 02 03 04 05 06 07  08 09 0A 0B 0C 0D 0E 0F
      -- -- -- -- -- -- -- --  -- -- -- -- -- -- -- --
0000:                   03 08  10 01 80 03 09 10 02 80        ..........
0010: 1E F0 FF FF 7F 1D 03 80  23 21 00                 ........#!.     
```

#### Opcodes

```
  0: 0x0006 [0x03] Work_Zone[8] = 4377*
  1: 0x000B [0x03] Work_Zone[9] = 21*
  2: 0x0010 [0x1E] EventEntity looks at LocalPlayer and starts talking
  3: 0x0015 [0x1D] PRINT_EVENT_MESSAGE(message_id=7324*)
    → "Did you find $6? I've heard there are coeurls on the Sauromugue Champaign. Be careful!"
  4: 0x0018 [0x23] WAIT_FOR_DIALOG_INTERACTION
  5: 0x0019 [0x21] END_EVENT
  6: 0x001A [0x00] END_REQSTACK()
```

### Event 171

#### Metadata

| Field        | Value   |
|--------------|---------|
| Entrypoint   | 0x001B  |
| Data Size    | 1 bytes |
| Instructions | 1       |

```
      00 01 02 03 04 05 06 07  08 09 0A 0B 0C 0D 0E 0F
      -- -- -- -- -- -- -- --  -- -- -- -- -- -- -- --
0010:                                   00                         .    
```

#### Opcodes

```
  0: 0x001B [0x00] END_REQSTACK()
```

### Event 172

#### Metadata

| Field        | Value    |
|--------------|----------|
| Entrypoint   | 0x001C   |
| Data Size    | 15 bytes |
| Instructions | 7        |

```
      00 01 02 03 04 05 06 07  08 09 0A 0B 0C 0D 0E 0F
      -- -- -- -- -- -- -- --  -- -- -- -- -- -- -- --
0010:                                      1E F0 FF FF              ....
0020: 7F 1D 04 80 23 1D 05 80  23 21 00                 ....#...#!.     
```

#### Opcodes

```
  0: 0x001C [0x1E] EventEntity looks at LocalPlayer and starts talking
  1: 0x0021 [0x1D] PRINT_EVENT_MESSAGE(message_id=7341*)
    → "I don't like to show her like this, but I don't know what to do anymore."
  2: 0x0024 [0x23] WAIT_FOR_DIALOG_INTERACTION
  3: 0x0025 [0x1D] PRINT_EVENT_MESSAGE(message_id=7342*)
    → "That fianc<Player>i of hers, Albrecht, is always at the temple."
  4: 0x0028 [0x23] WAIT_FOR_DIALOG_INTERACTION
  5: 0x0029 [0x21] END_EVENT
  6: 0x002A [0x00] END_REQSTACK()
```

### Event 105

#### Metadata

| Field        | Value   |
|--------------|---------|
| Entrypoint   | 0x002B  |
| Data Size    | 1 bytes |
| Instructions | 1       |

```
      00 01 02 03 04 05 06 07  08 09 0A 0B 0C 0D 0E 0F
      -- -- -- -- -- -- -- --  -- -- -- -- -- -- -- --
0020:                                   00                         .    
```

#### Opcodes

```
  0: 0x002B [0x00] END_REQSTACK()
```

### Event 122

#### Metadata

| Field        | Value    |
|--------------|----------|
| Entrypoint   | 0x002C   |
| Data Size    | 15 bytes |
| Instructions | 5        |

```
      00 01 02 03 04 05 06 07  08 09 0A 0B 0C 0D 0E 0F
      -- -- -- -- -- -- -- --  -- -- -- -- -- -- -- --
0020:                                      1E F0 FF FF              ....
0030: 7F 2B 13 40 0F 01 06 80  23 21 00                 .+.@....#!.     
```

#### Opcodes

```
  0: 0x002C [0x1E] EventEntity looks at LocalPlayer and starts talking
  1: 0x0031 [0x2B] Baudin (ID: 17776659/0x010F4013) [7364*]:
    → "I wish I knew what to do... If you ever find a cure for my sister, please let me know."
  2: 0x0038 [0x23] WAIT_FOR_DIALOG_INTERACTION
  3: 0x0039 [0x21] END_EVENT
  4: 0x003A [0x00] END_REQSTACK()
```

### Event 27

#### Metadata

| Field        | Value    |
|--------------|----------|
| Entrypoint   | 0x003B   |
| Data Size    | 15 bytes |
| Instructions | 5        |

```
      00 01 02 03 04 05 06 07  08 09 0A 0B 0C 0D 0E 0F
      -- -- -- -- -- -- -- --  -- -- -- -- -- -- -- --
0030:                                   1E F0 FF FF 7F             .....
0040: 2B 13 40 0F 01 07 80 23  21 00                    +.@....#!.      
```

#### Opcodes

```
  0: 0x003B [0x1E] EventEntity looks at LocalPlayer and starts talking
  1: 0x0040 [0x2B] Baudin (ID: 17776659/0x010F4013) [7365*]:
    → "Oh, you think that could cure her? I heard it's a terrible place, so be very, very careful. I'll pray for your safety!"
  2: 0x0047 [0x23] WAIT_FOR_DIALOG_INTERACTION
  3: 0x0048 [0x21] END_EVENT
  4: 0x0049 [0x00] END_REQSTACK()
```

### Event 107

#### Metadata

| Field        | Value   |
|--------------|---------|
| Entrypoint   | 0x004A  |
| Data Size    | 1 bytes |
| Instructions | 1       |

```
      00 01 02 03 04 05 06 07  08 09 0A 0B 0C 0D 0E 0F
      -- -- -- -- -- -- -- --  -- -- -- -- -- -- -- --
0040:                                00                           .     
```

#### Opcodes

```
  0: 0x004A [0x00] END_REQSTACK()
```

### Event 176

#### Metadata

| Field        | Value    |
|--------------|----------|
| Entrypoint   | 0x004B   |
| Data Size    | 11 bytes |
| Instructions | 5        |

```
      00 01 02 03 04 05 06 07  08 09 0A 0B 0C 0D 0E 0F
      -- -- -- -- -- -- -- --  -- -- -- -- -- -- -- --
0040:                                   1E F0 FF FF 7F             .....
0050: 1D 08 80 23 21 00                                 ...#!.          
```

#### Opcodes

```
  0: 0x004B [0x1E] EventEntity looks at LocalPlayer and starts talking
  1: 0x0050 [0x1D] PRINT_EVENT_MESSAGE(message_id=7413*)
    → "Looks like she's okay now. Thanks for helping us out. It's been forever since I've seen her smile."
  2: 0x0053 [0x23] WAIT_FOR_DIALOG_INTERACTION
  3: 0x0054 [0x21] END_EVENT
  4: 0x0055 [0x00] END_REQSTACK()
```

### Event 177

#### Metadata

| Field        | Value    |
|--------------|----------|
| Entrypoint   | 0x0056   |
| Data Size    | 37 bytes |
| Instructions | 15       |

```
      00 01 02 03 04 05 06 07  08 09 0A 0B 0C 0D 0E 0F
      -- -- -- -- -- -- -- --  -- -- -- -- -- -- -- --
0050:                   20 01  42 1E F0 FF FF 7F 1D 09         .B.......
0060: 80 23 1D 0A 80 23 02 02  10 0B 80 00 75 00 48 0C  .#...#......u.H.
0070: 80 23 01 79 00 48 0D 80  23 21 00                 .#.y.H..#!.     
```

#### Opcodes

```
  0: 0x0056 [0x20] SET_CLI_EVENT_UC_FLAG: Lock player control
  1: 0x0058 [0x42] SET_CLI_EVENT_CANCEL_DATA()
  2: 0x0059 [0x1E] EventEntity looks at LocalPlayer and starts talking
  3: 0x005E [0x1D] PRINT_EVENT_MESSAGE(message_id=7414*)
    → "What? The clock tower!? Galmut once showed me inside. It was dark and grimy and smelled like oil, but Galmut knew it inside and out."
  4: 0x0061 [0x23] WAIT_FOR_DIALOG_INTERACTION
  5: 0x0062 [0x1D] PRINT_EVENT_MESSAGE(message_id=7415*)
    → "You bet I'll sign! Also, here's a secret: Galmut used to have a crush on my sister!"
  6: 0x0065 [0x23] WAIT_FOR_DIALOG_INTERACTION
  7: 0x0066 [0x02] IF !(Work_Zone[2] == 0*) GOTO 0x0075
  8: 0x006E [0x48] [System] [7005*]:
    → "The petition is complete!"
  9: 0x0071 [0x23] WAIT_FOR_DIALOG_INTERACTION
 10: 0x0072 [0x01] GOTO 0x0079
 11: 0x0075 [0x48] [System] [7006*]:
    → "You have $0 more [signature/signatures] to go."
 12: 0x0078 [0x23] WAIT_FOR_DIALOG_INTERACTION

SUBROUTINE_0079:
 13: 0x0079 [0x21] END_EVENT
 14: 0x007A [0x00] END_REQSTACK()
```

### Event 65535.1

#### Metadata

| Field        | Value    |
|--------------|----------|
| Entrypoint   | 0x007B   |
| Data Size    | 12 bytes |
| Instructions | 4        |

```
      00 01 02 03 04 05 06 07  08 09 0A 0B 0C 0D 0E 0F
      -- -- -- -- -- -- -- --  -- -- -- -- -- -- -- --
0070:                                   1F 00 0E 80 0F             .....
0080: 80 10 80 1F 01 6F 00                              .....o.         
```

#### Opcodes

```
  0: 0x007B [0x1F] MOVE_ENTITY: EventEntity moves to X=-84.155*, Z=73.440*, Y=-1.200*
  1: 0x0083 [0x1F] MOVE_ENTITY: Update entity position (mode=1)
  2: 0x0085 [0x6F] WAIT_FRAME_DELAY: Yield until WaitTime reaches zero
  3: 0x0086 [0x00] END_REQSTACK()
```

### Event 65535.2

#### Metadata

| Field        | Value    |
|--------------|----------|
| Entrypoint   | 0x0087   |
| Data Size    | 36 bytes |
| Instructions | 6        |

```
      00 01 02 03 04 05 06 07  08 09 0A 0B 0C 0D 0E 0F
      -- -- -- -- -- -- -- --  -- -- -- -- -- -- -- --
0080:                      1C  11 80 3B 19 40 0F 01 00         ...;.@...
0090: 00 01 00 02 00 31 00 00  00 01 00 02 00 12 80 31  .....1.........1
00A0: 01 4A 1A 40 0F 01 13 40  0F 01 00                 .J.@...@...     
```

#### Opcodes

```
  0: 0x0087 [0x1C] WAIT(90* ticks)
  1: 0x008A [0x3B] GET_ENTITY_POSITION(entity=Albrecht (ID: 17776665/0x010F4019), x_destination=ExtData[1]->WorkLocal[0], y_destination=ExtData[1]->WorkLocal[1], z_destination=ExtData[1]->WorkLocal[2])
  2: 0x0095 [0x31] UPDATE_ENTITY_POSITION: Set EventEntity goal position to X=ExtData[1]->WorkLocal[0], Z=ExtData[1]->WorkLocal[1], Y=ExtData[1]->WorkLocal[2], Time=25*
  3: 0x009F [0x31] UPDATE_ENTITY_POSITION: Move EventEntity towards goal position
  4: 0x00A1 [0x4A] Alista (ID: 17776666/0x010F401A) looks at Baudin (ID: 17776659/0x010F4013)
  5: 0x00AA [0x00] END_REQSTACK()
```

### Event 65535.3

#### Metadata

| Field        | Value    |
|--------------|----------|
| Entrypoint   | 0x00AB   |
| Data Size    | 12 bytes |
| Instructions | 4        |

```
      00 01 02 03 04 05 06 07  08 09 0A 0B 0C 0D 0E 0F
      -- -- -- -- -- -- -- --  -- -- -- -- -- -- -- --
00A0:                                   1F 00 0E 80 0F             .....
00B0: 80 10 80 1F 01 6F 00                              .....o.         
```

#### Opcodes

```
  0: 0x00AB [0x1F] MOVE_ENTITY: EventEntity moves to X=-84.155*, Z=73.440*, Y=-1.200*
  1: 0x00B3 [0x1F] MOVE_ENTITY: Update entity position (mode=1)
  2: 0x00B5 [0x6F] WAIT_FRAME_DELAY: Yield until WaitTime reaches zero
  3: 0x00B6 [0x00] END_REQSTACK()
```

### Event 65535.4

#### Metadata

| Field        | Value    |
|--------------|----------|
| Entrypoint   | 0x00B7   |
| Data Size    | 19 bytes |
| Instructions | 3        |

```
      00 01 02 03 04 05 06 07  08 09 0A 0B 0C 0D 0E 0F
      -- -- -- -- -- -- -- --  -- -- -- -- -- -- -- --
00B0:                      5B  13 80 F8 FF FF 7F F8 FF         [........
00C0: FF 7F 74 6C 6B 30 1C 14  80 00                    ..tlk0....      
```

#### Opcodes

```
  0: 0x00B7 [0x5B] LOAD_EXT_SCHEDULER: Load scheduler "tlk0" with entities [EventEntity, EventEntity], work=75*
  1: 0x00C6 [0x1C] WAIT(30* ticks)
  2: 0x00C9 [0x00] END_REQSTACK()
```

### Event 65535.5

#### Metadata

| Field        | Value    |
|--------------|----------|
| Entrypoint   | 0x00CA   |
| Data Size    | 29 bytes |
| Instructions | 3        |

```
      00 01 02 03 04 05 06 07  08 09 0A 0B 0C 0D 0E 0F
      -- -- -- -- -- -- -- --  -- -- -- -- -- -- -- --
00C0:                                5B 13 80 F8 FF FF            [.....
00D0: 7F F8 FF FF 7F 74 68 6B  31 53 F8 FF FF 7F F8 FF  .....thk1S......
00E0: FF 7F 74 68 6B 31 00                              ..thk1.         
```

#### Opcodes

```
  0: 0x00CA [0x5B] LOAD_EXT_SCHEDULER: Load scheduler "thk1" with entities [EventEntity, EventEntity], work=75*
  1: 0x00D9 [0x53] WAIT_SCHEDULER_TASK: Wait for scheduler "thk1" with entities [EventEntity, EventEntity]
  2: 0x00E6 [0x00] END_REQSTACK()
```

### Event 65535.6

#### Metadata

| Field        | Value    |
|--------------|----------|
| Entrypoint   | 0x00E7   |
| Data Size    | 19 bytes |
| Instructions | 3        |

```
      00 01 02 03 04 05 06 07  08 09 0A 0B 0C 0D 0E 0F
      -- -- -- -- -- -- -- --  -- -- -- -- -- -- -- --
00E0:                      5B  13 80 F8 FF FF 7F F8 FF         [........
00F0: FF 7F 74 68 6B 32 1C 14  80 00                    ..thk2....      
```

#### Opcodes

```
  0: 0x00E7 [0x5B] LOAD_EXT_SCHEDULER: Load scheduler "thk2" with entities [EventEntity, EventEntity], work=75*
  1: 0x00F6 [0x1C] WAIT(30* ticks)
  2: 0x00F9 [0x00] END_REQSTACK()
```

### Event 65535.7

#### Metadata

| Field        | Value    |
|--------------|----------|
| Entrypoint   | 0x00FA   |
| Data Size    | 29 bytes |
| Instructions | 3        |

```
      00 01 02 03 04 05 06 07  08 09 0A 0B 0C 0D 0E 0F
      -- -- -- -- -- -- -- --  -- -- -- -- -- -- -- --
00F0:                                5B 13 80 F8 FF FF            [.....
0100: 7F F8 FF FF 7F 70 61 73  30 53 F8 FF FF 7F F8 FF  .....pas0S......
0110: FF 7F 70 61 73 30 00                              ..pas0.         
```

#### Opcodes

```
  0: 0x00FA [0x5B] LOAD_EXT_SCHEDULER: Load scheduler "pas0" with entities [EventEntity, EventEntity], work=75*
  1: 0x0109 [0x53] WAIT_SCHEDULER_TASK: Wait for scheduler "pas0" with entities [EventEntity, EventEntity]
  2: 0x0116 [0x00] END_REQSTACK()
```

### Event 65535.8

#### Metadata

| Field        | Value    |
|--------------|----------|
| Entrypoint   | 0x0117   |
| Data Size    | 29 bytes |
| Instructions | 3        |

```
      00 01 02 03 04 05 06 07  08 09 0A 0B 0C 0D 0E 0F
      -- -- -- -- -- -- -- --  -- -- -- -- -- -- -- --
0110:                      5B  15 80 F8 FF FF 7F F8 FF         [........
0120: FF 7F 63 72 79 30 53 F8  FF FF 7F F8 FF FF 7F 63  ..cry0S........c
0130: 72 79 30 00                                       ry0.            
```

#### Opcodes

```
  0: 0x0117 [0x5B] LOAD_EXT_SCHEDULER: Load scheduler "cry0" with entities [EventEntity, EventEntity], work=76*
  1: 0x0126 [0x53] WAIT_SCHEDULER_TASK: Wait for scheduler "cry0" with entities [EventEntity, EventEntity]
  2: 0x0133 [0x00] END_REQSTACK()
```

### Event 65535.9

#### Metadata

| Field        | Value   |
|--------------|---------|
| Entrypoint   | 0x0134  |
| Data Size    | 9 bytes |
| Instructions | 3       |

```
      00 01 02 03 04 05 06 07  08 09 0A 0B 0C 0D 0E 0F
      -- -- -- -- -- -- -- --  -- -- -- -- -- -- -- --
0130:             5E 69 64 6C  30 1C 16 80 00               ^idl0....   
```

#### Opcodes

```
  0: 0x0134 [0x5E] EventEntity goes idle (kills current action) (animation: "idl0")
  1: 0x0139 [0x1C] WAIT(60* ticks)
  2: 0x013C [0x00] END_REQSTACK()
```

### Event 65535.10

#### Metadata

| Field        | Value   |
|--------------|---------|
| Entrypoint   | 0x013D  |
| Data Size    | 1 bytes |
| Instructions | 1       |

```
      00 01 02 03 04 05 06 07  08 09 0A 0B 0C 0D 0E 0F
      -- -- -- -- -- -- -- --  -- -- -- -- -- -- -- --
0130:                                         00                     .  
```

#### Opcodes

```
  0: 0x013D [0x00] END_REQSTACK()
```

### Event 65535.11

#### Metadata

| Field        | Value   |
|--------------|---------|
| Entrypoint   | 0x013E  |
| Data Size    | 1 bytes |
| Instructions | 1       |

```
      00 01 02 03 04 05 06 07  08 09 0A 0B 0C 0D 0E 0F
      -- -- -- -- -- -- -- --  -- -- -- -- -- -- -- --
0130:                                            00                   . 
```

#### Opcodes

```
  0: 0x013E [0x00] END_REQSTACK()
```

### Event 65535.12

#### Metadata

| Field        | Value   |
|--------------|---------|
| Entrypoint   | 0x013F  |
| Data Size    | 1 bytes |
| Instructions | 1       |

```
      00 01 02 03 04 05 06 07  08 09 0A 0B 0C 0D 0E 0F
      -- -- -- -- -- -- -- --  -- -- -- -- -- -- -- --
0130:                                               00                 .
```

#### Opcodes

```
  0: 0x013F [0x00] END_REQSTACK()
```

### Event 65535.13

#### Metadata

| Field        | Value    |
|--------------|----------|
| Entrypoint   | 0x0140   |
| Data Size    | 10 bytes |
| Instructions | 2        |

```
      00 01 02 03 04 05 06 07  08 09 0A 0B 0C 0D 0E 0F
      -- -- -- -- -- -- -- --  -- -- -- -- -- -- -- --
0140: 37 17 80 18 80 19 80 1A  80 00                    7.........      
```

#### Opcodes

```
  0: 0x0140 [0x37] UPDATE_EVENT_POSITION_AND_DIR: x=-76.103*, z=78.947*, y=-1.199*, direction=151.9°*
  1: 0x0149 [0x00] END_REQSTACK()
```

### Event 65535.14

#### Metadata

| Field        | Value    |
|--------------|----------|
| Entrypoint   | 0x014A   |
| Data Size    | 15 bytes |
| Instructions | 3        |

```
      00 01 02 03 04 05 06 07  08 09 0A 0B 0C 0D 0E 0F
      -- -- -- -- -- -- -- --  -- -- -- -- -- -- -- --
0140:                                37 1B 80 1C 80 19            7.....
0150: 80 1D 80 5E 69 64 6C 30  00                       ...^idl0.       
```

#### Opcodes

```
  0: 0x014A [0x37] UPDATE_EVENT_POSITION_AND_DIR: x=-76.415*, z=80.011*, y=-1.199*, direction=326.4°*
  1: 0x0153 [0x5E] EventEntity goes idle (kills current action) (animation: "idl0")
  2: 0x0158 [0x00] END_REQSTACK()
```

### Event 65535.15

#### Metadata

| Field        | Value    |
|--------------|----------|
| Entrypoint   | 0x0159   |
| Data Size    | 30 bytes |
| Instructions | 8        |

```
      00 01 02 03 04 05 06 07  08 09 0A 0B 0C 0D 0E 0F
      -- -- -- -- -- -- -- --  -- -- -- -- -- -- -- --
0150:                             32 00 80 1F 00 1E 80           2......
0160: 1F 80 19 80 1F 01 1F 00  20 80 21 80 10 80 1F 01  ........ .!.....
0170: 6F 1E F0 FF FF 7F 00                              o......         
```

#### Opcodes

```
  0: 0x0159 [0x32] ExtData[1]->MainSpeed = 13* * 0.1
  1: 0x015C [0x1F] MOVE_ENTITY: EventEntity moves to X=-76.844*, Z=78.421*, Y=-1.199*
  2: 0x0164 [0x1F] MOVE_ENTITY: Update entity position (mode=1)
  3: 0x0166 [0x1F] MOVE_ENTITY: EventEntity moves to X=-79.632*, Z=77.033*, Y=-1.200*
  4: 0x016E [0x1F] MOVE_ENTITY: Update entity position (mode=1)
  5: 0x0170 [0x6F] WAIT_FRAME_DELAY: Yield until WaitTime reaches zero
  6: 0x0171 [0x1E] EventEntity looks at LocalPlayer and starts talking
  7: 0x0176 [0x00] END_REQSTACK()
```

### Event 65535.16

#### Metadata

| Field        | Value    |
|--------------|----------|
| Entrypoint   | 0x0177   |
| Data Size    | 55 bytes |
| Instructions | 13       |

```
      00 01 02 03 04 05 06 07  08 09 0A 0B 0C 0D 0E 0F
      -- -- -- -- -- -- -- --  -- -- -- -- -- -- -- --
0170:                      1F  00 22 80 23 80 24 80 1F         ..".#.$..
0180: 01 33 01 1F 00 25 80 26  80 27 80 1F 01 1F 00 28  .3...%.&.'.....(
0190: 80 29 80 27 80 1F 01 33  00 1F 00 2A 80 2B 80 24  .).'...3...*.+.$
01A0: 80 1F 01 6F 4A 13 40 0F  01 14 40 0F 01 00        ...oJ.@...@...  
```

#### Opcodes

```
  0: 0x0177 [0x1F] MOVE_ENTITY: EventEntity moves to X=-79.216*, Z=71.884*, Y=-1.210*
  1: 0x017F [0x1F] MOVE_ENTITY: Update entity position (mode=1)
  2: 0x0181 [0x33] EventEntity->Render.Flags0 |= 0x200000 // Bit 21 (flag=0x01)
  3: 0x0183 [0x1F] MOVE_ENTITY: EventEntity moves to X=-81.371*, Z=70.899*, Y=-1.209*
  4: 0x018B [0x1F] MOVE_ENTITY: Update entity position (mode=1)
  5: 0x018D [0x1F] MOVE_ENTITY: EventEntity moves to X=-82.435*, Z=71.221*, Y=-1.209*
  6: 0x0195 [0x1F] MOVE_ENTITY: Update entity position (mode=1)
  7: 0x0197 [0x33] EventEntity->Render.Flags0 &= ~ 0x200000 // Bit 21 (flag=0x00)
  8: 0x0199 [0x1F] MOVE_ENTITY: EventEntity moves to X=-83.400*, Z=72.518*, Y=-1.210*
  9: 0x01A1 [0x1F] MOVE_ENTITY: Update entity position (mode=1)
 10: 0x01A3 [0x6F] WAIT_FRAME_DELAY: Yield until WaitTime reaches zero
 11: 0x01A4 [0x4A] Baudin (ID: 17776659/0x010F4013) looks at Audia (ID: 17776660/0x010F4014)
 12: 0x01AD [0x00] END_REQSTACK()
```

### Event 65535.17

#### Metadata

| Field        | Value    |
|--------------|----------|
| Entrypoint   | 0x01AE   |
| Data Size    | 12 bytes |
| Instructions | 4        |

```
      00 01 02 03 04 05 06 07  08 09 0A 0B 0C 0D 0E 0F
      -- -- -- -- -- -- -- --  -- -- -- -- -- -- -- --
01A0:                                            1F 00                ..
01B0: 2C 80 2D 80 19 80 1F 01  6F 00                    ,.-.....o.      
```

#### Opcodes

```
  0: 0x01AE [0x1F] MOVE_ENTITY: EventEntity moves to X=-83.348*, Z=73.084*, Y=-1.199*
  1: 0x01B6 [0x1F] MOVE_ENTITY: Update entity position (mode=1)
  2: 0x01B8 [0x6F] WAIT_FRAME_DELAY: Yield until WaitTime reaches zero
  3: 0x01B9 [0x00] END_REQSTACK()
```

### Event 65535.18

#### Metadata

| Field        | Value    |
|--------------|----------|
| Entrypoint   | 0x01BA   |
| Data Size    | 10 bytes |
| Instructions | 2        |

```
      00 01 02 03 04 05 06 07  08 09 0A 0B 0C 0D 0E 0F
      -- -- -- -- -- -- -- --  -- -- -- -- -- -- -- --
01B0:                                37 2E 80 2F 80 10            7../..
01C0: 80 30 80 00                                       .0..            
```

#### Opcodes

```
  0: 0x01BA [0x37] UPDATE_EVENT_POSITION_AND_DIR: x=-84.513*, z=73.035*, y=-1.200*, direction=331.2°*
  1: 0x01C3 [0x00] END_REQSTACK()
```

### Event 65535.19

#### Metadata

| Field        | Value    |
|--------------|----------|
| Entrypoint   | 0x01C4   |
| Data Size    | 10 bytes |
| Instructions | 2        |

```
      00 01 02 03 04 05 06 07  08 09 0A 0B 0C 0D 0E 0F
      -- -- -- -- -- -- -- --  -- -- -- -- -- -- -- --
01C0:             37 31 80 32  80 10 80 33 80 00            71.2...3..  
```

#### Opcodes

```
  0: 0x01C4 [0x37] UPDATE_EVENT_POSITION_AND_DIR: x=-84.508*, z=73.031*, y=-1.200*, direction=337.2°*
  1: 0x01CD [0x00] END_REQSTACK()
```

### Event 65535.20

#### Metadata

| Field        | Value    |
|--------------|----------|
| Entrypoint   | 0x01CE   |
| Data Size    | 26 bytes |
| Instructions | 8        |

```
      00 01 02 03 04 05 06 07  08 09 0A 0B 0C 0D 0E 0F
      -- -- -- -- -- -- -- --  -- -- -- -- -- -- -- --
01C0:                                            32 00                2.
01D0: 80 1F 00 34 80 35 80 10  80 1F 01 6F 1E 1A 40 0F  ...4.5.....o..@.
01E0: 01 6F 76 13 40 0F 01 00                           .ov.@...        
```

#### Opcodes

```
  0: 0x01CE [0x32] ExtData[1]->MainSpeed = 13* * 0.1
  1: 0x01D1 [0x1F] MOVE_ENTITY: EventEntity moves to X=-83.836*, Z=72.105*, Y=-1.200*
  2: 0x01D9 [0x1F] MOVE_ENTITY: Update entity position (mode=1)
  3: 0x01DB [0x6F] WAIT_FRAME_DELAY: Yield until WaitTime reaches zero
  4: 0x01DC [0x1E] EventEntity looks at Alista (ID: 17776666/0x010F401A) and starts talking
  5: 0x01E1 [0x6F] WAIT_FRAME_DELAY: Yield until WaitTime reaches zero
  6: 0x01E2 [0x76] CHECK_ENTITY_RENDER_FLAGS: Wait until Baudin (ID: 17776659/0x010F4013) Render.Flags0 and Render.Flags3 conditions are met
  7: 0x01E7 [0x00] END_REQSTACK()
```

### Event 10221

#### Metadata

| Field        | Value   |
|--------------|---------|
| Entrypoint   | 0x01E8  |
| Data Size    | 1 bytes |
| Instructions | 1       |

```
      00 01 02 03 04 05 06 07  08 09 0A 0B 0C 0D 0E 0F
      -- -- -- -- -- -- -- --  -- -- -- -- -- -- -- --
01E0:                          00                               .       
```

#### Opcodes

```
  0: 0x01E8 [0x00] END_REQSTACK()
```
