# 17776680 - Taylen

## Common Data

| Field            | Value                 |
|------------------|-----------------------|
| Zone             | Upper Jeuno (ID: 244) |
| Block Size       | 104 bytes             |
| Total Events     | 2                     |
| References Count | 3                     |

## List of Events

| Event ID              | Entrypoint   |   Size |   Instructions |
|-----------------------|--------------|--------|----------------|
| [65535](#event-65535) | 0x0000       |      1 |              1 |
| [188](#event-188)     | 0x0001       |     64 |             12 |

## DAT References (imed_data)

|   Index | Hex Value   |   Dec Value |
|---------|-------------|-------------|
|       0 | 0x0000      |           0 |
|       1 | 0x1DAD      |        7597 |
|       2 | 0x1DAE      |        7598 |

## String References

- **7597**: Somewhere out there, my nemesis awaits... Her power is so great, I tremble just mentioning her.
- **7598**: Yes, only the sturdiest mail could save me from her terrible strikes! Armor should always be carefully chosen!

## Events

### Event 65535

#### Metadata

| Field        | Value   |
|--------------|---------|
| Entrypoint   | 0x0000  |
| Data Size    | 1 bytes |
| Instructions | 1       |

```
      00 01 02 03 04 05 06 07  08 09 0A 0B 0C 0D 0E 0F
      -- -- -- -- -- -- -- --  -- -- -- -- -- -- -- --
0000: 00                                                .               
```

#### Opcodes

```
  0: 0x0000 [0x00] END_REQSTACK()
```

### Event 188

#### Metadata

| Field        | Value    |
|--------------|----------|
| Entrypoint   | 0x0001   |
| Data Size    | 64 bytes |
| Instructions | 12       |

```
      00 01 02 03 04 05 06 07  08 09 0A 0B 0C 0D 0E 0F
      -- -- -- -- -- -- -- --  -- -- -- -- -- -- -- --
0000:    1E F0 FF FF 7F 6F 76  F8 FF FF 7F 66 00 80 F8   .....ov....f...
0010: FF FF 7F F8 FF FF 7F 74  6C 6B 30 1D 01 80 23 1D  .......tlk0...#.
0020: 02 80 23 66 00 80 F8 FF  FF 7F F8 FF FF 7F 74 6C  ..#f..........tl
0030: 6B 31 53 F8 FF FF 7F F8  FF FF 7F 74 6C 6B 31 21  k1S........tlk1!
0040: 00                                                .               
```

#### Opcodes

```
  0: 0x0001 [0x1E] EventEntity looks at LocalPlayer and starts talking
  1: 0x0006 [0x6F] WAIT_FRAME_DELAY: Yield until WaitTime reaches zero
  2: 0x0007 [0x76] CHECK_ENTITY_RENDER_FLAGS: Wait until EventEntity Render.Flags0 and Render.Flags3 conditions are met
  3: 0x000C [0x66] LOAD_EXT_SCHEDULER_MAIN: Load scheduler "tlk0" with entities [EventEntity, EventEntity], work=0*
  4: 0x001B [0x1D] PRINT_EVENT_MESSAGE(message_id=7597*)
    → "Somewhere out there, my nemesis awaits... Her power is so great, I tremble just mentioning her."
  5: 0x001E [0x23] WAIT_FOR_DIALOG_INTERACTION
  6: 0x001F [0x1D] PRINT_EVENT_MESSAGE(message_id=7598*)
    → "Yes, only the sturdiest mail could save me from her terrible strikes! Armor should always be carefully chosen!"
  7: 0x0022 [0x23] WAIT_FOR_DIALOG_INTERACTION
  8: 0x0023 [0x66] LOAD_EXT_SCHEDULER_MAIN: Load scheduler "tlk1" with entities [EventEntity, EventEntity], work=0*
  9: 0x0032 [0x53] WAIT_SCHEDULER_TASK: Wait for scheduler "tlk1" with entities [EventEntity, EventEntity]
 10: 0x003F [0x21] END_EVENT
 11: 0x0040 [0x00] END_REQSTACK()
```
