# 17776783

## Common Data

| Field            | Value                 |
|------------------|-----------------------|
| Zone             | Upper Jeuno (ID: 244) |
| Block Size       | 29008 bytes           |
| Total Events     | 122                   |
| References Count | 539                   |

## List of Events

| Event ID                   | Entrypoint   |   Size |   Instructions |
|----------------------------|--------------|--------|----------------|
| [65535](#event-65535)      | 0x0000       |      1 |              1 |
| [10171](#event-10171)      | 0x0001       |      1 |              1 |
| [10036](#event-10036)      | 0x0002       |      1 |              1 |
| [10038](#event-10038)      | 0x0003       |    561 |             80 |
| [10054](#event-10054)      | 0x0234       |    563 |             81 |
| [65535.1](#event-655351)   | 0x0467       |      1 |              1 |
| [10040](#event-10040)      | 0x0468       |      1 |              1 |
| [65535.2](#event-655352)   | 0x0469       |     10 |              2 |
| [10044](#event-10044)      | 0x0473       |   1560 |            251 |
| [10043](#event-10043)      | 0x0A8B       |   3812 |            572 |
| [65535.3](#event-655353)   | 0x196F       |     14 |              4 |
| [65535.4](#event-655354)   | 0x197D       |     10 |              4 |
| [65535.5](#event-655355)   | 0x1987       |      4 |              2 |
| [10046](#event-10046)      | 0x198B       |      1 |              1 |
| [65535.6](#event-655356)   | 0x198C       |     10 |              2 |
| [65535.7](#event-655357)   | 0x1996       |     14 |              4 |
| [65535.8](#event-655358)   | 0x19A4       |     10 |              4 |
| [65535.9](#event-655359)   | 0x19AE       |     13 |              5 |
| [10057](#event-10057)      | 0x19BB       |      1 |              1 |
| [65535.10](#event-6553510) | 0x19BC       |     15 |              3 |
| [65535.11](#event-6553511) | 0x19CB       |     14 |              4 |
| [65535.12](#event-6553512) | 0x19D9       |     14 |              4 |
| [65535.13](#event-6553513) | 0x19E7       |     23 |              5 |
| [65535.14](#event-6553514) | 0x19FE       |     10 |              4 |
| [10058](#event-10058)      | 0x1A08       |      1 |              1 |
| [10059](#event-10059)      | 0x1A09       |      1 |              1 |
| [65535.15](#event-6553515) | 0x1A0A       |     30 |              6 |
| [65535.16](#event-6553516) | 0x1A28       |     14 |              4 |
| [10060](#event-10060)      | 0x1A36       |      1 |              1 |
| [10204](#event-10204)      | 0x1A37       |      1 |              1 |
| [10205](#event-10205)      | 0x1A38       |      1 |              1 |
| [10061](#event-10061)      | 0x1A39       |      1 |              1 |
| [10062](#event-10062)      | 0x1A3A       |      1 |              1 |
| [10207](#event-10207)      | 0x1A3B       |      1 |              1 |
| [65535.17](#event-6553517) | 0x1A3C       |     21 |              5 |
| [65535.18](#event-6553518) | 0x1A51       |     87 |             20 |
| [65535.19](#event-6553519) | 0x1AA8       |     15 |              3 |
| [65535.20](#event-6553520) | 0x1AB7       |     13 |              3 |
| [65535.21](#event-6553521) | 0x1AC4       |     15 |              3 |
| [65535.22](#event-6553522) | 0x1AD3       |     22 |              4 |
| [65535.23](#event-6553523) | 0x1AE9       |     22 |              4 |
| [65535.24](#event-6553524) | 0x1AFF       |     25 |              7 |
| [65535.25](#event-6553525) | 0x1B18       |     17 |              4 |
| [65535.26](#event-6553526) | 0x1B29       |     31 |              7 |
| [65535.27](#event-6553527) | 0x1B48       |     23 |              5 |
| [65535.28](#event-6553528) | 0x1B5F       |     14 |              4 |
| [65535.29](#event-6553529) | 0x1B6D       |     14 |              4 |
| [65535.30](#event-6553530) | 0x1B7B       |     22 |              5 |
| [65535.31](#event-6553531) | 0x1B91       |     13 |              3 |
| [10063](#event-10063)      | 0x1B9E       |      1 |              1 |
| [65535.32](#event-6553532) | 0x1B9F       |     15 |              3 |
| [65535.33](#event-6553533) | 0x1BAE       |     14 |              4 |
| [10064](#event-10064)      | 0x1BBC       |      1 |              1 |
| [65535.34](#event-6553534) | 0x1BBD       |     19 |              5 |
| [10065](#event-10065)      | 0x1BD0       |      1 |              1 |
| [65535.35](#event-6553535) | 0x1BD1       |     15 |              3 |
| [10066](#event-10066)      | 0x1BE0       |      1 |              1 |
| [65535.36](#event-6553536) | 0x1BE1       |     19 |              5 |
| [65535.37](#event-6553537) | 0x1BF4       |      9 |              3 |
| [10072](#event-10072)      | 0x1BFD       |      1 |              1 |
| [65535.38](#event-6553538) | 0x1BFE       |     10 |              2 |
| [65535.39](#event-6553539) | 0x1C08       |     14 |              4 |
| [65535.40](#event-6553540) | 0x1C16       |     14 |              4 |
| [10073](#event-10073)      | 0x1C24       |      1 |              1 |
| [65535.41](#event-6553541) | 0x1C25       |     23 |              5 |
| [65535.42](#event-6553542) | 0x1C3C       |     14 |              4 |
| [10074](#event-10074)      | 0x1C4A       |      1 |              1 |
| [65535.43](#event-6553543) | 0x1C4B       |     10 |              2 |
| [65535.44](#event-6553544) | 0x1C55       |     14 |              4 |
| [65535.45](#event-6553545) | 0x1C63       |      3 |              2 |
| [65535.46](#event-6553546) | 0x1C66       |      3 |              2 |
| [65535.47](#event-6553547) | 0x1C69       |     14 |              4 |
| [10075](#event-10075)      | 0x1C77       |      1 |              1 |
| [65535.48](#event-6553548) | 0x1C78       |     10 |              2 |
| [65535.49](#event-6553549) | 0x1C82       |     37 |              6 |
| [65535.50](#event-6553550) | 0x1CA7       |      6 |              2 |
| [10078](#event-10078)      | 0x1CAD       |      1 |              1 |
| [65535.51](#event-6553551) | 0x1CAE       |     10 |              2 |
| [65535.52](#event-6553552) | 0x1CB8       |     14 |              4 |
| [65535.53](#event-6553553) | 0x1CC6       |     14 |              4 |
| [10079](#event-10079)      | 0x1CD4       |      1 |              1 |
| [65535.54](#event-6553554) | 0x1CD5       |      1 |              1 |
| [10080](#event-10080)      | 0x1CD6       |      1 |              1 |
| [65535.55](#event-6553555) | 0x1CD7       |     10 |              2 |
| [65535.56](#event-6553556) | 0x1CE1       |     14 |              4 |
| [65535.57](#event-6553557) | 0x1CEF       |     14 |              4 |
| [65535.58](#event-6553558) | 0x1CFD       |     14 |              4 |
| [65535.59](#event-6553559) | 0x1D0B       |     14 |              4 |
| [65535.60](#event-6553560) | 0x1D19       |     10 |              2 |
| [10081](#event-10081)      | 0x1D23       |      1 |              1 |
| [65535.61](#event-6553561) | 0x1D24       |     10 |              2 |
| [65535.62](#event-6553562) | 0x1D2E       |     14 |              4 |
| [10175](#event-10175)      | 0x1D3C       |      1 |              1 |
| [65535.63](#event-6553563) | 0x1D3D       |     19 |              5 |
| [65535.64](#event-6553564) | 0x1D50       |  18542 |           3186 |
| [10192](#event-10192)      | 0x65BE       |      1 |              1 |
| [10193](#event-10193)      | 0x65BF       |      1 |              1 |
| [10194](#event-10194)      | 0x65C0       |      1 |              1 |
| [10195](#event-10195)      | 0x65C1       |      1 |              1 |
| [10196](#event-10196)      | 0x65C2       |      1 |              1 |
| [10197](#event-10197)      | 0x65C3       |      1 |              1 |
| [10198](#event-10198)      | 0x65C4       |      1 |              1 |
| [10199](#event-10199)      | 0x65C5       |      1 |              1 |
| [10200](#event-10200)      | 0x65C6       |      1 |              1 |
| [10201](#event-10201)      | 0x65C7       |      1 |              1 |
| [10202](#event-10202)      | 0x65C8       |      1 |              1 |
| [10203](#event-10203)      | 0x65C9       |      1 |              1 |
| [10216](#event-10216)      | 0x65CA       |      1 |              1 |
| [65535.65](#event-6553565) | 0x65CB       |     18 |              4 |
| [65535.66](#event-6553566) | 0x65DD       |      9 |              3 |
| [65535.67](#event-6553567) | 0x65E6       |     10 |              2 |
| [65535.68](#event-6553568) | 0x65F0       |     28 |              6 |
| [65535.69](#event-6553569) | 0x660C       |     27 |              8 |
| [65535.70](#event-6553570) | 0x6627       |     29 |              7 |
| [65535.71](#event-6553571) | 0x6644       |     17 |              6 |
| [65535.72](#event-6553572) | 0x6655       |     29 |              7 |
| [65535.73](#event-6553573) | 0x6672       |     27 |              8 |
| [65535.74](#event-6553574) | 0x668D       |     15 |              5 |
| [65535.75](#event-6553575) | 0x669C       |     25 |              6 |
| [65535.76](#event-6553576) | 0x66B5       |     14 |              4 |
| [65535.77](#event-6553577) | 0x66C3       |     25 |              6 |
| [65535.78](#event-6553578) | 0x66DC       |     14 |              4 |

## DAT References (imed_data)

|   Index | Hex Value   |   Dec Value |
|---------|-------------|-------------|
|       0 | 0x00C8      |         200 |
|       1 | 0x0000      |           0 |
|       2 | 0x0013      |          19 |
|       3 | 0x000C      |          12 |
|       4 | 0x0001      |           1 |
|       5 | 0xFFFE8DF3  |  4294872563 |
|       6 | 0x27DDD     |      163293 |
|       7 | 0x0867      |        2151 |
|       8 | 0x00BF      |         191 |
|       9 | 0x0006      |           6 |
|      10 | 0x00B4      |         180 |
|      11 | 0x000D      |          13 |
|      12 | 0xFFFE8A18  |  4294871576 |
|      13 | 0x28762     |      165730 |
|      14 | 0x22A7      |        8871 |
|      15 | 0x000F      |          15 |
|      16 | 0x001E      |          30 |
|      17 | 0x003C      |          60 |
|      18 | 0x0007      |           7 |
|      19 | 0x22A8      |        8872 |
|      20 | 0x005A      |          90 |
|      21 | 0x0199      |         409 |
|      22 | 0x0022      |          34 |
|      23 | 0x22A9      |        8873 |
|      24 | 0x0078      |         120 |
|      25 | 0x0319      |         793 |
|      26 | 0x0008      |           8 |
|      27 | 0x2325      |        8997 |
|      28 | 0x2326      |        8998 |
|      29 | 0x2327      |        8999 |
|      30 | 0x2328      |        9000 |
|      31 | 0x0002      |           2 |
|      32 | 0x2329      |        9001 |
|      33 | 0x0003      |           3 |
|      34 | 0x232A      |        9002 |
|      35 | 0x0004      |           4 |
|      36 | 0x232B      |        9003 |
|      37 | 0x0005      |           5 |
|      38 | 0x232C      |        9004 |
|      39 | 0x232D      |        9005 |
|      40 | 0x232E      |        9006 |
|      41 | 0xFFFF3856  |  4294916182 |
|      42 | 0xA803      |       43011 |
|      43 | 0xFFFFFF39  |  4294967097 |
|      44 | 0x07BB      |        1979 |
|      45 | 0xFFFF2CE6  |  4294913254 |
|      46 | 0xA7E9      |       42985 |
|      47 | 0xFFFFFED3  |  4294966995 |
|      48 | 0x0044      |          68 |
|      49 | 0x232F      |        9007 |
|      50 | 0x2330      |        9008 |
|      51 | 0x2331      |        9009 |
|      52 | 0x2332      |        9010 |
|      53 | 0x2333      |        9011 |
|      54 | 0x2336      |        9014 |
|      55 | 0x2337      |        9015 |
|      56 | 0x2338      |        9016 |
|      57 | 0x2339      |        9017 |
|      58 | 0x0009      |           9 |
|      59 | 0x233A      |        9018 |
|      60 | 0x000A      |          10 |
|      61 | 0x2334      |        9012 |
|      62 | 0x000B      |          11 |
|      63 | 0x2335      |        9013 |
|      64 | 0x233B      |        9019 |
|      65 | 0x0014      |          20 |
|      66 | 0x0028      |          40 |
|      67 | 0x0032      |          50 |
|      68 | 0x233C      |        9020 |
|      69 | 0x233D      |        9021 |
|      70 | 0x233E      |        9022 |
|      71 | 0x233F      |        9023 |
|      72 | 0x2342      |        9026 |
|      73 | 0x2343      |        9027 |
|      74 | 0x2344      |        9028 |
|      75 | 0x2345      |        9029 |
|      76 | 0x2346      |        9030 |
|      77 | 0x2340      |        9024 |
|      78 | 0x2341      |        9025 |
|      79 | 0x2347      |        9031 |
|      80 | 0x2348      |        9032 |
|      81 | 0x2349      |        9033 |
|      82 | 0x234A      |        9034 |
|      83 | 0x234B      |        9035 |
|      84 | 0xFFFF6313  |  4294927123 |
|      85 | 0xA5CB      |       42443 |
|      86 | 0x083F      |        2111 |
|      87 | 0x22D4      |        8916 |
|      88 | 0x0033      |          51 |
|      89 | 0x22D5      |        8917 |
|      90 | 0x00C0      |         192 |
|      91 | 0xFFFF54B5  |  4294923445 |
|      92 | 0xAA4D      |       43597 |
|      93 | 0x007A      |         122 |
|      94 | 0x22D6      |        8918 |
|      95 | 0x002D      |          45 |
|      96 | 0x22D7      |        8919 |
|      97 | 0xFFFF4234  |  4294918708 |
|      98 | 0xB0F4      |       45300 |
|      99 | 0x079D      |        1949 |
|     100 | 0x22D8      |        8920 |
|     101 | 0x22D9      |        8921 |
|     102 | 0x22DA      |        8922 |
|     103 | 0x0050      |          80 |
|     104 | 0x22DB      |        8923 |
|     105 | 0x22DC      |        8924 |
|     106 | 0x22DD      |        8925 |
|     107 | 0x22DE      |        8926 |
|     108 | 0x22DF      |        8927 |
|     109 | 0x22E0      |        8928 |
|     110 | 0x22EC      |        8940 |
|     111 | 0x22ED      |        8941 |
|     112 | 0x22E1      |        8929 |
|     113 | 0x22EE      |        8942 |
|     114 | 0x22E2      |        8930 |
|     115 | 0x22EF      |        8943 |
|     116 | 0x22E3      |        8931 |
|     117 | 0x22F0      |        8944 |
|     118 | 0x22E6      |        8934 |
|     119 | 0x22F3      |        8947 |
|     120 | 0x22E7      |        8935 |
|     121 | 0x22F4      |        8948 |
|     122 | 0x22E8      |        8936 |
|     123 | 0x22F5      |        8949 |
|     124 | 0x22E9      |        8937 |
|     125 | 0x22F6      |        8950 |
|     126 | 0x22EA      |        8938 |
|     127 | 0x22F7      |        8951 |
|     128 | 0x22E4      |        8932 |
|     129 | 0x22F1      |        8945 |
|     130 | 0x22E5      |        8933 |
|     131 | 0x22F2      |        8946 |
|     132 | 0x22EB      |        8939 |
|     133 | 0x22F8      |        8952 |
|     134 | 0x22F9      |        8953 |
|     135 | 0x22FA      |        8954 |
|     136 | 0x22FB      |        8955 |
|     137 | 0x22FC      |        8956 |
|     138 | 0x22FF      |        8959 |
|     139 | 0x2300      |        8960 |
|     140 | 0x2301      |        8961 |
|     141 | 0x2302      |        8962 |
|     142 | 0x2303      |        8963 |
|     143 | 0x22FD      |        8957 |
|     144 | 0x22FE      |        8958 |
|     145 | 0x2304      |        8964 |
|     146 | 0x2305      |        8965 |
|     147 | 0x2306      |        8966 |
|     148 | 0x2307      |        8967 |
|     149 | 0x2308      |        8968 |
|     150 | 0x0030      |          48 |
|     151 | 0x2309      |        8969 |
|     152 | 0x230A      |        8970 |
|     153 | 0x2316      |        8982 |
|     154 | 0x230B      |        8971 |
|     155 | 0x2317      |        8983 |
|     156 | 0x230C      |        8972 |
|     157 | 0x2318      |        8984 |
|     158 | 0x230D      |        8973 |
|     159 | 0x2319      |        8985 |
|     160 | 0x2310      |        8976 |
|     161 | 0x231C      |        8988 |
|     162 | 0x2311      |        8977 |
|     163 | 0x231D      |        8989 |
|     164 | 0x2312      |        8978 |
|     165 | 0x231E      |        8990 |
|     166 | 0x2313      |        8979 |
|     167 | 0x231F      |        8991 |
|     168 | 0x2314      |        8980 |
|     169 | 0x2320      |        8992 |
|     170 | 0x230E      |        8974 |
|     171 | 0x231A      |        8986 |
|     172 | 0x230F      |        8975 |
|     173 | 0x231B      |        8987 |
|     174 | 0x2315      |        8981 |
|     175 | 0x2321      |        8993 |
|     176 | 0x2322      |        8994 |
|     177 | 0x2323      |        8995 |
|     178 | 0x00C9      |         201 |
|     179 | 0x006E      |         110 |
|     180 | 0xFFFF2E6B  |  4294913643 |
|     181 | 0xAD02      |       44290 |
|     182 | 0xFFFF359C  |  4294915484 |
|     183 | 0xB087      |       45191 |
|     184 | 0x08C7      |        2247 |
|     185 | 0xFFFF2F4D  |  4294913869 |
|     186 | 0xAF75      |       44917 |
|     187 | 0xFFFF3F60  |  4294917984 |
|     188 | 0xBE70      |       48752 |
|     189 | 0x036E      |         878 |
|     190 | 0xFFFF45E9  |  4294919657 |
|     191 | 0xB145      |       45381 |
|     192 | 0xFFFF3FA2  |  4294918050 |
|     193 | 0xAE51      |       44625 |
|     194 | 0xFFFF3B17  |  4294916887 |
|     195 | 0xAAB4      |       43700 |
|     196 | 0x0741      |        1857 |
|     197 | 0xFFFF31CB  |  4294914507 |
|     198 | 0xAC88      |       44168 |
|     199 | 0xFFFF421E  |  4294918686 |
|     200 | 0xFFFFF10E  |  4294963470 |
|     201 | 0xFFFFFE0D  |  4294966797 |
|     202 | 0xFFFF3DA8  |  4294917544 |
|     203 | 0x0BED      |        3053 |
|     204 | 0xFFFF2F49  |  4294913865 |
|     205 | 0xBE3B      |       48699 |
|     206 | 0xFFFF2C86  |  4294913158 |
|     207 | 0xB346      |       45894 |
|     208 | 0xFFFF2D70  |  4294913392 |
|     209 | 0xB5E7      |       46567 |
|     210 | 0xFFFF2F8F  |  4294913935 |
|     211 | 0xB5DD      |       46557 |
|     212 | 0x0736      |        1846 |
|     213 | 0x0108      |         264 |
|     214 | 0xFFFF4080  |  4294918272 |
|     215 | 0x0DAD      |        3501 |
|     216 | 0xFFFF3F36  |  4294917942 |
|     217 | 0x106D      |        4205 |
|     218 | 0xFFFF42B6  |  4294918838 |
|     219 | 0x0897      |        2199 |
|     220 | 0xFFFF56DA  |  4294923994 |
|     221 | 0xFFFFFD50  |  4294966608 |
|     222 | 0x2AF42     |      175938 |
|     223 | 0xFFFC9697  |  4294743703 |
|     224 | 0x4C28      |       19496 |
|     225 | 0x09FE      |        2558 |
|     226 | 0x2A65C     |      173660 |
|     227 | 0xFFFC9B59  |  4294744921 |
|     228 | 0x4C30      |       19504 |
|     229 | 0x2AD40     |      175424 |
|     230 | 0xFFFCDE9B  |  4294762139 |
|     231 | 0x5125      |       20773 |
|     232 | 0xFFFF5A02  |  4294924802 |
|     233 | 0x01F7      |         503 |
|     234 | 0x0116      |         278 |
|     235 | 0xFFFF4EC1  |  4294921921 |
|     236 | 0xFFFFFE1A  |  4294966810 |
|     237 | 0xFFFF35F3  |  4294915571 |
|     238 | 0xAD88      |       44424 |
|     239 | 0x08D4      |        2260 |
|     240 | 0xFFFF2EEB  |  4294913771 |
|     241 | 0xAE02      |       44546 |
|     242 | 0xFFFF329E  |  4294914718 |
|     243 | 0xADA2      |       44450 |
|     244 | 0xFFFF2EAE  |  4294913710 |
|     245 | 0xADD7      |       44503 |
|     246 | 0x092D      |        2349 |
|     247 | 0xFFFF2CA9  |  4294913193 |
|     248 | 0xAD3C      |       44348 |
|     249 | 0xFFFF396B  |  4294916459 |
|     250 | 0xD87B      |       55419 |
|     251 | 0x04E2      |        1250 |
|     252 | 0xFFFF34EE  |  4294915310 |
|     253 | 0xB995      |       47509 |
|     254 | 0xFFFF307B  |  4294914171 |
|     255 | 0xDE87      |       56967 |
|     256 | 0xFFFF3F2B  |  4294917931 |
|     257 | 0xB53B      |       46395 |
|     258 | 0x074A      |        1866 |
|     259 | 0xFFFF2FC8  |  4294913992 |
|     260 | 0xAE9E      |       44702 |
|     261 | 0xFFFF2C1E  |  4294913054 |
|     262 | 0xAF1A      |       44826 |
|     263 | 0xFFFF38A3  |  4294916259 |
|     264 | 0xAE76      |       44662 |
|     265 | 0xFFFF1EDD  |  4294909661 |
|     266 | 0x102CE     |       66254 |
|     267 | 0x4BE4      |       19428 |
|     268 | 0xFFFFE152  |  4294959442 |
|     269 | 0xFFFFFF9C  |  4294967196 |
|     270 | 0x0151      |         337 |
|     271 | 0x00CB      |         203 |
|     272 | 0xA17A      |       41338 |
|     273 | 0xFFFF7C9C  |  4294933660 |
|     274 | 0xFFFFF5DB  |  4294964699 |
|     275 | 0x0693      |        1683 |
|     276 | 0x0020      |          32 |
|     277 | 0x7759      |       30553 |
|     278 | 0xFFFF657C  |  4294927740 |
|     279 | 0xFFFFFC19  |  4294966297 |
|     280 | 0x7D58      |       32088 |
|     281 | 0xFFFF1E21  |  4294909473 |
|     282 | 0xFFFFF15B  |  4294963547 |
|     283 | 0xFFFF3670  |  4294915696 |
|     284 | 0x9BCA      |       39882 |
|     285 | 0x028A      |         650 |
|     286 | 0xFFFF433E  |  4294918974 |
|     287 | 0x7E8E      |       32398 |
|     288 | 0xFFFF368B  |  4294915723 |
|     289 | 0x7717      |       30487 |
|     290 | 0x018E      |         398 |
|     291 | 0xFFFF4326  |  4294918950 |
|     292 | 0x7EF7      |       32503 |
|     293 | 0xFFFF2BB9  |  4294912953 |
|     294 | 0xB4E5      |       46309 |
|     295 | 0xFFFF37B7  |  4294916023 |
|     296 | 0x9F32      |       40754 |
|     297 | 0x0AF4      |        2804 |
|     298 | 0xFFFF2F04  |  4294913796 |
|     299 | 0xAFCB      |       45003 |
|     300 | 0xFFFF310A  |  4294914314 |
|     301 | 0xB351      |       45905 |
|     302 | 0xFFFF2CE1  |  4294913249 |
|     303 | 0xB11E      |       45342 |
|     304 | 0x005F      |          95 |
|     305 | 0x0064      |         100 |
|     306 | 0x0069      |         105 |
|     307 | 0x0052      |          82 |
|     308 | 0x0057      |          87 |
|     309 | 0x005C      |          92 |
|     310 | 0x0059      |          89 |
|     311 | 0x005D      |          93 |
|     312 | 0x0061      |          97 |
|     313 | 0x0060      |          96 |
|     314 | 0x0012      |          18 |
|     315 | 0x0017      |          23 |
|     316 | 0x000E      |          14 |
|     317 | 0x0018      |          24 |
|     318 | 0x001F      |          31 |
|     319 | 0x001B      |          27 |
|     320 | 0x0010      |          16 |
|     321 | 0x0015      |          21 |
|     322 | 0x018D      |         397 |
|     323 | 0x0175      |         373 |
|     324 | 0x0170      |         368 |
|     325 | 0x0171      |         369 |
|     326 | 0x014C      |         332 |
|     327 | 0x01C1      |         449 |
|     328 | 0x027C      |         636 |
|     329 | 0x027B      |         635 |
|     330 | 0x027D      |         637 |
|     331 | 0x02D3      |         723 |
|     332 | 0x0321      |         801 |
|     333 | 0x0326      |         806 |
|     334 | 0x01E1      |         481 |
|     335 | 0x0343      |         835 |
|     336 | 0x0386      |         902 |
|     337 | 0x0388      |         904 |
|     338 | 0x0361      |         865 |
|     339 | 0x0387      |         903 |
|     340 | 0x038A      |         906 |
|     341 | 0x003F      |          63 |
|     342 | 0x0282      |         642 |
|     343 | 0x0283      |         643 |
|     344 | 0x0288      |         648 |
|     345 | 0x0289      |         649 |
|     346 | 0x028B      |         651 |
|     347 | 0x029E      |         670 |
|     348 | 0x0019      |          25 |
|     349 | 0x00C6      |         198 |
|     350 | 0x00B5      |         181 |
|     351 | 0x008C      |         140 |
|     352 | 0x008E      |         142 |
|     353 | 0x014B      |         331 |
|     354 | 0x0148      |         328 |
|     355 | 0x0166      |         358 |
|     356 | 0x017A      |         378 |
|     357 | 0x0182      |         386 |
|     358 | 0x0183      |         387 |
|     359 | 0x0192      |         402 |
|     360 | 0x01DF      |         479 |
|     361 | 0x01E9      |         489 |
|     362 | 0x001C      |          28 |
|     363 | 0x00E6      |         230 |
|     364 | 0x00EB      |         235 |
|     365 | 0x00F5      |         245 |
|     366 | 0x007E      |         126 |
|     367 | 0x007F      |         127 |
|     368 | 0x00F3      |         243 |
|     369 | 0x00F4      |         244 |
|     370 | 0x00E0      |         224 |
|     371 | 0x00E9      |         233 |
|     372 | 0x009E      |         158 |
|     373 | 0x009D      |         157 |
|     374 | 0x00E2      |         226 |
|     375 | 0x00E1      |         225 |
|     376 | 0x014F      |         335 |
|     377 | 0x014E      |         334 |
|     378 | 0x0167      |         359 |
|     379 | 0x00E5      |         229 |
|     380 | 0x0169      |         361 |
|     381 | 0x016A      |         362 |
|     382 | 0x0168      |         360 |
|     383 | 0x0133      |         307 |
|     384 | 0x0174      |         372 |
|     385 | 0x018C      |         396 |
|     386 | 0x0194      |         404 |
|     387 | 0x0195      |         405 |
|     388 | 0x0178      |         376 |
|     389 | 0x0240      |         576 |
|     390 | 0x0197      |         407 |
|     391 | 0x0198      |         408 |
|     392 | 0x01A3      |         419 |
|     393 | 0x019E      |         414 |
|     394 | 0x0246      |         582 |
|     395 | 0x0247      |         583 |
|     396 | 0x0248      |         584 |
|     397 | 0x024B      |         587 |
|     398 | 0x024A      |         586 |
|     399 | 0x0011      |          17 |
|     400 | 0x024F      |         591 |
|     401 | 0x01C3      |         451 |
|     402 | 0x01C4      |         452 |
|     403 | 0x01EF      |         495 |
|     404 | 0x01F0      |         496 |
|     405 | 0x001A      |          26 |
|     406 | 0x0095      |         149 |
|     407 | 0x001D      |          29 |
|     408 | 0x0073      |         115 |
|     409 | 0x0034      |          52 |
|     410 | 0x0024      |          36 |
|     411 | 0x005E      |          94 |
|     412 | 0x0072      |         114 |
|     413 | 0x0031      |          49 |
|     414 | 0x006C      |         108 |
|     415 | 0x003A      |          58 |
|     416 | 0x0096      |         150 |
|     417 | 0x0016      |          22 |
|     418 | 0x0035      |          53 |
|     419 | 0x0085      |         133 |
|     420 | 0x0081      |         129 |
|     421 | 0x0023      |          35 |
|     422 | 0x0082      |         130 |
|     423 | 0x0039      |          57 |
|     424 | 0x0038      |          56 |
|     425 | 0x0036      |          54 |
|     426 | 0x0083      |         131 |
|     427 | 0x00A2      |         162 |
|     428 | 0x0021      |          33 |
|     429 | 0x0065      |         101 |
|     430 | 0x0086      |         134 |
|     431 | 0x0062      |          98 |
|     432 | 0x008D      |         141 |
|     433 | 0x0037      |          55 |
|     434 | 0x008A      |         138 |
|     435 | 0x008B      |         139 |
|     436 | 0x002B      |          43 |
|     437 | 0x0067      |         103 |
|     438 | 0x00A1      |         161 |
|     439 | 0x0066      |         102 |
|     440 | 0x0075      |         117 |
|     441 | 0x0068      |         104 |
|     442 | 0x007B      |         123 |
|     443 | 0x0077      |         119 |
|     444 | 0x01FE      |         510 |
|     445 | 0x009F      |         159 |
|     446 | 0x00A4      |         164 |
|     447 | 0x00A9      |         169 |
|     448 | 0x00AC      |         172 |
|     449 | 0x00B2      |         178 |
|     450 | 0x00B0      |         176 |
|     451 | 0x013D      |         317 |
|     452 | 0x010C      |         268 |
|     453 | 0x0100      |         256 |
|     454 | 0x00FB      |         251 |
|     455 | 0x00B8      |         184 |
|     456 | 0x011C      |         284 |
|     457 | 0x0041      |          65 |
|     458 | 0x0042      |          66 |
|     459 | 0x0047      |          71 |
|     460 | 0x0160      |         352 |
|     461 | 0x0043      |          67 |
|     462 | 0x0048      |          72 |
|     463 | 0x004B      |          75 |
|     464 | 0x004C      |          76 |
|     465 | 0x004D      |          77 |
|     466 | 0x005B      |          91 |
|     467 | 0x0058      |          88 |
|     468 | 0x0053      |          83 |
|     469 | 0x0054      |          84 |
|     470 | 0x0161      |         353 |
|     471 | 0x015C      |         348 |
|     472 | 0x016D      |         365 |
|     473 | 0x00C5      |         197 |
|     474 | 0x00C3      |         195 |
|     475 | 0x00C7      |         199 |
|     476 | 0x015E      |         350 |
|     477 | 0x00C4      |         196 |
|     478 | 0x016E      |         366 |
|     479 | 0x00D0      |         208 |
|     480 | 0x00CD      |         205 |
|     481 | 0x00CA      |         202 |
|     482 | 0x00D2      |         210 |
|     483 | 0x00D8      |         216 |
|     484 | 0x00D5      |         213 |
|     485 | 0x00D6      |         214 |
|     486 | 0x013B      |         315 |
|     487 | 0x0136      |         310 |
|     488 | 0x013A      |         314 |
|     489 | 0x0137      |         311 |
|     490 | 0x016F      |         367 |
|     491 | 0x0138      |         312 |
|     492 | 0x0139      |         313 |
|     493 | 0x009A      |         154 |
|     494 | 0x0091      |         145 |
|     495 | 0x009B      |         155 |
|     496 | 0x0099      |         153 |
|     497 | 0x0093      |         147 |
|     498 | 0x0092      |         146 |
|     499 | 0x0098      |         152 |
|     500 | 0x0071      |         113 |
|     501 | 0x00E8      |         232 |
|     502 | 0x00DD      |         221 |
|     503 | 0x00F8      |         248 |
|     504 | 0x00F1      |         241 |
|     505 | 0x0124      |         292 |
|     506 | 0x012E      |         302 |
|     507 | 0x0129      |         297 |
|     508 | 0x0122      |         290 |
|     509 | 0x0132      |         306 |
|     510 | 0x0126      |         294 |
|     511 | 0x0155      |         341 |
|     512 | 0x0025      |          37 |
|     513 | 0x0029      |          41 |
|     514 | 0x007D      |         125 |
|     515 | 0x0079      |         121 |
|     516 | 0x007C      |         124 |
|     517 | 0x0074      |         116 |
|     518 | 0x00EC      |         236 |
|     519 | 0x019C      |         412 |
|     520 | 0x0193      |         403 |
|     521 | 0x01C6      |         454 |
|     522 | 0x01C7      |         455 |
|     523 | 0x0080      |         128 |
|     524 | 0xFFFF3426  |  4294915110 |
|     525 | 0xD185      |       53637 |
|     526 | 0xFFFF2601  |  4294911489 |
|     527 | 0xEF8A      |       61322 |
|     528 | 0xFFFF37E9  |  4294916073 |
|     529 | 0xAE94      |       44692 |
|     530 | 0xFFFF8347  |  4294935367 |
|     531 | 0x9C2E      |       39982 |
|     532 | 0xFFFF2D60  |  4294913376 |
|     533 | 0xBFDE      |       49118 |
|     534 | 0xAC55      |       44117 |
|     535 | 0xFFFF4192  |  4294918546 |
|     536 | 0xB4E2      |       46306 |
|     537 | 0xFFFF3D21  |  4294917409 |
|     538 | 0xA54E      |       42318 |

## Events

### Event 65535

#### Metadata

| Field        | Value   |
|--------------|---------|
| Entrypoint   | 0x0000  |
| Data Size    | 1 bytes |
| Instructions | 1       |

```
      00 01 02 03 04 05 06 07  08 09 0A 0B 0C 0D 0E 0F
      -- -- -- -- -- -- -- --  -- -- -- -- -- -- -- --
0000: 00                                                .               
```

#### Opcodes

```
  0: 0x0000 [0x00] END_REQSTACK()
```

### Event 10171

#### Metadata

| Field        | Value   |
|--------------|---------|
| Entrypoint   | 0x0001  |
| Data Size    | 1 bytes |
| Instructions | 1       |

```
      00 01 02 03 04 05 06 07  08 09 0A 0B 0C 0D 0E 0F
      -- -- -- -- -- -- -- --  -- -- -- -- -- -- -- --
0000:    00                                              .              
```

#### Opcodes

```
  0: 0x0001 [0x00] END_REQSTACK()
```

### Event 10036

#### Metadata

| Field        | Value   |
|--------------|---------|
| Entrypoint   | 0x0002  |
| Data Size    | 1 bytes |
| Instructions | 1       |

```
      00 01 02 03 04 05 06 07  08 09 0A 0B 0C 0D 0E 0F
      -- -- -- -- -- -- -- --  -- -- -- -- -- -- -- --
0000:       00                                            .             
```

#### Opcodes

```
  0: 0x0002 [0x00] END_REQSTACK()
```

### Event 10038

#### Metadata

| Field        | Value     |
|--------------|-----------|
| Entrypoint   | 0x0003    |
| Data Size    | 561 bytes |
| Instructions | 80        |

```
      00 01 02 03 04 05 06 07  08 09 0A 0B 0C 0D 0E 0F
      -- -- -- -- -- -- -- --  -- -- -- -- -- -- -- --
0000:          2F 00 F8 FF FF  7F 2F 00 8E 40 0F 01 45     /...../..@..E
0010: 00 80 F8 FF FF 7F F8 FF  FF 7F 66 64 6F 32 01 80  ..........fdo2..
0020: 55 00 80 F8 FF FF 7F F8  FF FF 7F 66 64 6F 32 46  U..........fdo2F
0030: 01 92 01 F8 FF FF 7F 92  01 8E 40 0F 01 92 01 2E  ..........@.....
0040: 40 0F 01 38 02 80 77 03  80 04 80 1A AE 31 1A 78  @..8..w......1.x
0050: 36 1A C3 2D 95 01 80 37  05 80 06 80 01 80 07 80  6..-...7........
0060: 22 00 80 F8 FF FF 7F 29  0A F0 FF FF 7F 42 27 0F  "......).....B'.
0070: 8E 40 0F 01 04 4E 00 8E  40 0F 01 80 8E 40 0F 01  .@...N..@....@..
0080: 45 08 80 F0 FF FF 7F F0  FF FF 7F 73 30 35 32 01  E..........s052.
0090: 80 45 00 80 F8 FF FF 7F  F8 FF FF 7F 66 64 69 31  .E..........fdi1
00A0: 01 80 6E 8F 40 0F 01 09  80 99 8F 40 0F 01 99 8F  ..n.@......@....
00B0: 40 0F 01 1C 0A 80 32 0B  80 1F 00 0C 80 0D 80 01  @.....2.........
00C0: 80 1F 01 2B 2E 40 0F 01  0E 80 23 2A 0F 8E 40 0F  ...+.@....#*..@.
00D0: 01 1C 0F 80 4A 8F 40 0F  01 8E 40 0F 01 6F 76 8F  ....J.@...@..ov.
00E0: 40 0F 01 52 08 80 F0 FF  FF 7F F0 FF FF 7F 73 30  @..R..........s0
00F0: 35 32 45 08 80 F0 FF FF  7F F0 FF FF 7F 73 30 35  52E..........s05
0100: 33 01 80 1C 10 80 27 14  8E 40 0F 01 05 1C 11 80  3.....'..@......
0110: 6E 8F 40 0F 01 12 80 99  8F 40 0F 01 2B 2E 40 0F  n.@......@..+.@.
0120: 01 13 80 23 1C 14 80 45  00 80 F8 FF FF 7F F8 FF  ...#...E........
0130: FF 7F 66 64 6F 31 01 80  55 00 80 F8 FF FF 7F F8  ..fdo1..U.......
0140: FF FF 7F 66 64 6F 31 52  08 80 F0 FF FF 7F F0 FF  ...fdo1R........
0150: FF 7F 73 30 35 33 22 01  2F 01 8E 40 0F 01 4E 01  ..s053"./..@..N.
0160: 8E 40 0F 01 4E 01 F0 FF  FF 7F 78 4B 2E 40 0F 01  .@..N.....xK.@..
0170: 15 80 6F 76 2E 40 0F 01  66 01 80 2E 40 0F 01 2E  ..ov.@..f...@...
0180: 40 0F 01 74 6C 6B 30 45  16 80 F8 FF FF 7F F8 FF  @..tlk0E........
0190: FF 7F 73 30 35 35 01 80  1C 11 80 45 00 80 F8 FF  ..s055.....E....
01A0: FF 7F F8 FF FF 7F 66 64  69 32 01 80 55 00 80 F8  ......fdi2..U...
01B0: FF FF 7F F8 FF FF 7F 66  64 69 32 1C 11 80 2B 2E  .......fdi2...+.
01C0: 40 0F 01 17 80 23 1C 11  80 66 01 80 2E 40 0F 01  @....#...f...@..
01D0: 2E 40 0F 01 74 65 6E 30  1C 11 80 45 00 80 F8 FF  .@..ten0...E....
01E0: FF 7F F8 FF FF 7F 66 64  6F 31 01 80 55 00 80 F8  ......fdo1..U...
01F0: FF FF 7F F8 FF FF 7F 66  64 6F 31 52 16 80 F8 FF  .......fdo1R....
0200: FF 7F F8 FF FF 7F 73 30  35 35 4E 00 F0 FF FF 7F  ......s055N.....
0210: 96 46 00 92 00 F8 FF FF  7F 1C 18 80 45 00 80 F8  .F..........E...
0220: FF FF 7F F8 FF FF 7F 66  64 69 30 01 80 2F 01 8F  .......fdi0../..
0230: 40 0F 01 00                                       @...            
```

#### Opcodes

```
  0: 0x0003 [0x2F] EventEntity->Render.Flags0 &= ~0x80000 // Bit 19
  1: 0x0009 [0x2F] Palometa (ID: 17776782/0x010F408E)->Render.Flags0 &= ~0x80000 // Bit 19
  2: 0x000F [0x45] LOAD_SCHEDULED_TASK: Load scheduler "fdo2" with entities [EventEntity, EventEntity], work=[200*, 0*]
  3: 0x0020 [0x55] WAIT_LOAD_SCHEDULER: Wait for scheduler "fdo2" with entities [EventEntity, EventEntity], work=200*
  4: 0x002F [0x46] CAMERA_CONTROL: Disable user control
  5: 0x0031 [0x92] EventEntity->Render.Flags3 ^= 0x01
  6: 0x0037 [0x92] Palometa (ID: 17776782/0x010F408E)->Render.Flags3 ^= 0x01
  7: 0x003D [0x92] Bheem (ID: 17776686/0x010F402E)->Render.Flags3 ^= 0x01
  8: 0x0043 [0x38] SET_CLIENT_EVENT_MODE(mode=19*)
  9: 0x0046 [0x77] SET_EVENT_TIME_WEATHER(hour=12*, weather=1*)
 10: 0x004B [0x1A] CALL_SUBROUTINE(address=0x31AE)
 11: 0x004E [0x1A] CALL_SUBROUTINE(address=0x3678)
 12: 0x0051 [0x1A] CALL_SUBROUTINE(address=0x2DC3)
 13: 0x0054 [0x95] SETUP_EVENT_NPC: Prepare NPC for event (Render.Flags3 = 0*)
 14: 0x0057 [0x37] UPDATE_EVENT_POSITION_AND_DIR: x=-94.733*, z=163.293*, y=0.000*, direction=189.0°*
 15: 0x0060 [0x22] ENTITY_HIDE_FLAG(enabled=0x00)
 16: 0x0062 [0x80] LOAD_WAIT(entity=EventEntity)
 17: 0x0067 [0x29] REQ_SET_WAIT(priority=0x0A, entity_id=LocalPlayer, tag_num=0x42)
 18: 0x006E [0x27] REQ_SET(priority=0x0F, entity_id=Palometa (ID: 17776782/0x010F408E), tag_num=0x04)
 19: 0x0075 [0x4E] SET_ENTITY_HIDE_FLAG: Show Palometa (ID: 17776782/0x010F408E)
 20: 0x007B [0x80] LOAD_WAIT(entity=Palometa (ID: 17776782/0x010F408E))
 21: 0x0080 [0x45] LOAD_SCHEDULED_TASK: Load scheduler "s052" with entities [LocalPlayer, LocalPlayer], work=[191*, 0*]
 22: 0x0091 [0x45] LOAD_SCHEDULED_TASK: Load scheduler "fdi1" with entities [EventEntity, EventEntity], work=[200*, 0*]
 23: 0x00A2 [0x6E] Unnamed NPC (ID: 17776783/0x010F408F) uses emote 6*
 24: 0x00A9 [0x99] Wait for Unnamed NPC (ID: 17776783/0x010F408F) animation to complete
 25: 0x00AE [0x99] Wait for Unnamed NPC (ID: 17776783/0x010F408F) animation to complete
 26: 0x00B3 [0x1C] WAIT(180* ticks)
 27: 0x00B6 [0x32] ExtData[1]->MainSpeed = 13* * 0.1
 28: 0x00B9 [0x1F] MOVE_ENTITY: EventEntity moves to X=-95.720*, Z=165.730*, Y=0.000*
 29: 0x00C1 [0x1F] MOVE_ENTITY: Update entity position (mode=1)
 30: 0x00C3 [0x2B] Bheem (ID: 17776686/0x010F402E) [8871*]:
    → "Always looking into some mirror. It kind of stuck in my mind."
 31: 0x00CA [0x23] WAIT_FOR_DIALOG_INTERACTION
 32: 0x00CB [0x2A] GET_REQ_LEVEL(level=15, entity_id=Palometa (ID: 17776782/0x010F408E))
 33: 0x00D1 [0x1C] WAIT(15* ticks)
 34: 0x00D4 [0x4A] Unnamed NPC (ID: 17776783/0x010F408F) looks at Palometa (ID: 17776782/0x010F408E)
 35: 0x00DD [0x6F] WAIT_FRAME_DELAY: Yield until WaitTime reaches zero
 36: 0x00DE [0x76] CHECK_ENTITY_RENDER_FLAGS: Wait until Unnamed NPC (ID: 17776783/0x010F408F) Render.Flags0 and Render.Flags3 conditions are met
 37: 0x00E3 [0x52] END_LOAD_SCHEDULER: End scheduler "s052" with entities [LocalPlayer, LocalPlayer], work=191*
 38: 0x00F2 [0x45] LOAD_SCHEDULED_TASK: Load scheduler "s053" with entities [LocalPlayer, LocalPlayer], work=[191*, 0*]
 39: 0x0103 [0x1C] WAIT(30* ticks)
 40: 0x0106 [0x27] REQ_SET(priority=0x14, entity_id=Palometa (ID: 17776782/0x010F408E), tag_num=0x05)
 41: 0x010D [0x1C] WAIT(60* ticks)
 42: 0x0110 [0x6E] Unnamed NPC (ID: 17776783/0x010F408F) uses emote 7*
 43: 0x0117 [0x99] Wait for Unnamed NPC (ID: 17776783/0x010F408F) animation to complete
 44: 0x011C [0x2B] Bheem (ID: 17776686/0x010F402E) [8872*]:
    → "It's like this adventurer was searching for something. I guess that's what you guys do, though."
 45: 0x0123 [0x23] WAIT_FOR_DIALOG_INTERACTION
 46: 0x0124 [0x1C] WAIT(90* ticks)
 47: 0x0127 [0x45] LOAD_SCHEDULED_TASK: Load scheduler "fdo1" with entities [EventEntity, EventEntity], work=[200*, 0*]
 48: 0x0138 [0x55] WAIT_LOAD_SCHEDULER: Wait for scheduler "fdo1" with entities [EventEntity, EventEntity], work=200*
 49: 0x0147 [0x52] END_LOAD_SCHEDULER: End scheduler "s053" with entities [LocalPlayer, LocalPlayer], work=191*
 50: 0x0156 [0x22] ENTITY_HIDE_FLAG(enabled=0x01)
 51: 0x0158 [0x2F] Palometa (ID: 17776782/0x010F408E)->Render.Flags0 |= 0x80000 // Bit 19
 52: 0x015E [0x4E] SET_ENTITY_HIDE_FLAG: Hide Palometa (ID: 17776782/0x010F408E)
 53: 0x0164 [0x4E] SET_ENTITY_HIDE_FLAG: Hide LocalPlayer
 54: 0x016A [0x78] ENABLE_GAME_TIMER_RESET_WEATHER()
 55: 0x016B [0x4B] UPDATE_ENTITY_YAW(entity=Bheem (ID: 17776686/0x010F402E), yaw=2.2°*)
 56: 0x0172 [0x6F] WAIT_FRAME_DELAY: Yield until WaitTime reaches zero
 57: 0x0173 [0x76] CHECK_ENTITY_RENDER_FLAGS: Wait until Bheem (ID: 17776686/0x010F402E) Render.Flags0 and Render.Flags3 conditions are met
 58: 0x0178 [0x66] LOAD_EXT_SCHEDULER_MAIN: Load scheduler "tlk0" with entities [Bheem (ID: 17776686/0x010F402E), Bheem (ID: 17776686/0x010F402E)], work=0*
 59: 0x0187 [0x45] LOAD_SCHEDULED_TASK: Load scheduler "s055" with entities [EventEntity, EventEntity], work=[34*, 0*]
 60: 0x0198 [0x1C] WAIT(60* ticks)
 61: 0x019B [0x45] LOAD_SCHEDULED_TASK: Load scheduler "fdi2" with entities [EventEntity, EventEntity], work=[200*, 0*]
 62: 0x01AC [0x55] WAIT_LOAD_SCHEDULER: Wait for scheduler "fdi2" with entities [EventEntity, EventEntity], work=200*
 63: 0x01BB [0x1C] WAIT(60* ticks)
 64: 0x01BE [0x2B] Bheem (ID: 17776686/0x010F402E) [8873*]:
    → "Stick around here long enough and maybe you'll get lucky. Everyone comes back to Jeuno eventually."
 65: 0x01C5 [0x23] WAIT_FOR_DIALOG_INTERACTION
 66: 0x01C6 [0x1C] WAIT(60* ticks)
 67: 0x01C9 [0x66] LOAD_EXT_SCHEDULER_MAIN: Load scheduler "ten0" with entities [Bheem (ID: 17776686/0x010F402E), Bheem (ID: 17776686/0x010F402E)], work=0*
 68: 0x01D8 [0x1C] WAIT(60* ticks)
 69: 0x01DB [0x45] LOAD_SCHEDULED_TASK: Load scheduler "fdo1" with entities [EventEntity, EventEntity], work=[200*, 0*]
 70: 0x01EC [0x55] WAIT_LOAD_SCHEDULER: Wait for scheduler "fdo1" with entities [EventEntity, EventEntity], work=200*
 71: 0x01FB [0x52] END_LOAD_SCHEDULER: End scheduler "s055" with entities [EventEntity, EventEntity], work=34*
 72: 0x020A [0x4E] SET_ENTITY_HIDE_FLAG: Show LocalPlayer
 73: 0x0210 [0x96] UNSET_EVENT_NPC: Restore NPC after event (removes event NPC status)
 74: 0x0211 [0x46] CAMERA_CONTROL: Restore default settings
 75: 0x0213 [0x92] EventEntity->Render.Flags3 = Flags3  // No change (flag=0)
 76: 0x0219 [0x1C] WAIT(120* ticks)
 77: 0x021C [0x45] LOAD_SCHEDULED_TASK: Load scheduler "fdi0" with entities [EventEntity, EventEntity], work=[200*, 0*]
 78: 0x022D [0x2F] Unnamed NPC (ID: 17776783/0x010F408F)->Render.Flags0 |= 0x80000 // Bit 19
 79: 0x0233 [0x00] END_REQSTACK()
```

### Event 10054

#### Metadata

| Field        | Value     |
|--------------|-----------|
| Entrypoint   | 0x0234    |
| Data Size    | 563 bytes |
| Instructions | 81        |

```
      00 01 02 03 04 05 06 07  08 09 0A 0B 0C 0D 0E 0F
      -- -- -- -- -- -- -- --  -- -- -- -- -- -- -- --
0230:             42 2F 00 8F  40 0F 01 80 8F 40 0F 01      B/..@....@..
0240: 45 00 80 F8 FF FF 7F F8  FF FF 7F 66 64 6F 32 01  E..........fdo2.
0250: 80 55 00 80 F8 FF FF 7F  F8 FF FF 7F 66 64 6F 32  .U..........fdo2
0260: 46 01 92 01 8E 40 0F 01  92 01 2E 40 0F 01 38 02  F....@.....@..8.
0270: 80 77 03 80 04 80 1A AE  31 1A 78 36 1A C3 2D 95  .w......1.x6..-.
0280: 01 80 22 00 37 05 80 06  80 01 80 07 80 2F 00 8E  ..".7......../..
0290: 40 0F 01 4E 00 8E 40 0F  01 80 8E 40 0F 01 29 0A  @..N..@....@..).
02A0: F0 FF FF 7F 42 27 0F 8E  40 0F 01 04 45 08 80 F0  ....B'..@...E...
02B0: FF FF 7F F0 FF FF 7F 73  30 35 32 01 80 1C 11 80  .......s052.....
02C0: 45 00 80 F8 FF FF 7F F8  FF FF 7F 66 64 69 31 01  E..........fdi1.
02D0: 80 55 00 80 F8 FF FF 7F  F8 FF FF 7F 66 64 69 31  .U..........fdi1
02E0: 6E 8F 40 0F 01 09 80 99  8F 40 0F 01 99 8F 40 0F  n.@......@....@.
02F0: 01 1C 04 80 32 0B 80 1F  00 0C 80 0D 80 01 80 1F  ....2...........
0300: 01 2B 2E 40 0F 01 0E 80  23 2A 0F 8E 40 0F 01 1C  .+.@....#*..@...
0310: 0F 80 4A 8F 40 0F 01 8E  40 0F 01 6F 76 8F 40 0F  ..J.@...@..ov.@.
0320: 01 52 08 80 F0 FF FF 7F  F0 FF FF 7F 73 30 35 32  .R..........s052
0330: 45 08 80 F0 FF FF 7F F0  FF FF 7F 73 30 35 33 01  E..........s053.
0340: 80 1C 10 80 27 14 8E 40  0F 01 05 1C 11 80 6E 8F  ....'..@......n.
0350: 40 0F 01 12 80 99 8F 40  0F 01 2B 2E 40 0F 01 13  @......@..+.@...
0360: 80 23 1C 14 80 45 00 80  F8 FF FF 7F F8 FF FF 7F  .#...E..........
0370: 66 64 6F 31 01 80 55 00  80 F8 FF FF 7F F8 FF FF  fdo1..U.........
0380: 7F 66 64 6F 31 52 08 80  F0 FF FF 7F F0 FF FF 7F  .fdo1R..........
0390: 73 30 35 33 22 01 2F 01  8E 40 0F 01 4E 01 8E 40  s053"./..@..N..@
03A0: 0F 01 4E 01 F0 FF FF 7F  78 4B 2E 40 0F 01 15 80  ..N.....xK.@....
03B0: 6F 76 2E 40 0F 01 66 01  80 2E 40 0F 01 2E 40 0F  ov.@..f...@...@.
03C0: 01 74 6C 6B 30 45 16 80  F8 FF FF 7F F8 FF FF 7F  .tlk0E..........
03D0: 73 30 35 35 01 80 1C 11  80 45 00 80 F8 FF FF 7F  s055.....E......
03E0: F8 FF FF 7F 66 64 69 32  01 80 55 00 80 F8 FF FF  ....fdi2..U.....
03F0: 7F F8 FF FF 7F 66 64 69  32 1C 11 80 2B 2E 40 0F  .....fdi2...+.@.
0400: 01 17 80 23 1C 11 80 66  01 80 2E 40 0F 01 2E 40  ...#...f...@...@
0410: 0F 01 74 65 6E 30 1C 11  80 45 00 80 F8 FF FF 7F  ..ten0...E......
0420: F8 FF FF 7F 66 64 6F 31  01 80 55 00 80 F8 FF FF  ....fdo1..U.....
0430: 7F F8 FF FF 7F 66 64 6F  31 52 16 80 F8 FF FF 7F  .....fdo1R......
0440: F8 FF FF 7F 73 30 35 35  4E 00 F0 FF FF 7F 96 46  ....s055N......F
0450: 00 1C 18 80 45 00 80 F8  FF FF 7F F8 FF FF 7F 66  ....E..........f
0460: 64 69 30 01 80 21 00                              di0..!.         
```

#### Opcodes

```
  0: 0x0234 [0x42] SET_CLI_EVENT_CANCEL_DATA()
  1: 0x0235 [0x2F] Unnamed NPC (ID: 17776783/0x010F408F)->Render.Flags0 &= ~0x80000 // Bit 19
  2: 0x023B [0x80] LOAD_WAIT(entity=Unnamed NPC (ID: 17776783/0x010F408F))
  3: 0x0240 [0x45] LOAD_SCHEDULED_TASK: Load scheduler "fdo2" with entities [EventEntity, EventEntity], work=[200*, 0*]
  4: 0x0251 [0x55] WAIT_LOAD_SCHEDULER: Wait for scheduler "fdo2" with entities [EventEntity, EventEntity], work=200*
  5: 0x0260 [0x46] CAMERA_CONTROL: Disable user control
  6: 0x0262 [0x92] Palometa (ID: 17776782/0x010F408E)->Render.Flags3 ^= 0x01
  7: 0x0268 [0x92] Bheem (ID: 17776686/0x010F402E)->Render.Flags3 ^= 0x01
  8: 0x026E [0x38] SET_CLIENT_EVENT_MODE(mode=19*)
  9: 0x0271 [0x77] SET_EVENT_TIME_WEATHER(hour=12*, weather=1*)
 10: 0x0276 [0x1A] CALL_SUBROUTINE(address=0x31AE)
 11: 0x0279 [0x1A] CALL_SUBROUTINE(address=0x3678)
 12: 0x027C [0x1A] CALL_SUBROUTINE(address=0x2DC3)
 13: 0x027F [0x95] SETUP_EVENT_NPC: Prepare NPC for event (Render.Flags3 = 0*)
 14: 0x0282 [0x22] ENTITY_HIDE_FLAG(enabled=0x00)
 15: 0x0284 [0x37] UPDATE_EVENT_POSITION_AND_DIR: x=-94.733*, z=163.293*, y=0.000*, direction=189.0°*
 16: 0x028D [0x2F] Palometa (ID: 17776782/0x010F408E)->Render.Flags0 &= ~0x80000 // Bit 19
 17: 0x0293 [0x4E] SET_ENTITY_HIDE_FLAG: Show Palometa (ID: 17776782/0x010F408E)
 18: 0x0299 [0x80] LOAD_WAIT(entity=Palometa (ID: 17776782/0x010F408E))
 19: 0x029E [0x29] REQ_SET_WAIT(priority=0x0A, entity_id=LocalPlayer, tag_num=0x42)
 20: 0x02A5 [0x27] REQ_SET(priority=0x0F, entity_id=Palometa (ID: 17776782/0x010F408E), tag_num=0x04)
 21: 0x02AC [0x45] LOAD_SCHEDULED_TASK: Load scheduler "s052" with entities [LocalPlayer, LocalPlayer], work=[191*, 0*]
 22: 0x02BD [0x1C] WAIT(60* ticks)
 23: 0x02C0 [0x45] LOAD_SCHEDULED_TASK: Load scheduler "fdi1" with entities [EventEntity, EventEntity], work=[200*, 0*]
 24: 0x02D1 [0x55] WAIT_LOAD_SCHEDULER: Wait for scheduler "fdi1" with entities [EventEntity, EventEntity], work=200*
 25: 0x02E0 [0x6E] Unnamed NPC (ID: 17776783/0x010F408F) uses emote 6*
 26: 0x02E7 [0x99] Wait for Unnamed NPC (ID: 17776783/0x010F408F) animation to complete
 27: 0x02EC [0x99] Wait for Unnamed NPC (ID: 17776783/0x010F408F) animation to complete
 28: 0x02F1 [0x1C] WAIT(1* ticks)
 29: 0x02F4 [0x32] ExtData[1]->MainSpeed = 13* * 0.1
 30: 0x02F7 [0x1F] MOVE_ENTITY: EventEntity moves to X=-95.720*, Z=165.730*, Y=0.000*
 31: 0x02FF [0x1F] MOVE_ENTITY: Update entity position (mode=1)
 32: 0x0301 [0x2B] Bheem (ID: 17776686/0x010F402E) [8871*]:
    → "Always looking into some mirror. It kind of stuck in my mind."
 33: 0x0308 [0x23] WAIT_FOR_DIALOG_INTERACTION
 34: 0x0309 [0x2A] GET_REQ_LEVEL(level=15, entity_id=Palometa (ID: 17776782/0x010F408E))
 35: 0x030F [0x1C] WAIT(15* ticks)
 36: 0x0312 [0x4A] Unnamed NPC (ID: 17776783/0x010F408F) looks at Palometa (ID: 17776782/0x010F408E)
 37: 0x031B [0x6F] WAIT_FRAME_DELAY: Yield until WaitTime reaches zero
 38: 0x031C [0x76] CHECK_ENTITY_RENDER_FLAGS: Wait until Unnamed NPC (ID: 17776783/0x010F408F) Render.Flags0 and Render.Flags3 conditions are met
 39: 0x0321 [0x52] END_LOAD_SCHEDULER: End scheduler "s052" with entities [LocalPlayer, LocalPlayer], work=191*
 40: 0x0330 [0x45] LOAD_SCHEDULED_TASK: Load scheduler "s053" with entities [LocalPlayer, LocalPlayer], work=[191*, 0*]
 41: 0x0341 [0x1C] WAIT(30* ticks)
 42: 0x0344 [0x27] REQ_SET(priority=0x14, entity_id=Palometa (ID: 17776782/0x010F408E), tag_num=0x05)
 43: 0x034B [0x1C] WAIT(60* ticks)
 44: 0x034E [0x6E] Unnamed NPC (ID: 17776783/0x010F408F) uses emote 7*
 45: 0x0355 [0x99] Wait for Unnamed NPC (ID: 17776783/0x010F408F) animation to complete
 46: 0x035A [0x2B] Bheem (ID: 17776686/0x010F402E) [8872*]:
    → "It's like this adventurer was searching for something. I guess that's what you guys do, though."
 47: 0x0361 [0x23] WAIT_FOR_DIALOG_INTERACTION
 48: 0x0362 [0x1C] WAIT(90* ticks)
 49: 0x0365 [0x45] LOAD_SCHEDULED_TASK: Load scheduler "fdo1" with entities [EventEntity, EventEntity], work=[200*, 0*]
 50: 0x0376 [0x55] WAIT_LOAD_SCHEDULER: Wait for scheduler "fdo1" with entities [EventEntity, EventEntity], work=200*
 51: 0x0385 [0x52] END_LOAD_SCHEDULER: End scheduler "s053" with entities [LocalPlayer, LocalPlayer], work=191*
 52: 0x0394 [0x22] ENTITY_HIDE_FLAG(enabled=0x01)
 53: 0x0396 [0x2F] Palometa (ID: 17776782/0x010F408E)->Render.Flags0 |= 0x80000 // Bit 19
 54: 0x039C [0x4E] SET_ENTITY_HIDE_FLAG: Hide Palometa (ID: 17776782/0x010F408E)
 55: 0x03A2 [0x4E] SET_ENTITY_HIDE_FLAG: Hide LocalPlayer
 56: 0x03A8 [0x78] ENABLE_GAME_TIMER_RESET_WEATHER()
 57: 0x03A9 [0x4B] UPDATE_ENTITY_YAW(entity=Bheem (ID: 17776686/0x010F402E), yaw=2.2°*)
 58: 0x03B0 [0x6F] WAIT_FRAME_DELAY: Yield until WaitTime reaches zero
 59: 0x03B1 [0x76] CHECK_ENTITY_RENDER_FLAGS: Wait until Bheem (ID: 17776686/0x010F402E) Render.Flags0 and Render.Flags3 conditions are met
 60: 0x03B6 [0x66] LOAD_EXT_SCHEDULER_MAIN: Load scheduler "tlk0" with entities [Bheem (ID: 17776686/0x010F402E), Bheem (ID: 17776686/0x010F402E)], work=0*
 61: 0x03C5 [0x45] LOAD_SCHEDULED_TASK: Load scheduler "s055" with entities [EventEntity, EventEntity], work=[34*, 0*]
 62: 0x03D6 [0x1C] WAIT(60* ticks)
 63: 0x03D9 [0x45] LOAD_SCHEDULED_TASK: Load scheduler "fdi2" with entities [EventEntity, EventEntity], work=[200*, 0*]
 64: 0x03EA [0x55] WAIT_LOAD_SCHEDULER: Wait for scheduler "fdi2" with entities [EventEntity, EventEntity], work=200*
 65: 0x03F9 [0x1C] WAIT(60* ticks)
 66: 0x03FC [0x2B] Bheem (ID: 17776686/0x010F402E) [8873*]:
    → "Stick around here long enough and maybe you'll get lucky. Everyone comes back to Jeuno eventually."
 67: 0x0403 [0x23] WAIT_FOR_DIALOG_INTERACTION
 68: 0x0404 [0x1C] WAIT(60* ticks)
 69: 0x0407 [0x66] LOAD_EXT_SCHEDULER_MAIN: Load scheduler "ten0" with entities [Bheem (ID: 17776686/0x010F402E), Bheem (ID: 17776686/0x010F402E)], work=0*
 70: 0x0416 [0x1C] WAIT(60* ticks)
 71: 0x0419 [0x45] LOAD_SCHEDULED_TASK: Load scheduler "fdo1" with entities [EventEntity, EventEntity], work=[200*, 0*]
 72: 0x042A [0x55] WAIT_LOAD_SCHEDULER: Wait for scheduler "fdo1" with entities [EventEntity, EventEntity], work=200*
 73: 0x0439 [0x52] END_LOAD_SCHEDULER: End scheduler "s055" with entities [EventEntity, EventEntity], work=34*
 74: 0x0448 [0x4E] SET_ENTITY_HIDE_FLAG: Show LocalPlayer
 75: 0x044E [0x96] UNSET_EVENT_NPC: Restore NPC after event (removes event NPC status)
 76: 0x044F [0x46] CAMERA_CONTROL: Restore default settings
 77: 0x0451 [0x1C] WAIT(120* ticks)
 78: 0x0454 [0x45] LOAD_SCHEDULED_TASK: Load scheduler "fdi0" with entities [EventEntity, EventEntity], work=[200*, 0*]
 79: 0x0465 [0x21] END_EVENT
 80: 0x0466 [0x00] END_REQSTACK()
```

### Event 65535.1

#### Metadata

| Field        | Value   |
|--------------|---------|
| Entrypoint   | 0x0467  |
| Data Size    | 1 bytes |
| Instructions | 1       |

```
      00 01 02 03 04 05 06 07  08 09 0A 0B 0C 0D 0E 0F
      -- -- -- -- -- -- -- --  -- -- -- -- -- -- -- --
0460:                      00                                  .        
```

#### Opcodes

```
  0: 0x0467 [0x00] END_REQSTACK()
```

### Event 10040

#### Metadata

| Field        | Value   |
|--------------|---------|
| Entrypoint   | 0x0468  |
| Data Size    | 1 bytes |
| Instructions | 1       |

```
      00 01 02 03 04 05 06 07  08 09 0A 0B 0C 0D 0E 0F
      -- -- -- -- -- -- -- --  -- -- -- -- -- -- -- --
0460:                          00                               .       
```

#### Opcodes

```
  0: 0x0468 [0x00] END_REQSTACK()
```

### Event 65535.2

#### Metadata

| Field        | Value    |
|--------------|----------|
| Entrypoint   | 0x0469   |
| Data Size    | 10 bytes |
| Instructions | 2        |

```
      00 01 02 03 04 05 06 07  08 09 0A 0B 0C 0D 0E 0F
      -- -- -- -- -- -- -- --  -- -- -- -- -- -- -- --
0460:                             37 0C 80 0D 80 01 80           7......
0470: 19 80 00                                          ...             
```

#### Opcodes

```
  0: 0x0469 [0x37] UPDATE_EVENT_POSITION_AND_DIR: x=-95.720*, z=165.730*, y=0.000*, direction=69.7°*
  1: 0x0472 [0x00] END_REQSTACK()
```

### Event 10044

#### Metadata

| Field        | Value      |
|--------------|------------|
| Entrypoint   | 0x0473     |
| Data Size    | 1560 bytes |
| Instructions | 251        |

```
      00 01 02 03 04 05 06 07  08 09 0A 0B 0C 0D 0E 0F
      -- -- -- -- -- -- -- --  -- -- -- -- -- -- -- --
0470:          42 2F 00 8F 40  0F 01 45 00 80 F8 FF FF     B/..@..E.....
0480: 7F F8 FF FF 7F 66 64 6F  31 01 80 55 00 80 F8 FF  .....fdo1..U....
0490: FF 7F F8 FF FF 7F 66 64  6F 31 46 01 92 01 8C 40  ......fdo1F....@
04A0: 0F 01 38 02 80 1A 78 36  1A C3 2D 1A AE 31 1A 93  ..8...x6..-..1..
04B0: 25 1A B8 31 80 F8 FF FF  7F 03 02 10 03 00 27 0A  %..1..........'.
04C0: F0 FF FF 7F 44 2F 00 90  40 0F 01 4E 00 90 40 0F  ....D/..@..N..@.
04D0: 01 22 00 2A 0A F0 FF FF  7F 4A 8C 40 0F 01 F0 FF  .".*.....J.@....
04E0: FF 7F 1C 11 80 45 08 80  F8 FF FF 7F F8 FF FF 7F  .....E..........
04F0: 73 30 35 37 01 80 45 00  80 F8 FF FF 7F F8 FF FF  s057..E.........
0500: 7F 66 64 69 31 01 80 55  00 80 F8 FF FF 7F F8 FF  .fdi1..U........
0510: FF 7F 66 64 69 31 66 1A  80 8C 40 0F 01 8C 40 0F  ..fdi1f...@...@.
0520: 01 75 72 65 30 2B 8C 40  0F 01 1B 80 23 2B 8C 40  .ure0+.@....#+.@
0530: 0F 01 1C 80 23 1A B8 31  02 0D 00 01 80 80 4B 05  ....#..1......K.
0540: 2B 8C 40 0F 01 1D 80 23  01 D0 05 02 0D 00 04 80  +.@....#........
0550: 80 5E 05 2B 8C 40 0F 01  1E 80 23 01 D0 05 02 0D  .^.+.@....#.....
0560: 00 1F 80 80 71 05 2B 8C  40 0F 01 20 80 23 01 D0  ....q.+.@.. .#..
0570: 05 02 0D 00 21 80 80 84  05 2B 8C 40 0F 01 22 80  ....!....+.@..".
0580: 23 01 D0 05 02 0D 00 23  80 80 97 05 2B 8C 40 0F  #......#....+.@.
0590: 01 24 80 23 01 D0 05 02  0D 00 25 80 80 AA 05 2B  .$.#......%....+
05A0: 8C 40 0F 01 26 80 23 01  D0 05 02 0D 00 09 80 80  .@..&.#.........
05B0: BD 05 2B 8C 40 0F 01 27  80 23 01 D0 05 02 0D 00  ..+.@..'.#......
05C0: 12 80 80 D0 05 2B 8C 40  0F 01 28 80 23 01 D0 05  .....+.@..(.#...
05D0: 4A 8C 40 0F 01 8F 40 0F  01 52 08 80 F8 FF FF 7F  J.@...@..R......
05E0: F8 FF FF 7F 73 30 35 37  45 08 80 F8 FF FF 7F F8  ....s057E.......
05F0: FF FF 7F 73 30 35 38 01  80 37 29 80 2A 80 2B 80  ...s058..7).*.+.
0600: 2C 80 32 0B 80 1F 00 2D  80 2E 80 2F 80 1F 01 1E  ,.2....-.../....
0610: 8C 40 0F 01 66 30 80 8C  40 0F 01 8C 40 0F 01 74  .@..f0..@...@..t
0620: 6C 62 30 2B 8C 40 0F 01  31 80 23 66 30 80 8C 40  lb0+.@..1.#f0..@
0630: 0F 01 8C 40 0F 01 74 6C  62 31 6E 8F 40 0F 01 12  ...@..tlb1n.@...
0640: 80 99 8F 40 0F 01 1A 99  32 02 0A 00 04 80 80 5C  ...@....2......\
0650: 06 2B 8F 40 0F 01 32 80  23 01 2D 07 02 0A 00 1F  .+.@..2.#.-.....
0660: 80 80 6F 06 2B 8F 40 0F  01 33 80 23 01 2D 07 02  ..o.+.@..3.#.-..
0670: 0A 00 21 80 80 82 06 2B  8F 40 0F 01 34 80 23 01  ..!....+.@..4.#.
0680: 2D 07 02 0A 00 23 80 80  95 06 2B 8F 40 0F 01 35  -....#....+.@..5
0690: 80 23 01 2D 07 02 0A 00  25 80 80 A8 06 2B 8F 40  .#.-....%....+.@
06A0: 0F 01 36 80 23 01 2D 07  02 0A 00 09 80 80 BB 06  ..6.#.-.........
06B0: 2B 8F 40 0F 01 37 80 23  01 2D 07 02 0A 00 12 80  +.@..7.#.-......
06C0: 80 CE 06 2B 8F 40 0F 01  38 80 23 01 2D 07 02 0A  ...+.@..8.#.-...
06D0: 00 1A 80 80 E1 06 2B 8F  40 0F 01 39 80 23 01 2D  ......+.@..9.#.-
06E0: 07 02 0A 00 3A 80 80 F4  06 2B 8F 40 0F 01 3B 80  ....:....+.@..;.
06F0: 23 01 2D 07 02 0A 00 3C  80 80 07 07 2B 8F 40 0F  #.-....<....+.@.
0700: 01 3D 80 23 01 2D 07 02  0A 00 3E 80 80 1A 07 2B  .=.#.-....>....+
0710: 8F 40 0F 01 3F 80 23 01  2D 07 02 0A 00 03 80 80  .@..?.#.-.......
0720: 2D 07 2B 8F 40 0F 01 40  80 23 01 2D 07 1A B8 31  -.+.@..@.#.-...1
0730: 02 0D 00 01 80 80 57 07  27 14 90 40 0F 01 03 2A  ......W.'..@...*
0740: 14 90 40 0F 01 66 01 80  F8 FF FF 7F F8 FF FF 7F  ..@..f..........
0750: 70 61 73 30 01 68 08 02  0D 00 04 80 80 7E 07 27  pas0.h.......~.'
0760: 14 90 40 0F 01 03 2A 14  90 40 0F 01 66 3C 80 F8  ..@...*..@..f<..
0770: FF FF 7F F8 FF FF 7F 70  61 73 30 01 68 08 02 0D  .......pas0.h...
0780: 00 1F 80 80 A5 07 27 14  90 40 0F 01 04 2A 14 90  ......'..@...*..
0790: 40 0F 01 66 41 80 F8 FF  FF 7F F8 FF FF 7F 70 61  @..fA.........pa
07A0: 73 30 01 68 08 02 0D 00  21 80 80 CC 07 27 14 90  s0.h....!....'..
07B0: 40 0F 01 04 2A 14 90 40  0F 01 66 10 80 F8 FF FF  @...*..@..f.....
07C0: 7F F8 FF FF 7F 70 61 73  30 01 68 08 02 0D 00 23  .....pas0.h....#
07D0: 80 80 F3 07 27 14 90 40  0F 01 02 2A 14 90 40 0F  ....'..@...*..@.
07E0: 01 66 42 80 F8 FF FF 7F  F8 FF FF 7F 70 61 73 30  .fB.........pas0
07F0: 01 68 08 02 0D 00 25 80  80 1A 08 27 14 90 40 0F  .h....%....'..@.
0800: 01 02 2A 14 90 40 0F 01  66 42 80 F8 FF FF 7F F8  ..*..@..fB......
0810: FF FF 7F 70 61 73 30 01  68 08 02 0D 00 09 80 80  ...pas0.h.......
0820: 41 08 27 14 90 40 0F 01  03 2A 14 90 40 0F 01 66  A.'..@...*..@..f
0830: 43 80 F8 FF FF 7F F8 FF  FF 7F 70 61 73 30 01 68  C.........pas0.h
0840: 08 02 0D 00 12 80 80 68  08 27 14 90 40 0F 01 04  .......h.'..@...
0850: 2A 14 90 40 0F 01 66 11  80 F8 FF FF 7F F8 FF FF  *..@..f.........
0860: 7F 70 61 73 30 01 68 08  1C 11 80 79 00 8F 40 0F  .pas0.h....y..@.
0870: 01 90 40 0F 01 1C 11 80  62 21 80 90 40 0F 01 90  ..@.....b!..@...
0880: 40 0F 01 6D 61 69 6E 01  80 A0 21 80 90 40 0F 01  @..main...!..@..
0890: 90 40 0F 01 6D 61 69 6E  52 08 80 F8 FF FF 7F F8  .@..mainR.......
08A0: FF FF 7F 73 30 35 38 45  08 80 F8 FF FF 7F F8 FF  ...s058E........
08B0: FF 7F 73 30 36 30 01 80  1C 14 80 4A 8F 40 0F 01  ..s060.....J.@..
08C0: 8C 40 0F 01 1A 99 32 02  0A 00 04 80 80 DA 08 2B  .@....2........+
08D0: 8F 40 0F 01 44 80 23 01  AB 09 02 0A 00 1F 80 80  .@..D.#.........
08E0: ED 08 2B 8F 40 0F 01 45  80 23 01 AB 09 02 0A 00  ..+.@..E.#......
08F0: 21 80 80 00 09 2B 8F 40  0F 01 46 80 23 01 AB 09  !....+.@..F.#...
0900: 02 0A 00 23 80 80 13 09  2B 8F 40 0F 01 47 80 23  ...#....+.@..G.#
0910: 01 AB 09 02 0A 00 25 80  80 26 09 2B 8F 40 0F 01  ......%..&.+.@..
0920: 48 80 23 01 AB 09 02 0A  00 09 80 80 39 09 2B 8F  H.#.........9.+.
0930: 40 0F 01 49 80 23 01 AB  09 02 0A 00 12 80 80 4C  @..I.#.........L
0940: 09 2B 8F 40 0F 01 4A 80  23 01 AB 09 02 0A 00 1A  .+.@..J.#.......
0950: 80 80 5F 09 2B 8F 40 0F  01 4B 80 23 01 AB 09 02  .._.+.@..K.#....
0960: 0A 00 3A 80 80 72 09 2B  8F 40 0F 01 4C 80 23 01  ..:..r.+.@..L.#.
0970: AB 09 02 0A 00 3C 80 80  85 09 2B 8F 40 0F 01 4D  .....<....+.@..M
0980: 80 23 01 AB 09 02 0A 00  3E 80 80 98 09 2B 8F 40  .#......>....+.@
0990: 0F 01 4E 80 23 01 AB 09  02 0A 00 03 80 80 AB 09  ..N.#...........
09A0: 2B 8F 40 0F 01 4F 80 23  01 AB 09 2B 8C 40 0F 01  +.@..O.#...+.@..
09B0: 50 80 23 66 30 80 8C 40  0F 01 8C 40 0F 01 74 6C  P.#f0..@...@..tl
09C0: 62 30 2B 8C 40 0F 01 51  80 23 66 30 80 8C 40 0F  b0+.@..Q.#f0..@.
09D0: 01 8C 40 0F 01 74 6C 62  31 52 08 80 F8 FF FF 7F  ..@..tlb1R......
09E0: F8 FF FF 7F 73 30 36 30  45 08 80 F8 FF FF 7F F8  ....s060E.......
09F0: FF FF 7F 73 30 36 31 01  80 4A 8C 40 0F 01 F0 FF  ...s061..J.@....
0A00: FF 7F 66 30 80 8C 40 0F  01 8C 40 0F 01 74 6C 62  ..f0..@...@..tlb
0A10: 30 2B 8C 40 0F 01 52 80  23 2B 8C 40 0F 01 53 80  0+.@..R.#+.@..S.
0A20: 23 66 30 80 8C 40 0F 01  8C 40 0F 01 74 6C 62 31  #f0..@...@..tlb1
0A30: 45 00 80 F8 FF FF 7F F8  FF FF 7F 66 64 6F 31 01  E..........fdo1.
0A40: 80 55 00 80 F8 FF FF 7F  F8 FF FF 7F 66 64 6F 31  .U..........fdo1
0A50: 52 08 80 F8 FF FF 7F F8  FF FF 7F 73 30 36 31 22  R..........s061"
0A60: 01 2F 01 90 40 0F 01 4E  01 90 40 0F 01 46 00 1C  ./..@..N..@..F..
0A70: 11 80 45 00 80 F8 FF FF  7F F8 FF FF 7F 66 64 69  ..E..........fdi
0A80: 32 01 80 2F 01 8F 40 0F  01 21 00                 2../..@..!.     
```

#### Opcodes

```
  0: 0x0473 [0x42] SET_CLI_EVENT_CANCEL_DATA()
  1: 0x0474 [0x2F] Unnamed NPC (ID: 17776783/0x010F408F)->Render.Flags0 &= ~0x80000 // Bit 19
  2: 0x047A [0x45] LOAD_SCHEDULED_TASK: Load scheduler "fdo1" with entities [EventEntity, EventEntity], work=[200*, 0*]
  3: 0x048B [0x55] WAIT_LOAD_SCHEDULER: Wait for scheduler "fdo1" with entities [EventEntity, EventEntity], work=200*
  4: 0x049A [0x46] CAMERA_CONTROL: Disable user control
  5: 0x049C [0x92] Luto Mewrilah (ID: 17776780/0x010F408C)->Render.Flags3 ^= 0x01
  6: 0x04A2 [0x38] SET_CLIENT_EVENT_MODE(mode=19*)
  7: 0x04A5 [0x1A] CALL_SUBROUTINE(address=0x3678)
  8: 0x04A8 [0x1A] CALL_SUBROUTINE(address=0x2DC3)
  9: 0x04AB [0x1A] CALL_SUBROUTINE(address=0x31AE)
 10: 0x04AE [0x1A] CALL_SUBROUTINE(address=0x2593)
 11: 0x04B1 [0x1A] CALL_SUBROUTINE(address=0x31B8)
 12: 0x04B4 [0x80] LOAD_WAIT(entity=EventEntity)
 13: 0x04B9 [0x03] Work_Zone[2] = ExtData[1]->WorkLocal[3]
 14: 0x04BE [0x27] REQ_SET(priority=0x0A, entity_id=LocalPlayer, tag_num=0x44)
 15: 0x04C5 [0x2F] kagami_test (ID: 17776784/0x010F4090)->Render.Flags0 &= ~0x80000 // Bit 19
 16: 0x04CB [0x4E] SET_ENTITY_HIDE_FLAG: Show kagami_test (ID: 17776784/0x010F4090)
 17: 0x04D1 [0x22] ENTITY_HIDE_FLAG(enabled=0x00)
 18: 0x04D3 [0x2A] GET_REQ_LEVEL(level=10, entity_id=LocalPlayer)
 19: 0x04D9 [0x4A] Luto Mewrilah (ID: 17776780/0x010F408C) looks at LocalPlayer
 20: 0x04E2 [0x1C] WAIT(60* ticks)
 21: 0x04E5 [0x45] LOAD_SCHEDULED_TASK: Load scheduler "s057" with entities [EventEntity, EventEntity], work=[191*, 0*]
 22: 0x04F6 [0x45] LOAD_SCHEDULED_TASK: Load scheduler "fdi1" with entities [EventEntity, EventEntity], work=[200*, 0*]
 23: 0x0507 [0x55] WAIT_LOAD_SCHEDULER: Wait for scheduler "fdi1" with entities [EventEntity, EventEntity], work=200*
 24: 0x0516 [0x66] LOAD_EXT_SCHEDULER_MAIN: Load scheduler "ure0" with entities [Luto Mewrilah (ID: 17776780/0x010F408C), Luto Mewrilah (ID: 17776780/0x010F408C)], work=8*
 25: 0x0525 [0x2B] Luto Mewrilah (ID: 17776780/0x010F408C) [8997*]:
    → "<Player>! Nice timing. We've just got a lead on a new piece of trrreasure."
 26: 0x052C [0x23] WAIT_FOR_DIALOG_INTERACTION
 27: 0x052D [0x2B] Luto Mewrilah (ID: 17776780/0x010F408C) [8998*]:
    → "This new valuable is one of the mirrors we're searching for, but we're having trrrouble pinning down its location."
 28: 0x0534 [0x23] WAIT_FOR_DIALOG_INTERACTION
 29: 0x0535 [0x1A] CALL_SUBROUTINE(address=0x31B8)
 30: 0x0538 [0x02] IF !(ExtData[1]->WorkLocal[13] == 0*) GOTO 0x054B
 31: 0x0540 [0x2B] Luto Mewrilah (ID: 17776780/0x010F408C) [8999*]:
    → "I've called on [Feliz/Ferdinand/Gunnar/Massimo/Oldrich/Siegward/Theobald/Zenji] to help us. And speaking of which..."
 32: 0x0547 [0x23] WAIT_FOR_DIALOG_INTERACTION
 33: 0x0548 [0x01] GOTO 0x05D0
 34: 0x054B [0x02] IF !(ExtData[1]->WorkLocal[13] == 1*) GOTO 0x055E
 35: 0x0553 [0x2B] Luto Mewrilah (ID: 17776780/0x010F408C) [9000*]:
    → "I've called on [Amerita/Beatrice/Henrietta/Jesimae/Karyn/Nanako/Sharlene/Sieghilde] to help us. And speaking of which..."
 36: 0x055A [0x23] WAIT_FOR_DIALOG_INTERACTION
 37: 0x055B [0x01] GOTO 0x05D0
 38: 0x055E [0x02] IF !(ExtData[1]->WorkLocal[13] == 2*) GOTO 0x0571
 39: 0x0566 [0x2B] Luto Mewrilah (ID: 17776780/0x010F408C) [9001*]:
    → "I've called on [Chanandit/Deulmaeux/Demresinaux/Ephealgaux/Gauldeval/Grauffemart/Migaifongut/Romidiant] to help us. And speaking of which..."
 40: 0x056D [0x23] WAIT_FOR_DIALOG_INTERACTION
 41: 0x056E [0x01] GOTO 0x05D0
 42: 0x0571 [0x02] IF !(ExtData[1]->WorkLocal[13] == 3*) GOTO 0x0584
 43: 0x0579 [0x2B] Luto Mewrilah (ID: 17776780/0x010F408C) [9002*]:
    → "I've called on [Armittie/Cadepure/Clearite/Epilleve/Liabelle/Nauthima/Radille/Vimechue] to help us. And speaking of which..."
 44: 0x0580 [0x23] WAIT_FOR_DIALOG_INTERACTION
 45: 0x0581 [0x01] GOTO 0x05D0
 46: 0x0584 [0x02] IF !(ExtData[1]->WorkLocal[13] == 4*) GOTO 0x0597
 47: 0x058C [0x2B] Luto Mewrilah (ID: 17776780/0x010F408C) [9003*]:
    → "I've called on [Balu-Falu/Burg-Ladarg/Ehgo-Ryuhgo/Kolui-Pelui/Nokum-Akkum/Savul-Kivul/Vinja-Kanja/Yarga-Umiga] to help us. And speaking of which..."
 48: 0x0593 [0x23] WAIT_FOR_DIALOG_INTERACTION
 49: 0x0594 [0x01] GOTO 0x05D0
 50: 0x0597 [0x02] IF !(ExtData[1]->WorkLocal[13] == 5*) GOTO 0x05AA
 51: 0x059F [0x2B] Luto Mewrilah (ID: 17776780/0x010F408C) [9004*]:
    → "I've called on [Cupapa/Jajuju/Kalokoko/Mahoyaya/Pakurara/Ripokeke/Yawawa/Yufafa] to help us. And speaking of which..."
 52: 0x05A6 [0x23] WAIT_FOR_DIALOG_INTERACTION
 53: 0x05A7 [0x01] GOTO 0x05D0
 54: 0x05AA [0x02] IF !(ExtData[1]->WorkLocal[13] == 6*) GOTO 0x05BD
 55: 0x05B2 [0x2B] Luto Mewrilah (ID: 17776780/0x010F408C) [9005*]:
    → "I've called on [Fhig Lahrv/Khuma Tagyawhan/Pimy Kettihl/Raka Maimhov/Sahyu Banjyao/Sufhi Uchnouma/Tsuim Nhomango/Yoli Kohlpaka] to help us. And speaking of which..."
 56: 0x05B9 [0x23] WAIT_FOR_DIALOG_INTERACTION
 57: 0x05BA [0x01] GOTO 0x05D0
 58: 0x05BD [0x02] IF !(ExtData[1]->WorkLocal[13] == 7*) GOTO 0x05D0
 59: 0x05C5 [0x2B] Luto Mewrilah (ID: 17776780/0x010F408C) [9006*]:
    → "I've called on [Durib/Dzapiwa/Jugowa/Mugido/Voldai/Wagwei/Zayag/Zoldof] to help us. And speaking of which..."
 60: 0x05CC [0x23] WAIT_FOR_DIALOG_INTERACTION
 61: 0x05CD [0x01] GOTO 0x05D0

SUBROUTINE_05D0:
 62: 0x05D0 [0x4A] Luto Mewrilah (ID: 17776780/0x010F408C) looks at Unnamed NPC (ID: 17776783/0x010F408F)
 63: 0x05D9 [0x52] END_LOAD_SCHEDULER: End scheduler "s057" with entities [EventEntity, EventEntity], work=191*
 64: 0x05E8 [0x45] LOAD_SCHEDULED_TASK: Load scheduler "s058" with entities [EventEntity, EventEntity], work=[191*, 0*]
 65: 0x05F9 [0x37] UPDATE_EVENT_POSITION_AND_DIR: x=-51.114*, z=43.011*, y=-0.199*, direction=173.9°*
 66: 0x0602 [0x32] ExtData[1]->MainSpeed = 13* * 0.1
 67: 0x0605 [0x1F] MOVE_ENTITY: EventEntity moves to X=-54.042*, Z=42.985*, Y=-0.301*
 68: 0x060D [0x1F] MOVE_ENTITY: Update entity position (mode=1)
 69: 0x060F [0x1E] EventEntity looks at Luto Mewrilah (ID: 17776780/0x010F408C) and starts talking
 70: 0x0614 [0x66] LOAD_EXT_SCHEDULER_MAIN: Load scheduler "tlb0" with entities [Luto Mewrilah (ID: 17776780/0x010F408C), Luto Mewrilah (ID: 17776780/0x010F408C)], work=68*
 71: 0x0623 [0x2B] Luto Mewrilah (ID: 17776780/0x010F408C) [9007*]:
    → "I have a favorrr to ask you. Can you use your Glass of All-Seeing to locate the treasure we seek?"
 72: 0x062A [0x23] WAIT_FOR_DIALOG_INTERACTION
 73: 0x062B [0x66] LOAD_EXT_SCHEDULER_MAIN: Load scheduler "tlb1" with entities [Luto Mewrilah (ID: 17776780/0x010F408C), Luto Mewrilah (ID: 17776780/0x010F408C)], work=68*
 74: 0x063A [0x6E] Unnamed NPC (ID: 17776783/0x010F408F) uses emote 7*
 75: 0x0641 [0x99] Wait for Unnamed NPC (ID: 17776783/0x010F408F) animation to complete
 76: 0x0646 [0x1A] CALL_SUBROUTINE(address=0x3299)
 77: 0x0649 [0x02] IF !(ExtData[1]->WorkLocal[10] == 1*) GOTO 0x065C
 78: 0x0651 [0x2B] Unnamed NPC (ID: 17776783/0x010F408F) [9008*]:
    → "Sure, I guess."
 79: 0x0658 [0x23] WAIT_FOR_DIALOG_INTERACTION
 80: 0x0659 [0x01] GOTO 0x072D
 81: 0x065C [0x02] IF !(ExtData[1]->WorkLocal[10] == 2*) GOTO 0x066F
 82: 0x0664 [0x2B] Unnamed NPC (ID: 17776783/0x010F408F) [9009*]:
    → "Of course! Leave it to me!"
 83: 0x066B [0x23] WAIT_FOR_DIALOG_INTERACTION
 84: 0x066C [0x01] GOTO 0x072D
 85: 0x066F [0x02] IF !(ExtData[1]->WorkLocal[10] == 3*) GOTO 0x0682
 86: 0x0677 [0x2B] Unnamed NPC (ID: 17776783/0x010F408F) [9010*]:
    → "Sure, no problem."
 87: 0x067E [0x23] WAIT_FOR_DIALOG_INTERACTION
 88: 0x067F [0x01] GOTO 0x072D
 89: 0x0682 [0x02] IF !(ExtData[1]->WorkLocal[10] == 4*) GOTO 0x0695
 90: 0x068A [0x2B] Unnamed NPC (ID: 17776783/0x010F408F) [9011*]:
    → "Why yes, of course."
 91: 0x0691 [0x23] WAIT_FOR_DIALOG_INTERACTION
 92: 0x0692 [0x01] GOTO 0x072D
 93: 0x0695 [0x02] IF !(ExtData[1]->WorkLocal[10] == 5*) GOTO 0x06A8
 94: 0x069D [0x2B] Unnamed NPC (ID: 17776783/0x010F408F) [9014*]:
    → "Happy to help."
 95: 0x06A4 [0x23] WAIT_FOR_DIALOG_INTERACTION
 96: 0x06A5 [0x01] GOTO 0x072D
 97: 0x06A8 [0x02] IF !(ExtData[1]->WorkLocal[10] == 6*) GOTO 0x06BB
 98: 0x06B0 [0x2B] Unnamed NPC (ID: 17776783/0x010F408F) [9015*]:
    → "Of course! Leave it to me!"
 99: 0x06B7 [0x23] WAIT_FOR_DIALOG_INTERACTION
100: 0x06B8 [0x01] GOTO 0x072D
101: 0x06BB [0x02] IF !(ExtData[1]->WorkLocal[10] == 7*) GOTO 0x06CE
102: 0x06C3 [0x2B] Unnamed NPC (ID: 17776783/0x010F408F) [9016*]:
    → "Sure, I don't mind."
103: 0x06CA [0x23] WAIT_FOR_DIALOG_INTERACTION
104: 0x06CB [0x01] GOTO 0x072D
105: 0x06CE [0x02] IF !(ExtData[1]->WorkLocal[10] == 8*) GOTO 0x06E1
106: 0x06D6 [0x2B] Unnamed NPC (ID: 17776783/0x010F408F) [9017*]:
    → "You want my help? Sure!"
107: 0x06DD [0x23] WAIT_FOR_DIALOG_INTERACTION
108: 0x06DE [0x01] GOTO 0x072D
109: 0x06E1 [0x02] IF !(ExtData[1]->WorkLocal[10] == 9*) GOTO 0x06F4
110: 0x06E9 [0x2B] Unnamed NPC (ID: 17776783/0x010F408F) [9018*]:
    → "Why yes, of course."
111: 0x06F0 [0x23] WAIT_FOR_DIALOG_INTERACTION
112: 0x06F1 [0x01] GOTO 0x072D
113: 0x06F4 [0x02] IF !(ExtData[1]->WorkLocal[10] == 10*) GOTO 0x0707
114: 0x06FC [0x2B] Unnamed NPC (ID: 17776783/0x010F408F) [9012*]:
    → "You got it!"
115: 0x0703 [0x23] WAIT_FOR_DIALOG_INTERACTION
116: 0x0704 [0x01] GOTO 0x072D
117: 0x0707 [0x02] IF !(ExtData[1]->WorkLocal[10] == 11*) GOTO 0x071A
118: 0x070F [0x2B] Unnamed NPC (ID: 17776783/0x010F408F) [9013*]:
    → "Okay! Happy to oblige."
119: 0x0716 [0x23] WAIT_FOR_DIALOG_INTERACTION
120: 0x0717 [0x01] GOTO 0x072D
121: 0x071A [0x02] IF !(ExtData[1]->WorkLocal[10] == 12*) GOTO 0x072D
122: 0x0722 [0x2B] Unnamed NPC (ID: 17776783/0x010F408F) [9019*]:
    → "Hm, sounds reasonable."
123: 0x0729 [0x23] WAIT_FOR_DIALOG_INTERACTION
124: 0x072A [0x01] GOTO 0x072D

SUBROUTINE_072D:
125: 0x072D [0x1A] CALL_SUBROUTINE(address=0x31B8)
126: 0x0730 [0x02] IF !(ExtData[1]->WorkLocal[13] == 0*) GOTO 0x0757
127: 0x0738 [0x27] REQ_SET(priority=0x14, entity_id=kagami_test (ID: 17776784/0x010F4090), tag_num=0x03)
128: 0x073F [0x2A] GET_REQ_LEVEL(level=20, entity_id=kagami_test (ID: 17776784/0x010F4090))
129: 0x0745 [0x66] LOAD_EXT_SCHEDULER_MAIN: Load scheduler "pas0" with entities [EventEntity, EventEntity], work=0*
130: 0x0754 [0x01] GOTO 0x0868
131: 0x0757 [0x02] IF !(ExtData[1]->WorkLocal[13] == 1*) GOTO 0x077E
132: 0x075F [0x27] REQ_SET(priority=0x14, entity_id=kagami_test (ID: 17776784/0x010F4090), tag_num=0x03)
133: 0x0766 [0x2A] GET_REQ_LEVEL(level=20, entity_id=kagami_test (ID: 17776784/0x010F4090))
134: 0x076C [0x66] LOAD_EXT_SCHEDULER_MAIN: Load scheduler "pas0" with entities [EventEntity, EventEntity], work=10*
135: 0x077B [0x01] GOTO 0x0868
136: 0x077E [0x02] IF !(ExtData[1]->WorkLocal[13] == 2*) GOTO 0x07A5
137: 0x0786 [0x27] REQ_SET(priority=0x14, entity_id=kagami_test (ID: 17776784/0x010F4090), tag_num=0x04)
138: 0x078D [0x2A] GET_REQ_LEVEL(level=20, entity_id=kagami_test (ID: 17776784/0x010F4090))
139: 0x0793 [0x66] LOAD_EXT_SCHEDULER_MAIN: Load scheduler "pas0" with entities [EventEntity, EventEntity], work=20*
140: 0x07A2 [0x01] GOTO 0x0868
141: 0x07A5 [0x02] IF !(ExtData[1]->WorkLocal[13] == 3*) GOTO 0x07CC
142: 0x07AD [0x27] REQ_SET(priority=0x14, entity_id=kagami_test (ID: 17776784/0x010F4090), tag_num=0x04)
143: 0x07B4 [0x2A] GET_REQ_LEVEL(level=20, entity_id=kagami_test (ID: 17776784/0x010F4090))
144: 0x07BA [0x66] LOAD_EXT_SCHEDULER_MAIN: Load scheduler "pas0" with entities [EventEntity, EventEntity], work=30*
145: 0x07C9 [0x01] GOTO 0x0868
146: 0x07CC [0x02] IF !(ExtData[1]->WorkLocal[13] == 4*) GOTO 0x07F3
147: 0x07D4 [0x27] REQ_SET(priority=0x14, entity_id=kagami_test (ID: 17776784/0x010F4090), tag_num=0x02)
148: 0x07DB [0x2A] GET_REQ_LEVEL(level=20, entity_id=kagami_test (ID: 17776784/0x010F4090))
149: 0x07E1 [0x66] LOAD_EXT_SCHEDULER_MAIN: Load scheduler "pas0" with entities [EventEntity, EventEntity], work=40*
150: 0x07F0 [0x01] GOTO 0x0868
151: 0x07F3 [0x02] IF !(ExtData[1]->WorkLocal[13] == 5*) GOTO 0x081A
152: 0x07FB [0x27] REQ_SET(priority=0x14, entity_id=kagami_test (ID: 17776784/0x010F4090), tag_num=0x02)
153: 0x0802 [0x2A] GET_REQ_LEVEL(level=20, entity_id=kagami_test (ID: 17776784/0x010F4090))
154: 0x0808 [0x66] LOAD_EXT_SCHEDULER_MAIN: Load scheduler "pas0" with entities [EventEntity, EventEntity], work=40*
155: 0x0817 [0x01] GOTO 0x0868
156: 0x081A [0x02] IF !(ExtData[1]->WorkLocal[13] == 6*) GOTO 0x0841
157: 0x0822 [0x27] REQ_SET(priority=0x14, entity_id=kagami_test (ID: 17776784/0x010F4090), tag_num=0x03)
158: 0x0829 [0x2A] GET_REQ_LEVEL(level=20, entity_id=kagami_test (ID: 17776784/0x010F4090))
159: 0x082F [0x66] LOAD_EXT_SCHEDULER_MAIN: Load scheduler "pas0" with entities [EventEntity, EventEntity], work=50*
160: 0x083E [0x01] GOTO 0x0868
161: 0x0841 [0x02] IF !(ExtData[1]->WorkLocal[13] == 7*) GOTO 0x0868
162: 0x0849 [0x27] REQ_SET(priority=0x14, entity_id=kagami_test (ID: 17776784/0x010F4090), tag_num=0x04)
163: 0x0850 [0x2A] GET_REQ_LEVEL(level=20, entity_id=kagami_test (ID: 17776784/0x010F4090))
164: 0x0856 [0x66] LOAD_EXT_SCHEDULER_MAIN: Load scheduler "pas0" with entities [EventEntity, EventEntity], work=60*
165: 0x0865 [0x01] GOTO 0x0868

SUBROUTINE_0868:
166: 0x0868 [0x1C] WAIT(60* ticks)
167: 0x086B [0x79] Unnamed NPC (ID: 17776783/0x010F408F) looks at kagami_test (ID: 17776784/0x010F4090) (Basic look)
168: 0x0875 [0x1C] WAIT(60* ticks)
169: 0x0878 [0x62] LOAD_EVENT_SCHEDULER: Load scheduler "main" with entities [kagami_test (ID: 17776784/0x010F4090), kagami_test (ID: 17776784/0x010F4090)], work=[3*, 0*]
170: 0x0889 [0xA0] WAIT_LOAD_SCHEDULER_MAIN_ALT2: Wait for scheduler "main" with entities [kagami_test (ID: 17776784/0x010F4090), kagami_test (ID: 17776784/0x010F4090)], work=3*
171: 0x0898 [0x52] END_LOAD_SCHEDULER: End scheduler "s058" with entities [EventEntity, EventEntity], work=191*
172: 0x08A7 [0x45] LOAD_SCHEDULED_TASK: Load scheduler "s060" with entities [EventEntity, EventEntity], work=[191*, 0*]
173: 0x08B8 [0x1C] WAIT(90* ticks)
174: 0x08BB [0x4A] Unnamed NPC (ID: 17776783/0x010F408F) looks at Luto Mewrilah (ID: 17776780/0x010F408C)
175: 0x08C4 [0x1A] CALL_SUBROUTINE(address=0x3299)
176: 0x08C7 [0x02] IF !(ExtData[1]->WorkLocal[10] == 1*) GOTO 0x08DA
177: 0x08CF [0x2B] Unnamed NPC (ID: 17776783/0x010F408F) [9020*]:
    → "Seems to be somewhere near San d'Oria. I can't tell you any more than that. Sorry."
178: 0x08D6 [0x23] WAIT_FOR_DIALOG_INTERACTION
179: 0x08D7 [0x01] GOTO 0x09AB
180: 0x08DA [0x02] IF !(ExtData[1]->WorkLocal[10] == 2*) GOTO 0x08ED
181: 0x08E2 [0x2B] Unnamed NPC (ID: 17776783/0x010F408F) [9021*]:
    → "I'm getting a sense that it's somewhere near San d'Oria! I can't tell you any more than that, though..."
182: 0x08E9 [0x23] WAIT_FOR_DIALOG_INTERACTION
183: 0x08EA [0x01] GOTO 0x09AB
184: 0x08ED [0x02] IF !(ExtData[1]->WorkLocal[10] == 3*) GOTO 0x0900
185: 0x08F5 [0x2B] Unnamed NPC (ID: 17776783/0x010F408F) [9022*]:
    → "Looks like your treasure is near San d'Oria! I can't tell you any more than that."
186: 0x08FC [0x23] WAIT_FOR_DIALOG_INTERACTION
187: 0x08FD [0x01] GOTO 0x09AB
188: 0x0900 [0x02] IF !(ExtData[1]->WorkLocal[10] == 4*) GOTO 0x0913
189: 0x0908 [0x2B] Unnamed NPC (ID: 17776783/0x010F408F) [9023*]:
    → "It appears that your treasure is somewhere in the vicinity of San d'Oria. The mirror shows nothing more, I'm afraid."
190: 0x090F [0x23] WAIT_FOR_DIALOG_INTERACTION
191: 0x0910 [0x01] GOTO 0x09AB
192: 0x0913 [0x02] IF !(ExtData[1]->WorkLocal[10] == 5*) GOTO 0x0926
193: 0x091B [0x2B] Unnamed NPC (ID: 17776783/0x010F408F) [9026*]:
    → "Seems to be somewhere near San d'Oria... I can't tell you any more than that."
194: 0x0922 [0x23] WAIT_FOR_DIALOG_INTERACTION
195: 0x0923 [0x01] GOTO 0x09AB
196: 0x0926 [0x02] IF !(ExtData[1]->WorkLocal[10] == 6*) GOTO 0x0939
197: 0x092E [0x2B] Unnamed NPC (ID: 17776783/0x010F408F) [9027*]:
    → "I'm getting a sense that it's somewhere near San d'Oria! I can't tell you any more than that, though..."
198: 0x0935 [0x23] WAIT_FOR_DIALOG_INTERACTION
199: 0x0936 [0x01] GOTO 0x09AB
200: 0x0939 [0x02] IF !(ExtData[1]->WorkLocal[10] == 7*) GOTO 0x094C
201: 0x0941 [0x2B] Unnamed NPC (ID: 17776783/0x010F408F) [9028*]:
    → "Somewhere near San d'Oria... That's all I can tell you."
202: 0x0948 [0x23] WAIT_FOR_DIALOG_INTERACTION
203: 0x0949 [0x01] GOTO 0x09AB
204: 0x094C [0x02] IF !(ExtData[1]->WorkLocal[10] == 8*) GOTO 0x095F
205: 0x0954 [0x2B] Unnamed NPC (ID: 17776783/0x010F408F) [9029*]:
    → "Looks like it's somewhere near San d'Oria. Ooh, I like San d'Oria! Doesn't show anything else, though..."
206: 0x095B [0x23] WAIT_FOR_DIALOG_INTERACTION
207: 0x095C [0x01] GOTO 0x09AB
208: 0x095F [0x02] IF !(ExtData[1]->WorkLocal[10] == 9*) GOTO 0x0972
209: 0x0967 [0x2B] Unnamed NPC (ID: 17776783/0x010F408F) [9030*]:
    → "It appears that your treasure is somewhere in the vicinity of San d'Oria. The mirror shows nothing more, I'm afraid."
210: 0x096E [0x23] WAIT_FOR_DIALOG_INTERACTION
211: 0x096F [0x01] GOTO 0x09AB
212: 0x0972 [0x02] IF !(ExtData[1]->WorkLocal[10] == 10*) GOTO 0x0985
213: 0x097A [0x2B] Unnamed NPC (ID: 17776783/0x010F408F) [9024*]:
    → "Okay. Looks like it's somewhere near San d'Oria. I'm afraid that's all I can see."
214: 0x0981 [0x23] WAIT_FOR_DIALOG_INTERACTION
215: 0x0982 [0x01] GOTO 0x09AB
216: 0x0985 [0x02] IF !(ExtData[1]->WorkLocal[10] == 11*) GOTO 0x0998
217: 0x098D [0x2B] Unnamed NPC (ID: 17776783/0x010F408F) [9025*]:
    → "This is a tough one. The mirror points towards San d'Oria, but I can't say where, exactly."
218: 0x0994 [0x23] WAIT_FOR_DIALOG_INTERACTION
219: 0x0995 [0x01] GOTO 0x09AB
220: 0x0998 [0x02] IF !(ExtData[1]->WorkLocal[10] == 12*) GOTO 0x09AB
221: 0x09A0 [0x2B] Unnamed NPC (ID: 17776783/0x010F408F) [9031*]:
    → "Hmmm... The mirror reveals your trinket is somewhere near San d'Oria. That is all."
222: 0x09A7 [0x23] WAIT_FOR_DIALOG_INTERACTION
223: 0x09A8 [0x01] GOTO 0x09AB

SUBROUTINE_09AB:
224: 0x09AB [0x2B] Luto Mewrilah (ID: 17776780/0x010F408C) [9032*]:
    → "Well, that certainly is vague. Does this mean that someone is carrying it around?"
225: 0x09B2 [0x23] WAIT_FOR_DIALOG_INTERACTION
226: 0x09B3 [0x66] LOAD_EXT_SCHEDULER_MAIN: Load scheduler "tlb0" with entities [Luto Mewrilah (ID: 17776780/0x010F408C), Luto Mewrilah (ID: 17776780/0x010F408C)], work=68*
227: 0x09C2 [0x2B] Luto Mewrilah (ID: 17776780/0x010F408C) [9033*]:
    → "To tell the truth, the mirror we seek now is somewhat...dangerous. This fact has prevented us from going after it on our own."
228: 0x09C9 [0x23] WAIT_FOR_DIALOG_INTERACTION
229: 0x09CA [0x66] LOAD_EXT_SCHEDULER_MAIN: Load scheduler "tlb1" with entities [Luto Mewrilah (ID: 17776780/0x010F408C), Luto Mewrilah (ID: 17776780/0x010F408C)], work=68*
230: 0x09D9 [0x52] END_LOAD_SCHEDULER: End scheduler "s060" with entities [EventEntity, EventEntity], work=191*
231: 0x09E8 [0x45] LOAD_SCHEDULED_TASK: Load scheduler "s061" with entities [EventEntity, EventEntity], work=[191*, 0*]
232: 0x09F9 [0x4A] Luto Mewrilah (ID: 17776780/0x010F408C) looks at LocalPlayer
233: 0x0A02 [0x66] LOAD_EXT_SCHEDULER_MAIN: Load scheduler "tlb0" with entities [Luto Mewrilah (ID: 17776780/0x010F408C), Luto Mewrilah (ID: 17776780/0x010F408C)], work=68*
234: 0x0A11 [0x2B] Luto Mewrilah (ID: 17776780/0x010F408C) [9034*]:
    → "But now we have a brrrave adventurer in our rrranks, right? Time for you to show your spirrrit."
235: 0x0A18 [0x23] WAIT_FOR_DIALOG_INTERACTION
236: 0x0A19 [0x2B] Luto Mewrilah (ID: 17776780/0x010F408C) [9035*]:
    → "The open rrroad awaits!"
237: 0x0A20 [0x23] WAIT_FOR_DIALOG_INTERACTION
238: 0x0A21 [0x66] LOAD_EXT_SCHEDULER_MAIN: Load scheduler "tlb1" with entities [Luto Mewrilah (ID: 17776780/0x010F408C), Luto Mewrilah (ID: 17776780/0x010F408C)], work=68*
239: 0x0A30 [0x45] LOAD_SCHEDULED_TASK: Load scheduler "fdo1" with entities [EventEntity, EventEntity], work=[200*, 0*]
240: 0x0A41 [0x55] WAIT_LOAD_SCHEDULER: Wait for scheduler "fdo1" with entities [EventEntity, EventEntity], work=200*
241: 0x0A50 [0x52] END_LOAD_SCHEDULER: End scheduler "s061" with entities [EventEntity, EventEntity], work=191*
242: 0x0A5F [0x22] ENTITY_HIDE_FLAG(enabled=0x01)
243: 0x0A61 [0x2F] kagami_test (ID: 17776784/0x010F4090)->Render.Flags0 |= 0x80000 // Bit 19
244: 0x0A67 [0x4E] SET_ENTITY_HIDE_FLAG: Hide kagami_test (ID: 17776784/0x010F4090)
245: 0x0A6D [0x46] CAMERA_CONTROL: Restore default settings
246: 0x0A6F [0x1C] WAIT(60* ticks)
247: 0x0A72 [0x45] LOAD_SCHEDULED_TASK: Load scheduler "fdi2" with entities [EventEntity, EventEntity], work=[200*, 0*]
248: 0x0A83 [0x2F] Unnamed NPC (ID: 17776783/0x010F408F)->Render.Flags0 |= 0x80000 // Bit 19
249: 0x0A89 [0x21] END_EVENT
250: 0x0A8A [0x00] END_REQSTACK()
```

### Event 10043

#### Metadata

| Field        | Value      |
|--------------|------------|
| Entrypoint   | 0x0A8B     |
| Data Size    | 3812 bytes |
| Instructions | 572        |

```
      00 01 02 03 04 05 06 07  08 09 0A 0B 0C 0D 0E 0F
      -- -- -- -- -- -- -- --  -- -- -- -- -- -- -- --
0A80:                                   03 02 10 8B 7F             .....
0A90: 42 2F 00 8F 40 0F 01 80  8F 40 0F 01 45 00 80 F8  B/..@....@..E...
0AA0: FF FF 7F F8 FF FF 7F 66  64 6F 30 01 80 55 00 80  .......fdo0..U..
0AB0: F8 FF FF 7F F8 FF FF 7F  66 64 6F 30 46 01 92 01  ........fdo0F...
0AC0: 8C 40 0F 01 92 01 8D 40  0F 01 92 01 8E 40 0F 01  .@.....@.....@..
0AD0: 38 02 80 1A 93 25 1A 78  36 1A C3 2D 22 00 95 01  8....%.x6..-"...
0AE0: 80 2F 00 8D 40 0F 01 4E  00 8D 40 0F 01 80 8D 40  ./..@..N..@....@
0AF0: 0F 01 2F 00 8E 40 0F 01  4E 00 8E 40 0F 01 80 8E  ../..@..N..@....
0B00: 40 0F 01 2F 00 90 40 0F  01 4E 00 90 40 0F 01 80  @../..@..N..@...
0B10: 90 40 0F 01 29 05 8D 40  0F 01 04 29 0A F0 FF FF  .@..)..@...)....
0B20: 7F 46 5B 01 80 8D 40 0F  01 8D 40 0F 01 74 68 6B  .F[...@...@..thk
0B30: 31 37 54 80 55 80 01 80  56 80 45 08 80 F8 FF FF  17T.U...V.E.....
0B40: 7F F8 FF FF 7F 73 30 36  35 01 80 1C 11 80 45 00  .....s065.....E.
0B50: 80 F8 FF FF 7F F8 FF FF  7F 66 64 69 31 01 80 1C  .........fdi1...
0B60: 11 80 4A 8C 40 0F 01 F0  FF FF 7F 6F 76 8C 40 0F  ..J.@......ov.@.
0B70: 01 2B 8C 40 0F 01 57 80  23 66 58 80 8C 40 0F 01  .+.@..W.#fX..@..
0B80: 8C 40 0F 01 74 6C 6B 30  2B 8C 40 0F 01 59 80 23  .@..tlk0+.@..Y.#
0B90: 66 58 80 8C 40 0F 01 8C  40 0F 01 74 6C 6B 32 1C  fX..@...@..tlk2.
0BA0: 0A 80 45 00 80 F8 FF FF  7F F8 FF FF 7F 66 64 6F  ..E..........fdo
0BB0: 31 01 80 5D 01 80 18 80  55 00 80 F8 FF FF 7F F8  1..]....U.......
0BC0: FF FF 7F 66 64 6F 31 52  08 80 F8 FF FF 7F F8 FF  ...fdo1R........
0BD0: FF 7F 73 30 36 35 27 14  8E 40 0F 01 0B 45 5A 80  ..s065'..@...EZ.
0BE0: F8 FF FF 7F F8 FF FF 7F  73 30 30 30 01 80 1C 11  ........s000....
0BF0: 80 45 00 80 F8 FF FF 7F  F8 FF FF 7F 66 64 69 31  .E..........fdi1
0C00: 01 80 55 00 80 F8 FF FF  7F F8 FF FF 7F 66 64 69  ..U..........fdi
0C10: 31 32 0B 80 1F 00 5B 80  5C 80 01 80 1F 01 1C 14  12....[.\.......
0C20: 80 52 5A 80 F8 FF FF 7F  F8 FF FF 7F 73 30 30 30  .RZ.........s000
0C30: 5C 00 5D 80 5C 01 5D 80  45 5A 80 F8 FF FF 7F F8  \.].\.].EZ......
0C40: FF FF 7F 73 30 30 31 01  80 5B 01 80 8D 40 0F 01  ...s001..[...@..
0C50: 8D 40 0F 01 74 68 6B 32  1C 11 80 4A 8D 40 0F 01  .@..thk2...J.@..
0C60: 8E 40 0F 01 1C 14 80 5B  01 80 8D 40 0F 01 8D 40  .@.....[...@...@
0C70: 0F 01 74 6C 6B 30 2B 8D  40 0F 01 5E 80 23 52 5A  ..tlk0+.@..^.#RZ
0C80: 80 F8 FF FF 7F F8 FF FF  7F 73 30 30 31 45 5A 80  .........s001EZ.
0C90: F8 FF FF 7F F8 FF FF 7F  73 30 30 32 01 80 1C 10  ........s002....
0CA0: 80 4A 8E 40 0F 01 8D 40  0F 01 1C 5F 80 2B 8E 40  .J.@...@..._.+.@
0CB0: 0F 01 60 80 23 27 19 8E  40 0F 01 0C 4A F0 FF FF  ..`.#'..@...J...
0CC0: 7F 8D 40 0F 01 52 5A 80  F8 FF FF 7F F8 FF FF 7F  ..@..RZ.........
0CD0: 73 30 30 32 37 61 80 62  80 01 80 63 80 27 05 8F  s0027a.b...c.'..
0CE0: 40 0F 01 0A 45 5A 80 F8  FF FF 7F F8 FF FF 7F 73  @...EZ.........s
0CF0: 30 30 33 01 80 1C 0F 80  4A 8C 40 0F 01 8D 40 0F  003.....J.@...@.
0D00: 01 2A 19 8E 40 0F 01 1C  0F 80 4A 8F 40 0F 01 8E  .*..@.....J.@...
0D10: 40 0F 01 5B 01 80 8D 40  0F 01 8D 40 0F 01 74 6C  @..[...@...@..tl
0D20: 6B 31 2B 8D 40 0F 01 64  80 23 1C 14 80 4A 8D 40  k1+.@..d.#...J.@
0D30: 0F 01 8F 40 0F 01 1C 14  80 4A 8C 40 0F 01 F0 FF  ...@.....J.@....
0D40: FF 7F 2B 8C 40 0F 01 65  80 23 1C 10 80 4A F0 FF  ..+.@..e.#...J..
0D50: FF 7F 8C 40 0F 01 1C 11  80 6E F0 FF FF 7F 12 80  ...@.....n......
0D60: 99 F0 FF FF 7F 4A 8D 40  0F 01 8E 40 0F 01 79 00  .....J.@...@..y.
0D70: 8D 40 0F 01 8E 40 0F 01  45 00 80 F8 FF FF 7F F8  .@...@..E.......
0D80: FF FF 7F 6F 76 6C 31 01  80 52 5A 80 F8 FF FF 7F  ...ovl1..RZ.....
0D90: F8 FF FF 7F 73 30 30 33  45 08 80 F8 FF FF 7F F8  ....s003E.......
0DA0: FF FF 7F 73 30 37 30 01  80 1C 5F 80 2B 8C 40 0F  ...s070..._.+.@.
0DB0: 01 66 80 23 1C 11 80 1A  B8 31 03 02 10 0D 00 5B  .f.#.....1.....[
0DC0: 67 80 8E 40 0F 01 8E 40  0F 01 74 6C 6B 30 2B 8E  g..@...@..tlk0+.
0DD0: 40 0F 01 68 80 23 5B 67  80 8E 40 0F 01 8E 40 0F  @..h.#[g..@...@.
0DE0: 01 74 6C 6B 31 52 08 80  F8 FF FF 7F F8 FF FF 7F  .tlk1R..........
0DF0: 73 30 37 30 45 08 80 F8  FF FF 7F F8 FF FF 7F 73  s070E..........s
0E00: 30 36 39 01 80 1C 10 80  4A 8C 40 0F 01 8E 40 0F  069.....J.@...@.
0E10: 01 1C 11 80 2B 8C 40 0F  01 69 80 23 1C 11 80 52  ....+.@..i.#...R
0E20: 08 80 F8 FF FF 7F F8 FF  FF 7F 73 30 36 39 45 08  ..........s069E.
0E30: 80 F8 FF FF 7F F8 FF FF  7F 73 30 36 36 01 80 29  .........s066..)
0E40: 1E 8C 40 0F 01 1C 1C 10  80 4A 8E 40 0F 01 8C 40  ..@......J.@...@
0E50: 0F 01 66 58 80 8C 40 0F  01 8C 40 0F 01 74 6C 6B  ..fX..@...@..tlk
0E60: 30 2B 8C 40 0F 01 6A 80  23 66 58 80 8C 40 0F 01  0+.@..j.#fX..@..
0E70: 8C 40 0F 01 74 6C 6B 32  2B 8E 40 0F 01 6B 80 23  .@..tlk2+.@..k.#
0E80: 1C 11 80 45 00 80 F8 FF  FF 7F F8 FF FF 7F 66 64  ...E..........fd
0E90: 6F 31 01 80 52 08 80 F8  FF FF 7F F8 FF FF 7F 73  o1..R..........s
0EA0: 30 36 36 4E 01 F0 FF FF  7F 2F 01 8E 40 0F 01 4E  066N...../..@..N
0EB0: 01 8E 40 0F 01 2F 01 8D  40 0F 01 4E 01 8D 40 0F  ..@../..@..N..@.
0EC0: 01 45 08 80 F8 FF FF 7F  F8 FF FF 7F 73 30 36 37  .E..........s067
0ED0: 01 80 45 00 80 F8 FF FF  7F F8 FF FF 7F 66 64 69  ..E..........fdi
0EE0: 31 01 80 4A 8C 40 0F 01  8F 40 0F 01 6F 76 8C 40  1..J.@...@..ov.@
0EF0: 0F 01 27 1E 8C 40 0F 01  1D 4A 8F 40 0F 01 8C 40  ..'..@...J.@...@
0F00: 0F 01 2A 1E 8C 40 0F 01  4A 8E 40 0F 01 8D 40 0F  ..*..@..J.@...@.
0F10: 01 6F 76 8E 40 0F 01 66  58 80 8C 40 0F 01 8C 40  .ov.@..fX..@...@
0F20: 0F 01 74 6C 6B 30 2B 8C  40 0F 01 6C 80 23 66 58  ..tlk0+.@..l.#fX
0F30: 80 8C 40 0F 01 8C 40 0F  01 74 6C 6B 32 1C 11 80  ..@...@..tlk2...
0F40: 6E 8F 40 0F 01 12 80 99  8F 40 0F 01 1C 11 80 1A  n.@......@......
0F50: 99 32 02 0A 00 04 80 80  87 0F 2B 8F 40 0F 01 6D  .2........+.@..m
0F60: 80 23 66 58 80 8C 40 0F  01 8C 40 0F 01 74 68 6B  .#fX..@...@..thk
0F70: 30 2B 8C 40 0F 01 6E 80  23 1C 14 80 2B 8F 40 0F  0+.@..n.#...+.@.
0F80: 01 6F 80 23 01 CE 11 02  0A 00 1F 80 80 BC 0F 2B  .o.#...........+
0F90: 8F 40 0F 01 70 80 23 66  58 80 8C 40 0F 01 8C 40  .@..p.#fX..@...@
0FA0: 0F 01 74 68 6B 30 2B 8C  40 0F 01 6E 80 23 1C 14  ..thk0+.@..n.#..
0FB0: 80 2B 8F 40 0F 01 71 80  23 01 CE 11 02 0A 00 21  .+.@..q.#......!
0FC0: 80 80 F1 0F 2B 8F 40 0F  01 72 80 23 66 58 80 8C  ....+.@..r.#fX..
0FD0: 40 0F 01 8C 40 0F 01 74  68 6B 30 2B 8C 40 0F 01  @...@..thk0+.@..
0FE0: 6E 80 23 1C 14 80 2B 8F  40 0F 01 73 80 23 01 CE  n.#...+.@..s.#..
0FF0: 11 02 0A 00 23 80 80 26  10 2B 8F 40 0F 01 74 80  ....#..&.+.@..t.
1000: 23 66 58 80 8C 40 0F 01  8C 40 0F 01 74 68 6B 30  #fX..@...@..thk0
1010: 2B 8C 40 0F 01 6E 80 23  1C 14 80 2B 8F 40 0F 01  +.@..n.#...+.@..
1020: 75 80 23 01 CE 11 02 0A  00 25 80 80 5B 10 2B 8F  u.#......%..[.+.
1030: 40 0F 01 76 80 23 66 58  80 8C 40 0F 01 8C 40 0F  @..v.#fX..@...@.
1040: 01 74 68 6B 30 2B 8C 40  0F 01 6E 80 23 1C 14 80  .thk0+.@..n.#...
1050: 2B 8F 40 0F 01 77 80 23  01 CE 11 02 0A 00 09 80  +.@..w.#........
1060: 80 90 10 2B 8F 40 0F 01  78 80 23 66 58 80 8C 40  ...+.@..x.#fX..@
1070: 0F 01 8C 40 0F 01 74 68  6B 30 2B 8C 40 0F 01 6E  ...@..thk0+.@..n
1080: 80 23 1C 14 80 2B 8F 40  0F 01 79 80 23 01 CE 11  .#...+.@..y.#...
1090: 02 0A 00 12 80 80 C5 10  2B 8F 40 0F 01 7A 80 23  ........+.@..z.#
10A0: 66 58 80 8C 40 0F 01 8C  40 0F 01 74 68 6B 30 2B  fX..@...@..thk0+
10B0: 8C 40 0F 01 6E 80 23 1C  14 80 2B 8F 40 0F 01 7B  .@..n.#...+.@..{
10C0: 80 23 01 CE 11 02 0A 00  1A 80 80 FA 10 2B 8F 40  .#...........+.@
10D0: 0F 01 7C 80 23 66 58 80  8C 40 0F 01 8C 40 0F 01  ..|.#fX..@...@..
10E0: 74 68 6B 30 2B 8C 40 0F  01 6E 80 23 1C 14 80 2B  thk0+.@..n.#...+
10F0: 8F 40 0F 01 7D 80 23 01  CE 11 02 0A 00 3A 80 80  .@..}.#......:..
1100: 2F 11 2B 8F 40 0F 01 7E  80 23 66 58 80 8C 40 0F  /.+.@..~.#fX..@.
1110: 01 8C 40 0F 01 74 68 6B  30 2B 8C 40 0F 01 6E 80  ..@..thk0+.@..n.
1120: 23 1C 14 80 2B 8F 40 0F  01 7F 80 23 01 CE 11 02  #...+.@....#....
1130: 0A 00 3C 80 80 64 11 2B  8F 40 0F 01 80 80 23 66  ..<..d.+.@....#f
1140: 58 80 8C 40 0F 01 8C 40  0F 01 74 68 6B 30 2B 8C  X..@...@..thk0+.
1150: 40 0F 01 6E 80 23 1C 14  80 2B 8F 40 0F 01 81 80  @..n.#...+.@....
1160: 23 01 CE 11 02 0A 00 3E  80 80 99 11 2B 8F 40 0F  #......>....+.@.
1170: 01 82 80 23 66 58 80 8C  40 0F 01 8C 40 0F 01 74  ...#fX..@...@..t
1180: 68 6B 30 2B 8C 40 0F 01  6E 80 23 1C 14 80 2B 8F  hk0+.@..n.#...+.
1190: 40 0F 01 83 80 23 01 CE  11 02 0A 00 03 80 80 CE  @....#..........
11A0: 11 2B 8F 40 0F 01 84 80  23 66 58 80 8C 40 0F 01  .+.@....#fX..@..
11B0: 8C 40 0F 01 74 68 6B 30  2B 8C 40 0F 01 6E 80 23  .@..thk0+.@..n.#
11C0: 1C 14 80 2B 8F 40 0F 01  85 80 23 01 CE 11 45 00  ...+.@....#...E.
11D0: 80 F8 FF FF 7F F8 FF FF  7F 6F 76 6C 31 01 80 52  .........ovl1..R
11E0: 08 80 F8 FF FF 7F F8 FF  FF 7F 73 30 36 37 1A B8  ..........s067..
11F0: 31 02 0D 00 01 80 80 2C  12 45 08 80 F8 FF FF 7F  1......,.E......
1200: F8 FF FF 7F 73 30 36 38  01 80 27 14 90 40 0F 01  ....s068..'..@..
1210: 06 2A 14 90 40 0F 01 1C  11 80 66 01 80 F8 FF FF  .*..@.....f.....
1220: 7F F8 FF FF 7F 70 61 73  30 01 C9 13 02 0D 00 04  .....pas0.......
1230: 80 80 67 12 45 08 80 F8  FF FF 7F F8 FF FF 7F 73  ..g.E..........s
1240: 30 36 38 01 80 27 14 90  40 0F 01 06 2A 14 90 40  068..'..@...*..@
1250: 0F 01 1C 11 80 66 3C 80  F8 FF FF 7F F8 FF FF 7F  .....f<.........
1260: 70 61 73 30 01 C9 13 02  0D 00 1F 80 80 A2 12 45  pas0...........E
1270: 5A 80 F8 FF FF 7F F8 FF  FF 7F 73 30 30 39 01 80  Z.........s009..
1280: 27 14 90 40 0F 01 07 2A  14 90 40 0F 01 1C 11 80  '..@...*..@.....
1290: 66 41 80 F8 FF FF 7F F8  FF FF 7F 70 61 73 30 01  fA.........pas0.
12A0: C9 13 02 0D 00 21 80 80  DD 12 45 5A 80 F8 FF FF  .....!....EZ....
12B0: 7F F8 FF FF 7F 73 30 30  39 01 80 27 14 90 40 0F  .....s009..'..@.
12C0: 01 07 2A 14 90 40 0F 01  1C 11 80 66 10 80 F8 FF  ..*..@.....f....
12D0: FF 7F F8 FF FF 7F 70 61  73 30 01 C9 13 02 0D 00  ......pas0......
12E0: 23 80 80 18 13 45 5A 80  F8 FF FF 7F F8 FF FF 7F  #....EZ.........
12F0: 73 30 30 38 01 80 27 14  90 40 0F 01 05 2A 14 90  s008..'..@...*..
1300: 40 0F 01 1C 11 80 66 42  80 F8 FF FF 7F F8 FF FF  @.....fB........
1310: 7F 70 61 73 30 01 C9 13  02 0D 00 25 80 80 53 13  .pas0......%..S.
1320: 45 5A 80 F8 FF FF 7F F8  FF FF 7F 73 30 30 38 01  EZ.........s008.
1330: 80 27 14 90 40 0F 01 05  2A 14 90 40 0F 01 1C 11  .'..@...*..@....
1340: 80 66 42 80 F8 FF FF 7F  F8 FF FF 7F 70 61 73 30  .fB.........pas0
1350: 01 C9 13 02 0D 00 09 80  80 8E 13 45 08 80 F8 FF  ...........E....
1360: FF 7F F8 FF FF 7F 73 30  36 38 01 80 27 14 90 40  ......s068..'..@
1370: 0F 01 06 2A 14 90 40 0F  01 1C 11 80 66 43 80 F8  ...*..@.....fC..
1380: FF FF 7F F8 FF FF 7F 70  61 73 30 01 C9 13 02 0D  .......pas0.....
1390: 00 12 80 80 C9 13 45 5A  80 F8 FF FF 7F F8 FF FF  ......EZ........
13A0: 7F 73 30 30 39 01 80 27  14 90 40 0F 01 07 2A 14  .s009..'..@...*.
13B0: 90 40 0F 01 1C 11 80 66  11 80 F8 FF FF 7F F8 FF  .@.....f........
13C0: FF 7F 70 61 73 30 01 C9  13 1C 18 80 62 21 80 90  ..pas0......b!..
13D0: 40 0F 01 90 40 0F 01 6D  61 69 6E 01 80 A0 21 80  @...@..main...!.
13E0: 90 40 0F 01 90 40 0F 01  6D 61 69 6E 1A 99 32 02  .@...@..main..2.
13F0: 0A 00 04 80 80 02 14 2B  8F 40 0F 01 86 80 23 01  .......+.@....#.
1400: D3 14 02 0A 00 1F 80 80  15 14 2B 8F 40 0F 01 87  ..........+.@...
1410: 80 23 01 D3 14 02 0A 00  21 80 80 28 14 2B 8F 40  .#......!..(.+.@
1420: 0F 01 88 80 23 01 D3 14  02 0A 00 23 80 80 3B 14  ....#......#..;.
1430: 2B 8F 40 0F 01 89 80 23  01 D3 14 02 0A 00 25 80  +.@....#......%.
1440: 80 4E 14 2B 8F 40 0F 01  8A 80 23 01 D3 14 02 0A  .N.+.@....#.....
1450: 00 09 80 80 61 14 2B 8F  40 0F 01 8B 80 23 01 D3  ....a.+.@....#..
1460: 14 02 0A 00 12 80 80 74  14 2B 8F 40 0F 01 8C 80  .......t.+.@....
1470: 23 01 D3 14 02 0A 00 1A  80 80 87 14 2B 8F 40 0F  #...........+.@.
1480: 01 8D 80 23 01 D3 14 02  0A 00 3A 80 80 9A 14 2B  ...#......:....+
1490: 8F 40 0F 01 8E 80 23 01  D3 14 02 0A 00 3C 80 80  .@....#......<..
14A0: AD 14 2B 8F 40 0F 01 8F  80 23 01 D3 14 02 0A 00  ..+.@....#......
14B0: 3E 80 80 C0 14 2B 8F 40  0F 01 90 80 23 01 D3 14  >....+.@....#...
14C0: 02 0A 00 03 80 80 D3 14  2B 8F 40 0F 01 91 80 23  ........+.@....#
14D0: 01 D3 14 52 08 80 F8 FF  FF 7F F8 FF FF 7F 73 30  ...R..........s0
14E0: 36 38 52 5A 80 F8 FF FF  7F F8 FF FF 7F 73 30 30  68RZ.........s00
14F0: 38 52 5A 80 F8 FF FF 7F  F8 FF FF 7F 73 30 30 39  8RZ.........s009
1500: 4E 00 F0 FF FF 7F 4A F0  FF FF 7F 8C 40 0F 01 45  N.....J.....@..E
1510: 5A 80 F8 FF FF 7F F8 FF  FF 7F 73 30 30 34 01 80  Z.........s004..
1520: 2B 8C 40 0F 01 92 80 23  66 30 80 8C 40 0F 01 8C  +.@....#f0..@...
1530: 40 0F 01 74 6C 62 30 2B  8C 40 0F 01 93 80 23 2B  @..tlb0+.@....#+
1540: 8C 40 0F 01 94 80 23 66  30 80 8C 40 0F 01 8C 40  .@....#f0..@...@
1550: 0F 01 74 6C 62 31 1C 11  80 52 5A 80 F8 FF FF 7F  ..tlb1...RZ.....
1560: F8 FF FF 7F 73 30 30 34  45 5A 80 F8 FF FF 7F F8  ....s004EZ......
1570: FF FF 7F 73 30 30 35 01  80 1C 0F 80 79 00 8C 40  ...s005.....y..@
1580: 0F 01 F0 FF FF 7F 1C 11  80 79 00 8C 40 0F 01 8F  .........y..@...
1590: 40 0F 01 1C 11 80 2B 8C  40 0F 01 95 80 23 66 96  @.....+.@....#f.
15A0: 80 8C 40 0F 01 8C 40 0F  01 74 6C 63 30 2B 8C 40  ..@...@..tlc0+.@
15B0: 0F 01 97 80 23 1C 11 80  52 5A 80 F8 FF FF 7F F8  ....#...RZ......
15C0: FF FF 7F 73 30 30 35 1A  B8 31 02 0D 00 01 80 80  ...s005..1......
15D0: E6 15 45 5A 80 F8 FF FF  7F F8 FF FF 7F 73 30 30  ..EZ.........s00
15E0: 36 01 80 01 AA 16 02 0D  00 04 80 80 02 16 45 5A  6.............EZ
15F0: 80 F8 FF FF 7F F8 FF FF  7F 73 30 30 36 01 80 01  .........s006...
1600: AA 16 02 0D 00 1F 80 80  1E 16 45 5A 80 F8 FF FF  ..........EZ....
1610: 7F F8 FF FF 7F 73 30 31  30 01 80 01 AA 16 02 0D  .....s010.......
1620: 00 21 80 80 3A 16 45 5A  80 F8 FF FF 7F F8 FF FF  .!..:.EZ........
1630: 7F 73 30 31 30 01 80 01  AA 16 02 0D 00 23 80 80  .s010........#..
1640: 56 16 45 5A 80 F8 FF FF  7F F8 FF FF 7F 73 30 34  V.EZ.........s04
1650: 33 01 80 01 AA 16 02 0D  00 25 80 80 72 16 45 5A  3........%..r.EZ
1660: 80 F8 FF FF 7F F8 FF FF  7F 73 30 34 33 01 80 01  .........s043...
1670: AA 16 02 0D 00 09 80 80  8E 16 45 5A 80 F8 FF FF  ..........EZ....
1680: 7F F8 FF FF 7F 73 30 30  36 01 80 01 AA 16 02 0D  .....s006.......
1690: 00 12 80 80 AA 16 45 5A  80 F8 FF FF 7F F8 FF FF  ......EZ........
16A0: 7F 73 30 31 30 01 80 01  AA 16 1A 99 32 02 0A 00  .s010.......2...
16B0: 04 80 80 D4 16 2B 8F 40  0F 01 98 80 23 6E 8F 40  .....+.@....#n.@
16C0: 0F 01 12 80 99 8F 40 0F  01 2B 8F 40 0F 01 99 80  ......@..+.@....
16D0: 23 01 81 18 02 0A 00 1F  80 80 FB 16 2B 8F 40 0F  #...........+.@.
16E0: 01 9A 80 23 6E 8F 40 0F  01 12 80 99 8F 40 0F 01  ...#n.@......@..
16F0: 2B 8F 40 0F 01 9B 80 23  01 81 18 02 0A 00 21 80  +.@....#......!.
1700: 80 22 17 2B 8F 40 0F 01  9C 80 23 6E 8F 40 0F 01  .".+.@....#n.@..
1710: 12 80 99 8F 40 0F 01 2B  8F 40 0F 01 9D 80 23 01  ....@..+.@....#.
1720: 81 18 02 0A 00 23 80 80  49 17 2B 8F 40 0F 01 9E  .....#..I.+.@...
1730: 80 23 6E 8F 40 0F 01 12  80 99 8F 40 0F 01 2B 8F  .#n.@......@..+.
1740: 40 0F 01 9F 80 23 01 81  18 02 0A 00 25 80 80 70  @....#......%..p
1750: 17 2B 8F 40 0F 01 A0 80  23 6E 8F 40 0F 01 12 80  .+.@....#n.@....
1760: 99 8F 40 0F 01 2B 8F 40  0F 01 A1 80 23 01 81 18  ..@..+.@....#...
1770: 02 0A 00 09 80 80 97 17  2B 8F 40 0F 01 A2 80 23  ........+.@....#
1780: 6E 8F 40 0F 01 12 80 99  8F 40 0F 01 2B 8F 40 0F  n.@......@..+.@.
1790: 01 A3 80 23 01 81 18 02  0A 00 12 80 80 BE 17 2B  ...#...........+
17A0: 8F 40 0F 01 A4 80 23 6E  8F 40 0F 01 12 80 99 8F  .@....#n.@......
17B0: 40 0F 01 2B 8F 40 0F 01  A5 80 23 01 81 18 02 0A  @..+.@....#.....
17C0: 00 1A 80 80 E5 17 2B 8F  40 0F 01 A6 80 23 6E 8F  ......+.@....#n.
17D0: 40 0F 01 12 80 99 8F 40  0F 01 2B 8F 40 0F 01 A7  @......@..+.@...
17E0: 80 23 01 81 18 02 0A 00  3A 80 80 0C 18 2B 8F 40  .#......:....+.@
17F0: 0F 01 A8 80 23 6E 8F 40  0F 01 12 80 99 8F 40 0F  ....#n.@......@.
1800: 01 2B 8F 40 0F 01 A9 80  23 01 81 18 02 0A 00 3C  .+.@....#......<
1810: 80 80 33 18 2B 8F 40 0F  01 AA 80 23 6E 8F 40 0F  ..3.+.@....#n.@.
1820: 01 12 80 99 8F 40 0F 01  2B 8F 40 0F 01 AB 80 23  .....@..+.@....#
1830: 01 81 18 02 0A 00 3E 80  80 5A 18 2B 8F 40 0F 01  ......>..Z.+.@..
1840: AC 80 23 6E 8F 40 0F 01  12 80 99 8F 40 0F 01 2B  ..#n.@......@..+
1850: 8F 40 0F 01 AD 80 23 01  81 18 02 0A 00 03 80 80  .@....#.........
1860: 81 18 2B 8F 40 0F 01 AE  80 23 6E 8F 40 0F 01 12  ..+.@....#n.@...
1870: 80 99 8F 40 0F 01 2B 8F  40 0F 01 AF 80 23 01 81  ...@..+.@....#..
1880: 18 52 5A 80 F8 FF FF 7F  F8 FF FF 7F 73 30 30 36  .RZ.........s006
1890: 52 5A 80 F8 FF FF 7F F8  FF FF 7F 73 30 31 30 52  RZ.........s010R
18A0: 5A 80 F8 FF FF 7F F8 FF  FF 7F 73 30 34 33 45 5A  Z.........s043EZ
18B0: 80 F8 FF FF 7F F8 FF FF  7F 73 30 30 37 01 80 1C  .........s007...
18C0: 0F 80 66 1A 80 8C 40 0F  01 8C 40 0F 01 75 72 65  ..f...@...@..ure
18D0: 30 2B 8C 40 0F 01 B0 80  23 1C 10 80 66 96 80 8C  0+.@....#...f...
18E0: 40 0F 01 8C 40 0F 01 74  6C 63 30 2B 8C 40 0F 01  @...@..tlc0+.@..
18F0: B1 80 23 1C 18 80 45 00  80 F8 FF FF 7F F8 FF FF  ..#...E.........
1900: 7F 66 64 6F 31 01 80 5D  01 80 18 80 55 00 80 F8  .fdo1..]....U...
1910: FF FF 7F F8 FF FF 7F 66  64 6F 31 52 5A 80 F8 FF  .......fdo1RZ...
1920: FF 7F F8 FF FF 7F 73 30  30 37 22 01 2F 01 90 40  ......s007"./..@
1930: 0F 01 4E 01 90 40 0F 01  45 B2 80 F8 FF FF 7F F8  ..N..@..E.......
1940: FF FF 7F 71 73 74 63 01  80 46 00 5C 00 B3 80 5C  ...qstc..F.\...\
1950: 01 B3 80 1C 11 80 45 00  80 F8 FF FF 7F F8 FF FF  ......E.........
1960: 7F 66 64 69 32 01 80 2F  01 8F 40 0F 01 21 00     .fdi2../..@..!. 
```

#### Opcodes

```
  0: 0x0A8B [0x03] Work_Zone[2] = (LocalPlayer->Render.Flags01 >> 25) & 1
  1: 0x0A90 [0x42] SET_CLI_EVENT_CANCEL_DATA()
  2: 0x0A91 [0x2F] Unnamed NPC (ID: 17776783/0x010F408F)->Render.Flags0 &= ~0x80000 // Bit 19
  3: 0x0A97 [0x80] LOAD_WAIT(entity=Unnamed NPC (ID: 17776783/0x010F408F))
  4: 0x0A9C [0x45] LOAD_SCHEDULED_TASK: Load scheduler "fdo0" with entities [EventEntity, EventEntity], work=[200*, 0*]
  5: 0x0AAD [0x55] WAIT_LOAD_SCHEDULER: Wait for scheduler "fdo0" with entities [EventEntity, EventEntity], work=200*
  6: 0x0ABC [0x46] CAMERA_CONTROL: Disable user control
  7: 0x0ABE [0x92] Luto Mewrilah (ID: 17776780/0x010F408C)->Render.Flags3 ^= 0x01
  8: 0x0AC4 [0x92] Laurana (ID: 17776781/0x010F408D)->Render.Flags3 ^= 0x01
  9: 0x0ACA [0x92] Palometa (ID: 17776782/0x010F408E)->Render.Flags3 ^= 0x01
 10: 0x0AD0 [0x38] SET_CLIENT_EVENT_MODE(mode=19*)
 11: 0x0AD3 [0x1A] CALL_SUBROUTINE(address=0x2593)
 12: 0x0AD6 [0x1A] CALL_SUBROUTINE(address=0x3678)
 13: 0x0AD9 [0x1A] CALL_SUBROUTINE(address=0x2DC3)
 14: 0x0ADC [0x22] ENTITY_HIDE_FLAG(enabled=0x00)
 15: 0x0ADE [0x95] SETUP_EVENT_NPC: Prepare NPC for event (Render.Flags3 = 0*)
 16: 0x0AE1 [0x2F] Laurana (ID: 17776781/0x010F408D)->Render.Flags0 &= ~0x80000 // Bit 19
 17: 0x0AE7 [0x4E] SET_ENTITY_HIDE_FLAG: Show Laurana (ID: 17776781/0x010F408D)
