# 17776666 - Alista

## Common Data

| Field            | Value                 |
|------------------|-----------------------|
| Zone             | Upper Jeuno (ID: 244) |
| Block Size       | 676 bytes             |
| Total Events     | 18                    |
| References Count | 45                    |

## List of Events

| Event ID                   | Entrypoint   |   Size |   Instructions |
|----------------------------|--------------|--------|----------------|
| [65535](#event-65535)      | 0x0000       |      6 |              3 |
| [159](#event-159)          | 0x0006       |     10 |              2 |
| [105](#event-105)          | 0x0010       |     10 |              2 |
| [107](#event-107)          | 0x001A       |     10 |              2 |
| [65535.1](#event-655351)   | 0x0024       |     51 |              5 |
| [65535.2](#event-655352)   | 0x0057       |     11 |              3 |
| [65535.3](#event-655353)   | 0x0062       |     26 |              7 |
| [65535.4](#event-655354)   | 0x007C       |     19 |              3 |
| [65535.5](#event-655355)   | 0x008F       |      9 |              3 |
| [65535.6](#event-655356)   | 0x0098       |     19 |              3 |
| [65535.7](#event-655357)   | 0x00AB       |     19 |              3 |
| [65535.8](#event-655358)   | 0x00BE       |      1 |              1 |
| [65535.9](#event-655359)   | 0x00BF       |     55 |             12 |
| [65535.10](#event-6553510) | 0x00F6       |     35 |              9 |
| [65535.11](#event-6553511) | 0x0119       |     16 |              5 |
| [65535.12](#event-6553512) | 0x0129       |     40 |              8 |
| [65535.13](#event-6553513) | 0x0151       |     10 |              2 |
| [65535.14](#event-6553514) | 0x015B       |     60 |             10 |

## DAT References (imed_data)

|   Index | Hex Value   |   Dec Value |
|---------|-------------|-------------|
|       0 | 0x000D      |          13 |
|       1 | 0xFFFF7529  |  4294931753 |
|       2 | 0x5D10      |       23824 |
|       3 | 0xFFFFFA25  |  4294965797 |
|       4 | 0x027D      |         637 |
|       5 | 0xFFFEEF55  |  4294897493 |
|       6 | 0x12E6E     |       77422 |
|       7 | 0x0000      |           0 |
|       8 | 0x0A51      |        2641 |
|       9 | 0xFFFEBCD0  |  4294884560 |
|      10 | 0x11392     |       70546 |
|      11 | 0xFFFFFB50  |  4294966096 |
|      12 | 0x0A57      |        2647 |
|      13 | 0x005A      |          90 |
|      14 | 0x0090      |         144 |
|      15 | 0xFFFF7B0E  |  4294933262 |
|      16 | 0x5321      |       21281 |
|      17 | 0x0028      |          40 |
|      18 | 0xFFFF7160  |  4294930784 |
|      19 | 0x6324      |       25380 |
|      20 | 0xFFFF89E7  |  4294937063 |
|      21 | 0x71EA      |       29162 |
|      22 | 0xFFFFFB1F  |  4294966047 |
|      23 | 0x0050      |          80 |
|      24 | 0x001E      |          30 |
|      25 | 0xFFFEE237  |  4294894135 |
|      26 | 0x138BC     |       80060 |
|      27 | 0xFFFFFF39  |  4294967097 |
|      28 | 0x013F      |         319 |
|      29 | 0x003C      |          60 |
|      30 | 0xFFFED8A5  |  4294891685 |
|      31 | 0x137C4     |       79812 |
|      32 | 0xFFFFF381  |  4294964097 |
|      33 | 0xFFFEE5C1  |  4294895041 |
|      34 | 0x13AD2     |       80594 |
|      35 | 0xFFFEF1A3  |  4294898083 |
|      36 | 0x12725     |       75557 |
|      37 | 0xFFFEB94D  |  4294883661 |
|      38 | 0x119B5     |       72117 |
|      39 | 0xFFFEB7DB  |  4294883291 |
|      40 | 0x11BCE     |       72654 |
|      41 | 0x0D61      |        3425 |
|      42 | 0xFFFEBA58  |  4294883928 |
|      43 | 0x117E8     |       71656 |
|      44 | 0x000A      |          10 |

## Events

### Event 65535

#### Metadata

| Field        | Value   |
|--------------|---------|
| Entrypoint   | 0x0000  |
| Data Size    | 6 bytes |
| Instructions | 3       |

```
      00 01 02 03 04 05 06 07  08 09 0A 0B 0C 0D 0E 0F
      -- -- -- -- -- -- -- --  -- -- -- -- -- -- -- --
0000: 22 01 32 00 80 00                                 ".2...          
```

#### Opcodes

```
  0: 0x0000 [0x22] ENTITY_HIDE_FLAG(enabled=0x01)
  1: 0x0002 [0x32] ExtData[1]->MainSpeed = 13* * 0.1
  2: 0x0005 [0x00] END_REQSTACK()
```

### Event 159

#### Metadata

| Field        | Value    |
|--------------|----------|
| Entrypoint   | 0x0006   |
| Data Size    | 10 bytes |
| Instructions | 2        |

```
      00 01 02 03 04 05 06 07  08 09 0A 0B 0C 0D 0E 0F
      -- -- -- -- -- -- -- --  -- -- -- -- -- -- -- --
0000:                   37 01  80 02 80 03 80 04 80 00        7.........
```

#### Opcodes

```
  0: 0x0006 [0x37] UPDATE_EVENT_POSITION_AND_DIR: x=-35.543*, z=23.824*, y=-1.499*, direction=56.0°*
  1: 0x000F [0x00] END_REQSTACK()
```

### Event 105

#### Metadata

| Field        | Value    |
|--------------|----------|
| Entrypoint   | 0x0010   |
| Data Size    | 10 bytes |
| Instructions | 2        |

```
      00 01 02 03 04 05 06 07  08 09 0A 0B 0C 0D 0E 0F
      -- -- -- -- -- -- -- --  -- -- -- -- -- -- -- --
0010: 37 05 80 06 80 07 80 08  80 00                    7.........      
```

#### Opcodes

```
  0: 0x0010 [0x37] UPDATE_EVENT_POSITION_AND_DIR: x=-69.803*, z=77.422*, y=0.000*, direction=232.1°*
  1: 0x0019 [0x00] END_REQSTACK()
```

### Event 107

#### Metadata

| Field        | Value    |
|--------------|----------|
| Entrypoint   | 0x001A   |
| Data Size    | 10 bytes |
| Instructions | 2        |

```
      00 01 02 03 04 05 06 07  08 09 0A 0B 0C 0D 0E 0F
      -- -- -- -- -- -- -- --  -- -- -- -- -- -- -- --
0010:                                37 09 80 0A 80 0B            7.....
0020: 80 0C 80 00                                       ....            
```

#### Opcodes

```
  0: 0x001A [0x37] UPDATE_EVENT_POSITION_AND_DIR: x=-82.736*, z=70.546*, y=-1.200*, direction=232.6°*
  1: 0x0023 [0x00] END_REQSTACK()
```

### Event 65535.1

#### Metadata

| Field        | Value    |
|--------------|----------|
| Entrypoint   | 0x0024   |
| Data Size    | 51 bytes |
| Instructions | 5        |

```
      00 01 02 03 04 05 06 07  08 09 0A 0B 0C 0D 0E 0F
      -- -- -- -- -- -- -- --  -- -- -- -- -- -- -- --
0020:             1C 0D 80 52  0E 80 F0 FF FF 7F F0 FF      ...R........
0030: FF 7F 63 6D 35 32 45 0E  80 F0 FF FF 7F F0 FF FF  ..cm52E.........
0040: 7F 63 6D 35 61 07 80 55  0E 80 F0 FF FF 7F F0 FF  .cm5a..U........
0050: FF 7F 63 6D 35 61 00                              ..cm5a.         
```

#### Opcodes

```
  0: 0x0024 [0x1C] WAIT(90* ticks)
  1: 0x0027 [0x52] END_LOAD_SCHEDULER: End scheduler "cm52" with entities [LocalPlayer, LocalPlayer], work=144*
  2: 0x0036 [0x45] LOAD_SCHEDULED_TASK: Load scheduler "cm5a" with entities [LocalPlayer, LocalPlayer], work=[144*, 0*]
  3: 0x0047 [0x55] WAIT_LOAD_SCHEDULER: Wait for scheduler "cm5a" with entities [LocalPlayer, LocalPlayer], work=144*
  4: 0x0056 [0x00] END_REQSTACK()
```

### Event 65535.2

#### Metadata

| Field        | Value    |
|--------------|----------|
| Entrypoint   | 0x0057   |
| Data Size    | 11 bytes |
| Instructions | 3        |

```
      00 01 02 03 04 05 06 07  08 09 0A 0B 0C 0D 0E 0F
      -- -- -- -- -- -- -- --  -- -- -- -- -- -- -- --
0050:                      1F  00 0F 80 10 80 03 80 1F         .........
0060: 01 00                                             ..              
```

#### Opcodes

```
  0: 0x0057 [0x1F] MOVE_ENTITY: EventEntity moves to X=-34.034*, Z=21.281*, Y=-1.499*
  1: 0x005F [0x1F] MOVE_ENTITY: Update entity position (mode=1)
  2: 0x0061 [0x00] END_REQSTACK()
```

### Event 65535.3

#### Metadata

| Field        | Value    |
|--------------|----------|
| Entrypoint   | 0x0062   |
| Data Size    | 26 bytes |
| Instructions | 7        |

```
      00 01 02 03 04 05 06 07  08 09 0A 0B 0C 0D 0E 0F
      -- -- -- -- -- -- -- --  -- -- -- -- -- -- -- --
0060:       32 11 80 1F 00 12  80 13 80 03 80 1F 01 1F    2.............
0070: 00 14 80 15 80 16 80 1F  01 22 01 00              ........."..    
```

#### Opcodes

```
  0: 0x0062 [0x32] ExtData[1]->MainSpeed = 40* * 0.1
  1: 0x0065 [0x1F] MOVE_ENTITY: EventEntity moves to X=-36.512*, Z=25.380*, Y=-1.499*
  2: 0x006D [0x1F] MOVE_ENTITY: Update entity position (mode=1)
  3: 0x006F [0x1F] MOVE_ENTITY: EventEntity moves to X=-30.233*, Z=29.162*, Y=-1.249*
  4: 0x0077 [0x1F] MOVE_ENTITY: Update entity position (mode=1)
  5: 0x0079 [0x22] ENTITY_HIDE_FLAG(enabled=0x01)
  6: 0x007B [0x00] END_REQSTACK()
```

### Event 65535.4

#### Metadata

| Field        | Value    |
|--------------|----------|
| Entrypoint   | 0x007C   |
| Data Size    | 19 bytes |
| Instructions | 3        |

```
      00 01 02 03 04 05 06 07  08 09 0A 0B 0C 0D 0E 0F
      -- -- -- -- -- -- -- --  -- -- -- -- -- -- -- --
0070:                                      5B 17 80 F8              [...
0080: FF FF 7F F8 FF FF 7F 74  6C 6B 30 1C 18 80 00     .......tlk0.... 
```

#### Opcodes

```
  0: 0x007C [0x5B] LOAD_EXT_SCHEDULER: Load scheduler "tlk0" with entities [EventEntity, EventEntity], work=80*
  1: 0x008B [0x1C] WAIT(30* ticks)
  2: 0x008E [0x00] END_REQSTACK()
```

### Event 65535.5

#### Metadata

| Field        | Value   |
|--------------|---------|
| Entrypoint   | 0x008F  |
| Data Size    | 9 bytes |
| Instructions | 3       |

```
      00 01 02 03 04 05 06 07  08 09 0A 0B 0C 0D 0E 0F
      -- -- -- -- -- -- -- --  -- -- -- -- -- -- -- --
0080:                                               5E                 ^
0090: 69 64 6C 30 1C 18 80 00                           idl0....        
```

#### Opcodes

```
  0: 0x008F [0x5E] EventEntity goes idle (kills current action) (animation: "idl0")
  1: 0x0094 [0x1C] WAIT(30* ticks)
  2: 0x0097 [0x00] END_REQSTACK()
```

### Event 65535.6

#### Metadata

| Field        | Value    |
|--------------|----------|
| Entrypoint   | 0x0098   |
| Data Size    | 19 bytes |
| Instructions | 3        |

```
      00 01 02 03 04 05 06 07  08 09 0A 0B 0C 0D 0E 0F
      -- -- -- -- -- -- -- --  -- -- -- -- -- -- -- --
0090:                          5B 17 80 F8 FF FF 7F F8          [.......
00A0: FF FF 7F 74 68 6B 31 1C  18 80 00                 ...thk1....     
```

#### Opcodes

```
  0: 0x0098 [0x5B] LOAD_EXT_SCHEDULER: Load scheduler "thk1" with entities [EventEntity, EventEntity], work=80*
  1: 0x00A7 [0x1C] WAIT(30* ticks)
  2: 0x00AA [0x00] END_REQSTACK()
```

### Event 65535.7

#### Metadata

| Field        | Value    |
|--------------|----------|
| Entrypoint   | 0x00AB   |
| Data Size    | 19 bytes |
| Instructions | 3        |

```
      00 01 02 03 04 05 06 07  08 09 0A 0B 0C 0D 0E 0F
      -- -- -- -- -- -- -- --  -- -- -- -- -- -- -- --
00A0:                                   5B 17 80 F8 FF             [....
00B0: FF 7F F8 FF FF 7F 74 68  6B 32 1C 18 80 00        ......thk2....  
```

#### Opcodes

```
  0: 0x00AB [0x5B] LOAD_EXT_SCHEDULER: Load scheduler "thk2" with entities [EventEntity, EventEntity], work=80*
  1: 0x00BA [0x1C] WAIT(30* ticks)
  2: 0x00BD [0x00] END_REQSTACK()
```

### Event 65535.8

#### Metadata

| Field        | Value   |
|--------------|---------|
| Entrypoint   | 0x00BE  |
| Data Size    | 1 bytes |
| Instructions | 1       |

```
      00 01 02 03 04 05 06 07  08 09 0A 0B 0C 0D 0E 0F
      -- -- -- -- -- -- -- --  -- -- -- -- -- -- -- --
00B0:                                            00                   . 
```

#### Opcodes

```
  0: 0x00BE [0x00] END_REQSTACK()
```

### Event 65535.9

#### Metadata

| Field        | Value    |
|--------------|----------|
| Entrypoint   | 0x00BF   |
| Data Size    | 55 bytes |
| Instructions | 12       |

```
      00 01 02 03 04 05 06 07  08 09 0A 0B 0C 0D 0E 0F
      -- -- -- -- -- -- -- --  -- -- -- -- -- -- -- --
00B0:                                               22                 "
00C0: 00 32 00 80 1F 00 19 80  1A 80 1B 80 1F 01 4A F0  .2............J.
00D0: FF FF 7F 1A 40 0F 01 39  1C 80 1C 1D 80 1F 00 1E  ....@..9........
00E0: 80 1F 80 20 80 1F 01 4A  F0 FF FF 7F 1A 40 0F 01  ... ...J.....@..
00F0: 1E 13 40 0F 01 00                                 ..@...          
```

#### Opcodes

```
  0: 0x00BF [0x22] ENTITY_HIDE_FLAG(enabled=0x00)
  1: 0x00C1 [0x32] ExtData[1]->MainSpeed = 13* * 0.1
  2: 0x00C4 [0x1F] MOVE_ENTITY: EventEntity moves to X=-73.161*, Z=80.060*, Y=-0.199*
  3: 0x00CC [0x1F] MOVE_ENTITY: Update entity position (mode=1)
  4: 0x00CE [0x4A] LocalPlayer looks at Alista (ID: 17776666/0x010F401A)
  5: 0x00D7 [0x39] SET_ENTITY_DIRECTION(direction=1.8°*)
  6: 0x00DA [0x1C] WAIT(60* ticks)
  7: 0x00DD [0x1F] MOVE_ENTITY: EventEntity moves to X=-75.611*, Z=79.812*, Y=-3.199*
  8: 0x00E5 [0x1F] MOVE_ENTITY: Update entity position (mode=1)
  9: 0x00E7 [0x4A] LocalPlayer looks at Alista (ID: 17776666/0x010F401A)
 10: 0x00F0 [0x1E] EventEntity looks at Baudin (ID: 17776659/0x010F4013) and starts talking
 11: 0x00F5 [0x00] END_REQSTACK()
```

### Event 65535.10

#### Metadata

| Field        | Value    |
|--------------|----------|
| Entrypoint   | 0x00F6   |
| Data Size    | 35 bytes |
| Instructions | 9        |

```
      00 01 02 03 04 05 06 07  08 09 0A 0B 0C 0D 0E 0F
      -- -- -- -- -- -- -- --  -- -- -- -- -- -- -- --
00F0:                   32 00  80 1F 00 21 80 22 80 07        2....!."..
0100: 80 1F 01 6F 1E 13 40 0F  01 4A F0 FF FF 7F 1A 40  ...o..@..J.....@
0110: 0F 01 6F 76 F8 FF FF 7F  00                       ..ov.....       
```

#### Opcodes

```
  0: 0x00F6 [0x32] ExtData[1]->MainSpeed = 13* * 0.1
  1: 0x00F9 [0x1F] MOVE_ENTITY: EventEntity moves to X=-72.255*, Z=80.594*, Y=0.000*
  2: 0x0101 [0x1F] MOVE_ENTITY: Update entity position (mode=1)
  3: 0x0103 [0x6F] WAIT_FRAME_DELAY: Yield until WaitTime reaches zero
  4: 0x0104 [0x1E] EventEntity looks at Baudin (ID: 17776659/0x010F4013) and starts talking
  5: 0x0109 [0x4A] LocalPlayer looks at Alista (ID: 17776666/0x010F401A)
  6: 0x0112 [0x6F] WAIT_FRAME_DELAY: Yield until WaitTime reaches zero
  7: 0x0113 [0x76] CHECK_ENTITY_RENDER_FLAGS: Wait until EventEntity Render.Flags0 and Render.Flags3 conditions are met
  8: 0x0118 [0x00] END_REQSTACK()
```

### Event 65535.11

#### Metadata

| Field        | Value    |
|--------------|----------|
| Entrypoint   | 0x0119   |
| Data Size    | 16 bytes |
| Instructions | 5        |

```
      00 01 02 03 04 05 06 07  08 09 0A 0B 0C 0D 0E 0F
      -- -- -- -- -- -- -- --  -- -- -- -- -- -- -- --
0110:                             32 11 80 1F 00 23 80           2....#.
0120: 24 80 07 80 1F 01 22 01  00                       $....."..       
```

#### Opcodes

```
  0: 0x0119 [0x32] ExtData[1]->MainSpeed = 40* * 0.1
  1: 0x011C [0x1F] MOVE_ENTITY: EventEntity moves to X=-69.213*, Z=75.557*, Y=0.000*
  2: 0x0124 [0x1F] MOVE_ENTITY: Update entity position (mode=1)
  3: 0x0126 [0x22] ENTITY_HIDE_FLAG(enabled=0x01)
  4: 0x0128 [0x00] END_REQSTACK()
```

### Event 65535.12

#### Metadata

| Field        | Value    |
|--------------|----------|
| Entrypoint   | 0x0129   |
| Data Size    | 40 bytes |
| Instructions | 8        |

```
      00 01 02 03 04 05 06 07  08 09 0A 0B 0C 0D 0E 0F
      -- -- -- -- -- -- -- --  -- -- -- -- -- -- -- --
0120:                             32 00 80 1F 00 25 80           2....%.
0130: 26 80 0B 80 1F 01 1E 13  40 0F 01 4A 19 40 0F 01  &.......@..J.@..
0140: 1A 40 0F 01 4A 13 40 0F  01 1A 40 0F 01 1C 18 80  .@..J.@...@.....
0150: 00                                                .               
```

#### Opcodes

```
  0: 0x0129 [0x32] ExtData[1]->MainSpeed = 13* * 0.1
  1: 0x012C [0x1F] MOVE_ENTITY: EventEntity moves to X=-83.635*, Z=72.117*, Y=-1.200*
  2: 0x0134 [0x1F] MOVE_ENTITY: Update entity position (mode=1)
  3: 0x0136 [0x1E] EventEntity looks at Baudin (ID: 17776659/0x010F4013) and starts talking
  4: 0x013B [0x4A] Albrecht (ID: 17776665/0x010F4019) looks at Alista (ID: 17776666/0x010F401A)
  5: 0x0144 [0x4A] Baudin (ID: 17776659/0x010F4013) looks at Alista (ID: 17776666/0x010F401A)
  6: 0x014D [0x1C] WAIT(30* ticks)
  7: 0x0150 [0x00] END_REQSTACK()
```

### Event 65535.13

#### Metadata

| Field        | Value    |
|--------------|----------|
| Entrypoint   | 0x0151   |
| Data Size    | 10 bytes |
| Instructions | 2        |

```
      00 01 02 03 04 05 06 07  08 09 0A 0B 0C 0D 0E 0F
      -- -- -- -- -- -- -- --  -- -- -- -- -- -- -- --
0150:    37 27 80 28 80 0B 80  29 80 00                  7'.(...)..     
```

#### Opcodes

```
  0: 0x0151 [0x37] UPDATE_EVENT_POSITION_AND_DIR: x=-84.005*, z=72.654*, y=-1.200*, direction=301.0°*
  1: 0x015A [0x00] END_REQSTACK()
```

### Event 65535.14

#### Metadata

| Field        | Value    |
|--------------|----------|
| Entrypoint   | 0x015B   |
| Data Size    | 60 bytes |
| Instructions | 10       |

```
      00 01 02 03 04 05 06 07  08 09 0A 0B 0C 0D 0E 0F
      -- -- -- -- -- -- -- --  -- -- -- -- -- -- -- --
0150:                                   32 11 80 1F 00             2....
0160: 2A 80 2B 80 0B 80 1F 01  6F 1C 2C 80 4A 19 40 0F  *.+.....o.,.J.@.
0170: 01 1A 40 0F 01 4A 13 40  0F 01 1A 40 0F 01 4A F0  ..@..J.@...@..J.
0180: FF FF 7F 1A 40 0F 01 5B  17 80 F8 FF FF 7F F8 FF  ....@..[........
0190: FF 7F 74 68 6B 31 00                              ..thk1.         
```

#### Opcodes

```
  0: 0x015B [0x32] ExtData[1]->MainSpeed = 40* * 0.1
  1: 0x015E [0x1F] MOVE_ENTITY: EventEntity moves to X=-83.368*, Z=71.656*, Y=-1.200*
  2: 0x0166 [0x1F] MOVE_ENTITY: Update entity position (mode=1)
  3: 0x0168 [0x6F] WAIT_FRAME_DELAY: Yield until WaitTime reaches zero
  4: 0x0169 [0x1C] WAIT(10* ticks)
  5: 0x016C [0x4A] Albrecht (ID: 17776665/0x010F4019) looks at Alista (ID: 17776666/0x010F401A)
  6: 0x0175 [0x4A] Baudin (ID: 17776659/0x010F4013) looks at Alista (ID: 17776666/0x010F401A)
  7: 0x017E [0x4A] LocalPlayer looks at Alista (ID: 17776666/0x010F401A)
  8: 0x0187 [0x5B] LOAD_EXT_SCHEDULER: Load scheduler "thk1" with entities [EventEntity, EventEntity], work=80*
  9: 0x0196 [0x00] END_REQSTACK()
```
