# 17776675 - Verena

## Common Data

| Field            | Value                 |
|------------------|-----------------------|
| Zone             | Upper Jeuno (ID: 244) |
| Block Size       | 284 bytes             |
| Total Events     | 11                    |
| References Count | 10                    |

## List of Events

| Event ID                 | Entrypoint   |   Size |   Instructions |
|--------------------------|--------------|--------|----------------|
| [65535](#event-65535)    | 0x0000       |      6 |              3 |
| [80](#event-80)          | 0x0006       |     10 |              2 |
| [65535.1](#event-655351) | 0x0010       |     16 |              6 |
| [65535.2](#event-655352) | 0x0020       |     19 |              3 |
| [65535.3](#event-655353) | 0x0033       |     29 |              3 |
| [65535.4](#event-655354) | 0x0050       |     19 |              3 |
| [65535.5](#event-655355) | 0x0063       |     29 |              3 |
| [65535.6](#event-655356) | 0x0080       |     19 |              3 |
| [65535.7](#event-655357) | 0x0093       |     29 |              3 |
| [65535.8](#event-655358) | 0x00B0       |      6 |              2 |
| [65535.9](#event-655359) | 0x00B6       |      1 |              1 |

## DAT References (imed_data)

|   Index | Hex Value   |   Dec Value |
|---------|-------------|-------------|
|       0 | 0x0008      |           8 |
|       1 | 0x1DC2      |        7618 |
|       2 | 0x10C83     |       68739 |
|       3 | 0x07CF      |        1999 |
|       4 | 0x0F61      |        3937 |
|       5 | 0x2ABE      |       10942 |
|       6 | 0x10F1A     |       69402 |
|       7 | 0x0F19      |        3865 |
|       8 | 0x00BE      |         190 |
|       9 | 0x003C      |          60 |

## Events

### Event 65535

#### Metadata

| Field        | Value   |
|--------------|---------|
| Entrypoint   | 0x0000  |
| Data Size    | 6 bytes |
| Instructions | 3       |

```
      00 01 02 03 04 05 06 07  08 09 0A 0B 0C 0D 0E 0F
      -- -- -- -- -- -- -- --  -- -- -- -- -- -- -- --
0000: 22 01 32 00 80 00                                 ".2...          
```

#### Opcodes

```
  0: 0x0000 [0x22] ENTITY_HIDE_FLAG(enabled=0x01)
  1: 0x0002 [0x32] ExtData[1]->MainSpeed = 8* * 0.1
  2: 0x0005 [0x00] END_REQSTACK()
```

### Event 80

#### Metadata

| Field        | Value    |
|--------------|----------|
| Entrypoint   | 0x0006   |
| Data Size    | 10 bytes |
| Instructions | 2        |

```
      00 01 02 03 04 05 06 07  08 09 0A 0B 0C 0D 0E 0F
      -- -- -- -- -- -- -- --  -- -- -- -- -- -- -- --
0000:                   37 01  80 02 80 03 80 04 80 00        7.........
```

#### Opcodes

```
  0: 0x0006 [0x37] UPDATE_EVENT_POSITION_AND_DIR: x=7.618*, z=68.739*, y=1.999*, direction=346.0°*
  1: 0x000F [0x00] END_REQSTACK()
```

### Event 65535.1

#### Metadata

| Field        | Value    |
|--------------|----------|
| Entrypoint   | 0x0010   |
| Data Size    | 16 bytes |
| Instructions | 6        |

```
      00 01 02 03 04 05 06 07  08 09 0A 0B 0C 0D 0E 0F
      -- -- -- -- -- -- -- --  -- -- -- -- -- -- -- --
0010: 1F 00 05 80 06 80 03 80  1F 01 39 07 80 6F 70 00  ..........9..op.
```

#### Opcodes

```
  0: 0x0010 [0x1F] MOVE_ENTITY: EventEntity moves to X=10.942*, Z=69.402*, Y=1.999*
  1: 0x0018 [0x1F] MOVE_ENTITY: Update entity position (mode=1)
  2: 0x001A [0x39] SET_ENTITY_DIRECTION(direction=21.2°*)
  3: 0x001D [0x6F] WAIT_FRAME_DELAY: Yield until WaitTime reaches zero
  4: 0x001E [0x70] WAIT_ENTITY_RENDER_FLAG: Wait while EventEntity->Render.Flags3 bit 2 is set (cancel turn if not)
  5: 0x001F [0x00] END_REQSTACK()
```

### Event 65535.2

#### Metadata

| Field        | Value    |
|--------------|----------|
| Entrypoint   | 0x0020   |
| Data Size    | 19 bytes |
| Instructions | 3        |

```
      00 01 02 03 04 05 06 07  08 09 0A 0B 0C 0D 0E 0F
      -- -- -- -- -- -- -- --  -- -- -- -- -- -- -- --
0020: 5B 08 80 F8 FF FF 7F F8  FF FF 7F 74 6C 6B 30 1C  [..........tlk0.
0030: 09 80 00                                          ...             
```

#### Opcodes

```
  0: 0x0020 [0x5B] LOAD_EXT_SCHEDULER: Load scheduler "tlk0" with entities [EventEntity, EventEntity], work=190*
  1: 0x002F [0x1C] WAIT(60* ticks)
  2: 0x0032 [0x00] END_REQSTACK()
```

### Event 65535.3

#### Metadata

| Field        | Value    |
|--------------|----------|
| Entrypoint   | 0x0033   |
| Data Size    | 29 bytes |
| Instructions | 3        |

```
      00 01 02 03 04 05 06 07  08 09 0A 0B 0C 0D 0E 0F
      -- -- -- -- -- -- -- --  -- -- -- -- -- -- -- --
0030:          5B 08 80 F8 FF  FF 7F F8 FF FF 7F 74 6C     [..........tl
0040: 6B 31 53 F8 FF FF 7F F8  FF FF 7F 74 6C 6B 31 00  k1S........tlk1.
```

#### Opcodes

```
  0: 0x0033 [0x5B] LOAD_EXT_SCHEDULER: Load scheduler "tlk1" with entities [EventEntity, EventEntity], work=190*
  1: 0x0042 [0x53] WAIT_SCHEDULER_TASK: Wait for scheduler "tlk1" with entities [EventEntity, EventEntity]
  2: 0x004F [0x00] END_REQSTACK()
```

### Event 65535.4

#### Metadata

| Field        | Value    |
|--------------|----------|
| Entrypoint   | 0x0050   |
| Data Size    | 19 bytes |
| Instructions | 3        |

```
      00 01 02 03 04 05 06 07  08 09 0A 0B 0C 0D 0E 0F
      -- -- -- -- -- -- -- --  -- -- -- -- -- -- -- --
0050: 5B 08 80 F8 FF FF 7F F8  FF FF 7F 74 68 6B 31 1C  [..........thk1.
0060: 09 80 00                                          ...             
```

#### Opcodes

```
  0: 0x0050 [0x5B] LOAD_EXT_SCHEDULER: Load scheduler "thk1" with entities [EventEntity, EventEntity], work=190*
  1: 0x005F [0x1C] WAIT(60* ticks)
  2: 0x0062 [0x00] END_REQSTACK()
```

### Event 65535.5

#### Metadata

| Field        | Value    |
|--------------|----------|
| Entrypoint   | 0x0063   |
| Data Size    | 29 bytes |
| Instructions | 3        |

```
      00 01 02 03 04 05 06 07  08 09 0A 0B 0C 0D 0E 0F
      -- -- -- -- -- -- -- --  -- -- -- -- -- -- -- --
0060:          5B 08 80 F8 FF  FF 7F F8 FF FF 7F 74 68     [..........th
0070: 6B 32 53 F8 FF FF 7F F8  FF FF 7F 74 68 6B 32 00  k2S........thk2.
```

#### Opcodes

```
  0: 0x0063 [0x5B] LOAD_EXT_SCHEDULER: Load scheduler "thk2" with entities [EventEntity, EventEntity], work=190*
  1: 0x0072 [0x53] WAIT_SCHEDULER_TASK: Wait for scheduler "thk2" with entities [EventEntity, EventEntity]
  2: 0x007F [0x00] END_REQSTACK()
```

### Event 65535.6

#### Metadata

| Field        | Value    |
|--------------|----------|
| Entrypoint   | 0x0080   |
| Data Size    | 19 bytes |
| Instructions | 3        |

```
      00 01 02 03 04 05 06 07  08 09 0A 0B 0C 0D 0E 0F
      -- -- -- -- -- -- -- --  -- -- -- -- -- -- -- --
0080: 5B 08 80 F8 FF FF 7F F8  FF FF 7F 75 74 73 30 1C  [..........uts0.
0090: 09 80 00                                          ...             
```

#### Opcodes

```
  0: 0x0080 [0x5B] LOAD_EXT_SCHEDULER: Load scheduler "uts0" with entities [EventEntity, EventEntity], work=190*
  1: 0x008F [0x1C] WAIT(60* ticks)
  2: 0x0092 [0x00] END_REQSTACK()
```

### Event 65535.7

#### Metadata

| Field        | Value    |
|--------------|----------|
| Entrypoint   | 0x0093   |
| Data Size    | 29 bytes |
| Instructions | 3        |

```
      00 01 02 03 04 05 06 07  08 09 0A 0B 0C 0D 0E 0F
      -- -- -- -- -- -- -- --  -- -- -- -- -- -- -- --
0090:          5B 08 80 F8 FF  FF 7F F8 FF FF 7F 75 74     [..........ut
00A0: 73 31 53 F8 FF FF 7F F8  FF FF 7F 75 74 73 31 00  s1S........uts1.
```

#### Opcodes

```
  0: 0x0093 [0x5B] LOAD_EXT_SCHEDULER: Load scheduler "uts1" with entities [EventEntity, EventEntity], work=190*
  1: 0x00A2 [0x53] WAIT_SCHEDULER_TASK: Wait for scheduler "uts1" with entities [EventEntity, EventEntity]
  2: 0x00AF [0x00] END_REQSTACK()
```

### Event 65535.8

#### Metadata

| Field        | Value   |
|--------------|---------|
| Entrypoint   | 0x00B0  |
| Data Size    | 6 bytes |
| Instructions | 2       |

```
      00 01 02 03 04 05 06 07  08 09 0A 0B 0C 0D 0E 0F
      -- -- -- -- -- -- -- --  -- -- -- -- -- -- -- --
00B0: 5E 69 64 6C 30 00                                 ^idl0.          
```

#### Opcodes

```
  0: 0x00B0 [0x5E] EventEntity goes idle (kills current action) (animation: "idl0")
  1: 0x00B5 [0x00] END_REQSTACK()
```

### Event 65535.9

#### Metadata

| Field        | Value   |
|--------------|---------|
| Entrypoint   | 0x00B6  |
| Data Size    | 1 bytes |
| Instructions | 1       |

```
      00 01 02 03 04 05 06 07  08 09 0A 0B 0C 0D 0E 0F
      -- -- -- -- -- -- -- --  -- -- -- -- -- -- -- --
00B0:                   00                                    .         
```

#### Opcodes

```
  0: 0x00B6 [0x00] END_REQSTACK()
```
