# 17776802

## Common Data

| Field            | Value                 |
|------------------|-----------------------|
| Zone             | Upper Jeuno (ID: 244) |
| Block Size       | 70524 bytes           |
| Total Events     | 22                    |
| References Count | 1474                  |

## List of Events

| Event ID              | Entrypoint   |   Size |   Instructions |
|-----------------------|--------------|--------|----------------|
| [65535](#event-65535) | 0x0000       |      1 |              1 |
| [10063](#event-10063) | 0x0001       |   1922 |            327 |
| [10064](#event-10064) | 0x0783       |   4161 |            637 |
| [10065](#event-10065) | 0x17C4       |   3701 |            585 |
| [10066](#event-10066) | 0x2639       |   2238 |            376 |
| [10072](#event-10072) | 0x2EF7       |   3340 |            541 |
| [10073](#event-10073) | 0x3C03       |    853 |            157 |
| [10074](#event-10074) | 0x3F58       |   3033 |            521 |
| [10075](#event-10075) | 0x4B31       |   2185 |            390 |
| [10078](#event-10078) | 0x53BA       |   4375 |            809 |
| [10079](#event-10079) | 0x64D1       |    657 |            120 |
| [10080](#event-10080) | 0x6762       |   1456 |            256 |
| [10081](#event-10081) | 0x6D12       |  23877 |           4038 |
| [10093](#event-10093) | 0xCA57       |   1126 |            133 |
| [10095](#event-10095) | 0xCEBD       |    689 |             85 |
| [10100](#event-10100) | 0xD16E       |   2136 |            246 |
| [10109](#event-10109) | 0xD9C6       |   1251 |            151 |
| [10102](#event-10102) | 0xDEA9       |   3561 |            453 |
| [10111](#event-10111) | 0xEC92       |    985 |            113 |
| [10113](#event-10113) | 0xF06B       |    474 |             53 |
| [10115](#event-10115) | 0xF245       |    626 |             72 |
| [10118](#event-10118) | 0xF4B7       |   1876 |            206 |

## DAT References (imed_data)

|   Index | Hex Value   |   Dec Value |
|---------|-------------|-------------|
|       0 | 0x0013      |          19 |
|       1 | 0x00C2      |         194 |
|       2 | 0x0000      |           0 |
|       3 | 0x003C      |          60 |
|       4 | 0x25F5      |        9717 |
|       5 | 0x25F6      |        9718 |
|       6 | 0x0001      |           1 |
|       7 | 0x25F7      |        9719 |
|       8 | 0x0002      |           2 |
|       9 | 0x25F8      |        9720 |
|      10 | 0x0003      |           3 |
|      11 | 0x25F9      |        9721 |
|      12 | 0x0004      |           4 |
|      13 | 0x25FA      |        9722 |
|      14 | 0x0005      |           5 |
|      15 | 0x25FB      |        9723 |
|      16 | 0x0006      |           6 |
|      17 | 0x25FC      |        9724 |
|      18 | 0x0007      |           7 |
|      19 | 0x25FD      |        9725 |
|      20 | 0x25FE      |        9726 |
|      21 | 0x25FF      |        9727 |
|      22 | 0x2600      |        9728 |
|      23 | 0x2601      |        9729 |
|      24 | 0x2602      |        9730 |
|      25 | 0x2605      |        9733 |
|      26 | 0x2606      |        9734 |
|      27 | 0x2607      |        9735 |
|      28 | 0x0008      |           8 |
|      29 | 0x2608      |        9736 |
|      30 | 0x0009      |           9 |
|      31 | 0x2609      |        9737 |
|      32 | 0x000A      |          10 |
|      33 | 0x2603      |        9731 |
|      34 | 0x000B      |          11 |
|      35 | 0x2604      |        9732 |
|      36 | 0x000C      |          12 |
|      37 | 0x260A      |        9738 |
|      38 | 0x0030      |          48 |
|      39 | 0x260B      |        9739 |
|      40 | 0x260C      |        9740 |
|      41 | 0x260D      |        9741 |
|      42 | 0x0016      |          22 |
|      43 | 0x260E      |        9742 |
|      44 | 0x261A      |        9754 |
|      45 | 0x260F      |        9743 |
|      46 | 0x261B      |        9755 |
|      47 | 0x2610      |        9744 |
|      48 | 0x261C      |        9756 |
|      49 | 0x2611      |        9745 |
|      50 | 0x261D      |        9757 |
|      51 | 0x2614      |        9748 |
|      52 | 0x2620      |        9760 |
|      53 | 0x2615      |        9749 |
|      54 | 0x2621      |        9761 |
|      55 | 0x2616      |        9750 |
|      56 | 0x2622      |        9762 |
|      57 | 0x2617      |        9751 |
|      58 | 0x2623      |        9763 |
|      59 | 0x2618      |        9752 |
|      60 | 0x2624      |        9764 |
|      61 | 0x2612      |        9746 |
|      62 | 0x261E      |        9758 |
|      63 | 0x2613      |        9747 |
|      64 | 0x261F      |        9759 |
|      65 | 0x2619      |        9753 |
|      66 | 0x2625      |        9765 |
|      67 | 0x0034      |          52 |
|      68 | 0x2626      |        9766 |
|      69 | 0x2627      |        9767 |
|      70 | 0x2628      |        9768 |
|      71 | 0x2629      |        9769 |
|      72 | 0x262A      |        9770 |
|      73 | 0x262B      |        9771 |
|      74 | 0x262C      |        9772 |
|      75 | 0x262F      |        9775 |
|      76 | 0x2630      |        9776 |
|      77 | 0x2631      |        9777 |
|      78 | 0x2632      |        9778 |
|      79 | 0x2633      |        9779 |
|      80 | 0x262D      |        9773 |
|      81 | 0x262E      |        9774 |
|      82 | 0x2634      |        9780 |
|      83 | 0x001E      |          30 |
|      84 | 0x0032      |          50 |
|      85 | 0x2635      |        9781 |
|      86 | 0x2636      |        9782 |
|      87 | 0x0022      |          34 |
|      88 | 0x0078      |         120 |
|      89 | 0x2638      |        9784 |
|      90 | 0x2639      |        9785 |
|      91 | 0x263A      |        9786 |
|      92 | 0x263B      |        9787 |
|      93 | 0x263E      |        9790 |
|      94 | 0x263F      |        9791 |
|      95 | 0x2640      |        9792 |
|      96 | 0x2641      |        9793 |
|      97 | 0x2642      |        9794 |
|      98 | 0x263C      |        9788 |
|      99 | 0x263D      |        9789 |
|     100 | 0x2643      |        9795 |
|     101 | 0x2644      |        9796 |
|     102 | 0x000F      |          15 |
|     103 | 0x001C      |          28 |
|     104 | 0x005A      |          90 |
|     105 | 0x2645      |        9797 |
|     106 | 0x001D      |          29 |
|     107 | 0x0027      |          39 |
|     108 | 0x0031      |          49 |
|     109 | 0x003B      |          59 |
|     110 | 0x0045      |          69 |
|     111 | 0x2646      |        9798 |
|     112 | 0x2647      |        9799 |
|     113 | 0x2648      |        9800 |
|     114 | 0x2649      |        9801 |
|     115 | 0x264C      |        9804 |
|     116 | 0x264D      |        9805 |
|     117 | 0x264E      |        9806 |
|     118 | 0x264F      |        9807 |
|     119 | 0x2650      |        9808 |
|     120 | 0x264A      |        9802 |
|     121 | 0x264B      |        9803 |
|     122 | 0x2651      |        9809 |
|     123 | 0x2652      |        9810 |
|     124 | 0x2653      |        9811 |
|     125 | 0x2654      |        9812 |
|     126 | 0x2655      |        9813 |
|     127 | 0x2656      |        9814 |
|     128 | 0x2659      |        9817 |
|     129 | 0x265A      |        9818 |
|     130 | 0x265B      |        9819 |
|     131 | 0x265C      |        9820 |
|     132 | 0x265D      |        9821 |
|     133 | 0x2657      |        9815 |
|     134 | 0x2658      |        9816 |
|     135 | 0x265E      |        9822 |
|     136 | 0x265F      |        9823 |
|     137 | 0x2660      |        9824 |
|     138 | 0x2661      |        9825 |
|     139 | 0x2662      |        9826 |
|     140 | 0x2663      |        9827 |
|     141 | 0x2664      |        9828 |
|     142 | 0x2665      |        9829 |
|     143 | 0x2666      |        9830 |
|     144 | 0x2667      |        9831 |
|     145 | 0x2668      |        9832 |
|     146 | 0x2669      |        9833 |
|     147 | 0x266A      |        9834 |
|     148 | 0x266B      |        9835 |
|     149 | 0x266C      |        9836 |
|     150 | 0x266D      |        9837 |
|     151 | 0x266E      |        9838 |
|     152 | 0x266F      |        9839 |
|     153 | 0x2670      |        9840 |
|     154 | 0x2671      |        9841 |
|     155 | 0x2672      |        9842 |
|     156 | 0x2673      |        9843 |
|     157 | 0x2674      |        9844 |
|     158 | 0x2675      |        9845 |
|     159 | 0x2676      |        9846 |
|     160 | 0x2677      |        9847 |
|     161 | 0x267A      |        9850 |
|     162 | 0x267B      |        9851 |
|     163 | 0x267C      |        9852 |
|     164 | 0x267D      |        9853 |
|     165 | 0x267E      |        9854 |
|     166 | 0x2678      |        9848 |
|     167 | 0x2679      |        9849 |
|     168 | 0x267F      |        9855 |
|     169 | 0x2680      |        9856 |
|     170 | 0x2681      |        9857 |
|     171 | 0x2682      |        9858 |
|     172 | 0x2683      |        9859 |
|     173 | 0x2684      |        9860 |
|     174 | 0x2685      |        9861 |
|     175 | 0x2686      |        9862 |
|     176 | 0x2687      |        9863 |
|     177 | 0x2688      |        9864 |
|     178 | 0x2689      |        9865 |
|     179 | 0x2695      |        9877 |
|     180 | 0x26A1      |        9889 |
|     181 | 0x268A      |        9866 |
|     182 | 0x2696      |        9878 |
|     183 | 0x26A2      |        9890 |
|     184 | 0x268B      |        9867 |
|     185 | 0x2697      |        9879 |
|     186 | 0x26A3      |        9891 |
|     187 | 0x268C      |        9868 |
|     188 | 0x2698      |        9880 |
|     189 | 0x26A4      |        9892 |
|     190 | 0x268F      |        9871 |
|     191 | 0x269B      |        9883 |
|     192 | 0x26A7      |        9895 |
|     193 | 0x2690      |        9872 |
|     194 | 0x269C      |        9884 |
|     195 | 0x26A8      |        9896 |
|     196 | 0x2691      |        9873 |
|     197 | 0x269D      |        9885 |
|     198 | 0x26A9      |        9897 |
|     199 | 0x2692      |        9874 |
|     200 | 0x269E      |        9886 |
|     201 | 0x26AA      |        9898 |
|     202 | 0x2693      |        9875 |
|     203 | 0x269F      |        9887 |
|     204 | 0x26AB      |        9899 |
|     205 | 0x268D      |        9869 |
|     206 | 0x2699      |        9881 |
|     207 | 0x26A5      |        9893 |
|     208 | 0x268E      |        9870 |
|     209 | 0x269A      |        9882 |
|     210 | 0x26A6      |        9894 |
|     211 | 0x2694      |        9876 |
|     212 | 0x26A0      |        9888 |
|     213 | 0x26AC      |        9900 |
|     214 | 0x26AD      |        9901 |
|     215 | 0x26AE      |        9902 |
|     216 | 0x001B      |          27 |
|     217 | 0x00C4      |         196 |
|     218 | 0x26D2      |        9938 |
|     219 | 0x26D3      |        9939 |
|     220 | 0x26D4      |        9940 |
|     221 | 0x26D5      |        9941 |
|     222 | 0x02DC      |         732 |
|     223 | 0x26D6      |        9942 |
|     224 | 0x26D7      |        9943 |
|     225 | 0x26D8      |        9944 |
|     226 | 0x26D9      |        9945 |
|     227 | 0x26DA      |        9946 |
|     228 | 0x26DB      |        9947 |
|     229 | 0x26DC      |        9948 |
|     230 | 0x26DD      |        9949 |
|     231 | 0x26DE      |        9950 |
|     232 | 0x26E1      |        9953 |
|     233 | 0x26E2      |        9954 |
|     234 | 0x26E3      |        9955 |
|     235 | 0x26E4      |        9956 |
|     236 | 0x26E5      |        9957 |
|     237 | 0x26DF      |        9951 |
|     238 | 0x26E0      |        9952 |
|     239 | 0x26E6      |        9958 |
|     240 | 0x26E7      |        9959 |
|     241 | 0x26E8      |        9960 |
|     242 | 0x0020      |          32 |
|     243 | 0x26E9      |        9961 |
|     244 | 0x26EA      |        9962 |
|     245 | 0x26EB      |        9963 |
|     246 | 0x26EC      |        9964 |
|     247 | 0x26EF      |        9967 |
|     248 | 0x26F0      |        9968 |
|     249 | 0x26F1      |        9969 |
|     250 | 0x26F2      |        9970 |
|     251 | 0x26F3      |        9971 |
|     252 | 0x26ED      |        9965 |
|     253 | 0x26EE      |        9966 |
|     254 | 0x26F4      |        9972 |
|     255 | 0x26F5      |        9973 |
|     256 | 0x26F6      |        9974 |
|     257 | 0x26F7      |        9975 |
|     258 | 0x26F8      |        9976 |
|     259 | 0x26F9      |        9977 |
|     260 | 0x26FA      |        9978 |
|     261 | 0x26FB      |        9979 |
|     262 | 0x26FC      |        9980 |
|     263 | 0x26FD      |        9981 |
|     264 | 0x26FE      |        9982 |
|     265 | 0x26FF      |        9983 |
|     266 | 0x2700      |        9984 |
|     267 | 0x2701      |        9985 |
|     268 | 0x2702      |        9986 |
|     269 | 0x2703      |        9987 |
|     270 | 0x2704      |        9988 |
|     271 | 0x2705      |        9989 |
|     272 | 0x2706      |        9990 |
|     273 | 0x2707      |        9991 |
|     274 | 0x2708      |        9992 |
|     275 | 0x2709      |        9993 |
|     276 | 0x270A      |        9994 |
|     277 | 0x270D      |        9997 |
|     278 | 0x270E      |        9998 |
|     279 | 0x270F      |        9999 |
|     280 | 0x2710      |       10000 |
|     281 | 0x2711      |       10001 |
|     282 | 0x270B      |        9995 |
|     283 | 0x270C      |        9996 |
|     284 | 0x2712      |       10002 |
|     285 | 0x2713      |       10003 |
|     286 | 0x2714      |       10004 |
|     287 | 0x2715      |       10005 |
|     288 | 0x2716      |       10006 |
|     289 | 0x2717      |       10007 |
|     290 | 0x2718      |       10008 |
|     291 | 0x2719      |       10009 |
|     292 | 0x271A      |       10010 |
|     293 | 0x271D      |       10013 |
|     294 | 0x271E      |       10014 |
|     295 | 0x271F      |       10015 |
|     296 | 0x2720      |       10016 |
|     297 | 0x2721      |       10017 |
|     298 | 0x271B      |       10011 |
|     299 | 0x271C      |       10012 |
|     300 | 0x2722      |       10018 |
|     301 | 0x2723      |       10019 |
|     302 | 0x2724      |       10020 |
|     303 | 0x2725      |       10021 |
|     304 | 0x2726      |       10022 |
|     305 | 0x2727      |       10023 |
|     306 | 0x2728      |       10024 |
|     307 | 0x2729      |       10025 |
|     308 | 0x272C      |       10028 |
|     309 | 0x272D      |       10029 |
|     310 | 0x272E      |       10030 |
|     311 | 0x272F      |       10031 |
|     312 | 0x2730      |       10032 |
|     313 | 0x272A      |       10026 |
|     314 | 0x272B      |       10027 |
|     315 | 0x2731      |       10033 |
|     316 | 0x2732      |       10034 |
|     317 | 0x2733      |       10035 |
|     318 | 0x2734      |       10036 |
|     319 | 0x2735      |       10037 |
|     320 | 0x2736      |       10038 |
|     321 | 0x2737      |       10039 |
|     322 | 0x2738      |       10040 |
|     323 | 0x2739      |       10041 |
|     324 | 0x273A      |       10042 |
|     325 | 0x273B      |       10043 |
|     326 | 0x273C      |       10044 |
|     327 | 0x273D      |       10045 |
|     328 | 0x273E      |       10046 |
|     329 | 0x273F      |       10047 |
|     330 | 0x2740      |       10048 |
|     331 | 0x2741      |       10049 |
|     332 | 0x00B4      |         180 |
|     333 | 0x2742      |       10050 |
|     334 | 0x2743      |       10051 |
|     335 | 0x00C8      |         200 |
|     336 | 0x2744      |       10052 |
|     337 | 0x2745      |       10053 |
|     338 | 0x2746      |       10054 |
|     339 | 0x2747      |       10055 |
|     340 | 0x2748      |       10056 |
|     341 | 0x2749      |       10057 |
|     342 | 0x274C      |       10060 |
|     343 | 0x274D      |       10061 |
|     344 | 0x274E      |       10062 |
|     345 | 0x274F      |       10063 |
|     346 | 0x2750      |       10064 |
|     347 | 0x274A      |       10058 |
|     348 | 0x274B      |       10059 |
|     349 | 0x2751      |       10065 |
|     350 | 0x2752      |       10066 |
|     351 | 0x2753      |       10067 |
|     352 | 0x2754      |       10068 |
|     353 | 0x2755      |       10069 |
|     354 | 0x2756      |       10070 |
|     355 | 0x2757      |       10071 |
|     356 | 0x2758      |       10072 |
|     357 | 0x2759      |       10073 |
|     358 | 0x275A      |       10074 |
|     359 | 0x275B      |       10075 |
|     360 | 0x275C      |       10076 |
|     361 | 0x275D      |       10077 |
|     362 | 0x275E      |       10078 |
|     363 | 0x275F      |       10079 |
|     364 | 0x2760      |       10080 |
|     365 | 0x2761      |       10081 |
|     366 | 0x2762      |       10082 |
|     367 | 0x2763      |       10083 |
|     368 | 0x2764      |       10084 |
|     369 | 0x2765      |       10085 |
|     370 | 0x2768      |       10088 |
|     371 | 0x2769      |       10089 |
|     372 | 0x276A      |       10090 |
|     373 | 0x276B      |       10091 |
|     374 | 0x276C      |       10092 |
|     375 | 0x2766      |       10086 |
|     376 | 0x2767      |       10087 |
|     377 | 0x276D      |       10093 |
|     378 | 0x276E      |       10094 |
|     379 | 0x276F      |       10095 |
|     380 | 0x2770      |       10096 |
|     381 | 0x2771      |       10097 |
|     382 | 0x2772      |       10098 |
|     383 | 0x2773      |       10099 |
|     384 | 0x2774      |       10100 |
|     385 | 0x2775      |       10101 |
|     386 | 0x2776      |       10102 |
|     387 | 0x2777      |       10103 |
|     388 | 0x2778      |       10104 |
|     389 | 0x0050      |          80 |
|     390 | 0x2779      |       10105 |
|     391 | 0x277A      |       10106 |
|     392 | 0x277B      |       10107 |
|     393 | 0x277C      |       10108 |
|     394 | 0x277D      |       10109 |
|     395 | 0x277E      |       10110 |
|     396 | 0x277F      |       10111 |
|     397 | 0x2780      |       10112 |
|     398 | 0x2781      |       10113 |
|     399 | 0x2782      |       10114 |
|     400 | 0x2783      |       10115 |
|     401 | 0x2784      |       10116 |
|     402 | 0x2785      |       10117 |
|     403 | 0x2786      |       10118 |
|     404 | 0x2787      |       10119 |
|     405 | 0x2788      |       10120 |
|     406 | 0x278B      |       10123 |
|     407 | 0x278C      |       10124 |
|     408 | 0x278D      |       10125 |
|     409 | 0x278E      |       10126 |
|     410 | 0x278F      |       10127 |
|     411 | 0x2789      |       10121 |
|     412 | 0x278A      |       10122 |
|     413 | 0x2790      |       10128 |
|     414 | 0x2791      |       10129 |
|     415 | 0x2792      |       10130 |
|     416 | 0x2793      |       10131 |
|     417 | 0x2794      |       10132 |
|     418 | 0x2795      |       10133 |
|     419 | 0x2796      |       10134 |
|     420 | 0x2797      |       10135 |
|     421 | 0x00B6      |         182 |
|     422 | 0x279D      |       10141 |
|     423 | 0x279E      |       10142 |
|     424 | 0x002D      |          45 |
|     425 | 0x279F      |       10143 |
|     426 | 0x0044      |          68 |
|     427 | 0x27A0      |       10144 |
|     428 | 0x27A1      |       10145 |
|     429 | 0x27A2      |       10146 |
|     430 | 0x27A3      |       10147 |
|     431 | 0x27A4      |       10148 |
|     432 | 0x27A5      |       10149 |
|     433 | 0x27A6      |       10150 |
|     434 | 0x27A7      |       10151 |
|     435 | 0x27A8      |       10152 |
|     436 | 0x27A9      |       10153 |
|     437 | 0x27AA      |       10154 |
|     438 | 0x27AB      |       10155 |
|     439 | 0x27AE      |       10158 |
|     440 | 0x27AF      |       10159 |
|     441 | 0x27B0      |       10160 |
|     442 | 0x27B1      |       10161 |
|     443 | 0x27B2      |       10162 |
|     444 | 0x27AC      |       10156 |
|     445 | 0x27AD      |       10157 |
|     446 | 0x27B3      |       10163 |
|     447 | 0x27B4      |       10164 |
|     448 | 0x27B5      |       10165 |
|     449 | 0x27B6      |       10166 |
|     450 | 0x27B7      |       10167 |
|     451 | 0x27BA      |       10170 |
|     452 | 0x27BB      |       10171 |
|     453 | 0x27BC      |       10172 |
|     454 | 0x27BD      |       10173 |
|     455 | 0x27BE      |       10174 |
|     456 | 0x27B8      |       10168 |
|     457 | 0x27B9      |       10169 |
|     458 | 0x27BF      |       10175 |
|     459 | 0x0039      |          57 |
|     460 | 0x27C0      |       10176 |
|     461 | 0x27C1      |       10177 |
|     462 | 0x01BE      |         446 |
|     463 | 0x27C2      |       10178 |
|     464 | 0x27C3      |       10179 |
|     465 | 0x27C4      |       10180 |
|     466 | 0x27C5      |       10181 |
|     467 | 0x27C6      |       10182 |
|     468 | 0x27C7      |       10183 |
|     469 | 0x27C8      |       10184 |
|     470 | 0x27C9      |       10185 |
|     471 | 0x27E3      |       10211 |
|     472 | 0x27E4      |       10212 |
|     473 | 0x27E5      |       10213 |
|     474 | 0x27E6      |       10214 |
|     475 | 0x27E7      |       10215 |
|     476 | 0x27E8      |       10216 |
|     477 | 0x27EB      |       10219 |
|     478 | 0x27EC      |       10220 |
|     479 | 0x27ED      |       10221 |
|     480 | 0x27EE      |       10222 |
|     481 | 0x27EF      |       10223 |
|     482 | 0x27E9      |       10217 |
|     483 | 0x27EA      |       10218 |
|     484 | 0x27F0      |       10224 |
|     485 | 0x27F1      |       10225 |
|     486 | 0x27F2      |       10226 |
|     487 | 0x27F3      |       10227 |
|     488 | 0x27F4      |       10228 |
|     489 | 0x27F7      |       10231 |
|     490 | 0x27F8      |       10232 |
|     491 | 0x27F9      |       10233 |
|     492 | 0x27FA      |       10234 |
|     493 | 0x27FB      |       10235 |
|     494 | 0x27F5      |       10229 |
|     495 | 0x27F6      |       10230 |
|     496 | 0x27FC      |       10236 |
|     497 | 0x27FD      |       10237 |
|     498 | 0x27FE      |       10238 |
|     499 | 0x27FF      |       10239 |
|     500 | 0x2800      |       10240 |
|     501 | 0x2801      |       10241 |
|     502 | 0x2802      |       10242 |
|     503 | 0x2805      |       10245 |
|     504 | 0x2806      |       10246 |
|     505 | 0x2807      |       10247 |
|     506 | 0x2808      |       10248 |
|     507 | 0x2809      |       10249 |
|     508 | 0x2803      |       10243 |
|     509 | 0x2804      |       10244 |
|     510 | 0x280A      |       10250 |
|     511 | 0x280B      |       10251 |
|     512 | 0x280C      |       10252 |
|     513 | 0x0096      |         150 |
|     514 | 0x280D      |       10253 |
|     515 | 0x280E      |       10254 |
|     516 | 0x280F      |       10255 |
|     517 | 0x2810      |       10256 |
|     518 | 0x2811      |       10257 |
|     519 | 0x2812      |       10258 |
|     520 | 0x2813      |       10259 |
|     521 | 0x2814      |       10260 |
|     522 | 0x2815      |       10261 |
|     523 | 0x2818      |       10264 |
|     524 | 0x2819      |       10265 |
|     525 | 0x281A      |       10266 |
|     526 | 0x281B      |       10267 |
|     527 | 0x281C      |       10268 |
|     528 | 0x2816      |       10262 |
|     529 | 0x2817      |       10263 |
|     530 | 0x281D      |       10269 |
|     531 | 0x281E      |       10270 |
|     532 | 0x281F      |       10271 |
|     533 | 0x2820      |       10272 |
|     534 | 0x2821      |       10273 |
|     535 | 0x2824      |       10276 |
|     536 | 0x2825      |       10277 |
|     537 | 0x2826      |       10278 |
|     538 | 0x2827      |       10279 |
|     539 | 0x2828      |       10280 |
|     540 | 0x2822      |       10274 |
|     541 | 0x2823      |       10275 |
|     542 | 0x2829      |       10281 |
|     543 | 0x00C9      |         201 |
|     544 | 0x2A7A      |       10874 |
|     545 | 0x282A      |       10282 |
|     546 | 0x282B      |       10283 |
|     547 | 0x282C      |       10284 |
|     548 | 0x282D      |       10285 |
|     549 | 0x282E      |       10286 |
|     550 | 0x282F      |       10287 |
|     551 | 0x2830      |       10288 |
|     552 | 0x2833      |       10291 |
|     553 | 0x2834      |       10292 |
|     554 | 0x2835      |       10293 |
|     555 | 0x2836      |       10294 |
|     556 | 0x2837      |       10295 |
|     557 | 0x2831      |       10289 |
|     558 | 0x2832      |       10290 |
|     559 | 0x2838      |       10296 |
|     560 | 0x2839      |       10297 |
|     561 | 0x283A      |       10298 |
|     562 | 0x283B      |       10299 |
|     563 | 0x283C      |       10300 |
|     564 | 0x283F      |       10303 |
|     565 | 0x2840      |       10304 |
|     566 | 0x2841      |       10305 |
|     567 | 0x2842      |       10306 |
|     568 | 0x2843      |       10307 |
|     569 | 0x283D      |       10301 |
|     570 | 0x283E      |       10302 |
|     571 | 0x2844      |       10308 |
|     572 | 0x2845      |       10309 |
|     573 | 0x2846      |       10310 |
|     574 | 0x2847      |       10311 |
|     575 | 0x2848      |       10312 |
|     576 | 0x284B      |       10315 |
|     577 | 0x284C      |       10316 |
|     578 | 0x284D      |       10317 |
|     579 | 0x284E      |       10318 |
|     580 | 0x284F      |       10319 |
|     581 | 0x2849      |       10313 |
|     582 | 0x284A      |       10314 |
|     583 | 0x2850      |       10320 |
|     584 | 0x00CE      |         206 |
|     585 | 0x0053      |          83 |
|     586 | 0x007F      |         127 |
|     587 | 0x0258      |         600 |
|     588 | 0x0168      |         360 |
|     589 | 0x00F0      |         240 |
|     590 | 0x2851      |       10321 |
|     591 | 0x2852      |       10322 |
|     592 | 0x00AF      |         175 |
|     593 | 0x012C      |         300 |
|     594 | 0x2853      |       10323 |
|     595 | 0x2854      |       10324 |
|     596 | 0x00F4      |         244 |
|     597 | 0x2855      |       10325 |
|     598 | 0x2856      |       10326 |
|     599 | 0x2857      |       10327 |
|     600 | 0x2858      |       10328 |
|     601 | 0x2859      |       10329 |
|     602 | 0x285A      |       10330 |
|     603 | 0x285B      |       10331 |
|     604 | 0x285C      |       10332 |
|     605 | 0x285D      |       10333 |
|     606 | 0x285E      |       10334 |
|     607 | 0x285F      |       10335 |
|     608 | 0x2860      |       10336 |
|     609 | 0x2861      |       10337 |
|     610 | 0x2864      |       10340 |
|     611 | 0x2865      |       10341 |
|     612 | 0x2866      |       10342 |
|     613 | 0x2867      |       10343 |
|     614 | 0x2868      |       10344 |
|     615 | 0x2862      |       10338 |
|     616 | 0x2863      |       10339 |
|     617 | 0x2869      |       10345 |
|     618 | 0x286A      |       10346 |
|     619 | 0x286B      |       10347 |
|     620 | 0x286C      |       10348 |
|     621 | 0x286D      |       10349 |
|     622 | 0x2870      |       10352 |
|     623 | 0x2871      |       10353 |
|     624 | 0x2872      |       10354 |
|     625 | 0x2873      |       10355 |
|     626 | 0x2874      |       10356 |
|     627 | 0x286E      |       10350 |
|     628 | 0x286F      |       10351 |
|     629 | 0x2875      |       10357 |
|     630 | 0x2876      |       10358 |
|     631 | 0x2877      |       10359 |
|     632 | 0x2878      |       10360 |
|     633 | 0x2879      |       10361 |
|     634 | 0x287A      |       10362 |
|     635 | 0x287B      |       10363 |
|     636 | 0x287C      |       10364 |
|     637 | 0x287D      |       10365 |
|     638 | 0x287E      |       10366 |
|     639 | 0x287F      |       10367 |
|     640 | 0x006E      |         110 |
|     641 | 0x2880      |       10368 |
|     642 | 0x2881      |       10369 |
|     643 | 0x2882      |       10370 |
|     644 | 0x2883      |       10371 |
|     645 | 0x2884      |       10372 |
|     646 | 0x2885      |       10373 |
|     647 | 0x2886      |       10374 |
|     648 | 0x2887      |       10375 |
|     649 | 0x2888      |       10376 |
|     650 | 0x2889      |       10377 |
|     651 | 0x288A      |       10378 |
|     652 | 0x288B      |       10379 |
|     653 | 0x288C      |       10380 |
|     654 | 0x288D      |       10381 |
|     655 | 0x288E      |       10382 |
|     656 | 0x288F      |       10383 |
|     657 | 0x2890      |       10384 |
|     658 | 0x2891      |       10385 |
|     659 | 0x2892      |       10386 |
|     660 | 0x2893      |       10387 |
|     661 | 0x2894      |       10388 |
|     662 | 0x2895      |       10389 |
|     663 | 0x2896      |       10390 |
|     664 | 0x2897      |       10391 |
|     665 | 0x2898      |       10392 |
|     666 | 0x2899      |       10393 |
|     667 | 0x289A      |       10394 |
|     668 | 0x289B      |       10395 |
|     669 | 0x289C      |       10396 |
|     670 | 0x289D      |       10397 |
|     671 | 0x289E      |       10398 |
|     672 | 0x289F      |       10399 |
|     673 | 0x28A0      |       10400 |
|     674 | 0x28A1      |       10401 |
|     675 | 0x00F5      |         245 |
|     676 | 0x01C7      |         455 |
|     677 | 0x28A2      |       10402 |
|     678 | 0x28A3      |       10403 |
|     679 | 0x28A4      |       10404 |
|     680 | 0x28A5      |       10405 |
|     681 | 0x28A8      |       10408 |
|     682 | 0x28A9      |       10409 |
|     683 | 0x28AA      |       10410 |
|     684 | 0x28AB      |       10411 |
|     685 | 0x28AC      |       10412 |
|     686 | 0x28A6      |       10406 |
|     687 | 0x28A7      |       10407 |
|     688 | 0x28AD      |       10413 |
|     689 | 0x28AE      |       10414 |
|     690 | 0x28AF      |       10415 |
|     691 | 0x28B0      |       10416 |
|     692 | 0x28B1      |       10417 |
|     693 | 0x28B4      |       10420 |
|     694 | 0x28B5      |       10421 |
|     695 | 0x28B6      |       10422 |
|     696 | 0x28B7      |       10423 |
|     697 | 0x28B8      |       10424 |
|     698 | 0x28B2      |       10418 |
|     699 | 0x28B3      |       10419 |
|     700 | 0x28B9      |       10425 |
|     701 | 0x28BA      |       10426 |
|     702 | 0x28BB      |       10427 |
|     703 | 0x28BC      |       10428 |
|     704 | 0x28BD      |       10429 |
|     705 | 0x28BE      |       10430 |
|     706 | 0x28BF      |       10431 |
|     707 | 0x28C0      |       10432 |
|     708 | 0x28C1      |       10433 |
|     709 | 0x28C2      |       10434 |
|     710 | 0x00B7      |         183 |
|     711 | 0x28E1      |       10465 |
|     712 | 0x28E2      |       10466 |
|     713 | 0x28E3      |       10467 |
|     714 | 0x28E4      |       10468 |
|     715 | 0x28E5      |       10469 |
|     716 | 0x39DA      |       14810 |
|     717 | 0x28E6      |       10470 |
|     718 | 0x28E7      |       10471 |
|     719 | 0x28E8      |       10472 |
|     720 | 0x28E9      |       10473 |
|     721 | 0x28EA      |       10474 |
|     722 | 0x28EB      |       10475 |
|     723 | 0x28EC      |       10476 |
|     724 | 0x28ED      |       10477 |
|     725 | 0x0055      |          85 |
|     726 | 0x28EE      |       10478 |
|     727 | 0x28EF      |       10479 |
|     728 | 0x28F7      |       10487 |
|     729 | 0x28F0      |       10480 |
|     730 | 0x28F8      |       10488 |
|     731 | 0x28F1      |       10481 |
|     732 | 0x28F9      |       10489 |
|     733 | 0x28F2      |       10482 |
|     734 | 0x28FA      |       10490 |
|     735 | 0x28F3      |       10483 |
|     736 | 0x28FB      |       10491 |
|     737 | 0x28F4      |       10484 |
|     738 | 0x28FC      |       10492 |
|     739 | 0x28F5      |       10485 |
|     740 | 0x28FD      |       10493 |
|     741 | 0x28F6      |       10486 |
|     742 | 0x28FE      |       10494 |
|     743 | 0x28FF      |       10495 |
|     744 | 0x2900      |       10496 |
|     745 | 0x2901      |       10497 |
|     746 | 0x2902      |       10498 |
|     747 | 0x2903      |       10499 |
|     748 | 0x2906      |       10502 |
|     749 | 0x2907      |       10503 |
|     750 | 0x2908      |       10504 |
|     751 | 0x2909      |       10505 |
|     752 | 0x290A      |       10506 |
|     753 | 0x2904      |       10500 |
|     754 | 0x2905      |       10501 |
|     755 | 0x290B      |       10507 |
|     756 | 0x290C      |       10508 |
|     757 | 0x290D      |       10509 |
|     758 | 0x290E      |       10510 |
|     759 | 0x290F      |       10511 |
|     760 | 0x2910      |       10512 |
|     761 | 0x2913      |       10515 |
|     762 | 0x2914      |       10516 |
|     763 | 0x2915      |       10517 |
|     764 | 0x2916      |       10518 |
|     765 | 0x2917      |       10519 |
|     766 | 0x2911      |       10513 |
|     767 | 0x2912      |       10514 |
|     768 | 0x2918      |       10520 |
|     769 | 0x2919      |       10521 |
|     770 | 0x291A      |       10522 |
|     771 | 0x291B      |       10523 |
|     772 | 0x291C      |       10524 |
|     773 | 0x291D      |       10525 |
|     774 | 0x2920      |       10528 |
|     775 | 0x2921      |       10529 |
|     776 | 0x2922      |       10530 |
|     777 | 0x2923      |       10531 |
|     778 | 0x2924      |       10532 |
|     779 | 0x291E      |       10526 |
|     780 | 0x291F      |       10527 |
|     781 | 0x2925      |       10533 |
|     782 | 0x2926      |       10534 |
|     783 | 0x2927      |       10535 |
|     784 | 0x2928      |       10536 |
|     785 | 0x2929      |       10537 |
|     786 | 0x292A      |       10538 |
|     787 | 0x292B      |       10539 |
|     788 | 0x292C      |       10540 |
|     789 | 0x292D      |       10541 |
|     790 | 0x292E      |       10542 |
|     791 | 0x292F      |       10543 |
|     792 | 0x2930      |       10544 |
|     793 | 0x2931      |       10545 |
|     794 | 0x2932      |       10546 |
|     795 | 0x2935      |       10549 |
|     796 | 0x2936      |       10550 |
|     797 | 0x2937      |       10551 |
|     798 | 0x2938      |       10552 |
|     799 | 0x2939      |       10553 |
|     800 | 0x2933      |       10547 |
|     801 | 0x2934      |       10548 |
|     802 | 0x293A      |       10554 |
|     803 | 0x293B      |       10555 |
|     804 | 0x293C      |       10556 |
|     805 | 0x2948      |       10568 |
|     806 | 0x293D      |       10557 |
|     807 | 0x2949      |       10569 |
|     808 | 0x293E      |       10558 |
|     809 | 0x294A      |       10570 |
|     810 | 0x293F      |       10559 |
|     811 | 0x294B      |       10571 |
|     812 | 0x2942      |       10562 |
|     813 | 0x294E      |       10574 |
|     814 | 0x2943      |       10563 |
|     815 | 0x294F      |       10575 |
|     816 | 0x2944      |       10564 |
|     817 | 0x2950      |       10576 |
|     818 | 0x2945      |       10565 |
|     819 | 0x2951      |       10577 |
|     820 | 0x2946      |       10566 |
|     821 | 0x2952      |       10578 |
|     822 | 0x2940      |       10560 |
|     823 | 0x294C      |       10572 |
|     824 | 0x2941      |       10561 |
|     825 | 0x294D      |       10573 |
|     826 | 0x2947      |       10567 |
|     827 | 0x2953      |       10579 |
|     828 | 0x2954      |       10580 |
|     829 | 0x2955      |       10581 |
|     830 | 0x2956      |       10582 |
|     831 | 0x2957      |       10583 |
|     832 | 0x2958      |       10584 |
|     833 | 0x295B      |       10587 |
|     834 | 0x295C      |       10588 |
|     835 | 0x295D      |       10589 |
|     836 | 0x295E      |       10590 |
|     837 | 0x295F      |       10591 |
|     838 | 0x2959      |       10585 |
|     839 | 0x295A      |       10586 |
|     840 | 0x2960      |       10592 |
|     841 | 0x2961      |       10593 |
|     842 | 0x2962      |       10594 |
|     843 | 0x001A      |          26 |
|     844 | 0x296E      |       10606 |
|     845 | 0x2963      |       10595 |
|     846 | 0x296F      |       10607 |
|     847 | 0x2964      |       10596 |
|     848 | 0x2970      |       10608 |
|     849 | 0x2965      |       10597 |
|     850 | 0x2971      |       10609 |
|     851 | 0x2968      |       10600 |
|     852 | 0x2974      |       10612 |
|     853 | 0x2969      |       10601 |
|     854 | 0x2975      |       10613 |
|     855 | 0x296A      |       10602 |
|     856 | 0x2976      |       10614 |
|     857 | 0x296B      |       10603 |
|     858 | 0x2977      |       10615 |
|     859 | 0x296C      |       10604 |
|     860 | 0x2978      |       10616 |
|     861 | 0x2966      |       10598 |
|     862 | 0x2972      |       10610 |
|     863 | 0x2967      |       10599 |
|     864 | 0x2973      |       10611 |
|     865 | 0x296D      |       10605 |
|     866 | 0x2979      |       10617 |
|     867 | 0x297A      |       10618 |
|     868 | 0x297B      |       10619 |
|     869 | 0x297C      |       10620 |
|     870 | 0x297D      |       10621 |
|     871 | 0x297E      |       10622 |
|     872 | 0x297F      |       10623 |
|     873 | 0x2980      |       10624 |
|     874 | 0x2981      |       10625 |
|     875 | 0x2982      |       10626 |
|     876 | 0x2983      |       10627 |
|     877 | 0x2984      |       10628 |
|     878 | 0x2985      |       10629 |
|     879 | 0x2986      |       10630 |
|     880 | 0x2987      |       10631 |
|     881 | 0x2988      |       10632 |
|     882 | 0x2989      |       10633 |
|     883 | 0x298A      |       10634 |
|     884 | 0x298B      |       10635 |
|     885 | 0x298C      |       10636 |
|     886 | 0x298D      |       10637 |
|     887 | 0x298E      |       10638 |
|     888 | 0x298F      |       10639 |
|     889 | 0x2990      |       10640 |
|     890 | 0x2991      |       10641 |
|     891 | 0x2992      |       10642 |
|     892 | 0x2993      |       10643 |
|     893 | 0x2994      |       10644 |
|     894 | 0x2995      |       10645 |
|     895 | 0x2996      |       10646 |
|     896 | 0x2997      |       10647 |
|     897 | 0x2998      |       10648 |
|     898 | 0x2999      |       10649 |
|     899 | 0x299A      |       10650 |
|     900 | 0x299B      |       10651 |
|     901 | 0x299C      |       10652 |
|     902 | 0x29A4      |       10660 |
|     903 | 0x29AC      |       10668 |
|     904 | 0x29B4      |       10676 |
|     905 | 0x299D      |       10653 |
|     906 | 0x29A5      |       10661 |
|     907 | 0x29AD      |       10669 |
|     908 | 0x29B5      |       10677 |
|     909 | 0x299E      |       10654 |
|     910 | 0x29A6      |       10662 |
|     911 | 0x29AE      |       10670 |
|     912 | 0x29B6      |       10678 |
|     913 | 0x299F      |       10655 |
|     914 | 0x29A7      |       10663 |
|     915 | 0x29AF      |       10671 |
|     916 | 0x29B7      |       10679 |
|     917 | 0x29A0      |       10656 |
|     918 | 0x29A8      |       10664 |
|     919 | 0x29B0      |       10672 |
|     920 | 0x29B8      |       10680 |
|     921 | 0x29A1      |       10657 |
|     922 | 0x29A9      |       10665 |
|     923 | 0x29B1      |       10673 |
|     924 | 0x29B9      |       10681 |
|     925 | 0x29A2      |       10658 |
|     926 | 0x29AA      |       10666 |
|     927 | 0x29B2      |       10674 |
|     928 | 0x29BA      |       10682 |
|     929 | 0x29A3      |       10659 |
|     930 | 0x29AB      |       10667 |
|     931 | 0x29B3      |       10675 |
|     932 | 0x29BB      |       10683 |
|     933 | 0x29BC      |       10684 |
|     934 | 0x29BD      |       10685 |
|     935 | 0x29BE      |       10686 |
|     936 | 0x29BF      |       10687 |
|     937 | 0x29C0      |       10688 |
|     938 | 0x29C1      |       10689 |
|     939 | 0x29C2      |       10690 |
|     940 | 0x29C3      |       10691 |
|     941 | 0x29C4      |       10692 |
|     942 | 0x29C5      |       10693 |
|     943 | 0x29C6      |       10694 |
|     944 | 0x29C7      |       10695 |
|     945 | 0x29C8      |       10696 |
|     946 | 0x29C9      |       10697 |
|     947 | 0x29CC      |       10700 |
|     948 | 0x29CD      |       10701 |
|     949 | 0x29CE      |       10702 |
|     950 | 0x29CF      |       10703 |
|     951 | 0x29D0      |       10704 |
|     952 | 0x29CA      |       10698 |
|     953 | 0x29CB      |       10699 |
|     954 | 0x29D1      |       10705 |
|     955 | 0x29D2      |       10706 |
|     956 | 0x29D3      |       10707 |
|     957 | 0x29D4      |       10708 |
|     958 | 0x29D5      |       10709 |
|     959 | 0x29D6      |       10710 |
|     960 | 0x29D7      |       10711 |
|     961 | 0x29DA      |       10714 |
|     962 | 0x29DB      |       10715 |
|     963 | 0x29DC      |       10716 |
|     964 | 0x29DD      |       10717 |
|     965 | 0x29DE      |       10718 |
|     966 | 0x29D8      |       10712 |
|     967 | 0x29D9      |       10713 |
|     968 | 0x29DF      |       10719 |
|     969 | 0x00C3      |         195 |
|     970 | 0x29E0      |       10720 |
|     971 | 0x00BE      |         190 |
|     972 | 0x29E1      |       10721 |
|     973 | 0x00C1      |         193 |
|     974 | 0x29E2      |       10722 |
|     975 | 0x29E3      |       10723 |
|     976 | 0x29E6      |       10726 |
|     977 | 0x29E7      |       10727 |
|     978 | 0x29E8      |       10728 |
|     979 | 0x29E9      |       10729 |
|     980 | 0x00BD      |         189 |
|     981 | 0x29EA      |       10730 |
|     982 | 0x29E4      |       10724 |
|     983 | 0x29E5      |       10725 |
|     984 | 0x29EB      |       10731 |
|     985 | 0x29EC      |       10732 |
|     986 | 0x29ED      |       10733 |
|     987 | 0x29EE      |       10734 |
|     988 | 0x29EF      |       10735 |
|     989 | 0x29F0      |       10736 |
|     990 | 0x29F3      |       10739 |
|     991 | 0x29F4      |       10740 |
|     992 | 0x29F5      |       10741 |
|     993 | 0x29F6      |       10742 |
|     994 | 0x29F7      |       10743 |
|     995 | 0x29F1      |       10737 |
|     996 | 0x29F2      |       10738 |
|     997 | 0x29F8      |       10744 |
|     998 | 0x29F9      |       10745 |
|     999 | 0x29FA      |       10746 |
|    1000 | 0x29FB      |       10747 |
|    1001 | 0x29FC      |       10748 |
|    1002 | 0x29FD      |       10749 |
|    1003 | 0x29FE      |       10750 |
|    1004 | 0x29FF      |       10751 |
|    1005 | 0x2A00      |       10752 |
|    1006 | 0x2A01      |       10753 |
|    1007 | 0x2A02      |       10754 |
|    1008 | 0x2A03      |       10755 |
|    1009 | 0x2A04      |       10756 |
|    1010 | 0x2A05      |       10757 |
|    1011 | 0x2A06      |       10758 |
|    1012 | 0x2A09      |       10761 |
|    1013 | 0x2A0A      |       10762 |
|    1014 | 0x2A0B      |       10763 |
|    1015 | 0x2A0C      |       10764 |
|    1016 | 0x2A0D      |       10765 |
|    1017 | 0x2A07      |       10759 |
|    1018 | 0x2A08      |       10760 |
|    1019 | 0x2A0E      |       10766 |
|    1020 | 0x2A0F      |       10767 |
|    1021 | 0x2A10      |       10768 |
|    1022 | 0x2A11      |       10769 |
|    1023 | 0x2A12      |       10770 |
|    1024 | 0x2A15      |       10773 |
|    1025 | 0x2A16      |       10774 |
|    1026 | 0x2A17      |       10775 |
|    1027 | 0x2A18      |       10776 |
|    1028 | 0x2A19      |       10777 |
|    1029 | 0x2A13      |       10771 |
|    1030 | 0x2A14      |       10772 |
|    1031 | 0x2A1A      |       10778 |
|    1032 | 0x2A1B      |       10779 |
|    1033 | 0x2A1C      |       10780 |
|    1034 | 0x2A1D      |       10781 |
|    1035 | 0x2A1E      |       10782 |
|    1036 | 0x2A1F      |       10783 |
|    1037 | 0x2A20      |       10784 |
|    1038 | 0x2A21      |       10785 |
|    1039 | 0x2A22      |       10786 |
|    1040 | 0x2A23      |       10787 |
|    1041 | 0x2A24      |       10788 |
|    1042 | 0x2A25      |       10789 |
|    1043 | 0x2A26      |       10790 |
|    1044 | 0x2A27      |       10791 |
|    1045 | 0x2A2A      |       10794 |
|    1046 | 0x2A2B      |       10795 |
|    1047 | 0x2A2C      |       10796 |
|    1048 | 0x2A2D      |       10797 |
|    1049 | 0x2A2E      |       10798 |
|    1050 | 0x2A28      |       10792 |
|    1051 | 0x2A29      |       10793 |
|    1052 | 0x2A2F      |       10799 |
|    1053 | 0x2A30      |       10800 |
|    1054 | 0x2A31      |       10801 |
|    1055 | 0x2A32      |       10802 |
|    1056 | 0x2A33      |       10803 |
|    1057 | 0x2A3F      |       10815 |
|    1058 | 0x2A34      |       10804 |
|    1059 | 0x2A40      |       10816 |
|    1060 | 0x2A35      |       10805 |
|    1061 | 0x2A41      |       10817 |
|    1062 | 0x2A36      |       10806 |
|    1063 | 0x2A42      |       10818 |
|    1064 | 0x2A39      |       10809 |
|    1065 | 0x2A45      |       10821 |
|    1066 | 0x2A3A      |       10810 |
|    1067 | 0x2A46      |       10822 |
|    1068 | 0x2A3B      |       10811 |
|    1069 | 0x2A47      |       10823 |
|    1070 | 0x2A3C      |       10812 |
|    1071 | 0x2A48      |       10824 |
|    1072 | 0x2A3D      |       10813 |
|    1073 | 0x2A49      |       10825 |
|    1074 | 0x2A37      |       10807 |
|    1075 | 0x2A43      |       10819 |
|    1076 | 0x2A38      |       10808 |
|    1077 | 0x2A44      |       10820 |
|    1078 | 0x2A3E      |       10814 |
|    1079 | 0x2A4A      |       10826 |
|    1080 | 0x2A4B      |       10827 |
|    1081 | 0x2A4C      |       10828 |
|    1082 | 0x2A4D      |       10829 |
|    1083 | 0x2A4E      |       10830 |
|    1084 | 0x2A4F      |       10831 |
|    1085 | 0x2A52      |       10834 |
|    1086 | 0x2A53      |       10835 |
|    1087 | 0x2A54      |       10836 |
|    1088 | 0x2A55      |       10837 |
|    1089 | 0x2A56      |       10838 |
|    1090 | 0x2A50      |       10832 |
|    1091 | 0x2A51      |       10833 |
|    1092 | 0x2A57      |       10839 |
|    1093 | 0x2A58      |       10840 |
|    1094 | 0x2A59      |       10841 |
|    1095 | 0x2A5A      |       10842 |
|    1096 | 0x2A5B      |       10843 |
|    1097 | 0x2A5E      |       10846 |
|    1098 | 0x2A5F      |       10847 |
|    1099 | 0x2A60      |       10848 |
|    1100 | 0x2A61      |       10849 |
|    1101 | 0x2A62      |       10850 |
|    1102 | 0x2A5C      |       10844 |
|    1103 | 0x2A5D      |       10845 |
|    1104 | 0x2A63      |       10851 |
|    1105 | 0x2A64      |       10852 |
|    1106 | 0x005F      |          95 |
|    1107 | 0x0064      |         100 |
|    1108 | 0x0069      |         105 |
|    1109 | 0x0052      |          82 |
|    1110 | 0x0057      |          87 |
|    1111 | 0x005C      |          92 |
|    1112 | 0x0059      |          89 |
|    1113 | 0x005D      |          93 |
|    1114 | 0x0061      |          97 |
|    1115 | 0x0060      |          96 |
|    1116 | 0x000D      |          13 |
|    1117 | 0x0012      |          18 |
|    1118 | 0x0014      |          20 |
|    1119 | 0x0017      |          23 |
|    1120 | 0x000E      |          14 |
|    1121 | 0x0018      |          24 |
|    1122 | 0x001F      |          31 |
|    1123 | 0x0010      |          16 |
|    1124 | 0x0015      |          21 |
|    1125 | 0x018D      |         397 |
|    1126 | 0x0175      |         373 |
|    1127 | 0x0170      |         368 |
|    1128 | 0x0171      |         369 |
|    1129 | 0x014C      |         332 |
|    1130 | 0x01C1      |         449 |
|    1131 | 0x027C      |         636 |
|    1132 | 0x027B      |         635 |
|    1133 | 0x027D      |         637 |
|    1134 | 0x02D3      |         723 |
|    1135 | 0x0321      |         801 |
|    1136 | 0x0326      |         806 |
|    1137 | 0x01E1      |         481 |
|    1138 | 0x0343      |         835 |
|    1139 | 0x0386      |         902 |
|    1140 | 0x0388      |         904 |
|    1141 | 0x0361      |         865 |
|    1142 | 0x0387      |         903 |
|    1143 | 0x038A      |         906 |
|    1144 | 0x003F      |          63 |
|    1145 | 0x0282      |         642 |
|    1146 | 0x0283      |         643 |
|    1147 | 0x0288      |         648 |
|    1148 | 0x0289      |         649 |
|    1149 | 0x028A      |         650 |
|    1150 | 0x028B      |         651 |
|    1151 | 0x029E      |         670 |
|    1152 | 0x0019      |          25 |
|    1153 | 0x00C6      |         198 |
|    1154 | 0x00B5      |         181 |
|    1155 | 0x008C      |         140 |
|    1156 | 0x008E      |         142 |
|    1157 | 0x007A      |         122 |
|    1158 | 0x014B      |         331 |
|    1159 | 0x0148      |         328 |
|    1160 | 0x0166      |         358 |
|    1161 | 0x017A      |         378 |
|    1162 | 0x0182      |         386 |
|    1163 | 0x0183      |         387 |
|    1164 | 0x0192      |         402 |
|    1165 | 0x01DF      |         479 |
|    1166 | 0x01E9      |         489 |
|    1167 | 0x00E6      |         230 |
|    1168 | 0x00EB      |         235 |
|    1169 | 0x007E      |         126 |
|    1170 | 0x00F3      |         243 |
|    1171 | 0x00E0      |         224 |
|    1172 | 0x00E9      |         233 |
|    1173 | 0x009E      |         158 |
|    1174 | 0x009D      |         157 |
|    1175 | 0x00E2      |         226 |
|    1176 | 0x00E1      |         225 |
|    1177 | 0x014F      |         335 |
|    1178 | 0x014E      |         334 |
|    1179 | 0x0167      |         359 |
|    1180 | 0x00E5      |         229 |
|    1181 | 0x0169      |         361 |
|    1182 | 0x016A      |         362 |
|    1183 | 0x0133      |         307 |
|    1184 | 0x0174      |         372 |
|    1185 | 0x018C      |         396 |
|    1186 | 0x0194      |         404 |
|    1187 | 0x0195      |         405 |
|    1188 | 0x0178      |         376 |
|    1189 | 0x0240      |         576 |
|    1190 | 0x0197      |         407 |
|    1191 | 0x0198      |         408 |
|    1192 | 0x01A3      |         419 |
|    1193 | 0x019E      |         414 |
|    1194 | 0x0246      |         582 |
|    1195 | 0x0247      |         583 |
|    1196 | 0x0248      |         584 |
|    1197 | 0x024B      |         587 |
|    1198 | 0x024A      |         586 |
|    1199 | 0x0011      |          17 |
|    1200 | 0x024F      |         591 |
|    1201 | 0x01C3      |         451 |
|    1202 | 0x01C4      |         452 |
|    1203 | 0x01EF      |         495 |
|    1204 | 0x01F0      |         496 |
|    1205 | 0x0095      |         149 |
|    1206 | 0x0073      |         115 |
|    1207 | 0x0024      |          36 |
|    1208 | 0x005E      |          94 |
|    1209 | 0x0072      |         114 |
|    1210 | 0x006C      |         108 |
|    1211 | 0x003A      |          58 |
|    1212 | 0x0035      |          53 |
|    1213 | 0x0085      |         133 |
|    1214 | 0x0081      |         129 |
|    1215 | 0x0023      |          35 |
|    1216 | 0x0033      |          51 |
|    1217 | 0x0082      |         130 |
|    1218 | 0x0038      |          56 |
|    1219 | 0x0036      |          54 |
|    1220 | 0x0083      |         131 |
|    1221 | 0x00A2      |         162 |
|    1222 | 0x0021      |          33 |
|    1223 | 0x0065      |         101 |
|    1224 | 0x0086      |         134 |
|    1225 | 0x0062      |          98 |
|    1226 | 0x008D      |         141 |
|    1227 | 0x0037      |          55 |
|    1228 | 0x008A      |         138 |
|    1229 | 0x008B      |         139 |
|    1230 | 0x002B      |          43 |
|    1231 | 0x0067      |         103 |
|    1232 | 0x00A1      |         161 |
|    1233 | 0x0066      |         102 |
|    1234 | 0x0075      |         117 |
|    1235 | 0x0068      |         104 |
|    1236 | 0x007B      |         123 |
|    1237 | 0x0077      |         119 |
|    1238 | 0x01FE      |         510 |
|    1239 | 0x009F      |         159 |
|    1240 | 0x00A4      |         164 |
|    1241 | 0x00A9      |         169 |
|    1242 | 0x00AC      |         172 |
|    1243 | 0x00B2      |         178 |
|    1244 | 0x00B0      |         176 |
|    1245 | 0x013D      |         317 |
|    1246 | 0x0108      |         264 |
|    1247 | 0x010C      |         268 |
|    1248 | 0x0100      |         256 |
|    1249 | 0x00FB      |         251 |
|    1250 | 0x00B8      |         184 |
|    1251 | 0x011C      |         284 |
|    1252 | 0x0041      |          65 |
|    1253 | 0x0042      |          66 |
|    1254 | 0x0047      |          71 |
|    1255 | 0x0160      |         352 |
|    1256 | 0x0043      |          67 |
|    1257 | 0x0048      |          72 |
|    1258 | 0x004B      |          75 |
|    1259 | 0x004C      |          76 |
|    1260 | 0x004D      |          77 |
|    1261 | 0x005B      |          91 |
|    1262 | 0x0058      |          88 |
|    1263 | 0x0054      |          84 |
|    1264 | 0x0161      |         353 |
|    1265 | 0x015C      |         348 |
|    1266 | 0x016D      |         365 |
|    1267 | 0x00C5      |         197 |
|    1268 | 0x00C7      |         199 |
|    1269 | 0x015E      |         350 |
|    1270 | 0x016E      |         366 |
|    1271 | 0x00D0      |         208 |
|    1272 | 0x00CD      |         205 |
|    1273 | 0x00CA      |         202 |
|    1274 | 0x00D2      |         210 |
|    1275 | 0x00D8      |         216 |
|    1276 | 0x00D5      |         213 |
|    1277 | 0x00D6      |         214 |
|    1278 | 0x013B      |         315 |
|    1279 | 0x0136      |         310 |
|    1280 | 0x013A      |         314 |
|    1281 | 0x0137      |         311 |
|    1282 | 0x016F      |         367 |
|    1283 | 0x0138      |         312 |
|    1284 | 0x0139      |         313 |
|    1285 | 0x009A      |         154 |
|    1286 | 0x0091      |         145 |
|    1287 | 0x009B      |         155 |
|    1288 | 0x0099      |         153 |
|    1289 | 0x0093      |         147 |
|    1290 | 0x0092      |         146 |
|    1291 | 0x0098      |         152 |
|    1292 | 0x0071      |         113 |
|    1293 | 0x00E8      |         232 |
|    1294 | 0x00DD      |         221 |
|    1295 | 0x00F8      |         248 |
|    1296 | 0x00F1      |         241 |
|    1297 | 0x0124      |         292 |
|    1298 | 0x012E      |         302 |
|    1299 | 0x0129      |         297 |
|    1300 | 0x0122      |         290 |
|    1301 | 0x0132      |         306 |
|    1302 | 0x0126      |         294 |
|    1303 | 0x0155      |         341 |
|    1304 | 0x0025      |          37 |
|    1305 | 0x0029      |          41 |
|    1306 | 0x0028      |          40 |
|    1307 | 0x007D      |         125 |
|    1308 | 0x0079      |         121 |
|    1309 | 0x007C      |         124 |
|    1310 | 0x0074      |         116 |
|    1311 | 0x00EC      |         236 |
|    1312 | 0x019C      |         412 |
|    1313 | 0x0193      |         403 |
|    1314 | 0x01C6      |         454 |
|    1315 | 0x00FF      |         255 |
|    1316 | 0x2B7C      |       11132 |
|    1317 | 0x2B7D      |       11133 |
|    1318 | 0x00EE      |         238 |
|    1319 | 0x2B7E      |       11134 |
|    1320 | 0x2B7F      |       11135 |
|    1321 | 0x0090      |         144 |
|    1322 | 0x2B80      |       11136 |
|    1323 | 0x2B81      |       11137 |
|    1324 | 0x00DF      |         223 |
|    1325 | 0x2B82      |       11138 |
|    1326 | 0x2B83      |       11139 |
|    1327 | 0x2B84      |       11140 |
|    1328 | 0x2B85      |       11141 |
|    1329 | 0x2B86      |       11142 |
|    1330 | 0x2B87      |       11143 |
|    1331 | 0x2B88      |       11144 |
|    1332 | 0x2B89      |       11145 |
|    1333 | 0x2B8A      |       11146 |
|    1334 | 0x2B8B      |       11147 |
|    1335 | 0x2B8C      |       11148 |
|    1336 | 0x00DE      |         222 |
|    1337 | 0x2B8E      |       11150 |
|    1338 | 0x2B8F      |       11151 |
|    1339 | 0x2B90      |       11152 |
|    1340 | 0x2B91      |       11153 |
|    1341 | 0x2B92      |       11154 |
|    1342 | 0x2B93      |       11155 |
|    1343 | 0x2B94      |       11156 |
|    1344 | 0x2B95      |       11157 |
|    1345 | 0x2B96      |       11158 |
|    1346 | 0x2B97      |       11159 |
|    1347 | 0x00FE      |         254 |
|    1348 | 0x2B99      |       11161 |
|    1349 | 0x2B9A      |       11162 |
|    1350 | 0x2B9B      |       11163 |
|    1351 | 0x2B9C      |       11164 |
|    1352 | 0x2B9D      |       11165 |
|    1353 | 0x2B9F      |       11167 |
|    1354 | 0x2B9E      |       11166 |
|    1355 | 0x2BA0      |       11168 |
|    1356 | 0x2BA1      |       11169 |
|    1357 | 0x2BA2      |       11170 |
|    1358 | 0x2BA3      |       11171 |
|    1359 | 0x2BA4      |       11172 |
|    1360 | 0x2BA5      |       11173 |
|    1361 | 0x2BA7      |       11175 |
|    1362 | 0x2BA6      |       11174 |
|    1363 | 0x2BA8      |       11176 |
|    1364 | 0x2BA9      |       11177 |
|    1365 | 0x2BAA      |       11178 |
|    1366 | 0x2BAB      |       11179 |
|    1367 | 0x2BAC      |       11180 |
|    1368 | 0x2BAD      |       11181 |
|    1369 | 0x2BAE      |       11182 |
|    1370 | 0x006B      |         107 |
|    1371 | 0x2BAF      |       11183 |
|    1372 | 0x2BB0      |       11184 |
|    1373 | 0x2BB1      |       11185 |
|    1374 | 0x2BB2      |       11186 |
|    1375 | 0x2BB3      |       11187 |
|    1376 | 0x2BB4      |       11188 |
|    1377 | 0x2BB5      |       11189 |
|    1378 | 0x0828      |        2088 |
|    1379 | 0x2BB6      |       11190 |
|    1380 | 0x2BB7      |       11191 |
|    1381 | 0x2BB8      |       11192 |
|    1382 | 0x2BB9      |       11193 |
|    1383 | 0x2BBA      |       11194 |
|    1384 | 0x2DD7      |       11735 |
|    1385 | 0x0076      |         118 |
|    1386 | 0x2DD8      |       11736 |
|    1387 | 0x2DDA      |       11738 |
|    1388 | 0x2DDB      |       11739 |
|    1389 | 0x2DDC      |       11740 |
|    1390 | 0x2DDD      |       11741 |
|    1391 | 0x2DDE      |       11742 |
|    1392 | 0x0190      |         400 |
|    1393 | 0x2DDF      |       11743 |
|    1394 | 0x2DD9      |       11737 |
|    1395 | 0x00FD      |         253 |
|    1396 | 0xFFFF2668  |  4294911592 |
|    1397 | 0x19658     |      104024 |
|    1398 | 0x0339      |         825 |
|    1399 | 0x04E4      |        1252 |
|    1400 | 0x0120      |         288 |
|    1401 | 0x2E1B      |       11803 |
|    1402 | 0x2E1C      |       11804 |
|    1403 | 0x2E1D      |       11805 |
|    1404 | 0x2E1F      |       11807 |
|    1405 | 0x0500      |        1280 |
|    1406 | 0x2E20      |       11808 |
|    1407 | 0x2E21      |       11809 |
|    1408 | 0x2E22      |       11810 |
|    1409 | 0x2E23      |       11811 |
|    1410 | 0x038F      |         911 |
|    1411 | 0x2E24      |       11812 |
|    1412 | 0x2E25      |       11813 |
|    1413 | 0x2E1E      |       11806 |
|    1414 | 0xFFFF34E8  |  4294915304 |
|    1415 | 0x18FE1     |      102369 |
|    1416 | 0x0A5B      |        2651 |
|    1417 | 0xFFFF2241  |  4294910529 |
|    1418 | 0x1950B     |      103691 |
|    1419 | 0x0364      |         868 |
|    1420 | 0x2E29      |       11817 |
|    1421 | 0x2E2A      |       11818 |
|    1422 | 0x2E2B      |       11819 |
|    1423 | 0x2E2C      |       11820 |
|    1424 | 0x2E2D      |       11821 |
|    1425 | 0x2E2F      |       11823 |
|    1426 | 0x2E30      |       11824 |
|    1427 | 0x2E31      |       11825 |
|    1428 | 0x2E32      |       11826 |
|    1429 | 0x2E33      |       11827 |
|    1430 | 0x2E34      |       11828 |
|    1431 | 0x2E35      |       11829 |
|    1432 | 0xFFFF25FA  |  4294911482 |
|    1433 | 0x191CE     |      102862 |
|    1434 | 0x02B9      |         697 |
|    1435 | 0xFFFF24C9  |  4294911177 |
|    1436 | 0x185EC     |       99820 |
|    1437 | 0x0A82      |        2690 |
|    1438 | 0xFFFF3224  |  4294914596 |
|    1439 | 0x19F0B     |      106251 |
|    1440 | 0xFFFF2C4F  |  4294913103 |
|    1441 | 0x1A071     |      106609 |
|    1442 | 0x0211      |         529 |
|    1443 | 0xFFFF28BF  |  4294912191 |
|    1444 | 0x19C79     |      105593 |
|    1445 | 0xFFFF2591  |  4294911377 |
|    1446 | 0x19A75     |      105077 |
|    1447 | 0x2E36      |       11830 |
|    1448 | 0x04E5      |        1253 |
|    1449 | 0x2E37      |       11831 |
|    1450 | 0x2E38      |       11832 |
|    1451 | 0x2E39      |       11833 |
|    1452 | 0x2E3A      |       11834 |
|    1453 | 0x2E3B      |       11835 |
|    1454 | 0x2E3C      |       11836 |
|    1455 | 0x2E3D      |       11837 |
|    1456 | 0x2E3E      |       11838 |
|    1457 | 0x2E3F      |       11839 |
|    1458 | 0x2E40      |       11840 |
|    1459 | 0x2E41      |       11841 |
|    1460 | 0x2E42      |       11842 |
|    1461 | 0x2E43      |       11843 |
|    1462 | 0x2E44      |       11844 |
|    1463 | 0x2E45      |       11845 |
|    1464 | 0x2E46      |       11846 |
|    1465 | 0xFFFF24DE  |  4294911198 |
|    1466 | 0x18D45     |      101701 |
|    1467 | 0x021F      |         543 |
|    1468 | 0xFFFF2598  |  4294911384 |
|    1469 | 0x185C1     |       99777 |
|    1470 | 0x0A5D      |        2653 |
|    1471 | 0x0344      |         836 |
|    1472 | 0x2E47      |       11847 |
|    1473 | 0x2E48      |       11848 |

## String References

- **10468**: Luto Mewrilah points to the item in <Player>'s hand.
- **10852**: Your adventuring fellow's level limit is now 65.
- **10874**: You feel the bonds between you and your adventuring fellow strengthen!
- **11138**: It looks like the chocobo wants to venture outside town...
- **11139**: Sneak the chocobo outside? [Free the chocobo!/No. Think of Brutus!]
- **11805**: Do you want to be a dancer? [I surely do./No, I have two left feet.]
- **11811**: Give up? [Guess I'll go visit Auntie.../Never!]

## Events

### Event 65535

#### Metadata

| Field        | Value   |
|--------------|---------|
| Entrypoint   | 0x0000  |
| Data Size    | 1 bytes |
| Instructions | 1       |

```
      00 01 02 03 04 05 06 07  08 09 0A 0B 0C 0D 0E 0F
      -- -- -- -- -- -- -- --  -- -- -- -- -- -- -- --
0000: 00                                                .               
```

#### Opcodes

```
  0: 0x0000 [0x00] END_REQSTACK()
```

### Event 10063

#### Metadata

| Field        | Value      |
|--------------|------------|
| Entrypoint   | 0x0001     |
| Data Size    | 1922 bytes |
| Instructions | 327        |

```
      00 01 02 03 04 05 06 07  08 09 0A 0B 0C 0D 0E 0F
      -- -- -- -- -- -- -- --  -- -- -- -- -- -- -- --
0000:    42 1A 84 81 46 01 92  01 8C 40 0F 01 38 00 80   B...F....@..8..
0010: 29 19 6B 40 0F 01 03 2F  00 8F 40 0F 01 29 05 8F  ).k@.../..@..)..
0020: 40 0F 01 11 4E 00 8F 40  0F 01 29 0A 8F 40 0F 01  @...N..@..)..@..
0030: 32 29 0F F0 FF FF 7F 51  4A F0 FF FF 7F 8C 40 0F  2).....QJ.....@.
0040: 01 45 01 80 F8 FF FF 7F  F8 FF FF 7F 73 30 32 30  .E..........s020
0050: 02 80 1C 03 80 1A D8 81  4A 8C 40 0F 01 F0 FF FF  ........J.@.....
0060: 7F 1C 03 80 2B 8C 40 0F  01 04 80 23 29 14 8F 40  ....+.@....#)..@
0070: 0F 01 3A 1A 51 96 02 0E  00 02 80 80 89 00 2B 8C  ..:.Q.........+.
0080: 40 0F 01 05 80 23 01 0E  01 02 0E 00 06 80 80 9C  @....#..........
0090: 00 2B 8C 40 0F 01 07 80  23 01 0E 01 02 0E 00 08  .+.@....#.......
00A0: 80 80 AF 00 2B 8C 40 0F  01 09 80 23 01 0E 01 02  ....+.@....#....
00B0: 0E 00 0A 80 80 C2 00 2B  8C 40 0F 01 0B 80 23 01  .......+.@....#.
00C0: 0E 01 02 0E 00 0C 80 80  D5 00 2B 8C 40 0F 01 0D  ..........+.@...
00D0: 80 23 01 0E 01 02 0E 00  0E 80 80 E8 00 2B 8C 40  .#...........+.@
00E0: 0F 01 0F 80 23 01 0E 01  02 0E 00 10 80 80 FB 00  ....#...........
00F0: 2B 8C 40 0F 01 11 80 23  01 0E 01 02 0E 00 12 80  +.@....#........
0100: 80 0E 01 2B 8C 40 0F 01  13 80 23 01 0E 01 4A 8C  ...+.@....#...J.
0110: 40 0F 01 8F 40 0F 01 29  0F 8F 40 0F 01 33 4A 8F  @...@..)..@..3J.
0120: 40 0F 01 8C 40 0F 01 52  01 80 F8 FF FF 7F F8 FF  @...@..R........
0130: FF 7F 73 30 32 30 1A 51  96 02 0E 00 02 80 80 55  ..s020.Q.......U
0140: 01 45 01 80 F8 FF FF 7F  F8 FF FF 7F 73 30 32 31  .E..........s021
0150: 02 80 01 19 02 02 0E 00  06 80 80 71 01 45 01 80  ...........q.E..
0160: F8 FF FF 7F F8 FF FF 7F  73 30 32 31 02 80 01 19  ........s021....
0170: 02 02 0E 00 08 80 80 8D  01 45 01 80 F8 FF FF 7F  .........E......
0180: F8 FF FF 7F 73 30 32 31  02 80 01 19 02 02 0E 00  ....s021........
0190: 0A 80 80 A9 01 45 01 80  F8 FF FF 7F F8 FF FF 7F  .....E..........
01A0: 73 30 32 31 02 80 01 19  02 02 0E 00 0C 80 80 C5  s021............
01B0: 01 45 01 80 F8 FF FF 7F  F8 FF FF 7F 73 30 32 37  .E..........s027
01C0: 02 80 01 19 02 02 0E 00  0E 80 80 E1 01 45 01 80  .............E..
01D0: F8 FF FF 7F F8 FF FF 7F  73 30 32 37 02 80 01 19  ........s027....
01E0: 02 02 0E 00 10 80 80 FD  01 45 01 80 F8 FF FF 7F  .........E......
01F0: F8 FF FF 7F 73 30 32 31  02 80 01 19 02 02 0E 00  ....s021........
0200: 12 80 80 19 02 45 01 80  F8 FF FF 7F F8 FF FF 7F  .....E..........
0210: 73 30 32 31 02 80 01 19  02 4A 8C 40 0F 01 8F 40  s021.....J.@...@
0220: 0F 01 2B 8C 40 0F 01 14  80 23 6E 8F 40 0F 01 12  ..+.@....#n.@...
0230: 80 99 8F 40 0F 01 1A 32  97 02 0B 00 06 80 80 4C  ...@...2.......L
0240: 02 2B 8F 40 0F 01 15 80  23 01 1D 03 02 0B 00 08  .+.@....#.......
0250: 80 80 5F 02 2B 8F 40 0F  01 16 80 23 01 1D 03 02  .._.+.@....#....
0260: 0B 00 0A 80 80 72 02 2B  8F 40 0F 01 17 80 23 01  .....r.+.@....#.
0270: 1D 03 02 0B 00 0C 80 80  85 02 2B 8F 40 0F 01 18  ..........+.@...
0280: 80 23 01 1D 03 02 0B 00  0E 80 80 98 02 2B 8F 40  .#...........+.@
0290: 0F 01 19 80 23 01 1D 03  02 0B 00 10 80 80 AB 02  ....#...........
02A0: 2B 8F 40 0F 01 1A 80 23  01 1D 03 02 0B 00 12 80  +.@....#........
02B0: 80 BE 02 2B 8F 40 0F 01  1B 80 23 01 1D 03 02 0B  ...+.@....#.....
02C0: 00 1C 80 80 D1 02 2B 8F  40 0F 01 1D 80 23 01 1D  ......+.@....#..
02D0: 03 02 0B 00 1E 80 80 E4  02 2B 8F 40 0F 01 1F 80  .........+.@....
02E0: 23 01 1D 03 02 0B 00 20  80 80 F7 02 2B 8F 40 0F  #...... ....+.@.
02F0: 01 21 80 23 01 1D 03 02  0B 00 22 80 80 0A 03 2B  .!.#......"....+
0300: 8F 40 0F 01 23 80 23 01  1D 03 02 0B 00 24 80 80  .@..#.#......$..
0310: 1D 03 2B 8F 40 0F 01 25  80 23 01 1D 03 66 26 80  ..+.@..%.#...f&.
0320: 8C 40 0F 01 8C 40 0F 01  74 6C 63 30 2B 8C 40 0F  .@...@..tlc0+.@.
0330: 01 27 80 23 52 01 80 F8  FF FF 7F F8 FF FF 7F 73  .'.#R..........s
0340: 30 32 31 45 01 80 F8 FF  FF 7F F8 FF FF 7F 73 30  021E..........s0
0350: 32 32 02 80 2B 8C 40 0F  01 28 80 23 2B 8C 40 0F  22..+.@..(.#+.@.
0360: 01 29 80 23 52 01 80 F8  FF FF 7F F8 FF FF 7F 73  .).#R..........s
0370: 30 32 32 1A 51 96 02 0E  00 02 80 80 92 03 45 01  022.Q.........E.
0380: 80 F8 FF FF 7F F8 FF FF  7F 73 30 32 33 02 80 01  .........s023...
0390: 56 04 02 0E 00 06 80 80  AE 03 45 01 80 F8 FF FF  V.........E.....
03A0: 7F F8 FF FF 7F 73 30 32  33 02 80 01 56 04 02 0E  .....s023...V...
03B0: 00 08 80 80 CA 03 45 01  80 F8 FF FF 7F F8 FF FF  ......E.........
03C0: 7F 73 30 32 36 02 80 01  56 04 02 0E 00 0A 80 80  .s026...V.......
03D0: E6 03 45 01 80 F8 FF FF  7F F8 FF FF 7F 73 30 32  ..E..........s02
03E0: 36 02 80 01 56 04 02 0E  00 0C 80 80 02 04 45 01  6...V.........E.
03F0: 80 F8 FF FF 7F F8 FF FF  7F 73 30 32 38 02 80 01  .........s028...
0400: 56 04 02 0E 00 0E 80 80  1E 04 45 01 80 F8 FF FF  V.........E.....
0410: 7F F8 FF FF 7F 73 30 32  38 02 80 01 56 04 02 0E  .....s028...V...
0420: 00 10 80 80 3A 04 45 01  80 F8 FF FF 7F F8 FF FF  ....:.E.........
0430: 7F 73 30 32 33 02 80 01  56 04 02 0E 00 12 80 80  .s023...V.......
0440: 56 04 45 01 80 F8 FF FF  7F F8 FF FF 7F 73 30 32  V.E..........s02
0450: 36 02 80 01 56 04 6E 8F  40 0F 01 2A 80 99 8F 40  6...V.n.@..*...@
0460: 0F 01 1A 32 97 02 0B 00  06 80 80 80 04 2B 8F 40  ...2.........+.@
0470: 0F 01 2B 80 23 2B 8F 40  0F 01 2C 80 23 01 A9 05  ..+.#+.@..,.#...
0480: 02 0B 00 08 80 80 9B 04  2B 8F 40 0F 01 2D 80 23  ........+.@..-.#
0490: 2B 8F 40 0F 01 2E 80 23  01 A9 05 02 0B 00 0A 80  +.@....#........
04A0: 80 B6 04 2B 8F 40 0F 01  2F 80 23 2B 8F 40 0F 01  ...+.@../.#+.@..
04B0: 30 80 23 01 A9 05 02 0B  00 0C 80 80 D1 04 2B 8F  0.#...........+.
04C0: 40 0F 01 31 80 23 2B 8F  40 0F 01 32 80 23 01 A9  @..1.#+.@..2.#..
04D0: 05 02 0B 00 0E 80 80 EC  04 2B 8F 40 0F 01 33 80  .........+.@..3.
04E0: 23 2B 8F 40 0F 01 34 80  23 01 A9 05 02 0B 00 10  #+.@..4.#.......
04F0: 80 80 07 05 2B 8F 40 0F  01 35 80 23 2B 8F 40 0F  ....+.@..5.#+.@.
0500: 01 36 80 23 01 A9 05 02  0B 00 12 80 80 22 05 2B  .6.#.........".+
0510: 8F 40 0F 01 37 80 23 2B  8F 40 0F 01 38 80 23 01  .@..7.#+.@..8.#.
0520: A9 05 02 0B 00 1C 80 80  3D 05 2B 8F 40 0F 01 39  ........=.+.@..9
0530: 80 23 2B 8F 40 0F 01 3A  80 23 01 A9 05 02 0B 00  .#+.@..:.#......
0540: 1E 80 80 58 05 2B 8F 40  0F 01 3B 80 23 2B 8F 40  ...X.+.@..;.#+.@
0550: 0F 01 3C 80 23 01 A9 05  02 0B 00 20 80 80 73 05  ..<.#...... ..s.
0560: 2B 8F 40 0F 01 3D 80 23  2B 8F 40 0F 01 3E 80 23  +.@..=.#+.@..>.#
0570: 01 A9 05 02 0B 00 22 80  80 8E 05 2B 8F 40 0F 01  ......"....+.@..
0580: 3F 80 23 2B 8F 40 0F 01  40 80 23 01 A9 05 02 0B  ?.#+.@..@.#.....
0590: 00 24 80 80 A9 05 2B 8F  40 0F 01 41 80 23 2B 8F  .$....+.@..A.#+.
05A0: 40 0F 01 42 80 23 01 A9  05 52 01 80 F8 FF FF 7F  @..B.#...R......
05B0: F8 FF FF 7F 73 30 32 33  52 01 80 F8 FF FF 7F F8  ....s023R.......
05C0: FF FF 7F 73 30 32 36 52  01 80 F8 FF FF 7F F8 FF  ...s026R........
05D0: FF 7F 73 30 32 38 45 01  80 F8 FF FF 7F F8 FF FF  ..s028E.........
05E0: 7F 73 30 32 34 02 80 66  43 80 8C 40 0F 01 8C 40  .s024..fC..@...@
05F0: 0F 01 64 69 73 30 2B 8C  40 0F 01 44 80 23 2B 8C  ..dis0+.@..D.#+.
0600: 40 0F 01 45 80 23 2B 8C  40 0F 01 46 80 23 6E 8F  @..E.#+.@..F.#n.
0610: 40 0F 01 10 80 99 8F 40  0F 01 1A 32 97 02 0B 00  @......@...2....
0620: 06 80 80 30 06 2B 8F 40  0F 01 47 80 23 01 01 07  ...0.+.@..G.#...
0630: 02 0B 00 08 80 80 43 06  2B 8F 40 0F 01 48 80 23  ......C.+.@..H.#
0640: 01 01 07 02 0B 00 0A 80  80 56 06 2B 8F 40 0F 01  .........V.+.@..
0650: 49 80 23 01 01 07 02 0B  00 0C 80 80 69 06 2B 8F  I.#.........i.+.
0660: 40 0F 01 4A 80 23 01 01  07 02 0B 00 0E 80 80 7C  @..J.#.........|
0670: 06 2B 8F 40 0F 01 4B 80  23 01 01 07 02 0B 00 10  .+.@..K.#.......
0680: 80 80 8F 06 2B 8F 40 0F  01 4C 80 23 01 01 07 02  ....+.@..L.#....
0690: 0B 00 12 80 80 A2 06 2B  8F 40 0F 01 4D 80 23 01  .......+.@..M.#.
06A0: 01 07 02 0B 00 1C 80 80  B5 06 2B 8F 40 0F 01 4E  ..........+.@..N
06B0: 80 23 01 01 07 02 0B 00  1E 80 80 C8 06 2B 8F 40  .#...........+.@
06C0: 0F 01 4F 80 23 01 01 07  02 0B 00 20 80 80 DB 06  ..O.#...... ....
06D0: 2B 8F 40 0F 01 50 80 23  01 01 07 02 0B 00 22 80  +.@..P.#......".
06E0: 80 EE 06 2B 8F 40 0F 01  51 80 23 01 01 07 02 0B  ...+.@..Q.#.....
06F0: 00 24 80 80 01 07 2B 8F  40 0F 01 52 80 23 01 01  .$....+.@..R.#..
0700: 07 52 01 80 F8 FF FF 7F  F8 FF FF 7F 73 30 32 34  .R..........s024
0710: 45 01 80 F8 FF FF 7F F8  FF FF 7F 73 30 32 35 02  E..........s025.
0720: 80 4A 8C 40 0F 01 F0 FF  FF 7F 1C 53 80 66 54 80  .J.@.......S.fT.
0730: 8C 40 0F 01 8C 40 0F 01  74 6C 6B 30 2B 8C 40 0F  .@...@..tlk0+.@.
0740: 01 55 80 23 2B 8C 40 0F  01 56 80 23 66 54 80 8C  .U.#+.@..V.#fT..
0750: 40 0F 01 8C 40 0F 01 74  6C 6B 32 1A A5 81 52 57  @...@..tlk2...RW
0760: 80 F8 FF FF 7F F8 FF FF  7F 73 30 32 35 4E 01 8F  .........s025N..
0770: 40 0F 01 2F 01 8F 40 0F  01 1C 58 80 46 00 1A D8  @../..@...X.F...
0780: 81 21 00                                          .!.             
```

#### Opcodes

```
  0: 0x0001 [0x42] SET_CLI_EVENT_CANCEL_DATA()
  1: 0x0002 [0x1A] CALL_SUBROUTINE(address=0x8184)
  2: 0x0005 [0x46] CAMERA_CONTROL: Disable user control
  3: 0x0007 [0x92] Luto Mewrilah (ID: 17776780/0x010F408C)->Render.Flags3 ^= 0x01
  4: 0x000D [0x38] SET_CLIENT_EVENT_MODE(mode=19*)
  5: 0x0010 [0x29] REQ_SET_WAIT(priority=0x19, entity_id=Door:Goddess Temple (ID: 17776747/0x010F406B), tag_num=0x03)
  6: 0x0017 [0x2F] Unnamed NPC (ID: 17776783/0x010F408F)->Render.Flags0 &= ~0x80000 // Bit 19
  7: 0x001D [0x29] REQ_SET_WAIT(priority=0x05, entity_id=Unnamed NPC (ID: 17776783/0x010F408F), tag_num=0x11)
  8: 0x0024 [0x4E] SET_ENTITY_HIDE_FLAG: Show Unnamed NPC (ID: 17776783/0x010F408F)
  9: 0x002A [0x29] REQ_SET_WAIT(priority=0x0A, entity_id=Unnamed NPC (ID: 17776783/0x010F408F), tag_num=0x32)
 10: 0x0031 [0x29] REQ_SET_WAIT(priority=0x0F, entity_id=LocalPlayer, tag_num=0x51)
 11: 0x0038 [0x4A] LocalPlayer looks at Luto Mewrilah (ID: 17776780/0x010F408C)
 12: 0x0041 [0x45] LOAD_SCHEDULED_TASK: Load scheduler "s020" with entities [EventEntity, EventEntity], work=[194*, 0*]
 13: 0x0052 [0x1C] WAIT(60* ticks)
 14: 0x0055 [0x1A] CALL_SUBROUTINE(address=0x81D8)
 15: 0x0058 [0x4A] Luto Mewrilah (ID: 17776780/0x010F408C) looks at LocalPlayer
 16: 0x0061 [0x1C] WAIT(60* ticks)
 17: 0x0064 [0x2B] Luto Mewrilah (ID: 17776780/0x010F408C) [9717*]:
     "Grrreat timing as always, <Player>. I have a favor to ask you."
 18: 0x006B [0x23] WAIT_FOR_DIALOG_INTERACTION
 19: 0x006C [0x29] REQ_SET_WAIT(priority=0x14, entity_id=Unnamed NPC (ID: 17776783/0x010F408F), tag_num=0x3A)
 20: 0x0073 [0x1A] CALL_SUBROUTINE(address=0x9651)
 21: 0x0076 [0x02] IF !(ExtData[1]->WorkLocal[14] == 0*) GOTO 0x0089
 22: 0x007E [0x2B] Luto Mewrilah (ID: 17776780/0x010F408C) [9718*]:
     "Actually, I was going to ask [Feliz/Ferdinand/Gunnar/Massimo/Oldrich/Siegward/Theobald/Zenji] to help as well... And here he is!"
 23: 0x0085 [0x23] WAIT_FOR_DIALOG_INTERACTION
 24: 0x0086 [0x01] GOTO 0x010E
 25: 0x0089 [0x02] IF !(ExtData[1]->WorkLocal[14] == 1*) GOTO 0x009C
 26: 0x0091 [0x2B] Luto Mewrilah (ID: 17776780/0x010F408C) [9719*]:
     "Actually, I was going to ask [Amerita/Beatrice/Henrietta/Jesimae/Karyn/Nanako/Sharlene/Sieghilde] to help as well... And here she is!"
 27: 0x0098 [0x23] WAIT_FOR_DIALOG_INTERACTION
 28: 0x0099 [0x01] GOTO 0x010E
 29: 0x009C [0x02] IF !(ExtData[1]->WorkLocal[14] == 2*) GOTO 0x00AF
 30: 0x00A4 [0x2B] Luto Mewrilah (ID: 17776780/0x010F408C) [9720*]:
     "Actually, I was going to ask [Chanandit/Deulmaeux/Demresinaux/Ephealgaux/Gauldeval/Grauffemart/Migaifongut/Romidiant] to help as well... And here he is!"
 31: 0x00AB [0x23] WAIT_FOR_DIALOG_INTERACTION
 32: 0x00AC [0x01] GOTO 0x010E
 33: 0x00AF [0x02] IF !(ExtData[1]->WorkLocal[14] == 3*) GOTO 0x00C2
 34: 0x00B7 [0x2B] Luto Mewrilah (ID: 17776780/0x010F408C) [9721*]:
     "Actually, I was going to ask [Armittie/Cadepure/Clearite/Epilleve/Liabelle/Nauthima/Radille/Vimechue] to help as well... And here she is!"
 35: 0x00BE [0x23] WAIT_FOR_DIALOG_INTERACTION
 36: 0x00BF [0x01] GOTO 0x010E
 37: 0x00C2 [0x02] IF !(ExtData[1]->WorkLocal[14] == 4*) GOTO 0x00D5
 38: 0x00CA [0x2B] Luto Mewrilah (ID: 17776780/0x010F408C) [9722*]:
     "Actually, I was going to ask [Balu-Falu/Burg-Ladarg/Ehgo-Ryuhgo/Kolui-Pelui/Nokum-Akkum/Savul-Kivul/Vinja-Kanja/Yarga-Umiga] to help as well... And here he is!"
 39: 0x00D1 [0x23] WAIT_FOR_DIALOG_INTERACTION
 40: 0x00D2 [0x01] GOTO 0x010E
 41: 0x00D5 [0x02] IF !(ExtData[1]->WorkLocal[14] == 5*) GOTO 0x00E8
 42: 0x00DD [0x2B] Luto Mewrilah (ID: 17776780/0x010F408C) [9723*]:
     "Actually, I was going to ask [Cupapa/Jajuju/Kalokoko/Mahoyaya/Pakurara/Ripokeke/Yawawa/Yufafa] to help as well... And here she is!"
 43: 0x00E4 [0x23] WAIT_FOR_DIALOG_INTERACTION
 44: 0x00E5 [0x01] GOTO 0x010E
 45: 0x00E8 [0x02] IF !(ExtData[1]->WorkLocal[14] == 6*) GOTO 0x00FB
 46: 0x00F0 [0x2B] Luto Mewrilah (ID: 17776780/0x010F408C) [9724*]:
     "Actually, I was going to ask [Fhig Lahrv/Khuma Tagyawhan/Pimy Kettihl/Raka Maimhov/Sahyu Banjyao/Sufhi Uchnouma/Tsuim Nhomango/Yoli Kohlpaka] to help as well... And here she is!"
 47: 0x00F7 [0x23] WAIT_FOR_DIALOG_INTERACTION
 48: 0x00F8 [0x01] GOTO 0x010E
 49: 0x00FB [0x02] IF !(ExtData[1]->WorkLocal[14] == 7*) GOTO 0x010E
 50: 0x0103 [0x2B] Luto Mewrilah (ID: 17776780/0x010F408C) [9725*]:
     "Actually, I was going to ask [Durib/Dzapiwa/Jugowa/Mugido/Voldai/Wagwei/Zayag/Zoldof] to help as well... And here he is!"
 51: 0x010A [0x23] WAIT_FOR_DIALOG_INTERACTION
 52: 0x010B [0x01] GOTO 0x010E

SUBROUTINE_010E:
 53: 0x010E [0x4A] Luto Mewrilah (ID: 17776780/0x010F408C) looks at Unnamed NPC (ID: 17776783/0x010F408F)
 54: 0x0117 [0x29] REQ_SET_WAIT(priority=0x0F, entity_id=Unnamed NPC (ID: 17776783/0x010F408F), tag_num=0x33)
 55: 0x011E [0x4A] Unnamed NPC (ID: 17776783/0x010F408F) looks at Luto Mewrilah (ID: 17776780/0x010F408C)
 56: 0x0127 [0x52] END_LOAD_SCHEDULER: End scheduler "s020" with entities [EventEntity, EventEntity], work=194*
 57: 0x0136 [0x1A] CALL_SUBROUTINE(address=0x9651)
 58: 0x0139 [0x02] IF !(ExtData[1]->WorkLocal[14] == 0*) GOTO 0x0155
 59: 0x0141 [0x45] LOAD_SCHEDULED_TASK: Load scheduler "s021" with entities [EventEntity, EventEntity], work=[194*, 0*]
 60: 0x0152 [0x01] GOTO 0x0219
 61: 0x0155 [0x02] IF !(ExtData[1]->WorkLocal[14] == 1*) GOTO 0x0171
 62: 0x015D [0x45] LOAD_SCHEDULED_TASK: Load scheduler "s021" with entities [EventEntity, EventEntity], work=[194*, 0*]
 63: 0x016E [0x01] GOTO 0x0219
 64: 0x0171 [0x02] IF !(ExtData[1]->WorkLocal[14] == 2*) GOTO 0x018D
 65: 0x0179 [0x45] LOAD_SCHEDULED_TASK: Load scheduler "s021" with entities [EventEntity, EventEntity], work=[194*, 0*]
 66: 0x018A [0x01] GOTO 0x0219
 67: 0x018D [0x02] IF !(ExtData[1]->WorkLocal[14] == 3*) GOTO 0x01A9
 68: 0x0195 [0x45] LOAD_SCHEDULED_TASK: Load scheduler "s021" with entities [EventEntity, EventEntity], work=[194*, 0*]
 69: 0x01A6 [0x01] GOTO 0x0219
 70: 0x01A9 [0x02] IF !(ExtData[1]->WorkLocal[14] == 4*) GOTO 0x01C5
 71: 0x01B1 [0x45] LOAD_SCHEDULED_TASK: Load scheduler "s027" with entities [EventEntity, EventEntity], work=[194*, 0*]
 72: 0x01C2 [0x01] GOTO 0x0219
 73: 0x01C5 [0x02] IF !(ExtData[1]->WorkLocal[14] == 5*) GOTO 0x01E1
 74: 0x01CD [0x45] LOAD_SCHEDULED_TASK: Load scheduler "s027" with entities [EventEntity, EventEntity], work=[194*, 0*]
 75: 0x01DE [0x01] GOTO 0x0219
 76: 0x01E1 [0x02] IF !(ExtData[1]->WorkLocal[14] == 6*) GOTO 0x01FD
 77: 0x01E9 [0x45] LOAD_SCHEDULED_TASK: Load scheduler "s021" with entities [EventEntity, EventEntity], work=[194*, 0*]
 78: 0x01FA [0x01] GOTO 0x0219
 79: 0x01FD [0x02] IF !(ExtData[1]->WorkLocal[14] == 7*) GOTO 0x0219
 80: 0x0205 [0x45] LOAD_SCHEDULED_TASK: Load scheduler "s021" with entities [EventEntity, EventEntity], work=[194*, 0*]
 81: 0x0216 [0x01] GOTO 0x0219

SUBROUTINE_0219:
 82: 0x0219 [0x4A] Luto Mewrilah (ID: 17776780/0x010F408C) looks at Unnamed NPC (ID: 17776783/0x010F408F)
 83: 0x0222 [0x2B] Luto Mewrilah (ID: 17776780/0x010F408C) [9726*]:
     "I was just explaining to <Player> that I want you two to head to Windurst for me."
 84: 0x0229 [0x23] WAIT_FOR_DIALOG_INTERACTION
 85: 0x022A [0x6E] Unnamed NPC (ID: 17776783/0x010F408F) uses emote 7*
 86: 0x0231 [0x99] Wait for Unnamed NPC (ID: 17776783/0x010F408F) animation to complete
 87: 0x0236 [0x1A] CALL_SUBROUTINE(address=0x9732)
 88: 0x0239 [0x02] IF !(ExtData[1]->WorkLocal[11] == 1*) GOTO 0x024C
 89: 0x0241 [0x2B] Unnamed NPC (ID: 17776783/0x010F408F) [9727*]:
     "Sure. What do you need us to do?"
 90: 0x0248 [0x23] WAIT_FOR_DIALOG_INTERACTION
 91: 0x0249 [0x01] GOTO 0x031D
 92: 0x024C [0x02] IF !(ExtData[1]->WorkLocal[11] == 2*) GOTO 0x025F
 93: 0x0254 [0x2B] Unnamed NPC (ID: 17776783/0x010F408F) [9728*]:
     "No problem! What are we doing in Windurst?"
 94: 0x025B [0x23] WAIT_FOR_DIALOG_INTERACTION
 95: 0x025C [0x01] GOTO 0x031D
 96: 0x025F [0x02] IF !(ExtData[1]->WorkLocal[11] == 3*) GOTO 0x0272
 97: 0x0267 [0x2B] Unnamed NPC (ID: 17776783/0x010F408F) [9729*]:
     "Windurst? What do you need us to do there?"
 98: 0x026E [0x23] WAIT_FOR_DIALOG_INTERACTION
 99: 0x026F [0x01] GOTO 0x031D
100: 0x0272 [0x02] IF !(ExtData[1]->WorkLocal[11] == 4*) GOTO 0x0285
101: 0x027A [0x2B] Unnamed NPC (ID: 17776783/0x010F408F) [9730*]:
     "A trip to Windurst? And what are we to do when we get there?"
102: 0x0281 [0x23] WAIT_FOR_DIALOG_INTERACTION
103: 0x0282 [0x01] GOTO 0x031D
104: 0x0285 [0x02] IF !(ExtData[1]->WorkLocal[11] == 5*) GOTO 0x0298
105: 0x028D [0x2B] Unnamed NPC (ID: 17776783/0x010F408F) [9733*]:
     "Windurst, huh? What will we be doing there?"
106: 0x0294 [0x23] WAIT_FOR_DIALOG_INTERACTION
107: 0x0295 [0x01] GOTO 0x031D
108: 0x0298 [0x02] IF !(ExtData[1]->WorkLocal[11] == 6*) GOTO 0x02AB
109: 0x02A0 [0x2B] Unnamed NPC (ID: 17776783/0x010F408F) [9734*]:
     "Windurst! Great! What do you need us to do?"
110: 0x02A7 [0x23] WAIT_FOR_DIALOG_INTERACTION
111: 0x02A8 [0x01] GOTO 0x031D
112: 0x02AB [0x02] IF !(ExtData[1]->WorkLocal[11] == 7*) GOTO 0x02BE
113: 0x02B3 [0x2B] Unnamed NPC (ID: 17776783/0x010F408F) [9735*]:
     "Sure. And what lies in store for us there?"
114: 0x02BA [0x23] WAIT_FOR_DIALOG_INTERACTION
115: 0x02BB [0x01] GOTO 0x031D
116: 0x02BE [0x02] IF !(ExtData[1]->WorkLocal[11] == 8*) GOTO 0x02D1
117: 0x02C6 [0x2B] Unnamed NPC (ID: 17776783/0x010F408F) [9736*]:
     "Oh, I love Windurst! What do you want us to do once we get there?"
118: 0x02CD [0x23] WAIT_FOR_DIALOG_INTERACTION
119: 0x02CE [0x01] GOTO 0x031D
120: 0x02D1 [0x02] IF !(ExtData[1]->WorkLocal[11] == 9*) GOTO 0x02E4
121: 0x02D9 [0x2B] Unnamed NPC (ID: 17776783/0x010F408F) [9737*]:
     "A trip to Windurst? And what are we to do when we get there?"
122: 0x02E0 [0x23] WAIT_FOR_DIALOG_INTERACTION
123: 0x02E1 [0x01] GOTO 0x031D
124: 0x02E4 [0x02] IF !(ExtData[1]->WorkLocal[11] == 10*) GOTO 0x02F7
125: 0x02EC [0x2B] Unnamed NPC (ID: 17776783/0x010F408F) [9731*]:
     "Windurst? Sounds like fun! What do we do when we get there?"
126: 0x02F3 [0x23] WAIT_FOR_DIALOG_INTERACTION
127: 0x02F4 [0x01] GOTO 0x031D
128: 0x02F7 [0x02] IF !(ExtData[1]->WorkLocal[11] == 11*) GOTO 0x030A
129: 0x02FF [0x2B] Unnamed NPC (ID: 17776783/0x010F408F) [9732*]:
     "Windurst? That's fine with me, but what do we do when we get there?"
130: 0x0306 [0x23] WAIT_FOR_DIALOG_INTERACTION
131: 0x0307 [0x01] GOTO 0x031D
132: 0x030A [0x02] IF !(ExtData[1]->WorkLocal[11] == 12*) GOTO 0x031D
133: 0x0312 [0x2B] Unnamed NPC (ID: 17776783/0x010F408F) [9738*]:
     "I must admit to having a soft spot for Windurst. What is it that we are to do?"
134: 0x0319 [0x23] WAIT_FOR_DIALOG_INTERACTION
135: 0x031A [0x01] GOTO 0x031D

SUBROUTINE_031D:
136: 0x031D [0x66] LOAD_EXT_SCHEDULER_MAIN: Load scheduler "tlc0" with entities [Luto Mewrilah (ID: 17776780/0x010F408C), Luto Mewrilah (ID: 17776780/0x010F408C)], work=48*
137: 0x032C [0x2B] Luto Mewrilah (ID: 17776780/0x010F408C) [9739*]:
     "I knew I could count on your enthusiasm."
138: 0x0333 [0x23] WAIT_FOR_DIALOG_INTERACTION
139: 0x0334 [0x52] END_LOAD_SCHEDULER: End scheduler "s021" with entities [EventEntity, EventEntity], work=194*
140: 0x0343 [0x45] LOAD_SCHEDULED_TASK: Load scheduler "s022" with entities [EventEntity, EventEntity], work=[194*, 0*]
141: 0x0354 [0x2B] Luto Mewrilah (ID: 17776780/0x010F408C) [9740*]:
     "What I need you to do is borrow a book. As you probably know, the library in Windurst is home to many ancient tomes of lore."
142: 0x035B [0x23] WAIT_FOR_DIALOG_INTERACTION
143: 0x035C [0x2B] Luto Mewrilah (ID: 17776780/0x010F408C) [9741*]:
     "I want you to bring me a book that contains a method for repairing the broken mirror you left with me."
144: 0x0363 [0x23] WAIT_FOR_DIALOG_INTERACTION
145: 0x0364 [0x52] END_LOAD_SCHEDULER: End scheduler "s022" with entities [EventEntity, EventEntity], work=194*
146: 0x0373 [0x1A] CALL_SUBROUTINE(address=0x9651)
147: 0x0376 [0x02] IF !(ExtData[1]->WorkLocal[14] == 0*) GOTO 0x0392
148: 0x037E [0x45] LOAD_SCHEDULED_TASK: Load scheduler "s023" with entities [EventEntity, EventEntity], work=[194*, 0*]
149: 0x038F [0x01] GOTO 0x0456
150: 0x0392 [0x02] IF !(ExtData[1]->WorkLocal[14] == 1*) GOTO 0x03AE
151: 0x039A [0x45] LOAD_SCHEDULED_TASK: Load scheduler "s023" with entities [EventEntity, EventEntity], work=[194*, 0*]
152: 0x03AB [0x01] GOTO 0x0456
153: 0x03AE [0x02] IF !(ExtData[1]->WorkLocal[14] == 2*) GOTO 0x03CA
154: 0x03B6 [0x45] LOAD_SCHEDULED_TASK: Load scheduler "s026" with entities [EventEntity, EventEntity], work=[194*, 0*]
155: 0x03C7 [0x01] GOTO 0x0456
156: 0x03CA [0x02] IF !(ExtData[1]->WorkLocal[14] == 3*) GOTO 0x03E6
157: 0x03D2 [0x45] LOAD_SCHEDULED_TASK: Load scheduler "s026" with entities [EventEntity, EventEntity], work=[194*, 0*]
158: 0x03E3 [0x01] GOTO 0x0456
159: 0x03E6 [0x02] IF !(ExtData[1]->WorkLocal[14] == 4*) GOTO 0x0402
160: 0x03EE [0x45] LOAD_SCHEDULED_TASK: Load scheduler "s028" with entities [EventEntity, EventEntity], work=[194*, 0*]
161: 0x03FF [0x01] GOTO 0x0456
162: 0x0402 [0x02] IF !(ExtData[1]->WorkLocal[14] == 5*) GOTO 0x041E
163: 0x040A [0x45] LOAD_SCHEDULED_TASK: Load scheduler "s028" with entities [EventEntity, EventEntity], work=[194*, 0*]
164: 0x041B [0x01] GOTO 0x0456
165: 0x041E [0x02] IF !(ExtData[1]->WorkLocal[14] == 6*) GOTO 0x043A
166: 0x0426 [0x45] LOAD_SCHEDULED_TASK: Load scheduler "s023" with entities [EventEntity, EventEntity], work=[194*, 0*]
167: 0x0437 [0x01] GOTO 0x0456
168: 0x043A [0x02] IF !(ExtData[1]->WorkLocal[14] == 7*) GOTO 0x0456
169: 0x0442 [0x45] LOAD_SCHEDULED_TASK: Load scheduler "s026" with entities [EventEntity, EventEntity], work=[194*, 0*]
170: 0x0453 [0x01] GOTO 0x0456

SUBROUTINE_0456:
171: 0x0456 [0x6E] Unnamed NPC (ID: 17776783/0x010F408F) uses emote 22*
172: 0x045D [0x99] Wait for Unnamed NPC (ID: 17776783/0x010F408F) animation to complete
173: 0x0462 [0x1A] CALL_SUBROUTINE(address=0x9732)
174: 0x0465 [0x02] IF !(ExtData[1]->WorkLocal[11] == 1*) GOTO 0x0480
175: 0x046D [0x2B] Unnamed NPC (ID: 17776783/0x010F408F) [9742*]:
     "You mean to repair the mirror? Is it possible to fix an enchanted object like that?"
176: 0x0474 [0x23] WAIT_FOR_DIALOG_INTERACTION
177: 0x0475 [0x2B] Unnamed NPC (ID: 17776783/0x010F408F) [9754*]:
     "And what about the terrible powers it holds...? Why would you want to restore something like that...?"
178: 0x047C [0x23] WAIT_FOR_DIALOG_INTERACTION
179: 0x047D [0x01] GOTO 0x05A9
180: 0x0480 [0x02] IF !(ExtData[1]->WorkLocal[11] == 2*) GOTO 0x049B
181: 0x0488 [0x2B] Unnamed NPC (ID: 17776783/0x010F408F) [9743*]:
     "You're going to fix that mirror!? Do you really think it's possible?"
182: 0x048F [0x23] WAIT_FOR_DIALOG_INTERACTION
183: 0x0490 [0x2B] Unnamed NPC (ID: 17776783/0x010F408F) [9755*]:
     "What about the terrible powers it holds...? Why would you want to restore something like that...?"
184: 0x0497 [0x23] WAIT_FOR_DIALOG_INTERACTION
185: 0x0498 [0x01] GOTO 0x05A9
186: 0x049B [0x02] IF !(ExtData[1]->WorkLocal[11] == 3*) GOTO 0x04B6
187: 0x04A3 [0x2B] Unnamed NPC (ID: 17776783/0x010F408F) [9744*]:
     "So you want to fix that mirror? Will you be able to repair something with that kind of enchantment?"
188: 0x04AA [0x23] WAIT_FOR_DIALOG_INTERACTION
189: 0x04AB [0x2B] Unnamed NPC (ID: 17776783/0x010F408F) [9756*]:
     "And what about the terrible powers it holds...? Why would you want to restore something like that...?"
190: 0x04B2 [0x23] WAIT_FOR_DIALOG_INTERACTION
191: 0x04B3 [0x01] GOTO 0x05A9
192: 0x04B6 [0x02] IF !(ExtData[1]->WorkLocal[11] == 4*) GOTO 0x04D1
193: 0x04BE [0x2B] Unnamed NPC (ID: 17776783/0x010F408F) [9745*]:
     "You mean to repair the mirror? Can you truly restore such an unusual object to its original state?"
194: 0x04C5 [0x23] WAIT_FOR_DIALOG_INTERACTION
195: 0x04C6 [0x2B] Unnamed NPC (ID: 17776783/0x010F408F) [9757*]:
     "And what about the terrible powers it holds...? Why would you want to restore something like that...?"
196: 0x04CD [0x23] WAIT_FOR_DIALOG_INTERACTION
197: 0x04CE [0x01] GOTO 0x05A9
198: 0x04D1 [0x02] IF !(ExtData[1]->WorkLocal[11] == 5*) GOTO 0x04EC
199: 0x04D9 [0x2B] Unnamed NPC (ID: 17776783/0x010F408F) [9748*]:
     "You mean to repair the mirror? Is it possible to fix an enchanted object like that?"
200: 0x04E0 [0x23] WAIT_FOR_DIALOG_INTERACTION
201: 0x04E1 [0x2B] Unnamed NPC (ID: 17776783/0x010F408F) [9760*]:
     "And what about the terrible powers it holds...? Why would you want to restore something like that...?"
202: 0x04E8 [0x23] WAIT_FOR_DIALOG_INTERACTION
203: 0x04E9 [0x01] GOTO 0x05A9
204: 0x04EC [0x02] IF !(ExtData[1]->WorkLocal[11] == 6*) GOTO 0x0507
205: 0x04F4 [0x2B] Unnamed NPC (ID: 17776783/0x010F408F) [9749*]:
     "You're going to fix that mirror!? Do you really think it's possible?"
206: 0x04FB [0x23] WAIT_FOR_DIALOG_INTERACTION
207: 0x04FC [0x2B] Unnamed NPC (ID: 17776783/0x010F408F) [9761*]:
     "And what about the terrible powers it holds...? Why would you want to restore something like that...?"
208: 0x0503 [0x23] WAIT_FOR_DIALOG_INTERACTION
209: 0x0504 [0x01] GOTO 0x05A9
210: 0x0507 [0x02] IF !(ExtData[1]->WorkLocal[11] == 7*) GOTO 0x0522
211: 0x050F [0x2B] Unnamed NPC (ID: 17776783/0x010F408F) [9750*]:
     "So you want to fix that mirror? Will you be able to repair something with that kind of enchantment?"
212: 0x0516 [0x23] WAIT_FOR_DIALOG_INTERACTION
213: 0x0517 [0x2B] Unnamed NPC (ID: 17776783/0x010F408F) [9762*]:
     "And what about the terrible powers it holds...? Why would you want to restore something like that...?"
214: 0x051E [0x23] WAIT_FOR_DIALOG_INTERACTION
215: 0x051F [0x01] GOTO 0x05A9
216: 0x0522 [0x02] IF !(ExtData[1]->WorkLocal[11] == 8*) GOTO 0x053D
217: 0x052A [0x2B] Unnamed NPC (ID: 17776783/0x010F408F) [9751*]:
     "Why fix that one? Wouldn't it be easier just to buy a new mirror?"
218: 0x0531 [0x23] WAIT_FOR_DIALOG_INTERACTION
219: 0x0532 [0x2B] Unnamed NPC (ID: 17776783/0x010F408F) [9763*]:
     "And doesn't that thing have creepy powers...? Why would you want to restore something like that...?"
220: 0x0539 [0x23] WAIT_FOR_DIALOG_INTERACTION
221: 0x053A [0x01] GOTO 0x05A9
222: 0x053D [0x02] IF !(ExtData[1]->WorkLocal[11] == 9*) GOTO 0x0558
223: 0x0545 [0x2B] Unnamed NPC (ID: 17776783/0x010F408F) [9752*]:
     "You mean to repair the mirror? Can you truly restore such an unusual object to its original state?"
224: 0x054C [0x23] WAIT_FOR_DIALOG_INTERACTION
225: 0x054D [0x2B] Unnamed NPC (ID: 17776783/0x010F408F) [9764*]:
     "And what about the terrible powers it holds...? Why would you want to restore something like that...?"
226: 0x0554 [0x23] WAIT_FOR_DIALOG_INTERACTION
227: 0x0555 [0x01] GOTO 0x05A9
228: 0x0558 [0x02] IF !(ExtData[1]->WorkLocal[11] == 10*) GOTO 0x0573
229: 0x0560 [0x2B] Unnamed NPC (ID: 17776783/0x010F408F) [9746*]:
     "You want to fix the mirror? Is it possible to repair something like that?"
230: 0x0567 [0x23] WAIT_FOR_DIALOG_INTERACTION
231: 0x0568 [0x2B] Unnamed NPC (ID: 17776783/0x010F408F) [9758*]:
     "And what about the terrible powers it holds...? Why would you want to restore something like that...?"
232: 0x056F [0x23] WAIT_FOR_DIALOG_INTERACTION
233: 0x0570 [0x01] GOTO 0x05A9
234: 0x0573 [0x02] IF !(ExtData[1]->WorkLocal[11] == 11*) GOTO 0x058E
235: 0x057B [0x2B] Unnamed NPC (ID: 17776783/0x010F408F) [9747*]:
     "Oh, you're planning to repair the mirror? Would it be possible to restore such a magical object?"
236: 0x0582 [0x23] WAIT_FOR_DIALOG_INTERACTION
237: 0x0583 [0x2B] Unnamed NPC (ID: 17776783/0x010F408F) [9759*]:
     "And what about the terrible powers it holds...? Why would you want to restore something like that...?"
238: 0x058A [0x23] WAIT_FOR_DIALOG_INTERACTION
239: 0x058B [0x01] GOTO 0x05A9
240: 0x058E [0x02] IF !(ExtData[1]->WorkLocal[11] == 12*) GOTO 0x05A9
241: 0x0596 [0x2B] Unnamed NPC (ID: 17776783/0x010F408F) [9753*]:
     "You wish to repair the mirror? Such an object will not be easily restored."
242: 0x059D [0x23] WAIT_FOR_DIALOG_INTERACTION
243: 0x059E [0x2B] Unnamed NPC (ID: 17776783/0x010F408F) [9765*]:
     "And what about the terrible powers it holds...? Why would you want to restore something like that...?"
244: 0x05A5 [0x23] WAIT_FOR_DIALOG_INTERACTION
245: 0x05A6 [0x01] GOTO 0x05A9

SUBROUTINE_05A9:
246: 0x05A9 [0x52] END_LOAD_SCHEDULER: End scheduler "s023" with entities [EventEntity, EventEntity], work=194*
247: 0x05B8 [0x52] END_LOAD_SCHEDULER: End scheduler "s026" with entities [EventEntity, EventEntity], work=194*
248: 0x05C7 [0x52] END_LOAD_SCHEDULER: End scheduler "s028" with entities [EventEntity, EventEntity], work=194*
249: 0x05D6 [0x45] LOAD_SCHEDULED_TASK: Load scheduler "s024" with entities [EventEntity, EventEntity], work=[194*, 0*]
250: 0x05E7 [0x66] LOAD_EXT_SCHEDULER_MAIN: Load scheduler "dis0" with entities [Luto Mewrilah (ID: 17776780/0x010F408C), Luto Mewrilah (ID: 17776780/0x010F408C)], work=52*
251: 0x05F6 [0x2B] Luto Mewrilah (ID: 17776780/0x010F408C) [9766*]:
     "<Sigh>... You just don't understand the potential."
252: 0x05FD [0x23] WAIT_FOR_DIALOG_INTERACTION
253: 0x05FE [0x2B] Luto Mewrilah (ID: 17776780/0x010F408C) [9767*]:
     "That mirror is a treasure of the Near East. The price will rise exponentially if it's in mint condition."
254: 0x0605 [0x23] WAIT_FOR_DIALOG_INTERACTION
255: 0x0606 [0x2B] Luto Mewrilah (ID: 17776780/0x010F408C) [9768*]:
     "It may be a frightful object, but that's just one more aspect that makes it valuable to collectors."
256: 0x060D [0x23] WAIT_FOR_DIALOG_INTERACTION
257: 0x060E [0x6E] Unnamed NPC (ID: 17776783/0x010F408F) uses emote 6*
258: 0x0615 [0x99] Wait for Unnamed NPC (ID: 17776783/0x010F408F) animation to complete
259: 0x061A [0x1A] CALL_SUBROUTINE(address=0x9732)
260: 0x061D [0x02] IF !(ExtData[1]->WorkLocal[11] == 1*) GOTO 0x0630
261: 0x0625 [0x2B] Unnamed NPC (ID: 17776783/0x010F408F) [9769*]:
     "I see... Well, you're the expert..."
262: 0x062C [0x23] WAIT_FOR_DIALOG_INTERACTION
263: 0x062D [0x01] GOTO 0x0701
264: 0x0630 [0x02] IF !(ExtData[1]->WorkLocal[11] == 2*) GOTO 0x0643
265: 0x0638 [0x2B] Unnamed NPC (ID: 17776783/0x010F408F) [9770*]:
     "I see... Well, you're the expert..."
266: 0x063F [0x23] WAIT_FOR_DIALOG_INTERACTION
267: 0x0640 [0x01] GOTO 0x0701
268: 0x0643 [0x02] IF !(ExtData[1]->WorkLocal[11] == 3*) GOTO 0x0656
269: 0x064B [0x2B] Unnamed NPC (ID: 17776783/0x010F408F) [9771*]:
     "I see... I'm not convinced, but I guess I'll help you."
270: 0x0652 [0x23] WAIT_FOR_DIALOG_INTERACTION
271: 0x0653 [0x01] GOTO 0x0701
272: 0x0656 [0x02] IF !(ExtData[1]->WorkLocal[11] == 4*) GOTO 0x0669
273: 0x065E [0x2B] Unnamed NPC (ID: 17776783/0x010F408F) [9772*]:
     "I see... Well, if you're adamant about this, I suppose I have no choice but to help you."
274: 0x0665 [0x23] WAIT_FOR_DIALOG_INTERACTION
275: 0x0666 [0x01] GOTO 0x0701
276: 0x0669 [0x02] IF !(ExtData[1]->WorkLocal[11] == 5*) GOTO 0x067C
277: 0x0671 [0x2B] Unnamed NPC (ID: 17776783/0x010F408F) [9775*]:
     "I see... Well, you're the expert..."
278: 0x0678 [0x23] WAIT_FOR_DIALOG_INTERACTION
279: 0x0679 [0x01] GOTO 0x0701
280: 0x067C [0x02] IF !(ExtData[1]->WorkLocal[11] == 6*) GOTO 0x068F
281: 0x0684 [0x2B] Unnamed NPC (ID: 17776783/0x010F408F) [9776*]:
     "Hmm... Oh well, let's see what happens!"
282: 0x068B [0x23] WAIT_FOR_DIALOG_INTERACTION
283: 0x068C [0x01] GOTO 0x0701
284: 0x068F [0x02] IF !(ExtData[1]->WorkLocal[11] == 7*) GOTO 0x06A2
285: 0x0697 [0x2B] Unnamed NPC (ID: 17776783/0x010F408F) [9777*]:
     "I can't say I agree with you, but I'll help you out."
286: 0x069E [0x23] WAIT_FOR_DIALOG_INTERACTION
287: 0x069F [0x01] GOTO 0x0701
288: 0x06A2 [0x02] IF !(ExtData[1]->WorkLocal[11] == 8*) GOTO 0x06B5
289: 0x06AA [0x2B] Unnamed NPC (ID: 17776783/0x010F408F) [9778*]:
     "Hmmm... Well, you're the expert, Luto!"
290: 0x06B1 [0x23] WAIT_FOR_DIALOG_INTERACTION
291: 0x06B2 [0x01] GOTO 0x0701
292: 0x06B5 [0x02] IF !(ExtData[1]->WorkLocal[11] == 9*) GOTO 0x06C8
293: 0x06BD [0x2B] Unnamed NPC (ID: 17776783/0x010F408F) [9779*]:
     "I see... Well, if you're adamant about this, I suppose I have no choice but to help you."
294: 0x06C4 [0x23] WAIT_FOR_DIALOG_INTERACTION
295: 0x06C5 [0x01] GOTO 0x0701
296: 0x06C8 [0x02] IF !(ExtData[1]->WorkLocal[11] == 10*) GOTO 0x06DB
297: 0x06D0 [0x2B] Unnamed NPC (ID: 17776783/0x010F408F) [9773*]:
     "I'm not sure about this, but if you say so..."
298: 0x06D7 [0x23] WAIT_FOR_DIALOG_INTERACTION
299: 0x06D8 [0x01] GOTO 0x0701
300: 0x06DB [0x02] IF !(ExtData[1]->WorkLocal[11] == 11*) GOTO 0x06EE
301: 0x06E3 [0x2B] Unnamed NPC (ID: 17776783/0x010F408F) [9774*]:
     "Hmmm... Well, I'm not one to argue."
302: 0x06EA [0x23] WAIT_FOR_DIALOG_INTERACTION
303: 0x06EB [0x01] GOTO 0x0701
304: 0x06EE [0x02] IF !(ExtData[1]->WorkLocal[11] == 12*) GOTO 0x0701
305: 0x06F6 [0x2B] Unnamed NPC (ID: 17776783/0x010F408F) [9780*]:
     "Is that so...? I still have my doubts...but I'll help you."
306: 0x06FD [0x23] WAIT_FOR_DIALOG_INTERACTION
307: 0x06FE [0x01] GOTO 0x0701

SUBROUTINE_0701:
308: 0x0701 [0x52] END_LOAD_SCHEDULER: End scheduler "s024" with entities [EventEntity, EventEntity], work=194*
309: 0x0710 [0x45] LOAD_SCHEDULED_TASK: Load scheduler "s025" with entities [EventEntity, EventEntity], work=[194*, 0*]
310: 0x0721 [0x4A] Luto Mewrilah (ID: 17776780/0x010F408C) looks at LocalPlayer
311: 0x072A [0x1C] WAIT(30* ticks)
312: 0x072D [0x66] LOAD_EXT_SCHEDULER_MAIN: Load scheduler "tlk0" with entities [Luto Mewrilah (ID: 17776780/0x010F408C), Luto Mewrilah (ID: 17776780/0x010F408C)], work=50*
313: 0x073C [0x2B] Luto Mewrilah (ID: 17776780/0x010F408C) [9781*]:
     "The mirror is made with a rrrare, black-tinted metal. That should help start you on your search."
314: 0x0743 [0x23] WAIT_FOR_DIALOG_INTERACTION
315: 0x0744 [0x2B] Luto Mewrilah (ID: 17776780/0x010F408C) [9782*]:
     "I want to hear every scrrrap of information you can dig up. Find out everything you can."
316: 0x074B [0x23] WAIT_FOR_DIALOG_INTERACTION
317: 0x074C [0x66] LOAD_EXT_SCHEDULER_MAIN: Load scheduler "tlk2" with entities [Luto Mewrilah (ID: 17776780/0x010F408C), Luto Mewrilah (ID: 17776780/0x010F408C)], work=50*
318: 0x075B [0x1A] CALL_SUBROUTINE(address=0x81A5)
319: 0x075E [0x52] END_LOAD_SCHEDULER: End scheduler "s025" with entities [EventEntity, EventEntity], work=34*
320: 0x076D [0x4E] SET_ENTITY_HIDE_FLAG: Hide Unnamed NPC (ID: 17776783/0x010F408F)
321: 0x0773 [0x2F] Unnamed NPC (ID: 17776783/0x010F408F)->Render.Flags0 |= 0x80000 // Bit 19
322: 0x0779 [0x1C] WAIT(120* ticks)
323: 0x077C [0x46] CAMERA_CONTROL: Restore default settings
324: 0x077E [0x1A] CALL_SUBROUTINE(address=0x81D8)
325: 0x0781 [0x21] END_EVENT
326: 0x0782 [0x00] END_REQSTACK()
```

### Event 10064

#### Metadata

| Field        | Value      |
|--------------|------------|
| Entrypoint   | 0x0783     |
| Data Size    | 4161 bytes |
| Instructions | 637        |

```
      00 01 02 03 04 05 06 07  08 09 0A 0B 0C 0D 0E 0F
      -- -- -- -- -- -- -- --  -- -- -- -- -- -- -- --
0780:          42 1A 84 81 46  01 92 01 8C 40 0F 01 38     B...F....@..8
0790: 00 80 29 19 6B 40 0F 01  03 2F 00 8F 40 0F 01 29  ..).k@.../..@..)
07A0: 05 8F 40 0F 01 11 4E 00  8F 40 0F 01 2F 00 90 40  ..@...N..@../..@
07B0: 0F 01 4E 00 90 40 0F 01  4E 00 A0 40 0F 01 29 0A  ..N..@..N..@..).
07C0: 8F 40 0F 01 32 29 0F F0  FF FF 7F 53 80 F8 FF FF  .@..2).....S....
07D0: 7F 4A F0 FF FF 7F 8C 40  0F 01 4A 8C 40 0F 01 F0  .J.....@..J.@...
07E0: FF FF 7F 45 01 80 F8 FF  FF 7F F8 FF FF 7F 73 30  ...E..........s0
07F0: 35 37 02 80 1C 58 80 27  0F 8F 40 0F 01 35 1A EA  57...X.'..@..5..
0800: 81 1C 03 80 1A 32 97 02  0B 00 06 80 80 1A 08 2B  .....2.........+
0810: 8F 40 0F 01 59 80 23 01  EB 08 02 0B 00 08 80 80  .@..Y.#.........
0820: 2D 08 2B 8F 40 0F 01 5A  80 23 01 EB 08 02 0B 00  -.+.@..Z.#......
0830: 0A 80 80 40 08 2B 8F 40  0F 01 5B 80 23 01 EB 08  ...@.+.@..[.#...
0840: 02 0B 00 0C 80 80 53 08  2B 8F 40 0F 01 5C 80 23  ......S.+.@..\.#
0850: 01 EB 08 02 0B 00 0E 80  80 66 08 2B 8F 40 0F 01  .........f.+.@..
0860: 5D 80 23 01 EB 08 02 0B  00 10 80 80 79 08 2B 8F  ].#.........y.+.
0870: 40 0F 01 5E 80 23 01 EB  08 02 0B 00 12 80 80 8C  @..^.#..........
0880: 08 2B 8F 40 0F 01 5F 80  23 01 EB 08 02 0B 00 1C  .+.@.._.#.......
0890: 80 80 9F 08 2B 8F 40 0F  01 60 80 23 01 EB 08 02  ....+.@..`.#....
08A0: 0B 00 1E 80 80 B2 08 2B  8F 40 0F 01 61 80 23 01  .......+.@..a.#.
08B0: EB 08 02 0B 00 20 80 80  C5 08 2B 8F 40 0F 01 62  ..... ....+.@..b
08C0: 80 23 01 EB 08 02 0B 00  22 80 80 D8 08 2B 8F 40  .#......"....+.@
08D0: 0F 01 63 80 23 01 EB 08  02 0B 00 24 80 80 EB 08  ..c.#......$....
08E0: 2B 8F 40 0F 01 64 80 23  01 EB 08 4A 8C 40 0F 01  +.@..d.#...J.@..
08F0: 8F 40 0F 01 6F 76 8C 40  0F 01 1C 53 80 2B 8C 40  .@..ov.@...S.+.@
0900: 0F 01 65 80 23 27 14 8C  40 0F 01 34 4A 8F 40 0F  ..e.#'..@..4J.@.
0910: 01 8C 40 0F 01 1C 66 80  4A F0 FF FF 7F 8C 40 0F  ..@...f.J.....@.
0920: 01 2A 14 8C 40 0F 01 1C  66 80 66 67 80 8C 40 0F  .*..@...f.fg..@.
