# 17776900

## Common Data

| Field            | Value                 |
|------------------|-----------------------|
| Zone             | Upper Jeuno (ID: 244) |
| Block Size       | 336 bytes             |
| Total Events     | 6                     |
| References Count | 13                    |

## List of Events

| Event ID                 | Entrypoint   |   Size |   Instructions |
|--------------------------|--------------|--------|----------------|
| [65535](#event-65535)    | 0x0000       |      1 |              1 |
| [10232](#event-10232)    | 0x0001       |      1 |              1 |
| [10234](#event-10234)    | 0x0002       |      1 |              1 |
| [10236](#event-10236)    | 0x0003       |     32 |              8 |
| [10235](#event-10235)    | 0x0023       |    165 |             33 |
| [65535.1](#event-655351) | 0x00C8       |     41 |              8 |

## DAT References (imed_data)

|   Index | Hex Value   |   Dec Value |
|---------|-------------|-------------|
|       0 | 0x0334      |         820 |
|       1 | 0x0000      |           0 |
|       2 | 0x1997      |        6551 |
|       3 | 0x8001      |       32769 |
|       4 | 0xFFFF49DA  |  4294920666 |
|       5 | 0x17854     |       96340 |
|       6 | 0x1FA4      |        8100 |
|       7 | 0x0001      |           1 |
|       8 | 0x0004      |           4 |
|       9 | 0x3614      |       13844 |
|      10 | 0x1E78      |        7800 |
|      11 | 0x0040      |          64 |
|      12 | 0x1000      |        4096 |

## String References

- **6551**: Obtained $0 gil.
- **13844**: x=$0 y=$1 z=$2

## Events

### Event 65535

#### Metadata

| Field        | Value   |
|--------------|---------|
| Entrypoint   | 0x0000  |
| Data Size    | 1 bytes |
| Instructions | 1       |

```
      00 01 02 03 04 05 06 07  08 09 0A 0B 0C 0D 0E 0F
      -- -- -- -- -- -- -- --  -- -- -- -- -- -- -- --
0000: 00                                                .               
```

#### Opcodes

```
  0: 0x0000 [0x00] END_REQSTACK()
```

### Event 10232

#### Metadata

| Field        | Value   |
|--------------|---------|
| Entrypoint   | 0x0001  |
| Data Size    | 1 bytes |
| Instructions | 1       |

```
      00 01 02 03 04 05 06 07  08 09 0A 0B 0C 0D 0E 0F
      -- -- -- -- -- -- -- --  -- -- -- -- -- -- -- --
0000:    00                                              .              
```

#### Opcodes

```
  0: 0x0001 [0x00] END_REQSTACK()
```

### Event 10234

#### Metadata

| Field        | Value   |
|--------------|---------|
| Entrypoint   | 0x0002  |
| Data Size    | 1 bytes |
| Instructions | 1       |

```
      00 01 02 03 04 05 06 07  08 09 0A 0B 0C 0D 0E 0F
      -- -- -- -- -- -- -- --  -- -- -- -- -- -- -- --
0000:       00                                            .             
```

#### Opcodes

```
  0: 0x0002 [0x00] END_REQSTACK()
```

### Event 10236

#### Metadata

| Field        | Value    |
|--------------|----------|
| Entrypoint   | 0x0003   |
| Data Size    | 32 bytes |
| Instructions | 8        |

```
      00 01 02 03 04 05 06 07  08 09 0A 0B 0C 0D 0E 0F
      -- -- -- -- -- -- -- --  -- -- -- -- -- -- -- --
0000:          46 01 45 00 80  F0 FF FF 7F F0 FF FF 7F     F.E..........
0010: 73 74 73 30 01 80 03 02  10 01 80 1D 02 80 23 46  sts0..........#F
0020: 00 21 00                                          .!.             
```

#### Opcodes

```
  0: 0x0003 [0x46] CAMERA_CONTROL: Disable user control
  1: 0x0005 [0x45] LOAD_SCHEDULED_TASK: Load scheduler "sts0" with entities [LocalPlayer, LocalPlayer], work=[820*, 0*]
  2: 0x0016 [0x03] Work_Zone[2] = 0*
  3: 0x001B [0x1D] PRINT_EVENT_MESSAGE(message_id=6551*)
    → "Obtained $0 gil."
  4: 0x001E [0x23] WAIT_FOR_DIALOG_INTERACTION
  5: 0x001F [0x46] CAMERA_CONTROL: Restore default settings
  6: 0x0021 [0x21] END_EVENT
  7: 0x0022 [0x00] END_REQSTACK()
```

### Event 10235

#### Metadata

| Field        | Value     |
|--------------|-----------|
| Entrypoint   | 0x0023    |
| Data Size    | 165 bytes |
| Instructions | 24        |

```
      00 01 02 03 04 05 06 07  08 09 0A 0B 0C 0D 0E 0F
      -- -- -- -- -- -- -- --  -- -- -- -- -- -- -- --
0020:          38 03 80 36 04  80 05 80 06 80 03 01 00     8..6.........
0030: 01 80 71 12 07 80 08 80  71 13 02 00 02 02 00 01  ..q.....q.......
0040: 80 01 49 00 03 03 00 02  00 71 12 07 80 08 80 71  ..I......q.....q
0050: 13 02 00 02 02 00 01 80  01 60 00 03 04 00 02 00  .........`......
0060: 71 12 07 80 08 80 71 13  02 00 02 02 00 01 80 01  q.....q.........
0070: 77 00 03 05 00 02 00 03  02 10 03 00 03 03 10 04  w...............
0080: 00 03 04 10 05 00 D8 01  04 41 0F 01 03 00 D8 02  .........A......
0090: 04 41 0F 01 04 00 D8 03  04 41 0F 01 05 00 48 09  .A.......A....H.
00A0: 80 23 01 32 00 36 04 80  05 80 0A 80 1D 02 80 23  .#.2.6.........#
00B0: 2C F8 FF FF 7F F8 FF FF  7F 73 70 66 66 1D 02 80  ,........spff...
00C0: 23 03 01 00 07 80 21 00                           #.....!.        
```

#### Opcodes

```
  0: 0x0023 [0x38] SET_CLIENT_EVENT_MODE(mode=32769*)
  1: 0x0026 [0x36] SET_ENTITY_EVENT_POSITION(pos_x=-46.630*, pos_z=96.340*, pos_y=8.100*)
  2: 0x002D [0x03] ExtData[1]->WorkLocal[1] = 0*
  3: 0x0032 [0x71] USER_INPUT_HANDLER: Open numerical input with params (work=[1*, 4*])
  4: 0x0038 [0x71] USER_INPUT_HANDLER: Process numerical input B (work=ExtData[1]->WorkLocal[2])
  5: 0x003C [0x02] IF !(ExtData[1]->WorkLocal[2] == 0*) GOTO 0x0049
  6: 0x0044 [0x03] ExtData[1]->WorkLocal[3] = ExtData[1]->WorkLocal[2]
  7: 0x0049 [0x71] USER_INPUT_HANDLER: Open numerical input with params (work=[1*, 4*])
  8: 0x004F [0x71] USER_INPUT_HANDLER: Process numerical input B (work=ExtData[1]->WorkLocal[2])
  9: 0x0053 [0x02] IF !(ExtData[1]->WorkLocal[2] == 0*) GOTO 0x0060
 10: 0x005B [0x03] ExtData[1]->WorkLocal[4] = ExtData[1]->WorkLocal[2]
 11: 0x0060 [0x71] USER_INPUT_HANDLER: Open numerical input with params (work=[1*, 4*])
 12: 0x0066 [0x71] USER_INPUT_HANDLER: Process numerical input B (work=ExtData[1]->WorkLocal[2])
 13: 0x006A [0x02] IF !(ExtData[1]->WorkLocal[2] == 0*) GOTO 0x0077
 14: 0x0072 [0x03] ExtData[1]->WorkLocal[5] = ExtData[1]->WorkLocal[2]
 15: 0x0077 [0x03] Work_Zone[2] = ExtData[1]->WorkLocal[3]
 16: 0x007C [0x03] Work_Zone[3] = ExtData[1]->WorkLocal[4]
 17: 0x0081 [0x03] Work_Zone[4] = ExtData[1]->WorkLocal[5]
 18: 0x0086 [0xD8] SET_ENTITY_EVENT_DIR: Set Unnamed NPC (ID: 17776900/0x010F4104) EventDir[0] = ExtData[1]->WorkLocal[3]
 19: 0x008E [0xD8] SET_ENTITY_EVENT_DIR: Set Unnamed NPC (ID: 17776900/0x010F4104) EventDir[1] = ExtData[1]->WorkLocal[4]
 20: 0x0096 [0xD8] SET_ENTITY_EVENT_DIR: Set Unnamed NPC (ID: 17776900/0x010F4104) EventDir[2] = ExtData[1]->WorkLocal[5]
 21: 0x009E [0x48] [System] [13844*]:
    → "x=$0 y=$1 z=$2"
 22: 0x00A1 [0x23] WAIT_FOR_DIALOG_INTERACTION
 23: 0x00A2 [0x01] GOTO 0x0032
```

#### Data or dead code:

```
# Dead code (unreachable instructions):
     0x00A5 [0x36] SET_ENTITY_EVENT_POSITION(pos_x=-46.630*, pos_z=96.340*, pos_y=7.800*)
     0x00AC [0x1D] PRINT_EVENT_MESSAGE(message_id=6551*)
    → "Obtained $0 gil."
     0x00AF [0x23] WAIT_FOR_DIALOG_INTERACTION
     0x00B0 [0x2C] CREATE_SCHEDULER_TASK: Create scheduler "spff" with entities [EventEntity, EventEntity]
     0x00BD [0x1D] PRINT_EVENT_MESSAGE(message_id=6551*)
    → "Obtained $0 gil."
     0x00C0 [0x23] WAIT_FOR_DIALOG_INTERACTION
     0x00C1 [0x03] ExtData[1]->WorkLocal[1] = 1*
     0x00C6 [0x21] END_EVENT
     0x00C7 [0x00] END_REQSTACK()
```

### Event 65535.1

#### Metadata

| Field        | Value    |
|--------------|----------|
| Entrypoint   | 0x00C8   |
| Data Size    | 41 bytes |
| Instructions | 8        |

```
      00 01 02 03 04 05 06 07  08 09 0A 0B 0C 0D 0E 0F
      -- -- -- -- -- -- -- --  -- -- -- -- -- -- -- --
00C0:                          02 01 00 01 80 00 F0 00          ........
00D0: D8 01 04 41 0F 01 00 00  07 00 00 0B 80 02 00 00  ...A............
00E0: 0C 80 02 EA 00 03 00 00  01 80 1C 07 80 01 C8 00  ................
00F0: 00                                                .               
```

#### Opcodes

```
  0: 0x00C8 [0x02] IF !(ExtData[1]->WorkLocal[1] == 0*) GOTO 0x00F0
  1: 0x00D0 [0xD8] SET_ENTITY_EVENT_DIR: Set Unnamed NPC (ID: 17776900/0x010F4104) EventDir[0] = ExtData[1]->WorkLocal[0]
  2: 0x00D8 [0x07] ExtData[1]->WorkLocal[0] += 64*
  3: 0x00DD [0x02] IF !(ExtData[1]->WorkLocal[0] <= 4096*) GOTO 0x00EA
  4: 0x00E5 [0x03] ExtData[1]->WorkLocal[0] = 0*
  5: 0x00EA [0x1C] WAIT(1* ticks)
  6: 0x00ED [0x01] GOTO 0x00C8
  7: 0x00F0 [0x00] END_REQSTACK()
```
