# 17776695 - Guslam

## Common Data

| Field            | Value                 |
|------------------|-----------------------|
| Zone             | Upper Jeuno (ID: 244) |
| Block Size       | 416 bytes             |
| Total Events     | 12                    |
| References Count | 16                    |

## List of Events

| Event ID                 | Entrypoint   |   Size |   Instructions |
|--------------------------|--------------|--------|----------------|
| [65535](#event-65535)    | 0x0000       |      1 |              1 |
| [154](#event-154)        | 0x0001       |     17 |              7 |
| [155](#event-155)        | 0x0012       |      1 |              1 |
| [65535.1](#event-655351) | 0x0013       |     10 |              2 |
| [43](#event-43)          | 0x001D       |     44 |             13 |
| [26](#event-26)          | 0x0049       |     25 |              9 |
| [156](#event-156)        | 0x0062       |     94 |             17 |
| [65535.2](#event-655352) | 0x00C0       |     19 |              3 |
| [65535.3](#event-655353) | 0x00D3       |      9 |              3 |
| [65535.4](#event-655354) | 0x00DC       |     19 |              3 |
| [65535.5](#event-655355) | 0x00EF       |     19 |              3 |
| [65535.6](#event-655356) | 0x0102       |     29 |              3 |

## DAT References (imed_data)

|   Index | Hex Value   |   Dec Value |
|---------|-------------|-------------|
|       0 | 0x1E03      |        7683 |
|       1 | 0xFFFFEF78  |  4294963064 |
|       2 | 0xC252      |       49746 |
|       3 | 0x0513      |        1299 |
|       4 | 0x05B7      |        1463 |
|       5 | 0x000F      |          15 |
|       6 | 0x1E0F      |        7695 |
|       7 | 0x1E11      |        7697 |
|       8 | 0x1E12      |        7698 |
|       9 | 0x1E14      |        7700 |
|      10 | 0x1E15      |        7701 |
|      11 | 0x003C      |          60 |
|      12 | 0x1E19      |        7705 |
|      13 | 0x1E1A      |        7706 |
|      14 | 0x1E1B      |        7707 |
|      15 | 0x001E      |          30 |

## Events

### Event 65535

#### Metadata

| Field        | Value   |
|--------------|---------|
| Entrypoint   | 0x0000  |
| Data Size    | 1 bytes |
| Instructions | 1       |

```
      00 01 02 03 04 05 06 07  08 09 0A 0B 0C 0D 0E 0F
      -- -- -- -- -- -- -- --  -- -- -- -- -- -- -- --
0000: 00                                                .               
```

#### Opcodes

```
  0: 0x0000 [0x00] END_REQSTACK()
```

### Event 154

#### Metadata

| Field        | Value    |
|--------------|----------|
| Entrypoint   | 0x0001   |
| Data Size    | 17 bytes |
| Instructions | 7        |

```
      00 01 02 03 04 05 06 07  08 09 0A 0B 0C 0D 0E 0F
      -- -- -- -- -- -- -- --  -- -- -- -- -- -- -- --
0000:    1E F0 FF FF 7F 6F 70  2B 37 40 0F 01 00 80 23   .....op+7@....#
0010: 21 00                                             !.              
```

#### Opcodes

```
  0: 0x0001 [0x1E] EventEntity looks at LocalPlayer and starts talking
  1: 0x0006 [0x6F] WAIT_FRAME_DELAY: Yield until WaitTime reaches zero
  2: 0x0007 [0x70] WAIT_ENTITY_RENDER_FLAG: Wait while EventEntity->Render.Flags3 bit 2 is set (cancel turn if not)
  3: 0x0008 [0x2B] Guslam (ID: 17776695/0x010F4037) [7683*]:
    → "Hello. Head to the counter for service."
  4: 0x000F [0x23] WAIT_FOR_DIALOG_INTERACTION
  5: 0x0010 [0x21] END_EVENT
  6: 0x0011 [0x00] END_REQSTACK()
```

### Event 155

#### Metadata

| Field        | Value   |
|--------------|---------|
| Entrypoint   | 0x0012  |
| Data Size    | 1 bytes |
| Instructions | 1       |

```
      00 01 02 03 04 05 06 07  08 09 0A 0B 0C 0D 0E 0F
      -- -- -- -- -- -- -- --  -- -- -- -- -- -- -- --
0010:       00                                            .             
```

#### Opcodes

```
  0: 0x0012 [0x00] END_REQSTACK()
```

### Event 65535.1

#### Metadata

| Field        | Value    |
|--------------|----------|
| Entrypoint   | 0x0013   |
| Data Size    | 10 bytes |
| Instructions | 2        |

```
      00 01 02 03 04 05 06 07  08 09 0A 0B 0C 0D 0E 0F
      -- -- -- -- -- -- -- --  -- -- -- -- -- -- -- --
0010:          37 01 80 02 80  03 80 04 80 00              7.........   
```

#### Opcodes

```
  0: 0x0013 [0x37] UPDATE_EVENT_POSITION_AND_DIR: x=-4.232*, z=49.746*, y=1.299*, direction=128.6°*
  1: 0x001C [0x00] END_REQSTACK()
```

### Event 43

#### Metadata

| Field        | Value    |
|--------------|----------|
| Entrypoint   | 0x001D   |
| Data Size    | 44 bytes |
| Instructions | 13       |

```
      00 01 02 03 04 05 06 07  08 09 0A 0B 0C 0D 0E 0F
      -- -- -- -- -- -- -- --  -- -- -- -- -- -- -- --
0010:                                         1E F0 FF               ...
0020: FF 7F 6F 70 02 09 10 05  80 02 2F 00 06 09 10 2B  ..op....../....+
0030: 37 40 0F 01 06 80 23 2B  37 40 0F 01 07 80 23 2B  7@....#+7@....#+
0040: 37 40 0F 01 08 80 23 21  00                       7@....#!.       
```

#### Opcodes

```
  0: 0x001D [0x1E] EventEntity looks at LocalPlayer and starts talking
  1: 0x0022 [0x6F] WAIT_FRAME_DELAY: Yield until WaitTime reaches zero
  2: 0x0023 [0x70] WAIT_ENTITY_RENDER_FLAG: Wait while EventEntity->Render.Flags3 bit 2 is set (cancel turn if not)
  3: 0x0024 [0x02] IF !(Work_Zone[9] <= 15*) GOTO 0x002F
  4: 0x002C [0x06] Work_Zone[9] = 0
  5: 0x002F [0x2B] Guslam (ID: 17776695/0x010F4037) [7695*]:
    → "The hands of Borghertz were lost in the war, but people say they now rest somewhere in [a dungeon somewhere/the Eldieme Necropolis/the Crawlers' Nest/Beadeaux/Garlaige Citadel/the Eldieme Necropolis/Davoi/the Eldieme Necropolis/the Eldieme Necropolis/the Crawlers' Nest/Castle Zvahl/Garlaige Citadel/the Kuftal Tunnel/Ifrit's Cauldron/the Boyahda Tree/the Sea Serpent Grotto]."
  6: 0x0036 [0x23] WAIT_FOR_DIALOG_INTERACTION
  7: 0x0037 [0x2B] Guslam (ID: 17776695/0x010F4037) [7697*]:
    → "That's about all I know. You can go search that dungeon for yourself if you've got nothing better to do."
  8: 0x003E [0x23] WAIT_FOR_DIALOG_INTERACTION
  9: 0x003F [0x2B] Guslam (ID: 17776695/0x010F4037) [7698*]:
    → "We artisans believe that artifacts like the hands of Borghertz still rest in dungeons across Vana'diel. An adventurer like you should be able to find them."
 10: 0x0046 [0x23] WAIT_FOR_DIALOG_INTERACTION
 11: 0x0047 [0x21] END_EVENT
 12: 0x0048 [0x00] END_REQSTACK()
```

### Event 26

#### Metadata

| Field        | Value    |
|--------------|----------|
| Entrypoint   | 0x0049   |
| Data Size    | 25 bytes |
| Instructions | 9        |

```
      00 01 02 03 04 05 06 07  08 09 0A 0B 0C 0D 0E 0F
      -- -- -- -- -- -- -- --  -- -- -- -- -- -- -- --
0040:                             1E F0 FF FF 7F 6F 70           .....op
0050: 2B 37 40 0F 01 09 80 23  2B 37 40 0F 01 0A 80 23  +7@....#+7@....#
0060: 21 00                                             !.              
```

#### Opcodes

```
  0: 0x0049 [0x1E] EventEntity looks at LocalPlayer and starts talking
  1: 0x004E [0x6F] WAIT_FRAME_DELAY: Yield until WaitTime reaches zero
  2: 0x004F [0x70] WAIT_ENTITY_RENDER_FLAG: Wait while EventEntity->Render.Flags3 bit 2 is set (cancel turn if not)
  3: 0x0050 [0x2B] Guslam (ID: 17776695/0x010F4037) [7700*]:
    → "Could it be!? Why, they're soiled and rusty, but the craftsmanship! Indeed these are the work of Borghertz!"
  4: 0x0057 [0x23] WAIT_FOR_DIALOG_INTERACTION
  5: 0x0058 [0x2B] Guslam (ID: 17776695/0x010F4037) [7701*]:
    → "But they are beyond my skill. I cannot repair them."
  6: 0x005F [0x23] WAIT_FOR_DIALOG_INTERACTION
  7: 0x0060 [0x21] END_EVENT
  8: 0x0061 [0x00] END_REQSTACK()
```

### Event 156

#### Metadata

| Field        | Value    |
|--------------|----------|
| Entrypoint   | 0x0062   |
| Data Size    | 94 bytes |
| Instructions | 17       |

```
      00 01 02 03 04 05 06 07  08 09 0A 0B 0C 0D 0E 0F
      -- -- -- -- -- -- -- --  -- -- -- -- -- -- -- --
0060:       20 01 42 1E F0 FF  FF 7F 6F 70 66 0B 80 F8     .B.....opf...
0070: FF FF 7F F8 FF FF 7F 74  6C 6B 30 2B 37 40 0F 01  .......tlk0+7@..
0080: 0C 80 23 66 0B 80 F8 FF  FF 7F F8 FF FF 7F 74 68  ..#f..........th
0090: 6B 31 2B 37 40 0F 01 0D  80 23 53 F8 FF FF 7F F8  k1+7@....#S.....
00A0: FF FF 7F 74 68 6B 31 66  0B 80 F8 FF FF 7F F8 FF  ...thk1f........
00B0: FF 7F 74 68 6B 32 2B 37  40 0F 01 0E 80 23 21 00  ..thk2+7@....#!.
```

#### Opcodes

```
  0: 0x0062 [0x20] SET_CLI_EVENT_UC_FLAG: Lock player control
  1: 0x0064 [0x42] SET_CLI_EVENT_CANCEL_DATA()
  2: 0x0065 [0x1E] EventEntity looks at LocalPlayer and starts talking
  3: 0x006A [0x6F] WAIT_FRAME_DELAY: Yield until WaitTime reaches zero
  4: 0x006B [0x70] WAIT_ENTITY_RENDER_FLAG: Wait while EventEntity->Render.Flags3 bit 2 is set (cancel turn if not)
  5: 0x006C [0x66] LOAD_EXT_SCHEDULER_MAIN: Load scheduler "tlk0" with entities [EventEntity, EventEntity], work=60*
  6: 0x007B [0x2B] Guslam (ID: 17776695/0x010F4037) [7705*]:
    → "You found the gauntlets? Amazing!"
  7: 0x0082 [0x23] WAIT_FOR_DIALOG_INTERACTION
  8: 0x0083 [0x66] LOAD_EXT_SCHEDULER_MAIN: Load scheduler "thk1" with entities [EventEntity, EventEntity], work=60*
  9: 0x0092 [0x2B] Guslam (ID: 17776695/0x010F4037) [7706*]:
    → "So, I have seen the hands of Borghertz. I'm glad I work here now!"
 10: 0x0099 [0x23] WAIT_FOR_DIALOG_INTERACTION
 11: 0x009A [0x53] WAIT_SCHEDULER_TASK: Wait for scheduler "thk1" with entities [EventEntity, EventEntity]
 12: 0x00A7 [0x66] LOAD_EXT_SCHEDULER_MAIN: Load scheduler "thk2" with entities [EventEntity, EventEntity], work=60*
 13: 0x00B6 [0x2B] Guslam (ID: 17776695/0x010F4037) [7707*]:
    → "I must strive for greatness, too! Someday I'll be known as a legendary craftsman!"
 14: 0x00BD [0x23] WAIT_FOR_DIALOG_INTERACTION
 15: 0x00BE [0x21] END_EVENT
 16: 0x00BF [0x00] END_REQSTACK()
```

### Event 65535.2

#### Metadata

| Field        | Value    |
|--------------|----------|
| Entrypoint   | 0x00C0   |
| Data Size    | 19 bytes |
| Instructions | 3        |

```
      00 01 02 03 04 05 06 07  08 09 0A 0B 0C 0D 0E 0F
      -- -- -- -- -- -- -- --  -- -- -- -- -- -- -- --
00C0: 66 0B 80 F8 FF FF 7F F8  FF FF 7F 74 6C 6B 30 1C  f..........tlk0.
00D0: 0F 80 00                                          ...             
```

#### Opcodes

```
  0: 0x00C0 [0x66] LOAD_EXT_SCHEDULER_MAIN: Load scheduler "tlk0" with entities [EventEntity, EventEntity], work=60*
  1: 0x00CF [0x1C] WAIT(30* ticks)
  2: 0x00D2 [0x00] END_REQSTACK()
```

### Event 65535.3

#### Metadata

| Field        | Value   |
|--------------|---------|
| Entrypoint   | 0x00D3  |
| Data Size    | 9 bytes |
| Instructions | 3       |

```
      00 01 02 03 04 05 06 07  08 09 0A 0B 0C 0D 0E 0F
      -- -- -- -- -- -- -- --  -- -- -- -- -- -- -- --
00D0:          5E 69 64 6C 30  1C 0B 80 00                 ^idl0....    
```

#### Opcodes

```
  0: 0x00D3 [0x5E] EventEntity goes idle (kills current action) (animation: "idl0")
  1: 0x00D8 [0x1C] WAIT(60* ticks)
  2: 0x00DB [0x00] END_REQSTACK()
```

### Event 65535.4

#### Metadata

| Field        | Value    |
|--------------|----------|
| Entrypoint   | 0x00DC   |
| Data Size    | 19 bytes |
| Instructions | 3        |

```
      00 01 02 03 04 05 06 07  08 09 0A 0B 0C 0D 0E 0F
      -- -- -- -- -- -- -- --  -- -- -- -- -- -- -- --
00D0:                                      66 0B 80 F8              f...
00E0: FF FF 7F F8 FF FF 7F 74  68 6B 31 1C 0F 80 00     .......thk1.... 
```

#### Opcodes

```
  0: 0x00DC [0x66] LOAD_EXT_SCHEDULER_MAIN: Load scheduler "thk1" with entities [EventEntity, EventEntity], work=60*
  1: 0x00EB [0x1C] WAIT(30* ticks)
  2: 0x00EE [0x00] END_REQSTACK()
```

### Event 65535.5

#### Metadata

| Field        | Value    |
|--------------|----------|
| Entrypoint   | 0x00EF   |
| Data Size    | 19 bytes |
| Instructions | 3        |

```
      00 01 02 03 04 05 06 07  08 09 0A 0B 0C 0D 0E 0F
      -- -- -- -- -- -- -- --  -- -- -- -- -- -- -- --
00E0:                                               66                 f
00F0: 0B 80 F8 FF FF 7F F8 FF  FF 7F 74 68 6B 32 1C 0B  ..........thk2..
0100: 80 00                                             ..              
```

#### Opcodes

```
  0: 0x00EF [0x66] LOAD_EXT_SCHEDULER_MAIN: Load scheduler "thk2" with entities [EventEntity, EventEntity], work=60*
  1: 0x00FE [0x1C] WAIT(60* ticks)
  2: 0x0101 [0x00] END_REQSTACK()
```

### Event 65535.6

#### Metadata

| Field        | Value    |
|--------------|----------|
| Entrypoint   | 0x0102   |
| Data Size    | 29 bytes |
| Instructions | 3        |

```
      00 01 02 03 04 05 06 07  08 09 0A 0B 0C 0D 0E 0F
      -- -- -- -- -- -- -- --  -- -- -- -- -- -- -- --
0100:       66 0B 80 F8 FF FF  7F F8 FF FF 7F 64 69 73    f..........dis
0110: 30 53 F8 FF FF 7F F8 FF  FF 7F 64 69 73 30 00     0S........dis0. 
```

#### Opcodes

```
  0: 0x0102 [0x66] LOAD_EXT_SCHEDULER_MAIN: Load scheduler "dis0" with entities [EventEntity, EventEntity], work=60*
  1: 0x0111 [0x53] WAIT_SCHEDULER_TASK: Wait for scheduler "dis0" with entities [EventEntity, EventEntity]
  2: 0x011E [0x00] END_REQSTACK()
```
