# 0x7FFFFFF0 - Zone Events

## Common Data

| Field            | Value                 |
|------------------|-----------------------|
| Zone             | Upper Jeuno (ID: 244) |
| Block Size       | 51204 bytes           |
| Total Events     | 154                   |
| References Count | 1108                  |

## List of Events

| Event ID                     | Entrypoint   |   Size |   Instructions |
|------------------------------|--------------|--------|----------------|
| [65535](#event-65535)        | 0x0000       |      4 |              2 |
| [65535.1](#event-655351)     | 0x0004       |    158 |             34 |
| [65534](#event-65534)        | 0x00A2       |      1 |              1 |
| [65535.2](#event-655352)     | 0x00A3       |     63 |             12 |
| [65535.3](#event-655353)     | 0x00E2       |     19 |              3 |
| [65535.4](#event-655354)     | 0x00F5       |     10 |              2 |
| [10](#event-10)              | 0x00FF       |   1408 |            174 |
| [206](#event-206)            | 0x067F       |    431 |             55 |
| [207](#event-207)            | 0x082E       |   1843 |            239 |
| [82](#event-82)              | 0x0F61       |   2560 |            335 |
| [75](#event-75)              | 0x1961       |   2848 |            387 |
| [124](#event-124)            | 0x2481       |    395 |             62 |
| [127](#event-127)            | 0x260C       |    725 |            158 |
| [171](#event-171)            | 0x28E1       |    896 |            132 |
| [95](#event-95)              | 0x2C61       |     11 |              3 |
| [33](#event-33)              | 0x2C6C       |   1014 |            142 |
| [34](#event-34)              | 0x3062       |    895 |            140 |
| [65535.5](#event-655355)     | 0x33E1       |     10 |              2 |
| [70](#event-70)              | 0x33EB       |    928 |            143 |
| [65535.6](#event-655356)     | 0x378B       |     10 |              2 |
| [65535.7](#event-655357)     | 0x3795       |    132 |             20 |
| [65535.8](#event-655358)     | 0x3819       |      1 |              1 |
| [65535.9](#event-655359)     | 0x381A       |    132 |             20 |
| [65535.10](#event-6553510)   | 0x389E       |      1 |              1 |
| [65535.11](#event-6553511)   | 0x389F       |     99 |             13 |
| [65535.12](#event-6553512)   | 0x3902       |     10 |              2 |
| [65535.13](#event-6553513)   | 0x390C       |     12 |              4 |
| [65535.14](#event-6553514)   | 0x3918       |     30 |             10 |
| [65535.15](#event-6553515)   | 0x3936       |     11 |              3 |
| [65535.16](#event-6553516)   | 0x3941       |     13 |              5 |
| [65535.17](#event-6553517)   | 0x394E       |     23 |              5 |
| [65535.18](#event-6553518)   | 0x3965       |     20 |              4 |
| [65535.19](#event-6553519)   | 0x3979       |     13 |              3 |
| [65535.20](#event-6553520)   | 0x3986       |     10 |              2 |
| [65535.21](#event-6553521)   | 0x3990       |     23 |              5 |
| [65535.22](#event-6553522)   | 0x39A7       |     14 |              4 |
| [65535.23](#event-6553523)   | 0x39B5       |     20 |              4 |
| [65535.24](#event-6553524)   | 0x39C9       |     17 |              5 |
| [65535.25](#event-6553525)   | 0x39DA       |      1 |              1 |
| [65535.26](#event-6553526)   | 0x39DB       |      6 |              2 |
| [65535.27](#event-6553527)   | 0x39E1       |      6 |              2 |
| [65535.28](#event-6553528)   | 0x39E7       |      6 |              2 |
| [65535.29](#event-6553529)   | 0x39ED       |      6 |              2 |
| [65535.30](#event-6553530)   | 0x39F3       |      6 |              2 |
| [65535.31](#event-6553531)   | 0x39F9       |     10 |              2 |
| [65535.32](#event-6553532)   | 0x3A03       |     15 |              5 |
| [65535.33](#event-6553533)   | 0x3A12       |     10 |              2 |
| [65535.34](#event-6553534)   | 0x3A1C       |     10 |              2 |
| [65535.35](#event-6553535)   | 0x3A26       |     10 |              2 |
| [65535.36](#event-6553536)   | 0x3A30       |     10 |              2 |
| [65535.37](#event-6553537)   | 0x3A3A       |     10 |              2 |
| [65535.38](#event-6553538)   | 0x3A44       |     10 |              2 |
| [65535.39](#event-6553539)   | 0x3A4E       |     10 |              2 |
| [65535.40](#event-6553540)   | 0x3A58       |     10 |              2 |
| [65535.41](#event-6553541)   | 0x3A62       |     10 |              2 |
| [65535.42](#event-6553542)   | 0x3A6C       |     19 |              3 |
| [65535.43](#event-6553543)   | 0x3A7F       |     19 |              3 |
| [65535.44](#event-6553544)   | 0x3A92       |     19 |              3 |
| [65535.45](#event-6553545)   | 0x3AA5       |     10 |              2 |
| [65535.46](#event-6553546)   | 0x3AAF       |     10 |              2 |
| [10031](#event-10031)        | 0x3AB9       |   1550 |            233 |
| [10033](#event-10033)        | 0x40C7       |      1 |              1 |
| [10032](#event-10032)        | 0x40C8       |  19015 |           3239 |
| [65535.47](#event-6553547)   | 0x8B0F       |     10 |              2 |
| [10039](#event-10039)        | 0x8B19       |      1 |              1 |
| [10040](#event-10040)        | 0x8B1A       |      1 |              1 |
| [65535.48](#event-6553548)   | 0x8B1B       |     10 |              2 |
| [10044](#event-10044)        | 0x8B25       |      1 |              1 |
| [65535.49](#event-6553549)   | 0x8B26       |     10 |              2 |
| [10043](#event-10043)        | 0x8B30       |      1 |              1 |
| [65535.50](#event-6553550)   | 0x8B31       |     23 |              5 |
| [10046](#event-10046)        | 0x8B48       |      1 |              1 |
| [65535.51](#event-6553551)   | 0x8B49       |     23 |              5 |
| [10050](#event-10050)        | 0x8B60       |      1 |              1 |
| [10055](#event-10055)        | 0x8B61       |      1 |              1 |
| [65535.52](#event-6553552)   | 0x8B62       |     15 |              3 |
| [10057](#event-10057)        | 0x8B71       |   2123 |            328 |
| [10058](#event-10058)        | 0x93BC       |    383 |             67 |
| [10059](#event-10059)        | 0x953B       |   1580 |            275 |
| [10061](#event-10061)        | 0x9B67       |   4831 |            794 |
| [10063](#event-10063)        | 0xAE46       |      1 |              1 |
| [65535.53](#event-6553553)   | 0xAE47       |     10 |              2 |
| [10064](#event-10064)        | 0xAE51       |      1 |              1 |
| [65535.54](#event-6553554)   | 0xAE52       |     10 |              2 |
| [10065](#event-10065)        | 0xAE5C       |      1 |              1 |
| [65535.55](#event-6553555)   | 0xAE5D       |     15 |              3 |
| [10066](#event-10066)        | 0xAE6C       |      1 |              1 |
| [10072](#event-10072)        | 0xAE6D       |      1 |              1 |
| [65535.56](#event-6553556)   | 0xAE6E       |     10 |              2 |
| [65535.57](#event-6553557)   | 0xAE78       |     14 |              4 |
| [10073](#event-10073)        | 0xAE86       |      1 |              1 |
| [65535.58](#event-6553558)   | 0xAE87       |     10 |              2 |
| [10074](#event-10074)        | 0xAE91       |      1 |              1 |
| [65535.59](#event-6553559)   | 0xAE92       |     10 |              2 |
| [65535.60](#event-6553560)   | 0xAE9C       |     14 |              4 |
| [65535.61](#event-6553561)   | 0xAEAA       |      3 |              2 |
| [65535.62](#event-6553562)   | 0xAEAD       |      3 |              2 |
| [65535.63](#event-6553563)   | 0xAEB0       |     14 |              4 |
| [10075](#event-10075)        | 0xAEBE       |      1 |              1 |
| [10078](#event-10078)        | 0xAEBF       |      1 |              1 |
| [65535.64](#event-6553564)   | 0xAEC0       |     10 |              2 |
| [10079](#event-10079)        | 0xAECA       |      1 |              1 |
| [65535.65](#event-6553565)   | 0xAECB       |     10 |              2 |
| [10080](#event-10080)        | 0xAED5       |      1 |              1 |
| [65535.66](#event-6553566)   | 0xAED6       |     10 |              2 |
| [65535.67](#event-6553567)   | 0xAEE0       |     14 |              4 |
| [65535.68](#event-6553568)   | 0xAEEE       |     14 |              4 |
| [10081](#event-10081)        | 0xAEFC       |      1 |              1 |
| [65535.69](#event-6553569)   | 0xAEFD       |     10 |              2 |
| [10093](#event-10093)        | 0xAF07       |      1 |              1 |
| [65535.70](#event-6553570)   | 0xAF08       |     15 |              3 |
| [10095](#event-10095)        | 0xAF17       |      1 |              1 |
| [65535.71](#event-6553571)   | 0xAF18       |     15 |              3 |
| [10100](#event-10100)        | 0xAF27       |      1 |              1 |
| [65535.72](#event-6553572)   | 0xAF28       |     15 |              3 |
| [65535.73](#event-6553573)   | 0xAF37       |     15 |              3 |
| [65535.74](#event-6553574)   | 0xAF46       |     10 |              2 |
| [65535.75](#event-6553575)   | 0xAF50       |     10 |              2 |
| [65535.76](#event-6553576)   | 0xAF5A       |     43 |             11 |
| [65535.77](#event-6553577)   | 0xAF85       |     22 |              6 |
| [65535.78](#event-6553578)   | 0xAF9B       |     37 |              5 |
| [65535.79](#event-6553579)   | 0xAFC0       |     37 |              5 |
| [65535.80](#event-6553580)   | 0xAFE5       |     41 |             10 |
| [65535.81](#event-6553581)   | 0xB00E       |      9 |              3 |
| [65535.82](#event-6553582)   | 0xB017       |     14 |              4 |
| [65535.83](#event-6553583)   | 0xB025       |      9 |              3 |
| [65535.84](#event-6553584)   | 0xB02E       |     14 |              4 |
| [65535.85](#event-6553585)   | 0xB03C       |     10 |              2 |
| [65535.86](#event-6553586)   | 0xB046       |     10 |              2 |
| [65535.87](#event-6553587)   | 0xB050       |     53 |             11 |
| [65535.88](#event-6553588)   | 0xB085       |     86 |             18 |
| [65535.89](#event-6553589)   | 0xB0DB       |     31 |              7 |
| [65535.90](#event-6553590)   | 0xB0FA       |     34 |              8 |
| [65535.91](#event-6553591)   | 0xB11C       |     21 |              4 |
| [65535.92](#event-6553592)   | 0xB131       |     27 |              5 |
| [65535.93](#event-6553593)   | 0xB14C       |     37 |              5 |
| [65535.94](#event-6553594)   | 0xB171       |     37 |              5 |
| [65535.95](#event-6553595)   | 0xB196       |     76 |             10 |
| [65535.96](#event-6553596)   | 0xB1E2       |     42 |              6 |
| [65535.97](#event-6553597)   | 0xB20C       |     14 |              4 |
| [65535.98](#event-6553598)   | 0xB21A       |     15 |              5 |
| [65535.99](#event-6553599)   | 0xB229       |     15 |              5 |
| [65535.100](#event-65535100) | 0xB238       |     15 |              5 |
| [65535.101](#event-65535101) | 0xB247       |     14 |              3 |
| [65535.102](#event-65535102) | 0xB255       |      6 |              2 |
| [65535.103](#event-65535103) | 0xB25B       |      6 |              2 |
| [65535.104](#event-65535104) | 0xB261       |     14 |              4 |
| [65535.105](#event-65535105) | 0xB26F       |     14 |              4 |
| [65535.106](#event-65535106) | 0xB27D       |     22 |              6 |
| [65535.107](#event-65535107) | 0xB293       |    353 |             41 |
| [65535.108](#event-65535108) | 0xB3F4       |     29 |              5 |
| [65535.109](#event-65535109) | 0xB411       |     14 |              4 |
| [65535.110](#event-65535110) | 0xB41F       |     14 |              4 |
| [65535.111](#event-65535111) | 0xB42D       |     14 |              4 |

## DAT References (imed_data)

|   Index | Hex Value   |   Dec Value |
|---------|-------------|-------------|
|       0 | 0x000D      |          13 |
|       1 | 0x009A      |         154 |
|       2 | 0xFFFFF98B  |  4294965643 |
|       3 | 0x0000      |           0 |
|       4 | 0x0B83      |        2947 |
|       5 | 0x0005      |           5 |
|       6 | 0x0001      |           1 |
|       7 | 0x0002      |           2 |
|       8 | 0x000A      |          10 |
|       9 | 0x0009      |           9 |
|      10 | 0x0046      |          70 |
|      11 | 0x008C      |         140 |
|      12 | 0x00D2      |         210 |
|      13 | 0xFFFE634F  |  4294861647 |
|      14 | 0x14A20     |       84512 |
|      15 | 0xFFFFFF39  |  4294967097 |
|      16 | 0x02BB      |         699 |
|      17 | 0xFFFE6889  |  4294862985 |
|      18 | 0x141A6     |       82342 |
|      19 | 0xFFFE7074  |  4294865012 |
|      20 | 0x13F6C     |       81772 |
|      21 | 0xFFFFFD77  |  4294966647 |
|      22 | 0xFFFE7346  |  4294865734 |
|      23 | 0x14436     |       82998 |
|      24 | 0x00C8      |         200 |
|      25 | 0x0038      |          56 |
|      26 | 0x0003      |           3 |
|      27 | 0x01BE      |         446 |
|      28 | 0x007F      |         127 |
|      29 | 0xFFFF52E7  |  4294922983 |
|      30 | 0xFFFFFB23  |  4294966051 |
|      31 | 0xFFFFFE0D  |  4294966797 |
|      32 | 0x00B2      |         178 |
|      33 | 0x003C      |          60 |
|      34 | 0x202C      |        8236 |
|      35 | 0x202D      |        8237 |
|      36 | 0x202E      |        8238 |
|      37 | 0x077C      |        1916 |
|      38 | 0x202F      |        8239 |
|      39 | 0x2030      |        8240 |
|      40 | 0x0032      |          50 |
|      41 | 0x0014      |          20 |
|      42 | 0x0004      |           4 |
|      43 | 0x0008      |           8 |
|      44 | 0x0104      |         260 |
|      45 | 0x00B4      |         180 |
|      46 | 0x000F      |          15 |
|      47 | 0x006C      |         108 |
|      48 | 0x0006      |           6 |
|      49 | 0x0050      |          80 |
|      50 | 0x001E      |          30 |
|      51 | 0x0078      |         120 |
|      52 | 0x0035      |          53 |
|      53 | 0x00C9      |         201 |
|      54 | 0x006E      |         110 |
|      55 | 0x0021      |          33 |
|      56 | 0x000C      |          12 |
|      57 | 0x003D      |          61 |
|      58 | 0x0060      |          96 |
|      59 | 0x009B      |         155 |
|      60 | 0x030C      |         780 |
|      61 | 0x00F4      |         244 |
|      62 | 0xFFFF51F7  |  4294922743 |
|      63 | 0xFFFFFDC8  |  4294966728 |
|      64 | 0x06A5      |        1701 |
|      65 | 0xFFFF4247  |  4294918727 |
|      66 | 0xFFFFF504  |  4294964484 |
|      67 | 0x00E7      |         231 |
|      68 | 0x2031      |        8241 |
|      69 | 0x2032      |        8242 |
|      70 | 0x2033      |        8243 |
|      71 | 0x2034      |        8244 |
|      72 | 0x0330      |         816 |
|      73 | 0x0080      |         128 |
|      74 | 0x2035      |        8245 |
|      75 | 0x2037      |        8247 |
|      76 | 0x2038      |        8248 |
|      77 | 0xFFFF1622  |  4294907426 |
|      78 | 0x1728      |        5928 |
|      79 | 0xFFFFFE0C  |  4294966796 |
|      80 | 0x0A9A      |        2714 |
|      81 | 0x2039      |        8249 |
|      82 | 0xFFFF116F  |  4294906223 |
|      83 | 0x1FAE      |        8110 |
|      84 | 0x203A      |        8250 |
|      85 | 0x0028      |          40 |
|      86 | 0x203B      |        8251 |
|      87 | 0x203C      |        8252 |
|      88 | 0x203D      |        8253 |
|      89 | 0x203E      |        8254 |
|      90 | 0x203F      |        8255 |
|      91 | 0x0DF7      |        3575 |
|      92 | 0x2040      |        8256 |
|      93 | 0x012C      |         300 |
|      94 | 0xFFFF50E4  |  4294922468 |
|      95 | 0xFFFFFD2C  |  4294966572 |
|      96 | 0x0100      |         256 |
|      97 | 0x007B      |         123 |
|      98 | 0x0047      |          71 |
|      99 | 0x2044      |        8260 |
|     100 | 0x2045      |        8261 |
|     101 | 0x2046      |        8262 |
|     102 | 0xFFFF32C7  |  4294914759 |
|     103 | 0x0923      |        2339 |
|     104 | 0x06D6      |        1750 |
|     105 | 0xFFFF1DE8  |  4294909416 |
|     106 | 0xFFFFFDFA  |  4294966778 |
|     107 | 0x2047      |        8263 |
|     108 | 0x01B5      |         437 |
|     109 | 0x005A      |          90 |
|     110 | 0xFFFF2009  |  4294909961 |
|     111 | 0xFFFFEF92  |  4294963090 |
|     112 | 0x0249      |         585 |
|     113 | 0x2048      |        8264 |
|     114 | 0xFFFF2765  |  4294911845 |
|     115 | 0xFFFFEDBD  |  4294962621 |
|     116 | 0x2049      |        8265 |
|     117 | 0x204A      |        8266 |
|     118 | 0x204B      |        8267 |
|     119 | 0x204C      |        8268 |
|     120 | 0x204D      |        8269 |
|     121 | 0x204E      |        8270 |
|     122 | 0x204F      |        8271 |
|     123 | 0x2050      |        8272 |
|     124 | 0x2051      |        8273 |
|     125 | 0x2052      |        8274 |
|     126 | 0x2053      |        8275 |
|     127 | 0x2054      |        8276 |
|     128 | 0x2055      |        8277 |
|     129 | 0x2056      |        8278 |
|     130 | 0x2057      |        8279 |
|     131 | 0x2058      |        8280 |
|     132 | 0x2059      |        8281 |
|     133 | 0xFFFF55A5  |  4294923685 |
|     134 | 0x0150      |         336 |
|     135 | 0x0226      |         550 |
|     136 | 0x205A      |        8282 |
|     137 | 0x205B      |        8283 |
|     138 | 0x205C      |        8284 |
|     139 | 0x205D      |        8285 |
|     140 | 0x205E      |        8286 |
|     141 | 0x205F      |        8287 |
|     142 | 0x2060      |        8288 |
|     143 | 0x2061      |        8289 |
|     144 | 0x2062      |        8290 |
|     145 | 0x2063      |        8291 |
|     146 | 0x2064      |        8292 |
|     147 | 0x2065      |        8293 |
|     148 | 0x2066      |        8294 |
|     149 | 0x2067      |        8295 |
|     150 | 0x2068      |        8296 |
|     151 | 0x2069      |        8297 |
|     152 | 0x206A      |        8298 |
|     153 | 0x206B      |        8299 |
|     154 | 0x2076      |        8310 |
|     155 | 0x004B      |          75 |
|     156 | 0xFFFF16F2  |  4294907634 |
|     157 | 0xFFFFF7F3  |  4294965235 |
|     158 | 0x026E      |         622 |
|     159 | 0x2077      |        8311 |
|     160 | 0x2078      |        8312 |
|     161 | 0xFFFF1DEC  |  4294909420 |
|     162 | 0xFFFFEBC0  |  4294962112 |
|     163 | 0x207A      |        8314 |
|     164 | 0x207B      |        8315 |
|     165 | 0x207C      |        8316 |
|     166 | 0x207D      |        8317 |
|     167 | 0x207E      |        8318 |
|     168 | 0x207F      |        8319 |
|     169 | 0x2080      |        8320 |
|     170 | 0x2081      |        8321 |
|     171 | 0x2082      |        8322 |
|     172 | 0x2083      |        8323 |
|     173 | 0x2084      |        8324 |
|     174 | 0x2085      |        8325 |
|     175 | 0x2086      |        8326 |
|     176 | 0x2087      |        8327 |
|     177 | 0x2088      |        8328 |
|     178 | 0x2089      |        8329 |
|     179 | 0x0328      |         808 |
|     180 | 0x208A      |        8330 |
|     181 | 0x208B      |        8331 |
|     182 | 0x208C      |        8332 |
|     183 | 0x208D      |        8333 |
|     184 | 0x208E      |        8334 |
|     185 | 0x208F      |        8335 |
|     186 | 0x2090      |        8336 |
|     187 | 0x2091      |        8337 |
|     188 | 0x0225      |         549 |
|     189 | 0x2092      |        8338 |
|     190 | 0x2093      |        8339 |
|     191 | 0x2094      |        8340 |
|     192 | 0x2095      |        8341 |
|     193 | 0x2096      |        8342 |
|     194 | 0x2097      |        8343 |
|     195 | 0x2098      |        8344 |
|     196 | 0x2099      |        8345 |
|     197 | 0x00EA      |         234 |
|     198 | 0x209A      |        8346 |
|     199 | 0x209B      |        8347 |
|     200 | 0x209C      |        8348 |
|     201 | 0x209D      |        8349 |
|     202 | 0x209E      |        8350 |
|     203 | 0x209F      |        8351 |
|     204 | 0x20A0      |        8352 |
|     205 | 0x20A1      |        8353 |
|     206 | 0x20A2      |        8354 |
|     207 | 0x1D3F      |        7487 |
|     208 | 0x1D40      |        7488 |
|     209 | 0x1D41      |        7489 |
|     210 | 0x1D42      |        7490 |
|     211 | 0xFFFE7AC2  |  4294867650 |
|     212 | 0x15EE8     |       89832 |
|     213 | 0x06C3      |        1731 |
|     214 | 0xFFFE8637  |  4294870583 |
|     215 | 0x1655A     |       91482 |
|     216 | 0x066B      |        1643 |
|     217 | 0x0090      |         144 |
|     218 | 0xFFFE7993  |  4294867347 |
|     219 | 0x15DC2     |       89538 |
|     220 | 0x1D43      |        7491 |
|     221 | 0x0E6B      |        3691 |
|     222 | 0x0EC3      |        3779 |
|     223 | 0x1D45      |        7493 |
|     224 | 0x1D46      |        7494 |
|     225 | 0x1D47      |        7495 |
|     226 | 0x1D48      |        7496 |
|     227 | 0x1D49      |        7497 |
|     228 | 0x1D4A      |        7498 |
|     229 | 0x1D4B      |        7499 |
|     230 | 0x0007      |           7 |
|     231 | 0x1D4C      |        7500 |
|     232 | 0x1D4D      |        7501 |
|     233 | 0x1D4E      |        7502 |
|     234 | 0x1D4F      |        7503 |
|     235 | 0x000B      |          11 |
|     236 | 0x1D50      |        7504 |
|     237 | 0x1D51      |        7505 |
|     238 | 0x1D52      |        7506 |
|     239 | 0x000E      |          14 |
|     240 | 0x1D53      |        7507 |
|     241 | 0x1D54      |        7508 |
|     242 | 0x0010      |          16 |
|     243 | 0x1D55      |        7509 |
|     244 | 0x0011      |          17 |
|     245 | 0x1D56      |        7510 |
|     246 | 0x0012      |          18 |
|     247 | 0x1D57      |        7511 |
|     248 | 0x0013      |          19 |
|     249 | 0x1D58      |        7512 |
|     250 | 0x1D59      |        7513 |
|     251 | 0x0015      |          21 |
|     252 | 0x1D5A      |        7514 |
|     253 | 0x0016      |          22 |
|     254 | 0x1D5B      |        7515 |
|     255 | 0x0017      |          23 |
|     256 | 0x1D5C      |        7516 |
|     257 | 0x0018      |          24 |
|     258 | 0x1D5D      |        7517 |
|     259 | 0x0019      |          25 |
|     260 | 0x1D5E      |        7518 |
|     261 | 0x001A      |          26 |
|     262 | 0x1D5F      |        7519 |
|     263 | 0x001B      |          27 |
|     264 | 0x1D60      |        7520 |
|     265 | 0x001C      |          28 |
|     266 | 0x1D61      |        7521 |
|     267 | 0x001D      |          29 |
|     268 | 0x1D62      |        7522 |
|     269 | 0x1D63      |        7523 |
|     270 | 0x001F      |          31 |
|     271 | 0x1D64      |        7524 |
|     272 | 0x1119      |        4377 |
|     273 | 0x01C3      |         451 |
|     274 | 0x1C9D      |        7325 |
|     275 | 0x1C9E      |        7326 |
|     276 | 0x1C9F      |        7327 |
|     277 | 0x00A3      |         163 |
|     278 | 0xFFFEDA7C  |  4294892156 |
|     279 | 0x1365E     |       79454 |
|     280 | 0xFFFFFB51  |  4294966097 |
|     281 | 0x06D1      |        1745 |
|     282 | 0xFFFED3D4  |  4294890452 |
|     283 | 0x13255     |       78421 |
|     284 | 0xFFFECBEF  |  4294888431 |
|     285 | 0x12F59     |       77657 |
|     286 | 0xFFFFFB50  |  4294966096 |
|     287 | 0x1CA0      |        7328 |
|     288 | 0xFFFECC24  |  4294888484 |
|     289 | 0x11983     |       72067 |
|     290 | 0xFFFFFB46  |  4294966086 |
|     291 | 0xFFFEC039  |  4294885433 |
|     292 | 0x11222     |       70178 |
|     293 | 0xFFFEBC12  |  4294884370 |
|     294 | 0x117A8     |       71592 |
|     295 | 0x1CA1      |        7329 |
|     296 | 0x1CA2      |        7330 |
|     297 | 0x1CA3      |        7331 |
|     298 | 0x1CA4      |        7332 |
|     299 | 0x1CA5      |        7333 |
|     300 | 0x1CA6      |        7334 |
|     301 | 0x1CA7      |        7335 |
|     302 | 0x1CA8      |        7336 |
|     303 | 0x1CA9      |        7337 |
|     304 | 0x1CAA      |        7338 |
|     305 | 0x1CAB      |        7339 |
|     306 | 0x1CAC      |        7340 |
|     307 | 0xFFFEDA34  |  4294892084 |
|     308 | 0x13A30     |       80432 |
|     309 | 0xFFFFFC4B  |  4294966347 |
|     310 | 0x0643      |        1603 |
|     311 | 0x1CAD      |        7341 |
|     312 | 0x1CAE      |        7342 |
|     313 | 0xFFFEDAB4  |  4294892212 |
|     314 | 0x13B65     |       80741 |
|     315 | 0x1B83      |        7043 |
|     316 | 0xFFFF1DB6  |  4294909366 |
|     317 | 0xFFFFF90C  |  4294965516 |
|     318 | 0x06C8      |        1736 |
|     319 | 0x1B84      |        7044 |
|     320 | 0xFFFF1C68  |  4294909032 |
|     321 | 0xFFFFF0FC  |  4294963452 |
|     322 | 0xFFFF1EAE  |  4294909614 |
|     323 | 0xFFFFED4B  |  4294962507 |
|     324 | 0x1B86      |        7046 |
|     325 | 0xFFFF13BE  |  4294906814 |
|     326 | 0xFFFFE8E4  |  4294961380 |
|     327 | 0x1B87      |        7047 |
|     328 | 0x0073      |         115 |
|     329 | 0x1B88      |        7048 |
|     330 | 0x1B89      |        7049 |
|     331 | 0x1B8A      |        7050 |
|     332 | 0x1B8B      |        7051 |
|     333 | 0x1B8C      |        7052 |
|     334 | 0x1B8D      |        7053 |
|     335 | 0x1B8E      |        7054 |
|     336 | 0x1B8F      |        7055 |
|     337 | 0x1B90      |        7056 |
|     338 | 0x1B91      |        7057 |
|     339 | 0x0716      |        1814 |
|     340 | 0x1B93      |        7059 |
|     341 | 0x009F      |         159 |
|     342 | 0x1B92      |        7058 |
|     343 | 0x1B94      |        7060 |
|     344 | 0x1B95      |        7061 |
|     345 | 0x1B96      |        7062 |
|     346 | 0x1B97      |        7063 |
|     347 | 0x1B98      |        7064 |
|     348 | 0x1B99      |        7065 |
|     349 | 0x1B9A      |        7066 |
|     350 | 0x1B9B      |        7067 |
|     351 | 0x1B9C      |        7068 |
|     352 | 0x1B9D      |        7069 |
|     353 | 0x1B9E      |        7070 |
|     354 | 0x1B9F      |        7071 |
|     355 | 0x1BA0      |        7072 |
|     356 | 0x1BA1      |        7073 |
|     357 | 0x1BA2      |        7074 |
|     358 | 0x1BA3      |        7075 |
|     359 | 0x1BA4      |        7076 |
|     360 | 0x1BA5      |        7077 |
|     361 | 0xFFFF169D  |  4294907549 |
|     362 | 0x16750     |       91984 |
|     363 | 0x2007      |        8199 |
|     364 | 0x0A2E      |        2606 |
|     365 | 0xFFFF2085  |  4294910085 |
|     366 | 0x178E0     |       96480 |
|     367 | 0x1C14      |        7188 |
|     368 | 0x1C15      |        7189 |
|     369 | 0x1C16      |        7190 |
|     370 | 0xFFFF1F43  |  4294909763 |
|     371 | 0x173FD     |       95229 |
|     372 | 0xFFFF1B42  |  4294908738 |
|     373 | 0x17223     |       94755 |
|     374 | 0x1C17      |        7191 |
|     375 | 0x1BB9      |        7097 |
|     376 | 0x1C18      |        7192 |
|     377 | 0x1C19      |        7193 |
|     378 | 0x1C1A      |        7194 |
|     379 | 0x1C1B      |        7195 |
|     380 | 0x1C1C      |        7196 |
|     381 | 0x1C1D      |        7197 |
|     382 | 0x1C1E      |        7198 |
|     383 | 0x1C1F      |        7199 |
|     384 | 0x1C20      |        7200 |
|     385 | 0x1C21      |        7201 |
|     386 | 0x1C22      |        7202 |
|     387 | 0x002D      |          45 |
|     388 | 0x1C23      |        7203 |
|     389 | 0x1C24      |        7204 |
|     390 | 0x1C25      |        7205 |
|     391 | 0xFFFF1866  |  4294908006 |
|     392 | 0x16C4A     |       93258 |
|     393 | 0x0792      |        1938 |
|     394 | 0xFFFF1847  |  4294907975 |
|     395 | 0x1AD4A     |      109898 |
|     396 | 0x06CF      |        1743 |
|     397 | 0x00CA      |         202 |
|     398 | 0xFFFF10EE  |  4294906094 |
|     399 | 0x1A8D0     |      108752 |
|     400 | 0xFFFF122D  |  4294906413 |
|     401 | 0x1A5FD     |      108029 |
|     402 | 0xFFFF0ED0  |  4294905552 |
|     403 | 0x1BD3D     |      113981 |
|     404 | 0x06E0      |        1760 |
|     405 | 0xFFFF07C8  |  4294903752 |
|     406 | 0x1B94B     |      112971 |
|     407 | 0xFFFF09E1  |  4294904289 |
|     408 | 0x1B68C     |      112268 |
|     409 | 0xFFFF0701  |  4294903553 |
|     410 | 0x1A2B0     |      107184 |
|     411 | 0x0AA9      |        2729 |
|     412 | 0xFFFEF49B  |  4294898843 |
|     413 | 0x1C166     |      115046 |
|     414 | 0x1F40      |        8000 |
|     415 | 0xFFFEE595  |  4294894997 |
|     416 | 0x1D6BA     |      120506 |
|     417 | 0x1F3F      |        7999 |
|     418 | 0xFFFEC3B1  |  4294886321 |
|     419 | 0x1A041     |      106561 |
|     420 | 0x0A1F      |        2591 |
|     421 | 0xFFFEBD20  |  4294884640 |
|     422 | 0x1A924     |      108836 |
|     423 | 0xFFFEB4C0  |  4294882496 |
|     424 | 0x1AD81     |      109953 |
|     425 | 0x0CA9      |        3241 |
|     426 | 0x0634      |        1588 |
|     427 | 0x0910      |        2320 |
|     428 | 0xFFFE9826  |  4294875174 |
|     429 | 0x1B761     |      112481 |
|     430 | 0x0A2C      |        2604 |
|     431 | 0x063D      |        1597 |
|     432 | 0xFFFE9E97  |  4294876823 |
|     433 | 0x1B98E     |      113038 |
|     434 | 0xFFFEAB9B  |  4294880155 |
|     435 | 0x1ABBB     |      109499 |
|     436 | 0xFFFEC602  |  4294886914 |
|     437 | 0x19AB2     |      105138 |
|     438 | 0xFFFFFC4A  |  4294966346 |
|     439 | 0x02A4      |         676 |
|     440 | 0xFFFEBE49  |  4294884937 |
|     441 | 0x1AD80     |      109952 |
|     442 | 0xFFFEBC9B  |  4294884507 |
|     443 | 0x1AB8F     |      109455 |
|     444 | 0x02A6      |         678 |
|     445 | 0xFFFEB22A  |  4294881834 |
|     446 | 0x1AC06     |      109574 |
|     447 | 0xFFFEB68C  |  4294882956 |
|     448 | 0x1AC3A     |      109626 |
|     449 | 0xFFFE86B6  |  4294870710 |
|     450 | 0x165A6     |       91558 |
|     451 | 0x06D0      |        1744 |
|     452 | 0xFFFE7345  |  4294865733 |
|     453 | 0x15F43     |       89923 |
|     454 | 0xFFFE6A5B  |  4294863451 |
|     455 | 0x15F91     |       90001 |
|     456 | 0x0601      |        1537 |
|     457 | 0xFFFE6B44  |  4294863684 |
|     458 | 0x16135     |       90421 |
|     459 | 0x0F85      |        3973 |
|     460 | 0xFFFE6A3E  |  4294863422 |
|     461 | 0x158A3     |       88227 |
|     462 | 0xFFFFFF2D  |  4294967085 |
|     463 | 0x0783      |        1923 |
|     464 | 0xFFFE69E0  |  4294863328 |
|     465 | 0x15193     |       86419 |
|     466 | 0x0BBF      |        3007 |
|     467 | 0xFFFE68B7  |  4294863031 |
|     468 | 0x153CC     |       86988 |
|     469 | 0x0DAE      |        3502 |
|     470 | 0xFFFE66FE  |  4294862590 |
|     471 | 0x15422     |       87074 |
|     472 | 0x0E78      |        3704 |
|     473 | 0xFFFF146C  |  4294906988 |
|     474 | 0x137B6     |       79798 |
|     475 | 0x0D20      |        3360 |
|     476 | 0xFFFF0FBA  |  4294905786 |
|     477 | 0x13D71     |       81265 |
|     478 | 0x0FE8      |        4072 |
|     479 | 0xFFFF07E9  |  4294903785 |
|     480 | 0x1480F     |       83983 |
|     481 | 0x0262      |         610 |
|     482 | 0xFFFF22B7  |  4294910647 |
|     483 | 0x1C47D     |      115837 |
|     484 | 0x06A1      |        1697 |
|     485 | 0xFFF661EB  |  4294337003 |
|     486 | 0x56046     |      352326 |
|     487 | 0xFFFFA0B9  |  4294942905 |
|     488 | 0x0361      |         865 |
|     489 | 0x46DCB     |      290251 |
|     490 | 0x2470E     |      149262 |
|     491 | 0x6A89      |       27273 |
|     492 | 0x06E3      |        1763 |
|     493 | 0xFFFF75EF  |  4294931951 |
|     494 | 0x3526      |       13606 |
|     495 | 0xFFFFFA25  |  4294965797 |
|     496 | 0x073B      |        1851 |
|     497 | 0xFFFE6D35  |  4294864181 |
|     498 | 0x162C4     |       90820 |
|     499 | 0x0AB8      |        2744 |
|     500 | 0xFFFF30FD  |  4294914301 |
|     501 | 0xABCE      |       43982 |
|     502 | 0x0A66      |        2662 |
|     503 | 0x0022      |          34 |
|     504 | 0x2271      |        8817 |
|     505 | 0x2272      |        8818 |
|     506 | 0x2273      |        8819 |
|     507 | 0x2274      |        8820 |
|     508 | 0x2275      |        8821 |
|     509 | 0x2276      |        8822 |
|     510 | 0x0039      |          57 |
|     511 | 0x2278      |        8824 |
|     512 | 0x40000000  |  1073741824 |
|     513 | 0x003A      |          58 |
|     514 | 0x2279      |        8825 |
|     515 | 0x227A      |        8826 |
|     516 | 0x227B      |        8827 |
|     517 | 0x227C      |        8828 |
|     518 | 0x227D      |        8829 |
|     519 | 0x227E      |        8830 |
|     520 | 0x227F      |        8831 |
|     521 | 0x2280      |        8832 |
|     522 | 0x2281      |        8833 |
|     523 | 0x2282      |        8834 |
|     524 | 0x2283      |        8835 |
|     525 | 0x2284      |        8836 |
|     526 | 0x2285      |        8837 |
|     527 | 0x2286      |        8838 |
|     528 | 0x2287      |        8839 |
|     529 | 0x2288      |        8840 |
|     530 | 0x2289      |        8841 |
|     531 | 0x228A      |        8842 |
|     532 | 0x228B      |        8843 |
|     533 | 0x228C      |        8844 |
|     534 | 0x228D      |        8845 |
|     535 | 0x228E      |        8846 |
|     536 | 0x228F      |        8847 |
|     537 | 0x0030      |          48 |
|     538 | 0x2290      |        8848 |
|     539 | 0x22AA      |        8874 |
|     540 | 0x22AB      |        8875 |
|     541 | 0x22AC      |        8876 |
|     542 | 0x22AD      |        8877 |
|     543 | 0x22AE      |        8878 |
|     544 | 0x22AF      |        8879 |
|     545 | 0x22B0      |        8880 |
|     546 | 0x00F0      |         240 |
|     547 | 0x005F      |          95 |
|     548 | 0x0064      |         100 |
|     549 | 0x0069      |         105 |
|     550 | 0x0052      |          82 |
|     551 | 0x0057      |          87 |
|     552 | 0x005C      |          92 |
|     553 | 0x0059      |          89 |
|     554 | 0x005D      |          93 |
|     555 | 0x0061      |          97 |
|     556 | 0x018D      |         397 |
|     557 | 0x0175      |         373 |
|     558 | 0x0170      |         368 |
|     559 | 0x0171      |         369 |
|     560 | 0x014C      |         332 |
|     561 | 0x01C1      |         449 |
|     562 | 0x027C      |         636 |
|     563 | 0x027B      |         635 |
|     564 | 0x027D      |         637 |
|     565 | 0x02D3      |         723 |
|     566 | 0x0321      |         801 |
|     567 | 0x0326      |         806 |
|     568 | 0x01E1      |         481 |
|     569 | 0x0343      |         835 |
|     570 | 0x0386      |         902 |
|     571 | 0x0388      |         904 |
|     572 | 0x0387      |         903 |
|     573 | 0x038A      |         906 |
|     574 | 0x003F      |          63 |
|     575 | 0x0282      |         642 |
|     576 | 0x0283      |         643 |
|     577 | 0x0288      |         648 |
|     578 | 0x0289      |         649 |
|     579 | 0x028A      |         650 |
|     580 | 0x028B      |         651 |
|     581 | 0x029E      |         670 |
|     582 | 0x00C6      |         198 |
|     583 | 0x00B5      |         181 |
|     584 | 0x008E      |         142 |
|     585 | 0x007A      |         122 |
|     586 | 0x014B      |         331 |
|     587 | 0x0148      |         328 |
|     588 | 0x0166      |         358 |
|     589 | 0x017A      |         378 |
|     590 | 0x0182      |         386 |
|     591 | 0x0183      |         387 |
|     592 | 0x0192      |         402 |
|     593 | 0x01DF      |         479 |
|     594 | 0x01E9      |         489 |
|     595 | 0x00E6      |         230 |
|     596 | 0x00EB      |         235 |
|     597 | 0x00F5      |         245 |
|     598 | 0x007E      |         126 |
|     599 | 0x00F3      |         243 |
|     600 | 0x00E0      |         224 |
|     601 | 0x00E9      |         233 |
|     602 | 0x009E      |         158 |
|     603 | 0x009D      |         157 |
|     604 | 0x00E2      |         226 |
|     605 | 0x00E1      |         225 |
|     606 | 0x014F      |         335 |
|     607 | 0x014E      |         334 |
|     608 | 0x0167      |         359 |
|     609 | 0x00E5      |         229 |
|     610 | 0x0169      |         361 |
|     611 | 0x016A      |         362 |
|     612 | 0x0168      |         360 |
|     613 | 0x0133      |         307 |
|     614 | 0x0174      |         372 |
|     615 | 0x018C      |         396 |
|     616 | 0x0194      |         404 |
|     617 | 0x0195      |         405 |
|     618 | 0x0178      |         376 |
|     619 | 0x0240      |         576 |
|     620 | 0x0197      |         407 |
|     621 | 0x0198      |         408 |
|     622 | 0x01A3      |         419 |
|     623 | 0x019E      |         414 |
|     624 | 0x0246      |         582 |
|     625 | 0x0247      |         583 |
|     626 | 0x0248      |         584 |
|     627 | 0x024B      |         587 |
|     628 | 0x024A      |         586 |
|     629 | 0x024F      |         591 |
|     630 | 0x01C4      |         452 |
|     631 | 0x01EF      |         495 |
|     632 | 0x01F0      |         496 |
|     633 | 0x0095      |         149 |
|     634 | 0x0034      |          52 |
|     635 | 0x0024      |          36 |
|     636 | 0x005E      |          94 |
|     637 | 0x0072      |         114 |
|     638 | 0x0031      |          49 |
|     639 | 0x0096      |         150 |
|     640 | 0x0085      |         133 |
|     641 | 0x0081      |         129 |
|     642 | 0x0023      |          35 |
|     643 | 0x0033      |          51 |
|     644 | 0x0082      |         130 |
|     645 | 0x0020      |          32 |
|     646 | 0x0036      |          54 |
|     647 | 0x0083      |         131 |
|     648 | 0x00A2      |         162 |
|     649 | 0x0065      |         101 |
|     650 | 0x0086      |         134 |
|     651 | 0x0062      |          98 |
|     652 | 0x008D      |         141 |
|     653 | 0x0037      |          55 |
|     654 | 0x008A      |         138 |
|     655 | 0x008B      |         139 |
|     656 | 0x002B      |          43 |
|     657 | 0x0067      |         103 |
|     658 | 0x00A1      |         161 |
|     659 | 0x0066      |         102 |
|     660 | 0x0075      |         117 |
|     661 | 0x0068      |         104 |
|     662 | 0x0077      |         119 |
|     663 | 0x01FE      |         510 |
|     664 | 0x00A4      |         164 |
|     665 | 0x00A9      |         169 |
|     666 | 0x00AC      |         172 |
|     667 | 0x00B0      |         176 |
|     668 | 0x013D      |         317 |
|     669 | 0x0108      |         264 |
|     670 | 0x010C      |         268 |
|     671 | 0x00FB      |         251 |
|     672 | 0x00B8      |         184 |
|     673 | 0x011C      |         284 |
|     674 | 0x0041      |          65 |
|     675 | 0x0042      |          66 |
|     676 | 0x0160      |         352 |
|     677 | 0x0043      |          67 |
|     678 | 0x0048      |          72 |
|     679 | 0x004C      |          76 |
|     680 | 0x004D      |          77 |
|     681 | 0x005B      |          91 |
|     682 | 0x0058      |          88 |
|     683 | 0x0053      |          83 |
|     684 | 0x0054      |          84 |
|     685 | 0x0161      |         353 |
|     686 | 0x015C      |         348 |
|     687 | 0x016D      |         365 |
|     688 | 0x00C5      |         197 |
|     689 | 0x00C3      |         195 |
|     690 | 0x00C7      |         199 |
|     691 | 0x015E      |         350 |
|     692 | 0x00C4      |         196 |
|     693 | 0x016E      |         366 |
|     694 | 0x00D0      |         208 |
|     695 | 0x00CD      |         205 |
|     696 | 0x00D8      |         216 |
|     697 | 0x00D5      |         213 |
|     698 | 0x00D6      |         214 |
|     699 | 0x013B      |         315 |
|     700 | 0x0136      |         310 |
|     701 | 0x013A      |         314 |
|     702 | 0x0137      |         311 |
|     703 | 0x016F      |         367 |
|     704 | 0x0138      |         312 |
|     705 | 0x0139      |         313 |
|     706 | 0x0091      |         145 |
|     707 | 0x0099      |         153 |
|     708 | 0x0093      |         147 |
|     709 | 0x0092      |         146 |
|     710 | 0x0098      |         152 |
|     711 | 0x0071      |         113 |
|     712 | 0x00E8      |         232 |
|     713 | 0x00DD      |         221 |
|     714 | 0x00F8      |         248 |
|     715 | 0x00F1      |         241 |
|     716 | 0x0124      |         292 |
|     717 | 0x012E      |         302 |
|     718 | 0x0129      |         297 |
|     719 | 0x0122      |         290 |
|     720 | 0x0132      |         306 |
|     721 | 0x0126      |         294 |
|     722 | 0x0155      |         341 |
|     723 | 0x0025      |          37 |
|     724 | 0x0029      |          41 |
|     725 | 0x007D      |         125 |
|     726 | 0x0079      |         121 |
|     727 | 0x007C      |         124 |
|     728 | 0x0074      |         116 |
|     729 | 0x00EC      |         236 |
|     730 | 0x019C      |         412 |
|     731 | 0x0193      |         403 |
|     732 | 0x01C6      |         454 |
|     733 | 0x01C7      |         455 |
|     734 | 0xFFFF2E3D  |  4294913597 |
|     735 | 0xAFEE      |       45038 |
|     736 | 0x081C      |        2076 |
|     737 | 0xFFFEA618  |  4294878744 |
|     738 | 0x291CD     |      168397 |
|     739 | 0x09ED      |        2541 |
|     740 | 0xFFFF2EB4  |  4294913716 |
|     741 | 0xB1BB      |       45499 |
|     742 | 0x05EB      |        1515 |
|     743 | 0xFFFF37A6  |  4294916006 |
|     744 | 0xB1B4      |       45492 |
|     745 | 0x07E2      |        2018 |
|     746 | 0xFFFF2FF9  |  4294914041 |
|     747 | 0xB17D      |       45437 |
|     748 | 0xFFFF31E1  |  4294914529 |
|     749 | 0xA2A2      |       41634 |
|     750 | 0x0AB1      |        2737 |
|     751 | 0xFFFF2CDC  |  4294913244 |
|     752 | 0xA92F      |       43311 |
|     753 | 0xFFFFFED3  |  4294966995 |
|     754 | 0xFFFF2E73  |  4294913651 |
|     755 | 0xACDF      |       44255 |
|     756 | 0x08C6      |        2246 |
|     757 | 0xFFFF2A8B  |  4294912651 |
|     758 | 0xB6B9      |       46777 |
|     759 | 0x03FE      |        1022 |
|     760 | 0x00C1      |         193 |
|     761 | 0x2447      |        9287 |
|     762 | 0x2448      |        9288 |
|     763 | 0x2449      |        9289 |
|     764 | 0x244A      |        9290 |
|     765 | 0x244B      |        9291 |
|     766 | 0x244C      |        9292 |
|     767 | 0x244D      |        9293 |
|     768 | 0x244E      |        9294 |
|     769 | 0x244F      |        9295 |
|     770 | 0x2450      |        9296 |
|     771 | 0x2451      |        9297 |
|     772 | 0x2452      |        9298 |
|     773 | 0x2453      |        9299 |
|     774 | 0x2454      |        9300 |
|     775 | 0x2455      |        9301 |
|     776 | 0x2456      |        9302 |
|     777 | 0x2457      |        9303 |
|     778 | 0x2458      |        9304 |
|     779 | 0x2459      |        9305 |
|     780 | 0x245A      |        9306 |
|     781 | 0x245B      |        9307 |
|     782 | 0x245E      |        9310 |
|     783 | 0x245F      |        9311 |
|     784 | 0x2460      |        9312 |
|     785 | 0x2461      |        9313 |
|     786 | 0x2462      |        9314 |
|     787 | 0x245C      |        9308 |
|     788 | 0x245D      |        9309 |
|     789 | 0x2463      |        9315 |
|     790 | 0x2464      |        9316 |
|     791 | 0x2465      |        9317 |
|     792 | 0x2466      |        9318 |
|     793 | 0x2467      |        9319 |
|     794 | 0x2468      |        9320 |
|     795 | 0x246B      |        9323 |
|     796 | 0x246C      |        9324 |
|     797 | 0x246D      |        9325 |
|     798 | 0x246E      |        9326 |
|     799 | 0x246F      |        9327 |
|     800 | 0x2469      |        9321 |
|     801 | 0x246A      |        9322 |
|     802 | 0x2470      |        9328 |
|     803 | 0x2471      |        9329 |
|     804 | 0x2472      |        9330 |
|     805 | 0x2473      |        9331 |
|     806 | 0x2474      |        9332 |
|     807 | 0x2475      |        9333 |
|     808 | 0x2476      |        9334 |
|     809 | 0x2477      |        9335 |
|     810 | 0x2478      |        9336 |
|     811 | 0x2479      |        9337 |
|     812 | 0x00C0      |         192 |
|     813 | 0x247A      |        9338 |
|     814 | 0xFFFF2D4A  |  4294913354 |
|     815 | 0xB2AD      |       45741 |
|     816 | 0x05F0      |        1520 |
|     817 | 0x247B      |        9339 |
|     818 | 0x247C      |        9340 |
|     819 | 0x247D      |        9341 |
|     820 | 0x247E      |        9342 |
|     821 | 0x247F      |        9343 |
|     822 | 0x2480      |        9344 |
|     823 | 0x2481      |        9345 |
|     824 | 0x2482      |        9346 |
|     825 | 0x2483      |        9347 |
|     826 | 0x2484      |        9348 |
|     827 | 0x2485      |        9349 |
|     828 | 0xFFFF5681  |  4294923905 |
|     829 | 0xFFFFFC5D  |  4294966365 |
|     830 | 0xFFFF546E  |  4294923374 |
|     831 | 0xFFFFFCE8  |  4294966504 |
|     832 | 0x2486      |        9350 |
|     833 | 0x2487      |        9351 |
|     834 | 0x2488      |        9352 |
|     835 | 0x2489      |        9353 |
|     836 | 0x248A      |        9354 |
|     837 | 0x248B      |        9355 |
|     838 | 0x248C      |        9356 |
|     839 | 0x248D      |        9357 |
|     840 | 0x248E      |        9358 |
|     841 | 0x248F      |        9359 |
|     842 | 0x2490      |        9360 |
|     843 | 0x2491      |        9361 |
|     844 | 0x2492      |        9362 |
|     845 | 0x2493      |        9363 |
|     846 | 0x2494      |        9364 |
|     847 | 0x2495      |        9365 |
|     848 | 0x2496      |        9366 |
|     849 | 0xFFFF53FF  |  4294923263 |
|     850 | 0xFFFFF9E7  |  4294965735 |
|     851 | 0x07A9      |        1961 |
|     852 | 0x0026      |          38 |
|     853 | 0x092F      |        2351 |
|     854 | 0x2497      |        9367 |
|     855 | 0x2498      |        9368 |
|     856 | 0x2499      |        9369 |
|     857 | 0x249A      |        9370 |
|     858 | 0x249D      |        9373 |
|     859 | 0x249E      |        9374 |
|     860 | 0x249F      |        9375 |
|     861 | 0x24A0      |        9376 |
|     862 | 0x24A1      |        9377 |
|     863 | 0x249B      |        9371 |
|     864 | 0x249C      |        9372 |
|     865 | 0x24A2      |        9378 |
|     866 | 0x24A3      |        9379 |
|     867 | 0x24A4      |        9380 |
|     868 | 0x24A5      |        9381 |
|     869 | 0x24A6      |        9382 |
|     870 | 0x24A7      |        9383 |
|     871 | 0x24AA      |        9386 |
|     872 | 0x24AB      |        9387 |
|     873 | 0x24AC      |        9388 |
|     874 | 0x24AD      |        9389 |
|     875 | 0x24AE      |        9390 |
|     876 | 0x24A8      |        9384 |
|     877 | 0x24A9      |        9385 |
|     878 | 0x24AF      |        9391 |
|     879 | 0x24B0      |        9392 |
|     880 | 0xFFFF3100  |  4294914304 |
|     881 | 0xB244      |       45636 |
|     882 | 0x250E      |        9486 |
|     883 | 0x250F      |        9487 |
|     884 | 0x2510      |        9488 |
|     885 | 0x2511      |        9489 |
|     886 | 0x2512      |        9490 |
|     887 | 0x2513      |        9491 |
|     888 | 0x2514      |        9492 |
|     889 | 0x2515      |        9493 |
|     890 | 0x2516      |        9494 |
|     891 | 0x2517      |        9495 |
|     892 | 0x2518      |        9496 |
|     893 | 0x2519      |        9497 |
|     894 | 0x251A      |        9498 |
|     895 | 0x251D      |        9501 |
|     896 | 0x251E      |        9502 |
|     897 | 0x251F      |        9503 |
|     898 | 0x2520      |        9504 |
|     899 | 0x2521      |        9505 |
|     900 | 0x251B      |        9499 |
|     901 | 0x251C      |        9500 |
|     902 | 0x2522      |        9506 |
|     903 | 0x2523      |        9507 |
|     904 | 0x2524      |        9508 |
|     905 | 0x2525      |        9509 |
|     906 | 0x2526      |        9510 |
|     907 | 0x2529      |        9513 |
|     908 | 0x252A      |        9514 |
|     909 | 0x252B      |        9515 |
|     910 | 0x252C      |        9516 |
|     911 | 0x252D      |        9517 |
|     912 | 0x2527      |        9511 |
|     913 | 0x2528      |        9512 |
|     914 | 0x252E      |        9518 |
|     915 | 0x252F      |        9519 |
|     916 | 0x2530      |        9520 |
|     917 | 0x2531      |        9521 |
|     918 | 0x2532      |        9522 |
|     919 | 0x2535      |        9525 |
|     920 | 0x2536      |        9526 |
|     921 | 0x2537      |        9527 |
|     922 | 0x2538      |        9528 |
|     923 | 0x2539      |        9529 |
|     924 | 0x2533      |        9523 |
|     925 | 0x2534      |        9524 |
|     926 | 0x253A      |        9530 |
|     927 | 0x253B      |        9531 |
|     928 | 0x253C      |        9532 |
|     929 | 0x253D      |        9533 |
|     930 | 0xFFFF2F7F  |  4294913919 |
|     931 | 0xB107      |       45319 |
|     932 | 0x253E      |        9534 |
|     933 | 0x253F      |        9535 |
|     934 | 0x2540      |        9536 |
|     935 | 0x2541      |        9537 |
|     936 | 0x2544      |        9540 |
|     937 | 0x2545      |        9541 |
|     938 | 0x2546      |        9542 |
|     939 | 0x2547      |        9543 |
|     940 | 0x2548      |        9544 |
|     941 | 0x2542      |        9538 |
|     942 | 0x2543      |        9539 |
|     943 | 0x2549      |        9545 |
|     944 | 0x254A      |        9546 |
|     945 | 0x254B      |        9547 |
|     946 | 0x254C      |        9548 |
|     947 | 0x254D      |        9549 |
|     948 | 0x254E      |        9550 |
|     949 | 0x2551      |        9553 |
|     950 | 0x2552      |        9554 |
|     951 | 0x2553      |        9555 |
|     952 | 0x2554      |        9556 |
|     953 | 0x2555      |        9557 |
|     954 | 0x254F      |        9551 |
|     955 | 0x2550      |        9552 |
|     956 | 0x2556      |        9558 |
|     957 | 0x2557      |        9559 |
|     958 | 0x2558      |        9560 |
|     959 | 0x2559      |        9561 |
|     960 | 0x255A      |        9562 |
|     961 | 0x255B      |        9563 |
|     962 | 0x255C      |        9564 |
|     963 | 0x255D      |        9565 |
|     964 | 0x255E      |        9566 |
|     965 | 0x255F      |        9567 |
|     966 | 0x2560      |        9568 |
|     967 | 0x2561      |        9569 |
|     968 | 0x2562      |        9570 |
|     969 | 0x2563      |        9571 |
|     970 | 0x2564      |        9572 |
|     971 | 0x2565      |        9573 |
|     972 | 0x2566      |        9574 |
|     973 | 0x2569      |        9577 |
|     974 | 0x256A      |        9578 |
|     975 | 0x256B      |        9579 |
|     976 | 0x256C      |        9580 |
|     977 | 0x256D      |        9581 |
|     978 | 0x2567      |        9575 |
|     979 | 0x2568      |        9576 |
|     980 | 0x256E      |        9582 |
|     981 | 0x256F      |        9583 |
|     982 | 0x2571      |        9585 |
|     983 | 0x2572      |        9586 |
|     984 | 0x2573      |        9587 |
|     985 | 0x2574      |        9588 |
|     986 | 0xFFFF2F46  |  4294913862 |
|     987 | 0xB730      |       46896 |
|     988 | 0x033D      |         829 |
|     989 | 0x2575      |        9589 |
|     990 | 0x0044      |          68 |
|     991 | 0x2576      |        9590 |
|     992 | 0x2577      |        9591 |
|     993 | 0x2578      |        9592 |
|     994 | 0x2579      |        9593 |
|     995 | 0x257A      |        9594 |
|     996 | 0x257B      |        9595 |
|     997 | 0x257C      |        9596 |
|     998 | 0x257D      |        9597 |
|     999 | 0x0DE1      |        3553 |
|    1000 | 0x257E      |        9598 |
|    1001 | 0x257F      |        9599 |
|    1002 | 0x2580      |        9600 |
|    1003 | 0x2581      |        9601 |
|    1004 | 0x2584      |        9604 |
|    1005 | 0x2585      |        9605 |
|    1006 | 0x2586      |        9606 |
|    1007 | 0x2587      |        9607 |
|    1008 | 0x2588      |        9608 |
|    1009 | 0x2582      |        9602 |
|    1010 | 0x2583      |        9603 |
|    1011 | 0x2589      |        9609 |
|    1012 | 0x258A      |        9610 |
|    1013 | 0xFFFF2AB3  |  4294912691 |
|    1014 | 0xB5C7      |       46535 |
|    1015 | 0x04EF      |        1263 |
|    1016 | 0xFFFF2BF4  |  4294913012 |
|    1017 | 0xB446      |       46150 |
|    1018 | 0x05BF      |        1471 |
|    1019 | 0xFFFF36E4  |  4294915812 |
|    1020 | 0xE2DC      |       58076 |
|    1021 | 0xFFFF2BB9  |  4294912953 |
|    1022 | 0xB4E5      |       46309 |
|    1023 | 0x0534      |        1332 |
|    1024 | 0xFFFF30EE  |  4294914286 |
|    1025 | 0xAF41      |       44865 |
|    1026 | 0xFFFF326A  |  4294914666 |
|    1027 | 0xDA4B      |       55883 |
|    1028 | 0x68CB      |       26827 |
|    1029 | 0xFFFF78A5  |  4294932645 |
|    1030 | 0xFFFFFC19  |  4294966297 |
|    1031 | 0x0DD4      |        3540 |
|    1032 | 0xFFFF337E  |  4294914942 |
|    1033 | 0xDE56      |       56918 |
|    1034 | 0x041A      |        1050 |
|    1035 | 0xFFFF311E  |  4294914334 |
|    1036 | 0xBD3F      |       48447 |
|    1037 | 0xFFFF4D37  |  4294921527 |
|    1038 | 0x164BB     |       91323 |
|    1039 | 0x0722      |        1826 |
|    1040 | 0xFFFF2299  |  4294910617 |
|    1041 | 0x16638     |       91704 |
|    1042 | 0x0CE2      |        3298 |
|    1043 | 0xFFFF3201  |  4294914561 |
|    1044 | 0x17B47     |       97095 |
|    1045 | 0x026F      |         623 |
|    1046 | 0xFFFFE0C4  |  4294959300 |
|    1047 | 0xFFFE7922  |  4294867234 |
|    1048 | 0x0577      |        1399 |
|    1049 | 0x0D24      |        3364 |
|    1050 | 0xFFFF31AE  |  4294914478 |
|    1051 | 0x16E97     |       93847 |
|    1052 | 0x0748      |        1864 |
|    1053 | 0xFFFF30E0  |  4294914272 |
|    1054 | 0x1788D     |       96397 |
|    1055 | 0x0C49      |        3145 |
|    1056 | 0x0E10      |        3600 |
|    1057 | 0xFFFF30D0  |  4294914256 |
|    1058 | 0x196F0     |      104176 |
|    1059 | 0xFFFF2E0A  |  4294913546 |
|    1060 | 0xAD34      |       44340 |
|    1061 | 0xFFFEAC89  |  4294880393 |
|    1062 | 0x124C2     |       74946 |
|    1063 | 0x0400      |        1024 |
|    1064 | 0xFFFFFFFF  |  4294967295 |
|    1065 | 0x0200      |         512 |
|    1066 | 0xFFFED004  |  4294889476 |
|    1067 | 0x11FFA     |       73722 |
|    1068 | 0xFFFECC69  |  4294888553 |
|    1069 | 0x1136D     |       70509 |
|    1070 | 0xFFFEC410  |  4294886416 |
|    1071 | 0x10FB7     |       69559 |
|    1072 | 0xFFFEBBD0  |  4294884304 |
|    1073 | 0x11340     |       70464 |
|    1074 | 0xFFFEAF49  |  4294881097 |
|    1075 | 0x128BF     |       75967 |
|    1076 | 0xFFFEAF47  |  4294881095 |
|    1077 | 0x12FF9     |       77817 |
|    1078 | 0xFFFEB218  |  4294881816 |
|    1079 | 0x1350D     |       79117 |
|    1080 | 0xFFFEBD47  |  4294884679 |
|    1081 | 0x115C3     |       71107 |
|    1082 | 0xFFFEAB5E  |  4294880094 |
|    1083 | 0x137DE     |       79838 |
|    1084 | 0x02AA      |         682 |
|    1085 | 0xFFFF32CA  |  4294914762 |
|    1086 | 0xAA9E      |       43678 |
|    1087 | 0xFFFF2C38  |  4294913080 |
|    1088 | 0xB59C      |       46492 |
|    1089 | 0xFFFF4F0E  |  4294921998 |
|    1090 | 0xAC63      |       44131 |
|    1091 | 0xFFFF3984  |  4294916484 |
|    1092 | 0xAD31      |       44337 |
|    1093 | 0xFFFEBB9A  |  4294884250 |
|    1094 | 0x17D05     |       97541 |
|    1095 | 0xFFFED6F6  |  4294891254 |
|    1096 | 0x16509     |       91401 |
|    1097 | 0xFFFF4B26  |  4294920998 |
|    1098 | 0x171AB     |       94635 |
|    1099 | 0x00B3      |         179 |
|    1100 | 0x00BD      |         189 |
|    1101 | 0x00D1      |         209 |
|    1102 | 0xFFFF38FA  |  4294916346 |
|    1103 | 0x172F0     |       94960 |
|    1104 | 0x2008      |        8200 |
|    1105 | 0x1546E     |       87150 |
|    1106 | 0xFFFF2842  |  4294912066 |
|    1107 | 0x15356     |       86870 |

## String References

- **7057**: Take the Cardian to the Manustery? [Of course./No, I cannot.]
- **7487**: Our valued customers: It's always a special day at our tavern.
- **7488**: It seems you're not welcome today.
- **7489**: It seems you're welcome today.
- **7490**: Enter the tavern? [Yes./No, not now.]
- **7491**: Exit the tavern? [Yes./Not quite yet.]
- **7493**: ***Today the Marble Bridge welcomes citizens of San d'Oria!***
- **7494**: ***Today the Marble Bridge welcomes citizens of Bastok!***
- **7495**: ***Today the Marble Bridge welcomes citizens of Windurst!***
- **7496**: ***Today the Marble Bridge welcomes warriors!***
- **7497**: ***Today the Marble Bridge welcomes monks!***
- **7498**: ***Today the Marble Bridge welcomes white mages!***
- **7499**: ***Today the Marble Bridge welcomes black mages!***
- **7500**: ***Today the Marble Bridge welcomes red mages!***
- **7501**: ***Today the Marble Bridge welcomes thieves!***
- **7502**: ***Today the Marble Bridge welcomes paladins!***
- **7503**: ***Today the Marble Bridge welcomes dark knights!***
- **7504**: ***Today the Marble Bridge welcomes beastmasters!***
- **7505**: ***Today the Marble Bridge welcomes bards!***
- **7506**: ***Today the Marble Bridge welcomes rangers!***
- **7507**: ***Today the Marble Bridge welcomes samurais!***
- **7508**: ***Today the Marble Bridge welcomes ninjas!***
- **7509**: ***Today the Marble Bridge welcomes dragoons!***
- **7510**: ***Today the Marble Bridge welcomes summoners!***
- **7511**: ***Today the Marble Bridge welcomes blue mages!***
- **7512**: ***Today the Marble Bridge welcomes corsairs!***
- **7513**: ***Today the Marble Bridge welcomes puppetmasters!***
- **7514**: ***Today the Marble Bridge welcomes dancers!***
- **7515**: ***Today the Marble Bridge welcomes scholars!***
- **7516**: ***Today the Marble Bridge welcomes geomancers!***
- **7517**: ***Today the Marble Bridge welcomes rune fencers!***
- **7518**: ***Today the Marble Bridge welcomes Humes!***
- **7519**: ***Today the Marble Bridge welcomes Elvaan!***
- **7520**: ***Today the Marble Bridge welcomes Tarutaru!***
- **7521**: ***Today the Marble Bridge welcomes Mithra!***
- **7522**: ***Today the Marble Bridge welcomes Galka!***
- **7523**: ***Today the Marble Bridge welcomes all gentlemen!***
- **7524**: ***Today the Marble Bridge welcomes all ladies!***
- **8821**: Help out? [Sure./Not right now.]
- **8828**: Which page do you look at? [Hume males./Hume females./Elvaan males./Elvaan females./Tarutaru males./Tarutaru females./Mithra./Galka./Changed my mind.]
- **8829**: Who do you choose? [Feliz./Ferdinand./Gunnar./Massimo./Oldrich./Siegward./Theobald./Zenji.]
- **8830**: Who do you choose? [Amerita./Beatrice./Henrietta./Jesimae./Karyn./Nanako./Sharlene./Sieghilde.]
- **8831**: Who do you choose? [Chanandit./Deulmaeux./Demresinaux./Ephealgaux./Gauldeval./Grauffemart./Migaifongut./Romidiant.]
- **8832**: Who do you choose? [Armittie./Cadepure./Clearite./Epilleve./Liabelle./Nauthima./Radille./Vimechue.]
- **8833**: Who do you choose? [Balu-Falu./Burg-Ladarg./Ehgo-Ryuhgo./Kolui-Pelui./Nokum-Akkum./Savul-Kivul./Vinja-Kanja./Yarga-Umiga.]
- **8834**: Who do you choose? [Cupapa./Jajuju./Kalokoko./Mahoyaya./Pakurara./Ripokeke./Yawawa./Yufafa.]
- **8835**: Who do you choose? [Fhig Lahrv./Khuma Tagyawhan./Pimy Kettihl./Raka Maimhov./Sahyu Banjyao./Sufhi Uchnouma./Tsuim Nhomango./Yoli Kohlpaka.]
- **8836**: Who do you choose? [Durib./Dzapiwa./Jugowa./Mugido./Voldai./Wagwei./Zayag./Zoldof.]
- **8845**: This is your choice? [This is the one./Let me see the list again.]

## Events

### Event 65535

#### Metadata

| Field        | Value   |
|--------------|---------|
| Entrypoint   | 0x0000  |
| Data Size    | 4 bytes |
| Instructions | 2       |

```
      00 01 02 03 04 05 06 07  08 09 0A 0B 0C 0D 0E 0F
      -- -- -- -- -- -- -- --  -- -- -- -- -- -- -- --
0000: 32 00 80 00                                       2...            
```

#### Opcodes

```
  0: 0x0000 [0x32] ExtData[1]->MainSpeed = 13* * 0.1
  1: 0x0003 [0x00] END_REQSTACK()
```

### Event 65535.1

#### Metadata

| Field        | Value     |
|--------------|-----------|
| Entrypoint   | 0x0004    |
| Data Size    | 158 bytes |
| Instructions | 2         |

```
      00 01 02 03 04 05 06 07  08 09 0A 0B 0C 0D 0E 0F
      -- -- -- -- -- -- -- --  -- -- -- -- -- -- -- --
0000:             37 01 80 02  80 03 80 04 80 00 03 01      7...........
0010: 00 00 00 02 01 00 05 80  05 23 00 08 01 00 06 80  .........#......
0020: 01 28 00 08 01 00 07 80  14 01 00 08 80 07 01 00  .(..............
0030: 09 80 1B 03 01 00 00 00  02 01 00 05 80 05 48 00  ..............H.
0040: 08 01 00 06 80 01 4D 00  08 01 00 07 80 14 01 00  ......M.........
0050: 08 80 07 01 00 0A 80 1B  03 01 00 00 00 02 01 00  ................
0060: 05 80 05 6D 00 08 01 00  06 80 01 72 00 08 01 00  ...m.......r....
0070: 07 80 14 01 00 08 80 07  01 00 0B 80 1B 03 01 00  ................
0080: 00 00 02 01 00 05 80 05  92 00 08 01 00 06 80 01  ................
0090: 97 00 08 01 00 07 80 14  01 00 08 80 07 01 00 0C  ................
00A0: 80 1B                                             ..              
```

#### Opcodes

```
  0: 0x0004 [0x37] UPDATE_EVENT_POSITION_AND_DIR: x=0.154*, z=-1.653*, y=0.000*, direction=259.0*
  1: 0x000D [0x00] END_REQSTACK()
```

#### Data or dead code:

```
# Dead code (unreachable instructions):
     0x000E [0x03] ExtData[1]->WorkLocal[1] = ExtData[1]->WorkLocal[0]
     0x0013 [0x02] IF !(ExtData[1]->WorkLocal[1] > 5*) GOTO 0x0023
     0x001B [0x08] ExtData[1]->WorkLocal[1] -= 1*
     0x0020 [0x01] GOTO 0x0028
     0x0023 [0x08] ExtData[1]->WorkLocal[1] -= 2*
     0x0028 [0x14] ExtData[1]->WorkLocal[1] *= 10*
     0x002D [0x07] ExtData[1]->WorkLocal[1] += 9*
     0x0032 [0x1B] RETURN
     0x0033 [0x03] ExtData[1]->WorkLocal[1] = ExtData[1]->WorkLocal[0]
     0x0038 [0x02] IF !(ExtData[1]->WorkLocal[1] > 5*) GOTO 0x0048
     0x0040 [0x08] ExtData[1]->WorkLocal[1] -= 1*
     0x0045 [0x01] GOTO 0x004D
     0x0048 [0x08] ExtData[1]->WorkLocal[1] -= 2*
     0x004D [0x14] ExtData[1]->WorkLocal[1] *= 10*
     0x0052 [0x07] ExtData[1]->WorkLocal[1] += 70*
     0x0057 [0x1B] RETURN
     0x0058 [0x03] ExtData[1]->WorkLocal[1] = ExtData[1]->WorkLocal[0]
     0x005D [0x02] IF !(ExtData[1]->WorkLocal[1] > 5*) GOTO 0x006D
     0x0065 [0x08] ExtData[1]->WorkLocal[1] -= 1*
     0x006A [0x01] GOTO 0x0072
     0x006D [0x08] ExtData[1]->WorkLocal[1] -= 2*
     0x0072 [0x14] ExtData[1]->WorkLocal[1] *= 10*
     0x0077 [0x07] ExtData[1]->WorkLocal[1] += 140*
     0x007C [0x1B] RETURN
     0x007D [0x03] ExtData[1]->WorkLocal[1] = ExtData[1]->WorkLocal[0]
     0x0082 [0x02] IF !(ExtData[1]->WorkLocal[1] > 5*) GOTO 0x0092
     0x008A [0x08] ExtData[1]->WorkLocal[1] -= 1*
     0x008F [0x01] GOTO 0x0097
     0x0092 [0x08] ExtData[1]->WorkLocal[1] -= 2*
     0x0097 [0x14] ExtData[1]->WorkLocal[1] *= 10*
     0x009C [0x07] ExtData[1]->WorkLocal[1] += 210*
     0x00A1 [0x1B] RETURN
```

### Event 65534

#### Metadata

| Field        | Value   |
|--------------|---------|
| Entrypoint   | 0x00A2  |
| Data Size    | 1 bytes |
| Instructions | 1       |

```
      00 01 02 03 04 05 06 07  08 09 0A 0B 0C 0D 0E 0F
      -- -- -- -- -- -- -- --  -- -- -- -- -- -- -- --
00A0:       00                                            .             
```

#### Opcodes

```
  0: 0x00A2 [0x00] END_REQSTACK()
```

### Event 65535.2

#### Metadata

| Field        | Value    |
|--------------|----------|
| Entrypoint   | 0x00A3   |
| Data Size    | 63 bytes |
| Instructions | 12       |

```
      00 01 02 03 04 05 06 07  08 09 0A 0B 0C 0D 0E 0F
      -- -- -- -- -- -- -- --  -- -- -- -- -- -- -- --
00A0:          37 0D 80 0E 80  0F 80 10 80 79 00 F0 FF     7........y...
00B0: FF 7F 83 40 0F 01 32 00  80 1F 00 11 80 12 80 0F  ...@..2.........
00C0: 80 1F 01 1F 00 13 80 14  80 15 80 1F 01 1F 00 16  ................
00D0: 80 17 80 15 80 1F 01 1E  83 40 0F 01 03 20 10 07  .........@... ..
00E0: 7F 00                                             ..              
```

#### Opcodes

```
  0: 0x00A3 [0x37] UPDATE_EVENT_POSITION_AND_DIR: x=-105.649*, z=84.512*, y=-0.199*, direction=61.4*
  1: 0x00AC [0x79] LocalPlayer looks at Mildaurion (ID: 17776771/0x010F4083) (Basic look)
  2: 0x00B6 [0x32] ExtData[1]->MainSpeed = 13* * 0.1
  3: 0x00B9 [0x1F] MOVE_ENTITY: EventEntity moves to X=-104.311*, Z=82.342*, Y=-0.199*
  4: 0x00C1 [0x1F] MOVE_ENTITY: Update entity position (mode=1)
  5: 0x00C3 [0x1F] MOVE_ENTITY: EventEntity moves to X=-102.284*, Z=81.772*, Y=-0.649*
  6: 0x00CB [0x1F] MOVE_ENTITY: Update entity position (mode=1)
  7: 0x00CD [0x1F] MOVE_ENTITY: EventEntity moves to X=-101.562*, Z=82.998*, Y=-0.649*
  8: 0x00D5 [0x1F] MOVE_ENTITY: Update entity position (mode=1)
  9: 0x00D7 [0x1E] EventEntity looks at Mildaurion (ID: 17776771/0x010F4083) and starts talking
 10: 0x00DC [0x03] Work_Zone[32] = Entity->Race
 11: 0x00E1 [0x00] END_REQSTACK()
```

### Event 65535.3

#### Metadata

| Field        | Value    |
|--------------|----------|
| Entrypoint   | 0x00E2   |
| Data Size    | 19 bytes |
| Instructions | 3        |

```
      00 01 02 03 04 05 06 07  08 09 0A 0B 0C 0D 0E 0F
      -- -- -- -- -- -- -- --  -- -- -- -- -- -- -- --
00E0:       3B F8 FF FF 7F 02  00 03 00 04 00 3A F8 FF    ;..........:..
00F0: FF 7F 05 00 00                                    .....           
```

#### Opcodes

```
  0: 0x00E2 [0x3B] GET_ENTITY_POSITION(entity=EventEntity, x_destination=ExtData[1]->WorkLocal[2], y_destination=ExtData[1]->WorkLocal[3], z_destination=ExtData[1]->WorkLocal[4])
  1: 0x00ED [0x3A] CONVERT_YAW_TO_BYTE(entity=EventEntity, result_destination=ExtData[1]->WorkLocal[5])
  2: 0x00F4 [0x00] END_REQSTACK()
```

### Event 65535.4

#### Metadata

| Field        | Value    |
|--------------|----------|
| Entrypoint   | 0x00F5   |
| Data Size    | 10 bytes |
| Instructions | 2        |

```
      00 01 02 03 04 05 06 07  08 09 0A 0B 0C 0D 0E 0F
      -- -- -- -- -- -- -- --  -- -- -- -- -- -- -- --
00F0:                37 02 00  03 00 04 00 05 00 00          7......... 
```

#### Opcodes

```
  0: 0x00F5 [0x37] UPDATE_EVENT_POSITION_AND_DIR: x=ExtData[1]->WorkLocal[2], z=ExtData[1]->WorkLocal[3], y=ExtData[1]->WorkLocal[4], direction=ExtData[1]->WorkLocal[5]
  1: 0x00FE [0x00] END_REQSTACK()
```

### Event 10

#### Metadata

| Field        | Value      |
|--------------|------------|
| Entrypoint   | 0x00FF     |
| Data Size    | 1408 bytes |
| Instructions | 174        |

```
      00 01 02 03 04 05 06 07  08 09 0A 0B 0C 0D 0E 0F
      -- -- -- -- -- -- -- --  -- -- -- -- -- -- -- --
00F0:                                               20                  
0100: 01 46 01 42 45 18 80 F0  FF FF 7F F0 FF FF 7F 66  .F.BE..........f
0110: 64 6F 31 03 80 55 18 80  F0 FF FF 7F F0 FF FF 7F  do1..U..........
0120: 66 64 6F 31 03 06 00 09  10 45 19 80 F0 FF FF 7F  fdo1.....E......
0130: F0 FF FF 7F 74 30 30 30  03 80 55 19 80 F0 FF FF  ....t000..U.....
0140: 7F F0 FF FF 7F 74 30 30  30 38 1A 80 97 03 80 06  .....t0008......
0150: 80 75 00 1B 80 75 01 94  01 F8 FF FF 7F 92 01 01  .u...u..........
0160: 40 0F 01 92 01 02 40 0F  01 4E 01 61 40 0F 01 4E  @.....@..N.a@..N
0170: 01 5E 40 0F 01 4E 01 5F  40 0F 01 4E 01 2C 40 0F  .^@..N._@..N.,@.
0180: 01 5C 00 1C 80 5C 01 1C  80 37 1D 80 1E 80 1F 80  .\...\...7......
0190: 20 80 4A 39 40 0F 01 F0  FF FF 7F 7B 39 40 0F 01   .J9@......{9@..
01A0: 79 00 F0 FF FF 7F 01 40  0F 01 79 00 01 40 0F 01  y......@..y..@..
01B0: F0 FF FF 7F 45 18 80 F0  FF FF 7F F0 FF FF 7F 66  ....E..........f
01C0: 64 69 31 03 80 1C 21 80  27 03 01 40 0F 01 2C 55  di1...!.'..@..,U
01D0: 18 80 F0 FF FF 7F F0 FF  FF 7F 66 64 69 31 2B 01  ..........fdi1+.
01E0: 40 0F 01 22 80 23 2A 03  01 40 0F 01 2B 01 40 0F  @..".#*..@..+.@.
01F0: 01 23 80 23 27 03 51 40  0F 01 03 4A 02 40 0F 01  .#.#'.Q@...J.@..
0200: 51 40 0F 01 1C 08 80 45  19 80 F0 FF FF 7F F0 FF  Q@.....E........
0210: FF 7F 74 30 30 31 03 80  55 19 80 F0 FF FF 7F F0  ..t001..U.......
0220: FF FF 7F 74 30 30 31 2A  03 51 40 0F 01 2B 51 40  ...t001*.Q@..+Q@
0230: 0F 01 24 80 4B 51 40 0F  01 25 80 6F 76 51 40 0F  ..$.KQ@..%.ovQ@.
0240: 01 4A F0 FF FF 7F 51 40  0F 01 79 00 01 40 0F 01  .J....Q@..y..@..
0250: 51 40 0F 01 1C 21 80 4A  51 40 0F 01 01 40 0F 01  Q@...!.JQ@...@..
0260: 6F 76 51 40 0F 01 23 45  19 80 F0 FF FF 7F F0 FF  ovQ@..#E........
0270: FF 7F 74 30 30 32 03 80  55 19 80 F0 FF FF 7F F0  ..t002..U.......
0280: FF FF 7F 74 30 30 32 27  03 51 40 0F 01 04 2B 01  ...t002'.Q@...+.
0290: 40 0F 01 26 80 23 79 00  01 40 0F 01 F0 FF FF 7F  @..&.#y..@......
02A0: 4A F0 FF FF 7F 01 40 0F  01 6F 76 F0 FF FF 7F 2B  J.....@..ov....+
02B0: 01 40 0F 01 27 80 23 27  03 01 40 0F 01 12 1C 21  .@..'.#'..@....!
02C0: 80 27 03 02 40 0F 01 06  4A F0 FF FF 7F 01 40 0F  .'..@...J.....@.
02D0: 01 1C 28 80 4A F0 FF FF  7F 01 40 0F 01 1C 29 80  ..(.J.....@...).
02E0: 02 07 7F 1A 80 80 FC 02  45 19 80 F0 FF FF 7F F0  ........E.......
02F0: FF FF 7F 74 30 31 30 03  80 01 45 03 02 07 7F 2A  ...t010...E....*
0300: 80 80 18 03 45 19 80 F0  FF FF 7F F0 FF FF 7F 74  ....E..........t
0310: 30 31 30 03 80 01 45 03  02 07 7F 2B 80 80 34 03  010...E....+..4.
0320: 45 19 80 F0 FF FF 7F F0  FF FF 7F 74 30 31 30 03  E..........t010.
0330: 80 01 45 03 45 19 80 F0  FF FF 7F F0 FF FF 7F 74  ..E.E..........t
0340: 30 30 67 03 80 6F 76 F0  FF FF 7F 1C 2C 80 02 07  00g..ov.....,...
0350: 7F 1A 80 80 68 03 55 19  80 F0 FF FF 7F F0 FF FF  ....h.U.........
0360: 7F 74 30 31 30 01 AB 03  02 07 7F 2A 80 80 82 03  .t010......*....
0370: 55 19 80 F0 FF FF 7F F0  FF FF 7F 74 30 31 30 01  U..........t010.
0380: AB 03 02 07 7F 2B 80 80  9C 03 55 19 80 F0 FF FF  .....+....U.....
0390: 7F F0 FF FF 7F 74 30 31  30 01 AB 03 55 19 80 F0  .....t010...U...
03A0: FF FF 7F F0 FF FF 7F 74  30 31 30 4E 01 01 40 0F  .......t010N..@.
03B0: 01 4E 01 02 40 0F 01 5D  03 80 18 80 1C 2D 80 81  .N..@..].....-..
03C0: 00 F0 FF FF 7F 4E 00 39  40 0F 01 4A F0 FF FF 7F  .....N.9@..J....
03D0: 39 40 0F 01 6F 76 F0 FF  FF 7F 1C 2E 80 45 2F 80  9@..ov.......E/.
03E0: F0 FF FF 7F F0 FF FF 7F  62 6C 6F 6E 03 80 45 19  ........blon..E.
03F0: 80 F0 FF FF 7F F0 FF FF  7F 74 30 30 34 03 80 55  .........t004..U
0400: 19 80 F0 FF FF 7F F0 FF  FF 7F 74 30 30 34 7B F0  ..........t004{.
0410: FF FF 7F 1C 21 80 27 03  39 40 0F 01 04 1C 2D 80  ....!.'.9@....-.
0420: 45 19 80 F0 FF FF 7F F0  FF FF 7F 74 30 30 68 03  E..........t00h.
0430: 80 55 19 80 F0 FF FF 7F  F0 FF FF 7F 74 30 30 68  .U..........t00h
0440: 28 03 39 40 0F 01 05 27  03 03 40 0F 01 06 79 00  (.9@...'..@...y.
0450: F0 FF FF 7F 03 40 0F 01  45 19 80 F0 FF FF 7F F0  .....@..E.......
0460: FF FF 7F 74 30 30 35 03  80 55 19 80 F0 FF FF 7F  ...t005..U......
0470: F0 FF FF 7F 74 30 30 35  45 18 80 F0 FF FF 7F F0  ....t005E.......
0480: FF FF 7F 6F 76 6C 31 03  80 45 19 80 F0 FF FF 7F  ...ovl1..E......
0490: F0 FF FF 7F 74 30 30 65  03 80 55 19 80 F0 FF FF  ....t00e..U.....
04A0: 7F F0 FF FF 7F 74 30 30  65 45 18 80 F0 FF FF 7F  .....t00eE......
04B0: F0 FF FF 7F 6F 76 6C 31  03 80 02 07 7F 05 80 80  ....ovl1........
04C0: D6 04 45 19 80 F0 FF FF  7F F0 FF FF 7F 74 30 30  ..E..........t00
04D0: 61 03 80 01 57 05 02 07  7F 30 80 80 F2 04 45 19  a...W....0....E.
04E0: 80 F0 FF FF 7F F0 FF FF  7F 74 30 30 61 03 80 01  .........t00a...
04F0: 57 05 02 07 7F 1A 80 80  0E 05 45 19 80 F0 FF FF  W.........E.....
0500: 7F F0 FF FF 7F 74 30 30  63 03 80 01 57 05 02 07  .....t00c...W...
0510: 7F 2A 80 80 2A 05 45 19  80 F0 FF FF 7F F0 FF FF  .*..*.E.........
0520: 7F 74 30 30 63 03 80 01  57 05 02 07 7F 2B 80 80  .t00c...W....+..
0530: 46 05 45 19 80 F0 FF FF  7F F0 FF FF 7F 74 30 30  F.E..........t00
0540: 63 03 80 01 57 05 45 19  80 F0 FF FF 7F F0 FF FF  c...W.E.........
0550: 7F 74 30 30 33 03 80 1C  31 80 27 03 03 40 0F 01  .t003...1.'..@..
0560: 07 1C 21 80 45 18 80 F0  FF FF 7F F0 FF FF 7F 62  ..!.E..........b
0570: 6C 6F 6E 03 80 45 18 80  3A 40 0F 01 3A 40 0F 01  lon..E..:@..:@..
0580: 6F 76 6C 31 03 80 45 19  80 F0 FF FF 7F F0 FF FF  ovl1..E.........
0590: 7F 74 30 30 66 03 80 4E  01 03 40 0F 01 1C 32 80  .t00f..N..@...2.
05A0: 27 03 39 40 0F 01 06 1C  21 80 1C 33 80 9F 34 80  '.9@....!..3..4.
05B0: 39 40 0F 01 39 40 0F 01  6D 61 69 6E 03 80 1C 21  9@..9@..main...!
05C0: 80 45 35 80 F0 FF FF 7F  F0 FF FF 7F 77 68 6F 31  .E5.........who1
05D0: 03 80 55 35 80 F0 FF FF  7F F0 FF FF 7F 77 68 6F  ..U5.........who
05E0: 31 81 01 F0 FF FF 7F 55  19 80 F0 FF FF 7F F0 FF  1......U........
05F0: FF 7F 74 30 30 66 45 18  80 F0 FF FF 7F F0 FF FF  ..t00fE.........
0600: 7F 62 6C 6F 66 03 80 1C  2E 80 AB 11 03 80 1C 06  .blof...........
0610: 80 02 06 00 03 80 00 1C  06 30 21 00 5C 00 36 80  .........0!.\.6.
0620: 5C 01 36 80 9A 5D 1C 80  33 80 45 18 80 F0 FF FF  \.6..]..3.E.....
0630: 7F F0 FF FF 7F 66 64 6F  31 03 80 55 18 80 F0 FF  .....fdo1..U....
0640: FF 7F F0 FF FF 7F 66 64  6F 31 45 35 80 F0 FF FF  ......fdo1E5....
0650: 7F F0 FF FF 7F 77 68 69  31 03 80 55 35 80 F0 FF  .....whi1..U5...
0660: FF 7F F0 FF FF 7F 77 68  69 31 46 00 45 18 80 F0  ......whi1F.E...
0670: FF FF 7F F0 FF FF 7F 66  64 69 32 03 80 21 00     .......fdi2..!. 
```

#### Opcodes

```
  0: 0x00FF [0x20] SET_CLI_EVENT_UC_FLAG: Lock player control
  1: 0x0101 [0x46] CAMERA_CONTROL: Disable user control
  2: 0x0103 [0x42] SET_CLI_EVENT_CANCEL_DATA()
  3: 0x0104 [0x45] LOAD_SCHEDULED_TASK: Load scheduler "fdo1" with entities [LocalPlayer, LocalPlayer], work=[200*, 0*]
  4: 0x0115 [0x55] WAIT_LOAD_SCHEDULER: Wait for scheduler "fdo1" with entities [LocalPlayer, LocalPlayer], work=200*
  5: 0x0124 [0x03] ExtData[1]->WorkLocal[6] = Work_Zone[9]
  6: 0x0129 [0x45] LOAD_SCHEDULED_TASK: Load scheduler "t000" with entities [LocalPlayer, LocalPlayer], work=[56*, 0*]
  7: 0x013A [0x55] WAIT_LOAD_SCHEDULER: Wait for scheduler "t000" with entities [LocalPlayer, LocalPlayer], work=56*
  8: 0x0149 [0x38] SET_CLIENT_EVENT_MODE(mode=3*)
  9: 0x014C [0x97] SAVE_SET_WIND_VALUES(wind_base=0x8003, wind_width=0x8006)
 10: 0x0151 [0x75] LOAD_ROOM(Load indoor room, room=446*)
 11: 0x0155 [0x75] LOAD_ROOM(No action)
 12: 0x0157 [0x94] EventEntity->Render.Flags3 ^= 0x01
 13: 0x015D [0x92] Monberaux (ID: 17776641/0x010F4001)->Render.Flags3 ^= 0x01
 14: 0x0163 [0x92] Rosaline (ID: 17776642/0x010F4002)->Render.Flags3 ^= 0x01
 15: 0x0169 [0x4E] SET_ENTITY_HIDE_FLAG: Hide Koriso-Manriso (ID: 17776737/0x010F4061)
 16: 0x016F [0x4E] SET_ENTITY_HIDE_FLAG: Hide Wise Wolf (ID: 17776734/0x010F405E)
 17: 0x0175 [0x4E] SET_ENTITY_HIDE_FLAG: Hide Shama Pikholo (ID: 17776735/0x010F405F)
 18: 0x017B [0x4E] SET_ENTITY_HIDE_FLAG: Hide Bozz (ID: 17776684/0x010F402C)
 19: 0x0181 [0x5C] MUSIC_CONTROL: Set Idle (Day) music to song 127*
 20: 0x0185 [0x5C] MUSIC_CONTROL: Set Idle (Night) music to song 127*
 21: 0x0189 [0x37] UPDATE_EVENT_POSITION_AND_DIR: x=-44.313*, z=-1.245*, y=-0.499*, direction=15.6*
 22: 0x0192 [0x4A] Unnamed NPC (ID: 17776697/0x010F4039) looks at LocalPlayer
 23: 0x019B [0x7B] Unnamed NPC (ID: 17776697/0x010F4039) stops talking
 24: 0x01A0 [0x79] LocalPlayer looks at Monberaux (ID: 17776641/0x010F4001) (Basic look)
 25: 0x01AA [0x79] Monberaux (ID: 17776641/0x010F4001) looks at LocalPlayer (Basic look)
 26: 0x01B4 [0x45] LOAD_SCHEDULED_TASK: Load scheduler "fdi1" with entities [LocalPlayer, LocalPlayer], work=[200*, 0*]
 27: 0x01C5 [0x1C] WAIT(60* ticks)
 28: 0x01C8 [0x27] REQ_SET(priority=0x03, entity_id=Monberaux (ID: 17776641/0x010F4001), tag_num=0x2C)
 29: 0x01CF [0x55] WAIT_LOAD_SCHEDULER: Wait for scheduler "fdi1" with entities [LocalPlayer, LocalPlayer], work=200*
 30: 0x01DE [0x2B] Monberaux (ID: 17776641/0x010F4001) [8236*]:
     "Ah, it's you... As much as I'd like to sit and chat about your adventures over a nice pot of San d'Orian tea, now is not quite the time."
 31: 0x01E5 [0x23] WAIT_FOR_DIALOG_INTERACTION
 32: 0x01E6 [0x2A] GET_REQ_LEVEL(level=3, entity_id=Monberaux (ID: 17776641/0x010F4001))
 33: 0x01EC [0x2B] Monberaux (ID: 17776641/0x010F4001) [8237*]:
     "Wait. Perhaps you know something of what took place near the Sea of Shu'Meyo. Recently I have been hearing some strange rumors..."
 34: 0x01F3 [0x23] WAIT_FOR_DIALOG_INTERACTION
 35: 0x01F4 [0x27] REQ_SET(priority=0x03, entity_id=Leillaine (ID: 17776721/0x010F4051), tag_num=0x03)
 36: 0x01FB [0x4A] Rosaline (ID: 17776642/0x010F4002) looks at Leillaine (ID: 17776721/0x010F4051)
 37: 0x0204 [0x1C] WAIT(10* ticks)
 38: 0x0207 [0x45] LOAD_SCHEDULED_TASK: Load scheduler "t001" with entities [LocalPlayer, LocalPlayer], work=[56*, 0*]
 39: 0x0218 [0x55] WAIT_LOAD_SCHEDULER: Wait for scheduler "t001" with entities [LocalPlayer, LocalPlayer], work=56*
 40: 0x0227 [0x2A] GET_REQ_LEVEL(level=3, entity_id=Leillaine (ID: 17776721/0x010F4051))
 41: 0x022D [0x2B] Leillaine (ID: 17776721/0x010F4051) [8238*]:
     "Doctor Monberaux, there is much commotion outside the infirmary. Do you think the Ducal Guards have returned?"
 42: 0x0234 [0x4B] UPDATE_ENTITY_YAW(entity=Leillaine (ID: 17776721/0x010F4051), yaw=10.5*)
 43: 0x023B [0x6F] WAIT_FRAME_DELAY: Yield until WaitTime reaches zero
 44: 0x023C [0x76] CHECK_ENTITY_RENDER_FLAGS: Wait until Leillaine (ID: 17776721/0x010F4051) Render.Flags0 and Render.Flags3 conditions are met
 45: 0x0241 [0x4A] LocalPlayer looks at Leillaine (ID: 17776721/0x010F4051)
 46: 0x024A [0x79] Monberaux (ID: 17776641/0x010F4001) looks at Leillaine (ID: 17776721/0x010F4051) (Basic look)
 47: 0x0254 [0x1C] WAIT(60* ticks)
 48: 0x0257 [0x4A] Leillaine (ID: 17776721/0x010F4051) looks at Monberaux (ID: 17776641/0x010F4001)
 49: 0x0260 [0x6F] WAIT_FRAME_DELAY: Yield until WaitTime reaches zero
 50: 0x0261 [0x76] CHECK_ENTITY_RENDER_FLAGS: Wait until Leillaine (ID: 17776721/0x010F4051) Render.Flags0 and Render.Flags3 conditions are met
 51: 0x0266 [0x23] WAIT_FOR_DIALOG_INTERACTION
 52: 0x0267 [0x45] LOAD_SCHEDULED_TASK: Load scheduler "t002" with entities [LocalPlayer, LocalPlayer], work=[56*, 0*]
 53: 0x0278 [0x55] WAIT_LOAD_SCHEDULER: Wait for scheduler "t002" with entities [LocalPlayer, LocalPlayer], work=56*
 54: 0x0287 [0x27] REQ_SET(priority=0x03, entity_id=Leillaine (ID: 17776721/0x010F4051), tag_num=0x04)
 55: 0x028E [0x2B] Monberaux (ID: 17776641/0x010F4001) [8239*]:
     "Those selfish bastards! Do they think of nothing but their own gain?"
 56: 0x0295 [0x23] WAIT_FOR_DIALOG_INTERACTION
 57: 0x0296 [0x79] Monberaux (ID: 17776641/0x010F4001) looks at LocalPlayer (Basic look)
 58: 0x02A0 [0x4A] LocalPlayer looks at Monberaux (ID: 17776641/0x010F4001)
 59: 0x02A9 [0x6F] WAIT_FRAME_DELAY: Yield until WaitTime reaches zero
 60: 0x02AA [0x76] CHECK_ENTITY_RENDER_FLAGS: Wait until LocalPlayer Render.Flags0 and Render.Flags3 conditions are met
 61: 0x02AF [0x2B] Monberaux (ID: 17776641/0x010F4001) [8240*]:
     "I apologize, but there is something I must first take care of."
 62: 0x02B6 [0x23] WAIT_FOR_DIALOG_INTERACTION
 63: 0x02B7 [0x27] REQ_SET(priority=0x03, entity_id=Monberaux (ID: 17776641/0x010F4001), tag_num=0x12)
 64: 0x02BE [0x1C] WAIT(60* ticks)
 65: 0x02C1 [0x27] REQ_SET(priority=0x03, entity_id=Rosaline (ID: 17776642/0x010F4002), tag_num=0x06)
 66: 0x02C8 [0x4A] LocalPlayer looks at Monberaux (ID: 17776641/0x010F4001)
 67: 0x02D1 [0x1C] WAIT(50* ticks)
 68: 0x02D4 [0x4A] LocalPlayer looks at Monberaux (ID: 17776641/0x010F4001)
 69: 0x02DD [0x1C] WAIT(20* ticks)
 70: 0x02E0 [0x02] IF !(Entity->Race == 3*) GOTO 0x02FC
 71: 0x02E8 [0x45] LOAD_SCHEDULED_TASK: Load scheduler "t010" with entities [LocalPlayer, LocalPlayer], work=[56*, 0*]
 72: 0x02F9 [0x01] GOTO 0x0345
 73: 0x02FC [0x02] IF !(Entity->Race == 4*) GOTO 0x0318
 74: 0x0304 [0x45] LOAD_SCHEDULED_TASK: Load scheduler "t010" with entities [LocalPlayer, LocalPlayer], work=[56*, 0*]
 75: 0x0315 [0x01] GOTO 0x0345
 76: 0x0318 [0x02] IF !(Entity->Race == 8*) GOTO 0x0334
 77: 0x0320 [0x45] LOAD_SCHEDULED_TASK: Load scheduler "t010" with entities [LocalPlayer, LocalPlayer], work=[56*, 0*]
 78: 0x0331 [0x01] GOTO 0x0345
 79: 0x0334 [0x45] LOAD_SCHEDULED_TASK: Load scheduler "t00g" with entities [LocalPlayer, LocalPlayer], work=[56*, 0*]

SUBROUTINE_0345:
 80: 0x0345 [0x6F] WAIT_FRAME_DELAY: Yield until WaitTime reaches zero
 81: 0x0346 [0x76] CHECK_ENTITY_RENDER_FLAGS: Wait until LocalPlayer Render.Flags0 and Render.Flags3 conditions are met
 82: 0x034B [0x1C] WAIT(260* ticks)
 83: 0x034E [0x02] IF !(Entity->Race == 3*) GOTO 0x0368
 84: 0x0356 [0x55] WAIT_LOAD_SCHEDULER: Wait for scheduler "t010" with entities [LocalPlayer, LocalPlayer], work=56*
 85: 0x0365 [0x01] GOTO 0x03AB
 86: 0x0368 [0x02] IF !(Entity->Race == 4*) GOTO 0x0382
 87: 0x0370 [0x55] WAIT_LOAD_SCHEDULER: Wait for scheduler "t010" with entities [LocalPlayer, LocalPlayer], work=56*
 88: 0x037F [0x01] GOTO 0x03AB
 89: 0x0382 [0x02] IF !(Entity->Race == 8*) GOTO 0x039C
 90: 0x038A [0x55] WAIT_LOAD_SCHEDULER: Wait for scheduler "t010" with entities [LocalPlayer, LocalPlayer], work=56*
 91: 0x0399 [0x01] GOTO 0x03AB
 92: 0x039C [0x55] WAIT_LOAD_SCHEDULER: Wait for scheduler "t010" with entities [LocalPlayer, LocalPlayer], work=56*

SUBROUTINE_03AB:
 93: 0x03AB [0x4E] SET_ENTITY_HIDE_FLAG: Hide Monberaux (ID: 17776641/0x010F4001)
 94: 0x03B1 [0x4E] SET_ENTITY_HIDE_FLAG: Hide Rosaline (ID: 17776642/0x010F4002)
 95: 0x03B7 [0x5D] SET_MUSIC_VOLUME(volume=0*, fade_time=200*)
 96: 0x03BC [0x1C] WAIT(180* ticks)
 97: 0x03BF [0x81] SET_ENTITY_BLINKING(blink_flag=0x00, entity=LocalPlayer)
 98: 0x03C5 [0x4E] SET_ENTITY_HIDE_FLAG: Show Unnamed NPC (ID: 17776697/0x010F4039)
 99: 0x03CB [0x4A] LocalPlayer looks at Unnamed NPC (ID: 17776697/0x010F4039)
100: 0x03D4 [0x6F] WAIT_FRAME_DELAY: Yield until WaitTime reaches zero
101: 0x03D5 [0x76] CHECK_ENTITY_RENDER_FLAGS: Wait until LocalPlayer Render.Flags0 and Render.Flags3 conditions are met
102: 0x03DA [0x1C] WAIT(15* ticks)
103: 0x03DD [0x45] LOAD_SCHEDULED_TASK: Load scheduler "blon" with entities [LocalPlayer, LocalPlayer], work=[108*, 0*]
104: 0x03EE [0x45] LOAD_SCHEDULED_TASK: Load scheduler "t004" with entities [LocalPlayer, LocalPlayer], work=[56*, 0*]
105: 0x03FF [0x55] WAIT_LOAD_SCHEDULER: Wait for scheduler "t004" with entities [LocalPlayer, LocalPlayer], work=56*
106: 0x040E [0x7B] LocalPlayer stops talking
107: 0x0413 [0x1C] WAIT(60* ticks)
108: 0x0416 [0x27] REQ_SET(priority=0x03, entity_id=Unnamed NPC (ID: 17776697/0x010F4039), tag_num=0x04)
109: 0x041D [0x1C] WAIT(180* ticks)
110: 0x0420 [0x45] LOAD_SCHEDULED_TASK: Load scheduler "t00h" with entities [LocalPlayer, LocalPlayer], work=[56*, 0*]
111: 0x0431 [0x55] WAIT_LOAD_SCHEDULER: Wait for scheduler "t00h" with entities [LocalPlayer, LocalPlayer], work=56*
112: 0x0440 [0x28] REQ_SET_WITH_CONDITIONS(priority=0x03, target_entity=Unnamed NPC (ID: 17776697/0x010F4039), tag_num=0x05)
113: 0x0447 [0x27] REQ_SET(priority=0x03, entity_id=Souren (ID: 17776643/0x010F4003), tag_num=0x06)
114: 0x044E [0x79] LocalPlayer looks at Souren (ID: 17776643/0x010F4003) (Basic look)
115: 0x0458 [0x45] LOAD_SCHEDULED_TASK: Load scheduler "t005" with entities [LocalPlayer, LocalPlayer], work=[56*, 0*]
116: 0x0469 [0x55] WAIT_LOAD_SCHEDULER: Wait for scheduler "t005" with entities [LocalPlayer, LocalPlayer], work=56*
117: 0x0478 [0x45] LOAD_SCHEDULED_TASK: Load scheduler "ovl1" with entities [LocalPlayer, LocalPlayer], work=[200*, 0*]
118: 0x0489 [0x45] LOAD_SCHEDULED_TASK: Load scheduler "t00e" with entities [LocalPlayer, LocalPlayer], work=[56*, 0*]
119: 0x049A [0x55] WAIT_LOAD_SCHEDULER: Wait for scheduler "t00e" with entities [LocalPlayer, LocalPlayer], work=56*
120: 0x04A9 [0x45] LOAD_SCHEDULED_TASK: Load scheduler "ovl1" with entities [LocalPlayer, LocalPlayer], work=[200*, 0*]
121: 0x04BA [0x02] IF !(Entity->Race == 5*) GOTO 0x04D6
122: 0x04C2 [0x45] LOAD_SCHEDULED_TASK: Load scheduler "t00a" with entities [LocalPlayer, LocalPlayer], work=[56*, 0*]
123: 0x04D3 [0x01] GOTO 0x0557
124: 0x04D6 [0x02] IF !(Entity->Race == 6*) GOTO 0x04F2
125: 0x04DE [0x45] LOAD_SCHEDULED_TASK: Load scheduler "t00a" with entities [LocalPlayer, LocalPlayer], work=[56*, 0*]
126: 0x04EF [0x01] GOTO 0x0557
127: 0x04F2 [0x02] IF !(Entity->Race == 3*) GOTO 0x050E
128: 0x04FA [0x45] LOAD_SCHEDULED_TASK: Load scheduler "t00c" with entities [LocalPlayer, LocalPlayer], work=[56*, 0*]
129: 0x050B [0x01] GOTO 0x0557
130: 0x050E [0x02] IF !(Entity->Race == 4*) GOTO 0x052A
131: 0x0516 [0x45] LOAD_SCHEDULED_TASK: Load scheduler "t00c" with entities [LocalPlayer, LocalPlayer], work=[56*, 0*]
132: 0x0527 [0x01] GOTO 0x0557
133: 0x052A [0x02] IF !(Entity->Race == 8*) GOTO 0x0546
134: 0x0532 [0x45] LOAD_SCHEDULED_TASK: Load scheduler "t00c" with entities [LocalPlayer, LocalPlayer], work=[56*, 0*]
135: 0x0543 [0x01] GOTO 0x0557
136: 0x0546 [0x45] LOAD_SCHEDULED_TASK: Load scheduler "t003" with entities [LocalPlayer, LocalPlayer], work=[56*, 0*]

SUBROUTINE_0557:
137: 0x0557 [0x1C] WAIT(80* ticks)
138: 0x055A [0x27] REQ_SET(priority=0x03, entity_id=Souren (ID: 17776643/0x010F4003), tag_num=0x07)
139: 0x0561 [0x1C] WAIT(60* ticks)
140: 0x0564 [0x45] LOAD_SCHEDULED_TASK: Load scheduler "blon" with entities [LocalPlayer, LocalPlayer], work=[200*, 0*]
141: 0x0575 [0x45] LOAD_SCHEDULED_TASK: Load scheduler "ovl1" with entities [Nag'molada (ID: 17776698/0x010F403A), Nag'molada (ID: 17776698/0x010F403A)], work=[200*, 0*]
142: 0x0586 [0x45] LOAD_SCHEDULED_TASK: Load scheduler "t00f" with entities [LocalPlayer, LocalPlayer], work=[56*, 0*]
143: 0x0597 [0x4E] SET_ENTITY_HIDE_FLAG: Hide Souren (ID: 17776643/0x010F4003)
144: 0x059D [0x1C] WAIT(30* ticks)
145: 0x05A0 [0x27] REQ_SET(priority=0x03, entity_id=Unnamed NPC (ID: 17776697/0x010F4039), tag_num=0x06)
146: 0x05A7 [0x1C] WAIT(60* ticks)
147: 0x05AA [0x1C] WAIT(120* ticks)
148: 0x05AD [0x9F] LOAD_SCHEDULED_TASK_ALT: Load scheduler "main" with entities [Unnamed NPC (ID: 17776697/0x010F4039), Unnamed NPC (ID: 17776697/0x010F4039)], work=[53*, 0*]
149: 0x05BE [0x1C] WAIT(60* ticks)
150: 0x05C1 [0x45] LOAD_SCHEDULED_TASK: Load scheduler "who1" with entities [LocalPlayer, LocalPlayer], work=[201*, 0*]
151: 0x05D2 [0x55] WAIT_LOAD_SCHEDULER: Wait for scheduler "who1" with entities [LocalPlayer, LocalPlayer], work=201*
152: 0x05E1 [0x81] SET_ENTITY_BLINKING(blink_flag=0x01, entity=LocalPlayer)
153: 0x05E7 [0x55] WAIT_LOAD_SCHEDULER: Wait for scheduler "t00f" with entities [LocalPlayer, LocalPlayer], work=56*
154: 0x05F6 [0x45] LOAD_SCHEDULED_TASK: Load scheduler "blof" with entities [LocalPlayer, LocalPlayer], work=[200*, 0*]
155: 0x0607 [0x1C] WAIT(15* ticks)
156: 0x060A [0xAB] EventEntity->DespawnValue = 0* // Set despawn value
157: 0x060E [0x1C] WAIT(1* ticks)
158: 0x0611 [0x02] IF !(ExtData[1]->WorkLocal[6] == 0*) GOTO 0x061C
159: 0x0619 [0x30] SET_UCOFF_CONTINUE_ZERO()
160: 0x061A [0x21] END_EVENT
161: 0x061B [0x00] END_REQSTACK()
162: 0x061C [0x5C] MUSIC_CONTROL: Set Idle (Day) music to song 110*
163: 0x0620 [0x5C] MUSIC_CONTROL: Set Idle (Night) music to song 110*
164: 0x0624 [0x9A] WAIT_MUSIC_SERVER()
165: 0x0625 [0x5D] SET_MUSIC_VOLUME(volume=127*, fade_time=120*)
166: 0x062A [0x45] LOAD_SCHEDULED_TASK: Load scheduler "fdo1" with entities [LocalPlayer, LocalPlayer], work=[200*, 0*]
167: 0x063B [0x55] WAIT_LOAD_SCHEDULER: Wait for scheduler "fdo1" with entities [LocalPlayer, LocalPlayer], work=200*
168: 0x064A [0x45] LOAD_SCHEDULED_TASK: Load scheduler "whi1" with entities [LocalPlayer, LocalPlayer], work=[201*, 0*]
169: 0x065B [0x55] WAIT_LOAD_SCHEDULER: Wait for scheduler "whi1" with entities [LocalPlayer, LocalPlayer], work=201*
170: 0x066A [0x46] CAMERA_CONTROL: Restore default settings
171: 0x066C [0x45] LOAD_SCHEDULED_TASK: Load scheduler "fdi2" with entities [LocalPlayer, LocalPlayer], work=[200*, 0*]
172: 0x067D [0x21] END_EVENT
173: 0x067E [0x00] END_REQSTACK()
```

### Event 206

#### Metadata

| Field        | Value     |
|--------------|-----------|
| Entrypoint   | 0x067F    |
| Data Size    | 431 bytes |
| Instructions | 55        |

```
      00 01 02 03 04 05 06 07  08 09 0A 0B 0C 0D 0E 0F
      -- -- -- -- -- -- -- --  -- -- -- -- -- -- -- --
0670:                                               20                  
0680: 01 46 01 42 43 00 43 01  03 06 00 09 10 02 06 00  .F.BC.C.........
0690: 03 80 01 DA 06 5D 03 80  21 80 45 35 80 F0 FF FF  .....]..!.E5....
06A0: 7F F0 FF FF 7F 77 68 6F  31 03 80 55 35 80 F0 FF  .....who1..U5...
06B0: FF 7F F0 FF FF 7F 77 68  6F 31 45 18 80 F0 FF FF  ......who1E.....
06C0: 7F F0 FF FF 7F 66 64 69  31 03 80 55 18 80 F0 FF  .....fdi1..U....
06D0: FF 7F F0 FF FF 7F 66 64  69 31 38 1A 80 5D 03 80  ......fdi18..]..
06E0: 21 80 34 37 80 77 38 80  06 80 1C 2E 80 AB 09 1C  !.47.w8.........
06F0: 32 80 9F 39 80 F0 FF FF  7F F0 FF FF 7F 73 74 72  2..9.........str
0700: 30 03 80 9F 3A 80 F0 FF  FF 7F F0 FF FF 7F 6D 61  0...:.........ma
0710: 69 6E 03 80 45 3B 80 F0  FF FF 7F F0 FF FF 7F 73  in..E;.........s
0720: 69 6E 30 03 80 45 35 80  F0 FF FF 7F F0 FF FF 7F  in0..E5.........
0730: 77 68 69 31 03 80 55 35  80 F0 FF FF 7F F0 FF FF  whi1..U5........
0740: 7F 77 68 69 31 1C 3C 80  45 35 80 F0 FF FF 7F F0  .whi1.<.E5......
0750: FF FF 7F 77 68 6F 31 03  80 55 35 80 F0 FF FF 7F  ...who1..U5.....
0760: F0 FF FF 7F 77 68 6F 31  1C 21 80 9F 39 80 F0 FF  ....who1.!..9...
0770: FF 7F F0 FF FF 7F 6B 69  6C 6C 03 80 9F 3A 80 F0  ......kill...:..
0780: FF FF 7F F0 FF FF 7F 6B  69 6C 6C 03 80 45 3B 80  .......kill..E;.
0790: F0 FF FF 7F F0 FF FF 7F  62 6C 6F 66 03 80 52 3B  ........blof..R;
07A0: 80 F0 FF FF 7F F0 FF FF  7F 73 69 6E 30 1C 2E 80  .........sin0...
07B0: AB 11 03 80 1C 06 80 35  3D 80 78 1C 2E 80 AB 0A  .......5=.x.....
07C0: 02 06 00 03 80 00 CB 07  30 21 00 5C 00 36 80 5C  ........0!.\.6.\
07D0: 01 36 80 9A 5D 1C 80 33  80 45 18 80 F0 FF FF 7F  .6..]..3.E......
07E0: F0 FF FF 7F 66 64 6F 31  03 80 55 18 80 F0 FF FF  ....fdo1..U.....
07F0: 7F F0 FF FF 7F 66 64 6F  31 45 35 80 F0 FF FF 7F  .....fdo1E5.....
0800: F0 FF FF 7F 77 68 69 31  03 80 55 35 80 F0 FF FF  ....whi1..U5....
0810: 7F F0 FF FF 7F 77 68 69  31 46 00 45 18 80 F0 FF  .....whi1F.E....
0820: FF 7F F0 FF FF 7F 66 64  69 32 03 80 21 00        ......fdi2..!.  
```

#### Opcodes

```
  0: 0x067F [0x20] SET_CLI_EVENT_UC_FLAG: Lock player control
  1: 0x0681 [0x46] CAMERA_CONTROL: Disable user control
  2: 0x0683 [0x42] SET_CLI_EVENT_CANCEL_DATA()
  3: 0x0684 [0x43] SEND_EVENT_UPDATE: Send pending tag to server (packet 0x005B)
  4: 0x0686 [0x43] SEND_EVENT_UPDATE: Check pending flag (skip if not pending)
  5: 0x0688 [0x03] ExtData[1]->WorkLocal[6] = Work_Zone[9]
  6: 0x068D [0x02] IF !(ExtData[1]->WorkLocal[6] == 0*) GOTO 0x06DA
  7: 0x0695 [0x5D] SET_MUSIC_VOLUME(volume=0*, fade_time=60*)
  8: 0x069A [0x45] LOAD_SCHEDULED_TASK: Load scheduler "who1" with entities [LocalPlayer, LocalPlayer], work=[201*, 0*]
  9: 0x06AB [0x55] WAIT_LOAD_SCHEDULER: Wait for scheduler "who1" with entities [LocalPlayer, LocalPlayer], work=201*
 10: 0x06BA [0x45] LOAD_SCHEDULED_TASK: Load scheduler "fdi1" with entities [LocalPlayer, LocalPlayer], work=[200*, 0*]
 11: 0x06CB [0x55] WAIT_LOAD_SCHEDULER: Wait for scheduler "fdi1" with entities [LocalPlayer, LocalPlayer], work=200*
 12: 0x06DA [0x38] SET_CLIENT_EVENT_MODE(mode=3*)
 13: 0x06DD [0x5D] SET_MUSIC_VOLUME(volume=0*, fade_time=60*)
 14: 0x06E2 [0x34] LOAD_UNLOAD_ZONE(zone_id=33*)
 15: 0x06E5 [0x77] SET_EVENT_TIME_WEATHER(hour=12*, weather=1*)
 16: 0x06EA [0x1C] WAIT(15* ticks)
 17: 0x06ED [0xAB] EventEntity->UnknownFlag = 1 // Enable unknown flag
 18: 0x06EF [0x1C] WAIT(30* ticks)
 19: 0x06F2 [0x9F] LOAD_SCHEDULED_TASK_ALT: Load scheduler "str0" with entities [LocalPlayer, LocalPlayer], work=[61*, 0*]
 20: 0x0703 [0x9F] LOAD_SCHEDULED_TASK_ALT: Load scheduler "main" with entities [LocalPlayer, LocalPlayer], work=[96*, 0*]
 21: 0x0714 [0x45] LOAD_SCHEDULED_TASK: Load scheduler "sin0" with entities [LocalPlayer, LocalPlayer], work=[155*, 0*]
 22: 0x0725 [0x45] LOAD_SCHEDULED_TASK: Load scheduler "whi1" with entities [LocalPlayer, LocalPlayer], work=[201*, 0*]
 23: 0x0736 [0x55] WAIT_LOAD_SCHEDULER: Wait for scheduler "whi1" with entities [LocalPlayer, LocalPlayer], work=201*
 24: 0x0745 [0x1C] WAIT(780* ticks)
 25: 0x0748 [0x45] LOAD_SCHEDULED_TASK: Load scheduler "who1" with entities [LocalPlayer, LocalPlayer], work=[201*, 0*]
 26: 0x0759 [0x55] WAIT_LOAD_SCHEDULER: Wait for scheduler "who1" with entities [LocalPlayer, LocalPlayer], work=201*
 27: 0x0768 [0x1C] WAIT(60* ticks)
 28: 0x076B [0x9F] LOAD_SCHEDULED_TASK_ALT: Load scheduler "kill" with entities [LocalPlayer, LocalPlayer], work=[61*, 0*]
 29: 0x077C [0x9F] LOAD_SCHEDULED_TASK_ALT: Load scheduler "kill" with entities [LocalPlayer, LocalPlayer], work=[96*, 0*]
 30: 0x078D [0x45] LOAD_SCHEDULED_TASK: Load scheduler "blof" with entities [LocalPlayer, LocalPlayer], work=[155*, 0*]
 31: 0x079E [0x52] END_LOAD_SCHEDULER: End scheduler "sin0" with entities [LocalPlayer, LocalPlayer], work=155*
 32: 0x07AD [0x1C] WAIT(15* ticks)
 33: 0x07B0 [0xAB] EventEntity->DespawnValue = 0* // Set despawn value
 34: 0x07B4 [0x1C] WAIT(1* ticks)
 35: 0x07B7 [0x35] LOAD_ZONE_NO_CLOSE(zone_id=244*)
 36: 0x07BA [0x78] ENABLE_GAME_TIMER_RESET_WEATHER()
 37: 0x07BB [0x1C] WAIT(15* ticks)
 38: 0x07BE [0xAB] EventEntity->UnknownFlag = 0 // Disable unknown flag
 39: 0x07C0 [0x02] IF !(ExtData[1]->WorkLocal[6] == 0*) GOTO 0x07CB
 40: 0x07C8 [0x30] SET_UCOFF_CONTINUE_ZERO()
 41: 0x07C9 [0x21] END_EVENT
 42: 0x07CA [0x00] END_REQSTACK()
 43: 0x07CB [0x5C] MUSIC_CONTROL: Set Idle (Day) music to song 110*
 44: 0x07CF [0x5C] MUSIC_CONTROL: Set Idle (Night) music to song 110*
 45: 0x07D3 [0x9A] WAIT_MUSIC_SERVER()
 46: 0x07D4 [0x5D] SET_MUSIC_VOLUME(volume=127*, fade_time=120*)
 47: 0x07D9 [0x45] LOAD_SCHEDULED_TASK: Load scheduler "fdo1" with entities [LocalPlayer, LocalPlayer], work=[200*, 0*]
 48: 0x07EA [0x55] WAIT_LOAD_SCHEDULER: Wait for scheduler "fdo1" with entities [LocalPlayer, LocalPlayer], work=200*
 49: 0x07F9 [0x45] LOAD_SCHEDULED_TASK: Load scheduler "whi1" with entities [LocalPlayer, LocalPlayer], work=[201*, 0*]
 50: 0x080A [0x55] WAIT_LOAD_SCHEDULER: Wait for scheduler "whi1" with entities [LocalPlayer, LocalPlayer], work=201*
 51: 0x0819 [0x46] CAMERA_CONTROL: Restore default settings
 52: 0x081B [0x45] LOAD_SCHEDULED_TASK: Load scheduler "fdi2" with entities [LocalPlayer, LocalPlayer], work=[200*, 0*]
 53: 0x082C [0x21] END_EVENT
 54: 0x082D [0x00] END_REQSTACK()
```

### Event 207

#### Metadata

| Field        | Value      |
|--------------|------------|
| Entrypoint   | 0x082E     |
| Data Size    | 1843 bytes |
| Instructions | 239        |

```
      00 01 02 03 04 05 06 07  08 09 0A 0B 0C 0D 0E 0F
      -- -- -- -- -- -- -- --  -- -- -- -- -- -- -- --
0820:                                            20 01                 .
0830: 46 01 42 43 00 43 01 03  06 00 09 10 02 06 00 03  F.BC.C..........
0840: 80 01 89 08 5D 03 80 21  80 45 35 80 F0 FF FF 7F  ....]..!.E5.....
0850: F0 FF FF 7F 77 68 6F 31  03 80 55 35 80 F0 FF FF  ....who1..U5....
0860: 7F F0 FF FF 7F 77 68 6F  31 45 18 80 F0 FF FF 7F  .....who1E......
0870: F0 FF FF 7F 66 64 69 31  03 80 55 18 80 F0 FF FF  ....fdi1..U.....
0880: 7F F0 FF FF 7F 66 64 69  31 38 1A 80 97 03 80 06  .....fdi18......
0890: 80 75 00 1B 80 75 01 4E  00 F0 FF FF 7F 94 01 F8  .u...u.N........
08A0: FF FF 7F 92 01 01 40 0F  01 92 01 02 40 0F 01 4E  ......@.....@..N
08B0: 01 61 40 0F 01 4E 01 5E  40 0F 01 4E 01 5F 40 0F  .a@..N.^@..N._@.
08C0: 01 4E 01 2C 40 0F 01 45  19 80 F0 FF FF 7F F0 FF  .N.,@..E........
08D0: FF 7F 74 30 30 36 03 80  55 19 80 F0 FF FF 7F F0  ..t006..U.......
08E0: FF FF 7F 74 30 30 36 37  3E 80 3F 80 1F 80 40 80  ...t0067>.?...@.
08F0: 27 03 01 40 0F 01 13 27  03 02 40 0F 01 07 27 03  '..@...'..@...'.
0900: 39 40 0F 01 07 03 00 00  07 7F 1A 0E 00 66 01 00  9@...........f..
0910: F0 FF FF 7F F0 FF FF 7F  73 68 61 30 53 F0 FF FF  ........sha0S...
0920: 7F F0 FF FF 7F 73 68 61  30 45 35 80 F0 FF FF 7F  .....sha0E5.....
0930: F0 FF FF 7F 77 68 69 31  03 80 55 35 80 F0 FF FF  ....whi1..U5....
0940: 7F F0 FF FF 7F 77 68 69  31 1C 33 80 66 01 00 F0  .....whi1.3.f...
0950: FF FF 7F F0 FF FF 7F 73  68 61 31 53 F0 FF FF 7F  .......sha1S....
0960: F0 FF FF 7F 73 68 61 31  1C 21 80 45 19 80 F0 FF  ....sha1.!.E....
0970: FF 7F F0 FF FF 7F 74 30  30 37 03 80 32 00 80 1F  ......t007..2...
0980: 00 41 80 42 80 1F 80 1F  01 6F 55 19 80 F0 FF FF  .A.B.....oU.....
0990: 7F F0 FF FF 7F 74 30 30  37 1C 33 80 45 18 80 F0  .....t007.3.E...
09A0: FF FF 7F F0 FF FF 7F 66  64 6F 31 03 80 55 18 80  .......fdo1..U..
09B0: F0 FF FF 7F F0 FF FF 7F  66 64 6F 31 5C 00 43 80  ........fdo1\.C.
09C0: 5C 01 43 80 9A 1C 2D 80  27 03 3A 40 0F 01 06 4E  \.C...-.'.:@...N
09D0: 00 3A 40 0F 01 4E 00 08  40 0F 01 4E 00 3B 40 0F  .:@..N..@..N.;@.
09E0: 01 4E 00 3F 40 0F 01 4E  00 3D 40 0F 01 4E 00 3E  .N.?@..N.=@..N.>
09F0: 40 0F 01 4E 00 3C 40 0F  01 4E 00 01 40 0F 01 4E  @..N.<@..N..@..N
0A00: 00 02 40 0F 01 27 03 01  40 0F 01 2E 45 19 80 F0  ..@..'..@...E...
0A10: FF FF 7F F0 FF FF 7F 72  30 30 30 03 80 45 18 80  .......r000..E..
0A20: F0 FF FF 7F F0 FF FF 7F  66 64 69 31 03 80 55 18  ........fdi1..U.
0A30: 80 F0 FF FF 7F F0 FF FF  7F 66 64 69 31 2B 3A 40  .........fdi1+:@
0A40: 0F 01 44 80 23 27 03 3A  40 0F 01 07 52 19 80 F0  ..D.#'.:@...R...
0A50: FF FF 7F F0 FF FF 7F 72  30 30 30 45 19 80 F0 FF  .......r000E....
0A60: FF 7F F0 FF FF 7F 72 30  30 31 03 80 2B 01 40 0F  ......r001..+.@.
0A70: 01 45 80 55 19 80 F0 FF  FF 7F F0 FF FF 7F 72 30  .E.U..........r0
0A80: 30 31 28 04 01 40 0F 01  2F 4A 08 40 0F 01 3D 40  01(..@../J.@..=@
0A90: 0F 01 6F 76 08 40 0F 01  7B 08 40 0F 01 2A 04 01  ..ov.@..{.@..*..
0AA0: 40 0F 01 23 2B 08 40 0F  01 46 80 1C 29 80 4A 01  @..#+.@..F..).J.
0AB0: 40 0F 01 08 40 0F 01 23  6F 76 01 40 0F 01 2B 01  @...@..#ov.@..+.
0AC0: 40 0F 01 47 80 23 27 03  3B 40 0F 01 02 27 03 3F  @..G.#'.;@...'.?
0AD0: 40 0F 01 02 27 03 3D 40  0F 01 02 1C 32 80 45 19  @...'.=@....2.E.
0AE0: 80 F0 FF FF 7F F0 FF FF  7F 72 30 30 32 03 80 1C  .........r002...
0AF0: 21 80 4A 01 40 0F 01 3B  40 0F 01 4B 08 40 0F 01  !.J.@..;@..K.@..
0B00: 48 80 4A 02 40 0F 01 3B  40 0F 01 55 19 80 F0 FF  H.J.@..;@..U....
0B10: FF 7F F0 FF FF 7F 72 30  30 32 6C 39 40 0F 01 49  ......r002l9@..I
0B20: 80 06 80 6F 76 08 40 0F  01 81 00 08 40 0F 01 45  ...ov.@.....@..E
0B30: 19 80 F0 FF FF 7F F0 FF  FF 7F 72 30 30 33 03 80  ..........r003..
0B40: 1C 32 80 2B 08 40 0F 01  4A 80 79 00 08 40 0F 01  .2.+.@..J.y..@..
0B50: 39 40 0F 01 1C 29 80 7C  00 08 40 0F 01 23 55 19  9@...).|..@..#U.
0B60: 80 F0 FF FF 7F F0 FF FF  7F 72 30 30 33 81 01 08  .........r003...
0B70: 40 0F 01 45 18 80 F0 FF  FF 7F F0 FF FF 7F 6F 76  @..E..........ov
0B80: 6C 31 03 80 45 2F 80 F0  FF FF 7F F0 FF FF 7F 62  l1..E/.........b
0B90: 61 73 68 03 80 45 19 80  F0 FF FF 7F F0 FF FF 7F  ash..E..........
0BA0: 72 30 30 34 03 80 55 19  80 F0 FF FF 7F F0 FF FF  r004..U.........
0BB0: 7F 72 30 30 34 1C 32 80  27 03 39 40 0F 01 09 27  .r004.2.'.9@...'
0BC0: 03 3B 40 0F 01 03 27 03  3F 40 0F 01 03 1C 32 80  .;@...'.?@....2.
0BD0: 45 18 80 F0 FF FF 7F F0  FF FF 7F 62 6C 6F 6E 03  E..........blon.
0BE0: 80 1C 21 80 7C 01 08 40  0F 01 45 19 80 F0 FF FF  ..!.|..@..E.....
0BF0: 7F F0 FF FF 7F 72 30 30  64 03 80 55 19 80 F0 FF  .....r00d..U....
0C00: FF 7F F0 FF FF 7F 72 30  30 64 45 2F 80 F0 FF FF  ......r00dE/....
0C10: 7F F0 FF FF 7F 70 61 73  68 03 80 6C 39 40 0F 01  .....pash..l9@..
0C20: 03 80 21 80 27 01 39 40  0F 01 08 45 2F 80 F0 FF  ..!.'.9@...E/...
0C30: FF 7F F0 FF FF 7F 62 61  73 68 03 80 45 19 80 F0  ......bash..E...
0C40: FF FF 7F F0 FF FF 7F 72  30 30 65 03 80 45 18 80  .......r00e..E..
0C50: F0 FF FF 7F F0 FF FF 7F  62 6C 6F 66 03 80 55 19  ........blof..U.
0C60: 80 F0 FF FF 7F F0 FF FF  7F 72 30 30 65 45 19 80  .........r00eE..
0C70: F0 FF FF 7F F0 FF FF 7F  72 30 30 35 03 80 1C 08  ........r005....
