# 16846963

## Common Data

| Field            | Value                   |
|------------------|-------------------------|
| Zone             | Spire of Holla (ID: 17) |
| Block Size       | 96 bytes                |
| Total Events     | 4                       |
| References Count | 8                       |

## List of Events

| Event ID                 | Entrypoint   |   Size |   Instructions |
|--------------------------|--------------|--------|----------------|
| [65535](#event-65535)    | 0x0000       |      1 |              1 |
| [65534](#event-65534)    | 0x0001       |      1 |              1 |
| [65535.1](#event-655351) | 0x0002       |     14 |              4 |
| [65535.2](#event-655352) | 0x0010       |     14 |              4 |

## DAT References (imed_data)

|   Index | Hex Value   |   Dec Value |
|---------|-------------|-------------|
|       0 | 0xFFF939D0  |  4294523344 |
|       1 | 0x62183     |      401795 |
|       2 | 0xFFFFB60F  |  4294948367 |
|       3 | 0x077D      |        1917 |
|       4 | 0xFFF90917  |  4294510871 |
|       5 | 0x61A65     |      399973 |
|       6 | 0xFFFFB565  |  4294948197 |
|       7 | 0x0815      |        2069 |

## Events

### Event 65535

#### Metadata

| Field        | Value   |
|--------------|---------|
| Entrypoint   | 0x0000  |
| Data Size    | 1 bytes |
| Instructions | 1       |

```
      00 01 02 03 04 05 06 07  08 09 0A 0B 0C 0D 0E 0F
      -- -- -- -- -- -- -- --  -- -- -- -- -- -- -- --
0000: 00                                                .               
```

#### Opcodes

```
  0: 0x0000 [0x00] END_REQSTACK()
```

### Event 65534

#### Metadata

| Field        | Value   |
|--------------|---------|
| Entrypoint   | 0x0001  |
| Data Size    | 1 bytes |
| Instructions | 1       |

```
      00 01 02 03 04 05 06 07  08 09 0A 0B 0C 0D 0E 0F
      -- -- -- -- -- -- -- --  -- -- -- -- -- -- -- --
0000:    00                                              .              
```

#### Opcodes

```
  0: 0x0001 [0x00] END_REQSTACK()
```

### Event 65535.1

#### Metadata

| Field        | Value    |
|--------------|----------|
| Entrypoint   | 0x0002   |
| Data Size    | 14 bytes |
| Instructions | 4        |

```
      00 01 02 03 04 05 06 07  08 09 0A 0B 0C 0D 0E 0F
      -- -- -- -- -- -- -- --  -- -- -- -- -- -- -- --
0000:       22 00 33 01 37 00  80 01 80 02 80 03 80 00    ".3.7.........
```

#### Opcodes

```
  0: 0x0002 [0x22] ENTITY_HIDE_FLAG(enabled=0x00)
  1: 0x0004 [0x33] EventEntity->Render.Flags0 |= 0x200000 // Bit 21 (flag=0x01)
  2: 0x0006 [0x37] UPDATE_EVENT_POSITION_AND_DIR: x=-443.952*, z=401.795*, y=-18.929*, direction=168.5°*
  3: 0x000F [0x00] END_REQSTACK()
```

### Event 65535.2

#### Metadata

| Field        | Value    |
|--------------|----------|
| Entrypoint   | 0x0010   |
| Data Size    | 14 bytes |
| Instructions | 4        |

```
      00 01 02 03 04 05 06 07  08 09 0A 0B 0C 0D 0E 0F
      -- -- -- -- -- -- -- --  -- -- -- -- -- -- -- --
0010: 22 00 33 01 37 04 80 05  80 06 80 07 80 00        ".3.7.........  
```

#### Opcodes

```
  0: 0x0010 [0x22] ENTITY_HIDE_FLAG(enabled=0x00)
  1: 0x0012 [0x33] EventEntity->Render.Flags0 |= 0x200000 // Bit 21 (flag=0x01)
  2: 0x0014 [0x37] UPDATE_EVENT_POSITION_AND_DIR: x=-456.425*, z=399.973*, y=-19.099*, direction=181.8°*
  3: 0x001D [0x00] END_REQSTACK()
```
