# Event 203

## Metadata

| Field           | Value    |
|-----------------|----------|
| Event Index     | 12/13    |
| Offset          | 0x00D8   |
| Data Size       | 29 bytes |
| Calculated Size | 29 bytes |
| Instructions    | 10       |

```
      00 01 02 03 04 05 06 07  08 09 0A 0B 0C 0D 0E 0F
      -- -- -- -- -- -- -- --  -- -- -- -- -- -- -- --
00D0:                          1E F0 FF FF 7F 6F 70 29          .....op)
00E0: 0B 4D F0 0E 01 01 1D 0A  80 23 29 0B 4D F0 0E 01  .M.......#).M...
00F0: 02 20 00 21 00                                    . .!.           
```

## Opcodes

```
  0: 0x00D8 [0x1E] EventEntity looks at LocalPlayer and starts talking
  1: 0x00DD [0x6F] WAIT_FRAME_DELAY: Yield until WaitTime reaches zero
  2: 0x00DE [0x70] WAIT_ENTITY_RENDER_FLAG: Wait while EventEntity->Render.Flags3 bit 2 is set (cancel turn if not)
  3: 0x00DF [0x29] REQ_SET_WAIT(priority=0x0B, entity_id=Mehruru (ID: 17756237/0x010EF04D), tag_num=0x01)
  4: 0x00E6 [0x1D] PRINT_EVENT_MESSAGE(message_id=7551*)
    → "Did you know? Did you know?\u0007If you say a wish three times before a falling star disappears, it will come true! However, I always screw it up and get angry... Perhaps I'm star-crossed?\u007F1\u0000\u0007"
  5: 0x00E9 [0x23] WAIT_FOR_DIALOG_INTERACTION
  6: 0x00EA [0x29] REQ_SET_WAIT(priority=0x0B, entity_id=Mehruru (ID: 17756237/0x010EF04D), tag_num=0x02)
  7: 0x00F1 [0x20] SET_CLI_EVENT_UC_FLAG: Unlock player control
  8: 0x00F3 [0x21] END_EVENT
  9: 0x00F4 [0x00] END_REQSTACK()
```
