# Event 278

## Metadata

| Field           | Value    |
|-----------------|----------|
| Event Index     | 83/114   |
| Offset          | 0x1392   |
| Data Size       | 44 bytes |
| Calculated Size | 44 bytes |
| Instructions    | 14       |

```
      00 01 02 03 04 05 06 07  08 09 0A 0B 0C 0D 0E 0F
      -- -- -- -- -- -- -- --  -- -- -- -- -- -- -- --
1390:       1E F0 FF FF 7F 6F  70 29 08 11 00 0F 01 01    .....op)......
13A0: 02 07 10 07 80 00 AF 13  1D 6A 80 23 01 B3 13 1D  .........j.#....
13B0: 6B 80 23 29 08 11 00 0F  01 1E 20 00 21 00        k.#)...... .!.  
```

## Opcodes

```
  0: 0x1392 [0x1E] EventEntity looks at LocalPlayer and starts talking
  1: 0x1397 [0x6F] WAIT_FRAME_DELAY: Yield until WaitTime reaches zero
  2: 0x1398 [0x70] WAIT_ENTITY_RENDER_FLAG: Wait while EventEntity->Render.Flags3 bit 2 is set (cancel turn if not)
  3: 0x1399 [0x29] REQ_SET_WAIT(priority=0x08, entity_id=Hakkuru-Rinkuru (ID: 17760273/0x010F0011), tag_num=0x01)
  4: 0x13A0 [0x02] IF !(Work_Zone[7] == 0*) GOTO 0x13AF
  5: 0x13A8 [0x1D] PRINT_EVENT_MESSAGE(message_id=3777*)
    → "I've got to hurry-scurry and fix this wand before the minister gets back!\u007F1\u0000\u0007"
  6: 0x13AB [0x23] WAIT_FOR_DIALOG_INTERACTION
  7: 0x13AC [0x01] GOTO 0x13B3

SUBROUTINE_13AF:
  8: 0x13AF [0x1D] PRINT_EVENT_MESSAGE(message_id=12377*)
    → "Thank you!\u0007Now I have to get this wand fixed!\u007F1\u0000\u0007"
  9: 0x13B2 [0x23] WAIT_FOR_DIALOG_INTERACTION
 10: 0x13B3 [0x29] REQ_SET_WAIT(priority=0x08, entity_id=Hakkuru-Rinkuru (ID: 17760273/0x010F0011), tag_num=0x1E)
 11: 0x13BA [0x20] SET_CLI_EVENT_UC_FLAG: Unlock player control
 12: 0x13BC [0x21] END_EVENT
 13: 0x13BD [0x00] END_REQSTACK()
```
