# Event 65535

## Metadata

| Field           | Value    |
|-----------------|----------|
| Event Index     | 78/114   |
| Offset          | 0x12B1   |
| Data Size       | 37 bytes |
| Calculated Size | 37 bytes |
| Instructions    | 9        |

```
      00 01 02 03 04 05 06 07  08 09 0A 0B 0C 0D 0E 0F
      -- -- -- -- -- -- -- --  -- -- -- -- -- -- -- --
12B0:    29 08 11 00 0F 01 03  1D 5F 80 23 29 08 11 00   )......._.#)...
12C0: 0F 01 04 29 08 11 00 0F  01 05 1D 60 80 23 29 08  ...).......`.#).
12D0: 11 00 0F 01 06 00                                 ......          
```

## Opcodes

```
  0: 0x12B1 [0x29] REQ_SET_WAIT(priority=0x08, entity_id=Hakkuru-Rinkuru (ID: 17760273/0x010F0011), tag_num=0x03)
  1: 0x12B8 [0x1D] PRINT_EVENT_MESSAGE(message_id=3765*)
    → "In sticky situations like this, I've heard that if you have an ooey-gooey \u0001\u0005#\u0002\u0001\u0000\u0000 you can glue a broken wand back together again.\u007F1\u0000\u0007"
  2: 0x12BB [0x23] WAIT_FOR_DIALOG_INTERACTION
  3: 0x12BC [0x29] REQ_SET_WAIT(priority=0x08, entity_id=Hakkuru-Rinkuru (ID: 17760273/0x010F0011), tag_num=0x04)
  4: 0x12C3 [0x29] REQ_SET_WAIT(priority=0x08, entity_id=Hakkuru-Rinkuru (ID: 17760273/0x010F0011), tag_num=0x05)
  5: 0x12CA [0x1D] PRINT_EVENT_MESSAGE(message_id=3766*)
    → "My hotshot adventurer!\u0007I'll pay you a handsome ransom if you can go find me \u0001\u0001\u0001 \u0001\u0005$\u0002\u0001\u0000\u0000.\u007F1\u0000\u0007"
  6: 0x12CD [0x23] WAIT_FOR_DIALOG_INTERACTION
  7: 0x12CE [0x29] REQ_SET_WAIT(priority=0x08, entity_id=Hakkuru-Rinkuru (ID: 17760273/0x010F0011), tag_num=0x06)
  8: 0x12D5 [0x00] END_REQSTACK()
```
