# Event 65535

## Metadata

| Field           | Value    |
|-----------------|----------|
| Event Index     | 64/114   |
| Offset          | 0x10C3   |
| Data Size       | 58 bytes |
| Calculated Size | 58 bytes |
| Instructions    | 8        |

```
      00 01 02 03 04 05 06 07  08 09 0A 0B 0C 0D 0E 0F
      -- -- -- -- -- -- -- --  -- -- -- -- -- -- -- --
10C0:          4A 11 00 0F 01  1B 00 0F 01 4A 12 00 0F     J........J...
10D0: 01 1B 00 0F 01 4A F0 FF  FF 7F 1B 00 0F 01 1C 3B  .....J.........;
10E0: 80 4A 11 00 0F 01 1B 00  0F 01 4A 12 00 0F 01 1B  .J........J.....
10F0: 00 0F 01 4A F0 FF FF 7F  1B 00 0F 01 00           ...J.........   
```

## Opcodes

```
  0: 0x10C3 [0x4A] Hakkuru-Rinkuru (ID: 17760273/0x010F0011) looks at Apururu (ID: 17760283/0x010F001B)
  1: 0x10CC [0x4A] Kuroido-Moido (ID: 17760274/0x010F0012) looks at Apururu (ID: 17760283/0x010F001B)
  2: 0x10D5 [0x4A] LocalPlayer looks at Apururu (ID: 17760283/0x010F001B)
  3: 0x10DE [0x1C] WAIT(50* ticks)
  4: 0x10E1 [0x4A] Hakkuru-Rinkuru (ID: 17760273/0x010F0011) looks at Apururu (ID: 17760283/0x010F001B)
  5: 0x10EA [0x4A] Kuroido-Moido (ID: 17760274/0x010F0012) looks at Apururu (ID: 17760283/0x010F001B)
  6: 0x10F3 [0x4A] LocalPlayer looks at Apururu (ID: 17760283/0x010F001B)
  7: 0x10FC [0x00] END_REQSTACK()
```
