# Event 65535

## Metadata

| Field           | Value    |
|-----------------|----------|
| Event Index     | 63/114   |
| Offset          | 0x1089   |
| Data Size       | 58 bytes |
| Calculated Size | 58 bytes |
| Instructions    | 8        |

```
      00 01 02 03 04 05 06 07  08 09 0A 0B 0C 0D 0E 0F
      -- -- -- -- -- -- -- --  -- -- -- -- -- -- -- --
1080:                             4A 11 00 0F 01 19 00           J......
1090: 0F 01 4A 12 00 0F 01 19  00 0F 01 4A F0 FF FF 7F  ..J........J....
10A0: 19 00 0F 01 1C 3B 80 4A  11 00 0F 01 19 00 0F 01  .....;.J........
10B0: 4A 12 00 0F 01 19 00 0F  01 4A F0 FF FF 7F 19 00  J........J......
10C0: 0F 01 00                                          ...             
```

## Opcodes

```
  0: 0x1089 [0x4A] Hakkuru-Rinkuru (ID: 17760273/0x010F0011) looks at Ajido-Marujido (ID: 17760281/0x010F0019)
  1: 0x1092 [0x4A] Kuroido-Moido (ID: 17760274/0x010F0012) looks at Ajido-Marujido (ID: 17760281/0x010F0019)
  2: 0x109B [0x4A] LocalPlayer looks at Ajido-Marujido (ID: 17760281/0x010F0019)
  3: 0x10A4 [0x1C] WAIT(50* ticks)
  4: 0x10A7 [0x4A] Hakkuru-Rinkuru (ID: 17760273/0x010F0011) looks at Ajido-Marujido (ID: 17760281/0x010F0019)
  5: 0x10B0 [0x4A] Kuroido-Moido (ID: 17760274/0x010F0012) looks at Ajido-Marujido (ID: 17760281/0x010F0019)
  6: 0x10B9 [0x4A] LocalPlayer looks at Ajido-Marujido (ID: 17760281/0x010F0019)
  7: 0x10C2 [0x00] END_REQSTACK()
```
