# Event 65535

## Metadata

| Field           | Value    |
|-----------------|----------|
| Event Index     | 8/19     |
| Offset          | 0x0071   |
| Data Size       | 72 bytes |
| Calculated Size | 72 bytes |
| Instructions    | 11       |

```
      00 01 02 03 04 05 06 07  08 09 0A 0B 0C 0D 0E 0F
      -- -- -- -- -- -- -- --  -- -- -- -- -- -- -- --
0070:    33 01 79 00 F8 FF FF  7F 90 00 02 01 5B 16 80   3.y.........[..
0080: F8 FF FF 7F F8 FF FF 7F  61 74 73 30 02 24 10 17  ........ats0.$..
0090: 80 01 B8 00 3B 9F 00 02  01 00 00 01 00 02 00 07  ....;...........
00A0: 00 00 18 80 07 01 00 19  80 37 00 00 01 00 1A 80  .........7......
00B0: 1B 80 1C 17 80 01 8C 00  00                       .........       
```

## Opcodes

```
  0: 0x0071 [0x33] EventEntity->Render.Flags0 |= 0x200000 // Bit 21 (flag=0x01)
  1: 0x0073 [0x79] EventEntity looks at Tenzen (ID: 16908432/0x01020090) (Basic look)
  2: 0x007D [0x5B] LOAD_EXT_SCHEDULER(work_offset=665*, entity1=EventEntity, entity2=EventEntity, action="ats0")
  3: 0x008C [0x02] IF !(Work_Zone[36] == 1*) GOTO 0x00B8
  4: 0x0094 [0x3B] GET_ENTITY_POSITION(entity=ship (ID: 16908447/0x0102009F), x_destination=ExtData[1]->WorkLocal[0], y_destination=ExtData[1]->WorkLocal[1], z_destination=ExtData[1]->WorkLocal[2])
  5: 0x009F [0x07] ExtData[1]->WorkLocal[0] += 8590*
  6: 0x00A4 [0x07] ExtData[1]->WorkLocal[1] += 7957*
  7: 0x00A9 [0x37] UPDATE_EVENT_POSITION_AND_DIR: x=ExtData[1]->WorkLocal[0], z=ExtData[1]->WorkLocal[1], y=-231.000*, direction=377476174.2°*
  8: 0x00B2 [0x1C] WAIT(1* ticks)
  9: 0x00B5 [0x01] GOTO 0x008C

SUBROUTINE_00B8:
 10: 0x00B8 [0x00] END_REQSTACK()
```
