# Event 289

## Metadata

| Field           | Value    |
|-----------------|----------|
| Event Index     | 29/38    |
| Offset          | 0x023D   |
| Data Size       | 33 bytes |
| Calculated Size | 33 bytes |
| Instructions    | 12       |

```
      00 01 02 03 04 05 06 07  08 09 0A 0B 0C 0D 0E 0F
      -- -- -- -- -- -- -- --  -- -- -- -- -- -- -- --
0230:                                         1E F0 FF               ...
0240: FF 7F 6F 70 29 08 1A E0  0E 01 01 1D 13 80 23 1D  ..op).........#.
0250: 14 80 23 29 08 1A E0 0E  01 02 20 00 21 00        ..#)...... .!.  
```

## Opcodes

```
  0: 0x023D [0x1E] EventEntity looks at LocalPlayer and starts talking
  1: 0x0242 [0x6F] WAIT_FRAME_DELAY: Yield until WaitTime reaches zero
  2: 0x0243 [0x70] WAIT_ENTITY_RENDER_FLAG: Wait while EventEntity->Render.Flags3 bit 2 is set (cancel turn if not)
  3: 0x0244 [0x29] REQ_SET_WAIT(priority=0x08, entity_id=Ropunono (ID: 17752090/0x010EE01A), tag_num=0x01)
  4: 0x024B [0x1D] PRINT_EVENT_MESSAGE(message_id=7985*)
    → "If only I had \u0001\u0001\u0001 \u0001\u0005$\u0002\u0002\u0000\u0000, I'd be able to inscribe the correct star positions onto the \u0001\u0005#\u0002\u0001\u0000\u0000. Otherwise, I won't be able to make heads or tails of it.\u007F1\u0000\u0007"
  5: 0x024E [0x23] WAIT_FOR_DIALOG_INTERACTION
  6: 0x024F [0x1D] PRINT_EVENT_MESSAGE(message_id=7986*)
    → "I'm willing to pay you quite well, so please do your best to find me one.\u007F1\u0000\u0007"
  7: 0x0252 [0x23] WAIT_FOR_DIALOG_INTERACTION
  8: 0x0253 [0x29] REQ_SET_WAIT(priority=0x08, entity_id=Ropunono (ID: 17752090/0x010EE01A), tag_num=0x02)
  9: 0x025A [0x20] SET_CLI_EVENT_UC_FLAG: Unlock player control
 10: 0x025C [0x21] END_EVENT
 11: 0x025D [0x00] END_REQSTACK()
```
