# Event 292

## Metadata

| Field           | Value    |
|-----------------|----------|
| Event Index     | 30/38    |
| Offset          | 0x025E   |
| Data Size       | 48 bytes |
| Calculated Size | 48 bytes |
| Instructions    | 12       |

```
      00 01 02 03 04 05 06 07  08 09 0A 0B 0C 0D 0E 0F
      -- -- -- -- -- -- -- --  -- -- -- -- -- -- -- --
0250:                                            20 01                 .
0260: 42 1E F0 FF FF 7F 6F 70  29 0B 1A E0 0E 01 1E 29  B.....op)......)
0270: 0B 1A E0 0E 01 1F 45 15  80 F0 FF FF 7F F0 FF FF  ......E.........
0280: 7F 71 73 74 63 16 80 48  17 80 20 00 21 00        .qstc..H.. .!.  
```

## Opcodes

```
  0: 0x025E [0x20] SET_CLI_EVENT_UC_FLAG: Lock player control
  1: 0x0260 [0x42] SET_CLI_EVENT_CANCEL_DATA()
  2: 0x0261 [0x1E] EventEntity looks at LocalPlayer and starts talking
  3: 0x0266 [0x6F] WAIT_FRAME_DELAY: Yield until WaitTime reaches zero
  4: 0x0267 [0x70] WAIT_ENTITY_RENDER_FLAG: Wait while EventEntity->Render.Flags3 bit 2 is set (cancel turn if not)
  5: 0x0268 [0x29] REQ_SET_WAIT(priority=0x0B, entity_id=Ropunono (ID: 17752090/0x010EE01A), tag_num=0x1E)
  6: 0x026F [0x29] REQ_SET_WAIT(priority=0x0B, entity_id=Ropunono (ID: 17752090/0x010EE01A), tag_num=0x1F)
  7: 0x0276 [0x45] LOAD_SCHEDULED_TASK: Load scheduler "qstc" with entities [LocalPlayer, LocalPlayer], work=[201*, 0*]
  8: 0x0287 [0x48] [System] [6552*]:
    → "Obtained 
\u0000 gil.\u0000\u0007"
  9: 0x028A [0x20] SET_CLI_EVENT_UC_FLAG: Unlock player control
 10: 0x028C [0x21] END_EVENT
 11: 0x028D [0x00] END_REQSTACK()
```
