# Event 293

## Metadata

| Field           | Value    |
|-----------------|----------|
| Event Index     | 33/38    |
| Offset          | 0x02B8   |
| Data Size       | 33 bytes |
| Calculated Size | 33 bytes |
| Instructions    | 12       |

```
      00 01 02 03 04 05 06 07  08 09 0A 0B 0C 0D 0E 0F
      -- -- -- -- -- -- -- --  -- -- -- -- -- -- -- --
02B0:                          1E F0 FF FF 7F 6F 70 29          .....op)
02C0: 08 1A E0 0E 01 01 1D 1B  80 23 1D 1C 80 23 29 08  .........#...#).
02D0: 1A E0 0E 01 02 20 00 21  00                       ..... .!.       
```

## Opcodes

```
  0: 0x02B8 [0x1E] EventEntity looks at LocalPlayer and starts talking
  1: 0x02BD [0x6F] WAIT_FRAME_DELAY: Yield until WaitTime reaches zero
  2: 0x02BE [0x70] WAIT_ENTITY_RENDER_FLAG: Wait while EventEntity->Render.Flags3 bit 2 is set (cancel turn if not)
  3: 0x02BF [0x29] REQ_SET_WAIT(priority=0x08, entity_id=Ropunono (ID: 17752090/0x010EE01A), tag_num=0x01)
  4: 0x02C6 [0x1D] PRINT_EVENT_MESSAGE(message_id=7994*)
    → "Oh then, Odin's to the north. Right and, Titan's to the south.\u0007Shivers, Shiva's to the east. And then, Leviathan's to the west.\u007F1\u0000\u0007"
  5: 0x02C9 [0x23] WAIT_FOR_DIALOG_INTERACTION
  6: 0x02CA [0x1D] PRINT_EVENT_MESSAGE(message_id=7995*)
    → "The mysterious legendary gods drawn on this coin are said to be the avatars that the first Star Sibyl had encountered.\u007F1\u0000\u0007"
  7: 0x02CD [0x23] WAIT_FOR_DIALOG_INTERACTION
  8: 0x02CE [0x29] REQ_SET_WAIT(priority=0x08, entity_id=Ropunono (ID: 17752090/0x010EE01A), tag_num=0x02)
  9: 0x02D5 [0x20] SET_CLI_EVENT_UC_FLAG: Unlock player control
 10: 0x02D7 [0x21] END_EVENT
 11: 0x02D8 [0x00] END_REQSTACK()
```
