# Event 65535

## Metadata

| Field           | Value    |
|-----------------|----------|
| Event Index     | 9/15     |
| Offset          | 0x006F   |
| Data Size       | 55 bytes |
| Calculated Size | 55 bytes |
| Instructions    | 11       |

```
      00 01 02 03 04 05 06 07  08 09 0A 0B 0C 0D 0E 0F
      -- -- -- -- -- -- -- --  -- -- -- -- -- -- -- --
0060:                                               22                 "
0070: 00 32 05 80 37 14 80 15  80 16 80 17 80 1F 00 18  .2..7...........
0080: 80 19 80 16 80 1F 01 1F  00 1A 80 1B 80 1C 80 1F  ................
0090: 01 79 00 F8 FF FF 7F 2C  B0 0E 01 1F 00 1D 80 1E  .y.....,........
00A0: 80 1C 80 1F 01 00                                 ......          
```

## Opcodes

```
  0: 0x006F [0x22] ENTITY_HIDE_FLAG(enabled=0x00)
  1: 0x0071 [0x32] ExtData[1]->MainSpeed = 13* * 0.1
  2: 0x0074 [0x37] UPDATE_EVENT_POSITION_AND_DIR: x=-312.827*, z=-162.813*, y=-15.851*, direction=64.4°*
  3: 0x007D [0x1F] MOVE_ENTITY: EventEntity moves to X=-312.848*, Z=-166.455*, Y=-15.851*
  4: 0x0085 [0x1F] MOVE_ENTITY: Update entity position (mode=1)
  5: 0x0087 [0x1F] MOVE_ENTITY: EventEntity moves to X=-315.486*, Z=-168.506*, Y=-15.948*
  6: 0x008F [0x1F] MOVE_ENTITY: Update entity position (mode=1)
  7: 0x0091 [0x79] EventEntity looks at Michea (ID: 17739820/0x010EB02C) (Basic look)
  8: 0x009B [0x1F] MOVE_ENTITY: EventEntity moves to X=-316.802*, Z=-169.816*, Y=-15.948*
  9: 0x00A3 [0x1F] MOVE_ENTITY: Update entity position (mode=1)
 10: 0x00A5 [0x00] END_REQSTACK()
```
