# Event 428

## Metadata

| Field           | Value    |
|-----------------|----------|
| Event Index     | 34/61    |
| Offset          | 0x0205   |
| Data Size       | 33 bytes |
| Calculated Size | 33 bytes |
| Instructions    | 12       |

```
      00 01 02 03 04 05 06 07  08 09 0A 0B 0C 0D 0E 0F
      -- -- -- -- -- -- -- --  -- -- -- -- -- -- -- --
0200:                1E F0 FF  FF 7F 6F 70 29 08 58 00       .....op).X.
0210: 0F 01 01 1D 0A 80 23 1D  0B 80 23 29 08 58 00 0F  ......#...#).X..
0220: 01 02 20 00 21 00                                 .. .!.          
```

## Opcodes

```
  0: 0x0205 [0x1E] EventEntity looks at LocalPlayer and starts talking
  1: 0x020A [0x6F] WAIT_FRAME_DELAY: Yield until WaitTime reaches zero
  2: 0x020B [0x70] WAIT_ENTITY_RENDER_FLAG: Wait while EventEntity->Render.Flags3 bit 2 is set (cancel turn if not)
  3: 0x020C [0x29] REQ_SET_WAIT(priority=0x08, entity_id=Shanruru (ID: 17760344/0x010F0058), tag_num=0x01)
  4: 0x0213 [0x1D] PRINT_EVENT_MESSAGE(message_id=4357*)
    → "The culprit is always the one you least suspect. I know 'cause I've read almost every one of the Agatha Crystalie mystery series. So you can leave this case to me.\u007F1\u0000\u0007"
  5: 0x0216 [0x23] WAIT_FOR_DIALOG_INTERACTION
  6: 0x0217 [0x1D] PRINT_EVENT_MESSAGE(message_id=4358*)
    → "What do you mean, they've already solved \u00072The Case of the Missing Mana Orb\u00073? But the great detective Shanruru didn't get to make her appearance!? Ohww, they always leave me out!\u007F1\u0000\u0007"
  7: 0x021A [0x23] WAIT_FOR_DIALOG_INTERACTION
  8: 0x021B [0x29] REQ_SET_WAIT(priority=0x08, entity_id=Shanruru (ID: 17760344/0x010F0058), tag_num=0x02)
  9: 0x0222 [0x20] SET_CLI_EVENT_UC_FLAG: Unlock player control
 10: 0x0224 [0x21] END_EVENT
 11: 0x0225 [0x00] END_REQSTACK()
```
