# Event 439

## Metadata

| Field           | Value    |
|-----------------|----------|
| Event Index     | 36/61    |
| Offset          | 0x0227   |
| Data Size       | 40 bytes |
| Calculated Size | 40 bytes |
| Instructions    | 13       |

```
      00 01 02 03 04 05 06 07  08 09 0A 0B 0C 0D 0E 0F
      -- -- -- -- -- -- -- --  -- -- -- -- -- -- -- --
0220:                      1E  F0 FF FF 7F 6F 70 29 08         .....op).
0230: F0 FF FF 7F 07 29 08 58  00 0F 01 01 1D 0C 80 23  .....).X.......#
0240: 1D 0D 80 23 29 08 58 00  0F 01 02 20 00 21 00     ...#).X.... .!. 
```

## Opcodes

```
  0: 0x0227 [0x1E] EventEntity looks at LocalPlayer and starts talking
  1: 0x022C [0x6F] WAIT_FRAME_DELAY: Yield until WaitTime reaches zero
  2: 0x022D [0x70] WAIT_ENTITY_RENDER_FLAG: Wait while EventEntity->Render.Flags3 bit 2 is set (cancel turn if not)
  3: 0x022E [0x29] REQ_SET_WAIT(priority=0x08, entity_id=LocalPlayer, tag_num=0x07)
  4: 0x0235 [0x29] REQ_SET_WAIT(priority=0x08, entity_id=Shanruru (ID: 17760344/0x010F0058), tag_num=0x01)
  5: 0x023C [0x1D] PRINT_EVENT_MESSAGE(message_id=4385*)
    → "I know, I know... \u0007I'm going to be left out again.We'll I don't care anymore!\u007F1\u0000\u0007"
  6: 0x023F [0x23] WAIT_FOR_DIALOG_INTERACTION
  7: 0x0240 [0x1D] PRINT_EVENT_MESSAGE(message_id=4386*)
    → "You, \u007F\u0005[mister/miss], are going to be beaten by the wily Cat Burglar again, along with the rest of those losers!\u007F1\u0000\u0007"
  8: 0x0243 [0x23] WAIT_FOR_DIALOG_INTERACTION
  9: 0x0244 [0x29] REQ_SET_WAIT(priority=0x08, entity_id=Shanruru (ID: 17760344/0x010F0058), tag_num=0x02)
 10: 0x024B [0x20] SET_CLI_EVENT_UC_FLAG: Unlock player control
 11: 0x024D [0x21] END_EVENT
 12: 0x024E [0x00] END_REQSTACK()
```
