# Event 446

## Metadata

| Field           | Value    |
|-----------------|----------|
| Event Index     | 37/61    |
| Offset          | 0x024F   |
| Data Size       | 33 bytes |
| Calculated Size | 33 bytes |
| Instructions    | 12       |

```
      00 01 02 03 04 05 06 07  08 09 0A 0B 0C 0D 0E 0F
      -- -- -- -- -- -- -- --  -- -- -- -- -- -- -- --
0240:                                               1E                 .
0250: F0 FF FF 7F 6F 70 29 08  58 00 0F 01 01 1D 0E 80  ....op).X.......
0260: 23 1D 0F 80 23 29 08 58  00 0F 01 02 20 00 21 00  #...#).X.... .!.
```

## Opcodes

```
  0: 0x024F [0x1E] EventEntity looks at LocalPlayer and starts talking
  1: 0x0254 [0x6F] WAIT_FRAME_DELAY: Yield until WaitTime reaches zero
  2: 0x0255 [0x70] WAIT_ENTITY_RENDER_FLAG: Wait while EventEntity->Render.Flags3 bit 2 is set (cancel turn if not)
  3: 0x0256 [0x29] REQ_SET_WAIT(priority=0x08, entity_id=Shanruru (ID: 17760344/0x010F0058), tag_num=0x01)
  4: 0x025D [0x1D] PRINT_EVENT_MESSAGE(message_id=4399*)
    → "<sniff> <sniff>\u0007I'm glad you all made it back safely!\u007F1\u0000\u0007"
  5: 0x0260 [0x23] WAIT_FOR_DIALOG_INTERACTION
  6: 0x0261 [0x1D] PRINT_EVENT_MESSAGE(message_id=4400*)
    → "You took so long to return that I got so worried and began to cry!\u0007<sob>...<sob>...\u007F1\u0000\u0007"
  7: 0x0264 [0x23] WAIT_FOR_DIALOG_INTERACTION
  8: 0x0265 [0x29] REQ_SET_WAIT(priority=0x08, entity_id=Shanruru (ID: 17760344/0x010F0058), tag_num=0x02)
  9: 0x026C [0x20] SET_CLI_EVENT_UC_FLAG: Unlock player control
 10: 0x026E [0x21] END_EVENT
 11: 0x026F [0x00] END_REQSTACK()
```
