# Event 65535

## Metadata

| Field           | Value    |
|-----------------|----------|
| Event Index     | 41/70    |
| Offset          | 0x034B   |
| Data Size       | 47 bytes |
| Calculated Size | 47 bytes |
| Instructions    | 13       |

```
      00 01 02 03 04 05 06 07  08 09 0A 0B 0C 0D 0E 0F
      -- -- -- -- -- -- -- --  -- -- -- -- -- -- -- --
0340:                                   3A F8 FF FF 7F             :....
0350: 03 00 07 03 00 2B 80 4B  F8 FF FF 7F 03 00 6F 70  .....+.K......op
0360: 1C 23 80 08 03 00 2C 80  4B F8 FF FF 7F 03 00 6F  .#....,.K......o
0370: 70 1C 23 80 1E 3E 12 04  01 00                    p.#..>....      
```

## Opcodes

```
  0: 0x034B [0x3A] CONVERT_YAW_TO_BYTE(entity=EventEntity, result_destination=ExtData[1]->WorkLocal[3])
  1: 0x0352 [0x07] ExtData[1]->WorkLocal[3] += 400*
  2: 0x0357 [0x4B] UPDATE_ENTITY_YAW(entity=EventEntity, yaw=0.02°)
  3: 0x035E [0x6F] WAIT_FRAME_DELAY: Yield until WaitTime reaches zero
  4: 0x035F [0x70] WAIT_ENTITY_RENDER_FLAG: Wait while EventEntity->Render.Flags3 bit 2 is set (cancel turn if not)
  5: 0x0360 [0x1C] WAIT(30* ticks)
  6: 0x0363 [0x08] ExtData[1]->WorkLocal[3] -= 1200*
  7: 0x0368 [0x4B] UPDATE_ENTITY_YAW(entity=EventEntity, yaw=0.02°)
  8: 0x036F [0x6F] WAIT_FRAME_DELAY: Yield until WaitTime reaches zero
  9: 0x0370 [0x70] WAIT_ENTITY_RENDER_FLAG: Wait while EventEntity->Render.Flags3 bit 2 is set (cancel turn if not)
 10: 0x0371 [0x1C] WAIT(30* ticks)
 11: 0x0374 [0x1E] EventEntity looks at Unnamed NPC (ID: 17044030/0x0104123E) and starts talking
 12: 0x0379 [0x00] END_REQSTACK()
```
