# Event 65535

## Metadata

| Field           | Value    |
|-----------------|----------|
| Event Index     | 59/70    |
| Offset          | 0x058A   |
| Data Size       | 65 bytes |
| Calculated Size | 65 bytes |
| Instructions    | 8        |

```
      00 01 02 03 04 05 06 07  08 09 0A 0B 0C 0D 0E 0F
      -- -- -- -- -- -- -- --  -- -- -- -- -- -- -- --
0580:                                66 0D 80 F8 FF FF            f.....
0590: 7F F8 FF FF 7F 73 69 72  31 79 00 F8 FF FF 7F 3D  .....sir1y.....=
05A0: 12 04 01 66 0D 80 F8 FF  FF 7F F8 FF FF 7F 73 68  ...f..........sh
05B0: 61 31 53 F8 FF FF 7F F8  FF FF 7F 73 68 61 31 1E  a1S........sha1.
05C0: 39 12 04 01 6F 76 F8 FF  FF 7F 00                 9...ov.....     
```

## Opcodes

```
  0: 0x058A [0x66] LOAD_EXT_SCHEDULER_MAIN: Load scheduler "sir1" with entities [EventEntity, EventEntity], work=29*
  1: 0x0599 [0x79] EventEntity looks at Unnamed NPC (ID: 17044029/0x0104123D) (Basic look)
  2: 0x05A3 [0x66] LOAD_EXT_SCHEDULER_MAIN: Load scheduler "sha1" with entities [EventEntity, EventEntity], work=29*
  3: 0x05B2 [0x53] WAIT_SCHEDULER_TASK: Wait for scheduler "sha1" with entities [EventEntity, EventEntity]
  4: 0x05BF [0x1E] EventEntity looks at Salwa-Molwa (ID: 17044025/0x01041239) and starts talking
  5: 0x05C4 [0x6F] WAIT_FRAME_DELAY: Yield until WaitTime reaches zero
  6: 0x05C5 [0x76] CHECK_ENTITY_RENDER_FLAGS: Wait until EventEntity Render.Flags0 and Render.Flags3 conditions are met
  7: 0x05CA [0x00] END_REQSTACK()
```
