# Event 161

## Metadata

| Field           | Value    |
|-----------------|----------|
| Event Index     | 3/5      |
| Offset          | 0x0209   |
| Data Size       | 34 bytes |
| Calculated Size | 34 bytes |
| Instructions    | 12       |

```
      00 01 02 03 04 05 06 07  08 09 0A 0B 0C 0D 0E 0F
      -- -- -- -- -- -- -- --  -- -- -- -- -- -- -- --
0200:                             20 01 1E F0 FF FF 7F            ......
0210: 6F 70 6E 89 20 03 01 05  80 99 89 20 03 01 1D 1C  opn. ...... ....
0220: 80 23 99 89 20 03 01 20  00 21 00                 .#.. .. .!.     
```

## Opcodes

```
  0: 0x0209 [0x20] SET_CLI_EVENT_UC_FLAG: Lock player control
  1: 0x020B [0x1E] EventEntity looks at LocalPlayer and starts talking
  2: 0x0210 [0x6F] WAIT_FRAME_DELAY: Yield until WaitTime reaches zero
  3: 0x0211 [0x70] WAIT_ENTITY_RENDER_FLAG: Wait while EventEntity->Render.Flags3 bit 2 is set (cancel turn if not)
  4: 0x0212 [0x6E] Shajaf (ID: 16982153/0x01032089) uses emote 22*
  5: 0x0219 [0x99] Wait for Shajaf (ID: 16982153/0x01032089) animation to complete
  6: 0x021E [0x1D] PRINT_EVENT_MESSAGE(message_id=9389*)
    → "Hey, hey... What are you doing, running off from a job? Get back out there!\u007F1\u0000\u0007"
  7: 0x0221 [0x23] WAIT_FOR_DIALOG_INTERACTION
  8: 0x0222 [0x99] Wait for Shajaf (ID: 16982153/0x01032089) animation to complete
  9: 0x0227 [0x20] SET_CLI_EVENT_UC_FLAG: Unlock player control
 10: 0x0229 [0x21] END_EVENT
 11: 0x022A [0x00] END_REQSTACK()
```
