# Event 65535

## Metadata

| Field           | Value    |
|-----------------|----------|
| Event Index     | 28/76    |
| Offset          | 0x0234   |
| Data Size       | 51 bytes |
| Calculated Size | 51 bytes |
| Instructions    | 5        |

```
      00 01 02 03 04 05 06 07  08 09 0A 0B 0C 0D 0E 0F
      -- -- -- -- -- -- -- --  -- -- -- -- -- -- -- --
0230:             1C 36 80 52  29 80 F0 FF FF 7F F0 FF      .6.R).......
0240: FF 7F 30 30 31 33 45 29  80 F0 FF FF 7F F0 FF FF  ..0013E)........
0250: 7F 30 30 31 34 00 80 5B  37 80 56 83 08 01 56 83  .0014..[7.V...V.
0260: 08 01 74 6C 6B 31 00                              ..tlk1.         
```

## Opcodes

```
  0: 0x0234 [0x1C] WAIT(210* ticks)
  1: 0x0237 [0x52] END_LOAD_SCHEDULER: End scheduler "0013" with entities [LocalPlayer, LocalPlayer], work=501*
  2: 0x0246 [0x45] LOAD_SCHEDULED_TASK(work_offset1=501*, entity1=LocalPlayer, entity2=LocalPlayer, scheduler_id="0014", work_offset2=0*)
  3: 0x0257 [0x5B] LOAD_EXT_SCHEDULER(work_offset=1310*, entity1=Unnamed NPC (ID: 17335126/0x01088356), entity2=Unnamed NPC (ID: 17335126/0x01088356), action="tlk1")
  4: 0x0266 [0x00] END_REQSTACK()
```
