# Event 65535

## Metadata

| Field           | Value    |
|-----------------|----------|
| Event Index     | 54/76    |
| Offset          | 0x07A3   |
| Data Size       | 57 bytes |
| Calculated Size | 57 bytes |
| Instructions    | 7        |

```
      00 01 02 03 04 05 06 07  08 09 0A 0B 0C 0D 0E 0F
      -- -- -- -- -- -- -- --  -- -- -- -- -- -- -- --
07A0:          5B 2D 80 56 83  08 01 56 83 08 01 6D 72     [-.V...V...mr
07B0: 72 30 1C 32 80 5B 6E 80  54 83 08 01 54 83 08 01  r0.2.[n.T...T...
07C0: 74 6C 63 31 1C 32 80 BB  6F 80 CD 82 08 01 CD 82  tlc1.2..o.......
07D0: 08 01 73 30 30 39 00 80  1C 4C 80 00              ..s009...L..    
```

## Opcodes

```
  0: 0x07A3 [0x5B] LOAD_EXT_SCHEDULER: Load scheduler "mrr0" with entities [Unnamed NPC (ID: 17335126/0x01088356), Unnamed NPC (ID: 17335126/0x01088356)], work=2474*
  1: 0x07B2 [0x1C] WAIT(60* ticks)
  2: 0x07B5 [0x5B] LOAD_EXT_SCHEDULER: Load scheduler "tlc1" with entities [Lilisette (ID: 17335124/0x01088354), Lilisette (ID: 17335124/0x01088354)], work=2132*
  3: 0x07C4 [0x1C] WAIT(60* ticks)
  4: 0x07C7 [0xBB] LOAD_EVENT_SCHEDULER_ALT: Load scheduler "s009" with entities [Unnamed NPC (ID: 17334989/0x010882CD), Unnamed NPC (ID: 17334989/0x010882CD)], work=[196*, 0*]
  5: 0x07D8 [0x1C] WAIT(240* ticks)
  6: 0x07DB [0x00] END_REQSTACK()
```
