# Event 65535

## Metadata

| Field           | Value    |
|-----------------|----------|
| Event Index     | 24/76    |
| Offset          | 0x0121   |
| Data Size       | 64 bytes |
| Calculated Size | 64 bytes |
| Instructions    | 6        |

```
      00 01 02 03 04 05 06 07  08 09 0A 0B 0C 0D 0E 0F
      -- -- -- -- -- -- -- --  -- -- -- -- -- -- -- --
0120:    5B 23 80 56 83 08 01  56 83 08 01 34 33 30 36   [#.V...V...4306
0130: 1C 24 80 BA 56 83 08 01  25 80 26 80 27 80 28 80  .$..V...%.&.'.(.
0140: 52 29 80 F0 FF FF 7F F0  FF FF 7F 30 30 30 39 45  R).........0009E
0150: 29 80 F0 FF FF 7F F0 FF  FF 7F 30 30 30 61 00 80  ).........000a..
0160: 00                                                .               
```

## Opcodes

```
  0: 0x0121 [0x5B] LOAD_EXT_SCHEDULER(work_offset=2519*, entity1=Unnamed NPC (ID: 17335126/0x01088356), entity2=Unnamed NPC (ID: 17335126/0x01088356), action="4306")
  1: 0x0130 [0x1C] WAIT(180* ticks)
  2: 0x0133 [0xBA] SET_ENTITY_POSITION(entity_id=References[17302358], pos_x=60.448*, pos_z=-474.303*, pos_y=0.264*, direction=272.5°*)
  3: 0x0140 [0x52] END_LOAD_SCHEDULER: End scheduler "0009" with entities [LocalPlayer, LocalPlayer], work=501*
  4: 0x014F [0x45] LOAD_SCHEDULED_TASK(work_offset1=501*, entity1=LocalPlayer, entity2=LocalPlayer, scheduler_id="000a", work_offset2=0*)
  5: 0x0160 [0x00] END_REQSTACK()
```
