# Event 65535

## Metadata

| Field           | Value    |
|-----------------|----------|
| Event Index     | 40/76    |
| Offset          | 0x02F6   |
| Data Size       | 62 bytes |
| Calculated Size | 62 bytes |
| Instructions    | 6        |

```
      00 01 02 03 04 05 06 07  08 09 0A 0B 0C 0D 0E 0F
      -- -- -- -- -- -- -- --  -- -- -- -- -- -- -- --
02F0:                   BB 49  80 0B 83 08 01 0B 83 08        .I........
0300: 01 73 74 30 31 00 80 1C  24 80 BB 49 80 0B 83 08  .st01...$..I....
0310: 01 0B 83 08 01 73 74 30  32 00 80 27 10 CD 82 08  .....st02..'....
0320: 01 0A 45 4A 80 F8 FF FF  7F F8 FF FF 7F 64 62 6E  ..EJ.........dbn
0330: 30 00 80 00                                       0...            
```

## Opcodes

```
  0: 0x02F6 [0xBB] LOAD_EVENT_SCHEDULER_ALT: Load scheduler "st01" with entities [Unnamed NPC (ID: 17335051/0x0108830B), Unnamed NPC (ID: 17335051/0x0108830B)], work=[156*, 0*]
  1: 0x0307 [0x1C] WAIT(180* ticks)
  2: 0x030A [0xBB] LOAD_EVENT_SCHEDULER_ALT: Load scheduler "st02" with entities [Unnamed NPC (ID: 17335051/0x0108830B), Unnamed NPC (ID: 17335051/0x0108830B)], work=[156*, 0*]
  3: 0x031B [0x27] REQ_SET(priority=0x10, entity_id=Unnamed NPC (ID: 17334989/0x010882CD), tag_num=0x0A)
  4: 0x0322 [0x45] LOAD_SCHEDULED_TASK(work_offset1=482*, entity1=EventEntity, entity2=EventEntity, scheduler_id="dbn0", work_offset2=0*)
  5: 0x0333 [0x00] END_REQSTACK()
```
