# Event 65535

## Metadata

| Field           | Value    |
|-----------------|----------|
| Event Index     | 36/76    |
| Offset          | 0x028C   |
| Data Size       | 56 bytes |
| Calculated Size | 56 bytes |
| Instructions    | 8        |

```
      00 01 02 03 04 05 06 07  08 09 0A 0B 0C 0D 0E 0F
      -- -- -- -- -- -- -- --  -- -- -- -- -- -- -- --
0280:                                      3B F8 FF FF              ;...
0290: 7F 03 00 04 00 05 00 06  08 00 16 07 00 08 00 3B  ...............;
02A0: 80 07 05 00 07 00 36 03  00 04 00 05 00 07 08 00  ......6.........
02B0: 3C 80 1C 01 80 01 9A 02  02 08 00 3D 80 04 C3 02  <..........=....
02C0: 06 08 00 00                                       ....            
```

## Opcodes

```
  0: 0x028C [0x3B] GET_ENTITY_POSITION(entity=EventEntity, x_destination=ExtData[1]->WorkLocal[3], y_destination=ExtData[1]->WorkLocal[4], z_destination=ExtData[1]->WorkLocal[5])
  1: 0x0297 [0x06] ExtData[1]->WorkLocal[8] = 0
  2: 0x029A [0x16] ExtData[1]->WorkLocal[7] = sin(ExtData[1]->WorkLocal[8]) * 5*
  3: 0x02A1 [0x07] ExtData[1]->WorkLocal[5] += ExtData[1]->WorkLocal[7]
  4: 0x02A6 [0x36] SET_ENTITY_EVENT_POSITION(pos_x=ExtData[1]->WorkLocal[3], pos_z=ExtData[1]->WorkLocal[4], pos_y=ExtData[1]->WorkLocal[5])
  5: 0x02AD [0x07] ExtData[1]->WorkLocal[8] += 64*
  6: 0x02B2 [0x1C] WAIT(1* ticks)
  7: 0x02B5 [0x01] GOTO 0x029A
```

## Data or dead code:

```
# Dead code (unreachable instructions):
     0x02B8 [0x02] IF !(ExtData[1]->WorkLocal[8] < 2048*) GOTO 0x02C3
     0x02C0 [0x06] ExtData[1]->WorkLocal[8] = 0
     0x02C3 [0x00] END_REQSTACK()
```