# Event 65535

## Metadata

| Field           | Value    |
|-----------------|----------|
| Event Index     | 14/76    |
| Offset          | 0x0078   |
| Data Size       | 55 bytes |
| Calculated Size | 55 bytes |
| Instructions    | 6        |

```
      00 01 02 03 04 05 06 07  08 09 0A 0B 0C 0D 0E 0F
      -- -- -- -- -- -- -- --  -- -- -- -- -- -- -- --
0070:                          81 00 56 83 08 01 5B 04          ..V...[.
0080: 80 56 83 08 01 56 83 08  01 66 64 30 30 5B 05 80  .V...V...fd00[..
0090: 56 83 08 01 56 83 08 01  74 73 62 30 1C 06 80 5B  V...V...tsb0...[
00A0: 05 80 56 83 08 01 56 83  08 01 74 6C 62 32 00     ..V...V...tlb2. 
```

## Opcodes

```
  0: 0x0078 [0x81] SET_ENTITY_BLINKING(blink_flag=0x00, entity=Unnamed NPC (ID: 17335126/0x01088356))
  1: 0x007E [0x5B] LOAD_EXT_SCHEDULER: Load scheduler "fd00" with entities [Unnamed NPC (ID: 17335126/0x01088356), Unnamed NPC (ID: 17335126/0x01088356)], work=1311*
  2: 0x008D [0x5B] LOAD_EXT_SCHEDULER: Load scheduler "tsb0" with entities [Unnamed NPC (ID: 17335126/0x01088356), Unnamed NPC (ID: 17335126/0x01088356)], work=1414*
  3: 0x009C [0x1C] WAIT(45* ticks)
  4: 0x009F [0x5B] LOAD_EXT_SCHEDULER: Load scheduler "tlb2" with entities [Unnamed NPC (ID: 17335126/0x01088356), Unnamed NPC (ID: 17335126/0x01088356)], work=1414*
  5: 0x00AE [0x00] END_REQSTACK()
```
