# Event 65535

## Metadata

| Field           | Value    |
|-----------------|----------|
| Event Index     | 25/76    |
| Offset          | 0x0161   |
| Data Size       | 85 bytes |
| Calculated Size | 85 bytes |
| Instructions    | 11       |

```
      00 01 02 03 04 05 06 07  08 09 0A 0B 0C 0D 0E 0F
      -- -- -- -- -- -- -- --  -- -- -- -- -- -- -- --
0160:    32 18 80 1F 00 2A 80  2B 80 2C 80 1F 01 6F 5B   2....*.+.,...o[
0170: 2D 80 56 83 08 01 56 83  08 01 70 61 73 30 52 29  -.V...V...pas0R)
0180: 80 F0 FF FF 7F F0 FF FF  7F 30 30 31 38 45 29 80  .........0018E).
0190: F0 FF FF 7F F0 FF FF 7F  30 30 31 39 00 80 1C 2E  ........0019....
01A0: 80 C5 2F 80 56 83 08 01  56 83 08 01 73 30 30 30  ../.V...V...s000
01B0: 00 80 1C 30 80 00                                 ...0..          
```

## Opcodes

```
  0: 0x0161 [0x32] ExtData[1]->MainSpeed = 13* * 0.1
  1: 0x0164 [0x1F] MOVE_ENTITY: EventEntity moves to X=60.557*, Z=-473.043*, Y=0.256*
  2: 0x016C [0x1F] MOVE_ENTITY: Update entity position (mode=1)
  3: 0x016E [0x6F] WAIT_FRAME_DELAY: Yield until WaitTime reaches zero
  4: 0x016F [0x5B] LOAD_EXT_SCHEDULER: Load scheduler "pas0" with entities [Unnamed NPC (ID: 17335126/0x01088356), Unnamed NPC (ID: 17335126/0x01088356)], work=2474*
  5: 0x017E [0x52] END_LOAD_SCHEDULER: End scheduler "0018" with entities [LocalPlayer, LocalPlayer], work=501*
  6: 0x018D [0x45] LOAD_SCHEDULED_TASK: Load scheduler "0019" with entities [LocalPlayer, LocalPlayer], work=[501*, 0*]
  7: 0x019E [0x1C] WAIT(150* ticks)
  8: 0x01A1 [0xC5] LOAD_SCHEDULED_TASK_ALT3: Load scheduler 0x80003030 for entities [Unnamed NPC (ID: 17335126/0x01088356), Unnamed NPC (ID: 17335126/0x01088356)], work=167*, param=12403
  9: 0x01B2 [0x1C] WAIT(120* ticks)
 10: 0x01B5 [0x00] END_REQSTACK()
```
