# Event 398

## Metadata

| Field           | Value    |
|-----------------|----------|
| Event Index     | 13/15    |
| Offset          | 0x00FC   |
| Data Size       | 26 bytes |
| Calculated Size | 26 bytes |
| Instructions    | 9        |

```
      00 01 02 03 04 05 06 07  08 09 0A 0B 0C 0D 0E 0F
      -- -- -- -- -- -- -- --  -- -- -- -- -- -- -- --
00F0:                                      42 1E F0 FF              B...
0100: FF 7F 6F 70 29 0B 58 E0  0E 01 0D 29 0B 58 E0 0E  ..op).X....).X..
0110: 01 0E 20 00 21 00                                 .. .!.          
```

## Opcodes

```
  0: 0x00FC [0x42] SET_CLI_EVENT_CANCEL_DATA()
  1: 0x00FD [0x1E] EventEntity looks at LocalPlayer and starts talking
  2: 0x0102 [0x6F] WAIT_FRAME_DELAY: Yield until WaitTime reaches zero
  3: 0x0103 [0x70] WAIT_ENTITY_RENDER_FLAG: Wait while EventEntity->Render.Flags3 bit 2 is set (cancel turn if not)
  4: 0x0104 [0x29] REQ_SET_WAIT(priority=0x0B, entity_id=Orn (ID: 17752152/0x010EE058), tag_num=0x0D)
  5: 0x010B [0x29] REQ_SET_WAIT(priority=0x0B, entity_id=Orn (ID: 17752152/0x010EE058), tag_num=0x0E)
  6: 0x0112 [0x20] SET_CLI_EVENT_UC_FLAG: Unlock player control
  7: 0x0114 [0x21] END_EVENT
  8: 0x0115 [0x00] END_REQSTACK()
```
