# Event 5043

## Metadata

| Field           | Value    |
|-----------------|----------|
| Event Index     | 3/6      |
| Offset          | 0x0034   |
| Data Size       | 52 bytes |
| Calculated Size | 52 bytes |
| Instructions    | 10       |

```
      00 01 02 03 04 05 06 07  08 09 0A 0B 0C 0D 0E 0F
      -- -- -- -- -- -- -- --  -- -- -- -- -- -- -- --
0030:             4A F0 FF FF  7F F8 FF FF 7F 1E F0 FF      J...........
0040: FF 7F 6F 70 5B 00 80 F8  FF FF 7F F8 FF FF 7F 74  ..op[..........t
0050: 6C 6B 30 1D 04 80 23 5B  00 80 F8 FF FF 7F F8 FF  lk0...#[........
0060: FF 7F 74 6C 6B 31 21 00                           ..tlk1!.        
```

## Opcodes

```
  0: 0x0034 [0x4A] LocalPlayer looks at EventEntity
  1: 0x003D [0x1E] EventEntity looks at LocalPlayer and starts talking
  2: 0x0042 [0x6F] WAIT_FRAME_DELAY: Yield until WaitTime reaches zero
  3: 0x0043 [0x70] WAIT_ENTITY_RENDER_FLAG: Wait while EventEntity->Render.Flags3 bit 2 is set (cancel turn if not)
  4: 0x0044 [0x5B] LOAD_EXT_SCHEDULER: Load scheduler "tlk0" with entities [EventEntity, EventEntity], work=0*
  5: 0x0053 [0x1D] PRINT_EVENT_MESSAGE(message_id=10418*)
    → "You want to know about the formation of Adoulin?\u0007Ummm...sorry, but I don't really know anything about it. I bet the Scouts' Coalition would, though.\u007F1\u0000\u0007"
  6: 0x0056 [0x23] WAIT_FOR_DIALOG_INTERACTION
  7: 0x0057 [0x5B] LOAD_EXT_SCHEDULER: Load scheduler "tlk1" with entities [EventEntity, EventEntity], work=0*
  8: 0x0066 [0x21] END_EVENT
  9: 0x0067 [0x00] END_REQSTACK()
```
