# Event 153

## Metadata

| Field           | Value    |
|-----------------|----------|
| Event Index     | 5/10     |
| Offset          | 0x00AD   |
| Data Size       | 60 bytes |
| Calculated Size | 60 bytes |
| Instructions    | 10       |

```
      00 01 02 03 04 05 06 07  08 09 0A 0B 0C 0D 0E 0F
      -- -- -- -- -- -- -- --  -- -- -- -- -- -- -- --
00A0:                                         1E F0 FF               ...
00B0: FF 7F 6F 76 F8 FF FF 7F  66 00 80 F8 FF FF 7F F8  ..ov....f.......
00C0: FF FF 7F 74 6C 6B 30 1D  05 80 23 66 00 80 F8 FF  ...tlk0...#f....
00D0: FF 7F F8 FF FF 7F 74 6C  6B 31 53 F8 FF FF 7F F8  ......tlk1S.....
00E0: FF FF 7F 74 6C 6B 31 21  00                       ...tlk1!.       
```

## Opcodes

```
  0: 0x00AD [0x1E] EventEntity looks at LocalPlayer and starts talking
  1: 0x00B2 [0x6F] WAIT_FRAME_DELAY: Yield until WaitTime reaches zero
  2: 0x00B3 [0x76] CHECK_ENTITY_RENDER_FLAGS: Wait until EventEntity Render.Flags0 and Render.Flags3 conditions are met
  3: 0x00B8 [0x66] LOAD_EXT_SCHEDULER_MAIN(work_offset=39*, entity1=EventEntity, entity2=EventEntity, action="tlk0")
  4: 0x00C7 [0x1D] PRINT_EVENT_MESSAGE(message_id=10217*)
    → "Did you know that Lord Eald'narche wears an eye patch? He had an accident when he was little, but it hasn't fazed him! Bless his heart.\u007F1\u0000\u0007"
  5: 0x00CA [0x23] WAIT_FOR_DIALOG_INTERACTION
  6: 0x00CB [0x66] LOAD_EXT_SCHEDULER_MAIN(work_offset=39*, entity1=EventEntity, entity2=EventEntity, action="tlk1")
  7: 0x00DA [0x53] WAIT_SCHEDULER_TASK(entity1=EventEntity, entity2=EventEntity, action_id="tlk1")
  8: 0x00E7 [0x21] END_EVENT
  9: 0x00E8 [0x00] END_REQSTACK()
```
