# Event 65535

## Metadata

| Field           | Value    |
|-----------------|----------|
| Event Index     | 5/11     |
| Offset          | 0x003A   |
| Data Size       | 46 bytes |
| Calculated Size | 46 bytes |
| Instructions    | 11       |

```
      00 01 02 03 04 05 06 07  08 09 0A 0B 0C 0D 0E 0F
      -- -- -- -- -- -- -- --  -- -- -- -- -- -- -- --
0030:                                61 01 32 01 80 1F            a.2...
0040: 00 06 80 07 80 08 80 1F  01 1F 00 09 80 0A 80 0B  ................
0050: 80 1F 01 1F 00 0C 80 0D  80 0E 80 1F 01 1F 00 0F  ................
0060: 80 10 80 11 80 1F 01 00                           ........        
```

## Opcodes

```
  0: 0x003A [0x61] EventEntity->Render.Flags2 |= 0x00000001
  1: 0x003C [0x32] ExtData[1]->MainSpeed = 30* * 0.1
  2: 0x003F [0x1F] MOVE_ENTITY: EventEntity moves to X=-68.316*, Z=-331.694*, Y=7.560*
  3: 0x0047 [0x1F] MOVE_ENTITY: Update entity position (mode=1)
  4: 0x0049 [0x1F] MOVE_ENTITY: EventEntity moves to X=-65.949*, Z=-328.272*, Y=8.179*
  5: 0x0051 [0x1F] MOVE_ENTITY: Update entity position (mode=1)
  6: 0x0053 [0x1F] MOVE_ENTITY: EventEntity moves to X=-75.084*, Z=-328.017*, Y=7.508*
  7: 0x005B [0x1F] MOVE_ENTITY: Update entity position (mode=1)
  8: 0x005D [0x1F] MOVE_ENTITY: EventEntity moves to X=-65.960*, Z=-330.334*, Y=7.865*
  9: 0x0065 [0x1F] MOVE_ENTITY: Update entity position (mode=1)
 10: 0x0067 [0x00] END_REQSTACK()
```
