# Event 602

## Metadata

| Field           | Value    |
|-----------------|----------|
| Event Index     | 3/4      |
| Offset          | 0x01AD   |
| Data Size       | 30 bytes |
| Calculated Size | 30 bytes |
| Instructions    | 13       |

```
      00 01 02 03 04 05 06 07  08 09 0A 0B 0C 0D 0E 0F
      -- -- -- -- -- -- -- --  -- -- -- -- -- -- -- --
01A0:                                         1E F0 FF               ...
01B0: FF 7F 02 07 10 07 80 00  C0 01 1D 12 80 23 21 00  .............#!.
01C0: 42 1D 28 80 23 1D 29 80  23 21 00                 B.(.#.).#!.     
```

## Opcodes

```
  0: 0x01AD [0x1E] EventEntity looks at LocalPlayer and starts talking
  1: 0x01B2 [0x02] IF !(Work_Zone[7] == 1*) GOTO 0x01C0
  2: 0x01BA [0x1D] PRINT_EVENT_MESSAGE(message_id=9785*)
    → "Due to limited resources, this service is unavailable to customers who have recently requested a Mog Locker expansion.\u007F1\u0000\u0007"
  3: 0x01BD [0x23] WAIT_FOR_DIALOG_INTERACTION
  4: 0x01BE [0x21] END_EVENT
  5: 0x01BF [0x00] END_REQSTACK()

SUBROUTINE_01C0:
  6: 0x01C0 [0x42] SET_CLI_EVENT_CANCEL_DATA()
  7: 0x01C1 [0x1D] PRINT_EVENT_MESSAGE(message_id=9789*)
    → "Your Mog Locker expansion has been approved.\u007F1\u0000\u0007"
  8: 0x01C4 [0x23] WAIT_FOR_DIALOG_INTERACTION
  9: 0x01C5 [0x1D] PRINT_EVENT_MESSAGE(message_id=9790*)
    → "Your Mog locker can now hold 
\u0003 \u007F\u0012\u0003[item/items].\u007F1\u0000\u0007"
 10: 0x01C8 [0x23] WAIT_FOR_DIALOG_INTERACTION
 11: 0x01C9 [0x21] END_EVENT
 12: 0x01CA [0x00] END_REQSTACK()
```
