# Event 65535

## Metadata

| Field           | Value    |
|-----------------|----------|
| Event Index     | 7/11     |
| Offset          | 0x0014   |
| Data Size       | 47 bytes |
| Calculated Size | 47 bytes |
| Instructions    | 5        |

```
      00 01 02 03 04 05 06 07  08 09 0A 0B 0C 0D 0E 0F
      -- -- -- -- -- -- -- --  -- -- -- -- -- -- -- --
0010:             5B 00 80 44  61 0E 01 44 61 0E 01 79      [..Da..Da..y
0020: 65 73 30 53 44 61 0E 01  44 61 0E 01 79 65 73 30  es0SDa..Da..yes0
0030: 5B 01 80 44 61 0E 01 44  61 0E 01 74 6C 61 30 1C  [..Da..Da..tla0.
0040: 02 80 00                                          ...             
```

## Opcodes

```
  0: 0x0014 [0x5B] LOAD_EXT_SCHEDULER: Load scheduler "yes0" with entities [Lilisette (ID: 17719620/0x010E6144), Lilisette (ID: 17719620/0x010E6144)], work=2139*
  1: 0x0023 [0x53] WAIT_SCHEDULER_TASK: Wait for scheduler "yes0" with entities [Lilisette (ID: 17719620/0x010E6144), Lilisette (ID: 17719620/0x010E6144)]
  2: 0x0030 [0x5B] LOAD_EXT_SCHEDULER: Load scheduler "tla0" with entities [Lilisette (ID: 17719620/0x010E6144), Lilisette (ID: 17719620/0x010E6144)], work=2134*
  3: 0x003F [0x1C] WAIT(113* ticks)
  4: 0x0042 [0x00] END_REQSTACK()
```
