# Event 283

## Metadata

| Field           | Value    |
|-----------------|----------|
| Event Index     | 7/42     |
| Offset          | 0x008F   |
| Data Size       | 49 bytes |
| Calculated Size | 49 bytes |
| Instructions    | 11       |

```
      00 01 02 03 04 05 06 07  08 09 0A 0B 0C 0D 0E 0F
      -- -- -- -- -- -- -- --  -- -- -- -- -- -- -- --
0080:                                               1E                 .
0090: F0 FF FF 7F 1D 0E 80 23  66 08 80 F8 FF FF 7F F8  .......#f.......
00A0: FF FF 7F 74 6C 62 30 1D  0F 80 23 66 08 80 F8 FF  ...tlb0...#f....
00B0: FF 7F F8 FF FF 7F 74 6C  62 31 1D 10 80 23 21 00  ......tlb1...#!.
```

## Opcodes

```
  0: 0x008F [0x1E] EventEntity looks at LocalPlayer and starts talking
  1: 0x0094 [0x1D] PRINT_EVENT_MESSAGE(message_id=10995*)
    → "A battle with the wyrms...\u0007I knew that Prishe would bring misfortune to our peaceful city...\u007F1\u0000\u0007"
  2: 0x0097 [0x23] WAIT_FOR_DIALOG_INTERACTION
  3: 0x0098 [0x66] LOAD_EXT_SCHEDULER_MAIN: Load scheduler "tlb0" with entities [EventEntity, EventEntity], work=33*
  4: 0x00A7 [0x1D] PRINT_EVENT_MESSAGE(message_id=10996*)
    → "However, I have a feeling that you and our lea--and that dastardly child will be victorious in your efforts.\u007F1\u0000\u0007"
  5: 0x00AA [0x23] WAIT_FOR_DIALOG_INTERACTION
  6: 0x00AB [0x66] LOAD_EXT_SCHEDULER_MAIN: Load scheduler "tlb1" with entities [EventEntity, EventEntity], work=33*
  7: 0x00BA [0x1D] PRINT_EVENT_MESSAGE(message_id=10997*)
    → "Of course I despise her, but I cannot deny that she is the strongest woman I have ever met.\u007F1\u0000\u0007"
  8: 0x00BD [0x23] WAIT_FOR_DIALOG_INTERACTION
  9: 0x00BE [0x21] END_EVENT
 10: 0x00BF [0x00] END_REQSTACK()
```
