# Event 581

## Metadata

| Field           | Value    |
|-----------------|----------|
| Event Index     | 40/42    |
| Offset          | 0x0294   |
| Data Size       | 46 bytes |
| Calculated Size | 46 bytes |
| Instructions    | 10       |

```
      00 01 02 03 04 05 06 07  08 09 0A 0B 0C 0D 0E 0F
      -- -- -- -- -- -- -- --  -- -- -- -- -- -- -- --
0290:             1E F0 FF FF  7F 6F 70 66 05 80 F8 FF      .....opf....
02A0: FF 7F F8 FF FF 7F 74 68  6B 31 1D 54 80 23 66 05  ......thk1.T.#f.
02B0: 80 F8 FF FF 7F F8 FF FF  7F 74 68 6B 32 1C 55 80  .........thk2.U.
02C0: 21 00                                             !.              
```

## Opcodes

```
  0: 0x0294 [0x1E] EventEntity looks at LocalPlayer and starts talking
  1: 0x0299 [0x6F] WAIT_FRAME_DELAY: Yield until WaitTime reaches zero
  2: 0x029A [0x70] WAIT_ENTITY_RENDER_FLAG: Wait while EventEntity->Render.Flags3 bit 2 is set (cancel turn if not)
  3: 0x029B [0x66] LOAD_EXT_SCHEDULER_MAIN: Load scheduler "thk1" with entities [EventEntity, EventEntity], work=30*
  4: 0x02AA [0x1D] PRINT_EVENT_MESSAGE(message_id=11761*)
    → "They must have been up to some mischief in the tributary.\u0007I have a feeling that knowing their doings would be rather significant to our investigation.\u007F1\u0000\u0007"
  5: 0x02AD [0x23] WAIT_FOR_DIALOG_INTERACTION
  6: 0x02AE [0x66] LOAD_EXT_SCHEDULER_MAIN: Load scheduler "thk2" with entities [EventEntity, EventEntity], work=30*
  7: 0x02BD [0x1C] WAIT(60* ticks)
  8: 0x02C0 [0x21] END_EVENT
  9: 0x02C1 [0x00] END_REQSTACK()
```
