# Event 65535

## Metadata

| Field           | Value    |
|-----------------|----------|
| Event Index     | 76/114   |
| Offset          | 0x04A8   |
| Data Size       | 37 bytes |
| Calculated Size | 37 bytes |
| Instructions    | 9        |

```
      00 01 02 03 04 05 06 07  08 09 0A 0B 0C 0D 0E 0F
      -- -- -- -- -- -- -- --  -- -- -- -- -- -- -- --
04A0:                          29 08 55 20 0F 01 10 1D          ).U ....
04B0: 48 80 23 29 08 55 20 0F  01 11 29 08 55 20 0F 01  H.#).U ...).U ..
04C0: 12 1D 49 80 23 29 08 55  20 0F 01 13 00           ..I.#).U ....   
```

## Opcodes

```
  0: 0x04A8 [0x29] REQ_SET_WAIT(priority=0x08, entity_id=Shantotto (ID: 17768533/0x010F2055), tag_num=0x10)
  1: 0x04AF [0x1D] PRINT_EVENT_MESSAGE(message_id=8004*)
    → "Not to me, mind you.\u0007If I saw that piece of junk again, who knows what I would do...\u007F1\u0000\u0007"
  2: 0x04B2 [0x23] WAIT_FOR_DIALOG_INTERACTION
  3: 0x04B3 [0x29] REQ_SET_WAIT(priority=0x08, entity_id=Shantotto (ID: 17768533/0x010F2055), tag_num=0x11)
  4: 0x04BA [0x29] REQ_SET_WAIT(priority=0x08, entity_id=Shantotto (ID: 17768533/0x010F2055), tag_num=0x12)
  5: 0x04C1 [0x1D] PRINT_EVENT_MESSAGE(message_id=8005*)
    → "Anyway, you know what you have to do.\u0007Now, be off with you!\u007F1\u0000\u0007"
  6: 0x04C4 [0x23] WAIT_FOR_DIALOG_INTERACTION
  7: 0x04C5 [0x29] REQ_SET_WAIT(priority=0x08, entity_id=Shantotto (ID: 17768533/0x010F2055), tag_num=0x13)
  8: 0x04CC [0x00] END_REQSTACK()
```
