# Event 511

## Metadata

| Field           | Value    |
|-----------------|----------|
| Event Index     | 3/4      |
| Offset          | 0x007E   |
| Data Size       | 52 bytes |
| Calculated Size | 52 bytes |
| Instructions    | 12       |

```
      00 01 02 03 04 05 06 07  08 09 0A 0B 0C 0D 0E 0F
      -- -- -- -- -- -- -- --  -- -- -- -- -- -- -- --
0070:                                            1E F0                ..
0080: FF FF 7F 6F 70 66 00 80  F8 FF FF 7F F8 FF FF 7F  ...opf..........
0090: 74 6C 62 30 03 02 10 07  80 1D 08 80 23 1D 09 80  tlb0........#...
00A0: 23 66 00 80 F8 FF FF 7F  F8 FF FF 7F 74 6C 62 31  #f..........tlb1
00B0: 21 00                                             !.              
```

## Opcodes

```
  0: 0x007E [0x1E] EventEntity looks at LocalPlayer and starts talking
  1: 0x0083 [0x6F] WAIT_FRAME_DELAY: Yield until WaitTime reaches zero
  2: 0x0084 [0x70] WAIT_ENTITY_RENDER_FLAG: Wait while EventEntity->Render.Flags3 bit 2 is set (cancel turn if not)
  3: 0x0085 [0x66] LOAD_EXT_SCHEDULER_MAIN: Load scheduler "tlb0" with entities [EventEntity, EventEntity], work=5*
  4: 0x0094 [0x03] Work_Zone[2] = 2157*
  5: 0x0099 [0x1D] PRINT_EVENT_MESSAGE(message_id=7872*)
    → "You mean...you don't have \u0001\u00056\u0002\u0000\u0000\u0000?\u007F1\u0000\u0007"
  6: 0x009C [0x23] WAIT_FOR_DIALOG_INTERACTION
  7: 0x009D [0x1D] PRINT_EVENT_MESSAGE(message_id=7873*)
    → "Hmph. No way I'm letting the likes of you on board unless I've got assurances that you are who you say you are!\u007F1\u0000\u0007"
  8: 0x00A0 [0x23] WAIT_FOR_DIALOG_INTERACTION
  9: 0x00A1 [0x66] LOAD_EXT_SCHEDULER_MAIN: Load scheduler "tlb1" with entities [EventEntity, EventEntity], work=5*
 10: 0x00B0 [0x21] END_EVENT
 11: 0x00B1 [0x00] END_REQSTACK()
```
