# Event 65535

## Metadata

| Field           | Value    |
|-----------------|----------|
| Event Index     | 36/41    |
| Offset          | 0x01DB   |
| Data Size       | 26 bytes |
| Calculated Size | 26 bytes |
| Instructions    | 6        |

```
      00 01 02 03 04 05 06 07  08 09 0A 0B 0C 0D 0E 0F
      -- -- -- -- -- -- -- --  -- -- -- -- -- -- -- --
01D0:                                   29 08 65 91 0A             ).e..
01E0: 01 0D 29 08 65 91 0A 01  08 1D 1F 80 23 29 08 65  ..).e.......#).e
01F0: 91 0A 01 09 00                                    .....           
```

## Opcodes

```
  0: 0x01DB [0x29] REQ_SET_WAIT(priority=0x08, entity_id=Star Sibyl (ID: 17469797/0x010A9165), tag_num=0x0D)
  1: 0x01E2 [0x29] REQ_SET_WAIT(priority=0x08, entity_id=Star Sibyl (ID: 17469797/0x010A9165), tag_num=0x08)
  2: 0x01E9 [0x1D] PRINT_EVENT_MESSAGE(message_id=7479*)
    → "This is the Animastery. It is the hidden sixth ministry, and was built almost twenty-five years ago.\u007F1\u0000\u0007"
  3: 0x01EC [0x23] WAIT_FOR_DIALOG_INTERACTION
  4: 0x01ED [0x29] REQ_SET_WAIT(priority=0x08, entity_id=Star Sibyl (ID: 17469797/0x010A9165), tag_num=0x09)
  5: 0x01F4 [0x00] END_REQSTACK()
```
