# 17179341 - TGS_098

## Common Data

| Field            | Value                             |
|------------------|-----------------------------------|
| Zone             | Sauromugue Champaign [S] (ID: 98) |
| Block Size       | 296 bytes                         |
| Total Events     | 2                                 |
| References Count | 10                                |

## List of Events

| Event ID              | Entrypoint   |   Size |   Instructions |
|-----------------------|--------------|--------|----------------|
| [65535](#event-65535) | 0x0000       |      1 |              1 |
| [100](#event-100)     | 0x0001       |    229 |             39 |

## DAT References (imed_data)

|   Index | Hex Value   |   Dec Value |
|---------|-------------|-------------|
|       0 | 0x00C8      |         200 |
|       1 | 0x0000      |           0 |
|       2 | 0x003C      |          60 |
|       3 | 0x0004      |           4 |
|       4 | 0x000E      |          14 |
|       5 | 0x0013      |          19 |
|       6 | 0x000F      |          15 |
|       7 | 0x1E2E      |        7726 |
|       8 | 0x0155      |         341 |
|       9 | 0x0384      |         900 |

## String References

- **7726**: Press confirm button to start.

## Events

### Event 65535

#### Metadata

| Field        | Value   |
|--------------|---------|
| Entrypoint   | 0x0000  |
| Data Size    | 1 bytes |
| Instructions | 1       |

```
      00 01 02 03 04 05 06 07  08 09 0A 0B 0C 0D 0E 0F
      -- -- -- -- -- -- -- --  -- -- -- -- -- -- -- --
0000: 00                                                .               
```

#### Opcodes

```
  0: 0x0000 [0x00] END_REQSTACK()
```

### Event 100

#### Metadata

| Field        | Value     |
|--------------|-----------|
| Entrypoint   | 0x0001    |
| Data Size    | 229 bytes |
| Instructions | 39        |

```
      00 01 02 03 04 05 06 07  08 09 0A 0B 0C 0D 0E 0F
      -- -- -- -- -- -- -- --  -- -- -- -- -- -- -- --
0000:    20 01 42 46 01 45 00  80 F0 FF FF 7F F0 FF FF    .BF.E.........
0010: 7F 66 64 6F 31 01 80 1C  02 80 77 03 80 04 80 38  .fdo1.....w....8
0020: 05 80 80 C5 22 06 01 80  C7 22 06 01 80 C8 22 06  ...."...."....".
0030: 01 80 C9 22 06 01 80 CA  22 06 01 80 CB 22 06 01  ..."...."...."..
0040: 80 CC 22 06 01 1C 06 80  29 10 C5 22 06 01 01 29  ..".....).."...)
0050: 10 C7 22 06 01 01 29 10  C8 22 06 01 01 29 10 C9  .."...).."...)..
0060: 22 06 01 01 29 10 CA 22  06 01 01 29 10 CB 22 06  "...).."...)..".
0070: 01 01 29 10 CC 22 06 01  01 45 00 80 F0 FF FF 7F  ..).."...E......
0080: F0 FF FF 7F 66 64 69 31  01 80 1C 02 80 48 07 80  ....fdi1.....H..
0090: 23 67 01 80 01 80 45 08  80 F0 FF FF 7F F0 FF FF  #g....E.........
00A0: 7F 74 67 73 35 01 80 1C  09 80 45 00 80 F0 FF FF  .tgs5.....E.....
00B0: 7F F0 FF FF 7F 66 64 6F  31 01 80 1C 02 80 52 08  .....fdo1.....R.
00C0: 80 F0 FF FF 7F F0 FF FF  7F 74 67 73 35 78 68 46  .........tgs5xhF
00D0: 00 45 00 80 F0 FF FF 7F  F0 FF FF 7F 66 64 69 31  .E..........fdi1
00E0: 01 80 20 00 21 00                                 .. .!.          
```

#### Opcodes

```
  0: 0x0001 [0x20] SET_CLI_EVENT_UC_FLAG: Lock player control
  1: 0x0003 [0x42] SET_CLI_EVENT_CANCEL_DATA()
  2: 0x0004 [0x46] CAMERA_CONTROL: Disable user control
  3: 0x0006 [0x45] LOAD_SCHEDULED_TASK: Load scheduler "fdo1" with entities [LocalPlayer, LocalPlayer], work=[200*, 0*]
  4: 0x0017 [0x1C] WAIT(60* ticks)
  5: 0x001A [0x77] SET_EVENT_TIME_WEATHER(hour=4*, weather=14*)
  6: 0x001F [0x38] SET_CLIENT_EVENT_MODE(mode=19*)
  7: 0x0022 [0x80] LOAD_WAIT(entity=Enrommate (ID: 17179333/0x010622C5))
  8: 0x0027 [0x80] LOAD_WAIT(entity=Mauchouraid (ID: 17179335/0x010622C7))
  9: 0x002C [0x80] LOAD_WAIT(entity=Oustachions (ID: 17179336/0x010622C8))
 10: 0x0031 [0x80] LOAD_WAIT(entity=test_orc01 (ID: 17179337/0x010622C9))
 11: 0x0036 [0x80] LOAD_WAIT(entity=test_orc02 (ID: 17179338/0x010622CA))
 12: 0x003B [0x80] LOAD_WAIT(entity=test_orc03 (ID: 17179339/0x010622CB))
 13: 0x0040 [0x80] LOAD_WAIT(entity=test_dog01 (ID: 17179340/0x010622CC))
 14: 0x0045 [0x1C] WAIT(15* ticks)
 15: 0x0048 [0x29] REQ_SET_WAIT(priority=0x10, entity_id=Enrommate (ID: 17179333/0x010622C5), tag_num=0x01)
 16: 0x004F [0x29] REQ_SET_WAIT(priority=0x10, entity_id=Mauchouraid (ID: 17179335/0x010622C7), tag_num=0x01)
 17: 0x0056 [0x29] REQ_SET_WAIT(priority=0x10, entity_id=Oustachions (ID: 17179336/0x010622C8), tag_num=0x01)
 18: 0x005D [0x29] REQ_SET_WAIT(priority=0x10, entity_id=test_orc01 (ID: 17179337/0x010622C9), tag_num=0x01)
 19: 0x0064 [0x29] REQ_SET_WAIT(priority=0x10, entity_id=test_orc02 (ID: 17179338/0x010622CA), tag_num=0x01)
 20: 0x006B [0x29] REQ_SET_WAIT(priority=0x10, entity_id=test_orc03 (ID: 17179339/0x010622CB), tag_num=0x01)
 21: 0x0072 [0x29] REQ_SET_WAIT(priority=0x10, entity_id=test_dog01 (ID: 17179340/0x010622CC), tag_num=0x01)
 22: 0x0079 [0x45] LOAD_SCHEDULED_TASK: Load scheduler "fdi1" with entities [LocalPlayer, LocalPlayer], work=[200*, 0*]
 23: 0x008A [0x1C] WAIT(60* ticks)
 24: 0x008D [0x48] [System] [7726*]:
    → "Press confirm button to start."
 25: 0x0090 [0x23] WAIT_FOR_DIALOG_INTERACTION
 26: 0x0091 [0x67] HIDE_HUD_ELEMENTS(param1=0x8001, param2=0x8001)
 27: 0x0096 [0x45] LOAD_SCHEDULED_TASK: Load scheduler "tgs5" with entities [LocalPlayer, LocalPlayer], work=[341*, 0*]
 28: 0x00A7 [0x1C] WAIT(900* ticks)
 29: 0x00AA [0x45] LOAD_SCHEDULED_TASK: Load scheduler "fdo1" with entities [LocalPlayer, LocalPlayer], work=[200*, 0*]
 30: 0x00BB [0x1C] WAIT(60* ticks)
 31: 0x00BE [0x52] END_LOAD_SCHEDULER: End scheduler "tgs5" with entities [LocalPlayer, LocalPlayer], work=341*
 32: 0x00CD [0x78] ENABLE_GAME_TIMER_RESET_WEATHER()
 33: 0x00CE [0x68] SHOW_HUD_ELEMENTS()
 34: 0x00CF [0x46] CAMERA_CONTROL: Restore default settings
 35: 0x00D1 [0x45] LOAD_SCHEDULED_TASK: Load scheduler "fdi1" with entities [LocalPlayer, LocalPlayer], work=[200*, 0*]
 36: 0x00E2 [0x20] SET_CLI_EVENT_UC_FLAG: Unlock player control
 37: 0x00E4 [0x21] END_EVENT
 38: 0x00E5 [0x00] END_REQSTACK()
```
