# 17179348

## Common Data

| Field            | Value                             |
|------------------|-----------------------------------|
| Zone             | Sauromugue Champaign [S] (ID: 98) |
| Block Size       | 1572 bytes                        |
| Total Events     | 30                                |
| References Count | 23                                |

## List of Events

| Event ID                   | Entrypoint   |   Size |   Instructions |
|----------------------------|--------------|--------|----------------|
| [65535](#event-65535)      | 0x0000       |      1 |              1 |
| [700](#event-700)          | 0x0001       |      1 |              1 |
| [701](#event-701)          | 0x0002       |      1 |              1 |
| [3](#event-3)              | 0x0003       |      1 |              1 |
| [4](#event-4)              | 0x0004       |      1 |              1 |
| [65535.1](#event-655351)   | 0x0005       |     10 |              2 |
| [65535.2](#event-655352)   | 0x000F       |     18 |              4 |
| [113](#event-113)          | 0x0021       |      1 |              1 |
| [109](#event-109)          | 0x0022       |      1 |              1 |
| [65535.3](#event-655353)   | 0x0023       |     76 |              6 |
| [65535.4](#event-655354)   | 0x006F       |     10 |              2 |
| [65535.5](#event-655355)   | 0x0079       |     73 |              9 |
| [65535.6](#event-655356)   | 0x00C2       |    138 |             12 |
| [110](#event-110)          | 0x014C       |      1 |              1 |
| [65535.7](#event-655357)   | 0x014D       |     78 |              8 |
| [65535.8](#event-655358)   | 0x019B       |     61 |              7 |
| [65535.9](#event-655359)   | 0x01D8       |     70 |              8 |
| [65535.10](#event-6553510) | 0x021E       |    124 |             14 |
| [65535.11](#event-6553511) | 0x029A       |     71 |              7 |
| [65535.12](#event-6553512) | 0x02E1       |    124 |             14 |
| [65535.13](#event-6553513) | 0x035D       |    138 |             12 |
| [65535.14](#event-6553514) | 0x03E7       |     52 |              6 |
| [65535.15](#event-6553515) | 0x041B       |     10 |              2 |
| [65535.16](#event-6553516) | 0x0425       |     46 |              6 |
| [65535.17](#event-6553517) | 0x0453       |     46 |              6 |
| [65535.18](#event-6553518) | 0x0481       |     40 |              6 |
| [65535.19](#event-6553519) | 0x04A9       |     59 |              7 |
| [65535.20](#event-6553520) | 0x04E4       |     70 |              8 |
| [65535.21](#event-6553521) | 0x052A       |     10 |              2 |
| [65535.22](#event-6553522) | 0x0534       |     10 |              2 |

## DAT References (imed_data)

|   Index | Hex Value   |   Dec Value |
|---------|-------------|-------------|
|       0 | 0x0000      |           0 |
|       1 | 0x0078      |         120 |
|       2 | 0x001E      |          30 |
|       3 | 0x052F      |        1327 |
|       4 | 0x0080      |         128 |
|       5 | 0x000F      |          15 |
|       6 | 0x080E      |        2062 |
|       7 | 0x002D      |          45 |
|       8 | 0x000A      |          10 |
|       9 | 0x0002      |           2 |
|      10 | 0x0019      |          25 |
|      11 | 0x0003      |           3 |
|      12 | 0x0005      |           5 |
|      13 | 0x0014      |          20 |
|      14 | 0x0007      |           7 |
|      15 | 0x0531      |        1329 |
|      16 | 0x0004      |           4 |
|      17 | 0x0001      |           1 |
|      18 | 0x0909      |        2313 |
|      19 | 0x0527      |        1319 |
|      20 | 0x00B0      |         176 |
|      21 | 0x00F9      |         249 |
|      22 | 0x05AD      |        1453 |

## Events

### Event 65535

#### Metadata

| Field        | Value   |
|--------------|---------|
| Entrypoint   | 0x0000  |
| Data Size    | 1 bytes |
| Instructions | 1       |

```
      00 01 02 03 04 05 06 07  08 09 0A 0B 0C 0D 0E 0F
      -- -- -- -- -- -- -- --  -- -- -- -- -- -- -- --
0000: 00                                                .               
```

#### Opcodes

```
  0: 0x0000 [0x00] END_REQSTACK()
```

### Event 700

#### Metadata

| Field        | Value   |
|--------------|---------|
| Entrypoint   | 0x0001  |
| Data Size    | 1 bytes |
| Instructions | 1       |

```
      00 01 02 03 04 05 06 07  08 09 0A 0B 0C 0D 0E 0F
      -- -- -- -- -- -- -- --  -- -- -- -- -- -- -- --
0000:    00                                              .              
```

#### Opcodes

```
  0: 0x0001 [0x00] END_REQSTACK()
```

### Event 701

#### Metadata

| Field        | Value   |
|--------------|---------|
| Entrypoint   | 0x0002  |
| Data Size    | 1 bytes |
| Instructions | 1       |

```
      00 01 02 03 04 05 06 07  08 09 0A 0B 0C 0D 0E 0F
      -- -- -- -- -- -- -- --  -- -- -- -- -- -- -- --
0000:       00                                            .             
```

#### Opcodes

```
  0: 0x0002 [0x00] END_REQSTACK()
```

### Event 3

#### Metadata

| Field        | Value   |
|--------------|---------|
| Entrypoint   | 0x0003  |
| Data Size    | 1 bytes |
| Instructions | 1       |

```
      00 01 02 03 04 05 06 07  08 09 0A 0B 0C 0D 0E 0F
      -- -- -- -- -- -- -- --  -- -- -- -- -- -- -- --
0000:          00                                          .            
```

#### Opcodes

```
  0: 0x0003 [0x00] END_REQSTACK()
```

### Event 4

#### Metadata

| Field        | Value   |
|--------------|---------|
| Entrypoint   | 0x0004  |
| Data Size    | 1 bytes |
| Instructions | 1       |

```
      00 01 02 03 04 05 06 07  08 09 0A 0B 0C 0D 0E 0F
      -- -- -- -- -- -- -- --  -- -- -- -- -- -- -- --
0000:             00                                        .           
```

#### Opcodes

```
  0: 0x0004 [0x00] END_REQSTACK()
```

### Event 65535.1

#### Metadata

| Field        | Value    |
|--------------|----------|
| Entrypoint   | 0x0005   |
| Data Size    | 10 bytes |
| Instructions | 2        |

```
      00 01 02 03 04 05 06 07  08 09 0A 0B 0C 0D 0E 0F
      -- -- -- -- -- -- -- --  -- -- -- -- -- -- -- --
0000:                6C F1 22  06 01 00 80 01 80 00          l."....... 
```

#### Opcodes

```
  0: 0x0005 [0x6C] FADE_ENTITY_COLOR(entity_id=Machudiaux (ID: 17179377/0x010622F1), end_alpha=0*, fade_time=120*)
  1: 0x000E [0x00] END_REQSTACK()
```

### Event 65535.2

#### Metadata

| Field        | Value    |
|--------------|----------|
| Entrypoint   | 0x000F   |
| Data Size    | 18 bytes |
| Instructions | 4        |

```
      00 01 02 03 04 05 06 07  08 09 0A 0B 0C 0D 0E 0F
      -- -- -- -- -- -- -- --  -- -- -- -- -- -- -- --
0000:                                               27                 '
0010: 10 F3 22 06 01 0B 1C 02  80 27 10 F1 22 06 01 0C  .."......'.."...
0020: 00                                                .               
```

#### Opcodes

```
  0: 0x000F [0x27] REQ_SET(priority=0x10, entity_id=Nalkuku (ID: 17179379/0x010622F3), tag_num=0x0B)
  1: 0x0016 [0x1C] WAIT(30* ticks)
  2: 0x0019 [0x27] REQ_SET(priority=0x10, entity_id=Machudiaux (ID: 17179377/0x010622F1), tag_num=0x0C)
  3: 0x0020 [0x00] END_REQSTACK()
```

### Event 113

#### Metadata

| Field        | Value   |
|--------------|---------|
| Entrypoint   | 0x0021  |
| Data Size    | 1 bytes |
| Instructions | 1       |

```
      00 01 02 03 04 05 06 07  08 09 0A 0B 0C 0D 0E 0F
      -- -- -- -- -- -- -- --  -- -- -- -- -- -- -- --
0020:    00                                              .              
```

#### Opcodes

```
  0: 0x0021 [0x00] END_REQSTACK()
```

### Event 109

#### Metadata

| Field        | Value   |
|--------------|---------|
| Entrypoint   | 0x0022  |
| Data Size    | 1 bytes |
| Instructions | 1       |

```
      00 01 02 03 04 05 06 07  08 09 0A 0B 0C 0D 0E 0F
      -- -- -- -- -- -- -- --  -- -- -- -- -- -- -- --
0020:       00                                            .             
```

#### Opcodes

```
  0: 0x0022 [0x00] END_REQSTACK()
```

### Event 65535.3

#### Metadata

| Field        | Value    |
|--------------|----------|
| Entrypoint   | 0x0023   |
| Data Size    | 76 bytes |
| Instructions | 6        |

```
      00 01 02 03 04 05 06 07  08 09 0A 0B 0C 0D 0E 0F
      -- -- -- -- -- -- -- --  -- -- -- -- -- -- -- --
0020:          5B 03 80 06 23  06 01 06 23 06 01 69 72     [...#...#..ir
0030: 6F 30 5B 03 80 07 23 06  01 07 23 06 01 69 72 6F  o0[...#...#..iro
0040: 30 5B 03 80 08 23 06 01  08 23 06 01 69 72 6F 30  0[...#...#..iro0
0050: 5B 03 80 09 23 06 01 09  23 06 01 69 72 6F 30 5B  [...#...#..iro0[
0060: 03 80 C2 22 06 01 C2 22  06 01 69 72 6F 30 00     ..."..."..iro0. 
```

#### Opcodes

```
  0: 0x0023 [0x5B] LOAD_EXT_SCHEDULER: Load scheduler "iro0" with entities [01 (ID: 17179398/0x01062306), 01 (ID: 17179398/0x01062306)], work=1327*
  1: 0x0032 [0x5B] LOAD_EXT_SCHEDULER: Load scheduler "iro0" with entities [02 (ID: 17179399/0x01062307), 02 (ID: 17179399/0x01062307)], work=1327*
  2: 0x0041 [0x5B] LOAD_EXT_SCHEDULER: Load scheduler "iro0" with entities [03 (ID: 17179400/0x01062308), 03 (ID: 17179400/0x01062308)], work=1327*
  3: 0x0050 [0x5B] LOAD_EXT_SCHEDULER: Load scheduler "iro0" with entities [04 (ID: 17179401/0x01062309), 04 (ID: 17179401/0x01062309)], work=1327*
  4: 0x005F [0x5B] LOAD_EXT_SCHEDULER: Load scheduler "iro0" with entities [Mham Lahrih (ID: 17179330/0x010622C2), Mham Lahrih (ID: 17179330/0x010622C2)], work=1327*
  5: 0x006E [0x00] END_REQSTACK()
```

### Event 65535.4

#### Metadata

| Field        | Value    |
|--------------|----------|
| Entrypoint   | 0x006F   |
| Data Size    | 10 bytes |
| Instructions | 2        |

```
      00 01 02 03 04 05 06 07  08 09 0A 0B 0C 0D 0E 0F
      -- -- -- -- -- -- -- --  -- -- -- -- -- -- -- --
0060:                                               6C                 l
0070: 05 23 06 01 04 80 05 80  00                       .#.......       
```

#### Opcodes

```
  0: 0x006F [0x6C] FADE_ENTITY_COLOR(entity_id=Unnamed NPC (ID: 17179397/0x01062305), end_alpha=128*, fade_time=15*)
  1: 0x0078 [0x00] END_REQSTACK()
```

### Event 65535.5

#### Metadata

| Field        | Value    |
|--------------|----------|
| Entrypoint   | 0x0079   |
| Data Size    | 73 bytes |
| Instructions | 9        |

```
      00 01 02 03 04 05 06 07  08 09 0A 0B 0C 0D 0E 0F
      -- -- -- -- -- -- -- --  -- -- -- -- -- -- -- --
0070:                             1C 02 80 5B 06 80 03           ...[...
0080: 23 06 01 03 23 06 01 68  69 72 31 1C 07 80 5B 06  #...#..hir1...[.
0090: 80 04 23 06 01 04 23 06  01 68 69 72 31 1C 05 80  ..#...#..hir1...
00A0: 5B 06 80 0A 23 06 01 0A  23 06 01 68 69 72 31 1C  [...#...#..hir1.
00B0: 08 80 5B 06 80 0B 23 06  01 0B 23 06 01 68 69 72  ..[...#...#..hir
00C0: 31 00                                             1.              
```

#### Opcodes

```
  0: 0x0079 [0x1C] WAIT(30* ticks)
  1: 0x007C [0x5B] LOAD_EXT_SCHEDULER: Load scheduler "hir1" with entities [Naho Gwanboh (ID: 17179395/0x01062303), Naho Gwanboh (ID: 17179395/0x01062303)], work=2062*
  2: 0x008B [0x1C] WAIT(45* ticks)
  3: 0x008E [0x5B] LOAD_EXT_SCHEDULER: Load scheduler "hir1" with entities [Nzha Abaleenah (ID: 17179396/0x01062304), Nzha Abaleenah (ID: 17179396/0x01062304)], work=2062*
  4: 0x009D [0x1C] WAIT(15* ticks)
  5: 0x00A0 [0x5B] LOAD_EXT_SCHEDULER: Load scheduler "hir1" with entities [05 (ID: 17179402/0x0106230A), 05 (ID: 17179402/0x0106230A)], work=2062*
  6: 0x00AF [0x1C] WAIT(10* ticks)
  7: 0x00B2 [0x5B] LOAD_EXT_SCHEDULER: Load scheduler "hir1" with entities [06 (ID: 17179403/0x0106230B), 06 (ID: 17179403/0x0106230B)], work=2062*
  8: 0x00C1 [0x00] END_REQSTACK()
```

### Event 65535.6

#### Metadata

| Field        | Value     |
|--------------|-----------|
| Entrypoint   | 0x00C2    |
| Data Size    | 138 bytes |
| Instructions | 12        |

```
      00 01 02 03 04 05 06 07  08 09 0A 0B 0C 0D 0E 0F
      -- -- -- -- -- -- -- --  -- -- -- -- -- -- -- --
00C0:       5B 06 80 03 23 06  01 03 23 06 01 68 69 72    [...#...#..hir
00D0: 32 C5 09 80 03 23 06 01  03 23 06 01 73 63 30 30  2....#...#..sc00
00E0: 00 80 1C 0A 80 5B 06 80  0B 23 06 01 0B 23 06 01  .....[...#...#..
00F0: 68 69 72 32 C5 09 80 0B  23 06 01 0B 23 06 01 73  hir2....#...#..s
0100: 63 30 30 00 80 1C 0B 80  5B 06 80 0A 23 06 01 0A  c00.....[...#...
0110: 23 06 01 68 69 72 32 C5  09 80 0A 23 06 01 0A 23  #..hir2....#...#
0120: 06 01 73 63 30 30 00 80  1C 09 80 5B 06 80 04 23  ..sc00.....[...#
0130: 06 01 04 23 06 01 68 69  72 32 C5 09 80 04 23 06  ...#..hir2....#.
0140: 01 04 23 06 01 73 63 30  30 00 80 00              ..#..sc00...    
```

#### Opcodes

```
  0: 0x00C2 [0x5B] LOAD_EXT_SCHEDULER: Load scheduler "hir2" with entities [Naho Gwanboh (ID: 17179395/0x01062303), Naho Gwanboh (ID: 17179395/0x01062303)], work=2062*
  1: 0x00D1 [0xC5] LOAD_SCHEDULED_TASK_ALT3: Load scheduler 0x80003030 for entities [Naho Gwanboh (ID: 17179395/0x01062303), Naho Gwanboh (ID: 17179395/0x01062303)], work=2*, param=25459
  2: 0x00E2 [0x1C] WAIT(25* ticks)
  3: 0x00E5 [0x5B] LOAD_EXT_SCHEDULER: Load scheduler "hir2" with entities [06 (ID: 17179403/0x0106230B), 06 (ID: 17179403/0x0106230B)], work=2062*
  4: 0x00F4 [0xC5] LOAD_SCHEDULED_TASK_ALT3: Load scheduler 0x80003030 for entities [06 (ID: 17179403/0x0106230B), 06 (ID: 17179403/0x0106230B)], work=2*, param=25459
  5: 0x0105 [0x1C] WAIT(3* ticks)
  6: 0x0108 [0x5B] LOAD_EXT_SCHEDULER: Load scheduler "hir2" with entities [05 (ID: 17179402/0x0106230A), 05 (ID: 17179402/0x0106230A)], work=2062*
  7: 0x0117 [0xC5] LOAD_SCHEDULED_TASK_ALT3: Load scheduler 0x80003030 for entities [05 (ID: 17179402/0x0106230A), 05 (ID: 17179402/0x0106230A)], work=2*, param=25459
  8: 0x0128 [0x1C] WAIT(2* ticks)
  9: 0x012B [0x5B] LOAD_EXT_SCHEDULER: Load scheduler "hir2" with entities [Nzha Abaleenah (ID: 17179396/0x01062304), Nzha Abaleenah (ID: 17179396/0x01062304)], work=2062*
 10: 0x013A [0xC5] LOAD_SCHEDULED_TASK_ALT3: Load scheduler 0x80003030 for entities [Nzha Abaleenah (ID: 17179396/0x01062304), Nzha Abaleenah (ID: 17179396/0x01062304)], work=2*, param=25459
 11: 0x014B [0x00] END_REQSTACK()
```

### Event 110

#### Metadata

| Field        | Value   |
|--------------|---------|
| Entrypoint   | 0x014C  |
| Data Size    | 1 bytes |
| Instructions | 1       |

```
      00 01 02 03 04 05 06 07  08 09 0A 0B 0C 0D 0E 0F
      -- -- -- -- -- -- -- --  -- -- -- -- -- -- -- --
0140:                                      00                       .   
```

#### Opcodes

```
  0: 0x014C [0x00] END_REQSTACK()
```

### Event 65535.7

#### Metadata

| Field        | Value    |
|--------------|----------|
| Entrypoint   | 0x014D   |
| Data Size    | 78 bytes |
| Instructions | 8        |

```
      00 01 02 03 04 05 06 07  08 09 0A 0B 0C 0D 0E 0F
      -- -- -- -- -- -- -- --  -- -- -- -- -- -- -- --
0140:                                         C5 09 80               ...
0150: 19 23 06 01 19 23 06 01  73 74 30 30 00 80 1C 05  .#...#..st00....
0160: 80 C5 09 80 16 23 06 01  16 23 06 01 73 74 30 30  .....#...#..st00
0170: 00 80 1C 0B 80 C5 09 80  18 23 06 01 18 23 06 01  .........#...#..
0180: 73 74 30 31 00 80 1C 0C  80 C5 09 80 17 23 06 01  st01.........#..
0190: 17 23 06 01 73 74 30 30  00 80 00                 .#..st00...     
```

#### Opcodes

```
  0: 0x014D [0xC5] LOAD_SCHEDULED_TASK_ALT3: Load scheduler 0x80003030 for entities [Danmaku04 (ID: 17179417/0x01062319), Danmaku04 (ID: 17179417/0x01062319)], work=2*, param=29811
  1: 0x015E [0x1C] WAIT(15* ticks)
  2: 0x0161 [0xC5] LOAD_SCHEDULED_TASK_ALT3: Load scheduler 0x80003030 for entities [Danmaku01 (ID: 17179414/0x01062316), Danmaku01 (ID: 17179414/0x01062316)], work=2*, param=29811
  3: 0x0172 [0x1C] WAIT(3* ticks)
  4: 0x0175 [0xC5] LOAD_SCHEDULED_TASK_ALT3: Load scheduler 0x80003130 for entities [Danmaku03 (ID: 17179416/0x01062318), Danmaku03 (ID: 17179416/0x01062318)], work=2*, param=29811
  5: 0x0186 [0x1C] WAIT(5* ticks)
  6: 0x0189 [0xC5] LOAD_SCHEDULED_TASK_ALT3: Load scheduler 0x80003030 for entities [Danmaku02 (ID: 17179415/0x01062317), Danmaku02 (ID: 17179415/0x01062317)], work=2*, param=29811
  7: 0x019A [0x00] END_REQSTACK()
```

### Event 65535.8

#### Metadata

| Field        | Value    |
|--------------|----------|
| Entrypoint   | 0x019B   |
| Data Size    | 61 bytes |
| Instructions | 7        |

```
      00 01 02 03 04 05 06 07  08 09 0A 0B 0C 0D 0E 0F
      -- -- -- -- -- -- -- --  -- -- -- -- -- -- -- --
0190:                                   1C 0C 80 C5 09             .....
01A0: 80 16 23 06 01 16 23 06  01 73 74 30 30 00 80 1C  ..#...#..st00...
01B0: 09 80 C5 09 80 18 23 06  01 18 23 06 01 73 74 30  ......#...#..st0
01C0: 30 00 80 1C 0D 80 C5 09  80 17 23 06 01 17 23 06  0.........#...#.
01D0: 01 73 74 30 31 00 80 00                           .st01...        
```

#### Opcodes

```
  0: 0x019B [0x1C] WAIT(5* ticks)
  1: 0x019E [0xC5] LOAD_SCHEDULED_TASK_ALT3: Load scheduler 0x80003030 for entities [Danmaku01 (ID: 17179414/0x01062316), Danmaku01 (ID: 17179414/0x01062316)], work=2*, param=29811
  2: 0x01AF [0x1C] WAIT(2* ticks)
  3: 0x01B2 [0xC5] LOAD_SCHEDULED_TASK_ALT3: Load scheduler 0x80003030 for entities [Danmaku03 (ID: 17179416/0x01062318), Danmaku03 (ID: 17179416/0x01062318)], work=2*, param=29811
  4: 0x01C3 [0x1C] WAIT(20* ticks)
  5: 0x01C6 [0xC5] LOAD_SCHEDULED_TASK_ALT3: Load scheduler 0x80003130 for entities [Danmaku02 (ID: 17179415/0x01062317), Danmaku02 (ID: 17179415/0x01062317)], work=2*, param=29811
  6: 0x01D7 [0x00] END_REQSTACK()
```

### Event 65535.9

#### Metadata

| Field        | Value    |
|--------------|----------|
| Entrypoint   | 0x01D8   |
| Data Size    | 70 bytes |
| Instructions | 8        |

```
      00 01 02 03 04 05 06 07  08 09 0A 0B 0C 0D 0E 0F
      -- -- -- -- -- -- -- --  -- -- -- -- -- -- -- --
01D0:                          5B 06 80 04 23 06 01 04          [...#...
01E0: 23 06 01 68 69 72 33 1C  0E 80 5B 06 80 0A 23 06  #..hir3...[...#.
01F0: 01 0A 23 06 01 68 69 72  33 1C 08 80 5B 06 80 0B  ..#..hir3...[...
0200: 23 06 01 0B 23 06 01 68  69 72 33 1C 0C 80 5B 06  #...#..hir3...[.
0210: 80 03 23 06 01 03 23 06  01 68 69 72 33 00        ..#...#..hir3.  
```

#### Opcodes

```
  0: 0x01D8 [0x5B] LOAD_EXT_SCHEDULER: Load scheduler "hir3" with entities [Nzha Abaleenah (ID: 17179396/0x01062304), Nzha Abaleenah (ID: 17179396/0x01062304)], work=2062*
  1: 0x01E7 [0x1C] WAIT(7* ticks)
  2: 0x01EA [0x5B] LOAD_EXT_SCHEDULER: Load scheduler "hir3" with entities [05 (ID: 17179402/0x0106230A), 05 (ID: 17179402/0x0106230A)], work=2062*
  3: 0x01F9 [0x1C] WAIT(10* ticks)
  4: 0x01FC [0x5B] LOAD_EXT_SCHEDULER: Load scheduler "hir3" with entities [06 (ID: 17179403/0x0106230B), 06 (ID: 17179403/0x0106230B)], work=2062*
  5: 0x020B [0x1C] WAIT(5* ticks)
  6: 0x020E [0x5B] LOAD_EXT_SCHEDULER: Load scheduler "hir3" with entities [Naho Gwanboh (ID: 17179395/0x01062303), Naho Gwanboh (ID: 17179395/0x01062303)], work=2062*
  7: 0x021D [0x00] END_REQSTACK()
```

### Event 65535.10

#### Metadata

| Field        | Value     |
|--------------|-----------|
| Entrypoint   | 0x021E    |
| Data Size    | 124 bytes |
| Instructions | 14        |

```
      00 01 02 03 04 05 06 07  08 09 0A 0B 0C 0D 0E 0F
      -- -- -- -- -- -- -- --  -- -- -- -- -- -- -- --
0210:                                            5B 0F                [.
0220: 80 00 23 06 01 00 23 06  01 6C 62 74 30 1C 10 80  ..#...#..lbt0...
0230: 5B 0F 80 F8 22 06 01 F8  22 06 01 6C 62 74 30 1C  [..."..."..lbt0.
0240: 11 80 5B 0F 80 F9 22 06  01 F9 22 06 01 6C 62 74  ..[..."..."..lbt
0250: 30 1C 0B 80 5B 0F 80 06  23 06 01 06 23 06 01 6C  0...[...#...#..l
0260: 62 74 30 1C 09 80 5B 0F  80 07 23 06 01 07 23 06  bt0...[...#...#.
0270: 01 6C 62 74 30 1C 11 80  5B 0F 80 08 23 06 01 08  .lbt0...[...#...
0280: 23 06 01 6C 62 74 30 1C  0B 80 5B 0F 80 09 23 06  #..lbt0...[...#.
0290: 01 09 23 06 01 6C 62 74  30 00                    ..#..lbt0.      
```

#### Opcodes

```
  0: 0x021E [0x5B] LOAD_EXT_SCHEDULER: Load scheduler "lbt0" with entities [Romaa Mihgo (ID: 17179392/0x01062300), Romaa Mihgo (ID: 17179392/0x01062300)], work=1329*
  1: 0x022D [0x1C] WAIT(4* ticks)
  2: 0x0230 [0x5B] LOAD_EXT_SCHEDULER: Load scheduler "lbt0" with entities [Tihl Midurhi (ID: 17179384/0x010622F8), Tihl Midurhi (ID: 17179384/0x010622F8)], work=1329*
  3: 0x023F [0x1C] WAIT(1* ticks)
  4: 0x0242 [0x5B] LOAD_EXT_SCHEDULER: Load scheduler "lbt0" with entities [Mihl Pakorhma (ID: 17179385/0x010622F9), Mihl Pakorhma (ID: 17179385/0x010622F9)], work=1329*
  5: 0x0251 [0x1C] WAIT(3* ticks)
  6: 0x0254 [0x5B] LOAD_EXT_SCHEDULER: Load scheduler "lbt0" with entities [01 (ID: 17179398/0x01062306), 01 (ID: 17179398/0x01062306)], work=1329*
  7: 0x0263 [0x1C] WAIT(2* ticks)
  8: 0x0266 [0x5B] LOAD_EXT_SCHEDULER: Load scheduler "lbt0" with entities [02 (ID: 17179399/0x01062307), 02 (ID: 17179399/0x01062307)], work=1329*
  9: 0x0275 [0x1C] WAIT(1* ticks)
 10: 0x0278 [0x5B] LOAD_EXT_SCHEDULER: Load scheduler "lbt0" with entities [03 (ID: 17179400/0x01062308), 03 (ID: 17179400/0x01062308)], work=1329*
 11: 0x0287 [0x1C] WAIT(3* ticks)
 12: 0x028A [0x5B] LOAD_EXT_SCHEDULER: Load scheduler "lbt0" with entities [04 (ID: 17179401/0x01062309), 04 (ID: 17179401/0x01062309)], work=1329*
 13: 0x0299 [0x00] END_REQSTACK()
```

### Event 65535.11

#### Metadata

| Field        | Value    |
|--------------|----------|
| Entrypoint   | 0x029A   |
| Data Size    | 71 bytes |
| Instructions | 7        |

```
      00 01 02 03 04 05 06 07  08 09 0A 0B 0C 0D 0E 0F
      -- -- -- -- -- -- -- --  -- -- -- -- -- -- -- --
0290:                                1C 02 80 5B 06 80            ...[..
02A0: 04 23 06 01 04 23 06 01  68 69 72 32 C5 09 80 04  .#...#..hir2....
02B0: 23 06 01 04 23 06 01 73  63 30 30 00 80 1C 05 80  #...#..sc00.....
02C0: 5B 06 80 0A 23 06 01 0A  23 06 01 68 69 72 32 C5  [...#...#..hir2.
02D0: 09 80 0A 23 06 01 0A 23  06 01 73 63 30 30 00 80  ...#...#..sc00..
02E0: 00                                                .               
```

#### Opcodes

```
  0: 0x029A [0x1C] WAIT(30* ticks)
  1: 0x029D [0x5B] LOAD_EXT_SCHEDULER: Load scheduler "hir2" with entities [Nzha Abaleenah (ID: 17179396/0x01062304), Nzha Abaleenah (ID: 17179396/0x01062304)], work=2062*
  2: 0x02AC [0xC5] LOAD_SCHEDULED_TASK_ALT3: Load scheduler 0x80003030 for entities [Nzha Abaleenah (ID: 17179396/0x01062304), Nzha Abaleenah (ID: 17179396/0x01062304)], work=2*, param=25459
  3: 0x02BD [0x1C] WAIT(15* ticks)
  4: 0x02C0 [0x5B] LOAD_EXT_SCHEDULER: Load scheduler "hir2" with entities [05 (ID: 17179402/0x0106230A), 05 (ID: 17179402/0x0106230A)], work=2062*
  5: 0x02CF [0xC5] LOAD_SCHEDULED_TASK_ALT3: Load scheduler 0x80003030 for entities [05 (ID: 17179402/0x0106230A), 05 (ID: 17179402/0x0106230A)], work=2*, param=25459
  6: 0x02E0 [0x00] END_REQSTACK()
```

### Event 65535.12

#### Metadata

| Field        | Value     |
|--------------|-----------|
| Entrypoint   | 0x02E1    |
| Data Size    | 124 bytes |
| Instructions | 14        |

```
      00 01 02 03 04 05 06 07  08 09 0A 0B 0C 0D 0E 0F
      -- -- -- -- -- -- -- --  -- -- -- -- -- -- -- --
02E0:    5B 0F 80 00 23 06 01  00 23 06 01 6C 62 74 30   [...#...#..lbt0
02F0: 1C 0B 80 5B 0F 80 F8 22  06 01 F8 22 06 01 6C 62  ...[..."..."..lb
0300: 74 30 1C 09 80 5B 0F 80  F9 22 06 01 F9 22 06 01  t0...[..."..."..
0310: 6C 62 74 30 1C 11 80 5B  0F 80 06 23 06 01 06 23  lbt0...[...#...#
0320: 06 01 6C 62 74 30 1C 10  80 5B 0F 80 07 23 06 01  ..lbt0...[...#..
0330: 07 23 06 01 6C 62 74 30  1C 09 80 5B 0F 80 08 23  .#..lbt0...[...#
0340: 06 01 08 23 06 01 6C 62  74 30 1C 11 80 5B 0F 80  ...#..lbt0...[..
0350: 09 23 06 01 09 23 06 01  6C 62 74 30 00           .#...#..lbt0.   
```

#### Opcodes

```
  0: 0x02E1 [0x5B] LOAD_EXT_SCHEDULER: Load scheduler "lbt0" with entities [Romaa Mihgo (ID: 17179392/0x01062300), Romaa Mihgo (ID: 17179392/0x01062300)], work=1329*
  1: 0x02F0 [0x1C] WAIT(3* ticks)
  2: 0x02F3 [0x5B] LOAD_EXT_SCHEDULER: Load scheduler "lbt0" with entities [Tihl Midurhi (ID: 17179384/0x010622F8), Tihl Midurhi (ID: 17179384/0x010622F8)], work=1329*
  3: 0x0302 [0x1C] WAIT(2* ticks)
  4: 0x0305 [0x5B] LOAD_EXT_SCHEDULER: Load scheduler "lbt0" with entities [Mihl Pakorhma (ID: 17179385/0x010622F9), Mihl Pakorhma (ID: 17179385/0x010622F9)], work=1329*
  5: 0x0314 [0x1C] WAIT(1* ticks)
  6: 0x0317 [0x5B] LOAD_EXT_SCHEDULER: Load scheduler "lbt0" with entities [01 (ID: 17179398/0x01062306), 01 (ID: 17179398/0x01062306)], work=1329*
  7: 0x0326 [0x1C] WAIT(4* ticks)
  8: 0x0329 [0x5B] LOAD_EXT_SCHEDULER: Load scheduler "lbt0" with entities [02 (ID: 17179399/0x01062307), 02 (ID: 17179399/0x01062307)], work=1329*
  9: 0x0338 [0x1C] WAIT(2* ticks)
 10: 0x033B [0x5B] LOAD_EXT_SCHEDULER: Load scheduler "lbt0" with entities [03 (ID: 17179400/0x01062308), 03 (ID: 17179400/0x01062308)], work=1329*
 11: 0x034A [0x1C] WAIT(1* ticks)
 12: 0x034D [0x5B] LOAD_EXT_SCHEDULER: Load scheduler "lbt0" with entities [04 (ID: 17179401/0x01062309), 04 (ID: 17179401/0x01062309)], work=1329*
 13: 0x035C [0x00] END_REQSTACK()
```

### Event 65535.13

#### Metadata

| Field        | Value     |
|--------------|-----------|
| Entrypoint   | 0x035D    |
| Data Size    | 138 bytes |
| Instructions | 12        |

```
      00 01 02 03 04 05 06 07  08 09 0A 0B 0C 0D 0E 0F
      -- -- -- -- -- -- -- --  -- -- -- -- -- -- -- --
0350:                                         5B 12 80               [..
0360: 03 23 06 01 03 23 06 01  67 75 6E 31 C5 09 80 03  .#...#..gun1....
0370: 23 06 01 03 23 06 01 73  63 30 31 00 80 1C 02 80  #...#..sc01.....
0380: 5B 06 80 04 23 06 01 04  23 06 01 68 69 72 32 C5  [...#...#..hir2.
0390: 09 80 04 23 06 01 04 23  06 01 73 63 30 30 00 80  ...#...#..sc00..
03A0: 1C 05 80 5B 06 80 0A 23  06 01 0A 23 06 01 68 69  ...[...#...#..hi
03B0: 72 32 C5 09 80 0A 23 06  01 0A 23 06 01 73 63 30  r2....#...#..sc0
03C0: 30 00 80 1C 08 80 5B 06  80 0B 23 06 01 0B 23 06  0.....[...#...#.
03D0: 01 68 69 72 32 C5 09 80  0B 23 06 01 0B 23 06 01  .hir2....#...#..
03E0: 73 63 30 30 00 80 00                              sc00...         
```

#### Opcodes

```
  0: 0x035D [0x5B] LOAD_EXT_SCHEDULER: Load scheduler "gun1" with entities [Naho Gwanboh (ID: 17179395/0x01062303), Naho Gwanboh (ID: 17179395/0x01062303)], work=2313*
  1: 0x036C [0xC5] LOAD_SCHEDULED_TASK_ALT3: Load scheduler 0x80003130 for entities [Naho Gwanboh (ID: 17179395/0x01062303), Naho Gwanboh (ID: 17179395/0x01062303)], work=2*, param=25459
  2: 0x037D [0x1C] WAIT(30* ticks)
  3: 0x0380 [0x5B] LOAD_EXT_SCHEDULER: Load scheduler "hir2" with entities [Nzha Abaleenah (ID: 17179396/0x01062304), Nzha Abaleenah (ID: 17179396/0x01062304)], work=2062*
  4: 0x038F [0xC5] LOAD_SCHEDULED_TASK_ALT3: Load scheduler 0x80003030 for entities [Nzha Abaleenah (ID: 17179396/0x01062304), Nzha Abaleenah (ID: 17179396/0x01062304)], work=2*, param=25459
  5: 0x03A0 [0x1C] WAIT(15* ticks)
  6: 0x03A3 [0x5B] LOAD_EXT_SCHEDULER: Load scheduler "hir2" with entities [05 (ID: 17179402/0x0106230A), 05 (ID: 17179402/0x0106230A)], work=2062*
  7: 0x03B2 [0xC5] LOAD_SCHEDULED_TASK_ALT3: Load scheduler 0x80003030 for entities [05 (ID: 17179402/0x0106230A), 05 (ID: 17179402/0x0106230A)], work=2*, param=25459
  8: 0x03C3 [0x1C] WAIT(10* ticks)
  9: 0x03C6 [0x5B] LOAD_EXT_SCHEDULER: Load scheduler "hir2" with entities [06 (ID: 17179403/0x0106230B), 06 (ID: 17179403/0x0106230B)], work=2062*
 10: 0x03D5 [0xC5] LOAD_SCHEDULED_TASK_ALT3: Load scheduler 0x80003030 for entities [06 (ID: 17179403/0x0106230B), 06 (ID: 17179403/0x0106230B)], work=2*, param=25459
 11: 0x03E6 [0x00] END_REQSTACK()
```

### Event 65535.14

#### Metadata

| Field        | Value    |
|--------------|----------|
| Entrypoint   | 0x03E7   |
| Data Size    | 52 bytes |
| Instructions | 6        |

```
      00 01 02 03 04 05 06 07  08 09 0A 0B 0C 0D 0E 0F
      -- -- -- -- -- -- -- --  -- -- -- -- -- -- -- --
03E0:                      5B  13 80 0C 23 06 01 0C 23         [...#...#
03F0: 06 01 67 72 64 30 1C 09  80 5B 13 80 10 23 06 01  ..grd0...[...#..
0400: 10 23 06 01 67 72 64 30  1C 0B 80 5B 13 80 0F 23  .#..grd0...[...#
0410: 06 01 0F 23 06 01 67 72  64 30 00                 ...#..grd0.     
```

#### Opcodes

```
  0: 0x03E7 [0x5B] LOAD_EXT_SCHEDULER: Load scheduler "grd0" with entities [kame01 (ID: 17179404/0x0106230C), kame01 (ID: 17179404/0x0106230C)], work=1319*
  1: 0x03F6 [0x1C] WAIT(2* ticks)
  2: 0x03F9 [0x5B] LOAD_EXT_SCHEDULER: Load scheduler "grd0" with entities [kame05 (ID: 17179408/0x01062310), kame05 (ID: 17179408/0x01062310)], work=1319*
  3: 0x0408 [0x1C] WAIT(3* ticks)
  4: 0x040B [0x5B] LOAD_EXT_SCHEDULER: Load scheduler "grd0" with entities [kame04 (ID: 17179407/0x0106230F), kame04 (ID: 17179407/0x0106230F)], work=1319*
  5: 0x041A [0x00] END_REQSTACK()
```

### Event 65535.15

#### Metadata

| Field        | Value    |
|--------------|----------|
| Entrypoint   | 0x041B   |
| Data Size    | 10 bytes |
| Instructions | 2        |

```
      00 01 02 03 04 05 06 07  08 09 0A 0B 0C 0D 0E 0F
      -- -- -- -- -- -- -- --  -- -- -- -- -- -- -- --
0410:                                   6C 15 23 06 01             l.#..
0420: 04 80 11 80 00                                    .....           
```

#### Opcodes

```
  0: 0x041B [0x6C] FADE_ENTITY_COLOR(entity_id=Unnamed NPC (ID: 17179413/0x01062315), end_alpha=128*, fade_time=1*)
  1: 0x0424 [0x00] END_REQSTACK()
```

### Event 65535.16

#### Metadata

| Field        | Value    |
|--------------|----------|
| Entrypoint   | 0x0425   |
| Data Size    | 46 bytes |
| Instructions | 6        |

```
      00 01 02 03 04 05 06 07  08 09 0A 0B 0C 0D 0E 0F
      -- -- -- -- -- -- -- --  -- -- -- -- -- -- -- --
0420:                2C 06 23  06 01 06 23 06 01 63 61       ,.#...#..ca
0430: 62 6B 1C 05 80 2C 08 23  06 01 08 23 06 01 63 61  bk...,.#...#..ca
0440: 62 6B 1C 05 80 2C 07 23  06 01 07 23 06 01 63 61  bk...,.#...#..ca
0450: 62 6B 00                                          bk.             
```

#### Opcodes

```
  0: 0x0425 [0x2C] CREATE_SCHEDULER_TASK: Create scheduler "cabk" with entities [01 (ID: 17179398/0x01062306), 01 (ID: 17179398/0x01062306)]
  1: 0x0432 [0x1C] WAIT(15* ticks)
  2: 0x0435 [0x2C] CREATE_SCHEDULER_TASK: Create scheduler "cabk" with entities [03 (ID: 17179400/0x01062308), 03 (ID: 17179400/0x01062308)]
  3: 0x0442 [0x1C] WAIT(15* ticks)
  4: 0x0445 [0x2C] CREATE_SCHEDULER_TASK: Create scheduler "cabk" with entities [02 (ID: 17179399/0x01062307), 02 (ID: 17179399/0x01062307)]
  5: 0x0452 [0x00] END_REQSTACK()
```

### Event 65535.17

#### Metadata

| Field        | Value    |
|--------------|----------|
| Entrypoint   | 0x0453   |
| Data Size    | 46 bytes |
| Instructions | 6        |

```
      00 01 02 03 04 05 06 07  08 09 0A 0B 0C 0D 0E 0F
      -- -- -- -- -- -- -- --  -- -- -- -- -- -- -- --
0450:          2C 06 23 06 01  06 23 06 01 73 68 62 6B     ,.#...#..shbk
0460: 1C 05 80 2C 08 23 06 01  08 23 06 01 73 68 62 6B  ...,.#...#..shbk
0470: 1C 05 80 2C 07 23 06 01  07 23 06 01 73 68 62 6B  ...,.#...#..shbk
0480: 00                                                .               
```

#### Opcodes

```
  0: 0x0453 [0x2C] CREATE_SCHEDULER_TASK: Create scheduler "shbk" with entities [01 (ID: 17179398/0x01062306), 01 (ID: 17179398/0x01062306)]
  1: 0x0460 [0x1C] WAIT(15* ticks)
  2: 0x0463 [0x2C] CREATE_SCHEDULER_TASK: Create scheduler "shbk" with entities [03 (ID: 17179400/0x01062308), 03 (ID: 17179400/0x01062308)]
  3: 0x0470 [0x1C] WAIT(15* ticks)
  4: 0x0473 [0x2C] CREATE_SCHEDULER_TASK: Create scheduler "shbk" with entities [02 (ID: 17179399/0x01062307), 02 (ID: 17179399/0x01062307)]
  5: 0x0480 [0x00] END_REQSTACK()
```

### Event 65535.18

#### Metadata

| Field        | Value    |
|--------------|----------|
| Entrypoint   | 0x0481   |
| Data Size    | 40 bytes |
| Instructions | 6        |

```
      00 01 02 03 04 05 06 07  08 09 0A 0B 0C 0D 0E 0F
      -- -- -- -- -- -- -- --  -- -- -- -- -- -- -- --
0480:    73 14 80 06 23 06 01  16 23 06 01 1C 05 80 73   s...#...#.....s
0490: 14 80 08 23 06 01 17 23  06 01 1C 05 80 73 14 80  ...#...#.....s..
04A0: 07 23 06 01 18 23 06 01  00                       .#...#...       
```

#### Opcodes

```
  0: 0x0481 [0x73] 01 (ID: 17179398/0x01062306) casts magic 176* on Danmaku01 (ID: 17179414/0x01062316)
  1: 0x048C [0x1C] WAIT(15* ticks)
  2: 0x048F [0x73] 03 (ID: 17179400/0x01062308) casts magic 176* on Danmaku02 (ID: 17179415/0x01062317)
  3: 0x049A [0x1C] WAIT(15* ticks)
  4: 0x049D [0x73] 02 (ID: 17179399/0x01062307) casts magic 176* on Danmaku03 (ID: 17179416/0x01062318)
  5: 0x04A8 [0x00] END_REQSTACK()
```

### Event 65535.19

#### Metadata

| Field        | Value    |
|--------------|----------|
| Entrypoint   | 0x04A9   |
| Data Size    | 59 bytes |
| Instructions | 7        |

```
      00 01 02 03 04 05 06 07  08 09 0A 0B 0C 0D 0E 0F
      -- -- -- -- -- -- -- --  -- -- -- -- -- -- -- --
04A0:                             1C 01 80 BB 15 80 13           .......
04B0: 23 06 01 13 23 06 01 73  30 30 31 00 80 1C 02 80  #...#..s001.....
04C0: 5B 16 80 11 23 06 01 11  23 06 01 64 72 61 32 1C  [...#...#..dra2.
04D0: 07 80 BB 15 80 12 23 06  01 12 23 06 01 73 30 30  ......#...#..s00
04E0: 30 00 80 00                                       0...            
```

#### Opcodes

```
  0: 0x04A9 [0x1C] WAIT(120* ticks)
  1: 0x04AC [0xBB] LOAD_EVENT_SCHEDULER_ALT: Load scheduler "s001" with entities [gian03 (ID: 17179411/0x01062313), gian03 (ID: 17179411/0x01062313)], work=[249*, 0*]
  2: 0x04BD [0x1C] WAIT(30* ticks)
  3: 0x04C0 [0x5B] LOAD_EXT_SCHEDULER: Load scheduler "dra2" with entities [gian01 (ID: 17179409/0x01062311), gian01 (ID: 17179409/0x01062311)], work=1453*
  4: 0x04CF [0x1C] WAIT(45* ticks)
  5: 0x04D2 [0xBB] LOAD_EVENT_SCHEDULER_ALT: Load scheduler "s000" with entities [gian02 (ID: 17179410/0x01062312), gian02 (ID: 17179410/0x01062312)], work=[249*, 0*]
  6: 0x04E3 [0x00] END_REQSTACK()
```

### Event 65535.20

#### Metadata

| Field        | Value    |
|--------------|----------|
| Entrypoint   | 0x04E4   |
| Data Size    | 70 bytes |
| Instructions | 8        |

```
      00 01 02 03 04 05 06 07  08 09 0A 0B 0C 0D 0E 0F
      -- -- -- -- -- -- -- --  -- -- -- -- -- -- -- --
04E0:             5B 0F 80 06  23 06 01 06 23 06 01 6C      [...#...#..l
04F0: 62 74 30 1C 09 80 5B 0F  80 07 23 06 01 07 23 06  bt0...[...#...#.
0500: 01 6C 62 74 30 1C 11 80  5B 0F 80 08 23 06 01 08  .lbt0...[...#...
0510: 23 06 01 6C 62 74 30 1C  0B 80 5B 0F 80 09 23 06  #..lbt0...[...#.
0520: 01 09 23 06 01 6C 62 74  30 00                    ..#..lbt0.      
```

#### Opcodes

```
  0: 0x04E4 [0x5B] LOAD_EXT_SCHEDULER: Load scheduler "lbt0" with entities [01 (ID: 17179398/0x01062306), 01 (ID: 17179398/0x01062306)], work=1329*
  1: 0x04F3 [0x1C] WAIT(2* ticks)
  2: 0x04F6 [0x5B] LOAD_EXT_SCHEDULER: Load scheduler "lbt0" with entities [02 (ID: 17179399/0x01062307), 02 (ID: 17179399/0x01062307)], work=1329*
  3: 0x0505 [0x1C] WAIT(1* ticks)
  4: 0x0508 [0x5B] LOAD_EXT_SCHEDULER: Load scheduler "lbt0" with entities [03 (ID: 17179400/0x01062308), 03 (ID: 17179400/0x01062308)], work=1329*
  5: 0x0517 [0x1C] WAIT(3* ticks)
  6: 0x051A [0x5B] LOAD_EXT_SCHEDULER: Load scheduler "lbt0" with entities [04 (ID: 17179401/0x01062309), 04 (ID: 17179401/0x01062309)], work=1329*
  7: 0x0529 [0x00] END_REQSTACK()
```

### Event 65535.21

#### Metadata

| Field        | Value    |
|--------------|----------|
| Entrypoint   | 0x052A   |
| Data Size    | 10 bytes |
| Instructions | 2        |

```
      00 01 02 03 04 05 06 07  08 09 0A 0B 0C 0D 0E 0F
      -- -- -- -- -- -- -- --  -- -- -- -- -- -- -- --
0520:                                6C 03 23 06 01 04            l.#...
0530: 80 11 80 00                                       ....            
```

#### Opcodes

```
  0: 0x052A [0x6C] FADE_ENTITY_COLOR(entity_id=Naho Gwanboh (ID: 17179395/0x01062303), end_alpha=128*, fade_time=1*)
  1: 0x0533 [0x00] END_REQSTACK()
```

### Event 65535.22

#### Metadata

| Field        | Value    |
|--------------|----------|
| Entrypoint   | 0x0534   |
| Data Size    | 10 bytes |
| Instructions | 2        |

```
      00 01 02 03 04 05 06 07  08 09 0A 0B 0C 0D 0E 0F
      -- -- -- -- -- -- -- --  -- -- -- -- -- -- -- --
0530:             6C 05 23 06  01 04 80 05 80 00            l.#.......  
```

#### Opcodes

```
  0: 0x0534 [0x6C] FADE_ENTITY_COLOR(entity_id=Unnamed NPC (ID: 17179397/0x01062305), end_alpha=128*, fade_time=15*)
  1: 0x053D [0x00] END_REQSTACK()
```
