# 17179455

## Common Data

| Field            | Value                             |
|------------------|-----------------------------------|
| Zone             | Sauromugue Champaign [S] (ID: 98) |
| Block Size       | 124 bytes                         |
| Total Events     | 4                                 |
| References Count | 10                                |

## List of Events

| Event ID                 | Entrypoint   |   Size |   Instructions |
|--------------------------|--------------|--------|----------------|
| [65535](#event-65535)    | 0x0000       |      1 |              1 |
| [5](#event-5)            | 0x0001       |      1 |              1 |
| [65535.1](#event-655351) | 0x0002       |     25 |              3 |
| [65535.2](#event-655352) | 0x001B       |     25 |              3 |

## DAT References (imed_data)

|   Index | Hex Value   |   Dec Value |
|---------|-------------|-------------|
|       0 | 0x0007      |           7 |
|       1 | 0x0002      |           2 |
|       2 | 0x000E      |          14 |
|       3 | 0x0000      |           0 |
|       4 | 0x002E      |          46 |
|       5 | 0x0001      |           1 |
|       6 | 0x000C      |          12 |
|       7 | 0x005E      |          94 |
|       8 | 0x0032      |          50 |
|       9 | 0x0106      |         262 |

## Events

### Event 65535

#### Metadata

| Field        | Value   |
|--------------|---------|
| Entrypoint   | 0x0000  |
| Data Size    | 1 bytes |
| Instructions | 1       |

```
      00 01 02 03 04 05 06 07  08 09 0A 0B 0C 0D 0E 0F
      -- -- -- -- -- -- -- --  -- -- -- -- -- -- -- --
0000: 00                                                .               
```

#### Opcodes

```
  0: 0x0000 [0x00] END_REQSTACK()
```

### Event 5

#### Metadata

| Field        | Value   |
|--------------|---------|
| Entrypoint   | 0x0001  |
| Data Size    | 1 bytes |
| Instructions | 1       |

```
      00 01 02 03 04 05 06 07  08 09 0A 0B 0C 0D 0E 0F
      -- -- -- -- -- -- -- --  -- -- -- -- -- -- -- --
0000:    00                                              .              
```

#### Opcodes

```
  0: 0x0001 [0x00] END_REQSTACK()
```

### Event 65535.1

#### Metadata

| Field        | Value    |
|--------------|----------|
| Entrypoint   | 0x0002   |
| Data Size    | 25 bytes |
| Instructions | 3        |

```
      00 01 02 03 04 05 06 07  08 09 0A 0B 0C 0D 0E 0F
      -- -- -- -- -- -- -- --  -- -- -- -- -- -- -- --
0000:       B6 0B 00 80 01 80  02 80 02 80 02 80 02 80    ..............
0010: 02 80 03 80 03 80 B6 0A  04 80 00                 ...........     
```

#### Opcodes

```
  0: 0x0002 [0xB6] ENTITY_APPEARANCE_HANDLER(case=Full entity look, race=7*, hair=2*, head=14*, body=14*, hands=14*, legs=14*, feet=14*, main=0*, sub=0*)
  1: 0x0016 [0xB6] ENTITY_APPEARANCE_HANDLER(case=Ranged, value=46*)
  2: 0x001A [0x00] END_REQSTACK()
```

### Event 65535.2

#### Metadata

| Field        | Value    |
|--------------|----------|
| Entrypoint   | 0x001B   |
| Data Size    | 25 bytes |
| Instructions | 3        |

```
      00 01 02 03 04 05 06 07  08 09 0A 0B 0C 0D 0E 0F
      -- -- -- -- -- -- -- --  -- -- -- -- -- -- -- --
0010:                                   B6 0B 05 80 06             .....
0020: 80 03 80 07 80 07 80 08  80 08 80 09 80 03 80 B6  ................
0030: 0A 03 80 00                                       ....            
```

#### Opcodes

```
  0: 0x001B [0xB6] ENTITY_APPEARANCE_HANDLER(case=Full entity look, race=1*, hair=12*, head=0*, body=94*, hands=94*, legs=50*, feet=50*, main=262*, sub=0*)
  1: 0x002F [0xB6] ENTITY_APPEARANCE_HANDLER(case=Ranged, value=0*)
  2: 0x0033 [0x00] END_REQSTACK()
```
