# 17179462 - Ragelise

## Common Data

| Field            | Value                             |
|------------------|-----------------------------------|
| Zone             | Sauromugue Champaign [S] (ID: 98) |
| Block Size       | 552 bytes                         |
| Total Events     | 17                                |
| References Count | 40                                |

## List of Events

| Event ID                   | Entrypoint   |   Size |   Instructions |
|----------------------------|--------------|--------|----------------|
| [65535](#event-65535)      | 0x0000       |      1 |              1 |
| [9](#event-9)              | 0x0001       |      7 |              2 |
| [65535.1](#event-655351)   | 0x0008       |     15 |              5 |
| [65535.2](#event-655352)   | 0x0017       |     22 |              6 |
| [65535.3](#event-655353)   | 0x002D       |     24 |              6 |
| [65535.4](#event-655354)   | 0x0045       |     24 |              6 |
| [10](#event-10)            | 0x005D       |     27 |              3 |
| [65535.5](#event-655355)   | 0x0078       |     15 |              5 |
| [65535.6](#event-655356)   | 0x0087       |     14 |              4 |
| [65535.7](#event-655357)   | 0x0095       |     15 |              5 |
| [65535.8](#event-655358)   | 0x00A4       |     15 |              5 |
| [65535.9](#event-655359)   | 0x00B3       |     14 |              4 |
| [65535.10](#event-6553510) | 0x00C1       |     21 |              2 |
| [65535.11](#event-6553511) | 0x00D6       |     16 |              4 |
| [115](#event-115)          | 0x00E6       |     29 |              4 |
| [116](#event-116)          | 0x0103       |     30 |              4 |
| [65535.12](#event-6553512) | 0x0121       |     19 |              5 |

## DAT References (imed_data)

|   Index | Hex Value   |   Dec Value |
|---------|-------------|-------------|
|       0 | 0x000D      |          13 |
|       1 | 0x07BD      |        1981 |
|       2 | 0x1478D     |       83853 |
|       3 | 0xFFFFEC79  |  4294962297 |
|       4 | 0xFFFFF737  |  4294965047 |
|       5 | 0x15319     |       86809 |
|       6 | 0xFFFFEC77  |  4294962295 |
|       7 | 0x003C      |          60 |
|       8 | 0x0034      |          52 |
|       9 | 0x153C1     |       86977 |
|      10 | 0xFFFFEC78  |  4294962296 |
|      11 | 0x03F2      |        1010 |
|      12 | 0xFFFFF799  |  4294965145 |
|      13 | 0x15311     |       86801 |
|      14 | 0xFFFFF7DC  |  4294965212 |
|      15 | 0x13EA4     |       81572 |
|      16 | 0x0003      |           3 |
|      17 | 0x000B      |          11 |
|      18 | 0x001B      |          27 |
|      19 | 0x00D9      |         217 |
|      20 | 0x0000      |           0 |
|      21 | 0xFFFFFFF1  |  4294967281 |
|      22 | 0x11C61     |       72801 |
|      23 | 0x0047      |          71 |
|      24 | 0x10CB0     |       68784 |
|      25 | 0x000C      |          12 |
|      26 | 0x6E6B      |       28267 |
|      27 | 0x07CF      |        1999 |
|      28 | 0xFFFF9016  |  4294938646 |
|      29 | 0xFFFF1AD5  |  4294908629 |
|      30 | 0xFFFF904A  |  4294938698 |
|      31 | 0xFFFEFB52  |  4294900562 |
|      32 | 0x00FA      |         250 |
|      33 | 0x0002      |           2 |
|      34 | 0x0078      |         120 |
|      35 | 0x00E8      |         232 |
|      36 | 0x0001      |           1 |
|      37 | 0xFFFFFE45  |  4294966853 |
|      38 | 0x1BBF2     |      113650 |
|      39 | 0x0C1D      |        3101 |

## Events

### Event 65535

#### Metadata

| Field        | Value   |
|--------------|---------|
| Entrypoint   | 0x0000  |
| Data Size    | 1 bytes |
| Instructions | 1       |

```
      00 01 02 03 04 05 06 07  08 09 0A 0B 0C 0D 0E 0F
      -- -- -- -- -- -- -- --  -- -- -- -- -- -- -- --
0000: 00                                                .               
```

#### Opcodes

```
  0: 0x0000 [0x00] END_REQSTACK()
```

### Event 9

#### Metadata

| Field        | Value   |
|--------------|---------|
| Entrypoint   | 0x0001  |
| Data Size    | 7 bytes |
| Instructions | 2       |

```
      00 01 02 03 04 05 06 07  08 09 0A 0B 0C 0D 0E 0F
      -- -- -- -- -- -- -- --  -- -- -- -- -- -- -- --
0000:    92 01 F8 FF FF 7F 00                            .......        
```

#### Opcodes

```
  0: 0x0001 [0x92] EventEntity->Render.Flags3 ^= 0x01
  1: 0x0007 [0x00] END_REQSTACK()
```

### Event 65535.1

#### Metadata

| Field        | Value    |
|--------------|----------|
| Entrypoint   | 0x0008   |
| Data Size    | 15 bytes |
| Instructions | 5        |

```
      00 01 02 03 04 05 06 07  08 09 0A 0B 0C 0D 0E 0F
      -- -- -- -- -- -- -- --  -- -- -- -- -- -- -- --
0000:                          32 00 80 1F 00 01 80 02          2.......
0010: 80 03 80 1F 01 6F 00                              .....o.         
```

#### Opcodes

```
  0: 0x0008 [0x32] ExtData[1]->MainSpeed = 13* * 0.1
  1: 0x000B [0x1F] MOVE_ENTITY: EventEntity moves to X=1.981*, Z=83.853*, Y=-4.999*
  2: 0x0013 [0x1F] MOVE_ENTITY: Update entity position (mode=1)
  3: 0x0015 [0x6F] WAIT_FRAME_DELAY: Yield until WaitTime reaches zero
  4: 0x0016 [0x00] END_REQSTACK()
```

### Event 65535.2

#### Metadata

| Field        | Value    |
|--------------|----------|
| Entrypoint   | 0x0017   |
| Data Size    | 22 bytes |
| Instructions | 6        |

```
      00 01 02 03 04 05 06 07  08 09 0A 0B 0C 0D 0E 0F
      -- -- -- -- -- -- -- --  -- -- -- -- -- -- -- --
0010:                      32  00 80 1F 00 04 80 05 80         2........
0020: 06 80 1F 01 1E 4A 23 06  01 1C 07 80 00           .....J#......   
```

#### Opcodes

```
  0: 0x0017 [0x32] ExtData[1]->MainSpeed = 13* * 0.1
  1: 0x001A [0x1F] MOVE_ENTITY: EventEntity moves to X=-2.249*, Z=86.809*, Y=-5.001*
  2: 0x0022 [0x1F] MOVE_ENTITY: Update entity position (mode=1)
  3: 0x0024 [0x1E] EventEntity looks at Bartholomaus (ID: 17179466/0x0106234A) and starts talking
  4: 0x0029 [0x1C] WAIT(60* ticks)
  5: 0x002C [0x00] END_REQSTACK()
```

### Event 65535.3

#### Metadata

| Field        | Value    |
|--------------|----------|
| Entrypoint   | 0x002D   |
| Data Size    | 24 bytes |
| Instructions | 6        |

```
      00 01 02 03 04 05 06 07  08 09 0A 0B 0C 0D 0E 0F
      -- -- -- -- -- -- -- --  -- -- -- -- -- -- -- --
0020:                                         32 00 80               2..
0030: 1F 00 08 80 09 80 0A 80  1F 01 4B 46 23 06 01 0B  ..........KF#...
0040: 80 1C 07 80 00                                    .....           
```

#### Opcodes

```
  0: 0x002D [0x32] ExtData[1]->MainSpeed = 13* * 0.1
  1: 0x0030 [0x1F] MOVE_ENTITY: EventEntity moves to X=0.052*, Z=86.977*, Y=-5.000*
  2: 0x0038 [0x1F] MOVE_ENTITY: Update entity position (mode=1)
  3: 0x003A [0x4B] UPDATE_ENTITY_YAW(entity=Ragelise (ID: 17179462/0x01062346), yaw=5.5°*)
  4: 0x0041 [0x1C] WAIT(60* ticks)
  5: 0x0044 [0x00] END_REQSTACK()
```

### Event 65535.4

#### Metadata

| Field        | Value    |
|--------------|----------|
| Entrypoint   | 0x0045   |
| Data Size    | 24 bytes |
| Instructions | 6        |

```
      00 01 02 03 04 05 06 07  08 09 0A 0B 0C 0D 0E 0F
      -- -- -- -- -- -- -- --  -- -- -- -- -- -- -- --
0040:                32 00 80  1F 00 0C 80 0D 80 06 80       2..........
0050: 1F 01 1F 00 0E 80 0F 80  03 80 1F 01 00           .............   
```

#### Opcodes

```
  0: 0x0045 [0x32] ExtData[1]->MainSpeed = 13* * 0.1
  1: 0x0048 [0x1F] MOVE_ENTITY: EventEntity moves to X=-2.151*, Z=86.801*, Y=-5.001*
  2: 0x0050 [0x1F] MOVE_ENTITY: Update entity position (mode=1)
  3: 0x0052 [0x1F] MOVE_ENTITY: EventEntity moves to X=-2.084*, Z=81.572*, Y=-4.999*
  4: 0x005A [0x1F] MOVE_ENTITY: Update entity position (mode=1)
  5: 0x005C [0x00] END_REQSTACK()
```

### Event 10

#### Metadata

| Field        | Value    |
|--------------|----------|
| Entrypoint   | 0x005D   |
| Data Size    | 27 bytes |
| Instructions | 3        |

```
      00 01 02 03 04 05 06 07  08 09 0A 0B 0C 0D 0E 0F
      -- -- -- -- -- -- -- --  -- -- -- -- -- -- -- --
0050:                                         92 01 F8               ...
0060: FF FF 7F B6 0B 10 80 11  80 12 80 13 80 13 80 13  ................
0070: 80 13 80 14 80 14 80 00                           ........        
```

#### Opcodes

```
  0: 0x005D [0x92] EventEntity->Render.Flags3 ^= 0x01
  1: 0x0063 [0xB6] ENTITY_APPEARANCE_HANDLER(case=Full entity look, race=3*, hair=11*, head=27*, body=217*, hands=217*, legs=217*, feet=217*, main=0*, sub=0*)
  2: 0x0077 [0x00] END_REQSTACK()
```

### Event 65535.5

#### Metadata

| Field        | Value    |
|--------------|----------|
| Entrypoint   | 0x0078   |
| Data Size    | 15 bytes |
| Instructions | 5        |

```
      00 01 02 03 04 05 06 07  08 09 0A 0B 0C 0D 0E 0F
      -- -- -- -- -- -- -- --  -- -- -- -- -- -- -- --
0070:                          32 00 80 1F 00 15 80 16          2.......
0080: 80 0A 80 1F 01 6F 00                              .....o.         
```

#### Opcodes

```
  0: 0x0078 [0x32] ExtData[1]->MainSpeed = 13* * 0.1
  1: 0x007B [0x1F] MOVE_ENTITY: EventEntity moves to X=-0.015*, Z=72.801*, Y=-5.000*
  2: 0x0083 [0x1F] MOVE_ENTITY: Update entity position (mode=1)
  3: 0x0085 [0x6F] WAIT_FRAME_DELAY: Yield until WaitTime reaches zero
  4: 0x0086 [0x00] END_REQSTACK()
```

### Event 65535.6

#### Metadata

| Field        | Value    |
|--------------|----------|
| Entrypoint   | 0x0087   |
| Data Size    | 14 bytes |
| Instructions | 4        |

```
      00 01 02 03 04 05 06 07  08 09 0A 0B 0C 0D 0E 0F
      -- -- -- -- -- -- -- --  -- -- -- -- -- -- -- --
0080:                      32  00 80 1F 00 17 80 18 80         2........
0090: 0A 80 1F 01 00                                    .....           
```

#### Opcodes

```
  0: 0x0087 [0x32] ExtData[1]->MainSpeed = 13* * 0.1
  1: 0x008A [0x1F] MOVE_ENTITY: EventEntity moves to X=0.071*, Z=68.784*, Y=-5.000*
  2: 0x0092 [0x1F] MOVE_ENTITY: Update entity position (mode=1)
  3: 0x0094 [0x00] END_REQSTACK()
```

### Event 65535.7

#### Metadata

| Field        | Value    |
|--------------|----------|
| Entrypoint   | 0x0095   |
| Data Size    | 15 bytes |
| Instructions | 5        |

```
      00 01 02 03 04 05 06 07  08 09 0A 0B 0C 0D 0E 0F
      -- -- -- -- -- -- -- --  -- -- -- -- -- -- -- --
0090:                32 00 80  1F 00 19 80 1A 80 1B 80       2..........
00A0: 1F 01 6F 00                                       ..o.            
```

#### Opcodes

```
  0: 0x0095 [0x32] ExtData[1]->MainSpeed = 13* * 0.1
  1: 0x0098 [0x1F] MOVE_ENTITY: EventEntity moves to X=0.012*, Z=28.267*, Y=1.999*
  2: 0x00A0 [0x1F] MOVE_ENTITY: Update entity position (mode=1)
  3: 0x00A2 [0x6F] WAIT_FRAME_DELAY: Yield until WaitTime reaches zero
  4: 0x00A3 [0x00] END_REQSTACK()
```

### Event 65535.8

#### Metadata

| Field        | Value    |
|--------------|----------|
| Entrypoint   | 0x00A4   |
| Data Size    | 15 bytes |
| Instructions | 5        |

```
      00 01 02 03 04 05 06 07  08 09 0A 0B 0C 0D 0E 0F
      -- -- -- -- -- -- -- --  -- -- -- -- -- -- -- --
00A0:             32 00 80 1F  00 1C 80 1D 80 14 80 1F      2...........
00B0: 01 6F 00                                          .o.             
```

#### Opcodes

```
  0: 0x00A4 [0x32] ExtData[1]->MainSpeed = 13* * 0.1
  1: 0x00A7 [0x1F] MOVE_ENTITY: EventEntity moves to X=-28.650*, Z=-58.667*, Y=0.000*
  2: 0x00AF [0x1F] MOVE_ENTITY: Update entity position (mode=1)
  3: 0x00B1 [0x6F] WAIT_FRAME_DELAY: Yield until WaitTime reaches zero
  4: 0x00B2 [0x00] END_REQSTACK()
```

### Event 65535.9

#### Metadata

| Field        | Value    |
|--------------|----------|
| Entrypoint   | 0x00B3   |
| Data Size    | 14 bytes |
| Instructions | 4        |

```
      00 01 02 03 04 05 06 07  08 09 0A 0B 0C 0D 0E 0F
      -- -- -- -- -- -- -- --  -- -- -- -- -- -- -- --
00B0:          32 00 80 1F 00  1E 80 1F 80 10 80 1F 01     2............
00C0: 00                                                .               
```

#### Opcodes

```
  0: 0x00B3 [0x32] ExtData[1]->MainSpeed = 13* * 0.1
  1: 0x00B6 [0x1F] MOVE_ENTITY: EventEntity moves to X=-28.598*, Z=-66.734*, Y=0.003*
  2: 0x00BE [0x1F] MOVE_ENTITY: Update entity position (mode=1)
  3: 0x00C0 [0x00] END_REQSTACK()
```

### Event 65535.10

#### Metadata

| Field        | Value    |
|--------------|----------|
| Entrypoint   | 0x00C1   |
| Data Size    | 21 bytes |
| Instructions | 2        |

```
      00 01 02 03 04 05 06 07  08 09 0A 0B 0C 0D 0E 0F
      -- -- -- -- -- -- -- --  -- -- -- -- -- -- -- --
00C0:    B6 0B 10 80 11 80 12  80 13 80 13 80 13 80 13   ...............
00D0: 80 20 80 12 80 00                                 . ....          
```

#### Opcodes

```
  0: 0x00C1 [0xB6] ENTITY_APPEARANCE_HANDLER(case=Full entity look, race=3*, hair=11*, head=27*, body=217*, hands=217*, legs=217*, feet=217*, main=250*, sub=27*)
  1: 0x00D5 [0x00] END_REQSTACK()
```

### Event 65535.11

#### Metadata

| Field        | Value    |
|--------------|----------|
| Entrypoint   | 0x00D6   |
| Data Size    | 16 bytes |
| Instructions | 4        |

```
      00 01 02 03 04 05 06 07  08 09 0A 0B 0C 0D 0E 0F
      -- -- -- -- -- -- -- --  -- -- -- -- -- -- -- --
00D0:                   6E F8  FF FF 7F 21 80 99 F8 FF        n....!....
00E0: FF 7F 1C 22 80 00                                 ..."..          
```

#### Opcodes

```
  0: 0x00D6 [0x6E] EventEntity uses emote 2*
  1: 0x00DD [0x99] Wait for EventEntity animation to complete
  2: 0x00E2 [0x1C] WAIT(120* ticks)
  3: 0x00E5 [0x00] END_REQSTACK()
```

### Event 115

#### Metadata

| Field        | Value    |
|--------------|----------|
| Entrypoint   | 0x00E6   |
| Data Size    | 29 bytes |
| Instructions | 4        |

```
      00 01 02 03 04 05 06 07  08 09 0A 0B 0C 0D 0E 0F
      -- -- -- -- -- -- -- --  -- -- -- -- -- -- -- --
00E0:                   92 01  F8 FF FF 7F A4 01 B6 0B        ..........
00F0: 10 80 11 80 14 80 23 80  23 80 23 80 23 80 14 80  ......#.#.#.#...
0100: 14 80 00                                          ...             
```

#### Opcodes

```
  0: 0x00E6 [0x92] EventEntity->Render.Flags3 ^= 0x01
  1: 0x00EC [0xA4] EventEntity->Flags3.unknown_3_2 = 1
  2: 0x00EE [0xB6] ENTITY_APPEARANCE_HANDLER(case=Full entity look, race=3*, hair=11*, head=0*, body=232*, hands=232*, legs=232*, feet=232*, main=0*, sub=0*)
  3: 0x0102 [0x00] END_REQSTACK()
```

### Event 116

#### Metadata

| Field        | Value    |
|--------------|----------|
| Entrypoint   | 0x0103   |
| Data Size    | 30 bytes |
| Instructions | 4        |

```
      00 01 02 03 04 05 06 07  08 09 0A 0B 0C 0D 0E 0F
      -- -- -- -- -- -- -- --  -- -- -- -- -- -- -- --
0100:          92 01 F8 FF FF  7F B6 0B 10 80 11 80 14     .............
0110: 80 23 80 23 80 23 80 23  80 14 80 14 80 C0 24 80  .#.#.#.#......$.
0120: 00                                                .               
```

#### Opcodes

```
  0: 0x0103 [0x92] EventEntity->Render.Flags3 ^= 0x01
  1: 0x0109 [0xB6] ENTITY_APPEARANCE_HANDLER(case=Full entity look, race=3*, hair=11*, head=0*, body=232*, hands=232*, legs=232*, feet=232*, main=0*, sub=0*)
  2: 0x011D [0xC0] EventEntity->Render.Flags3 |= 0x1000 // Set bit 12 (from 1*)
  3: 0x0120 [0x00] END_REQSTACK()
```

### Event 65535.12

#### Metadata

| Field        | Value    |
|--------------|----------|
| Entrypoint   | 0x0121   |
| Data Size    | 19 bytes |
| Instructions | 5        |

```
      00 01 02 03 04 05 06 07  08 09 0A 0B 0C 0D 0E 0F
      -- -- -- -- -- -- -- --  -- -- -- -- -- -- -- --
0120:    32 00 80 1F 00 25 80  26 80 27 80 1F 01 1E F0   2....%.&.'.....
0130: FF FF 7F 00                                       ....            
```

#### Opcodes

```
  0: 0x0121 [0x32] ExtData[1]->MainSpeed = 13* * 0.1
  1: 0x0124 [0x1F] MOVE_ENTITY: EventEntity moves to X=-0.443*, Z=113.650*, Y=3.101*
  2: 0x012C [0x1F] MOVE_ENTITY: Update entity position (mode=1)
  3: 0x012E [0x1E] EventEntity looks at LocalPlayer and starts talking
  4: 0x0133 [0x00] END_REQSTACK()
```
