# 17179349

## Common Data

| Field            | Value                             |
|------------------|-----------------------------------|
| Zone             | Sauromugue Champaign [S] (ID: 98) |
| Block Size       | 70128 bytes                       |
| Total Events     | 9                                 |
| References Count | 1453                              |

## List of Events

| Event ID              | Entrypoint   |   Size |   Instructions |
|-----------------------|--------------|--------|----------------|
| [65535](#event-65535) | 0x0000       |      1 |              1 |
| [700](#event-700)     | 0x0001       |   8062 |            966 |
| [701](#event-701)     | 0x1F7F       |   9141 |           1006 |
| [3](#event-3)         | 0x4334       |   2714 |            342 |
| [4](#event-4)         | 0x4DCE       |   3159 |            369 |
| [113](#event-113)     | 0x5A25       |  11593 |           1192 |
| [109](#event-109)     | 0x876E       |  11845 |           1204 |
| [31](#event-31)       | 0xB5B3       |   7832 |            861 |
| [32](#event-32)       | 0xD44B       |   9917 |           1095 |

## DAT References (imed_data)

|   Index | Hex Value   |   Dec Value |
|---------|-------------|-------------|
|       0 | 0x0000      |           0 |
|       1 | 0x012C      |         300 |
|       2 | 0x0001      |           1 |
|       3 | 0x0013      |          19 |
|       4 | 0x0054      |          84 |
|       5 | 0x0015      |          21 |
|       6 | 0x001E      |          30 |
|       7 | 0x3FEE0     |      261856 |
|       8 | 0xAA89      |       43657 |
|       9 | 0x26C4      |        9924 |
|      10 | 0x0A91      |        2705 |
|      11 | 0x4098E     |      264590 |
|      12 | 0xA4FD      |       42237 |
|      13 | 0x2472      |        9330 |
|      14 | 0x0AD0      |        2768 |
|      15 | 0xFFFD1739  |  4294776633 |
|      16 | 0xFFFE5432  |  4294857778 |
|      17 | 0xFFFF9C4A  |  4294941770 |
|      18 | 0x09C3      |        2499 |
|      19 | 0xFFFD1298  |  4294775448 |
|      20 | 0xFFFE57B6  |  4294858678 |
|      21 | 0xFFFF9C73  |  4294941811 |
|      22 | 0x0034      |          52 |
|      23 | 0xFFFE474D  |  4294854477 |
|      24 | 0x127EC     |       75756 |
|      25 | 0xFFFFE248  |  4294959688 |
|      26 | 0x0106      |         262 |
|      27 | 0xFFFE40ED  |  4294852845 |
|      28 | 0x131A1     |       78241 |
|      29 | 0xFFFFE17B  |  4294959483 |
|      30 | 0x04D5      |        1237 |
|      31 | 0xFFFE3B73  |  4294851443 |
|      32 | 0x138AE     |       80046 |
|      33 | 0xFFFFE0C0  |  4294959296 |
|      34 | 0x00F6      |         246 |
|      35 | 0xFFFE3D89  |  4294851977 |
|      36 | 0x13E2D     |       81453 |
|      37 | 0xFFFFE10F  |  4294959375 |
|      38 | 0x06BD      |        1725 |
|      39 | 0xFFFE3DE7  |  4294852071 |
|      40 | 0x11F7F     |       73599 |
|      41 | 0xFFFFE192  |  4294959506 |
|      42 | 0x079C      |        1948 |
|      43 | 0xFFFE4BF3  |  4294855667 |
|      44 | 0x11A56     |       72278 |
|      45 | 0xFFFFE2DD  |  4294959837 |
|      46 | 0x0B12      |        2834 |
|      47 | 0x000F      |          15 |
|      48 | 0x017B      |         379 |
|      49 | 0x0078      |         120 |
|      50 | 0x00D7      |         215 |
|      51 | 0x007F      |         127 |
|      52 | 0x003C      |          60 |
|      53 | 0x1F8F      |        8079 |
|      54 | 0x0096      |         150 |
|      55 | 0x005A      |          90 |
|      56 | 0x1F90      |        8080 |
|      57 | 0x002D      |          45 |
|      58 | 0x0046      |          70 |
|      59 | 0x1F91      |        8081 |
|      60 | 0x1F92      |        8082 |
|      61 | 0x0014      |          20 |
|      62 | 0x0028      |          40 |
|      63 | 0xFFFD17E2  |  4294776802 |
|      64 | 0xFFFF5E95  |  4294925973 |
|      65 | 0xFFFF688B  |  4294928523 |
|      66 | 0x0D2F      |        3375 |
|      67 | 0xFFFD1CDC  |  4294778076 |
|      68 | 0xFFFF4A91  |  4294920849 |
|      69 | 0xFFFF6CAD  |  4294929581 |
|      70 | 0x0BC2      |        3010 |
|      71 | 0x1F93      |        8083 |
|      72 | 0x005B      |          91 |
|      73 | 0x0002      |           2 |
|      74 | 0x0062      |          98 |
|      75 | 0xFFFF4440  |  4294919232 |
|      76 | 0x6B6BA     |      439994 |
|      77 | 0x00C9      |         201 |
|      78 | 0x0A90      |        2704 |
|      79 | 0xFFFF63D2  |  4294927314 |
|      80 | 0x5D3C3     |      381891 |
|      81 | 0x0388      |         904 |
|      82 | 0x0BBA      |        3002 |
|      83 | 0xFFFF69E0  |  4294928864 |
|      84 | 0x5DC7A     |      384122 |
|      85 | 0x0310      |         784 |
|      86 | 0x0BF6      |        3062 |
|      87 | 0xFFFF5C0B  |  4294925323 |
|      88 | 0x5D9BC     |      383420 |
|      89 | 0x033C      |         828 |
|      90 | 0x0C11      |        3089 |
|      91 | 0xFFFCEAB5  |  4294765237 |
|      92 | 0x58BE8     |      363496 |
|      93 | 0x1F3F      |        7999 |
|      94 | 0x0A18      |        2584 |
|      95 | 0xFFFD9F29  |  4294811433 |
|      96 | 0x56ED6     |      356054 |
|      97 | 0x1F3E      |        7998 |
|      98 | 0x0844      |        2116 |
|      99 | 0xFFFD957D  |  4294808957 |
|     100 | 0x57751     |      358225 |
|     101 | 0x0832      |        2098 |
|     102 | 0xFFFD975D  |  4294809437 |
|     103 | 0x568E1     |      354529 |
|     104 | 0x1F88      |        8072 |
|     105 | 0x0808      |        2056 |
|     106 | 0x5DDFC     |      384508 |
|     107 | 0xFFFCCFB8  |  4294758328 |
|     108 | 0x3FD1      |       16337 |
|     109 | 0x0CBE      |        3262 |
|     110 | 0x662BA     |      418490 |
|     111 | 0xFFFCE319  |  4294763289 |
|     112 | 0x4687      |       18055 |
|     113 | 0x06A5      |        1701 |
|     114 | 0x65B96     |      416662 |
|     115 | 0xFFFCE4F5  |  4294763765 |
|     116 | 0x44EE      |       17646 |
|     117 | 0x662B0     |      418480 |
|     118 | 0xFFFCD9C9  |  4294760905 |
|     119 | 0x4616      |       17942 |
|     120 | 0x06BF      |        1727 |
|     121 | 0x1FEC      |        8172 |
|     122 | 0x00C8      |         200 |
|     123 | 0x1F94      |        8084 |
|     124 | 0x1F95      |        8085 |
|     125 | 0x00F7      |         247 |
|     126 | 0x1F96      |        8086 |
|     127 | 0x1F97      |        8087 |
|     128 | 0x1F98      |        8088 |
|     129 | 0x1F99      |        8089 |
|     130 | 0x1F9A      |        8090 |
|     131 | 0x1F9B      |        8091 |
|     132 | 0x1F9C      |        8092 |
|     133 | 0x1F9D      |        8093 |
|     134 | 0x0258      |         600 |
|     135 | 0x1F9E      |        8094 |
|     136 | 0x1F9F      |        8095 |
|     137 | 0xFFFF6F85  |  4294930309 |
|     138 | 0x67F91     |      425873 |
|     139 | 0x0260      |         608 |
|     140 | 0x0846      |        2118 |
|     141 | 0xFFFF6E53  |  4294930003 |
|     142 | 0x67834     |      423988 |
|     143 | 0x031D      |         797 |
|     144 | 0x09F8      |        2552 |
|     145 | 0xFFFF6765  |  4294928229 |
|     146 | 0x6711E     |      422174 |
|     147 | 0x037A      |         890 |
|     148 | 0x0B1F      |        2847 |
|     149 | 0xFFFF5B98  |  4294925208 |
|     150 | 0x68B89     |      428937 |
|     151 | 0x015E      |         350 |
|     152 | 0x0B78      |        2936 |
|     153 | 0xFFFF6083  |  4294926467 |
|     154 | 0x68C0B     |      429067 |
|     155 | 0x0158      |         344 |
|     156 | 0x09CE      |        2510 |
|     157 | 0xFFFF5415  |  4294923285 |
|     158 | 0x68802     |      428034 |
|     159 | 0x0165      |         357 |
|     160 | 0x0C3D      |        3133 |
|     161 | 0xFFFD222B  |  4294779435 |
|     162 | 0x56CCC     |      355532 |
|     163 | 0x2015      |        8213 |
|     164 | 0x0A4D      |        2637 |
|     165 | 0xFFFD2382  |  4294779778 |
|     166 | 0x57263     |      356963 |
|     167 | 0x20FA      |        8442 |
|     168 | 0x08C4      |        2244 |
|     169 | 0xFFFD2745  |  4294780741 |
|     170 | 0x57B78     |      359288 |
|     171 | 0x215B      |        8539 |
|     172 | 0x08E8      |        2280 |
|     173 | 0xFFFD0BD1  |  4294773713 |
|     174 | 0x5769B     |      358043 |
|     175 | 0x1FB7      |        8119 |
|     176 | 0x07FF      |        2047 |
|     177 | 0xFFFD0CBF  |  4294773951 |
|     178 | 0x57FAD     |      360365 |
|     179 | 0x1FC3      |        8131 |
|     180 | 0x06C4      |        1732 |
|     181 | 0xFFFD0D4D  |  4294774093 |
|     182 | 0x56F5B     |      356187 |
|     183 | 0x1FCA      |        8138 |
|     184 | 0x090D      |        2317 |
|     185 | 0x60B2F     |      396079 |
|     186 | 0xFFFCB3B8  |  4294751160 |
|     187 | 0x41A6      |       16806 |
|     188 | 0x0770      |        1904 |
|     189 | 0x609AC     |      395692 |
|     190 | 0xFFFCBCAB  |  4294753451 |
|     191 | 0x40C2      |       16578 |
|     192 | 0x04B6      |        1206 |
|     193 | 0x6047C     |      394364 |
|     194 | 0xFFFCC1CA  |  4294754762 |
|     195 | 0x4037      |       16439 |
|     196 | 0x045C      |        1116 |
|     197 | 0x5F1E8     |      389608 |
|     198 | 0xFFFCB0B8  |  4294750392 |
|     199 | 0x3FAD      |       16301 |
|     200 | 0x0724      |        1828 |
|     201 | 0x5F23D     |      389693 |
|     202 | 0xFFFCB873  |  4294752371 |
|     203 | 0x3FBA      |       16314 |
|     204 | 0x054D      |        1357 |
|     205 | 0x5FB28     |      391976 |
|     206 | 0xFFFCAC1C  |  4294749212 |
|     207 | 0x40AF      |       16559 |
|     208 | 0x083F      |        2111 |
|     209 | 0x1FA0      |        8096 |
|     210 | 0x1FA1      |        8097 |
|     211 | 0x1FA2      |        8098 |
|     212 | 0x1FA3      |        8099 |
|     213 | 0x0009      |           9 |
|     214 | 0x1FA4      |        8100 |
|     215 | 0x1FA5      |        8101 |
|     216 | 0x1FA6      |        8102 |
|     217 | 0xFFFF3CF6  |  4294917366 |
|     218 | 0x6A692     |      435858 |
|     219 | 0x0109      |         265 |
|     220 | 0x0AD2      |        2770 |
|     221 | 0xFFFF4077  |  4294918263 |
|     222 | 0x6ADE6     |      437734 |
|     223 | 0x00F9      |         249 |
|     224 | 0x08A1      |        2209 |
|     225 | 0xFFFF355B  |  4294915419 |
|     226 | 0x6A69F     |      435871 |
|     227 | 0x0163      |         355 |
|     228 | 0x0C04      |        3076 |
|     229 | 0xFFFF34D8  |  4294915288 |
|     230 | 0x6B750     |      440144 |
|     231 | 0x018B      |         395 |
|     232 | 0x0300      |         768 |
|     233 | 0xFFFD0B61  |  4294773601 |
|     234 | 0x58E31     |      364081 |
|     235 | 0x1FB1      |        8113 |
|     236 | 0x08E7      |        2279 |
|     237 | 0xFFFD0739  |  4294772537 |
|     238 | 0x59852     |      366674 |
|     239 | 0x2000      |        8192 |
|     240 | 0x0585      |        1413 |
|     241 | 0xFFFD080F  |  4294772751 |
|     242 | 0x58759     |      362329 |
|     243 | 0x1F87      |        8071 |
|     244 | 0x0A32      |        2610 |
|     245 | 0xFFFCFB30  |  4294769456 |
|     246 | 0x5955B     |      365915 |
|     247 | 0x00D9      |         217 |
|     248 | 0x5EC1F     |      388127 |
|     249 | 0xFFFCB25C  |  4294750812 |
|     250 | 0x3F14      |       16148 |
|     251 | 0x09EE      |        2542 |
|     252 | 0x5ECC9     |      388297 |
|     253 | 0xFFFCBC6F  |  4294753391 |
|     254 | 0x3F4F      |       16207 |
|     255 | 0x0837      |        2103 |
|     256 | 0x5E421     |      386081 |
|     257 | 0xFFFCAEFD  |  4294749949 |
|     258 | 0x3E59      |       15961 |
|     259 | 0x0B38      |        2872 |
|     260 | 0x5E285     |      385669 |
|     261 | 0xFFFCBBFE  |  4294753278 |
|     262 | 0x3EA7      |       16039 |
|     263 | 0x01C9      |         457 |
|     264 | 0x00FC      |         252 |
|     265 | 0x1FA7      |        8103 |
|     266 | 0x1FA8      |        8104 |
|     267 | 0x1FA9      |        8105 |
|     268 | 0x1FAA      |        8106 |
|     269 | 0x1FAB      |        8107 |
|     270 | 0x1FAC      |        8108 |
|     271 | 0x1FAD      |        8109 |
|     272 | 0x0021      |          33 |
|     273 | 0x1FAE      |        8110 |
|     274 | 0x001D      |          29 |
|     275 | 0x1FB2      |        8114 |
|     276 | 0x1FAF      |        8111 |
|     277 | 0x1FB0      |        8112 |
|     278 | 0x1FB4      |        8116 |
|     279 | 0x1FB5      |        8117 |
|     280 | 0x1FB6      |        8118 |
|     281 | 0x0065      |         101 |
|     282 | 0xFFFF31B9  |  4294914489 |
|     283 | 0x6AA5E     |      436830 |
|     284 | 0x01DC      |         476 |
|     285 | 0x0FE0      |        4064 |
|     286 | 0xFFFD021E  |  4294771230 |
|     287 | 0x57E51     |      360017 |
|     288 | 0x1F3B      |        7995 |
|     289 | 0x05F7      |        1527 |
|     290 | 0x59FE4     |      368612 |
|     291 | 0xFFFC8753  |  4294739795 |
|     292 | 0x2279      |        8825 |
|     293 | 0x0E08      |        3592 |
|     294 | 0x017A      |         378 |
|     295 | 0x1FBA      |        8122 |
|     296 | 0x00FA      |         250 |
|     297 | 0x0098      |         152 |
|     298 | 0x00B4      |         180 |
|     299 | 0x0099      |         153 |
|     300 | 0x0003      |           3 |
|     301 | 0x0004      |           4 |
|     302 | 0x0005      |           5 |
|     303 | 0x0006      |           6 |
|     304 | 0x0007      |           7 |
|     305 | 0x0008      |           8 |
|     306 | 0x1FB8      |        8120 |
|     307 | 0x00B6      |         182 |
|     308 | 0x00FF      |         255 |
|     309 | 0xFFF99F71  |  4294549361 |
|     310 | 0xFFFCBB88  |  4294753160 |
|     311 | 0x4E1F      |       19999 |
|     312 | 0x0F08      |        3848 |
|     313 | 0xFFF99763  |  4294547299 |
|     314 | 0xFFFCE383  |  4294763395 |
|     315 | 0x0400      |        1024 |
|     316 | 0xFFF99BBE  |  4294548414 |
|     317 | 0xFFFCC9B2  |  4294756786 |
|     318 | 0x0B7F      |        2943 |
|     319 | 0x051F      |        1311 |
|     320 | 0x0521      |        1313 |
|     321 | 0x1FB9      |        8121 |
|     322 | 0x1FBB      |        8123 |
|     323 | 0x1FBC      |        8124 |
|     324 | 0x051E      |        1310 |
|     325 | 0x1FBD      |        8125 |
|     326 | 0x1FBE      |        8126 |
|     327 | 0x0029      |          41 |
|     328 | 0x1FBF      |        8127 |
|     329 | 0x0582      |        1410 |
|     330 | 0x1FC0      |        8128 |
|     331 | 0x1FC1      |        8129 |
|     332 | 0x1FC2      |        8130 |
|     333 | 0x1FC4      |        8132 |
|     334 | 0x0016      |          22 |
|     335 | 0x00F0      |         240 |
|     336 | 0x1FC5      |        8133 |
|     337 | 0x1FC6      |        8134 |
|     338 | 0x1FC7      |        8135 |
|     339 | 0x1FC8      |        8136 |
|     340 | 0x0520      |        1312 |
|     341 | 0x1FC9      |        8137 |
|     342 | 0x1FCB      |        8139 |
|     343 | 0x1FCC      |        8140 |
|     344 | 0x1FCD      |        8141 |
|     345 | 0x1FCE      |        8142 |
|     346 | 0x1FCF      |        8143 |
|     347 | 0x1FD0      |        8144 |
|     348 | 0x1FD1      |        8145 |
|     349 | 0x1FD2      |        8146 |
|     350 | 0x1FD3      |        8147 |
|     351 | 0x1FD4      |        8148 |
|     352 | 0x1FD5      |        8149 |
|     353 | 0x1FD6      |        8150 |
|     354 | 0x1FD7      |        8151 |
|     355 | 0x1FD8      |        8152 |
|     356 | 0x1FD9      |        8153 |
|     357 | 0x1FDA      |        8154 |
|     358 | 0x1FDB      |        8155 |
|     359 | 0x1FDC      |        8156 |
|     360 | 0x1FDD      |        8157 |
|     361 | 0x051D      |        1309 |
|     362 | 0x1FDE      |        8158 |
|     363 | 0x1FDF      |        8159 |
|     364 | 0x1FE0      |        8160 |
|     365 | 0x1FE1      |        8161 |
|     366 | 0x1FE2      |        8162 |
|     367 | 0x1FE3      |        8163 |
|     368 | 0x1FE4      |        8164 |
|     369 | 0x0522      |        1314 |
|     370 | 0x010E      |         270 |
|     371 | 0x1FE5      |        8165 |
|     372 | 0x1FE6      |        8166 |
|     373 | 0x1FE7      |        8167 |
|     374 | 0x1FE8      |        8168 |
|     375 | 0x1FE9      |        8169 |
|     376 | 0x1FEA      |        8170 |
|     377 | 0xFFF9B32B  |  4294554411 |
|     378 | 0x36D2C     |      224556 |
|     379 | 0xFFFFFEC9  |  4294966985 |
|     380 | 0x0EAE      |        3758 |
|     381 | 0xFFF9D5DE  |  4294563294 |
|     382 | 0x3A9DE     |      240094 |
|     383 | 0x0920      |        2336 |
|     384 | 0xFFF9F90E  |  4294572302 |
|     385 | 0x44BD1     |      281553 |
|     386 | 0x0031      |          49 |
|     387 | 0x04A6      |        1190 |
|     388 | 0xFFF9CA62  |  4294560354 |
|     389 | 0x3A91B     |      239899 |
|     390 | 0x0091      |         145 |
|     391 | 0x0E81      |        3713 |
|     392 | 0xFFF9C8D5  |  4294559957 |
|     393 | 0x3B1B6     |      242102 |
|     394 | 0x00A5      |         165 |
|     395 | 0x0179      |         377 |
|     396 | 0x1E4E      |        7758 |
|     397 | 0x1E4F      |        7759 |
|     398 | 0x1E50      |        7760 |
|     399 | 0x1E51      |        7761 |
|     400 | 0x000A      |          10 |
|     401 | 0x74B31     |      478001 |
|     402 | 0xFFF97F38  |  4294541112 |
|     403 | 0xFFFFE96D  |  4294961517 |
|     404 | 0x065E      |        1630 |
|     405 | 0x003B      |          59 |
|     406 | 0x1E52      |        7762 |
|     407 | 0x1E53      |        7763 |
|     408 | 0x0019      |          25 |
|     409 | 0x1E54      |        7764 |
|     410 | 0x1E55      |        7765 |
|     411 | 0x001A      |          26 |
|     412 | 0xFFF9D028  |  4294561832 |
|     413 | 0x3A4D2     |      238802 |
|     414 | 0x0047      |          71 |
|     415 | 0x0BD2      |        3026 |
|     416 | 0xFFF9CB04  |  4294560516 |
|     417 | 0x3A856     |      239702 |
|     418 | 0x0089      |         137 |
|     419 | 0x0C9C      |        3228 |
|     420 | 0xFFF9CC5D  |  4294560861 |
|     421 | 0x3B439     |      242745 |
|     422 | 0x02AC      |         684 |
|     423 | 0x0024      |          36 |
|     424 | 0x1E56      |        7766 |
|     425 | 0x1E57      |        7767 |
|     426 | 0x007B      |         123 |
|     427 | 0x1E58      |        7768 |
|     428 | 0x1E59      |        7769 |
|     429 | 0x1E5A      |        7770 |
|     430 | 0x04FE      |        1278 |
|     431 | 0x1E5B      |        7771 |
|     432 | 0x0510      |        1296 |
|     433 | 0x1E5C      |        7772 |
|     434 | 0x1E5D      |        7773 |
|     435 | 0x1E5E      |        7774 |
|     436 | 0x1E5F      |        7775 |
|     437 | 0x000D      |          13 |
|     438 | 0x1E60      |        7776 |
|     439 | 0x1E61      |        7777 |
|     440 | 0x1E62      |        7778 |
|     441 | 0x1E63      |        7779 |
|     442 | 0x1E64      |        7780 |
|     443 | 0x1E65      |        7781 |
|     444 | 0x1E66      |        7782 |
|     445 | 0x1E67      |        7783 |
|     446 | 0x40000000  |  1073741824 |
|     447 | 0x4EA38     |      322104 |
|     448 | 0x1BF55     |      114517 |
|     449 | 0x5E08      |       24072 |
|     450 | 0x00A7      |         167 |
|     451 | 0x017C      |         380 |
|     452 | 0x00A9      |         169 |
|     453 | 0x0081      |         129 |
|     454 | 0x13BBC     |       80828 |
|     455 | 0x2407C     |      147580 |
|     456 | 0x03E7      |         999 |
|     457 | 0x0D97      |        3479 |
|     458 | 0x11E82     |       73346 |
|     459 | 0x21654     |      136788 |
|     460 | 0x0093      |         147 |
|     461 | 0x06B7      |        1719 |
|     462 | 0x1193A     |       71994 |
|     463 | 0x2123C     |      135740 |
|     464 | 0xFFFFFFE7  |  4294967271 |
|     465 | 0x01D6      |         470 |
|     466 | 0x5CA5E     |      379486 |
|     467 | 0x67B8      |       26552 |
|     468 | 0xFFFF63C1  |  4294927297 |
|     469 | 0x0417      |        1047 |
|     470 | 0x12907     |       76039 |
|     471 | 0x22403     |      140291 |
|     472 | 0x01CD      |         461 |
|     473 | 0x018D      |         397 |
|     474 | 0x05B1      |        1457 |
|     475 | 0x1E68      |        7784 |
|     476 | 0x1E69      |        7785 |
|     477 | 0x00A6      |         166 |
|     478 | 0x1E6A      |        7786 |
|     479 | 0x1E6B      |        7787 |
|     480 | 0x1E6C      |        7788 |
|     481 | 0x1E6D      |        7789 |
|     482 | 0x1E6E      |        7790 |
|     483 | 0x1E6F      |        7791 |
|     484 | 0x1E70      |        7792 |
|     485 | 0x00A8      |         168 |
|     486 | 0x002C      |          44 |
|     487 | 0x1E71      |        7793 |
|     488 | 0x1E72      |        7794 |
|     489 | 0x1E73      |        7795 |
|     490 | 0x1E74      |        7796 |
|     491 | 0x1E75      |        7797 |
|     492 | 0x1E76      |        7798 |
|     493 | 0x1E77      |        7799 |
|     494 | 0x1E78      |        7800 |
|     495 | 0x1E79      |        7801 |
|     496 | 0x1E7A      |        7802 |
|     497 | 0x1E7B      |        7803 |
|     498 | 0x1E7C      |        7804 |
|     499 | 0x1E7D      |        7805 |
|     500 | 0x1E7E      |        7806 |
|     501 | 0x1E7F      |        7807 |
|     502 | 0x05C2      |        1474 |
|     503 | 0x1E80      |        7808 |
|     504 | 0x1E81      |        7809 |
|     505 | 0x0053      |          83 |
|     506 | 0x0069      |         105 |
|     507 | 0x12248     |       74312 |
|     508 | 0x21BBB     |      138171 |
|     509 | 0x0104      |         260 |
|     510 | 0x0D9B      |        3483 |
|     511 | 0x0080      |         128 |
|     512 | 0x05C1      |        1473 |
|     513 | 0x00B3      |         179 |
|     514 | 0x1E82      |        7810 |
|     515 | 0x1E83      |        7811 |
|     516 | 0x5C204     |      377348 |
|     517 | 0xFFFD2AB0  |  4294781616 |
|     518 | 0x2967      |       10599 |
|     519 | 0x0A75      |        2677 |
|     520 | 0x5B562     |      374114 |
|     521 | 0xFFFD39C5  |  4294785477 |
|     522 | 0x0497      |        1175 |
|     523 | 0x5BB40     |      375616 |
|     524 | 0xFFFD3972  |  4294785394 |
|     525 | 0x04B3      |        1203 |
|     526 | 0x5BBFB     |      375803 |
|     527 | 0xFFFD267A  |  4294780538 |
|     528 | 0x5B8F1     |      375025 |
|     529 | 0xFFFD269B  |  4294780571 |
|     530 | 0x0C3A      |        3130 |
|     531 | 0x5AA89     |      371337 |
|     532 | 0xFFFD3226  |  4294783526 |
|     533 | 0x0E2F      |        3631 |
|     534 | 0x5AD4E     |      372046 |
|     535 | 0xFFFD2D82  |  4294782338 |
|     536 | 0x0C47      |        3143 |
|     537 | 0x5B3DC     |      373724 |
|     538 | 0xFFFD2FF3  |  4294782963 |
|     539 | 0x0D48      |        3400 |
|     540 | 0x5B7BE     |      374718 |
|     541 | 0xFFFD2DEE  |  4294782446 |
|     542 | 0x0B80      |        2944 |
|     543 | 0x5BB2C     |      375596 |
|     544 | 0xFFFD2F80  |  4294782848 |
|     545 | 0x0A76      |        2678 |
|     546 | 0x5BE69     |      376425 |
|     547 | 0xFFFD3247  |  4294783559 |
|     548 | 0x0960      |        2400 |
|     549 | 0x05A2      |        1442 |
|     550 | 0x080E      |        2062 |
|     551 | 0x052E      |        1326 |
|     552 | 0x0530      |        1328 |
|     553 | 0x019E      |         414 |
|     554 | 0x1E84      |        7812 |
|     555 | 0x1E85      |        7813 |
|     556 | 0x05A3      |        1443 |
|     557 | 0x1E86      |        7814 |
|     558 | 0x1E87      |        7815 |
|     559 | 0x1E88      |        7816 |
|     560 | 0x1E89      |        7817 |
|     561 | 0x1E8A      |        7818 |
|     562 | 0x1E8B      |        7819 |
|     563 | 0x05F9      |        1529 |
|     564 | 0x1E8C      |        7820 |
|     565 | 0x1E8D      |        7821 |
|     566 | 0x1E8E      |        7822 |
|     567 | 0x0C97      |        3223 |
|     568 | 0x05A6      |        1446 |
|     569 | 0x1E8F      |        7823 |
|     570 | 0x052F      |        1327 |
|     571 | 0x1E90      |        7824 |
|     572 | 0x1E91      |        7825 |
|     573 | 0x1E92      |        7826 |
|     574 | 0x1E93      |        7827 |
|     575 | 0x1E94      |        7828 |
|     576 | 0x093B      |        2363 |
|     577 | 0x5B408     |      373768 |
|     578 | 0xFFFD38C5  |  4294785221 |
|     579 | 0x021C      |         540 |
|     580 | 0x1E95      |        7829 |
|     581 | 0x1E96      |        7830 |
|     582 | 0x1E97      |        7831 |
|     583 | 0x000B      |          11 |
|     584 | 0x1E98      |        7832 |
|     585 | 0x1E99      |        7833 |
|     586 | 0x1E9A      |        7834 |
|     587 | 0x1E9B      |        7835 |
|     588 | 0x046A      |        1130 |
|     589 | 0x1E9C      |        7836 |
|     590 | 0x1E9D      |        7837 |
|     591 | 0x2E05A     |      188506 |
|     592 | 0xFFFD8088  |  4294803592 |
|     593 | 0x20AC      |        8364 |
|     594 | 0x2D6A7     |      186023 |
|     595 | 0xFFFD75AF  |  4294800815 |
|     596 | 0x218C      |        8588 |
|     597 | 0x2D20C     |      184844 |
|     598 | 0xFFFD8ACE  |  4294806222 |
|     599 | 0x2208      |        8712 |
|     600 | 0x2C36A     |      181098 |
|     601 | 0xFFFD782F  |  4294801455 |
|     602 | 0x2172      |        8562 |
|     603 | 0x2BE3B     |      179771 |
|     604 | 0xFFFD8350  |  4294804304 |
|     605 | 0x231B      |        8987 |
|     606 | 0x2BB9E     |      179102 |
|     607 | 0xFFFD7E9A  |  4294803098 |
|     608 | 0x22CE      |        8910 |
|     609 | 0x2A7AF     |      173999 |
|     610 | 0xFFFD8A54  |  4294806100 |
|     611 | 0x2194      |        8596 |
|     612 | 0x29F40     |      171840 |
|     613 | 0xFFFD7494  |  4294800532 |
|     614 | 0x28C71     |      167025 |
|     615 | 0xFFFD8463  |  4294804579 |
|     616 | 0x301B1     |      197041 |
|     617 | 0xFFFD7191  |  4294799761 |
|     618 | 0x2ECA8     |      191656 |
|     619 | 0xFFFD7F17  |  4294803223 |
|     620 | 0x2017      |        8215 |
|     621 | 0x2EABB     |      191163 |
|     622 | 0xFFFD7289  |  4294800009 |
|     623 | 0x18A9      |        6313 |
|     624 | 0x2EE77     |      192119 |
|     625 | 0xFFFD7F06  |  4294803206 |
|     626 | 0x1FF4      |        8180 |
|     627 | 0x40670     |      263792 |
|     628 | 0xFFFD37F1  |  4294785009 |
|     629 | 0x0990      |        2448 |
|     630 | 0x3F813     |      260115 |
|     631 | 0xFFFD445C  |  4294788188 |
|     632 | 0x09FB      |        2555 |
|     633 | 0x3F77C     |      259964 |
|     634 | 0xFFFD451F  |  4294788383 |
|     635 | 0x09B0      |        2480 |
|     636 | 0x3FF79     |      262009 |
|     637 | 0xFFFD392D  |  4294785325 |
|     638 | 0x1E0E      |        7694 |
|     639 | 0x09CF      |        2511 |
|     640 | 0x3FDB3     |      261555 |
|     641 | 0xFFFD370C  |  4294784780 |
|     642 | 0x1DD7      |        7639 |
|     643 | 0x3FFC3     |      262083 |
|     644 | 0xFFFD2C71  |  4294782065 |
|     645 | 0x1DCC      |        7628 |
|     646 | 0x4046F     |      263279 |
|     647 | 0xFFFD2D6F  |  4294782319 |
|     648 | 0x1E17      |        7703 |
|     649 | 0x098F      |        2447 |
|     650 | 0x4068F     |      263823 |
|     651 | 0xFFFD3E9A  |  4294786714 |
|     652 | 0x0991      |        2449 |
|     653 | 0x4032E     |      262958 |
|     654 | 0xFFFD3CFE  |  4294786302 |
|     655 | 0x40ECD     |      265933 |
|     656 | 0xFFFD4281  |  4294787713 |
|     657 | 0x1EB0      |        7856 |
|     658 | 0x409A5     |      264613 |
|     659 | 0xFFFD4286  |  4294787718 |
|     660 | 0x1EB2      |        7858 |
|     661 | 0x403CE     |      263118 |
|     662 | 0xFFFD2766  |  4294780774 |
|     663 | 0x1E0D      |        7693 |
|     664 | 0x401E2     |      262626 |
|     665 | 0xFFFD23CD  |  4294779853 |
|     666 | 0x1DDC      |        7644 |
|     667 | 0x0901      |        2305 |
|     668 | 0x080D      |        2061 |
|     669 | 0x093A      |        2362 |
|     670 | 0x1E9E      |        7838 |
|     671 | 0x1E9F      |        7839 |
|     672 | 0x1EA0      |        7840 |
|     673 | 0x1EA1      |        7841 |
|     674 | 0x1EA2      |        7842 |
|     675 | 0x1EA3      |        7843 |
|     676 | 0x0907      |        2311 |
|     677 | 0x1EA4      |        7844 |
|     678 | 0x1EA5      |        7845 |
|     679 | 0x1EA6      |        7846 |
|     680 | 0x00EF      |         239 |
|     681 | 0x1EA7      |        7847 |
|     682 | 0x1EA8      |        7848 |
|     683 | 0x1EA9      |        7849 |
|     684 | 0x1EAA      |        7850 |
|     685 | 0x1EAB      |        7851 |
|     686 | 0x05AD      |        1453 |
|     687 | 0x0909      |        2313 |
|     688 | 0x1EAC      |        7852 |
|     689 | 0x1EAD      |        7853 |
|     690 | 0x1EAE      |        7854 |
|     691 | 0x1EAF      |        7855 |
|     692 | 0x1EB1      |        7857 |
|     693 | 0x1EB3      |        7859 |
|     694 | 0x0064      |         100 |
|     695 | 0x1EB4      |        7860 |
|     696 | 0x1EB5      |        7861 |
|     697 | 0x00D2      |         210 |
|     698 | 0x1EB6      |        7862 |
|     699 | 0x052A      |        1322 |
|     700 | 0x1EB7      |        7863 |
|     701 | 0x1EB8      |        7864 |
|     702 | 0x32F2F     |      208687 |
|     703 | 0xFFFD7F3C  |  4294803260 |
|     704 | 0x220C      |        8716 |
|     705 | 0x32514     |      206100 |
|     706 | 0xFFFD77AE  |  4294801326 |
|     707 | 0x31EA9     |      204457 |
|     708 | 0xFFFD87D8  |  4294805464 |
|     709 | 0x1F74      |        8052 |
|     710 | 0x315C8     |      202184 |
|     711 | 0xFFFD7902  |  4294801666 |
|     712 | 0x1ED8      |        7896 |
|     713 | 0x30C75     |      199797 |
|     714 | 0xFFFD82EB  |  4294804203 |
|     715 | 0x2F84E     |      194638 |
|     716 | 0xFFFD7E49  |  4294803017 |
|     717 | 0x1F70      |        8048 |
|     718 | 0x2E646     |      190022 |
|     719 | 0xFFFD88F1  |  4294805745 |
|     720 | 0x2068      |        8296 |
|     721 | 0x2EAE6     |      191206 |
|     722 | 0xFFFD72ED  |  4294800109 |
|     723 | 0x205F      |        8287 |
|     724 | 0x0139      |         313 |
|     725 | 0x2D415     |      185365 |
|     726 | 0xFFFD8482  |  4294804610 |
|     727 | 0x21D4      |        8660 |
|     728 | 0x004B      |          75 |
|     729 | 0x1EB9      |        7865 |
|     730 | 0x1EBA      |        7866 |
|     731 | 0x31C73     |      203891 |
|     732 | 0xFFFD7BE5  |  4294802405 |
|     733 | 0x1EF2      |        7922 |
|     734 | 0x3434E     |      213838 |
|     735 | 0xFFFD826C  |  4294804076 |
|     736 | 0x27F0      |       10224 |
|     737 | 0x33075     |      209013 |
|     738 | 0xFFFD85FC  |  4294804988 |
|     739 | 0x1A69      |        6761 |
|     740 | 0x3334F     |      209743 |
|     741 | 0xFFFD7CD8  |  4294802648 |
|     742 | 0x2395      |        9109 |
|     743 | 0x2FE9F     |      196255 |
|     744 | 0xFFFD8E4C  |  4294807116 |
|     745 | 0x1F3A      |        7994 |
|     746 | 0x0F05      |        3845 |
|     747 | 0x2F3B6     |      193462 |
|     748 | 0xFFFD7E30  |  4294802992 |
|     749 | 0x0305      |         773 |
|     750 | 0x1EBB      |        7867 |
|     751 | 0x1EBC      |        7868 |
|     752 | 0x1EBD      |        7869 |
|     753 | 0x0050      |          80 |
|     754 | 0x1EBE      |        7870 |
|     755 | 0x1EBF      |        7871 |
|     756 | 0x00A0      |         160 |
|     757 | 0x1EC0      |        7872 |
|     758 | 0x3D6AB     |      251563 |
|     759 | 0xFFFD611D  |  4294795549 |
|     760 | 0x3BF4      |       15348 |
|     761 | 0x0980      |        2432 |
|     762 | 0x3D090     |      250000 |
|     763 | 0xFFFD4F05  |  4294790917 |
|     764 | 0x3A57      |       14935 |
|     765 | 0x0A00      |        2560 |
|     766 | 0x3D2FB     |      250619 |
|     767 | 0xFFFD53A4  |  4294792100 |
|     768 | 0x3A79      |       14969 |
|     769 | 0x3D1DB     |      250331 |
|     770 | 0xFFFD62A2  |  4294795938 |
|     771 | 0x3C5A      |       15450 |
|     772 | 0x0840      |        2112 |
|     773 | 0x0904      |        2308 |
|     774 | 0x4073B     |      263995 |
|     775 | 0xFFFCFA0B  |  4294769163 |
|     776 | 0x225D      |        8797 |
|     777 | 0x0C00      |        3072 |
|     778 | 0x2B2F1     |      176881 |
|     779 | 0xFFFD9A73  |  4294810227 |
|     780 | 0x228B      |        8843 |
|     781 | 0x00D6      |         214 |
|     782 | 0x2E9C2     |      190914 |
|     783 | 0xFFFD5FEE  |  4294795246 |
|     784 | 0x1E3A      |        7738 |
|     785 | 0x0DBB      |        3515 |
|     786 | 0x31BF3     |      203763 |
|     787 | 0xFFFD8654  |  4294805076 |
|     788 | 0x1F1D      |        7965 |
|     789 | 0x2C405     |      181253 |
|     790 | 0xFFFD7070  |  4294799472 |
|     791 | 0x203D      |        8253 |
|     792 | 0x0F78      |        3960 |
|     793 | 0x2F157     |      192855 |
|     794 | 0xFFFD85DF  |  4294804959 |
|     795 | 0x0CC5      |        3269 |
|     796 | 0x298A0     |      170144 |
|     797 | 0xFFFD62E5  |  4294796005 |
|     798 | 0x1CFD      |        7421 |
|     799 | 0x0D9A      |        3482 |
|     800 | 0x27096     |      159894 |
|     801 | 0xFFFD8DF7  |  4294807031 |
|     802 | 0x2CE51     |      183889 |
|     803 | 0xFFFD7A8C  |  4294802060 |
|     804 | 0x21C3      |        8643 |
|     805 | 0x05CA      |        1482 |
|     806 | 0x2B953     |      178515 |
|     807 | 0xFFFD8842  |  4294805570 |
|     808 | 0x22DD      |        8925 |
|     809 | 0x0830      |        2096 |
|     810 | 0x2A3FD     |      173053 |
|     811 | 0xFFFD672B  |  4294797099 |
|     812 | 0x1CAF      |        7343 |
|     813 | 0x0630      |        1584 |
|     814 | 0x296EE     |      169710 |
|     815 | 0xFFFD6935  |  4294797621 |
|     816 | 0x1D74      |        7540 |
|     817 | 0x03A2      |         930 |
|     818 | 0x2BA62     |      178786 |
|     819 | 0xFFFD702D  |  4294799405 |
|     820 | 0x2014      |        8212 |
|     821 | 0x30762     |      198498 |
|     822 | 0xFFFD37E3  |  4294784995 |
|     823 | 0x009E      |         158 |
|     824 | 0x0A08      |        2568 |
|     825 | 0x2BF23     |      180003 |
|     826 | 0xFFFD9612  |  4294809106 |
|     827 | 0x2327      |        8999 |
|     828 | 0x092A      |        2346 |
|     829 | 0x2F277     |      193143 |
|     830 | 0xFFFD8CC2  |  4294806722 |
|     831 | 0x2F008     |      192520 |
|     832 | 0xFFFD65BB  |  4294796731 |
|     833 | 0x0656      |        1622 |
|     834 | 0x2D0C6     |      184518 |
|     835 | 0xFFFD730D  |  4294800141 |
|     836 | 0x20F8      |        8440 |
|     837 | 0x082F      |        2095 |
|     838 | 0x312AB     |      201387 |
|     839 | 0xFFFD3617  |  4294784535 |
|     840 | 0x0AA6      |        2726 |
|     841 | 0x30CF7     |      199927 |
|     842 | 0xFFFD367B  |  4294784635 |
|     843 | 0x2A9D0     |      174544 |
|     844 | 0xFFFD795C  |  4294801756 |
|     845 | 0x2120      |        8480 |
|     846 | 0x2AA53     |      174675 |
|     847 | 0xFFFD7203  |  4294799875 |
|     848 | 0x2ABEF     |      175087 |
|     849 | 0xFFFD8E00  |  4294807040 |
|     850 | 0x161A      |        5658 |
|     851 | 0x093D      |        2365 |
|     852 | 0x0810      |        2064 |
|     853 | 0x093C      |        2364 |
|     854 | 0x014A      |         330 |
|     855 | 0x093E      |        2366 |
|     856 | 0x3C943     |      248131 |
|     857 | 0xFFFD6FD4  |  4294799316 |
|     858 | 0x3D7B      |       15739 |
|     859 | 0x093F      |        2367 |
|     860 | 0x0813      |        2067 |
|     861 | 0x318F0     |      202992 |
|     862 | 0xFFFD7BF2  |  4294802418 |
|     863 | 0x1F07      |        7943 |
|     864 | 0x096D      |        2413 |
|     865 | 0x27107     |      160007 |
|     866 | 0xFFFD7EE2  |  4294803170 |
|     867 | 0x1F36      |        7990 |
|     868 | 0x090A      |        2314 |
|     869 | 0x091D      |        2333 |
|     870 | 0x1EC1      |        7873 |
|     871 | 0x0902      |        2306 |
|     872 | 0x2CEC4     |      184004 |
|     873 | 0xFFFD7F92  |  4294803346 |
|     874 | 0x225A      |        8794 |
|     875 | 0x091B      |        2331 |
|     876 | 0x084E      |        2126 |
|     877 | 0x080F      |        2063 |
|     878 | 0x1EC3      |        7875 |
|     879 | 0x0800      |        2048 |
|     880 | 0x1EC4      |        7876 |
|     881 | 0x0903      |        2307 |
|     882 | 0x084F      |        2127 |
|     883 | 0x1EC2      |        7874 |
|     884 | 0x1EC5      |        7877 |
|     885 | 0x1EC6      |        7878 |
|     886 | 0x1EC7      |        7879 |
|     887 | 0x0908      |        2312 |
|     888 | 0x1EC8      |        7880 |
|     889 | 0x1EC9      |        7881 |
|     890 | 0x1ECA      |        7882 |
|     891 | 0x1ECB      |        7883 |
|     892 | 0x29800     |      169984 |
|     893 | 0xFFFD8136  |  4294803766 |
|     894 | 0x2069      |        8297 |
|     895 | 0x05C9      |        1481 |
|     896 | 0x29FA8     |      171944 |
|     897 | 0xFFFD7C88  |  4294802568 |
|     898 | 0x207B      |        8315 |
|     899 | 0x1ECC      |        7884 |
|     900 | 0x1ECD      |        7885 |
|     901 | 0x1ECE      |        7886 |
|     902 | 0x1EF57     |      126807 |
|     903 | 0xFFFD4532  |  4294788402 |
|     904 | 0x21E6      |        8678 |
|     905 | 0x09B5      |        2485 |
|     906 | 0x20BFE     |      134142 |
|     907 | 0xFFFD7126  |  4294799654 |
|     908 | 0x2064      |        8292 |
|     909 | 0x05BD      |        1469 |
|     910 | 0x1E0A0     |      123040 |
|     911 | 0xFFFD6700  |  4294797056 |
|     912 | 0x2076      |        8310 |
|     913 | 0x07BC      |        1980 |
|     914 | 0x25C29     |      154665 |
|     915 | 0xFFFD73FB  |  4294800379 |
|     916 | 0x0855      |        2133 |
|     917 | 0x1E5D7     |      124375 |
|     918 | 0xFFFD27AC  |  4294780844 |
|     919 | 0x2158      |        8536 |
|     920 | 0x0426      |        1062 |
|     921 | 0x22E55     |      142933 |
|     922 | 0xFFFD088D  |  4294772877 |
|     923 | 0x025C      |         604 |
|     924 | 0x097E      |        2430 |
|     925 | 0x22F2F     |      143151 |
|     926 | 0xFFFD0FDB  |  4294774747 |
|     927 | 0x02CA      |         714 |
|     928 | 0x1E99C     |      125340 |
|     929 | 0xFFFD4224  |  4294787620 |
|     930 | 0x2296      |        8854 |
|     931 | 0x0A0E      |        2574 |
|     932 | 0x1CE56     |      118358 |
|     933 | 0xFFFD89F3  |  4294806003 |
|     934 | 0x1F40      |        8000 |
|     935 | 0x0A8D      |        2701 |
|     936 | 0x1A959     |      108889 |
|     937 | 0xFFFD6620  |  4294796832 |
|     938 | 0x0375      |         885 |
|     939 | 0x23FB6     |      147382 |
|     940 | 0xFFFD83F0  |  4294804464 |
|     941 | 0x2108      |        8456 |
|     942 | 0x0AB4      |        2740 |
|     943 | 0x231E0     |      143840 |
|     944 | 0xFFFD158C  |  4294776204 |
|     945 | 0x0391      |         913 |
|     946 | 0x2340D     |      144397 |
|     947 | 0x04CF      |        1231 |
|     948 | 0x1C6A4     |      116388 |
|     949 | 0xFFFD958B  |  4294808971 |
|     950 | 0x025E      |         606 |
|     951 | 0x1AC74     |      109684 |
|     952 | 0xFFFD5866  |  4294793318 |
|     953 | 0x2096      |        8342 |
|     954 | 0x0B48      |        2888 |
|     955 | 0x1E59B     |      124315 |
|     956 | 0xFFFD195C  |  4294777180 |
|     957 | 0x2047      |        8263 |
|     958 | 0x0BC6      |        3014 |
|     959 | 0x23A0C     |      145932 |
|     960 | 0xFFFD90B9  |  4294807737 |
|     961 | 0x219A      |        8602 |
|     962 | 0x02A4      |         676 |
|     963 | 0x24F3F     |      151359 |
|     964 | 0xFFFD7652  |  4294800978 |
|     965 | 0x1FFB      |        8187 |
|     966 | 0x00CA      |         202 |
|     967 | 0x22EF8     |      143096 |
|     968 | 0xFFFD68DE  |  4294797534 |
|     969 | 0x1F83      |        8067 |
|     970 | 0x0A19      |        2585 |
|     971 | 0x1DF0F     |      122639 |
|     972 | 0xFFFD5013  |  4294791187 |
|     973 | 0x2265      |        8805 |
|     974 | 0x01C8      |         456 |
|     975 | 0x1F8A7     |      129191 |
|     976 | 0xFFFD89A0  |  4294805920 |
|     977 | 0x2041      |        8257 |
|     978 | 0x0351      |         849 |
|     979 | 0x1CF7D     |      118653 |
|     980 | 0xFFFD63D5  |  4294796245 |
|     981 | 0x209E      |        8350 |
|     982 | 0x0F81      |        3969 |
|     983 | 0x1A1E2     |      106978 |
|     984 | 0xFFFC0EC4  |  4294708932 |
|     985 | 0xFFFFD07B  |  4294955131 |
|     986 | 0x0CA9      |        3241 |
|     987 | 0x1BBF6     |      113654 |
|     988 | 0xFFFBFC5D  |  4294704221 |
|     989 | 0xFFFFE0F8  |  4294959352 |
|     990 | 0x0A71      |        2673 |
|     991 | 0xFFFFC47E  |  4294952062 |
|     992 | 0xFFFE2A7C  |  4294847100 |
|     993 | 0x220F      |        8719 |
|     994 | 0x00E9      |         233 |
|     995 | 0x1E5A2     |      124322 |
|     996 | 0xFFFD7466  |  4294800486 |
|     997 | 0x07E4      |        2020 |
|     998 | 0x1D5E2     |      120290 |
|     999 | 0xFFFD5C21  |  4294794273 |
|    1000 | 0x2132      |        8498 |
|    1001 | 0x07E3      |        2019 |
|    1002 | 0x1E622     |      124450 |
|    1003 | 0xFFFD82B5  |  4294804149 |
|    1004 | 0x1F55      |        8021 |
|    1005 | 0x22D8D     |      142733 |
|    1006 | 0xFFFD8968  |  4294805864 |
|    1007 | 0x229F      |        8863 |
|    1008 | 0x0077      |         119 |
|    1009 | 0x019F      |         415 |
|    1010 | 0x1ECF      |        7887 |
|    1011 | 0x0C76      |        3190 |
|    1012 | 0x1ED0      |        7888 |
|    1013 | 0x1ED1      |        7889 |
|    1014 | 0x1ED2      |        7890 |
|    1015 | 0x0560      |        1376 |
|    1016 | 0x002A      |          42 |
|    1017 | 0x1ED3      |        7891 |
|    1018 | 0x1ED4      |        7892 |
|    1019 | 0x1FC0F     |      130063 |
|    1020 | 0xFFFD682C  |  4294797356 |
|    1021 | 0x23098     |      143512 |
|    1022 | 0xFFFD8500  |  4294804736 |
|    1023 | 0x2278      |        8824 |
|    1024 | 0x1EEAA     |      126634 |
|    1025 | 0xFFFD71DF  |  4294799839 |
|    1026 | 0x1F67      |        8039 |
|    1027 | 0x09B6      |        2486 |
|    1028 | 0x1FBBA     |      129978 |
|    1029 | 0xFFFDB49F  |  4294816927 |
|    1030 | 0xFFFFDA09  |  4294957577 |
|    1031 | 0x0527      |        1319 |
|    1032 | 0x135C7     |       79303 |
|    1033 | 0xFFFD3296  |  4294783638 |
|    1034 | 0x0C28      |        3112 |
|    1035 | 0x0012      |          18 |
|    1036 | 0x00D8      |         216 |
|    1037 | 0x1ED5      |        7893 |
|    1038 | 0x1ED6      |        7894 |
|    1039 | 0x0526      |        1318 |
|    1040 | 0x1BCBF     |      113855 |
|    1041 | 0xFFFD4E12  |  4294790674 |
|    1042 | 0x21D1      |        8657 |
|    1043 | 0x1ED9      |        7897 |
|    1044 | 0x00B0      |         176 |
|    1045 | 0x1EDA      |        7898 |
|    1046 | 0x1EDB      |        7899 |
|    1047 | 0x1EDD      |        7901 |
|    1048 | 0x00BA      |         186 |
|    1049 | 0x007D      |         125 |
|    1050 | 0x1CD7B     |      118139 |
|    1051 | 0xFFFD7378  |  4294800248 |
|    1052 | 0x0C49      |        3145 |
|    1053 | 0x1DD3D     |      122173 |
|    1054 | 0xFFFD1129  |  4294775081 |
|    1055 | 0x1AB5B     |      109403 |
|    1056 | 0xFFFD4E0C  |  4294790668 |
|    1057 | 0x2050      |        8272 |
|    1058 | 0x1EDE      |        7902 |
|    1059 | 0x1EDC      |        7900 |
|    1060 | 0x1EDF      |        7903 |
|    1061 | 0x19D35     |      105781 |
|    1062 | 0xFFFD7F85  |  4294803333 |
|    1063 | 0x21A6      |        8614 |
|    1064 | 0x0AE5      |        2789 |
|    1065 | 0x1923F     |      102975 |
|    1066 | 0xFFFD86A8  |  4294805160 |
|    1067 | 0x2292      |        8850 |
|    1068 | 0x0C5D      |        3165 |
|    1069 | 0x193AC     |      103340 |
|    1070 | 0xFFFD7EBF  |  4294803135 |
|    1071 | 0x2267      |        8807 |
|    1072 | 0x19E29     |      106025 |
|    1073 | 0xFFFD863B  |  4294805051 |
|    1074 | 0x2192      |        8594 |
|    1075 | 0x19C8C     |      105612 |
|    1076 | 0xFFFD711A  |  4294799642 |
|    1077 | 0x2084      |        8324 |
|    1078 | 0x0B67      |        2919 |
|    1079 | 0x19987     |      104839 |
|    1080 | 0xFFFD6F14  |  4294799124 |
|    1081 | 0x20B2      |        8370 |
|    1082 | 0x0B6A      |        2922 |
|    1083 | 0x1A7AC     |      108460 |
|    1084 | 0xFFFD70D4  |  4294799572 |
|    1085 | 0x1F2D      |        7981 |
|    1086 | 0x19447     |      103495 |
|    1087 | 0xFFFD9449  |  4294808649 |
|    1088 | 0x0478      |        1144 |
|    1089 | 0x18FCB     |      102347 |
|    1090 | 0xFFFD972A  |  4294809386 |
|    1091 | 0x22B2      |        8882 |
|    1092 | 0x0397      |         919 |
|    1093 | 0xFFFFFB26  |  4294966054 |
|    1094 | 0xFFFE20D5  |  4294844629 |
|    1095 | 0x16BE      |        5822 |
|    1096 | 0xFFFFB1D0  |  4294947280 |
|    1097 | 0xFFFE1BA7  |  4294843303 |
|    1098 | 0x2316      |        8982 |
|    1099 | 0x00DA      |         218 |
|    1100 | 0xFFFFA215  |  4294943253 |
|    1101 | 0xFFFE1BB3  |  4294843315 |
|    1102 | 0x2251      |        8785 |
|    1103 | 0x00DD      |         221 |
|    1104 | 0xFFFFBB9B  |  4294949787 |
|    1105 | 0xFFFE4FFD  |  4294856701 |
|    1106 | 0x1F57      |        8023 |
|    1107 | 0x0141      |         321 |
|    1108 | 0xFFFFA2FC  |  4294943484 |
|    1109 | 0xFFFE5A79  |  4294859385 |
|    1110 | 0x1E40      |        7744 |
|    1111 | 0x00ED      |         237 |
|    1112 | 0xFFFFBE65  |  4294950501 |
|    1113 | 0xFFFE14DF  |  4294841567 |
|    1114 | 0x215A      |        8538 |
|    1115 | 0x00E5      |         229 |
|    1116 | 0x1A610     |      108048 |
|    1117 | 0xFFFD6408  |  4294796296 |
|    1118 | 0x1FFA      |        8186 |
|    1119 | 0x0AE6      |        2790 |
|    1120 | 0x1EE1      |        7905 |
|    1121 | 0x1EE2      |        7906 |
|    1122 | 0x1EE3      |        7907 |
|    1123 | 0x0202      |         514 |
|    1124 | 0x1EE4      |        7908 |
|    1125 | 0x1EE5      |        7909 |
|    1126 | 0x1EE6      |        7910 |
|    1127 | 0x1EE7      |        7911 |
|    1128 | 0x1EE8      |        7912 |
|    1129 | 0x1EE9      |        7913 |
|    1130 | 0x1EEA      |        7914 |
|    1131 | 0x1EEB      |        7915 |
|    1132 | 0x1EEC      |        7916 |
|    1133 | 0x1EED      |        7917 |
|    1134 | 0x1EEE      |        7918 |
|    1135 | 0x1EEF      |        7919 |
|    1136 | 0x1EF0      |        7920 |
|    1137 | 0x1EF1      |        7921 |
|    1138 | 0x1EF3      |        7923 |
|    1139 | 0x1EF4      |        7924 |
|    1140 | 0x0B45      |        2885 |
|    1141 | 0x1EF5      |        7925 |
|    1142 | 0x00EB      |         235 |
|    1143 | 0x1EF6      |        7926 |
|    1144 | 0x0032      |          50 |
|    1145 | 0x0941      |        2369 |
|    1146 | 0x1EF7      |        7927 |
|    1147 | 0x1A108     |      106760 |
|    1148 | 0xFFFD7FD7  |  4294803415 |
|    1149 | 0x2148      |        8520 |
|    1150 | 0x08CA      |        2250 |
|    1151 | 0x08E0      |        2272 |
|    1152 | 0x1B9B5     |      113077 |
|    1153 | 0xFFFD7ACA  |  4294802122 |
|    1154 | 0x08C3      |        2243 |
|    1155 | 0x1A856     |      108630 |
|    1156 | 0xFFFD85FF  |  4294804991 |
|    1157 | 0x20AE      |        8366 |
|    1158 | 0x08EE      |        2286 |
|    1159 | 0x1CDCE     |      118222 |
|    1160 | 0xFFFD7224  |  4294799908 |
|    1161 | 0x071D      |        1821 |
|    1162 | 0x092B      |        2347 |
|    1163 | 0x1B443     |      111683 |
|    1164 | 0xFFFD7AE7  |  4294802151 |
|    1165 | 0x08E1      |        2273 |
|    1166 | 0x11C60     |       72800 |
|    1167 | 0xFFFD358D  |  4294784397 |
|    1168 | 0xFFFFF151  |  4294963537 |
|    1169 | 0x0A8C      |        2700 |
|    1170 | 0x1D180     |      119168 |
|    1171 | 0xFFFD841D  |  4294804509 |
|    1172 | 0x0EAB      |        3755 |
|    1173 | 0x1EF8      |        7928 |
|    1174 | 0x1EF9      |        7929 |
|    1175 | 0xFFFF9B37  |  4294941495 |
|    1176 | 0xFFFDDFCE  |  4294827982 |
|    1177 | 0xFFFFFF88  |  4294967176 |
|    1178 | 0x0063      |          99 |
|    1179 | 0x1EFA      |        7930 |
|    1180 | 0x1EFB      |        7931 |
|    1181 | 0x1EFC      |        7932 |
|    1182 | 0x08ED      |        2285 |
|    1183 | 0x117AB     |       71595 |
|    1184 | 0xFFFDA6BF  |  4294813375 |
|    1185 | 0x1DE8      |        7656 |
|    1186 | 0x05A4      |        1444 |
|    1187 | 0x1EFD      |        7933 |
|    1188 | 0x1EFE      |        7934 |
|    1189 | 0x0010      |          16 |
|    1190 | 0x1EFF      |        7935 |
|    1191 | 0x00C7      |         199 |
|    1192 | 0x1F00      |        7936 |
|    1193 | 0x1F01      |        7937 |
|    1194 | 0x1F02      |        7938 |
|    1195 | 0x1F03      |        7939 |
|    1196 | 0x10B5A     |       68442 |
|    1197 | 0xFFFD34D1  |  4294784209 |
|    1198 | 0xFFFFFDA2  |  4294966690 |
|    1199 | 0x09A6      |        2470 |
|    1200 | 0x10516     |       66838 |
|    1201 | 0xFFFD35C8  |  4294784456 |
|    1202 | 0xFFFFFCE5  |  4294966501 |
|    1203 | 0xFE8F      |       65167 |
|    1204 | 0xFFFD36AC  |  4294784684 |
|    1205 | 0xFFFFFBC4  |  4294966212 |
|    1206 | 0x09D1      |        2513 |
|    1207 | 0xFFFE26AA  |  4294846122 |
|    1208 | 0x091A      |        2330 |
|    1209 | 0xFFFFEAE6  |  4294961894 |
|    1210 | 0xFFFE0941  |  4294838593 |
|    1211 | 0x1E1D      |        7709 |
|    1212 | 0x0204      |         516 |
|    1213 | 0xFFFDD5C1  |  4294825409 |
|    1214 | 0x15C6      |        5574 |
|    1215 | 0xFFFE05F2  |  4294837746 |
|    1216 | 0x1D05      |        7429 |
|    1217 | 0x1F04      |        7940 |
|    1218 | 0x1F05      |        7941 |
|    1219 | 0x1F06      |        7942 |
|    1220 | 0x0801      |        2049 |
|    1221 | 0x1F08      |        7944 |
|    1222 | 0x1F09      |        7945 |
|    1223 | 0x85E6      |       34278 |
|    1224 | 0xFFFDE93E  |  4294830398 |
|    1225 | 0x11F2      |        4594 |
|    1226 | 0x3C44      |       15428 |
|    1227 | 0xFFFE0A76  |  4294838902 |
|    1228 | 0x65F3      |       26099 |
|    1229 | 0xFFFE2725  |  4294846245 |
|    1230 | 0x218A      |        8586 |
|    1231 | 0x088D      |        2189 |
|    1232 | 0x4FE4      |       20452 |
|    1233 | 0xFFFE2883  |  4294846595 |
|    1234 | 0x2310      |        8976 |
|    1235 | 0x0022      |          34 |
|    1236 | 0x29CF      |       10703 |
|    1237 | 0xFFFE0BDC  |  4294839260 |
|    1238 | 0x1D98      |        7576 |
|    1239 | 0x002F      |          47 |
|    1240 | 0xEED5      |       61141 |
|    1241 | 0xFFFDF25F  |  4294832735 |
|    1242 | 0x1C4D      |        7245 |
|    1243 | 0x125EF     |       75247 |
|    1244 | 0xFFFDEF2D  |  4294831917 |
|    1245 | 0x0471      |        1137 |
|    1246 | 0x10EFF     |       69375 |
|    1247 | 0xFFFDEA1D  |  4294830621 |
|    1248 | 0x1B2A      |        6954 |
|    1249 | 0x10107     |       65799 |
|    1250 | 0xFFFDFCC4  |  4294835396 |
|    1251 | 0x1029E     |       66206 |
|    1252 | 0xFFFDF811  |  4294834193 |
|    1253 | 0x1DAB      |        7595 |
|    1254 | 0xE60F      |       58895 |
|    1255 | 0xFFFDCD7C  |  4294823292 |
|    1256 | 0x1000      |        4096 |
|    1257 | 0xE582      |       58754 |
|    1258 | 0xFFFDCFB5  |  4294823861 |
|    1259 | 0x0FE3      |        4067 |
|    1260 | 0xE3D8      |       58328 |
|    1261 | 0xFFFDD3BD  |  4294824893 |
|    1262 | 0x0FF9      |        4089 |
|    1263 | 0xE26E      |       57966 |
|    1264 | 0xFFFDD79C  |  4294825884 |
|    1265 | 0x1019      |        4121 |
|    1266 | 0x10DBE     |       69054 |
|    1267 | 0xFFFD608E  |  4294795406 |
|    1268 | 0xFFFFFB65  |  4294966117 |
|    1269 | 0x28D1      |       10449 |
|    1270 | 0xFFFE25B4  |  4294845876 |
|    1271 | 0x1A9A      |        6810 |
|    1272 | 0x06F8      |        1784 |
|    1273 | 0xFFFE223D  |  4294844989 |
|    1274 | 0x1A67      |        6759 |
|    1275 | 0x0EEE      |        3822 |
|    1276 | 0x7556      |       30038 |
|    1277 | 0xFFFDECE2  |  4294831330 |
|    1278 | 0x0FF0      |        4080 |
|    1279 | 0x0184      |         388 |
|    1280 | 0x111FD     |       70141 |
|    1281 | 0xFFFDC53A  |  4294821178 |
|    1282 | 0x1F0A      |        7946 |
|    1283 | 0x1F0B      |        7947 |
|    1284 | 0x1F0C      |        7948 |
|    1285 | 0x1F0D      |        7949 |
|    1286 | 0x1F0E      |        7950 |
|    1287 | 0xDD93      |       56723 |
|    1288 | 0xFFFDF897  |  4294834327 |
|    1289 | 0x1C00      |        7168 |
|    1290 | 0x00B9      |         185 |
|    1291 | 0x11762     |       71522 |
|    1292 | 0xFFFDEF84  |  4294832004 |
|    1293 | 0x1DA1      |        7585 |
|    1294 | 0x0052      |          82 |
|    1295 | 0x11469     |       70761 |
|    1296 | 0xFFFDF54F  |  4294833487 |
|    1297 | 0x0025      |          37 |
|    1298 | 0x11461     |       70753 |
|    1299 | 0xFFFDF8DE  |  4294834398 |
|    1300 | 0x1F23      |        7971 |
|    1301 | 0x1F0F      |        7951 |
|    1302 | 0x1F10      |        7952 |
|    1303 | 0x1F11      |        7953 |
|    1304 | 0x1F12      |        7954 |
|    1305 | 0x041A      |        1050 |
|    1306 | 0x1F13      |        7955 |
|    1307 | 0x1F14      |        7956 |
|    1308 | 0x1F15      |        7957 |
|    1309 | 0x1F16      |        7958 |
|    1310 | 0x1F17      |        7959 |
|    1311 | 0x1F18      |        7960 |
|    1312 | 0x0906      |        2310 |
|    1313 | 0x1F19      |        7961 |
|    1314 | 0x02FC      |         764 |
|    1315 | 0x2774      |       10100 |
|    1316 | 0x2775      |       10101 |
|    1317 | 0x2776      |       10102 |
|    1318 | 0x2777      |       10103 |
|    1319 | 0x2778      |       10104 |
|    1320 | 0x09AA      |        2474 |
|    1321 | 0x2779      |       10105 |
|    1322 | 0x277A      |       10106 |
|    1323 | 0x277B      |       10107 |
|    1324 | 0x001B      |          27 |
|    1325 | 0xFFF98579  |  4294542713 |
|    1326 | 0xFFFC997A  |  4294744442 |
|    1327 | 0xFFF9852E  |  4294542638 |
|    1328 | 0xFFFCAA18  |  4294748696 |
|    1329 | 0x03E9      |        1001 |
|    1330 | 0x277C      |       10108 |
|    1331 | 0x277D      |       10109 |
|    1332 | 0x277E      |       10110 |
|    1333 | 0x277F      |       10111 |
|    1334 | 0x2780      |       10112 |
|    1335 | 0x2781      |       10113 |
|    1336 | 0x2782      |       10114 |
|    1337 | 0x2783      |       10115 |
|    1338 | 0x2784      |       10116 |
|    1339 | 0x2785      |       10117 |
|    1340 | 0x03E8      |        1000 |
|    1341 | 0x2786      |       10118 |
|    1342 | 0x2787      |       10119 |
|    1343 | 0x2788      |       10120 |
|    1344 | 0x0584      |        1412 |
|    1345 | 0x278B      |       10123 |
|    1346 | 0x278C      |       10124 |
|    1347 | 0x278D      |       10125 |
|    1348 | 0x278E      |       10126 |
|    1349 | 0x278F      |       10127 |
|    1350 | 0x2790      |       10128 |
|    1351 | 0x2791      |       10129 |
|    1352 | 0x2792      |       10130 |
|    1353 | 0x2793      |       10131 |
|    1354 | 0x2794      |       10132 |
|    1355 | 0x2789      |       10121 |
|    1356 | 0x278A      |       10122 |
|    1357 | 0x2795      |       10133 |
|    1358 | 0x2796      |       10134 |
|    1359 | 0x2797      |       10135 |
|    1360 | 0x2798      |       10136 |
|    1361 | 0x2799      |       10137 |
|    1362 | 0x279A      |       10138 |
|    1363 | 0x279B      |       10139 |
|    1364 | 0x279D      |       10141 |
|    1365 | 0x279C      |       10140 |
|    1366 | 0x279E      |       10142 |
|    1367 | 0x279F      |       10143 |
|    1368 | 0x27A0      |       10144 |
|    1369 | 0x27A1      |       10145 |
|    1370 | 0x27A2      |       10146 |
|    1371 | 0x27A3      |       10147 |
|    1372 | 0x27A4      |       10148 |
|    1373 | 0x27A5      |       10149 |
|    1374 | 0x27A6      |       10150 |
|    1375 | 0x27A7      |       10151 |
|    1376 | 0xFFF98CE8  |  4294544616 |
|    1377 | 0xFFFCAC8D  |  4294749325 |
|    1378 | 0x4A37      |       18999 |
|    1379 | 0xFFF984CA  |  4294542538 |
|    1380 | 0xFFFCA9B4  |  4294748596 |
|    1381 | 0x496F      |       18799 |
|    1382 | 0xFFF98504  |  4294542596 |
|    1383 | 0x4CF3      |       19699 |
|    1384 | 0xFFFCA982  |  4294748546 |
|    1385 | 0x4A69      |       19049 |
|    1386 | 0x0F26      |        3878 |
|    1387 | 0x02FD      |         765 |
|    1388 | 0x0854      |        2132 |
|    1389 | 0x27AB      |       10155 |
|    1390 | 0x27AC      |       10156 |
|    1391 | 0x27AD      |       10157 |
|    1392 | 0x0856      |        2134 |
|    1393 | 0x27AE      |       10158 |
|    1394 | 0x27AF      |       10159 |
|    1395 | 0x27B0      |       10160 |
|    1396 | 0x27B1      |       10161 |
|    1397 | 0x27B2      |       10162 |
|    1398 | 0x27B3      |       10163 |
|    1399 | 0x0857      |        2135 |
|    1400 | 0x085B      |        2139 |
|    1401 | 0x27B4      |       10164 |
|    1402 | 0x27B5      |       10165 |
|    1403 | 0x27B6      |       10166 |
|    1404 | 0x27B7      |       10167 |
|    1405 | 0x00D5      |         213 |
|    1406 | 0xFFFEA070  |  4294877296 |
|    1407 | 0x27B8      |       10168 |
|    1408 | 0x01E0      |         480 |
|    1409 | 0x27B9      |       10169 |
|    1410 | 0xFFFFFF52  |  4294967122 |
|    1411 | 0x0514      |        1300 |
|    1412 | 0x27BA      |       10170 |
|    1413 | 0x27BB      |       10171 |
|    1414 | 0x27BC      |       10172 |
|    1415 | 0x27BD      |       10173 |
|    1416 | 0x27BE      |       10174 |
|    1417 | 0x27BF      |       10175 |
|    1418 | 0x27C0      |       10176 |
|    1419 | 0x27C1      |       10177 |
|    1420 | 0x27C2      |       10178 |
|    1421 | 0x27C3      |       10179 |
|    1422 | 0x27C4      |       10180 |
|    1423 | 0x27C5      |       10181 |
|    1424 | 0x00BE      |         190 |
|    1425 | 0x27C7      |       10183 |
|    1426 | 0x27C8      |       10184 |
|    1427 | 0x27C9      |       10185 |
|    1428 | 0x27CA      |       10186 |
|    1429 | 0x27CB      |       10187 |
|    1430 | 0x27CC      |       10188 |
|    1431 | 0x27CD      |       10189 |
|    1432 | 0x27CE      |       10190 |
|    1433 | 0x27CF      |       10191 |
|    1434 | 0x27D0      |       10192 |
|    1435 | 0x27D1      |       10193 |
|    1436 | 0x0067      |         103 |
|    1437 | 0x27D2      |       10194 |
|    1438 | 0x0F3A      |        3898 |
|    1439 | 0x0075      |         117 |
|    1440 | 0x008C      |         140 |
|    1441 | 0x27D6      |       10198 |
|    1442 | 0x27D7      |       10199 |
|    1443 | 0x0033      |          51 |
|    1444 | 0x27D8      |       10200 |
|    1445 | 0x27DA      |       10202 |
|    1446 | 0x27DB      |       10203 |
|    1447 | 0x27DC      |       10204 |
|    1448 | 0x27E0      |       10208 |
|    1449 | 0x27E1      |       10209 |
|    1450 | 0x27E3      |       10211 |
|    1451 | 0x27E4      |       10212 |
|    1452 | 0x27E5      |       10213 |

## String References

- **7771**: What will you do? [Squash it./Steer clear.]
- **7781**: You find yourself alone. Perhaps a search could turn up some sort of clue...
- **7782**: Among the rubble, a number of small stones are [strewn about/lined up neatly].
- **7783**: Will you investigate further? [Yes, press on./No, back off.]
- **8120**: <Player> is engulfed by the cavernous maw!
- **8121**: A disembodied metallic voice drifts towards you...
- **8122**: You sense the gaze of the cavernous maw upon you.
- **8131**: Do you see how blue? [Oh yes, completely blue./You seem black and white to me...]
- **8144**: The regal feline peers intently at <Player>.
- **8156**: Are you up to the task? [I'll do it!/It's not my time...]
- **8172**: @@
- **10120**: Why are you here? [I need Iroha to be accepted./No real reason.]
- **10129**: Well? [Of course I'm upset!/Isn't there anything we can do?/I...suppose not.]
- **10163**: Have you had odd dreams? [Not dreams, but visions.../Not really.]
- **10176**: How do you respond? [I'll think of something./I need your help./...]

## Events

### Event 65535

#### Metadata

| Field        | Value   |
|--------------|---------|
| Entrypoint   | 0x0000  |
| Data Size    | 1 bytes |
| Instructions | 1       |

```
      00 01 02 03 04 05 06 07  08 09 0A 0B 0C 0D 0E 0F
      -- -- -- -- -- -- -- --  -- -- -- -- -- -- -- --
0000: 00                                                .               
```

#### Opcodes

```
  0: 0x0000 [0x00] END_REQSTACK()
```

### Event 700

#### Metadata

| Field        | Value      |
|--------------|------------|
| Entrypoint   | 0x0001     |
| Data Size    | 8062 bytes |
| Instructions | 966        |

```
      00 01 02 03 04 05 06 07  08 09 0A 0B 0C 0D 0E 0F
      -- -- -- -- -- -- -- --  -- -- -- -- -- -- -- --
0000:    42 1A A7 B1 5D 00 80  01 80 03 01 10 02 80 43   B...].........C
0010: 00 43 01 03 00 00 02 10  03 01 00 09 10 46 01 38  .C...........F.8
0020: 03 80 4E 00 F0 FF FF 7F  02 00 00 00 80 01 33 00  ..N...........3.
0030: 34 04 80 77 05 80 00 80  1C 06 80 AB 09 27 10 D9  4..w.........'..
0040: 22 06 01 04 27 10 DA 22  06 01 04 27 10 DD 22 06  "...'.."...'..".
0050: 01 04 27 10 DE 22 06 01  04 27 10 DF 22 06 01 04  ..'.."...'.."...
0060: 27 10 E0 22 06 01 04 27  10 E1 22 06 01 04 27 10  '.."...'.."...'.
0070: E2 22 06 01 04 27 10 E3  22 06 01 04 27 10 E4 22  ."...'.."...'.."
0080: 06 01 04 29 10 D9 22 06  01 09 29 10 DA 22 06 01  ...).."...).."..
0090: 09 29 10 DF 22 06 01 09  29 10 E0 22 06 01 09 29  .).."...).."...)
00A0: 10 E1 22 06 01 09 29 10  E2 22 06 01 09 29 10 E3  .."...).."...)..
00B0: 22 06 01 09 29 10 E4 22  06 01 09 92 01 D9 22 06  "...).."......".
00C0: 01 92 01 DA 22 06 01 92  01 DD 22 06 01 92 01 DE  ....".....".....
00D0: 22 06 01 92 01 DF 22 06  01 92 01 E0 22 06 01 92  "....."....."...
00E0: 01 E1 22 06 01 92 01 E2  22 06 01 92 01 E3 22 06  ..".....".....".
00F0: 01 92 01 E4 22 06 01 94  01 D9 22 06 01 94 01 DA  ....".....".....
0100: 22 06 01 94 01 DD 22 06  01 94 01 DE 22 06 01 94  "....."....."...
0110: 01 DF 22 06 01 94 01 E0  22 06 01 94 01 E1 22 06  ..".....".....".
0120: 01 94 01 E2 22 06 01 94  01 E3 22 06 01 94 01 E4  ....".....".....
0130: 22 06 01 BA D9 22 06 01  07 80 08 80 09 80 0A 80  "...."..........
0140: BA DA 22 06 01 0B 80 0C  80 0D 80 0E 80 BA DD 22  .."............"
0150: 06 01 0F 80 10 80 11 80  12 80 BA DE 22 06 01 13  ............"...
0160: 80 14 80 15 80 16 80 BA  DF 22 06 01 17 80 18 80  ........."......
0170: 19 80 1A 80 BA E0 22 06  01 1B 80 1C 80 1D 80 1E  ......".........
0180: 80 BA E1 22 06 01 1F 80  20 80 21 80 22 80 BA E2  ...".... .!."...
0190: 22 06 01 23 80 24 80 25  80 26 80 BA E3 22 06 01  "..#.$.%.&..."..
01A0: 27 80 28 80 29 80 2A 80  BA E4 22 06 01 2B 80 2C  '.(.).*..."..+.,
01B0: 80 2D 80 2E 80 80 D9 22  06 01 80 DA 22 06 01 80  .-....."...."...
01C0: DD 22 06 01 80 DE 22 06  01 80 DF 22 06 01 80 E0  ."...."...."....
01D0: 22 06 01 80 E1 22 06 01  80 E2 22 06 01 80 E3 22  "...."...."...."
01E0: 06 01 80 E4 22 06 01 1C  2F 80 45 30 80 F0 FF FF  ....".../.E0....
01F0: 7F F0 FF FF 7F 6D 32 30  31 00 80 1A 86 B1 1C 31  .....m201......1
0200: 80 4A DD 22 06 01 D9 22  06 01 4A DE 22 06 01 DA  .J."..."..J."...
0210: 22 06 01 5C 00 32 80 5C  01 32 80 9A 27 10 D9 22  "..\.2.\.2..'.."
0220: 06 01 0D 27 10 DA 22 06  01 21 4A DD 22 06 01 D9  ...'.."..!J."...
0230: 22 06 01 1C 06 80 4A DE  22 06 01 DA 22 06 01 1C  ".....J."..."...
0240: 2F 80 52 30 80 F0 FF FF  7F F0 FF FF 7F 6D 32 30  /.R0.........m20
0250: 31 45 30 80 F0 FF FF 7F  F0 FF FF 7F 6D 32 31 30  1E0.........m210
0260: 00 80 9F 33 80 F8 FF FF  7F F8 FF FF 7F 73 74 72  ...3.........str
0270: 30 00 80 1C 34 80 9F 33  80 F8 FF FF 7F F8 FF FF  0...4..3........
0280: 7F 6B 69 6C 6C 00 80 1C  31 80 52 30 80 F0 FF FF  .kill...1.R0....
0290: 7F F0 FF FF 7F 6D 32 31  30 45 30 80 F0 FF FF 7F  .....m210E0.....
02A0: F0 FF FF 7F 6D 32 31 31  00 80 2B D9 22 06 01 35  ....m211..+."..5
02B0: 80 9F 33 80 F8 FF FF 7F  F8 FF FF 7F 73 74 72 30  ..3.........str0
02C0: 00 80 1C 34 80 9F 33 80  F8 FF FF 7F F8 FF FF 7F  ...4..3.........
02D0: 6B 69 6C 6C 00 80 1C 06  80 52 30 80 F0 FF FF 7F  kill.....R0.....
02E0: F0 FF FF 7F 6D 32 31 31  45 30 80 F0 FF FF 7F F0  ....m211E0......
02F0: FF FF 7F 6D 32 31 33 00  80 1C 36 80 52 30 80 F0  ...m213...6.R0..
0300: FF FF 7F F0 FF FF 7F 6D  32 31 33 45 30 80 F0 FF  .......m213E0...
0310: FF 7F F0 FF FF 7F 6D 32  31 32 00 80 1C 06 80 9F  ......m212......
0320: 33 80 F8 FF FF 7F F8 FF  FF 7F 73 74 72 30 00 80  3.........str0..
0330: 1C 37 80 9F 33 80 F8 FF  FF 7F F8 FF FF 7F 6B 69  .7..3.........ki
0340: 6C 6C 00 80 2B DA 22 06  01 38 80 23 2A 10 DA 22  ll..+."..8.#*.."
0350: 06 01 27 10 D9 22 06 01  0B 27 10 DA 22 06 01 0B  ..'.."...'.."...
0360: 1C 39 80 52 30 80 F0 FF  FF 7F F0 FF FF 7F 6D 32  .9.R0.........m2
0370: 31 32 45 30 80 F0 FF FF  7F F0 FF FF 7F 6D 32 30  12E0.........m20
0380: 30 00 80 1C 3A 80 1C 31  80 52 30 80 F0 FF FF 7F  0...:..1.R0.....
0390: F0 FF FF 7F 6D 32 30 30  45 30 80 F0 FF FF 7F F0  ....m200E0......
03A0: FF FF 7F 6D 32 30 32 00  80 2B D9 22 06 01 3B 80  ...m202..+."..;.
03B0: 1C 31 80 52 30 80 F0 FF  FF 7F F0 FF FF 7F 6D 32  .1.R0.........m2
03C0: 30 32 45 30 80 F0 FF FF  7F F0 FF FF 7F 6D 32 30  02E0.........m20
03D0: 33 00 80 1C 06 80 9F 33  80 F8 FF FF 7F F8 FF FF  3......3........
03E0: 7F 73 74 72 30 00 80 1C  37 80 9F 33 80 F8 FF FF  .str0...7..3....
03F0: 7F F8 FF FF 7F 6B 69 6C  6C 00 80 2B DA 22 06 01  .....kill..+."..
0400: 3C 80 1C 06 80 52 30 80  F0 FF FF 7F F0 FF FF 7F  <....R0.........
0410: 6D 32 30 33 45 30 80 F0  FF FF 7F F0 FF FF 7F 6D  m203E0.........m
0420: 32 30 34 00 80 9F 33 80  F8 FF FF 7F F8 FF FF 7F  204...3.........
0430: 73 74 72 30 00 80 1C 34  80 9F 33 80 F8 FF FF 7F  str0...4..3.....
0440: F8 FF FF 7F 6B 69 6C 6C  00 80 1C 06 80 52 30 80  ....kill.....R0.
0450: F0 FF FF 7F F0 FF FF 7F  6D 32 30 34 45 30 80 F0  ........m204E0..
0460: FF FF 7F F0 FF FF 7F 6D  32 30 35 00 80 1C 3D 80  .......m205...=.
0470: 9F 33 80 F8 FF FF 7F F8  FF FF 7F 73 74 72 30 00  .3.........str0.
0480: 80 1C 3E 80 9F 33 80 F8  FF FF 7F F8 FF FF 7F 6B  ..>..3.........k
0490: 69 6C 6C 00 80 1C 37 80  27 10 DF 22 06 01 0B 27  ill...7.'.."...'
04A0: 10 E0 22 06 01 0B 27 10  E1 22 06 01 0B 27 10 E2  .."...'.."...'..
04B0: 22 06 01 0B 27 10 E3 22  06 01 0B 27 10 E4 22 06  "...'.."...'..".
04C0: 01 0B 1C 37 80 52 30 80  F0 FF FF 7F F0 FF FF 7F  ...7.R0.........
04D0: 6D 32 30 35 45 30 80 F0  FF FF 7F F0 FF FF 7F 6D  m205E0.........m
04E0: 32 30 36 00 80 9F 33 80  F8 FF FF 7F F8 FF FF 7F  206...3.........
04F0: 73 74 72 30 00 80 2A 10  DA 22 06 01 9F 33 80 F8  str0..*.."...3..
0500: FF FF 7F F8 FF FF 7F 6B  69 6C 6C 00 80 7A 00 DF  .......kill..z..
0510: 22 06 01 7A 00 E0 22 06  01 7A 00 E1 22 06 01 7A  "..z.."..z.."..z
0520: 00 E2 22 06 01 7A 00 E3  22 06 01 7A 00 E4 22 06  .."..z.."..z..".
0530: 01 1C 34 80 52 30 80 F0  FF FF 7F F0 FF FF 7F 6D  ..4.R0.........m
0540: 32 30 36 45 30 80 F0 FF  FF 7F F0 FF FF 7F 6D 32  206E0.........m2
0550: 30 37 00 80 BA DD 22 06  01 3F 80 40 80 41 80 42  07...."..?.@.A.B
0560: 80 BA DE 22 06 01 43 80  44 80 45 80 46 80 2B DA  ..."..C.D.E.F.+.
0570: 22 06 01 47 80 23 5D 00  80 01 80 27 10 D9 22 06  "..G.#]....'..".
0580: 01 0C 27 10 DE 22 06 01  09 27 10 DF 22 06 01 0B  ..'.."...'.."...
0590: 27 10 E0 22 06 01 0B 27  10 E1 22 06 01 0B 27 10  '.."...'.."...'.
05A0: E2 22 06 01 0B 27 10 E3  22 06 01 0B 27 10 E4 22  ."...'.."...'.."
05B0: 06 01 0B 52 30 80 F0 FF  FF 7F F0 FF FF 7F 6D 32  ...R0.........m2
05C0: 30 37 45 30 80 F0 FF FF  7F F0 FF FF 7F 6D 32 30  07E0.........m20
05D0: 38 00 80 1C 31 80 1A A7  B1 1C 06 80 7A 00 D9 22  8...1.......z.."
05E0: 06 01 7A 00 DF 22 06 01  7A 00 E0 22 06 01 7A 00  ..z.."..z.."..z.
05F0: E1 22 06 01 7A 00 E2 22  06 01 7A 00 E3 22 06 01  ."..z.."..z.."..
0600: 7A 00 E4 22 06 01 1C 2F  80 29 10 D9 22 06 01 0A  z..".../.).."...
0610: 29 10 DA 22 06 01 0A 29  10 DF 22 06 01 0A 29 10  ).."...).."...).
0620: E0 22 06 01 0A 29 10 E1  22 06 01 0A 29 10 E2 22  ."...).."...).."
0630: 06 01 0A 29 10 E3 22 06  01 0A 29 10 E4 22 06 01  ...).."...).."..
0640: 0A 1C 2F 80 02 00 00 02  80 80 52 06 35 48 80 01  ../.......R.5H..
0650: 60 06 02 00 00 49 80 80  60 06 35 4A 80 01 60 06  `....I..`.5J..`.
0660: 78 4E 01 D9 22 06 01 4E  01 DF 22 06 01 4E 01 E0  xN.."..N.."..N..
0670: 22 06 01 4E 01 E1 22 06  01 4E 01 E2 22 06 01 4E  "..N.."..N.."..N
0680: 01 E3 22 06 01 4E 01 E4  22 06 01 27 10 DA 22 06  .."..N.."..'..".
0690: 01 04 27 10 DB 22 06 01  04 27 10 DC 22 06 01 04  ..'.."...'.."...
06A0: 27 10 DA 22 06 01 09 27  10 DB 22 06 01 09 27 10  '.."...'.."...'.
06B0: DC 22 06 01 09 92 01 CE  22 06 01 92 01 DA 22 06  ."......".....".
06C0: 01 92 01 DB 22 06 01 92  01 DC 22 06 01 94 01 F0  ....".....".....
06D0: FF FF 7F 94 01 CE 22 06  01 94 01 DA 22 06 01 94  ......"....."...
06E0: 01 DB 22 06 01 94 01 DC  22 06 01 02 00 00 00 80  ..".....".......
06F0: 80 2A 07 BA F0 FF FF 7F  4B 80 4C 80 4D 80 4E 80  .*......K.L.M.N.
0700: BA DA 22 06 01 4F 80 50  80 51 80 52 80 BA DB 22  .."..O.P.Q.R..."
0710: 06 01 53 80 54 80 55 80  56 80 BA DC 22 06 01 57  ..S.T.U.V..."..W
0720: 80 58 80 59 80 5A 80 01  A8 07 02 00 00 02 80 80  .X.Y.Z..........
0730: 69 07 BA F0 FF FF 7F 5B  80 5C 80 5D 80 5E 80 BA  i......[.\.].^..
0740: DA 22 06 01 5F 80 60 80  61 80 62 80 BA DB 22 06  .".._.`.a.b...".
0750: 01 63 80 64 80 5D 80 65  80 BA DC 22 06 01 66 80  .c.d.].e..."..f.
0760: 67 80 68 80 69 80 01 A8  07 02 00 00 49 80 80 A8  g.h.i.......I...
0770: 07 BA F0 FF FF 7F 6A 80  6B 80 6C 80 6D 80 BA DA  ......j.k.l.m...
0780: 22 06 01 6E 80 6F 80 70  80 71 80 BA DB 22 06 01  "..n.o.p.q..."..
0790: 72 80 73 80 74 80 71 80  BA DC 22 06 01 75 80 76  r.s.t.q..."..u.v
07A0: 80 77 80 78 80 01 A8 07  80 F0 FF FF 7F 80 CE 22  .w.x..........."
07B0: 06 01 80 DA 22 06 01 80  DB 22 06 01 80 DC 22 06  ...."...."....".
07C0: 01 2C F0 FF FF 7F F0 FF  FF 7F 63 6F 72 70 48 79  .,........corpHy
07D0: 80 23 1C 2F 80 02 00 00  00 80 80 F1 07 45 30 80  .#./.........E0.
07E0: F0 FF FF 7F F0 FF FF 7F  6E 73 30 30 00 80 01 29  ........ns00...)
07F0: 08 02 00 00 02 80 80 0D  08 45 30 80 F0 FF FF 7F  .........E0.....
0800: F0 FF FF 7F 72 73 30 30  00 80 01 29 08 02 00 00  ....rs00...)....
0810: 49 80 80 29 08 45 30 80  F0 FF FF 7F F0 FF FF 7F  I..).E0.........
0820: 61 73 30 30 00 80 01 29  08 45 7A 80 F8 FF FF 7F  as00...).Ez.....
0830: F8 FF FF 7F 66 64 69 32  00 80 02 00 00 00 80 80  ....fdi2........
0840: 8B 08 55 30 80 F0 FF FF  7F F0 FF FF 7F 6E 73 30  ..U0.........ns0
0850: 30 45 30 80 F0 FF FF 7F  F0 FF FF 7F 6E 73 30 31  0E0.........ns01
0860: 00 80 9F 33 80 F8 FF FF  7F F8 FF FF 7F 73 74 72  ...3.........str
0870: 30 00 80 27 10 DB 22 06  01 0B 27 10 DC 22 06 01  0..'.."...'.."..
0880: 0B 27 10 DA 22 06 01 0C  01 2D 09 02 00 00 02 80  .'.."....-......
0890: 80 DC 08 55 30 80 F0 FF  FF 7F F0 FF FF 7F 72 73  ...U0.........rs
08A0: 30 30 45 30 80 F0 FF FF  7F F0 FF FF 7F 72 73 30  00E0.........rs0
08B0: 31 00 80 9F 33 80 F8 FF  FF 7F F8 FF FF 7F 73 74  1...3.........st
08C0: 72 30 00 80 27 10 DB 22  06 01 11 27 10 DC 22 06  r0..'.."...'..".
08D0: 01 11 27 10 DA 22 06 01  13 01 2D 09 02 00 00 49  ..'.."....-....I
08E0: 80 80 2D 09 55 30 80 F0  FF FF 7F F0 FF FF 7F 61  ..-.U0.........a
08F0: 73 30 30 45 30 80 F0 FF  FF 7F F0 FF FF 7F 61 73  s00E0.........as
0900: 30 31 00 80 9F 33 80 F8  FF FF 7F F8 FF FF 7F 73  01...3.........s
0910: 74 72 30 00 80 27 10 DB  22 06 01 17 27 10 DC 22  tr0..'.."...'.."
0920: 06 01 17 27 10 DA 22 06  01 1A 01 2D 09 1C 31 80  ...'.."....-..1.
0930: 2B DB 22 06 01 7B 80 1C  34 80 9F 33 80 F8 FF FF  +."..{..4..3....
0940: 7F F8 FF FF 7F 6B 69 6C  6C 00 80 1C 34 80 02 00  .....kill...4...
0950: 00 00 80 80 79 09 52 30  80 F0 FF FF 7F F0 FF FF  ....y.R0........
0960: 7F 6E 73 30 31 45 30 80  F0 FF FF 7F F0 FF FF 7F  .ns01E0.........
0970: 6E 73 30 34 00 80 01 CF  09 02 00 00 02 80 80 A4  ns04............
0980: 09 52 30 80 F0 FF FF 7F  F0 FF FF 7F 72 73 30 31  .R0.........rs01
0990: 45 30 80 F0 FF FF 7F F0  FF FF 7F 72 73 30 34 00  E0.........rs04.
09A0: 80 01 CF 09 02 00 00 49  80 80 CF 09 52 30 80 F0  .......I....R0..
09B0: FF FF 7F F0 FF FF 7F 61  73 30 31 45 30 80 F0 FF  .......as01E0...
09C0: FF 7F F0 FF FF 7F 61 73  30 34 00 80 01 CF 09 2A  ......as04.....*
09D0: 10 DA 22 06 01 03 02 10  00 00 2B DA 22 06 01 7C  ..".......+."..|
09E0: 80 23 5C 00 7D 80 5C 01  7D 80 9A 02 00 00 00 80  .#\.}.\.}.......
09F0: 80 5C 0A 52 30 80 F0 FF  FF 7F F0 FF FF 7F 6E 73  .\.R0.........ns
0A00: 30 34 45 30 80 F0 FF FF  7F F0 FF FF 7F 6E 73 30  04E0.........ns0
0A10: 35 00 80 1C 31 80 52 30  80 F0 FF FF 7F F0 FF FF  5...1.R0........
0A20: 7F 6E 73 30 35 45 30 80  F0 FF FF 7F F0 FF FF 7F  .ns05E0.........
0A30: 6E 73 30 36 00 80 1C 31  80 52 30 80 F0 FF FF 7F  ns06...1.R0.....
0A40: F0 FF FF 7F 6E 73 30 36  45 30 80 F0 FF FF 7F F0  ....ns06E0......
0A50: FF FF 7F 6E 73 30 37 00  80 01 3E 0B 02 00 00 02  ...ns07...>.....
0A60: 80 80 CD 0A 52 30 80 F0  FF FF 7F F0 FF FF 7F 72  ....R0.........r
0A70: 73 30 34 45 30 80 F0 FF  FF 7F F0 FF FF 7F 72 73  s04E0.........rs
0A80: 30 35 00 80 1C 31 80 52  30 80 F0 FF FF 7F F0 FF  05...1.R0.......
0A90: FF 7F 72 73 30 35 45 30  80 F0 FF FF 7F F0 FF FF  ..rs05E0........
0AA0: 7F 72 73 30 36 00 80 1C  31 80 52 30 80 F0 FF FF  .rs06...1.R0....
0AB0: 7F F0 FF FF 7F 72 73 30  36 45 30 80 F0 FF FF 7F  .....rs06E0.....
0AC0: F0 FF FF 7F 72 73 30 37  00 80 01 3E 0B 02 00 00  ....rs07...>....
0AD0: 49 80 80 3E 0B 52 30 80  F0 FF FF 7F F0 FF FF 7F  I..>.R0.........
0AE0: 61 73 30 34 45 30 80 F0  FF FF 7F F0 FF FF 7F 61  as04E0.........a
0AF0: 73 30 35 00 80 1C 31 80  52 30 80 F0 FF FF 7F F0  s05...1.R0......
0B00: FF FF 7F 61 73 30 35 45  30 80 F0 FF FF 7F F0 FF  ...as05E0.......
0B10: FF 7F 61 73 30 36 00 80  1C 31 80 52 30 80 F0 FF  ..as06...1.R0...
0B20: FF 7F F0 FF FF 7F 61 73  30 36 45 30 80 F0 FF FF  ......as06E0....
0B30: 7F F0 FF FF 7F 61 73 30  37 00 80 01 3E 0B 2B DA  .....as07...>.+.
0B40: 22 06 01 7E 80 23 02 00  00 00 80 80 80 0B 52 30  "..~.#........R0
0B50: 80 F0 FF FF 7F F0 FF FF  7F 6E 73 30 37 45 30 80  .........ns07E0.
0B60: F0 FF FF 7F F0 FF FF 7F  6E 73 30 38 00 80 03 02  ........ns08....
0B70: 10 00 80 03 03 10 02 80  03 04 10 49 80 01 F4 0B  ...........I....
0B80: 02 00 00 02 80 80 BA 0B  52 30 80 F0 FF FF 7F F0  ........R0......
0B90: FF FF 7F 72 73 30 37 45  30 80 F0 FF FF 7F F0 FF  ...rs07E0.......
0BA0: FF 7F 72 73 30 38 00 80  03 02 10 02 80 03 03 10  ..rs08..........
0BB0: 49 80 03 04 10 00 80 01  F4 0B 02 00 00 49 80 80  I............I..
0BC0: F4 0B 52 30 80 F0 FF FF  7F F0 FF FF 7F 61 73 30  ..R0.........as0
0BD0: 37 45 30 80 F0 FF FF 7F  F0 FF FF 7F 61 73 30 38  7E0.........as08
0BE0: 00 80 03 02 10 49 80 03  03 10 00 80 03 04 10 02  .....I..........
0BF0: 80 01 F4 0B 2B DC 22 06  01 7F 80 23 02 00 00 00  ....+."....#....
0C00: 80 80 27 0C 52 30 80 F0  FF FF 7F F0 FF FF 7F 6E  ..'.R0.........n
0C10: 73 30 38 45 30 80 F0 FF  FF 7F F0 FF FF 7F 6E 73  s08E0.........ns
0C20: 30 39 00 80 01 7D 0C 02  00 00 02 80 80 52 0C 52  09...}.......R.R
0C30: 30 80 F0 FF FF 7F F0 FF  FF 7F 72 73 30 38 45 30  0.........rs08E0
0C40: 80 F0 FF FF 7F F0 FF FF  7F 72 73 30 39 00 80 01  .........rs09...
0C50: 7D 0C 02 00 00 49 80 80  7D 0C 52 30 80 F0 FF FF  }....I..}.R0....
0C60: 7F F0 FF FF 7F 61 73 30  38 45 30 80 F0 FF FF 7F  .....as08E0.....
0C70: F0 FF FF 7F 61 73 30 39  00 80 01 7D 0C 79 00 DB  ....as09...}.y..
0C80: 22 06 01 DA 22 06 01 1C  3D 80 2B DB 22 06 01 80  "..."...=.+."...
0C90: 80 23 79 00 DC 22 06 01  DB 22 06 01 2B DC 22 06  .#y.."..."..+.".
0CA0: 01 81 80 23 02 00 00 00  80 80 CF 0C 52 30 80 F0  ...#........R0..
0CB0: FF FF 7F F0 FF FF 7F 6E  73 30 39 45 30 80 F0 FF  .......ns09E0...
0CC0: FF 7F F0 FF FF 7F 6E 73  31 30 00 80 01 25 0D 02  ......ns10...%..
0CD0: 00 00 02 80 80 FA 0C 52  30 80 F0 FF FF 7F F0 FF  .......R0.......
0CE0: FF 7F 72 73 30 39 45 30  80 F0 FF FF 7F F0 FF FF  ..rs09E0........
0CF0: 7F 72 73 31 30 00 80 01  25 0D 02 00 00 49 80 80  .rs10...%....I..
0D00: 25 0D 52 30 80 F0 FF FF  7F F0 FF FF 7F 61 73 30  %.R0.........as0
0D10: 39 45 30 80 F0 FF FF 7F  F0 FF FF 7F 61 73 31 30  9E0.........as10
0D20: 00 80 01 25 0D 7B DC 22  06 01 2B DC 22 06 01 82  ...%.{."..+."...
0D30: 80 23 7B DB 22 06 01 1C  3D 80 2B DB 22 06 01 83  .#{."...=.+."...
0D40: 80 23 02 00 00 00 80 80  DB 0D 27 10 DA 22 06 01  .#........'.."..
0D50: 0D 27 10 DC 22 06 01 0C  27 10 DB 22 06 01 0C 1C  .'.."...'.."....
0D60: 2F 80 52 30 80 F0 FF FF  7F F0 FF FF 7F 6E 73 31  /.R0.........ns1
0D70: 30 45 30 80 F0 FF FF 7F  F0 FF FF 7F 6E 73 31 31  0E0.........ns11
0D80: 00 80 1C 31 80 2B DA 22  06 01 84 80 1C 34 80 52  ...1.+.".....4.R
0D90: 30 80 F0 FF FF 7F F0 FF  FF 7F 6E 73 31 31 45 30  0.........ns11E0
0DA0: 80 F0 FF FF 7F F0 FF FF  7F 6E 73 31 32 00 80 2A  .........ns12..*
0DB0: 10 DA 22 06 01 1C 31 80  52 30 80 F0 FF FF 7F F0  .."...1.R0......
0DC0: FF FF 7F 6E 73 31 32 45  30 80 F0 FF FF 7F F0 FF  ...ns12E0.......
0DD0: FF 7F 6E 73 31 33 00 80  01 0D 0F 02 00 00 02 80  ..ns13..........
0DE0: 80 74 0E 27 10 DA 22 06  01 14 27 10 DC 22 06 01  .t.'.."...'.."..
0DF0: 12 27 10 DB 22 06 01 12  1C 2F 80 52 30 80 F0 FF  .'.."..../.R0...
0E00: FF 7F F0 FF FF 7F 72 73  31 30 45 30 80 F0 FF FF  ......rs10E0....
0E10: 7F F0 FF FF 7F 72 73 31  31 00 80 1C 34 80 2B DA  .....rs11...4.+.
0E20: 22 06 01 84 80 1C 34 80  52 30 80 F0 FF FF 7F F0  ".....4.R0......
0E30: FF FF 7F 72 73 31 31 45  30 80 F0 FF FF 7F F0 FF  ...rs11E0.......
0E40: FF 7F 72 73 31 32 00 80  2A 10 DA 22 06 01 1C 31  ..rs12..*.."...1
0E50: 80 52 30 80 F0 FF FF 7F  F0 FF FF 7F 72 73 31 32  .R0.........rs12
0E60: 45 30 80 F0 FF FF 7F F0  FF FF 7F 72 73 31 33 00  E0.........rs13.
0E70: 80 01 0D 0F 02 00 00 49  80 80 0D 0F 27 10 DA 22  .......I....'.."
0E80: 06 01 1B 27 10 DC 22 06  01 18 27 10 DB 22 06 01  ...'.."...'.."..
0E90: 18 1C 2F 80 52 30 80 F0  FF FF 7F F0 FF FF 7F 61  ../.R0.........a
0EA0: 73 31 30 45 30 80 F0 FF  FF 7F F0 FF FF 7F 61 73  s10E0.........as
0EB0: 31 31 00 80 1C 34 80 2B  DA 22 06 01 84 80 1C 34  11...4.+.".....4
0EC0: 80 52 30 80 F0 FF FF 7F  F0 FF FF 7F 61 73 31 31  .R0.........as11
0ED0: 45 30 80 F0 FF FF 7F F0  FF FF 7F 61 73 31 32 00  E0.........as12.
0EE0: 80 2A 10 DA 22 06 01 1C  31 80 52 30 80 F0 FF FF  .*.."...1.R0....
0EF0: 7F F0 FF FF 7F 61 73 31  32 45 30 80 F0 FF FF 7F  .....as12E0.....
0F00: F0 FF FF 7F 61 73 31 33  00 80 01 0D 0F 2B DA 22  ....as13.....+."
0F10: 06 01 85 80 23 2A 10 DC  22 06 01 5D 00 80 86 80  ....#*.."..]....
0F20: 02 00 00 00 80 80 5F 0F  27 10 DC 22 06 01 0D 1C  ......_.'.."....
0F30: 2F 80 79 00 DB 22 06 01  DC 22 06 01 52 30 80 F0  /.y.."..."..R0..
0F40: FF FF 7F F0 FF FF 7F 6E  73 31 33 45 30 80 F0 FF  .......ns13E0...
0F50: FF 7F F0 FF FF 7F 6E 73  31 34 00 80 01 DD 0F 02  ......ns14......
0F60: 00 00 02 80 80 9E 0F 27  10 DC 22 06 01 13 1C 2F  .......'.."..../
0F70: 80 79 00 DB 22 06 01 DC  22 06 01 52 30 80 F0 FF  .y.."..."..R0...
0F80: FF 7F F0 FF FF 7F 72 73  31 33 45 30 80 F0 FF FF  ......rs13E0....
0F90: 7F F0 FF FF 7F 72 73 31  34 00 80 01 DD 0F 02 00  .....rs14.......
0FA0: 00 49 80 80 DD 0F 27 10  DC 22 06 01 19 1C 2F 80  .I....'.."..../.
0FB0: 79 00 DB 22 06 01 DC 22  06 01 52 30 80 F0 FF FF  y.."..."..R0....
0FC0: 7F F0 FF FF 7F 61 73 31  33 45 30 80 F0 FF FF 7F  .....as13E0.....
0FD0: F0 FF FF 7F 61 73 31 34  00 80 01 DD 0F 1C 06 80  ....as14........
0FE0: 79 00 DC 22 06 01 DA 22  06 01 2B DC 22 06 01 87  y.."..."..+."...
0FF0: 80 23 02 00 00 00 80 80  1D 10 52 30 80 F0 FF FF  .#........R0....
1000: 7F F0 FF FF 7F 6E 73 31  34 45 30 80 F0 FF FF 7F  .....ns14E0.....
1010: F0 FF FF 7F 6E 73 31 35  00 80 01 73 10 02 00 00  ....ns15...s....
1020: 02 80 80 48 10 52 30 80  F0 FF FF 7F F0 FF FF 7F  ...H.R0.........
1030: 72 73 31 34 45 30 80 F0  FF FF 7F F0 FF FF 7F 72  rs14E0.........r
1040: 73 31 35 00 80 01 73 10  02 00 00 49 80 80 73 10  s15...s....I..s.
1050: 52 30 80 F0 FF FF 7F F0  FF FF 7F 61 73 31 34 45  R0.........as14E
1060: 30 80 F0 FF FF 7F F0 FF  FF 7F 61 73 31 35 00 80  0.........as15..
1070: 01 73 10 79 00 DB 22 06  01 DA 22 06 01 2B DA 22  .s.y.."..."..+."
1080: 06 01 88 80 23 7B DB 22  06 01 1A A7 B1 1C 39 80  ....#{."......9.
1090: 52 30 80 F0 FF FF 7F F0  FF FF 7F 6E 73 31 35 52  R0.........ns15R
10A0: 30 80 F0 FF FF 7F F0 FF  FF 7F 72 73 31 35 52 30  0.........rs15R0
10B0: 80 F0 FF FF 7F F0 FF FF  7F 61 73 31 35 27 10 E5  .........as15'..
10C0: 22 06 01 04 27 10 E6 22  06 01 04 27 10 E7 22 06  "...'.."...'..".
10D0: 01 04 92 01 E5 22 06 01  92 01 E6 22 06 01 92 01  ....."....."....
10E0: E7 22 06 01 94 01 E5 22  06 01 94 01 E6 22 06 01  ."....."....."..
10F0: 94 01 E7 22 06 01 27 10  DA 22 06 01 0A 27 10 DB  ..."..'.."...'..
1100: 22 06 01 0A 27 10 DC 22  06 01 0A 02 00 00 00 80  "...'.."........
1110: 80 64 11 BA E5 22 06 01  89 80 8A 80 8B 80 8C 80  .d..."..........
1120: BA E6 22 06 01 8D 80 8E  80 8F 80 90 80 BA E7 22  .."............"
1130: 06 01 91 80 92 80 93 80  94 80 BA DA 22 06 01 95  ............"...
1140: 80 96 80 97 80 98 80 BA  DB 22 06 01 99 80 9A 80  ........."......
1150: 9B 80 9C 80 BA DC 22 06  01 9D 80 9E 80 9F 80 A0  ......".........
1160: 80 01 16 12 02 00 00 02  80 80 BD 11 BA E5 22 06  ..............".
1170: 01 A1 80 A2 80 A3 80 A4  80 BA E6 22 06 01 A5 80  ..........."....
1180: A6 80 A7 80 A8 80 BA E7  22 06 01 A9 80 AA 80 AB  ........".......
1190: 80 AC 80 BA DA 22 06 01  AD 80 AE 80 AF 80 B0 80  ....."..........
11A0: BA DB 22 06 01 B1 80 B2  80 B3 80 B4 80 BA DC 22  .."............"
11B0: 06 01 B5 80 B6 80 B7 80  B8 80 01 16 12 02 00 00  ................
11C0: 49 80 80 16 12 BA E5 22  06 01 B9 80 BA 80 BB 80  I......"........
11D0: BC 80 BA E6 22 06 01 BD  80 BE 80 BF 80 C0 80 BA  ...."...........
11E0: E7 22 06 01 C1 80 C2 80  C3 80 C4 80 BA DA 22 06  ."............".
11F0: 01 C5 80 C6 80 C7 80 C8  80 BA DB 22 06 01 C9 80  ..........."....
1200: CA 80 CB 80 CC 80 BA DC  22 06 01 CD 80 CE 80 CF  ........".......
1210: 80 D0 80 01 16 12 80 E5  22 06 01 80 E6 22 06 01  ........"...."..
1220: 80 E7 22 06 01 80 DA 22  06 01 80 DB 22 06 01 80  .."...."...."...
1230: DC 22 06 01 79 00 DA 22  06 01 CE 22 06 01 79 00  ."..y.."..."..y.
1240: DB 22 06 01 CE 22 06 01  1C 34 80 48 79 80 23 1C  ."..."...4.Hy.#.
1250: 2F 80 02 00 00 00 80 80  6E 12 45 30 80 F0 FF FF  /.......n.E0....
1260: 7F F0 FF FF 7F 6E 73 31  36 00 80 01 A6 12 02 00  .....ns16.......
1270: 00 02 80 80 8A 12 45 30  80 F0 FF FF 7F F0 FF FF  ......E0........
1280: 7F 72 73 31 36 00 80 01  A6 12 02 00 00 49 80 80  .rs16........I..
1290: A6 12 45 30 80 F0 FF FF  7F F0 FF FF 7F 61 73 31  ..E0.........as1
12A0: 36 00 80 01 A6 12 1A 86  B1 2B DC 22 06 01 D1 80  6........+."....
12B0: 23 79 00 DB 22 06 01 DC  22 06 01 2B DB 22 06 01  #y.."..."..+."..
12C0: D2 80 23 02 00 00 00 80  80 0C 13 27 10 DA 22 06  ..#........'..".
12D0: 01 0E 79 00 DB 22 06 01  CE 22 06 01 1C 3D 80 79  ..y.."..."...=.y
12E0: 00 DC 22 06 01 CE 22 06  01 52 30 80 F0 FF FF 7F  .."..."..R0.....
12F0: F0 FF FF 7F 6E 73 31 36  45 30 80 F0 FF FF 7F F0  ....ns16E0......
1300: FF FF 7F 6E 73 31 37 00  80 01 9E 13 02 00 00 02  ...ns17.........
1310: 80 80 55 13 27 10 DA 22  06 01 15 79 00 DB 22 06  ..U.'.."...y..".
1320: 01 CE 22 06 01 1C 3D 80  79 00 DC 22 06 01 CE 22  .."...=.y.."..."
1330: 06 01 52 30 80 F0 FF FF  7F F0 FF FF 7F 72 73 31  ..R0.........rs1
1340: 36 45 30 80 F0 FF FF 7F  F0 FF FF 7F 72 73 31 37  6E0.........rs17
1350: 00 80 01 9E 13 02 00 00  49 80 80 9E 13 27 10 DA  ........I....'..
1360: 22 06 01 1C 79 00 DB 22  06 01 CE 22 06 01 1C 3D  "...y.."..."...=
1370: 80 79 00 DC 22 06 01 CE  22 06 01 52 30 80 F0 FF  .y.."..."..R0...
1380: FF 7F F0 FF FF 7F 61 73  31 36 45 30 80 F0 FF FF  ......as16E0....
1390: 7F F0 FF FF 7F 61 73 31  37 00 80 01 9E 13 2B DA  .....as17.....+.
13A0: 22 06 01 D3 80 23 2A 10  DA 22 06 01 02 00 00 00  "....#*.."......
13B0: 80 80 D7 13 52 30 80 F0  FF FF 7F F0 FF FF 7F 6E  ....R0.........n
13C0: 73 31 37 45 30 80 F0 FF  FF 7F F0 FF FF 7F 6E 73  s17E0.........ns
13D0: 31 38 00 80 01 2D 14 02  00 00 02 80 80 02 14 52  18...-.........R
13E0: 30 80 F0 FF FF 7F F0 FF  FF 7F 72 73 31 37 45 30  0.........rs17E0
13F0: 80 F0 FF FF 7F F0 FF FF  7F 72 73 31 38 00 80 01  .........rs18...
1400: 2D 14 02 00 00 49 80 80  2D 14 52 30 80 F0 FF FF  -....I..-.R0....
1410: 7F F0 FF FF 7F 61 73 31  37 45 30 80 F0 FF FF 7F  .....as17E0.....
1420: F0 FF FF 7F 61 73 31 38  00 80 01 2D 14 2B DA 22  ....as18...-.+."
1430: 06 01 D4 80 23 79 00 DB  22 06 01 DA 22 06 01 66  ....#y.."..."..f
1440: D5 80 DB 22 06 01 DB 22  06 01 74 77 62 30 2B DB  ..."..."..twb0+.
1450: 22 06 01 D6 80 23 66 D5  80 DB 22 06 01 DB 22 06  "....#f..."...".
1460: 01 74 77 62 31 1C 39 80  7B DA 22 06 01 1C 2F 80  .twb1.9.{.".../.
1470: 02 00 00 00 80 80 B3 14  2B DA 22 06 01 D7 80 23  ........+."....#
1480: 79 00 DA 22 06 01 F0 FF  FF 7F 1C 06 80 52 30 80  y..".........R0.
1490: F0 FF FF 7F F0 FF FF 7F  6E 73 31 38 45 30 80 F0  ........ns18E0..
14A0: FF FF 7F F0 FF FF 7F 6E  73 31 39 00 80 1C 06 80  .......ns19.....
14B0: 01 68 15 02 00 00 02 80  80 F6 14 2B DA 22 06 01  .h.........+."..
14C0: D7 80 23 79 00 DA 22 06  01 F0 FF FF 7F 1C 06 80  ..#y..".........
14D0: 52 30 80 F0 FF FF 7F F0  FF FF 7F 72 73 31 38 45  R0.........rs18E
14E0: 30 80 F0 FF FF 7F F0 FF  FF 7F 72 73 31 39 00 80  0.........rs19..
14F0: 1C 06 80 01 68 15 02 00  00 49 80 80 68 15 4A DA  ....h....I..h.J.
1500: 22 06 01 DB 22 06 01 52  30 80 F0 FF FF 7F F0 FF  "..."..R0.......
1510: FF 7F 61 73 31 38 45 30  80 F0 FF FF 7F F0 FF FF  ..as18E0........
1520: 7F 61 73 33 32 00 80 6F  76 DA 22 06 01 2B DA 22  .as32..ov."..+."
1530: 06 01 D7 80 23 79 00 DA  22 06 01 F0 FF FF 7F 1C  ....#y..".......
1540: 06 80 52 30 80 F0 FF FF  7F F0 FF FF 7F 61 73 33  ..R0.........as3
1550: 32 45 30 80 F0 FF FF 7F  F0 FF FF 7F 61 73 31 39  2E0.........as19
1560: 00 80 1C 06 80 01 68 15  4A DB 22 06 01 F0 FF FF  ......h.J.".....
1570: 7F 79 00 DC 22 06 01 F0  FF FF 7F 2B DA 22 06 01  .y.."......+."..
1580: D8 80 23 02 00 00 00 80  80 A3 15 27 10 DA 22 06  ..#........'..".
1590: 01 0F 27 10 DC 22 06 01  0E 27 10 DB 22 06 01 0D  ..'.."...'.."...
15A0: 01 E3 15 02 00 00 02 80  80 C3 15 27 10 DA 22 06  ...........'..".
15B0: 01 16 27 10 DC 22 06 01  14 27 10 DB 22 06 01 13  ..'.."...'.."...
15C0: 01 E3 15 02 00 00 49 80  80 E3 15 27 10 DA 22 06  ......I....'..".
15D0: 01 1D 27 10 DC 22 06 01  1A 27 10 DB 22 06 01 19  ..'.."...'.."...
15E0: 01 E3 15 1C 06 80 1A A7  B1 1C 06 80 7A 00 DA 22  ............z.."
15F0: 06 01 7A 00 DC 22 06 01  7A 00 DB 22 06 01 02 00  ..z.."..z.."....
1600: 00 00 80 80 3D 16 BA DA  22 06 01 D9 80 DA 80 DB  ....=...".......
1610: 80 DC 80 BA DB 22 06 01  DD 80 DE 80 DF 80 E0 80  ....."..........
1620: BA DC 22 06 01 E1 80 E2  80 E3 80 E4 80 BA F0 FF  ..".............
1630: FF 7F E5 80 E6 80 E7 80  E8 80 01 BB 16 02 00 00  ................
1640: 02 80 80 7C 16 BA DA 22  06 01 E9 80 EA 80 EB 80  ...|..."........
1650: EC 80 BA DB 22 06 01 ED  80 EE 80 EF 80 F0 80 BA  ...."...........
1660: DC 22 06 01 F1 80 F2 80  F3 80 F4 80 BA F0 FF FF  ."..............
1670: 7F F5 80 F6 80 87 80 F7  80 01 BB 16 02 00 00 49  ...............I
1680: 80 80 BB 16 BA DA 22 06  01 F8 80 F9 80 FA 80 FB  ......".........
1690: 80 BA DB 22 06 01 FC 80  FD 80 FE 80 FF 80 BA DC  ..."............
16A0: 22 06 01 00 81 01 81 02  81 03 81 BA F0 FF FF 7F  "...............
16B0: 04 81 05 81 06 81 07 81  01 BB 16 29 10 F0 FF FF  ...........)....
16C0: 7F 4B 48 79 80 23 5C 00  08 81 5C 01 08 81 9A 1C  .KHy.#\...\.....
16D0: 2F 80 02 00 00 00 80 80  FD 16 52 30 80 F0 FF FF  /.........R0....
16E0: 7F F0 FF FF 7F 6E 73 31  39 45 30 80 F0 FF FF 7F  .....ns19E0.....
16F0: F0 FF FF 7F 6E 73 32 30  00 80 01 53 17 02 00 00  ....ns20...S....
1700: 02 80 80 28 17 52 30 80  F0 FF FF 7F F0 FF FF 7F  ...(.R0.........
1710: 72 73 31 39 45 30 80 F0  FF FF 7F F0 FF FF 7F 72  rs19E0.........r
1720: 73 32 30 00 80 01 53 17  02 00 00 49 80 80 53 17  s20...S....I..S.
1730: 52 30 80 F0 FF FF 7F F0  FF FF 7F 61 73 31 39 45  R0.........as19E
1740: 30 80 F0 FF FF 7F F0 FF  FF 7F 61 73 32 30 00 80  0.........as20..
1750: 01 53 17 45 7A 80 F8 FF  FF 7F F8 FF FF 7F 66 64  .S.Ez.........fd
1760: 69 32 00 80 66 D5 80 DB  22 06 01 DB 22 06 01 74  i2..f..."..."..t
1770: 77 62 30 2B DB 22 06 01  09 81 23 2B DC 22 06 01  wb0+."....#+."..
1780: 0A 81 23 66 02 80 DC 22  06 01 DC 22 06 01 69 6E  ..#f..."..."..in
1790: 30 30 1C 06 80 02 00 00  00 80 80 C0 17 52 30 80  00...........R0.
17A0: F0 FF FF 7F F0 FF FF 7F  6E 73 32 30 45 30 80 F0  ........ns20E0..
17B0: FF FF 7F F0 FF FF 7F 6E  73 32 31 00 80 01 16 18  .......ns21.....
17C0: 02 00 00 02 80 80 EB 17  52 30 80 F0 FF FF 7F F0  ........R0......
17D0: FF FF 7F 72 73 32 30 45  30 80 F0 FF FF 7F F0 FF  ...rs20E0.......
17E0: FF 7F 72 73 32 31 00 80  01 16 18 02 00 00 49 80  ..rs21........I.
17F0: 80 16 18 52 30 80 F0 FF  FF 7F F0 FF FF 7F 61 73  ...R0.........as
1800: 32 30 45 30 80 F0 FF FF  7F F0 FF FF 7F 61 73 32  20E0.........as2
1810: 31 00 80 01 16 18 66 D5  80 DB 22 06 01 DB 22 06  1.....f..."...".
1820: 01 74 77 62 31 2B DC 22  06 01 0B 81 23 02 00 00  .twb1+."....#...
1830: 00 80 80 58 18 52 30 80  F0 FF FF 7F F0 FF FF 7F  ...X.R0.........
1840: 6E 73 32 31 45 30 80 F0  FF FF 7F F0 FF FF 7F 6E  ns21E0.........n
1850: 73 32 32 00 80 01 AE 18  02 00 00 02 80 80 83 18  s22.............
1860: 52 30 80 F0 FF FF 7F F0  FF FF 7F 72 73 32 31 45  R0.........rs21E
1870: 30 80 F0 FF FF 7F F0 FF  FF 7F 72 73 32 32 00 80  0.........rs22..
1880: 01 AE 18 02 00 00 49 80  80 AE 18 52 30 80 F0 FF  ......I....R0...
1890: FF 7F F0 FF FF 7F 61 73  32 31 45 30 80 F0 FF FF  ......as21E0....
18A0: 7F F0 FF FF 7F 61 73 32  32 00 80 01 AE 18 79 00  .....as22.....y.
18B0: DA 22 06 01 DC 22 06 01  1C 39 80 2B DA 22 06 01  ."..."...9.+."..
18C0: 0C 81 23 79 00 DA 22 06  01 F0 FF FF 7F 02 00 00  ..#y..".........
18D0: 00 80 80 FF 18 27 10 DB  22 06 01 0E 52 30 80 F0  .....'.."...R0..
18E0: FF FF 7F F0 FF FF 7F 6E  73 32 32 45 30 80 F0 FF  .......ns22E0...
18F0: FF 7F F0 FF FF 7F 6E 73  32 33 00 80 01 63 19 02  ......ns23...c..
1900: 00 00 02 80 80 31 19 27  10 DB 22 06 01 14 52 30  .....1.'.."...R0
1910: 80 F0 FF FF 7F F0 FF FF  7F 72 73 32 32 45 30 80  .........rs22E0.
1920: F0 FF FF 7F F0 FF FF 7F  72 73 32 33 00 80 01 63  ........rs23...c
1930: 19 02 00 00 49 80 80 63  19 27 10 DB 22 06 01 1A  ....I..c.'.."...
1940: 52 30 80 F0 FF FF 7F F0  FF FF 7F 61 73 32 32 45  R0.........as22E
1950: 30 80 F0 FF FF 7F F0 FF  FF 7F 61 73 32 33 00 80  0.........as23..
1960: 01 63 19 2B DB 22 06 01  0D 81 23 27 10 F0 FF FF  .c.+."....#'....
1970: 7F 4C 66 02 80 DC 22 06  01 DC 22 06 01 6F 75 74  .Lf..."..."..out
1980: 30 2A 10 DB 22 06 01 66  D5 80 DB 22 06 01 DB 22  0*.."..f..."..."
1990: 06 01 74 77 61 30 2B DB  22 06 01 0E 81 23 66 D5  ..twa0+."....#f.
19A0: 80 DB 22 06 01 DB 22 06  01 74 77 61 31 4A DC 22  .."..."..twa1J."
19B0: 06 01 DB 22 06 01 1C 3D  80 02 00 00 00 80 80 E4  ..."...=........
19C0: 19 52 30 80 F0 FF FF 7F  F0 FF FF 7F 6E 73 32 33  .R0.........ns23
19D0: 45 30 80 F0 FF FF 7F F0  FF FF 7F 6E 73 32 34 00  E0.........ns24.
19E0: 80 01 3A 1A 02 00 00 02  80 80 0F 1A 52 30 80 F0  ..:.........R0..
19F0: FF FF 7F F0 FF FF 7F 72  73 32 33 45 30 80 F0 FF  .......rs23E0...
1A00: FF 7F F0 FF FF 7F 72 73  32 34 00 80 01 3A 1A 02  ......rs24...:..
1A10: 00 00 49 80 80 3A 1A 52  30 80 F0 FF FF 7F F0 FF  ..I..:.R0.......
1A20: FF 7F 61 73 32 33 45 30  80 F0 FF FF 7F F0 FF FF  ..as23E0........
1A30: 7F 61 73 32 34 00 80 01  3A 1A 2B DC 22 06 01 0F  .as24...:.+."...
1A40: 81 23 79 00 F0 FF FF 7F  DB 22 06 01 02 00 00 00  .#y......"......
1A50: 80 80 F9 1A 52 30 80 F0  FF FF 7F F0 FF FF 7F 6E  ....R0.........n
1A60: 73 32 34 45 30 80 F0 FF  FF 7F F0 FF FF 7F 6E 73  s24E0.........ns
1A70: 32 35 00 80 6E DB 22 06  01 10 81 99 DB 22 06 01  25..n."......"..
1A80: 2B DB 22 06 01 11 81 23  6E DC 22 06 01 12 81 99  +."....#n.".....
1A90: DC 22 06 01 2B DC 22 06  01 EB 80 23 52 30 80 F0  ."..+."....#R0..
1AA0: FF FF 7F F0 FF FF 7F 6E  73 32 35 45 30 80 F0 FF  .......ns25E0...
1AB0: FF 7F F0 FF FF 7F 6E 73  33 31 00 80 1C 39 80 03  ......ns31...9..
1AC0: 02 10 00 00 2B DB 22 06  01 13 81 23 27 10 DA 22  ....+."....#'.."
1AD0: 06 01 10 1C 06 80 52 30  80 F0 FF FF 7F F0 FF FF  ......R0........
1AE0: 7F 6E 73 33 31 45 30 80  F0 FF FF 7F F0 FF FF 7F  .ns31E0.........
1AF0: 6E 73 32 36 00 80 01 53  1C 02 00 00 02 80 80 A6  ns26...S........
1B00: 1B 52 30 80 F0 FF FF 7F  F0 FF FF 7F 72 73 32 34  .R0.........rs24
1B10: 45 30 80 F0 FF FF 7F F0  FF FF 7F 72 73 32 35 00  E0.........rs25.
1B20: 80 6E DB 22 06 01 10 81  99 DB 22 06 01 2B DB 22  .n."......"..+."
1B30: 06 01 14 81 23 6E DC 22  06 01 12 81 99 DC 22 06  ....#n."......".
1B40: 01 2B DC 22 06 01 EB 80  23 52 30 80 F0 FF FF 7F  .+."....#R0.....
1B50: F0 FF FF 7F 72 73 32 35  45 30 80 F0 FF FF 7F F0  ....rs25E0......
1B60: FF FF 7F 72 73 33 31 00  80 1C 39 80 03 02 10 00  ...rs31...9.....
1B70: 00 2B DB 22 06 01 13 81  23 27 10 DA 22 06 01 17  .+."....#'.."...
1B80: 1C 06 80 52 30 80 F0 FF  FF 7F F0 FF FF 7F 72 73  ...R0.........rs
1B90: 33 31 45 30 80 F0 FF FF  7F F0 FF FF 7F 72 73 32  31E0.........rs2
1BA0: 36 00 80 01 53 1C 02 00  00 49 80 80 53 1C 52 30  6...S....I..S.R0
1BB0: 80 F0 FF FF 7F F0 FF FF  7F 61 73 32 34 45 30 80  .........as24E0.
1BC0: F0 FF FF 7F F0 FF FF 7F  61 73 32 35 00 80 6E DB  ........as25..n.
1BD0: 22 06 01 10 81 99 DB 22  06 01 2B DB 22 06 01 15  "......"..+."...
1BE0: 81 23 6E DC 22 06 01 12  81 99 DC 22 06 01 2B DC  .#n."......"..+.
1BF0: 22 06 01 EB 80 23 52 30  80 F0 FF FF 7F F0 FF FF  "....#R0........
1C00: 7F 61 73 32 35 45 30 80  F0 FF FF 7F F0 FF FF 7F  .as25E0.........
1C10: 61 73 33 31 00 80 1C 39  80 03 02 10 00 00 2B DB  as31...9......+.
1C20: 22 06 01 13 81 23 27 10  DA 22 06 01 1E 1C 06 80  "....#'.."......
1C30: 52 30 80 F0 FF FF 7F F0  FF FF 7F 61 73 33 31 45  R0.........as31E
1C40: 30 80 F0 FF FF 7F F0 FF  FF 7F 61 73 32 36 00 80  0.........as26..
1C50: 01 53 1C 2A 10 DA 22 06  01 2B DA 22 06 01 16 81  .S.*.."..+."....
1C60: 23 02 00 00 00 80 80 3E  1D 27 10 DA 22 06 01 11  #......>.'.."...
1C70: 27 10 DC 22 06 01 0F 52  30 80 F0 FF FF 7F F0 FF  '.."...R0.......
1C80: FF 7F 6E 73 32 36 45 30  80 F0 FF FF 7F F0 FF FF  ..ns26E0........
1C90: 7F 6E 73 32 37 00 80 1C  34 80 27 10 DB 22 06 01  .ns27...4.'.."..
1CA0: 0F 1C 37 80 52 30 80 F0  FF FF 7F F0 FF FF 7F 6E  ..7.R0.........n
1CB0: 73 32 37 45 30 80 F0 FF  FF 7F F0 FF FF 7F 6E 73  s27E0.........ns
1CC0: 32 38 00 80 1C 06 80 2B  DB 22 06 01 17 81 23 2A  28.....+."....#*
1CD0: 10 DB 22 06 01 2A 10 DA  22 06 01 52 30 80 F0 FF  .."..*.."..R0...
1CE0: FF 7F F0 FF FF 7F 6E 73  32 38 45 30 80 F0 FF FF  ......ns28E0....
1CF0: 7F F0 FF FF 7F 6E 73 32  39 00 80 2B DA 22 06 01  .....ns29..+."..
1D00: 18 81 23 27 10 DA 22 06  01 12 27 10 DB 22 06 01  ..#'.."...'.."..
1D10: 10 27 10 DC 22 06 01 10  1C 2F 80 52 30 80 F0 FF  .'.."..../.R0...
1D20: FF 7F F0 FF FF 7F 6E 73  32 39 45 30 80 F0 FF FF  ......ns29E0....
1D30: 7F F0 FF FF 7F 6E 73 33  30 00 80 01 F8 1E 02 00  .....ns30.......
1D40: 00 02 80 80 1B 1E 27 10  DA 22 06 01 18 27 10 DC  ......'.."...'..
1D50: 22 06 01 15 52 30 80 F0  FF FF 7F F0 FF FF 7F 72  "...R0.........r
1D60: 73 32 36 45 30 80 F0 FF  FF 7F F0 FF FF 7F 72 73  s26E0.........rs
1D70: 32 37 00 80 1C 34 80 27  10 DB 22 06 01 15 1C 37  27...4.'.."....7
1D80: 80 52 30 80 F0 FF FF 7F  F0 FF FF 7F 72 73 32 37  .R0.........rs27
1D90: 45 30 80 F0 FF FF 7F F0  FF FF 7F 72 73 32 38 00  E0.........rs28.
1DA0: 80 1C 06 80 2B DB 22 06  01 17 81 23 2A 10 DB 22  ....+."....#*.."
1DB0: 06 01 2A 10 DA 22 06 01  52 30 80 F0 FF FF 7F F0  ..*.."..R0......
1DC0: FF FF 7F 72 73 32 38 45  30 80 F0 FF FF 7F F0 FF  ...rs28E0.......
1DD0: FF 7F 72 73 32 39 00 80  2B DA 22 06 01 18 81 23  ..rs29..+."....#
1DE0: 27 10 DA 22 06 01 19 27  10 DB 22 06 01 16 27 10  '.."...'.."...'.
1DF0: DC 22 06 01 16 1C 2F 80  52 30 80 F0 FF FF 7F F0  ."..../.R0......
1E00: FF FF 7F 72 73 32 39 45  30 80 F0 FF FF 7F F0 FF  ...rs29E0.......
1E10: FF 7F 72 73 33 30 00 80  01 F8 1E 02 00 00 49 80  ..rs30........I.
1E20: 80 F8 1E 27 10 DA 22 06  01 1F 27 10 DC 22 06 01  ...'.."...'.."..
1E30: 1B 52 30 80 F0 FF FF 7F  F0 FF FF 7F 61 73 32 36  .R0.........as26
1E40: 45 30 80 F0 FF FF 7F F0  FF FF 7F 61 73 32 37 00  E0.........as27.
1E50: 80 1C 34 80 27 10 DB 22  06 01 1B 1C 37 80 52 30  ..4.'.."....7.R0
1E60: 80 F0 FF FF 7F F0 FF FF  7F 61 73 32 37 45 30 80  .........as27E0.
1E70: F0 FF FF 7F F0 FF FF 7F  61 73 32 38 00 80 1C 06  ........as28....
1E80: 80 2B DB 22 06 01 17 81  23 2A 10 DB 22 06 01 2A  .+."....#*.."..*
1E90: 10 DA 22 06 01 52 30 80  F0 FF FF 7F F0 FF FF 7F  .."..R0.........
1EA0: 61 73 32 38 45 30 80 F0  FF FF 7F F0 FF FF 7F 61  as28E0.........a
1EB0: 73 32 39 00 80 2B DA 22  06 01 18 81 23 27 10 DA  s29..+."....#'..
1EC0: 22 06 01 20 27 10 DB 22  06 01 1C 27 10 DC 22 06  ".. '.."...'..".
1ED0: 01 1C 1C 2F 80 52 30 80  F0 FF FF 7F F0 FF FF 7F  .../.R0.........
1EE0: 61 73 32 39 45 30 80 F0  FF FF 7F F0 FF FF 7F 61  as29E0.........a
1EF0: 73 33 30 00 80 01 F8 1E  1C 31 80 1A A7 B1 1C 06  s30......1......
1F00: 80 7A 00 DA 22 06 01 7A  00 DB 22 06 01 7A 00 DC  .z.."..z.."..z..
1F10: 22 06 01 52 30 80 F0 FF  FF 7F F0 FF FF 7F 6E 73  "..R0.........ns
1F20: 33 30 52 30 80 F0 FF FF  7F F0 FF FF 7F 72 73 33  30R0.........rs3
1F30: 30 52 30 80 F0 FF FF 7F  F0 FF FF 7F 61 73 33 30  0R0.........as30
1F40: 45 30 80 F0 FF FF 7F F0  FF FF 7F 30 62 6C 66 00  E0.........0blf.
1F50: 80 1C 06 80 1C 02 80 AB  0A 5C 00 08 81 5C 01 08  .........\...\..
1F60: 81 5C 02 19 81 5C 03 32  80 9A 46 00 45 7A 80 F0  .\...\.2..F.Ez..
1F70: FF FF 7F F0 FF FF 7F 66  64 69 32 00 80 21 00     .......fdi2..!. 
```

#### Opcodes

```
  0: 0x0001 [0x42] SET_CLI_EVENT_CANCEL_DATA()
  1: 0x0002 [0x1A] CALL_SUBROUTINE(address=0xB1A7)
  2: 0x0005 [0x5D] SET_MUSIC_VOLUME(volume=0*, fade_time=300*)
  3: 0x000A [0x03] Work_Zone[1] = 1*
  4: 0x000F [0x43] SEND_EVENT_UPDATE: Send pending tag to server (packet 0x005B)
  5: 0x0011 [0x43] SEND_EVENT_UPDATE: Check pending flag (skip if not pending)
  6: 0x0013 [0x03] ExtData[1]->WorkLocal[0] = Work_Zone[2]
  7: 0x0018 [0x03] ExtData[1]->WorkLocal[1] = Work_Zone[9]
  8: 0x001D [0x46] CAMERA_CONTROL: Disable user control
  9: 0x001F [0x38] SET_CLIENT_EVENT_MODE(mode=19*)
 10: 0x0022 [0x4E] SET_ENTITY_HIDE_FLAG: Show LocalPlayer
 11: 0x0028 [0x02] IF !(ExtData[1]->WorkLocal[0] == 0*) GOTO 0x0033
 12: 0x0030 [0x34] LOAD_UNLOAD_ZONE(zone_id=84*)
 13: 0x0033 [0x77] SET_EVENT_TIME_WEATHER(hour=21*, weather=0*)
 14: 0x0038 [0x1C] WAIT(30* ticks)
 15: 0x003B [0xAB] EventEntity->UnknownFlag = 1 // Enable unknown flag
 16: 0x003D [0x27] REQ_SET(priority=0x10, entity_id=Carlisle (ID: 17179353/0x010622D9), tag_num=0x04)
 17: 0x0044 [0x27] REQ_SET(priority=0x10, entity_id=Lysander (ID: 17179354/0x010622DA), tag_num=0x04)
 18: 0x004B [0x27] REQ_SET(priority=0x10, entity_id=Unnamed NPC (ID: 17179357/0x010622DD), tag_num=0x04)
 19: 0x0052 [0x27] REQ_SET(priority=0x10, entity_id=Unnamed NPC (ID: 17179358/0x010622DE), tag_num=0x04)
 20: 0x0059 [0x27] REQ_SET(priority=0x10, entity_id=Unnamed NPC (ID: 17179359/0x010622DF), tag_num=0x04)
 21: 0x0060 [0x27] REQ_SET(priority=0x10, entity_id=Unnamed NPC (ID: 17179360/0x010622E0), tag_num=0x04)
 22: 0x0067 [0x27] REQ_SET(priority=0x10, entity_id=Unnamed NPC (ID: 17179361/0x010622E1), tag_num=0x04)
 23: 0x006E [0x27] REQ_SET(priority=0x10, entity_id=Unnamed NPC (ID: 17179362/0x010622E2), tag_num=0x04)
 24: 0x0075 [0x27] REQ_SET(priority=0x10, entity_id=Unnamed NPC (ID: 17179363/0x010622E3), tag_num=0x04)
 25: 0x007C [0x27] REQ_SET(priority=0x10, entity_id=Unnamed NPC (ID: 17179364/0x010622E4), tag_num=0x04)
