# 17179508 - Raina

## Common Data

| Field            | Value                             |
|------------------|-----------------------------------|
| Zone             | Sauromugue Champaign [S] (ID: 98) |
| Block Size       | 196 bytes                         |
| Total Events     | 6                                 |
| References Count | 14                                |

## List of Events

| Event ID                 | Entrypoint   |   Size |   Instructions |
|--------------------------|--------------|--------|----------------|
| [65535](#event-65535)    | 0x0000       |      1 |              1 |
| [115](#event-115)        | 0x0001       |      7 |              2 |
| [65535.1](#event-655351) | 0x0008       |     34 |              8 |
| [65535.2](#event-655352) | 0x002A       |     29 |              7 |
| [65535.3](#event-655353) | 0x0047       |     22 |              6 |
| [116](#event-116)        | 0x005D       |      7 |              2 |

## DAT References (imed_data)

|   Index | Hex Value   |   Dec Value |
|---------|-------------|-------------|
|       0 | 0x0028      |          40 |
|       1 | 0xFFFF7457  |  4294931543 |
|       2 | 0x5DC3      |       24003 |
|       3 | 0xFFFFFA25  |  4294965797 |
|       4 | 0x001E      |          30 |
|       5 | 0x0008      |           8 |
|       6 | 0xFFFF7A56  |  4294933078 |
|       7 | 0x5353      |       21331 |
|       8 | 0xFFFF8A2B  |  4294937131 |
|       9 | 0x38F9      |       14585 |
|      10 | 0x000A      |          10 |
|      11 | 0x000D      |          13 |
|      12 | 0xFFFF9804  |  4294940676 |
|      13 | 0x3CF6      |       15606 |

## Events

### Event 65535

#### Metadata

| Field        | Value   |
|--------------|---------|
| Entrypoint   | 0x0000  |
| Data Size    | 1 bytes |
| Instructions | 1       |

```
      00 01 02 03 04 05 06 07  08 09 0A 0B 0C 0D 0E 0F
      -- -- -- -- -- -- -- --  -- -- -- -- -- -- -- --
0000: 00                                                .               
```

#### Opcodes

```
  0: 0x0000 [0x00] END_REQSTACK()
```

### Event 115

#### Metadata

| Field        | Value   |
|--------------|---------|
| Entrypoint   | 0x0001  |
| Data Size    | 7 bytes |
| Instructions | 2       |

```
      00 01 02 03 04 05 06 07  08 09 0A 0B 0C 0D 0E 0F
      -- -- -- -- -- -- -- --  -- -- -- -- -- -- -- --
0000:    92 01 F8 FF FF 7F 00                            .......        
```

#### Opcodes

```
  0: 0x0001 [0x92] EventEntity->Render.Flags3 ^= 0x01
  1: 0x0007 [0x00] END_REQSTACK()
```

### Event 65535.1

#### Metadata

| Field        | Value    |
|--------------|----------|
| Entrypoint   | 0x0008   |
| Data Size    | 34 bytes |
| Instructions | 8        |

```
      00 01 02 03 04 05 06 07  08 09 0A 0B 0C 0D 0E 0F
      -- -- -- -- -- -- -- --  -- -- -- -- -- -- -- --
0000:                          32 00 80 1F 00 01 80 02          2.......
0010: 80 03 80 1F 01 1E F0 FF  FF 7F 1C 04 80 6E F8 FF  .............n..
0020: FF 7F 05 80 99 F8 FF FF  7F 00                    ..........      
```

#### Opcodes

```
  0: 0x0008 [0x32] ExtData[1]->MainSpeed = 40* * 0.1
  1: 0x000B [0x1F] MOVE_ENTITY: EventEntity moves to X=-35.753*, Z=24.003*, Y=-1.499*
  2: 0x0013 [0x1F] MOVE_ENTITY: Update entity position (mode=1)
  3: 0x0015 [0x1E] EventEntity looks at LocalPlayer and starts talking
  4: 0x001A [0x1C] WAIT(30* ticks)
  5: 0x001D [0x6E] EventEntity uses emote 8*
  6: 0x0024 [0x99] Wait for EventEntity animation to complete
  7: 0x0029 [0x00] END_REQSTACK()
```

### Event 65535.2

#### Metadata

| Field        | Value    |
|--------------|----------|
| Entrypoint   | 0x002A   |
| Data Size    | 29 bytes |
| Instructions | 7        |

```
      00 01 02 03 04 05 06 07  08 09 0A 0B 0C 0D 0E 0F
      -- -- -- -- -- -- -- --  -- -- -- -- -- -- -- --
0020:                                32 00 80 1F 00 06            2.....
0030: 80 07 80 03 80 1F 01 7B  F8 FF FF 7F 1F 00 08 80  .......{........
0040: 09 80 03 80 1F 01 00                              .......         
```

#### Opcodes

```
  0: 0x002A [0x32] ExtData[1]->MainSpeed = 40* * 0.1
  1: 0x002D [0x1F] MOVE_ENTITY: EventEntity moves to X=-34.218*, Z=21.331*, Y=-1.499*
  2: 0x0035 [0x1F] MOVE_ENTITY: Update entity position (mode=1)
  3: 0x0037 [0x7B] EventEntity stops talking
  4: 0x003C [0x1F] MOVE_ENTITY: EventEntity moves to X=-30.165*, Z=14.585*, Y=-1.499*
  5: 0x0044 [0x1F] MOVE_ENTITY: Update entity position (mode=1)
  6: 0x0046 [0x00] END_REQSTACK()
```

### Event 65535.3

#### Metadata

| Field        | Value    |
|--------------|----------|
| Entrypoint   | 0x0047   |
| Data Size    | 22 bytes |
| Instructions | 6        |

```
      00 01 02 03 04 05 06 07  08 09 0A 0B 0C 0D 0E 0F
      -- -- -- -- -- -- -- --  -- -- -- -- -- -- -- --
0040:                      1C  0A 80 32 0B 80 1F 00 0C         ...2.....
0050: 80 0D 80 03 80 1F 01 1E  71 23 06 01 00           ........q#...   
```

#### Opcodes

```
  0: 0x0047 [0x1C] WAIT(10* ticks)
  1: 0x004A [0x32] ExtData[1]->MainSpeed = 13* * 0.1
  2: 0x004D [0x1F] MOVE_ENTITY: EventEntity moves to X=-26.620*, Z=15.606*, Y=-1.499*
  3: 0x0055 [0x1F] MOVE_ENTITY: Update entity position (mode=1)
  4: 0x0057 [0x1E] EventEntity looks at Cloud Walker (ID: 17179505/0x01062371) and starts talking
  5: 0x005C [0x00] END_REQSTACK()
```

### Event 116

#### Metadata

| Field        | Value   |
|--------------|---------|
| Entrypoint   | 0x005D  |
| Data Size    | 7 bytes |
| Instructions | 2       |

```
      00 01 02 03 04 05 06 07  08 09 0A 0B 0C 0D 0E 0F
      -- -- -- -- -- -- -- --  -- -- -- -- -- -- -- --
0050:                                         92 01 F8               ...
0060: FF FF 7F 00                                       ....            
```

#### Opcodes

```
  0: 0x005D [0x92] EventEntity->Render.Flags3 ^= 0x01
  1: 0x0063 [0x00] END_REQSTACK()
```
