# 17179337 - test_orc01

## Common Data

| Field            | Value                             |
|------------------|-----------------------------------|
| Zone             | Sauromugue Champaign [S] (ID: 98) |
| Block Size       | 84 bytes                          |
| Total Events     | 3                                 |
| References Count | 4                                 |

## List of Events

| Event ID                 | Entrypoint   |   Size |   Instructions |
|--------------------------|--------------|--------|----------------|
| [65535](#event-65535)    | 0x0000       |      1 |              1 |
| [65535.1](#event-655351) | 0x0001       |     35 |              5 |
| [100](#event-100)        | 0x0024       |      1 |              1 |

## DAT References (imed_data)

|   Index | Hex Value   |   Dec Value |
|---------|-------------|-------------|
|       0 | 0x67D88     |      425352 |
|       1 | 0xFFFB7B20  |  4294671136 |
|       2 | 0x28A8      |       10408 |
|       3 | 0x0B72      |        2930 |

## Events

### Event 65535

#### Metadata

| Field        | Value   |
|--------------|---------|
| Entrypoint   | 0x0000  |
| Data Size    | 1 bytes |
| Instructions | 1       |

```
      00 01 02 03 04 05 06 07  08 09 0A 0B 0C 0D 0E 0F
      -- -- -- -- -- -- -- --  -- -- -- -- -- -- -- --
0000: 00                                                .               
```

#### Opcodes

```
  0: 0x0000 [0x00] END_REQSTACK()
```

### Event 65535.1

#### Metadata

| Field        | Value    |
|--------------|----------|
| Entrypoint   | 0x0001   |
| Data Size    | 35 bytes |
| Instructions | 5        |

```
      00 01 02 03 04 05 06 07  08 09 0A 0B 0C 0D 0E 0F
      -- -- -- -- -- -- -- --  -- -- -- -- -- -- -- --
0000:    4E 00 C9 22 06 01 92  01 F8 FF FF 7F 2C C9 22   N.."........,."
0010: 06 01 C9 22 06 01 63 6F  72 70 37 00 80 01 80 02  ..."..corp7.....
0020: 80 03 80 00                                       ....            
```

#### Opcodes

```
  0: 0x0001 [0x4E] SET_ENTITY_HIDE_FLAG: Show test_orc01 (ID: 17179337/0x010622C9)
  1: 0x0007 [0x92] EventEntity->Render.Flags3 ^= 0x01
  2: 0x000D [0x2C] CREATE_SCHEDULER_TASK: Create scheduler "corp" with entities [test_orc01 (ID: 17179337/0x010622C9), test_orc01 (ID: 17179337/0x010622C9)]
  3: 0x001A [0x37] UPDATE_EVENT_POSITION_AND_DIR: x=425.352*, z=-296.160*, y=10.408*, direction=257.5°*
  4: 0x0023 [0x00] END_REQSTACK()
```

### Event 100

#### Metadata

| Field        | Value   |
|--------------|---------|
| Entrypoint   | 0x0024  |
| Data Size    | 1 bytes |
| Instructions | 1       |

```
      00 01 02 03 04 05 06 07  08 09 0A 0B 0C 0D 0E 0F
      -- -- -- -- -- -- -- --  -- -- -- -- -- -- -- --
0020:             00                                        .           
```

#### Opcodes

```
  0: 0x0024 [0x00] END_REQSTACK()
```
