# 17179526

## Common Data

| Field            | Value                             |
|------------------|-----------------------------------|
| Zone             | Sauromugue Champaign [S] (ID: 98) |
| Block Size       | 4524 bytes                        |
| Total Events     | 6                                 |
| References Count | 103                               |

## List of Events

| Event ID              | Entrypoint   |   Size |   Instructions |
|-----------------------|--------------|--------|----------------|
| [65535](#event-65535) | 0x0000       |      1 |              1 |
| [21](#event-21)       | 0x0001       |   1205 |            163 |
| [22](#event-22)       | 0x04B6       |    607 |             87 |
| [27](#event-27)       | 0x0715       |    483 |             72 |
| [28](#event-28)       | 0x08F8       |    491 |             74 |
| [30](#event-30)       | 0x0AE3       |   1285 |            152 |

## DAT References (imed_data)

|   Index | Hex Value   |   Dec Value |
|---------|-------------|-------------|
|       0 | 0x0013      |          19 |
|       1 | 0xFFF95672  |  4294530674 |
|       2 | 0x53ADF     |      342751 |
|       3 | 0x035E      |         862 |
|       4 | 0x07FD      |        2045 |
|       5 | 0xFFF93B97  |  4294523799 |
|       6 | 0x539A3     |      342435 |
|       7 | 0x036D      |         877 |
|       8 | 0x0003      |           3 |
|       9 | 0x001E      |          30 |
|      10 | 0x035F      |         863 |
|      11 | 0x000F      |          15 |
|      12 | 0x016D      |         365 |
|      13 | 0x0000      |           0 |
|      14 | 0x005A      |          90 |
|      15 | 0x20C3      |        8387 |
|      16 | 0x20C4      |        8388 |
|      17 | 0x0096      |         150 |
|      18 | 0x0800      |        2048 |
|      19 | 0x270D      |        9997 |
|      20 | 0x0078      |         120 |
|      21 | 0x0007      |           7 |
|      22 | 0x20CC      |        8396 |
|      23 | 0x00F3      |         243 |
|      24 | 0x00FF      |         255 |
|      25 | 0x0001      |           1 |
|      26 | 0x0075      |         117 |
|      27 | 0x0F28      |        3880 |
|      28 | 0x16AF8     |       92920 |
|      29 | 0xFFFFE4AC  |  4294960300 |
|      30 | 0x0592      |        1426 |
|      31 | 0xFFFFF1C4  |  4294963652 |
|      32 | 0x16B01     |       92929 |
|      33 | 0x0267      |         615 |
|      34 | 0x0032      |          50 |
|      35 | 0x1737C     |       95100 |
|      36 | 0xFFFFE230  |  4294959664 |
|      37 | 0x0400      |        1024 |
|      38 | 0x0069      |         105 |
|      39 | 0x001C      |          28 |
|      40 | 0x14B1B     |       84763 |
|      41 | 0xFFFFEC79  |  4294962297 |
|      42 | 0x0C00      |        3072 |
|      43 | 0x273F      |       10047 |
|      44 | 0x0158      |         344 |
|      45 | 0x2710      |       10000 |
|      46 | 0x2711      |       10001 |
|      47 | 0x2712      |       10002 |
|      48 | 0x2713      |       10003 |
|      49 | 0x2714      |       10004 |
|      50 | 0x2715      |       10005 |
|      51 | 0x2716      |       10006 |
|      52 | 0x2717      |       10007 |
|      53 | 0x2718      |       10008 |
|      54 | 0x2719      |       10009 |
|      55 | 0x271A      |       10010 |
|      56 | 0x271B      |       10011 |
|      57 | 0x271C      |       10012 |
|      58 | 0x271D      |       10013 |
|      59 | 0x271E      |       10014 |
|      60 | 0x271F      |       10015 |
|      61 | 0x0062      |          98 |
|      62 | 0x00C8      |         200 |
|      63 | 0x272B      |       10027 |
|      64 | 0x272C      |       10028 |
|      65 | 0x272D      |       10029 |
|      66 | 0x002D      |          45 |
|      67 | 0x272E      |       10030 |
|      68 | 0x272F      |       10031 |
|      69 | 0x2730      |       10032 |
|      70 | 0x003C      |          60 |
|      71 | 0x022B      |         555 |
|      72 | 0x2740      |       10048 |
|      73 | 0x2741      |       10049 |
|      74 | 0x2742      |       10050 |
|      75 | 0x2743      |       10051 |
|      76 | 0x2744      |       10052 |
|      77 | 0x2745      |       10053 |
|      78 | 0x2746      |       10054 |
|      79 | 0x2747      |       10055 |
|      80 | 0x2748      |       10056 |
|      81 | 0x2749      |       10057 |
|      82 | 0x274A      |       10058 |
|      83 | 0x274B      |       10059 |
|      84 | 0x274C      |       10060 |
|      85 | 0x000B      |          11 |
|      86 | 0x169DB     |       92635 |
|      87 | 0x274D      |       10061 |
|      88 | 0x274E      |       10062 |
|      89 | 0x274F      |       10063 |
|      90 | 0x2750      |       10064 |
|      91 | 0x2751      |       10065 |
|      92 | 0x2752      |       10066 |
|      93 | 0x2753      |       10067 |
|      94 | 0x2754      |       10068 |
|      95 | 0x2755      |       10069 |
|      96 | 0x2756      |       10070 |
|      97 | 0x2757      |       10071 |
|      98 | 0x2758      |       10072 |
|      99 | 0x2759      |       10073 |
|     100 | 0x00C9      |         201 |
|     101 | 0x0002      |           2 |
|     102 | 0x00D7      |         215 |

## String References

- **10047**: @@

## Events

### Event 65535

#### Metadata

| Field        | Value   |
|--------------|---------|
| Entrypoint   | 0x0000  |
| Data Size    | 1 bytes |
| Instructions | 1       |

```
      00 01 02 03 04 05 06 07  08 09 0A 0B 0C 0D 0E 0F
      -- -- -- -- -- -- -- --  -- -- -- -- -- -- -- --
0000: 00                                                .               
```

#### Opcodes

```
  0: 0x0000 [0x00] END_REQSTACK()
```

### Event 21

#### Metadata

| Field        | Value      |
|--------------|------------|
| Entrypoint   | 0x0001     |
| Data Size    | 1205 bytes |
| Instructions | 163        |

```
      00 01 02 03 04 05 06 07  08 09 0A 0B 0C 0D 0E 0F
      -- -- -- -- -- -- -- --  -- -- -- -- -- -- -- --
0000:    42 03 02 00 02 10 03  01 00 09 10 1A BA 0D 46   B.............F
0010: 01 38 00 80 4E 00 FD 22  06 01 2F 00 FD 22 06 01  .8..N.."../.."..
0020: 92 01 FD 22 06 01 94 01  F0 FF FF 7F 94 01 FD 22  ..."..........."
0030: 06 01 BA F0 FF FF 7F 01  80 02 80 03 80 04 80 BA  ................
0040: FD 22 06 01 05 80 06 80  07 80 08 80 80 FD 22 06  ."............".
0050: 01 80 F0 FF FF 7F 1C 09  80 5B 0A 80 FD 22 06 01  .........[..."..
0060: FD 22 06 01 61 73 74 6C  4A F0 FF FF 7F FD 22 06  ."..astlJ.....".
0070: 01 27 05 F0 FF FF 7F 5C  1C 0B 80 45 0C 80 F0 FF  .'.....\...E....
0080: FF 7F F0 FF FF 7F 73 30  30 36 0D 80 1A 99 0D 1C  ......s006......
0090: 0E 80 52 0C 80 F0 FF FF  7F F0 FF FF 7F 73 30 30  ..R..........s00
00A0: 36 45 0C 80 F0 FF FF 7F  F0 FF FF 7F 73 30 31 30  6E..........s010
00B0: 0D 80 2B FD 22 06 01 0F  80 23 2B FD 22 06 01 10  ..+."....#+."...
00C0: 80 23 2A 05 F0 FF FF 7F  52 0C 80 F0 FF FF 7F F0  .#*.....R.......
00D0: FF FF 7F 73 30 31 30 45  0C 80 F0 FF FF 7F F0 FF  ...s010E........
00E0: FF 7F 73 30 31 36 0D 80  29 10 F0 FF FF 7F 5B 1C  ..s016..).....[.
00F0: 11 80 5B 0A 80 FD 22 06  01 FD 22 06 01 61 73 74  ..[..."..."..ast
0100: 31 03 02 10 02 00 03 03  10 12 80 2B FD 22 06 01  1..........+."..
0110: 13 80 23 53 FD 22 06 01  FD 22 06 01 61 73 74 31  ..#S."..."..ast1
0120: 5D 0D 80 14 80 6E FD 22  06 01 15 80 99 FD 22 06  ]....n."......".
0130: 01 2B FD 22 06 01 16 80  23 1A BA 0D 1C 09 80 79  .+."....#......y
0140: 00 F0 FF FF 7F F0 FF FF  7F 52 0C 80 F0 FF FF 7F  .........R......
0150: F0 FF FF 7F 73 30 31 30  34 17 80 77 18 80 19 80  ....s0104..w....
0160: 1C 09 80 AB 09 5C 00 1A  80 5C 01 1A 80 9A 27 10  .....\...\....'.
0170: 88 23 06 01 04 27 10 89  23 06 01 04 92 01 88 23  .#...'..#......#
0180: 06 01 92 01 89 23 06 01  94 01 88 23 06 01 94 01  .....#.....#....
0190: 89 23 06 01 BA 88 23 06  01 1B 80 1C 80 1D 80 1E  .#....#.........
01A0: 80 BA 89 23 06 01 1F 80  20 80 1D 80 21 80 80 F0  ...#.... ...!...
01B0: FF FF 7F 80 88 23 06 01  80 89 23 06 01 4E 00 47  .....#....#..N.G
01C0: 23 06 01 2F 00 47 23 06  01 92 01 47 23 06 01 94  #../.G#....G#...
01D0: 01 47 23 06 01 59 05 47  23 06 01 01 BA 47 23 06  .G#..Y.G#....G#.
01E0: 01 22 80 23 80 24 80 25  80 80 47 23 06 01 5B 26  .".#.$.%..G#..[&
01F0: 80 47 23 06 01 47 23 06  01 73 69 74 6C BA F0 FF  .G#..G#..sitl...
0200: FF 7F 27 80 28 80 29 80  2A 80 29 10 F0 FF FF 7F  ..'.(.).*.).....
0210: 4B 48 2B 80 23 52 2C 80  F0 FF FF 7F F0 FF FF 7F  KH+.#R,.........
0220: 6A 31 30 35 45 2C 80 F0  FF FF 7F F0 FF FF 7F 6A  j105E,.........j
0230: 31 30 36 0D 80 1A 99 0D  1C 14 80 52 2C 80 F0 FF  106........R,...
0240: FF 7F F0 FF FF 7F 6A 31  30 36 02 01 00 0D 80 00  ......j106......
0250: 29 03 45 2C 80 F0 FF FF  7F F0 FF FF 7F 6A 31 30  ).E,.........j10
0260: 38 0D 80 2B 47 23 06 01  2D 80 23 2B 47 23 06 01  8..+G#..-.#+G#..
0270: 2E 80 23 52 2C 80 F0 FF  FF 7F F0 FF FF 7F 6A 31  ..#R,.........j1
0280: 30 38 45 2C 80 F0 FF FF  7F F0 FF FF 7F 6A 31 30  08E,.........j10
0290: 37 0D 80 5B 26 80 47 23  06 01 47 23 06 01 74 6C  7..[&.G#..G#..tl
02A0: 6B 30 2B 47 23 06 01 2F  80 23 2B 47 23 06 01 30  k0+G#../.#+G#..0
02B0: 80 23 52 2C 80 F0 FF FF  7F F0 FF FF 7F 6A 31 30  .#R,.........j10
02C0: 37 45 2C 80 F0 FF FF 7F  F0 FF FF 7F 6A 31 30 39  7E,.........j109
02D0: 0D 80 2B 47 23 06 01 31  80 23 52 2C 80 F0 FF FF  ..+G#..1.#R,....
02E0: 7F F0 FF FF 7F 6A 31 30  39 45 2C 80 F0 FF FF 7F  .....j109E,.....
02F0: F0 FF FF 7F 6A 31 31 30  0D 80 5B 26 80 47 23 06  ....j110..[&.G#.
0300: 01 47 23 06 01 74 6C 6B  31 1C 09 80 03 02 10 02  .G#..tlk1.......
0310: 00 2B 47 23 06 01 32 80  23 53 47 23 06 01 47 23  .+G#..2.#SG#..G#
0320: 06 01 74 6C 6B 31 01 D2  03 45 2C 80 F0 FF FF 7F  ..tlk1...E,.....
0330: F0 FF FF 7F 6A 31 32 30  0D 80 2B 88 23 06 01 33  ....j120..+.#..3
0340: 80 23 2B 88 23 06 01 34  80 23 52 2C 80 F0 FF FF  .#+.#..4.#R,....
0350: 7F F0 FF FF 7F 6A 31 32  30 45 2C 80 F0 FF FF 7F  .....j120E,.....
0360: F0 FF FF 7F 6A 31 32 31  0D 80 2B 88 23 06 01 35  ....j121..+.#..5
0370: 80 23 2B 88 23 06 01 36  80 23 52 2C 80 F0 FF FF  .#+.#..6.#R,....
0380: 7F F0 FF FF 7F 6A 31 32  31 45 2C 80 F0 FF FF 7F  .....j121E,.....
0390: F0 FF FF 7F 6A 31 32 32  0D 80 2B 88 23 06 01 37  ....j122..+.#..7
03A0: 80 23 2B 88 23 06 01 38  80 23 52 2C 80 F0 FF FF  .#+.#..8.#R,....
03B0: 7F F0 FF FF 7F 6A 31 32  32 45 2C 80 F0 FF FF 7F  .....j122E,.....
03C0: F0 FF FF 7F 6A 31 32 33  0D 80 2B 88 23 06 01 39  ....j123..+.#..9
03D0: 80 23 52 2C 80 F0 FF FF  7F F0 FF FF 7F 6A 31 31  .#R,.........j11
03E0: 30 52 2C 80 F0 FF FF 7F  F0 FF FF 7F 6A 31 32 33  0R,.........j123
03F0: 45 2C 80 F0 FF FF 7F F0  FF FF 7F 6A 31 33 30 0D  E,.........j130.
0400: 80 2B 89 23 06 01 3A 80  23 2B 89 23 06 01 3B 80  .+.#..:.#+.#..;.
0410: 23 52 2C 80 F0 FF FF 7F  F0 FF FF 7F 6A 31 33 30  #R,.........j130
0420: 45 2C 80 F0 FF FF 7F F0  FF FF 7F 6A 31 33 31 0D  E,.........j131.
0430: 80 2B 89 23 06 01 3C 80  23 45 2C 80 F0 FF FF 7F  .+.#..<.#E,.....
0440: F0 FF FF 7F 6A 31 31 32  0D 80 29 10 F0 FF FF 7F  ....j112..).....
0450: 4C 1C 14 80 1A BA 0D 1C  09 80 02 01 00 0D 80 00  L...............
0460: 6E 04 29 10 47 23 06 01  06 80 47 23 06 01 52 2C  n.).G#....G#..R,
0470: 80 F0 FF FF 7F F0 FF FF  7F 6A 31 31 32 45 2C 80  .........j112E,.
0480: F0 FF FF 7F F0 FF FF 7F  30 62 6C 66 0D 80 1C 0B  ........0blf....
0490: 80 AB 11 0D 80 1C 19 80  35 3D 80 78 1C 0B 80 AB  ........5=.x....
04A0: 0A 46 00 45 3E 80 F0 FF  FF 7F F0 FF FF 7F 66 64  .F.E>.........fd
04B0: 69 32 0D 80 21 00                                 i2..!.          
```

#### Opcodes

```
  0: 0x0001 [0x42] SET_CLI_EVENT_CANCEL_DATA()
  1: 0x0002 [0x03] ExtData[1]->WorkLocal[2] = Work_Zone[2]
  2: 0x0007 [0x03] ExtData[1]->WorkLocal[1] = Work_Zone[9]
  3: 0x000C [0x1A] CALL_SUBROUTINE(address=0x0DBA)
  4: 0x000F [0x46] CAMERA_CONTROL: Disable user control
  5: 0x0011 [0x38] SET_CLIENT_EVENT_MODE(mode=19*)
  6: 0x0014 [0x4E] SET_ENTITY_HIDE_FLAG: Show Irwyn (ID: 17179389/0x010622FD)
  7: 0x001A [0x2F] Irwyn (ID: 17179389/0x010622FD)->Render.Flags0 &= ~0x80000 // Bit 19
  8: 0x0020 [0x92] Irwyn (ID: 17179389/0x010622FD)->Render.Flags3 ^= 0x01
  9: 0x0026 [0x94] LocalPlayer->Render.Flags3 ^= 0x01
 10: 0x002C [0x94] Irwyn (ID: 17179389/0x010622FD)->Render.Flags3 ^= 0x01
 11: 0x0032 [0xBA] SET_ENTITY_POSITION(entity_id=LocalPlayer, pos_x=-436.622*, pos_z=342.751*, pos_y=0.862*, direction=179.7°*)
 12: 0x003F [0xBA] SET_ENTITY_POSITION(entity_id=Irwyn (ID: 17179389/0x010622FD), pos_x=-443.497*, pos_z=342.435*, pos_y=0.877*, direction=0.3°*)
 13: 0x004C [0x80] LOAD_WAIT(entity=Irwyn (ID: 17179389/0x010622FD))
 14: 0x0051 [0x80] LOAD_WAIT(entity=LocalPlayer)
 15: 0x0056 [0x1C] WAIT(30* ticks)
 16: 0x0059 [0x5B] LOAD_EXT_SCHEDULER: Load scheduler "astl" with entities [Irwyn (ID: 17179389/0x010622FD), Irwyn (ID: 17179389/0x010622FD)], work=863*
 17: 0x0068 [0x4A] LocalPlayer looks at Irwyn (ID: 17179389/0x010622FD)
 18: 0x0071 [0x27] REQ_SET(priority=0x05, entity_id=LocalPlayer, tag_num=0x5C)
 19: 0x0078 [0x1C] WAIT(15* ticks)
 20: 0x007B [0x45] LOAD_SCHEDULED_TASK: Load scheduler "s006" with entities [LocalPlayer, LocalPlayer], work=[365*, 0*]
 21: 0x008C [0x1A] CALL_SUBROUTINE(address=0x0D99)
 22: 0x008F [0x1C] WAIT(90* ticks)
 23: 0x0092 [0x52] END_LOAD_SCHEDULER: End scheduler "s006" with entities [LocalPlayer, LocalPlayer], work=365*
 24: 0x00A1 [0x45] LOAD_SCHEDULED_TASK: Load scheduler "s010" with entities [LocalPlayer, LocalPlayer], work=[365*, 0*]
 25: 0x00B2 [0x2B] Irwyn (ID: 17179389/0x010622FD) [8387*]:
    → "The Duchy of Jeuno, ruled by Archduke Kam'lanaut, lies beyond this point."
 26: 0x00B9 [0x23] WAIT_FOR_DIALOG_INTERACTION
 27: 0x00BA [0x2B] Irwyn (ID: 17179389/0x010622FD) [8388*]:
    → "What business have you here under these forbidding circumstances?"
 28: 0x00C1 [0x23] WAIT_FOR_DIALOG_INTERACTION
 29: 0x00C2 [0x2A] GET_REQ_LEVEL(level=5, entity_id=LocalPlayer)
 30: 0x00C8 [0x52] END_LOAD_SCHEDULER: End scheduler "s010" with entities [LocalPlayer, LocalPlayer], work=365*
 31: 0x00D7 [0x45] LOAD_SCHEDULED_TASK: Load scheduler "s016" with entities [LocalPlayer, LocalPlayer], work=[365*, 0*]
 32: 0x00E8 [0x29] REQ_SET_WAIT(priority=0x10, entity_id=LocalPlayer, tag_num=0x5B)
 33: 0x00EF [0x1C] WAIT(150* ticks)
 34: 0x00F2 [0x5B] LOAD_EXT_SCHEDULER: Load scheduler "ast1" with entities [Irwyn (ID: 17179389/0x010622FD), Irwyn (ID: 17179389/0x010622FD)], work=863*
 35: 0x0101 [0x03] Work_Zone[2] = ExtData[1]->WorkLocal[2]
 36: 0x0106 [0x03] Work_Zone[3] = 2048*
 37: 0x010B [0x2B] Irwyn (ID: 17179389/0x010622FD) [9997*]:
    → "What's this? $6? Ah, you must be one of the [adventurers/Allied soldiers] participating in the Voidwatch operation. Pray forgive my oversight."
 38: 0x0112 [0x23] WAIT_FOR_DIALOG_INTERACTION
 39: 0x0113 [0x53] WAIT_SCHEDULER_TASK: Wait for scheduler "ast1" with entities [Irwyn (ID: 17179389/0x010622FD), Irwyn (ID: 17179389/0x010622FD)]
 40: 0x0120 [0x5D] SET_MUSIC_VOLUME(volume=0*, fade_time=120*)
 41: 0x0125 [0x6E] Irwyn (ID: 17179389/0x010622FD) uses emote 7*
 42: 0x012C [0x99] Wait for Irwyn (ID: 17179389/0x010622FD) animation to complete
 43: 0x0131 [0x2B] Irwyn (ID: 17179389/0x010622FD) [8396*]:
    → "This way, if you will."
 44: 0x0138 [0x23] WAIT_FOR_DIALOG_INTERACTION
 45: 0x0139 [0x1A] CALL_SUBROUTINE(address=0x0DBA)
 46: 0x013C [0x1C] WAIT(30* ticks)
 47: 0x013F [0x79] LocalPlayer looks at LocalPlayer (Basic look)
 48: 0x0149 [0x52] END_LOAD_SCHEDULER: End scheduler "s010" with entities [LocalPlayer, LocalPlayer], work=365*
 49: 0x0158 [0x34] LOAD_UNLOAD_ZONE(zone_id=243*)
 50: 0x015B [0x77] SET_EVENT_TIME_WEATHER(hour=255*, weather=1*)
 51: 0x0160 [0x1C] WAIT(30* ticks)
 52: 0x0163 [0xAB] EventEntity->UnknownFlag = 1 // Enable unknown flag
 53: 0x0165 [0x5C] MUSIC_CONTROL: Set Idle (Day) music to song 117*
 54: 0x0169 [0x5C] MUSIC_CONTROL: Set Idle (Night) music to song 117*
 55: 0x016D [0x9A] WAIT_MUSIC_SERVER()
 56: 0x016E [0x27] REQ_SET(priority=0x10, entity_id=Mawl'gofaur (ID: 17179528/0x01062388), tag_num=0x04)
 57: 0x0175 [0x27] REQ_SET(priority=0x10, entity_id=Kareh'ayollio (ID: 17179529/0x01062389), tag_num=0x04)
 58: 0x017C [0x92] Mawl'gofaur (ID: 17179528/0x01062388)->Render.Flags3 ^= 0x01
 59: 0x0182 [0x92] Kareh'ayollio (ID: 17179529/0x01062389)->Render.Flags3 ^= 0x01
 60: 0x0188 [0x94] Mawl'gofaur (ID: 17179528/0x01062388)->Render.Flags3 ^= 0x01
 61: 0x018E [0x94] Kareh'ayollio (ID: 17179529/0x01062389)->Render.Flags3 ^= 0x01
 62: 0x0194 [0xBA] SET_ENTITY_POSITION(entity_id=Mawl'gofaur (ID: 17179528/0x01062388), pos_x=3.880*, pos_z=92.920*, pos_y=-6.996*, direction=125.3°*)
 63: 0x01A1 [0xBA] SET_ENTITY_POSITION(entity_id=Kareh'ayollio (ID: 17179529/0x01062389), pos_x=-3.644*, pos_z=92.929*, pos_y=-6.996*, direction=54.1°*)
 64: 0x01AE [0x80] LOAD_WAIT(entity=LocalPlayer)
 65: 0x01B3 [0x80] LOAD_WAIT(entity=Mawl'gofaur (ID: 17179528/0x01062388))
 66: 0x01B8 [0x80] LOAD_WAIT(entity=Kareh'ayollio (ID: 17179529/0x01062389))
 67: 0x01BD [0x4E] SET_ENTITY_HIDE_FLAG: Show Kam'lanaut (ID: 17179463/0x01062347)
 68: 0x01C3 [0x2F] Kam'lanaut (ID: 17179463/0x01062347)->Render.Flags0 &= ~0x80000 // Bit 19
 69: 0x01C9 [0x92] Kam'lanaut (ID: 17179463/0x01062347)->Render.Flags3 ^= 0x01
 70: 0x01CF [0x94] Kam'lanaut (ID: 17179463/0x01062347)->Render.Flags3 ^= 0x01
 71: 0x01D5 [0x59] UPDATE_ENTITY_DATA: Kam'lanaut (ID: 17179463/0x01062347)->Render.Flags0 |= 0x200000
 72: 0x01DC [0xBA] SET_ENTITY_POSITION(entity_id=Kam'lanaut (ID: 17179463/0x01062347), pos_x=0.050*, pos_z=95.100*, pos_y=-7.632*, direction=90.0°*)
 73: 0x01E9 [0x80] LOAD_WAIT(entity=Kam'lanaut (ID: 17179463/0x01062347))
 74: 0x01EE [0x5B] LOAD_EXT_SCHEDULER: Load scheduler "sitl" with entities [Kam'lanaut (ID: 17179463/0x01062347), Kam'lanaut (ID: 17179463/0x01062347)], work=105*
 75: 0x01FD [0xBA] SET_ENTITY_POSITION(entity_id=LocalPlayer, pos_x=0.028*, pos_z=84.763*, pos_y=-4.999*, direction=270.0°*)
 76: 0x020A [0x29] REQ_SET_WAIT(priority=0x10, entity_id=LocalPlayer, tag_num=0x4B)
 77: 0x0211 [0x48] [System] [10047*]:
    → "@@"
 78: 0x0214 [0x23] WAIT_FOR_DIALOG_INTERACTION
 79: 0x0215 [0x52] END_LOAD_SCHEDULER: End scheduler "j105" with entities [LocalPlayer, LocalPlayer], work=344*
 80: 0x0224 [0x45] LOAD_SCHEDULED_TASK: Load scheduler "j106" with entities [LocalPlayer, LocalPlayer], work=[344*, 0*]
 81: 0x0235 [0x1A] CALL_SUBROUTINE(address=0x0D99)
 82: 0x0238 [0x1C] WAIT(120* ticks)
 83: 0x023B [0x52] END_LOAD_SCHEDULER: End scheduler "j106" with entities [LocalPlayer, LocalPlayer], work=344*
 84: 0x024A [0x02] IF !(ExtData[1]->WorkLocal[1] == 0*) GOTO 0x0329
 85: 0x0252 [0x45] LOAD_SCHEDULED_TASK: Load scheduler "j108" with entities [LocalPlayer, LocalPlayer], work=[344*, 0*]
 86: 0x0263 [0x2B] Kam'lanaut (ID: 17179463/0x01062347) [10000*]:
    → "Ah, you've come. I've heard much of your exploits. We are fortunate indeed to have you on our side."
 87: 0x026A [0x23] WAIT_FOR_DIALOG_INTERACTION
 88: 0x026B [0x2B] Kam'lanaut (ID: 17179463/0x01062347) [10001*]:
    → "No doubt you're wondering why I've summoned you here today."
 89: 0x0272 [0x23] WAIT_FOR_DIALOG_INTERACTION
 90: 0x0273 [0x52] END_LOAD_SCHEDULER: End scheduler "j108" with entities [LocalPlayer, LocalPlayer], work=344*
 91: 0x0282 [0x45] LOAD_SCHEDULED_TASK: Load scheduler "j107" with entities [LocalPlayer, LocalPlayer], work=[344*, 0*]
 92: 0x0293 [0x5B] LOAD_EXT_SCHEDULER: Load scheduler "tlk0" with entities [Kam'lanaut (ID: 17179463/0x01062347), Kam'lanaut (ID: 17179463/0x01062347)], work=105*
 93: 0x02A2 [0x2B] Kam'lanaut (ID: 17179463/0x01062347) [10002*]:
    → "Time is of the essence, so I'll get straight to the heart of the matter. We are engaged in an operation of the utmost importance, and I thought you'd be just the [man/woman] for the task."
 94: 0x02A9 [0x23] WAIT_FOR_DIALOG_INTERACTION
 95: 0x02AA [0x2B] Kam'lanaut (ID: 17179463/0x01062347) [10003*]:
    → "As you may have already noticed, the Voidwalker threat grows more menacing by the day. In particular, the fiends we have encountered here in the vicinity of the Duchy are possessed of powers that dwarf their already-formidable brethren."
 96: 0x02B1 [0x23] WAIT_FOR_DIALOG_INTERACTION
 97: 0x02B2 [0x52] END_LOAD_SCHEDULER: End scheduler "j107" with entities [LocalPlayer, LocalPlayer], work=344*
 98: 0x02C1 [0x45] LOAD_SCHEDULED_TASK: Load scheduler "j109" with entities [LocalPlayer, LocalPlayer], work=[344*, 0*]
 99: 0x02D2 [0x2B] Kam'lanaut (ID: 17179463/0x01062347) [10004*]:
    → "I hereby authorize you for participation in Voidwatch operations in the Jeuno region. Serve us well, and you will be duly compensated for your efforts."
100: 0x02D9 [0x23] WAIT_FOR_DIALOG_INTERACTION
101: 0x02DA [0x52] END_LOAD_SCHEDULER: End scheduler "j109" with entities [LocalPlayer, LocalPlayer], work=344*
102: 0x02E9 [0x45] LOAD_SCHEDULED_TASK: Load scheduler "j110" with entities [LocalPlayer, LocalPlayer], work=[344*, 0*]
103: 0x02FA [0x5B] LOAD_EXT_SCHEDULER: Load scheduler "tlk1" with entities [Kam'lanaut (ID: 17179463/0x01062347), Kam'lanaut (ID: 17179463/0x01062347)], work=105*
104: 0x0309 [0x1C] WAIT(30* ticks)
105: 0x030C [0x03] Work_Zone[2] = ExtData[1]->WorkLocal[2]
106: 0x0311 [0x2B] Kam'lanaut (ID: 17179463/0x01062347) [10005*]:
    → "You are not the only [adventurer/Allied soldier] I have recruited for this operation. Should you chance upon any others, you may join up with them if you so choose. The Duchy--no, the entire realm--is counting on you, <Player>. Do not let us down."
107: 0x0318 [0x23] WAIT_FOR_DIALOG_INTERACTION
108: 0x0319 [0x53] WAIT_SCHEDULER_TASK: Wait for scheduler "tlk1" with entities [Kam'lanaut (ID: 17179463/0x01062347), Kam'lanaut (ID: 17179463/0x01062347)]
109: 0x0326 [0x01] GOTO 0x03D2
110: 0x0329 [0x45] LOAD_SCHEDULED_TASK: Load scheduler "j120" with entities [LocalPlayer, LocalPlayer], work=[344*, 0*]
111: 0x033A [0x2B] Mawl'gofaur (ID: 17179528/0x01062388) [10006*]:
    → "So you have finally come. I am Mawl'gofaur, aide to the Archduke and overseer of the Voidwatch operation in His Excellency's absence."
112: 0x0341 [0x23] WAIT_FOR_DIALOG_INTERACTION
113: 0x0342 [0x2B] Mawl'gofaur (ID: 17179528/0x01062388) [10007*]:
    → "I hear you have proven yourself capable on the field. The Grand Duchy has need of your services."
114: 0x0349 [0x23] WAIT_FOR_DIALOG_INTERACTION
115: 0x034A [0x52] END_LOAD_SCHEDULER: End scheduler "j120" with entities [LocalPlayer, LocalPlayer], work=344*
116: 0x0359 [0x45] LOAD_SCHEDULED_TASK: Load scheduler "j121" with entities [LocalPlayer, LocalPlayer], work=[344*, 0*]
117: 0x036A [0x2B] Mawl'gofaur (ID: 17179528/0x01062388) [10008*]:
    → "The Voidwalker threat grows ever more grave by the day. The fiends that have been sighted in the immediate vicinity of Jeuno, in particular, possess powers unlike anything we've seen before."
118: 0x0371 [0x23] WAIT_FOR_DIALOG_INTERACTION
119: 0x0372 [0x2B] Mawl'gofaur (ID: 17179528/0x01062388) [10009*]:
    → "Were the Duchy to fall to this extradimensional menace, it would spell disaster for the realm. This should be evident to even a grunt such as yourself."
120: 0x0379 [0x23] WAIT_FOR_DIALOG_INTERACTION
121: 0x037A [0x52] END_LOAD_SCHEDULER: End scheduler "j121" with entities [LocalPlayer, LocalPlayer], work=344*
122: 0x0389 [0x45] LOAD_SCHEDULED_TASK: Load scheduler "j122" with entities [LocalPlayer, LocalPlayer], work=[344*, 0*]
123: 0x039A [0x2B] Mawl'gofaur (ID: 17179528/0x01062388) [10010*]:
    → "In the name of His Excellency Kam'lanaut, Archduke of Jeuno, I hereby authorize you for participation in all Voidwatch operations conducted under the Duchy's jurisdiction."
124: 0x03A1 [0x23] WAIT_FOR_DIALOG_INTERACTION
125: 0x03A2 [0x2B] Mawl'gofaur (ID: 17179528/0x01062388) [10011*]:
    → "Mind you, you are not the only one to whom I have bestowed this clearance. Should you chance upon any of the others, you may band together against the fiends. Or do not. It matters little to me so long as you succeed in your efforts."
126: 0x03A9 [0x23] WAIT_FOR_DIALOG_INTERACTION
127: 0x03AA [0x52] END_LOAD_SCHEDULER: End scheduler "j122" with entities [LocalPlayer, LocalPlayer], work=344*
128: 0x03B9 [0x45] LOAD_SCHEDULED_TASK: Load scheduler "j123" with entities [LocalPlayer, LocalPlayer], work=[344*, 0*]
129: 0x03CA [0x2B] Mawl'gofaur (ID: 17179528/0x01062388) [10012*]:
    → "We lack for capable soldiers, so do try to stay alive. Now be off with you. More pressing matters require my attention."
130: 0x03D1 [0x23] WAIT_FOR_DIALOG_INTERACTION

SUBROUTINE_03D2:
131: 0x03D2 [0x52] END_LOAD_SCHEDULER: End scheduler "j110" with entities [LocalPlayer, LocalPlayer], work=344*
132: 0x03E1 [0x52] END_LOAD_SCHEDULER: End scheduler "j123" with entities [LocalPlayer, LocalPlayer], work=344*
133: 0x03F0 [0x45] LOAD_SCHEDULED_TASK: Load scheduler "j130" with entities [LocalPlayer, LocalPlayer], work=[344*, 0*]
134: 0x0401 [0x2B] Kareh'ayollio (ID: 17179529/0x01062389) [10013*]:
    → "The assignment of individual objectives will be handled by our officers stationed throughout the greater Jeuno region. Report to one posthaste to receive your orders."
135: 0x0408 [0x23] WAIT_FOR_DIALOG_INTERACTION
136: 0x0409 [0x2B] Kareh'ayollio (ID: 17179529/0x01062389) [10014*]:
    → "Do not forget to report back to an officer upon completing an objective, lest your accomplishments go overlooked."
137: 0x0410 [0x23] WAIT_FOR_DIALOG_INTERACTION
138: 0x0411 [0x52] END_LOAD_SCHEDULER: End scheduler "j130" with entities [LocalPlayer, LocalPlayer], work=344*
139: 0x0420 [0x45] LOAD_SCHEDULED_TASK: Load scheduler "j131" with entities [LocalPlayer, LocalPlayer], work=[344*, 0*]
140: 0x0431 [0x2B] Kareh'ayollio (ID: 17179529/0x01062389) [10015*]:
    → "...That is all. You are dismissed."
141: 0x0438 [0x23] WAIT_FOR_DIALOG_INTERACTION
142: 0x0439 [0x45] LOAD_SCHEDULED_TASK: Load scheduler "j112" with entities [LocalPlayer, LocalPlayer], work=[344*, 0*]
143: 0x044A [0x29] REQ_SET_WAIT(priority=0x10, entity_id=LocalPlayer, tag_num=0x4C)
144: 0x0451 [0x1C] WAIT(120* ticks)
145: 0x0454 [0x1A] CALL_SUBROUTINE(address=0x0DBA)
146: 0x0457 [0x1C] WAIT(30* ticks)
147: 0x045A [0x02] IF !(ExtData[1]->WorkLocal[1] == 0*) GOTO 0x046E
148: 0x0462 [0x29] REQ_SET_WAIT(priority=0x10, entity_id=Kam'lanaut (ID: 17179463/0x01062347), tag_num=0x06)
149: 0x0469 [0x80] LOAD_WAIT(entity=Kam'lanaut (ID: 17179463/0x01062347))
150: 0x046E [0x52] END_LOAD_SCHEDULER: End scheduler "j112" with entities [LocalPlayer, LocalPlayer], work=344*
151: 0x047D [0x45] LOAD_SCHEDULED_TASK: Load scheduler "0blf" with entities [LocalPlayer, LocalPlayer], work=[344*, 0*]
152: 0x048E [0x1C] WAIT(15* ticks)
153: 0x0491 [0xAB] EventEntity->DespawnValue = 0* // Set despawn value
154: 0x0495 [0x1C] WAIT(1* ticks)
155: 0x0498 [0x35] LOAD_ZONE_NO_CLOSE(zone_id=98*)
156: 0x049B [0x78] ENABLE_GAME_TIMER_RESET_WEATHER()
157: 0x049C [0x1C] WAIT(15* ticks)
158: 0x049F [0xAB] EventEntity->UnknownFlag = 0 // Disable unknown flag
159: 0x04A1 [0x46] CAMERA_CONTROL: Restore default settings
160: 0x04A3 [0x45] LOAD_SCHEDULED_TASK: Load scheduler "fdi2" with entities [LocalPlayer, LocalPlayer], work=[200*, 0*]
161: 0x04B4 [0x21] END_EVENT
162: 0x04B5 [0x00] END_REQSTACK()
```

### Event 22

#### Metadata

| Field        | Value     |
|--------------|-----------|
| Entrypoint   | 0x04B6    |
| Data Size    | 607 bytes |
| Instructions | 87        |

```
      00 01 02 03 04 05 06 07  08 09 0A 0B 0C 0D 0E 0F
      -- -- -- -- -- -- -- --  -- -- -- -- -- -- -- --
04B0:                   42 1A  BA 0D 46 01 38 00 80 34        B...F.8..4
04C0: 17 80 77 18 80 19 80 1C  09 80 AB 09 5C 00 1A 80  ..w.........\...
04D0: 5C 01 1A 80 9A 27 10 88  23 06 01 04 27 10 89 23  \....'..#...'..#
04E0: 06 01 04 92 01 88 23 06  01 92 01 89 23 06 01 94  ......#.....#...
04F0: 01 F0 FF FF 7F 94 01 88  23 06 01 94 01 89 23 06  ........#.....#.
0500: 01 BA F0 FF FF 7F 27 80  28 80 29 80 2A 80 BA 88  ......'.(.).*...
0510: 23 06 01 1B 80 1C 80 1D  80 1E 80 BA 89 23 06 01  #............#..
0520: 1F 80 20 80 1D 80 21 80  80 F0 FF FF 7F 80 88 23  .. ...!........#
0530: 06 01 80 89 23 06 01 4E  00 47 23 06 01 2F 00 47  ....#..N.G#../.G
0540: 23 06 01 92 01 47 23 06  01 94 01 47 23 06 01 59  #....G#....G#..Y
0550: 05 47 23 06 01 01 BA 47  23 06 01 22 80 23 80 24  .G#....G#..".#.$
0560: 80 25 80 80 47 23 06 01  5B 26 80 47 23 06 01 47  .%..G#..[&.G#..G
0570: 23 06 01 73 69 74 6C 29  10 F0 FF FF 7F 4B 1C 09  #..sitl).....K..
0580: 80 45 2C 80 F0 FF FF 7F  F0 FF FF 7F 6A 33 30 31  .E,.........j301
0590: 0D 80 1A 99 0D 1C 14 80  52 2C 80 F0 FF FF 7F F0  ........R,......
05A0: FF FF 7F 6A 33 30 31 45  2C 80 F0 FF FF 7F F0 FF  ...j301E,.......
05B0: FF 7F 6A 33 30 32 0D 80  5B 26 80 47 23 06 01 47  ..j302..[&.G#..G
05C0: 23 06 01 74 6C 6B 30 2B  47 23 06 01 3F 80 23 2B  #..tlk0+G#..?.#+
05D0: 47 23 06 01 40 80 23 52  2C 80 F0 FF FF 7F F0 FF  G#..@.#R,.......
05E0: FF 7F 6A 33 30 32 45 2C  80 F0 FF FF 7F F0 FF FF  ..j302E,........
05F0: 7F 6A 33 30 33 0D 80 5B  26 80 47 23 06 01 47 23  .j303..[&.G#..G#
0600: 06 01 74 6C 6B 31 1C 09  80 2B 47 23 06 01 41 80  ..tlk1...+G#..A.
0610: 23 53 47 23 06 01 47 23  06 01 74 6C 6B 31 27 10  #SG#..G#..tlk1'.
0620: 47 23 06 01 07 1C 42 80  52 2C 80 F0 FF FF 7F F0  G#....B.R,......
0630: FF FF 7F 6A 33 30 33 45  2C 80 F0 FF FF 7F F0 FF  ...j303E,.......
0640: FF 7F 6A 33 30 34 0D 80  2A 10 47 23 06 01 2B 47  ..j304..*.G#..+G
0650: 23 06 01 43 80 23 2B 47  23 06 01 44 80 23 52 2C  #..C.#+G#..D.#R,
0660: 80 F0 FF FF 7F F0 FF FF  7F 6A 33 30 34 45 2C 80  .........j304E,.
0670: F0 FF FF 7F F0 FF FF 7F  6A 33 30 35 0D 80 2B 47  ........j305..+G
0680: 23 06 01 45 80 23 52 2C  80 F0 FF FF 7F F0 FF FF  #..E.#R,........
0690: 7F 6A 33 30 35 45 2C 80  F0 FF FF 7F F0 FF FF 7F  .j305E,.........
06A0: 6A 33 30 36 0D 80 27 10  47 23 06 01 08 27 10 88  j306..'.G#...'..
06B0: 23 06 01 0D 1C 46 80 27  10 F0 FF FF 7F 4C 1C 11  #....F.'.....L..
06C0: 80 1A BA 0D 1C 09 80 7A  00 88 23 06 01 52 2C 80  .......z..#..R,.
06D0: F0 FF FF 7F F0 FF FF 7F  6A 33 30 36 45 2C 80 F0  ........j306E,..
06E0: FF FF 7F F0 FF FF 7F 30  62 6C 66 0D 80 1C 0B 80  .......0blf.....
06F0: AB 11 0D 80 1C 19 80 35  3D 80 78 1C 0B 80 AB 0A  .......5=.x.....
0700: 46 00 45 3E 80 F0 FF FF  7F F0 FF FF 7F 66 64 69  F.E>.........fdi
0710: 32 0D 80 21 00                                    2..!.           
```

#### Opcodes

```
  0: 0x04B6 [0x42] SET_CLI_EVENT_CANCEL_DATA()
  1: 0x04B7 [0x1A] CALL_SUBROUTINE(address=0x0DBA)
  2: 0x04BA [0x46] CAMERA_CONTROL: Disable user control
  3: 0x04BC [0x38] SET_CLIENT_EVENT_MODE(mode=19*)
  4: 0x04BF [0x34] LOAD_UNLOAD_ZONE(zone_id=243*)
  5: 0x04C2 [0x77] SET_EVENT_TIME_WEATHER(hour=255*, weather=1*)
  6: 0x04C7 [0x1C] WAIT(30* ticks)
  7: 0x04CA [0xAB] EventEntity->UnknownFlag = 1 // Enable unknown flag
  8: 0x04CC [0x5C] MUSIC_CONTROL: Set Idle (Day) music to song 117*
  9: 0x04D0 [0x5C] MUSIC_CONTROL: Set Idle (Night) music to song 117*
 10: 0x04D4 [0x9A] WAIT_MUSIC_SERVER()
 11: 0x04D5 [0x27] REQ_SET(priority=0x10, entity_id=Mawl'gofaur (ID: 17179528/0x01062388), tag_num=0x04)
 12: 0x04DC [0x27] REQ_SET(priority=0x10, entity_id=Kareh'ayollio (ID: 17179529/0x01062389), tag_num=0x04)
 13: 0x04E3 [0x92] Mawl'gofaur (ID: 17179528/0x01062388)->Render.Flags3 ^= 0x01
 14: 0x04E9 [0x92] Kareh'ayollio (ID: 17179529/0x01062389)->Render.Flags3 ^= 0x01
 15: 0x04EF [0x94] LocalPlayer->Render.Flags3 ^= 0x01
 16: 0x04F5 [0x94] Mawl'gofaur (ID: 17179528/0x01062388)->Render.Flags3 ^= 0x01
 17: 0x04FB [0x94] Kareh'ayollio (ID: 17179529/0x01062389)->Render.Flags3 ^= 0x01
 18: 0x0501 [0xBA] SET_ENTITY_POSITION(entity_id=LocalPlayer, pos_x=0.028*, pos_z=84.763*, pos_y=-4.999*, direction=270.0°*)
 19: 0x050E [0xBA] SET_ENTITY_POSITION(entity_id=Mawl'gofaur (ID: 17179528/0x01062388), pos_x=3.880*, pos_z=92.920*, pos_y=-6.996*, direction=125.3°*)
 20: 0x051B [0xBA] SET_ENTITY_POSITION(entity_id=Kareh'ayollio (ID: 17179529/0x01062389), pos_x=-3.644*, pos_z=92.929*, pos_y=-6.996*, direction=54.1°*)
 21: 0x0528 [0x80] LOAD_WAIT(entity=LocalPlayer)
 22: 0x052D [0x80] LOAD_WAIT(entity=Mawl'gofaur (ID: 17179528/0x01062388))
 23: 0x0532 [0x80] LOAD_WAIT(entity=Kareh'ayollio (ID: 17179529/0x01062389))
 24: 0x0537 [0x4E] SET_ENTITY_HIDE_FLAG: Show Kam'lanaut (ID: 17179463/0x01062347)
 25: 0x053D [0x2F] Kam'lanaut (ID: 17179463/0x01062347)->Render.Flags0 &= ~0x80000 // Bit 19
 26: 0x0543 [0x92] Kam'lanaut (ID: 17179463/0x01062347)->Render.Flags3 ^= 0x01
 27: 0x0549 [0x94] Kam'lanaut (ID: 17179463/0x01062347)->Render.Flags3 ^= 0x01
 28: 0x054F [0x59] UPDATE_ENTITY_DATA: Kam'lanaut (ID: 17179463/0x01062347)->Render.Flags0 |= 0x200000
 29: 0x0556 [0xBA] SET_ENTITY_POSITION(entity_id=Kam'lanaut (ID: 17179463/0x01062347), pos_x=0.050*, pos_z=95.100*, pos_y=-7.632*, direction=90.0°*)
 30: 0x0563 [0x80] LOAD_WAIT(entity=Kam'lanaut (ID: 17179463/0x01062347))
 31: 0x0568 [0x5B] LOAD_EXT_SCHEDULER: Load scheduler "sitl" with entities [Kam'lanaut (ID: 17179463/0x01062347), Kam'lanaut (ID: 17179463/0x01062347)], work=105*
 32: 0x0577 [0x29] REQ_SET_WAIT(priority=0x10, entity_id=LocalPlayer, tag_num=0x4B)
 33: 0x057E [0x1C] WAIT(30* ticks)
 34: 0x0581 [0x45] LOAD_SCHEDULED_TASK: Load scheduler "j301" with entities [LocalPlayer, LocalPlayer], work=[344*, 0*]
 35: 0x0592 [0x1A] CALL_SUBROUTINE(address=0x0D99)
 36: 0x0595 [0x1C] WAIT(120* ticks)
 37: 0x0598 [0x52] END_LOAD_SCHEDULER: End scheduler "j301" with entities [LocalPlayer, LocalPlayer], work=344*
 38: 0x05A7 [0x45] LOAD_SCHEDULED_TASK: Load scheduler "j302" with entities [LocalPlayer, LocalPlayer], work=[344*, 0*]
 39: 0x05B8 [0x5B] LOAD_EXT_SCHEDULER: Load scheduler "tlk0" with entities [Kam'lanaut (ID: 17179463/0x01062347), Kam'lanaut (ID: 17179463/0x01062347)], work=105*
 40: 0x05C7 [0x2B] Kam'lanaut (ID: 17179463/0x01062347) [10027*]:
    → "<Player>! I've received word of your accomplishments. Truly, your service to the Voidwatch has exceeded even my initial expectations."
 41: 0x05CE [0x23] WAIT_FOR_DIALOG_INTERACTION
 42: 0x05CF [0x2B] Kam'lanaut (ID: 17179463/0x01062347) [10028*]:
    → "And yet it is hardly the time to rejoice. You have seen it with your own eyes--no sooner is one fiend slain than another of its brethren emerges to take its place."
 43: 0x05D6 [0x23] WAIT_FOR_DIALOG_INTERACTION
 44: 0x05D7 [0x52] END_LOAD_SCHEDULER: End scheduler "j302" with entities [LocalPlayer, LocalPlayer], work=344*
 45: 0x05E6 [0x45] LOAD_SCHEDULED_TASK: Load scheduler "j303" with entities [LocalPlayer, LocalPlayer], work=[344*, 0*]
 46: 0x05F7 [0x5B] LOAD_EXT_SCHEDULER: Load scheduler "tlk1" with entities [Kam'lanaut (ID: 17179463/0x01062347), Kam'lanaut (ID: 17179463/0x01062347)], work=105*
 47: 0x0606 [0x1C] WAIT(30* ticks)
 48: 0x0609 [0x2B] Kam'lanaut (ID: 17179463/0x01062347) [10029*]:
    → "We must find a way to seal the planar rifts. Then, and only then, will we be able to quash this extradimensional menace once and for all."
 49: 0x0610 [0x23] WAIT_FOR_DIALOG_INTERACTION
 50: 0x0611 [0x53] WAIT_SCHEDULER_TASK: Wait for scheduler "tlk1" with entities [Kam'lanaut (ID: 17179463/0x01062347), Kam'lanaut (ID: 17179463/0x01062347)]
 51: 0x061E [0x27] REQ_SET(priority=0x10, entity_id=Kam'lanaut (ID: 17179463/0x01062347), tag_num=0x07)
 52: 0x0625 [0x1C] WAIT(45* ticks)
 53: 0x0628 [0x52] END_LOAD_SCHEDULER: End scheduler "j303" with entities [LocalPlayer, LocalPlayer], work=344*
 54: 0x0637 [0x45] LOAD_SCHEDULED_TASK: Load scheduler "j304" with entities [LocalPlayer, LocalPlayer], work=[344*, 0*]
 55: 0x0648 [0x2A] GET_REQ_LEVEL(level=16, entity_id=Kam'lanaut (ID: 17179463/0x01062347))
 56: 0x064E [0x2B] Kam'lanaut (ID: 17179463/0x01062347) [10030*]:
    → "Even as we speak, an elite team of my best researchers works tirelessly to that very end. Sadly, the true nature of the rifts remains very much an enigma..."
 57: 0x0655 [0x23] WAIT_FOR_DIALOG_INTERACTION
 58: 0x0656 [0x2B] Kam'lanaut (ID: 17179463/0x01062347) [10031*]:
    → "And so I have no choice but to employ capable adventurers such as yourself to keep the fiends at bay. As inefficient as it may seem, it is the best course of action available to us under these conditions."
 59: 0x065D [0x23] WAIT_FOR_DIALOG_INTERACTION
 60: 0x065E [0x52] END_LOAD_SCHEDULER: End scheduler "j304" with entities [LocalPlayer, LocalPlayer], work=344*
 61: 0x066D [0x45] LOAD_SCHEDULED_TASK: Load scheduler "j305" with entities [LocalPlayer, LocalPlayer], work=[344*, 0*]
 62: 0x067E [0x2B] Kam'lanaut (ID: 17179463/0x01062347) [10032*]:
    → "We are counting on your continued efforts, <Player>. In the meantime, take this for your service. May it serve you well."
 63: 0x0685 [0x23] WAIT_FOR_DIALOG_INTERACTION
 64: 0x0686 [0x52] END_LOAD_SCHEDULER: End scheduler "j305" with entities [LocalPlayer, LocalPlayer], work=344*
 65: 0x0695 [0x45] LOAD_SCHEDULED_TASK: Load scheduler "j306" with entities [LocalPlayer, LocalPlayer], work=[344*, 0*]
 66: 0x06A6 [0x27] REQ_SET(priority=0x10, entity_id=Kam'lanaut (ID: 17179463/0x01062347), tag_num=0x08)
 67: 0x06AD [0x27] REQ_SET(priority=0x10, entity_id=Mawl'gofaur (ID: 17179528/0x01062388), tag_num=0x0D)
 68: 0x06B4 [0x1C] WAIT(60* ticks)
 69: 0x06B7 [0x27] REQ_SET(priority=0x10, entity_id=LocalPlayer, tag_num=0x4C)
 70: 0x06BE [0x1C] WAIT(150* ticks)
 71: 0x06C1 [0x1A] CALL_SUBROUTINE(address=0x0DBA)
 72: 0x06C4 [0x1C] WAIT(30* ticks)
 73: 0x06C7 [0x7A] VM_CONTROL: Reset VM for Mawl'gofaur (ID: 17179528/0x01062388)
 74: 0x06CD [0x52] END_LOAD_SCHEDULER: End scheduler "j306" with entities [LocalPlayer, LocalPlayer], work=344*
 75: 0x06DC [0x45] LOAD_SCHEDULED_TASK: Load scheduler "0blf" with entities [LocalPlayer, LocalPlayer], work=[344*, 0*]
 76: 0x06ED [0x1C] WAIT(15* ticks)
 77: 0x06F0 [0xAB] EventEntity->DespawnValue = 0* // Set despawn value
 78: 0x06F4 [0x1C] WAIT(1* ticks)
 79: 0x06F7 [0x35] LOAD_ZONE_NO_CLOSE(zone_id=98*)
 80: 0x06FA [0x78] ENABLE_GAME_TIMER_RESET_WEATHER()
 81: 0x06FB [0x1C] WAIT(15* ticks)
 82: 0x06FE [0xAB] EventEntity->UnknownFlag = 0 // Disable unknown flag
 83: 0x0700 [0x46] CAMERA_CONTROL: Restore default settings
 84: 0x0702 [0x45] LOAD_SCHEDULED_TASK: Load scheduler "fdi2" with entities [LocalPlayer, LocalPlayer], work=[200*, 0*]
 85: 0x0713 [0x21] END_EVENT
 86: 0x0714 [0x00] END_REQSTACK()
```

### Event 27

#### Metadata

| Field        | Value     |
|--------------|-----------|
| Entrypoint   | 0x0715    |
| Data Size    | 483 bytes |
| Instructions | 72        |

```
      00 01 02 03 04 05 06 07  08 09 0A 0B 0C 0D 0E 0F
      -- -- -- -- -- -- -- --  -- -- -- -- -- -- -- --
0710:                42 1A BA  0D 46 01 38 00 80 34 17       B...F.8..4.
0720: 80 77 18 80 19 80 1C 09  80 AB 09 5C 00 1A 80 5C  .w.........\...\
0730: 01 1A 80 9A 27 10 88 23  06 01 04 27 10 89 23 06  ....'..#...'..#.
0740: 01 04 92 01 88 23 06 01  92 01 89 23 06 01 94 01  .....#.....#....
0750: F0 FF FF 7F 94 01 88 23  06 01 94 01 89 23 06 01  .......#.....#..
0760: BA F0 FF FF 7F 27 80 28  80 29 80 2A 80 BA 88 23  .....'.(.).*...#
0770: 06 01 1B 80 1C 80 1D 80  1E 80 BA 89 23 06 01 1F  ............#...
0780: 80 20 80 1D 80 21 80 80  F0 FF FF 7F 80 88 23 06  . ...!........#.
0790: 01 80 89 23 06 01 4E 00  47 23 06 01 2F 00 47 23  ...#..N.G#../.G#
07A0: 06 01 92 01 47 23 06 01  94 01 47 23 06 01 59 05  ....G#....G#..Y.
07B0: 47 23 06 01 01 BA 47 23  06 01 22 80 23 80 24 80  G#....G#..".#.$.
07C0: 25 80 80 47 23 06 01 5B  26 80 47 23 06 01 47 23  %..G#..[&.G#..G#
07D0: 06 01 73 69 74 6C 29 10  F0 FF FF 7F 4B 1C 09 80  ..sitl).....K...
07E0: 45 47 80 F8 FF FF 7F F8  FF FF 7F 73 30 37 39 0D  EG.........s079.
07F0: 80 1A 99 0D 2B 47 23 06  01 48 80 23 52 47 80 F8  ....+G#..H.#RG..
0800: FF FF 7F F8 FF FF 7F 73  30 37 39 45 47 80 F8 FF  .......s079EG...
0810: FF 7F F8 FF FF 7F 73 30  38 30 0D 80 2B 47 23 06  ......s080..+G#.
0820: 01 49 80 23 52 47 80 F8  FF FF 7F F8 FF FF 7F 73  .I.#RG.........s
0830: 30 38 30 45 47 80 F8 FF  FF 7F F8 FF FF 7F 73 30  080EG.........s0
0840: 38 31 0D 80 2B 47 23 06  01 4A 80 23 52 47 80 F8  81..+G#..J.#RG..
0850: FF FF 7F F8 FF FF 7F 73  30 38 31 45 47 80 F8 FF  .......s081EG...
0860: FF 7F F8 FF FF 7F 73 30  38 32 0D 80 2B 47 23 06  ......s082..+G#.
0870: 01 4B 80 23 2B 47 23 06  01 4C 80 23 52 47 80 F8  .K.#+G#..L.#RG..
0880: FF FF 7F F8 FF FF 7F 73  30 38 32 45 47 80 F8 FF  .......s082EG...
0890: FF 7F F8 FF FF 7F 73 30  38 33 0D 80 2B 47 23 06  ......s083..+G#.
08A0: 01 4D 80 23 1A BA 0D 1C  09 80 7A 00 88 23 06 01  .M.#......z..#..
08B0: 52 47 80 F8 FF FF 7F F8  FF FF 7F 73 30 38 33 45  RG.........s083E
08C0: 2C 80 F0 FF FF 7F F0 FF  FF 7F 30 62 6C 66 0D 80  ,.........0blf..
08D0: 1C 0B 80 AB 11 0D 80 1C  19 80 35 3D 80 78 1C 0B  ..........5=.x..
08E0: 80 AB 0A 46 00 45 3E 80  F0 FF FF 7F F0 FF FF 7F  ...F.E>.........
08F0: 66 64 69 32 0D 80 21 00                           fdi2..!.        
```

#### Opcodes

```
  0: 0x0715 [0x42] SET_CLI_EVENT_CANCEL_DATA()
  1: 0x0716 [0x1A] CALL_SUBROUTINE(address=0x0DBA)
  2: 0x0719 [0x46] CAMERA_CONTROL: Disable user control
  3: 0x071B [0x38] SET_CLIENT_EVENT_MODE(mode=19*)
  4: 0x071E [0x34] LOAD_UNLOAD_ZONE(zone_id=243*)
  5: 0x0721 [0x77] SET_EVENT_TIME_WEATHER(hour=255*, weather=1*)
  6: 0x0726 [0x1C] WAIT(30* ticks)
  7: 0x0729 [0xAB] EventEntity->UnknownFlag = 1 // Enable unknown flag
  8: 0x072B [0x5C] MUSIC_CONTROL: Set Idle (Day) music to song 117*
  9: 0x072F [0x5C] MUSIC_CONTROL: Set Idle (Night) music to song 117*
 10: 0x0733 [0x9A] WAIT_MUSIC_SERVER()
 11: 0x0734 [0x27] REQ_SET(priority=0x10, entity_id=Mawl'gofaur (ID: 17179528/0x01062388), tag_num=0x04)
 12: 0x073B [0x27] REQ_SET(priority=0x10, entity_id=Kareh'ayollio (ID: 17179529/0x01062389), tag_num=0x04)
 13: 0x0742 [0x92] Mawl'gofaur (ID: 17179528/0x01062388)->Render.Flags3 ^= 0x01
 14: 0x0748 [0x92] Kareh'ayollio (ID: 17179529/0x01062389)->Render.Flags3 ^= 0x01
 15: 0x074E [0x94] LocalPlayer->Render.Flags3 ^= 0x01
 16: 0x0754 [0x94] Mawl'gofaur (ID: 17179528/0x01062388)->Render.Flags3 ^= 0x01
 17: 0x075A [0x94] Kareh'ayollio (ID: 17179529/0x01062389)->Render.Flags3 ^= 0x01
 18: 0x0760 [0xBA] SET_ENTITY_POSITION(entity_id=LocalPlayer, pos_x=0.028*, pos_z=84.763*, pos_y=-4.999*, direction=270.0°*)
 19: 0x076D [0xBA] SET_ENTITY_POSITION(entity_id=Mawl'gofaur (ID: 17179528/0x01062388), pos_x=3.880*, pos_z=92.920*, pos_y=-6.996*, direction=125.3°*)
 20: 0x077A [0xBA] SET_ENTITY_POSITION(entity_id=Kareh'ayollio (ID: 17179529/0x01062389), pos_x=-3.644*, pos_z=92.929*, pos_y=-6.996*, direction=54.1°*)
 21: 0x0787 [0x80] LOAD_WAIT(entity=LocalPlayer)
 22: 0x078C [0x80] LOAD_WAIT(entity=Mawl'gofaur (ID: 17179528/0x01062388))
 23: 0x0791 [0x80] LOAD_WAIT(entity=Kareh'ayollio (ID: 17179529/0x01062389))
 24: 0x0796 [0x4E] SET_ENTITY_HIDE_FLAG: Show Kam'lanaut (ID: 17179463/0x01062347)
 25: 0x079C [0x2F] Kam'lanaut (ID: 17179463/0x01062347)->Render.Flags0 &= ~0x80000 // Bit 19
 26: 0x07A2 [0x92] Kam'lanaut (ID: 17179463/0x01062347)->Render.Flags3 ^= 0x01
 27: 0x07A8 [0x94] Kam'lanaut (ID: 17179463/0x01062347)->Render.Flags3 ^= 0x01
 28: 0x07AE [0x59] UPDATE_ENTITY_DATA: Kam'lanaut (ID: 17179463/0x01062347)->Render.Flags0 |= 0x200000
 29: 0x07B5 [0xBA] SET_ENTITY_POSITION(entity_id=Kam'lanaut (ID: 17179463/0x01062347), pos_x=0.050*, pos_z=95.100*, pos_y=-7.632*, direction=90.0°*)
 30: 0x07C2 [0x80] LOAD_WAIT(entity=Kam'lanaut (ID: 17179463/0x01062347))
 31: 0x07C7 [0x5B] LOAD_EXT_SCHEDULER: Load scheduler "sitl" with entities [Kam'lanaut (ID: 17179463/0x01062347), Kam'lanaut (ID: 17179463/0x01062347)], work=105*
 32: 0x07D6 [0x29] REQ_SET_WAIT(priority=0x10, entity_id=LocalPlayer, tag_num=0x4B)
 33: 0x07DD [0x1C] WAIT(30* ticks)
 34: 0x07E0 [0x45] LOAD_SCHEDULED_TASK: Load scheduler "s079" with entities [EventEntity, EventEntity], work=[555*, 0*]
 35: 0x07F1 [0x1A] CALL_SUBROUTINE(address=0x0D99)
 36: 0x07F4 [0x2B] Kam'lanaut (ID: 17179463/0x01062347) [10048*]:
    → "Ah, there you are. No doubt you already know why I've summoned you here today."
 37: 0x07FB [0x23] WAIT_FOR_DIALOG_INTERACTION
 38: 0x07FC [0x52] END_LOAD_SCHEDULER: End scheduler "s079" with entities [EventEntity, EventEntity], work=555*
 39: 0x080B [0x45] LOAD_SCHEDULED_TASK: Load scheduler "s080" with entities [EventEntity, EventEntity], work=[555*, 0*]
 40: 0x081C [0x2B] Kam'lanaut (ID: 17179463/0x01062347) [10049*]:
    → "Thanks to your efforts, our extradimensional intruders had remained silent for a spell...but no longer. We've just received word that new planar rifts have been identified."
 41: 0x0823 [0x23] WAIT_FOR_DIALOG_INTERACTION
 42: 0x0824 [0x52] END_LOAD_SCHEDULER: End scheduler "s080" with entities [EventEntity, EventEntity], work=555*
 43: 0x0833 [0x45] LOAD_SCHEDULED_TASK: Load scheduler "s081" with entities [EventEntity, EventEntity], work=[555*, 0*]
 44: 0x0844 [0x2B] Kam'lanaut (ID: 17179463/0x01062347) [10050*]:
    → "Three locations, all told: Vunkerl Inlet, Grauberg, and Fort Karugo-Narugo. I would have you investigate further."
 45: 0x084B [0x23] WAIT_FOR_DIALOG_INTERACTION
 46: 0x084C [0x52] END_LOAD_SCHEDULER: End scheduler "s081" with entities [EventEntity, EventEntity], work=555*
 47: 0x085B [0x45] LOAD_SCHEDULED_TASK: Load scheduler "s082" with entities [EventEntity, EventEntity], work=[555*, 0*]
 48: 0x086C [0x2B] Kam'lanaut (ID: 17179463/0x01062347) [10051*]:
    → "We are aware that you are on active duty for the Allied Forces. As such, you may prioritize your Voidwatch efforts as you see fit."
 49: 0x0873 [0x23] WAIT_FOR_DIALOG_INTERACTION
 50: 0x0874 [0x2B] Kam'lanaut (ID: 17179463/0x01062347) [10052*]:
    → "At any rate, we will issue you a badge of authorization. Present it to our men afield to receive further orders."
 51: 0x087B [0x23] WAIT_FOR_DIALOG_INTERACTION
 52: 0x087C [0x52] END_LOAD_SCHEDULER: End scheduler "s082" with entities [EventEntity, EventEntity], work=555*
 53: 0x088B [0x45] LOAD_SCHEDULED_TASK: Load scheduler "s083" with entities [EventEntity, EventEntity], work=[555*, 0*]
 54: 0x089C [0x2B] Kam'lanaut (ID: 17179463/0x01062347) [10053*]:
    → "You are not the only Allied soldier who has been recruited to the Voidwatch cause. There is strength in numbers, so you would do well to seek them out. The Duchy awaits word of your success, <Player>."
 55: 0x08A3 [0x23] WAIT_FOR_DIALOG_INTERACTION
 56: 0x08A4 [0x1A] CALL_SUBROUTINE(address=0x0DBA)
 57: 0x08A7 [0x1C] WAIT(30* ticks)
 58: 0x08AA [0x7A] VM_CONTROL: Reset VM for Mawl'gofaur (ID: 17179528/0x01062388)
 59: 0x08B0 [0x52] END_LOAD_SCHEDULER: End scheduler "s083" with entities [EventEntity, EventEntity], work=555*
 60: 0x08BF [0x45] LOAD_SCHEDULED_TASK: Load scheduler "0blf" with entities [LocalPlayer, LocalPlayer], work=[344*, 0*]
 61: 0x08D0 [0x1C] WAIT(15* ticks)
 62: 0x08D3 [0xAB] EventEntity->DespawnValue = 0* // Set despawn value
 63: 0x08D7 [0x1C] WAIT(1* ticks)
 64: 0x08DA [0x35] LOAD_ZONE_NO_CLOSE(zone_id=98*)
 65: 0x08DD [0x78] ENABLE_GAME_TIMER_RESET_WEATHER()
 66: 0x08DE [0x1C] WAIT(15* ticks)
 67: 0x08E1 [0xAB] EventEntity->UnknownFlag = 0 // Disable unknown flag
 68: 0x08E3 [0x46] CAMERA_CONTROL: Restore default settings
 69: 0x08E5 [0x45] LOAD_SCHEDULED_TASK: Load scheduler "fdi2" with entities [LocalPlayer, LocalPlayer], work=[200*, 0*]
 70: 0x08F6 [0x21] END_EVENT
 71: 0x08F7 [0x00] END_REQSTACK()
```

### Event 28

#### Metadata

| Field        | Value     |
|--------------|-----------|
| Entrypoint   | 0x08F8    |
| Data Size    | 491 bytes |
| Instructions | 74        |

```
      00 01 02 03 04 05 06 07  08 09 0A 0B 0C 0D 0E 0F
      -- -- -- -- -- -- -- --  -- -- -- -- -- -- -- --
08F0:                          42 1A BA 0D 46 01 38 00          B...F.8.
0900: 80 34 17 80 77 18 80 19  80 1C 09 80 AB 09 5C 00  .4..w.........\.
0910: 1A 80 5C 01 1A 80 9A 27  10 88 23 06 01 04 27 10  ..\....'..#...'.
0920: 89 23 06 01 04 92 01 88  23 06 01 92 01 89 23 06  .#......#.....#.
0930: 01 94 01 F0 FF FF 7F 94  01 88 23 06 01 94 01 89  ..........#.....
0940: 23 06 01 BA F0 FF FF 7F  27 80 28 80 29 80 2A 80  #.......'.(.).*.
0950: BA 88 23 06 01 1B 80 1C  80 1D 80 1E 80 BA 89 23  ..#............#
0960: 06 01 1F 80 20 80 1D 80  21 80 80 F0 FF FF 7F 80  .... ...!.......
0970: 88 23 06 01 80 89 23 06  01 4E 00 47 23 06 01 2F  .#....#..N.G#../
0980: 00 47 23 06 01 92 01 47  23 06 01 94 01 47 23 06  .G#....G#....G#.
0990: 01 59 05 47 23 06 01 01  BA 47 23 06 01 22 80 23  .Y.G#....G#..".#
09A0: 80 24 80 25 80 80 47 23  06 01 5B 26 80 47 23 06  .$.%..G#..[&.G#.
09B0: 01 47 23 06 01 73 69 74  6C 29 10 F0 FF FF 7F 4B  .G#..sitl).....K
09C0: 1C 09 80 45 47 80 F8 FF  FF 7F F8 FF FF 7F 73 30  ...EG.........s0
09D0: 38 39 0D 80 1A 99 0D 2B  47 23 06 01 4E 80 23 52  89.....+G#..N.#R
09E0: 47 80 F8 FF FF 7F F8 FF  FF 7F 73 30 38 39 45 47  G.........s089EG
09F0: 80 F8 FF FF 7F F8 FF FF  7F 73 30 39 30 0D 80 2B  .........s090..+
0A00: 47 23 06 01 4F 80 23 52  47 80 F8 FF FF 7F F8 FF  G#..O.#RG.......
0A10: FF 7F 73 30 39 30 45 47  80 F8 FF FF 7F F8 FF FF  ..s090EG........
0A20: 7F 73 30 39 31 0D 80 2B  47 23 06 01 50 80 23 2B  .s091..+G#..P.#+
0A30: 47 23 06 01 51 80 23 52  47 80 F8 FF FF 7F F8 FF  G#..Q.#RG.......
0A40: FF 7F 73 30 39 31 45 47  80 F8 FF FF 7F F8 FF FF  ..s091EG........
0A50: 7F 73 31 31 33 0D 80 2B  47 23 06 01 52 80 23 2B  .s113..+G#..R.#+
0A60: 47 23 06 01 53 80 23 52  47 80 F8 FF FF 7F F8 FF  G#..S.#RG.......
0A70: FF 7F 73 31 31 33 45 47  80 F8 FF FF 7F F8 FF FF  ..s113EG........
0A80: 7F 73 31 31 34 0D 80 2B  47 23 06 01 54 80 23 1A  .s114..+G#..T.#.
0A90: BA 0D 1C 09 80 7A 00 88  23 06 01 52 47 80 F8 FF  .....z..#..RG...
0AA0: FF 7F F8 FF FF 7F 73 31  31 34 45 2C 80 F0 FF FF  ......s114E,....
0AB0: 7F F0 FF FF 7F 30 62 6C  66 0D 80 1C 0B 80 AB 11  .....0blf.......
0AC0: 0D 80 1C 19 80 35 3D 80  78 1C 0B 80 AB 0A 46 00  .....5=.x.....F.
0AD0: 45 3E 80 F0 FF FF 7F F0  FF FF 7F 66 64 69 32 0D  E>.........fdi2.
0AE0: 80 21 00                                          .!.             
```

#### Opcodes

```
  0: 0x08F8 [0x42] SET_CLI_EVENT_CANCEL_DATA()
  1: 0x08F9 [0x1A] CALL_SUBROUTINE(address=0x0DBA)
  2: 0x08FC [0x46] CAMERA_CONTROL: Disable user control
  3: 0x08FE [0x38] SET_CLIENT_EVENT_MODE(mode=19*)
  4: 0x0901 [0x34] LOAD_UNLOAD_ZONE(zone_id=243*)
  5: 0x0904 [0x77] SET_EVENT_TIME_WEATHER(hour=255*, weather=1*)
  6: 0x0909 [0x1C] WAIT(30* ticks)
  7: 0x090C [0xAB] EventEntity->UnknownFlag = 1 // Enable unknown flag
  8: 0x090E [0x5C] MUSIC_CONTROL: Set Idle (Day) music to song 117*
  9: 0x0912 [0x5C] MUSIC_CONTROL: Set Idle (Night) music to song 117*
 10: 0x0916 [0x9A] WAIT_MUSIC_SERVER()
 11: 0x0917 [0x27] REQ_SET(priority=0x10, entity_id=Mawl'gofaur (ID: 17179528/0x01062388), tag_num=0x04)
 12: 0x091E [0x27] REQ_SET(priority=0x10, entity_id=Kareh'ayollio (ID: 17179529/0x01062389), tag_num=0x04)
 13: 0x0925 [0x92] Mawl'gofaur (ID: 17179528/0x01062388)->Render.Flags3 ^= 0x01
 14: 0x092B [0x92] Kareh'ayollio (ID: 17179529/0x01062389)->Render.Flags3 ^= 0x01
 15: 0x0931 [0x94] LocalPlayer->Render.Flags3 ^= 0x01
 16: 0x0937 [0x94] Mawl'gofaur (ID: 17179528/0x01062388)->Render.Flags3 ^= 0x01
 17: 0x093D [0x94] Kareh'ayollio (ID: 17179529/0x01062389)->Render.Flags3 ^= 0x01
 18: 0x0943 [0xBA] SET_ENTITY_POSITION(entity_id=LocalPlayer, pos_x=0.028*, pos_z=84.763*, pos_y=-4.999*, direction=270.0°*)
 19: 0x0950 [0xBA] SET_ENTITY_POSITION(entity_id=Mawl'gofaur (ID: 17179528/0x01062388), pos_x=3.880*, pos_z=92.920*, pos_y=-6.996*, direction=125.3°*)
 20: 0x095D [0xBA] SET_ENTITY_POSITION(entity_id=Kareh'ayollio (ID: 17179529/0x01062389), pos_x=-3.644*, pos_z=92.929*, pos_y=-6.996*, direction=54.1°*)
 21: 0x096A [0x80] LOAD_WAIT(entity=LocalPlayer)
 22: 0x096F [0x80] LOAD_WAIT(entity=Mawl'gofaur (ID: 17179528/0x01062388))
 23: 0x0974 [0x80] LOAD_WAIT(entity=Kareh'ayollio (ID: 17179529/0x01062389))
 24: 0x0979 [0x4E] SET_ENTITY_HIDE_FLAG: Show Kam'lanaut (ID: 17179463/0x01062347)
 25: 0x097F [0x2F] Kam'lanaut (ID: 17179463/0x01062347)->Render.Flags0 &= ~0x80000 // Bit 19
 26: 0x0985 [0x92] Kam'lanaut (ID: 17179463/0x01062347)->Render.Flags3 ^= 0x01
 27: 0x098B [0x94] Kam'lanaut (ID: 17179463/0x01062347)->Render.Flags3 ^= 0x01
 28: 0x0991 [0x59] UPDATE_ENTITY_DATA: Kam'lanaut (ID: 17179463/0x01062347)->Render.Flags0 |= 0x200000
 29: 0x0998 [0xBA] SET_ENTITY_POSITION(entity_id=Kam'lanaut (ID: 17179463/0x01062347), pos_x=0.050*, pos_z=95.100*, pos_y=-7.632*, direction=90.0°*)
 30: 0x09A5 [0x80] LOAD_WAIT(entity=Kam'lanaut (ID: 17179463/0x01062347))
 31: 0x09AA [0x5B] LOAD_EXT_SCHEDULER: Load scheduler "sitl" with entities [Kam'lanaut (ID: 17179463/0x01062347), Kam'lanaut (ID: 17179463/0x01062347)], work=105*
 32: 0x09B9 [0x29] REQ_SET_WAIT(priority=0x10, entity_id=LocalPlayer, tag_num=0x4B)
 33: 0x09C0 [0x1C] WAIT(30* ticks)
 34: 0x09C3 [0x45] LOAD_SCHEDULED_TASK: Load scheduler "s089" with entities [EventEntity, EventEntity], work=[555*, 0*]
 35: 0x09D4 [0x1A] CALL_SUBROUTINE(address=0x0D99)
 36: 0x09D7 [0x2B] Kam'lanaut (ID: 17179463/0x01062347) [10054*]:
    → "Impressive work on the Voidwatch front, <Player>. Once again, you prove yourself an invaluable asset to the cause."
 37: 0x09DE [0x23] WAIT_FOR_DIALOG_INTERACTION
 38: 0x09DF [0x52] END_LOAD_SCHEDULER: End scheduler "s089" with entities [EventEntity, EventEntity], work=555*
 39: 0x09EE [0x45] LOAD_SCHEDULED_TASK: Load scheduler "s090" with entities [EventEntity, EventEntity], work=[555*, 0*]
 40: 0x09FF [0x2B] Kam'lanaut (ID: 17179463/0x01062347) [10055*]:
    → "The war with the Beastman Confederate has taken its toll upon us all. Allied soldiers struggle merely to stay on their feet."
 41: 0x0A06 [0x23] WAIT_FOR_DIALOG_INTERACTION
 42: 0x0A07 [0x52] END_LOAD_SCHEDULER: End scheduler "s090" with entities [EventEntity, EventEntity], work=555*
 43: 0x0A16 [0x45] LOAD_SCHEDULED_TASK: Load scheduler "s091" with entities [EventEntity, EventEntity], work=[555*, 0*]
 44: 0x0A27 [0x2B] Kam'lanaut (ID: 17179463/0x01062347) [10056*]:
    → "And yet, in such trying times, brave [men/women] like yourself have answered our call while continuing to fight for the greater cause."
 45: 0x0A2E [0x23] WAIT_FOR_DIALOG_INTERACTION
 46: 0x0A2F [0x2B] Kam'lanaut (ID: 17179463/0x01062347) [10057*]:
    → "You have my personal thanks, <Player>, and those of the entire Allied Forces."
 47: 0x0A36 [0x23] WAIT_FOR_DIALOG_INTERACTION
 48: 0x0A37 [0x52] END_LOAD_SCHEDULER: End scheduler "s091" with entities [EventEntity, EventEntity], work=555*
 49: 0x0A46 [0x45] LOAD_SCHEDULED_TASK: Load scheduler "s113" with entities [EventEntity, EventEntity], work=[555*, 0*]
 50: 0x0A57 [0x2B] Kam'lanaut (ID: 17179463/0x01062347) [10058*]:
    → "The Voidwalkers have been repelled for now, but if the past has taught us anything, we've not seen the last of them."
 51: 0x0A5E [0x23] WAIT_FOR_DIALOG_INTERACTION
 52: 0x0A5F [0x2B] Kam'lanaut (ID: 17179463/0x01062347) [10059*]:
    → "...A war on two fronts. Hardly an ideal situation, but we must fight on. I trust that you will continue to stand with us, <Player>."
 53: 0x0A66 [0x23] WAIT_FOR_DIALOG_INTERACTION
 54: 0x0A67 [0x52] END_LOAD_SCHEDULER: End scheduler "s113" with entities [EventEntity, EventEntity], work=555*
 55: 0x0A76 [0x45] LOAD_SCHEDULED_TASK: Load scheduler "s114" with entities [EventEntity, EventEntity], work=[555*, 0*]
 56: 0x0A87 [0x2B] Kam'lanaut (ID: 17179463/0x01062347) [10060*]:
    → "In the meantime, take this as a token of our gratitude. Use it well, that you might be prepared when duty calls again."
 57: 0x0A8E [0x23] WAIT_FOR_DIALOG_INTERACTION
 58: 0x0A8F [0x1A] CALL_SUBROUTINE(address=0x0DBA)
 59: 0x0A92 [0x1C] WAIT(30* ticks)
 60: 0x0A95 [0x7A] VM_CONTROL: Reset VM for Mawl'gofaur (ID: 17179528/0x01062388)
 61: 0x0A9B [0x52] END_LOAD_SCHEDULER: End scheduler "s114" with entities [EventEntity, EventEntity], work=555*
 62: 0x0AAA [0x45] LOAD_SCHEDULED_TASK: Load scheduler "0blf" with entities [LocalPlayer, LocalPlayer], work=[344*, 0*]
 63: 0x0ABB [0x1C] WAIT(15* ticks)
 64: 0x0ABE [0xAB] EventEntity->DespawnValue = 0* // Set despawn value
 65: 0x0AC2 [0x1C] WAIT(1* ticks)
 66: 0x0AC5 [0x35] LOAD_ZONE_NO_CLOSE(zone_id=98*)
 67: 0x0AC8 [0x78] ENABLE_GAME_TIMER_RESET_WEATHER()
 68: 0x0AC9 [0x1C] WAIT(15* ticks)
 69: 0x0ACC [0xAB] EventEntity->UnknownFlag = 0 // Disable unknown flag
 70: 0x0ACE [0x46] CAMERA_CONTROL: Restore default settings
 71: 0x0AD0 [0x45] LOAD_SCHEDULED_TASK: Load scheduler "fdi2" with entities [LocalPlayer, LocalPlayer], work=[200*, 0*]
 72: 0x0AE1 [0x21] END_EVENT
 73: 0x0AE2 [0x00] END_REQSTACK()
```

### Event 30

#### Metadata

| Field        | Value      |
|--------------|------------|
| Entrypoint   | 0x0AE3     |
| Data Size    | 1285 bytes |
| Instructions | 97         |

```
      00 01 02 03 04 05 06 07  08 09 0A 0B 0C 0D 0E 0F
      -- -- -- -- -- -- -- --  -- -- -- -- -- -- -- --
0AE0:          42 1A BA 0D 46  01 38 00 80 34 17 80 77     B...F.8..4..w
0AF0: 18 80 19 80 1C 09 80 AB  09 5C 00 1A 80 5C 01 1A  .........\...\..
0B00: 80 9A 27 10 88 23 06 01  04 27 10 89 23 06 01 04  ..'..#...'..#...
0B10: 92 01 88 23 06 01 92 01  89 23 06 01 94 01 88 23  ...#.....#.....#
0B20: 06 01 94 01 89 23 06 01  BA 88 23 06 01 55 80 56  .....#....#..U.V
0B30: 80 1D 80 25 80 BA 89 23  06 01 1F 80 20 80 1D 80  ...%...#.... ...
0B40: 21 80 80 F0 FF FF 7F 80  88 23 06 01 80 89 23 06  !........#....#.
0B50: 01 BA F0 FF FF 7F 27 80  28 80 29 80 2A 80 29 10  ......'.(.).*.).
0B60: F0 FF FF 7F 4B 48 2B 80  23 52 2C 80 F0 FF FF 7F  ....KH+.#R,.....
0B70: F0 FF FF 7F 6A 31 30 35  45 2C 80 F0 FF FF 7F F0  ....j105E,......
0B80: FF FF 7F 6A 31 30 36 0D  80 1A 99 0D 1C 14 80 52  ...j106........R
0B90: 2C 80 F0 FF FF 7F F0 FF  FF 7F 6A 31 30 36 45 2C  ,.........j106E,
0BA0: 80 F0 FF FF 7F F0 FF FF  7F 6A 31 32 30 0D 80 2B  .........j120..+
0BB0: 88 23 06 01 33 80 23 2B  88 23 06 01 57 80 23 52  .#..3.#+.#..W.#R
0BC0: 2C 80 F0 FF FF 7F F0 FF  FF 7F 6A 31 32 30 45 2C  ,.........j120E,
0BD0: 80 F0 FF FF 7F F0 FF FF  7F 6A 31 32 31 0D 80 2B  .........j121..+
0BE0: 88 23 06 01 58 80 23 2B  88 23 06 01 59 80 23 52  .#..X.#+.#..Y.#R
0BF0: 2C 80 F0 FF FF 7F F0 FF  FF 7F 6A 31 32 31 45 2C  ,.........j121E,
0C00: 80 F0 FF FF 7F F0 FF FF  7F 6A 31 32 32 0D 80 2B  .........j122..+
0C10: 88 23 06 01 5A 80 23 2B  88 23 06 01 5B 80 23 52  .#..Z.#+.#..[.#R
0C20: 2C 80 F0 FF FF 7F F0 FF  FF 7F 6A 31 32 32 45 2C  ,.........j122E,
0C30: 80 F0 FF FF 7F F0 FF FF  7F 6A 32 31 32 0D 80 2B  .........j212..+
0C40: 88 23 06 01 5C 80 23 52  2C 80 F0 FF FF 7F F0 FF  .#..\.#R,.......
0C50: FF 7F 6A 32 31 32 45 2C  80 F0 FF FF 7F F0 FF FF  ..j212E,........
0C60: 7F 6A 32 32 30 0D 80 2B  89 23 06 01 5D 80 23 2B  .j220..+.#..].#+
0C70: 89 23 06 01 5E 80 23 52  2C 80 F0 FF FF 7F F0 FF  .#..^.#R,.......
0C80: FF 7F 6A 32 32 30 45 2C  80 F0 FF FF 7F F0 FF FF  ..j220E,........
0C90: 7F 6A 32 32 31 0D 80 2B  89 23 06 01 5F 80 23 2B  .j221..+.#.._.#+
0CA0: 89 23 06 01 60 80 23 52  2C 80 F0 FF FF 7F F0 FF  .#..`.#R,.......
0CB0: FF 7F 6A 32 32 31 45 2C  80 F0 FF FF 7F F0 FF FF  ..j221E,........
0CC0: 7F 6A 33 31 33 0D 80 2B  88 23 06 01 61 80 23 2B  .j313..+.#..a.#+
0CD0: 88 23 06 01 62 80 23 52  2C 80 F0 FF FF 7F F0 FF  .#..b.#R,.......
0CE0: FF 7F 6A 33 31 33 45 2C  80 F0 FF FF 7F F0 FF FF  ..j313E,........
0CF0: 7F 6A 33 31 34 0D 80 2B  88 23 06 01 63 80 23 29  .j314..+.#..c.#)
0D00: 10 F0 FF FF 7F 4C 1C 14  80 1A BA 0D 1C 09 80 52  .....L.........R
0D10: 2C 80 F0 FF FF 7F F0 FF  FF 7F 6A 33 31 34 45 2C  ,.........j314E,
0D20: 80 F0 FF FF 7F F0 FF FF  7F 30 62 6C 66 0D 80 1C  .........0blf...
0D30: 0B 80 AB 11 0D 80 1C 19  80 35 3D 80 78 1C 0B 80  .........5=.x...
0D40: AB 0A 46 00 45 3E 80 F0  FF FF 7F F0 FF FF 7F 66  ..F.E>.........f
0D50: 64 69 32 0D 80 21 00 45  3E 80 F0 FF FF 7F F0 FF  di2..!.E>.......
0D60: FF 7F 66 64 69 30 0D 80  55 3E 80 F0 FF FF 7F F0  ..fdi0..U>......
0D70: FF FF 7F 66 64 69 30 1B  45 3E 80 F0 FF FF 7F F0  ...fdi0.E>......
0D80: FF FF 7F 66 64 6F 30 0D  80 55 3E 80 F0 FF FF 7F  ...fdo0..U>.....
0D90: F0 FF FF 7F 66 64 6F 30  1B 45 3E 80 F0 FF FF 7F  ....fdo0.E>.....
0DA0: F0 FF FF 7F 66 64 69 31  0D 80 55 3E 80 F0 FF FF  ....fdi1..U>....
0DB0: 7F F0 FF FF 7F 66 64 69  31 1B 45 3E 80 F0 FF FF  .....fdi1.E>....
0DC0: 7F F0 FF FF 7F 66 64 6F  31 0D 80 55 3E 80 F0 FF  .....fdo1..U>...
0DD0: FF 7F F0 FF FF 7F 66 64  6F 31 1B 45 64 80 F0 FF  ......fdo1.Ed...
0DE0: FF 7F F0 FF FF 7F 77 68  69 31 0D 80 55 64 80 F0  ......whi1..Ud..
0DF0: FF FF 7F F0 FF FF 7F 77  68 69 31 1B 45 64 80 F0  .......whi1.Ed..
0E00: FF FF 7F F0 FF FF 7F 77  68 6F 31 0D 80 55 64 80  .......who1..Ud.
0E10: F0 FF FF 7F F0 FF FF 7F  77 68 6F 31 1B 45 64 80  ........who1.Ed.
0E20: F0 FF FF 7F F0 FF FF 7F  77 68 6F 32 0D 80 55 64  ........who2..Ud
0E30: 80 F0 FF FF 7F F0 FF FF  7F 77 68 6F 32 1B 45 64  .........who2.Ed
0E40: 80 F0 FF FF 7F F0 FF FF  7F 77 68 6F 33 0D 80 55  .........who3..U
0E50: 64 80 F0 FF FF 7F F0 FF  FF 7F 77 68 6F 33 1B 62  d.........who3.b
0E60: 19 80 F0 FF FF 7F F0 FF  FF 7F 6D 61 69 6E 0D 80  ..........main..
0E70: 1C 42 80 45 3E 80 F0 FF  FF 7F F0 FF FF 7F 66 64  .B.E>.........fd
0E80: 6F 31 0D 80 55 3E 80 F0  FF FF 7F F0 FF FF 7F 66  o1..U>.........f
0E90: 64 6F 31 1B 45 3E 80 F0  FF FF 7F F0 FF FF 7F 66  do1.E>.........f
0EA0: 64 69 31 0D 80 62 65 80  F0 FF FF 7F F0 FF FF 7F  di1..be.........
0EB0: 6D 61 69 6E 0D 80 1C 09  80 55 3E 80 F0 FF FF 7F  main.....U>.....
0EC0: F0 FF FF 7F 66 64 69 31  1B 45 3E 80 F0 FF FF 7F  ....fdi1.E>.....
0ED0: F0 FF FF 7F 62 6C 6F 6E  0D 80 45 64 80 F0 FF FF  ....blon..Ed....
0EE0: 7F F0 FF FF 7F 62 6C 6F  6E 0D 80 1B 45 64 80 F0  .....blon...Ed..
0EF0: FF FF 7F F0 FF FF 7F 77  68 69 30 0D 80 55 64 80  .......whi0..Ud.
0F00: F0 FF FF 7F F0 FF FF 7F  77 68 69 30 1B 45 64 80  ........whi0.Ed.
0F10: F0 FF FF 7F F0 FF FF 7F  77 68 6F 30 0D 80 55 64  ........who0..Ud
0F20: 80 F0 FF FF 7F F0 FF FF  7F 77 68 6F 30 1B 45 66  .........who0.Ef
0F30: 80 F0 FF FF 7F F0 FF FF  7F 65 66 6F 6E 0D 80 55  .........efon..U
0F40: 66 80 F0 FF FF 7F F0 FF  FF 7F 65 66 6F 6E 1B 45  f.........efon.E
0F50: 3E 80 F0 FF FF 7F F0 FF  FF 7F 66 64 69 73 0D 80  >.........fdis..
0F60: 1B 45 3E 80 F0 FF FF 7F  F0 FF FF 7F 66 64 6F 73  .E>.........fdos
0F70: 0D 80 55 3E 80 F0 FF FF  7F F0 FF FF 7F 66 64 6F  ..U>.........fdo
0F80: 73 1B 45 3E 80 F0 FF FF  7F F0 FF FF 7F 66 64 69  s.E>.........fdi
0F90: 66 0D 80 1B 45 3E 80 F0  FF FF 7F F0 FF FF 7F 66  f...E>.........f
0FA0: 64 6F 66 0D 80 55 3E 80  F0 FF FF 7F F0 FF FF 7F  dof..U>.........
0FB0: 66 64 6F 66 1B 45 3E 80  F0 FF FF 7F F0 FF FF 7F  fdof.E>.........
0FC0: 66 64 69 70 0D 80 1B 45  3E 80 F0 FF FF 7F F0 FF  fdip...E>.......
0FD0: FF 7F 66 64 6F 70 0D 80  55 3E 80 F0 FF FF 7F F0  ..fdop..U>......
0FE0: FF FF 7F 66 64 6F 70 1B                           ...fdop.        
```

#### Opcodes

```
  0: 0x0AE3 [0x42] SET_CLI_EVENT_CANCEL_DATA()
  1: 0x0AE4 [0x1A] CALL_SUBROUTINE(address=0x0DBA)
  2: 0x0AE7 [0x46] CAMERA_CONTROL: Disable user control
  3: 0x0AE9 [0x38] SET_CLIENT_EVENT_MODE(mode=19*)
  4: 0x0AEC [0x34] LOAD_UNLOAD_ZONE(zone_id=243*)
  5: 0x0AEF [0x77] SET_EVENT_TIME_WEATHER(hour=255*, weather=1*)
  6: 0x0AF4 [0x1C] WAIT(30* ticks)
  7: 0x0AF7 [0xAB] EventEntity->UnknownFlag = 1 // Enable unknown flag
  8: 0x0AF9 [0x5C] MUSIC_CONTROL: Set Idle (Day) music to song 117*
  9: 0x0AFD [0x5C] MUSIC_CONTROL: Set Idle (Night) music to song 117*
 10: 0x0B01 [0x9A] WAIT_MUSIC_SERVER()
 11: 0x0B02 [0x27] REQ_SET(priority=0x10, entity_id=Mawl'gofaur (ID: 17179528/0x01062388), tag_num=0x04)
 12: 0x0B09 [0x27] REQ_SET(priority=0x10, entity_id=Kareh'ayollio (ID: 17179529/0x01062389), tag_num=0x04)
 13: 0x0B10 [0x92] Mawl'gofaur (ID: 17179528/0x01062388)->Render.Flags3 ^= 0x01
 14: 0x0B16 [0x92] Kareh'ayollio (ID: 17179529/0x01062389)->Render.Flags3 ^= 0x01
 15: 0x0B1C [0x94] Mawl'gofaur (ID: 17179528/0x01062388)->Render.Flags3 ^= 0x01
 16: 0x0B22 [0x94] Kareh'ayollio (ID: 17179529/0x01062389)->Render.Flags3 ^= 0x01
 17: 0x0B28 [0xBA] SET_ENTITY_POSITION(entity_id=Mawl'gofaur (ID: 17179528/0x01062388), pos_x=0.011*, pos_z=92.635*, pos_y=-6.996*, direction=90.0°*)
 18: 0x0B35 [0xBA] SET_ENTITY_POSITION(entity_id=Kareh'ayollio (ID: 17179529/0x01062389), pos_x=-3.644*, pos_z=92.929*, pos_y=-6.996*, direction=54.1°*)
 19: 0x0B42 [0x80] LOAD_WAIT(entity=LocalPlayer)
 20: 0x0B47 [0x80] LOAD_WAIT(entity=Mawl'gofaur (ID: 17179528/0x01062388))
 21: 0x0B4C [0x80] LOAD_WAIT(entity=Kareh'ayollio (ID: 17179529/0x01062389))
 22: 0x0B51 [0xBA] SET_ENTITY_POSITION(entity_id=LocalPlayer, pos_x=0.028*, pos_z=84.763*, pos_y=-4.999*, direction=270.0°*)
 23: 0x0B5E [0x29] REQ_SET_WAIT(priority=0x10, entity_id=LocalPlayer, tag_num=0x4B)
 24: 0x0B65 [0x48] [System] [10047*]:
    → "@@"
 25: 0x0B68 [0x23] WAIT_FOR_DIALOG_INTERACTION
 26: 0x0B69 [0x52] END_LOAD_SCHEDULER: End scheduler "j105" with entities [LocalPlayer, LocalPlayer], work=344*
 27: 0x0B78 [0x45] LOAD_SCHEDULED_TASK: Load scheduler "j106" with entities [LocalPlayer, LocalPlayer], work=[344*, 0*]
 28: 0x0B89 [0x1A] CALL_SUBROUTINE(address=0x0D99)
 29: 0x0B8C [0x1C] WAIT(120* ticks)
 30: 0x0B8F [0x52] END_LOAD_SCHEDULER: End scheduler "j106" with entities [LocalPlayer, LocalPlayer], work=344*
 31: 0x0B9E [0x45] LOAD_SCHEDULED_TASK: Load scheduler "j120" with entities [LocalPlayer, LocalPlayer], work=[344*, 0*]
 32: 0x0BAF [0x2B] Mawl'gofaur (ID: 17179528/0x01062388) [10006*]:
    → "So you have finally come. I am Mawl'gofaur, aide to the Archduke and overseer of the Voidwatch operation in His Excellency's absence."
 33: 0x0BB6 [0x23] WAIT_FOR_DIALOG_INTERACTION
 34: 0x0BB7 [0x2B] Mawl'gofaur (ID: 17179528/0x01062388) [10061*]:
    → "I am sure you understand why we have summoned you on such short notice. Yes, it does indeed concern the Voidwalkers."
 35: 0x0BBE [0x23] WAIT_FOR_DIALOG_INTERACTION
 36: 0x0BBF [0x52] END_LOAD_SCHEDULER: End scheduler "j120" with entities [LocalPlayer, LocalPlayer], work=344*
 37: 0x0BCE [0x45] LOAD_SCHEDULED_TASK: Load scheduler "j121" with entities [LocalPlayer, LocalPlayer], work=[344*, 0*]
 38: 0x0BDF [0x2B] Mawl'gofaur (ID: 17179528/0x01062388) [10062*]:
    → "Recently, however, some new facts have come to light. Reports confirm a new substance that can be culled from those planes-walking fiends."
 39: 0x0BE6 [0x23] WAIT_FOR_DIALOG_INTERACTION
 40: 0x0BE7 [0x2B] Mawl'gofaur (ID: 17179528/0x01062388) [10063*]:
    → "It is said to possess two separate forms: one is that of a crystal, the other of a more granular structure resembling cruor. Its alabaster hue, however, serves to distinguish it from that vermilion currency."
 41: 0x0BEE [0x23] WAIT_FOR_DIALOG_INTERACTION
 42: 0x0BEF [0x52] END_LOAD_SCHEDULER: End scheduler "j121" with entities [LocalPlayer, LocalPlayer], work=344*
 43: 0x0BFE [0x45] LOAD_SCHEDULED_TASK: Load scheduler "j122" with entities [LocalPlayer, LocalPlayer], work=[344*, 0*]
 44: 0x0C0F [0x2B] Mawl'gofaur (ID: 17179528/0x01062388) [10064*]:
    → "While it may exhibit crystalline properties, it is unlike any specimen of crystal we have heretofore examined. The oft-used phrase "shrouded in mystery" does not begin to describe how it baffles even our most accomplished researchers."
 45: 0x0C16 [0x23] WAIT_FOR_DIALOG_INTERACTION
 46: 0x0C17 [0x2B] Mawl'gofaur (ID: 17179528/0x01062388) [10065*]:
    → "We may have nothing more to guide us than conjecture, but we cannot discard the possibility that this mineral is an integral piece in the calamitous puzzle that Vana'diel faces. Do not hesitate to collect as large a sample as possible of this mysterious mineral."
 47: 0x0C1E [0x23] WAIT_FOR_DIALOG_INTERACTION
 48: 0x0C1F [0x52] END_LOAD_SCHEDULER: End scheduler "j122" with entities [LocalPlayer, LocalPlayer], work=344*
 49: 0x0C2E [0x45] LOAD_SCHEDULED_TASK: Load scheduler "j212" with entities [LocalPlayer, LocalPlayer], work=[344*, 0*]
 50: 0x0C3F [0x2B] Mawl'gofaur (ID: 17179528/0x01062388) [10066*]:
    → "Should you require further intelligence, seek out a Voidwatch Officer. As they are the ones who operate in the field, they should be privy to the most current of information."
 51: 0x0C46 [0x23] WAIT_FOR_DIALOG_INTERACTION
 52: 0x0C47 [0x52] END_LOAD_SCHEDULER: End scheduler "j212" with entities [LocalPlayer, LocalPlayer], work=344*
 53: 0x0C56 [0x45] LOAD_SCHEDULED_TASK: Load scheduler "j220" with entities [LocalPlayer, LocalPlayer], work=[344*, 0*]
 54: 0x0C67 [0x2B] Kareh'ayollio (ID: 17179529/0x01062389) [10067*]:
    → "Furthermore..."
 55: 0x0C6E [0x23] WAIT_FOR_DIALOG_INTERACTION
 56: 0x0C6F [0x2B] Kareh'ayollio (ID: 17179529/0x01062389) [10068*]:
    → "Whether as hardened stone or dust deposits, this substance is less than abundant."
 57: 0x0C76 [0x23] WAIT_FOR_DIALOG_INTERACTION
 58: 0x0C77 [0x52] END_LOAD_SCHEDULER: End scheduler "j220" with entities [LocalPlayer, LocalPlayer], work=344*
 59: 0x0C86 [0x45] LOAD_SCHEDULED_TASK: Load scheduler "j221" with entities [LocalPlayer, LocalPlayer], work=[344*, 0*]
 60: 0x0C97 [0x2B] Kareh'ayollio (ID: 17179529/0x01062389) [10069*]:
    → "Voidwatch Officers should be willing to part with some samples, however, should you fail to harvest any off of Voidwalker corpses."
 61: 0x0C9E [0x23] WAIT_FOR_DIALOG_INTERACTION
 62: 0x0C9F [0x2B] Kareh'ayollio (ID: 17179529/0x01062389) [10070*]:
    → "No matter the method by which you obtain it, this mineral should shine new light on this catastrophe and allow you to more efficiently aid our cause."
 63: 0x0CA6 [0x23] WAIT_FOR_DIALOG_INTERACTION
 64: 0x0CA7 [0x52] END_LOAD_SCHEDULER: End scheduler "j221" with entities [LocalPlayer, LocalPlayer], work=344*
 65: 0x0CB6 [0x45] LOAD_SCHEDULED_TASK: Load scheduler "j313" with entities [LocalPlayer, LocalPlayer], work=[344*, 0*]
 66: 0x0CC7 [0x2B] Mawl'gofaur (ID: 17179528/0x01062388) [10071*]:
    → "To the extent of our knowledge, there is no new planar rift activity, but you of all people should understand the spontaneous nature of these interdimensional disturbances. None of us can let our guard down for even a moment."
 67: 0x0CCE [0x23] WAIT_FOR_DIALOG_INTERACTION
 68: 0x0CCF [0x2B] Mawl'gofaur (ID: 17179528/0x01062388) [10072*]:
    → "Archduke Kam'lanaut expects great things of you as well. It is quite regrettable that he could not honor us with his presence today, but he is a busy man with many entice--er, engagements."
 69: 0x0CD6 [0x23] WAIT_FOR_DIALOG_INTERACTION
 70: 0x0CD7 [0x52] END_LOAD_SCHEDULER: End scheduler "j313" with entities [LocalPlayer, LocalPlayer], work=344*
 71: 0x0CE6 [0x45] LOAD_SCHEDULED_TASK: Load scheduler "j314" with entities [LocalPlayer, LocalPlayer], work=[344*, 0*]
 72: 0x0CF7 [0x2B] Mawl'gofaur (ID: 17179528/0x01062388) [10073*]:
    → "Now that you understand how you can be of service, it is time you got to your duties. Let us conclude this parley."
 73: 0x0CFE [0x23] WAIT_FOR_DIALOG_INTERACTION
 74: 0x0CFF [0x29] REQ_SET_WAIT(priority=0x10, entity_id=LocalPlayer, tag_num=0x4C)
 75: 0x0D06 [0x1C] WAIT(120* ticks)
 76: 0x0D09 [0x1A] CALL_SUBROUTINE(address=0x0DBA)
 77: 0x0D0C [0x1C] WAIT(30* ticks)
 78: 0x0D0F [0x52] END_LOAD_SCHEDULER: End scheduler "j314" with entities [LocalPlayer, LocalPlayer], work=344*
 79: 0x0D1E [0x45] LOAD_SCHEDULED_TASK: Load scheduler "0blf" with entities [LocalPlayer, LocalPlayer], work=[344*, 0*]
 80: 0x0D2F [0x1C] WAIT(15* ticks)
 81: 0x0D32 [0xAB] EventEntity->DespawnValue = 0* // Set despawn value
 82: 0x0D36 [0x1C] WAIT(1* ticks)
 83: 0x0D39 [0x35] LOAD_ZONE_NO_CLOSE(zone_id=98*)
 84: 0x0D3C [0x78] ENABLE_GAME_TIMER_RESET_WEATHER()
 85: 0x0D3D [0x1C] WAIT(15* ticks)
 86: 0x0D40 [0xAB] EventEntity->UnknownFlag = 0 // Disable unknown flag
 87: 0x0D42 [0x46] CAMERA_CONTROL: Restore default settings
 88: 0x0D44 [0x45] LOAD_SCHEDULED_TASK: Load scheduler "fdi2" with entities [LocalPlayer, LocalPlayer], work=[200*, 0*]
 89: 0x0D55 [0x21] END_EVENT
 90: 0x0D56 [0x00] END_REQSTACK()

SUBROUTINE_0D99:
 91: 0x0D99 [0x45] LOAD_SCHEDULED_TASK: Load scheduler "fdi1" with entities [LocalPlayer, LocalPlayer], work=[200*, 0*]
 92: 0x0DAA [0x55] WAIT_LOAD_SCHEDULER: Wait for scheduler "fdi1" with entities [LocalPlayer, LocalPlayer], work=200*
 93: 0x0DB9 [0x1B] RETURN

SUBROUTINE_0DBA:
 94: 0x0DBA [0x45] LOAD_SCHEDULED_TASK: Load scheduler "fdo1" with entities [LocalPlayer, LocalPlayer], work=[200*, 0*]
 95: 0x0DCB [0x55] WAIT_LOAD_SCHEDULER: Wait for scheduler "fdo1" with entities [LocalPlayer, LocalPlayer], work=200*
 96: 0x0DDA [0x1B] RETURN
```

#### Data or dead code:

```
# Dead code (unreachable instructions):
     0x0D57 [0x45] LOAD_SCHEDULED_TASK: Load scheduler "fdi0" with entities [LocalPlayer, LocalPlayer], work=[200*, 0*]
     0x0D68 [0x55] WAIT_LOAD_SCHEDULER: Wait for scheduler "fdi0" with entities [LocalPlayer, LocalPlayer], work=200*
     0x0D77 [0x1B] RETURN
     0x0D78 [0x45] LOAD_SCHEDULED_TASK: Load scheduler "fdo0" with entities [LocalPlayer, LocalPlayer], work=[200*, 0*]
     0x0D89 [0x55] WAIT_LOAD_SCHEDULER: Wait for scheduler "fdo0" with entities [LocalPlayer, LocalPlayer], work=200*
     0x0D98 [0x1B] RETURN
# Dead code (unreachable instructions):
     0x0DDB [0x45] LOAD_SCHEDULED_TASK: Load scheduler "whi1" with entities [LocalPlayer, LocalPlayer], work=[201*, 0*]
     0x0DEC [0x55] WAIT_LOAD_SCHEDULER: Wait for scheduler "whi1" with entities [LocalPlayer, LocalPlayer], work=201*
     0x0DFB [0x1B] RETURN
     0x0DFC [0x45] LOAD_SCHEDULED_TASK: Load scheduler "who1" with entities [LocalPlayer, LocalPlayer], work=[201*, 0*]
     0x0E0D [0x55] WAIT_LOAD_SCHEDULER: Wait for scheduler "who1" with entities [LocalPlayer, LocalPlayer], work=201*
     0x0E1C [0x1B] RETURN
     0x0E1D [0x45] LOAD_SCHEDULED_TASK: Load scheduler "who2" with entities [LocalPlayer, LocalPlayer], work=[201*, 0*]
     0x0E2E [0x55] WAIT_LOAD_SCHEDULER: Wait for scheduler "who2" with entities [LocalPlayer, LocalPlayer], work=201*
     0x0E3D [0x1B] RETURN
     0x0E3E [0x45] LOAD_SCHEDULED_TASK: Load scheduler "who3" with entities [LocalPlayer, LocalPlayer], work=[201*, 0*]
     0x0E4F [0x55] WAIT_LOAD_SCHEDULER: Wait for scheduler "who3" with entities [LocalPlayer, LocalPlayer], work=201*
     0x0E5E [0x1B] RETURN
     0x0E5F [0x62] LOAD_EVENT_SCHEDULER: Load scheduler "main" with entities [LocalPlayer, LocalPlayer], work=[1*, 0*]
     0x0E70 [0x1C] WAIT(45* ticks)
     0x0E73 [0x45] LOAD_SCHEDULED_TASK: Load scheduler "fdo1" with entities [LocalPlayer, LocalPlayer], work=[200*, 0*]
     0x0E84 [0x55] WAIT_LOAD_SCHEDULER: Wait for scheduler "fdo1" with entities [LocalPlayer, LocalPlayer], work=200*
     0x0E93 [0x1B] RETURN
     0x0E94 [0x45] LOAD_SCHEDULED_TASK: Load scheduler "fdi1" with entities [LocalPlayer, LocalPlayer], work=[200*, 0*]
     0x0EA5 [0x62] LOAD_EVENT_SCHEDULER: Load scheduler "main" with entities [LocalPlayer, LocalPlayer], work=[2*, 0*]
     0x0EB6 [0x1C] WAIT(30* ticks)
     0x0EB9 [0x55] WAIT_LOAD_SCHEDULER: Wait for scheduler "fdi1" with entities [LocalPlayer, LocalPlayer], work=200*
     0x0EC8 [0x1B] RETURN
     0x0EC9 [0x45] LOAD_SCHEDULED_TASK: Load scheduler "blon" with entities [LocalPlayer, LocalPlayer], work=[200*, 0*]
     0x0EDA [0x45] LOAD_SCHEDULED_TASK: Load scheduler "blon" with entities [LocalPlayer, LocalPlayer], work=[201*, 0*]
     0x0EEB [0x1B] RETURN
     0x0EEC [0x45] LOAD_SCHEDULED_TASK: Load scheduler "whi0" with entities [LocalPlayer, LocalPlayer], work=[201*, 0*]
     0x0EFD [0x55] WAIT_LOAD_SCHEDULER: Wait for scheduler "whi0" with entities [LocalPlayer, LocalPlayer], work=201*
     0x0F0C [0x1B] RETURN
     0x0F0D [0x45] LOAD_SCHEDULED_TASK: Load scheduler "who0" with entities [LocalPlayer, LocalPlayer], work=[201*, 0*]
     0x0F1E [0x55] WAIT_LOAD_SCHEDULER: Wait for scheduler "who0" with entities [LocalPlayer, LocalPlayer], work=201*
     0x0F2D [0x1B] RETURN
     0x0F2E [0x45] LOAD_SCHEDULED_TASK: Load scheduler "efon" with entities [LocalPlayer, LocalPlayer], work=[215*, 0*]
     0x0F3F [0x55] WAIT_LOAD_SCHEDULER: Wait for scheduler "efon" with entities [LocalPlayer, LocalPlayer], work=215*
     0x0F4E [0x1B] RETURN
     0x0F4F [0x45] LOAD_SCHEDULED_TASK: Load scheduler "fdis" with entities [LocalPlayer, LocalPlayer], work=[200*, 0*]
     0x0F60 [0x1B] RETURN
     0x0F61 [0x45] LOAD_SCHEDULED_TASK: Load scheduler "fdos" with entities [LocalPlayer, LocalPlayer], work=[200*, 0*]
     0x0F72 [0x55] WAIT_LOAD_SCHEDULER: Wait for scheduler "fdos" with entities [LocalPlayer, LocalPlayer], work=200*
     0x0F81 [0x1B] RETURN
     0x0F82 [0x45] LOAD_SCHEDULED_TASK: Load scheduler "fdif" with entities [LocalPlayer, LocalPlayer], work=[200*, 0*]
     0x0F93 [0x1B] RETURN
     0x0F94 [0x45] LOAD_SCHEDULED_TASK: Load scheduler "fdof" with entities [LocalPlayer, LocalPlayer], work=[200*, 0*]
     0x0FA5 [0x55] WAIT_LOAD_SCHEDULER: Wait for scheduler "fdof" with entities [LocalPlayer, LocalPlayer], work=200*
     0x0FB4 [0x1B] RETURN
     0x0FB5 [0x45] LOAD_SCHEDULED_TASK: Load scheduler "fdip" with entities [LocalPlayer, LocalPlayer], work=[200*, 0*]
     0x0FC6 [0x1B] RETURN
     0x0FC7 [0x45] LOAD_SCHEDULED_TASK: Load scheduler "fdop" with entities [LocalPlayer, LocalPlayer], work=[200*, 0*]
     0x0FD8 [0x55] WAIT_LOAD_SCHEDULER: Wait for scheduler "fdop" with entities [LocalPlayer, LocalPlayer], work=200*
     0x0FE7 [0x1B] RETURN
```
