# 17179525

## Common Data

| Field            | Value                             |
|------------------|-----------------------------------|
| Zone             | Sauromugue Champaign [S] (ID: 98) |
| Block Size       | 19472 bytes                       |
| Total Events     | 3                                 |
| References Count | 220                               |

## List of Events

| Event ID              | Entrypoint   |   Size |   Instructions |
|-----------------------|--------------|--------|----------------|
| [65535](#event-65535) | 0x0000       |      1 |              1 |
| [702](#event-702)     | 0x0001       |  10888 |           1186 |
| [703](#event-703)     | 0x2A89       |   7674 |            820 |

## DAT References (imed_data)

|   Index | Hex Value   |   Dec Value |
|---------|-------------|-------------|
|       0 | 0x0013      |          19 |
|       1 | 0x0000      |           0 |
|       2 | 0xFFFF31B9  |  4294914489 |
|       3 | 0x6AA5E     |      436830 |
|       4 | 0x01DC      |         476 |
|       5 | 0x0FE0      |        4064 |
|       6 | 0x0001      |           1 |
|       7 | 0xFFFD021E  |  4294771230 |
|       8 | 0x57E51     |      360017 |
|       9 | 0x1F3B      |        7995 |
|      10 | 0x05F7      |        1527 |
|      11 | 0x0002      |           2 |
|      12 | 0x59FE4     |      368612 |
|      13 | 0xFFFC8753  |  4294739795 |
|      14 | 0x2279      |        8825 |
|      15 | 0x0E08      |        3592 |
|      16 | 0x001E      |          30 |
|      17 | 0x00FC      |         252 |
|      18 | 0x000F      |          15 |
|      19 | 0x012C      |         300 |
|      20 | 0x017A      |         378 |
|      21 | 0x0078      |         120 |
|      22 | 0x1FBA      |        8122 |
|      23 | 0x003C      |          60 |
|      24 | 0x00FA      |         250 |
|      25 | 0x0098      |         152 |
|      26 | 0x0258      |         600 |
|      27 | 0x0096      |         150 |
|      28 | 0x007F      |         127 |
|      29 | 0x1FB7      |        8119 |
|      30 | 0x00B4      |         180 |
|      31 | 0x0099      |         153 |
|      32 | 0x005A      |          90 |
|      33 | 0x0003      |           3 |
|      34 | 0x0004      |           4 |
|      35 | 0x0005      |           5 |
|      36 | 0x0006      |           6 |
|      37 | 0x0007      |           7 |
|      38 | 0x0008      |           8 |
|      39 | 0x0046      |          70 |
|      40 | 0x1FB8      |        8120 |
|      41 | 0x002D      |          45 |
|      42 | 0x00B6      |         182 |
|      43 | 0x00FF      |         255 |
|      44 | 0x0028      |          40 |
|      45 | 0x8E3B2     |      582578 |
|      46 | 0xFFFCC4FF  |  4294755583 |
|      47 | 0x8C9F      |       35999 |
|      48 | 0x03FE      |        1022 |
|      49 | 0x8EA2C     |      584236 |
|      50 | 0xFFFCC072  |  4294754418 |
|      51 | 0x8E928     |      583976 |
|      52 | 0xFFFA39A8  |  4294588840 |
|      53 | 0xFFFFDCA9  |  4294958249 |
|      54 | 0x088E      |        2190 |
|      55 | 0x01FF      |         511 |
|      56 | 0x00D2      |         210 |
|      57 | 0x2205      |        8709 |
|      58 | 0x2206      |        8710 |
|      59 | 0x8D5C9     |      579017 |
|      60 | 0xFFFC8BC7  |  4294740935 |
|      61 | 0x03FB      |        1019 |
|      62 | 0x8D9FB     |      580091 |
|      63 | 0xFFFC8638  |  4294739512 |
|      64 | 0x01E0      |         480 |
|      65 | 0x88FCC     |      561100 |
|      66 | 0xFFFA7C96  |  4294605974 |
|      67 | 0x0609      |        1545 |
|      68 | 0x88DDF     |      560607 |
|      69 | 0xFFFA7552  |  4294604114 |
|      70 | 0x060A      |        1546 |
|      71 | 0x00F0      |         240 |
|      72 | 0x89331     |      561969 |
|      73 | 0xFFFA4988  |  4294592904 |
|      74 | 0x05FB      |        1531 |
|      75 | 0x8933F     |      561983 |
|      76 | 0xFFFA4410  |  4294591504 |
|      77 | 0x060B      |        1547 |
|      78 | 0x2207      |        8711 |
|      79 | 0x0586      |        1414 |
|      80 | 0x2208      |        8712 |
|      81 | 0x2209      |        8713 |
|      82 | 0x220A      |        8714 |
|      83 | 0x220B      |        8715 |
|      84 | 0x220C      |        8716 |
|      85 | 0x220D      |        8717 |
|      86 | 0x220E      |        8718 |
|      87 | 0x220F      |        8719 |
|      88 | 0x2210      |        8720 |
|      89 | 0x2211      |        8721 |
|      90 | 0x2212      |        8722 |
|      91 | 0x2213      |        8723 |
|      92 | 0x051F      |        1311 |
|      93 | 0x2214      |        8724 |
|      94 | 0x83E5E     |      540254 |
|      95 | 0xFFFA65AD  |  4294600109 |
|      96 | 0x06F2      |        1778 |
|      97 | 0x83FFF     |      540671 |
|      98 | 0xFFFA5C4D  |  4294597709 |
|      99 | 0x0726      |        1830 |
|     100 | 0x2215      |        8725 |
|     101 | 0x0B28      |        2856 |
|     102 | 0x2216      |        8726 |
|     103 | 0x00DF      |         223 |
|     104 | 0x2218      |        8728 |
|     105 | 0x84BC8     |      543688 |
|     106 | 0xFFFA6138  |  4294598968 |
|     107 | 0x00AD      |         173 |
|     108 | 0x84A62     |      543330 |
|     109 | 0xFFFA5A3C  |  4294597180 |
|     110 | 0x00A4      |         164 |
|     111 | 0x09DF      |        2527 |
|     112 | 0x2217      |        8727 |
|     113 | 0x84648     |      542280 |
|     114 | 0xFFFA5E54  |  4294598228 |
|     115 | 0xFFFFA39E  |  4294943646 |
|     116 | 0x087D      |        2173 |
|     117 | 0x0B0C      |        2828 |
|     118 | 0x0054      |          84 |
|     119 | 0x2219      |        8729 |
|     120 | 0x0B29      |        2857 |
|     121 | 0x0052      |          82 |
|     122 | 0x0019      |          25 |
|     123 | 0x856C9     |      546505 |
|     124 | 0xFFFA59A4  |  4294597028 |
|     125 | 0x0E26      |        3622 |
|     126 | 0x841D9     |      541145 |
|     127 | 0xFFFA5B34  |  4294597428 |
|     128 | 0x0F3A      |        3898 |
|     129 | 0x83C8D     |      539789 |
|     130 | 0xFFFA5C17  |  4294597655 |
|     131 | 0xFFFFFED4  |  4294966996 |
|     132 | 0x0021      |          33 |
|     133 | 0x8187A     |      530554 |
|     134 | 0xFFFA5EA8  |  4294598312 |
|     135 | 0x0BB8      |        3000 |
|     136 | 0x0014      |          20 |
|     137 | 0x0053      |          83 |
|     138 | 0x81434     |      529460 |
|     139 | 0xFFFA4FCB  |  4294594507 |
|     140 | 0xFFFFFB13  |  4294966035 |
|     141 | 0x0F39      |        3897 |
|     142 | 0x221A      |        8730 |
|     143 | 0x221B      |        8731 |
|     144 | 0xFFFFFC18  |  4294966296 |
|     145 | 0x221C      |        8732 |
|     146 | 0x005C      |          92 |
|     147 | 0x0032      |          50 |
|     148 | 0x0058      |          88 |
|     149 | 0xFFFB7C23  |  4294671395 |
|     150 | 0xFFF8A81B  |  4294486043 |
|     151 | 0xFFFFFF5E  |  4294967134 |
|     152 | 0x0DE6      |        3558 |
|     153 | 0xFFFB8A47  |  4294675015 |
|     154 | 0xFFF8B254  |  4294488660 |
|     155 | 0x05F1      |        1521 |
|     156 | 0xFFFB9658  |  4294678104 |
|     157 | 0xFFF8B8CD  |  4294490317 |
|     158 | 0xFFFFE2CA  |  4294959818 |
|     159 | 0x0E5D      |        3677 |
|     160 | 0x0168      |         360 |
|     161 | 0x0059      |          89 |
|     162 | 0x00DB      |         219 |
|     163 | 0x007C      |         124 |
|     164 | 0xFFFB8814  |  4294674452 |
|     165 | 0xFFF8B155  |  4294488405 |
|     166 | 0x0E5F      |        3679 |
|     167 | 0xFFFB8778  |  4294674296 |
|     168 | 0xFFF8B0C9  |  4294488265 |
|     169 | 0x0E60      |        3680 |
|     170 | 0xFFFB872C  |  4294674220 |
|     171 | 0xFFF8B08D  |  4294488205 |
|     172 | 0x01A4      |         420 |
|     173 | 0x0E5C      |        3676 |
|     174 | 0x221D      |        8733 |
|     175 | 0xFFFB58A6  |  4294662310 |
|     176 | 0xFFF8B349  |  4294488905 |
|     177 | 0xFFFFF00C  |  4294963212 |
|     178 | 0x07EB      |        2027 |
|     179 | 0x221E      |        8734 |
|     180 | 0x221F      |        8735 |
|     181 | 0x2220      |        8736 |
|     182 | 0x2221      |        8737 |
|     183 | 0x005E      |          94 |
|     184 | 0x023A      |         570 |
|     185 | 0x2222      |        8738 |
|     186 | 0x2223      |        8739 |
|     187 | 0x2224      |        8740 |
|     188 | 0x2225      |        8741 |
|     189 | 0x0097      |         151 |
|     190 | 0x005B      |          91 |
|     191 | 0x0062      |          98 |
|     192 | 0x00C8      |         200 |
|     193 | 0x8D985     |      579973 |
|     194 | 0xFFFC50A4  |  4294725796 |
|     195 | 0x0BF9      |        3065 |
|     196 | 0x8D98E     |      579982 |
|     197 | 0xFFFC7F7E  |  4294737790 |
|     198 | 0x0DAC      |        3500 |
|     199 | 0x8E453     |      582739 |
|     200 | 0xFFFCE534  |  4294763828 |
|     201 | 0x06C8      |        1736 |
|     202 | 0x0091      |         145 |
|     203 | 0x8D9B5     |      580021 |
|     204 | 0xFFFC9CD0  |  4294745296 |
|     205 | 0x0432      |        1074 |
|     206 | 0x2226      |        8742 |
|     207 | 0x2227      |        8743 |
|     208 | 0x010E      |         270 |
|     209 | 0x2228      |        8744 |
|     210 | 0x084A      |        2122 |
|     211 | 0x0300      |         768 |
|     212 | 0xFFFFFE00  |  4294966784 |
|     213 | 0x0B2B      |        2859 |
|     214 | 0x0056      |          86 |
|     215 | 0x021C      |         540 |
|     216 | 0x054D      |        1357 |
|     217 | 0x2229      |        8745 |
|     218 | 0x00C9      |         201 |
|     219 | 0x00D7      |         215 |

## String References

- **8120**: <Player> is engulfed by the cavernous maw!
- **8122**: You sense the gaze of the cavernous maw upon you.

## Events

### Event 65535

#### Metadata

| Field        | Value   |
|--------------|---------|
| Entrypoint   | 0x0000  |
| Data Size    | 1 bytes |
| Instructions | 1       |

```
      00 01 02 03 04 05 06 07  08 09 0A 0B 0C 0D 0E 0F
      -- -- -- -- -- -- -- --  -- -- -- -- -- -- -- --
0000: 00                                                .               
```

#### Opcodes

```
  0: 0x0000 [0x00] END_REQSTACK()
```

### Event 702

#### Metadata

| Field        | Value       |
|--------------|-------------|
| Entrypoint   | 0x0001      |
| Data Size    | 10888 bytes |
| Instructions | 1186        |

```
      00 01 02 03 04 05 06 07  08 09 0A 0B 0C 0D 0E 0F
      -- -- -- -- -- -- -- --  -- -- -- -- -- -- -- --
0000:    42 1A 55 46 03 00 00  02 10 03 01 00 09 10 46   B.UF..........F
0010: 01 29 10 F0 FF FF 7F 4D  03 02 00 02 10 38 00 80  .).....M.....8..
0020: 92 01 CE 22 06 01 94 01  F0 FF FF 7F 94 01 CE 22  ..."..........."
0030: 06 01 02 00 00 01 80 80  4A 00 BA F0 FF FF 7F 02  ........J.......
0040: 80 03 80 04 80 05 80 01  7A 00 02 00 00 06 80 80  ........z.......
0050: 62 00 BA F0 FF FF 7F 07  80 08 80 09 80 0A 80 01  b...............
0060: 7A 00 02 00 00 0B 80 80  7A 00 BA F0 FF FF 7F 0C  z.......z.......
0070: 80 0D 80 0E 80 0F 80 01  7A 00 80 F0 FF FF 7F 80  ........z.......
0080: CE 22 06 01 4A F0 FF FF  7F CE 22 06 01 02 00 00  ."..J.....".....
0090: 06 80 00 A7 00 4A CE 22  06 01 F0 FF FF 7F 6F 76  .....J."......ov
00A0: CE 22 06 01 1C 10 80 5C  00 11 80 5C 01 11 80 9A  .".....\...\....
00B0: 1C 12 80 29 10 F0 FF FF  7F 0B 7B F0 FF FF 7F 5D  ...)......{....]
00C0: 01 80 13 80 45 14 80 CE  22 06 01 F0 FF FF 7F 36  ....E..."......6
00D0: 30 30 61 01 80 02 00 00  01 80 80 26 01 45 14 80  00a........&.E..
00E0: F0 FF FF 7F F0 FF FF 7F  6E 6F 32 33 01 80 1A 34  ........no23...4
00F0: 46 1C 15 80 48 16 80 1C  17 80 5C 00 18 80 5C 01  F...H.....\...\.
0100: 18 80 9A 52 14 80 F0 FF  FF 7F F0 FF FF 7F 6E 6F  ...R..........no
0110: 32 33 45 14 80 F0 FF FF  7F F0 FF FF 7F 6E 6F 30  23E..........no0
0120: 38 01 80 01 C8 01 02 00  00 06 80 80 77 01 45 14  8...........w.E.
0130: 80 F0 FF FF 7F F0 FF FF  7F 72 6F 32 33 01 80 1A  .........ro23...
0140: 34 46 1C 15 80 48 16 80  1C 17 80 5C 00 18 80 5C  4F...H.....\...\
0150: 01 18 80 9A 52 14 80 F0  FF FF 7F F0 FF FF 7F 72  ....R..........r
0160: 6F 32 33 45 14 80 F0 FF  FF 7F F0 FF FF 7F 72 6F  o23E..........ro
0170: 30 38 01 80 01 C8 01 02  00 00 0B 80 80 C8 01 45  08.............E
0180: 14 80 F0 FF FF 7F F0 FF  FF 7F 61 6C 32 33 01 80  ..........al23..
0190: 1A 34 46 1C 15 80 48 16  80 1C 17 80 5C 00 18 80  .4F...H.....\...
01A0: 5C 01 18 80 9A 52 14 80  F0 FF FF 7F F0 FF FF 7F  \....R..........
01B0: 61 6C 32 33 45 14 80 F0  FF FF 7F F0 FF FF 7F 61  al23E..........a
01C0: 6C 30 38 01 80 01 C8 01  45 14 80 CE 22 06 01 F0  l08.....E..."...
01D0: FF FF 7F 6B 30 30 61 01  80 45 14 80 CE 22 06 01  ...k00a..E..."..
01E0: F0 FF FF 7F 36 31 32 35  01 80 2C CE 22 06 01 CE  ....6125..,."...
01F0: 22 06 01 65 66 6B 6C BB  19 80 CE 22 06 01 F0 FF  "..efkl...."....
0200: FF 7F 73 74 30 31 01 80  03 02 10 1A 80 27 10 D3  ..st01.......'..
0210: 22 06 01 01 1C 1B 80 9F  1C 80 F8 FF FF 7F F8 FF  "...............
0220: FF 7F 73 74 72 30 01 80  1C 10 80 2B CE 22 06 01  ..str0.....+."..
0230: 1D 80 1C 1E 80 02 00 00  01 80 80 60 02 52 14 80  ...........`.R..
0240: F0 FF FF 7F F0 FF FF 7F  6E 6F 30 38 45 14 80 F0  ........no08E...
0250: FF FF 7F F0 FF FF 7F 6E  6F 31 37 01 80 01 B6 02  .......no17.....
0260: 02 00 00 06 80 80 8B 02  52 14 80 F0 FF FF 7F F0  ........R.......
0270: FF FF 7F 72 6F 30 38 45  14 80 F0 FF FF 7F F0 FF  ...ro08E........
0280: FF 7F 72 6F 33 30 01 80  01 B6 02 02 00 00 0B 80  ..ro30..........
0290: 80 B6 02 52 14 80 F0 FF  FF 7F F0 FF FF 7F 61 6C  ...R..........al
02A0: 30 38 45 14 80 F0 FF FF  7F F0 FF FF 7F 61 6C 31  08E..........al1
02B0: 37 01 80 01 B6 02 45 14  80 CE 22 06 01 F0 FF FF  7.....E...".....
02C0: 7F 31 30 34 61 01 80 45  14 80 CE 22 06 01 F0 FF  .104a..E..."....
02D0: FF 7F 36 30 30 36 01 80  2A 10 D3 22 06 01 92 01  ..6006..*.."....
02E0: F0 FF FF 7F 02 00 00 01  80 80 0F 03 52 14 80 F0  ............R...
02F0: FF FF 7F F0 FF FF 7F 6E  6F 31 37 45 14 80 F0 FF  .......no17E....
0300: FF 7F F0 FF FF 7F 6E 6F  30 39 01 80 01 65 03 02  ......no09...e..
0310: 00 00 06 80 80 3A 03 52  14 80 F0 FF FF 7F F0 FF  .....:.R........
0320: FF 7F 72 6F 33 30 45 14  80 F0 FF FF 7F F0 FF FF  ..ro30E.........
0330: 7F 72 6F 33 31 01 80 01  65 03 02 00 00 0B 80 80  .ro31...e.......
0340: 65 03 52 14 80 F0 FF FF  7F F0 FF FF 7F 61 6C 31  e.R..........al1
0350: 37 45 14 80 F0 FF FF 7F  F0 FF FF 7F 61 6C 30 39  7E..........al09
0360: 01 80 01 65 03 45 14 80  CE 22 06 01 F0 FF FF 7F  ...e.E..."......
0370: 6B 31 32 35 01 80 BB 1F  80 F0 FF FF 7F CE 22 06  k125..........".
0380: 01 73 74 30 31 01 80 27  10 F0 FF FF 7F 0C 1C 15  .st01..'........
0390: 80 02 00 00 01 80 80 A3  05 52 14 80 F0 FF FF 7F  .........R......
03A0: F0 FF FF 7F 6E 6F 30 39  02 02 00 06 80 80 E7 03  ....no09........
03B0: 45 14 80 F0 FF FF 7F F0  FF FF 7F 6E 68 6D 32 01  E..........nhm2.
03C0: 80 1C 20 80 52 14 80 F0  FF FF 7F F0 FF FF 7F 6E  .. .R..........n
03D0: 68 6D 32 45 14 80 F0 FF  FF 7F F0 FF FF 7F 6E 68  hm2E..........nh
03E0: 6D 30 01 80 01 A0 05 02  02 00 0B 80 80 26 04 45  m0...........&.E
03F0: 14 80 F0 FF FF 7F F0 FF  FF 7F 6E 68 66 32 01 80  ..........nhf2..
0400: 1C 20 80 52 14 80 F0 FF  FF 7F F0 FF FF 7F 6E 68  . .R..........nh
0410: 66 32 45 14 80 F0 FF FF  7F F0 FF FF 7F 6E 68 66  f2E..........nhf
0420: 30 01 80 01 A0 05 02 02  00 21 80 80 65 04 45 14  0........!..e.E.
0430: 80 F0 FF FF 7F F0 FF FF  7F 6E 65 6D 32 01 80 1C  .........nem2...
0440: 20 80 52 14 80 F0 FF FF  7F F0 FF FF 7F 6E 65 6D   .R..........nem
0450: 32 45 14 80 F0 FF FF 7F  F0 FF FF 7F 6E 65 6D 30  2E..........nem0
0460: 01 80 01 A0 05 02 02 00  22 80 80 A4 04 45 14 80  ........"....E..
0470: F0 FF FF 7F F0 FF FF 7F  6E 65 66 32 01 80 1C 20  ........nef2... 
0480: 80 52 14 80 F0 FF FF 7F  F0 FF FF 7F 6E 65 66 32  .R..........nef2
0490: 45 14 80 F0 FF FF 7F F0  FF FF 7F 6E 65 66 30 01  E..........nef0.
04A0: 80 01 A0 05 02 02 00 23  80 80 E3 04 45 14 80 F0  .......#....E...
04B0: FF FF 7F F0 FF FF 7F 6E  74 72 32 01 80 1C 20 80  .......ntr2... .
04C0: 52 14 80 F0 FF FF 7F F0  FF FF 7F 6E 74 72 32 45  R..........ntr2E
04D0: 14 80 F0 FF FF 7F F0 FF  FF 7F 6E 74 72 30 01 80  ..........ntr0..
04E0: 01 A0 05 02 02 00 24 80  80 22 05 45 14 80 F0 FF  ......$..".E....
04F0: FF 7F F0 FF FF 7F 6E 74  72 32 01 80 1C 20 80 52  ......ntr2... .R
0500: 14 80 F0 FF FF 7F F0 FF  FF 7F 6E 74 72 32 45 14  ..........ntr2E.
0510: 80 F0 FF FF 7F F0 FF FF  7F 6E 74 72 30 01 80 01  .........ntr0...
0520: A0 05 02 02 00 25 80 80  61 05 45 14 80 F0 FF FF  .....%..a.E.....
0530: 7F F0 FF FF 7F 6E 6D 74  32 01 80 1C 20 80 52 14  .....nmt2... .R.
0540: 80 F0 FF FF 7F F0 FF FF  7F 6E 6D 74 32 45 14 80  .........nmt2E..
0550: F0 FF FF 7F F0 FF FF 7F  6E 6D 74 30 01 80 01 A0  ........nmt0....
0560: 05 02 02 00 26 80 80 A0  05 45 14 80 F0 FF FF 7F  ....&....E......
0570: F0 FF FF 7F 6E 67 6C 32  01 80 1C 20 80 52 14 80  ....ngl2... .R..
0580: F0 FF FF 7F F0 FF FF 7F  6E 67 6C 32 45 14 80 F0  ........ngl2E...
0590: FF FF 7F F0 FF FF 7F 6E  67 6C 30 01 80 01 A0 05  .......ngl0.....
05A0: 01 C7 09 02 00 00 06 80  80 B5 07 52 14 80 F0 FF  ...........R....
05B0: FF 7F F0 FF FF 7F 72 6F  33 31 02 02 00 06 80 80  ......ro31......
05C0: F9 05 45 14 80 F0 FF FF  7F F0 FF FF 7F 72 68 6D  ..E..........rhm
05D0: 35 01 80 1C 20 80 52 14  80 F0 FF FF 7F F0 FF FF  5... .R.........
05E0: 7F 72 68 6D 35 45 14 80  F0 FF FF 7F F0 FF FF 7F  .rhm5E..........
05F0: 72 68 6D 36 01 80 01 B2  07 02 02 00 0B 80 80 38  rhm6...........8
0600: 06 45 14 80 F0 FF FF 7F  F0 FF FF 7F 72 68 66 35  .E..........rhf5
0610: 01 80 1C 20 80 52 14 80  F0 FF FF 7F F0 FF FF 7F  ... .R..........
0620: 72 68 66 35 45 14 80 F0  FF FF 7F F0 FF FF 7F 72  rhf5E..........r
0630: 68 66 36 01 80 01 B2 07  02 02 00 21 80 80 77 06  hf6........!..w.
0640: 45 14 80 F0 FF FF 7F F0  FF FF 7F 72 65 6D 35 01  E..........rem5.
0650: 80 1C 20 80 52 14 80 F0  FF FF 7F F0 FF FF 7F 72  .. .R..........r
0660: 65 6D 35 45 14 80 F0 FF  FF 7F F0 FF FF 7F 72 65  em5E..........re
0670: 6D 36 01 80 01 B2 07 02  02 00 22 80 80 B6 06 45  m6........"....E
0680: 14 80 F0 FF FF 7F F0 FF  FF 7F 72 65 66 35 01 80  ..........ref5..
0690: 1C 20 80 52 14 80 F0 FF  FF 7F F0 FF FF 7F 72 65  . .R..........re
06A0: 66 35 45 14 80 F0 FF FF  7F F0 FF FF 7F 72 65 66  f5E..........ref
06B0: 36 01 80 01 B2 07 02 02  00 23 80 80 F5 06 45 14  6........#....E.
06C0: 80 F0 FF FF 7F F0 FF FF  7F 72 74 72 35 01 80 1C  .........rtr5...
06D0: 20 80 52 14 80 F0 FF FF  7F F0 FF FF 7F 72 74 72   .R..........rtr
06E0: 35 45 14 80 F0 FF FF 7F  F0 FF FF 7F 72 74 72 36  5E..........rtr6
06F0: 01 80 01 B2 07 02 02 00  24 80 80 34 07 45 14 80  ........$..4.E..
0700: F0 FF FF 7F F0 FF FF 7F  72 74 72 35 01 80 1C 20  ........rtr5... 
0710: 80 52 14 80 F0 FF FF 7F  F0 FF FF 7F 72 74 72 35  .R..........rtr5
0720: 45 14 80 F0 FF FF 7F F0  FF FF 7F 72 74 72 36 01  E..........rtr6.
0730: 80 01 B2 07 02 02 00 25  80 80 73 07 45 14 80 F0  .......%..s.E...
0740: FF FF 7F F0 FF FF 7F 72  6D 74 35 01 80 1C 20 80  .......rmt5... .
0750: 52 14 80 F0 FF FF 7F F0  FF FF 7F 72 6D 74 35 45  R..........rmt5E
0760: 14 80 F0 FF FF 7F F0 FF  FF 7F 72 6D 74 36 01 80  ..........rmt6..
0770: 01 B2 07 02 02 00 26 80  80 B2 07 45 14 80 F0 FF  ......&....E....
0780: FF 7F F0 FF FF 7F 72 67  6C 35 01 80 1C 20 80 52  ......rgl5... .R
0790: 14 80 F0 FF FF 7F F0 FF  FF 7F 72 67 6C 35 45 14  ..........rgl5E.
07A0: 80 F0 FF FF 7F F0 FF FF  7F 72 67 6C 36 01 80 01  .........rgl6...
07B0: B2 07 01 C7 09 02 00 00  0B 80 80 C7 09 52 14 80  .............R..
07C0: F0 FF FF 7F F0 FF FF 7F  61 6C 30 39 02 02 00 06  ........al09....
07D0: 80 80 0B 08 45 14 80 F0  FF FF 7F F0 FF FF 7F 61  ....E..........a
07E0: 68 6D 32 01 80 1C 20 80  52 14 80 F0 FF FF 7F F0  hm2... .R.......
07F0: FF FF 7F 61 68 6D 32 45  14 80 F0 FF FF 7F F0 FF  ...ahm2E........
0800: FF 7F 61 68 6D 30 01 80  01 C4 09 02 02 00 0B 80  ..ahm0..........
0810: 80 4A 08 45 14 80 F0 FF  FF 7F F0 FF FF 7F 61 68  .J.E..........ah
0820: 66 32 01 80 1C 20 80 52  14 80 F0 FF FF 7F F0 FF  f2... .R........
0830: FF 7F 61 68 66 32 45 14  80 F0 FF FF 7F F0 FF FF  ..ahf2E.........
0840: 7F 61 68 66 30 01 80 01  C4 09 02 02 00 21 80 80  .ahf0........!..
0850: 89 08 45 14 80 F0 FF FF  7F F0 FF FF 7F 61 65 6D  ..E..........aem
0860: 32 01 80 1C 20 80 52 14  80 F0 FF FF 7F F0 FF FF  2... .R.........
0870: 7F 61 65 6D 32 45 14 80  F0 FF FF 7F F0 FF FF 7F  .aem2E..........
0880: 61 65 6D 30 01 80 01 C4  09 02 02 00 22 80 80 C8  aem0........"...
0890: 08 45 14 80 F0 FF FF 7F  F0 FF FF 7F 61 65 66 32  .E..........aef2
08A0: 01 80 1C 20 80 52 14 80  F0 FF FF 7F F0 FF FF 7F  ... .R..........
08B0: 61 65 66 32 45 14 80 F0  FF FF 7F F0 FF FF 7F 61  aef2E..........a
08C0: 65 66 30 01 80 01 C4 09  02 02 00 23 80 80 07 09  ef0........#....
08D0: 45 14 80 F0 FF FF 7F F0  FF FF 7F 61 74 72 32 01  E..........atr2.
08E0: 80 1C 20 80 52 14 80 F0  FF FF 7F F0 FF FF 7F 61  .. .R..........a
08F0: 74 72 32 45 14 80 F0 FF  FF 7F F0 FF FF 7F 61 74  tr2E..........at
0900: 72 30 01 80 01 C4 09 02  02 00 24 80 80 46 09 45  r0........$..F.E
0910: 14 80 F0 FF FF 7F F0 FF  FF 7F 61 74 72 32 01 80  ..........atr2..
0920: 1C 20 80 52 14 80 F0 FF  FF 7F F0 FF FF 7F 61 74  . .R..........at
0930: 72 32 45 14 80 F0 FF FF  7F F0 FF FF 7F 61 74 72  r2E..........atr
0940: 30 01 80 01 C4 09 02 02  00 25 80 80 85 09 45 14  0........%....E.
0950: 80 F0 FF FF 7F F0 FF FF  7F 61 6D 74 32 01 80 1C  .........amt2...
0960: 20 80 52 14 80 F0 FF FF  7F F0 FF FF 7F 61 6D 74   .R..........amt
0970: 32 45 14 80 F0 FF FF 7F  F0 FF FF 7F 61 6D 74 30  2E..........amt0
0980: 01 80 01 C4 09 02 02 00  26 80 80 C4 09 45 14 80  ........&....E..
0990: F0 FF FF 7F F0 FF FF 7F  61 67 6C 32 01 80 1C 20  ........agl2... 
09A0: 80 52 14 80 F0 FF FF 7F  F0 FF FF 7F 61 67 6C 32  .R..........agl2
09B0: 45 14 80 F0 FF FF 7F F0  FF FF 7F 61 67 6C 30 01  E..........agl0.
09C0: 80 01 C4 09 01 C7 09 45  14 80 F0 FF FF 7F F0 FF  .......E........
09D0: FF 7F 36 31 30 32 01 80  2A 10 F0 FF FF 7F 1C 17  ..6102..*.......
09E0: 80 02 00 00 01 80 80 CD  0A 02 02 00 06 80 80 03  ................
09F0: 0A 52 14 80 F0 FF FF 7F  F0 FF FF 7F 72 68 6D 30  .R..........rhm0
0A00: 01 B9 0A 02 02 00 0B 80  80 1D 0A 52 14 80 F0 FF  ...........R....
0A10: FF 7F F0 FF FF 7F 72 68  66 30 01 B9 0A 02 02 00  ......rhf0......
0A20: 21 80 80 37 0A 52 14 80  F0 FF FF 7F F0 FF FF 7F  !..7.R..........
0A30: 72 65 6D 30 01 B9 0A 02  02 00 22 80 80 51 0A 52  rem0......"..Q.R
0A40: 14 80 F0 FF FF 7F F0 FF  FF 7F 72 65 66 30 01 B9  ..........ref0..
0A50: 0A 02 02 00 23 80 80 6B  0A 52 14 80 F0 FF FF 7F  ....#..k.R......
0A60: F0 FF FF 7F 72 74 72 30  01 B9 0A 02 02 00 24 80  ....rtr0......$.
0A70: 80 85 0A 52 14 80 F0 FF  FF 7F F0 FF FF 7F 72 74  ...R..........rt
0A80: 72 30 01 B9 0A 02 02 00  25 80 80 9F 0A 52 14 80  r0......%....R..
0A90: F0 FF FF 7F F0 FF FF 7F  72 6D 74 30 01 B9 0A 02  ........rmt0....
0AA0: 02 00 26 80 80 B9 0A 52  14 80 F0 FF FF 7F F0 FF  ..&....R........
0AB0: FF 7F 72 67 6C 30 01 B9  0A 45 14 80 F0 FF FF 7F  ..rgl0...E......
0AC0: F0 FF FF 7F 6E 6F 31 30  01 80 01 A5 0C 02 00 00  ....no10........
0AD0: 06 80 80 B9 0B 02 02 00  06 80 80 EF 0A 52 14 80  .............R..
0AE0: F0 FF FF 7F F0 FF FF 7F  72 68 6D 36 01 A5 0B 02  ........rhm6....
0AF0: 02 00 0B 80 80 09 0B 52  14 80 F0 FF FF 7F F0 FF  .......R........
0B00: FF 7F 72 68 66 36 01 A5  0B 02 02 00 21 80 80 23  ..rhf6......!..#
0B10: 0B 52 14 80 F0 FF FF 7F  F0 FF FF 7F 72 65 6D 36  .R..........rem6
0B20: 01 A5 0B 02 02 00 22 80  80 3D 0B 52 14 80 F0 FF  ......"..=.R....
0B30: FF 7F F0 FF FF 7F 72 65  66 36 01 A5 0B 02 02 00  ......ref6......
0B40: 23 80 80 57 0B 52 14 80  F0 FF FF 7F F0 FF FF 7F  #..W.R..........
0B50: 72 74 72 36 01 A5 0B 02  02 00 24 80 80 71 0B 52  rtr6......$..q.R
0B60: 14 80 F0 FF FF 7F F0 FF  FF 7F 72 74 72 36 01 A5  ..........rtr6..
0B70: 0B 02 02 00 25 80 80 8B  0B 52 14 80 F0 FF FF 7F  ....%....R......
0B80: F0 FF FF 7F 72 6D 74 36  01 A5 0B 02 02 00 26 80  ....rmt6......&.
0B90: 80 A5 0B 52 14 80 F0 FF  FF 7F F0 FF FF 7F 72 67  ...R..........rg
0BA0: 6C 36 01 A5 0B 45 14 80  F0 FF FF 7F F0 FF FF 7F  l6...E..........
0BB0: 72 6F 33 32 01 80 01 A5  0C 02 00 00 0B 80 80 A5  ro32............
0BC0: 0C 02 02 00 06 80 80 DB  0B 52 14 80 F0 FF FF 7F  .........R......
0BD0: F0 FF FF 7F 61 68 6D 30  01 91 0C 02 02 00 0B 80  ....ahm0........
0BE0: 80 F5 0B 52 14 80 F0 FF  FF 7F F0 FF FF 7F 61 68  ...R..........ah
0BF0: 66 30 01 91 0C 02 02 00  21 80 80 0F 0C 52 14 80  f0......!....R..
0C00: F0 FF FF 7F F0 FF FF 7F  61 65 6D 30 01 91 0C 02  ........aem0....
0C10: 02 00 22 80 80 29 0C 52  14 80 F0 FF FF 7F F0 FF  .."..).R........
0C20: FF 7F 61 65 66 30 01 91  0C 02 02 00 23 80 80 43  ..aef0......#..C
0C30: 0C 52 14 80 F0 FF FF 7F  F0 FF FF 7F 61 74 72 30  .R..........atr0
0C40: 01 91 0C 02 02 00 24 80  80 5D 0C 52 14 80 F0 FF  ......$..].R....
0C50: FF 7F F0 FF FF 7F 61 74  72 30 01 91 0C 02 02 00  ......atr0......
0C60: 25 80 80 77 0C 52 14 80  F0 FF FF 7F F0 FF FF 7F  %..w.R..........
0C70: 61 6D 74 30 01 91 0C 02  02 00 26 80 80 91 0C 52  amt0......&....R
0C80: 14 80 F0 FF FF 7F F0 FF  FF 7F 61 67 6C 30 01 91  ..........agl0..
0C90: 0C 45 14 80 F0 FF FF 7F  F0 FF FF 7F 61 6C 31 30  .E..........al10
0CA0: 01 80 01 A5 0C 1C 15 80  BB 1F 80 F0 FF FF 7F CE  ................
0CB0: 22 06 01 73 74 30 32 01  80 BB 19 80 CE 22 06 01  "..st02......"..
0CC0: F0 FF FF 7F 73 74 30 32  01 80 45 14 80 F0 FF FF  ....st02..E.....
0CD0: 7F F0 FF FF 7F 36 31 33  35 01 80 02 00 00 01 80  .....6135.......
0CE0: 80 3E 0E 02 02 00 06 80  80 0E 0D 52 14 80 F0 FF  .>.........R....
0CF0: FF 7F F0 FF FF 7F 6E 6F  31 30 45 14 80 F0 FF FF  ......no10E.....
0D00: 7F F0 FF FF 7F 6E 68 6D  33 01 80 01 3B 0E 02 02  .....nhm3...;...
0D10: 00 0B 80 80 39 0D 52 14  80 F0 FF FF 7F F0 FF FF  ....9.R.........
0D20: 7F 6E 6F 31 30 45 14 80  F0 FF FF 7F F0 FF FF 7F  .no10E..........
0D30: 6E 68 66 33 01 80 01 3B  0E 02 02 00 21 80 80 64  nhf3...;....!..d
0D40: 0D 52 14 80 F0 FF FF 7F  F0 FF FF 7F 6E 6F 31 30  .R..........no10
0D50: 45 14 80 F0 FF FF 7F F0  FF FF 7F 6E 65 6D 33 01  E..........nem3.
0D60: 80 01 3B 0E 02 02 00 22  80 80 8F 0D 52 14 80 F0  ..;...."....R...
0D70: FF FF 7F F0 FF FF 7F 6E  6F 31 30 45 14 80 F0 FF  .......no10E....
0D80: FF 7F F0 FF FF 7F 6E 65  66 33 01 80 01 3B 0E 02  ......nef3...;..
0D90: 02 00 23 80 80 BA 0D 52  14 80 F0 FF FF 7F F0 FF  ..#....R........
0DA0: FF 7F 6E 6F 31 30 45 14  80 F0 FF FF 7F F0 FF FF  ..no10E.........
0DB0: 7F 6E 74 72 33 01 80 01  3B 0E 02 02 00 24 80 80  .ntr3...;....$..
0DC0: E5 0D 52 14 80 F0 FF FF  7F F0 FF FF 7F 6E 6F 31  ..R..........no1
0DD0: 30 45 14 80 F0 FF FF 7F  F0 FF FF 7F 6E 74 72 33  0E..........ntr3
0DE0: 01 80 01 3B 0E 02 02 00  25 80 80 10 0E 52 14 80  ...;....%....R..
0DF0: F0 FF FF 7F F0 FF FF 7F  6E 6F 31 30 45 14 80 F0  ........no10E...
0E00: FF FF 7F F0 FF FF 7F 6E  6D 74 33 01 80 01 3B 0E  .......nmt3...;.
0E10: 02 02 00 26 80 80 3B 0E  52 14 80 F0 FF FF 7F F0  ...&..;.R.......
0E20: FF FF 7F 6E 6F 31 30 45  14 80 F0 FF FF 7F F0 FF  ...no10E........
0E30: FF 7F 6E 67 6C 33 01 80  01 3B 0E 01 04 11 02 00  ..ngl3...;......
0E40: 00 06 80 80 A1 0F 02 02  00 06 80 80 71 0E 52 14  ............q.R.
0E50: 80 F0 FF FF 7F F0 FF FF  7F 72 6F 33 32 45 14 80  .........ro32E..
0E60: F0 FF FF 7F F0 FF FF 7F  72 68 6D 37 01 80 01 9E  ........rhm7....
0E70: 0F 02 02 00 0B 80 80 9C  0E 52 14 80 F0 FF FF 7F  .........R......
0E80: F0 FF FF 7F 72 6F 33 32  45 14 80 F0 FF FF 7F F0  ....ro32E.......
0E90: FF FF 7F 72 68 66 37 01  80 01 9E 0F 02 02 00 21  ...rhf7........!
0EA0: 80 80 C7 0E 52 14 80 F0  FF FF 7F F0 FF FF 7F 72  ....R..........r
0EB0: 6F 33 32 45 14 80 F0 FF  FF 7F F0 FF FF 7F 72 65  o32E..........re
0EC0: 6D 37 01 80 01 9E 0F 02  02 00 22 80 80 F2 0E 52  m7........"....R
0ED0: 14 80 F0 FF FF 7F F0 FF  FF 7F 72 6F 33 32 45 14  ..........ro32E.
0EE0: 80 F0 FF FF 7F F0 FF FF  7F 72 65 66 37 01 80 01  .........ref7...
0EF0: 9E 0F 02 02 00 23 80 80  1D 0F 52 14 80 F0 FF FF  .....#....R.....
0F00: 7F F0 FF FF 7F 72 6F 33  32 45 14 80 F0 FF FF 7F  .....ro32E......
0F10: F0 FF FF 7F 72 74 72 37  01 80 01 9E 0F 02 02 00  ....rtr7........
0F20: 24 80 80 48 0F 52 14 80  F0 FF FF 7F F0 FF FF 7F  $..H.R..........
0F30: 72 6F 33 32 45 14 80 F0  FF FF 7F F0 FF FF 7F 72  ro32E..........r
0F40: 74 72 37 01 80 01 9E 0F  02 02 00 25 80 80 73 0F  tr7........%..s.
0F50: 52 14 80 F0 FF FF 7F F0  FF FF 7F 72 6F 33 32 45  R..........ro32E
0F60: 14 80 F0 FF FF 7F F0 FF  FF 7F 72 6D 74 37 01 80  ..........rmt7..
0F70: 01 9E 0F 02 02 00 26 80  80 9E 0F 52 14 80 F0 FF  ......&....R....
0F80: FF 7F F0 FF FF 7F 72 6F  33 32 45 14 80 F0 FF FF  ......ro32E.....
0F90: 7F F0 FF FF 7F 72 67 6C  37 01 80 01 9E 0F 01 04  .....rgl7.......
0FA0: 11 02 00 00 0B 80 80 04  11 02 02 00 06 80 80 D4  ................
0FB0: 0F 52 14 80 F0 FF FF 7F  F0 FF FF 7F 61 6C 31 30  .R..........al10
0FC0: 45 14 80 F0 FF FF 7F F0  FF FF 7F 61 68 6D 33 01  E..........ahm3.
0FD0: 80 01 01 11 02 02 00 0B  80 80 FF 0F 52 14 80 F0  ............R...
0FE0: FF FF 7F F0 FF FF 7F 61  6C 31 30 45 14 80 F0 FF  .......al10E....
0FF0: FF 7F F0 FF FF 7F 61 68  66 33 01 80 01 01 11 02  ......ahf3......
1000: 02 00 21 80 80 2A 10 52  14 80 F0 FF FF 7F F0 FF  ..!..*.R........
1010: FF 7F 61 6C 31 30 45 14  80 F0 FF FF 7F F0 FF FF  ..al10E.........
1020: 7F 61 65 6D 33 01 80 01  01 11 02 02 00 22 80 80  .aem3........"..
1030: 55 10 52 14 80 F0 FF FF  7F F0 FF FF 7F 61 6C 31  U.R..........al1
1040: 30 45 14 80 F0 FF FF 7F  F0 FF FF 7F 61 65 66 33  0E..........aef3
1050: 01 80 01 01 11 02 02 00  23 80 80 80 10 52 14 80  ........#....R..
1060: F0 FF FF 7F F0 FF FF 7F  61 6C 31 30 45 14 80 F0  ........al10E...
1070: FF FF 7F F0 FF FF 7F 61  74 72 33 01 80 01 01 11  .......atr3.....
1080: 02 02 00 24 80 80 AB 10  52 14 80 F0 FF FF 7F F0  ...$....R.......
1090: FF FF 7F 61 6C 31 30 45  14 80 F0 FF FF 7F F0 FF  ...al10E........
10A0: FF 7F 61 74 72 33 01 80  01 01 11 02 02 00 25 80  ..atr3........%.
10B0: 80 D6 10 52 14 80 F0 FF  FF 7F F0 FF FF 7F 61 6C  ...R..........al
10C0: 31 30 45 14 80 F0 FF FF  7F F0 FF FF 7F 61 6D 74  10E..........amt
10D0: 33 01 80 01 01 11 02 02  00 26 80 80 01 11 52 14  3........&....R.
10E0: 80 F0 FF FF 7F F0 FF FF  7F 61 6C 31 30 45 14 80  .........al10E..
10F0: F0 FF FF 7F F0 FF FF 7F  61 67 6C 33 01 80 01 01  ........agl3....
1100: 11 01 04 11 1C 15 80 45  14 80 F0 FF FF 7F F0 FF  .......E........
1110: FF 7F 6B 31 33 35 01 80  45 14 80 F0 FF FF 7F F0  ..k135..E.......
1120: FF FF 7F 30 73 62 71 01  80 45 14 80 CE 22 06 01  ...0sbq..E..."..
1130: F0 FF FF 7F 6B 30 34 61  01 80 02 00 00 01 80 80  ....k04a........
1140: A3 12 02 02 00 06 80 80  5C 11 52 14 80 F0 FF FF  ........\.R.....
1150: 7F F0 FF FF 7F 6E 68 6D  33 01 12 12 02 02 00 0B  .....nhm3.......
1160: 80 80 76 11 52 14 80 F0  FF FF 7F F0 FF FF 7F 6E  ..v.R..........n
1170: 68 66 33 01 12 12 02 02  00 21 80 80 90 11 52 14  hf3......!....R.
1180: 80 F0 FF FF 7F F0 FF FF  7F 6E 65 6D 33 01 12 12  .........nem3...
1190: 02 02 00 22 80 80 AA 11  52 14 80 F0 FF FF 7F F0  ..."....R.......
11A0: FF FF 7F 6E 65 66 33 01  12 12 02 02 00 23 80 80  ...nef3......#..
11B0: C4 11 52 14 80 F0 FF FF  7F F0 FF FF 7F 6E 74 72  ..R..........ntr
11C0: 33 01 12 12 02 02 00 24  80 80 DE 11 52 14 80 F0  3......$....R...
11D0: FF FF 7F F0 FF FF 7F 6E  74 72 33 01 12 12 02 02  .......ntr3.....
11E0: 00 25 80 80 F8 11 52 14  80 F0 FF FF 7F F0 FF FF  .%....R.........
11F0: 7F 6E 6D 74 33 01 12 12  02 02 00 26 80 80 12 12  .nmt3......&....
1200: 52 14 80 F0 FF FF 7F F0  FF FF 7F 6E 67 6C 33 01  R..........ngl3.
1210: 12 12 45 14 80 F0 FF FF  7F F0 FF FF 7F 6E 6F 32  ..E..........no2
1220: 35 01 80 1C 27 80 52 14  80 F0 FF FF 7F F0 FF FF  5...'.R.........
1230: 7F 6E 6F 32 35 45 14 80  F0 FF FF 7F F0 FF FF 7F  .no25E..........
1240: 6E 6F 32 30 01 80 1C 17  80 52 14 80 F0 FF FF 7F  no20.....R......
1250: F0 FF FF 7F 6E 6F 32 30  45 14 80 F0 FF FF 7F F0  ....no20E.......
1260: FF FF 7F 6E 6F 32 31 01  80 1C 15 80 9F 1C 80 F8  ...no21.........
1270: FF FF 7F F8 FF FF 7F 6B  69 6C 6C 01 80 1C 15 80  .......kill.....
1280: 52 14 80 F0 FF FF 7F F0  FF FF 7F 6E 6F 32 31 45  R..........no21E
1290: 14 80 F0 FF FF 7F F0 FF  FF 7F 6E 6F 32 32 01 80  ..........no22..
12A0: 01 75 15 02 00 00 06 80  80 0C 14 02 02 00 06 80  .u..............
12B0: 80 C5 12 52 14 80 F0 FF  FF 7F F0 FF FF 7F 72 68  ...R..........rh
12C0: 6D 37 01 7B 13 02 02 00  0B 80 80 DF 12 52 14 80  m7.{.........R..
12D0: F0 FF FF 7F F0 FF FF 7F  72 68 66 37 01 7B 13 02  ........rhf7.{..
12E0: 02 00 21 80 80 F9 12 52  14 80 F0 FF FF 7F F0 FF  ..!....R........
12F0: FF 7F 72 65 6D 37 01 7B  13 02 02 00 22 80 80 13  ..rem7.{...."...
1300: 13 52 14 80 F0 FF FF 7F  F0 FF FF 7F 72 65 66 37  .R..........ref7
1310: 01 7B 13 02 02 00 23 80  80 2D 13 52 14 80 F0 FF  .{....#..-.R....
1320: FF 7F F0 FF FF 7F 72 74  72 37 01 7B 13 02 02 00  ......rtr7.{....
1330: 24 80 80 47 13 52 14 80  F0 FF FF 7F F0 FF FF 7F  $..G.R..........
1340: 72 74 72 37 01 7B 13 02  02 00 25 80 80 61 13 52  rtr7.{....%..a.R
1350: 14 80 F0 FF FF 7F F0 FF  FF 7F 72 6D 74 37 01 7B  ..........rmt7.{
1360: 13 02 02 00 26 80 80 7B  13 52 14 80 F0 FF FF 7F  ....&..{.R......
1370: F0 FF FF 7F 72 67 6C 37  01 7B 13 45 14 80 F0 FF  ....rgl7.{.E....
1380: FF 7F F0 FF FF 7F 72 6F  32 35 01 80 1C 27 80 52  ......ro25...'.R
1390: 14 80 F0 FF FF 7F F0 FF  FF 7F 72 6F 32 35 45 14  ..........ro25E.
13A0: 80 F0 FF FF 7F F0 FF FF  7F 72 6F 32 30 01 80 1C  .........ro20...
13B0: 17 80 52 14 80 F0 FF FF  7F F0 FF FF 7F 72 6F 32  ..R..........ro2
13C0: 30 45 14 80 F0 FF FF 7F  F0 FF FF 7F 72 6F 32 31  0E..........ro21
13D0: 01 80 1C 15 80 9F 1C 80  F8 FF FF 7F F8 FF FF 7F  ................
13E0: 6B 69 6C 6C 01 80 1C 15  80 52 14 80 F0 FF FF 7F  kill.....R......
13F0: F0 FF FF 7F 72 6F 32 31  45 14 80 F0 FF FF 7F F0  ....ro21E.......
1400: FF FF 7F 72 6F 32 32 01  80 01 75 15 02 00 00 0B  ...ro22...u.....
1410: 80 80 75 15 02 02 00 06  80 80 2E 14 52 14 80 F0  ..u.........R...
1420: FF FF 7F F0 FF FF 7F 61  68 6D 33 01 E4 14 02 02  .......ahm3.....
1430: 00 0B 80 80 48 14 52 14  80 F0 FF FF 7F F0 FF FF  ....H.R.........
1440: 7F 61 68 66 33 01 E4 14  02 02 00 21 80 80 62 14  .ahf3......!..b.
1450: 52 14 80 F0 FF FF 7F F0  FF FF 7F 61 65 6D 33 01  R..........aem3.
1460: E4 14 02 02 00 22 80 80  7C 14 52 14 80 F0 FF FF  ....."..|.R.....
1470: 7F F0 FF FF 7F 61 65 66  33 01 E4 14 02 02 00 23  .....aef3......#
1480: 80 80 96 14 52 14 80 F0  FF FF 7F F0 FF FF 7F 61  ....R..........a
1490: 74 72 33 01 E4 14 02 02  00 24 80 80 B0 14 52 14  tr3......$....R.
14A0: 80 F0 FF FF 7F F0 FF FF  7F 61 74 72 33 01 E4 14  .........atr3...
14B0: 02 02 00 25 80 80 CA 14  52 14 80 F0 FF FF 7F F0  ...%....R.......
14C0: FF FF 7F 61 6D 74 33 01  E4 14 02 02 00 26 80 80  ...amt3......&..
14D0: E4 14 52 14 80 F0 FF FF  7F F0 FF FF 7F 61 67 6C  ..R..........agl
14E0: 33 01 E4 14 45 14 80 F0  FF FF 7F F0 FF FF 7F 61  3...E..........a
14F0: 6C 32 35 01 80 1C 27 80  52 14 80 F0 FF FF 7F F0  l25...'.R.......
1500: FF FF 7F 61 6C 32 35 45  14 80 F0 FF FF 7F F0 FF  ...al25E........
1510: FF 7F 61 6C 32 30 01 80  1C 17 80 52 14 80 F0 FF  ..al20.....R....
1520: FF 7F F0 FF FF 7F 61 6C  32 30 45 14 80 F0 FF FF  ......al20E.....
1530: 7F F0 FF FF 7F 61 6C 32  31 01 80 1C 15 80 9F 1C  .....al21.......
1540: 80 F8 FF FF 7F F8 FF FF  7F 6B 69 6C 6C 01 80 1C  .........kill...
1550: 15 80 52 14 80 F0 FF FF  7F F0 FF FF 7F 61 6C 32  ..R..........al2
1560: 31 45 14 80 F0 FF FF 7F  F0 FF FF 7F 61 6C 32 32  1E..........al22
1570: 01 80 01 75 15 5D 01 80  13 80 1C 17 80 48 28 80  ...u.].......H(.
1580: 1C 15 80 1A 97 46 1C 29  80 52 14 80 F0 FF FF 7F  .....F.).R......
1590: F0 FF FF 7F 6E 6F 32 32  52 14 80 F0 FF FF 7F F0  ....no22R.......
15A0: FF FF 7F 72 6F 32 32 52  14 80 F0 FF FF 7F F0 FF  ...ro22R........
15B0: FF 7F 61 6C 32 32 45 14  80 F0 FF FF 7F F0 FF FF  ..al22E.........
15C0: 7F 30 62 6C 66 01 80 1C  12 80 34 2A 80 77 2B 80  .0blf.....4*.w+.
15D0: 00 80 1C 10 80 AB 09 2D  F0 FF FF 7F F0 FF FF 7F  .......-........
15E0: 73 74 61 31 2D F0 FF FF  7F F0 FF FF 7F 73 74 61  sta1-........sta
15F0: 32 2D F0 FF FF 7F F0 FF  FF 7F 73 74 61 33 2D F0  2-........sta3-.
1600: FF FF 7F F0 FF FF 7F 73  74 61 34 5D 01 80 17 80  .......sta4]....
1610: 4E 01 CE 22 06 01 1C 20  80 5C 00 2C 80 5C 01 2C  N.."... .\.,.\.,
1620: 80 9A 27 10 D7 22 06 01  04 27 10 E9 22 06 01 04  ..'.."...'.."...
1630: 4E 00 E8 22 06 01 2F 00  EA 22 06 01 4E 00 EA 22  N.."../.."..N.."
1640: 06 01 92 01 D7 22 06 01  92 01 E9 22 06 01 92 01  ....."....."....
1650: E8 22 06 01 92 01 EA 22  06 01 94 01 F0 FF FF 7F  ."....."........
1660: 94 01 D7 22 06 01 94 01  E9 22 06 01 94 01 EA 22  ..."....."....."
1670: 06 01 59 05 E9 22 06 01  01 59 05 EA 22 06 01 01  ..Y.."...Y.."...
1680: 59 05 E8 22 06 01 01 BA  F0 FF FF 7F 2D 80 2E 80  Y.."........-...
1690: 2F 80 30 80 BA D7 22 06  01 31 80 32 80 2F 80 30  /.0..."..1.2./.0
16A0: 80 BA E9 22 06 01 33 80  34 80 35 80 36 80 BA EA  ..."..3.4.5.6...
16B0: 22 06 01 01 80 01 80 01  80 01 80 80 F0 FF FF 7F  "...............
16C0: 80 D7 22 06 01 80 E9 22  06 01 80 EA 22 06 01 7B  .."...."...."..{
16D0: F0 FF FF 7F 7B D7 22 06  01 7B E9 22 06 01 7B EA  ....{."..{."..{.
16E0: 22 06 01 1C 10 80 27 10  F0 FF FF 7F 19 27 10 E9  ".....'......'..
16F0: 22 06 01 0A 27 10 EA 22  06 01 0C 27 10 D7 22 06  "...'.."...'..".
1700: 01 0E 1C 29 80 27 10 F0  FF FF 7F 10 45 37 80 F0  ...).'......E7..
1710: FF FF 7F F0 FF FF 7F 30  30 30 30 01 80 1A 76 46  .......0000...vF
1720: 1A 34 46 1C 38 80 52 37  80 F0 FF FF 7F F0 FF FF  .4F.8.R7........
1730: 7F 30 30 30 30 45 37 80  F0 FF FF 7F F0 FF FF 7F  .0000E7.........
1740: 30 30 30 31 01 80 2B D7  22 06 01 39 80 23 2B D7  0001..+."..9.#+.
1750: 22 06 01 3A 80 23 27 10  D7 22 06 01 0F 1C 29 80  "..:.#'.."....).
1760: 27 10 F0 FF FF 7F 11 1C  17 80 52 37 80 F0 FF FF  '.........R7....
1770: 7F F0 FF FF 7F 30 30 30  31 45 37 80 F0 FF FF 7F  .....0001E7.....
1780: F0 FF FF 7F 30 30 30 32  01 80 7A 00 D7 22 06 01  ....0002..z.."..
1790: 7A 00 F0 FF FF 7F BA F0  FF FF 7F 3B 80 3C 80 2F  z..........;.<./
17A0: 80 3D 80 BA D7 22 06 01  3E 80 3F 80 2F 80 3D 80  .=..."..>.?./.=.
17B0: 27 10 F0 FF FF 7F 12 27  10 D7 22 06 01 10 1C 40  '......'.."....@
17C0: 80 52 37 80 F0 FF FF 7F  F0 FF FF 7F 30 30 30 32  .R7.........0002
17D0: 45 37 80 F0 FF FF 7F F0  FF FF 7F 30 30 30 33 01  E7.........0003.
17E0: 80 7A 00 D7 22 06 01 7A  00 F0 FF FF 7F BA F0 FF  .z.."..z........
17F0: FF 7F 41 80 42 80 01 80  43 80 BA D7 22 06 01 44  ..A.B...C..."..D
1800: 80 45 80 01 80 46 80 1C  47 80 52 37 80 F0 FF FF  .E...F..G.R7....
1810: 7F F0 FF FF 7F 30 30 30  33 45 37 80 F0 FF FF 7F  .....0003E7.....
1820: F0 FF FF 7F 30 30 30 34  01 80 27 10 F0 FF FF 7F  ....0004..'.....
1830: 13 29 10 D7 22 06 01 11  52 37 80 F0 FF FF 7F F0  .).."...R7......
1840: FF FF 7F 30 30 30 34 45  37 80 F0 FF FF 7F F0 FF  ...0004E7.......
1850: FF 7F 30 30 30 35 01 80  7A 00 F0 FF FF 7F BA F0  ..0005..z.......
1860: FF FF 7F 48 80 49 80 01  80 4A 80 BA D7 22 06 01  ...H.I...J..."..
1870: 4B 80 4C 80 01 80 4D 80  2B D7 22 06 01 4E 80 23  K.L...M.+."..N.#
1880: 52 37 80 F0 FF FF 7F F0  FF FF 7F 30 30 30 35 45  R7.........0005E
1890: 37 80 F0 FF FF 7F F0 FF  FF 7F 30 30 30 36 01 80  7.........0006..
18A0: 5B 4F 80 D7 22 06 01 D7  22 06 01 74 6C 62 30 2B  [O.."..."..tlb0+
18B0: D7 22 06 01 50 80 23 52  37 80 F0 FF FF 7F F0 FF  ."..P.#R7.......
18C0: FF 7F 30 30 30 36 45 37  80 F0 FF FF 7F F0 FF FF  ..0006E7........
18D0: 7F 30 30 30 37 01 80 2B  D7 22 06 01 51 80 23 52  .0007..+."..Q.#R
18E0: 37 80 F0 FF FF 7F F0 FF  FF 7F 30 30 30 37 45 37  7.........0007E7
18F0: 80 F0 FF FF 7F F0 FF FF  7F 30 30 30 38 01 80 5B  .........0008..[
1900: 4F 80 D7 22 06 01 D7 22  06 01 74 6C 62 31 2B D7  O.."..."..tlb1+.
1910: 22 06 01 52 80 23 45 37  80 F0 FF FF 7F F0 FF FF  "..R.#E7........
1920: 7F 61 74 30 30 01 80 2B  E8 22 06 01 53 80 23 52  .at00..+."..S.#R
1930: 37 80 F0 FF FF 7F F0 FF  FF 7F 30 30 30 38 29 10  7.........0008).
1940: F0 FF FF 7F 4D 02 02 10  06 80 80 61 19 45 37 80  ....M......a.E7.
1950: F0 FF FF 7F F0 FF FF 7F  30 30 30 39 01 80 01 25  ........0009...%
1960: 1A 02 02 10 0B 80 80 7D  19 45 37 80 F0 FF FF 7F  .......}.E7.....
1970: F0 FF FF 7F 30 30 30 39  01 80 01 25 1A 02 02 10  ....0009...%....
1980: 21 80 80 99 19 45 37 80  F0 FF FF 7F F0 FF FF 7F  !....E7.........
1990: 30 30 30 39 01 80 01 25  1A 02 02 10 22 80 80 B5  0009...%...."...
19A0: 19 45 37 80 F0 FF FF 7F  F0 FF FF 7F 30 30 30 39  .E7.........0009
19B0: 01 80 01 25 1A 02 02 10  23 80 80 D1 19 45 37 80  ...%....#....E7.
19C0: F0 FF FF 7F F0 FF FF 7F  30 30 31 39 01 80 01 25  ........0019...%
19D0: 1A 02 02 10 24 80 80 ED  19 45 37 80 F0 FF FF 7F  ....$....E7.....
19E0: F0 FF FF 7F 30 30 31 39  01 80 01 25 1A 02 02 10  ....0019...%....
19F0: 25 80 80 09 1A 45 37 80  F0 FF FF 7F F0 FF FF 7F  %....E7.........
1A00: 30 30 30 39 01 80 01 25  1A 02 02 10 26 80 80 25  0009...%....&..%
1A10: 1A 45 37 80 F0 FF FF 7F  F0 FF FF 7F 30 30 30 39  .E7.........0009
1A20: 01 80 01 25 1A 2B E8 22  06 01 54 80 23 52 37 80  ...%.+."..T.#R7.
1A30: F0 FF FF 7F F0 FF FF 7F  30 30 31 39 52 37 80 F0  ........0019R7..
1A40: FF FF 7F F0 FF FF 7F 30  30 30 39 45 37 80 F0 FF  .......0009E7...
1A50: FF 7F F0 FF FF 7F 30 30  30 61 01 80 2B E8 22 06  ......000a..+.".
1A60: 01 55 80 23 52 37 80 F0  FF FF 7F F0 FF FF 7F 30  .U.#R7.........0
1A70: 30 30 61 45 37 80 F0 FF  FF 7F F0 FF FF 7F 30 30  00aE7.........00
1A80: 30 62 01 80 2B D7 22 06  01 56 80 23 52 37 80 F0  0b..+."..V.#R7..
1A90: FF FF 7F F0 FF FF 7F 30  30 30 62 45 37 80 F0 FF  .......000bE7...
1AA0: FF 7F F0 FF FF 7F 30 30  31 37 01 80 2B D7 22 06  ......0017..+.".
1AB0: 01 57 80 23 81 00 D7 22  06 01 5B 4F 80 D7 22 06  .W.#..."..[O..".
1AC0: 01 D7 22 06 01 74 6C 62  30 2B D7 22 06 01 58 80  .."..tlb0+."..X.
1AD0: 23 52 37 80 F0 FF FF 7F  F0 FF FF 7F 30 30 31 37  #R7.........0017
1AE0: 45 37 80 F0 FF FF 7F F0  FF FF 7F 30 30 30 63 01  E7.........000c.
1AF0: 80 2B D7 22 06 01 59 80  23 52 37 80 F0 FF FF 7F  .+."..Y.#R7.....
1B00: F0 FF FF 7F 30 30 30 63  45 37 80 F0 FF FF 7F F0  ....000cE7......
1B10: FF FF 7F 30 30 30 64 01  80 2B CE 22 06 01 5A 80  ...000d..+."..Z.
1B20: 23 52 37 80 F0 FF FF 7F  F0 FF FF 7F 30 30 30 64  #R7.........000d
1B30: 45 37 80 F0 FF FF 7F F0  FF FF 7F 30 30 30 65 01  E7.........000e.
1B40: 80 2B D7 22 06 01 5B 80  23 52 37 80 F0 FF FF 7F  .+."..[.#R7.....
1B50: F0 FF FF 7F 30 30 30 65  45 37 80 F0 FF FF 7F F0  ....000eE7......
1B60: FF FF 7F 30 30 30 66 01  80 45 37 80 F0 FF FF 7F  ...000f..E7.....
1B70: F0 FF FF 7F 61 74 30 30  01 80 81 01 D7 22 06 01  ....at00....."..
1B80: 5B 5C 80 D7 22 06 01 D7  22 06 01 66 30 30 30 5B  [\.."..."..f000[
1B90: 4F 80 D7 22 06 01 D7 22  06 01 74 6C 62 31 2B E8  O.."..."..tlb1+.
1BA0: 22 06 01 5D 80 23 CD 26  80 F0 FF FF 7F F0 FF FF  "..].#.&........
1BB0: 7F 73 30 30 34 01 80 52  37 80 F0 FF FF 7F F0 FF  .s004..R7.......
1BC0: FF 7F 30 30 30 66 45 37  80 F0 FF FF 7F F0 FF FF  ..000fE7........
1BD0: 7F 30 30 30 67 01 80 BA  F0 FF FF 7F 5E 80 5F 80  .000g.......^._.
1BE0: 01 80 60 80 BA D7 22 06  01 61 80 62 80 01 80 63  ..`..."..a.b...c
1BF0: 80 1C 13 80 52 37 80 F0  FF FF 7F F0 FF FF 7F 30  ....R7.........0
1C00: 30 30 67 45 37 80 F0 FF  FF 7F F0 FF FF 7F 30 30  00gE7.........00
1C10: 30 68 01 80 CD 26 80 F0  FF FF 7F F0 FF FF 7F 6B  0h...&.........k
1C20: 69 6C 34 01 80 CD 26 80  F0 FF FF 7F F0 FF FF 7F  il4...&.........
1C30: 73 30 30 35 01 80 1C 1E  80 2B D7 22 06 01 64 80  s005.....+."..d.
1C40: 23 52 37 80 F0 FF FF 7F  F0 FF FF 7F 30 30 30 68  #R7.........000h
1C50: 45 37 80 F0 FF FF 7F F0  FF FF 7F 30 30 30 69 01  E7.........000i.
1C60: 80 CD 26 80 F0 FF FF 7F  F0 FF FF 7F 6B 69 6C 35  ..&.........kil5
1C70: 01 80 CD 26 80 F0 FF FF  7F F0 FF FF 7F 73 30 30  ...&.........s00
1C80: 33 01 80 1C 1E 80 52 37  80 F0 FF FF 7F F0 FF FF  3.....R7........
1C90: 7F 30 30 30 69 45 37 80  F0 FF FF 7F F0 FF FF 7F  .000iE7.........
1CA0: 30 30 30 6A 01 80 CD 26  80 F0 FF FF 7F F0 FF FF  000j...&........
1CB0: 7F 6B 69 6C 33 01 80 5B  65 80 D7 22 06 01 D7 22  .kil3..[e.."..."
1CC0: 06 01 6B 79 6F 30 2B D7  22 06 01 66 80 1C 47 80  ..kyo0+."..f..G.
1CD0: 23 52 37 80 F0 FF FF 7F  F0 FF FF 7F 30 30 30 6A  #R7.........000j
1CE0: 45 37 80 F0 FF FF 7F F0  FF FF 7F 30 30 30 6B 01  E7.........000k.
1CF0: 80 4A F0 FF FF 7F E9 22  06 01 4A D7 22 06 01 E9  .J....."..J."...
1D00: 22 06 01 BB 67 80 E9 22  06 01 E9 22 06 01 6F 75  "...g.."..."..ou
1D10: 74 30 01 80 2B EA 22 06  01 68 80 5D 01 80 17 80  t0..+."..h.]....
1D20: 1C 15 80 23 5C 00 18 80  5C 01 18 80 9A 52 37 80  ...#\...\....R7.
1D30: F0 FF FF 7F F0 FF FF 7F  30 30 30 6B 45 37 80 F0  ........000kE7..
1D40: FF FF 7F F0 FF FF 7F 30  30 30 6C 01 80 BA F0 FF  .......000l.....
1D50: FF 7F 69 80 6A 80 01 80  6B 80 BA D7 22 06 01 6C  ..i.j...k..."..l
1D60: 80 6D 80 01 80 6E 80 7B  F0 FF FF 7F 5B 6F 80 D7  .m...n.{....[o..
1D70: 22 06 01 D7 22 06 01 6B  61 6D 30 2B D7 22 06 01  "..."..kam0+."..
1D80: 70 80 1C 17 80 27 10 F0  FF FF 7F 0B 1C 17 80 23  p....'.........#
1D90: 52 37 80 F0 FF FF 7F F0  FF FF 7F 30 30 30 6C 45  R7.........000lE
1DA0: 37 80 F0 FF FF 7F F0 FF  FF 7F 30 30 30 6D 01 80  7.........000m..
1DB0: 1C 20 80 BB 67 80 E9 22  06 01 E9 22 06 01 69 6E  . ..g.."..."..in
1DC0: 30 30 01 80 1C 17 80 BA  E9 22 06 01 71 80 72 80  00......."..q.r.
1DD0: 73 80 74 80 5B 75 80 E9  22 06 01 E9 22 06 01 61  s.t.[u.."..."..a
1DE0: 74 6B 30 1C 10 80 52 37  80 F0 FF FF 7F F0 FF FF  tk0...R7........
1DF0: 7F 30 30 30 6D 45 37 80  F0 FF FF 7F F0 FF FF 7F  .000mE7.........
1E00: 30 30 30 6F 01 80 1C 20  80 BB 67 80 E9 22 06 01  000o... ..g.."..
1E10: E9 22 06 01 6F 75 74 30  01 80 1C 20 80 52 37 80  ."..out0... .R7.
1E20: F0 FF FF 7F F0 FF FF 7F  30 30 30 6E 45 37 80 F0  ........000nE7..
1E30: FF FF 7F F0 FF FF 7F 30  30 30 70 01 80 CD 76 80  .......000p...v.
1E40: E9 22 06 01 E9 22 06 01  73 30 30 30 01 80 1C 1E  ."..."..s000....
1E50: 80 52 37 80 F0 FF FF 7F  F0 FF FF 7F 30 30 30 70  .R7.........000p
1E60: 45 37 80 F0 FF FF 7F F0  FF FF 7F 30 30 31 38 01  E7.........0018.
1E70: 80 CD 76 80 E9 22 06 01  E9 22 06 01 73 30 30 31  ..v.."..."..s001
1E80: 01 80 5B 75 80 E9 22 06  01 E9 22 06 01 61 74 6B  ..[u.."..."..atk
1E90: 31 1C 17 80 52 37 80 F0  FF FF 7F F0 FF FF 7F 30  1...R7.........0
1EA0: 30 31 38 45 37 80 F0 FF  FF 7F F0 FF FF 7F 30 30  018E7.........00
1EB0: 30 76 01 80 5B 65 80 D7  22 06 01 D7 22 06 01 6B  0v..[e.."..."..k
1EC0: 65 69 30 1C 29 80 52 37  80 F0 FF FF 7F F0 FF FF  ei0.).R7........
1ED0: 7F 30 30 30 76 45 37 80  F0 FF FF 7F F0 FF FF 7F  .000vE7.........
1EE0: 30 30 30 77 01 80 1C 20  80 52 37 80 F0 FF FF 7F  000w... .R7.....
1EF0: F0 FF FF 7F 30 30 30 77  45 37 80 F0 FF FF 7F F0  ....000wE7......
1F00: FF FF 7F 30 30 30 71 01  80 1C 20 80 52 37 80 F0  ...000q... .R7..
1F10: FF FF 7F F0 FF FF 7F 30  30 30 71 45 37 80 F0 FF  .......000qE7...
1F20: FF 7F F0 FF FF 7F 30 30  30 72 01 80 2B D7 22 06  ......000r..+.".
1F30: 01 77 80 81 00 D7 22 06  01 81 00 EA 22 06 01 5B  .w...."....."..[
1F40: 78 80 D7 22 06 01 D7 22  06 01 6B 65 69 31 1C 12  x.."..."..kei1..
1F50: 80 CD 79 80 EA 22 06 01  EA 22 06 01 73 30 30 30  ..y.."..."..s000
1F60: 01 80 1C 7A 80 BA EA 22  06 01 7B 80 7C 80 01 80  ...z..."..{.|...
1F70: 7D 80 1C 23 80 52 37 80  F0 FF FF 7F F0 FF FF 7F  }..#.R7.........
1F80: 30 30 30 72 45 37 80 F0  FF FF 7F F0 FF FF 7F 30  000rE7.........0
1F90: 30 31 36 01 80 BA D7 22  06 01 01 80 01 80 01 80  016...."........
1FA0: 01 80 1C 10 80 92 01 F0  FF FF 7F 1C 38 80 1C 12  ............8...
1FB0: 80 59 05 F0 FF FF 7F 01  BA D7 22 06 01 7E 80 7F  .Y........"..~..
1FC0: 80 01 80 80 80 BA F0 FF  FF 7F 81 80 82 80 83 80  ................
1FD0: 84 80 27 10 F0 FF FF 7F  0D 1C 12 80 52 37 80 F0  ..'.........R7..
1FE0: FF FF 7F F0 FF FF 7F 30  30 30 73 45 37 80 F0 FF  .......000sE7...
1FF0: FF 7F F0 FF FF 7F 30 30  30 74 01 80 1C 12 80 27  ......000t.....'
2000: 10 EA 22 06 01 0E BA EA  22 06 01 85 80 86 80 87  ..".....".......
2010: 80 6E 80 1C 88 80 52 37  80 F0 FF FF 7F F0 FF FF  .n....R7........
2020: 7F 30 30 30 74 45 37 80  F0 FF FF 7F F0 FF FF 7F  .000tE7.........
2030: 30 30 30 7A 01 80 5B 75  80 E9 22 06 01 E9 22 06  000z..[u.."...".
2040: 01 61 74 6B 30 5B 78 80  D7 22 06 01 D7 22 06 01  .atk0[x.."..."..
2050: 6B 65 69 32 1C 06 80 CD  89 80 D7 22 06 01 D7 22  kei2......."..."
2060: 06 01 73 30 30 31 01 80  BA F0 FF FF 7F 01 80 01  ..s001..........
2070: 80 01 80 01 80 27 10 F0  FF FF 7F 1D 1C 20 80 52  .....'....... .R
2080: 37 80 F0 FF FF 7F F0 FF  FF 7F 30 30 30 7A 45 37  7.........000zE7
2090: 80 F0 FF FF 7F F0 FF FF  7F 30 30 30 79 01 80 1C  .........000y...
20A0: 10 80 CD 89 80 D7 22 06  01 D7 22 06 01 73 30 30  ......"..."..s00
20B0: 32 01 80 1C 20 80 52 37  80 F0 FF FF 7F F0 FF FF  2... .R7........
20C0: 7F 30 30 30 79 45 37 80  F0 FF FF 7F F0 FF FF 7F  .000yE7.........
20D0: 30 30 31 6E 01 80 1C 06  80 CD 89 80 D7 22 06 01  001n........."..
20E0: D7 22 06 01 73 30 30 30  01 80 1C 1E 80 52 37 80  ."..s000.....R7.
20F0: F0 FF FF 7F F0 FF FF 7F  30 30 31 6E 45 37 80 F0  ........001nE7..
2100: FF FF 7F F0 FF FF 7F 30  30 31 30 01 80 BA F0 FF  .......0010.....
2110: FF 7F 8A 80 8B 80 8C 80  8D 80 27 10 F0 FF FF 7F  ..........'.....
2120: 0F 2B E9 22 06 01 8E 80  23 52 37 80 F0 FF FF 7F  .+."....#R7.....
2130: F0 FF FF 7F 30 30 31 30  45 37 80 F0 FF FF 7F F0  ....0010E7......
2140: FF FF 7F 30 30 31 31 01  80 2B D7 22 06 01 8F 80  ...0011..+."....
2150: 1C 10 80 27 10 E9 22 06  01 0A 27 10 F0 FF FF 7F  ...'.."...'.....
2160: 18 1C 10 80 27 10 F0 FF  FF 7F 1D 23 7A 00 F0 FF  ....'......#z...
2170: FF 7F BA F0 FF FF 7F 8A  80 8B 80 90 80 8D 80 52  ...............R
2180: 37 80 F0 FF FF 7F F0 FF  FF 7F 30 30 31 31 45 37  7.........0011E7
2190: 80 F0 FF FF 7F F0 FF FF  7F 30 30 31 32 01 80 2B  .........0012..+
21A0: D7 22 06 01 91 80 CD 26  80 EA 22 06 01 EA 22 06  .".....&.."...".
21B0: 01 73 30 30 33 01 80 5D  92 80 17 80 1C 13 80 27  .s003..].......'
21C0: 10 F0 FF FF 7F 0F 1C 17  80 52 37 80 F0 FF FF 7F  .........R7.....
21D0: F0 FF FF 7F 30 30 31 32  45 37 80 F0 FF FF 7F F0  ....0012E7......
21E0: FF FF 7F 30 30 31 66 01  80 CD 26 80 EA 22 06 01  ...001f...&.."..
21F0: EA 22 06 01 6B 69 6C 33  01 80 CD 26 80 F0 FF FF  ."..kil3...&....
2200: 7F F0 FF FF 7F 73 30 30  34 01 80 5D 93 80 17 80  .....s004..]....
2210: 1C 06 80 CD 89 80 D7 22  06 01 D7 22 06 01 6B 69  ......."..."..ki
2220: 6C 61 01 80 27 10 F0 FF  FF 7F 19 92 01 F0 FF FF  la..'...........
2230: 7F 1C 1B 80 CD 94 80 F0  FF FF 7F F0 FF FF 7F 73  ...............s
2240: 30 30 30 01 80 92 01 F0  FF FF 7F 1C 29 80 27 10  000.........).'.
2250: F0 FF FF 7F 22 1C 17 80  52 37 80 F0 FF FF 7F F0  ...."...R7......
2260: FF FF 7F 30 30 31 66 45  37 80 F0 FF FF 7F F0 FF  ...001fE7.......
2270: FF 7F 30 30 31 67 01 80  5D 88 80 17 80 1C 40 80  ..001g..].....@.
2280: 5D 01 80 17 80 1A 55 46  7A 00 F0 FF FF 7F CD 26  ].....UFz......&
2290: 80 F0 FF FF 7F F0 FF FF  7F 6B 69 6C 34 01 80 CD  .........kil4...
22A0: 94 80 F0 FF FF 7F F0 FF  FF 7F 6B 69 6C 6C 01 80  ..........kill..
22B0: 59 05 F0 FF FF 7F 00 59  05 E9 22 06 01 00 27 10  Y......Y.."...'.
22C0: F0 FF FF 7F 18 1C 20 80  81 01 D7 22 06 01 81 01  ...... ...."....
22D0: E9 22 06 01 81 01 EA 22  06 01 6B 69 64 6C 30 F0  ."....."..kidl0.
22E0: FF FF 7F 6B 69 64 6C 30  D7 22 06 01 6B 69 64 6C  ...kidl0."..kidl
22F0: 30 E9 22 06 01 6B 69 64  6C 30 EA 22 06 01 92 00  0."..kidl0."....
2300: F0 FF FF 7F 1C 1E 80 BA  F0 FF FF 7F 95 80 96 80  ................
2310: 97 80 98 80 BA E8 22 06  01 99 80 9A 80 01 80 9B  ......".........
2320: 80 BA EA 22 06 01 9C 80  9D 80 9E 80 9F 80 1C A0  ..."............
2330: 80 CD A1 80 E8 22 06 01  E8 22 06 01 73 30 30 30  ....."..."..s000
2340: 01 80 27 10 F0 FF FF 7F  4B 1C 17 80 52 37 80 F0  ..'.....K...R7..
2350: FF FF 7F F0 FF FF 7F 30  30 31 32 45 37 80 F0 FF  .......0012E7...
2360: FF 7F F0 FF FF 7F 62 6C  6F 66 01 80 45 37 80 F0  ......blof..E7..
2370: FF FF 7F F0 FF FF 7F 30  30 31 34 01 80 9F A2 80  .......0014.....
2380: F8 FF FF 7F F8 FF FF 7F  62 6C 30 30 01 80 1C 17  ........bl00....
2390: 80 1A 34 46 1C 15 80 9F  A2 80 F8 FF FF 7F F8 FF  ..4F............
23A0: FF 7F 6F 70 65 6E 01 80  1C 1E 80 9F A2 80 F8 FF  ..open..........
23B0: FF 7F F8 FF FF 7F 63 6C  6F 73 01 80 1C 1E 80 9F  ......clos......
23C0: A2 80 F8 FF FF 7F F8 FF  FF 7F 6F 70 65 6E 01 80  ..........open..
23D0: 1C 1E 80 9F A2 80 F8 FF  FF 7F F8 FF FF 7F 63 6C  ..............cl
23E0: 6F 73 01 80 1C 15 80 1A  55 46 9F A2 80 F8 FF FF  os......UF......
23F0: 7F F8 FF FF 7F 6B 69 6C  6C 01 80 27 10 F0 FF FF  .....kill..'....
2400: 7F 19 1C 15 80 52 37 80  F0 FF FF 7F F0 FF FF 7F  .....R7.........
2410: 30 30 31 34 45 37 80 F0  FF FF 7F F0 FF FF 7F 30  0014E7.........0
2420: 30 31 35 01 80 79 00 F0  FF FF 7F E8 22 06 01 1A  015..y......"...
2430: 34 46 1C 20 80 27 10 F0  FF FF 7F 4C 1C 1B 80 27  4F. .'.....L...'
2440: 10 F0 FF FF 7F 14 1C 15  80 52 37 80 F0 FF FF 7F  .........R7.....
2450: F0 FF FF 7F 30 30 31 35  45 37 80 F0 FF FF 7F F0  ....0015E7......
2460: FF FF 7F 30 30 31 68 01  80 7A 00 F0 FF FF 7F 5C  ...001h..z.....\
2470: 00 A3 80 5C 01 A3 80 9A  1C 17 80 1C 15 80 52 37  ...\..........R7
2480: 80 F0 FF FF 7F F0 FF FF  7F 30 30 31 68 45 37 80  .........001hE7.
2490: F0 FF FF 7F F0 FF FF 7F  30 30 31 69 01 80 7B F0  ........001i..{.
24A0: FF FF 7F 02 02 10 06 80  80 C2 24 BA F0 FF FF 7F  ..........$.....
24B0: A4 80 A5 80 01 80 A6 80  27 10 F0 FF FF 7F 4B 01  ........'.....K.
24C0: 9B 25 02 02 10 0B 80 80  E1 24 BA F0 FF FF 7F A4  .%.......$......
24D0: 80 A5 80 01 80 A6 80 27  10 F0 FF FF 7F 4B 01 9B  .......'.....K..
24E0: 25 02 02 10 21 80 80 00  25 BA F0 FF FF 7F A7 80  %...!...%.......
24F0: A8 80 01 80 A9 80 27 10  F0 FF FF 7F 4B 01 9B 25  ......'.....K..%
2500: 02 02 10 22 80 80 1F 25  BA F0 FF FF 7F A7 80 A8  ..."...%........
2510: 80 01 80 A9 80 27 10 F0  FF FF 7F 4B 01 9B 25 02  .....'.....K..%.
2520: 02 10 23 80 80 3E 25 BA  F0 FF FF 7F A4 80 A5 80  ..#..>%.........
2530: 01 80 A6 80 27 10 F0 FF  FF 7F 25 01 9B 25 02 02  ....'.....%..%..
2540: 10 24 80 80 5D 25 BA F0  FF FF 7F A4 80 A5 80 01  .$..]%..........
2550: 80 A6 80 27 10 F0 FF FF  7F 25 01 9B 25 02 02 10  ...'.....%..%...
2560: 25 80 80 7C 25 BA F0 FF  FF 7F A4 80 A5 80 01 80  %..|%...........
2570: A6 80 27 10 F0 FF FF 7F  4B 01 9B 25 02 02 10 26  ..'.....K..%...&
2580: 80 80 9B 25 BA F0 FF FF  7F AA 80 AB 80 01 80 A9  ...%............
2590: 80 27 10 F0 FF FF 7F 4B  01 9B 25 1C 13 80 CD A1  .'.....K..%.....
25A0: 80 E8 22 06 01 E8 22 06  01 73 30 30 31 01 80 1C  .."..."..s001...
25B0: 15 80 52 37 80 F0 FF FF  7F F0 FF FF 7F 30 30 31  ..R7.........001
25C0: 69 45 37 80 F0 FF FF 7F  F0 FF FF 7F 30 30 31 6A  iE7.........001j
25D0: 01 80 79 00 F0 FF FF 7F  EA 22 06 01 1C 15 80 02  ..y......"......
25E0: 02 10 06 80 80 F1 25 27  10 F0 FF FF 7F 4C 01 4B  ......%'.....L.K
25F0: 26 02 02 10 0B 80 80 03  26 27 10 F0 FF FF 7F 4C  &.......&'.....L
2600: 01 4B 26 02 02 10 21 80  80 15 26 27 10 F0 FF FF  .K&...!...&'....
2610: 7F 4C 01 4B 26 02 02 10  22 80 80 27 26 27 10 F0  .L.K&..."..'&'..
2620: FF FF 7F 4C 01 4B 26 02  02 10 25 80 80 39 26 27  ...L.K&...%..9&'
2630: 10 F0 FF FF 7F 4C 01 4B  26 02 02 10 26 80 80 4B  .....L.K&...&..K
2640: 26 27 10 F0 FF FF 7F 4C  01 4B 26 1C 15 80 52 37  &'.....L.K&...R7
2650: 80 F0 FF FF 7F F0 FF FF  7F 30 30 31 6A 45 37 80  .........001jE7.
2660: F0 FF FF 7F F0 FF FF 7F  30 30 31 6C 01 80 CD A1  ........001l....
2670: 80 E8 22 06 01 E8 22 06  01 74 6D 30 31 01 80 1C  .."..."..tm01...
2680: AC 80 52 37 80 F0 FF FF  7F F0 FF FF 7F 30 30 31  ..R7.........001
2690: 6C 45 37 80 F0 FF FF 7F  F0 FF FF 7F 30 30 31 6D  lE7.........001m
26A0: 01 80 BA F0 FF FF 7F 99  80 9A 80 01 80 AD 80 1C  ................
26B0: A0 80 52 37 80 F0 FF FF  7F F0 FF FF 7F 30 30 31  ..R7.........001
26C0: 6A 45 37 80 F0 FF FF 7F  F0 FF FF 7F 30 30 31 6B  jE7.........001k
26D0: 01 80 1C 15 80 45 37 80  F0 FF FF 7F F0 FF FF 7F  .....E7.........
26E0: 61 74 30 30 01 80 2B E8  22 06 01 AE 80 1C 15 80  at00..+.".......
26F0: BA EA 22 06 01 AF 80 B0  80 B1 80 B2 80 1C 06 80  ..".............
2700: 4A F0 FF FF 7F EA 22 06  01 1C 1E 80 23 27 10 F0  J.....".....#'..
2710: FF FF 7F 23 1C 15 80 52  37 80 F0 FF FF 7F F0 FF  ...#...R7.......
2720: FF 7F 30 30 31 6B 45 37  80 F0 FF FF 7F F0 FF FF  ..001kE7........
2730: 7F 30 30 31 6F 01 80 2B  E8 22 06 01 B3 80 23 2B  .001o..+."....#+
2740: E8 22 06 01 B4 80 23 52  37 80 F0 FF FF 7F F0 FF  ."....#R7.......
2750: FF 7F 30 30 31 6F 45 37  80 F0 FF FF 7F F0 FF FF  ..001oE7........
2760: 7F 30 30 31 70 01 80 92  01 F0 FF FF 7F 2B E8 22  .001p........+."
2770: 06 01 B5 80 23 2A 10 F0  FF FF 7F 52 37 80 F0 FF  ....#*.....R7...
2780: FF 7F F0 FF FF 7F 30 30  31 70 29 10 F0 FF FF 7F  ......001p).....
2790: 4D 02 02 10 06 80 80 AD  27 45 37 80 F0 FF FF 7F  M.......'E7.....
27A0: F0 FF FF 7F 30 30 31 71  01 80 01 71 28 02 02 10  ....001q...q(...
27B0: 0B 80 80 C9 27 45 37 80  F0 FF FF 7F F0 FF FF 7F  ....'E7.........
27C0: 30 30 31 71 01 80 01 71  28 02 02 10 21 80 80 E5  001q...q(...!...
27D0: 27 45 37 80 F0 FF FF 7F  F0 FF FF 7F 30 68 69 30  'E7.........0hi0
27E0: 01 80 01 71 28 02 02 10  22 80 80 01 28 45 37 80  ...q(..."...(E7.
27F0: F0 FF FF 7F F0 FF FF 7F  30 68 69 30 01 80 01 71  ........0hi0...q
2800: 28 02 02 10 23 80 80 1D  28 45 37 80 F0 FF FF 7F  (...#...(E7.....
2810: F0 FF FF 7F 30 73 68 30  01 80 01 71 28 02 02 10  ....0sh0...q(...
2820: 24 80 80 39 28 45 37 80  F0 FF FF 7F F0 FF FF 7F  $..9(E7.........
2830: 30 73 68 30 01 80 01 71  28 02 02 10 25 80 80 55  0sh0...q(...%..U
2840: 28 45 37 80 F0 FF FF 7F  F0 FF FF 7F 30 30 31 71  (E7.........001q
2850: 01 80 01 71 28 02 02 10  26 80 80 71 28 45 37 80  ...q(...&..q(E7.
2860: F0 FF FF 7F F0 FF FF 7F  30 68 69 30 01 80 01 71  ........0hi0...q
2870: 28 2B E8 22 06 01 B6 80  23 CD B7 80 F0 FF FF 7F  (+."....#.......
2880: F0 FF FF 7F 73 30 30 30  01 80 7B F0 FF FF 7F 27  ....s000..{....'
2890: 10 F0 FF FF 7F 24 1C 47  80 52 37 80 F0 FF FF 7F  .....$.G.R7.....
28A0: F0 FF FF 7F 30 30 31 71  52 37 80 F0 FF FF 7F F0  ....001qR7......
28B0: FF FF 7F 30 68 69 30 52  37 80 F0 FF FF 7F F0 FF  ...0hi0R7.......
28C0: FF 7F 30 73 68 30 45 37  80 F0 FF FF 7F F0 FF FF  ..0sh0E7........
28D0: 7F 30 30 31 72 01 80 1C  B8 80 52 37 80 F0 FF FF  .001r.....R7....
28E0: 7F F0 FF FF 7F 30 30 31  72 45 37 80 F0 FF FF 7F  .....001rE7.....
28F0: F0 FF FF 7F 30 30 31 61  01 80 2B E8 22 06 01 B9  ....001a..+."...
2900: 80 23 2B E8 22 06 01 BA  80 23 52 37 80 F0 FF FF  .#+."....#R7....
2910: 7F F0 FF FF 7F 30 30 31  61 45 37 80 F0 FF FF 7F  .....001aE7.....
2920: F0 FF FF 7F 30 30 31 62  01 80 2B E8 22 06 01 BB  ....001b..+."...
2930: 80 23 52 37 80 F0 FF FF  7F F0 FF FF 7F 30 30 31  .#R7.........001
2940: 62 45 37 80 F0 FF FF 7F  F0 FF FF 7F 30 30 31 64  bE7.........001d
2950: 01 80 45 37 80 F0 FF FF  7F F0 FF FF 7F 61 74 30  ..E7.........at0
2960: 30 01 80 5D 01 80 1A 80  2B E8 22 06 01 BC 80 23  0..]....+."....#
2970: 1A 55 46 59 05 F0 FF FF  7F 00 59 05 E9 22 06 01  .UFY......Y.."..
2980: 00 59 05 EA 22 06 01 00  59 05 E8 22 06 01 00 27  .Y.."...Y.."...'
2990: 10 F0 FF FF 7F 19 27 10  EA 22 06 01 0F 27 10 EA  ......'.."...'..
29A0: 22 06 01 0D BB BD 80 F0  FF FF 7F F0 FF FF 7F 6B  "..............k
29B0: 69 6C 61 01 80 1C 20 80  81 01 D7 22 06 01 81 01  ila... ...."....
29C0: E9 22 06 01 81 01 EA 22  06 01 6B 69 64 6C 30 F0  ."....."..kidl0.
29D0: FF FF 7F 6B 69 64 6C 30  D7 22 06 01 6B 69 64 6C  ...kidl0."..kidl
29E0: 30 E9 22 06 01 6B 69 64  6C 30 EA 22 06 01 27 10  0."..kidl0."..'.
29F0: EA 22 06 01 0D 1C 20 80  AB 11 01 80 1C 20 80 52  .".... ...... .R
2A00: 37 80 F0 FF FF 7F F0 FF  FF 7F 30 30 31 64 45 37  7.........001dE7
2A10: 80 F0 FF FF 7F F0 FF FF  7F 62 6C 6F 66 01 80 1C  .........blof...
2A20: 10 80 02 00 00 01 80 80  30 2A 35 76 80 01 4C 2A  ........0*5v..L*
2A30: 02 00 00 06 80 80 3E 2A  35 BE 80 01 4C 2A 02 00  ......>*5...L*..
2A40: 00 0B 80 80 4C 2A 35 BF  80 01 4C 2A 78 1C 06 80  ....L*5...L*x...
2A50: AB 0A 02 01 00 01 80 00  5E 2A 30 01 87 2A 2C CE  ........^*0..*,.
2A60: 22 06 01 CE 22 06 01 65  66 6F 6E 5C 00 11 80 5C  "..."..efon\...\
2A70: 01 11 80 9A 46 00 45 C0  80 F0 FF FF 7F F0 FF FF  ....F.E.........
2A80: 7F 66 64 69 32 01 80 21  00                       .fdi2..!.       
```

#### Opcodes

```
  0: 0x0001 [0x42] SET_CLI_EVENT_CANCEL_DATA()
  1: 0x0002 [0x1A] CALL_SUBROUTINE(address=0x4655)
  2: 0x0005 [0x03] ExtData[1]->WorkLocal[0] = Work_Zone[2]
  3: 0x000A [0x03] ExtData[1]->WorkLocal[1] = Work_Zone[9]
  4: 0x000F [0x46] CAMERA_CONTROL: Disable user control
  5: 0x0011 [0x29] REQ_SET_WAIT(priority=0x10, entity_id=LocalPlayer, tag_num=0x4D)
  6: 0x0018 [0x03] ExtData[1]->WorkLocal[2] = Work_Zone[2]
  7: 0x001D [0x38] SET_CLIENT_EVENT_MODE(mode=19*)
  8: 0x0020 [0x92] Cavernous Maw (ID: 17179342/0x010622CE)->Render.Flags3 ^= 0x01
  9: 0x0026 [0x94] LocalPlayer->Render.Flags3 ^= 0x01
 10: 0x002C [0x94] Cavernous Maw (ID: 17179342/0x010622CE)->Render.Flags3 ^= 0x01
 11: 0x0032 [0x02] IF !(ExtData[1]->WorkLocal[0] == 0*) GOTO 0x004A
 12: 0x003A [0xBA] SET_ENTITY_POSITION(entity_id=LocalPlayer, pos_x=-52.807*, pos_z=436.830*, pos_y=0.476*, direction=357.2*)
 13: 0x0047 [0x01] GOTO 0x007A
 14: 0x004A [0x02] IF !(ExtData[1]->WorkLocal[0] == 1*) GOTO 0x0062
 15: 0x0052 [0xBA] SET_ENTITY_POSITION(entity_id=LocalPlayer, pos_x=-196.066*, pos_z=360.017*, pos_y=7.995*, direction=134.2*)
 16: 0x005F [0x01] GOTO 0x007A
 17: 0x0062 [0x02] IF !(ExtData[1]->WorkLocal[0] == 2*) GOTO 0x007A
 18: 0x006A [0xBA] SET_ENTITY_POSITION(entity_id=LocalPlayer, pos_x=368.612*, pos_z=-227.501*, pos_y=8.825*, direction=315.7*)
 19: 0x0077 [0x01] GOTO 0x007A

SUBROUTINE_007A:
 20: 0x007A [0x80] LOAD_WAIT(entity=LocalPlayer)
 21: 0x007F [0x80] LOAD_WAIT(entity=Cavernous Maw (ID: 17179342/0x010622CE))
 22: 0x0084 [0x4A] LocalPlayer looks at Cavernous Maw (ID: 17179342/0x010622CE)
 23: 0x008D [0x02] IF !(ExtData[1]->WorkLocal[0] == 1*) GOTO 0x00A7
 24: 0x0095 [0x4A] Cavernous Maw (ID: 17179342/0x010622CE) looks at LocalPlayer
 25: 0x009E [0x6F] WAIT_FRAME_DELAY: Yield until WaitTime reaches zero
 26: 0x009F [0x76] CHECK_ENTITY_RENDER_FLAGS: Wait until Cavernous Maw (ID: 17179342/0x010622CE) Render.Flags0 and Render.Flags3 conditions are met
 27: 0x00A4 [0x1C] WAIT(30* ticks)
 28: 0x00A7 [0x5C] MUSIC_CONTROL: Set Idle (Day) music to song 252*
 29: 0x00AB [0x5C] MUSIC_CONTROL: Set Idle (Night) music to song 252*
 30: 0x00AF [0x9A] WAIT_MUSIC_SERVER()
 31: 0x00B0 [0x1C] WAIT(15* ticks)
 32: 0x00B3 [0x29] REQ_SET_WAIT(priority=0x10, entity_id=LocalPlayer, tag_num=0x0B)
 33: 0x00BA [0x7B] LocalPlayer stops talking
 34: 0x00BF [0x5D] SET_MUSIC_VOLUME(volume=0*, fade_time=300*)
 35: 0x00C4 [0x45] LOAD_SCHEDULED_TASK: Load scheduler "600a" with entities [Cavernous Maw (ID: 17179342/0x010622CE), LocalPlayer], work=[378*, 0*]
 36: 0x00D5 [0x02] IF !(ExtData[1]->WorkLocal[0] == 0*) GOTO 0x0126
 37: 0x00DD [0x45] LOAD_SCHEDULED_TASK: Load scheduler "no23" with entities [LocalPlayer, LocalPlayer], work=[378*, 0*]
 38: 0x00EE [0x1A] CALL_SUBROUTINE(address=0x4634)
 39: 0x00F1 [0x1C] WAIT(120* ticks)
 40: 0x00F4 [0x48] [System] [8122*]:
     "You sense the gaze of the cavernous maw upon you."
 41: 0x00F7 [0x1C] WAIT(60* ticks)
 42: 0x00FA [0x5C] MUSIC_CONTROL: Set Idle (Day) music to song 250*
 43: 0x00FE [0x5C] MUSIC_CONTROL: Set Idle (Night) music to song 250*
 44: 0x0102 [0x9A] WAIT_MUSIC_SERVER()
 45: 0x0103 [0x52] END_LOAD_SCHEDULER: End scheduler "no23" with entities [LocalPlayer, LocalPlayer], work=378*
 46: 0x0112 [0x45] LOAD_SCHEDULED_TASK: Load scheduler "no08" with entities [LocalPlayer, LocalPlayer], work=[378*, 0*]
 47: 0x0123 [0x01] GOTO 0x01C8
 48: 0x0126 [0x02] IF !(ExtData[1]->WorkLocal[0] == 1*) GOTO 0x0177
 49: 0x012E [0x45] LOAD_SCHEDULED_TASK: Load scheduler "ro23" with entities [LocalPlayer, LocalPlayer], work=[378*, 0*]
 50: 0x013F [0x1A] CALL_SUBROUTINE(address=0x4634)
 51: 0x0142 [0x1C] WAIT(120* ticks)
 52: 0x0145 [0x48] [System] [8122*]:
     "You sense the gaze of the cavernous maw upon you."
 53: 0x0148 [0x1C] WAIT(60* ticks)
 54: 0x014B [0x5C] MUSIC_CONTROL: Set Idle (Day) music to song 250*
 55: 0x014F [0x5C] MUSIC_CONTROL: Set Idle (Night) music to song 250*
 56: 0x0153 [0x9A] WAIT_MUSIC_SERVER()
 57: 0x0154 [0x52] END_LOAD_SCHEDULER: End scheduler "ro23" with entities [LocalPlayer, LocalPlayer], work=378*
 58: 0x0163 [0x45] LOAD_SCHEDULED_TASK: Load scheduler "ro08" with entities [LocalPlayer, LocalPlayer], work=[378*, 0*]
 59: 0x0174 [0x01] GOTO 0x01C8
 60: 0x0177 [0x02] IF !(ExtData[1]->WorkLocal[0] == 2*) GOTO 0x01C8
 61: 0x017F [0x45] LOAD_SCHEDULED_TASK: Load scheduler "al23" with entities [LocalPlayer, LocalPlayer], work=[378*, 0*]
 62: 0x0190 [0x1A] CALL_SUBROUTINE(address=0x4634)
 63: 0x0193 [0x1C] WAIT(120* ticks)
 64: 0x0196 [0x48] [System] [8122*]:
     "You sense the gaze of the cavernous maw upon you."
 65: 0x0199 [0x1C] WAIT(60* ticks)
 66: 0x019C [0x5C] MUSIC_CONTROL: Set Idle (Day) music to song 250*
 67: 0x01A0 [0x5C] MUSIC_CONTROL: Set Idle (Night) music to song 250*
 68: 0x01A4 [0x9A] WAIT_MUSIC_SERVER()
 69: 0x01A5 [0x52] END_LOAD_SCHEDULER: End scheduler "al23" with entities [LocalPlayer, LocalPlayer], work=378*
 70: 0x01B4 [0x45] LOAD_SCHEDULED_TASK: Load scheduler "al08" with entities [LocalPlayer, LocalPlayer], work=[378*, 0*]
 71: 0x01C5 [0x01] GOTO 0x01C8

SUBROUTINE_01C8:
 72: 0x01C8 [0x45] LOAD_SCHEDULED_TASK: Load scheduler "k00a" with entities [Cavernous Maw (ID: 17179342/0x010622CE), LocalPlayer], work=[378*, 0*]
 73: 0x01D9 [0x45] LOAD_SCHEDULED_TASK: Load scheduler "6125" with entities [Cavernous Maw (ID: 17179342/0x010622CE), LocalPlayer], work=[378*, 0*]
 74: 0x01EA [0x2C] CREATE_SCHEDULER_TASK: Create scheduler "efkl" with entities [Cavernous Maw (ID: 17179342/0x010622CE), Cavernous Maw (ID: 17179342/0x010622CE)]
 75: 0x01F7 [0xBB] LOAD_EVENT_SCHEDULER_ALT: Load scheduler "st01" with entities [Cavernous Maw (ID: 17179342/0x010622CE), LocalPlayer], work=[152*, 0*]
 76: 0x0208 [0x03] Work_Zone[2] = 600*
 77: 0x020D [0x27] REQ_SET(priority=0x10, entity_id=??? (ID: 17179347/0x010622D3), tag_num=0x01)
 78: 0x0214 [0x1C] WAIT(150* ticks)
 79: 0x0217 [0x9F] LOAD_SCHEDULED_TASK_ALT: Load scheduler "str0" with entities [EventEntity, EventEntity], work=[127*, 0*]
 80: 0x0228 [0x1C] WAIT(30* ticks)
 81: 0x022B [0x2B] Cavernous Maw (ID: 17179342/0x010622CE) [8119*]:
     "GraAaAaaaAAgh!"
 82: 0x0232 [0x1C] WAIT(180* ticks)
 83: 0x0235 [0x02] IF !(ExtData[1]->WorkLocal[0] == 0*) GOTO 0x0260
 84: 0x023D [0x52] END_LOAD_SCHEDULER: End scheduler "no08" with entities [LocalPlayer, LocalPlayer], work=378*
 85: 0x024C [0x45] LOAD_SCHEDULED_TASK: Load scheduler "no17" with entities [LocalPlayer, LocalPlayer], work=[378*, 0*]
 86: 0x025D [0x01] GOTO 0x02B6
 87: 0x0260 [0x02] IF !(ExtData[1]->WorkLocal[0] == 1*) GOTO 0x028B
 88: 0x0268 [0x52] END_LOAD_SCHEDULER: End scheduler "ro08" with entities [LocalPlayer, LocalPlayer], work=378*
 89: 0x0277 [0x45] LOAD_SCHEDULED_TASK: Load scheduler "ro30" with entities [LocalPlayer, LocalPlayer], work=[378*, 0*]
 90: 0x0288 [0x01] GOTO 0x02B6
 91: 0x028B [0x02] IF !(ExtData[1]->WorkLocal[0] == 2*) GOTO 0x02B6
 92: 0x0293 [0x52] END_LOAD_SCHEDULER: End scheduler "al08" with entities [LocalPlayer, LocalPlayer], work=378*
 93: 0x02A2 [0x45] LOAD_SCHEDULED_TASK: Load scheduler "al17" with entities [LocalPlayer, LocalPlayer], work=[378*, 0*]
 94: 0x02B3 [0x01] GOTO 0x02B6

SUBROUTINE_02B6:
 95: 0x02B6 [0x45] LOAD_SCHEDULED_TASK: Load scheduler "104a" with entities [Cavernous Maw (ID: 17179342/0x010622CE), LocalPlayer], work=[378*, 0*]
 96: 0x02C7 [0x45] LOAD_SCHEDULED_TASK: Load scheduler "6006" with entities [Cavernous Maw (ID: 17179342/0x010622CE), LocalPlayer], work=[378*, 0*]
 97: 0x02D8 [0x2A] GET_REQ_LEVEL(level=16, entity_id=??? (ID: 17179347/0x010622D3))
 98: 0x02DE [0x92] LocalPlayer->Render.Flags3 ^= 0x01
 99: 0x02E4 [0x02] IF !(ExtData[1]->WorkLocal[0] == 0*) GOTO 0x030F
100: 0x02EC [0x52] END_LOAD_SCHEDULER: End scheduler "no17" with entities [LocalPlayer, LocalPlayer], work=378*
101: 0x02FB [0x45] LOAD_SCHEDULED_TASK: Load scheduler "no09" with entities [LocalPlayer, LocalPlayer], work=[378*, 0*]
102: 0x030C [0x01] GOTO 0x0365
103: 0x030F [0x02] IF !(ExtData[1]->WorkLocal[0] == 1*) GOTO 0x033A
104: 0x0317 [0x52] END_LOAD_SCHEDULER: End scheduler "ro30" with entities [LocalPlayer, LocalPlayer], work=378*
105: 0x0326 [0x45] LOAD_SCHEDULED_TASK: Load scheduler "ro31" with entities [LocalPlayer, LocalPlayer], work=[378*, 0*]
106: 0x0337 [0x01] GOTO 0x0365
107: 0x033A [0x02] IF !(ExtData[1]->WorkLocal[0] == 2*) GOTO 0x0365
108: 0x0342 [0x52] END_LOAD_SCHEDULER: End scheduler "al17" with entities [LocalPlayer, LocalPlayer], work=378*
109: 0x0351 [0x45] LOAD_SCHEDULED_TASK: Load scheduler "al09" with entities [LocalPlayer, LocalPlayer], work=[378*, 0*]
110: 0x0362 [0x01] GOTO 0x0365

SUBROUTINE_0365:
111: 0x0365 [0x45] LOAD_SCHEDULED_TASK: Load scheduler "k125" with entities [Cavernous Maw (ID: 17179342/0x010622CE), LocalPlayer], work=[378*, 0*]
112: 0x0376 [0xBB] LOAD_EVENT_SCHEDULER_ALT: Load scheduler "st01" with entities [LocalPlayer, Cavernous Maw (ID: 17179342/0x010622CE)], work=[153*, 0*]
113: 0x0387 [0x27] REQ_SET(priority=0x10, entity_id=LocalPlayer, tag_num=0x0C)
114: 0x038E [0x1C] WAIT(120* ticks)
115: 0x0391 [0x02] IF !(ExtData[1]->WorkLocal[0] == 0*) GOTO 0x05A3
116: 0x0399 [0x52] END_LOAD_SCHEDULER: End scheduler "no09" with entities [LocalPlayer, LocalPlayer], work=378*
117: 0x03A8 [0x02] IF !(ExtData[1]->WorkLocal[2] == 1*) GOTO 0x03E7
118: 0x03B0 [0x45] LOAD_SCHEDULED_TASK: Load scheduler "nhm2" with entities [LocalPlayer, LocalPlayer], work=[378*, 0*]
119: 0x03C1 [0x1C] WAIT(90* ticks)
120: 0x03C4 [0x52] END_LOAD_SCHEDULER: End scheduler "nhm2" with entities [LocalPlayer, LocalPlayer], work=378*
121: 0x03D3 [0x45] LOAD_SCHEDULED_TASK: Load scheduler "nhm0" with entities [LocalPlayer, LocalPlayer], work=[378*, 0*]
122: 0x03E4 [0x01] GOTO 0x05A0
123: 0x03E7 [0x02] IF !(ExtData[1]->WorkLocal[2] == 2*) GOTO 0x0426
124: 0x03EF [0x45] LOAD_SCHEDULED_TASK: Load scheduler "nhf2" with entities [LocalPlayer, LocalPlayer], work=[378*, 0*]
125: 0x0400 [0x1C] WAIT(90* ticks)
126: 0x0403 [0x52] END_LOAD_SCHEDULER: End scheduler "nhf2" with entities [LocalPlayer, LocalPlayer], work=378*
127: 0x0412 [0x45] LOAD_SCHEDULED_TASK: Load scheduler "nhf0" with entities [LocalPlayer, LocalPlayer], work=[378*, 0*]
128: 0x0423 [0x01] GOTO 0x05A0
129: 0x0426 [0x02] IF !(ExtData[1]->WorkLocal[2] == 3*) GOTO 0x0465
130: 0x042E [0x45] LOAD_SCHEDULED_TASK: Load scheduler "nem2" with entities [LocalPlayer, LocalPlayer], work=[378*, 0*]
131: 0x043F [0x1C] WAIT(90* ticks)
132: 0x0442 [0x52] END_LOAD_SCHEDULER: End scheduler "nem2" with entities [LocalPlayer, LocalPlayer], work=378*
133: 0x0451 [0x45] LOAD_SCHEDULED_TASK: Load scheduler "nem0" with entities [LocalPlayer, LocalPlayer], work=[378*, 0*]
134: 0x0462 [0x01] GOTO 0x05A0
135: 0x0465 [0x02] IF !(ExtData[1]->WorkLocal[2] == 4*) GOTO 0x04A4
136: 0x046D [0x45] LOAD_SCHEDULED_TASK: Load scheduler "nef2" with entities [LocalPlayer, LocalPlayer], work=[378*, 0*]
137: 0x047E [0x1C] WAIT(90* ticks)
138: 0x0481 [0x52] END_LOAD_SCHEDULER: End scheduler "nef2" with entities [LocalPlayer, LocalPlayer], work=378*
139: 0x0490 [0x45] LOAD_SCHEDULED_TASK: Load scheduler "nef0" with entities [LocalPlayer, LocalPlayer], work=[378*, 0*]
140: 0x04A1 [0x01] GOTO 0x05A0
141: 0x04A4 [0x02] IF !(ExtData[1]->WorkLocal[2] == 5*) GOTO 0x04E3
142: 0x04AC [0x45] LOAD_SCHEDULED_TASK: Load scheduler "ntr2" with entities [LocalPlayer, LocalPlayer], work=[378*, 0*]
143: 0x04BD [0x1C] WAIT(90* ticks)
144: 0x04C0 [0x52] END_LOAD_SCHEDULER: End scheduler "ntr2" with entities [LocalPlayer, LocalPlayer], work=378*
145: 0x04CF [0x45] LOAD_SCHEDULED_TASK: Load scheduler "ntr0" with entities [LocalPlayer, LocalPlayer], work=[378*, 0*]
146: 0x04E0 [0x01] GOTO 0x05A0
147: 0x04E3 [0x02] IF !(ExtData[1]->WorkLocal[2] == 6*) GOTO 0x0522
148: 0x04EB [0x45] LOAD_SCHEDULED_TASK: Load scheduler "ntr2" with entities [LocalPlayer, LocalPlayer], work=[378*, 0*]
149: 0x04FC [0x1C] WAIT(90* ticks)
150: 0x04FF [0x52] END_LOAD_SCHEDULER: End scheduler "ntr2" with entities [LocalPlayer, LocalPlayer], work=378*
151: 0x050E [0x45] LOAD_SCHEDULED_TASK: Load scheduler "ntr0" with entities [LocalPlayer, LocalPlayer], work=[378*, 0*]
152: 0x051F [0x01] GOTO 0x05A0
153: 0x0522 [0x02] IF !(ExtData[1]->WorkLocal[2] == 7*) GOTO 0x0561
154: 0x052A [0x45] LOAD_SCHEDULED_TASK: Load scheduler "nmt2" with entities [LocalPlayer, LocalPlayer], work=[378*, 0*]
155: 0x053B [0x1C] WAIT(90* ticks)
156: 0x053E [0x52] END_LOAD_SCHEDULER: End scheduler "nmt2" with entities [LocalPlayer, LocalPlayer], work=378*
157: 0x054D [0x45] LOAD_SCHEDULED_TASK: Load scheduler "nmt0" with entities [LocalPlayer, LocalPlayer], work=[378*, 0*]
158: 0x055E [0x01] GOTO 0x05A0
159: 0x0561 [0x02] IF !(ExtData[1]->WorkLocal[2] == 8*) GOTO 0x05A0
160: 0x0569 [0x45] LOAD_SCHEDULED_TASK: Load scheduler "ngl2" with entities [LocalPlayer, LocalPlayer], work=[378*, 0*]
161: 0x057A [0x1C] WAIT(90* ticks)
162: 0x057D [0x52] END_LOAD_SCHEDULER: End scheduler "ngl2" with entities [LocalPlayer, LocalPlayer], work=378*
163: 0x058C [0x45] LOAD_SCHEDULED_TASK: Load scheduler "ngl0" with entities [LocalPlayer, LocalPlayer], work=[378*, 0*]
164: 0x059D [0x01] GOTO 0x05A0

SUBROUTINE_05A0:
165: 0x05A0 [0x01] GOTO 0x09C7
166: 0x05A3 [0x02] IF !(ExtData[1]->WorkLocal[0] == 1*) GOTO 0x07B5
167: 0x05AB [0x52] END_LOAD_SCHEDULER: End scheduler "ro31" with entities [LocalPlayer, LocalPlayer], work=378*
168: 0x05BA [0x02] IF !(ExtData[1]->WorkLocal[2] == 1*) GOTO 0x05F9
169: 0x05C2 [0x45] LOAD_SCHEDULED_TASK: Load scheduler "rhm5" with entities [LocalPlayer, LocalPlayer], work=[378*, 0*]
170: 0x05D3 [0x1C] WAIT(90* ticks)
171: 0x05D6 [0x52] END_LOAD_SCHEDULER: End scheduler "rhm5" with entities [LocalPlayer, LocalPlayer], work=378*
172: 0x05E5 [0x45] LOAD_SCHEDULED_TASK: Load scheduler "rhm6" with entities [LocalPlayer, LocalPlayer], work=[378*, 0*]
173: 0x05F6 [0x01] GOTO 0x07B2
174: 0x05F9 [0x02] IF !(ExtData[1]->WorkLocal[2] == 2*) GOTO 0x0638
175: 0x0601 [0x45] LOAD_SCHEDULED_TASK: Load scheduler "rhf5" with entities [LocalPlayer, LocalPlayer], work=[378*, 0*]
176: 0x0612 [0x1C] WAIT(90* ticks)
177: 0x0615 [0x52] END_LOAD_SCHEDULER: End scheduler "rhf5" with entities [LocalPlayer, LocalPlayer], work=378*
178: 0x0624 [0x45] LOAD_SCHEDULED_TASK: Load scheduler "rhf6" with entities [LocalPlayer, LocalPlayer], work=[378*, 0*]
179: 0x0635 [0x01] GOTO 0x07B2
180: 0x0638 [0x02] IF !(ExtData[1]->WorkLocal[2] == 3*) GOTO 0x0677
181: 0x0640 [0x45] LOAD_SCHEDULED_TASK: Load scheduler "rem5" with entities [LocalPlayer, LocalPlayer], work=[378*, 0*]
182: 0x0651 [0x1C] WAIT(90* ticks)
183: 0x0654 [0x52] END_LOAD_SCHEDULER: End scheduler "rem5" with entities [LocalPlayer, LocalPlayer], work=378*
184: 0x0663 [0x45] LOAD_SCHEDULED_TASK: Load scheduler "rem6" with entities [LocalPlayer, LocalPlayer], work=[378*, 0*]
185: 0x0674 [0x01] GOTO 0x07B2
186: 0x0677 [0x02] IF !(ExtData[1]->WorkLocal[2] == 4*) GOTO 0x06B6
187: 0x067F [0x45] LOAD_SCHEDULED_TASK: Load scheduler "ref5" with entities [LocalPlayer, LocalPlayer], work=[378*, 0*]
188: 0x0690 [0x1C] WAIT(90* ticks)
189: 0x0693 [0x52] END_LOAD_SCHEDULER: End scheduler "ref5" with entities [LocalPlayer, LocalPlayer], work=378*
190: 0x06A2 [0x45] LOAD_SCHEDULED_TASK: Load scheduler "ref6" with entities [LocalPlayer, LocalPlayer], work=[378*, 0*]
191: 0x06B3 [0x01] GOTO 0x07B2
192: 0x06B6 [0x02] IF !(ExtData[1]->WorkLocal[2] == 5*) GOTO 0x06F5
193: 0x06BE [0x45] LOAD_SCHEDULED_TASK: Load scheduler "rtr5" with entities [LocalPlayer, LocalPlayer], work=[378*, 0*]
194: 0x06CF [0x1C] WAIT(90* ticks)
195: 0x06D2 [0x52] END_LOAD_SCHEDULER: End scheduler "rtr5" with entities [LocalPlayer, LocalPlayer], work=378*
196: 0x06E1 [0x45] LOAD_SCHEDULED_TASK: Load scheduler "rtr6" with entities [LocalPlayer, LocalPlayer], work=[378*, 0*]
197: 0x06F2 [0x01] GOTO 0x07B2
198: 0x06F5 [0x02] IF !(ExtData[1]->WorkLocal[2] == 6*) GOTO 0x0734
199: 0x06FD [0x45] LOAD_SCHEDULED_TASK: Load scheduler "rtr5" with entities [LocalPlayer, LocalPlayer], work=[378*, 0*]
200: 0x070E [0x1C] WAIT(90* ticks)
201: 0x0711 [0x52] END_LOAD_SCHEDULER: End scheduler "rtr5" with entities [LocalPlayer, LocalPlayer], work=378*
202: 0x0720 [0x45] LOAD_SCHEDULED_TASK: Load scheduler "rtr6" with entities [LocalPlayer, LocalPlayer], work=[378*, 0*]
203: 0x0731 [0x01] GOTO 0x07B2
204: 0x0734 [0x02] IF !(ExtData[1]->WorkLocal[2] == 7*) GOTO 0x0773
205: 0x073C [0x45] LOAD_SCHEDULED_TASK: Load scheduler "rmt5" with entities [LocalPlayer, LocalPlayer], work=[378*, 0*]
206: 0x074D [0x1C] WAIT(90* ticks)
207: 0x0750 [0x52] END_LOAD_SCHEDULER: End scheduler "rmt5" with entities [LocalPlayer, LocalPlayer], work=378*
208: 0x075F [0x45] LOAD_SCHEDULED_TASK: Load scheduler "rmt6" with entities [LocalPlayer, LocalPlayer], work=[378*, 0*]
209: 0x0770 [0x01] GOTO 0x07B2
210: 0x0773 [0x02] IF !(ExtData[1]->WorkLocal[2] == 8*) GOTO 0x07B2
211: 0x077B [0x45] LOAD_SCHEDULED_TASK: Load scheduler "rgl5" with entities [LocalPlayer, LocalPlayer], work=[378*, 0*]
212: 0x078C [0x1C] WAIT(90* ticks)
213: 0x078F [0x52] END_LOAD_SCHEDULER: End scheduler "rgl5" with entities [LocalPlayer, LocalPlayer], work=378*
214: 0x079E [0x45] LOAD_SCHEDULED_TASK: Load scheduler "rgl6" with entities [LocalPlayer, LocalPlayer], work=[378*, 0*]
215: 0x07AF [0x01] GOTO 0x07B2

SUBROUTINE_07B2:
216: 0x07B2 [0x01] GOTO 0x09C7
217: 0x07B5 [0x02] IF !(ExtData[1]->WorkLocal[0] == 2*) GOTO 0x09C7
218: 0x07BD [0x52] END_LOAD_SCHEDULER: End scheduler "al09" with entities [LocalPlayer, LocalPlayer], work=378*
219: 0x07CC [0x02] IF !(ExtData[1]->WorkLocal[2] == 1*) GOTO 0x080B
220: 0x07D4 [0x45] LOAD_SCHEDULED_TASK: Load scheduler "ahm2" with entities [LocalPlayer, LocalPlayer], work=[378*, 0*]
221: 0x07E5 [0x1C] WAIT(90* ticks)
222: 0x07E8 [0x52] END_LOAD_SCHEDULER: End scheduler "ahm2" with entities [LocalPlayer, LocalPlayer], work=378*
223: 0x07F7 [0x45] LOAD_SCHEDULED_TASK: Load scheduler "ahm0" with entities [LocalPlayer, LocalPlayer], work=[378*, 0*]
224: 0x0808 [0x01] GOTO 0x09C4
225: 0x080B [0x02] IF !(ExtData[1]->WorkLocal[2] == 2*) GOTO 0x084A
226: 0x0813 [0x45] LOAD_SCHEDULED_TASK: Load scheduler "ahf2" with entities [LocalPlayer, LocalPlayer], work=[378*, 0*]
227: 0x0824 [0x1C] WAIT(90* ticks)
228: 0x0827 [0x52] END_LOAD_SCHEDULER: End scheduler "ahf2" with entities [LocalPlayer, LocalPlayer], work=378*
229: 0x0836 [0x45] LOAD_SCHEDULED_TASK: Load scheduler "ahf0" with entities [LocalPlayer, LocalPlayer], work=[378*, 0*]
230: 0x0847 [0x01] GOTO 0x09C4
231: 0x084A [0x02] IF !(ExtData[1]->WorkLocal[2] == 3*) GOTO 0x0889
232: 0x0852 [0x45] LOAD_SCHEDULED_TASK: Load scheduler "aem2" with entities [LocalPlayer, LocalPlayer], work=[378*, 0*]
233: 0x0863 [0x1C] WAIT(90* ticks)
234: 0x0866 [0x52] END_LOAD_SCHEDULER: End scheduler "aem2" with entities [LocalPlayer, LocalPlayer], work=378*
235: 0x0875 [0x45] LOAD_SCHEDULED_TASK: Load scheduler "aem0" with entities [LocalPlayer, LocalPlayer], work=[378*, 0*]
236: 0x0886 [0x01] GOTO 0x09C4
237: 0x0889 [0x02] IF !(ExtData[1]->WorkLocal[2] == 4*) GOTO 0x08C8
238: 0x0891 [0x45] LOAD_SCHEDULED_TASK: Load scheduler "aef2" with entities [LocalPlayer, LocalPlayer], work=[378*, 0*]
239: 0x08A2 [0x1C] WAIT(90* ticks)
240: 0x08A5 [0x52] END_LOAD_SCHEDULER: End scheduler "aef2" with entities [LocalPlayer, LocalPlayer], work=378*
241: 0x08B4 [0x45] LOAD_SCHEDULED_TASK: Load scheduler "aef0" with entities [LocalPlayer, LocalPlayer], work=[378*, 0*]
242: 0x08C5 [0x01] GOTO 0x09C4
243: 0x08C8 [0x02] IF !(ExtData[1]->WorkLocal[2] == 5*) GOTO 0x0907
244: 0x08D0 [0x45] LOAD_SCHEDULED_TASK: Load scheduler "atr2" with entities [LocalPlayer, LocalPlayer], work=[378*, 0*]
245: 0x08E1 [0x1C] WAIT(90* ticks)
246: 0x08E4 [0x52] END_LOAD_SCHEDULER: End scheduler "atr2" with entities [LocalPlayer, LocalPlayer], work=378*
247: 0x08F3 [0x45] LOAD_SCHEDULED_TASK: Load scheduler "atr0" with entities [LocalPlayer, LocalPlayer], work=[378*, 0*]
248: 0x0904 [0x01] GOTO 0x09C4
249: 0x0907 [0x02] IF !(ExtData[1]->WorkLocal[2] == 6*) GOTO 0x0946
250: 0x090F [0x45] LOAD_SCHEDULED_TASK: Load scheduler "atr2" with entities [LocalPlayer, LocalPlayer], work=[378*, 0*]
251: 0x0920 [0x1C] WAIT(90* ticks)
252: 0x0923 [0x52] END_LOAD_SCHEDULER: End scheduler "atr2" with entities [LocalPlayer, LocalPlayer], work=378*
253: 0x0932 [0x45] LOAD_SCHEDULED_TASK: Load scheduler "atr0" with entities [LocalPlayer, LocalPlayer], work=[378*, 0*]
254: 0x0943 [0x01] GOTO 0x09C4
255: 0x0946 [0x02] IF !(ExtData[1]->WorkLocal[2] == 7*) GOTO 0x0985
256: 0x094E [0x45] LOAD_SCHEDULED_TASK: Load scheduler "amt2" with entities [LocalPlayer, LocalPlayer], work=[378*, 0*]
257: 0x095F [0x1C] WAIT(90* ticks)
258: 0x0962 [0x52] END_LOAD_SCHEDULER: End scheduler "amt2" with entities [LocalPlayer, LocalPlayer], work=378*
259: 0x0971 [0x45] LOAD_SCHEDULED_TASK: Load scheduler "amt0" with entities [LocalPlayer, LocalPlayer], work=[378*, 0*]
260: 0x0982 [0x01] GOTO 0x09C4
261: 0x0985 [0x02] IF !(ExtData[1]->WorkLocal[2] == 8*) GOTO 0x09C4
262: 0x098D [0x45] LOAD_SCHEDULED_TASK: Load scheduler "agl2" with entities [LocalPlayer, LocalPlayer], work=[378*, 0*]
263: 0x099E [0x1C] WAIT(90* ticks)
264: 0x09A1 [0x52] END_LOAD_SCHEDULER: End scheduler "agl2" with entities [LocalPlayer, LocalPlayer], work=378*
265: 0x09B0 [0x45] LOAD_SCHEDULED_TASK: Load scheduler "agl0" with entities [LocalPlayer, LocalPlayer], work=[378*, 0*]
266: 0x09C1 [0x01] GOTO 0x09C4

SUBROUTINE_09C4:
267: 0x09C4 [0x01] GOTO 0x09C7

SUBROUTINE_09C7:
268: 0x09C7 [0x45] LOAD_SCHEDULED_TASK: Load scheduler "6102" with entities [LocalPlayer, LocalPlayer], work=[378*, 0*]
269: 0x09D8 [0x2A] GET_REQ_LEVEL(level=16, entity_id=LocalPlayer)
270: 0x09DE [0x1C] WAIT(60* ticks)
271: 0x09E1 [0x02] IF !(ExtData[1]->WorkLocal[0] == 0*) GOTO 0x0ACD
272: 0x09E9 [0x02] IF !(ExtData[1]->WorkLocal[2] == 1*) GOTO 0x0A03
273: 0x09F1 [0x52] END_LOAD_SCHEDULER: End scheduler "rhm0" with entities [LocalPlayer, LocalPlayer], work=378*
274: 0x0A00 [0x01] GOTO 0x0AB9
275: 0x0A03 [0x02] IF !(ExtData[1]->WorkLocal[2] == 2*) GOTO 0x0A1D
276: 0x0A0B [0x52] END_LOAD_SCHEDULER: End scheduler "rhf0" with entities [LocalPlayer, LocalPlayer], work=378*
277: 0x0A1A [0x01] GOTO 0x0AB9
278: 0x0A1D [0x02] IF !(ExtData[1]->WorkLocal[2] == 3*) GOTO 0x0A37
279: 0x0A25 [0x52] END_LOAD_SCHEDULER: End scheduler "rem0" with entities [LocalPlayer, LocalPlayer], work=378*
280: 0x0A34 [0x01] GOTO 0x0AB9
281: 0x0A37 [0x02] IF !(ExtData[1]->WorkLocal[2] == 4*) GOTO 0x0A51
282: 0x0A3F [0x52] END_LOAD_SCHEDULER: End scheduler "ref0" with entities [LocalPlayer, LocalPlayer], work=378*
283: 0x0A4E [0x01] GOTO 0x0AB9
284: 0x0A51 [0x02] IF !(ExtData[1]->WorkLocal[2] == 5*) GOTO 0x0A6B
285: 0x0A59 [0x52] END_LOAD_SCHEDULER: End scheduler "rtr0" with entities [LocalPlayer, LocalPlayer], work=378*
286: 0x0A68 [0x01] GOTO 0x0AB9
287: 0x0A6B [0x02] IF !(ExtData[1]->WorkLocal[2] == 6*) GOTO 0x0A85
288: 0x0A73 [0x52] END_LOAD_SCHEDULER: End scheduler "rtr0" with entities [LocalPlayer, LocalPlayer], work=378*
289: 0x0A82 [0x01] GOTO 0x0AB9
290: 0x0A85 [0x02] IF !(ExtData[1]->WorkLocal[2] == 7*) GOTO 0x0A9F
291: 0x0A8D [0x52] END_LOAD_SCHEDULER: End scheduler "rmt0" with entities [LocalPlayer, LocalPlayer], work=378*
292: 0x0A9C [0x01] GOTO 0x0AB9
293: 0x0A9F [0x02] IF !(ExtData[1]->WorkLocal[2] == 8*) GOTO 0x0AB9
294: 0x0AA7 [0x52] END_LOAD_SCHEDULER: End scheduler "rgl0" with entities [LocalPlayer, LocalPlayer], work=378*
295: 0x0AB6 [0x01] GOTO 0x0AB9

SUBROUTINE_0AB9:
296: 0x0AB9 [0x45] LOAD_SCHEDULED_TASK: Load scheduler "no10" with entities [LocalPlayer, LocalPlayer], work=[378*, 0*]
297: 0x0ACA [0x01] GOTO 0x0CA5
298: 0x0ACD [0x02] IF !(ExtData[1]->WorkLocal[0] == 1*) GOTO 0x0BB9
299: 0x0AD5 [0x02] IF !(ExtData[1]->WorkLocal[2] == 1*) GOTO 0x0AEF
300: 0x0ADD [0x52] END_LOAD_SCHEDULER: End scheduler "rhm6" with entities [LocalPlayer, LocalPlayer], work=378*
301: 0x0AEC [0x01] GOTO 0x0BA5
302: 0x0AEF [0x02] IF !(ExtData[1]->WorkLocal[2] == 2*) GOTO 0x0B09
303: 0x0AF7 [0x52] END_LOAD_SCHEDULER: End scheduler "rhf6" with entities [LocalPlayer, LocalPlayer], work=378*
304: 0x0B06 [0x01] GOTO 0x0BA5
305: 0x0B09 [0x02] IF !(ExtData[1]->WorkLocal[2] == 3*) GOTO 0x0B23
306: 0x0B11 [0x52] END_LOAD_SCHEDULER: End scheduler "rem6" with entities [LocalPlayer, LocalPlayer], work=378*
307: 0x0B20 [0x01] GOTO 0x0BA5
308: 0x0B23 [0x02] IF !(ExtData[1]->WorkLocal[2] == 4*) GOTO 0x0B3D
309: 0x0B2B [0x52] END_LOAD_SCHEDULER: End scheduler "ref6" with entities [LocalPlayer, LocalPlayer], work=378*
310: 0x0B3A [0x01] GOTO 0x0BA5
311: 0x0B3D [0x02] IF !(ExtData[1]->WorkLocal[2] == 5*) GOTO 0x0B57
312: 0x0B45 [0x52] END_LOAD_SCHEDULER: End scheduler "rtr6" with entities [LocalPlayer, LocalPlayer], work=378*
313: 0x0B54 [0x01] GOTO 0x0BA5
314: 0x0B57 [0x02] IF !(ExtData[1]->WorkLocal[2] == 6*) GOTO 0x0B71
315: 0x0B5F [0x52] END_LOAD_SCHEDULER: End scheduler "rtr6" with entities [LocalPlayer, LocalPlayer], work=378*
316: 0x0B6E [0x01] GOTO 0x0BA5
317: 0x0B71 [0x02] IF !(ExtData[1]->WorkLocal[2] == 7*) GOTO 0x0B8B
318: 0x0B79 [0x52] END_LOAD_SCHEDULER: End scheduler "rmt6" with entities [LocalPlayer, LocalPlayer], work=378*
319: 0x0B88 [0x01] GOTO 0x0BA5
320: 0x0B8B [0x02] IF !(ExtData[1]->WorkLocal[2] == 8*) GOTO 0x0BA5
321: 0x0B93 [0x52] END_LOAD_SCHEDULER: End scheduler "rgl6" with entities [LocalPlayer, LocalPlayer], work=378*
322: 0x0BA2 [0x01] GOTO 0x0BA5

SUBROUTINE_0BA5:
323: 0x0BA5 [0x45] LOAD_SCHEDULED_TASK: Load scheduler "ro32" with entities [LocalPlayer, LocalPlayer], work=[378*, 0*]
324: 0x0BB6 [0x01] GOTO 0x0CA5
325: 0x0BB9 [0x02] IF !(ExtData[1]->WorkLocal[0] == 2*) GOTO 0x0CA5
326: 0x0BC1 [0x02] IF !(ExtData[1]->WorkLocal[2] == 1*) GOTO 0x0BDB
327: 0x0BC9 [0x52] END_LOAD_SCHEDULER: End scheduler "ahm0" with entities [LocalPlayer, LocalPlayer], work=378*
328: 0x0BD8 [0x01] GOTO 0x0C91
329: 0x0BDB [0x02] IF !(ExtData[1]->WorkLocal[2] == 2*) GOTO 0x0BF5
330: 0x0BE3 [0x52] END_LOAD_SCHEDULER: End scheduler "ahf0" with entities [LocalPlayer, LocalPlayer], work=378*
331: 0x0BF2 [0x01] GOTO 0x0C91
332: 0x0BF5 [0x02] IF !(ExtData[1]->WorkLocal[2] == 3*) GOTO 0x0C0F
333: 0x0BFD [0x52] END_LOAD_SCHEDULER: End scheduler "aem0" with entities [LocalPlayer, LocalPlayer], work=378*
334: 0x0C0C [0x01] GOTO 0x0C91
335: 0x0C0F [0x02] IF !(ExtData[1]->WorkLocal[2] == 4*) GOTO 0x0C29
336: 0x0C17 [0x52] END_LOAD_SCHEDULER: End scheduler "aef0" with entities [LocalPlayer, LocalPlayer], work=378*
337: 0x0C26 [0x01] GOTO 0x0C91
338: 0x0C29 [0x02] IF !(ExtData[1]->WorkLocal[2] == 5*) GOTO 0x0C43
339: 0x0C31 [0x52] END_LOAD_SCHEDULER: End scheduler "atr0" with entities [LocalPlayer, LocalPlayer], work=378*
340: 0x0C40 [0x01] GOTO 0x0C91
341: 0x0C43 [0x02] IF !(ExtData[1]->WorkLocal[2] == 6*) GOTO 0x0C5D
342: 0x0C4B [0x52] END_LOAD_SCHEDULER: End scheduler "atr0" with entities [LocalPlayer, LocalPlayer], work=378*
343: 0x0C5A [0x01] GOTO 0x0C91
344: 0x0C5D [0x02] IF !(ExtData[1]->WorkLocal[2] == 7*) GOTO 0x0C77
345: 0x0C65 [0x52] END_LOAD_SCHEDULER: End scheduler "amt0" with entities [LocalPlayer, LocalPlayer], work=378*
346: 0x0C74 [0x01] GOTO 0x0C91
347: 0x0C77 [0x02] IF !(ExtData[1]->WorkLocal[2] == 8*) GOTO 0x0C91
348: 0x0C7F [0x52] END_LOAD_SCHEDULER: End scheduler "agl0" with entities [LocalPlayer, LocalPlayer], work=378*
349: 0x0C8E [0x01] GOTO 0x0C91

SUBROUTINE_0C91:
350: 0x0C91 [0x45] LOAD_SCHEDULED_TASK: Load scheduler "al10" with entities [LocalPlayer, LocalPlayer], work=[378*, 0*]
351: 0x0CA2 [0x01] GOTO 0x0CA5

SUBROUTINE_0CA5:
352: 0x0CA5 [0x1C] WAIT(120* ticks)
353: 0x0CA8 [0xBB] LOAD_EVENT_SCHEDULER_ALT: Load scheduler "st02" with entities [LocalPlayer, Cavernous Maw (ID: 17179342/0x010622CE)], work=[153*, 0*]
354: 0x0CB9 [0xBB] LOAD_EVENT_SCHEDULER_ALT: Load scheduler "st02" with entities [Cavernous Maw (ID: 17179342/0x010622CE), LocalPlayer], work=[152*, 0*]
355: 0x0CCA [0x45] LOAD_SCHEDULED_TASK: Load scheduler "6135" with entities [LocalPlayer, LocalPlayer], work=[378*, 0*]
356: 0x0CDB [0x02] IF !(ExtData[1]->WorkLocal[0] == 0*) GOTO 0x0E3E
357: 0x0CE3 [0x02] IF !(ExtData[1]->WorkLocal[2] == 1*) GOTO 0x0D0E
358: 0x0CEB [0x52] END_LOAD_SCHEDULER: End scheduler "no10" with entities [LocalPlayer, LocalPlayer], work=378*
359: 0x0CFA [0x45] LOAD_SCHEDULED_TASK: Load scheduler "nhm3" with entities [LocalPlayer, LocalPlayer], work=[378*, 0*]
360: 0x0D0B [0x01] GOTO 0x0E3B
361: 0x0D0E [0x02] IF !(ExtData[1]->WorkLocal[2] == 2*) GOTO 0x0D39
362: 0x0D16 [0x52] END_LOAD_SCHEDULER: End scheduler "no10" with entities [LocalPlayer, LocalPlayer], work=378*
363: 0x0D25 [0x45] LOAD_SCHEDULED_TASK: Load scheduler "nhf3" with entities [LocalPlayer, LocalPlayer], work=[378*, 0*]
364: 0x0D36 [0x01] GOTO 0x0E3B
365: 0x0D39 [0x02] IF !(ExtData[1]->WorkLocal[2] == 3*) GOTO 0x0D64
366: 0x0D41 [0x52] END_LOAD_SCHEDULER: End scheduler "no10" with entities [LocalPlayer, LocalPlayer], work=378*
367: 0x0D50 [0x45] LOAD_SCHEDULED_TASK: Load scheduler "nem3" with entities [LocalPlayer, LocalPlayer], work=[378*, 0*]
368: 0x0D61 [0x01] GOTO 0x0E3B
369: 0x0D64 [0x02] IF !(ExtData[1]->WorkLocal[2] == 4*) GOTO 0x0D8F
370: 0x0D6C [0x52] END_LOAD_SCHEDULER: End scheduler "no10" with entities [LocalPlayer, LocalPlayer], work=378*
371: 0x0D7B [0x45] LOAD_SCHEDULED_TASK: Load scheduler "nef3" with entities [LocalPlayer, LocalPlayer], work=[378*, 0*]
372: 0x0D8C [0x01] GOTO 0x0E3B
373: 0x0D8F [0x02] IF !(ExtData[1]->WorkLocal[2] == 5*) GOTO 0x0DBA
374: 0x0D97 [0x52] END_LOAD_SCHEDULER: End scheduler "no10" with entities [LocalPlayer, LocalPlayer], work=378*
375: 0x0DA6 [0x45] LOAD_SCHEDULED_TASK: Load scheduler "ntr3" with entities [LocalPlayer, LocalPlayer], work=[378*, 0*]
376: 0x0DB7 [0x01] GOTO 0x0E3B
377: 0x0DBA [0x02] IF !(ExtData[1]->WorkLocal[2] == 6*) GOTO 0x0DE5
378: 0x0DC2 [0x52] END_LOAD_SCHEDULER: End scheduler "no10" with entities [LocalPlayer, LocalPlayer], work=378*
379: 0x0DD1 [0x45] LOAD_SCHEDULED_TASK: Load scheduler "ntr3" with entities [LocalPlayer, LocalPlayer], work=[378*, 0*]
380: 0x0DE2 [0x01] GOTO 0x0E3B
381: 0x0DE5 [0x02] IF !(ExtData[1]->WorkLocal[2] == 7*) GOTO 0x0E10
382: 0x0DED [0x52] END_LOAD_SCHEDULER: End scheduler "no10" with entities [LocalPlayer, LocalPlayer], work=378*
383: 0x0DFC [0x45] LOAD_SCHEDULED_TASK: Load scheduler "nmt3" with entities [LocalPlayer, LocalPlayer], work=[378*, 0*]
384: 0x0E0D [0x01] GOTO 0x0E3B
385: 0x0E10 [0x02] IF !(ExtData[1]->WorkLocal[2] == 8*) GOTO 0x0E3B
386: 0x0E18 [0x52] END_LOAD_SCHEDULER: End scheduler "no10" with entities [LocalPlayer, LocalPlayer], work=378*
387: 0x0E27 [0x45] LOAD_SCHEDULED_TASK: Load scheduler "ngl3" with entities [LocalPlayer, LocalPlayer], work=[378*, 0*]
388: 0x0E38 [0x01] GOTO 0x0E3B

SUBROUTINE_0E3B:
389: 0x0E3B [0x01] GOTO 0x1104
390: 0x0E3E [0x02] IF !(ExtData[1]->WorkLocal[0] == 1*) GOTO 0x0FA1
391: 0x0E46 [0x02] IF !(ExtData[1]->WorkLocal[2] == 1*) GOTO 0x0E71
392: 0x0E4E [0x52] END_LOAD_SCHEDULER: End scheduler "ro32" with entities [LocalPlayer, LocalPlayer], work=378*
393: 0x0E5D [0x45] LOAD_SCHEDULED_TASK: Load scheduler "rhm7" with entities [LocalPlayer, LocalPlayer], work=[378*, 0*]
394: 0x0E6E [0x01] GOTO 0x0F9E
395: 0x0E71 [0x02] IF !(ExtData[1]->WorkLocal[2] == 2*) GOTO 0x0E9C
396: 0x0E79 [0x52] END_LOAD_SCHEDULER: End scheduler "ro32" with entities [LocalPlayer, LocalPlayer], work=378*
397: 0x0E88 [0x45] LOAD_SCHEDULED_TASK: Load scheduler "rhf7" with entities [LocalPlayer, LocalPlayer], work=[378*, 0*]
398: 0x0E99 [0x01] GOTO 0x0F9E
399: 0x0E9C [0x02] IF !(ExtData[1]->WorkLocal[2] == 3*) GOTO 0x0EC7
400: 0x0EA4 [0x52] END_LOAD_SCHEDULER: End scheduler "ro32" with entities [LocalPlayer, LocalPlayer], work=378*
401: 0x0EB3 [0x45] LOAD_SCHEDULED_TASK: Load scheduler "rem7" with entities [LocalPlayer, LocalPlayer], work=[378*, 0*]
402: 0x0EC4 [0x01] GOTO 0x0F9E
403: 0x0EC7 [0x02] IF !(ExtData[1]->WorkLocal[2] == 4*) GOTO 0x0EF2
404: 0x0ECF [0x52] END_LOAD_SCHEDULER: End scheduler "ro32" with entities [LocalPlayer, LocalPlayer], work=378*
405: 0x0EDE [0x45] LOAD_SCHEDULED_TASK: Load scheduler "ref7" with entities [LocalPlayer, LocalPlayer], work=[378*, 0*]
406: 0x0EEF [0x01] GOTO 0x0F9E
407: 0x0EF2 [0x02] IF !(ExtData[1]->WorkLocal[2] == 5*) GOTO 0x0F1D
408: 0x0EFA [0x52] END_LOAD_SCHEDULER: End scheduler "ro32" with entities [LocalPlayer, LocalPlayer], work=378*
409: 0x0F09 [0x45] LOAD_SCHEDULED_TASK: Load scheduler "rtr7" with entities [LocalPlayer, LocalPlayer], work=[378*, 0*]
410: 0x0F1A [0x01] GOTO 0x0F9E
411: 0x0F1D [0x02] IF !(ExtData[1]->WorkLocal[2] == 6*) GOTO 0x0F48
412: 0x0F25 [0x52] END_LOAD_SCHEDULER: End scheduler "ro32" with entities [LocalPlayer, LocalPlayer], work=378*
413: 0x0F34 [0x45] LOAD_SCHEDULED_TASK: Load scheduler "rtr7" with entities [LocalPlayer, LocalPlayer], work=[378*, 0*]
414: 0x0F45 [0x01] GOTO 0x0F9E
415: 0x0F48 [0x02] IF !(ExtData[1]->WorkLocal[2] == 7*) GOTO 0x0F73
416: 0x0F50 [0x52] END_LOAD_SCHEDULER: End scheduler "ro32" with entities [LocalPlayer, LocalPlayer], work=378*
417: 0x0F5F [0x45] LOAD_SCHEDULED_TASK: Load scheduler "rmt7" with entities [LocalPlayer, LocalPlayer], work=[378*, 0*]
418: 0x0F70 [0x01] GOTO 0x0F9E
419: 0x0F73 [0x02] IF !(ExtData[1]->WorkLocal[2] == 8*) GOTO 0x0F9E
420: 0x0F7B [0x52] END_LOAD_SCHEDULER: End scheduler "ro32" with entities [LocalPlayer, LocalPlayer], work=378*
421: 0x0F8A [0x45] LOAD_SCHEDULED_TASK: Load scheduler "rgl7" with entities [LocalPlayer, LocalPlayer], work=[378*, 0*]
422: 0x0F9B [0x01] GOTO 0x0F9E

SUBROUTINE_0F9E:
423: 0x0F9E [0x01] GOTO 0x1104
424: 0x0FA1 [0x02] IF !(ExtData[1]->WorkLocal[0] == 2*) GOTO 0x1104
425: 0x0FA9 [0x02] IF !(ExtData[1]->WorkLocal[2] == 1*) GOTO 0x0FD4
426: 0x0FB1 [0x52] END_LOAD_SCHEDULER: End scheduler "al10" with entities [LocalPlayer, LocalPlayer], work=378*
427: 0x0FC0 [0x45] LOAD_SCHEDULED_TASK: Load scheduler "ahm3" with entities [LocalPlayer, LocalPlayer], work=[378*, 0*]
428: 0x0FD1 [0x01] GOTO 0x1101
429: 0x0FD4 [0x02] IF !(ExtData[1]->WorkLocal[2] == 2*) GOTO 0x0FFF
430: 0x0FDC [0x52] END_LOAD_SCHEDULER: End scheduler "al10" with entities [LocalPlayer, LocalPlayer], work=378*
431: 0x0FEB [0x45] LOAD_SCHEDULED_TASK: Load scheduler "ahf3" with entities [LocalPlayer, LocalPlayer], work=[378*, 0*]
432: 0x0FFC [0x01] GOTO 0x1101
433: 0x0FFF [0x02] IF !(ExtData[1]->WorkLocal[2] == 3*) GOTO 0x102A
434: 0x1007 [0x52] END_LOAD_SCHEDULER: End scheduler "al10" with entities [LocalPlayer, LocalPlayer], work=378*
435: 0x1016 [0x45] LOAD_SCHEDULED_TASK: Load scheduler "aem3" with entities [LocalPlayer, LocalPlayer], work=[378*, 0*]
436: 0x1027 [0x01] GOTO 0x1101
437: 0x102A [0x02] IF !(ExtData[1]->WorkLocal[2] == 4*) GOTO 0x1055
438: 0x1032 [0x52] END_LOAD_SCHEDULER: End scheduler "al10" with entities [LocalPlayer, LocalPlayer], work=378*
439: 0x1041 [0x45] LOAD_SCHEDULED_TASK: Load scheduler "aef3" with entities [LocalPlayer, LocalPlayer], work=[378*, 0*]
440: 0x1052 [0x01] GOTO 0x1101
441: 0x1055 [0x02] IF !(ExtData[1]->WorkLocal[2] == 5*) GOTO 0x1080
442: 0x105D [0x52] END_LOAD_SCHEDULER: End scheduler "al10" with entities [LocalPlayer, LocalPlayer], work=378*
443: 0x106C [0x45] LOAD_SCHEDULED_TASK: Load scheduler "atr3" with entities [LocalPlayer, LocalPlayer], work=[378*, 0*]
444: 0x107D [0x01] GOTO 0x1101
445: 0x1080 [0x02] IF !(ExtData[1]->WorkLocal[2] == 6*) GOTO 0x10AB
446: 0x1088 [0x52] END_LOAD_SCHEDULER: End scheduler "al10" with entities [LocalPlayer, LocalPlayer], work=378*
447: 0x1097 [0x45] LOAD_SCHEDULED_TASK: Load scheduler "atr3" with entities [LocalPlayer, LocalPlayer], work=[378*, 0*]
448: 0x10A8 [0x01] GOTO 0x1101
449: 0x10AB [0x02] IF !(ExtData[1]->WorkLocal[2] == 7*) GOTO 0x10D6
450: 0x10B3 [0x52] END_LOAD_SCHEDULER: End scheduler "al10" with entities [LocalPlayer, LocalPlayer], work=378*
451: 0x10C2 [0x45] LOAD_SCHEDULED_TASK: Load scheduler "amt3" with entities [LocalPlayer, LocalPlayer], work=[378*, 0*]
452: 0x10D3 [0x01] GOTO 0x1101
453: 0x10D6 [0x02] IF !(ExtData[1]->WorkLocal[2] == 8*) GOTO 0x1101
454: 0x10DE [0x52] END_LOAD_SCHEDULER: End scheduler "al10" with entities [LocalPlayer, LocalPlayer], work=378*
455: 0x10ED [0x45] LOAD_SCHEDULED_TASK: Load scheduler "agl3" with entities [LocalPlayer, LocalPlayer], work=[378*, 0*]
456: 0x10FE [0x01] GOTO 0x1101

SUBROUTINE_1101:
457: 0x1101 [0x01] GOTO 0x1104

SUBROUTINE_1104:
458: 0x1104 [0x1C] WAIT(120* ticks)
459: 0x1107 [0x45] LOAD_SCHEDULED_TASK: Load scheduler "k135" with entities [LocalPlayer, LocalPlayer], work=[378*, 0*]
460: 0x1118 [0x45] LOAD_SCHEDULED_TASK: Load scheduler "0sbq" with entities [LocalPlayer, LocalPlayer], work=[378*, 0*]
461: 0x1129 [0x45] LOAD_SCHEDULED_TASK: Load scheduler "k04a" with entities [Cavernous Maw (ID: 17179342/0x010622CE), LocalPlayer], work=[378*, 0*]
462: 0x113A [0x02] IF !(ExtData[1]->WorkLocal[0] == 0*) GOTO 0x12A3
463: 0x1142 [0x02] IF !(ExtData[1]->WorkLocal[2] == 1*) GOTO 0x115C
464: 0x114A [0x52] END_LOAD_SCHEDULER: End scheduler "nhm3" with entities [LocalPlayer, LocalPlayer], work=378*
465: 0x1159 [0x01] GOTO 0x1212
466: 0x115C [0x02] IF !(ExtData[1]->WorkLocal[2] == 2*) GOTO 0x1176
467: 0x1164 [0x52] END_LOAD_SCHEDULER: End scheduler "nhf3" with entities [LocalPlayer, LocalPlayer], work=378*
468: 0x1173 [0x01] GOTO 0x1212
469: 0x1176 [0x02] IF !(ExtData[1]->WorkLocal[2] == 3*) GOTO 0x1190
470: 0x117E [0x52] END_LOAD_SCHEDULER: End scheduler "nem3" with entities [LocalPlayer, LocalPlayer], work=378*
471: 0x118D [0x01] GOTO 0x1212
472: 0x1190 [0x02] IF !(ExtData[1]->WorkLocal[2] == 4*) GOTO 0x11AA
473: 0x1198 [0x52] END_LOAD_SCHEDULER: End scheduler "nef3" with entities [LocalPlayer, LocalPlayer], work=378*
474: 0x11A7 [0x01] GOTO 0x1212
475: 0x11AA [0x02] IF !(ExtData[1]->WorkLocal[2] == 5*) GOTO 0x11C4
476: 0x11B2 [0x52] END_LOAD_SCHEDULER: End scheduler "ntr3" with entities [LocalPlayer, LocalPlayer], work=378*
477: 0x11C1 [0x01] GOTO 0x1212
478: 0x11C4 [0x02] IF !(ExtData[1]->WorkLocal[2] == 6*) GOTO 0x11DE
479: 0x11CC [0x52] END_LOAD_SCHEDULER: End scheduler "ntr3" with entities [LocalPlayer, LocalPlayer], work=378*
480: 0x11DB [0x01] GOTO 0x1212
481: 0x11DE [0x02] IF !(ExtData[1]->WorkLocal[2] == 7*) GOTO 0x11F8
482: 0x11E6 [0x52] END_LOAD_SCHEDULER: End scheduler "nmt3" with entities [LocalPlayer, LocalPlayer], work=378*
483: 0x11F5 [0x01] GOTO 0x1212
484: 0x11F8 [0x02] IF !(ExtData[1]->WorkLocal[2] == 8*) GOTO 0x1212
485: 0x1200 [0x52] END_LOAD_SCHEDULER: End scheduler "ngl3" with entities [LocalPlayer, LocalPlayer], work=378*
486: 0x120F [0x01] GOTO 0x1212

SUBROUTINE_1212:
487: 0x1212 [0x45] LOAD_SCHEDULED_TASK: Load scheduler "no25" with entities [LocalPlayer, LocalPlayer], work=[378*, 0*]
488: 0x1223 [0x1C] WAIT(70* ticks)
489: 0x1226 [0x52] END_LOAD_SCHEDULER: End scheduler "no25" with entities [LocalPlayer, LocalPlayer], work=378*
490: 0x1235 [0x45] LOAD_SCHEDULED_TASK: Load scheduler "no20" with entities [LocalPlayer, LocalPlayer], work=[378*, 0*]
491: 0x1246 [0x1C] WAIT(60* ticks)
492: 0x1249 [0x52] END_LOAD_SCHEDULER: End scheduler "no20" with entities [LocalPlayer, LocalPlayer], work=378*
493: 0x1258 [0x45] LOAD_SCHEDULED_TASK: Load scheduler "no21" with entities [LocalPlayer, LocalPlayer], work=[378*, 0*]
494: 0x1269 [0x1C] WAIT(120* ticks)
495: 0x126C [0x9F] LOAD_SCHEDULED_TASK_ALT: Load scheduler "kill" with entities [EventEntity, EventEntity], work=[127*, 0*]
496: 0x127D [0x1C] WAIT(120* ticks)
497: 0x1280 [0x52] END_LOAD_SCHEDULER: End scheduler "no21" with entities [LocalPlayer, LocalPlayer], work=378*
498: 0x128F [0x45] LOAD_SCHEDULED_TASK: Load scheduler "no22" with entities [LocalPlayer, LocalPlayer], work=[378*, 0*]
499: 0x12A0 [0x01] GOTO 0x1575
500: 0x12A3 [0x02] IF !(ExtData[1]->WorkLocal[0] == 1*) GOTO 0x140C
501: 0x12AB [0x02] IF !(ExtData[1]->WorkLocal[2] == 1*) GOTO 0x12C5
502: 0x12B3 [0x52] END_LOAD_SCHEDULER: End scheduler "rhm7" with entities [LocalPlayer, LocalPlayer], work=378*
