# 17179343 - Fortilace

## Common Data

| Field            | Value                             |
|------------------|-----------------------------------|
| Zone             | Sauromugue Champaign [S] (ID: 98) |
| Block Size       | 16428 bytes                       |
| Total Events     | 2                                 |
| References Count | 436                               |

## List of Events

| Event ID              | Entrypoint   |   Size |   Instructions |
|-----------------------|--------------|--------|----------------|
| [65535](#event-65535) | 0x0000       |      1 |              1 |
| [200](#event-200)     | 0x0001       |  14656 |           2804 |

## DAT References (imed_data)

|   Index | Hex Value   |   Dec Value |
|---------|-------------|-------------|
|       0 | 0x0000      |           0 |
|       1 | 0xFFFFFE00  |  4294966784 |
|       2 | 0x0001      |           1 |
|       3 | 0x0002      |           2 |
|       4 | 0x0003      |           3 |
|       5 | 0x0004      |           4 |
|       6 | 0x0005      |           5 |
|       7 | 0x0006      |           6 |
|       8 | 0x0007      |           7 |
|       9 | 0x0008      |           8 |
|      10 | 0x1DBD      |        7613 |
|      11 | 0x40000000  |  1073741824 |
|      12 | 0x000B      |          11 |
|      13 | 0x0280      |         640 |
|      14 | 0x0200      |         512 |
|      15 | 0x029E      |         670 |
|      16 | 0x029F      |         671 |
|      17 | 0x02A0      |         672 |
|      18 | 0x1DBE      |        7614 |
|      19 | 0x1DBF      |        7615 |
|      20 | 0x1DC6      |        7622 |
|      21 | 0x1DC0      |        7616 |
|      22 | 0x005A      |          90 |
|      23 | 0x00C9      |         201 |
|      24 | 0x002D      |          45 |
|      25 | 0x00C8      |         200 |
|      26 | 0x000F      |          15 |
|      27 | 0x1DC1      |        7617 |
|      28 | 0x003D      |          61 |
|      29 | 0x003E      |          62 |
|      30 | 0x003F      |          63 |
|      31 | 0x000C      |          12 |
|      32 | 0x000D      |          13 |
|      33 | 0x001F      |          31 |
|      34 | 0x0020      |          32 |
|      35 | 0x0021      |          33 |
|      36 | 0x0009      |           9 |
|      37 | 0x00E7      |         231 |
|      38 | 0x000A      |          10 |
|      39 | 0x00E8      |         232 |
|      40 | 0x00E9      |         233 |
|      41 | 0x00B5      |         181 |
|      42 | 0x00B6      |         182 |
|      43 | 0x000E      |          14 |
|      44 | 0x00B7      |         183 |
|      45 | 0x0010      |          16 |
|      46 | 0x00CA      |         202 |
|      47 | 0x0011      |          17 |
|      48 | 0x00CB      |         203 |
|      49 | 0x0012      |          18 |
|      50 | 0x0191      |         401 |
|      51 | 0x0013      |          19 |
|      52 | 0x0192      |         402 |
|      53 | 0x0014      |          20 |
|      54 | 0x0193      |         403 |
|      55 | 0x0015      |          21 |
|      56 | 0x015F      |         351 |
|      57 | 0x0016      |          22 |
|      58 | 0x0160      |         352 |
|      59 | 0x0017      |          23 |
|      60 | 0x0161      |         353 |
|      61 | 0x0018      |          24 |
|      62 | 0x0173      |         371 |
|      63 | 0x0019      |          25 |
|      64 | 0x0174      |         372 |
|      65 | 0x001A      |          26 |
|      66 | 0x0175      |         373 |
|      67 | 0x001B      |          27 |
|      68 | 0x001C      |          28 |
|      69 | 0x00B8      |         184 |
|      70 | 0x001D      |          29 |
|      71 | 0x0162      |         354 |
|      72 | 0x001E      |          30 |
|      73 | 0x0047      |          71 |
|      74 | 0x0048      |          72 |
|      75 | 0x0049      |          73 |
|      76 | 0x00F1      |         241 |
|      77 | 0x0022      |          34 |
|      78 | 0x00F2      |         242 |
|      79 | 0x0023      |          35 |
|      80 | 0x00F3      |         243 |
|      81 | 0x0024      |          36 |
|      82 | 0x019B      |         411 |
|      83 | 0x0025      |          37 |
|      84 | 0x019C      |         412 |
|      85 | 0x0026      |          38 |
|      86 | 0x019D      |         413 |
|      87 | 0x0027      |          39 |
|      88 | 0x0028      |          40 |
|      89 | 0x0029      |          41 |
|      90 | 0x002A      |          42 |
|      91 | 0x002B      |          43 |
|      92 | 0x002C      |          44 |
|      93 | 0x002E      |          46 |
|      94 | 0x002F      |          47 |
|      95 | 0x0030      |          48 |
|      96 | 0x0031      |          49 |
|      97 | 0x0032      |          50 |
|      98 | 0x0033      |          51 |
|      99 | 0x0034      |          52 |
|     100 | 0x0035      |          53 |
|     101 | 0x0036      |          54 |
|     102 | 0x0037      |          55 |
|     103 | 0x0038      |          56 |
|     104 | 0x0039      |          57 |
|     105 | 0x003A      |          58 |
|     106 | 0x003B      |          59 |
|     107 | 0x003C      |          60 |
|     108 | 0x0040      |          64 |
|     109 | 0x0041      |          65 |
|     110 | 0x0042      |          66 |
|     111 | 0x0043      |          67 |
|     112 | 0x0044      |          68 |
|     113 | 0x0045      |          69 |
|     114 | 0x0046      |          70 |
|     115 | 0x004A      |          74 |
|     116 | 0x004B      |          75 |
|     117 | 0x004C      |          76 |
|     118 | 0x004D      |          77 |
|     119 | 0x004E      |          78 |
|     120 | 0x004F      |          79 |
|     121 | 0x0050      |          80 |
|     122 | 0x0051      |          81 |
|     123 | 0x0052      |          82 |
|     124 | 0x0053      |          83 |
|     125 | 0x0054      |          84 |
|     126 | 0x0055      |          85 |
|     127 | 0x0056      |          86 |
|     128 | 0x0057      |          87 |
|     129 | 0x0058      |          88 |
|     130 | 0x0059      |          89 |
|     131 | 0x005B      |          91 |
|     132 | 0x005C      |          92 |
|     133 | 0x005D      |          93 |
|     134 | 0x005E      |          94 |
|     135 | 0x005F      |          95 |
|     136 | 0x0060      |          96 |
|     137 | 0x0061      |          97 |
|     138 | 0x0062      |          98 |
|     139 | 0x0063      |          99 |
|     140 | 0x0064      |         100 |
|     141 | 0x0065      |         101 |
|     142 | 0x0066      |         102 |
|     143 | 0x0067      |         103 |
|     144 | 0x0068      |         104 |
|     145 | 0x0069      |         105 |
|     146 | 0x006A      |         106 |
|     147 | 0x006B      |         107 |
|     148 | 0x006C      |         108 |
|     149 | 0x006D      |         109 |
|     150 | 0x006E      |         110 |
|     151 | 0x006F      |         111 |
|     152 | 0x0070      |         112 |
|     153 | 0x0071      |         113 |
|     154 | 0x0072      |         114 |
|     155 | 0x0073      |         115 |
|     156 | 0x0074      |         116 |
|     157 | 0x0075      |         117 |
|     158 | 0x0076      |         118 |
|     159 | 0x0077      |         119 |
|     160 | 0x0078      |         120 |
|     161 | 0x0079      |         121 |
|     162 | 0x007A      |         122 |
|     163 | 0x007B      |         123 |
|     164 | 0x007C      |         124 |
|     165 | 0x007D      |         125 |
|     166 | 0x007E      |         126 |
|     167 | 0x007F      |         127 |
|     168 | 0x0080      |         128 |
|     169 | 0x0081      |         129 |
|     170 | 0x0082      |         130 |
|     171 | 0x0083      |         131 |
|     172 | 0x0084      |         132 |
|     173 | 0x0085      |         133 |
|     174 | 0x0086      |         134 |
|     175 | 0x0087      |         135 |
|     176 | 0x0088      |         136 |
|     177 | 0x0089      |         137 |
|     178 | 0x008A      |         138 |
|     179 | 0x008B      |         139 |
|     180 | 0x008C      |         140 |
|     181 | 0x008D      |         141 |
|     182 | 0x008E      |         142 |
|     183 | 0x008F      |         143 |
|     184 | 0x0090      |         144 |
|     185 | 0x0091      |         145 |
|     186 | 0x0092      |         146 |
|     187 | 0x0093      |         147 |
|     188 | 0x0094      |         148 |
|     189 | 0x0095      |         149 |
|     190 | 0x0096      |         150 |
|     191 | 0x0097      |         151 |
|     192 | 0x0098      |         152 |
|     193 | 0x0099      |         153 |
|     194 | 0x009A      |         154 |
|     195 | 0x009B      |         155 |
|     196 | 0x009C      |         156 |
|     197 | 0x009D      |         157 |
|     198 | 0x009E      |         158 |
|     199 | 0x009F      |         159 |
|     200 | 0x00A0      |         160 |
|     201 | 0x00A1      |         161 |
|     202 | 0x00A2      |         162 |
|     203 | 0x00A3      |         163 |
|     204 | 0x00A4      |         164 |
|     205 | 0x00A5      |         165 |
|     206 | 0x00A6      |         166 |
|     207 | 0x00A7      |         167 |
|     208 | 0x00A8      |         168 |
|     209 | 0x00A9      |         169 |
|     210 | 0x00AA      |         170 |
|     211 | 0x00AB      |         171 |
|     212 | 0x00AC      |         172 |
|     213 | 0x00AD      |         173 |
|     214 | 0x00AE      |         174 |
|     215 | 0x00AF      |         175 |
|     216 | 0x00B0      |         176 |
|     217 | 0x00B1      |         177 |
|     218 | 0x00B2      |         178 |
|     219 | 0x00B3      |         179 |
|     220 | 0x00B4      |         180 |
|     221 | 0x00B9      |         185 |
|     222 | 0x00BA      |         186 |
|     223 | 0x00BB      |         187 |
|     224 | 0x00BC      |         188 |
|     225 | 0x00BD      |         189 |
|     226 | 0x00BE      |         190 |
|     227 | 0x00BF      |         191 |
|     228 | 0x00C0      |         192 |
|     229 | 0x00C1      |         193 |
|     230 | 0x00C2      |         194 |
|     231 | 0x00C3      |         195 |
|     232 | 0x00C4      |         196 |
|     233 | 0x00C5      |         197 |
|     234 | 0x00C6      |         198 |
|     235 | 0x00C7      |         199 |
|     236 | 0x00CC      |         204 |
|     237 | 0x00CD      |         205 |
|     238 | 0x00CE      |         206 |
|     239 | 0x00CF      |         207 |
|     240 | 0x00D0      |         208 |
|     241 | 0x00D1      |         209 |
|     242 | 0x00D2      |         210 |
|     243 | 0x00D3      |         211 |
|     244 | 0x00D4      |         212 |
|     245 | 0x00D5      |         213 |
|     246 | 0x00D6      |         214 |
|     247 | 0x00D7      |         215 |
|     248 | 0x00D8      |         216 |
|     249 | 0x00D9      |         217 |
|     250 | 0x00DA      |         218 |
|     251 | 0x00DB      |         219 |
|     252 | 0x00DC      |         220 |
|     253 | 0x00DD      |         221 |
|     254 | 0x00DE      |         222 |
|     255 | 0x00DF      |         223 |
|     256 | 0x00E0      |         224 |
|     257 | 0x00E1      |         225 |
|     258 | 0x00E2      |         226 |
|     259 | 0x00E3      |         227 |
|     260 | 0x00E4      |         228 |
|     261 | 0x00E5      |         229 |
|     262 | 0x00E6      |         230 |
|     263 | 0x00EA      |         234 |
|     264 | 0x00EB      |         235 |
|     265 | 0x00EC      |         236 |
|     266 | 0x00ED      |         237 |
|     267 | 0x00EE      |         238 |
|     268 | 0x00EF      |         239 |
|     269 | 0x00F0      |         240 |
|     270 | 0x00F4      |         244 |
|     271 | 0x00F5      |         245 |
|     272 | 0x00F6      |         246 |
|     273 | 0x00F7      |         247 |
|     274 | 0x00F8      |         248 |
|     275 | 0x00F9      |         249 |
|     276 | 0x00FA      |         250 |
|     277 | 0x00FB      |         251 |
|     278 | 0x00FC      |         252 |
|     279 | 0x00FD      |         253 |
|     280 | 0x00FE      |         254 |
|     281 | 0x00FF      |         255 |
|     282 | 0x669D5     |      420309 |
|     283 | 0x5CAAF     |      379567 |
|     284 | 0xFFFFFCB9  |  4294966457 |
|     285 | 0x0D81      |        3457 |
|     286 | 0xFFFB83F1  |  4294673393 |
|     287 | 0xFFFE7D5F  |  4294868319 |
|     288 | 0x2794      |       10132 |
|     289 | 0x3EF53     |      257875 |
|     290 | 0xFFFE06FD  |  4294838013 |
|     291 | 0x3DD8      |       15832 |
|     292 | 0x0CC6      |        3270 |
|     293 | 0x4630B     |      287499 |
|     294 | 0xFFFCB95B  |  4294752603 |
|     295 | 0x2540      |        9536 |
|     296 | 0x0666      |        1638 |
|     297 | 0x5A14F     |      368975 |
|     298 | 0xFFF8FADB  |  4294507227 |
|     299 | 0xFFFFFF56  |  4294967126 |
|     300 | 0x0400      |        1024 |
|     301 | 0xFFFDAEBE  |  4294815422 |
|     302 | 0x35A2B     |      219691 |
|     303 | 0xFFFFA2E4  |  4294943460 |
|     304 | 0x0FF7      |        4087 |
|     305 | 0xFFFE1439  |  4294841401 |
|     306 | 0x5303E     |      340030 |
|     307 | 0x07EA      |        2026 |
|     308 | 0xFFFE7CEE  |  4294868206 |
|     309 | 0x2D29F     |      184991 |
|     310 | 0xFFFFFF27  |  4294967079 |
|     311 | 0xFFFAAE68  |  4294618728 |
|     312 | 0xFFF9B51D  |  4294554909 |
|     313 | 0xFFFFFFDF  |  4294967263 |
|     314 | 0x0AB8      |        2744 |
|     315 | 0xFFFF1277  |  4294906487 |
|     316 | 0xC0E5      |       49381 |
|     317 | 0xFFFFFF4F  |  4294967119 |
|     318 | 0x0D0F      |        3343 |
|     319 | 0x26C4F     |      158799 |
|     320 | 0xFFFCD535  |  4294759733 |
|     321 | 0x0E0B      |        3595 |
|     322 | 0x5CB91     |      379793 |
|     323 | 0xFFFBB333  |  4294685491 |
|     324 | 0x4E20      |       20000 |
|     325 | 0xFFFC6DCE  |  4294733262 |
|     326 | 0x53BCF     |      342991 |
|     327 | 0x0419      |        1049 |
|     328 | 0x0EE5      |        3813 |
|     329 | 0x5343C     |      341052 |
|     330 | 0xFFFF9FD5  |  4294942677 |
|     331 | 0xFFFFA50B  |  4294944011 |
|     332 | 0x040F      |        1039 |
|     333 | 0xFFF9AE2B  |  4294553131 |
|     334 | 0x49030     |      299056 |
|     335 | 0x773E      |       30526 |
|     336 | 0x0FBE      |        4030 |
|     337 | 0xFFFFBB6D  |  4294949741 |
|     338 | 0x48B75     |      297845 |
|     339 | 0x12E8      |        4840 |
|     340 | 0x0FAA      |        4010 |
|     341 | 0xFFFE9AD9  |  4294875865 |
|     342 | 0x35541     |      218433 |
|     343 | 0xFFFFFE8D  |  4294966925 |
|     344 | 0x081E      |        2078 |
|     345 | 0xFFFE97D2  |  4294875090 |
|     346 | 0x3F633     |      259635 |
|     347 | 0x07E3      |        2019 |
|     348 | 0x0213      |         531 |
|     349 | 0xFFFFA81C  |  4294944796 |
|     350 | 0x9C40      |       40000 |
|     351 | 0x04B0      |        1200 |
|     352 | 0x0C00      |        3072 |
|     353 | 0x021C      |         540 |
|     354 | 0xFFFC9C68  |  4294745192 |
|     355 | 0x3EF11     |      257809 |
|     356 | 0x7530      |       30000 |
|     357 | 0x0222      |         546 |
|     358 | 0xFFFB1010  |  4294643728 |
|     359 | 0xFFFFB2DB  |  4294947547 |
|     360 | 0xFFFFA2F0  |  4294943472 |
|     361 | 0x0801      |        2049 |
|     362 | 0x0224      |         548 |
|     363 | 0x26160     |      156000 |
|     364 | 0xFFFF15A0  |  4294907296 |
|     365 | 0x0226      |         550 |
|     366 | 0xE922      |       59682 |
|     367 | 0xFFFF49AC  |  4294920620 |
|     368 | 0xFFFFFDBD  |  4294966717 |
|     369 | 0x0500      |        1280 |
|     370 | 0x0228      |         552 |
|     371 | 0xFFF8FE63  |  4294508131 |
|     372 | 0xFFFF7D24  |  4294933796 |
|     373 | 0xFFFFFACD  |  4294965965 |
|     374 | 0x0C2C      |        3116 |
|     375 | 0x021F      |         543 |
|     376 | 0xFFFFB0D9  |  4294947033 |
|     377 | 0xFFFF15AB  |  4294907307 |
|     378 | 0x0C4F      |        3151 |
|     379 | 0x022B      |         555 |
|     380 | 0xFFFD4030  |  4294787120 |
|     381 | 0x2BCC8     |      179400 |
|     382 | 0x0320      |         800 |
|     383 | 0x022D      |         557 |
|     384 | 0x62BB3     |      404403 |
|     385 | 0x534A3     |      341155 |
|     386 | 0x0205      |         517 |
|     387 | 0x0F25      |        3877 |
|     388 | 0x0232      |         562 |
|     389 | 0x2FD8C     |      195980 |
|     390 | 0xFFFF1546  |  4294907206 |
|     391 | 0x082A      |        2090 |
|     392 | 0x0234      |         564 |
|     393 | 0x72C07     |      470023 |
|     394 | 0x5402B     |      344107 |
|     395 | 0x0B1A      |        2842 |
|     396 | 0x0235      |         565 |
|     397 | 0x2118E     |      135566 |
|     398 | 0x68EEA     |      429802 |
|     399 | 0x06EC      |        1772 |
|     400 | 0x023D      |         573 |
|     401 | 0x64022     |      409634 |
|     402 | 0x63E48     |      409160 |
|     403 | 0x041F      |        1055 |
|     404 | 0x0976      |        2422 |
|     405 | 0x02C8      |         712 |
|     406 | 0x3AA9D     |      240285 |
|     407 | 0xFFFAE962  |  4294633826 |
|     408 | 0x5207      |       20999 |
|     409 | 0x03B8      |         952 |
|     410 | 0x028D      |         653 |
|     411 | 0xFFFD96D0  |  4294809296 |
|     412 | 0xFFFD9EA0  |  4294811296 |
|     413 | 0x0A60      |        2656 |
|     414 | 0x0296      |         662 |
|     415 | 0x21CF0     |      138480 |
|     416 | 0xFFFD9F3A  |  4294811450 |
|     417 | 0x270F      |        9999 |
|     418 | 0x0B91      |        2961 |
|     419 | 0x0297      |         663 |
|     420 | 0x14FF0     |       86000 |
|     421 | 0x69F50     |      434000 |
|     422 | 0x0294      |         660 |
|     423 | 0x0A00      |        2560 |
|     424 | 0x029D      |         669 |
|     425 | 0xFFFDAAA8  |  4294814376 |
|     426 | 0xFFFF0DA9  |  4294905257 |
|     427 | 0xFFFFFBF2  |  4294966258 |
|     428 | 0x0FC8      |        4040 |
|     429 | 0xFFFC655C  |  4294731100 |
|     430 | 0xFFFE2120  |  4294844704 |
|     431 | 0xFFFFFF1D  |  4294967069 |
|     432 | 0x09E2      |        2530 |
|     433 | 0x721AF     |      467375 |
|     434 | 0x1D4BF     |      119999 |
|     435 | 0xFFFFFF47  |  4294967111 |

## String References

- **7613**: Attempt which objective? [None./$0./$1./$2./$3./$4./$5./$6./$7.]
- **7614**: Only party members present with you in this area will be transported to [Everbloom Hollow/the Ruhotz Silvermines/Ghoyu's Reverie].
- **7615**: Proceed? [Yes./No.]
- **7616**: Now entering [Everbloom Hollow/the Ruhotz Silvermines/Ghoyu's Reverie].
- **7617**: You have chosen not to enter [Everbloom Hollow/the Ruhotz Silvermines/Ghoyu's Reverie].
- **7622**: Your request for entry is being considered...

## Events

### Event 65535

#### Metadata

| Field        | Value   |
|--------------|---------|
| Entrypoint   | 0x0000  |
| Data Size    | 1 bytes |
| Instructions | 1       |

```
      00 01 02 03 04 05 06 07  08 09 0A 0B 0C 0D 0E 0F
      -- -- -- -- -- -- -- --  -- -- -- -- -- -- -- --
0000: 00                                                .               
```

#### Opcodes

```
  0: 0x0000 [0x00] END_REQSTACK()
```

### Event 200

#### Metadata

| Field        | Value       |
|--------------|-------------|
| Entrypoint   | 0x0001      |
| Data Size    | 14656 bytes |
| Instructions | 2804        |

```
      00 01 02 03 04 05 06 07  08 09 0A 0B 0C 0D 0E 0F
      -- -- -- -- -- -- -- --  -- -- -- -- -- -- -- --
0000:    42 03 01 10 00 80 03  02 00 00 80 03 00 00 01   B..............
0010: 80 02 02 10 00 80 00 20  00 3C 00 00 02 80 02 80  ....... .<......
0020: 02 03 10 00 80 00 2F 00  3C 00 00 03 80 02 80 02  ....../.<.......
0030: 04 10 00 80 00 3E 00 3C  00 00 04 80 02 80 02 05  .....>.<........
0040: 10 00 80 00 4D 00 3C 00  00 05 80 02 80 02 06 10  ....M.<.........
0050: 00 80 00 5C 00 3C 00 00  06 80 02 80 02 07 10 00  ...\.<..........
0060: 80 00 6B 00 3C 00 00 07  80 02 80 02 08 10 00 80  ..k.<...........
0070: 00 7A 00 3C 00 00 08 80  02 80 02 09 10 00 80 00  .z.<............
0080: 89 00 3C 00 00 09 80 02  80 24 0A 80 00 80 00 00  ..<......$......
0090: 25 02 00 10 00 80 00 A1  00 03 01 10 0B 80 01 6C  %..............l
00A0: 01 02 00 10 02 80 00 BD  00 03 03 00 02 10 1A 6F  ...............o
00B0: 02 40 00 80 0C 80 01 10  02 00 01 6C 01 02 00 10  .@.........l....
00C0: 03 80 00 D6 00 07 03 10  0D 80 40 00 80 0C 80 01  ..........@.....
00D0: 10 03 10 01 6C 01 02 00  10 04 80 00 EF 00 07 04  ....l...........
00E0: 10 0E 80 40 00 80 0C 80  01 10 04 10 01 6C 01 02  ...@.........l..
00F0: 00 10 05 80 00 08 01 07  05 10 0E 80 40 00 80 0C  ............@...
0100: 80 01 10 05 10 01 6C 01  02 00 10 06 80 00 21 01  ......l.......!.
0110: 07 06 10 0E 80 40 00 80  0C 80 01 10 06 10 01 6C  .....@.........l
0120: 01 02 00 10 07 80 00 3A  01 07 07 10 0E 80 40 00  .......:......@.
0130: 80 0C 80 01 10 07 10 01  6C 01 02 00 10 08 80 00  ........l.......
0140: 53 01 07 08 10 0E 80 40  00 80 0C 80 01 10 08 10  S......@........
0150: 01 6C 01 02 00 10 09 80  00 6C 01 07 09 10 0E 80  .l.......l......
0160: 40 00 80 0C 80 01 10 09  10 01 6C 01 02 00 10 00  @.........l.....
0170: 80 02 6D 02 41 00 80 0C  80 01 10 02 00 02 02 00  ..m.A...........
0180: 0F 80 80 8B 01 0C 02 00  01 A7 01 02 02 00 10 80  ................
0190: 80 99 01 0C 02 00 01 A7  01 02 02 00 11 80 80 A7  ................
01A0: 01 0C 02 00 01 A7 01 1A  70 12 03 02 10 01 00 48  ........p......H
01B0: 12 80 23 24 13 80 02 80  00 80 25 02 00 10 00 80  ..#$......%.....
01C0: 00 5A 02 48 14 80 A7 00  A7 01 08 00 03 01 10 00  .Z.H............
01D0: 80 40 00 80 04 80 01 10  08 00 02 08 00 05 80 00  .@..............
01E0: 57 02 03 02 10 01 00 48  15 80 23 62 02 80 F0 FF  W......H..#b....
01F0: FF 7F F0 FF FF 7F 6D 61  69 6E 00 80 1C 16 80 45  ......main.....E
0200: 17 80 F0 FF FF 7F F0 FF  FF 7F 77 68 6F 31 00 80  ..........who1..
0210: 55 17 80 F0 FF FF 7F F0  FF FF 7F 77 68 6F 31 1C  U..........who1.
0220: 18 80 45 19 80 F0 FF FF  7F F0 FF FF 7F 66 64 6F  ..E..........fdo
0230: 31 00 80 55 19 80 F0 FF  FF 7F F0 FF FF 7F 66 64  1..U..........fd
0240: 6F 31 45 17 80 F0 FF FF  7F F0 FF FF 7F 77 68 69  o1E..........whi
0250: 31 00 80 1C 1A 80 30 01  6D 02 02 00 10 02 80 00  1.....0.m.......
0260: 6D 02 03 01 10 0B 80 48  1B 80 01 6D 02 21 00 02  m......H...m.!..
0270: 03 00 00 80 80 7F 02 03  02 00 00 80 01 6F 12 02  .............o..
0280: 03 00 1C 80 80 8F 02 03  02 00 02 80 01 6F 12 02  .............o..
0290: 03 00 1D 80 80 9F 02 03  02 00 03 80 01 6F 12 02  .............o..
02A0: 03 00 1E 80 80 AF 02 03  02 00 04 80 01 6F 12 02  .............o..
02B0: 03 00 0C 80 80 BF 02 03  02 00 05 80 01 6F 12 02  .............o..
02C0: 03 00 1F 80 80 CF 02 03  02 00 06 80 01 6F 12 02  .............o..
02D0: 03 00 20 80 80 DF 02 03  02 00 07 80 01 6F 12 02  .. ..........o..
02E0: 03 00 21 80 80 EF 02 03  02 00 08 80 01 6F 12 02  ..!..........o..
02F0: 03 00 22 80 80 FF 02 03  02 00 09 80 01 6F 12 02  .."..........o..
0300: 03 00 23 80 80 0F 03 03  02 00 24 80 01 6F 12 02  ..#.......$..o..
0310: 03 00 25 80 80 1F 03 03  02 00 26 80 01 6F 12 02  ..%.......&..o..
0320: 03 00 27 80 80 2F 03 03  02 00 0C 80 01 6F 12 02  ..'../.......o..
0330: 03 00 28 80 80 3F 03 03  02 00 1F 80 01 6F 12 02  ..(..?.......o..
0340: 03 00 29 80 80 4F 03 03  02 00 20 80 01 6F 12 02  ..)..O.... ..o..
0350: 03 00 2A 80 80 5F 03 03  02 00 2B 80 01 6F 12 02  ..*.._....+..o..
0360: 03 00 2C 80 80 6F 03 03  02 00 1A 80 01 6F 12 02  ..,..o.......o..
0370: 03 00 17 80 80 7F 03 03  02 00 2D 80 01 6F 12 02  ..........-..o..
0380: 03 00 2E 80 80 8F 03 03  02 00 2F 80 01 6F 12 02  ........../..o..
0390: 03 00 30 80 80 9F 03 03  02 00 31 80 01 6F 12 02  ..0.......1..o..
03A0: 03 00 32 80 80 AF 03 03  02 00 33 80 01 6F 12 02  ..2.......3..o..
03B0: 03 00 34 80 80 BF 03 03  02 00 35 80 01 6F 12 02  ..4.......5..o..
03C0: 03 00 36 80 80 CF 03 03  02 00 37 80 01 6F 12 02  ..6.......7..o..
03D0: 03 00 38 80 80 DF 03 03  02 00 39 80 01 6F 12 02  ..8.......9..o..
03E0: 03 00 3A 80 80 EF 03 03  02 00 3B 80 01 6F 12 02  ..:.......;..o..
03F0: 03 00 3C 80 80 FF 03 03  02 00 3D 80 01 6F 12 02  ..<.......=..o..
0400: 03 00 3E 80 80 0F 04 03  02 00 3F 80 01 6F 12 02  ..>.......?..o..
0410: 03 00 40 80 80 1F 04 03  02 00 41 80 01 6F 12 02  ..@.......A..o..
0420: 03 00 42 80 80 2F 04 03  02 00 43 80 01 6F 12 02  ..B../....C..o..
0430: 03 00 2B 80 80 3F 04 03  02 00 44 80 01 6F 12 02  ..+..?....D..o..
0440: 03 00 45 80 80 4F 04 03  02 00 46 80 01 6F 12 02  ..E..O....F..o..
0450: 03 00 47 80 80 5F 04 03  02 00 48 80 01 6F 12 02  ..G.._....H..o..
0460: 03 00 49 80 80 6F 04 03  02 00 21 80 01 6F 12 02  ..I..o....!..o..
0470: 03 00 4A 80 80 7F 04 03  02 00 22 80 01 6F 12 02  ..J......."..o..
0480: 03 00 4B 80 80 8F 04 03  02 00 23 80 01 6F 12 02  ..K.......#..o..
0490: 03 00 4C 80 80 9F 04 03  02 00 4D 80 01 6F 12 02  ..L.......M..o..
04A0: 03 00 4E 80 80 AF 04 03  02 00 4F 80 01 6F 12 02  ..N.......O..o..
04B0: 03 00 50 80 80 BF 04 03  02 00 51 80 01 6F 12 02  ..P.......Q..o..
04C0: 03 00 52 80 80 CF 04 03  02 00 53 80 01 6F 12 02  ..R.......S..o..
04D0: 03 00 54 80 80 DF 04 03  02 00 55 80 01 6F 12 02  ..T.......U..o..
04E0: 03 00 56 80 80 EF 04 03  02 00 57 80 01 6F 12 02  ..V.......W..o..
04F0: 03 00 0E 80 80 FF 04 03  02 00 58 80 01 6F 12 02  ..........X..o..
0500: 03 00 0E 80 80 0F 05 03  02 00 59 80 01 6F 12 02  ..........Y..o..
0510: 03 00 0E 80 80 1F 05 03  02 00 5A 80 01 6F 12 02  ..........Z..o..
0520: 03 00 0E 80 80 2F 05 03  02 00 5B 80 01 6F 12 02  ...../....[..o..
0530: 03 00 0E 80 80 3F 05 03  02 00 5C 80 01 6F 12 02  .....?....\..o..
0540: 03 00 0E 80 80 4F 05 03  02 00 18 80 01 6F 12 02  .....O.......o..
0550: 03 00 0E 80 80 5F 05 03  02 00 5D 80 01 6F 12 02  ....._....]..o..
0560: 03 00 0E 80 80 6F 05 03  02 00 5E 80 01 6F 12 02  .....o....^..o..
0570: 03 00 0E 80 80 7F 05 03  02 00 5F 80 01 6F 12 02  .........._..o..
0580: 03 00 0E 80 80 8F 05 03  02 00 60 80 01 6F 12 02  ..........`..o..
0590: 03 00 0E 80 80 9F 05 03  02 00 61 80 01 6F 12 02  ..........a..o..
05A0: 03 00 0E 80 80 AF 05 03  02 00 62 80 01 6F 12 02  ..........b..o..
05B0: 03 00 0E 80 80 BF 05 03  02 00 63 80 01 6F 12 02  ..........c..o..
05C0: 03 00 0E 80 80 CF 05 03  02 00 64 80 01 6F 12 02  ..........d..o..
05D0: 03 00 0E 80 80 DF 05 03  02 00 65 80 01 6F 12 02  ..........e..o..
05E0: 03 00 0E 80 80 EF 05 03  02 00 66 80 01 6F 12 02  ..........f..o..
05F0: 03 00 0E 80 80 FF 05 03  02 00 67 80 01 6F 12 02  ..........g..o..
0600: 03 00 0E 80 80 0F 06 03  02 00 68 80 01 6F 12 02  ..........h..o..
0610: 03 00 0E 80 80 1F 06 03  02 00 69 80 01 6F 12 02  ..........i..o..
0620: 03 00 0E 80 80 2F 06 03  02 00 6A 80 01 6F 12 02  ...../....j..o..
0630: 03 00 0E 80 80 3F 06 03  02 00 6B 80 01 6F 12 02  .....?....k..o..
0640: 03 00 0E 80 80 4F 06 03  02 00 1C 80 01 6F 12 02  .....O.......o..
0650: 03 00 0E 80 80 5F 06 03  02 00 1D 80 01 6F 12 02  ....._.......o..
0660: 03 00 0E 80 80 6F 06 03  02 00 1E 80 01 6F 12 02  .....o.......o..
0670: 03 00 0E 80 80 7F 06 03  02 00 6C 80 01 6F 12 02  ..........l..o..
0680: 03 00 0E 80 80 8F 06 03  02 00 6D 80 01 6F 12 02  ..........m..o..
0690: 03 00 0E 80 80 9F 06 03  02 00 6E 80 01 6F 12 02  ..........n..o..
06A0: 03 00 0E 80 80 AF 06 03  02 00 6F 80 01 6F 12 02  ..........o..o..
06B0: 03 00 0E 80 80 BF 06 03  02 00 70 80 01 6F 12 02  ..........p..o..
06C0: 03 00 0E 80 80 CF 06 03  02 00 71 80 01 6F 12 02  ..........q..o..
06D0: 03 00 0E 80 80 DF 06 03  02 00 72 80 01 6F 12 02  ..........r..o..
06E0: 03 00 0E 80 80 EF 06 03  02 00 49 80 01 6F 12 02  ..........I..o..
06F0: 03 00 0E 80 80 FF 06 03  02 00 4A 80 01 6F 12 02  ..........J..o..
0700: 03 00 0E 80 80 0F 07 03  02 00 4B 80 01 6F 12 02  ..........K..o..
0710: 03 00 0E 80 80 1F 07 03  02 00 73 80 01 6F 12 02  ..........s..o..
0720: 03 00 0E 80 80 2F 07 03  02 00 74 80 01 6F 12 02  ...../....t..o..
0730: 03 00 0E 80 80 3F 07 03  02 00 75 80 01 6F 12 02  .....?....u..o..
0740: 03 00 0E 80 80 4F 07 03  02 00 76 80 01 6F 12 02  .....O....v..o..
0750: 03 00 0E 80 80 5F 07 03  02 00 77 80 01 6F 12 02  ....._....w..o..
0760: 03 00 0E 80 80 6F 07 03  02 00 78 80 01 6F 12 02  .....o....x..o..
0770: 03 00 0E 80 80 7F 07 03  02 00 79 80 01 6F 12 02  ..........y..o..
0780: 03 00 0E 80 80 8F 07 03  02 00 7A 80 01 6F 12 02  ..........z..o..
0790: 03 00 0E 80 80 9F 07 03  02 00 7B 80 01 6F 12 02  ..........{..o..
07A0: 03 00 0E 80 80 AF 07 03  02 00 7C 80 01 6F 12 02  ..........|..o..
07B0: 03 00 0E 80 80 BF 07 03  02 00 7D 80 01 6F 12 02  ..........}..o..
07C0: 03 00 0E 80 80 CF 07 03  02 00 7E 80 01 6F 12 02  ..........~..o..
07D0: 03 00 0E 80 80 DF 07 03  02 00 7F 80 01 6F 12 02  .............o..
07E0: 03 00 0E 80 80 EF 07 03  02 00 80 80 01 6F 12 02  .............o..
07F0: 03 00 0E 80 80 FF 07 03  02 00 81 80 01 6F 12 02  .............o..
0800: 03 00 0E 80 80 0F 08 03  02 00 82 80 01 6F 12 02  .............o..
0810: 03 00 0E 80 80 1F 08 03  02 00 16 80 01 6F 12 02  .............o..
0820: 03 00 0E 80 80 2F 08 03  02 00 83 80 01 6F 12 02  ...../.......o..
0830: 03 00 0E 80 80 3F 08 03  02 00 84 80 01 6F 12 02  .....?.......o..
0840: 03 00 0E 80 80 4F 08 03  02 00 85 80 01 6F 12 02  .....O.......o..
0850: 03 00 0E 80 80 5F 08 03  02 00 86 80 01 6F 12 02  ....._.......o..
0860: 03 00 0E 80 80 6F 08 03  02 00 87 80 01 6F 12 02  .....o.......o..
0870: 03 00 0E 80 80 7F 08 03  02 00 88 80 01 6F 12 02  .............o..
0880: 03 00 0E 80 80 8F 08 03  02 00 89 80 01 6F 12 02  .............o..
0890: 03 00 0E 80 80 9F 08 03  02 00 8A 80 01 6F 12 02  .............o..
08A0: 03 00 0E 80 80 AF 08 03  02 00 8B 80 01 6F 12 02  .............o..
08B0: 03 00 0E 80 80 BF 08 03  02 00 8C 80 01 6F 12 02  .............o..
08C0: 03 00 0E 80 80 CF 08 03  02 00 8D 80 01 6F 12 02  .............o..
08D0: 03 00 0E 80 80 DF 08 03  02 00 8E 80 01 6F 12 02  .............o..
08E0: 03 00 0E 80 80 EF 08 03  02 00 8F 80 01 6F 12 02  .............o..
08F0: 03 00 0E 80 80 FF 08 03  02 00 90 80 01 6F 12 02  .............o..
0900: 03 00 0E 80 80 0F 09 03  02 00 91 80 01 6F 12 02  .............o..
0910: 03 00 0E 80 80 1F 09 03  02 00 92 80 01 6F 12 02  .............o..
0920: 03 00 0E 80 80 2F 09 03  02 00 93 80 01 6F 12 02  ...../.......o..
0930: 03 00 0E 80 80 3F 09 03  02 00 94 80 01 6F 12 02  .....?.......o..
0940: 03 00 0E 80 80 4F 09 03  02 00 95 80 01 6F 12 02  .....O.......o..
0950: 03 00 0E 80 80 5F 09 03  02 00 96 80 01 6F 12 02  ....._.......o..
0960: 03 00 0E 80 80 6F 09 03  02 00 97 80 01 6F 12 02  .....o.......o..
0970: 03 00 0E 80 80 7F 09 03  02 00 98 80 01 6F 12 02  .............o..
0980: 03 00 0E 80 80 8F 09 03  02 00 99 80 01 6F 12 02  .............o..
0990: 03 00 0E 80 80 9F 09 03  02 00 9A 80 01 6F 12 02  .............o..
09A0: 03 00 0E 80 80 AF 09 03  02 00 9B 80 01 6F 12 02  .............o..
09B0: 03 00 0E 80 80 BF 09 03  02 00 9C 80 01 6F 12 02  .............o..
09C0: 03 00 0E 80 80 CF 09 03  02 00 9D 80 01 6F 12 02  .............o..
09D0: 03 00 0E 80 80 DF 09 03  02 00 9E 80 01 6F 12 02  .............o..
09E0: 03 00 0E 80 80 EF 09 03  02 00 9F 80 01 6F 12 02  .............o..
09F0: 03 00 0E 80 80 FF 09 03  02 00 A0 80 01 6F 12 02  .............o..
0A00: 03 00 0E 80 80 0F 0A 03  02 00 A1 80 01 6F 12 02  .............o..
0A10: 03 00 0E 80 80 1F 0A 03  02 00 A2 80 01 6F 12 02  .............o..
0A20: 03 00 0E 80 80 2F 0A 03  02 00 A3 80 01 6F 12 02  ...../.......o..
0A30: 03 00 0E 80 80 3F 0A 03  02 00 A4 80 01 6F 12 02  .....?.......o..
0A40: 03 00 0E 80 80 4F 0A 03  02 00 A5 80 01 6F 12 02  .....O.......o..
0A50: 03 00 0E 80 80 5F 0A 03  02 00 A6 80 01 6F 12 02  ....._.......o..
0A60: 03 00 0E 80 80 6F 0A 03  02 00 A7 80 01 6F 12 02  .....o.......o..
0A70: 03 00 0E 80 80 7F 0A 03  02 00 A8 80 01 6F 12 02  .............o..
0A80: 03 00 0E 80 80 8F 0A 03  02 00 A9 80 01 6F 12 02  .............o..
0A90: 03 00 0E 80 80 9F 0A 03  02 00 AA 80 01 6F 12 02  .............o..
0AA0: 03 00 0E 80 80 AF 0A 03  02 00 AB 80 01 6F 12 02  .............o..
0AB0: 03 00 0E 80 80 BF 0A 03  02 00 AC 80 01 6F 12 02  .............o..
0AC0: 03 00 0E 80 80 CF 0A 03  02 00 AD 80 01 6F 12 02  .............o..
0AD0: 03 00 0E 80 80 DF 0A 03  02 00 AE 80 01 6F 12 02  .............o..
0AE0: 03 00 0E 80 80 EF 0A 03  02 00 AF 80 01 6F 12 02  .............o..
0AF0: 03 00 0E 80 80 FF 0A 03  02 00 B0 80 01 6F 12 02  .............o..
0B00: 03 00 0E 80 80 0F 0B 03  02 00 B1 80 01 6F 12 02  .............o..
0B10: 03 00 0E 80 80 1F 0B 03  02 00 B2 80 01 6F 12 02  .............o..
0B20: 03 00 0E 80 80 2F 0B 03  02 00 B3 80 01 6F 12 02  ...../.......o..
0B30: 03 00 0E 80 80 3F 0B 03  02 00 B4 80 01 6F 12 02  .....?.......o..
0B40: 03 00 0E 80 80 4F 0B 03  02 00 B5 80 01 6F 12 02  .....O.......o..
0B50: 03 00 0E 80 80 5F 0B 03  02 00 B6 80 01 6F 12 02  ....._.......o..
0B60: 03 00 0E 80 80 6F 0B 03  02 00 B7 80 01 6F 12 02  .....o.......o..
0B70: 03 00 0E 80 80 7F 0B 03  02 00 B8 80 01 6F 12 02  .............o..
0B80: 03 00 0E 80 80 8F 0B 03  02 00 B9 80 01 6F 12 02  .............o..
0B90: 03 00 0E 80 80 9F 0B 03  02 00 BA 80 01 6F 12 02  .............o..
0BA0: 03 00 0E 80 80 AF 0B 03  02 00 BB 80 01 6F 12 02  .............o..
0BB0: 03 00 0E 80 80 BF 0B 03  02 00 BC 80 01 6F 12 02  .............o..
0BC0: 03 00 0E 80 80 CF 0B 03  02 00 BD 80 01 6F 12 02  .............o..
0BD0: 03 00 0E 80 80 DF 0B 03  02 00 BE 80 01 6F 12 02  .............o..
0BE0: 03 00 0E 80 80 EF 0B 03  02 00 BF 80 01 6F 12 02  .............o..
0BF0: 03 00 0E 80 80 FF 0B 03  02 00 C0 80 01 6F 12 02  .............o..
0C00: 03 00 0E 80 80 0F 0C 03  02 00 C1 80 01 6F 12 02  .............o..
0C10: 03 00 0E 80 80 1F 0C 03  02 00 C2 80 01 6F 12 02  .............o..
0C20: 03 00 0E 80 80 2F 0C 03  02 00 C3 80 01 6F 12 02  ...../.......o..
0C30: 03 00 0E 80 80 3F 0C 03  02 00 C4 80 01 6F 12 02  .....?.......o..
0C40: 03 00 0E 80 80 4F 0C 03  02 00 C5 80 01 6F 12 02  .....O.......o..
0C50: 03 00 0E 80 80 5F 0C 03  02 00 C6 80 01 6F 12 02  ....._.......o..
0C60: 03 00 0E 80 80 6F 0C 03  02 00 C7 80 01 6F 12 02  .....o.......o..
0C70: 03 00 0E 80 80 7F 0C 03  02 00 C8 80 01 6F 12 02  .............o..
0C80: 03 00 0E 80 80 8F 0C 03  02 00 C9 80 01 6F 12 02  .............o..
0C90: 03 00 0E 80 80 9F 0C 03  02 00 CA 80 01 6F 12 02  .............o..
0CA0: 03 00 0E 80 80 AF 0C 03  02 00 CB 80 01 6F 12 02  .............o..
0CB0: 03 00 0E 80 80 BF 0C 03  02 00 CC 80 01 6F 12 02  .............o..
0CC0: 03 00 0E 80 80 CF 0C 03  02 00 CD 80 01 6F 12 02  .............o..
0CD0: 03 00 0E 80 80 DF 0C 03  02 00 CE 80 01 6F 12 02  .............o..
0CE0: 03 00 0E 80 80 EF 0C 03  02 00 CF 80 01 6F 12 02  .............o..
0CF0: 03 00 0E 80 80 FF 0C 03  02 00 D0 80 01 6F 12 02  .............o..
0D00: 03 00 0E 80 80 0F 0D 03  02 00 D1 80 01 6F 12 02  .............o..
0D10: 03 00 0E 80 80 1F 0D 03  02 00 D2 80 01 6F 12 02  .............o..
0D20: 03 00 0E 80 80 2F 0D 03  02 00 D3 80 01 6F 12 02  ...../.......o..
0D30: 03 00 0E 80 80 3F 0D 03  02 00 D4 80 01 6F 12 02  .....?.......o..
0D40: 03 00 0E 80 80 4F 0D 03  02 00 D5 80 01 6F 12 02  .....O.......o..
0D50: 03 00 0E 80 80 5F 0D 03  02 00 D6 80 01 6F 12 02  ....._.......o..
0D60: 03 00 0E 80 80 6F 0D 03  02 00 D7 80 01 6F 12 02  .....o.......o..
0D70: 03 00 0E 80 80 7F 0D 03  02 00 D8 80 01 6F 12 02  .............o..
0D80: 03 00 0E 80 80 8F 0D 03  02 00 D9 80 01 6F 12 02  .............o..
0D90: 03 00 0E 80 80 9F 0D 03  02 00 DA 80 01 6F 12 02  .............o..
0DA0: 03 00 0E 80 80 AF 0D 03  02 00 DB 80 01 6F 12 02  .............o..
0DB0: 03 00 0E 80 80 BF 0D 03  02 00 DC 80 01 6F 12 02  .............o..
0DC0: 03 00 0E 80 80 CF 0D 03  02 00 29 80 01 6F 12 02  ..........)..o..
0DD0: 03 00 0E 80 80 DF 0D 03  02 00 2A 80 01 6F 12 02  ..........*..o..
0DE0: 03 00 0E 80 80 EF 0D 03  02 00 2C 80 01 6F 12 02  ..........,..o..
0DF0: 03 00 0E 80 80 FF 0D 03  02 00 45 80 01 6F 12 02  ..........E..o..
0E00: 03 00 0E 80 80 0F 0E 03  02 00 DD 80 01 6F 12 02  .............o..
0E10: 03 00 0E 80 80 1F 0E 03  02 00 DE 80 01 6F 12 02  .............o..
0E20: 03 00 0E 80 80 2F 0E 03  02 00 DF 80 01 6F 12 02  ...../.......o..
0E30: 03 00 0E 80 80 3F 0E 03  02 00 E0 80 01 6F 12 02  .....?.......o..
0E40: 03 00 0E 80 80 4F 0E 03  02 00 E1 80 01 6F 12 02  .....O.......o..
0E50: 03 00 0E 80 80 5F 0E 03  02 00 E2 80 01 6F 12 02  ....._.......o..
0E60: 03 00 0E 80 80 6F 0E 03  02 00 E3 80 01 6F 12 02  .....o.......o..
0E70: 03 00 0E 80 80 7F 0E 03  02 00 E4 80 01 6F 12 02  .............o..
0E80: 03 00 0E 80 80 8F 0E 03  02 00 E5 80 01 6F 12 02  .............o..
0E90: 03 00 0E 80 80 9F 0E 03  02 00 E6 80 01 6F 12 02  .............o..
0EA0: 03 00 0E 80 80 AF 0E 03  02 00 E7 80 01 6F 12 02  .............o..
0EB0: 03 00 0E 80 80 BF 0E 03  02 00 E8 80 01 6F 12 02  .............o..
0EC0: 03 00 0E 80 80 CF 0E 03  02 00 E9 80 01 6F 12 02  .............o..
0ED0: 03 00 0E 80 80 DF 0E 03  02 00 EA 80 01 6F 12 02  .............o..
0EE0: 03 00 0E 80 80 EF 0E 03  02 00 EB 80 01 6F 12 02  .............o..
0EF0: 03 00 0E 80 80 FF 0E 03  02 00 19 80 01 6F 12 02  .............o..
0F00: 03 00 0E 80 80 0F 0F 03  02 00 17 80 01 6F 12 02  .............o..
0F10: 03 00 0E 80 80 1F 0F 03  02 00 2E 80 01 6F 12 02  .............o..
0F20: 03 00 0E 80 80 2F 0F 03  02 00 30 80 01 6F 12 02  ...../....0..o..
0F30: 03 00 0E 80 80 3F 0F 03  02 00 EC 80 01 6F 12 02  .....?.......o..
0F40: 03 00 0E 80 80 4F 0F 03  02 00 ED 80 01 6F 12 02  .....O.......o..
0F50: 03 00 0E 80 80 5F 0F 03  02 00 EE 80 01 6F 12 02  ....._.......o..
0F60: 03 00 0E 80 80 6F 0F 03  02 00 EF 80 01 6F 12 02  .....o.......o..
0F70: 03 00 0E 80 80 7F 0F 03  02 00 F0 80 01 6F 12 02  .............o..
0F80: 03 00 0E 80 80 8F 0F 03  02 00 F1 80 01 6F 12 02  .............o..
0F90: 03 00 0E 80 80 9F 0F 03  02 00 F2 80 01 6F 12 02  .............o..
0FA0: 03 00 0E 80 80 AF 0F 03  02 00 F3 80 01 6F 12 02  .............o..
0FB0: 03 00 0E 80 80 BF 0F 03  02 00 F4 80 01 6F 12 02  .............o..
0FC0: 03 00 0E 80 80 CF 0F 03  02 00 F5 80 01 6F 12 02  .............o..
0FD0: 03 00 0E 80 80 DF 0F 03  02 00 F6 80 01 6F 12 02  .............o..
0FE0: 03 00 0E 80 80 EF 0F 03  02 00 F7 80 01 6F 12 02  .............o..
0FF0: 03 00 0E 80 80 FF 0F 03  02 00 F8 80 01 6F 12 02  .............o..
1000: 03 00 0E 80 80 0F 10 03  02 00 F9 80 01 6F 12 02  .............o..
1010: 03 00 0E 80 80 1F 10 03  02 00 FA 80 01 6F 12 02  .............o..
1020: 03 00 0E 80 80 2F 10 03  02 00 FB 80 01 6F 12 02  ...../.......o..
1030: 03 00 0E 80 80 3F 10 03  02 00 FC 80 01 6F 12 02  .....?.......o..
1040: 03 00 0E 80 80 4F 10 03  02 00 FD 80 01 6F 12 02  .....O.......o..
1050: 03 00 0E 80 80 5F 10 03  02 00 FE 80 01 6F 12 02  ....._.......o..
1060: 03 00 0E 80 80 6F 10 03  02 00 FF 80 01 6F 12 02  .....o.......o..
1070: 03 00 0E 80 80 7F 10 03  02 00 00 81 01 6F 12 02  .............o..
1080: 03 00 0E 80 80 8F 10 03  02 00 01 81 01 6F 12 02  .............o..
1090: 03 00 0E 80 80 9F 10 03  02 00 02 81 01 6F 12 02  .............o..
10A0: 03 00 0E 80 80 AF 10 03  02 00 03 81 01 6F 12 02  .............o..
10B0: 03 00 0E 80 80 BF 10 03  02 00 04 81 01 6F 12 02  .............o..
10C0: 03 00 0E 80 80 CF 10 03  02 00 05 81 01 6F 12 02  .............o..
10D0: 03 00 0E 80 80 DF 10 03  02 00 06 81 01 6F 12 02  .............o..
10E0: 03 00 0E 80 80 EF 10 03  02 00 25 80 01 6F 12 02  ..........%..o..
10F0: 03 00 0E 80 80 FF 10 03  02 00 27 80 01 6F 12 02  ..........'..o..
1100: 03 00 0E 80 80 0F 11 03  02 00 28 80 01 6F 12 02  ..........(..o..
1110: 03 00 0E 80 80 1F 11 03  02 00 07 81 01 6F 12 02  .............o..
1120: 03 00 0E 80 80 2F 11 03  02 00 08 81 01 6F 12 02  ...../.......o..
1130: 03 00 0E 80 80 3F 11 03  02 00 09 81 01 6F 12 02  .....?.......o..
1140: 03 00 0E 80 80 4F 11 03  02 00 0A 81 01 6F 12 02  .....O.......o..
1150: 03 00 0E 80 80 5F 11 03  02 00 0B 81 01 6F 12 02  ....._.......o..
1160: 03 00 0E 80 80 6F 11 03  02 00 0C 81 01 6F 12 02  .....o.......o..
1170: 03 00 0E 80 80 7F 11 03  02 00 0D 81 01 6F 12 02  .............o..
1180: 03 00 0E 80 80 8F 11 03  02 00 4C 80 01 6F 12 02  ..........L..o..
1190: 03 00 0E 80 80 9F 11 03  02 00 4E 80 01 6F 12 02  ..........N..o..
11A0: 03 00 0E 80 80 AF 11 03  02 00 50 80 01 6F 12 02  ..........P..o..
11B0: 03 00 0E 80 80 BF 11 03  02 00 0E 81 01 6F 12 02  .............o..
11C0: 03 00 0E 80 80 CF 11 03  02 00 0F 81 01 6F 12 02  .............o..
11D0: 03 00 0E 80 80 DF 11 03  02 00 10 81 01 6F 12 02  .............o..
11E0: 03 00 0E 80 80 EF 11 03  02 00 11 81 01 6F 12 02  .............o..
11F0: 03 00 0E 80 80 FF 11 03  02 00 12 81 01 6F 12 02  .............o..
1200: 03 00 0E 80 80 0F 12 03  02 00 13 81 01 6F 12 02  .............o..
1210: 03 00 0E 80 80 1F 12 03  02 00 14 81 01 6F 12 02  .............o..
1220: 03 00 0E 80 80 2F 12 03  02 00 15 81 01 6F 12 02  ...../.......o..
1230: 03 00 0E 80 80 3F 12 03  02 00 16 81 01 6F 12 02  .....?.......o..
1240: 03 00 0E 80 80 4F 12 03  02 00 17 81 01 6F 12 02  .....O.......o..
1250: 03 00 0E 80 80 5F 12 03  02 00 18 81 01 6F 12 02  ....._.......o..
1260: 03 00 0E 80 80 6F 12 03  02 00 19 81 01 6F 12 1B  .....o.......o..
1270: 02 02 00 00 80 80 94 12  03 01 00 00 80 03 04 00  ................
1280: 00 80 03 05 00 00 80 03  06 00 00 80 03 07 00 00  ................
1290: 80 01 40 39 02 02 00 02  80 80 B8 12 03 01 00 00  ..@9............
12A0: 80 03 04 00 1A 81 03 05  00 1B 81 03 06 00 1C 81  ................
12B0: 03 07 00 1D 81 01 40 39  02 02 00 03 80 80 DC 12  ......@9........
12C0: 03 01 00 00 80 03 04 00  1A 81 03 05 00 1B 81 03  ................
12D0: 06 00 1C 81 03 07 00 1D  81 01 40 39 02 02 00 04  ..........@9....
12E0: 80 80 00 13 03 01 00 00  80 03 04 00 1A 81 03 05  ................
12F0: 00 1B 81 03 06 00 1C 81  03 07 00 1D 81 01 40 39  ..............@9
1300: 02 02 00 05 80 80 24 13  03 01 00 00 80 03 04 00  ......$.........
1310: 1E 81 03 05 00 1F 81 03  06 00 20 81 03 07 00 80  .......... .....
1320: 80 01 40 39 02 02 00 06  80 80 48 13 03 01 00 00  ..@9......H.....
1330: 80 03 04 00 21 81 03 05  00 22 81 03 06 00 23 81  ....!...."....#.
1340: 03 07 00 24 81 01 40 39  02 02 00 07 80 80 6C 13  ...$..@9......l.
1350: 03 01 00 00 80 03 04 00  21 81 03 05 00 22 81 03  ........!...."..
1360: 06 00 23 81 03 07 00 24  81 01 40 39 02 02 00 08  ..#....$..@9....
1370: 80 80 90 13 03 01 00 00  80 03 04 00 25 81 03 05  ............%...
1380: 00 26 81 03 06 00 27 81  03 07 00 28 81 01 40 39  .&....'....(..@9
1390: 02 02 00 09 80 80 B4 13  03 01 00 00 80 03 04 00  ................
13A0: 25 81 03 05 00 26 81 03  06 00 27 81 03 07 00 28  %....&....'....(
13B0: 81 01 40 39 02 02 00 24  80 80 D8 13 03 01 00 00  ..@9...$........
13C0: 80 03 04 00 25 81 03 05  00 26 81 03 06 00 27 81  ....%....&....'.
13D0: 03 07 00 28 81 01 40 39  02 02 00 26 80 80 FC 13  ...(..@9...&....
13E0: 03 01 00 02 80 03 04 00  29 81 03 05 00 2A 81 03  ........)....*..
13F0: 06 00 2B 81 03 07 00 2C  81 01 40 39 02 02 00 0C  ..+....,..@9....
1400: 80 80 20 14 03 01 00 02  80 03 04 00 29 81 03 05  .. .........)...
1410: 00 2A 81 03 06 00 2B 81  03 07 00 2C 81 01 40 39  .*....+....,..@9
1420: 02 02 00 1F 80 80 44 14  03 01 00 02 80 03 04 00  ......D.........
1430: 29 81 03 05 00 2A 81 03  06 00 2B 81 03 07 00 2C  )....*....+....,
1440: 81 01 40 39 02 02 00 20  80 80 68 14 03 01 00 02  ..@9... ..h.....
1450: 80 03 04 00 2D 81 03 05  00 2E 81 03 06 00 2F 81  ....-........./.
1460: 03 07 00 30 81 01 40 39  02 02 00 2B 80 80 8C 14  ...0..@9...+....
1470: 03 01 00 02 80 03 04 00  31 81 03 05 00 32 81 03  ........1....2..
1480: 06 00 E3 80 03 07 00 33  81 01 40 39 02 02 00 1A  .......3..@9....
1490: 80 80 B0 14 03 01 00 02  80 03 04 00 31 81 03 05  ............1...
14A0: 00 32 81 03 06 00 E3 80  03 07 00 33 81 01 40 39  .2.........3..@9
14B0: 02 02 00 2D 80 80 D4 14  03 01 00 02 80 03 04 00  ...-............
14C0: 34 81 03 05 00 35 81 03  06 00 36 81 03 07 00 2C  4....5....6....,
14D0: 81 01 40 39 02 02 00 2F  80 80 F8 14 03 01 00 02  ..@9.../........
14E0: 80 03 04 00 34 81 03 05  00 35 81 03 06 00 36 81  ....4....5....6.
14F0: 03 07 00 2C 81 01 40 39  02 02 00 31 80 80 1C 15  ...,..@9...1....
1500: 03 01 00 02 80 03 04 00  34 81 03 05 00 35 81 03  ........4....5..
1510: 06 00 36 81 03 07 00 2C  81 01 40 39 02 02 00 33  ..6....,..@9...3
1520: 80 80 40 15 03 01 00 03  80 03 04 00 37 81 03 05  ..@.........7...
1530: 00 38 81 03 06 00 39 81  03 07 00 3A 81 01 40 39  .8....9....:..@9
1540: 02 02 00 35 80 80 64 15  03 01 00 03 80 03 04 00  ...5..d.........
1550: 37 81 03 05 00 38 81 03  06 00 39 81 03 07 00 3A  7....8....9....:
1560: 81 01 40 39 02 02 00 37  80 80 88 15 03 01 00 03  ..@9...7........
1570: 80 03 04 00 37 81 03 05  00 38 81 03 06 00 39 81  ....7....8....9.
1580: 03 07 00 3A 81 01 40 39  02 02 00 39 80 80 AC 15  ...:..@9...9....
1590: 03 01 00 03 80 03 04 00  3B 81 03 05 00 3C 81 03  ........;....<..
15A0: 06 00 3D 81 03 07 00 3E  81 01 40 39 02 02 00 3B  ..=....>..@9...;
15B0: 80 80 D0 15 03 01 00 03  80 03 04 00 3F 81 03 05  ............?...
15C0: 00 40 81 03 06 00 5C 80  03 07 00 41 81 01 40 39  .@....\....A..@9
15D0: 02 02 00 3D 80 80 F4 15  03 01 00 03 80 03 04 00  ...=............
15E0: 3F 81 03 05 00 40 81 03  06 00 5C 80 03 07 00 41  ?....@....\....A
15F0: 81 01 40 39 02 02 00 3F  80 80 18 16 03 01 00 03  ..@9...?........
1600: 80 03 04 00 42 81 03 05  00 43 81 03 06 00 44 81  ....B....C....D.
1610: 03 07 00 2C 81 01 40 39  02 02 00 41 80 80 3C 16  ...,..@9...A..<.
1620: 03 01 00 03 80 03 04 00  42 81 03 05 00 43 81 03  ........B....C..
1630: 06 00 44 81 03 07 00 2C  81 01 40 39 02 02 00 43  ..D....,..@9...C
1640: 80 80 60 16 03 01 00 03  80 03 04 00 42 81 03 05  ..`.........B...
1650: 00 43 81 03 06 00 44 81  03 07 00 2C 81 01 40 39  .C....D....,..@9
1660: 02 02 00 44 80 80 84 16  03 01 00 00 80 03 04 00  ...D............
1670: 45 81 03 05 00 46 81 03  06 00 47 81 03 07 00 48  E....F....G....H
1680: 81 01 40 39 02 02 00 46  80 80 A8 16 03 01 00 02  ..@9...F........
1690: 80 03 04 00 49 81 03 05  00 4A 81 03 06 00 4B 81  ....I....J....K.
16A0: 03 07 00 4C 81 01 40 39  02 02 00 48 80 80 CC 16  ...L..@9...H....
16B0: 03 01 00 03 80 03 04 00  4D 81 03 05 00 4E 81 03  ........M....N..
16C0: 06 00 4F 81 03 07 00 50  81 01 40 39 02 02 00 21  ..O....P..@9...!
16D0: 80 80 F0 16 03 01 00 00  80 03 04 00 51 81 03 05  ............Q...
16E0: 00 52 81 03 06 00 53 81  03 07 00 54 81 01 40 39  .R....S....T..@9
16F0: 02 02 00 22 80 80 14 17  03 01 00 00 80 03 04 00  ..."............
1700: 51 81 03 05 00 52 81 03  06 00 53 81 03 07 00 54  Q....R....S....T
1710: 81 01 40 39 02 02 00 23  80 80 38 17 03 01 00 00  ..@9...#..8.....
1720: 80 03 04 00 51 81 03 05  00 52 81 03 06 00 53 81  ....Q....R....S.
1730: 03 07 00 54 81 01 40 39  02 02 00 4D 80 80 5C 17  ...T..@9...M..\.
1740: 03 01 00 02 80 03 04 00  55 81 03 05 00 56 81 03  ........U....V..
1750: 06 00 57 81 03 07 00 58  81 01 40 39 02 02 00 4F  ..W....X..@9...O
1760: 80 80 80 17 03 01 00 02  80 03 04 00 55 81 03 05  ............U...
1770: 00 56 81 03 06 00 57 81  03 07 00 58 81 01 40 39  .V....W....X..@9
1780: 02 02 00 51 80 80 A4 17  03 01 00 02 80 03 04 00  ...Q............
1790: 55 81 03 05 00 56 81 03  06 00 57 81 03 07 00 58  U....V....W....X
17A0: 81 01 40 39 02 02 00 53  80 80 C8 17 03 01 00 03  ..@9...S........
17B0: 80 03 04 00 59 81 03 05  00 5A 81 03 06 00 00 80  ....Y....Z......
17C0: 03 07 00 5B 81 01 40 39  02 02 00 55 80 80 EC 17  ...[..@9...U....
17D0: 03 01 00 03 80 03 04 00  59 81 03 05 00 5A 81 03  ........Y....Z..
17E0: 06 00 00 80 03 07 00 5B  81 01 40 39 02 02 00 57  .......[..@9...W
17F0: 80 80 10 18 03 01 00 03  80 03 04 00 59 81 03 05  ............Y...
1800: 00 5A 81 03 06 00 00 80  03 07 00 5B 81 01 40 39  .Z.........[..@9
1810: 02 02 00 58 80 80 34 18  03 01 00 03 80 03 04 00  ...X..4.........
1820: 00 80 03 05 00 00 80 03  06 00 00 80 03 07 00 00  ................
1830: 80 01 40 39 02 02 00 59  80 80 58 18 03 01 00 03  ..@9...Y..X.....
1840: 80 03 04 00 00 80 03 05  00 00 80 03 06 00 00 80  ................
1850: 03 07 00 00 80 01 40 39  02 02 00 5A 80 80 7C 18  ......@9...Z..|.
1860: 03 01 00 03 80 03 04 00  00 80 03 05 00 00 80 03  ................
1870: 06 00 00 80 03 07 00 00  80 01 40 39 02 02 00 5B  ..........@9...[
1880: 80 80 A0 18 03 01 00 03  80 03 04 00 00 80 03 05  ................
1890: 00 00 80 03 06 00 00 80  03 07 00 00 80 01 40 39  ..............@9
18A0: 02 02 00 5C 80 80 C4 18  03 01 00 03 80 03 04 00  ...\............
18B0: 00 80 03 05 00 00 80 03  06 00 00 80 03 07 00 00  ................
18C0: 80 01 40 39 02 02 00 18  80 80 E8 18 03 01 00 03  ..@9............
18D0: 80 03 04 00 00 80 03 05  00 00 80 03 06 00 00 80  ................
18E0: 03 07 00 00 80 01 40 39  02 02 00 5D 80 80 0C 19  ......@9...]....
18F0: 03 01 00 03 80 03 04 00  00 80 03 05 00 00 80 03  ................
1900: 06 00 00 80 03 07 00 00  80 01 40 39 02 02 00 5E  ..........@9...^
1910: 80 80 30 19 03 01 00 03  80 03 04 00 00 80 03 05  ..0.............
1920: 00 00 80 03 06 00 00 80  03 07 00 00 80 01 40 39  ..............@9
1930: 02 02 00 5F 80 80 54 19  03 01 00 03 80 03 04 00  ..._..T.........
1940: 00 80 03 05 00 00 80 03  06 00 00 80 03 07 00 00  ................
1950: 80 01 40 39 02 02 00 60  80 80 78 19 03 01 00 03  ..@9...`..x.....
1960: 80 03 04 00 00 80 03 05  00 00 80 03 06 00 00 80  ................
1970: 03 07 00 00 80 01 40 39  02 02 00 61 80 80 9C 19  ......@9...a....
1980: 03 01 00 03 80 03 04 00  00 80 03 05 00 00 80 03  ................
1990: 06 00 00 80 03 07 00 00  80 01 40 39 02 02 00 62  ..........@9...b
19A0: 80 80 C0 19 03 01 00 03  80 03 04 00 00 80 03 05  ................
19B0: 00 00 80 03 06 00 00 80  03 07 00 00 80 01 40 39  ..............@9
19C0: 02 02 00 63 80 80 E4 19  03 01 00 03 80 03 04 00  ...c............
19D0: 00 80 03 05 00 00 80 03  06 00 00 80 03 07 00 00  ................
19E0: 80 01 40 39 02 02 00 64  80 80 08 1A 03 01 00 03  ..@9...d........
19F0: 80 03 04 00 00 80 03 05  00 00 80 03 06 00 00 80  ................
1A00: 03 07 00 00 80 01 40 39  02 02 00 65 80 80 2C 1A  ......@9...e..,.
1A10: 03 01 00 03 80 03 04 00  00 80 03 05 00 00 80 03  ................
1A20: 06 00 00 80 03 07 00 00  80 01 40 39 02 02 00 66  ..........@9...f
1A30: 80 80 50 1A 03 01 00 03  80 03 04 00 00 80 03 05  ..P.............
1A40: 00 00 80 03 06 00 00 80  03 07 00 00 80 01 40 39  ..............@9
1A50: 02 02 00 67 80 80 74 1A  03 01 00 03 80 03 04 00  ...g..t.........
1A60: 00 80 03 05 00 00 80 03  06 00 00 80 03 07 00 00  ................
1A70: 80 01 40 39 02 02 00 68  80 80 98 1A 03 01 00 03  ..@9...h........
1A80: 80 03 04 00 00 80 03 05  00 00 80 03 06 00 00 80  ................
1A90: 03 07 00 00 80 01 40 39  02 02 00 69 80 80 BC 1A  ......@9...i....
1AA0: 03 01 00 03 80 03 04 00  00 80 03 05 00 00 80 03  ................
1AB0: 06 00 00 80 03 07 00 00  80 01 40 39 02 02 00 6A  ..........@9...j
1AC0: 80 80 E0 1A 03 01 00 03  80 03 04 00 00 80 03 05  ................
1AD0: 00 00 80 03 06 00 00 80  03 07 00 00 80 01 40 39  ..............@9
1AE0: 02 02 00 6B 80 80 04 1B  03 01 00 03 80 03 04 00  ...k............
1AF0: 00 80 03 05 00 00 80 03  06 00 00 80 03 07 00 00  ................
1B00: 80 01 40 39 02 02 00 1C  80 80 28 1B 03 01 00 03  ..@9......(.....
1B10: 80 03 04 00 00 80 03 05  00 00 80 03 06 00 00 80  ................
1B20: 03 07 00 00 80 01 40 39  02 02 00 1D 80 80 4C 1B  ......@9......L.
1B30: 03 01 00 03 80 03 04 00  00 80 03 05 00 00 80 03  ................
1B40: 06 00 00 80 03 07 00 00  80 01 40 39 02 02 00 1E  ..........@9....
1B50: 80 80 70 1B 03 01 00 03  80 03 04 00 00 80 03 05  ..p.............
1B60: 00 00 80 03 06 00 00 80  03 07 00 00 80 01 40 39  ..............@9
1B70: 02 02 00 6C 80 80 94 1B  03 01 00 03 80 03 04 00  ...l............
1B80: 00 80 03 05 00 00 80 03  06 00 00 80 03 07 00 00  ................
1B90: 80 01 40 39 02 02 00 6D  80 80 B8 1B 03 01 00 03  ..@9...m........
1BA0: 80 03 04 00 00 80 03 05  00 00 80 03 06 00 00 80  ................
1BB0: 03 07 00 00 80 01 40 39  02 02 00 6E 80 80 DC 1B  ......@9...n....
1BC0: 03 01 00 03 80 03 04 00  00 80 03 05 00 00 80 03  ................
1BD0: 06 00 00 80 03 07 00 00  80 01 40 39 02 02 00 6F  ..........@9...o
1BE0: 80 80 00 1C 03 01 00 03  80 03 04 00 00 80 03 05  ................
1BF0: 00 00 80 03 06 00 00 80  03 07 00 00 80 01 40 39  ..............@9
1C00: 02 02 00 70 80 80 24 1C  03 01 00 03 80 03 04 00  ...p..$.........
1C10: 00 80 03 05 00 00 80 03  06 00 00 80 03 07 00 00  ................
1C20: 80 01 40 39 02 02 00 71  80 80 48 1C 03 01 00 03  ..@9...q..H.....
1C30: 80 03 04 00 00 80 03 05  00 00 80 03 06 00 00 80  ................
1C40: 03 07 00 00 80 01 40 39  02 02 00 72 80 80 6C 1C  ......@9...r..l.
1C50: 03 01 00 03 80 03 04 00  00 80 03 05 00 00 80 03  ................
1C60: 06 00 00 80 03 07 00 00  80 01 40 39 02 02 00 49  ..........@9...I
1C70: 80 80 90 1C 03 01 00 03  80 03 04 00 00 80 03 05  ................
1C80: 00 00 80 03 06 00 00 80  03 07 00 00 80 01 40 39  ..............@9
1C90: 02 02 00 4A 80 80 B4 1C  03 01 00 03 80 03 04 00  ...J............
1CA0: 00 80 03 05 00 00 80 03  06 00 00 80 03 07 00 00  ................
1CB0: 80 01 40 39 02 02 00 4B  80 80 D8 1C 03 01 00 03  ..@9...K........
1CC0: 80 03 04 00 00 80 03 05  00 00 80 03 06 00 00 80  ................
1CD0: 03 07 00 00 80 01 40 39  02 02 00 73 80 80 FC 1C  ......@9...s....
1CE0: 03 01 00 03 80 03 04 00  00 80 03 05 00 00 80 03  ................
1CF0: 06 00 00 80 03 07 00 00  80 01 40 39 02 02 00 74  ..........@9...t
1D00: 80 80 20 1D 03 01 00 03  80 03 04 00 00 80 03 05  .. .............
1D10: 00 00 80 03 06 00 00 80  03 07 00 00 80 01 40 39  ..............@9
1D20: 02 02 00 75 80 80 44 1D  03 01 00 03 80 03 04 00  ...u..D.........
1D30: 00 80 03 05 00 00 80 03  06 00 00 80 03 07 00 00  ................
1D40: 80 01 40 39 02 02 00 76  80 80 68 1D 03 01 00 03  ..@9...v..h.....
1D50: 80 03 04 00 00 80 03 05  00 00 80 03 06 00 00 80  ................
1D60: 03 07 00 00 80 01 40 39  02 02 00 77 80 80 8C 1D  ......@9...w....
1D70: 03 01 00 03 80 03 04 00  00 80 03 05 00 00 80 03  ................
1D80: 06 00 00 80 03 07 00 00  80 01 40 39 02 02 00 78  ..........@9...x
1D90: 80 80 B0 1D 03 01 00 03  80 03 04 00 00 80 03 05  ................
1DA0: 00 00 80 03 06 00 00 80  03 07 00 00 80 01 40 39  ..............@9
1DB0: 02 02 00 79 80 80 D4 1D  03 01 00 03 80 03 04 00  ...y............
1DC0: 00 80 03 05 00 00 80 03  06 00 00 80 03 07 00 00  ................
1DD0: 80 01 40 39 02 02 00 7A  80 80 F8 1D 03 01 00 03  ..@9...z........
1DE0: 80 03 04 00 00 80 03 05  00 00 80 03 06 00 00 80  ................
1DF0: 03 07 00 00 80 01 40 39  02 02 00 7B 80 80 1C 1E  ......@9...{....
1E00: 03 01 00 03 80 03 04 00  00 80 03 05 00 00 80 03  ................
1E10: 06 00 00 80 03 07 00 00  80 01 40 39 02 02 00 7C  ..........@9...|
1E20: 80 80 40 1E 03 01 00 03  80 03 04 00 00 80 03 05  ..@.............
1E30: 00 00 80 03 06 00 00 80  03 07 00 00 80 01 40 39  ..............@9
1E40: 02 02 00 7D 80 80 64 1E  03 01 00 03 80 03 04 00  ...}..d.........
1E50: 00 80 03 05 00 00 80 03  06 00 00 80 03 07 00 00  ................
1E60: 80 01 40 39 02 02 00 7E  80 80 88 1E 03 01 00 03  ..@9...~........
1E70: 80 03 04 00 00 80 03 05  00 00 80 03 06 00 00 80  ................
1E80: 03 07 00 00 80 01 40 39  02 02 00 7F 80 80 AC 1E  ......@9........
1E90: 03 01 00 03 80 03 04 00  00 80 03 05 00 00 80 03  ................
1EA0: 06 00 00 80 03 07 00 00  80 01 40 39 02 02 00 80  ..........@9....
1EB0: 80 80 D0 1E 03 01 00 03  80 03 04 00 00 80 03 05  ................
1EC0: 00 00 80 03 06 00 00 80  03 07 00 00 80 01 40 39  ..............@9
1ED0: 02 02 00 81 80 80 F4 1E  03 01 00 03 80 03 04 00  ................
1EE0: 00 80 03 05 00 00 80 03  06 00 00 80 03 07 00 00  ................
1EF0: 80 01 40 39 02 02 00 82  80 80 18 1F 03 01 00 03  ..@9............
1F00: 80 03 04 00 00 80 03 05  00 00 80 03 06 00 00 80  ................
1F10: 03 07 00 00 80 01 40 39  02 02 00 16 80 80 3C 1F  ......@9......<.
1F20: 03 01 00 03 80 03 04 00  00 80 03 05 00 00 80 03  ................
1F30: 06 00 00 80 03 07 00 00  80 01 40 39 02 02 00 83  ..........@9....
1F40: 80 80 60 1F 03 01 00 03  80 03 04 00 00 80 03 05  ..`.............
1F50: 00 00 80 03 06 00 00 80  03 07 00 00 80 01 40 39  ..............@9
1F60: 02 02 00 84 80 80 84 1F  03 01 00 03 80 03 04 00  ................
1F70: 00 80 03 05 00 00 80 03  06 00 00 80 03 07 00 00  ................
1F80: 80 01 40 39 02 02 00 85  80 80 A8 1F 03 01 00 03  ..@9............
1F90: 80 03 04 00 00 80 03 05  00 00 80 03 06 00 00 80  ................
1FA0: 03 07 00 00 80 01 40 39  02 02 00 86 80 80 CC 1F  ......@9........
1FB0: 03 01 00 03 80 03 04 00  00 80 03 05 00 00 80 03  ................
1FC0: 06 00 00 80 03 07 00 00  80 01 40 39 02 02 00 87  ..........@9....
1FD0: 80 80 F0 1F 03 01 00 03  80 03 04 00 00 80 03 05  ................
1FE0: 00 00 80 03 06 00 00 80  03 07 00 00 80 01 40 39  ..............@9
1FF0: 02 02 00 88 80 80 14 20  03 01 00 03 80 03 04 00  ....... ........
2000: 00 80 03 05 00 00 80 03  06 00 00 80 03 07 00 00  ................
2010: 80 01 40 39 02 02 00 89  80 80 38 20 03 01 00 03  ..@9......8 ....
2020: 80 03 04 00 00 80 03 05  00 00 80 03 06 00 00 80  ................
2030: 03 07 00 00 80 01 40 39  02 02 00 8A 80 80 5C 20  ......@9......\ 
2040: 03 01 00 03 80 03 04 00  00 80 03 05 00 00 80 03  ................
2050: 06 00 00 80 03 07 00 00  80 01 40 39 02 02 00 8B  ..........@9....
2060: 80 80 80 20 03 01 00 03  80 03 04 00 00 80 03 05  ... ............
2070: 00 00 80 03 06 00 00 80  03 07 00 00 80 01 40 39  ..............@9
2080: 02 02 00 8C 80 80 A4 20  03 01 00 03 80 03 04 00  ....... ........
2090: 00 80 03 05 00 00 80 03  06 00 00 80 03 07 00 00  ................
20A0: 80 01 40 39 02 02 00 8D  80 80 C8 20 03 01 00 03  ..@9....... ....
20B0: 80 03 04 00 00 80 03 05  00 00 80 03 06 00 00 80  ................
20C0: 03 07 00 00 80 01 40 39  02 02 00 8E 80 80 EC 20  ......@9....... 
20D0: 03 01 00 03 80 03 04 00  00 80 03 05 00 00 80 03  ................
20E0: 06 00 00 80 03 07 00 00  80 01 40 39 02 02 00 8F  ..........@9....
20F0: 80 80 10 21 03 01 00 03  80 03 04 00 00 80 03 05  ...!............
2100: 00 00 80 03 06 00 00 80  03 07 00 00 80 01 40 39  ..............@9
2110: 02 02 00 90 80 80 34 21  03 01 00 03 80 03 04 00  ......4!........
2120: 00 80 03 05 00 00 80 03  06 00 00 80 03 07 00 00  ................
2130: 80 01 40 39 02 02 00 91  80 80 58 21 03 01 00 03  ..@9......X!....
2140: 80 03 04 00 00 80 03 05  00 00 80 03 06 00 00 80  ................
2150: 03 07 00 00 80 01 40 39  02 02 00 92 80 80 7C 21  ......@9......|!
2160: 03 01 00 03 80 03 04 00  00 80 03 05 00 00 80 03  ................
2170: 06 00 00 80 03 07 00 00  80 01 40 39 02 02 00 93  ..........@9....
2180: 80 80 A0 21 03 01 00 03  80 03 04 00 00 80 03 05  ...!............
2190: 00 00 80 03 06 00 00 80  03 07 00 00 80 01 40 39  ..............@9
21A0: 02 02 00 94 80 80 C4 21  03 01 00 03 80 03 04 00  .......!........
21B0: 00 80 03 05 00 00 80 03  06 00 00 80 03 07 00 00  ................
21C0: 80 01 40 39 02 02 00 95  80 80 E8 21 03 01 00 03  ..@9.......!....
21D0: 80 03 04 00 00 80 03 05  00 00 80 03 06 00 00 80  ................
21E0: 03 07 00 00 80 01 40 39  02 02 00 96 80 80 0C 22  ......@9......."
21F0: 03 01 00 03 80 03 04 00  00 80 03 05 00 00 80 03  ................
2200: 06 00 00 80 03 07 00 00  80 01 40 39 02 02 00 97  ..........@9....
2210: 80 80 30 22 03 01 00 03  80 03 04 00 00 80 03 05  ..0"............
2220: 00 00 80 03 06 00 00 80  03 07 00 00 80 01 40 39  ..............@9
2230: 02 02 00 98 80 80 54 22  03 01 00 03 80 03 04 00  ......T"........
2240: 00 80 03 05 00 00 80 03  06 00 00 80 03 07 00 00  ................
2250: 80 01 40 39 02 02 00 99  80 80 78 22 03 01 00 03  ..@9......x"....
2260: 80 03 04 00 00 80 03 05  00 00 80 03 06 00 00 80  ................
2270: 03 07 00 00 80 01 40 39  02 02 00 9A 80 80 9C 22  ......@9......."
2280: 03 01 00 03 80 03 04 00  00 80 03 05 00 00 80 03  ................
2290: 06 00 00 80 03 07 00 00  80 01 40 39 02 02 00 9B  ..........@9....
22A0: 80 80 C0 22 03 01 00 03  80 03 04 00 00 80 03 05  ..."............
22B0: 00 00 80 03 06 00 00 80  03 07 00 00 80 01 40 39  ..............@9
22C0: 02 02 00 9C 80 80 E4 22  03 01 00 03 80 03 04 00  ......."........
22D0: 00 80 03 05 00 00 80 03  06 00 00 80 03 07 00 00  ................
22E0: 80 01 40 39 02 02 00 9D  80 80 08 23 03 01 00 03  ..@9.......#....
22F0: 80 03 04 00 00 80 03 05  00 00 80 03 06 00 00 80  ................
2300: 03 07 00 00 80 01 40 39  02 02 00 9E 80 80 2C 23  ......@9......,#
2310: 03 01 00 03 80 03 04 00  00 80 03 05 00 00 80 03  ................
2320: 06 00 00 80 03 07 00 00  80 01 40 39 02 02 00 9F  ..........@9....
2330: 80 80 50 23 03 01 00 03  80 03 04 00 00 80 03 05  ..P#............
2340: 00 00 80 03 06 00 00 80  03 07 00 00 80 01 40 39  ..............@9
2350: 02 02 00 A0 80 80 74 23  03 01 00 03 80 03 04 00  ......t#........
2360: 00 80 03 05 00 00 80 03  06 00 00 80 03 07 00 00  ................
2370: 80 01 40 39 02 02 00 A1  80 80 98 23 03 01 00 03  ..@9.......#....
2380: 80 03 04 00 00 80 03 05  00 00 80 03 06 00 00 80  ................
2390: 03 07 00 00 80 01 40 39  02 02 00 A2 80 80 BC 23  ......@9.......#
23A0: 03 01 00 03 80 03 04 00  00 80 03 05 00 00 80 03  ................
23B0: 06 00 00 80 03 07 00 00  80 01 40 39 02 02 00 A3  ..........@9....
23C0: 80 80 E0 23 03 01 00 03  80 03 04 00 00 80 03 05  ...#............
23D0: 00 00 80 03 06 00 00 80  03 07 00 00 80 01 40 39  ..............@9
23E0: 02 02 00 A4 80 80 04 24  03 01 00 03 80 03 04 00  .......$........
23F0: 00 80 03 05 00 00 80 03  06 00 00 80 03 07 00 00  ................
2400: 80 01 40 39 02 02 00 A5  80 80 28 24 03 01 00 03  ..@9......($....
2410: 80 03 04 00 00 80 03 05  00 00 80 03 06 00 00 80  ................
2420: 03 07 00 00 80 01 40 39  02 02 00 A6 80 80 4C 24  ......@9......L$
2430: 03 01 00 03 80 03 04 00  00 80 03 05 00 00 80 03  ................
2440: 06 00 00 80 03 07 00 00  80 01 40 39 02 02 00 A7  ..........@9....
2450: 80 80 70 24 03 01 00 03  80 03 04 00 00 80 03 05  ..p$............
2460: 00 00 80 03 06 00 00 80  03 07 00 00 80 01 40 39  ..............@9
2470: 02 02 00 A8 80 80 94 24  03 01 00 03 80 03 04 00  .......$........
2480: 00 80 03 05 00 00 80 03  06 00 00 80 03 07 00 00  ................
2490: 80 01 40 39 02 02 00 A9  80 80 B8 24 03 01 00 03  ..@9.......$....
24A0: 80 03 04 00 00 80 03 05  00 00 80 03 06 00 00 80  ................
24B0: 03 07 00 00 80 01 40 39  02 02 00 AA 80 80 DC 24  ......@9.......$
24C0: 03 01 00 03 80 03 04 00  00 80 03 05 00 00 80 03  ................
24D0: 06 00 00 80 03 07 00 00  80 01 40 39 02 02 00 AB  ..........@9....
24E0: 80 80 00 25 03 01 00 03  80 03 04 00 00 80 03 05  ...%............
24F0: 00 00 80 03 06 00 00 80  03 07 00 00 80 01 40 39  ..............@9
2500: 02 02 00 AC 80 80 24 25  03 01 00 03 80 03 04 00  ......$%........
2510: 00 80 03 05 00 00 80 03  06 00 00 80 03 07 00 00  ................
2520: 80 01 40 39 02 02 00 AD  80 80 48 25 03 01 00 03  ..@9......H%....
2530: 80 03 04 00 00 80 03 05  00 00 80 03 06 00 00 80  ................
2540: 03 07 00 00 80 01 40 39  02 02 00 AE 80 80 6C 25  ......@9......l%
2550: 03 01 00 03 80 03 04 00  00 80 03 05 00 00 80 03  ................
2560: 06 00 00 80 03 07 00 00  80 01 40 39 02 02 00 AF  ..........@9....
2570: 80 80 90 25 03 01 00 03  80 03 04 00 00 80 03 05  ...%............
2580: 00 00 80 03 06 00 00 80  03 07 00 00 80 01 40 39  ..............@9
2590: 02 02 00 B0 80 80 B4 25  03 01 00 03 80 03 04 00  .......%........
25A0: 00 80 03 05 00 00 80 03  06 00 00 80 03 07 00 00  ................
25B0: 80 01 40 39 02 02 00 B1  80 80 D8 25 03 01 00 03  ..@9.......%....
25C0: 80 03 04 00 00 80 03 05  00 00 80 03 06 00 00 80  ................
25D0: 03 07 00 00 80 01 40 39  02 02 00 B2 80 80 FC 25  ......@9.......%
25E0: 03 01 00 03 80 03 04 00  00 80 03 05 00 00 80 03  ................
25F0: 06 00 00 80 03 07 00 00  80 01 40 39 02 02 00 B3  ..........@9....
2600: 80 80 20 26 03 01 00 03  80 03 04 00 00 80 03 05  .. &............
2610: 00 00 80 03 06 00 00 80  03 07 00 00 80 01 40 39  ..............@9
2620: 02 02 00 B4 80 80 44 26  03 01 00 03 80 03 04 00  ......D&........
2630: 00 80 03 05 00 00 80 03  06 00 00 80 03 07 00 00  ................
2640: 80 01 40 39 02 02 00 B5  80 80 68 26 03 01 00 03  ..@9......h&....
2650: 80 03 04 00 00 80 03 05  00 00 80 03 06 00 00 80  ................
2660: 03 07 00 00 80 01 40 39  02 02 00 B6 80 80 8C 26  ......@9.......&
2670: 03 01 00 03 80 03 04 00  00 80 03 05 00 00 80 03  ................
2680: 06 00 00 80 03 07 00 00  80 01 40 39 02 02 00 B7  ..........@9....
2690: 80 80 B0 26 03 01 00 03  80 03 04 00 00 80 03 05  ...&............
26A0: 00 00 80 03 06 00 00 80  03 07 00 00 80 01 40 39  ..............@9
26B0: 02 02 00 B8 80 80 D4 26  03 01 00 03 80 03 04 00  .......&........
26C0: 00 80 03 05 00 00 80 03  06 00 00 80 03 07 00 00  ................
26D0: 80 01 40 39 02 02 00 B9  80 80 F8 26 03 01 00 03  ..@9.......&....
26E0: 80 03 04 00 00 80 03 05  00 00 80 03 06 00 00 80  ................
26F0: 03 07 00 00 80 01 40 39  02 02 00 BA 80 80 1C 27  ......@9.......'
2700: 03 01 00 03 80 03 04 00  00 80 03 05 00 00 80 03  ................
2710: 06 00 00 80 03 07 00 00  80 01 40 39 02 02 00 BB  ..........@9....
2720: 80 80 40 27 03 01 00 03  80 03 04 00 00 80 03 05  ..@'............
2730: 00 00 80 03 06 00 00 80  03 07 00 00 80 01 40 39  ..............@9
2740: 02 02 00 BC 80 80 64 27  03 01 00 03 80 03 04 00  ......d'........
2750: 00 80 03 05 00 00 80 03  06 00 00 80 03 07 00 00  ................
2760: 80 01 40 39 02 02 00 BD  80 80 88 27 03 01 00 03  ..@9.......'....
2770: 80 03 04 00 00 80 03 05  00 00 80 03 06 00 00 80  ................
2780: 03 07 00 00 80 01 40 39  02 02 00 BE 80 80 AC 27  ......@9.......'
2790: 03 01 00 03 80 03 04 00  00 80 03 05 00 00 80 03  ................
27A0: 06 00 00 80 03 07 00 00  80 01 40 39 02 02 00 BF  ..........@9....
27B0: 80 80 D0 27 03 01 00 03  80 03 04 00 00 80 03 05  ...'............
27C0: 00 00 80 03 06 00 00 80  03 07 00 00 80 01 40 39  ..............@9
27D0: 02 02 00 C0 80 80 F4 27  03 01 00 03 80 03 04 00  .......'........
27E0: 00 80 03 05 00 00 80 03  06 00 00 80 03 07 00 00  ................
27F0: 80 01 40 39 02 02 00 C1  80 80 18 28 03 01 00 03  ..@9.......(....
2800: 80 03 04 00 00 80 03 05  00 00 80 03 06 00 00 80  ................
2810: 03 07 00 00 80 01 40 39  02 02 00 C2 80 80 3C 28  ......@9......<(
2820: 03 01 00 03 80 03 04 00  00 80 03 05 00 00 80 03  ................
2830: 06 00 00 80 03 07 00 00  80 01 40 39 02 02 00 C3  ..........@9....
2840: 80 80 60 28 03 01 00 03  80 03 04 00 00 80 03 05  ..`(............
2850: 00 00 80 03 06 00 00 80  03 07 00 00 80 01 40 39  ..............@9
2860: 02 02 00 C4 80 80 84 28  03 01 00 03 80 03 04 00  .......(........
2870: 00 80 03 05 00 00 80 03  06 00 00 80 03 07 00 00  ................
2880: 80 01 40 39 02 02 00 C5  80 80 A8 28 03 01 00 03  ..@9.......(....
2890: 80 03 04 00 00 80 03 05  00 00 80 03 06 00 00 80  ................
28A0: 03 07 00 00 80 01 40 39  02 02 00 C6 80 80 CC 28  ......@9.......(
28B0: 03 01 00 03 80 03 04 00  00 80 03 05 00 00 80 03  ................
28C0: 06 00 00 80 03 07 00 00  80 01 40 39 02 02 00 C7  ..........@9....
28D0: 80 80 F0 28 03 01 00 03  80 03 04 00 00 80 03 05  ...(............
28E0: 00 00 80 03 06 00 00 80  03 07 00 00 80 01 40 39  ..............@9
28F0: 02 02 00 C8 80 80 14 29  03 01 00 03 80 03 04 00  .......)........
2900: 00 80 03 05 00 00 80 03  06 00 00 80 03 07 00 00  ................
2910: 80 01 40 39 02 02 00 C9  80 80 38 29 03 01 00 03  ..@9......8)....
2920: 80 03 04 00 00 80 03 05  00 00 80 03 06 00 00 80  ................
2930: 03 07 00 00 80 01 40 39  02 02 00 CA 80 80 5C 29  ......@9......\)
2940: 03 01 00 03 80 03 04 00  00 80 03 05 00 00 80 03  ................
2950: 06 00 00 80 03 07 00 00  80 01 40 39 02 02 00 CB  ..........@9....
2960: 80 80 80 29 03 01 00 03  80 03 04 00 00 80 03 05  ...)............
2970: 00 00 80 03 06 00 00 80  03 07 00 00 80 01 40 39  ..............@9
2980: 02 02 00 CC 80 80 A4 29  03 01 00 03 80 03 04 00  .......)........
2990: 00 80 03 05 00 00 80 03  06 00 00 80 03 07 00 00  ................
29A0: 80 01 40 39 02 02 00 CD  80 80 C8 29 03 01 00 03  ..@9.......)....
29B0: 80 03 04 00 00 80 03 05  00 00 80 03 06 00 00 80  ................
29C0: 03 07 00 00 80 01 40 39  02 02 00 CE 80 80 EC 29  ......@9.......)
29D0: 03 01 00 03 80 03 04 00  00 80 03 05 00 00 80 03  ................
29E0: 06 00 00 80 03 07 00 00  80 01 40 39 02 02 00 CF  ..........@9....
29F0: 80 80 10 2A 03 01 00 03  80 03 04 00 00 80 03 05  ...*............
2A00: 00 00 80 03 06 00 00 80  03 07 00 00 80 01 40 39  ..............@9
2A10: 02 02 00 D0 80 80 34 2A  03 01 00 03 80 03 04 00  ......4*........
2A20: 00 80 03 05 00 00 80 03  06 00 00 80 03 07 00 00  ................
2A30: 80 01 40 39 02 02 00 D1  80 80 58 2A 03 01 00 03  ..@9......X*....
2A40: 80 03 04 00 00 80 03 05  00 00 80 03 06 00 00 80  ................
2A50: 03 07 00 00 80 01 40 39  02 02 00 D2 80 80 7C 2A  ......@9......|*
2A60: 03 01 00 03 80 03 04 00  00 80 03 05 00 00 80 03  ................
2A70: 06 00 00 80 03 07 00 00  80 01 40 39 02 02 00 D3  ..........@9....
2A80: 80 80 A0 2A 03 01 00 03  80 03 04 00 00 80 03 05  ...*............
2A90: 00 00 80 03 06 00 00 80  03 07 00 00 80 01 40 39  ..............@9
2AA0: 02 02 00 D4 80 80 C4 2A  03 01 00 03 80 03 04 00  .......*........
2AB0: 00 80 03 05 00 00 80 03  06 00 00 80 03 07 00 00  ................
2AC0: 80 01 40 39 02 02 00 D5  80 80 E8 2A 03 01 00 03  ..@9.......*....
2AD0: 80 03 04 00 00 80 03 05  00 00 80 03 06 00 00 80  ................
2AE0: 03 07 00 00 80 01 40 39  02 02 00 D6 80 80 0C 2B  ......@9.......+
2AF0: 03 01 00 03 80 03 04 00  00 80 03 05 00 00 80 03  ................
2B00: 06 00 00 80 03 07 00 00  80 01 40 39 02 02 00 D7  ..........@9....
2B10: 80 80 30 2B 03 01 00 03  80 03 04 00 00 80 03 05  ..0+............
2B20: 00 00 80 03 06 00 00 80  03 07 00 00 80 01 40 39  ..............@9
2B30: 02 02 00 D8 80 80 54 2B  03 01 00 03 80 03 04 00  ......T+........
2B40: 00 80 03 05 00 00 80 03  06 00 00 80 03 07 00 00  ................
2B50: 80 01 40 39 02 02 00 D9  80 80 78 2B 03 01 00 03  ..@9......x+....
2B60: 80 03 04 00 00 80 03 05  00 00 80 03 06 00 00 80  ................
2B70: 03 07 00 00 80 01 40 39  02 02 00 DA 80 80 9C 2B  ......@9.......+
2B80: 03 01 00 03 80 03 04 00  00 80 03 05 00 00 80 03  ................
2B90: 06 00 00 80 03 07 00 00  80 01 40 39 02 02 00 DB  ..........@9....
2BA0: 80 80 C0 2B 03 01 00 03  80 03 04 00 00 80 03 05  ...+............
2BB0: 00 00 80 03 06 00 00 80  03 07 00 00 80 01 40 39  ..............@9
2BC0: 02 02 00 DC 80 80 E4 2B  03 01 00 03 80 03 04 00  .......+........
2BD0: 00 80 03 05 00 00 80 03  06 00 00 80 03 07 00 00  ................
2BE0: 80 01 40 39 02 02 00 29  80 80 08 2C 03 01 00 03  ..@9...)...,....
2BF0: 80 03 04 00 00 80 03 05  00 00 80 03 06 00 00 80  ................
2C00: 03 07 00 00 80 01 40 39  02 02 00 2A 80 80 2C 2C  ......@9...*..,,
2C10: 03 01 00 03 80 03 04 00  00 80 03 05 00 00 80 03  ................
2C20: 06 00 00 80 03 07 00 00  80 01 40 39 02 02 00 2C  ..........@9...,
2C30: 80 80 50 2C 03 01 00 03  80 03 04 00 00 80 03 05  ..P,............
2C40: 00 00 80 03 06 00 00 80  03 07 00 00 80 01 40 39  ..............@9
2C50: 02 02 00 45 80 80 74 2C  03 01 00 03 80 03 04 00  ...E..t,........
2C60: 00 80 03 05 00 00 80 03  06 00 00 80 03 07 00 00  ................
2C70: 80 01 40 39 02 02 00 DD  80 80 98 2C 03 01 00 03  ..@9.......,....
2C80: 80 03 04 00 00 80 03 05  00 00 80 03 06 00 00 80  ................
2C90: 03 07 00 00 80 01 40 39  02 02 00 DE 80 80 BC 2C  ......@9.......,
2CA0: 03 01 00 03 80 03 04 00  00 80 03 05 00 00 80 03  ................
2CB0: 06 00 00 80 03 07 00 00  80 01 40 39 02 02 00 DF  ..........@9....
2CC0: 80 80 E0 2C 03 01 00 03  80 03 04 00 00 80 03 05  ...,............
2CD0: 00 00 80 03 06 00 00 80  03 07 00 00 80 01 40 39  ..............@9
2CE0: 02 02 00 E0 80 80 04 2D  03 01 00 03 80 03 04 00  .......-........
2CF0: 00 80 03 05 00 00 80 03  06 00 00 80 03 07 00 00  ................
2D00: 80 01 40 39 02 02 00 E1  80 80 28 2D 03 01 00 03  ..@9......(-....
2D10: 80 03 04 00 00 80 03 05  00 00 80 03 06 00 00 80  ................
2D20: 03 07 00 00 80 01 40 39  02 02 00 E2 80 80 4C 2D  ......@9......L-
2D30: 03 01 00 03 80 03 04 00  00 80 03 05 00 00 80 03  ................
2D40: 06 00 00 80 03 07 00 00  80 01 40 39 02 02 00 E3  ..........@9....
2D50: 80 80 70 2D 03 01 00 03  80 03 04 00 00 80 03 05  ..p-............
2D60: 00 00 80 03 06 00 00 80  03 07 00 00 80 01 40 39  ..............@9
2D70: 02 02 00 E4 80 80 94 2D  03 01 00 03 80 03 04 00  .......-........
2D80: 00 80 03 05 00 00 80 03  06 00 00 80 03 07 00 00  ................
2D90: 80 01 40 39 02 02 00 E5  80 80 B8 2D 03 01 00 03  ..@9.......-....
2DA0: 80 03 04 00 00 80 03 05  00 00 80 03 06 00 00 80  ................
2DB0: 03 07 00 00 80 01 40 39  02 02 00 E6 80 80 DC 2D  ......@9.......-
2DC0: 03 01 00 03 80 03 04 00  00 80 03 05 00 00 80 03  ................
2DD0: 06 00 00 80 03 07 00 00  80 01 40 39 02 02 00 E7  ..........@9....
2DE0: 80 80 00 2E 03 01 00 03  80 03 04 00 00 80 03 05  ................
2DF0: 00 00 80 03 06 00 00 80  03 07 00 00 80 01 40 39  ..............@9
2E00: 02 02 00 E8 80 80 24 2E  03 01 00 03 80 03 04 00  ......$.........
2E10: 00 80 03 05 00 00 80 03  06 00 00 80 03 07 00 00  ................
2E20: 80 01 40 39 02 02 00 E9  80 80 48 2E 03 01 00 03  ..@9......H.....
2E30: 80 03 04 00 00 80 03 05  00 00 80 03 06 00 00 80  ................
2E40: 03 07 00 00 80 01 40 39  02 02 00 EA 80 80 6C 2E  ......@9......l.
2E50: 03 01 00 03 80 03 04 00  00 80 03 05 00 00 80 03  ................
2E60: 06 00 00 80 03 07 00 00  80 01 40 39 02 02 00 EB  ..........@9....
2E70: 80 80 90 2E 03 01 00 03  80 03 04 00 00 80 03 05  ................
2E80: 00 00 80 03 06 00 00 80  03 07 00 00 80 01 40 39  ..............@9
2E90: 02 02 00 19 80 80 B4 2E  03 01 00 03 80 03 04 00  ................
2EA0: 00 80 03 05 00 00 80 03  06 00 00 80 03 07 00 00  ................
2EB0: 80 01 40 39 02 02 00 17  80 80 D8 2E 03 01 00 03  ..@9............
2EC0: 80 03 04 00 00 80 03 05  00 00 80 03 06 00 00 80  ................
2ED0: 03 07 00 00 80 01 40 39  02 02 00 2E 80 80 FC 2E  ......@9........
2EE0: 03 01 00 03 80 03 04 00  00 80 03 05 00 00 80 03  ................
2EF0: 06 00 00 80 03 07 00 00  80 01 40 39 02 02 00 30  ..........@9...0
2F00: 80 80 20 2F 03 01 00 03  80 03 04 00 00 80 03 05  .. /............
2F10: 00 00 80 03 06 00 00 80  03 07 00 00 80 01 40 39  ..............@9
2F20: 02 02 00 EC 80 80 44 2F  03 01 00 03 80 03 04 00  ......D/........
2F30: 00 80 03 05 00 00 80 03  06 00 00 80 03 07 00 00  ................
2F40: 80 01 40 39 02 02 00 ED  80 80 68 2F 03 01 00 03  ..@9......h/....
2F50: 80 03 04 00 00 80 03 05  00 00 80 03 06 00 00 80  ................
2F60: 03 07 00 00 80 01 40 39  02 02 00 EE 80 80 8C 2F  ......@9......./
2F70: 03 01 00 03 80 03 04 00  00 80 03 05 00 00 80 03  ................
2F80: 06 00 00 80 03 07 00 00  80 01 40 39 02 02 00 EF  ..........@9....
2F90: 80 80 B0 2F 03 01 00 03  80 03 04 00 00 80 03 05  .../............
2FA0: 00 00 80 03 06 00 00 80  03 07 00 00 80 01 40 39  ..............@9
2FB0: 02 02 00 F0 80 80 D4 2F  03 01 00 03 80 03 04 00  ......./........
2FC0: 00 80 03 05 00 00 80 03  06 00 00 80 03 07 00 00  ................
2FD0: 80 01 40 39 02 02 00 F1  80 80 F8 2F 03 01 00 03  ..@9......./....
2FE0: 80 03 04 00 00 80 03 05  00 00 80 03 06 00 00 80  ................
2FF0: 03 07 00 00 80 01 40 39  02 02 00 F2 80 80 1C 30  ......@9.......0
3000: 03 01 00 03 80 03 04 00  00 80 03 05 00 00 80 03  ................
3010: 06 00 00 80 03 07 00 00  80 01 40 39 02 02 00 F3  ..........@9....
3020: 80 80 40 30 03 01 00 03  80 03 04 00 00 80 03 05  ..@0............
3030: 00 00 80 03 06 00 00 80  03 07 00 00 80 01 40 39  ..............@9
3040: 02 02 00 F4 80 80 64 30  03 01 00 03 80 03 04 00  ......d0........
3050: 00 80 03 05 00 00 80 03  06 00 00 80 03 07 00 00  ................
3060: 80 01 40 39 02 02 00 F5  80 80 88 30 03 01 00 03  ..@9.......0....
3070: 80 03 04 00 00 80 03 05  00 00 80 03 06 00 00 80  ................
3080: 03 07 00 00 80 01 40 39  02 02 00 F6 80 80 AC 30  ......@9.......0
3090: 03 01 00 03 80 03 04 00  00 80 03 05 00 00 80 03  ................
30A0: 06 00 00 80 03 07 00 00  80 01 40 39 02 02 00 F7  ..........@9....
30B0: 80 80 D0 30 03 01 00 03  80 03 04 00 00 80 03 05  ...0............
30C0: 00 00 80 03 06 00 00 80  03 07 00 00 80 01 40 39  ..............@9
30D0: 02 02 00 F8 80 80 F4 30  03 01 00 03 80 03 04 00  .......0........
30E0: 00 80 03 05 00 00 80 03  06 00 00 80 03 07 00 00  ................
30F0: 80 01 40 39 02 02 00 F9  80 80 18 31 03 01 00 03  ..@9.......1....
3100: 80 03 04 00 00 80 03 05  00 00 80 03 06 00 00 80  ................
3110: 03 07 00 00 80 01 40 39  02 02 00 FA 80 80 3C 31  ......@9......<1
3120: 03 01 00 03 80 03 04 00  00 80 03 05 00 00 80 03  ................
3130: 06 00 00 80 03 07 00 00  80 01 40 39 02 02 00 FB  ..........@9....
3140: 80 80 60 31 03 01 00 03  80 03 04 00 00 80 03 05  ..`1............
3150: 00 00 80 03 06 00 00 80  03 07 00 00 80 01 40 39  ..............@9
3160: 02 02 00 FC 80 80 84 31  03 01 00 03 80 03 04 00  .......1........
3170: 00 80 03 05 00 00 80 03  06 00 00 80 03 07 00 00  ................
3180: 80 01 40 39 02 02 00 FD  80 80 A8 31 03 01 00 03  ..@9.......1....
3190: 80 03 04 00 00 80 03 05  00 00 80 03 06 00 00 80  ................
31A0: 03 07 00 00 80 01 40 39  02 02 00 FE 80 80 CC 31  ......@9.......1
31B0: 03 01 00 03 80 03 04 00  00 80 03 05 00 00 80 03  ................
31C0: 06 00 00 80 03 07 00 00  80 01 40 39 02 02 00 FF  ..........@9....
31D0: 80 80 F0 31 03 01 00 03  80 03 04 00 00 80 03 05  ...1............
31E0: 00 00 80 03 06 00 00 80  03 07 00 00 80 01 40 39  ..............@9
31F0: 02 02 00 00 81 80 14 32  03 01 00 03 80 03 04 00  .......2........
3200: 00 80 03 05 00 00 80 03  06 00 00 80 03 07 00 00  ................
3210: 80 01 40 39 02 02 00 01  81 80 38 32 03 01 00 03  ..@9......82....
3220: 80 03 04 00 00 80 03 05  00 00 80 03 06 00 00 80  ................
3230: 03 07 00 00 80 01 40 39  02 02 00 02 81 80 5C 32  ......@9......\2
3240: 03 01 00 03 80 03 04 00  00 80 03 05 00 00 80 03  ................
3250: 06 00 00 80 03 07 00 00  80 01 40 39 02 02 00 03  ..........@9....
3260: 81 80 80 32 03 01 00 03  80 03 04 00 00 80 03 05  ...2............
3270: 00 00 80 03 06 00 00 80  03 07 00 00 80 01 40 39  ..............@9
3280: 02 02 00 04 81 80 A4 32  03 01 00 03 80 03 04 00  .......2........
3290: 00 80 03 05 00 00 80 03  06 00 00 80 03 07 00 00  ................
32A0: 80 01 40 39 02 02 00 05  81 80 C8 32 03 01 00 03  ..@9.......2....
32B0: 80 03 04 00 00 80 03 05  00 00 80 03 06 00 00 80  ................
32C0: 03 07 00 00 80 01 40 39  02 02 00 06 81 80 EC 32  ......@9.......2
32D0: 03 01 00 03 80 03 04 00  00 80 03 05 00 00 80 03  ................
32E0: 06 00 00 80 03 07 00 00  80 01 40 39 02 02 00 25  ..........@9...%
32F0: 80 80 10 33 03 01 00 03  80 03 04 00 00 80 03 05  ...3............
3300: 00 00 80 03 06 00 00 80  03 07 00 00 80 01 40 39  ..............@9
3310: 02 02 00 27 80 80 34 33  03 01 00 03 80 03 04 00  ...'..43........
3320: 00 80 03 05 00 00 80 03  06 00 00 80 03 07 00 00  ................
3330: 80 01 40 39 02 02 00 28  80 80 58 33 03 01 00 03  ..@9...(..X3....
3340: 80 03 04 00 00 80 03 05  00 00 80 03 06 00 00 80  ................
3350: 03 07 00 00 80 01 40 39  02 02 00 07 81 80 7C 33  ......@9......|3
3360: 03 01 00 03 80 03 04 00  00 80 03 05 00 00 80 03  ................
3370: 06 00 00 80 03 07 00 00  80 01 40 39 02 02 00 08  ..........@9....
3380: 81 80 A0 33 03 01 00 03  80 03 04 00 00 80 03 05  ...3............
3390: 00 00 80 03 06 00 00 80  03 07 00 00 80 01 40 39  ..............@9
33A0: 02 02 00 09 81 80 C4 33  03 01 00 03 80 03 04 00  .......3........
33B0: 00 80 03 05 00 00 80 03  06 00 00 80 03 07 00 00  ................
33C0: 80 01 40 39 02 02 00 0A  81 80 E8 33 03 01 00 03  ..@9.......3....
33D0: 80 03 04 00 00 80 03 05  00 00 80 03 06 00 00 80  ................
33E0: 03 07 00 00 80 01 40 39  02 02 00 0B 81 80 0C 34  ......@9.......4
33F0: 03 01 00 03 80 03 04 00  00 80 03 05 00 00 80 03  ................
3400: 06 00 00 80 03 07 00 00  80 01 40 39 02 02 00 0C  ..........@9....
3410: 81 80 30 34 03 01 00 03  80 03 04 00 00 80 03 05  ..04............
3420: 00 00 80 03 06 00 00 80  03 07 00 00 80 01 40 39  ..............@9
3430: 02 02 00 0D 81 80 54 34  03 01 00 03 80 03 04 00  ......T4........
3440: 00 80 03 05 00 00 80 03  06 00 00 80 03 07 00 00  ................
3450: 80 01 40 39 02 02 00 4C  80 80 78 34 03 01 00 03  ..@9...L..x4....
3460: 80 03 04 00 00 80 03 05  00 00 80 03 06 00 00 80  ................
3470: 03 07 00 00 80 01 40 39  02 02 00 4E 80 80 9C 34  ......@9...N...4
3480: 03 01 00 03 80 03 04 00  00 80 03 05 00 00 80 03  ................
3490: 06 00 00 80 03 07 00 00  80 01 40 39 02 02 00 50  ..........@9...P
34A0: 80 80 C0 34 03 01 00 03  80 03 04 00 00 80 03 05  ...4............
34B0: 00 00 80 03 06 00 00 80  03 07 00 00 80 01 40 39  ..............@9
34C0: 02 02 00 0E 81 80 E4 34  03 01 00 03 80 03 04 00  .......4........
34D0: 00 80 03 05 00 00 80 03  06 00 00 80 03 07 00 00  ................
34E0: 80 01 40 39 02 02 00 0F  81 80 08 35 03 01 00 03  ..@9.......5....
34F0: 80 03 04 00 00 80 03 05  00 00 80 03 06 00 00 80  ................
3500: 03 07 00 00 80 01 40 39  02 02 00 10 81 80 2C 35  ......@9......,5
3510: 03 01 00 03 80 03 04 00  00 80 03 05 00 00 80 03  ................
3520: 06 00 00 80 03 07 00 00  80 01 40 39 02 02 00 11  ..........@9....
3530: 81 80 50 35 03 01 00 03  80 03 04 00 00 80 03 05  ..P5............
3540: 00 00 80 03 06 00 00 80  03 07 00 00 80 01 40 39  ..............@9
3550: 02 02 00 12 81 80 74 35  03 01 00 03 80 03 04 00  ......t5........
3560: 00 80 03 05 00 00 80 03  06 00 00 80 03 07 00 00  ................
3570: 80 01 40 39 02 02 00 13  81 80 98 35 03 01 00 03  ..@9.......5....
3580: 80 03 04 00 00 80 03 05  00 00 80 03 06 00 00 80  ................
3590: 03 07 00 00 80 01 40 39  02 02 00 14 81 80 BC 35  ......@9.......5
35A0: 03 01 00 03 80 03 04 00  00 80 03 05 00 00 80 03  ................
35B0: 06 00 00 80 03 07 00 00  80 01 40 39 02 02 00 15  ..........@9....
35C0: 81 80 E0 35 03 01 00 03  80 03 04 00 00 80 03 05  ...5............
35D0: 00 00 80 03 06 00 00 80  03 07 00 00 80 01 40 39  ..............@9
35E0: 02 02 00 16 81 80 04 36  03 01 00 03 80 03 04 00  .......6........
35F0: 00 80 03 05 00 00 80 03  06 00 00 80 03 07 00 00  ................
3600: 80 01 40 39 02 02 00 17  81 80 28 36 03 01 00 03  ..@9......(6....
3610: 80 03 04 00 00 80 03 05  00 00 80 03 06 00 00 80  ................
3620: 03 07 00 00 80 01 40 39  02 02 00 18 81 80 4C 36  ......@9......L6
3630: 03 01 00 03 80 03 04 00  00 80 03 05 00 00 80 03  ................
3640: 06 00 00 80 03 07 00 00  80 01 40 39 02 02 00 19  ..........@9....
3650: 81 80 70 36 03 01 00 03  80 03 04 00 00 80 03 05  ..p6............
3660: 00 00 80 03 06 00 00 80  03 07 00 00 80 01 40 39  ..............@9
3670: 02 02 00 5C 81 80 94 36  03 01 00 02 80 03 04 00  ...\...6........
3680: 5D 81 03 05 00 5E 81 03  06 00 5F 81 03 07 00 60  ]....^...._....`
3690: 81 01 40 39 02 02 00 61  81 80 B8 36 03 01 00 03  ..@9...a...6....
36A0: 80 03 04 00 62 81 03 05  00 63 81 03 06 00 64 81  ....b....c....d.
36B0: 03 07 00 00 80 01 40 39  02 02 00 65 81 80 DC 36  ......@9...e...6
36C0: 03 01 00 02 80 03 04 00  66 81 03 05 00 67 81 03  ........f....g..
36D0: 06 00 68 81 03 07 00 69  81 01 40 39 02 02 00 6A  ..h....i..@9...j
36E0: 81 80 00 37 03 01 00 02  80 03 04 00 6B 81 03 05  ...7........k...
36F0: 00 6C 81 03 06 00 00 80  03 07 00 00 80 01 40 39  .l............@9
3700: 02 02 00 6D 81 80 24 37  03 01 00 03 80 03 04 00  ...m..$7........
3710: 6E 81 03 05 00 6F 81 03  06 00 70 81 03 07 00 71  n....o....p....q
3720: 81 01 40 39 02 02 00 72  81 80 48 37 03 01 00 03  ..@9...r..H7....
3730: 80 03 04 00 73 81 03 05  00 74 81 03 06 00 75 81  ....s....t....u.
3740: 03 07 00 76 81 01 40 39  02 02 00 77 81 80 6C 37  ...v..@9...w..l7
3750: 03 01 00 02 80 03 04 00  78 81 03 05 00 79 81 03  ........x....y..
3760: 06 00 7A 81 03 07 00 00  80 01 40 39 02 02 00 7B  ..z.......@9...{
3770: 81 80 90 37 03 01 00 00  80 03 04 00 7C 81 03 05  ...7........|...
3780: 00 7D 81 03 06 00 7E 81  03 07 00 00 80 01 40 39  .}....~.......@9
3790: 02 02 00 7F 81 80 B4 37  03 01 00 00 80 03 04 00  .......7........
37A0: 80 81 03 05 00 81 81 03  06 00 82 81 03 07 00 83  ................
37B0: 81 01 40 39 02 02 00 84  81 80 D8 37 03 01 00 00  ..@9.......7....
37C0: 80 03 04 00 85 81 03 05  00 86 81 03 06 00 DF 80  ................
37D0: 03 07 00 87 81 01 40 39  02 02 00 88 81 80 FC 37  ......@9.......7
37E0: 03 01 00 03 80 03 04 00  89 81 03 05 00 8A 81 03  ................
37F0: 06 00 E0 80 03 07 00 8B  81 01 40 39 02 02 00 8C  ..........@9....
3800: 81 80 20 38 03 01 00 03  80 03 04 00 8D 81 03 05  .. 8............
3810: 00 8E 81 03 06 00 DC 80  03 07 00 8F 81 01 40 39  ..............@9
3820: 02 02 00 90 81 80 44 38  03 01 00 00 80 03 04 00  ......D8........
3830: 91 81 03 05 00 92 81 03  06 00 93 81 03 07 00 94  ................
3840: 81 01 40 39 02 02 00 95  81 80 68 38 03 01 00 00  ..@9......h8....
3850: 80 03 04 00 96 81 03 05  00 97 81 03 06 00 98 81  ................
3860: 03 07 00 99 81 01 40 39  02 02 00 9A 81 80 8C 38  ......@9.......8
3870: 03 01 00 00 80 03 04 00  9B 81 03 05 00 9C 81 03  ................
3880: 06 00 44 81 03 07 00 9D  81 01 40 39 02 02 00 9E  ..D.......@9....
3890: 81 80 B0 38 03 01 00 00  80 03 04 00 9F 81 03 05  ...8............
38A0: 00 A0 81 03 06 00 A1 81  03 07 00 A2 81 01 40 39  ..............@9
38B0: 02 02 00 A3 81 80 D4 38  03 01 00 02 80 03 04 00  .......8........
38C0: A4 81 03 05 00 A5 81 03  06 00 A6 81 03 07 00 A7  ................
38D0: 81 01 40 39 02 02 00 A8  81 80 F8 38 03 01 00 03  ..@9.......8....
38E0: 80 03 04 00 A9 81 03 05  00 AA 81 03 06 00 AB 81  ................
38F0: 03 07 00 AC 81 01 40 39  02 02 00 0F 80 80 1C 39  ......@9.......9
3900: 03 01 00 03 80 03 04 00  AD 81 03 05 00 AE 81 03  ................
3910: 06 00 AF 81 03 07 00 B0  81 01 40 39 02 02 00 10  ..........@9....
3920: 80 80 40 39 03 01 00 03  80 03 04 00 B1 81 03 05  ..@9............
3930: 00 B2 81 03 06 00 B3 81  03 07 00 53 80 01 40 39  ...........S..@9
3940: 1B                                                .               
```

#### Opcodes

```
  0: 0x0001 [0x42] SET_CLI_EVENT_CANCEL_DATA()
  1: 0x0002 [0x03] Work_Zone[1] = 0*
  2: 0x0007 [0x03] ExtData[1]->WorkLocal[2] = 0*
  3: 0x000C [0x03] ExtData[1]->WorkLocal[0] = 4294966784*
  4: 0x0011 [0x02] IF !(Work_Zone[2] == 0*) GOTO 0x0020
  5: 0x0019 [0x3C] SET_BIT_FLAG_CONDITIONAL(target_work_offset=ExtData[1]->WorkLocal[0], bit_index_work_offset=1*, condition_work_offset=1*)
  6: 0x0020 [0x02] IF !(Work_Zone[3] == 0*) GOTO 0x002F
  7: 0x0028 [0x3C] SET_BIT_FLAG_CONDITIONAL(target_work_offset=ExtData[1]->WorkLocal[0], bit_index_work_offset=2*, condition_work_offset=1*)
  8: 0x002F [0x02] IF !(Work_Zone[4] == 0*) GOTO 0x003E
  9: 0x0037 [0x3C] SET_BIT_FLAG_CONDITIONAL(target_work_offset=ExtData[1]->WorkLocal[0], bit_index_work_offset=3*, condition_work_offset=1*)
 10: 0x003E [0x02] IF !(Work_Zone[5] == 0*) GOTO 0x004D
 11: 0x0046 [0x3C] SET_BIT_FLAG_CONDITIONAL(target_work_offset=ExtData[1]->WorkLocal[0], bit_index_work_offset=4*, condition_work_offset=1*)
 12: 0x004D [0x02] IF !(Work_Zone[6] == 0*) GOTO 0x005C
 13: 0x0055 [0x3C] SET_BIT_FLAG_CONDITIONAL(target_work_offset=ExtData[1]->WorkLocal[0], bit_index_work_offset=5*, condition_work_offset=1*)
 14: 0x005C [0x02] IF !(Work_Zone[7] == 0*) GOTO 0x006B
 15: 0x0064 [0x3C] SET_BIT_FLAG_CONDITIONAL(target_work_offset=ExtData[1]->WorkLocal[0], bit_index_work_offset=6*, condition_work_offset=1*)
 16: 0x006B [0x02] IF !(Work_Zone[8] == 0*) GOTO 0x007A
 17: 0x0073 [0x3C] SET_BIT_FLAG_CONDITIONAL(target_work_offset=ExtData[1]->WorkLocal[0], bit_index_work_offset=7*, condition_work_offset=1*)
 18: 0x007A [0x02] IF !(Work_Zone[9] == 0*) GOTO 0x0089
 19: 0x0082 [0x3C] SET_BIT_FLAG_CONDITIONAL(target_work_offset=ExtData[1]->WorkLocal[0], bit_index_work_offset=8*, condition_work_offset=1*)
 20: 0x0089 [0x24] CREATE_DIALOG(message_id=7613*, default_option=0*, option_flags=ExtData[1]->WorkLocal[0])
     "Attempt which objective? [None./$0./$1./$2./$3./$4./$5./$6./$7.]"
 21: 0x0090 [0x25] WAIT_DIALOG_SELECT()
 22: 0x0091 [0x02] IF !(Work_Zone[0] == 0*) GOTO 0x00A1
 23: 0x0099 [0x03] Work_Zone[1] = 1073741824*
 24: 0x009E [0x01] GOTO 0x016C
 25: 0x00A1 [0x02] IF !(Work_Zone[0] == 1*) GOTO 0x00BD
 26: 0x00A9 [0x03] ExtData[1]->WorkLocal[3] = Work_Zone[2]
 27: 0x00AE [0x1A] CALL_SUBROUTINE(address=0x026F)
 28: 0x00B1 [0x40] SET_BIT_WORK_RANGE(start_bit=0*, end_bit=11*, target=Work_Zone[1], source=ExtData[1]->WorkLocal[2])
 29: 0x00BA [0x01] GOTO 0x016C
 30: 0x00BD [0x02] IF !(Work_Zone[0] == 2*) GOTO 0x00D6
 31: 0x00C5 [0x07] Work_Zone[3] += 640*
 32: 0x00CA [0x40] SET_BIT_WORK_RANGE(start_bit=0*, end_bit=11*, target=Work_Zone[1], source=Work_Zone[3])
 33: 0x00D3 [0x01] GOTO 0x016C
 34: 0x00D6 [0x02] IF !(Work_Zone[0] == 3*) GOTO 0x00EF
 35: 0x00DE [0x07] Work_Zone[4] += 512*
 36: 0x00E3 [0x40] SET_BIT_WORK_RANGE(start_bit=0*, end_bit=11*, target=Work_Zone[1], source=Work_Zone[4])
 37: 0x00EC [0x01] GOTO 0x016C
 38: 0x00EF [0x02] IF !(Work_Zone[0] == 4*) GOTO 0x0108
 39: 0x00F7 [0x07] Work_Zone[5] += 512*
 40: 0x00FC [0x40] SET_BIT_WORK_RANGE(start_bit=0*, end_bit=11*, target=Work_Zone[1], source=Work_Zone[5])
 41: 0x0105 [0x01] GOTO 0x016C
 42: 0x0108 [0x02] IF !(Work_Zone[0] == 5*) GOTO 0x0121
 43: 0x0110 [0x07] Work_Zone[6] += 512*
 44: 0x0115 [0x40] SET_BIT_WORK_RANGE(start_bit=0*, end_bit=11*, target=Work_Zone[1], source=Work_Zone[6])
 45: 0x011E [0x01] GOTO 0x016C
 46: 0x0121 [0x02] IF !(Work_Zone[0] == 6*) GOTO 0x013A
 47: 0x0129 [0x07] Work_Zone[7] += 512*
 48: 0x012E [0x40] SET_BIT_WORK_RANGE(start_bit=0*, end_bit=11*, target=Work_Zone[1], source=Work_Zone[7])
 49: 0x0137 [0x01] GOTO 0x016C
 50: 0x013A [0x02] IF !(Work_Zone[0] == 7*) GOTO 0x0153
 51: 0x0142 [0x07] Work_Zone[8] += 512*
 52: 0x0147 [0x40] SET_BIT_WORK_RANGE(start_bit=0*, end_bit=11*, target=Work_Zone[1], source=Work_Zone[8])
 53: 0x0150 [0x01] GOTO 0x016C
 54: 0x0153 [0x02] IF !(Work_Zone[0] == 8*) GOTO 0x016C
 55: 0x015B [0x07] Work_Zone[9] += 512*
 56: 0x0160 [0x40] SET_BIT_WORK_RANGE(start_bit=0*, end_bit=11*, target=Work_Zone[1], source=Work_Zone[9])
 57: 0x0169 [0x01] GOTO 0x016C

SUBROUTINE_016C:
 58: 0x016C [0x02] IF !(Work_Zone[0] <= 0*) GOTO 0x026D
 59: 0x0174 [0x41] ExtData[1]->WorkLocal[2] = Work_Zone[1] (bits 0*-11*)
 60: 0x017D [0x02] IF !(ExtData[1]->WorkLocal[2] == 670*) GOTO 0x018B
 61: 0x0185 [0x0C] ExtData[1]->WorkLocal[2]--
 62: 0x0188 [0x01] GOTO 0x01A7
 63: 0x018B [0x02] IF !(ExtData[1]->WorkLocal[2] == 671*) GOTO 0x0199
 64: 0x0193 [0x0C] ExtData[1]->WorkLocal[2]--
 65: 0x0196 [0x01] GOTO 0x01A7
 66: 0x0199 [0x02] IF !(ExtData[1]->WorkLocal[2] == 672*) GOTO 0x01A7
 67: 0x01A1 [0x0C] ExtData[1]->WorkLocal[2]--
 68: 0x01A4 [0x01] GOTO 0x01A7

SUBROUTINE_01A7:
 69: 0x01A7 [0x1A] CALL_SUBROUTINE(address=0x1270)
 70: 0x01AA [0x03] Work_Zone[2] = ExtData[1]->WorkLocal[1]
 71: 0x01AF [0x48] [System] [7614*]:
     "Only party members present with you in this area will be transported to [Everbloom Hollow/the Ruhotz Silvermines/Ghoyu's Reverie]."
 72: 0x01B2 [0x23] WAIT_FOR_DIALOG_INTERACTION
 73: 0x01B3 [0x24] CREATE_DIALOG(message_id=7615*, default_option=1*, option_flags=0*)
     "Proceed? [Yes./No.]"
 74: 0x01BA [0x25] WAIT_DIALOG_SELECT()
 75: 0x01BB [0x02] IF !(Work_Zone[0] == 0*) GOTO 0x025A
 76: 0x01C3 [0x48] [System] [7622*]:
     "Your request for entry is being considered..."
 77: 0x01C6 [0xA7] BATTLEFIELD_RESPONSE_WAIT: Wait for server response (Dynamis/MMM/Salvage), mode=0x00
 78: 0x01C8 [0xA7] BATTLEFIELD_RESPONSE_WAIT: Wait for server response with parameter (Dynamis/MMM/Salvage), param=ExtData[1]->WorkLocal[8]
 79: 0x01CC [0x03] Work_Zone[1] = 0*
 80: 0x01D1 [0x40] SET_BIT_WORK_RANGE(start_bit=0*, end_bit=3*, target=Work_Zone[1], source=ExtData[1]->WorkLocal[8])
 81: 0x01DA [0x02] IF !(ExtData[1]->WorkLocal[8] == 4*) GOTO 0x0257
 82: 0x01E2 [0x03] Work_Zone[2] = ExtData[1]->WorkLocal[1]
 83: 0x01E7 [0x48] [System] [7616*]:
     "Now entering [Everbloom Hollow/the Ruhotz Silvermines/Ghoyu's Reverie]."
 84: 0x01EA [0x23] WAIT_FOR_DIALOG_INTERACTION
 85: 0x01EB [0x62] LOAD_EVENT_SCHEDULER: Load scheduler "main" with entities [LocalPlayer, LocalPlayer], work=[1*, 0*]
 86: 0x01FC [0x1C] WAIT(90* ticks)
 87: 0x01FF [0x45] LOAD_SCHEDULED_TASK: Load scheduler "who1" with entities [LocalPlayer, LocalPlayer], work=[201*, 0*]
 88: 0x0210 [0x55] WAIT_LOAD_SCHEDULER: Wait for scheduler "who1" with entities [LocalPlayer, LocalPlayer], work=201*
 89: 0x021F [0x1C] WAIT(45* ticks)
 90: 0x0222 [0x45] LOAD_SCHEDULED_TASK: Load scheduler "fdo1" with entities [LocalPlayer, LocalPlayer], work=[200*, 0*]
 91: 0x0233 [0x55] WAIT_LOAD_SCHEDULER: Wait for scheduler "fdo1" with entities [LocalPlayer, LocalPlayer], work=200*
 92: 0x0242 [0x45] LOAD_SCHEDULED_TASK: Load scheduler "whi1" with entities [LocalPlayer, LocalPlayer], work=[201*, 0*]
 93: 0x0253 [0x1C] WAIT(15* ticks)
 94: 0x0256 [0x30] SET_UCOFF_CONTINUE_ZERO()
 95: 0x0257 [0x01] GOTO 0x026D
 96: 0x025A [0x02] IF !(Work_Zone[0] == 1*) GOTO 0x026D
 97: 0x0262 [0x03] Work_Zone[1] = 1073741824*
 98: 0x0267 [0x48] [System] [7617*]:
     "You have chosen not to enter [Everbloom Hollow/the Ruhotz Silvermines/Ghoyu's Reverie]."
 99: 0x026A [0x01] GOTO 0x026D

SUBROUTINE_026D:
100: 0x026D [0x21] END_EVENT
101: 0x026E [0x00] END_REQSTACK()

SUBROUTINE_026F:
102: 0x026F [0x02] IF !(ExtData[1]->WorkLocal[3] == 0*) GOTO 0x027F
103: 0x0277 [0x03] ExtData[1]->WorkLocal[2] = 0*
104: 0x027C [0x01] GOTO 0x126F
105: 0x027F [0x02] IF !(ExtData[1]->WorkLocal[3] == 61*) GOTO 0x028F
106: 0x0287 [0x03] ExtData[1]->WorkLocal[2] = 1*
107: 0x028C [0x01] GOTO 0x126F
108: 0x028F [0x02] IF !(ExtData[1]->WorkLocal[3] == 62*) GOTO 0x029F
109: 0x0297 [0x03] ExtData[1]->WorkLocal[2] = 2*
110: 0x029C [0x01] GOTO 0x126F
111: 0x029F [0x02] IF !(ExtData[1]->WorkLocal[3] == 63*) GOTO 0x02AF
112: 0x02A7 [0x03] ExtData[1]->WorkLocal[2] = 3*
113: 0x02AC [0x01] GOTO 0x126F
114: 0x02AF [0x02] IF !(ExtData[1]->WorkLocal[3] == 11*) GOTO 0x02BF
115: 0x02B7 [0x03] ExtData[1]->WorkLocal[2] = 4*
116: 0x02BC [0x01] GOTO 0x126F
117: 0x02BF [0x02] IF !(ExtData[1]->WorkLocal[3] == 12*) GOTO 0x02CF
118: 0x02C7 [0x03] ExtData[1]->WorkLocal[2] = 5*
119: 0x02CC [0x01] GOTO 0x126F
120: 0x02CF [0x02] IF !(ExtData[1]->WorkLocal[3] == 13*) GOTO 0x02DF
121: 0x02D7 [0x03] ExtData[1]->WorkLocal[2] = 6*
122: 0x02DC [0x01] GOTO 0x126F
123: 0x02DF [0x02] IF !(ExtData[1]->WorkLocal[3] == 31*) GOTO 0x02EF
124: 0x02E7 [0x03] ExtData[1]->WorkLocal[2] = 7*
125: 0x02EC [0x01] GOTO 0x126F
126: 0x02EF [0x02] IF !(ExtData[1]->WorkLocal[3] == 32*) GOTO 0x02FF
127: 0x02F7 [0x03] ExtData[1]->WorkLocal[2] = 8*
128: 0x02FC [0x01] GOTO 0x126F
129: 0x02FF [0x02] IF !(ExtData[1]->WorkLocal[3] == 33*) GOTO 0x030F
130: 0x0307 [0x03] ExtData[1]->WorkLocal[2] = 9*
131: 0x030C [0x01] GOTO 0x126F
132: 0x030F [0x02] IF !(ExtData[1]->WorkLocal[3] == 231*) GOTO 0x031F
133: 0x0317 [0x03] ExtData[1]->WorkLocal[2] = 10*
134: 0x031C [0x01] GOTO 0x126F
135: 0x031F [0x02] IF !(ExtData[1]->WorkLocal[3] == 232*) GOTO 0x032F
136: 0x0327 [0x03] ExtData[1]->WorkLocal[2] = 11*
137: 0x032C [0x01] GOTO 0x126F
138: 0x032F [0x02] IF !(ExtData[1]->WorkLocal[3] == 233*) GOTO 0x033F
139: 0x0337 [0x03] ExtData[1]->WorkLocal[2] = 12*
140: 0x033C [0x01] GOTO 0x126F
141: 0x033F [0x02] IF !(ExtData[1]->WorkLocal[3] == 181*) GOTO 0x034F
142: 0x0347 [0x03] ExtData[1]->WorkLocal[2] = 13*
143: 0x034C [0x01] GOTO 0x126F
144: 0x034F [0x02] IF !(ExtData[1]->WorkLocal[3] == 182*) GOTO 0x035F
145: 0x0357 [0x03] ExtData[1]->WorkLocal[2] = 14*
146: 0x035C [0x01] GOTO 0x126F
147: 0x035F [0x02] IF !(ExtData[1]->WorkLocal[3] == 183*) GOTO 0x036F
148: 0x0367 [0x03] ExtData[1]->WorkLocal[2] = 15*
149: 0x036C [0x01] GOTO 0x126F
150: 0x036F [0x02] IF !(ExtData[1]->WorkLocal[3] == 201*) GOTO 0x037F
151: 0x0377 [0x03] ExtData[1]->WorkLocal[2] = 16*
152: 0x037C [0x01] GOTO 0x126F
153: 0x037F [0x02] IF !(ExtData[1]->WorkLocal[3] == 202*) GOTO 0x038F
154: 0x0387 [0x03] ExtData[1]->WorkLocal[2] = 17*
155: 0x038C [0x01] GOTO 0x126F
156: 0x038F [0x02] IF !(ExtData[1]->WorkLocal[3] == 203*) GOTO 0x039F
157: 0x0397 [0x03] ExtData[1]->WorkLocal[2] = 18*
158: 0x039C [0x01] GOTO 0x126F
159: 0x039F [0x02] IF !(ExtData[1]->WorkLocal[3] == 401*) GOTO 0x03AF
160: 0x03A7 [0x03] ExtData[1]->WorkLocal[2] = 19*
161: 0x03AC [0x01] GOTO 0x126F
162: 0x03AF [0x02] IF !(ExtData[1]->WorkLocal[3] == 402*) GOTO 0x03BF
163: 0x03B7 [0x03] ExtData[1]->WorkLocal[2] = 20*
164: 0x03BC [0x01] GOTO 0x126F
165: 0x03BF [0x02] IF !(ExtData[1]->WorkLocal[3] == 403*) GOTO 0x03CF
166: 0x03C7 [0x03] ExtData[1]->WorkLocal[2] = 21*
167: 0x03CC [0x01] GOTO 0x126F
168: 0x03CF [0x02] IF !(ExtData[1]->WorkLocal[3] == 351*) GOTO 0x03DF
169: 0x03D7 [0x03] ExtData[1]->WorkLocal[2] = 22*
170: 0x03DC [0x01] GOTO 0x126F
171: 0x03DF [0x02] IF !(ExtData[1]->WorkLocal[3] == 352*) GOTO 0x03EF
172: 0x03E7 [0x03] ExtData[1]->WorkLocal[2] = 23*
173: 0x03EC [0x01] GOTO 0x126F
174: 0x03EF [0x02] IF !(ExtData[1]->WorkLocal[3] == 353*) GOTO 0x03FF
175: 0x03F7 [0x03] ExtData[1]->WorkLocal[2] = 24*
176: 0x03FC [0x01] GOTO 0x126F
177: 0x03FF [0x02] IF !(ExtData[1]->WorkLocal[3] == 371*) GOTO 0x040F
178: 0x0407 [0x03] ExtData[1]->WorkLocal[2] = 25*
179: 0x040C [0x01] GOTO 0x126F
180: 0x040F [0x02] IF !(ExtData[1]->WorkLocal[3] == 372*) GOTO 0x041F
181: 0x0417 [0x03] ExtData[1]->WorkLocal[2] = 26*
182: 0x041C [0x01] GOTO 0x126F
183: 0x041F [0x02] IF !(ExtData[1]->WorkLocal[3] == 373*) GOTO 0x042F
184: 0x0427 [0x03] ExtData[1]->WorkLocal[2] = 27*
185: 0x042C [0x01] GOTO 0x126F
186: 0x042F [0x02] IF !(ExtData[1]->WorkLocal[3] == 14*) GOTO 0x043F
187: 0x0437 [0x03] ExtData[1]->WorkLocal[2] = 28*
188: 0x043C [0x01] GOTO 0x126F
189: 0x043F [0x02] IF !(ExtData[1]->WorkLocal[3] == 184*) GOTO 0x044F
190: 0x0447 [0x03] ExtData[1]->WorkLocal[2] = 29*
191: 0x044C [0x01] GOTO 0x126F
192: 0x044F [0x02] IF !(ExtData[1]->WorkLocal[3] == 354*) GOTO 0x045F
193: 0x0457 [0x03] ExtData[1]->WorkLocal[2] = 30*
194: 0x045C [0x01] GOTO 0x126F
195: 0x045F [0x02] IF !(ExtData[1]->WorkLocal[3] == 71*) GOTO 0x046F
196: 0x0467 [0x03] ExtData[1]->WorkLocal[2] = 31*
197: 0x046C [0x01] GOTO 0x126F
198: 0x046F [0x02] IF !(ExtData[1]->WorkLocal[3] == 72*) GOTO 0x047F
199: 0x0477 [0x03] ExtData[1]->WorkLocal[2] = 32*
200: 0x047C [0x01] GOTO 0x126F
201: 0x047F [0x02] IF !(ExtData[1]->WorkLocal[3] == 73*) GOTO 0x048F
202: 0x0487 [0x03] ExtData[1]->WorkLocal[2] = 33*
203: 0x048C [0x01] GOTO 0x126F
204: 0x048F [0x02] IF !(ExtData[1]->WorkLocal[3] == 241*) GOTO 0x049F
205: 0x0497 [0x03] ExtData[1]->WorkLocal[2] = 34*
206: 0x049C [0x01] GOTO 0x126F
207: 0x049F [0x02] IF !(ExtData[1]->WorkLocal[3] == 242*) GOTO 0x04AF
208: 0x04A7 [0x03] ExtData[1]->WorkLocal[2] = 35*
209: 0x04AC [0x01] GOTO 0x126F
210: 0x04AF [0x02] IF !(ExtData[1]->WorkLocal[3] == 243*) GOTO 0x04BF
211: 0x04B7 [0x03] ExtData[1]->WorkLocal[2] = 36*
212: 0x04BC [0x01] GOTO 0x126F
213: 0x04BF [0x02] IF !(ExtData[1]->WorkLocal[3] == 411*) GOTO 0x04CF
214: 0x04C7 [0x03] ExtData[1]->WorkLocal[2] = 37*
215: 0x04CC [0x01] GOTO 0x126F
216: 0x04CF [0x02] IF !(ExtData[1]->WorkLocal[3] == 412*) GOTO 0x04DF
217: 0x04D7 [0x03] ExtData[1]->WorkLocal[2] = 38*
218: 0x04DC [0x01] GOTO 0x126F
219: 0x04DF [0x02] IF !(ExtData[1]->WorkLocal[3] == 413*) GOTO 0x04EF
220: 0x04E7 [0x03] ExtData[1]->WorkLocal[2] = 39*
221: 0x04EC [0x01] GOTO 0x126F
222: 0x04EF [0x02] IF !(ExtData[1]->WorkLocal[3] == 512*) GOTO 0x04FF
223: 0x04F7 [0x03] ExtData[1]->WorkLocal[2] = 40*
224: 0x04FC [0x01] GOTO 0x126F
225: 0x04FF [0x02] IF !(ExtData[1]->WorkLocal[3] == 512*) GOTO 0x050F
226: 0x0507 [0x03] ExtData[1]->WorkLocal[2] = 41*
