# 17179387 - Koru-Moru

## Common Data

| Field            | Value                             |
|------------------|-----------------------------------|
| Zone             | Sauromugue Champaign [S] (ID: 98) |
| Block Size       | 104 bytes                         |
| Total Events     | 4                                 |
| References Count | 7                                 |

## List of Events

| Event ID                 | Entrypoint   |   Size |   Instructions |
|--------------------------|--------------|--------|----------------|
| [65535](#event-65535)    | 0x0000       |      1 |              1 |
| [105](#event-105)        | 0x0001       |      1 |              1 |
| [65535.1](#event-655351) | 0x0002       |     20 |              6 |
| [65535.2](#event-655352) | 0x0016       |     20 |              6 |

## DAT References (imed_data)

|   Index | Hex Value   |   Dec Value |
|---------|-------------|-------------|
|       0 | 0x000D      |          13 |
|       1 | 0xFFF94A22  |  4294527522 |
|       2 | 0x53B6D     |      342893 |
|       3 | 0x0356      |         854 |
|       4 | 0xFFF94511  |  4294526225 |
|       5 | 0x53878     |      342136 |
|       6 | 0x037C      |         892 |

## Events

### Event 65535

#### Metadata

| Field        | Value   |
|--------------|---------|
| Entrypoint   | 0x0000  |
| Data Size    | 1 bytes |
| Instructions | 1       |

```
      00 01 02 03 04 05 06 07  08 09 0A 0B 0C 0D 0E 0F
      -- -- -- -- -- -- -- --  -- -- -- -- -- -- -- --
0000: 00                                                .               
```

#### Opcodes

```
  0: 0x0000 [0x00] END_REQSTACK()
```

### Event 105

#### Metadata

| Field        | Value   |
|--------------|---------|
| Entrypoint   | 0x0001  |
| Data Size    | 1 bytes |
| Instructions | 1       |

```
      00 01 02 03 04 05 06 07  08 09 0A 0B 0C 0D 0E 0F
      -- -- -- -- -- -- -- --  -- -- -- -- -- -- -- --
0000:    00                                              .              
```

#### Opcodes

```
  0: 0x0001 [0x00] END_REQSTACK()
```

### Event 65535.1

#### Metadata

| Field        | Value    |
|--------------|----------|
| Entrypoint   | 0x0002   |
| Data Size    | 20 bytes |
| Instructions | 6        |

```
      00 01 02 03 04 05 06 07  08 09 0A 0B 0C 0D 0E 0F
      -- -- -- -- -- -- -- --  -- -- -- -- -- -- -- --
0000:       32 00 80 1F 00 01  80 02 80 03 80 1F 01 6F    2............o
0010: 1E FC 22 06 01 00                                 .."...          
```

#### Opcodes

```
  0: 0x0002 [0x32] ExtData[1]->MainSpeed = 13* * 0.1
  1: 0x0005 [0x1F] MOVE_ENTITY: EventEntity moves to X=-439.774*, Z=342.893*, Y=0.854*
  2: 0x000D [0x1F] MOVE_ENTITY: Update entity position (mode=1)
  3: 0x000F [0x6F] WAIT_FRAME_DELAY: Yield until WaitTime reaches zero
  4: 0x0010 [0x1E] EventEntity looks at Rasusu (ID: 17179388/0x010622FC) and starts talking
  5: 0x0015 [0x00] END_REQSTACK()
```

### Event 65535.2

#### Metadata

| Field        | Value    |
|--------------|----------|
| Entrypoint   | 0x0016   |
| Data Size    | 20 bytes |
| Instructions | 6        |

```
      00 01 02 03 04 05 06 07  08 09 0A 0B 0C 0D 0E 0F
      -- -- -- -- -- -- -- --  -- -- -- -- -- -- -- --
0010:                   32 00  80 1F 00 04 80 05 80 06        2.........
0020: 80 1F 01 6F 1E FC 22 06  01 00                    ...o.."...      
```

#### Opcodes

```
  0: 0x0016 [0x32] ExtData[1]->MainSpeed = 13* * 0.1
  1: 0x0019 [0x1F] MOVE_ENTITY: EventEntity moves to X=-441.071*, Z=342.136*, Y=0.892*
  2: 0x0021 [0x1F] MOVE_ENTITY: Update entity position (mode=1)
  3: 0x0023 [0x6F] WAIT_FRAME_DELAY: Yield until WaitTime reaches zero
  4: 0x0024 [0x1E] EventEntity looks at Rasusu (ID: 17179388/0x010622FC) and starts talking
  5: 0x0029 [0x00] END_REQSTACK()
```
