# 17179491 - Portia

## Common Data

| Field            | Value                             |
|------------------|-----------------------------------|
| Zone             | Sauromugue Champaign [S] (ID: 98) |
| Block Size       | 176 bytes                         |
| Total Events     | 6                                 |
| References Count | 13                                |

## List of Events

| Event ID                 | Entrypoint   |   Size |   Instructions |
|--------------------------|--------------|--------|----------------|
| [65535](#event-65535)    | 0x0000       |      1 |              1 |
| [10](#event-10)          | 0x0001       |     27 |              3 |
| [65535.1](#event-655351) | 0x001C       |     15 |              5 |
| [65535.2](#event-655352) | 0x002B       |     14 |              4 |
| [65535.3](#event-655353) | 0x0039       |     21 |              2 |
| [65535.4](#event-655354) | 0x004E       |      4 |              2 |

## DAT References (imed_data)

|   Index | Hex Value   |   Dec Value |
|---------|-------------|-------------|
|       0 | 0x0001      |           1 |
|       1 | 0x0002      |           2 |
|       2 | 0x00D2      |         210 |
|       3 | 0x0000      |           0 |
|       4 | 0x000D      |          13 |
|       5 | 0xFFFF951D  |  4294939933 |
|       6 | 0xFFFF1B4F  |  4294908751 |
|       7 | 0xFFFF9580  |  4294940032 |
|       8 | 0xFFFEFB67  |  4294900583 |
|       9 | 0x0003      |           3 |
|      10 | 0x001B      |          27 |
|      11 | 0x00D3      |         211 |
|      12 | 0x017B      |         379 |

## Events

### Event 65535

#### Metadata

| Field        | Value   |
|--------------|---------|
| Entrypoint   | 0x0000  |
| Data Size    | 1 bytes |
| Instructions | 1       |

```
      00 01 02 03 04 05 06 07  08 09 0A 0B 0C 0D 0E 0F
      -- -- -- -- -- -- -- --  -- -- -- -- -- -- -- --
0000: 00                                                .               
```

#### Opcodes

```
  0: 0x0000 [0x00] END_REQSTACK()
```

### Event 10

#### Metadata

| Field        | Value    |
|--------------|----------|
| Entrypoint   | 0x0001   |
| Data Size    | 27 bytes |
| Instructions | 3        |

```
      00 01 02 03 04 05 06 07  08 09 0A 0B 0C 0D 0E 0F
      -- -- -- -- -- -- -- --  -- -- -- -- -- -- -- --
0000:    92 01 F8 FF FF 7F B6  0B 00 80 01 80 02 80 02   ...............
0010: 80 02 80 02 80 02 80 03  80 03 80 00              ............    
```

#### Opcodes

```
  0: 0x0001 [0x92] EventEntity->Render.Flags3 ^= 0x01
  1: 0x0007 [0xB6] ENTITY_APPEARANCE_HANDLER(case=Full entity look, race=1*, hair=2*, head=210*, body=210*, hands=210*, legs=210*, feet=210*, main=0*, sub=0*)
  2: 0x001B [0x00] END_REQSTACK()
```

### Event 65535.1

#### Metadata

| Field        | Value    |
|--------------|----------|
| Entrypoint   | 0x001C   |
| Data Size    | 15 bytes |
| Instructions | 5        |

```
      00 01 02 03 04 05 06 07  08 09 0A 0B 0C 0D 0E 0F
      -- -- -- -- -- -- -- --  -- -- -- -- -- -- -- --
0010:                                      32 04 80 1F              2...
0020: 00 05 80 06 80 00 80 1F  01 6F 00                 .........o.     
```

#### Opcodes

```
  0: 0x001C [0x32] ExtData[1]->MainSpeed = 13* * 0.1
  1: 0x001F [0x1F] MOVE_ENTITY: EventEntity moves to X=-27.363*, Z=-58.545*, Y=0.001*
  2: 0x0027 [0x1F] MOVE_ENTITY: Update entity position (mode=1)
  3: 0x0029 [0x6F] WAIT_FRAME_DELAY: Yield until WaitTime reaches zero
  4: 0x002A [0x00] END_REQSTACK()
```

### Event 65535.2

#### Metadata

| Field        | Value    |
|--------------|----------|
| Entrypoint   | 0x002B   |
| Data Size    | 14 bytes |
| Instructions | 4        |

```
      00 01 02 03 04 05 06 07  08 09 0A 0B 0C 0D 0E 0F
      -- -- -- -- -- -- -- --  -- -- -- -- -- -- -- --
0020:                                   32 04 80 1F 00             2....
0030: 07 80 08 80 09 80 1F 01  00                       .........       
```

#### Opcodes

```
  0: 0x002B [0x32] ExtData[1]->MainSpeed = 13* * 0.1
  1: 0x002E [0x1F] MOVE_ENTITY: EventEntity moves to X=-27.264*, Z=-66.713*, Y=0.003*
  2: 0x0036 [0x1F] MOVE_ENTITY: Update entity position (mode=1)
  3: 0x0038 [0x00] END_REQSTACK()
```

### Event 65535.3

#### Metadata

| Field        | Value    |
|--------------|----------|
| Entrypoint   | 0x0039   |
| Data Size    | 21 bytes |
| Instructions | 2        |

```
      00 01 02 03 04 05 06 07  08 09 0A 0B 0C 0D 0E 0F
      -- -- -- -- -- -- -- --  -- -- -- -- -- -- -- --
0030:                             B6 0B 01 80 0A 80 03           .......
0040: 80 0B 80 0B 80 0B 80 0B  80 0C 80 03 80 00        ..............  
```

#### Opcodes

```
  0: 0x0039 [0xB6] ENTITY_APPEARANCE_HANDLER(case=Full entity look, race=2*, hair=27*, head=0*, body=211*, hands=211*, legs=211*, feet=211*, main=379*, sub=0*)
  1: 0x004D [0x00] END_REQSTACK()
```

### Event 65535.4

#### Metadata

| Field        | Value   |
|--------------|---------|
| Entrypoint   | 0x004E  |
| Data Size    | 4 bytes |
| Instructions | 2       |

```
      00 01 02 03 04 05 06 07  08 09 0A 0B 0C 0D 0E 0F
      -- -- -- -- -- -- -- --  -- -- -- -- -- -- -- --
0040:                                            C0 00                ..
0050: 80 00                                             ..              
```

#### Opcodes

```
  0: 0x004E [0xC0] EventEntity->Render.Flags3 |= 0x1000 // Set bit 12 (from 1*)
  1: 0x0051 [0x00] END_REQSTACK()
```
