# 17179347

## Common Data

| Field            | Value                             |
|------------------|-----------------------------------|
| Zone             | Sauromugue Champaign [S] (ID: 98) |
| Block Size       | 884 bytes                         |
| Total Events     | 21                                |
| References Count | 20                                |

## List of Events

| Event ID                   | Entrypoint   |   Size |   Instructions |
|----------------------------|--------------|--------|----------------|
| [65535](#event-65535)      | 0x0000       |      1 |              1 |
| [65535.1](#event-655351)   | 0x0001       |      4 |              2 |
| [700](#event-700)          | 0x0005       |      1 |              1 |
| [701](#event-701)          | 0x0006       |      1 |              1 |
| [4](#event-4)              | 0x0007       |      1 |              1 |
| [105](#event-105)          | 0x0008       |      1 |              1 |
| [113](#event-113)          | 0x0009       |      1 |              1 |
| [109](#event-109)          | 0x000A       |      1 |              1 |
| [110](#event-110)          | 0x000B       |      1 |              1 |
| [65535.2](#event-655352)   | 0x000C       |    127 |             15 |
| [65535.3](#event-655353)   | 0x008B       |    127 |             15 |
| [65535.4](#event-655354)   | 0x010A       |     55 |              5 |
| [65535.5](#event-655355)   | 0x0141       |     85 |              9 |
| [65535.6](#event-655356)   | 0x0196       |     70 |              8 |
| [65535.7](#event-655357)   | 0x01DC       |     58 |              6 |
| [65535.8](#event-655358)   | 0x0216       |    127 |             15 |
| [65535.9](#event-655359)   | 0x0295       |     28 |              6 |
| [65535.10](#event-6553510) | 0x02B1       |     10 |              2 |
| [10](#event-10)            | 0x02BB       |      1 |              1 |
| [31](#event-31)            | 0x02BC       |      1 |              1 |
| [32](#event-32)            | 0x02BD       |      1 |              1 |

## DAT References (imed_data)

|   Index | Hex Value   |   Dec Value |
|---------|-------------|-------------|
|       0 | 0x0002      |           2 |
|       1 | 0x0526      |        1318 |
|       2 | 0x0001      |           1 |
|       3 | 0x0003      |           3 |
|       4 | 0x0004      |           4 |
|       5 | 0x091D      |        2333 |
|       6 | 0x0005      |           5 |
|       7 | 0x052E      |        1326 |
|       8 | 0x05F9      |        1529 |
|       9 | 0x0527      |        1319 |
|      10 | 0x00B4      |         180 |
|      11 | 0x00C7      |         199 |
|      12 | 0x0000      |           0 |
|      13 | 0x019F      |         415 |
|      14 | 0x001E      |          30 |
|      15 | 0x00EB      |         235 |
|      16 | 0x0024      |          36 |
|      17 | 0x000F      |          15 |
|      18 | 0x0008      |           8 |
|      19 | 0x0080      |         128 |

## Events

### Event 65535

#### Metadata

| Field        | Value   |
|--------------|---------|
| Entrypoint   | 0x0000  |
| Data Size    | 1 bytes |
| Instructions | 1       |

```
      00 01 02 03 04 05 06 07  08 09 0A 0B 0C 0D 0E 0F
      -- -- -- -- -- -- -- --  -- -- -- -- -- -- -- --
0000: 00                                                .               
```

#### Opcodes

```
  0: 0x0000 [0x00] END_REQSTACK()
```

### Event 65535.1

#### Metadata

| Field        | Value   |
|--------------|---------|
| Entrypoint   | 0x0001  |
| Data Size    | 4 bytes |
| Instructions | 2       |

```
      00 01 02 03 04 05 06 07  08 09 0A 0B 0C 0D 0E 0F
      -- -- -- -- -- -- -- --  -- -- -- -- -- -- -- --
0000:    1C 02 10 00                                     ....           
```

#### Opcodes

```
  0: 0x0001 [0x1C] WAIT(Work_Zone[2] ticks)
  1: 0x0004 [0x00] END_REQSTACK()
```

### Event 700

#### Metadata

| Field        | Value   |
|--------------|---------|
| Entrypoint   | 0x0005  |
| Data Size    | 1 bytes |
| Instructions | 1       |

```
      00 01 02 03 04 05 06 07  08 09 0A 0B 0C 0D 0E 0F
      -- -- -- -- -- -- -- --  -- -- -- -- -- -- -- --
0000:                00                                      .          
```

#### Opcodes

```
  0: 0x0005 [0x00] END_REQSTACK()
```

### Event 701

#### Metadata

| Field        | Value   |
|--------------|---------|
| Entrypoint   | 0x0006  |
| Data Size    | 1 bytes |
| Instructions | 1       |

```
      00 01 02 03 04 05 06 07  08 09 0A 0B 0C 0D 0E 0F
      -- -- -- -- -- -- -- --  -- -- -- -- -- -- -- --
0000:                   00                                    .         
```

#### Opcodes

```
  0: 0x0006 [0x00] END_REQSTACK()
```

### Event 4

#### Metadata

| Field        | Value   |
|--------------|---------|
| Entrypoint   | 0x0007  |
| Data Size    | 1 bytes |
| Instructions | 1       |

```
      00 01 02 03 04 05 06 07  08 09 0A 0B 0C 0D 0E 0F
      -- -- -- -- -- -- -- --  -- -- -- -- -- -- -- --
0000:                      00                                  .        
```

#### Opcodes

```
  0: 0x0007 [0x00] END_REQSTACK()
```

### Event 105

#### Metadata

| Field        | Value   |
|--------------|---------|
| Entrypoint   | 0x0008  |
| Data Size    | 1 bytes |
| Instructions | 1       |

```
      00 01 02 03 04 05 06 07  08 09 0A 0B 0C 0D 0E 0F
      -- -- -- -- -- -- -- --  -- -- -- -- -- -- -- --
0000:                          00                               .       
```

#### Opcodes

```
  0: 0x0008 [0x00] END_REQSTACK()
```

### Event 113

#### Metadata

| Field        | Value   |
|--------------|---------|
| Entrypoint   | 0x0009  |
| Data Size    | 1 bytes |
| Instructions | 1       |

```
      00 01 02 03 04 05 06 07  08 09 0A 0B 0C 0D 0E 0F
      -- -- -- -- -- -- -- --  -- -- -- -- -- -- -- --
0000:                             00                             .      
```

#### Opcodes

```
  0: 0x0009 [0x00] END_REQSTACK()
```

### Event 109

#### Metadata

| Field        | Value   |
|--------------|---------|
| Entrypoint   | 0x000A  |
| Data Size    | 1 bytes |
| Instructions | 1       |

```
      00 01 02 03 04 05 06 07  08 09 0A 0B 0C 0D 0E 0F
      -- -- -- -- -- -- -- --  -- -- -- -- -- -- -- --
0000:                                00                           .     
```

#### Opcodes

```
  0: 0x000A [0x00] END_REQSTACK()
```

### Event 110

#### Metadata

| Field        | Value   |
|--------------|---------|
| Entrypoint   | 0x000B  |
| Data Size    | 1 bytes |
| Instructions | 1       |

```
      00 01 02 03 04 05 06 07  08 09 0A 0B 0C 0D 0E 0F
      -- -- -- -- -- -- -- --  -- -- -- -- -- -- -- --
0000:                                   00                         .    
```

#### Opcodes

```
  0: 0x000B [0x00] END_REQSTACK()
```

### Event 65535.2

#### Metadata

| Field        | Value     |
|--------------|-----------|
| Entrypoint   | 0x000C    |
| Data Size    | 127 bytes |
| Instructions | 15        |

```
      00 01 02 03 04 05 06 07  08 09 0A 0B 0C 0D 0E 0F
      -- -- -- -- -- -- -- --  -- -- -- -- -- -- -- --
0000:                                      1C 00 80 5B              ...[
0010: 01 80 0C 23 06 01 0C 23  06 01 63 6F 6D 30 1C 02  ...#...#..com0..
0020: 80 5B 01 80 0D 23 06 01  0D 23 06 01 63 6F 6D 30  .[...#...#..com0
0030: 1C 03 80 5B 01 80 0F 23  06 01 0F 23 06 01 63 6F  ...[...#...#..co
0040: 6D 30 1C 04 80 5B 01 80  10 23 06 01 10 23 06 01  m0...[...#...#..
0050: 63 6F 6D 30 1C 00 80 5B  05 80 11 23 06 01 11 23  com0...[...#...#
0060: 06 01 6B 61 6D 30 1C 02  80 5B 05 80 12 23 06 01  ..kam0...[...#..
0070: 12 23 06 01 6B 61 6D 30  1C 06 80 5B 05 80 14 23  .#..kam0...[...#
0080: 06 01 14 23 06 01 6B 61  6D 30 00                 ...#..kam0.     
```

#### Opcodes

```
  0: 0x000C [0x1C] WAIT(2* ticks)
  1: 0x000F [0x5B] LOAD_EXT_SCHEDULER: Load scheduler "com0" with entities [kame01 (ID: 17179404/0x0106230C), kame01 (ID: 17179404/0x0106230C)], work=1318*
  2: 0x001E [0x1C] WAIT(1* ticks)
  3: 0x0021 [0x5B] LOAD_EXT_SCHEDULER: Load scheduler "com0" with entities [kame02 (ID: 17179405/0x0106230D), kame02 (ID: 17179405/0x0106230D)], work=1318*
  4: 0x0030 [0x1C] WAIT(3* ticks)
  5: 0x0033 [0x5B] LOAD_EXT_SCHEDULER: Load scheduler "com0" with entities [kame04 (ID: 17179407/0x0106230F), kame04 (ID: 17179407/0x0106230F)], work=1318*
  6: 0x0042 [0x1C] WAIT(4* ticks)
  7: 0x0045 [0x5B] LOAD_EXT_SCHEDULER: Load scheduler "com0" with entities [kame05 (ID: 17179408/0x01062310), kame05 (ID: 17179408/0x01062310)], work=1318*
  8: 0x0054 [0x1C] WAIT(2* ticks)
  9: 0x0057 [0x5B] LOAD_EXT_SCHEDULER: Load scheduler "kam0" with entities [gian01 (ID: 17179409/0x01062311), gian01 (ID: 17179409/0x01062311)], work=2333*
 10: 0x0066 [0x1C] WAIT(1* ticks)
 11: 0x0069 [0x5B] LOAD_EXT_SCHEDULER: Load scheduler "kam0" with entities [gian02 (ID: 17179410/0x01062312), gian02 (ID: 17179410/0x01062312)], work=2333*
 12: 0x0078 [0x1C] WAIT(5* ticks)
 13: 0x007B [0x5B] LOAD_EXT_SCHEDULER: Load scheduler "kam0" with entities [gian04 (ID: 17179412/0x01062314), gian04 (ID: 17179412/0x01062314)], work=2333*
 14: 0x008A [0x00] END_REQSTACK()
```

### Event 65535.3

#### Metadata

| Field        | Value     |
|--------------|-----------|
| Entrypoint   | 0x008B    |
| Data Size    | 127 bytes |
| Instructions | 15        |

```
      00 01 02 03 04 05 06 07  08 09 0A 0B 0C 0D 0E 0F
      -- -- -- -- -- -- -- --  -- -- -- -- -- -- -- --
0080:                                   1C 03 80 5B 01             ...[.
0090: 80 0C 23 06 01 0C 23 06  01 63 6F 6D 30 1C 02 80  ..#...#..com0...
00A0: 5B 01 80 0D 23 06 01 0D  23 06 01 63 6F 6D 30 1C  [...#...#..com0.
00B0: 04 80 5B 01 80 0E 23 06  01 0E 23 06 01 63 6F 6D  ..[...#...#..com
00C0: 30 1C 00 80 5B 01 80 0F  23 06 01 0F 23 06 01 63  0...[...#...#..c
00D0: 6F 6D 30 1C 03 80 5B 01  80 10 23 06 01 10 23 06  om0...[...#...#.
00E0: 01 63 6F 6D 30 1C 06 80  5B 05 80 14 23 06 01 14  .com0...[...#...
00F0: 23 06 01 6B 61 6D 30 1C  03 80 5B 05 80 12 23 06  #..kam0...[...#.
0100: 01 12 23 06 01 6B 61 6D  30 00                    ..#..kam0.      
```

#### Opcodes

```
  0: 0x008B [0x1C] WAIT(3* ticks)
  1: 0x008E [0x5B] LOAD_EXT_SCHEDULER: Load scheduler "com0" with entities [kame01 (ID: 17179404/0x0106230C), kame01 (ID: 17179404/0x0106230C)], work=1318*
  2: 0x009D [0x1C] WAIT(1* ticks)
  3: 0x00A0 [0x5B] LOAD_EXT_SCHEDULER: Load scheduler "com0" with entities [kame02 (ID: 17179405/0x0106230D), kame02 (ID: 17179405/0x0106230D)], work=1318*
  4: 0x00AF [0x1C] WAIT(4* ticks)
  5: 0x00B2 [0x5B] LOAD_EXT_SCHEDULER: Load scheduler "com0" with entities [kame03 (ID: 17179406/0x0106230E), kame03 (ID: 17179406/0x0106230E)], work=1318*
  6: 0x00C1 [0x1C] WAIT(2* ticks)
  7: 0x00C4 [0x5B] LOAD_EXT_SCHEDULER: Load scheduler "com0" with entities [kame04 (ID: 17179407/0x0106230F), kame04 (ID: 17179407/0x0106230F)], work=1318*
  8: 0x00D3 [0x1C] WAIT(3* ticks)
  9: 0x00D6 [0x5B] LOAD_EXT_SCHEDULER: Load scheduler "com0" with entities [kame05 (ID: 17179408/0x01062310), kame05 (ID: 17179408/0x01062310)], work=1318*
 10: 0x00E5 [0x1C] WAIT(5* ticks)
 11: 0x00E8 [0x5B] LOAD_EXT_SCHEDULER: Load scheduler "kam0" with entities [gian04 (ID: 17179412/0x01062314), gian04 (ID: 17179412/0x01062314)], work=2333*
 12: 0x00F7 [0x1C] WAIT(3* ticks)
 13: 0x00FA [0x5B] LOAD_EXT_SCHEDULER: Load scheduler "kam0" with entities [gian02 (ID: 17179410/0x01062312), gian02 (ID: 17179410/0x01062312)], work=2333*
 14: 0x0109 [0x00] END_REQSTACK()
```

### Event 65535.4

#### Metadata

| Field        | Value    |
|--------------|----------|
| Entrypoint   | 0x010A   |
| Data Size    | 55 bytes |
| Instructions | 5        |

```
      00 01 02 03 04 05 06 07  08 09 0A 0B 0C 0D 0E 0F
      -- -- -- -- -- -- -- --  -- -- -- -- -- -- -- --
0100:                                5B 07 80 00 23 06            [...#.
0110: 01 00 23 06 01 72 62 74  6C 5B 07 80 06 23 06 01  ..#..rbtl[...#..
0120: 06 23 06 01 6E 79 61 30  5B 07 80 08 23 06 01 08  .#..nya0[...#...
0130: 23 06 01 73 74 64 62 6B  69 64 6C 30 F9 22 06 01  #..stdbkidl0."..
0140: 00                                                .               
```

#### Opcodes

```
  0: 0x010A [0x5B] LOAD_EXT_SCHEDULER: Load scheduler "rbtl" with entities [Romaa Mihgo (ID: 17179392/0x01062300), Romaa Mihgo (ID: 17179392/0x01062300)], work=1326*
  1: 0x0119 [0x5B] LOAD_EXT_SCHEDULER: Load scheduler "nya0" with entities [01 (ID: 17179398/0x01062306), 01 (ID: 17179398/0x01062306)], work=1326*
  2: 0x0128 [0x5B] LOAD_EXT_SCHEDULER: Load scheduler "stdb" with entities [03 (ID: 17179400/0x01062308), 03 (ID: 17179400/0x01062308)], work=1326*
  3: 0x0137 [0x6B] STOP_AND_IDLE: Mihl Pakorhma (ID: 17179385/0x010622F9) stops current action and resets to idle (animation="idl0")
  4: 0x0140 [0x00] END_REQSTACK()
```

### Event 65535.5

#### Metadata

| Field        | Value    |
|--------------|----------|
| Entrypoint   | 0x0141   |
| Data Size    | 85 bytes |
| Instructions | 9        |

```
      00 01 02 03 04 05 06 07  08 09 0A 0B 0C 0D 0E 0F
      -- -- -- -- -- -- -- --  -- -- -- -- -- -- -- --
0140:    5B 08 80 06 23 06 01  06 23 06 01 73 64 6F 6E   [...#...#..sdon
0150: 5B 07 80 00 23 06 01 00  23 06 01 72 62 74 6C 1C  [...#...#..rbtl.
0160: 00 80 5B 07 80 07 23 06  01 07 23 06 01 6E 79 61  ..[...#...#..nya
0170: 30 1C 03 80 5B 07 80 F8  22 06 01 F8 22 06 01 6E  0...[..."..."..n
0180: 79 61 30 1C 04 80 5B 07  80 F9 22 06 01 F9 22 06  ya0...[..."...".
0190: 01 73 74 64 61 00                                 .stda.          
```

#### Opcodes

```
  0: 0x0141 [0x5B] LOAD_EXT_SCHEDULER: Load scheduler "sdon" with entities [01 (ID: 17179398/0x01062306), 01 (ID: 17179398/0x01062306)], work=1529*
  1: 0x0150 [0x5B] LOAD_EXT_SCHEDULER: Load scheduler "rbtl" with entities [Romaa Mihgo (ID: 17179392/0x01062300), Romaa Mihgo (ID: 17179392/0x01062300)], work=1326*
  2: 0x015F [0x1C] WAIT(2* ticks)
  3: 0x0162 [0x5B] LOAD_EXT_SCHEDULER: Load scheduler "nya0" with entities [02 (ID: 17179399/0x01062307), 02 (ID: 17179399/0x01062307)], work=1326*
  4: 0x0171 [0x1C] WAIT(3* ticks)
  5: 0x0174 [0x5B] LOAD_EXT_SCHEDULER: Load scheduler "nya0" with entities [Tihl Midurhi (ID: 17179384/0x010622F8), Tihl Midurhi (ID: 17179384/0x010622F8)], work=1326*
  6: 0x0183 [0x1C] WAIT(4* ticks)
  7: 0x0186 [0x5B] LOAD_EXT_SCHEDULER: Load scheduler "stda" with entities [Mihl Pakorhma (ID: 17179385/0x010622F9), Mihl Pakorhma (ID: 17179385/0x010622F9)], work=1326*
  8: 0x0195 [0x00] END_REQSTACK()
```

### Event 65535.6

#### Metadata

| Field        | Value    |
|--------------|----------|
| Entrypoint   | 0x0196   |
| Data Size    | 70 bytes |
| Instructions | 8        |

```
      00 01 02 03 04 05 06 07  08 09 0A 0B 0C 0D 0E 0F
      -- -- -- -- -- -- -- --  -- -- -- -- -- -- -- --
0190:                   5B 09  80 0E 23 06 01 0E 23 06        [...#...#.
01A0: 01 67 72 64 30 1C 00 80  5B 05 80 13 23 06 01 13  .grd0...[...#...
01B0: 23 06 01 6B 61 6D 30 1C  03 80 5B 05 80 12 23 06  #..kam0...[...#.
01C0: 01 12 23 06 01 6B 61 6D  30 1C 02 80 5B 05 80 11  ..#..kam0...[...
01D0: 23 06 01 11 23 06 01 6B  61 6D 30 00              #...#..kam0.    
```

#### Opcodes

```
  0: 0x0196 [0x5B] LOAD_EXT_SCHEDULER: Load scheduler "grd0" with entities [kame03 (ID: 17179406/0x0106230E), kame03 (ID: 17179406/0x0106230E)], work=1319*
  1: 0x01A5 [0x1C] WAIT(2* ticks)
  2: 0x01A8 [0x5B] LOAD_EXT_SCHEDULER: Load scheduler "kam0" with entities [gian03 (ID: 17179411/0x01062313), gian03 (ID: 17179411/0x01062313)], work=2333*
  3: 0x01B7 [0x1C] WAIT(3* ticks)
  4: 0x01BA [0x5B] LOAD_EXT_SCHEDULER: Load scheduler "kam0" with entities [gian02 (ID: 17179410/0x01062312), gian02 (ID: 17179410/0x01062312)], work=2333*
  5: 0x01C9 [0x1C] WAIT(1* ticks)
  6: 0x01CC [0x5B] LOAD_EXT_SCHEDULER: Load scheduler "kam0" with entities [gian01 (ID: 17179409/0x01062311), gian01 (ID: 17179409/0x01062311)], work=2333*
  7: 0x01DB [0x00] END_REQSTACK()
```

### Event 65535.7

#### Metadata

| Field        | Value    |
|--------------|----------|
| Entrypoint   | 0x01DC   |
| Data Size    | 58 bytes |
| Instructions | 6        |

```
      00 01 02 03 04 05 06 07  08 09 0A 0B 0C 0D 0E 0F
      -- -- -- -- -- -- -- --  -- -- -- -- -- -- -- --
01D0:                                      1C 0A 80 BB              ....
01E0: 0B 80 19 23 06 01 19 23  06 01 73 30 30 30 0C 80  ...#...#..s000..
01F0: 45 0D 80 19 23 06 01 19  23 06 01 30 66 69 73 0C  E...#...#..0fis.
0200: 80 1C 0E 80 BB 0F 80 15  23 06 01 15 23 06 01 73  ........#...#..s
0210: 74 30 32 0C 80 00                                 t02...          
```

#### Opcodes

```
  0: 0x01DC [0x1C] WAIT(180* ticks)
  1: 0x01DF [0xBB] LOAD_EVENT_SCHEDULER_ALT: Load scheduler "s000" with entities [Danmaku04 (ID: 17179417/0x01062319), Danmaku04 (ID: 17179417/0x01062319)], work=[199*, 0*]
  2: 0x01F0 [0x45] LOAD_SCHEDULED_TASK: Load scheduler "0fis" with entities [Danmaku04 (ID: 17179417/0x01062319), Danmaku04 (ID: 17179417/0x01062319)], work=[415*, 0*]
  3: 0x0201 [0x1C] WAIT(30* ticks)
  4: 0x0204 [0xBB] LOAD_EVENT_SCHEDULER_ALT: Load scheduler "st02" with entities [Unnamed NPC (ID: 17179413/0x01062315), Unnamed NPC (ID: 17179413/0x01062315)], work=[235*, 0*]
  5: 0x0215 [0x00] END_REQSTACK()
```

### Event 65535.8

#### Metadata

| Field        | Value     |
|--------------|-----------|
| Entrypoint   | 0x0216    |
| Data Size    | 127 bytes |
| Instructions | 15        |

```
      00 01 02 03 04 05 06 07  08 09 0A 0B 0C 0D 0E 0F
      -- -- -- -- -- -- -- --  -- -- -- -- -- -- -- --
0210:                   1C 03  80 5B 01 80 0C 23 06 01        ...[...#..
0220: 0C 23 06 01 63 6F 6D 30  1C 02 80 5B 01 80 0D 23  .#..com0...[...#
0230: 06 01 0D 23 06 01 63 6F  6D 30 1C 04 80 5B 01 80  ...#..com0...[..
0240: 0E 23 06 01 0E 23 06 01  63 6F 6D 30 1C 00 80 5B  .#...#..com0...[
0250: 01 80 0F 23 06 01 0F 23  06 01 63 6F 6D 30 1C 03  ...#...#..com0..
0260: 80 5B 01 80 10 23 06 01  10 23 06 01 63 6F 6D 30  .[...#...#..com0
0270: 1C 06 80 5B 05 80 14 23  06 01 14 23 06 01 6B 61  ...[...#...#..ka
0280: 6D 30 1C 03 80 5B 05 80  12 23 06 01 12 23 06 01  m0...[...#...#..
0290: 6B 61 6D 30 00                                    kam0.           
```

#### Opcodes

```
  0: 0x0216 [0x1C] WAIT(3* ticks)
  1: 0x0219 [0x5B] LOAD_EXT_SCHEDULER: Load scheduler "com0" with entities [kame01 (ID: 17179404/0x0106230C), kame01 (ID: 17179404/0x0106230C)], work=1318*
  2: 0x0228 [0x1C] WAIT(1* ticks)
  3: 0x022B [0x5B] LOAD_EXT_SCHEDULER: Load scheduler "com0" with entities [kame02 (ID: 17179405/0x0106230D), kame02 (ID: 17179405/0x0106230D)], work=1318*
  4: 0x023A [0x1C] WAIT(4* ticks)
  5: 0x023D [0x5B] LOAD_EXT_SCHEDULER: Load scheduler "com0" with entities [kame03 (ID: 17179406/0x0106230E), kame03 (ID: 17179406/0x0106230E)], work=1318*
  6: 0x024C [0x1C] WAIT(2* ticks)
  7: 0x024F [0x5B] LOAD_EXT_SCHEDULER: Load scheduler "com0" with entities [kame04 (ID: 17179407/0x0106230F), kame04 (ID: 17179407/0x0106230F)], work=1318*
  8: 0x025E [0x1C] WAIT(3* ticks)
  9: 0x0261 [0x5B] LOAD_EXT_SCHEDULER: Load scheduler "com0" with entities [kame05 (ID: 17179408/0x01062310), kame05 (ID: 17179408/0x01062310)], work=1318*
 10: 0x0270 [0x1C] WAIT(5* ticks)
 11: 0x0273 [0x5B] LOAD_EXT_SCHEDULER: Load scheduler "kam0" with entities [gian04 (ID: 17179412/0x01062314), gian04 (ID: 17179412/0x01062314)], work=2333*
 12: 0x0282 [0x1C] WAIT(3* ticks)
 13: 0x0285 [0x5B] LOAD_EXT_SCHEDULER: Load scheduler "kam0" with entities [gian02 (ID: 17179410/0x01062312), gian02 (ID: 17179410/0x01062312)], work=2333*
 14: 0x0294 [0x00] END_REQSTACK()
```

### Event 65535.9

#### Metadata

| Field        | Value    |
|--------------|----------|
| Entrypoint   | 0x0295   |
| Data Size    | 28 bytes |
| Instructions | 6        |

```
      00 01 02 03 04 05 06 07  08 09 0A 0B 0C 0D 0E 0F
      -- -- -- -- -- -- -- --  -- -- -- -- -- -- -- --
0290:                6E F8 22  06 01 10 80 99 F8 22 06       n."......".
02A0: 01 1C 11 80 6E F9 22 06  01 12 80 99 F9 22 06 01  ....n."......"..
02B0: 00                                                .               
```

#### Opcodes

```
  0: 0x0295 [0x6E] Tihl Midurhi (ID: 17179384/0x010622F8) uses emote 36*
  1: 0x029C [0x99] Wait for Tihl Midurhi (ID: 17179384/0x010622F8) animation to complete
  2: 0x02A1 [0x1C] WAIT(15* ticks)
  3: 0x02A4 [0x6E] Mihl Pakorhma (ID: 17179385/0x010622F9) uses emote 8*
  4: 0x02AB [0x99] Wait for Mihl Pakorhma (ID: 17179385/0x010622F9) animation to complete
  5: 0x02B0 [0x00] END_REQSTACK()
```

### Event 65535.10

#### Metadata

| Field        | Value    |
|--------------|----------|
| Entrypoint   | 0x02B1   |
| Data Size    | 10 bytes |
| Instructions | 2        |

```
      00 01 02 03 04 05 06 07  08 09 0A 0B 0C 0D 0E 0F
      -- -- -- -- -- -- -- --  -- -- -- -- -- -- -- --
02B0:    6C FF 22 06 01 13 80  11 80 00                  l.".......     
```

#### Opcodes

```
  0: 0x02B1 [0x6C] FADE_ENTITY_COLOR(entity_id=Lehko Habhoka (ID: 17179391/0x010622FF), end_alpha=128*, fade_time=15*)
  1: 0x02BA [0x00] END_REQSTACK()
```

### Event 10

#### Metadata

| Field        | Value   |
|--------------|---------|
| Entrypoint   | 0x02BB  |
| Data Size    | 1 bytes |
| Instructions | 1       |

```
      00 01 02 03 04 05 06 07  08 09 0A 0B 0C 0D 0E 0F
      -- -- -- -- -- -- -- --  -- -- -- -- -- -- -- --
02B0:                                   00                         .    
```

#### Opcodes

```
  0: 0x02BB [0x00] END_REQSTACK()
```

### Event 31

#### Metadata

| Field        | Value   |
|--------------|---------|
| Entrypoint   | 0x02BC  |
| Data Size    | 1 bytes |
| Instructions | 1       |

```
      00 01 02 03 04 05 06 07  08 09 0A 0B 0C 0D 0E 0F
      -- -- -- -- -- -- -- --  -- -- -- -- -- -- -- --
02B0:                                      00                       .   
```

#### Opcodes

```
  0: 0x02BC [0x00] END_REQSTACK()
```

### Event 32

#### Metadata

| Field        | Value   |
|--------------|---------|
| Entrypoint   | 0x02BD  |
| Data Size    | 1 bytes |
| Instructions | 1       |

```
      00 01 02 03 04 05 06 07  08 09 0A 0B 0C 0D 0E 0F
      -- -- -- -- -- -- -- --  -- -- -- -- -- -- -- --
02B0:                                         00                     .  
```

#### Opcodes

```
  0: 0x02BD [0x00] END_REQSTACK()
```
