# 17179376 - Ulbrecht

## Common Data

| Field            | Value                             |
|------------------|-----------------------------------|
| Zone             | Sauromugue Champaign [S] (ID: 98) |
| Block Size       | 612 bytes                         |
| Total Events     | 18                                |
| References Count | 26                                |

## List of Events

| Event ID                   | Entrypoint   |   Size |   Instructions |
|----------------------------|--------------|--------|----------------|
| [65535](#event-65535)      | 0x0000       |      1 |              1 |
| [65535.1](#event-655351)   | 0x0001       |      1 |              1 |
| [65535.2](#event-655352)   | 0x0002       |     18 |              4 |
| [65535.3](#event-655353)   | 0x0014       |     10 |              2 |
| [65535.4](#event-655354)   | 0x001E       |      9 |              3 |
| [65535.5](#event-655355)   | 0x0027       |      9 |              3 |
| [65535.6](#event-655356)   | 0x0030       |     10 |              2 |
| [65535.7](#event-655357)   | 0x003A       |     10 |              2 |
| [3](#event-3)              | 0x0044       |      1 |              1 |
| [4](#event-4)              | 0x0045       |      1 |              1 |
| [65535.8](#event-655358)   | 0x0046       |     26 |              3 |
| [65535.9](#event-655359)   | 0x0060       |     26 |              3 |
| [65535.10](#event-6553510) | 0x007A       |     37 |              5 |
| [65535.11](#event-6553511) | 0x009F       |    185 |             37 |
| [65535.12](#event-6553512) | 0x0158       |     15 |              5 |
| [65535.13](#event-6553513) | 0x0167       |     21 |              5 |
| [65535.14](#event-6553514) | 0x017C       |     15 |              5 |
| [65535.15](#event-6553515) | 0x018B       |     24 |              6 |

## DAT References (imed_data)

|   Index | Hex Value   |   Dec Value |
|---------|-------------|-------------|
|       0 | 0x0000      |           0 |
|       1 | 0x0001      |           1 |
|       2 | 0x0080      |         128 |
|       3 | 0x0007      |           7 |
|       4 | 0x00D6      |         214 |
|       5 | 0x00B1      |         177 |
|       6 | 0x0005      |           5 |
|       7 | 0x0002      |           2 |
|       8 | 0x000A      |          10 |
|       9 | 0x0009      |           9 |
|      10 | 0x0046      |          70 |
|      11 | 0x008C      |         140 |
|      12 | 0x00D2      |         210 |
|      13 | 0x000B      |          11 |
|      14 | 0x127C5     |       75717 |
|      15 | 0x223D1     |      140241 |
|      16 | 0x01A5      |         421 |
|      17 | 0x002D      |          45 |
|      18 | 0x0008      |           8 |
|      19 | 0xFFF9D904  |  4294564100 |
|      20 | 0x3AF87     |      241543 |
|      21 | 0x0028      |          40 |
|      22 | 0xFFFA1A27  |  4294580775 |
|      23 | 0x41AD2     |      269010 |
|      24 | 0x0315      |         789 |
|      25 | 0x001E      |          30 |

## Events

### Event 65535

#### Metadata

| Field        | Value   |
|--------------|---------|
| Entrypoint   | 0x0000  |
| Data Size    | 1 bytes |
| Instructions | 1       |

```
      00 01 02 03 04 05 06 07  08 09 0A 0B 0C 0D 0E 0F
      -- -- -- -- -- -- -- --  -- -- -- -- -- -- -- --
0000: 00                                                .               
```

#### Opcodes

```
  0: 0x0000 [0x00] END_REQSTACK()
```

### Event 65535.1

#### Metadata

| Field        | Value   |
|--------------|---------|
| Entrypoint   | 0x0001  |
| Data Size    | 1 bytes |
| Instructions | 1       |

```
      00 01 02 03 04 05 06 07  08 09 0A 0B 0C 0D 0E 0F
      -- -- -- -- -- -- -- --  -- -- -- -- -- -- -- --
0000:    00                                              .              
```

#### Opcodes

```
  0: 0x0001 [0x00] END_REQSTACK()
```

### Event 65535.2

#### Metadata

| Field        | Value    |
|--------------|----------|
| Entrypoint   | 0x0002   |
| Data Size    | 18 bytes |
| Instructions | 4        |

```
      00 01 02 03 04 05 06 07  08 09 0A 0B 0C 0D 0E 0F
      -- -- -- -- -- -- -- --  -- -- -- -- -- -- -- --
0000:       22 00 2F 00 F8 FF  FF 7F 6C F8 FF FF 7F 00    "./.....l.....
0010: 80 01 80 00                                       ....            
```

#### Opcodes

```
  0: 0x0002 [0x22] ENTITY_HIDE_FLAG(enabled=0x00)
  1: 0x0004 [0x2F] EventEntity->Render.Flags0 &= ~0x80000 // Bit 19
  2: 0x000A [0x6C] FADE_ENTITY_COLOR(entity_id=EventEntity, end_alpha=0*, fade_time=1*)
  3: 0x0013 [0x00] END_REQSTACK()
```

### Event 65535.3

#### Metadata

| Field        | Value    |
|--------------|----------|
| Entrypoint   | 0x0014   |
| Data Size    | 10 bytes |
| Instructions | 2        |

```
      00 01 02 03 04 05 06 07  08 09 0A 0B 0C 0D 0E 0F
      -- -- -- -- -- -- -- --  -- -- -- -- -- -- -- --
0010:             6C F8 FF FF  7F 02 80 01 80 00            l.........  
```

#### Opcodes

```
  0: 0x0014 [0x6C] FADE_ENTITY_COLOR(entity_id=EventEntity, end_alpha=128*, fade_time=1*)
  1: 0x001D [0x00] END_REQSTACK()
```

### Event 65535.4

#### Metadata

| Field        | Value   |
|--------------|---------|
| Entrypoint   | 0x001E  |
| Data Size    | 9 bytes |
| Instructions | 3       |

```
      00 01 02 03 04 05 06 07  08 09 0A 0B 0C 0D 0E 0F
      -- -- -- -- -- -- -- --  -- -- -- -- -- -- -- --
0010:                                            22 00                ".
0020: 2F 00 F8 FF FF 7F 00                              /......         
```

#### Opcodes

```
  0: 0x001E [0x22] ENTITY_HIDE_FLAG(enabled=0x00)
  1: 0x0020 [0x2F] EventEntity->Render.Flags0 &= ~0x80000 // Bit 19
  2: 0x0026 [0x00] END_REQSTACK()
```

### Event 65535.5

#### Metadata

| Field        | Value   |
|--------------|---------|
| Entrypoint   | 0x0027  |
| Data Size    | 9 bytes |
| Instructions | 3       |

```
      00 01 02 03 04 05 06 07  08 09 0A 0B 0C 0D 0E 0F
      -- -- -- -- -- -- -- --  -- -- -- -- -- -- -- --
0020:                      22  01 2F 01 F8 FF FF 7F 00         "./......
```

#### Opcodes

```
  0: 0x0027 [0x22] ENTITY_HIDE_FLAG(enabled=0x01)
  1: 0x0029 [0x2F] EventEntity->Render.Flags0 |= 0x80000 // Bit 19
  2: 0x002F [0x00] END_REQSTACK()
```

### Event 65535.6

#### Metadata

| Field        | Value    |
|--------------|----------|
| Entrypoint   | 0x0030   |
| Data Size    | 10 bytes |
| Instructions | 2        |

```
      00 01 02 03 04 05 06 07  08 09 0A 0B 0C 0D 0E 0F
      -- -- -- -- -- -- -- --  -- -- -- -- -- -- -- --
0030: 6C F8 FF FF 7F 00 80 01  80 00                    l.........      
```

#### Opcodes

```
  0: 0x0030 [0x6C] FADE_ENTITY_COLOR(entity_id=EventEntity, end_alpha=0*, fade_time=1*)
  1: 0x0039 [0x00] END_REQSTACK()
```

### Event 65535.7

#### Metadata

| Field        | Value    |
|--------------|----------|
| Entrypoint   | 0x003A   |
| Data Size    | 10 bytes |
| Instructions | 2        |

```
      00 01 02 03 04 05 06 07  08 09 0A 0B 0C 0D 0E 0F
      -- -- -- -- -- -- -- --  -- -- -- -- -- -- -- --
0030:                                6C F8 FF FF 7F 02            l.....
0040: 80 01 80 00                                       ....            
```

#### Opcodes

```
  0: 0x003A [0x6C] FADE_ENTITY_COLOR(entity_id=EventEntity, end_alpha=128*, fade_time=1*)
  1: 0x0043 [0x00] END_REQSTACK()
```

### Event 3

#### Metadata

| Field        | Value   |
|--------------|---------|
| Entrypoint   | 0x0044  |
| Data Size    | 1 bytes |
| Instructions | 1       |

```
      00 01 02 03 04 05 06 07  08 09 0A 0B 0C 0D 0E 0F
      -- -- -- -- -- -- -- --  -- -- -- -- -- -- -- --
0040:             00                                        .           
```

#### Opcodes

```
  0: 0x0044 [0x00] END_REQSTACK()
```

### Event 4

#### Metadata

| Field        | Value   |
|--------------|---------|
| Entrypoint   | 0x0045  |
| Data Size    | 1 bytes |
| Instructions | 1       |

```
      00 01 02 03 04 05 06 07  08 09 0A 0B 0C 0D 0E 0F
      -- -- -- -- -- -- -- --  -- -- -- -- -- -- -- --
0040:                00                                      .          
```

#### Opcodes

```
  0: 0x0045 [0x00] END_REQSTACK()
```

### Event 65535.8

#### Metadata

| Field        | Value    |
|--------------|----------|
| Entrypoint   | 0x0046   |
| Data Size    | 26 bytes |
| Instructions | 3        |

```
      00 01 02 03 04 05 06 07  08 09 0A 0B 0C 0D 0E 0F
      -- -- -- -- -- -- -- --  -- -- -- -- -- -- -- --
0040:                   B6 0B  01 80 03 80 00 80 04 80        ..........
0050: 04 80 04 80 04 80 05 80  00 80 80 F8 FF FF 7F 00  ................
```

#### Opcodes

```
  0: 0x0046 [0xB6] ENTITY_APPEARANCE_HANDLER(case=Full entity look, race=1*, hair=7*, head=0*, body=214*, hands=214*, legs=214*, feet=214*, main=177*, sub=0*)
  1: 0x005A [0x80] LOAD_WAIT(entity=EventEntity)
  2: 0x005F [0x00] END_REQSTACK()
```

### Event 65535.9

#### Metadata

| Field        | Value    |
|--------------|----------|
| Entrypoint   | 0x0060   |
| Data Size    | 26 bytes |
| Instructions | 3        |

```
      00 01 02 03 04 05 06 07  08 09 0A 0B 0C 0D 0E 0F
      -- -- -- -- -- -- -- --  -- -- -- -- -- -- -- --
0060: B6 0B 01 80 03 80 04 80  04 80 04 80 04 80 04 80  ................
0070: 05 80 00 80 80 F8 FF FF  7F 00                    ..........      
```

#### Opcodes

```
  0: 0x0060 [0xB6] ENTITY_APPEARANCE_HANDLER(case=Full entity look, race=1*, hair=7*, head=214*, body=214*, hands=214*, legs=214*, feet=214*, main=177*, sub=0*)
  1: 0x0074 [0x80] LOAD_WAIT(entity=EventEntity)
  2: 0x0079 [0x00] END_REQSTACK()
```

### Event 65535.10

#### Metadata

| Field        | Value    |
|--------------|----------|
| Entrypoint   | 0x007A   |
| Data Size    | 37 bytes |
| Instructions | 5        |

```
      00 01 02 03 04 05 06 07  08 09 0A 0B 0C 0D 0E 0F
      -- -- -- -- -- -- -- --  -- -- -- -- -- -- -- --
0070:                                03 00 00 07 7F 1A            ......
0080: C4 00 66 01 00 F8 FF FF  7F F8 FF FF 7F 73 68 61  ..f..........sha
0090: 30 53 F8 FF FF 7F F8 FF  FF 7F 73 68 61 30 00     0S........sha0. 
```

#### Opcodes

```
  0: 0x007A [0x03] ExtData[1]->WorkLocal[0] = Entity->Race
  1: 0x007F [0x1A] CALL_SUBROUTINE(address=0x00C4)
  2: 0x0082 [0x66] LOAD_EXT_SCHEDULER_MAIN: Load scheduler "sha0" with entities [EventEntity, EventEntity], work=ExtData[1]->WorkLocal[1]
  3: 0x0091 [0x53] WAIT_SCHEDULER_TASK: Wait for scheduler "sha0" with entities [EventEntity, EventEntity]
  4: 0x009E [0x00] END_REQSTACK()
```

### Event 65535.11

#### Metadata

| Field        | Value     |
|--------------|-----------|
| Entrypoint   | 0x009F    |
| Data Size    | 185 bytes |
| Instructions | 13        |

```
      00 01 02 03 04 05 06 07  08 09 0A 0B 0C 0D 0E 0F
      -- -- -- -- -- -- -- --  -- -- -- -- -- -- -- --
0090:                                               03                 .
00A0: 00 00 07 7F 1A C4 00 66  01 00 F8 FF FF 7F F8 FF  .......f........
00B0: FF 7F 73 68 61 32 53 F8  FF FF 7F F8 FF FF 7F 73  ..sha2S........s
00C0: 68 61 32 00 03 01 00 00  00 02 01 00 06 80 05 D9  ha2.............
00D0: 00 08 01 00 01 80 01 DE  00 08 01 00 07 80 14 01  ................
00E0: 00 08 80 07 01 00 09 80  1B 03 01 00 00 00 02 01  ................
00F0: 00 06 80 05 FE 00 08 01  00 01 80 01 03 01 08 01  ................
0100: 00 07 80 14 01 00 08 80  07 01 00 0A 80 1B 03 01  ................
0110: 00 00 00 02 01 00 06 80  05 23 01 08 01 00 01 80  .........#......
0120: 01 28 01 08 01 00 07 80  14 01 00 08 80 07 01 00  .(..............
0130: 0B 80 1B 03 01 00 00 00  02 01 00 06 80 05 48 01  ..............H.
0140: 08 01 00 01 80 01 4D 01  08 01 00 07 80 14 01 00  ......M.........
0150: 08 80 07 01 00 0C 80 1B                           ........        
```

#### Opcodes

```
  0: 0x009F [0x03] ExtData[1]->WorkLocal[0] = Entity->Race
  1: 0x00A4 [0x1A] CALL_SUBROUTINE(address=0x00C4)
  2: 0x00A7 [0x66] LOAD_EXT_SCHEDULER_MAIN: Load scheduler "sha2" with entities [EventEntity, EventEntity], work=ExtData[1]->WorkLocal[1]
  3: 0x00B6 [0x53] WAIT_SCHEDULER_TASK: Wait for scheduler "sha2" with entities [EventEntity, EventEntity]
  4: 0x00C3 [0x00] END_REQSTACK()

SUBROUTINE_00C4:
  5: 0x00C4 [0x03] ExtData[1]->WorkLocal[1] = ExtData[1]->WorkLocal[0]
  6: 0x00C9 [0x02] IF !(ExtData[1]->WorkLocal[1] > 5*) GOTO 0x00D9
  7: 0x00D1 [0x08] ExtData[1]->WorkLocal[1] -= 1*
  8: 0x00D6 [0x01] GOTO 0x00DE
  9: 0x00D9 [0x08] ExtData[1]->WorkLocal[1] -= 2*

SUBROUTINE_00DE:
 10: 0x00DE [0x14] ExtData[1]->WorkLocal[1] *= 10*
 11: 0x00E3 [0x07] ExtData[1]->WorkLocal[1] += 9*
 12: 0x00E8 [0x1B] RETURN
```

#### Data or dead code:

```
# Dead code (unreachable instructions):
     0x00E9 [0x03] ExtData[1]->WorkLocal[1] = ExtData[1]->WorkLocal[0]
     0x00EE [0x02] IF !(ExtData[1]->WorkLocal[1] > 5*) GOTO 0x00FE
     0x00F6 [0x08] ExtData[1]->WorkLocal[1] -= 1*
     0x00FB [0x01] GOTO 0x0103
     0x00FE [0x08] ExtData[1]->WorkLocal[1] -= 2*
     0x0103 [0x14] ExtData[1]->WorkLocal[1] *= 10*
     0x0108 [0x07] ExtData[1]->WorkLocal[1] += 70*
     0x010D [0x1B] RETURN
     0x010E [0x03] ExtData[1]->WorkLocal[1] = ExtData[1]->WorkLocal[0]
     0x0113 [0x02] IF !(ExtData[1]->WorkLocal[1] > 5*) GOTO 0x0123
     0x011B [0x08] ExtData[1]->WorkLocal[1] -= 1*
     0x0120 [0x01] GOTO 0x0128
     0x0123 [0x08] ExtData[1]->WorkLocal[1] -= 2*
     0x0128 [0x14] ExtData[1]->WorkLocal[1] *= 10*
     0x012D [0x07] ExtData[1]->WorkLocal[1] += 140*
     0x0132 [0x1B] RETURN
     0x0133 [0x03] ExtData[1]->WorkLocal[1] = ExtData[1]->WorkLocal[0]
     0x0138 [0x02] IF !(ExtData[1]->WorkLocal[1] > 5*) GOTO 0x0148
     0x0140 [0x08] ExtData[1]->WorkLocal[1] -= 1*
     0x0145 [0x01] GOTO 0x014D
     0x0148 [0x08] ExtData[1]->WorkLocal[1] -= 2*
     0x014D [0x14] ExtData[1]->WorkLocal[1] *= 10*
     0x0152 [0x07] ExtData[1]->WorkLocal[1] += 210*
     0x0157 [0x1B] RETURN
```

### Event 65535.12

#### Metadata

| Field        | Value    |
|--------------|----------|
| Entrypoint   | 0x0158   |
| Data Size    | 15 bytes |
| Instructions | 5        |

```
      00 01 02 03 04 05 06 07  08 09 0A 0B 0C 0D 0E 0F
      -- -- -- -- -- -- -- --  -- -- -- -- -- -- -- --
0150:                          32 0D 80 1F 00 0E 80 0F          2.......
0160: 80 10 80 1F 01 6F 00                              .....o.         
```

#### Opcodes

```
  0: 0x0158 [0x32] ExtData[1]->MainSpeed = 11* * 0.1
  1: 0x015B [0x1F] MOVE_ENTITY: EventEntity moves to X=75.717*, Z=140.241*, Y=0.421*
  2: 0x0163 [0x1F] MOVE_ENTITY: Update entity position (mode=1)
  3: 0x0165 [0x6F] WAIT_FRAME_DELAY: Yield until WaitTime reaches zero
  4: 0x0166 [0x00] END_REQSTACK()
```

### Event 65535.13

#### Metadata

| Field        | Value    |
|--------------|----------|
| Entrypoint   | 0x0167   |
| Data Size    | 21 bytes |
| Instructions | 5        |

```
      00 01 02 03 04 05 06 07  08 09 0A 0B 0C 0D 0E 0F
      -- -- -- -- -- -- -- --  -- -- -- -- -- -- -- --
0160:                      1C  11 80 6E F8 FF FF 7F 12         ...n.....
0170: 80 99 F8 FF FF 7F 99 F8  FF FF 7F 00              ............    
```

#### Opcodes

```
  0: 0x0167 [0x1C] WAIT(45* ticks)
  1: 0x016A [0x6E] EventEntity uses emote 8*
  2: 0x0171 [0x99] Wait for EventEntity animation to complete
  3: 0x0176 [0x99] Wait for EventEntity animation to complete
  4: 0x017B [0x00] END_REQSTACK()
```

### Event 65535.14

#### Metadata

| Field        | Value    |
|--------------|----------|
| Entrypoint   | 0x017C   |
| Data Size    | 15 bytes |
| Instructions | 5        |

```
      00 01 02 03 04 05 06 07  08 09 0A 0B 0C 0D 0E 0F
      -- -- -- -- -- -- -- --  -- -- -- -- -- -- -- --
0170:                                      32 0D 80 1F              2...
0180: 00 13 80 14 80 00 80 1F  01 6F 00                 .........o.     
```

#### Opcodes

```
  0: 0x017C [0x32] ExtData[1]->MainSpeed = 11* * 0.1
  1: 0x017F [0x1F] MOVE_ENTITY: EventEntity moves to X=-403.196*, Z=241.543*, Y=0.000*
  2: 0x0187 [0x1F] MOVE_ENTITY: Update entity position (mode=1)
  3: 0x0189 [0x6F] WAIT_FRAME_DELAY: Yield until WaitTime reaches zero
  4: 0x018A [0x00] END_REQSTACK()
```

### Event 65535.15

#### Metadata

| Field        | Value    |
|--------------|----------|
| Entrypoint   | 0x018B   |
| Data Size    | 24 bytes |
| Instructions | 6        |

```
      00 01 02 03 04 05 06 07  08 09 0A 0B 0C 0D 0E 0F
      -- -- -- -- -- -- -- --  -- -- -- -- -- -- -- --
0180:                                   32 15 80 1F 00             2....
0190: 16 80 17 80 18 80 1F 01  6F 6C F8 FF FF 7F 00 80  ........ol......
01A0: 19 80 00                                          ...             
```

#### Opcodes

```
  0: 0x018B [0x32] ExtData[1]->MainSpeed = 40* * 0.1
  1: 0x018E [0x1F] MOVE_ENTITY: EventEntity moves to X=-386.521*, Z=269.010*, Y=0.789*
  2: 0x0196 [0x1F] MOVE_ENTITY: Update entity position (mode=1)
  3: 0x0198 [0x6F] WAIT_FRAME_DELAY: Yield until WaitTime reaches zero
  4: 0x0199 [0x6C] FADE_ENTITY_COLOR(entity_id=EventEntity, end_alpha=0*, fade_time=30*)
  5: 0x01A2 [0x00] END_REQSTACK()
```
