# 0x7FFFFFF0 - Zone Events

## Common Data

| Field            | Value                             |
|------------------|-----------------------------------|
| Zone             | Sauromugue Champaign [S] (ID: 98) |
| Block Size       | 6028 bytes                        |
| Total Events     | 99                                |
| References Count | 220                               |

## List of Events

| Event ID                   | Entrypoint   |   Size |   Instructions |
|----------------------------|--------------|--------|----------------|
| [65535](#event-65535)      | 0x0000       |      1 |              1 |
| [65534](#event-65534)      | 0x0001       |      1 |              1 |
| [201](#event-201)          | 0x0002       |    102 |             15 |
| [264](#event-264)          | 0x0068       |     29 |              7 |
| [65535.1](#event-655351)   | 0x0085       |     16 |              3 |
| [65535.2](#event-655352)   | 0x0095       |     41 |              5 |
| [65535.3](#event-655353)   | 0x00BE       |     20 |              6 |
| [65535.4](#event-655354)   | 0x00D2       |     13 |              3 |
| [65535.5](#event-655355)   | 0x00DF       |     14 |              4 |
| [65535.6](#event-655356)   | 0x00ED       |     13 |              3 |
| [65535.7](#event-655357)   | 0x00FA       |     14 |              4 |
| [65535.8](#event-655358)   | 0x0108       |     29 |              5 |
| [65535.9](#event-655359)   | 0x0125       |     27 |              5 |
| [65535.10](#event-6553510) | 0x0140       |     27 |              5 |
| [65535.11](#event-6553511) | 0x015B       |     35 |              6 |
| [65535.12](#event-6553512) | 0x017E       |     27 |              5 |
| [65535.13](#event-6553513) | 0x0199       |     14 |              4 |
| [65535.14](#event-6553514) | 0x01A7       |     14 |              4 |
| [65535.15](#event-6553515) | 0x01B5       |     14 |              4 |
| [65535.16](#event-6553516) | 0x01C3       |     14 |              4 |
| [65535.17](#event-6553517) | 0x01D1       |     14 |              4 |
| [65535.18](#event-6553518) | 0x01DF       |     14 |              4 |
| [65535.19](#event-6553519) | 0x01ED       |     14 |              4 |
| [65535.20](#event-6553520) | 0x01FB       |     28 |              6 |
| [65535.21](#event-6553521) | 0x0217       |     16 |              3 |
| [65535.22](#event-6553522) | 0x0227       |     16 |              3 |
| [65535.23](#event-6553523) | 0x0237       |     38 |              5 |
| [65535.24](#event-6553524) | 0x025D       |     38 |              5 |
| [65535.25](#event-6553525) | 0x0283       |     38 |              5 |
| [65535.26](#event-6553526) | 0x02A9       |    209 |             25 |
| [65535.27](#event-6553527) | 0x037A       |    209 |             25 |
| [65535.28](#event-6553528) | 0x044B       |    209 |             25 |
| [65535.29](#event-6553529) | 0x051C       |    209 |             25 |
| [65535.30](#event-6553530) | 0x05ED       |    209 |             25 |
| [65535.31](#event-6553531) | 0x06BE       |     48 |              9 |
| [65535.32](#event-6553532) | 0x06EE       |     11 |              3 |
| [65535.33](#event-6553533) | 0x06F9       |     27 |              5 |
| [65535.34](#event-6553534) | 0x0714       |     16 |              4 |
| [65535.35](#event-6553535) | 0x0724       |     24 |              4 |
| [65535.36](#event-6553536) | 0x073C       |     24 |              4 |
| [65535.37](#event-6553537) | 0x0754       |     45 |              7 |
| [65535.38](#event-6553538) | 0x0781       |     15 |              5 |
| [65535.39](#event-6553539) | 0x0790       |     15 |              5 |
| [65535.40](#event-6553540) | 0x079F       |     46 |             12 |
| [65535.41](#event-6553541) | 0x07CD       |     15 |              5 |
| [65535.42](#event-6553542) | 0x07DC       |      4 |              2 |
| [65535.43](#event-6553543) | 0x07E0       |      9 |              3 |
| [65535.44](#event-6553544) | 0x07E9       |     16 |              4 |
| [65535.45](#event-6553545) | 0x07F9       |     23 |              7 |
| [65535.46](#event-6553546) | 0x0810       |     23 |              7 |
| [65535.47](#event-6553547) | 0x0827       |     11 |              3 |
| [65535.48](#event-6553548) | 0x0832       |     13 |              3 |
| [65535.49](#event-6553549) | 0x083F       |     11 |              3 |
| [65535.50](#event-6553550) | 0x084A       |     14 |              4 |
| [65535.51](#event-6553551) | 0x0858       |     14 |              4 |
| [65535.52](#event-6553552) | 0x0866       |     14 |              4 |
| [65535.53](#event-6553553) | 0x0874       |     14 |              4 |
| [65535.54](#event-6553554) | 0x0882       |     14 |              4 |
| [65535.55](#event-6553555) | 0x0890       |     22 |              6 |
| [65535.56](#event-6553556) | 0x08A6       |     19 |              5 |
| [65535.57](#event-6553557) | 0x08B9       |     18 |              6 |
| [65535.58](#event-6553558) | 0x08CB       |     14 |              4 |
| [65535.59](#event-6553559) | 0x08D9       |     14 |              4 |
| [65535.60](#event-6553560) | 0x08E7       |     22 |              6 |
| [65535.61](#event-6553561) | 0x08FD       |     14 |              4 |
| [65535.62](#event-6553562) | 0x090B       |     22 |              6 |
| [65535.63](#event-6553563) | 0x0921       |     32 |              8 |
| [65535.64](#event-6553564) | 0x0941       |     19 |              5 |
| [65535.65](#event-6553565) | 0x0954       |     39 |              9 |
| [65535.66](#event-6553566) | 0x097B       |     19 |              5 |
| [65535.67](#event-6553567) | 0x098E       |     14 |              4 |
| [65535.68](#event-6553568) | 0x099C       |     15 |              5 |
| [65535.69](#event-6553569) | 0x09AB       |     14 |              4 |
| [65535.70](#event-6553570) | 0x09B9       |     14 |              4 |
| [65535.71](#event-6553571) | 0x09C7       |     70 |             15 |
| [65535.72](#event-6553572) | 0x0A0D       |     37 |              5 |
| [65535.73](#event-6553573) | 0x0A32       |    185 |             37 |
| [65535.74](#event-6553574) | 0x0AEB       |      6 |              2 |
| [65535.75](#event-6553575) | 0x0AF1       |      6 |              2 |
| [65535.76](#event-6553576) | 0x0AF7       |      7 |              3 |
| [65535.77](#event-6553577) | 0x0AFE       |      7 |              3 |
| [65535.78](#event-6553578) | 0x0B05       |     20 |              6 |
| [65535.79](#event-6553579) | 0x0B19       |      3 |              2 |
| [65535.80](#event-6553580) | 0x0B1C       |      3 |              2 |
| [65535.81](#event-6553581) | 0x0B1F       |     15 |              5 |
| [65535.82](#event-6553582) | 0x0B2E       |     42 |              6 |
| [65535.83](#event-6553583) | 0x0B58       |      4 |              2 |
| [502](#event-502)          | 0x0B5C       |    303 |             67 |
| [65535.84](#event-6553584) | 0x0C8B       |     10 |              2 |
| [65535.85](#event-6553585) | 0x0C95       |     10 |              2 |
| [65535.86](#event-6553586) | 0x0C9F       |     32 |              8 |
| [65535.87](#event-6553587) | 0x0CBF       |     29 |              5 |
| [65535.88](#event-6553588) | 0x0CDC       |     15 |              5 |
| [65535.89](#event-6553589) | 0x0CEB       |      5 |              2 |
| [65535.90](#event-6553590) | 0x0CF0       |      5 |              2 |
| [65535.91](#event-6553591) | 0x0CF5       |      5 |              2 |
| [65535.92](#event-6553592) | 0x0CFA       |      5 |              2 |
| [65535.93](#event-6553593) | 0x0CFF       |    345 |             33 |
| [266](#event-266)          | 0x0E58       |   1061 |            204 |

## DAT References (imed_data)

|   Index | Hex Value   |   Dec Value |
|---------|-------------|-------------|
|       0 | 0x1DC7      |        7623 |
|       1 | 0x00C8      |         200 |
|       2 | 0x0000      |           0 |
|       3 | 0x0001      |           1 |
|       4 | 0x005A      |          90 |
|       5 | 0x003C      |          60 |
|       6 | 0x00C9      |         201 |
|       7 | 0x2036      |        8246 |
|       8 | 0x00EA      |         234 |
|       9 | 0x5A461     |      369761 |
|      10 | 0xFFFC8C39  |  4294741049 |
|      11 | 0x2329      |        9001 |
|      12 | 0x0DF4      |        3572 |
|      13 | 0x0094      |         148 |
|      14 | 0x00F0      |         240 |
|      15 | 0x000D      |          13 |
|      16 | 0xFFF953D0  |  4294530000 |
|      17 | 0x537A5     |      341925 |
|      18 | 0x0387      |         903 |
|      19 | 0xFFFE69C0  |  4294863296 |
|      20 | 0xFFF9AAE8  |  4294552296 |
|      21 | 0xFFFF9F89  |  4294942601 |
|      22 | 0x0400      |        1024 |
|      23 | 0xFFF99954  |  4294547796 |
|      24 | 0x40740     |      264000 |
|      25 | 0xFFFA4728  |  4294592296 |
|      26 | 0xFFFFFD45  |  4294966597 |
|      27 | 0xFFFA3594  |  4294587796 |
|      28 | 0x012C      |         300 |
|      29 | 0x001E      |          30 |
|      30 | 0xFFF97779  |  4294539129 |
|      31 | 0xFFFC360E  |  4294718990 |
|      32 | 0x4E1F      |       19999 |
|      33 | 0x0C1B      |        3099 |
|      34 | 0x8DB92     |      580498 |
|      35 | 0xFFFCA9CB  |  4294748619 |
|      36 | 0x8C9F      |       35999 |
|      37 | 0x8D5BB     |      579003 |
|      38 | 0xFFFC9A22  |  4294744610 |
|      39 | 0x8D55A     |      578906 |
|      40 | 0xFFFC4448  |  4294722632 |
|      41 | 0x85CA      |       34250 |
|      42 | 0x87EAE     |      556718 |
|      43 | 0xFFFA6B61  |  4294601569 |
|      44 | 0x000A      |          10 |
|      45 | 0xFFFB8893  |  4294674579 |
|      46 | 0xFFF8B131  |  4294488369 |
|      47 | 0x8E17B     |      582011 |
|      48 | 0xFFFCC75C  |  4294756188 |
|      49 | 0x8D9B5     |      580021 |
|      50 | 0xFFFC8498  |  4294739096 |
|      51 | 0x0007      |           7 |
|      52 | 0x0080      |         128 |
|      53 | 0x0091      |         145 |
|      54 | 0x004F      |          79 |
|      55 | 0x004C      |          76 |
|      56 | 0x0106      |         262 |
|      57 | 0x0040      |          64 |
|      58 | 0x0018      |          24 |
|      59 | 0x0050      |          80 |
|      60 | 0x0005      |           5 |
|      61 | 0x0046      |          70 |
|      62 | 0x0002      |           2 |
|      63 | 0x0003      |           3 |
|      64 | 0x0004      |           4 |
|      65 | 0x0064      |         100 |
|      66 | 0x006E      |         110 |
|      67 | 0x0006      |           6 |
|      68 | 0x0078      |         120 |
|      69 | 0x0008      |           8 |
|      70 | 0x0082      |         130 |
|      71 | 0x0049      |          73 |
|      72 | 0x0053      |          83 |
|      73 | 0x005D      |          93 |
|      74 | 0x0067      |         103 |
|      75 | 0x0071      |         113 |
|      76 | 0x007B      |         123 |
|      77 | 0x0085      |         133 |
|      78 | 0xFFFFFC18  |  4294966296 |
|      79 | 0x0BB8      |        3000 |
|      80 | 0x81434     |      529460 |
|      81 | 0xFFFA4FCB  |  4294594507 |
|      82 | 0x0F39      |        3897 |
|      83 | 0xFFFB6FF7  |  4294668279 |
|      84 | 0xFFF8B223  |  4294488611 |
|      85 | 0x0014      |          20 |
|      86 | 0x000B      |          11 |
|      87 | 0x12E31     |       77361 |
|      88 | 0x22D2D     |      142637 |
|      89 | 0x02B0      |         688 |
|      90 | 0xFFF9B96F  |  4294556015 |
|      91 | 0x3715B     |      225627 |
|      92 | 0x00E8      |         232 |
|      93 | 0xFFF9BBEF  |  4294556655 |
|      94 | 0x3791A     |      227610 |
|      95 | 0x0023      |          35 |
|      96 | 0x0024      |          36 |
|      97 | 0xFFF9C92E  |  4294560046 |
|      98 | 0x398FB     |      235771 |
|      99 | 0x00A0      |         160 |
|     100 | 0xFFF9CC76  |  4294560886 |
|     101 | 0x3A04B     |      237643 |
|     102 | 0x0077      |         119 |
|     103 | 0xFFF9D016  |  4294561814 |
|     104 | 0x3A8B0     |      239792 |
|     105 | 0x0048      |          72 |
|     106 | 0x0028      |          40 |
|     107 | 0x002D      |          45 |
|     108 | 0x0A75      |        2677 |
|     109 | 0x0026      |          38 |
|     110 | 0x28632     |      165426 |
|     111 | 0xFFFD7B50  |  4294802256 |
|     112 | 0x1F44      |        8004 |
|     113 | 0x000F      |          15 |
|     114 | 0x1218C     |       74124 |
|     115 | 0xFFFDF076  |  4294832246 |
|     116 | 0x1E45      |        7749 |
|     117 | 0x53F76     |      343926 |
|     118 | 0xFFFD6FB8  |  4294799288 |
|     119 | 0x406D      |       16493 |
|     120 | 0x58D87     |      363911 |
|     121 | 0xFFFD7587  |  4294800775 |
|     122 | 0x3EFC      |       16124 |
|     123 | 0xFFF95A08  |  4294531592 |
|     124 | 0x53DD6     |      343510 |
|     125 | 0x0320      |         800 |
|     126 | 0xFFF94B6F  |  4294527855 |
|     127 | 0x53E93     |      343699 |
|     128 | 0x032E      |         814 |
|     129 | 0xFFF937F3  |  4294522867 |
|     130 | 0x53BCE     |      342990 |
|     131 | 0x02EF      |         751 |
|     132 | 0x00FF      |         255 |
|     133 | 0xFFFEB446  |  4294882374 |
|     134 | 0xFFFF9350  |  4294939472 |
|     135 | 0xFFFF2CCC  |  4294913228 |
|     136 | 0x4FCF      |       20431 |
|     137 | 0xFBB5      |       64437 |
|     138 | 0x07CF      |        1999 |
|     139 | 0x4690      |       18064 |
|     140 | 0xFE15      |       65045 |
|     141 | 0xFFF94976  |  4294527350 |
|     142 | 0x53E08     |      343560 |
|     143 | 0x0335      |         821 |
|     144 | 0x0305      |         773 |
|     145 | 0x12A0F     |       76303 |
|     146 | 0xFFFFEC79  |  4294962297 |
|     147 | 0xFFFFFFE4  |  4294967268 |
|     148 | 0x121AB     |       74155 |
|     149 | 0xFFFFEC78  |  4294962296 |
|     150 | 0x0973      |        2419 |
|     151 | 0x13594     |       79252 |
|     152 | 0xFFFF8EF3  |  4294938355 |
|     153 | 0xFFFF469B  |  4294919835 |
|     154 | 0xFFF944B6  |  4294526134 |
|     155 | 0x53A4B     |      342603 |
|     156 | 0x0365      |         869 |
|     157 | 0xFFFF95E7  |  4294940135 |
|     158 | 0xF9A5      |       63909 |
|     159 | 0x07D2      |        2002 |
|     160 | 0xFFFF8CAF  |  4294937775 |
|     161 | 0xFA7A      |       64122 |
|     162 | 0xFFFF6AFD  |  4294929149 |
|     163 | 0x8AFC      |       35580 |
|     164 | 0xFFFF7021  |  4294930465 |
|     165 | 0x64E5      |       25829 |
|     166 | 0xFFFFFA25  |  4294965797 |
|     167 | 0xFFFF7A56  |  4294933078 |
|     168 | 0x5353      |       21331 |
|     169 | 0xFFFF8459  |  4294935641 |
|     170 | 0x426C      |       17004 |
|     171 | 0xFFFF7C2D  |  4294933549 |
|     172 | 0x3D03      |       15619 |
|     173 | 0x0045      |          69 |
|     174 | 0x1B41A     |      111642 |
|     175 | 0x0C1D      |        3101 |
|     176 | 0x0252      |         594 |
|     177 | 0x1B812     |      112658 |
|     178 | 0x0368      |         872 |
|     179 | 0x1C768     |      116584 |
|     180 | 0x016F      |         367 |
|     181 | 0x1A840     |      108608 |
|     182 | 0x0057      |          87 |
|     183 | 0x0060      |          96 |
|     184 | 0x0009      |           9 |
|     185 | 0x008C      |         140 |
|     186 | 0x00D2      |         210 |
|     187 | 0xFFF96F60  |  4294537056 |
|     188 | 0x536EE     |      341742 |
|     189 | 0x026C      |         620 |
|     190 | 0x5A6B7     |      370359 |
|     191 | 0xFFFC8D30  |  4294741296 |
|     192 | 0x2363      |        9059 |
|     193 | 0x1F8B      |        8075 |
|     194 | 0x1F8A      |        8074 |
|     195 | 0x1F89      |        8073 |
|     196 | 0x0013      |          19 |
|     197 | 0x119C5     |       72133 |
|     198 | 0xFFFFFFFC  |  4294967292 |
|     199 | 0x1216A     |       74090 |
|     200 | 0xFFF9465C  |  4294526556 |
|     201 | 0x53A06     |      342534 |
|     202 | 0x008D      |         141 |
|     203 | 0x0F26      |        3878 |
|     204 | 0x0097      |         151 |
|     205 | 0x00A1      |         161 |
|     206 | 0x00AB      |         171 |
|     207 | 0x00B5      |         181 |
|     208 | 0x00BF      |         191 |
|     209 | 0x0090      |         144 |
|     210 | 0x00B4      |         180 |
|     211 | 0x1CB5      |        7349 |
|     212 | 0x1CB6      |        7350 |
|     213 | 0x1CB8      |        7352 |
|     214 | 0x1CB9      |        7353 |
|     215 | 0x1CBA      |        7354 |
|     216 | 0x1CBB      |        7355 |
|     217 | 0x0102      |         258 |
|     218 | 0x0202      |         514 |
|     219 | 0x0156      |         342 |

## String References

- **7623**: The order has been given by your party leader to enter [Everbloom Hollow/the Ruhotz Silvermines/Ghoyu's Reverie].
- **8246**: The sandworm swallows you whole!

## Events

### Event 65535

#### Metadata

| Field        | Value   |
|--------------|---------|
| Entrypoint   | 0x0000  |
| Data Size    | 1 bytes |
| Instructions | 1       |

```
      00 01 02 03 04 05 06 07  08 09 0A 0B 0C 0D 0E 0F
      -- -- -- -- -- -- -- --  -- -- -- -- -- -- -- --
0000: 00                                                .               
```

#### Opcodes

```
  0: 0x0000 [0x00] END_REQSTACK()
```

### Event 65534

#### Metadata

| Field        | Value   |
|--------------|---------|
| Entrypoint   | 0x0001  |
| Data Size    | 1 bytes |
| Instructions | 1       |

```
      00 01 02 03 04 05 06 07  08 09 0A 0B 0C 0D 0E 0F
      -- -- -- -- -- -- -- --  -- -- -- -- -- -- -- --
0000:    00                                              .              
```

#### Opcodes

```
  0: 0x0001 [0x00] END_REQSTACK()
```

### Event 201

#### Metadata

| Field        | Value     |
|--------------|-----------|
| Entrypoint   | 0x0002    |
| Data Size    | 102 bytes |
| Instructions | 15        |

```
      00 01 02 03 04 05 06 07  08 09 0A 0B 0C 0D 0E 0F
      -- -- -- -- -- -- -- --  -- -- -- -- -- -- -- --
0000:       42 48 00 80 45 01  80 F0 FF FF 7F F0 FF FF    BH..E.........
0010: 7F 66 64 6F 31 02 80 02  03 10 02 80 00 33 00 62  .fdo1........3.b
0020: 03 80 F0 FF FF 7F F0 FF  FF 7F 6D 61 69 6E 02 80  ..........main..
0030: 1C 04 80 1C 05 80 83 1E  17 AA 1E 17 1E 17 1E 17  ................
0040: 1E 17 1E 17 1F 17 1E 17  1E 17 03 00 00 02 80 77  ...............w
0050: 1F 17 00 00 78 45 06 80  F0 FF FF 7F F0 FF FF 7F  ....xE..........
0060: 77 68 69 31 02 80 21 00                           whi1..!.        
```

#### Opcodes

```
  0: 0x0002 [0x42] SET_CLI_EVENT_CANCEL_DATA()
  1: 0x0003 [0x48] [System] [7623*]:
    → "The order has been given by your party leader to enter [Everbloom Hollow/the Ruhotz Silvermines/Ghoyu's Reverie]."
  2: 0x0006 [0x45] LOAD_SCHEDULED_TASK: Load scheduler "fdo1" with entities [LocalPlayer, LocalPlayer], work=[200*, 0*]
  3: 0x0017 [0x02] IF !(Work_Zone[3] == 0*) GOTO 0x0033
  4: 0x001F [0x62] LOAD_EVENT_SCHEDULER: Load scheduler "main" with entities [LocalPlayer, LocalPlayer], work=[1*, 0*]
  5: 0x0030 [0x1C] WAIT(90* ticks)
  6: 0x0033 [0x1C] WAIT(60* ticks)
  7: 0x0036 [0x83] Work_Zone_1700[30] = GetGameTime()
  8: 0x0039 [0xAA] VANA_DIEL_TIMESTAMP_CONVERTER(timestamp=Work_Zone_1700[30], year=Work_Zone_1700[30], month=Work_Zone_1700[30], day=Work_Zone_1700[30], weekday=Work_Zone_1700[30], hour=Work_Zone_1700[31], minute=Work_Zone_1700[30], moon=Work_Zone_1700[30])
  9: 0x004A [0x03] ExtData[1]->WorkLocal[0] = 0*
 10: 0x004F [0x77] SET_EVENT_TIME_WEATHER(hour=Work_Zone_1700[31], weather=ExtData[1]->WorkLocal[0])
 11: 0x0054 [0x78] ENABLE_GAME_TIMER_RESET_WEATHER()
 12: 0x0055 [0x45] LOAD_SCHEDULED_TASK: Load scheduler "whi1" with entities [LocalPlayer, LocalPlayer], work=[201*, 0*]
 13: 0x0066 [0x21] END_EVENT
 14: 0x0067 [0x00] END_REQSTACK()
```

### Event 264

#### Metadata

| Field        | Value    |
|--------------|----------|
| Entrypoint   | 0x0068   |
| Data Size    | 29 bytes |
| Instructions | 7        |

```
      00 01 02 03 04 05 06 07  08 09 0A 0B 0C 0D 0E 0F
      -- -- -- -- -- -- -- --  -- -- -- -- -- -- -- --
0060:                          42 48 07 80 BB 08 80 F0          BH......
0070: FF FF 7F F0 FF FF 7F 6D  61 69 6E 02 80 1C 05 80  .......main.....
0080: 1C 05 80 21 00                                    ...!.           
```

#### Opcodes

```
  0: 0x0068 [0x42] SET_CLI_EVENT_CANCEL_DATA()
  1: 0x0069 [0x48] [System] [8246*]:
    → "The sandworm swallows you whole!"
  2: 0x006C [0xBB] LOAD_EVENT_SCHEDULER_ALT: Load scheduler "main" with entities [LocalPlayer, LocalPlayer], work=[234*, 0*]
  3: 0x007D [0x1C] WAIT(60* ticks)
  4: 0x0080 [0x1C] WAIT(60* ticks)
  5: 0x0083 [0x21] END_EVENT
  6: 0x0084 [0x00] END_REQSTACK()
```

### Event 65535.1

#### Metadata

| Field        | Value    |
|--------------|----------|
| Entrypoint   | 0x0085   |
| Data Size    | 16 bytes |
| Instructions | 3        |

```
      00 01 02 03 04 05 06 07  08 09 0A 0B 0C 0D 0E 0F
      -- -- -- -- -- -- -- --  -- -- -- -- -- -- -- --
0080:                92 01 F0  FF FF 7F 37 09 80 0A 80       ......7....
0090: 0B 80 0C 80 00                                    .....           
```

#### Opcodes

```
  0: 0x0085 [0x92] LocalPlayer->Render.Flags3 ^= 0x01
  1: 0x008B [0x37] UPDATE_EVENT_POSITION_AND_DIR: x=369.761*, z=-226.247*, y=9.001*, direction=313.9°*
  2: 0x0094 [0x00] END_REQSTACK()
```

### Event 65535.2

#### Metadata

| Field        | Value    |
|--------------|----------|
| Entrypoint   | 0x0095   |
| Data Size    | 41 bytes |
| Instructions | 5        |

```
      00 01 02 03 04 05 06 07  08 09 0A 0B 0C 0D 0E 0F
      -- -- -- -- -- -- -- --  -- -- -- -- -- -- -- --
0090:                BB 0D 80  F0 FF FF 7F CE 22 06 01       ........"..
00A0: 6D 61 69 6E 02 80 1C 0E  80 45 01 80 F0 FF FF 7F  main.....E......
00B0: F0 FF FF 7F 66 64 6F 31  02 80 1C 05 80 00        ....fdo1......  
```

#### Opcodes

```
  0: 0x0095 [0xBB] LOAD_EVENT_SCHEDULER_ALT: Load scheduler "main" with entities [LocalPlayer, Cavernous Maw (ID: 17179342/0x010622CE)], work=[148*, 0*]
  1: 0x00A6 [0x1C] WAIT(240* ticks)
  2: 0x00A9 [0x45] LOAD_SCHEDULED_TASK: Load scheduler "fdo1" with entities [LocalPlayer, LocalPlayer], work=[200*, 0*]
  3: 0x00BA [0x1C] WAIT(60* ticks)
  4: 0x00BD [0x00] END_REQSTACK()
```

### Event 65535.3

#### Metadata

| Field        | Value    |
|--------------|----------|
| Entrypoint   | 0x00BE   |
| Data Size    | 20 bytes |
| Instructions | 6        |

```
      00 01 02 03 04 05 06 07  08 09 0A 0B 0C 0D 0E 0F
      -- -- -- -- -- -- -- --  -- -- -- -- -- -- -- --
00B0:                                            32 0F                2.
00C0: 80 1F 00 10 80 11 80 12  80 1F 01 6F 1E FB 22 06  ...........o..".
00D0: 01 00                                             ..              
```

#### Opcodes

```
  0: 0x00BE [0x32] ExtData[1]->MainSpeed = 13* * 0.1
  1: 0x00C1 [0x1F] MOVE_ENTITY: EventEntity moves to X=-437.296*, Z=341.925*, Y=0.903*
  2: 0x00C9 [0x1F] MOVE_ENTITY: Update entity position (mode=1)
  3: 0x00CB [0x6F] WAIT_FRAME_DELAY: Yield until WaitTime reaches zero
  4: 0x00CC [0x1E] EventEntity looks at Koru-Moru (ID: 17179387/0x010622FB) and starts talking
  5: 0x00D1 [0x00] END_REQSTACK()
```

### Event 65535.4

#### Metadata

| Field        | Value    |
|--------------|----------|
| Entrypoint   | 0x00D2   |
| Data Size    | 13 bytes |
| Instructions | 3        |

```
      00 01 02 03 04 05 06 07  08 09 0A 0B 0C 0D 0E 0F
      -- -- -- -- -- -- -- --  -- -- -- -- -- -- -- --
00D0:       47 00 13 80 14 80  15 80 16 80 47 01 00       G.........G.. 
```

#### Opcodes

```
  0: 0x00D2 [0x47] UPDATE_PLAYER_POS(-104.000*, -415.000*, -24.695*, yaw=90.0°*)
  1: 0x00DC [0x47] WAIT_PLAYER_POS_UPDATE
  2: 0x00DE [0x00] END_REQSTACK()
```

### Event 65535.5

#### Metadata

| Field        | Value    |
|--------------|----------|
| Entrypoint   | 0x00DF   |
| Data Size    | 14 bytes |
| Instructions | 4        |

```
      00 01 02 03 04 05 06 07  08 09 0A 0B 0C 0D 0E 0F
      -- -- -- -- -- -- -- --  -- -- -- -- -- -- -- --
00D0:                                               32                 2
00E0: 0F 80 1F 00 13 80 17 80  15 80 1F 01 00           .............   
```

#### Opcodes

```
  0: 0x00DF [0x32] ExtData[1]->MainSpeed = 13* * 0.1
  1: 0x00E2 [0x1F] MOVE_ENTITY: EventEntity moves to X=-104.000*, Z=-419.500*, Y=-24.695*
  2: 0x00EA [0x1F] MOVE_ENTITY: Update entity position (mode=1)
  3: 0x00EC [0x00] END_REQSTACK()
```

### Event 65535.6

#### Metadata

| Field        | Value    |
|--------------|----------|
| Entrypoint   | 0x00ED   |
| Data Size    | 13 bytes |
| Instructions | 3        |

```
      00 01 02 03 04 05 06 07  08 09 0A 0B 0C 0D 0E 0F
      -- -- -- -- -- -- -- --  -- -- -- -- -- -- -- --
00E0:                                         47 00 18               G..
00F0: 80 19 80 1A 80 16 80 47  01 00                    .......G..      
```

#### Opcodes

```
  0: 0x00ED [0x47] UPDATE_PLAYER_POS(264.000*, -375.000*, -0.699*, yaw=90.0°*)
  1: 0x00F7 [0x47] WAIT_PLAYER_POS_UPDATE
  2: 0x00F9 [0x00] END_REQSTACK()
```

### Event 65535.7

#### Metadata

| Field        | Value    |
|--------------|----------|
| Entrypoint   | 0x00FA   |
| Data Size    | 14 bytes |
| Instructions | 4        |

```
      00 01 02 03 04 05 06 07  08 09 0A 0B 0C 0D 0E 0F
      -- -- -- -- -- -- -- --  -- -- -- -- -- -- -- --
00F0:                                32 0F 80 1F 00 18            2.....
0100: 80 1B 80 1A 80 1F 01 00                           ........        
```

#### Opcodes

```
  0: 0x00FA [0x32] ExtData[1]->MainSpeed = 13* * 0.1
  1: 0x00FD [0x1F] MOVE_ENTITY: EventEntity moves to X=264.000*, Z=-379.500*, Y=-0.699*
  2: 0x0105 [0x1F] MOVE_ENTITY: Update entity position (mode=1)
  3: 0x0107 [0x00] END_REQSTACK()
```

### Event 65535.8

#### Metadata

| Field        | Value    |
|--------------|----------|
| Entrypoint   | 0x0108   |
| Data Size    | 29 bytes |
| Instructions | 5        |

```
      00 01 02 03 04 05 06 07  08 09 0A 0B 0C 0D 0E 0F
      -- -- -- -- -- -- -- --  -- -- -- -- -- -- -- --
0100:                          7B F8 FF FF 7F 03 03 00          {.......
0110: 07 7F 1A 7C 0A 66 04 00  F8 FF FF 7F F8 FF FF 7F  ...|.f..........
0120: 61 74 70 30 00                                    atp0.           
```

#### Opcodes

```
  0: 0x0108 [0x7B] EventEntity stops talking
  1: 0x010D [0x03] ExtData[1]->WorkLocal[3] = Entity->Race
  2: 0x0112 [0x1A] CALL_SUBROUTINE(address=0x0A7C)
  3: 0x0115 [0x66] LOAD_EXT_SCHEDULER_MAIN: Load scheduler "atp0" with entities [EventEntity, EventEntity], work=ExtData[1]->WorkLocal[4]
  4: 0x0124 [0x00] END_REQSTACK()
```

### Event 65535.9

#### Metadata

| Field        | Value    |
|--------------|----------|
| Entrypoint   | 0x0125   |
| Data Size    | 27 bytes |
| Instructions | 5        |

```
      00 01 02 03 04 05 06 07  08 09 0A 0B 0C 0D 0E 0F
      -- -- -- -- -- -- -- --  -- -- -- -- -- -- -- --
0120:                03 03 00  07 7F 1A 7C 0A 66 04 00       ......|.f..
0130: F8 FF FF 7F F8 FF FF 7F  61 74 70 31 1C 1C 80 00  ........atp1....
```

#### Opcodes

```
  0: 0x0125 [0x03] ExtData[1]->WorkLocal[3] = Entity->Race
  1: 0x012A [0x1A] CALL_SUBROUTINE(address=0x0A7C)
  2: 0x012D [0x66] LOAD_EXT_SCHEDULER_MAIN: Load scheduler "atp1" with entities [EventEntity, EventEntity], work=ExtData[1]->WorkLocal[4]
  3: 0x013C [0x1C] WAIT(300* ticks)
  4: 0x013F [0x00] END_REQSTACK()
```

### Event 65535.10

#### Metadata

| Field        | Value    |
|--------------|----------|
| Entrypoint   | 0x0140   |
| Data Size    | 27 bytes |
| Instructions | 5        |

```
      00 01 02 03 04 05 06 07  08 09 0A 0B 0C 0D 0E 0F
      -- -- -- -- -- -- -- --  -- -- -- -- -- -- -- --
0140: 03 03 00 07 7F 1A 7C 0A  66 04 00 F8 FF FF 7F F8  ......|.f.......
0150: FF FF 7F 65 63 30 30 1C  1D 80 00                 ...ec00....     
```

#### Opcodes

```
  0: 0x0140 [0x03] ExtData[1]->WorkLocal[3] = Entity->Race
  1: 0x0145 [0x1A] CALL_SUBROUTINE(address=0x0A7C)
  2: 0x0148 [0x66] LOAD_EXT_SCHEDULER_MAIN: Load scheduler "ec00" with entities [EventEntity, EventEntity], work=ExtData[1]->WorkLocal[4]
  3: 0x0157 [0x1C] WAIT(30* ticks)
  4: 0x015A [0x00] END_REQSTACK()
```

### Event 65535.11

#### Metadata

| Field        | Value    |
|--------------|----------|
| Entrypoint   | 0x015B   |
| Data Size    | 35 bytes |
| Instructions | 6        |

```
      00 01 02 03 04 05 06 07  08 09 0A 0B 0C 0D 0E 0F
      -- -- -- -- -- -- -- --  -- -- -- -- -- -- -- --
0150:                                   33 01 37 1E 80             3.7..
0160: 1F 80 20 80 21 80 03 03  00 07 7F 1A 7C 0A 66 04  .. .!.......|.f.
0170: 00 F8 FF FF 7F F8 FF FF  7F 65 63 61 30 00        .........eca0.  
```

#### Opcodes

```
  0: 0x015B [0x33] EventEntity->Render.Flags0 |= 0x200000 // Bit 21 (flag=0x01)
  1: 0x015D [0x37] UPDATE_EVENT_POSITION_AND_DIR: x=-428.167*, z=-248.306*, y=19.999*, direction=272.4°*
  2: 0x0166 [0x03] ExtData[1]->WorkLocal[3] = Entity->Race
  3: 0x016B [0x1A] CALL_SUBROUTINE(address=0x0A7C)
  4: 0x016E [0x66] LOAD_EXT_SCHEDULER_MAIN: Load scheduler "eca0" with entities [EventEntity, EventEntity], work=ExtData[1]->WorkLocal[4]
  5: 0x017D [0x00] END_REQSTACK()
```

### Event 65535.12

#### Metadata

| Field        | Value    |
|--------------|----------|
| Entrypoint   | 0x017E   |
| Data Size    | 27 bytes |
| Instructions | 5        |

```
      00 01 02 03 04 05 06 07  08 09 0A 0B 0C 0D 0E 0F
      -- -- -- -- -- -- -- --  -- -- -- -- -- -- -- --
0170:                                            03 03                ..
0180: 00 07 7F 1A 7C 0A 66 04  00 F8 FF FF 7F F8 FF FF  ....|.f.........
0190: 7F 65 63 61 31 1C 05 80  00                       .eca1....       
```

#### Opcodes

```
  0: 0x017E [0x03] ExtData[1]->WorkLocal[3] = Entity->Race
  1: 0x0183 [0x1A] CALL_SUBROUTINE(address=0x0A7C)
  2: 0x0186 [0x66] LOAD_EXT_SCHEDULER_MAIN: Load scheduler "eca1" with entities [EventEntity, EventEntity], work=ExtData[1]->WorkLocal[4]
  3: 0x0195 [0x1C] WAIT(60* ticks)
  4: 0x0198 [0x00] END_REQSTACK()
```

### Event 65535.13

#### Metadata

| Field        | Value    |
|--------------|----------|
| Entrypoint   | 0x0199   |
| Data Size    | 14 bytes |
| Instructions | 4        |

```
      00 01 02 03 04 05 06 07  08 09 0A 0B 0C 0D 0E 0F
      -- -- -- -- -- -- -- --  -- -- -- -- -- -- -- --
0190:                             32 0F 80 1F 00 22 80           2....".
01A0: 23 80 24 80 1F 01 00                              #.$....         
```

#### Opcodes

```
  0: 0x0199 [0x32] ExtData[1]->MainSpeed = 13* * 0.1
  1: 0x019C [0x1F] MOVE_ENTITY: EventEntity moves to X=580.498*, Z=-218.677*, Y=35.999*
  2: 0x01A4 [0x1F] MOVE_ENTITY: Update entity position (mode=1)
  3: 0x01A6 [0x00] END_REQSTACK()
```

### Event 65535.14

#### Metadata

| Field        | Value    |
|--------------|----------|
| Entrypoint   | 0x01A7   |
| Data Size    | 14 bytes |
| Instructions | 4        |

```
      00 01 02 03 04 05 06 07  08 09 0A 0B 0C 0D 0E 0F
      -- -- -- -- -- -- -- --  -- -- -- -- -- -- -- --
01A0:                      32  0F 80 1F 00 25 80 26 80         2....%.&.
01B0: 24 80 1F 01 00                                    $....           
```

#### Opcodes

```
  0: 0x01A7 [0x32] ExtData[1]->MainSpeed = 13* * 0.1
  1: 0x01AA [0x1F] MOVE_ENTITY: EventEntity moves to X=579.003*, Z=-222.686*, Y=35.999*
  2: 0x01B2 [0x1F] MOVE_ENTITY: Update entity position (mode=1)
  3: 0x01B4 [0x00] END_REQSTACK()
```

### Event 65535.15

#### Metadata

| Field        | Value    |
|--------------|----------|
| Entrypoint   | 0x01B5   |
| Data Size    | 14 bytes |
| Instructions | 4        |

```
      00 01 02 03 04 05 06 07  08 09 0A 0B 0C 0D 0E 0F
      -- -- -- -- -- -- -- --  -- -- -- -- -- -- -- --
01B0:                32 0F 80  1F 00 27 80 28 80 29 80       2....'.(.).
01C0: 1F 01 00                                          ...             
```

#### Opcodes

```
  0: 0x01B5 [0x32] ExtData[1]->MainSpeed = 13* * 0.1
  1: 0x01B8 [0x1F] MOVE_ENTITY: EventEntity moves to X=578.906*, Z=-244.664*, Y=34.250*
  2: 0x01C0 [0x1F] MOVE_ENTITY: Update entity position (mode=1)
  3: 0x01C2 [0x00] END_REQSTACK()
```

### Event 65535.16

#### Metadata

| Field        | Value    |
|--------------|----------|
| Entrypoint   | 0x01C3   |
| Data Size    | 14 bytes |
| Instructions | 4        |

```
      00 01 02 03 04 05 06 07  08 09 0A 0B 0C 0D 0E 0F
      -- -- -- -- -- -- -- --  -- -- -- -- -- -- -- --
01C0:          32 0F 80 1F 00  2A 80 2B 80 02 80 1F 01     2....*.+.....
01D0: 00                                                .               
```

#### Opcodes

```
  0: 0x01C3 [0x32] ExtData[1]->MainSpeed = 13* * 0.1
  1: 0x01C6 [0x1F] MOVE_ENTITY: EventEntity moves to X=556.718*, Z=-365.727*, Y=0.000*
  2: 0x01CE [0x1F] MOVE_ENTITY: Update entity position (mode=1)
  3: 0x01D0 [0x00] END_REQSTACK()
```

### Event 65535.17

#### Metadata

| Field        | Value    |
|--------------|----------|
| Entrypoint   | 0x01D1   |
| Data Size    | 14 bytes |
| Instructions | 4        |

```
      00 01 02 03 04 05 06 07  08 09 0A 0B 0C 0D 0E 0F
      -- -- -- -- -- -- -- --  -- -- -- -- -- -- -- --
01D0:    32 2C 80 1F 00 2D 80  2E 80 02 80 1F 01 00      2,...-........ 
```

#### Opcodes

```
  0: 0x01D1 [0x32] ExtData[1]->MainSpeed = 10* * 0.1
  1: 0x01D4 [0x1F] MOVE_ENTITY: EventEntity moves to X=-292.717*, Z=-478.927*, Y=0.000*
  2: 0x01DC [0x1F] MOVE_ENTITY: Update entity position (mode=1)
  3: 0x01DE [0x00] END_REQSTACK()
```

### Event 65535.18

#### Metadata

| Field        | Value    |
|--------------|----------|
| Entrypoint   | 0x01DF   |
| Data Size    | 14 bytes |
| Instructions | 4        |

```
      00 01 02 03 04 05 06 07  08 09 0A 0B 0C 0D 0E 0F
      -- -- -- -- -- -- -- --  -- -- -- -- -- -- -- --
01D0:                                               32                 2
01E0: 0F 80 1F 00 2F 80 30 80  24 80 1F 01 00           ..../.0.$....   
```

#### Opcodes

```
  0: 0x01DF [0x32] ExtData[1]->MainSpeed = 13* * 0.1
  1: 0x01E2 [0x1F] MOVE_ENTITY: EventEntity moves to X=582.011*, Z=-211.108*, Y=35.999*
  2: 0x01EA [0x1F] MOVE_ENTITY: Update entity position (mode=1)
  3: 0x01EC [0x00] END_REQSTACK()
```

### Event 65535.19

#### Metadata

| Field        | Value    |
|--------------|----------|
| Entrypoint   | 0x01ED   |
| Data Size    | 14 bytes |
| Instructions | 4        |

```
      00 01 02 03 04 05 06 07  08 09 0A 0B 0C 0D 0E 0F
      -- -- -- -- -- -- -- --  -- -- -- -- -- -- -- --
01E0:                                         32 0F 80               2..
01F0: 1F 00 31 80 32 80 24 80  1F 01 00                 ..1.2.$....     
```

#### Opcodes

```
  0: 0x01ED [0x32] ExtData[1]->MainSpeed = 13* * 0.1
  1: 0x01F0 [0x1F] MOVE_ENTITY: EventEntity moves to X=580.021*, Z=-228.200*, Y=35.999*
  2: 0x01F8 [0x1F] MOVE_ENTITY: Update entity position (mode=1)
  3: 0x01FA [0x00] END_REQSTACK()
```

### Event 65535.20

#### Metadata

| Field        | Value    |
|--------------|----------|
| Entrypoint   | 0x01FB   |
| Data Size    | 28 bytes |
| Instructions | 6        |

```
      00 01 02 03 04 05 06 07  08 09 0A 0B 0C 0D 0E 0F
      -- -- -- -- -- -- -- --  -- -- -- -- -- -- -- --
01F0:                                   6E F0 FF FF 7F             n....
0200: 33 80 99 F0 FF FF 7F 1C  04 80 6E F0 FF FF 7F 2C  3.........n....,
0210: 80 99 F0 FF FF 7F 00                              .......         
```

#### Opcodes

```
  0: 0x01FB [0x6E] LocalPlayer uses emote 7*
  1: 0x0202 [0x99] Wait for LocalPlayer animation to complete
  2: 0x0207 [0x1C] WAIT(90* ticks)
  3: 0x020A [0x6E] LocalPlayer uses emote 10*
  4: 0x0211 [0x99] Wait for LocalPlayer animation to complete
  5: 0x0216 [0x00] END_REQSTACK()
```

### Event 65535.21

#### Metadata

| Field        | Value    |
|--------------|----------|
| Entrypoint   | 0x0217   |
| Data Size    | 16 bytes |
| Instructions | 3        |

```
      00 01 02 03 04 05 06 07  08 09 0A 0B 0C 0D 0E 0F
      -- -- -- -- -- -- -- --  -- -- -- -- -- -- -- --
0210:                      6C  F0 FF FF 7F 02 80 03 80         l........
0220: 92 01 F0 FF FF 7F 00                              .......         
```

#### Opcodes

```
  0: 0x0217 [0x6C] FADE_ENTITY_COLOR(entity_id=LocalPlayer, end_alpha=0*, fade_time=1*)
  1: 0x0220 [0x92] LocalPlayer->Render.Flags3 ^= 0x01
  2: 0x0226 [0x00] END_REQSTACK()
```

### Event 65535.22

#### Metadata

| Field        | Value    |
|--------------|----------|
| Entrypoint   | 0x0227   |
| Data Size    | 16 bytes |
| Instructions | 3        |

```
      00 01 02 03 04 05 06 07  08 09 0A 0B 0C 0D 0E 0F
      -- -- -- -- -- -- -- --  -- -- -- -- -- -- -- --
0220:                      6C  F0 FF FF 7F 34 80 03 80         l....4...
0230: 92 00 F0 FF FF 7F 00                              .......         
```

#### Opcodes

```
  0: 0x0227 [0x6C] FADE_ENTITY_COLOR(entity_id=LocalPlayer, end_alpha=128*, fade_time=1*)
  1: 0x0230 [0x92] LocalPlayer->Render.Flags3 = Flags3  // No change (flag=0)
  2: 0x0236 [0x00] END_REQSTACK()
```

### Event 65535.23

#### Metadata

| Field        | Value    |
|--------------|----------|
| Entrypoint   | 0x0237   |
| Data Size    | 38 bytes |
| Instructions | 5        |

```
      00 01 02 03 04 05 06 07  08 09 0A 0B 0C 0D 0E 0F
      -- -- -- -- -- -- -- --  -- -- -- -- -- -- -- --
0230:                      22  00 2F 00 F8 FF FF 7F B6         "./......
0240: 0B 03 80 02 80 35 80 36  80 37 80 37 80 37 80 06  .....5.6.7.7.7..
0250: 80 38 80 6C F8 FF FF 7F  39 80 03 80 00           .8.l....9....   
```

#### Opcodes

```
  0: 0x0237 [0x22] ENTITY_HIDE_FLAG(enabled=0x00)
  1: 0x0239 [0x2F] EventEntity->Render.Flags0 &= ~0x80000 // Bit 19
  2: 0x023F [0xB6] ENTITY_APPEARANCE_HANDLER(case=Full entity look, race=1*, hair=0*, head=145*, body=79*, hands=76*, legs=76*, feet=76*, main=201*, sub=262*)
  3: 0x0253 [0x6C] FADE_ENTITY_COLOR(entity_id=EventEntity, end_alpha=64*, fade_time=1*)
  4: 0x025C [0x00] END_REQSTACK()
```

### Event 65535.24

#### Metadata

| Field        | Value    |
|--------------|----------|
| Entrypoint   | 0x025D   |
| Data Size    | 38 bytes |
| Instructions | 5        |

```
      00 01 02 03 04 05 06 07  08 09 0A 0B 0C 0D 0E 0F
      -- -- -- -- -- -- -- --  -- -- -- -- -- -- -- --
0250:                                         22 00 2F               "./
0260: 00 F8 FF FF 7F B6 0B 03  80 02 80 35 80 36 80 37  ...........5.6.7
0270: 80 37 80 37 80 06 80 3A  80 6C F8 FF FF 7F 3B 80  .7.7...:.l....;.
0280: 03 80 00                                          ...             
```

#### Opcodes

```
  0: 0x025D [0x22] ENTITY_HIDE_FLAG(enabled=0x00)
  1: 0x025F [0x2F] EventEntity->Render.Flags0 &= ~0x80000 // Bit 19
  2: 0x0265 [0xB6] ENTITY_APPEARANCE_HANDLER(case=Full entity look, race=1*, hair=0*, head=145*, body=79*, hands=76*, legs=76*, feet=76*, main=201*, sub=24*)
  3: 0x0279 [0x6C] FADE_ENTITY_COLOR(entity_id=EventEntity, end_alpha=80*, fade_time=1*)
  4: 0x0282 [0x00] END_REQSTACK()
```

### Event 65535.25

#### Metadata

| Field        | Value    |
|--------------|----------|
| Entrypoint   | 0x0283   |
| Data Size    | 38 bytes |
| Instructions | 5        |

```
      00 01 02 03 04 05 06 07  08 09 0A 0B 0C 0D 0E 0F
      -- -- -- -- -- -- -- --  -- -- -- -- -- -- -- --
0280:          22 00 2F 00 F8  FF FF 7F B6 0B 3C 80 02     "./.......<..
0290: 80 35 80 36 80 37 80 37  80 37 80 06 80 3A 80 6C  .5.6.7.7.7...:.l
02A0: F8 FF FF 7F 3B 80 03 80  00                       ....;....       
```

#### Opcodes

```
  0: 0x0283 [0x22] ENTITY_HIDE_FLAG(enabled=0x00)
  1: 0x0285 [0x2F] EventEntity->Render.Flags0 &= ~0x80000 // Bit 19
  2: 0x028B [0xB6] ENTITY_APPEARANCE_HANDLER(case=Full entity look, race=5*, hair=0*, head=145*, body=79*, hands=76*, legs=76*, feet=76*, main=201*, sub=24*)
  3: 0x029F [0x6C] FADE_ENTITY_COLOR(entity_id=EventEntity, end_alpha=80*, fade_time=1*)
  4: 0x02A8 [0x00] END_REQSTACK()
```

### Event 65535.26

#### Metadata

| Field        | Value     |
|--------------|-----------|
| Entrypoint   | 0x02A9    |
| Data Size    | 209 bytes |
| Instructions | 25        |

```
      00 01 02 03 04 05 06 07  08 09 0A 0B 0C 0D 0E 0F
      -- -- -- -- -- -- -- --  -- -- -- -- -- -- -- --
02A0:                             02 02 10 03 80 80 C3           .......
02B0: 02 66 3D 80 F0 FF FF 7F  F0 FF FF 7F 65 63 61 30  .f=.........eca0
02C0: 01 79 03 02 02 10 3E 80  80 DD 02 66 3B 80 F0 FF  .y....>....f;...
02D0: FF 7F F0 FF FF 7F 65 63  61 30 01 79 03 02 02 10  ......eca0.y....
02E0: 3F 80 80 F7 02 66 04 80  F0 FF FF 7F F0 FF FF 7F  ?....f..........
02F0: 65 63 61 30 01 79 03 02  02 10 40 80 80 11 03 66  eca0.y....@....f
0300: 41 80 F0 FF FF 7F F0 FF  FF 7F 65 63 61 30 01 79  A.........eca0.y
0310: 03 02 02 10 3C 80 80 2B  03 66 42 80 F0 FF FF 7F  ....<..+.fB.....
0320: F0 FF FF 7F 65 63 61 30  01 79 03 02 02 10 43 80  ....eca0.y....C.
0330: 80 45 03 66 42 80 F0 FF  FF 7F F0 FF FF 7F 65 63  .E.fB.........ec
0340: 61 30 01 79 03 02 02 10  33 80 80 5F 03 66 44 80  a0.y....3.._.fD.
0350: F0 FF FF 7F F0 FF FF 7F  65 63 61 30 01 79 03 02  ........eca0.y..
0360: 02 10 45 80 80 79 03 66  46 80 F0 FF FF 7F F0 FF  ..E..y.fF.......
0370: FF 7F 65 63 61 30 01 79  03 00                    ..eca0.y..      
```

#### Opcodes

```
  0: 0x02A9 [0x02] IF !(Work_Zone[2] == 1*) GOTO 0x02C3
  1: 0x02B1 [0x66] LOAD_EXT_SCHEDULER_MAIN: Load scheduler "eca0" with entities [LocalPlayer, LocalPlayer], work=70*
  2: 0x02C0 [0x01] GOTO 0x0379
  3: 0x02C3 [0x02] IF !(Work_Zone[2] == 2*) GOTO 0x02DD
  4: 0x02CB [0x66] LOAD_EXT_SCHEDULER_MAIN: Load scheduler "eca0" with entities [LocalPlayer, LocalPlayer], work=80*
  5: 0x02DA [0x01] GOTO 0x0379
  6: 0x02DD [0x02] IF !(Work_Zone[2] == 3*) GOTO 0x02F7
  7: 0x02E5 [0x66] LOAD_EXT_SCHEDULER_MAIN: Load scheduler "eca0" with entities [LocalPlayer, LocalPlayer], work=90*
  8: 0x02F4 [0x01] GOTO 0x0379
  9: 0x02F7 [0x02] IF !(Work_Zone[2] == 4*) GOTO 0x0311
 10: 0x02FF [0x66] LOAD_EXT_SCHEDULER_MAIN: Load scheduler "eca0" with entities [LocalPlayer, LocalPlayer], work=100*
 11: 0x030E [0x01] GOTO 0x0379
 12: 0x0311 [0x02] IF !(Work_Zone[2] == 5*) GOTO 0x032B
 13: 0x0319 [0x66] LOAD_EXT_SCHEDULER_MAIN: Load scheduler "eca0" with entities [LocalPlayer, LocalPlayer], work=110*
 14: 0x0328 [0x01] GOTO 0x0379
 15: 0x032B [0x02] IF !(Work_Zone[2] == 6*) GOTO 0x0345
 16: 0x0333 [0x66] LOAD_EXT_SCHEDULER_MAIN: Load scheduler "eca0" with entities [LocalPlayer, LocalPlayer], work=110*
 17: 0x0342 [0x01] GOTO 0x0379
 18: 0x0345 [0x02] IF !(Work_Zone[2] == 7*) GOTO 0x035F
 19: 0x034D [0x66] LOAD_EXT_SCHEDULER_MAIN: Load scheduler "eca0" with entities [LocalPlayer, LocalPlayer], work=120*
 20: 0x035C [0x01] GOTO 0x0379
 21: 0x035F [0x02] IF !(Work_Zone[2] == 8*) GOTO 0x0379
 22: 0x0367 [0x66] LOAD_EXT_SCHEDULER_MAIN: Load scheduler "eca0" with entities [LocalPlayer, LocalPlayer], work=130*
 23: 0x0376 [0x01] GOTO 0x0379

SUBROUTINE_0379:
 24: 0x0379 [0x00] END_REQSTACK()
```

### Event 65535.27

#### Metadata

| Field        | Value     |
|--------------|-----------|
| Entrypoint   | 0x037A    |
| Data Size    | 209 bytes |
| Instructions | 25        |

```
      00 01 02 03 04 05 06 07  08 09 0A 0B 0C 0D 0E 0F
      -- -- -- -- -- -- -- --  -- -- -- -- -- -- -- --
0370:                                02 02 10 03 80 80            ......
0380: 94 03 66 3D 80 F0 FF FF  7F F0 FF FF 7F 61 74 70  ..f=.........atp
0390: 30 01 4A 04 02 02 10 3E  80 80 AE 03 66 3B 80 F0  0.J....>....f;..
03A0: FF FF 7F F0 FF FF 7F 61  74 70 30 01 4A 04 02 02  .......atp0.J...
03B0: 10 3F 80 80 C8 03 66 04  80 F0 FF FF 7F F0 FF FF  .?....f.........
03C0: 7F 61 74 70 30 01 4A 04  02 02 10 40 80 80 E2 03  .atp0.J....@....
03D0: 66 41 80 F0 FF FF 7F F0  FF FF 7F 61 74 70 30 01  fA.........atp0.
03E0: 4A 04 02 02 10 3C 80 80  FC 03 66 42 80 F0 FF FF  J....<....fB....
03F0: 7F F0 FF FF 7F 61 74 70  30 01 4A 04 02 02 10 43  .....atp0.J....C
0400: 80 80 16 04 66 42 80 F0  FF FF 7F F0 FF FF 7F 61  ....fB.........a
0410: 74 70 30 01 4A 04 02 02  10 33 80 80 30 04 66 44  tp0.J....3..0.fD
0420: 80 F0 FF FF 7F F0 FF FF  7F 61 74 70 30 01 4A 04  .........atp0.J.
0430: 02 02 10 45 80 80 4A 04  66 46 80 F0 FF FF 7F F0  ...E..J.fF......
0440: FF FF 7F 61 74 70 30 01  4A 04 00                 ...atp0.J..     
```

#### Opcodes

```
  0: 0x037A [0x02] IF !(Work_Zone[2] == 1*) GOTO 0x0394
  1: 0x0382 [0x66] LOAD_EXT_SCHEDULER_MAIN: Load scheduler "atp0" with entities [LocalPlayer, LocalPlayer], work=70*
  2: 0x0391 [0x01] GOTO 0x044A
  3: 0x0394 [0x02] IF !(Work_Zone[2] == 2*) GOTO 0x03AE
  4: 0x039C [0x66] LOAD_EXT_SCHEDULER_MAIN: Load scheduler "atp0" with entities [LocalPlayer, LocalPlayer], work=80*
  5: 0x03AB [0x01] GOTO 0x044A
  6: 0x03AE [0x02] IF !(Work_Zone[2] == 3*) GOTO 0x03C8
  7: 0x03B6 [0x66] LOAD_EXT_SCHEDULER_MAIN: Load scheduler "atp0" with entities [LocalPlayer, LocalPlayer], work=90*
  8: 0x03C5 [0x01] GOTO 0x044A
  9: 0x03C8 [0x02] IF !(Work_Zone[2] == 4*) GOTO 0x03E2
 10: 0x03D0 [0x66] LOAD_EXT_SCHEDULER_MAIN: Load scheduler "atp0" with entities [LocalPlayer, LocalPlayer], work=100*
 11: 0x03DF [0x01] GOTO 0x044A
 12: 0x03E2 [0x02] IF !(Work_Zone[2] == 5*) GOTO 0x03FC
 13: 0x03EA [0x66] LOAD_EXT_SCHEDULER_MAIN: Load scheduler "atp0" with entities [LocalPlayer, LocalPlayer], work=110*
 14: 0x03F9 [0x01] GOTO 0x044A
 15: 0x03FC [0x02] IF !(Work_Zone[2] == 6*) GOTO 0x0416
 16: 0x0404 [0x66] LOAD_EXT_SCHEDULER_MAIN: Load scheduler "atp0" with entities [LocalPlayer, LocalPlayer], work=110*
 17: 0x0413 [0x01] GOTO 0x044A
 18: 0x0416 [0x02] IF !(Work_Zone[2] == 7*) GOTO 0x0430
 19: 0x041E [0x66] LOAD_EXT_SCHEDULER_MAIN: Load scheduler "atp0" with entities [LocalPlayer, LocalPlayer], work=120*
 20: 0x042D [0x01] GOTO 0x044A
 21: 0x0430 [0x02] IF !(Work_Zone[2] == 8*) GOTO 0x044A
 22: 0x0438 [0x66] LOAD_EXT_SCHEDULER_MAIN: Load scheduler "atp0" with entities [LocalPlayer, LocalPlayer], work=130*
 23: 0x0447 [0x01] GOTO 0x044A

SUBROUTINE_044A:
 24: 0x044A [0x00] END_REQSTACK()
```

### Event 65535.28

#### Metadata

| Field        | Value     |
|--------------|-----------|
| Entrypoint   | 0x044B    |
| Data Size    | 209 bytes |
| Instructions | 25        |

```
      00 01 02 03 04 05 06 07  08 09 0A 0B 0C 0D 0E 0F
      -- -- -- -- -- -- -- --  -- -- -- -- -- -- -- --
0440:                                   02 02 10 03 80             .....
0450: 80 65 04 66 47 80 F0 FF  FF 7F F0 FF FF 7F 64 61  .e.fG.........da
0460: 6B 30 01 1B 05 02 02 10  3E 80 80 7F 04 66 48 80  k0......>....fH.
0470: F0 FF FF 7F F0 FF FF 7F  64 61 6B 30 01 1B 05 02  ........dak0....
0480: 02 10 3F 80 80 99 04 66  49 80 F0 FF FF 7F F0 FF  ..?....fI.......
0490: FF 7F 64 61 6B 30 01 1B  05 02 02 10 40 80 80 B3  ..dak0......@...
04A0: 04 66 4A 80 F0 FF FF 7F  F0 FF FF 7F 64 61 6B 30  .fJ.........dak0
04B0: 01 1B 05 02 02 10 3C 80  80 CD 04 66 4B 80 F0 FF  ......<....fK...
04C0: FF 7F F0 FF FF 7F 64 61  6B 30 01 1B 05 02 02 10  ......dak0......
04D0: 43 80 80 E7 04 66 4B 80  F0 FF FF 7F F0 FF FF 7F  C....fK.........
04E0: 64 61 6B 30 01 1B 05 02  02 10 33 80 80 01 05 66  dak0......3....f
04F0: 4C 80 F0 FF FF 7F F0 FF  FF 7F 64 61 6B 30 01 1B  L.........dak0..
0500: 05 02 02 10 45 80 80 1B  05 66 4D 80 F0 FF FF 7F  ....E....fM.....
0510: F0 FF FF 7F 64 61 6B 30  01 1B 05 00              ....dak0....    
```

#### Opcodes

```
  0: 0x044B [0x02] IF !(Work_Zone[2] == 1*) GOTO 0x0465
  1: 0x0453 [0x66] LOAD_EXT_SCHEDULER_MAIN: Load scheduler "dak0" with entities [LocalPlayer, LocalPlayer], work=73*
  2: 0x0462 [0x01] GOTO 0x051B
  3: 0x0465 [0x02] IF !(Work_Zone[2] == 2*) GOTO 0x047F
  4: 0x046D [0x66] LOAD_EXT_SCHEDULER_MAIN: Load scheduler "dak0" with entities [LocalPlayer, LocalPlayer], work=83*
  5: 0x047C [0x01] GOTO 0x051B
  6: 0x047F [0x02] IF !(Work_Zone[2] == 3*) GOTO 0x0499
  7: 0x0487 [0x66] LOAD_EXT_SCHEDULER_MAIN: Load scheduler "dak0" with entities [LocalPlayer, LocalPlayer], work=93*
  8: 0x0496 [0x01] GOTO 0x051B
  9: 0x0499 [0x02] IF !(Work_Zone[2] == 4*) GOTO 0x04B3
 10: 0x04A1 [0x66] LOAD_EXT_SCHEDULER_MAIN: Load scheduler "dak0" with entities [LocalPlayer, LocalPlayer], work=103*
 11: 0x04B0 [0x01] GOTO 0x051B
 12: 0x04B3 [0x02] IF !(Work_Zone[2] == 5*) GOTO 0x04CD
 13: 0x04BB [0x66] LOAD_EXT_SCHEDULER_MAIN: Load scheduler "dak0" with entities [LocalPlayer, LocalPlayer], work=113*
 14: 0x04CA [0x01] GOTO 0x051B
 15: 0x04CD [0x02] IF !(Work_Zone[2] == 6*) GOTO 0x04E7
 16: 0x04D5 [0x66] LOAD_EXT_SCHEDULER_MAIN: Load scheduler "dak0" with entities [LocalPlayer, LocalPlayer], work=113*
 17: 0x04E4 [0x01] GOTO 0x051B
 18: 0x04E7 [0x02] IF !(Work_Zone[2] == 7*) GOTO 0x0501
 19: 0x04EF [0x66] LOAD_EXT_SCHEDULER_MAIN: Load scheduler "dak0" with entities [LocalPlayer, LocalPlayer], work=123*
 20: 0x04FE [0x01] GOTO 0x051B
 21: 0x0501 [0x02] IF !(Work_Zone[2] == 8*) GOTO 0x051B
 22: 0x0509 [0x66] LOAD_EXT_SCHEDULER_MAIN: Load scheduler "dak0" with entities [LocalPlayer, LocalPlayer], work=133*
 23: 0x0518 [0x01] GOTO 0x051B

SUBROUTINE_051B:
 24: 0x051B [0x00] END_REQSTACK()
```

### Event 65535.29

#### Metadata

| Field        | Value     |
|--------------|-----------|
| Entrypoint   | 0x051C    |
| Data Size    | 209 bytes |
| Instructions | 25        |

```
      00 01 02 03 04 05 06 07  08 09 0A 0B 0C 0D 0E 0F
      -- -- -- -- -- -- -- --  -- -- -- -- -- -- -- --
0510:                                      02 02 10 03              ....
0520: 80 80 36 05 66 47 80 F0  FF FF 7F F0 FF FF 7F 64  ..6.fG.........d
0530: 61 6B 31 01 EC 05 02 02  10 3E 80 80 50 05 66 48  ak1......>..P.fH
0540: 80 F0 FF FF 7F F0 FF FF  7F 64 61 6B 31 01 EC 05  .........dak1...
0550: 02 02 10 3F 80 80 6A 05  66 49 80 F0 FF FF 7F F0  ...?..j.fI......
0560: FF FF 7F 64 61 6B 31 01  EC 05 02 02 10 40 80 80  ...dak1......@..
0570: 84 05 66 4A 80 F0 FF FF  7F F0 FF FF 7F 64 61 6B  ..fJ.........dak
0580: 31 01 EC 05 02 02 10 3C  80 80 9E 05 66 4B 80 F0  1......<....fK..
0590: FF FF 7F F0 FF FF 7F 64  61 6B 31 01 EC 05 02 02  .......dak1.....
05A0: 10 43 80 80 B8 05 66 4B  80 F0 FF FF 7F F0 FF FF  .C....fK........
05B0: 7F 64 61 6B 31 01 EC 05  02 02 10 33 80 80 D2 05  .dak1......3....
05C0: 66 4C 80 F0 FF FF 7F F0  FF FF 7F 64 61 6B 31 01  fL.........dak1.
05D0: EC 05 02 02 10 45 80 80  EC 05 66 4D 80 F0 FF FF  .....E....fM....
05E0: 7F F0 FF FF 7F 64 61 6B  31 01 EC 05 00           .....dak1....   
```

#### Opcodes

```
  0: 0x051C [0x02] IF !(Work_Zone[2] == 1*) GOTO 0x0536
  1: 0x0524 [0x66] LOAD_EXT_SCHEDULER_MAIN: Load scheduler "dak1" with entities [LocalPlayer, LocalPlayer], work=73*
  2: 0x0533 [0x01] GOTO 0x05EC
  3: 0x0536 [0x02] IF !(Work_Zone[2] == 2*) GOTO 0x0550
  4: 0x053E [0x66] LOAD_EXT_SCHEDULER_MAIN: Load scheduler "dak1" with entities [LocalPlayer, LocalPlayer], work=83*
  5: 0x054D [0x01] GOTO 0x05EC
  6: 0x0550 [0x02] IF !(Work_Zone[2] == 3*) GOTO 0x056A
  7: 0x0558 [0x66] LOAD_EXT_SCHEDULER_MAIN: Load scheduler "dak1" with entities [LocalPlayer, LocalPlayer], work=93*
  8: 0x0567 [0x01] GOTO 0x05EC
  9: 0x056A [0x02] IF !(Work_Zone[2] == 4*) GOTO 0x0584
 10: 0x0572 [0x66] LOAD_EXT_SCHEDULER_MAIN: Load scheduler "dak1" with entities [LocalPlayer, LocalPlayer], work=103*
 11: 0x0581 [0x01] GOTO 0x05EC
 12: 0x0584 [0x02] IF !(Work_Zone[2] == 5*) GOTO 0x059E
 13: 0x058C [0x66] LOAD_EXT_SCHEDULER_MAIN: Load scheduler "dak1" with entities [LocalPlayer, LocalPlayer], work=113*
 14: 0x059B [0x01] GOTO 0x05EC
 15: 0x059E [0x02] IF !(Work_Zone[2] == 6*) GOTO 0x05B8
 16: 0x05A6 [0x66] LOAD_EXT_SCHEDULER_MAIN: Load scheduler "dak1" with entities [LocalPlayer, LocalPlayer], work=113*
 17: 0x05B5 [0x01] GOTO 0x05EC
 18: 0x05B8 [0x02] IF !(Work_Zone[2] == 7*) GOTO 0x05D2
 19: 0x05C0 [0x66] LOAD_EXT_SCHEDULER_MAIN: Load scheduler "dak1" with entities [LocalPlayer, LocalPlayer], work=123*
 20: 0x05CF [0x01] GOTO 0x05EC
 21: 0x05D2 [0x02] IF !(Work_Zone[2] == 8*) GOTO 0x05EC
 22: 0x05DA [0x66] LOAD_EXT_SCHEDULER_MAIN: Load scheduler "dak1" with entities [LocalPlayer, LocalPlayer], work=133*
 23: 0x05E9 [0x01] GOTO 0x05EC

SUBROUTINE_05EC:
 24: 0x05EC [0x00] END_REQSTACK()
```

### Event 65535.30

#### Metadata

| Field        | Value     |
|--------------|-----------|
| Entrypoint   | 0x05ED    |
| Data Size    | 209 bytes |
| Instructions | 25        |

```
      00 01 02 03 04 05 06 07  08 09 0A 0B 0C 0D 0E 0F
      -- -- -- -- -- -- -- --  -- -- -- -- -- -- -- --
05E0:                                         02 02 10               ...
05F0: 03 80 80 07 06 66 47 80  F0 FF FF 7F F0 FF FF 7F  .....fG.........
0600: 64 61 6B 32 01 BD 06 02  02 10 3E 80 80 21 06 66  dak2......>..!.f
0610: 48 80 F0 FF FF 7F F0 FF  FF 7F 64 61 6B 32 01 BD  H.........dak2..
0620: 06 02 02 10 3F 80 80 3B  06 66 49 80 F0 FF FF 7F  ....?..;.fI.....
0630: F0 FF FF 7F 64 61 6B 32  01 BD 06 02 02 10 40 80  ....dak2......@.
0640: 80 55 06 66 4A 80 F0 FF  FF 7F F0 FF FF 7F 64 61  .U.fJ.........da
0650: 6B 32 01 BD 06 02 02 10  3C 80 80 6F 06 66 4B 80  k2......<..o.fK.
0660: F0 FF FF 7F F0 FF FF 7F  64 61 6B 32 01 BD 06 02  ........dak2....
0670: 02 10 43 80 80 89 06 66  4B 80 F0 FF FF 7F F0 FF  ..C....fK.......
0680: FF 7F 64 61 6B 32 01 BD  06 02 02 10 33 80 80 A3  ..dak2......3...
0690: 06 66 4C 80 F0 FF FF 7F  F0 FF FF 7F 64 61 6B 32  .fL.........dak2
06A0: 01 BD 06 02 02 10 45 80  80 BD 06 66 4D 80 F0 FF  ......E....fM...
06B0: FF 7F F0 FF FF 7F 64 61  6B 32 01 BD 06 00        ......dak2....  
```

#### Opcodes

```
  0: 0x05ED [0x02] IF !(Work_Zone[2] == 1*) GOTO 0x0607
  1: 0x05F5 [0x66] LOAD_EXT_SCHEDULER_MAIN: Load scheduler "dak2" with entities [LocalPlayer, LocalPlayer], work=73*
  2: 0x0604 [0x01] GOTO 0x06BD
  3: 0x0607 [0x02] IF !(Work_Zone[2] == 2*) GOTO 0x0621
  4: 0x060F [0x66] LOAD_EXT_SCHEDULER_MAIN: Load scheduler "dak2" with entities [LocalPlayer, LocalPlayer], work=83*
  5: 0x061E [0x01] GOTO 0x06BD
  6: 0x0621 [0x02] IF !(Work_Zone[2] == 3*) GOTO 0x063B
  7: 0x0629 [0x66] LOAD_EXT_SCHEDULER_MAIN: Load scheduler "dak2" with entities [LocalPlayer, LocalPlayer], work=93*
  8: 0x0638 [0x01] GOTO 0x06BD
  9: 0x063B [0x02] IF !(Work_Zone[2] == 4*) GOTO 0x0655
 10: 0x0643 [0x66] LOAD_EXT_SCHEDULER_MAIN: Load scheduler "dak2" with entities [LocalPlayer, LocalPlayer], work=103*
 11: 0x0652 [0x01] GOTO 0x06BD
 12: 0x0655 [0x02] IF !(Work_Zone[2] == 5*) GOTO 0x066F
 13: 0x065D [0x66] LOAD_EXT_SCHEDULER_MAIN: Load scheduler "dak2" with entities [LocalPlayer, LocalPlayer], work=113*
 14: 0x066C [0x01] GOTO 0x06BD
 15: 0x066F [0x02] IF !(Work_Zone[2] == 6*) GOTO 0x0689
 16: 0x0677 [0x66] LOAD_EXT_SCHEDULER_MAIN: Load scheduler "dak2" with entities [LocalPlayer, LocalPlayer], work=113*
 17: 0x0686 [0x01] GOTO 0x06BD
 18: 0x0689 [0x02] IF !(Work_Zone[2] == 7*) GOTO 0x06A3
 19: 0x0691 [0x66] LOAD_EXT_SCHEDULER_MAIN: Load scheduler "dak2" with entities [LocalPlayer, LocalPlayer], work=123*
 20: 0x06A0 [0x01] GOTO 0x06BD
 21: 0x06A3 [0x02] IF !(Work_Zone[2] == 8*) GOTO 0x06BD
 22: 0x06AB [0x66] LOAD_EXT_SCHEDULER_MAIN: Load scheduler "dak2" with entities [LocalPlayer, LocalPlayer], work=133*
 23: 0x06BA [0x01] GOTO 0x06BD

SUBROUTINE_06BD:
 24: 0x06BD [0x00] END_REQSTACK()
```

### Event 65535.31

#### Metadata

| Field        | Value    |
|--------------|----------|
| Entrypoint   | 0x06BE   |
| Data Size    | 48 bytes |
| Instructions | 9        |

```
      00 01 02 03 04 05 06 07  08 09 0A 0B 0C 0D 0E 0F
      -- -- -- -- -- -- -- --  -- -- -- -- -- -- -- --
06B0:                                            03 01                ..
06C0: 00 4E 80 03 02 00 4F 80  02 02 00 02 80 04 ED 06  .N....O.........
06D0: BA F0 FF FF 7F 50 80 51  80 01 00 52 80 08 02 00  .....P.Q...R....
06E0: 2C 80 07 01 00 41 80 1C  03 80 01 C8 06 00        ,....A........  
```

#### Opcodes

```
  0: 0x06BE [0x03] ExtData[1]->WorkLocal[1] = 4294966296*
  1: 0x06C3 [0x03] ExtData[1]->WorkLocal[2] = 3000*
  2: 0x06C8 [0x02] IF !(ExtData[1]->WorkLocal[2] < 0*) GOTO 0x06ED
  3: 0x06D0 [0xBA] SET_ENTITY_POSITION(entity_id=LocalPlayer, pos_x=529.460*, pos_z=-372.789*, pos_y=ExtData[1]->WorkLocal[1], direction=342.5°*)
  4: 0x06DD [0x08] ExtData[1]->WorkLocal[2] -= 10*
  5: 0x06E2 [0x07] ExtData[1]->WorkLocal[1] += 100*
  6: 0x06E7 [0x1C] WAIT(1* ticks)
  7: 0x06EA [0x01] GOTO 0x06C8
  8: 0x06ED [0x00] END_REQSTACK()
```

### Event 65535.32

#### Metadata

| Field        | Value    |
|--------------|----------|
| Entrypoint   | 0x06EE   |
| Data Size    | 11 bytes |
| Instructions | 3        |

```
      00 01 02 03 04 05 06 07  08 09 0A 0B 0C 0D 0E 0F
      -- -- -- -- -- -- -- --  -- -- -- -- -- -- -- --
06E0:                                            1F 00                ..
06F0: 53 80 54 80 02 80 1F 01  00                       S.T......       
```

#### Opcodes

```
  0: 0x06EE [0x1F] MOVE_ENTITY: EventEntity moves to X=-299.017*, Z=-478.685*, Y=0.000*
  1: 0x06F6 [0x1F] MOVE_ENTITY: Update entity position (mode=1)
  2: 0x06F8 [0x00] END_REQSTACK()
```

### Event 65535.33

#### Metadata

| Field        | Value    |
|--------------|----------|
| Entrypoint   | 0x06F9   |
| Data Size    | 27 bytes |
| Instructions | 5        |

```
      00 01 02 03 04 05 06 07  08 09 0A 0B 0C 0D 0E 0F
      -- -- -- -- -- -- -- --  -- -- -- -- -- -- -- --
06F0:                             03 03 00 07 7F 1A 7C           ......|
0700: 0A 66 04 00 F8 FF FF 7F  F8 FF FF 7F 61 74 30 30  .f..........at00
0710: 1C 0E 80 00                                       ....            
```

#### Opcodes

```
  0: 0x06F9 [0x03] ExtData[1]->WorkLocal[3] = Entity->Race
  1: 0x06FE [0x1A] CALL_SUBROUTINE(address=0x0A7C)
  2: 0x0701 [0x66] LOAD_EXT_SCHEDULER_MAIN: Load scheduler "at00" with entities [EventEntity, EventEntity], work=ExtData[1]->WorkLocal[4]
  3: 0x0710 [0x1C] WAIT(240* ticks)
  4: 0x0713 [0x00] END_REQSTACK()
```

### Event 65535.34

#### Metadata

| Field        | Value    |
|--------------|----------|
| Entrypoint   | 0x0714   |
| Data Size    | 16 bytes |
| Instructions | 4        |

```
      00 01 02 03 04 05 06 07  08 09 0A 0B 0C 0D 0E 0F
      -- -- -- -- -- -- -- --  -- -- -- -- -- -- -- --
0710:             1C 04 80 6E  F0 FF FF 7F 55 80 99 F0      ...n....U...
0720: FF FF 7F 00                                       ....            
```

#### Opcodes

```
  0: 0x0714 [0x1C] WAIT(90* ticks)
  1: 0x0717 [0x6E] LocalPlayer uses emote 20*
  2: 0x071E [0x99] Wait for LocalPlayer animation to complete
  3: 0x0723 [0x00] END_REQSTACK()
```

### Event 65535.35

#### Metadata

| Field        | Value    |
|--------------|----------|
| Entrypoint   | 0x0724   |
| Data Size    | 24 bytes |
| Instructions | 4        |

```
      00 01 02 03 04 05 06 07  08 09 0A 0B 0C 0D 0E 0F
      -- -- -- -- -- -- -- --  -- -- -- -- -- -- -- --
0720:             03 03 00 07  7F 1A 57 0A 66 04 00 F8      ......W.f...
0730: FF FF 7F F8 FF FF 7F 74  6C 6B 30 00              .......tlk0.    
```

#### Opcodes

```
  0: 0x0724 [0x03] ExtData[1]->WorkLocal[3] = Entity->Race
  1: 0x0729 [0x1A] CALL_SUBROUTINE(address=0x0A57)
  2: 0x072C [0x66] LOAD_EXT_SCHEDULER_MAIN: Load scheduler "tlk0" with entities [EventEntity, EventEntity], work=ExtData[1]->WorkLocal[4]
  3: 0x073B [0x00] END_REQSTACK()
```

### Event 65535.36

#### Metadata

| Field        | Value    |
|--------------|----------|
| Entrypoint   | 0x073C   |
| Data Size    | 24 bytes |
| Instructions | 4        |

```
      00 01 02 03 04 05 06 07  08 09 0A 0B 0C 0D 0E 0F
      -- -- -- -- -- -- -- --  -- -- -- -- -- -- -- --
0730:                                      03 03 00 07              ....
0740: 7F 1A 57 0A 66 04 00 F8  FF FF 7F F8 FF FF 7F 74  ..W.f..........t
0750: 6C 6B 31 00                                       lk1.            
```

#### Opcodes

```
  0: 0x073C [0x03] ExtData[1]->WorkLocal[3] = Entity->Race
  1: 0x0741 [0x1A] CALL_SUBROUTINE(address=0x0A57)
  2: 0x0744 [0x66] LOAD_EXT_SCHEDULER_MAIN: Load scheduler "tlk1" with entities [EventEntity, EventEntity], work=ExtData[1]->WorkLocal[4]
  3: 0x0753 [0x00] END_REQSTACK()
```

### Event 65535.37

#### Metadata

| Field        | Value    |
|--------------|----------|
| Entrypoint   | 0x0754   |
| Data Size    | 45 bytes |
| Instructions | 7        |

```
      00 01 02 03 04 05 06 07  08 09 0A 0B 0C 0D 0E 0F
      -- -- -- -- -- -- -- --  -- -- -- -- -- -- -- --
0750:             1C 05 80 03  03 00 07 7F 1A 57 0A 66      .........W.f
0760: 04 00 F8 FF FF 7F F8 FF  FF 7F 74 6C 6B 30 1C 05  ..........tlk0..
0770: 80 66 04 00 F8 FF FF 7F  F8 FF FF 7F 74 6C 6B 31  .f..........tlk1
0780: 00                                                .               
```

#### Opcodes

```
  0: 0x0754 [0x1C] WAIT(60* ticks)
  1: 0x0757 [0x03] ExtData[1]->WorkLocal[3] = Entity->Race
  2: 0x075C [0x1A] CALL_SUBROUTINE(address=0x0A57)
  3: 0x075F [0x66] LOAD_EXT_SCHEDULER_MAIN: Load scheduler "tlk0" with entities [EventEntity, EventEntity], work=ExtData[1]->WorkLocal[4]
  4: 0x076E [0x1C] WAIT(60* ticks)
  5: 0x0771 [0x66] LOAD_EXT_SCHEDULER_MAIN: Load scheduler "tlk1" with entities [EventEntity, EventEntity], work=ExtData[1]->WorkLocal[4]
  6: 0x0780 [0x00] END_REQSTACK()
```

### Event 65535.38

#### Metadata

| Field        | Value    |
|--------------|----------|
| Entrypoint   | 0x0781   |
| Data Size    | 15 bytes |
| Instructions | 5        |

```
      00 01 02 03 04 05 06 07  08 09 0A 0B 0C 0D 0E 0F
      -- -- -- -- -- -- -- --  -- -- -- -- -- -- -- --
0780:    32 56 80 1F 00 57 80  58 80 59 80 1F 01 6F 00   2V...W.X.Y...o.
```

#### Opcodes

```
  0: 0x0781 [0x32] ExtData[1]->MainSpeed = 11* * 0.1
  1: 0x0784 [0x1F] MOVE_ENTITY: EventEntity moves to X=77.361*, Z=142.637*, Y=0.688*
  2: 0x078C [0x1F] MOVE_ENTITY: Update entity position (mode=1)
  3: 0x078E [0x6F] WAIT_FRAME_DELAY: Yield until WaitTime reaches zero
  4: 0x078F [0x00] END_REQSTACK()
```

### Event 65535.39

#### Metadata

| Field        | Value    |
|--------------|----------|
| Entrypoint   | 0x0790   |
| Data Size    | 15 bytes |
| Instructions | 5        |

```
      00 01 02 03 04 05 06 07  08 09 0A 0B 0C 0D 0E 0F
      -- -- -- -- -- -- -- --  -- -- -- -- -- -- -- --
0790: 32 56 80 1F 00 5A 80 5B  80 5C 80 1F 01 6F 00     2V...Z.[.\...o. 
```

#### Opcodes

```
  0: 0x0790 [0x32] ExtData[1]->MainSpeed = 11* * 0.1
  1: 0x0793 [0x1F] MOVE_ENTITY: EventEntity moves to X=-411.281*, Z=225.627*, Y=0.232*
  2: 0x079B [0x1F] MOVE_ENTITY: Update entity position (mode=1)
  3: 0x079D [0x6F] WAIT_FRAME_DELAY: Yield until WaitTime reaches zero
  4: 0x079E [0x00] END_REQSTACK()
```

### Event 65535.40

#### Metadata

| Field        | Value    |
|--------------|----------|
| Entrypoint   | 0x079F   |
| Data Size    | 46 bytes |
| Instructions | 12       |

```
      00 01 02 03 04 05 06 07  08 09 0A 0B 0C 0D 0E 0F
      -- -- -- -- -- -- -- --  -- -- -- -- -- -- -- --
0790:                                               32                 2
07A0: 0F 80 1F 00 5D 80 5E 80  5F 80 1F 01 32 60 80 1F  ....].^._...2`..
07B0: 00 61 80 62 80 63 80 1F  01 32 56 80 1F 00 64 80  .a.b.c...2V...d.
07C0: 65 80 66 80 1F 01 6F 1E  F0 22 06 01 00           e.f...o.."...   
```

#### Opcodes

```
  0: 0x079F [0x32] ExtData[1]->MainSpeed = 13* * 0.1
  1: 0x07A2 [0x1F] MOVE_ENTITY: EventEntity moves to X=-410.641*, Z=227.610*, Y=0.035*
  2: 0x07AA [0x1F] MOVE_ENTITY: Update entity position (mode=1)
  3: 0x07AC [0x32] ExtData[1]->MainSpeed = 36* * 0.1
  4: 0x07AF [0x1F] MOVE_ENTITY: EventEntity moves to X=-407.250*, Z=235.771*, Y=0.160*
  5: 0x07B7 [0x1F] MOVE_ENTITY: Update entity position (mode=1)
  6: 0x07B9 [0x32] ExtData[1]->MainSpeed = 11* * 0.1
  7: 0x07BC [0x1F] MOVE_ENTITY: EventEntity moves to X=-406.410*, Z=237.643*, Y=0.119*
  8: 0x07C4 [0x1F] MOVE_ENTITY: Update entity position (mode=1)
  9: 0x07C6 [0x6F] WAIT_FRAME_DELAY: Yield until WaitTime reaches zero
 10: 0x07C7 [0x1E] EventEntity looks at Ulbrecht (ID: 17179376/0x010622F0) and starts talking
 11: 0x07CC [0x00] END_REQSTACK()
```

### Event 65535.41

#### Metadata

| Field        | Value    |
|--------------|----------|
| Entrypoint   | 0x07CD   |
| Data Size    | 15 bytes |
| Instructions | 5        |

```
      00 01 02 03 04 05 06 07  08 09 0A 0B 0C 0D 0E 0F
      -- -- -- -- -- -- -- --  -- -- -- -- -- -- -- --
07C0:                                         32 0F 80               2..
07D0: 1F 00 67 80 68 80 69 80  1F 01 6F 00              ..g.h.i...o.    
```

#### Opcodes

```
  0: 0x07CD [0x32] ExtData[1]->MainSpeed = 13* * 0.1
  1: 0x07D0 [0x1F] MOVE_ENTITY: EventEntity moves to X=-405.482*, Z=239.792*, Y=0.072*
  2: 0x07D8 [0x1F] MOVE_ENTITY: Update entity position (mode=1)
  3: 0x07DA [0x6F] WAIT_FRAME_DELAY: Yield until WaitTime reaches zero
  4: 0x07DB [0x00] END_REQSTACK()
```

### Event 65535.42

#### Metadata

| Field        | Value   |
|--------------|---------|
| Entrypoint   | 0x07DC  |
| Data Size    | 4 bytes |
| Instructions | 2       |

```
      00 01 02 03 04 05 06 07  08 09 0A 0B 0C 0D 0E 0F
      -- -- -- -- -- -- -- --  -- -- -- -- -- -- -- --
07D0:                                      32 6A 80 00              2j..
```

#### Opcodes

```
  0: 0x07DC [0x32] ExtData[1]->MainSpeed = 40* * 0.1
  1: 0x07DF [0x00] END_REQSTACK()
```

### Event 65535.43

#### Metadata

| Field        | Value   |
|--------------|---------|
| Entrypoint   | 0x07E0  |
| Data Size    | 9 bytes |
| Instructions | 3       |

```
      00 01 02 03 04 05 06 07  08 09 0A 0B 0C 0D 0E 0F
      -- -- -- -- -- -- -- --  -- -- -- -- -- -- -- --
07E0: 1C 1D 80 1E F8 22 06 01  00                       ....."...       
```

#### Opcodes

```
  0: 0x07E0 [0x1C] WAIT(30* ticks)
  1: 0x07E3 [0x1E] EventEntity looks at Tihl Midurhi (ID: 17179384/0x010622F8) and starts talking
  2: 0x07E8 [0x00] END_REQSTACK()
```

### Event 65535.44

#### Metadata

| Field        | Value    |
|--------------|----------|
| Entrypoint   | 0x07E9   |
| Data Size    | 16 bytes |
| Instructions | 4        |

```
      00 01 02 03 04 05 06 07  08 09 0A 0B 0C 0D 0E 0F
      -- -- -- -- -- -- -- --  -- -- -- -- -- -- -- --
07E0:                             1C 6B 80 7B F8 FF FF           .k.{...
07F0: 7F 4B F8 FF FF 7F 6C 80  00                       .K....l..       
```

#### Opcodes

```
  0: 0x07E9 [0x1C] WAIT(45* ticks)
  1: 0x07EC [0x7B] EventEntity stops talking
  2: 0x07F1 [0x4B] UPDATE_ENTITY_YAW(entity=EventEntity, yaw=14.7°*)
  3: 0x07F8 [0x00] END_REQSTACK()
```

### Event 65535.45

#### Metadata

| Field        | Value    |
|--------------|----------|
| Entrypoint   | 0x07F9   |
| Data Size    | 23 bytes |
| Instructions | 7        |

```
      00 01 02 03 04 05 06 07  08 09 0A 0B 0C 0D 0E 0F
      -- -- -- -- -- -- -- --  -- -- -- -- -- -- -- --
07F0:                             1C 3C 80 32 6D 80 1F           .<.2m..
0800: 00 6E 80 6F 80 70 80 1F  01 6F 1E 03 23 06 01 00  .n.o.p...o..#...
```

#### Opcodes

```
  0: 0x07F9 [0x1C] WAIT(5* ticks)
  1: 0x07FC [0x32] ExtData[1]->MainSpeed = 38* * 0.1
  2: 0x07FF [0x1F] MOVE_ENTITY: EventEntity moves to X=165.426*, Z=-165.040*, Y=8.004*
  3: 0x0807 [0x1F] MOVE_ENTITY: Update entity position (mode=1)
  4: 0x0809 [0x6F] WAIT_FRAME_DELAY: Yield until WaitTime reaches zero
  5: 0x080A [0x1E] EventEntity looks at Naho Gwanboh (ID: 17179395/0x01062303) and starts talking
  6: 0x080F [0x00] END_REQSTACK()
```

### Event 65535.46

#### Metadata

| Field        | Value    |
|--------------|----------|
| Entrypoint   | 0x0810   |
| Data Size    | 23 bytes |
| Instructions | 7        |

```
      00 01 02 03 04 05 06 07  08 09 0A 0B 0C 0D 0E 0F
      -- -- -- -- -- -- -- --  -- -- -- -- -- -- -- --
0810: 1C 71 80 32 0F 80 1F 00  72 80 73 80 74 80 1F 01  .q.2....r.s.t...
0820: 6F 1E FF 22 06 01 00                              o.."...         
```

#### Opcodes

```
  0: 0x0810 [0x1C] WAIT(15* ticks)
  1: 0x0813 [0x32] ExtData[1]->MainSpeed = 13* * 0.1
  2: 0x0816 [0x1F] MOVE_ENTITY: EventEntity moves to X=74.124*, Z=-135.050*, Y=7.749*
  3: 0x081E [0x1F] MOVE_ENTITY: Update entity position (mode=1)
  4: 0x0820 [0x6F] WAIT_FRAME_DELAY: Yield until WaitTime reaches zero
  5: 0x0821 [0x1E] EventEntity looks at Lehko Habhoka (ID: 17179391/0x010622FF) and starts talking
  6: 0x0826 [0x00] END_REQSTACK()
```

### Event 65535.47

#### Metadata

| Field        | Value    |
|--------------|----------|
| Entrypoint   | 0x0827   |
| Data Size    | 11 bytes |
| Instructions | 3        |

```
      00 01 02 03 04 05 06 07  08 09 0A 0B 0C 0D 0E 0F
      -- -- -- -- -- -- -- --  -- -- -- -- -- -- -- --
0820:                      1F  00 75 80 76 80 77 80 1F         ..u.v.w..
0830: 01 00                                             ..              
```

#### Opcodes

```
  0: 0x0827 [0x1F] MOVE_ENTITY: EventEntity moves to X=343.926*, Z=-168.008*, Y=16.493*
  1: 0x082F [0x1F] MOVE_ENTITY: Update entity position (mode=1)
  2: 0x0831 [0x00] END_REQSTACK()
```

### Event 65535.48

#### Metadata

| Field        | Value    |
|--------------|----------|
| Entrypoint   | 0x0832   |
| Data Size    | 13 bytes |
| Instructions | 3        |

```
      00 01 02 03 04 05 06 07  08 09 0A 0B 0C 0D 0E 0F
      -- -- -- -- -- -- -- --  -- -- -- -- -- -- -- --
0830:       6E F0 FF FF 7F 60  80 99 F0 FF FF 7F 00       n....`....... 
```

#### Opcodes

```
  0: 0x0832 [0x6E] LocalPlayer uses emote 36*
  1: 0x0839 [0x99] Wait for LocalPlayer animation to complete
  2: 0x083E [0x00] END_REQSTACK()
```

### Event 65535.49

#### Metadata

| Field        | Value    |
|--------------|----------|
| Entrypoint   | 0x083F   |
| Data Size    | 11 bytes |
| Instructions | 3        |

```
      00 01 02 03 04 05 06 07  08 09 0A 0B 0C 0D 0E 0F
      -- -- -- -- -- -- -- --  -- -- -- -- -- -- -- --
0830:                                               1F                 .
0840: 00 78 80 79 80 7A 80 1F  01 00                    .x.y.z....      
```

#### Opcodes

```
  0: 0x083F [0x1F] MOVE_ENTITY: EventEntity moves to X=363.911*, Z=-166.521*, Y=16.124*
  1: 0x0847 [0x1F] MOVE_ENTITY: Update entity position (mode=1)
  2: 0x0849 [0x00] END_REQSTACK()
```

### Event 65535.50

#### Metadata

| Field        | Value    |
|--------------|----------|
| Entrypoint   | 0x084A   |
| Data Size    | 14 bytes |
| Instructions | 4        |

```
      00 01 02 03 04 05 06 07  08 09 0A 0B 0C 0D 0E 0F
      -- -- -- -- -- -- -- --  -- -- -- -- -- -- -- --
0840:                                32 6A 80 1F 00 7B            2j...{
0850: 80 7C 80 7D 80 1F 01 00                           .|.}....        
```

#### Opcodes

```
  0: 0x084A [0x32] ExtData[1]->MainSpeed = 40* * 0.1
  1: 0x084D [0x1F] MOVE_ENTITY: EventEntity moves to X=-435.704*, Z=343.510*, Y=0.800*
  2: 0x0855 [0x1F] MOVE_ENTITY: Update entity position (mode=1)
  3: 0x0857 [0x00] END_REQSTACK()
```

### Event 65535.51

#### Metadata

| Field        | Value    |
|--------------|----------|
| Entrypoint   | 0x0858   |
| Data Size    | 14 bytes |
| Instructions | 4        |

```
      00 01 02 03 04 05 06 07  08 09 0A 0B 0C 0D 0E 0F
      -- -- -- -- -- -- -- --  -- -- -- -- -- -- -- --
0850:                          32 6A 80 1F 00 7E 80 7F          2j...~..
0860: 80 80 80 1F 01 00                                 ......          
```

#### Opcodes

```
  0: 0x0858 [0x32] ExtData[1]->MainSpeed = 40* * 0.1
  1: 0x085B [0x1F] MOVE_ENTITY: EventEntity moves to X=-439.441*, Z=343.699*, Y=0.814*
  2: 0x0863 [0x1F] MOVE_ENTITY: Update entity position (mode=1)
  3: 0x0865 [0x00] END_REQSTACK()
```

### Event 65535.52

#### Metadata

| Field        | Value    |
|--------------|----------|
| Entrypoint   | 0x0866   |
| Data Size    | 14 bytes |
| Instructions | 4        |

```
      00 01 02 03 04 05 06 07  08 09 0A 0B 0C 0D 0E 0F
      -- -- -- -- -- -- -- --  -- -- -- -- -- -- -- --
0860:                   32 6A  80 1F 00 81 80 82 80 83        2j........
0870: 80 1F 01 00                                       ....            
```

#### Opcodes

```
  0: 0x0866 [0x32] ExtData[1]->MainSpeed = 40* * 0.1
  1: 0x0869 [0x1F] MOVE_ENTITY: EventEntity moves to X=-444.429*, Z=342.990*, Y=0.751*
  2: 0x0871 [0x1F] MOVE_ENTITY: Update entity position (mode=1)
  3: 0x0873 [0x00] END_REQSTACK()
```

### Event 65535.53

#### Metadata

| Field        | Value    |
|--------------|----------|
| Entrypoint   | 0x0874   |
| Data Size    | 14 bytes |
| Instructions | 4        |

```
      00 01 02 03 04 05 06 07  08 09 0A 0B 0C 0D 0E 0F
      -- -- -- -- -- -- -- --  -- -- -- -- -- -- -- --
0870:             32 0F 80 1F  00 84 80 85 80 02 80 1F      2...........
0880: 01 00                                             ..              
```

#### Opcodes

```
  0: 0x0874 [0x32] ExtData[1]->MainSpeed = 13* * 0.1
  1: 0x0877 [0x1F] MOVE_ENTITY: EventEntity moves to X=0.255*, Z=-84.922*, Y=0.000*
  2: 0x087F [0x1F] MOVE_ENTITY: Update entity position (mode=1)
  3: 0x0881 [0x00] END_REQSTACK()
```

### Event 65535.54

#### Metadata

| Field        | Value    |
|--------------|----------|
| Entrypoint   | 0x0882   |
| Data Size    | 14 bytes |
| Instructions | 4        |

```
      00 01 02 03 04 05 06 07  08 09 0A 0B 0C 0D 0E 0F
      -- -- -- -- -- -- -- --  -- -- -- -- -- -- -- --
0880:       32 0F 80 1F 00 86  80 87 80 3E 80 1F 01 00    2........>....
```

#### Opcodes

```
  0: 0x0882 [0x32] ExtData[1]->MainSpeed = 13* * 0.1
  1: 0x0885 [0x1F] MOVE_ENTITY: EventEntity moves to X=-27.824*, Z=-54.068*, Y=0.002*
  2: 0x088D [0x1F] MOVE_ENTITY: Update entity position (mode=1)
  3: 0x088F [0x00] END_REQSTACK()
```

### Event 65535.55

#### Metadata

| Field        | Value    |
|--------------|----------|
| Entrypoint   | 0x0890   |
| Data Size    | 22 bytes |
| Instructions | 6        |

```
      00 01 02 03 04 05 06 07  08 09 0A 0B 0C 0D 0E 0F
      -- -- -- -- -- -- -- --  -- -- -- -- -- -- -- --
0890: 32 0F 80 1F 00 88 80 89  80 8A 80 1F 01 1E 3A 23  2.............:#
08A0: 06 01 1C 1D 80 00                                 ......          
```

#### Opcodes

```
  0: 0x0890 [0x32] ExtData[1]->MainSpeed = 13* * 0.1
  1: 0x0893 [0x1F] MOVE_ENTITY: EventEntity moves to X=20.431*, Z=64.437*, Y=1.999*
  2: 0x089B [0x1F] MOVE_ENTITY: Update entity position (mode=1)
  3: 0x089D [0x1E] EventEntity looks at Lilisette (ID: 17179450/0x0106233A) and starts talking
  4: 0x08A2 [0x1C] WAIT(30* ticks)
  5: 0x08A5 [0x00] END_REQSTACK()
```

### Event 65535.56

#### Metadata

| Field        | Value    |
|--------------|----------|
| Entrypoint   | 0x08A6   |
| Data Size    | 19 bytes |
| Instructions | 5        |

```
      00 01 02 03 04 05 06 07  08 09 0A 0B 0C 0D 0E 0F
      -- -- -- -- -- -- -- --  -- -- -- -- -- -- -- --
08A0:                   32 0F  80 1F 00 8B 80 8C 80 8A        2.........
08B0: 80 1F 01 1E DB 22 06 01  00                       ....."...       
```

#### Opcodes

```
  0: 0x08A6 [0x32] ExtData[1]->MainSpeed = 13* * 0.1
  1: 0x08A9 [0x1F] MOVE_ENTITY: EventEntity moves to X=18.064*, Z=65.045*, Y=1.999*
  2: 0x08B1 [0x1F] MOVE_ENTITY: Update entity position (mode=1)
  3: 0x08B3 [0x1E] EventEntity looks at Barnabas (ID: 17179355/0x010622DB) and starts talking
  4: 0x08B8 [0x00] END_REQSTACK()
```

### Event 65535.57

#### Metadata

| Field        | Value    |
|--------------|----------|
| Entrypoint   | 0x08B9   |
| Data Size    | 18 bytes |
| Instructions | 6        |

```
      00 01 02 03 04 05 06 07  08 09 0A 0B 0C 0D 0E 0F
      -- -- -- -- -- -- -- --  -- -- -- -- -- -- -- --
08B0:                             32 0F 80 1F 00 8D 80           2......
08C0: 8E 80 8F 80 1F 01 6F 1C  1D 80 00                 ......o....     
```

#### Opcodes

```
  0: 0x08B9 [0x32] ExtData[1]->MainSpeed = 13* * 0.1
  1: 0x08BC [0x1F] MOVE_ENTITY: EventEntity moves to X=-439.946*, Z=343.560*, Y=0.821*
  2: 0x08C4 [0x1F] MOVE_ENTITY: Update entity position (mode=1)
  3: 0x08C6 [0x6F] WAIT_FRAME_DELAY: Yield until WaitTime reaches zero
  4: 0x08C7 [0x1C] WAIT(30* ticks)
  5: 0x08CA [0x00] END_REQSTACK()
```

### Event 65535.58

#### Metadata

| Field        | Value    |
|--------------|----------|
| Entrypoint   | 0x08CB   |
| Data Size    | 14 bytes |
| Instructions | 4        |

```
      00 01 02 03 04 05 06 07  08 09 0A 0B 0C 0D 0E 0F
      -- -- -- -- -- -- -- --  -- -- -- -- -- -- -- --
08C0:                                   32 6A 80 1F 00             2j...
08D0: 90 80 91 80 92 80 1F 01  00                       .........       
```

#### Opcodes

```
  0: 0x08CB [0x32] ExtData[1]->MainSpeed = 40* * 0.1
  1: 0x08CE [0x1F] MOVE_ENTITY: EventEntity moves to X=0.773*, Z=76.303*, Y=-4.999*
  2: 0x08D6 [0x1F] MOVE_ENTITY: Update entity position (mode=1)
  3: 0x08D8 [0x00] END_REQSTACK()
```

### Event 65535.59

#### Metadata

| Field        | Value    |
|--------------|----------|
| Entrypoint   | 0x08D9   |
| Data Size    | 14 bytes |
| Instructions | 4        |

```
      00 01 02 03 04 05 06 07  08 09 0A 0B 0C 0D 0E 0F
      -- -- -- -- -- -- -- --  -- -- -- -- -- -- -- --
08D0:                             32 0F 80 1F 00 93 80           2......
08E0: 94 80 95 80 1F 01 00                              .......         
```

#### Opcodes

```
  0: 0x08D9 [0x32] ExtData[1]->MainSpeed = 13* * 0.1
  1: 0x08DC [0x1F] MOVE_ENTITY: EventEntity moves to X=-0.028*, Z=74.155*, Y=-5.000*
  2: 0x08E4 [0x1F] MOVE_ENTITY: Update entity position (mode=1)
  3: 0x08E6 [0x00] END_REQSTACK()
```

### Event 65535.60

#### Metadata

| Field        | Value    |
|--------------|----------|
| Entrypoint   | 0x08E7   |
| Data Size    | 22 bytes |
| Instructions | 6        |

```
      00 01 02 03 04 05 06 07  08 09 0A 0B 0C 0D 0E 0F
      -- -- -- -- -- -- -- --  -- -- -- -- -- -- -- --
08E0:                      32  0F 80 1F 00 96 80 97 80         2........
08F0: 92 80 1F 01 1E 3A 23 06  01 1C 1D 80 00           .....:#......   
```

#### Opcodes

```
  0: 0x08E7 [0x32] ExtData[1]->MainSpeed = 13* * 0.1
  1: 0x08EA [0x1F] MOVE_ENTITY: EventEntity moves to X=2.419*, Z=79.252*, Y=-4.999*
  2: 0x08F2 [0x1F] MOVE_ENTITY: Update entity position (mode=1)
  3: 0x08F4 [0x1E] EventEntity looks at Lilisette (ID: 17179450/0x0106233A) and starts talking
  4: 0x08F9 [0x1C] WAIT(30* ticks)
  5: 0x08FC [0x00] END_REQSTACK()
```

### Event 65535.61

#### Metadata

| Field        | Value    |
|--------------|----------|
| Entrypoint   | 0x08FD   |
| Data Size    | 14 bytes |
| Instructions | 4        |

```
      00 01 02 03 04 05 06 07  08 09 0A 0B 0C 0D 0E 0F
      -- -- -- -- -- -- -- --  -- -- -- -- -- -- -- --
08F0:                                         32 6A 80               2j.
0900: 1F 00 98 80 99 80 02 80  1F 01 00                 ...........     
```

#### Opcodes

```
  0: 0x08FD [0x32] ExtData[1]->MainSpeed = 40* * 0.1
  1: 0x0900 [0x1F] MOVE_ENTITY: EventEntity moves to X=-28.941*, Z=-47.461*, Y=0.000*
  2: 0x0908 [0x1F] MOVE_ENTITY: Update entity position (mode=1)
  3: 0x090A [0x00] END_REQSTACK()
```

### Event 65535.62

#### Metadata

| Field        | Value    |
|--------------|----------|
| Entrypoint   | 0x090B   |
| Data Size    | 22 bytes |
| Instructions | 6        |

```
      00 01 02 03 04 05 06 07  08 09 0A 0B 0C 0D 0E 0F
      -- -- -- -- -- -- -- --  -- -- -- -- -- -- -- --
0900:                                   32 0F 80 1F 00             2....
0910: 9A 80 9B 80 9C 80 1F 01  1E FD 22 06 01 1C 1D 80  ..........".....
0920: 00                                                .               
```

#### Opcodes

```
  0: 0x090B [0x32] ExtData[1]->MainSpeed = 13* * 0.1
  1: 0x090E [0x1F] MOVE_ENTITY: EventEntity moves to X=-441.162*, Z=342.603*, Y=0.869*
  2: 0x0916 [0x1F] MOVE_ENTITY: Update entity position (mode=1)
  3: 0x0918 [0x1E] EventEntity looks at Irwyn (ID: 17179389/0x010622FD) and starts talking
  4: 0x091D [0x1C] WAIT(30* ticks)
  5: 0x0920 [0x00] END_REQSTACK()
```

### Event 65535.63

#### Metadata

| Field        | Value    |
|--------------|----------|
| Entrypoint   | 0x0921   |
| Data Size    | 32 bytes |
| Instructions | 8        |

```
      00 01 02 03 04 05 06 07  08 09 0A 0B 0C 0D 0E 0F
      -- -- -- -- -- -- -- --  -- -- -- -- -- -- -- --
0920:    32 0F 80 1F 00 9D 80  9E 80 9F 80 1F 01 1F 00   2..............
0930: A0 80 A1 80 9F 80 1F 01  1E 6D 23 06 01 1C 1D 80  .........m#.....
0940: 00                                                .               
```

#### Opcodes

```
  0: 0x0921 [0x32] ExtData[1]->MainSpeed = 13* * 0.1
  1: 0x0924 [0x1F] MOVE_ENTITY: EventEntity moves to X=-27.161*, Z=63.909*, Y=2.002*
  2: 0x092C [0x1F] MOVE_ENTITY: Update entity position (mode=1)
  3: 0x092E [0x1F] MOVE_ENTITY: EventEntity moves to X=-29.521*, Z=64.122*, Y=2.002*
  4: 0x0936 [0x1F] MOVE_ENTITY: Update entity position (mode=1)
  5: 0x0938 [0x1E] EventEntity looks at Chimene (ID: 17179501/0x0106236D) and starts talking
  6: 0x093D [0x1C] WAIT(30* ticks)
  7: 0x0940 [0x00] END_REQSTACK()
```

### Event 65535.64

#### Metadata

| Field        | Value    |
|--------------|----------|
| Entrypoint   | 0x0941   |
| Data Size    | 19 bytes |
| Instructions | 5        |

```
      00 01 02 03 04 05 06 07  08 09 0A 0B 0C 0D 0E 0F
      -- -- -- -- -- -- -- --  -- -- -- -- -- -- -- --
0940:    32 0F 80 1F 00 A2 80  A3 80 02 80 1F 01 1E 73   2.............s
0950: 23 06 01 00                                       #...            
```

#### Opcodes

```
  0: 0x0941 [0x32] ExtData[1]->MainSpeed = 13* * 0.1
  1: 0x0944 [0x1F] MOVE_ENTITY: EventEntity moves to X=-38.147*, Z=35.580*, Y=0.000*
  2: 0x094C [0x1F] MOVE_ENTITY: Update entity position (mode=1)
  3: 0x094E [0x1E] EventEntity looks at Tanja (ID: 17179507/0x01062373) and starts talking
  4: 0x0953 [0x00] END_REQSTACK()
```

### Event 65535.65

#### Metadata

| Field        | Value    |
|--------------|----------|
| Entrypoint   | 0x0954   |
| Data Size    | 39 bytes |
| Instructions | 9        |

```
      00 01 02 03 04 05 06 07  08 09 0A 0B 0C 0D 0E 0F
      -- -- -- -- -- -- -- --  -- -- -- -- -- -- -- --
0950:             32 6A 80 1F  00 A4 80 A5 80 A6 80 1F      2j..........
0960: 01 1F 00 A7 80 A8 80 A6  80 1F 01 7B F8 FF FF 7F  ...........{....
0970: 1F 00 A9 80 AA 80 A6 80  1F 01 00                 ...........     
```

#### Opcodes

```
  0: 0x0954 [0x32] ExtData[1]->MainSpeed = 40* * 0.1
  1: 0x0957 [0x1F] MOVE_ENTITY: EventEntity moves to X=-36.831*, Z=25.829*, Y=-1.499*
  2: 0x095F [0x1F] MOVE_ENTITY: Update entity position (mode=1)
  3: 0x0961 [0x1F] MOVE_ENTITY: EventEntity moves to X=-34.218*, Z=21.331*, Y=-1.499*
  4: 0x0969 [0x1F] MOVE_ENTITY: Update entity position (mode=1)
  5: 0x096B [0x7B] EventEntity stops talking
  6: 0x0970 [0x1F] MOVE_ENTITY: EventEntity moves to X=-31.655*, Z=17.004*, Y=-1.499*
  7: 0x0978 [0x1F] MOVE_ENTITY: Update entity position (mode=1)
  8: 0x097A [0x00] END_REQSTACK()
```

### Event 65535.66

#### Metadata

| Field        | Value    |
|--------------|----------|
| Entrypoint   | 0x097B   |
| Data Size    | 19 bytes |
| Instructions | 5        |

```
      00 01 02 03 04 05 06 07  08 09 0A 0B 0C 0D 0E 0F
      -- -- -- -- -- -- -- --  -- -- -- -- -- -- -- --
0970:                                   32 0F 80 1F 00             2....
0980: AB 80 AC 80 A6 80 1F 01  1E 71 23 06 01 00        .........q#...  
```

#### Opcodes

```
  0: 0x097B [0x32] ExtData[1]->MainSpeed = 13* * 0.1
  1: 0x097E [0x1F] MOVE_ENTITY: EventEntity moves to X=-33.747*, Z=15.619*, Y=-1.499*
  2: 0x0986 [0x1F] MOVE_ENTITY: Update entity position (mode=1)
  3: 0x0988 [0x1E] EventEntity looks at Cloud Walker (ID: 17179505/0x01062371) and starts talking
  4: 0x098D [0x00] END_REQSTACK()
```

### Event 65535.67

#### Metadata

| Field        | Value    |
|--------------|----------|
| Entrypoint   | 0x098E   |
| Data Size    | 14 bytes |
| Instructions | 4        |

```
      00 01 02 03 04 05 06 07  08 09 0A 0B 0C 0D 0E 0F
      -- -- -- -- -- -- -- --  -- -- -- -- -- -- -- --
0980:                                            32 0F                2.
0990: 80 1F 00 AD 80 AE 80 AF  80 1F 01 00              ............    
```

#### Opcodes

```
  0: 0x098E [0x32] ExtData[1]->MainSpeed = 13* * 0.1
  1: 0x0991 [0x1F] MOVE_ENTITY: EventEntity moves to X=0.069*, Z=111.642*, Y=3.101*
  2: 0x0999 [0x1F] MOVE_ENTITY: Update entity position (mode=1)
  3: 0x099B [0x00] END_REQSTACK()
```

### Event 65535.68

#### Metadata

| Field        | Value    |
|--------------|----------|
| Entrypoint   | 0x099C   |
| Data Size    | 15 bytes |
| Instructions | 5        |

```
      00 01 02 03 04 05 06 07  08 09 0A 0B 0C 0D 0E 0F
      -- -- -- -- -- -- -- --  -- -- -- -- -- -- -- --
0990:                                      32 0F 80 1F              2...
09A0: 00 B0 80 B1 80 AF 80 1F  01 6F 00                 .........o.     
```

#### Opcodes

```
  0: 0x099C [0x32] ExtData[1]->MainSpeed = 13* * 0.1
  1: 0x099F [0x1F] MOVE_ENTITY: EventEntity moves to X=0.594*, Z=112.658*, Y=3.101*
  2: 0x09A7 [0x1F] MOVE_ENTITY: Update entity position (mode=1)
  3: 0x09A9 [0x6F] WAIT_FRAME_DELAY: Yield until WaitTime reaches zero
  4: 0x09AA [0x00] END_REQSTACK()
```

### Event 65535.69

#### Metadata

| Field        | Value    |
|--------------|----------|
| Entrypoint   | 0x09AB   |
| Data Size    | 14 bytes |
| Instructions | 4        |

```
      00 01 02 03 04 05 06 07  08 09 0A 0B 0C 0D 0E 0F
      -- -- -- -- -- -- -- --  -- -- -- -- -- -- -- --
09A0:                                   32 0F 80 1F 00             2....
09B0: B2 80 B3 80 AF 80 1F 01  00                       .........       
```

#### Opcodes

```
  0: 0x09AB [0x32] ExtData[1]->MainSpeed = 13* * 0.1
  1: 0x09AE [0x1F] MOVE_ENTITY: EventEntity moves to X=0.872*, Z=116.584*, Y=3.101*
  2: 0x09B6 [0x1F] MOVE_ENTITY: Update entity position (mode=1)
  3: 0x09B8 [0x00] END_REQSTACK()
```

### Event 65535.70

#### Metadata

| Field        | Value    |
|--------------|----------|
| Entrypoint   | 0x09B9   |
| Data Size    | 14 bytes |
| Instructions | 4        |

```
      00 01 02 03 04 05 06 07  08 09 0A 0B 0C 0D 0E 0F
      -- -- -- -- -- -- -- --  -- -- -- -- -- -- -- --
09B0:                             32 0F 80 1F 00 B4 80           2......
09C0: B5 80 AF 80 1F 01 00                              .......         
```

#### Opcodes

```
  0: 0x09B9 [0x32] ExtData[1]->MainSpeed = 13* * 0.1
  1: 0x09BC [0x1F] MOVE_ENTITY: EventEntity moves to X=0.367*, Z=108.608*, Y=3.101*
  2: 0x09C4 [0x1F] MOVE_ENTITY: Update entity position (mode=1)
  3: 0x09C6 [0x00] END_REQSTACK()
```

### Event 65535.71

#### Metadata

| Field        | Value    |
|--------------|----------|
| Entrypoint   | 0x09C7   |
| Data Size    | 70 bytes |
| Instructions | 15       |

```
      00 01 02 03 04 05 06 07  08 09 0A 0B 0C 0D 0E 0F
      -- -- -- -- -- -- -- --  -- -- -- -- -- -- -- --
09C0:                      03  02 10 07 7F 02 02 10 3C         ........<
09D0: 80 80 DB 09 B6 0F B6 80  01 0C 0A 02 02 10 43 80  ..............C.
09E0: 80 EA 09 B6 0F B6 80 01  0C 0A 02 02 10 33 80 80  .............3..
09F0: F9 09 B6 0F 49 80 01 0C  0A 02 02 10 45 80 80 08  ....I.......E...
0A00: 0A B6 0F B7 80 01 0C 0A  B6 0F 41 80 00           ..........A..   
```

#### Opcodes

```
  0: 0x09C7 [0x03] Work_Zone[2] = Entity->Race
  1: 0x09CC [0x02] IF !(Work_Zone[2] == 5*) GOTO 0x09DB
  2: 0x09D4 [0xB6] ENTITY_APPEARANCE_HANDLER(case=Model size, value=87*)
  3: 0x09D8 [0x01] GOTO 0x0A0C
  4: 0x09DB [0x02] IF !(Work_Zone[2] == 6*) GOTO 0x09EA
  5: 0x09E3 [0xB6] ENTITY_APPEARANCE_HANDLER(case=Model size, value=87*)
  6: 0x09E7 [0x01] GOTO 0x0A0C
  7: 0x09EA [0x02] IF !(Work_Zone[2] == 7*) GOTO 0x09F9
  8: 0x09F2 [0xB6] ENTITY_APPEARANCE_HANDLER(case=Model size, value=93*)
  9: 0x09F6 [0x01] GOTO 0x0A0C
 10: 0x09F9 [0x02] IF !(Work_Zone[2] == 8*) GOTO 0x0A08
 11: 0x0A01 [0xB6] ENTITY_APPEARANCE_HANDLER(case=Model size, value=96*)
 12: 0x0A05 [0x01] GOTO 0x0A0C
 13: 0x0A08 [0xB6] ENTITY_APPEARANCE_HANDLER(case=Model size, value=100*)

SUBROUTINE_0A0C:
 14: 0x0A0C [0x00] END_REQSTACK()
```

### Event 65535.72

#### Metadata

| Field        | Value    |
|--------------|----------|
| Entrypoint   | 0x0A0D   |
| Data Size    | 37 bytes |
| Instructions | 5        |

```
      00 01 02 03 04 05 06 07  08 09 0A 0B 0C 0D 0E 0F
      -- -- -- -- -- -- -- --  -- -- -- -- -- -- -- --
0A00:                                         03 03 00               ...
0A10: 07 7F 1A 57 0A 66 04 00  F8 FF FF 7F F8 FF FF 7F  ...W.f..........
0A20: 73 68 61 30 53 F8 FF FF  7F F8 FF FF 7F 73 68 61  sha0S........sha
0A30: 30 00                                             0.              
```

#### Opcodes

```
  0: 0x0A0D [0x03] ExtData[1]->WorkLocal[3] = Entity->Race
  1: 0x0A12 [0x1A] CALL_SUBROUTINE(address=0x0A57)
  2: 0x0A15 [0x66] LOAD_EXT_SCHEDULER_MAIN: Load scheduler "sha0" with entities [EventEntity, EventEntity], work=ExtData[1]->WorkLocal[4]
  3: 0x0A24 [0x53] WAIT_SCHEDULER_TASK: Wait for scheduler "sha0" with entities [EventEntity, EventEntity]
  4: 0x0A31 [0x00] END_REQSTACK()
```

### Event 65535.73

#### Metadata

| Field        | Value     |
|--------------|-----------|
| Entrypoint   | 0x0A32    |
| Data Size    | 185 bytes |
| Instructions | 13        |

```
      00 01 02 03 04 05 06 07  08 09 0A 0B 0C 0D 0E 0F
      -- -- -- -- -- -- -- --  -- -- -- -- -- -- -- --
0A30:       03 03 00 07 7F 1A  57 0A 66 04 00 F8 FF FF    ......W.f.....
0A40: 7F F8 FF FF 7F 73 68 61  31 53 F8 FF FF 7F F8 FF  .....sha1S......
0A50: FF 7F 73 68 61 31 00 03  04 00 03 00 02 04 00 3C  ..sha1.........<
0A60: 80 05 6C 0A 08 04 00 03  80 01 71 0A 08 04 00 3E  ..l.......q....>
0A70: 80 14 04 00 2C 80 07 04  00 B8 80 1B 03 04 00 03  ....,...........
0A80: 00 02 04 00 3C 80 05 91  0A 08 04 00 03 80 01 96  ....<...........
0A90: 0A 08 04 00 3E 80 14 04  00 2C 80 07 04 00 3D 80  ....>....,....=.
0AA0: 1B 03 04 00 03 00 02 04  00 3C 80 05 B6 0A 08 04  .........<......
0AB0: 00 03 80 01 BB 0A 08 04  00 3E 80 14 04 00 2C 80  .........>....,.
0AC0: 07 04 00 B9 80 1B 03 04  00 03 00 02 04 00 3C 80  ..............<.
0AD0: 05 DB 0A 08 04 00 03 80  01 E0 0A 08 04 00 3E 80  ..............>.
0AE0: 14 04 00 2C 80 07 04 00  BA 80 1B                 ...,.......     
```

#### Opcodes

```
  0: 0x0A32 [0x03] ExtData[1]->WorkLocal[3] = Entity->Race
  1: 0x0A37 [0x1A] CALL_SUBROUTINE(address=0x0A57)
  2: 0x0A3A [0x66] LOAD_EXT_SCHEDULER_MAIN: Load scheduler "sha1" with entities [EventEntity, EventEntity], work=ExtData[1]->WorkLocal[4]
  3: 0x0A49 [0x53] WAIT_SCHEDULER_TASK: Wait for scheduler "sha1" with entities [EventEntity, EventEntity]
  4: 0x0A56 [0x00] END_REQSTACK()

SUBROUTINE_0A57:
  5: 0x0A57 [0x03] ExtData[1]->WorkLocal[4] = ExtData[1]->WorkLocal[3]
  6: 0x0A5C [0x02] IF !(ExtData[1]->WorkLocal[4] > 5*) GOTO 0x0A6C
  7: 0x0A64 [0x08] ExtData[1]->WorkLocal[4] -= 1*
  8: 0x0A69 [0x01] GOTO 0x0A71
  9: 0x0A6C [0x08] ExtData[1]->WorkLocal[4] -= 2*

SUBROUTINE_0A71:
 10: 0x0A71 [0x14] ExtData[1]->WorkLocal[4] *= 10*
 11: 0x0A76 [0x07] ExtData[1]->WorkLocal[4] += 9*
 12: 0x0A7B [0x1B] RETURN
```

#### Data or dead code:

```
# Dead code (unreachable instructions):
     0x0A7C [0x03] ExtData[1]->WorkLocal[4] = ExtData[1]->WorkLocal[3]
     0x0A81 [0x02] IF !(ExtData[1]->WorkLocal[4] > 5*) GOTO 0x0A91
     0x0A89 [0x08] ExtData[1]->WorkLocal[4] -= 1*
     0x0A8E [0x01] GOTO 0x0A96
     0x0A91 [0x08] ExtData[1]->WorkLocal[4] -= 2*
     0x0A96 [0x14] ExtData[1]->WorkLocal[4] *= 10*
     0x0A9B [0x07] ExtData[1]->WorkLocal[4] += 70*
     0x0AA0 [0x1B] RETURN
     0x0AA1 [0x03] ExtData[1]->WorkLocal[4] = ExtData[1]->WorkLocal[3]
     0x0AA6 [0x02] IF !(ExtData[1]->WorkLocal[4] > 5*) GOTO 0x0AB6
     0x0AAE [0x08] ExtData[1]->WorkLocal[4] -= 1*
     0x0AB3 [0x01] GOTO 0x0ABB
     0x0AB6 [0x08] ExtData[1]->WorkLocal[4] -= 2*
     0x0ABB [0x14] ExtData[1]->WorkLocal[4] *= 10*
     0x0AC0 [0x07] ExtData[1]->WorkLocal[4] += 140*
     0x0AC5 [0x1B] RETURN
     0x0AC6 [0x03] ExtData[1]->WorkLocal[4] = ExtData[1]->WorkLocal[3]
     0x0ACB [0x02] IF !(ExtData[1]->WorkLocal[4] > 5*) GOTO 0x0ADB
     0x0AD3 [0x08] ExtData[1]->WorkLocal[4] -= 1*
     0x0AD8 [0x01] GOTO 0x0AE0
     0x0ADB [0x08] ExtData[1]->WorkLocal[4] -= 2*
     0x0AE0 [0x14] ExtData[1]->WorkLocal[4] *= 10*
     0x0AE5 [0x07] ExtData[1]->WorkLocal[4] += 210*
     0x0AEA [0x1B] RETURN
```

### Event 65535.74

#### Metadata

| Field        | Value   |
|--------------|---------|
| Entrypoint   | 0x0AEB  |
| Data Size    | 6 bytes |
| Instructions | 2       |

```
      00 01 02 03 04 05 06 07  08 09 0A 0B 0C 0D 0E 0F
      -- -- -- -- -- -- -- --  -- -- -- -- -- -- -- --
0AE0:                                   03 02 10 07 7F             .....
0AF0: 00                                                .               
```

#### Opcodes

```
  0: 0x0AEB [0x03] Work_Zone[2] = Entity->Race
  1: 0x0AF0 [0x00] END_REQSTACK()
```

### Event 65535.75

#### Metadata

| Field        | Value   |
|--------------|---------|
| Entrypoint   | 0x0AF1  |
| Data Size    | 6 bytes |
| Instructions | 2       |

```
      00 01 02 03 04 05 06 07  08 09 0A 0B 0C 0D 0E 0F
      -- -- -- -- -- -- -- --  -- -- -- -- -- -- -- --
0AF0:    03 02 10 0B 7F 00                               ......         
```

#### Opcodes

```
  0: 0x0AF1 [0x03] Work_Zone[2] = (Entity->Render.Flags01 >> 25) & 1
  1: 0x0AF6 [0x00] END_REQSTACK()
```

### Event 65535.76

#### Metadata

| Field        | Value   |
|--------------|---------|
| Entrypoint   | 0x0AF7  |
| Data Size    | 7 bytes |
| Instructions | 3       |

```
      00 01 02 03 04 05 06 07  08 09 0A 0B 0C 0D 0E 0F
      -- -- -- -- -- -- -- --  -- -- -- -- -- -- -- --
0AF0:                      AB  03 AC 01 03 80 00               .......  
```

#### Opcodes

```
  0: 0x0AF7 [0xAB] EventEntity->Render.Flags0 ^= 0x20000 // Toggle bit 17
  1: 0x0AF9 [0xAC] EventEntity->StatusEvent = 1*
  2: 0x0AFD [0x00] END_REQSTACK()
```

### Event 65535.77

#### Metadata

| Field        | Value   |
|--------------|---------|
| Entrypoint   | 0x0AFE  |
| Data Size    | 7 bytes |
| Instructions | 3       |

```
      00 01 02 03 04 05 06 07  08 09 0A 0B 0C 0D 0E 0F
      -- -- -- -- -- -- -- --  -- -- -- -- -- -- -- --
0AF0:                                            AC 01                ..
0B00: 02 80 AB 04 00                                    .....           
```

#### Opcodes

```
  0: 0x0AFE [0xAC] EventEntity->StatusEvent = 0*
  1: 0x0B02 [0xAB] EventEntity->Render.Flags0 |= 0x40000 // Set bit 18
  2: 0x0B04 [0x00] END_REQSTACK()
```

### Event 65535.78

#### Metadata

| Field        | Value    |
|--------------|----------|
| Entrypoint   | 0x0B05   |
| Data Size    | 20 bytes |
| Instructions | 6        |

```
      00 01 02 03 04 05 06 07  08 09 0A 0B 0C 0D 0E 0F
      -- -- -- -- -- -- -- --  -- -- -- -- -- -- -- --
0B00:                32 0F 80  1F 00 BB 80 BC 80 BD 80       2..........
0B10: 1F 01 6F 1E F8 22 06 01  00                       ..o.."...       
```

#### Opcodes

```
  0: 0x0B05 [0x32] ExtData[1]->MainSpeed = 13* * 0.1
  1: 0x0B08 [0x1F] MOVE_ENTITY: EventEntity moves to X=-430.240*, Z=341.742*, Y=0.620*
  2: 0x0B10 [0x1F] MOVE_ENTITY: Update entity position (mode=1)
  3: 0x0B12 [0x6F] WAIT_FRAME_DELAY: Yield until WaitTime reaches zero
  4: 0x0B13 [0x1E] EventEntity looks at Tihl Midurhi (ID: 17179384/0x010622F8) and starts talking
  5: 0x0B18 [0x00] END_REQSTACK()
```

### Event 65535.79

#### Metadata

| Field        | Value   |
|--------------|---------|
| Entrypoint   | 0x0B19  |
| Data Size    | 3 bytes |
| Instructions | 2       |

```
      00 01 02 03 04 05 06 07  08 09 0A 0B 0C 0D 0E 0F
      -- -- -- -- -- -- -- --  -- -- -- -- -- -- -- --
0B10:                             33 01 00                       3..    
```

#### Opcodes

```
  0: 0x0B19 [0x33] EventEntity->Render.Flags0 |= 0x200000 // Bit 21 (flag=0x01)
  1: 0x0B1B [0x00] END_REQSTACK()
```

### Event 65535.80

#### Metadata

| Field        | Value   |
|--------------|---------|
| Entrypoint   | 0x0B1C  |
| Data Size    | 3 bytes |
| Instructions | 2       |

```
      00 01 02 03 04 05 06 07  08 09 0A 0B 0C 0D 0E 0F
      -- -- -- -- -- -- -- --  -- -- -- -- -- -- -- --
0B10:                                      33 00 00                 3.. 
```

#### Opcodes

```
  0: 0x0B1C [0x33] EventEntity->Render.Flags0 &= ~ 0x200000 // Bit 21 (flag=0x00)
  1: 0x0B1E [0x00] END_REQSTACK()
```

### Event 65535.81

#### Metadata

| Field        | Value    |
|--------------|----------|
| Entrypoint   | 0x0B1F   |
| Data Size    | 15 bytes |
| Instructions | 5        |

```
      00 01 02 03 04 05 06 07  08 09 0A 0B 0C 0D 0E 0F
      -- -- -- -- -- -- -- --  -- -- -- -- -- -- -- --
0B10:                                               32                 2
0B20: 0F 80 1F 00 BE 80 BF 80  C0 80 1F 01 6F 00        ............o.  
```

#### Opcodes

```
  0: 0x0B1F [0x32] ExtData[1]->MainSpeed = 13* * 0.1
  1: 0x0B22 [0x1F] MOVE_ENTITY: EventEntity moves to X=370.359*, Z=-226.000*, Y=9.059*
  2: 0x0B2A [0x1F] MOVE_ENTITY: Update entity position (mode=1)
  3: 0x0B2C [0x6F] WAIT_FRAME_DELAY: Yield until WaitTime reaches zero
  4: 0x0B2D [0x00] END_REQSTACK()
```

### Event 65535.82

#### Metadata

| Field        | Value    |
|--------------|----------|
| Entrypoint   | 0x0B2E   |
| Data Size    | 42 bytes |
| Instructions | 6        |

```
      00 01 02 03 04 05 06 07  08 09 0A 0B 0C 0D 0E 0F
      -- -- -- -- -- -- -- --  -- -- -- -- -- -- -- --
0B20:                                            03 03                ..
0B30: 00 07 7F 1A 57 0A 66 04  00 F8 FF FF 7F F8 FF FF  ....W.f.........
0B40: 7F 74 6C 6B 30 1C 05 80  66 04 00 F8 FF FF 7F F8  .tlk0...f.......
0B50: FF FF 7F 74 6C 6B 31 00                           ...tlk1.        
```

#### Opcodes

```
  0: 0x0B2E [0x03] ExtData[1]->WorkLocal[3] = Entity->Race
  1: 0x0B33 [0x1A] CALL_SUBROUTINE(address=0x0A57)
  2: 0x0B36 [0x66] LOAD_EXT_SCHEDULER_MAIN: Load scheduler "tlk0" with entities [EventEntity, EventEntity], work=ExtData[1]->WorkLocal[4]
  3: 0x0B45 [0x1C] WAIT(60* ticks)
  4: 0x0B48 [0x66] LOAD_EXT_SCHEDULER_MAIN: Load scheduler "tlk1" with entities [EventEntity, EventEntity], work=ExtData[1]->WorkLocal[4]
  5: 0x0B57 [0x00] END_REQSTACK()
```

### Event 65535.83

#### Metadata

| Field        | Value   |
|--------------|---------|
| Entrypoint   | 0x0B58  |
| Data Size    | 4 bytes |
| Instructions | 2       |

```
      00 01 02 03 04 05 06 07  08 09 0A 0B 0C 0D 0E 0F
      -- -- -- -- -- -- -- --  -- -- -- -- -- -- -- --
0B50:                          1C 0E 80 00                      ....    
```

#### Opcodes

```
  0: 0x0B58 [0x1C] WAIT(240* ticks)
  1: 0x0B5B [0x00] END_REQSTACK()
```

### Event 502

#### Metadata

| Field        | Value     |
|--------------|-----------|
| Entrypoint   | 0x0B5C    |
| Data Size    | 303 bytes |
| Instructions | 67        |

```
      00 01 02 03 04 05 06 07  08 09 0A 0B 0C 0D 0E 0F
      -- -- -- -- -- -- -- --  -- -- -- -- -- -- -- --
0B50:                                      20 01 42 03               .B.
0B60: 05 00 03 10 03 06 00 04  10 03 07 00 05 10 02 02  ................
0B70: 10 03 80 00 81 0B 2B 88  22 06 01 C1 80 23 01 87  ......+."....#..
0B80: 0C 02 05 00 02 80 80 94  0B 2B 88 22 06 01 C1 80  .........+."....
0B90: 23 01 87 0C 02 05 00 03  80 80 E5 0B 03 02 10 02  #...............
0BA0: 80 02 06 00 03 80 00 C7  0B 02 07 00 03 80 00 BC  ................
0BB0: 0B 2B 88 22 06 01 C2 80  23 01 C4 0B 2B 88 22 06  .+."....#...+.".
0BC0: 01 C3 80 23 01 E2 0B 02  07 00 03 80 00 DA 0B 2B  ...#...........+
0BD0: 88 22 06 01 C3 80 23 01  E2 0B 2B 88 22 06 01 C1  ."....#...+."...
0BE0: 80 23 01 87 0C 02 05 00  3E 80 80 36 0C 03 02 10  .#......>..6....
0BF0: 03 80 02 06 00 03 80 00  18 0C 02 07 00 3E 80 00  .............>..
0C00: 0D 0C 2B 88 22 06 01 C2  80 23 01 15 0C 2B 88 22  ..+."....#...+."
0C10: 06 01 C3 80 23 01 33 0C  02 07 00 3E 80 00 2B 0C  ....#.3....>..+.
0C20: 2B 88 22 06 01 C3 80 23  01 33 0C 2B 88 22 06 01  +."....#.3.+."..
0C30: C1 80 23 01 87 0C 02 05  00 3F 80 80 87 0C 03 02  ..#......?......
0C40: 10 3E 80 02 06 00 03 80  00 69 0C 02 07 00 3F 80  .>.......i....?.
0C50: 00 5E 0C 2B 88 22 06 01  C2 80 23 01 66 0C 2B 88  .^.+."....#.f.+.
0C60: 22 06 01 C3 80 23 01 84  0C 02 07 00 3F 80 00 7C  "....#......?..|
