# Event 65535

## Metadata

| Field           | Value    |
|-----------------|----------|
| Event Index     | 6/11     |
| Offset          | 0x022F   |
| Data Size       | 75 bytes |
| Calculated Size | 75 bytes |
| Instructions    | 14       |

```
      00 01 02 03 04 05 06 07  08 09 0A 0B 0C 0D 0E 0F
      -- -- -- -- -- -- -- --  -- -- -- -- -- -- -- --
0220:                                               6C                 l
0230: F8 FF FF 7F 2F 80 2A 80  1C 39 80 03 00 00 2A 80  ..../.*..9....*.
0240: 02 00 00 2A 80 00 79 02  1C 2A 80 6C F8 FF FF 7F  ...*..y..*.l....
0250: 29 80 2F 80 02 00 00 2A  80 00 5F 02 1C 3A 80 6C  )./....*.._..:.l
0260: F8 FF FF 7F 2F 80 2F 80  1C 2A 80 02 00 00 2A 80  ...././..*....*.
0270: 00 76 02 1C 3A 80 01 40  02 00                    .v..:..@..      
```

## Opcodes

```
  0: 0x022F [0x6C] FADE_ENTITY_COLOR(entity_id=EventEntity, end_alpha=100*, fade_time=1*)
  1: 0x0238 [0x1C] WAIT(10* ticks)
  2: 0x023B [0x03] ExtData[1]->WorkLocal[0] = 1*
  3: 0x0240 [0x02] IF !(ExtData[1]->WorkLocal[0] == 1*) GOTO 0x0279
  4: 0x0248 [0x1C] WAIT(1* ticks)
  5: 0x024B [0x6C] FADE_ENTITY_COLOR(entity_id=EventEntity, end_alpha=50*, fade_time=100*)
  6: 0x0254 [0x02] IF !(ExtData[1]->WorkLocal[0] == 1*) GOTO 0x025F
  7: 0x025C [0x1C] WAIT(150* ticks)
  8: 0x025F [0x6C] FADE_ENTITY_COLOR(entity_id=EventEntity, end_alpha=100*, fade_time=100*)
  9: 0x0268 [0x1C] WAIT(1* ticks)
 10: 0x026B [0x02] IF !(ExtData[1]->WorkLocal[0] == 1*) GOTO 0x0276
 11: 0x0273 [0x1C] WAIT(150* ticks)
 12: 0x0276 [0x01] GOTO 0x0240

SUBROUTINE_0279:
 13: 0x0279 [0x00] END_REQSTACK()
```
