# Event 103

## Metadata

| Field           | Value    |
|-----------------|----------|
| Event Index     | 6/6      |
| Offset          | 0x0053   |
| Data Size       | 35 bytes |
| Calculated Size | 35 bytes |
| Instructions    | 12       |

```
      00 01 02 03 04 05 06 07  08 09 0A 0B 0C 0D 0E 0F
      -- -- -- -- -- -- -- --  -- -- -- -- -- -- -- --
0050:          20 01 24 06 80  05 80 01 80 25 02 00 10      .$......%...
0060: 01 80 00 72 00 43 00 43  01 42 03 01 10 05 80 01  ...r.C.C.B......
0070: 72 00 20 00 21 00                                 r. .!.          
```

## Opcodes

```
  0: 0x0053 [0x20] SET_CLI_EVENT_UC_FLAG: Lock player control
  1: 0x0055 [0x24] CREATE_DIALOG(message_id=7623*, default_option=1*, option_flags=0*)
    → "Abort mission?\u0007\u000BYes.\u0007No.\u007F1\u0000\u0007"
  2: 0x005C [0x25] WAIT_DIALOG_SELECT()
  3: 0x005D [0x02] IF !(Work_Zone[0] == 0*) GOTO 0x0072
  4: 0x0065 [0x43] SEND_EVENT_UPDATE: Send pending tag to server (packet 0x005B)
  5: 0x0067 [0x43] SEND_EVENT_UPDATE: Check pending flag (skip if not pending)
  6: 0x0069 [0x42] SET_CLI_EVENT_CANCEL_DATA()
  7: 0x006A [0x03] Work_Zone[1] = 1*
  8: 0x006F [0x01] GOTO 0x0072

SUBROUTINE_0072:
  9: 0x0072 [0x20] SET_CLI_EVENT_UC_FLAG: Unlock player control
 10: 0x0074 [0x21] END_EVENT
 11: 0x0075 [0x00] END_REQSTACK()
```
