# Event 65535

## Metadata

| Field           | Value    |
|-----------------|----------|
| Event Index     | 22/134   |
| Offset          | 0x015B   |
| Data Size       | 38 bytes |
| Calculated Size | 38 bytes |
| Instructions    | 8        |

```
      00 01 02 03 04 05 06 07  08 09 0A 0B 0C 0D 0E 0F
      -- -- -- -- -- -- -- --  -- -- -- -- -- -- -- --
0150:                                   32 00 80 1F 00             2....
0160: 29 80 2A 80 1C 80 1F 01  6F 1E 17 50 0F 01 4A 14  ).*.....o..P..J.
0170: 50 0F 01 16 50 0F 01 4A  15 50 0F 01 16 50 0F 01  P...P..J.P...P..
0180: 00                                                .               
```

## Opcodes

```
  0: 0x015B [0x32] ExtData[1]->MainSpeed = 7* * 0.1
  1: 0x015E [0x1F] MOVE_ENTITY: EventEntity moves to X=-59.414*, Z=-136.954*, Y=-0.100*
  2: 0x0166 [0x1F] MOVE_ENTITY: Update entity position (mode=1)
  3: 0x0168 [0x6F] WAIT_FRAME_DELAY: Yield until WaitTime reaches zero
  4: 0x0169 [0x1E] EventEntity looks at Two of Swords (ID: 17780759/0x010F5017) and starts talking
  5: 0x016E [0x4A] Teigero-Bangero (ID: 17780756/0x010F5014) looks at Panta-Putta (ID: 17780758/0x010F5016)
  6: 0x0177 [0x4A] Naruru (ID: 17780757/0x010F5015) looks at Panta-Putta (ID: 17780758/0x010F5016)
  7: 0x0180 [0x00] END_REQSTACK()
```
