# Event 180

## Metadata

| Field           | Value    |
|-----------------|----------|
| Event Index     | 4/6      |
| Offset          | 0x0041   |
| Data Size       | 51 bytes |
| Calculated Size | 51 bytes |
| Instructions    | 12       |

```
      00 01 02 03 04 05 06 07  08 09 0A 0B 0C 0D 0E 0F
      -- -- -- -- -- -- -- --  -- -- -- -- -- -- -- --
0040:    20 01 42 1E F0 FF FF  7F 6F 70 1D 05 80 23 5B    .B.....op...#[
0050: 00 80 F8 FF FF 7F F8 FF  FF 7F 70 61 73 30 1C 06  ..........pas0..
0060: 80 45 07 80 F0 FF FF 7F  F0 FF FF 7F 71 73 74 63  .E..........qstc
0070: 08 80 21 00                                       ..!.            
```

## Opcodes

```
  0: 0x0041 [0x20] SET_CLI_EVENT_UC_FLAG: Lock player control
  1: 0x0043 [0x42] SET_CLI_EVENT_CANCEL_DATA()
  2: 0x0044 [0x1E] EventEntity looks at LocalPlayer and starts talking
  3: 0x0049 [0x6F] WAIT_FRAME_DELAY: Yield until WaitTime reaches zero
  4: 0x004A [0x70] WAIT_ENTITY_RENDER_FLAG: Wait while EventEntity->Render.Flags3 bit 2 is set (cancel turn if not)
  5: 0x004B [0x1D] PRINT_EVENT_MESSAGE(message_id=7975*)
    → "Ah, you're back. I trust the task posed no difficulties.\u0007Take this as recompense for your troubles, and seek me here whenever you wish to assist further in my research.\u007F1\u0000\u0007"
  6: 0x004E [0x23] WAIT_FOR_DIALOG_INTERACTION
  7: 0x004F [0x5B] LOAD_EXT_SCHEDULER(work_offset=30*, entity1=EventEntity, entity2=EventEntity, action="pas0")
  8: 0x005E [0x1C] WAIT(240* ticks)
  9: 0x0061 [0x45] LOAD_SCHEDULED_TASK(work_offset1=201*, entity1=LocalPlayer, entity2=LocalPlayer, scheduler_id="qstc", work_offset2=0*)
 10: 0x0072 [0x21] END_EVENT
 11: 0x0073 [0x00] END_REQSTACK()
```
