# Event 65535

## Metadata

| Field           | Value    |
|-----------------|----------|
| Event Index     | 6/18     |
| Offset          | 0x0058   |
| Data Size       | 88 bytes |
| Calculated Size | 88 bytes |
| Instructions    | 8        |

```
      00 01 02 03 04 05 06 07  08 09 0A 0B 0C 0D 0E 0F
      -- -- -- -- -- -- -- --  -- -- -- -- -- -- -- --
0050:                          45 05 80 F8 FF FF 7F F8          E.......
0060: FF FF 7F 73 30 30 30 06  80 1C 07 80 52 05 80 F8  ...s000.....R...
0070: FF FF 7F F8 FF FF 7F 73  30 30 30 45 08 80 F0 FF  .......s000E....
0080: FF 7F F0 FF FF 7F 6F 76  6C 31 06 80 45 05 80 F8  ......ovl1..E...
0090: FF FF 7F F8 FF FF 7F 73  30 30 31 06 80 1C 07 80  .......s001.....
00A0: 52 05 80 F8 FF FF 7F F8  FF FF 7F 73 30 30 31 00  R..........s001.
```

## Opcodes

```
  0: 0x0058 [0x45] LOAD_SCHEDULED_TASK: Load scheduler "s000" with entities [EventEntity, EventEntity], work=[249*, 0*]
  1: 0x0069 [0x1C] WAIT(100* ticks)
  2: 0x006C [0x52] END_LOAD_SCHEDULER: End scheduler "s000" with entities [EventEntity, EventEntity], work=249*
  3: 0x007B [0x45] LOAD_SCHEDULED_TASK: Load scheduler "ovl1" with entities [LocalPlayer, LocalPlayer], work=[200*, 0*]
  4: 0x008C [0x45] LOAD_SCHEDULED_TASK: Load scheduler "s001" with entities [EventEntity, EventEntity], work=[249*, 0*]
  5: 0x009D [0x1C] WAIT(100* ticks)
  6: 0x00A0 [0x52] END_LOAD_SCHEDULER: End scheduler "s001" with entities [EventEntity, EventEntity], work=249*
  7: 0x00AF [0x00] END_REQSTACK()
```
