# Event 65535

## Metadata

| Field           | Value    |
|-----------------|----------|
| Event Index     | 7/18     |
| Offset          | 0x00B0   |
| Data Size       | 88 bytes |
| Calculated Size | 88 bytes |
| Instructions    | 8        |

```
      00 01 02 03 04 05 06 07  08 09 0A 0B 0C 0D 0E 0F
      -- -- -- -- -- -- -- --  -- -- -- -- -- -- -- --
00B0: 45 05 80 F8 FF FF 7F F8  FF FF 7F 73 30 33 32 06  E..........s032.
00C0: 80 1C 07 80 52 05 80 F8  FF FF 7F F8 FF FF 7F 73  ....R..........s
00D0: 30 33 32 45 08 80 F0 FF  FF 7F F0 FF FF 7F 6F 76  032E..........ov
00E0: 6C 31 06 80 45 05 80 F8  FF FF 7F F8 FF FF 7F 73  l1..E..........s
00F0: 30 33 33 06 80 1C 07 80  52 05 80 F8 FF FF 7F F8  033.....R.......
0100: FF FF 7F 73 30 33 33 00                           ...s033.        
```

## Opcodes

```
  0: 0x00B0 [0x45] LOAD_SCHEDULED_TASK(work_offset1=249*, entity1=EventEntity, entity2=EventEntity, scheduler_id="s032", work_offset2=0*)
  1: 0x00C1 [0x1C] WAIT(100* ticks)
  2: 0x00C4 [0x52] END_LOAD_SCHEDULER: End scheduler "s032" with entities [EventEntity, EventEntity], work=249*
  3: 0x00D3 [0x45] LOAD_SCHEDULED_TASK(work_offset1=200*, entity1=LocalPlayer, entity2=LocalPlayer, scheduler_id="ovl1", work_offset2=0*)
  4: 0x00E4 [0x45] LOAD_SCHEDULED_TASK(work_offset1=249*, entity1=EventEntity, entity2=EventEntity, scheduler_id="s033", work_offset2=0*)
  5: 0x00F5 [0x1C] WAIT(100* ticks)
  6: 0x00F8 [0x52] END_LOAD_SCHEDULER: End scheduler "s033" with entities [EventEntity, EventEntity], work=249*
  7: 0x0107 [0x00] END_REQSTACK()
```
