# Event 65535

## Metadata

| Field           | Value    |
|-----------------|----------|
| Event Index     | 25/28    |
| Offset          | 0x014E   |
| Data Size       | 46 bytes |
| Calculated Size | 46 bytes |
| Instructions    | 10       |

```
      00 01 02 03 04 05 06 07  08 09 0A 0B 0C 0D 0E 0F
      -- -- -- -- -- -- -- --  -- -- -- -- -- -- -- --
0140:                                            1F 00                ..
0150: 0B 80 0C 80 0D 80 1F 01  1F 00 0E 80 0F 80 10 80  ................
0160: 1F 01 1F 00 11 80 12 80  07 80 1F 01 4A 59 20 0F  ............JY .
0170: 01 55 20 0F 01 6F 76 59  20 0F 01 00              .U ..ovY ...    
```

## Opcodes

```
  0: 0x014E [0x1F] MOVE_ENTITY: EventEntity moves to X=-17.946*, Z=70.457*, Y=-0.022*
  1: 0x0156 [0x1F] MOVE_ENTITY: Update entity position (mode=1)
  2: 0x0158 [0x1F] MOVE_ENTITY: EventEntity moves to X=-16.426*, Z=70.419*, Y=0.434*
  3: 0x0160 [0x1F] MOVE_ENTITY: Update entity position (mode=1)
  4: 0x0162 [0x1F] MOVE_ENTITY: EventEntity moves to X=-11.076*, Z=73.027*, Y=0.601*
  5: 0x016A [0x1F] MOVE_ENTITY: Update entity position (mode=1)
  6: 0x016C [0x4A] Kodada (ID: 17768537/0x010F2059) looks at Shantotto (ID: 17768533/0x010F2055)
  7: 0x0175 [0x6F] WAIT_FRAME_DELAY: Yield until WaitTime reaches zero
  8: 0x0176 [0x76] CHECK_ENTITY_RENDER_FLAGS: Wait until Kodada (ID: 17768537/0x010F2059) Render.Flags0 and Render.Flags3 conditions are met
  9: 0x017B [0x00] END_REQSTACK()
```
