# Event 65535

## Metadata

| Field           | Value    |
|-----------------|----------|
| Event Index     | 58/64    |
| Offset          | 0x0581   |
| Data Size       | 76 bytes |
| Calculated Size | 76 bytes |
| Instructions    | 8        |

```
      00 01 02 03 04 05 06 07  08 09 0A 0B 0C 0D 0E 0F
      -- -- -- -- -- -- -- --  -- -- -- -- -- -- -- --
0580:    5B 69 80 F8 FF FF 7F  F8 FF FF 7F 68 33 30 34   [i.........h304
0590: 1C 6A 80 45 6B 80 95 00  02 01 95 00 02 01 73 62  .j.Ek.........sb
05A0: 30 35 0C 80 1C 2E 80 45  6B 80 95 00 02 01 95 00  05.....Ek.......
05B0: 02 01 73 62 30 36 0C 80  1C 29 80 45 6B 80 95 00  ..sb06...).Ek...
05C0: 02 01 95 00 02 01 73 62  30 37 0C 80 00           ......sb07...   
```

## Opcodes

```
  0: 0x0581 [0x5B] LOAD_EXT_SCHEDULER(work_offset=684*, entity1=EventEntity, entity2=EventEntity, action="h304")
  1: 0x0590 [0x1C] WAIT(150* ticks)
  2: 0x0593 [0x45] LOAD_SCHEDULED_TASK(work_offset1=167*, entity1=Shikaree Z (ID: 16908437/0x01020095), entity2=Shikaree Z (ID: 16908437/0x01020095), scheduler_id="sb05", work_offset2=0*)
  3: 0x05A4 [0x1C] WAIT(15* ticks)
  4: 0x05A7 [0x45] LOAD_SCHEDULED_TASK(work_offset1=167*, entity1=Shikaree Z (ID: 16908437/0x01020095), entity2=Shikaree Z (ID: 16908437/0x01020095), scheduler_id="sb06", work_offset2=0*)
  5: 0x05B8 [0x1C] WAIT(30* ticks)
  6: 0x05BB [0x45] LOAD_SCHEDULED_TASK(work_offset1=167*, entity1=Shikaree Z (ID: 16908437/0x01020095), entity2=Shikaree Z (ID: 16908437/0x01020095), scheduler_id="sb07", work_offset2=0*)
  7: 0x05CC [0x00] END_REQSTACK()
```
