# Event 65535

## Metadata

| Field           | Value    |
|-----------------|----------|
| Event Index     | 4/64     |
| Offset          | 0x004B   |
| Data Size       | 88 bytes |
| Calculated Size | 88 bytes |
| Instructions    | 4        |

```
      00 01 02 03 04 05 06 07  08 09 0A 0B 0C 0D 0E 0F
      -- -- -- -- -- -- -- --  -- -- -- -- -- -- -- --
0040:                                   5E 69 64 6C 30             ^idl0
0050: 37 05 80 06 80 07 80 08  80 1E 96 00 02 01 00 3B  7..............;
0060: F8 FF FF 7F 01 00 02 00  03 00 3A F8 FF FF 7F 04  ..........:.....
0070: 00 17 05 00 04 00 00 00  16 06 00 04 00 00 00 07  ................
0080: 01 00 05 00 07 02 00 06  00 1B 17 05 00 04 00 00  ................
0090: 00 16 06 00 04 00 00 00  07 01 00 05 00 07 02 00  ................
00A0: 06 00 1B                                          ...             
```

## Opcodes

```
  0: 0x004B [0x5E] EventEntity goes idle (kills current action) (animation: "idl0")
  1: 0x0050 [0x37] UPDATE_EVENT_POSITION_AND_DIR: x=-778.374*, z=-73.203*, y=-103.347*, direction=74.0°*
  2: 0x0059 [0x1E] EventEntity looks at Louverance (ID: 16908438/0x01020096) and starts talking
  3: 0x005E [0x00] END_REQSTACK()
```

## Data or dead code:

```
# Dead code (unreachable instructions):
     0x005F [0x3B] GET_ENTITY_POSITION(entity=EventEntity, x_destination=ExtData[1]->WorkLocal[1], y_destination=ExtData[1]->WorkLocal[2], z_destination=ExtData[1]->WorkLocal[3])
     0x006A [0x3A] CONVERT_YAW_TO_BYTE(entity=EventEntity, result_destination=ExtData[1]->WorkLocal[4])
     0x0071 [0x17] ExtData[1]->WorkLocal[5] = cos(ExtData[1]->WorkLocal[4]) * ExtData[1]->WorkLocal[0]
     0x0078 [0x16] ExtData[1]->WorkLocal[6] = sin(ExtData[1]->WorkLocal[4]) * ExtData[1]->WorkLocal[0]
     0x007F [0x07] ExtData[1]->WorkLocal[1] += ExtData[1]->WorkLocal[5]
     0x0084 [0x07] ExtData[1]->WorkLocal[2] += ExtData[1]->WorkLocal[6]
     0x0089 [0x1B] RETURN
     0x008A [0x17] ExtData[1]->WorkLocal[5] = cos(ExtData[1]->WorkLocal[4]) * ExtData[1]->WorkLocal[0]
     0x0091 [0x16] ExtData[1]->WorkLocal[6] = sin(ExtData[1]->WorkLocal[4]) * ExtData[1]->WorkLocal[0]
     0x0098 [0x07] ExtData[1]->WorkLocal[1] += ExtData[1]->WorkLocal[5]
     0x009D [0x07] ExtData[1]->WorkLocal[2] += ExtData[1]->WorkLocal[6]
     0x00A2 [0x1B] RETURN
```