# Event 65535

## Metadata

| Field           | Value    |
|-----------------|----------|
| Event Index     | 12/64    |
| Offset          | 0x0101   |
| Data Size       | 36 bytes |
| Calculated Size | 36 bytes |
| Instructions    | 7        |

```
      00 01 02 03 04 05 06 07  08 09 0A 0B 0C 0D 0E 0F
      -- -- -- -- -- -- -- --  -- -- -- -- -- -- -- --
0100:    5E 69 64 6C 30 79 00  F8 FF FF 7F A0 00 02 01   ^idl0y.........
0110: 39 1B 80 6F 70 5B 1C 80  F8 FF FF 7F F8 FF FF 7F  9..op[..........
0120: 63 34 31 32 00                                    c412.           
```

## Opcodes

```
  0: 0x0101 [0x5E] EventEntity goes idle (kills current action) (animation: "idl0")
  1: 0x0106 [0x79] EventEntity looks at Nag'molada (ID: 16908448/0x010200A0) (Basic look)
  2: 0x0110 [0x39] SET_ENTITY_DIRECTION(direction=4.5°*)
  3: 0x0113 [0x6F] WAIT_FRAME_DELAY: Yield until WaitTime reaches zero
  4: 0x0114 [0x70] WAIT_ENTITY_RENDER_FLAG: Wait while EventEntity->Render.Flags3 bit 2 is set (cancel turn if not)
  5: 0x0115 [0x5B] LOAD_EXT_SCHEDULER(work_offset=617*, entity1=EventEntity, entity2=EventEntity, action="c412")
  6: 0x0124 [0x00] END_REQSTACK()
```
