# Event 65535

## Metadata

| Field           | Value    |
|-----------------|----------|
| Event Index     | 15/21    |
| Offset          | 0x012B   |
| Data Size       | 49 bytes |
| Calculated Size | 49 bytes |
| Instructions    | 6        |

```
      00 01 02 03 04 05 06 07  08 09 0A 0B 0C 0D 0E 0F
      -- -- -- -- -- -- -- --  -- -- -- -- -- -- -- --
0120:                                   B6 0B 0A 80 0B             .....
0130: 80 00 80 03 80 0C 80 0C  80 0C 80 00 80 00 80 1A  ................
0140: 9B 01 7E 03 F8 FF FF 7F  02 00 00 80 03 00 04 00  ..~.............
0150: 05 00 7E 04 F8 FF FF 7F  32 05 80 00              ..~.....2...    
```

## Opcodes

```
  0: 0x012B [0xB6] ENTITY_APPEARANCE_HANDLER(case=Full entity look, race=1*, hair=5*, head=0*, body=188*, hands=138*, legs=138*, feet=138*, main=0*, sub=0*)
  1: 0x013F [0x1A] CALL_SUBROUTINE(address=0x019B)
  2: 0x0142 [0x7E] CHOCOBO_MOUNT: Mount custom chocobo on EventEntity (index=2, color=32768, name_id=3)
  3: 0x0152 [0x7E] CHOCOBO_MOUNT: Mode 4 on EventEntity
  4: 0x0158 [0x32] ExtData[1]->MainSpeed = 80* * 0.1
  5: 0x015B [0x00] END_REQSTACK()
```
