# Event 65535

## Metadata

| Field           | Value     |
|-----------------|-----------|
| Event Index     | 17/21     |
| Offset          | 0x018D    |
| Data Size       | 107 bytes |
| Calculated Size | 107 bytes |
| Instructions    | 5         |

```
      00 01 02 03 04 05 06 07  08 09 0A 0B 0C 0D 0E 0F
      -- -- -- -- -- -- -- --  -- -- -- -- -- -- -- --
0180:                                         32 0D 80               2..
0190: 1F 00 0E 80 0F 80 10 80  1F 01 00 BF 20 00 80 0A  ............ ...
01A0: 80 02 80 00 00 41 11 80  12 80 00 00 01 00 41 13  .....A........A.
01B0: 80 0D 80 00 00 02 00 BF  20 00 80 0A 80 0A 80 00  ........ .......
01C0: 00 3E 00 00 07 80 D0 01  03 03 00 0A 80 01 D3 01  .>..............
01D0: 06 03 00 3E 00 00 00 80  E2 01 03 04 00 0A 80 01  ...>............
01E0: E5 01 06 04 00 3E 00 00  01 80 F4 01 03 05 00 0A  .....>..........
01F0: 80 01 F7 01 06 04 00 1B                           ........        
```

## Opcodes

```
  0: 0x018D [0x32] ExtData[1]->MainSpeed = 27* * 0.1
  1: 0x0190 [0x1F] MOVE_ENTITY: EventEntity moves to X=-93.714*, Z=-76.948*, Y=-0.500*
  2: 0x0198 [0x1F] MOVE_ENTITY: Update entity position (mode=1)
  3: 0x019A [0x00] END_REQSTACK()
```

## Data or dead code:

```
# Data Section: 0x019B (93 bytes)
     0x019B: BF 20 00 80 0A 80 02 80 00 00 41 11 80 12 80 00
     0x01AB: 00 01 00 41 13 80 0D 80 00 00 02 00 BF 20 00 80
     0x01BB: 0A 80 0A 80 00 00 3E 00 00 07 80 D0 01 03 03 00
     0x01CB: 0A 80 01 D3 01 06 03 00 3E 00 00 00 80 E2 01 03
     0x01DB: 04 00 0A 80 01 E5 01 06 04 00 3E 00 00 01 80 F4
     0x01EB: 01 03 05 00 0A 80 01 F7 01 06 04 00 1B
```