# Event 65535

## Metadata

| Field           | Value    |
|-----------------|----------|
| Event Index     | 10/21    |
| Offset          | 0x0017   |
| Data Size       | 80 bytes |
| Calculated Size | 80 bytes |
| Instructions    | 9        |

```
      00 01 02 03 04 05 06 07  08 09 0A 0B 0C 0D 0E 0F
      -- -- -- -- -- -- -- --  -- -- -- -- -- -- -- --
0010:                      1A  9B 01 02 01 00 00 80 00         .........
0020: 39 00 B6 0B 01 80 02 80  00 80 03 80 04 80 04 80  9...............
0030: 04 80 00 80 00 80 01 4D  00 B6 0B 01 00 02 80 00  .......M........
0040: 80 03 80 04 80 04 80 04  80 00 80 00 80 7E 03 F8  .............~..
0050: FF FF 7F 02 00 00 80 03  00 04 00 05 00 7E 04 F8  .............~..
0060: FF FF 7F 32 05 80 00                              ...2...         
```

## Opcodes

```
  0: 0x0017 [0x1A] CALL_SUBROUTINE(address=0x019B)
  1: 0x001A [0x02] IF !(ExtData[1]->WorkLocal[1] == 0*) GOTO 0x0039
  2: 0x0022 [0xB6] ENTITY_APPEARANCE_HANDLER(case=Full entity look, race=8*, hair=2*, head=0*, body=188*, hands=6*, legs=6*, feet=6*, main=0*, sub=0*)
  3: 0x0036 [0x01] GOTO 0x004D
  4: 0x0039 [0xB6] ENTITY_APPEARANCE_HANDLER(case=Full entity look, race=1, hair=2*, head=0*, body=188*, hands=6*, legs=6*, feet=6*, main=0*, sub=0*)

SUBROUTINE_004D:
  5: 0x004D [0x7E] CHOCOBO_MOUNT: Mount custom chocobo on EventEntity (index=2, color=32768, name_id=3)
  6: 0x005D [0x7E] CHOCOBO_MOUNT: Mode 4 on EventEntity
  7: 0x0063 [0x32] ExtData[1]->MainSpeed = 80* * 0.1
  8: 0x0066 [0x00] END_REQSTACK()
```
