# Event 65535

## Metadata

| Field           | Value    |
|-----------------|----------|
| Event Index     | 6/12     |
| Offset          | 0x00C6   |
| Data Size       | 32 bytes |
| Calculated Size | 32 bytes |
| Instructions    | 8        |

```
      00 01 02 03 04 05 06 07  08 09 0A 0B 0C 0D 0E 0F
      -- -- -- -- -- -- -- --  -- -- -- -- -- -- -- --
00C0:                   1E 2A  70 0E 01 6F 70 66 00 80        .*p..opf..
00D0: F8 FF FF 7F F8 FF FF 7F  74 6C 6B 30 1D 01 80 23  ........tlk0...#
00E0: 5E 69 64 6C 30 00                                 ^idl0.          
```

## Opcodes

```
  0: 0x00C6 [0x1E] EventEntity looks at Guilberdrier (ID: 17723434/0x010E702A) and starts talking
  1: 0x00CB [0x6F] WAIT_FRAME_DELAY: Yield until WaitTime reaches zero
  2: 0x00CC [0x70] WAIT_ENTITY_RENDER_FLAG: Wait while EventEntity->Render.Flags3 bit 2 is set (cancel turn if not)
  3: 0x00CD [0x66] LOAD_EXT_SCHEDULER_MAIN(work_offset=20*, entity1=EventEntity, entity2=EventEntity, action="tlk0")
  4: 0x00DC [0x1D] PRINT_EVENT_MESSAGE(message_id=11171*)
    → "Ah, a new recruit! What are you doing in the city? Get out there and slay some fiends! That's where the money is!\u007F1\u0000\u0007"
  5: 0x00DF [0x23] WAIT_FOR_DIALOG_INTERACTION
  6: 0x00E0 [0x5E] EventEntity goes idle (kills current action) (animation: "idl0")
  7: 0x00E5 [0x00] END_REQSTACK()
```
