# Event 65535

## Metadata

| Field           | Value    |
|-----------------|----------|
| Event Index     | 8/10     |
| Offset          | 0x0049   |
| Data Size       | 44 bytes |
| Calculated Size | 44 bytes |
| Instructions    | 6        |

```
      00 01 02 03 04 05 06 07  08 09 0A 0B 0C 0D 0E 0F
      -- -- -- -- -- -- -- --  -- -- -- -- -- -- -- --
0040:                             2B 05 C0 0F 01 09 80           +......
0050: 23 55 0A 80 F0 FF FF 7F  F0 FF FF 7F 73 65 38 31  #U..........se81
0060: 1C 0B 80 45 0A 80 F0 FF  FF 7F F0 FF FF 7F 73 65  ...E..........se
0070: 38 32 02 80 00                                    82...           
```

## Opcodes

```
  0: 0x0049 [0x2B] Lion (ID: 17809413/0x010FC005) [10084*]:
    → "Oh, no you don't!\u007F4\u0001\u0000\u0007"
  1: 0x0050 [0x23] WAIT_FOR_DIALOG_INTERACTION
  2: 0x0051 [0x55] WAIT_LOAD_SCHEDULER(work_offset=230*, entity1=LocalPlayer, entity2=LocalPlayer, scheduler_id="se81")
  3: 0x0060 [0x1C] WAIT(30* ticks)
  4: 0x0063 [0x45] LOAD_SCHEDULED_TASK(work_offset1=230*, entity1=LocalPlayer, entity2=LocalPlayer, scheduler_id="se82", work_offset2=0*)
  5: 0x0074 [0x00] END_REQSTACK()
```
