# Event 5072

## Metadata

| Field           | Value    |
|-----------------|----------|
| Event Index     | 8/10     |
| Offset          | 0xBB2A   |
| Data Size       | 44 bytes |
| Calculated Size | 44 bytes |
| Instructions    | 12       |

```
      00 01 02 03 04 05 06 07  08 09 0A 0B 0C 0D 0E 0F
      -- -- -- -- -- -- -- --  -- -- -- -- -- -- -- --
BB20:                                42 4A 8D 20 03 01            BJ. ..
BB30: F0 FF FF 7F 6F 76 8D 20  03 01 03 02 10 68 80 03  ....ov. .....h..
BB40: 03 10 7A 80 2B 8D 20 03  01 38 84 23 2B 8D 20 03  ..z.+. ..8.#+. .
BB50: 01 39 84 23 21 00                                 .9.#!.          
```

## Opcodes

```
  0: 0xBB2A [0x42] SET_CLI_EVENT_CANCEL_DATA()
  1: 0xBB2B [0x4A] Abquhbah (ID: 16982157/0x0103208D) looks at LocalPlayer
  2: 0xBB34 [0x6F] WAIT_FRAME_DELAY: Yield until WaitTime reaches zero
  3: 0xBB35 [0x76] CHECK_ENTITY_RENDER_FLAGS: Wait until Abquhbah (ID: 16982157/0x0103208D) Render.Flags0 and Render.Flags3 conditions are met
  4: 0xBB3A [0x03] Work_Zone[2] = 2187*
  5: 0xBB3F [0x03] Work_Zone[3] = 3*
  6: 0xBB44 [0x2B] Abquhbah (ID: 16982157/0x0103208D) [11477*]:
    → "Your enrollment fee comes to a total of 
\u0001 \u0001	)\u0002\u0001\u0000\u0000\u0002\u0000\u0000\u0000.\u007F1\u0000\u0007"
  7: 0xBB4B [0x23] WAIT_FOR_DIALOG_INTERACTION
  8: 0xBB4C [0x2B] Abquhbah (ID: 16982157/0x0103208D) [11478*]:
    → "Once you've paid me the required amount, we can begin the enrollment process.\u0007Any time you're ready!\u007F1\u0000\u0007"
  9: 0xBB53 [0x23] WAIT_FOR_DIALOG_INTERACTION
 10: 0xBB54 [0x21] END_EVENT
 11: 0xBB55 [0x00] END_REQSTACK()
```
