# Event 192

## Metadata

| Field           | Value    |
|-----------------|----------|
| Event Index     | 21/26    |
| Offset          | 0x0335   |
| Data Size       | 33 bytes |
| Calculated Size | 33 bytes |
| Instructions    | 12       |

```
      00 01 02 03 04 05 06 07  08 09 0A 0B 0C 0D 0E 0F
      -- -- -- -- -- -- -- --  -- -- -- -- -- -- -- --
0330:                1E F0 FF  FF 7F 6F 70 29 08 40 A0       .....op).@.
0340: 0F 01 01 1D 18 80 23 1D  19 80 23 29 08 40 A0 0F  ......#...#).@..
0350: 01 02 20 00 21 00                                 .. .!.          
```

## Opcodes

```
  0: 0x0335 [0x1E] EventEntity looks at LocalPlayer and starts talking
  1: 0x033A [0x6F] WAIT_FRAME_DELAY: Yield until WaitTime reaches zero
  2: 0x033B [0x70] WAIT_ENTITY_RENDER_FLAG: Wait while EventEntity->Render.Flags3 bit 2 is set (cancel turn if not)
  3: 0x033C [0x29] REQ_SET_WAIT(priority=0x08, entity_id=Gatih Mijurabi (ID: 17801280/0x010FA040), tag_num=0x01)
  4: 0x0343 [0x1D] PRINT_EVENT_MESSAGE(message_id=10386*)
    → "You must find a hot spring, but only one located somewhere deep beneath the sea.\u007F1\u0000\u0007"
  5: 0x0346 [0x23] WAIT_FOR_DIALOG_INTERACTION
  6: 0x0347 [0x1D] PRINT_EVENT_MESSAGE(message_id=10387*)
    → "Bathe in one of these, and it should remove the odor...unless we are alrrready too late.\u007F1\u0000\u0007"
  7: 0x034A [0x23] WAIT_FOR_DIALOG_INTERACTION
  8: 0x034B [0x29] REQ_SET_WAIT(priority=0x08, entity_id=Gatih Mijurabi (ID: 17801280/0x010FA040), tag_num=0x02)
  9: 0x0352 [0x20] SET_CLI_EVENT_UC_FLAG: Unlock player control
 10: 0x0354 [0x21] END_EVENT
 11: 0x0355 [0x00] END_REQSTACK()
```
