# Event 65535

## Metadata

| Field           | Value    |
|-----------------|----------|
| Event Index     | 24/61    |
| Offset          | 0x017B   |
| Data Size       | 58 bytes |
| Calculated Size | 58 bytes |
| Instructions    | 14       |

```
      00 01 02 03 04 05 06 07  08 09 0A 0B 0C 0D 0E 0F
      -- -- -- -- -- -- -- --  -- -- -- -- -- -- -- --
0170:                                   1C 2C 80 1C 2D             .,..-
0180: 80 6E 0E 03 05 01 2E 80  99 0E 03 05 01 1C 0E 80  .n..............
0190: 6E 12 03 05 01 2E 80 99  12 03 05 01 1C 2F 80 1C  n............/..
01A0: 30 80 6E 18 03 05 01 31  80 99 18 03 05 01 1C 32  0.n....1.......2
01B0: 80 1C 2C 80 00                                    ..,..           
```

## Opcodes

```
  0: 0x017B [0x1C] WAIT(180* ticks)
  1: 0x017E [0x1C] WAIT(30* ticks)
  2: 0x0181 [0x6E] Leonoyne (ID: 17105678/0x0105030E) uses emote 7*
  3: 0x0188 [0x99] Wait for Leonoyne (ID: 17105678/0x0105030E) animation to complete
  4: 0x018D [0x1C] WAIT(60* ticks)
  5: 0x0190 [0x6E] Febrenard C Brunnaut (ID: 17105682/0x01050312) uses emote 7*
  6: 0x0197 [0x99] Wait for Febrenard C Brunnaut (ID: 17105682/0x01050312) animation to complete
  7: 0x019C [0x1C] WAIT(90* ticks)
  8: 0x019F [0x1C] WAIT(80* ticks)
  9: 0x01A2 [0x6E] 04 (ID: 17105688/0x01050318) uses emote 36*
 10: 0x01A9 [0x99] Wait for 04 (ID: 17105688/0x01050318) animation to complete
 11: 0x01AE [0x1C] WAIT(100* ticks)
 12: 0x01B1 [0x1C] WAIT(180* ticks)
 13: 0x01B4 [0x00] END_REQSTACK()
```
