# Event 65535

## Metadata

| Field           | Value    |
|-----------------|----------|
| Event Index     | 20/61    |
| Offset          | 0x0111   |
| Data Size       | 69 bytes |
| Calculated Size | 69 bytes |
| Instructions    | 14       |

```
      00 01 02 03 04 05 06 07  08 09 0A 0B 0C 0D 0E 0F
      -- -- -- -- -- -- -- --  -- -- -- -- -- -- -- --
0110:    7B F8 FF FF 7F 59 04  F8 FF FF 7F 07 80 1F 00   {....Y.........
0120: 20 80 21 80 00 80 1F 01  1F 00 22 80 23 80 24 80   .!.......".#.$.
0130: 1F 01 1F 00 25 80 26 80  0D 80 1F 01 1F 00 27 80  ....%.&.......'.
0140: 28 80 0A 80 1F 01 6F 4A  F8 FF FF 7F AE 02 05 01  (.....oJ........
0150: 7B F8 FF FF 7F 00                                 {.....          
```

## Opcodes

```
  0: 0x0111 [0x7B] EventEntity stops talking
  1: 0x0116 [0x59] UPDATE_ENTITY_DATA: Set EventEntity main speed = 13* * 0.1
  2: 0x011E [0x1F] MOVE_ENTITY: EventEntity moves to X=89.928*, Z=112.069*, Y=0.000*
  3: 0x0126 [0x1F] MOVE_ENTITY: Update entity position (mode=1)
  4: 0x0128 [0x1F] MOVE_ENTITY: EventEntity moves to X=89.027*, Z=117.199*, Y=0.750*
  5: 0x0130 [0x1F] MOVE_ENTITY: Update entity position (mode=1)
  6: 0x0132 [0x1F] MOVE_ENTITY: EventEntity moves to X=88.920*, Z=117.934*, Y=0.999*
  7: 0x013A [0x1F] MOVE_ENTITY: Update entity position (mode=1)
  8: 0x013C [0x1F] MOVE_ENTITY: EventEntity moves to X=89.319*, Z=119.738*, Y=1.000*
  9: 0x0144 [0x1F] MOVE_ENTITY: Update entity position (mode=1)
 10: 0x0146 [0x6F] WAIT_FRAME_DELAY: Yield until WaitTime reaches zero
 11: 0x0147 [0x4A] EventEntity looks at Vestillet (ID: 17105582/0x010502AE)
 12: 0x0150 [0x7B] EventEntity stops talking
 13: 0x0155 [0x00] END_REQSTACK()
```
