# Event 887

## Metadata

| Field           | Value    |
|-----------------|----------|
| Event Index     | 3/3      |
| Offset          | 0x0022   |
| Data Size       | 57 bytes |
| Calculated Size | 57 bytes |
| Instructions    | 9        |

```
      00 01 02 03 04 05 06 07  08 09 0A 0B 0C 0D 0E 0F
      -- -- -- -- -- -- -- --  -- -- -- -- -- -- -- --
0020:       4A 18 60 0E 01 F0  FF FF 7F 66 0A 80 F8 FF    J.`......f....
0030: FF 7F F8 FF FF 7F 74 6C  6B 30 2B 18 60 0E 01 0B  ......tlk0+.`...
0040: 80 23 2B 18 60 0E 01 0C  80 23 66 0A 80 F8 FF FF  .#+.`....#f.....
0050: 7F F8 FF FF 7F 74 6C 6B  31 21 00                 .....tlk1!.     
```

## Opcodes

```
  0: 0x0022 [0x4A] Katharina (ID: 17719320/0x010E6018) looks at LocalPlayer
  1: 0x002B [0x66] LOAD_EXT_SCHEDULER_MAIN(work_offset=10*, entity1=EventEntity, entity2=EventEntity, action="tlk0")
  2: 0x003A [0x2B] Katharina (ID: 17719320/0x010E6018) [8252*]:
    → "Come in! Come in! And welcome to the Lion Springs Tavern! Run by none other than the great hero of the Norvallen Resistance, Valderotaux himself.\u007F1\u0000\u0007"
  3: 0x0041 [0x23] WAIT_FOR_DIALOG_INTERACTION
  4: 0x0042 [0x2B] Katharina (ID: 17719320/0x010E6018) [8253*]:
    → "Make yourself at home! Can I interest you in some of our famous mulsum?\u007F1\u0000\u0007"
  5: 0x0049 [0x23] WAIT_FOR_DIALOG_INTERACTION
  6: 0x004A [0x66] LOAD_EXT_SCHEDULER_MAIN(work_offset=10*, entity1=EventEntity, entity2=EventEntity, action="tlk1")
  7: 0x0059 [0x21] END_EVENT
  8: 0x005A [0x00] END_REQSTACK()
```
