# Event 65535

## Metadata

| Field           | Value    |
|-----------------|----------|
| Event Index     | 12/29    |
| Offset          | 0x0085   |
| Data Size       | 60 bytes |
| Calculated Size | 60 bytes |
| Instructions    | 5        |

```
      00 01 02 03 04 05 06 07  08 09 0A 0B 0C 0D 0E 0F
      -- -- -- -- -- -- -- --  -- -- -- -- -- -- -- --
0080:                B6 0B 12  80 19 80 14 80 1A 80 1B       ...........
0090: 80 1A 80 19 80 1C 80 0D  80 66 18 80 F8 FF FF 7F  .........f......
00A0: F8 FF FF 7F 77 70 6F 6E  B4 13 00 00 30 36 00 00  ....wpon....06..
00B0: 00 00 00 00 00 00 00 00  00 00 00 00 B5 00 00 00  ................
00C0: 00                                                .               
```

## Opcodes

```
  0: 0x0085 [0xB6] ENTITY_APPEARANCE_HANDLER(case=Full entity look, race=7*, hair=13*, head=137*, body=15*, hands=114*, legs=15*, feet=13*, main=100*, sub=0*)
  1: 0x0099 [0x66] LOAD_EXT_SCHEDULER_MAIN: Load scheduler "wpon" with entities [EventEntity, EventEntity], work=129*
  2: 0x00A8 [0xB4] UI_WINDOW_STRING_HANDLER(case=0x13 - Copy string and replace @ with space, work_offset=ExtData[1]->WorkLocal[0], string="06")
  3: 0x00BC [0xB5] SET_EVENT_ENTITY_NAME: Change EventEntity name to ExtData[1]->WorkLocal[0]
  4: 0x00C0 [0x00] END_REQSTACK()
```
