# Event 65535

## Metadata

| Field           | Value    |
|-----------------|----------|
| Event Index     | 54/79    |
| Offset          | 0x03E1   |
| Data Size       | 60 bytes |
| Calculated Size | 60 bytes |
| Instructions    | 6        |

```
      00 01 02 03 04 05 06 07  08 09 0A 0B 0C 0D 0E 0F
      -- -- -- -- -- -- -- --  -- -- -- -- -- -- -- --
03E0:    1C 0B 80 5B 09 80 F8  FF FF 7F F8 FF FF 7F 75   ...[..........u
03F0: 72 61 30 53 F8 FF FF 7F  F8 FF FF 7F 75 72 61 30  ra0S........ura0
0400: 5B 09 80 F8 FF FF 7F F8  FF FF 7F 75 72 61 31 53  [..........ura1S
0410: F8 FF FF 7F F8 FF FF 7F  75 72 61 31 00           ........ura1.   
```

## Opcodes

```
  0: 0x03E1 [0x1C] WAIT(30* ticks)
  1: 0x03E4 [0x5B] LOAD_EXT_SCHEDULER(work_offset=881*, entity1=EventEntity, entity2=EventEntity, action="ura0")
  2: 0x03F3 [0x53] WAIT_SCHEDULER_TASK(entity1=EventEntity, entity2=EventEntity, action_id="ura0")
  3: 0x0400 [0x5B] LOAD_EXT_SCHEDULER(work_offset=881*, entity1=EventEntity, entity2=EventEntity, action="ura1")
  4: 0x040F [0x53] WAIT_SCHEDULER_TASK(entity1=EventEntity, entity2=EventEntity, action_id="ura1")
  5: 0x041C [0x00] END_REQSTACK()
```
