# Event 65535

## Metadata

| Field           | Value    |
|-----------------|----------|
| Event Index     | 6/10     |
| Offset          | 0x002F   |
| Data Size       | 44 bytes |
| Calculated Size | 44 bytes |
| Instructions    | 10       |

```
      00 01 02 03 04 05 06 07  08 09 0A 0B 0C 0D 0E 0F
      -- -- -- -- -- -- -- --  -- -- -- -- -- -- -- --
0020:                                               1A                 .
0030: 60 03 27 10 6F C0 09 01  0A 27 10 73 C0 09 01 0D  `.'.o....'.s....
0040: 1A 3F 03 1C 02 80 1A 60  03 27 10 6F C0 09 01 0B  .?.....`.'.o....
0050: 27 10 73 C0 09 01 0C 1A  3F 03 00                 '.s.....?..     
```

## Opcodes

```
  0: 0x002F [0x1A] CALL_SUBROUTINE(address=0x0360)
  1: 0x0032 [0x27] REQ_SET(priority=0x10, entity_id=Larzos (ID: 17416303/0x0109C06F), tag_num=0x0A)
  2: 0x0039 [0x27] REQ_SET(priority=0x10, entity_id=4 (ID: 17416307/0x0109C073), tag_num=0x0D)
  3: 0x0040 [0x1A] CALL_SUBROUTINE(address=0x033F)
  4: 0x0043 [0x1C] WAIT(60* ticks)
  5: 0x0046 [0x1A] CALL_SUBROUTINE(address=0x0360)
  6: 0x0049 [0x27] REQ_SET(priority=0x10, entity_id=Larzos (ID: 17416303/0x0109C06F), tag_num=0x0B)
  7: 0x0050 [0x27] REQ_SET(priority=0x10, entity_id=4 (ID: 17416307/0x0109C073), tag_num=0x0C)
  8: 0x0057 [0x1A] CALL_SUBROUTINE(address=0x033F)
  9: 0x005A [0x00] END_REQSTACK()
```
