# Event 65535

## Metadata

| Field           | Value    |
|-----------------|----------|
| Event Index     | 9/10     |
| Offset          | 0x0158   |
| Data Size       | 81 bytes |
| Calculated Size | 81 bytes |
| Instructions    | 8        |

```
      00 01 02 03 04 05 06 07  08 09 0A 0B 0C 0D 0E 0F
      -- -- -- -- -- -- -- --  -- -- -- -- -- -- -- --
0150:                          BB 03 80 6E C0 09 01 6E          ...n...n
0160: C0 09 01 69 6E 30 30 04  80 BB 03 80 68 C0 09 01  ...in00.....h...
0170: 68 C0 09 01 69 6E 30 30  04 80 1C 15 80 BB 03 80  h...in00........
0180: 6D C0 09 01 6D C0 09 01  69 6E 30 30 04 80 BB 03  m...m...in00....
0190: 80 F0 FF FF 7F F0 FF FF  7F 69 6E 30 30 04 80 1C  .........in00...
01A0: 01 80 92 01 F0 FF FF 7F  00                       .........       
```

## Opcodes

```
  0: 0x0158 [0xBB] LOAD_EVENT_SCHEDULER_ALT: Load scheduler "in00" with entities [Haudrale (ID: 17416302/0x0109C06E), Haudrale (ID: 17416302/0x0109C06E)], work=[223*, 0*]
  1: 0x0169 [0xBB] LOAD_EVENT_SCHEDULER_ALT: Load scheduler "in00" with entities [Lilisette (ID: 17416296/0x0109C068), Lilisette (ID: 17416296/0x0109C068)], work=[223*, 0*]
  2: 0x017A [0x1C] WAIT(45* ticks)
  3: 0x017D [0xBB] LOAD_EVENT_SCHEDULER_ALT: Load scheduler "in00" with entities [Aquila (ID: 17416301/0x0109C06D), Aquila (ID: 17416301/0x0109C06D)], work=[223*, 0*]
  4: 0x018E [0xBB] LOAD_EVENT_SCHEDULER_ALT: Load scheduler "in00" with entities [LocalPlayer, LocalPlayer], work=[223*, 0*]
  5: 0x019F [0x1C] WAIT(30* ticks)
  6: 0x01A2 [0x92] LocalPlayer->Render.Flags3 ^= 0x01
  7: 0x01A8 [0x00] END_REQSTACK()
```
