# Event 614

## Metadata

| Field           | Value    |
|-----------------|----------|
| Event Index     | 5/15     |
| Offset          | 0x0030   |
| Data Size       | 31 bytes |
| Calculated Size | 31 bytes |
| Instructions    | 11       |

```
      00 01 02 03 04 05 06 07  08 09 0A 0B 0C 0D 0E 0F
      -- -- -- -- -- -- -- --  -- -- -- -- -- -- -- --
0030: 79 00 52 E0 0E 01 F0 FF  FF 7F 1D 02 80 23 1D 03  y.R..........#..
0040: 80 23 1D 04 80 23 7B 52  E0 0E 01 20 00 21 00     .#...#{R... .!. 
```

## Opcodes

```
  0: 0x0030 [0x79] Zabirego-Hajigo (ID: 17752146/0x010EE052) looks at LocalPlayer (Basic look)
  1: 0x003A [0x1D] PRINT_EVENT_MESSAGE(message_id=8897*)
    → "It took us twenty long years to restore our town, and just when we think we have it good, along come the rumors of war again...\u007F1\u0000\u0007"
  2: 0x003D [0x23] WAIT_FOR_DIALOG_INTERACTION
  3: 0x003E [0x1D] PRINT_EVENT_MESSAGE(message_id=8898*)
    → "Don't tell me we need to sacrifice the lives of so many mages...not to mention the innocent lives of our wee children...?\u007F1\u0000\u0007"
  4: 0x0041 [0x23] WAIT_FOR_DIALOG_INTERACTION
  5: 0x0042 [0x1D] PRINT_EVENT_MESSAGE(message_id=8899*)
    → "If it takes some tribute offerings to the Yagudo to avoid a full-blown war, then I'm happy to offer it to them.\u007F1\u0000\u0007"
  6: 0x0045 [0x23] WAIT_FOR_DIALOG_INTERACTION
  7: 0x0046 [0x7B] Zabirego-Hajigo (ID: 17752146/0x010EE052) stops talking
  8: 0x004B [0x20] SET_CLI_EVENT_UC_FLAG: Unlock player control
  9: 0x004D [0x21] END_EVENT
 10: 0x004E [0x00] END_REQSTACK()
```
