# Event 688

## Metadata

| Field           | Value    |
|-----------------|----------|
| Event Index     | 6/15     |
| Offset          | 0x004F   |
| Data Size       | 31 bytes |
| Calculated Size | 31 bytes |
| Instructions    | 11       |

```
      00 01 02 03 04 05 06 07  08 09 0A 0B 0C 0D 0E 0F
      -- -- -- -- -- -- -- --  -- -- -- -- -- -- -- --
0040:                                               79                 y
0050: 00 52 E0 0E 01 F0 FF FF  7F 1D 05 80 23 1D 06 80  .R..........#...
0060: 23 1D 07 80 23 7B 52 E0  0E 01 20 00 21 00        #...#{R... .!.  
```

## Opcodes

```
  0: 0x004F [0x79] Zabirego-Hajigo (ID: 17752146/0x010EE052) looks at LocalPlayer (Basic look)
  1: 0x0059 [0x1D] PRINT_EVENT_MESSAGE(message_id=9209*)
    → "\u0008? Hmm...\u0007Sorry, but I never heard that name before.\u007F1\u0000\u0007"
  2: 0x005C [0x23] WAIT_FOR_DIALOG_INTERACTION
  3: 0x005D [0x1D] PRINT_EVENT_MESSAGE(message_id=9210*)
    → "Try doing some missions for Windurst. Bust you britches, and everybody'll know who you are.\u007F1\u0000\u0007"
  4: 0x0060 [0x23] WAIT_FOR_DIALOG_INTERACTION
  5: 0x0061 [0x1D] PRINT_EVENT_MESSAGE(message_id=9211*)
    → "That's when the real work starts rolling in. People won't trust you unless you give them something to trust.\u007F1\u0000\u0007"
  6: 0x0064 [0x23] WAIT_FOR_DIALOG_INTERACTION
  7: 0x0065 [0x7B] Zabirego-Hajigo (ID: 17752146/0x010EE052) stops talking
  8: 0x006A [0x20] SET_CLI_EVENT_UC_FLAG: Unlock player control
  9: 0x006C [0x21] END_EVENT
 10: 0x006D [0x00] END_REQSTACK()
```
