# 17010901 - Gowam

## Common Data

| Field            | Value                 |
|------------------|-----------------------|
| Zone             | Talacca Cove (ID: 57) |
| Block Size       | 264 bytes             |
| Total Events     | 7                     |
| References Count | 27                    |

## List of Events

| Event ID                 | Entrypoint   |   Size |   Instructions |
|--------------------------|--------------|--------|----------------|
| [65535](#event-65535)    | 0x0000       |      1 |              1 |
| [3](#event-3)            | 0x0001       |      1 |              1 |
| [65535.1](#event-655351) | 0x0002       |     28 |              6 |
| [65535.2](#event-655352) | 0x001E       |     28 |              6 |
| [65535.3](#event-655353) | 0x003A       |     14 |              4 |
| [65535.4](#event-655354) | 0x0048       |     15 |              3 |
| [65535.5](#event-655355) | 0x0057       |     23 |              5 |

## DAT References (imed_data)

|   Index | Hex Value   |   Dec Value |
|---------|-------------|-------------|
|       0 | 0x3540      |       13632 |
|       1 | 0x2E0E9     |      188649 |
|       2 | 0xFFFFFD66  |  4294966630 |
|       3 | 0x03E8      |        1000 |
|       4 | 0x000D      |          13 |
|       5 | 0x1DE8      |        7656 |
|       6 | 0x2D5AA     |      185770 |
|       7 | 0xFFFFFD50  |  4294966608 |
|       8 | 0x3480      |       13440 |
|       9 | 0x2D90A     |      186634 |
|      10 | 0xFFFFFD69  |  4294966633 |
|      11 | 0x014E      |         334 |
|      12 | 0x4795      |       18325 |
|      13 | 0x2CE74     |      183924 |
|      14 | 0xFFFFFE59  |  4294966873 |
|      15 | 0x0028      |          40 |
|      16 | 0x4868      |       18536 |
|      17 | 0x2C072     |      180338 |
|      18 | 0xFFFFFE36  |  4294966838 |
|      19 | 0x0828      |        2088 |
|      20 | 0x6588      |       25992 |
|      21 | 0x2B49B     |      177307 |
|      22 | 0xFFFFFE2D  |  4294966829 |
|      23 | 0x0B23      |        2851 |
|      24 | 0x4A1A      |       18970 |
|      25 | 0x2E249     |      189001 |
|      26 | 0xFFFFFE79  |  4294966905 |

## Events

### Event 65535

#### Metadata

| Field        | Value   |
|--------------|---------|
| Entrypoint   | 0x0000  |
| Data Size    | 1 bytes |
| Instructions | 1       |

```
      00 01 02 03 04 05 06 07  08 09 0A 0B 0C 0D 0E 0F
      -- -- -- -- -- -- -- --  -- -- -- -- -- -- -- --
0000: 00                                                .               
```

#### Opcodes

```
  0: 0x0000 [0x00] END_REQSTACK()
```

### Event 3

#### Metadata

| Field        | Value   |
|--------------|---------|
| Entrypoint   | 0x0001  |
| Data Size    | 1 bytes |
| Instructions | 1       |

```
      00 01 02 03 04 05 06 07  08 09 0A 0B 0C 0D 0E 0F
      -- -- -- -- -- -- -- --  -- -- -- -- -- -- -- --
0000:    00                                              .              
```

#### Opcodes

```
  0: 0x0001 [0x00] END_REQSTACK()
```

### Event 65535.1

#### Metadata

| Field        | Value    |
|--------------|----------|
| Entrypoint   | 0x0002   |
| Data Size    | 28 bytes |
| Instructions | 6        |

```
      00 01 02 03 04 05 06 07  08 09 0A 0B 0C 0D 0E 0F
      -- -- -- -- -- -- -- --  -- -- -- -- -- -- -- --
0000:       37 00 80 01 80 02  80 03 80 1E D3 90 03 01    7.............
0010: 32 04 80 1F 00 05 80 06  80 07 80 1F 01 00        2.............  
```

#### Opcodes

```
  0: 0x0002 [0x37] UPDATE_EVENT_POSITION_AND_DIR: x=13.632*, z=188.649*, y=-0.666*, direction=87.9째*
  1: 0x000B [0x1E] EventEntity looks at Wasuhd (ID: 17010899/0x010390D3) and starts talking
  2: 0x0010 [0x32] ExtData[1]->MainSpeed = 13* * 0.1
  3: 0x0013 [0x1F] MOVE_ENTITY: EventEntity moves to X=7.656*, Z=185.770*, Y=-0.688*
  4: 0x001B [0x1F] MOVE_ENTITY: Update entity position (mode=1)
  5: 0x001D [0x00] END_REQSTACK()
```

### Event 65535.2

#### Metadata

| Field        | Value    |
|--------------|----------|
| Entrypoint   | 0x001E   |
| Data Size    | 28 bytes |
| Instructions | 6        |

```
      00 01 02 03 04 05 06 07  08 09 0A 0B 0C 0D 0E 0F
      -- -- -- -- -- -- -- --  -- -- -- -- -- -- -- --
0010:                                            37 08                7.
0020: 80 09 80 0A 80 0B 80 32  04 80 1F 00 0C 80 0D 80  .......2........
0030: 0E 80 1F 01 1E D3 90 03  01 00                    ..........      
```

#### Opcodes

```
  0: 0x001E [0x37] UPDATE_EVENT_POSITION_AND_DIR: x=13.440*, z=186.634*, y=-0.663*, direction=29.4째*
  1: 0x0027 [0x32] ExtData[1]->MainSpeed = 13* * 0.1
  2: 0x002A [0x1F] MOVE_ENTITY: EventEntity moves to X=18.325*, Z=183.924*, Y=-0.423*
  3: 0x0032 [0x1F] MOVE_ENTITY: Update entity position (mode=1)
  4: 0x0034 [0x1E] EventEntity looks at Wasuhd (ID: 17010899/0x010390D3) and starts talking
  5: 0x0039 [0x00] END_REQSTACK()
```

### Event 65535.3

#### Metadata

| Field        | Value    |
|--------------|----------|
| Entrypoint   | 0x003A   |
| Data Size    | 14 bytes |
| Instructions | 4        |

```
      00 01 02 03 04 05 06 07  08 09 0A 0B 0C 0D 0E 0F
      -- -- -- -- -- -- -- --  -- -- -- -- -- -- -- --
0030:                                32 0F 80 1F 00 10            2.....
0040: 80 11 80 12 80 1F 01 00                           ........        
```

#### Opcodes

```
  0: 0x003A [0x32] ExtData[1]->MainSpeed = 40* * 0.1
  1: 0x003D [0x1F] MOVE_ENTITY: EventEntity moves to X=18.536*, Z=180.338*, Y=-0.458*
  2: 0x0045 [0x1F] MOVE_ENTITY: Update entity position (mode=1)
  3: 0x0047 [0x00] END_REQSTACK()
```

### Event 65535.4

#### Metadata

| Field        | Value    |
|--------------|----------|
| Entrypoint   | 0x0048   |
| Data Size    | 15 bytes |
| Instructions | 3        |

```
      00 01 02 03 04 05 06 07  08 09 0A 0B 0C 0D 0E 0F
      -- -- -- -- -- -- -- --  -- -- -- -- -- -- -- --
0040:                          37 10 80 11 80 12 80 13          7.......
0050: 80 1E D3 90 03 01 00                              .......         
```

#### Opcodes

```
  0: 0x0048 [0x37] UPDATE_EVENT_POSITION_AND_DIR: x=18.536*, z=180.338*, y=-0.458*, direction=183.5째*
  1: 0x0051 [0x1E] EventEntity looks at Wasuhd (ID: 17010899/0x010390D3) and starts talking
  2: 0x0056 [0x00] END_REQSTACK()
```

### Event 65535.5

#### Metadata

| Field        | Value    |
|--------------|----------|
| Entrypoint   | 0x0057   |
| Data Size    | 23 bytes |
| Instructions | 5        |

```
      00 01 02 03 04 05 06 07  08 09 0A 0B 0C 0D 0E 0F
      -- -- -- -- -- -- -- --  -- -- -- -- -- -- -- --
0050:                      37  14 80 15 80 16 80 17 80         7........
0060: 32 0F 80 1F 00 18 80 19  80 1A 80 1F 01 00        2.............  
```

#### Opcodes

```
  0: 0x0057 [0x37] UPDATE_EVENT_POSITION_AND_DIR: x=25.992*, z=177.307*, y=-0.467*, direction=250.6째*
  1: 0x0060 [0x32] ExtData[1]->MainSpeed = 40* * 0.1
  2: 0x0063 [0x1F] MOVE_ENTITY: EventEntity moves to X=18.970*, Z=189.001*, Y=-0.391*
  3: 0x006B [0x1F] MOVE_ENTITY: Update entity position (mode=1)
  4: 0x006D [0x00] END_REQSTACK()
```
