# 17010900 - Yazquhl

## Common Data

| Field            | Value                 |
|------------------|-----------------------|
| Zone             | Talacca Cove (ID: 57) |
| Block Size       | 348 bytes             |
| Total Events     | 10                    |
| References Count | 29                    |

## List of Events

| Event ID                 | Entrypoint   |   Size |   Instructions |
|--------------------------|--------------|--------|----------------|
| [65535](#event-65535)    | 0x0000       |      1 |              1 |
| [3](#event-3)            | 0x0001       |      1 |              1 |
| [65535.1](#event-655351) | 0x0002       |     10 |              2 |
| [65535.2](#event-655352) | 0x000C       |     28 |              6 |
| [65535.3](#event-655353) | 0x0028       |     10 |              2 |
| [65535.4](#event-655354) | 0x0032       |     29 |              3 |
| [65535.5](#event-655355) | 0x004F       |     29 |              3 |
| [65535.6](#event-655356) | 0x006C       |     21 |              2 |
| [65535.7](#event-655357) | 0x0081       |     21 |              2 |
| [65535.8](#event-655358) | 0x0096       |     23 |              5 |

## DAT References (imed_data)

|   Index | Hex Value   |   Dec Value |
|---------|-------------|-------------|
|       0 | 0x25B2      |        9650 |
|       1 | 0x2DFC0     |      188352 |
|       2 | 0xFFFFFDC4  |  4294966724 |
|       3 | 0x076C      |        1900 |
|       4 | 0x2816      |       10262 |
|       5 | 0x2D70D     |      186125 |
|       6 | 0xFFFFFCCF  |  4294966479 |
|       7 | 0x0F14      |        3860 |
|       8 | 0x000D      |          13 |
|       9 | 0x1DE2      |        7650 |
|      10 | 0x2CF2F     |      184111 |
|      11 | 0xFFFFFCAC  |  4294966444 |
|      12 | 0x3DBE      |       15806 |
|      13 | 0x2C684     |      181892 |
|      14 | 0xFFFFFDD9  |  4294966745 |
|      15 | 0x034E      |         846 |
|      16 | 0x0001      |           1 |
|      17 | 0x000A      |          10 |
|      18 | 0x0000      |           0 |
|      19 | 0x009F      |         159 |
|      20 | 0x011A      |         282 |
|      21 | 0x59D1      |       22993 |
|      22 | 0x2B707     |      177927 |
|      23 | 0xFFFFFE7F  |  4294966911 |
|      24 | 0x0C0B      |        3083 |
|      25 | 0x0028      |          40 |
|      26 | 0x3F64      |       16228 |
|      27 | 0x2E625     |      189989 |
|      28 | 0xFFFFFDFB  |  4294966779 |

## Events

### Event 65535

#### Metadata

| Field        | Value   |
|--------------|---------|
| Entrypoint   | 0x0000  |
| Data Size    | 1 bytes |
| Instructions | 1       |

```
      00 01 02 03 04 05 06 07  08 09 0A 0B 0C 0D 0E 0F
      -- -- -- -- -- -- -- --  -- -- -- -- -- -- -- --
0000: 00                                                .               
```

#### Opcodes

```
  0: 0x0000 [0x00] END_REQSTACK()
```

### Event 3

#### Metadata

| Field        | Value   |
|--------------|---------|
| Entrypoint   | 0x0001  |
| Data Size    | 1 bytes |
| Instructions | 1       |

```
      00 01 02 03 04 05 06 07  08 09 0A 0B 0C 0D 0E 0F
      -- -- -- -- -- -- -- --  -- -- -- -- -- -- -- --
0000:    00                                              .              
```

#### Opcodes

```
  0: 0x0001 [0x00] END_REQSTACK()
```

### Event 65535.1

#### Metadata

| Field        | Value    |
|--------------|----------|
| Entrypoint   | 0x0002   |
| Data Size    | 10 bytes |
| Instructions | 2        |

```
      00 01 02 03 04 05 06 07  08 09 0A 0B 0C 0D 0E 0F
      -- -- -- -- -- -- -- --  -- -- -- -- -- -- -- --
0000:       37 00 80 01 80 02  80 03 80 00                7.........    
```

#### Opcodes

```
  0: 0x0002 [0x37] UPDATE_EVENT_POSITION_AND_DIR: x=9.650*, z=188.352*, y=-0.572*, direction=167.0째*
  1: 0x000B [0x00] END_REQSTACK()
```

### Event 65535.2

#### Metadata

| Field        | Value    |
|--------------|----------|
| Entrypoint   | 0x000C   |
| Data Size    | 28 bytes |
| Instructions | 6        |

```
      00 01 02 03 04 05 06 07  08 09 0A 0B 0C 0D 0E 0F
      -- -- -- -- -- -- -- --  -- -- -- -- -- -- -- --
0000:                                      37 04 80 05              7...
0010: 80 06 80 07 80 32 08 80  1F 00 09 80 0A 80 0B 80  .....2..........
0020: 1F 01 1E D3 90 03 01 00                           ........        
```

#### Opcodes

```
  0: 0x000C [0x37] UPDATE_EVENT_POSITION_AND_DIR: x=10.262*, z=186.125*, y=-0.817*, direction=339.2째*
  1: 0x0015 [0x32] ExtData[1]->MainSpeed = 13* * 0.1
  2: 0x0018 [0x1F] MOVE_ENTITY: EventEntity moves to X=7.650*, Z=184.111*, Y=-0.852*
  3: 0x0020 [0x1F] MOVE_ENTITY: Update entity position (mode=1)
  4: 0x0022 [0x1E] EventEntity looks at Wasuhd (ID: 17010899/0x010390D3) and starts talking
  5: 0x0027 [0x00] END_REQSTACK()
```

### Event 65535.3

#### Metadata

| Field        | Value    |
|--------------|----------|
| Entrypoint   | 0x0028   |
| Data Size    | 10 bytes |
| Instructions | 2        |

```
      00 01 02 03 04 05 06 07  08 09 0A 0B 0C 0D 0E 0F
      -- -- -- -- -- -- -- --  -- -- -- -- -- -- -- --
0020:                          37 0C 80 0D 80 0E 80 03          7.......
0030: 80 00                                             ..              
```

#### Opcodes

```
  0: 0x0028 [0x37] UPDATE_EVENT_POSITION_AND_DIR: x=15.806*, z=181.892*, y=-0.551*, direction=167.0째*
  1: 0x0031 [0x00] END_REQSTACK()
```

### Event 65535.4

#### Metadata

| Field        | Value    |
|--------------|----------|
| Entrypoint   | 0x0032   |
| Data Size    | 29 bytes |
| Instructions | 3        |

```
      00 01 02 03 04 05 06 07  08 09 0A 0B 0C 0D 0E 0F
      -- -- -- -- -- -- -- --  -- -- -- -- -- -- -- --
0030:       5B 0F 80 D4 90 03  01 D4 90 03 01 63 72 30    [..........cr0
0040: 32 53 D4 90 03 01 D4 90  03 01 63 72 30 32 00     2S........cr02. 
```

#### Opcodes

```
  0: 0x0032 [0x5B] LOAD_EXT_SCHEDULER: Load scheduler "cr02" with entities [Yazquhl (ID: 17010900/0x010390D4), Yazquhl (ID: 17010900/0x010390D4)], work=846*
  1: 0x0041 [0x53] WAIT_SCHEDULER_TASK: Wait for scheduler "cr02" with entities [Yazquhl (ID: 17010900/0x010390D4), Yazquhl (ID: 17010900/0x010390D4)]
  2: 0x004E [0x00] END_REQSTACK()
```

### Event 65535.5

#### Metadata

| Field        | Value    |
|--------------|----------|
| Entrypoint   | 0x004F   |
| Data Size    | 29 bytes |
| Instructions | 3        |

```
      00 01 02 03 04 05 06 07  08 09 0A 0B 0C 0D 0E 0F
      -- -- -- -- -- -- -- --  -- -- -- -- -- -- -- --
0040:                                               5B                 [
0050: 0F 80 D4 90 03 01 D4 90  03 01 63 72 30 33 53 D4  ..........cr03S.
0060: 90 03 01 D4 90 03 01 63  72 30 33 00              .......cr03.    
```

#### Opcodes

```
  0: 0x004F [0x5B] LOAD_EXT_SCHEDULER: Load scheduler "cr03" with entities [Yazquhl (ID: 17010900/0x010390D4), Yazquhl (ID: 17010900/0x010390D4)], work=846*
  1: 0x005E [0x53] WAIT_SCHEDULER_TASK: Wait for scheduler "cr03" with entities [Yazquhl (ID: 17010900/0x010390D4), Yazquhl (ID: 17010900/0x010390D4)]
  2: 0x006B [0x00] END_REQSTACK()
```

### Event 65535.6

#### Metadata

| Field        | Value    |
|--------------|----------|
| Entrypoint   | 0x006C   |
| Data Size    | 21 bytes |
| Instructions | 2        |

```
      00 01 02 03 04 05 06 07  08 09 0A 0B 0C 0D 0E 0F
      -- -- -- -- -- -- -- --  -- -- -- -- -- -- -- --
0060:                                      B6 0B 10 80              ....
0070: 11 80 12 80 13 80 13 80  13 80 13 80 12 80 12 80  ................
0080: 00                                                .               
```

#### Opcodes

```
  0: 0x006C [0xB6] ENTITY_APPEARANCE_HANDLER(case=Full entity look, race=1*, hair=10*, head=0*, body=159*, hands=159*, legs=159*, feet=159*, main=0*, sub=0*)
  1: 0x0080 [0x00] END_REQSTACK()
```

### Event 65535.7

#### Metadata

| Field        | Value    |
|--------------|----------|
| Entrypoint   | 0x0081   |
| Data Size    | 21 bytes |
| Instructions | 2        |

```
      00 01 02 03 04 05 06 07  08 09 0A 0B 0C 0D 0E 0F
      -- -- -- -- -- -- -- --  -- -- -- -- -- -- -- --
0080:    B6 0B 10 80 11 80 12  80 13 80 13 80 13 80 13   ...............
0090: 80 14 80 12 80 00                                 ......          
```

#### Opcodes

```
  0: 0x0081 [0xB6] ENTITY_APPEARANCE_HANDLER(case=Full entity look, race=1*, hair=10*, head=0*, body=159*, hands=159*, legs=159*, feet=159*, main=282*, sub=0*)
  1: 0x0095 [0x00] END_REQSTACK()
```

### Event 65535.8

#### Metadata

| Field        | Value    |
|--------------|----------|
| Entrypoint   | 0x0096   |
| Data Size    | 23 bytes |
| Instructions | 5        |

```
      00 01 02 03 04 05 06 07  08 09 0A 0B 0C 0D 0E 0F
      -- -- -- -- -- -- -- --  -- -- -- -- -- -- -- --
0090:                   37 15  80 16 80 17 80 18 80 32        7........2
00A0: 19 80 1F 00 1A 80 1B 80  1C 80 1F 01 00           .............   
```

#### Opcodes

```
  0: 0x0096 [0x37] UPDATE_EVENT_POSITION_AND_DIR: x=22.993*, z=177.927*, y=-0.385*, direction=271.0째*
  1: 0x009F [0x32] ExtData[1]->MainSpeed = 40* * 0.1
  2: 0x00A2 [0x1F] MOVE_ENTITY: EventEntity moves to X=16.228*, Z=189.989*, Y=-0.517*
  3: 0x00AA [0x1F] MOVE_ENTITY: Update entity position (mode=1)
  4: 0x00AC [0x00] END_REQSTACK()
```
