# 17010899 - Wasuhd

## Common Data

| Field            | Value                 |
|------------------|-----------------------|
| Zone             | Talacca Cove (ID: 57) |
| Block Size       | 568 bytes             |
| Total Events     | 18                    |
| References Count | 31                    |

## List of Events

| Event ID                   | Entrypoint   |   Size |   Instructions |
|----------------------------|--------------|--------|----------------|
| [65535](#event-65535)      | 0x0000       |      1 |              1 |
| [2](#event-2)              | 0x0001       |      1 |              1 |
| [65535.1](#event-655351)   | 0x0002       |     10 |              2 |
| [65535.2](#event-655352)   | 0x000C       |      4 |              2 |
| [3](#event-3)              | 0x0010       |      1 |              1 |
| [65535.3](#event-655353)   | 0x0011       |     10 |              2 |
| [65535.4](#event-655354)   | 0x001B       |     29 |              3 |
| [65535.5](#event-655355)   | 0x0038       |     29 |              3 |
| [65535.6](#event-655356)   | 0x0055       |     38 |              4 |
| [65535.7](#event-655357)   | 0x007B       |     34 |              4 |
| [65535.8](#event-655358)   | 0x009D       |     29 |              3 |
| [65535.9](#event-655359)   | 0x00BA       |     29 |              3 |
| [65535.10](#event-6553510) | 0x00D7       |     10 |              2 |
| [65535.11](#event-6553511) | 0x00E1       |     19 |              5 |
| [65535.12](#event-6553512) | 0x00F4       |     29 |              3 |
| [65535.13](#event-6553513) | 0x0111       |     29 |              3 |
| [65535.14](#event-6553514) | 0x012E       |     29 |              3 |
| [65535.15](#event-6553515) | 0x014B       |     23 |              5 |

## DAT References (imed_data)

|   Index | Hex Value   |   Dec Value |
|---------|-------------|-------------|
|       0 | 0xFFFF0DE1  |  4294905313 |
|       1 | 0xFFFDCE7C  |  4294823548 |
|       2 | 0xFFFFE34D  |  4294959949 |
|       3 | 0x082A      |        2090 |
|       4 | 0x08FC      |        2300 |
|       5 | 0x1A27      |        6695 |
|       6 | 0x2CD11     |      183569 |
|       7 | 0xFFFFFD38  |  4294966584 |
|       8 | 0x0F14      |        3860 |
|       9 | 0x004D      |          77 |
|      10 | 0x3728      |       14120 |
|      11 | 0x2C578     |      181624 |
|      12 | 0xFFFFFD76  |  4294966646 |
|      13 | 0x0966      |        2406 |
|      14 | 0x004C      |          76 |
|      15 | 0x4B9D      |       19357 |
|      16 | 0x2BA1C     |      178716 |
|      17 | 0xFFFFFE4D  |  4294966861 |
|      18 | 0x0557      |        1367 |
|      19 | 0x0028      |          40 |
|      20 | 0x185B      |        6235 |
|      21 | 0x2986A     |      170090 |
|      22 | 0x0064      |         100 |
|      23 | 0x4DC3      |       19907 |
|      24 | 0x2B4BF     |      177343 |
|      25 | 0xFFFFFE5C  |  4294966876 |
|      26 | 0x0324      |         804 |
|      27 | 0x000D      |          13 |
|      28 | 0x63F8      |       25592 |
|      29 | 0x298F7     |      170231 |
|      30 | 0xFFFFFDE9  |  4294966761 |

## Events

### Event 65535

#### Metadata

| Field        | Value   |
|--------------|---------|
| Entrypoint   | 0x0000  |
| Data Size    | 1 bytes |
| Instructions | 1       |

```
      00 01 02 03 04 05 06 07  08 09 0A 0B 0C 0D 0E 0F
      -- -- -- -- -- -- -- --  -- -- -- -- -- -- -- --
0000: 00                                                .               
```

#### Opcodes

```
  0: 0x0000 [0x00] END_REQSTACK()
```

### Event 2

#### Metadata

| Field        | Value   |
|--------------|---------|
| Entrypoint   | 0x0001  |
| Data Size    | 1 bytes |
| Instructions | 1       |

```
      00 01 02 03 04 05 06 07  08 09 0A 0B 0C 0D 0E 0F
      -- -- -- -- -- -- -- --  -- -- -- -- -- -- -- --
0000:    00                                              .              
```

#### Opcodes

```
  0: 0x0001 [0x00] END_REQSTACK()
```

### Event 65535.1

#### Metadata

| Field        | Value    |
|--------------|----------|
| Entrypoint   | 0x0002   |
| Data Size    | 10 bytes |
| Instructions | 2        |

```
      00 01 02 03 04 05 06 07  08 09 0A 0B 0C 0D 0E 0F
      -- -- -- -- -- -- -- --  -- -- -- -- -- -- -- --
0000:       37 00 80 01 80 02  80 03 80 00                7.........    
```

#### Opcodes

```
  0: 0x0002 [0x37] UPDATE_EVENT_POSITION_AND_DIR: x=-61.983*, z=-143.748*, y=-7.347*, direction=183.7°*
  1: 0x000B [0x00] END_REQSTACK()
```

### Event 65535.2

#### Metadata

| Field        | Value   |
|--------------|---------|
| Entrypoint   | 0x000C  |
| Data Size    | 4 bytes |
| Instructions | 2       |

```
      00 01 02 03 04 05 06 07  08 09 0A 0B 0C 0D 0E 0F
      -- -- -- -- -- -- -- --  -- -- -- -- -- -- -- --
0000:                                      39 04 80 00              9...
```

#### Opcodes

```
  0: 0x000C [0x39] SET_ENTITY_DIRECTION(direction=12.6°*)
  1: 0x000F [0x00] END_REQSTACK()
```

### Event 3

#### Metadata

| Field        | Value   |
|--------------|---------|
| Entrypoint   | 0x0010  |
| Data Size    | 1 bytes |
| Instructions | 1       |

```
      00 01 02 03 04 05 06 07  08 09 0A 0B 0C 0D 0E 0F
      -- -- -- -- -- -- -- --  -- -- -- -- -- -- -- --
0010: 00                                                .               
```

#### Opcodes

```
  0: 0x0010 [0x00] END_REQSTACK()
```

### Event 65535.3

#### Metadata

| Field        | Value    |
|--------------|----------|
| Entrypoint   | 0x0011   |
| Data Size    | 10 bytes |
| Instructions | 2        |

```
      00 01 02 03 04 05 06 07  08 09 0A 0B 0C 0D 0E 0F
      -- -- -- -- -- -- -- --  -- -- -- -- -- -- -- --
0010:    37 05 80 06 80 07 80  08 80 00                  7.........     
```

#### Opcodes

```
  0: 0x0011 [0x37] UPDATE_EVENT_POSITION_AND_DIR: x=6.695*, z=183.569*, y=-0.712*, direction=339.2°*
  1: 0x001A [0x00] END_REQSTACK()
```

### Event 65535.4

#### Metadata

| Field        | Value    |
|--------------|----------|
| Entrypoint   | 0x001B   |
| Data Size    | 29 bytes |
| Instructions | 3        |

```
      00 01 02 03 04 05 06 07  08 09 0A 0B 0C 0D 0E 0F
      -- -- -- -- -- -- -- --  -- -- -- -- -- -- -- --
0010:                                   5B 09 80 D3 90             [....
0020: 03 01 D3 90 03 01 66 72  69 30 53 D3 90 03 01 D3  ......fri0S.....
0030: 90 03 01 66 72 69 30 00                           ...fri0.        
```

#### Opcodes

```
  0: 0x001B [0x5B] LOAD_EXT_SCHEDULER: Load scheduler "fri0" with entities [Wasuhd (ID: 17010899/0x010390D3), Wasuhd (ID: 17010899/0x010390D3)], work=77*
  1: 0x002A [0x53] WAIT_SCHEDULER_TASK: Wait for scheduler "fri0" with entities [Wasuhd (ID: 17010899/0x010390D3), Wasuhd (ID: 17010899/0x010390D3)]
  2: 0x0037 [0x00] END_REQSTACK()
```

### Event 65535.5

#### Metadata

| Field        | Value    |
|--------------|----------|
| Entrypoint   | 0x0038   |
| Data Size    | 29 bytes |
| Instructions | 3        |

```
      00 01 02 03 04 05 06 07  08 09 0A 0B 0C 0D 0E 0F
      -- -- -- -- -- -- -- --  -- -- -- -- -- -- -- --
0030:                          5B 09 80 D3 90 03 01 D3          [.......
0040: 90 03 01 6F 64 6F 30 53  D3 90 03 01 D3 90 03 01  ...odo0S........
0050: 6F 64 6F 30 00                                    odo0.           
```

#### Opcodes

```
  0: 0x0038 [0x5B] LOAD_EXT_SCHEDULER: Load scheduler "odo0" with entities [Wasuhd (ID: 17010899/0x010390D3), Wasuhd (ID: 17010899/0x010390D3)], work=77*
  1: 0x0047 [0x53] WAIT_SCHEDULER_TASK: Wait for scheduler "odo0" with entities [Wasuhd (ID: 17010899/0x010390D3), Wasuhd (ID: 17010899/0x010390D3)]
  2: 0x0054 [0x00] END_REQSTACK()
```

### Event 65535.6

#### Metadata

| Field        | Value    |
|--------------|----------|
| Entrypoint   | 0x0055   |
| Data Size    | 38 bytes |
| Instructions | 4        |

```
      00 01 02 03 04 05 06 07  08 09 0A 0B 0C 0D 0E 0F
      -- -- -- -- -- -- -- --  -- -- -- -- -- -- -- --
0050:                37 0A 80  0B 80 0C 80 0D 80 5B 09       7........[.
0060: 80 D3 90 03 01 D3 90 03  01 6F 64 6F 30 53 D3 90  .........odo0S..
0070: 03 01 D3 90 03 01 6F 64  6F 30 00                 ......odo0.     
```

#### Opcodes

```
  0: 0x0055 [0x37] UPDATE_EVENT_POSITION_AND_DIR: x=14.120*, z=181.624*, y=-0.650*, direction=211.5°*
  1: 0x005E [0x5B] LOAD_EXT_SCHEDULER: Load scheduler "odo0" with entities [Wasuhd (ID: 17010899/0x010390D3), Wasuhd (ID: 17010899/0x010390D3)], work=77*
  2: 0x006D [0x53] WAIT_SCHEDULER_TASK: Wait for scheduler "odo0" with entities [Wasuhd (ID: 17010899/0x010390D3), Wasuhd (ID: 17010899/0x010390D3)]
  3: 0x007A [0x00] END_REQSTACK()
```

### Event 65535.7

#### Metadata

| Field        | Value    |
|--------------|----------|
| Entrypoint   | 0x007B   |
| Data Size    | 34 bytes |
| Instructions | 4        |

```
      00 01 02 03 04 05 06 07  08 09 0A 0B 0C 0D 0E 0F
      -- -- -- -- -- -- -- --  -- -- -- -- -- -- -- --
0070:                                   7B D3 90 03 01             {....
0080: 5B 09 80 D3 90 03 01 D3  90 03 01 67 75 6E 30 53  [..........gun0S
0090: D3 90 03 01 D3 90 03 01  67 75 6E 30 00           ........gun0.   
```

#### Opcodes

```
  0: 0x007B [0x7B] Wasuhd (ID: 17010899/0x010390D3) stops talking
  1: 0x0080 [0x5B] LOAD_EXT_SCHEDULER: Load scheduler "gun0" with entities [Wasuhd (ID: 17010899/0x010390D3), Wasuhd (ID: 17010899/0x010390D3)], work=77*
  2: 0x008F [0x53] WAIT_SCHEDULER_TASK: Wait for scheduler "gun0" with entities [Wasuhd (ID: 17010899/0x010390D3), Wasuhd (ID: 17010899/0x010390D3)]
  3: 0x009C [0x00] END_REQSTACK()
```

### Event 65535.8

#### Metadata

| Field        | Value    |
|--------------|----------|
| Entrypoint   | 0x009D   |
| Data Size    | 29 bytes |
| Instructions | 3        |

```
      00 01 02 03 04 05 06 07  08 09 0A 0B 0C 0D 0E 0F
      -- -- -- -- -- -- -- --  -- -- -- -- -- -- -- --
0090:                                         5B 09 80               [..
00A0: D3 90 03 01 D3 90 03 01  67 75 6E 31 53 D3 90 03  ........gun1S...
00B0: 01 D3 90 03 01 67 75 6E  31 00                    .....gun1.      
```

#### Opcodes

```
  0: 0x009D [0x5B] LOAD_EXT_SCHEDULER: Load scheduler "gun1" with entities [Wasuhd (ID: 17010899/0x010390D3), Wasuhd (ID: 17010899/0x010390D3)], work=77*
  1: 0x00AC [0x53] WAIT_SCHEDULER_TASK: Wait for scheduler "gun1" with entities [Wasuhd (ID: 17010899/0x010390D3), Wasuhd (ID: 17010899/0x010390D3)]
  2: 0x00B9 [0x00] END_REQSTACK()
```

### Event 65535.9

#### Metadata

| Field        | Value    |
|--------------|----------|
| Entrypoint   | 0x00BA   |
| Data Size    | 29 bytes |
| Instructions | 3        |

```
      00 01 02 03 04 05 06 07  08 09 0A 0B 0C 0D 0E 0F
      -- -- -- -- -- -- -- --  -- -- -- -- -- -- -- --
00B0:                                5B 0E 80 D3 90 03            [.....
00C0: 01 D3 90 03 01 73 69 74  30 53 D4 90 03 01 D4 90  .....sit0S......
00D0: 03 01 73 69 74 30 00                              ..sit0.         
```

#### Opcodes

```
  0: 0x00BA [0x5B] LOAD_EXT_SCHEDULER: Load scheduler "sit0" with entities [Wasuhd (ID: 17010899/0x010390D3), Wasuhd (ID: 17010899/0x010390D3)], work=76*
  1: 0x00C9 [0x53] WAIT_SCHEDULER_TASK: Wait for scheduler "sit0" with entities [Yazquhl (ID: 17010900/0x010390D4), Yazquhl (ID: 17010900/0x010390D4)]
  2: 0x00D6 [0x00] END_REQSTACK()
```

### Event 65535.10

#### Metadata

| Field        | Value    |
|--------------|----------|
| Entrypoint   | 0x00D7   |
| Data Size    | 10 bytes |
| Instructions | 2        |

```
      00 01 02 03 04 05 06 07  08 09 0A 0B 0C 0D 0E 0F
      -- -- -- -- -- -- -- --  -- -- -- -- -- -- -- --
00D0:                      37  0F 80 10 80 11 80 12 80         7........
00E0: 00                                                .               
```

#### Opcodes

```
  0: 0x00D7 [0x37] UPDATE_EVENT_POSITION_AND_DIR: x=19.357*, z=178.716*, y=-0.435*, direction=120.1°*
  1: 0x00E0 [0x00] END_REQSTACK()
```

### Event 65535.11

#### Metadata

| Field        | Value    |
|--------------|----------|
| Entrypoint   | 0x00E1   |
| Data Size    | 19 bytes |
| Instructions | 5        |

```
      00 01 02 03 04 05 06 07  08 09 0A 0B 0C 0D 0E 0F
      -- -- -- -- -- -- -- --  -- -- -- -- -- -- -- --
00E0:    32 13 80 1F 00 14 80  15 80 16 80 1F 01 1E D4   2..............
00F0: 90 03 01 00                                       ....            
```

#### Opcodes

```
  0: 0x00E1 [0x32] ExtData[1]->MainSpeed = 40* * 0.1
  1: 0x00E4 [0x1F] MOVE_ENTITY: EventEntity moves to X=6.235*, Z=170.090*, Y=0.100*
  2: 0x00EC [0x1F] MOVE_ENTITY: Update entity position (mode=1)
  3: 0x00EE [0x1E] EventEntity looks at Yazquhl (ID: 17010900/0x010390D4) and starts talking
  4: 0x00F3 [0x00] END_REQSTACK()
```

### Event 65535.12

#### Metadata

| Field        | Value    |
|--------------|----------|
| Entrypoint   | 0x00F4   |
| Data Size    | 29 bytes |
| Instructions | 3        |

```
      00 01 02 03 04 05 06 07  08 09 0A 0B 0C 0D 0E 0F
      -- -- -- -- -- -- -- --  -- -- -- -- -- -- -- --
00F0:             5B 09 80 D3  90 03 01 D3 90 03 01 74      [..........t
0100: 72 65 31 53 D3 90 03 01  D3 90 03 01 74 72 65 31  re1S........tre1
0110: 00                                                .               
```

#### Opcodes

```
  0: 0x00F4 [0x5B] LOAD_EXT_SCHEDULER: Load scheduler "tre1" with entities [Wasuhd (ID: 17010899/0x010390D3), Wasuhd (ID: 17010899/0x010390D3)], work=77*
  1: 0x0103 [0x53] WAIT_SCHEDULER_TASK: Wait for scheduler "tre1" with entities [Wasuhd (ID: 17010899/0x010390D3), Wasuhd (ID: 17010899/0x010390D3)]
  2: 0x0110 [0x00] END_REQSTACK()
```

### Event 65535.13

#### Metadata

| Field        | Value    |
|--------------|----------|
| Entrypoint   | 0x0111   |
| Data Size    | 29 bytes |
| Instructions | 3        |

```
      00 01 02 03 04 05 06 07  08 09 0A 0B 0C 0D 0E 0F
      -- -- -- -- -- -- -- --  -- -- -- -- -- -- -- --
0110:    5B 09 80 D3 90 03 01  D3 90 03 01 6B 61 6E 30   [..........kan0
0120: 53 D3 90 03 01 D3 90 03  01 6B 61 6E 30 00        S........kan0.  
```

#### Opcodes

```
  0: 0x0111 [0x5B] LOAD_EXT_SCHEDULER: Load scheduler "kan0" with entities [Wasuhd (ID: 17010899/0x010390D3), Wasuhd (ID: 17010899/0x010390D3)], work=77*
  1: 0x0120 [0x53] WAIT_SCHEDULER_TASK: Wait for scheduler "kan0" with entities [Wasuhd (ID: 17010899/0x010390D3), Wasuhd (ID: 17010899/0x010390D3)]
  2: 0x012D [0x00] END_REQSTACK()
```

### Event 65535.14

#### Metadata

| Field        | Value    |
|--------------|----------|
| Entrypoint   | 0x012E   |
| Data Size    | 29 bytes |
| Instructions | 3        |

```
      00 01 02 03 04 05 06 07  08 09 0A 0B 0C 0D 0E 0F
      -- -- -- -- -- -- -- --  -- -- -- -- -- -- -- --
0120:                                            5B 09                [.
0130: 80 D3 90 03 01 D3 90 03  01 6B 61 6E 31 53 D3 90  .........kan1S..
0140: 03 01 D3 90 03 01 6B 61  6E 30 00                 ......kan0.     
```

#### Opcodes

```
  0: 0x012E [0x5B] LOAD_EXT_SCHEDULER: Load scheduler "kan1" with entities [Wasuhd (ID: 17010899/0x010390D3), Wasuhd (ID: 17010899/0x010390D3)], work=77*
  1: 0x013D [0x53] WAIT_SCHEDULER_TASK: Wait for scheduler "kan0" with entities [Wasuhd (ID: 17010899/0x010390D3), Wasuhd (ID: 17010899/0x010390D3)]
  2: 0x014A [0x00] END_REQSTACK()
```

### Event 65535.15

#### Metadata

| Field        | Value    |
|--------------|----------|
| Entrypoint   | 0x014B   |
| Data Size    | 23 bytes |
| Instructions | 5        |

```
      00 01 02 03 04 05 06 07  08 09 0A 0B 0C 0D 0E 0F
      -- -- -- -- -- -- -- --  -- -- -- -- -- -- -- --
0140:                                   37 17 80 18 80             7....
0150: 19 80 1A 80 32 1B 80 1F  00 1C 80 1D 80 1E 80 1F  ....2...........
0160: 01 00                                             ..              
```

#### Opcodes

```
  0: 0x014B [0x37] UPDATE_EVENT_POSITION_AND_DIR: x=19.907*, z=177.343*, y=-0.420*, direction=70.7°*
  1: 0x0154 [0x32] ExtData[1]->MainSpeed = 13* * 0.1
  2: 0x0157 [0x1F] MOVE_ENTITY: EventEntity moves to X=25.592*, Z=170.231*, Y=-0.535*
  3: 0x015F [0x1F] MOVE_ENTITY: Update entity position (mode=1)
  4: 0x0161 [0x00] END_REQSTACK()
```
