# Event 65535

## Metadata

| Field           | Value    |
|-----------------|----------|
| Event Index     | 7/15     |
| Offset          | 0x0083   |
| Data Size       | 92 bytes |
| Calculated Size | 92 bytes |
| Instructions    | 6        |

```
      00 01 02 03 04 05 06 07  08 09 0A 0B 0C 0D 0E 0F
      -- -- -- -- -- -- -- --  -- -- -- -- -- -- -- --
0080:          32 07 80 1F 00  08 80 09 80 02 80 1F 01     2............
0090: 1F 00 0A 80 0B 80 02 80  1F 01 00 3B F8 FF FF 7F  ...........;....
00A0: 01 00 02 00 03 00 3A F8  FF FF 7F 04 00 17 05 00  ......:.........
00B0: 04 00 00 00 16 06 00 04  00 00 00 07 01 00 05 00  ................
00C0: 07 02 00 06 00 1B 17 05  00 04 00 00 00 16 06 00  ................
00D0: 04 00 00 00 07 01 00 05  00 07 02 00 06 00 1B     ............... 
```

## Opcodes

```
  0: 0x0083 [0x32] ExtData[1]->MainSpeed = 40* * 0.1
  1: 0x0086 [0x1F] MOVE_ENTITY: EventEntity moves to X=-41.349*, Z=-42.737*, Y=-4.000*
  2: 0x008E [0x1F] MOVE_ENTITY: Update entity position (mode=1)
  3: 0x0090 [0x1F] MOVE_ENTITY: EventEntity moves to X=-41.583*, Z=-55.304*, Y=-4.000*
  4: 0x0098 [0x1F] MOVE_ENTITY: Update entity position (mode=1)
  5: 0x009A [0x00] END_REQSTACK()
```

## Data or dead code:

```
# Dead code (unreachable instructions):
     0x009B [0x3B] GET_ENTITY_POSITION(entity=EventEntity, x_destination=ExtData[1]->WorkLocal[1], y_destination=ExtData[1]->WorkLocal[2], z_destination=ExtData[1]->WorkLocal[3])
     0x00A6 [0x3A] CONVERT_YAW_TO_BYTE(entity=EventEntity, result_destination=ExtData[1]->WorkLocal[4])
     0x00AD [0x17] ExtData[1]->WorkLocal[5] = cos(ExtData[1]->WorkLocal[4]) * ExtData[1]->WorkLocal[0]
     0x00B4 [0x16] ExtData[1]->WorkLocal[6] = sin(ExtData[1]->WorkLocal[4]) * ExtData[1]->WorkLocal[0]
     0x00BB [0x07] ExtData[1]->WorkLocal[1] += ExtData[1]->WorkLocal[5]
     0x00C0 [0x07] ExtData[1]->WorkLocal[2] += ExtData[1]->WorkLocal[6]
     0x00C5 [0x1B] RETURN
     0x00C6 [0x17] ExtData[1]->WorkLocal[5] = cos(ExtData[1]->WorkLocal[4]) * ExtData[1]->WorkLocal[0]
     0x00CD [0x16] ExtData[1]->WorkLocal[6] = sin(ExtData[1]->WorkLocal[4]) * ExtData[1]->WorkLocal[0]
     0x00D4 [0x07] ExtData[1]->WorkLocal[1] += ExtData[1]->WorkLocal[5]
     0x00D9 [0x07] ExtData[1]->WorkLocal[2] += ExtData[1]->WorkLocal[6]
     0x00DE [0x1B] RETURN
```