# Event 65535

## Metadata

| Field           | Value    |
|-----------------|----------|
| Event Index     | 7/15     |
| Offset          | 0x0083   |
| Data Size       | 92 bytes |
| Calculated Size | 92 bytes |
| Instructions    | 7        |

```
      00 01 02 03 04 05 06 07  08 09 0A 0B 0C 0D 0E 0F
      -- -- -- -- -- -- -- --  -- -- -- -- -- -- -- --
0080:          32 07 80 1F 00  08 80 09 80 02 80 1F 01     2............
0090: 1F 00 0A 80 0B 80 02 80  1F 01 00 3B F8 FF FF 7F  ...........;....
00A0: 01 00 02 00 03 00 3A F8  FF FF 7F 04 00 17 05 00  ......:.........
00B0: 04 00 00 00 16 06 00 04  00 00 00 07 01 00 05 00  ................
00C0: 07 02 00 06 00 1B 17 05  00 04 00 00 00 16 06 00  ................
00D0: 04 00 00 00 07 01 00 05  00 07 02 00 06 00 1B     ............... 
```

## Opcodes

```
  0: 0x0083 [0x32] ExtData[1]->MainSpeed = 40* * 0.1
  1: 0x0086 [0x1F] MOVE_ENTITY: EventEntity moves to X=-41.349*, Z=-42.737*, Y=-4.000*
  2: 0x008E [0x1F] MOVE_ENTITY: Update entity position (mode=1)
  3: 0x0090 [0x1F] MOVE_ENTITY: EventEntity moves to X=-41.583*, Z=-55.304*, Y=-4.000*
  4: 0x0098 [0x1F] MOVE_ENTITY: Update entity position (mode=1)
  5: 0x009A [0x00] END_REQSTACK()
```

## Data or dead code:

```
# Data Section: 0x009B (68 bytes)
     0x009B: 3B F8 FF FF 7F 01 00 02 00 03 00 3A F8 FF FF 7F
     0x00AB: 04 00 17 05 00 04 00 00 00 16 06 00 04 00 00 00
     0x00BB: 07 01 00 05 00 07 02 00 06 00 1B 17 05 00 04 00
     0x00CB: 00 00 16 06 00 04 00 00 00 07 01 00 05 00 07 02
     0x00DB: 00 06 00 1B
```