# Event 65535

## Metadata

| Field           | Value    |
|-----------------|----------|
| Event Index     | 24/31    |
| Offset          | 0x01EC   |
| Data Size       | 78 bytes |
| Calculated Size | 78 bytes |
| Instructions    | 10       |

```
      00 01 02 03 04 05 06 07  08 09 0A 0B 0C 0D 0E 0F
      -- -- -- -- -- -- -- --  -- -- -- -- -- -- -- --
01E0:                                      32 3A 80 1F              2:..
01F0: 00 50 80 51 80 1E 80 1F  01 6F 66 52 80 F8 FF FF  .P.Q.....ofR....
0200: 7F F8 FF FF 7F 73 68 61  30 1C 53 80 45 54 80 F0  .....sha0.S.ET..
0210: FF FF 7F F0 FF FF 7F 77  30 30 34 1E 80 55 54 80  .......w004..UT.
0220: F0 FF FF 7F F0 FF FF 7F  77 30 30 34 53 F8 FF FF  ........w004S...
0230: 7F F8 FF FF 7F 73 68 61  30 00                    .....sha0.      
```

## Opcodes

```
  0: 0x01EC [0x32] ExtData[1]->MainSpeed = 40* * 0.1
  1: 0x01EF [0x1F] MOVE_ENTITY: EventEntity moves to X=-171.833*, Z=246.376*, Y=0.000*
  2: 0x01F7 [0x1F] MOVE_ENTITY: Update entity position (mode=1)
  3: 0x01F9 [0x6F] WAIT_FRAME_DELAY: Yield until WaitTime reaches zero
  4: 0x01FA [0x66] LOAD_EXT_SCHEDULER_MAIN(work_offset=39*, entity1=EventEntity, entity2=EventEntity, action="sha0")
  5: 0x0209 [0x1C] WAIT(20* ticks)
  6: 0x020C [0x45] LOAD_SCHEDULED_TASK(work_offset1=245*, entity1=LocalPlayer, entity2=LocalPlayer, scheduler_id="w004", work_offset2=0*)
  7: 0x021D [0x55] WAIT_LOAD_SCHEDULER(work_offset=245*, entity1=LocalPlayer, entity2=LocalPlayer, scheduler_id="w004")
  8: 0x022C [0x53] WAIT_SCHEDULER_TASK(entity1=EventEntity, entity2=EventEntity, action_id="sha0")
  9: 0x0239 [0x00] END_REQSTACK()
```
