# Event 699

## Metadata

| Field           | Value    |
|-----------------|----------|
| Event Index     | 25/31    |
| Offset          | 0x01BB   |
| Data Size       | 22 bytes |
| Calculated Size | 22 bytes |
| Instructions    | 9        |

```
      00 01 02 03 04 05 06 07  08 09 0A 0B 0C 0D 0E 0F
      -- -- -- -- -- -- -- --  -- -- -- -- -- -- -- --
01B0:                                   1E F0 FF FF 7F             .....
01C0: 6F 70 29 08 89 70 0E 01  01 1D 0D 80 23 20 00 21  op)..p......# .!
01D0: 00                                                .               
```

## Opcodes

```
  0: 0x01BB [0x1E] EventEntity looks at LocalPlayer and starts talking
  1: 0x01C0 [0x6F] WAIT_FRAME_DELAY: Yield until WaitTime reaches zero
  2: 0x01C1 [0x70] WAIT_ENTITY_RENDER_FLAG: Wait while EventEntity->Render.Flags3 bit 2 is set (cancel turn if not)
  3: 0x01C2 [0x29] REQ_SET_WAIT(priority=0x08, entity_id=Mulaujeant (ID: 17723529/0x010E7089), tag_num=0x01)
  4: 0x01C9 [0x1D] PRINT_EVENT_MESSAGE(message_id=12082*)
    → "Patience! Patience! Even one such as I needs time to carve a statue worthy of Altana.\u007F1\u0000\u0007"
  5: 0x01CC [0x23] WAIT_FOR_DIALOG_INTERACTION
  6: 0x01CD [0x20] SET_CLI_EVENT_UC_FLAG: Unlock player control
  7: 0x01CF [0x21] END_EVENT
  8: 0x01D0 [0x00] END_REQSTACK()
```
