# Event 65535

## Metadata

| Field           | Value    |
|-----------------|----------|
| Event Index     | 32/40    |
| Offset          | 0x032A   |
| Data Size       | 50 bytes |
| Calculated Size | 50 bytes |
| Instructions    | 12       |

```
      00 01 02 03 04 05 06 07  08 09 0A 0B 0C 0D 0E 0F
      -- -- -- -- -- -- -- --  -- -- -- -- -- -- -- --
0320:                                32 41 80 1F 00 62            2A...b
0330: 80 63 80 64 80 1F 01 1C  40 80 1F 00 5E 80 5F 80  .c.d....@...^._.
0340: 60 80 1F 01 1C 40 80 1F  00 42 80 43 80 44 80 1F  `....@...B.C.D..
0350: 01 4B 15 61 0E 01 61 80  1C 40 80 00              .K.a..a..@..    
```

## Opcodes

```
  0: 0x032A [0x32] ExtData[1]->MainSpeed = 19* * 0.1
  1: 0x032D [0x1F] MOVE_ENTITY: EventEntity moves to X=-599.892*, Z=588.477*, Y=0.373*
  2: 0x0335 [0x1F] MOVE_ENTITY: Update entity position (mode=1)
  3: 0x0337 [0x1C] WAIT(60* ticks)
  4: 0x033A [0x1F] MOVE_ENTITY: EventEntity moves to X=-602.144*, Z=586.825*, Y=0.376*
  5: 0x0342 [0x1F] MOVE_ENTITY: Update entity position (mode=1)
  6: 0x0344 [0x1C] WAIT(60* ticks)
  7: 0x0347 [0x1F] MOVE_ENTITY: EventEntity moves to X=-600.128*, Z=585.578*, Y=0.628*
  8: 0x034F [0x1F] MOVE_ENTITY: Update entity position (mode=1)
  9: 0x0351 [0x4B] UPDATE_ENTITY_YAW(entity=Unnamed NPC (ID: 17719573/0x010E6115), yaw=11.8°*)
 10: 0x0358 [0x1C] WAIT(60* ticks)
 11: 0x035B [0x00] END_REQSTACK()
```
