# Event 65535

## Metadata

| Field           | Value    |
|-----------------|----------|
| Event Index     | 37/40    |
| Offset          | 0x03EE   |
| Data Size       | 51 bytes |
| Calculated Size | 51 bytes |
| Instructions    | 11       |

```
      00 01 02 03 04 05 06 07  08 09 0A 0B 0C 0D 0E 0F
      -- -- -- -- -- -- -- --  -- -- -- -- -- -- -- --
03E0:                                            32 05                2.
03F0: 80 1F 00 75 80 76 80 05  80 1F 01 1F 00 77 80 78  ...u.v.......w.x
0400: 80 79 80 1F 01 1F 00 7A  80 7B 80 7C 80 1F 01 1E  .y.....z.{.|....
0410: 13 61 0E 01 1C 52 80 4A  13 61 0E 01 15 61 0E 01  .a...R.J.a...a..
0420: 00                                                .               
```

## Opcodes

```
  0: 0x03EE [0x32] ExtData[1]->MainSpeed = 57* * 0.1
  1: 0x03F1 [0x1F] MOVE_ENTITY: EventEntity moves to X=-604.257*, Z=586.573*, Y=0.057*
  2: 0x03F9 [0x1F] MOVE_ENTITY: Update entity position (mode=1)
  3: 0x03FB [0x1F] MOVE_ENTITY: EventEntity moves to X=-603.318*, Z=588.527*, Y=0.196*
  4: 0x0403 [0x1F] MOVE_ENTITY: Update entity position (mode=1)
  5: 0x0405 [0x1F] MOVE_ENTITY: EventEntity moves to X=-601.495*, Z=586.040*, Y=0.496*
  6: 0x040D [0x1F] MOVE_ENTITY: Update entity position (mode=1)
  7: 0x040F [0x1E] EventEntity looks at Unnamed NPC (ID: 17719571/0x010E6113) and starts talking
  8: 0x0414 [0x1C] WAIT(30* ticks)
  9: 0x0417 [0x4A] Unnamed NPC (ID: 17719571/0x010E6113) looks at Unnamed NPC (ID: 17719573/0x010E6115)
 10: 0x0420 [0x00] END_REQSTACK()
```
