# Event 65535

## Metadata

| Field           | Value    |
|-----------------|----------|
| Event Index     | 23/40    |
| Offset          | 0x01B3   |
| Data Size       | 48 bytes |
| Calculated Size | 48 bytes |
| Instructions    | 11       |

```
      00 01 02 03 04 05 06 07  08 09 0A 0B 0C 0D 0E 0F
      -- -- -- -- -- -- -- --  -- -- -- -- -- -- -- --
01B0:          02 04 00 36 80  01 E2 01 32 37 80 1F 00     ...6....27...
01C0: 38 80 39 80 3A 80 1F 01  1F 00 3B 80 3C 80 00 80  8.9.:.....;.<...
01D0: 1F 01 1F 00 3D 80 3E 80  3F 80 1F 01 1C 40 80 01  ....=.>.?....@..
01E0: B3 01 00                                          ...             
```

## Opcodes

```
  0: 0x01B3 [0x02] IF !(ExtData[1]->WorkLocal[4] == 2*) GOTO 0x01E2
  1: 0x01BB [0x32] ExtData[1]->MainSpeed = 10* * 0.1
  2: 0x01BE [0x1F] MOVE_ENTITY: EventEntity moves to X=-604.741*, Z=603.338*, Y=0.035*
  3: 0x01C6 [0x1F] MOVE_ENTITY: Update entity position (mode=1)
  4: 0x01C8 [0x1F] MOVE_ENTITY: EventEntity moves to X=-601.147*, Z=602.770*, Y=0.000*
  5: 0x01D0 [0x1F] MOVE_ENTITY: Update entity position (mode=1)
  6: 0x01D2 [0x1F] MOVE_ENTITY: EventEntity moves to X=-598.147*, Z=604.645*, Y=0.031*
  7: 0x01DA [0x1F] MOVE_ENTITY: Update entity position (mode=1)
  8: 0x01DC [0x1C] WAIT(60* ticks)
  9: 0x01DF [0x01] GOTO 0x01B3

SUBROUTINE_01E2:
 10: 0x01E2 [0x00] END_REQSTACK()
```
