# Event 65535

## Metadata

| Field           | Value    |
|-----------------|----------|
| Event Index     | 35/40    |
| Offset          | 0x03AD   |
| Data Size       | 51 bytes |
| Calculated Size | 51 bytes |
| Instructions    | 11       |

```
      00 01 02 03 04 05 06 07  08 09 0A 0B 0C 0D 0E 0F
      -- -- -- -- -- -- -- --  -- -- -- -- -- -- -- --
03A0:                                         32 37 80               27.
03B0: 1F 00 75 80 76 80 05 80  1F 01 1F 00 77 80 78 80  ..u.v.......w.x.
03C0: 79 80 1F 01 1F 00 7A 80  7B 80 7C 80 1F 01 1E 13  y.....z.{.|.....
03D0: 61 0E 01 1C 52 80 4A 13  61 0E 01 14 61 0E 01 00  a...R.J.a...a...
```

## Opcodes

```
  0: 0x03AD [0x32] ExtData[1]->MainSpeed = 10* * 0.1
  1: 0x03B0 [0x1F] MOVE_ENTITY: EventEntity moves to X=-604.257*, Z=586.573*, Y=0.057*
  2: 0x03B8 [0x1F] MOVE_ENTITY: Update entity position (mode=1)
  3: 0x03BA [0x1F] MOVE_ENTITY: EventEntity moves to X=-603.318*, Z=588.527*, Y=0.196*
  4: 0x03C2 [0x1F] MOVE_ENTITY: Update entity position (mode=1)
  5: 0x03C4 [0x1F] MOVE_ENTITY: EventEntity moves to X=-601.495*, Z=586.040*, Y=0.496*
  6: 0x03CC [0x1F] MOVE_ENTITY: Update entity position (mode=1)
  7: 0x03CE [0x1E] EventEntity looks at Unnamed NPC (ID: 17719571/0x010E6113) and starts talking
  8: 0x03D3 [0x1C] WAIT(30* ticks)
  9: 0x03D6 [0x4A] Unnamed NPC (ID: 17719571/0x010E6113) looks at Unnamed NPC (ID: 17719572/0x010E6114)
 10: 0x03DF [0x00] END_REQSTACK()
```
