# Event 65535

## Metadata

| Field           | Value    |
|-----------------|----------|
| Event Index     | 28/40    |
| Offset          | 0x025E   |
| Data Size       | 66 bytes |
| Calculated Size | 66 bytes |
| Instructions    | 16       |

```
      00 01 02 03 04 05 06 07  08 09 0A 0B 0C 0D 0E 0F
      -- -- -- -- -- -- -- --  -- -- -- -- -- -- -- --
0250:                                            32 41                2A
0260: 80 1F 00 46 80 47 80 48  80 1F 01 1C 52 80 1F 00  ...F.G.H....R...
0270: 49 80 4A 80 4B 80 1F 01  1C 52 80 1F 00 4C 80 4D  I.J.K....R...L.M
0280: 80 4E 80 1F 01 1C 52 80  1F 00 4F 80 50 80 51 80  .N....R...O.P.Q.
0290: 1F 01 1C 52 80 1F 00 42  80 43 80 44 80 1F 01 00  ...R...B.C.D....
```

## Opcodes

```
  0: 0x025E [0x32] ExtData[1]->MainSpeed = 19* * 0.1
  1: 0x0261 [0x1F] MOVE_ENTITY: EventEntity moves to X=-601.910*, Z=587.743*, Y=0.274*
  2: 0x0269 [0x1F] MOVE_ENTITY: Update entity position (mode=1)
  3: 0x026B [0x1C] WAIT(30* ticks)
  4: 0x026E [0x1F] MOVE_ENTITY: EventEntity moves to X=-600.199*, Z=588.994*, Y=0.347*
  5: 0x0276 [0x1F] MOVE_ENTITY: Update entity position (mode=1)
  6: 0x0278 [0x1C] WAIT(30* ticks)
  7: 0x027B [0x1F] MOVE_ENTITY: EventEntity moves to X=-599.211*, Z=586.089*, Y=0.586*
  8: 0x0283 [0x1F] MOVE_ENTITY: Update entity position (mode=1)
  9: 0x0285 [0x1C] WAIT(30* ticks)
 10: 0x0288 [0x1F] MOVE_ENTITY: EventEntity moves to X=-599.391*, Z=583.375*, Y=0.830*
 11: 0x0290 [0x1F] MOVE_ENTITY: Update entity position (mode=1)
 12: 0x0292 [0x1C] WAIT(30* ticks)
 13: 0x0295 [0x1F] MOVE_ENTITY: EventEntity moves to X=-600.128*, Z=585.578*, Y=0.628*
 14: 0x029D [0x1F] MOVE_ENTITY: Update entity position (mode=1)
 15: 0x029F [0x00] END_REQSTACK()
```
