# Event 65535

## Metadata

| Field           | Value    |
|-----------------|----------|
| Event Index     | 31/40    |
| Offset          | 0x02F8   |
| Data Size       | 50 bytes |
| Calculated Size | 50 bytes |
| Instructions    | 12       |

```
      00 01 02 03 04 05 06 07  08 09 0A 0B 0C 0D 0E 0F
      -- -- -- -- -- -- -- --  -- -- -- -- -- -- -- --
02F0:                          32 37 80 1F 00 5B 80 5C          27...[.\
0300: 80 5D 80 1F 01 1C 40 80  1F 00 5E 80 5F 80 60 80  .]....@...^._.`.
0310: 1F 01 1C 40 80 1F 00 42  80 43 80 44 80 1F 01 4B  ...@...B.C.D...K
0320: 15 61 0E 01 61 80 1C 40  80 00                    .a..a..@..      
```

## Opcodes

```
  0: 0x02F8 [0x32] ExtData[1]->MainSpeed = 10* * 0.1
  1: 0x02FB [0x1F] MOVE_ENTITY: EventEntity moves to X=-600.221*, Z=588.558*, Y=0.369*
  2: 0x0303 [0x1F] MOVE_ENTITY: Update entity position (mode=1)
  3: 0x0305 [0x1C] WAIT(60* ticks)
  4: 0x0308 [0x1F] MOVE_ENTITY: EventEntity moves to X=-602.144*, Z=586.825*, Y=0.376*
  5: 0x0310 [0x1F] MOVE_ENTITY: Update entity position (mode=1)
  6: 0x0312 [0x1C] WAIT(60* ticks)
  7: 0x0315 [0x1F] MOVE_ENTITY: EventEntity moves to X=-600.128*, Z=585.578*, Y=0.628*
  8: 0x031D [0x1F] MOVE_ENTITY: Update entity position (mode=1)
  9: 0x031F [0x4B] UPDATE_ENTITY_YAW(entity=Unnamed NPC (ID: 17719573/0x010E6115), yaw=11.8°*)
 10: 0x0326 [0x1C] WAIT(60* ticks)
 11: 0x0329 [0x00] END_REQSTACK()
```
