# Event 65535

## Metadata

| Field           | Value    |
|-----------------|----------|
| Event Index     | 38/40    |
| Offset          | 0x0421   |
| Data Size       | 59 bytes |
| Calculated Size | 59 bytes |
| Instructions    | 13       |

```
      00 01 02 03 04 05 06 07  08 09 0A 0B 0C 0D 0E 0F
      -- -- -- -- -- -- -- --  -- -- -- -- -- -- -- --
0420:    32 37 80 1F 00 7D 80  7E 80 7F 80 1F 01 1F 00   27...}.~.......
0430: 80 80 81 80 82 80 1F 01  1F 00 83 80 84 80 85 80  ................
0440: 1F 01 1F 00 86 80 87 80  88 80 1F 01 1F 00 89 80  ................
0450: 8A 80 8B 80 1F 01 1E 13  61 0E 01 00              ........a...    
```

## Opcodes

```
  0: 0x0421 [0x32] ExtData[1]->MainSpeed = 10* * 0.1
  1: 0x0424 [0x1F] MOVE_ENTITY: EventEntity moves to X=-601.361*, Z=584.507*, Y=0.542*
  2: 0x042C [0x1F] MOVE_ENTITY: Update entity position (mode=1)
  3: 0x042E [0x1F] MOVE_ENTITY: EventEntity moves to X=-600.414*, Z=583.859*, Y=0.704*
  4: 0x0436 [0x1F] MOVE_ENTITY: Update entity position (mode=1)
  5: 0x0438 [0x1F] MOVE_ENTITY: EventEntity moves to X=-599.376*, Z=585.276*, Y=0.668*
  6: 0x0440 [0x1F] MOVE_ENTITY: Update entity position (mode=1)
  7: 0x0442 [0x1F] MOVE_ENTITY: EventEntity moves to X=-598.992*, Z=587.260*, Y=0.468*
  8: 0x044A [0x1F] MOVE_ENTITY: Update entity position (mode=1)
  9: 0x044C [0x1F] MOVE_ENTITY: EventEntity moves to X=-599.942*, Z=587.474*, Y=0.447*
 10: 0x0454 [0x1F] MOVE_ENTITY: Update entity position (mode=1)
 11: 0x0456 [0x1E] EventEntity looks at Unnamed NPC (ID: 17719571/0x010E6113) and starts talking
 12: 0x045B [0x00] END_REQSTACK()
```
