# Event 65535

## Metadata

| Field           | Value    |
|-----------------|----------|
| Event Index     | 27/40    |
| Offset          | 0x0228   |
| Data Size       | 54 bytes |
| Calculated Size | 54 bytes |
| Instructions    | 12       |

```
      00 01 02 03 04 05 06 07  08 09 0A 0B 0C 0D 0E 0F
      -- -- -- -- -- -- -- --  -- -- -- -- -- -- -- --
0220:                          32 37 80 1F 00 46 80 47          27...F.G
0230: 80 48 80 1F 01 1F 00 49  80 4A 80 4B 80 1F 01 1F  .H.....I.J.K....
0240: 00 4C 80 4D 80 4E 80 1F  01 1F 00 4F 80 50 80 51  .L.M.N.....O.P.Q
0250: 80 1F 01 1F 00 42 80 43  80 44 80 1F 01 00        .....B.C.D....  
```

## Opcodes

```
  0: 0x0228 [0x32] ExtData[1]->MainSpeed = 10* * 0.1
  1: 0x022B [0x1F] MOVE_ENTITY: EventEntity moves to X=-601.910*, Z=587.743*, Y=0.274*
  2: 0x0233 [0x1F] MOVE_ENTITY: Update entity position (mode=1)
  3: 0x0235 [0x1F] MOVE_ENTITY: EventEntity moves to X=-600.199*, Z=588.994*, Y=0.347*
  4: 0x023D [0x1F] MOVE_ENTITY: Update entity position (mode=1)
  5: 0x023F [0x1F] MOVE_ENTITY: EventEntity moves to X=-599.211*, Z=586.089*, Y=0.586*
  6: 0x0247 [0x1F] MOVE_ENTITY: Update entity position (mode=1)
  7: 0x0249 [0x1F] MOVE_ENTITY: EventEntity moves to X=-599.391*, Z=583.375*, Y=0.830*
  8: 0x0251 [0x1F] MOVE_ENTITY: Update entity position (mode=1)
  9: 0x0253 [0x1F] MOVE_ENTITY: EventEntity moves to X=-600.128*, Z=585.578*, Y=0.628*
 10: 0x025B [0x1F] MOVE_ENTITY: Update entity position (mode=1)
 11: 0x025D [0x00] END_REQSTACK()
```
