# Event 65535

## Metadata

| Field           | Value    |
|-----------------|----------|
| Event Index     | 33/40    |
| Offset          | 0x035C   |
| Data Size       | 67 bytes |
| Calculated Size | 67 bytes |
| Instructions    | 15       |

```
      00 01 02 03 04 05 06 07  08 09 0A 0B 0C 0D 0E 0F
      -- -- -- -- -- -- -- --  -- -- -- -- -- -- -- --
0350:                                      32 05 80 1F              2...
0360: 00 65 80 66 80 67 80 1F  01 4B 15 61 0E 01 68 80  .e.f.g...K.a..h.
0370: 1C 40 80 1F 00 69 80 6A  80 6B 80 1F 01 4B 15 61  .@...i.j.k...K.a
0380: 0E 01 6C 80 1C 6D 80 1F  00 6E 80 6F 80 70 80 1F  ..l..m...n.o.p..
0390: 01 1C 52 80 4B 15 61 0E  01 71 80 1C 40 80 00     ..R.K.a..q..@.. 
```

## Opcodes

```
  0: 0x035C [0x32] ExtData[1]->MainSpeed = 57* * 0.1
  1: 0x035F [0x1F] MOVE_ENTITY: EventEntity moves to X=-599.295*, Z=590.678*, Y=0.264*
  2: 0x0367 [0x1F] MOVE_ENTITY: Update entity position (mode=1)
  3: 0x0369 [0x4B] UPDATE_ENTITY_YAW(entity=Unnamed NPC (ID: 17719573/0x010E6115), yaw=5.3°*)
  4: 0x0370 [0x1C] WAIT(60* ticks)
  5: 0x0373 [0x1F] MOVE_ENTITY: EventEntity moves to X=-604.353*, Z=586.292*, Y=0.138*
  6: 0x037B [0x1F] MOVE_ENTITY: Update entity position (mode=1)
  7: 0x037D [0x4B] UPDATE_ENTITY_YAW(entity=Unnamed NPC (ID: 17719573/0x010E6115), yaw=0.2°*)
  8: 0x0384 [0x1C] WAIT(240* ticks)
  9: 0x0387 [0x1F] MOVE_ENTITY: EventEntity moves to X=-600.328*, Z=582.410*, Y=0.802*
 10: 0x038F [0x1F] MOVE_ENTITY: Update entity position (mode=1)
 11: 0x0391 [0x1C] WAIT(30* ticks)
 12: 0x0394 [0x4B] UPDATE_ENTITY_YAW(entity=Unnamed NPC (ID: 17719573/0x010E6115), yaw=16.6°*)
 13: 0x039B [0x1C] WAIT(60* ticks)
 14: 0x039E [0x00] END_REQSTACK()
```
