# Event 65535

## Metadata

| Field           | Value    |
|-----------------|----------|
| Event Index     | 54/62    |
| Offset          | 0x0443   |
| Data Size       | 54 bytes |
| Calculated Size | 54 bytes |
| Instructions    | 6        |

```
      00 01 02 03 04 05 06 07  08 09 0A 0B 0C 0D 0E 0F
      -- -- -- -- -- -- -- --  -- -- -- -- -- -- -- --
0440:          03 00 00 07 7F  1A AF 04 45 81 80 F0 FF     ........E....
0450: FF 7F F0 FF FF 7F 67 64  73 31 00 80 66 01 00 F8  ......gds1..f...
0460: FF FF 7F F8 FF FF 7F 73  68 61 30 53 F8 FF FF 7F  .......sha0S....
0470: F8 FF FF 7F 73 68 61 30  00                       ....sha0.       
```

## Opcodes

```
  0: 0x0443 [0x03] ExtData[1]->WorkLocal[0] = Entity->Race
  1: 0x0448 [0x1A] CALL_SUBROUTINE(address=0x04AF)
  2: 0x044B [0x45] LOAD_SCHEDULED_TASK(work_offset1=416*, entity1=LocalPlayer, entity2=LocalPlayer, scheduler_id="gds1", work_offset2=0*)
  3: 0x045C [0x66] LOAD_EXT_SCHEDULER_MAIN(work_offset=0x0001, entity1=EventEntity, entity2=EventEntity, action="sha0")
  4: 0x046B [0x53] WAIT_SCHEDULER_TASK(entity1=EventEntity, entity2=EventEntity, action_id="sha0")
  5: 0x0478 [0x00] END_REQSTACK()
```
