# Event 65535

## Metadata

| Field           | Value    |
|-----------------|----------|
| Event Index     | 11/15    |
| Offset          | 0x00DE   |
| Data Size       | 57 bytes |
| Calculated Size | 57 bytes |
| Instructions    | 5        |

```
      00 01 02 03 04 05 06 07  08 09 0A 0B 0C 0D 0E 0F
      -- -- -- -- -- -- -- --  -- -- -- -- -- -- -- --
00D0:                                            BA 4E                .N
00E0: B3 05 01 0A 80 0B 80 0C  80 0D 80 5B 01 80 4F B3  ...........[..O.
00F0: 05 01 4F B3 05 01 73 61  69 30 5B 00 80 4E B3 05  ..O...sai0[..N..
0100: 01 4E B3 05 01 73 61 69  30 53 4E B3 05 01 4E B3  .N...sai0SN...N.
0110: 05 01 73 61 69 30 00                              ..sai0.         
```

## Opcodes

```
  0: 0x00DE [0xBA] SET_ENTITY_POSITION(entity_id=Babban Ny Mheillea (ID: 17150798/0x0105B34E), pos_x=-71.650*, pos_z=-886.460*, pos_y=0.112*, direction=64.2°*)
  1: 0x00EB [0x5B] LOAD_EXT_SCHEDULER: Load scheduler "sai0" with entities [Abenzio (ID: 17150799/0x0105B34F), Abenzio (ID: 17150799/0x0105B34F)], work=2158*
  2: 0x00FA [0x5B] LOAD_EXT_SCHEDULER: Load scheduler "sai0" with entities [Babban Ny Mheillea (ID: 17150798/0x0105B34E), Babban Ny Mheillea (ID: 17150798/0x0105B34E)], work=2161*
  3: 0x0109 [0x53] WAIT_SCHEDULER_TASK: Wait for scheduler "sai0" with entities [Babban Ny Mheillea (ID: 17150798/0x0105B34E), Babban Ny Mheillea (ID: 17150798/0x0105B34E)]
  4: 0x0116 [0x00] END_REQSTACK()
```
