# Event 65535

## Metadata

| Field           | Value    |
|-----------------|----------|
| Event Index     | 30/43    |
| Offset          | 0x0347   |
| Data Size       | 45 bytes |
| Calculated Size | 45 bytes |
| Instructions    | 10       |

```
      00 01 02 03 04 05 06 07  08 09 0A 0B 0C 0D 0E 0F
      -- -- -- -- -- -- -- --  -- -- -- -- -- -- -- --
0340:                      32  05 80 37 57 80 58 80 59         2..7W.X.Y
0350: 80 5A 80 1F 00 5B 80 5C  80 08 80 1F 01 6F 4A 18  .Z...[.\.....oJ.
0360: D0 0E 01 F0 FF FF 7F 79  00 18 D0 0E 01 2D D0 0E  .......y.....-..
0370: 01 6F 70 00                                       .op.            
```

## Opcodes

```
  0: 0x0347 [0x32] ExtData[1]->MainSpeed = 13* * 0.1
  1: 0x034A [0x37] UPDATE_EVENT_POSITION_AND_DIR: x=70.588*, z=1.679*, y=-16.121*, direction=190.1°*
  2: 0x0353 [0x1F] MOVE_ENTITY: EventEntity moves to X=65.250*, Z=1.899*, Y=-14.000*
  3: 0x035B [0x1F] MOVE_ENTITY: Update entity position (mode=1)
  4: 0x035D [0x6F] WAIT_FRAME_DELAY: Yield until WaitTime reaches zero
  5: 0x035E [0x4A] Lucius (ID: 17747992/0x010ED018) looks at LocalPlayer
  6: 0x0367 [0x79] Lucius (ID: 17747992/0x010ED018) looks at Naji (ID: 17748013/0x010ED02D) (Basic look)
  7: 0x0371 [0x6F] WAIT_FRAME_DELAY: Yield until WaitTime reaches zero
  8: 0x0372 [0x70] WAIT_ENTITY_RENDER_FLAG: Wait while EventEntity->Render.Flags3 bit 2 is set (cancel turn if not)
  9: 0x0373 [0x00] END_REQSTACK()
```
