# Event 65535

## Metadata

| Field           | Value    |
|-----------------|----------|
| Event Index     | 24/43    |
| Offset          | 0x02D9   |
| Data Size       | 36 bytes |
| Calculated Size | 36 bytes |
| Instructions    | 9        |

```
      00 01 02 03 04 05 06 07  08 09 0A 0B 0C 0D 0E 0F
      -- -- -- -- -- -- -- --  -- -- -- -- -- -- -- --
02D0:                             86 01 F8 FF FF 7F 39           ......9
02E0: 4E 80 22 00 32 05 80 1F  00 4F 80 4C 80 2B 80 1F  N.".2....O.L.+..
02F0: 01 86 00 F8 FF FF 7F 1E  2E D0 0E 01 00           .............   
```

## Opcodes

```
  0: 0x02D9 [0x86] EventEntity->Render.Flags3 ^= 0x01
  1: 0x02DF [0x39] SET_ENTITY_DIRECTION(direction=22.4°*)
  2: 0x02E2 [0x22] ENTITY_HIDE_FLAG(enabled=0x00)
  3: 0x02E4 [0x32] ExtData[1]->MainSpeed = 13* * 0.1
  4: 0x02E7 [0x1F] MOVE_ENTITY: EventEntity moves to X=102.761*, Z=-1.500*, Y=-20.168*
  5: 0x02EF [0x1F] MOVE_ENTITY: Update entity position (mode=1)
  6: 0x02F1 [0x86] EventEntity->Render.Flags3 = Flags3  // No change (flag=0)
  7: 0x02F7 [0x1E] EventEntity looks at Volker (ID: 17748014/0x010ED02E) and starts talking
  8: 0x02FC [0x00] END_REQSTACK()
```
