# Event 65535

## Metadata

| Field           | Value    |
|-----------------|----------|
| Event Index     | 32/43    |
| Offset          | 0x0382   |
| Data Size       | 34 bytes |
| Calculated Size | 34 bytes |
| Instructions    | 7        |

```
      00 01 02 03 04 05 06 07  08 09 0A 0B 0C 0D 0E 0F
      -- -- -- -- -- -- -- --  -- -- -- -- -- -- -- --
0380:       32 05 80 79 00 F8  FF FF 7F 31 D0 0E 01 37    2..y.....1...7
0390: 5F 80 60 80 0D 80 61 80  1F 00 62 80 63 80 0D 80  _.`...a...b.c...
03A0: 1F 01 6F 00                                       ..o.            
```

## Opcodes

```
  0: 0x0382 [0x32] ExtData[1]->MainSpeed = 13* * 0.1
  1: 0x0385 [0x79] EventEntity looks at Malduc (ID: 17748017/0x010ED031) (Basic look)
  2: 0x038F [0x37] UPDATE_EVENT_POSITION_AND_DIR: x=59.371*, z=1.070*, y=-13.999*, direction=276.2°*
  3: 0x0398 [0x1F] MOVE_ENTITY: EventEntity moves to X=64.298*, Z=2.554*, Y=-13.999*
  4: 0x03A0 [0x1F] MOVE_ENTITY: Update entity position (mode=1)
  5: 0x03A2 [0x6F] WAIT_FRAME_DELAY: Yield until WaitTime reaches zero
  6: 0x03A3 [0x00] END_REQSTACK()
```
