# Event 65535

## Metadata

| Field           | Value    |
|-----------------|----------|
| Event Index     | 34/43    |
| Offset          | 0x03A5   |
| Data Size       | 51 bytes |
| Calculated Size | 51 bytes |
| Instructions    | 12       |

```
      00 01 02 03 04 05 06 07  08 09 0A 0B 0C 0D 0E 0F
      -- -- -- -- -- -- -- --  -- -- -- -- -- -- -- --
03A0:                32 05 80  79 00 18 D0 0E 01 1D D0       2..y.......
03B0: 0E 01 37 64 80 65 80 10  80 66 80 1F 00 67 80 68  ..7d.e...f...g.h
03C0: 80 10 80 1F 01 1F 00 69  80 6A 80 6B 80 1F 01 6F  .......i.j.k...o
03D0: 1E 1D D0 0E 01 6F 70 00                           .....op.        
```

## Opcodes

```
  0: 0x03A5 [0x32] ExtData[1]->MainSpeed = 13* * 0.1
  1: 0x03A8 [0x79] Lucius (ID: 17747992/0x010ED018) looks at Alois (ID: 17747997/0x010ED01D) (Basic look)
  2: 0x03B2 [0x37] UPDATE_EVENT_POSITION_AND_DIR: x=95.373*, z=9.686*, y=-20.170*, direction=7.6°*
  3: 0x03BB [0x1F] MOVE_ENTITY: EventEntity moves to X=98.323*, Z=10.330*, Y=-20.170*
  4: 0x03C3 [0x1F] MOVE_ENTITY: Update entity position (mode=1)
  5: 0x03C5 [0x1F] MOVE_ENTITY: EventEntity moves to X=98.509*, Z=12.093*, Y=-20.185*
  6: 0x03CD [0x1F] MOVE_ENTITY: Update entity position (mode=1)
  7: 0x03CF [0x6F] WAIT_FRAME_DELAY: Yield until WaitTime reaches zero
  8: 0x03D0 [0x1E] EventEntity looks at Alois (ID: 17747997/0x010ED01D) and starts talking
  9: 0x03D5 [0x6F] WAIT_FRAME_DELAY: Yield until WaitTime reaches zero
 10: 0x03D6 [0x70] WAIT_ENTITY_RENDER_FLAG: Wait while EventEntity->Render.Flags3 bit 2 is set (cancel turn if not)
 11: 0x03D7 [0x00] END_REQSTACK()
```
