# Event 65535

## Metadata

| Field           | Value    |
|-----------------|----------|
| Event Index     | 26/28    |
| Offset          | 0x015F   |
| Data Size       | 62 bytes |
| Calculated Size | 62 bytes |
| Instructions    | 12       |

```
      00 01 02 03 04 05 06 07  08 09 0A 0B 0C 0D 0E 0F
      -- -- -- -- -- -- -- --  -- -- -- -- -- -- -- --
0150:                                               84                 .
0160: BA F8 FF FF 7F 14 80 15  80 08 80 16 80 80 F8 FF  ................
0170: FF 7F 1C 17 80 59 01 F8  FF FF 7F 18 80 4A F8 FF  .....Y.......J..
0180: FF 7F F0 FF FF 7F 7B F8  FF FF 7F 6F 76 F8 FF FF  ......{....ov...
0190: 7F 1C 17 80 59 01 F8 FF  FF 7F 19 80 00           ....Y........   
```

## Opcodes

```
  0: 0x015F [0x84] ADJUST_RENDER_FLAGS3_BIT0()
  1: 0x0160 [0xBA] SET_ENTITY_POSITION(entity_id=EventEntity, pos_x=-21.485*, pos_z=102.690*, pos_y=-17.300*, direction=315.0°*)
  2: 0x016D [0x80] LOAD_WAIT(entity=EventEntity)
  3: 0x0172 [0x1C] WAIT(15* ticks)
  4: 0x0175 [0x59] UPDATE_ENTITY_DATA: Set EventEntity turn speed = 800*
  5: 0x017D [0x4A] EventEntity looks at LocalPlayer
  6: 0x0186 [0x7B] EventEntity stops talking
  7: 0x018B [0x6F] WAIT_FRAME_DELAY: Yield until WaitTime reaches zero
  8: 0x018C [0x76] CHECK_ENTITY_RENDER_FLAGS: Wait until EventEntity Render.Flags0 and Render.Flags3 conditions are met
  9: 0x0191 [0x1C] WAIT(15* ticks)
 10: 0x0194 [0x59] UPDATE_ENTITY_DATA: Set EventEntity turn speed = 100*
 11: 0x019C [0x00] END_REQSTACK()
```
