# Event 132

## Metadata

| Field           | Value    |
|-----------------|----------|
| Event Index     | 5/9      |
| Offset          | 0x00C9   |
| Data Size       | 22 bytes |
| Calculated Size | 22 bytes |
| Instructions    | 10       |

```
      00 01 02 03 04 05 06 07  08 09 0A 0B 0C 0D 0E 0F
      -- -- -- -- -- -- -- --  -- -- -- -- -- -- -- --
00C0:                             1E F0 FF FF 7F 6F 70           .....op
00D0: 1D 10 80 23 03 02 10 07  80 1D 08 80 23 21 00     ...#........#!. 
```

## Opcodes

```
  0: 0x00C9 [0x1E] EventEntity looks at LocalPlayer and starts talking
  1: 0x00CE [0x6F] WAIT_FRAME_DELAY: Yield until WaitTime reaches zero
  2: 0x00CF [0x70] WAIT_ENTITY_RENDER_FLAG: Wait while EventEntity->Render.Flags3 bit 2 is set (cancel turn if not)
  3: 0x00D0 [0x1D] PRINT_EVENT_MESSAGE(message_id=7047*)
    → "Where can you find \u0001\u0001\u0001 \u0001\u0005$\u0002\u0000\u0000\u0000? Well...you'll just have to look for yourself. Hoh-hoh.\u007F1\u0000\u0007"
  4: 0x00D3 [0x23] WAIT_FOR_DIALOG_INTERACTION
  5: 0x00D4 [0x03] Work_Zone[2] = 2825*
  6: 0x00D9 [0x1D] PRINT_EVENT_MESSAGE(message_id=7042*)
    → "Not that I'd be terribly upset with \u0001\u00056\u0002\u0000\u0000\u0000, provided you could get your hands on one.\u007F1\u0000\u0007"
  7: 0x00DC [0x23] WAIT_FOR_DIALOG_INTERACTION
  8: 0x00DD [0x21] END_EVENT
  9: 0x00DE [0x00] END_REQSTACK()
```
