# Event 65535

## Metadata

| Field           | Value     |
|-----------------|-----------|
| Event Index     | 29/52     |
| Offset          | 0x02A2    |
| Data Size       | 110 bytes |
| Calculated Size | 110 bytes |
| Instructions    | 11        |

```
      00 01 02 03 04 05 06 07  08 09 0A 0B 0C 0D 0E 0F
      -- -- -- -- -- -- -- --  -- -- -- -- -- -- -- --
02A0:       32 09 80 1F 00 0E  80 0F 80 10 80 1F 01 6F    2............o
02B0: 27 03 1C A0 01 01 02 1F  00 11 80 12 80 13 80 1F  '...............
02C0: 01 6F 27 03 1C A0 01 01  03 22 01 00 3B F8 FF FF  .o'......"..;...
02D0: 7F 01 00 02 00 03 00 3A  F8 FF FF 7F 04 00 17 05  .......:........
02E0: 00 04 00 00 00 16 06 00  04 00 00 00 07 01 00 05  ................
02F0: 00 07 02 00 06 00 1B 17  05 00 04 00 00 00 16 06  ................
0300: 00 04 00 00 00 07 01 00  05 00 07 02 00 06 00 1B  ................
```

## Opcodes

```
  0: 0x02A2 [0x32] ExtData[1]->MainSpeed = 54* * 0.1
  1: 0x02A5 [0x1F] MOVE_ENTITY: EventEntity moves to X=126.647*, Z=43.433*, Y=-41.000*
  2: 0x02AD [0x1F] MOVE_ENTITY: Update entity position (mode=1)
  3: 0x02AF [0x6F] WAIT_FRAME_DELAY: Yield until WaitTime reaches zero
  4: 0x02B0 [0x27] REQ_SET(priority=0x03, entity_id=Walnut Door (ID: 16883740/0x0101A01C), tag_num=0x02)
  5: 0x02B7 [0x1F] MOVE_ENTITY: EventEntity moves to X=118.244*, Z=42.208*, Y=-41.500*
  6: 0x02BF [0x1F] MOVE_ENTITY: Update entity position (mode=1)
  7: 0x02C1 [0x6F] WAIT_FRAME_DELAY: Yield until WaitTime reaches zero
  8: 0x02C2 [0x27] REQ_SET(priority=0x03, entity_id=Walnut Door (ID: 16883740/0x0101A01C), tag_num=0x03)
  9: 0x02C9 [0x22] ENTITY_HIDE_FLAG(enabled=0x01)
 10: 0x02CB [0x00] END_REQSTACK()
```

## Data or dead code:

```
# Dead code (unreachable instructions):
     0x02CC [0x3B] GET_ENTITY_POSITION(entity=EventEntity, x_destination=ExtData[1]->WorkLocal[1], y_destination=ExtData[1]->WorkLocal[2], z_destination=ExtData[1]->WorkLocal[3])
     0x02D7 [0x3A] CONVERT_YAW_TO_BYTE(entity=EventEntity, result_destination=ExtData[1]->WorkLocal[4])
     0x02DE [0x17] ExtData[1]->WorkLocal[5] = cos(ExtData[1]->WorkLocal[4]) * ExtData[1]->WorkLocal[0]
     0x02E5 [0x16] ExtData[1]->WorkLocal[6] = sin(ExtData[1]->WorkLocal[4]) * ExtData[1]->WorkLocal[0]
     0x02EC [0x07] ExtData[1]->WorkLocal[1] += ExtData[1]->WorkLocal[5]
     0x02F1 [0x07] ExtData[1]->WorkLocal[2] += ExtData[1]->WorkLocal[6]
     0x02F6 [0x1B] RETURN
     0x02F7 [0x17] ExtData[1]->WorkLocal[5] = cos(ExtData[1]->WorkLocal[4]) * ExtData[1]->WorkLocal[0]
     0x02FE [0x16] ExtData[1]->WorkLocal[6] = sin(ExtData[1]->WorkLocal[4]) * ExtData[1]->WorkLocal[0]
     0x0305 [0x07] ExtData[1]->WorkLocal[1] += ExtData[1]->WorkLocal[5]
     0x030A [0x07] ExtData[1]->WorkLocal[2] += ExtData[1]->WorkLocal[6]
     0x030F [0x1B] RETURN
```