# Event 65535

## Metadata

| Field           | Value    |
|-----------------|----------|
| Event Index     | 28/52    |
| Offset          | 0x028C   |
| Data Size       | 22 bytes |
| Calculated Size | 22 bytes |
| Instructions    | 9        |

```
      00 01 02 03 04 05 06 07  08 09 0A 0B 0C 0D 0E 0F
      -- -- -- -- -- -- -- --  -- -- -- -- -- -- -- --
0280:                                      A4 01 32 09              ..2.
0290: 80 1F 00 0A 80 0B 80 0C  80 1F 01 6F 39 0D 80 6F  ...........o9..o
02A0: 70 00                                             p.              
```

## Opcodes

```
  0: 0x028C [0xA4] EventEntity->Flags3.unknown_3_2 = 1
  1: 0x028E [0x32] ExtData[1]->MainSpeed = 54* * 0.1
  2: 0x0291 [0x1F] MOVE_ENTITY: EventEntity moves to X=130.159*, Z=47.006*, Y=-40.999*
  3: 0x0299 [0x1F] MOVE_ENTITY: Update entity position (mode=1)
  4: 0x029B [0x6F] WAIT_FRAME_DELAY: Yield until WaitTime reaches zero
  5: 0x029C [0x39] SET_ENTITY_DIRECTION(direction=21.3°*)
  6: 0x029F [0x6F] WAIT_FRAME_DELAY: Yield until WaitTime reaches zero
  7: 0x02A0 [0x70] WAIT_ENTITY_RENDER_FLAG: Wait while EventEntity->Render.Flags3 bit 2 is set (cancel turn if not)
  8: 0x02A1 [0x00] END_REQSTACK()
```
