# Event 65535

## Metadata

| Field           | Value     |
|-----------------|-----------|
| Event Index     | 29/52     |
| Offset          | 0x02A2    |
| Data Size       | 110 bytes |
| Calculated Size | 110 bytes |
| Instructions    | 12        |

```
      00 01 02 03 04 05 06 07  08 09 0A 0B 0C 0D 0E 0F
      -- -- -- -- -- -- -- --  -- -- -- -- -- -- -- --
02A0:       32 09 80 1F 00 0E  80 0F 80 10 80 1F 01 6F    2............o
02B0: 27 03 1C A0 01 01 02 1F  00 11 80 12 80 13 80 1F  '...............
02C0: 01 6F 27 03 1C A0 01 01  03 22 01 00 3B F8 FF FF  .o'......"..;...
02D0: 7F 01 00 02 00 03 00 3A  F8 FF FF 7F 04 00 17 05  .......:........
02E0: 00 04 00 00 00 16 06 00  04 00 00 00 07 01 00 05  ................
02F0: 00 07 02 00 06 00 1B 17  05 00 04 00 00 00 16 06  ................
0300: 00 04 00 00 00 07 01 00  05 00 07 02 00 06 00 1B  ................
```

## Opcodes

```
  0: 0x02A2 [0x32] ExtData[1]->MainSpeed = 54* * 0.1
  1: 0x02A5 [0x1F] MOVE_ENTITY: EventEntity moves to X=126.647*, Z=43.433*, Y=-41.000*
  2: 0x02AD [0x1F] MOVE_ENTITY: Update entity position (mode=1)
  3: 0x02AF [0x6F] WAIT_FRAME_DELAY: Yield until WaitTime reaches zero
  4: 0x02B0 [0x27] REQ_SET(priority=0x03, entity_id=Walnut Door (ID: 16883740/0x0101A01C), tag_num=0x02)
  5: 0x02B7 [0x1F] MOVE_ENTITY: EventEntity moves to X=118.244*, Z=42.208*, Y=-41.500*
  6: 0x02BF [0x1F] MOVE_ENTITY: Update entity position (mode=1)
  7: 0x02C1 [0x6F] WAIT_FRAME_DELAY: Yield until WaitTime reaches zero
  8: 0x02C2 [0x27] REQ_SET(priority=0x03, entity_id=Walnut Door (ID: 16883740/0x0101A01C), tag_num=0x03)
  9: 0x02C9 [0x22] ENTITY_HIDE_FLAG(enabled=0x01)
 10: 0x02CB [0x00] END_REQSTACK()
```

## Data or dead code:

```
# Data Section: 0x02CC (68 bytes)
     0x02CC: 3B F8 FF FF 7F 01 00 02 00 03 00 3A F8 FF FF 7F
     0x02DC: 04 00 17 05 00 04 00 00 00 16 06 00 04 00 00 00
     0x02EC: 07 01 00 05 00 07 02 00 06 00 1B 17 05 00 04 00
     0x02FC: 00 00 16 06 00 04 00 00 00 07 01 00 05 00 07 02
     0x030C: 00 06 00 1B
```