# Event 65535

## Metadata

| Field           | Value    |
|-----------------|----------|
| Event Index     | 11/19    |
| Offset          | 0x0071   |
| Data Size       | 33 bytes |
| Calculated Size | 33 bytes |
| Instructions    | 9        |

```
      00 01 02 03 04 05 06 07  08 09 0A 0B 0C 0D 0E 0F
      -- -- -- -- -- -- -- --  -- -- -- -- -- -- -- --
0070:    1C 0F 80 32 10 80 1F  00 11 80 12 80 13 80 1F   ...2...........
0080: 01 6F 1C 14 80 6E E7 92  08 01 15 80 99 E7 92 08  .o...n..........
0090: 01 00                                             ..              
```

## Opcodes

```
  0: 0x0071 [0x1C] WAIT(180* ticks)
  1: 0x0074 [0x32] ExtData[1]->MainSpeed = 10* * 0.1
  2: 0x0077 [0x1F] MOVE_ENTITY: EventEntity moves to X=526.291*, Z=-285.100*, Y=0.057*
  3: 0x007F [0x1F] MOVE_ENTITY: Update entity position (mode=1)
  4: 0x0081 [0x6F] WAIT_FRAME_DELAY: Yield until WaitTime reaches zero
  5: 0x0082 [0x1C] WAIT(90* ticks)
  6: 0x0085 [0x6E] kisiC (ID: 17339111/0x010892E7) uses emote 2*
  7: 0x008C [0x99] Wait for kisiC (ID: 17339111/0x010892E7) animation to complete
  8: 0x0091 [0x00] END_REQSTACK()
```
