# 17969977 - Shiftrix

## Common Data

| Field            | Value                |
|------------------|----------------------|
| Zone             | Reisenjima (ID: 291) |
| Block Size       | 11928 bytes          |
| Total Events     | 6                    |
| References Count | 415                  |

## List of Events

| Event ID              | Entrypoint   |   Size |   Instructions |
|-----------------------|--------------|--------|----------------|
| [65535](#event-65535) | 0x0000       |      1 |              1 |
| [9700](#event-9700)   | 0x0001       |      5 |              3 |
| [9701](#event-9701)   | 0x0006       |      5 |              3 |
| [9702](#event-9702)   | 0x000B       |      5 |              3 |
| [9703](#event-9703)   | 0x0010       |      5 |              3 |
| [9704](#event-9704)   | 0x0015       |  10206 |           2268 |

## DAT References (imed_data)

|   Index | Hex Value   |   Dec Value |
|---------|-------------|-------------|
|       0 | 0x0000      |           0 |
|       1 | 0x000F      |          15 |
|       2 | 0x0010      |          16 |
|       3 | 0x0017      |          23 |
|       4 | 0x0018      |          24 |
|       5 | 0x001F      |          31 |
|       6 | 0x0007      |           7 |
|       7 | 0x000E      |          14 |
|       8 | 0x0008      |           8 |
|       9 | 0x1E25      |        7717 |
|      10 | 0x1E26      |        7718 |
|      11 | 0x1E27      |        7719 |
|      12 | 0x1E28      |        7720 |
|      13 | 0x1E29      |        7721 |
|      14 | 0x1E2A      |        7722 |
|      15 | 0x0001      |           1 |
|      16 | 0x0002      |           2 |
|      17 | 0x0003      |           3 |
|      18 | 0x1E2B      |        7723 |
|      19 | 0x0004      |           4 |
|      20 | 0x0005      |           5 |
|      21 | 0x1E62      |        7778 |
|      22 | 0x1E63      |        7779 |
|      23 | 0x1E64      |        7780 |
|      24 | 0x000D      |          13 |
|      25 | 0x03FE      |        1022 |
|      26 | 0x1DDE      |        7646 |
|      27 | 0x40000000  |  1073741824 |
|      28 | 0x000A      |          10 |
|      29 | 0x1E2C      |        7724 |
|      30 | 0x1DC7      |        7623 |
|      31 | 0x1E2D      |        7725 |
|      32 | 0x1E31      |        7729 |
|      33 | 0x1E2E      |        7726 |
|      34 | 0x0006      |           6 |
|      35 | 0x0009      |           9 |
|      36 | 0x1E83      |        7811 |
|      37 | 0x1E84      |        7812 |
|      38 | 0x0014      |          20 |
|      39 | 0xFFFFFFFF  |  4294967295 |
|      40 | 0x1DE3      |        7651 |
|      41 | 0x1DE4      |        7652 |
|      42 | 0x1DE5      |        7653 |
|      43 | 0x1DE6      |        7654 |
|      44 | 0x1DE7      |        7655 |
|      45 | 0x1DE8      |        7656 |
|      46 | 0x1DE9      |        7657 |
|      47 | 0x1DEA      |        7658 |
|      48 | 0x1DEB      |        7659 |
|      49 | 0x1DEC      |        7660 |
|      50 | 0x0B17      |        2839 |
|      51 | 0x0B4E      |        2894 |
|      52 | 0x1DED      |        7661 |
|      53 | 0x000B      |          11 |
|      54 | 0x1DEE      |        7662 |
|      55 | 0x1DE0      |        7648 |
|      56 | 0x1E6C      |        7788 |
|      57 | 0xFFFFF830  |  4294965296 |
|      58 | 0xE86C      |       59500 |
|      59 | 0x0400      |        1024 |
|      60 | 0x000C      |          12 |
|      61 | 0xFFFC5E50  |  4294729296 |
|      62 | 0xFFFF55B0  |  4294923696 |
|      63 | 0x0C00      |        3072 |
|      64 | 0x9C400     |      640000 |
|      65 | 0xFFF1F258  |  4294046296 |
|      66 | 0xFFFA52E0  |  4294595296 |
|      67 | 0x0600      |        1536 |
|      68 | 0x1E6B      |        7787 |
|      69 | 0x1E65      |        7781 |
|      70 | 0x1DDF      |        7647 |
|      71 | 0x1B79      |        7033 |
|      72 | 0x1E66      |        7782 |
|      73 | 0x1E68      |        7784 |
|      74 | 0x1E69      |        7785 |
|      75 | 0x1E6A      |        7786 |
|      76 | 0x1E67      |        7783 |
|      77 | 0x1DC8      |        7624 |
|      78 | 0x03E8      |        1000 |
|      79 | 0x1E30      |        7728 |
|      80 | 0x1DC9      |        7625 |
|      81 | 0x18FA      |        6394 |
|      82 | 0x1E5F      |        7775 |
|      83 | 0x0032      |          50 |
|      84 | 0x1E5E      |        7774 |
|      85 | 0x0903      |        2307 |
|      86 | 0x1E61      |        7777 |
|      87 | 0x0B68      |        2920 |
|      88 | 0x07D0      |        2000 |
|      89 | 0x1E60      |        7776 |
|      90 | 0x0904      |        2308 |
|      91 | 0x0B69      |        2921 |
|      92 | 0x2710      |       10000 |
|      93 | 0x0905      |        2309 |
|      94 | 0x0B6A      |        2922 |
|      95 | 0xC350      |       50000 |
|      96 | 0x1E88      |        7816 |
|      97 | 0x1E89      |        7817 |
|      98 | 0x0BD7      |        3031 |
|      99 | 0x1E8A      |        7818 |
|     100 | 0x1E86      |        7814 |
|     101 | 0x0BD8      |        3032 |
|     102 | 0x01F4      |         500 |
|     103 | 0x1E87      |        7815 |
|     104 | 0x0BAA      |        2986 |
|     105 | 0x1DCA      |        7626 |
|     106 | 0x0011      |          17 |
|     107 | 0x0012      |          18 |
|     108 | 0x0015      |          21 |
|     109 | 0x1DCD      |        7629 |
|     110 | 0x1DCE      |        7630 |
|     111 | 0x1DCC      |        7628 |
|     112 | 0x1DD0      |        7632 |
|     113 | 0x0013      |          19 |
|     114 | 0x1DD1      |        7633 |
|     115 | 0x1E32      |        7730 |
|     116 | 0x1DD3      |        7635 |
|     117 | 0x1DD4      |        7636 |
|     118 | 0x1E33      |        7731 |
|     119 | 0x1E34      |        7732 |
|     120 | 0x1DD5      |        7637 |
|     121 | 0x1DD6      |        7638 |
|     122 | 0x1E35      |        7733 |
|     123 | 0x1DD7      |        7639 |
|     124 | 0x1DD8      |        7640 |
|     125 | 0x1DD9      |        7641 |
|     126 | 0x1DDA      |        7642 |
|     127 | 0x1DDB      |        7643 |
|     128 | 0x1E36      |        7734 |
|     129 | 0x1DDC      |        7644 |
|     130 | 0x002F      |          47 |
|     131 | 0x1E37      |        7735 |
|     132 | 0x1E38      |        7736 |
|     133 | 0x0020      |          32 |
|     134 | 0x1DE1      |        7649 |
|     135 | 0x1E39      |        7737 |
|     136 | 0x1E3A      |        7738 |
|     137 | 0x1E3B      |        7739 |
|     138 | 0x1E3C      |        7740 |
|     139 | 0x1E3D      |        7741 |
|     140 | 0x1E3E      |        7742 |
|     141 | 0x1E3F      |        7743 |
|     142 | 0x23BC      |        9148 |
|     143 | 0x1E40      |        7744 |
|     144 | 0x1E41      |        7745 |
|     145 | 0x1E42      |        7746 |
|     146 | 0x1E43      |        7747 |
|     147 | 0x1E44      |        7748 |
|     148 | 0x1E45      |        7749 |
|     149 | 0x1E46      |        7750 |
|     150 | 0x1E47      |        7751 |
|     151 | 0x1E48      |        7752 |
|     152 | 0x1E49      |        7753 |
|     153 | 0x1E4A      |        7754 |
|     154 | 0x1E4B      |        7755 |
|     155 | 0x1E4C      |        7756 |
|     156 | 0x1E4D      |        7757 |
|     157 | 0x1E4E      |        7758 |
|     158 | 0x1E4F      |        7759 |
|     159 | 0x1E50      |        7760 |
|     160 | 0x1E51      |        7761 |
|     161 | 0x1E52      |        7762 |
|     162 | 0x1E53      |        7763 |
|     163 | 0x1E54      |        7764 |
|     164 | 0x1E55      |        7765 |
|     165 | 0x1E56      |        7766 |
|     166 | 0x1E57      |        7767 |
|     167 | 0x1E58      |        7768 |
|     168 | 0x1E5A      |        7770 |
|     169 | 0x1E5B      |        7771 |
|     170 | 0x1E5C      |        7772 |
|     171 | 0x1E5D      |        7773 |
|     172 | 0x1E8B      |        7819 |
|     173 | 0x1E8C      |        7820 |
|     174 | 0x1E8D      |        7821 |
|     175 | 0x1DE2      |        7650 |
|     176 | 0x1E6D      |        7789 |
|     177 | 0x1E6E      |        7790 |
|     178 | 0x1E6F      |        7791 |
|     179 | 0x1E70      |        7792 |
|     180 | 0x1E71      |        7793 |
|     181 | 0x1E72      |        7794 |
|     182 | 0x1E73      |        7795 |
|     183 | 0x1E74      |        7796 |
|     184 | 0x1E75      |        7797 |
|     185 | 0x1E76      |        7798 |
|     186 | 0x1E77      |        7799 |
|     187 | 0x1E78      |        7800 |
|     188 | 0x1E79      |        7801 |
|     189 | 0x1E7A      |        7802 |
|     190 | 0x1E7B      |        7803 |
|     191 | 0x1E7C      |        7804 |
|     192 | 0x1E7D      |        7805 |
|     193 | 0x1E7E      |        7806 |
|     194 | 0x1E85      |        7813 |
|     195 | 0x1E7F      |        7807 |
|     196 | 0x1E80      |        7808 |
|     197 | 0x1E81      |        7809 |
|     198 | 0x1E82      |        7810 |
|     199 | 0x1DCB      |        7627 |
|     200 | 0x0B5F      |        2911 |
|     201 | 0x0B61      |        2913 |
|     202 | 0x0B63      |        2915 |
|     203 | 0x0B60      |        2912 |
|     204 | 0x0B62      |        2914 |
|     205 | 0x0B64      |        2916 |
|     206 | 0x1B7B      |        7035 |
|     207 | 0x00A8      |         168 |
|     208 | 0x00A0      |         160 |
|     209 | 0x00C8      |         200 |
|     210 | 0x003C      |          60 |
|     211 | 0x00A9      |         169 |
|     212 | 0x00B9      |         185 |
|     213 | 0x1056      |        4182 |
|     214 | 0x106A      |        4202 |
|     215 | 0x106E      |        4206 |
|     216 | 0x109E      |        4254 |
|     217 | 0x1509      |        5385 |
|     218 | 0x150A      |        5386 |
|     219 | 0x150B      |        5387 |
|     220 | 0x150C      |        5388 |
|     221 | 0x150D      |        5389 |
|     222 | 0x150E      |        5390 |
|     223 | 0x150F      |        5391 |
|     224 | 0x1510      |        5392 |
|     225 | 0x1511      |        5393 |
|     226 | 0x1512      |        5394 |
|     227 | 0x1513      |        5395 |
|     228 | 0x1515      |        5397 |
|     229 | 0x16C0      |        5824 |
|     230 | 0x16C1      |        5825 |
|     231 | 0x16C2      |        5826 |
|     232 | 0x16C3      |        5827 |
|     233 | 0x16C4      |        5828 |
|     234 | 0x16C5      |        5829 |
|     235 | 0x16C6      |        5830 |
|     236 | 0x16CA      |        5834 |
|     237 | 0x16CB      |        5835 |
|     238 | 0x16CC      |        5836 |
|     239 | 0x16CD      |        5837 |
|     240 | 0x16CE      |        5838 |
|     241 | 0x18FF      |        6399 |
|     242 | 0x1900      |        6400 |
|     243 | 0x1901      |        6401 |
|     244 | 0x1902      |        6402 |
|     245 | 0x14CA      |        5322 |
|     246 | 0x109F      |        4255 |
|     247 | 0x1070      |        4208 |
|     248 | 0x194A      |        6474 |
|     249 | 0x16C8      |        5832 |
|     250 | 0x16C9      |        5833 |
|     251 | 0x153F      |        5439 |
|     252 | 0x16C7      |        5831 |
|     253 | 0x153C      |        5436 |
|     254 | 0x16DD      |        5853 |
|     255 | 0x194B      |        6475 |
|     256 | 0x1949      |        6473 |
|     257 | 0x194C      |        6476 |
|     258 | 0x194D      |        6477 |
|     259 | 0x194E      |        6478 |
|     260 | 0x001E      |          30 |
|     261 | 0x0096      |         150 |
|     262 | 0x00B4      |         180 |
|     263 | 0x005A      |          90 |
|     264 | 0x00F0      |         240 |
|     265 | 0x0384      |         900 |
|     266 | 0x010E      |         270 |
|     267 | 0x0258      |         600 |
|     268 | 0x0078      |         120 |
|     269 | 0x0168      |         360 |
|     270 | 0x012C      |         300 |
|     271 | 0xA7D8C0    |    11000000 |
|     272 | 0x0BB8      |        3000 |
|     273 | 0x001A      |          26 |
|     274 | 0x0016      |          22 |
|     275 | 0x0019      |          25 |
|     276 | 0x001B      |          27 |
|     277 | 0x001C      |          28 |
|     278 | 0x001D      |          29 |
|     279 | 0x0021      |          33 |
|     280 | 0x0022      |          34 |
|     281 | 0x0023      |          35 |
|     282 | 0x0024      |          36 |
|     283 | 0x0025      |          37 |
|     284 | 0x0026      |          38 |
|     285 | 0x0027      |          39 |
|     286 | 0x0028      |          40 |
|     287 | 0x0029      |          41 |
|     288 | 0x002A      |          42 |
|     289 | 0x002B      |          43 |
|     290 | 0x002C      |          44 |
|     291 | 0x002D      |          45 |
|     292 | 0x002E      |          46 |
|     293 | 0x0B4F      |        2895 |
|     294 | 0x0B50      |        2896 |
|     295 | 0x0B51      |        2897 |
|     296 | 0x0B52      |        2898 |
|     297 | 0x0B53      |        2899 |
|     298 | 0x0B54      |        2900 |
|     299 | 0x0B55      |        2901 |
|     300 | 0x0B56      |        2902 |
|     301 | 0x0B57      |        2903 |
|     302 | 0x0B58      |        2904 |
|     303 | 0x0B59      |        2905 |
|     304 | 0x0B5A      |        2906 |
|     305 | 0x0B65      |        2917 |
|     306 | 0x0B66      |        2918 |
|     307 | 0x0B67      |        2919 |
|     308 | 0x2361      |        9057 |
|     309 | 0x2364      |        9060 |
|     310 | 0x0FDD      |        4061 |
|     311 | 0x0FDC      |        4060 |
|     312 | 0x0FDB      |        4059 |
|     313 | 0x0B6F      |        2927 |
|     314 | 0x0B70      |        2928 |
|     315 | 0x0B71      |        2929 |
|     316 | 0x0B72      |        2930 |
|     317 | 0x0B73      |        2931 |
|     318 | 0x0B74      |        2932 |
|     319 | 0x0B75      |        2933 |
|     320 | 0x0B76      |        2934 |
|     321 | 0x0B77      |        2935 |
|     322 | 0x0B78      |        2936 |
|     323 | 0x0B79      |        2937 |
|     324 | 0x0B7A      |        2938 |
|     325 | 0x0B7B      |        2939 |
|     326 | 0x0B7C      |        2940 |
|     327 | 0x0B7D      |        2941 |
|     328 | 0x0B7E      |        2942 |
|     329 | 0x0B7F      |        2943 |
|     330 | 0x0B80      |        2944 |
|     331 | 0x0B81      |        2945 |
|     332 | 0x0B82      |        2946 |
|     333 | 0x0B83      |        2947 |
|     334 | 0x238F      |        9103 |
|     335 | 0x2363      |        9059 |
|     336 | 0x2390      |        9104 |
|     337 | 0x2389      |        9097 |
|     338 | 0x235B      |        9051 |
|     339 | 0x2347      |        9031 |
|     340 | 0x0FAD      |        4013 |
|     341 | 0x0FAF      |        4015 |
|     342 | 0x2232      |        8754 |
|     343 | 0x0BAF      |        2991 |
|     344 | 0x0BB0      |        2992 |
|     345 | 0x0BB1      |        2993 |
|     346 | 0x0BB2      |        2994 |
|     347 | 0x0BB3      |        2995 |
|     348 | 0x0BB4      |        2996 |
|     349 | 0x0BB5      |        2997 |
|     350 | 0x0BB6      |        2998 |
|     351 | 0x0BB7      |        2999 |
|     352 | 0x0BB9      |        3001 |
|     353 | 0x0BBA      |        3002 |
|     354 | 0x0BBB      |        3003 |
|     355 | 0x0BBC      |        3004 |
|     356 | 0x0BBD      |        3005 |
|     357 | 0x0BBE      |        3006 |
|     358 | 0x0BBF      |        3007 |
|     359 | 0x0BC0      |        3008 |
|     360 | 0x0BC1      |        3009 |
|     361 | 0x0BC2      |        3010 |
|     362 | 0x0BC3      |        3011 |
|     363 | 0x188E      |        6286 |
|     364 | 0x1890      |        6288 |
|     365 | 0x1892      |        6290 |
|     366 | 0x1894      |        6292 |
|     367 | 0x1896      |        6294 |
|     368 | 0x1898      |        6296 |
|     369 | 0x23BF      |        9151 |
|     370 | 0x23BD      |        9149 |
|     371 | 0x23BE      |        9150 |
|     372 | 0x0064      |         100 |
|     373 | 0x0190      |         400 |
|     374 | 0x02BC      |         700 |
|     375 | 0x0320      |         800 |
|     376 | 0x044C      |        1100 |
|     377 | 0x04B0      |        1200 |
|     378 | 0x0514      |        1300 |
|     379 | 0x0578      |        1400 |
|     380 | 0x05DC      |        1500 |
|     381 | 0x1388      |        5000 |
|     382 | 0x61A8      |       25000 |
|     383 | 0x124F8     |       75000 |
|     384 | 0x1ADB0     |      110000 |
|     385 | 0x015E      |         350 |
|     386 | 0x0226      |         550 |
|     387 | 0x0050      |          80 |
|     388 | 0x028E      |         654 |
|     389 | 0x02CD      |         717 |
|     390 | 0x033D      |         829 |
|     391 | 0x065D      |        1629 |
|     392 | 0x02E9      |         745 |
|     393 | 0x3323      |       13091 |
|     394 | 0x40B4      |       16564 |
|     395 | 0x40C5      |       16581 |
|     396 | 0x112E      |        4398 |
|     397 | 0x028C      |         652 |
|     398 | 0x02CF      |         719 |
|     399 | 0x08F0      |        2288 |
|     400 | 0x084C      |        2124 |
|     401 | 0x02EA      |         746 |
|     402 | 0x369D      |       13981 |
|     403 | 0x03A3      |         931 |
|     404 | 0x11D3      |        4563 |
|     405 | 0x117F      |        4479 |
|     406 | 0x300E      |       12302 |
|     407 | 0x02D0      |         720 |
|     408 | 0x3396      |       13206 |
|     409 | 0x035E      |         862 |
|     410 | 0x369F      |       13983 |
|     411 | 0x44C1      |       17601 |
|     412 | 0x4076      |       16502 |
|     413 | 0x1142      |        4418 |
|     414 | 0x1177      |        4471 |

## String References

- **6394**: Obtained key item: 3.
- **7033**: Alter egos may be used here without any effect on enmity.
- **7035**: $0 $1 $2 $3
- **7623**: Pay silt? (current silt: $0) [Yes. (pay $1 silt)/Maybe not.]
- **7624**: Choose which item? (silt: $0) [Never mind./$3: $17 silt./$3: $18 silt./$3: $19 silt./$3: $20 silt./$3: $21 silt./$3: $22 silt./$3: $23 silt./$3: $24 silt./$3: $25 silt./$3: $26 silt./$3: $27 silt./$3: $28 silt./$3: $29 silt./$3: $30 silt./$3: $31 silt./$3: $ silt./Previous page./Next page.]
- **7625**: Pay silt? (current silt: $0) [Yes. (pay $1 silt)/Maybe not.]
- **7626**: View which item? [None./$3./$3./$3./$3./$3./$3./$3./$3./$3./$3./$3./$3./$3./$3./$3./$3./Previous page./Next page.]
- **7627**: Which do you choose? [None./$3./$3./$3./$3./$3./$3./$3./$3./$3./$3./$3./$3./$3./$3./$3./$3./Previous page./Next page.]
- **7628**: $1 $0 .
- **7629**: $3 requires the following items.
- **7632**: Which do you choose? ($0 silt) [No vorseals for now./[HP+, MP+/Regen+]: $1/$17./[Acc.+, Eva.+/Refresh+]: $2/$18./[DEF+/Acc.++]: $3/$19./[Atk.+, Rng. Atk.+/]: $4/$20./[Mag. Acc.+, Mag. Eva.+/]: $5/$21./[Mag. Def.+/]: $6/$22./[Mag. Atk.+/]: $7/$23./[DEX+, AGI+/]: $8/$24./[STR+, VIT+/]: $9/$25./[INT+, MND+, CHR+/]: $10/$26./[Occ. ignore damage/]: $11/$27./[Killer+/]: $12/$28./[Dmg. Taken-/]: $13/$29./[Spoils+/]: $14/$30./[Rare Enemy+/]: $15/$31./[Luck+/]: $16/$ ./Previous page./Next page.]
- **7633**: How many would you like? ($0 silt) [None for now./$1 seal[/s]: $17 silt./$2 seal[/s]: $18 silt./$3 seal[/s]: $19 silt./$4 seal[/s]: $20 silt./$5 seal[/s]: $21 silt./$6 seal[/s]: $22 silt./$7 seal[/s]: $23 silt./$8 seal[/s]: $24 silt./$9 seal[/s]: $25 silt./$10 seal[/s]: $26 silt./$11 seal[/s]: $27 silt./$12 seal[/s]: $28 silt./$13 seal[/s]: $29 silt./$14 seal[/s]: $30 silt./$15 seal[/s]: $31 silt./$16 seal[/s]: $ silt./Previous page./Next page.]
- **7635**: The vorseal begins to pulse a vibrant blue!
- **7636**: Return which vorseal? [None of these./[HP+, MP+/Regen+]: $1./[Acc.+, Eva.+/Refresh+]: $2./[Def.+/Acc.++]: $3./[Atk.+, Rng. Atk.+/]: $4./[Mag. Acc.+, Mag. Eva.+/]: $5./[Mag. Def.+/]: $6./[Mag. Atk.+/]: $7./[DEX+, AGI+/]: $8./[STR+, VIT+/]: $9./[INT+, MND+, CHR+/]: $10./[Occ. ignore damage/]: $11./[Killer+/]: $12./[Dmg. taken -/]: $13./[Spoils+/]: $14./[Rare Enemy+/]: $15./[Luck+/]: $16./Previous page./Next page.]
- **7637**: Return the vorseal? [Here you go./No. I still need it.]
- **7638**: You feel the vorseal's energy fade away.
- **7639**: HP+, MP+: $0 seal[/s]. Acc.+, Eva.+: $1 seal[/s]. Def.+: $2 seal[/s]. Atk.+, Rng. Atk.+: $3 seal[/s].
- **7640**: Mag. Atk, Mag. Eva.: $0 seal[/s]. Mag. Def.+: $1 seal[/s]. Mag. Atk.+: $2 seal[/s]. DEX+, AGI+: $3 seal[/s].
- **7641**: STR+, VIT+: $0 seal[/s]. INT+, MND+, CHR+: $1 seal[/s]. Occ. ignore damage: $2 seal[/s]. Killer+: $3 seal[/s].
- **7642**: Dmg. taken-: $0 seal[/s]. Rare enemy+: $2 seal[/s]. Luck+: $3 seal[/s].
- **7643**: Regen+: $0 seal[/s]. Refresh+: $1 seal[/s]. Acc.++: $2 seal[/s].
- **7646**: What would you like to do? [Nothing in particular./[Receive elvorseal/Return elvorseal]./Teleport to the target monster./Check area blessings./Receive key items./View grisly trinket notes./Receive vorseals./Return vorseals./Check vorseal effects./Receive temporary items./Hear various explanations.]
- **7647**: [You feel the warmth of the elvorseal's divine protection./The warmth of the elvorseal fades away.]
- **7648**: Teleport to the target? [I'm ready./Not quite yet.]
- **7649**: Ask about what? [Nothing./What is this place?/What are [eschan portals/ethereal ingresses]?/What is escha silt?/What are escha beads?/What are tribulenses?/What are grisly trinkets?/What are vorseals?/What temporary items do you have?/What's with the book?/What is this "unusual monster"?]
- **7650**: Ask about what? [Nothing./About the monster./About elvorseals./About the dropped items./What happens if we defeat it?]
- **7651**: Which active blessing will you check? [None of them. Go back./Temperance./Fortitude./Piety./Justice./Hope./Wisdom./Compassion./Dignity./Loyalty./Mercy./Courage.]
- **7652**: Temperance: Reduces the silt cost of eschan portals.
- **7653**: Fortitude: Increases the status effects of vorseals.
- **7654**: Piety: Increases the effect duration of vorseals.
- **7655**: Justice: Increases "Treasure Hunter" ability by 1.
- **7656**: Hope: Increases the chances of an emblazoned reliquary appearing.
- **7657**: Wisdom: Increases the effect duration of food.
- **7658**: Compassion: Increases the "Refresh" and "Regen" effects of vorseals.
- **7659**: Dignity: Increases escha silt yields.
- **7660**: Loyalty: Increases escha beads yields.
- **7661**: Mercy: $5 and $5 have a chance of not being consumed.
- **7662**: Courage: Increases the "Rare enemy+" effects of vorseals.
- **7717**: Hey, Man[/-lady], you come here! Shiftrix knew it, hehehe.
- **7718**: This is Shiftrix. Shiftrix sell things. People come to island-rock, buy things from Shiftrix. Man-person from Tenshodo say so.
- **7719**: Is Shiftrix from Tenshodo? Who cares? Doesn't matter.
- **7720**: Shiftrix sell anyway.
- **7721**: If Man[/-lady] want buy, need escha silt.
- **7722**: Man[/-lady] get silt from monsters. Clobber monsters, get silt. Then trade with Shiftrix.
- **7723**: What you want, Man[/-lady]?
- **7724**: First you need make contract with Shiftrix. Pay $0 silt, then Man[/-lady] is Shiftrix customer.
- **7725**: Good silt. Nice and gray. Now Man[/-lady] buy from Shiftrix only. You want something, talk to Shiftrix.
- **7726**: No silt, no sell. Now go away.
- **7728**: Man[/-lady] want this? Is $1 silt.
- **7729**: No silt? Get out of here, Man[/-lady].
- **7730**: This good silt. Make Shiftrix happy. Here you go, Man[/-lady].
- **7731**: Don't want boarseal no more? Blessing go poof, that okay with you, Man[/-lady]?
- **7732**: Okay, okay. Give to Shiftrix. If Man[/-lady] want another boarseal, can buy again with silt. Any time good time.
- **7733**: Okay, okay. Man[/-lady]'s blessings is all this:
- **7734**: That's all the blessings. There no more.
- **7735**: You want this? It good $0. Is $1 silt. That's cheap.
- **7736**: Have nice day.
- **7737**: This rock? People call rock "Raisin-jimmies." Shiftrix don't like. Trees too skinny. Bugs too noisy.
- **7738**: No people live on rock now. See big black thing over there? People get scared, run from rock.
- **7739**: Shiftrix see lady-person little while back. Ran all way north to weird shrine, maybe.
- **7740**: You want go there? Keep on path, keep going till see weird shrine. Careful now. Don't be tiger food. Man[/-lady] is Shiftrix customer now.
- **7741**: That? That that. Is shiny thing, over there. People call 'em "ebeereal princesses." Don't know why.
- **7742**: You go in that. Come out other side, different place, poof! Is magic.
- **7743**: But you need escha silt. Pebbles and sand don't work. Shiftrix already try.
- **7744**: Can only poof to shiny thing you already touched, so don't be dumb. You see shiny, you touch it.
- **7745**: Yeah. That's what Shiftrix here for. Monsters here full of it.
- **7746**: Shiftrix don't like fighting.
- **7747**: So get people to trade him it for things. Take it, give things.
- **7748**: "Eggs and beans"?
- **7749**: No clue.
- **7750**: Oh that? Is good. Carry tripoolens, spooky monster come out.
- **7751**: Tripoolens, very popular.
- **7752**: You should buy one. Sell more than $1, price goes up. Supply, demand, that's eggo-nomics, Man[/-lady].
- **7753**: You wait some, maybe price go down again.
- **7754**: Oh yeah. You need grisly trinket too. It good.
- **7755**: Take it, bring it to right place, monster come out. Fun times.
- **7756**: They like tripoolens, you need both.
- **7757**: There lots of types.
- **7758**: Different monsters like different types.
- **7759**: Shiftrix smart. Shiftrix write it all down so Shiftrix remember. If you forget, ask Shiftrix. He show you.
- **7760**: "Boarseals"?
- **7761**: No clue.
- **7762**: Oh, but Shiftrix sell them. Man-person say people buy them, so Shiftrix sell them now. They give blessings. Don't know what that is.
- **7763**: You get off this rock and blessings go poof.
- **7764**: You stay on rock for one hour (Earth time) and blessings go poof, too.
- **7765**: The blessing go poof, not the boarseal.
- **7766**: You get off rock and come back, blessings un-poof, poof! Is magic.
- **7767**: You don't want blessings anymore, you give boarseal back to Shiftrix. Limited supply, less waste. That's re-bicycling, Man[/-lady].
- **7768**: But if you want boarseal again, it cost silt. That's the rules.
- **7770**: These? These from Tenshodo. Now Shiftrix has them.
- **7771**: If Man[/-lady] wants them, pay Shiftrix silt.
- **7772**: New things coming in soon.
- **7773**: Is good. Make Man[/-lady] easier to fight.
- **7774**: Here.
- **7775**: Man[/-lady] carry that. Go to Grimslights. Maybe get a prize. Maybe something good.
- **7776**: Oh, this good. Is like box.
- **7777**: You carry this. Can carry lots more silt. Good for business.
- **7778**: Oh, good. Man[/-lady] come here just in time.
- **7779**: Big dragon monster's [coming soon/shown up] here on rock. Very scary. Shiftrix want to clobber, but no can.
- **7780**: Good thing Man[/-lady] here. Take this.
- **7781**: Is thing.
- **7782**: Is free. Man[/-lady] need thing to clobber.
- **7783**: Shiftrix thought Man[/-lady] tough. Not scared of monsters. Fine, Shiftrix take back elbowseal, but disappoint.
- **7784**: This thing called "elbowseal." If Man[/-lady] have this, can poof to where Gets-a-goatl be.
- **7785**: Shiftrix don't know how work, but it do.
- **7786**: So, Man[/-lady], ready to go poof?
- **7787**: Fine. Come back to Shiftrix when ready.
- **7788**: Okay, Man[/-lady]. Clobber time go.
- **7789**: First big black thing show up, then big monster show up right after.
- **7790**: Is called "Gets-a-goatl" or something.
- **7791**: Big monster always show up at around same time, then go poof again, then show up again. You clobber little monsters, big monster show up faster.
- **7792**: Big monster don't like walking or something. Always stay in same place. Also, if don't have elbowseal, can't touch monster. Is like ghost.
- **7793**: But Shiftrix run business now. Clobber monster, get money. Shiftrix like money more than monster, so clobber monster. Fun times.
- **7794**: Shiftrix got elbowseals, lots of them.
- **7795**: You get elbowseal, can clobber Gets-a-goatl.
- **7796**: How it work? No clue, but it do.
- **7797**: Only give to super tough people. That's the rules.
- **7798**: But sometimes even stronger ones come. I stay away from those. Too tough.
- **7799**: Is like boarseal, but not.
- **7800**: Lets you clobber big monster.
- **7801**: Big monster gets clomped, elbowseal go poof too.
- **7802**: Shiftrix gives elbowseals to tough people. Weak people go away. Go clobber rabbit.
- **7803**: If Man[/-lady] leave rock, also go poof. Be careful.
- **7804**: If Man[/-lady] need another, Shiftrix gives. Is free. Shiftrix got lots.
- **7805**: So use them.
- **7806**: When big monster go down, people nearby say they get stuff.
- **7807**: One person collect them. Person live in Norg, Shirftrix hear.
- **7808**: When clobber Gets-a-goatl, good things happen here on rock.
- **7809**: Like blessings for everybody.
- **7810**: Get more silt than normal. Shiny things get cheap. Fun times.
- **7811**: Man[/-lady] want check blessings for rock? Okay.
- **7812**: Here. Shiftrix write them down. See? Smart.
- **7813**: When clobbering big monster, stuff falls out. Pick up, put in bag. Like Halloween. Fun times.
- **7814**: This thing? Carry this, rare and nasty monsters stay away. Good for hunting rabbits.
- **7815**: Here. Careful, thing go poof when leave rock.
- **7816**: Oh, rodeolens? It like tripoolens. Carry it, spooky monster come out.
- **7817**: But don't go poof when use. Instead, rodeolens lasts one hour. But careful, if leave rock, it go poof.
- **7818**: Okay, Man[/-lady]. Here go. Don't forget buy grisly trinket. Shiftrix sell those too.
- **7819**: Oh that? That good. People want know which trinket monster they clomped and other stuff.
- **7820**: So Shiftrix think, if Shiftrix write it all down in book, then they know. So Shiftrix do.
- **7821**: Go look.

## Events

### Event 65535

#### Metadata

| Field        | Value   |
|--------------|---------|
| Entrypoint   | 0x0000  |
| Data Size    | 1 bytes |
| Instructions | 1       |

```
      00 01 02 03 04 05 06 07  08 09 0A 0B 0C 0D 0E 0F
      -- -- -- -- -- -- -- --  -- -- -- -- -- -- -- --
0000: 00                                                .               
```

#### Opcodes

```
  0: 0x0000 [0x00] END_REQSTACK()
```

### Event 9700

#### Metadata

| Field        | Value   |
|--------------|---------|
| Entrypoint   | 0x0001  |
| Data Size    | 5 bytes |
| Instructions | 3       |

```
      00 01 02 03 04 05 06 07  08 09 0A 0B 0C 0D 0E 0F
      -- -- -- -- -- -- -- --  -- -- -- -- -- -- -- --
0000:    1A 1A 00 21 00                                  ...!.          
```

#### Opcodes

```
  0: 0x0001 [0x1A] CALL_SUBROUTINE(address=0x001A)
  1: 0x0004 [0x21] END_EVENT
  2: 0x0005 [0x00] END_REQSTACK()
```

### Event 9701

#### Metadata

| Field        | Value   |
|--------------|---------|
| Entrypoint   | 0x0006  |
| Data Size    | 5 bytes |
| Instructions | 3       |

```
      00 01 02 03 04 05 06 07  08 09 0A 0B 0C 0D 0E 0F
      -- -- -- -- -- -- -- --  -- -- -- -- -- -- -- --
0000:                   1A F4  00 21 00                       ...!.     
```

#### Opcodes

```
  0: 0x0006 [0x1A] CALL_SUBROUTINE(address=0x00F4)
  1: 0x0009 [0x21] END_EVENT
  2: 0x000A [0x00] END_REQSTACK()
```

### Event 9702

#### Metadata

| Field        | Value   |
|--------------|---------|
| Entrypoint   | 0x000B  |
| Data Size    | 5 bytes |
| Instructions | 3       |

```
      00 01 02 03 04 05 06 07  08 09 0A 0B 0C 0D 0E 0F
      -- -- -- -- -- -- -- --  -- -- -- -- -- -- -- --
0000:                                   1A 4E 1C 21 00             .N.!.
```

#### Opcodes

```
  0: 0x000B [0x1A] CALL_SUBROUTINE(address=0x1C4E)
  1: 0x000E [0x21] END_EVENT
  2: 0x000F [0x00] END_REQSTACK()
```

### Event 9703

#### Metadata

| Field        | Value   |
|--------------|---------|
| Entrypoint   | 0x0010  |
| Data Size    | 5 bytes |
| Instructions | 3       |

```
      00 01 02 03 04 05 06 07  08 09 0A 0B 0C 0D 0E 0F
      -- -- -- -- -- -- -- --  -- -- -- -- -- -- -- --
0010: 1A CD 1C 21 00                                    ...!.           
```

#### Opcodes

```
  0: 0x0010 [0x1A] CALL_SUBROUTINE(address=0x1CCD)
  1: 0x0013 [0x21] END_EVENT
  2: 0x0014 [0x00] END_REQSTACK()
```

### Event 9704

#### Metadata

| Field        | Value       |
|--------------|-------------|
| Entrypoint   | 0x0015      |
| Data Size    | 10206 bytes |
| Instructions | 22          |

```
      00 01 02 03 04 05 06 07  08 09 0A 0B 0C 0D 0E 0F
      -- -- -- -- -- -- -- --  -- -- -- -- -- -- -- --
0010:                1A 1E 1D  21 00 03 22 00 02 10 03       ...!.."....
0020: 09 00 03 10 41 00 80 01  80 04 10 0A 00 41 02 80  ....A........A..
0030: 03 80 04 10 21 00 41 04  80 05 80 04 10 0D 00 03  ....!.A.........
0040: 1D 00 06 10 03 1E 00 07  10 03 1F 00 08 10 03 20  ............... 
0050: 00 09 10 40 00 80 06 80  01 10 07 80 40 08 80 01  ...@........@...
0060: 80 01 10 00 80 43 00 43  01 03 0B 00 02 10 03 0C  .....C.C........
0070: 00 03 10 1E F0 FF FF 7F  6F 70 1D 09 80 23 1D 0A  ........op...#..
0080: 80 23 1D 0B 80 23 1D 0C  80 23 1D 0D 80 23 1D 0E  .#...#...#...#..
0090: 80 23 42 40 00 80 06 80  01 10 0F 80 40 08 80 01  .#B@........@...
00A0: 80 01 10 00 80 43 00 43  01 40 00 80 06 80 01 10  .....C.C.@......
00B0: 08 80 40 08 80 01 80 01  10 00 80 43 00 43 01 03  ..@........C.C..
00C0: 49 00 03 10 03 4A 00 04  10 03 4B 00 05 10 03 4C  I....J....K....L
00D0: 00 06 10 03 4D 00 07 10  03 4E 00 08 10 03 0E 00  ....M....N......
00E0: 09 10 2E 3E 0D 00 10 80  ED 00 01 F0 00 05 1B 17  ...>............
00F0: 1A 47 02 1B 03 22 00 02  10 03 09 00 03 10 41 00  .G..."........A.
0100: 80 01 80 04 10 0A 00 41  02 80 03 80 04 10 21 00  .......A......!.
0110: 41 04 80 05 80 04 10 0D  00 03 1D 00 06 10 03 1E  A...............
0120: 00 07 10 03 1F 00 08 10  03 20 00 09 10 40 00 80  ......... ...@..
0130: 06 80 01 10 07 80 40 08  80 01 80 01 10 00 80 43  ......@........C
0140: 00 43 01 03 0B 00 02 10  03 0C 00 03 10 1E F0 FF  .C..............
0150: FF 7F 6F 70 42 40 00 80  06 80 01 10 08 80 40 08  ..opB@........@.
0160: 80 01 80 01 10 00 80 43  00 43 01 03 49 00 03 10  .......C.C..I...
0170: 03 4A 00 04 10 03 4B 00  05 10 03 4C 00 06 10 03  .J....K....L....
0180: 4D 00 07 10 03 4E 00 08  10 03 0E 00 09 10 2E 06  M....N..........
0190: 1B 17 3E 0D 00 11 80 B2  01 1D 12 80 23 3E 0D 00  ..>.........#>..
01A0: 0F 80 AC 01 03 1B 17 10  80 01 AF 01 05 1B 17 01  ................
01B0: E1 01 3E 0D 00 0F 80 CD  01 3E 0D 00 10 80 C7 01  ..>......>......
01C0: 1D 12 80 23 01 CA 01 1A  E5 01 01 E1 01 1D 12 80  ...#............
01D0: 23 3E 0D 00 10 80 DE 01  06 1B 17 01 E1 01 05 1B  #>..............
01E0: 17 1A 47 02 1B 41 00 80  10 80 22 00 19 00 07 19  ..G..A....".....
01F0: 00 13 80 3F 19 00 19 00  14 80 02 19 00 10 80 03  ...?............
0200: 3F 02 42 1D 15 80 23 03  02 10 19 00 1D 16 80 23  ?.B...#........#
0210: 1D 17 80 23 40 00 80 06  80 01 10 18 80 40 08 80  ...#@........@..
0220: 01 80 01 10 00 80 43 00  43 01 03 09 00 03 10 41  ......C.C......A
0230: 04 80 05 80 04 10 0D 00  2E 06 1B 17 01 46 02 1D  .............F..
0240: 12 80 23 05 1B 17 1B 06  02 00 06 01 00 06 00 00  ..#.............
0250: 02 02 00 00 80 00 BD 03  3E 0D 00 0F 80 65 02 1A  ........>....e..
0260: B3 06 01 6A 02 03 00 00  19 80 24 1A 80 01 00 00  ...j......$.....
0270: 00 25 02 00 10 00 80 00  85 02 03 01 10 1B 80 05  .%..............
0280: 02 00 01 85 02 03 01 00  00 10 3E 0D 00 0F 80 94  ..........>.....
0290: 02 01 26 03 02 01 00 1C  80 00 23 03 03 02 10 1C  ..&.......#.....
02A0: 80 1D 1D 80 23 03 02 10  09 00 03 03 10 1C 80 24  ....#..........$
02B0: 1E 80 0F 80 00 80 25 02  00 10 00 80 00 06 03 02  ......%.........
02C0: 09 00 1C 80 04 F4 02 42  40 00 80 06 80 01 10 10  .......B@.......
02D0: 80 40 08 80 01 80 01 10  00 80 43 00 43 01 03 09  .@........C.C...
02E0: 00 03 10 41 04 80 05 80  04 10 0D 00 1D 1F 80 23  ...A...........#
02F0: 2E 01 03 03 1D 20 80 23  03 01 10 1B 80 06 01 00  ..... .#........
0300: 05 02 00 01 20 03 02 00  10 0F 80 00 20 03 1D 21  .... ....... ..!
0310: 80 23 03 01 10 1B 80 06  01 00 05 02 00 01 20 03  .#............ .
0320: 01 26 03 06 01 00 02 01  00 00 80 02 BA 03 02 01  .&..............
0330: 00 0F 80 80 3C 03 1A FE  05 01 BA 03 02 01 00 10  ....<...........
0340: 80 80 4A 03 1A DD 04 01  BA 03 02 01 00 11 80 80  ..J.............
0350: 58 03 1A BE 03 01 BA 03  02 01 00 13 80 80 66 03  X.............f.
0360: 1A 74 07 01 BA 03 02 01  00 14 80 80 74 03 1A 02  .t..........t...
0370: 0E 01 BA 03 02 01 00 22  80 80 82 03 1A 4F 12 01  .......".....O..
0380: BA 03 02 01 00 06 80 80  90 03 1A 19 15 01 BA 03  ................
0390: 02 01 00 08 80 80 9E 03  1A C7 16 01 BA 03 02 01  ................
03A0: 00 23 80 80 AC 03 1A 4D  17 01 BA 03 02 01 00 1C  .#.....M........
03B0: 80 80 BA 03 1A AA 19 01  BA 03 01 50 02 1B 1D 24  ...........P...$
03C0: 80 23 1D 25 80 23 06 05  00 06 04 00 02 05 00 00  .#.%.#..........
03D0: 80 00 DC 04 40 00 80 06  80 01 10 23 80 40 08 80  ....@......#.@..
03E0: 01 80 01 10 00 80 43 00  43 01 03 22 00 02 10 41  ......C.C.."...A
03F0: 1C 80 26 80 22 00 03 00  0F 03 00 27 80 10 03 00  ..&."......'....
0400: 0F 80 24 28 80 04 00 03  00 25 02 00 10 00 80 00  ..$(.....%......
0410: 18 04 05 05 00 01 18 04  03 04 00 00 10 02 05 00  ................
0420: 00 80 00 D9 04 02 04 00  0F 80 80 39 04 03 02 10  ...........9....
0430: 0F 80 48 29 80 23 01 D9  04 02 04 00 10 80 80 48  ..H).#.........H
0440: 04 48 2A 80 23 01 D9 04  02 04 00 11 80 80 57 04  .H*.#.........W.
0450: 48 2B 80 23 01 D9 04 02  04 00 13 80 80 66 04 48  H+.#.........f.H
0460: 2C 80 23 01 D9 04 02 04  00 14 80 80 75 04 48 2D  ,.#.........u.H-
0470: 80 23 01 D9 04 02 04 00  22 80 80 84 04 48 2E 80  .#......"....H..
0480: 23 01 D9 04 02 04 00 06  80 80 93 04 48 2F 80 23  #...........H/.#
0490: 01 D9 04 02 04 00 08 80  80 A2 04 48 30 80 23 01  ...........H0.#.
04A0: D9 04 02 04 00 23 80 80  B1 04 48 31 80 23 01 D9  .....#....H1.#..
04B0: 04 02 04 00 1C 80 80 CA  04 03 02 10 32 80 03 03  ............2...
04C0: 10 33 80 48 34 80 23 01  D9 04 02 04 00 35 80 80  .3.H4.#......5..
04D0: D9 04 48 36 80 23 01 D9  04 01 CC 03 1B 24 37 80  ..H6.#.......$7.
04E0: 0F 80 00 80 25 02 00 10  00 80 00 EE 05 42 1D 38  ....%........B.8
04F0: 80 23 40 00 80 06 80 01  10 35 80 40 08 80 01 80  .#@......5.@....
0500: 01 10 00 80 43 00 43 01  41 05 80 05 80 02 10 19  ....C.C.A.......
0510: 00 02 19 00 00 80 00 1F  05 05 02 00 01 EA 05 02  ................
0520: 09 10 00 80 02 2D 05 05  02 00 01 EA 05 1A B0 1D  .....-..........
0530: 02 21 00 00 80 80 66 05  BA F0 FF FF 7F 39 80 3A  .!....f......9.:
0540: 80 00 80 3B 80 40 00 80  06 80 01 10 3C 80 40 08  ...;.@......<.@.
0550: 80 01 80 01 10 00 80 47  00 39 80 3A 80 00 80 3B  .......G.9.:...;
0560: 80 47 01 01 D2 05 02 21  00 0F 80 80 9C 05 BA F0  .G.....!........
0570: FF FF 7F 00 80 3D 80 3E  80 3F 80 40 00 80 06 80  .....=.>.?.@....
0580: 01 10 3C 80 40 08 80 01  80 01 10 00 80 47 00 00  ..<.@........G..
0590: 80 3D 80 3E 80 3F 80 47  01 01 D2 05 02 21 00 10  .=.>.?.G.....!..
05A0: 80 80 D2 05 BA F0 FF FF  7F 40 80 41 80 42 80 43  .........@.A.B.C
05B0: 80 40 00 80 06 80 01 10  3C 80 40 08 80 01 80 01  .@......<.@.....
05C0: 10 00 80 47 00 40 80 41  80 42 80 43 80 47 01 01  ...G.@.A.B.C.G..
05D0: D2 05 1A D9 1D 40 00 80  06 80 01 10 3C 80 40 08  .....@......<.@.
05E0: 80 01 80 01 10 00 80 05  02 00 2E 01 FD 05 02 00  ................
05F0: 10 0F 80 00 FD 05 1D 44  80 23 01 FD 05 1B 40 00  .......D.#....@.
0600: 80 06 80 01 10 23 80 40  08 80 01 80 01 10 00 80  .....#.@........
0610: 43 00 43 01 03 22 00 02  10 41 00 80 10 80 22 00  C.C.."...A....".
0620: 19 00 07 19 00 13 80 3F  19 00 19 00 14 80 02 19  .......?........
0630: 00 10 80 03 B2 06 42 40  00 80 06 80 01 10 1C 80  ......B@........
0640: 40 08 80 01 80 01 10 00  80 43 00 43 01 03 22 00  @........C.C..".
0650: 02 10 03 17 00 08 10 03  1B 00 09 10 02 09 10 00  ................
0660: 80 00 AB 06 02 17 00 00  80 02 9B 06 1D 45 80 23  .............E.#
0670: 03 02 10 00 80 48 46 80  23 48 47 80 23 1D 48 80  .....HF.#HG.#.H.
0680: 23 02 17 00 0F 80 00 91  06 1D 49 80 23 1D 4A 80  #.........I.#.J.
0690: 23 1D 4B 80 23 1A DD 04  01 A8 06 1D 4C 80 23 03  #.K.#.......L.#.
06A0: 02 10 0F 80 48 46 80 23  01 AE 06 05 02 00 2E 01  ....HF.#........
06B0: B2 06 1B 06 00 00 40 00  80 06 80 01 10 23 80 40  ......@......#.@
06C0: 08 80 01 80 01 10 00 80  43 00 43 01 03 22 00 02  ........C.C.."..
06D0: 10 41 05 80 05 80 22 00  02 10 41 00 80 10 80 22  .A...."...A...."
06E0: 00 19 17 07 19 17 13 80  3F 19 17 19 17 14 80 02  ........?.......
06F0: 19 17 10 80 03 21 07 02  02 10 00 80 00 10 07 3D  .....!.........=
0700: 00 00 0F 80 0F 80 3C 00  00 10 80 0F 80 01 1E 07  ......<.........
0710: 3D 00 00 0F 80 0F 80 3D  00 00 10 80 0F 80 01 2F  =......=......./
0720: 07 3C 00 00 0F 80 0F 80  3C 00 00 10 80 0F 80 02  .<......<.......
0730: 1B 17 00 80 80 3A 07 01  73 07 02 1B 17 0F 80 80  .....:..s.......
0740: 5A 07 3C 00 00 0F 80 0F  80 3C 00 00 10 80 0F 80  Z.<......<......
0750: 3C 00 00 11 80 0F 80 01  73 07 02 1B 17 10 80 80  <.......s.......
0760: 73 07 3C 00 00 0F 80 0F  80 3C 00 00 10 80 0F 80  s.<......<......
0770: 01 73 07 1B 06 05 00 06  04 00 02 05 00 00 80 00  .s..............
0780: 46 0D 1A 47 0D 03 02 10  09 00 24 4D 80 04 00 03  F..G......$M....
0790: 00 25 02 00 10 00 80 00  A0 07 05 05 00 01 A0 07  .%..............
07A0: 03 04 00 00 10 02 04 00  00 80 02 43 0D 02 04 00  ...........C....
07B0: 0F 80 80 4B 08 03 16 00  4E 80 02 0F 00 10 80 02  ...K....N.......
07C0: D1 07 10 16 00 0F 00 15  16 00 26 80 07 16 00 4E  ..........&....N
07D0: 80 03 02 10 33 80 03 03  10 16 00 1D 4F 80 23 03  ....3.......O.#.
07E0: 02 10 09 00 03 03 10 16  00 24 50 80 0F 80 00 80  .........$P.....
07F0: 25 02 00 10 00 80 00 3D  08 02 09 00 16 00 03 0B  %......=........
0800: 08 1D 20 80 23 05 05 00  01 3A 08 42 40 00 80 06  .. .#....:.B@...
0810: 80 01 10 13 80 40 08 80  01 80 01 10 00 80 43 00  .....@........C.
0820: 43 01 03 09 00 03 10 41  00 80 01 80 04 10 0A 00  C......A........
0830: 03 02 10 33 80 48 51 80  23 2E 01 48 08 02 00 10  ...3.HQ.#..H....
0840: 0F 80 00 48 08 01 48 08  01 43 0D 02 04 00 10 80  ...H..H..C......
0850: 80 DA 08 1D 52 80 23 03  02 10 32 80 03 03 10 53  ....R.#...2....S
0860: 80 1D 4F 80 23 03 02 10  09 00 03 03 10 53 80 03  ..O.#........S..
0870: 16 00 53 80 24 50 80 0F  80 00 80 25 02 00 10 00  ..S.$P.....%....
0880: 80 00 CC 08 02 09 00 16  00 03 96 08 1D 20 80 23  ............. .#
0890: 05 05 00 01 C9 08 42 40  00 80 06 80 01 10 13 80  ......B@........
08A0: 40 08 80 01 80 01 10 0F  80 43 00 43 01 03 09 00  @........C.C....
08B0: 03 10 41 00 80 01 80 04  10 0A 00 1D 54 80 23 03  ..A.........T.#.
08C0: 02 10 32 80 48 51 80 23  2E 01 D7 08 02 00 10 0F  ..2.HQ.#........
08D0: 80 00 D7 08 01 D7 08 01  43 0D 02 04 00 11 80 80  ........C.......
08E0: 61 09 03 02 10 55 80 03  03 10 53 80 1D 4F 80 23  a....U....S..O.#
08F0: 03 02 10 09 00 03 03 10  53 80 03 16 00 53 80 24  ........S....S.$
0900: 50 80 0F 80 00 80 25 02  00 10 00 80 00 53 09 02  P.....%......S..
0910: 09 00 16 00 03 21 09 1D  20 80 23 05 05 00 01 50  .....!.. .#....P
0920: 09 42 40 00 80 06 80 01  10 13 80 40 08 80 01 80  .B@........@....
0930: 01 10 10 80 43 00 43 01  03 09 00 03 10 41 00 80  ....C.C......A..
0940: 01 80 04 10 0A 00 03 02  10 55 80 48 51 80 23 2E  .........U.HQ.#.
0950: 01 5E 09 02 00 10 0F 80  00 5E 09 01 5E 09 01 43  .^.......^..^..C
0960: 0D 02 04 00 22 80 80 F0  09 1D 56 80 23 03 02 10  ....".....V.#...
0970: 57 80 03 03 10 58 80 1D  4F 80 23 03 02 10 09 00  W....X..O.#.....
0980: 03 03 10 58 80 03 16 00  58 80 24 50 80 0F 80 00  ...X....X.$P....
0990: 80 25 02 00 10 00 80 00  E2 09 02 09 00 16 00 03  .%..............
09A0: AC 09 1D 20 80 23 05 05  00 01 DF 09 42 40 00 80  ... .#......B@..
09B0: 06 80 01 10 13 80 40 08  80 01 80 01 10 14 80 43  ......@........C
09C0: 00 43 01 03 09 00 03 10  41 00 80 01 80 04 10 0A  .C......A.......
09D0: 00 1D 59 80 23 03 02 10  57 80 48 51 80 23 2E 01  ..Y.#...W.HQ.#..
09E0: ED 09 02 00 10 0F 80 00  ED 09 01 ED 09 01 43 0D  ..............C.
09F0: 02 04 00 13 80 80 77 0A  03 02 10 5A 80 03 03 10  ......w....Z....
0A00: 53 80 1D 4F 80 23 03 02  10 09 00 03 03 10 53 80  S..O.#........S.
0A10: 03 16 00 53 80 24 50 80  0F 80 00 80 25 02 00 10  ...S.$P.....%...
0A20: 00 80 00 69 0A 02 09 00  16 00 03 37 0A 1D 20 80  ...i.......7.. .
0A30: 23 05 05 00 01 66 0A 42  40 00 80 06 80 01 10 13  #....f.B@.......
0A40: 80 40 08 80 01 80 01 10  11 80 43 00 43 01 03 09  .@........C.C...
0A50: 00 03 10 41 00 80 01 80  04 10 0A 00 03 02 10 5A  ...A...........Z
0A60: 80 48 51 80 23 2E 01 74  0A 02 00 10 0F 80 00 74  .HQ.#..t.......t
0A70: 0A 01 74 0A 01 43 0D 02  04 00 06 80 80 06 0B 1D  ..t..C..........
0A80: 56 80 23 03 02 10 5B 80  03 03 10 5C 80 1D 4F 80  V.#...[....\..O.
0A90: 23 03 02 10 09 00 03 03  10 5C 80 03 16 00 5C 80  #........\....\.
0AA0: 24 50 80 0F 80 00 80 25  02 00 10 00 80 00 F8 0A  $P.....%........
0AB0: 02 09 00 16 00 03 C2 0A  1D 20 80 23 05 05 00 01  ......... .#....
0AC0: F5 0A 42 40 00 80 06 80  01 10 13 80 40 08 80 01  ..B@........@...
0AD0: 80 01 10 22 80 43 00 43  01 03 09 00 03 10 41 00  ...".C.C......A.
0AE0: 80 01 80 04 10 0A 00 1D  59 80 23 03 02 10 5B 80  ........Y.#...[.
0AF0: 48 51 80 23 2E 01 03 0B  02 00 10 0F 80 00 03 0B  HQ.#............
0B00: 01 03 0B 01 43 0D 02 04  00 14 80 80 8D 0B 03 02  ....C...........
0B10: 10 5D 80 03 03 10 53 80  1D 4F 80 23 03 02 10 09  .]....S..O.#....
0B20: 00 03 03 10 53 80 03 16  00 53 80 24 50 80 0F 80  ....S....S.$P...
0B30: 00 80 25 02 00 10 00 80  00 7F 0B 02 09 00 16 00  ..%.............
0B40: 03 4D 0B 1D 20 80 23 05  05 00 01 7C 0B 42 40 00  .M.. .#....|.B@.
0B50: 80 06 80 01 10 13 80 40  08 80 01 80 01 10 13 80  .......@........
0B60: 43 00 43 01 03 09 00 03  10 41 00 80 01 80 04 10  C.C......A......
0B70: 0A 00 03 02 10 5D 80 48  51 80 23 2E 01 8A 0B 02  .....].HQ.#.....
0B80: 00 10 0F 80 00 8A 0B 01  8A 0B 01 43 0D 02 04 00  ...........C....
0B90: 08 80 80 1C 0C 1D 56 80  23 03 02 10 5E 80 03 03  ......V.#...^...
0BA0: 10 5F 80 1D 4F 80 23 03  02 10 09 00 03 03 10 5F  ._..O.#........_
0BB0: 80 03 16 00 5F 80 24 50  80 0F 80 00 80 25 02 00  ...._.$P.....%..
0BC0: 10 00 80 00 0E 0C 02 09  00 16 00 03 D8 0B 1D 20  ............... 
0BD0: 80 23 05 05 00 01 0B 0C  42 40 00 80 06 80 01 10  .#......B@......
0BE0: 13 80 40 08 80 01 80 01  10 06 80 43 00 43 01 03  ..@........C.C..
0BF0: 09 00 03 10 41 00 80 01  80 04 10 0A 00 1D 59 80  ....A.........Y.
0C00: 23 03 02 10 5E 80 48 51  80 23 2E 01 19 0C 02 00  #...^.HQ.#......
0C10: 10 0F 80 00 19 0C 01 19  0C 01 43 0D 02 04 00 1C  ..........C.....
0C20: 80 80 B4 0C 03 02 10 33  80 1D 60 80 23 1D 61 80  .......3..`.#.a.
0C30: 23 03 02 10 62 80 03 03  10 5C 80 1D 4F 80 23 03  #...b....\..O.#.
0C40: 02 10 09 00 03 03 10 5C  80 03 16 00 5C 80 24 50  .......\....\.$P
0C50: 80 0F 80 00 80 25 02 00  10 00 80 00 A6 0C 02 09  .....%..........
0C60: 00 16 00 03 70 0C 1D 20  80 23 05 05 00 01 A3 0C  ....p.. .#......
0C70: 42 40 00 80 06 80 01 10  13 80 40 08 80 01 80 01  B@........@.....
0C80: 10 23 80 43 00 43 01 03  09 00 03 10 41 00 80 01  .#.C.C......A...
0C90: 80 04 10 0A 00 1D 63 80  23 03 02 10 62 80 48 51  ......c.#...b.HQ
0CA0: 80 23 2E 01 B1 0C 02 00  10 0F 80 00 B1 0C 01 B1  .#..............
0CB0: 0C 01 43 0D 02 04 00 35  80 80 43 0D 1D 64 80 23  ..C....5..C..d.#
0CC0: 03 02 10 65 80 03 03 10  66 80 1D 4F 80 23 03 02  ...e....f..O.#..
0CD0: 10 09 00 03 03 10 66 80  03 16 00 66 80 24 50 80  ......f....f.$P.
0CE0: 0F 80 00 80 25 02 00 10  00 80 00 35 0D 02 09 00  ....%......5....
0CF0: 16 00 03 FF 0C 1D 20 80  23 05 05 00 01 32 0D 42  ...... .#....2.B
0D00: 40 00 80 06 80 01 10 13  80 40 08 80 01 80 01 10  @........@......
0D10: 1C 80 43 00 43 01 03 09  00 03 10 41 00 80 01 80  ..C.C......A....
0D20: 04 10 0A 00 1D 67 80 23  03 02 10 65 80 48 51 80  .....g.#...e.HQ.
0D30: 23 2E 01 40 0D 02 00 10  0F 80 00 40 0D 01 40 0D  #..@.......@..@.
0D40: 01 43 0D 01 7A 07 1B 40  00 80 06 80 01 10 11 80  .C..z..@........
0D50: 40 08 80 01 80 01 10 00  80 43 00 43 01 03 0F 00  @........C.C....
0D60: 02 10 03 16 00 4E 80 02  0F 00 10 80 02 7E 0D 10  .....N.......~..
0D70: 16 00 0F 00 15 16 00 26  80 07 16 00 4E 80 03 03  .......&....N...
0D80: 10 33 80 03 09 17 16 00  03 04 10 32 80 03 0A 17  .3.........2....
0D90: 53 80 03 05 10 55 80 03  0B 17 53 80 03 08 10 57  S....U....S....W
0DA0: 80 03 0E 17 58 80 03 06  10 5A 80 03 0C 17 53 80  ....X....Z....S.
0DB0: 03 09 10 5B 80 03 0F 17  5C 80 03 01 17 68 80 03  ...[....\....h..
0DC0: 11 17 00 80 03 07 10 5D  80 03 0D 17 53 80 03 00  .......]....S...
0DD0: 17 5E 80 03 10 17 5F 80  03 02 17 62 80 03 12 17  .^...._....b....
0DE0: 5C 80 03 03 17 65 80 03  13 17 66 80 03 03 00 27  \....e....f....'
0DF0: 80 3D 03 00 00 80 0F 80  40 0F 80 35 80 03 00 0A  .=......@..5....
0E00: 00 1B 06 05 00 06 04 00  06 03 00 06 12 00 02 05  ................
0E10: 00 00 80 00 E5 0E 1A E6  0E 24 69 80 04 00 03 00  .........$i.....
0E20: 25 02 00 10 00 80 00 2F  0E 05 05 00 01 2F 0E 03  %....../...../..
0E30: 04 00 00 10 02 04 00 6A  80 80 4D 0E 02 12 00 00  .......j..M.....
0E40: 80 02 47 0E 0C 12 00 06  04 00 01 73 0E 02 04 00  ..G........s....
0E50: 6B 80 80 73 0E 03 19 00  6C 80 0C 19 00 15 19 00  k..s....l.......
0E60: 02 80 02 12 00 19 00 03  6D 0E 0B 12 00 06 04 00  ........m.......
0E70: 01 73 0E 02 04 00 00 80  02 E2 0E 03 17 00 12 00  .s..............
0E80: 14 17 00 02 80 07 17 00  04 00 0C 17 00 02 21 00  ..............!.
0E90: 00 80 80 A0 0E 9D 00 83  20 19 00 17 00 01 C6 0E  ........ .......
0EA0: 02 21 00 0F 80 80 B3 0E  9D 00 43 21 19 00 17 00  .!........C!....
0EB0: 01 C6 0E 02 21 00 10 80  80 C6 0E 9D 00 03 22 19  ....!.........".
0EC0: 00 17 00 01 C6 0E 02 19  00 0F 80 80 D4 0E 1A 45  ...............E
0ED0: 11 01 E2 0E 02 19 00 10  80 80 E2 0E 1A 00 10 01  ................
0EE0: E2 0E 01 0E 0E 1B 1A D4  1B 03 18 00 12 00 0B 18  ................
0EF0: 00 14 18 00 02 80 02 18  00 6C 80 02 24 0F 03 18  .........l..$...
0F00: 00 6C 80 3F 18 00 18 00  02 80 03 1A 00 12 00 14  .l.?............
0F10: 1A 00 02 80 03 1B 00 1A  00 07 1B 00 18 00 0C 1B  ................
0F20: 00 01 40 0F 03 18 00 02  80 03 1A 00 12 00 14 1A  ..@.............
0F30: 00 02 80 03 1B 00 1A 00  07 1B 00 18 00 0C 1B 00  ................
0F40: 06 11 00 02 11 00 18 00  03 A1 0F 03 17 00 12 00  ................
0F50: 14 17 00 02 80 07 17 00  11 00 02 21 00 00 80 80  ...........!....
0F60: 6D 0F 9D 00 53 20 19 00  17 00 01 93 0F 02 21 00  m...S ........!.
0F70: 0F 80 80 80 0F 9D 00 13  21 19 00 17 00 01 93 0F  ........!.......
0F80: 02 21 00 10 80 80 93 0F  9D 00 D3 21 19 00 17 00  .!.........!....
0F90: 01 93 0F 9D 05 A3 27 19  00 11 00 0B 11 00 01 43  ......'........C
0FA0: 0F 06 03 00 41 1A 00 1B  00 0E 00 03 00 0F 03 00  ....A...........
0FB0: 27 80 40 18 00 05 80 03  00 27 80 10 03 00 0F 80  '.@......'......
0FC0: 02 12 00 00 80 02 D2 0F  3D 03 00 6A 80 0F 80 01  ........=..j....
0FD0: D9 0F 3C 03 00 6A 80 0F  80 03 19 00 6C 80 0C 19  ..<..j......l...
0FE0: 00 15 19 00 02 80 02 19  00 12 00 02 F8 0F 3D 03  ..............=.
0FF0: 00 6B 80 0F 80 01 FF 0F  3C 03 00 6B 80 0F 80 1B  .k......<..k....
1000: 03 17 00 12 00 14 17 00  02 80 07 17 00 04 00 0C  ................
1010: 17 00 02 21 00 00 80 80  25 10 9D 00 53 20 03 10  ...!....%...S ..
1020: 17 00 01 4B 10 02 21 00  0F 80 80 38 10 9D 00 13  ...K..!....8....
1030: 21 03 10 17 00 01 4B 10  02 21 00 10 80 80 4B 10  !.....K..!....K.
1040: 9D 00 D3 21 03 10 17 00  01 4B 10 48 6D 80 23 06  ...!.....K.Hm.#.
1050: 08 00 02 08 00 00 80 00  44 11 02 21 00 00 80 80  ........D..!....
1060: 75 10 9D 00 B3 20 03 10  17 00 9D 00 E3 20 09 17  u.... ....... ..
1070: 17 00 01 AB 10 02 21 00  0F 80 80 90 10 9D 00 73  ......!........s
1080: 21 03 10 17 00 9D 00 A3  21 09 17 17 00 01 AB 10  !.......!.......
1090: 02 21 00 10 80 80 AB 10  9D 00 33 22 03 10 17 00  .!........3"....
10A0: 9D 00 63 22 09 17 17 00  01 AB 10 D4 03 0F 80 03  ..c"............
10B0: 10 03 06 00 27 80 40 00  80 0F 80 06 00 00 80 D4  ....'.@.........
10C0: 02 6E 80 07 00 06 00 25  02 00 10 00 80 00 D6 10  .n.....%........
10D0: 05 08 00 01 3C 11 02 00  10 0F 80 00 3C 11 02 21  ....<.......<..!
10E0: 00 00 80 80 F9 10 9D 00  B3 20 02 10 17 00 9D 00  ......... ......
10F0: E3 20 03 10 17 00 01 2F  11 02 21 00 0F 80 80 14  . ...../..!.....
1100: 11 9D 00 73 21 02 10 17  00 9D 00 A3 21 03 10 17  ...s!.......!...
1110: 00 01 2F 11 02 21 00 10  80 80 2F 11 9D 00 33 22  ../..!..../...3"
1120: 02 10 17 00 9D 00 63 22  03 10 17 00 01 2F 11 93  ......c"...../..
1130: 02 10 48 6F 80 23 93 00  80 01 3C 11 03 07 00 00  ..Ho.#....<.....
1140: 10 01 52 10 1B 03 17 00  12 00 14 17 00 02 80 07  ..R.............
1150: 17 00 04 00 0C 17 00 02  21 00 00 80 80 6A 11 9D  ........!....j..
1160: 00 53 20 03 10 17 00 01  90 11 02 21 00 0F 80 80  .S ........!....
1170: 7D 11 9D 00 13 21 03 10  17 00 01 90 11 02 21 00  }....!........!.
1180: 10 80 80 90 11 9D 00 D3  21 03 10 17 00 01 90 11  ........!.......
1190: 48 6D 80 23 06 08 00 02  08 00 00 80 00 4E 12 1A  Hm.#.........N..
11A0: D4 1B 06 11 00 02 11 00  23 80 03 E3 11 9D 00 43  ........#......C
11B0: 27 1A 00 11 00 9D 00 63  27 1B 00 11 00 03 13 00  '......c'.......
11C0: 11 00 9D 05 A3 27 1A 00  13 00 07 13 00 02 80 9D  .....'..........
11D0: 05 A3 27 1B 00 13 00 0B  11 00 D4 03 11 00 1A 00  ..'.............
11E0: 01 A5 11 03 06 00 27 80  40 00 80 23 80 06 00 00  ......'.@..#....
11F0: 80 D4 02 6E 80 07 00 06  00 25 02 00 10 00 80 00  ...n.....%......
1200: 08 12 05 08 00 01 08 12  03 07 00 00 10 02 07 00  ................
1210: 00 80 02 4B 12 03 1A 00  07 00 0C 1A 00 03 1B 00  ...K............
1220: 1A 00 07 1B 00 02 80 9D  00 A3 27 19 17 1A 00 9D  ..........'.....
1230: 00 A3 27 1A 17 1B 00 03  02 10 19 17 03 03 10 1A  ..'.............
1240: 17 93 02 10 48 6F 80 23  93 00 80 01 97 11 1B 06  ....Ho.#........
1250: 05 00 06 04 00 06 03 00  06 12 00 02 05 00 00 80  ................
1260: 00 82 13 1A 38 14 03 02  10 09 00 24 70 80 04 00  ....8......$p...
1270: 03 00 25 02 00 10 00 80  00 81 12 05 05 00 01 81  ..%.............
1280: 12 03 04 00 00 10 02 04  00 6A 80 80 9F 12 02 12  .........j......
1290: 00 00 80 02 99 12 0C 12  00 06 04 00 01 C5 12 02  ................
12A0: 04 00 6B 80 80 C5 12 03  19 00 71 80 0C 19 00 15  ..k.......q.....
12B0: 19 00 02 80 02 12 00 19  00 03 BF 12 0B 12 00 06  ................
12C0: 04 00 01 C5 12 02 04 00  00 80 02 7F 13 1A 83 13  ................
12D0: 03 02 10 09 00 24 72 80  00 80 06 00 25 02 00 10  .....$r.....%...
12E0: 00 80 00 E8 12 01 E8 12  03 13 00 00 10 02 13 00  ................
12F0: 00 80 02 7F 13 03 17 00  13 00 0C 17 00 07 17 00  ................
1300: 02 80 9D 00 A3 27 16 00  17 00 02 09 00 16 00 04  .....'..........
1310: 7B 13 42 40 00 80 06 80  01 10 14 80 03 19 00 12  {.B@............
1320: 00 14 19 00 02 80 07 19  00 04 00 0C 19 00 40 08  ..............@.
1330: 80 01 80 01 10 19 00 03  17 00 13 00 40 02 80 05  ............@...
1340: 80 01 10 17 00 43 00 43  01 03 09 00 03 10 03 1D  .....C.C........
1350: 00 06 10 03 1E 00 07 10  03 1F 00 08 10 03 20 00  .............. .
1360: 09 10 1D 73 80 23 03 17  00 13 00 0C 17 00 03 02  ...s.#..........
1370: 10 17 00 48 74 80 23 2E  01 7F 13 1D 20 80 23 01  ...Ht.#..... .#.
1380: 5B 12 1B 1A D4 1B 03 17  00 12 00 14 17 00 02 80  [...............
1390: 07 17 00 04 00 0C 17 00  1A F2 1B 9D 00 93 1E 1A  ................
13A0: 00 17 00 9D 00 93 25 16  00 1A 00 1A EE 1B 9D 00  ......%.........
13B0: 93 1E 1B 00 17 00 06 11  00 02 11 00 01 80 03 10  ................
13C0: 14 03 13 00 11 00 0B 13  00 08 13 00 1A 00 9D 05  ................
13D0: A3 27 13 00 11 00 03 13  00 11 00 0B 13 00 9D 00  .'..............
13E0: 93 25 19 00 13 00 08 19  00 16 00 9D 00 B3 25 15  .%............%.
13F0: 00 17 00 14 19 00 15 00  03 13 00 11 00 07 13 00  ................
1400: 02 80 9D 05 A3 27 19 00  13 00 0B 11 00 01 B9 13  .....'..........
1410: 06 06 00 40 1B 00 05 80  06 00 27 80 10 06 00 0F  ...@......'.....
1420: 80 02 1A 00 00 80 02 32  14 40 0F 80 1A 00 06 00  .......2.@......
1430: 27 80 03 19 17 1A 00 1B  1A D4 1B 06 03 00 03 18  '...............
1440: 00 12 00 0B 18 00 14 18  00 02 80 02 18 00 71 80  ..............q.
1450: 02 62 14 03 18 00 71 80  3F 18 00 18 00 02 80 01  .b....q.?.......
1460: 67 14 03 18 00 02 80 40  18 00 05 80 03 00 27 80  g......@......'.
1470: 10 03 00 0F 80 02 12 00  00 80 02 87 14 3D 03 00  .............=..
1480: 6A 80 0F 80 01 8E 14 3C  03 00 6A 80 0F 80 03 19  j......<..j.....
1490: 00 71 80 0C 19 00 15 19  00 02 80 02 19 00 12 00  .q..............
14A0: 02 AD 14 3D 03 00 6B 80  0F 80 01 B4 14 3C 03 00  ...=..k......<..
14B0: 6B 80 0F 80 06 10 00 02  10 00 18 00 03 13 15 03  k...............
14C0: 13 00 12 00 14 13 00 02  80 07 13 00 10 00 03 15  ................
14D0: 00 10 00 07 15 00 02 80  1A F2 1B 9D 00 93 1E 19  ................
14E0: 00 13 00 9D 05 A3 27 19  00 10 00 1A EE 1B 9D 00  ......'.........
14F0: 93 1E 19 00 13 00 9D 05  A3 27 19 00 15 00 0B 10  .........'......
1500: 00 02 19 00 00 80 00 10  15 3C 03 00 10 00 0F 80  .........<......
1510: 01 B7 14 03 19 17 12 00  1B 06 05 00 06 04 00 06  ................
1520: 03 00 06 12 00 02 05 00  00 80 00 02 16 1A 03 16  ................
1530: 24 75 80 04 00 03 00 25  02 00 10 00 80 00 46 15  $u.....%......F.
1540: 05 05 00 01 46 15 03 04  00 00 10 02 04 00 6A 80  ....F.........j.
1550: 80 64 15 02 12 00 00 80  02 5E 15 0C 12 00 06 04  .d.......^......
1560: 00 01 8A 15 02 04 00 6B  80 80 8A 15 03 19 00 71  .......k.......q
1570: 80 0C 19 00 15 19 00 02  80 02 12 00 19 00 03 84  ................
1580: 15 0B 12 00 06 04 00 01  8A 15 02 04 00 00 80 02  ................
1590: FF 15 1D 76 80 23 1D 77  80 23 24 78 80 0F 80 00  ...v.#.w.#$x....
15A0: 80 25 02 00 10 00 80 00  F4 15 42 40 00 80 06 80  .%........B@....
15B0: 01 10 22 80 03 19 00 12  00 14 19 00 02 80 07 19  ..".............
15C0: 00 04 00 0C 19 00 40 08  80 01 80 01 10 19 00 43  ......@........C
15D0: 00 43 01 03 09 00 03 10  03 1D 00 06 10 03 1E 00  .C..............
15E0: 07 10 03 1F 00 08 10 03  20 00 09 10 48 79 80 23  ........ ...Hy.#
15F0: 2E 01 FF 15 02 00 10 0F  80 00 FF 15 01 FF 15 01  ................
1600: 25 15 1B 1A D4 1B 06 03  00 03 18 00 12 00 0B 18  %...............
1610: 00 14 18 00 02 80 02 18  00 71 80 02 2D 16 03 18  .........q..-...
1620: 00 71 80 3F 18 00 18 00  02 80 01 32 16 03 18 00  .q.?.......2....
1630: 02 80 40 18 00 05 80 03  00 27 80 10 03 00 0F 80  ..@......'......
1640: 02 12 00 00 80 02 52 16  3D 03 00 6A 80 0F 80 01  ......R.=..j....
1650: 59 16 3C 03 00 6A 80 0F  80 03 19 00 71 80 0C 19  Y.<..j......q...
1660: 00 15 19 00 02 80 02 19  00 12 00 02 78 16 3D 03  ............x.=.
1670: 00 6B 80 0F 80 01 7F 16  3C 03 00 6B 80 0F 80 06  .k......<..k....
1680: 10 00 02 10 00 18 00 03  C1 16 03 13 00 12 00 14  ................
1690: 13 00 02 80 07 13 00 10  00 1A F2 1B 9D 00 93 1E  ................
16A0: 19 00 13 00 9D 05 A3 27  19 00 10 00 0B 10 00 02  .......'........
16B0: 19 00 00 80 00 BE 16 3C  03 00 10 00 0F 80 01 82  .......<........
16C0: 16 03 19 17 12 00 1B 1A  46 17 1D 7A 80 23 03 02  ........F..z.#..
16D0: 10 23 00 03 03 10 24 00  03 04 10 25 00 03 05 10  .#....$....%....
16E0: 26 00 48 7B 80 23 03 02  10 27 00 03 03 10 28 00  &.H{.#...'....(.
16F0: 03 04 10 29 00 03 05 10  2A 00 48 7C 80 23 03 02  ...)....*.H|.#..
1700: 10 2B 00 03 03 10 2C 00  03 04 10 2D 00 03 05 10  .+....,....-....
1710: 2E 00 48 7D 80 23 03 02  10 2F 00 03 03 10 30 00  ..H}.#.../....0.
1720: 03 04 10 31 00 03 05 10  32 00 48 7E 80 23 03 02  ...1....2.H~.#..
1730: 10 33 00 03 03 10 34 00  03 04 10 35 00 48 7F 80  .3....4....5.H..
1740: 23 1D 80 80 23 1B 1A D4  1B 1A F2 1B 1B 06 05 00  #...#...........
1750: 06 04 00 06 03 00 06 12  00 02 05 00 00 80 00 98  ................
1760: 18 1A 99 18 03 02 10 09  00 D4 02 81 80 04 00 03  ................
1770: 00 25 02 00 10 00 80 00  80 17 05 05 00 01 80 17  .%..............
1780: 03 04 00 00 10 02 04 00  6A 80 80 9E 17 02 12 00  ........j.......
1790: 00 80 02 98 17 0C 12 00  06 04 00 01 C4 17 02 04  ................
17A0: 00 6B 80 80 C4 17 03 19  00 82 80 0C 19 00 15 19  .k..............
17B0: 00 02 80 02 12 00 19 00  03 BE 17 0B 12 00 06 04  ................
17C0: 00 01 C4 17 02 04 00 00  80 02 95 18 03 13 00 04  ................
17D0: 00 0C 13 00 9D 00 A3 27  14 00 13 00 07 13 00 02  .......'........
17E0: 80 9D 00 A3 27 16 00 13  00 03 17 00 12 00 14 17  ....'...........
17F0: 00 02 80 07 17 00 13 00  03 02 10 14 00 03 03 10  ................
1800: 16 00 1D 83 80 23 03 02  10 09 00 03 03 10 16 00  .....#..........
1810: 24 50 80 0F 80 00 80 25  02 00 10 00 80 00 8A 18  $P.....%........
1820: 02 09 00 16 00 04 83 18  42 03 17 00 12 00 14 17  ........B.......
1830: 00 02 80 07 17 00 04 00  0C 17 00 40 00 80 06 80  ...........@....
1840: 01 10 06 80 40 08 80 01  80 01 10 17 00 43 00 43  ....@........C.C
1850: 01 03 09 00 03 10 40 00  80 06 80 01 10 07 80 40  ......@........@
1860: 08 80 01 80 01 10 00 80  43 00 43 01 03 0B 00 02  ........C.C.....
1870: 10 03 0C 00 03 10 03 02  10 14 00 1D 84 80 23 2E  ..............#.
1880: 01 87 18 1D 20 80 23 01  95 18 02 00 10 0F 80 00  .... .#.........
1890: 95 18 01 95 18 01 59 17  1B 1A D4 1B 06 03 00 03  ......Y.........
18A0: 18 00 12 00 0B 18 00 14  18 00 02 80 02 18 00 82  ................
18B0: 80 02 C3 18 03 18 00 82  80 3F 18 00 18 00 02 80  .........?......
18C0: 01 C8 18 03 18 00 02 80  40 18 00 05 80 03 00 27  ........@......'
18D0: 80 10 03 00 0F 80 02 12  00 00 80 02 E8 18 3D 03  ..............=.
18E0: 00 6A 80 0F 80 01 EF 18  3C 03 00 6A 80 0F 80 03  .j......<..j....
18F0: 19 00 82 80 0C 19 00 15  19 00 02 80 02 19 00 12  ................
1900: 00 02 0E 19 3D 03 00 6B  80 0F 80 01 15 19 3C 03  ....=..k......<.
1910: 00 6B 80 0F 80 06 10 00  02 10 00 18 00 03 A9 19  .k..............
1920: 03 13 00 12 00 14 13 00  02 80 07 13 00 10 00 03  ................
1930: 17 00 10 00 07 17 00 02  80 9D 00 D3 1E 19 00 13  ................
1940: 00 9D 05 A3 27 19 00 10  00 9D 00 33 1F 19 00 13  ....'......3....
1950: 00 9D 05 A3 27 19 00 17  00 9D 00 D3 1E 19 00 13  ....'...........
1960: 00 0B 10 00 D4 03 10 00  19 00 9D 00 93 1F 19 00  ................
1970: 13 00 9D 00 93 1F 19 00  13 00 02 13 00 85 80 03  ................
1980: 93 19 3E 0B 00 19 00 90  19 3C 03 00 10 00 0F 80  ..>......<......
1990: 01 A6 19 08 19 00 85 80  3E 0C 00 19 00 A6 19 3C  ........>......<
19A0: 03 00 10 00 0F 80 01 18  19 1B 06 05 00 06 04 00  ................
19B0: 06 03 00 02 05 00 00 80  00 16 1B 02 1B 17 00 80  ................
19C0: 02 CA 19 3C 03 00 1C 80  0F 80 03 02 10 0F 80 24  ...<...........$
19D0: 86 80 04 00 03 00 25 02  00 10 00 80 00 E5 19 05  ......%.........
19E0: 05 00 01 E5 19 03 04 00  00 10 02 05 00 00 80 00  ................
19F0: 13 1B 02 04 00 0F 80 80  0D 1A 1D 87 80 23 1D 88  .............#..
1A00: 80 23 1D 89 80 23 1D 8A  80 23 01 13 1B 02 04 00  .#...#...#......
1A10: 10 80 80 2D 1A 1D 8B 80  23 1D 8C 80 23 1D 8D 80  ...-....#...#...
1A20: 23 03 03 10 8E 80 1D 8F  80 23 01 13 1B 02 04 00  #........#......
1A30: 11 80 80 44 1A 1D 90 80  23 1D 91 80 23 1D 92 80  ...D....#...#...
1A40: 23 01 13 1B 02 04 00 13  80 80 57 1A 1D 93 80 23  #.........W....#
1A50: 1D 94 80 23 01 13 1B 02  04 00 14 80 80 84 1A 03  ...#............
1A60: 02 10 33 80 1D 95 80 23  1D 96 80 23 03 03 10 13  ..3....#...#....
1A70: 80 1D 97 80 23 1D 98 80  23 1D 99 80 23 1D 9A 80  ....#...#...#...
1A80: 23 01 13 1B 02 04 00 22  80 80 A4 1A 03 02 10 33  #......".......3
1A90: 80 1D 9B 80 23 1D 9C 80  23 1D 9D 80 23 1D 9E 80  ....#...#...#...
1AA0: 23 01 13 1B 02 04 00 06  80 80 D3 1A 1D 9F 80 23  #..............#
1AB0: 1D A0 80 23 1D A1 80 23  1D A2 80 23 1D A3 80 23  ...#...#...#...#
1AC0: 1D A4 80 23 1D A5 80 23  1D A6 80 23 1D A7 80 23  ...#...#...#...#
1AD0: 01 13 1B 02 04 00 08 80  80 EE 1A 1D A8 80 23 1D  ..............#.
1AE0: A9 80 23 1D AA 80 23 1D  AB 80 23 01 13 1B 02 04  ..#...#...#.....
1AF0: 00 23 80 80 05 1B 1D AC  80 23 1D AD 80 23 1D AE  .#.......#...#..
1B00: 80 23 01 13 1B 02 04 00  1C 80 80 13 1B 1A 17 1B  .#..............
1B10: 01 13 1B 01 B3 19 1B 06  08 00 06 07 00 02 08 00  ................
1B20: 00 80 00 D3 1B 24 AF 80  07 00 06 00 25 02 00 10  .....$......%...
1B30: 00 80 00 3B 1B 05 08 00  01 3B 1B 03 07 00 00 10  ...;.....;......
1B40: 02 05 00 00 80 00 D0 1B  02 07 00 0F 80 80 7B 1B  ..............{.
1B50: 1D B0 80 23 1D B1 80 23  1D B2 80 23 1D B3 80 23  ...#...#...#...#
1B60: 1D B4 80 23 1D B5 80 23  1D B6 80 23 1D B7 80 23  ...#...#...#...#
1B70: 1D B8 80 23 1D B9 80 23  01 D0 1B 02 07 00 10 80  ...#...#........
1B80: 80 A2 1B 1D BA 80 23 1D  BB 80 23 1D BC 80 23 1D  ......#...#...#.
1B90: BD 80 23 1D BE 80 23 1D  BF 80 23 1D C0 80 23 01  ..#...#...#...#.
1BA0: D0 1B 02 07 00 11 80 80  B9 1B 1D C1 80 23 1D C2  .............#..
1BB0: 80 23 1D C3 80 23 01 D0  1B 02 07 00 13 80 80 D0  .#...#..........
1BC0: 1B 1D C4 80 23 1D C5 80  23 1D C6 80 23 01 D0 1B  ....#...#...#...
1BD0: 01 1D 1B 1B 06 11 00 02  11 00 85 80 03 ED 1B 9D  ................
1BE0: 05 A3 27 00 80 11 00 0B  11 00 01 D7 1B 1B 1A 29  ..'............)
1BF0: 1E 1B 1A 0F 1E 06 11 00  06 1A 00 06 1B 00 06 1A  ................
1C00: 17 02 11 00 85 80 03 4D  1C 03 1A 00 11 00 14 1A  .......M........
1C10: 00 13 80 03 1A 17 1A 00  15 1A 17 85 80 3F 1A 00  .............?..
1C20: 1A 00 85 80 03 1B 00 1A  00 07 1B 00 11 80 9D 00  ................
1C30: E3 27 19 00 1A 17 41 1A  00 1B 00 19 00 1A 17 9D  .'....A.........
1C40: 05 93 1E 1A 17 11 00 0B  11 00 01 01 1C 1B 1E F0  ................
1C50: FF FF 7F 6F 70 03 15 00  04 10 1A 93 1C 24 C7 80  ...op........$..
1C60: 00 80 03 00 25 02 00 10  00 80 00 76 1C 03 01 10  ....%......v....
1C70: 1B 80 1B 01 76 1C 03 04  00 00 10 42 40 00 80 06  ....v......B@...
1C80: 80 01 10 00 80 40 08 80  01 80 01 10 04 00 1D 54  .....@.........T
1C90: 80 23 1B 1A D4 1B 06 11  00 02 11 00 3C 80 03 B7  .#..........<...
1CA0: 1C 9D 00 83 27 19 00 11  00 9D 05 A3 27 19 00 11  ....'.......'...
1CB0: 00 0B 11 00 01 99 1C 03  03 00 27 80 40 0F 80 3C  ..........'.@..<
1CC0: 80 03 00 15 00 3D 03 00  00 80 0F 80 1B 1E F0 FF  .....=..........
1CD0: FF 7F 6F 70 03 03 00 03  10 03 03 10 C8 80 03 04  ..op............
1CE0: 10 C9 80 03 05 10 CA 80  24 C7 80 00 80 03 00 25  ........$......%
1CF0: 02 00 10 00 80 00 01 1D  03 01 10 1B 80 1B 01 01  ................
1D00: 1D 03 04 00 00 10 42 40  00 80 06 80 01 10 00 80  ......B@........
1D10: 40 08 80 01 80 01 10 04  00 1D 54 80 23 1B 1E F0  @.........T.#...
1D20: FF FF 7F 6F 70 03 03 00  03 10 03 03 10 CB 80 03  ...op...........
1D30: 04 10 CC 80 03 05 10 CD  80 24 C7 80 00 80 03 00  .........$......
1D40: 25 02 00 10 00 80 00 52  1D 03 01 10 1B 80 1B 01  %......R........
1D50: 52 1D 03 04 00 00 10 42  40 00 80 06 80 01 10 00  R......B@.......
1D60: 80 40 08 80 01 80 01 10  04 00 1D 54 80 23 1B 03  .@.........T.#..
1D70: 1C 17 02 10 03 1D 17 03  10 03 1E 17 04 10 03 1F  ................
1D80: 17 05 10 03 02 10 45 00  03 03 10 23 00 03 04 10  ......E....#....
1D90: 24 00 03 05 10 25 00 48  CE 80 23 03 02 10 1C 17  $....%.H..#.....
1DA0: 03 03 10 1D 17 03 04 10  1E 17 03 05 10 1F 17 1B  ................
1DB0: D0 CF 80 F0 FF FF 7F F0  FF FF 7F 6D 61 69 6E 00  ...........main.
1DC0: 80 1C D0 80 45 D1 80 F0  FF FF 7F F0 FF FF 7F 66  ....E..........f
1DD0: 64 6F 31 00 80 1C D2 80  1B 45 D1 80 F0 FF FF 7F  do1......E......
1DE0: F0 FF FF 7F 66 64 69 31  00 80 D0 D3 80 F0 FF FF  ....fdi1........
1DF0: 7F F0 FF FF 7F 6D 61 69  6E 00 80 1C D0 80 55 D1  .....main.....U.
1E00: 80 F0 FF FF 7F F0 FF FF  7F 66 64 69 31 1B 1B 06  .........fdi1...
1E10: 44 00 02 44 00 85 80 03  28 1E 9D 05 93 1E 00 80  D..D....(.......
1E20: 44 00 0B 44 00 01 12 1E  1B 1A 0F 1E 06 44 00 02  D..D.........D..
1E30: 44 00 D4 80 03 82 1E 03  43 00 44 00 15 43 00 85  D.......C.D..C..
1E40: 80 3F 47 00 44 00 85 80  9D 00 83 1E 48 00 43 00  .?G.D.......H.C.
1E50: 3E 48 00 47 00 7C 1E 9D  00 93 22 45 00 44 00 9D  >H.G.|...."E.D..
1E60: 00 13 24 46 00 44 00 9D  00 93 1E 43 00 45 00 07  ..$F.D.....C.E..
1E70: 43 00 46 00 9D 05 93 1E  43 00 45 00 0B 44 00 01  C.F.....C.E..D..
1E80: 2F 1E 1B 49 00 4A 00 4B  00 4C 00 4D 00 4E 00 00  /..I.J.K.L.M.N..
1E90: 80 00 80 23 00 24 00 25  00 26 00 27 00 28 00 29  ...#.$.%.&.'.(.)
1EA0: 00 2A 00 2B 00 2C 00 2D  00 2E 00 2F 00 30 00 31  .*.+.,.-.../.0.1
1EB0: 00 32 00 33 00 34 00 35  00 36 00 38 00 37 00 39  .2.3.4.5.6.8.7.9
1EC0: 00 3A 00 3B 00 3C 00 3D  00 3E 00 3F 00 40 00 41  .:.;.<.=.>.?.@.A
1ED0: 00 42 00 D5 80 D6 80 D7  80 D8 80 D9 80 DA 80 DB  .B..............
1EE0: 80 DC 80 DD 80 DE 80 DF  80 E0 80 E1 80 E2 80 E3  ................
1EF0: 80 E4 80 E5 80 E6 80 E7  80 E8 80 E9 80 EA 80 EB  ................
1F00: 80 EC 80 ED 80 EE 80 EF  80 F0 80 F1 80 F2 80 F3  ................
1F10: 80 F4 80 F5 80 F6 80 F7  80 F8 80 F9 80 FA 80 FB  ................
1F20: 80 FC 80 FD 80 FE 80 FF  80 00 81 01 81 02 81 03  ................
1F30: 81 00 80 04 81 05 81 D2  80 06 81 07 81 07 81 07  ................
1F40: 81 07 81 07 81 08 81 07  81 07 81 07 81 07 81 09  ................
1F50: 81 07 81 04 81 06 81 0A  81 04 81 06 81 0A 81 0A  ................
1F60: 81 05 81 07 81 06 81 07  81 06 81 0B 81 0B 81 0B  ................
1F70: 81 0B 81 07 81 07 81 0C  81 0B 81 0D 81 0D 81 0E  ................
1F80: 81 0D 81 05 81 0F 81 4E  80 10 81 0B 81 0B 81 0B  .......N........
1F90: 81 00 80 13 80 11 81 07  80 3C 80 6C 80 22 80 12  .........<.l."..
1FA0: 81 14 80 08 80 01 80 6A  80 23 80 26 80 06 80 04  .......j.#.&....
1FB0: 81 02 80 00 80 1C 80 03  80 0F 80 35 80 04 80 13  ...........5....
1FC0: 81 18 80 10 80 6B 80 11  80 71 80 14 81 15 81 16  .....k...q......
1FD0: 81 05 80 85 80 17 81 18  81 19 81 1A 81 1B 81 1C  ................
1FE0: 81 1D 81 1E 81 1F 81 20  81 21 81 22 81 23 81 24  ....... .!.".#.$
1FF0: 81 00 80 0F 80 35 80 14  80 11 80 23 80 0F 80 23  .....5.....#...#
2000: 80 0F 80 10 80 22 80 08  80 10 80 23 80 10 80 01  .....".....#....
2010: 80 06 80 00 80 11 80 1C  80 00 80 11 80 1C 80 1C  ................
2020: 80 13 80 00 80 08 80 00  80 08 80 3C 80 18 80 07  ...........<....
2030: 80 02 80 6A 80 6A 80 6A  80 6B 80 6B 80 6B 80 71  ...j.j.j.k.k.k.q
2040: 80 71 80 71 80 26 80 6C  80 12 81 03 80 04 80 13  .q.q.&.l........
2050: 81 00 80 25 81 26 81 27  81 28 81 29 81 2A 81 2B  ...%.&.'.(.).*.+
2060: 81 2C 81 2D 81 2E 81 2F  81 30 81 C8 80 CB 80 C9  .,.-.../.0......
2070: 80 CC 80 CA 80 CD 80 31  81 32 81 33 81 00 80 00  .......1.2.3....
2080: 80 00 80 0F 80 0F 80 0F  80 0F 80 0F 80 0F 80 0F  ................
2090: 80 0F 80 0F 80 0F 80 0F  80 0F 80 10 80 10 80 10  ................
20A0: 80 10 80 10 80 10 80 10  80 10 80 10 80 00 80 00  ................
20B0: 80 00 80 00 80 00 80 00  80 00 80 00 80 00 80 00  ................
20C0: 80 00 80 00 80 00 80 00  80 00 80 34 81 35 81 34  ...........4.5.4
20D0: 81 35 81 34 81 35 81 36  81 37 81 38 81 00 80 00  .5.4.5.6.7.8....
20E0: 80 00 80 00 80 00 80 00  80 00 80 00 80 00 80 00  ................
20F0: 80 00 80 00 80 00 80 00  80 00 80 14 80 14 80 14  ................
2100: 80 14 80 14 80 14 80 14  80 14 80 14 80 00 80 00  ................
2110: 80 00 80 39 81 3A 81 3B  81 3C 81 3D 81 3E 81 3F  ...9.:.;.<.=.>.?
2120: 81 40 81 41 81 42 81 43  81 44 81 45 81 46 81 47  .@.A.B.C.D.E.F.G
2130: 81 48 81 49 81 4A 81 4B  81 4C 81 4D 81 00 80 00  .H.I.J.K.L.M....
2140: 80 00 80 0F 80 0F 80 0F  80 0F 80 0F 80 0F 80 0F  ................
2150: 80 0F 80 0F 80 0F 80 0F  80 0F 80 10 80 10 80 10  ................
2160: 80 10 80 10 80 10 80 10  80 10 80 10 80 00 80 00  ................
2170: 80 00 80 00 80 00 80 00  80 00 80 00 80 00 80 00  ................
2180: 80 00 80 00 80 00 80 00  80 00 80 4E 81 4F 81 50  ...........N.O.P
2190: 81 51 81 52 81 53 81 54  81 55 81 56 81 00 80 00  .Q.R.S.T.U.V....
21A0: 80 00 80 00 80 00 80 00  80 00 80 00 80 00 80 00  ................
21B0: 80 00 80 00 80 00 80 00  80 00 80 14 80 14 80 14  ................
21C0: 80 14 80 14 80 14 80 0F  80 0F 80 0F 80 00 80 00  ................
21D0: 80 00 80 57 81 58 81 59  81 5A 81 5B 81 5C 81 5D  ...W.X.Y.Z.[.\.]
21E0: 81 5E 81 5F 81 10 81 60  81 61 81 62 81 63 81 64  .^._...`.a.b.c.d
21F0: 81 65 81 66 81 67 81 68  81 69 81 6A 81 00 80 00  .e.f.g.h.i.j....
2200: 80 00 80 0F 80 0F 80 0F  80 0F 80 0F 80 0F 80 0F  ................
2210: 80 0F 80 0F 80 0F 80 0F  80 0F 80 10 80 10 80 10  ................
2220: 80 10 80 10 80 10 80 10  80 10 80 10 80 00 80 00  ................
2230: 80 00 80 00 80 00 80 00  80 00 80 00 80 00 80 00  ................
2240: 80 00 80 00 80 00 80 00  80 00 80 6B 81 6C 81 6D  ...........k.l.m
2250: 81 6E 81 6F 81 70 81 71  81 72 81 73 81 00 80 00  .n.o.p.q.r.s....
2260: 80 00 80 00 80 00 80 00  80 00 80 00 80 00 80 00  ................
2270: 80 00 80 00 80 00 80 00  80 00 80 10 80 10 80 10  ................
2280: 80 10 80 10 80 0F 80 0F  80 0F 80 0F 80 00 80 00  ................
2290: 80 00 80 0F 80 10 80 11  80 13 80 14 80 22 80 07  ............."..
22A0: 80 0F 80 10 80 11 80 13  80 14 80 22 80 06 80 08  ..........."....
22B0: 80 23 80 07 80 01 80 0F  80 10 80 11 80 13 80 14  .#..............
22C0: 80 22 80 0F 80 10 80 11  80 13 80 14 80 22 80 06  ."..........."..
22D0: 80 08 80 23 80 01 80 06  80 08 80 23 80 06 80 08  ...#.......#....
22E0: 80 23 80 1C 80 35 80 3C  80 0F 80 10 80 11 80 13  .#...5.<........
22F0: 80 14 80 22 80 0F 80 10  80 11 80 13 80 14 80 22  ..."..........."
2300: 80 06 80 08 80 23 80 06  80 08 80 23 80 1C 80 35  .....#.....#...5
2310: 80 3C 80 0F 80 10 80 11  80 13 80 14 80 22 80 0F  .<..........."..
2320: 80 10 80 11 80 13 80 14  80 22 80 01 80 01 80 07  ........."......
2330: 80 07 80 00 80 00 80 00  80 00 80 00 80 00 80 00  ................
2340: 80 00 80 00 80 00 80 00  80 18 80 18 80 18 80 18  ................
2350: 80 18 80 18 80 18 80 18  80 18 80 18 80 18 80 02  ................
2360: 80 02 80 02 80 02 80 02  80 02 80 02 80 02 80 02  ................
2370: 80 02 80 02 80 6A 80 6A  80 6A 80 6A 80 6A 80 6A  .....j.j.j.j.j.j
2380: 80 6A 80 6A 80 6A 80 6A  80 6A 80 06 80 08 80 23  .j.j.j.j.j.....#
2390: 80 01 80 07 80 06 80 08  80 23 80 01 80 01 80 07  .........#......
23A0: 80 6B 80 6B 80 6B 80 6B  80 6B 80 6B 80 6B 80 6B  .k.k.k.k.k.k.k.k
23B0: 80 6B 80 6B 80 6B 80 0F  80 10 80 11 80 13 80 14  .k.k.k..........
23C0: 80 22 80 0F 80 10 80 11  80 13 80 14 80 22 80 06  ."..........."..
23D0: 80 08 80 23 80 06 80 08  80 23 80 1C 80 35 80 3C  ...#.....#...5.<
23E0: 80 06 80 08 80 23 80 01  80 01 80 01 80 01 80 0F  .....#..........
23F0: 80 10 80 11 80 13 80 14  80 22 80 07 80 07 80 07  ........."......
2400: 80 07 80 07 80 00 80 00  80 00 80 00 80 00 80 00  ................
2410: 80 00 80 0F 80 0F 80 0F  80 0F 80 0F 80 0F 80 0F  ................
2420: 80 0F 80 0F 80 0F 80 0F  80 0F 80 0F 80 0F 80 0F  ................
2430: 80 0F 80 0F 80 0F 80 0F  80 0F 80 0F 80 0F 80 0F  ................
2440: 80 0F 80 0F 80 0F 80 0F  80 0F 80 0F 80 0F 80 0F  ................
2450: 80 0F 80 0F 80 0F 80 0F  80 0F 80 0F 80 0F 80 0F  ................
2460: 80 0F 80 0F 80 0F 80 0F  80 0F 80 0F 80 0F 80 0F  ................
2470: 80 0F 80 0F 80 0F 80 0F  80 0F 80 0F 80 0F 80 0F  ................
2480: 80 0F 80 0F 80 0F 80 0F  80 0F 80 0F 80 0F 80 0F  ................
2490: 80 0F 80 0F 80 0F 80 0F  80 0F 80 0F 80 0F 80 0F  ................
24A0: 80 0F 80 0F 80 0F 80 0F  80 0F 80 0F 80 0F 80 0F  ................
24B0: 80 0F 80 0F 80 0F 80 0F  80 0F 80 0F 80 0F 80 0F  ................
24C0: 80 0F 80 0F 80 0F 80 0F  80 0F 80 0F 80 0F 80 0F  ................
24D0: 80 0F 80 0F 80 0F 80 0F  80 0F 80 0F 80 0F 80 0F  ................
24E0: 80 0F 80 0F 80 0F 80 0F  80 0F 80 0F 80 0F 80 0F  ................
24F0: 80 0F 80 0F 80 0F 80 0F  80 0F 80 0F 80 0F 80 0F  ................
2500: 80 0F 80 0F 80 0F 80 0F  80 0F 80 0F 80 0F 80 0F  ................
2510: 80 0F 80 0F 80 0F 80 0F  80 0F 80 0F 80 0F 80 0F  ................
2520: 80 0F 80 0F 80 0F 80 0F  80 0F 80 0F 80 0F 80 0F  ................
2530: 80 0F 80 0F 80 0F 80 0F  80 0F 80 0F 80 0F 80 0F  ................
2540: 80 0F 80 0F 80 0F 80 0F  80 0F 80 0F 80 0F 80 0F  ................
2550: 80 0F 80 0F 80 0F 80 0F  80 0F 80 0F 80 0F 80 0F  ................
2560: 80 0F 80 0F 80 0F 80 0F  80 0F 80 0F 80 0F 80 0F  ................
2570: 80 0F 80 0F 80 0F 80 0F  80 0F 80 0F 80 0F 80 0F  ................
2580: 80 0F 80 0F 80 00 80 00  80 00 80 00 80 00 80 00  ................
2590: 80 00 80 00 80 74 81 D1  80 0E 81 75 81 66 80 0B  .....t.....u.f..
25A0: 81 76 81 77 81 09 81 4E  80 78 81 79 81 7A 81 7B  .v.w...N.x.y.z.{
25B0: 81 7C 81 3C 80 22 80 22  80 22 80 22 80 22 80 22  .|.<."."."."."."
25C0: 80 08 80 08 80 08 80 74  81 74 81 74 81 66 80 1C  .......t.t.t.f..
25D0: 80 1C 80 01 80 01 80 01  80 00 80 00 80 00 80 00  ................
25E0: 80 00 80 1C 80 53 80 74  81 66 80 4E 80 7D 81 5C  .....S.t.f.N.}.\
25F0: 80 7E 81 5F 80 7F 81 80  81 00 80 00 80 00 80 00  .~._............
2600: 80 00 80 1C 80 13 81 53  80 74 81 D1 80 81 81 82  .......S.t......
2610: 81 77 81 78 81 7C 81 58  80 00 80 00 80 00 80 00  .w.x.|.X........
2620: 80 00 80 0F 80 14 80 1C  80 26 80 1E 81 D2 80 83  .........&......
2630: 81 74 81 D0 80 08 81 0D  81 00 80 00 80 00 80 00  .t..............
2640: 80 00 80 0F 80 14 80 1C  80 26 80 1E 81 D2 80 83  .........&......
2650: 81 74 81 D0 80 08 81 0D  81 00 80 00 80 00 80 00  .t..............
2660: 80 00 80 0F 80 14 80 1C  80 26 80 1E 81 D2 80 83  .........&......
2670: 81 74 81 D0 80 08 81 0D  81 00 80 00 80 00 80 00  .t..............
2680: 80 00 80 84 81 85 81 86  81 87 81 88 81 89 81 8A  ................
2690: 81 8B 81 8C 81 00 80 00  80 00 80 00 80 00 80 00  ................
26A0: 80 00 80 10 80 11 80 10  80 10 80 10 80 0F 80 0F  ................
26B0: 80 0F 80 22 80 00 80 00  80 00 80 00 80 00 80 00  ..."............
26C0: 80 00 80 25 81 26 81 27  81 28 81 29 81 2A 81 2B  ...%.&.'.(.).*.+
26D0: 81 2C 81 2D 81 2E 81 2F  81 30 81 00 80 00 80 00  .,.-.../.0......
26E0: 80 00 80 8D 81 8E 81 8F  81 90 81 91 81 92 81 93  ................
26F0: 81 94 81 95 81 00 80 00  80 00 80 00 80 00 80 00  ................
2700: 80 00 80 10 80 10 80 10  80 10 80 10 80 0F 80 10  ................
2710: 80 0F 80 0F 80 00 80 00  80 00 80 00 80 00 80 00  ................
2720: 80 00 80 39 81 3A 81 3B  81 3C 81 3D 81 3E 81 3F  ...9.:.;.<.=.>.?
2730: 81 40 81 41 81 42 81 43  81 44 81 00 80 00 80 00  .@.A.B.C.D......
2740: 80 00 80 96 81 97 81 98  81 99 81 9A 81 9B 81 9C  ................
2750: 81 9D 81 9E 81 00 80 00  80 00 80 00 80 00 80 00  ................
2760: 80 00 80 0F 80 10 80 0F  80 0F 80 0F 80 0F 80 0F  ................
2770: 80 0F 80 0F 80 00 80 00  80 00 80 00 80 00 80 00  ................
2780: 80 00 80 57 81 58 81 59  81 5A 81 5B 81 5C 81 5D  ...W.X.Y.Z.[.\.]
2790: 81 5E 81 5F 81 10 81 60  81 61 81 00 80 00 80 00  .^._...`.a......
27A0: 80 00 80 03 10 04 10 05  10 06 10 07 10 08 10 09  ................
27B0: 10 00 17 01 17 02 17 03  17 04 17 05 17 06 17 07  ................
27C0: 17 08 17 09 17 0A 17 0B  17 0C 17 0D 17 0E 17 0F  ................
27D0: 17 10 17 11 17 12 17 13  17 14 17 15 17 16 17 17  ................
27E0: 17 18 17 1D 00 1E 00 1F  00 20 00 00 80 00 80 00  ......... ......
27F0: 80 00 80                                          ...             
```

#### Opcodes

```
  0: 0x0015 [0x1A] CALL_SUBROUTINE(address=0x1D1E)
  1: 0x0018 [0x21] END_EVENT
  2: 0x0019 [0x00] END_REQSTACK()

SUBROUTINE_1D1E:
  3: 0x1D1E [0x1E] EventEntity looks at LocalPlayer and starts talking
  4: 0x1D23 [0x6F] WAIT_FRAME_DELAY: Yield until WaitTime reaches zero
  5: 0x1D24 [0x70] WAIT_ENTITY_RENDER_FLAG: Wait while EventEntity->Render.Flags3 bit 2 is set (cancel turn if not)
  6: 0x1D25 [0x03] ExtData[1]->WorkLocal[3] = Work_Zone[3]
  7: 0x1D2A [0x03] Work_Zone[3] = 2912*
  8: 0x1D2F [0x03] Work_Zone[4] = 2914*
  9: 0x1D34 [0x03] Work_Zone[5] = 2916*
 10: 0x1D39 [0x24] CREATE_DIALOG(message_id=7627*, default_option=0*, option_flags=ExtData[1]->WorkLocal[3])
     "Which do you choose? [None./$3./$3./$3./$3./$3./$3./$3./$3./$3./$3./$3./$3./$3./$3./$3./$3./Previous page./Next page.]"
 11: 0x1D40 [0x25] WAIT_DIALOG_SELECT()
 12: 0x1D41 [0x02] IF !(Work_Zone[0] == 0*) GOTO 0x1D52
 13: 0x1D49 [0x03] Work_Zone[1] = 1073741824*
 14: 0x1D4E [0x1B] RETURN

SUBROUTINE_1D52:
 15: 0x1D52 [0x03] ExtData[1]->WorkLocal[4] = Work_Zone[0]
 16: 0x1D57 [0x42] SET_CLI_EVENT_CANCEL_DATA()
 17: 0x1D58 [0x40] SET_BIT_WORK_RANGE(start_bit=0*, end_bit=7*, target=Work_Zone[1], source=0*)
 18: 0x1D61 [0x40] SET_BIT_WORK_RANGE(start_bit=8*, end_bit=15*, target=Work_Zone[1], source=ExtData[1]->WorkLocal[4])
 19: 0x1D6A [0x1D] PRINT_EVENT_MESSAGE(message_id=7774*)
     "Here."
 20: 0x1D6D [0x23] WAIT_FOR_DIALOG_INTERACTION
 21: 0x1D6E [0x1B] RETURN
```

#### Data or dead code:

```
# Dead code (unreachable instructions):
     0x001A [0x03] ExtData[1]->WorkLocal[34] = Work_Zone[2]
     0x001F [0x03] ExtData[1]->WorkLocal[9] = Work_Zone[3]
     0x0024 [0x41] ExtData[1]->WorkLocal[10] = Work_Zone[4] (bits 0*-15*)
     0x002D [0x41] ExtData[1]->WorkLocal[33] = Work_Zone[4] (bits 16*-23*)
     0x0036 [0x41] ExtData[1]->WorkLocal[13] = Work_Zone[4] (bits 24*-31*)
     0x003F [0x03] ExtData[1]->WorkLocal[29] = Work_Zone[6]
     0x0044 [0x03] ExtData[1]->WorkLocal[30] = Work_Zone[7]
     0x0049 [0x03] ExtData[1]->WorkLocal[31] = Work_Zone[8]
     0x004E [0x03] ExtData[1]->WorkLocal[32] = Work_Zone[9]
     0x0053 [0x40] SET_BIT_WORK_RANGE(start_bit=0*, end_bit=7*, target=Work_Zone[1], source=14*)
     0x005C [0x40] SET_BIT_WORK_RANGE(start_bit=8*, end_bit=15*, target=Work_Zone[1], source=0*)
     0x0065 [0x43] SEND_EVENT_UPDATE: Send pending tag to server (packet 0x005B)
     0x0067 [0x43] SEND_EVENT_UPDATE: Check pending flag (skip if not pending)
     0x0069 [0x03] ExtData[1]->WorkLocal[11] = Work_Zone[2]
     0x006E [0x03] ExtData[1]->WorkLocal[12] = Work_Zone[3]
     0x0073 [0x1E] EventEntity looks at LocalPlayer and starts talking
     0x0078 [0x6F] WAIT_FRAME_DELAY: Yield until WaitTime reaches zero
     0x0079 [0x70] WAIT_ENTITY_RENDER_FLAG: Wait while EventEntity->Render.Flags3 bit 2 is set (cancel turn if not)
     0x007A [0x1D] PRINT_EVENT_MESSAGE(message_id=7717*)
     "Hey, Man[/-lady], you come here! Shiftrix knew it, hehehe."
     0x007D [0x23] WAIT_FOR_DIALOG_INTERACTION
     0x007E [0x1D] PRINT_EVENT_MESSAGE(message_id=7718*)
     "This is Shiftrix. Shiftrix sell things. People come to island-rock, buy things from Shiftrix. Man-person from Tenshodo say so."
     0x0081 [0x23] WAIT_FOR_DIALOG_INTERACTION
     0x0082 [0x1D] PRINT_EVENT_MESSAGE(message_id=7719*)
     "Is Shiftrix from Tenshodo? Who cares? Doesn't matter."
     0x0085 [0x23] WAIT_FOR_DIALOG_INTERACTION
     0x0086 [0x1D] PRINT_EVENT_MESSAGE(message_id=7720*)
     "Shiftrix sell anyway."
     0x0089 [0x23] WAIT_FOR_DIALOG_INTERACTION
     0x008A [0x1D] PRINT_EVENT_MESSAGE(message_id=7721*)
     "If Man[/-lady] want buy, need escha silt."
     0x008D [0x23] WAIT_FOR_DIALOG_INTERACTION
     0x008E [0x1D] PRINT_EVENT_MESSAGE(message_id=7722*)
     "Man[/-lady] get silt from monsters. Clobber monsters, get silt. Then trade with Shiftrix."
     0x0091 [0x23] WAIT_FOR_DIALOG_INTERACTION
     0x0092 [0x42] SET_CLI_EVENT_CANCEL_DATA()
     0x0093 [0x40] SET_BIT_WORK_RANGE(start_bit=0*, end_bit=7*, target=Work_Zone[1], source=1*)
     0x009C [0x40] SET_BIT_WORK_RANGE(start_bit=8*, end_bit=15*, target=Work_Zone[1], source=0*)
     0x00A5 [0x43] SEND_EVENT_UPDATE: Send pending tag to server (packet 0x005B)
     0x00A7 [0x43] SEND_EVENT_UPDATE: Check pending flag (skip if not pending)
     0x00A9 [0x40] SET_BIT_WORK_RANGE(start_bit=0*, end_bit=7*, target=Work_Zone[1], source=8*)
     0x00B2 [0x40] SET_BIT_WORK_RANGE(start_bit=8*, end_bit=15*, target=Work_Zone[1], source=0*)
     0x00BB [0x43] SEND_EVENT_UPDATE: Send pending tag to server (packet 0x005B)
     0x00BD [0x43] SEND_EVENT_UPDATE: Check pending flag (skip if not pending)
     0x00BF [0x03] ExtData[1]->WorkLocal[73] = Work_Zone[3]
     0x00C4 [0x03] ExtData[1]->WorkLocal[74] = Work_Zone[4]
     0x00C9 [0x03] ExtData[1]->WorkLocal[75] = Work_Zone[5]
     0x00CE [0x03] ExtData[1]->WorkLocal[76] = Work_Zone[6]
     0x00D3 [0x03] ExtData[1]->WorkLocal[77] = Work_Zone[7]
     0x00D8 [0x03] ExtData[1]->WorkLocal[78] = Work_Zone[8]
     0x00DD [0x03] ExtData[1]->WorkLocal[14] = Work_Zone[9]
     0x00E2 [0x2E] SET_CLI_EVENT_CANCEL_FLAGS()
     0x00E3 [0x3E] IF !(ExtData[1]->WorkLocal[13] bit 2*) GOTO 0x00ED
     0x00EA [0x01] GOTO 0x00F0
     0x00ED [0x05] Work_Zone_1700[27] = 1
     0x00F0 [0x1A] CALL_SUBROUTINE(address=0x0247)
     0x00F3 [0x1B] RETURN
     0x00F4 [0x03] ExtData[1]->WorkLocal[34] = Work_Zone[2]
     0x00F9 [0x03] ExtData[1]->WorkLocal[9] = Work_Zone[3]
     0x00FE [0x41] ExtData[1]->WorkLocal[10] = Work_Zone[4] (bits 0*-15*)
     0x0107 [0x41] ExtData[1]->WorkLocal[33] = Work_Zone[4] (bits 16*-23*)
     0x0110 [0x41] ExtData[1]->WorkLocal[13] = Work_Zone[4] (bits 24*-31*)
     0x0119 [0x03] ExtData[1]->WorkLocal[29] = Work_Zone[6]
     0x011E [0x03] ExtData[1]->WorkLocal[30] = Work_Zone[7]
     0x0123 [0x03] ExtData[1]->WorkLocal[31] = Work_Zone[8]
     0x0128 [0x03] ExtData[1]->WorkLocal[32] = Work_Zone[9]
     0x012D [0x40] SET_BIT_WORK_RANGE(start_bit=0*, end_bit=7*, target=Work_Zone[1], source=14*)
     0x0136 [0x40] SET_BIT_WORK_RANGE(start_bit=8*, end_bit=15*, target=Work_Zone[1], source=0*)
     0x013F [0x43] SEND_EVENT_UPDATE: Send pending tag to server (packet 0x005B)
     0x0141 [0x43] SEND_EVENT_UPDATE: Check pending flag (skip if not pending)
     0x0143 [0x03] ExtData[1]->WorkLocal[11] = Work_Zone[2]
     0x0148 [0x03] ExtData[1]->WorkLocal[12] = Work_Zone[3]
     0x014D [0x1E] EventEntity looks at LocalPlayer and starts talking
     0x0152 [0x6F] WAIT_FRAME_DELAY: Yield until WaitTime reaches zero
     0x0153 [0x70] WAIT_ENTITY_RENDER_FLAG: Wait while EventEntity->Render.Flags3 bit 2 is set (cancel turn if not)
     0x0154 [0x42] SET_CLI_EVENT_CANCEL_DATA()
     0x0155 [0x40] SET_BIT_WORK_RANGE(start_bit=0*, end_bit=7*, target=Work_Zone[1], source=8*)
     0x015E [0x40] SET_BIT_WORK_RANGE(start_bit=8*, end_bit=15*, target=Work_Zone[1], source=0*)
     0x0167 [0x43] SEND_EVENT_UPDATE: Send pending tag to server (packet 0x005B)
     0x0169 [0x43] SEND_EVENT_UPDATE: Check pending flag (skip if not pending)
     0x016B [0x03] ExtData[1]->WorkLocal[73] = Work_Zone[3]
     0x0170 [0x03] ExtData[1]->WorkLocal[74] = Work_Zone[4]
     0x0175 [0x03] ExtData[1]->WorkLocal[75] = Work_Zone[5]
     0x017A [0x03] ExtData[1]->WorkLocal[76] = Work_Zone[6]
     0x017F [0x03] ExtData[1]->WorkLocal[77] = Work_Zone[7]
     0x0184 [0x03] ExtData[1]->WorkLocal[78] = Work_Zone[8]
     0x0189 [0x03] ExtData[1]->WorkLocal[14] = Work_Zone[9]
     0x018E [0x2E] SET_CLI_EVENT_CANCEL_FLAGS()
     0x018F [0x06] Work_Zone_1700[27] = 0
     0x0192 [0x3E] IF !(ExtData[1]->WorkLocal[13] bit 3*) GOTO 0x01B2
     0x0199 [0x1D] PRINT_EVENT_MESSAGE(message_id=7723*)
     "What you want, Man[/-lady]?"
     0x019C [0x23] WAIT_FOR_DIALOG_INTERACTION
     0x019D [0x3E] IF !(ExtData[1]->WorkLocal[13] bit 1*) GOTO 0x01AC
     0x01A4 [0x03] Work_Zone_1700[27] = 2*
     0x01A9 [0x01] GOTO 0x01AF
     0x01AC [0x05] Work_Zone_1700[27] = 1
     0x01AF [0x01] GOTO 0x01E1
     0x01B2 [0x3E] IF !(ExtData[1]->WorkLocal[13] bit 1*) GOTO 0x01CD
     0x01B9 [0x3E] IF !(ExtData[1]->WorkLocal[13] bit 2*) GOTO 0x01C7
     0x01C0 [0x1D] PRINT_EVENT_MESSAGE(message_id=7723*)
     "What you want, Man[/-lady]?"
     0x01C3 [0x23] WAIT_FOR_DIALOG_INTERACTION
     0x01C4 [0x01] GOTO 0x01CA
     0x01C7 [0x1A] CALL_SUBROUTINE(address=0x01E5)
     0x01CA [0x01] GOTO 0x01E1
     0x01CD [0x1D] PRINT_EVENT_MESSAGE(message_id=7723*)
     "What you want, Man[/-lady]?"
     0x01D0 [0x23] WAIT_FOR_DIALOG_INTERACTION
     0x01D1 [0x3E] IF !(ExtData[1]->WorkLocal[13] bit 2*) GOTO 0x01DE
     0x01D8 [0x06] Work_Zone_1700[27] = 0
     0x01DB [0x01] GOTO 0x01E1
     0x01DE [0x05] Work_Zone_1700[27] = 1
     0x01E1 [0x1A] CALL_SUBROUTINE(address=0x0247)
     0x01E4 [0x1B] RETURN
     0x01E5 [0x41] ExtData[1]->WorkLocal[25] = ExtData[1]->WorkLocal[34] (bits 0*-2*)
     0x01EE [0x07] ExtData[1]->WorkLocal[25] += 4*
     0x01F3 [0x3F] ExtData[1]->WorkLocal[25] = ExtData[1]->WorkLocal[25] % 5*
     0x01FA [0x02] IF !(ExtData[1]->WorkLocal[25] >= 2*) GOTO 0x023F
     0x0202 [0x42] SET_CLI_EVENT_CANCEL_DATA()
     0x0203 [0x1D] PRINT_EVENT_MESSAGE(message_id=7778*)
     "Oh, good. Man[/-lady] come here just in time."
     0x0206 [0x23] WAIT_FOR_DIALOG_INTERACTION
     0x0207 [0x03] Work_Zone[2] = ExtData[1]->WorkLocal[25]
     0x020C [0x1D] PRINT_EVENT_MESSAGE(message_id=7779*)
     "Big dragon monster's [coming soon/shown up] here on rock. Very scary. Shiftrix want to clobber, but no can."
     0x020F [0x23] WAIT_FOR_DIALOG_INTERACTION
     0x0210 [0x1D] PRINT_EVENT_MESSAGE(message_id=7780*)
     "Good thing Man[/-lady] here. Take this."
     0x0213 [0x23] WAIT_FOR_DIALOG_INTERACTION
     0x0214 [0x40] SET_BIT_WORK_RANGE(start_bit=0*, end_bit=7*, target=Work_Zone[1], source=13*)
     0x021D [0x40] SET_BIT_WORK_RANGE(start_bit=8*, end_bit=15*, target=Work_Zone[1], source=0*)
     0x0226 [0x43] SEND_EVENT_UPDATE: Send pending tag to server (packet 0x005B)
     0x0228 [0x43] SEND_EVENT_UPDATE: Check pending flag (skip if not pending)
     0x022A [0x03] ExtData[1]->WorkLocal[9] = Work_Zone[3]
     0x022F [0x41] ExtData[1]->WorkLocal[13] = Work_Zone[4] (bits 24*-31*)
     0x0238 [0x2E] SET_CLI_EVENT_CANCEL_FLAGS()
     0x0239 [0x06] Work_Zone_1700[27] = 0
     0x023C [0x01] GOTO 0x0246
     0x023F [0x1D] PRINT_EVENT_MESSAGE(message_id=7723*)
     "What you want, Man[/-lady]?"
     0x0242 [0x23] WAIT_FOR_DIALOG_INTERACTION
     0x0243 [0x05] Work_Zone_1700[27] = 1
     0x0246 [0x1B] RETURN
     0x0247 [0x06] ExtData[1]->WorkLocal[2] = 0
     0x024A [0x06] ExtData[1]->WorkLocal[1] = 0
     0x024D [0x06] ExtData[1]->WorkLocal[0] = 0
     0x0250 [0x02] IF !(ExtData[1]->WorkLocal[2] == 0*) GOTO 0x03BD
     0x0258 [0x3E] IF !(ExtData[1]->WorkLocal[13] bit 1*) GOTO 0x0265
     0x025F [0x1A] CALL_SUBROUTINE(address=0x06B3)
     0x0262 [0x01] GOTO 0x026A
     0x0265 [0x03] ExtData[1]->WorkLocal[0] = 1022*
     0x026A [0x24] CREATE_DIALOG(message_id=7646*, default_option=ExtData[1]->WorkLocal[1], option_flags=ExtData[1]->WorkLocal[0])
     "What would you like to do? [Nothing in particular./[Receive elvorseal/Return elvorseal]./Teleport to the target monster./Check area blessings./Receive key items./View grisly trinket notes./Receive vorseals./Return vorseals./Check vorseal effects./Receive temporary items./Hear various explanations.]"
     0x0271 [0x25] WAIT_DIALOG_SELECT()
     0x0272 [0x02] IF !(Work_Zone[0] == 0*) GOTO 0x0285
     0x027A [0x03] Work_Zone[1] = 1073741824*
     0x027F [0x05] ExtData[1]->WorkLocal[2] = 1
     0x0282 [0x01] GOTO 0x0285
     0x0285 [0x03] ExtData[1]->WorkLocal[1] = Work_Zone[0]
     0x028A [0x3E] IF !(ExtData[1]->WorkLocal[13] bit 1*) GOTO 0x0294
     0x0291 [0x01] GOTO 0x0326
     0x0294 [0x02] IF !(ExtData[1]->WorkLocal[1] == 10*) GOTO 0x0323
     0x029C [0x03] Work_Zone[2] = 10*
     0x02A1 [0x1D] PRINT_EVENT_MESSAGE(message_id=7724*)
     "First you need make contract with Shiftrix. Pay $0 silt, then Man[/-lady] is Shiftrix customer."
     0x02A4 [0x23] WAIT_FOR_DIALOG_INTERACTION
     0x02A5 [0x03] Work_Zone[2] = ExtData[1]->WorkLocal[9]
     0x02AA [0x03] Work_Zone[3] = 10*
     0x02AF [0x24] CREATE_DIALOG(message_id=7623*, default_option=1*, option_flags=0*)
     "Pay silt? (current silt: $0) [Yes. (pay $1 silt)/Maybe not.]"
     0x02B6 [0x25] WAIT_DIALOG_SELECT()
     0x02B7 [0x02] IF !(Work_Zone[0] == 0*) GOTO 0x0306
     0x02BF [0x02] IF !(ExtData[1]->WorkLocal[9] < 10*) GOTO 0x02F4
     0x02C7 [0x42] SET_CLI_EVENT_CANCEL_DATA()
     0x02C8 [0x40] SET_BIT_WORK_RANGE(start_bit=0*, end_bit=7*, target=Work_Zone[1], source=2*)
     0x02D1 [0x40] SET_BIT_WORK_RANGE(start_bit=8*, end_bit=15*, target=Work_Zone[1], source=0*)
     0x02DA [0x43] SEND_EVENT_UPDATE: Send pending tag to server (packet 0x005B)
     0x02DC [0x43] SEND_EVENT_UPDATE: Check pending flag (skip if not pending)
     0x02DE [0x03] ExtData[1]->WorkLocal[9] = Work_Zone[3]
     0x02E3 [0x41] ExtData[1]->WorkLocal[13] = Work_Zone[4] (bits 24*-31*)
     0x02EC [0x1D] PRINT_EVENT_MESSAGE(message_id=7725*)
     "Good silt. Nice and gray. Now Man[/-lady] buy from Shiftrix only. You want something, talk to Shiftrix."
     0x02EF [0x23] WAIT_FOR_DIALOG_INTERACTION
     0x02F0 [0x2E] SET_CLI_EVENT_CANCEL_FLAGS()
     0x02F1 [0x01] GOTO 0x0303
     0x02F4 [0x1D] PRINT_EVENT_MESSAGE(message_id=7729*)
     "No silt? Get out of here, Man[/-lady]."
     0x02F7 [0x23] WAIT_FOR_DIALOG_INTERACTION
     0x02F8 [0x03] Work_Zone[1] = 1073741824*
     0x02FD [0x06] ExtData[1]->WorkLocal[1] = 0
     0x0300 [0x05] ExtData[1]->WorkLocal[2] = 1
     0x0303 [0x01] GOTO 0x0320
     0x0306 [0x02] IF !(Work_Zone[0] == 1*) GOTO 0x0320
     0x030E [0x1D] PRINT_EVENT_MESSAGE(message_id=7726*)
     "No silt, no sell. Now go away."
     0x0311 [0x23] WAIT_FOR_DIALOG_INTERACTION
     0x0312 [0x03] Work_Zone[1] = 1073741824*
     0x0317 [0x06] ExtData[1]->WorkLocal[1] = 0
     0x031A [0x05] ExtData[1]->WorkLocal[2] = 1
     0x031D [0x01] GOTO 0x0320
     0x0320 [0x01] GOTO 0x0326
     0x0323 [0x06] ExtData[1]->WorkLocal[1] = 0
     0x0326 [0x02] IF !(ExtData[1]->WorkLocal[1] <= 0*) GOTO 0x03BA
     0x032E [0x02] IF !(ExtData[1]->WorkLocal[1] == 1*) GOTO 0x033C
     0x0336 [0x1A] CALL_SUBROUTINE(address=0x05FE)
     0x0339 [0x01] GOTO 0x03BA
     0x033C [0x02] IF !(ExtData[1]->WorkLocal[1] == 2*) GOTO 0x034A
     0x0344 [0x1A] CALL_SUBROUTINE(address=0x04DD)
     0x0347 [0x01] GOTO 0x03BA
     0x034A [0x02] IF !(ExtData[1]->WorkLocal[1] == 3*) GOTO 0x0358
     0x0352 [0x1A] CALL_SUBROUTINE(address=0x03BE)
     0x0355 [0x01] GOTO 0x03BA
     0x0358 [0x02] IF !(ExtData[1]->WorkLocal[1] == 4*) GOTO 0x0366
     0x0360 [0x1A] CALL_SUBROUTINE(address=0x0774)
     0x0363 [0x01] GOTO 0x03BA
     0x0366 [0x02] IF !(ExtData[1]->WorkLocal[1] == 5*) GOTO 0x0374
     0x036E [0x1A] CALL_SUBROUTINE(address=0x0E02)
     0x0371 [0x01] GOTO 0x03BA
     0x0374 [0x02] IF !(ExtData[1]->WorkLocal[1] == 6*) GOTO 0x0382
     0x037C [0x1A] CALL_SUBROUTINE(address=0x124F)
     0x037F [0x01] GOTO 0x03BA
     0x0382 [0x02] IF !(ExtData[1]->WorkLocal[1] == 7*) GOTO 0x0390
     0x038A [0x1A] CALL_SUBROUTINE(address=0x1519)
     0x038D [0x01] GOTO 0x03BA
     0x0390 [0x02] IF !(ExtData[1]->WorkLocal[1] == 8*) GOTO 0x039E
     0x0398 [0x1A] CALL_SUBROUTINE(address=0x16C7)
     0x039B [0x01] GOTO 0x03BA
     0x039E [0x02] IF !(ExtData[1]->WorkLocal[1] == 9*) GOTO 0x03AC
     0x03A6 [0x1A] CALL_SUBROUTINE(address=0x174D)
     0x03A9 [0x01] GOTO 0x03BA
     0x03AC [0x02] IF !(ExtData[1]->WorkLocal[1] == 10*) GOTO 0x03BA
     0x03B4 [0x1A] CALL_SUBROUTINE(address=0x19AA)
     0x03B7 [0x01] GOTO 0x03BA
     0x03BA [0x01] GOTO 0x0250
     0x03BD [0x1B] RETURN
     0x03BE [0x1D] PRINT_EVENT_MESSAGE(message_id=7811*)
     "Man[/-lady] want check blessings for rock? Okay."
     0x03C1 [0x23] WAIT_FOR_DIALOG_INTERACTION
     0x03C2 [0x1D] PRINT_EVENT_MESSAGE(message_id=7812*)
     "Here. Shiftrix write them down. See? Smart."
     0x03C5 [0x23] WAIT_FOR_DIALOG_INTERACTION
     0x03C6 [0x06] ExtData[1]->WorkLocal[5] = 0
     0x03C9 [0x06] ExtData[1]->WorkLocal[4] = 0
     0x03CC [0x02] IF !(ExtData[1]->WorkLocal[5] == 0*) GOTO 0x04DC
     0x03D4 [0x40] SET_BIT_WORK_RANGE(start_bit=0*, end_bit=7*, target=Work_Zone[1], source=9*)
     0x03DD [0x40] SET_BIT_WORK_RANGE(start_bit=8*, end_bit=15*, target=Work_Zone[1], source=0*)
     0x03E6 [0x43] SEND_EVENT_UPDATE: Send pending tag to server (packet 0x005B)
     0x03E8 [0x43] SEND_EVENT_UPDATE: Check pending flag (skip if not pending)
     0x03EA [0x03] ExtData[1]->WorkLocal[34] = Work_Zone[2]
     0x03EF [0x41] ExtData[1]->WorkLocal[3] = ExtData[1]->WorkLocal[34] (bits 10*-20*)
     0x03F8 [0x0F] ExtData[1]->WorkLocal[3] ^= 4294967295*
     0x03FD [0x10] ExtData[1]->WorkLocal[3] <<= 1*
     0x0402 [0x24] CREATE_DIALOG(message_id=7651*, default_option=ExtData[1]->WorkLocal[4], option_flags=ExtData[1]->WorkLocal[3])
     "Which active blessing will you check? [None of them. Go back./Temperance./Fortitude./Piety./Justice./Hope./Wisdom./Compassion./Dignity./Loyalty./Mercy./Courage.]"
     0x0409 [0x25] WAIT_DIALOG_SELECT()
     0x040A [0x02] IF !(Work_Zone[0] == 0*) GOTO 0x0418
     0x0412 [0x05] ExtData[1]->WorkLocal[5] = 1
     0x0415 [0x01] GOTO 0x0418
     0x0418 [0x03] ExtData[1]->WorkLocal[4] = Work_Zone[0]
     0x041D [0x02] IF !(ExtData[1]->WorkLocal[5] == 0*) GOTO 0x04D9
     0x0425 [0x02] IF !(ExtData[1]->WorkLocal[4] == 1*) GOTO 0x0439
     0x042D [0x03] Work_Zone[2] = 1*
     0x0432 [0x48] [System] [7652*]:
     "Temperance: Reduces the silt cost of eschan portals."
     0x0435 [0x23] WAIT_FOR_DIALOG_INTERACTION
     0x0436 [0x01] GOTO 0x04D9
     0x0439 [0x02] IF !(ExtData[1]->WorkLocal[4] == 2*) GOTO 0x0448
     0x0441 [0x48] [System] [7653*]:
     "Fortitude: Increases the status effects of vorseals."
     0x0444 [0x23] WAIT_FOR_DIALOG_INTERACTION
     0x0445 [0x01] GOTO 0x04D9
     0x0448 [0x02] IF !(ExtData[1]->WorkLocal[4] == 3*) GOTO 0x0457
     0x0450 [0x48] [System] [7654*]:
     "Piety: Increases the effect duration of vorseals."
     0x0453 [0x23] WAIT_FOR_DIALOG_INTERACTION
     0x0454 [0x01] GOTO 0x04D9
     0x0457 [0x02] IF !(ExtData[1]->WorkLocal[4] == 4*) GOTO 0x0466
     0x045F [0x48] [System] [7655*]:
     "Justice: Increases "Treasure Hunter" ability by 1."
     0x0462 [0x23] WAIT_FOR_DIALOG_INTERACTION
     0x0463 [0x01] GOTO 0x04D9
     0x0466 [0x02] IF !(ExtData[1]->WorkLocal[4] == 5*) GOTO 0x0475
     0x046E [0x48] [System] [7656*]:
     "Hope: Increases the chances of an emblazoned reliquary appearing."
     0x0471 [0x23] WAIT_FOR_DIALOG_INTERACTION
     0x0472 [0x01] GOTO 0x04D9
     0x0475 [0x02] IF !(ExtData[1]->WorkLocal[4] == 6*) GOTO 0x0484
     0x047D [0x48] [System] [7657*]:
     "Wisdom: Increases the effect duration of food."
     0x0480 [0x23] WAIT_FOR_DIALOG_INTERACTION
     0x0481 [0x01] GOTO 0x04D9
     0x0484 [0x02] IF !(ExtData[1]->WorkLocal[4] == 7*) GOTO 0x0493
     0x048C [0x48] [System] [7658*]:
     "Compassion: Increases the "Refresh" and "Regen" effects of vorseals."
     0x048F [0x23] WAIT_FOR_DIALOG_INTERACTION
     0x0490 [0x01] GOTO 0x04D9
     0x0493 [0x02] IF !(ExtData[1]->WorkLocal[4] == 8*) GOTO 0x04A2
     0x049B [0x48] [System] [7659*]:
     "Dignity: Increases escha silt yields."
     0x049E [0x23] WAIT_FOR_DIALOG_INTERACTION
     0x049F [0x01] GOTO 0x04D9
     0x04A2 [0x02] IF !(ExtData[1]->WorkLocal[4] == 9*) GOTO 0x04B1
     0x04AA [0x48] [System] [7660*]:
     "Loyalty: Increases escha beads yields."
     0x04AD [0x23] WAIT_FOR_DIALOG_INTERACTION
     0x04AE [0x01] GOTO 0x04D9
     0x04B1 [0x02] IF !(ExtData[1]->WorkLocal[4] == 10*) GOTO 0x04CA
     0x04B9 [0x03] Work_Zone[2] = 2839*
     0x04BE [0x03] Work_Zone[3] = 2894*
     0x04C3 [0x48] [System] [7661*]:
     "Mercy: $5 and $5 have a chance of not being consumed."
     0x04C6 [0x23] WAIT_FOR_DIALOG_INTERACTION
     0x04C7 [0x01] GOTO 0x04D9
     0x04CA [0x02] IF !(ExtData[1]->WorkLocal[4] == 11*) GOTO 0x04D9
     0x04D2 [0x48] [System] [7662*]:
     "Courage: Increases the "Rare enemy+" effects of vorseals."
     0x04D5 [0x23] WAIT_FOR_DIALOG_INTERACTION
     0x04D6 [0x01] GOTO 0x04D9
     0x04D9 [0x01] GOTO 0x03CC
     0x04DC [0x1B] RETURN
     0x04DD [0x24] CREATE_DIALOG(message_id=7648*, default_option=1*, option_flags=0*)
     "Teleport to the target? [I'm ready./Not quite yet.]"
     0x04E4 [0x25] WAIT_DIALOG_SELECT()
     0x04E5 [0x02] IF !(Work_Zone[0] == 0*) GOTO 0x05EE
     0x04ED [0x42] SET_CLI_EVENT_CANCEL_DATA()
     0x04EE [0x1D] PRINT_EVENT_MESSAGE(message_id=7788*)
     "Okay, Man[/-lady]. Clobber time go."
     0x04F1 [0x23] WAIT_FOR_DIALOG_INTERACTION
