# 17969959

## Common Data

| Field            | Value                |
|------------------|----------------------|
| Zone             | Reisenjima (ID: 291) |
| Block Size       | 108 bytes            |
| Total Events     | 4                    |
| References Count | 3                    |

## List of Events

| Event ID                 | Entrypoint   |   Size |   Instructions |
|--------------------------|--------------|--------|----------------|
| [65535](#event-65535)    | 0x0000       |      1 |              1 |
| [4](#event-4)            | 0x0001       |      1 |              1 |
| [5](#event-5)            | 0x0002       |      1 |              1 |
| [65535.1](#event-655351) | 0x0003       |     58 |              6 |

## DAT References (imed_data)

|   Index | Hex Value   |   Dec Value |
|---------|-------------|-------------|
|       0 | 0x000E      |          14 |
|       1 | 0x0000      |           0 |
|       2 | 0x001E      |          30 |

## Events

### Event 65535

#### Metadata

| Field        | Value   |
|--------------|---------|
| Entrypoint   | 0x0000  |
| Data Size    | 1 bytes |
| Instructions | 1       |

```
      00 01 02 03 04 05 06 07  08 09 0A 0B 0C 0D 0E 0F
      -- -- -- -- -- -- -- --  -- -- -- -- -- -- -- --
0000: 00                                                .               
```

#### Opcodes

```
  0: 0x0000 [0x00] END_REQSTACK()
```

### Event 4

#### Metadata

| Field        | Value   |
|--------------|---------|
| Entrypoint   | 0x0001  |
| Data Size    | 1 bytes |
| Instructions | 1       |

```
      00 01 02 03 04 05 06 07  08 09 0A 0B 0C 0D 0E 0F
      -- -- -- -- -- -- -- --  -- -- -- -- -- -- -- --
0000:    00                                              .              
```

#### Opcodes

```
  0: 0x0001 [0x00] END_REQSTACK()
```

### Event 5

#### Metadata

| Field        | Value   |
|--------------|---------|
| Entrypoint   | 0x0002  |
| Data Size    | 1 bytes |
| Instructions | 1       |

```
      00 01 02 03 04 05 06 07  08 09 0A 0B 0C 0D 0E 0F
      -- -- -- -- -- -- -- --  -- -- -- -- -- -- -- --
0000:       00                                            .             
```

#### Opcodes

```
  0: 0x0002 [0x00] END_REQSTACK()
```

### Event 65535.1

#### Metadata

| Field        | Value    |
|--------------|----------|
| Entrypoint   | 0x0003   |
| Data Size    | 58 bytes |
| Instructions | 6        |

```
      00 01 02 03 04 05 06 07  08 09 0A 0B 0C 0D 0E 0F
      -- -- -- -- -- -- -- --  -- -- -- -- -- -- -- --
0000:          D5 00 80 0E 33  12 01 0E 33 12 01 74 61     ....3...3..ta
0010: 6D 61 01 80 1C 02 80 D5  00 80 1A 33 12 01 1A 33  ma.........3...3
0020: 12 01 74 61 6D 61 01 80  1C 02 80 D5 00 80 19 33  ..tama.........3
0030: 12 01 19 33 12 01 74 61  6D 61 01 80 00           ...3..tama...   
```

#### Opcodes

```
  0: 0x0003 [0xD5] LOAD_EVENT_SCHEDULER_ALT8: Load scheduler "ta" with entities [Nashmeira (ID: 17969934/0x0112330E), Nashmeira (ID: 17969934/0x0112330E)], work=ExtData[1]->WorkLocal[1]
  1: 0x0014 [0x1C] WAIT(30* ticks)
  2: 0x0017 [0xD5] LOAD_EVENT_SCHEDULER_ALT8: Load scheduler "ta" with entities [Semih Lafihna (ID: 17969946/0x0112331A), Semih Lafihna (ID: 17969946/0x0112331A)], work=ExtData[1]->WorkLocal[1]
  3: 0x0028 [0x1C] WAIT(30* ticks)
  4: 0x002B [0xD5] LOAD_EVENT_SCHEDULER_ALT8: Load scheduler "ta" with entities [Star Sibyl (ID: 17969945/0x01123319), Star Sibyl (ID: 17969945/0x01123319)], work=ExtData[1]->WorkLocal[1]
  5: 0x003C [0x00] END_REQSTACK()
```
