# 17969926

## Common Data

| Field            | Value                |
|------------------|----------------------|
| Zone             | Reisenjima (ID: 291) |
| Block Size       | 1384 bytes           |
| Total Events     | 29                   |
| References Count | 50                   |

## List of Events

| Event ID                   | Entrypoint   |   Size |   Instructions |
|----------------------------|--------------|--------|----------------|
| [65535](#event-65535)      | 0x0000       |      1 |              1 |
| [65535.1](#event-655351)   | 0x0001       |      1 |              1 |
| [65535.2](#event-655352)   | 0x0002       |     18 |              4 |
| [65535.3](#event-655353)   | 0x0014       |     10 |              2 |
| [65535.4](#event-655354)   | 0x001E       |      9 |              3 |
| [65535.5](#event-655355)   | 0x0027       |      9 |              3 |
| [65535.6](#event-655356)   | 0x0030       |     10 |              2 |
| [65535.7](#event-655357)   | 0x003A       |     10 |              2 |
| [4](#event-4)              | 0x0044       |      4 |              2 |
| [5](#event-5)              | 0x0048       |      4 |              2 |
| [65535.8](#event-655358)   | 0x004C       |      5 |              2 |
| [65535.9](#event-655359)   | 0x0051       |      5 |              2 |
| [8](#event-8)              | 0x0056       |      1 |              1 |
| [9](#event-9)              | 0x0057       |      1 |              1 |
| [65535.10](#event-6553510) | 0x0058       |     10 |              2 |
| [65535.11](#event-6553511) | 0x0062       |     10 |              2 |
| [65535.12](#event-6553512) | 0x006C       |    352 |             34 |
| [65535.13](#event-6553513) | 0x01CC       |     66 |              5 |
| [65535.14](#event-6553514) | 0x020E       |     33 |              3 |
| [65535.15](#event-6553515) | 0x022F       |     49 |              4 |
| [65535.16](#event-6553516) | 0x0260       |     49 |              4 |
| [65535.17](#event-6553517) | 0x0291       |     33 |              3 |
| [65535.18](#event-6553518) | 0x02B2       |     49 |              4 |
| [65535.19](#event-6553519) | 0x02E3       |     82 |              6 |
| [65535.20](#event-6553520) | 0x0335       |     49 |              4 |
| [65535.21](#event-6553521) | 0x0366       |     50 |              4 |
| [65535.22](#event-6553522) | 0x0398       |     33 |              3 |
| [65535.23](#event-6553523) | 0x03B9       |     49 |              4 |
| [65535.24](#event-6553524) | 0x03EA       |     50 |              4 |

## DAT References (imed_data)

|   Index | Hex Value   |   Dec Value |
|---------|-------------|-------------|
|       0 | 0x0000      |           0 |
|       1 | 0x0001      |           1 |
|       2 | 0x0080      |         128 |
|       3 | 0x0146      |         326 |
|       4 | 0x0992      |        2450 |
|       5 | 0x0090      |         144 |
|       6 | 0x0091      |         145 |
|       7 | 0x0002      |           2 |
|       8 | 0x009A      |         154 |
|       9 | 0x009B      |         155 |
|      10 | 0x0003      |           3 |
|      11 | 0x00A4      |         164 |
|      12 | 0x00A5      |         165 |
|      13 | 0x0004      |           4 |
|      14 | 0x00AE      |         174 |
|      15 | 0x00AF      |         175 |
|      16 | 0x0005      |           5 |
|      17 | 0x00B8      |         184 |
|      18 | 0x00B9      |         185 |
|      19 | 0x0006      |           6 |
|      20 | 0x0007      |           7 |
|      21 | 0x00C2      |         194 |
|      22 | 0x00C3      |         195 |
|      23 | 0x0008      |           8 |
|      24 | 0x00CC      |         204 |
|      25 | 0x00CD      |         205 |
|      26 | 0x0D6F      |        3439 |
|      27 | 0x0F65      |        3941 |
|      28 | 0x0ED1      |        3793 |
|      29 | 0x00C1      |         193 |
|      30 | 0x0D70      |        3440 |
|      31 | 0x0F42      |        3906 |
|      32 | 0x0F53      |        3923 |
|      33 | 0x0239      |         569 |
|      34 | 0x0EDF      |        3807 |
|      35 | 0x0D07      |        3335 |
|      36 | 0x00CB      |         203 |
|      37 | 0x0A6C      |        2668 |
|      38 | 0x0F3B      |        3899 |
|      39 | 0x0040      |          64 |
|      40 | 0x00BD      |         189 |
|      41 | 0x00BE      |         190 |
|      42 | 0x0472      |        1138 |
|      43 | 0x04BC      |        1212 |
|      44 | 0x0F64      |        3940 |
|      45 | 0x0F5A      |        3930 |
|      46 | 0x0F66      |        3942 |
|      47 | 0x0F43      |        3907 |
|      48 | 0x0F44      |        3908 |
|      49 | 0x00F7      |         247 |

## Events

### Event 65535

#### Metadata

| Field        | Value   |
|--------------|---------|
| Entrypoint   | 0x0000  |
| Data Size    | 1 bytes |
| Instructions | 1       |

```
      00 01 02 03 04 05 06 07  08 09 0A 0B 0C 0D 0E 0F
      -- -- -- -- -- -- -- --  -- -- -- -- -- -- -- --
0000: 00                                                .               
```

#### Opcodes

```
  0: 0x0000 [0x00] END_REQSTACK()
```

### Event 65535.1

#### Metadata

| Field        | Value   |
|--------------|---------|
| Entrypoint   | 0x0001  |
| Data Size    | 1 bytes |
| Instructions | 1       |

```
      00 01 02 03 04 05 06 07  08 09 0A 0B 0C 0D 0E 0F
      -- -- -- -- -- -- -- --  -- -- -- -- -- -- -- --
0000:    00                                              .              
```

#### Opcodes

```
  0: 0x0001 [0x00] END_REQSTACK()
```

### Event 65535.2

#### Metadata

| Field        | Value    |
|--------------|----------|
| Entrypoint   | 0x0002   |
| Data Size    | 18 bytes |
| Instructions | 4        |

```
      00 01 02 03 04 05 06 07  08 09 0A 0B 0C 0D 0E 0F
      -- -- -- -- -- -- -- --  -- -- -- -- -- -- -- --
0000:       22 00 2F 00 F8 FF  FF 7F 6C F8 FF FF 7F 00    "./.....l.....
0010: 80 01 80 00                                       ....            
```

#### Opcodes

```
  0: 0x0002 [0x22] ENTITY_HIDE_FLAG(enabled=0x00)
  1: 0x0004 [0x2F] EventEntity->Render.Flags0 &= ~0x80000 // Bit 19
  2: 0x000A [0x6C] FADE_ENTITY_COLOR(entity_id=EventEntity, end_alpha=0*, fade_time=1*)
  3: 0x0013 [0x00] END_REQSTACK()
```

### Event 65535.3

#### Metadata

| Field        | Value    |
|--------------|----------|
| Entrypoint   | 0x0014   |
| Data Size    | 10 bytes |
| Instructions | 2        |

```
      00 01 02 03 04 05 06 07  08 09 0A 0B 0C 0D 0E 0F
      -- -- -- -- -- -- -- --  -- -- -- -- -- -- -- --
0010:             6C F8 FF FF  7F 02 80 01 80 00            l.........  
```

#### Opcodes

```
  0: 0x0014 [0x6C] FADE_ENTITY_COLOR(entity_id=EventEntity, end_alpha=128*, fade_time=1*)
  1: 0x001D [0x00] END_REQSTACK()
```

### Event 65535.4

#### Metadata

| Field        | Value   |
|--------------|---------|
| Entrypoint   | 0x001E  |
| Data Size    | 9 bytes |
| Instructions | 3       |

```
      00 01 02 03 04 05 06 07  08 09 0A 0B 0C 0D 0E 0F
      -- -- -- -- -- -- -- --  -- -- -- -- -- -- -- --
0010:                                            22 00                ".
0020: 2F 00 F8 FF FF 7F 00                              /......         
```

#### Opcodes

```
  0: 0x001E [0x22] ENTITY_HIDE_FLAG(enabled=0x00)
  1: 0x0020 [0x2F] EventEntity->Render.Flags0 &= ~0x80000 // Bit 19
  2: 0x0026 [0x00] END_REQSTACK()
```

### Event 65535.5

#### Metadata

| Field        | Value   |
|--------------|---------|
| Entrypoint   | 0x0027  |
| Data Size    | 9 bytes |
| Instructions | 3       |

```
      00 01 02 03 04 05 06 07  08 09 0A 0B 0C 0D 0E 0F
      -- -- -- -- -- -- -- --  -- -- -- -- -- -- -- --
0020:                      22  01 2F 01 F8 FF FF 7F 00         "./......
```

#### Opcodes

```
  0: 0x0027 [0x22] ENTITY_HIDE_FLAG(enabled=0x01)
  1: 0x0029 [0x2F] EventEntity->Render.Flags0 |= 0x80000 // Bit 19
  2: 0x002F [0x00] END_REQSTACK()
```

### Event 65535.6

#### Metadata

| Field        | Value    |
|--------------|----------|
| Entrypoint   | 0x0030   |
| Data Size    | 10 bytes |
| Instructions | 2        |

```
      00 01 02 03 04 05 06 07  08 09 0A 0B 0C 0D 0E 0F
      -- -- -- -- -- -- -- --  -- -- -- -- -- -- -- --
0030: 6C F8 FF FF 7F 00 80 01  80 00                    l.........      
```

#### Opcodes

```
  0: 0x0030 [0x6C] FADE_ENTITY_COLOR(entity_id=EventEntity, end_alpha=0*, fade_time=1*)
  1: 0x0039 [0x00] END_REQSTACK()
```

### Event 65535.7

#### Metadata

| Field        | Value    |
|--------------|----------|
| Entrypoint   | 0x003A   |
| Data Size    | 10 bytes |
| Instructions | 2        |

```
      00 01 02 03 04 05 06 07  08 09 0A 0B 0C 0D 0E 0F
      -- -- -- -- -- -- -- --  -- -- -- -- -- -- -- --
0030:                                6C F8 FF FF 7F 02            l.....
0040: 80 01 80 00                                       ....            
```

#### Opcodes

```
  0: 0x003A [0x6C] FADE_ENTITY_COLOR(entity_id=EventEntity, end_alpha=128*, fade_time=1*)
  1: 0x0043 [0x00] END_REQSTACK()
```

### Event 4

#### Metadata

| Field        | Value   |
|--------------|---------|
| Entrypoint   | 0x0044  |
| Data Size    | 4 bytes |
| Instructions | 2       |

```
      00 01 02 03 04 05 06 07  08 09 0A 0B 0C 0D 0E 0F
      -- -- -- -- -- -- -- --  -- -- -- -- -- -- -- --
0040:             C0 01 80 00                               ....        
```

#### Opcodes

```
  0: 0x0044 [0xC0] EventEntity->Render.Flags3 |= 0x1000 // Set bit 12 (from 1*)
  1: 0x0047 [0x00] END_REQSTACK()
```

### Event 5

#### Metadata

| Field        | Value   |
|--------------|---------|
| Entrypoint   | 0x0048  |
| Data Size    | 4 bytes |
| Instructions | 2       |

```
      00 01 02 03 04 05 06 07  08 09 0A 0B 0C 0D 0E 0F
      -- -- -- -- -- -- -- --  -- -- -- -- -- -- -- --
0040:                          C0 01 80 00                      ....    
```

#### Opcodes

```
  0: 0x0048 [0xC0] EventEntity->Render.Flags3 |= 0x1000 // Set bit 12 (from 1*)
  1: 0x004B [0x00] END_REQSTACK()
```

### Event 65535.8

#### Metadata

| Field        | Value   |
|--------------|---------|
| Entrypoint   | 0x004C  |
| Data Size    | 5 bytes |
| Instructions | 2       |

```
      00 01 02 03 04 05 06 07  08 09 0A 0B 0C 0D 0E 0F
      -- -- -- -- -- -- -- --  -- -- -- -- -- -- -- --
0040:                                      B6 00 03 80              ....
0050: 00                                                .               
```

#### Opcodes

```
  0: 0x004C [0xB6] ENTITY_APPEARANCE_HANDLER(case=Hair style, value=326*)
  1: 0x0050 [0x00] END_REQSTACK()
```

### Event 65535.9

#### Metadata

| Field        | Value   |
|--------------|---------|
| Entrypoint   | 0x0051  |
| Data Size    | 5 bytes |
| Instructions | 2       |

```
      00 01 02 03 04 05 06 07  08 09 0A 0B 0C 0D 0E 0F
      -- -- -- -- -- -- -- --  -- -- -- -- -- -- -- --
0050:    B6 00 04 80 00                                  .....          
```

#### Opcodes

```
  0: 0x0051 [0xB6] ENTITY_APPEARANCE_HANDLER(case=Hair style, value=2450*)
  1: 0x0055 [0x00] END_REQSTACK()
```

### Event 8

#### Metadata

| Field        | Value   |
|--------------|---------|
| Entrypoint   | 0x0056  |
| Data Size    | 1 bytes |
| Instructions | 1       |

```
      00 01 02 03 04 05 06 07  08 09 0A 0B 0C 0D 0E 0F
      -- -- -- -- -- -- -- --  -- -- -- -- -- -- -- --
0050:                   00                                    .         
```

#### Opcodes

```
  0: 0x0056 [0x00] END_REQSTACK()
```

### Event 9

#### Metadata

| Field        | Value   |
|--------------|---------|
| Entrypoint   | 0x0057  |
| Data Size    | 1 bytes |
| Instructions | 1       |

```
      00 01 02 03 04 05 06 07  08 09 0A 0B 0C 0D 0E 0F
      -- -- -- -- -- -- -- --  -- -- -- -- -- -- -- --
0050:                      00                                  .        
```

#### Opcodes

```
  0: 0x0057 [0x00] END_REQSTACK()
```

### Event 65535.10

#### Metadata

| Field        | Value    |
|--------------|----------|
| Entrypoint   | 0x0058   |
| Data Size    | 10 bytes |
| Instructions | 2        |

```
      00 01 02 03 04 05 06 07  08 09 0A 0B 0C 0D 0E 0F
      -- -- -- -- -- -- -- --  -- -- -- -- -- -- -- --
0050:                          6C F8 FF FF 7F 00 80 01          l.......
0060: 80 00                                             ..              
```

#### Opcodes

```
  0: 0x0058 [0x6C] FADE_ENTITY_COLOR(entity_id=EventEntity, end_alpha=0*, fade_time=1*)
  1: 0x0061 [0x00] END_REQSTACK()
```

### Event 65535.11

#### Metadata

| Field        | Value    |
|--------------|----------|
| Entrypoint   | 0x0062   |
| Data Size    | 10 bytes |
| Instructions | 2        |

```
      00 01 02 03 04 05 06 07  08 09 0A 0B 0C 0D 0E 0F
      -- -- -- -- -- -- -- --  -- -- -- -- -- -- -- --
0060:       6C F8 FF FF 7F 02  80 01 80 00                l.........    
```

#### Opcodes

```
  0: 0x0062 [0x6C] FADE_ENTITY_COLOR(entity_id=EventEntity, end_alpha=128*, fade_time=1*)
  1: 0x006B [0x00] END_REQSTACK()
```

### Event 65535.12

#### Metadata

| Field        | Value     |
|--------------|-----------|
| Entrypoint   | 0x006C    |
| Data Size    | 352 bytes |
| Instructions | 34        |

```
      00 01 02 03 04 05 06 07  08 09 0A 0B 0C 0D 0E 0F
      -- -- -- -- -- -- -- --  -- -- -- -- -- -- -- --
0060:                                      29 10 F0 FF              )...
0070: FF 7F 02 02 02 10 01 80  80 9E 00 5F 04 05 80 F0  ..........._....
0080: FF FF 7F F0 FF FF 7F 78  78 78 78 5F 04 06 80 09  .......xxxx_....
0090: 33 12 01 09 33 12 01 78  78 78 78 01 CB 01 02 02  3...3..xxxx.....
00A0: 10 07 80 80 C9 00 5F 04  08 80 F0 FF FF 7F F0 FF  ......_.........
00B0: FF 7F 78 78 78 78 5F 04  09 80 09 33 12 01 09 33  ..xxxx_....3...3
00C0: 12 01 78 78 78 78 01 CB  01 02 02 10 0A 80 80 F4  ..xxxx..........
00D0: 00 5F 04 0B 80 F0 FF FF  7F F0 FF FF 7F 78 78 78  ._...........xxx
00E0: 78 5F 04 0C 80 09 33 12  01 09 33 12 01 78 78 78  x_....3...3..xxx
00F0: 78 01 CB 01 02 02 10 0D  80 80 1F 01 5F 04 0E 80  x..........._...
0100: F0 FF FF 7F F0 FF FF 7F  78 78 78 78 5F 04 0F 80  ........xxxx_...
0110: 09 33 12 01 09 33 12 01  78 78 78 78 01 CB 01 02  .3...3..xxxx....
0120: 02 10 10 80 80 4A 01 5F  04 11 80 F0 FF FF 7F F0  .....J._........
0130: FF FF 7F 78 78 78 78 5F  04 12 80 09 33 12 01 09  ...xxxx_....3...
0140: 33 12 01 78 78 78 78 01  CB 01 02 02 10 13 80 80  3..xxxx.........
0150: 75 01 5F 04 11 80 F0 FF  FF 7F F0 FF FF 7F 78 78  u._...........xx
0160: 78 78 5F 04 12 80 09 33  12 01 09 33 12 01 78 78  xx_....3...3..xx
0170: 78 78 01 CB 01 02 02 10  14 80 80 A0 01 5F 04 15  xx..........._..
0180: 80 F0 FF FF 7F F0 FF FF  7F 78 78 78 78 5F 04 16  .........xxxx_..
0190: 80 09 33 12 01 09 33 12  01 78 78 78 78 01 CB 01  ..3...3..xxxx...
01A0: 02 02 10 17 80 80 CB 01  5F 04 18 80 F0 FF FF 7F  ........_.......
01B0: F0 FF FF 7F 78 78 78 78  5F 04 19 80 09 33 12 01  ....xxxx_....3..
01C0: 09 33 12 01 78 78 78 78  01 CB 01 00              .3..xxxx....    
```

#### Opcodes

```
  0: 0x006C [0x29] REQ_SET_WAIT(priority=0x10, entity_id=LocalPlayer, tag_num=0x02)
  1: 0x0073 [0x02] IF !(Work_Zone[2] == 1*) GOTO 0x009E
  2: 0x007B [0x5F] MULTI_HANDLER_COMPLEX(mode=0x04 - Load ext scheduler (OpCode 0x5B mode 1), ref=144*, entity1=LocalPlayer, entity2=LocalPlayer, string="xxxx")
  3: 0x008B [0x5F] MULTI_HANDLER_COMPLEX(mode=0x04 - Load ext scheduler (OpCode 0x5B mode 1), ref=145*, entity1=Disjoined One (ID: 17969929/0x01123309), entity2=Disjoined One (ID: 17969929/0x01123309), string="xxxx")
  4: 0x009B [0x01] GOTO 0x01CB
  5: 0x009E [0x02] IF !(Work_Zone[2] == 2*) GOTO 0x00C9
  6: 0x00A6 [0x5F] MULTI_HANDLER_COMPLEX(mode=0x04 - Load ext scheduler (OpCode 0x5B mode 1), ref=154*, entity1=LocalPlayer, entity2=LocalPlayer, string="xxxx")
  7: 0x00B6 [0x5F] MULTI_HANDLER_COMPLEX(mode=0x04 - Load ext scheduler (OpCode 0x5B mode 1), ref=155*, entity1=Disjoined One (ID: 17969929/0x01123309), entity2=Disjoined One (ID: 17969929/0x01123309), string="xxxx")
  8: 0x00C6 [0x01] GOTO 0x01CB
  9: 0x00C9 [0x02] IF !(Work_Zone[2] == 3*) GOTO 0x00F4
 10: 0x00D1 [0x5F] MULTI_HANDLER_COMPLEX(mode=0x04 - Load ext scheduler (OpCode 0x5B mode 1), ref=164*, entity1=LocalPlayer, entity2=LocalPlayer, string="xxxx")
 11: 0x00E1 [0x5F] MULTI_HANDLER_COMPLEX(mode=0x04 - Load ext scheduler (OpCode 0x5B mode 1), ref=165*, entity1=Disjoined One (ID: 17969929/0x01123309), entity2=Disjoined One (ID: 17969929/0x01123309), string="xxxx")
 12: 0x00F1 [0x01] GOTO 0x01CB
 13: 0x00F4 [0x02] IF !(Work_Zone[2] == 4*) GOTO 0x011F
 14: 0x00FC [0x5F] MULTI_HANDLER_COMPLEX(mode=0x04 - Load ext scheduler (OpCode 0x5B mode 1), ref=174*, entity1=LocalPlayer, entity2=LocalPlayer, string="xxxx")
 15: 0x010C [0x5F] MULTI_HANDLER_COMPLEX(mode=0x04 - Load ext scheduler (OpCode 0x5B mode 1), ref=175*, entity1=Disjoined One (ID: 17969929/0x01123309), entity2=Disjoined One (ID: 17969929/0x01123309), string="xxxx")
 16: 0x011C [0x01] GOTO 0x01CB
 17: 0x011F [0x02] IF !(Work_Zone[2] == 5*) GOTO 0x014A
 18: 0x0127 [0x5F] MULTI_HANDLER_COMPLEX(mode=0x04 - Load ext scheduler (OpCode 0x5B mode 1), ref=184*, entity1=LocalPlayer, entity2=LocalPlayer, string="xxxx")
 19: 0x0137 [0x5F] MULTI_HANDLER_COMPLEX(mode=0x04 - Load ext scheduler (OpCode 0x5B mode 1), ref=185*, entity1=Disjoined One (ID: 17969929/0x01123309), entity2=Disjoined One (ID: 17969929/0x01123309), string="xxxx")
 20: 0x0147 [0x01] GOTO 0x01CB
 21: 0x014A [0x02] IF !(Work_Zone[2] == 6*) GOTO 0x0175
 22: 0x0152 [0x5F] MULTI_HANDLER_COMPLEX(mode=0x04 - Load ext scheduler (OpCode 0x5B mode 1), ref=184*, entity1=LocalPlayer, entity2=LocalPlayer, string="xxxx")
 23: 0x0162 [0x5F] MULTI_HANDLER_COMPLEX(mode=0x04 - Load ext scheduler (OpCode 0x5B mode 1), ref=185*, entity1=Disjoined One (ID: 17969929/0x01123309), entity2=Disjoined One (ID: 17969929/0x01123309), string="xxxx")
 24: 0x0172 [0x01] GOTO 0x01CB
 25: 0x0175 [0x02] IF !(Work_Zone[2] == 7*) GOTO 0x01A0
 26: 0x017D [0x5F] MULTI_HANDLER_COMPLEX(mode=0x04 - Load ext scheduler (OpCode 0x5B mode 1), ref=194*, entity1=LocalPlayer, entity2=LocalPlayer, string="xxxx")
 27: 0x018D [0x5F] MULTI_HANDLER_COMPLEX(mode=0x04 - Load ext scheduler (OpCode 0x5B mode 1), ref=195*, entity1=Disjoined One (ID: 17969929/0x01123309), entity2=Disjoined One (ID: 17969929/0x01123309), string="xxxx")
 28: 0x019D [0x01] GOTO 0x01CB
 29: 0x01A0 [0x02] IF !(Work_Zone[2] == 8*) GOTO 0x01CB
 30: 0x01A8 [0x5F] MULTI_HANDLER_COMPLEX(mode=0x04 - Load ext scheduler (OpCode 0x5B mode 1), ref=204*, entity1=LocalPlayer, entity2=LocalPlayer, string="xxxx")
 31: 0x01B8 [0x5F] MULTI_HANDLER_COMPLEX(mode=0x04 - Load ext scheduler (OpCode 0x5B mode 1), ref=205*, entity1=Disjoined One (ID: 17969929/0x01123309), entity2=Disjoined One (ID: 17969929/0x01123309), string="xxxx")
 32: 0x01C8 [0x01] GOTO 0x01CB

SUBROUTINE_01CB:
 33: 0x01CB [0x00] END_REQSTACK()
```

### Event 65535.13

#### Metadata

| Field        | Value    |
|--------------|----------|
| Entrypoint   | 0x01CC   |
| Data Size    | 66 bytes |
| Instructions | 5        |

```
      00 01 02 03 04 05 06 07  08 09 0A 0B 0C 0D 0E 0F
      -- -- -- -- -- -- -- --  -- -- -- -- -- -- -- --
01C0:                                      5F 03 1A 80              _...
01D0: 05 33 12 01 05 33 12 01  78 78 78 78 5F 03 1B 80  .3...3..xxxx_...
01E0: 21 33 12 01 21 33 12 01  78 78 78 78 5F 03 1C 80  !3..!3..xxxx_...
01F0: 0D 33 12 01 0D 33 12 01  78 78 78 78 D0 1D 80 0D  .3...3..xxxx....
0200: 33 12 01 0D 33 12 01 78  78 78 78 00 80 00        3...3..xxxx...  
```

#### Opcodes

```
  0: 0x01CC [0x5F] MULTI_HANDLER_COMPLEX(mode=0x03 - Load ext scheduler (OpCode 0x5B mode 0), ref=3439*, entity1=Unnamed NPC (ID: 17969925/0x01123305), entity2=Unnamed NPC (ID: 17969925/0x01123305), string="xxxx")
  1: 0x01DC [0x5F] MULTI_HANDLER_COMPLEX(mode=0x03 - Load ext scheduler (OpCode 0x5B mode 0), ref=3941*, entity1=Unnamed NPC (ID: 17969953/0x01123321), entity2=Unnamed NPC (ID: 17969953/0x01123321), string="xxxx")
  2: 0x01EC [0x5F] MULTI_HANDLER_COMPLEX(mode=0x03 - Load ext scheduler (OpCode 0x5B mode 0), ref=3793*, entity1=Prishe (ID: 17969933/0x0112330D), entity2=Prishe (ID: 17969933/0x0112330D), string="xxxx")
  3: 0x01FC [0xD0] LOAD_SCHEDULED_TASK_ALT5: Load scheduler "xxxx" with entities [Prishe (ID: 17969933/0x0112330D), Prishe (ID: 17969933/0x0112330D)], work=[193*, 0*]
  4: 0x020D [0x00] END_REQSTACK()
```

### Event 65535.14

#### Metadata

| Field        | Value    |
|--------------|----------|
| Entrypoint   | 0x020E   |
| Data Size    | 33 bytes |
| Instructions | 3        |

```
      00 01 02 03 04 05 06 07  08 09 0A 0B 0C 0D 0E 0F
      -- -- -- -- -- -- -- --  -- -- -- -- -- -- -- --
0200:                                            5F 03                _.
0210: 1E 80 05 33 12 01 05 33  12 01 78 78 78 78 5F 03  ...3...3..xxxx_.
0220: 1F 80 08 33 12 01 08 33  12 01 78 78 78 78 00     ...3...3..xxxx. 
```

#### Opcodes

```
  0: 0x020E [0x5F] MULTI_HANDLER_COMPLEX(mode=0x03 - Load ext scheduler (OpCode 0x5B mode 0), ref=3440*, entity1=Unnamed NPC (ID: 17969925/0x01123305), entity2=Unnamed NPC (ID: 17969925/0x01123305), string="xxxx")
  1: 0x021E [0x5F] MULTI_HANDLER_COMPLEX(mode=0x03 - Load ext scheduler (OpCode 0x5B mode 0), ref=3906*, entity1=Iroha (ID: 17969928/0x01123308), entity2=Iroha (ID: 17969928/0x01123308), string="xxxx")
  2: 0x022E [0x00] END_REQSTACK()
```

### Event 65535.15

#### Metadata

| Field        | Value    |
|--------------|----------|
| Entrypoint   | 0x022F   |
| Data Size    | 49 bytes |
| Instructions | 4        |

```
      00 01 02 03 04 05 06 07  08 09 0A 0B 0C 0D 0E 0F
      -- -- -- -- -- -- -- --  -- -- -- -- -- -- -- --
0220:                                               5F                 _
0230: 03 1A 80 05 33 12 01 05  33 12 01 78 78 78 78 5F  ....3...3..xxxx_
0240: 03 20 80 0C 33 12 01 0C  33 12 01 78 78 78 78 5F  . ..3...3..xxxx_
0250: 03 21 80 1B 33 12 01 1B  33 12 01 78 78 78 78 00  .!..3...3..xxxx.
```

#### Opcodes

```
  0: 0x022F [0x5F] MULTI_HANDLER_COMPLEX(mode=0x03 - Load ext scheduler (OpCode 0x5B mode 0), ref=3439*, entity1=Unnamed NPC (ID: 17969925/0x01123305), entity2=Unnamed NPC (ID: 17969925/0x01123305), string="xxxx")
  1: 0x023F [0x5F] MULTI_HANDLER_COMPLEX(mode=0x03 - Load ext scheduler (OpCode 0x5B mode 0), ref=3923*, entity1=Lion (ID: 17969932/0x0112330C), entity2=Lion (ID: 17969932/0x0112330C), string="xxxx")
  2: 0x024F [0x5F] MULTI_HANDLER_COMPLEX(mode=0x03 - Load ext scheduler (OpCode 0x5B mode 0), ref=569*, entity1=Gilgamesh (ID: 17969947/0x0112331B), entity2=Gilgamesh (ID: 17969947/0x0112331B), string="xxxx")
  3: 0x025F [0x00] END_REQSTACK()
```

### Event 65535.16

#### Metadata

| Field        | Value    |
|--------------|----------|
| Entrypoint   | 0x0260   |
| Data Size    | 49 bytes |
| Instructions | 4        |

```
      00 01 02 03 04 05 06 07  08 09 0A 0B 0C 0D 0E 0F
      -- -- -- -- -- -- -- --  -- -- -- -- -- -- -- --
0260: 5F 03 1B 80 21 33 12 01  21 33 12 01 78 78 78 78  _...!3..!3..xxxx
0270: 5F 03 22 80 15 33 12 01  15 33 12 01 78 78 78 78  _."..3...3..xxxx
0280: 5F 03 05 80 16 33 12 01  16 33 12 01 78 78 78 78  _....3...3..xxxx
0290: 00                                                .               
```

#### Opcodes

```
  0: 0x0260 [0x5F] MULTI_HANDLER_COMPLEX(mode=0x03 - Load ext scheduler (OpCode 0x5B mode 0), ref=3941*, entity1=Unnamed NPC (ID: 17969953/0x01123321), entity2=Unnamed NPC (ID: 17969953/0x01123321), string="xxxx")
  1: 0x0270 [0x5F] MULTI_HANDLER_COMPLEX(mode=0x03 - Load ext scheduler (OpCode 0x5B mode 0), ref=3807*, entity1=Trion (ID: 17969941/0x01123315), entity2=Trion (ID: 17969941/0x01123315), string="xxxx")
  2: 0x0280 [0x5F] MULTI_HANDLER_COMPLEX(mode=0x03 - Load ext scheduler (OpCode 0x5B mode 0), ref=144*, entity1=Curilla (ID: 17969942/0x01123316), entity2=Curilla (ID: 17969942/0x01123316), string="xxxx")
  3: 0x0290 [0x00] END_REQSTACK()
```

### Event 65535.17

#### Metadata

| Field        | Value    |
|--------------|----------|
| Entrypoint   | 0x0291   |
| Data Size    | 33 bytes |
| Instructions | 3        |

```
      00 01 02 03 04 05 06 07  08 09 0A 0B 0C 0D 0E 0F
      -- -- -- -- -- -- -- --  -- -- -- -- -- -- -- --
0290:    5F 03 1A 80 05 33 12  01 05 33 12 01 78 78 78   _....3...3..xxx
02A0: 78 5F 03 23 80 1A 33 12  01 1A 33 12 01 78 78 78  x_.#..3...3..xxx
02B0: 78 00                                             x.              
```

#### Opcodes

```
  0: 0x0291 [0x5F] MULTI_HANDLER_COMPLEX(mode=0x03 - Load ext scheduler (OpCode 0x5B mode 0), ref=3439*, entity1=Unnamed NPC (ID: 17969925/0x01123305), entity2=Unnamed NPC (ID: 17969925/0x01123305), string="xxxx")
  1: 0x02A1 [0x5F] MULTI_HANDLER_COMPLEX(mode=0x03 - Load ext scheduler (OpCode 0x5B mode 0), ref=3335*, entity1=Semih Lafihna (ID: 17969946/0x0112331A), entity2=Semih Lafihna (ID: 17969946/0x0112331A), string="xxxx")
  2: 0x02B1 [0x00] END_REQSTACK()
```

### Event 65535.18

#### Metadata

| Field        | Value    |
|--------------|----------|
| Entrypoint   | 0x02B2   |
| Data Size    | 49 bytes |
| Instructions | 4        |

```
      00 01 02 03 04 05 06 07  08 09 0A 0B 0C 0D 0E 0F
      -- -- -- -- -- -- -- --  -- -- -- -- -- -- -- --
02B0:       5F 03 1A 80 05 33  12 01 05 33 12 01 78 78    _....3...3..xx
02C0: 78 78 5F 03 24 80 14 33  12 01 14 33 12 01 78 78  xx_.$..3...3..xx
02D0: 78 78 5F 03 25 80 13 33  12 01 13 33 12 01 78 78  xx_.%..3...3..xx
02E0: 78 78 00                                          xx.             
```

#### Opcodes

```
  0: 0x02B2 [0x5F] MULTI_HANDLER_COMPLEX(mode=0x03 - Load ext scheduler (OpCode 0x5B mode 0), ref=3439*, entity1=Unnamed NPC (ID: 17969925/0x01123305), entity2=Unnamed NPC (ID: 17969925/0x01123305), string="xxxx")
  1: 0x02C2 [0x5F] MULTI_HANDLER_COMPLEX(mode=0x03 - Load ext scheduler (OpCode 0x5B mode 0), ref=203*, entity1=Volker (ID: 17969940/0x01123314), entity2=Volker (ID: 17969940/0x01123314), string="xxxx")
  2: 0x02D2 [0x5F] MULTI_HANDLER_COMPLEX(mode=0x03 - Load ext scheduler (OpCode 0x5B mode 0), ref=2668*, entity1=Zeid (ID: 17969939/0x01123313), entity2=Zeid (ID: 17969939/0x01123313), string="xxxx")
  3: 0x02E2 [0x00] END_REQSTACK()
```

### Event 65535.19

#### Metadata

| Field        | Value    |
|--------------|----------|
| Entrypoint   | 0x02E3   |
| Data Size    | 82 bytes |
| Instructions | 6        |

```
      00 01 02 03 04 05 06 07  08 09 0A 0B 0C 0D 0E 0F
      -- -- -- -- -- -- -- --  -- -- -- -- -- -- -- --
02E0:          5F 03 1B 80 21  33 12 01 21 33 12 01 78     _...!3..!3..x
02F0: 78 78 78 5F 03 26 80 0F  33 12 01 0F 33 12 01 78  xxx_.&..3...3..x
0300: 78 78 78 5F 03 27 80 12  33 12 01 12 33 12 01 78  xxx_.'..3...3..x
0310: 78 78 78 5F 03 28 80 11  33 12 01 11 33 12 01 78  xxx_.(..3...3..x
0320: 78 78 78 D0 29 80 0F 33  12 01 0F 33 12 01 78 78  xxx.)..3...3..xx
0330: 78 78 00 80 00                                    xx...           
```

#### Opcodes

```
  0: 0x02E3 [0x5F] MULTI_HANDLER_COMPLEX(mode=0x03 - Load ext scheduler (OpCode 0x5B mode 0), ref=3941*, entity1=Unnamed NPC (ID: 17969953/0x01123321), entity2=Unnamed NPC (ID: 17969953/0x01123321), string="xxxx")
  1: 0x02F3 [0x5F] MULTI_HANDLER_COMPLEX(mode=0x03 - Load ext scheduler (OpCode 0x5B mode 0), ref=3899*, entity1=Lilisette (ID: 17969935/0x0112330F), entity2=Lilisette (ID: 17969935/0x0112330F), string="xxxx")
  2: 0x0303 [0x5F] MULTI_HANDLER_COMPLEX(mode=0x03 - Load ext scheduler (OpCode 0x5B mode 0), ref=64*, entity1=Maat (ID: 17969938/0x01123312), entity2=Maat (ID: 17969938/0x01123312), string="xxxx")
  3: 0x0313 [0x5F] MULTI_HANDLER_COMPLEX(mode=0x03 - Load ext scheduler (OpCode 0x5B mode 0), ref=189*, entity1=Aldo (ID: 17969937/0x01123311), entity2=Aldo (ID: 17969937/0x01123311), string="xxxx")
  4: 0x0323 [0xD0] LOAD_SCHEDULED_TASK_ALT5: Load scheduler "xxxx" with entities [Lilisette (ID: 17969935/0x0112330F), Lilisette (ID: 17969935/0x0112330F)], work=[190*, 0*]
  5: 0x0334 [0x00] END_REQSTACK()
```

### Event 65535.20

#### Metadata

| Field        | Value    |
|--------------|----------|
| Entrypoint   | 0x0335   |
| Data Size    | 49 bytes |
| Instructions | 4        |

```
      00 01 02 03 04 05 06 07  08 09 0A 0B 0C 0D 0E 0F
      -- -- -- -- -- -- -- --  -- -- -- -- -- -- -- --
0330:                5F 03 1B  80 21 33 12 01 21 33 12       _...!3..!3.
0340: 01 78 78 78 78 5F 03 2A  80 1C 33 12 01 1C 33 12  .xxxx_.*..3...3.
0350: 01 78 78 78 78 5F 03 2A  80 1D 33 12 01 1D 33 12  .xxxx_.*..3...3.
0360: 01 78 78 78 78 00                                 .xxxx.          
```

#### Opcodes

```
  0: 0x0335 [0x5F] MULTI_HANDLER_COMPLEX(mode=0x03 - Load ext scheduler (OpCode 0x5B mode 0), ref=3941*, entity1=Unnamed NPC (ID: 17969953/0x01123321), entity2=Unnamed NPC (ID: 17969953/0x01123321), string="xxxx")
  1: 0x0345 [0x5F] MULTI_HANDLER_COMPLEX(mode=0x03 - Load ext scheduler (OpCode 0x5B mode 0), ref=1138*, entity1=Ovjang (ID: 17969948/0x0112331C), entity2=Ovjang (ID: 17969948/0x0112331C), string="xxxx")
  2: 0x0355 [0x5F] MULTI_HANDLER_COMPLEX(mode=0x03 - Load ext scheduler (OpCode 0x5B mode 0), ref=1138*, entity1=Mnejing (ID: 17969949/0x0112331D), entity2=Mnejing (ID: 17969949/0x0112331D), string="xxxx")
  3: 0x0365 [0x00] END_REQSTACK()
```

### Event 65535.21

#### Metadata

| Field        | Value    |
|--------------|----------|
| Entrypoint   | 0x0366   |
| Data Size    | 50 bytes |
| Instructions | 4        |

```
      00 01 02 03 04 05 06 07  08 09 0A 0B 0C 0D 0E 0F
      -- -- -- -- -- -- -- --  -- -- -- -- -- -- -- --
0360:                   5F 03  1A 80 05 33 12 01 05 33        _....3...3
0370: 12 01 78 78 78 78 5F 03  2B 80 1E 33 12 01 1E 33  ..xxxx_.+..3...3
0380: 12 01 78 78 78 78 D0 15  80 1E 33 12 01 1E 33 12  ..xxxx....3...3.
0390: 01 78 78 78 78 00 80 00                           .xxxx...        
```

#### Opcodes

```
  0: 0x0366 [0x5F] MULTI_HANDLER_COMPLEX(mode=0x03 - Load ext scheduler (OpCode 0x5B mode 0), ref=3439*, entity1=Unnamed NPC (ID: 17969925/0x01123305), entity2=Unnamed NPC (ID: 17969925/0x01123305), string="xxxx")
  1: 0x0376 [0x5F] MULTI_HANDLER_COMPLEX(mode=0x03 - Load ext scheduler (OpCode 0x5B mode 0), ref=1212*, entity1=Luzaf (ID: 17969950/0x0112331E), entity2=Luzaf (ID: 17969950/0x0112331E), string="xxxx")
  2: 0x0386 [0xD0] LOAD_SCHEDULED_TASK_ALT5: Load scheduler "xxxx" with entities [Luzaf (ID: 17969950/0x0112331E), Luzaf (ID: 17969950/0x0112331E)], work=[194*, 0*]
  3: 0x0397 [0x00] END_REQSTACK()
```

### Event 65535.22

#### Metadata

| Field        | Value    |
|--------------|----------|
| Entrypoint   | 0x0398   |
| Data Size    | 33 bytes |
| Instructions | 3        |

```
      00 01 02 03 04 05 06 07  08 09 0A 0B 0C 0D 0E 0F
      -- -- -- -- -- -- -- --  -- -- -- -- -- -- -- --
0390:                          5F 03 2C 80 20 33 12 01          _.,. 3..
03A0: 20 33 12 01 78 78 78 78  5F 03 2D 80 0B 33 12 01   3..xxxx_.-..3..
03B0: 0B 33 12 01 78 78 78 78  00                       .3..xxxx.       
```

#### Opcodes

```
  0: 0x0398 [0x5F] MULTI_HANDLER_COMPLEX(mode=0x03 - Load ext scheduler (OpCode 0x5B mode 0), ref=3940*, entity1=Unnamed NPC (ID: 17969952/0x01123320), entity2=Unnamed NPC (ID: 17969952/0x01123320), string="xxxx")
  1: 0x03A8 [0x5F] MULTI_HANDLER_COMPLEX(mode=0x03 - Load ext scheduler (OpCode 0x5B mode 0), ref=3930*, entity1=Tenzen (ID: 17969931/0x0112330B), entity2=Tenzen (ID: 17969931/0x0112330B), string="xxxx")
  2: 0x03B8 [0x00] END_REQSTACK()
```

### Event 65535.23

#### Metadata

| Field        | Value    |
|--------------|----------|
| Entrypoint   | 0x03B9   |
| Data Size    | 49 bytes |
| Instructions | 4        |

```
      00 01 02 03 04 05 06 07  08 09 0A 0B 0C 0D 0E 0F
      -- -- -- -- -- -- -- --  -- -- -- -- -- -- -- --
03B0:                             5F 03 2C 80 20 33 12           _.,. 3.
03C0: 01 20 33 12 01 78 78 78  78 5F 03 2E 80 21 33 12  . 3..xxxx_...!3.
03D0: 01 21 33 12 01 78 78 78  78 5F 03 2F 80 08 33 12  .!3..xxxx_./..3.
03E0: 01 08 33 12 01 78 78 78  78 00                    ..3..xxxx.      
```

#### Opcodes

```
  0: 0x03B9 [0x5F] MULTI_HANDLER_COMPLEX(mode=0x03 - Load ext scheduler (OpCode 0x5B mode 0), ref=3940*, entity1=Unnamed NPC (ID: 17969952/0x01123320), entity2=Unnamed NPC (ID: 17969952/0x01123320), string="xxxx")
  1: 0x03C9 [0x5F] MULTI_HANDLER_COMPLEX(mode=0x03 - Load ext scheduler (OpCode 0x5B mode 0), ref=3942*, entity1=Unnamed NPC (ID: 17969953/0x01123321), entity2=Unnamed NPC (ID: 17969953/0x01123321), string="xxxx")
  2: 0x03D9 [0x5F] MULTI_HANDLER_COMPLEX(mode=0x03 - Load ext scheduler (OpCode 0x5B mode 0), ref=3907*, entity1=Iroha (ID: 17969928/0x01123308), entity2=Iroha (ID: 17969928/0x01123308), string="xxxx")
  3: 0x03E9 [0x00] END_REQSTACK()
```

### Event 65535.24

#### Metadata

| Field        | Value    |
|--------------|----------|
| Entrypoint   | 0x03EA   |
| Data Size    | 50 bytes |
| Instructions | 4        |

```
      00 01 02 03 04 05 06 07  08 09 0A 0B 0C 0D 0E 0F
      -- -- -- -- -- -- -- --  -- -- -- -- -- -- -- --
03E0:                                5F 03 2E 80 21 33            _...!3
03F0: 12 01 21 33 12 01 78 78  78 78 5F 03 30 80 08 33  ..!3..xxxx_.0..3
0400: 12 01 08 33 12 01 78 78  78 78 D0 31 80 08 33 12  ...3..xxxx.1..3.
0410: 01 08 33 12 01 78 78 78  78 00 80 00              ..3..xxxx...    
```

#### Opcodes

```
  0: 0x03EA [0x5F] MULTI_HANDLER_COMPLEX(mode=0x03 - Load ext scheduler (OpCode 0x5B mode 0), ref=3942*, entity1=Unnamed NPC (ID: 17969953/0x01123321), entity2=Unnamed NPC (ID: 17969953/0x01123321), string="xxxx")
  1: 0x03FA [0x5F] MULTI_HANDLER_COMPLEX(mode=0x03 - Load ext scheduler (OpCode 0x5B mode 0), ref=3908*, entity1=Iroha (ID: 17969928/0x01123308), entity2=Iroha (ID: 17969928/0x01123308), string="xxxx")
  2: 0x040A [0xD0] LOAD_SCHEDULED_TASK_ALT5: Load scheduler "xxxx" with entities [Iroha (ID: 17969928/0x01123308), Iroha (ID: 17969928/0x01123308)], work=[247*, 0*]
  3: 0x041B [0x00] END_REQSTACK()
```
