# 17969922

## Common Data

| Field            | Value                |
|------------------|----------------------|
| Zone             | Reisenjima (ID: 291) |
| Block Size       | 488 bytes            |
| Total Events     | 6                    |
| References Count | 6                    |

## List of Events

| Event ID                 | Entrypoint   |   Size |   Instructions |
|--------------------------|--------------|--------|----------------|
| [65535](#event-65535)    | 0x0000       |      1 |              1 |
| [9](#event-9)            | 0x0001       |      1 |              1 |
| [65535.1](#event-655351) | 0x0002       |     33 |              9 |
| [4](#event-4)            | 0x0023       |      6 |              3 |
| [5](#event-5)            | 0x0029       |      6 |              3 |
| [65535.2](#event-655352) | 0x002F       |    375 |             23 |

## DAT References (imed_data)

|   Index | Hex Value   |   Dec Value |
|---------|-------------|-------------|
|       0 | 0x5460      |       21600 |
|       1 | 0x0000      |           0 |
|       2 | 0x0005      |           5 |
|       3 | 0x0001      |           1 |
|       4 | 0x00AB      |         171 |
|       5 | 0x00AA      |         170 |

## Events

### Event 65535

#### Metadata

| Field        | Value   |
|--------------|---------|
| Entrypoint   | 0x0000  |
| Data Size    | 1 bytes |
| Instructions | 1       |

```
      00 01 02 03 04 05 06 07  08 09 0A 0B 0C 0D 0E 0F
      -- -- -- -- -- -- -- --  -- -- -- -- -- -- -- --
0000: 00                                                .               
```

#### Opcodes

```
  0: 0x0000 [0x00] END_REQSTACK()
```

### Event 9

#### Metadata

| Field        | Value   |
|--------------|---------|
| Entrypoint   | 0x0001  |
| Data Size    | 1 bytes |
| Instructions | 1       |

```
      00 01 02 03 04 05 06 07  08 09 0A 0B 0C 0D 0E 0F
      -- -- -- -- -- -- -- --  -- -- -- -- -- -- -- --
0000:    00                                              .              
```

#### Opcodes

```
  0: 0x0001 [0x00] END_REQSTACK()
```

### Event 65535.1

#### Metadata

| Field        | Value    |
|--------------|----------|
| Entrypoint   | 0x0002   |
| Data Size    | 33 bytes |
| Instructions | 9        |

```
      00 01 02 03 04 05 06 07  08 09 0A 0B 0C 0D 0E 0F
      -- -- -- -- -- -- -- --  -- -- -- -- -- -- -- --
0000:       B4 0A 00 80 03 00  00 00 80 02 00 00 01 80    ..............
0010: 02 1D 00 B4 0C 00 00 1C  02 80 01 0B 00 B4 0B B4  ................
0020: 05 00 00                                          ...             
```

#### Opcodes

```
  0: 0x0002 [0xB4] UI_WINDOW_STRING_HANDLER(case=0x0A - Open event time window, work_offset=21600*)
  1: 0x0006 [0x03] ExtData[1]->WorkLocal[0] = 21600*
  2: 0x000B [0x02] IF !(ExtData[1]->WorkLocal[0] <= 0*) GOTO 0x001D
  3: 0x0013 [0xB4] UI_WINDOW_STRING_HANDLER(case=0x0C - Get event time count value, work_offset=ExtData[1]->WorkLocal[0])
  4: 0x0017 [0x1C] WAIT(5* ticks)
  5: 0x001A [0x01] GOTO 0x000B
  6: 0x001D [0xB4] UI_WINDOW_STRING_HANDLER(case=0x0B - Destroy event time window)
  7: 0x001F [0xB4] UI_WINDOW_STRING_HANDLER(case=0x05 - Toggle event message flag, flag_value=0x00)
  8: 0x0022 [0x00] END_REQSTACK()
```

### Event 4

#### Metadata

| Field        | Value   |
|--------------|---------|
| Entrypoint   | 0x0023  |
| Data Size    | 6 bytes |
| Instructions | 3       |

```
      00 01 02 03 04 05 06 07  08 09 0A 0B 0C 0D 0E 0F
      -- -- -- -- -- -- -- --  -- -- -- -- -- -- -- --
0020:          22 00 C0 03 80  00                          ".....       
```

#### Opcodes

```
  0: 0x0023 [0x22] ENTITY_HIDE_FLAG(enabled=0x00)
  1: 0x0025 [0xC0] EventEntity->Render.Flags3 |= 0x1000 // Set bit 12 (from 1*)
  2: 0x0028 [0x00] END_REQSTACK()
```

### Event 5

#### Metadata

| Field        | Value   |
|--------------|---------|
| Entrypoint   | 0x0029  |
| Data Size    | 6 bytes |
| Instructions | 3       |

```
      00 01 02 03 04 05 06 07  08 09 0A 0B 0C 0D 0E 0F
      -- -- -- -- -- -- -- --  -- -- -- -- -- -- -- --
0020:                             22 00 C0 03 80 00              "..... 
```

#### Opcodes

```
  0: 0x0029 [0x22] ENTITY_HIDE_FLAG(enabled=0x00)
  1: 0x002B [0xC0] EventEntity->Render.Flags3 |= 0x1000 // Set bit 12 (from 1*)
  2: 0x002E [0x00] END_REQSTACK()
```

### Event 65535.2

#### Metadata

| Field        | Value     |
|--------------|-----------|
| Entrypoint   | 0x002F    |
| Data Size    | 375 bytes |
| Instructions | 23        |

```
      00 01 02 03 04 05 06 07  08 09 0A 0B 0C 0D 0E 0F
      -- -- -- -- -- -- -- --  -- -- -- -- -- -- -- --
0020:                                               D0                 .
0030: 04 80 0F 33 12 01 0F 33  12 01 6B 6C 74 6D 01 80  ...3...3..kltm..
0040: D0 04 80 0F 33 12 01 0F  33 12 01 6B 6C 67 6C 01  ....3...3..klgl.
0050: 80 D0 04 80 10 33 12 01  10 33 12 01 6B 6C 67 6C  .....3...3..klgl
0060: 01 80 D0 04 80 0D 33 12  01 0D 33 12 01 6B 6C 67  ......3...3..klg
0070: 6C 01 80 D0 04 80 13 33  12 01 13 33 12 01 6B 6C  l......3...3..kl
0080: 67 6C 01 80 D0 04 80 14  33 12 01 14 33 12 01 6B  gl......3...3..k
0090: 6C 67 6C 01 80 D0 04 80  0E 33 12 01 0E 33 12 01  lgl......3...3..
00A0: 6B 6C 67 6C 01 80 D0 04  80 0C 33 12 01 0C 33 12  klgl......3...3.
00B0: 01 6B 6C 67 6C 01 80 D0  04 80 15 33 12 01 15 33  .klgl......3...3
00C0: 12 01 6B 6C 67 6C 01 80  D0 04 80 1A 33 12 01 1A  ..klgl......3...
00D0: 33 12 01 6B 6C 67 6C 01  80 D0 04 80 1F 33 12 01  3..klgl......3..
00E0: 1F 33 12 01 6B 6C 67 6C  01 80 D0 04 80 19 33 12  .3..klgl......3.
00F0: 01 19 33 12 01 6B 6C 67  6C 01 80 D0 04 80 11 33  ..3..klgl......3
0100: 12 01 11 33 12 01 6B 6C  67 6C 01 80 D0 04 80 1E  ...3..klgl......
0110: 33 12 01 1E 33 12 01 6B  6C 67 6C 01 80 D0 04 80  3...3..klgl.....
0120: 1C 33 12 01 1C 33 12 01  6B 6C 67 6C 01 80 D0 04  .3...3..klgl....
0130: 80 1D 33 12 01 1D 33 12  01 6B 6C 67 6C 01 80 D0  ..3...3..klgl...
0140: 04 80 17 33 12 01 17 33  12 01 6B 6C 67 6C 01 80  ...3...3..klgl..
0150: D0 04 80 1B 33 12 01 1B  33 12 01 6B 6C 67 6C 01  ....3...3..klgl.
0160: 80 D0 04 80 18 33 12 01  18 33 12 01 6B 6C 67 6C  .....3...3..klgl
0170: 01 80 D0 04 80 16 33 12  01 16 33 12 01 6B 6C 67  ......3...3..klg
0180: 6C 01 80 D0 04 80 12 33  12 01 12 33 12 01 6B 6C  l......3...3..kl
0190: 67 6C 01 80 D0 05 80 04  33 12 01 04 33 12 01 6B  gl......3...3..k
01A0: 69 6C 6C 01 80 00                                 ill...          
```

#### Opcodes

```
  0: 0x002F [0xD0] LOAD_SCHEDULED_TASK_ALT5: Load scheduler "kltm" with entities [Lilisette (ID: 17969935/0x0112330F), Lilisette (ID: 17969935/0x0112330F)], work=[171*, 0*]
  1: 0x0040 [0xD0] LOAD_SCHEDULED_TASK_ALT5: Load scheduler "klgl" with entities [Lilisette (ID: 17969935/0x0112330F), Lilisette (ID: 17969935/0x0112330F)], work=[171*, 0*]
  2: 0x0051 [0xD0] LOAD_SCHEDULED_TASK_ALT5: Load scheduler "klgl" with entities [Arciela (ID: 17969936/0x01123310), Arciela (ID: 17969936/0x01123310)], work=[171*, 0*]
  3: 0x0062 [0xD0] LOAD_SCHEDULED_TASK_ALT5: Load scheduler "klgl" with entities [Prishe (ID: 17969933/0x0112330D), Prishe (ID: 17969933/0x0112330D)], work=[171*, 0*]
  4: 0x0073 [0xD0] LOAD_SCHEDULED_TASK_ALT5: Load scheduler "klgl" with entities [Zeid (ID: 17969939/0x01123313), Zeid (ID: 17969939/0x01123313)], work=[171*, 0*]
  5: 0x0084 [0xD0] LOAD_SCHEDULED_TASK_ALT5: Load scheduler "klgl" with entities [Volker (ID: 17969940/0x01123314), Volker (ID: 17969940/0x01123314)], work=[171*, 0*]
  6: 0x0095 [0xD0] LOAD_SCHEDULED_TASK_ALT5: Load scheduler "klgl" with entities [Nashmeira (ID: 17969934/0x0112330E), Nashmeira (ID: 17969934/0x0112330E)], work=[171*, 0*]
  7: 0x00A6 [0xD0] LOAD_SCHEDULED_TASK_ALT5: Load scheduler "klgl" with entities [Lion (ID: 17969932/0x0112330C), Lion (ID: 17969932/0x0112330C)], work=[171*, 0*]
  8: 0x00B7 [0xD0] LOAD_SCHEDULED_TASK_ALT5: Load scheduler "klgl" with entities [Trion (ID: 17969941/0x01123315), Trion (ID: 17969941/0x01123315)], work=[171*, 0*]
  9: 0x00C8 [0xD0] LOAD_SCHEDULED_TASK_ALT5: Load scheduler "klgl" with entities [Semih Lafihna (ID: 17969946/0x0112331A), Semih Lafihna (ID: 17969946/0x0112331A)], work=[171*, 0*]
 10: 0x00D9 [0xD0] LOAD_SCHEDULED_TASK_ALT5: Load scheduler "klgl" with entities [Ulmia (ID: 17969951/0x0112331F), Ulmia (ID: 17969951/0x0112331F)], work=[171*, 0*]
 11: 0x00EA [0xD0] LOAD_SCHEDULED_TASK_ALT5: Load scheduler "klgl" with entities [Star Sibyl (ID: 17969945/0x01123319), Star Sibyl (ID: 17969945/0x01123319)], work=[171*, 0*]
 12: 0x00FB [0xD0] LOAD_SCHEDULED_TASK_ALT5: Load scheduler "klgl" with entities [Aldo (ID: 17969937/0x01123311), Aldo (ID: 17969937/0x01123311)], work=[171*, 0*]
 13: 0x010C [0xD0] LOAD_SCHEDULED_TASK_ALT5: Load scheduler "klgl" with entities [Luzaf (ID: 17969950/0x0112331E), Luzaf (ID: 17969950/0x0112331E)], work=[171*, 0*]
 14: 0x011D [0xD0] LOAD_SCHEDULED_TASK_ALT5: Load scheduler "klgl" with entities [Ovjang (ID: 17969948/0x0112331C), Ovjang (ID: 17969948/0x0112331C)], work=[171*, 0*]
 15: 0x012E [0xD0] LOAD_SCHEDULED_TASK_ALT5: Load scheduler "klgl" with entities [Mnejing (ID: 17969949/0x0112331D), Mnejing (ID: 17969949/0x0112331D)], work=[171*, 0*]
 16: 0x013F [0xD0] LOAD_SCHEDULED_TASK_ALT5: Load scheduler "klgl" with entities [Shantotto (ID: 17969943/0x01123317), Shantotto (ID: 17969943/0x01123317)], work=[171*, 0*]
 17: 0x0150 [0xD0] LOAD_SCHEDULED_TASK_ALT5: Load scheduler "klgl" with entities [Gilgamesh (ID: 17969947/0x0112331B), Gilgamesh (ID: 17969947/0x0112331B)], work=[171*, 0*]
 18: 0x0161 [0xD0] LOAD_SCHEDULED_TASK_ALT5: Load scheduler "klgl" with entities [Ajido-Marujido (ID: 17969944/0x01123318), Ajido-Marujido (ID: 17969944/0x01123318)], work=[171*, 0*]
 19: 0x0172 [0xD0] LOAD_SCHEDULED_TASK_ALT5: Load scheduler "klgl" with entities [Curilla (ID: 17969942/0x01123316), Curilla (ID: 17969942/0x01123316)], work=[171*, 0*]
 20: 0x0183 [0xD0] LOAD_SCHEDULED_TASK_ALT5: Load scheduler "klgl" with entities [Maat (ID: 17969938/0x01123312), Maat (ID: 17969938/0x01123312)], work=[171*, 0*]
 21: 0x0194 [0xD0] LOAD_SCHEDULED_TASK_ALT5: Load scheduler "kill" with entities [??? (ID: 17969924/0x01123304), ??? (ID: 17969924/0x01123304)], work=[170*, 0*]
 22: 0x01A5 [0x00] END_REQSTACK()
```
