# 17969923

## Common Data

| Field            | Value                |
|------------------|----------------------|
| Zone             | Reisenjima (ID: 291) |
| Block Size       | 8748 bytes           |
| Total Events     | 5                    |
| References Count | 221                  |

## List of Events

| Event ID              | Entrypoint   |   Size |   Instructions |
|-----------------------|--------------|--------|----------------|
| [65535](#event-65535) | 0x0000       |      1 |              1 |
| [2](#event-2)         | 0x0001       |   3151 |            361 |
| [3](#event-3)         | 0x0C50       |    321 |             34 |
| [6](#event-6)         | 0x0D91       |   2213 |            251 |
| [7](#event-7)         | 0x1636       |   2140 |            227 |

## DAT References (imed_data)

|   Index | Hex Value   |   Dec Value |
|---------|-------------|-------------|
|       0 | 0x00C8      |         200 |
|       1 | 0x0000      |           0 |
|       2 | 0x001B      |          27 |
|       3 | 0xBEA56     |      780886 |
|       4 | 0x4E2A      |       20010 |
|       5 | 0x10B32     |       68402 |
|       6 | 0x0400      |        1024 |
|       7 | 0x3F6A5     |      259749 |
|       8 | 0xDEEE      |       57070 |
|       9 | 0xFFFEAB2F  |  4294880047 |
|      10 | 0x03F7      |        1015 |
|      11 | 0x001E      |          30 |
|      12 | 0x0F1A      |        3866 |
|      13 | 0x0066      |         102 |
|      14 | 0x0304      |         772 |
|      15 | 0x000F      |          15 |
|      16 | 0x0050      |          80 |
|      17 | 0x0028      |          40 |
|      18 | 0x00FF      |         255 |
|      19 | 0x0012      |          18 |
|      20 | 0x1CE3      |        7395 |
|      21 | 0x0005      |           5 |
|      22 | 0x0006      |           6 |
|      23 | 0x1CE4      |        7396 |
|      24 | 0x0010      |          16 |
|      25 | 0x005A      |          90 |
|      26 | 0x00E6      |         230 |
|      27 | 0x1CE5      |        7397 |
|      28 | 0x1CE6      |        7398 |
|      29 | 0x1CE7      |        7399 |
|      30 | 0x0001      |           1 |
|      31 | 0x0016      |          22 |
|      32 | 0x1CE8      |        7400 |
|      33 | 0x1CE9      |        7401 |
|      34 | 0x0F17      |        3863 |
|      35 | 0x1CEA      |        7402 |
|      36 | 0x0BB8      |        3000 |
|      37 | 0xBE742     |      780098 |
|      38 | 0x61E4      |       25060 |
|      39 | 0x10F7C     |       69500 |
|      40 | 0x03EA      |        1002 |
|      41 | 0xBECF9     |      781561 |
|      42 | 0x40C0      |       16576 |
|      43 | 0xFDE8      |       65000 |
|      44 | 0x0377      |         887 |
|      45 | 0x0F25      |        3877 |
|      46 | 0x00A1      |         161 |
|      47 | 0x0059      |          89 |
|      48 | 0x1CEB      |        7403 |
|      49 | 0x009A      |         154 |
|      50 | 0x1CEC      |        7404 |
|      51 | 0x1CED      |        7405 |
|      52 | 0x00F0      |         240 |
|      53 | 0x0064      |         100 |
|      54 | 0x0F12      |        3858 |
|      55 | 0x1CEE      |        7406 |
|      56 | 0x1CEF      |        7407 |
|      57 | 0x2BF47     |      180039 |
|      58 | 0x57A46     |      358982 |
|      59 | 0xFFFE9AFA  |  4294875898 |
|      60 | 0x02F3      |         755 |
|      61 | 0x00D7      |         215 |
|      62 | 0x1CF0      |        7408 |
|      63 | 0x0078      |         120 |
|      64 | 0x3F680     |      259712 |
|      65 | 0x114B0     |       70832 |
|      66 | 0xFFFEAC29  |  4294880297 |
|      67 | 0x03F2      |        1010 |
|      68 | 0x1CF1      |        7409 |
|      69 | 0x1CF2      |        7410 |
|      70 | 0x123A1     |       74657 |
|      71 | 0x8FFEE     |      589806 |
|      72 | 0xFFFEC734  |  4294887220 |
|      73 | 0x0C58      |        3160 |
|      74 | 0x1418A     |       82314 |
|      75 | 0x90160     |      590176 |
|      76 | 0xFFFEC8A2  |  4294887586 |
|      77 | 0x0865      |        2149 |
|      78 | 0x133B2     |       78770 |
|      79 | 0x8C876     |      575606 |
|      80 | 0xFFFECA1C  |  4294887964 |
|      81 | 0x0113      |         275 |
|      82 | 0x0F15      |        3861 |
|      83 | 0x1CF3      |        7411 |
|      84 | 0x1CF4      |        7412 |
|      85 | 0x1CF5      |        7413 |
|      86 | 0x1CF6      |        7414 |
|      87 | 0x1CF7      |        7415 |
|      88 | 0x0F13      |        3859 |
|      89 | 0x1CF8      |        7416 |
|      90 | 0x1CF9      |        7417 |
|      91 | 0x0082      |         130 |
|      92 | 0x0002      |           2 |
|      93 | 0x0024      |          36 |
|      94 | 0x1CFA      |        7418 |
|      95 | 0x1CFB      |        7419 |
|      96 | 0x3F9DC     |      260572 |
|      97 | 0x1C685     |      116357 |
|      98 | 0xFFFEB3F9  |  4294882297 |
|      99 | 0x0C2B      |        3115 |
|     100 | 0x3FE99     |      261785 |
|     101 | 0x1E94A     |      125258 |
|     102 | 0xFFFEBA14  |  4294883860 |
|     103 | 0x0971      |        2417 |
|     104 | 0x3EDC4     |      257476 |
|     105 | 0x2068E     |      132750 |
|     106 | 0xFFFEB93F  |  4294883647 |
|     107 | 0x03F6      |        1014 |
|     108 | 0x1CFC      |        7420 |
|     109 | 0x1CFD      |        7421 |
|     110 | 0x1CFE      |        7422 |
|     111 | 0x003C      |          60 |
|     112 | 0x1CFF      |        7423 |
|     113 | 0x1D00      |        7424 |
|     114 | 0x1D01      |        7425 |
|     115 | 0x0301      |         769 |
|     116 | 0x1D03      |        7427 |
|     117 | 0x00AF      |         175 |
|     118 | 0x00B4      |         180 |
|     119 | 0x00AD      |         173 |
|     120 | 0x0046      |          70 |
|     121 | 0x0014      |          20 |
|     122 | 0xFFFDD110  |  4294824208 |
|     123 | 0x91D55     |      597333 |
|     124 | 0xFFFECA7E  |  4294888062 |
|     125 | 0x03BA      |         954 |
|     126 | 0xFFFDC633  |  4294821427 |
|     127 | 0x8F51E     |      587038 |
|     128 | 0xFFFED45F  |  4294890591 |
|     129 | 0x0CF2      |        3314 |
|     130 | 0xFFFDC014  |  4294819860 |
|     131 | 0x8FA87     |      588423 |
|     132 | 0xFFFED348  |  4294890312 |
|     133 | 0x0D26      |        3366 |
|     134 | 0xFFFDCFB0  |  4294823856 |
|     135 | 0x8E436     |      582710 |
|     136 | 0xFFFED850  |  4294891600 |
|     137 | 0x02F6      |         758 |
|     138 | 0x00B9      |         185 |
|     139 | 0x0306      |         774 |
|     140 | 0x1D3D      |        7485 |
|     141 | 0x01A9      |         425 |
|     142 | 0x1D3E      |        7486 |
|     143 | 0x1D3F      |        7487 |
|     144 | 0x1D40      |        7488 |
|     145 | 0x1D41      |        7489 |
|     146 | 0x1D42      |        7490 |
|     147 | 0x0236      |         566 |
|     148 | 0x1D43      |        7491 |
|     149 | 0x0C2E      |        3118 |
|     150 | 0x1D44      |        7492 |
|     151 | 0xFFFDD61C  |  4294825500 |
|     152 | 0x90EFA     |      593658 |
|     153 | 0xFFFECCC1  |  4294888641 |
|     154 | 0x04AC      |        1196 |
|     155 | 0xFFFDC7B3  |  4294821811 |
|     156 | 0x9143B     |      595003 |
|     157 | 0xFFFECA8B  |  4294888075 |
|     158 | 0x1CCD      |        7373 |
|     159 | 0x004F      |          79 |
|     160 | 0x1D45      |        7493 |
|     161 | 0x1D46      |        7494 |
|     162 | 0x1D47      |        7495 |
|     163 | 0x1D48      |        7496 |
|     164 | 0x1D49      |        7497 |
|     165 | 0x1D4A      |        7498 |
|     166 | 0x1D4B      |        7499 |
|     167 | 0x1D4C      |        7500 |
|     168 | 0x01AA      |         426 |
|     169 | 0x1D4D      |        7501 |
|     170 | 0x1D4E      |        7502 |
|     171 | 0x1D4F      |        7503 |
|     172 | 0x1D50      |        7504 |
|     173 | 0x1D51      |        7505 |
|     174 | 0x1D52      |        7506 |
|     175 | 0x1D53      |        7507 |
|     176 | 0x1D54      |        7508 |
|     177 | 0x1D55      |        7509 |
|     178 | 0x1D56      |        7510 |
|     179 | 0x1D57      |        7511 |
|     180 | 0x1D58      |        7512 |
|     181 | 0x1D59      |        7513 |
|     182 | 0x0297      |         663 |
|     183 | 0x1D5A      |        7514 |
|     184 | 0x1D5B      |        7515 |
|     185 | 0x1D5C      |        7516 |
|     186 | 0x3F760     |      259936 |
|     187 | 0xDC26      |       56358 |
|     188 | 0xFFFEAB2E  |  4294880046 |
|     189 | 0x03ED      |        1005 |
|     190 | 0x3F82A     |      260138 |
|     191 | 0xF6A8      |       63144 |
|     192 | 0xFFFEAC28  |  4294880296 |
|     193 | 0x0419      |        1049 |
|     194 | 0x3FED3     |      261843 |
|     195 | 0xFFA6      |       65446 |
|     196 | 0x0436      |        1078 |
|     197 | 0x3F43F     |      259135 |
|     198 | 0x1160A     |       71178 |
|     199 | 0x1D5D      |        7517 |
|     200 | 0x1D5E      |        7518 |
|     201 | 0x1D5F      |        7519 |
|     202 | 0x1D60      |        7520 |
|     203 | 0x1D61      |        7521 |
|     204 | 0x1D62      |        7522 |
|     205 | 0x1D63      |        7523 |
|     206 | 0x1D64      |        7524 |
|     207 | 0x1D65      |        7525 |
|     208 | 0x1D66      |        7526 |
|     209 | 0x1D67      |        7527 |
|     210 | 0x1D68      |        7528 |
|     211 | 0x1D69      |        7529 |
|     212 | 0x1D6A      |        7530 |
|     213 | 0x0007      |           7 |
|     214 | 0x1D6B      |        7531 |
|     215 | 0x008C      |         140 |
|     216 | 0x1D6C      |        7532 |
|     217 | 0x3F588     |      259464 |
|     218 | 0xEF3D      |       61245 |
|     219 | 0x00C9      |         201 |
|     220 | 0x002D      |          45 |

## String References

- **7373**: @@
- **7396**: How do you respond? [It's me! <Player>!/Who do you think it is?]
- **7412**: How do you respond? [Weren't you attacked on the way?/Are you sure you're well?/I'll take things from here!]
- **7500**: Where is Iroha? [She rests with the crystal./She's passed on./She's within all of us.]

## Events

### Event 65535

#### Metadata

| Field        | Value   |
|--------------|---------|
| Entrypoint   | 0x0000  |
| Data Size    | 1 bytes |
| Instructions | 1       |

```
      00 01 02 03 04 05 06 07  08 09 0A 0B 0C 0D 0E 0F
      -- -- -- -- -- -- -- --  -- -- -- -- -- -- -- --
0000: 00                                                .               
```

#### Opcodes

```
  0: 0x0000 [0x00] END_REQSTACK()
```

### Event 2

#### Metadata

| Field        | Value      |
|--------------|------------|
| Entrypoint   | 0x0001     |
| Data Size    | 3151 bytes |
| Instructions | 361        |

```
      00 01 02 03 04 05 06 07  08 09 0A 0B 0C 0D 0E 0F
      -- -- -- -- -- -- -- --  -- -- -- -- -- -- -- --
0000:    42 03 00 00 03 10 03  01 00 04 10 03 02 00 05   B..............
0010: 10 03 03 00 06 10 03 04  00 07 10 03 05 00 08 10  ................
0020: 45 00 80 F8 FF FF 7F F8  FF FF 7F 66 64 6F 31 01  E..........fdo1.
0030: 80 55 00 80 F8 FF FF 7F  F8 FF FF 7F 66 64 6F 31  .U..........fdo1
0040: 46 01 38 02 80 2F 00 08  33 12 01 4E 00 08 33 12  F.8../..3..N..3.
0050: 01 92 01 08 33 12 01 94  01 08 33 12 01 94 01 F0  ....3.....3.....
0060: FF FF 7F 59 05 08 33 12  01 01 BA 08 33 12 01 03  ...Y..3.....3...
0070: 80 04 80 05 80 06 80 BA  F0 FF FF 7F 07 80 08 80  ................
0080: 09 80 0A 80 80 F0 FF FF  7F 80 08 33 12 01 1C 0B  ...........3....
0090: 80 81 00 08 33 12 01 5B  0C 80 08 33 12 01 08 33  ....3..[...3...3
00A0: 12 01 6D 69 73 30 D0 0D  80 08 33 12 01 08 33 12  ..mis0....3...3.
00B0: 01 6B 79 75 30 01 80 45  0E 80 F8 FF FF 7F F8 FF  .kyu0..E........
00C0: FF 7F 73 30 30 30 01 80  1C 0F 80 45 00 80 F0 FF  ..s000.....E....
00D0: FF 7F F0 FF FF 7F 66 64  69 31 01 80 1C 0B 80 27  ......fdi1.....'
00E0: 05 F0 FF FF 7F 0E 1C 10  80 27 05 F0 FF FF 7F 0F  .........'......
00F0: 1C 11 80 77 12 80 13 80  52 0E 80 F8 FF FF 7F F8  ...w....R.......
0100: FF FF 7F 73 30 30 30 45  0E 80 F8 FF FF 7F F8 FF  ...s000E........
0110: FF 7F 73 30 30 31 01 80  2B 08 33 12 01 14 80 23  ..s001..+.3....#
0120: 52 0E 80 F8 FF FF 7F F8  FF FF 7F 73 30 30 31 02  R..........s001.
0130: 87 7F 15 80 80 4B 01 45  0E 80 F8 FF FF 7F F8 FF  .....K.E........
0140: FF 7F 73 30 30 38 01 80  01 78 01 02 87 7F 16 80  ..s008...x......
0150: 80 67 01 45 0E 80 F8 FF  FF 7F F8 FF FF 7F 73 30  .g.E..........s0
0160: 30 38 01 80 01 78 01 45  0E 80 F8 FF FF 7F F8 FF  08...x.E........
0170: FF 7F 73 30 30 32 01 80  78 24 17 80 01 80 01 80  ..s002..x$......
0180: 25 02 00 10 01 80 00 01  02 6E F0 FF FF 7F 18 80  %........n......
0190: 99 F0 FF FF 7F 1C 19 80  81 01 08 33 12 01 5F 05  ...........3.._.
01A0: 0C 80 08 33 12 01 08 33  12 01 6D 69 73 31 1A 80  ...3...3..mis1..
01B0: 52 0E 80 F8 FF FF 7F F8  FF FF 7F 73 30 30 32 52  R..........s002R
01C0: 0E 80 F8 FF FF 7F F8 FF  FF 7F 73 30 30 38 45 0E  ..........s008E.
01D0: 80 F8 FF FF 7F F8 FF FF  7F 73 30 30 33 01 80 77  .........s003..w
01E0: 12 80 13 80 2B 08 33 12  01 1B 80 1C 19 80 2B 08  ....+.3.......+.
01F0: 33 12 01 1C 80 23 2B 08  33 12 01 1D 80 23 01 79  3....#+.3....#.y
0200: 02 02 00 10 1E 80 00 79  02 6E F0 FF FF 7F 1F 80  .......y.n......
0210: 99 F0 FF FF 7F 1C 19 80  81 01 08 33 12 01 5F 05  ...........3.._.
0220: 0C 80 08 33 12 01 08 33  12 01 6D 69 73 31 1A 80  ...3...3..mis1..
0230: 52 0E 80 F8 FF FF 7F F8  FF FF 7F 73 30 30 32 52  R..........s002R
0240: 0E 80 F8 FF FF 7F F8 FF  FF 7F 73 30 30 38 45 0E  ..........s008E.
0250: 80 F8 FF FF 7F F8 FF FF  7F 73 30 30 33 01 80 77  .........s003..w
0260: 12 80 13 80 2B 08 33 12  01 20 80 1C 19 80 2B 08  ....+.3.. ....+.
0270: 33 12 01 21 80 23 01 79  02 5F 07 08 33 12 01 08  3..!.#.y._..3...
0280: 33 12 01 6D 69 73 31 52  0E 80 F8 FF FF 7F F8 FF  3..mis1R........
0290: FF 7F 73 30 30 33 45 0E  80 F8 FF FF 7F F8 FF FF  ..s003E.........
02A0: 7F 73 30 30 34 01 80 5B  22 80 08 33 12 01 08 33  .s004..["..3...3
02B0: 12 01 74 6C 63 30 2B 08  33 12 01 23 80 23 45 00  ..tlc0+.3..#.#E.
02C0: 80 F8 FF FF 7F F8 FF FF  7F 66 64 6F 31 01 80 55  .........fdo1..U
02D0: 00 80 F8 FF FF 7F F8 FF  FF 7F 66 64 6F 31 52 0E  ..........fdo1R.
02E0: 80 F8 FF FF 7F F8 FF FF  7F 73 30 30 34 D0 0D 80  .........s004...
02F0: 08 33 12 01 08 33 12 01  6B 6C 6B 79 01 80 6B 69  .3...3..klky..ki
0300: 64 6C 30 08 33 12 01 2F  00 09 33 12 01 4E 00 09  dl0.3../..3..N..
0310: 33 12 01 22 00 92 01 09  33 12 01 94 01 09 33 12  3.."....3.....3.
0320: 01 59 05 09 33 12 01 01  33 01 03 03 10 00 00 03  .Y..3...3.......
0330: 04 10 01 00 03 05 10 02  00 03 06 10 03 00 03 07  ................
0340: 10 04 00 03 08 10 05 00  29 05 09 33 12 01 02 BA  ........)..3....
0350: 08 33 12 01 03 80 04 80  05 80 24 80 BA 09 33 12  .3........$...3.
0360: 01 25 80 26 80 27 80 28  80 37 29 80 2A 80 2B 80  .%.&.'.(.7).*.+.
0370: 2C 80 80 08 33 12 01 80  09 33 12 01 80 F8 FF FF  ,...3....3......
0380: 7F 1C 0B 80 5B 2D 80 08  33 12 01 08 33 12 01 68  ....[-..3...3..h
0390: 6E 64 30 D0 2E 80 08 33  12 01 08 33 12 01 6D 61  nd0....3...3..ma
03A0: 69 6E 01 80 C5 2F 80 F8  FF FF 7F F8 FF FF 7F 6D  in.../.........m
03B0: 61 69 6E 01 80 1C 0B 80  81 00 08 33 12 01 7C 00  ain........3..|.
03C0: 08 33 12 01 27 05 09 33  12 01 03 45 0E 80 F8 FF  .3..'..3...E....
03D0: FF 7F F8 FF FF 7F 73 30  30 35 01 80 1C 0F 80 45  ......s005.....E
03E0: 00 80 F0 FF FF 7F F0 FF  FF 7F 66 64 69 31 01 80  ..........fdi1..
03F0: 2B 08 33 12 01 30 80 23  52 0E 80 F8 FF FF 7F F8  +.3..0.#R.......
0400: FF FF 7F 73 30 30 35 45  0E 80 F8 FF FF 7F F8 FF  ...s005E........
0410: FF 7F 73 30 30 36 01 80  D0 31 80 08 33 12 01 08  ..s006...1..3...
0420: 33 12 01 65 66 6F 6E 01  80 D0 31 80 08 33 12 01  3..efon...1..3..
0430: 08 33 12 01 73 65 6F 6E  01 80 2B 08 33 12 01 32  .3..seon..+.3..2
0440: 80 23 52 0E 80 F8 FF FF  7F F8 FF FF 7F 73 30 30  .#R..........s00
0450: 36 45 0E 80 F8 FF FF 7F  F8 FF FF 7F 73 30 30 37  6E..........s007
0460: 01 80 2B 08 33 12 01 33  80 1C 34 80 45 00 80 F8  ..+.3..3..4.E...
0470: FF FF 7F F8 FF FF 7F 66  64 6F 31 01 80 55 00 80  .......fdo1..U..
0480: F8 FF FF 7F F8 FF FF 7F  66 64 6F 31 52 0E 80 F8  ........fdo1R...
0490: FF FF 7F F8 FF FF 7F 73  30 30 37 23 D0 31 80 08  .......s007#.1..
04A0: 33 12 01 08 33 12 01 73  65 6F 66 01 80 C5 2F 80  3...3..seof.../.
04B0: F8 FF FF 7F F8 FF FF 7F  6B 69 6C 61 01 80 D0 2E  ........kila....
04C0: 80 08 33 12 01 08 33 12  01 6B 6C 61 6C 01 80 D0  ..3...3..klal...
04D0: 31 80 08 33 12 01 08 33  12 01 65 66 6B 6C 01 80  1..3...3..efkl..
04E0: 6B 69 64 6C 30 08 33 12  01 6B 69 64 6C 30 09 33  kidl0.3..kidl0.3
04F0: 12 01 27 05 09 33 12 01  08 4E 01 09 33 12 01 BA  ..'..3...N..3...
0500: 08 33 12 01 03 80 04 80  05 80 06 80 80 08 33 12  .3............3.
0510: 01 1C 0B 80 D0 0D 80 08  33 12 01 08 33 12 01 6B  ........3...3..k
0520: 79 75 30 01 80 5B 22 80  08 33 12 01 08 33 12 01  yu0..["..3...3..
0530: 74 6C 63 30 1C 35 80 45  0E 80 F8 FF FF 7F F8 FF  tlc0.5.E........
0540: FF 7F 73 30 30 39 01 80  1C 0F 80 45 00 80 F0 FF  ..s009.....E....
0550: FF 7F F0 FF FF 7F 66 64  69 31 01 80 1C 0B 80 5B  ......fdi1.....[
0560: 36 80 08 33 12 01 08 33  12 01 66 65 30 31 2B 08  6..3...3..fe01+.
0570: 33 12 01 37 80 23 52 0E  80 F8 FF FF 7F F8 FF FF  3..7.#R.........
0580: 7F 73 30 30 39 02 87 7F  15 80 80 A1 05 45 0E 80  .s009........E..
0590: F8 FF FF 7F F8 FF FF 7F  73 30 31 31 01 80 01 CE  ........s011....
05A0: 05 02 87 7F 16 80 80 BD  05 45 0E 80 F8 FF FF 7F  .........E......
05B0: F8 FF FF 7F 73 30 31 31  01 80 01 CE 05 45 0E 80  ....s011.....E..
05C0: F8 FF FF 7F F8 FF FF 7F  73 30 31 30 01 80 78 27  ........s010..x'
05D0: 05 F0 FF FF 7F 0E 1C 10  80 D3 00 08 33 12 01 81  ............3...
05E0: 01 08 33 12 01 7C 01 08  33 12 01 27 05 F0 FF FF  ..3..|..3..'....
05F0: 7F 0F 1C 11 80 52 0E 80  F8 FF FF 7F F8 FF FF 7F  .....R..........
0600: 73 30 31 30 52 0E 80 F8  FF FF 7F F8 FF FF 7F 73  s010R..........s
0610: 30 31 31 45 0E 80 F8 FF  FF 7F F8 FF FF 7F 73 30  011E..........s0
0620: 31 32 01 80 77 12 80 13  80 5B 22 80 08 33 12 01  12..w....["..3..
0630: 08 33 12 01 74 6C 63 31  2B 08 33 12 01 38 80 23  .3..tlc1+.3..8.#
0640: 45 00 80 F8 FF FF 7F F8  FF FF 7F 66 64 6F 31 01  E..........fdo1.
0650: 80 55 00 80 F8 FF FF 7F  F8 FF FF 7F 66 64 6F 31  .U..........fdo1
0660: 52 0E 80 F8 FF FF 7F F8  FF FF 7F 73 30 31 32 D0  R..........s012.
0670: 0D 80 08 33 12 01 08 33  12 01 6B 6C 6B 79 01 80  ...3...3..klky..
0680: 78 59 05 08 33 12 01 00  BA 08 33 12 01 39 80 3A  xY..3.....3..9.:
0690: 80 3B 80 3C 80 80 08 33  12 01 1C 0B 80 81 00 08  .;.<...3........
06A0: 33 12 01 5B 2D 80 08 33  12 01 08 33 12 01 74 61  3..[-..3...3..ta
06B0: 65 30 1C 0B 80 45 0E 80  F8 FF FF 7F F8 FF FF 7F  e0...E..........
06C0: 73 30 31 33 01 80 1C 0F  80 45 3D 80 F0 FF FF 7F  s013.....E=.....
06D0: F0 FF FF 7F 65 66 6F 6E  01 80 55 3D 80 F0 FF FF  ....efon..U=....
06E0: 7F F0 FF FF 7F 65 66 6F  6E 2B 08 33 12 01 3E 80  .....efon+.3..>.
06F0: 1C 3F 80 52 0E 80 F8 FF  FF 7F F8 FF FF 7F 73 30  .?.R..........s0
0700: 31 33 45 0E 80 F8 FF FF  7F F8 FF FF 7F 73 30 31  13E..........s01
0710: 34 01 80 1C 3F 80 23 45  00 80 F8 FF FF 7F F8 FF  4...?.#E........
0720: FF 7F 66 64 6F 31 01 80  55 00 80 F8 FF FF 7F F8  ..fdo1..U.......
0730: FF FF 7F 66 64 6F 31 52  0E 80 F8 FF FF 7F F8 FF  ...fdo1R........
0740: FF 7F 73 30 31 34 4E 01  F0 FF FF 7F 6B 69 64 6C  ..s014N.....kidl
0750: 30 08 33 12 01 BA 08 33  12 01 40 80 41 80 42 80  0.3....3..@.A.B.
0760: 43 80 80 08 33 12 01 27  05 08 33 12 01 09 1C 0B  C...3..'..3.....
0770: 80 45 0E 80 F8 FF FF 7F  F8 FF FF 7F 73 30 31 35  .E..........s015
0780: 01 80 1C 0F 80 45 3D 80  F0 FF FF 7F F0 FF FF 7F  .....E=.........
0790: 65 66 6F 6E 01 80 55 3D  80 F0 FF FF 7F F0 FF FF  efon..U=........
07A0: 7F 65 66 6F 6E 7C 00 08  33 12 01 2B 08 33 12 01  .efon|..3..+.3..
07B0: 44 80 1C 3F 80 52 0E 80  F8 FF FF 7F F8 FF FF 7F  D..?.R..........
07C0: 73 30 31 35 45 0E 80 F8  FF FF 7F F8 FF FF 7F 73  s015E..........s
07D0: 30 31 36 01 80 23 2B 08  33 12 01 45 80 23 2A 05  016..#+.3..E.#*.
07E0: 08 33 12 01 45 00 80 F8  FF FF 7F F8 FF FF 7F 66  .3..E..........f
07F0: 64 6F 31 01 80 55 00 80  F8 FF FF 7F F8 FF FF 7F  do1..U..........
0800: 66 64 6F 31 52 0E 80 F8  FF FF 7F F8 FF FF 7F 73  fdo1R..........s
0810: 30 31 36 77 12 80 13 80  2F 00 21 33 12 01 2F 00  016w..../.!3../.
0820: 22 33 12 01 2F 00 20 33  12 01 4E 00 21 33 12 01  "3../. 3..N.!3..
0830: 4E 00 22 33 12 01 4E 00  20 33 12 01 4E 00 F0 FF  N."3..N. 3..N...
0840: FF 7F 59 05 08 33 12 01  01 59 05 21 33 12 01 01  ..Y..3...Y.!3...
0850: 59 05 22 33 12 01 01 BA  08 33 12 01 03 80 04 80  Y."3.....3......
0860: 05 80 06 80 BA 21 33 12  01 46 80 47 80 48 80 49  .....!3..F.G.H.I
0870: 80 BA 22 33 12 01 4A 80  4B 80 4C 80 4D 80 BA 20  .."3..J.K.L.M.. 
0880: 33 12 01 4E 80 4F 80 50  80 51 80 80 08 33 12 01  3..N.O.P.Q...3..
0890: 80 21 33 12 01 80 22 33  12 01 80 20 33 12 01 1C  .!3..."3... 3...
08A0: 0B 80 D0 0D 80 08 33 12  01 08 33 12 01 6B 79 75  ......3...3..kyu
08B0: 30 01 80 1C 0B 80 7C 01  08 33 12 01 45 0E 80 F8  0.....|..3..E...
08C0: FF FF 7F F8 FF FF 7F 73  30 31 37 01 80 1C 0F 80  .......s017.....
08D0: 45 00 80 F0 FF FF 7F F0  FF FF 7F 66 64 69 31 01  E..........fdi1.
08E0: 80 5B 52 80 08 33 12 01  08 33 12 01 74 6C 62 30  .[R..3...3..tlb0
08F0: 2B 08 33 12 01 53 80 23  5B 52 80 08 33 12 01 08  +.3..S.#[R..3...
0900: 33 12 01 74 6C 62 31 52  0E 80 F8 FF FF 7F F8 FF  3..tlb1R........
0910: FF 7F 73 30 31 37 45 0E  80 F8 FF FF 7F F8 FF FF  ..s017E.........
0920: 7F 73 30 31 38 01 80 78  24 54 80 01 80 01 80 25  .s018..x$T.....%
0930: 02 00 10 01 80 00 CC 09  6E F0 FF FF 7F 1F 80 99  ........n.......
0940: F0 FF FF 7F 1C 19 80 27  05 22 33 12 01 06 52 0E  .......'."3...R.
0950: 80 F8 FF FF 7F F8 FF FF  7F 73 30 31 38 45 0E 80  .........s018E..
0960: F8 FF FF 7F F8 FF FF 7F  73 30 32 33 01 80 2B 08  ........s023..+.
0970: 33 12 01 55 80 23 2B 08  33 12 01 56 80 23 52 0E  3..U.#+.3..V.#R.
0980: 80 F8 FF FF 7F F8 FF FF  7F 73 30 32 33 45 0E 80  .........s023E..
0990: F8 FF FF 7F F8 FF FF 7F  73 30 31 39 01 80 77 12  ........s019..w.
09A0: 80 13 80 5B 52 80 08 33  12 01 08 33 12 01 74 6C  ...[R..3...3..tl
09B0: 63 30 2B 08 33 12 01 57  80 23 52 0E 80 F8 FF FF  c0+.3..W.#R.....
09C0: 7F F8 FF FF 7F 73 30 31  39 01 CA 0A 02 00 10 1E  .....s019.......
09D0: 80 00 5D 0A 6E F0 FF FF  7F 1F 80 99 F0 FF FF 7F  ..].n...........
09E0: 1C 19 80 52 0E 80 F8 FF  FF 7F F8 FF FF 7F 73 30  ...R..........s0
09F0: 31 38 45 0E 80 F8 FF FF  7F F8 FF FF 7F 73 30 31  18E..........s01
0A00: 39 01 80 77 12 80 13 80  5B 58 80 08 33 12 01 08  9..w....[X..3...
0A10: 33 12 01 73 6F 6D 30 2B  08 33 12 01 59 80 1C 35  3..som0+.3..Y..5
0A20: 80 23 5B 58 80 08 33 12  01 08 33 12 01 73 6F 6D  .#[X..3...3..som
0A30: 31 2B 08 33 12 01 5A 80  1C 5B 80 23 5B 52 80 08  1+.3..Z..[.#[R..
0A40: 33 12 01 08 33 12 01 74  6C 63 30 52 0E 80 F8 FF  3...3..tlc0R....
0A50: FF 7F F8 FF FF 7F 73 30  31 39 01 CA 0A 02 00 10  ......s019......
0A60: 5C 80 00 CA 0A 6E F0 FF  FF 7F 5D 80 99 F0 FF FF  \....n....].....
0A70: 7F 1C 19 80 52 0E 80 F8  FF FF 7F F8 FF FF 7F 73  ....R..........s
0A80: 30 31 38 45 0E 80 F8 FF  FF 7F F8 FF FF 7F 73 30  018E..........s0
0A90: 31 39 01 80 77 12 80 13  80 5B 52 80 08 33 12 01  19..w....[R..3..
0AA0: 08 33 12 01 74 6C 63 30  2B 08 33 12 01 5E 80 23  .3..tlc0+.3..^.#
0AB0: 2B 08 33 12 01 5F 80 23  52 0E 80 F8 FF FF 7F F8  +.3.._.#R.......
0AC0: FF FF 7F 73 30 31 39 01  CA 0A 45 0E 80 F8 FF FF  ...s019...E.....
0AD0: 7F F8 FF FF 7F 73 30 32  30 01 80 27 05 21 33 12  .....s020..'.!3.
0AE0: 01 04 27 05 22 33 12 01  08 27 05 20 33 12 01 04  ..'."3...'. 3...
0AF0: BA 22 33 12 01 60 80 61  80 62 80 63 80 BA 21 33  ."3..`.a.b.c..!3
0B00: 12 01 64 80 65 80 66 80  67 80 BA 20 33 12 01 68  ..d.e.f.g.. 3..h
0B10: 80 69 80 6A 80 6B 80 2B  08 33 12 01 6C 80 23 2B  .i.j.k.+.3..l.#+
0B20: 08 33 12 01 6D 80 23 5B  52 80 08 33 12 01 08 33  .3..m.#[R..3...3
0B30: 12 01 74 6C 63 31 27 05  21 33 12 01 06 52 0E 80  ..tlc1'.!3...R..
0B40: F8 FF FF 7F F8 FF FF 7F  73 30 32 30 45 0E 80 F8  ........s020E...
0B50: FF FF 7F F8 FF FF 7F 73  30 32 34 01 80 2B 08 33  .......s024..+.3
0B60: 12 01 6E 80 1C 6F 80 27  05 22 33 12 01 07 23 52  ..n..o.'."3...#R
0B70: 0E 80 F8 FF FF 7F F8 FF  FF 7F 73 30 32 34 45 0E  ..........s024E.
0B80: 80 F8 FF FF 7F F8 FF FF  7F 73 30 32 31 01 80 5B  .........s021..[
0B90: 52 80 08 33 12 01 08 33  12 01 74 6C 62 30 2B 08  R..3...3..tlb0+.
0BA0: 33 12 01 70 80 23 2B 08  33 12 01 71 80 23 52 0E  3..p.#+.3..q.#R.
0BB0: 80 F8 FF FF 7F F8 FF FF  7F 73 30 32 31 45 0E 80  .........s021E..
0BC0: F8 FF FF 7F F8 FF FF 7F  73 30 32 32 01 80 2B 08  ........s022..+.
0BD0: 33 12 01 72 80 23 45 00  80 F0 FF FF 7F F0 FF FF  3..r.#E.........
0BE0: 7F 66 64 6F 31 01 80 55  00 80 F0 FF FF 7F F0 FF  .fdo1..U........
0BF0: FF 7F 66 64 6F 31 52 0E  80 F8 FF FF 7F F8 FF FF  ..fdo1R.........
0C00: 7F 73 30 32 32 7A 00 21  33 12 01 7A 00 22 33 12  .s022z.!3..z."3.
0C10: 01 29 05 21 33 12 01 05  29 05 22 33 12 01 04 29  .).!3...)."3...)
0C20: 05 20 33 12 01 05 78 D0  0D 80 08 33 12 01 08 33  . 3...x....3...3
0C30: 12 01 6B 6C 6B 79 01 80  1C 6F 80 46 00 45 00 80  ..klky...o.F.E..
0C40: F0 FF FF 7F F0 FF FF 7F  66 64 69 32 01 80 21 00  ........fdi2..!.
```

#### Opcodes

```
  0: 0x0001 [0x42] SET_CLI_EVENT_CANCEL_DATA()
  1: 0x0002 [0x03] ExtData[1]->WorkLocal[0] = Work_Zone[3]
  2: 0x0007 [0x03] ExtData[1]->WorkLocal[1] = Work_Zone[4]
  3: 0x000C [0x03] ExtData[1]->WorkLocal[2] = Work_Zone[5]
  4: 0x0011 [0x03] ExtData[1]->WorkLocal[3] = Work_Zone[6]
  5: 0x0016 [0x03] ExtData[1]->WorkLocal[4] = Work_Zone[7]
  6: 0x001B [0x03] ExtData[1]->WorkLocal[5] = Work_Zone[8]
  7: 0x0020 [0x45] LOAD_SCHEDULED_TASK: Load scheduler "fdo1" with entities [EventEntity, EventEntity], work=[200*, 0*]
  8: 0x0031 [0x55] WAIT_LOAD_SCHEDULER: Wait for scheduler "fdo1" with entities [EventEntity, EventEntity], work=200*
  9: 0x0040 [0x46] CAMERA_CONTROL: Disable user control
 10: 0x0042 [0x38] SET_CLIENT_EVENT_MODE(mode=27*)
 11: 0x0045 [0x2F] Iroha (ID: 17969928/0x01123308)->Render.Flags0 &= ~0x80000 // Bit 19
 12: 0x004B [0x4E] SET_ENTITY_HIDE_FLAG: Show Iroha (ID: 17969928/0x01123308)
 13: 0x0051 [0x92] Iroha (ID: 17969928/0x01123308)->Render.Flags3 ^= 0x01
 14: 0x0057 [0x94] Iroha (ID: 17969928/0x01123308)->Render.Flags3 ^= 0x01
 15: 0x005D [0x94] LocalPlayer->Render.Flags3 ^= 0x01
 16: 0x0063 [0x59] UPDATE_ENTITY_DATA: Iroha (ID: 17969928/0x01123308)->Render.Flags0 |= 0x200000
 17: 0x006A [0xBA] SET_ENTITY_POSITION(entity_id=Iroha (ID: 17969928/0x01123308), pos_x=780.886*, pos_z=20.010*, pos_y=68.402*, direction=90.0°*)
 18: 0x0077 [0xBA] SET_ENTITY_POSITION(entity_id=LocalPlayer, pos_x=259.749*, pos_z=57.070*, pos_y=-87.249*, direction=89.2°*)
 19: 0x0084 [0x80] LOAD_WAIT(entity=LocalPlayer)
 20: 0x0089 [0x80] LOAD_WAIT(entity=Iroha (ID: 17969928/0x01123308))
 21: 0x008E [0x1C] WAIT(30* ticks)
 22: 0x0091 [0x81] SET_ENTITY_BLINKING(blink_flag=0x00, entity=Iroha (ID: 17969928/0x01123308))
 23: 0x0097 [0x5B] LOAD_EXT_SCHEDULER: Load scheduler "mis0" with entities [Iroha (ID: 17969928/0x01123308), Iroha (ID: 17969928/0x01123308)], work=3866*
 24: 0x00A6 [0xD0] LOAD_SCHEDULED_TASK_ALT5: Load scheduler "kyu0" with entities [Iroha (ID: 17969928/0x01123308), Iroha (ID: 17969928/0x01123308)], work=[102*, 0*]
 25: 0x00B7 [0x45] LOAD_SCHEDULED_TASK: Load scheduler "s000" with entities [EventEntity, EventEntity], work=[772*, 0*]
 26: 0x00C8 [0x1C] WAIT(15* ticks)
 27: 0x00CB [0x45] LOAD_SCHEDULED_TASK: Load scheduler "fdi1" with entities [LocalPlayer, LocalPlayer], work=[200*, 0*]
 28: 0x00DC [0x1C] WAIT(30* ticks)
 29: 0x00DF [0x27] REQ_SET(priority=0x05, entity_id=LocalPlayer, tag_num=0x0E)
 30: 0x00E6 [0x1C] WAIT(80* ticks)
 31: 0x00E9 [0x27] REQ_SET(priority=0x05, entity_id=LocalPlayer, tag_num=0x0F)
 32: 0x00F0 [0x1C] WAIT(40* ticks)
 33: 0x00F3 [0x77] SET_EVENT_TIME_WEATHER(hour=255*, weather=18*)
 34: 0x00F8 [0x52] END_LOAD_SCHEDULER: End scheduler "s000" with entities [EventEntity, EventEntity], work=772*
 35: 0x0107 [0x45] LOAD_SCHEDULED_TASK: Load scheduler "s001" with entities [EventEntity, EventEntity], work=[772*, 0*]
 36: 0x0118 [0x2B] Iroha (ID: 17969928/0x01123308) [7395*]:
    → "These whisperings on the wind...are they meant to mock me?"
 37: 0x011F [0x23] WAIT_FOR_DIALOG_INTERACTION
 38: 0x0120 [0x52] END_LOAD_SCHEDULER: End scheduler "s001" with entities [EventEntity, EventEntity], work=772*
 39: 0x012F [0x02] IF !(LocalPlayer->Race == 5*) GOTO 0x014B
 40: 0x0137 [0x45] LOAD_SCHEDULED_TASK: Load scheduler "s008" with entities [EventEntity, EventEntity], work=[772*, 0*]
 41: 0x0148 [0x01] GOTO 0x0178
 42: 0x014B [0x02] IF !(LocalPlayer->Race == 6*) GOTO 0x0167
 43: 0x0153 [0x45] LOAD_SCHEDULED_TASK: Load scheduler "s008" with entities [EventEntity, EventEntity], work=[772*, 0*]
 44: 0x0164 [0x01] GOTO 0x0178
 45: 0x0167 [0x45] LOAD_SCHEDULED_TASK: Load scheduler "s002" with entities [EventEntity, EventEntity], work=[772*, 0*]

SUBROUTINE_0178:
 46: 0x0178 [0x78] ENABLE_GAME_TIMER_RESET_WEATHER()
 47: 0x0179 [0x24] CREATE_DIALOG(message_id=7396*, default_option=0*, option_flags=0*)
    → "How do you respond? [It's me! <Player>!/Who do you think it is?]"
 48: 0x0180 [0x25] WAIT_DIALOG_SELECT()
 49: 0x0181 [0x02] IF !(Work_Zone[0] == 0*) GOTO 0x0201
 50: 0x0189 [0x6E] LocalPlayer uses emote 16*
 51: 0x0190 [0x99] Wait for LocalPlayer animation to complete
 52: 0x0195 [0x1C] WAIT(90* ticks)
 53: 0x0198 [0x81] SET_ENTITY_BLINKING(blink_flag=0x01, entity=Iroha (ID: 17969928/0x01123308))
 54: 0x019E [0x5F] MULTI_HANDLER_COMPLEX(mode=0x05 - Load ext scheduler with flag (OpCode 0x5B mode 0, flag 1), ref=3866*, entity1=Iroha (ID: 17969928/0x01123308), entity2=Iroha (ID: 17969928/0x01123308), string="mis1", extra=230*)
 55: 0x01B0 [0x52] END_LOAD_SCHEDULER: End scheduler "s002" with entities [EventEntity, EventEntity], work=772*
 56: 0x01BF [0x52] END_LOAD_SCHEDULER: End scheduler "s008" with entities [EventEntity, EventEntity], work=772*
 57: 0x01CE [0x45] LOAD_SCHEDULED_TASK: Load scheduler "s003" with entities [EventEntity, EventEntity], work=[772*, 0*]
 58: 0x01DF [0x77] SET_EVENT_TIME_WEATHER(hour=255*, weather=18*)
 59: 0x01E4 [0x2B] Iroha (ID: 17969928/0x01123308) [7397*]:
    → "M-Master!"
 60: 0x01EB [0x1C] WAIT(90* ticks)
 61: 0x01EE [0x2B] Iroha (ID: 17969928/0x01123308) [7398*]:
    → "Oh, Master! Not even Altana herself can comprehend the joy I feel at hearing your voice!"
 62: 0x01F5 [0x23] WAIT_FOR_DIALOG_INTERACTION
 63: 0x01F6 [0x2B] Iroha (ID: 17969928/0x01123308) [7399*]:
    → "And to think you followed me to a land that must seem as the end of the world!"
 64: 0x01FD [0x23] WAIT_FOR_DIALOG_INTERACTION
 65: 0x01FE [0x01] GOTO 0x0279
 66: 0x0201 [0x02] IF !(Work_Zone[0] == 1*) GOTO 0x0279
 67: 0x0209 [0x6E] LocalPlayer uses emote 22*
 68: 0x0210 [0x99] Wait for LocalPlayer animation to complete
 69: 0x0215 [0x1C] WAIT(90* ticks)
 70: 0x0218 [0x81] SET_ENTITY_BLINKING(blink_flag=0x01, entity=Iroha (ID: 17969928/0x01123308))
 71: 0x021E [0x5F] MULTI_HANDLER_COMPLEX(mode=0x05 - Load ext scheduler with flag (OpCode 0x5B mode 0, flag 1), ref=3866*, entity1=Iroha (ID: 17969928/0x01123308), entity2=Iroha (ID: 17969928/0x01123308), string="mis1", extra=230*)
 72: 0x0230 [0x52] END_LOAD_SCHEDULER: End scheduler "s002" with entities [EventEntity, EventEntity], work=772*
 73: 0x023F [0x52] END_LOAD_SCHEDULER: End scheduler "s008" with entities [EventEntity, EventEntity], work=772*
 74: 0x024E [0x45] LOAD_SCHEDULED_TASK: Load scheduler "s003" with entities [EventEntity, EventEntity], work=[772*, 0*]
 75: 0x025F [0x77] SET_EVENT_TIME_WEATHER(hour=255*, weather=18*)
 76: 0x0264 [0x2B] Iroha (ID: 17969928/0x01123308) [7400*]:
    → "Wait...I recognize that voice."
 77: 0x026B [0x1C] WAIT(90* ticks)
 78: 0x026E [0x2B] Iroha (ID: 17969928/0x01123308) [7401*]:
    → "M-Master!? Could that truly be you?"
 79: 0x0275 [0x23] WAIT_FOR_DIALOG_INTERACTION
 80: 0x0276 [0x01] GOTO 0x0279

SUBROUTINE_0279:
 81: 0x0279 [0x5F] MULTI_HANDLER_COMPLEX(mode=0x07 - Wait scheduler task (OpCode 0x53))
 82: 0x0287 [0x52] END_LOAD_SCHEDULER: End scheduler "s003" with entities [EventEntity, EventEntity], work=772*
 83: 0x0296 [0x45] LOAD_SCHEDULED_TASK: Load scheduler "s004" with entities [EventEntity, EventEntity], work=[772*, 0*]
 84: 0x02A7 [0x5B] LOAD_EXT_SCHEDULER: Load scheduler "tlc0" with entities [Iroha (ID: 17969928/0x01123308), Iroha (ID: 17969928/0x01123308)], work=3863*
 85: 0x02B6 [0x2B] Iroha (ID: 17969928/0x01123308) [7402*]:
    → "Master, do you remember when we returned to the mothercrystal?"
 86: 0x02BD [0x23] WAIT_FOR_DIALOG_INTERACTION
 87: 0x02BE [0x45] LOAD_SCHEDULED_TASK: Load scheduler "fdo1" with entities [EventEntity, EventEntity], work=[200*, 0*]
 88: 0x02CF [0x55] WAIT_LOAD_SCHEDULER: Wait for scheduler "fdo1" with entities [EventEntity, EventEntity], work=200*
 89: 0x02DE [0x52] END_LOAD_SCHEDULER: End scheduler "s004" with entities [EventEntity, EventEntity], work=772*
 90: 0x02ED [0xD0] LOAD_SCHEDULED_TASK_ALT5: Load scheduler "klky" with entities [Iroha (ID: 17969928/0x01123308), Iroha (ID: 17969928/0x01123308)], work=[102*, 0*]
 91: 0x02FE [0x6B] STOP_AND_IDLE: Iroha (ID: 17969928/0x01123308) stops current action and resets to idle (animation="idl0")
 92: 0x0307 [0x2F] Disjoined One (ID: 17969929/0x01123309)->Render.Flags0 &= ~0x80000 // Bit 19
 93: 0x030D [0x4E] SET_ENTITY_HIDE_FLAG: Show Disjoined One (ID: 17969929/0x01123309)
 94: 0x0313 [0x22] ENTITY_HIDE_FLAG(enabled=0x00)
 95: 0x0315 [0x92] Disjoined One (ID: 17969929/0x01123309)->Render.Flags3 ^= 0x01
 96: 0x031B [0x94] Disjoined One (ID: 17969929/0x01123309)->Render.Flags3 ^= 0x01
 97: 0x0321 [0x59] UPDATE_ENTITY_DATA: Disjoined One (ID: 17969929/0x01123309)->Render.Flags0 |= 0x200000
 98: 0x0328 [0x33] EventEntity->Render.Flags0 |= 0x200000 // Bit 21 (flag=0x01)
 99: 0x032A [0x03] Work_Zone[3] = ExtData[1]->WorkLocal[0]
100: 0x032F [0x03] Work_Zone[4] = ExtData[1]->WorkLocal[1]
101: 0x0334 [0x03] Work_Zone[5] = ExtData[1]->WorkLocal[2]
102: 0x0339 [0x03] Work_Zone[6] = ExtData[1]->WorkLocal[3]
103: 0x033E [0x03] Work_Zone[7] = ExtData[1]->WorkLocal[4]
104: 0x0343 [0x03] Work_Zone[8] = ExtData[1]->WorkLocal[5]
105: 0x0348 [0x29] REQ_SET_WAIT(priority=0x05, entity_id=Disjoined One (ID: 17969929/0x01123309), tag_num=0x02)
106: 0x034F [0xBA] SET_ENTITY_POSITION(entity_id=Iroha (ID: 17969928/0x01123308), pos_x=780.886*, pos_z=20.010*, pos_y=68.402*, direction=263.7°*)
107: 0x035C [0xBA] SET_ENTITY_POSITION(entity_id=Disjoined One (ID: 17969929/0x01123309), pos_x=780.098*, pos_z=25.060*, pos_y=69.500*, direction=88.1°*)
108: 0x0369 [0x37] UPDATE_EVENT_POSITION_AND_DIR: x=781.561*, z=16.576*, y=65.000*, direction=78.0°*
109: 0x0372 [0x80] LOAD_WAIT(entity=Iroha (ID: 17969928/0x01123308))
110: 0x0377 [0x80] LOAD_WAIT(entity=Disjoined One (ID: 17969929/0x01123309))
111: 0x037C [0x80] LOAD_WAIT(entity=EventEntity)
112: 0x0381 [0x1C] WAIT(30* ticks)
113: 0x0384 [0x5B] LOAD_EXT_SCHEDULER: Load scheduler "hnd0" with entities [Iroha (ID: 17969928/0x01123308), Iroha (ID: 17969928/0x01123308)], work=3877*
114: 0x0393 [0xD0] LOAD_SCHEDULED_TASK_ALT5: Load scheduler "main" with entities [Iroha (ID: 17969928/0x01123308), Iroha (ID: 17969928/0x01123308)], work=[161*, 0*]
115: 0x03A4 [0xC5] LOAD_SCHEDULED_TASK_ALT3: Load scheduler 0x80016E69 for entities [EventEntity, EventEntity], work=89*, param=24941
116: 0x03B5 [0x1C] WAIT(30* ticks)
117: 0x03B8 [0x81] SET_ENTITY_BLINKING(blink_flag=0x00, entity=Iroha (ID: 17969928/0x01123308))
118: 0x03BE [0x7C] Iroha (ID: 17969928/0x01123308)->Render.Flags2 |= 0x00
119: 0x03C4 [0x27] REQ_SET(priority=0x05, entity_id=Disjoined One (ID: 17969929/0x01123309), tag_num=0x03)
120: 0x03CB [0x45] LOAD_SCHEDULED_TASK: Load scheduler "s005" with entities [EventEntity, EventEntity], work=[772*, 0*]
121: 0x03DC [0x1C] WAIT(15* ticks)
122: 0x03DF [0x45] LOAD_SCHEDULED_TASK: Load scheduler "fdi1" with entities [LocalPlayer, LocalPlayer], work=[200*, 0*]
123: 0x03F0 [0x2B] Iroha (ID: 17969928/0x01123308) [7403*]:
    → "The blessing of Phoenix was with me in full force."
124: 0x03F7 [0x23] WAIT_FOR_DIALOG_INTERACTION
125: 0x03F8 [0x52] END_LOAD_SCHEDULER: End scheduler "s005" with entities [EventEntity, EventEntity], work=772*
126: 0x0407 [0x45] LOAD_SCHEDULED_TASK: Load scheduler "s006" with entities [EventEntity, EventEntity], work=[772*, 0*]
127: 0x0418 [0xD0] LOAD_SCHEDULED_TASK_ALT5: Load scheduler "efon" with entities [Iroha (ID: 17969928/0x01123308), Iroha (ID: 17969928/0x01123308)], work=[154*, 0*]
128: 0x0429 [0xD0] LOAD_SCHEDULED_TASK_ALT5: Load scheduler "seon" with entities [Iroha (ID: 17969928/0x01123308), Iroha (ID: 17969928/0x01123308)], work=[154*, 0*]
129: 0x043A [0x2B] Iroha (ID: 17969928/0x01123308) [7404*]:
    → "And I closed my eyes, pleading her to give you breath once more."
130: 0x0441 [0x23] WAIT_FOR_DIALOG_INTERACTION
131: 0x0442 [0x52] END_LOAD_SCHEDULER: End scheduler "s006" with entities [EventEntity, EventEntity], work=772*
132: 0x0451 [0x45] LOAD_SCHEDULED_TASK: Load scheduler "s007" with entities [EventEntity, EventEntity], work=[772*, 0*]
133: 0x0462 [0x2B] Iroha (ID: 17969928/0x01123308) [7405*]:
    → "But you began to flicker and fade, and my heart sank at the thought of never seeing you again."
134: 0x0469 [0x1C] WAIT(240* ticks)
135: 0x046C [0x45] LOAD_SCHEDULED_TASK: Load scheduler "fdo1" with entities [EventEntity, EventEntity], work=[200*, 0*]
136: 0x047D [0x55] WAIT_LOAD_SCHEDULER: Wait for scheduler "fdo1" with entities [EventEntity, EventEntity], work=200*
137: 0x048C [0x52] END_LOAD_SCHEDULER: End scheduler "s007" with entities [EventEntity, EventEntity], work=772*
138: 0x049B [0x23] WAIT_FOR_DIALOG_INTERACTION
139: 0x049C [0xD0] LOAD_SCHEDULED_TASK_ALT5: Load scheduler "seof" with entities [Iroha (ID: 17969928/0x01123308), Iroha (ID: 17969928/0x01123308)], work=[154*, 0*]
140: 0x04AD [0xC5] LOAD_SCHEDULED_TASK_ALT3: Load scheduler 0x8001616C for entities [EventEntity, EventEntity], work=89*, param=26987
141: 0x04BE [0xD0] LOAD_SCHEDULED_TASK_ALT5: Load scheduler "klal" with entities [Iroha (ID: 17969928/0x01123308), Iroha (ID: 17969928/0x01123308)], work=[161*, 0*]
142: 0x04CF [0xD0] LOAD_SCHEDULED_TASK_ALT5: Load scheduler "efkl" with entities [Iroha (ID: 17969928/0x01123308), Iroha (ID: 17969928/0x01123308)], work=[154*, 0*]
143: 0x04E0 [0x6B] STOP_AND_IDLE: Iroha (ID: 17969928/0x01123308) stops current action and resets to idle (animation="idl0")
144: 0x04E9 [0x6B] STOP_AND_IDLE: Disjoined One (ID: 17969929/0x01123309) stops current action and resets to idle (animation="idl0")
145: 0x04F2 [0x27] REQ_SET(priority=0x05, entity_id=Disjoined One (ID: 17969929/0x01123309), tag_num=0x08)
146: 0x04F9 [0x4E] SET_ENTITY_HIDE_FLAG: Hide Disjoined One (ID: 17969929/0x01123309)
147: 0x04FF [0xBA] SET_ENTITY_POSITION(entity_id=Iroha (ID: 17969928/0x01123308), pos_x=780.886*, pos_z=20.010*, pos_y=68.402*, direction=90.0°*)
148: 0x050C [0x80] LOAD_WAIT(entity=Iroha (ID: 17969928/0x01123308))
149: 0x0511 [0x1C] WAIT(30* ticks)
150: 0x0514 [0xD0] LOAD_SCHEDULED_TASK_ALT5: Load scheduler "kyu0" with entities [Iroha (ID: 17969928/0x01123308), Iroha (ID: 17969928/0x01123308)], work=[102*, 0*]
151: 0x0525 [0x5B] LOAD_EXT_SCHEDULER: Load scheduler "tlc0" with entities [Iroha (ID: 17969928/0x01123308), Iroha (ID: 17969928/0x01123308)], work=3863*
152: 0x0534 [0x1C] WAIT(100* ticks)
153: 0x0537 [0x45] LOAD_SCHEDULED_TASK: Load scheduler "s009" with entities [EventEntity, EventEntity], work=[772*, 0*]
154: 0x0548 [0x1C] WAIT(15* ticks)
155: 0x054B [0x45] LOAD_SCHEDULED_TASK: Load scheduler "fdi1" with entities [LocalPlayer, LocalPlayer], work=[200*, 0*]
156: 0x055C [0x1C] WAIT(30* ticks)
157: 0x055F [0x5B] LOAD_EXT_SCHEDULER: Load scheduler "fe01" with entities [Iroha (ID: 17969928/0x01123308), Iroha (ID: 17969928/0x01123308)], work=3858*
158: 0x056E [0x2B] Iroha (ID: 17969928/0x01123308) [7406*]:
    → "But now, Master... You do my heart good."
159: 0x0575 [0x23] WAIT_FOR_DIALOG_INTERACTION
160: 0x0576 [0x52] END_LOAD_SCHEDULER: End scheduler "s009" with entities [EventEntity, EventEntity], work=772*
161: 0x0585 [0x02] IF !(LocalPlayer->Race == 5*) GOTO 0x05A1
162: 0x058D [0x45] LOAD_SCHEDULED_TASK: Load scheduler "s011" with entities [EventEntity, EventEntity], work=[772*, 0*]
163: 0x059E [0x01] GOTO 0x05CE
164: 0x05A1 [0x02] IF !(LocalPlayer->Race == 6*) GOTO 0x05BD
165: 0x05A9 [0x45] LOAD_SCHEDULED_TASK: Load scheduler "s011" with entities [EventEntity, EventEntity], work=[772*, 0*]
166: 0x05BA [0x01] GOTO 0x05CE
167: 0x05BD [0x45] LOAD_SCHEDULED_TASK: Load scheduler "s010" with entities [EventEntity, EventEntity], work=[772*, 0*]

SUBROUTINE_05CE:
168: 0x05CE [0x78] ENABLE_GAME_TIMER_RESET_WEATHER()
169: 0x05CF [0x27] REQ_SET(priority=0x05, entity_id=LocalPlayer, tag_num=0x0E)
170: 0x05D6 [0x1C] WAIT(80* ticks)
171: 0x05D9 [0xD3] CLEAR_ENTITY_MOTION_QUEUE(condition_flag=0x00, entity_server_id=0x01123308)
172: 0x05DF [0x81] SET_ENTITY_BLINKING(blink_flag=0x01, entity=Iroha (ID: 17969928/0x01123308))
173: 0x05E5 [0x7C] Iroha (ID: 17969928/0x01123308)->Render.Flags2 |= 0x01
174: 0x05EB [0x27] REQ_SET(priority=0x05, entity_id=LocalPlayer, tag_num=0x0F)
175: 0x05F2 [0x1C] WAIT(40* ticks)
176: 0x05F5 [0x52] END_LOAD_SCHEDULER: End scheduler "s010" with entities [EventEntity, EventEntity], work=772*
177: 0x0604 [0x52] END_LOAD_SCHEDULER: End scheduler "s011" with entities [EventEntity, EventEntity], work=772*
178: 0x0613 [0x45] LOAD_SCHEDULED_TASK: Load scheduler "s012" with entities [EventEntity, EventEntity], work=[772*, 0*]
179: 0x0624 [0x77] SET_EVENT_TIME_WEATHER(hour=255*, weather=18*)
180: 0x0629 [0x5B] LOAD_EXT_SCHEDULER: Load scheduler "tlc1" with entities [Iroha (ID: 17969928/0x01123308), Iroha (ID: 17969928/0x01123308)], work=3863*
181: 0x0638 [0x2B] Iroha (ID: 17969928/0x01123308) [7407*]:
    → "Me? You wish to know what I was doing?"
182: 0x063F [0x23] WAIT_FOR_DIALOG_INTERACTION
183: 0x0640 [0x45] LOAD_SCHEDULED_TASK: Load scheduler "fdo1" with entities [EventEntity, EventEntity], work=[200*, 0*]
184: 0x0651 [0x55] WAIT_LOAD_SCHEDULER: Wait for scheduler "fdo1" with entities [EventEntity, EventEntity], work=200*
185: 0x0660 [0x52] END_LOAD_SCHEDULER: End scheduler "s012" with entities [EventEntity, EventEntity], work=772*
186: 0x066F [0xD0] LOAD_SCHEDULED_TASK_ALT5: Load scheduler "klky" with entities [Iroha (ID: 17969928/0x01123308), Iroha (ID: 17969928/0x01123308)], work=[102*, 0*]
187: 0x0680 [0x78] ENABLE_GAME_TIMER_RESET_WEATHER()
188: 0x0681 [0x59] UPDATE_ENTITY_DATA: Iroha (ID: 17969928/0x01123308)->Render.Flags0 &= ~0x200000
189: 0x0688 [0xBA] SET_ENTITY_POSITION(entity_id=Iroha (ID: 17969928/0x01123308), pos_x=180.039*, pos_z=358.982*, pos_y=-91.398*, direction=66.4°*)
190: 0x0695 [0x80] LOAD_WAIT(entity=Iroha (ID: 17969928/0x01123308))
191: 0x069A [0x1C] WAIT(30* ticks)
192: 0x069D [0x81] SET_ENTITY_BLINKING(blink_flag=0x00, entity=Iroha (ID: 17969928/0x01123308))
193: 0x06A3 [0x5B] LOAD_EXT_SCHEDULER: Load scheduler "tae0" with entities [Iroha (ID: 17969928/0x01123308), Iroha (ID: 17969928/0x01123308)], work=3877*
194: 0x06B2 [0x1C] WAIT(30* ticks)
195: 0x06B5 [0x45] LOAD_SCHEDULED_TASK: Load scheduler "s013" with entities [EventEntity, EventEntity], work=[772*, 0*]
196: 0x06C6 [0x1C] WAIT(15* ticks)
197: 0x06C9 [0x45] LOAD_SCHEDULED_TASK: Load scheduler "efon" with entities [LocalPlayer, LocalPlayer], work=[215*, 0*]
198: 0x06DA [0x55] WAIT_LOAD_SCHEDULER: Wait for scheduler "efon" with entities [LocalPlayer, LocalPlayer], work=215*
199: 0x06E9 [0x2B] Iroha (ID: 17969928/0x01123308) [7408*]:
    → "When the light came to my eyes, I was back here...on Reisenjima."
200: 0x06F0 [0x1C] WAIT(120* ticks)
201: 0x06F3 [0x52] END_LOAD_SCHEDULER: End scheduler "s013" with entities [EventEntity, EventEntity], work=772*
202: 0x0702 [0x45] LOAD_SCHEDULED_TASK: Load scheduler "s014" with entities [EventEntity, EventEntity], work=[772*, 0*]
203: 0x0713 [0x1C] WAIT(120* ticks)
204: 0x0716 [0x23] WAIT_FOR_DIALOG_INTERACTION
205: 0x0717 [0x45] LOAD_SCHEDULED_TASK: Load scheduler "fdo1" with entities [EventEntity, EventEntity], work=[200*, 0*]
206: 0x0728 [0x55] WAIT_LOAD_SCHEDULER: Wait for scheduler "fdo1" with entities [EventEntity, EventEntity], work=200*
207: 0x0737 [0x52] END_LOAD_SCHEDULER: End scheduler "s014" with entities [EventEntity, EventEntity], work=772*
208: 0x0746 [0x4E] SET_ENTITY_HIDE_FLAG: Hide LocalPlayer
209: 0x074C [0x6B] STOP_AND_IDLE: Iroha (ID: 17969928/0x01123308) stops current action and resets to idle (animation="idl0")
210: 0x0755 [0xBA] SET_ENTITY_POSITION(entity_id=Iroha (ID: 17969928/0x01123308), pos_x=259.712*, pos_z=70.832*, pos_y=-86.999*, direction=88.8°*)
211: 0x0762 [0x80] LOAD_WAIT(entity=Iroha (ID: 17969928/0x01123308))
212: 0x0767 [0x27] REQ_SET(priority=0x05, entity_id=Iroha (ID: 17969928/0x01123308), tag_num=0x09)
213: 0x076E [0x1C] WAIT(30* ticks)
214: 0x0771 [0x45] LOAD_SCHEDULED_TASK: Load scheduler "s015" with entities [EventEntity, EventEntity], work=[772*, 0*]
215: 0x0782 [0x1C] WAIT(15* ticks)
216: 0x0785 [0x45] LOAD_SCHEDULED_TASK: Load scheduler "efon" with entities [LocalPlayer, LocalPlayer], work=[215*, 0*]
217: 0x0796 [0x55] WAIT_LOAD_SCHEDULER: Wait for scheduler "efon" with entities [LocalPlayer, LocalPlayer], work=215*
218: 0x07A5 [0x7C] Iroha (ID: 17969928/0x01123308)->Render.Flags2 |= 0x00
219: 0x07AB [0x2B] Iroha (ID: 17969928/0x01123308) [7409*]:
    → "Although the time I hail from is only years into the future, not centuries, I can scarce believe how much it has changed. Thank the powers that be that I was able to reach this stone."
220: 0x07B2 [0x1C] WAIT(120* ticks)
221: 0x07B5 [0x52] END_LOAD_SCHEDULER: End scheduler "s015" with entities [EventEntity, EventEntity], work=772*
222: 0x07C4 [0x45] LOAD_SCHEDULED_TASK: Load scheduler "s016" with entities [EventEntity, EventEntity], work=[772*, 0*]
223: 0x07D5 [0x23] WAIT_FOR_DIALOG_INTERACTION
224: 0x07D6 [0x2B] Iroha (ID: 17969928/0x01123308) [7410*]:
    → "I lifted my voice in prayer, and the spirits saw fit to cure me of my ills."
225: 0x07DD [0x23] WAIT_FOR_DIALOG_INTERACTION
226: 0x07DE [0x2A] GET_REQ_LEVEL(level=5, entity_id=Iroha (ID: 17969928/0x01123308))
227: 0x07E4 [0x45] LOAD_SCHEDULED_TASK: Load scheduler "fdo1" with entities [EventEntity, EventEntity], work=[200*, 0*]
228: 0x07F5 [0x55] WAIT_LOAD_SCHEDULER: Wait for scheduler "fdo1" with entities [EventEntity, EventEntity], work=200*
229: 0x0804 [0x52] END_LOAD_SCHEDULER: End scheduler "s016" with entities [EventEntity, EventEntity], work=772*
230: 0x0813 [0x77] SET_EVENT_TIME_WEATHER(hour=255*, weather=18*)
231: 0x0818 [0x2F] Unnamed NPC (ID: 17969953/0x01123321)->Render.Flags0 &= ~0x80000 // Bit 19
232: 0x081E [0x2F] Unnamed NPC (ID: 17969954/0x01123322)->Render.Flags0 &= ~0x80000 // Bit 19
233: 0x0824 [0x2F] Unnamed NPC (ID: 17969952/0x01123320)->Render.Flags0 &= ~0x80000 // Bit 19
234: 0x082A [0x4E] SET_ENTITY_HIDE_FLAG: Show Unnamed NPC (ID: 17969953/0x01123321)
235: 0x0830 [0x4E] SET_ENTITY_HIDE_FLAG: Show Unnamed NPC (ID: 17969954/0x01123322)
236: 0x0836 [0x4E] SET_ENTITY_HIDE_FLAG: Show Unnamed NPC (ID: 17969952/0x01123320)
237: 0x083C [0x4E] SET_ENTITY_HIDE_FLAG: Show LocalPlayer
238: 0x0842 [0x59] UPDATE_ENTITY_DATA: Iroha (ID: 17969928/0x01123308)->Render.Flags0 |= 0x200000
239: 0x0849 [0x59] UPDATE_ENTITY_DATA: Unnamed NPC (ID: 17969953/0x01123321)->Render.Flags0 |= 0x200000
240: 0x0850 [0x59] UPDATE_ENTITY_DATA: Unnamed NPC (ID: 17969954/0x01123322)->Render.Flags0 |= 0x200000
241: 0x0857 [0xBA] SET_ENTITY_POSITION(entity_id=Iroha (ID: 17969928/0x01123308), pos_x=780.886*, pos_z=20.010*, pos_y=68.402*, direction=90.0°*)
242: 0x0864 [0xBA] SET_ENTITY_POSITION(entity_id=Unnamed NPC (ID: 17969953/0x01123321), pos_x=74.657*, pos_z=589.806*, pos_y=-80.076*, direction=277.7°*)
243: 0x0871 [0xBA] SET_ENTITY_POSITION(entity_id=Unnamed NPC (ID: 17969954/0x01123322), pos_x=82.314*, pos_z=590.176*, pos_y=-79.710*, direction=188.9°*)
244: 0x087E [0xBA] SET_ENTITY_POSITION(entity_id=Unnamed NPC (ID: 17969952/0x01123320), pos_x=78.770*, pos_z=575.606*, pos_y=-79.332*, direction=24.2°*)
245: 0x088B [0x80] LOAD_WAIT(entity=Iroha (ID: 17969928/0x01123308))
246: 0x0890 [0x80] LOAD_WAIT(entity=Unnamed NPC (ID: 17969953/0x01123321))
247: 0x0895 [0x80] LOAD_WAIT(entity=Unnamed NPC (ID: 17969954/0x01123322))
248: 0x089A [0x80] LOAD_WAIT(entity=Unnamed NPC (ID: 17969952/0x01123320))
249: 0x089F [0x1C] WAIT(30* ticks)
250: 0x08A2 [0xD0] LOAD_SCHEDULED_TASK_ALT5: Load scheduler "kyu0" with entities [Iroha (ID: 17969928/0x01123308), Iroha (ID: 17969928/0x01123308)], work=[102*, 0*]
251: 0x08B3 [0x1C] WAIT(30* ticks)
252: 0x08B6 [0x7C] Iroha (ID: 17969928/0x01123308)->Render.Flags2 |= 0x01
253: 0x08BC [0x45] LOAD_SCHEDULED_TASK: Load scheduler "s017" with entities [EventEntity, EventEntity], work=[772*, 0*]
254: 0x08CD [0x1C] WAIT(15* ticks)
255: 0x08D0 [0x45] LOAD_SCHEDULED_TASK: Load scheduler "fdi1" with entities [LocalPlayer, LocalPlayer], work=[200*, 0*]
256: 0x08E1 [0x5B] LOAD_EXT_SCHEDULER: Load scheduler "tlb0" with entities [Iroha (ID: 17969928/0x01123308), Iroha (ID: 17969928/0x01123308)], work=3861*
257: 0x08F0 [0x2B] Iroha (ID: 17969928/0x01123308) [7411*]:
    → "I know not whether it was the protection of the Goddess, but I found myself with corporeal form yet again."
258: 0x08F7 [0x23] WAIT_FOR_DIALOG_INTERACTION
259: 0x08F8 [0x5B] LOAD_EXT_SCHEDULER: Load scheduler "tlb1" with entities [Iroha (ID: 17969928/0x01123308), Iroha (ID: 17969928/0x01123308)], work=3861*
260: 0x0907 [0x52] END_LOAD_SCHEDULER: End scheduler "s017" with entities [EventEntity, EventEntity], work=772*
261: 0x0916 [0x45] LOAD_SCHEDULED_TASK: Load scheduler "s018" with entities [EventEntity, EventEntity], work=[772*, 0*]
262: 0x0927 [0x78] ENABLE_GAME_TIMER_RESET_WEATHER()
263: 0x0928 [0x24] CREATE_DIALOG(message_id=7412*, default_option=0*, option_flags=0*)
    → "How do you respond? [Weren't you attacked on the way?/Are you sure you're well?/I'll take things from here!]"
264: 0x092F [0x25] WAIT_DIALOG_SELECT()
265: 0x0930 [0x02] IF !(Work_Zone[0] == 0*) GOTO 0x09CC
266: 0x0938 [0x6E] LocalPlayer uses emote 22*
267: 0x093F [0x99] Wait for LocalPlayer animation to complete
268: 0x0944 [0x1C] WAIT(90* ticks)
269: 0x0947 [0x27] REQ_SET(priority=0x05, entity_id=Unnamed NPC (ID: 17969954/0x01123322), tag_num=0x06)
270: 0x094E [0x52] END_LOAD_SCHEDULER: End scheduler "s018" with entities [EventEntity, EventEntity], work=772*
271: 0x095D [0x45] LOAD_SCHEDULED_TASK: Load scheduler "s023" with entities [EventEntity, EventEntity], work=[772*, 0*]
272: 0x096E [0x2B] Iroha (ID: 17969928/0x01123308) [7413*]:
    → "Master--then I was not the only one?"
273: 0x0975 [0x23] WAIT_FOR_DIALOG_INTERACTION
274: 0x0976 [0x2B] Iroha (ID: 17969928/0x01123308) [7414*]:
    → "This island is a sacred one. To see it besieged by such vile forces makes my blood boil."
275: 0x097D [0x23] WAIT_FOR_DIALOG_INTERACTION
276: 0x097E [0x52] END_LOAD_SCHEDULER: End scheduler "s023" with entities [EventEntity, EventEntity], work=772*
277: 0x098D [0x45] LOAD_SCHEDULED_TASK: Load scheduler "s019" with entities [EventEntity, EventEntity], work=[772*, 0*]
278: 0x099E [0x77] SET_EVENT_TIME_WEATHER(hour=255*, weather=18*)
279: 0x09A3 [0x5B] LOAD_EXT_SCHEDULER: Load scheduler "tlc0" with entities [Iroha (ID: 17969928/0x01123308), Iroha (ID: 17969928/0x01123308)], work=3861*
280: 0x09B2 [0x2B] Iroha (ID: 17969928/0x01123308) [7415*]:
    → "Forgive me for being brash, but I would ask for your aid in dealing with them."
281: 0x09B9 [0x23] WAIT_FOR_DIALOG_INTERACTION
282: 0x09BA [0x52] END_LOAD_SCHEDULER: End scheduler "s019" with entities [EventEntity, EventEntity], work=772*
283: 0x09C9 [0x01] GOTO 0x0ACA
284: 0x09CC [0x02] IF !(Work_Zone[0] == 1*) GOTO 0x0A5D
285: 0x09D4 [0x6E] LocalPlayer uses emote 22*
286: 0x09DB [0x99] Wait for LocalPlayer animation to complete
287: 0x09E0 [0x1C] WAIT(90* ticks)
288: 0x09E3 [0x52] END_LOAD_SCHEDULER: End scheduler "s018" with entities [EventEntity, EventEntity], work=772*
289: 0x09F2 [0x45] LOAD_SCHEDULED_TASK: Load scheduler "s019" with entities [EventEntity, EventEntity], work=[772*, 0*]
290: 0x0A03 [0x77] SET_EVENT_TIME_WEATHER(hour=255*, weather=18*)
291: 0x0A08 [0x5B] LOAD_EXT_SCHEDULER: Load scheduler "som0" with entities [Iroha (ID: 17969928/0x01123308), Iroha (ID: 17969928/0x01123308)], work=3859*
292: 0x0A17 [0x2B] Iroha (ID: 17969928/0x01123308) [7416*]:
    → "I must confess that I am drained in both body and spirit."
293: 0x0A1E [0x1C] WAIT(100* ticks)
294: 0x0A21 [0x23] WAIT_FOR_DIALOG_INTERACTION
295: 0x0A22 [0x5B] LOAD_EXT_SCHEDULER: Load scheduler "som1" with entities [Iroha (ID: 17969928/0x01123308), Iroha (ID: 17969928/0x01123308)], work=3859*
296: 0x0A31 [0x2B] Iroha (ID: 17969928/0x01123308) [7417*]:
    → "That is why I must beseech your aid in visiting a particular location on this island."
297: 0x0A38 [0x1C] WAIT(130* ticks)
298: 0x0A3B [0x23] WAIT_FOR_DIALOG_INTERACTION
299: 0x0A3C [0x5B] LOAD_EXT_SCHEDULER: Load scheduler "tlc0" with entities [Iroha (ID: 17969928/0x01123308), Iroha (ID: 17969928/0x01123308)], work=3861*
300: 0x0A4B [0x52] END_LOAD_SCHEDULER: End scheduler "s019" with entities [EventEntity, EventEntity], work=772*
301: 0x0A5A [0x01] GOTO 0x0ACA
302: 0x0A5D [0x02] IF !(Work_Zone[0] == 2*) GOTO 0x0ACA
303: 0x0A65 [0x6E] LocalPlayer uses emote 36*
304: 0x0A6C [0x99] Wait for LocalPlayer animation to complete
305: 0x0A71 [0x1C] WAIT(90* ticks)
306: 0x0A74 [0x52] END_LOAD_SCHEDULER: End scheduler "s018" with entities [EventEntity, EventEntity], work=772*
307: 0x0A83 [0x45] LOAD_SCHEDULED_TASK: Load scheduler "s019" with entities [EventEntity, EventEntity], work=[772*, 0*]
308: 0x0A94 [0x77] SET_EVENT_TIME_WEATHER(hour=255*, weather=18*)
309: 0x0A99 [0x5B] LOAD_EXT_SCHEDULER: Load scheduler "tlc0" with entities [Iroha (ID: 17969928/0x01123308), Iroha (ID: 17969928/0x01123308)], work=3861*
310: 0x0AA8 [0x2B] Iroha (ID: 17969928/0x01123308) [7418*]:
    → "Master, never let anyone doubt that you remain a stalwart hero."
311: 0x0AAF [0x23] WAIT_FOR_DIALOG_INTERACTION
312: 0x0AB0 [0x2B] Iroha (ID: 17969928/0x01123308) [7419*]:
    → "If I may be so bold, please lend me your aid with a small task on this island."
313: 0x0AB7 [0x23] WAIT_FOR_DIALOG_INTERACTION
314: 0x0AB8 [0x52] END_LOAD_SCHEDULER: End scheduler "s019" with entities [EventEntity, EventEntity], work=772*
315: 0x0AC7 [0x01] GOTO 0x0ACA

SUBROUTINE_0ACA:
316: 0x0ACA [0x45] LOAD_SCHEDULED_TASK: Load scheduler "s020" with entities [EventEntity, EventEntity], work=[772*, 0*]
317: 0x0ADB [0x27] REQ_SET(priority=0x05, entity_id=Unnamed NPC (ID: 17969953/0x01123321), tag_num=0x04)
318: 0x0AE2 [0x27] REQ_SET(priority=0x05, entity_id=Unnamed NPC (ID: 17969954/0x01123322), tag_num=0x08)
319: 0x0AE9 [0x27] REQ_SET(priority=0x05, entity_id=Unnamed NPC (ID: 17969952/0x01123320), tag_num=0x04)
320: 0x0AF0 [0xBA] SET_ENTITY_POSITION(entity_id=Unnamed NPC (ID: 17969954/0x01123322), pos_x=260.572*, pos_z=116.357*, pos_y=-84.999*, direction=273.8°*)
321: 0x0AFD [0xBA] SET_ENTITY_POSITION(entity_id=Unnamed NPC (ID: 17969953/0x01123321), pos_x=261.785*, pos_z=125.258*, pos_y=-83.436*, direction=212.4°*)
322: 0x0B0A [0xBA] SET_ENTITY_POSITION(entity_id=Unnamed NPC (ID: 17969952/0x01123320), pos_x=257.476*, pos_z=132.750*, pos_y=-83.649*, direction=89.1°*)
323: 0x0B17 [0x2B] Iroha (ID: 17969928/0x01123308) [7420*]:
    → "I have not the freedom to move from the immediate vicinity."
324: 0x0B1E [0x23] WAIT_FOR_DIALOG_INTERACTION
325: 0x0B1F [0x2B] Iroha (ID: 17969928/0x01123308) [7421*]:
    → "It is all I can do to erect a magicked barrier to prevent the beasts crawling Reisenjima from approaching this location."
326: 0x0B26 [0x23] WAIT_FOR_DIALOG_INTERACTION
327: 0x0B27 [0x5B] LOAD_EXT_SCHEDULER: Load scheduler "tlc1" with entities [Iroha (ID: 17969928/0x01123308), Iroha (ID: 17969928/0x01123308)], work=3861*
328: 0x0B36 [0x27] REQ_SET(priority=0x05, entity_id=Unnamed NPC (ID: 17969953/0x01123321), tag_num=0x06)
329: 0x0B3D [0x52] END_LOAD_SCHEDULER: End scheduler "s020" with entities [EventEntity, EventEntity], work=772*
330: 0x0B4C [0x45] LOAD_SCHEDULED_TASK: Load scheduler "s024" with entities [EventEntity, EventEntity], work=[772*, 0*]
331: 0x0B5D [0x2B] Iroha (ID: 17969928/0x01123308) [7422*]:
    → "The narakas prowling the sacred forests would seize even the smallest chance to destroy this stone wall."
332: 0x0B64 [0x1C] WAIT(60* ticks)
333: 0x0B67 [0x27] REQ_SET(priority=0x05, entity_id=Unnamed NPC (ID: 17969954/0x01123322), tag_num=0x07)
334: 0x0B6E [0x23] WAIT_FOR_DIALOG_INTERACTION
335: 0x0B6F [0x52] END_LOAD_SCHEDULER: End scheduler "s024" with entities [EventEntity, EventEntity], work=772*
336: 0x0B7E [0x45] LOAD_SCHEDULED_TASK: Load scheduler "s021" with entities [EventEntity, EventEntity], work=[772*, 0*]
337: 0x0B8F [0x5B] LOAD_EXT_SCHEDULER: Load scheduler "tlb0" with entities [Iroha (ID: 17969928/0x01123308), Iroha (ID: 17969928/0x01123308)], work=3861*
338: 0x0B9E [0x2B] Iroha (ID: 17969928/0x01123308) [7423*]:
    → "Master, I understand that your journey has left you weary, but your assistance would be a great boon."
339: 0x0BA5 [0x23] WAIT_FOR_DIALOG_INTERACTION
340: 0x0BA6 [0x2B] Iroha (ID: 17969928/0x01123308) [7424*]:
    → "Please, lend sword and spell to vanquish the narakas that threaten to overrun me."
341: 0x0BAD [0x23] WAIT_FOR_DIALOG_INTERACTION
342: 0x0BAE [0x52] END_LOAD_SCHEDULER: End scheduler "s021" with entities [EventEntity, EventEntity], work=772*
343: 0x0BBD [0x45] LOAD_SCHEDULED_TASK: Load scheduler "s022" with entities [EventEntity, EventEntity], work=[772*, 0*]
344: 0x0BCE [0x2B] Iroha (ID: 17969928/0x01123308) [7425*]:
    → "I would lend my glaive if I could...but Master, let me ask this one boon of you."
345: 0x0BD5 [0x23] WAIT_FOR_DIALOG_INTERACTION
346: 0x0BD6 [0x45] LOAD_SCHEDULED_TASK: Load scheduler "fdo1" with entities [LocalPlayer, LocalPlayer], work=[200*, 0*]
347: 0x0BE7 [0x55] WAIT_LOAD_SCHEDULER: Wait for scheduler "fdo1" with entities [LocalPlayer, LocalPlayer], work=200*
348: 0x0BF6 [0x52] END_LOAD_SCHEDULER: End scheduler "s022" with entities [EventEntity, EventEntity], work=772*
349: 0x0C05 [0x7A] VM_CONTROL: Reset VM for Unnamed NPC (ID: 17969953/0x01123321)
350: 0x0C0B [0x7A] VM_CONTROL: Reset VM for Unnamed NPC (ID: 17969954/0x01123322)
351: 0x0C11 [0x29] REQ_SET_WAIT(priority=0x05, entity_id=Unnamed NPC (ID: 17969953/0x01123321), tag_num=0x05)
352: 0x0C18 [0x29] REQ_SET_WAIT(priority=0x05, entity_id=Unnamed NPC (ID: 17969954/0x01123322), tag_num=0x04)
353: 0x0C1F [0x29] REQ_SET_WAIT(priority=0x05, entity_id=Unnamed NPC (ID: 17969952/0x01123320), tag_num=0x05)
354: 0x0C26 [0x78] ENABLE_GAME_TIMER_RESET_WEATHER()
355: 0x0C27 [0xD0] LOAD_SCHEDULED_TASK_ALT5: Load scheduler "klky" with entities [Iroha (ID: 17969928/0x01123308), Iroha (ID: 17969928/0x01123308)], work=[102*, 0*]
356: 0x0C38 [0x1C] WAIT(60* ticks)
357: 0x0C3B [0x46] CAMERA_CONTROL: Restore default settings
358: 0x0C3D [0x45] LOAD_SCHEDULED_TASK: Load scheduler "fdi2" with entities [LocalPlayer, LocalPlayer], work=[200*, 0*]
359: 0x0C4E [0x21] END_EVENT
360: 0x0C4F [0x00] END_REQSTACK()
```

### Event 3

#### Metadata

| Field        | Value     |
|--------------|-----------|
| Entrypoint   | 0x0C50    |
| Data Size    | 321 bytes |
| Instructions | 34        |

```
      00 01 02 03 04 05 06 07  08 09 0A 0B 0C 0D 0E 0F
      -- -- -- -- -- -- -- --  -- -- -- -- -- -- -- --
0C50: 42 03 08 00 02 10 45 00  80 F8 FF FF 7F F8 FF FF  B.....E.........
0C60: 7F 66 64 6F 31 01 80 55  00 80 F8 FF FF 7F F8 FF  .fdo1..U........
0C70: FF 7F 66 64 6F 31 46 01  38 02 80 2F 00 08 33 12  ..fdo1F.8../..3.
0C80: 01 BA F0 FF FF 7F 07 80  08 80 09 80 0A 80 80 F0  ................
0C90: FF FF 7F 45 73 80 F8 FF  FF 7F F8 FF FF 7F 73 30  ...Es.........s0
0CA0: 38 30 01 80 1C 0F 80 45  00 80 F0 FF FF 7F F0 FF  80.....E........
0CB0: FF 7F 66 64 69 31 01 80  1C 0B 80 2B 08 33 12 01  ..fdi1.....+.3..
0CC0: 74 80 23 52 73 80 F8 FF  FF 7F F8 FF FF 7F 73 30  t.#Rs.........s0
0CD0: 38 30 45 73 80 F8 FF FF  7F F8 FF FF 7F 73 30 38  80Es.........s08
0CE0: 31 01 80 D0 75 80 F8 FF  FF 7F F8 FF FF 7F 6D 61  1...u.........ma
0CF0: 69 6E 01 80 1C 76 80 52  73 80 F8 FF FF 7F F8 FF  in...v.Rs.......
0D00: FF 7F 73 30 38 31 45 73  80 F8 FF FF 7F F8 FF FF  ..s081Es........
0D10: 7F 73 30 38 32 01 80 D0  77 80 F0 FF FF 7F F0 FF  .s082...w.......
0D20: FF 7F 73 30 30 30 01 80  1C 78 80 92 01 F0 FF FF  ..s000...x......
0D30: 7F 1C 79 80 45 00 80 F0  FF FF 7F F0 FF FF 7F 66  ..y.E..........f
0D40: 64 6F 31 01 80 55 00 80  F0 FF FF 7F F0 FF FF 7F  do1..U..........
0D50: 66 64 6F 31 52 73 80 F8  FF FF 7F F8 FF FF 7F 73  fdo1Rs.........s
0D60: 30 38 32 46 00 02 08 00  1E 80 00 8F 0D D0 77 80  082F..........w.
0D70: F0 FF FF 7F F0 FF FF 7F  61 31 32 38 01 80 45 00  ........a128..E.
0D80: 80 F0 FF FF 7F F0 FF FF  7F 66 64 69 32 01 80 21  .........fdi2..!
0D90: 00                                                .               
```

#### Opcodes

```
  0: 0x0C50 [0x42] SET_CLI_EVENT_CANCEL_DATA()
  1: 0x0C51 [0x03] ExtData[1]->WorkLocal[8] = Work_Zone[2]
  2: 0x0C56 [0x45] LOAD_SCHEDULED_TASK: Load scheduler "fdo1" with entities [EventEntity, EventEntity], work=[200*, 0*]
  3: 0x0C67 [0x55] WAIT_LOAD_SCHEDULER: Wait for scheduler "fdo1" with entities [EventEntity, EventEntity], work=200*
  4: 0x0C76 [0x46] CAMERA_CONTROL: Disable user control
  5: 0x0C78 [0x38] SET_CLIENT_EVENT_MODE(mode=27*)
  6: 0x0C7B [0x2F] Iroha (ID: 17969928/0x01123308)->Render.Flags0 &= ~0x80000 // Bit 19
  7: 0x0C81 [0xBA] SET_ENTITY_POSITION(entity_id=LocalPlayer, pos_x=259.749*, pos_z=57.070*, pos_y=-87.249*, direction=89.2°*)
  8: 0x0C8E [0x80] LOAD_WAIT(entity=LocalPlayer)
  9: 0x0C93 [0x45] LOAD_SCHEDULED_TASK: Load scheduler "s080" with entities [EventEntity, EventEntity], work=[769*, 0*]
 10: 0x0CA4 [0x1C] WAIT(15* ticks)
 11: 0x0CA7 [0x45] LOAD_SCHEDULED_TASK: Load scheduler "fdi1" with entities [LocalPlayer, LocalPlayer], work=[200*, 0*]
 12: 0x0CB8 [0x1C] WAIT(30* ticks)
 13: 0x0CBB [0x2B] Iroha (ID: 17969928/0x01123308) [7427*]:
    → "Master! Wait!"
 14: 0x0CC2 [0x23] WAIT_FOR_DIALOG_INTERACTION
 15: 0x0CC3 [0x52] END_LOAD_SCHEDULER: End scheduler "s080" with entities [EventEntity, EventEntity], work=769*
 16: 0x0CD2 [0x45] LOAD_SCHEDULED_TASK: Load scheduler "s081" with entities [EventEntity, EventEntity], work=[769*, 0*]
 17: 0x0CE3 [0xD0] LOAD_SCHEDULED_TASK_ALT5: Load scheduler "main" with entities [EventEntity, EventEntity], work=[175*, 0*]
 18: 0x0CF4 [0x1C] WAIT(180* ticks)
 19: 0x0CF7 [0x52] END_LOAD_SCHEDULER: End scheduler "s081" with entities [EventEntity, EventEntity], work=769*
 20: 0x0D06 [0x45] LOAD_SCHEDULED_TASK: Load scheduler "s082" with entities [EventEntity, EventEntity], work=[769*, 0*]
 21: 0x0D17 [0xD0] LOAD_SCHEDULED_TASK_ALT5: Load scheduler "s000" with entities [LocalPlayer, LocalPlayer], work=[173*, 0*]
 22: 0x0D28 [0x1C] WAIT(70* ticks)
 23: 0x0D2B [0x92] LocalPlayer->Render.Flags3 ^= 0x01
 24: 0x0D31 [0x1C] WAIT(20* ticks)
 25: 0x0D34 [0x45] LOAD_SCHEDULED_TASK: Load scheduler "fdo1" with entities [LocalPlayer, LocalPlayer], work=[200*, 0*]
 26: 0x0D45 [0x55] WAIT_LOAD_SCHEDULER: Wait for scheduler "fdo1" with entities [LocalPlayer, LocalPlayer], work=200*
 27: 0x0D54 [0x52] END_LOAD_SCHEDULER: End scheduler "s082" with entities [EventEntity, EventEntity], work=769*
 28: 0x0D63 [0x46] CAMERA_CONTROL: Restore default settings
 29: 0x0D65 [0x02] IF !(ExtData[1]->WorkLocal[8] == 1*) GOTO 0x0D8F
 30: 0x0D6D [0xD0] LOAD_SCHEDULED_TASK_ALT5: Load scheduler "a128" with entities [LocalPlayer, LocalPlayer], work=[173*, 0*]
 31: 0x0D7E [0x45] LOAD_SCHEDULED_TASK: Load scheduler "fdi2" with entities [LocalPlayer, LocalPlayer], work=[200*, 0*]
 32: 0x0D8F [0x21] END_EVENT
 33: 0x0D90 [0x00] END_REQSTACK()
```

### Event 6

#### Metadata

| Field        | Value      |
|--------------|------------|
| Entrypoint   | 0x0D91     |
| Data Size    | 2213 bytes |
| Instructions | 251        |

```
      00 01 02 03 04 05 06 07  08 09 0A 0B 0C 0D 0E 0F
      -- -- -- -- -- -- -- --  -- -- -- -- -- -- -- --
0D90:    42 5D 01 80 3F 80 45  00 80 F8 FF FF 7F F8 FF   B]..?.E........
0DA0: FF 7F 66 64 6F 31 01 80  55 00 80 F8 FF FF 7F F8  ..fdo1..U.......
0DB0: FF FF 7F 66 64 6F 31 46  01 38 02 80 2F 00 0B 33  ...fdo1F.8../..3
0DC0: 12 01 2F 00 1B 33 12 01  2F 00 11 33 12 01 4E 00  ../..3../..3..N.
0DD0: 0B 33 12 01 4E 00 1B 33  12 01 4E 00 11 33 12 01  .3..N..3..N..3..
0DE0: 92 01 0B 33 12 01 92 01  1B 33 12 01 92 01 11 33  ...3.....3.....3
0DF0: 12 01 94 01 0B 33 12 01  94 01 1B 33 12 01 94 01  .....3.....3....
0E00: 11 33 12 01 BA F0 FF FF  7F 7A 80 7B 80 7C 80 7D  .3.......z.{.|.}
0E10: 80 BA 0B 33 12 01 7E 80  7F 80 80 80 81 80 BA 1B  ...3..~.........
0E20: 33 12 01 82 80 83 80 84  80 85 80 BA 11 33 12 01  3............3..
0E30: 86 80 87 80 88 80 89 80  80 F0 FF FF 7F 80 0B 33  ...............3
0E40: 12 01 80 1B 33 12 01 80  11 33 12 01 4A F0 FF FF  ....3....3..J...
0E50: 7F 0B 33 12 01 1C 0B 80  5B 8A 80 11 33 12 01 11  ..3.....[...3...
0E60: 33 12 01 74 68 6B 31 5C  00 01 80 5C 01 01 80 9A  3..thk1\...\....
0E70: 27 05 0B 33 12 01 0B 27  05 1B 33 12 01 0C 45 8B  '..3...'..3...E.
0E80: 80 F8 FF FF 7F F8 FF FF  7F 73 30 32 35 01 80 1C  .........s025...
0E90: 0F 80 45 00 80 F0 FF FF  7F F0 FF FF 7F 66 64 69  ..E..........fdi
0EA0: 31 01 80 1C 0B 80 2B 0B  33 12 01 8C 80 23 2A 05  1.....+.3....#*.
0EB0: 0B 33 12 01 52 8B 80 F8  FF FF 7F F8 FF FF 7F 73  .3..R..........s
0EC0: 30 32 35 45 8B 80 F8 FF  FF 7F F8 FF FF 7F 73 30  025E..........s0
0ED0: 32 36 01 80 5B 8D 80 0B  33 12 01 0B 33 12 01 74  26..[...3...3..t
0EE0: 6C 62 30 2B 0B 33 12 01  8E 80 23 2B 0B 33 12 01  lb0+.3....#+.3..
0EF0: 8F 80 23 5B 8D 80 0B 33  12 01 0B 33 12 01 74 6C  ..#[...3...3..tl
0F00: 62 31 52 8B 80 F8 FF FF  7F F8 FF FF 7F 73 30 32  b1R..........s02
0F10: 36 45 8B 80 F8 FF FF 7F  F8 FF FF 7F 73 30 32 37  6E..........s027
0F20: 01 80 79 00 1B 33 12 01  0B 33 12 01 2B 1B 33 12  ..y..3...3..+.3.
0F30: 01 90 80 23 2A 05 1B 33  12 01 52 8B 80 F8 FF FF  ...#*..3..R.....
0F40: 7F F8 FF FF 7F 73 30 32  37 45 8B 80 F8 FF FF 7F  .....s027E......
0F50: F8 FF FF 7F 73 30 32 38  01 80 4A 1B 33 12 01 11  ....s028..J.3...
0F60: 33 12 01 1C 0B 80 4A 0B  33 12 01 11 33 12 01 2B  3.....J.3...3..+
0F70: 1B 33 12 01 91 80 23 52  8B 80 F8 FF FF 7F F8 FF  .3....#R........
0F80: FF 7F 73 30 32 38 45 8B  80 F8 FF FF 7F F8 FF FF  ..s028E.........
0F90: 7F 73 30 32 39 01 80 2B  11 33 12 01 92 80 23 52  .s029..+.3....#R
0FA0: 8B 80 F8 FF FF 7F F8 FF  FF 7F 73 30 32 39 45 8B  ..........s029E.
0FB0: 80 F8 FF FF 7F F8 FF FF  7F 73 30 33 30 01 80 5B  .........s030..[
0FC0: 93 80 1B 33 12 01 1B 33  12 01 74 6C 6B 30 2B 1B  ...3...3..tlk0+.
0FD0: 33 12 01 94 80 23 5B 93  80 1B 33 12 01 1B 33 12  3....#[...3...3.
0FE0: 01 74 6C 6B 31 52 8B 80  F8 FF FF 7F F8 FF FF 7F  .tlk1R..........
0FF0: 73 30 33 30 45 8B 80 F8  FF FF 7F F8 FF FF 7F 73  s030E..........s
1000: 30 33 31 01 80 4B 0B 33  12 01 95 80 6F 76 0B 33  031..K.3....ov.3
1010: 12 01 5B 8D 80 0B 33 12  01 0B 33 12 01 74 6C 62  ..[...3...3..tlb
1020: 30 2B 0B 33 12 01 96 80  23 5B 8D 80 0B 33 12 01  0+.3....#[...3..
1030: 0B 33 12 01 74 6C 62 31  45 00 80 F0 FF FF 7F F0  .3..tlb1E.......
1040: FF FF 7F 66 64 6F 31 01  80 55 00 80 F0 FF FF 7F  ...fdo1..U......
1050: F0 FF FF 7F 66 64 6F 31  52 8B 80 F8 FF FF 7F F8  ....fdo1R.......
1060: FF FF 7F 73 30 33 31 6B  69 64 6C 30 11 33 12 01  ...s031kidl0.3..
1070: 7B 0B 33 12 01 BA 11 33  12 01 97 80 98 80 99 80  {.3....3........
1080: 9A 80 BA 1B 33 12 01 9B  80 9C 80 9D 80 9A 80 80  ....3...........
1090: 11 33 12 01 80 1B 33 12  01 4A 11 33 12 01 F0 FF  .3....3..J.3....
10A0: FF 7F 79 00 11 33 12 01  0B 33 12 01 4A 1B 33 12  ..y..3...3..J.3.
10B0: 01 F0 FF FF 7F 1C 6F 80  48 9E 80 1C 6F 80 5C 00  ......o.H...o.\.
10C0: 9F 80 5C 01 9F 80 9A 45  8B 80 F8 FF FF 7F F8 FF  ..\....E........
10D0: FF 7F 73 30 33 32 01 80  1C 0F 80 45 00 80 F0 FF  ..s032.....E....
10E0: FF 7F F0 FF FF 7F 66 64  69 31 01 80 5B 8D 80 0B  ......fdi1..[...
10F0: 33 12 01 0B 33 12 01 74  68 6B 30 2B 0B 33 12 01  3...3..thk0+.3..
1100: A0 80 23 5B 93 80 1B 33  12 01 1B 33 12 01 74 68  ..#[...3...3..th
1110: 6B 30 2B 1B 33 12 01 A1  80 23 52 8B 80 F8 FF FF  k0+.3....#R.....
1120: 7F F8 FF FF 7F 73 30 33  32 45 8B 80 F8 FF FF 7F  .....s032E......
1130: F8 FF FF 7F 73 30 33 33  01 80 5B 8A 80 11 33 12  ....s033..[...3.
1140: 01 11 33 12 01 74 6C 6B  30 2B 11 33 12 01 A2 80  ..3..tlk0+.3....
1150: 23 2B 11 33 12 01 A3 80  23 5B 8A 80 11 33 12 01  #+.3....#[...3..
1160: 11 33 12 01 74 6C 6B 31  52 8B 80 F8 FF FF 7F F8  .3..tlk1R.......
1170: FF FF 7F 73 30 33 33 45  8B 80 F8 FF FF 7F F8 FF  ...s033E........
1180: FF 7F 73 30 33 34 01 80  5B 8D 80 0B 33 12 01 0B  ..s034..[...3...
1190: 33 12 01 74 68 6B 31 2B  0B 33 12 01 A4 80 23 79  3..thk1+.3....#y
11A0: 00 11 33 12 01 F0 FF FF  7F 27 05 F0 FF FF 7F 0E  ..3......'......
11B0: 1C 10 80 27 05 F0 FF FF  7F 0F 1C 11 80 52 8B 80  ...'.........R..
11C0: F8 FF FF 7F F8 FF FF 7F  73 30 33 34 45 8B 80 F8  ........s034E...
11D0: FF FF 7F F8 FF FF 7F 73  30 33 35 01 80 2B 0B 33  .......s035..+.3
11E0: 12 01 A5 80 23 55 8B 80  F8 FF FF 7F F8 FF FF 7F  ....#U..........
11F0: 73 30 33 35 45 8B 80 F8  FF FF 7F F8 FF FF 7F 73  s035E..........s
1200: 30 33 36 01 80 5B 93 80  1B 33 12 01 1B 33 12 01  036..[...3...3..
1210: 74 68 6B 31 2B 1B 33 12  01 A6 80 23 24 A7 80 01  thk1+.3....#$...
1220: 80 01 80 25 02 00 10 01  80 00 F0 12 52 8B 80 F8  ...%........R...
1230: FF FF 7F F8 FF FF 7F 73  30 33 36 45 8B 80 F8 FF  .......s036E....
1240: FF 7F F8 FF FF 7F 73 30  33 37 01 80 5B A8 80 0B  ......s037..[...
1250: 33 12 01 0B 33 12 01 73  72 61 30 2B 0B 33 12 01  3...3..sra0+.3..
1260: A9 80 23 5B 93 80 1B 33  12 01 1B 33 12 01 74 6C  ..#[...3...3..tl
1270: 6B 30 2B 1B 33 12 01 AA  80 23 5B 93 80 1B 33 12  k0+.3....#[...3.
1280: 01 1B 33 12 01 74 6C 6B  31 5B A8 80 0B 33 12 01  ..3..tlk1[...3..
1290: 0B 33 12 01 73 72 61 31  52 8B 80 F8 FF FF 7F F8  .3..sra1R.......
12A0: FF FF 7F 73 30 33 37 45  8B 80 F8 FF FF 7F F8 FF  ...s037E........
12B0: FF 7F 73 30 33 38 01 80  5B 8A 80 11 33 12 01 11  ..s038..[...3...
12C0: 33 12 01 74 6C 6B 30 2B  11 33 12 01 AB 80 23 5B  3..tlk0+.3....#[
12D0: 8A 80 11 33 12 01 11 33  12 01 74 6C 6B 31 52 8B  ...3...3..tlk1R.
12E0: 80 F8 FF FF 7F F8 FF FF  7F 73 30 33 38 01 E0 13  .........s038...
12F0: 02 00 10 1E 80 00 9E 13  52 8B 80 F8 FF FF 7F F8  ........R.......
1300: FF FF 7F 73 30 33 36 45  8B 80 F8 FF FF 7F F8 FF  ...s036E........
1310: FF 7F 73 30 33 39 01 80  2B 1B 33 12 01 AC 80 23  ..s039..+.3....#
1320: 52 8B 80 F8 FF FF 7F F8  FF FF 7F 73 30 33 39 45  R..........s039E
1330: 8B 80 F8 FF FF 7F F8 FF  FF 7F 73 30 34 30 01 80  ..........s040..
1340: 5B 8D 80 0B 33 12 01 0B  33 12 01 74 6C 62 30 2B  [...3...3..tlb0+
1350: 0B 33 12 01 AD 80 23 5B  8D 80 0B 33 12 01 0B 33  .3....#[...3...3
1360: 12 01 74 6C 62 31 5B 8A  80 11 33 12 01 11 33 12  ..tlb1[...3...3.
1370: 01 74 6C 6B 30 2B 11 33  12 01 AE 80 23 5B 8A 80  .tlk0+.3....#[..
1380: 11 33 12 01 11 33 12 01  74 6C 6B 31 52 8B 80 F8  .3...3..tlk1R...
1390: FF FF 7F F8 FF FF 7F 73  30 34 30 01 E0 13 02 00  .......s040.....
13A0: 10 5C 80 00 E0 13 52 8B  80 F8 FF FF 7F F8 FF FF  .\....R.........
13B0: 7F 73 30 33 36 45 8B 80  F8 FF FF 7F F8 FF FF 7F  .s036E..........
13C0: 73 30 34 31 01 80 2B 0B  33 12 01 AF 80 23 52 8B  s041..+.3....#R.
13D0: 80 F8 FF FF 7F F8 FF FF  7F 73 30 34 31 01 E0 13  .........s041...
13E0: 45 8B 80 F8 FF FF 7F F8  FF FF 7F 73 30 34 32 01  E..........s042.
13F0: 80 27 05 0B 33 12 01 0C  2B 0B 33 12 01 B0 80 79  .'..3...+.3....y
1400: 00 11 33 12 01 0B 33 12  01 1C 3F 80 4A 1B 33 12  ..3...3...?.J.3.
1410: 01 0B 33 12 01 23 2A 05  0B 33 12 01 52 8B 80 F8  ..3..#*..3..R...
1420: FF FF 7F F8 FF FF 7F 73  30 34 32 45 8B 80 F8 FF  .......s042E....
1430: FF 7F F8 FF FF 7F 73 30  34 33 01 80 5B 8A 80 11  ......s043..[...
1440: 33 12 01 11 33 12 01 75  64 65 30 2B 11 33 12 01  3...3..ude0+.3..
1450: B1 80 23 5B 93 80 1B 33  12 01 1B 33 12 01 74 6C  ..#[...3...3..tl
1460: 6B 30 2B 1B 33 12 01 B2  80 23 2B 1B 33 12 01 B3  k0+.3....#+.3...
1470: 80 23 5B 93 80 1B 33 12  01 1B 33 12 01 74 6C 6B  .#[...3...3..tlk
1480: 31 52 8B 80 F8 FF FF 7F  F8 FF FF 7F 73 30 34 33  1R..........s043
1490: 45 8B 80 F8 FF FF 7F F8  FF FF 7F 73 30 34 34 01  E..........s044.
14A0: 80 5B 8A 80 11 33 12 01  11 33 12 01 75 64 65 31  .[...3...3..ude1
14B0: 2B 11 33 12 01 B4 80 1C  19 80 4A 1B 33 12 01 11  +.3.......J.3...
14C0: 33 12 01 4A 0B 33 12 01  11 33 12 01 1C 0B 80 23  3..J.3...3.....#
14D0: 5B 93 80 1B 33 12 01 1B  33 12 01 74 6C 6B 30 2B  [...3...3..tlk0+
14E0: 1B 33 12 01 B5 80 23 5B  93 80 1B 33 12 01 1B 33  .3....#[...3...3
14F0: 12 01 74 6C 6B 31 52 8B  80 F8 FF FF 7F F8 FF FF  ..tlk1R.........
1500: 7F 73 30 34 34 45 8B 80  F8 FF FF 7F F8 FF FF 7F  .s044E..........
1510: 73 30 34 35 01 80 5B B6  80 0B 33 12 01 0B 33 12  s045..[...3...3.
1520: 01 79 65 73 30 2B 0B 33  12 01 B7 80 1C 3F 80 23  .yes0+.3.....?.#
1530: 7B F0 FF FF 7F 27 05 F0  FF FF 7F 0E 1C 10 80 27  {....'.........'
1540: 05 F0 FF FF 7F 0F 1C 11  80 52 8B 80 F8 FF FF 7F  .........R......
1550: F8 FF FF 7F 73 30 34 35  45 8B 80 F8 FF FF 7F F8  ....s045E.......
1560: FF FF 7F 73 30 34 36 01  80 5B 8A 80 11 33 12 01  ...s046..[...3..
1570: 11 33 12 01 74 6C 6B 30  2B 11 33 12 01 B8 80 23  .3..tlk0+.3....#
1580: 5B 8A 80 11 33 12 01 11  33 12 01 74 6C 6B 31 2B  [...3...3..tlk1+
1590: 11 33 12 01 B9 80 23 52  8B 80 F8 FF FF 7F F8 FF  .3....#R........
15A0: FF 7F 73 30 34 36 45 8B  80 F8 FF FF 7F F8 FF FF  ..s046E.........
15B0: 7F 73 30 34 37 01 80 27  05 11 33 12 01 0C 1C 0F  .s047..'..3.....
15C0: 80 27 05 0B 33 12 01 0D  1C 0F 80 27 05 1B 33 12  .'..3......'..3.
15D0: 01 0D 1C 3F 80 45 00 80  F0 FF FF 7F F0 FF FF 7F  ...?.E..........
15E0: 66 64 6F 31 01 80 55 00  80 F0 FF FF 7F F0 FF FF  fdo1..U.........
15F0: 7F 66 64 6F 31 52 8B 80  F8 FF FF 7F F8 FF FF 7F  .fdo1R..........
1600: 73 30 34 37 7A 00 11 33  12 01 7A 00 1B 33 12 01  s047z..3..z..3..
1610: 27 05 11 33 12 01 11 27  05 1B 33 12 01 12 1C 6F  '..3...'..3....o
1620: 80 46 00 45 00 80 F0 FF  FF 7F F0 FF FF 7F 66 64  .F.E..........fd
1630: 69 32 01 80 21 00                                 i2..!.          
```

#### Opcodes

```
  0: 0x0D91 [0x42] SET_CLI_EVENT_CANCEL_DATA()
  1: 0x0D92 [0x5D] SET_MUSIC_VOLUME(volume=0*, fade_time=120*)
  2: 0x0D97 [0x45] LOAD_SCHEDULED_TASK: Load scheduler "fdo1" with entities [EventEntity, EventEntity], work=[200*, 0*]
  3: 0x0DA8 [0x55] WAIT_LOAD_SCHEDULER: Wait for scheduler "fdo1" with entities [EventEntity, EventEntity], work=200*
  4: 0x0DB7 [0x46] CAMERA_CONTROL: Disable user control
  5: 0x0DB9 [0x38] SET_CLIENT_EVENT_MODE(mode=27*)
  6: 0x0DBC [0x2F] Tenzen (ID: 17969931/0x0112330B)->Render.Flags0 &= ~0x80000 // Bit 19
  7: 0x0DC2 [0x2F] Gilgamesh (ID: 17969947/0x0112331B)->Render.Flags0 &= ~0x80000 // Bit 19
  8: 0x0DC8 [0x2F] Aldo (ID: 17969937/0x01123311)->Render.Flags0 &= ~0x80000 // Bit 19
  9: 0x0DCE [0x4E] SET_ENTITY_HIDE_FLAG: Show Tenzen (ID: 17969931/0x0112330B)
 10: 0x0DD4 [0x4E] SET_ENTITY_HIDE_FLAG: Show Gilgamesh (ID: 17969947/0x0112331B)
 11: 0x0DDA [0x4E] SET_ENTITY_HIDE_FLAG: Show Aldo (ID: 17969937/0x01123311)
 12: 0x0DE0 [0x92] Tenzen (ID: 17969931/0x0112330B)->Render.Flags3 ^= 0x01
 13: 0x0DE6 [0x92] Gilgamesh (ID: 17969947/0x0112331B)->Render.Flags3 ^= 0x01
 14: 0x0DEC [0x92] Aldo (ID: 17969937/0x01123311)->Render.Flags3 ^= 0x01
 15: 0x0DF2 [0x94] Tenzen (ID: 17969931/0x0112330B)->Render.Flags3 ^= 0x01
 16: 0x0DF8 [0x94] Gilgamesh (ID: 17969947/0x0112331B)->Render.Flags3 ^= 0x01
 17: 0x0DFE [0x94] Aldo (ID: 17969937/0x01123311)->Render.Flags3 ^= 0x01
 18: 0x0E04 [0xBA] SET_ENTITY_POSITION(entity_id=LocalPlayer, pos_x=-143.088*, pos_z=597.333*, pos_y=-79.234*, direction=83.8°*)
 19: 0x0E11 [0xBA] SET_ENTITY_POSITION(entity_id=Tenzen (ID: 17969931/0x0112330B), pos_x=-145.869*, pos_z=587.038*, pos_y=-76.705*, direction=291.3°*)
 20: 0x0E1E [0xBA] SET_ENTITY_POSITION(entity_id=Gilgamesh (ID: 17969947/0x0112331B), pos_x=-147.436*, pos_z=588.423*, pos_y=-76.984*, direction=295.8°*)
 21: 0x0E2B [0xBA] SET_ENTITY_POSITION(entity_id=Aldo (ID: 17969937/0x01123311), pos_x=-143.440*, pos_z=582.710*, pos_y=-75.696*, direction=66.6°*)
 22: 0x0E38 [0x80] LOAD_WAIT(entity=LocalPlayer)
 23: 0x0E3D [0x80] LOAD_WAIT(entity=Tenzen (ID: 17969931/0x0112330B))
 24: 0x0E42 [0x80] LOAD_WAIT(entity=Gilgamesh (ID: 17969947/0x0112331B))
 25: 0x0E47 [0x80] LOAD_WAIT(entity=Aldo (ID: 17969937/0x01123311))
 26: 0x0E4C [0x4A] LocalPlayer looks at Tenzen (ID: 17969931/0x0112330B)
 27: 0x0E55 [0x1C] WAIT(30* ticks)
 28: 0x0E58 [0x5B] LOAD_EXT_SCHEDULER: Load scheduler "thk1" with entities [Aldo (ID: 17969937/0x01123311), Aldo (ID: 17969937/0x01123311)], work=185*
 29: 0x0E67 [0x5C] MUSIC_CONTROL: Set Idle (Day) music to song 0*
 30: 0x0E6B [0x5C] MUSIC_CONTROL: Set Idle (Night) music to song 0*
 31: 0x0E6F [0x9A] WAIT_MUSIC_SERVER()
 32: 0x0E70 [0x27] REQ_SET(priority=0x05, entity_id=Tenzen (ID: 17969931/0x0112330B), tag_num=0x0B)
 33: 0x0E77 [0x27] REQ_SET(priority=0x05, entity_id=Gilgamesh (ID: 17969947/0x0112331B), tag_num=0x0C)
 34: 0x0E7E [0x45] LOAD_SCHEDULED_TASK: Load scheduler "s025" with entities [EventEntity, EventEntity], work=[774*, 0*]
 35: 0x0E8F [0x1C] WAIT(15* ticks)
 36: 0x0E92 [0x45] LOAD_SCHEDULED_TASK: Load scheduler "fdi1" with entities [LocalPlayer, LocalPlayer], work=[200*, 0*]
 37: 0x0EA3 [0x1C] WAIT(30* ticks)
 38: 0x0EA6 [0x2B] Tenzen (ID: 17969931/0x0112330B) [7485*]:
    → "[Lord/Lady] <Player>!"
 39: 0x0EAD [0x23] WAIT_FOR_DIALOG_INTERACTION
 40: 0x0EAE [0x2A] GET_REQ_LEVEL(level=5, entity_id=Tenzen (ID: 17969931/0x0112330B))
 41: 0x0EB4 [0x52] END_LOAD_SCHEDULER: End scheduler "s025" with entities [EventEntity, EventEntity], work=774*
 42: 0x0EC3 [0x45] LOAD_SCHEDULED_TASK: Load scheduler "s026" with entities [EventEntity, EventEntity], work=[774*, 0*]
 43: 0x0ED4 [0x5B] LOAD_EXT_SCHEDULER: Load scheduler "tlb0" with entities [Tenzen (ID: 17969931/0x0112330B), Tenzen (ID: 17969931/0x0112330B)], work=425*
 44: 0x0EE3 [0x2B] Tenzen (ID: 17969931/0x0112330B) [7486*]:
    → "I had written you off as vanishing with Selh'teus!"
 45: 0x0EEA [0x23] WAIT_FOR_DIALOG_INTERACTION
 46: 0x0EEB [0x2B] Tenzen (ID: 17969931/0x0112330B) [7487*]:
    → "Do you know what that does to a man's heart!?"
 47: 0x0EF2 [0x23] WAIT_FOR_DIALOG_INTERACTION
 48: 0x0EF3 [0x5B] LOAD_EXT_SCHEDULER: Load scheduler "tlb1" with entities [Tenzen (ID: 17969931/0x0112330B), Tenzen (ID: 17969931/0x0112330B)], work=425*
 49: 0x0F02 [0x52] END_LOAD_SCHEDULER: End scheduler "s026" with entities [EventEntity, EventEntity], work=774*
 50: 0x0F11 [0x45] LOAD_SCHEDULED_TASK: Load scheduler "s027" with entities [EventEntity, EventEntity], work=[774*, 0*]
 51: 0x0F22 [0x79] Gilgamesh (ID: 17969947/0x0112331B) looks at Tenzen (ID: 17969931/0x0112330B) (Basic look)
 52: 0x0F2C [0x2B] Gilgamesh (ID: 17969947/0x0112331B) [7488*]:
    → "I'd always wanted ta visit here, and it's proven to be well worth the journey."
 53: 0x0F33 [0x23] WAIT_FOR_DIALOG_INTERACTION
 54: 0x0F34 [0x2A] GET_REQ_LEVEL(level=5, entity_id=Gilgamesh (ID: 17969947/0x0112331B))
 55: 0x0F3A [0x52] END_LOAD_SCHEDULER: End scheduler "s027" with entities [EventEntity, EventEntity], work=774*
 56: 0x0F49 [0x45] LOAD_SCHEDULED_TASK: Load scheduler "s028" with entities [EventEntity, EventEntity], work=[774*, 0*]
 57: 0x0F5A [0x4A] Gilgamesh (ID: 17969947/0x0112331B) looks at Aldo (ID: 17969937/0x01123311)
 58: 0x0F63 [0x1C] WAIT(30* ticks)
 59: 0x0F66 [0x4A] Tenzen (ID: 17969931/0x0112330B) looks at Aldo (ID: 17969937/0x01123311)
 60: 0x0F6F [0x2B] Gilgamesh (ID: 17969947/0x0112331B) [7489*]:
    → "And Aldo here... Aldo? Gotten over what ails ye?"
 61: 0x0F76 [0x23] WAIT_FOR_DIALOG_INTERACTION
 62: 0x0F77 [0x52] END_LOAD_SCHEDULER: End scheduler "s028" with entities [EventEntity, EventEntity], work=774*
 63: 0x0F86 [0x45] LOAD_SCHEDULED_TASK: Load scheduler "s029" with entities [EventEntity, EventEntity], work=[774*, 0*]
 64: 0x0F97 [0x2B] Aldo (ID: 17969937/0x01123311) [7490*]:
    → "Grk... Not everyone...can be a salty sea dog..."
 65: 0x0F9E [0x23] WAIT_FOR_DIALOG_INTERACTION
 66: 0x0F9F [0x52] END_LOAD_SCHEDULER: End scheduler "s029" with entities [EventEntity, EventEntity], work=774*
 67: 0x0FAE [0x45] LOAD_SCHEDULED_TASK: Load scheduler "s030" with entities [EventEntity, EventEntity], work=[774*, 0*]
 68: 0x0FBF [0x5B] LOAD_EXT_SCHEDULER: Load scheduler "tlk0" with entities [Gilgamesh (ID: 17969947/0x0112331B), Gilgamesh (ID: 17969947/0x0112331B)], work=566*
 69: 0x0FCE [0x2B] Gilgamesh (ID: 17969947/0x0112331B) [7491*]:
    → "Har har! Just be glad we didn't have ta call "man overboard!" when ye were retching o'er the side."
 70: 0x0FD5 [0x23] WAIT_FOR_DIALOG_INTERACTION
 71: 0x0FD6 [0x5B] LOAD_EXT_SCHEDULER: Load scheduler "tlk1" with entities [Gilgamesh (ID: 17969947/0x0112331B), Gilgamesh (ID: 17969947/0x0112331B)], work=566*
 72: 0x0FE5 [0x52] END_LOAD_SCHEDULER: End scheduler "s030" with entities [EventEntity, EventEntity], work=774*
 73: 0x0FF4 [0x45] LOAD_SCHEDULED_TASK: Load scheduler "s031" with entities [EventEntity, EventEntity], work=[774*, 0*]
 74: 0x1005 [0x4B] UPDATE_ENTITY_YAW(entity=Tenzen (ID: 17969931/0x0112330B), yaw=17.1°*)
 75: 0x100C [0x6F] WAIT_FRAME_DELAY: Yield until WaitTime reaches zero
 76: 0x100D [0x76] CHECK_ENTITY_RENDER_FLAGS: Wait until Tenzen (ID: 17969931/0x0112330B) Render.Flags0 and Render.Flags3 conditions are met
 77: 0x1012 [0x5B] LOAD_EXT_SCHEDULER: Load scheduler "tlb0" with entities [Tenzen (ID: 17969931/0x0112330B), Tenzen (ID: 17969931/0x0112330B)], work=425*
 78: 0x1021 [0x2B] Tenzen (ID: 17969931/0x0112330B) [7492*]:
    → "[Lord/Lady] <Player>, what transpired while you were away?"
 79: 0x1028 [0x23] WAIT_FOR_DIALOG_INTERACTION
 80: 0x1029 [0x5B] LOAD_EXT_SCHEDULER: Load scheduler "tlb1" with entities [Tenzen (ID: 17969931/0x0112330B), Tenzen (ID: 17969931/0x0112330B)], work=425*
 81: 0x1038 [0x45] LOAD_SCHEDULED_TASK: Load scheduler "fdo1" with entities [LocalPlayer, LocalPlayer], work=[200*, 0*]
 82: 0x1049 [0x55] WAIT_LOAD_SCHEDULER: Wait for scheduler "fdo1" with entities [LocalPlayer, LocalPlayer], work=200*
 83: 0x1058 [0x52] END_LOAD_SCHEDULER: End scheduler "s031" with entities [EventEntity, EventEntity], work=774*
 84: 0x1067 [0x6B] STOP_AND_IDLE: Aldo (ID: 17969937/0x01123311) stops current action and resets to idle (animation="idl0")
 85: 0x1070 [0x7B] Tenzen (ID: 17969931/0x0112330B) stops talking
 86: 0x1075 [0xBA] SET_ENTITY_POSITION(entity_id=Aldo (ID: 17969937/0x01123311), pos_x=-141.796*, pos_z=593.658*, pos_y=-78.655*, direction=105.1°*)
 87: 0x1082 [0xBA] SET_ENTITY_POSITION(entity_id=Gilgamesh (ID: 17969947/0x0112331B), pos_x=-145.485*, pos_z=595.003*, pos_y=-79.221*, direction=105.1°*)
 88: 0x108F [0x80] LOAD_WAIT(entity=Aldo (ID: 17969937/0x01123311))
 89: 0x1094 [0x80] LOAD_WAIT(entity=Gilgamesh (ID: 17969947/0x0112331B))
 90: 0x1099 [0x4A] Aldo (ID: 17969937/0x01123311) looks at LocalPlayer
 91: 0x10A2 [0x79] Aldo (ID: 17969937/0x01123311) looks at Tenzen (ID: 17969931/0x0112330B) (Basic look)
 92: 0x10AC [0x4A] Gilgamesh (ID: 17969947/0x0112331B) looks at LocalPlayer
 93: 0x10B5 [0x1C] WAIT(60* ticks)
 94: 0x10B8 [0x48] [System] [7373*]:
    → "@@"
 95: 0x10BB [0x1C] WAIT(60* ticks)
 96: 0x10BE [0x5C] MUSIC_CONTROL: Set Idle (Day) music to song 79*
 97: 0x10C2 [0x5C] MUSIC_CONTROL: Set Idle (Night) music to song 79*
 98: 0x10C6 [0x9A] WAIT_MUSIC_SERVER()
 99: 0x10C7 [0x45] LOAD_SCHEDULED_TASK: Load scheduler "s032" with entities [EventEntity, EventEntity], work=[774*, 0*]
100: 0x10D8 [0x1C] WAIT(15* ticks)
101: 0x10DB [0x45] LOAD_SCHEDULED_TASK: Load scheduler "fdi1" with entities [LocalPlayer, LocalPlayer], work=[200*, 0*]
102: 0x10EC [0x5B] LOAD_EXT_SCHEDULER: Load scheduler "thk0" with entities [Tenzen (ID: 17969931/0x0112330B), Tenzen (ID: 17969931/0x0112330B)], work=425*
103: 0x10FB [0x2B] Tenzen (ID: 17969931/0x0112330B) [7493*]:
    → "So what we have been calling the "ambassador" is really an alternate aspect of you...from the future?"
104: 0x1102 [0x23] WAIT_FOR_DIALOG_INTERACTION
105: 0x1103 [0x5B] LOAD_EXT_SCHEDULER: Load scheduler "thk0" with entities [Gilgamesh (ID: 17969947/0x0112331B), Gilgamesh (ID: 17969947/0x0112331B)], work=566*
106: 0x1112 [0x2B] Gilgamesh (ID: 17969947/0x0112331B) [7494*]:
    → "Can that e'en be possible? Just what kinda secrets are ye hidin' under those clothes o' yers?"
107: 0x1119 [0x23] WAIT_FOR_DIALOG_INTERACTION
108: 0x111A [0x52] END_LOAD_SCHEDULER: End scheduler "s032" with entities [EventEntity, EventEntity], work=774*
109: 0x1129 [0x45] LOAD_SCHEDULED_TASK: Load scheduler "s033" with entities [EventEntity, EventEntity], work=[774*, 0*]
110: 0x113A [0x5B] LOAD_EXT_SCHEDULER: Load scheduler "tlk0" with entities [Aldo (ID: 17969937/0x01123311), Aldo (ID: 17969937/0x01123311)], work=185*
111: 0x1149 [0x2B] Aldo (ID: 17969937/0x01123311) [7495*]:
    → "<Player>, people in the Far East come to call you "Master," correct?"
112: 0x1150 [0x23] WAIT_FOR_DIALOG_INTERACTION
113: 0x1151 [0x2B] Aldo (ID: 17969937/0x01123311) [7496*]:
    → "Then perhaps you used some technique you learned here."
114: 0x1158 [0x23] WAIT_FOR_DIALOG_INTERACTION
115: 0x1159 [0x5B] LOAD_EXT_SCHEDULER: Load scheduler "tlk1" with entities [Aldo (ID: 17969937/0x01123311), Aldo (ID: 17969937/0x01123311)], work=185*
116: 0x1168 [0x52] END_LOAD_SCHEDULER: End scheduler "s033" with entities [EventEntity, EventEntity], work=774*
117: 0x1177 [0x45] LOAD_SCHEDULED_TASK: Load scheduler "s034" with entities [EventEntity, EventEntity], work=[774*, 0*]
118: 0x1188 [0x5B] LOAD_EXT_SCHEDULER: Load scheduler "thk1" with entities [Tenzen (ID: 17969931/0x0112330B), Tenzen (ID: 17969931/0x0112330B)], work=425*
119: 0x1197 [0x2B] Tenzen (ID: 17969931/0x0112330B) [7497*]:
    → "Indeed. I do not presume to know everything about our martial or spiritual arts, so the possibility of there being something I have overlooked is great."
120: 0x119E [0x23] WAIT_FOR_DIALOG_INTERACTION
121: 0x119F [0x79] Aldo (ID: 17969937/0x01123311) looks at LocalPlayer (Basic look)
122: 0x11A9 [0x27] REQ_SET(priority=0x05, entity_id=LocalPlayer, tag_num=0x0E)
123: 0x11B0 [0x1C] WAIT(80* ticks)
124: 0x11B3 [0x27] REQ_SET(priority=0x05, entity_id=LocalPlayer, tag_num=0x0F)
125: 0x11BA [0x1C] WAIT(40* ticks)
126: 0x11BD [0x52] END_LOAD_SCHEDULER: End scheduler "s034" with entities [EventEntity, EventEntity], work=774*
127: 0x11CC [0x45] LOAD_SCHEDULED_TASK: Load scheduler "s035" with entities [EventEntity, EventEntity], work=[774*, 0*]
128: 0x11DD [0x2B] Tenzen (ID: 17969931/0x0112330B) [7498*]:
    → "But let us turn to more pressing matters. Lord Selh'teus and Lady Iroha bid you cleanse these woods of a particular blight, did they not?"
129: 0x11E4 [0x23] WAIT_FOR_DIALOG_INTERACTION
130: 0x11E5 [0x55] WAIT_LOAD_SCHEDULER: Wait for scheduler "s035" with entities [EventEntity, EventEntity], work=774*
131: 0x11F4 [0x45] LOAD_SCHEDULED_TASK: Load scheduler "s036" with entities [EventEntity, EventEntity], work=[774*, 0*]
132: 0x1205 [0x5B] LOAD_EXT_SCHEDULER: Load scheduler "thk1" with entities [Gilgamesh (ID: 17969947/0x0112331B), Gilgamesh (ID: 17969947/0x0112331B)], work=566*
133: 0x1214 [0x2B] Gilgamesh (ID: 17969947/0x0112331B) [7499*]:
    → "Iroha? Then where is she?"
134: 0x121B [0x23] WAIT_FOR_DIALOG_INTERACTION
135: 0x121C [0x24] CREATE_DIALOG(message_id=7500*, default_option=0*, option_flags=0*)
    → "Where is Iroha? [She rests with the crystal./She's passed on./She's within all of us.]"
136: 0x1223 [0x25] WAIT_DIALOG_SELECT()
137: 0x1224 [0x02] IF !(Work_Zone[0] == 0*) GOTO 0x12F0
138: 0x122C [0x52] END_LOAD_SCHEDULER: End scheduler "s036" with entities [EventEntity, EventEntity], work=774*
139: 0x123B [0x45] LOAD_SCHEDULED_TASK: Load scheduler "s037" with entities [EventEntity, EventEntity], work=[774*, 0*]
140: 0x124C [0x5B] LOAD_EXT_SCHEDULER: Load scheduler "sra0" with entities [Tenzen (ID: 17969931/0x0112330B), Tenzen (ID: 17969931/0x0112330B)], work=426*
141: 0x125B [0x2B] Tenzen (ID: 17969931/0x0112330B) [7501*]:
    → "She has reached the end of her rope and can revive no longer..."
142: 0x1262 [0x23] WAIT_FOR_DIALOG_INTERACTION
143: 0x1263 [0x5B] LOAD_EXT_SCHEDULER: Load scheduler "tlk0" with entities [Gilgamesh (ID: 17969947/0x0112331B), Gilgamesh (ID: 17969947/0x0112331B)], work=566*
144: 0x1272 [0x2B] Gilgamesh (ID: 17969947/0x0112331B) [7502*]:
    → "But ye were still able ta talk to her?"
145: 0x1279 [0x23] WAIT_FOR_DIALOG_INTERACTION
146: 0x127A [0x5B] LOAD_EXT_SCHEDULER: Load scheduler "tlk1" with entities [Gilgamesh (ID: 17969947/0x0112331B), Gilgamesh (ID: 17969947/0x0112331B)], work=566*
147: 0x1289 [0x5B] LOAD_EXT_SCHEDULER: Load scheduler "sra1" with entities [Tenzen (ID: 17969931/0x0112330B), Tenzen (ID: 17969931/0x0112330B)], work=426*
148: 0x1298 [0x52] END_LOAD_SCHEDULER: End scheduler "s037" with entities [EventEntity, EventEntity], work=774*
149: 0x12A7 [0x45] LOAD_SCHEDULED_TASK: Load scheduler "s038" with entities [EventEntity, EventEntity], work=[774*, 0*]
150: 0x12B8 [0x5B] LOAD_EXT_SCHEDULER: Load scheduler "tlk0" with entities [Aldo (ID: 17969937/0x01123311), Aldo (ID: 17969937/0x01123311)], work=185*
151: 0x12C7 [0x2B] Aldo (ID: 17969937/0x01123311) [7503*]:
    → "We can at least be grateful that her spirit lives on."
152: 0x12CE [0x23] WAIT_FOR_DIALOG_INTERACTION
153: 0x12CF [0x5B] LOAD_EXT_SCHEDULER: Load scheduler "tlk1" with entities [Aldo (ID: 17969937/0x01123311), Aldo (ID: 17969937/0x01123311)], work=185*
154: 0x12DE [0x52] END_LOAD_SCHEDULER: End scheduler "s038" with entities [EventEntity, EventEntity], work=774*
155: 0x12ED [0x01] GOTO 0x13E0
156: 0x12F0 [0x02] IF !(Work_Zone[0] == 1*) GOTO 0x139E
157: 0x12F8 [0x52] END_LOAD_SCHEDULER: End scheduler "s036" with entities [EventEntity, EventEntity], work=774*
158: 0x1307 [0x45] LOAD_SCHEDULED_TASK: Load scheduler "s039" with entities [EventEntity, EventEntity], work=[774*, 0*]
159: 0x1318 [0x2B] Gilgamesh (ID: 17969947/0x0112331B) [7504*]:
    → "Sh-she won't be able ta come back ta us?"
160: 0x131F [0x23] WAIT_FOR_DIALOG_INTERACTION
161: 0x1320 [0x52] END_LOAD_SCHEDULER: End scheduler "s039" with entities [EventEntity, EventEntity], work=774*
162: 0x132F [0x45] LOAD_SCHEDULED_TASK: Load scheduler "s040" with entities [EventEntity, EventEntity], work=[774*, 0*]
163: 0x1340 [0x5B] LOAD_EXT_SCHEDULER: Load scheduler "tlb0" with entities [Tenzen (ID: 17969931/0x0112330B), Tenzen (ID: 17969931/0x0112330B)], work=425*
164: 0x134F [0x2B] Tenzen (ID: 17969931/0x0112330B) [7505*]:
    → "Yet if you were able to converse with Lady Iroha, then some part of her yet remains."
165: 0x1356 [0x23] WAIT_FOR_DIALOG_INTERACTION
166: 0x1357 [0x5B] LOAD_EXT_SCHEDULER: Load scheduler "tlb1" with entities [Tenzen (ID: 17969931/0x0112330B), Tenzen (ID: 17969931/0x0112330B)], work=425*
167: 0x1366 [0x5B] LOAD_EXT_SCHEDULER: Load scheduler "tlk0" with entities [Aldo (ID: 17969937/0x01123311), Aldo (ID: 17969937/0x01123311)], work=185*
168: 0x1375 [0x2B] Aldo (ID: 17969937/0x01123311) [7506*]:
    → "We can at least be grateful that her spirit lives on."
169: 0x137C [0x23] WAIT_FOR_DIALOG_INTERACTION
170: 0x137D [0x5B] LOAD_EXT_SCHEDULER: Load scheduler "tlk1" with entities [Aldo (ID: 17969937/0x01123311), Aldo (ID: 17969937/0x01123311)], work=185*
171: 0x138C [0x52] END_LOAD_SCHEDULER: End scheduler "s040" with entities [EventEntity, EventEntity], work=774*
172: 0x139B [0x01] GOTO 0x13E0
173: 0x139E [0x02] IF !(Work_Zone[0] == 2*) GOTO 0x13E0
174: 0x13A6 [0x52] END_LOAD_SCHEDULER: End scheduler "s036" with entities [EventEntity, EventEntity], work=774*
175: 0x13B5 [0x45] LOAD_SCHEDULED_TASK: Load scheduler "s041" with entities [EventEntity, EventEntity], work=[774*, 0*]
176: 0x13C6 [0x2B] Tenzen (ID: 17969931/0x0112330B) [7507*]:
    → "Urk...I've never had much of a mind for riddles."
177: 0x13CD [0x23] WAIT_FOR_DIALOG_INTERACTION
178: 0x13CE [0x52] END_LOAD_SCHEDULER: End scheduler "s041" with entities [EventEntity, EventEntity], work=774*
179: 0x13DD [0x01] GOTO 0x13E0

SUBROUTINE_13E0:
180: 0x13E0 [0x45] LOAD_SCHEDULED_TASK: Load scheduler "s042" with entities [EventEntity, EventEntity], work=[774*, 0*]
181: 0x13F1 [0x27] REQ_SET(priority=0x05, entity_id=Tenzen (ID: 17969931/0x0112330B), tag_num=0x0C)
182: 0x13F8 [0x2B] Tenzen (ID: 17969931/0x0112330B) [7508*]:
    → "Although our calling is to save the future, we cannot neglect our responsibilities to Iroha."
183: 0x13FF [0x79] Aldo (ID: 17969937/0x01123311) looks at Tenzen (ID: 17969931/0x0112330B) (Basic look)
184: 0x1409 [0x1C] WAIT(120* ticks)
185: 0x140C [0x4A] Gilgamesh (ID: 17969947/0x0112331B) looks at Tenzen (ID: 17969931/0x0112330B)
186: 0x1415 [0x23] WAIT_FOR_DIALOG_INTERACTION
187: 0x1416 [0x2A] GET_REQ_LEVEL(level=5, entity_id=Tenzen (ID: 17969931/0x0112330B))
188: 0x141C [0x52] END_LOAD_SCHEDULER: End scheduler "s042" with entities [EventEntity, EventEntity], work=774*
189: 0x142B [0x45] LOAD_SCHEDULED_TASK: Load scheduler "s043" with entities [EventEntity, EventEntity], work=[774*, 0*]
190: 0x143C [0x5B] LOAD_EXT_SCHEDULER: Load scheduler "ude0" with entities [Aldo (ID: 17969937/0x01123311), Aldo (ID: 17969937/0x01123311)], work=185*
191: 0x144B [0x2B] Aldo (ID: 17969937/0x01123311) [7509*]:
    → "I concur."
192: 0x1452 [0x23] WAIT_FOR_DIALOG_INTERACTION
193: 0x1453 [0x5B] LOAD_EXT_SCHEDULER: Load scheduler "tlk0" with entities [Gilgamesh (ID: 17969947/0x0112331B), Gilgamesh (ID: 17969947/0x0112331B)], work=566*
194: 0x1462 [0x2B] Gilgamesh (ID: 17969947/0x0112331B) [7510*]:
    → "We might be worried 'bout her, but right now th' best we can do is see her task to conclusion."
195: 0x1469 [0x23] WAIT_FOR_DIALOG_INTERACTION
196: 0x146A [0x2B] Gilgamesh (ID: 17969947/0x0112331B) [7511*]:
    → "If helping th' crystal is what we've gotta do, then count us in."
197: 0x1471 [0x23] WAIT_FOR_DIALOG_INTERACTION
198: 0x1472 [0x5B] LOAD_EXT_SCHEDULER: Load scheduler "tlk1" with entities [Gilgamesh (ID: 17969947/0x0112331B), Gilgamesh (ID: 17969947/0x0112331B)], work=566*
199: 0x1481 [0x52] END_LOAD_SCHEDULER: End scheduler "s043" with entities [EventEntity, EventEntity], work=774*
200: 0x1490 [0x45] LOAD_SCHEDULED_TASK: Load scheduler "s044" with entities [EventEntity, EventEntity], work=[774*, 0*]
201: 0x14A1 [0x5B] LOAD_EXT_SCHEDULER: Load scheduler "ude1" with entities [Aldo (ID: 17969937/0x01123311), Aldo (ID: 17969937/0x01123311)], work=185*
202: 0x14B0 [0x2B] Aldo (ID: 17969937/0x01123311) [7512*]:
    → "And the key to bringing Iroha back lies in one and the same."
203: 0x14B7 [0x1C] WAIT(90* ticks)
204: 0x14BA [0x4A] Gilgamesh (ID: 17969947/0x0112331B) looks at Aldo (ID: 17969937/0x01123311)
205: 0x14C3 [0x4A] Tenzen (ID: 17969931/0x0112330B) looks at Aldo (ID: 17969937/0x01123311)
206: 0x14CC [0x1C] WAIT(30* ticks)
207: 0x14CF [0x23] WAIT_FOR_DIALOG_INTERACTION
208: 0x14D0 [0x5B] LOAD_EXT_SCHEDULER: Load scheduler "tlk0" with entities [Gilgamesh (ID: 17969947/0x0112331B), Gilgamesh (ID: 17969947/0x0112331B)], work=566*
209: 0x14DF [0x2B] Gilgamesh (ID: 17969947/0x0112331B) [7513*]:
    → "Yup. So whaddaya say--lend our friend a hand?"
210: 0x14E6 [0x23] WAIT_FOR_DIALOG_INTERACTION
211: 0x14E7 [0x5B] LOAD_EXT_SCHEDULER: Load scheduler "tlk1" with entities [Gilgamesh (ID: 17969947/0x0112331B), Gilgamesh (ID: 17969947/0x0112331B)], work=566*
212: 0x14F6 [0x52] END_LOAD_SCHEDULER: End scheduler "s044" with entities [EventEntity, EventEntity], work=774*
213: 0x1505 [0x45] LOAD_SCHEDULED_TASK: Load scheduler "s045" with entities [EventEntity, EventEntity], work=[774*, 0*]
214: 0x1516 [0x5B] LOAD_EXT_SCHEDULER: Load scheduler "yes0" with entities [Tenzen (ID: 17969931/0x0112330B), Tenzen (ID: 17969931/0x0112330B)], work=663*
215: 0x1525 [0x2B] Tenzen (ID: 17969931/0x0112330B) [7514*]:
    → "Then if eleven of them must go, eleven it shall be."
216: 0x152C [0x1C] WAIT(120* ticks)
217: 0x152F [0x23] WAIT_FOR_DIALOG_INTERACTION
218: 0x1530 [0x7B] LocalPlayer stops talking
219: 0x1535 [0x27] REQ_SET(priority=0x05, entity_id=LocalPlayer, tag_num=0x0E)
220: 0x153C [0x1C] WAIT(80* ticks)
221: 0x153F [0x27] REQ_SET(priority=0x05, entity_id=LocalPlayer, tag_num=0x0F)
222: 0x1546 [0x1C] WAIT(40* ticks)
223: 0x1549 [0x52] END_LOAD_SCHEDULER: End scheduler "s045" with entities [EventEntity, EventEntity], work=774*
224: 0x1558 [0x45] LOAD_SCHEDULED_TASK: Load scheduler "s046" with entities [EventEntity, EventEntity], work=[774*, 0*]
225: 0x1569 [0x5B] LOAD_EXT_SCHEDULER: Load scheduler "tlk0" with entities [Aldo (ID: 17969937/0x01123311), Aldo (ID: 17969937/0x01123311)], work=185*
226: 0x1578 [0x2B] Aldo (ID: 17969937/0x01123311) [7515*]:
    → "And afterwards, we meet up here."
227: 0x157F [0x23] WAIT_FOR_DIALOG_INTERACTION
228: 0x1580 [0x5B] LOAD_EXT_SCHEDULER: Load scheduler "tlk1" with entities [Aldo (ID: 17969937/0x01123311), Aldo (ID: 17969937/0x01123311)], work=185*
229: 0x158F [0x2B] Aldo (ID: 17969937/0x01123311) [7516*]:
    → "Let's do it."
230: 0x1596 [0x23] WAIT_FOR_DIALOG_INTERACTION
231: 0x1597 [0x52] END_LOAD_SCHEDULER: End scheduler "s046" with entities [EventEntity, EventEntity], work=774*
232: 0x15A6 [0x45] LOAD_SCHEDULED_TASK: Load scheduler "s047" with entities [EventEntity, EventEntity], work=[774*, 0*]
233: 0x15B7 [0x27] REQ_SET(priority=0x05, entity_id=Aldo (ID: 17969937/0x01123311), tag_num=0x0C)
234: 0x15BE [0x1C] WAIT(15* ticks)
235: 0x15C1 [0x27] REQ_SET(priority=0x05, entity_id=Tenzen (ID: 17969931/0x0112330B), tag_num=0x0D)
236: 0x15C8 [0x1C] WAIT(15* ticks)
237: 0x15CB [0x27] REQ_SET(priority=0x05, entity_id=Gilgamesh (ID: 17969947/0x0112331B), tag_num=0x0D)
238: 0x15D2 [0x1C] WAIT(120* ticks)
239: 0x15D5 [0x45] LOAD_SCHEDULED_TASK: Load scheduler "fdo1" with entities [LocalPlayer, LocalPlayer], work=[200*, 0*]
240: 0x15E6 [0x55] WAIT_LOAD_SCHEDULER: Wait for scheduler "fdo1" with entities [LocalPlayer, LocalPlayer], work=200*
241: 0x15F5 [0x52] END_LOAD_SCHEDULER: End scheduler "s047" with entities [EventEntity, EventEntity], work=774*
242: 0x1604 [0x7A] VM_CONTROL: Reset VM for Aldo (ID: 17969937/0x01123311)
243: 0x160A [0x7A] VM_CONTROL: Reset VM for Gilgamesh (ID: 17969947/0x0112331B)
244: 0x1610 [0x27] REQ_SET(priority=0x05, entity_id=Aldo (ID: 17969937/0x01123311), tag_num=0x11)
245: 0x1617 [0x27] REQ_SET(priority=0x05, entity_id=Gilgamesh (ID: 17969947/0x0112331B), tag_num=0x12)
246: 0x161E [0x1C] WAIT(60* ticks)
247: 0x1621 [0x46] CAMERA_CONTROL: Restore default settings
248: 0x1623 [0x45] LOAD_SCHEDULED_TASK: Load scheduler "fdi2" with entities [LocalPlayer, LocalPlayer], work=[200*, 0*]
249: 0x1634 [0x21] END_EVENT
250: 0x1635 [0x00] END_REQSTACK()
```

### Event 7

#### Metadata

| Field        | Value      |
|--------------|------------|
| Entrypoint   | 0x1636     |
| Data Size    | 2140 bytes |
| Instructions | 166        |

```
      00 01 02 03 04 05 06 07  08 09 0A 0B 0C 0D 0E 0F
      -- -- -- -- -- -- -- --  -- -- -- -- -- -- -- --
1630:                   42 03  08 00 02 10 45 00 80 F8        B.....E...
1640: FF FF 7F F8 FF FF 7F 66  64 6F 31 01 80 55 00 80  .......fdo1..U..
1650: F8 FF FF 7F F8 FF FF 7F  66 64 6F 31 46 01 38 02  ........fdo1F.8.
1660: 80 2F 00 0B 33 12 01 2F  00 1B 33 12 01 2F 00 11  ./..3../..3../..
1670: 33 12 01 4E 00 0B 33 12  01 92 01 0B 33 12 01 92  3..N..3.....3...
1680: 01 1B 33 12 01 92 01 11  33 12 01 94 01 0B 33 12  ..3.....3.....3.
1690: 01 94 01 1B 33 12 01 94  01 11 33 12 01 BA F0 FF  ....3.....3.....
16A0: FF 7F BA 80 BB 80 BC 80  BD 80 BA 0B 33 12 01 BE  ............3...
16B0: 80 BF 80 C0 80 C1 80 BA  1B 33 12 01 C2 80 C3 80  .........3......
16C0: C0 80 C4 80 BA 11 33 12  01 C5 80 C6 80 C0 80 BD  ......3.........
16D0: 80 80 F0 FF FF 7F 80 0B  33 12 01 27 05 0B 33 12  ........3..'..3.
16E0: 01 0F 1C 0B 80 45 73 80  F8 FF FF 7F F8 FF FF 7F  .....Es.........
