# 17969927

## Common Data

| Field            | Value                |
|------------------|----------------------|
| Zone             | Reisenjima (ID: 291) |
| Block Size       | 456 bytes            |
| Total Events     | 5                    |
| References Count | 16                   |

## List of Events

| Event ID                 | Entrypoint   |   Size |   Instructions |
|--------------------------|--------------|--------|----------------|
| [65535](#event-65535)    | 0x0000       |      1 |              1 |
| [4](#event-4)            | 0x0001       |      4 |              2 |
| [5](#event-5)            | 0x0005       |      4 |              2 |
| [8](#event-8)            | 0x0009       |      1 |              1 |
| [65535.1](#event-655351) | 0x000A       |    345 |             33 |

## DAT References (imed_data)

|   Index | Hex Value   |   Dec Value |
|---------|-------------|-------------|
|       0 | 0x0001      |           1 |
|       1 | 0x0090      |         144 |
|       2 | 0x0F26      |        3878 |
|       3 | 0x0002      |           2 |
|       4 | 0x009A      |         154 |
|       5 | 0x0003      |           3 |
|       6 | 0x00A4      |         164 |
|       7 | 0x0004      |           4 |
|       8 | 0x00AE      |         174 |
|       9 | 0x0005      |           5 |
|      10 | 0x00B8      |         184 |
|      11 | 0x0006      |           6 |
|      12 | 0x0007      |           7 |
|      13 | 0x00C2      |         194 |
|      14 | 0x0008      |           8 |
|      15 | 0x00CC      |         204 |

## Events

### Event 65535

#### Metadata

| Field        | Value   |
|--------------|---------|
| Entrypoint   | 0x0000  |
| Data Size    | 1 bytes |
| Instructions | 1       |

```
      00 01 02 03 04 05 06 07  08 09 0A 0B 0C 0D 0E 0F
      -- -- -- -- -- -- -- --  -- -- -- -- -- -- -- --
0000: 00                                                .               
```

#### Opcodes

```
  0: 0x0000 [0x00] END_REQSTACK()
```

### Event 4

#### Metadata

| Field        | Value   |
|--------------|---------|
| Entrypoint   | 0x0001  |
| Data Size    | 4 bytes |
| Instructions | 2       |

```
      00 01 02 03 04 05 06 07  08 09 0A 0B 0C 0D 0E 0F
      -- -- -- -- -- -- -- --  -- -- -- -- -- -- -- --
0000:    C0 00 80 00                                     ....           
```

#### Opcodes

```
  0: 0x0001 [0xC0] EventEntity->Render.Flags3 |= 0x1000 // Set bit 12 (from 1*)
  1: 0x0004 [0x00] END_REQSTACK()
```

### Event 5

#### Metadata

| Field        | Value   |
|--------------|---------|
| Entrypoint   | 0x0005  |
| Data Size    | 4 bytes |
| Instructions | 2       |

```
      00 01 02 03 04 05 06 07  08 09 0A 0B 0C 0D 0E 0F
      -- -- -- -- -- -- -- --  -- -- -- -- -- -- -- --
0000:                C0 00 80  00                            ....       
```

#### Opcodes

```
  0: 0x0005 [0xC0] EventEntity->Render.Flags3 |= 0x1000 // Set bit 12 (from 1*)
  1: 0x0008 [0x00] END_REQSTACK()
```

### Event 8

#### Metadata

| Field        | Value   |
|--------------|---------|
| Entrypoint   | 0x0009  |
| Data Size    | 1 bytes |
| Instructions | 1       |

```
      00 01 02 03 04 05 06 07  08 09 0A 0B 0C 0D 0E 0F
      -- -- -- -- -- -- -- --  -- -- -- -- -- -- -- --
0000:                             00                             .      
```

#### Opcodes

```
  0: 0x0009 [0x00] END_REQSTACK()
```

### Event 65535.1

#### Metadata

| Field        | Value     |
|--------------|-----------|
| Entrypoint   | 0x000A    |
| Data Size    | 345 bytes |
| Instructions | 33        |

```
      00 01 02 03 04 05 06 07  08 09 0A 0B 0C 0D 0E 0F
      -- -- -- -- -- -- -- --  -- -- -- -- -- -- -- --
0000:                                02 87 7F 00 80 80            ......
0010: 35 00 5F 04 01 80 F0 FF  FF 7F F0 FF FF 7F 78 78  5._...........xx
0020: 78 78 5F 03 02 80 06 33  12 01 06 33 12 01 78 78  xx_....3...3..xx
0030: 78 78 01 62 01 02 87 7F  03 80 80 60 00 5F 04 04  xx.b.......`._..
0040: 80 F0 FF FF 7F F0 FF FF  7F 78 78 78 78 5F 03 02  .........xxxx_..
0050: 80 06 33 12 01 06 33 12  01 78 78 78 78 01 62 01  ..3...3..xxxx.b.
0060: 02 87 7F 05 80 80 8B 00  5F 04 06 80 F0 FF FF 7F  ........_.......
0070: F0 FF FF 7F 78 78 78 78  5F 03 02 80 06 33 12 01  ....xxxx_....3..
0080: 06 33 12 01 78 78 78 78  01 62 01 02 87 7F 07 80  .3..xxxx.b......
0090: 80 B6 00 5F 04 08 80 F0  FF FF 7F F0 FF FF 7F 78  ..._...........x
00A0: 78 78 78 5F 03 02 80 06  33 12 01 06 33 12 01 78  xxx_....3...3..x
00B0: 78 78 78 01 62 01 02 87  7F 09 80 80 E1 00 5F 04  xxx.b........._.
00C0: 0A 80 F0 FF FF 7F F0 FF  FF 7F 78 78 78 78 5F 03  ..........xxxx_.
00D0: 02 80 06 33 12 01 06 33  12 01 78 78 78 78 01 62  ...3...3..xxxx.b
00E0: 01 02 87 7F 0B 80 80 0C  01 5F 04 0A 80 F0 FF FF  ........._......
00F0: 7F F0 FF FF 7F 78 78 78  78 5F 03 02 80 06 33 12  .....xxxx_....3.
0100: 01 06 33 12 01 78 78 78  78 01 62 01 02 87 7F 0C  ..3..xxxx.b.....
0110: 80 80 37 01 5F 04 0D 80  F0 FF FF 7F F0 FF FF 7F  ..7._...........
0120: 78 78 78 78 5F 03 02 80  06 33 12 01 06 33 12 01  xxxx_....3...3..
0130: 78 78 78 78 01 62 01 02  87 7F 0E 80 80 62 01 5F  xxxx.b.......b._
0140: 04 0F 80 F0 FF FF 7F F0  FF FF 7F 78 78 78 78 5F  ...........xxxx_
0150: 03 02 80 06 33 12 01 06  33 12 01 78 78 78 78 01  ....3...3..xxxx.
0160: 62 01 00                                          b..             
```

#### Opcodes

```
  0: 0x000A [0x02] IF !(LocalPlayer->Race == 1*) GOTO 0x0035
  1: 0x0012 [0x5F] MULTI_HANDLER_COMPLEX(mode=0x04 - Load ext scheduler (OpCode 0x5B mode 1), ref=144*, entity1=LocalPlayer, entity2=LocalPlayer, string="xxxx")
  2: 0x0022 [0x5F] MULTI_HANDLER_COMPLEX(mode=0x03 - Load ext scheduler (OpCode 0x5B mode 0), ref=3878*, entity1=??? (ID: 17969926/0x01123306), entity2=??? (ID: 17969926/0x01123306), string="xxxx")
  3: 0x0032 [0x01] GOTO 0x0162
  4: 0x0035 [0x02] IF !(LocalPlayer->Race == 2*) GOTO 0x0060
  5: 0x003D [0x5F] MULTI_HANDLER_COMPLEX(mode=0x04 - Load ext scheduler (OpCode 0x5B mode 1), ref=154*, entity1=LocalPlayer, entity2=LocalPlayer, string="xxxx")
  6: 0x004D [0x5F] MULTI_HANDLER_COMPLEX(mode=0x03 - Load ext scheduler (OpCode 0x5B mode 0), ref=3878*, entity1=??? (ID: 17969926/0x01123306), entity2=??? (ID: 17969926/0x01123306), string="xxxx")
  7: 0x005D [0x01] GOTO 0x0162
  8: 0x0060 [0x02] IF !(LocalPlayer->Race == 3*) GOTO 0x008B
  9: 0x0068 [0x5F] MULTI_HANDLER_COMPLEX(mode=0x04 - Load ext scheduler (OpCode 0x5B mode 1), ref=164*, entity1=LocalPlayer, entity2=LocalPlayer, string="xxxx")
 10: 0x0078 [0x5F] MULTI_HANDLER_COMPLEX(mode=0x03 - Load ext scheduler (OpCode 0x5B mode 0), ref=3878*, entity1=??? (ID: 17969926/0x01123306), entity2=??? (ID: 17969926/0x01123306), string="xxxx")
 11: 0x0088 [0x01] GOTO 0x0162
 12: 0x008B [0x02] IF !(LocalPlayer->Race == 4*) GOTO 0x00B6
 13: 0x0093 [0x5F] MULTI_HANDLER_COMPLEX(mode=0x04 - Load ext scheduler (OpCode 0x5B mode 1), ref=174*, entity1=LocalPlayer, entity2=LocalPlayer, string="xxxx")
 14: 0x00A3 [0x5F] MULTI_HANDLER_COMPLEX(mode=0x03 - Load ext scheduler (OpCode 0x5B mode 0), ref=3878*, entity1=??? (ID: 17969926/0x01123306), entity2=??? (ID: 17969926/0x01123306), string="xxxx")
 15: 0x00B3 [0x01] GOTO 0x0162
 16: 0x00B6 [0x02] IF !(LocalPlayer->Race == 5*) GOTO 0x00E1
 17: 0x00BE [0x5F] MULTI_HANDLER_COMPLEX(mode=0x04 - Load ext scheduler (OpCode 0x5B mode 1), ref=184*, entity1=LocalPlayer, entity2=LocalPlayer, string="xxxx")
 18: 0x00CE [0x5F] MULTI_HANDLER_COMPLEX(mode=0x03 - Load ext scheduler (OpCode 0x5B mode 0), ref=3878*, entity1=??? (ID: 17969926/0x01123306), entity2=??? (ID: 17969926/0x01123306), string="xxxx")
 19: 0x00DE [0x01] GOTO 0x0162
 20: 0x00E1 [0x02] IF !(LocalPlayer->Race == 6*) GOTO 0x010C
 21: 0x00E9 [0x5F] MULTI_HANDLER_COMPLEX(mode=0x04 - Load ext scheduler (OpCode 0x5B mode 1), ref=184*, entity1=LocalPlayer, entity2=LocalPlayer, string="xxxx")
 22: 0x00F9 [0x5F] MULTI_HANDLER_COMPLEX(mode=0x03 - Load ext scheduler (OpCode 0x5B mode 0), ref=3878*, entity1=??? (ID: 17969926/0x01123306), entity2=??? (ID: 17969926/0x01123306), string="xxxx")
 23: 0x0109 [0x01] GOTO 0x0162
 24: 0x010C [0x02] IF !(LocalPlayer->Race == 7*) GOTO 0x0137
 25: 0x0114 [0x5F] MULTI_HANDLER_COMPLEX(mode=0x04 - Load ext scheduler (OpCode 0x5B mode 1), ref=194*, entity1=LocalPlayer, entity2=LocalPlayer, string="xxxx")
 26: 0x0124 [0x5F] MULTI_HANDLER_COMPLEX(mode=0x03 - Load ext scheduler (OpCode 0x5B mode 0), ref=3878*, entity1=??? (ID: 17969926/0x01123306), entity2=??? (ID: 17969926/0x01123306), string="xxxx")
 27: 0x0134 [0x01] GOTO 0x0162
 28: 0x0137 [0x02] IF !(LocalPlayer->Race == 8*) GOTO 0x0162
 29: 0x013F [0x5F] MULTI_HANDLER_COMPLEX(mode=0x04 - Load ext scheduler (OpCode 0x5B mode 1), ref=204*, entity1=LocalPlayer, entity2=LocalPlayer, string="xxxx")
 30: 0x014F [0x5F] MULTI_HANDLER_COMPLEX(mode=0x03 - Load ext scheduler (OpCode 0x5B mode 0), ref=3878*, entity1=??? (ID: 17969926/0x01123306), entity2=??? (ID: 17969926/0x01123306), string="xxxx")
 31: 0x015F [0x01] GOTO 0x0162

SUBROUTINE_0162:
 32: 0x0162 [0x00] END_REQSTACK()
```
