# 17969962

## Common Data

| Field            | Value                |
|------------------|----------------------|
| Zone             | Reisenjima (ID: 291) |
| Block Size       | 208 bytes            |
| Total Events     | 4                    |
| References Count | 3                    |

## List of Events

| Event ID                 | Entrypoint   |   Size |   Instructions |
|--------------------------|--------------|--------|----------------|
| [65535](#event-65535)    | 0x0000       |      1 |              1 |
| [4](#event-4)            | 0x0001       |      1 |              1 |
| [5](#event-5)            | 0x0002       |      1 |              1 |
| [65535.1](#event-655351) | 0x0003       |    158 |             16 |

## DAT References (imed_data)

|   Index | Hex Value   |   Dec Value |
|---------|-------------|-------------|
|       0 | 0x000E      |          14 |
|       1 | 0x0000      |           0 |
|       2 | 0x001E      |          30 |

## Events

### Event 65535

#### Metadata

| Field        | Value   |
|--------------|---------|
| Entrypoint   | 0x0000  |
| Data Size    | 1 bytes |
| Instructions | 1       |

```
      00 01 02 03 04 05 06 07  08 09 0A 0B 0C 0D 0E 0F
      -- -- -- -- -- -- -- --  -- -- -- -- -- -- -- --
0000: 00                                                .               
```

#### Opcodes

```
  0: 0x0000 [0x00] END_REQSTACK()
```

### Event 4

#### Metadata

| Field        | Value   |
|--------------|---------|
| Entrypoint   | 0x0001  |
| Data Size    | 1 bytes |
| Instructions | 1       |

```
      00 01 02 03 04 05 06 07  08 09 0A 0B 0C 0D 0E 0F
      -- -- -- -- -- -- -- --  -- -- -- -- -- -- -- --
0000:    00                                              .              
```

#### Opcodes

```
  0: 0x0001 [0x00] END_REQSTACK()
```

### Event 5

#### Metadata

| Field        | Value   |
|--------------|---------|
| Entrypoint   | 0x0002  |
| Data Size    | 1 bytes |
| Instructions | 1       |

```
      00 01 02 03 04 05 06 07  08 09 0A 0B 0C 0D 0E 0F
      -- -- -- -- -- -- -- --  -- -- -- -- -- -- -- --
0000:       00                                            .             
```

#### Opcodes

```
  0: 0x0002 [0x00] END_REQSTACK()
```

### Event 65535.1

#### Metadata

| Field        | Value     |
|--------------|-----------|
| Entrypoint   | 0x0003    |
| Data Size    | 158 bytes |
| Instructions | 16        |

```
      00 01 02 03 04 05 06 07  08 09 0A 0B 0C 0D 0E 0F
      -- -- -- -- -- -- -- --  -- -- -- -- -- -- -- --
0000:          D5 00 80 10 33  12 01 10 33 12 01 74 61     ....3...3..ta
0010: 6D 61 01 80 1C 02 80 D5  00 80 14 33 12 01 14 33  ma.........3...3
0020: 12 01 74 61 6D 61 01 80  1C 02 80 D5 00 80 1E 33  ..tama.........3
0030: 12 01 1E 33 12 01 74 61  6D 61 01 80 1C 02 80 D5  ...3..tama......
0040: 00 80 1C 33 12 01 1C 33  12 01 74 61 6D 61 01 80  ...3...3..tama..
0050: 1C 02 80 D5 00 80 1D 33  12 01 1D 33 12 01 74 61  .......3...3..ta
0060: 6D 61 01 80 1C 02 80 D5  00 80 13 33 12 01 13 33  ma.........3...3
0070: 12 01 74 61 6D 61 01 80  1C 02 80 D5 00 80 17 33  ..tama.........3
0080: 12 01 17 33 12 01 74 61  6D 61 01 80 1C 02 80 D5  ...3..tama......
0090: 00 80 18 33 12 01 18 33  12 01 74 61 6D 61 01 80  ...3...3..tama..
00A0: 00                                                .               
```

#### Opcodes

```
  0: 0x0003 [0xD5] LOAD_EVENT_SCHEDULER_ALT8: Load scheduler "ta" with entities [Arciela (ID: 17969936/0x01123310), Arciela (ID: 17969936/0x01123310)], work=ExtData[1]->WorkLocal[1]
  1: 0x0014 [0x1C] WAIT(30* ticks)
  2: 0x0017 [0xD5] LOAD_EVENT_SCHEDULER_ALT8: Load scheduler "ta" with entities [Volker (ID: 17969940/0x01123314), Volker (ID: 17969940/0x01123314)], work=ExtData[1]->WorkLocal[1]
  3: 0x0028 [0x1C] WAIT(30* ticks)
  4: 0x002B [0xD5] LOAD_EVENT_SCHEDULER_ALT8: Load scheduler "ta" with entities [Luzaf (ID: 17969950/0x0112331E), Luzaf (ID: 17969950/0x0112331E)], work=ExtData[1]->WorkLocal[1]
  5: 0x003C [0x1C] WAIT(30* ticks)
  6: 0x003F [0xD5] LOAD_EVENT_SCHEDULER_ALT8: Load scheduler "ta" with entities [Ovjang (ID: 17969948/0x0112331C), Ovjang (ID: 17969948/0x0112331C)], work=ExtData[1]->WorkLocal[1]
  7: 0x0050 [0x1C] WAIT(30* ticks)
  8: 0x0053 [0xD5] LOAD_EVENT_SCHEDULER_ALT8: Load scheduler "ta" with entities [Mnejing (ID: 17969949/0x0112331D), Mnejing (ID: 17969949/0x0112331D)], work=ExtData[1]->WorkLocal[1]
  9: 0x0064 [0x1C] WAIT(30* ticks)
 10: 0x0067 [0xD5] LOAD_EVENT_SCHEDULER_ALT8: Load scheduler "ta" with entities [Zeid (ID: 17969939/0x01123313), Zeid (ID: 17969939/0x01123313)], work=ExtData[1]->WorkLocal[1]
 11: 0x0078 [0x1C] WAIT(30* ticks)
 12: 0x007B [0xD5] LOAD_EVENT_SCHEDULER_ALT8: Load scheduler "ta" with entities [Shantotto (ID: 17969943/0x01123317), Shantotto (ID: 17969943/0x01123317)], work=ExtData[1]->WorkLocal[1]
 13: 0x008C [0x1C] WAIT(30* ticks)
 14: 0x008F [0xD5] LOAD_EVENT_SCHEDULER_ALT8: Load scheduler "ta" with entities [Ajido-Marujido (ID: 17969944/0x01123318), Ajido-Marujido (ID: 17969944/0x01123318)], work=ExtData[1]->WorkLocal[1]
 15: 0x00A0 [0x00] END_REQSTACK()
```
