# 17969919

## Common Data

| Field            | Value                |
|------------------|----------------------|
| Zone             | Reisenjima (ID: 291) |
| Block Size       | 208 bytes            |
| Total Events     | 8                    |
| References Count | 5                    |

## List of Events

| Event ID                 | Entrypoint   |   Size |   Instructions |
|--------------------------|--------------|--------|----------------|
| [65535](#event-65535)    | 0x0000       |      1 |              1 |
| [65535.1](#event-655351) | 0x0001       |      4 |              2 |
| [9](#event-9)            | 0x0005       |      1 |              1 |
| [65535.2](#event-655352) | 0x0006       |     33 |              3 |
| [65535.3](#event-655353) | 0x0027       |     49 |              4 |
| [65535.4](#event-655354) | 0x0058       |     33 |              3 |
| [65535.5](#event-655355) | 0x0079       |     14 |              4 |
| [65535.6](#event-655356) | 0x0087       |      3 |              2 |

## DAT References (imed_data)

|   Index | Hex Value   |   Dec Value |
|---------|-------------|-------------|
|       0 | 0x0F49      |        3913 |
|       1 | 0x0F75      |        3957 |
|       2 | 0x0F4A      |        3914 |
|       3 | 0x0F76      |        3958 |
|       4 | 0x0000      |           0 |

## Events

### Event 65535

#### Metadata

| Field        | Value   |
|--------------|---------|
| Entrypoint   | 0x0000  |
| Data Size    | 1 bytes |
| Instructions | 1       |

```
      00 01 02 03 04 05 06 07  08 09 0A 0B 0C 0D 0E 0F
      -- -- -- -- -- -- -- --  -- -- -- -- -- -- -- --
0000: 00                                                .               
```

#### Opcodes

```
  0: 0x0000 [0x00] END_REQSTACK()
```

### Event 65535.1

#### Metadata

| Field        | Value   |
|--------------|---------|
| Entrypoint   | 0x0001  |
| Data Size    | 4 bytes |
| Instructions | 2       |

```
      00 01 02 03 04 05 06 07  08 09 0A 0B 0C 0D 0E 0F
      -- -- -- -- -- -- -- --  -- -- -- -- -- -- -- --
0000:    1C 02 10 00                                     ....           
```

#### Opcodes

```
  0: 0x0001 [0x1C] WAIT(Work_Zone[2] ticks)
  1: 0x0004 [0x00] END_REQSTACK()
```

### Event 9

#### Metadata

| Field        | Value   |
|--------------|---------|
| Entrypoint   | 0x0005  |
| Data Size    | 1 bytes |
| Instructions | 1       |

```
      00 01 02 03 04 05 06 07  08 09 0A 0B 0C 0D 0E 0F
      -- -- -- -- -- -- -- --  -- -- -- -- -- -- -- --
0000:                00                                      .          
```

#### Opcodes

```
  0: 0x0005 [0x00] END_REQSTACK()
```

### Event 65535.2

#### Metadata

| Field        | Value    |
|--------------|----------|
| Entrypoint   | 0x0006   |
| Data Size    | 33 bytes |
| Instructions | 3        |

```
      00 01 02 03 04 05 06 07  08 09 0A 0B 0C 0D 0E 0F
      -- -- -- -- -- -- -- --  -- -- -- -- -- -- -- --
0000:                   5F 03  00 80 23 33 12 01 23 33        _...#3..#3
0010: 12 01 78 78 78 78 5F 03  01 80 25 33 12 01 25 33  ..xxxx_...%3..%3
0020: 12 01 78 78 78 78 00                              ..xxxx.         
```

#### Opcodes

```
  0: 0x0006 [0x5F] MULTI_HANDLER_COMPLEX(mode=0x03 - Load ext scheduler (OpCode 0x5B mode 0), ref=3913*, entity1=Iroha (ID: 17969955/0x01123323), entity2=Iroha (ID: 17969955/0x01123323), string="xxxx")
  1: 0x0016 [0x5F] MULTI_HANDLER_COMPLEX(mode=0x03 - Load ext scheduler (OpCode 0x5B mode 0), ref=3957*, entity1=Unnamed NPC (ID: 17969957/0x01123325), entity2=Unnamed NPC (ID: 17969957/0x01123325), string="xxxx")
  2: 0x0026 [0x00] END_REQSTACK()
```

### Event 65535.3

#### Metadata

| Field        | Value    |
|--------------|----------|
| Entrypoint   | 0x0027   |
| Data Size    | 49 bytes |
| Instructions | 4        |

```
      00 01 02 03 04 05 06 07  08 09 0A 0B 0C 0D 0E 0F
      -- -- -- -- -- -- -- --  -- -- -- -- -- -- -- --
0020:                      5F  03 02 80 24 33 12 01 24         _...$3..$
0030: 33 12 01 78 78 78 78 5F  03 01 80 25 33 12 01 25  3..xxxx_...%3..%
0040: 33 12 01 78 78 78 78 5F  03 03 80 26 33 12 01 26  3..xxxx_...&3..&
0050: 33 12 01 78 78 78 78 00                           3..xxxx.        
```

#### Opcodes

```
  0: 0x0027 [0x5F] MULTI_HANDLER_COMPLEX(mode=0x03 - Load ext scheduler (OpCode 0x5B mode 0), ref=3914*, entity1=Iroha (ID: 17969956/0x01123324), entity2=Iroha (ID: 17969956/0x01123324), string="xxxx")
  1: 0x0037 [0x5F] MULTI_HANDLER_COMPLEX(mode=0x03 - Load ext scheduler (OpCode 0x5B mode 0), ref=3957*, entity1=Unnamed NPC (ID: 17969957/0x01123325), entity2=Unnamed NPC (ID: 17969957/0x01123325), string="xxxx")
  2: 0x0047 [0x5F] MULTI_HANDLER_COMPLEX(mode=0x03 - Load ext scheduler (OpCode 0x5B mode 0), ref=3958*, entity1=Unnamed NPC (ID: 17969958/0x01123326), entity2=Unnamed NPC (ID: 17969958/0x01123326), string="xxxx")
  3: 0x0057 [0x00] END_REQSTACK()
```

### Event 65535.4

#### Metadata

| Field        | Value    |
|--------------|----------|
| Entrypoint   | 0x0058   |
| Data Size    | 33 bytes |
| Instructions | 3        |

```
      00 01 02 03 04 05 06 07  08 09 0A 0B 0C 0D 0E 0F
      -- -- -- -- -- -- -- --  -- -- -- -- -- -- -- --
0050:                          5F 03 02 80 24 33 12 01          _...$3..
0060: 24 33 12 01 78 78 78 78  5F 03 03 80 26 33 12 01  $3..xxxx_...&3..
0070: 26 33 12 01 78 78 78 78  00                       &3..xxxx.       
```

#### Opcodes

```
  0: 0x0058 [0x5F] MULTI_HANDLER_COMPLEX(mode=0x03 - Load ext scheduler (OpCode 0x5B mode 0), ref=3914*, entity1=Iroha (ID: 17969956/0x01123324), entity2=Iroha (ID: 17969956/0x01123324), string="xxxx")
  1: 0x0068 [0x5F] MULTI_HANDLER_COMPLEX(mode=0x03 - Load ext scheduler (OpCode 0x5B mode 0), ref=3958*, entity1=Unnamed NPC (ID: 17969958/0x01123326), entity2=Unnamed NPC (ID: 17969958/0x01123326), string="xxxx")
  2: 0x0078 [0x00] END_REQSTACK()
```

### Event 65535.5

#### Metadata

| Field        | Value    |
|--------------|----------|
| Entrypoint   | 0x0079   |
| Data Size    | 14 bytes |
| Instructions | 4        |

```
      00 01 02 03 04 05 06 07  08 09 0A 0B 0C 0D 0E 0F
      -- -- -- -- -- -- -- --  -- -- -- -- -- -- -- --
0070:                             03 00 00 02 10 71 50           .....qP
0080: 04 80 71 52 00 00 00                              ..qR...         
```

#### Opcodes

```
  0: 0x0079 [0x03] ExtData[1]->WorkLocal[0] = Work_Zone[2]
  1: 0x007E [0x71] USER_INPUT_HANDLER: Menu/character process A (work=0*)
  2: 0x0082 [0x71] USER_INPUT_HANDLER: Menu/character process B (work=ExtData[1]->WorkLocal[0])
  3: 0x0086 [0x00] END_REQSTACK()
```

### Event 65535.6

#### Metadata

| Field        | Value   |
|--------------|---------|
| Entrypoint   | 0x0087  |
| Data Size    | 3 bytes |
| Instructions | 2       |

```
      00 01 02 03 04 05 06 07  08 09 0A 0B 0C 0D 0E 0F
      -- -- -- -- -- -- -- --  -- -- -- -- -- -- -- --
0080:                      71  51 00                           qQ.      
```

#### Opcodes

```
  0: 0x0087 [0x71] USER_INPUT_HANDLER: Menu/character check
  1: 0x0089 [0x00] END_REQSTACK()
```
