# 17969920

## Common Data

| Field            | Value                |
|------------------|----------------------|
| Zone             | Reisenjima (ID: 291) |
| Block Size       | 1116 bytes           |
| Total Events     | 6                    |
| References Count | 12                   |

## List of Events

| Event ID                 | Entrypoint   |   Size |   Instructions |
|--------------------------|--------------|--------|----------------|
| [65535](#event-65535)    | 0x0000       |      1 |              1 |
| [9](#event-9)            | 0x0001       |      1 |              1 |
| [65535.1](#event-655351) | 0x0002       |     52 |              6 |
| [65535.2](#event-655352) | 0x0036       |     52 |              6 |
| [65535.3](#event-655353) | 0x006A       |    632 |             55 |
| [65535.4](#event-655354) | 0x02E2       |    290 |             20 |

## DAT References (imed_data)

|   Index | Hex Value   |   Dec Value |
|---------|-------------|-------------|
|       0 | 0x0D73      |        3443 |
|       1 | 0x00E8      |         232 |
|       2 | 0x0084      |         132 |
|       3 | 0x0EF6      |        3830 |
|       4 | 0x003C      |          60 |
|       5 | 0x0854      |        2132 |
|       6 | 0x0273      |         627 |
|       7 | 0x031E      |         798 |
|       8 | 0x0000      |           0 |
|       9 | 0x0348      |         840 |
|      10 | 0x00E7      |         231 |
|      11 | 0x0078      |         120 |

## Events

### Event 65535

#### Metadata

| Field        | Value   |
|--------------|---------|
| Entrypoint   | 0x0000  |
| Data Size    | 1 bytes |
| Instructions | 1       |

```
      00 01 02 03 04 05 06 07  08 09 0A 0B 0C 0D 0E 0F
      -- -- -- -- -- -- -- --  -- -- -- -- -- -- -- --
0000: 00                                                .               
```

#### Opcodes

```
  0: 0x0000 [0x00] END_REQSTACK()
```

### Event 9

#### Metadata

| Field        | Value   |
|--------------|---------|
| Entrypoint   | 0x0001  |
| Data Size    | 1 bytes |
| Instructions | 1       |

```
      00 01 02 03 04 05 06 07  08 09 0A 0B 0C 0D 0E 0F
      -- -- -- -- -- -- -- --  -- -- -- -- -- -- -- --
0000:    00                                              .              
```

#### Opcodes

```
  0: 0x0001 [0x00] END_REQSTACK()
```

### Event 65535.1

#### Metadata

| Field        | Value    |
|--------------|----------|
| Entrypoint   | 0x0002   |
| Data Size    | 52 bytes |
| Instructions | 6        |

```
      00 01 02 03 04 05 06 07  08 09 0A 0B 0C 0D 0E 0F
      -- -- -- -- -- -- -- --  -- -- -- -- -- -- -- --
0000:       5B 00 80 05 33 12  01 05 33 12 01 63 31 30    [...3...3..c10
0010: 61 1C 01 80 5B 00 80 05  33 12 01 05 33 12 01 63  a...[...3...3..c
0020: 31 30 62 1C 02 80 5B 00  80 05 33 12 01 05 33 12  10b...[...3...3.
0030: 01 63 31 31 61 00                                 .c11a.          
```

#### Opcodes

```
  0: 0x0002 [0x5B] LOAD_EXT_SCHEDULER: Load scheduler "c10a" with entities [Unnamed NPC (ID: 17969925/0x01123305), Unnamed NPC (ID: 17969925/0x01123305)], work=3443*
  1: 0x0011 [0x1C] WAIT(232* ticks)
  2: 0x0014 [0x5B] LOAD_EXT_SCHEDULER: Load scheduler "c10b" with entities [Unnamed NPC (ID: 17969925/0x01123305), Unnamed NPC (ID: 17969925/0x01123305)], work=3443*
  3: 0x0023 [0x1C] WAIT(132* ticks)
  4: 0x0026 [0x5B] LOAD_EXT_SCHEDULER: Load scheduler "c11a" with entities [Unnamed NPC (ID: 17969925/0x01123305), Unnamed NPC (ID: 17969925/0x01123305)], work=3443*
  5: 0x0035 [0x00] END_REQSTACK()
```

### Event 65535.2

#### Metadata

| Field        | Value    |
|--------------|----------|
| Entrypoint   | 0x0036   |
| Data Size    | 52 bytes |
| Instructions | 6        |

```
      00 01 02 03 04 05 06 07  08 09 0A 0B 0C 0D 0E 0F
      -- -- -- -- -- -- -- --  -- -- -- -- -- -- -- --
0030:                   5B 03  80 10 33 12 01 10 33 12        [...3...3.
0040: 01 6B 61 6E 30 1C 04 80  5B 05 80 0F 33 12 01 0F  .kan0...[...3...
0050: 33 12 01 74 6C 63 30 1C  04 80 5B 06 80 0D 33 12  3..tlc0...[...3.
0060: 01 0D 33 12 01 73 74 32  68 00                    ..3..st2h.      
```

#### Opcodes

```
  0: 0x0036 [0x5B] LOAD_EXT_SCHEDULER: Load scheduler "kan0" with entities [Arciela (ID: 17969936/0x01123310), Arciela (ID: 17969936/0x01123310)], work=3830*
  1: 0x0045 [0x1C] WAIT(60* ticks)
  2: 0x0048 [0x5B] LOAD_EXT_SCHEDULER: Load scheduler "tlc0" with entities [Lilisette (ID: 17969935/0x0112330F), Lilisette (ID: 17969935/0x0112330F)], work=2132*
  3: 0x0057 [0x1C] WAIT(60* ticks)
  4: 0x005A [0x5B] LOAD_EXT_SCHEDULER: Load scheduler "st2h" with entities [Prishe (ID: 17969933/0x0112330D), Prishe (ID: 17969933/0x0112330D)], work=627*
  5: 0x0069 [0x00] END_REQSTACK()
```

### Event 65535.3

#### Metadata

| Field        | Value     |
|--------------|-----------|
| Entrypoint   | 0x006A    |
| Data Size    | 632 bytes |
| Instructions | 55        |

```
      00 01 02 03 04 05 06 07  08 09 0A 0B 0C 0D 0E 0F
      -- -- -- -- -- -- -- --  -- -- -- -- -- -- -- --
0060:                                45 07 80 F8 FF FF            E.....
0070: 7F F8 FF FF 7F 63 72 30  32 08 80 1C 09 80 52 07  .....cr02.....R.
0080: 80 F8 FF FF 7F F8 FF FF  7F 63 72 30 32 45 07 80  .........cr02E..
0090: F8 FF FF 7F F8 FF FF 7F  63 72 31 35 08 80 1C 09  ........cr15....
00A0: 80 52 07 80 F8 FF FF 7F  F8 FF FF 7F 63 72 31 35  .R..........cr15
00B0: 45 07 80 F8 FF FF 7F F8  FF FF 7F 63 72 30 36 08  E..........cr06.
00C0: 80 1C 09 80 52 07 80 F8  FF FF 7F F8 FF FF 7F 63  ....R..........c
00D0: 72 30 36 45 07 80 F8 FF  FF 7F F8 FF FF 7F 63 72  r06E..........cr
00E0: 30 33 08 80 1C 09 80 52  07 80 F8 FF FF 7F F8 FF  03.....R........
00F0: FF 7F 63 72 30 33 45 07  80 F8 FF FF 7F F8 FF FF  ..cr03E.........
0100: 7F 63 72 30 31 08 80 1C  09 80 52 07 80 F8 FF FF  .cr01.....R.....
0110: 7F F8 FF FF 7F 63 72 30  31 45 07 80 F8 FF FF 7F  .....cr01E......
0120: F8 FF FF 7F 63 72 30 37  08 80 1C 09 80 52 07 80  ....cr07.....R..
0130: F8 FF FF 7F F8 FF FF 7F  63 72 30 37 45 07 80 F8  ........cr07E...
0140: FF FF 7F F8 FF FF 7F 63  72 30 34 08 80 1C 09 80  .......cr04.....
0150: 52 07 80 F8 FF FF 7F F8  FF FF 7F 63 72 30 34 45  R..........cr04E
0160: 07 80 F8 FF FF 7F F8 FF  FF 7F 63 72 30 35 08 80  ..........cr05..
0170: 1C 09 80 52 07 80 F8 FF  FF 7F F8 FF FF 7F 63 72  ...R..........cr
0180: 30 35 45 07 80 F8 FF FF  7F F8 FF FF 7F 63 72 30  05E..........cr0
0190: 38 08 80 1C 09 80 52 07  80 F8 FF FF 7F F8 FF FF  8.....R.........
01A0: 7F 63 72 30 38 45 07 80  F8 FF FF 7F F8 FF FF 7F  .cr08E..........
01B0: 63 72 30 39 08 80 1C 09  80 52 07 80 F8 FF FF 7F  cr09.....R......
01C0: F8 FF FF 7F 63 72 30 39  45 07 80 F8 FF FF 7F F8  ....cr09E.......
01D0: FF FF 7F 63 72 31 32 08  80 1C 09 80 52 07 80 F8  ...cr12.....R...
01E0: FF FF 7F F8 FF FF 7F 63  72 31 32 45 07 80 F8 FF  .......cr12E....
01F0: FF 7F F8 FF FF 7F 63 72  31 36 08 80 1C 09 80 52  ......cr16.....R
0200: 07 80 F8 FF FF 7F F8 FF  FF 7F 63 72 31 36 45 07  ..........cr16E.
0210: 80 F8 FF FF 7F F8 FF FF  7F 63 72 31 33 08 80 1C  .........cr13...
0220: 09 80 52 07 80 F8 FF FF  7F F8 FF FF 7F 63 72 31  ..R..........cr1
0230: 33 45 07 80 F8 FF FF 7F  F8 FF FF 7F 63 72 31 31  3E..........cr11
0240: 08 80 1C 09 80 52 07 80  F8 FF FF 7F F8 FF FF 7F  .....R..........
0250: 63 72 31 31 45 07 80 F8  FF FF 7F F8 FF FF 7F 63  cr11E..........c
0260: 72 31 30 08 80 1C 09 80  52 07 80 F8 FF FF 7F F8  r10.....R.......
0270: FF FF 7F 63 72 31 30 45  07 80 F8 FF FF 7F F8 FF  ...cr10E........
0280: FF 7F 63 72 31 34 08 80  1C 09 80 71 54 08 80 08  ..cr14.....qT...
0290: 80 08 80 08 80 52 07 80  F8 FF FF 7F F8 FF FF 7F  .....R..........
02A0: 63 72 31 34 45 07 80 F8  FF FF 7F F8 FF FF 7F 74  cr14E..........t
02B0: 6E 30 31 08 80 D0 01 80  04 33 12 01 04 33 12 01  n01......3...3..
02C0: 6B 69 6C 6C 08 80 D0 0A  80 04 33 12 01 04 33 12  kill......3...3.
02D0: 01 6B 69 6C 31 08 80 1C  0B 80 27 10 01 33 12 01  .kil1.....'..3..
02E0: 03 00                                             ..              
```

#### Opcodes

```
  0: 0x006A [0x45] LOAD_SCHEDULED_TASK: Load scheduler "cr02" with entities [EventEntity, EventEntity], work=[798*, 0*]
  1: 0x007B [0x1C] WAIT(840* ticks)
  2: 0x007E [0x52] END_LOAD_SCHEDULER: End scheduler "cr02" with entities [EventEntity, EventEntity], work=798*
  3: 0x008D [0x45] LOAD_SCHEDULED_TASK: Load scheduler "cr15" with entities [EventEntity, EventEntity], work=[798*, 0*]
  4: 0x009E [0x1C] WAIT(840* ticks)
  5: 0x00A1 [0x52] END_LOAD_SCHEDULER: End scheduler "cr15" with entities [EventEntity, EventEntity], work=798*
  6: 0x00B0 [0x45] LOAD_SCHEDULED_TASK: Load scheduler "cr06" with entities [EventEntity, EventEntity], work=[798*, 0*]
  7: 0x00C1 [0x1C] WAIT(840* ticks)
  8: 0x00C4 [0x52] END_LOAD_SCHEDULER: End scheduler "cr06" with entities [EventEntity, EventEntity], work=798*
  9: 0x00D3 [0x45] LOAD_SCHEDULED_TASK: Load scheduler "cr03" with entities [EventEntity, EventEntity], work=[798*, 0*]
 10: 0x00E4 [0x1C] WAIT(840* ticks)
 11: 0x00E7 [0x52] END_LOAD_SCHEDULER: End scheduler "cr03" with entities [EventEntity, EventEntity], work=798*
 12: 0x00F6 [0x45] LOAD_SCHEDULED_TASK: Load scheduler "cr01" with entities [EventEntity, EventEntity], work=[798*, 0*]
 13: 0x0107 [0x1C] WAIT(840* ticks)
 14: 0x010A [0x52] END_LOAD_SCHEDULER: End scheduler "cr01" with entities [EventEntity, EventEntity], work=798*
 15: 0x0119 [0x45] LOAD_SCHEDULED_TASK: Load scheduler "cr07" with entities [EventEntity, EventEntity], work=[798*, 0*]
 16: 0x012A [0x1C] WAIT(840* ticks)
 17: 0x012D [0x52] END_LOAD_SCHEDULER: End scheduler "cr07" with entities [EventEntity, EventEntity], work=798*
 18: 0x013C [0x45] LOAD_SCHEDULED_TASK: Load scheduler "cr04" with entities [EventEntity, EventEntity], work=[798*, 0*]
 19: 0x014D [0x1C] WAIT(840* ticks)
 20: 0x0150 [0x52] END_LOAD_SCHEDULER: End scheduler "cr04" with entities [EventEntity, EventEntity], work=798*
 21: 0x015F [0x45] LOAD_SCHEDULED_TASK: Load scheduler "cr05" with entities [EventEntity, EventEntity], work=[798*, 0*]
 22: 0x0170 [0x1C] WAIT(840* ticks)
 23: 0x0173 [0x52] END_LOAD_SCHEDULER: End scheduler "cr05" with entities [EventEntity, EventEntity], work=798*
 24: 0x0182 [0x45] LOAD_SCHEDULED_TASK: Load scheduler "cr08" with entities [EventEntity, EventEntity], work=[798*, 0*]
 25: 0x0193 [0x1C] WAIT(840* ticks)
 26: 0x0196 [0x52] END_LOAD_SCHEDULER: End scheduler "cr08" with entities [EventEntity, EventEntity], work=798*
 27: 0x01A5 [0x45] LOAD_SCHEDULED_TASK: Load scheduler "cr09" with entities [EventEntity, EventEntity], work=[798*, 0*]
 28: 0x01B6 [0x1C] WAIT(840* ticks)
 29: 0x01B9 [0x52] END_LOAD_SCHEDULER: End scheduler "cr09" with entities [EventEntity, EventEntity], work=798*
 30: 0x01C8 [0x45] LOAD_SCHEDULED_TASK: Load scheduler "cr12" with entities [EventEntity, EventEntity], work=[798*, 0*]
 31: 0x01D9 [0x1C] WAIT(840* ticks)
 32: 0x01DC [0x52] END_LOAD_SCHEDULER: End scheduler "cr12" with entities [EventEntity, EventEntity], work=798*
 33: 0x01EB [0x45] LOAD_SCHEDULED_TASK: Load scheduler "cr16" with entities [EventEntity, EventEntity], work=[798*, 0*]
 34: 0x01FC [0x1C] WAIT(840* ticks)
 35: 0x01FF [0x52] END_LOAD_SCHEDULER: End scheduler "cr16" with entities [EventEntity, EventEntity], work=798*
 36: 0x020E [0x45] LOAD_SCHEDULED_TASK: Load scheduler "cr13" with entities [EventEntity, EventEntity], work=[798*, 0*]
 37: 0x021F [0x1C] WAIT(840* ticks)
 38: 0x0222 [0x52] END_LOAD_SCHEDULER: End scheduler "cr13" with entities [EventEntity, EventEntity], work=798*
 39: 0x0231 [0x45] LOAD_SCHEDULED_TASK: Load scheduler "cr11" with entities [EventEntity, EventEntity], work=[798*, 0*]
 40: 0x0242 [0x1C] WAIT(840* ticks)
 41: 0x0245 [0x52] END_LOAD_SCHEDULER: End scheduler "cr11" with entities [EventEntity, EventEntity], work=798*
 42: 0x0254 [0x45] LOAD_SCHEDULED_TASK: Load scheduler "cr10" with entities [EventEntity, EventEntity], work=[798*, 0*]
 43: 0x0265 [0x1C] WAIT(840* ticks)
 44: 0x0268 [0x52] END_LOAD_SCHEDULER: End scheduler "cr10" with entities [EventEntity, EventEntity], work=798*
 45: 0x0277 [0x45] LOAD_SCHEDULED_TASK: Load scheduler "cr14" with entities [EventEntity, EventEntity], work=[798*, 0*]
 46: 0x0288 [0x1C] WAIT(840* ticks)
 47: 0x028B [0x71] USER_INPUT_HANDLER: Menu/character complex (params=[0x8008, 0x8008, 0x8008, 0x8008])
 48: 0x0295 [0x52] END_LOAD_SCHEDULER: End scheduler "cr14" with entities [EventEntity, EventEntity], work=798*
 49: 0x02A4 [0x45] LOAD_SCHEDULED_TASK: Load scheduler "tn01" with entities [EventEntity, EventEntity], work=[798*, 0*]
 50: 0x02B5 [0xD0] LOAD_SCHEDULED_TASK_ALT5: Load scheduler "kill" with entities [??? (ID: 17969924/0x01123304), ??? (ID: 17969924/0x01123304)], work=[232*, 0*]
 51: 0x02C6 [0xD0] LOAD_SCHEDULED_TASK_ALT5: Load scheduler "kil1" with entities [??? (ID: 17969924/0x01123304), ??? (ID: 17969924/0x01123304)], work=[231*, 0*]
 52: 0x02D7 [0x1C] WAIT(120* ticks)
 53: 0x02DA [0x27] REQ_SET(priority=0x10, entity_id=Unnamed NPC (ID: 17969921/0x01123301), tag_num=0x03)
 54: 0x02E1 [0x00] END_REQSTACK()
```

### Event 65535.4

#### Metadata

| Field        | Value     |
|--------------|-----------|
| Entrypoint   | 0x02E2    |
| Data Size    | 290 bytes |
| Instructions | 20        |

```
      00 01 02 03 04 05 06 07  08 09 0A 0B 0C 0D 0E 0F
      -- -- -- -- -- -- -- --  -- -- -- -- -- -- -- --
02E0:       52 07 80 F8 FF FF  7F F8 FF FF 7F 63 72 30    R..........cr0
02F0: 32 52 07 80 F8 FF FF 7F  F8 FF FF 7F 63 72 31 35  2R..........cr15
0300: 52 07 80 F8 FF FF 7F F8  FF FF 7F 63 72 30 36 52  R..........cr06R
0310: 07 80 F8 FF FF 7F F8 FF  FF 7F 63 72 30 33 52 07  ..........cr03R.
0320: 80 F8 FF FF 7F F8 FF FF  7F 63 72 30 31 52 07 80  .........cr01R..
0330: F8 FF FF 7F F8 FF FF 7F  63 72 30 37 52 07 80 F8  ........cr07R...
0340: FF FF 7F F8 FF FF 7F 63  72 30 34 52 07 80 F8 FF  .......cr04R....
0350: FF 7F F8 FF FF 7F 63 72  30 35 52 07 80 F8 FF FF  ......cr05R.....
0360: 7F F8 FF FF 7F 63 72 30  38 52 07 80 F8 FF FF 7F  .....cr08R......
0370: F8 FF FF 7F 63 72 30 39  52 07 80 F8 FF FF 7F F8  ....cr09R.......
0380: FF FF 7F 63 72 31 32 52  07 80 F8 FF FF 7F F8 FF  ...cr12R........
0390: FF 7F 63 72 31 36 52 07  80 F8 FF FF 7F F8 FF FF  ..cr16R.........
03A0: 7F 63 72 31 33 52 07 80  F8 FF FF 7F F8 FF FF 7F  .cr13R..........
03B0: 63 72 31 31 52 07 80 F8  FF FF 7F F8 FF FF 7F 63  cr11R..........c
03C0: 72 31 30 52 07 80 F8 FF  FF 7F F8 FF FF 7F 63 72  r10R..........cr
03D0: 31 34 52 07 80 F8 FF FF  7F F8 FF FF 7F 74 6E 30  14R..........tn0
03E0: 31 D0 01 80 04 33 12 01  04 33 12 01 6B 69 6C 6C  1....3...3..kill
03F0: 08 80 D0 0A 80 04 33 12  01 04 33 12 01 6B 69 6C  ......3...3..kil
0400: 31 08 80 00                                       1...            
```

#### Opcodes

```
  0: 0x02E2 [0x52] END_LOAD_SCHEDULER: End scheduler "cr02" with entities [EventEntity, EventEntity], work=798*
  1: 0x02F1 [0x52] END_LOAD_SCHEDULER: End scheduler "cr15" with entities [EventEntity, EventEntity], work=798*
  2: 0x0300 [0x52] END_LOAD_SCHEDULER: End scheduler "cr06" with entities [EventEntity, EventEntity], work=798*
  3: 0x030F [0x52] END_LOAD_SCHEDULER: End scheduler "cr03" with entities [EventEntity, EventEntity], work=798*
  4: 0x031E [0x52] END_LOAD_SCHEDULER: End scheduler "cr01" with entities [EventEntity, EventEntity], work=798*
  5: 0x032D [0x52] END_LOAD_SCHEDULER: End scheduler "cr07" with entities [EventEntity, EventEntity], work=798*
  6: 0x033C [0x52] END_LOAD_SCHEDULER: End scheduler "cr04" with entities [EventEntity, EventEntity], work=798*
  7: 0x034B [0x52] END_LOAD_SCHEDULER: End scheduler "cr05" with entities [EventEntity, EventEntity], work=798*
  8: 0x035A [0x52] END_LOAD_SCHEDULER: End scheduler "cr08" with entities [EventEntity, EventEntity], work=798*
  9: 0x0369 [0x52] END_LOAD_SCHEDULER: End scheduler "cr09" with entities [EventEntity, EventEntity], work=798*
 10: 0x0378 [0x52] END_LOAD_SCHEDULER: End scheduler "cr12" with entities [EventEntity, EventEntity], work=798*
 11: 0x0387 [0x52] END_LOAD_SCHEDULER: End scheduler "cr16" with entities [EventEntity, EventEntity], work=798*
 12: 0x0396 [0x52] END_LOAD_SCHEDULER: End scheduler "cr13" with entities [EventEntity, EventEntity], work=798*
 13: 0x03A5 [0x52] END_LOAD_SCHEDULER: End scheduler "cr11" with entities [EventEntity, EventEntity], work=798*
 14: 0x03B4 [0x52] END_LOAD_SCHEDULER: End scheduler "cr10" with entities [EventEntity, EventEntity], work=798*
 15: 0x03C3 [0x52] END_LOAD_SCHEDULER: End scheduler "cr14" with entities [EventEntity, EventEntity], work=798*
 16: 0x03D2 [0x52] END_LOAD_SCHEDULER: End scheduler "tn01" with entities [EventEntity, EventEntity], work=798*
 17: 0x03E1 [0xD0] LOAD_SCHEDULED_TASK_ALT5: Load scheduler "kill" with entities [??? (ID: 17969924/0x01123304), ??? (ID: 17969924/0x01123304)], work=[232*, 0*]
 18: 0x03F2 [0xD0] LOAD_SCHEDULED_TASK_ALT5: Load scheduler "kil1" with entities [??? (ID: 17969924/0x01123304), ??? (ID: 17969924/0x01123304)], work=[231*, 0*]
 19: 0x0403 [0x00] END_REQSTACK()
```
