# 17969930

## Common Data

| Field            | Value                |
|------------------|----------------------|
| Zone             | Reisenjima (ID: 291) |
| Block Size       | 1008 bytes           |
| Total Events     | 8                    |
| References Count | 20                   |

## List of Events

| Event ID                 | Entrypoint   |   Size |   Instructions |
|--------------------------|--------------|--------|----------------|
| [65535](#event-65535)    | 0x0000       |      1 |              1 |
| [4](#event-4)            | 0x0001       |      4 |              2 |
| [5](#event-5)            | 0x0005       |      4 |              2 |
| [65535.1](#event-655351) | 0x0009       |     10 |              2 |
| [65535.2](#event-655352) | 0x0013       |     10 |              2 |
| [65535.3](#event-655353) | 0x001D       |    281 |             33 |
| [65535.4](#event-655354) | 0x0136       |    216 |             26 |
| [65535.5](#event-655355) | 0x020E       |    352 |             34 |

## DAT References (imed_data)

|   Index | Hex Value   |   Dec Value |
|---------|-------------|-------------|
|       0 | 0x0001      |           1 |
|       1 | 0x0000      |           0 |
|       2 | 0x0080      |         128 |
|       3 | 0x0184      |         388 |
|       4 | 0x00E6      |         230 |
|       5 | 0x0064      |         100 |
|       6 | 0x0002      |           2 |
|       7 | 0x0003      |           3 |
|       8 | 0x0004      |           4 |
|       9 | 0x0005      |           5 |
|      10 | 0x0006      |           6 |
|      11 | 0x0007      |           7 |
|      12 | 0x0008      |           8 |
|      13 | 0x0092      |         146 |
|      14 | 0x009C      |         156 |
|      15 | 0x00A6      |         166 |
|      16 | 0x00B0      |         176 |
|      17 | 0x00BA      |         186 |
|      18 | 0x00C4      |         196 |
|      19 | 0x00CE      |         206 |

## Events

### Event 65535

#### Metadata

| Field        | Value   |
|--------------|---------|
| Entrypoint   | 0x0000  |
| Data Size    | 1 bytes |
| Instructions | 1       |

```
      00 01 02 03 04 05 06 07  08 09 0A 0B 0C 0D 0E 0F
      -- -- -- -- -- -- -- --  -- -- -- -- -- -- -- --
0000: 00                                                .               
```

#### Opcodes

```
  0: 0x0000 [0x00] END_REQSTACK()
```

### Event 4

#### Metadata

| Field        | Value   |
|--------------|---------|
| Entrypoint   | 0x0001  |
| Data Size    | 4 bytes |
| Instructions | 2       |

```
      00 01 02 03 04 05 06 07  08 09 0A 0B 0C 0D 0E 0F
      -- -- -- -- -- -- -- --  -- -- -- -- -- -- -- --
0000:    C0 00 80 00                                     ....           
```

#### Opcodes

```
  0: 0x0001 [0xC0] EventEntity->Render.Flags3 |= 0x1000 // Set bit 12 (from 1*)
  1: 0x0004 [0x00] END_REQSTACK()
```

### Event 5

#### Metadata

| Field        | Value   |
|--------------|---------|
| Entrypoint   | 0x0005  |
| Data Size    | 4 bytes |
| Instructions | 2       |

```
      00 01 02 03 04 05 06 07  08 09 0A 0B 0C 0D 0E 0F
      -- -- -- -- -- -- -- --  -- -- -- -- -- -- -- --
0000:                C0 00 80  00                            ....       
```

#### Opcodes

```
  0: 0x0005 [0xC0] EventEntity->Render.Flags3 |= 0x1000 // Set bit 12 (from 1*)
  1: 0x0008 [0x00] END_REQSTACK()
```

### Event 65535.1

#### Metadata

| Field        | Value    |
|--------------|----------|
| Entrypoint   | 0x0009   |
| Data Size    | 10 bytes |
| Instructions | 2        |

```
      00 01 02 03 04 05 06 07  08 09 0A 0B 0C 0D 0E 0F
      -- -- -- -- -- -- -- --  -- -- -- -- -- -- -- --
0000:                             6C F8 FF FF 7F 01 80           l......
0010: 00 80 00                                          ...             
```

#### Opcodes

```
  0: 0x0009 [0x6C] FADE_ENTITY_COLOR(entity_id=EventEntity, end_alpha=0*, fade_time=1*)
  1: 0x0012 [0x00] END_REQSTACK()
```

### Event 65535.2

#### Metadata

| Field        | Value    |
|--------------|----------|
| Entrypoint   | 0x0013   |
| Data Size    | 10 bytes |
| Instructions | 2        |

```
      00 01 02 03 04 05 06 07  08 09 0A 0B 0C 0D 0E 0F
      -- -- -- -- -- -- -- --  -- -- -- -- -- -- -- --
0010:          6C F8 FF FF 7F  02 80 00 80 00              l.........   
```

#### Opcodes

```
  0: 0x0013 [0x6C] FADE_ENTITY_COLOR(entity_id=EventEntity, end_alpha=128*, fade_time=1*)
  1: 0x001C [0x00] END_REQSTACK()
```

### Event 65535.3

#### Metadata

| Field        | Value     |
|--------------|-----------|
| Entrypoint   | 0x001D    |
| Data Size    | 281 bytes |
| Instructions | 33        |

```
      00 01 02 03 04 05 06 07  08 09 0A 0B 0C 0D 0E 0F
      -- -- -- -- -- -- -- --  -- -- -- -- -- -- -- --
0010:                                         02 02 10               ...
0020: 00 80 80 40 00 B6 0B 00  80 03 10 03 80 04 80 04  ...@............
0030: 80 04 80 04 80 01 80 01  80 B6 0F 05 80 01 35 01  ..............5.
0040: 02 02 10 06 80 80 63 00  B6 0B 06 80 03 10 03 80  ......c.........
0050: 04 80 04 80 04 80 04 80  01 80 01 80 B6 0F 05 80  ................
0060: 01 35 01 02 02 10 07 80  80 86 00 B6 0B 07 80 03  .5..............
0070: 10 03 80 04 80 04 80 04  80 04 80 01 80 01 80 B6  ................
0080: 0F 05 80 01 35 01 02 02  10 08 80 80 A9 00 B6 0B  ....5...........
0090: 08 80 03 10 03 80 04 80  04 80 04 80 04 80 01 80  ................
00A0: 01 80 B6 0F 05 80 01 35  01 02 02 10 09 80 80 CC  .......5........
00B0: 00 B6 0B 09 80 03 10 03  80 04 80 04 80 04 80 04  ................
00C0: 80 01 80 01 80 B6 0F 05  80 01 35 01 02 02 10 0A  ..........5.....
00D0: 80 80 EF 00 B6 0B 0A 80  03 10 03 80 04 80 04 80  ................
00E0: 04 80 04 80 01 80 01 80  B6 0F 05 80 01 35 01 02  .............5..
00F0: 02 10 0B 80 80 12 01 B6  0B 0B 80 03 10 03 80 04  ................
0100: 80 04 80 04 80 04 80 01  80 01 80 B6 0F 05 80 01  ................
0110: 35 01 02 02 10 0C 80 80  35 01 B6 0B 0C 80 03 10  5.......5.......
0120: 03 80 04 80 04 80 04 80  04 80 01 80 01 80 B6 0F  ................
0130: 05 80 01 35 01 00                                 ...5..          
```

#### Opcodes

```
  0: 0x001D [0x02] IF !(Work_Zone[2] == 1*) GOTO 0x0040
  1: 0x0025 [0xB6] ENTITY_APPEARANCE_HANDLER(case=Full entity look, race=1*, hair=Work_Zone[3], head=388*, body=230*, hands=230*, legs=230*, feet=230*, main=0*, sub=0*)
  2: 0x0039 [0xB6] ENTITY_APPEARANCE_HANDLER(case=Model size, value=100*)
  3: 0x003D [0x01] GOTO 0x0135
  4: 0x0040 [0x02] IF !(Work_Zone[2] == 2*) GOTO 0x0063
  5: 0x0048 [0xB6] ENTITY_APPEARANCE_HANDLER(case=Full entity look, race=2*, hair=Work_Zone[3], head=388*, body=230*, hands=230*, legs=230*, feet=230*, main=0*, sub=0*)
  6: 0x005C [0xB6] ENTITY_APPEARANCE_HANDLER(case=Model size, value=100*)
  7: 0x0060 [0x01] GOTO 0x0135
  8: 0x0063 [0x02] IF !(Work_Zone[2] == 3*) GOTO 0x0086
  9: 0x006B [0xB6] ENTITY_APPEARANCE_HANDLER(case=Full entity look, race=3*, hair=Work_Zone[3], head=388*, body=230*, hands=230*, legs=230*, feet=230*, main=0*, sub=0*)
 10: 0x007F [0xB6] ENTITY_APPEARANCE_HANDLER(case=Model size, value=100*)
 11: 0x0083 [0x01] GOTO 0x0135
 12: 0x0086 [0x02] IF !(Work_Zone[2] == 4*) GOTO 0x00A9
 13: 0x008E [0xB6] ENTITY_APPEARANCE_HANDLER(case=Full entity look, race=4*, hair=Work_Zone[3], head=388*, body=230*, hands=230*, legs=230*, feet=230*, main=0*, sub=0*)
 14: 0x00A2 [0xB6] ENTITY_APPEARANCE_HANDLER(case=Model size, value=100*)
 15: 0x00A6 [0x01] GOTO 0x0135
 16: 0x00A9 [0x02] IF !(Work_Zone[2] == 5*) GOTO 0x00CC
 17: 0x00B1 [0xB6] ENTITY_APPEARANCE_HANDLER(case=Full entity look, race=5*, hair=Work_Zone[3], head=388*, body=230*, hands=230*, legs=230*, feet=230*, main=0*, sub=0*)
 18: 0x00C5 [0xB6] ENTITY_APPEARANCE_HANDLER(case=Model size, value=100*)
 19: 0x00C9 [0x01] GOTO 0x0135
 20: 0x00CC [0x02] IF !(Work_Zone[2] == 6*) GOTO 0x00EF
 21: 0x00D4 [0xB6] ENTITY_APPEARANCE_HANDLER(case=Full entity look, race=6*, hair=Work_Zone[3], head=388*, body=230*, hands=230*, legs=230*, feet=230*, main=0*, sub=0*)
 22: 0x00E8 [0xB6] ENTITY_APPEARANCE_HANDLER(case=Model size, value=100*)
 23: 0x00EC [0x01] GOTO 0x0135
 24: 0x00EF [0x02] IF !(Work_Zone[2] == 7*) GOTO 0x0112
 25: 0x00F7 [0xB6] ENTITY_APPEARANCE_HANDLER(case=Full entity look, race=7*, hair=Work_Zone[3], head=388*, body=230*, hands=230*, legs=230*, feet=230*, main=0*, sub=0*)
 26: 0x010B [0xB6] ENTITY_APPEARANCE_HANDLER(case=Model size, value=100*)
 27: 0x010F [0x01] GOTO 0x0135
 28: 0x0112 [0x02] IF !(Work_Zone[2] == 8*) GOTO 0x0135
 29: 0x011A [0xB6] ENTITY_APPEARANCE_HANDLER(case=Full entity look, race=8*, hair=Work_Zone[3], head=388*, body=230*, hands=230*, legs=230*, feet=230*, main=0*, sub=0*)
 30: 0x012E [0xB6] ENTITY_APPEARANCE_HANDLER(case=Model size, value=100*)
 31: 0x0132 [0x01] GOTO 0x0135

SUBROUTINE_0135:
 32: 0x0135 [0x00] END_REQSTACK()
```

### Event 65535.4

#### Metadata

| Field        | Value     |
|--------------|-----------|
| Entrypoint   | 0x0136    |
| Data Size    | 216 bytes |
| Instructions | 26        |

```
      00 01 02 03 04 05 06 07  08 09 0A 0B 0C 0D 0E 0F
      -- -- -- -- -- -- -- --  -- -- -- -- -- -- -- --
0130:                   29 10  F0 FF FF 7F 02 02 02 10        ).........
0140: 00 80 80 57 01 66 0D 80  0A 33 12 01 0A 33 12 01  ...W.f...3...3..
0150: 6D 65 74 30 01 0D 02 02  02 10 06 80 80 71 01 66  met0.........q.f
0160: 0E 80 0A 33 12 01 0A 33  12 01 6D 65 74 30 01 0D  ...3...3..met0..
0170: 02 02 02 10 07 80 80 8B  01 66 0F 80 0A 33 12 01  .........f...3..
0180: 0A 33 12 01 6D 65 74 30  01 0D 02 02 02 10 08 80  .3..met0........
0190: 80 A5 01 66 10 80 0A 33  12 01 0A 33 12 01 6D 65  ...f...3...3..me
01A0: 74 30 01 0D 02 02 02 10  09 80 80 BF 01 66 11 80  t0...........f..
01B0: 0A 33 12 01 0A 33 12 01  6D 65 74 30 01 0D 02 02  .3...3..met0....
01C0: 02 10 0A 80 80 D9 01 66  11 80 0A 33 12 01 0A 33  .......f...3...3
01D0: 12 01 6D 65 74 30 01 0D  02 02 02 10 0B 80 80 F3  ..met0..........
01E0: 01 66 12 80 0A 33 12 01  0A 33 12 01 6D 65 74 30  .f...3...3..met0
01F0: 01 0D 02 02 02 10 0C 80  80 0D 02 66 13 80 0A 33  ...........f...3
0200: 12 01 0A 33 12 01 6D 65  74 30 01 0D 02 00        ...3..met0....  
```

#### Opcodes

```
  0: 0x0136 [0x29] REQ_SET_WAIT(priority=0x10, entity_id=LocalPlayer, tag_num=0x02)
  1: 0x013D [0x02] IF !(Work_Zone[2] == 1*) GOTO 0x0157
  2: 0x0145 [0x66] LOAD_EXT_SCHEDULER_MAIN: Load scheduler "met0" with entities [Unnamed NPC (ID: 17969930/0x0112330A), Unnamed NPC (ID: 17969930/0x0112330A)], work=146*
  3: 0x0154 [0x01] GOTO 0x020D
  4: 0x0157 [0x02] IF !(Work_Zone[2] == 2*) GOTO 0x0171
  5: 0x015F [0x66] LOAD_EXT_SCHEDULER_MAIN: Load scheduler "met0" with entities [Unnamed NPC (ID: 17969930/0x0112330A), Unnamed NPC (ID: 17969930/0x0112330A)], work=156*
  6: 0x016E [0x01] GOTO 0x020D
  7: 0x0171 [0x02] IF !(Work_Zone[2] == 3*) GOTO 0x018B
  8: 0x0179 [0x66] LOAD_EXT_SCHEDULER_MAIN: Load scheduler "met0" with entities [Unnamed NPC (ID: 17969930/0x0112330A), Unnamed NPC (ID: 17969930/0x0112330A)], work=166*
  9: 0x0188 [0x01] GOTO 0x020D
 10: 0x018B [0x02] IF !(Work_Zone[2] == 4*) GOTO 0x01A5
 11: 0x0193 [0x66] LOAD_EXT_SCHEDULER_MAIN: Load scheduler "met0" with entities [Unnamed NPC (ID: 17969930/0x0112330A), Unnamed NPC (ID: 17969930/0x0112330A)], work=176*
 12: 0x01A2 [0x01] GOTO 0x020D
 13: 0x01A5 [0x02] IF !(Work_Zone[2] == 5*) GOTO 0x01BF
 14: 0x01AD [0x66] LOAD_EXT_SCHEDULER_MAIN: Load scheduler "met0" with entities [Unnamed NPC (ID: 17969930/0x0112330A), Unnamed NPC (ID: 17969930/0x0112330A)], work=186*
 15: 0x01BC [0x01] GOTO 0x020D
 16: 0x01BF [0x02] IF !(Work_Zone[2] == 6*) GOTO 0x01D9
 17: 0x01C7 [0x66] LOAD_EXT_SCHEDULER_MAIN: Load scheduler "met0" with entities [Unnamed NPC (ID: 17969930/0x0112330A), Unnamed NPC (ID: 17969930/0x0112330A)], work=186*
 18: 0x01D6 [0x01] GOTO 0x020D
 19: 0x01D9 [0x02] IF !(Work_Zone[2] == 7*) GOTO 0x01F3
 20: 0x01E1 [0x66] LOAD_EXT_SCHEDULER_MAIN: Load scheduler "met0" with entities [Unnamed NPC (ID: 17969930/0x0112330A), Unnamed NPC (ID: 17969930/0x0112330A)], work=196*
 21: 0x01F0 [0x01] GOTO 0x020D
 22: 0x01F3 [0x02] IF !(Work_Zone[2] == 8*) GOTO 0x020D
 23: 0x01FB [0x66] LOAD_EXT_SCHEDULER_MAIN: Load scheduler "met0" with entities [Unnamed NPC (ID: 17969930/0x0112330A), Unnamed NPC (ID: 17969930/0x0112330A)], work=206*
 24: 0x020A [0x01] GOTO 0x020D

SUBROUTINE_020D:
 25: 0x020D [0x00] END_REQSTACK()
```

### Event 65535.5

#### Metadata

| Field        | Value     |
|--------------|-----------|
| Entrypoint   | 0x020E    |
| Data Size    | 352 bytes |
| Instructions | 34        |

```
      00 01 02 03 04 05 06 07  08 09 0A 0B 0C 0D 0E 0F
      -- -- -- -- -- -- -- --  -- -- -- -- -- -- -- --
0200:                                            29 10                ).
0210: F0 FF FF 7F 02 02 02 10  00 80 80 40 02 66 0D 80  ...........@.f..
0220: 0A 33 12 01 0A 33 12 01  66 79 75 30 D5 06 80 0A  .3...3..fyu0....
0230: 33 12 01 0A 33 12 01 6B  61 6D 31 01 80 01 6D 03  3...3..kam1...m.
0240: 02 02 10 06 80 80 6B 02  66 0E 80 0A 33 12 01 0A  ......k.f...3...
0250: 33 12 01 66 79 75 30 D5  06 80 0A 33 12 01 0A 33  3..fyu0....3...3
0260: 12 01 6B 61 66 31 01 80  01 6D 03 02 02 10 07 80  ..kaf1...m......
0270: 80 96 02 66 0F 80 0A 33  12 01 0A 33 12 01 66 79  ...f...3...3..fy
0280: 75 30 D5 06 80 0A 33 12  01 0A 33 12 01 6B 61 76  u0....3...3..kav
0290: 31 01 80 01 6D 03 02 02  10 08 80 80 C1 02 66 10  1...m.........f.
02A0: 80 0A 33 12 01 0A 33 12  01 66 79 75 30 D5 06 80  ..3...3..fyu0...
02B0: 0A 33 12 01 0A 33 12 01  6B 61 76 31 01 80 01 6D  .3...3..kav1...m
02C0: 03 02 02 10 09 80 80 EC  02 66 11 80 0A 33 12 01  .........f...3..
02D0: 0A 33 12 01 66 79 75 30  D5 06 80 0A 33 12 01 0A  .3..fyu0....3...
02E0: 33 12 01 6B 61 74 31 01  80 01 6D 03 02 02 10 0A  3..kat1...m.....
02F0: 80 80 17 03 66 11 80 0A  33 12 01 0A 33 12 01 66  ....f...3...3..f
0300: 79 75 30 D5 06 80 0A 33  12 01 0A 33 12 01 6B 61  yu0....3...3..ka
0310: 74 31 01 80 01 6D 03 02  02 10 0B 80 80 42 03 66  t1...m.......B.f
0320: 12 80 0A 33 12 01 0A 33  12 01 66 79 75 30 D5 06  ...3...3..fyu0..
0330: 80 0A 33 12 01 0A 33 12  01 6B 61 66 31 01 80 01  ..3...3..kaf1...
0340: 6D 03 02 02 10 0C 80 80  6D 03 66 13 80 0A 33 12  m.......m.f...3.
0350: 01 0A 33 12 01 66 79 75  30 D5 06 80 0A 33 12 01  ..3..fyu0....3..
0360: 0A 33 12 01 6B 61 6D 31  01 80 01 6D 03 00        .3..kam1...m..  
```

#### Opcodes

```
  0: 0x020E [0x29] REQ_SET_WAIT(priority=0x10, entity_id=LocalPlayer, tag_num=0x02)
  1: 0x0215 [0x02] IF !(Work_Zone[2] == 1*) GOTO 0x0240
  2: 0x021D [0x66] LOAD_EXT_SCHEDULER_MAIN: Load scheduler "fyu0" with entities [Unnamed NPC (ID: 17969930/0x0112330A), Unnamed NPC (ID: 17969930/0x0112330A)], work=146*
  3: 0x022C [0xD5] LOAD_EVENT_SCHEDULER_ALT8: Load scheduler "ka" with entities [Unnamed NPC (ID: 17969930/0x0112330A), Unnamed NPC (ID: 17969930/0x0112330A)], work=ExtData[1]->WorkLocal[1]
  4: 0x023D [0x01] GOTO 0x036D
  5: 0x0240 [0x02] IF !(Work_Zone[2] == 2*) GOTO 0x026B
  6: 0x0248 [0x66] LOAD_EXT_SCHEDULER_MAIN: Load scheduler "fyu0" with entities [Unnamed NPC (ID: 17969930/0x0112330A), Unnamed NPC (ID: 17969930/0x0112330A)], work=156*
  7: 0x0257 [0xD5] LOAD_EVENT_SCHEDULER_ALT8: Load scheduler "ka" with entities [Unnamed NPC (ID: 17969930/0x0112330A), Unnamed NPC (ID: 17969930/0x0112330A)], work=ExtData[1]->WorkLocal[1]
  8: 0x0268 [0x01] GOTO 0x036D
  9: 0x026B [0x02] IF !(Work_Zone[2] == 3*) GOTO 0x0296
 10: 0x0273 [0x66] LOAD_EXT_SCHEDULER_MAIN: Load scheduler "fyu0" with entities [Unnamed NPC (ID: 17969930/0x0112330A), Unnamed NPC (ID: 17969930/0x0112330A)], work=166*
 11: 0x0282 [0xD5] LOAD_EVENT_SCHEDULER_ALT8: Load scheduler "ka" with entities [Unnamed NPC (ID: 17969930/0x0112330A), Unnamed NPC (ID: 17969930/0x0112330A)], work=ExtData[1]->WorkLocal[1]
 12: 0x0293 [0x01] GOTO 0x036D
 13: 0x0296 [0x02] IF !(Work_Zone[2] == 4*) GOTO 0x02C1
 14: 0x029E [0x66] LOAD_EXT_SCHEDULER_MAIN: Load scheduler "fyu0" with entities [Unnamed NPC (ID: 17969930/0x0112330A), Unnamed NPC (ID: 17969930/0x0112330A)], work=176*
 15: 0x02AD [0xD5] LOAD_EVENT_SCHEDULER_ALT8: Load scheduler "ka" with entities [Unnamed NPC (ID: 17969930/0x0112330A), Unnamed NPC (ID: 17969930/0x0112330A)], work=ExtData[1]->WorkLocal[1]
 16: 0x02BE [0x01] GOTO 0x036D
 17: 0x02C1 [0x02] IF !(Work_Zone[2] == 5*) GOTO 0x02EC
 18: 0x02C9 [0x66] LOAD_EXT_SCHEDULER_MAIN: Load scheduler "fyu0" with entities [Unnamed NPC (ID: 17969930/0x0112330A), Unnamed NPC (ID: 17969930/0x0112330A)], work=186*
 19: 0x02D8 [0xD5] LOAD_EVENT_SCHEDULER_ALT8: Load scheduler "ka" with entities [Unnamed NPC (ID: 17969930/0x0112330A), Unnamed NPC (ID: 17969930/0x0112330A)], work=ExtData[1]->WorkLocal[1]
 20: 0x02E9 [0x01] GOTO 0x036D
 21: 0x02EC [0x02] IF !(Work_Zone[2] == 6*) GOTO 0x0317
 22: 0x02F4 [0x66] LOAD_EXT_SCHEDULER_MAIN: Load scheduler "fyu0" with entities [Unnamed NPC (ID: 17969930/0x0112330A), Unnamed NPC (ID: 17969930/0x0112330A)], work=186*
 23: 0x0303 [0xD5] LOAD_EVENT_SCHEDULER_ALT8: Load scheduler "ka" with entities [Unnamed NPC (ID: 17969930/0x0112330A), Unnamed NPC (ID: 17969930/0x0112330A)], work=ExtData[1]->WorkLocal[1]
 24: 0x0314 [0x01] GOTO 0x036D
 25: 0x0317 [0x02] IF !(Work_Zone[2] == 7*) GOTO 0x0342
 26: 0x031F [0x66] LOAD_EXT_SCHEDULER_MAIN: Load scheduler "fyu0" with entities [Unnamed NPC (ID: 17969930/0x0112330A), Unnamed NPC (ID: 17969930/0x0112330A)], work=196*
 27: 0x032E [0xD5] LOAD_EVENT_SCHEDULER_ALT8: Load scheduler "ka" with entities [Unnamed NPC (ID: 17969930/0x0112330A), Unnamed NPC (ID: 17969930/0x0112330A)], work=ExtData[1]->WorkLocal[1]
 28: 0x033F [0x01] GOTO 0x036D
 29: 0x0342 [0x02] IF !(Work_Zone[2] == 8*) GOTO 0x036D
 30: 0x034A [0x66] LOAD_EXT_SCHEDULER_MAIN: Load scheduler "fyu0" with entities [Unnamed NPC (ID: 17969930/0x0112330A), Unnamed NPC (ID: 17969930/0x0112330A)], work=206*
 31: 0x0359 [0xD5] LOAD_EVENT_SCHEDULER_ALT8: Load scheduler "ka" with entities [Unnamed NPC (ID: 17969930/0x0112330A), Unnamed NPC (ID: 17969930/0x0112330A)], work=ExtData[1]->WorkLocal[1]
 32: 0x036A [0x01] GOTO 0x036D

SUBROUTINE_036D:
 33: 0x036D [0x00] END_REQSTACK()
```
