# 17969921

## Common Data

| Field            | Value                |
|------------------|----------------------|
| Zone             | Reisenjima (ID: 291) |
| Block Size       | 1404 bytes           |
| Total Events     | 12                   |
| References Count | 43                   |

## List of Events

| Event ID                 | Entrypoint   |   Size |   Instructions |
|--------------------------|--------------|--------|----------------|
| [65535](#event-65535)    | 0x0000       |      1 |              1 |
| [9](#event-9)            | 0x0001       |      1 |              1 |
| [65535.1](#event-655351) | 0x0002       |     33 |              9 |
| [65535.2](#event-655352) | 0x0023       |    479 |             85 |
| [4](#event-4)            | 0x0202       |      6 |              3 |
| [5](#event-5)            | 0x0208       |      6 |              3 |
| [65535.3](#event-655353) | 0x020E       |    341 |             21 |
| [65535.4](#event-655354) | 0x0363       |    103 |              7 |
| [65535.5](#event-655355) | 0x03CA       |     35 |              3 |
| [65535.6](#event-655356) | 0x03ED       |     52 |              4 |
| [65535.7](#event-655357) | 0x0421       |     52 |              4 |
| [65535.8](#event-655358) | 0x0455       |     58 |              6 |

## DAT References (imed_data)

|   Index | Hex Value   |   Dec Value |
|---------|-------------|-------------|
|       0 | 0x012C      |         300 |
|       1 | 0x0000      |           0 |
|       2 | 0x0005      |           5 |
|       3 | 0xFFFFFF42  |  4294967106 |
|       4 | 0x24BC6     |      150470 |
|       5 | 0xFFFFEF52  |  4294963026 |
|       6 | 0x037A      |         890 |
|       7 | 0x0081      |         129 |
|       8 | 0xFFFFFF41  |  4294967105 |
|       9 | 0xFFFFFF40  |  4294967104 |
|      10 | 0xFFFFFF3F  |  4294967103 |
|      11 | 0xFFFFFF3E  |  4294967102 |
|      12 | 0xFFFFFF3D  |  4294967101 |
|      13 | 0xFFFFFF3C  |  4294967100 |
|      14 | 0xFFFFFF3B  |  4294967099 |
|      15 | 0xFFFFFF3A  |  4294967098 |
|      16 | 0xFFFFFF39  |  4294967097 |
|      17 | 0xFFFFFF38  |  4294967096 |
|      18 | 0xFFFFFF37  |  4294967095 |
|      19 | 0xFFFFFF36  |  4294967094 |
|      20 | 0xFFFFFF35  |  4294967093 |
|      21 | 0xFFFFFF33  |  4294967091 |
|      22 | 0xFFFFFF32  |  4294967090 |
|      23 | 0xFFFFFF31  |  4294967089 |
|      24 | 0xFFFFFF30  |  4294967088 |
|      25 | 0xFFFFFF2F  |  4294967087 |
|      26 | 0xFFFFFF2E  |  4294967086 |
|      27 | 0xFFFFFF2D  |  4294967085 |
|      28 | 0xFFFFFF2C  |  4294967084 |
|      29 | 0xFFFFFF2B  |  4294967083 |
|      30 | 0x04B0      |        1200 |
|      31 | 0xFFFFFF34  |  4294967092 |
|      32 | 0x0258      |         600 |
|      33 | 0x4E20      |       20000 |
|      34 | 0x0384      |         900 |
|      35 | 0x0001      |           1 |
|      36 | 0x01A4      |         420 |
|      37 | 0xFFFFFF2A  |  4294967082 |
|      38 | 0x00AB      |         171 |
|      39 | 0x00BC      |         188 |
|      40 | 0x00BD      |         189 |
|      41 | 0x00B0      |         176 |
|      42 | 0x000F      |          15 |

## Events

### Event 65535

#### Metadata

| Field        | Value   |
|--------------|---------|
| Entrypoint   | 0x0000  |
| Data Size    | 1 bytes |
| Instructions | 1       |

```
      00 01 02 03 04 05 06 07  08 09 0A 0B 0C 0D 0E 0F
      -- -- -- -- -- -- -- --  -- -- -- -- -- -- -- --
0000: 00                                                .               
```

#### Opcodes

```
  0: 0x0000 [0x00] END_REQSTACK()
```

### Event 9

#### Metadata

| Field        | Value   |
|--------------|---------|
| Entrypoint   | 0x0001  |
| Data Size    | 1 bytes |
| Instructions | 1       |

```
      00 01 02 03 04 05 06 07  08 09 0A 0B 0C 0D 0E 0F
      -- -- -- -- -- -- -- --  -- -- -- -- -- -- -- --
0000:    00                                              .              
```

#### Opcodes

```
  0: 0x0001 [0x00] END_REQSTACK()
```

### Event 65535.1

#### Metadata

| Field        | Value    |
|--------------|----------|
| Entrypoint   | 0x0002   |
| Data Size    | 33 bytes |
| Instructions | 9        |

```
      00 01 02 03 04 05 06 07  08 09 0A 0B 0C 0D 0E 0F
      -- -- -- -- -- -- -- --  -- -- -- -- -- -- -- --
0000:       B4 0A 00 80 03 00  00 00 80 02 00 00 01 80    ..............
0010: 02 1D 00 B4 0C 00 00 1C  02 80 01 0B 00 B4 0B B4  ................
0020: 06 00 00                                          ...             
```

#### Opcodes

```
  0: 0x0002 [0xB4] UI_WINDOW_STRING_HANDLER(case=0x0A - Open event time window, work_offset=300*)
  1: 0x0006 [0x03] ExtData[1]->WorkLocal[0] = 300*
  2: 0x000B [0x02] IF !(ExtData[1]->WorkLocal[0] <= 0*) GOTO 0x001D
  3: 0x0013 [0xB4] UI_WINDOW_STRING_HANDLER(case=0x0C - Get event time count value, work_offset=ExtData[1]->WorkLocal[0])
  4: 0x0017 [0x1C] WAIT(5* ticks)
  5: 0x001A [0x01] GOTO 0x000B
  6: 0x001D [0xB4] UI_WINDOW_STRING_HANDLER(case=0x0B - Destroy event time window)
  7: 0x001F [0xB4] UI_WINDOW_STRING_HANDLER(case=0x06 - Toggle query message flag, flag_value=0x00)
  8: 0x0022 [0x00] END_REQSTACK()
```

### Event 65535.2

#### Metadata

| Field        | Value     |
|--------------|-----------|
| Entrypoint   | 0x0023    |
| Data Size    | 479 bytes |
| Instructions | 85        |

```
      00 01 02 03 04 05 06 07  08 09 0A 0B 0C 0D 0E 0F
      -- -- -- -- -- -- -- --  -- -- -- -- -- -- -- --
0020:          89 03 80 B4 14  04 80 05 80 06 80 01 80     .............
0030: 07 80 1A FE 01 89 08 80  B4 14 04 80 05 80 06 80  ................
0040: 01 80 07 80 1A FE 01 89  09 80 B4 14 04 80 05 80  ................
0050: 06 80 01 80 07 80 1A FE  01 89 0A 80 B4 14 04 80  ................
0060: 05 80 06 80 01 80 07 80  1A FE 01 89 0B 80 B4 14  ................
0070: 04 80 05 80 06 80 01 80  07 80 1A FE 01 89 0C 80  ................
0080: B4 14 04 80 05 80 06 80  01 80 07 80 1A FE 01 89  ................
0090: 0D 80 B4 14 04 80 05 80  06 80 01 80 07 80 1A FE  ................
00A0: 01 89 0E 80 B4 14 04 80  05 80 06 80 01 80 07 80  ................
00B0: 1A FE 01 89 0F 80 B4 14  04 80 05 80 06 80 01 80  ................
00C0: 07 80 1A FE 01 89 10 80  B4 14 04 80 05 80 06 80  ................
00D0: 01 80 07 80 1A FE 01 89  11 80 B4 14 04 80 05 80  ................
00E0: 06 80 01 80 07 80 1A FE  01 89 12 80 B4 14 04 80  ................
00F0: 05 80 06 80 01 80 07 80  1A FE 01 89 13 80 B4 14  ................
0100: 04 80 05 80 06 80 01 80  07 80 1A FE 01 89 14 80  ................
0110: B4 14 04 80 05 80 06 80  01 80 07 80 1A FE 01 89  ................
0120: 15 80 B4 14 04 80 05 80  06 80 01 80 07 80 1A FE  ................
0130: 01 89 16 80 B4 14 04 80  05 80 06 80 01 80 07 80  ................
0140: 1A FE 01 89 17 80 B4 14  04 80 05 80 06 80 01 80  ................
0150: 07 80 1A FE 01 89 18 80  B4 14 04 80 05 80 06 80  ................
0160: 01 80 07 80 1A FE 01 89  19 80 B4 14 04 80 05 80  ................
0170: 06 80 01 80 07 80 1A FE  01 89 1A 80 B4 14 04 80  ................
0180: 05 80 06 80 01 80 07 80  1A FE 01 89 1B 80 B4 14  ................
0190: 04 80 05 80 06 80 01 80  07 80 1A FE 01 89 1C 80  ................
01A0: B4 14 04 80 05 80 06 80  01 80 07 80 1A FE 01 89  ................
01B0: 1D 80 B4 14 04 80 05 80  06 80 01 80 07 80 1A FE  ................
01C0: 01 8A B4 15 1C 1E 80 89  1F 80 B4 14 04 80 05 80  ................
01D0: 06 80 01 80 07 80 1C 20  80 B4 14 21 80 05 80 06  ....... ...!....
01E0: 80 22 80 23 80 1C 24 80  89 25 80 B4 14 21 80 05  .".#..$..%...!..
01F0: 80 06 80 01 80 07 80 1C  24 80 8A B4 15 00 1C 24  ........$......$
0200: 80 1B                                             ..              
```

#### Opcodes

```
  0: 0x0023 [0x89] OPEN_MAP(map_id=0x00008003)
  1: 0x0026 [0xB4] UI_WINDOW_STRING_HANDLER(case=0x14 - Update map window values, work_offset1=150470*, work_offset2=4294963026*, work_offset3=890*, work_offset4=0*, work_offset5=129*)
  2: 0x0032 [0x1A] CALL_SUBROUTINE(address=0x01FE)
  3: 0x0035 [0x89] OPEN_MAP(map_id=0x00008008)
  4: 0x0038 [0xB4] UI_WINDOW_STRING_HANDLER(case=0x14 - Update map window values, work_offset1=150470*, work_offset2=4294963026*, work_offset3=890*, work_offset4=0*, work_offset5=129*)
  5: 0x0044 [0x1A] CALL_SUBROUTINE(address=0x01FE)
  6: 0x0047 [0x89] OPEN_MAP(map_id=0x00008009)
  7: 0x004A [0xB4] UI_WINDOW_STRING_HANDLER(case=0x14 - Update map window values, work_offset1=150470*, work_offset2=4294963026*, work_offset3=890*, work_offset4=0*, work_offset5=129*)
  8: 0x0056 [0x1A] CALL_SUBROUTINE(address=0x01FE)
  9: 0x0059 [0x89] OPEN_MAP(map_id=0x0000800A)
 10: 0x005C [0xB4] UI_WINDOW_STRING_HANDLER(case=0x14 - Update map window values, work_offset1=150470*, work_offset2=4294963026*, work_offset3=890*, work_offset4=0*, work_offset5=129*)
 11: 0x0068 [0x1A] CALL_SUBROUTINE(address=0x01FE)
 12: 0x006B [0x89] OPEN_MAP(map_id=0x0000800B)
 13: 0x006E [0xB4] UI_WINDOW_STRING_HANDLER(case=0x14 - Update map window values, work_offset1=150470*, work_offset2=4294963026*, work_offset3=890*, work_offset4=0*, work_offset5=129*)
 14: 0x007A [0x1A] CALL_SUBROUTINE(address=0x01FE)
 15: 0x007D [0x89] OPEN_MAP(map_id=0x0000800C)
 16: 0x0080 [0xB4] UI_WINDOW_STRING_HANDLER(case=0x14 - Update map window values, work_offset1=150470*, work_offset2=4294963026*, work_offset3=890*, work_offset4=0*, work_offset5=129*)
 17: 0x008C [0x1A] CALL_SUBROUTINE(address=0x01FE)
 18: 0x008F [0x89] OPEN_MAP(map_id=0x0000800D)
 19: 0x0092 [0xB4] UI_WINDOW_STRING_HANDLER(case=0x14 - Update map window values, work_offset1=150470*, work_offset2=4294963026*, work_offset3=890*, work_offset4=0*, work_offset5=129*)
 20: 0x009E [0x1A] CALL_SUBROUTINE(address=0x01FE)
 21: 0x00A1 [0x89] OPEN_MAP(map_id=0x0000800E)
 22: 0x00A4 [0xB4] UI_WINDOW_STRING_HANDLER(case=0x14 - Update map window values, work_offset1=150470*, work_offset2=4294963026*, work_offset3=890*, work_offset4=0*, work_offset5=129*)
 23: 0x00B0 [0x1A] CALL_SUBROUTINE(address=0x01FE)
 24: 0x00B3 [0x89] OPEN_MAP(map_id=0x0000800F)
 25: 0x00B6 [0xB4] UI_WINDOW_STRING_HANDLER(case=0x14 - Update map window values, work_offset1=150470*, work_offset2=4294963026*, work_offset3=890*, work_offset4=0*, work_offset5=129*)
 26: 0x00C2 [0x1A] CALL_SUBROUTINE(address=0x01FE)
 27: 0x00C5 [0x89] OPEN_MAP(map_id=0x00008010)
 28: 0x00C8 [0xB4] UI_WINDOW_STRING_HANDLER(case=0x14 - Update map window values, work_offset1=150470*, work_offset2=4294963026*, work_offset3=890*, work_offset4=0*, work_offset5=129*)
 29: 0x00D4 [0x1A] CALL_SUBROUTINE(address=0x01FE)
 30: 0x00D7 [0x89] OPEN_MAP(map_id=0x00008011)
 31: 0x00DA [0xB4] UI_WINDOW_STRING_HANDLER(case=0x14 - Update map window values, work_offset1=150470*, work_offset2=4294963026*, work_offset3=890*, work_offset4=0*, work_offset5=129*)
 32: 0x00E6 [0x1A] CALL_SUBROUTINE(address=0x01FE)
 33: 0x00E9 [0x89] OPEN_MAP(map_id=0x00008012)
 34: 0x00EC [0xB4] UI_WINDOW_STRING_HANDLER(case=0x14 - Update map window values, work_offset1=150470*, work_offset2=4294963026*, work_offset3=890*, work_offset4=0*, work_offset5=129*)
 35: 0x00F8 [0x1A] CALL_SUBROUTINE(address=0x01FE)
 36: 0x00FB [0x89] OPEN_MAP(map_id=0x00008013)
 37: 0x00FE [0xB4] UI_WINDOW_STRING_HANDLER(case=0x14 - Update map window values, work_offset1=150470*, work_offset2=4294963026*, work_offset3=890*, work_offset4=0*, work_offset5=129*)
 38: 0x010A [0x1A] CALL_SUBROUTINE(address=0x01FE)
 39: 0x010D [0x89] OPEN_MAP(map_id=0x00008014)
 40: 0x0110 [0xB4] UI_WINDOW_STRING_HANDLER(case=0x14 - Update map window values, work_offset1=150470*, work_offset2=4294963026*, work_offset3=890*, work_offset4=0*, work_offset5=129*)
 41: 0x011C [0x1A] CALL_SUBROUTINE(address=0x01FE)
 42: 0x011F [0x89] OPEN_MAP(map_id=0x00008015)
 43: 0x0122 [0xB4] UI_WINDOW_STRING_HANDLER(case=0x14 - Update map window values, work_offset1=150470*, work_offset2=4294963026*, work_offset3=890*, work_offset4=0*, work_offset5=129*)
 44: 0x012E [0x1A] CALL_SUBROUTINE(address=0x01FE)
 45: 0x0131 [0x89] OPEN_MAP(map_id=0x00008016)
 46: 0x0134 [0xB4] UI_WINDOW_STRING_HANDLER(case=0x14 - Update map window values, work_offset1=150470*, work_offset2=4294963026*, work_offset3=890*, work_offset4=0*, work_offset5=129*)
 47: 0x0140 [0x1A] CALL_SUBROUTINE(address=0x01FE)
 48: 0x0143 [0x89] OPEN_MAP(map_id=0x00008017)
 49: 0x0146 [0xB4] UI_WINDOW_STRING_HANDLER(case=0x14 - Update map window values, work_offset1=150470*, work_offset2=4294963026*, work_offset3=890*, work_offset4=0*, work_offset5=129*)
 50: 0x0152 [0x1A] CALL_SUBROUTINE(address=0x01FE)
 51: 0x0155 [0x89] OPEN_MAP(map_id=0x00008018)
 52: 0x0158 [0xB4] UI_WINDOW_STRING_HANDLER(case=0x14 - Update map window values, work_offset1=150470*, work_offset2=4294963026*, work_offset3=890*, work_offset4=0*, work_offset5=129*)
 53: 0x0164 [0x1A] CALL_SUBROUTINE(address=0x01FE)
 54: 0x0167 [0x89] OPEN_MAP(map_id=0x00008019)
 55: 0x016A [0xB4] UI_WINDOW_STRING_HANDLER(case=0x14 - Update map window values, work_offset1=150470*, work_offset2=4294963026*, work_offset3=890*, work_offset4=0*, work_offset5=129*)
 56: 0x0176 [0x1A] CALL_SUBROUTINE(address=0x01FE)
 57: 0x0179 [0x89] OPEN_MAP(map_id=0x0000801A)
 58: 0x017C [0xB4] UI_WINDOW_STRING_HANDLER(case=0x14 - Update map window values, work_offset1=150470*, work_offset2=4294963026*, work_offset3=890*, work_offset4=0*, work_offset5=129*)
 59: 0x0188 [0x1A] CALL_SUBROUTINE(address=0x01FE)
 60: 0x018B [0x89] OPEN_MAP(map_id=0x0000801B)
 61: 0x018E [0xB4] UI_WINDOW_STRING_HANDLER(case=0x14 - Update map window values, work_offset1=150470*, work_offset2=4294963026*, work_offset3=890*, work_offset4=0*, work_offset5=129*)
 62: 0x019A [0x1A] CALL_SUBROUTINE(address=0x01FE)
 63: 0x019D [0x89] OPEN_MAP(map_id=0x0000801C)
 64: 0x01A0 [0xB4] UI_WINDOW_STRING_HANDLER(case=0x14 - Update map window values, work_offset1=150470*, work_offset2=4294963026*, work_offset3=890*, work_offset4=0*, work_offset5=129*)
 65: 0x01AC [0x1A] CALL_SUBROUTINE(address=0x01FE)
 66: 0x01AF [0x89] OPEN_MAP(map_id=0x0000801D)
 67: 0x01B2 [0xB4] UI_WINDOW_STRING_HANDLER(case=0x14 - Update map window values, work_offset1=150470*, work_offset2=4294963026*, work_offset3=890*, work_offset4=0*, work_offset5=129*)
 68: 0x01BE [0x1A] CALL_SUBROUTINE(address=0x01FE)
 69: 0x01C1 [0x8A] CLOSE_MAP()
 70: 0x01C2 [0xB4] UI_WINDOW_STRING_HANDLER(case=0x15 - Test map window validity)
 71: 0x01C4 [0x1C] WAIT(1200* ticks)
 72: 0x01C7 [0x89] OPEN_MAP(map_id=0x0000801F)
 73: 0x01CA [0xB4] UI_WINDOW_STRING_HANDLER(case=0x14 - Update map window values, work_offset1=150470*, work_offset2=4294963026*, work_offset3=890*, work_offset4=0*, work_offset5=129*)
 74: 0x01D6 [0x1C] WAIT(600* ticks)
 75: 0x01D9 [0xB4] UI_WINDOW_STRING_HANDLER(case=0x14 - Update map window values, work_offset1=20000*, work_offset2=4294963026*, work_offset3=890*, work_offset4=900*, work_offset5=1*)
 76: 0x01E5 [0x1C] WAIT(420* ticks)
 77: 0x01E8 [0x89] OPEN_MAP(map_id=0x00008025)
 78: 0x01EB [0xB4] UI_WINDOW_STRING_HANDLER(case=0x14 - Update map window values, work_offset1=20000*, work_offset2=4294963026*, work_offset3=890*, work_offset4=0*, work_offset5=129*)
 79: 0x01F7 [0x1C] WAIT(420* ticks)
 80: 0x01FA [0x8A] CLOSE_MAP()
 81: 0x01FB [0xB4] UI_WINDOW_STRING_HANDLER(case=0x15 - Test map window validity)
 82: 0x01FD [0x00] END_REQSTACK()

SUBROUTINE_01FE:
 83: 0x01FE [0x1C] WAIT(420* ticks)
 84: 0x0201 [0x1B] RETURN
```

### Event 4

#### Metadata

| Field        | Value   |
|--------------|---------|
| Entrypoint   | 0x0202  |
| Data Size    | 6 bytes |
| Instructions | 3       |

```
      00 01 02 03 04 05 06 07  08 09 0A 0B 0C 0D 0E 0F
      -- -- -- -- -- -- -- --  -- -- -- -- -- -- -- --
0200:       22 00 C0 23 80 00                             "..#..        
```

#### Opcodes

```
  0: 0x0202 [0x22] ENTITY_HIDE_FLAG(enabled=0x00)
  1: 0x0204 [0xC0] EventEntity->Render.Flags3 |= 0x1000 // Set bit 12 (from 1*)
  2: 0x0207 [0x00] END_REQSTACK()
```

### Event 5

#### Metadata

| Field        | Value   |
|--------------|---------|
| Entrypoint   | 0x0208  |
| Data Size    | 6 bytes |
| Instructions | 3       |

```
      00 01 02 03 04 05 06 07  08 09 0A 0B 0C 0D 0E 0F
      -- -- -- -- -- -- -- --  -- -- -- -- -- -- -- --
0200:                          22 00 C0 23 80 00                "..#..  
```

#### Opcodes

```
  0: 0x0208 [0x22] ENTITY_HIDE_FLAG(enabled=0x00)
  1: 0x020A [0xC0] EventEntity->Render.Flags3 |= 0x1000 // Set bit 12 (from 1*)
  2: 0x020D [0x00] END_REQSTACK()
```

### Event 65535.3

#### Metadata

| Field        | Value     |
|--------------|-----------|
| Entrypoint   | 0x020E    |
| Data Size    | 341 bytes |
| Instructions | 21        |

```
      00 01 02 03 04 05 06 07  08 09 0A 0B 0C 0D 0E 0F
      -- -- -- -- -- -- -- --  -- -- -- -- -- -- -- --
0200:                                            D0 26                .&
0210: 80 0E 33 12 01 0E 33 12  01 78 78 78 78 01 80 D0  ..3...3..xxxx...
0220: 26 80 0F 33 12 01 0F 33  12 01 78 78 78 78 01 80  &..3...3..xxxx..
0230: D0 26 80 15 33 12 01 15  33 12 01 78 78 78 78 01  .&..3...3..xxxx.
0240: 80 D0 26 80 10 33 12 01  10 33 12 01 78 78 78 78  ..&..3...3..xxxx
0250: 01 80 D0 26 80 1A 33 12  01 1A 33 12 01 78 78 78  ...&..3...3..xxx
0260: 78 01 80 D0 26 80 0D 33  12 01 0D 33 12 01 78 78  x...&..3...3..xx
0270: 78 78 01 80 D0 26 80 0C  33 12 01 0C 33 12 01 78  xx...&..3...3..x
0280: 78 78 78 01 80 D0 26 80  1F 33 12 01 1F 33 12 01  xxx...&..3...3..
0290: 78 78 78 78 01 80 D0 26  80 19 33 12 01 19 33 12  xxxx...&..3...3.
02A0: 01 78 78 78 78 01 80 D0  26 80 13 33 12 01 13 33  .xxxx...&..3...3
02B0: 12 01 78 78 78 78 01 80  D0 26 80 11 33 12 01 11  ..xxxx...&..3...
02C0: 33 12 01 78 78 78 78 01  80 D0 26 80 14 33 12 01  3..xxxx...&..3..
02D0: 14 33 12 01 78 78 78 78  01 80 D0 26 80 1C 33 12  .3..xxxx...&..3.
02E0: 01 1C 33 12 01 78 78 78  78 01 80 D0 26 80 1D 33  ..3..xxxx...&..3
02F0: 12 01 1D 33 12 01 78 78  78 78 01 80 D0 26 80 1E  ...3..xxxx...&..
0300: 33 12 01 1E 33 12 01 78  78 78 78 01 80 D0 26 80  3...3..xxxx...&.
0310: 17 33 12 01 17 33 12 01  78 78 78 78 01 80 D0 26  .3...3..xxxx...&
0320: 80 1B 33 12 01 1B 33 12  01 78 78 78 78 01 80 D0  ..3...3..xxxx...
0330: 26 80 18 33 12 01 18 33  12 01 78 78 78 78 01 80  &..3...3..xxxx..
0340: D0 26 80 16 33 12 01 16  33 12 01 78 78 78 78 01  .&..3...3..xxxx.
0350: 80 D0 26 80 12 33 12 01  12 33 12 01 78 78 78 78  ..&..3...3..xxxx
0360: 01 80 00                                          ...             
```

#### Opcodes

```
  0: 0x020E [0xD0] LOAD_SCHEDULED_TASK_ALT5: Load scheduler "xxxx" with entities [Nashmeira (ID: 17969934/0x0112330E), Nashmeira (ID: 17969934/0x0112330E)], work=[171*, 0*]
  1: 0x021F [0xD0] LOAD_SCHEDULED_TASK_ALT5: Load scheduler "xxxx" with entities [Lilisette (ID: 17969935/0x0112330F), Lilisette (ID: 17969935/0x0112330F)], work=[171*, 0*]
  2: 0x0230 [0xD0] LOAD_SCHEDULED_TASK_ALT5: Load scheduler "xxxx" with entities [Trion (ID: 17969941/0x01123315), Trion (ID: 17969941/0x01123315)], work=[171*, 0*]
  3: 0x0241 [0xD0] LOAD_SCHEDULED_TASK_ALT5: Load scheduler "xxxx" with entities [Arciela (ID: 17969936/0x01123310), Arciela (ID: 17969936/0x01123310)], work=[171*, 0*]
  4: 0x0252 [0xD0] LOAD_SCHEDULED_TASK_ALT5: Load scheduler "xxxx" with entities [Semih Lafihna (ID: 17969946/0x0112331A), Semih Lafihna (ID: 17969946/0x0112331A)], work=[171*, 0*]
  5: 0x0263 [0xD0] LOAD_SCHEDULED_TASK_ALT5: Load scheduler "xxxx" with entities [Prishe (ID: 17969933/0x0112330D), Prishe (ID: 17969933/0x0112330D)], work=[171*, 0*]
  6: 0x0274 [0xD0] LOAD_SCHEDULED_TASK_ALT5: Load scheduler "xxxx" with entities [Lion (ID: 17969932/0x0112330C), Lion (ID: 17969932/0x0112330C)], work=[171*, 0*]
  7: 0x0285 [0xD0] LOAD_SCHEDULED_TASK_ALT5: Load scheduler "xxxx" with entities [Ulmia (ID: 17969951/0x0112331F), Ulmia (ID: 17969951/0x0112331F)], work=[171*, 0*]
  8: 0x0296 [0xD0] LOAD_SCHEDULED_TASK_ALT5: Load scheduler "xxxx" with entities [Star Sibyl (ID: 17969945/0x01123319), Star Sibyl (ID: 17969945/0x01123319)], work=[171*, 0*]
  9: 0x02A7 [0xD0] LOAD_SCHEDULED_TASK_ALT5: Load scheduler "xxxx" with entities [Zeid (ID: 17969939/0x01123313), Zeid (ID: 17969939/0x01123313)], work=[171*, 0*]
 10: 0x02B8 [0xD0] LOAD_SCHEDULED_TASK_ALT5: Load scheduler "xxxx" with entities [Aldo (ID: 17969937/0x01123311), Aldo (ID: 17969937/0x01123311)], work=[171*, 0*]
 11: 0x02C9 [0xD0] LOAD_SCHEDULED_TASK_ALT5: Load scheduler "xxxx" with entities [Volker (ID: 17969940/0x01123314), Volker (ID: 17969940/0x01123314)], work=[171*, 0*]
 12: 0x02DA [0xD0] LOAD_SCHEDULED_TASK_ALT5: Load scheduler "xxxx" with entities [Ovjang (ID: 17969948/0x0112331C), Ovjang (ID: 17969948/0x0112331C)], work=[171*, 0*]
 13: 0x02EB [0xD0] LOAD_SCHEDULED_TASK_ALT5: Load scheduler "xxxx" with entities [Mnejing (ID: 17969949/0x0112331D), Mnejing (ID: 17969949/0x0112331D)], work=[171*, 0*]
 14: 0x02FC [0xD0] LOAD_SCHEDULED_TASK_ALT5: Load scheduler "xxxx" with entities [Luzaf (ID: 17969950/0x0112331E), Luzaf (ID: 17969950/0x0112331E)], work=[171*, 0*]
 15: 0x030D [0xD0] LOAD_SCHEDULED_TASK_ALT5: Load scheduler "xxxx" with entities [Shantotto (ID: 17969943/0x01123317), Shantotto (ID: 17969943/0x01123317)], work=[171*, 0*]
 16: 0x031E [0xD0] LOAD_SCHEDULED_TASK_ALT5: Load scheduler "xxxx" with entities [Gilgamesh (ID: 17969947/0x0112331B), Gilgamesh (ID: 17969947/0x0112331B)], work=[171*, 0*]
 17: 0x032F [0xD0] LOAD_SCHEDULED_TASK_ALT5: Load scheduler "xxxx" with entities [Ajido-Marujido (ID: 17969944/0x01123318), Ajido-Marujido (ID: 17969944/0x01123318)], work=[171*, 0*]
 18: 0x0340 [0xD0] LOAD_SCHEDULED_TASK_ALT5: Load scheduler "xxxx" with entities [Curilla (ID: 17969942/0x01123316), Curilla (ID: 17969942/0x01123316)], work=[171*, 0*]
 19: 0x0351 [0xD0] LOAD_SCHEDULED_TASK_ALT5: Load scheduler "xxxx" with entities [Maat (ID: 17969938/0x01123312), Maat (ID: 17969938/0x01123312)], work=[171*, 0*]
 20: 0x0362 [0x00] END_REQSTACK()
```

### Event 65535.4

#### Metadata

| Field        | Value     |
|--------------|-----------|
| Entrypoint   | 0x0363    |
| Data Size    | 103 bytes |
| Instructions | 7         |

```
      00 01 02 03 04 05 06 07  08 09 0A 0B 0C 0D 0E 0F
      -- -- -- -- -- -- -- --  -- -- -- -- -- -- -- --
0360:          D0 27 80 10 33  12 01 10 33 12 01 78 78     .'..3...3..xx
0370: 78 78 01 80 D0 27 80 0F  33 12 01 0F 33 12 01 78  xx...'..3...3..x
0380: 78 78 78 01 80 D0 27 80  12 33 12 01 12 33 12 01  xxx...'..3...3..
0390: 78 78 78 78 01 80 D0 27  80 11 33 12 01 11 33 12  xxxx...'..3...3.
03A0: 01 78 78 78 78 01 80 D0  27 80 17 33 12 01 17 33  .xxxx...'..3...3
03B0: 12 01 78 78 78 78 01 80  D0 27 80 11 33 12 01 11  ..xxxx...'..3...
03C0: 33 12 01 78 78 78 78 01  80 00                    3..xxxx...      
```

#### Opcodes

```
  0: 0x0363 [0xD0] LOAD_SCHEDULED_TASK_ALT5: Load scheduler "xxxx" with entities [Arciela (ID: 17969936/0x01123310), Arciela (ID: 17969936/0x01123310)], work=[188*, 0*]
  1: 0x0374 [0xD0] LOAD_SCHEDULED_TASK_ALT5: Load scheduler "xxxx" with entities [Lilisette (ID: 17969935/0x0112330F), Lilisette (ID: 17969935/0x0112330F)], work=[188*, 0*]
  2: 0x0385 [0xD0] LOAD_SCHEDULED_TASK_ALT5: Load scheduler "xxxx" with entities [Maat (ID: 17969938/0x01123312), Maat (ID: 17969938/0x01123312)], work=[188*, 0*]
  3: 0x0396 [0xD0] LOAD_SCHEDULED_TASK_ALT5: Load scheduler "xxxx" with entities [Aldo (ID: 17969937/0x01123311), Aldo (ID: 17969937/0x01123311)], work=[188*, 0*]
  4: 0x03A7 [0xD0] LOAD_SCHEDULED_TASK_ALT5: Load scheduler "xxxx" with entities [Shantotto (ID: 17969943/0x01123317), Shantotto (ID: 17969943/0x01123317)], work=[188*, 0*]
  5: 0x03B8 [0xD0] LOAD_SCHEDULED_TASK_ALT5: Load scheduler "xxxx" with entities [Aldo (ID: 17969937/0x01123311), Aldo (ID: 17969937/0x01123311)], work=[188*, 0*]
  6: 0x03C9 [0x00] END_REQSTACK()
```

### Event 65535.5

#### Metadata

| Field        | Value    |
|--------------|----------|
| Entrypoint   | 0x03CA   |
| Data Size    | 35 bytes |
| Instructions | 3        |

```
      00 01 02 03 04 05 06 07  08 09 0A 0B 0C 0D 0E 0F
      -- -- -- -- -- -- -- --  -- -- -- -- -- -- -- --
03C0:                                D0 27 80 14 33 12            .'..3.
03D0: 01 14 33 12 01 78 78 78  78 01 80 D0 27 80 13 33  ..3..xxxx...'..3
03E0: 12 01 13 33 12 01 78 78  78 78 01 80 00           ...3..xxxx...   
```

#### Opcodes

```
  0: 0x03CA [0xD0] LOAD_SCHEDULED_TASK_ALT5: Load scheduler "xxxx" with entities [Volker (ID: 17969940/0x01123314), Volker (ID: 17969940/0x01123314)], work=[188*, 0*]
  1: 0x03DB [0xD0] LOAD_SCHEDULED_TASK_ALT5: Load scheduler "xxxx" with entities [Zeid (ID: 17969939/0x01123313), Zeid (ID: 17969939/0x01123313)], work=[188*, 0*]
  2: 0x03EC [0x00] END_REQSTACK()
```

### Event 65535.6

#### Metadata

| Field        | Value    |
|--------------|----------|
| Entrypoint   | 0x03ED   |
| Data Size    | 52 bytes |
| Instructions | 4        |

```
      00 01 02 03 04 05 06 07  08 09 0A 0B 0C 0D 0E 0F
      -- -- -- -- -- -- -- --  -- -- -- -- -- -- -- --
03E0:                                         D0 27 80               .'.
03F0: 15 33 12 01 15 33 12 01  78 78 78 78 01 80 D0 27  .3...3..xxxx...'
0400: 80 16 33 12 01 16 33 12  01 78 78 78 78 01 80 D0  ..3...3..xxxx...
0410: 27 80 1F 33 12 01 1F 33  12 01 78 78 78 78 01 80  '..3...3..xxxx..
0420: 00                                                .               
```

#### Opcodes

```
  0: 0x03ED [0xD0] LOAD_SCHEDULED_TASK_ALT5: Load scheduler "xxxx" with entities [Trion (ID: 17969941/0x01123315), Trion (ID: 17969941/0x01123315)], work=[188*, 0*]
  1: 0x03FE [0xD0] LOAD_SCHEDULED_TASK_ALT5: Load scheduler "xxxx" with entities [Curilla (ID: 17969942/0x01123316), Curilla (ID: 17969942/0x01123316)], work=[188*, 0*]
  2: 0x040F [0xD0] LOAD_SCHEDULED_TASK_ALT5: Load scheduler "xxxx" with entities [Ulmia (ID: 17969951/0x0112331F), Ulmia (ID: 17969951/0x0112331F)], work=[188*, 0*]
  3: 0x0420 [0x00] END_REQSTACK()
```

### Event 65535.7

#### Metadata

| Field        | Value    |
|--------------|----------|
| Entrypoint   | 0x0421   |
| Data Size    | 52 bytes |
| Instructions | 4        |

```
      00 01 02 03 04 05 06 07  08 09 0A 0B 0C 0D 0E 0F
      -- -- -- -- -- -- -- --  -- -- -- -- -- -- -- --
0420:    D0 28 80 0F 33 12 01  0F 33 12 01 62 61 72 69   .(..3...3..bari
0430: 01 80 D0 28 80 12 33 12  01 12 33 12 01 62 61 72  ...(..3...3..bar
0440: 69 01 80 D0 28 80 11 33  12 01 11 33 12 01 62 61  i...(..3...3..ba
0450: 72 69 01 80 00                                    ri...           
```

#### Opcodes

```
  0: 0x0421 [0xD0] LOAD_SCHEDULED_TASK_ALT5: Load scheduler "bari" with entities [Lilisette (ID: 17969935/0x0112330F), Lilisette (ID: 17969935/0x0112330F)], work=[189*, 0*]
  1: 0x0432 [0xD0] LOAD_SCHEDULED_TASK_ALT5: Load scheduler "bari" with entities [Maat (ID: 17969938/0x01123312), Maat (ID: 17969938/0x01123312)], work=[189*, 0*]
  2: 0x0443 [0xD0] LOAD_SCHEDULED_TASK_ALT5: Load scheduler "bari" with entities [Aldo (ID: 17969937/0x01123311), Aldo (ID: 17969937/0x01123311)], work=[189*, 0*]
  3: 0x0454 [0x00] END_REQSTACK()
```

### Event 65535.8

#### Metadata

| Field        | Value    |
|--------------|----------|
| Entrypoint   | 0x0455   |
| Data Size    | 58 bytes |
| Instructions | 6        |

```
      00 01 02 03 04 05 06 07  08 09 0A 0B 0C 0D 0E 0F
      -- -- -- -- -- -- -- --  -- -- -- -- -- -- -- --
0450:                D0 27 80  11 33 12 01 11 33 12 01       .'..3...3..
0460: 61 6C 64 30 01 80 1C 29  80 D0 27 80 12 33 12 01  ald0...)..'..3..
0470: 12 33 12 01 63 68 6B 30  01 80 1C 2A 80 D0 27 80  .3..chk0...*..'.
0480: 17 33 12 01 17 33 12 01  63 68 6B 30 01 80 00     .3...3..chk0... 
```

#### Opcodes

```
  0: 0x0455 [0xD0] LOAD_SCHEDULED_TASK_ALT5: Load scheduler "ald0" with entities [Aldo (ID: 17969937/0x01123311), Aldo (ID: 17969937/0x01123311)], work=[188*, 0*]
  1: 0x0466 [0x1C] WAIT(176* ticks)
  2: 0x0469 [0xD0] LOAD_SCHEDULED_TASK_ALT5: Load scheduler "chk0" with entities [Maat (ID: 17969938/0x01123312), Maat (ID: 17969938/0x01123312)], work=[188*, 0*]
  3: 0x047A [0x1C] WAIT(15* ticks)
  4: 0x047D [0xD0] LOAD_SCHEDULED_TASK_ALT5: Load scheduler "chk0" with entities [Shantotto (ID: 17969943/0x01123317), Shantotto (ID: 17969943/0x01123317)], work=[188*, 0*]
  5: 0x048E [0x00] END_REQSTACK()
```
