# 17970039 - Coelestrox

## Common Data

| Field            | Value                |
|------------------|----------------------|
| Zone             | Reisenjima (ID: 291) |
| Block Size       | 5884 bytes           |
| Total Events     | 7                    |
| References Count | 438                  |

## List of Events

| Event ID              | Entrypoint   |   Size |   Instructions |
|-----------------------|--------------|--------|----------------|
| [65535](#event-65535) | 0x0000       |      1 |              1 |
| [26](#event-26)       | 0x0001       |     14 |              6 |
| [27](#event-27)       | 0x000F       |   2056 |            480 |
| [28](#event-28)       | 0x0817       |    179 |             45 |
| [29](#event-29)       | 0x08CA       |    280 |             68 |
| [30](#event-30)       | 0x09E2       |     32 |             12 |
| [32](#event-32)       | 0x0A02       |   1524 |            317 |

## DAT References (imed_data)

|   Index | Hex Value   |   Dec Value |
|---------|-------------|-------------|
|       0 | 0x0001      |           1 |
|       1 | 0x1F12      |        7954 |
|       2 | 0x0000      |           0 |
|       3 | 0x1F1B      |        7963 |
|       4 | 0x0002      |           2 |
|       5 | 0x1F14      |        7956 |
|       6 | 0x1F13      |        7955 |
|       7 | 0x1F15      |        7957 |
|       8 | 0x1F16      |        7958 |
|       9 | 0x1F17      |        7959 |
|      10 | 0x1F18      |        7960 |
|      11 | 0x1F19      |        7961 |
|      12 | 0x1F1A      |        7962 |
|      13 | 0x1F1C      |        7964 |
|      14 | 0x0006      |           6 |
|      15 | 0x0007      |           7 |
|      16 | 0x0008      |           8 |
|      17 | 0x0009      |           9 |
|      18 | 0x000A      |          10 |
|      19 | 0x1F1D      |        7965 |
|      20 | 0x0016      |          22 |
|      21 | 0x0003      |           3 |
|      22 | 0x0012      |          18 |
|      23 | 0x1F1E      |        7966 |
|      24 | 0x1F1F      |        7967 |
|      25 | 0x1F20      |        7968 |
|      26 | 0x2317      |        8983 |
|      27 | 0x0004      |           4 |
|      28 | 0x1F21      |        7969 |
|      29 | 0x01F4      |         500 |
|      30 | 0x1F22      |        7970 |
|      31 | 0x231A      |        8986 |
|      32 | 0x0005      |           5 |
|      33 | 0x2313      |        8979 |
|      34 | 0x231C      |        8988 |
|      35 | 0x2315      |        8981 |
|      36 | 0x00C8      |         200 |
|      37 | 0x2710      |       10000 |
|      38 | 0x1F23      |        7971 |
|      39 | 0x2424      |        9252 |
|      40 | 0x2425      |        9253 |
|      41 | 0x2428      |        9256 |
|      42 | 0x012C      |         300 |
|      43 | 0x3A98      |       15000 |
|      44 | 0x2420      |        9248 |
|      45 | 0x241E      |        9246 |
|      46 | 0x2426      |        9254 |
|      47 | 0x241D      |        9245 |
|      48 | 0x2422      |        9250 |
|      49 | 0x242A      |        9258 |
|      50 | 0x2423      |        9251 |
|      51 | 0x1F24      |        7972 |
|      52 | 0x1F25      |        7973 |
|      53 | 0x1F26      |        7974 |
|      54 | 0x1F27      |        7975 |
|      55 | 0x1F2C      |        7980 |
|      56 | 0x1F2D      |        7981 |
|      57 | 0x1F2E      |        7982 |
|      58 | 0x1F2F      |        7983 |
|      59 | 0x1F30      |        7984 |
|      60 | 0x1F31      |        7985 |
|      61 | 0x1F37      |        7991 |
|      62 | 0x1F38      |        7992 |
|      63 | 0x1F39      |        7993 |
|      64 | 0x1F3A      |        7994 |
|      65 | 0x1F3B      |        7995 |
|      66 | 0x1F3C      |        7996 |
|      67 | 0x1F3D      |        7997 |
|      68 | 0x1F33      |        7987 |
|      69 | 0x1F34      |        7988 |
|      70 | 0x1F35      |        7989 |
|      71 | 0x1F36      |        7990 |
|      72 | 0x1F28      |        7976 |
|      73 | 0x1F29      |        7977 |
|      74 | 0x1F2A      |        7978 |
|      75 | 0x1F2B      |        7979 |
|      76 | 0x1F32      |        7986 |
|      77 | 0x6C24      |       27684 |
|      78 | 0x6C25      |       27685 |
|      79 | 0x6C26      |       27686 |
|      80 | 0x6C27      |       27687 |
|      81 | 0x6C28      |       27688 |
|      82 | 0x6C29      |       27689 |
|      83 | 0x6C2A      |       27690 |
|      84 | 0x6C2B      |       27691 |
|      85 | 0x6C2C      |       27692 |
|      86 | 0x6C2D      |       27693 |
|      87 | 0x6C2E      |       27694 |
|      88 | 0x6C2F      |       27695 |
|      89 | 0x6C30      |       27696 |
|      90 | 0x6C31      |       27697 |
|      91 | 0x6C32      |       27698 |
|      92 | 0x6C33      |       27699 |
|      93 | 0x6C34      |       27700 |
|      94 | 0x6C35      |       27701 |
|      95 | 0x6C36      |       27702 |
|      96 | 0x6C38      |       27704 |
|      97 | 0x6C39      |       27705 |
|      98 | 0x6C3A      |       27706 |
|      99 | 0x5A00      |       23040 |
|     100 | 0x5A01      |       23041 |
|     101 | 0x5A02      |       23042 |
|     102 | 0x5A03      |       23043 |
|     103 | 0x5A04      |       23044 |
|     104 | 0x5A05      |       23045 |
|     105 | 0x5A06      |       23046 |
|     106 | 0x5A07      |       23047 |
|     107 | 0x5A08      |       23048 |
|     108 | 0x5A09      |       23049 |
|     109 | 0x5A0A      |       23050 |
|     110 | 0x5A0B      |       23051 |
|     111 | 0x5A0C      |       23052 |
|     112 | 0x5A0D      |       23053 |
|     113 | 0x5A0E      |       23054 |
|     114 | 0x5A0F      |       23055 |
|     115 | 0x5A10      |       23056 |
|     116 | 0x5A11      |       23057 |
|     117 | 0x5A12      |       23058 |
|     118 | 0x5A14      |       23060 |
|     119 | 0x5A15      |       23061 |
|     120 | 0x5A16      |       23062 |
|     121 | 0x5B4F      |       23375 |
|     122 | 0x5B50      |       23376 |
|     123 | 0x5B51      |       23377 |
|     124 | 0x5B52      |       23378 |
|     125 | 0x5B53      |       23379 |
|     126 | 0x5B54      |       23380 |
|     127 | 0x5B55      |       23381 |
|     128 | 0x5B56      |       23382 |
|     129 | 0x5B57      |       23383 |
|     130 | 0x5B58      |       23384 |
|     131 | 0x5B59      |       23385 |
|     132 | 0x5B5A      |       23386 |
|     133 | 0x5B5B      |       23387 |
|     134 | 0x5B5C      |       23388 |
|     135 | 0x5B5D      |       23389 |
|     136 | 0x5B5E      |       23390 |
|     137 | 0x5B5F      |       23391 |
|     138 | 0x5B60      |       23392 |
|     139 | 0x5B61      |       23393 |
|     140 | 0x5B63      |       23395 |
|     141 | 0x5B64      |       23396 |
|     142 | 0x5B65      |       23397 |
|     143 | 0x6CB4      |       27828 |
|     144 | 0x6CB5      |       27829 |
|     145 | 0x6CB6      |       27830 |
|     146 | 0x6CB7      |       27831 |
|     147 | 0x6CB8      |       27832 |
|     148 | 0x6CB9      |       27833 |
|     149 | 0x6CBA      |       27834 |
|     150 | 0x6CBB      |       27835 |
|     151 | 0x6CBC      |       27836 |
|     152 | 0x6CBD      |       27837 |
|     153 | 0x6CBE      |       27838 |
|     154 | 0x6CBF      |       27839 |
|     155 | 0x6CC0      |       27840 |
|     156 | 0x6CC1      |       27841 |
|     157 | 0x6CC2      |       27842 |
|     158 | 0x6CC3      |       27843 |
|     159 | 0x6CC4      |       27844 |
|     160 | 0x6CC5      |       27845 |
|     161 | 0x6CC6      |       27846 |
|     162 | 0x6CC8      |       27848 |
|     163 | 0x6CC9      |       27849 |
|     164 | 0x6CCA      |       27850 |
|     165 | 0x5A43      |       23107 |
|     166 | 0x5A44      |       23108 |
|     167 | 0x5A45      |       23109 |
|     168 | 0x5A46      |       23110 |
|     169 | 0x5A47      |       23111 |
|     170 | 0x5A48      |       23112 |
|     171 | 0x5A49      |       23113 |
|     172 | 0x5A4A      |       23114 |
|     173 | 0x5A4B      |       23115 |
|     174 | 0x5A4C      |       23116 |
|     175 | 0x5A4D      |       23117 |
|     176 | 0x5A4E      |       23118 |
|     177 | 0x5A4F      |       23119 |
|     178 | 0x5A50      |       23120 |
|     179 | 0x5A51      |       23121 |
|     180 | 0x5A52      |       23122 |
|     181 | 0x5A53      |       23123 |
|     182 | 0x5A54      |       23124 |
|     183 | 0x5A55      |       23125 |
|     184 | 0x5A57      |       23127 |
|     185 | 0x5A58      |       23128 |
|     186 | 0x5A59      |       23129 |
|     187 | 0x5B92      |       23442 |
|     188 | 0x5B93      |       23443 |
|     189 | 0x5B94      |       23444 |
|     190 | 0x5B95      |       23445 |
|     191 | 0x5B96      |       23446 |
|     192 | 0x5B97      |       23447 |
|     193 | 0x5B98      |       23448 |
|     194 | 0x5B99      |       23449 |
|     195 | 0x5B9A      |       23450 |
|     196 | 0x5B9B      |       23451 |
|     197 | 0x5B9C      |       23452 |
|     198 | 0x5B9D      |       23453 |
|     199 | 0x5B9E      |       23454 |
|     200 | 0x5B9F      |       23455 |
|     201 | 0x5BA0      |       23456 |
|     202 | 0x5BA1      |       23457 |
|     203 | 0x5BA2      |       23458 |
|     204 | 0x5BA3      |       23459 |
|     205 | 0x5BA4      |       23460 |
|     206 | 0x5BA6      |       23462 |
|     207 | 0x5BA7      |       23463 |
|     208 | 0x5BA8      |       23464 |
|     209 | 0x6D3C      |       27964 |
|     210 | 0x6D3D      |       27965 |
|     211 | 0x6D3E      |       27966 |
|     212 | 0x6D3F      |       27967 |
|     213 | 0x6D40      |       27968 |
|     214 | 0x6D41      |       27969 |
|     215 | 0x6D42      |       27970 |
|     216 | 0x6D43      |       27971 |
|     217 | 0x6D44      |       27972 |
|     218 | 0x6D45      |       27973 |
|     219 | 0x6D46      |       27974 |
|     220 | 0x6D47      |       27975 |
|     221 | 0x6D48      |       27976 |
|     222 | 0x6D49      |       27977 |
|     223 | 0x6D4A      |       27978 |
|     224 | 0x6D4B      |       27979 |
|     225 | 0x6D4C      |       27980 |
|     226 | 0x6D4D      |       27981 |
|     227 | 0x6D4E      |       27982 |
|     228 | 0x6D50      |       27984 |
|     229 | 0x6D51      |       27985 |
|     230 | 0x6D52      |       27986 |
|     231 | 0x5A86      |       23174 |
|     232 | 0x5A87      |       23175 |
|     233 | 0x5A88      |       23176 |
|     234 | 0x5A89      |       23177 |
|     235 | 0x5A8A      |       23178 |
|     236 | 0x5A8B      |       23179 |
|     237 | 0x5A8C      |       23180 |
|     238 | 0x5A8D      |       23181 |
|     239 | 0x5A8E      |       23182 |
|     240 | 0x5A8F      |       23183 |
|     241 | 0x5A90      |       23184 |
|     242 | 0x5A91      |       23185 |
|     243 | 0x5A92      |       23186 |
|     244 | 0x5A93      |       23187 |
|     245 | 0x5A94      |       23188 |
|     246 | 0x5A95      |       23189 |
|     247 | 0x5A96      |       23190 |
|     248 | 0x5A97      |       23191 |
|     249 | 0x5A98      |       23192 |
|     250 | 0x5A9A      |       23194 |
|     251 | 0x5A9B      |       23195 |
|     252 | 0x5A9C      |       23196 |
|     253 | 0x5BD5      |       23509 |
|     254 | 0x5BD6      |       23510 |
|     255 | 0x5BD7      |       23511 |
|     256 | 0x5BD8      |       23512 |
|     257 | 0x5BD9      |       23513 |
|     258 | 0x5BDA      |       23514 |
|     259 | 0x5BDB      |       23515 |
|     260 | 0x5BDC      |       23516 |
|     261 | 0x5BDD      |       23517 |
|     262 | 0x5BDE      |       23518 |
|     263 | 0x5BDF      |       23519 |
|     264 | 0x5BE0      |       23520 |
|     265 | 0x5BE1      |       23521 |
|     266 | 0x5BE2      |       23522 |
|     267 | 0x5BE3      |       23523 |
|     268 | 0x5BE4      |       23524 |
|     269 | 0x5BE5      |       23525 |
|     270 | 0x5BE6      |       23526 |
|     271 | 0x5BE7      |       23527 |
|     272 | 0x5BE9      |       23529 |
|     273 | 0x5BEA      |       23530 |
|     274 | 0x5BEB      |       23531 |
|     275 | 0x6DCF      |       28111 |
|     276 | 0x6DD0      |       28112 |
|     277 | 0x6DD1      |       28113 |
|     278 | 0x6DD2      |       28114 |
|     279 | 0x6DD3      |       28115 |
|     280 | 0x6DD4      |       28116 |
|     281 | 0x6DD5      |       28117 |
|     282 | 0x6DD6      |       28118 |
|     283 | 0x6DD7      |       28119 |
|     284 | 0x6DD8      |       28120 |
|     285 | 0x6DD9      |       28121 |
|     286 | 0x6DDA      |       28122 |
|     287 | 0x6DDB      |       28123 |
|     288 | 0x6DDC      |       28124 |
|     289 | 0x6DDD      |       28125 |
|     290 | 0x6DDE      |       28126 |
|     291 | 0x6DDF      |       28127 |
|     292 | 0x6DE0      |       28128 |
|     293 | 0x6DE1      |       28129 |
|     294 | 0x6DE3      |       28131 |
|     295 | 0x6DE4      |       28132 |
|     296 | 0x6DE5      |       28133 |
|     297 | 0x5AC9      |       23241 |
|     298 | 0x5ACA      |       23242 |
|     299 | 0x5ACB      |       23243 |
|     300 | 0x5ACC      |       23244 |
|     301 | 0x5ACD      |       23245 |
|     302 | 0x5ACE      |       23246 |
|     303 | 0x5ACF      |       23247 |
|     304 | 0x5AD0      |       23248 |
|     305 | 0x5AD1      |       23249 |
|     306 | 0x5AD2      |       23250 |
|     307 | 0x5AD3      |       23251 |
|     308 | 0x5AD4      |       23252 |
|     309 | 0x5AD5      |       23253 |
|     310 | 0x5AD6      |       23254 |
|     311 | 0x5AD7      |       23255 |
|     312 | 0x5AD8      |       23256 |
|     313 | 0x5AD9      |       23257 |
|     314 | 0x5ADA      |       23258 |
|     315 | 0x5ADB      |       23259 |
|     316 | 0x5ADD      |       23261 |
|     317 | 0x5ADE      |       23262 |
|     318 | 0x5ADF      |       23263 |
|     319 | 0x5C18      |       23576 |
|     320 | 0x5C19      |       23577 |
|     321 | 0x5C1A      |       23578 |
|     322 | 0x5C1B      |       23579 |
|     323 | 0x5C1C      |       23580 |
|     324 | 0x5C1D      |       23581 |
|     325 | 0x5C1E      |       23582 |
|     326 | 0x5C1F      |       23583 |
|     327 | 0x5C20      |       23584 |
|     328 | 0x5C21      |       23585 |
|     329 | 0x5C22      |       23586 |
|     330 | 0x5C23      |       23587 |
|     331 | 0x5C24      |       23588 |
|     332 | 0x5C25      |       23589 |
|     333 | 0x5C26      |       23590 |
|     334 | 0x5C27      |       23591 |
|     335 | 0x5C28      |       23592 |
|     336 | 0x5C29      |       23593 |
|     337 | 0x5C2A      |       23594 |
|     338 | 0x5C2C      |       23596 |
|     339 | 0x5C2D      |       23597 |
|     340 | 0x5C2E      |       23598 |
|     341 | 0x6E54      |       28244 |
|     342 | 0x6E55      |       28245 |
|     343 | 0x6E56      |       28246 |
|     344 | 0x6E57      |       28247 |
|     345 | 0x6E58      |       28248 |
|     346 | 0x6E59      |       28249 |
|     347 | 0x6E5A      |       28250 |
|     348 | 0x6E5B      |       28251 |
|     349 | 0x6E5C      |       28252 |
|     350 | 0x6E5D      |       28253 |
|     351 | 0x6E5E      |       28254 |
|     352 | 0x6E5F      |       28255 |
|     353 | 0x6E60      |       28256 |
|     354 | 0x6E61      |       28257 |
|     355 | 0x6E62      |       28258 |
|     356 | 0x6E63      |       28259 |
|     357 | 0x6E64      |       28260 |
|     358 | 0x6E65      |       28261 |
|     359 | 0x6E66      |       28262 |
|     360 | 0x6E68      |       28264 |
|     361 | 0x6E69      |       28265 |
|     362 | 0x6E6A      |       28266 |
|     363 | 0x5B0C      |       23308 |
|     364 | 0x5B0D      |       23309 |
|     365 | 0x5B0E      |       23310 |
|     366 | 0x5B0F      |       23311 |
|     367 | 0x5B10      |       23312 |
|     368 | 0x5B11      |       23313 |
|     369 | 0x5B12      |       23314 |
|     370 | 0x5B13      |       23315 |
|     371 | 0x5B14      |       23316 |
|     372 | 0x5B15      |       23317 |
|     373 | 0x5B16      |       23318 |
|     374 | 0x5B17      |       23319 |
|     375 | 0x5B18      |       23320 |
|     376 | 0x5B19      |       23321 |
|     377 | 0x5B1A      |       23322 |
|     378 | 0x5B1B      |       23323 |
|     379 | 0x5B1C      |       23324 |
|     380 | 0x5B1D      |       23325 |
|     381 | 0x5B1E      |       23326 |
|     382 | 0x5B20      |       23328 |
|     383 | 0x5B21      |       23329 |
|     384 | 0x5B22      |       23330 |
|     385 | 0x5C5B      |       23643 |
|     386 | 0x5C5C      |       23644 |
|     387 | 0x5C5D      |       23645 |
|     388 | 0x5C5E      |       23646 |
|     389 | 0x5C5F      |       23647 |
|     390 | 0x5C60      |       23648 |
|     391 | 0x5C61      |       23649 |
|     392 | 0x5C62      |       23650 |
|     393 | 0x5C63      |       23651 |
|     394 | 0x5C64      |       23652 |
|     395 | 0x5C65      |       23653 |
|     396 | 0x5C66      |       23654 |
|     397 | 0x5C67      |       23655 |
|     398 | 0x5C68      |       23656 |
|     399 | 0x5C69      |       23657 |
|     400 | 0x5C6A      |       23658 |
|     401 | 0x5C6B      |       23659 |
|     402 | 0x5C6C      |       23660 |
|     403 | 0x5C6D      |       23661 |
|     404 | 0x5C6F      |       23663 |
|     405 | 0x5C70      |       23664 |
|     406 | 0x5C71      |       23665 |
|     407 | 0x2441      |        9281 |
|     408 | 0x2442      |        9282 |
|     409 | 0x2443      |        9283 |
|     410 | 0x2444      |        9284 |
|     411 | 0x2445      |        9285 |
|     412 | 0x2446      |        9286 |
|     413 | 0x2447      |        9287 |
|     414 | 0x2448      |        9288 |
|     415 | 0x2449      |        9289 |
|     416 | 0x244A      |        9290 |
|     417 | 0x244B      |        9291 |
|     418 | 0x244C      |        9292 |
|     419 | 0x244D      |        9293 |
|     420 | 0x244E      |        9294 |
|     421 | 0x244F      |        9295 |
|     422 | 0x2450      |        9296 |
|     423 | 0x2451      |        9297 |
|     424 | 0x2452      |        9298 |
|     425 | 0x2453      |        9299 |
|     426 | 0x2454      |        9300 |
|     427 | 0x2455      |        9301 |
|     428 | 0x2456      |        9302 |
|     429 | 0x2429      |        9257 |
|     430 | 0x2427      |        9255 |
|     431 | 0x2421      |        9249 |
|     432 | 0x241F      |        9247 |
|     433 | 0x2457      |        9303 |
|     434 | 0x2459      |        9305 |
|     435 | 0x2458      |        9304 |
|     436 | 0x245B      |        9307 |
|     437 | 0x245A      |        9306 |

## String References

- **7954**: What you want? I got lot of food on plate.
- **7955**: How you get here? This no easy place to reach.
- **7956**: Hmmm? You know Temprix? And he recommend you?
- **7957**: If so, then I have request for you.
- **7958**: What will you do? [Listen to his request./Refuse.]
- **7959**: I can make many metal thing, but need more training. You help.
- **7960**: But normal materials no good. Need special one. You bring so I get better.
- **7961**: If I get better, you get stronger. Is good deal.
- **7962**: Here list of what I need.
- **7963**: Look at list, please.
- **7964**: What will you do? [Nothing./Look at the list./Inquire about cards.]
- **7965**: Special List: [Go back./Pummeler's Armor./Anchorite's Attire./Theophany Attire./Spaekona's Attire./Atrophy Armor./Pillager's Attire./Reverance Armor./Ignominy Armor./Totemic Armor./Brioso Attire./Orion Attire./Wakido Armor./Hachiya Garb./Vishap Armor./Convoker's Attire./Assimilator's Attire./Laksamana's Attire./Foire Attire./Maxixi Attire./Academic's Attire./Geomancy Attire./Runeist Attire.]
- **7966**: Special List: [Go back./#./$1./$2./$3./$4./$5./$6./$7./$8./$9.]
- **7967**: I make $0 with $1, but $1 alone not enough. Need more stuff.
- **7968**: 1 $0.
- **7969**: $1 $0.
- **7970**: [Escha beads./And escha beads.] Can make for $1, but will take time. Can make right away with $2.
- **7971**: Can improve $0, but need more stuffs. Need two times.
- **7972**: I show you how good I am. Bring many good ones.
- **7973**: Card very strong. I can use them because I smart.
- **7974**: I make you deal. You bring $0 card[/s] of one type, I give you $1 card[/s] of another type.
- **7975**: Bad deal? No, is good deal. That cost of doing business.
- **7976**: You trade $1 $0. What you want?
- **7977**: Which do you want? [None./#./$1./$2./$3./$4./$5./$6./$7./$8./$9./$10./$11./$12./$13./$14./$15./$16./$17./$18./$19./$20./$21.]
- **7978**: I trade $1 $0. What you say?
- **7979**: What will you do? [Deal./No deal.]
- **7980**: You bring what I ask for, so I put to good use.
- **7981**: I use escha beads for thing. May take time, but is good price.
- **7982**: Many beads, so I finish right away.
- **7983**: What now? ($6 bead[/s]) [I need time to think./Cheap: $0 bead[/s]./Speedy: $1 bead[/s].]
- **7984**: You got it, chief. Come back later.
- **7985**: You want right away? Then watch true master at work!
- **7986**: Okay! I wait for you to bring next one.
- **7987**: Come back later. I very busy.
- **7988**: Hang on. I can tell you have enough escha bead to make item done right away.
- **7989**: What will you do? ($6 bead[/s]) [Wait./Speedy: $0 bead[/s].]
- **7990**: Is ready. Remember, I can make many more!
- **7991**: ... ......
- **7992**: Hm? What that?
- **7993**: You...you mean...
- **7994**: You want it to be as it was? Okay, but I no return materials.
- **7995**: What will you do? [/(Last chance!)] [Wait a second./Stop reforging/]
- **7996**: You sure?
- **7997**: Okay. I return armor to you.

## Events

### Event 65535

#### Metadata

| Field        | Value   |
|--------------|---------|
| Entrypoint   | 0x0000  |
| Data Size    | 1 bytes |
| Instructions | 1       |

```
      00 01 02 03 04 05 06 07  08 09 0A 0B 0C 0D 0E 0F
      -- -- -- -- -- -- -- --  -- -- -- -- -- -- -- --
0000: 00                                                .               
```

#### Opcodes

```
  0: 0x0000 [0x00] END_REQSTACK()
```

### Event 26

#### Metadata

| Field        | Value    |
|--------------|----------|
| Entrypoint   | 0x0001   |
| Data Size    | 14 bytes |
| Instructions | 6        |

```
      00 01 02 03 04 05 06 07  08 09 0A 0B 0C 0D 0E 0F
      -- -- -- -- -- -- -- --  -- -- -- -- -- -- -- --
0000:    1E F0 FF FF 7F 1C 00  80 1D 01 80 23 21 00      ...........#!. 
```

#### Opcodes

```
  0: 0x0001 [0x1E] EventEntity looks at LocalPlayer and starts talking
  1: 0x0006 [0x1C] WAIT(1* ticks)
  2: 0x0009 [0x1D] PRINT_EVENT_MESSAGE(message_id=7954*)
    → "What you want? I got lot of food on plate."
  3: 0x000C [0x23] WAIT_FOR_DIALOG_INTERACTION
  4: 0x000D [0x21] END_EVENT
  5: 0x000E [0x00] END_REQSTACK()
```

### Event 27

#### Metadata

| Field        | Value      |
|--------------|------------|
| Entrypoint   | 0x000F     |
| Data Size    | 2056 bytes |
| Instructions | 95         |

```
      00 01 02 03 04 05 06 07  08 09 0A 0B 0C 0D 0E 0F
      -- -- -- -- -- -- -- --  -- -- -- -- -- -- -- --
0000:                                               03                 .
0010: 00 00 02 10 03 01 00 08  10 1E F0 FF FF 7F 1C 00  ................
0020: 80 03 03 00 02 80 3E 00  00 02 80 34 00 1D 03 80  ......>....4....
0030: 23 01 8D 00 3C 03 00 04  80 00 80 3E 00 00 00 80  #...<......>....
0040: 49 00 1D 05 80 23 01 4D  00 1D 06 80 23 1D 07 80  I....#.M....#...
0050: 23 24 08 80 02 80 02 80  25 02 00 10 02 80 00 7A  #$......%......z
0060: 00 42 1D 09 80 23 1D 0A  80 23 1D 0B 80 23 1D 0C  .B...#...#...#..
0070: 80 23 03 01 10 02 80 01  8D 00 02 00 10 00 80 00  .#..............
0080: 8D 00 03 01 10 00 80 01  14 08 01 8D 00 24 0D 80  .............$..
0090: 00 80 03 00 25 02 00 10  02 80 00 A3 00 01 14 08  ....%...........
00A0: 01 14 08 02 00 10 00 80  00 EC 07 03 04 00 02 80  ................
00B0: 03 05 00 02 80 03 06 00  02 80 03 02 00 02 80 3E  ...............>
00C0: 00 00 04 80 C9 00 01 EC  00 3C 02 00 0E 80 00 80  .........<......
00D0: 3C 02 00 0F 80 00 80 3C  02 00 10 80 00 80 3C 02  <......<......<.
00E0: 00 11 80 00 80 3C 02 00  12 80 00 80 24 13 80 04  .....<......$...
00F0: 00 02 80 25 02 00 10 02  80 00 02 01 01 8D 00 01  ...%............
0100: E9 07 03 04 00 00 10 03  06 00 00 10 08 06 00 00  ................
0110: 80 9D 0A 16 0C 02 10 06  00 14 80 9D 0A A6 0C 03  ................
0120: 10 06 00 14 80 9D 0A 36  0D 04 10 06 00 14 80 9D  .......6........
0130: 0A C6 0D 05 10 06 00 14  80 9D 0A 56 0E 06 10 06  ...........V....
0140: 00 14 80 9D 0A 46 0C 07  10 06 00 14 80 9D 0A D6  .....F..........
0150: 0C 08 10 06 00 14 80 9D  0A 66 0D 09 10 06 00 14  .........f......
0160: 80 9D 0A F6 0D 00 17 06  00 14 80 9D 0A 86 0E 01  ................
0170: 17 06 00 14 80 3E 00 00  15 80 A2 01 02 06 00 16  .....>..........
0180: 80 00 A2 01 0B 02 10 0B  03 10 0B 04 10 0B 05 10  ................
0190: 0B 06 10 0B 07 10 0B 08  10 0B 09 10 0B 00 17 0B  ................
01A0: 01 17 24 17 80 05 00 02  00 25 02 00 10 02 80 00  ..$......%......
01B0: B8 01 01 B0 00 01 E9 07  02 00 10 00 80 00 33 02  ..............3.
01C0: 03 05 00 00 10 03 02 10  02 10 93 02 10 9D 0A E6  ................
01D0: 0B 03 10 06 00 14 80 3E  00 00 15 80 E9 01 02 06  .......>........
01E0: 00 16 80 00 E9 01 0B 03  10 1D 18 80 23 9D 0A E6  ............#...
01F0: 0E 02 10 06 00 14 80 1D  19 80 23 03 02 10 1A 80  ..........#.....
0200: 1D 19 80 23 9D 0A B6 0E  02 10 06 00 14 80 03 03  ...#............
0210: 10 1B 80 1D 1C 80 23 03  02 10 02 80 03 03 10 12  ......#.........
0220: 80 03 04 10 1D 80 1D 1E  80 23 93 02 80 01 11 01  .........#......
0230: 01 E9 07 02 00 10 04 80  00 AE 02 03 05 00 00 10  ................
0240: 03 02 10 03 10 93 02 10  9D 0A 76 0C 03 10 06 00  ..........v.....
0250: 14 80 3E 00 00 15 80 64  02 02 06 00 16 80 00 64  ..>....d.......d
0260: 02 0B 03 10 1D 18 80 23  9D 0A E6 0E 02 10 06 00  .......#........
0270: 14 80 1D 19 80 23 03 02  10 1F 80 1D 19 80 23 9D  .....#........#.
0280: 0A B6 0E 02 10 06 00 14  80 03 03 10 20 80 1D 1C  ............ ...
0290: 80 23 03 02 10 02 80 03  03 10 12 80 03 04 10 1D  .#..............
02A0: 80 1D 1E 80 23 93 02 80  01 11 01 01 E9 07 02 00  ....#...........
02B0: 10 15 80 00 29 03 03 05  00 00 10 03 02 10 04 10  ....)...........
02C0: 93 02 10 9D 0A 06 0D 03  10 06 00 14 80 3E 00 00  .............>..
02D0: 15 80 DF 02 02 06 00 16  80 00 DF 02 0B 03 10 1D  ................
02E0: 18 80 23 9D 0A E6 0E 02  10 06 00 14 80 1D 19 80  ..#.............
02F0: 23 03 02 10 21 80 1D 19  80 23 9D 0A B6 0E 02 10  #...!....#......
0300: 06 00 14 80 03 03 10 15  80 1D 1C 80 23 03 02 10  ............#...
0310: 02 80 03 03 10 12 80 03  04 10 1D 80 1D 1E 80 23  ...............#
0320: 93 02 80 01 11 01 01 E9  07 02 00 10 1B 80 00 A4  ................
0330: 03 03 05 00 00 10 03 02  10 05 10 93 02 10 9D 0A  ................
0340: 96 0D 03 10 06 00 14 80  3E 00 00 15 80 5A 03 02  ........>....Z..
0350: 06 00 16 80 00 5A 03 0B  03 10 1D 18 80 23 9D 0A  .....Z.......#..
0360: E6 0E 02 10 06 00 14 80  1D 19 80 23 03 02 10 22  ...........#..."
0370: 80 1D 19 80 23 9D 0A B6  0E 02 10 06 00 14 80 03  ....#...........
0380: 03 10 1B 80 1D 1C 80 23  03 02 10 02 80 03 03 10  .......#........
0390: 12 80 03 04 10 1D 80 1D  1E 80 23 93 02 80 01 11  ..........#.....
03A0: 01 01 E9 07 02 00 10 20  80 00 1F 04 03 05 00 00  ....... ........
03B0: 10 03 02 10 06 10 93 02  10 9D 0A 26 0E 03 10 06  ...........&....
03C0: 00 14 80 3E 00 00 15 80  D5 03 02 06 00 16 80 00  ...>............
03D0: D5 03 0B 03 10 1D 18 80  23 9D 0A E6 0E 02 10 06  ........#.......
03E0: 00 14 80 1D 19 80 23 03  02 10 23 80 1D 19 80 23  ......#...#....#
03F0: 9D 0A B6 0E 02 10 06 00  14 80 03 03 10 15 80 1D  ................
0400: 1C 80 23 03 02 10 02 80  03 03 10 12 80 03 04 10  ..#.............
0410: 1D 80 1D 1E 80 23 93 02  80 01 11 01 01 E9 07 02  .....#..........
0420: 00 10 0E 80 00 E1 04 03  05 00 00 10 03 07 00 07  ................
0430: 10 03 02 10 07 10 93 02  10 9D 0A 16 0C 03 10 06  ................
0440: 00 14 80 3E 00 00 15 80  55 04 02 06 00 16 80 00  ...>....U.......
0450: 55 04 0B 03 10 1D 18 80  23 9D 0A 16 0F 02 10 06  U.......#.......
0460: 00 14 80 1D 19 80 23 9D  0A B6 0E 02 10 06 00 14  ......#.........
0470: 80 03 03 10 1B 80 14 03  10 15 80 1D 1C 80 23 03  ..............#.
0480: 02 10 02 80 03 03 10 24  80 03 04 10 25 80 1D 1E  .......$....%...
0490: 80 23 03 02 10 07 00 1D  26 80 23 03 02 10 27 80  .#......&.#...'.
04A0: 03 03 10 00 80 1D 1C 80  23 03 02 10 28 80 03 03  ........#...(...
04B0: 10 00 80 1D 1C 80 23 03  02 10 29 80 03 03 10 04  ......#...).....
04C0: 80 1D 1C 80 23 03 02 10  00 80 03 03 10 2A 80 03  ....#........*..
04D0: 04 10 2B 80 1D 1E 80 23  93 02 80 01 11 01 01 E9  ..+....#........
04E0: 07 02 00 10 0F 80 00 A3  05 03 05 00 00 10 03 07  ................
04F0: 00 08 10 03 02 10 08 10  93 02 10 9D 0A A6 0C 03  ................
0500: 10 06 00 14 80 3E 00 00  15 80 17 05 02 06 00 16  .....>..........
0510: 80 00 17 05 0B 03 10 1D  18 80 23 9D 0A 16 0F 02  ..........#.....
0520: 10 06 00 14 80 1D 19 80  23 9D 0A B6 0E 02 10 06  ........#.......
0530: 00 14 80 03 03 10 20 80  14 03 10 15 80 1D 1C 80  ...... .........
0540: 23 03 02 10 02 80 03 03  10 24 80 03 04 10 25 80  #........$....%.
0550: 1D 1E 80 23 03 02 10 07  00 1D 26 80 23 03 02 10  ...#......&.#...
0560: 2C 80 03 03 10 00 80 1D  1C 80 23 03 02 10 2D 80  ,.........#...-.
0570: 03 03 10 00 80 1D 1C 80  23 03 02 10 29 80 03 03  ........#...)...
0580: 10 15 80 1D 1C 80 23 03  02 10 00 80 03 03 10 2A  ......#........*
0590: 80 03 04 10 2B 80 1D 1E  80 23 93 02 80 01 11 01  ....+....#......
05A0: 01 E9 07 02 00 10 10 80  00 65 06 03 05 00 00 10  .........e......
05B0: 03 07 00 09 10 03 02 10  09 10 93 02 10 9D 0A 36  ...............6
05C0: 0D 03 10 06 00 14 80 3E  00 00 15 80 D9 05 02 06  .......>........
05D0: 00 16 80 00 D9 05 0B 03  10 1D 18 80 23 9D 0A 16  ............#...
05E0: 0F 02 10 06 00 14 80 1D  19 80 23 9D 0A B6 0E 02  ..........#.....
05F0: 10 06 00 14 80 03 03 10  15 80 14 03 10 15 80 1D  ................
0600: 1C 80 23 03 02 10 02 80  03 03 10 24 80 03 04 10  ..#........$....
0610: 25 80 1D 1E 80 23 03 02  10 07 00 1D 26 80 23 03  %....#......&.#.
0620: 02 10 2E 80 03 03 10 15  80 1D 1C 80 23 03 02 10  ............#...
0630: 2F 80 03 03 10 00 80 1D  1C 80 23 03 02 10 29 80  /.........#...).
0640: 03 03 10 00 80 1D 1C 80  23 03 02 10 00 80 03 03  ........#.......
0650: 10 2A 80 03 04 10 2B 80  1D 1E 80 23 93 02 80 01  .*....+....#....
0660: 11 01 01 E9 07 02 00 10  11 80 00 27 07 03 05 00  ...........'....
0670: 00 10 03 07 00 00 17 03  02 10 00 17 93 02 10 9D  ................
0680: 0A C6 0D 03 10 06 00 14  80 3E 00 00 15 80 9B 06  .........>......
0690: 02 06 00 16 80 00 9B 06  0B 03 10 1D 18 80 23 9D  ..............#.
06A0: 0A 16 0F 02 10 06 00 14  80 1D 19 80 23 9D 0A B6  ............#...
06B0: 0E 02 10 06 00 14 80 03  03 10 1B 80 14 03 10 15  ................
06C0: 80 1D 1C 80 23 03 02 10  02 80 03 03 10 24 80 03  ....#........$..
06D0: 04 10 25 80 1D 1E 80 23  03 02 10 07 00 1D 26 80  ..%....#......&.
06E0: 23 03 02 10 30 80 03 03  10 00 80 1D 1C 80 23 03  #...0.........#.
06F0: 02 10 2D 80 03 03 10 00  80 1D 1C 80 23 03 02 10  ..-.........#...
0700: 29 80 03 03 10 04 80 1D  1C 80 23 03 02 10 00 80  ).........#.....
0710: 03 03 10 2A 80 03 04 10  2B 80 1D 1E 80 23 93 02  ...*....+....#..
0720: 80 01 11 01 01 E9 07 02  00 10 12 80 00 E9 07 03  ................
0730: 05 00 00 10 03 07 00 01  17 03 02 10 01 17 93 02  ................
0740: 10 9D 0A 56 0E 03 10 06  00 14 80 3E 00 00 15 80  ...V.......>....
0750: 5D 07 02 06 00 16 80 00  5D 07 0B 03 10 1D 18 80  ].......].......
0760: 23 9D 0A 16 0F 02 10 06  00 14 80 1D 19 80 23 9D  #.............#.
0770: 0A B6 0E 02 10 06 00 14  80 03 03 10 15 80 14 03  ................
0780: 10 15 80 1D 1C 80 23 03  02 10 02 80 03 03 10 24  ......#........$
0790: 80 03 04 10 25 80 1D 1E  80 23 03 02 10 07 00 1D  ....%....#......
07A0: 26 80 23 03 02 10 31 80  03 03 10 15 80 1D 1C 80  &.#...1.........
07B0: 23 03 02 10 32 80 03 03  10 00 80 1D 1C 80 23 03  #...2.........#.
07C0: 02 10 29 80 03 03 10 00  80 1D 1C 80 23 03 02 10  ..).........#...
07D0: 00 80 03 03 10 2A 80 03  04 10 2B 80 1D 1E 80 23  .....*....+....#
07E0: 93 02 80 01 11 01 01 E9  07 01 14 08 02 00 10 04  ................
07F0: 80 00 14 08 1D 33 80 23  1D 34 80 23 03 02 10 20  .....3.#.4.#... 
0800: 80 03 03 10 00 80 1D 35  80 23 1D 36 80 23 01 8D  .......5.#.6.#..
0810: 00 01 14 08 2E 21 00                              .....!.         
```

#### Opcodes

```
  0: 0x000F [0x03] ExtData[1]->WorkLocal[0] = Work_Zone[2]
  1: 0x0014 [0x03] ExtData[1]->WorkLocal[1] = Work_Zone[8]
  2: 0x0019 [0x1E] EventEntity looks at LocalPlayer and starts talking
  3: 0x001E [0x1C] WAIT(1* ticks)
  4: 0x0021 [0x03] ExtData[1]->WorkLocal[3] = 0*
  5: 0x0026 [0x3E] IF !(ExtData[1]->WorkLocal[0] bit 0*) GOTO 0x0034
  6: 0x002D [0x1D] PRINT_EVENT_MESSAGE(message_id=7963*)
    → "Look at list, please."
  7: 0x0030 [0x23] WAIT_FOR_DIALOG_INTERACTION
  8: 0x0031 [0x01] GOTO 0x008D
  9: 0x0034 [0x3C] SET_BIT_FLAG_CONDITIONAL(target_work_offset=ExtData[1]->WorkLocal[3], bit_index_work_offset=2*, condition_work_offset=1*)
 10: 0x003B [0x3E] IF !(ExtData[1]->WorkLocal[0] bit 1*) GOTO 0x0049
 11: 0x0042 [0x1D] PRINT_EVENT_MESSAGE(message_id=7956*)
    → "Hmmm? You know Temprix? And he recommend you?"
 12: 0x0045 [0x23] WAIT_FOR_DIALOG_INTERACTION
 13: 0x0046 [0x01] GOTO 0x004D
 14: 0x0049 [0x1D] PRINT_EVENT_MESSAGE(message_id=7955*)
    → "How you get here? This no easy place to reach."
 15: 0x004C [0x23] WAIT_FOR_DIALOG_INTERACTION

SUBROUTINE_004D:
 16: 0x004D [0x1D] PRINT_EVENT_MESSAGE(message_id=7957*)
    → "If so, then I have request for you."
 17: 0x0050 [0x23] WAIT_FOR_DIALOG_INTERACTION
 18: 0x0051 [0x24] CREATE_DIALOG(message_id=7958*, default_option=0*, option_flags=0*)
    → "What will you do? [Listen to his request./Refuse.]"
 19: 0x0058 [0x25] WAIT_DIALOG_SELECT()
 20: 0x0059 [0x02] IF !(Work_Zone[0] == 0*) GOTO 0x007A
 21: 0x0061 [0x42] SET_CLI_EVENT_CANCEL_DATA()
 22: 0x0062 [0x1D] PRINT_EVENT_MESSAGE(message_id=7959*)
    → "I can make many metal thing, but need more training. You help."
 23: 0x0065 [0x23] WAIT_FOR_DIALOG_INTERACTION
 24: 0x0066 [0x1D] PRINT_EVENT_MESSAGE(message_id=7960*)
    → "But normal materials no good. Need special one. You bring so I get better."
 25: 0x0069 [0x23] WAIT_FOR_DIALOG_INTERACTION
 26: 0x006A [0x1D] PRINT_EVENT_MESSAGE(message_id=7961*)
    → "If I get better, you get stronger. Is good deal."
 27: 0x006D [0x23] WAIT_FOR_DIALOG_INTERACTION
 28: 0x006E [0x1D] PRINT_EVENT_MESSAGE(message_id=7962*)
    → "Here list of what I need."
 29: 0x0071 [0x23] WAIT_FOR_DIALOG_INTERACTION
 30: 0x0072 [0x03] Work_Zone[1] = 0*
 31: 0x0077 [0x01] GOTO 0x008D
 32: 0x007A [0x02] IF !(Work_Zone[0] == 1*) GOTO 0x008D
 33: 0x0082 [0x03] Work_Zone[1] = 1*
 34: 0x0087 [0x01] GOTO 0x0814

SUBROUTINE_008D:
 35: 0x008D [0x24] CREATE_DIALOG(message_id=7964*, default_option=1*, option_flags=ExtData[1]->WorkLocal[3])
    → "What will you do? [Nothing./Look at the list./Inquire about cards.]"
 36: 0x0094 [0x25] WAIT_DIALOG_SELECT()
 37: 0x0095 [0x02] IF !(Work_Zone[0] == 0*) GOTO 0x00A3
 38: 0x009D [0x01] GOTO 0x0814

SUBROUTINE_00B0:
 39: 0x00B0 [0x03] ExtData[1]->WorkLocal[5] = 0*
 40: 0x00B5 [0x03] ExtData[1]->WorkLocal[6] = 0*
 41: 0x00BA [0x03] ExtData[1]->WorkLocal[2] = 0*
 42: 0x00BF [0x3E] IF !(ExtData[1]->WorkLocal[0] bit 2*) GOTO 0x00C9
 43: 0x00C6 [0x01] GOTO 0x00EC
 44: 0x00C9 [0x3C] SET_BIT_FLAG_CONDITIONAL(target_work_offset=ExtData[1]->WorkLocal[2], bit_index_work_offset=6*, condition_work_offset=1*)
 45: 0x00D0 [0x3C] SET_BIT_FLAG_CONDITIONAL(target_work_offset=ExtData[1]->WorkLocal[2], bit_index_work_offset=7*, condition_work_offset=1*)
 46: 0x00D7 [0x3C] SET_BIT_FLAG_CONDITIONAL(target_work_offset=ExtData[1]->WorkLocal[2], bit_index_work_offset=8*, condition_work_offset=1*)
 47: 0x00DE [0x3C] SET_BIT_FLAG_CONDITIONAL(target_work_offset=ExtData[1]->WorkLocal[2], bit_index_work_offset=9*, condition_work_offset=1*)
 48: 0x00E5 [0x3C] SET_BIT_FLAG_CONDITIONAL(target_work_offset=ExtData[1]->WorkLocal[2], bit_index_work_offset=10*, condition_work_offset=1*)

SUBROUTINE_00EC:
 49: 0x00EC [0x24] CREATE_DIALOG(message_id=7965*, default_option=ExtData[1]->WorkLocal[4], option_flags=0*)
    → "Special List: [Go back./Pummeler's Armor./Anchorite's Attire./Theophany Attire./Spaekona's Attire./Atrophy Armor./Pillager's Attire./Reverance Armor./Ignominy Armor./Totemic Armor./Brioso Attire./Orion Attire./Wakido Armor./Hachiya Garb./Vishap Armor./Convoker's Attire./Assimilator's Attire./Laksamana's Attire./Foire Attire./Maxixi Attire./Academic's Attire./Geomancy Attire./Runeist Attire.]"
 50: 0x00F3 [0x25] WAIT_DIALOG_SELECT()
 51: 0x00F4 [0x02] IF !(Work_Zone[0] == 0*) GOTO 0x0102
 52: 0x00FC [0x01] GOTO 0x008D

SUBROUTINE_0111:
 53: 0x0111 [0x9D] IF (0x0C16) ExtData[1]->WorkLocal[6] = Work_Zone[2] // extra=0x8014
 54: 0x011B [0x9D] IF (0x0CA6) ExtData[1]->WorkLocal[6] = Work_Zone[3] // extra=0x8014
 55: 0x0125 [0x9D] IF (0x0D36) ExtData[1]->WorkLocal[6] = Work_Zone[4] // extra=0x8014
 56: 0x012F [0x9D] IF (0x0DC6) ExtData[1]->WorkLocal[6] = Work_Zone[5] // extra=0x8014
 57: 0x0139 [0x9D] IF (0x0E56) ExtData[1]->WorkLocal[6] = Work_Zone[6] // extra=0x8014
 58: 0x0143 [0x9D] IF (0x0C46) ExtData[1]->WorkLocal[6] = Work_Zone[7] // extra=0x8014
 59: 0x014D [0x9D] IF (0x0CD6) ExtData[1]->WorkLocal[6] = Work_Zone[8] // extra=0x8014
 60: 0x0157 [0x9D] IF (0x0D66) ExtData[1]->WorkLocal[6] = Work_Zone[9] // extra=0x8014
 61: 0x0161 [0x9D] IF (0x0DF6) ExtData[1]->WorkLocal[6] = Work_Zone_1700[0] // extra=0x8014
 62: 0x016B [0x9D] IF (0x0E86) ExtData[1]->WorkLocal[6] = Work_Zone_1700[1] // extra=0x8014
 63: 0x0175 [0x3E] IF !(ExtData[1]->WorkLocal[0] bit 3*) GOTO 0x01A2
 64: 0x017C [0x02] IF !(ExtData[1]->WorkLocal[6] == 18*) GOTO 0x01A2
 65: 0x0184 [0x0B] Work_Zone[2]++
 66: 0x0187 [0x0B] Work_Zone[3]++
 67: 0x018A [0x0B] Work_Zone[4]++
 68: 0x018D [0x0B] Work_Zone[5]++
 69: 0x0190 [0x0B] Work_Zone[6]++
 70: 0x0193 [0x0B] Work_Zone[7]++
 71: 0x0196 [0x0B] Work_Zone[8]++
 72: 0x0199 [0x0B] Work_Zone[9]++
 73: 0x019C [0x0B] Work_Zone_1700[0]++
 74: 0x019F [0x0B] Work_Zone_1700[1]++
 75: 0x01A2 [0x24] CREATE_DIALOG(message_id=7966*, default_option=ExtData[1]->WorkLocal[5], option_flags=ExtData[1]->WorkLocal[2])
    → "Special List: [Go back./#./$1./$2./$3./$4./$5./$6./$7./$8./$9.]"
 76: 0x01A9 [0x25] WAIT_DIALOG_SELECT()
 77: 0x01AA [0x02] IF !(Work_Zone[0] == 0*) GOTO 0x01B8
 78: 0x01B2 [0x01] GOTO 0x00B0

SUBROUTINE_07E9:
 79: 0x07E9 [0x01] GOTO 0x0814
 80: 0x07EC [0x02] IF !(Work_Zone[0] == 2*) GOTO 0x0814
 81: 0x07F4 [0x1D] PRINT_EVENT_MESSAGE(message_id=7972*)
    → "I show you how good I am. Bring many good ones."
 82: 0x07F7 [0x23] WAIT_FOR_DIALOG_INTERACTION
 83: 0x07F8 [0x1D] PRINT_EVENT_MESSAGE(message_id=7973*)
    → "Card very strong. I can use them because I smart."
 84: 0x07FB [0x23] WAIT_FOR_DIALOG_INTERACTION
 85: 0x07FC [0x03] Work_Zone[2] = 5*
 86: 0x0801 [0x03] Work_Zone[3] = 1*
 87: 0x0806 [0x1D] PRINT_EVENT_MESSAGE(message_id=7974*)
    → "I make you deal. You bring $0 card[/s] of one type, I give you $1 card[/s] of another type."
 88: 0x0809 [0x23] WAIT_FOR_DIALOG_INTERACTION
 89: 0x080A [0x1D] PRINT_EVENT_MESSAGE(message_id=7975*)
    → "Bad deal? No, is good deal. That cost of doing business."
 90: 0x080D [0x23] WAIT_FOR_DIALOG_INTERACTION
 91: 0x080E [0x01] GOTO 0x008D

SUBROUTINE_0814:
 92: 0x0814 [0x2E] SET_CLI_EVENT_CANCEL_FLAGS()
 93: 0x0815 [0x21] END_EVENT
 94: 0x0816 [0x00] END_REQSTACK()
```

#### Data or dead code:

```
# Dead code (unreachable instructions):
     0x008A [0x01] GOTO 0x008D
# Dead code (unreachable instructions):
     0x00A0 [0x01] GOTO 0x0814
# Dead code (unreachable instructions):
     0x00FF [0x01] GOTO 0x07E9
# Dead code (unreachable instructions):
     0x01B5 [0x01] GOTO 0x07E9
     0x0230 [0x01] GOTO 0x07E9
     0x02AB [0x01] GOTO 0x07E9
     0x0326 [0x01] GOTO 0x07E9
     0x03A1 [0x01] GOTO 0x07E9
     0x041C [0x01] GOTO 0x07E9
     0x04DE [0x01] GOTO 0x07E9
     0x05A0 [0x01] GOTO 0x07E9
     0x0662 [0x01] GOTO 0x07E9
     0x0724 [0x01] GOTO 0x07E9
     0x07E6 [0x01] GOTO 0x07E9
# Dead code (unreachable instructions):
     0x0811 [0x01] GOTO 0x0814
```

### Event 28

#### Metadata

| Field        | Value     |
|--------------|-----------|
| Entrypoint   | 0x0817    |
| Data Size    | 179 bytes |
| Instructions | 45        |

```
      00 01 02 03 04 05 06 07  08 09 0A 0B 0C 0D 0E 0F
      -- -- -- -- -- -- -- --  -- -- -- -- -- -- -- --
0810:                      42  03 07 00 02 10 03 00 00         B........
0820: 03 10 03 08 00 04 10 03  09 00 05 10 03 0A 00 06  ................
0830: 10 03 0B 00 07 10 03 01  00 08 10 03 06 00 09 10  ................
0840: 03 02 00 02 80 1E F0 FF  FF 7F 1C 00 80 1D 37 80  ..............7.
0850: 23 1D 38 80 23 3E 00 00  02 80 63 08 1D 39 80 23  #.8.#>....c..9.#
0860: 01 6A 08 3C 02 00 04 80  00 80 03 02 10 08 00 03  .j.<............
0870: 03 10 09 00 24 3A 80 02  80 02 00 25 02 00 10 02  ....$:.....%....
0880: 80 00 8C 08 03 01 10 02  80 01 C7 08 02 00 10 00  ................
0890: 80 00 A0 08 1D 3B 80 23  03 01 10 00 80 01 C7 08  .....;.#........
08A0: 02 00 10 04 80 00 C7 08  1D 3C 80 23 02 0A 00 04  .........<.#....
08B0: 80 00 BF 08 1A C5 0A 03  01 10 15 80 01 C4 08 03  ................
08C0: 01 10 04 80 01 C7 08 2E  21 00                    ........!.      
```

#### Opcodes

```
  0: 0x0817 [0x42] SET_CLI_EVENT_CANCEL_DATA()
  1: 0x0818 [0x03] ExtData[1]->WorkLocal[7] = Work_Zone[2]
  2: 0x081D [0x03] ExtData[1]->WorkLocal[0] = Work_Zone[3]
  3: 0x0822 [0x03] ExtData[1]->WorkLocal[8] = Work_Zone[4]
  4: 0x0827 [0x03] ExtData[1]->WorkLocal[9] = Work_Zone[5]
  5: 0x082C [0x03] ExtData[1]->WorkLocal[10] = Work_Zone[6]
  6: 0x0831 [0x03] ExtData[1]->WorkLocal[11] = Work_Zone[7]
  7: 0x0836 [0x03] ExtData[1]->WorkLocal[1] = Work_Zone[8]
  8: 0x083B [0x03] ExtData[1]->WorkLocal[6] = Work_Zone[9]
  9: 0x0840 [0x03] ExtData[1]->WorkLocal[2] = 0*
 10: 0x0845 [0x1E] EventEntity looks at LocalPlayer and starts talking
 11: 0x084A [0x1C] WAIT(1* ticks)
 12: 0x084D [0x1D] PRINT_EVENT_MESSAGE(message_id=7980*)
    → "You bring what I ask for, so I put to good use."
 13: 0x0850 [0x23] WAIT_FOR_DIALOG_INTERACTION
 14: 0x0851 [0x1D] PRINT_EVENT_MESSAGE(message_id=7981*)
    → "I use escha beads for thing. May take time, but is good price."
 15: 0x0854 [0x23] WAIT_FOR_DIALOG_INTERACTION
 16: 0x0855 [0x3E] IF !(ExtData[1]->WorkLocal[0] bit 0*) GOTO 0x0863
 17: 0x085C [0x1D] PRINT_EVENT_MESSAGE(message_id=7982*)
    → "Many beads, so I finish right away."
 18: 0x085F [0x23] WAIT_FOR_DIALOG_INTERACTION
 19: 0x0860 [0x01] GOTO 0x086A
 20: 0x0863 [0x3C] SET_BIT_FLAG_CONDITIONAL(target_work_offset=ExtData[1]->WorkLocal[2], bit_index_work_offset=2*, condition_work_offset=1*)

SUBROUTINE_086A:
 21: 0x086A [0x03] Work_Zone[2] = ExtData[1]->WorkLocal[8]
 22: 0x086F [0x03] Work_Zone[3] = ExtData[1]->WorkLocal[9]
 23: 0x0874 [0x24] CREATE_DIALOG(message_id=7983*, default_option=0*, option_flags=ExtData[1]->WorkLocal[2])
    → "What now? ($6 bead[/s]) [I need time to think./Cheap: $0 bead[/s]./Speedy: $1 bead[/s].]"
 24: 0x087B [0x25] WAIT_DIALOG_SELECT()
 25: 0x087C [0x02] IF !(Work_Zone[0] == 0*) GOTO 0x088C
 26: 0x0884 [0x03] Work_Zone[1] = 0*
 27: 0x0889 [0x01] GOTO 0x08C7
 28: 0x088C [0x02] IF !(Work_Zone[0] == 1*) GOTO 0x08A0
 29: 0x0894 [0x1D] PRINT_EVENT_MESSAGE(message_id=7984*)
    → "You got it, chief. Come back later."
 30: 0x0897 [0x23] WAIT_FOR_DIALOG_INTERACTION
 31: 0x0898 [0x03] Work_Zone[1] = 1*
 32: 0x089D [0x01] GOTO 0x08C7
 33: 0x08A0 [0x02] IF !(Work_Zone[0] == 2*) GOTO 0x08C7
 34: 0x08A8 [0x1D] PRINT_EVENT_MESSAGE(message_id=7985*)
    → "You want right away? Then watch true master at work!"
 35: 0x08AB [0x23] WAIT_FOR_DIALOG_INTERACTION
 36: 0x08AC [0x02] IF !(ExtData[1]->WorkLocal[10] == 2*) GOTO 0x08BF
 37: 0x08B4 [0x1A] CALL_SUBROUTINE(address=0x0AC5)
 38: 0x08B7 [0x03] Work_Zone[1] = 3*
 39: 0x08BC [0x01] GOTO 0x08C4
 40: 0x08BF [0x03] Work_Zone[1] = 2*

SUBROUTINE_08C4:
 41: 0x08C4 [0x01] GOTO 0x08C7

SUBROUTINE_08C7:
 42: 0x08C7 [0x2E] SET_CLI_EVENT_CANCEL_FLAGS()
 43: 0x08C8 [0x21] END_EVENT
 44: 0x08C9 [0x00] END_REQSTACK()
```

### Event 29

#### Metadata

| Field        | Value     |
|--------------|-----------|
| Entrypoint   | 0x08CA    |
| Data Size    | 280 bytes |
| Instructions | 68        |

```
      00 01 02 03 04 05 06 07  08 09 0A 0B 0C 0D 0E 0F
      -- -- -- -- -- -- -- --  -- -- -- -- -- -- -- --
08C0:                                42 03 07 00 02 10            B.....
08D0: 03 00 00 03 10 03 0A 00  04 10 03 0C 00 05 10 03  ................
08E0: 0B 00 07 10 03 01 00 08  10 03 06 00 09 10 1E F0  ................
08F0: FF FF 7F 1C 00 80 3E 00  00 04 80 8B 09 1A C5 0A  ......>.........
0900: 03 01 10 04 80 02 0C 00  00 80 04 11 09 1D 3D 80  ..............=.
0910: 23 02 0C 00 04 80 04 1D  09 1D 3E 80 23 02 0C 00  #.........>.#...
0920: 15 80 04 29 09 1D 3F 80  23 02 0C 00 1B 80 04 88  ...)..?.#.......
0930: 09 1D 40 80 23 03 02 10  02 80 24 41 80 02 80 02  ..@.#.....$A....
0940: 80 25 02 00 10 02 80 00  4D 09 01 88 09 02 00 10  .%......M.......
0950: 00 80 00 88 09 1D 42 80  23 03 02 10 00 80 24 41  ......B.#.....$A
0960: 80 02 80 02 80 25 02 00  10 02 80 00 71 09 01 85  .....%......q...
0970: 09 02 00 10 00 80 00 85  09 1D 43 80 23 03 01 10  ..........C.#...
0980: 15 80 01 85 09 01 88 09  01 DF 09 1D 44 80 23 3E  ............D.#>
0990: 00 00 02 80 DF 09 1D 45  80 23 03 02 10 07 00 03  .......E.#......
09A0: 08 10 01 00 24 46 80 02  80 02 00 25 02 00 10 02  ....$F.....%....
09B0: 80 00 BC 09 03 01 10 02  80 01 DF 09 02 00 10 00  ................
09C0: 80 00 DF 09 1D 3C 80 23  03 01 10 00 80 3E 00 00  .....<.#.....>..
09D0: 00 80 DC 09 1A C5 0A 03  01 10 1B 80 01 DF 09 2E  ................
09E0: 21 00                                             !.              
```

#### Opcodes

```
  0: 0x08CA [0x42] SET_CLI_EVENT_CANCEL_DATA()
  1: 0x08CB [0x03] ExtData[1]->WorkLocal[7] = Work_Zone[2]
  2: 0x08D0 [0x03] ExtData[1]->WorkLocal[0] = Work_Zone[3]
  3: 0x08D5 [0x03] ExtData[1]->WorkLocal[10] = Work_Zone[4]
  4: 0x08DA [0x03] ExtData[1]->WorkLocal[12] = Work_Zone[5]
  5: 0x08DF [0x03] ExtData[1]->WorkLocal[11] = Work_Zone[7]
  6: 0x08E4 [0x03] ExtData[1]->WorkLocal[1] = Work_Zone[8]
  7: 0x08E9 [0x03] ExtData[1]->WorkLocal[6] = Work_Zone[9]
  8: 0x08EE [0x1E] EventEntity looks at LocalPlayer and starts talking
  9: 0x08F3 [0x1C] WAIT(1* ticks)
 10: 0x08F6 [0x3E] IF !(ExtData[1]->WorkLocal[0] bit 2*) GOTO 0x098B
 11: 0x08FD [0x1A] CALL_SUBROUTINE(address=0x0AC5)
 12: 0x0900 [0x03] Work_Zone[1] = 2*
 13: 0x0905 [0x02] IF !(ExtData[1]->WorkLocal[12] < 1*) GOTO 0x0911
 14: 0x090D [0x1D] PRINT_EVENT_MESSAGE(message_id=7991*)
    → "... ......"
 15: 0x0910 [0x23] WAIT_FOR_DIALOG_INTERACTION
 16: 0x0911 [0x02] IF !(ExtData[1]->WorkLocal[12] < 2*) GOTO 0x091D
 17: 0x0919 [0x1D] PRINT_EVENT_MESSAGE(message_id=7992*)
    → "Hm? What that?"
 18: 0x091C [0x23] WAIT_FOR_DIALOG_INTERACTION
 19: 0x091D [0x02] IF !(ExtData[1]->WorkLocal[12] < 3*) GOTO 0x0929
 20: 0x0925 [0x1D] PRINT_EVENT_MESSAGE(message_id=7993*)
    → "You...you mean..."
 21: 0x0928 [0x23] WAIT_FOR_DIALOG_INTERACTION
 22: 0x0929 [0x02] IF !(ExtData[1]->WorkLocal[12] < 4*) GOTO 0x0988
 23: 0x0931 [0x1D] PRINT_EVENT_MESSAGE(message_id=7994*)
    → "You want it to be as it was? Okay, but I no return materials."
 24: 0x0934 [0x23] WAIT_FOR_DIALOG_INTERACTION
 25: 0x0935 [0x03] Work_Zone[2] = 0*
 26: 0x093A [0x24] CREATE_DIALOG(message_id=7995*, default_option=0*, option_flags=0*)
    → "What will you do? [/(Last chance!)] [Wait a second./Stop reforging/]"
 27: 0x0941 [0x25] WAIT_DIALOG_SELECT()
 28: 0x0942 [0x02] IF !(Work_Zone[0] == 0*) GOTO 0x094D
 29: 0x094A [0x01] GOTO 0x0988
 30: 0x094D [0x02] IF !(Work_Zone[0] == 1*) GOTO 0x0988
 31: 0x0955 [0x1D] PRINT_EVENT_MESSAGE(message_id=7996*)
    → "You sure?"
 32: 0x0958 [0x23] WAIT_FOR_DIALOG_INTERACTION
 33: 0x0959 [0x03] Work_Zone[2] = 1*
 34: 0x095E [0x24] CREATE_DIALOG(message_id=7995*, default_option=0*, option_flags=0*)
    → "What will you do? [/(Last chance!)] [Wait a second./Stop reforging/]"
 35: 0x0965 [0x25] WAIT_DIALOG_SELECT()
 36: 0x0966 [0x02] IF !(Work_Zone[0] == 0*) GOTO 0x0971
 37: 0x096E [0x01] GOTO 0x0985
 38: 0x0971 [0x02] IF !(Work_Zone[0] == 1*) GOTO 0x0985
 39: 0x0979 [0x1D] PRINT_EVENT_MESSAGE(message_id=7997*)
    → "Okay. I return armor to you."
 40: 0x097C [0x23] WAIT_FOR_DIALOG_INTERACTION
 41: 0x097D [0x03] Work_Zone[1] = 3*
 42: 0x0982 [0x01] GOTO 0x0985

SUBROUTINE_0985:
 43: 0x0985 [0x01] GOTO 0x0988

SUBROUTINE_0988:
 44: 0x0988 [0x01] GOTO 0x09DF
 45: 0x098B [0x1D] PRINT_EVENT_MESSAGE(message_id=7987*)
    → "Come back later. I very busy."
 46: 0x098E [0x23] WAIT_FOR_DIALOG_INTERACTION
 47: 0x098F [0x3E] IF !(ExtData[1]->WorkLocal[0] bit 0*) GOTO 0x09DF
 48: 0x0996 [0x1D] PRINT_EVENT_MESSAGE(message_id=7988*)
    → "Hang on. I can tell you have enough escha bead to make item done right away."
 49: 0x0999 [0x23] WAIT_FOR_DIALOG_INTERACTION
 50: 0x099A [0x03] Work_Zone[2] = ExtData[1]->WorkLocal[7]
 51: 0x099F [0x03] Work_Zone[8] = ExtData[1]->WorkLocal[1]
 52: 0x09A4 [0x24] CREATE_DIALOG(message_id=7989*, default_option=0*, option_flags=ExtData[1]->WorkLocal[2])
    → "What will you do? ($6 bead[/s]) [Wait./Speedy: $0 bead[/s].]"
 53: 0x09AB [0x25] WAIT_DIALOG_SELECT()
 54: 0x09AC [0x02] IF !(Work_Zone[0] == 0*) GOTO 0x09BC
 55: 0x09B4 [0x03] Work_Zone[1] = 0*
 56: 0x09B9 [0x01] GOTO 0x09DF
 57: 0x09BC [0x02] IF !(Work_Zone[0] == 1*) GOTO 0x09DF
 58: 0x09C4 [0x1D] PRINT_EVENT_MESSAGE(message_id=7985*)
    → "You want right away? Then watch true master at work!"
 59: 0x09C7 [0x23] WAIT_FOR_DIALOG_INTERACTION
 60: 0x09C8 [0x03] Work_Zone[1] = 1*
 61: 0x09CD [0x3E] IF !(ExtData[1]->WorkLocal[0] bit 1*) GOTO 0x09DC
 62: 0x09D4 [0x1A] CALL_SUBROUTINE(address=0x0AC5)
 63: 0x09D7 [0x03] Work_Zone[1] = 4*
 64: 0x09DC [0x01] GOTO 0x09DF

SUBROUTINE_09DF:
 65: 0x09DF [0x2E] SET_CLI_EVENT_CANCEL_FLAGS()
 66: 0x09E0 [0x21] END_EVENT
 67: 0x09E1 [0x00] END_REQSTACK()
```

### Event 30

#### Metadata

| Field        | Value    |
|--------------|----------|
| Entrypoint   | 0x09E2   |
| Data Size    | 32 bytes |
| Instructions | 12       |

```
      00 01 02 03 04 05 06 07  08 09 0A 0B 0C 0D 0E 0F
      -- -- -- -- -- -- -- --  -- -- -- -- -- -- -- --
09E0:       42 03 07 00 02 10  1E F0 FF FF 7F 1C 00 80    B.............
09F0: 03 02 10 07 00 93 02 10  1D 47 80 23 93 02 80 2E  .........G.#....
0A00: 21 00                                             !.              
```

#### Opcodes

```
  0: 0x09E2 [0x42] SET_CLI_EVENT_CANCEL_DATA()
  1: 0x09E3 [0x03] ExtData[1]->WorkLocal[7] = Work_Zone[2]
  2: 0x09E8 [0x1E] EventEntity looks at LocalPlayer and starts talking
  3: 0x09ED [0x1C] WAIT(1* ticks)
  4: 0x09F0 [0x03] Work_Zone[2] = ExtData[1]->WorkLocal[7]
  5: 0x09F5 [0x93] DISPLAY_ITEM_INFO(item_id=Work_Zone[2])
  6: 0x09F8 [0x1D] PRINT_EVENT_MESSAGE(message_id=7990*)
    → "Is ready. Remember, I can make many more!"
  7: 0x09FB [0x23] WAIT_FOR_DIALOG_INTERACTION
  8: 0x09FC [0x93] DISPLAY_ITEM_INFO(item_id=0*)
  9: 0x09FF [0x2E] SET_CLI_EVENT_CANCEL_FLAGS()
 10: 0x0A00 [0x21] END_EVENT
 11: 0x0A01 [0x00] END_REQSTACK()
```

### Event 32

#### Metadata

| Field        | Value      |
|--------------|------------|
| Entrypoint   | 0x0A02     |
| Data Size    | 1524 bytes |
| Instructions | 44         |

```
      00 01 02 03 04 05 06 07  08 09 0A 0B 0C 0D 0E 0F
      -- -- -- -- -- -- -- --  -- -- -- -- -- -- -- --
0A00:       03 0D 00 02 10 03  0E 00 03 10 03 0F 00 04    ..............
0A10: 10 03 00 00 05 10 1E F0  FF FF 7F 1C 00 80 03 02  ................
0A20: 10 0D 00 03 03 10 0E 00  1D 48 80 23 03 06 00 02  .........H.#....
0A30: 80 02 06 00 14 80 03 53  0A 9D 0A B6 0E 10 00 06  .......S........
0A40: 00 14 80 9D 0F C6 0F 10  00 06 00 14 80 0B 06 00  ................
0A50: 01 31 0A 0B 00 00 3C 02  00 00 00 00 80 24 49 80  .1....<......$I.
0A60: 02 80 02 00 25 02 00 10  02 80 00 75 0A 03 01 10  ....%......u....
0A70: 02 80 01 BF 0A 03 10 00  00 10 0C 10 00 9D 0A B6  ................
0A80: 0E 02 10 10 00 14 80 93  02 10 03 03 10 0F 00 1D  ................
0A90: 4A 80 23 24 4B 80 00 80  02 80 25 02 00 10 02 80  J.#$K.....%.....
0AA0: 00 AF 0A 42 03 01 10 10  00 0B 01 10 01 BF 0A 02  ...B............
0AB0: 00 10 00 80 00 BF 0A 03  01 10 02 80 01 BF 0A 93  ................
0AC0: 02 80 2E 21 00 1D 4C 80  23 02 0B 00 02 80 80 FE  ...!..L.#.......
0AD0: 0A 03 02 10 27 80 03 03  10 00 80 1D 1C 80 23 03  ....'.........#.
0AE0: 02 10 28 80 03 03 10 00  80 1D 1C 80 23 03 02 10  ..(.........#...
0AF0: 29 80 03 03 10 04 80 1D  1C 80 23 01 D2 0B 02 0B  ).........#.....
0B00: 00 00 80 80 33 0B 03 02  10 2C 80 03 03 10 00 80  ....3....,......
0B10: 1D 1C 80 23 03 02 10 2D  80 03 03 10 00 80 1D 1C  ...#...-........
0B20: 80 23 03 02 10 29 80 03  03 10 15 80 1D 1C 80 23  .#...).........#
0B30: 01 D2 0B 02 0B 00 04 80  80 68 0B 03 02 10 2E 80  .........h......
0B40: 03 03 10 15 80 1D 1C 80  23 03 02 10 2F 80 03 03  ........#.../...
0B50: 10 00 80 1D 1C 80 23 03  02 10 29 80 03 03 10 00  ......#...).....
0B60: 80 1D 1C 80 23 01 D2 0B  02 0B 00 15 80 80 9D 0B  ....#...........
0B70: 03 02 10 30 80 03 03 10  00 80 1D 1C 80 23 03 02  ...0.........#..
0B80: 10 2D 80 03 03 10 00 80  1D 1C 80 23 03 02 10 29  .-.........#...)
0B90: 80 03 03 10 04 80 1D 1C  80 23 01 D2 0B 02 0B 00  .........#......
0BA0: 1B 80 80 D2 0B 03 02 10  31 80 03 03 10 15 80 1D  ........1.......
0BB0: 1C 80 23 03 02 10 32 80  03 03 10 00 80 1D 1C 80  ..#...2.........
0BC0: 23 03 02 10 29 80 03 03  10 00 80 1D 1C 80 23 01  #...).........#.
0BD0: D2 0B 03 02 10 02 80 03  03 10 2A 80 03 04 10 2B  ..........*....+
0BE0: 80 1D 1E 80 23 1B 4D 80  4E 80 4F 80 50 80 51 80  ....#.M.N.O.P.Q.
0BF0: 52 80 53 80 54 80 55 80  56 80 57 80 58 80 59 80  R.S.T.U.V.W.X.Y.
0C00: 5A 80 5B 80 5C 80 5D 80  5E 80 5F 80 60 80 61 80  Z.[.\.].^._.`.a.
0C10: 62 80 02 80 02 80 63 80  64 80 65 80 66 80 67 80  b.....c.d.e.f.g.
0C20: 68 80 69 80 6A 80 6B 80  6C 80 6D 80 6E 80 6F 80  h.i.j.k.l.m.n.o.
0C30: 70 80 71 80 72 80 73 80  74 80 75 80 76 80 77 80  p.q.r.s.t.u.v.w.
0C40: 78 80 02 80 02 80 79 80  7A 80 7B 80 7C 80 7D 80  x.....y.z.{.|.}.
0C50: 7E 80 7F 80 80 80 81 80  82 80 83 80 84 80 85 80  ~...............
0C60: 86 80 87 80 88 80 89 80  8A 80 8B 80 8C 80 8D 80  ................
0C70: 8E 80 02 80 02 80 8F 80  90 80 91 80 92 80 93 80  ................
0C80: 94 80 95 80 96 80 97 80  98 80 99 80 9A 80 9B 80  ................
0C90: 9C 80 9D 80 9E 80 9F 80  A0 80 A1 80 A2 80 A3 80  ................
0CA0: A4 80 02 80 02 80 A5 80  A6 80 A7 80 A8 80 A9 80  ................
0CB0: AA 80 AB 80 AC 80 AD 80  AE 80 AF 80 B0 80 B1 80  ................
0CC0: B2 80 B3 80 B4 80 B5 80  B6 80 B7 80 B8 80 B9 80  ................
0CD0: BA 80 02 80 02 80 BB 80  BC 80 BD 80 BE 80 BF 80  ................
0CE0: C0 80 C1 80 C2 80 C3 80  C4 80 C5 80 C6 80 C7 80  ................
0CF0: C8 80 C9 80 CA 80 CB 80  CC 80 CD 80 CE 80 CF 80  ................
0D00: D0 80 02 80 02 80 D1 80  D2 80 D3 80 D4 80 D5 80  ................
0D10: D6 80 D7 80 D8 80 D9 80  DA 80 DB 80 DC 80 DD 80  ................
0D20: DE 80 DF 80 E0 80 E1 80  E2 80 E3 80 E4 80 E5 80  ................
0D30: E6 80 02 80 02 80 E7 80  E8 80 E9 80 EA 80 EB 80  ................
0D40: EC 80 ED 80 EE 80 EF 80  F0 80 F1 80 F2 80 F3 80  ................
0D50: F4 80 F5 80 F6 80 F7 80  F8 80 F9 80 FA 80 FB 80  ................
0D60: FC 80 02 80 02 80 FD 80  FE 80 FF 80 00 81 01 81  ................
0D70: 02 81 03 81 04 81 05 81  06 81 07 81 08 81 09 81  ................
0D80: 0A 81 0B 81 0C 81 0D 81  0E 81 0F 81 10 81 11 81  ................
0D90: 12 81 02 80 02 80 13 81  14 81 15 81 16 81 17 81  ................
0DA0: 18 81 19 81 1A 81 1B 81  1C 81 1D 81 1E 81 1F 81  ................
0DB0: 20 81 21 81 22 81 23 81  24 81 25 81 26 81 27 81   .!.".#.$.%.&.'.
0DC0: 28 81 02 80 02 80 29 81  2A 81 2B 81 2C 81 2D 81  (.....).*.+.,.-.
0DD0: 2E 81 2F 81 30 81 31 81  32 81 33 81 34 81 35 81  ../.0.1.2.3.4.5.
0DE0: 36 81 37 81 38 81 39 81  3A 81 3B 81 3C 81 3D 81  6.7.8.9.:.;.<.=.
0DF0: 3E 81 02 80 02 80 3F 81  40 81 41 81 42 81 43 81  >.....?.@.A.B.C.
0E00: 44 81 45 81 46 81 47 81  48 81 49 81 4A 81 4B 81  D.E.F.G.H.I.J.K.
0E10: 4C 81 4D 81 4E 81 4F 81  50 81 51 81 52 81 53 81  L.M.N.O.P.Q.R.S.
0E20: 54 81 02 80 02 80 55 81  56 81 57 81 58 81 59 81  T.....U.V.W.X.Y.
0E30: 5A 81 5B 81 5C 81 5D 81  5E 81 5F 81 60 81 61 81  Z.[.\.].^._.`.a.
0E40: 62 81 63 81 64 81 65 81  66 81 67 81 68 81 69 81  b.c.d.e.f.g.h.i.
0E50: 6A 81 02 80 02 80 6B 81  6C 81 6D 81 6E 81 6F 81  j.....k.l.m.n.o.
0E60: 70 81 71 81 72 81 73 81  74 81 75 81 76 81 77 81  p.q.r.s.t.u.v.w.
0E70: 78 81 79 81 7A 81 7B 81  7C 81 7D 81 7E 81 7F 81  x.y.z.{.|.}.~...
0E80: 80 81 02 80 02 80 81 81  82 81 83 81 84 81 85 81  ................
0E90: 86 81 87 81 88 81 89 81  8A 81 8B 81 8C 81 8D 81  ................
0EA0: 8E 81 8F 81 90 81 91 81  92 81 93 81 94 81 95 81  ................
0EB0: 96 81 02 80 02 80 97 81  98 81 99 81 9A 81 9B 81  ................
0EC0: 9C 81 9D 81 9E 81 9F 81  A0 81 A1 81 A2 81 A3 81  ................
0ED0: A4 81 A5 81 A6 81 A7 81  A8 81 A9 81 AA 81 AB 81  ................
0EE0: AC 81 02 80 02 80 28 80  2F 80 32 80 AD 81 AE 81  ......(./.2.....
0EF0: 2F 80 AF 81 B0 81 28 80  32 80 28 80 B0 81 B0 81  /.....(.2.(.....
0F00: AF 81 AE 81 32 80 AD 81  AD 81 2F 80 AE 81 32 80  ....2...../...2.
0F10: B0 81 02 80 02 80 B1 81  B1 81 B2 81 B2 81 B2 81  ................
0F20: B3 81 B1 81 B1 81 B4 81  B5 81 B5 81 B1 81 B3 81  ................
0F30: B4 81 B4 81 B2 81 B5 81  B4 81 B3 81 B2 81 B5 81  ................
0F40: B3 81 02 80 02 80 1A 80  1F 80 21 80 22 80 23 80  ..........!.".#.
0F50: 02 80 02 80 02 80 1B 80  20 80 15 80 1B 80 15 80  ........ .......
0F60: 02 80 02 80 02 80 27 80  2C 80 2E 80 30 80 31 80  ......'.,...0.1.
0F70: 02 80 02 80 02 80 00 80  00 80 15 80 00 80 15 80  ................
0F80: 02 80 02 80 02 80 28 80  2D 80 2F 80 2D 80 32 80  ......(.-./.-.2.
0F90: 02 80 02 80 02 80 00 80  00 80 00 80 00 80 00 80  ................
0FA0: 02 80 02 80 02 80 29 80  29 80 29 80 29 80 29 80  ......).).).).).
0FB0: 02 80 02 80 02 80 04 80  15 80 00 80 04 80 00 80  ................
0FC0: 02 80 02 80 02 80 02 10  03 10 04 10 05 10 06 10  ................
0FD0: 07 10 08 10 09 10 00 17  01 17 02 17 03 17 04 17  ................
0FE0: 05 17 06 17 07 17 08 17  09 17 0A 17 0B 17 0C 17  ................
0FF0: 0D 17 02 80 02 80                                 ......          
```

#### Opcodes

```
  0: 0x0A02 [0x03] ExtData[1]->WorkLocal[13] = Work_Zone[2]
  1: 0x0A07 [0x03] ExtData[1]->WorkLocal[14] = Work_Zone[3]
  2: 0x0A0C [0x03] ExtData[1]->WorkLocal[15] = Work_Zone[4]
  3: 0x0A11 [0x03] ExtData[1]->WorkLocal[0] = Work_Zone[5]
  4: 0x0A16 [0x1E] EventEntity looks at LocalPlayer and starts talking
  5: 0x0A1B [0x1C] WAIT(1* ticks)
  6: 0x0A1E [0x03] Work_Zone[2] = ExtData[1]->WorkLocal[13]
  7: 0x0A23 [0x03] Work_Zone[3] = ExtData[1]->WorkLocal[14]
  8: 0x0A28 [0x1D] PRINT_EVENT_MESSAGE(message_id=7976*)
    → "You trade $1 $0. What you want?"
  9: 0x0A2B [0x23] WAIT_FOR_DIALOG_INTERACTION
 10: 0x0A2C [0x03] ExtData[1]->WorkLocal[6] = 0*
 11: 0x0A31 [0x02] IF !(ExtData[1]->WorkLocal[6] >= 22*) GOTO 0x0A53
 12: 0x0A39 [0x9D] IF (0x0EB6) ExtData[1]->WorkLocal[6] = ExtData[1]->WorkLocal[16] // extra=0x8014
 13: 0x0A43 [0x9D] Table[0x0FC6] = ExtData[1]->WorkLocal[16] // p3=ExtData[1]->WorkLocal[6], p4=0x8014
 14: 0x0A4D [0x0B] ExtData[1]->WorkLocal[6]++
 15: 0x0A50 [0x01] GOTO 0x0A31
 16: 0x0A53 [0x0B] ExtData[1]->WorkLocal[0]++
 17: 0x0A56 [0x3C] SET_BIT_FLAG_CONDITIONAL(target_work_offset=ExtData[1]->WorkLocal[2], bit_index_work_offset=ExtData[1]->WorkLocal[0], condition_work_offset=1*)
 18: 0x0A5D [0x24] CREATE_DIALOG(message_id=7977*, default_option=0*, option_flags=ExtData[1]->WorkLocal[2])
    → "Which do you want? [None./#./$1./$2./$3./$4./$5./$6./$7./$8./$9./$10./$11./$12./$13./$14./$15./$16./$17./$18./$19./$20./$21.]"
 19: 0x0A64 [0x25] WAIT_DIALOG_SELECT()
 20: 0x0A65 [0x02] IF !(Work_Zone[0] == 0*) GOTO 0x0A75
 21: 0x0A6D [0x03] Work_Zone[1] = 0*
 22: 0x0A72 [0x01] GOTO 0x0ABF
 23: 0x0A75 [0x03] ExtData[1]->WorkLocal[16] = Work_Zone[0]
 24: 0x0A7A [0x0C] ExtData[1]->WorkLocal[16]--
 25: 0x0A7D [0x9D] IF (0x0EB6) ExtData[1]->WorkLocal[16] = Work_Zone[2] // extra=0x8014
 26: 0x0A87 [0x93] DISPLAY_ITEM_INFO(item_id=Work_Zone[2])
 27: 0x0A8A [0x03] Work_Zone[3] = ExtData[1]->WorkLocal[15]
 28: 0x0A8F [0x1D] PRINT_EVENT_MESSAGE(message_id=7978*)
    → "I trade $1 $0. What you say?"
 29: 0x0A92 [0x23] WAIT_FOR_DIALOG_INTERACTION
 30: 0x0A93 [0x24] CREATE_DIALOG(message_id=7979*, default_option=1*, option_flags=0*)
    → "What will you do? [Deal./No deal.]"
 31: 0x0A9A [0x25] WAIT_DIALOG_SELECT()
 32: 0x0A9B [0x02] IF !(Work_Zone[0] == 0*) GOTO 0x0AAF
 33: 0x0AA3 [0x42] SET_CLI_EVENT_CANCEL_DATA()
 34: 0x0AA4 [0x03] Work_Zone[1] = ExtData[1]->WorkLocal[16]
 35: 0x0AA9 [0x0B] Work_Zone[1]++
 36: 0x0AAC [0x01] GOTO 0x0ABF
 37: 0x0AAF [0x02] IF !(Work_Zone[0] == 1*) GOTO 0x0ABF
 38: 0x0AB7 [0x03] Work_Zone[1] = 0*
 39: 0x0ABC [0x01] GOTO 0x0ABF

SUBROUTINE_0ABF:
 40: 0x0ABF [0x93] DISPLAY_ITEM_INFO(item_id=0*)
 41: 0x0AC2 [0x2E] SET_CLI_EVENT_CANCEL_FLAGS()
 42: 0x0AC3 [0x21] END_EVENT
 43: 0x0AC4 [0x00] END_REQSTACK()
```

#### Data or dead code:

```
# Dead code (unreachable instructions):
     0x0AC5 [0x1D] PRINT_EVENT_MESSAGE(message_id=7986*)
    → "Okay! I wait for you to bring next one."
     0x0AC8 [0x23] WAIT_FOR_DIALOG_INTERACTION
     0x0AC9 [0x02] IF !(ExtData[1]->WorkLocal[11] == 0*) GOTO 0x0AFE
     0x0AD1 [0x03] Work_Zone[2] = 9252*
     0x0AD6 [0x03] Work_Zone[3] = 1*
     0x0ADB [0x1D] PRINT_EVENT_MESSAGE(message_id=7969*)
    → "$1 $0."
     0x0ADE [0x23] WAIT_FOR_DIALOG_INTERACTION
     0x0ADF [0x03] Work_Zone[2] = 9253*
     0x0AE4 [0x03] Work_Zone[3] = 1*
     0x0AE9 [0x1D] PRINT_EVENT_MESSAGE(message_id=7969*)
    → "$1 $0."
     0x0AEC [0x23] WAIT_FOR_DIALOG_INTERACTION
     0x0AED [0x03] Work_Zone[2] = 9256*
     0x0AF2 [0x03] Work_Zone[3] = 2*
     0x0AF7 [0x1D] PRINT_EVENT_MESSAGE(message_id=7969*)
    → "$1 $0."
     0x0AFA [0x23] WAIT_FOR_DIALOG_INTERACTION
     0x0AFB [0x01] GOTO 0x0BD2
     0x0AFE [0x02] IF !(ExtData[1]->WorkLocal[11] == 1*) GOTO 0x0B33
     0x0B06 [0x03] Work_Zone[2] = 9248*
     0x0B0B [0x03] Work_Zone[3] = 1*
     0x0B10 [0x1D] PRINT_EVENT_MESSAGE(message_id=7969*)
    → "$1 $0."
     0x0B13 [0x23] WAIT_FOR_DIALOG_INTERACTION
     0x0B14 [0x03] Work_Zone[2] = 9246*
     0x0B19 [0x03] Work_Zone[3] = 1*
     0x0B1E [0x1D] PRINT_EVENT_MESSAGE(message_id=7969*)
    → "$1 $0."
     0x0B21 [0x23] WAIT_FOR_DIALOG_INTERACTION
     0x0B22 [0x03] Work_Zone[2] = 9256*
     0x0B27 [0x03] Work_Zone[3] = 3*
     0x0B2C [0x1D] PRINT_EVENT_MESSAGE(message_id=7969*)
    → "$1 $0."
     0x0B2F [0x23] WAIT_FOR_DIALOG_INTERACTION
     0x0B30 [0x01] GOTO 0x0BD2
     0x0B33 [0x02] IF !(ExtData[1]->WorkLocal[11] == 2*) GOTO 0x0B68
     0x0B3B [0x03] Work_Zone[2] = 9254*
     0x0B40 [0x03] Work_Zone[3] = 3*
     0x0B45 [0x1D] PRINT_EVENT_MESSAGE(message_id=7969*)
    → "$1 $0."
     0x0B48 [0x23] WAIT_FOR_DIALOG_INTERACTION
     0x0B49 [0x03] Work_Zone[2] = 9245*
     0x0B4E [0x03] Work_Zone[3] = 1*
     0x0B53 [0x1D] PRINT_EVENT_MESSAGE(message_id=7969*)
    → "$1 $0."
     0x0B56 [0x23] WAIT_FOR_DIALOG_INTERACTION
     0x0B57 [0x03] Work_Zone[2] = 9256*
     0x0B5C [0x03] Work_Zone[3] = 1*
     0x0B61 [0x1D] PRINT_EVENT_MESSAGE(message_id=7969*)
    → "$1 $0."
     0x0B64 [0x23] WAIT_FOR_DIALOG_INTERACTION
     0x0B65 [0x01] GOTO 0x0BD2
     0x0B68 [0x02] IF !(ExtData[1]->WorkLocal[11] == 3*) GOTO 0x0B9D
     0x0B70 [0x03] Work_Zone[2] = 9250*
     0x0B75 [0x03] Work_Zone[3] = 1*
     0x0B7A [0x1D] PRINT_EVENT_MESSAGE(message_id=7969*)
    → "$1 $0."
     0x0B7D [0x23] WAIT_FOR_DIALOG_INTERACTION
     0x0B7E [0x03] Work_Zone[2] = 9246*
     0x0B83 [0x03] Work_Zone[3] = 1*
     0x0B88 [0x1D] PRINT_EVENT_MESSAGE(message_id=7969*)
    → "$1 $0."
     0x0B8B [0x23] WAIT_FOR_DIALOG_INTERACTION
     0x0B8C [0x03] Work_Zone[2] = 9256*
     0x0B91 [0x03] Work_Zone[3] = 2*
     0x0B96 [0x1D] PRINT_EVENT_MESSAGE(message_id=7969*)
    → "$1 $0."
     0x0B99 [0x23] WAIT_FOR_DIALOG_INTERACTION
     0x0B9A [0x01] GOTO 0x0BD2
     0x0B9D [0x02] IF !(ExtData[1]->WorkLocal[11] == 4*) GOTO 0x0BD2
     0x0BA5 [0x03] Work_Zone[2] = 9258*
     0x0BAA [0x03] Work_Zone[3] = 3*
     0x0BAF [0x1D] PRINT_EVENT_MESSAGE(message_id=7969*)
    → "$1 $0."
     0x0BB2 [0x23] WAIT_FOR_DIALOG_INTERACTION
     0x0BB3 [0x03] Work_Zone[2] = 9251*
     0x0BB8 [0x03] Work_Zone[3] = 1*
     0x0BBD [0x1D] PRINT_EVENT_MESSAGE(message_id=7969*)
    → "$1 $0."
     0x0BC0 [0x23] WAIT_FOR_DIALOG_INTERACTION
     0x0BC1 [0x03] Work_Zone[2] = 9256*
     0x0BC6 [0x03] Work_Zone[3] = 1*
     0x0BCB [0x1D] PRINT_EVENT_MESSAGE(message_id=7969*)
    → "$1 $0."
     0x0BCE [0x23] WAIT_FOR_DIALOG_INTERACTION
     0x0BCF [0x01] GOTO 0x0BD2
     0x0BD2 [0x03] Work_Zone[2] = 0*
     0x0BD7 [0x03] Work_Zone[3] = 300*
     0x0BDC [0x03] Work_Zone[4] = 15000*
     0x0BE1 [0x1D] PRINT_EVENT_MESSAGE(message_id=7970*)
    → "[Escha beads./And escha beads.] Can make for $1, but will take time. Can make right away with $2."
     0x0BE4 [0x23] WAIT_FOR_DIALOG_INTERACTION
     0x0BE5 [0x1B] RETURN
     0x0BE6 [0x4D] EventEntity->StatusEvent = 9 // Close door
     0x0BE7 [0x80] LOAD_WAIT(entity=Unknown NPC (ID: 2152693838/0x804F804E))
     0x0BEC [0x50] END_SCHEDULER_TASK: End scheduler 0x00005580 with entities [0x5180, 0x5380], work=[21120, 21632]
     0x0BF9 [0x80] LOAD_WAIT(entity=Unknown NPC (ID: 2153283671/0x80588057))
     0x0BFE [0x59] UPDATE_ENTITY_DATA: Unknown mode 128
     0x0C02 [0x5B] LOAD_EXT_SCHEDULER: Load scheduler 0x62806180 with entities [Unknown NPC (ID: 1585470848/0x5E805D80), Unknown NPC (ID: 1619025792/0x60805F80)], work=0x5C80
     0x0C11 [0x80] LOAD_WAIT(entity=Unknown NPC (ID: 2147647490/0x80028002))
     0x0C16 [0x63] PLAY_ANIMATION_WAIT(animation=25728)
     0x0C19 [0x80] LOAD_WAIT(entity=Unknown NPC (ID: 2154201189/0x80668065))
     0x0C1E [0x67] HIDE_HUD_ELEMENTS(param1=0x6880, param2=0x6980)
     0x0C23 [0x80] LOAD_WAIT(entity=Unknown NPC (ID: 2154528874/0x806B806A))
     0x0C28 [0x6C] FADE_ENTITY_COLOR(entity_id=Unknown NPC (ID: 1853910400/0x6E806D80), end_alpha=0x6F80, fade_time=0x7080)
     0x0C31 [0x80] LOAD_WAIT(entity=Unknown NPC (ID: 2154987633/0x80728071))
     0x0C36 [0x73] Unknown NPC (ID: 1988130176/0x76807580) casts magic 0x7480 on Unknown NPC (ID: 2021685120/0x78807780)
     0x0C41 [0x80] LOAD_WAIT(entity=Unknown NPC (ID: 2147647490/0x80028002))
     0x0C46 [0x79] Unknown NPC (ID: 2155577466/0x807B807A) looks at Unknown NPC (ID: 2155708540/0x807D807C) (Unknown mode 128)
     0x0C50 [0x7E] CHOCOBO_MOUNT: Unknown mode 128
     0x0C56 [0x81] SET_ENTITY_BLINKING(blink_flag=0x80, entity=Unknown NPC (ID: 2156101762/0x80838082))
     0x0C5C [0x84] ADJUST_RENDER_FLAGS3_BIT0()
     0x0C5D [0x80] LOAD_WAIT(entity=Unknown NPC (ID: 2156298373/0x80868085))
     0x0C62 [0x87] WORLD_PASS_HANDLER_A: Send world pass packet 0x1B (Para=0)
     0x0C63 [0x80] LOAD_WAIT(entity=Unknown NPC (ID: 2156494984/0x80898088))
     0x0C68 [0x8A] CLOSE_MAP()
     0x0C69 [0x80] LOAD_WAIT(entity=Unknown NPC (ID: 2156691595/0x808C808B))
     0x0C6E [0x8D] OPEN_MAP_WITH_PROPERTIES(map_id=References[3712], properties=0x0280)
     0x0C73 [0x80] LOAD_WAIT(entity=Unknown NPC (ID: 2156888066/0x808F8002))
     0x0C78 [0x90] EventEntity->Render.Flags0 |= 0x04; EventEntity->Render.Flags1 |= 0x08
     0x0C79 [0x80] LOAD_WAIT(entity=Unknown NPC (ID: 2157084817/0x80928091))
     0x0C7E [0x93] DISPLAY_ITEM_INFO(item_id=0x9480)
     0x0C81 [0x80] LOAD_WAIT(entity=Unknown NPC (ID: 2157346965/0x80968095))
     0x0C86 [0x97] SAVE_SET_WIND_VALUES(wind_base=0x9880, wind_width=0x9980)
     0x0C8B [0x80] LOAD_WAIT(entity=Unknown NPC (ID: 2157674650/0x809B809A))
     0x0C90 [0x9C] STORE_CLIENT_LANGUAGE_ID(result=0x9D80)
     0x0C93 [0x80] LOAD_WAIT(entity=Unknown NPC (ID: 2157936798/0x809F809E))
     0x0C98 [0xA0] WAIT_LOAD_SCHEDULER_MAIN_ALT2: Wait for scheduler 0xA5800280 with entities [Unknown NPC (ID: 2743116416/0xA380A280), Unknown NPC (ID: 41985152/0x0280A480)], work=0xA180
     0x0CA7 [0x80] LOAD_WAIT(entity=Unknown NPC (ID: 2158461094/0x80A780A6))
     0x0CAC [0xA8] MAP_MARKER_CONTROL: Control markers (flag=0x80), zone=23111*, marker=23112*
     0x0CB2 [0xAB] ADJUST_ENTITY_FLAGS: Unknown sub_case 0x80
     0x0CB4 [0xAC] ENTITY_STATUS_HANDLER: Invalid case 0x80 (bad parse?)
     0x0CB8 [0xAE] MULTI_PURPOSE_ENTITY_HANDLER(case_type=0x80)
     0x0CBA [0xAF] GET_CAMERA_POSITION(mode=0x80, x=0x80B0, z=0x80B1, y=0x80B2)
     0x0CC2 [0xB3] RANKINGS_BOARD_HANDLER(case_type=0x80)
     0x0CC4 [0xB4] UI_WINDOW_STRING_HANDLER(case=0x80 - Unknown case 0x80)
     0x0CC6 [0xB5] SET_EVENT_ENTITY_NAME: Change EventEntity name to "TZ"*
     0x0CCA [0xB7] ENTITY_DATA_HANDLER: Unknown case 0x80 for Unknown NPC (ID: 2159640760/0x80B980B8)
     0x0CD2 [0x02] IF !(0x0280 == 0xBB80) GOTO 0x80BC
     0x0CDA [0xBD] END_LOAD_SCHEDULER_MAIN_ALT6: End scheduler 0xC480C380 with entities [Unknown NPC (ID: 3229663104/0xC080BF80), Unknown NPC (ID: 3263218048/0xC280C180)], work=0xBE80
     0x0CE9 [0x80] LOAD_WAIT(entity=Unknown NPC (ID: 2160492741/0x80C680C5))
     0x0CEE [0xC7] END_LOAD_SCHEDULER_ALT3: End scheduler 0xCE80CD80 with entities [Unknown NPC (ID: 3397437824/0xCA80C980), Unknown NPC (ID: 3430992768/0xCC80CB80)], work=0xC880
     0x0CFD [0x80] LOAD_WAIT(entity=Unknown NPC (ID: 2161148111/0x80D080CF))
     0x0D02 [0x02] IF !(0x0280 == 0xD180) GOTO 0x80D2
     0x0D0A [0xD3] CLEAR_ENTITY_MOTION_QUEUE(condition_flag=0x80, entity_server_id=0x80D580D4)
     0x0D10 [0xD6] WAIT_LOAD_SCHEDULER_ALT6: Wait for scheduler 0xDD80DC80 with entities [Unknown NPC (ID: 3649099904/0xD980D880), Unknown NPC (ID: 3682654848/0xDB80DA80)], work=0xD780
     0x0D1F [0x80] LOAD_WAIT(entity=Unknown NPC (ID: 2162131166/0x80DF80DE))
     0x0D24 [0xE0] UNKNOWN_0xE0
     0x0D25 [0x80] LOAD_WAIT(entity=Unknown NPC (ID: 2162327777/0x80E280E1))
     0x0D2A [0xE3] UNKNOWN_0xE3
     0x0D2B [0x80] LOAD_WAIT(entity=Unknown NPC (ID: 2162524388/0x80E580E4))
     0x0D30 [0xE6] UNKNOWN_0xE6
     0x0D31 [0x80] LOAD_WAIT(entity=Unknown NPC (ID: 2147647490/0x80028002))
     0x0D36 [0xE7] UNKNOWN_0xE7
     0x0D37 [0x80] LOAD_WAIT(entity=Unknown NPC (ID: 2162786536/0x80E980E8))
     0x0D3C [0xEA] UNKNOWN_0xEA
     0x0D3D [0x80] LOAD_WAIT(entity=Unknown NPC (ID: 2162983147/0x80EC80EB))
     0x0D42 [0xED] UNKNOWN_0xED
     0x0D43 [0x80] LOAD_WAIT(entity=Unknown NPC (ID: 2163179758/0x80EF80EE))
     0x0D48 [0xF0] UNKNOWN_0xF0
     0x0D49 [0x80] LOAD_WAIT(entity=Unknown NPC (ID: 2163376369/0x80F280F1))
     0x0D4E [0xF3] UNKNOWN_0xF3
     0x0D4F [0x80] LOAD_WAIT(entity=Unknown NPC (ID: 2163572980/0x80F580F4))
     0x0D54 [0xF6] UNKNOWN_0xF6
     0x0D55 [0x80] LOAD_WAIT(entity=Unknown NPC (ID: 2163769591/0x80F880F7))
     0x0D5A [0xF9] UNKNOWN_0xF9
     0x0D5B [0x80] LOAD_WAIT(entity=Unknown NPC (ID: 2163966202/0x80FB80FA))
     0x0D60 [0xFC] UNKNOWN_0xFC
     0x0D61 [0x80] LOAD_WAIT(entity=Unknown NPC (ID: 2147647490/0x80028002))
     0x0D66 [0xFD] UNKNOWN_0xFD
     0x0D67 [0x80] LOAD_WAIT(entity=Unknown NPC (ID: 2164228350/0x80FF80FE))
     0x0D6C [0x00] END_REQSTACK()
     0x0D6D [0x81] SET_ENTITY_BLINKING(blink_flag=0x01, entity=Unknown NPC (ID: 58786433/0x03810281))
     0x0D73 [0x81] SET_ENTITY_BLINKING(blink_flag=0x04, entity=Unknown NPC (ID: 109118849/0x06810581))
     0x0D79 [0x81] SET_ENTITY_BLINKING(blink_flag=0x07, entity=Unknown NPC (ID: 159451265/0x09810881))
     0x0D7F [0x81] SET_ENTITY_BLINKING(blink_flag=0x0A, entity=Unknown NPC (ID: 209783681/0x0C810B81))
     0x0D85 [0x81] SET_ENTITY_BLINKING(blink_flag=0x0D, entity=Unknown NPC (ID: 260116097/0x0F810E81))
     0x0D8B [0x81] SET_ENTITY_BLINKING(blink_flag=0x10, entity=Unknown NPC (ID: 310448513/0x12811181))
     0x0D91 [0x81] SET_ENTITY_BLINKING(blink_flag=0x02, entity=Unknown NPC (ID: 327156352/0x13800280))
     0x0D97 [0x81] SET_ENTITY_BLINKING(blink_flag=0x14, entity=Unknown NPC (ID: 377558401/0x16811581))
     0x0D9D [0x81] SET_ENTITY_BLINKING(blink_flag=0x17, entity=Unknown NPC (ID: 427890817/0x19811881))
     0x0DA3 [0x81] SET_ENTITY_BLINKING(blink_flag=0x1A, entity=Unknown NPC (ID: 478223233/0x1C811B81))
     0x0DA9 [0x81] SET_ENTITY_BLINKING(blink_flag=0x1D, entity=Unknown NPC (ID: 528555649/0x1F811E81))
     0x0DAF [0x81] SET_ENTITY_BLINKING(blink_flag=0x20, entity=Unknown NPC (ID: 578888065/0x22812181))
     0x0DB5 [0x81] SET_ENTITY_BLINKING(blink_flag=0x23, entity=Unknown NPC (ID: 629220481/0x25812481))
     0x0DBB [0x81] SET_ENTITY_BLINKING(blink_flag=0x26, entity=Unknown NPC (ID: 679552897/0x28812781))
     0x0DC1 [0x81] SET_ENTITY_BLINKING(blink_flag=0x02, entity=Unknown NPC (ID: 696255104/0x29800280))
     0x0DC7 [0x81] SET_ENTITY_BLINKING(blink_flag=0x2A, entity=Unknown NPC (ID: 746662785/0x2C812B81))
     0x0DCD [0x81] SET_ENTITY_BLINKING(blink_flag=0x2D, entity=Unknown NPC (ID: 796995201/0x2F812E81))
     0x0DD3 [0x81] SET_ENTITY_BLINKING(blink_flag=0x30, entity=Unknown NPC (ID: 847327617/0x32813181))
     0x0DD9 [0x81] SET_ENTITY_BLINKING(blink_flag=0x33, entity=Unknown NPC (ID: 897660033/0x35813481))
     0x0DDF [0x81] SET_ENTITY_BLINKING(blink_flag=0x36, entity=Unknown NPC (ID: 947992449/0x38813781))
     0x0DE5 [0x81] SET_ENTITY_BLINKING(blink_flag=0x39, entity=Unknown NPC (ID: 998324865/0x3B813A81))
     0x0DEB [0x81] SET_ENTITY_BLINKING(blink_flag=0x3C, entity=Unknown NPC (ID: 1048657281/0x3E813D81))
     0x0DF1 [0x81] SET_ENTITY_BLINKING(blink_flag=0x02, entity=Unknown NPC (ID: 1065353856/0x3F800280))
     0x0DF7 [0x81] SET_ENTITY_BLINKING(blink_flag=0x40, entity=Unknown NPC (ID: 1115767169/0x42814181))
     0x0DFD [0x81] SET_ENTITY_BLINKING(blink_flag=0x43, entity=Unknown NPC (ID: 1166099585/0x45814481))
     0x0E03 [0x81] SET_ENTITY_BLINKING(blink_flag=0x46, entity=Unknown NPC (ID: 1216432001/0x48814781))
     0x0E09 [0x81] SET_ENTITY_BLINKING(blink_flag=0x49, entity=Unknown NPC (ID: 1266764417/0x4B814A81))
     0x0E0F [0x81] SET_ENTITY_BLINKING(blink_flag=0x4C, entity=Unknown NPC (ID: 1317096833/0x4E814D81))
     0x0E15 [0x81] SET_ENTITY_BLINKING(blink_flag=0x4F, entity=Unknown NPC (ID: 1367429249/0x51815081))
     0x0E1B [0x81] SET_ENTITY_BLINKING(blink_flag=0x52, entity=Unknown NPC (ID: 1417761665/0x54815381))
     0x0E21 [0x81] SET_ENTITY_BLINKING(blink_flag=0x02, entity=Unknown NPC (ID: 1434452608/0x55800280))
     0x0E27 [0x81] SET_ENTITY_BLINKING(blink_flag=0x56, entity=Unknown NPC (ID: 1484871553/0x58815781))
     0x0E2D [0x81] SET_ENTITY_BLINKING(blink_flag=0x59, entity=Unknown NPC (ID: 1535203969/0x5B815A81))
     0x0E33 [0x81] SET_ENTITY_BLINKING(blink_flag=0x5C, entity=Unknown NPC (ID: 1585536385/0x5E815D81))
     0x0E39 [0x81] SET_ENTITY_BLINKING(blink_flag=0x5F, entity=Unknown NPC (ID: 1635868801/0x61816081))
     0x0E3F [0x81] SET_ENTITY_BLINKING(blink_flag=0x62, entity=Unknown NPC (ID: 1686201217/0x64816381))
     0x0E45 [0x81] SET_ENTITY_BLINKING(blink_flag=0x65, entity=Unknown NPC (ID: 1736533633/0x67816681))
     0x0E4B [0x81] SET_ENTITY_BLINKING(blink_flag=0x68, entity=Unknown NPC (ID: 1786866049/0x6A816981))
     0x0E51 [0x81] SET_ENTITY_BLINKING(blink_flag=0x02, entity=Unknown NPC (ID: 1803551360/0x6B800280))
     0x0E57 [0x81] SET_ENTITY_BLINKING(blink_flag=0x6C, entity=Unknown NPC (ID: 1853975937/0x6E816D81))
     0x0E5D [0x81] SET_ENTITY_BLINKING(blink_flag=0x6F, entity=Unknown NPC (ID: 1904308353/0x71817081))
     0x0E63 [0x81] SET_ENTITY_BLINKING(blink_flag=0x72, entity=Unknown NPC (ID: 1954640769/0x74817381))
     0x0E69 [0x81] SET_ENTITY_BLINKING(blink_flag=0x75, entity=Unknown NPC (ID: 2004973185/0x77817681))
     0x0E6F [0x81] SET_ENTITY_BLINKING(blink_flag=0x78, entity=Unknown NPC (ID: 2055305601/0x7A817981))
     0x0E75 [0x81] SET_ENTITY_BLINKING(blink_flag=0x7B, entity=Unknown NPC (ID: 2105638017/0x7D817C81))
     0x0E7B [0x81] SET_ENTITY_BLINKING(blink_flag=0x7E, entity=Unknown NPC (ID: 2155970433/0x80817F81))
     0x0E81 [0x81] SET_ENTITY_BLINKING(blink_flag=0x02, entity=Unknown NPC (ID: 2172650112/0x81800280))
     0x0E87 [0x81] SET_ENTITY_BLINKING(blink_flag=0x82, entity=Unknown NPC (ID: 2223080321/0x84818381))
     0x0E8D [0x81] SET_ENTITY_BLINKING(blink_flag=0x85, entity=Unknown NPC (ID: 2273412737/0x87818681))
     0x0E93 [0x81] SET_ENTITY_BLINKING(blink_flag=0x88, entity=Unknown NPC (ID: 2323745153/0x8A818981))
     0x0E99 [0x81] SET_ENTITY_BLINKING(blink_flag=0x8B, entity=Unknown NPC (ID: 2374077569/0x8D818C81))
     0x0E9F [0x81] SET_ENTITY_BLINKING(blink_flag=0x8E, entity=Unknown NPC (ID: 2424409985/0x90818F81))
     0x0EA5 [0x81] SET_ENTITY_BLINKING(blink_flag=0x91, entity=Unknown NPC (ID: 2474742401/0x93819281))
     0x0EAB [0x81] SET_ENTITY_BLINKING(blink_flag=0x94, entity=Unknown NPC (ID: 2525074817/0x96819581))
     0x0EB1 [0x81] SET_ENTITY_BLINKING(blink_flag=0x02, entity=Unknown NPC (ID: 2541748864/0x97800280))
     0x0EB7 [0x81] SET_ENTITY_BLINKING(blink_flag=0x98, entity=Unknown NPC (ID: 2592184705/0x9A819981))
     0x0EBD [0x81] SET_ENTITY_BLINKING(blink_flag=0x9B, entity=Unknown NPC (ID: 2642517121/0x9D819C81))
     0x0EC3 [0x81] SET_ENTITY_BLINKING(blink_flag=0x9E, entity=Unknown NPC (ID: 2692849537/0xA0819F81))
     0x0EC9 [0x81] SET_ENTITY_BLINKING(blink_flag=0xA1, entity=Unknown NPC (ID: 2743181953/0xA381A281))
     0x0ECF [0x81] SET_ENTITY_BLINKING(blink_flag=0xA4, entity=Unknown NPC (ID: 2793514369/0xA681A581))
     0x0ED5 [0x81] SET_ENTITY_BLINKING(blink_flag=0xA7, entity=Unknown NPC (ID: 2843846785/0xA981A881))
     0x0EDB [0x81] SET_ENTITY_BLINKING(blink_flag=0xAA, entity=Unknown NPC (ID: 2894179201/0xAC81AB81))
     0x0EE1 [0x81] SET_ENTITY_BLINKING(blink_flag=0x02, entity=Unknown NPC (ID: 679477888/0x28800280))
     0x0EE7 [0x80] LOAD_WAIT(entity=Unknown NPC (ID: 2150793263/0x8032802F))
     0x0EEC [0xAD] DUAL_ENTITY_SCHEDULER_HANDLER: Execute sub-case 1 with entities [Unknown NPC (ID: 2175762479/0x81AF802F), Unknown NPC (ID: 2150138288/0x802881B0)], work=9255*
     0x0EF8 [0x32] ExtData[1]->MainSpeed = 0x2880 * 0.1
     0x0EFB [0x80] LOAD_WAIT(entity=Unknown NPC (ID: 2175828400/0x81B081B0))
     0x0F00 [0xAF] GET_CAMERA_POSITION(mode=0x81, x=0x81AE, z=0x8032, y=0x81AD)
     0x0F08 [0xAD] DUAL_ENTITY_SCHEDULER_HANDLER: Execute sub-case 1 with entities [Unknown NPC (ID: 2150793646/0x803281AE), Unknown NPC (ID: 2147647920/0x800281B0)], work=9245*
     0x0F14 [0x02] IF !(0xB180 == 0xB181) GOTO 0x81B2
     0x0F1C [0xB2] DELIVERY_BOX_HANDLER(mode=0x81)
     0x0F1E [0xB2] DELIVERY_BOX_HANDLER(mode=0x81)
     0x0F20 [0xB3] RANKINGS_BOARD_HANDLER(case_type=0x81)
     0x0F22 [0xB1] GET_APP_FLAG(flag_type=0x81, dest_offset=0x81B1)
     0x0F26 [0xB4] UI_WINDOW_STRING_HANDLER(case=0x81 - Unknown case 0x81)
     0x0F28 [0xB5] SET_EVENT_ENTITY_NAME: Change EventEntity name to "Z$"*
     0x0F2C [0xB1] GET_APP_FLAG(flag_type=0x81, dest_offset=0x81B3)
     0x0F30 [0xB4] UI_WINDOW_STRING_HANDLER(case=0x81 - Unknown case 0x81)
     0x0F32 [0xB4] UI_WINDOW_STRING_HANDLER(case=0x81 - Unknown case 0x81)
     0x0F34 [0xB2] DELIVERY_BOX_HANDLER(mode=0x81)
     0x0F36 [0xB5] SET_EVENT_ENTITY_NAME: Change EventEntity name to "[$"*
     0x0F3A [0xB3] RANKINGS_BOARD_HANDLER(case_type=0x81)
     0x0F3C [0xB2] DELIVERY_BOX_HANDLER(mode=0x81)
     0x0F3E [0xB5] SET_EVENT_ENTITY_NAME: Change EventEntity name to "X$"*
     0x0F42 [0x02] IF !(0x0280 == 0x1A80) GOTO 0x801F
     0x0F4A [0x21] END_EVENT
     0x0F4B [0x80] LOAD_WAIT(entity=Unknown NPC (ID: 2149810210/0x80238022))
     0x0F50 [0x02] IF !(0x0280 == 0x0280) GOTO 0x801B
     0x0F58 [0x20] SET_CLI_EVENT_UC_FLAG: Unknown flag value 0x80
     0x0F5A [0x15] 0x1B80 /= 0x1580
     0x0F5F [0x80] LOAD_WAIT(entity=Unknown NPC (ID: 2147647490/0x80028002))
     0x0F64 [0x02] IF !(0x2780 == 0x2C80) GOTO 0x802E
     0x0F6C [0x30] SET_UCOFF_CONTINUE_ZERO()
     0x0F6D [0x80] LOAD_WAIT(entity=Unknown NPC (ID: 2147647537/0x80028031))
     0x0F72 [0x02] IF !(0x0280 == 0x80) GOTO 0x8000
     0x0F7A [0x15] 0x80 /= 0x1580
     0x0F7F [0x80] LOAD_WAIT(entity=Unknown NPC (ID: 2147647490/0x80028002))
     0x0F84 [0x02] IF !(0x2880 == 0x2D80) GOTO 0x802F
     0x0F8C [0x2D] CREATE_ZONE_SCHEDULER_TASK: Create scheduler 0x00800080 with entities [Unknown NPC (ID: 41955968/0x02803280), Unknown NPC (ID: 41943680/0x02800280)]
     0x0F99 [0x80] LOAD_WAIT(entity=Unknown NPC (ID: 2147516416/0x80008000))
     0x0F9E [0x00] END_REQSTACK()
     0x0F9F [0x80] LOAD_WAIT(entity=Unknown NPC (ID: 2147647490/0x80028002))
     0x0FA4 [0x02] IF !(0x2980 == 0x2980) GOTO 0x8029
     0x0FAC [0x29] REQ_SET_WAIT(priority=0x80, entity_id=Unknown NPC (ID: 2147647529/0x80028029), tag_num=0x02)
     0x0FB3 [0x80] LOAD_WAIT(entity=Unknown NPC (ID: 2147778562/0x80048002))
     0x0FB8 [0x15] 0x80 /= 0x0480
     0x0FBD [0x80] LOAD_WAIT(entity=Unknown NPC (ID: 2147647488/0x80028000))
     0x0FC2 [0x02] IF !(0x0280 == 0x0280) GOTO 0x1003
     0x0FCA [0x04] DEPRECATED_NOP(unused=0x0510)
     0x0FCD [0x10] Work_Zone[6] <<= Work_Zone[7]
     0x0FD2 [0x08] 0x0910 -= ExtData[1]->WorkLocal[16]
     0x0FD7 [0x17] Work_Zone_1700[1] = cos(Work_Zone_1700[2]) * Work_Zone_1700[3]
     0x0FDE [0x04] DEPRECATED_NOP(unused=0x0517)
     0x0FE1 [0x17] Work_Zone_1700[6] = cos(Work_Zone_1700[7]) * Work_Zone_1700[8]
     0x0FE8 [0x09] 0x0A17 |= (1 << 0x0B17)
     0x0FED [0x17] Work_Zone_1700[12] = cos(Work_Zone_1700[13]) * 0*
```
