# 17970048

## Common Data

| Field            | Value                |
|------------------|----------------------|
| Zone             | Reisenjima (ID: 291) |
| Block Size       | 26076 bytes          |
| Total Events     | 7                    |
| References Count | 449                  |

## List of Events

| Event ID              | Entrypoint   |   Size |   Instructions |
|-----------------------|--------------|--------|----------------|
| [65535](#event-65535) | 0x0000       |    658 |             62 |
| [49](#event-49)       | 0x0292       |   3730 |            482 |
| [50](#event-50)       | 0x1124       |   2985 |            378 |
| [51](#event-51)       | 0x1CCD       |   5337 |            691 |
| [52](#event-52)       | 0x31A6       |   7294 |           1069 |
| [53](#event-53)       | 0x4E24       |   3974 |            473 |
| [54](#event-54)       | 0x5DAA       |    255 |             51 |

## DAT References (imed_data)

|   Index | Hex Value   |   Dec Value |
|---------|-------------|-------------|
|       0 | 0x00C8      |         200 |
|       1 | 0x0000      |           0 |
|       2 | 0x00C9      |         201 |
|       3 | 0x0001      |           1 |
|       4 | 0x002D      |          45 |
|       5 | 0x0002      |           2 |
|       6 | 0x001E      |          30 |
|       7 | 0x00D7      |         215 |
|       8 | 0x012C      |         300 |
|       9 | 0x0093      |         147 |
|      10 | 0x42B70     |      273264 |
|      11 | 0x18C9B     |      101531 |
|      12 | 0xFFFEAC41  |  4294880321 |
|      13 | 0x076C      |        1900 |
|      14 | 0x3FA8C     |      260748 |
|      15 | 0x19CDE     |      105694 |
|      16 | 0xFFFEAC29  |  4294880297 |
|      17 | 0x0C6B      |        3179 |
|      18 | 0x41BCE     |      269262 |
|      19 | 0x18913     |      100627 |
|      20 | 0xFFFEAC32  |  4294880306 |
|      21 | 0x0FAD      |        4013 |
|      22 | 0x0005      |           5 |
|      23 | 0x0377      |         887 |
|      24 | 0x0006      |           6 |
|      25 | 0x21BF      |        8639 |
|      26 | 0x21C0      |        8640 |
|      27 | 0x21C1      |        8641 |
|      28 | 0x21C2      |        8642 |
|      29 | 0x21C3      |        8643 |
|      30 | 0x21C4      |        8644 |
|      31 | 0x0050      |          80 |
|      32 | 0x007F      |         127 |
|      33 | 0x21C5      |        8645 |
|      34 | 0x21C6      |        8646 |
|      35 | 0x0028      |          40 |
|      36 | 0x21C7      |        8647 |
|      37 | 0x21C8      |        8648 |
|      38 | 0x21C9      |        8649 |
|      39 | 0x21CA      |        8650 |
|      40 | 0x21CB      |        8651 |
|      41 | 0x21CC      |        8652 |
|      42 | 0x21CD      |        8653 |
|      43 | 0x21CE      |        8654 |
|      44 | 0x21CF      |        8655 |
|      45 | 0x21D0      |        8656 |
|      46 | 0x0003      |           3 |
|      47 | 0x0008      |           8 |
|      48 | 0x21D1      |        8657 |
|      49 | 0x0015      |          21 |
|      50 | 0x003C      |          60 |
|      51 | 0x21D2      |        8658 |
|      52 | 0x0080      |         128 |
|      53 | 0x000F      |          15 |
|      54 | 0x41BF3     |      269299 |
|      55 | 0x189A5     |      100773 |
|      56 | 0xFFFEAC35  |  4294880309 |
|      57 | 0x0974      |        2420 |
|      58 | 0x21D3      |        8659 |
|      59 | 0x21D4      |        8660 |
|      60 | 0x0014      |          20 |
|      61 | 0x001F      |          31 |
|      62 | 0x21D5      |        8661 |
|      63 | 0x21D6      |        8662 |
|      64 | 0x21D7      |        8663 |
|      65 | 0x21D8      |        8664 |
|      66 | 0x005A      |          90 |
|      67 | 0x21D9      |        8665 |
|      68 | 0x21DA      |        8666 |
|      69 | 0x21DB      |        8667 |
|      70 | 0x0DCE      |        3534 |
|      71 | 0x21DC      |        8668 |
|      72 | 0x21DD      |        8669 |
|      73 | 0x21DE      |        8670 |
|      74 | 0x004F      |          79 |
|      75 | 0xFFF8FB20  |  4294507296 |
|      76 | 0x973EC     |      619500 |
|      77 | 0xFFFF3F3A  |  4294917946 |
|      78 | 0x03FF      |        1023 |
|      79 | 0xFFF8FFD7  |  4294508503 |
|      80 | 0x934EF     |      603375 |
|      81 | 0xFFFF3A8E  |  4294916750 |
|      82 | 0x0BF5      |        3061 |
|      83 | 0xFFF8CB5B  |  4294495067 |
|      84 | 0x8C21D     |      573981 |
|      85 | 0xFFFF3475  |  4294915189 |
|      86 | 0x0DED      |        3565 |
|      87 | 0xFFF8F1C8  |  4294504904 |
|      88 | 0x91890     |      596112 |
|      89 | 0xFFFF3A39  |  4294916665 |
|      90 | 0x0CDF      |        3295 |
|      91 | 0x21E1      |        8673 |
|      92 | 0x21E2      |        8674 |
|      93 | 0x21E3      |        8675 |
|      94 | 0x21E4      |        8676 |
|      95 | 0x21E5      |        8677 |
|      96 | 0x21E6      |        8678 |
|      97 | 0x21E7      |        8679 |
|      98 | 0x21E8      |        8680 |
|      99 | 0xFFF8FAD7  |  4294507223 |
|     100 | 0x95A5B     |      612955 |
|     101 | 0xFFFF40B4  |  4294918324 |
|     102 | 0x03F3      |        1011 |
|     103 | 0x21E9      |        8681 |
|     104 | 0x21EA      |        8682 |
|     105 | 0x21EB      |        8683 |
|     106 | 0xFFF8FA1F  |  4294507039 |
|     107 | 0x9311C     |      602396 |
|     108 | 0xFFFF3F0A  |  4294917898 |
|     109 | 0x046B      |        1131 |
|     110 | 0x0051      |          81 |
|     111 | 0x0323      |         803 |
|     112 | 0x21EC      |        8684 |
|     113 | 0x21ED      |        8685 |
|     114 | 0x21EE      |        8686 |
|     115 | 0x21EF      |        8687 |
|     116 | 0x21F0      |        8688 |
|     117 | 0x21F1      |        8689 |
|     118 | 0x21F2      |        8690 |
|     119 | 0x21F3      |        8691 |
|     120 | 0x0190      |         400 |
|     121 | 0x21F4      |        8692 |
|     122 | 0x0376      |         886 |
|     123 | 0x21F5      |        8693 |
|     124 | 0x21F6      |        8694 |
|     125 | 0x21F7      |        8695 |
|     126 | 0x21F8      |        8696 |
|     127 | 0x02E0      |         736 |
|     128 | 0x00FF      |         255 |
|     129 | 0xFFF49EA2  |  4294221474 |
|     130 | 0xFFF411EB  |  4294185451 |
|     131 | 0xFFF94C59  |  4294528089 |
|     132 | 0x0BA4      |        2980 |
|     133 | 0xFFF47EFD  |  4294213373 |
|     134 | 0xFFF42BC0  |  4294192064 |
|     135 | 0xFFF94BAA  |  4294527914 |
|     136 | 0x00E8      |         232 |
|     137 | 0xFFF48C96  |  4294216854 |
|     138 | 0xFFF430B9  |  4294193337 |
|     139 | 0xFFF94B4D  |  4294527821 |
|     140 | 0x020A      |         522 |
|     141 | 0xFFF4D18A  |  4294234506 |
|     142 | 0xFFF42BD0  |  4294192080 |
|     143 | 0xFFF94B26  |  4294527782 |
|     144 | 0x0BE3      |        3043 |
|     145 | 0xFFF483EA  |  4294214634 |
|     146 | 0xFFF3E82C  |  4294174764 |
|     147 | 0xFFF94A91  |  4294527633 |
|     148 | 0x0366      |         870 |
|     149 | 0xFFF48CD7  |  4294216919 |
|     150 | 0xFFF41E14  |  4294188564 |
|     151 | 0xFFF94C8C  |  4294528140 |
|     152 | 0x09A0      |        2464 |
|     153 | 0x0004      |           4 |
|     154 | 0x0052      |          82 |
|     155 | 0x21F9      |        8697 |
|     156 | 0x0078      |         120 |
|     157 | 0x21FA      |        8698 |
|     158 | 0x0032      |          50 |
|     159 | 0x000A      |          10 |
|     160 | 0x21FB      |        8699 |
|     161 | 0x21FC      |        8700 |
|     162 | 0x21FD      |        8701 |
|     163 | 0x21FE      |        8702 |
|     164 | 0x21FF      |        8703 |
|     165 | 0x2200      |        8704 |
|     166 | 0x2201      |        8705 |
|     167 | 0x2202      |        8706 |
|     168 | 0x2203      |        8707 |
|     169 | 0x2204      |        8708 |
|     170 | 0x2205      |        8709 |
|     171 | 0x2206      |        8710 |
|     172 | 0x2207      |        8711 |
|     173 | 0x0320      |         800 |
|     174 | 0x2208      |        8712 |
|     175 | 0x2209      |        8713 |
|     176 | 0x0BB8      |        3000 |
|     177 | 0x220A      |        8714 |
|     178 | 0x220B      |        8715 |
|     179 | 0x220C      |        8716 |
|     180 | 0x220D      |        8717 |
|     181 | 0x220E      |        8718 |
|     182 | 0x220F      |        8719 |
|     183 | 0x2210      |        8720 |
|     184 | 0x2211      |        8721 |
|     185 | 0x2212      |        8722 |
|     186 | 0x2213      |        8723 |
|     187 | 0x2214      |        8724 |
|     188 | 0xFFF49587  |  4294219143 |
|     189 | 0xFFF42261  |  4294189665 |
|     190 | 0xFFF94C3B  |  4294528059 |
|     191 | 0xFFF4866C  |  4294215276 |
|     192 | 0xFFF4223D  |  4294189629 |
|     193 | 0xFFF94C4D  |  4294528077 |
|     194 | 0x0A23      |        2595 |
|     195 | 0xFFF48EAE  |  4294217390 |
|     196 | 0xFFF43732  |  4294194994 |
|     197 | 0xFFF94AE1  |  4294527713 |
|     198 | 0x0072      |         114 |
|     199 | 0xFFF4AA97  |  4294224535 |
|     200 | 0xFFF42FC0  |  4294193088 |
|     201 | 0xFFF94B14  |  4294527764 |
|     202 | 0x088E      |        2190 |
|     203 | 0x0FFF      |        4095 |
|     204 | 0x2215      |        8725 |
|     205 | 0x00D0      |         208 |
|     206 | 0xFFF9378C  |  4294522764 |
|     207 | 0x0023      |          35 |
|     208 | 0x07C6      |        1990 |
|     209 | 0x016A      |         362 |
|     210 | 0x10C7      |        4295 |
|     211 | 0xFFF4D024  |  4294234148 |
|     212 | 0xFFF43CAD  |  4294196397 |
|     213 | 0xFFF94B1F  |  4294527775 |
|     214 | 0x0800      |        2048 |
|     215 | 0xFFF46FC2  |  4294209474 |
|     216 | 0xFFF44D37  |  4294200631 |
|     217 | 0xFFF949C5  |  4294527429 |
|     218 | 0x0033      |          51 |
|     219 | 0x2216      |        8726 |
|     220 | 0x2217      |        8727 |
|     221 | 0x2218      |        8728 |
|     222 | 0x2219      |        8729 |
|     223 | 0x221A      |        8730 |
|     224 | 0xFFF479CF  |  4294212047 |
|     225 | 0xFFF4307A  |  4294193274 |
|     226 | 0xFFF94B5E  |  4294527838 |
|     227 | 0x01C1      |         449 |
|     228 | 0x221B      |        8731 |
|     229 | 0x221C      |        8732 |
|     230 | 0x0A8A      |        2698 |
|     231 | 0xFFF49E99  |  4294221465 |
|     232 | 0xFFF439A0  |  4294195616 |
|     233 | 0xFFF94AE5  |  4294527717 |
|     234 | 0x0769      |        1897 |
|     235 | 0xFFF4AC58  |  4294224984 |
|     236 | 0xFFF45ACC  |  4294204108 |
|     237 | 0xFFF94C78  |  4294528120 |
|     238 | 0x0A8C      |        2700 |
|     239 | 0x221D      |        8733 |
|     240 | 0x221E      |        8734 |
|     241 | 0xFFF4AC52  |  4294224978 |
|     242 | 0xFFF41DEA  |  4294188522 |
|     243 | 0xFFF94B9B  |  4294527899 |
|     244 | 0x221F      |        8735 |
|     245 | 0x2220      |        8736 |
|     246 | 0x2221      |        8737 |
|     247 | 0x2222      |        8738 |
|     248 | 0x0007      |           7 |
|     249 | 0x02DF      |         735 |
|     250 | 0xFFF485F9  |  4294215161 |
|     251 | 0xFFF42A37  |  4294191671 |
|     252 | 0xFFF94BB5  |  4294527925 |
|     253 | 0x014C      |         332 |
|     254 | 0xFFF491F3  |  4294218227 |
|     255 | 0xFFF4596B  |  4294203755 |
|     256 | 0xFFF94A99  |  4294527641 |
|     257 | 0x0C49      |        3145 |
|     258 | 0xFFF4B83F  |  4294228031 |
|     259 | 0xFFF42064  |  4294189156 |
|     260 | 0xFFF94B3F  |  4294527807 |
|     261 | 0x0978      |        2424 |
|     262 | 0xFFF498C8  |  4294219976 |
|     263 | 0xFFF431B1  |  4294193585 |
|     264 | 0xFFF94B25  |  4294527781 |
|     265 | 0x0BBD      |        3005 |
|     266 | 0x00C2      |         194 |
|     267 | 0x0378      |         888 |
|     268 | 0x2224      |        8740 |
|     269 | 0x2225      |        8741 |
|     270 | 0x2226      |        8742 |
|     271 | 0x05B3      |        1459 |
|     272 | 0x2227      |        8743 |
|     273 | 0x04A9      |        1193 |
|     274 | 0x2228      |        8744 |
|     275 | 0x2229      |        8745 |
|     276 | 0x222A      |        8746 |
|     277 | 0x222B      |        8747 |
|     278 | 0x222C      |        8748 |
|     279 | 0x222D      |        8749 |
|     280 | 0x0404      |        1028 |
|     281 | 0x222E      |        8750 |
|     282 | 0x222F      |        8751 |
|     283 | 0xFFF4860E  |  4294215182 |
|     284 | 0xFFF42B96  |  4294192022 |
|     285 | 0xFFF94BA2  |  4294527906 |
|     286 | 0x0633      |        1587 |
|     287 | 0x2230      |        8752 |
|     288 | 0x2231      |        8753 |
|     289 | 0x2232      |        8754 |
|     290 | 0x0046      |          70 |
|     291 | 0x2233      |        8755 |
|     292 | 0x2234      |        8756 |
|     293 | 0x2235      |        8757 |
|     294 | 0x2236      |        8758 |
|     295 | 0x2237      |        8759 |
|     296 | 0x2238      |        8760 |
|     297 | 0x2239      |        8761 |
|     298 | 0x223A      |        8762 |
|     299 | 0x0D48      |        3400 |
|     300 | 0x223B      |        8763 |
|     301 | 0x223C      |        8764 |
|     302 | 0x03E8      |        1000 |
|     303 | 0x223D      |        8765 |
|     304 | 0x223E      |        8766 |
|     305 | 0x223F      |        8767 |
|     306 | 0x2240      |        8768 |
|     307 | 0x09F4      |        2548 |
|     308 | 0x2241      |        8769 |
|     309 | 0x0258      |         600 |
|     310 | 0x2242      |        8770 |
|     311 | 0x2243      |        8771 |
|     312 | 0x2244      |        8772 |
|     313 | 0x2245      |        8773 |
|     314 | 0x2246      |        8774 |
|     315 | 0x001B      |          27 |
|     316 | 0x2247      |        8775 |
|     317 | 0x2248      |        8776 |
|     318 | 0x2249      |        8777 |
|     319 | 0x224A      |        8778 |
|     320 | 0x224B      |        8779 |
|     321 | 0x224C      |        8780 |
|     322 | 0xFFF4AE86  |  4294225542 |
|     323 | 0xFFF4297E  |  4294191486 |
|     324 | 0xFFF94AFD  |  4294527741 |
|     325 | 0xFFF49D73  |  4294221171 |
|     326 | 0xFFF44296  |  4294197910 |
|     327 | 0xFFF94B5A  |  4294527834 |
|     328 | 0x224D      |        8781 |
|     329 | 0x224E      |        8782 |
|     330 | 0x224F      |        8783 |
|     331 | 0x2250      |        8784 |
|     332 | 0xFFF4479C  |  4294199196 |
|     333 | 0xFFF40B10  |  4294183696 |
|     334 | 0xFFF88F50  |  4294479696 |
|     335 | 0x1CCD      |        7373 |
|     336 | 0xFFFFFF1D  |  4294967069 |
|     337 | 0x15F90     |       90000 |
|     338 | 0x04B0      |        1200 |
|     339 | 0x0064      |         100 |
|     340 | 0x2251      |        8785 |
|     341 | 0x2252      |        8786 |
|     342 | 0x2253      |        8787 |
|     343 | 0x00D5      |         213 |
|     344 | 0x2254      |        8788 |
|     345 | 0x2255      |        8789 |
|     346 | 0xFFFFFF1C  |  4294967068 |
|     347 | 0x0514      |        1300 |
|     348 | 0x0096      |         150 |
|     349 | 0x2256      |        8790 |
|     350 | 0x2257      |        8791 |
|     351 | 0x2258      |        8792 |
|     352 | 0x2259      |        8793 |
|     353 | 0x03A1      |         929 |
|     354 | 0x225A      |        8794 |
|     355 | 0x225B      |        8795 |
|     356 | 0x225C      |        8796 |
|     357 | 0x225D      |        8797 |
|     358 | 0x0019      |          25 |
|     359 | 0x225E      |        8798 |
|     360 | 0x225F      |        8799 |
|     361 | 0x2260      |        8800 |
|     362 | 0x2261      |        8801 |
|     363 | 0x2262      |        8802 |
|     364 | 0xFFF49F4D  |  4294221645 |
|     365 | 0xFFF4390F  |  4294195471 |
|     366 | 0xFFF94AC9  |  4294527689 |
|     367 | 0x0251      |         593 |
|     368 | 0x2263      |        8803 |
|     369 | 0x0FE6      |        4070 |
|     370 | 0x0F46      |        3910 |
|     371 | 0x2264      |        8804 |
|     372 | 0x2265      |        8805 |
|     373 | 0x2266      |        8806 |
|     374 | 0x2267      |        8807 |
|     375 | 0x2268      |        8808 |
|     376 | 0x2269      |        8809 |
|     377 | 0x226A      |        8810 |
|     378 | 0x0591      |        1425 |
|     379 | 0x226B      |        8811 |
|     380 | 0x226C      |        8812 |
|     381 | 0x226D      |        8813 |
|     382 | 0x226E      |        8814 |
|     383 | 0x4212A     |      270634 |
|     384 | 0x18133     |       98611 |
|     385 | 0xFFFEAC28  |  4294880296 |
|     386 | 0x0D7F      |        3455 |
|     387 | 0x41F34     |      270132 |
|     388 | 0x194D9     |      103641 |
|     389 | 0xFFFEAC62  |  4294880354 |
|     390 | 0x0216      |         534 |
|     391 | 0xFFFA82AB  |  4294607531 |
|     392 | 0xFFF33197  |  4294128023 |
|     393 | 0xFFF94940  |  4294527296 |
|     394 | 0x0C00      |        3072 |
|     395 | 0x3FE4A     |      261706 |
|     396 | 0x18418     |       99352 |
|     397 | 0x0FB3      |        4019 |
|     398 | 0x0362      |         866 |
|     399 | 0x2270      |        8816 |
|     400 | 0x2271      |        8817 |
|     401 | 0x2272      |        8818 |
|     402 | 0x2273      |        8819 |
|     403 | 0x2274      |        8820 |
|     404 | 0x2275      |        8821 |
|     405 | 0x2276      |        8822 |
|     406 | 0x2277      |        8823 |
|     407 | 0x2278      |        8824 |
|     408 | 0x2279      |        8825 |
|     409 | 0x227A      |        8826 |
|     410 | 0x227B      |        8827 |
|     411 | 0x227C      |        8828 |
|     412 | 0x227D      |        8829 |
|     413 | 0x227E      |        8830 |
|     414 | 0x227F      |        8831 |
|     415 | 0x2280      |        8832 |
|     416 | 0x2281      |        8833 |
|     417 | 0x2282      |        8834 |
|     418 | 0x2283      |        8835 |
|     419 | 0x2284      |        8836 |
|     420 | 0x2285      |        8837 |
|     421 | 0x021C      |         540 |
|     422 | 0x0168      |         360 |
|     423 | 0x0011      |          17 |
|     424 | 0x0A1B      |        2587 |
|     425 | 0xFFFA2540  |  4294583616 |
|     426 | 0xFFF33BEB  |  4294130667 |
|     427 | 0xFFF94A6E  |  4294527598 |
|     428 | 0x0FF1      |        4081 |
|     429 | 0x0054      |          84 |
|     430 | 0x007C      |         124 |
|     431 | 0x00F0      |         240 |
|     432 | 0x014A      |         330 |
|     433 | 0x0090      |         144 |
|     434 | 0x032A      |         810 |
|     435 | 0x00D8      |         216 |
|     436 | 0x01AC      |         428 |
|     437 | 0x01A0      |         416 |
|     438 | 0x01A4      |         420 |
|     439 | 0x21DF      |        8671 |
|     440 | 0x21E0      |        8672 |
|     441 | 0x01A6      |         422 |
|     442 | 0x2223      |        8739 |
|     443 | 0x2286      |        8838 |
|     444 | 0x2287      |        8839 |
|     445 | 0x01AE      |         430 |
|     446 | 0x2288      |        8840 |
|     447 | 0x2289      |        8841 |
|     448 | 0x228A      |        8842 |

## String References

- **7373**: @@
- **8658**: How do you respond? [That's so cruel!/Forgive me!/Popopi!]

## Events

### Event 65535

#### Metadata

| Field        | Value     |
|--------------|-----------|
| Entrypoint   | 0x0000    |
| Data Size    | 658 bytes |
| Instructions | 1         |

```
      00 01 02 03 04 05 06 07  08 09 0A 0B 0C 0D 0E 0F
      -- -- -- -- -- -- -- --  -- -- -- -- -- -- -- --
0000: 00 45 00 80 F0 FF FF 7F  F0 FF FF 7F 66 64 69 30  .E..........fdi0
0010: 01 80 55 00 80 F0 FF FF  7F F0 FF FF 7F 66 64 69  ..U..........fdi
0020: 30 1B 45 00 80 F0 FF FF  7F F0 FF FF 7F 66 64 6F  0.E..........fdo
0030: 30 01 80 55 00 80 F0 FF  FF 7F F0 FF FF 7F 66 64  0..U..........fd
0040: 6F 30 1B 45 00 80 F0 FF  FF 7F F0 FF FF 7F 66 64  o0.E..........fd
0050: 69 31 01 80 55 00 80 F0  FF FF 7F F0 FF FF 7F 66  i1..U..........f
0060: 64 69 31 1B 45 00 80 F0  FF FF 7F F0 FF FF 7F 66  di1.E..........f
0070: 64 6F 31 01 80 55 00 80  F0 FF FF 7F F0 FF FF 7F  do1..U..........
0080: 66 64 6F 31 1B 45 02 80  F0 FF FF 7F F0 FF FF 7F  fdo1.E..........
0090: 77 68 69 31 01 80 55 02  80 F0 FF FF 7F F0 FF FF  whi1..U.........
00A0: 7F 77 68 69 31 1B 45 02  80 F0 FF FF 7F F0 FF FF  .whi1.E.........
00B0: 7F 77 68 6F 31 01 80 55  02 80 F0 FF FF 7F F0 FF  .who1..U........
00C0: FF 7F 77 68 6F 31 1B 45  02 80 F0 FF FF 7F F0 FF  ..who1.E........
00D0: FF 7F 77 68 6F 32 01 80  55 02 80 F0 FF FF 7F F0  ..who2..U.......
00E0: FF FF 7F 77 68 6F 32 1B  45 02 80 F0 FF FF 7F F0  ...who2.E.......
00F0: FF FF 7F 77 68 6F 33 01  80 55 02 80 F0 FF FF 7F  ...who3..U......
0100: F0 FF FF 7F 77 68 6F 33  1B 62 03 80 F0 FF FF 7F  ....who3.b......
0110: F0 FF FF 7F 6D 61 69 6E  01 80 1C 04 80 45 00 80  ....main.....E..
0120: F0 FF FF 7F F0 FF FF 7F  66 64 6F 31 01 80 55 00  ........fdo1..U.
0130: 80 F0 FF FF 7F F0 FF FF  7F 66 64 6F 31 1B 45 00  .........fdo1.E.
0140: 80 F0 FF FF 7F F0 FF FF  7F 66 64 69 31 01 80 62  .........fdi1..b
0150: 05 80 F0 FF FF 7F F0 FF  FF 7F 6D 61 69 6E 01 80  ..........main..
0160: 1C 06 80 55 00 80 F0 FF  FF 7F F0 FF FF 7F 66 64  ...U..........fd
0170: 69 31 1B 45 00 80 F0 FF  FF 7F F0 FF FF 7F 62 6C  i1.E..........bl
0180: 6F 6E 01 80 45 02 80 F0  FF FF 7F F0 FF FF 7F 62  on..E..........b
0190: 6C 6F 6E 01 80 1B 45 02  80 F0 FF FF 7F F0 FF FF  lon...E.........
01A0: 7F 77 68 69 30 01 80 55  02 80 F0 FF FF 7F F0 FF  .whi0..U........
01B0: FF 7F 77 68 69 30 1B 45  02 80 F0 FF FF 7F F0 FF  ..whi0.E........
01C0: FF 7F 77 68 6F 30 01 80  55 02 80 F0 FF FF 7F F0  ..who0..U.......
01D0: FF FF 7F 77 68 6F 30 1B  45 07 80 F0 FF FF 7F F0  ...who0.E.......
01E0: FF FF 7F 65 66 6F 6E 01  80 55 07 80 F0 FF FF 7F  ...efon..U......
01F0: F0 FF FF 7F 65 66 6F 6E  1B 45 00 80 F0 FF FF 7F  ....efon.E......
0200: F0 FF FF 7F 66 64 69 73  01 80 1B 45 00 80 F0 FF  ....fdis...E....
0210: FF 7F F0 FF FF 7F 66 64  6F 73 01 80 55 00 80 F0  ......fdos..U...
0220: FF FF 7F F0 FF FF 7F 66  64 6F 73 1B 45 00 80 F0  .......fdos.E...
0230: FF FF 7F F0 FF FF 7F 66  64 69 66 01 80 1B 45 00  .......fdif...E.
0240: 80 F0 FF FF 7F F0 FF FF  7F 66 64 6F 66 01 80 55  .........fdof..U
0250: 00 80 F0 FF FF 7F F0 FF  FF 7F 66 64 6F 66 1B 45  ..........fdof.E
0260: 00 80 F0 FF FF 7F F0 FF  FF 7F 66 64 69 70 01 80  ..........fdip..
0270: 1B 45 00 80 F0 FF FF 7F  F0 FF FF 7F 66 64 6F 70  .E..........fdop
0280: 01 80 55 00 80 F0 FF FF  7F F0 FF FF 7F 66 64 6F  ..U..........fdo
0290: 70 1B                                             p.              
```

#### Opcodes

```
  0: 0x0000 [0x00] END_REQSTACK()
```

#### Data or dead code:

```
# Dead code (unreachable instructions):
     0x0001 [0x45] LOAD_SCHEDULED_TASK: Load scheduler "fdi0" with entities [LocalPlayer, LocalPlayer], work=[200*, 0*]
     0x0012 [0x55] WAIT_LOAD_SCHEDULER: Wait for scheduler "fdi0" with entities [LocalPlayer, LocalPlayer], work=200*
     0x0021 [0x1B] RETURN
     0x0022 [0x45] LOAD_SCHEDULED_TASK: Load scheduler "fdo0" with entities [LocalPlayer, LocalPlayer], work=[200*, 0*]
     0x0033 [0x55] WAIT_LOAD_SCHEDULER: Wait for scheduler "fdo0" with entities [LocalPlayer, LocalPlayer], work=200*
     0x0042 [0x1B] RETURN
     0x0043 [0x45] LOAD_SCHEDULED_TASK: Load scheduler "fdi1" with entities [LocalPlayer, LocalPlayer], work=[200*, 0*]
     0x0054 [0x55] WAIT_LOAD_SCHEDULER: Wait for scheduler "fdi1" with entities [LocalPlayer, LocalPlayer], work=200*
     0x0063 [0x1B] RETURN
     0x0064 [0x45] LOAD_SCHEDULED_TASK: Load scheduler "fdo1" with entities [LocalPlayer, LocalPlayer], work=[200*, 0*]
     0x0075 [0x55] WAIT_LOAD_SCHEDULER: Wait for scheduler "fdo1" with entities [LocalPlayer, LocalPlayer], work=200*
     0x0084 [0x1B] RETURN
     0x0085 [0x45] LOAD_SCHEDULED_TASK: Load scheduler "whi1" with entities [LocalPlayer, LocalPlayer], work=[201*, 0*]
     0x0096 [0x55] WAIT_LOAD_SCHEDULER: Wait for scheduler "whi1" with entities [LocalPlayer, LocalPlayer], work=201*
     0x00A5 [0x1B] RETURN
     0x00A6 [0x45] LOAD_SCHEDULED_TASK: Load scheduler "who1" with entities [LocalPlayer, LocalPlayer], work=[201*, 0*]
     0x00B7 [0x55] WAIT_LOAD_SCHEDULER: Wait for scheduler "who1" with entities [LocalPlayer, LocalPlayer], work=201*
     0x00C6 [0x1B] RETURN
     0x00C7 [0x45] LOAD_SCHEDULED_TASK: Load scheduler "who2" with entities [LocalPlayer, LocalPlayer], work=[201*, 0*]
     0x00D8 [0x55] WAIT_LOAD_SCHEDULER: Wait for scheduler "who2" with entities [LocalPlayer, LocalPlayer], work=201*
     0x00E7 [0x1B] RETURN
     0x00E8 [0x45] LOAD_SCHEDULED_TASK: Load scheduler "who3" with entities [LocalPlayer, LocalPlayer], work=[201*, 0*]
     0x00F9 [0x55] WAIT_LOAD_SCHEDULER: Wait for scheduler "who3" with entities [LocalPlayer, LocalPlayer], work=201*
     0x0108 [0x1B] RETURN
     0x0109 [0x62] LOAD_EVENT_SCHEDULER: Load scheduler "main" with entities [LocalPlayer, LocalPlayer], work=[1*, 0*]
     0x011A [0x1C] WAIT(45* ticks)
     0x011D [0x45] LOAD_SCHEDULED_TASK: Load scheduler "fdo1" with entities [LocalPlayer, LocalPlayer], work=[200*, 0*]
     0x012E [0x55] WAIT_LOAD_SCHEDULER: Wait for scheduler "fdo1" with entities [LocalPlayer, LocalPlayer], work=200*
     0x013D [0x1B] RETURN
     0x013E [0x45] LOAD_SCHEDULED_TASK: Load scheduler "fdi1" with entities [LocalPlayer, LocalPlayer], work=[200*, 0*]
     0x014F [0x62] LOAD_EVENT_SCHEDULER: Load scheduler "main" with entities [LocalPlayer, LocalPlayer], work=[2*, 0*]
     0x0160 [0x1C] WAIT(30* ticks)
     0x0163 [0x55] WAIT_LOAD_SCHEDULER: Wait for scheduler "fdi1" with entities [LocalPlayer, LocalPlayer], work=200*
     0x0172 [0x1B] RETURN
     0x0173 [0x45] LOAD_SCHEDULED_TASK: Load scheduler "blon" with entities [LocalPlayer, LocalPlayer], work=[200*, 0*]
     0x0184 [0x45] LOAD_SCHEDULED_TASK: Load scheduler "blon" with entities [LocalPlayer, LocalPlayer], work=[201*, 0*]
     0x0195 [0x1B] RETURN
     0x0196 [0x45] LOAD_SCHEDULED_TASK: Load scheduler "whi0" with entities [LocalPlayer, LocalPlayer], work=[201*, 0*]
     0x01A7 [0x55] WAIT_LOAD_SCHEDULER: Wait for scheduler "whi0" with entities [LocalPlayer, LocalPlayer], work=201*
     0x01B6 [0x1B] RETURN
     0x01B7 [0x45] LOAD_SCHEDULED_TASK: Load scheduler "who0" with entities [LocalPlayer, LocalPlayer], work=[201*, 0*]
     0x01C8 [0x55] WAIT_LOAD_SCHEDULER: Wait for scheduler "who0" with entities [LocalPlayer, LocalPlayer], work=201*
     0x01D7 [0x1B] RETURN
     0x01D8 [0x45] LOAD_SCHEDULED_TASK: Load scheduler "efon" with entities [LocalPlayer, LocalPlayer], work=[215*, 0*]
     0x01E9 [0x55] WAIT_LOAD_SCHEDULER: Wait for scheduler "efon" with entities [LocalPlayer, LocalPlayer], work=215*
     0x01F8 [0x1B] RETURN
     0x01F9 [0x45] LOAD_SCHEDULED_TASK: Load scheduler "fdis" with entities [LocalPlayer, LocalPlayer], work=[200*, 0*]
     0x020A [0x1B] RETURN
     0x020B [0x45] LOAD_SCHEDULED_TASK: Load scheduler "fdos" with entities [LocalPlayer, LocalPlayer], work=[200*, 0*]
     0x021C [0x55] WAIT_LOAD_SCHEDULER: Wait for scheduler "fdos" with entities [LocalPlayer, LocalPlayer], work=200*
     0x022B [0x1B] RETURN
     0x022C [0x45] LOAD_SCHEDULED_TASK: Load scheduler "fdif" with entities [LocalPlayer, LocalPlayer], work=[200*, 0*]
     0x023D [0x1B] RETURN
     0x023E [0x45] LOAD_SCHEDULED_TASK: Load scheduler "fdof" with entities [LocalPlayer, LocalPlayer], work=[200*, 0*]
     0x024F [0x55] WAIT_LOAD_SCHEDULER: Wait for scheduler "fdof" with entities [LocalPlayer, LocalPlayer], work=200*
     0x025E [0x1B] RETURN
     0x025F [0x45] LOAD_SCHEDULED_TASK: Load scheduler "fdip" with entities [LocalPlayer, LocalPlayer], work=[200*, 0*]
     0x0270 [0x1B] RETURN
     0x0271 [0x45] LOAD_SCHEDULED_TASK: Load scheduler "fdop" with entities [LocalPlayer, LocalPlayer], work=[200*, 0*]
     0x0282 [0x55] WAIT_LOAD_SCHEDULER: Wait for scheduler "fdop" with entities [LocalPlayer, LocalPlayer], work=200*
     0x0291 [0x1B] RETURN
```

### Event 49

#### Metadata

| Field        | Value      |
|--------------|------------|
| Entrypoint   | 0x0292     |
| Data Size    | 3730 bytes |
| Instructions | 482        |

```
      00 01 02 03 04 05 06 07  08 09 0A 0B 0C 0D 0E 0F
      -- -- -- -- -- -- -- --  -- -- -- -- -- -- -- --
0290:       42 5D 01 80 08 80  1A 64 00 46 01 38 09 80    B].....d.F.8..
02A0: 2F 00 84 33 12 01 4E 00  84 33 12 01 92 01 81 33  /..3..N..3.....3
02B0: 12 01 94 01 81 33 12 01  94 01 84 33 12 01 94 01  .....3.....3....
02C0: F0 FF FF 7F BA 81 33 12  01 0A 80 0B 80 0C 80 0D  ......3.........
02D0: 80 BA 84 33 12 01 0E 80  0F 80 10 80 11 80 BA F0  ...3............
02E0: FF FF 7F 12 80 13 80 14  80 15 80 29 0F 81 33 12  ...........)..3.
02F0: 01 6B 4A F0 FF FF 7F 81  33 12 01 6F 76 F0 FF FF  .kJ.....3..ov...
0300: 7F 80 81 33 12 01 80 84  33 12 01 80 F0 FF FF 7F  ...3....3.......
0310: 6C 84 33 12 01 01 80 03  80 29 0F F0 FF FF 7F 08  l.3......)......
0320: 02 09 10 16 80 00 3C 03  45 17 80 F8 FF FF 7F F8  ......<.E.......
0330: FF FF 7F 73 31 31 39 01  80 01 69 03 02 09 10 18  ...s119...i.....
0340: 80 00 58 03 45 17 80 F8  FF FF 7F F8 FF FF 7F 73  ..X.E..........s
0350: 31 31 39 01 80 01 69 03  45 17 80 F8 FF FF 7F F8  119...i.E.......
0360: FF FF 7F 73 30 30 30 01  80 27 0F 81 33 12 01 7C  ...s000..'..3..|
0370: 1C 03 80 1A 43 00 2B 81  33 12 01 19 80 23 2A 0F  ....C.+.3....#*.
0380: 81 33 12 01 02 09 10 16  80 00 9E 03 52 17 80 F8  .3..........R...
0390: FF FF 7F F8 FF FF 7F 73  31 31 39 01 C7 03 02 09  .......s119.....
03A0: 10 18 80 00 B8 03 52 17  80 F8 FF FF 7F F8 FF FF  ......R.........
03B0: 7F 73 31 31 39 01 C7 03  52 17 80 F8 FF FF 7F F8  .s119...R.......
03C0: FF FF 7F 73 30 30 30 02  09 10 16 80 00 E3 03 45  ...s000........E
03D0: 17 80 F8 FF FF 7F F8 FF  FF 7F 73 30 32 33 01 80  ..........s023..
03E0: 01 10 04 02 09 10 18 80  00 FF 03 45 17 80 F8 FF  ...........E....
03F0: FF 7F F8 FF FF 7F 73 30  32 33 01 80 01 10 04 45  ......s023.....E
0400: 17 80 F8 FF FF 7F F8 FF  FF 7F 73 30 30 31 01 80  ..........s001..
0410: 4A F0 FF FF 7F 81 33 12  01 29 0F 81 33 12 01 4A  J.....3..)..3..J
0420: 2B 81 33 12 01 1A 80 23  2B 81 33 12 01 1B 80 23  +.3....#+.3....#
0430: 29 0F 81 33 12 01 4B 6F  76 F0 FF FF 7F 02 09 10  )..3..Kov.......
0440: 16 80 00 57 04 52 17 80  F8 FF FF 7F F8 FF FF 7F  ...W.R..........
0450: 73 30 32 33 01 80 04 02  09 10 18 80 00 71 04 52  s023.........q.R
0460: 17 80 F8 FF FF 7F F8 FF  FF 7F 73 30 32 33 01 80  ..........s023..
0470: 04 52 17 80 F8 FF FF 7F  F8 FF FF 7F 73 30 30 31  .R..........s001
0480: 45 17 80 F8 FF FF 7F F8  FF FF 7F 73 30 30 32 01  E..........s002.
0490: 80 29 0F 81 33 12 01 02  2B 81 33 12 01 1C 80 23  .)..3...+.3....#
04A0: 2B 81 33 12 01 1D 80 23  29 0F 81 33 12 01 03 29  +.3....#)..3...)
04B0: 0F 81 33 12 01 04 29 0F  81 33 12 01 05 52 17 80  ..3...)..3...R..
04C0: F8 FF FF 7F F8 FF FF 7F  73 30 30 32 02 09 10 16  ........s002....
04D0: 80 00 E8 04 45 17 80 F8  FF FF 7F F8 FF FF 7F 73  ....E..........s
04E0: 30 32 34 01 80 01 15 05  02 09 10 18 80 00 04 05  024.............
04F0: 45 17 80 F8 FF FF 7F F8  FF FF 7F 73 30 32 34 01  E..........s024.
0500: 80 01 15 05 45 17 80 F8  FF FF 7F F8 FF FF 7F 73  ....E..........s
0510: 30 30 33 01 80 29 0F 81  33 12 01 16 45 17 80 F8  003..)..3...E...
0520: FF FF 7F F8 FF FF 7F 34  30 30 33 01 80 2B 81 33  .......4003..+.3
0530: 12 01 1E 80 5C 00 1F 80  5C 01 1F 80 9A 5D 20 80  ....\...\....] .
0540: 03 80 23 2B 81 33 12 01  21 80 23 29 0F 81 33 12  ..#+.3..!.#)..3.
0550: 01 17 29 0F 81 33 12 01  18 29 0F 81 33 12 01 19  ..)..3...)..3...
0560: 02 09 10 16 80 00 7A 05  52 17 80 F8 FF FF 7F F8  ......z.R.......
0570: FF FF 7F 73 30 32 34 01  A3 05 02 09 10 18 80 00  ...s024.........
0580: 94 05 52 17 80 F8 FF FF  7F F8 FF FF 7F 73 30 32  ..R..........s02
0590: 34 01 A3 05 52 17 80 F8  FF FF 7F F8 FF FF 7F 73  4...R..........s
05A0: 30 30 33 02 09 10 16 80  00 BF 05 45 17 80 F8 FF  003........E....
05B0: FF 7F F8 FF FF 7F 73 30  32 35 01 80 01 EC 05 02  ......s025......
05C0: 09 10 18 80 00 DB 05 45  17 80 F8 FF FF 7F F8 FF  .......E........
05D0: FF 7F 73 30 32 35 01 80  01 EC 05 45 17 80 F8 FF  ..s025.....E....
05E0: FF 7F F8 FF FF 7F 73 30  30 34 01 80 7B 81 33 12  ......s004..{.3.
05F0: 01 27 0F 81 33 12 01 7D  2B 81 33 12 01 22 80 1C  .'..3..}+.3.."..
0600: 23 80 4A F0 FF FF 7F 81  33 12 01 6F 76 F0 FF FF  #.J.....3..ov...
0610: 7F 23 2A 0F 81 33 12 01  29 0F 81 33 12 01 06 2B  .#*..3..)..3...+
0620: 81 33 12 01 24 80 23 29  0F 81 33 12 01 07 29 0F  .3..$.#)..3...).
0630: 81 33 12 01 08 02 09 10  16 80 00 4F 06 52 17 80  .3.........O.R..
0640: F8 FF FF 7F F8 FF FF 7F  73 30 32 35 01 78 06 02  ........s025.x..
0650: 09 10 18 80 00 69 06 52  17 80 F8 FF FF 7F F8 FF  .....i.R........
0660: FF 7F 73 30 32 35 01 78  06 52 17 80 F8 FF FF 7F  ..s025.x.R......
0670: F8 FF FF 7F 73 30 30 34  45 17 80 F8 FF FF 7F F8  ....s004E.......
0680: FF FF 7F 73 30 30 35 01  80 4A 81 33 12 01 F0 FF  ...s005..J.3....
0690: FF 7F 6F 76 81 33 12 01  29 0F 81 33 12 01 26 2B  ..ov.3..)..3..&+
06A0: 81 33 12 01 25 80 23 29  0F 81 33 12 01 27 52 17  .3..%.#)..3..'R.
06B0: 80 F8 FF FF 7F F8 FF FF  7F 73 30 30 35 45 17 80  .........s005E..
06C0: F8 FF FF 7F F8 FF FF 7F  73 30 30 36 01 80 4A F0  ........s006..J.
06D0: FF FF 7F 81 33 12 01 29  0F 81 33 12 01 16 45 17  ....3..)..3...E.
06E0: 80 F8 FF FF 7F F8 FF FF  7F 34 30 31 33 01 80 2B  .........4013..+
06F0: 81 33 12 01 26 80 23 29  0F 81 33 12 01 17 29 0F  .3..&.#)..3...).
0700: 81 33 12 01 18 29 0F 81  33 12 01 19 6F 76 F0 FF  .3...)..3...ov..
0710: FF 7F 52 17 80 F8 FF FF  7F F8 FF FF 7F 73 30 30  ..R..........s00
0720: 36 02 09 10 16 80 00 3D  07 45 17 80 F8 FF FF 7F  6......=.E......
0730: F8 FF FF 7F 73 30 32 36  01 80 01 6A 07 02 09 10  ....s026...j....
0740: 18 80 00 59 07 45 17 80  F8 FF FF 7F F8 FF FF 7F  ...Y.E..........
0750: 73 30 32 36 01 80 01 6A  07 45 17 80 F8 FF FF 7F  s026...j.E......
0760: F8 FF FF 7F 73 30 30 37  01 80 29 0F 81 33 12 01  ....s007..)..3..
0770: 0E 2B 81 33 12 01 27 80  23 2B 81 33 12 01 28 80  .+.3..'.#+.3..(.
0780: 23 29 0F 81 33 12 01 0F  29 0F 81 33 12 01 10 29  #)..3...)..3...)
0790: 0F 81 33 12 01 11 02 09  10 16 80 00 B0 07 52 17  ..3...........R.
07A0: 80 F8 FF FF 7F F8 FF FF  7F 73 30 32 36 01 D9 07  .........s026...
07B0: 02 09 10 18 80 00 CA 07  52 17 80 F8 FF FF 7F F8  ........R.......
07C0: FF FF 7F 73 30 32 36 01  D9 07 52 17 80 F8 FF FF  ...s026...R.....
07D0: 7F F8 FF FF 7F 73 30 30  37 02 09 10 16 80 00 F5  .....s007.......
07E0: 07 45 17 80 F8 FF FF 7F  F8 FF FF 7F 73 30 32 37  .E..........s027
07F0: 01 80 01 22 08 02 09 10  18 80 00 11 08 45 17 80  ...".........E..
0800: F8 FF FF 7F F8 FF FF 7F  73 30 32 37 01 80 01 22  ........s027..."
0810: 08 45 17 80 F8 FF FF 7F  F8 FF FF 7F 73 30 30 38  .E..........s008
0820: 01 80 29 0F 81 33 12 01  34 1C 06 80 45 17 80 F8  ..)..3..4...E...
0830: FF FF 7F F8 FF FF 7F 38  31 36 30 01 80 2B 81 33  .......8160..+.3
0840: 12 01 29 80 23 29 0F 81  33 12 01 35 02 09 10 16  ..).#)..3..5....
0850: 80 00 66 08 52 17 80 F8  FF FF 7F F8 FF FF 7F 73  ..f.R..........s
0860: 30 32 37 01 8F 08 02 09  10 18 80 00 80 08 52 17  027...........R.
0870: 80 F8 FF FF 7F F8 FF FF  7F 73 30 32 37 01 8F 08  .........s027...
0880: 52 17 80 F8 FF FF 7F F8  FF FF 7F 73 30 30 38 45  R..........s008E
0890: 17 80 F8 FF FF 7F F8 FF  FF 7F 62 6C 6F 66 01 80  ..........blof..
08A0: 02 09 10 16 80 00 BC 08  45 17 80 F8 FF FF 7F F8  ........E.......
08B0: FF FF 7F 73 30 32 38 01  80 01 E9 08 02 09 10 18  ...s028.........
08C0: 80 00 D8 08 45 17 80 F8  FF FF 7F F8 FF FF 7F 73  ....E..........s
08D0: 30 32 38 01 80 01 E9 08  45 17 80 F8 FF FF 7F F8  028.....E.......
08E0: FF FF 7F 73 30 30 39 01  80 27 0F 81 33 12 01 7E  ...s009..'..3..~
08F0: 2B 81 33 12 01 2A 80 23  2A 0F 81 33 12 01 29 0F  +.3..*.#*..3..).
0900: 81 33 12 01 02 2B 81 33  12 01 2B 80 23 02 09 10  .3...+.3..+.#...
0910: 16 80 00 27 09 52 17 80  F8 FF FF 7F F8 FF FF 7F  ...'.R..........
0920: 73 30 32 38 01 50 09 02  09 10 18 80 00 41 09 52  s028.P.......A.R
0930: 17 80 F8 FF FF 7F F8 FF  FF 7F 73 30 32 38 01 50  ..........s028.P
0940: 09 52 17 80 F8 FF FF 7F  F8 FF FF 7F 73 30 30 39  .R..........s009
0950: 45 17 80 F8 FF FF 7F F8  FF FF 7F 73 30 31 30 01  E..........s010.
0960: 80 2B 81 33 12 01 2C 80  23 29 0F 81 33 12 01 03  .+.3..,.#)..3...
0970: 29 0F 81 33 12 01 04 2B  81 33 12 01 2D 80 23 29  )..3...+.3..-.#)
0980: 0F 81 33 12 01 05 52 17  80 F8 FF FF 7F F8 FF FF  ..3...R.........
0990: 7F 73 30 31 30 02 09 10  2E 80 00 B1 09 45 17 80  .s010........E..
09A0: F8 FF FF 7F F8 FF FF 7F  73 30 31 31 01 80 01 16  ........s011....
09B0: 0A 02 09 10 16 80 00 CD  09 45 17 80 F8 FF FF 7F  .........E......
09C0: F8 FF FF 7F 73 30 32 39  01 80 01 16 0A 02 09 10  ....s029........
09D0: 18 80 00 E9 09 45 17 80  F8 FF FF 7F F8 FF FF 7F  .....E..........
09E0: 73 30 32 39 01 80 01 16  0A 02 09 10 2F 80 00 05  s029......../...
09F0: 0A 45 17 80 F8 FF FF 7F  F8 FF FF 7F 73 30 31 31  .E..........s011
0A00: 01 80 01 16 0A 45 17 80  F8 FF FF 7F F8 FF FF 7F  .....E..........
0A10: 73 30 33 33 01 80 45 17  80 F8 FF FF 7F F8 FF FF  s033..E.........
0A20: 7F 38 31 36 30 01 80 1C  23 80 29 0F 81 33 12 01  .8160...#.)..3..
0A30: 6A 2B 81 33 12 01 30 80  1C 23 80 6E F0 FF FF 7F  j+.3..0..#.n....
0A40: 31 80 99 F0 FF FF 7F 1C  32 80 23 24 33 80 01 80  1.......2.#$3...
0A50: 01 80 25 02 00 10 01 80  00 5E 0A 01 74 0A 02 00  ..%......^..t...
0A60: 10 03 80 00 69 0A 01 74  0A 02 00 10 05 80 00 74  ....i..t.......t
0A70: 0A 01 74 0A 5D 01 80 08  80 6E F0 FF FF 7F 18 80  ..t.]....n......
0A80: 99 F0 FF FF 7F 1C 32 80  6C 84 33 12 01 34 80 03  ......2.l.3..4..
0A90: 80 27 0F 84 33 12 01 76  1C 35 80 02 09 10 2E 80  .'..3..v.5......
0AA0: 00 B5 0A 52 17 80 F8 FF  FF 7F F8 FF FF 7F 73 30  ...R..........s0
0AB0: 31 31 01 12 0B 02 09 10  16 80 00 CF 0A 52 17 80  11...........R..
0AC0: F8 FF FF 7F F8 FF FF 7F  73 30 32 39 01 12 0B 02  ........s029....
0AD0: 09 10 18 80 00 E9 0A 52  17 80 F8 FF FF 7F F8 FF  .......R........
0AE0: FF 7F 73 30 32 39 01 12  0B 02 09 10 2F 80 00 03  ..s029....../...
0AF0: 0B 52 17 80 F8 FF FF 7F  F8 FF FF 7F 73 30 31 31  .R..........s011
0B00: 01 12 0B 52 17 80 F8 FF  FF 7F F8 FF FF 7F 73 30  ...R..........s0
0B10: 33 33 45 17 80 F8 FF FF  7F F8 FF FF 7F 62 6C 6F  33E..........blo
0B20: 66 01 80 45 17 80 F8 FF  FF 7F F8 FF FF 7F 73 30  f..E..........s0
0B30: 32 30 01 80 1C 06 80 02  09 10 16 80 00 4F 0B BA  20...........O..
0B40: F0 FF FF 7F 36 80 37 80  38 80 39 80 01 64 0B 02  ....6.7.8.9..d..
0B50: 09 10 18 80 00 64 0B BA  F0 FF FF 7F 36 80 37 80  .....d......6.7.
0B60: 38 80 39 80 1C 06 80 52  17 80 F8 FF FF 7F F8 FF  8.9....R........
0B70: FF 7F 73 30 32 30 45 17  80 F8 FF FF 7F F8 FF FF  ..s020E.........
0B80: 7F 73 30 31 32 01 80 2B  84 33 12 01 3A 80 29 0F  .s012..+.3..:.).
0B90: 81 33 12 01 6B 1C 06 80  4A F0 FF FF 7F 84 33 12  .3..k...J.....3.
0BA0: 01 6F 76 F0 FF FF 7F 4A  81 33 12 01 84 33 12 01  .ov....J.3...3..
0BB0: 6F 76 81 33 12 01 52 17  80 F8 FF FF 7F F8 FF FF  ov.3..R.........
0BC0: 7F 73 30 31 32 45 17 80  F8 FF FF 7F F8 FF FF 7F  .s012E..........
0BD0: 73 30 31 33 01 80 23 2A  0F 84 33 12 01 79 00 84  s013..#*..3..y..
0BE0: 33 12 01 81 33 12 01 29  0F 81 33 12 01 6B 27 0F  3...3..)..3..k'.
0BF0: 81 33 12 01 7F 2B 81 33  12 01 3B 80 1C 3C 80 52  .3...+.3..;..<.R
0C00: 17 80 F8 FF FF 7F F8 FF  FF 7F 73 30 31 33 45 17  ..........s013E.
0C10: 80 F8 FF FF 7F F8 FF FF  7F 73 30 31 34 01 80 4A  .........s014..J
0C20: 84 33 12 01 81 33 12 01  6F 76 84 33 12 01 23 5C  .3...3..ov.3..#\
0C30: 00 3D 80 5C 01 3D 80 9A  5D 20 80 03 80 2A 0F 81  .=.\.=..] ...*..
0C40: 33 12 01 29 0F 84 33 12  01 26 2B 84 33 12 01 3E  3..)..3..&+.3..>
0C50: 80 23 29 0F 84 33 12 01  27 52 17 80 F8 FF FF 7F  .#)..3..'R......
0C60: F8 FF FF 7F 73 30 31 34  45 17 80 F8 FF FF 7F F8  ....s014E.......
0C70: FF FF 7F 73 30 31 35 01  80 29 0F 84 33 12 01 06  ...s015..)..3...
0C80: 2B 84 33 12 01 3F 80 23  2B 84 33 12 01 40 80 23  +.3..?.#+.3..@.#
0C90: 29 0F 84 33 12 01 07 52  17 80 F8 FF FF 7F F8 FF  )..3...R........
0CA0: FF 7F 73 30 31 35 45 17  80 F8 FF FF 7F F8 FF FF  ..s015E.........
0CB0: 7F 73 30 31 36 01 80 29  0F 84 33 12 01 08 29 0F  .s016..)..3...).
0CC0: 81 33 12 01 12 2B 81 33  12 01 41 80 23 1C 42 80  .3...+.3..A.#.B.
0CD0: 29 0F 84 33 12 01 09 52  17 80 F8 FF FF 7F F8 FF  )..3...R........
0CE0: FF 7F 73 30 31 36 45 17  80 F8 FF FF 7F F8 FF FF  ..s016E.........
0CF0: 7F 73 30 31 37 01 80 7B  84 33 12 01 27 0F 84 33  .s017..{.3..'..3
0D00: 12 01 77 2B 84 33 12 01  43 80 29 0F 81 33 12 01  ..w+.3..C.)..3..
0D10: 13 29 0F 81 33 12 01 14  29 0F 81 33 12 01 15 4A  .)..3...)..3...J
0D20: 81 33 12 01 84 33 12 01  6F 76 81 33 12 01 23 29  .3...3..ov.3..#)
0D30: 0F 84 33 12 01 0E 2B 84  33 12 01 44 80 23 2A 0F  ..3...+.3..D.#*.
0D40: 84 33 12 01 52 17 80 F8  FF FF 7F F8 FF FF 7F 73  .3..R..........s
0D50: 30 31 37 02 09 10 16 80  00 6F 0D 45 17 80 F8 FF  017......o.E....
0D60: FF 7F F8 FF FF 7F 73 30  33 31 01 80 01 9C 0D 02  ......s031......
0D70: 09 10 18 80 00 8B 0D 45  17 80 F8 FF FF 7F F8 FF  .......E........
0D80: FF 7F 73 30 33 31 01 80  01 9C 0D 45 17 80 F8 FF  ..s031.....E....
0D90: FF 7F F8 FF FF 7F 73 30  31 38 01 80 4A F0 FF FF  ......s018..J...
0DA0: 7F 84 33 12 01 2B 81 33  12 01 45 80 23 6F 76 F0  ..3..+.3..E.#ov.
0DB0: FF FF 7F 4B 84 33 12 01  46 80 6F 76 F0 FF FF 7F  ...K.3..F.ov....
0DC0: 29 0F 84 33 12 01 0F 29  0F 84 33 12 01 10 29 0F  )..3...)..3...).
0DD0: 84 33 12 01 11 2B 84 33  12 01 47 80 4A 81 33 12  .3...+.3..G.J.3.
0DE0: 01 84 33 12 01 6F 76 81  33 12 01 29 0F 84 33 12  ..3..ov.3..)..3.
0DF0: 01 2E 45 17 80 F8 FF FF  7F F8 FF FF 7F 34 30 30  ..E..........400
0E00: 33 01 80 29 0F 84 33 12  01 2F 23 29 0F 84 33 12  3..)..3../#)..3.
0E10: 01 30 29 0F 84 33 12 01  31 02 09 10 16 80 00 33  .0)..3..1......3
0E20: 0E 52 17 80 F8 FF FF 7F  F8 FF FF 7F 73 30 33 31  .R..........s031
0E30: 01 5C 0E 02 09 10 18 80  00 4D 0E 52 17 80 F8 FF  .\.......M.R....
0E40: FF 7F F8 FF FF 7F 73 30  33 31 01 5C 0E 52 17 80  ......s031.\.R..
0E50: F8 FF FF 7F F8 FF FF 7F  73 30 31 38 45 17 80 F8  ........s018E...
0E60: FF FF 7F F8 FF FF 7F 73  30 31 39 01 80 7B 84 33  .......s019..{.3
0E70: 12 01 5D 01 80 08 80 27  0F 84 33 12 01 78 1C 06  ..]....'..3..x..
0E80: 80 4A 81 33 12 01 84 33  12 01 6F 76 81 33 12 01  .J.3...3..ov.3..
0E90: 4A F0 FF FF 7F 84 33 12  01 6F 76 F0 FF FF 7F 1C  J.....3..ov.....
0EA0: 42 80 1C 06 80 52 17 80  F8 FF FF 7F F8 FF FF 7F  B....R..........
0EB0: 73 30 31 39 02 09 10 16  80 00 D0 0E 45 17 80 F8  s019........E...
0EC0: FF FF 7F F8 FF FF 7F 73  30 33 30 01 80 01 04 0F  .......s030.....
0ED0: 02 09 10 18 80 00 EC 0E  45 17 80 F8 FF FF 7F F8  ........E.......
0EE0: FF FF 7F 73 30 33 30 01  80 01 04 0F 45 17 80 F8  ...s030.....E...
0EF0: FF FF 7F F8 FF FF 7F 73  30 32 31 01 80 29 0F 81  .......s021..)..
0F00: 33 12 01 0E 6C 84 33 12  01 01 80 03 80 2B 81 33  3...l.3......+.3
0F10: 12 01 48 80 1C 06 80 4A  F0 FF FF 7F 81 33 12 01  ..H....J.....3..
0F20: 6F 76 F0 FF FF 7F 23 02  09 10 16 80 00 41 0F 52  ov....#......A.R
0F30: 17 80 F8 FF FF 7F F8 FF  FF 7F 73 30 33 30 01 7F  ..........s030..
0F40: 0F 02 09 10 18 80 00 5B  0F 52 17 80 F8 FF FF 7F  .......[.R......
0F50: F8 FF FF 7F 73 30 33 30  01 7F 0F 52 17 80 F8 FF  ....s030...R....
0F60: FF 7F F8 FF FF 7F 73 30  32 31 29 0F 81 33 12 01  ......s021)..3..
0F70: 0F 29 0F 81 33 12 01 10  29 0F 81 33 12 01 11 02  .)..3...)..3....
0F80: 09 10 2E 80 00 9B 0F 45  17 80 F8 FF FF 7F F8 FF  .......E........
0F90: FF 7F 73 31 32 30 01 80  01 00 10 02 09 10 16 80  ..s120..........
0FA0: 00 B7 0F 45 17 80 F8 FF  FF 7F F8 FF FF 7F 73 30  ...E..........s0
0FB0: 33 32 01 80 01 00 10 02  09 10 18 80 00 D3 0F 45  32.............E
0FC0: 17 80 F8 FF FF 7F F8 FF  FF 7F 73 30 33 32 01 80  ..........s032..
0FD0: 01 00 10 02 09 10 2F 80  00 EF 0F 45 17 80 F8 FF  ....../....E....
0FE0: FF 7F F8 FF FF 7F 73 31  32 30 01 80 01 00 10 45  ......s120.....E
0FF0: 17 80 F8 FF FF 7F F8 FF  FF 7F 73 30 33 34 01 80  ..........s034..
1000: 29 0F 81 33 12 01 12 2B  81 33 12 01 49 80 23 29  )..3...+.3..I.#)
1010: 0F 81 33 12 01 13 29 0F  81 33 12 01 14 29 0F 81  ..3...)..3...)..
1020: 33 12 01 15 02 09 10 2E  80 00 3E 10 52 17 80 F8  3.........>.R...
1030: FF FF 7F F8 FF FF 7F 73  31 32 30 01 9B 10 02 09  .......s120.....
1040: 10 16 80 00 58 10 52 17  80 F8 FF FF 7F F8 FF FF  ....X.R.........
1050: 7F 73 30 33 32 01 9B 10  02 09 10 18 80 00 72 10  .s032.........r.
1060: 52 17 80 F8 FF FF 7F F8  FF FF 7F 73 30 33 32 01  R..........s032.
1070: 9B 10 02 09 10 2F 80 00  8C 10 52 17 80 F8 FF FF  ...../....R.....
1080: 7F F8 FF FF 7F 73 31 32  30 01 9B 10 52 17 80 F8  .....s120...R...
1090: FF FF 7F F8 FF FF 7F 73  30 33 34 45 17 80 F8 FF  .......s034E....
10A0: FF 7F F8 FF FF 7F 73 30  32 32 01 80 27 0F 81 33  ......s022..'..3
10B0: 12 01 80 1C 06 80 4A F0  FF FF 7F 81 33 12 01 6F  ......J.....3..o
10C0: 76 F0 FF FF 7F 5D 01 80  08 80 1A 64 00 52 17 80  v....].....d.R..
10D0: F8 FF FF 7F F8 FF FF 7F  73 30 32 32 2A 0F 84 33  ........s022*..3
10E0: 12 01 29 0F 81 33 12 01  6B 6C 84 33 12 01 34 80  ..)..3..kl.3..4.
10F0: 03 80 5C 00 4A 80 5C 01  4A 80 5C 02 4A 80 5C 03  ..\.J.\.J.\.J.\.
1100: 4A 80 9A 5D 20 80 03 80  AB 11 01 80 1C 03 80 46  J..] ..........F
1110: 00 45 00 80 F8 FF FF 7F  F8 FF FF 7F 66 64 69 32  .E..........fdi2
1120: 01 80 21 00                                       ..!.            
```

#### Opcodes

```
  0: 0x0292 [0x42] SET_CLI_EVENT_CANCEL_DATA()
  1: 0x0293 [0x5D] SET_MUSIC_VOLUME(volume=0*, fade_time=300*)
  2: 0x0298 [0x1A] CALL_SUBROUTINE(address=0x0064)
  3: 0x029B [0x46] CAMERA_CONTROL: Disable user control
  4: 0x029D [0x38] SET_CLIENT_EVENT_MODE(mode=147*)
  5: 0x02A0 [0x2F] Zhuu Buxu the Silent (ID: 17970052/0x01123384)->Render.Flags0 &= ~0x80000 // Bit 19
  6: 0x02A6 [0x4E] SET_ENTITY_HIDE_FLAG: Show Zhuu Buxu the Silent (ID: 17970052/0x01123384)
  7: 0x02AC [0x92] Reikuu (ID: 17970049/0x01123381)->Render.Flags3 ^= 0x01
  8: 0x02B2 [0x94] Reikuu (ID: 17970049/0x01123381)->Render.Flags3 ^= 0x01
  9: 0x02B8 [0x94] Zhuu Buxu the Silent (ID: 17970052/0x01123384)->Render.Flags3 ^= 0x01
 10: 0x02BE [0x94] LocalPlayer->Render.Flags3 ^= 0x01
 11: 0x02C4 [0xBA] SET_ENTITY_POSITION(entity_id=Reikuu (ID: 17970049/0x01123381), pos_x=273.264*, pos_z=101.531*, pos_y=-86.975*, direction=167.0°*)
 12: 0x02D1 [0xBA] SET_ENTITY_POSITION(entity_id=Zhuu Buxu the Silent (ID: 17970052/0x01123384), pos_x=260.748*, pos_z=105.694*, pos_y=-86.999*, direction=279.4°*)
 13: 0x02DE [0xBA] SET_ENTITY_POSITION(entity_id=LocalPlayer, pos_x=269.262*, pos_z=100.627*, pos_y=-86.990*, direction=352.7°*)
 14: 0x02EB [0x29] REQ_SET_WAIT(priority=0x0F, entity_id=Reikuu (ID: 17970049/0x01123381), tag_num=0x6B)
 15: 0x02F2 [0x4A] LocalPlayer looks at Reikuu (ID: 17970049/0x01123381)
 16: 0x02FB [0x6F] WAIT_FRAME_DELAY: Yield until WaitTime reaches zero
 17: 0x02FC [0x76] CHECK_ENTITY_RENDER_FLAGS: Wait until LocalPlayer Render.Flags0 and Render.Flags3 conditions are met
 18: 0x0301 [0x80] LOAD_WAIT(entity=Reikuu (ID: 17970049/0x01123381))
 19: 0x0306 [0x80] LOAD_WAIT(entity=Zhuu Buxu the Silent (ID: 17970052/0x01123384))
 20: 0x030B [0x80] LOAD_WAIT(entity=LocalPlayer)
 21: 0x0310 [0x6C] FADE_ENTITY_COLOR(entity_id=Zhuu Buxu the Silent (ID: 17970052/0x01123384), end_alpha=0*, fade_time=1*)
 22: 0x0319 [0x29] REQ_SET_WAIT(priority=0x0F, entity_id=LocalPlayer, tag_num=0x08)
 23: 0x0320 [0x02] IF !(Work_Zone[9] == 5*) GOTO 0x033C
 24: 0x0328 [0x45] LOAD_SCHEDULED_TASK: Load scheduler "s119" with entities [EventEntity, EventEntity], work=[887*, 0*]
 25: 0x0339 [0x01] GOTO 0x0369
 26: 0x033C [0x02] IF !(Work_Zone[9] == 6*) GOTO 0x0358
 27: 0x0344 [0x45] LOAD_SCHEDULED_TASK: Load scheduler "s119" with entities [EventEntity, EventEntity], work=[887*, 0*]
 28: 0x0355 [0x01] GOTO 0x0369
 29: 0x0358 [0x45] LOAD_SCHEDULED_TASK: Load scheduler "s000" with entities [EventEntity, EventEntity], work=[887*, 0*]

SUBROUTINE_0369:
 30: 0x0369 [0x27] REQ_SET(priority=0x0F, entity_id=Reikuu (ID: 17970049/0x01123381), tag_num=0x7C)
 31: 0x0370 [0x1C] WAIT(1* ticks)
 32: 0x0373 [0x1A] CALL_SUBROUTINE(address=0x0043)
 33: 0x0376 [0x2B] Reikuu (ID: 17970049/0x01123381) [8639*]:
    → "I am disappointed in you, <Player>."
 34: 0x037D [0x23] WAIT_FOR_DIALOG_INTERACTION
 35: 0x037E [0x2A] GET_REQ_LEVEL(level=15, entity_id=Reikuu (ID: 17970049/0x01123381))
 36: 0x0384 [0x02] IF !(Work_Zone[9] == 5*) GOTO 0x039E
 37: 0x038C [0x52] END_LOAD_SCHEDULER: End scheduler "s119" with entities [EventEntity, EventEntity], work=887*
 38: 0x039B [0x01] GOTO 0x03C7
 39: 0x039E [0x02] IF !(Work_Zone[9] == 6*) GOTO 0x03B8
 40: 0x03A6 [0x52] END_LOAD_SCHEDULER: End scheduler "s119" with entities [EventEntity, EventEntity], work=887*
 41: 0x03B5 [0x01] GOTO 0x03C7
 42: 0x03B8 [0x52] END_LOAD_SCHEDULER: End scheduler "s000" with entities [EventEntity, EventEntity], work=887*

SUBROUTINE_03C7:
 43: 0x03C7 [0x02] IF !(Work_Zone[9] == 5*) GOTO 0x03E3
 44: 0x03CF [0x45] LOAD_SCHEDULED_TASK: Load scheduler "s023" with entities [EventEntity, EventEntity], work=[887*, 0*]
 45: 0x03E0 [0x01] GOTO 0x0410
 46: 0x03E3 [0x02] IF !(Work_Zone[9] == 6*) GOTO 0x03FF
 47: 0x03EB [0x45] LOAD_SCHEDULED_TASK: Load scheduler "s023" with entities [EventEntity, EventEntity], work=[887*, 0*]
 48: 0x03FC [0x01] GOTO 0x0410
 49: 0x03FF [0x45] LOAD_SCHEDULED_TASK: Load scheduler "s001" with entities [EventEntity, EventEntity], work=[887*, 0*]

SUBROUTINE_0410:
 50: 0x0410 [0x4A] LocalPlayer looks at Reikuu (ID: 17970049/0x01123381)
 51: 0x0419 [0x29] REQ_SET_WAIT(priority=0x0F, entity_id=Reikuu (ID: 17970049/0x01123381), tag_num=0x4A)
 52: 0x0420 [0x2B] Reikuu (ID: 17970049/0x01123381) [8640*]:
    → "No, I suppose I only have myself to blame. Perhaps I placed too much trust in your abilities."
 53: 0x0427 [0x23] WAIT_FOR_DIALOG_INTERACTION
 54: 0x0428 [0x2B] Reikuu (ID: 17970049/0x01123381) [8641*]:
    → "Even still, I never thought you would take in the coward Nii Aquu and agree to serve as his mentor."
 55: 0x042F [0x23] WAIT_FOR_DIALOG_INTERACTION
 56: 0x0430 [0x29] REQ_SET_WAIT(priority=0x0F, entity_id=Reikuu (ID: 17970049/0x01123381), tag_num=0x4B)
 57: 0x0437 [0x6F] WAIT_FRAME_DELAY: Yield until WaitTime reaches zero
 58: 0x0438 [0x76] CHECK_ENTITY_RENDER_FLAGS: Wait until LocalPlayer Render.Flags0 and Render.Flags3 conditions are met
 59: 0x043D [0x02] IF !(Work_Zone[9] == 5*) GOTO 0x0457
 60: 0x0445 [0x52] END_LOAD_SCHEDULER: End scheduler "s023" with entities [EventEntity, EventEntity], work=887*
 61: 0x0454 [0x01] GOTO 0x0480
 62: 0x0457 [0x02] IF !(Work_Zone[9] == 6*) GOTO 0x0471
 63: 0x045F [0x52] END_LOAD_SCHEDULER: End scheduler "s023" with entities [EventEntity, EventEntity], work=887*
 64: 0x046E [0x01] GOTO 0x0480
 65: 0x0471 [0x52] END_LOAD_SCHEDULER: End scheduler "s001" with entities [EventEntity, EventEntity], work=887*

SUBROUTINE_0480:
 66: 0x0480 [0x45] LOAD_SCHEDULED_TASK: Load scheduler "s002" with entities [EventEntity, EventEntity], work=[887*, 0*]
 67: 0x0491 [0x29] REQ_SET_WAIT(priority=0x0F, entity_id=Reikuu (ID: 17970049/0x01123381), tag_num=0x02)
 68: 0x0498 [0x2B] Reikuu (ID: 17970049/0x01123381) [8642*]:
    → "I witnessed his renewed fighting spirit firsthand when Gessho brought him before me. I will admit that I was impressed with how much he had grown."
 69: 0x049F [0x23] WAIT_FOR_DIALOG_INTERACTION
 70: 0x04A0 [0x2B] Reikuu (ID: 17970049/0x01123381) [8643*]:
    → "However, I also realized that I should have made myself clearer to you."
 71: 0x04A7 [0x23] WAIT_FOR_DIALOG_INTERACTION
 72: 0x04A8 [0x29] REQ_SET_WAIT(priority=0x0F, entity_id=Reikuu (ID: 17970049/0x01123381), tag_num=0x03)
 73: 0x04AF [0x29] REQ_SET_WAIT(priority=0x0F, entity_id=Reikuu (ID: 17970049/0x01123381), tag_num=0x04)
 74: 0x04B6 [0x29] REQ_SET_WAIT(priority=0x0F, entity_id=Reikuu (ID: 17970049/0x01123381), tag_num=0x05)
 75: 0x04BD [0x52] END_LOAD_SCHEDULER: End scheduler "s002" with entities [EventEntity, EventEntity], work=887*
 76: 0x04CC [0x02] IF !(Work_Zone[9] == 5*) GOTO 0x04E8
 77: 0x04D4 [0x45] LOAD_SCHEDULED_TASK: Load scheduler "s024" with entities [EventEntity, EventEntity], work=[887*, 0*]
 78: 0x04E5 [0x01] GOTO 0x0515
 79: 0x04E8 [0x02] IF !(Work_Zone[9] == 6*) GOTO 0x0504
 80: 0x04F0 [0x45] LOAD_SCHEDULED_TASK: Load scheduler "s024" with entities [EventEntity, EventEntity], work=[887*, 0*]
 81: 0x0501 [0x01] GOTO 0x0515
 82: 0x0504 [0x45] LOAD_SCHEDULED_TASK: Load scheduler "s003" with entities [EventEntity, EventEntity], work=[887*, 0*]

SUBROUTINE_0515:
 83: 0x0515 [0x29] REQ_SET_WAIT(priority=0x0F, entity_id=Reikuu (ID: 17970049/0x01123381), tag_num=0x16)
 84: 0x051C [0x45] LOAD_SCHEDULED_TASK: Load scheduler "4003" with entities [EventEntity, EventEntity], work=[887*, 0*]
 85: 0x052D [0x2B] Reikuu (ID: 17970049/0x01123381) [8644*]:
    → "No matter how strong he becomes, he will never be allowed to join us."
 86: 0x0534 [0x5C] MUSIC_CONTROL: Set Idle (Day) music to song 80*
 87: 0x0538 [0x5C] MUSIC_CONTROL: Set Idle (Night) music to song 80*
 88: 0x053C [0x9A] WAIT_MUSIC_SERVER()
 89: 0x053D [0x5D] SET_MUSIC_VOLUME(volume=127*, fade_time=1*)
 90: 0x0542 [0x23] WAIT_FOR_DIALOG_INTERACTION
 91: 0x0543 [0x2B] Reikuu (ID: 17970049/0x01123381) [8645*]:
    → "The Tengu sect is at a critical moment in its existence, so it is imperative that we form the alliance with the Theomilitary in the Middle Lands!"
 92: 0x054A [0x23] WAIT_FOR_DIALOG_INTERACTION
 93: 0x054B [0x29] REQ_SET_WAIT(priority=0x0F, entity_id=Reikuu (ID: 17970049/0x01123381), tag_num=0x17)
 94: 0x0552 [0x29] REQ_SET_WAIT(priority=0x0F, entity_id=Reikuu (ID: 17970049/0x01123381), tag_num=0x18)
 95: 0x0559 [0x29] REQ_SET_WAIT(priority=0x0F, entity_id=Reikuu (ID: 17970049/0x01123381), tag_num=0x19)
 96: 0x0560 [0x02] IF !(Work_Zone[9] == 5*) GOTO 0x057A
 97: 0x0568 [0x52] END_LOAD_SCHEDULER: End scheduler "s024" with entities [EventEntity, EventEntity], work=887*
 98: 0x0577 [0x01] GOTO 0x05A3
 99: 0x057A [0x02] IF !(Work_Zone[9] == 6*) GOTO 0x0594
100: 0x0582 [0x52] END_LOAD_SCHEDULER: End scheduler "s024" with entities [EventEntity, EventEntity], work=887*
101: 0x0591 [0x01] GOTO 0x05A3
102: 0x0594 [0x52] END_LOAD_SCHEDULER: End scheduler "s003" with entities [EventEntity, EventEntity], work=887*

SUBROUTINE_05A3:
103: 0x05A3 [0x02] IF !(Work_Zone[9] == 5*) GOTO 0x05BF
104: 0x05AB [0x45] LOAD_SCHEDULED_TASK: Load scheduler "s025" with entities [EventEntity, EventEntity], work=[887*, 0*]
105: 0x05BC [0x01] GOTO 0x05EC
106: 0x05BF [0x02] IF !(Work_Zone[9] == 6*) GOTO 0x05DB
107: 0x05C7 [0x45] LOAD_SCHEDULED_TASK: Load scheduler "s025" with entities [EventEntity, EventEntity], work=[887*, 0*]
108: 0x05D8 [0x01] GOTO 0x05EC
109: 0x05DB [0x45] LOAD_SCHEDULED_TASK: Load scheduler "s004" with entities [EventEntity, EventEntity], work=[887*, 0*]

SUBROUTINE_05EC:
110: 0x05EC [0x7B] Reikuu (ID: 17970049/0x01123381) stops talking
111: 0x05F1 [0x27] REQ_SET(priority=0x0F, entity_id=Reikuu (ID: 17970049/0x01123381), tag_num=0x7D)
112: 0x05F8 [0x2B] Reikuu (ID: 17970049/0x01123381) [8646*]:
    → "As such, how can we risk harboring a known fugitive from their side when even the slightest misstep could cause them to call the whole thing off?"
113: 0x05FF [0x1C] WAIT(40* ticks)
114: 0x0602 [0x4A] LocalPlayer looks at Reikuu (ID: 17970049/0x01123381)
115: 0x060B [0x6F] WAIT_FRAME_DELAY: Yield until WaitTime reaches zero
116: 0x060C [0x76] CHECK_ENTITY_RENDER_FLAGS: Wait until LocalPlayer Render.Flags0 and Render.Flags3 conditions are met
117: 0x0611 [0x23] WAIT_FOR_DIALOG_INTERACTION
118: 0x0612 [0x2A] GET_REQ_LEVEL(level=15, entity_id=Reikuu (ID: 17970049/0x01123381))
119: 0x0618 [0x29] REQ_SET_WAIT(priority=0x0F, entity_id=Reikuu (ID: 17970049/0x01123381), tag_num=0x06)
120: 0x061F [0x2B] Reikuu (ID: 17970049/0x01123381) [8647*]:
    → "Not only would it be a bad look for us, the fact that we did not even discuss it with them first could renew hostilities between the two sides."
121: 0x0626 [0x23] WAIT_FOR_DIALOG_INTERACTION
122: 0x0627 [0x29] REQ_SET_WAIT(priority=0x0F, entity_id=Reikuu (ID: 17970049/0x01123381), tag_num=0x07)
123: 0x062E [0x29] REQ_SET_WAIT(priority=0x0F, entity_id=Reikuu (ID: 17970049/0x01123381), tag_num=0x08)
124: 0x0635 [0x02] IF !(Work_Zone[9] == 5*) GOTO 0x064F
125: 0x063D [0x52] END_LOAD_SCHEDULER: End scheduler "s025" with entities [EventEntity, EventEntity], work=887*
126: 0x064C [0x01] GOTO 0x0678
127: 0x064F [0x02] IF !(Work_Zone[9] == 6*) GOTO 0x0669
128: 0x0657 [0x52] END_LOAD_SCHEDULER: End scheduler "s025" with entities [EventEntity, EventEntity], work=887*
129: 0x0666 [0x01] GOTO 0x0678
130: 0x0669 [0x52] END_LOAD_SCHEDULER: End scheduler "s004" with entities [EventEntity, EventEntity], work=887*

SUBROUTINE_0678:
131: 0x0678 [0x45] LOAD_SCHEDULED_TASK: Load scheduler "s005" with entities [EventEntity, EventEntity], work=[887*, 0*]
132: 0x0689 [0x4A] Reikuu (ID: 17970049/0x01123381) looks at LocalPlayer
133: 0x0692 [0x6F] WAIT_FRAME_DELAY: Yield until WaitTime reaches zero
134: 0x0693 [0x76] CHECK_ENTITY_RENDER_FLAGS: Wait until Reikuu (ID: 17970049/0x01123381) Render.Flags0 and Render.Flags3 conditions are met
135: 0x0698 [0x29] REQ_SET_WAIT(priority=0x0F, entity_id=Reikuu (ID: 17970049/0x01123381), tag_num=0x26)
136: 0x069F [0x2B] Reikuu (ID: 17970049/0x01123381) [8648*]:
    → "That would go against everything we are currently trying to accomplish. Furthermore, it goes against the will of Lord Kokai, the leader of the Tengu sect."
137: 0x06A6 [0x23] WAIT_FOR_DIALOG_INTERACTION
138: 0x06A7 [0x29] REQ_SET_WAIT(priority=0x0F, entity_id=Reikuu (ID: 17970049/0x01123381), tag_num=0x27)
139: 0x06AE [0x52] END_LOAD_SCHEDULER: End scheduler "s005" with entities [EventEntity, EventEntity], work=887*
140: 0x06BD [0x45] LOAD_SCHEDULED_TASK: Load scheduler "s006" with entities [EventEntity, EventEntity], work=[887*, 0*]
141: 0x06CE [0x4A] LocalPlayer looks at Reikuu (ID: 17970049/0x01123381)
142: 0x06D7 [0x29] REQ_SET_WAIT(priority=0x0F, entity_id=Reikuu (ID: 17970049/0x01123381), tag_num=0x16)
143: 0x06DE [0x45] LOAD_SCHEDULED_TASK: Load scheduler "4013" with entities [EventEntity, EventEntity], work=[887*, 0*]
144: 0x06EF [0x2B] Reikuu (ID: 17970049/0x01123381) [8649*]:
    → "That is why we must send Nii Aquu back to the Middle Lands, and if we are lucky, they will feel some sense of obligation toward us!"
145: 0x06F6 [0x23] WAIT_FOR_DIALOG_INTERACTION
146: 0x06F7 [0x29] REQ_SET_WAIT(priority=0x0F, entity_id=Reikuu (ID: 17970049/0x01123381), tag_num=0x17)
147: 0x06FE [0x29] REQ_SET_WAIT(priority=0x0F, entity_id=Reikuu (ID: 17970049/0x01123381), tag_num=0x18)
148: 0x0705 [0x29] REQ_SET_WAIT(priority=0x0F, entity_id=Reikuu (ID: 17970049/0x01123381), tag_num=0x19)
149: 0x070C [0x6F] WAIT_FRAME_DELAY: Yield until WaitTime reaches zero
150: 0x070D [0x76] CHECK_ENTITY_RENDER_FLAGS: Wait until LocalPlayer Render.Flags0 and Render.Flags3 conditions are met
151: 0x0712 [0x52] END_LOAD_SCHEDULER: End scheduler "s006" with entities [EventEntity, EventEntity], work=887*
152: 0x0721 [0x02] IF !(Work_Zone[9] == 5*) GOTO 0x073D
153: 0x0729 [0x45] LOAD_SCHEDULED_TASK: Load scheduler "s026" with entities [EventEntity, EventEntity], work=[887*, 0*]
154: 0x073A [0x01] GOTO 0x076A
155: 0x073D [0x02] IF !(Work_Zone[9] == 6*) GOTO 0x0759
156: 0x0745 [0x45] LOAD_SCHEDULED_TASK: Load scheduler "s026" with entities [EventEntity, EventEntity], work=[887*, 0*]
157: 0x0756 [0x01] GOTO 0x076A
158: 0x0759 [0x45] LOAD_SCHEDULED_TASK: Load scheduler "s007" with entities [EventEntity, EventEntity], work=[887*, 0*]

SUBROUTINE_076A:
159: 0x076A [0x29] REQ_SET_WAIT(priority=0x0F, entity_id=Reikuu (ID: 17970049/0x01123381), tag_num=0x0E)
160: 0x0771 [0x2B] Reikuu (ID: 17970049/0x01123381) [8650*]:
    → "Which brings me to the subject of Gessho..."
161: 0x0778 [0x23] WAIT_FOR_DIALOG_INTERACTION
162: 0x0779 [0x2B] Reikuu (ID: 17970049/0x01123381) [8651*]:
    → "Even at this critical juncture, he shamelessly states that we should search for a proper path forward regarding the situation in order to honor the will of the Mikado and the archpriest."
163: 0x0780 [0x23] WAIT_FOR_DIALOG_INTERACTION
164: 0x0781 [0x29] REQ_SET_WAIT(priority=0x0F, entity_id=Reikuu (ID: 17970049/0x01123381), tag_num=0x0F)
165: 0x0788 [0x29] REQ_SET_WAIT(priority=0x0F, entity_id=Reikuu (ID: 17970049/0x01123381), tag_num=0x10)
166: 0x078F [0x29] REQ_SET_WAIT(priority=0x0F, entity_id=Reikuu (ID: 17970049/0x01123381), tag_num=0x11)
167: 0x0796 [0x02] IF !(Work_Zone[9] == 5*) GOTO 0x07B0
168: 0x079E [0x52] END_LOAD_SCHEDULER: End scheduler "s026" with entities [EventEntity, EventEntity], work=887*
169: 0x07AD [0x01] GOTO 0x07D9
170: 0x07B0 [0x02] IF !(Work_Zone[9] == 6*) GOTO 0x07CA
171: 0x07B8 [0x52] END_LOAD_SCHEDULER: End scheduler "s026" with entities [EventEntity, EventEntity], work=887*
172: 0x07C7 [0x01] GOTO 0x07D9
173: 0x07CA [0x52] END_LOAD_SCHEDULER: End scheduler "s007" with entities [EventEntity, EventEntity], work=887*

SUBROUTINE_07D9:
174: 0x07D9 [0x02] IF !(Work_Zone[9] == 5*) GOTO 0x07F5
175: 0x07E1 [0x45] LOAD_SCHEDULED_TASK: Load scheduler "s027" with entities [EventEntity, EventEntity], work=[887*, 0*]
176: 0x07F2 [0x01] GOTO 0x0822
177: 0x07F5 [0x02] IF !(Work_Zone[9] == 6*) GOTO 0x0811
178: 0x07FD [0x45] LOAD_SCHEDULED_TASK: Load scheduler "s027" with entities [EventEntity, EventEntity], work=[887*, 0*]
179: 0x080E [0x01] GOTO 0x0822
180: 0x0811 [0x45] LOAD_SCHEDULED_TASK: Load scheduler "s008" with entities [EventEntity, EventEntity], work=[887*, 0*]

SUBROUTINE_0822:
181: 0x0822 [0x29] REQ_SET_WAIT(priority=0x0F, entity_id=Reikuu (ID: 17970049/0x01123381), tag_num=0x34)
182: 0x0829 [0x1C] WAIT(30* ticks)
183: 0x082C [0x45] LOAD_SCHEDULED_TASK: Load scheduler "8160" with entities [EventEntity, EventEntity], work=[887*, 0*]
184: 0x083D [0x2B] Reikuu (ID: 17970049/0x01123381) [8652*]:
    → "Naturally, we should do what is right, but I keep telling him that we cannot welcome such a traitor into our midst. I feel as if we are simply going in circles here."
185: 0x0844 [0x23] WAIT_FOR_DIALOG_INTERACTION
186: 0x0845 [0x29] REQ_SET_WAIT(priority=0x0F, entity_id=Reikuu (ID: 17970049/0x01123381), tag_num=0x35)
187: 0x084C [0x02] IF !(Work_Zone[9] == 5*) GOTO 0x0866
188: 0x0854 [0x52] END_LOAD_SCHEDULER: End scheduler "s027" with entities [EventEntity, EventEntity], work=887*
189: 0x0863 [0x01] GOTO 0x088F
190: 0x0866 [0x02] IF !(Work_Zone[9] == 6*) GOTO 0x0880
191: 0x086E [0x52] END_LOAD_SCHEDULER: End scheduler "s027" with entities [EventEntity, EventEntity], work=887*
192: 0x087D [0x01] GOTO 0x088F
193: 0x0880 [0x52] END_LOAD_SCHEDULER: End scheduler "s008" with entities [EventEntity, EventEntity], work=887*

SUBROUTINE_088F:
194: 0x088F [0x45] LOAD_SCHEDULED_TASK: Load scheduler "blof" with entities [EventEntity, EventEntity], work=[887*, 0*]
195: 0x08A0 [0x02] IF !(Work_Zone[9] == 5*) GOTO 0x08BC
196: 0x08A8 [0x45] LOAD_SCHEDULED_TASK: Load scheduler "s028" with entities [EventEntity, EventEntity], work=[887*, 0*]
197: 0x08B9 [0x01] GOTO 0x08E9
198: 0x08BC [0x02] IF !(Work_Zone[9] == 6*) GOTO 0x08D8
199: 0x08C4 [0x45] LOAD_SCHEDULED_TASK: Load scheduler "s028" with entities [EventEntity, EventEntity], work=[887*, 0*]
200: 0x08D5 [0x01] GOTO 0x08E9
201: 0x08D8 [0x45] LOAD_SCHEDULED_TASK: Load scheduler "s009" with entities [EventEntity, EventEntity], work=[887*, 0*]

SUBROUTINE_08E9:
202: 0x08E9 [0x27] REQ_SET(priority=0x0F, entity_id=Reikuu (ID: 17970049/0x01123381), tag_num=0x7E)
203: 0x08F0 [0x2B] Reikuu (ID: 17970049/0x01123381) [8653*]:
    → "Of course, this is all a result of your actions, <Player>."
204: 0x08F7 [0x23] WAIT_FOR_DIALOG_INTERACTION
205: 0x08F8 [0x2A] GET_REQ_LEVEL(level=15, entity_id=Reikuu (ID: 17970049/0x01123381))
206: 0x08FE [0x29] REQ_SET_WAIT(priority=0x0F, entity_id=Reikuu (ID: 17970049/0x01123381), tag_num=0x02)
207: 0x0905 [0x2B] Reikuu (ID: 17970049/0x01123381) [8654*]:
    → "As such, I would like to demand that you take responsibility for your role in this quagmire and pay the ultimate price..."
208: 0x090C [0x23] WAIT_FOR_DIALOG_INTERACTION
209: 0x090D [0x02] IF !(Work_Zone[9] == 5*) GOTO 0x0927
210: 0x0915 [0x52] END_LOAD_SCHEDULER: End scheduler "s028" with entities [EventEntity, EventEntity], work=887*
211: 0x0924 [0x01] GOTO 0x0950
212: 0x0927 [0x02] IF !(Work_Zone[9] == 6*) GOTO 0x0941
213: 0x092F [0x52] END_LOAD_SCHEDULER: End scheduler "s028" with entities [EventEntity, EventEntity], work=887*
214: 0x093E [0x01] GOTO 0x0950
215: 0x0941 [0x52] END_LOAD_SCHEDULER: End scheduler "s009" with entities [EventEntity, EventEntity], work=887*

SUBROUTINE_0950:
216: 0x0950 [0x45] LOAD_SCHEDULED_TASK: Load scheduler "s010" with entities [EventEntity, EventEntity], work=[887*, 0*]
217: 0x0961 [0x2B] Reikuu (ID: 17970049/0x01123381) [8655*]:
    → "However, I cannot overlook the fact that you managed to secure the assistance of the Goblin known as Incantrix."
218: 0x0968 [0x23] WAIT_FOR_DIALOG_INTERACTION
219: 0x0969 [0x29] REQ_SET_WAIT(priority=0x0F, entity_id=Reikuu (ID: 17970049/0x01123381), tag_num=0x03)
220: 0x0970 [0x29] REQ_SET_WAIT(priority=0x0F, entity_id=Reikuu (ID: 17970049/0x01123381), tag_num=0x04)
221: 0x0977 [0x2B] Reikuu (ID: 17970049/0x01123381) [8656*]:
    → "The tale of Chaos, the black sword, and the Goblin hero that took place five thousand years ago... It was a difficult topic for us of the Tengu sect to hear."
222: 0x097E [0x23] WAIT_FOR_DIALOG_INTERACTION
223: 0x097F [0x29] REQ_SET_WAIT(priority=0x0F, entity_id=Reikuu (ID: 17970049/0x01123381), tag_num=0x05)
224: 0x0986 [0x52] END_LOAD_SCHEDULER: End scheduler "s010" with entities [EventEntity, EventEntity], work=887*
225: 0x0995 [0x02] IF !(Work_Zone[9] == 3*) GOTO 0x09B1
226: 0x099D [0x45] LOAD_SCHEDULED_TASK: Load scheduler "s011" with entities [EventEntity, EventEntity], work=[887*, 0*]
227: 0x09AE [0x01] GOTO 0x0A16
228: 0x09B1 [0x02] IF !(Work_Zone[9] == 5*) GOTO 0x09CD
229: 0x09B9 [0x45] LOAD_SCHEDULED_TASK: Load scheduler "s029" with entities [EventEntity, EventEntity], work=[887*, 0*]
230: 0x09CA [0x01] GOTO 0x0A16
231: 0x09CD [0x02] IF !(Work_Zone[9] == 6*) GOTO 0x09E9
232: 0x09D5 [0x45] LOAD_SCHEDULED_TASK: Load scheduler "s029" with entities [EventEntity, EventEntity], work=[887*, 0*]
233: 0x09E6 [0x01] GOTO 0x0A16
234: 0x09E9 [0x02] IF !(Work_Zone[9] == 8*) GOTO 0x0A05
235: 0x09F1 [0x45] LOAD_SCHEDULED_TASK: Load scheduler "s011" with entities [EventEntity, EventEntity], work=[887*, 0*]
236: 0x0A02 [0x01] GOTO 0x0A16
237: 0x0A05 [0x45] LOAD_SCHEDULED_TASK: Load scheduler "s033" with entities [EventEntity, EventEntity], work=[887*, 0*]

SUBROUTINE_0A16:
238: 0x0A16 [0x45] LOAD_SCHEDULED_TASK: Load scheduler "8160" with entities [EventEntity, EventEntity], work=[887*, 0*]
239: 0x0A27 [0x1C] WAIT(40* ticks)
240: 0x0A2A [0x29] REQ_SET_WAIT(priority=0x0F, entity_id=Reikuu (ID: 17970049/0x01123381), tag_num=0x6A)
241: 0x0A31 [0x2B] Reikuu (ID: 17970049/0x01123381) [8657*]:
    → "Therefore, I have decided to merely banish you instead! You are to leave Reisenjima immediately and never return!"
242: 0x0A38 [0x1C] WAIT(40* ticks)
243: 0x0A3B [0x6E] LocalPlayer uses emote 21*
244: 0x0A42 [0x99] Wait for LocalPlayer animation to complete
245: 0x0A47 [0x1C] WAIT(60* ticks)
246: 0x0A4A [0x23] WAIT_FOR_DIALOG_INTERACTION
247: 0x0A4B [0x24] CREATE_DIALOG(message_id=8658*, default_option=0*, option_flags=0*)
    → "How do you respond? [That's so cruel!/Forgive me!/Popopi!]"
248: 0x0A52 [0x25] WAIT_DIALOG_SELECT()
249: 0x0A53 [0x02] IF !(Work_Zone[0] == 0*) GOTO 0x0A5E
250: 0x0A5B [0x01] GOTO 0x0A74
251: 0x0A5E [0x02] IF !(Work_Zone[0] == 1*) GOTO 0x0A69
252: 0x0A66 [0x01] GOTO 0x0A74
253: 0x0A69 [0x02] IF !(Work_Zone[0] == 2*) GOTO 0x0A74
254: 0x0A71 [0x01] GOTO 0x0A74

SUBROUTINE_0A74:
255: 0x0A74 [0x5D] SET_MUSIC_VOLUME(volume=0*, fade_time=300*)
256: 0x0A79 [0x6E] LocalPlayer uses emote 6*
257: 0x0A80 [0x99] Wait for LocalPlayer animation to complete
258: 0x0A85 [0x1C] WAIT(60* ticks)
259: 0x0A88 [0x6C] FADE_ENTITY_COLOR(entity_id=Zhuu Buxu the Silent (ID: 17970052/0x01123384), end_alpha=128*, fade_time=1*)
260: 0x0A91 [0x27] REQ_SET(priority=0x0F, entity_id=Zhuu Buxu the Silent (ID: 17970052/0x01123384), tag_num=0x76)
261: 0x0A98 [0x1C] WAIT(15* ticks)
262: 0x0A9B [0x02] IF !(Work_Zone[9] == 3*) GOTO 0x0AB5
263: 0x0AA3 [0x52] END_LOAD_SCHEDULER: End scheduler "s011" with entities [EventEntity, EventEntity], work=887*
264: 0x0AB2 [0x01] GOTO 0x0B12
265: 0x0AB5 [0x02] IF !(Work_Zone[9] == 5*) GOTO 0x0ACF
266: 0x0ABD [0x52] END_LOAD_SCHEDULER: End scheduler "s029" with entities [EventEntity, EventEntity], work=887*
267: 0x0ACC [0x01] GOTO 0x0B12
268: 0x0ACF [0x02] IF !(Work_Zone[9] == 6*) GOTO 0x0AE9
269: 0x0AD7 [0x52] END_LOAD_SCHEDULER: End scheduler "s029" with entities [EventEntity, EventEntity], work=887*
270: 0x0AE6 [0x01] GOTO 0x0B12
271: 0x0AE9 [0x02] IF !(Work_Zone[9] == 8*) GOTO 0x0B03
272: 0x0AF1 [0x52] END_LOAD_SCHEDULER: End scheduler "s011" with entities [EventEntity, EventEntity], work=887*
273: 0x0B00 [0x01] GOTO 0x0B12
274: 0x0B03 [0x52] END_LOAD_SCHEDULER: End scheduler "s033" with entities [EventEntity, EventEntity], work=887*

SUBROUTINE_0B12:
275: 0x0B12 [0x45] LOAD_SCHEDULED_TASK: Load scheduler "blof" with entities [EventEntity, EventEntity], work=[887*, 0*]
276: 0x0B23 [0x45] LOAD_SCHEDULED_TASK: Load scheduler "s020" with entities [EventEntity, EventEntity], work=[887*, 0*]
277: 0x0B34 [0x1C] WAIT(30* ticks)
278: 0x0B37 [0x02] IF !(Work_Zone[9] == 5*) GOTO 0x0B4F
279: 0x0B3F [0xBA] SET_ENTITY_POSITION(entity_id=LocalPlayer, pos_x=269.299*, pos_z=100.773*, pos_y=-86.987*, direction=212.7°*)
280: 0x0B4C [0x01] GOTO 0x0B64
281: 0x0B4F [0x02] IF !(Work_Zone[9] == 6*) GOTO 0x0B64
282: 0x0B57 [0xBA] SET_ENTITY_POSITION(entity_id=LocalPlayer, pos_x=269.299*, pos_z=100.773*, pos_y=-86.987*, direction=212.7°*)

SUBROUTINE_0B64:
283: 0x0B64 [0x1C] WAIT(30* ticks)
284: 0x0B67 [0x52] END_LOAD_SCHEDULER: End scheduler "s020" with entities [EventEntity, EventEntity], work=887*
285: 0x0B76 [0x45] LOAD_SCHEDULED_TASK: Load scheduler "s012" with entities [EventEntity, EventEntity], work=[887*, 0*]
286: 0x0B87 [0x2B] Zhuu Buxu the Silent (ID: 17970052/0x01123384) [8659*]:
    → "Kyah-kyah! What's this? Did I hear you say that you've finally found Nii Aquu?"
287: 0x0B8E [0x29] REQ_SET_WAIT(priority=0x0F, entity_id=Reikuu (ID: 17970049/0x01123381), tag_num=0x6B)
288: 0x0B95 [0x1C] WAIT(30* ticks)
289: 0x0B98 [0x4A] LocalPlayer looks at Zhuu Buxu the Silent (ID: 17970052/0x01123384)
290: 0x0BA1 [0x6F] WAIT_FRAME_DELAY: Yield until WaitTime reaches zero
291: 0x0BA2 [0x76] CHECK_ENTITY_RENDER_FLAGS: Wait until LocalPlayer Render.Flags0 and Render.Flags3 conditions are met
292: 0x0BA7 [0x4A] Reikuu (ID: 17970049/0x01123381) looks at Zhuu Buxu the Silent (ID: 17970052/0x01123384)
293: 0x0BB0 [0x6F] WAIT_FRAME_DELAY: Yield until WaitTime reaches zero
294: 0x0BB1 [0x76] CHECK_ENTITY_RENDER_FLAGS: Wait until Reikuu (ID: 17970049/0x01123381) Render.Flags0 and Render.Flags3 conditions are met
295: 0x0BB6 [0x52] END_LOAD_SCHEDULER: End scheduler "s012" with entities [EventEntity, EventEntity], work=887*
296: 0x0BC5 [0x45] LOAD_SCHEDULED_TASK: Load scheduler "s013" with entities [EventEntity, EventEntity], work=[887*, 0*]
297: 0x0BD6 [0x23] WAIT_FOR_DIALOG_INTERACTION
298: 0x0BD7 [0x2A] GET_REQ_LEVEL(level=15, entity_id=Zhuu Buxu the Silent (ID: 17970052/0x01123384))
299: 0x0BDD [0x79] Zhuu Buxu the Silent (ID: 17970052/0x01123384) looks at Reikuu (ID: 17970049/0x01123381) (Basic look)
300: 0x0BE7 [0x29] REQ_SET_WAIT(priority=0x0F, entity_id=Reikuu (ID: 17970049/0x01123381), tag_num=0x6B)
301: 0x0BEE [0x27] REQ_SET(priority=0x0F, entity_id=Reikuu (ID: 17970049/0x01123381), tag_num=0x7F)
302: 0x0BF5 [0x2B] Reikuu (ID: 17970049/0x01123381) [8660*]:
    → "Ah, Master Zhuu Buxu the Silent. I have been eagerly awaiting your arrival."
303: 0x0BFC [0x1C] WAIT(20* ticks)
304: 0x0BFF [0x52] END_LOAD_SCHEDULER: End scheduler "s013" with entities [EventEntity, EventEntity], work=887*
305: 0x0C0E [0x45] LOAD_SCHEDULED_TASK: Load scheduler "s014" with entities [EventEntity, EventEntity], work=[887*, 0*]
306: 0x0C1F [0x4A] Zhuu Buxu the Silent (ID: 17970052/0x01123384) looks at Reikuu (ID: 17970049/0x01123381)
307: 0x0C28 [0x6F] WAIT_FRAME_DELAY: Yield until WaitTime reaches zero
308: 0x0C29 [0x76] CHECK_ENTITY_RENDER_FLAGS: Wait until Zhuu Buxu the Silent (ID: 17970052/0x01123384) Render.Flags0 and Render.Flags3 conditions are met
309: 0x0C2E [0x23] WAIT_FOR_DIALOG_INTERACTION
310: 0x0C2F [0x5C] MUSIC_CONTROL: Set Idle (Day) music to song 31*
311: 0x0C33 [0x5C] MUSIC_CONTROL: Set Idle (Night) music to song 31*
312: 0x0C37 [0x9A] WAIT_MUSIC_SERVER()
313: 0x0C38 [0x5D] SET_MUSIC_VOLUME(volume=127*, fade_time=1*)
314: 0x0C3D [0x2A] GET_REQ_LEVEL(level=15, entity_id=Reikuu (ID: 17970049/0x01123381))
315: 0x0C43 [0x29] REQ_SET_WAIT(priority=0x0F, entity_id=Zhuu Buxu the Silent (ID: 17970052/0x01123384), tag_num=0x26)
316: 0x0C4A [0x2B] Zhuu Buxu the Silent (ID: 17970052/0x01123384) [8661*]:
    → "At first, I thought the Tengu sect was secretly harboring the traitor, but it appears I was mistaken."
317: 0x0C51 [0x23] WAIT_FOR_DIALOG_INTERACTION
318: 0x0C52 [0x29] REQ_SET_WAIT(priority=0x0F, entity_id=Zhuu Buxu the Silent (ID: 17970052/0x01123384), tag_num=0x27)
319: 0x0C59 [0x52] END_LOAD_SCHEDULER: End scheduler "s014" with entities [EventEntity, EventEntity], work=887*
320: 0x0C68 [0x45] LOAD_SCHEDULED_TASK: Load scheduler "s015" with entities [EventEntity, EventEntity], work=[887*, 0*]
321: 0x0C79 [0x29] REQ_SET_WAIT(priority=0x0F, entity_id=Zhuu Buxu the Silent (ID: 17970052/0x01123384), tag_num=0x06)
322: 0x0C80 [0x2B] Zhuu Buxu the Silent (ID: 17970052/0x01123384) [8662*]:
    → "Those filthy Goblins are up to something, aren't they!"
323: 0x0C87 [0x23] WAIT_FOR_DIALOG_INTERACTION
324: 0x0C88 [0x2B] Zhuu Buxu the Silent (ID: 17970052/0x01123384) [8663*]:
    → "Someone believed to be Nii Aquu was seen sucked into a glowing vortex in eastern Reisenjima."
325: 0x0C8F [0x23] WAIT_FOR_DIALOG_INTERACTION
326: 0x0C90 [0x29] REQ_SET_WAIT(priority=0x0F, entity_id=Zhuu Buxu the Silent (ID: 17970052/0x01123384), tag_num=0x07)
327: 0x0C97 [0x52] END_LOAD_SCHEDULER: End scheduler "s015" with entities [EventEntity, EventEntity], work=887*
328: 0x0CA6 [0x45] LOAD_SCHEDULED_TASK: Load scheduler "s016" with entities [EventEntity, EventEntity], work=[887*, 0*]
329: 0x0CB7 [0x29] REQ_SET_WAIT(priority=0x0F, entity_id=Zhuu Buxu the Silent (ID: 17970052/0x01123384), tag_num=0x08)
330: 0x0CBE [0x29] REQ_SET_WAIT(priority=0x0F, entity_id=Reikuu (ID: 17970049/0x01123381), tag_num=0x12)
331: 0x0CC5 [0x2B] Reikuu (ID: 17970049/0x01123381) [8664*]:
    → "That sounds rather mysterious..."
332: 0x0CCC [0x23] WAIT_FOR_DIALOG_INTERACTION
333: 0x0CCD [0x1C] WAIT(90* ticks)
334: 0x0CD0 [0x29] REQ_SET_WAIT(priority=0x0F, entity_id=Zhuu Buxu the Silent (ID: 17970052/0x01123384), tag_num=0x09)
335: 0x0CD7 [0x52] END_LOAD_SCHEDULER: End scheduler "s016" with entities [EventEntity, EventEntity], work=887*
336: 0x0CE6 [0x45] LOAD_SCHEDULED_TASK: Load scheduler "s017" with entities [EventEntity, EventEntity], work=[887*, 0*]
337: 0x0CF7 [0x7B] Zhuu Buxu the Silent (ID: 17970052/0x01123384) stops talking
338: 0x0CFC [0x27] REQ_SET(priority=0x0F, entity_id=Zhuu Buxu the Silent (ID: 17970052/0x01123384), tag_num=0x77)
339: 0x0D03 [0x2B] Zhuu Buxu the Silent (ID: 17970052/0x01123384) [8665*]:
    → "Yes, indeed. I doubt anyone would have expected him to hide in such an unusual location."
340: 0x0D0A [0x29] REQ_SET_WAIT(priority=0x0F, entity_id=Reikuu (ID: 17970049/0x01123381), tag_num=0x13)
341: 0x0D11 [0x29] REQ_SET_WAIT(priority=0x0F, entity_id=Reikuu (ID: 17970049/0x01123381), tag_num=0x14)
342: 0x0D18 [0x29] REQ_SET_WAIT(priority=0x0F, entity_id=Reikuu (ID: 17970049/0x01123381), tag_num=0x15)
343: 0x0D1F [0x4A] Reikuu (ID: 17970049/0x01123381) looks at Zhuu Buxu the Silent (ID: 17970052/0x01123384)
344: 0x0D28 [0x6F] WAIT_FRAME_DELAY: Yield until WaitTime reaches zero
345: 0x0D29 [0x76] CHECK_ENTITY_RENDER_FLAGS: Wait until Reikuu (ID: 17970049/0x01123381) Render.Flags0 and Render.Flags3 conditions are met
346: 0x0D2E [0x23] WAIT_FOR_DIALOG_INTERACTION
347: 0x0D2F [0x29] REQ_SET_WAIT(priority=0x0F, entity_id=Zhuu Buxu the Silent (ID: 17970052/0x01123384), tag_num=0x0E)
348: 0x0D36 [0x2B] Zhuu Buxu the Silent (ID: 17970052/0x01123384) [8666*]:
    → "However, it appears he has now returned and is somewhere near the waterfall. Perhaps he goes there to meditate like Gessho does."
349: 0x0D3D [0x23] WAIT_FOR_DIALOG_INTERACTION
350: 0x0D3E [0x2A] GET_REQ_LEVEL(level=15, entity_id=Zhuu Buxu the Silent (ID: 17970052/0x01123384))
351: 0x0D44 [0x52] END_LOAD_SCHEDULER: End scheduler "s017" with entities [EventEntity, EventEntity], work=887*
352: 0x0D53 [0x02] IF !(Work_Zone[9] == 5*) GOTO 0x0D6F
353: 0x0D5B [0x45] LOAD_SCHEDULED_TASK: Load scheduler "s031" with entities [EventEntity, EventEntity], work=[887*, 0*]
354: 0x0D6C [0x01] GOTO 0x0D9C
355: 0x0D6F [0x02] IF !(Work_Zone[9] == 6*) GOTO 0x0D8B
356: 0x0D77 [0x45] LOAD_SCHEDULED_TASK: Load scheduler "s031" with entities [EventEntity, EventEntity], work=[887*, 0*]
357: 0x0D88 [0x01] GOTO 0x0D9C
358: 0x0D8B [0x45] LOAD_SCHEDULED_TASK: Load scheduler "s018" with entities [EventEntity, EventEntity], work=[887*, 0*]

SUBROUTINE_0D9C:
359: 0x0D9C [0x4A] LocalPlayer looks at Zhuu Buxu the Silent (ID: 17970052/0x01123384)
360: 0x0DA5 [0x2B] Reikuu (ID: 17970049/0x01123381) [8667*]:
    → "..."
361: 0x0DAC [0x23] WAIT_FOR_DIALOG_INTERACTION
362: 0x0DAD [0x6F] WAIT_FRAME_DELAY: Yield until WaitTime reaches zero
363: 0x0DAE [0x76] CHECK_ENTITY_RENDER_FLAGS: Wait until LocalPlayer Render.Flags0 and Render.Flags3 conditions are met
364: 0x0DB3 [0x4B] UPDATE_ENTITY_YAW(entity=Zhuu Buxu the Silent (ID: 17970052/0x01123384), yaw=19.4°*)
365: 0x0DBA [0x6F] WAIT_FRAME_DELAY: Yield until WaitTime reaches zero
366: 0x0DBB [0x76] CHECK_ENTITY_RENDER_FLAGS: Wait until LocalPlayer Render.Flags0 and Render.Flags3 conditions are met
367: 0x0DC0 [0x29] REQ_SET_WAIT(priority=0x0F, entity_id=Zhuu Buxu the Silent (ID: 17970052/0x01123384), tag_num=0x0F)
368: 0x0DC7 [0x29] REQ_SET_WAIT(priority=0x0F, entity_id=Zhuu Buxu the Silent (ID: 17970052/0x01123384), tag_num=0x10)
369: 0x0DCE [0x29] REQ_SET_WAIT(priority=0x0F, entity_id=Zhuu Buxu the Silent (ID: 17970052/0x01123384), tag_num=0x11)
370: 0x0DD5 [0x2B] Zhuu Buxu the Silent (ID: 17970052/0x01123384) [8668*]:
    → "No matter. I shall go there and see that he faces justice. Quawk-quawk!"
371: 0x0DDC [0x4A] Reikuu (ID: 17970049/0x01123381) looks at Zhuu Buxu the Silent (ID: 17970052/0x01123384)
372: 0x0DE5 [0x6F] WAIT_FRAME_DELAY: Yield until WaitTime reaches zero
373: 0x0DE6 [0x76] CHECK_ENTITY_RENDER_FLAGS: Wait until Reikuu (ID: 17970049/0x01123381) Render.Flags0 and Render.Flags3 conditions are met
374: 0x0DEB [0x29] REQ_SET_WAIT(priority=0x0F, entity_id=Zhuu Buxu the Silent (ID: 17970052/0x01123384), tag_num=0x2E)
375: 0x0DF2 [0x45] LOAD_SCHEDULED_TASK: Load scheduler "4003" with entities [EventEntity, EventEntity], work=[887*, 0*]
376: 0x0E03 [0x29] REQ_SET_WAIT(priority=0x0F, entity_id=Zhuu Buxu the Silent (ID: 17970052/0x01123384), tag_num=0x2F)
377: 0x0E0A [0x23] WAIT_FOR_DIALOG_INTERACTION
378: 0x0E0B [0x29] REQ_SET_WAIT(priority=0x0F, entity_id=Zhuu Buxu the Silent (ID: 17970052/0x01123384), tag_num=0x30)
379: 0x0E12 [0x29] REQ_SET_WAIT(priority=0x0F, entity_id=Zhuu Buxu the Silent (ID: 17970052/0x01123384), tag_num=0x31)
380: 0x0E19 [0x02] IF !(Work_Zone[9] == 5*) GOTO 0x0E33
381: 0x0E21 [0x52] END_LOAD_SCHEDULER: End scheduler "s031" with entities [EventEntity, EventEntity], work=887*
382: 0x0E30 [0x01] GOTO 0x0E5C
383: 0x0E33 [0x02] IF !(Work_Zone[9] == 6*) GOTO 0x0E4D
384: 0x0E3B [0x52] END_LOAD_SCHEDULER: End scheduler "s031" with entities [EventEntity, EventEntity], work=887*
385: 0x0E4A [0x01] GOTO 0x0E5C
386: 0x0E4D [0x52] END_LOAD_SCHEDULER: End scheduler "s018" with entities [EventEntity, EventEntity], work=887*

SUBROUTINE_0E5C:
387: 0x0E5C [0x45] LOAD_SCHEDULED_TASK: Load scheduler "s019" with entities [EventEntity, EventEntity], work=[887*, 0*]
388: 0x0E6D [0x7B] Zhuu Buxu the Silent (ID: 17970052/0x01123384) stops talking
389: 0x0E72 [0x5D] SET_MUSIC_VOLUME(volume=0*, fade_time=300*)
390: 0x0E77 [0x27] REQ_SET(priority=0x0F, entity_id=Zhuu Buxu the Silent (ID: 17970052/0x01123384), tag_num=0x78)
391: 0x0E7E [0x1C] WAIT(30* ticks)
392: 0x0E81 [0x4A] Reikuu (ID: 17970049/0x01123381) looks at Zhuu Buxu the Silent (ID: 17970052/0x01123384)
393: 0x0E8A [0x6F] WAIT_FRAME_DELAY: Yield until WaitTime reaches zero
394: 0x0E8B [0x76] CHECK_ENTITY_RENDER_FLAGS: Wait until Reikuu (ID: 17970049/0x01123381) Render.Flags0 and Render.Flags3 conditions are met
395: 0x0E90 [0x4A] LocalPlayer looks at Zhuu Buxu the Silent (ID: 17970052/0x01123384)
396: 0x0E99 [0x6F] WAIT_FRAME_DELAY: Yield until WaitTime reaches zero
397: 0x0E9A [0x76] CHECK_ENTITY_RENDER_FLAGS: Wait until LocalPlayer Render.Flags0 and Render.Flags3 conditions are met
398: 0x0E9F [0x1C] WAIT(90* ticks)
399: 0x0EA2 [0x1C] WAIT(30* ticks)
400: 0x0EA5 [0x52] END_LOAD_SCHEDULER: End scheduler "s019" with entities [EventEntity, EventEntity], work=887*
401: 0x0EB4 [0x02] IF !(Work_Zone[9] == 5*) GOTO 0x0ED0
402: 0x0EBC [0x45] LOAD_SCHEDULED_TASK: Load scheduler "s030" with entities [EventEntity, EventEntity], work=[887*, 0*]
403: 0x0ECD [0x01] GOTO 0x0F04
404: 0x0ED0 [0x02] IF !(Work_Zone[9] == 6*) GOTO 0x0EEC
405: 0x0ED8 [0x45] LOAD_SCHEDULED_TASK: Load scheduler "s030" with entities [EventEntity, EventEntity], work=[887*, 0*]
406: 0x0EE9 [0x01] GOTO 0x0F04
407: 0x0EEC [0x45] LOAD_SCHEDULED_TASK: Load scheduler "s021" with entities [EventEntity, EventEntity], work=[887*, 0*]
408: 0x0EFD [0x29] REQ_SET_WAIT(priority=0x0F, entity_id=Reikuu (ID: 17970049/0x01123381), tag_num=0x0E)

SUBROUTINE_0F04:
409: 0x0F04 [0x6C] FADE_ENTITY_COLOR(entity_id=Zhuu Buxu the Silent (ID: 17970052/0x01123384), end_alpha=0*, fade_time=1*)
410: 0x0F0D [0x2B] Reikuu (ID: 17970049/0x01123381) [8669*]:
    → "If Master Zhuu Buxu can take the traitor back to the Middle Lands with him, then all of our problems will be solved..."
411: 0x0F14 [0x1C] WAIT(30* ticks)
412: 0x0F17 [0x4A] LocalPlayer looks at Reikuu (ID: 17970049/0x01123381)
413: 0x0F20 [0x6F] WAIT_FRAME_DELAY: Yield until WaitTime reaches zero
414: 0x0F21 [0x76] CHECK_ENTITY_RENDER_FLAGS: Wait until LocalPlayer Render.Flags0 and Render.Flags3 conditions are met
415: 0x0F26 [0x23] WAIT_FOR_DIALOG_INTERACTION
416: 0x0F27 [0x02] IF !(Work_Zone[9] == 5*) GOTO 0x0F41
417: 0x0F2F [0x52] END_LOAD_SCHEDULER: End scheduler "s030" with entities [EventEntity, EventEntity], work=887*
418: 0x0F3E [0x01] GOTO 0x0F7F
419: 0x0F41 [0x02] IF !(Work_Zone[9] == 6*) GOTO 0x0F5B
420: 0x0F49 [0x52] END_LOAD_SCHEDULER: End scheduler "s030" with entities [EventEntity, EventEntity], work=887*
421: 0x0F58 [0x01] GOTO 0x0F7F
422: 0x0F5B [0x52] END_LOAD_SCHEDULER: End scheduler "s021" with entities [EventEntity, EventEntity], work=887*
423: 0x0F6A [0x29] REQ_SET_WAIT(priority=0x0F, entity_id=Reikuu (ID: 17970049/0x01123381), tag_num=0x0F)
424: 0x0F71 [0x29] REQ_SET_WAIT(priority=0x0F, entity_id=Reikuu (ID: 17970049/0x01123381), tag_num=0x10)
425: 0x0F78 [0x29] REQ_SET_WAIT(priority=0x0F, entity_id=Reikuu (ID: 17970049/0x01123381), tag_num=0x11)

SUBROUTINE_0F7F:
426: 0x0F7F [0x02] IF !(Work_Zone[9] == 3*) GOTO 0x0F9B
427: 0x0F87 [0x45] LOAD_SCHEDULED_TASK: Load scheduler "s120" with entities [EventEntity, EventEntity], work=[887*, 0*]
428: 0x0F98 [0x01] GOTO 0x1000
429: 0x0F9B [0x02] IF !(Work_Zone[9] == 5*) GOTO 0x0FB7
430: 0x0FA3 [0x45] LOAD_SCHEDULED_TASK: Load scheduler "s032" with entities [EventEntity, EventEntity], work=[887*, 0*]
431: 0x0FB4 [0x01] GOTO 0x1000
432: 0x0FB7 [0x02] IF !(Work_Zone[9] == 6*) GOTO 0x0FD3
433: 0x0FBF [0x45] LOAD_SCHEDULED_TASK: Load scheduler "s032" with entities [EventEntity, EventEntity], work=[887*, 0*]
434: 0x0FD0 [0x01] GOTO 0x1000
435: 0x0FD3 [0x02] IF !(Work_Zone[9] == 8*) GOTO 0x0FEF
436: 0x0FDB [0x45] LOAD_SCHEDULED_TASK: Load scheduler "s120" with entities [EventEntity, EventEntity], work=[887*, 0*]
437: 0x0FEC [0x01] GOTO 0x1000
438: 0x0FEF [0x45] LOAD_SCHEDULED_TASK: Load scheduler "s034" with entities [EventEntity, EventEntity], work=[887*, 0*]

SUBROUTINE_1000:
439: 0x1000 [0x29] REQ_SET_WAIT(priority=0x0F, entity_id=Reikuu (ID: 17970049/0x01123381), tag_num=0x12)
440: 0x1007 [0x2B] Reikuu (ID: 17970049/0x01123381) [8670*]:
    → "Now, the only thing left is how to deal with Gessho. Unfortunately, that is one matter that will not resolve itself."
441: 0x100E [0x23] WAIT_FOR_DIALOG_INTERACTION
442: 0x100F [0x29] REQ_SET_WAIT(priority=0x0F, entity_id=Reikuu (ID: 17970049/0x01123381), tag_num=0x13)
443: 0x1016 [0x29] REQ_SET_WAIT(priority=0x0F, entity_id=Reikuu (ID: 17970049/0x01123381), tag_num=0x14)
444: 0x101D [0x29] REQ_SET_WAIT(priority=0x0F, entity_id=Reikuu (ID: 17970049/0x01123381), tag_num=0x15)
445: 0x1024 [0x02] IF !(Work_Zone[9] == 3*) GOTO 0x103E
446: 0x102C [0x52] END_LOAD_SCHEDULER: End scheduler "s120" with entities [EventEntity, EventEntity], work=887*
447: 0x103B [0x01] GOTO 0x109B
448: 0x103E [0x02] IF !(Work_Zone[9] == 5*) GOTO 0x1058
449: 0x1046 [0x52] END_LOAD_SCHEDULER: End scheduler "s032" with entities [EventEntity, EventEntity], work=887*
450: 0x1055 [0x01] GOTO 0x109B
451: 0x1058 [0x02] IF !(Work_Zone[9] == 6*) GOTO 0x1072
452: 0x1060 [0x52] END_LOAD_SCHEDULER: End scheduler "s032" with entities [EventEntity, EventEntity], work=887*
453: 0x106F [0x01] GOTO 0x109B
454: 0x1072 [0x02] IF !(Work_Zone[9] == 8*) GOTO 0x108C
455: 0x107A [0x52] END_LOAD_SCHEDULER: End scheduler "s120" with entities [EventEntity, EventEntity], work=887*
456: 0x1089 [0x01] GOTO 0x109B
457: 0x108C [0x52] END_LOAD_SCHEDULER: End scheduler "s034" with entities [EventEntity, EventEntity], work=887*

SUBROUTINE_109B:
458: 0x109B [0x45] LOAD_SCHEDULED_TASK: Load scheduler "s022" with entities [EventEntity, EventEntity], work=[887*, 0*]
459: 0x10AC [0x27] REQ_SET(priority=0x0F, entity_id=Reikuu (ID: 17970049/0x01123381), tag_num=0x80)
460: 0x10B3 [0x1C] WAIT(30* ticks)
461: 0x10B6 [0x4A] LocalPlayer looks at Reikuu (ID: 17970049/0x01123381)
462: 0x10BF [0x6F] WAIT_FRAME_DELAY: Yield until WaitTime reaches zero
463: 0x10C0 [0x76] CHECK_ENTITY_RENDER_FLAGS: Wait until LocalPlayer Render.Flags0 and Render.Flags3 conditions are met
464: 0x10C5 [0x5D] SET_MUSIC_VOLUME(volume=0*, fade_time=300*)
465: 0x10CA [0x1A] CALL_SUBROUTINE(address=0x0064)
466: 0x10CD [0x52] END_LOAD_SCHEDULER: End scheduler "s022" with entities [EventEntity, EventEntity], work=887*
467: 0x10DC [0x2A] GET_REQ_LEVEL(level=15, entity_id=Zhuu Buxu the Silent (ID: 17970052/0x01123384))
468: 0x10E2 [0x29] REQ_SET_WAIT(priority=0x0F, entity_id=Reikuu (ID: 17970049/0x01123381), tag_num=0x6B)
469: 0x10E9 [0x6C] FADE_ENTITY_COLOR(entity_id=Zhuu Buxu the Silent (ID: 17970052/0x01123384), end_alpha=128*, fade_time=1*)
470: 0x10F2 [0x5C] MUSIC_CONTROL: Set Idle (Day) music to song 79*
471: 0x10F6 [0x5C] MUSIC_CONTROL: Set Idle (Night) music to song 79*
472: 0x10FA [0x5C] MUSIC_CONTROL: Set Combat (Solo) music to song 79*
473: 0x10FE [0x5C] MUSIC_CONTROL: Set Combat (Party) music to song 79*
474: 0x1102 [0x9A] WAIT_MUSIC_SERVER()
475: 0x1103 [0x5D] SET_MUSIC_VOLUME(volume=127*, fade_time=1*)
476: 0x1108 [0xAB] EventEntity->DespawnValue = 0* // Set despawn value
477: 0x110C [0x1C] WAIT(1* ticks)
478: 0x110F [0x46] CAMERA_CONTROL: Restore default settings
479: 0x1111 [0x45] LOAD_SCHEDULED_TASK: Load scheduler "fdi2" with entities [EventEntity, EventEntity], work=[200*, 0*]
480: 0x1122 [0x21] END_EVENT
481: 0x1123 [0x00] END_REQSTACK()
```

### Event 50

#### Metadata

| Field        | Value      |
|--------------|------------|
| Entrypoint   | 0x1124     |
| Data Size    | 2985 bytes |
| Instructions | 378        |

```
      00 01 02 03 04 05 06 07  08 09 0A 0B 0C 0D 0E 0F
      -- -- -- -- -- -- -- --  -- -- -- -- -- -- -- --
1120:             42 5D 01 80  08 80 1A 64 00 46 01 38      B].....d.F.8
1130: 09 80 2F 00 82 33 12 01  2F 00 83 33 12 01 2F 00  ../..3../..3../.
1140: 84 33 12 01 4E 00 82 33  12 01 4E 00 83 33 12 01  .3..N..3..N..3..
1150: 4E 00 84 33 12 01 94 01  82 33 12 01 94 01 83 33  N..3.....3.....3
1160: 12 01 94 01 84 33 12 01  94 01 F0 FF FF 7F BA 82  .....3..........
1170: 33 12 01 4B 80 4C 80 4D  80 4E 80 BA 83 33 12 01  3..K.L.M.N...3..
1180: 4F 80 50 80 51 80 52 80  BA 84 33 12 01 53 80 54  O.P.Q.R...3..S.T
1190: 80 55 80 56 80 59 05 F0  FF FF 7F 01 BA F0 FF FF  .U.V.Y..........
11A0: 7F 57 80 58 80 59 80 5A  80 59 05 F0 FF FF 7F 01  .W.X.Y.Z.Y......
11B0: 4A F0 FF FF 7F 82 33 12  01 4A 84 33 12 01 83 33  J.....3..J.3...3
11C0: 12 01 4A 83 33 12 01 82  33 12 01 6F 76 F0 FF FF  ..J.3...3..ov...
11D0: 7F 6F 76 84 33 12 01 6F  76 83 33 12 01 80 82 33  .ov.3..ov.3....3
11E0: 12 01 80 83 33 12 01 80  84 33 12 01 80 F0 FF FF  ....3....3......
11F0: 7F 29 0F 84 33 12 01 6B  29 0F 83 33 12 01 6B 29  .)..3..k)..3..k)
1200: 0F 84 33 12 01 2A 29 0F  82 33 12 01 4C 29 0F 82  ..3..*)..3..L)..
1210: 33 12 01 4D 29 0F 84 33  12 01 2B 6C 84 33 12 01  3..M)..3..+l.3..
1220: 01 80 03 80 29 0F F0 FF  FF 7F 08 D9 00 45 17 80  ....)........E..
1230: F8 FF FF 7F F8 FF FF 7F  73 30 33 35 01 80 1A 43  ........s035...C
1240: 00 79 00 F0 FF FF 7F 83  33 12 01 1C 06 80 1C 06  .y......3.......
1250: 80 4A 83 33 12 01 F0 FF  FF 7F 52 17 80 F8 FF FF  .J.3......R.....
1260: 7F F8 FF FF 7F 73 30 33  35 45 17 80 F8 FF FF 7F  .....s035E......
1270: F8 FF FF 7F 73 30 33 36  01 80 6F 76 83 33 12 01  ....s036..ov.3..
1280: 29 0F 83 33 12 01 32 1C  42 80 52 17 80 F8 FF FF  )..3..2.B.R.....
1290: 7F F8 FF FF 7F 73 30 33  36 45 17 80 F8 FF FF 7F  .....s036E......
12A0: F8 FF FF 7F 73 30 33 37  01 80 29 0F 83 33 12 01  ....s037..)..3..
12B0: 33 27 0F 83 33 12 01 80  1C 06 80 52 17 80 F8 FF  3'..3......R....
12C0: FF 7F F8 FF FF 7F 73 30  33 37 45 17 80 F8 FF FF  ......s037E.....
12D0: 7F F8 FF FF 7F 73 30 33  38 01 80 5C 00 3D 80 5C  .....s038..\.=.\
12E0: 01 3D 80 9A 5D 20 80 03  80 1C 42 80 52 17 80 F8  .=..] ....B.R...
12F0: FF FF 7F F8 FF FF 7F 73  30 33 38 02 09 10 16 80  .......s038.....
1300: 00 17 13 45 17 80 F8 FF  FF 7F F8 FF FF 7F 73 30  ...E..........s0
1310: 36 32 01 80 01 44 13 02  09 10 18 80 00 33 13 45  62...D.......3.E
1320: 17 80 F8 FF FF 7F F8 FF  FF 7F 73 30 36 32 01 80  ..........s062..
1330: 01 44 13 45 17 80 F8 FF  FF 7F F8 FF FF 7F 73 30  .D.E..........s0
1340: 33 39 01 80 4A F0 FF FF  7F 83 33 12 01 6F 76 F0  39..J.....3..ov.
1350: FF FF 7F 2B 83 33 12 01  5B 80 2A 0F 83 33 12 01  ...+.3..[.*..3..
1360: 4A 83 33 12 01 F0 FF FF  7F 6F 76 83 33 12 01 23  J.3......ov.3..#
1370: 02 09 10 16 80 00 8A 13  52 17 80 F8 FF FF 7F F8  ........R.......
1380: FF FF 7F 73 30 36 32 01  B3 13 02 09 10 18 80 00  ...s062.........
1390: A4 13 52 17 80 F8 FF FF  7F F8 FF FF 7F 73 30 36  ..R..........s06
13A0: 32 01 B3 13 52 17 80 F8  FF FF 7F F8 FF FF 7F 73  2...R..........s
13B0: 30 33 39 45 17 80 F8 FF  FF 7F F8 FF FF 7F 73 30  039E..........s0
13C0: 34 30 01 80 29 0F 83 33  12 01 12 45 17 80 F8 FF  40..)..3...E....
13D0: FF 7F F8 FF FF 7F 34 30  30 35 01 80 2B 83 33 12  ......4005..+.3.
13E0: 01 5C 80 23 2B 83 33 12  01 5D 80 23 29 0F 83 33  .\.#+.3..].#)..3
13F0: 12 01 13 52 17 80 F8 FF  FF 7F F8 FF FF 7F 73 30  ...R..........s0
1400: 34 30 45 17 80 F8 FF FF  7F F8 FF FF 7F 73 30 34  40E..........s04
1410: 31 01 80 29 0F 83 33 12  01 14 45 17 80 F8 FF FF  1..)..3...E.....
1420: 7F F8 FF FF 7F 34 30 31  35 01 80 2B 83 33 12 01  .....4015..+.3..
1430: 5E 80 23 29 0F 83 33 12  01 15 29 0F 83 33 12 01  ^.#)..3...)..3..
1440: 02 45 17 80 F8 FF FF 7F  F8 FF FF 7F 34 30 30 36  .E..........4006
1450: 01 80 2B 83 33 12 01 5F  80 23 52 17 80 F8 FF FF  ..+.3.._.#R.....
1460: 7F F8 FF FF 7F 73 30 34  31 45 17 80 F8 FF FF 7F  .....s041E......
1470: F8 FF FF 7F 73 30 34 32  01 80 2B 83 33 12 01 60  ....s042..+.3..`
1480: 80 23 29 0F 83 33 12 01  03 29 0F 83 33 12 01 04  .#)..3...)..3...
1490: 29 0F 83 33 12 01 05 52  17 80 F8 FF FF 7F F8 FF  )..3...R........
14A0: FF 7F 73 30 34 32 45 17  80 F8 FF FF 7F F8 FF FF  ..s042E.........
14B0: 7F 73 30 33 37 01 80 4A  83 33 12 01 82 33 12 01  .s037..J.3...3..
14C0: 6F 76 83 33 12 01 79 00  F0 FF FF 7F 82 33 12 01  ov.3..y......3..
14D0: 2B 83 33 12 01 61 80 23  52 17 80 F8 FF FF 7F F8  +.3..a.#R.......
14E0: FF FF 7F 73 30 33 37 45  17 80 F8 FF FF 7F F8 FF  ...s037E........
14F0: FF 7F 73 30 34 33 01 80  4A 83 33 12 01 F0 FF FF  ..s043..J.3.....
1500: 7F 6F 76 83 33 12 01 79  00 F0 FF FF 7F 83 33 12  .ov.3..y......3.
1510: 01 45 17 80 F8 FF FF 7F  F8 FF FF 7F 34 30 30 37  .E..........4007
1520: 01 80 2B 83 33 12 01 62  80 23 29 0F 82 33 12 01  ..+.3..b.#)..3..
1530: 4E 1C 3C 80 52 17 80 F8  FF FF 7F F8 FF FF 7F 73  N.<.R..........s
1540: 30 34 33 45 17 80 F8 FF  FF 7F F8 FF FF 7F 73 30  043E..........s0
1550: 34 38 01 80 1C 42 80 1C  42 80 6C 84 33 12 01 34  48...B..B.l.3..4
1560: 80 03 80 1C 32 80 45 17  80 F8 FF FF 7F F8 FF FF  ....2.E.........
1570: 7F 38 32 33 34 01 80 1C  06 80 52 17 80 F8 FF FF  .8234.....R.....
1580: 7F F8 FF FF 7F 73 30 34  38 45 17 80 F8 FF FF 7F  .....s048E......
1590: F8 FF FF 7F 73 30 34 34  01 80 6B 69 64 6C 30 82  ....s044..kidl0.
15A0: 33 12 01 1C 03 80 BA 82  33 12 01 63 80 64 80 65  3.......3..c.d.e
15B0: 80 66 80 27 0F 82 33 12  01 8E 2B 82 33 12 01 67  .f.'..3...+.3..g
15C0: 80 1C 3C 80 79 00 F0 FF  FF 7F 82 33 12 01 4A 83  ..<.y......3..J.
15D0: 33 12 01 82 33 12 01 6F  76 83 33 12 01 23 2A 0F  3...3..ov.3..#*.
15E0: 82 33 12 01 52 17 80 F8  FF FF 7F F8 FF FF 7F 73  .3..R..........s
15F0: 30 34 34 45 17 80 F8 FF  FF 7F F8 FF FF 7F 73 30  044E..........s0
1600: 34 35 01 80 1C 42 80 29  0F 83 33 12 01 4A 45 17  45...B.)..3..JE.
1610: 80 F8 FF FF 7F F8 FF FF  7F 34 30 30 37 01 80 2B  .........4007..+
1620: 83 33 12 01 68 80 23 29  0F 83 33 12 01 4B 29 0F  .3..h.#)..3..K).
1630: 84 33 12 01 2C 52 17 80  F8 FF FF 7F F8 FF FF 7F  .3..,R..........
1640: 73 30 34 35 45 17 80 F8  FF FF 7F F8 FF FF 7F 73  s045E..........s
1650: 30 35 39 01 80 5D 01 80  03 80 2B 84 33 12 01 69  059..]....+.3..i
1660: 80 23 45 17 80 F8 FF FF  7F F8 FF FF 7F 34 30 31  .#E..........401
1670: 36 01 80 1C 23 80 29 0F  84 33 12 01 2D 27 0F 84  6...#.)..3..-'..
1680: 33 12 01 7A 1C 23 80 52  17 80 F8 FF FF 7F F8 FF  3..z.#.R........
1690: FF 7F 73 30 35 39 45 17  80 F8 FF FF 7F F8 FF FF  ..s059E.........
16A0: 7F 73 30 34 36 01 80 45  17 80 F8 FF FF 7F F8 FF  .s046..E........
16B0: FF 7F 38 31 36 30 01 80  1C 42 80 BA 82 33 12 01  ..8160...B...3..
16C0: 6A 80 6B 80 6C 80 6D 80  1C 3C 80 52 17 80 F8 FF  j.k.l.m..<.R....
16D0: FF 7F F8 FF FF 7F 73 30  34 36 45 17 80 F8 FF FF  ......s046E.....
16E0: 7F F8 FF FF 7F 73 30 34  37 01 80 4A 83 33 12 01  .....s047..J.3..
16F0: 84 33 12 01 5C 00 6E 80  5C 01 6E 80 9A 5D 20 80  .3..\.n.\.n..] .
1700: 03 80 6F 76 83 33 12 01  4B F0 FF FF 7F 6F 80 6F  ..ov.3..K....o.o
1710: 76 F0 FF FF 7F 79 00 F0  FF FF 7F 84 33 12 01 27  v....y......3..'
1720: 0F 83 33 12 01 81 1C 3C  80 27 0F 82 33 12 01 8F  ..3....<.'..3...
1730: 1C 3C 80 52 17 80 F8 FF  FF 7F F8 FF FF 7F 73 30  .<.R..........s0
1740: 34 37 45 17 80 F8 FF FF  7F F8 FF FF 7F 73 30 34  47E..........s04
1750: 39 01 80 2B 82 33 12 01  70 80 1C 32 80 2A 0F 84  9..+.3..p..2.*..
1760: 33 12 01 52 17 80 F8 FF  FF 7F F8 FF FF 7F 73 30  3..R..........s0
1770: 34 39 45 17 80 F8 FF FF  7F F8 FF FF 7F 73 30 35  49E..........s05
1780: 37 01 80 23 2A 0F 82 33  12 01 2A 0F 83 33 12 01  7..#*..3..*..3..
1790: 52 17 80 F8 FF FF 7F F8  FF FF 7F 73 30 35 37 45  R..........s057E
17A0: 17 80 F8 FF FF 7F F8 FF  FF 7F 73 30 35 30 01 80  ..........s050..
17B0: 27 0F 84 33 12 01 7B 4A  82 33 12 01 84 33 12 01  '..3..{J.3...3..
17C0: 2B 84 33 12 01 71 80 45  17 80 F8 FF FF 7F F8 FF  +.3..q.E........
17D0: FF 7F 34 30 30 32 01 80  1C 06 80 4B F0 FF FF 7F  ..4002.....K....
17E0: 00 80 6F 76 F0 FF FF 7F  23 6F 76 82 33 12 01 29  ..ov....#ov.3..)
17F0: 0F 82 33 12 01 16 2B 82  33 12 01 72 80 23 29 0F  ..3...+.3..r.#).
1800: 82 33 12 01 17 2A 0F 84  33 12 01 52 17 80 F8 FF  .3...*..3..R....
1810: FF 7F F8 FF FF 7F 73 30  35 30 45 17 80 F8 FF FF  ......s050E.....
1820: 7F F8 FF FF 7F 73 30 35  31 01 80 29 0F 82 33 12  .....s051..)..3.
1830: 01 18 4A 84 33 12 01 83  33 12 01 6F 76 84 33 12  ..J.3...3..ov.3.
1840: 01 4A 83 33 12 01 84 33  12 01 29 0F 84 33 12 01  .J.3...3..)..3..
1850: 26 2B 84 33 12 01 73 80  23 29 0F 84 33 12 01 27  &+.3..s.#)..3..'
1860: 6F 76 F0 FF FF 7F 52 17  80 F8 FF FF 7F F8 FF FF  ov....R.........
1870: 7F 73 30 35 31 45 17 80  F8 FF FF 7F F8 FF FF 7F  .s051E..........
1880: 73 30 35 32 01 80 29 0F  82 33 12 01 19 29 0F 83  s052..)..3...)..
1890: 33 12 01 4A 45 17 80 F8  FF FF 7F F8 FF FF 7F 34  3..JE..........4
18A0: 30 31 31 01 80 2B 83 33  12 01 74 80 23 29 0F 84  011..+.3..t.#)..
18B0: 33 12 01 20 2B 84 33 12  01 75 80 23 29 0F 84 33  3.. +.3..u.#)..3
18C0: 12 01 21 52 17 80 F8 FF  FF 7F F8 FF FF 7F 73 30  ..!R..........s0
18D0: 35 32 45 17 80 F8 FF FF  7F F8 FF FF 7F 73 30 35  52E..........s05
18E0: 33 01 80 29 0F 83 33 12  01 4B 29 0F 84 33 12 01  3..)..3..K)..3..
18F0: 22 29 0F 83 33 12 01 12  45 17 80 F8 FF FF 7F F8  ")..3...E.......
1900: FF FF 7F 34 30 30 37 01  80 2B 83 33 12 01 76 80  ...4007..+.3..v.
1910: 1C 06 80 79 00 82 33 12  01 83 33 12 01 23 29 0F  ...y..3...3..#).
1920: 83 33 12 01 13 29 0F 84  33 12 01 23 52 17 80 F8  .3...)..3..#R...
1930: FF FF 7F F8 FF FF 7F 73  30 35 33 45 17 80 F8 FF  .......s053E....
1940: FF 7F F8 FF FF 7F 73 30  35 38 01 80 45 17 80 F8  ......s058..E...
1950: FF FF 7F F8 FF FF 7F 38  31 36 30 01 80 29 0F 83  .......8160..)..
1960: 33 12 01 14 29 0F 83 33  12 01 15 29 0F 83 33 12  3...)..3...)..3.
1970: 01 6A 2B 83 33 12 01 77  80 23 1C 06 80 29 0F 84  .j+.3..w.#...)..
1980: 33 12 01 20 1C 42 80 52  17 80 F8 FF FF 7F F8 FF  3.. .B.R........
1990: FF 7F 73 30 35 33 45 17  80 F8 FF FF 7F F8 FF FF  ..s053E.........
19A0: 7F 62 6C 6F 66 01 80 45  17 80 F8 FF FF 7F F8 FF  .blof..E........
19B0: FF 7F 73 30 35 34 01 80  4B F0 FF FF 7F 78 80 29  ..s054..K....x.)
19C0: 0F 84 33 12 01 2E 45 17  80 F8 FF FF 7F F8 FF FF  ..3...E.........
19D0: 7F 34 30 31 36 01 80 2B  84 33 12 01 79 80 23 29  .4016..+.3..y.#)
19E0: 0F 84 33 12 01 2F 6F 76  F0 FF FF 7F 52 17 80 F8  ..3../ov....R...
19F0: FF FF 7F F8 FF FF 7F 73  30 35 34 02 09 10 16 80  .......s054.....
1A00: 00 17 1A 45 17 80 F8 FF  FF 7F F8 FF FF 7F 73 30  ...E..........s0
1A10: 36 33 01 80 01 44 1A 02  09 10 18 80 00 33 1A 45  63...D.......3.E
1A20: 17 80 F8 FF FF 7F F8 FF  FF 7F 73 30 36 33 01 80  ..........s063..
1A30: 01 44 1A 45 17 80 F8 FF  FF 7F F8 FF FF 7F 73 30  .D.E..........s0
1A40: 35 36 01 80 79 00 F0 FF  FF 7F 83 33 12 01 29 0F  56..y......3..).
1A50: 84 33 12 01 30 45 7A 80  F8 FF FF 7F F8 FF FF 7F  .3..0Ez.........
1A60: 34 30 30 35 01 80 2B 83  33 12 01 7B 80 23 29 0F  4005..+.3..{.#).
1A70: 84 33 12 01 31 4A 84 33  12 01 F0 FF FF 7F 02 09  .3..1J.3........
1A80: 10 16 80 00 98 1A 52 17  80 F8 FF FF 7F F8 FF FF  ......R.........
1A90: 7F 73 30 36 33 01 C1 1A  02 09 10 18 80 00 B2 1A  .s063...........
1AA0: 52 17 80 F8 FF FF 7F F8  FF FF 7F 73 30 36 33 01  R..........s063.
1AB0: C1 1A 52 17 80 F8 FF FF  7F F8 FF FF 7F 73 30 35  ..R..........s05
1AC0: 36 02 09 10 2E 80 00 DD  1A 45 17 80 F8 FF FF 7F  6........E......
1AD0: F8 FF FF 7F 73 30 35 35  01 80 01 42 1B 02 09 10  ....s055...B....
1AE0: 16 80 00 F9 1A 45 17 80  F8 FF FF 7F F8 FF FF 7F  .....E..........
1AF0: 73 30 36 34 01 80 01 42  1B 02 09 10 18 80 00 15  s064...B........
1B00: 1B 45 17 80 F8 FF FF 7F  F8 FF FF 7F 73 30 36 34  .E..........s064
1B10: 01 80 01 42 1B 02 09 10  2F 80 00 31 1B 45 17 80  ...B..../..1.E..
1B20: F8 FF FF 7F F8 FF FF 7F  73 30 35 35 01 80 01 42  ........s055...B
1B30: 1B 45 17 80 F8 FF FF 7F  F8 FF FF 7F 73 30 36 35  .E..........s065
1B40: 01 80 6F 76 84 33 12 01  79 00 F0 FF FF 7F 84 33  ..ov.3..y......3
1B50: 12 01 29 0F 84 33 12 01  20 45 17 80 F8 FF FF 7F  ..)..3.. E......
1B60: F8 FF FF 7F 34 30 30 39  01 80 2B 84 33 12 01 7C  ....4009..+.3..|
