# 17970069

## Common Data

| Field            | Value                |
|------------------|----------------------|
| Zone             | Reisenjima (ID: 291) |
| Block Size       | 96 bytes             |
| Total Events     | 3                    |
| References Count | 6                    |

## List of Events

| Event ID                 | Entrypoint   |   Size |   Instructions |
|--------------------------|--------------|--------|----------------|
| [65535](#event-65535)    | 0x0000       |      1 |              1 |
| [52](#event-52)          | 0x0001       |      1 |              1 |
| [65535.1](#event-655351) | 0x0002       |     40 |              8 |

## DAT References (imed_data)

|   Index | Hex Value   |   Dec Value |
|---------|-------------|-------------|
|       0 | 0xFFF448C8  |  4294199496 |
|       1 | 0xFFF404D0  |  4294182096 |
|       2 | 0xFFF88F50  |  4294479696 |
|       3 | 0x0132      |         306 |
|       4 | 0x0400      |        1024 |
|       5 | 0x0001      |           1 |

## Events

### Event 65535

#### Metadata

| Field        | Value   |
|--------------|---------|
| Entrypoint   | 0x0000  |
| Data Size    | 1 bytes |
| Instructions | 1       |

```
      00 01 02 03 04 05 06 07  08 09 0A 0B 0C 0D 0E 0F
      -- -- -- -- -- -- -- --  -- -- -- -- -- -- -- --
0000: 00                                                .               
```

#### Opcodes

```
  0: 0x0000 [0x00] END_REQSTACK()
```

### Event 52

#### Metadata

| Field        | Value   |
|--------------|---------|
| Entrypoint   | 0x0001  |
| Data Size    | 1 bytes |
| Instructions | 1       |

```
      00 01 02 03 04 05 06 07  08 09 0A 0B 0C 0D 0E 0F
      -- -- -- -- -- -- -- --  -- -- -- -- -- -- -- --
0000:    00                                              .              
```

#### Opcodes

```
  0: 0x0001 [0x00] END_REQSTACK()
```

### Event 65535.1

#### Metadata

| Field        | Value    |
|--------------|----------|
| Entrypoint   | 0x0002   |
| Data Size    | 40 bytes |
| Instructions | 8        |

```
      00 01 02 03 04 05 06 07  08 09 0A 0B 0C 0D 0E 0F
      -- -- -- -- -- -- -- --  -- -- -- -- -- -- -- --
0000:       33 01 37 00 80 01  80 02 80 03 80 33 01 D8    3.7........3..
0010: 01 95 33 12 01 04 80 D8  03 95 33 12 01 05 80 D8  ..3.......3.....
0020: 02 95 33 12 01 05 80 22  00 00                    ..3...."..      
```

#### Opcodes

```
  0: 0x0002 [0x33] EventEntity->Render.Flags0 |= 0x200000 // Bit 21 (flag=0x01)
  1: 0x0004 [0x37] UPDATE_EVENT_POSITION_AND_DIR: x=-767.800*, z=-785.200*, y=-487.600*, direction=26.9°*
  2: 0x000D [0x33] EventEntity->Render.Flags0 |= 0x200000 // Bit 21 (flag=0x01)
  3: 0x000F [0xD8] SET_ENTITY_EVENT_DIR: Set Unnamed NPC (ID: 17970069/0x01123395) EventDir[0] = 1024*
  4: 0x0017 [0xD8] SET_ENTITY_EVENT_DIR: Set Unnamed NPC (ID: 17970069/0x01123395) EventDir[2] = 1*
  5: 0x001F [0xD8] SET_ENTITY_EVENT_DIR: Set Unnamed NPC (ID: 17970069/0x01123395) EventDir[1] = 1*
  6: 0x0027 [0x22] ENTITY_HIDE_FLAG(enabled=0x00)
  7: 0x0029 [0x00] END_REQSTACK()
```
