# 17970038 - Temprix

## Common Data

| Field            | Value                |
|------------------|----------------------|
| Zone             | Reisenjima (ID: 291) |
| Block Size       | 5056 bytes           |
| Total Events     | 2                    |
| References Count | 116                  |

## List of Events

| Event ID              | Entrypoint   |   Size |   Instructions |
|-----------------------|--------------|--------|----------------|
| [65535](#event-65535) | 0x0000       |      1 |              1 |
| [15](#event-15)       | 0x0001       |   4567 |            746 |

## DAT References (imed_data)

|   Index | Hex Value   |   Dec Value |
|---------|-------------|-------------|
|       0 | 0x0000      |           0 |
|       1 | 0x00D7      |         215 |
|       2 | 0x1ED7      |        7895 |
|       3 | 0x0002      |           2 |
|       4 | 0x0001      |           1 |
|       5 | 0x0003      |           3 |
|       6 | 0x0004      |           4 |
|       7 | 0x00D8      |         216 |
|       8 | 0x1ED8      |        7896 |
|       9 | 0x1ED9      |        7897 |
|      10 | 0x1EDA      |        7898 |
|      11 | 0x1EDB      |        7899 |
|      12 | 0x1EDC      |        7900 |
|      13 | 0x1EDD      |        7901 |
|      14 | 0x1EDE      |        7902 |
|      15 | 0x1EDF      |        7903 |
|      16 | 0x000A      |          10 |
|      17 | 0x1EE0      |        7904 |
|      18 | 0x1EE1      |        7905 |
|      19 | 0x1EE4      |        7908 |
|      20 | 0x1EE5      |        7909 |
|      21 | 0x1EE6      |        7910 |
|      22 | 0x0078      |         120 |
|      23 | 0x1EE7      |        7911 |
|      24 | 0x0005      |           5 |
|      25 | 0x1EE3      |        7907 |
|      26 | 0x1EE2      |        7906 |
|      27 | 0x0064      |         100 |
|      28 | 0x1EE8      |        7912 |
|      29 | 0x1EE9      |        7913 |
|      30 | 0x1EEA      |        7914 |
|      31 | 0x03E8      |        1000 |
|      32 | 0x1EEB      |        7915 |
|      33 | 0x1EEC      |        7916 |
|      34 | 0x1EED      |        7917 |
|      35 | 0x1EEE      |        7918 |
|      36 | 0x1EEF      |        7919 |
|      37 | 0xC350      |       50000 |
|      38 | 0x1EF0      |        7920 |
|      39 | 0x0BDB      |        3035 |
|      40 | 0x0BDC      |        3036 |
|      41 | 0x0BDD      |        3037 |
|      42 | 0x0BDE      |        3038 |
|      43 | 0x0BDF      |        3039 |
|      44 | 0x0BE0      |        3040 |
|      45 | 0x0BE1      |        3041 |
|      46 | 0x0BE2      |        3042 |
|      47 | 0x0BE3      |        3043 |
|      48 | 0x0BE4      |        3044 |
|      49 | 0x0BE5      |        3045 |
|      50 | 0x0BE6      |        3046 |
|      51 | 0x0BE7      |        3047 |
|      52 | 0x0BE8      |        3048 |
|      53 | 0x0BE9      |        3049 |
|      54 | 0x0BEA      |        3050 |
|      55 | 0x1EF1      |        7921 |
|      56 | 0x0010      |          16 |
|      57 | 0x1EF2      |        7922 |
|      58 | 0x1EF3      |        7923 |
|      59 | 0x0006      |           6 |
|      60 | 0x0011      |          17 |
|      61 | 0x1EF4      |        7924 |
|      62 | 0x1EF5      |        7925 |
|      63 | 0x1EF6      |        7926 |
|      64 | 0x1EF7      |        7927 |
|      65 | 0x1EF9      |        7929 |
|      66 | 0x1F11      |        7953 |
|      67 | 0x1EF8      |        7928 |
|      68 | 0x1FFFFFF   |    33554431 |
|      69 | 0x1EFA      |        7930 |
|      70 | 0x1EFB      |        7931 |
|      71 | 0x1EFC      |        7932 |
|      72 | 0xFFFFFFFF  |  4294967295 |
|      73 | 0x1EFD      |        7933 |
|      74 | 0x1EFE      |        7934 |
|      75 | 0x0007      |           7 |
|      76 | 0xFFFFFFF   |   268435455 |
|      77 | 0x1F0A      |        7946 |
|      78 | 0x1F0B      |        7947 |
|      79 | 0x1F0C      |        7948 |
|      80 | 0x0008      |           8 |
|      81 | 0x0009      |           9 |
|      82 | 0x1F0D      |        7949 |
|      83 | 0x1F0E      |        7950 |
|      84 | 0x1F0F      |        7951 |
|      85 | 0x00C9      |         201 |
|      86 | 0x000B      |          11 |
|      87 | 0x1EFF      |        7935 |
|      88 | 0x1F00      |        7936 |
|      89 | 0x1F06      |        7942 |
|      90 | 0x000C      |          12 |
|      91 | 0x000D      |          13 |
|      92 | 0x000E      |          14 |
|      93 | 0x000F      |          15 |
|      94 | 0x0012      |          18 |
|      95 | 0x0013      |          19 |
|      96 | 0x0014      |          20 |
|      97 | 0x0015      |          21 |
|      98 | 0x0016      |          22 |
|      99 | 0x0017      |          23 |
|     100 | 0x0018      |          24 |
|     101 | 0x1F07      |        7943 |
|     102 | 0x0019      |          25 |
|     103 | 0x001A      |          26 |
|     104 | 0x001B      |          27 |
|     105 | 0x001C      |          28 |
|     106 | 0x001D      |          29 |
|     107 | 0x001E      |          30 |
|     108 | 0x001F      |          31 |
|     109 | 0x1F08      |        7944 |
|     110 | 0x1F09      |        7945 |
|     111 | 0x1F01      |        7937 |
|     112 | 0x1F02      |        7938 |
|     113 | 0x1F03      |        7939 |
|     114 | 0x1F04      |        7940 |
|     115 | 0x1F05      |        7941 |

## String References

- **7895**: One, two, three, four... Many many prettystones...
- **7896**: Why is [man/lady]-person here? How get to Temprix hideyspot?
- **7897**: How did you get here? [Tell her./Don't tell her.]
- **7898**: Wait. Temprix no give two buffalo poops. You here. Temprix here. No care how.
- **7899**: [Man/Lady]-person have hiddenthings? Temprix have hiddenthings too. No need to share hiddenthings.
- **7900**: What matter is you have prettystones! Many prettystones!
- **7901**: What they call again? Oh! Escha beads. Temprix know [man/lady]-person go to Escha and get many prettystones.
- **7902**: Temprix give Escha knownthings. You give prettystones. Is good deal.
- **7903**: Now what? [Get as far away as possible./Give me "knownthings."/Tell me more./Tell me even more./Just who are you?]
- **7904**: Temprix tell knownthings. You give $0 prettystone[/s]. Yes?
- **7905**: What say you? ($0 bead[/s]) [Give prettystones./Don't give prettystones.]
- **7906**: No prettystones, no knownthings. Is way of world.
- **7907**: Not enough prettystones, no knownthings. Is way of world.
- **7908**: Big black swirly and boom! Escha. Much strange come out. Man-people take faststeps. Temprix want know more.
- **7909**: Temprix go to Escha. Get many knownthings. And find shiny too.
- **7910**: Temprix shows you an intricate blade.
- **7911**: You want? Too bad. Not enough prettystones or jingly in all world.
- **7912**: You want see collection?
- **7913**: Hmm... Temprix get many shinythings. You nice [man/lady]-person. Temprix have big heartthing.
- **7914**: Temprix collection have many stabbythings and bashythings. Look like normal stabbythings and bashythings, but are special. Man-people no can use.
- **7915**: [Man/Lady]-person want learn many knownthings. Temprix give up. You make ears big.
- **7916**: Man-people no can use collection. But Temprix have smartthink.
- **7917**: Temprix give weapon new body, then [man/lady]-person can handhold. Temprix gobbie of many talent.
- **7918**: But no can do alone. [Man/Lady]-person must help. Is good deal.
- **7919**: Me? You have hiddenthings. Temprix have hiddenthings. Hoo hoo hoo hoo!
- **7920**: Temprix make collection like new for $0 prettystone[/s]. Which want?
- **7921**: Which one? ($0 escha bead[/s]) [$3./$3./$3./$3./$3./$3./$3./$3./$3./$3./$3./$3./$3./$3./$3./$3./Nothing for now.]
- **7922**: You no give prettystones? Then Temprix no give stabbythings. Is way of world.
- **7923**: You want $3? [Yes, please./No, thank you.]
- **7924**: [Man/Lady]-person have many prettystones to give. Temprix heart go bouncy-bounce. Take stabbything or smashything. Temprix not know which do which. But now is truestart.
- **7925**: Take to Escha - Zi'Tah and stabbysmash all bad strongthings.
- **7926**: Is simple, no?
- **7927**: Do you understand? [Of course./I need more information.]
- **7928**: Why no understand? Remake smashythings and stabbythings need power. Get power from making stabbysmash on strongthings. Okay?
- **7929**: So go Escha - Zi'Tah. Find many strongthings. Kill all. Temprix keep bignote of which strongthings dead.
- **7930**: [Man/Lady]-person is much gooder than Temprix thought. But need more to make weapon.
- **7931**: Take to Escha - Ru'Aun and smashystab more strongthings. All strongthings.
- **7932**: No need more tongueflaps. Is simple.
- **7933**: Oooh! Stabbysmashything now goes lightflash! Is very good. Only little more to go.
- **7934**: Many strongthings here on island. You know what do--stabbysmash all strongthings! Temprix know [man/lady]-person can do!
- **7935**: Hm? [Man/Lady]-person is no done!
- **7936**: Anything to say? [Show me what I've killed./Give up entirely./Leave.]
- **7937**: [Man/Lady]-person no want strong stabbything? Temprix no stop you, but no give back prettystones. Is bad deal.
- **7938**: Really abandon everything? [Yes. I'm sick of this./No. I just need more time.]
- **7939**: Is what [man/lady]-person really want? What really really want?
- **7940**: Are you absolutely sure? [One hundred percent./Maybe not...]
- **7941**: Is [man/lady]-person choice. Not Temprix. Temprix take back collection.
- **7942**: Temprix give list of stabbysmashed strongthings!
- **7943**: Escha - Zi'Tah targets: [Wepwawet.[/y$26z]/Lustful Lydia.[/y$26z]/Aglaophotis.[/y$26z]/Tangata Manu.[/y$26z]/Vidala.[/y$26z]/Gestalt.[/y$26z]/Angrboda.[/y$26z]/Cunnast.[/y$26z]/Revetaur.[/y$26z]/Ferrodon.[/y$26z]/Gulltop.[/y$26z]/Vyala.[/y$26z]/Blazewing.[/y$26z]/Bucca/Puca/Alpluachra.[/y$26z]/Pazuzu.[/y$26z]/Wrathare.[/y$26z]/Ionos.[/y$26z]/Sensual Sandy.[/y$26z]/Nosoi.[/y$26z]/Brittlis.[/y$26z]/Kamohoalii.[/y$26z]/Umdhlebi.[/y$26z]/Fleetstalker.[/y$26z]/Shockmaw.[/y$26z]/Urmahlullu.[/y$26z]]
- **7944**: Escha - Ru'Aun targets: [Bia.[/y$26z]/Ruea.[/y$26$77659y$26z]/Khon.[/y$26z]/Met.[/y$26z]/Khun.[/y$26z]/Wasserspeier.[/y$26z]/Emputa.[/y$26z]/Peirithoos.[/y$26z]/Asida.[/y$26z]/Tenodera.[/y$26z]/Sava Savanovic.[/y$26z]/Palila.[/y$26z]/Hanbi.[/y$26z]/Yilan.[/y$26z]/Amymone.[/y$26z]/Naphula.[/y$26z]/Kammavaca.[/y$26z]/Pakecet.[/y$26z]/Duke Vepar.[/y$26z]/Vir'ava.[/y$26z]/Byakko.[/y$26z]/Genbu.[/y$26z]/Seiryu.[/y$26z]/Suzaku.[/y$26z]/Kirin.[/y$26z]/Ark Angel HM.[/y$26z]/Ark Angel TT.[/y$26z]/Ark Angel MR.[/y$26z]/Ark Angel EV.[/y$26z]/Ark Angel GK.[/y$26z]/Warder of Courage.[/y$26z]]
- **7945**: Reisenjima targets: [Crom Dubh.[/y$26z]/Golden Kist.[/y$26z]/Mauve-wristed Gomberry.[/y$26z]/Dazzling Dolores.[/y$26z]/Taelmoth the Diremaw.[/y$26z]/Belphegor.[/y$26z]/Kabandha.[/y$26z]/Selkit.[/y$26z]/Sang Buaya.[/y$26z]/Sabotender Royal.[/y$26z]/Zduhac.[/y$26z]/Oryx.[/y$26z]/Strophadia.[/y$26z]/Gajasimha.[/y$26z]/Ironside.[/y$26z]/Sarsaok.[/y$26z]/Old Shuck.[/y$26z]/Bashmu.[/y$26z]/Maju.[/y$26z]/Yakshi.[/y$26z]/Neak.[/y$26z]/Teles.[/y$26z]/Zerde.[/y$26z]/Vinipata.[/y$26z]/Schah.[/y$26z]/Albumen.[/y$26z]/Onychophora.[/y$26z]/Erinys.[/y$26z]]
- **7946**: Temprix not think [man/lady]-person can do, but Temprix is joyjumping!
- **7947**: Last step is bring materials for remake. Very special materials.
- **7948**: Forbidden fragments and goads. Temprix do need. Temprix wait for [man/lady]-person to bring.
- **7949**: Temprix wait with sweatypalms. But remake preparetime is ready. Temprix do rest. [Man/Lady]-person wait.
- **7950**: Stand there and foottap is no good! Temprix must do hardthink.
- **7951**: Is ready! Fresh new [stabbysmashthing/boardthing/soundthing] for [man/lady]-person!
- **7953**: Be safehandling. Is not safe yet.

## Events

### Event 65535

#### Metadata

| Field        | Value   |
|--------------|---------|
| Entrypoint   | 0x0000  |
| Data Size    | 1 bytes |
| Instructions | 1       |

```
      00 01 02 03 04 05 06 07  08 09 0A 0B 0C 0D 0E 0F
      -- -- -- -- -- -- -- --  -- -- -- -- -- -- -- --
0000: 00                                                .               
```

#### Opcodes

```
  0: 0x0000 [0x00] END_REQSTACK()
```

### Event 15

#### Metadata

| Field        | Value      |
|--------------|------------|
| Entrypoint   | 0x0001     |
| Data Size    | 4567 bytes |
| Instructions | 745        |

```
      00 01 02 03 04 05 06 07  08 09 0A 0B 0C 0D 0E 0F
      -- -- -- -- -- -- -- --  -- -- -- -- -- -- -- --
0000:    42 03 00 00 00 80 03  02 00 02 10 03 04 00 03   B..............
0010: 10 03 05 00 04 10 03 06  00 05 10 03 07 00 06 10  ................
0020: 03 08 00 07 10 03 03 00  08 10 03 01 00 09 10 02  ................
0030: 02 00 00 80 00 69 00 02  07 00 00 80 00 69 00 5B  .....i.......i.[
0040: 01 80 F8 FF FF 7F F8 FF  FF 7F 74 6C 6B 30 1D 02  ..........tlk0..
0050: 80 23 5B 01 80 F8 FF FF  7F F8 FF FF 7F 74 6C 6B  .#[..........tlk
0060: 65 03 01 10 00 80 2E 21  00 02 02 00 00 80 80 89  e......!........
0070: 00 3C 00 00 03 80 04 80  3C 00 00 05 80 04 80 3C  .<......<......<
0080: 00 00 06 80 04 80 01 B4  00 02 02 00 04 80 80 A2  ................
0090: 00 3C 00 00 05 80 04 80  3C 00 00 06 80 04 80 01  .<......<.......
00A0: B4 00 02 02 00 03 80 80  B4 00 3C 00 00 06 80 04  ..........<.....
00B0: 80 01 B4 00 1E F0 FF FF  7F 1C 04 80 02 02 00 00  ................
00C0: 80 00 7D 01 5B 07 80 F8  FF FF 7F F8 FF FF 7F 66  ..}.[..........f
00D0: 75 6D 30 1D 08 80 23 24  09 80 00 80 00 80 25 02  um0...#$......%.
00E0: 00 10 00 80 00 1B 01 5B  07 80 F8 FF FF 7F F8 FF  .......[........
00F0: FF 7F 66 75 6D 31 5B 01  80 F8 FF FF 7F F8 FF FF  ..fum1[.........
0100: 7F 74 6C 6B 30 1D 0A 80  23 5B 01 80 F8 FF FF 7F  .tlk0...#[......
0110: F8 FF FF 7F 74 6C 6B 65  01 57 01 02 00 10 04 80  ....tlke.W......
0120: 00 57 01 5B 07 80 F8 FF  FF 7F F8 FF FF 7F 66 75  .W.[..........fu
0130: 6D 31 5B 07 80 F8 FF FF  7F F8 FF FF 7F 66 6E 64  m1[..........fnd
0140: 30 1D 0B 80 23 5B 07 80  F8 FF FF 7F F8 FF FF 7F  0...#[..........
0150: 66 6E 64 31 01 57 01 5B  01 80 F8 FF FF 7F F8 FF  fnd1.W.[........
0160: FF 7F 74 6C 6B 30 1D 0C  80 23 1D 0D 80 23 5B 01  ..tlk0...#...#[.
0170: 80 F8 FF FF 7F F8 FF FF  7F 74 6C 6B 65 02 02 00  .........tlke...
0180: 05 80 05 98 06 5B 01 80  F8 FF FF 7F F8 FF FF 7F  .....[..........
0190: 74 6C 6B 30 1D 0E 80 23  5B 01 80 F8 FF FF 7F F8  tlk0...#[.......
01A0: FF FF 7F 74 6C 6B 65 24  0F 80 00 80 00 00 25 02  ...tlke$......%.
01B0: 00 10 00 80 00 BA 01 01  98 06 02 00 10 04 80 00  ................
01C0: 40 03 02 02 00 00 80 00  CF 02 03 02 10 10 80 5B  @..............[
01D0: 01 80 F8 FF FF 7F F8 FF  FF 7F 74 6C 6B 30 1D 11  ..........tlk0..
01E0: 80 23 03 02 10 07 00 5B  01 80 F8 FF FF 7F F8 FF  .#.....[........
01F0: FF 7F 74 6C 6B 65 24 12  80 04 80 00 80 25 02 00  ..tlke$......%..
0200: 10 00 80 00 A5 02 02 07  00 10 80 04 77 02 5B 01  ............w.[.
0210: 80 F8 FF FF 7F F8 FF FF  7F 74 6C 6B 30 1D 13 80  .........tlk0...
0220: 23 1D 14 80 23 5B 01 80  F8 FF FF 7F F8 FF FF 7F  #...#[..........
0230: 74 6C 6B 65 5B 01 80 F8  FF FF 7F F8 FF FF 7F 70  tlke[..........p
0240: 61 73 30 48 15 80 1C 16  80 5B 01 80 F8 FF FF 7F  as0H.....[......
0250: F8 FF FF 7F 74 6C 6B 30  1D 17 80 23 5B 01 80 F8  ....tlk0...#[...
0260: FF FF 7F F8 FF FF 7F 74  6C 6B 65 40 00 80 18 80  .......tlke@....
0270: 01 10 04 80 01 A2 02 5B  01 80 F8 FF FF 7F F8 FF  .......[........
0280: FF 7F 74 6C 6B 30 1D 19  80 23 5B 01 80 F8 FF FF  ..tlk0...#[.....
0290: 7F F8 FF FF 7F 74 6C 6B  65 40 00 80 18 80 01 10  .....tlke@......
02A0: 00 80 01 CC 02 02 00 10  04 80 00 CC 02 5B 07 80  .............[..
02B0: F8 FF FF 7F F8 FF FF 7F  62 79 65 30 1D 1A 80 23  ........bye0...#
02C0: 40 00 80 18 80 01 10 00  80 01 CC 02 01 3D 03 02  @............=..
02D0: 02 00 04 80 04 3D 03 5B  01 80 F8 FF FF 7F F8 FF  .....=.[........
02E0: FF 7F 74 6C 6B 30 1D 13  80 23 1D 14 80 23 5B 01  ..tlk0...#...#[.
02F0: 80 F8 FF FF 7F F8 FF FF  7F 74 6C 6B 65 5B 01 80  .........tlke[..
0300: F8 FF FF 7F F8 FF FF 7F  70 61 73 30 48 15 80 1C  ........pas0H...
0310: 16 80 5B 01 80 F8 FF FF  7F F8 FF FF 7F 74 6C 6B  ..[..........tlk
0320: 30 1D 17 80 23 5B 01 80  F8 FF FF 7F F8 FF FF 7F  0...#[..........
0330: 74 6C 6B 65 40 00 80 18  80 01 10 00 80 01 98 06  tlke@...........
0340: 02 00 10 03 80 00 60 04  02 02 00 04 80 00 22 04  ......`.......".
0350: 03 02 10 1B 80 5B 01 80  F8 FF FF 7F F8 FF FF 7F  .....[..........
0360: 74 6C 6B 30 1D 11 80 23  03 02 10 07 00 5B 01 80  tlk0...#.....[..
0370: F8 FF FF 7F F8 FF FF 7F  74 6C 6B 65 24 12 80 04  ........tlke$...
0380: 80 00 80 25 02 00 10 00  80 00 F8 03 02 07 00 1B  ...%............
0390: 80 04 CA 03 5B 01 80 F8  FF FF 7F F8 FF FF 7F 74  ....[..........t
03A0: 6C 6B 30 1D 1C 80 23 1D  1D 80 23 1D 1E 80 23 5B  lk0...#...#...#[
03B0: 01 80 F8 FF FF 7F F8 FF  FF 7F 74 6C 6B 65 40 00  ..........tlke@.
03C0: 80 18 80 01 10 03 80 01  F5 03 5B 01 80 F8 FF FF  ..........[.....
03D0: 7F F8 FF FF 7F 74 6C 6B  30 1D 19 80 23 5B 01 80  .....tlk0...#[..
03E0: F8 FF FF 7F F8 FF FF 7F  74 6C 6B 65 40 00 80 18  ........tlke@...
03F0: 80 01 10 00 80 01 1F 04  02 00 10 04 80 00 1F 04  ................
0400: 5B 07 80 F8 FF FF 7F F8  FF FF 7F 62 79 65 30 1D  [..........bye0.
0410: 1A 80 23 40 00 80 18 80  01 10 00 80 01 1F 04 01  ..#@............
0420: 5D 04 02 02 00 03 80 04  5D 04 5B 01 80 F8 FF FF  ].......].[.....
0430: 7F F8 FF FF 7F 74 6C 6B  30 1D 1C 80 23 1D 1D 80  .....tlk0...#...
0440: 23 1D 1E 80 23 5B 01 80  F8 FF FF 7F F8 FF FF 7F  #...#[..........
0450: 74 6C 6B 65 40 00 80 18  80 01 10 00 80 01 98 06  tlke@...........
0460: 02 00 10 05 80 00 88 05  02 02 00 03 80 00 46 05  ..............F.
0470: 03 02 10 1F 80 5B 01 80  F8 FF FF 7F F8 FF FF 7F  .....[..........
0480: 74 6C 6B 30 1D 11 80 23  03 02 10 07 00 5B 01 80  tlk0...#.....[..
0490: F8 FF FF 7F F8 FF FF 7F  74 6C 6B 65 24 12 80 04  ........tlke$...
04A0: 80 00 80 25 02 00 10 00  80 00 1C 05 02 07 00 1F  ...%............
04B0: 80 04 EE 04 5B 01 80 F8  FF FF 7F F8 FF FF 7F 74  ....[..........t
04C0: 6C 6B 30 1D 20 80 23 1D  21 80 23 1D 22 80 23 1D  lk0. .#.!.#.".#.
04D0: 23 80 23 5B 01 80 F8 FF  FF 7F F8 FF FF 7F 74 6C  #.#[..........tl
04E0: 6B 65 40 00 80 18 80 01  10 05 80 01 19 05 5B 01  ke@...........[.
04F0: 80 F8 FF FF 7F F8 FF FF  7F 74 6C 6B 30 1D 19 80  .........tlk0...
0500: 23 5B 01 80 F8 FF FF 7F  F8 FF FF 7F 74 6C 6B 65  #[..........tlke
0510: 40 00 80 18 80 01 10 00  80 01 43 05 02 00 10 04  @.........C.....
0520: 80 00 43 05 5B 07 80 F8  FF FF 7F F8 FF FF 7F 62  ..C.[..........b
0530: 79 65 30 1D 1A 80 23 40  00 80 18 80 01 10 00 80  ye0...#@........
0540: 01 43 05 01 85 05 02 02  00 05 80 04 85 05 5B 01  .C............[.
0550: 80 F8 FF FF 7F F8 FF FF  7F 74 6C 6B 30 1D 20 80  .........tlk0. .
0560: 23 1D 21 80 23 1D 22 80  23 1D 23 80 23 5B 01 80  #.!.#.".#.#.#[..
0570: F8 FF FF 7F F8 FF FF 7F  74 6C 6B 65 40 00 80 18  ........tlke@...
0580: 80 01 10 00 80 01 98 06  02 00 10 06 80 00 98 06  ................
0590: 02 02 00 05 80 00 62 06  03 02 10 04 80 5B 01 80  ......b......[..
05A0: F8 FF FF 7F F8 FF FF 7F  74 6C 6B 30 1D 11 80 23  ........tlk0...#
05B0: 5B 01 80 F8 FF FF 7F F8  FF FF 7F 74 6C 6B 65 03  [..........tlke.
05C0: 02 10 07 00 24 12 80 04  80 00 80 25 02 00 10 00  ....$......%....
05D0: 80 00 38 06 02 07 00 04  80 04 0A 06 5B 01 80 F8  ..8.........[...
05E0: FF FF 7F F8 FF FF 7F 74  6C 6B 30 1D 24 80 23 5B  .......tlk0.$.#[
05F0: 01 80 F8 FF FF 7F F8 FF  FF 7F 74 6C 6B 65 40 00  ..........tlke@.
0600: 80 18 80 01 10 06 80 01  35 06 5B 01 80 F8 FF FF  ........5.[.....
0610: 7F F8 FF FF 7F 74 6C 6B  30 1D 19 80 23 5B 01 80  .....tlk0...#[..
0620: F8 FF FF 7F F8 FF FF 7F  74 6C 6B 65 40 00 80 18  ........tlke@...
0630: 80 01 10 00 80 01 5F 06  02 00 10 04 80 00 5F 06  ......_......._.
0640: 5B 07 80 F8 FF FF 7F F8  FF FF 7F 62 79 65 30 1D  [..........bye0.
0650: 1A 80 23 40 00 80 18 80  01 10 00 80 01 5F 06 01  ..#@........._..
0660: 95 06 02 02 00 06 80 04  95 06 5B 01 80 F8 FF FF  ..........[.....
0670: 7F F8 FF FF 7F 74 6C 6B  30 1D 24 80 23 5B 01 80  .....tlk0.$.#[..
0680: F8 FF FF 7F F8 FF FF 7F  74 6C 6B 65 40 00 80 18  ........tlke@...
0690: 80 01 10 00 80 01 98 06  02 02 00 06 80 00 6B 08  ..............k.
06A0: 03 02 10 25 80 5B 01 80  F8 FF FF 7F F8 FF FF 7F  ...%.[..........
06B0: 74 6C 6B 30 1D 26 80 23  03 02 10 07 00 03 03 10  tlk0.&.#........
06C0: 27 80 03 04 10 28 80 03  05 10 29 80 03 06 10 2A  '....(....)....*
06D0: 80 03 07 10 2B 80 03 08  10 2C 80 03 09 10 2D 80  ....+....,....-.
06E0: 03 00 17 2E 80 03 01 17  2F 80 03 02 17 30 80 03  ......../....0..
06F0: 03 17 31 80 03 04 17 32  80 03 05 17 33 80 03 06  ..1....2....3...
0700: 17 34 80 03 07 17 35 80  03 08 17 36 80 5B 01 80  .4....5....6.[..
0710: F8 FF FF 7F F8 FF FF 7F  74 6C 6B 65 24 37 80 00  ........tlke$7..
0720: 80 01 00 25 02 00 10 38  80 00 50 07 5B 07 80 F8  ...%...8..P.[...
0730: FF FF 7F F8 FF FF 7F 62  79 65 30 1D 39 80 23 40  .......bye0.9.#@
0740: 00 80 18 80 01 10 00 80  03 02 10 00 10 01 5A 07  ..............Z.
0750: 03 02 10 27 80 07 02 10  00 10 02 02 10 38 80 00  ...'.........8..
0760: 65 07 01 6B 08 24 3A 80  04 80 00 80 25 02 00 10  e..k.$:.....%...
0770: 00 80 00 44 08 40 3B 80  3C 80 01 10 02 10 02 07  ...D.@;.<.......
0780: 00 25 80 04 25 08 5B 01  80 F8 FF FF 7F F8 FF FF  .%..%.[.........
0790: 7F 74 6C 6B 30 1D 3D 80  23 1D 3E 80 23 1D 3F 80  .tlk0.=.#.>.#.?.
07A0: 23 5B 01 80 F8 FF FF 7F  F8 FF FF 7F 74 6C 6B 65  #[..........tlke
07B0: 24 40 80 00 80 00 80 25  02 00 10 00 80 00 F2 07  $@.....%........
07C0: 5B 01 80 F8 FF FF 7F F8  FF FF 7F 74 6C 6B 30 1D  [..........tlk0.
07D0: 41 80 23 1D 42 80 23 5B  01 80 F8 FF FF 7F F8 FF  A.#.B.#[........
07E0: FF 7F 74 6C 6B 65 40 00  80 18 80 01 10 18 80 01  ..tlke@.........
07F0: 22 08 02 00 10 04 80 00  22 08 5B 01 80 F8 FF FF  ".......".[.....
0800: 7F F8 FF FF 7F 74 6C 6B  30 1D 43 80 23 5B 01 80  .....tlk0.C.#[..
0810: F8 FF FF 7F F8 FF FF 7F  74 6C 6B 65 01 B0 07 01  ........tlke....
0820: 22 08 01 41 08 5B 07 80  F8 FF FF 7F F8 FF FF 7F  "..A.[..........
0830: 62 79 65 30 1D 39 80 23  40 00 80 18 80 01 10 00  bye0.9.#@.......
0840: 80 01 6B 08 02 00 10 04  80 00 6B 08 5B 07 80 F8  ..k.......k.[...
0850: FF FF 7F F8 FF FF 7F 62  79 65 30 1D 39 80 23 40  .......bye0.9.#@
0860: 00 80 18 80 01 10 00 80  01 6B 08 02 02 00 18 80  .........k......
0870: 00 B8 08 02 04 00 44 80  00 B5 08 5B 01 80 F8 FF  ......D....[....
0880: FF 7F F8 FF FF 7F 74 6C  6B 30 1D 45 80 23 1D 46  ......tlk0.E.#.F
0890: 80 23 1D 42 80 23 1D 47  80 23 5B 01 80 F8 FF FF  .#.B.#.G.#[.....
08A0: 7F F8 FF FF 7F 74 6C 6B  65 40 00 80 18 80 01 10  .....tlke@......
08B0: 3B 80 01 B8 08 1A 44 0A  02 02 00 3B 80 00 01 09  ;.....D....;....
08C0: 02 05 00 48 80 00 FE 08  5B 01 80 F8 FF FF 7F F8  ...H....[.......
08D0: FF FF 7F 74 6C 6B 30 1D  49 80 23 1D 4A 80 23 1D  ...tlk0.I.#.J.#.
08E0: 42 80 23 5B 01 80 F8 FF  FF 7F F8 FF FF 7F 74 6C  B.#[..........tl
08F0: 6B 65 40 00 80 18 80 01  10 4B 80 01 01 09 1A 44  ke@......K.....D
0900: 0A 02 02 00 4B 80 00 4A  09 02 06 00 4C 80 00 47  ....K..J....L..G
0910: 09 5B 01 80 F8 FF FF 7F  F8 FF FF 7F 74 6C 6B 30  .[..........tlk0
0920: 1D 4D 80 23 1D 4E 80 23  1D 4F 80 23 5B 01 80 F8  .M.#.N.#.O.#[...
0930: FF FF 7F F8 FF FF 7F 74  6C 6B 65 40 00 80 18 80  .......tlke@....
0940: 01 10 50 80 01 4A 09 1A  44 0A 02 02 00 50 80 00  ..P..J..D....P..
0950: 7D 09 5B 01 80 F8 FF FF  7F F8 FF FF 7F 74 6C 6B  }.[..........tlk
0960: 30 1D 4F 80 23 5B 01 80  F8 FF FF 7F F8 FF FF 7F  0.O.#[..........
0970: 74 6C 6B 65 40 00 80 18  80 01 10 51 80 02 02 00  tlke@......Q....
0980: 51 80 00 E6 09 02 08 00  00 80 00 BB 09 5B 01 80  Q............[..
0990: F8 FF FF 7F F8 FF FF 7F  74 6C 6B 30 1D 52 80 23  ........tlk0.R.#
09A0: 5B 01 80 F8 FF FF 7F F8  FF FF 7F 74 6C 6B 65 40  [..........tlke@
09B0: 00 80 18 80 01 10 10 80  01 E6 09 5B 01 80 F8 FF  ...........[....
09C0: FF 7F F8 FF FF 7F 74 6C  6B 30 1D 53 80 23 5B 01  ......tlk0.S.#[.
09D0: 80 F8 FF FF 7F F8 FF FF  7F 74 6C 6B 65 40 00 80  .........tlke@..
09E0: 18 80 01 10 00 80 02 02  00 10 80 00 41 0A 03 02  ............A...
09F0: 10 08 10 5B 01 80 F8 FF  FF 7F F8 FF FF 7F 74 6C  ...[..........tl
0A00: 6B 30 1D 54 80 23 5B 01  80 F8 FF FF 7F F8 FF FF  k0.T.#[.........
0A10: 7F 74 6C 6B 65 5B 01 80  F8 FF FF 7F F8 FF FF 7F  .tlke[..........
0A20: 70 61 73 30 1C 16 80 45  55 80 F0 FF FF 7F F0 FF  pas0...EU.......
0A30: FF 7F 71 73 74 63 00 80  40 00 80 18 80 01 10 56  ..qstc..@......V
0A40: 80 2E 21 00 2E 5B 07 80  F8 FF FF 7F F8 FF FF 7F  ..!..[..........
0A50: 66 75 6D 30 1D 57 80 23  5B 07 80 F8 FF FF 7F F8  fum0.W.#[.......
0A60: FF FF 7F 66 75 6D 31 24  58 80 00 80 00 80 25 02  ...fum1$X.....%.
0A70: 00 10 00 80 00 FA 10 5B  01 80 F8 FF FF 7F F8 FF  .......[........
0A80: FF 7F 74 6C 6B 30 1D 59  80 23 5B 01 80 F8 FF FF  ..tlk0.Y.#[.....
0A90: 7F F8 FF FF 7F 74 6C 6B  65 02 02 00 18 80 80 69  .....tlke......i
0AA0: 0C 40 00 80 18 80 01 10  00 80 03 02 10 00 80 03  .@..............
0AB0: 03 10 00 80 03 04 10 00  80 03 05 10 00 80 03 06  ................
0AC0: 10 00 80 03 07 10 00 80  03 08 10 00 80 03 09 10  ................
0AD0: 00 80 03 00 17 00 80 03  01 17 00 80 03 02 17 00  ................
0AE0: 80 03 03 17 00 80 03 04  17 00 80 03 05 17 00 80  ................
0AF0: 03 06 17 00 80 03 07 17  00 80 03 08 17 00 80 03  ................
0B00: 09 17 00 80 03 0A 17 00  80 03 0B 17 00 80 03 0C  ................
0B10: 17 00 80 03 0D 17 00 80  03 0E 17 00 80 03 0F 17  ................
0B20: 00 80 03 10 17 00 80 3E  04 00 00 80 33 0B 03 02  .......>....3...
0B30: 10 04 80 3E 04 00 04 80  3F 0B 03 03 10 04 80 3E  ...>....?......>
0B40: 04 00 03 80 4B 0B 03 04  10 04 80 3E 04 00 05 80  ....K......>....
0B50: 57 0B 03 05 10 04 80 3E  04 00 06 80 63 0B 03 06  W......>....c...
0B60: 10 04 80 3E 04 00 18 80  6F 0B 03 07 10 04 80 3E  ...>....o......>
0B70: 04 00 3B 80 7B 0B 03 08  10 04 80 3E 04 00 4B 80  ..;.{......>..K.
0B80: 87 0B 03 09 10 04 80 3E  04 00 50 80 93 0B 03 00  .......>..P.....
0B90: 17 04 80 3E 04 00 51 80  9F 0B 03 01 17 04 80 3E  ...>..Q........>
0BA0: 04 00 10 80 AB 0B 03 02  17 04 80 3E 04 00 56 80  ...........>..V.
0BB0: B7 0B 03 03 17 04 80 3E  04 00 5A 80 C3 0B 03 04  .......>..Z.....
0BC0: 17 04 80 3E 04 00 5B 80  CF 0B 03 05 17 04 80 3E  ...>..[........>
0BD0: 04 00 5C 80 DB 0B 03 06  17 04 80 3E 04 00 5D 80  ..\........>..].
0BE0: E7 0B 03 07 17 04 80 3E  04 00 38 80 F3 0B 03 08  .......>..8.....
0BF0: 17 04 80 3E 04 00 3C 80  FF 0B 03 09 17 04 80 3E  ...>..<........>
0C00: 04 00 5E 80 0B 0C 03 0A  17 04 80 3E 04 00 5F 80  ..^........>.._.
0C10: 17 0C 03 0B 17 04 80 3E  04 00 60 80 23 0C 03 0C  .......>..`.#...
0C20: 17 04 80 3E 04 00 61 80  2F 0C 03 0D 17 04 80 3E  ...>..a./......>
0C30: 04 00 62 80 3B 0C 03 0E  17 04 80 3E 04 00 63 80  ..b.;......>..c.
0C40: 47 0C 03 0F 17 04 80 3E  04 00 64 80 53 0C 03 10  G......>..d.S...
0C50: 17 04 80 24 65 80 00 80  00 80 25 02 00 10 00 80  ...$e.....%.....
0C60: 00 66 0C 01 66 0C 01 F7  10 02 02 00 3B 80 80 B0  .f..f.......;...
0C70: 0E 40 00 80 18 80 01 10  00 80 03 02 10 00 80 03  .@..............
0C80: 03 10 00 80 03 04 10 00  80 03 05 10 00 80 03 06  ................
0C90: 10 00 80 03 07 10 00 80  03 08 10 00 80 03 09 10  ................
0CA0: 00 80 03 00 17 00 80 03  01 17 00 80 03 02 17 00  ................
0CB0: 80 03 03 17 00 80 03 04  17 00 80 03 05 17 00 80  ................
0CC0: 03 06 17 00 80 03 07 17  00 80 03 08 17 00 80 03  ................
0CD0: 09 17 00 80 03 0A 17 00  80 03 0B 17 00 80 03 0C  ................
0CE0: 17 00 80 03 0D 17 00 80  03 0E 17 00 80 03 0F 17  ................
0CF0: 00 80 03 10 17 00 80 03  11 17 00 80 03 12 17 00  ................
0D00: 80 03 13 17 00 80 03 14  17 00 80 03 15 17 00 80  ................
0D10: 03 16 17 00 80 03 17 17  00 80 3E 05 00 00 80 26  ..........>....&
0D20: 0D 03 02 10 04 80 3E 05  00 04 80 32 0D 03 03 10  ......>....2....
0D30: 04 80 3E 05 00 03 80 3E  0D 03 04 10 04 80 3E 05  ..>....>......>.
0D40: 00 05 80 4A 0D 03 05 10  04 80 3E 05 00 06 80 56  ...J......>....V
0D50: 0D 03 06 10 04 80 3E 05  00 18 80 62 0D 03 07 10  ......>....b....
0D60: 04 80 3E 05 00 3B 80 6E  0D 03 08 10 04 80 3E 05  ..>..;.n......>.
0D70: 00 4B 80 7A 0D 03 09 10  04 80 3E 05 00 50 80 86  .K.z......>..P..
0D80: 0D 03 00 17 04 80 3E 05  00 51 80 92 0D 03 01 17  ......>..Q......
0D90: 04 80 3E 05 00 10 80 9E  0D 03 02 17 04 80 3E 05  ..>...........>.
0DA0: 00 56 80 AA 0D 03 03 17  04 80 3E 05 00 5A 80 B6  .V........>..Z..
0DB0: 0D 03 04 17 04 80 3E 05  00 5B 80 C2 0D 03 05 17  ......>..[......
0DC0: 04 80 3E 05 00 5C 80 CE  0D 03 06 17 04 80 3E 05  ..>..\........>.
0DD0: 00 5D 80 DA 0D 03 07 17  04 80 3E 05 00 38 80 E6  .]........>..8..
0DE0: 0D 03 08 17 04 80 3E 05  00 3C 80 F2 0D 03 09 17  ......>..<......
0DF0: 04 80 3E 05 00 5E 80 FE  0D 03 0A 17 04 80 3E 05  ..>..^........>.
0E00: 00 5F 80 0A 0E 03 0B 17  04 80 3E 05 00 60 80 16  ._........>..`..
0E10: 0E 03 0C 17 04 80 3E 05  00 61 80 22 0E 03 0D 17  ......>..a."....
0E20: 04 80 3E 05 00 62 80 2E  0E 03 0E 17 04 80 3E 05  ..>..b........>.
0E30: 00 63 80 3A 0E 03 0F 17  04 80 3E 05 00 64 80 46  .c.:......>..d.F
0E40: 0E 03 10 17 04 80 3E 05  00 66 80 52 0E 03 11 17  ......>..f.R....
0E50: 04 80 3E 05 00 67 80 5E  0E 03 12 17 04 80 3E 05  ..>..g.^......>.
0E60: 00 68 80 6A 0E 03 13 17  04 80 3E 05 00 69 80 76  .h.j......>..i.v
0E70: 0E 03 14 17 04 80 3E 05  00 6A 80 82 0E 03 15 17  ......>..j......
0E80: 04 80 3E 05 00 6B 80 8E  0E 03 16 17 04 80 3E 05  ..>..k........>.
0E90: 00 6C 80 9A 0E 03 17 17  04 80 24 6D 80 00 80 00  .l........$m....
0EA0: 80 25 02 00 10 00 80 00  AD 0E 01 AD 0E 01 F7 10  .%..............
0EB0: 02 02 00 4B 80 80 F7 10  40 00 80 18 80 01 10 00  ...K....@.......
0EC0: 80 03 02 10 00 80 03 03  10 00 80 03 04 10 00 80  ................
0ED0: 03 05 10 00 80 03 06 10  00 80 03 07 10 00 80 03  ................
0EE0: 08 10 00 80 03 09 10 00  80 03 00 17 00 80 03 01  ................
0EF0: 17 00 80 03 02 17 00 80  03 03 17 00 80 03 04 17  ................
0F00: 00 80 03 05 17 00 80 03  06 17 00 80 03 07 17 00  ................
0F10: 80 03 08 17 00 80 03 09  17 00 80 03 0A 17 00 80  ................
0F20: 03 0B 17 00 80 03 0C 17  00 80 03 0D 17 00 80 03  ................
0F30: 0E 17 00 80 03 0F 17 00  80 03 10 17 00 80 03 11  ................
0F40: 17 00 80 03 12 17 00 80  03 13 17 00 80 03 14 17  ................
0F50: 00 80 03 15 17 00 80 03  16 17 00 80 03 17 17 00  ................
0F60: 80 3E 06 00 00 80 6D 0F  03 02 10 04 80 3E 06 00  .>....m......>..
0F70: 04 80 79 0F 03 03 10 04  80 3E 06 00 03 80 85 0F  ..y......>......
0F80: 03 04 10 04 80 3E 06 00  05 80 91 0F 03 05 10 04  .....>..........
0F90: 80 3E 06 00 06 80 9D 0F  03 06 10 04 80 3E 06 00  .>...........>..
0FA0: 18 80 A9 0F 03 07 10 04  80 3E 06 00 3B 80 B5 0F  .........>..;...
0FB0: 03 08 10 04 80 3E 06 00  4B 80 C1 0F 03 09 10 04  .....>..K.......
0FC0: 80 3E 06 00 50 80 CD 0F  03 00 17 04 80 3E 06 00  .>..P........>..
0FD0: 51 80 D9 0F 03 01 17 04  80 3E 06 00 10 80 E5 0F  Q........>......
0FE0: 03 02 17 04 80 3E 06 00  56 80 F1 0F 03 03 17 04  .....>..V.......
0FF0: 80 3E 06 00 5A 80 FD 0F  03 04 17 04 80 3E 06 00  .>..Z........>..
1000: 5B 80 09 10 03 05 17 04  80 3E 06 00 5C 80 15 10  [........>..\...
1010: 03 06 17 04 80 3E 06 00  5D 80 21 10 03 07 17 04  .....>..].!.....
1020: 80 3E 06 00 38 80 2D 10  03 08 17 04 80 3E 06 00  .>..8.-......>..
1030: 3C 80 39 10 03 09 17 04  80 3E 06 00 5E 80 45 10  <.9......>..^.E.
1040: 03 0A 17 04 80 3E 06 00  5F 80 51 10 03 0B 17 04  .....>.._.Q.....
1050: 80 3E 06 00 60 80 5D 10  03 0C 17 04 80 3E 06 00  .>..`.]......>..
1060: 61 80 69 10 03 0D 17 04  80 3E 06 00 62 80 75 10  a.i......>..b.u.
1070: 03 0E 17 04 80 3E 06 00  63 80 81 10 03 0F 17 04  .....>..c.......
1080: 80 3E 06 00 64 80 8D 10  03 10 17 04 80 3E 06 00  .>..d........>..
1090: 66 80 99 10 03 11 17 04  80 3E 06 00 67 80 A5 10  f........>..g...
10A0: 03 12 17 04 80 3E 06 00  68 80 B1 10 03 13 17 04  .....>..h.......
10B0: 80 3E 06 00 69 80 BD 10  03 14 17 04 80 3E 06 00  .>..i........>..
10C0: 6A 80 C9 10 03 15 17 04  80 3E 06 00 6B 80 D5 10  j........>..k...
10D0: 03 16 17 04 80 3E 06 00  6C 80 E1 10 03 17 17 04  .....>..l.......
10E0: 80 24 6E 80 00 80 00 80  25 02 00 10 00 80 00 F4  .$n.....%.......
10F0: 10 01 F4 10 01 F7 10 01  D7 11 02 00 10 04 80 00  ................
1100: C3 11 42 5B 01 80 F8 FF  FF 7F F8 FF FF 7F 74 6C  ..B[..........tl
1110: 6B 30 1D 6F 80 23 5B 01  80 F8 FF FF 7F F8 FF FF  k0.o.#[.........
1120: 7F 74 6C 6B 65 24 70 80  04 80 00 80 25 02 00 10  .tlke$p.....%...
1130: 00 80 00 AC 11 5B 01 80  F8 FF FF 7F F8 FF FF 7F  .....[..........
1140: 74 6C 6B 30 1D 71 80 23  5B 01 80 F8 FF FF 7F F8  tlk0.q.#[.......
1150: FF FF 7F 74 6C 6B 65 24  72 80 04 80 00 80 25 02  ...tlke$r.....%.
1160: 00 10 00 80 00 95 11 5B  01 80 F8 FF FF 7F F8 FF  .......[........
1170: FF 7F 74 6C 6B 30 1D 73  80 23 5B 01 80 F8 FF FF  ..tlk0.s.#[.....
1180: 7F F8 FF FF 7F 74 6C 6B  65 40 00 80 18 80 01 10  .....tlke@......
1190: 6B 80 01 A9 11 02 00 10  04 80 00 A9 11 40 00 80  k............@..
11A0: 18 80 01 10 00 80 01 A9  11 01 C0 11 02 00 10 04  ................
11B0: 80 00 C0 11 40 00 80 18  80 01 10 00 80 01 C0 11  ....@...........
11C0: 01 D7 11 02 00 10 03 80  00 D7 11 40 00 80 18 80  ...........@....
11D0: 01 10 00 80 01 D7 11 1B                           ........        
```

#### Opcodes

```
  0: 0x0001 [0x42] SET_CLI_EVENT_CANCEL_DATA()
  1: 0x0002 [0x03] ExtData[1]->WorkLocal[0] = 0*
  2: 0x0007 [0x03] ExtData[1]->WorkLocal[2] = Work_Zone[2]
  3: 0x000C [0x03] ExtData[1]->WorkLocal[4] = Work_Zone[3]
  4: 0x0011 [0x03] ExtData[1]->WorkLocal[5] = Work_Zone[4]
  5: 0x0016 [0x03] ExtData[1]->WorkLocal[6] = Work_Zone[5]
  6: 0x001B [0x03] ExtData[1]->WorkLocal[7] = Work_Zone[6]
  7: 0x0020 [0x03] ExtData[1]->WorkLocal[8] = Work_Zone[7]
  8: 0x0025 [0x03] ExtData[1]->WorkLocal[3] = Work_Zone[8]
  9: 0x002A [0x03] ExtData[1]->WorkLocal[1] = Work_Zone[9]
 10: 0x002F [0x02] IF !(ExtData[1]->WorkLocal[2] == 0*) GOTO 0x0069
 11: 0x0037 [0x02] IF !(ExtData[1]->WorkLocal[7] == 0*) GOTO 0x0069
 12: 0x003F [0x5B] LOAD_EXT_SCHEDULER: Load scheduler "tlk0" with entities [EventEntity, EventEntity], work=215*
 13: 0x004E [0x1D] PRINT_EVENT_MESSAGE(message_id=7895*)
    → "One, two, three, four... Many many prettystones..."
 14: 0x0051 [0x23] WAIT_FOR_DIALOG_INTERACTION
 15: 0x0052 [0x5B] LOAD_EXT_SCHEDULER: Load scheduler "tlke" with entities [EventEntity, EventEntity], work=215*
 16: 0x0061 [0x03] Work_Zone[1] = 0*
 17: 0x0066 [0x2E] SET_CLI_EVENT_CANCEL_FLAGS()
 18: 0x0067 [0x21] END_EVENT
 19: 0x0068 [0x00] END_REQSTACK()
 20: 0x0069 [0x02] IF !(ExtData[1]->WorkLocal[2] == 0*) GOTO 0x0089
 21: 0x0071 [0x3C] SET_BIT_FLAG_CONDITIONAL(target_work_offset=ExtData[1]->WorkLocal[0], bit_index_work_offset=2*, condition_work_offset=1*)
 22: 0x0078 [0x3C] SET_BIT_FLAG_CONDITIONAL(target_work_offset=ExtData[1]->WorkLocal[0], bit_index_work_offset=3*, condition_work_offset=1*)
 23: 0x007F [0x3C] SET_BIT_FLAG_CONDITIONAL(target_work_offset=ExtData[1]->WorkLocal[0], bit_index_work_offset=4*, condition_work_offset=1*)
 24: 0x0086 [0x01] GOTO 0x00B4
 25: 0x0089 [0x02] IF !(ExtData[1]->WorkLocal[2] == 1*) GOTO 0x00A2
 26: 0x0091 [0x3C] SET_BIT_FLAG_CONDITIONAL(target_work_offset=ExtData[1]->WorkLocal[0], bit_index_work_offset=3*, condition_work_offset=1*)
 27: 0x0098 [0x3C] SET_BIT_FLAG_CONDITIONAL(target_work_offset=ExtData[1]->WorkLocal[0], bit_index_work_offset=4*, condition_work_offset=1*)
 28: 0x009F [0x01] GOTO 0x00B4
 29: 0x00A2 [0x02] IF !(ExtData[1]->WorkLocal[2] == 2*) GOTO 0x00B4
 30: 0x00AA [0x3C] SET_BIT_FLAG_CONDITIONAL(target_work_offset=ExtData[1]->WorkLocal[0], bit_index_work_offset=4*, condition_work_offset=1*)
 31: 0x00B1 [0x01] GOTO 0x00B4

SUBROUTINE_00B4:
 32: 0x00B4 [0x1E] EventEntity looks at LocalPlayer and starts talking
 33: 0x00B9 [0x1C] WAIT(1* ticks)
 34: 0x00BC [0x02] IF !(ExtData[1]->WorkLocal[2] == 0*) GOTO 0x017D
 35: 0x00C4 [0x5B] LOAD_EXT_SCHEDULER: Load scheduler "fum0" with entities [EventEntity, EventEntity], work=216*
 36: 0x00D3 [0x1D] PRINT_EVENT_MESSAGE(message_id=7896*)
    → "Why is [man/lady]-person here? How get to Temprix hideyspot?"
 37: 0x00D6 [0x23] WAIT_FOR_DIALOG_INTERACTION
 38: 0x00D7 [0x24] CREATE_DIALOG(message_id=7897*, default_option=0*, option_flags=0*)
    → "How did you get here? [Tell her./Don't tell her.]"
 39: 0x00DE [0x25] WAIT_DIALOG_SELECT()
 40: 0x00DF [0x02] IF !(Work_Zone[0] == 0*) GOTO 0x011B
 41: 0x00E7 [0x5B] LOAD_EXT_SCHEDULER: Load scheduler "fum1" with entities [EventEntity, EventEntity], work=216*
 42: 0x00F6 [0x5B] LOAD_EXT_SCHEDULER: Load scheduler "tlk0" with entities [EventEntity, EventEntity], work=215*
 43: 0x0105 [0x1D] PRINT_EVENT_MESSAGE(message_id=7898*)
    → "Wait. Temprix no give two buffalo poops. You here. Temprix here. No care how."
 44: 0x0108 [0x23] WAIT_FOR_DIALOG_INTERACTION
 45: 0x0109 [0x5B] LOAD_EXT_SCHEDULER: Load scheduler "tlke" with entities [EventEntity, EventEntity], work=215*
 46: 0x0118 [0x01] GOTO 0x0157
 47: 0x011B [0x02] IF !(Work_Zone[0] == 1*) GOTO 0x0157
 48: 0x0123 [0x5B] LOAD_EXT_SCHEDULER: Load scheduler "fum1" with entities [EventEntity, EventEntity], work=216*
 49: 0x0132 [0x5B] LOAD_EXT_SCHEDULER: Load scheduler "fnd0" with entities [EventEntity, EventEntity], work=216*
 50: 0x0141 [0x1D] PRINT_EVENT_MESSAGE(message_id=7899*)
    → "[Man/Lady]-person have hiddenthings? Temprix have hiddenthings too. No need to share hiddenthings."
 51: 0x0144 [0x23] WAIT_FOR_DIALOG_INTERACTION
 52: 0x0145 [0x5B] LOAD_EXT_SCHEDULER: Load scheduler "fnd1" with entities [EventEntity, EventEntity], work=216*
 53: 0x0154 [0x01] GOTO 0x0157

SUBROUTINE_0157:
 54: 0x0157 [0x5B] LOAD_EXT_SCHEDULER: Load scheduler "tlk0" with entities [EventEntity, EventEntity], work=215*
 55: 0x0166 [0x1D] PRINT_EVENT_MESSAGE(message_id=7900*)
    → "What matter is you have prettystones! Many prettystones!"
 56: 0x0169 [0x23] WAIT_FOR_DIALOG_INTERACTION
 57: 0x016A [0x1D] PRINT_EVENT_MESSAGE(message_id=7901*)
    → "What they call again? Oh! Escha beads. Temprix know [man/lady]-person go to Escha and get many prettystones."
 58: 0x016D [0x23] WAIT_FOR_DIALOG_INTERACTION
 59: 0x016E [0x5B] LOAD_EXT_SCHEDULER: Load scheduler "tlke" with entities [EventEntity, EventEntity], work=215*
 60: 0x017D [0x02] IF !(ExtData[1]->WorkLocal[2] > 3*) GOTO 0x0698
 61: 0x0185 [0x5B] LOAD_EXT_SCHEDULER: Load scheduler "tlk0" with entities [EventEntity, EventEntity], work=215*
 62: 0x0194 [0x1D] PRINT_EVENT_MESSAGE(message_id=7902*)
    → "Temprix give Escha knownthings. You give prettystones. Is good deal."
 63: 0x0197 [0x23] WAIT_FOR_DIALOG_INTERACTION
 64: 0x0198 [0x5B] LOAD_EXT_SCHEDULER: Load scheduler "tlke" with entities [EventEntity, EventEntity], work=215*
 65: 0x01A7 [0x24] CREATE_DIALOG(message_id=7903*, default_option=0*, option_flags=ExtData[1]->WorkLocal[0])
    → "Now what? [Get as far away as possible./Give me "knownthings."/Tell me more./Tell me even more./Just who are you?]"
 66: 0x01AE [0x25] WAIT_DIALOG_SELECT()
 67: 0x01AF [0x02] IF !(Work_Zone[0] == 0*) GOTO 0x01BA
 68: 0x01B7 [0x01] GOTO 0x0698
 69: 0x01BA [0x02] IF !(Work_Zone[0] == 1*) GOTO 0x0340
 70: 0x01C2 [0x02] IF !(ExtData[1]->WorkLocal[2] == 0*) GOTO 0x02CF
 71: 0x01CA [0x03] Work_Zone[2] = 10*
 72: 0x01CF [0x5B] LOAD_EXT_SCHEDULER: Load scheduler "tlk0" with entities [EventEntity, EventEntity], work=215*
 73: 0x01DE [0x1D] PRINT_EVENT_MESSAGE(message_id=7904*)
    → "Temprix tell knownthings. You give $0 prettystone[/s]. Yes?"
 74: 0x01E1 [0x23] WAIT_FOR_DIALOG_INTERACTION
 75: 0x01E2 [0x03] Work_Zone[2] = ExtData[1]->WorkLocal[7]
 76: 0x01E7 [0x5B] LOAD_EXT_SCHEDULER: Load scheduler "tlke" with entities [EventEntity, EventEntity], work=215*
 77: 0x01F6 [0x24] CREATE_DIALOG(message_id=7905*, default_option=1*, option_flags=0*)
    → "What say you? ($0 bead[/s]) [Give prettystones./Don't give prettystones.]"
 78: 0x01FD [0x25] WAIT_DIALOG_SELECT()
 79: 0x01FE [0x02] IF !(Work_Zone[0] == 0*) GOTO 0x02A5
 80: 0x0206 [0x02] IF !(ExtData[1]->WorkLocal[7] < 10*) GOTO 0x0277
 81: 0x020E [0x5B] LOAD_EXT_SCHEDULER: Load scheduler "tlk0" with entities [EventEntity, EventEntity], work=215*
 82: 0x021D [0x1D] PRINT_EVENT_MESSAGE(message_id=7908*)
    → "Big black swirly and boom! Escha. Much strange come out. Man-people take faststeps. Temprix want know more."
 83: 0x0220 [0x23] WAIT_FOR_DIALOG_INTERACTION
 84: 0x0221 [0x1D] PRINT_EVENT_MESSAGE(message_id=7909*)
    → "Temprix go to Escha. Get many knownthings. And find shiny too."
 85: 0x0224 [0x23] WAIT_FOR_DIALOG_INTERACTION
 86: 0x0225 [0x5B] LOAD_EXT_SCHEDULER: Load scheduler "tlke" with entities [EventEntity, EventEntity], work=215*
 87: 0x0234 [0x5B] LOAD_EXT_SCHEDULER: Load scheduler "pas0" with entities [EventEntity, EventEntity], work=215*
 88: 0x0243 [0x48] [System] [7910*]:
    → "Temprix shows you an intricate blade."
 89: 0x0246 [0x1C] WAIT(120* ticks)
 90: 0x0249 [0x5B] LOAD_EXT_SCHEDULER: Load scheduler "tlk0" with entities [EventEntity, EventEntity], work=215*
 91: 0x0258 [0x1D] PRINT_EVENT_MESSAGE(message_id=7911*)
    → "You want? Too bad. Not enough prettystones or jingly in all world."
 92: 0x025B [0x23] WAIT_FOR_DIALOG_INTERACTION
 93: 0x025C [0x5B] LOAD_EXT_SCHEDULER: Load scheduler "tlke" with entities [EventEntity, EventEntity], work=215*
 94: 0x026B [0x40] SET_BIT_WORK_RANGE(start_bit=0*, end_bit=5*, target=Work_Zone[1], source=1*)
 95: 0x0274 [0x01] GOTO 0x02A2
 96: 0x0277 [0x5B] LOAD_EXT_SCHEDULER: Load scheduler "tlk0" with entities [EventEntity, EventEntity], work=215*
 97: 0x0286 [0x1D] PRINT_EVENT_MESSAGE(message_id=7907*)
    → "Not enough prettystones, no knownthings. Is way of world."
 98: 0x0289 [0x23] WAIT_FOR_DIALOG_INTERACTION
 99: 0x028A [0x5B] LOAD_EXT_SCHEDULER: Load scheduler "tlke" with entities [EventEntity, EventEntity], work=215*
100: 0x0299 [0x40] SET_BIT_WORK_RANGE(start_bit=0*, end_bit=5*, target=Work_Zone[1], source=0*)

SUBROUTINE_02A2:
101: 0x02A2 [0x01] GOTO 0x02CC
102: 0x02A5 [0x02] IF !(Work_Zone[0] == 1*) GOTO 0x02CC
103: 0x02AD [0x5B] LOAD_EXT_SCHEDULER: Load scheduler "bye0" with entities [EventEntity, EventEntity], work=216*
104: 0x02BC [0x1D] PRINT_EVENT_MESSAGE(message_id=7906*)
    → "No prettystones, no knownthings. Is way of world."
105: 0x02BF [0x23] WAIT_FOR_DIALOG_INTERACTION
106: 0x02C0 [0x40] SET_BIT_WORK_RANGE(start_bit=0*, end_bit=5*, target=Work_Zone[1], source=0*)
107: 0x02C9 [0x01] GOTO 0x02CC

SUBROUTINE_02CC:
108: 0x02CC [0x01] GOTO 0x033D
109: 0x02CF [0x02] IF !(ExtData[1]->WorkLocal[2] < 1*) GOTO 0x033D
110: 0x02D7 [0x5B] LOAD_EXT_SCHEDULER: Load scheduler "tlk0" with entities [EventEntity, EventEntity], work=215*
111: 0x02E6 [0x1D] PRINT_EVENT_MESSAGE(message_id=7908*)
    → "Big black swirly and boom! Escha. Much strange come out. Man-people take faststeps. Temprix want know more."
112: 0x02E9 [0x23] WAIT_FOR_DIALOG_INTERACTION
113: 0x02EA [0x1D] PRINT_EVENT_MESSAGE(message_id=7909*)
    → "Temprix go to Escha. Get many knownthings. And find shiny too."
114: 0x02ED [0x23] WAIT_FOR_DIALOG_INTERACTION
115: 0x02EE [0x5B] LOAD_EXT_SCHEDULER: Load scheduler "tlke" with entities [EventEntity, EventEntity], work=215*
116: 0x02FD [0x5B] LOAD_EXT_SCHEDULER: Load scheduler "pas0" with entities [EventEntity, EventEntity], work=215*
117: 0x030C [0x48] [System] [7910*]:
    → "Temprix shows you an intricate blade."
118: 0x030F [0x1C] WAIT(120* ticks)
119: 0x0312 [0x5B] LOAD_EXT_SCHEDULER: Load scheduler "tlk0" with entities [EventEntity, EventEntity], work=215*
120: 0x0321 [0x1D] PRINT_EVENT_MESSAGE(message_id=7911*)
    → "You want? Too bad. Not enough prettystones or jingly in all world."
121: 0x0324 [0x23] WAIT_FOR_DIALOG_INTERACTION
122: 0x0325 [0x5B] LOAD_EXT_SCHEDULER: Load scheduler "tlke" with entities [EventEntity, EventEntity], work=215*
123: 0x0334 [0x40] SET_BIT_WORK_RANGE(start_bit=0*, end_bit=5*, target=Work_Zone[1], source=0*)

SUBROUTINE_033D:
124: 0x033D [0x01] GOTO 0x0698
125: 0x0340 [0x02] IF !(Work_Zone[0] == 2*) GOTO 0x0460
126: 0x0348 [0x02] IF !(ExtData[1]->WorkLocal[2] == 1*) GOTO 0x0422
127: 0x0350 [0x03] Work_Zone[2] = 100*
128: 0x0355 [0x5B] LOAD_EXT_SCHEDULER: Load scheduler "tlk0" with entities [EventEntity, EventEntity], work=215*
129: 0x0364 [0x1D] PRINT_EVENT_MESSAGE(message_id=7904*)
    → "Temprix tell knownthings. You give $0 prettystone[/s]. Yes?"
130: 0x0367 [0x23] WAIT_FOR_DIALOG_INTERACTION
131: 0x0368 [0x03] Work_Zone[2] = ExtData[1]->WorkLocal[7]
132: 0x036D [0x5B] LOAD_EXT_SCHEDULER: Load scheduler "tlke" with entities [EventEntity, EventEntity], work=215*
133: 0x037C [0x24] CREATE_DIALOG(message_id=7905*, default_option=1*, option_flags=0*)
    → "What say you? ($0 bead[/s]) [Give prettystones./Don't give prettystones.]"
134: 0x0383 [0x25] WAIT_DIALOG_SELECT()
135: 0x0384 [0x02] IF !(Work_Zone[0] == 0*) GOTO 0x03F8
136: 0x038C [0x02] IF !(ExtData[1]->WorkLocal[7] < 100*) GOTO 0x03CA
137: 0x0394 [0x5B] LOAD_EXT_SCHEDULER: Load scheduler "tlk0" with entities [EventEntity, EventEntity], work=215*
138: 0x03A3 [0x1D] PRINT_EVENT_MESSAGE(message_id=7912*)
    → "You want see collection?"
139: 0x03A6 [0x23] WAIT_FOR_DIALOG_INTERACTION
140: 0x03A7 [0x1D] PRINT_EVENT_MESSAGE(message_id=7913*)
    → "Hmm... Temprix get many shinythings. You nice [man/lady]-person. Temprix have big heartthing."
141: 0x03AA [0x23] WAIT_FOR_DIALOG_INTERACTION
142: 0x03AB [0x1D] PRINT_EVENT_MESSAGE(message_id=7914*)
    → "Temprix collection have many stabbythings and bashythings. Look like normal stabbythings and bashythings, but are special. Man-people no can use."
143: 0x03AE [0x23] WAIT_FOR_DIALOG_INTERACTION
144: 0x03AF [0x5B] LOAD_EXT_SCHEDULER: Load scheduler "tlke" with entities [EventEntity, EventEntity], work=215*
145: 0x03BE [0x40] SET_BIT_WORK_RANGE(start_bit=0*, end_bit=5*, target=Work_Zone[1], source=2*)
146: 0x03C7 [0x01] GOTO 0x03F5
147: 0x03CA [0x5B] LOAD_EXT_SCHEDULER: Load scheduler "tlk0" with entities [EventEntity, EventEntity], work=215*
148: 0x03D9 [0x1D] PRINT_EVENT_MESSAGE(message_id=7907*)
    → "Not enough prettystones, no knownthings. Is way of world."
149: 0x03DC [0x23] WAIT_FOR_DIALOG_INTERACTION
150: 0x03DD [0x5B] LOAD_EXT_SCHEDULER: Load scheduler "tlke" with entities [EventEntity, EventEntity], work=215*
151: 0x03EC [0x40] SET_BIT_WORK_RANGE(start_bit=0*, end_bit=5*, target=Work_Zone[1], source=0*)

SUBROUTINE_03F5:
152: 0x03F5 [0x01] GOTO 0x041F
153: 0x03F8 [0x02] IF !(Work_Zone[0] == 1*) GOTO 0x041F
154: 0x0400 [0x5B] LOAD_EXT_SCHEDULER: Load scheduler "bye0" with entities [EventEntity, EventEntity], work=216*
155: 0x040F [0x1D] PRINT_EVENT_MESSAGE(message_id=7906*)
    → "No prettystones, no knownthings. Is way of world."
156: 0x0412 [0x23] WAIT_FOR_DIALOG_INTERACTION
157: 0x0413 [0x40] SET_BIT_WORK_RANGE(start_bit=0*, end_bit=5*, target=Work_Zone[1], source=0*)
158: 0x041C [0x01] GOTO 0x041F

SUBROUTINE_041F:
159: 0x041F [0x01] GOTO 0x045D
160: 0x0422 [0x02] IF !(ExtData[1]->WorkLocal[2] < 2*) GOTO 0x045D
161: 0x042A [0x5B] LOAD_EXT_SCHEDULER: Load scheduler "tlk0" with entities [EventEntity, EventEntity], work=215*
162: 0x0439 [0x1D] PRINT_EVENT_MESSAGE(message_id=7912*)
    → "You want see collection?"
163: 0x043C [0x23] WAIT_FOR_DIALOG_INTERACTION
164: 0x043D [0x1D] PRINT_EVENT_MESSAGE(message_id=7913*)
    → "Hmm... Temprix get many shinythings. You nice [man/lady]-person. Temprix have big heartthing."
165: 0x0440 [0x23] WAIT_FOR_DIALOG_INTERACTION
166: 0x0441 [0x1D] PRINT_EVENT_MESSAGE(message_id=7914*)
    → "Temprix collection have many stabbythings and bashythings. Look like normal stabbythings and bashythings, but are special. Man-people no can use."
167: 0x0444 [0x23] WAIT_FOR_DIALOG_INTERACTION
168: 0x0445 [0x5B] LOAD_EXT_SCHEDULER: Load scheduler "tlke" with entities [EventEntity, EventEntity], work=215*
169: 0x0454 [0x40] SET_BIT_WORK_RANGE(start_bit=0*, end_bit=5*, target=Work_Zone[1], source=0*)

SUBROUTINE_045D:
170: 0x045D [0x01] GOTO 0x0698
171: 0x0460 [0x02] IF !(Work_Zone[0] == 3*) GOTO 0x0588
172: 0x0468 [0x02] IF !(ExtData[1]->WorkLocal[2] == 2*) GOTO 0x0546
173: 0x0470 [0x03] Work_Zone[2] = 1000*
174: 0x0475 [0x5B] LOAD_EXT_SCHEDULER: Load scheduler "tlk0" with entities [EventEntity, EventEntity], work=215*
175: 0x0484 [0x1D] PRINT_EVENT_MESSAGE(message_id=7904*)
    → "Temprix tell knownthings. You give $0 prettystone[/s]. Yes?"
176: 0x0487 [0x23] WAIT_FOR_DIALOG_INTERACTION
177: 0x0488 [0x03] Work_Zone[2] = ExtData[1]->WorkLocal[7]
178: 0x048D [0x5B] LOAD_EXT_SCHEDULER: Load scheduler "tlke" with entities [EventEntity, EventEntity], work=215*
179: 0x049C [0x24] CREATE_DIALOG(message_id=7905*, default_option=1*, option_flags=0*)
    → "What say you? ($0 bead[/s]) [Give prettystones./Don't give prettystones.]"
180: 0x04A3 [0x25] WAIT_DIALOG_SELECT()
181: 0x04A4 [0x02] IF !(Work_Zone[0] == 0*) GOTO 0x051C
182: 0x04AC [0x02] IF !(ExtData[1]->WorkLocal[7] < 1000*) GOTO 0x04EE
183: 0x04B4 [0x5B] LOAD_EXT_SCHEDULER: Load scheduler "tlk0" with entities [EventEntity, EventEntity], work=215*
184: 0x04C3 [0x1D] PRINT_EVENT_MESSAGE(message_id=7915*)
    → "[Man/Lady]-person want learn many knownthings. Temprix give up. You make ears big."
185: 0x04C6 [0x23] WAIT_FOR_DIALOG_INTERACTION
186: 0x04C7 [0x1D] PRINT_EVENT_MESSAGE(message_id=7916*)
    → "Man-people no can use collection. But Temprix have smartthink."
187: 0x04CA [0x23] WAIT_FOR_DIALOG_INTERACTION
188: 0x04CB [0x1D] PRINT_EVENT_MESSAGE(message_id=7917*)
    → "Temprix give weapon new body, then [man/lady]-person can handhold. Temprix gobbie of many talent."
189: 0x04CE [0x23] WAIT_FOR_DIALOG_INTERACTION
190: 0x04CF [0x1D] PRINT_EVENT_MESSAGE(message_id=7918*)
    → "But no can do alone. [Man/Lady]-person must help. Is good deal."
191: 0x04D2 [0x23] WAIT_FOR_DIALOG_INTERACTION
192: 0x04D3 [0x5B] LOAD_EXT_SCHEDULER: Load scheduler "tlke" with entities [EventEntity, EventEntity], work=215*
193: 0x04E2 [0x40] SET_BIT_WORK_RANGE(start_bit=0*, end_bit=5*, target=Work_Zone[1], source=3*)
194: 0x04EB [0x01] GOTO 0x0519
195: 0x04EE [0x5B] LOAD_EXT_SCHEDULER: Load scheduler "tlk0" with entities [EventEntity, EventEntity], work=215*
196: 0x04FD [0x1D] PRINT_EVENT_MESSAGE(message_id=7907*)
    → "Not enough prettystones, no knownthings. Is way of world."
197: 0x0500 [0x23] WAIT_FOR_DIALOG_INTERACTION
198: 0x0501 [0x5B] LOAD_EXT_SCHEDULER: Load scheduler "tlke" with entities [EventEntity, EventEntity], work=215*
199: 0x0510 [0x40] SET_BIT_WORK_RANGE(start_bit=0*, end_bit=5*, target=Work_Zone[1], source=0*)

SUBROUTINE_0519:
200: 0x0519 [0x01] GOTO 0x0543
201: 0x051C [0x02] IF !(Work_Zone[0] == 1*) GOTO 0x0543
202: 0x0524 [0x5B] LOAD_EXT_SCHEDULER: Load scheduler "bye0" with entities [EventEntity, EventEntity], work=216*
203: 0x0533 [0x1D] PRINT_EVENT_MESSAGE(message_id=7906*)
    → "No prettystones, no knownthings. Is way of world."
204: 0x0536 [0x23] WAIT_FOR_DIALOG_INTERACTION
205: 0x0537 [0x40] SET_BIT_WORK_RANGE(start_bit=0*, end_bit=5*, target=Work_Zone[1], source=0*)
206: 0x0540 [0x01] GOTO 0x0543

SUBROUTINE_0543:
207: 0x0543 [0x01] GOTO 0x0585
208: 0x0546 [0x02] IF !(ExtData[1]->WorkLocal[2] < 3*) GOTO 0x0585
209: 0x054E [0x5B] LOAD_EXT_SCHEDULER: Load scheduler "tlk0" with entities [EventEntity, EventEntity], work=215*
210: 0x055D [0x1D] PRINT_EVENT_MESSAGE(message_id=7915*)
    → "[Man/Lady]-person want learn many knownthings. Temprix give up. You make ears big."
211: 0x0560 [0x23] WAIT_FOR_DIALOG_INTERACTION
212: 0x0561 [0x1D] PRINT_EVENT_MESSAGE(message_id=7916*)
    → "Man-people no can use collection. But Temprix have smartthink."
213: 0x0564 [0x23] WAIT_FOR_DIALOG_INTERACTION
214: 0x0565 [0x1D] PRINT_EVENT_MESSAGE(message_id=7917*)
    → "Temprix give weapon new body, then [man/lady]-person can handhold. Temprix gobbie of many talent."
215: 0x0568 [0x23] WAIT_FOR_DIALOG_INTERACTION
216: 0x0569 [0x1D] PRINT_EVENT_MESSAGE(message_id=7918*)
    → "But no can do alone. [Man/Lady]-person must help. Is good deal."
217: 0x056C [0x23] WAIT_FOR_DIALOG_INTERACTION
218: 0x056D [0x5B] LOAD_EXT_SCHEDULER: Load scheduler "tlke" with entities [EventEntity, EventEntity], work=215*
219: 0x057C [0x40] SET_BIT_WORK_RANGE(start_bit=0*, end_bit=5*, target=Work_Zone[1], source=0*)

SUBROUTINE_0585:
220: 0x0585 [0x01] GOTO 0x0698
221: 0x0588 [0x02] IF !(Work_Zone[0] == 4*) GOTO 0x0698
222: 0x0590 [0x02] IF !(ExtData[1]->WorkLocal[2] == 3*) GOTO 0x0662
223: 0x0598 [0x03] Work_Zone[2] = 1*
224: 0x059D [0x5B] LOAD_EXT_SCHEDULER: Load scheduler "tlk0" with entities [EventEntity, EventEntity], work=215*
225: 0x05AC [0x1D] PRINT_EVENT_MESSAGE(message_id=7904*)
    → "Temprix tell knownthings. You give $0 prettystone[/s]. Yes?"
226: 0x05AF [0x23] WAIT_FOR_DIALOG_INTERACTION
227: 0x05B0 [0x5B] LOAD_EXT_SCHEDULER: Load scheduler "tlke" with entities [EventEntity, EventEntity], work=215*
228: 0x05BF [0x03] Work_Zone[2] = ExtData[1]->WorkLocal[7]
229: 0x05C4 [0x24] CREATE_DIALOG(message_id=7905*, default_option=1*, option_flags=0*)
    → "What say you? ($0 bead[/s]) [Give prettystones./Don't give prettystones.]"
230: 0x05CB [0x25] WAIT_DIALOG_SELECT()
231: 0x05CC [0x02] IF !(Work_Zone[0] == 0*) GOTO 0x0638
232: 0x05D4 [0x02] IF !(ExtData[1]->WorkLocal[7] < 1*) GOTO 0x060A
233: 0x05DC [0x5B] LOAD_EXT_SCHEDULER: Load scheduler "tlk0" with entities [EventEntity, EventEntity], work=215*
234: 0x05EB [0x1D] PRINT_EVENT_MESSAGE(message_id=7919*)
    → "Me? You have hiddenthings. Temprix have hiddenthings. Hoo hoo hoo hoo!"
235: 0x05EE [0x23] WAIT_FOR_DIALOG_INTERACTION
236: 0x05EF [0x5B] LOAD_EXT_SCHEDULER: Load scheduler "tlke" with entities [EventEntity, EventEntity], work=215*
237: 0x05FE [0x40] SET_BIT_WORK_RANGE(start_bit=0*, end_bit=5*, target=Work_Zone[1], source=4*)
238: 0x0607 [0x01] GOTO 0x0635
239: 0x060A [0x5B] LOAD_EXT_SCHEDULER: Load scheduler "tlk0" with entities [EventEntity, EventEntity], work=215*
240: 0x0619 [0x1D] PRINT_EVENT_MESSAGE(message_id=7907*)
    → "Not enough prettystones, no knownthings. Is way of world."
241: 0x061C [0x23] WAIT_FOR_DIALOG_INTERACTION
242: 0x061D [0x5B] LOAD_EXT_SCHEDULER: Load scheduler "tlke" with entities [EventEntity, EventEntity], work=215*
243: 0x062C [0x40] SET_BIT_WORK_RANGE(start_bit=0*, end_bit=5*, target=Work_Zone[1], source=0*)

SUBROUTINE_0635:
244: 0x0635 [0x01] GOTO 0x065F
245: 0x0638 [0x02] IF !(Work_Zone[0] == 1*) GOTO 0x065F
246: 0x0640 [0x5B] LOAD_EXT_SCHEDULER: Load scheduler "bye0" with entities [EventEntity, EventEntity], work=216*
247: 0x064F [0x1D] PRINT_EVENT_MESSAGE(message_id=7906*)
    → "No prettystones, no knownthings. Is way of world."
248: 0x0652 [0x23] WAIT_FOR_DIALOG_INTERACTION
249: 0x0653 [0x40] SET_BIT_WORK_RANGE(start_bit=0*, end_bit=5*, target=Work_Zone[1], source=0*)
250: 0x065C [0x01] GOTO 0x065F

SUBROUTINE_065F:
251: 0x065F [0x01] GOTO 0x0695
252: 0x0662 [0x02] IF !(ExtData[1]->WorkLocal[2] < 4*) GOTO 0x0695
253: 0x066A [0x5B] LOAD_EXT_SCHEDULER: Load scheduler "tlk0" with entities [EventEntity, EventEntity], work=215*
254: 0x0679 [0x1D] PRINT_EVENT_MESSAGE(message_id=7919*)
    → "Me? You have hiddenthings. Temprix have hiddenthings. Hoo hoo hoo hoo!"
255: 0x067C [0x23] WAIT_FOR_DIALOG_INTERACTION
256: 0x067D [0x5B] LOAD_EXT_SCHEDULER: Load scheduler "tlke" with entities [EventEntity, EventEntity], work=215*
257: 0x068C [0x40] SET_BIT_WORK_RANGE(start_bit=0*, end_bit=5*, target=Work_Zone[1], source=0*)

SUBROUTINE_0695:
258: 0x0695 [0x01] GOTO 0x0698

SUBROUTINE_0698:
259: 0x0698 [0x02] IF !(ExtData[1]->WorkLocal[2] == 4*) GOTO 0x086B
260: 0x06A0 [0x03] Work_Zone[2] = 50000*
261: 0x06A5 [0x5B] LOAD_EXT_SCHEDULER: Load scheduler "tlk0" with entities [EventEntity, EventEntity], work=215*
262: 0x06B4 [0x1D] PRINT_EVENT_MESSAGE(message_id=7920*)
    → "Temprix make collection like new for $0 prettystone[/s]. Which want?"
263: 0x06B7 [0x23] WAIT_FOR_DIALOG_INTERACTION
264: 0x06B8 [0x03] Work_Zone[2] = ExtData[1]->WorkLocal[7]
265: 0x06BD [0x03] Work_Zone[3] = 3035*
266: 0x06C2 [0x03] Work_Zone[4] = 3036*
267: 0x06C7 [0x03] Work_Zone[5] = 3037*
268: 0x06CC [0x03] Work_Zone[6] = 3038*
269: 0x06D1 [0x03] Work_Zone[7] = 3039*
270: 0x06D6 [0x03] Work_Zone[8] = 3040*
271: 0x06DB [0x03] Work_Zone[9] = 3041*
272: 0x06E0 [0x03] Work_Zone_1700[0] = 3042*
273: 0x06E5 [0x03] Work_Zone_1700[1] = 3043*
274: 0x06EA [0x03] Work_Zone_1700[2] = 3044*
275: 0x06EF [0x03] Work_Zone_1700[3] = 3045*
276: 0x06F4 [0x03] Work_Zone_1700[4] = 3046*
277: 0x06F9 [0x03] Work_Zone_1700[5] = 3047*
278: 0x06FE [0x03] Work_Zone_1700[6] = 3048*
279: 0x0703 [0x03] Work_Zone_1700[7] = 3049*
280: 0x0708 [0x03] Work_Zone_1700[8] = 3050*
281: 0x070D [0x5B] LOAD_EXT_SCHEDULER: Load scheduler "tlke" with entities [EventEntity, EventEntity], work=215*
282: 0x071C [0x24] CREATE_DIALOG(message_id=7921*, default_option=0*, option_flags=ExtData[1]->WorkLocal[1])
    → "Which one? ($0 escha bead[/s]) [$3./$3./$3./$3./$3./$3./$3./$3./$3./$3./$3./$3./$3./$3./$3./$3./Nothing for now.]"
283: 0x0723 [0x25] WAIT_DIALOG_SELECT()
284: 0x0724 [0x02] IF !(Work_Zone[0] == 16*) GOTO 0x0750
285: 0x072C [0x5B] LOAD_EXT_SCHEDULER: Load scheduler "bye0" with entities [EventEntity, EventEntity], work=216*
286: 0x073B [0x1D] PRINT_EVENT_MESSAGE(message_id=7922*)
    → "You no give prettystones? Then Temprix no give stabbythings. Is way of world."
287: 0x073E [0x23] WAIT_FOR_DIALOG_INTERACTION
288: 0x073F [0x40] SET_BIT_WORK_RANGE(start_bit=0*, end_bit=5*, target=Work_Zone[1], source=0*)
289: 0x0748 [0x03] Work_Zone[2] = Work_Zone[0]
290: 0x074D [0x01] GOTO 0x075A
291: 0x0750 [0x03] Work_Zone[2] = 3035*
292: 0x0755 [0x07] Work_Zone[2] += Work_Zone[0]

SUBROUTINE_075A:
293: 0x075A [0x02] IF !(Work_Zone[2] == 16*) GOTO 0x0765
294: 0x0762 [0x01] GOTO 0x086B
295: 0x0765 [0x24] CREATE_DIALOG(message_id=7923*, default_option=1*, option_flags=0*)
    → "You want $3? [Yes, please./No, thank you.]"
296: 0x076C [0x25] WAIT_DIALOG_SELECT()
297: 0x076D [0x02] IF !(Work_Zone[0] == 0*) GOTO 0x0844
298: 0x0775 [0x40] SET_BIT_WORK_RANGE(start_bit=6*, end_bit=17*, target=Work_Zone[1], source=Work_Zone[2])
299: 0x077E [0x02] IF !(ExtData[1]->WorkLocal[7] < 50000*) GOTO 0x0825
300: 0x0786 [0x5B] LOAD_EXT_SCHEDULER: Load scheduler "tlk0" with entities [EventEntity, EventEntity], work=215*
301: 0x0795 [0x1D] PRINT_EVENT_MESSAGE(message_id=7924*)
    → "[Man/Lady]-person have many prettystones to give. Temprix heart go bouncy-bounce. Take stabbything or smashything. Temprix not know which do which. But now is truestart."
302: 0x0798 [0x23] WAIT_FOR_DIALOG_INTERACTION
303: 0x0799 [0x1D] PRINT_EVENT_MESSAGE(message_id=7925*)
    → "Take to Escha - Zi'Tah and stabbysmash all bad strongthings."
304: 0x079C [0x23] WAIT_FOR_DIALOG_INTERACTION
305: 0x079D [0x1D] PRINT_EVENT_MESSAGE(message_id=7926*)
    → "Is simple, no?"
306: 0x07A0 [0x23] WAIT_FOR_DIALOG_INTERACTION
307: 0x07A1 [0x5B] LOAD_EXT_SCHEDULER: Load scheduler "tlke" with entities [EventEntity, EventEntity], work=215*

SUBROUTINE_07B0:
308: 0x07B0 [0x24] CREATE_DIALOG(message_id=7927*, default_option=0*, option_flags=0*)
    → "Do you understand? [Of course./I need more information.]"
309: 0x07B7 [0x25] WAIT_DIALOG_SELECT()
310: 0x07B8 [0x02] IF !(Work_Zone[0] == 0*) GOTO 0x07F2
311: 0x07C0 [0x5B] LOAD_EXT_SCHEDULER: Load scheduler "tlk0" with entities [EventEntity, EventEntity], work=215*
312: 0x07CF [0x1D] PRINT_EVENT_MESSAGE(message_id=7929*)
    → "So go Escha - Zi'Tah. Find many strongthings. Kill all. Temprix keep bignote of which strongthings dead."
313: 0x07D2 [0x23] WAIT_FOR_DIALOG_INTERACTION
314: 0x07D3 [0x1D] PRINT_EVENT_MESSAGE(message_id=7953*)
    → "Be safehandling. Is not safe yet."
315: 0x07D6 [0x23] WAIT_FOR_DIALOG_INTERACTION
316: 0x07D7 [0x5B] LOAD_EXT_SCHEDULER: Load scheduler "tlke" with entities [EventEntity, EventEntity], work=215*
317: 0x07E6 [0x40] SET_BIT_WORK_RANGE(start_bit=0*, end_bit=5*, target=Work_Zone[1], source=5*)
318: 0x07EF [0x01] GOTO 0x0822
319: 0x07F2 [0x02] IF !(Work_Zone[0] == 1*) GOTO 0x0822
320: 0x07FA [0x5B] LOAD_EXT_SCHEDULER: Load scheduler "tlk0" with entities [EventEntity, EventEntity], work=215*
321: 0x0809 [0x1D] PRINT_EVENT_MESSAGE(message_id=7928*)
    → "Why no understand? Remake smashythings and stabbythings need power. Get power from making stabbysmash on strongthings. Okay?"
322: 0x080C [0x23] WAIT_FOR_DIALOG_INTERACTION
323: 0x080D [0x5B] LOAD_EXT_SCHEDULER: Load scheduler "tlke" with entities [EventEntity, EventEntity], work=215*
324: 0x081C [0x01] GOTO 0x07B0

SUBROUTINE_0822:
325: 0x0822 [0x01] GOTO 0x0841
326: 0x0825 [0x5B] LOAD_EXT_SCHEDULER: Load scheduler "bye0" with entities [EventEntity, EventEntity], work=216*
327: 0x0834 [0x1D] PRINT_EVENT_MESSAGE(message_id=7922*)
    → "You no give prettystones? Then Temprix no give stabbythings. Is way of world."
328: 0x0837 [0x23] WAIT_FOR_DIALOG_INTERACTION
329: 0x0838 [0x40] SET_BIT_WORK_RANGE(start_bit=0*, end_bit=5*, target=Work_Zone[1], source=0*)

SUBROUTINE_0841:
330: 0x0841 [0x01] GOTO 0x086B
331: 0x0844 [0x02] IF !(Work_Zone[0] == 1*) GOTO 0x086B
332: 0x084C [0x5B] LOAD_EXT_SCHEDULER: Load scheduler "bye0" with entities [EventEntity, EventEntity], work=216*
333: 0x085B [0x1D] PRINT_EVENT_MESSAGE(message_id=7922*)
    → "You no give prettystones? Then Temprix no give stabbythings. Is way of world."
334: 0x085E [0x23] WAIT_FOR_DIALOG_INTERACTION
335: 0x085F [0x40] SET_BIT_WORK_RANGE(start_bit=0*, end_bit=5*, target=Work_Zone[1], source=0*)
336: 0x0868 [0x01] GOTO 0x086B

SUBROUTINE_086B:
337: 0x086B [0x02] IF !(ExtData[1]->WorkLocal[2] == 5*) GOTO 0x08B8
338: 0x0873 [0x02] IF !(ExtData[1]->WorkLocal[4] == 33554431*) GOTO 0x08B5
339: 0x087B [0x5B] LOAD_EXT_SCHEDULER: Load scheduler "tlk0" with entities [EventEntity, EventEntity], work=215*
340: 0x088A [0x1D] PRINT_EVENT_MESSAGE(message_id=7930*)
    → "[Man/Lady]-person is much gooder than Temprix thought. But need more to make weapon."
341: 0x088D [0x23] WAIT_FOR_DIALOG_INTERACTION
342: 0x088E [0x1D] PRINT_EVENT_MESSAGE(message_id=7931*)
    → "Take to Escha - Ru'Aun and smashystab more strongthings. All strongthings."
343: 0x0891 [0x23] WAIT_FOR_DIALOG_INTERACTION
344: 0x0892 [0x1D] PRINT_EVENT_MESSAGE(message_id=7953*)
    → "Be safehandling. Is not safe yet."
345: 0x0895 [0x23] WAIT_FOR_DIALOG_INTERACTION
346: 0x0896 [0x1D] PRINT_EVENT_MESSAGE(message_id=7932*)
    → "No need more tongueflaps. Is simple."
347: 0x0899 [0x23] WAIT_FOR_DIALOG_INTERACTION
348: 0x089A [0x5B] LOAD_EXT_SCHEDULER: Load scheduler "tlke" with entities [EventEntity, EventEntity], work=215*
349: 0x08A9 [0x40] SET_BIT_WORK_RANGE(start_bit=0*, end_bit=5*, target=Work_Zone[1], source=6*)
350: 0x08B2 [0x01] GOTO 0x08B8
351: 0x08B5 [0x1A] CALL_SUBROUTINE(address=0x0A44)

SUBROUTINE_08B8:
352: 0x08B8 [0x02] IF !(ExtData[1]->WorkLocal[2] == 6*) GOTO 0x0901
353: 0x08C0 [0x02] IF !(ExtData[1]->WorkLocal[5] == 4294967295*) GOTO 0x08FE
354: 0x08C8 [0x5B] LOAD_EXT_SCHEDULER: Load scheduler "tlk0" with entities [EventEntity, EventEntity], work=215*
355: 0x08D7 [0x1D] PRINT_EVENT_MESSAGE(message_id=7933*)
    → "Oooh! Stabbysmashything now goes lightflash! Is very good. Only little more to go."
356: 0x08DA [0x23] WAIT_FOR_DIALOG_INTERACTION
357: 0x08DB [0x1D] PRINT_EVENT_MESSAGE(message_id=7934*)
    → "Many strongthings here on island. You know what do--stabbysmash all strongthings! Temprix know [man/lady]-person can do!"
358: 0x08DE [0x23] WAIT_FOR_DIALOG_INTERACTION
359: 0x08DF [0x1D] PRINT_EVENT_MESSAGE(message_id=7953*)
    → "Be safehandling. Is not safe yet."
360: 0x08E2 [0x23] WAIT_FOR_DIALOG_INTERACTION
361: 0x08E3 [0x5B] LOAD_EXT_SCHEDULER: Load scheduler "tlke" with entities [EventEntity, EventEntity], work=215*
362: 0x08F2 [0x40] SET_BIT_WORK_RANGE(start_bit=0*, end_bit=5*, target=Work_Zone[1], source=7*)
363: 0x08FB [0x01] GOTO 0x0901
364: 0x08FE [0x1A] CALL_SUBROUTINE(address=0x0A44)

SUBROUTINE_0901:
365: 0x0901 [0x02] IF !(ExtData[1]->WorkLocal[2] == 7*) GOTO 0x094A
366: 0x0909 [0x02] IF !(ExtData[1]->WorkLocal[6] == 268435455*) GOTO 0x0947
367: 0x0911 [0x5B] LOAD_EXT_SCHEDULER: Load scheduler "tlk0" with entities [EventEntity, EventEntity], work=215*
368: 0x0920 [0x1D] PRINT_EVENT_MESSAGE(message_id=7946*)
    → "Temprix not think [man/lady]-person can do, but Temprix is joyjumping!"
369: 0x0923 [0x23] WAIT_FOR_DIALOG_INTERACTION
370: 0x0924 [0x1D] PRINT_EVENT_MESSAGE(message_id=7947*)
    → "Last step is bring materials for remake. Very special materials."
371: 0x0927 [0x23] WAIT_FOR_DIALOG_INTERACTION
372: 0x0928 [0x1D] PRINT_EVENT_MESSAGE(message_id=7948*)
    → "Forbidden fragments and goads. Temprix do need. Temprix wait for [man/lady]-person to bring."
373: 0x092B [0x23] WAIT_FOR_DIALOG_INTERACTION
374: 0x092C [0x5B] LOAD_EXT_SCHEDULER: Load scheduler "tlke" with entities [EventEntity, EventEntity], work=215*
375: 0x093B [0x40] SET_BIT_WORK_RANGE(start_bit=0*, end_bit=5*, target=Work_Zone[1], source=8*)
376: 0x0944 [0x01] GOTO 0x094A
377: 0x0947 [0x1A] CALL_SUBROUTINE(address=0x0A44)

SUBROUTINE_094A:
378: 0x094A [0x02] IF !(ExtData[1]->WorkLocal[2] == 8*) GOTO 0x097D
379: 0x0952 [0x5B] LOAD_EXT_SCHEDULER: Load scheduler "tlk0" with entities [EventEntity, EventEntity], work=215*
380: 0x0961 [0x1D] PRINT_EVENT_MESSAGE(message_id=7948*)
    → "Forbidden fragments and goads. Temprix do need. Temprix wait for [man/lady]-person to bring."
381: 0x0964 [0x23] WAIT_FOR_DIALOG_INTERACTION
382: 0x0965 [0x5B] LOAD_EXT_SCHEDULER: Load scheduler "tlke" with entities [EventEntity, EventEntity], work=215*
383: 0x0974 [0x40] SET_BIT_WORK_RANGE(start_bit=0*, end_bit=5*, target=Work_Zone[1], source=9*)
384: 0x097D [0x02] IF !(ExtData[1]->WorkLocal[2] == 9*) GOTO 0x09E6
385: 0x0985 [0x02] IF !(ExtData[1]->WorkLocal[8] == 0*) GOTO 0x09BB
386: 0x098D [0x5B] LOAD_EXT_SCHEDULER: Load scheduler "tlk0" with entities [EventEntity, EventEntity], work=215*
387: 0x099C [0x1D] PRINT_EVENT_MESSAGE(message_id=7949*)
    → "Temprix wait with sweatypalms. But remake preparetime is ready. Temprix do rest. [Man/Lady]-person wait."
388: 0x099F [0x23] WAIT_FOR_DIALOG_INTERACTION
389: 0x09A0 [0x5B] LOAD_EXT_SCHEDULER: Load scheduler "tlke" with entities [EventEntity, EventEntity], work=215*
390: 0x09AF [0x40] SET_BIT_WORK_RANGE(start_bit=0*, end_bit=5*, target=Work_Zone[1], source=10*)
391: 0x09B8 [0x01] GOTO 0x09E6
392: 0x09BB [0x5B] LOAD_EXT_SCHEDULER: Load scheduler "tlk0" with entities [EventEntity, EventEntity], work=215*
393: 0x09CA [0x1D] PRINT_EVENT_MESSAGE(message_id=7950*)
    → "Stand there and foottap is no good! Temprix must do hardthink."
394: 0x09CD [0x23] WAIT_FOR_DIALOG_INTERACTION
395: 0x09CE [0x5B] LOAD_EXT_SCHEDULER: Load scheduler "tlke" with entities [EventEntity, EventEntity], work=215*
396: 0x09DD [0x40] SET_BIT_WORK_RANGE(start_bit=0*, end_bit=5*, target=Work_Zone[1], source=0*)

SUBROUTINE_09E6:
397: 0x09E6 [0x02] IF !(ExtData[1]->WorkLocal[2] == 10*) GOTO 0x0A41
398: 0x09EE [0x03] Work_Zone[2] = Work_Zone[8]
399: 0x09F3 [0x5B] LOAD_EXT_SCHEDULER: Load scheduler "tlk0" with entities [EventEntity, EventEntity], work=215*
400: 0x0A02 [0x1D] PRINT_EVENT_MESSAGE(message_id=7951*)
    → "Is ready! Fresh new [stabbysmashthing/boardthing/soundthing] for [man/lady]-person!"
401: 0x0A05 [0x23] WAIT_FOR_DIALOG_INTERACTION
402: 0x0A06 [0x5B] LOAD_EXT_SCHEDULER: Load scheduler "tlke" with entities [EventEntity, EventEntity], work=215*
403: 0x0A15 [0x5B] LOAD_EXT_SCHEDULER: Load scheduler "pas0" with entities [EventEntity, EventEntity], work=215*
404: 0x0A24 [0x1C] WAIT(120* ticks)
405: 0x0A27 [0x45] LOAD_SCHEDULED_TASK: Load scheduler "qstc" with entities [LocalPlayer, LocalPlayer], work=[201*, 0*]
406: 0x0A38 [0x40] SET_BIT_WORK_RANGE(start_bit=0*, end_bit=5*, target=Work_Zone[1], source=11*)
407: 0x0A41 [0x2E] SET_CLI_EVENT_CANCEL_FLAGS()
408: 0x0A42 [0x21] END_EVENT
409: 0x0A43 [0x00] END_REQSTACK()

SUBROUTINE_0A44:
410: 0x0A44 [0x2E] SET_CLI_EVENT_CANCEL_FLAGS()
411: 0x0A45 [0x5B] LOAD_EXT_SCHEDULER: Load scheduler "fum0" with entities [EventEntity, EventEntity], work=216*
412: 0x0A54 [0x1D] PRINT_EVENT_MESSAGE(message_id=7935*)
    → "Hm? [Man/Lady]-person is no done!"
413: 0x0A57 [0x23] WAIT_FOR_DIALOG_INTERACTION
414: 0x0A58 [0x5B] LOAD_EXT_SCHEDULER: Load scheduler "fum1" with entities [EventEntity, EventEntity], work=216*
415: 0x0A67 [0x24] CREATE_DIALOG(message_id=7936*, default_option=0*, option_flags=0*)
    → "Anything to say? [Show me what I've killed./Give up entirely./Leave.]"
416: 0x0A6E [0x25] WAIT_DIALOG_SELECT()
417: 0x0A6F [0x02] IF !(Work_Zone[0] == 0*) GOTO 0x10FA
418: 0x0A77 [0x5B] LOAD_EXT_SCHEDULER: Load scheduler "tlk0" with entities [EventEntity, EventEntity], work=215*
419: 0x0A86 [0x1D] PRINT_EVENT_MESSAGE(message_id=7942*)
    → "Temprix give list of stabbysmashed strongthings!"
420: 0x0A89 [0x23] WAIT_FOR_DIALOG_INTERACTION
421: 0x0A8A [0x5B] LOAD_EXT_SCHEDULER: Load scheduler "tlke" with entities [EventEntity, EventEntity], work=215*
422: 0x0A99 [0x02] IF !(ExtData[1]->WorkLocal[2] == 5*) GOTO 0x0C69
423: 0x0AA1 [0x40] SET_BIT_WORK_RANGE(start_bit=0*, end_bit=5*, target=Work_Zone[1], source=0*)
424: 0x0AAA [0x03] Work_Zone[2] = 0*
425: 0x0AAF [0x03] Work_Zone[3] = 0*
426: 0x0AB4 [0x03] Work_Zone[4] = 0*
427: 0x0AB9 [0x03] Work_Zone[5] = 0*
428: 0x0ABE [0x03] Work_Zone[6] = 0*
429: 0x0AC3 [0x03] Work_Zone[7] = 0*
430: 0x0AC8 [0x03] Work_Zone[8] = 0*
431: 0x0ACD [0x03] Work_Zone[9] = 0*
432: 0x0AD2 [0x03] Work_Zone_1700[0] = 0*
433: 0x0AD7 [0x03] Work_Zone_1700[1] = 0*
434: 0x0ADC [0x03] Work_Zone_1700[2] = 0*
435: 0x0AE1 [0x03] Work_Zone_1700[3] = 0*
436: 0x0AE6 [0x03] Work_Zone_1700[4] = 0*
437: 0x0AEB [0x03] Work_Zone_1700[5] = 0*
438: 0x0AF0 [0x03] Work_Zone_1700[6] = 0*
439: 0x0AF5 [0x03] Work_Zone_1700[7] = 0*
440: 0x0AFA [0x03] Work_Zone_1700[8] = 0*
441: 0x0AFF [0x03] Work_Zone_1700[9] = 0*
442: 0x0B04 [0x03] Work_Zone_1700[10] = 0*
443: 0x0B09 [0x03] Work_Zone_1700[11] = 0*
444: 0x0B0E [0x03] Work_Zone_1700[12] = 0*
445: 0x0B13 [0x03] Work_Zone_1700[13] = 0*
446: 0x0B18 [0x03] Work_Zone_1700[14] = 0*
447: 0x0B1D [0x03] Work_Zone_1700[15] = 0*
448: 0x0B22 [0x03] Work_Zone_1700[16] = 0*
449: 0x0B27 [0x3E] IF !(ExtData[1]->WorkLocal[4] bit 0*) GOTO 0x0B33
450: 0x0B2E [0x03] Work_Zone[2] = 1*
451: 0x0B33 [0x3E] IF !(ExtData[1]->WorkLocal[4] bit 1*) GOTO 0x0B3F
452: 0x0B3A [0x03] Work_Zone[3] = 1*
453: 0x0B3F [0x3E] IF !(ExtData[1]->WorkLocal[4] bit 2*) GOTO 0x0B4B
454: 0x0B46 [0x03] Work_Zone[4] = 1*
455: 0x0B4B [0x3E] IF !(ExtData[1]->WorkLocal[4] bit 3*) GOTO 0x0B57
456: 0x0B52 [0x03] Work_Zone[5] = 1*
457: 0x0B57 [0x3E] IF !(ExtData[1]->WorkLocal[4] bit 4*) GOTO 0x0B63
458: 0x0B5E [0x03] Work_Zone[6] = 1*
459: 0x0B63 [0x3E] IF !(ExtData[1]->WorkLocal[4] bit 5*) GOTO 0x0B6F
460: 0x0B6A [0x03] Work_Zone[7] = 1*
461: 0x0B6F [0x3E] IF !(ExtData[1]->WorkLocal[4] bit 6*) GOTO 0x0B7B
462: 0x0B76 [0x03] Work_Zone[8] = 1*
463: 0x0B7B [0x3E] IF !(ExtData[1]->WorkLocal[4] bit 7*) GOTO 0x0B87
464: 0x0B82 [0x03] Work_Zone[9] = 1*
465: 0x0B87 [0x3E] IF !(ExtData[1]->WorkLocal[4] bit 8*) GOTO 0x0B93
466: 0x0B8E [0x03] Work_Zone_1700[0] = 1*
467: 0x0B93 [0x3E] IF !(ExtData[1]->WorkLocal[4] bit 9*) GOTO 0x0B9F
468: 0x0B9A [0x03] Work_Zone_1700[1] = 1*
469: 0x0B9F [0x3E] IF !(ExtData[1]->WorkLocal[4] bit 10*) GOTO 0x0BAB
470: 0x0BA6 [0x03] Work_Zone_1700[2] = 1*
471: 0x0BAB [0x3E] IF !(ExtData[1]->WorkLocal[4] bit 11*) GOTO 0x0BB7
472: 0x0BB2 [0x03] Work_Zone_1700[3] = 1*
473: 0x0BB7 [0x3E] IF !(ExtData[1]->WorkLocal[4] bit 12*) GOTO 0x0BC3
474: 0x0BBE [0x03] Work_Zone_1700[4] = 1*
475: 0x0BC3 [0x3E] IF !(ExtData[1]->WorkLocal[4] bit 13*) GOTO 0x0BCF
476: 0x0BCA [0x03] Work_Zone_1700[5] = 1*
477: 0x0BCF [0x3E] IF !(ExtData[1]->WorkLocal[4] bit 14*) GOTO 0x0BDB
478: 0x0BD6 [0x03] Work_Zone_1700[6] = 1*
479: 0x0BDB [0x3E] IF !(ExtData[1]->WorkLocal[4] bit 15*) GOTO 0x0BE7
480: 0x0BE2 [0x03] Work_Zone_1700[7] = 1*
481: 0x0BE7 [0x3E] IF !(ExtData[1]->WorkLocal[4] bit 16*) GOTO 0x0BF3
482: 0x0BEE [0x03] Work_Zone_1700[8] = 1*
483: 0x0BF3 [0x3E] IF !(ExtData[1]->WorkLocal[4] bit 17*) GOTO 0x0BFF
484: 0x0BFA [0x03] Work_Zone_1700[9] = 1*
485: 0x0BFF [0x3E] IF !(ExtData[1]->WorkLocal[4] bit 18*) GOTO 0x0C0B
486: 0x0C06 [0x03] Work_Zone_1700[10] = 1*
487: 0x0C0B [0x3E] IF !(ExtData[1]->WorkLocal[4] bit 19*) GOTO 0x0C17
488: 0x0C12 [0x03] Work_Zone_1700[11] = 1*
489: 0x0C17 [0x3E] IF !(ExtData[1]->WorkLocal[4] bit 20*) GOTO 0x0C23
490: 0x0C1E [0x03] Work_Zone_1700[12] = 1*
491: 0x0C23 [0x3E] IF !(ExtData[1]->WorkLocal[4] bit 21*) GOTO 0x0C2F
492: 0x0C2A [0x03] Work_Zone_1700[13] = 1*
493: 0x0C2F [0x3E] IF !(ExtData[1]->WorkLocal[4] bit 22*) GOTO 0x0C3B
494: 0x0C36 [0x03] Work_Zone_1700[14] = 1*
495: 0x0C3B [0x3E] IF !(ExtData[1]->WorkLocal[4] bit 23*) GOTO 0x0C47
496: 0x0C42 [0x03] Work_Zone_1700[15] = 1*
497: 0x0C47 [0x3E] IF !(ExtData[1]->WorkLocal[4] bit 24*) GOTO 0x0C53
498: 0x0C4E [0x03] Work_Zone_1700[16] = 1*
499: 0x0C53 [0x24] CREATE_DIALOG(message_id=7943*, default_option=0*, option_flags=0*)
    → "Escha - Zi'Tah targets: [Wepwawet.[/y$26z]/Lustful Lydia.[/y$26z]/Aglaophotis.[/y$26z]/Tangata Manu.[/y$26z]/Vidala.[/y$26z]/Gestalt.[/y$26z]/Angrboda.[/y$26z]/Cunnast.[/y$26z]/Revetaur.[/y$26z]/Ferrodon.[/y$26z]/Gulltop.[/y$26z]/Vyala.[/y$26z]/Blazewing.[/y$26z]/Bucca/Puca/Alpluachra.[/y$26z]/Pazuzu.[/y$26z]/Wrathare.[/y$26z]/Ionos.[/y$26z]/Sensual Sandy.[/y$26z]/Nosoi.[/y$26z]/Brittlis.[/y$26z]/Kamohoalii.[/y$26z]/Umdhlebi.[/y$26z]/Fleetstalker.[/y$26z]/Shockmaw.[/y$26z]/Urmahlullu.[/y$26z]]"
500: 0x0C5A [0x25] WAIT_DIALOG_SELECT()
501: 0x0C5B [0x02] IF !(Work_Zone[0] == 0*) GOTO 0x0C66
502: 0x0C63 [0x01] GOTO 0x0C66

SUBROUTINE_0C66:
503: 0x0C66 [0x01] GOTO 0x10F7
504: 0x0C69 [0x02] IF !(ExtData[1]->WorkLocal[2] == 6*) GOTO 0x0EB0
505: 0x0C71 [0x40] SET_BIT_WORK_RANGE(start_bit=0*, end_bit=5*, target=Work_Zone[1], source=0*)
506: 0x0C7A [0x03] Work_Zone[2] = 0*
507: 0x0C7F [0x03] Work_Zone[3] = 0*
508: 0x0C84 [0x03] Work_Zone[4] = 0*
509: 0x0C89 [0x03] Work_Zone[5] = 0*
510: 0x0C8E [0x03] Work_Zone[6] = 0*
511: 0x0C93 [0x03] Work_Zone[7] = 0*
512: 0x0C98 [0x03] Work_Zone[8] = 0*
513: 0x0C9D [0x03] Work_Zone[9] = 0*
514: 0x0CA2 [0x03] Work_Zone_1700[0] = 0*
515: 0x0CA7 [0x03] Work_Zone_1700[1] = 0*
516: 0x0CAC [0x03] Work_Zone_1700[2] = 0*
517: 0x0CB1 [0x03] Work_Zone_1700[3] = 0*
518: 0x0CB6 [0x03] Work_Zone_1700[4] = 0*
519: 0x0CBB [0x03] Work_Zone_1700[5] = 0*
520: 0x0CC0 [0x03] Work_Zone_1700[6] = 0*
521: 0x0CC5 [0x03] Work_Zone_1700[7] = 0*
522: 0x0CCA [0x03] Work_Zone_1700[8] = 0*
523: 0x0CCF [0x03] Work_Zone_1700[9] = 0*
524: 0x0CD4 [0x03] Work_Zone_1700[10] = 0*
525: 0x0CD9 [0x03] Work_Zone_1700[11] = 0*
526: 0x0CDE [0x03] Work_Zone_1700[12] = 0*
527: 0x0CE3 [0x03] Work_Zone_1700[13] = 0*
528: 0x0CE8 [0x03] Work_Zone_1700[14] = 0*
529: 0x0CED [0x03] Work_Zone_1700[15] = 0*
530: 0x0CF2 [0x03] Work_Zone_1700[16] = 0*
531: 0x0CF7 [0x03] Work_Zone_1700[17] = 0*
532: 0x0CFC [0x03] Work_Zone_1700[18] = 0*
533: 0x0D01 [0x03] Work_Zone_1700[19] = 0*
534: 0x0D06 [0x03] Work_Zone_1700[20] = 0*
535: 0x0D0B [0x03] Work_Zone_1700[21] = 0*
536: 0x0D10 [0x03] Work_Zone_1700[22] = 0*
537: 0x0D15 [0x03] Work_Zone_1700[23] = 0*
538: 0x0D1A [0x3E] IF !(ExtData[1]->WorkLocal[5] bit 0*) GOTO 0x0D26
539: 0x0D21 [0x03] Work_Zone[2] = 1*
540: 0x0D26 [0x3E] IF !(ExtData[1]->WorkLocal[5] bit 1*) GOTO 0x0D32
541: 0x0D2D [0x03] Work_Zone[3] = 1*
542: 0x0D32 [0x3E] IF !(ExtData[1]->WorkLocal[5] bit 2*) GOTO 0x0D3E
543: 0x0D39 [0x03] Work_Zone[4] = 1*
544: 0x0D3E [0x3E] IF !(ExtData[1]->WorkLocal[5] bit 3*) GOTO 0x0D4A
545: 0x0D45 [0x03] Work_Zone[5] = 1*
546: 0x0D4A [0x3E] IF !(ExtData[1]->WorkLocal[5] bit 4*) GOTO 0x0D56
547: 0x0D51 [0x03] Work_Zone[6] = 1*
548: 0x0D56 [0x3E] IF !(ExtData[1]->WorkLocal[5] bit 5*) GOTO 0x0D62
549: 0x0D5D [0x03] Work_Zone[7] = 1*
550: 0x0D62 [0x3E] IF !(ExtData[1]->WorkLocal[5] bit 6*) GOTO 0x0D6E
551: 0x0D69 [0x03] Work_Zone[8] = 1*
552: 0x0D6E [0x3E] IF !(ExtData[1]->WorkLocal[5] bit 7*) GOTO 0x0D7A
553: 0x0D75 [0x03] Work_Zone[9] = 1*
554: 0x0D7A [0x3E] IF !(ExtData[1]->WorkLocal[5] bit 8*) GOTO 0x0D86
555: 0x0D81 [0x03] Work_Zone_1700[0] = 1*
556: 0x0D86 [0x3E] IF !(ExtData[1]->WorkLocal[5] bit 9*) GOTO 0x0D92
557: 0x0D8D [0x03] Work_Zone_1700[1] = 1*
558: 0x0D92 [0x3E] IF !(ExtData[1]->WorkLocal[5] bit 10*) GOTO 0x0D9E
559: 0x0D99 [0x03] Work_Zone_1700[2] = 1*
560: 0x0D9E [0x3E] IF !(ExtData[1]->WorkLocal[5] bit 11*) GOTO 0x0DAA
561: 0x0DA5 [0x03] Work_Zone_1700[3] = 1*
562: 0x0DAA [0x3E] IF !(ExtData[1]->WorkLocal[5] bit 12*) GOTO 0x0DB6
563: 0x0DB1 [0x03] Work_Zone_1700[4] = 1*
564: 0x0DB6 [0x3E] IF !(ExtData[1]->WorkLocal[5] bit 13*) GOTO 0x0DC2
565: 0x0DBD [0x03] Work_Zone_1700[5] = 1*
566: 0x0DC2 [0x3E] IF !(ExtData[1]->WorkLocal[5] bit 14*) GOTO 0x0DCE
567: 0x0DC9 [0x03] Work_Zone_1700[6] = 1*
568: 0x0DCE [0x3E] IF !(ExtData[1]->WorkLocal[5] bit 15*) GOTO 0x0DDA
569: 0x0DD5 [0x03] Work_Zone_1700[7] = 1*
570: 0x0DDA [0x3E] IF !(ExtData[1]->WorkLocal[5] bit 16*) GOTO 0x0DE6
571: 0x0DE1 [0x03] Work_Zone_1700[8] = 1*
572: 0x0DE6 [0x3E] IF !(ExtData[1]->WorkLocal[5] bit 17*) GOTO 0x0DF2
573: 0x0DED [0x03] Work_Zone_1700[9] = 1*
574: 0x0DF2 [0x3E] IF !(ExtData[1]->WorkLocal[5] bit 18*) GOTO 0x0DFE
575: 0x0DF9 [0x03] Work_Zone_1700[10] = 1*
576: 0x0DFE [0x3E] IF !(ExtData[1]->WorkLocal[5] bit 19*) GOTO 0x0E0A
577: 0x0E05 [0x03] Work_Zone_1700[11] = 1*
578: 0x0E0A [0x3E] IF !(ExtData[1]->WorkLocal[5] bit 20*) GOTO 0x0E16
579: 0x0E11 [0x03] Work_Zone_1700[12] = 1*
580: 0x0E16 [0x3E] IF !(ExtData[1]->WorkLocal[5] bit 21*) GOTO 0x0E22
581: 0x0E1D [0x03] Work_Zone_1700[13] = 1*
582: 0x0E22 [0x3E] IF !(ExtData[1]->WorkLocal[5] bit 22*) GOTO 0x0E2E
583: 0x0E29 [0x03] Work_Zone_1700[14] = 1*
584: 0x0E2E [0x3E] IF !(ExtData[1]->WorkLocal[5] bit 23*) GOTO 0x0E3A
585: 0x0E35 [0x03] Work_Zone_1700[15] = 1*
586: 0x0E3A [0x3E] IF !(ExtData[1]->WorkLocal[5] bit 24*) GOTO 0x0E46
587: 0x0E41 [0x03] Work_Zone_1700[16] = 1*
588: 0x0E46 [0x3E] IF !(ExtData[1]->WorkLocal[5] bit 25*) GOTO 0x0E52
589: 0x0E4D [0x03] Work_Zone_1700[17] = 1*
590: 0x0E52 [0x3E] IF !(ExtData[1]->WorkLocal[5] bit 26*) GOTO 0x0E5E
591: 0x0E59 [0x03] Work_Zone_1700[18] = 1*
592: 0x0E5E [0x3E] IF !(ExtData[1]->WorkLocal[5] bit 27*) GOTO 0x0E6A
593: 0x0E65 [0x03] Work_Zone_1700[19] = 1*
594: 0x0E6A [0x3E] IF !(ExtData[1]->WorkLocal[5] bit 28*) GOTO 0x0E76
595: 0x0E71 [0x03] Work_Zone_1700[20] = 1*
596: 0x0E76 [0x3E] IF !(ExtData[1]->WorkLocal[5] bit 29*) GOTO 0x0E82
597: 0x0E7D [0x03] Work_Zone_1700[21] = 1*
598: 0x0E82 [0x3E] IF !(ExtData[1]->WorkLocal[5] bit 30*) GOTO 0x0E8E
599: 0x0E89 [0x03] Work_Zone_1700[22] = 1*
600: 0x0E8E [0x3E] IF !(ExtData[1]->WorkLocal[5] bit 31*) GOTO 0x0E9A
601: 0x0E95 [0x03] Work_Zone_1700[23] = 1*
602: 0x0E9A [0x24] CREATE_DIALOG(message_id=7944*, default_option=0*, option_flags=0*)
    → "Escha - Ru'Aun targets: [Bia.[/y$26z]/Ruea.[/y$26$77659y$26z]/Khon.[/y$26z]/Met.[/y$26z]/Khun.[/y$26z]/Wasserspeier.[/y$26z]/Emputa.[/y$26z]/Peirithoos.[/y$26z]/Asida.[/y$26z]/Tenodera.[/y$26z]/Sava Savanovic.[/y$26z]/Palila.[/y$26z]/Hanbi.[/y$26z]/Yilan.[/y$26z]/Amymone.[/y$26z]/Naphula.[/y$26z]/Kammavaca.[/y$26z]/Pakecet.[/y$26z]/Duke Vepar.[/y$26z]/Vir'ava.[/y$26z]/Byakko.[/y$26z]/Genbu.[/y$26z]/Seiryu.[/y$26z]/Suzaku.[/y$26z]/Kirin.[/y$26z]/Ark Angel HM.[/y$26z]/Ark Angel TT.[/y$26z]/Ark Angel MR.[/y$26z]/Ark Angel EV.[/y$26z]/Ark Angel GK.[/y$26z]/Warder of Courage.[/y$26z]]"
603: 0x0EA1 [0x25] WAIT_DIALOG_SELECT()
604: 0x0EA2 [0x02] IF !(Work_Zone[0] == 0*) GOTO 0x0EAD
605: 0x0EAA [0x01] GOTO 0x0EAD

SUBROUTINE_0EAD:
606: 0x0EAD [0x01] GOTO 0x10F7
607: 0x0EB0 [0x02] IF !(ExtData[1]->WorkLocal[2] == 7*) GOTO 0x10F7
608: 0x0EB8 [0x40] SET_BIT_WORK_RANGE(start_bit=0*, end_bit=5*, target=Work_Zone[1], source=0*)
609: 0x0EC1 [0x03] Work_Zone[2] = 0*
610: 0x0EC6 [0x03] Work_Zone[3] = 0*
611: 0x0ECB [0x03] Work_Zone[4] = 0*
612: 0x0ED0 [0x03] Work_Zone[5] = 0*
613: 0x0ED5 [0x03] Work_Zone[6] = 0*
614: 0x0EDA [0x03] Work_Zone[7] = 0*
615: 0x0EDF [0x03] Work_Zone[8] = 0*
616: 0x0EE4 [0x03] Work_Zone[9] = 0*
617: 0x0EE9 [0x03] Work_Zone_1700[0] = 0*
618: 0x0EEE [0x03] Work_Zone_1700[1] = 0*
619: 0x0EF3 [0x03] Work_Zone_1700[2] = 0*
620: 0x0EF8 [0x03] Work_Zone_1700[3] = 0*
621: 0x0EFD [0x03] Work_Zone_1700[4] = 0*
622: 0x0F02 [0x03] Work_Zone_1700[5] = 0*
623: 0x0F07 [0x03] Work_Zone_1700[6] = 0*
624: 0x0F0C [0x03] Work_Zone_1700[7] = 0*
625: 0x0F11 [0x03] Work_Zone_1700[8] = 0*
626: 0x0F16 [0x03] Work_Zone_1700[9] = 0*
627: 0x0F1B [0x03] Work_Zone_1700[10] = 0*
628: 0x0F20 [0x03] Work_Zone_1700[11] = 0*
629: 0x0F25 [0x03] Work_Zone_1700[12] = 0*
630: 0x0F2A [0x03] Work_Zone_1700[13] = 0*
631: 0x0F2F [0x03] Work_Zone_1700[14] = 0*
632: 0x0F34 [0x03] Work_Zone_1700[15] = 0*
633: 0x0F39 [0x03] Work_Zone_1700[16] = 0*
634: 0x0F3E [0x03] Work_Zone_1700[17] = 0*
635: 0x0F43 [0x03] Work_Zone_1700[18] = 0*
636: 0x0F48 [0x03] Work_Zone_1700[19] = 0*
637: 0x0F4D [0x03] Work_Zone_1700[20] = 0*
638: 0x0F52 [0x03] Work_Zone_1700[21] = 0*
639: 0x0F57 [0x03] Work_Zone_1700[22] = 0*
640: 0x0F5C [0x03] Work_Zone_1700[23] = 0*
641: 0x0F61 [0x3E] IF !(ExtData[1]->WorkLocal[6] bit 0*) GOTO 0x0F6D
642: 0x0F68 [0x03] Work_Zone[2] = 1*
643: 0x0F6D [0x3E] IF !(ExtData[1]->WorkLocal[6] bit 1*) GOTO 0x0F79
644: 0x0F74 [0x03] Work_Zone[3] = 1*
645: 0x0F79 [0x3E] IF !(ExtData[1]->WorkLocal[6] bit 2*) GOTO 0x0F85
646: 0x0F80 [0x03] Work_Zone[4] = 1*
647: 0x0F85 [0x3E] IF !(ExtData[1]->WorkLocal[6] bit 3*) GOTO 0x0F91
648: 0x0F8C [0x03] Work_Zone[5] = 1*
649: 0x0F91 [0x3E] IF !(ExtData[1]->WorkLocal[6] bit 4*) GOTO 0x0F9D
650: 0x0F98 [0x03] Work_Zone[6] = 1*
651: 0x0F9D [0x3E] IF !(ExtData[1]->WorkLocal[6] bit 5*) GOTO 0x0FA9
652: 0x0FA4 [0x03] Work_Zone[7] = 1*
653: 0x0FA9 [0x3E] IF !(ExtData[1]->WorkLocal[6] bit 6*) GOTO 0x0FB5
654: 0x0FB0 [0x03] Work_Zone[8] = 1*
655: 0x0FB5 [0x3E] IF !(ExtData[1]->WorkLocal[6] bit 7*) GOTO 0x0FC1
656: 0x0FBC [0x03] Work_Zone[9] = 1*
657: 0x0FC1 [0x3E] IF !(ExtData[1]->WorkLocal[6] bit 8*) GOTO 0x0FCD
658: 0x0FC8 [0x03] Work_Zone_1700[0] = 1*
659: 0x0FCD [0x3E] IF !(ExtData[1]->WorkLocal[6] bit 9*) GOTO 0x0FD9
660: 0x0FD4 [0x03] Work_Zone_1700[1] = 1*
661: 0x0FD9 [0x3E] IF !(ExtData[1]->WorkLocal[6] bit 10*) GOTO 0x0FE5
662: 0x0FE0 [0x03] Work_Zone_1700[2] = 1*
663: 0x0FE5 [0x3E] IF !(ExtData[1]->WorkLocal[6] bit 11*) GOTO 0x0FF1
664: 0x0FEC [0x03] Work_Zone_1700[3] = 1*
665: 0x0FF1 [0x3E] IF !(ExtData[1]->WorkLocal[6] bit 12*) GOTO 0x0FFD
666: 0x0FF8 [0x03] Work_Zone_1700[4] = 1*
667: 0x0FFD [0x3E] IF !(ExtData[1]->WorkLocal[6] bit 13*) GOTO 0x1009
668: 0x1004 [0x03] Work_Zone_1700[5] = 1*
669: 0x1009 [0x3E] IF !(ExtData[1]->WorkLocal[6] bit 14*) GOTO 0x1015
670: 0x1010 [0x03] Work_Zone_1700[6] = 1*
671: 0x1015 [0x3E] IF !(ExtData[1]->WorkLocal[6] bit 15*) GOTO 0x1021
672: 0x101C [0x03] Work_Zone_1700[7] = 1*
673: 0x1021 [0x3E] IF !(ExtData[1]->WorkLocal[6] bit 16*) GOTO 0x102D
674: 0x1028 [0x03] Work_Zone_1700[8] = 1*
675: 0x102D [0x3E] IF !(ExtData[1]->WorkLocal[6] bit 17*) GOTO 0x1039
676: 0x1034 [0x03] Work_Zone_1700[9] = 1*
677: 0x1039 [0x3E] IF !(ExtData[1]->WorkLocal[6] bit 18*) GOTO 0x1045
678: 0x1040 [0x03] Work_Zone_1700[10] = 1*
679: 0x1045 [0x3E] IF !(ExtData[1]->WorkLocal[6] bit 19*) GOTO 0x1051
680: 0x104C [0x03] Work_Zone_1700[11] = 1*
681: 0x1051 [0x3E] IF !(ExtData[1]->WorkLocal[6] bit 20*) GOTO 0x105D
682: 0x1058 [0x03] Work_Zone_1700[12] = 1*
683: 0x105D [0x3E] IF !(ExtData[1]->WorkLocal[6] bit 21*) GOTO 0x1069
684: 0x1064 [0x03] Work_Zone_1700[13] = 1*
685: 0x1069 [0x3E] IF !(ExtData[1]->WorkLocal[6] bit 22*) GOTO 0x1075
686: 0x1070 [0x03] Work_Zone_1700[14] = 1*
687: 0x1075 [0x3E] IF !(ExtData[1]->WorkLocal[6] bit 23*) GOTO 0x1081
688: 0x107C [0x03] Work_Zone_1700[15] = 1*
689: 0x1081 [0x3E] IF !(ExtData[1]->WorkLocal[6] bit 24*) GOTO 0x108D
690: 0x1088 [0x03] Work_Zone_1700[16] = 1*
691: 0x108D [0x3E] IF !(ExtData[1]->WorkLocal[6] bit 25*) GOTO 0x1099
692: 0x1094 [0x03] Work_Zone_1700[17] = 1*
693: 0x1099 [0x3E] IF !(ExtData[1]->WorkLocal[6] bit 26*) GOTO 0x10A5
694: 0x10A0 [0x03] Work_Zone_1700[18] = 1*
695: 0x10A5 [0x3E] IF !(ExtData[1]->WorkLocal[6] bit 27*) GOTO 0x10B1
696: 0x10AC [0x03] Work_Zone_1700[19] = 1*
697: 0x10B1 [0x3E] IF !(ExtData[1]->WorkLocal[6] bit 28*) GOTO 0x10BD
698: 0x10B8 [0x03] Work_Zone_1700[20] = 1*
699: 0x10BD [0x3E] IF !(ExtData[1]->WorkLocal[6] bit 29*) GOTO 0x10C9
700: 0x10C4 [0x03] Work_Zone_1700[21] = 1*
701: 0x10C9 [0x3E] IF !(ExtData[1]->WorkLocal[6] bit 30*) GOTO 0x10D5
702: 0x10D0 [0x03] Work_Zone_1700[22] = 1*
703: 0x10D5 [0x3E] IF !(ExtData[1]->WorkLocal[6] bit 31*) GOTO 0x10E1
704: 0x10DC [0x03] Work_Zone_1700[23] = 1*
705: 0x10E1 [0x24] CREATE_DIALOG(message_id=7945*, default_option=0*, option_flags=0*)
    → "Reisenjima targets: [Crom Dubh.[/y$26z]/Golden Kist.[/y$26z]/Mauve-wristed Gomberry.[/y$26z]/Dazzling Dolores.[/y$26z]/Taelmoth the Diremaw.[/y$26z]/Belphegor.[/y$26z]/Kabandha.[/y$26z]/Selkit.[/y$26z]/Sang Buaya.[/y$26z]/Sabotender Royal.[/y$26z]/Zduhac.[/y$26z]/Oryx.[/y$26z]/Strophadia.[/y$26z]/Gajasimha.[/y$26z]/Ironside.[/y$26z]/Sarsaok.[/y$26z]/Old Shuck.[/y$26z]/Bashmu.[/y$26z]/Maju.[/y$26z]/Yakshi.[/y$26z]/Neak.[/y$26z]/Teles.[/y$26z]/Zerde.[/y$26z]/Vinipata.[/y$26z]/Schah.[/y$26z]/Albumen.[/y$26z]/Onychophora.[/y$26z]/Erinys.[/y$26z]]"
706: 0x10E8 [0x25] WAIT_DIALOG_SELECT()
707: 0x10E9 [0x02] IF !(Work_Zone[0] == 0*) GOTO 0x10F4
708: 0x10F1 [0x01] GOTO 0x10F4

SUBROUTINE_10F4:
709: 0x10F4 [0x01] GOTO 0x10F7

SUBROUTINE_10F7:
710: 0x10F7 [0x01] GOTO 0x11D7
711: 0x10FA [0x02] IF !(Work_Zone[0] == 1*) GOTO 0x11C3
712: 0x1102 [0x42] SET_CLI_EVENT_CANCEL_DATA()
713: 0x1103 [0x5B] LOAD_EXT_SCHEDULER: Load scheduler "tlk0" with entities [EventEntity, EventEntity], work=215*
714: 0x1112 [0x1D] PRINT_EVENT_MESSAGE(message_id=7937*)
    → "[Man/Lady]-person no want strong stabbything? Temprix no stop you, but no give back prettystones. Is bad deal."
715: 0x1115 [0x23] WAIT_FOR_DIALOG_INTERACTION
716: 0x1116 [0x5B] LOAD_EXT_SCHEDULER: Load scheduler "tlke" with entities [EventEntity, EventEntity], work=215*
717: 0x1125 [0x24] CREATE_DIALOG(message_id=7938*, default_option=1*, option_flags=0*)
    → "Really abandon everything? [Yes. I'm sick of this./No. I just need more time.]"
718: 0x112C [0x25] WAIT_DIALOG_SELECT()
719: 0x112D [0x02] IF !(Work_Zone[0] == 0*) GOTO 0x11AC
720: 0x1135 [0x5B] LOAD_EXT_SCHEDULER: Load scheduler "tlk0" with entities [EventEntity, EventEntity], work=215*
721: 0x1144 [0x1D] PRINT_EVENT_MESSAGE(message_id=7939*)
    → "Is what [man/lady]-person really want? What really really want?"
722: 0x1147 [0x23] WAIT_FOR_DIALOG_INTERACTION
723: 0x1148 [0x5B] LOAD_EXT_SCHEDULER: Load scheduler "tlke" with entities [EventEntity, EventEntity], work=215*
724: 0x1157 [0x24] CREATE_DIALOG(message_id=7940*, default_option=1*, option_flags=0*)
    → "Are you absolutely sure? [One hundred percent./Maybe not...]"
725: 0x115E [0x25] WAIT_DIALOG_SELECT()
726: 0x115F [0x02] IF !(Work_Zone[0] == 0*) GOTO 0x1195
727: 0x1167 [0x5B] LOAD_EXT_SCHEDULER: Load scheduler "tlk0" with entities [EventEntity, EventEntity], work=215*
728: 0x1176 [0x1D] PRINT_EVENT_MESSAGE(message_id=7941*)
    → "Is [man/lady]-person choice. Not Temprix. Temprix take back collection."
729: 0x1179 [0x23] WAIT_FOR_DIALOG_INTERACTION
730: 0x117A [0x5B] LOAD_EXT_SCHEDULER: Load scheduler "tlke" with entities [EventEntity, EventEntity], work=215*
731: 0x1189 [0x40] SET_BIT_WORK_RANGE(start_bit=0*, end_bit=5*, target=Work_Zone[1], source=30*)
732: 0x1192 [0x01] GOTO 0x11A9
733: 0x1195 [0x02] IF !(Work_Zone[0] == 1*) GOTO 0x11A9
734: 0x119D [0x40] SET_BIT_WORK_RANGE(start_bit=0*, end_bit=5*, target=Work_Zone[1], source=0*)
735: 0x11A6 [0x01] GOTO 0x11A9

SUBROUTINE_11A9:
736: 0x11A9 [0x01] GOTO 0x11C0
737: 0x11AC [0x02] IF !(Work_Zone[0] == 1*) GOTO 0x11C0
738: 0x11B4 [0x40] SET_BIT_WORK_RANGE(start_bit=0*, end_bit=5*, target=Work_Zone[1], source=0*)
739: 0x11BD [0x01] GOTO 0x11C0

SUBROUTINE_11C0:
740: 0x11C0 [0x01] GOTO 0x11D7
741: 0x11C3 [0x02] IF !(Work_Zone[0] == 2*) GOTO 0x11D7
742: 0x11CB [0x40] SET_BIT_WORK_RANGE(start_bit=0*, end_bit=5*, target=Work_Zone[1], source=0*)
743: 0x11D4 [0x01] GOTO 0x11D7

SUBROUTINE_11D7:
744: 0x11D7 [0x1B] RETURN
```

#### Data or dead code:

```
# Dead code (unreachable instructions):
     0x081F [0x01] GOTO 0x0822
```
