# 17970065

## Common Data

| Field            | Value                |
|------------------|----------------------|
| Zone             | Reisenjima (ID: 291) |
| Block Size       | 3676 bytes           |
| Total Events     | 189                  |
| References Count | 28                   |

## List of Events

| Event ID                     | Entrypoint   |   Size |   Instructions |
|------------------------------|--------------|--------|----------------|
| [65535](#event-65535)        | 0x0000       |      1 |              1 |
| [65535.1](#event-655351)     | 0x0001       |      9 |              3 |
| [65535.2](#event-655352)     | 0x000A       |     16 |              2 |
| [65535.3](#event-655353)     | 0x001A       |     14 |              2 |
| [65535.4](#event-655354)     | 0x0028       |     16 |              2 |
| [65535.5](#event-655355)     | 0x0038       |     14 |              2 |
| [65535.6](#event-655356)     | 0x0046       |     16 |              2 |
| [65535.7](#event-655357)     | 0x0056       |     17 |              3 |
| [65535.8](#event-655358)     | 0x0067       |     16 |              2 |
| [65535.9](#event-655359)     | 0x0077       |     17 |              3 |
| [65535.10](#event-6553510)   | 0x0088       |     16 |              2 |
| [65535.11](#event-6553511)   | 0x0098       |     14 |              2 |
| [65535.12](#event-6553512)   | 0x00A6       |     16 |              2 |
| [65535.13](#event-6553513)   | 0x00B6       |     14 |              2 |
| [65535.14](#event-6553514)   | 0x00C4       |     16 |              2 |
| [65535.15](#event-6553515)   | 0x00D4       |     14 |              2 |
| [65535.16](#event-6553516)   | 0x00E2       |     16 |              2 |
| [65535.17](#event-6553517)   | 0x00F2       |     14 |              2 |
| [65535.18](#event-6553518)   | 0x0100       |     16 |              2 |
| [65535.19](#event-6553519)   | 0x0110       |     14 |              2 |
| [65535.20](#event-6553520)   | 0x011E       |     16 |              2 |
| [65535.21](#event-6553521)   | 0x012E       |     14 |              2 |
| [65535.22](#event-6553522)   | 0x013C       |     16 |              2 |
| [65535.23](#event-6553523)   | 0x014C       |     14 |              2 |
| [65535.24](#event-6553524)   | 0x015A       |     16 |              2 |
| [65535.25](#event-6553525)   | 0x016A       |     14 |              2 |
| [65535.26](#event-6553526)   | 0x0178       |     16 |              2 |
| [65535.27](#event-6553527)   | 0x0188       |     14 |              2 |
| [65535.28](#event-6553528)   | 0x0196       |     16 |              2 |
| [65535.29](#event-6553529)   | 0x01A6       |     14 |              2 |
| [65535.30](#event-6553530)   | 0x01B4       |     16 |              2 |
| [65535.31](#event-6553531)   | 0x01C4       |     14 |              2 |
| [65535.32](#event-6553532)   | 0x01D2       |     16 |              2 |
| [65535.33](#event-6553533)   | 0x01E2       |     14 |              2 |
| [65535.34](#event-6553534)   | 0x01F0       |     16 |              2 |
| [65535.35](#event-6553535)   | 0x0200       |     14 |              2 |
| [65535.36](#event-6553536)   | 0x020E       |     16 |              2 |
| [65535.37](#event-6553537)   | 0x021E       |     14 |              2 |
| [65535.38](#event-6553538)   | 0x022C       |     16 |              2 |
| [65535.39](#event-6553539)   | 0x023C       |     14 |              2 |
| [65535.40](#event-6553540)   | 0x024A       |     16 |              2 |
| [65535.41](#event-6553541)   | 0x025A       |     14 |              2 |
| [65535.42](#event-6553542)   | 0x0268       |     16 |              2 |
| [65535.43](#event-6553543)   | 0x0278       |     14 |              2 |
| [65535.44](#event-6553544)   | 0x0286       |     16 |              2 |
| [65535.45](#event-6553545)   | 0x0296       |     14 |              2 |
| [65535.46](#event-6553546)   | 0x02A4       |     16 |              2 |
| [65535.47](#event-6553547)   | 0x02B4       |     14 |              2 |
| [65535.48](#event-6553548)   | 0x02C2       |     16 |              2 |
| [65535.49](#event-6553549)   | 0x02D2       |     14 |              2 |
| [65535.50](#event-6553550)   | 0x02E0       |     16 |              2 |
| [65535.51](#event-6553551)   | 0x02F0       |     14 |              2 |
| [65535.52](#event-6553552)   | 0x02FE       |     16 |              2 |
| [65535.53](#event-6553553)   | 0x030E       |     14 |              2 |
| [65535.54](#event-6553554)   | 0x031C       |     16 |              2 |
| [65535.55](#event-6553555)   | 0x032C       |     14 |              2 |
| [65535.56](#event-6553556)   | 0x033A       |     16 |              2 |
| [65535.57](#event-6553557)   | 0x034A       |     14 |              2 |
| [65535.58](#event-6553558)   | 0x0358       |     16 |              2 |
| [65535.59](#event-6553559)   | 0x0368       |     14 |              2 |
| [65535.60](#event-6553560)   | 0x0376       |     16 |              2 |
| [65535.61](#event-6553561)   | 0x0386       |     14 |              2 |
| [65535.62](#event-6553562)   | 0x0394       |     16 |              2 |
| [65535.63](#event-6553563)   | 0x03A4       |     14 |              2 |
| [65535.64](#event-6553564)   | 0x03B2       |     16 |              2 |
| [65535.65](#event-6553565)   | 0x03C2       |     14 |              2 |
| [65535.66](#event-6553566)   | 0x03D0       |     16 |              2 |
| [65535.67](#event-6553567)   | 0x03E0       |     14 |              2 |
| [65535.68](#event-6553568)   | 0x03EE       |     16 |              2 |
| [65535.69](#event-6553569)   | 0x03FE       |     14 |              2 |
| [65535.70](#event-6553570)   | 0x040C       |     16 |              2 |
| [65535.71](#event-6553571)   | 0x041C       |     14 |              2 |
| [65535.72](#event-6553572)   | 0x042A       |     16 |              2 |
| [65535.73](#event-6553573)   | 0x043A       |     14 |              2 |
| [65535.74](#event-6553574)   | 0x0448       |     16 |              2 |
| [65535.75](#event-6553575)   | 0x0458       |     14 |              2 |
| [65535.76](#event-6553576)   | 0x0466       |     16 |              2 |
| [65535.77](#event-6553577)   | 0x0476       |     14 |              2 |
| [65535.78](#event-6553578)   | 0x0484       |     16 |              2 |
| [65535.79](#event-6553579)   | 0x0494       |     14 |              2 |
| [65535.80](#event-6553580)   | 0x04A2       |     16 |              2 |
| [65535.81](#event-6553581)   | 0x04B2       |     14 |              2 |
| [65535.82](#event-6553582)   | 0x04C0       |     16 |              2 |
| [65535.83](#event-6553583)   | 0x04D0       |     14 |              2 |
| [65535.84](#event-6553584)   | 0x04DE       |     16 |              2 |
| [65535.85](#event-6553585)   | 0x04EE       |     14 |              2 |
| [65535.86](#event-6553586)   | 0x04FC       |     16 |              2 |
| [65535.87](#event-6553587)   | 0x050C       |     14 |              2 |
| [65535.88](#event-6553588)   | 0x051A       |     16 |              2 |
| [65535.89](#event-6553589)   | 0x052A       |     14 |              2 |
| [65535.90](#event-6553590)   | 0x0538       |     16 |              2 |
| [65535.91](#event-6553591)   | 0x0548       |     14 |              2 |
| [65535.92](#event-6553592)   | 0x0556       |     16 |              2 |
| [65535.93](#event-6553593)   | 0x0566       |     14 |              2 |
| [65535.94](#event-6553594)   | 0x0574       |     16 |              2 |
| [65535.95](#event-6553595)   | 0x0584       |     14 |              2 |
| [65535.96](#event-6553596)   | 0x0592       |     16 |              2 |
| [65535.97](#event-6553597)   | 0x05A2       |     14 |              2 |
| [65535.98](#event-6553598)   | 0x05B0       |     16 |              2 |
| [65535.99](#event-6553599)   | 0x05C0       |     14 |              2 |
| [65535.100](#event-65535100) | 0x05CE       |     16 |              2 |
| [65535.101](#event-65535101) | 0x05DE       |     14 |              2 |
| [65535.102](#event-65535102) | 0x05EC       |     28 |              4 |
| [65535.103](#event-65535103) | 0x0608       |     14 |              2 |
| [65535.104](#event-65535104) | 0x0616       |     16 |              2 |
| [65535.105](#event-65535105) | 0x0626       |     14 |              2 |
| [65535.106](#event-65535106) | 0x0634       |     16 |              2 |
| [65535.107](#event-65535107) | 0x0644       |     14 |              2 |
| [65535.108](#event-65535108) | 0x0652       |     16 |              2 |
| [65535.109](#event-65535109) | 0x0662       |     14 |              2 |
| [65535.110](#event-65535110) | 0x0670       |     16 |              2 |
| [65535.111](#event-65535111) | 0x0680       |     14 |              2 |
| [65535.112](#event-65535112) | 0x068E       |     16 |              2 |
| [65535.113](#event-65535113) | 0x069E       |     14 |              2 |
| [65535.114](#event-65535114) | 0x06AC       |     16 |              2 |
| [65535.115](#event-65535115) | 0x06BC       |     14 |              2 |
| [65535.116](#event-65535116) | 0x06CA       |     16 |              2 |
| [65535.117](#event-65535117) | 0x06DA       |     14 |              2 |
| [65535.118](#event-65535118) | 0x06E8       |     16 |              2 |
| [65535.119](#event-65535119) | 0x06F8       |     14 |              2 |
| [65535.120](#event-65535120) | 0x0706       |     16 |              2 |
| [65535.121](#event-65535121) | 0x0716       |     14 |              2 |
| [65535.122](#event-65535122) | 0x0724       |     16 |              2 |
| [65535.123](#event-65535123) | 0x0734       |     14 |              2 |
| [65535.124](#event-65535124) | 0x0742       |     16 |              2 |
| [65535.125](#event-65535125) | 0x0752       |     14 |              2 |
| [65535.126](#event-65535126) | 0x0760       |     16 |              2 |
| [65535.127](#event-65535127) | 0x0770       |     14 |              2 |
| [65535.128](#event-65535128) | 0x077E       |     16 |              2 |
| [65535.129](#event-65535129) | 0x078E       |     14 |              2 |
| [65535.130](#event-65535130) | 0x079C       |     16 |              2 |
| [65535.131](#event-65535131) | 0x07AC       |     14 |              2 |
| [65535.132](#event-65535132) | 0x07BA       |     16 |              2 |
| [65535.133](#event-65535133) | 0x07CA       |     14 |              2 |
| [65535.134](#event-65535134) | 0x07D8       |     16 |              2 |
| [65535.135](#event-65535135) | 0x07E8       |     14 |              2 |
| [65535.136](#event-65535136) | 0x07F6       |     16 |              2 |
| [65535.137](#event-65535137) | 0x0806       |     14 |              2 |
| [65535.138](#event-65535138) | 0x0814       |     16 |              2 |
| [65535.139](#event-65535139) | 0x0824       |     14 |              2 |
| [65535.140](#event-65535140) | 0x0832       |     16 |              2 |
| [65535.141](#event-65535141) | 0x0842       |     14 |              2 |
| [65535.142](#event-65535142) | 0x0850       |     16 |              2 |
| [65535.143](#event-65535143) | 0x0860       |     14 |              2 |
| [65535.144](#event-65535144) | 0x086E       |     16 |              2 |
| [65535.145](#event-65535145) | 0x087E       |     14 |              2 |
| [65535.146](#event-65535146) | 0x088C       |     16 |              2 |
| [65535.147](#event-65535147) | 0x089C       |     14 |              2 |
| [65535.148](#event-65535148) | 0x08AA       |     16 |              2 |
| [65535.149](#event-65535149) | 0x08BA       |     14 |              2 |
| [65535.150](#event-65535150) | 0x08C8       |     16 |              2 |
| [65535.151](#event-65535151) | 0x08D8       |     14 |              2 |
| [65535.152](#event-65535152) | 0x08E6       |     16 |              2 |
| [65535.153](#event-65535153) | 0x08F6       |     14 |              2 |
| [65535.154](#event-65535154) | 0x0904       |     16 |              2 |
| [65535.155](#event-65535155) | 0x0914       |     14 |              2 |
| [65535.156](#event-65535156) | 0x0922       |     16 |              2 |
| [65535.157](#event-65535157) | 0x0932       |     14 |              2 |
| [65535.158](#event-65535158) | 0x0940       |     16 |              2 |
| [65535.159](#event-65535159) | 0x0950       |     14 |              2 |
| [65535.160](#event-65535160) | 0x095E       |     16 |              2 |
| [65535.161](#event-65535161) | 0x096E       |     14 |              2 |
| [65535.162](#event-65535162) | 0x097C       |     16 |              2 |
| [65535.163](#event-65535163) | 0x098C       |     14 |              2 |
| [65535.164](#event-65535164) | 0x099A       |     16 |              2 |
| [65535.165](#event-65535165) | 0x09AA       |     14 |              2 |
| [65535.166](#event-65535166) | 0x09B8       |     16 |              2 |
| [65535.167](#event-65535167) | 0x09C8       |     14 |              2 |
| [65535.168](#event-65535168) | 0x09D6       |     16 |              2 |
| [65535.169](#event-65535169) | 0x09E6       |     14 |              2 |
| [65535.170](#event-65535170) | 0x09F4       |     16 |              2 |
| [65535.171](#event-65535171) | 0x0A04       |     14 |              2 |
| [65535.172](#event-65535172) | 0x0A12       |     16 |              2 |
| [65535.173](#event-65535173) | 0x0A22       |     14 |              2 |
| [65535.174](#event-65535174) | 0x0A30       |     16 |              2 |
| [65535.175](#event-65535175) | 0x0A40       |     14 |              2 |
| [65535.176](#event-65535176) | 0x0A4E       |     16 |              2 |
| [65535.177](#event-65535177) | 0x0A5E       |     14 |              2 |
| [65535.178](#event-65535178) | 0x0A6C       |     16 |              2 |
| [65535.179](#event-65535179) | 0x0A7C       |     14 |              2 |
| [65535.180](#event-65535180) | 0x0A8A       |      7 |              3 |
| [65535.181](#event-65535181) | 0x0A91       |      7 |              3 |
| [65535.182](#event-65535182) | 0x0A98       |     18 |              3 |
| [65535.183](#event-65535183) | 0x0AAA       |      5 |              2 |
| [65535.184](#event-65535184) | 0x0AAF       |     18 |              2 |
| [65535.185](#event-65535185) | 0x0AC1       |     18 |              2 |
| [33](#event-33)              | 0x0AD3       |      7 |              2 |
| [42](#event-42)              | 0x0ADA       |      7 |              2 |
| [52](#event-52)              | 0x0AE1       |      7 |              2 |

## DAT References (imed_data)

|   Index | Hex Value   |   Dec Value |
|---------|-------------|-------------|
|       0 | 0x001E      |          30 |
|       1 | 0x00FE      |         254 |
|       2 | 0x0358      |         856 |
|       3 | 0x0318      |         792 |
|       4 | 0x05F2      |        1522 |
|       5 | 0x0357      |         855 |
|       6 | 0x03CB      |         971 |
|       7 | 0x0457      |        1111 |
|       8 | 0x0402      |        1026 |
|       9 | 0x0401      |        1025 |
|      10 | 0x0403      |        1027 |
|      11 | 0x05F4      |        1524 |
|      12 | 0x05F6      |        1526 |
|      13 | 0x0C45      |        3141 |
|      14 | 0x04F1      |        1265 |
|      15 | 0x04F0      |        1264 |
|      16 | 0x0C46      |        3142 |
|      17 | 0x05F3      |        1523 |
|      18 | 0x05F5      |        1525 |
|      19 | 0x00D7      |         215 |
|      20 | 0x0866      |        2150 |
|      21 | 0x00D8      |         216 |
|      22 | 0x00DA      |         218 |
|      23 | 0x0001      |           1 |
|      24 | 0x0000      |           0 |
|      25 | 0x0C55      |        3157 |
|      26 | 0x0250      |         592 |
|      27 | 0x0091      |         145 |

## Events

### Event 65535

#### Metadata

| Field        | Value   |
|--------------|---------|
| Entrypoint   | 0x0000  |
| Data Size    | 1 bytes |
| Instructions | 1       |

```
      00 01 02 03 04 05 06 07  08 09 0A 0B 0C 0D 0E 0F
      -- -- -- -- -- -- -- --  -- -- -- -- -- -- -- --
0000: 00                                                .               
```

#### Opcodes

```
  0: 0x0000 [0x00] END_REQSTACK()
```

### Event 65535.1

#### Metadata

| Field        | Value   |
|--------------|---------|
| Entrypoint   | 0x0001  |
| Data Size    | 9 bytes |
| Instructions | 3       |

```
      00 01 02 03 04 05 06 07  08 09 0A 0B 0C 0D 0E 0F
      -- -- -- -- -- -- -- --  -- -- -- -- -- -- -- --
0000:    5E 69 64 6C 30 1C 00  80 00                     ^idl0....      
```

#### Opcodes

```
  0: 0x0001 [0x5E] EventEntity goes idle (kills current action) (animation: "idl0")
  1: 0x0006 [0x1C] WAIT(30* ticks)
  2: 0x0009 [0x00] END_REQSTACK()
```

### Event 65535.2

#### Metadata

| Field        | Value    |
|--------------|----------|
| Entrypoint   | 0x000A   |
| Data Size    | 16 bytes |
| Instructions | 2        |

```
      00 01 02 03 04 05 06 07  08 09 0A 0B 0C 0D 0E 0F
      -- -- -- -- -- -- -- --  -- -- -- -- -- -- -- --
0000:                                5B 01 80 F8 FF FF            [.....
0010: 7F F8 FF FF 7F 74 6C 6B  30 00                    .....tlk0.      
```

#### Opcodes

```
  0: 0x000A [0x5B] LOAD_EXT_SCHEDULER: Load scheduler "tlk0" with entities [EventEntity, EventEntity], work=254*
  1: 0x0019 [0x00] END_REQSTACK()
```

### Event 65535.3

#### Metadata

| Field        | Value    |
|--------------|----------|
| Entrypoint   | 0x001A   |
| Data Size    | 14 bytes |
| Instructions | 2        |

```
      00 01 02 03 04 05 06 07  08 09 0A 0B 0C 0D 0E 0F
      -- -- -- -- -- -- -- --  -- -- -- -- -- -- -- --
0010:                                53 F8 FF FF 7F F8            S.....
0020: FF FF 7F 74 6C 6B 30 00                           ...tlk0.        
```

#### Opcodes

```
  0: 0x001A [0x53] WAIT_SCHEDULER_TASK: Wait for scheduler "tlk0" with entities [EventEntity, EventEntity]
  1: 0x0027 [0x00] END_REQSTACK()
```

### Event 65535.4

#### Metadata

| Field        | Value    |
|--------------|----------|
| Entrypoint   | 0x0028   |
| Data Size    | 16 bytes |
| Instructions | 2        |

```
      00 01 02 03 04 05 06 07  08 09 0A 0B 0C 0D 0E 0F
      -- -- -- -- -- -- -- --  -- -- -- -- -- -- -- --
0020:                          5B 01 80 F8 FF FF 7F F8          [.......
0030: FF FF 7F 74 6C 6B 31 00                           ...tlk1.        
```

#### Opcodes

```
  0: 0x0028 [0x5B] LOAD_EXT_SCHEDULER: Load scheduler "tlk1" with entities [EventEntity, EventEntity], work=254*
  1: 0x0037 [0x00] END_REQSTACK()
```

### Event 65535.5

#### Metadata

| Field        | Value    |
|--------------|----------|
| Entrypoint   | 0x0038   |
| Data Size    | 14 bytes |
| Instructions | 2        |

```
      00 01 02 03 04 05 06 07  08 09 0A 0B 0C 0D 0E 0F
      -- -- -- -- -- -- -- --  -- -- -- -- -- -- -- --
0030:                          53 F8 FF FF 7F F8 FF FF          S.......
0040: 7F 74 6C 6B 30 00                                 .tlk0.          
```

#### Opcodes

```
  0: 0x0038 [0x53] WAIT_SCHEDULER_TASK: Wait for scheduler "tlk0" with entities [EventEntity, EventEntity]
  1: 0x0045 [0x00] END_REQSTACK()
```

### Event 65535.6

#### Metadata

| Field        | Value    |
|--------------|----------|
| Entrypoint   | 0x0046   |
| Data Size    | 16 bytes |
| Instructions | 2        |

```
      00 01 02 03 04 05 06 07  08 09 0A 0B 0C 0D 0E 0F
      -- -- -- -- -- -- -- --  -- -- -- -- -- -- -- --
0040:                   5B 02  80 F8 FF FF 7F F8 FF FF        [.........
0050: 7F 74 6C 62 30 00                                 .tlb0.          
```

#### Opcodes

```
  0: 0x0046 [0x5B] LOAD_EXT_SCHEDULER: Load scheduler "tlb0" with entities [EventEntity, EventEntity], work=856*
  1: 0x0055 [0x00] END_REQSTACK()
```

### Event 65535.7

#### Metadata

| Field        | Value    |
|--------------|----------|
| Entrypoint   | 0x0056   |
| Data Size    | 17 bytes |
| Instructions | 3        |

```
      00 01 02 03 04 05 06 07  08 09 0A 0B 0C 0D 0E 0F
      -- -- -- -- -- -- -- --  -- -- -- -- -- -- -- --
0050:                   53 F8  FF FF 7F F8 FF FF 7F 74        S........t
0060: 6C 62 30 1C 00 80 00                              lb0....         
```

#### Opcodes

```
  0: 0x0056 [0x53] WAIT_SCHEDULER_TASK: Wait for scheduler "tlb0" with entities [EventEntity, EventEntity]
  1: 0x0063 [0x1C] WAIT(30* ticks)
  2: 0x0066 [0x00] END_REQSTACK()
```

### Event 65535.8

#### Metadata

| Field        | Value    |
|--------------|----------|
| Entrypoint   | 0x0067   |
| Data Size    | 16 bytes |
| Instructions | 2        |

```
      00 01 02 03 04 05 06 07  08 09 0A 0B 0C 0D 0E 0F
      -- -- -- -- -- -- -- --  -- -- -- -- -- -- -- --
0060:                      5B  02 80 F8 FF FF 7F F8 FF         [........
0070: FF 7F 64 65 66 30 00                              ..def0.         
```

#### Opcodes

```
  0: 0x0067 [0x5B] LOAD_EXT_SCHEDULER: Load scheduler "def0" with entities [EventEntity, EventEntity], work=856*
  1: 0x0076 [0x00] END_REQSTACK()
```

### Event 65535.9

#### Metadata

| Field        | Value    |
|--------------|----------|
| Entrypoint   | 0x0077   |
| Data Size    | 17 bytes |
| Instructions | 3        |

```
      00 01 02 03 04 05 06 07  08 09 0A 0B 0C 0D 0E 0F
      -- -- -- -- -- -- -- --  -- -- -- -- -- -- -- --
0070:                      53  F8 FF FF 7F F8 FF FF 7F         S........
0080: 64 65 66 30 1C 00 80 00                           def0....        
```

#### Opcodes

```
  0: 0x0077 [0x53] WAIT_SCHEDULER_TASK: Wait for scheduler "def0" with entities [EventEntity, EventEntity]
  1: 0x0084 [0x1C] WAIT(30* ticks)
  2: 0x0087 [0x00] END_REQSTACK()
```

### Event 65535.10

#### Metadata

| Field        | Value    |
|--------------|----------|
| Entrypoint   | 0x0088   |
| Data Size    | 16 bytes |
| Instructions | 2        |

```
      00 01 02 03 04 05 06 07  08 09 0A 0B 0C 0D 0E 0F
      -- -- -- -- -- -- -- --  -- -- -- -- -- -- -- --
0080:                          5B 03 80 F8 FF FF 7F F8          [.......
0090: FF FF 7F 74 6C 6B 30 00                           ...tlk0.        
```

#### Opcodes

```
  0: 0x0088 [0x5B] LOAD_EXT_SCHEDULER: Load scheduler "tlk0" with entities [EventEntity, EventEntity], work=792*
  1: 0x0097 [0x00] END_REQSTACK()
```

### Event 65535.11

#### Metadata

| Field        | Value    |
|--------------|----------|
| Entrypoint   | 0x0098   |
| Data Size    | 14 bytes |
| Instructions | 2        |

```
      00 01 02 03 04 05 06 07  08 09 0A 0B 0C 0D 0E 0F
      -- -- -- -- -- -- -- --  -- -- -- -- -- -- -- --
0090:                          53 F8 FF FF 7F F8 FF FF          S.......
00A0: 7F 74 6C 6B 30 00                                 .tlk0.          
```

#### Opcodes

```
  0: 0x0098 [0x53] WAIT_SCHEDULER_TASK: Wait for scheduler "tlk0" with entities [EventEntity, EventEntity]
  1: 0x00A5 [0x00] END_REQSTACK()
```

### Event 65535.12

#### Metadata

| Field        | Value    |
|--------------|----------|
| Entrypoint   | 0x00A6   |
| Data Size    | 16 bytes |
| Instructions | 2        |

```
      00 01 02 03 04 05 06 07  08 09 0A 0B 0C 0D 0E 0F
      -- -- -- -- -- -- -- --  -- -- -- -- -- -- -- --
00A0:                   5B 03  80 F8 FF FF 7F F8 FF FF        [.........
00B0: 7F 74 6C 6B 31 00                                 .tlk1.          
```

#### Opcodes

```
  0: 0x00A6 [0x5B] LOAD_EXT_SCHEDULER: Load scheduler "tlk1" with entities [EventEntity, EventEntity], work=792*
  1: 0x00B5 [0x00] END_REQSTACK()
```

### Event 65535.13

#### Metadata

| Field        | Value    |
|--------------|----------|
| Entrypoint   | 0x00B6   |
| Data Size    | 14 bytes |
| Instructions | 2        |

```
      00 01 02 03 04 05 06 07  08 09 0A 0B 0C 0D 0E 0F
      -- -- -- -- -- -- -- --  -- -- -- -- -- -- -- --
00B0:                   53 F8  FF FF 7F F8 FF FF 7F 74        S........t
00C0: 6C 6B 31 00                                       lk1.            
```

#### Opcodes

```
  0: 0x00B6 [0x53] WAIT_SCHEDULER_TASK: Wait for scheduler "tlk1" with entities [EventEntity, EventEntity]
  1: 0x00C3 [0x00] END_REQSTACK()
```

### Event 65535.14

#### Metadata

| Field        | Value    |
|--------------|----------|
| Entrypoint   | 0x00C4   |
| Data Size    | 16 bytes |
| Instructions | 2        |

```
      00 01 02 03 04 05 06 07  08 09 0A 0B 0C 0D 0E 0F
      -- -- -- -- -- -- -- --  -- -- -- -- -- -- -- --
00C0:             5B 01 80 F8  FF FF 7F F8 FF FF 7F 74      [..........t
00D0: 68 6B 30 00                                       hk0.            
```

#### Opcodes

```
  0: 0x00C4 [0x5B] LOAD_EXT_SCHEDULER: Load scheduler "thk0" with entities [EventEntity, EventEntity], work=254*
  1: 0x00D3 [0x00] END_REQSTACK()
```

### Event 65535.15

#### Metadata

| Field        | Value    |
|--------------|----------|
| Entrypoint   | 0x00D4   |
| Data Size    | 14 bytes |
| Instructions | 2        |

```
      00 01 02 03 04 05 06 07  08 09 0A 0B 0C 0D 0E 0F
      -- -- -- -- -- -- -- --  -- -- -- -- -- -- -- --
00D0:             53 F8 FF FF  7F F8 FF FF 7F 74 68 6B      S........thk
00E0: 30 00                                             0.              
```

#### Opcodes

```
  0: 0x00D4 [0x53] WAIT_SCHEDULER_TASK: Wait for scheduler "thk0" with entities [EventEntity, EventEntity]
  1: 0x00E1 [0x00] END_REQSTACK()
```

### Event 65535.16

#### Metadata

| Field        | Value    |
|--------------|----------|
| Entrypoint   | 0x00E2   |
| Data Size    | 16 bytes |
| Instructions | 2        |

```
      00 01 02 03 04 05 06 07  08 09 0A 0B 0C 0D 0E 0F
      -- -- -- -- -- -- -- --  -- -- -- -- -- -- -- --
00E0:       5B 01 80 F8 FF FF  7F F8 FF FF 7F 74 68 6B    [..........thk
00F0: 31 00                                             1.              
```

#### Opcodes

```
  0: 0x00E2 [0x5B] LOAD_EXT_SCHEDULER: Load scheduler "thk1" with entities [EventEntity, EventEntity], work=254*
  1: 0x00F1 [0x00] END_REQSTACK()
```

### Event 65535.17

#### Metadata

| Field        | Value    |
|--------------|----------|
| Entrypoint   | 0x00F2   |
| Data Size    | 14 bytes |
| Instructions | 2        |

```
      00 01 02 03 04 05 06 07  08 09 0A 0B 0C 0D 0E 0F
      -- -- -- -- -- -- -- --  -- -- -- -- -- -- -- --
00F0:       53 F8 FF FF 7F F8  FF FF 7F 74 68 6B 31 00    S........thk1.
```

#### Opcodes

```
  0: 0x00F2 [0x53] WAIT_SCHEDULER_TASK: Wait for scheduler "thk1" with entities [EventEntity, EventEntity]
  1: 0x00FF [0x00] END_REQSTACK()
```

### Event 65535.18

#### Metadata

| Field        | Value    |
|--------------|----------|
| Entrypoint   | 0x0100   |
| Data Size    | 16 bytes |
| Instructions | 2        |

```
      00 01 02 03 04 05 06 07  08 09 0A 0B 0C 0D 0E 0F
      -- -- -- -- -- -- -- --  -- -- -- -- -- -- -- --
0100: 5B 01 80 F8 FF FF 7F F8  FF FF 7F 6B 6F 6D 30 00  [..........kom0.
```

#### Opcodes

```
  0: 0x0100 [0x5B] LOAD_EXT_SCHEDULER: Load scheduler "kom0" with entities [EventEntity, EventEntity], work=254*
  1: 0x010F [0x00] END_REQSTACK()
```

### Event 65535.19

#### Metadata

| Field        | Value    |
|--------------|----------|
| Entrypoint   | 0x0110   |
| Data Size    | 14 bytes |
| Instructions | 2        |

```
      00 01 02 03 04 05 06 07  08 09 0A 0B 0C 0D 0E 0F
      -- -- -- -- -- -- -- --  -- -- -- -- -- -- -- --
0110: 53 F8 FF FF 7F F8 FF FF  7F 6B 6F 6D 30 00        S........kom0.  
```

#### Opcodes

```
  0: 0x0110 [0x53] WAIT_SCHEDULER_TASK: Wait for scheduler "kom0" with entities [EventEntity, EventEntity]
  1: 0x011D [0x00] END_REQSTACK()
```

### Event 65535.20

#### Metadata

| Field        | Value    |
|--------------|----------|
| Entrypoint   | 0x011E   |
| Data Size    | 16 bytes |
| Instructions | 2        |

```
      00 01 02 03 04 05 06 07  08 09 0A 0B 0C 0D 0E 0F
      -- -- -- -- -- -- -- --  -- -- -- -- -- -- -- --
0110:                                            5B 01                [.
0120: 80 F8 FF FF 7F F8 FF FF  7F 6B 6F 6D 31 00        .........kom1.  
```

#### Opcodes

```
  0: 0x011E [0x5B] LOAD_EXT_SCHEDULER: Load scheduler "kom1" with entities [EventEntity, EventEntity], work=254*
  1: 0x012D [0x00] END_REQSTACK()
```

### Event 65535.21

#### Metadata

| Field        | Value    |
|--------------|----------|
| Entrypoint   | 0x012E   |
| Data Size    | 14 bytes |
| Instructions | 2        |

```
      00 01 02 03 04 05 06 07  08 09 0A 0B 0C 0D 0E 0F
      -- -- -- -- -- -- -- --  -- -- -- -- -- -- -- --
0120:                                            53 F8                S.
0130: FF FF 7F F8 FF FF 7F 6B  6F 6D 31 00              .......kom1.    
```

#### Opcodes

```
  0: 0x012E [0x53] WAIT_SCHEDULER_TASK: Wait for scheduler "kom1" with entities [EventEntity, EventEntity]
  1: 0x013B [0x00] END_REQSTACK()
```

### Event 65535.22

#### Metadata

| Field        | Value    |
|--------------|----------|
| Entrypoint   | 0x013C   |
| Data Size    | 16 bytes |
| Instructions | 2        |

```
      00 01 02 03 04 05 06 07  08 09 0A 0B 0C 0D 0E 0F
      -- -- -- -- -- -- -- --  -- -- -- -- -- -- -- --
0130:                                      5B 01 80 F8              [...
0140: FF FF 7F F8 FF FF 7F 70  6E 74 30 00              .......pnt0.    
```

#### Opcodes

```
  0: 0x013C [0x5B] LOAD_EXT_SCHEDULER: Load scheduler "pnt0" with entities [EventEntity, EventEntity], work=254*
  1: 0x014B [0x00] END_REQSTACK()
```

### Event 65535.23

#### Metadata

| Field        | Value    |
|--------------|----------|
| Entrypoint   | 0x014C   |
| Data Size    | 14 bytes |
| Instructions | 2        |

```
      00 01 02 03 04 05 06 07  08 09 0A 0B 0C 0D 0E 0F
      -- -- -- -- -- -- -- --  -- -- -- -- -- -- -- --
0140:                                      53 F8 FF FF              S...
0150: 7F F8 FF FF 7F 70 6E 74  30 00                    .....pnt0.      
```

#### Opcodes

```
  0: 0x014C [0x53] WAIT_SCHEDULER_TASK: Wait for scheduler "pnt0" with entities [EventEntity, EventEntity]
  1: 0x0159 [0x00] END_REQSTACK()
```

### Event 65535.24

#### Metadata

| Field        | Value    |
|--------------|----------|
| Entrypoint   | 0x015A   |
| Data Size    | 16 bytes |
| Instructions | 2        |

```
      00 01 02 03 04 05 06 07  08 09 0A 0B 0C 0D 0E 0F
      -- -- -- -- -- -- -- --  -- -- -- -- -- -- -- --
0150:                                5B 01 80 F8 FF FF            [.....
0160: 7F F8 FF FF 7F 70 6E 74  31 00                    .....pnt1.      
```

#### Opcodes

```
  0: 0x015A [0x5B] LOAD_EXT_SCHEDULER: Load scheduler "pnt1" with entities [EventEntity, EventEntity], work=254*
  1: 0x0169 [0x00] END_REQSTACK()
```

### Event 65535.25

#### Metadata

| Field        | Value    |
|--------------|----------|
| Entrypoint   | 0x016A   |
| Data Size    | 14 bytes |
| Instructions | 2        |

```
      00 01 02 03 04 05 06 07  08 09 0A 0B 0C 0D 0E 0F
      -- -- -- -- -- -- -- --  -- -- -- -- -- -- -- --
0160:                                53 F8 FF FF 7F F8            S.....
0170: FF FF 7F 70 6E 74 31 00                           ...pnt1.        
```

#### Opcodes

```
  0: 0x016A [0x53] WAIT_SCHEDULER_TASK: Wait for scheduler "pnt1" with entities [EventEntity, EventEntity]
  1: 0x0177 [0x00] END_REQSTACK()
```

### Event 65535.26

#### Metadata

| Field        | Value    |
|--------------|----------|
| Entrypoint   | 0x0178   |
| Data Size    | 16 bytes |
| Instructions | 2        |

```
      00 01 02 03 04 05 06 07  08 09 0A 0B 0C 0D 0E 0F
      -- -- -- -- -- -- -- --  -- -- -- -- -- -- -- --
0170:                          5B 01 80 F8 FF FF 7F F8          [.......
0180: FF FF 7F 70 61 73 30 00                           ...pas0.        
```

#### Opcodes

```
  0: 0x0178 [0x5B] LOAD_EXT_SCHEDULER: Load scheduler "pas0" with entities [EventEntity, EventEntity], work=254*
  1: 0x0187 [0x00] END_REQSTACK()
```

### Event 65535.27

#### Metadata

| Field        | Value    |
|--------------|----------|
| Entrypoint   | 0x0188   |
| Data Size    | 14 bytes |
| Instructions | 2        |

```
      00 01 02 03 04 05 06 07  08 09 0A 0B 0C 0D 0E 0F
      -- -- -- -- -- -- -- --  -- -- -- -- -- -- -- --
0180:                          53 F8 FF FF 7F F8 FF FF          S.......
0190: 7F 70 61 73 30 00                                 .pas0.          
```

#### Opcodes

```
  0: 0x0188 [0x53] WAIT_SCHEDULER_TASK: Wait for scheduler "pas0" with entities [EventEntity, EventEntity]
  1: 0x0195 [0x00] END_REQSTACK()
```

### Event 65535.28

#### Metadata

| Field        | Value    |
|--------------|----------|
| Entrypoint   | 0x0196   |
| Data Size    | 16 bytes |
| Instructions | 2        |

```
      00 01 02 03 04 05 06 07  08 09 0A 0B 0C 0D 0E 0F
      -- -- -- -- -- -- -- --  -- -- -- -- -- -- -- --
0190:                   5B 04  80 F8 FF FF 7F F8 FF FF        [.........
01A0: 7F 70 61 73 30 00                                 .pas0.          
```

#### Opcodes

```
  0: 0x0196 [0x5B] LOAD_EXT_SCHEDULER: Load scheduler "pas0" with entities [EventEntity, EventEntity], work=1522*
  1: 0x01A5 [0x00] END_REQSTACK()
```

### Event 65535.29

#### Metadata

| Field        | Value    |
|--------------|----------|
| Entrypoint   | 0x01A6   |
| Data Size    | 14 bytes |
| Instructions | 2        |

```
      00 01 02 03 04 05 06 07  08 09 0A 0B 0C 0D 0E 0F
      -- -- -- -- -- -- -- --  -- -- -- -- -- -- -- --
01A0:                   53 F8  FF FF 7F F8 FF FF 7F 70        S........p
01B0: 61 73 30 00                                       as0.            
```

#### Opcodes

```
  0: 0x01A6 [0x53] WAIT_SCHEDULER_TASK: Wait for scheduler "pas0" with entities [EventEntity, EventEntity]
  1: 0x01B3 [0x00] END_REQSTACK()
```

### Event 65535.30

#### Metadata

| Field        | Value    |
|--------------|----------|
| Entrypoint   | 0x01B4   |
| Data Size    | 16 bytes |
| Instructions | 2        |

```
      00 01 02 03 04 05 06 07  08 09 0A 0B 0C 0D 0E 0F
      -- -- -- -- -- -- -- --  -- -- -- -- -- -- -- --
01B0:             5B 04 80 F8  FF FF 7F F8 FF FF 7F 70      [..........p
01C0: 61 73 31 00                                       as1.            
```

#### Opcodes

```
  0: 0x01B4 [0x5B] LOAD_EXT_SCHEDULER: Load scheduler "pas1" with entities [EventEntity, EventEntity], work=1522*
  1: 0x01C3 [0x00] END_REQSTACK()
```

### Event 65535.31

#### Metadata

| Field        | Value    |
|--------------|----------|
| Entrypoint   | 0x01C4   |
| Data Size    | 14 bytes |
| Instructions | 2        |

```
      00 01 02 03 04 05 06 07  08 09 0A 0B 0C 0D 0E 0F
      -- -- -- -- -- -- -- --  -- -- -- -- -- -- -- --
01C0:             53 F8 FF FF  7F F8 FF FF 7F 70 61 73      S........pas
01D0: 31 00                                             1.              
```

#### Opcodes

```
  0: 0x01C4 [0x53] WAIT_SCHEDULER_TASK: Wait for scheduler "pas1" with entities [EventEntity, EventEntity]
  1: 0x01D1 [0x00] END_REQSTACK()
```

### Event 65535.32

#### Metadata

| Field        | Value    |
|--------------|----------|
| Entrypoint   | 0x01D2   |
| Data Size    | 16 bytes |
| Instructions | 2        |

```
      00 01 02 03 04 05 06 07  08 09 0A 0B 0C 0D 0E 0F
      -- -- -- -- -- -- -- --  -- -- -- -- -- -- -- --
01D0:       5B 05 80 F8 FF FF  7F F8 FF FF 7F 6F 64 6F    [..........odo
01E0: 30 00                                             0.              
```

#### Opcodes

```
  0: 0x01D2 [0x5B] LOAD_EXT_SCHEDULER: Load scheduler "odo0" with entities [EventEntity, EventEntity], work=855*
  1: 0x01E1 [0x00] END_REQSTACK()
```

### Event 65535.33

#### Metadata

| Field        | Value    |
|--------------|----------|
| Entrypoint   | 0x01E2   |
| Data Size    | 14 bytes |
| Instructions | 2        |

```
      00 01 02 03 04 05 06 07  08 09 0A 0B 0C 0D 0E 0F
      -- -- -- -- -- -- -- --  -- -- -- -- -- -- -- --
01E0:       53 F8 FF FF 7F F8  FF FF 7F 6F 64 6F 30 00    S........odo0.
```

#### Opcodes

```
  0: 0x01E2 [0x53] WAIT_SCHEDULER_TASK: Wait for scheduler "odo0" with entities [EventEntity, EventEntity]
  1: 0x01EF [0x00] END_REQSTACK()
```

### Event 65535.34

#### Metadata

| Field        | Value    |
|--------------|----------|
| Entrypoint   | 0x01F0   |
| Data Size    | 16 bytes |
| Instructions | 2        |

```
      00 01 02 03 04 05 06 07  08 09 0A 0B 0C 0D 0E 0F
      -- -- -- -- -- -- -- --  -- -- -- -- -- -- -- --
01F0: 5B 05 80 F8 FF FF 7F F8  FF FF 7F 6F 64 6F 31 00  [..........odo1.
```

#### Opcodes

```
  0: 0x01F0 [0x5B] LOAD_EXT_SCHEDULER: Load scheduler "odo1" with entities [EventEntity, EventEntity], work=855*
  1: 0x01FF [0x00] END_REQSTACK()
```

### Event 65535.35

#### Metadata

| Field        | Value    |
|--------------|----------|
| Entrypoint   | 0x0200   |
| Data Size    | 14 bytes |
| Instructions | 2        |

```
      00 01 02 03 04 05 06 07  08 09 0A 0B 0C 0D 0E 0F
      -- -- -- -- -- -- -- --  -- -- -- -- -- -- -- --
0200: 53 F8 FF FF 7F F8 FF FF  7F 6F 64 6F 31 00        S........odo1.  
```

#### Opcodes

```
  0: 0x0200 [0x53] WAIT_SCHEDULER_TASK: Wait for scheduler "odo1" with entities [EventEntity, EventEntity]
  1: 0x020D [0x00] END_REQSTACK()
```

### Event 65535.36

#### Metadata

| Field        | Value    |
|--------------|----------|
| Entrypoint   | 0x020E   |
| Data Size    | 16 bytes |
| Instructions | 2        |

```
      00 01 02 03 04 05 06 07  08 09 0A 0B 0C 0D 0E 0F
      -- -- -- -- -- -- -- --  -- -- -- -- -- -- -- --
0200:                                            5B 06                [.
0210: 80 F8 FF FF 7F F8 FF FF  7F 68 73 61 30 00        .........hsa0.  
```

#### Opcodes

```
  0: 0x020E [0x5B] LOAD_EXT_SCHEDULER: Load scheduler "hsa0" with entities [EventEntity, EventEntity], work=971*
  1: 0x021D [0x00] END_REQSTACK()
```

### Event 65535.37

#### Metadata

| Field        | Value    |
|--------------|----------|
| Entrypoint   | 0x021E   |
| Data Size    | 14 bytes |
| Instructions | 2        |

```
      00 01 02 03 04 05 06 07  08 09 0A 0B 0C 0D 0E 0F
      -- -- -- -- -- -- -- --  -- -- -- -- -- -- -- --
0210:                                            53 F8                S.
0220: FF FF 7F F8 FF FF 7F 68  73 61 30 00              .......hsa0.    
```

#### Opcodes

```
  0: 0x021E [0x53] WAIT_SCHEDULER_TASK: Wait for scheduler "hsa0" with entities [EventEntity, EventEntity]
  1: 0x022B [0x00] END_REQSTACK()
```

### Event 65535.38

#### Metadata

| Field        | Value    |
|--------------|----------|
| Entrypoint   | 0x022C   |
| Data Size    | 16 bytes |
| Instructions | 2        |

```
      00 01 02 03 04 05 06 07  08 09 0A 0B 0C 0D 0E 0F
      -- -- -- -- -- -- -- --  -- -- -- -- -- -- -- --
0220:                                      5B 06 80 F8              [...
0230: FF FF 7F F8 FF FF 7F 73  6F 75 30 00              .......sou0.    
```

#### Opcodes

```
  0: 0x022C [0x5B] LOAD_EXT_SCHEDULER: Load scheduler "sou0" with entities [EventEntity, EventEntity], work=971*
  1: 0x023B [0x00] END_REQSTACK()
```

### Event 65535.39

#### Metadata

| Field        | Value    |
|--------------|----------|
| Entrypoint   | 0x023C   |
| Data Size    | 14 bytes |
| Instructions | 2        |

```
      00 01 02 03 04 05 06 07  08 09 0A 0B 0C 0D 0E 0F
      -- -- -- -- -- -- -- --  -- -- -- -- -- -- -- --
0230:                                      53 F8 FF FF              S...
0240: 7F F8 FF FF 7F 73 6F 75  30 00                    .....sou0.      
```

#### Opcodes

```
  0: 0x023C [0x53] WAIT_SCHEDULER_TASK: Wait for scheduler "sou0" with entities [EventEntity, EventEntity]
  1: 0x0249 [0x00] END_REQSTACK()
```

### Event 65535.40

#### Metadata

| Field        | Value    |
|--------------|----------|
| Entrypoint   | 0x024A   |
| Data Size    | 16 bytes |
| Instructions | 2        |

```
      00 01 02 03 04 05 06 07  08 09 0A 0B 0C 0D 0E 0F
      -- -- -- -- -- -- -- --  -- -- -- -- -- -- -- --
0240:                                5B 07 80 F8 FF FF            [.....
0250: 7F F8 FF FF 7F 6C 6B 75  70 00                    .....lkup.      
```

#### Opcodes

```
  0: 0x024A [0x5B] LOAD_EXT_SCHEDULER: Load scheduler "lkup" with entities [EventEntity, EventEntity], work=1111*
  1: 0x0259 [0x00] END_REQSTACK()
```

### Event 65535.41

#### Metadata

| Field        | Value    |
|--------------|----------|
| Entrypoint   | 0x025A   |
| Data Size    | 14 bytes |
| Instructions | 2        |

```
      00 01 02 03 04 05 06 07  08 09 0A 0B 0C 0D 0E 0F
      -- -- -- -- -- -- -- --  -- -- -- -- -- -- -- --
0250:                                53 F8 FF FF 7F F8            S.....
0260: FF FF 7F 6C 6B 75 70 00                           ...lkup.        
```

#### Opcodes

```
  0: 0x025A [0x53] WAIT_SCHEDULER_TASK: Wait for scheduler "lkup" with entities [EventEntity, EventEntity]
  1: 0x0267 [0x00] END_REQSTACK()
```

### Event 65535.42

#### Metadata

| Field        | Value    |
|--------------|----------|
| Entrypoint   | 0x0268   |
| Data Size    | 16 bytes |
| Instructions | 2        |

```
      00 01 02 03 04 05 06 07  08 09 0A 0B 0C 0D 0E 0F
      -- -- -- -- -- -- -- --  -- -- -- -- -- -- -- --
0260:                          5B 01 80 F8 FF FF 7F F8          [.......
0270: FF FF 7F 73 68 61 30 00                           ...sha0.        
```

#### Opcodes

```
  0: 0x0268 [0x5B] LOAD_EXT_SCHEDULER: Load scheduler "sha0" with entities [EventEntity, EventEntity], work=254*
  1: 0x0277 [0x00] END_REQSTACK()
```

### Event 65535.43

#### Metadata

| Field        | Value    |
|--------------|----------|
| Entrypoint   | 0x0278   |
| Data Size    | 14 bytes |
| Instructions | 2        |

```
      00 01 02 03 04 05 06 07  08 09 0A 0B 0C 0D 0E 0F
      -- -- -- -- -- -- -- --  -- -- -- -- -- -- -- --
0270:                          53 F8 FF FF 7F F8 FF FF          S.......
0280: 7F 73 68 61 30 00                                 .sha0.          
```

#### Opcodes

```
  0: 0x0278 [0x53] WAIT_SCHEDULER_TASK: Wait for scheduler "sha0" with entities [EventEntity, EventEntity]
  1: 0x0285 [0x00] END_REQSTACK()
```

### Event 65535.44

#### Metadata

| Field        | Value    |
|--------------|----------|
| Entrypoint   | 0x0286   |
| Data Size    | 16 bytes |
| Instructions | 2        |

```
      00 01 02 03 04 05 06 07  08 09 0A 0B 0C 0D 0E 0F
      -- -- -- -- -- -- -- --  -- -- -- -- -- -- -- --
0280:                   5B 01  80 F8 FF FF 7F F8 FF FF        [.........
0290: 7F 73 68 61 31 00                                 .sha1.          
```

#### Opcodes

```
  0: 0x0286 [0x5B] LOAD_EXT_SCHEDULER: Load scheduler "sha1" with entities [EventEntity, EventEntity], work=254*
  1: 0x0295 [0x00] END_REQSTACK()
```

### Event 65535.45

#### Metadata

| Field        | Value    |
|--------------|----------|
| Entrypoint   | 0x0296   |
| Data Size    | 14 bytes |
| Instructions | 2        |

```
      00 01 02 03 04 05 06 07  08 09 0A 0B 0C 0D 0E 0F
      -- -- -- -- -- -- -- --  -- -- -- -- -- -- -- --
0290:                   53 F8  FF FF 7F F8 FF FF 7F 73        S........s
02A0: 68 61 31 00                                       ha1.            
```

#### Opcodes

```
  0: 0x0296 [0x53] WAIT_SCHEDULER_TASK: Wait for scheduler "sha1" with entities [EventEntity, EventEntity]
  1: 0x02A3 [0x00] END_REQSTACK()
```

### Event 65535.46

#### Metadata

| Field        | Value    |
|--------------|----------|
| Entrypoint   | 0x02A4   |
| Data Size    | 16 bytes |
| Instructions | 2        |

```
      00 01 02 03 04 05 06 07  08 09 0A 0B 0C 0D 0E 0F
      -- -- -- -- -- -- -- --  -- -- -- -- -- -- -- --
02A0:             5B 08 80 F8  FF FF 7F F8 FF FF 7F 6E      [..........n
02B0: 61 6E 30 00                                       an0.            
```

#### Opcodes

```
  0: 0x02A4 [0x5B] LOAD_EXT_SCHEDULER: Load scheduler "nan0" with entities [EventEntity, EventEntity], work=1026*
  1: 0x02B3 [0x00] END_REQSTACK()
```

### Event 65535.47

#### Metadata

| Field        | Value    |
|--------------|----------|
| Entrypoint   | 0x02B4   |
| Data Size    | 14 bytes |
| Instructions | 2        |

```
      00 01 02 03 04 05 06 07  08 09 0A 0B 0C 0D 0E 0F
      -- -- -- -- -- -- -- --  -- -- -- -- -- -- -- --
02B0:             53 F8 FF FF  7F F8 FF FF 7F 6E 61 6E      S........nan
02C0: 30 00                                             0.              
```

#### Opcodes

```
  0: 0x02B4 [0x53] WAIT_SCHEDULER_TASK: Wait for scheduler "nan0" with entities [EventEntity, EventEntity]
  1: 0x02C1 [0x00] END_REQSTACK()
```

### Event 65535.48

#### Metadata

| Field        | Value    |
|--------------|----------|
| Entrypoint   | 0x02C2   |
| Data Size    | 16 bytes |
| Instructions | 2        |

```
      00 01 02 03 04 05 06 07  08 09 0A 0B 0C 0D 0E 0F
      -- -- -- -- -- -- -- --  -- -- -- -- -- -- -- --
02C0:       5B 08 80 F8 FF FF  7F F8 FF FF 7F 6E 61 6E    [..........nan
02D0: 31 00                                             1.              
```

#### Opcodes

```
  0: 0x02C2 [0x5B] LOAD_EXT_SCHEDULER: Load scheduler "nan1" with entities [EventEntity, EventEntity], work=1026*
  1: 0x02D1 [0x00] END_REQSTACK()
```

### Event 65535.49

#### Metadata

| Field        | Value    |
|--------------|----------|
| Entrypoint   | 0x02D2   |
| Data Size    | 14 bytes |
| Instructions | 2        |

```
      00 01 02 03 04 05 06 07  08 09 0A 0B 0C 0D 0E 0F
      -- -- -- -- -- -- -- --  -- -- -- -- -- -- -- --
02D0:       53 F8 FF FF 7F F8  FF FF 7F 6E 61 6E 31 00    S........nan1.
```

#### Opcodes

```
  0: 0x02D2 [0x53] WAIT_SCHEDULER_TASK: Wait for scheduler "nan1" with entities [EventEntity, EventEntity]
  1: 0x02DF [0x00] END_REQSTACK()
```

### Event 65535.50

#### Metadata

| Field        | Value    |
|--------------|----------|
| Entrypoint   | 0x02E0   |
| Data Size    | 16 bytes |
| Instructions | 2        |

```
      00 01 02 03 04 05 06 07  08 09 0A 0B 0C 0D 0E 0F
      -- -- -- -- -- -- -- --  -- -- -- -- -- -- -- --
02E0: 5B 08 80 F8 FF FF 7F F8  FF FF 7F 73 72 79 31 00  [..........sry1.
```

#### Opcodes

```
  0: 0x02E0 [0x5B] LOAD_EXT_SCHEDULER: Load scheduler "sry1" with entities [EventEntity, EventEntity], work=1026*
  1: 0x02EF [0x00] END_REQSTACK()
```

### Event 65535.51

#### Metadata

| Field        | Value    |
|--------------|----------|
| Entrypoint   | 0x02F0   |
| Data Size    | 14 bytes |
| Instructions | 2        |

```
      00 01 02 03 04 05 06 07  08 09 0A 0B 0C 0D 0E 0F
      -- -- -- -- -- -- -- --  -- -- -- -- -- -- -- --
02F0: 53 F8 FF FF 7F F8 FF FF  7F 73 72 79 31 00        S........sry1.  
```

#### Opcodes

```
  0: 0x02F0 [0x53] WAIT_SCHEDULER_TASK: Wait for scheduler "sry1" with entities [EventEntity, EventEntity]
  1: 0x02FD [0x00] END_REQSTACK()
```

### Event 65535.52

#### Metadata

| Field        | Value    |
|--------------|----------|
| Entrypoint   | 0x02FE   |
| Data Size    | 16 bytes |
| Instructions | 2        |

```
      00 01 02 03 04 05 06 07  08 09 0A 0B 0C 0D 0E 0F
      -- -- -- -- -- -- -- --  -- -- -- -- -- -- -- --
02F0:                                            5B 08                [.
0300: 80 F8 FF FF 7F F8 FF FF  7F 73 72 79 30 00        .........sry0.  
```

#### Opcodes

```
  0: 0x02FE [0x5B] LOAD_EXT_SCHEDULER: Load scheduler "sry0" with entities [EventEntity, EventEntity], work=1026*
  1: 0x030D [0x00] END_REQSTACK()
```

### Event 65535.53

#### Metadata

| Field        | Value    |
|--------------|----------|
| Entrypoint   | 0x030E   |
| Data Size    | 14 bytes |
| Instructions | 2        |

```
      00 01 02 03 04 05 06 07  08 09 0A 0B 0C 0D 0E 0F
      -- -- -- -- -- -- -- --  -- -- -- -- -- -- -- --
0300:                                            53 F8                S.
0310: FF FF 7F F8 FF FF 7F 73  72 79 30 00              .......sry0.    
```

#### Opcodes

```
  0: 0x030E [0x53] WAIT_SCHEDULER_TASK: Wait for scheduler "sry0" with entities [EventEntity, EventEntity]
  1: 0x031B [0x00] END_REQSTACK()
```

### Event 65535.54

#### Metadata

| Field        | Value    |
|--------------|----------|
| Entrypoint   | 0x031C   |
| Data Size    | 16 bytes |
| Instructions | 2        |

```
      00 01 02 03 04 05 06 07  08 09 0A 0B 0C 0D 0E 0F
      -- -- -- -- -- -- -- --  -- -- -- -- -- -- -- --
0310:                                      5B 02 80 F8              [...
0320: FF FF 7F F8 FF FF 7F 64  65 6E 31 00              .......den1.    
```

#### Opcodes

```
  0: 0x031C [0x5B] LOAD_EXT_SCHEDULER: Load scheduler "den1" with entities [EventEntity, EventEntity], work=856*
  1: 0x032B [0x00] END_REQSTACK()
```

### Event 65535.55

#### Metadata

| Field        | Value    |
|--------------|----------|
| Entrypoint   | 0x032C   |
| Data Size    | 14 bytes |
| Instructions | 2        |

```
      00 01 02 03 04 05 06 07  08 09 0A 0B 0C 0D 0E 0F
      -- -- -- -- -- -- -- --  -- -- -- -- -- -- -- --
0320:                                      53 F8 FF FF              S...
0330: 7F F8 FF FF 7F 64 65 6E  31 00                    .....den1.      
```

#### Opcodes

```
  0: 0x032C [0x53] WAIT_SCHEDULER_TASK: Wait for scheduler "den1" with entities [EventEntity, EventEntity]
  1: 0x0339 [0x00] END_REQSTACK()
```

### Event 65535.56

#### Metadata

| Field        | Value    |
|--------------|----------|
| Entrypoint   | 0x033A   |
| Data Size    | 16 bytes |
| Instructions | 2        |

```
      00 01 02 03 04 05 06 07  08 09 0A 0B 0C 0D 0E 0F
      -- -- -- -- -- -- -- --  -- -- -- -- -- -- -- --
0330:                                5B 09 80 F8 FF FF            [.....
0340: 7F F8 FF FF 7F 6C 73 65  30 00                    .....lse0.      
```

#### Opcodes

```
  0: 0x033A [0x5B] LOAD_EXT_SCHEDULER: Load scheduler "lse0" with entities [EventEntity, EventEntity], work=1025*
  1: 0x0349 [0x00] END_REQSTACK()
```

### Event 65535.57

#### Metadata

| Field        | Value    |
|--------------|----------|
| Entrypoint   | 0x034A   |
| Data Size    | 14 bytes |
| Instructions | 2        |

```
      00 01 02 03 04 05 06 07  08 09 0A 0B 0C 0D 0E 0F
      -- -- -- -- -- -- -- --  -- -- -- -- -- -- -- --
0340:                                53 F8 FF FF 7F F8            S.....
0350: FF FF 7F 6C 73 65 30 00                           ...lse0.        
```

#### Opcodes

```
  0: 0x034A [0x53] WAIT_SCHEDULER_TASK: Wait for scheduler "lse0" with entities [EventEntity, EventEntity]
  1: 0x0357 [0x00] END_REQSTACK()
```

### Event 65535.58

#### Metadata

| Field        | Value    |
|--------------|----------|
| Entrypoint   | 0x0358   |
| Data Size    | 16 bytes |
| Instructions | 2        |

```
      00 01 02 03 04 05 06 07  08 09 0A 0B 0C 0D 0E 0F
      -- -- -- -- -- -- -- --  -- -- -- -- -- -- -- --
0350:                          5B 0A 80 F8 FF FF 7F F8          [.......
0360: FF FF 7F 64 67 65 30 00                           ...dge0.        
```

#### Opcodes

```
  0: 0x0358 [0x5B] LOAD_EXT_SCHEDULER: Load scheduler "dge0" with entities [EventEntity, EventEntity], work=1027*
  1: 0x0367 [0x00] END_REQSTACK()
```

### Event 65535.59

#### Metadata

| Field        | Value    |
|--------------|----------|
| Entrypoint   | 0x0368   |
| Data Size    | 14 bytes |
| Instructions | 2        |

```
      00 01 02 03 04 05 06 07  08 09 0A 0B 0C 0D 0E 0F
      -- -- -- -- -- -- -- --  -- -- -- -- -- -- -- --
0360:                          53 F8 FF FF 7F F8 FF FF          S.......
0370: 7F 64 67 65 30 00                                 .dge0.          
```

#### Opcodes

```
  0: 0x0368 [0x53] WAIT_SCHEDULER_TASK: Wait for scheduler "dge0" with entities [EventEntity, EventEntity]
  1: 0x0375 [0x00] END_REQSTACK()
```

### Event 65535.60

#### Metadata

| Field        | Value    |
|--------------|----------|
| Entrypoint   | 0x0376   |
| Data Size    | 16 bytes |
| Instructions | 2        |

```
      00 01 02 03 04 05 06 07  08 09 0A 0B 0C 0D 0E 0F
      -- -- -- -- -- -- -- --  -- -- -- -- -- -- -- --
0370:                   5B 0A  80 F8 FF FF 7F F8 FF FF        [.........
0380: 7F 64 67 65 31 00                                 .dge1.          
```

#### Opcodes

```
  0: 0x0376 [0x5B] LOAD_EXT_SCHEDULER: Load scheduler "dge1" with entities [EventEntity, EventEntity], work=1027*
  1: 0x0385 [0x00] END_REQSTACK()
```

### Event 65535.61

#### Metadata

| Field        | Value    |
|--------------|----------|
| Entrypoint   | 0x0386   |
| Data Size    | 14 bytes |
| Instructions | 2        |

```
      00 01 02 03 04 05 06 07  08 09 0A 0B 0C 0D 0E 0F
      -- -- -- -- -- -- -- --  -- -- -- -- -- -- -- --
0380:                   53 F8  FF FF 7F F8 FF FF 7F 64        S........d
0390: 67 65 31 00                                       ge1.            
```

#### Opcodes

```
  0: 0x0386 [0x53] WAIT_SCHEDULER_TASK: Wait for scheduler "dge1" with entities [EventEntity, EventEntity]
  1: 0x0393 [0x00] END_REQSTACK()
```

### Event 65535.62

#### Metadata

| Field        | Value    |
|--------------|----------|
| Entrypoint   | 0x0394   |
| Data Size    | 16 bytes |
| Instructions | 2        |

```
      00 01 02 03 04 05 06 07  08 09 0A 0B 0C 0D 0E 0F
      -- -- -- -- -- -- -- --  -- -- -- -- -- -- -- --
0390:             5B 0A 80 F8  FF FF 7F F8 FF FF 7F 64      [..........d
03A0: 67 65 32 00                                       ge2.            
```

#### Opcodes

```
  0: 0x0394 [0x5B] LOAD_EXT_SCHEDULER: Load scheduler "dge2" with entities [EventEntity, EventEntity], work=1027*
  1: 0x03A3 [0x00] END_REQSTACK()
```

### Event 65535.63

#### Metadata

| Field        | Value    |
|--------------|----------|
| Entrypoint   | 0x03A4   |
| Data Size    | 14 bytes |
| Instructions | 2        |

```
      00 01 02 03 04 05 06 07  08 09 0A 0B 0C 0D 0E 0F
      -- -- -- -- -- -- -- --  -- -- -- -- -- -- -- --
03A0:             53 F8 FF FF  7F F8 FF FF 7F 64 67 65      S........dge
03B0: 32 00                                             2.              
```

#### Opcodes

```
  0: 0x03A4 [0x53] WAIT_SCHEDULER_TASK: Wait for scheduler "dge2" with entities [EventEntity, EventEntity]
  1: 0x03B1 [0x00] END_REQSTACK()
```

### Event 65535.64

#### Metadata

| Field        | Value    |
|--------------|----------|
| Entrypoint   | 0x03B2   |
| Data Size    | 16 bytes |
| Instructions | 2        |

```
      00 01 02 03 04 05 06 07  08 09 0A 0B 0C 0D 0E 0F
      -- -- -- -- -- -- -- --  -- -- -- -- -- -- -- --
03B0:       5B 0A 80 F8 FF FF  7F F8 FF FF 7F 64 67 74    [..........dgt
03C0: 30 00                                             0.              
```

#### Opcodes

```
  0: 0x03B2 [0x5B] LOAD_EXT_SCHEDULER: Load scheduler "dgt0" with entities [EventEntity, EventEntity], work=1027*
  1: 0x03C1 [0x00] END_REQSTACK()
```

### Event 65535.65

#### Metadata

| Field        | Value    |
|--------------|----------|
| Entrypoint   | 0x03C2   |
| Data Size    | 14 bytes |
| Instructions | 2        |

```
      00 01 02 03 04 05 06 07  08 09 0A 0B 0C 0D 0E 0F
      -- -- -- -- -- -- -- --  -- -- -- -- -- -- -- --
03C0:       53 F8 FF FF 7F F8  FF FF 7F 64 67 74 30 00    S........dgt0.
```

#### Opcodes

```
  0: 0x03C2 [0x53] WAIT_SCHEDULER_TASK: Wait for scheduler "dgt0" with entities [EventEntity, EventEntity]
  1: 0x03CF [0x00] END_REQSTACK()
```

### Event 65535.66

#### Metadata

| Field        | Value    |
|--------------|----------|
| Entrypoint   | 0x03D0   |
| Data Size    | 16 bytes |
| Instructions | 2        |

```
      00 01 02 03 04 05 06 07  08 09 0A 0B 0C 0D 0E 0F
      -- -- -- -- -- -- -- --  -- -- -- -- -- -- -- --
03D0: 5B 0A 80 F8 FF FF 7F F8  FF FF 7F 64 67 74 31 00  [..........dgt1.
```

#### Opcodes

```
  0: 0x03D0 [0x5B] LOAD_EXT_SCHEDULER: Load scheduler "dgt1" with entities [EventEntity, EventEntity], work=1027*
  1: 0x03DF [0x00] END_REQSTACK()
```

### Event 65535.67

#### Metadata

| Field        | Value    |
|--------------|----------|
| Entrypoint   | 0x03E0   |
| Data Size    | 14 bytes |
| Instructions | 2        |

```
      00 01 02 03 04 05 06 07  08 09 0A 0B 0C 0D 0E 0F
      -- -- -- -- -- -- -- --  -- -- -- -- -- -- -- --
03E0: 53 F8 FF FF 7F F8 FF FF  7F 64 67 74 31 00        S........dgt1.  
```

#### Opcodes

```
  0: 0x03E0 [0x53] WAIT_SCHEDULER_TASK: Wait for scheduler "dgt1" with entities [EventEntity, EventEntity]
  1: 0x03ED [0x00] END_REQSTACK()
```

### Event 65535.68

#### Metadata

| Field        | Value    |
|--------------|----------|
| Entrypoint   | 0x03EE   |
| Data Size    | 16 bytes |
| Instructions | 2        |

```
      00 01 02 03 04 05 06 07  08 09 0A 0B 0C 0D 0E 0F
      -- -- -- -- -- -- -- --  -- -- -- -- -- -- -- --
03E0:                                            5B 0A                [.
03F0: 80 F8 FF FF 7F F8 FF FF  7F 64 67 74 32 00        .........dgt2.  
```

#### Opcodes

```
  0: 0x03EE [0x5B] LOAD_EXT_SCHEDULER: Load scheduler "dgt2" with entities [EventEntity, EventEntity], work=1027*
  1: 0x03FD [0x00] END_REQSTACK()
```

### Event 65535.69

#### Metadata

| Field        | Value    |
|--------------|----------|
| Entrypoint   | 0x03FE   |
| Data Size    | 14 bytes |
| Instructions | 2        |

```
      00 01 02 03 04 05 06 07  08 09 0A 0B 0C 0D 0E 0F
      -- -- -- -- -- -- -- --  -- -- -- -- -- -- -- --
03F0:                                            53 F8                S.
0400: FF FF 7F F8 FF FF 7F 64  67 74 32 00              .......dgt2.    
```

#### Opcodes

```
  0: 0x03FE [0x53] WAIT_SCHEDULER_TASK: Wait for scheduler "dgt2" with entities [EventEntity, EventEntity]
  1: 0x040B [0x00] END_REQSTACK()
```

### Event 65535.70

#### Metadata

| Field        | Value    |
|--------------|----------|
| Entrypoint   | 0x040C   |
| Data Size    | 16 bytes |
| Instructions | 2        |

```
      00 01 02 03 04 05 06 07  08 09 0A 0B 0C 0D 0E 0F
      -- -- -- -- -- -- -- --  -- -- -- -- -- -- -- --
0400:                                      5B 0A 80 F8              [...
0410: FF FF 7F F8 FF FF 7F 64  67 74 33 00              .......dgt3.    
```

#### Opcodes

```
  0: 0x040C [0x5B] LOAD_EXT_SCHEDULER: Load scheduler "dgt3" with entities [EventEntity, EventEntity], work=1027*
  1: 0x041B [0x00] END_REQSTACK()
```

### Event 65535.71

#### Metadata

| Field        | Value    |
|--------------|----------|
| Entrypoint   | 0x041C   |
| Data Size    | 14 bytes |
| Instructions | 2        |

```
      00 01 02 03 04 05 06 07  08 09 0A 0B 0C 0D 0E 0F
      -- -- -- -- -- -- -- --  -- -- -- -- -- -- -- --
0410:                                      53 F8 FF FF              S...
0420: 7F F8 FF FF 7F 64 67 74  33 00                    .....dgt3.      
```

#### Opcodes

```
  0: 0x041C [0x53] WAIT_SCHEDULER_TASK: Wait for scheduler "dgt3" with entities [EventEntity, EventEntity]
  1: 0x0429 [0x00] END_REQSTACK()
```

### Event 65535.72

#### Metadata

| Field        | Value    |
|--------------|----------|
| Entrypoint   | 0x042A   |
| Data Size    | 16 bytes |
| Instructions | 2        |

```
      00 01 02 03 04 05 06 07  08 09 0A 0B 0C 0D 0E 0F
      -- -- -- -- -- -- -- --  -- -- -- -- -- -- -- --
0420:                                5B 0B 80 F8 FF FF            [.....
0430: 7F F8 FF FF 7F 62 62 61  30 00                    .....bba0.      
```

#### Opcodes

```
  0: 0x042A [0x5B] LOAD_EXT_SCHEDULER: Load scheduler "bba0" with entities [EventEntity, EventEntity], work=1524*
  1: 0x0439 [0x00] END_REQSTACK()
```

### Event 65535.73

#### Metadata

| Field        | Value    |
|--------------|----------|
| Entrypoint   | 0x043A   |
| Data Size    | 14 bytes |
| Instructions | 2        |

```
      00 01 02 03 04 05 06 07  08 09 0A 0B 0C 0D 0E 0F
      -- -- -- -- -- -- -- --  -- -- -- -- -- -- -- --
0430:                                53 F8 FF FF 7F F8            S.....
0440: FF FF 7F 62 62 61 30 00                           ...bba0.        
```

#### Opcodes

```
  0: 0x043A [0x53] WAIT_SCHEDULER_TASK: Wait for scheduler "bba0" with entities [EventEntity, EventEntity]
  1: 0x0447 [0x00] END_REQSTACK()
```

### Event 65535.74

#### Metadata

| Field        | Value    |
|--------------|----------|
| Entrypoint   | 0x0448   |
| Data Size    | 16 bytes |
| Instructions | 2        |

```
      00 01 02 03 04 05 06 07  08 09 0A 0B 0C 0D 0E 0F
      -- -- -- -- -- -- -- --  -- -- -- -- -- -- -- --
0440:                          5B 0C 80 F8 FF FF 7F F8          [.......
0450: FF FF 7F 72 6F 75 30 00                           ...rou0.        
```

#### Opcodes

```
  0: 0x0448 [0x5B] LOAD_EXT_SCHEDULER: Load scheduler "rou0" with entities [EventEntity, EventEntity], work=1526*
  1: 0x0457 [0x00] END_REQSTACK()
```

### Event 65535.75

#### Metadata

| Field        | Value    |
|--------------|----------|
| Entrypoint   | 0x0458   |
| Data Size    | 14 bytes |
| Instructions | 2        |

```
      00 01 02 03 04 05 06 07  08 09 0A 0B 0C 0D 0E 0F
      -- -- -- -- -- -- -- --  -- -- -- -- -- -- -- --
0450:                          53 F8 FF FF 7F F8 FF FF          S.......
0460: 7F 72 6F 75 30 00                                 .rou0.          
```

#### Opcodes

```
  0: 0x0458 [0x53] WAIT_SCHEDULER_TASK: Wait for scheduler "rou0" with entities [EventEntity, EventEntity]
  1: 0x0465 [0x00] END_REQSTACK()
```

### Event 65535.76

#### Metadata

| Field        | Value    |
|--------------|----------|
| Entrypoint   | 0x0466   |
| Data Size    | 16 bytes |
| Instructions | 2        |

```
      00 01 02 03 04 05 06 07  08 09 0A 0B 0C 0D 0E 0F
      -- -- -- -- -- -- -- --  -- -- -- -- -- -- -- --
0460:                   5B 03  80 F8 FF FF 7F F8 FF FF        [.........
0470: 7F 6B 74 75 30 00                                 .ktu0.          
```

#### Opcodes

```
  0: 0x0466 [0x5B] LOAD_EXT_SCHEDULER: Load scheduler "ktu0" with entities [EventEntity, EventEntity], work=792*
  1: 0x0475 [0x00] END_REQSTACK()
```

### Event 65535.77

#### Metadata

| Field        | Value    |
|--------------|----------|
| Entrypoint   | 0x0476   |
| Data Size    | 14 bytes |
| Instructions | 2        |

```
      00 01 02 03 04 05 06 07  08 09 0A 0B 0C 0D 0E 0F
      -- -- -- -- -- -- -- --  -- -- -- -- -- -- -- --
0470:                   53 F8  FF FF 7F F8 FF FF 7F 6B        S........k
0480: 74 75 30 00                                       tu0.            
```

#### Opcodes

```
  0: 0x0476 [0x53] WAIT_SCHEDULER_TASK: Wait for scheduler "ktu0" with entities [EventEntity, EventEntity]
  1: 0x0483 [0x00] END_REQSTACK()
```

### Event 65535.78

#### Metadata

| Field        | Value    |
|--------------|----------|
| Entrypoint   | 0x0484   |
| Data Size    | 16 bytes |
| Instructions | 2        |

```
      00 01 02 03 04 05 06 07  08 09 0A 0B 0C 0D 0E 0F
      -- -- -- -- -- -- -- --  -- -- -- -- -- -- -- --
0480:             5B 03 80 F8  FF FF 7F F8 FF FF 7F 6B      [..........k
0490: 74 75 65 00                                       tue.            
```

#### Opcodes

```
  0: 0x0484 [0x5B] LOAD_EXT_SCHEDULER: Load scheduler "ktue" with entities [EventEntity, EventEntity], work=792*
  1: 0x0493 [0x00] END_REQSTACK()
```

### Event 65535.79

#### Metadata

| Field        | Value    |
|--------------|----------|
| Entrypoint   | 0x0494   |
| Data Size    | 14 bytes |
| Instructions | 2        |

```
      00 01 02 03 04 05 06 07  08 09 0A 0B 0C 0D 0E 0F
      -- -- -- -- -- -- -- --  -- -- -- -- -- -- -- --
0490:             53 F8 FF FF  7F F8 FF FF 7F 6B 74 75      S........ktu
04A0: 65 00                                             e.              
```

#### Opcodes

```
  0: 0x0494 [0x53] WAIT_SCHEDULER_TASK: Wait for scheduler "ktue" with entities [EventEntity, EventEntity]
  1: 0x04A1 [0x00] END_REQSTACK()
```

### Event 65535.80

#### Metadata

| Field        | Value    |
|--------------|----------|
| Entrypoint   | 0x04A2   |
| Data Size    | 16 bytes |
| Instructions | 2        |

```
      00 01 02 03 04 05 06 07  08 09 0A 0B 0C 0D 0E 0F
      -- -- -- -- -- -- -- --  -- -- -- -- -- -- -- --
04A0:       5B 03 80 F8 FF FF  7F F8 FF FF 7F 6B 74 6C    [..........ktl
04B0: 30 00                                             0.              
```

#### Opcodes

```
  0: 0x04A2 [0x5B] LOAD_EXT_SCHEDULER: Load scheduler "ktl0" with entities [EventEntity, EventEntity], work=792*
  1: 0x04B1 [0x00] END_REQSTACK()
```

### Event 65535.81

#### Metadata

| Field        | Value    |
|--------------|----------|
| Entrypoint   | 0x04B2   |
| Data Size    | 14 bytes |
| Instructions | 2        |

```
      00 01 02 03 04 05 06 07  08 09 0A 0B 0C 0D 0E 0F
      -- -- -- -- -- -- -- --  -- -- -- -- -- -- -- --
04B0:       53 F8 FF FF 7F F8  FF FF 7F 6B 74 6C 30 00    S........ktl0.
```

#### Opcodes

```
  0: 0x04B2 [0x53] WAIT_SCHEDULER_TASK: Wait for scheduler "ktl0" with entities [EventEntity, EventEntity]
  1: 0x04BF [0x00] END_REQSTACK()
```

### Event 65535.82

#### Metadata

| Field        | Value    |
|--------------|----------|
| Entrypoint   | 0x04C0   |
| Data Size    | 16 bytes |
| Instructions | 2        |

```
      00 01 02 03 04 05 06 07  08 09 0A 0B 0C 0D 0E 0F
      -- -- -- -- -- -- -- --  -- -- -- -- -- -- -- --
04C0: 5B 03 80 F8 FF FF 7F F8  FF FF 7F 6B 74 6C 65 00  [..........ktle.
```

#### Opcodes

```
  0: 0x04C0 [0x5B] LOAD_EXT_SCHEDULER: Load scheduler "ktle" with entities [EventEntity, EventEntity], work=792*
  1: 0x04CF [0x00] END_REQSTACK()
```

### Event 65535.83

#### Metadata

| Field        | Value    |
|--------------|----------|
| Entrypoint   | 0x04D0   |
| Data Size    | 14 bytes |
| Instructions | 2        |

```
      00 01 02 03 04 05 06 07  08 09 0A 0B 0C 0D 0E 0F
      -- -- -- -- -- -- -- --  -- -- -- -- -- -- -- --
04D0: 53 F8 FF FF 7F F8 FF FF  7F 6B 74 6C 65 00        S........ktle.  
```

#### Opcodes

```
  0: 0x04D0 [0x53] WAIT_SCHEDULER_TASK: Wait for scheduler "ktle" with entities [EventEntity, EventEntity]
  1: 0x04DD [0x00] END_REQSTACK()
```

### Event 65535.84

#### Metadata

| Field        | Value    |
|--------------|----------|
| Entrypoint   | 0x04DE   |
| Data Size    | 16 bytes |
| Instructions | 2        |

```
      00 01 02 03 04 05 06 07  08 09 0A 0B 0C 0D 0E 0F
      -- -- -- -- -- -- -- --  -- -- -- -- -- -- -- --
04D0:                                            5B 0D                [.
04E0: 80 F8 FF FF 7F F8 FF FF  7F 64 69 65 30 00        .........die0.  
```

#### Opcodes

```
  0: 0x04DE [0x5B] LOAD_EXT_SCHEDULER: Load scheduler "die0" with entities [EventEntity, EventEntity], work=3141*
  1: 0x04ED [0x00] END_REQSTACK()
```

### Event 65535.85

#### Metadata

| Field        | Value    |
|--------------|----------|
| Entrypoint   | 0x04EE   |
| Data Size    | 14 bytes |
| Instructions | 2        |

```
      00 01 02 03 04 05 06 07  08 09 0A 0B 0C 0D 0E 0F
      -- -- -- -- -- -- -- --  -- -- -- -- -- -- -- --
04E0:                                            53 F8                S.
04F0: FF FF 7F F8 FF FF 7F 64  69 65 30 00              .......die0.    
```

#### Opcodes

```
  0: 0x04EE [0x53] WAIT_SCHEDULER_TASK: Wait for scheduler "die0" with entities [EventEntity, EventEntity]
  1: 0x04FB [0x00] END_REQSTACK()
```

### Event 65535.86

#### Metadata

| Field        | Value    |
|--------------|----------|
| Entrypoint   | 0x04FC   |
| Data Size    | 16 bytes |
| Instructions | 2        |

```
      00 01 02 03 04 05 06 07  08 09 0A 0B 0C 0D 0E 0F
      -- -- -- -- -- -- -- --  -- -- -- -- -- -- -- --
04F0:                                      5B 0E 80 F8              [...
0500: FF FF 7F F8 FF FF 7F 73  69 75 30 00              .......siu0.    
```

#### Opcodes

```
  0: 0x04FC [0x5B] LOAD_EXT_SCHEDULER: Load scheduler "siu0" with entities [EventEntity, EventEntity], work=1265*
  1: 0x050B [0x00] END_REQSTACK()
```

### Event 65535.87

#### Metadata

| Field        | Value    |
|--------------|----------|
| Entrypoint   | 0x050C   |
| Data Size    | 14 bytes |
| Instructions | 2        |

```
      00 01 02 03 04 05 06 07  08 09 0A 0B 0C 0D 0E 0F
      -- -- -- -- -- -- -- --  -- -- -- -- -- -- -- --
0500:                                      53 F8 FF FF              S...
0510: 7F F8 FF FF 7F 73 69 75  30 00                    .....siu0.      
```

#### Opcodes

```
  0: 0x050C [0x53] WAIT_SCHEDULER_TASK: Wait for scheduler "siu0" with entities [EventEntity, EventEntity]
  1: 0x0519 [0x00] END_REQSTACK()
```

### Event 65535.88

#### Metadata

| Field        | Value    |
|--------------|----------|
| Entrypoint   | 0x051A   |
| Data Size    | 16 bytes |
| Instructions | 2        |

```
      00 01 02 03 04 05 06 07  08 09 0A 0B 0C 0D 0E 0F
      -- -- -- -- -- -- -- --  -- -- -- -- -- -- -- --
0510:                                5B 0F 80 F8 FF FF            [.....
0520: 7F F8 FF FF 7F 62 64 6A  30 00                    .....bdj0.      
```

#### Opcodes

```
  0: 0x051A [0x5B] LOAD_EXT_SCHEDULER: Load scheduler "bdj0" with entities [EventEntity, EventEntity], work=1264*
  1: 0x0529 [0x00] END_REQSTACK()
```

### Event 65535.89

#### Metadata

| Field        | Value    |
|--------------|----------|
| Entrypoint   | 0x052A   |
| Data Size    | 14 bytes |
| Instructions | 2        |

```
      00 01 02 03 04 05 06 07  08 09 0A 0B 0C 0D 0E 0F
      -- -- -- -- -- -- -- --  -- -- -- -- -- -- -- --
0520:                                53 F8 FF FF 7F F8            S.....
0530: FF FF 7F 62 64 6A 30 00                           ...bdj0.        
```

#### Opcodes

```
  0: 0x052A [0x53] WAIT_SCHEDULER_TASK: Wait for scheduler "bdj0" with entities [EventEntity, EventEntity]
  1: 0x0537 [0x00] END_REQSTACK()
```

### Event 65535.90

#### Metadata

| Field        | Value    |
|--------------|----------|
| Entrypoint   | 0x0538   |
| Data Size    | 16 bytes |
| Instructions | 2        |

```
      00 01 02 03 04 05 06 07  08 09 0A 0B 0C 0D 0E 0F
      -- -- -- -- -- -- -- --  -- -- -- -- -- -- -- --
0530:                          5B 10 80 F8 FF FF 7F F8          [.......
0540: FF FF 7F 62 74 6D 32 00                           ...btm2.        
```

#### Opcodes

```
  0: 0x0538 [0x5B] LOAD_EXT_SCHEDULER: Load scheduler "btm2" with entities [EventEntity, EventEntity], work=3142*
  1: 0x0547 [0x00] END_REQSTACK()
```

### Event 65535.91

#### Metadata

| Field        | Value    |
|--------------|----------|
| Entrypoint   | 0x0548   |
| Data Size    | 14 bytes |
| Instructions | 2        |

```
      00 01 02 03 04 05 06 07  08 09 0A 0B 0C 0D 0E 0F
      -- -- -- -- -- -- -- --  -- -- -- -- -- -- -- --
0540:                          53 F8 FF FF 7F F8 FF FF          S.......
0550: 7F 62 74 6D 32 00                                 .btm2.          
```

#### Opcodes

```
  0: 0x0548 [0x53] WAIT_SCHEDULER_TASK: Wait for scheduler "btm2" with entities [EventEntity, EventEntity]
  1: 0x0555 [0x00] END_REQSTACK()
```

### Event 65535.92

#### Metadata

| Field        | Value    |
|--------------|----------|
| Entrypoint   | 0x0556   |
| Data Size    | 16 bytes |
| Instructions | 2        |

```
      00 01 02 03 04 05 06 07  08 09 0A 0B 0C 0D 0E 0F
      -- -- -- -- -- -- -- --  -- -- -- -- -- -- -- --
0550:                   5B 0D  80 F8 FF FF 7F F8 FF FF        [.........
0560: 7F 74 75 65 30 00                                 .tue0.          
```

#### Opcodes

```
  0: 0x0556 [0x5B] LOAD_EXT_SCHEDULER: Load scheduler "tue0" with entities [EventEntity, EventEntity], work=3141*
  1: 0x0565 [0x00] END_REQSTACK()
```

### Event 65535.93

#### Metadata

| Field        | Value    |
|--------------|----------|
| Entrypoint   | 0x0566   |
| Data Size    | 14 bytes |
| Instructions | 2        |

```
      00 01 02 03 04 05 06 07  08 09 0A 0B 0C 0D 0E 0F
      -- -- -- -- -- -- -- --  -- -- -- -- -- -- -- --
0560:                   53 F8  FF FF 7F F8 FF FF 7F 74        S........t
0570: 75 65 30 00                                       ue0.            
```

#### Opcodes

```
  0: 0x0566 [0x53] WAIT_SCHEDULER_TASK: Wait for scheduler "tue0" with entities [EventEntity, EventEntity]
  1: 0x0573 [0x00] END_REQSTACK()
```

### Event 65535.94

#### Metadata

| Field        | Value    |
|--------------|----------|
| Entrypoint   | 0x0574   |
| Data Size    | 16 bytes |
| Instructions | 2        |

```
      00 01 02 03 04 05 06 07  08 09 0A 0B 0C 0D 0E 0F
      -- -- -- -- -- -- -- --  -- -- -- -- -- -- -- --
0570:             5B 11 80 F8  FF FF 7F F8 FF FF 7F 68      [..........h
0580: 65 64 32 00                                       ed2.            
```

#### Opcodes

```
  0: 0x0574 [0x5B] LOAD_EXT_SCHEDULER: Load scheduler "hed2" with entities [EventEntity, EventEntity], work=1523*
  1: 0x0583 [0x00] END_REQSTACK()
```

### Event 65535.95

#### Metadata

| Field        | Value    |
|--------------|----------|
| Entrypoint   | 0x0584   |
| Data Size    | 14 bytes |
| Instructions | 2        |

```
      00 01 02 03 04 05 06 07  08 09 0A 0B 0C 0D 0E 0F
      -- -- -- -- -- -- -- --  -- -- -- -- -- -- -- --
0580:             53 F8 FF FF  7F F8 FF FF 7F 68 65 64      S........hed
0590: 32 00                                             2.              
```

#### Opcodes

```
  0: 0x0584 [0x53] WAIT_SCHEDULER_TASK: Wait for scheduler "hed2" with entities [EventEntity, EventEntity]
  1: 0x0591 [0x00] END_REQSTACK()
```

### Event 65535.96

#### Metadata

| Field        | Value    |
|--------------|----------|
| Entrypoint   | 0x0592   |
| Data Size    | 16 bytes |
| Instructions | 2        |

```
      00 01 02 03 04 05 06 07  08 09 0A 0B 0C 0D 0E 0F
      -- -- -- -- -- -- -- --  -- -- -- -- -- -- -- --
0590:       5B 12 80 F8 FF FF  7F F8 FF FF 7F 66 6B 69    [..........fki
05A0: 61 00                                             a.              
```

#### Opcodes

```
  0: 0x0592 [0x5B] LOAD_EXT_SCHEDULER: Load scheduler "fkia" with entities [EventEntity, EventEntity], work=1525*
  1: 0x05A1 [0x00] END_REQSTACK()
```

### Event 65535.97

#### Metadata

| Field        | Value    |
|--------------|----------|
| Entrypoint   | 0x05A2   |
| Data Size    | 14 bytes |
| Instructions | 2        |

```
      00 01 02 03 04 05 06 07  08 09 0A 0B 0C 0D 0E 0F
      -- -- -- -- -- -- -- --  -- -- -- -- -- -- -- --
05A0:       53 F8 FF FF 7F F8  FF FF 7F 66 6B 69 61 00    S........fkia.
```

#### Opcodes

```
  0: 0x05A2 [0x53] WAIT_SCHEDULER_TASK: Wait for scheduler "fkia" with entities [EventEntity, EventEntity]
  1: 0x05AF [0x00] END_REQSTACK()
```

### Event 65535.98

#### Metadata

| Field        | Value    |
|--------------|----------|
| Entrypoint   | 0x05B0   |
| Data Size    | 16 bytes |
| Instructions | 2        |

```
      00 01 02 03 04 05 06 07  08 09 0A 0B 0C 0D 0E 0F
      -- -- -- -- -- -- -- --  -- -- -- -- -- -- -- --
05B0: 5B 12 80 F8 FF FF 7F F8  FF FF 7F 66 6B 69 62 00  [..........fkib.
```

#### Opcodes

```
  0: 0x05B0 [0x5B] LOAD_EXT_SCHEDULER: Load scheduler "fkib" with entities [EventEntity, EventEntity], work=1525*
  1: 0x05BF [0x00] END_REQSTACK()
```

### Event 65535.99

#### Metadata

| Field        | Value    |
|--------------|----------|
| Entrypoint   | 0x05C0   |
| Data Size    | 14 bytes |
| Instructions | 2        |

```
      00 01 02 03 04 05 06 07  08 09 0A 0B 0C 0D 0E 0F
      -- -- -- -- -- -- -- --  -- -- -- -- -- -- -- --
05C0: 53 F8 FF FF 7F F8 FF FF  7F 66 6B 69 62 00        S........fkib.  
```

#### Opcodes

```
  0: 0x05C0 [0x53] WAIT_SCHEDULER_TASK: Wait for scheduler "fkib" with entities [EventEntity, EventEntity]
  1: 0x05CD [0x00] END_REQSTACK()
```

### Event 65535.100

#### Metadata

| Field        | Value    |
|--------------|----------|
| Entrypoint   | 0x05CE   |
| Data Size    | 16 bytes |
| Instructions | 2        |

```
      00 01 02 03 04 05 06 07  08 09 0A 0B 0C 0D 0E 0F
      -- -- -- -- -- -- -- --  -- -- -- -- -- -- -- --
05C0:                                            5B 0C                [.
05D0: 80 F8 FF FF 7F F8 FF FF  7F 72 61 6B 30 00        .........rak0.  
```

#### Opcodes

```
  0: 0x05CE [0x5B] LOAD_EXT_SCHEDULER: Load scheduler "rak0" with entities [EventEntity, EventEntity], work=1526*
  1: 0x05DD [0x00] END_REQSTACK()
```

### Event 65535.101

#### Metadata

| Field        | Value    |
|--------------|----------|
| Entrypoint   | 0x05DE   |
| Data Size    | 14 bytes |
| Instructions | 2        |

```
      00 01 02 03 04 05 06 07  08 09 0A 0B 0C 0D 0E 0F
      -- -- -- -- -- -- -- --  -- -- -- -- -- -- -- --
05D0:                                            53 F8                S.
05E0: FF FF 7F F8 FF FF 7F 72  61 6B 30 00              .......rak0.    
```

#### Opcodes

```
  0: 0x05DE [0x53] WAIT_SCHEDULER_TASK: Wait for scheduler "rak0" with entities [EventEntity, EventEntity]
  1: 0x05EB [0x00] END_REQSTACK()
```

### Event 65535.102

#### Metadata

| Field        | Value    |
|--------------|----------|
| Entrypoint   | 0x05EC   |
| Data Size    | 28 bytes |
| Instructions | 4        |

```
      00 01 02 03 04 05 06 07  08 09 0A 0B 0C 0D 0E 0F
      -- -- -- -- -- -- -- --  -- -- -- -- -- -- -- --
05E0:                                      81 00 F8 FF              ....
05F0: FF 7F 7C 00 F8 FF FF 7F  5B 05 80 F8 FF FF 7F F8  ..|.....[.......
0600: FF FF 7F 61 74 6B 30 00                           ...atk0.        
```

#### Opcodes

```
  0: 0x05EC [0x81] SET_ENTITY_BLINKING(blink_flag=0x00, entity=EventEntity)
  1: 0x05F2 [0x7C] EventEntity->Render.Flags2 |= 0x00
  2: 0x05F8 [0x5B] LOAD_EXT_SCHEDULER: Load scheduler "atk0" with entities [EventEntity, EventEntity], work=855*
  3: 0x0607 [0x00] END_REQSTACK()
```

### Event 65535.103

#### Metadata

| Field        | Value    |
|--------------|----------|
| Entrypoint   | 0x0608   |
| Data Size    | 14 bytes |
| Instructions | 2        |

```
      00 01 02 03 04 05 06 07  08 09 0A 0B 0C 0D 0E 0F
      -- -- -- -- -- -- -- --  -- -- -- -- -- -- -- --
0600:                          53 F8 FF FF 7F F8 FF FF          S.......
0610: 7F 61 74 6B 30 00                                 .atk0.          
```

#### Opcodes

```
  0: 0x0608 [0x53] WAIT_SCHEDULER_TASK: Wait for scheduler "atk0" with entities [EventEntity, EventEntity]
  1: 0x0615 [0x00] END_REQSTACK()
```

### Event 65535.104

#### Metadata

| Field        | Value    |
|--------------|----------|
| Entrypoint   | 0x0616   |
| Data Size    | 16 bytes |
| Instructions | 2        |

```
      00 01 02 03 04 05 06 07  08 09 0A 0B 0C 0D 0E 0F
      -- -- -- -- -- -- -- --  -- -- -- -- -- -- -- --
0610:                   5B 05  80 F8 FF FF 7F F8 FF FF        [.........
0620: 7F 65 73 63 30 00                                 .esc0.          
```

#### Opcodes

```
  0: 0x0616 [0x5B] LOAD_EXT_SCHEDULER: Load scheduler "esc0" with entities [EventEntity, EventEntity], work=855*
  1: 0x0625 [0x00] END_REQSTACK()
```

### Event 65535.105

#### Metadata

| Field        | Value    |
|--------------|----------|
| Entrypoint   | 0x0626   |
| Data Size    | 14 bytes |
| Instructions | 2        |

```
      00 01 02 03 04 05 06 07  08 09 0A 0B 0C 0D 0E 0F
      -- -- -- -- -- -- -- --  -- -- -- -- -- -- -- --
0620:                   53 F8  FF FF 7F F8 FF FF 7F 65        S........e
0630: 73 63 30 00                                       sc0.            
```

#### Opcodes

```
  0: 0x0626 [0x53] WAIT_SCHEDULER_TASK: Wait for scheduler "esc0" with entities [EventEntity, EventEntity]
  1: 0x0633 [0x00] END_REQSTACK()
```

### Event 65535.106

#### Metadata

| Field        | Value    |
|--------------|----------|
| Entrypoint   | 0x0634   |
| Data Size    | 16 bytes |
| Instructions | 2        |

```
      00 01 02 03 04 05 06 07  08 09 0A 0B 0C 0D 0E 0F
      -- -- -- -- -- -- -- --  -- -- -- -- -- -- -- --
0630:             5B 13 80 F8  FF FF 7F F8 FF FF 7F 74      [..........t
0640: 6C 6B 30 00                                       lk0.            
```

#### Opcodes

```
  0: 0x0634 [0x5B] LOAD_EXT_SCHEDULER: Load scheduler "tlk0" with entities [EventEntity, EventEntity], work=215*
  1: 0x0643 [0x00] END_REQSTACK()
```

### Event 65535.107

#### Metadata

| Field        | Value    |
|--------------|----------|
| Entrypoint   | 0x0644   |
| Data Size    | 14 bytes |
| Instructions | 2        |

```
      00 01 02 03 04 05 06 07  08 09 0A 0B 0C 0D 0E 0F
      -- -- -- -- -- -- -- --  -- -- -- -- -- -- -- --
0640:             53 F8 FF FF  7F F8 FF FF 7F 74 6C 6B      S........tlk
0650: 30 00                                             0.              
```

#### Opcodes

```
  0: 0x0644 [0x53] WAIT_SCHEDULER_TASK: Wait for scheduler "tlk0" with entities [EventEntity, EventEntity]
  1: 0x0651 [0x00] END_REQSTACK()
```

### Event 65535.108

#### Metadata

| Field        | Value    |
|--------------|----------|
| Entrypoint   | 0x0652   |
| Data Size    | 16 bytes |
| Instructions | 2        |

```
      00 01 02 03 04 05 06 07  08 09 0A 0B 0C 0D 0E 0F
      -- -- -- -- -- -- -- --  -- -- -- -- -- -- -- --
0650:       5B 13 80 F8 FF FF  7F F8 FF FF 7F 74 6C 6B    [..........tlk
0660: 31 00                                             1.              
```

#### Opcodes

```
  0: 0x0652 [0x5B] LOAD_EXT_SCHEDULER: Load scheduler "tlk1" with entities [EventEntity, EventEntity], work=215*
  1: 0x0661 [0x00] END_REQSTACK()
```

### Event 65535.109

#### Metadata

| Field        | Value    |
|--------------|----------|
| Entrypoint   | 0x0662   |
| Data Size    | 14 bytes |
| Instructions | 2        |

```
      00 01 02 03 04 05 06 07  08 09 0A 0B 0C 0D 0E 0F
      -- -- -- -- -- -- -- --  -- -- -- -- -- -- -- --
0660:       53 F8 FF FF 7F F8  FF FF 7F 74 6C 6B 31 00    S........tlk1.
```

#### Opcodes

```
  0: 0x0662 [0x53] WAIT_SCHEDULER_TASK: Wait for scheduler "tlk1" with entities [EventEntity, EventEntity]
  1: 0x066F [0x00] END_REQSTACK()
```

### Event 65535.110

#### Metadata

| Field        | Value    |
|--------------|----------|
| Entrypoint   | 0x0670   |
| Data Size    | 16 bytes |
| Instructions | 2        |

```
      00 01 02 03 04 05 06 07  08 09 0A 0B 0C 0D 0E 0F
      -- -- -- -- -- -- -- --  -- -- -- -- -- -- -- --
0670: 5B 13 80 F8 FF FF 7F F8  FF FF 7F 74 6C 6B 65 00  [..........tlke.
```

#### Opcodes

```
  0: 0x0670 [0x5B] LOAD_EXT_SCHEDULER: Load scheduler "tlke" with entities [EventEntity, EventEntity], work=215*
  1: 0x067F [0x00] END_REQSTACK()
```

### Event 65535.111

#### Metadata

| Field        | Value    |
|--------------|----------|
| Entrypoint   | 0x0680   |
| Data Size    | 14 bytes |
| Instructions | 2        |

```
      00 01 02 03 04 05 06 07  08 09 0A 0B 0C 0D 0E 0F
      -- -- -- -- -- -- -- --  -- -- -- -- -- -- -- --
0680: 53 F8 FF FF 7F F8 FF FF  7F 74 6C 6B 65 00        S........tlke.  
```

#### Opcodes

```
  0: 0x0680 [0x53] WAIT_SCHEDULER_TASK: Wait for scheduler "tlke" with entities [EventEntity, EventEntity]
  1: 0x068D [0x00] END_REQSTACK()
```

### Event 65535.112

#### Metadata

| Field        | Value    |
|--------------|----------|
| Entrypoint   | 0x068E   |
| Data Size    | 16 bytes |
| Instructions | 2        |

```
      00 01 02 03 04 05 06 07  08 09 0A 0B 0C 0D 0E 0F
      -- -- -- -- -- -- -- --  -- -- -- -- -- -- -- --
0680:                                            5B 14                [.
0690: 80 F8 FF FF 7F F8 FF FF  7F 74 6C 33 30 00        .........tl30.  
```

#### Opcodes

```
  0: 0x068E [0x5B] LOAD_EXT_SCHEDULER: Load scheduler "tl30" with entities [EventEntity, EventEntity], work=2150*
  1: 0x069D [0x00] END_REQSTACK()
```

### Event 65535.113

#### Metadata

| Field        | Value    |
|--------------|----------|
| Entrypoint   | 0x069E   |
| Data Size    | 14 bytes |
| Instructions | 2        |

```
      00 01 02 03 04 05 06 07  08 09 0A 0B 0C 0D 0E 0F
      -- -- -- -- -- -- -- --  -- -- -- -- -- -- -- --
0690:                                            53 F8                S.
06A0: FF FF 7F F8 FF FF 7F 74  6C 33 30 00              .......tl30.    
```

#### Opcodes

```
  0: 0x069E [0x53] WAIT_SCHEDULER_TASK: Wait for scheduler "tl30" with entities [EventEntity, EventEntity]
  1: 0x06AB [0x00] END_REQSTACK()
```

### Event 65535.114

#### Metadata

| Field        | Value    |
|--------------|----------|
| Entrypoint   | 0x06AC   |
| Data Size    | 16 bytes |
| Instructions | 2        |

```
      00 01 02 03 04 05 06 07  08 09 0A 0B 0C 0D 0E 0F
      -- -- -- -- -- -- -- --  -- -- -- -- -- -- -- --
06A0:                                      5B 14 80 F8              [...
06B0: FF FF 7F F8 FF FF 7F 74  6C 33 31 00              .......tl31.    
```

#### Opcodes

```
  0: 0x06AC [0x5B] LOAD_EXT_SCHEDULER: Load scheduler "tl31" with entities [EventEntity, EventEntity], work=2150*
  1: 0x06BB [0x00] END_REQSTACK()
```

### Event 65535.115

#### Metadata

| Field        | Value    |
|--------------|----------|
| Entrypoint   | 0x06BC   |
| Data Size    | 14 bytes |
| Instructions | 2        |

```
      00 01 02 03 04 05 06 07  08 09 0A 0B 0C 0D 0E 0F
      -- -- -- -- -- -- -- --  -- -- -- -- -- -- -- --
06B0:                                      53 F8 FF FF              S...
06C0: 7F F8 FF FF 7F 74 6C 33  31 00                    .....tl31.      
```

#### Opcodes

```
  0: 0x06BC [0x53] WAIT_SCHEDULER_TASK: Wait for scheduler "tl31" with entities [EventEntity, EventEntity]
  1: 0x06C9 [0x00] END_REQSTACK()
```

### Event 65535.116

#### Metadata

| Field        | Value    |
|--------------|----------|
| Entrypoint   | 0x06CA   |
| Data Size    | 16 bytes |
| Instructions | 2        |

```
      00 01 02 03 04 05 06 07  08 09 0A 0B 0C 0D 0E 0F
      -- -- -- -- -- -- -- --  -- -- -- -- -- -- -- --
06C0:                                5B 13 80 F8 FF FF            [.....
06D0: 7F F8 FF FF 7F 70 61 73  30 00                    .....pas0.      
```

#### Opcodes

```
  0: 0x06CA [0x5B] LOAD_EXT_SCHEDULER: Load scheduler "pas0" with entities [EventEntity, EventEntity], work=215*
  1: 0x06D9 [0x00] END_REQSTACK()
```

### Event 65535.117

#### Metadata

| Field        | Value    |
|--------------|----------|
| Entrypoint   | 0x06DA   |
| Data Size    | 14 bytes |
| Instructions | 2        |

```
      00 01 02 03 04 05 06 07  08 09 0A 0B 0C 0D 0E 0F
      -- -- -- -- -- -- -- --  -- -- -- -- -- -- -- --
06D0:                                53 F8 FF FF 7F F8            S.....
06E0: FF FF 7F 70 61 73 30 00                           ...pas0.        
```

#### Opcodes

```
  0: 0x06DA [0x53] WAIT_SCHEDULER_TASK: Wait for scheduler "pas0" with entities [EventEntity, EventEntity]
  1: 0x06E7 [0x00] END_REQSTACK()
```

### Event 65535.118

#### Metadata

| Field        | Value    |
|--------------|----------|
| Entrypoint   | 0x06E8   |
| Data Size    | 16 bytes |
| Instructions | 2        |

```
      00 01 02 03 04 05 06 07  08 09 0A 0B 0C 0D 0E 0F
      -- -- -- -- -- -- -- --  -- -- -- -- -- -- -- --
06E0:                          5B 13 80 F8 FF FF 7F F8          [.......
06F0: FF FF 7F 63 6F 72 30 00                           ...cor0.        
```

#### Opcodes

```
  0: 0x06E8 [0x5B] LOAD_EXT_SCHEDULER: Load scheduler "cor0" with entities [EventEntity, EventEntity], work=215*
  1: 0x06F7 [0x00] END_REQSTACK()
```

### Event 65535.119

#### Metadata

| Field        | Value    |
|--------------|----------|
| Entrypoint   | 0x06F8   |
| Data Size    | 14 bytes |
| Instructions | 2        |

```
      00 01 02 03 04 05 06 07  08 09 0A 0B 0C 0D 0E 0F
      -- -- -- -- -- -- -- --  -- -- -- -- -- -- -- --
06F0:                          53 F8 FF FF 7F F8 FF FF          S.......
0700: 7F 63 6F 72 30 00                                 .cor0.          
```

#### Opcodes

```
  0: 0x06F8 [0x53] WAIT_SCHEDULER_TASK: Wait for scheduler "cor0" with entities [EventEntity, EventEntity]
  1: 0x0705 [0x00] END_REQSTACK()
```

### Event 65535.120

#### Metadata

| Field        | Value    |
|--------------|----------|
| Entrypoint   | 0x0706   |
| Data Size    | 16 bytes |
| Instructions | 2        |

```
      00 01 02 03 04 05 06 07  08 09 0A 0B 0C 0D 0E 0F
      -- -- -- -- -- -- -- --  -- -- -- -- -- -- -- --
0700:                   5B 13  80 F8 FF FF 7F F8 FF FF        [.........
0710: 7F 6F 6B 69 30 00                                 .oki0.          
```

#### Opcodes

```
  0: 0x0706 [0x5B] LOAD_EXT_SCHEDULER: Load scheduler "oki0" with entities [EventEntity, EventEntity], work=215*
  1: 0x0715 [0x00] END_REQSTACK()
```

### Event 65535.121

#### Metadata

| Field        | Value    |
|--------------|----------|
| Entrypoint   | 0x0716   |
| Data Size    | 14 bytes |
| Instructions | 2        |

```
      00 01 02 03 04 05 06 07  08 09 0A 0B 0C 0D 0E 0F
      -- -- -- -- -- -- -- --  -- -- -- -- -- -- -- --
0710:                   53 F8  FF FF 7F F8 FF FF 7F 6F        S........o
0720: 6B 69 30 00                                       ki0.            
```

#### Opcodes

```
  0: 0x0716 [0x53] WAIT_SCHEDULER_TASK: Wait for scheduler "oki0" with entities [EventEntity, EventEntity]
  1: 0x0723 [0x00] END_REQSTACK()
```

### Event 65535.122

#### Metadata

| Field        | Value    |
|--------------|----------|
| Entrypoint   | 0x0724   |
| Data Size    | 16 bytes |
| Instructions | 2        |

```
      00 01 02 03 04 05 06 07  08 09 0A 0B 0C 0D 0E 0F
      -- -- -- -- -- -- -- --  -- -- -- -- -- -- -- --
0720:             5B 13 80 F8  FF FF 7F F8 FF FF 7F 74      [..........t
0730: 6C 6B 32 00                                       lk2.            
```

#### Opcodes

```
  0: 0x0724 [0x5B] LOAD_EXT_SCHEDULER: Load scheduler "tlk2" with entities [EventEntity, EventEntity], work=215*
  1: 0x0733 [0x00] END_REQSTACK()
```

### Event 65535.123

#### Metadata

| Field        | Value    |
|--------------|----------|
| Entrypoint   | 0x0734   |
| Data Size    | 14 bytes |
| Instructions | 2        |

```
      00 01 02 03 04 05 06 07  08 09 0A 0B 0C 0D 0E 0F
      -- -- -- -- -- -- -- --  -- -- -- -- -- -- -- --
0730:             53 F8 FF FF  7F F8 FF FF 7F 74 6C 6B      S........tlk
0740: 32 00                                             2.              
```

#### Opcodes

```
  0: 0x0734 [0x53] WAIT_SCHEDULER_TASK: Wait for scheduler "tlk2" with entities [EventEntity, EventEntity]
  1: 0x0741 [0x00] END_REQSTACK()
```

### Event 65535.124

#### Metadata

| Field        | Value    |
|--------------|----------|
| Entrypoint   | 0x0742   |
| Data Size    | 16 bytes |
| Instructions | 2        |

```
      00 01 02 03 04 05 06 07  08 09 0A 0B 0C 0D 0E 0F
      -- -- -- -- -- -- -- --  -- -- -- -- -- -- -- --
0740:       5B 13 80 F8 FF FF  7F F8 FF FF 7F 74 69 64    [..........tid
0750: 30 00                                             0.              
```

#### Opcodes

```
  0: 0x0742 [0x5B] LOAD_EXT_SCHEDULER: Load scheduler "tid0" with entities [EventEntity, EventEntity], work=215*
  1: 0x0751 [0x00] END_REQSTACK()
```

### Event 65535.125

#### Metadata

| Field        | Value    |
|--------------|----------|
| Entrypoint   | 0x0752   |
| Data Size    | 14 bytes |
| Instructions | 2        |

```
      00 01 02 03 04 05 06 07  08 09 0A 0B 0C 0D 0E 0F
      -- -- -- -- -- -- -- --  -- -- -- -- -- -- -- --
0750:       53 F8 FF FF 7F F8  FF FF 7F 74 69 64 30 00    S........tid0.
```

#### Opcodes

```
  0: 0x0752 [0x53] WAIT_SCHEDULER_TASK: Wait for scheduler "tid0" with entities [EventEntity, EventEntity]
  1: 0x075F [0x00] END_REQSTACK()
```

### Event 65535.126

#### Metadata

| Field        | Value    |
|--------------|----------|
| Entrypoint   | 0x0760   |
| Data Size    | 16 bytes |
| Instructions | 2        |

```
      00 01 02 03 04 05 06 07  08 09 0A 0B 0C 0D 0E 0F
      -- -- -- -- -- -- -- --  -- -- -- -- -- -- -- --
0760: 5B 13 80 F8 FF FF 7F F8  FF FF 7F 74 61 6F 30 00  [..........tao0.
```

#### Opcodes

```
  0: 0x0760 [0x5B] LOAD_EXT_SCHEDULER: Load scheduler "tao0" with entities [EventEntity, EventEntity], work=215*
  1: 0x076F [0x00] END_REQSTACK()
```

### Event 65535.127

#### Metadata

| Field        | Value    |
|--------------|----------|
| Entrypoint   | 0x0770   |
| Data Size    | 14 bytes |
| Instructions | 2        |

```
      00 01 02 03 04 05 06 07  08 09 0A 0B 0C 0D 0E 0F
      -- -- -- -- -- -- -- --  -- -- -- -- -- -- -- --
0770: 53 F8 FF FF 7F F8 FF FF  7F 74 61 6F 30 00        S........tao0.  
```

#### Opcodes

```
  0: 0x0770 [0x53] WAIT_SCHEDULER_TASK: Wait for scheduler "tao0" with entities [EventEntity, EventEntity]
  1: 0x077D [0x00] END_REQSTACK()
```

### Event 65535.128

#### Metadata

| Field        | Value    |
|--------------|----------|
| Entrypoint   | 0x077E   |
| Data Size    | 16 bytes |
| Instructions | 2        |

```
      00 01 02 03 04 05 06 07  08 09 0A 0B 0C 0D 0E 0F
      -- -- -- -- -- -- -- --  -- -- -- -- -- -- -- --
0770:                                            5B 15                [.
0780: 80 F8 FF FF 7F F8 FF FF  7F 61 6E 67 30 00        .........ang0.  
```

#### Opcodes

```
  0: 0x077E [0x5B] LOAD_EXT_SCHEDULER: Load scheduler "ang0" with entities [EventEntity, EventEntity], work=216*
  1: 0x078D [0x00] END_REQSTACK()
```

### Event 65535.129

#### Metadata

| Field        | Value    |
|--------------|----------|
| Entrypoint   | 0x078E   |
| Data Size    | 14 bytes |
| Instructions | 2        |

```
      00 01 02 03 04 05 06 07  08 09 0A 0B 0C 0D 0E 0F
      -- -- -- -- -- -- -- --  -- -- -- -- -- -- -- --
0780:                                            53 F8                S.
0790: FF FF 7F F8 FF FF 7F 61  6E 67 30 00              .......ang0.    
```

#### Opcodes

```
  0: 0x078E [0x53] WAIT_SCHEDULER_TASK: Wait for scheduler "ang0" with entities [EventEntity, EventEntity]
  1: 0x079B [0x00] END_REQSTACK()
```

### Event 65535.130

#### Metadata

| Field        | Value    |
|--------------|----------|
| Entrypoint   | 0x079C   |
| Data Size    | 16 bytes |
| Instructions | 2        |

```
      00 01 02 03 04 05 06 07  08 09 0A 0B 0C 0D 0E 0F
      -- -- -- -- -- -- -- --  -- -- -- -- -- -- -- --
0790:                                      5B 15 80 F8              [...
07A0: FF FF 7F F8 FF FF 7F 61  6E 67 31 00              .......ang1.    
```

#### Opcodes

```
  0: 0x079C [0x5B] LOAD_EXT_SCHEDULER: Load scheduler "ang1" with entities [EventEntity, EventEntity], work=216*
  1: 0x07AB [0x00] END_REQSTACK()
```

### Event 65535.131

#### Metadata

| Field        | Value    |
|--------------|----------|
| Entrypoint   | 0x07AC   |
| Data Size    | 14 bytes |
| Instructions | 2        |

```
      00 01 02 03 04 05 06 07  08 09 0A 0B 0C 0D 0E 0F
      -- -- -- -- -- -- -- --  -- -- -- -- -- -- -- --
07A0:                                      53 F8 FF FF              S...
07B0: 7F F8 FF FF 7F 61 6E 67  31 00                    .....ang1.      
```

#### Opcodes

```
  0: 0x07AC [0x53] WAIT_SCHEDULER_TASK: Wait for scheduler "ang1" with entities [EventEntity, EventEntity]
  1: 0x07B9 [0x00] END_REQSTACK()
```

### Event 65535.132

#### Metadata

| Field        | Value    |
|--------------|----------|
| Entrypoint   | 0x07BA   |
| Data Size    | 16 bytes |
| Instructions | 2        |

```
      00 01 02 03 04 05 06 07  08 09 0A 0B 0C 0D 0E 0F
      -- -- -- -- -- -- -- --  -- -- -- -- -- -- -- --
07B0:                                5B 15 80 F8 FF FF            [.....
07C0: 7F F8 FF FF 7F 62 69 6B  30 00                    .....bik0.      
```

#### Opcodes

```
  0: 0x07BA [0x5B] LOAD_EXT_SCHEDULER: Load scheduler "bik0" with entities [EventEntity, EventEntity], work=216*
  1: 0x07C9 [0x00] END_REQSTACK()
```

### Event 65535.133

#### Metadata

| Field        | Value    |
|--------------|----------|
| Entrypoint   | 0x07CA   |
| Data Size    | 14 bytes |
| Instructions | 2        |

```
      00 01 02 03 04 05 06 07  08 09 0A 0B 0C 0D 0E 0F
      -- -- -- -- -- -- -- --  -- -- -- -- -- -- -- --
07C0:                                53 F8 FF FF 7F F8            S.....
07D0: FF FF 7F 62 69 6B 30 00                           ...bik0.        
```

#### Opcodes

```
  0: 0x07CA [0x53] WAIT_SCHEDULER_TASK: Wait for scheduler "bik0" with entities [EventEntity, EventEntity]
  1: 0x07D7 [0x00] END_REQSTACK()
```

### Event 65535.134

#### Metadata

| Field        | Value    |
|--------------|----------|
| Entrypoint   | 0x07D8   |
| Data Size    | 16 bytes |
| Instructions | 2        |

```
      00 01 02 03 04 05 06 07  08 09 0A 0B 0C 0D 0E 0F
      -- -- -- -- -- -- -- --  -- -- -- -- -- -- -- --
07D0:                          5B 15 80 F8 FF FF 7F F8          [.......
07E0: FF FF 7F 62 69 6B 31 00                           ...bik1.        
```

#### Opcodes

```
  0: 0x07D8 [0x5B] LOAD_EXT_SCHEDULER: Load scheduler "bik1" with entities [EventEntity, EventEntity], work=216*
  1: 0x07E7 [0x00] END_REQSTACK()
```

### Event 65535.135

#### Metadata

| Field        | Value    |
|--------------|----------|
| Entrypoint   | 0x07E8   |
| Data Size    | 14 bytes |
| Instructions | 2        |

```
      00 01 02 03 04 05 06 07  08 09 0A 0B 0C 0D 0E 0F
      -- -- -- -- -- -- -- --  -- -- -- -- -- -- -- --
07E0:                          53 F8 FF FF 7F F8 FF FF          S.......
07F0: 7F 62 69 6B 31 00                                 .bik1.          
```

#### Opcodes

```
  0: 0x07E8 [0x53] WAIT_SCHEDULER_TASK: Wait for scheduler "bik1" with entities [EventEntity, EventEntity]
  1: 0x07F5 [0x00] END_REQSTACK()
```

### Event 65535.136

#### Metadata

| Field        | Value    |
|--------------|----------|
| Entrypoint   | 0x07F6   |
| Data Size    | 16 bytes |
| Instructions | 2        |

```
      00 01 02 03 04 05 06 07  08 09 0A 0B 0C 0D 0E 0F
      -- -- -- -- -- -- -- --  -- -- -- -- -- -- -- --
07F0:                   5B 14  80 F8 FF FF 7F F8 FF FF        [.........
0800: 7F 6F 64 6F 30 00                                 .odo0.          
```

#### Opcodes

```
  0: 0x07F6 [0x5B] LOAD_EXT_SCHEDULER: Load scheduler "odo0" with entities [EventEntity, EventEntity], work=2150*
  1: 0x0805 [0x00] END_REQSTACK()
```

### Event 65535.137

#### Metadata

| Field        | Value    |
|--------------|----------|
| Entrypoint   | 0x0806   |
| Data Size    | 14 bytes |
| Instructions | 2        |

```
      00 01 02 03 04 05 06 07  08 09 0A 0B 0C 0D 0E 0F
      -- -- -- -- -- -- -- --  -- -- -- -- -- -- -- --
0800:                   53 F8  FF FF 7F F8 FF FF 7F 6F        S........o
0810: 64 6F 30 00                                       do0.            
```

#### Opcodes

```
  0: 0x0806 [0x53] WAIT_SCHEDULER_TASK: Wait for scheduler "odo0" with entities [EventEntity, EventEntity]
  1: 0x0813 [0x00] END_REQSTACK()
```

### Event 65535.138

#### Metadata

| Field        | Value    |
|--------------|----------|
| Entrypoint   | 0x0814   |
| Data Size    | 16 bytes |
| Instructions | 2        |

```
      00 01 02 03 04 05 06 07  08 09 0A 0B 0C 0D 0E 0F
      -- -- -- -- -- -- -- --  -- -- -- -- -- -- -- --
0810:             5B 14 80 F8  FF FF 7F F8 FF FF 7F 6F      [..........o
0820: 64 6F 31 00                                       do1.            
```

#### Opcodes

```
  0: 0x0814 [0x5B] LOAD_EXT_SCHEDULER: Load scheduler "odo1" with entities [EventEntity, EventEntity], work=2150*
  1: 0x0823 [0x00] END_REQSTACK()
```

### Event 65535.139

#### Metadata

| Field        | Value    |
|--------------|----------|
| Entrypoint   | 0x0824   |
| Data Size    | 14 bytes |
| Instructions | 2        |

```
      00 01 02 03 04 05 06 07  08 09 0A 0B 0C 0D 0E 0F
      -- -- -- -- -- -- -- --  -- -- -- -- -- -- -- --
0820:             53 F8 FF FF  7F F8 FF FF 7F 6F 64 6F      S........odo
0830: 31 00                                             1.              
```

#### Opcodes

```
  0: 0x0824 [0x53] WAIT_SCHEDULER_TASK: Wait for scheduler "odo1" with entities [EventEntity, EventEntity]
  1: 0x0831 [0x00] END_REQSTACK()
```

### Event 65535.140

#### Metadata

| Field        | Value    |
|--------------|----------|
| Entrypoint   | 0x0832   |
| Data Size    | 16 bytes |
| Instructions | 2        |

```
      00 01 02 03 04 05 06 07  08 09 0A 0B 0C 0D 0E 0F
      -- -- -- -- -- -- -- --  -- -- -- -- -- -- -- --
0830:       5B 15 80 F8 FF FF  7F F8 FF FF 7F 62 79 65    [..........bye
0840: 30 00                                             0.              
```

#### Opcodes

```
  0: 0x0832 [0x5B] LOAD_EXT_SCHEDULER: Load scheduler "bye0" with entities [EventEntity, EventEntity], work=216*
  1: 0x0841 [0x00] END_REQSTACK()
```

### Event 65535.141

#### Metadata

| Field        | Value    |
|--------------|----------|
| Entrypoint   | 0x0842   |
| Data Size    | 14 bytes |
| Instructions | 2        |

```
      00 01 02 03 04 05 06 07  08 09 0A 0B 0C 0D 0E 0F
