# 0x7FFFFFF0 - Zone Events

## Common Data

| Field            | Value                |
|------------------|----------------------|
| Zone             | Reisenjima (ID: 291) |
| Block Size       | 12144 bytes          |
| Total Events     | 62                   |
| References Count | 374                  |

## List of Events

| Event ID                   | Entrypoint   |   Size |   Instructions |
|----------------------------|--------------|--------|----------------|
| [65535](#event-65535)      | 0x0000       |      1 |              1 |
| [65534](#event-65534)      | 0x0001       |      1 |              1 |
| [65535.1](#event-655351)   | 0x0002       |      6 |              2 |
| [65535.2](#event-655352)   | 0x0008       |      6 |              2 |
| [65535.3](#event-655353)   | 0x000E       |     37 |              5 |
| [65535.4](#event-655354)   | 0x0033       |     37 |              5 |
| [65535.5](#event-655355)   | 0x0058       |      7 |              3 |
| [65535.6](#event-655356)   | 0x005F       |      7 |              3 |
| [65535.7](#event-655357)   | 0x0066       |      6 |              2 |
| [65535.8](#event-655358)   | 0x006C       |     29 |              5 |
| [65535.9](#event-655359)   | 0x0089       |     15 |              5 |
| [65535.10](#event-6553510) | 0x0098       |     15 |              5 |
| [65535.11](#event-6553511) | 0x00A7       |     22 |              8 |
| [65535.12](#event-6553512) | 0x00BD       |    162 |             36 |
| [65535.13](#event-6553513) | 0x015F       |     24 |              4 |
| [65535.14](#event-6553514) | 0x0177       |     24 |              4 |
| [65535.15](#event-6553515) | 0x018F       |     38 |              5 |
| [65535.16](#event-6553516) | 0x01B5       |     38 |              5 |
| [65535.17](#event-6553517) | 0x01DB       |     38 |              5 |
| [65535.18](#event-6553518) | 0x0201       |     37 |              5 |
| [65535.19](#event-6553519) | 0x0226       |     37 |              5 |
| [65535.20](#event-6553520) | 0x024B       |     42 |              6 |
| [65535.21](#event-6553521) | 0x0275       |     15 |              5 |
| [65535.22](#event-6553522) | 0x0284       |     15 |              5 |
| [65535.23](#event-6553523) | 0x0293       |     15 |              5 |
| [65535.24](#event-6553524) | 0x02A2       |     32 |              8 |
| [65535.25](#event-6553525) | 0x02C2       |     15 |              5 |
| [65535.26](#event-6553526) | 0x02D1       |     15 |              5 |
| [65535.27](#event-6553527) | 0x02E0       |     15 |              5 |
| [65535.28](#event-6553528) | 0x02EF       |     15 |              5 |
| [65535.29](#event-6553529) | 0x02FE       |     29 |              5 |
| [65535.30](#event-6553530) | 0x031B       |     29 |              5 |
| [65535.31](#event-6553531) | 0x0338       |     29 |              5 |
| [65535.32](#event-6553532) | 0x0355       |      5 |              2 |
| [65535.33](#event-6553533) | 0x035A       |      5 |              2 |
| [65535.34](#event-6553534) | 0x035F       |      5 |              2 |
| [65535.35](#event-6553535) | 0x0364       |      5 |              2 |
| [65535.36](#event-6553536) | 0x0369       |    281 |             33 |
| [65535.37](#event-6553537) | 0x0482       |     14 |              4 |
| [65535.38](#event-6553538) | 0x0490       |    345 |             33 |
| [65535.39](#event-6553539) | 0x05E9       |    217 |             25 |
| [65535.40](#event-6553540) | 0x06C2       |    217 |             25 |
| [65535.41](#event-6553541) | 0x079B       |    217 |             25 |
| [65535.42](#event-6553542) | 0x0874       |    217 |             25 |
| [65535.43](#event-6553543) | 0x094D       |    217 |             25 |
| [65535.44](#event-6553544) | 0x0A26       |    217 |             25 |
| [65535.45](#event-6553545) | 0x0AFF       |    217 |             25 |
| [65535.46](#event-6553546) | 0x0BD8       |    217 |             25 |
| [65535.47](#event-6553547) | 0x0CB1       |    217 |             25 |
| [65535.48](#event-6553548) | 0x0D8A       |    217 |             25 |
| [65535.49](#event-6553549) | 0x0E63       |    217 |             25 |
| [65535.50](#event-6553550) | 0x0F3C       |    249 |             25 |
| [65535.51](#event-6553551) | 0x1035       |    345 |             33 |
| [65535.52](#event-6553552) | 0x118E       |     15 |              5 |
| [65535.53](#event-6553553) | 0x119D       |     35 |              9 |
| [65535.54](#event-6553554) | 0x11C0       |     14 |              4 |
| [65535.55](#event-6553555) | 0x11CE       |    281 |             33 |
| [9100](#event-9100)        | 0x12E7       |   4222 |            635 |
| [9101](#event-9101)        | 0x2365       |     83 |             19 |
| [9251](#event-9251)        | 0x23B8       |     36 |             12 |
| [9250](#event-9250)        | 0x23DC       |     36 |             12 |
| [9252](#event-9252)        | 0x2400       |   1168 |            207 |

## DAT References (imed_data)

|   Index | Hex Value   |   Dec Value |
|---------|-------------|-------------|
|       0 | 0x0001      |           1 |
|       1 | 0x0000      |           0 |
|       2 | 0x000D      |          13 |
|       3 | 0x45911     |      284945 |
|       4 | 0x4A754     |      304980 |
|       5 | 0xFFFE7466  |  4294866022 |
|       6 | 0xFFF8F7BF  |  4294506431 |
|       7 | 0x8FD70     |      589168 |
|       8 | 0xFFFF3F0D  |  4294917901 |
|       9 | 0x0028      |          40 |
|      10 | 0xFFF496FF  |  4294219519 |
|      11 | 0xFFF432FA  |  4294193914 |
|      12 | 0xFFF94B1E  |  4294527774 |
|      13 | 0x4188F     |      268431 |
|      14 | 0x18973     |      100723 |
|      15 | 0xFFFEAC34  |  4294880308 |
|      16 | 0x0005      |           5 |
|      17 | 0x0002      |           2 |
|      18 | 0x000A      |          10 |
|      19 | 0x0009      |           9 |
|      20 | 0x0046      |          70 |
|      21 | 0x008C      |         140 |
|      22 | 0x00D2      |         210 |
|      23 | 0x0008      |           8 |
|      24 | 0x0007      |           7 |
|      25 | 0x0091      |         145 |
|      26 | 0x004F      |          79 |
|      27 | 0x004C      |          76 |
|      28 | 0x00C9      |         201 |
|      29 | 0x0018      |          24 |
|      30 | 0x0020      |          32 |
|      31 | 0x0030      |          48 |
|      32 | 0x0040      |          64 |
|      33 | 0x003C      |          60 |
|      34 | 0x3F7B5     |      260021 |
|      35 | 0x15B98     |       88984 |
|      36 | 0xFFFEAC28  |  4294880296 |
|      37 | 0x26346     |      156486 |
|      38 | 0x50B0A     |      330506 |
|      39 | 0xFFFEA7DB  |  4294879195 |
|      40 | 0x38044     |      229444 |
|      41 | 0x4A8F8     |      305400 |
|      42 | 0xFFFE9AFA  |  4294875898 |
|      43 | 0x3F356     |      258902 |
|      44 | 0x43C62     |      277602 |
|      45 | 0xFFFE9BAE  |  4294876078 |
|      46 | 0x3F3F4     |      259060 |
|      47 | 0x4357C     |      275836 |
|      48 | 0xFFFE9C98  |  4294876312 |
|      49 | 0x3F63E     |      259646 |
|      50 | 0x40148     |      262472 |
|      51 | 0xFFFEAAA0  |  4294879904 |
|      52 | 0x3F831     |      260145 |
|      53 | 0x3193F     |      203071 |
|      54 | 0xFFFED97A  |  4294891898 |
|      55 | 0x3F325     |      258853 |
|      56 | 0x19F02     |      106242 |
|      57 | 0xFFFEAC29  |  4294880297 |
|      58 | 0x3F680     |      259712 |
|      59 | 0x17577     |       95607 |
|      60 | 0x0004      |           4 |
|      61 | 0x0057      |          87 |
|      62 | 0x005D      |          93 |
|      63 | 0x0060      |          96 |
|      64 | 0x0064      |         100 |
|      65 | 0x014A      |         330 |
|      66 | 0x00B9      |         185 |
|      67 | 0x00E6      |         230 |
|      68 | 0x0003      |           3 |
|      69 | 0x0006      |           6 |
|      70 | 0x3F763     |      259939 |
|      71 | 0x145E5     |       83429 |
|      72 | 0xFFFEAC1D  |  4294880285 |
|      73 | 0x0090      |         144 |
|      74 | 0x0F26      |        3878 |
|      75 | 0x009A      |         154 |
|      76 | 0x00A4      |         164 |
|      77 | 0x00AE      |         174 |
|      78 | 0x00B8      |         184 |
|      79 | 0x00C2      |         194 |
|      80 | 0x00CC      |         204 |
|      81 | 0x009B      |         155 |
|      82 | 0x00A5      |         165 |
|      83 | 0x00AF      |         175 |
|      84 | 0x00C3      |         195 |
|      85 | 0x00CD      |         205 |
|      86 | 0x00DC      |         220 |
|      87 | 0x00F0      |         240 |
|      88 | 0x00FA      |         250 |
|      89 | 0x0104      |         260 |
|      90 | 0x010E      |         270 |
|      91 | 0x00D3      |         211 |
|      92 | 0x00DD      |         221 |
|      93 | 0x00E7      |         231 |
|      94 | 0x00F1      |         241 |
|      95 | 0x00FB      |         251 |
|      96 | 0x0105      |         261 |
|      97 | 0x010F      |         271 |
|      98 | 0x008D      |         141 |
|      99 | 0x0097      |         151 |
|     100 | 0x00A1      |         161 |
|     101 | 0x00AB      |         171 |
|     102 | 0x00B5      |         181 |
|     103 | 0x00BF      |         191 |
|     104 | 0x3F3C6     |      259014 |
|     105 | 0x1C050     |      114768 |
|     106 | 0xFFFEB3F8  |  4294882296 |
|     107 | 0x3F3C1     |      259009 |
|     108 | 0x1D4E0     |      120032 |
|     109 | 0xFFFEBA1B  |  4294883867 |
|     110 | 0x3F432     |      259122 |
|     111 | 0x1FDFD     |      130557 |
|     112 | 0xFFFEB973  |  4294883699 |
|     113 | 0x3F4B0     |      259248 |
|     114 | 0x23B27     |      146215 |
|     115 | 0xFFFEB932  |  4294883634 |
|     116 | 0xFFF861B9  |  4294468025 |
|     117 | 0xFFF8C26F  |  4294492783 |
|     118 | 0xFFFFB40D  |  4294947853 |
|     119 | 0x1DB9      |        7609 |
|     120 | 0x0120      |         288 |
|     121 | 0x0121      |         289 |
|     122 | 0x0016      |          22 |
|     123 | 0x0123      |         291 |
|     124 | 0x0017      |          23 |
|     125 | 0x001F      |          31 |
|     126 | 0x1DBA      |        7610 |
|     127 | 0x1DBB      |        7611 |
|     128 | 0x1DBC      |        7612 |
|     129 | 0x1DBF      |        7615 |
|     130 | 0x1DBD      |        7613 |
|     131 | 0x1DBE      |        7614 |
|     132 | 0x40000000  |  1073741824 |
|     133 | 0x000F      |          15 |
|     134 | 0x0010      |          16 |
|     135 | 0x1DC0      |        7616 |
|     136 | 0x23F2      |        9202 |
|     137 | 0x0B4D      |        2893 |
|     138 | 0xFFFFFFFF  |  4294967295 |
|     139 | 0x0260      |         608 |
|     140 | 0x000B      |          11 |
|     141 | 0x001E      |          30 |
|     142 | 0x007D      |         125 |
|     143 | 0x00C8      |         200 |
|     144 | 0x007E      |         126 |
|     145 | 0x00B4      |         180 |
|     146 | 0x00A8      |         168 |
|     147 | 0x00A0      |         160 |
|     148 | 0x00A9      |         169 |
|     149 | 0xFFFFFC18  |  4294966296 |
|     150 | 0x0200      |         512 |
|     151 | 0x03E8      |        1000 |
|     152 | 0x0400      |        1024 |
|     153 | 0x0600      |        1536 |
|     154 | 0x0800      |        2048 |
|     155 | 0x0A00      |        2560 |
|     156 | 0x0C00      |        3072 |
|     157 | 0x0E00      |        3584 |
|     158 | 0x000C      |          12 |
|     159 | 0x000E      |          14 |
|     160 | 0xFFFAC810  |  4294625296 |
|     161 | 0xFFFB6068  |  4294664296 |
|     162 | 0xFFFC0478  |  4294706296 |
|     163 | 0xFFFE5250  |  4294857296 |
|     164 | 0x3C0F0     |      246000 |
|     165 | 0x6E5A0     |      452000 |
|     166 | 0x2EE00     |      192000 |
|     167 | 0xFFFDF0A8  |  4294832296 |
|     168 | 0x2710      |       10000 |
|     169 | 0xFFFBCFBC  |  4294692796 |
|     170 | 0xFFF90EA8  |  4294512296 |
|     171 | 0xFFF91C54  |  4294515796 |
|     172 | 0xFFF93B94  |  4294523796 |
|     173 | 0xFFFBB464  |  4294685796 |
|     174 | 0xFFF96E5C  |  4294536796 |
|     175 | 0x443CC     |      279500 |
|     176 | 0x2D2A8     |      185000 |
|     177 | 0x6C46C     |      443500 |
|     178 | 0x6F34C     |      455500 |
|     179 | 0x852DC     |      545500 |
|     180 | 0x42E50     |      274000 |
|     181 | 0xFFFFFB50  |  4294966096 |
|     182 | 0xFFF87498  |  4294472856 |
|     183 | 0xFFF9D5E0  |  4294563296 |
|     184 | 0xFFF7E438  |  4294435896 |
|     185 | 0xFFF78A60  |  4294412896 |
|     186 | 0x1A1F8     |      107000 |
|     187 | 0x3B344     |      242500 |
|     188 | 0x9C658     |      640600 |
|     189 | 0xFFFA5FB0  |  4294598576 |
|     190 | 0xFFF72660  |  4294387296 |
|     191 | 0xFFFA0F9C  |  4294578076 |
|     192 | 0xFFFD6020  |  4294795296 |
|     193 | 0x4B708     |      309000 |
|     194 | 0xFFFFC568  |  4294952296 |
|     195 | 0xFFFC4EB0  |  4294725296 |
|     196 | 0xFFFDBDE0  |  4294819296 |
|     197 | 0xFFFAC428  |  4294624296 |
|     198 | 0xFFFB25D0  |  4294649296 |
|     199 | 0xFFF91678  |  4294514296 |
|     200 | 0xFFF8EF68  |  4294504296 |
|     201 | 0xFFFA3D64  |  4294589796 |
|     202 | 0xFFFDBFD4  |  4294819796 |
|     203 | 0xFFFB52BC  |  4294660796 |
|     204 | 0x23280     |      144000 |
|     205 | 0x5E9AC     |      387500 |
|     206 | 0x51AA4     |      334500 |
|     207 | 0x71A5C     |      465500 |
|     208 | 0x5DFE8     |      385000 |
|     209 | 0x7D5DC     |      513500 |
|     210 | 0xFFFFBD98  |  4294950296 |
|     211 | 0xFFFA414C  |  4294590796 |
|     212 | 0xFFF7246C  |  4294386796 |
|     213 | 0xFFF8BAC0  |  4294490816 |
|     214 | 0x14C08     |       85000 |
|     215 | 0x6159E     |      398750 |
|     216 | 0x93378     |      603000 |
|     217 | 0x91FF0     |      598000 |
|     218 | 0x19E10     |      106000 |
|     219 | 0xFFF218A0  |  4294056096 |
|     220 | 0x339FA     |      211450 |
|     221 | 0xFFEFBFD8  |  4293902296 |
|     222 | 0xFFF341C6  |  4294132166 |
|     223 | 0xFFFFFFBA  |  4294967226 |
|     224 | 0xFFFFFFE2  |  4294967266 |
|     225 | 0x029E      |         670 |
|     226 | 0x0078      |         120 |
|     227 | 0x056E      |        1390 |
|     228 | 0x0708      |        1800 |
|     229 | 0xFFFF7B30  |  4294933296 |
|     230 | 0xFFFF61CC  |  4294926796 |
|     231 | 0xFFFFF254  |  4294963796 |
|     232 | 0xFFFEE904  |  4294895876 |
|     233 | 0xFFFEE756  |  4294895446 |
|     234 | 0xFFFFF1D2  |  4294963666 |
|     235 | 0xFFFF63C0  |  4294927296 |
|     236 | 0xFFFFF1F0  |  4294963696 |
|     237 | 0xFFFEE8B4  |  4294895796 |
|     238 | 0xFFFF34E0  |  4294915296 |
|     239 | 0xFFFFB5C8  |  4294948296 |
|     240 | 0xFFFF2928  |  4294912296 |
|     241 | 0xFFFF3CB0  |  4294917296 |
|     242 | 0xFFFF4192  |  4294918546 |
|     243 | 0xFFFED978  |  4294891896 |
|     244 | 0xFFFEAA98  |  4294879896 |
|     245 | 0xFFFA4B10  |  4294593296 |
|     246 | 0xFFFE456C  |  4294853996 |
|     247 | 0xFFF9A188  |  4294549896 |
|     248 | 0xFFF94A62  |  4294527586 |
|     249 | 0xFFFB0E60  |  4294643296 |
|     250 | 0xFFF9C640  |  4294559296 |
|     251 | 0xFFF7FFF4  |  4294442996 |
|     252 | 0xFFF80120  |  4294443296 |
|     253 | 0xFFFCD380  |  4294759296 |
|     254 | 0xFFFA2BD0  |  4294585296 |
|     255 | 0x50140     |      328000 |
|     256 | 0x52C38     |      339000 |
|     257 | 0x7FAF8     |      523000 |
|     258 | 0x591C8     |      365000 |
|     259 | 0x90498     |      591000 |
|     260 | 0x4F1A0     |      324000 |
|     261 | 0xFFFFDCD8  |  4294958296 |
|     262 | 0x9E5E8     |      648680 |
|     263 | 0xFFF6F67C  |  4294375036 |
|     264 | 0xFFFA10BE  |  4294578366 |
|     265 | 0xFFF8E3B0  |  4294501296 |
|     266 | 0xFFF931D0  |  4294521296 |
|     267 | 0xFFFDAA58  |  4294814296 |
|     268 | 0xFFFBD886  |  4294695046 |
|     269 | 0x29810     |      170000 |
|     270 | 0x46118     |      287000 |
|     271 | 0x6F540     |      456000 |
|     272 | 0x86C40     |      552000 |
|     273 | 0x3E418     |      255000 |
|     274 | 0x72BF0     |      470000 |
|     275 | 0xE290      |       58000 |
|     276 | 0xFFFEF660  |  4294899296 |
|     277 | 0xFFF71E90  |  4294385296 |
|     278 | 0xFFF213D2  |  4294054866 |
|     279 | 0x33A2C     |      211500 |
|     280 | 0xFFEFCDC0  |  4293905856 |
|     281 | 0xFFF32286  |  4294124166 |
|     282 | 0xFFFF56FA  |  4294924026 |
|     283 | 0xFFFFE0C0  |  4294959296 |
|     284 | 0xFFFEEDB4  |  4294897076 |
|     285 | 0xFFFFA240  |  4294943296 |
|     286 | 0xFFFEF32C  |  4294898476 |
|     287 | 0xFFFA4804  |  4294592516 |
|     288 | 0xFFF94990  |  4294527376 |
|     289 | 0x55555555  |  1431655765 |
|     290 | 0x33333333  |   858993459 |
|     291 | 0xF0F0F0F   |   252645135 |
|     292 | 0x001C      |          28 |
|     293 | 0xFF00FF    |    16711935 |
|     294 | 0xFFFF      |       65535 |
|     295 | 0xFFF72278  |  4294386296 |
|     296 | 0xFFEFA516  |  4293895446 |
|     297 | 0x0B0E      |        2830 |
|     298 | 0x1EBB      |        7867 |
|     299 | 0x1DF3      |        7667 |
|     300 | 0x1DFA      |        7674 |
|     301 | 0x1DF4      |        7668 |
|     302 | 0x1DF8      |        7672 |
|     303 | 0x1DF1      |        7665 |
|     304 | 0x1ECD      |        7885 |
|     305 | 0x1EB5      |        7861 |
|     306 | 0x1DF2      |        7666 |
|     307 | 0x16C0      |        5824 |
|     308 | 0x16C3      |        5827 |
|     309 | 0x16CB      |        5835 |
|     310 | 0x16CD      |        5837 |
|     311 | 0x1056      |        4182 |
|     312 | 0x150C      |        5388 |
|     313 | 0x150A      |        5386 |
|     314 | 0x1512      |        5394 |
|     315 | 0x150D      |        5389 |
|     316 | 0x1510      |        5392 |
|     317 | 0x16C1      |        5825 |
|     318 | 0x16C4      |        5828 |
|     319 | 0x109E      |        4254 |
|     320 | 0x16CA      |        5834 |
|     321 | 0x106E      |        4206 |
|     322 | 0x150E      |        5390 |
|     323 | 0x1515      |        5397 |
|     324 | 0x150F      |        5391 |
|     325 | 0x16CC      |        5836 |
|     326 | 0x16CE      |        5838 |
|     327 | 0x1511      |        5393 |
|     328 | 0x1509      |        5385 |
|     329 | 0x150B      |        5387 |
|     330 | 0x16C2      |        5826 |
|     331 | 0x16C5      |        5829 |
|     332 | 0x16C6      |        5830 |
|     333 | 0x106A      |        4202 |
|     334 | 0x18FF      |        6399 |
|     335 | 0x1900      |        6400 |
|     336 | 0x1901      |        6401 |
|     337 | 0x1513      |        5395 |
|     338 | 0x1902      |        6402 |
|     339 | 0x14CA      |        5322 |
|     340 | 0x109F      |        4255 |
|     341 | 0x1070      |        4208 |
|     342 | 0x194A      |        6474 |
|     343 | 0x16C8      |        5832 |
|     344 | 0x16C9      |        5833 |
|     345 | 0x153F      |        5439 |
|     346 | 0x16C7      |        5831 |
|     347 | 0x153C      |        5436 |
|     348 | 0x194B      |        6475 |
|     349 | 0x1949      |        6473 |
|     350 | 0x194C      |        6476 |
|     351 | 0x194D      |        6477 |
|     352 | 0x194E      |        6478 |
|     353 | 0x0011      |          17 |
|     354 | 0x0012      |          18 |
|     355 | 0x0013      |          19 |
|     356 | 0x0014      |          20 |
|     357 | 0x0015      |          21 |
|     358 | 0x0019      |          25 |
|     359 | 0x001A      |          26 |
|     360 | 0x001B      |          27 |
|     361 | 0x001D      |          29 |
|     362 | 0x0021      |          33 |
|     363 | 0x0022      |          34 |
|     364 | 0x0023      |          35 |
|     365 | 0x0024      |          36 |
|     366 | 0x0025      |          37 |
|     367 | 0x0026      |          38 |
|     368 | 0x0027      |          39 |
|     369 | 0x002A      |          42 |
|     370 | 0x002B      |          43 |
|     371 | 0x002C      |          44 |
|     372 | 0x002D      |          45 |
|     373 | 0x002E      |          46 |

## String References

- **7609**: Light begins to shimmer and twist as you pass your hand over it.
- **7610**: The blinding light obscures your vision of the world beyond.
- **7611**: Your pinches of escha silt trigger a faint reaction in the light, granting a small glimpse of what lies beyond.
- **7613**: Traverse the light? ($0 silt) [Let's do it. ($1 silt)/Do not go into the light!]
- **7614**: You do not have enough escha silt.
- **7615**: What do you do? [Nothing for now./Use escha silt./Teleport using $0./Teleport using $6.]
- **7616**: Traverse the light? [Let's do this./No, wait!]
- **7665**: Which temporary item will you obtain? [None of them./$0/$1/$2/$3/$4/$5/$6@/$7/Destroy treasure chest.]
- **7666**: Which item will you obtain? [None of them./$0/$1/$2/$3/$4/$5/$6/$7/Destroy treasure chest.]
- **7667**: This treasure chest has been fitted with a unique combination lock that randomly generates numbers from 1\`99. Opening it requires you to guess whether the next number is greater or less than the previous.
- **7668**: Previous: $0 ($1 tr[y/ies] left) [Do nothing./Twist number dial up./Twist number dial down.]
- **7672**: The chest will be lost. Proceed? [Yes, destroy./No, cancel.]
- **7674**: What will you do? [Do nothing./Attempt to unlock it./Destroy the chest.]
- **7861**: Obtain this item? [Yes./No.]
- **7867**: The chest is locked.
- **7885**: Obtain this item?

## Events

### Event 65535

#### Metadata

| Field        | Value   |
|--------------|---------|
| Entrypoint   | 0x0000  |
| Data Size    | 1 bytes |
| Instructions | 1       |

```
      00 01 02 03 04 05 06 07  08 09 0A 0B 0C 0D 0E 0F
      -- -- -- -- -- -- -- --  -- -- -- -- -- -- -- --
0000: 00                                                .               
```

#### Opcodes

```
  0: 0x0000 [0x00] END_REQSTACK()
```

### Event 65534

#### Metadata

| Field        | Value   |
|--------------|---------|
| Entrypoint   | 0x0001  |
| Data Size    | 1 bytes |
| Instructions | 1       |

```
      00 01 02 03 04 05 06 07  08 09 0A 0B 0C 0D 0E 0F
      -- -- -- -- -- -- -- --  -- -- -- -- -- -- -- --
0000:    00                                              .              
```

#### Opcodes

```
  0: 0x0001 [0x00] END_REQSTACK()
```

### Event 65535.1

#### Metadata

| Field        | Value   |
|--------------|---------|
| Entrypoint   | 0x0002  |
| Data Size    | 6 bytes |
| Instructions | 2       |

```
      00 01 02 03 04 05 06 07  08 09 0A 0B 0C 0D 0E 0F
      -- -- -- -- -- -- -- --  -- -- -- -- -- -- -- --
0000:       03 02 10 07 7F 00                             ......        
```

#### Opcodes

```
  0: 0x0002 [0x03] Work_Zone[2] = Entity->Race
  1: 0x0007 [0x00] END_REQSTACK()
```

### Event 65535.2

#### Metadata

| Field        | Value   |
|--------------|---------|
| Entrypoint   | 0x0008  |
| Data Size    | 6 bytes |
| Instructions | 2       |

```
      00 01 02 03 04 05 06 07  08 09 0A 0B 0C 0D 0E 0F
      -- -- -- -- -- -- -- --  -- -- -- -- -- -- -- --
0000:                          03 02 10 0B 7F 00                ......  
```

#### Opcodes

```
  0: 0x0008 [0x03] Work_Zone[2] = (Entity->Render.Flags01 >> 25) & 1
  1: 0x000D [0x00] END_REQSTACK()
```

### Event 65535.3

#### Metadata

| Field        | Value    |
|--------------|----------|
| Entrypoint   | 0x000E   |
| Data Size    | 37 bytes |
| Instructions | 5        |

```
      00 01 02 03 04 05 06 07  08 09 0A 0B 0C 0D 0E 0F
      -- -- -- -- -- -- -- --  -- -- -- -- -- -- -- --
0000:                                            03 00                ..
0010: 00 07 7F 1A CB 00 66 01  00 F8 FF FF 7F F8 FF FF  ......f.........
0020: 7F 73 68 61 30 53 F8 FF  FF 7F F8 FF FF 7F 73 68  .sha0S........sh
0030: 61 30 00                                          a0.             
```

#### Opcodes

```
  0: 0x000E [0x03] ExtData[1]->WorkLocal[0] = Entity->Race
  1: 0x0013 [0x1A] CALL_SUBROUTINE(address=0x00CB)
  2: 0x0016 [0x66] LOAD_EXT_SCHEDULER_MAIN: Load scheduler "sha0" with entities [EventEntity, EventEntity], work=ExtData[1]->WorkLocal[1]
  3: 0x0025 [0x53] WAIT_SCHEDULER_TASK: Wait for scheduler "sha0" with entities [EventEntity, EventEntity]
  4: 0x0032 [0x00] END_REQSTACK()
```

### Event 65535.4

#### Metadata

| Field        | Value    |
|--------------|----------|
| Entrypoint   | 0x0033   |
| Data Size    | 37 bytes |
| Instructions | 5        |

```
      00 01 02 03 04 05 06 07  08 09 0A 0B 0C 0D 0E 0F
      -- -- -- -- -- -- -- --  -- -- -- -- -- -- -- --
0030:          03 00 00 07 7F  1A CB 00 66 01 00 F8 FF     ........f....
0040: FF 7F F8 FF FF 7F 73 68  61 31 53 F8 FF FF 7F F8  ......sha1S.....
0050: FF FF 7F 73 68 61 31 00                           ...sha1.        
```

#### Opcodes

```
  0: 0x0033 [0x03] ExtData[1]->WorkLocal[0] = Entity->Race
  1: 0x0038 [0x1A] CALL_SUBROUTINE(address=0x00CB)
  2: 0x003B [0x66] LOAD_EXT_SCHEDULER_MAIN: Load scheduler "sha1" with entities [EventEntity, EventEntity], work=ExtData[1]->WorkLocal[1]
  3: 0x004A [0x53] WAIT_SCHEDULER_TASK: Wait for scheduler "sha1" with entities [EventEntity, EventEntity]
  4: 0x0057 [0x00] END_REQSTACK()
```

### Event 65535.5

#### Metadata

| Field        | Value   |
|--------------|---------|
| Entrypoint   | 0x0058  |
| Data Size    | 7 bytes |
| Instructions | 3       |

```
      00 01 02 03 04 05 06 07  08 09 0A 0B 0C 0D 0E 0F
      -- -- -- -- -- -- -- --  -- -- -- -- -- -- -- --
0050:                          AB 03 AC 01 00 80 00             ....... 
```

#### Opcodes

```
  0: 0x0058 [0xAB] EventEntity->Render.Flags0 ^= 0x20000 // Toggle bit 17
  1: 0x005A [0xAC] EventEntity->StatusEvent = 1*
  2: 0x005E [0x00] END_REQSTACK()
```

### Event 65535.6

#### Metadata

| Field        | Value   |
|--------------|---------|
| Entrypoint   | 0x005F  |
| Data Size    | 7 bytes |
| Instructions | 3       |

```
      00 01 02 03 04 05 06 07  08 09 0A 0B 0C 0D 0E 0F
      -- -- -- -- -- -- -- --  -- -- -- -- -- -- -- --
0050:                                               AC                 .
0060: 01 01 80 AB 04 00                                 ......          
```

#### Opcodes

```
  0: 0x005F [0xAC] EventEntity->StatusEvent = 0*
  1: 0x0063 [0xAB] EventEntity->Render.Flags0 |= 0x40000 // Set bit 18
  2: 0x0065 [0x00] END_REQSTACK()
```

### Event 65535.7

#### Metadata

| Field        | Value   |
|--------------|---------|
| Entrypoint   | 0x0066  |
| Data Size    | 6 bytes |
| Instructions | 2       |

```
      00 01 02 03 04 05 06 07  08 09 0A 0B 0C 0D 0E 0F
      -- -- -- -- -- -- -- --  -- -- -- -- -- -- -- --
0060:                   03 09  10 07 7F 00                    ......    
```

#### Opcodes

```
  0: 0x0066 [0x03] Work_Zone[9] = Entity->Race
  1: 0x006B [0x00] END_REQSTACK()
```

### Event 65535.8

#### Metadata

| Field        | Value    |
|--------------|----------|
| Entrypoint   | 0x006C   |
| Data Size    | 29 bytes |
| Instructions | 5        |

```
      00 01 02 03 04 05 06 07  08 09 0A 0B 0C 0D 0E 0F
      -- -- -- -- -- -- -- --  -- -- -- -- -- -- -- --
0060:                                      03 00 00 07              ....
0070: 7F 1A F0 00 07 01 00 00  80 66 01 00 F8 FF FF 7F  .........f......
0080: F8 FF FF 7F 70 61 73 30  00                       ....pas0.       
```

#### Opcodes

```
  0: 0x006C [0x03] ExtData[1]->WorkLocal[0] = Entity->Race
  1: 0x0071 [0x1A] CALL_SUBROUTINE(address=0x00F0)
  2: 0x0074 [0x07] ExtData[1]->WorkLocal[1] += 1*
  3: 0x0079 [0x66] LOAD_EXT_SCHEDULER_MAIN: Load scheduler "pas0" with entities [EventEntity, EventEntity], work=ExtData[1]->WorkLocal[1]
  4: 0x0088 [0x00] END_REQSTACK()
```

### Event 65535.9

#### Metadata

| Field        | Value    |
|--------------|----------|
| Entrypoint   | 0x0089   |
| Data Size    | 15 bytes |
| Instructions | 5        |

```
      00 01 02 03 04 05 06 07  08 09 0A 0B 0C 0D 0E 0F
      -- -- -- -- -- -- -- --  -- -- -- -- -- -- -- --
0080:                             32 02 80 1F 00 03 80           2......
0090: 04 80 05 80 1F 01 6F 00                           ......o.        
```

#### Opcodes

```
  0: 0x0089 [0x32] ExtData[1]->MainSpeed = 13* * 0.1
  1: 0x008C [0x1F] MOVE_ENTITY: EventEntity moves to X=284.945*, Z=304.980*, Y=-101.274*
  2: 0x0094 [0x1F] MOVE_ENTITY: Update entity position (mode=1)
  3: 0x0096 [0x6F] WAIT_FRAME_DELAY: Yield until WaitTime reaches zero
  4: 0x0097 [0x00] END_REQSTACK()
```

### Event 65535.10

#### Metadata

| Field        | Value    |
|--------------|----------|
| Entrypoint   | 0x0098   |
| Data Size    | 15 bytes |
| Instructions | 5        |

```
      00 01 02 03 04 05 06 07  08 09 0A 0B 0C 0D 0E 0F
      -- -- -- -- -- -- -- --  -- -- -- -- -- -- -- --
0090:                          32 02 80 1F 00 06 80 07          2.......
00A0: 80 08 80 1F 01 6F 00                              .....o.         
```

#### Opcodes

```
  0: 0x0098 [0x32] ExtData[1]->MainSpeed = 13* * 0.1
  1: 0x009B [0x1F] MOVE_ENTITY: EventEntity moves to X=-460.865*, Z=589.168*, Y=-49.395*
  2: 0x00A3 [0x1F] MOVE_ENTITY: Update entity position (mode=1)
  3: 0x00A5 [0x6F] WAIT_FRAME_DELAY: Yield until WaitTime reaches zero
  4: 0x00A6 [0x00] END_REQSTACK()
```

### Event 65535.11

#### Metadata

| Field        | Value    |
|--------------|----------|
| Entrypoint   | 0x00A7   |
| Data Size    | 22 bytes |
| Instructions | 8        |

```
      00 01 02 03 04 05 06 07  08 09 0A 0B 0C 0D 0E 0F
      -- -- -- -- -- -- -- --  -- -- -- -- -- -- -- --
00A0:                      32  09 80 1F 00 0A 80 0B 80         2........
00B0: 0C 80 1F 01 6F 1E 81 33  12 01 6F 70 00           ....o..3..op.   
```

#### Opcodes

```
  0: 0x00A7 [0x32] ExtData[1]->MainSpeed = 40* * 0.1
  1: 0x00AA [0x1F] MOVE_ENTITY: EventEntity moves to X=-747.777*, Z=-773.382*, Y=-439.522*
  2: 0x00B2 [0x1F] MOVE_ENTITY: Update entity position (mode=1)
  3: 0x00B4 [0x6F] WAIT_FRAME_DELAY: Yield until WaitTime reaches zero
  4: 0x00B5 [0x1E] EventEntity looks at Reikuu (ID: 17970049/0x01123381) and starts talking
  5: 0x00BA [0x6F] WAIT_FRAME_DELAY: Yield until WaitTime reaches zero
  6: 0x00BB [0x70] WAIT_ENTITY_RENDER_FLAG: Wait while EventEntity->Render.Flags3 bit 2 is set (cancel turn if not)
  7: 0x00BC [0x00] END_REQSTACK()
```

### Event 65535.12

#### Metadata

| Field        | Value     |
|--------------|-----------|
| Entrypoint   | 0x00BD    |
| Data Size    | 162 bytes |
| Instructions | 4         |

```
      00 01 02 03 04 05 06 07  08 09 0A 0B 0C 0D 0E 0F
      -- -- -- -- -- -- -- --  -- -- -- -- -- -- -- --
00B0:                                         32 02 80               2..
00C0: 1F 00 0D 80 0E 80 0F 80  1F 01 00 03 01 00 00 00  ................
00D0: 02 01 00 10 80 05 E0 00  08 01 00 00 80 01 E5 00  ................
00E0: 08 01 00 11 80 14 01 00  12 80 07 01 00 13 80 1B  ................
00F0: 03 01 00 00 00 02 01 00  10 80 05 05 01 08 01 00  ................
0100: 00 80 01 0A 01 08 01 00  11 80 14 01 00 12 80 07  ................
0110: 01 00 14 80 1B 03 01 00  00 00 02 01 00 10 80 05  ................
0120: 2A 01 08 01 00 00 80 01  2F 01 08 01 00 11 80 14  *......./.......
0130: 01 00 12 80 07 01 00 15  80 1B 03 01 00 00 00 02  ................
0140: 01 00 10 80 05 4F 01 08  01 00 00 80 01 54 01 08  .....O.......T..
0150: 01 00 11 80 14 01 00 12  80 07 01 00 16 80 1B     ............... 
```

#### Opcodes

```
  0: 0x00BD [0x32] ExtData[1]->MainSpeed = 13* * 0.1
  1: 0x00C0 [0x1F] MOVE_ENTITY: EventEntity moves to X=268.431*, Z=100.723*, Y=-86.988*
  2: 0x00C8 [0x1F] MOVE_ENTITY: Update entity position (mode=1)
  3: 0x00CA [0x00] END_REQSTACK()
```

#### Data or dead code:

```
# Dead code (unreachable instructions):
     0x00CB [0x03] ExtData[1]->WorkLocal[1] = ExtData[1]->WorkLocal[0]
     0x00D0 [0x02] IF !(ExtData[1]->WorkLocal[1] > 5*) GOTO 0x00E0
     0x00D8 [0x08] ExtData[1]->WorkLocal[1] -= 1*
     0x00DD [0x01] GOTO 0x00E5
     0x00E0 [0x08] ExtData[1]->WorkLocal[1] -= 2*
     0x00E5 [0x14] ExtData[1]->WorkLocal[1] *= 10*
     0x00EA [0x07] ExtData[1]->WorkLocal[1] += 9*
     0x00EF [0x1B] RETURN
     0x00F0 [0x03] ExtData[1]->WorkLocal[1] = ExtData[1]->WorkLocal[0]
     0x00F5 [0x02] IF !(ExtData[1]->WorkLocal[1] > 5*) GOTO 0x0105
     0x00FD [0x08] ExtData[1]->WorkLocal[1] -= 1*
     0x0102 [0x01] GOTO 0x010A
     0x0105 [0x08] ExtData[1]->WorkLocal[1] -= 2*
     0x010A [0x14] ExtData[1]->WorkLocal[1] *= 10*
     0x010F [0x07] ExtData[1]->WorkLocal[1] += 70*
     0x0114 [0x1B] RETURN
     0x0115 [0x03] ExtData[1]->WorkLocal[1] = ExtData[1]->WorkLocal[0]
     0x011A [0x02] IF !(ExtData[1]->WorkLocal[1] > 5*) GOTO 0x012A
     0x0122 [0x08] ExtData[1]->WorkLocal[1] -= 1*
     0x0127 [0x01] GOTO 0x012F
     0x012A [0x08] ExtData[1]->WorkLocal[1] -= 2*
     0x012F [0x14] ExtData[1]->WorkLocal[1] *= 10*
     0x0134 [0x07] ExtData[1]->WorkLocal[1] += 140*
     0x0139 [0x1B] RETURN
     0x013A [0x03] ExtData[1]->WorkLocal[1] = ExtData[1]->WorkLocal[0]
     0x013F [0x02] IF !(ExtData[1]->WorkLocal[1] > 5*) GOTO 0x014F
     0x0147 [0x08] ExtData[1]->WorkLocal[1] -= 1*
     0x014C [0x01] GOTO 0x0154
     0x014F [0x08] ExtData[1]->WorkLocal[1] -= 2*
     0x0154 [0x14] ExtData[1]->WorkLocal[1] *= 10*
     0x0159 [0x07] ExtData[1]->WorkLocal[1] += 210*
     0x015E [0x1B] RETURN
```

### Event 65535.13

#### Metadata

| Field        | Value    |
|--------------|----------|
| Entrypoint   | 0x015F   |
| Data Size    | 24 bytes |
| Instructions | 4        |

```
      00 01 02 03 04 05 06 07  08 09 0A 0B 0C 0D 0E 0F
      -- -- -- -- -- -- -- --  -- -- -- -- -- -- -- --
0150:                                               03                 .
0160: 00 00 07 7F 1A CB 00 66  01 00 F8 FF FF 7F F8 FF  .......f........
0170: FF 7F 74 6C 6B 30 00                              ..tlk0.         
```

#### Opcodes

```
  0: 0x015F [0x03] ExtData[1]->WorkLocal[0] = Entity->Race
  1: 0x0164 [0x1A] CALL_SUBROUTINE(address=0x00CB)
  2: 0x0167 [0x66] LOAD_EXT_SCHEDULER_MAIN: Load scheduler "tlk0" with entities [EventEntity, EventEntity], work=ExtData[1]->WorkLocal[1]
  3: 0x0176 [0x00] END_REQSTACK()
```

### Event 65535.14

#### Metadata

| Field        | Value    |
|--------------|----------|
| Entrypoint   | 0x0177   |
| Data Size    | 24 bytes |
| Instructions | 4        |

```
      00 01 02 03 04 05 06 07  08 09 0A 0B 0C 0D 0E 0F
      -- -- -- -- -- -- -- --  -- -- -- -- -- -- -- --
0170:                      03  00 00 07 7F 1A CB 00 66         ........f
0180: 01 00 F8 FF FF 7F F8 FF  FF 7F 74 6C 6B 31 00     ..........tlk1. 
```

#### Opcodes

```
  0: 0x0177 [0x03] ExtData[1]->WorkLocal[0] = Entity->Race
  1: 0x017C [0x1A] CALL_SUBROUTINE(address=0x00CB)
  2: 0x017F [0x66] LOAD_EXT_SCHEDULER_MAIN: Load scheduler "tlk1" with entities [EventEntity, EventEntity], work=ExtData[1]->WorkLocal[1]
  3: 0x018E [0x00] END_REQSTACK()
```

### Event 65535.15

#### Metadata

| Field        | Value    |
|--------------|----------|
| Entrypoint   | 0x018F   |
| Data Size    | 38 bytes |
| Instructions | 5        |

```
      00 01 02 03 04 05 06 07  08 09 0A 0B 0C 0D 0E 0F
      -- -- -- -- -- -- -- --  -- -- -- -- -- -- -- --
0180:                                               22                 "
0190: 00 2F 00 F8 FF FF 7F B6  0B 17 80 18 80 19 80 1A  ./..............
01A0: 80 1B 80 1B 80 1B 80 1C  80 1D 80 6C F8 FF FF 7F  ...........l....
01B0: 1E 80 00 80 00                                    .....           
```

#### Opcodes

```
  0: 0x018F [0x22] ENTITY_HIDE_FLAG(enabled=0x00)
  1: 0x0191 [0x2F] EventEntity->Render.Flags0 &= ~0x80000 // Bit 19
  2: 0x0197 [0xB6] ENTITY_APPEARANCE_HANDLER(case=Full entity look, race=8*, hair=7*, head=145*, body=79*, hands=76*, legs=76*, feet=76*, main=201*, sub=24*)
  3: 0x01AB [0x6C] FADE_ENTITY_COLOR(entity_id=EventEntity, end_alpha=32*, fade_time=1*)
  4: 0x01B4 [0x00] END_REQSTACK()
```

### Event 65535.16

#### Metadata

| Field        | Value    |
|--------------|----------|
| Entrypoint   | 0x01B5   |
| Data Size    | 38 bytes |
| Instructions | 5        |

```
      00 01 02 03 04 05 06 07  08 09 0A 0B 0C 0D 0E 0F
      -- -- -- -- -- -- -- --  -- -- -- -- -- -- -- --
01B0:                22 00 2F  00 F8 FF FF 7F B6 0B 18       "./........
01C0: 80 18 80 19 80 1A 80 1B  80 1B 80 1B 80 1C 80 1D  ................
01D0: 80 6C F8 FF FF 7F 1F 80  00 80 00                 .l.........     
```

#### Opcodes

```
  0: 0x01B5 [0x22] ENTITY_HIDE_FLAG(enabled=0x00)
  1: 0x01B7 [0x2F] EventEntity->Render.Flags0 &= ~0x80000 // Bit 19
  2: 0x01BD [0xB6] ENTITY_APPEARANCE_HANDLER(case=Full entity look, race=7*, hair=7*, head=145*, body=79*, hands=76*, legs=76*, feet=76*, main=201*, sub=24*)
  3: 0x01D1 [0x6C] FADE_ENTITY_COLOR(entity_id=EventEntity, end_alpha=48*, fade_time=1*)
  4: 0x01DA [0x00] END_REQSTACK()
```

### Event 65535.17

#### Metadata

| Field        | Value    |
|--------------|----------|
| Entrypoint   | 0x01DB   |
| Data Size    | 38 bytes |
| Instructions | 5        |

```
      00 01 02 03 04 05 06 07  08 09 0A 0B 0C 0D 0E 0F
      -- -- -- -- -- -- -- --  -- -- -- -- -- -- -- --
01D0:                                   22 00 2F 00 F8             "./..
01E0: FF FF 7F B6 0B 10 80 18  80 19 80 1A 80 1B 80 1B  ................
01F0: 80 1B 80 1C 80 1D 80 6C  F8 FF FF 7F 20 80 00 80  .......l.... ...
0200: 00                                                .               
```

#### Opcodes

```
  0: 0x01DB [0x22] ENTITY_HIDE_FLAG(enabled=0x00)
  1: 0x01DD [0x2F] EventEntity->Render.Flags0 &= ~0x80000 // Bit 19
  2: 0x01E3 [0xB6] ENTITY_APPEARANCE_HANDLER(case=Full entity look, race=5*, hair=7*, head=145*, body=79*, hands=76*, legs=76*, feet=76*, main=201*, sub=24*)
  3: 0x01F7 [0x6C] FADE_ENTITY_COLOR(entity_id=EventEntity, end_alpha=64*, fade_time=1*)
  4: 0x0200 [0x00] END_REQSTACK()
```

### Event 65535.18

#### Metadata

| Field        | Value    |
|--------------|----------|
| Entrypoint   | 0x0201   |
| Data Size    | 37 bytes |
| Instructions | 5        |

```
      00 01 02 03 04 05 06 07  08 09 0A 0B 0C 0D 0E 0F
      -- -- -- -- -- -- -- --  -- -- -- -- -- -- -- --
0200:    03 00 00 07 7F 1A CB  00 66 01 00 F8 FF FF 7F   ........f......
0210: F8 FF FF 7F 73 69 74 30  53 F8 FF FF 7F F8 FF FF  ....sit0S.......
0220: 7F 73 69 74 30 00                                 .sit0.          
```

#### Opcodes

```
  0: 0x0201 [0x03] ExtData[1]->WorkLocal[0] = Entity->Race
  1: 0x0206 [0x1A] CALL_SUBROUTINE(address=0x00CB)
  2: 0x0209 [0x66] LOAD_EXT_SCHEDULER_MAIN: Load scheduler "sit0" with entities [EventEntity, EventEntity], work=ExtData[1]->WorkLocal[1]
  3: 0x0218 [0x53] WAIT_SCHEDULER_TASK: Wait for scheduler "sit0" with entities [EventEntity, EventEntity]
  4: 0x0225 [0x00] END_REQSTACK()
```

### Event 65535.19

#### Metadata

| Field        | Value    |
|--------------|----------|
| Entrypoint   | 0x0226   |
| Data Size    | 37 bytes |
| Instructions | 5        |

```
      00 01 02 03 04 05 06 07  08 09 0A 0B 0C 0D 0E 0F
      -- -- -- -- -- -- -- --  -- -- -- -- -- -- -- --
0220:                   03 00  00 07 7F 1A CB 00 66 01        ........f.
0230: 00 F8 FF FF 7F F8 FF FF  7F 73 69 74 31 53 F8 FF  .........sit1S..
0240: FF 7F F8 FF FF 7F 73 69  74 31 00                 ......sit1.     
```

#### Opcodes

```
  0: 0x0226 [0x03] ExtData[1]->WorkLocal[0] = Entity->Race
  1: 0x022B [0x1A] CALL_SUBROUTINE(address=0x00CB)
  2: 0x022E [0x66] LOAD_EXT_SCHEDULER_MAIN: Load scheduler "sit1" with entities [EventEntity, EventEntity], work=ExtData[1]->WorkLocal[1]
  3: 0x023D [0x53] WAIT_SCHEDULER_TASK: Wait for scheduler "sit1" with entities [EventEntity, EventEntity]
  4: 0x024A [0x00] END_REQSTACK()
```

### Event 65535.20

#### Metadata

| Field        | Value    |
|--------------|----------|
| Entrypoint   | 0x024B   |
| Data Size    | 42 bytes |
| Instructions | 6        |

```
      00 01 02 03 04 05 06 07  08 09 0A 0B 0C 0D 0E 0F
      -- -- -- -- -- -- -- --  -- -- -- -- -- -- -- --
0240:                                   03 00 00 07 7F             .....
0250: 1A CB 00 66 01 00 F8 FF  FF 7F F8 FF FF 7F 74 6C  ...f..........tl
0260: 6B 30 1C 21 80 66 01 00  F8 FF FF 7F F8 FF FF 7F  k0.!.f..........
0270: 74 6C 6B 31 00                                    tlk1.           
```

#### Opcodes

```
  0: 0x024B [0x03] ExtData[1]->WorkLocal[0] = Entity->Race
  1: 0x0250 [0x1A] CALL_SUBROUTINE(address=0x00CB)
  2: 0x0253 [0x66] LOAD_EXT_SCHEDULER_MAIN: Load scheduler "tlk0" with entities [EventEntity, EventEntity], work=ExtData[1]->WorkLocal[1]
  3: 0x0262 [0x1C] WAIT(60* ticks)
  4: 0x0265 [0x66] LOAD_EXT_SCHEDULER_MAIN: Load scheduler "tlk1" with entities [EventEntity, EventEntity], work=ExtData[1]->WorkLocal[1]
  5: 0x0274 [0x00] END_REQSTACK()
```

### Event 65535.21

#### Metadata

| Field        | Value    |
|--------------|----------|
| Entrypoint   | 0x0275   |
| Data Size    | 15 bytes |
| Instructions | 5        |

```
      00 01 02 03 04 05 06 07  08 09 0A 0B 0C 0D 0E 0F
      -- -- -- -- -- -- -- --  -- -- -- -- -- -- -- --
0270:                32 02 80  1F 00 22 80 23 80 24 80       2....".#.$.
0280: 1F 01 6F 00                                       ..o.            
```

#### Opcodes

```
  0: 0x0275 [0x32] ExtData[1]->MainSpeed = 13* * 0.1
  1: 0x0278 [0x1F] MOVE_ENTITY: EventEntity moves to X=260.021*, Z=88.984*, Y=-87.000*
  2: 0x0280 [0x1F] MOVE_ENTITY: Update entity position (mode=1)
  3: 0x0282 [0x6F] WAIT_FRAME_DELAY: Yield until WaitTime reaches zero
  4: 0x0283 [0x00] END_REQSTACK()
```

### Event 65535.22

#### Metadata

| Field        | Value    |
|--------------|----------|
| Entrypoint   | 0x0284   |
| Data Size    | 15 bytes |
| Instructions | 5        |

```
      00 01 02 03 04 05 06 07  08 09 0A 0B 0C 0D 0E 0F
      -- -- -- -- -- -- -- --  -- -- -- -- -- -- -- --
0280:             32 02 80 1F  00 25 80 26 80 27 80 1F      2....%.&.'..
0290: 01 6F 00                                          .o.             
```

#### Opcodes

```
  0: 0x0284 [0x32] ExtData[1]->MainSpeed = 13* * 0.1
  1: 0x0287 [0x1F] MOVE_ENTITY: EventEntity moves to X=156.486*, Z=330.506*, Y=-88.101*
  2: 0x028F [0x1F] MOVE_ENTITY: Update entity position (mode=1)
  3: 0x0291 [0x6F] WAIT_FRAME_DELAY: Yield until WaitTime reaches zero
  4: 0x0292 [0x00] END_REQSTACK()
```

### Event 65535.23

#### Metadata

| Field        | Value    |
|--------------|----------|
| Entrypoint   | 0x0293   |
| Data Size    | 15 bytes |
| Instructions | 5        |

```
      00 01 02 03 04 05 06 07  08 09 0A 0B 0C 0D 0E 0F
      -- -- -- -- -- -- -- --  -- -- -- -- -- -- -- --
0290:          32 02 80 1F 00  28 80 29 80 2A 80 1F 01     2....(.).*...
02A0: 6F 00                                             o.              
```

#### Opcodes

```
  0: 0x0293 [0x32] ExtData[1]->MainSpeed = 13* * 0.1
  1: 0x0296 [0x1F] MOVE_ENTITY: EventEntity moves to X=229.444*, Z=305.400*, Y=-91.398*
  2: 0x029E [0x1F] MOVE_ENTITY: Update entity position (mode=1)
  3: 0x02A0 [0x6F] WAIT_FRAME_DELAY: Yield until WaitTime reaches zero
  4: 0x02A1 [0x00] END_REQSTACK()
```

### Event 65535.24

#### Metadata

| Field        | Value    |
|--------------|----------|
| Entrypoint   | 0x02A2   |
| Data Size    | 32 bytes |
| Instructions | 8        |

```
      00 01 02 03 04 05 06 07  08 09 0A 0B 0C 0D 0E 0F
      -- -- -- -- -- -- -- --  -- -- -- -- -- -- -- --
02A0:       32 02 80 1F 00 2B  80 2C 80 2D 80 1F 01 27    2....+.,.-...'
02B0: 10 23 33 12 01 0A 1F 00  2E 80 2F 80 30 80 1F 01  .#3......./.0...
02C0: 6F 00                                             o.              
```

#### Opcodes

```
  0: 0x02A2 [0x32] ExtData[1]->MainSpeed = 13* * 0.1
  1: 0x02A5 [0x1F] MOVE_ENTITY: EventEntity moves to X=258.902*, Z=277.602*, Y=-91.218*
  2: 0x02AD [0x1F] MOVE_ENTITY: Update entity position (mode=1)
  3: 0x02AF [0x27] REQ_SET(priority=0x10, entity_id=Iroha (ID: 17969955/0x01123323), tag_num=0x0A)
  4: 0x02B6 [0x1F] MOVE_ENTITY: EventEntity moves to X=259.060*, Z=275.836*, Y=-90.984*
  5: 0x02BE [0x1F] MOVE_ENTITY: Update entity position (mode=1)
  6: 0x02C0 [0x6F] WAIT_FRAME_DELAY: Yield until WaitTime reaches zero
  7: 0x02C1 [0x00] END_REQSTACK()
```

### Event 65535.25

#### Metadata

| Field        | Value    |
|--------------|----------|
| Entrypoint   | 0x02C2   |
| Data Size    | 15 bytes |
| Instructions | 5        |

```
      00 01 02 03 04 05 06 07  08 09 0A 0B 0C 0D 0E 0F
      -- -- -- -- -- -- -- --  -- -- -- -- -- -- -- --
02C0:       32 02 80 1F 00 31  80 32 80 33 80 1F 01 6F    2....1.2.3...o
02D0: 00                                                .               
```

#### Opcodes

```
  0: 0x02C2 [0x32] ExtData[1]->MainSpeed = 13* * 0.1
  1: 0x02C5 [0x1F] MOVE_ENTITY: EventEntity moves to X=259.646*, Z=262.472*, Y=-87.392*
  2: 0x02CD [0x1F] MOVE_ENTITY: Update entity position (mode=1)
  3: 0x02CF [0x6F] WAIT_FRAME_DELAY: Yield until WaitTime reaches zero
  4: 0x02D0 [0x00] END_REQSTACK()
```

### Event 65535.26

#### Metadata

| Field        | Value    |
|--------------|----------|
| Entrypoint   | 0x02D1   |
| Data Size    | 15 bytes |
| Instructions | 5        |

```
      00 01 02 03 04 05 06 07  08 09 0A 0B 0C 0D 0E 0F
      -- -- -- -- -- -- -- --  -- -- -- -- -- -- -- --
02D0:    32 02 80 1F 00 34 80  35 80 36 80 1F 01 6F 00   2....4.5.6...o.
```

#### Opcodes

```
  0: 0x02D1 [0x32] ExtData[1]->MainSpeed = 13* * 0.1
  1: 0x02D4 [0x1F] MOVE_ENTITY: EventEntity moves to X=260.145*, Z=203.071*, Y=-75.398*
  2: 0x02DC [0x1F] MOVE_ENTITY: Update entity position (mode=1)
  3: 0x02DE [0x6F] WAIT_FRAME_DELAY: Yield until WaitTime reaches zero
  4: 0x02DF [0x00] END_REQSTACK()
```

### Event 65535.27

#### Metadata

| Field        | Value    |
|--------------|----------|
| Entrypoint   | 0x02E0   |
| Data Size    | 15 bytes |
| Instructions | 5        |

```
      00 01 02 03 04 05 06 07  08 09 0A 0B 0C 0D 0E 0F
      -- -- -- -- -- -- -- --  -- -- -- -- -- -- -- --
02E0: 32 02 80 1F 00 37 80 38  80 39 80 1F 01 6F 00     2....7.8.9...o. 
```

#### Opcodes

```
  0: 0x02E0 [0x32] ExtData[1]->MainSpeed = 13* * 0.1
  1: 0x02E3 [0x1F] MOVE_ENTITY: EventEntity moves to X=258.853*, Z=106.242*, Y=-86.999*
  2: 0x02EB [0x1F] MOVE_ENTITY: Update entity position (mode=1)
  3: 0x02ED [0x6F] WAIT_FRAME_DELAY: Yield until WaitTime reaches zero
  4: 0x02EE [0x00] END_REQSTACK()
```

### Event 65535.28

#### Metadata

| Field        | Value    |
|--------------|----------|
| Entrypoint   | 0x02EF   |
| Data Size    | 15 bytes |
| Instructions | 5        |

```
      00 01 02 03 04 05 06 07  08 09 0A 0B 0C 0D 0E 0F
      -- -- -- -- -- -- -- --  -- -- -- -- -- -- -- --
02E0:                                               32                 2
02F0: 02 80 1F 00 3A 80 3B 80  24 80 1F 01 6F 00        ....:.;.$...o.  
```

#### Opcodes

```
  0: 0x02EF [0x32] ExtData[1]->MainSpeed = 13* * 0.1
  1: 0x02F2 [0x1F] MOVE_ENTITY: EventEntity moves to X=259.712*, Z=95.607*, Y=-87.000*
  2: 0x02FA [0x1F] MOVE_ENTITY: Update entity position (mode=1)
  3: 0x02FC [0x6F] WAIT_FRAME_DELAY: Yield until WaitTime reaches zero
  4: 0x02FD [0x00] END_REQSTACK()
```

### Event 65535.29

#### Metadata

| Field        | Value    |
|--------------|----------|
| Entrypoint   | 0x02FE   |
| Data Size    | 29 bytes |
| Instructions | 5        |

```
      00 01 02 03 04 05 06 07  08 09 0A 0B 0C 0D 0E 0F
      -- -- -- -- -- -- -- --  -- -- -- -- -- -- -- --
02F0:                                            03 00                ..
0300: 00 07 7F 1A 3A 01 07 01  00 3C 80 66 01 00 F8 FF  ....:....<.f....
0310: FF 7F F8 FF FF 7F 65 64  30 31 00                 ......ed01.     
```

#### Opcodes

```
  0: 0x02FE [0x03] ExtData[1]->WorkLocal[0] = Entity->Race
  1: 0x0303 [0x1A] CALL_SUBROUTINE(address=0x013A)
  2: 0x0306 [0x07] ExtData[1]->WorkLocal[1] += 4*
  3: 0x030B [0x66] LOAD_EXT_SCHEDULER_MAIN: Load scheduler "ed01" with entities [EventEntity, EventEntity], work=ExtData[1]->WorkLocal[1]
  4: 0x031A [0x00] END_REQSTACK()
```

### Event 65535.30

#### Metadata

| Field        | Value    |
|--------------|----------|
| Entrypoint   | 0x031B   |
| Data Size    | 29 bytes |
| Instructions | 5        |

```
      00 01 02 03 04 05 06 07  08 09 0A 0B 0C 0D 0E 0F
      -- -- -- -- -- -- -- --  -- -- -- -- -- -- -- --
0310:                                   03 00 00 07 7F             .....
0320: 1A 3A 01 07 01 00 3C 80  66 01 00 F8 FF FF 7F F8  .:....<.f.......
0330: FF FF 7F 65 64 30 32 00                           ...ed02.        
```

#### Opcodes

```
  0: 0x031B [0x03] ExtData[1]->WorkLocal[0] = Entity->Race
  1: 0x0320 [0x1A] CALL_SUBROUTINE(address=0x013A)
  2: 0x0323 [0x07] ExtData[1]->WorkLocal[1] += 4*
  3: 0x0328 [0x66] LOAD_EXT_SCHEDULER_MAIN: Load scheduler "ed02" with entities [EventEntity, EventEntity], work=ExtData[1]->WorkLocal[1]
  4: 0x0337 [0x00] END_REQSTACK()
```

### Event 65535.31

#### Metadata

| Field        | Value    |
|--------------|----------|
| Entrypoint   | 0x0338   |
| Data Size    | 29 bytes |
| Instructions | 5        |

```
      00 01 02 03 04 05 06 07  08 09 0A 0B 0C 0D 0E 0F
      -- -- -- -- -- -- -- --  -- -- -- -- -- -- -- --
0330:                          03 00 00 07 7F 1A 3A 01          ......:.
0340: 07 01 00 10 80 66 01 00  F8 FF FF 7F F8 FF FF 7F  .....f..........
0350: 6A 79 6F 30 00                                    jyo0.           
```

#### Opcodes

```
  0: 0x0338 [0x03] ExtData[1]->WorkLocal[0] = Entity->Race
  1: 0x033D [0x1A] CALL_SUBROUTINE(address=0x013A)
  2: 0x0340 [0x07] ExtData[1]->WorkLocal[1] += 5*
  3: 0x0345 [0x66] LOAD_EXT_SCHEDULER_MAIN: Load scheduler "jyo0" with entities [EventEntity, EventEntity], work=ExtData[1]->WorkLocal[1]
  4: 0x0354 [0x00] END_REQSTACK()
```

### Event 65535.32

#### Metadata

| Field        | Value   |
|--------------|---------|
| Entrypoint   | 0x0355  |
| Data Size    | 5 bytes |
| Instructions | 2       |

```
      00 01 02 03 04 05 06 07  08 09 0A 0B 0C 0D 0E 0F
      -- -- -- -- -- -- -- --  -- -- -- -- -- -- -- --
0350:                B6 0F 3D  80 00                         ..=..      
```

#### Opcodes

```
  0: 0x0355 [0xB6] ENTITY_APPEARANCE_HANDLER(case=Model size, value=87*)
  1: 0x0359 [0x00] END_REQSTACK()
```

### Event 65535.33

#### Metadata

| Field        | Value   |
|--------------|---------|
| Entrypoint   | 0x035A  |
| Data Size    | 5 bytes |
| Instructions | 2       |

```
      00 01 02 03 04 05 06 07  08 09 0A 0B 0C 0D 0E 0F
      -- -- -- -- -- -- -- --  -- -- -- -- -- -- -- --
0350:                                B6 0F 3E 80 00               ..>.. 
```

#### Opcodes

```
  0: 0x035A [0xB6] ENTITY_APPEARANCE_HANDLER(case=Model size, value=93*)
  1: 0x035E [0x00] END_REQSTACK()
```

### Event 65535.34

#### Metadata

| Field        | Value   |
|--------------|---------|
| Entrypoint   | 0x035F  |
| Data Size    | 5 bytes |
| Instructions | 2       |

```
      00 01 02 03 04 05 06 07  08 09 0A 0B 0C 0D 0E 0F
      -- -- -- -- -- -- -- --  -- -- -- -- -- -- -- --
0350:                                               B6                 .
0360: 0F 3F 80 00                                       .?..            
```

#### Opcodes

```
  0: 0x035F [0xB6] ENTITY_APPEARANCE_HANDLER(case=Model size, value=96*)
  1: 0x0363 [0x00] END_REQSTACK()
```

### Event 65535.35

#### Metadata

| Field        | Value   |
|--------------|---------|
| Entrypoint   | 0x0364  |
| Data Size    | 5 bytes |
| Instructions | 2       |

```
      00 01 02 03 04 05 06 07  08 09 0A 0B 0C 0D 0E 0F
      -- -- -- -- -- -- -- --  -- -- -- -- -- -- -- --
0360:             B6 0F 40 80  00                           ..@..       
```

#### Opcodes

```
  0: 0x0364 [0xB6] ENTITY_APPEARANCE_HANDLER(case=Model size, value=100*)
  1: 0x0368 [0x00] END_REQSTACK()
```

### Event 65535.36

#### Metadata

| Field        | Value     |
|--------------|-----------|
| Entrypoint   | 0x0369    |
| Data Size    | 281 bytes |
| Instructions | 33        |

```
      00 01 02 03 04 05 06 07  08 09 0A 0B 0C 0D 0E 0F
      -- -- -- -- -- -- -- --  -- -- -- -- -- -- -- --
0360:                             02 87 7F 00 80 80 8C           .......
0370: 03 B6 0B 00 80 03 10 01  80 41 80 42 80 43 80 43  .........A.B.C.C
0380: 80 01 80 01 80 B6 0F 40  80 01 81 04 02 87 7F 11  .......@........
0390: 80 80 AF 03 B6 0B 11 80  03 10 01 80 41 80 42 80  ............A.B.
03A0: 43 80 43 80 01 80 01 80  B6 0F 40 80 01 81 04 02  C.C.......@.....
03B0: 87 7F 44 80 80 D2 03 B6  0B 44 80 03 10 01 80 41  ..D......D.....A
03C0: 80 42 80 43 80 43 80 01  80 01 80 B6 0F 40 80 01  .B.C.C.......@..
03D0: 81 04 02 87 7F 3C 80 80  F5 03 B6 0B 3C 80 03 10  .....<......<...
03E0: 01 80 41 80 42 80 43 80  43 80 01 80 01 80 B6 0F  ..A.B.C.C.......
03F0: 40 80 01 81 04 02 87 7F  10 80 80 18 04 B6 0B 10  @...............
0400: 80 03 10 01 80 41 80 42  80 43 80 43 80 01 80 01  .....A.B.C.C....
0410: 80 B6 0F 3D 80 01 81 04  02 87 7F 45 80 80 3B 04  ...=.......E..;.
0420: B6 0B 45 80 03 10 01 80  41 80 42 80 43 80 43 80  ..E.....A.B.C.C.
0430: 01 80 01 80 B6 0F 3D 80  01 81 04 02 87 7F 18 80  ......=.........
0440: 80 5E 04 B6 0B 18 80 03  10 01 80 41 80 42 80 43  .^.........A.B.C
0450: 80 43 80 01 80 01 80 B6  0F 3E 80 01 81 04 02 87  .C.......>......
0460: 7F 17 80 80 81 04 B6 0B  17 80 03 10 01 80 41 80  ..............A.
0470: 42 80 43 80 43 80 01 80  01 80 B6 0F 3F 80 01 81  B.C.C.......?...
0480: 04 00                                             ..              
```

#### Opcodes

```
  0: 0x0369 [0x02] IF !(LocalPlayer->Race == 1*) GOTO 0x038C
  1: 0x0371 [0xB6] ENTITY_APPEARANCE_HANDLER(case=Full entity look, race=1*, hair=Work_Zone[3], head=0*, body=330*, hands=185*, legs=230*, feet=230*, main=0*, sub=0*)
  2: 0x0385 [0xB6] ENTITY_APPEARANCE_HANDLER(case=Model size, value=100*)
  3: 0x0389 [0x01] GOTO 0x0481
  4: 0x038C [0x02] IF !(LocalPlayer->Race == 2*) GOTO 0x03AF
  5: 0x0394 [0xB6] ENTITY_APPEARANCE_HANDLER(case=Full entity look, race=2*, hair=Work_Zone[3], head=0*, body=330*, hands=185*, legs=230*, feet=230*, main=0*, sub=0*)
  6: 0x03A8 [0xB6] ENTITY_APPEARANCE_HANDLER(case=Model size, value=100*)
  7: 0x03AC [0x01] GOTO 0x0481
  8: 0x03AF [0x02] IF !(LocalPlayer->Race == 3*) GOTO 0x03D2
  9: 0x03B7 [0xB6] ENTITY_APPEARANCE_HANDLER(case=Full entity look, race=3*, hair=Work_Zone[3], head=0*, body=330*, hands=185*, legs=230*, feet=230*, main=0*, sub=0*)
 10: 0x03CB [0xB6] ENTITY_APPEARANCE_HANDLER(case=Model size, value=100*)
 11: 0x03CF [0x01] GOTO 0x0481
 12: 0x03D2 [0x02] IF !(LocalPlayer->Race == 4*) GOTO 0x03F5
 13: 0x03DA [0xB6] ENTITY_APPEARANCE_HANDLER(case=Full entity look, race=4*, hair=Work_Zone[3], head=0*, body=330*, hands=185*, legs=230*, feet=230*, main=0*, sub=0*)
 14: 0x03EE [0xB6] ENTITY_APPEARANCE_HANDLER(case=Model size, value=100*)
 15: 0x03F2 [0x01] GOTO 0x0481
 16: 0x03F5 [0x02] IF !(LocalPlayer->Race == 5*) GOTO 0x0418
 17: 0x03FD [0xB6] ENTITY_APPEARANCE_HANDLER(case=Full entity look, race=5*, hair=Work_Zone[3], head=0*, body=330*, hands=185*, legs=230*, feet=230*, main=0*, sub=0*)
 18: 0x0411 [0xB6] ENTITY_APPEARANCE_HANDLER(case=Model size, value=87*)
 19: 0x0415 [0x01] GOTO 0x0481
 20: 0x0418 [0x02] IF !(LocalPlayer->Race == 6*) GOTO 0x043B
 21: 0x0420 [0xB6] ENTITY_APPEARANCE_HANDLER(case=Full entity look, race=6*, hair=Work_Zone[3], head=0*, body=330*, hands=185*, legs=230*, feet=230*, main=0*, sub=0*)
 22: 0x0434 [0xB6] ENTITY_APPEARANCE_HANDLER(case=Model size, value=87*)
 23: 0x0438 [0x01] GOTO 0x0481
 24: 0x043B [0x02] IF !(LocalPlayer->Race == 7*) GOTO 0x045E
 25: 0x0443 [0xB6] ENTITY_APPEARANCE_HANDLER(case=Full entity look, race=7*, hair=Work_Zone[3], head=0*, body=330*, hands=185*, legs=230*, feet=230*, main=0*, sub=0*)
 26: 0x0457 [0xB6] ENTITY_APPEARANCE_HANDLER(case=Model size, value=93*)
 27: 0x045B [0x01] GOTO 0x0481
 28: 0x045E [0x02] IF !(LocalPlayer->Race == 8*) GOTO 0x0481
 29: 0x0466 [0xB6] ENTITY_APPEARANCE_HANDLER(case=Full entity look, race=8*, hair=Work_Zone[3], head=0*, body=330*, hands=185*, legs=230*, feet=230*, main=0*, sub=0*)
 30: 0x047A [0xB6] ENTITY_APPEARANCE_HANDLER(case=Model size, value=96*)
 31: 0x047E [0x01] GOTO 0x0481

SUBROUTINE_0481:
 32: 0x0481 [0x00] END_REQSTACK()
```

### Event 65535.37

#### Metadata

| Field        | Value    |
|--------------|----------|
| Entrypoint   | 0x0482   |
| Data Size    | 14 bytes |
| Instructions | 4        |

```
      00 01 02 03 04 05 06 07  08 09 0A 0B 0C 0D 0E 0F
      -- -- -- -- -- -- -- --  -- -- -- -- -- -- -- --
0480:       32 02 80 1F 00 46  80 47 80 48 80 1F 01 00    2....F.G.H....
```

#### Opcodes

```
  0: 0x0482 [0x32] ExtData[1]->MainSpeed = 13* * 0.1
  1: 0x0485 [0x1F] MOVE_ENTITY: EventEntity moves to X=259.939*, Z=83.429*, Y=-87.011*
  2: 0x048D [0x1F] MOVE_ENTITY: Update entity position (mode=1)
  3: 0x048F [0x00] END_REQSTACK()
```

### Event 65535.38

#### Metadata

| Field        | Value     |
|--------------|-----------|
| Entrypoint   | 0x0490    |
| Data Size    | 345 bytes |
| Instructions | 33        |

```
      00 01 02 03 04 05 06 07  08 09 0A 0B 0C 0D 0E 0F
      -- -- -- -- -- -- -- --  -- -- -- -- -- -- -- --
0490: 02 87 7F 00 80 80 BB 04  5F 04 49 80 F0 FF FF 7F  ........_.I.....
04A0: F0 FF FF 7F 6D 61 67 30  5F 03 4A 80 06 33 12 01  ....mag0_.J..3..
04B0: 06 33 12 01 68 6D 6D 61  01 E8 05 02 87 7F 11 80  .3..hmma........
04C0: 80 E6 04 5F 04 4B 80 F0  FF FF 7F F0 FF FF 7F 6D  ..._.K.........m
04D0: 61 67 30 5F 03 4A 80 06  33 12 01 06 33 12 01 68  ag0_.J..3...3..h
04E0: 66 6D 61 01 E8 05 02 87  7F 44 80 80 11 05 5F 04  fma......D...._.
04F0: 4C 80 F0 FF FF 7F F0 FF  FF 7F 6D 61 67 30 5F 03  L.........mag0_.
0500: 4A 80 06 33 12 01 06 33  12 01 65 6D 6D 61 01 E8  J..3...3..emma..
0510: 05 02 87 7F 3C 80 80 3C  05 5F 04 4D 80 F0 FF FF  ....<..<._.M....
0520: 7F F0 FF FF 7F 6D 61 67  30 5F 03 4A 80 06 33 12  .....mag0_.J..3.
0530: 01 06 33 12 01 65 66 6D  61 01 E8 05 02 87 7F 10  ..3..efma.......
0540: 80 80 67 05 5F 04 4E 80  F0 FF FF 7F F0 FF FF 7F  ..g._.N.........
0550: 6D 61 67 30 5F 03 4A 80  06 33 12 01 06 33 12 01  mag0_.J..3...3..
0560: 74 72 6D 61 01 E8 05 02  87 7F 45 80 80 92 05 5F  trma......E...._
0570: 04 4E 80 F0 FF FF 7F F0  FF FF 7F 6D 61 67 30 5F  .N.........mag0_
0580: 03 4A 80 06 33 12 01 06  33 12 01 74 72 6D 61 01  .J..3...3..trma.
0590: E8 05 02 87 7F 18 80 80  BD 05 5F 04 4F 80 F0 FF  .........._.O...
05A0: FF 7F F0 FF FF 7F 6D 61  67 30 5F 03 4A 80 06 33  ......mag0_.J..3
05B0: 12 01 06 33 12 01 6D 66  6D 61 01 E8 05 02 87 7F  ...3..mfma......
05C0: 17 80 80 E8 05 5F 04 50  80 F0 FF FF 7F F0 FF FF  ....._.P........
05D0: 7F 6D 61 67 30 5F 03 4A  80 06 33 12 01 06 33 12  .mag0_.J..3...3.
05E0: 01 67 6D 6D 61 01 E8 05  00                       .gmma....       
```

#### Opcodes

```
  0: 0x0490 [0x02] IF !(LocalPlayer->Race == 1*) GOTO 0x04BB
  1: 0x0498 [0x5F] MULTI_HANDLER_COMPLEX(mode=0x04 - Load ext scheduler (OpCode 0x5B mode 1), ref=144*, entity1=LocalPlayer, entity2=LocalPlayer, string="mag0")
  2: 0x04A8 [0x5F] MULTI_HANDLER_COMPLEX(mode=0x03 - Load ext scheduler (OpCode 0x5B mode 0), ref=3878*, entity1=??? (ID: 17969926/0x01123306), entity2=??? (ID: 17969926/0x01123306), string="hmma")
  3: 0x04B8 [0x01] GOTO 0x05E8
  4: 0x04BB [0x02] IF !(LocalPlayer->Race == 2*) GOTO 0x04E6
  5: 0x04C3 [0x5F] MULTI_HANDLER_COMPLEX(mode=0x04 - Load ext scheduler (OpCode 0x5B mode 1), ref=154*, entity1=LocalPlayer, entity2=LocalPlayer, string="mag0")
  6: 0x04D3 [0x5F] MULTI_HANDLER_COMPLEX(mode=0x03 - Load ext scheduler (OpCode 0x5B mode 0), ref=3878*, entity1=??? (ID: 17969926/0x01123306), entity2=??? (ID: 17969926/0x01123306), string="hfma")
  7: 0x04E3 [0x01] GOTO 0x05E8
  8: 0x04E6 [0x02] IF !(LocalPlayer->Race == 3*) GOTO 0x0511
  9: 0x04EE [0x5F] MULTI_HANDLER_COMPLEX(mode=0x04 - Load ext scheduler (OpCode 0x5B mode 1), ref=164*, entity1=LocalPlayer, entity2=LocalPlayer, string="mag0")
 10: 0x04FE [0x5F] MULTI_HANDLER_COMPLEX(mode=0x03 - Load ext scheduler (OpCode 0x5B mode 0), ref=3878*, entity1=??? (ID: 17969926/0x01123306), entity2=??? (ID: 17969926/0x01123306), string="emma")
 11: 0x050E [0x01] GOTO 0x05E8
 12: 0x0511 [0x02] IF !(LocalPlayer->Race == 4*) GOTO 0x053C
 13: 0x0519 [0x5F] MULTI_HANDLER_COMPLEX(mode=0x04 - Load ext scheduler (OpCode 0x5B mode 1), ref=174*, entity1=LocalPlayer, entity2=LocalPlayer, string="mag0")
 14: 0x0529 [0x5F] MULTI_HANDLER_COMPLEX(mode=0x03 - Load ext scheduler (OpCode 0x5B mode 0), ref=3878*, entity1=??? (ID: 17969926/0x01123306), entity2=??? (ID: 17969926/0x01123306), string="efma")
 15: 0x0539 [0x01] GOTO 0x05E8
 16: 0x053C [0x02] IF !(LocalPlayer->Race == 5*) GOTO 0x0567
 17: 0x0544 [0x5F] MULTI_HANDLER_COMPLEX(mode=0x04 - Load ext scheduler (OpCode 0x5B mode 1), ref=184*, entity1=LocalPlayer, entity2=LocalPlayer, string="mag0")
 18: 0x0554 [0x5F] MULTI_HANDLER_COMPLEX(mode=0x03 - Load ext scheduler (OpCode 0x5B mode 0), ref=3878*, entity1=??? (ID: 17969926/0x01123306), entity2=??? (ID: 17969926/0x01123306), string="trma")
 19: 0x0564 [0x01] GOTO 0x05E8
 20: 0x0567 [0x02] IF !(LocalPlayer->Race == 6*) GOTO 0x0592
 21: 0x056F [0x5F] MULTI_HANDLER_COMPLEX(mode=0x04 - Load ext scheduler (OpCode 0x5B mode 1), ref=184*, entity1=LocalPlayer, entity2=LocalPlayer, string="mag0")
 22: 0x057F [0x5F] MULTI_HANDLER_COMPLEX(mode=0x03 - Load ext scheduler (OpCode 0x5B mode 0), ref=3878*, entity1=??? (ID: 17969926/0x01123306), entity2=??? (ID: 17969926/0x01123306), string="trma")
 23: 0x058F [0x01] GOTO 0x05E8
 24: 0x0592 [0x02] IF !(LocalPlayer->Race == 7*) GOTO 0x05BD
 25: 0x059A [0x5F] MULTI_HANDLER_COMPLEX(mode=0x04 - Load ext scheduler (OpCode 0x5B mode 1), ref=194*, entity1=LocalPlayer, entity2=LocalPlayer, string="mag0")
 26: 0x05AA [0x5F] MULTI_HANDLER_COMPLEX(mode=0x03 - Load ext scheduler (OpCode 0x5B mode 0), ref=3878*, entity1=??? (ID: 17969926/0x01123306), entity2=??? (ID: 17969926/0x01123306), string="mfma")
 27: 0x05BA [0x01] GOTO 0x05E8
 28: 0x05BD [0x02] IF !(LocalPlayer->Race == 8*) GOTO 0x05E8
 29: 0x05C5 [0x5F] MULTI_HANDLER_COMPLEX(mode=0x04 - Load ext scheduler (OpCode 0x5B mode 1), ref=204*, entity1=LocalPlayer, entity2=LocalPlayer, string="mag0")
 30: 0x05D5 [0x5F] MULTI_HANDLER_COMPLEX(mode=0x03 - Load ext scheduler (OpCode 0x5B mode 0), ref=3878*, entity1=??? (ID: 17969926/0x01123306), entity2=??? (ID: 17969926/0x01123306), string="gmma")
 31: 0x05E5 [0x01] GOTO 0x05E8

SUBROUTINE_05E8:
 32: 0x05E8 [0x00] END_REQSTACK()
```

### Event 65535.39

#### Metadata

| Field        | Value     |
|--------------|-----------|
| Entrypoint   | 0x05E9    |
| Data Size    | 217 bytes |
| Instructions | 25        |

```
      00 01 02 03 04 05 06 07  08 09 0A 0B 0C 0D 0E 0F
      -- -- -- -- -- -- -- --  -- -- -- -- -- -- -- --
05E0:                             02 87 7F 00 80 80 04           .......
05F0: 06 5F 04 49 80 F0 FF FF  7F F0 FF FF 7F 75 6B 75  ._.I.........uku
0600: 30 01 C1 06 02 87 7F 11  80 80 1F 06 5F 04 4B 80  0..........._.K.
0610: F0 FF FF 7F F0 FF FF 7F  75 6B 75 30 01 C1 06 02  ........uku0....
0620: 87 7F 44 80 80 3A 06 5F  04 4C 80 F0 FF FF 7F F0  ..D..:._.L......
0630: FF FF 7F 75 6B 75 30 01  C1 06 02 87 7F 3C 80 80  ...uku0......<..
0640: 55 06 5F 04 4D 80 F0 FF  FF 7F F0 FF FF 7F 75 6B  U._.M.........uk
0650: 75 30 01 C1 06 02 87 7F  10 80 80 70 06 5F 04 4E  u0.........p._.N
0660: 80 F0 FF FF 7F F0 FF FF  7F 75 6B 75 30 01 C1 06  .........uku0...
0670: 02 87 7F 45 80 80 8B 06  5F 04 4E 80 F0 FF FF 7F  ...E...._.N.....
0680: F0 FF FF 7F 75 6B 75 30  01 C1 06 02 87 7F 18 80  ....uku0........
0690: 80 A6 06 5F 04 4F 80 F0  FF FF 7F F0 FF FF 7F 75  ..._.O.........u
06A0: 6B 75 30 01 C1 06 02 87  7F 17 80 80 C1 06 5F 04  ku0..........._.
06B0: 50 80 F0 FF FF 7F F0 FF  FF 7F 75 6B 75 30 01 C1  P.........uku0..
06C0: 06 00                                             ..              
```

#### Opcodes

```
  0: 0x05E9 [0x02] IF !(LocalPlayer->Race == 1*) GOTO 0x0604
  1: 0x05F1 [0x5F] MULTI_HANDLER_COMPLEX(mode=0x04 - Load ext scheduler (OpCode 0x5B mode 1), ref=144*, entity1=LocalPlayer, entity2=LocalPlayer, string="uku0")
  2: 0x0601 [0x01] GOTO 0x06C1
  3: 0x0604 [0x02] IF !(LocalPlayer->Race == 2*) GOTO 0x061F
  4: 0x060C [0x5F] MULTI_HANDLER_COMPLEX(mode=0x04 - Load ext scheduler (OpCode 0x5B mode 1), ref=154*, entity1=LocalPlayer, entity2=LocalPlayer, string="uku0")
  5: 0x061C [0x01] GOTO 0x06C1
  6: 0x061F [0x02] IF !(LocalPlayer->Race == 3*) GOTO 0x063A
  7: 0x0627 [0x5F] MULTI_HANDLER_COMPLEX(mode=0x04 - Load ext scheduler (OpCode 0x5B mode 1), ref=164*, entity1=LocalPlayer, entity2=LocalPlayer, string="uku0")
  8: 0x0637 [0x01] GOTO 0x06C1
  9: 0x063A [0x02] IF !(LocalPlayer->Race == 4*) GOTO 0x0655
 10: 0x0642 [0x5F] MULTI_HANDLER_COMPLEX(mode=0x04 - Load ext scheduler (OpCode 0x5B mode 1), ref=174*, entity1=LocalPlayer, entity2=LocalPlayer, string="uku0")
 11: 0x0652 [0x01] GOTO 0x06C1
 12: 0x0655 [0x02] IF !(LocalPlayer->Race == 5*) GOTO 0x0670
 13: 0x065D [0x5F] MULTI_HANDLER_COMPLEX(mode=0x04 - Load ext scheduler (OpCode 0x5B mode 1), ref=184*, entity1=LocalPlayer, entity2=LocalPlayer, string="uku0")
 14: 0x066D [0x01] GOTO 0x06C1
 15: 0x0670 [0x02] IF !(LocalPlayer->Race == 6*) GOTO 0x068B
 16: 0x0678 [0x5F] MULTI_HANDLER_COMPLEX(mode=0x04 - Load ext scheduler (OpCode 0x5B mode 1), ref=184*, entity1=LocalPlayer, entity2=LocalPlayer, string="uku0")
 17: 0x0688 [0x01] GOTO 0x06C1
 18: 0x068B [0x02] IF !(LocalPlayer->Race == 7*) GOTO 0x06A6
 19: 0x0693 [0x5F] MULTI_HANDLER_COMPLEX(mode=0x04 - Load ext scheduler (OpCode 0x5B mode 1), ref=194*, entity1=LocalPlayer, entity2=LocalPlayer, string="uku0")
 20: 0x06A3 [0x01] GOTO 0x06C1
 21: 0x06A6 [0x02] IF !(LocalPlayer->Race == 8*) GOTO 0x06C1
 22: 0x06AE [0x5F] MULTI_HANDLER_COMPLEX(mode=0x04 - Load ext scheduler (OpCode 0x5B mode 1), ref=204*, entity1=LocalPlayer, entity2=LocalPlayer, string="uku0")
 23: 0x06BE [0x01] GOTO 0x06C1

SUBROUTINE_06C1:
 24: 0x06C1 [0x00] END_REQSTACK()
```

### Event 65535.40

#### Metadata

| Field        | Value     |
|--------------|-----------|
| Entrypoint   | 0x06C2    |
| Data Size    | 217 bytes |
| Instructions | 25        |

```
      00 01 02 03 04 05 06 07  08 09 0A 0B 0C 0D 0E 0F
      -- -- -- -- -- -- -- --  -- -- -- -- -- -- -- --
06C0:       02 87 7F 00 80 80  DD 06 5F 04 49 80 F0 FF    ........_.I...
06D0: FF 7F F0 FF FF 7F 62 75  6E 30 01 9A 07 02 87 7F  ......bun0......
06E0: 11 80 80 F8 06 5F 04 4B  80 F0 FF FF 7F F0 FF FF  ....._.K........
06F0: 7F 62 75 6E 30 01 9A 07  02 87 7F 44 80 80 13 07  .bun0......D....
0700: 5F 04 4C 80 F0 FF FF 7F  F0 FF FF 7F 62 75 6E 30  _.L.........bun0
0710: 01 9A 07 02 87 7F 3C 80  80 2E 07 5F 04 4D 80 F0  ......<...._.M..
0720: FF FF 7F F0 FF FF 7F 62  75 6E 30 01 9A 07 02 87  .......bun0.....
0730: 7F 10 80 80 49 07 5F 04  4E 80 F0 FF FF 7F F0 FF  ....I._.N.......
0740: FF 7F 62 75 6E 30 01 9A  07 02 87 7F 45 80 80 64  ..bun0......E..d
0750: 07 5F 04 4E 80 F0 FF FF  7F F0 FF FF 7F 62 75 6E  ._.N.........bun
0760: 30 01 9A 07 02 87 7F 18  80 80 7F 07 5F 04 4F 80  0..........._.O.
0770: F0 FF FF 7F F0 FF FF 7F  62 75 6E 30 01 9A 07 02  ........bun0....
0780: 87 7F 17 80 80 9A 07 5F  04 50 80 F0 FF FF 7F F0  ......._.P......
0790: FF FF 7F 62 75 6E 30 01  9A 07 00                 ...bun0....     
```

#### Opcodes

```
  0: 0x06C2 [0x02] IF !(LocalPlayer->Race == 1*) GOTO 0x06DD
  1: 0x06CA [0x5F] MULTI_HANDLER_COMPLEX(mode=0x04 - Load ext scheduler (OpCode 0x5B mode 1), ref=144*, entity1=LocalPlayer, entity2=LocalPlayer, string="bun0")
  2: 0x06DA [0x01] GOTO 0x079A
  3: 0x06DD [0x02] IF !(LocalPlayer->Race == 2*) GOTO 0x06F8
  4: 0x06E5 [0x5F] MULTI_HANDLER_COMPLEX(mode=0x04 - Load ext scheduler (OpCode 0x5B mode 1), ref=154*, entity1=LocalPlayer, entity2=LocalPlayer, string="bun0")
  5: 0x06F5 [0x01] GOTO 0x079A
  6: 0x06F8 [0x02] IF !(LocalPlayer->Race == 3*) GOTO 0x0713
  7: 0x0700 [0x5F] MULTI_HANDLER_COMPLEX(mode=0x04 - Load ext scheduler (OpCode 0x5B mode 1), ref=164*, entity1=LocalPlayer, entity2=LocalPlayer, string="bun0")
  8: 0x0710 [0x01] GOTO 0x079A
  9: 0x0713 [0x02] IF !(LocalPlayer->Race == 4*) GOTO 0x072E
 10: 0x071B [0x5F] MULTI_HANDLER_COMPLEX(mode=0x04 - Load ext scheduler (OpCode 0x5B mode 1), ref=174*, entity1=LocalPlayer, entity2=LocalPlayer, string="bun0")
 11: 0x072B [0x01] GOTO 0x079A
 12: 0x072E [0x02] IF !(LocalPlayer->Race == 5*) GOTO 0x0749
 13: 0x0736 [0x5F] MULTI_HANDLER_COMPLEX(mode=0x04 - Load ext scheduler (OpCode 0x5B mode 1), ref=184*, entity1=LocalPlayer, entity2=LocalPlayer, string="bun0")
 14: 0x0746 [0x01] GOTO 0x079A
 15: 0x0749 [0x02] IF !(LocalPlayer->Race == 6*) GOTO 0x0764
 16: 0x0751 [0x5F] MULTI_HANDLER_COMPLEX(mode=0x04 - Load ext scheduler (OpCode 0x5B mode 1), ref=184*, entity1=LocalPlayer, entity2=LocalPlayer, string="bun0")
 17: 0x0761 [0x01] GOTO 0x079A
 18: 0x0764 [0x02] IF !(LocalPlayer->Race == 7*) GOTO 0x077F
 19: 0x076C [0x5F] MULTI_HANDLER_COMPLEX(mode=0x04 - Load ext scheduler (OpCode 0x5B mode 1), ref=194*, entity1=LocalPlayer, entity2=LocalPlayer, string="bun0")
 20: 0x077C [0x01] GOTO 0x079A
 21: 0x077F [0x02] IF !(LocalPlayer->Race == 8*) GOTO 0x079A
 22: 0x0787 [0x5F] MULTI_HANDLER_COMPLEX(mode=0x04 - Load ext scheduler (OpCode 0x5B mode 1), ref=204*, entity1=LocalPlayer, entity2=LocalPlayer, string="bun0")
 23: 0x0797 [0x01] GOTO 0x079A

SUBROUTINE_079A:
 24: 0x079A [0x00] END_REQSTACK()
```

### Event 65535.41

#### Metadata

| Field        | Value     |
|--------------|-----------|
| Entrypoint   | 0x079B    |
| Data Size    | 217 bytes |
| Instructions | 25        |

```
      00 01 02 03 04 05 06 07  08 09 0A 0B 0C 0D 0E 0F
      -- -- -- -- -- -- -- --  -- -- -- -- -- -- -- --
0790:                                   02 87 7F 00 80             .....
07A0: 80 B6 07 5F 04 49 80 F0  FF FF 7F F0 FF FF 7F 62  ..._.I.........b
07B0: 75 6E 6C 01 73 08 02 87  7F 11 80 80 D1 07 5F 04  unl.s........._.
07C0: 4B 80 F0 FF FF 7F F0 FF  FF 7F 62 75 6E 6C 01 73  K.........bunl.s
07D0: 08 02 87 7F 44 80 80 EC  07 5F 04 4C 80 F0 FF FF  ....D...._.L....
07E0: 7F F0 FF FF 7F 62 75 6E  6C 01 73 08 02 87 7F 3C  .....bunl.s....<
07F0: 80 80 07 08 5F 04 4D 80  F0 FF FF 7F F0 FF FF 7F  ...._.M.........
0800: 62 75 6E 6C 01 73 08 02  87 7F 10 80 80 22 08 5F  bunl.s......."._
0810: 04 4E 80 F0 FF FF 7F F0  FF FF 7F 62 75 6E 6C 01  .N.........bunl.
0820: 73 08 02 87 7F 45 80 80  3D 08 5F 04 4E 80 F0 FF  s....E..=._.N...
0830: FF 7F F0 FF FF 7F 62 75  6E 6C 01 73 08 02 87 7F  ......bunl.s....
0840: 18 80 80 58 08 5F 04 4F  80 F0 FF FF 7F F0 FF FF  ...X._.O........
0850: 7F 62 75 6E 6C 01 73 08  02 87 7F 17 80 80 73 08  .bunl.s.......s.
0860: 5F 04 50 80 F0 FF FF 7F  F0 FF FF 7F 62 75 6E 6C  _.P.........bunl
0870: 01 73 08 00                                       .s..            
```

#### Opcodes

```
  0: 0x079B [0x02] IF !(LocalPlayer->Race == 1*) GOTO 0x07B6
  1: 0x07A3 [0x5F] MULTI_HANDLER_COMPLEX(mode=0x04 - Load ext scheduler (OpCode 0x5B mode 1), ref=144*, entity1=LocalPlayer, entity2=LocalPlayer, string="bunl")
  2: 0x07B3 [0x01] GOTO 0x0873
  3: 0x07B6 [0x02] IF !(LocalPlayer->Race == 2*) GOTO 0x07D1
  4: 0x07BE [0x5F] MULTI_HANDLER_COMPLEX(mode=0x04 - Load ext scheduler (OpCode 0x5B mode 1), ref=154*, entity1=LocalPlayer, entity2=LocalPlayer, string="bunl")
  5: 0x07CE [0x01] GOTO 0x0873
  6: 0x07D1 [0x02] IF !(LocalPlayer->Race == 3*) GOTO 0x07EC
  7: 0x07D9 [0x5F] MULTI_HANDLER_COMPLEX(mode=0x04 - Load ext scheduler (OpCode 0x5B mode 1), ref=164*, entity1=LocalPlayer, entity2=LocalPlayer, string="bunl")
  8: 0x07E9 [0x01] GOTO 0x0873
  9: 0x07EC [0x02] IF !(LocalPlayer->Race == 4*) GOTO 0x0807
 10: 0x07F4 [0x5F] MULTI_HANDLER_COMPLEX(mode=0x04 - Load ext scheduler (OpCode 0x5B mode 1), ref=174*, entity1=LocalPlayer, entity2=LocalPlayer, string="bunl")
 11: 0x0804 [0x01] GOTO 0x0873
 12: 0x0807 [0x02] IF !(LocalPlayer->Race == 5*) GOTO 0x0822
 13: 0x080F [0x5F] MULTI_HANDLER_COMPLEX(mode=0x04 - Load ext scheduler (OpCode 0x5B mode 1), ref=184*, entity1=LocalPlayer, entity2=LocalPlayer, string="bunl")
 14: 0x081F [0x01] GOTO 0x0873
 15: 0x0822 [0x02] IF !(LocalPlayer->Race == 6*) GOTO 0x083D
 16: 0x082A [0x5F] MULTI_HANDLER_COMPLEX(mode=0x04 - Load ext scheduler (OpCode 0x5B mode 1), ref=184*, entity1=LocalPlayer, entity2=LocalPlayer, string="bunl")
 17: 0x083A [0x01] GOTO 0x0873
 18: 0x083D [0x02] IF !(LocalPlayer->Race == 7*) GOTO 0x0858
 19: 0x0845 [0x5F] MULTI_HANDLER_COMPLEX(mode=0x04 - Load ext scheduler (OpCode 0x5B mode 1), ref=194*, entity1=LocalPlayer, entity2=LocalPlayer, string="bunl")
 20: 0x0855 [0x01] GOTO 0x0873
 21: 0x0858 [0x02] IF !(LocalPlayer->Race == 8*) GOTO 0x0873
 22: 0x0860 [0x5F] MULTI_HANDLER_COMPLEX(mode=0x04 - Load ext scheduler (OpCode 0x5B mode 1), ref=204*, entity1=LocalPlayer, entity2=LocalPlayer, string="bunl")
 23: 0x0870 [0x01] GOTO 0x0873

SUBROUTINE_0873:
 24: 0x0873 [0x00] END_REQSTACK()
```

### Event 65535.42

#### Metadata

| Field        | Value     |
|--------------|-----------|
| Entrypoint   | 0x0874    |
| Data Size    | 217 bytes |
| Instructions | 25        |

```
      00 01 02 03 04 05 06 07  08 09 0A 0B 0C 0D 0E 0F
      -- -- -- -- -- -- -- --  -- -- -- -- -- -- -- --
0870:             02 87 7F 00  80 80 8F 08 5F 04 19 80      ........_...
0880: F0 FF FF 7F F0 FF FF 7F  73 79 6F 30 01 4C 09 02  ........syo0.L..
0890: 87 7F 11 80 80 AA 08 5F  04 51 80 F0 FF FF 7F F0  ......._.Q......
08A0: FF FF 7F 73 79 6F 30 01  4C 09 02 87 7F 44 80 80  ...syo0.L....D..
08B0: C5 08 5F 04 52 80 F0 FF  FF 7F F0 FF FF 7F 73 79  .._.R.........sy
08C0: 6F 30 01 4C 09 02 87 7F  3C 80 80 E0 08 5F 04 53  o0.L....<...._.S
08D0: 80 F0 FF FF 7F F0 FF FF  7F 73 79 6F 30 01 4C 09  .........syo0.L.
08E0: 02 87 7F 10 80 80 FB 08  5F 04 42 80 F0 FF FF 7F  ........_.B.....
08F0: F0 FF FF 7F 73 79 6F 30  01 4C 09 02 87 7F 45 80  ....syo0.L....E.
0900: 80 16 09 5F 04 42 80 F0  FF FF 7F F0 FF FF 7F 73  ..._.B.........s
0910: 79 6F 30 01 4C 09 02 87  7F 18 80 80 31 09 5F 04  yo0.L.......1._.
0920: 54 80 F0 FF FF 7F F0 FF  FF 7F 73 79 6F 30 01 4C  T.........syo0.L
0930: 09 02 87 7F 17 80 80 4C  09 5F 04 55 80 F0 FF FF  .......L._.U....
0940: 7F F0 FF FF 7F 73 79 6F  30 01 4C 09 00           .....syo0.L..   
```

#### Opcodes

```
  0: 0x0874 [0x02] IF !(LocalPlayer->Race == 1*) GOTO 0x088F
  1: 0x087C [0x5F] MULTI_HANDLER_COMPLEX(mode=0x04 - Load ext scheduler (OpCode 0x5B mode 1), ref=145*, entity1=LocalPlayer, entity2=LocalPlayer, string="syo0")
  2: 0x088C [0x01] GOTO 0x094C
  3: 0x088F [0x02] IF !(LocalPlayer->Race == 2*) GOTO 0x08AA
  4: 0x0897 [0x5F] MULTI_HANDLER_COMPLEX(mode=0x04 - Load ext scheduler (OpCode 0x5B mode 1), ref=155*, entity1=LocalPlayer, entity2=LocalPlayer, string="syo0")
  5: 0x08A7 [0x01] GOTO 0x094C
  6: 0x08AA [0x02] IF !(LocalPlayer->Race == 3*) GOTO 0x08C5
  7: 0x08B2 [0x5F] MULTI_HANDLER_COMPLEX(mode=0x04 - Load ext scheduler (OpCode 0x5B mode 1), ref=165*, entity1=LocalPlayer, entity2=LocalPlayer, string="syo0")
  8: 0x08C2 [0x01] GOTO 0x094C
  9: 0x08C5 [0x02] IF !(LocalPlayer->Race == 4*) GOTO 0x08E0
 10: 0x08CD [0x5F] MULTI_HANDLER_COMPLEX(mode=0x04 - Load ext scheduler (OpCode 0x5B mode 1), ref=175*, entity1=LocalPlayer, entity2=LocalPlayer, string="syo0")
 11: 0x08DD [0x01] GOTO 0x094C
 12: 0x08E0 [0x02] IF !(LocalPlayer->Race == 5*) GOTO 0x08FB
 13: 0x08E8 [0x5F] MULTI_HANDLER_COMPLEX(mode=0x04 - Load ext scheduler (OpCode 0x5B mode 1), ref=185*, entity1=LocalPlayer, entity2=LocalPlayer, string="syo0")
 14: 0x08F8 [0x01] GOTO 0x094C
 15: 0x08FB [0x02] IF !(LocalPlayer->Race == 6*) GOTO 0x0916
 16: 0x0903 [0x5F] MULTI_HANDLER_COMPLEX(mode=0x04 - Load ext scheduler (OpCode 0x5B mode 1), ref=185*, entity1=LocalPlayer, entity2=LocalPlayer, string="syo0")
 17: 0x0913 [0x01] GOTO 0x094C
 18: 0x0916 [0x02] IF !(LocalPlayer->Race == 7*) GOTO 0x0931
 19: 0x091E [0x5F] MULTI_HANDLER_COMPLEX(mode=0x04 - Load ext scheduler (OpCode 0x5B mode 1), ref=195*, entity1=LocalPlayer, entity2=LocalPlayer, string="syo0")
 20: 0x092E [0x01] GOTO 0x094C
 21: 0x0931 [0x02] IF !(LocalPlayer->Race == 8*) GOTO 0x094C
 22: 0x0939 [0x5F] MULTI_HANDLER_COMPLEX(mode=0x04 - Load ext scheduler (OpCode 0x5B mode 1), ref=205*, entity1=LocalPlayer, entity2=LocalPlayer, string="syo0")
 23: 0x0949 [0x01] GOTO 0x094C

SUBROUTINE_094C:
 24: 0x094C [0x00] END_REQSTACK()
```

### Event 65535.43

#### Metadata

| Field        | Value     |
|--------------|-----------|
| Entrypoint   | 0x094D    |
| Data Size    | 217 bytes |
| Instructions | 25        |

```
      00 01 02 03 04 05 06 07  08 09 0A 0B 0C 0D 0E 0F
      -- -- -- -- -- -- -- --  -- -- -- -- -- -- -- --
0940:                                         02 87 7F               ...
0950: 00 80 80 68 09 5F 04 19  80 F0 FF FF 7F F0 FF FF  ...h._..........
0960: 7F 73 79 6F 31 01 25 0A  02 87 7F 11 80 80 83 09  .syo1.%.........
0970: 5F 04 51 80 F0 FF FF 7F  F0 FF FF 7F 73 79 6F 31  _.Q.........syo1
0980: 01 25 0A 02 87 7F 44 80  80 9E 09 5F 04 52 80 F0  .%....D...._.R..
0990: FF FF 7F F0 FF FF 7F 73  79 6F 31 01 25 0A 02 87  .......syo1.%...
09A0: 7F 3C 80 80 B9 09 5F 04  53 80 F0 FF FF 7F F0 FF  .<...._.S.......
09B0: FF 7F 73 79 6F 31 01 25  0A 02 87 7F 10 80 80 D4  ..syo1.%........
09C0: 09 5F 04 42 80 F0 FF FF  7F F0 FF FF 7F 73 79 6F  ._.B.........syo
09D0: 31 01 25 0A 02 87 7F 45  80 80 EF 09 5F 04 42 80  1.%....E...._.B.
09E0: F0 FF FF 7F F0 FF FF 7F  73 79 6F 31 01 25 0A 02  ........syo1.%..
09F0: 87 7F 18 80 80 0A 0A 5F  04 54 80 F0 FF FF 7F F0  ......._.T......
0A00: FF FF 7F 73 79 6F 31 01  25 0A 02 87 7F 17 80 80  ...syo1.%.......
0A10: 25 0A 5F 04 55 80 F0 FF  FF 7F F0 FF FF 7F 73 79  %._.U.........sy
0A20: 6F 31 01 25 0A 00                                 o1.%..          
```

#### Opcodes

```
  0: 0x094D [0x02] IF !(LocalPlayer->Race == 1*) GOTO 0x0968
  1: 0x0955 [0x5F] MULTI_HANDLER_COMPLEX(mode=0x04 - Load ext scheduler (OpCode 0x5B mode 1), ref=145*, entity1=LocalPlayer, entity2=LocalPlayer, string="syo1")
  2: 0x0965 [0x01] GOTO 0x0A25
  3: 0x0968 [0x02] IF !(LocalPlayer->Race == 2*) GOTO 0x0983
  4: 0x0970 [0x5F] MULTI_HANDLER_COMPLEX(mode=0x04 - Load ext scheduler (OpCode 0x5B mode 1), ref=155*, entity1=LocalPlayer, entity2=LocalPlayer, string="syo1")
  5: 0x0980 [0x01] GOTO 0x0A25
  6: 0x0983 [0x02] IF !(LocalPlayer->Race == 3*) GOTO 0x099E
  7: 0x098B [0x5F] MULTI_HANDLER_COMPLEX(mode=0x04 - Load ext scheduler (OpCode 0x5B mode 1), ref=165*, entity1=LocalPlayer, entity2=LocalPlayer, string="syo1")
  8: 0x099B [0x01] GOTO 0x0A25
  9: 0x099E [0x02] IF !(LocalPlayer->Race == 4*) GOTO 0x09B9
 10: 0x09A6 [0x5F] MULTI_HANDLER_COMPLEX(mode=0x04 - Load ext scheduler (OpCode 0x5B mode 1), ref=175*, entity1=LocalPlayer, entity2=LocalPlayer, string="syo1")
 11: 0x09B6 [0x01] GOTO 0x0A25
 12: 0x09B9 [0x02] IF !(LocalPlayer->Race == 5*) GOTO 0x09D4
 13: 0x09C1 [0x5F] MULTI_HANDLER_COMPLEX(mode=0x04 - Load ext scheduler (OpCode 0x5B mode 1), ref=185*, entity1=LocalPlayer, entity2=LocalPlayer, string="syo1")
 14: 0x09D1 [0x01] GOTO 0x0A25
 15: 0x09D4 [0x02] IF !(LocalPlayer->Race == 6*) GOTO 0x09EF
 16: 0x09DC [0x5F] MULTI_HANDLER_COMPLEX(mode=0x04 - Load ext scheduler (OpCode 0x5B mode 1), ref=185*, entity1=LocalPlayer, entity2=LocalPlayer, string="syo1")
 17: 0x09EC [0x01] GOTO 0x0A25
 18: 0x09EF [0x02] IF !(LocalPlayer->Race == 7*) GOTO 0x0A0A
 19: 0x09F7 [0x5F] MULTI_HANDLER_COMPLEX(mode=0x04 - Load ext scheduler (OpCode 0x5B mode 1), ref=195*, entity1=LocalPlayer, entity2=LocalPlayer, string="syo1")
 20: 0x0A07 [0x01] GOTO 0x0A25
 21: 0x0A0A [0x02] IF !(LocalPlayer->Race == 8*) GOTO 0x0A25
 22: 0x0A12 [0x5F] MULTI_HANDLER_COMPLEX(mode=0x04 - Load ext scheduler (OpCode 0x5B mode 1), ref=205*, entity1=LocalPlayer, entity2=LocalPlayer, string="syo1")
 23: 0x0A22 [0x01] GOTO 0x0A25

SUBROUTINE_0A25:
 24: 0x0A25 [0x00] END_REQSTACK()
```

### Event 65535.44

#### Metadata

| Field        | Value     |
|--------------|-----------|
| Entrypoint   | 0x0A26    |
| Data Size    | 217 bytes |
| Instructions | 25        |

```
      00 01 02 03 04 05 06 07  08 09 0A 0B 0C 0D 0E 0F
      -- -- -- -- -- -- -- --  -- -- -- -- -- -- -- --
0A20:                   02 87  7F 00 80 80 41 0A 5F 04        ......A._.
0A30: 16 80 F0 FF FF 7F F0 FF  FF 7F 75 6B 75 30 01 FE  ..........uku0..
0A40: 0A 02 87 7F 11 80 80 5C  0A 5F 04 56 80 F0 FF FF  .......\._.V....
0A50: 7F F0 FF FF 7F 75 6B 75  30 01 FE 0A 02 87 7F 44  .....uku0......D
0A60: 80 80 77 0A 5F 04 43 80  F0 FF FF 7F F0 FF FF 7F  ..w._.C.........
0A70: 75 6B 75 30 01 FE 0A 02  87 7F 3C 80 80 92 0A 5F  uku0......<...._
0A80: 04 57 80 F0 FF FF 7F F0  FF FF 7F 75 6B 75 30 01  .W.........uku0.
0A90: FE 0A 02 87 7F 10 80 80  AD 0A 5F 04 58 80 F0 FF  .........._.X...
0AA0: FF 7F F0 FF FF 7F 75 6B  75 30 01 FE 0A 02 87 7F  ......uku0......
0AB0: 45 80 80 C8 0A 5F 04 58  80 F0 FF FF 7F F0 FF FF  E...._.X........
0AC0: 7F 75 6B 75 30 01 FE 0A  02 87 7F 18 80 80 E3 0A  .uku0...........
0AD0: 5F 04 59 80 F0 FF FF 7F  F0 FF FF 7F 75 6B 75 30  _.Y.........uku0
0AE0: 01 FE 0A 02 87 7F 17 80  80 FE 0A 5F 04 5A 80 F0  ..........._.Z..
0AF0: FF FF 7F F0 FF FF 7F 75  6B 75 30 01 FE 0A 00     .......uku0.... 
```

#### Opcodes

```
  0: 0x0A26 [0x02] IF !(LocalPlayer->Race == 1*) GOTO 0x0A41
  1: 0x0A2E [0x5F] MULTI_HANDLER_COMPLEX(mode=0x04 - Load ext scheduler (OpCode 0x5B mode 1), ref=210*, entity1=LocalPlayer, entity2=LocalPlayer, string="uku0")
  2: 0x0A3E [0x01] GOTO 0x0AFE
  3: 0x0A41 [0x02] IF !(LocalPlayer->Race == 2*) GOTO 0x0A5C
  4: 0x0A49 [0x5F] MULTI_HANDLER_COMPLEX(mode=0x04 - Load ext scheduler (OpCode 0x5B mode 1), ref=220*, entity1=LocalPlayer, entity2=LocalPlayer, string="uku0")
  5: 0x0A59 [0x01] GOTO 0x0AFE
  6: 0x0A5C [0x02] IF !(LocalPlayer->Race == 3*) GOTO 0x0A77
  7: 0x0A64 [0x5F] MULTI_HANDLER_COMPLEX(mode=0x04 - Load ext scheduler (OpCode 0x5B mode 1), ref=230*, entity1=LocalPlayer, entity2=LocalPlayer, string="uku0")
  8: 0x0A74 [0x01] GOTO 0x0AFE
  9: 0x0A77 [0x02] IF !(LocalPlayer->Race == 4*) GOTO 0x0A92
 10: 0x0A7F [0x5F] MULTI_HANDLER_COMPLEX(mode=0x04 - Load ext scheduler (OpCode 0x5B mode 1), ref=240*, entity1=LocalPlayer, entity2=LocalPlayer, string="uku0")
 11: 0x0A8F [0x01] GOTO 0x0AFE
 12: 0x0A92 [0x02] IF !(LocalPlayer->Race == 5*) GOTO 0x0AAD
 13: 0x0A9A [0x5F] MULTI_HANDLER_COMPLEX(mode=0x04 - Load ext scheduler (OpCode 0x5B mode 1), ref=250*, entity1=LocalPlayer, entity2=LocalPlayer, string="uku0")
 14: 0x0AAA [0x01] GOTO 0x0AFE
 15: 0x0AAD [0x02] IF !(LocalPlayer->Race == 6*) GOTO 0x0AC8
 16: 0x0AB5 [0x5F] MULTI_HANDLER_COMPLEX(mode=0x04 - Load ext scheduler (OpCode 0x5B mode 1), ref=250*, entity1=LocalPlayer, entity2=LocalPlayer, string="uku0")
 17: 0x0AC5 [0x01] GOTO 0x0AFE
 18: 0x0AC8 [0x02] IF !(LocalPlayer->Race == 7*) GOTO 0x0AE3
 19: 0x0AD0 [0x5F] MULTI_HANDLER_COMPLEX(mode=0x04 - Load ext scheduler (OpCode 0x5B mode 1), ref=260*, entity1=LocalPlayer, entity2=LocalPlayer, string="uku0")
 20: 0x0AE0 [0x01] GOTO 0x0AFE
 21: 0x0AE3 [0x02] IF !(LocalPlayer->Race == 8*) GOTO 0x0AFE
 22: 0x0AEB [0x5F] MULTI_HANDLER_COMPLEX(mode=0x04 - Load ext scheduler (OpCode 0x5B mode 1), ref=270*, entity1=LocalPlayer, entity2=LocalPlayer, string="uku0")
 23: 0x0AFB [0x01] GOTO 0x0AFE

SUBROUTINE_0AFE:
 24: 0x0AFE [0x00] END_REQSTACK()
```

### Event 65535.45

#### Metadata

| Field        | Value     |
|--------------|-----------|
| Entrypoint   | 0x0AFF    |
| Data Size    | 217 bytes |
| Instructions | 25        |

```
      00 01 02 03 04 05 06 07  08 09 0A 0B 0C 0D 0E 0F
      -- -- -- -- -- -- -- --  -- -- -- -- -- -- -- --
0AF0:                                               02                 .
0B00: 87 7F 00 80 80 1A 0B 5F  04 16 80 F0 FF FF 7F F0  ......._........
0B10: FF FF 7F 75 6B 75 31 01  D7 0B 02 87 7F 11 80 80  ...uku1.........
0B20: 35 0B 5F 04 56 80 F0 FF  FF 7F F0 FF FF 7F 75 6B  5._.V.........uk
0B30: 75 31 01 D7 0B 02 87 7F  44 80 80 50 0B 5F 04 43  u1......D..P._.C
0B40: 80 F0 FF FF 7F F0 FF FF  7F 75 6B 75 31 01 D7 0B  .........uku1...
0B50: 02 87 7F 3C 80 80 6B 0B  5F 04 57 80 F0 FF FF 7F  ...<..k._.W.....
0B60: F0 FF FF 7F 75 6B 75 31  01 D7 0B 02 87 7F 10 80  ....uku1........
0B70: 80 86 0B 5F 04 58 80 F0  FF FF 7F F0 FF FF 7F 75  ..._.X.........u
0B80: 6B 75 31 01 D7 0B 02 87  7F 45 80 80 A1 0B 5F 04  ku1......E...._.
0B90: 58 80 F0 FF FF 7F F0 FF  FF 7F 75 6B 75 31 01 D7  X.........uku1..
0BA0: 0B 02 87 7F 18 80 80 BC  0B 5F 04 59 80 F0 FF FF  ........._.Y....
0BB0: 7F F0 FF FF 7F 75 6B 75  31 01 D7 0B 02 87 7F 17  .....uku1.......
0BC0: 80 80 D7 0B 5F 04 5A 80  F0 FF FF 7F F0 FF FF 7F  ...._.Z.........
0BD0: 75 6B 75 31 01 D7 0B 00                           uku1....        
```

#### Opcodes

```
  0: 0x0AFF [0x02] IF !(LocalPlayer->Race == 1*) GOTO 0x0B1A
  1: 0x0B07 [0x5F] MULTI_HANDLER_COMPLEX(mode=0x04 - Load ext scheduler (OpCode 0x5B mode 1), ref=210*, entity1=LocalPlayer, entity2=LocalPlayer, string="uku1")
  2: 0x0B17 [0x01] GOTO 0x0BD7
  3: 0x0B1A [0x02] IF !(LocalPlayer->Race == 2*) GOTO 0x0B35
  4: 0x0B22 [0x5F] MULTI_HANDLER_COMPLEX(mode=0x04 - Load ext scheduler (OpCode 0x5B mode 1), ref=220*, entity1=LocalPlayer, entity2=LocalPlayer, string="uku1")
  5: 0x0B32 [0x01] GOTO 0x0BD7
  6: 0x0B35 [0x02] IF !(LocalPlayer->Race == 3*) GOTO 0x0B50
  7: 0x0B3D [0x5F] MULTI_HANDLER_COMPLEX(mode=0x04 - Load ext scheduler (OpCode 0x5B mode 1), ref=230*, entity1=LocalPlayer, entity2=LocalPlayer, string="uku1")
  8: 0x0B4D [0x01] GOTO 0x0BD7
  9: 0x0B50 [0x02] IF !(LocalPlayer->Race == 4*) GOTO 0x0B6B
 10: 0x0B58 [0x5F] MULTI_HANDLER_COMPLEX(mode=0x04 - Load ext scheduler (OpCode 0x5B mode 1), ref=240*, entity1=LocalPlayer, entity2=LocalPlayer, string="uku1")
 11: 0x0B68 [0x01] GOTO 0x0BD7
 12: 0x0B6B [0x02] IF !(LocalPlayer->Race == 5*) GOTO 0x0B86
 13: 0x0B73 [0x5F] MULTI_HANDLER_COMPLEX(mode=0x04 - Load ext scheduler (OpCode 0x5B mode 1), ref=250*, entity1=LocalPlayer, entity2=LocalPlayer, string="uku1")
 14: 0x0B83 [0x01] GOTO 0x0BD7
 15: 0x0B86 [0x02] IF !(LocalPlayer->Race == 6*) GOTO 0x0BA1
 16: 0x0B8E [0x5F] MULTI_HANDLER_COMPLEX(mode=0x04 - Load ext scheduler (OpCode 0x5B mode 1), ref=250*, entity1=LocalPlayer, entity2=LocalPlayer, string="uku1")
 17: 0x0B9E [0x01] GOTO 0x0BD7
 18: 0x0BA1 [0x02] IF !(LocalPlayer->Race == 7*) GOTO 0x0BBC
 19: 0x0BA9 [0x5F] MULTI_HANDLER_COMPLEX(mode=0x04 - Load ext scheduler (OpCode 0x5B mode 1), ref=260*, entity1=LocalPlayer, entity2=LocalPlayer, string="uku1")
 20: 0x0BB9 [0x01] GOTO 0x0BD7
 21: 0x0BBC [0x02] IF !(LocalPlayer->Race == 8*) GOTO 0x0BD7
 22: 0x0BC4 [0x5F] MULTI_HANDLER_COMPLEX(mode=0x04 - Load ext scheduler (OpCode 0x5B mode 1), ref=270*, entity1=LocalPlayer, entity2=LocalPlayer, string="uku1")
 23: 0x0BD4 [0x01] GOTO 0x0BD7

SUBROUTINE_0BD7:
 24: 0x0BD7 [0x00] END_REQSTACK()
```

### Event 65535.46

#### Metadata

| Field        | Value     |
|--------------|-----------|
| Entrypoint   | 0x0BD8    |
| Data Size    | 217 bytes |
| Instructions | 25        |

```
      00 01 02 03 04 05 06 07  08 09 0A 0B 0C 0D 0E 0F
      -- -- -- -- -- -- -- --  -- -- -- -- -- -- -- --
0BD0:                          02 87 7F 00 80 80 F3 0B          ........
0BE0: 5F 04 16 80 F0 FF FF 7F  F0 FF FF 7F 75 6B 75 32  _...........uku2
0BF0: 01 B0 0C 02 87 7F 11 80  80 0E 0C 5F 04 56 80 F0  ..........._.V..
0C00: FF FF 7F F0 FF FF 7F 75  6B 75 32 01 B0 0C 02 87  .......uku2.....
0C10: 7F 44 80 80 29 0C 5F 04  43 80 F0 FF FF 7F F0 FF  .D..)._.C.......
0C20: FF 7F 75 6B 75 32 01 B0  0C 02 87 7F 3C 80 80 44  ..uku2......<..D
0C30: 0C 5F 04 57 80 F0 FF FF  7F F0 FF FF 7F 75 6B 75  ._.W.........uku
0C40: 32 01 B0 0C 02 87 7F 10  80 80 5F 0C 5F 04 58 80  2........._._.X.
0C50: F0 FF FF 7F F0 FF FF 7F  75 6B 75 32 01 B0 0C 02  ........uku2....
0C60: 87 7F 45 80 80 7A 0C 5F  04 58 80 F0 FF FF 7F F0  ..E..z._.X......
0C70: FF FF 7F 75 6B 75 32 01  B0 0C 02 87 7F 18 80 80  ...uku2.........
0C80: 95 0C 5F 04 59 80 F0 FF  FF 7F F0 FF FF 7F 75 6B  .._.Y.........uk
0C90: 75 32 01 B0 0C 02 87 7F  17 80 80 B0 0C 5F 04 5A  u2..........._.Z
0CA0: 80 F0 FF FF 7F F0 FF FF  7F 75 6B 75 32 01 B0 0C  .........uku2...
0CB0: 00                                                .               
```

#### Opcodes

```
  0: 0x0BD8 [0x02] IF !(LocalPlayer->Race == 1*) GOTO 0x0BF3
  1: 0x0BE0 [0x5F] MULTI_HANDLER_COMPLEX(mode=0x04 - Load ext scheduler (OpCode 0x5B mode 1), ref=210*, entity1=LocalPlayer, entity2=LocalPlayer, string="uku2")
  2: 0x0BF0 [0x01] GOTO 0x0CB0
  3: 0x0BF3 [0x02] IF !(LocalPlayer->Race == 2*) GOTO 0x0C0E
  4: 0x0BFB [0x5F] MULTI_HANDLER_COMPLEX(mode=0x04 - Load ext scheduler (OpCode 0x5B mode 1), ref=220*, entity1=LocalPlayer, entity2=LocalPlayer, string="uku2")
  5: 0x0C0B [0x01] GOTO 0x0CB0
  6: 0x0C0E [0x02] IF !(LocalPlayer->Race == 3*) GOTO 0x0C29
  7: 0x0C16 [0x5F] MULTI_HANDLER_COMPLEX(mode=0x04 - Load ext scheduler (OpCode 0x5B mode 1), ref=230*, entity1=LocalPlayer, entity2=LocalPlayer, string="uku2")
  8: 0x0C26 [0x01] GOTO 0x0CB0
  9: 0x0C29 [0x02] IF !(LocalPlayer->Race == 4*) GOTO 0x0C44
 10: 0x0C31 [0x5F] MULTI_HANDLER_COMPLEX(mode=0x04 - Load ext scheduler (OpCode 0x5B mode 1), ref=240*, entity1=LocalPlayer, entity2=LocalPlayer, string="uku2")
 11: 0x0C41 [0x01] GOTO 0x0CB0
 12: 0x0C44 [0x02] IF !(LocalPlayer->Race == 5*) GOTO 0x0C5F
 13: 0x0C4C [0x5F] MULTI_HANDLER_COMPLEX(mode=0x04 - Load ext scheduler (OpCode 0x5B mode 1), ref=250*, entity1=LocalPlayer, entity2=LocalPlayer, string="uku2")
 14: 0x0C5C [0x01] GOTO 0x0CB0
 15: 0x0C5F [0x02] IF !(LocalPlayer->Race == 6*) GOTO 0x0C7A
 16: 0x0C67 [0x5F] MULTI_HANDLER_COMPLEX(mode=0x04 - Load ext scheduler (OpCode 0x5B mode 1), ref=250*, entity1=LocalPlayer, entity2=LocalPlayer, string="uku2")
 17: 0x0C77 [0x01] GOTO 0x0CB0
 18: 0x0C7A [0x02] IF !(LocalPlayer->Race == 7*) GOTO 0x0C95
 19: 0x0C82 [0x5F] MULTI_HANDLER_COMPLEX(mode=0x04 - Load ext scheduler (OpCode 0x5B mode 1), ref=260*, entity1=LocalPlayer, entity2=LocalPlayer, string="uku2")
 20: 0x0C92 [0x01] GOTO 0x0CB0
 21: 0x0C95 [0x02] IF !(LocalPlayer->Race == 8*) GOTO 0x0CB0
 22: 0x0C9D [0x5F] MULTI_HANDLER_COMPLEX(mode=0x04 - Load ext scheduler (OpCode 0x5B mode 1), ref=270*, entity1=LocalPlayer, entity2=LocalPlayer, string="uku2")
 23: 0x0CAD [0x01] GOTO 0x0CB0

SUBROUTINE_0CB0:
 24: 0x0CB0 [0x00] END_REQSTACK()
```

### Event 65535.47

#### Metadata

| Field        | Value     |
|--------------|-----------|
| Entrypoint   | 0x0CB1    |
| Data Size    | 217 bytes |
| Instructions | 25        |

```
      00 01 02 03 04 05 06 07  08 09 0A 0B 0C 0D 0E 0F
      -- -- -- -- -- -- -- --  -- -- -- -- -- -- -- --
0CB0:    02 87 7F 00 80 80 CC  0C 5F 04 16 80 F0 FF FF   ........_......
0CC0: 7F F0 FF FF 7F 67 65 6B  30 01 89 0D 02 87 7F 11  .....gek0.......
0CD0: 80 80 E7 0C 5F 04 56 80  F0 FF FF 7F F0 FF FF 7F  ...._.V.........
0CE0: 67 65 6B 30 01 89 0D 02  87 7F 44 80 80 02 0D 5F  gek0......D...._
0CF0: 04 43 80 F0 FF FF 7F F0  FF FF 7F 67 65 6B 30 01  .C.........gek0.
0D00: 89 0D 02 87 7F 3C 80 80  1D 0D 5F 04 57 80 F0 FF  .....<...._.W...
0D10: FF 7F F0 FF FF 7F 67 65  6B 30 01 89 0D 02 87 7F  ......gek0......
0D20: 10 80 80 38 0D 5F 04 58  80 F0 FF FF 7F F0 FF FF  ...8._.X........
0D30: 7F 67 65 6B 30 01 89 0D  02 87 7F 45 80 80 53 0D  .gek0......E..S.
0D40: 5F 04 58 80 F0 FF FF 7F  F0 FF FF 7F 67 65 6B 30  _.X.........gek0
0D50: 01 89 0D 02 87 7F 18 80  80 6E 0D 5F 04 59 80 F0  .........n._.Y..
0D60: FF FF 7F F0 FF FF 7F 67  65 6B 30 01 89 0D 02 87  .......gek0.....
0D70: 7F 17 80 80 89 0D 5F 04  5A 80 F0 FF FF 7F F0 FF  ......_.Z.......
0D80: FF 7F 67 65 6B 30 01 89  0D 00                    ..gek0....      
```

#### Opcodes

```
  0: 0x0CB1 [0x02] IF !(LocalPlayer->Race == 1*) GOTO 0x0CCC
  1: 0x0CB9 [0x5F] MULTI_HANDLER_COMPLEX(mode=0x04 - Load ext scheduler (OpCode 0x5B mode 1), ref=210*, entity1=LocalPlayer, entity2=LocalPlayer, string="gek0")
  2: 0x0CC9 [0x01] GOTO 0x0D89
  3: 0x0CCC [0x02] IF !(LocalPlayer->Race == 2*) GOTO 0x0CE7
  4: 0x0CD4 [0x5F] MULTI_HANDLER_COMPLEX(mode=0x04 - Load ext scheduler (OpCode 0x5B mode 1), ref=220*, entity1=LocalPlayer, entity2=LocalPlayer, string="gek0")
  5: 0x0CE4 [0x01] GOTO 0x0D89
  6: 0x0CE7 [0x02] IF !(LocalPlayer->Race == 3*) GOTO 0x0D02
  7: 0x0CEF [0x5F] MULTI_HANDLER_COMPLEX(mode=0x04 - Load ext scheduler (OpCode 0x5B mode 1), ref=230*, entity1=LocalPlayer, entity2=LocalPlayer, string="gek0")
  8: 0x0CFF [0x01] GOTO 0x0D89
  9: 0x0D02 [0x02] IF !(LocalPlayer->Race == 4*) GOTO 0x0D1D
 10: 0x0D0A [0x5F] MULTI_HANDLER_COMPLEX(mode=0x04 - Load ext scheduler (OpCode 0x5B mode 1), ref=240*, entity1=LocalPlayer, entity2=LocalPlayer, string="gek0")
 11: 0x0D1A [0x01] GOTO 0x0D89
 12: 0x0D1D [0x02] IF !(LocalPlayer->Race == 5*) GOTO 0x0D38
 13: 0x0D25 [0x5F] MULTI_HANDLER_COMPLEX(mode=0x04 - Load ext scheduler (OpCode 0x5B mode 1), ref=250*, entity1=LocalPlayer, entity2=LocalPlayer, string="gek0")
 14: 0x0D35 [0x01] GOTO 0x0D89
 15: 0x0D38 [0x02] IF !(LocalPlayer->Race == 6*) GOTO 0x0D53
 16: 0x0D40 [0x5F] MULTI_HANDLER_COMPLEX(mode=0x04 - Load ext scheduler (OpCode 0x5B mode 1), ref=250*, entity1=LocalPlayer, entity2=LocalPlayer, string="gek0")
 17: 0x0D50 [0x01] GOTO 0x0D89
 18: 0x0D53 [0x02] IF !(LocalPlayer->Race == 7*) GOTO 0x0D6E
 19: 0x0D5B [0x5F] MULTI_HANDLER_COMPLEX(mode=0x04 - Load ext scheduler (OpCode 0x5B mode 1), ref=260*, entity1=LocalPlayer, entity2=LocalPlayer, string="gek0")
 20: 0x0D6B [0x01] GOTO 0x0D89
 21: 0x0D6E [0x02] IF !(LocalPlayer->Race == 8*) GOTO 0x0D89
 22: 0x0D76 [0x5F] MULTI_HANDLER_COMPLEX(mode=0x04 - Load ext scheduler (OpCode 0x5B mode 1), ref=270*, entity1=LocalPlayer, entity2=LocalPlayer, string="gek0")
 23: 0x0D86 [0x01] GOTO 0x0D89

SUBROUTINE_0D89:
 24: 0x0D89 [0x00] END_REQSTACK()
```

### Event 65535.48

#### Metadata

| Field        | Value     |
|--------------|-----------|
| Entrypoint   | 0x0D8A    |
| Data Size    | 217 bytes |
| Instructions | 25        |

```
      00 01 02 03 04 05 06 07  08 09 0A 0B 0C 0D 0E 0F
      -- -- -- -- -- -- -- --  -- -- -- -- -- -- -- --
0D80:                                02 87 7F 00 80 80            ......
0D90: A5 0D 5F 04 5B 80 F0 FF  FF 7F F0 FF FF 7F 69 68  .._.[.........ih
0DA0: 65 30 01 62 0E 02 87 7F  11 80 80 C0 0D 5F 04 5C  e0.b........._.\
0DB0: 80 F0 FF FF 7F F0 FF FF  7F 69 68 65 30 01 62 0E  .........ihe0.b.
0DC0: 02 87 7F 44 80 80 DB 0D  5F 04 5D 80 F0 FF FF 7F  ...D...._.].....
0DD0: F0 FF FF 7F 69 68 65 30  01 62 0E 02 87 7F 3C 80  ....ihe0.b....<.
0DE0: 80 F6 0D 5F 04 5E 80 F0  FF FF 7F F0 FF FF 7F 69  ..._.^.........i
0DF0: 68 65 30 01 62 0E 02 87  7F 10 80 80 11 0E 5F 04  he0.b........._.
0E00: 5F 80 F0 FF FF 7F F0 FF  FF 7F 69 68 65 30 01 62  _.........ihe0.b
0E10: 0E 02 87 7F 45 80 80 2C  0E 5F 04 5F 80 F0 FF FF  ....E..,._._....
0E20: 7F F0 FF FF 7F 69 68 65  30 01 62 0E 02 87 7F 18  .....ihe0.b.....
0E30: 80 80 47 0E 5F 04 60 80  F0 FF FF 7F F0 FF FF 7F  ..G._.`.........
0E40: 69 68 65 30 01 62 0E 02  87 7F 17 80 80 62 0E 5F  ihe0.b.......b._
0E50: 04 61 80 F0 FF FF 7F F0  FF FF 7F 69 68 65 30 01  .a.........ihe0.
0E60: 62 0E 00                                          b..             
```

#### Opcodes

```
  0: 0x0D8A [0x02] IF !(LocalPlayer->Race == 1*) GOTO 0x0DA5
  1: 0x0D92 [0x5F] MULTI_HANDLER_COMPLEX(mode=0x04 - Load ext scheduler (OpCode 0x5B mode 1), ref=211*, entity1=LocalPlayer, entity2=LocalPlayer, string="ihe0")
  2: 0x0DA2 [0x01] GOTO 0x0E62
  3: 0x0DA5 [0x02] IF !(LocalPlayer->Race == 2*) GOTO 0x0DC0
  4: 0x0DAD [0x5F] MULTI_HANDLER_COMPLEX(mode=0x04 - Load ext scheduler (OpCode 0x5B mode 1), ref=221*, entity1=LocalPlayer, entity2=LocalPlayer, string="ihe0")
  5: 0x0DBD [0x01] GOTO 0x0E62
  6: 0x0DC0 [0x02] IF !(LocalPlayer->Race == 3*) GOTO 0x0DDB
  7: 0x0DC8 [0x5F] MULTI_HANDLER_COMPLEX(mode=0x04 - Load ext scheduler (OpCode 0x5B mode 1), ref=231*, entity1=LocalPlayer, entity2=LocalPlayer, string="ihe0")
  8: 0x0DD8 [0x01] GOTO 0x0E62
  9: 0x0DDB [0x02] IF !(LocalPlayer->Race == 4*) GOTO 0x0DF6
 10: 0x0DE3 [0x5F] MULTI_HANDLER_COMPLEX(mode=0x04 - Load ext scheduler (OpCode 0x5B mode 1), ref=241*, entity1=LocalPlayer, entity2=LocalPlayer, string="ihe0")
 11: 0x0DF3 [0x01] GOTO 0x0E62
 12: 0x0DF6 [0x02] IF !(LocalPlayer->Race == 5*) GOTO 0x0E11
 13: 0x0DFE [0x5F] MULTI_HANDLER_COMPLEX(mode=0x04 - Load ext scheduler (OpCode 0x5B mode 1), ref=251*, entity1=LocalPlayer, entity2=LocalPlayer, string="ihe0")
 14: 0x0E0E [0x01] GOTO 0x0E62
 15: 0x0E11 [0x02] IF !(LocalPlayer->Race == 6*) GOTO 0x0E2C
 16: 0x0E19 [0x5F] MULTI_HANDLER_COMPLEX(mode=0x04 - Load ext scheduler (OpCode 0x5B mode 1), ref=251*, entity1=LocalPlayer, entity2=LocalPlayer, string="ihe0")
 17: 0x0E29 [0x01] GOTO 0x0E62
 18: 0x0E2C [0x02] IF !(LocalPlayer->Race == 7*) GOTO 0x0E47
 19: 0x0E34 [0x5F] MULTI_HANDLER_COMPLEX(mode=0x04 - Load ext scheduler (OpCode 0x5B mode 1), ref=261*, entity1=LocalPlayer, entity2=LocalPlayer, string="ihe0")
 20: 0x0E44 [0x01] GOTO 0x0E62
 21: 0x0E47 [0x02] IF !(LocalPlayer->Race == 8*) GOTO 0x0E62
 22: 0x0E4F [0x5F] MULTI_HANDLER_COMPLEX(mode=0x04 - Load ext scheduler (OpCode 0x5B mode 1), ref=271*, entity1=LocalPlayer, entity2=LocalPlayer, string="ihe0")
 23: 0x0E5F [0x01] GOTO 0x0E62

SUBROUTINE_0E62:
 24: 0x0E62 [0x00] END_REQSTACK()
```

### Event 65535.49

#### Metadata

| Field        | Value     |
|--------------|-----------|
| Entrypoint   | 0x0E63    |
| Data Size    | 217 bytes |
| Instructions | 25        |

```
      00 01 02 03 04 05 06 07  08 09 0A 0B 0C 0D 0E 0F
      -- -- -- -- -- -- -- --  -- -- -- -- -- -- -- --
0E60:          02 87 7F 00 80  80 7E 0E 5F 04 5B 80 F0     ......~._.[..
0E70: FF FF 7F F0 FF FF 7F 74  6F 62 30 01 3B 0F 02 87  .......tob0.;...
0E80: 7F 11 80 80 99 0E 5F 04  5C 80 F0 FF FF 7F F0 FF  ......_.\.......
0E90: FF 7F 74 6F 62 30 01 3B  0F 02 87 7F 44 80 80 B4  ..tob0.;....D...
0EA0: 0E 5F 04 5D 80 F0 FF FF  7F F0 FF FF 7F 74 6F 62  ._.].........tob
0EB0: 30 01 3B 0F 02 87 7F 3C  80 80 CF 0E 5F 04 5E 80  0.;....<...._.^.
0EC0: F0 FF FF 7F F0 FF FF 7F  74 6F 62 30 01 3B 0F 02  ........tob0.;..
0ED0: 87 7F 10 80 80 EA 0E 5F  04 5F 80 F0 FF FF 7F F0  ......._._......
0EE0: FF FF 7F 74 6F 62 30 01  3B 0F 02 87 7F 45 80 80  ...tob0.;....E..
0EF0: 05 0F 5F 04 5F 80 F0 FF  FF 7F F0 FF FF 7F 74 6F  .._._.........to
0F00: 62 30 01 3B 0F 02 87 7F  18 80 80 20 0F 5F 04 60  b0.;....... ._.`
0F10: 80 F0 FF FF 7F F0 FF FF  7F 74 6F 62 30 01 3B 0F  .........tob0.;.
0F20: 02 87 7F 17 80 80 3B 0F  5F 04 61 80 F0 FF FF 7F  ......;._.a.....
0F30: F0 FF FF 7F 74 6F 62 30  01 3B 0F 00              ....tob0.;..    
```

#### Opcodes

```
  0: 0x0E63 [0x02] IF !(LocalPlayer->Race == 1*) GOTO 0x0E7E
  1: 0x0E6B [0x5F] MULTI_HANDLER_COMPLEX(mode=0x04 - Load ext scheduler (OpCode 0x5B mode 1), ref=211*, entity1=LocalPlayer, entity2=LocalPlayer, string="tob0")
  2: 0x0E7B [0x01] GOTO 0x0F3B
  3: 0x0E7E [0x02] IF !(LocalPlayer->Race == 2*) GOTO 0x0E99
  4: 0x0E86 [0x5F] MULTI_HANDLER_COMPLEX(mode=0x04 - Load ext scheduler (OpCode 0x5B mode 1), ref=221*, entity1=LocalPlayer, entity2=LocalPlayer, string="tob0")
  5: 0x0E96 [0x01] GOTO 0x0F3B
  6: 0x0E99 [0x02] IF !(LocalPlayer->Race == 3*) GOTO 0x0EB4
  7: 0x0EA1 [0x5F] MULTI_HANDLER_COMPLEX(mode=0x04 - Load ext scheduler (OpCode 0x5B mode 1), ref=231*, entity1=LocalPlayer, entity2=LocalPlayer, string="tob0")
  8: 0x0EB1 [0x01] GOTO 0x0F3B
  9: 0x0EB4 [0x02] IF !(LocalPlayer->Race == 4*) GOTO 0x0ECF
 10: 0x0EBC [0x5F] MULTI_HANDLER_COMPLEX(mode=0x04 - Load ext scheduler (OpCode 0x5B mode 1), ref=241*, entity1=LocalPlayer, entity2=LocalPlayer, string="tob0")
 11: 0x0ECC [0x01] GOTO 0x0F3B
 12: 0x0ECF [0x02] IF !(LocalPlayer->Race == 5*) GOTO 0x0EEA
 13: 0x0ED7 [0x5F] MULTI_HANDLER_COMPLEX(mode=0x04 - Load ext scheduler (OpCode 0x5B mode 1), ref=251*, entity1=LocalPlayer, entity2=LocalPlayer, string="tob0")
 14: 0x0EE7 [0x01] GOTO 0x0F3B
 15: 0x0EEA [0x02] IF !(LocalPlayer->Race == 6*) GOTO 0x0F05
 16: 0x0EF2 [0x5F] MULTI_HANDLER_COMPLEX(mode=0x04 - Load ext scheduler (OpCode 0x5B mode 1), ref=251*, entity1=LocalPlayer, entity2=LocalPlayer, string="tob0")
 17: 0x0F02 [0x01] GOTO 0x0F3B
 18: 0x0F05 [0x02] IF !(LocalPlayer->Race == 7*) GOTO 0x0F20
