# Event 397

## Metadata

| Field           | Value    |
|-----------------|----------|
| Event Index     | 86/146   |
| Offset          | 0x0C6C   |
| Data Size       | 35 bytes |
| Calculated Size | 35 bytes |
| Instructions    | 11       |

```
      00 01 02 03 04 05 06 07  08 09 0A 0B 0C 0D 0E 0F
      -- -- -- -- -- -- -- --  -- -- -- -- -- -- -- --
0C60:                                      20 01 42 1E               .B.
0C70: F0 FF FF 7F 6F 70 29 0B  14 10 0F 01 56 29 0B 14  ....op).....V)..
0C80: 10 0F 01 57 29 0B 14 10  0F 01 58 20 00 21 00     ...W).....X .!. 
```

## Opcodes

```
  0: 0x0C6C [0x20] SET_CLI_EVENT_UC_FLAG: Lock player control
  1: 0x0C6E [0x42] SET_CLI_EVENT_CANCEL_DATA()
  2: 0x0C6F [0x1E] EventEntity looks at LocalPlayer and starts talking
  3: 0x0C74 [0x6F] WAIT_FRAME_DELAY: Yield until WaitTime reaches zero
  4: 0x0C75 [0x70] WAIT_ENTITY_RENDER_FLAG: Wait while EventEntity->Render.Flags3 bit 2 is set (cancel turn if not)
  5: 0x0C76 [0x29] REQ_SET_WAIT(priority=0x0B, entity_id=Apururu (ID: 17764372/0x010F1014), tag_num=0x56)
  6: 0x0C7D [0x29] REQ_SET_WAIT(priority=0x0B, entity_id=Apururu (ID: 17764372/0x010F1014), tag_num=0x57)
  7: 0x0C84 [0x29] REQ_SET_WAIT(priority=0x0B, entity_id=Apururu (ID: 17764372/0x010F1014), tag_num=0x58)
  8: 0x0C8B [0x20] SET_CLI_EVENT_UC_FLAG: Unlock player control
  9: 0x0C8D [0x21] END_EVENT
 10: 0x0C8E [0x00] END_REQSTACK()
```
