# Event 398

## Metadata

| Field           | Value    |
|-----------------|----------|
| Event Index     | 90/146   |
| Offset          | 0x0C9E   |
| Data Size       | 33 bytes |
| Calculated Size | 33 bytes |
| Instructions    | 12       |

```
      00 01 02 03 04 05 06 07  08 09 0A 0B 0C 0D 0E 0F
      -- -- -- -- -- -- -- --  -- -- -- -- -- -- -- --
0C90:                                            1E F0                ..
0CA0: FF FF 7F 6F 70 29 08 14  10 0F 01 01 1D 7D 80 23  ...op).......}.#
0CB0: 1D 7E 80 23 29 08 14 10  0F 01 02 20 00 21 00     .~.#)...... .!. 
```

## Opcodes

```
  0: 0x0C9E [0x1E] EventEntity looks at LocalPlayer and starts talking
  1: 0x0CA3 [0x6F] WAIT_FRAME_DELAY: Yield until WaitTime reaches zero
  2: 0x0CA4 [0x70] WAIT_ENTITY_RENDER_FLAG: Wait while EventEntity->Render.Flags3 bit 2 is set (cancel turn if not)
  3: 0x0CA5 [0x29] REQ_SET_WAIT(priority=0x08, entity_id=Apururu (ID: 17764372/0x010F1014), tag_num=0x01)
  4: 0x0CAC [0x1D] PRINT_EVENT_MESSAGE(message_id=8475*)
    → "Tell this child's friends back in Jeuno that it won't be much longer before he's as good as new.\u007F1\u0000\u0007"
  5: 0x0CAF [0x23] WAIT_FOR_DIALOG_INTERACTION
  6: 0x0CB0 [0x1D] PRINT_EVENT_MESSAGE(message_id=8476*)
    → "I...\u0007I need to wipe his Mana Orb clean in order to begin. I must clean away the memories that broke his heart...\u007F1\u0000\u0007"
  7: 0x0CB3 [0x23] WAIT_FOR_DIALOG_INTERACTION
  8: 0x0CB4 [0x29] REQ_SET_WAIT(priority=0x08, entity_id=Apururu (ID: 17764372/0x010F1014), tag_num=0x02)
  9: 0x0CBB [0x20] SET_CLI_EVENT_UC_FLAG: Unlock player control
 10: 0x0CBD [0x21] END_EVENT
 11: 0x0CBE [0x00] END_REQSTACK()
```
