# Event 593

## Metadata

| Field           | Value    |
|-----------------|----------|
| Event Index     | 122/146  |
| Offset          | 0x1E8B   |
| Data Size       | 33 bytes |
| Calculated Size | 33 bytes |
| Instructions    | 12       |

```
      00 01 02 03 04 05 06 07  08 09 0A 0B 0C 0D 0E 0F
      -- -- -- -- -- -- -- --  -- -- -- -- -- -- -- --
1E80:                                   1E F0 FF FF 7F             .....
1E90: 6F 70 29 08 14 10 0F 01  01 1D EB 80 23 1D EC 80  op).........#...
1EA0: 23 29 08 14 10 0F 01 02  20 00 21 00              #)...... .!.    
```

## Opcodes

```
  0: 0x1E8B [0x1E] EventEntity looks at LocalPlayer and starts talking
  1: 0x1E90 [0x6F] WAIT_FRAME_DELAY: Yield until WaitTime reaches zero
  2: 0x1E91 [0x70] WAIT_ENTITY_RENDER_FLAG: Wait while EventEntity->Render.Flags3 bit 2 is set (cancel turn if not)
  3: 0x1E92 [0x29] REQ_SET_WAIT(priority=0x08, entity_id=Apururu (ID: 17764372/0x010F1014), tag_num=0x01)
  4: 0x1E99 [0x1D] PRINT_EVENT_MESSAGE(message_id=9541*)
    → "Now, to the Dark Dungeon we go!\u0007...Oh, that won't do. Professor Shantotto said I shouldn't be seen traveling with you.\u007F1\u0000\u0007"
  5: 0x1E9C [0x23] WAIT_FOR_DIALOG_INTERACTION
  6: 0x1E9D [0x1D] PRINT_EVENT_MESSAGE(message_id=9542*)
    → "We'll rendezvous by the door. Please be careful, \u0008.\u007F1\u0000\u0007"
  7: 0x1EA0 [0x23] WAIT_FOR_DIALOG_INTERACTION
  8: 0x1EA1 [0x29] REQ_SET_WAIT(priority=0x08, entity_id=Apururu (ID: 17764372/0x010F1014), tag_num=0x02)
  9: 0x1EA8 [0x20] SET_CLI_EVENT_UC_FLAG: Unlock player control
 10: 0x1EAA [0x21] END_EVENT
 11: 0x1EAB [0x00] END_REQSTACK()
```
