# Event 65535

## Metadata

| Field           | Value    |
|-----------------|----------|
| Event Index     | 116/146  |
| Offset          | 0x1B80   |
| Data Size       | 70 bytes |
| Calculated Size | 70 bytes |
| Instructions    | 14       |

```
      00 01 02 03 04 05 06 07  08 09 0A 0B 0C 0D 0E 0F
      -- -- -- -- -- -- -- --  -- -- -- -- -- -- -- --
1B80: 32 4B 80 1F 00 D8 80 D6  80 D9 80 1F 01 1F 00 DA  2K..............
1B90: 80 D6 80 D9 80 1F 01 79  00 14 10 0F 01 E0 10 0F  .......y........
1BA0: 01 1C 10 80 29 08 E0 10  0F 01 04 79 00 14 10 0F  ....)......y....
1BB0: 01 E0 10 0F 01 1C 10 80  32 41 80 1F 00 DA 80 DB  ........2A......
1BC0: 80 0F 80 1F 01 00                                 ......          
```

## Opcodes

```
  0: 0x1B80 [0x32] ExtData[1]->MainSpeed = 40* * 0.1
  1: 0x1B83 [0x1F] MOVE_ENTITY: EventEntity moves to X=-231.501*, Z=99.555*, Y=0.055*
  2: 0x1B8B [0x1F] MOVE_ENTITY: Update entity position (mode=1)
  3: 0x1B8D [0x1F] MOVE_ENTITY: EventEntity moves to X=-228.000*, Z=99.555*, Y=0.055*
  4: 0x1B95 [0x1F] MOVE_ENTITY: Update entity position (mode=1)
  5: 0x1B97 [0x79] Apururu (ID: 17764372/0x010F1014) looks at Gate of Darkness (ID: 17764576/0x010F10E0) (Basic look)
  6: 0x1BA1 [0x1C] WAIT(60* ticks)
  7: 0x1BA4 [0x29] REQ_SET_WAIT(priority=0x08, entity_id=Gate of Darkness (ID: 17764576/0x010F10E0), tag_num=0x04)
  8: 0x1BAB [0x79] Apururu (ID: 17764372/0x010F1014) looks at Gate of Darkness (ID: 17764576/0x010F10E0) (Basic look)
  9: 0x1BB5 [0x1C] WAIT(60* ticks)
 10: 0x1BB8 [0x32] ExtData[1]->MainSpeed = 13* * 0.1
 11: 0x1BBB [0x1F] MOVE_ENTITY: EventEntity moves to X=-228.000*, Z=97.300*, Y=0.000*
 12: 0x1BC3 [0x1F] MOVE_ENTITY: Update entity position (mode=1)
 13: 0x1BC5 [0x00] END_REQSTACK()
```
