# Event 65535

## Metadata

| Field           | Value    |
|-----------------|----------|
| Event Index     | 103/146  |
| Offset          | 0x1231   |
| Data Size       | 37 bytes |
| Calculated Size | 37 bytes |
| Instructions    | 9        |

```
      00 01 02 03 04 05 06 07  08 09 0A 0B 0C 0D 0E 0F
      -- -- -- -- -- -- -- --  -- -- -- -- -- -- -- --
1230:    29 08 14 10 0F 01 03  1D A2 80 23 29 08 14 10   ).........#)...
1240: 0F 01 04 29 08 14 10 0F  01 05 1D A3 80 23 29 08  ...).........#).
1250: 14 10 0F 01 06 00                                 ......          
```

## Opcodes

```
  0: 0x1231 [0x29] REQ_SET_WAIT(priority=0x08, entity_id=Apururu (ID: 17764372/0x010F1014), tag_num=0x03)
  1: 0x1238 [0x1D] PRINT_EVENT_MESSAGE(message_id=8208*)
    → "Oh...?\u007F1\u0000\u0007"
  2: 0x123B [0x23] WAIT_FOR_DIALOG_INTERACTION
  3: 0x123C [0x29] REQ_SET_WAIT(priority=0x08, entity_id=Apururu (ID: 17764372/0x010F1014), tag_num=0x04)
  4: 0x1243 [0x29] REQ_SET_WAIT(priority=0x08, entity_id=Apururu (ID: 17764372/0x010F1014), tag_num=0x05)
  5: 0x124A [0x1D] PRINT_EVENT_MESSAGE(message_id=8209*)
    → "What's that I see on this starfruit?\u007F1\u0000\u0007"
  6: 0x124D [0x23] WAIT_FOR_DIALOG_INTERACTION
  7: 0x124E [0x29] REQ_SET_WAIT(priority=0x08, entity_id=Apururu (ID: 17764372/0x010F1014), tag_num=0x06)
  8: 0x1255 [0x00] END_REQSTACK()
```
