# Event 65535

## Metadata

| Field           | Value    |
|-----------------|----------|
| Event Index     | 114/146  |
| Offset          | 0x1B58   |
| Data Size       | 30 bytes |
| Calculated Size | 30 bytes |
| Instructions    | 8        |

```
      00 01 02 03 04 05 06 07  08 09 0A 0B 0C 0D 0E 0F
      -- -- -- -- -- -- -- --  -- -- -- -- -- -- -- --
1B50:                          32 4B 80 1F 00 D1 80 D2          2K......
1B60: 80 0F 80 1F 01 1C 58 80  32 4B 80 1F 00 D3 80 D4  ......X.2K......
1B70: 80 0F 80 1F 01 00                                 ......          
```

## Opcodes

```
  0: 0x1B58 [0x32] ExtData[1]->MainSpeed = 40* * 0.1
  1: 0x1B5B [0x1F] MOVE_ENTITY: EventEntity moves to X=-268.404*, Z=28.709*, Y=0.000*
  2: 0x1B63 [0x1F] MOVE_ENTITY: Update entity position (mode=1)
  3: 0x1B65 [0x1C] WAIT(100* ticks)
  4: 0x1B68 [0x32] ExtData[1]->MainSpeed = 40* * 0.1
  5: 0x1B6B [0x1F] MOVE_ENTITY: EventEntity moves to X=-265.762*, Z=40.441*, Y=0.000*
  6: 0x1B73 [0x1F] MOVE_ENTITY: Update entity position (mode=1)
  7: 0x1B75 [0x00] END_REQSTACK()
```
