# Event 65535

## Metadata

| Field           | Value    |
|-----------------|----------|
| Event Index     | 42/146   |
| Offset          | 0x05B6   |
| Data Size       | 27 bytes |
| Calculated Size | 27 bytes |
| Instructions    | 9        |

```
      00 01 02 03 04 05 06 07  08 09 0A 0B 0C 0D 0E 0F
      -- -- -- -- -- -- -- --  -- -- -- -- -- -- -- --
05B0:                   29 08  14 10 0F 01 13 1D 28 80        ).......(.
05C0: 23 1D 29 80 23 1D 2A 80  23 29 08 14 10 0F 01 14  #.).#.*.#)......
05D0: 00                                                .               
```

## Opcodes

```
  0: 0x05B6 [0x29] REQ_SET_WAIT(priority=0x08, entity_id=Apururu (ID: 17764372/0x010F1014), tag_num=0x13)
  1: 0x05BD [0x1D] PRINT_EVENT_MESSAGE(message_id=7765*)
    → "Mana Orbs are their hearts, remember? So the reason they steal the Mana Orbs is to revive their friends who have run out of magic in their Mana Orbs.\u007F1\u0000\u0007"
  2: 0x05C0 [0x23] WAIT_FOR_DIALOG_INTERACTION
  3: 0x05C1 [0x1D] PRINT_EVENT_MESSAGE(message_id=7766*)
    → "But Mana Orbs are just spheres of magic. Unless there is a mage who can use the Mana Orb and breathe life into the Cardians, they are totally useless.\u007F1\u0000\u0007"
  4: 0x05C4 [0x23] WAIT_FOR_DIALOG_INTERACTION
  5: 0x05C5 [0x1D] PRINT_EVENT_MESSAGE(message_id=7767*)
    → "So even if they are successful in stealing the Mana Orbs, it serves them no purpose...\u007F1\u0000\u0007"
  6: 0x05C8 [0x23] WAIT_FOR_DIALOG_INTERACTION
  7: 0x05C9 [0x29] REQ_SET_WAIT(priority=0x08, entity_id=Apururu (ID: 17764372/0x010F1014), tag_num=0x14)
  8: 0x05D0 [0x00] END_REQSTACK()
```
