# Event 810

## Metadata

| Field           | Value    |
|-----------------|----------|
| Event Index     | 3/13     |
| Offset          | 0x0020   |
| Data Size       | 33 bytes |
| Calculated Size | 33 bytes |
| Instructions    | 11       |

```
      00 01 02 03 04 05 06 07  08 09 0A 0B 0C 0D 0E 0F
      -- -- -- -- -- -- -- --  -- -- -- -- -- -- -- --
0020: 1E F0 FF FF 7F 6F 70 2B  7E D0 0E 01 04 80 23 2B  .....op+~.....#+
0030: 7E D0 0E 01 05 80 23 2B  7E D0 0E 01 06 80 23 21  ~.....#+~.....#!
0040: 00                                                .               
```

## Opcodes

```
  0: 0x0020 [0x1E] EventEntity looks at LocalPlayer and starts talking
  1: 0x0025 [0x6F] WAIT_FRAME_DELAY: Yield until WaitTime reaches zero
  2: 0x0026 [0x70] WAIT_ENTITY_RENDER_FLAG: Wait while EventEntity->Render.Flags3 bit 2 is set (cancel turn if not)
  3: 0x0027 [0x2B] Invincible Shield (ID: 17748094/0x010ED07E) [7148*]:
    → "What!?\u0007You think you're \u007F\u0005[man/woman] enough to join our nation's Conflict forces!?\u007F1\u0000\u0007"
  4: 0x002E [0x23] WAIT_FOR_DIALOG_INTERACTION
  5: 0x002F [0x2B] Invincible Shield (ID: 17748094/0x010ED07E) [7149*]:
    → "Why, you're still a worthless maggot that hasn't done squat for the Republic! Come back when your rank is at least higher than your IQ!\u007F1\u0000\u0007"
  6: 0x0036 [0x23] WAIT_FOR_DIALOG_INTERACTION
  7: 0x0037 [0x2B] Invincible Shield (ID: 17748094/0x010ED07E) [7150*]:
    → "I'll be watching you, soldier!\u007F1\u0000\u0007"
  8: 0x003E [0x23] WAIT_FOR_DIALOG_INTERACTION
  9: 0x003F [0x21] END_EVENT
 10: 0x0040 [0x00] END_REQSTACK()
```
