# Event 815

## Metadata

| Field           | Value    |
|-----------------|----------|
| Event Index     | 6/13     |
| Offset          | 0x0DCB   |
| Data Size       | 25 bytes |
| Calculated Size | 25 bytes |
| Instructions    | 9        |

```
      00 01 02 03 04 05 06 07  08 09 0A 0B 0C 0D 0E 0F
      -- -- -- -- -- -- -- --  -- -- -- -- -- -- -- --
0DC0:                                   1E F0 FF FF 7F             .....
0DD0: 6F 70 2B 7E D0 0E 01 86  80 23 2B 7E D0 0E 01 87  op+~.....#+~....
0DE0: 80 23 21 00                                       .#!.            
```

## Opcodes

```
  0: 0x0DCB [0x1E] EventEntity looks at LocalPlayer and starts talking
  1: 0x0DD0 [0x6F] WAIT_FRAME_DELAY: Yield until WaitTime reaches zero
  2: 0x0DD1 [0x70] WAIT_ENTITY_RENDER_FLAG: Wait while EventEntity->Render.Flags3 bit 2 is set (cancel turn if not)
  3: 0x0DD2 [0x2B] Invincible Shield (ID: 17748094/0x010ED07E) [7205*]:
    → "Don't even tell me that you forgot your orders! I've met tunnel worms with better memories than you!\u007F1\u0000\u0007"
  4: 0x0DD9 [0x23] WAIT_FOR_DIALOG_INTERACTION
  5: 0x0DDA [0x2B] Invincible Shield (ID: 17748094/0x010ED07E) [7206*]:
    → "Now listen up, soldier!\u0007After meeting with the leaders of San d'Oria and Windurst, you are to deliver the correspondences I handed you to the Conflict Commanders Excenmille and Mhabi Molkot!\u0007And I don't want to see your pathetic face until you've completed your mission! Dismissed!!!\u007F1\u0000\u0007"
  6: 0x0DE1 [0x23] WAIT_FOR_DIALOG_INTERACTION
  7: 0x0DE2 [0x21] END_EVENT
  8: 0x0DE3 [0x00] END_REQSTACK()
```
