# Event 819

## Metadata

| Field           | Value    |
|-----------------|----------|
| Event Index     | 7/13     |
| Offset          | 0x0DE4   |
| Data Size       | 33 bytes |
| Calculated Size | 33 bytes |
| Instructions    | 11       |

```
      00 01 02 03 04 05 06 07  08 09 0A 0B 0C 0D 0E 0F
      -- -- -- -- -- -- -- --  -- -- -- -- -- -- -- --
0DE0:             1E F0 FF FF  7F 6F 70 2B 7E D0 0E 01      .....op+~...
0DF0: 88 80 23 2B 7E D0 0E 01  89 80 23 2B 7E D0 0E 01  ..#+~.....#+~...
0E00: 8A 80 23 21 00                                    ..#!.           
```

## Opcodes

```
  0: 0x0DE4 [0x1E] EventEntity looks at LocalPlayer and starts talking
  1: 0x0DE9 [0x6F] WAIT_FRAME_DELAY: Yield until WaitTime reaches zero
  2: 0x0DEA [0x70] WAIT_ENTITY_RENDER_FLAG: Wait while EventEntity->Render.Flags3 bit 2 is set (cancel turn if not)
  3: 0x0DEB [0x2B] Invincible Shield (ID: 17748094/0x010ED07E) [7211*]:
    → "Well done, soldier!\u0007I can tell by the look on your face that those two sissies in Windurst and San d'Oria weren't pleased with the letters I had you deliver. Well, that's too bad!\u007F1\u0000\u0007"
  4: 0x0DF2 [0x23] WAIT_FOR_DIALOG_INTERACTION
  5: 0x0DF3 [0x2B] Invincible Shield (ID: 17748094/0x010ED07E) [7212*]:
    → "If a leader cannot stay calm in a tense situation, he'll pay for it with his men's lives!\u0007Don't you forget that, soldier!\u007F1\u0000\u0007"
  6: 0x0DFA [0x23] WAIT_FOR_DIALOG_INTERACTION
  7: 0x0DFB [0x2B] Invincible Shield (ID: 17748094/0x010ED07E) [7213*]:
    → "Now make your way to the President's Office! Without our leader's permission, you are nothing more than a mangy dog in a uniform!\u0007Get moving!\u007F1\u0000\u0007"
  8: 0x0E02 [0x23] WAIT_FOR_DIALOG_INTERACTION
  9: 0x0E03 [0x21] END_EVENT
 10: 0x0E04 [0x00] END_REQSTACK()
```
