# Event 821

## Metadata

| Field           | Value    |
|-----------------|----------|
| Event Index     | 9/13     |
| Offset          | 0x1959   |
| Data Size       | 36 bytes |
| Calculated Size | 36 bytes |
| Instructions    | 13       |

```
      00 01 02 03 04 05 06 07  08 09 0A 0B 0C 0D 0E 0F
      -- -- -- -- -- -- -- --  -- -- -- -- -- -- -- --
1950:                             20 01 42 1E F0 FF FF            .B....
1960: 7F 6F 70 2B 7E D0 0E 01  4B 81 23 2B 7E D0 0E 01  .op+~...K.#+~...
1970: 4C 81 23 2B 7E D0 0E 01  4D 81 23 21 00           L.#+~...M.#!.   
```

## Opcodes

```
  0: 0x1959 [0x20] SET_CLI_EVENT_UC_FLAG: Lock player control
  1: 0x195B [0x42] SET_CLI_EVENT_CANCEL_DATA()
  2: 0x195C [0x1E] EventEntity looks at LocalPlayer and starts talking
  3: 0x1961 [0x6F] WAIT_FRAME_DELAY: Yield until WaitTime reaches zero
  4: 0x1962 [0x70] WAIT_ENTITY_RENDER_FLAG: Wait while EventEntity->Render.Flags3 bit 2 is set (cancel turn if not)
  5: 0x1963 [0x2B] Invincible Shield (ID: 17748094/0x010ED07E) [7300*]:
    → "What is this!? A letter from that punk, Excenmille!?\u007F1\u0000\u0007"
  6: 0x196A [0x23] WAIT_FOR_DIALOG_INTERACTION
  7: 0x196B [0x2B] Invincible Shield (ID: 17748094/0x010ED07E) [7301*]:
    → ".........\u0007If he thinks that I...\u007F1\u0000\u0007"
  8: 0x1972 [0x23] WAIT_FOR_DIALOG_INTERACTION
  9: 0x1973 [0x2B] Invincible Shield (ID: 17748094/0x010ED07E) [7302*]:
    → "You!\u0007You tell that good-for-nothing commander of yours that youth won't protect him from the back of my axe!\u0007Now get out of my face!!!\u007F1\u0000\u0007"
 10: 0x197A [0x23] WAIT_FOR_DIALOG_INTERACTION
 11: 0x197B [0x21] END_EVENT
 12: 0x197C [0x00] END_REQSTACK()
```
