# Event 823

## Metadata

| Field           | Value    |
|-----------------|----------|
| Event Index     | 11/13    |
| Offset          | 0x1989   |
| Data Size       | 36 bytes |
| Calculated Size | 36 bytes |
| Instructions    | 13       |

```
      00 01 02 03 04 05 06 07  08 09 0A 0B 0C 0D 0E 0F
      -- -- -- -- -- -- -- --  -- -- -- -- -- -- -- --
1980:                             20 01 42 1E F0 FF FF            .B....
1990: 7F 6F 70 2B 7E D0 0E 01  4E 81 23 2B 7E D0 0E 01  .op+~...N.#+~...
19A0: 4F 81 23 2B 7E D0 0E 01  50 81 23 21 00           O.#+~...P.#!.   
```

## Opcodes

```
  0: 0x1989 [0x20] SET_CLI_EVENT_UC_FLAG: Lock player control
  1: 0x198B [0x42] SET_CLI_EVENT_CANCEL_DATA()
  2: 0x198C [0x1E] EventEntity looks at LocalPlayer and starts talking
  3: 0x1991 [0x6F] WAIT_FRAME_DELAY: Yield until WaitTime reaches zero
  4: 0x1992 [0x70] WAIT_ENTITY_RENDER_FLAG: Wait while EventEntity->Render.Flags3 bit 2 is set (cancel turn if not)
  5: 0x1993 [0x2B] Invincible Shield (ID: 17748094/0x010ED07E) [7309*]:
    → "What is that you have there, maggot!?\u0007A shopping list from your mommy!?\u007F1\u0000\u0007"
  6: 0x199A [0x23] WAIT_FOR_DIALOG_INTERACTION
  7: 0x199B [0x2B] Invincible Shield (ID: 17748094/0x010ED07E) [7310*]:
    → ".........\u0007Th...vixen...sh...I...ki...\u007F1\u0000\u0007"
  8: 0x19A2 [0x23] WAIT_FOR_DIALOG_INTERACTION
  9: 0x19A3 [0x2B] Invincible Shield (ID: 17748094/0x010ED07E) [7311*]:
    → "You!\u0007You tell that worthless commander of yours that she can scream and she can cry, but I will show her no mercy on the battlefield!\u0007Now get out of my face!!!\u007F1\u0000\u0007"
 10: 0x19AA [0x23] WAIT_FOR_DIALOG_INTERACTION
 11: 0x19AB [0x21] END_EVENT
 12: 0x19AC [0x00] END_REQSTACK()
```
