# Event 825

## Metadata

| Field           | Value    |
|-----------------|----------|
| Event Index     | 13/13    |
| Offset          | 0x19FA   |
| Data Size       | 25 bytes |
| Calculated Size | 25 bytes |
| Instructions    | 9        |

```
      00 01 02 03 04 05 06 07  08 09 0A 0B 0C 0D 0E 0F
      -- -- -- -- -- -- -- --  -- -- -- -- -- -- -- --
19F0:                                1E F0 FF FF 7F 6F            .....o
1A00: 70 2B 7E D0 0E 01 54 81  23 2B 7E D0 0E 01 55 81  p+~...T.#+~...U.
1A10: 23 21 00                                          #!.             
```

## Opcodes

```
  0: 0x19FA [0x1E] EventEntity looks at LocalPlayer and starts talking
  1: 0x19FF [0x6F] WAIT_FRAME_DELAY: Yield until WaitTime reaches zero
  2: 0x1A00 [0x70] WAIT_ENTITY_RENDER_FLAG: Wait while EventEntity->Render.Flags3 bit 2 is set (cancel turn if not)
  3: 0x1A01 [0x2B] Invincible Shield (ID: 17748094/0x010ED07E) [7292*]:
    → "So this is the type of garbage the other two nations are enlisting!?\u0007It makes me sick to see San d'Oria and Windurst not take these exercises seriously!\u007F1\u0000\u0007"
  4: 0x1A08 [0x23] WAIT_FOR_DIALOG_INTERACTION
  5: 0x1A09 [0x2B] Invincible Shield (ID: 17748094/0x010ED07E) [7293*]:
    → "I wouldn't think that the president would give scum like you approval to participate in the Conflict, but your appointment has already been made. Now move it!\u007F1\u0000\u0007"
  6: 0x1A10 [0x23] WAIT_FOR_DIALOG_INTERACTION
  7: 0x1A11 [0x21] END_EVENT
  8: 0x1A12 [0x00] END_REQSTACK()
```
