# 17784833 - Rinzei

## Common Data

| Field            | Value                |
|------------------|----------------------|
| Zone             | Port Jeuno (ID: 246) |
| Block Size       | 1836 bytes           |
| Total Events     | 42                   |
| References Count | 87                   |

## List of Events

| Event ID                   | Entrypoint   |   Size |   Instructions |
|----------------------------|--------------|--------|----------------|
| [65535](#event-65535)      | 0x0000       |      1 |              1 |
| [56](#event-56)            | 0x0001       |     87 |             17 |
| [315](#event-315)          | 0x0058       |     52 |             12 |
| [324](#event-324)          | 0x008C       |     18 |              4 |
| [325](#event-325)          | 0x009E       |     18 |              4 |
| [327](#event-327)          | 0x00B0       |     18 |              4 |
| [331](#event-331)          | 0x00C2       |     18 |              4 |
| [332](#event-332)          | 0x00D4       |     18 |              4 |
| [333](#event-333)          | 0x00E6       |     18 |              4 |
| [334](#event-334)          | 0x00F8       |     18 |              4 |
| [335](#event-335)          | 0x010A       |     18 |              4 |
| [336](#event-336)          | 0x011C       |     18 |              4 |
| [337](#event-337)          | 0x012E       |     18 |              4 |
| [338](#event-338)          | 0x0140       |     18 |              4 |
| [340](#event-340)          | 0x0152       |     18 |              4 |
| [341](#event-341)          | 0x0164       |     18 |              4 |
| [342](#event-342)          | 0x0176       |     18 |              4 |
| [343](#event-343)          | 0x0188       |     18 |              4 |
| [344](#event-344)          | 0x019A       |     18 |              4 |
| [345](#event-345)          | 0x01AC       |     18 |              4 |
| [65535.1](#event-655351)   | 0x01BE       |     40 |              8 |
| [65535.2](#event-655352)   | 0x01E6       |     40 |              8 |
| [65535.3](#event-655353)   | 0x020E       |    139 |             22 |
| [65535.4](#event-655354)   | 0x0299       |     15 |              5 |
| [65535.5](#event-655355)   | 0x02A8       |     15 |              5 |
| [65535.6](#event-655356)   | 0x02B7       |     30 |              8 |
| [65535.7](#event-655357)   | 0x02D5       |     16 |              2 |
| [65535.8](#event-655358)   | 0x02E5       |     33 |              7 |
| [65535.9](#event-655359)   | 0x0306       |     33 |              7 |
| [65535.10](#event-6553510) | 0x0327       |     45 |             13 |
| [65535.11](#event-6553511) | 0x0354       |    139 |             22 |
| [65535.12](#event-6553512) | 0x03DF       |     15 |              5 |
| [65535.13](#event-6553513) | 0x03EE       |     15 |              5 |
| [65535.14](#event-6553514) | 0x03FD       |     15 |              5 |
| [65535.15](#event-6553515) | 0x040C       |     80 |             13 |
| [65535.16](#event-6553516) | 0x045C       |     15 |              5 |
| [65535.17](#event-6553517) | 0x046B       |     15 |              5 |
| [65535.18](#event-6553518) | 0x047A       |     15 |              5 |
| [65535.19](#event-6553519) | 0x0489       |     15 |              5 |
| [65535.20](#event-6553520) | 0x0498       |     15 |              5 |
| [65535.21](#event-6553521) | 0x04A7       |     53 |             10 |
| [65535.22](#event-6553522) | 0x04DC       |     58 |             11 |

## DAT References (imed_data)

|   Index | Hex Value   |   Dec Value |
|---------|-------------|-------------|
|       0 | 0x0041      |          65 |
|       1 | 0x1BAB      |        7083 |
|       2 | 0x1BAC      |        7084 |
|       3 | 0x1BAD      |        7085 |
|       4 | 0x1BAE      |        7086 |
|       5 | 0x1FAD      |        8109 |
|       6 | 0x001E      |          30 |
|       7 | 0x1FB4      |        8116 |
|       8 | 0x1FB5      |        8117 |
|       9 | 0x0015      |          21 |
|      10 | 0x005A      |          90 |
|      11 | 0x000D      |          13 |
|      12 | 0xFFFF43BD  |  4294919101 |
|      13 | 0x0E16      |        3606 |
|      14 | 0x0000      |           0 |
|      15 | 0x03CD      |         973 |
|      16 | 0x0034      |          52 |
|      17 | 0x0078      |         120 |
|      18 | 0x000B      |          11 |
|      19 | 0x5D1F      |       23839 |
|      20 | 0x1781      |        6017 |
|      21 | 0x02AF      |         687 |
|      22 | 0x0051      |          81 |
|      23 | 0x002D      |          45 |
|      24 | 0x0005      |           5 |
|      25 | 0x08AE      |        2222 |
|      26 | 0x004B      |          75 |
|      27 | 0x000F      |          15 |
|      28 | 0x0025      |          37 |
|      29 | 0xFFFEC504  |  4294886660 |
|      30 | 0xFFFFEAAC  |  4294961836 |
|      31 | 0x0027      |          39 |
|      32 | 0xFFFEC210  |  4294885904 |
|      33 | 0xFFFFEF62  |  4294963042 |
|      34 | 0x0029      |          41 |
|      35 | 0xFFFEBC38  |  4294884408 |
|      36 | 0xFFFFED5A  |  4294962522 |
|      37 | 0x0006      |           6 |
|      38 | 0x000A      |          10 |
|      39 | 0xFFFEAFBE  |  4294881214 |
|      40 | 0xFFFFFA5E  |  4294965854 |
|      41 | 0x00D8      |         216 |
|      42 | 0x000C      |          12 |
|      43 | 0xFFFE7646  |  4294866502 |
|      44 | 0xFFFFF1A1  |  4294963617 |
|      45 | 0x003C      |          60 |
|      46 | 0x0028      |          40 |
|      47 | 0xFFFF89FB  |  4294937083 |
|      48 | 0xFFFFFA22  |  4294965794 |
|      49 | 0xFFFE86B8  |  4294870712 |
|      50 | 0xFFFFDEB9  |  4294958777 |
|      51 | 0x0E02      |        3586 |
|      52 | 0x0168      |         360 |
|      53 | 0xFFFE880F  |  4294871055 |
|      54 | 0x22A8      |        8872 |
|      55 | 0x0200      |         512 |
|      56 | 0xFFFF32B5  |  4294914741 |
|      57 | 0x079E      |        1950 |
|      58 | 0xFFFF402C  |  4294918188 |
|      59 | 0x0935      |        2357 |
|      60 | 0xFFFF35EA  |  4294915562 |
|      61 | 0x0B3F      |        2879 |
|      62 | 0xFFFF3A12  |  4294916626 |
|      63 | 0x09AA      |        2474 |
|      64 | 0xFFFE9692  |  4294874770 |
|      65 | 0xFFFFF68E  |  4294964878 |
|      66 | 0x0026      |          38 |
|      67 | 0xFFFE7DEB  |  4294868459 |
|      68 | 0xFFFFF5B0  |  4294964656 |
|      69 | 0x1387      |        4999 |
|      70 | 0xFFFFFCE1  |  4294966497 |
|      71 | 0xFFFED394  |  4294890388 |
|      72 | 0xFFFFF65F  |  4294964831 |
|      73 | 0xFFFF38F4  |  4294916340 |
|      74 | 0xFFFFF821  |  4294965281 |
|      75 | 0xFFFE5E8F  |  4294860431 |
|      76 | 0x0899      |        2201 |
|      77 | 0xFFFF7085  |  4294930565 |
|      78 | 0xFFFFF716  |  4294965014 |
|      79 | 0xFFFF1D41  |  4294909249 |
|      80 | 0x24D9      |        9433 |
|      81 | 0xFFFF236E  |  4294910830 |
|      82 | 0x2722      |       10018 |
|      83 | 0x00D7      |         215 |
|      84 | 0xFFFF34A9  |  4294915241 |
|      85 | 0x0881      |        2177 |
|      86 | 0x0013      |          19 |

## String References

- **7083**: With the airships connecting Jeuno with the three nations, the flow of goods has become much more consistent. Nowadays, everything comes through Jeuno!
- **7084**: Of course, Jeuno is situated smack-dab in the middle of the three, so this town was destined to grow and prosper.
- **7085**: I think the airships are a subtle form of pressure on the other three nations. That way, Jeuno can maintain the current balance of power.
- **7086**: Nobody would want to upset the masters of such advanced technology, would they? Nope, can't blame Jeuno for keeping the secrets of airship-building to itself.
- **8109**: <Player>'s badge flashes brightly.
- **8116**: I've heard that the technology of Aht Urhgan has developed along quite different lines than that of Bastok.
- **8117**: Of course, airship technology has been our greatest achievement, but I've heard outlandish rumors about the Near East. One even says that they've created living creatures with their alchemy skills! Tales like that run chills down my spine.

## Events

### Event 65535

#### Metadata

| Field        | Value   |
|--------------|---------|
| Entrypoint   | 0x0000  |
| Data Size    | 1 bytes |
| Instructions | 1       |

```
      00 01 02 03 04 05 06 07  08 09 0A 0B 0C 0D 0E 0F
      -- -- -- -- -- -- -- --  -- -- -- -- -- -- -- --
0000: 00                                                .               
```

#### Opcodes

```
  0: 0x0000 [0x00] END_REQSTACK()
```

### Event 56

#### Metadata

| Field        | Value    |
|--------------|----------|
| Entrypoint   | 0x0001   |
| Data Size    | 87 bytes |
| Instructions | 17       |

```
      00 01 02 03 04 05 06 07  08 09 0A 0B 0C 0D 0E 0F
      -- -- -- -- -- -- -- --  -- -- -- -- -- -- -- --
0000:    1E F0 FF FF 7F 6F 76  F8 FF FF 7F 5B 00 80 F8   .....ov....[...
0010: FF FF 7F F8 FF FF 7F 74  6C 6B 31 1D 01 80 23 1D  .......tlk1...#.
0020: 02 80 23 5B 00 80 F8 FF  FF 7F F8 FF FF 7F 74 68  ..#[..........th
0030: 6B 31 1D 03 80 23 1D 04  80 23 5B 00 80 F8 FF FF  k1...#...#[.....
0040: 7F F8 FF FF 7F 74 68 6B  32 53 F8 FF FF 7F F8 FF  .....thk2S......
0050: FF 7F 74 68 6B 32 21 00                           ..thk2!.        
```

#### Opcodes

```
  0: 0x0001 [0x1E] EventEntity looks at LocalPlayer and starts talking
  1: 0x0006 [0x6F] WAIT_FRAME_DELAY: Yield until WaitTime reaches zero
  2: 0x0007 [0x76] CHECK_ENTITY_RENDER_FLAGS: Wait until EventEntity Render.Flags0 and Render.Flags3 conditions are met
  3: 0x000C [0x5B] LOAD_EXT_SCHEDULER: Load scheduler "tlk1" with entities [EventEntity, EventEntity], work=65*
  4: 0x001B [0x1D] PRINT_EVENT_MESSAGE(message_id=7083*)
    → "With the airships connecting Jeuno with the three nations, the flow of goods has become much more consistent. Nowadays, everything comes through Jeuno!"
  5: 0x001E [0x23] WAIT_FOR_DIALOG_INTERACTION
  6: 0x001F [0x1D] PRINT_EVENT_MESSAGE(message_id=7084*)
    → "Of course, Jeuno is situated smack-dab in the middle of the three, so this town was destined to grow and prosper."
  7: 0x0022 [0x23] WAIT_FOR_DIALOG_INTERACTION
  8: 0x0023 [0x5B] LOAD_EXT_SCHEDULER: Load scheduler "thk1" with entities [EventEntity, EventEntity], work=65*
  9: 0x0032 [0x1D] PRINT_EVENT_MESSAGE(message_id=7085*)
    → "I think the airships are a subtle form of pressure on the other three nations. That way, Jeuno can maintain the current balance of power."
 10: 0x0035 [0x23] WAIT_FOR_DIALOG_INTERACTION
 11: 0x0036 [0x1D] PRINT_EVENT_MESSAGE(message_id=7086*)
    → "Nobody would want to upset the masters of such advanced technology, would they? Nope, can't blame Jeuno for keeping the secrets of airship-building to itself."
 12: 0x0039 [0x23] WAIT_FOR_DIALOG_INTERACTION
 13: 0x003A [0x5B] LOAD_EXT_SCHEDULER: Load scheduler "thk2" with entities [EventEntity, EventEntity], work=65*
 14: 0x0049 [0x53] WAIT_SCHEDULER_TASK: Wait for scheduler "thk2" with entities [EventEntity, EventEntity]
 15: 0x0056 [0x21] END_EVENT
 16: 0x0057 [0x00] END_REQSTACK()
```

### Event 315

#### Metadata

| Field        | Value    |
|--------------|----------|
| Entrypoint   | 0x0058   |
| Data Size    | 52 bytes |
| Instructions | 12       |

```
      00 01 02 03 04 05 06 07  08 09 0A 0B 0C 0D 0E 0F
      -- -- -- -- -- -- -- --  -- -- -- -- -- -- -- --
0050:                          42 48 05 80 1E F0 FF FF          BH......
0060: 7F 1C 06 80 5B 00 80 F8  FF FF 7F F8 FF FF 7F 74  ....[..........t
0070: 6C 6B 31 1D 07 80 23 1D  08 80 23 5B 00 80 F8 FF  lk1...#...#[....
0080: FF 7F F8 FF FF 7F 74 6C  6B 32 21 00              ......tlk2!.    
```

#### Opcodes

```
  0: 0x0058 [0x42] SET_CLI_EVENT_CANCEL_DATA()
  1: 0x0059 [0x48] [System] [8109*]:
    → "<Player>'s badge flashes brightly."
  2: 0x005C [0x1E] EventEntity looks at LocalPlayer and starts talking
  3: 0x0061 [0x1C] WAIT(30* ticks)
  4: 0x0064 [0x5B] LOAD_EXT_SCHEDULER: Load scheduler "tlk1" with entities [EventEntity, EventEntity], work=65*
  5: 0x0073 [0x1D] PRINT_EVENT_MESSAGE(message_id=8116*)
    → "I've heard that the technology of Aht Urhgan has developed along quite different lines than that of Bastok."
  6: 0x0076 [0x23] WAIT_FOR_DIALOG_INTERACTION
  7: 0x0077 [0x1D] PRINT_EVENT_MESSAGE(message_id=8117*)
    → "Of course, airship technology has been our greatest achievement, but I've heard outlandish rumors about the Near East. One even says that they've created living creatures with their alchemy skills! Tales like that run chills down my spine."
  8: 0x007A [0x23] WAIT_FOR_DIALOG_INTERACTION
  9: 0x007B [0x5B] LOAD_EXT_SCHEDULER: Load scheduler "tlk2" with entities [EventEntity, EventEntity], work=65*
 10: 0x008A [0x21] END_EVENT
 11: 0x008B [0x00] END_REQSTACK()
```

### Event 324

#### Metadata

| Field        | Value    |
|--------------|----------|
| Entrypoint   | 0x008C   |
| Data Size    | 18 bytes |
| Instructions | 4        |

```
      00 01 02 03 04 05 06 07  08 09 0A 0B 0C 0D 0E 0F
      -- -- -- -- -- -- -- --  -- -- -- -- -- -- -- --
0080:                                      92 01 F8 FF              ....
0090: FF 7F 94 01 F8 FF FF 7F  80 F8 FF FF 7F 00        ..............  
```

#### Opcodes

```
  0: 0x008C [0x92] EventEntity->Render.Flags3 ^= 0x01
  1: 0x0092 [0x94] EventEntity->Render.Flags3 ^= 0x01
  2: 0x0098 [0x80] LOAD_WAIT(entity=EventEntity)
  3: 0x009D [0x00] END_REQSTACK()
```

### Event 325

#### Metadata

| Field        | Value    |
|--------------|----------|
| Entrypoint   | 0x009E   |
| Data Size    | 18 bytes |
| Instructions | 4        |

```
      00 01 02 03 04 05 06 07  08 09 0A 0B 0C 0D 0E 0F
      -- -- -- -- -- -- -- --  -- -- -- -- -- -- -- --
0090:                                            92 01                ..
00A0: F8 FF FF 7F 94 01 F8 FF  FF 7F 80 F8 FF FF 7F 00  ................
```

#### Opcodes

```
  0: 0x009E [0x92] EventEntity->Render.Flags3 ^= 0x01
  1: 0x00A4 [0x94] EventEntity->Render.Flags3 ^= 0x01
  2: 0x00AA [0x80] LOAD_WAIT(entity=EventEntity)
  3: 0x00AF [0x00] END_REQSTACK()
```

### Event 327

#### Metadata

| Field        | Value    |
|--------------|----------|
| Entrypoint   | 0x00B0   |
| Data Size    | 18 bytes |
| Instructions | 4        |

```
      00 01 02 03 04 05 06 07  08 09 0A 0B 0C 0D 0E 0F
      -- -- -- -- -- -- -- --  -- -- -- -- -- -- -- --
00B0: 92 01 F8 FF FF 7F 94 01  F8 FF FF 7F 80 F8 FF FF  ................
00C0: 7F 00                                             ..              
```

#### Opcodes

```
  0: 0x00B0 [0x92] EventEntity->Render.Flags3 ^= 0x01
  1: 0x00B6 [0x94] EventEntity->Render.Flags3 ^= 0x01
  2: 0x00BC [0x80] LOAD_WAIT(entity=EventEntity)
  3: 0x00C1 [0x00] END_REQSTACK()
```

### Event 331

#### Metadata

| Field        | Value    |
|--------------|----------|
| Entrypoint   | 0x00C2   |
| Data Size    | 18 bytes |
| Instructions | 4        |

```
      00 01 02 03 04 05 06 07  08 09 0A 0B 0C 0D 0E 0F
      -- -- -- -- -- -- -- --  -- -- -- -- -- -- -- --
00C0:       92 01 F8 FF FF 7F  94 01 F8 FF FF 7F 80 F8    ..............
00D0: FF FF 7F 00                                       ....            
```

#### Opcodes

```
  0: 0x00C2 [0x92] EventEntity->Render.Flags3 ^= 0x01
  1: 0x00C8 [0x94] EventEntity->Render.Flags3 ^= 0x01
  2: 0x00CE [0x80] LOAD_WAIT(entity=EventEntity)
  3: 0x00D3 [0x00] END_REQSTACK()
```

### Event 332

#### Metadata

| Field        | Value    |
|--------------|----------|
| Entrypoint   | 0x00D4   |
| Data Size    | 18 bytes |
| Instructions | 4        |

```
      00 01 02 03 04 05 06 07  08 09 0A 0B 0C 0D 0E 0F
      -- -- -- -- -- -- -- --  -- -- -- -- -- -- -- --
00D0:             92 01 F8 FF  FF 7F 94 01 F8 FF FF 7F      ............
00E0: 80 F8 FF FF 7F 00                                 ......          
```

#### Opcodes

```
  0: 0x00D4 [0x92] EventEntity->Render.Flags3 ^= 0x01
  1: 0x00DA [0x94] EventEntity->Render.Flags3 ^= 0x01
  2: 0x00E0 [0x80] LOAD_WAIT(entity=EventEntity)
  3: 0x00E5 [0x00] END_REQSTACK()
```

### Event 333

#### Metadata

| Field        | Value    |
|--------------|----------|
| Entrypoint   | 0x00E6   |
| Data Size    | 18 bytes |
| Instructions | 4        |

```
      00 01 02 03 04 05 06 07  08 09 0A 0B 0C 0D 0E 0F
      -- -- -- -- -- -- -- --  -- -- -- -- -- -- -- --
00E0:                   92 01  F8 FF FF 7F 94 01 F8 FF        ..........
00F0: FF 7F 80 F8 FF FF 7F 00                           ........        
```

#### Opcodes

```
  0: 0x00E6 [0x92] EventEntity->Render.Flags3 ^= 0x01
  1: 0x00EC [0x94] EventEntity->Render.Flags3 ^= 0x01
  2: 0x00F2 [0x80] LOAD_WAIT(entity=EventEntity)
  3: 0x00F7 [0x00] END_REQSTACK()
```

### Event 334

#### Metadata

| Field        | Value    |
|--------------|----------|
| Entrypoint   | 0x00F8   |
| Data Size    | 18 bytes |
| Instructions | 4        |

```
      00 01 02 03 04 05 06 07  08 09 0A 0B 0C 0D 0E 0F
      -- -- -- -- -- -- -- --  -- -- -- -- -- -- -- --
00F0:                          92 01 F8 FF FF 7F 94 01          ........
0100: F8 FF FF 7F 80 F8 FF FF  7F 00                    ..........      
```

#### Opcodes

```
  0: 0x00F8 [0x92] EventEntity->Render.Flags3 ^= 0x01
  1: 0x00FE [0x94] EventEntity->Render.Flags3 ^= 0x01
  2: 0x0104 [0x80] LOAD_WAIT(entity=EventEntity)
  3: 0x0109 [0x00] END_REQSTACK()
```

### Event 335

#### Metadata

| Field        | Value    |
|--------------|----------|
| Entrypoint   | 0x010A   |
| Data Size    | 18 bytes |
| Instructions | 4        |

```
      00 01 02 03 04 05 06 07  08 09 0A 0B 0C 0D 0E 0F
      -- -- -- -- -- -- -- --  -- -- -- -- -- -- -- --
0100:                                92 01 F8 FF FF 7F            ......
0110: 94 01 F8 FF FF 7F 80 F8  FF FF 7F 00              ............    
```

#### Opcodes

```
  0: 0x010A [0x92] EventEntity->Render.Flags3 ^= 0x01
  1: 0x0110 [0x94] EventEntity->Render.Flags3 ^= 0x01
  2: 0x0116 [0x80] LOAD_WAIT(entity=EventEntity)
  3: 0x011B [0x00] END_REQSTACK()
```

### Event 336

#### Metadata

| Field        | Value    |
|--------------|----------|
| Entrypoint   | 0x011C   |
| Data Size    | 18 bytes |
| Instructions | 4        |

```
      00 01 02 03 04 05 06 07  08 09 0A 0B 0C 0D 0E 0F
      -- -- -- -- -- -- -- --  -- -- -- -- -- -- -- --
0110:                                      92 01 F8 FF              ....
0120: FF 7F 94 01 F8 FF FF 7F  80 F8 FF FF 7F 00        ..............  
```

#### Opcodes

```
  0: 0x011C [0x92] EventEntity->Render.Flags3 ^= 0x01
  1: 0x0122 [0x94] EventEntity->Render.Flags3 ^= 0x01
  2: 0x0128 [0x80] LOAD_WAIT(entity=EventEntity)
  3: 0x012D [0x00] END_REQSTACK()
```

### Event 337

#### Metadata

| Field        | Value    |
|--------------|----------|
| Entrypoint   | 0x012E   |
| Data Size    | 18 bytes |
| Instructions | 4        |

```
      00 01 02 03 04 05 06 07  08 09 0A 0B 0C 0D 0E 0F
      -- -- -- -- -- -- -- --  -- -- -- -- -- -- -- --
0120:                                            92 01                ..
0130: F8 FF FF 7F 94 01 F8 FF  FF 7F 80 F8 FF FF 7F 00  ................
```

#### Opcodes

```
  0: 0x012E [0x92] EventEntity->Render.Flags3 ^= 0x01
  1: 0x0134 [0x94] EventEntity->Render.Flags3 ^= 0x01
  2: 0x013A [0x80] LOAD_WAIT(entity=EventEntity)
  3: 0x013F [0x00] END_REQSTACK()
```

### Event 338

#### Metadata

| Field        | Value    |
|--------------|----------|
| Entrypoint   | 0x0140   |
| Data Size    | 18 bytes |
| Instructions | 4        |

```
      00 01 02 03 04 05 06 07  08 09 0A 0B 0C 0D 0E 0F
      -- -- -- -- -- -- -- --  -- -- -- -- -- -- -- --
0140: 92 01 F8 FF FF 7F 94 01  F8 FF FF 7F 80 F8 FF FF  ................
0150: 7F 00                                             ..              
```

#### Opcodes

```
  0: 0x0140 [0x92] EventEntity->Render.Flags3 ^= 0x01
  1: 0x0146 [0x94] EventEntity->Render.Flags3 ^= 0x01
  2: 0x014C [0x80] LOAD_WAIT(entity=EventEntity)
  3: 0x0151 [0x00] END_REQSTACK()
```

### Event 340

#### Metadata

| Field        | Value    |
|--------------|----------|
| Entrypoint   | 0x0152   |
| Data Size    | 18 bytes |
| Instructions | 4        |

```
      00 01 02 03 04 05 06 07  08 09 0A 0B 0C 0D 0E 0F
      -- -- -- -- -- -- -- --  -- -- -- -- -- -- -- --
0150:       92 01 F8 FF FF 7F  94 01 F8 FF FF 7F 80 F8    ..............
0160: FF FF 7F 00                                       ....            
```

#### Opcodes

```
  0: 0x0152 [0x92] EventEntity->Render.Flags3 ^= 0x01
  1: 0x0158 [0x94] EventEntity->Render.Flags3 ^= 0x01
  2: 0x015E [0x80] LOAD_WAIT(entity=EventEntity)
  3: 0x0163 [0x00] END_REQSTACK()
```

### Event 341

#### Metadata

| Field        | Value    |
|--------------|----------|
| Entrypoint   | 0x0164   |
| Data Size    | 18 bytes |
| Instructions | 4        |

```
      00 01 02 03 04 05 06 07  08 09 0A 0B 0C 0D 0E 0F
      -- -- -- -- -- -- -- --  -- -- -- -- -- -- -- --
0160:             92 01 F8 FF  FF 7F 94 01 F8 FF FF 7F      ............
0170: 80 F8 FF FF 7F 00                                 ......          
```

#### Opcodes

```
  0: 0x0164 [0x92] EventEntity->Render.Flags3 ^= 0x01
  1: 0x016A [0x94] EventEntity->Render.Flags3 ^= 0x01
  2: 0x0170 [0x80] LOAD_WAIT(entity=EventEntity)
  3: 0x0175 [0x00] END_REQSTACK()
```

### Event 342

#### Metadata

| Field        | Value    |
|--------------|----------|
| Entrypoint   | 0x0176   |
| Data Size    | 18 bytes |
| Instructions | 4        |

```
      00 01 02 03 04 05 06 07  08 09 0A 0B 0C 0D 0E 0F
      -- -- -- -- -- -- -- --  -- -- -- -- -- -- -- --
0170:                   92 01  F8 FF FF 7F 94 01 F8 FF        ..........
0180: FF 7F 80 F8 FF FF 7F 00                           ........        
```

#### Opcodes

```
  0: 0x0176 [0x92] EventEntity->Render.Flags3 ^= 0x01
  1: 0x017C [0x94] EventEntity->Render.Flags3 ^= 0x01
  2: 0x0182 [0x80] LOAD_WAIT(entity=EventEntity)
  3: 0x0187 [0x00] END_REQSTACK()
```

### Event 343

#### Metadata

| Field        | Value    |
|--------------|----------|
| Entrypoint   | 0x0188   |
| Data Size    | 18 bytes |
| Instructions | 4        |

```
      00 01 02 03 04 05 06 07  08 09 0A 0B 0C 0D 0E 0F
      -- -- -- -- -- -- -- --  -- -- -- -- -- -- -- --
0180:                          92 01 F8 FF FF 7F 94 01          ........
0190: F8 FF FF 7F 80 F8 FF FF  7F 00                    ..........      
```

#### Opcodes

```
  0: 0x0188 [0x92] EventEntity->Render.Flags3 ^= 0x01
  1: 0x018E [0x94] EventEntity->Render.Flags3 ^= 0x01
  2: 0x0194 [0x80] LOAD_WAIT(entity=EventEntity)
  3: 0x0199 [0x00] END_REQSTACK()
```

### Event 344

#### Metadata

| Field        | Value    |
|--------------|----------|
| Entrypoint   | 0x019A   |
| Data Size    | 18 bytes |
| Instructions | 4        |

```
      00 01 02 03 04 05 06 07  08 09 0A 0B 0C 0D 0E 0F
      -- -- -- -- -- -- -- --  -- -- -- -- -- -- -- --
0190:                                92 01 F8 FF FF 7F            ......
01A0: 94 01 F8 FF FF 7F 80 F8  FF FF 7F 00              ............    
```

#### Opcodes

```
  0: 0x019A [0x92] EventEntity->Render.Flags3 ^= 0x01
  1: 0x01A0 [0x94] EventEntity->Render.Flags3 ^= 0x01
  2: 0x01A6 [0x80] LOAD_WAIT(entity=EventEntity)
  3: 0x01AB [0x00] END_REQSTACK()
```

### Event 345

#### Metadata

| Field        | Value    |
|--------------|----------|
| Entrypoint   | 0x01AC   |
| Data Size    | 18 bytes |
| Instructions | 4        |

```
      00 01 02 03 04 05 06 07  08 09 0A 0B 0C 0D 0E 0F
      -- -- -- -- -- -- -- --  -- -- -- -- -- -- -- --
01A0:                                      92 01 F8 FF              ....
01B0: FF 7F 94 01 F8 FF FF 7F  80 F8 FF FF 7F 00        ..............  
```

#### Opcodes

```
  0: 0x01AC [0x92] EventEntity->Render.Flags3 ^= 0x01
  1: 0x01B2 [0x94] EventEntity->Render.Flags3 ^= 0x01
  2: 0x01B8 [0x80] LOAD_WAIT(entity=EventEntity)
  3: 0x01BD [0x00] END_REQSTACK()
```

### Event 65535.1

#### Metadata

| Field        | Value    |
|--------------|----------|
| Entrypoint   | 0x01BE   |
| Data Size    | 40 bytes |
| Instructions | 8        |

```
      00 01 02 03 04 05 06 07  08 09 0A 0B 0C 0D 0E 0F
      -- -- -- -- -- -- -- --  -- -- -- -- -- -- -- --
01B0:                                            66 09                f.
01C0: 80 28 60 0F 01 28 60 0F  01 64 69 73 30 1C 0A 80  .(`..(`..dis0...
01D0: 32 0B 80 1F 00 0C 80 0D  80 0E 80 1F 01 6F 4B F8  2............oK.
01E0: FF FF 7F 0F 80 00                                 ......          
```

#### Opcodes

```
  0: 0x01BE [0x66] LOAD_EXT_SCHEDULER_MAIN: Load scheduler "dis0" with entities [Ramicharaux (ID: 17784872/0x010F6028), Ramicharaux (ID: 17784872/0x010F6028)], work=21*
  1: 0x01CD [0x1C] WAIT(90* ticks)
  2: 0x01D0 [0x32] ExtData[1]->MainSpeed = 13* * 0.1
  3: 0x01D3 [0x1F] MOVE_ENTITY: EventEntity moves to X=-48.195*, Z=3.606*, Y=0.000*
  4: 0x01DB [0x1F] MOVE_ENTITY: Update entity position (mode=1)
  5: 0x01DD [0x6F] WAIT_FRAME_DELAY: Yield until WaitTime reaches zero
  6: 0x01DE [0x4B] UPDATE_ENTITY_YAW(entity=EventEntity, yaw=5.3°*)
  7: 0x01E5 [0x00] END_REQSTACK()
```

### Event 65535.2

#### Metadata

| Field        | Value    |
|--------------|----------|
| Entrypoint   | 0x01E6   |
| Data Size    | 40 bytes |
| Instructions | 8        |

```
      00 01 02 03 04 05 06 07  08 09 0A 0B 0C 0D 0E 0F
      -- -- -- -- -- -- -- --  -- -- -- -- -- -- -- --
01E0:                   66 10  80 43 60 0F 01 43 60 0F        f..C`..C`.
01F0: 01 64 69 73 30 1C 11 80  32 12 80 1F 00 13 80 14  .dis0...2.......
0200: 80 0E 80 1F 01 6F 4B F8  FF FF 7F 15 80 00        .....oK.......  
```

#### Opcodes

```
  0: 0x01E6 [0x66] LOAD_EXT_SCHEDULER_MAIN: Load scheduler "dis0" with entities [Khumo Daramasteh (ID: 17784899/0x010F6043), Khumo Daramasteh (ID: 17784899/0x010F6043)], work=52*
  1: 0x01F5 [0x1C] WAIT(120* ticks)
  2: 0x01F8 [0x32] ExtData[1]->MainSpeed = 11* * 0.1
  3: 0x01FB [0x1F] MOVE_ENTITY: EventEntity moves to X=23.839*, Z=6.017*, Y=0.000*
  4: 0x0203 [0x1F] MOVE_ENTITY: Update entity position (mode=1)
  5: 0x0205 [0x6F] WAIT_FRAME_DELAY: Yield until WaitTime reaches zero
  6: 0x0206 [0x4B] UPDATE_ENTITY_YAW(entity=EventEntity, yaw=3.8°*)
  7: 0x020D [0x00] END_REQSTACK()
```

### Event 65535.3

#### Metadata

| Field        | Value     |
|--------------|-----------|
| Entrypoint   | 0x020E    |
| Data Size    | 139 bytes |
| Instructions | 22        |

```
      00 01 02 03 04 05 06 07  08 09 0A 0B 0C 0D 0E 0F
      -- -- -- -- -- -- -- --  -- -- -- -- -- -- -- --
0200:                                            5B 16                [.
0210: 80 06 60 0F 01 06 60 0F  01 68 61 69 30 1C 17 80  ..`...`..hai0...
0220: 4A 04 60 0F 01 06 60 0F  01 1C 18 80 79 00 05 60  J.`...`.....y..`
0230: 0F 01 06 60 0F 01 1C 06  80 4B 06 60 0F 01 19 80  ...`.....K.`....
0240: 6F 76 06 60 0F 01 5B 16  80 06 60 0F 01 06 60 0F  ov.`..[...`...`.
0250: 01 61 77 77 30 1C 17 80  5B 1A 80 04 60 0F 01 04  .aww0...[...`...
0260: 60 0F 01 74 68 6B 31 1C  1B 80 5B 0A 80 05 60 0F  `..thk1...[...`.
0270: 01 05 60 0F 01 74 6C 6B  30 1C 0A 80 27 10 04 60  ..`..tlk0...'..`
0280: 0F 01 21 27 10 05 60 0F  01 20 32 1C 80 1F 00 1D  ..!'..`.. 2.....
0290: 80 1E 80 0E 80 1F 01 6F  00                       .......o.       
```

#### Opcodes

```
  0: 0x020E [0x5B] LOAD_EXT_SCHEDULER: Load scheduler "hai0" with entities [Jaha Amariyo (ID: 17784838/0x010F6006), Jaha Amariyo (ID: 17784838/0x010F6006)], work=81*
  1: 0x021D [0x1C] WAIT(45* ticks)
  2: 0x0220 [0x4A] Karl (ID: 17784836/0x010F6004) looks at Jaha Amariyo (ID: 17784838/0x010F6006)
  3: 0x0229 [0x1C] WAIT(5* ticks)
  4: 0x022C [0x79] Buntz (ID: 17784837/0x010F6005) looks at Jaha Amariyo (ID: 17784838/0x010F6006) (Basic look)
  5: 0x0236 [0x1C] WAIT(30* ticks)
  6: 0x0239 [0x4B] UPDATE_ENTITY_YAW(entity=Jaha Amariyo (ID: 17784838/0x010F6006), yaw=12.2°*)
  7: 0x0240 [0x6F] WAIT_FRAME_DELAY: Yield until WaitTime reaches zero
  8: 0x0241 [0x76] CHECK_ENTITY_RENDER_FLAGS: Wait until Jaha Amariyo (ID: 17784838/0x010F6006) Render.Flags0 and Render.Flags3 conditions are met
  9: 0x0246 [0x5B] LOAD_EXT_SCHEDULER: Load scheduler "aww0" with entities [Jaha Amariyo (ID: 17784838/0x010F6006), Jaha Amariyo (ID: 17784838/0x010F6006)], work=81*
 10: 0x0255 [0x1C] WAIT(45* ticks)
 11: 0x0258 [0x5B] LOAD_EXT_SCHEDULER: Load scheduler "thk1" with entities [Karl (ID: 17784836/0x010F6004), Karl (ID: 17784836/0x010F6004)], work=75*
 12: 0x0267 [0x1C] WAIT(15* ticks)
 13: 0x026A [0x5B] LOAD_EXT_SCHEDULER: Load scheduler "tlk0" with entities [Buntz (ID: 17784837/0x010F6005), Buntz (ID: 17784837/0x010F6005)], work=90*
 14: 0x0279 [0x1C] WAIT(90* ticks)
 15: 0x027C [0x27] REQ_SET(priority=0x10, entity_id=Karl (ID: 17784836/0x010F6004), tag_num=0x21)
 16: 0x0283 [0x27] REQ_SET(priority=0x10, entity_id=Buntz (ID: 17784837/0x010F6005), tag_num=0x20)
 17: 0x028A [0x32] ExtData[1]->MainSpeed = 37* * 0.1
 18: 0x028D [0x1F] MOVE_ENTITY: EventEntity moves to X=-80.636*, Z=-5.460*, Y=0.000*
 19: 0x0295 [0x1F] MOVE_ENTITY: Update entity position (mode=1)
 20: 0x0297 [0x6F] WAIT_FRAME_DELAY: Yield until WaitTime reaches zero
 21: 0x0298 [0x00] END_REQSTACK()
```

### Event 65535.4

#### Metadata

| Field        | Value    |
|--------------|----------|
| Entrypoint   | 0x0299   |
| Data Size    | 15 bytes |
| Instructions | 5        |

```
      00 01 02 03 04 05 06 07  08 09 0A 0B 0C 0D 0E 0F
      -- -- -- -- -- -- -- --  -- -- -- -- -- -- -- --
0290:                             32 1F 80 1F 00 20 80           2.... .
02A0: 21 80 0E 80 1F 01 6F 00                           !.....o.        
```

#### Opcodes

```
  0: 0x0299 [0x32] ExtData[1]->MainSpeed = 39* * 0.1
  1: 0x029C [0x1F] MOVE_ENTITY: EventEntity moves to X=-81.392*, Z=-4.254*, Y=0.000*
  2: 0x02A4 [0x1F] MOVE_ENTITY: Update entity position (mode=1)
  3: 0x02A6 [0x6F] WAIT_FRAME_DELAY: Yield until WaitTime reaches zero
  4: 0x02A7 [0x00] END_REQSTACK()
```

### Event 65535.5

#### Metadata

| Field        | Value    |
|--------------|----------|
| Entrypoint   | 0x02A8   |
| Data Size    | 15 bytes |
| Instructions | 5        |

```
      00 01 02 03 04 05 06 07  08 09 0A 0B 0C 0D 0E 0F
      -- -- -- -- -- -- -- --  -- -- -- -- -- -- -- --
02A0:                          32 22 80 1F 00 23 80 24          2"...#.$
02B0: 80 0E 80 1F 01 6F 00                              .....o.         
```

#### Opcodes

```
  0: 0x02A8 [0x32] ExtData[1]->MainSpeed = 41* * 0.1
  1: 0x02AB [0x1F] MOVE_ENTITY: EventEntity moves to X=-82.888*, Z=-4.774*, Y=0.000*
  2: 0x02B3 [0x1F] MOVE_ENTITY: Update entity position (mode=1)
  3: 0x02B5 [0x6F] WAIT_FRAME_DELAY: Yield until WaitTime reaches zero
  4: 0x02B6 [0x00] END_REQSTACK()
```

### Event 65535.6

#### Metadata

| Field        | Value    |
|--------------|----------|
| Entrypoint   | 0x02B7   |
| Data Size    | 30 bytes |
| Instructions | 8        |

```
      00 01 02 03 04 05 06 07  08 09 0A 0B 0C 0D 0E 0F
      -- -- -- -- -- -- -- --  -- -- -- -- -- -- -- --
02B0:                      6E  F8 FF FF 7F 25 80 99 F8         n....%...
02C0: FF FF 7F 1C 11 80 32 26  80 1F 00 27 80 28 80 0E  ......2&...'.(..
02D0: 80 1F 01 6F 00                                    ...o.           
```

#### Opcodes

```
  0: 0x02B7 [0x6E] EventEntity uses emote 6*
  1: 0x02BE [0x99] Wait for EventEntity animation to complete
  2: 0x02C3 [0x1C] WAIT(120* ticks)
  3: 0x02C6 [0x32] ExtData[1]->MainSpeed = 10* * 0.1
  4: 0x02C9 [0x1F] MOVE_ENTITY: EventEntity moves to X=-86.082*, Z=-1.442*, Y=0.000*
  5: 0x02D1 [0x1F] MOVE_ENTITY: Update entity position (mode=1)
  6: 0x02D3 [0x6F] WAIT_FRAME_DELAY: Yield until WaitTime reaches zero
  7: 0x02D4 [0x00] END_REQSTACK()
```

### Event 65535.7

#### Metadata

| Field        | Value    |
|--------------|----------|
| Entrypoint   | 0x02D5   |
| Data Size    | 16 bytes |
| Instructions | 2        |

```
      00 01 02 03 04 05 06 07  08 09 0A 0B 0C 0D 0E 0F
      -- -- -- -- -- -- -- --  -- -- -- -- -- -- -- --
02D0:                5B 29 80  86 60 0F 01 86 60 0F 01       [)..`...`..
02E0: 66 75 6D 30 00                                    fum0.           
```

#### Opcodes

```
  0: 0x02D5 [0x5B] LOAD_EXT_SCHEDULER: Load scheduler "fum0" with entities [Squintrox Dryeyes (ID: 17784966/0x010F6086), Squintrox Dryeyes (ID: 17784966/0x010F6086)], work=216*
  1: 0x02E4 [0x00] END_REQSTACK()
```

### Event 65535.8

#### Metadata

| Field        | Value    |
|--------------|----------|
| Entrypoint   | 0x02E5   |
| Data Size    | 33 bytes |
| Instructions | 7        |

```
      00 01 02 03 04 05 06 07  08 09 0A 0B 0C 0D 0E 0F
      -- -- -- -- -- -- -- --  -- -- -- -- -- -- -- --
02E0:                32 2A 80  1F 00 2B 80 2C 80 0E 80       2*...+.,...
02F0: 1F 01 6F 1C 1B 80 66 06  80 42 60 0F 01 42 60 0F  ..o...f..B`..B`.
0300: 01 74 68 6B 31 00                                 .thk1.          
```

#### Opcodes

```
  0: 0x02E5 [0x32] ExtData[1]->MainSpeed = 12* * 0.1
  1: 0x02E8 [0x1F] MOVE_ENTITY: EventEntity moves to X=-100.794*, Z=-3.679*, Y=0.000*
  2: 0x02F0 [0x1F] MOVE_ENTITY: Update entity position (mode=1)
  3: 0x02F2 [0x6F] WAIT_FRAME_DELAY: Yield until WaitTime reaches zero
  4: 0x02F3 [0x1C] WAIT(15* ticks)
  5: 0x02F6 [0x66] LOAD_EXT_SCHEDULER_MAIN: Load scheduler "thk1" with entities [Naurmaire (ID: 17784898/0x010F6042), Naurmaire (ID: 17784898/0x010F6042)], work=30*
  6: 0x0305 [0x00] END_REQSTACK()
```

### Event 65535.9

#### Metadata

| Field        | Value    |
|--------------|----------|
| Entrypoint   | 0x0306   |
| Data Size    | 33 bytes |
| Instructions | 7        |

```
      00 01 02 03 04 05 06 07  08 09 0A 0B 0C 0D 0E 0F
      -- -- -- -- -- -- -- --  -- -- -- -- -- -- -- --
0300:                   66 26  80 3F 60 0F 01 3F 60 0F        f&.?`..?`.
0310: 01 74 68 6B 32 1C 2D 80  32 2E 80 1F 00 2F 80 30  .thk2.-.2..../.0
0320: 80 0E 80 1F 01 6F 00                              .....o.         
```

#### Opcodes

```
  0: 0x0306 [0x66] LOAD_EXT_SCHEDULER_MAIN: Load scheduler "thk2" with entities [Marnie (ID: 17784895/0x010F603F), Marnie (ID: 17784895/0x010F603F)], work=10*
  1: 0x0315 [0x1C] WAIT(60* ticks)
  2: 0x0318 [0x32] ExtData[1]->MainSpeed = 40* * 0.1
  3: 0x031B [0x1F] MOVE_ENTITY: EventEntity moves to X=-30.213*, Z=-1.502*, Y=0.000*
  4: 0x0323 [0x1F] MOVE_ENTITY: Update entity position (mode=1)
  5: 0x0325 [0x6F] WAIT_FRAME_DELAY: Yield until WaitTime reaches zero
  6: 0x0326 [0x00] END_REQSTACK()
```

### Event 65535.10

#### Metadata

| Field        | Value    |
|--------------|----------|
| Entrypoint   | 0x0327   |
| Data Size    | 45 bytes |
| Instructions | 12       |

```
      00 01 02 03 04 05 06 07  08 09 0A 0B 0C 0D 0E 0F
      -- -- -- -- -- -- -- --  -- -- -- -- -- -- -- --
0320:                      32  0B 80 1F 00 31 80 32 80         2....1.2.
0330: 0E 80 1F 01 1C 06 80 39  33 80 1C 34 80 1F 00 35  .......93..4...5
0340: 80 36 80 0E 80 1F 01 1C  06 80 39 37 80 1C 34 80  .6........97..4.
0350: 01 27 03 00                                       .'..            
```

#### Opcodes

```
  0: 0x0327 [0x32] ExtData[1]->MainSpeed = 13* * 0.1
  1: 0x032A [0x1F] MOVE_ENTITY: EventEntity moves to X=-96.584*, Z=-8.519*, Y=0.000*
  2: 0x0332 [0x1F] MOVE_ENTITY: Update entity position (mode=1)
  3: 0x0334 [0x1C] WAIT(30* ticks)
  4: 0x0337 [0x39] SET_ENTITY_DIRECTION(direction=19.7°*)
  5: 0x033A [0x1C] WAIT(360* ticks)
  6: 0x033D [0x1F] MOVE_ENTITY: EventEntity moves to X=-96.241*, Z=8.872*, Y=0.000*
  7: 0x0345 [0x1F] MOVE_ENTITY: Update entity position (mode=1)
  8: 0x0347 [0x1C] WAIT(30* ticks)
  9: 0x034A [0x39] SET_ENTITY_DIRECTION(direction=2.8°*)
 10: 0x034D [0x1C] WAIT(360* ticks)
 11: 0x0350 [0x01] GOTO 0x0327
```

#### Data or dead code:

```
# Dead code (unreachable instructions):
     0x0353 [0x00] END_REQSTACK()
```

### Event 65535.11

#### Metadata

| Field        | Value     |
|--------------|-----------|
| Entrypoint   | 0x0354    |
| Data Size    | 139 bytes |
| Instructions | 22        |

```
      00 01 02 03 04 05 06 07  08 09 0A 0B 0C 0D 0E 0F
      -- -- -- -- -- -- -- --  -- -- -- -- -- -- -- --
0350:             5B 16 80 06  60 0F 01 06 60 0F 01 68      [...`...`..h
0360: 61 69 30 1C 17 80 4A 04  60 0F 01 06 60 0F 01 1C  ai0...J.`...`...
0370: 18 80 79 00 05 60 0F 01  06 60 0F 01 1C 06 80 4B  ..y..`...`.....K
0380: 06 60 0F 01 19 80 6F 76  06 60 0F 01 5B 16 80 06  .`....ov.`..[...
0390: 60 0F 01 06 60 0F 01 61  77 77 30 1C 17 80 5B 1A  `...`..aww0...[.
03A0: 80 04 60 0F 01 04 60 0F  01 74 68 6B 31 1C 1B 80  ..`...`..thk1...
03B0: 5B 0A 80 05 60 0F 01 05  60 0F 01 74 6C 6B 30 1C  [...`...`..tlk0.
03C0: 0A 80 27 10 04 60 0F 01  29 27 10 05 60 0F 01 28  ..'..`..)'..`..(
03D0: 32 1C 80 1F 00 38 80 39  80 0E 80 1F 01 6F 00     2....8.9.....o. 
```

#### Opcodes

```
  0: 0x0354 [0x5B] LOAD_EXT_SCHEDULER: Load scheduler "hai0" with entities [Jaha Amariyo (ID: 17784838/0x010F6006), Jaha Amariyo (ID: 17784838/0x010F6006)], work=81*
  1: 0x0363 [0x1C] WAIT(45* ticks)
  2: 0x0366 [0x4A] Karl (ID: 17784836/0x010F6004) looks at Jaha Amariyo (ID: 17784838/0x010F6006)
  3: 0x036F [0x1C] WAIT(5* ticks)
  4: 0x0372 [0x79] Buntz (ID: 17784837/0x010F6005) looks at Jaha Amariyo (ID: 17784838/0x010F6006) (Basic look)
  5: 0x037C [0x1C] WAIT(30* ticks)
  6: 0x037F [0x4B] UPDATE_ENTITY_YAW(entity=Jaha Amariyo (ID: 17784838/0x010F6006), yaw=12.2°*)
  7: 0x0386 [0x6F] WAIT_FRAME_DELAY: Yield until WaitTime reaches zero
  8: 0x0387 [0x76] CHECK_ENTITY_RENDER_FLAGS: Wait until Jaha Amariyo (ID: 17784838/0x010F6006) Render.Flags0 and Render.Flags3 conditions are met
  9: 0x038C [0x5B] LOAD_EXT_SCHEDULER: Load scheduler "aww0" with entities [Jaha Amariyo (ID: 17784838/0x010F6006), Jaha Amariyo (ID: 17784838/0x010F6006)], work=81*
 10: 0x039B [0x1C] WAIT(45* ticks)
 11: 0x039E [0x5B] LOAD_EXT_SCHEDULER: Load scheduler "thk1" with entities [Karl (ID: 17784836/0x010F6004), Karl (ID: 17784836/0x010F6004)], work=75*
 12: 0x03AD [0x1C] WAIT(15* ticks)
 13: 0x03B0 [0x5B] LOAD_EXT_SCHEDULER: Load scheduler "tlk0" with entities [Buntz (ID: 17784837/0x010F6005), Buntz (ID: 17784837/0x010F6005)], work=90*
 14: 0x03BF [0x1C] WAIT(90* ticks)
 15: 0x03C2 [0x27] REQ_SET(priority=0x10, entity_id=Karl (ID: 17784836/0x010F6004), tag_num=0x29)
 16: 0x03C9 [0x27] REQ_SET(priority=0x10, entity_id=Buntz (ID: 17784837/0x010F6005), tag_num=0x28)
 17: 0x03D0 [0x32] ExtData[1]->MainSpeed = 37* * 0.1
 18: 0x03D3 [0x1F] MOVE_ENTITY: EventEntity moves to X=-52.555*, Z=1.950*, Y=0.000*
 19: 0x03DB [0x1F] MOVE_ENTITY: Update entity position (mode=1)
 20: 0x03DD [0x6F] WAIT_FRAME_DELAY: Yield until WaitTime reaches zero
 21: 0x03DE [0x00] END_REQSTACK()
```

### Event 65535.12

#### Metadata

| Field        | Value    |
|--------------|----------|
| Entrypoint   | 0x03DF   |
| Data Size    | 15 bytes |
| Instructions | 5        |

```
      00 01 02 03 04 05 06 07  08 09 0A 0B 0C 0D 0E 0F
      -- -- -- -- -- -- -- --  -- -- -- -- -- -- -- --
03D0:                                               32                 2
03E0: 1F 80 1F 00 3A 80 3B 80  0E 80 1F 01 6F 00        ....:.;.....o.  
```

#### Opcodes

```
  0: 0x03DF [0x32] ExtData[1]->MainSpeed = 39* * 0.1
  1: 0x03E2 [0x1F] MOVE_ENTITY: EventEntity moves to X=-49.108*, Z=2.357*, Y=0.000*
  2: 0x03EA [0x1F] MOVE_ENTITY: Update entity position (mode=1)
  3: 0x03EC [0x6F] WAIT_FRAME_DELAY: Yield until WaitTime reaches zero
  4: 0x03ED [0x00] END_REQSTACK()
```

### Event 65535.13

#### Metadata

| Field        | Value    |
|--------------|----------|
| Entrypoint   | 0x03EE   |
| Data Size    | 15 bytes |
| Instructions | 5        |

```
      00 01 02 03 04 05 06 07  08 09 0A 0B 0C 0D 0E 0F
      -- -- -- -- -- -- -- --  -- -- -- -- -- -- -- --
03E0:                                            32 22                2"
03F0: 80 1F 00 3C 80 3D 80 0E  80 1F 01 6F 00           ...<.=.....o.   
```

#### Opcodes

```
  0: 0x03EE [0x32] ExtData[1]->MainSpeed = 41* * 0.1
  1: 0x03F1 [0x1F] MOVE_ENTITY: EventEntity moves to X=-51.734*, Z=2.879*, Y=0.000*
  2: 0x03F9 [0x1F] MOVE_ENTITY: Update entity position (mode=1)
  3: 0x03FB [0x6F] WAIT_FRAME_DELAY: Yield until WaitTime reaches zero
  4: 0x03FC [0x00] END_REQSTACK()
```

### Event 65535.14

#### Metadata

| Field        | Value    |
|--------------|----------|
| Entrypoint   | 0x03FD   |
| Data Size    | 15 bytes |
| Instructions | 5        |

```
      00 01 02 03 04 05 06 07  08 09 0A 0B 0C 0D 0E 0F
      -- -- -- -- -- -- -- --  -- -- -- -- -- -- -- --
03F0:                                         32 2A 80               2*.
0400: 1F 00 3E 80 3F 80 0E 80  1F 01 6F 00              ..>.?.....o.    
```

#### Opcodes

```
  0: 0x03FD [0x32] ExtData[1]->MainSpeed = 12* * 0.1
  1: 0x0400 [0x1F] MOVE_ENTITY: EventEntity moves to X=-50.670*, Z=2.474*, Y=0.000*
  2: 0x0408 [0x1F] MOVE_ENTITY: Update entity position (mode=1)
  3: 0x040A [0x6F] WAIT_FRAME_DELAY: Yield until WaitTime reaches zero
  4: 0x040B [0x00] END_REQSTACK()
```

### Event 65535.15

#### Metadata

| Field        | Value    |
|--------------|----------|
| Entrypoint   | 0x040C   |
| Data Size    | 80 bytes |
| Instructions | 13       |

```
      00 01 02 03 04 05 06 07  08 09 0A 0B 0C 0D 0E 0F
      -- -- -- -- -- -- -- --  -- -- -- -- -- -- -- --
0400:                                      32 12 80 1F              2...
0410: 00 40 80 41 80 0E 80 1F  01 79 00 45 60 0F 01 42  .@.A.....y.E`..B
0420: 60 0F 01 66 06 80 42 60  0F 01 42 60 0F 01 74 68  `..f..B`..B`..th
0430: 6B 32 32 42 80 4A 42 60  0F 01 45 60 0F 01 1F 00  k22B.JB`..E`....
0440: 43 80 44 80 0E 80 1F 01  6F 1C 06 80 66 0E 80 45  C.D.....o...f..E
0450: 60 0F 01 45 60 0F 01 74  6C 6B 31 00              `..E`..tlk1.    
```

#### Opcodes

```
  0: 0x040C [0x32] ExtData[1]->MainSpeed = 11* * 0.1
  1: 0x040F [0x1F] MOVE_ENTITY: EventEntity moves to X=-92.526*, Z=-2.418*, Y=0.000*
  2: 0x0417 [0x1F] MOVE_ENTITY: Update entity position (mode=1)
  3: 0x0419 [0x79] Falak (ID: 17784901/0x010F6045) looks at Naurmaire (ID: 17784898/0x010F6042) (Basic look)
  4: 0x0423 [0x66] LOAD_EXT_SCHEDULER_MAIN: Load scheduler "thk2" with entities [Naurmaire (ID: 17784898/0x010F6042), Naurmaire (ID: 17784898/0x010F6042)], work=30*
  5: 0x0432 [0x32] ExtData[1]->MainSpeed = 38* * 0.1
  6: 0x0435 [0x4A] Naurmaire (ID: 17784898/0x010F6042) looks at Falak (ID: 17784901/0x010F6045)
  7: 0x043E [0x1F] MOVE_ENTITY: EventEntity moves to X=-98.837*, Z=-2.640*, Y=0.000*
  8: 0x0446 [0x1F] MOVE_ENTITY: Update entity position (mode=1)
  9: 0x0448 [0x6F] WAIT_FRAME_DELAY: Yield until WaitTime reaches zero
 10: 0x0449 [0x1C] WAIT(30* ticks)
 11: 0x044C [0x66] LOAD_EXT_SCHEDULER_MAIN: Load scheduler "tlk1" with entities [Falak (ID: 17784901/0x010F6045), Falak (ID: 17784901/0x010F6045)], work=0*
 12: 0x045B [0x00] END_REQSTACK()
```

### Event 65535.16

#### Metadata

| Field        | Value    |
|--------------|----------|
| Entrypoint   | 0x045C   |
| Data Size    | 15 bytes |
| Instructions | 5        |

```
      00 01 02 03 04 05 06 07  08 09 0A 0B 0C 0D 0E 0F
      -- -- -- -- -- -- -- --  -- -- -- -- -- -- -- --
0450:                                      32 2A 80 1F              2*..
0460: 00 45 80 46 80 0E 80 1F  01 6F 00                 .E.F.....o.     
```

#### Opcodes

```
  0: 0x045C [0x32] ExtData[1]->MainSpeed = 12* * 0.1
  1: 0x045F [0x1F] MOVE_ENTITY: EventEntity moves to X=4.999*, Z=-0.799*, Y=0.000*
  2: 0x0467 [0x1F] MOVE_ENTITY: Update entity position (mode=1)
  3: 0x0469 [0x6F] WAIT_FRAME_DELAY: Yield until WaitTime reaches zero
  4: 0x046A [0x00] END_REQSTACK()
```

### Event 65535.17

#### Metadata

| Field        | Value    |
|--------------|----------|
| Entrypoint   | 0x046B   |
| Data Size    | 15 bytes |
| Instructions | 5        |

```
      00 01 02 03 04 05 06 07  08 09 0A 0B 0C 0D 0E 0F
      -- -- -- -- -- -- -- --  -- -- -- -- -- -- -- --
0460:                                   32 0B 80 1F 00             2....
0470: 47 80 48 80 0E 80 1F 01  6F 00                    G.H.....o.      
```

#### Opcodes

```
  0: 0x046B [0x32] ExtData[1]->MainSpeed = 13* * 0.1
  1: 0x046E [0x1F] MOVE_ENTITY: EventEntity moves to X=-76.908*, Z=-2.465*, Y=0.000*
  2: 0x0476 [0x1F] MOVE_ENTITY: Update entity position (mode=1)
  3: 0x0478 [0x6F] WAIT_FRAME_DELAY: Yield until WaitTime reaches zero
  4: 0x0479 [0x00] END_REQSTACK()
```

### Event 65535.18

#### Metadata

| Field        | Value    |
|--------------|----------|
| Entrypoint   | 0x047A   |
| Data Size    | 15 bytes |
| Instructions | 5        |

```
      00 01 02 03 04 05 06 07  08 09 0A 0B 0C 0D 0E 0F
      -- -- -- -- -- -- -- --  -- -- -- -- -- -- -- --
0470:                                32 12 80 1F 00 49            2....I
0480: 80 4A 80 0E 80 1F 01 6F  00                       .J.....o.       
```

#### Opcodes

```
  0: 0x047A [0x32] ExtData[1]->MainSpeed = 11* * 0.1
  1: 0x047D [0x1F] MOVE_ENTITY: EventEntity moves to X=-50.956*, Z=-2.015*, Y=0.000*
  2: 0x0485 [0x1F] MOVE_ENTITY: Update entity position (mode=1)
  3: 0x0487 [0x6F] WAIT_FRAME_DELAY: Yield until WaitTime reaches zero
  4: 0x0488 [0x00] END_REQSTACK()
```

### Event 65535.19

#### Metadata

| Field        | Value    |
|--------------|----------|
| Entrypoint   | 0x0489   |
| Data Size    | 15 bytes |
| Instructions | 5        |

```
      00 01 02 03 04 05 06 07  08 09 0A 0B 0C 0D 0E 0F
      -- -- -- -- -- -- -- --  -- -- -- -- -- -- -- --
0480:                             32 12 80 1F 00 4B 80           2....K.
0490: 4C 80 0E 80 1F 01 6F 00                           L.....o.        
```

#### Opcodes

```
  0: 0x0489 [0x32] ExtData[1]->MainSpeed = 11* * 0.1
  1: 0x048C [0x1F] MOVE_ENTITY: EventEntity moves to X=-106.865*, Z=2.201*, Y=0.000*
  2: 0x0494 [0x1F] MOVE_ENTITY: Update entity position (mode=1)
  3: 0x0496 [0x6F] WAIT_FRAME_DELAY: Yield until WaitTime reaches zero
  4: 0x0497 [0x00] END_REQSTACK()
```

### Event 65535.20

#### Metadata

| Field        | Value    |
|--------------|----------|
| Entrypoint   | 0x0498   |
| Data Size    | 15 bytes |
| Instructions | 5        |

```
      00 01 02 03 04 05 06 07  08 09 0A 0B 0C 0D 0E 0F
      -- -- -- -- -- -- -- --  -- -- -- -- -- -- -- --
0490:                          32 0B 80 1F 00 4D 80 4E          2....M.N
04A0: 80 0E 80 1F 01 6F 00                              .....o.         
```

#### Opcodes

```
  0: 0x0498 [0x32] ExtData[1]->MainSpeed = 13* * 0.1
  1: 0x049B [0x1F] MOVE_ENTITY: EventEntity moves to X=-36.731*, Z=-2.282*, Y=0.000*
  2: 0x04A3 [0x1F] MOVE_ENTITY: Update entity position (mode=1)
  3: 0x04A5 [0x6F] WAIT_FRAME_DELAY: Yield until WaitTime reaches zero
  4: 0x04A6 [0x00] END_REQSTACK()
```

### Event 65535.21

#### Metadata

| Field        | Value    |
|--------------|----------|
| Entrypoint   | 0x04A7   |
| Data Size    | 53 bytes |
| Instructions | 10       |

```
      00 01 02 03 04 05 06 07  08 09 0A 0B 0C 0D 0E 0F
      -- -- -- -- -- -- -- --  -- -- -- -- -- -- -- --
04A0:                      32  0B 80 1F 00 4F 80 50 80         2....O.P.
04B0: 0E 80 1F 01 1F 00 51 80  52 80 0E 80 1F 01 6F 1C  ......Q.R.....o.
04C0: 1B 80 79 00 49 60 0F 01  86 60 0F 01 5B 53 80 86  ..y.I`...`..[S..
04D0: 60 0F 01 86 60 0F 01 74  6C 6B 30 00              `...`..tlk0.    
```

#### Opcodes

```
  0: 0x04A7 [0x32] ExtData[1]->MainSpeed = 13* * 0.1
  1: 0x04AA [0x1F] MOVE_ENTITY: EventEntity moves to X=-58.047*, Z=9.433*, Y=0.000*
  2: 0x04B2 [0x1F] MOVE_ENTITY: Update entity position (mode=1)
  3: 0x04B4 [0x1F] MOVE_ENTITY: EventEntity moves to X=-56.466*, Z=10.018*, Y=0.000*
  4: 0x04BC [0x1F] MOVE_ENTITY: Update entity position (mode=1)
  5: 0x04BE [0x6F] WAIT_FRAME_DELAY: Yield until WaitTime reaches zero
  6: 0x04BF [0x1C] WAIT(15* ticks)
  7: 0x04C2 [0x79] Shami (ID: 17784905/0x010F6049) looks at Squintrox Dryeyes (ID: 17784966/0x010F6086) (Basic look)
  8: 0x04CC [0x5B] LOAD_EXT_SCHEDULER: Load scheduler "tlk0" with entities [Squintrox Dryeyes (ID: 17784966/0x010F6086), Squintrox Dryeyes (ID: 17784966/0x010F6086)], work=215*
  9: 0x04DB [0x00] END_REQSTACK()
```

### Event 65535.22

#### Metadata

| Field        | Value    |
|--------------|----------|
| Entrypoint   | 0x04DC   |
| Data Size    | 58 bytes |
| Instructions | 11       |

```
      00 01 02 03 04 05 06 07  08 09 0A 0B 0C 0D 0E 0F
      -- -- -- -- -- -- -- --  -- -- -- -- -- -- -- --
04D0:                                      32 0B 80 79              2..y
04E0: 00 3E 60 0F 01 28 60 0F  01 1F 00 54 80 55 80 0E  .>`..(`....T.U..
04F0: 80 1F 01 6F 1C 1B 80 4A  3E 60 0F 01 28 60 0F 01  ...o...J>`..(`..
0500: 6F 76 3E 60 0F 01 66 56  80 3E 60 0F 01 3E 60 0F  ov>`..fV.>`..>`.
0510: 01 74 6C 6B 30 00                                 .tlk0.          
```

#### Opcodes

```
  0: 0x04DC [0x32] ExtData[1]->MainSpeed = 13* * 0.1
  1: 0x04DF [0x79] Leffquen (ID: 17784894/0x010F603E) looks at Ramicharaux (ID: 17784872/0x010F6028) (Basic look)
  2: 0x04E9 [0x1F] MOVE_ENTITY: EventEntity moves to X=-52.055*, Z=2.177*, Y=0.000*
  3: 0x04F1 [0x1F] MOVE_ENTITY: Update entity position (mode=1)
  4: 0x04F3 [0x6F] WAIT_FRAME_DELAY: Yield until WaitTime reaches zero
  5: 0x04F4 [0x1C] WAIT(15* ticks)
  6: 0x04F7 [0x4A] Leffquen (ID: 17784894/0x010F603E) looks at Ramicharaux (ID: 17784872/0x010F6028)
  7: 0x0500 [0x6F] WAIT_FRAME_DELAY: Yield until WaitTime reaches zero
  8: 0x0501 [0x76] CHECK_ENTITY_RENDER_FLAGS: Wait until Leffquen (ID: 17784894/0x010F603E) Render.Flags0 and Render.Flags3 conditions are met
  9: 0x0506 [0x66] LOAD_EXT_SCHEDULER_MAIN: Load scheduler "tlk0" with entities [Leffquen (ID: 17784894/0x010F603E), Leffquen (ID: 17784894/0x010F603E)], work=19*
 10: 0x0515 [0x00] END_REQSTACK()
```
