# 17784954 - Sanosuke

## Common Data

| Field            | Value                |
|------------------|----------------------|
| Zone             | Port Jeuno (ID: 246) |
| Block Size       | 376 bytes            |
| Total Events     | 5                    |
| References Count | 16                   |

## List of Events

| Event ID              | Entrypoint   |   Size |   Instructions |
|-----------------------|--------------|--------|----------------|
| [65535](#event-65535) | 0x0000       |      1 |              1 |
| [303](#event-303)     | 0x0001       |      9 |              5 |
| [304](#event-304)     | 0x000A       |     62 |             14 |
| [305](#event-305)     | 0x0048       |      6 |              4 |
| [306](#event-306)     | 0x004E       |    196 |             31 |

## DAT References (imed_data)

|   Index | Hex Value   |   Dec Value |
|---------|-------------|-------------|
|       0 | 0x1E4B      |        7755 |
|       1 | 0x0000      |           0 |
|       2 | 0x1E4C      |        7756 |
|       3 | 0x1E4D      |        7757 |
|       4 | 0x1E4E      |        7758 |
|       5 | 0x1E4F      |        7759 |
|       6 | 0x1E52      |        7762 |
|       7 | 0x0002      |           2 |
|       8 | 0x1E50      |        7760 |
|       9 | 0x1E51      |        7761 |
|      10 | 0x000A      |          10 |
|      11 | 0x0014      |          20 |
|      12 | 0x001E      |          30 |
|      13 | 0x0028      |          40 |
|      14 | 0x0032      |          50 |
|      15 | 0x003C      |          60 |

## String References

- **7755**: Would you mind leaving me alone? I have no time for small talk.
- **7756**: You are <Player>, are you not? I have been waiting for your arrival. I do not have much time, so I will keep this quick.
- **7757**: The day of the theft, there were numerous reports of a strange character wearing an even stranger helmet traveling on foot towards Zulkheim.
- **7758**: I journeyed here from San d'Oria, but heard nothing of such sightings on my way. This leaves the possibility that he may have turned back to Jeuno.
- **7759**: I feel that he may still be in the area. I am going to continue my search here.
- **7760**: And one other thing.
- **7761**: One more of us is stationed in a small, run-down building in the Bastok Mines (J-6). He may have some useful information.
- **7762**: The type of helmet that was stolen is known in the Far East as a "kabuto." Many people find its design strange, but I find it quite interesting.

## Events

### Event 65535

#### Metadata

| Field        | Value   |
|--------------|---------|
| Entrypoint   | 0x0000  |
| Data Size    | 1 bytes |
| Instructions | 1       |

```
      00 01 02 03 04 05 06 07  08 09 0A 0B 0C 0D 0E 0F
      -- -- -- -- -- -- -- --  -- -- -- -- -- -- -- --
0000: 00                                                .               
```

#### Opcodes

```
  0: 0x0000 [0x00] END_REQSTACK()
```

### Event 303

#### Metadata

| Field        | Value   |
|--------------|---------|
| Entrypoint   | 0x0001  |
| Data Size    | 9 bytes |
| Instructions | 5       |

```
      00 01 02 03 04 05 06 07  08 09 0A 0B 0C 0D 0E 0F
      -- -- -- -- -- -- -- --  -- -- -- -- -- -- -- --
0000:    1A 84 00 1D 00 80 23  21 00                     ......#!.      
```

#### Opcodes

```
  0: 0x0001 [0x1A] CALL_SUBROUTINE(address=0x0084)
  1: 0x0004 [0x1D] PRINT_EVENT_MESSAGE(message_id=7755*)
    → "Would you mind leaving me alone? I have no time for small talk."
  2: 0x0007 [0x23] WAIT_FOR_DIALOG_INTERACTION
  3: 0x0008 [0x21] END_EVENT
  4: 0x0009 [0x00] END_REQSTACK()
```

### Event 304

#### Metadata

| Field        | Value    |
|--------------|----------|
| Entrypoint   | 0x000A   |
| Data Size    | 62 bytes |
| Instructions | 14       |

```
      00 01 02 03 04 05 06 07  08 09 0A 0B 0C 0D 0E 0F
      -- -- -- -- -- -- -- --  -- -- -- -- -- -- -- --
0000:                                42 66 01 80 F8 FF            Bf....
0010: FF 7F F8 FF FF 7F 74 68  6B 31 1D 02 80 23 1D 03  ......thk1...#..
0020: 80 23 1D 04 80 23 66 01  80 F8 FF FF 7F F8 FF FF  .#...#f.........
0030: 7F 74 68 6B 32 53 F8 FF  FF 7F F8 FF FF 7F 74 68  .thk2S........th
0040: 6B 32 1D 05 80 23 21 00                           k2...#!.        
```

#### Opcodes

```
  0: 0x000A [0x42] SET_CLI_EVENT_CANCEL_DATA()
  1: 0x000B [0x66] LOAD_EXT_SCHEDULER_MAIN: Load scheduler "thk1" with entities [EventEntity, EventEntity], work=0*
  2: 0x001A [0x1D] PRINT_EVENT_MESSAGE(message_id=7756*)
    → "You are <Player>, are you not? I have been waiting for your arrival. I do not have much time, so I will keep this quick."
  3: 0x001D [0x23] WAIT_FOR_DIALOG_INTERACTION
  4: 0x001E [0x1D] PRINT_EVENT_MESSAGE(message_id=7757*)
    → "The day of the theft, there were numerous reports of a strange character wearing an even stranger helmet traveling on foot towards Zulkheim."
  5: 0x0021 [0x23] WAIT_FOR_DIALOG_INTERACTION
  6: 0x0022 [0x1D] PRINT_EVENT_MESSAGE(message_id=7758*)
    → "I journeyed here from San d'Oria, but heard nothing of such sightings on my way. This leaves the possibility that he may have turned back to Jeuno."
  7: 0x0025 [0x23] WAIT_FOR_DIALOG_INTERACTION
  8: 0x0026 [0x66] LOAD_EXT_SCHEDULER_MAIN: Load scheduler "thk2" with entities [EventEntity, EventEntity], work=0*
  9: 0x0035 [0x53] WAIT_SCHEDULER_TASK: Wait for scheduler "thk2" with entities [EventEntity, EventEntity]
 10: 0x0042 [0x1D] PRINT_EVENT_MESSAGE(message_id=7759*)
    → "I feel that he may still be in the area. I am going to continue my search here."
 11: 0x0045 [0x23] WAIT_FOR_DIALOG_INTERACTION
 12: 0x0046 [0x21] END_EVENT
 13: 0x0047 [0x00] END_REQSTACK()
```

### Event 305

#### Metadata

| Field        | Value   |
|--------------|---------|
| Entrypoint   | 0x0048  |
| Data Size    | 6 bytes |
| Instructions | 4       |

```
      00 01 02 03 04 05 06 07  08 09 0A 0B 0C 0D 0E 0F
      -- -- -- -- -- -- -- --  -- -- -- -- -- -- -- --
0040:                          1D 06 80 23 21 00                ...#!.  
```

#### Opcodes

```
  0: 0x0048 [0x1D] PRINT_EVENT_MESSAGE(message_id=7762*)
    → "The type of helmet that was stolen is known in the Far East as a "kabuto." Many people find its design strange, but I find it quite interesting."
  1: 0x004B [0x23] WAIT_FOR_DIALOG_INTERACTION
  2: 0x004C [0x21] END_EVENT
  3: 0x004D [0x00] END_REQSTACK()
```

### Event 306

#### Metadata

| Field        | Value     |
|--------------|-----------|
| Entrypoint   | 0x004E    |
| Data Size    | 196 bytes |
| Instructions | 10        |

```
      00 01 02 03 04 05 06 07  08 09 0A 0B 0C 0D 0E 0F
      -- -- -- -- -- -- -- --  -- -- -- -- -- -- -- --
0040:                                            42 66                Bf
0050: 07 80 F8 FF FF 7F F8 FF  FF 7F 74 68 62 31 1D 08  ..........thb1..
0060: 80 23 1D 09 80 23 66 01  80 F8 FF FF 7F F8 FF FF  .#...#f.........
0070: 7F 74 68 6B 32 53 F8 FF  FF 7F F8 FF FF 7F 74 68  .thk2S........th
0080: 6B 32 21 00 86 00 F8 FF  FF 7F 1E F0 FF FF 7F 6F  k2!............o
0090: 70 1B 66 01 80 F8 FF FF  7F F8 FF FF 7F 74 6C 6B  p.f..........tlk
00A0: 30 1B 66 01 80 F8 FF FF  7F F8 FF FF 7F 74 6C 6B  0.f..........tlk
00B0: 31 1B 66 0A 80 F8 FF FF  7F F8 FF FF 7F 74 6C 6B  1.f..........tlk
00C0: 30 1B 66 0B 80 F8 FF FF  7F F8 FF FF 7F 74 6C 6B  0.f..........tlk
00D0: 30 1B 66 0C 80 F8 FF FF  7F F8 FF FF 7F 74 6C 6B  0.f..........tlk
00E0: 30 1B 66 0D 80 F8 FF FF  7F F8 FF FF 7F 74 6C 6B  0.f..........tlk
00F0: 30 1B 66 0E 80 F8 FF FF  7F F8 FF FF 7F 74 6C 6B  0.f..........tlk
0100: 30 1B 66 0F 80 F8 FF FF  7F F8 FF FF 7F 74 6C 6B  0.f..........tlk
0110: 30 1B                                             0.              
```

#### Opcodes

```
  0: 0x004E [0x42] SET_CLI_EVENT_CANCEL_DATA()
  1: 0x004F [0x66] LOAD_EXT_SCHEDULER_MAIN: Load scheduler "thb1" with entities [EventEntity, EventEntity], work=2*
  2: 0x005E [0x1D] PRINT_EVENT_MESSAGE(message_id=7760*)
    → "And one other thing."
  3: 0x0061 [0x23] WAIT_FOR_DIALOG_INTERACTION
  4: 0x0062 [0x1D] PRINT_EVENT_MESSAGE(message_id=7761*)
    → "One more of us is stationed in a small, run-down building in the Bastok Mines (J-6). He may have some useful information."
  5: 0x0065 [0x23] WAIT_FOR_DIALOG_INTERACTION
  6: 0x0066 [0x66] LOAD_EXT_SCHEDULER_MAIN: Load scheduler "thk2" with entities [EventEntity, EventEntity], work=0*
  7: 0x0075 [0x53] WAIT_SCHEDULER_TASK: Wait for scheduler "thk2" with entities [EventEntity, EventEntity]
  8: 0x0082 [0x21] END_EVENT
  9: 0x0083 [0x00] END_REQSTACK()
```

#### Data or dead code:

```
# Dead code (unreachable instructions):
     0x0084 [0x86] EventEntity->Render.Flags3 = Flags3  // No change (flag=0)
     0x008A [0x1E] EventEntity looks at LocalPlayer and starts talking
     0x008F [0x6F] WAIT_FRAME_DELAY: Yield until WaitTime reaches zero
     0x0090 [0x70] WAIT_ENTITY_RENDER_FLAG: Wait while EventEntity->Render.Flags3 bit 2 is set (cancel turn if not)
     0x0091 [0x1B] RETURN
     0x0092 [0x66] LOAD_EXT_SCHEDULER_MAIN: Load scheduler "tlk0" with entities [EventEntity, EventEntity], work=0*
     0x00A1 [0x1B] RETURN
     0x00A2 [0x66] LOAD_EXT_SCHEDULER_MAIN: Load scheduler "tlk1" with entities [EventEntity, EventEntity], work=0*
     0x00B1 [0x1B] RETURN
     0x00B2 [0x66] LOAD_EXT_SCHEDULER_MAIN: Load scheduler "tlk0" with entities [EventEntity, EventEntity], work=10*
     0x00C1 [0x1B] RETURN
     0x00C2 [0x66] LOAD_EXT_SCHEDULER_MAIN: Load scheduler "tlk0" with entities [EventEntity, EventEntity], work=20*
     0x00D1 [0x1B] RETURN
     0x00D2 [0x66] LOAD_EXT_SCHEDULER_MAIN: Load scheduler "tlk0" with entities [EventEntity, EventEntity], work=30*
     0x00E1 [0x1B] RETURN
     0x00E2 [0x66] LOAD_EXT_SCHEDULER_MAIN: Load scheduler "tlk0" with entities [EventEntity, EventEntity], work=40*
     0x00F1 [0x1B] RETURN
     0x00F2 [0x66] LOAD_EXT_SCHEDULER_MAIN: Load scheduler "tlk0" with entities [EventEntity, EventEntity], work=50*
     0x0101 [0x1B] RETURN
     0x0102 [0x66] LOAD_EXT_SCHEDULER_MAIN: Load scheduler "tlk0" with entities [EventEntity, EventEntity], work=60*
     0x0111 [0x1B] RETURN
```
