# 17784936

## Common Data

| Field            | Value                |
|------------------|----------------------|
| Zone             | Port Jeuno (ID: 246) |
| Block Size       | 900 bytes            |
| Total Events     | 9                    |
| References Count | 22                   |

## List of Events

| Event ID              | Entrypoint   |   Size |   Instructions |
|-----------------------|--------------|--------|----------------|
| [65535](#event-65535) | 0x0000       |      1 |              1 |
| [10010](#event-10010) | 0x0001       |    110 |             17 |
| [10012](#event-10012) | 0x006F       |    110 |             17 |
| [10011](#event-10011) | 0x00DD       |    110 |             17 |
| [10013](#event-10013) | 0x014B       |    110 |             17 |
| [10018](#event-10018) | 0x01B9       |     79 |             10 |
| [10020](#event-10020) | 0x0208       |     79 |             10 |
| [10019](#event-10019) | 0x0257       |     79 |             10 |
| [10021](#event-10021) | 0x02A6       |     79 |             10 |

## DAT References (imed_data)

|   Index | Hex Value   |   Dec Value |
|---------|-------------|-------------|
|       0 | 0x0088      |         136 |
|       1 | 0x021C      |         540 |
|       2 | 0x0001      |           1 |
|       3 | 0x0000      |           0 |
|       4 | 0x003C      |          60 |
|       5 | 0x0080      |         128 |
|       6 | 0xFFFF8EB8  |  4294938296 |
|       7 | 0x2E630     |      190000 |
|       8 | 0x251C      |        9500 |
|       9 | 0x0800      |        2048 |
|      10 | 0x01E0      |         480 |
|      11 | 0x00C8      |         200 |
|      12 | 0x00BE      |         190 |
|      13 | 0x02D0      |         720 |
|      14 | 0x0348      |         840 |
|      15 | 0x0078      |         120 |
|      16 | 0x0003      |           3 |
|      17 | 0xFFFD19D0  |  4294777296 |
|      18 | 0x0005      |           5 |
|      19 | 0xFFFF5038  |  4294922296 |
|      20 | 0x0007      |           7 |
|      21 | 0x0258      |         600 |

## Events

### Event 65535

#### Metadata

| Field        | Value   |
|--------------|---------|
| Entrypoint   | 0x0000  |
| Data Size    | 1 bytes |
| Instructions | 1       |

```
      00 01 02 03 04 05 06 07  08 09 0A 0B 0C 0D 0E 0F
      -- -- -- -- -- -- -- --  -- -- -- -- -- -- -- --
0000: 00                                                .               
```

#### Opcodes

```
  0: 0x0000 [0x00] END_REQSTACK()
```

### Event 10010

#### Metadata

| Field        | Value     |
|--------------|-----------|
| Entrypoint   | 0x0001    |
| Data Size    | 110 bytes |
| Instructions | 17        |

```
      00 01 02 03 04 05 06 07  08 09 0A 0B 0C 0D 0E 0F
      -- -- -- -- -- -- -- --  -- -- -- -- -- -- -- --
0000:    42 46 01 45 00 80 F8  FF FF 7F F8 FF FF 7F 73   BF.E..........s
0010: 73 68 70 01 80 4F 02 80  5D 03 80 04 80 1C 04 80  shp..O..].......
0020: 5C 00 05 80 5C 01 05 80  37 06 80 07 80 08 80 09  \...\...7.......
0030: 80 1C 0A 80 45 0B 80 F0  FF FF 7F F0 FF FF 7F 6F  ....E..........o
0040: 76 6C 31 03 80 45 0C 80  F8 FF FF 7F F8 FF FF 7F  vl1..E..........
0050: 73 6A 6E 73 0D 80 1C 0E  80 45 0B 80 F0 FF FF 7F  sjns.....E......
0060: F0 FF FF 7F 66 64 6F 32  03 80 1C 0F 80 21 00     ....fdo2.....!. 
```

#### Opcodes

```
  0: 0x0001 [0x42] SET_CLI_EVENT_CANCEL_DATA()
  1: 0x0002 [0x46] CAMERA_CONTROL: Disable user control
  2: 0x0004 [0x45] LOAD_SCHEDULED_TASK: Load scheduler "sshp" with entities [EventEntity, EventEntity], work=[136*, 540*]
  3: 0x0015 [0x4F] EventEntity->StatusEvent = 1* // Custom event value
  4: 0x0018 [0x5D] SET_MUSIC_VOLUME(volume=0*, fade_time=60*)
  5: 0x001D [0x1C] WAIT(60* ticks)
  6: 0x0020 [0x5C] MUSIC_CONTROL: Set Idle (Day) music to song 128*
  7: 0x0024 [0x5C] MUSIC_CONTROL: Set Idle (Night) music to song 128*
  8: 0x0028 [0x37] UPDATE_EVENT_POSITION_AND_DIR: x=-29.000*, z=190.000*, y=9.500*, direction=180.0째*
  9: 0x0031 [0x1C] WAIT(480* ticks)
 10: 0x0034 [0x45] LOAD_SCHEDULED_TASK: Load scheduler "ovl1" with entities [LocalPlayer, LocalPlayer], work=[200*, 0*]
 11: 0x0045 [0x45] LOAD_SCHEDULED_TASK: Load scheduler "sjns" with entities [EventEntity, EventEntity], work=[190*, 720*]
 12: 0x0056 [0x1C] WAIT(840* ticks)
 13: 0x0059 [0x45] LOAD_SCHEDULED_TASK: Load scheduler "fdo2" with entities [LocalPlayer, LocalPlayer], work=[200*, 0*]
 14: 0x006A [0x1C] WAIT(120* ticks)
 15: 0x006D [0x21] END_EVENT
 16: 0x006E [0x00] END_REQSTACK()
```

### Event 10012

#### Metadata

| Field        | Value     |
|--------------|-----------|
| Entrypoint   | 0x006F    |
| Data Size    | 110 bytes |
| Instructions | 17        |

```
      00 01 02 03 04 05 06 07  08 09 0A 0B 0C 0D 0E 0F
      -- -- -- -- -- -- -- --  -- -- -- -- -- -- -- --
0060:                                               42                 B
0070: 46 01 45 00 80 F8 FF FF  7F F8 FF FF 7F 73 73 68  F.E..........ssh
0080: 70 01 80 4F 10 80 5D 03  80 04 80 1C 04 80 5C 00  p..O..].......\.
0090: 05 80 5C 01 05 80 37 06  80 11 80 08 80 09 80 1C  ..\...7.........
00A0: 0A 80 45 0B 80 F0 FF FF  7F F0 FF FF 7F 6F 76 6C  ..E..........ovl
00B0: 31 03 80 45 0C 80 F8 FF  FF 7F F8 FF FF 7F 73 6A  1..E..........sj
00C0: 6E 62 0D 80 1C 0E 80 45  0B 80 F0 FF FF 7F F0 FF  nb.....E........
00D0: FF 7F 66 64 6F 32 03 80  1C 0F 80 21 00           ..fdo2.....!.   
```

#### Opcodes

```
  0: 0x006F [0x42] SET_CLI_EVENT_CANCEL_DATA()
  1: 0x0070 [0x46] CAMERA_CONTROL: Disable user control
  2: 0x0072 [0x45] LOAD_SCHEDULED_TASK: Load scheduler "sshp" with entities [EventEntity, EventEntity], work=[136*, 540*]
  3: 0x0083 [0x4F] EventEntity->StatusEvent = 3* // Custom event value
  4: 0x0086 [0x5D] SET_MUSIC_VOLUME(volume=0*, fade_time=60*)
  5: 0x008B [0x1C] WAIT(60* ticks)
  6: 0x008E [0x5C] MUSIC_CONTROL: Set Idle (Day) music to song 128*
  7: 0x0092 [0x5C] MUSIC_CONTROL: Set Idle (Night) music to song 128*
  8: 0x0096 [0x37] UPDATE_EVENT_POSITION_AND_DIR: x=-29.000*, z=-190.000*, y=9.500*, direction=180.0째*
  9: 0x009F [0x1C] WAIT(480* ticks)
 10: 0x00A2 [0x45] LOAD_SCHEDULED_TASK: Load scheduler "ovl1" with entities [LocalPlayer, LocalPlayer], work=[200*, 0*]
 11: 0x00B3 [0x45] LOAD_SCHEDULED_TASK: Load scheduler "sjnb" with entities [EventEntity, EventEntity], work=[190*, 720*]
 12: 0x00C4 [0x1C] WAIT(840* ticks)
 13: 0x00C7 [0x45] LOAD_SCHEDULED_TASK: Load scheduler "fdo2" with entities [LocalPlayer, LocalPlayer], work=[200*, 0*]
 14: 0x00D8 [0x1C] WAIT(120* ticks)
 15: 0x00DB [0x21] END_EVENT
 16: 0x00DC [0x00] END_REQSTACK()
```

### Event 10011

#### Metadata

| Field        | Value     |
|--------------|-----------|
| Entrypoint   | 0x00DD    |
| Data Size    | 110 bytes |
| Instructions | 17        |

```
      00 01 02 03 04 05 06 07  08 09 0A 0B 0C 0D 0E 0F
      -- -- -- -- -- -- -- --  -- -- -- -- -- -- -- --
00D0:                                         42 46 01               BF.
00E0: 45 00 80 F8 FF FF 7F F8  FF FF 7F 73 73 68 70 01  E..........sshp.
00F0: 80 4F 12 80 5D 03 80 04  80 1C 04 80 5C 00 05 80  .O..].......\...
0100: 5C 01 05 80 37 13 80 11  80 08 80 03 80 1C 0A 80  \...7...........
0110: 45 0B 80 F0 FF FF 7F F0  FF FF 7F 6F 76 6C 31 03  E..........ovl1.
0120: 80 45 0C 80 F8 FF FF 7F  F8 FF FF 7F 73 6A 6E 77  .E..........sjnw
0130: 0D 80 1C 0E 80 45 0B 80  F0 FF FF 7F F0 FF FF 7F  .....E..........
0140: 66 64 6F 32 03 80 1C 0F  80 21 00                 fdo2.....!.     
```

#### Opcodes

```
  0: 0x00DD [0x42] SET_CLI_EVENT_CANCEL_DATA()
  1: 0x00DE [0x46] CAMERA_CONTROL: Disable user control
  2: 0x00E0 [0x45] LOAD_SCHEDULED_TASK: Load scheduler "sshp" with entities [EventEntity, EventEntity], work=[136*, 540*]
  3: 0x00F1 [0x4F] EventEntity->StatusEvent = 5* // Custom event value
  4: 0x00F4 [0x5D] SET_MUSIC_VOLUME(volume=0*, fade_time=60*)
  5: 0x00F9 [0x1C] WAIT(60* ticks)
  6: 0x00FC [0x5C] MUSIC_CONTROL: Set Idle (Day) music to song 128*
  7: 0x0100 [0x5C] MUSIC_CONTROL: Set Idle (Night) music to song 128*
  8: 0x0104 [0x37] UPDATE_EVENT_POSITION_AND_DIR: x=-45.000*, z=-190.000*, y=9.500*, direction=0.0째*
  9: 0x010D [0x1C] WAIT(480* ticks)
 10: 0x0110 [0x45] LOAD_SCHEDULED_TASK: Load scheduler "ovl1" with entities [LocalPlayer, LocalPlayer], work=[200*, 0*]
 11: 0x0121 [0x45] LOAD_SCHEDULED_TASK: Load scheduler "sjnw" with entities [EventEntity, EventEntity], work=[190*, 720*]
 12: 0x0132 [0x1C] WAIT(840* ticks)
 13: 0x0135 [0x45] LOAD_SCHEDULED_TASK: Load scheduler "fdo2" with entities [LocalPlayer, LocalPlayer], work=[200*, 0*]
 14: 0x0146 [0x1C] WAIT(120* ticks)
 15: 0x0149 [0x21] END_EVENT
 16: 0x014A [0x00] END_REQSTACK()
```

### Event 10013

#### Metadata

| Field        | Value     |
|--------------|-----------|
| Entrypoint   | 0x014B    |
| Data Size    | 110 bytes |
| Instructions | 17        |

```
      00 01 02 03 04 05 06 07  08 09 0A 0B 0C 0D 0E 0F
      -- -- -- -- -- -- -- --  -- -- -- -- -- -- -- --
0140:                                   42 46 01 45 00             BF.E.
0150: 80 F8 FF FF 7F F8 FF FF  7F 73 73 68 70 01 80 4F  .........sshp..O
0160: 14 80 5D 03 80 04 80 1C  04 80 5C 00 05 80 5C 01  ..].......\...\.
0170: 05 80 37 13 80 07 80 08  80 03 80 1C 0A 80 45 0B  ..7...........E.
0180: 80 F0 FF FF 7F F0 FF FF  7F 6F 76 6C 31 03 80 45  .........ovl1..E
0190: 0C 80 F8 FF FF 7F F8 FF  FF 7F 73 6A 6E 6B 0D 80  ..........sjnk..
01A0: 1C 0E 80 45 0B 80 F0 FF  FF 7F F0 FF FF 7F 66 64  ...E..........fd
01B0: 6F 32 03 80 1C 0F 80 21  00                       o2.....!.       
```

#### Opcodes

```
  0: 0x014B [0x42] SET_CLI_EVENT_CANCEL_DATA()
  1: 0x014C [0x46] CAMERA_CONTROL: Disable user control
  2: 0x014E [0x45] LOAD_SCHEDULED_TASK: Load scheduler "sshp" with entities [EventEntity, EventEntity], work=[136*, 540*]
  3: 0x015F [0x4F] EventEntity->StatusEvent = 7* // Custom event value
  4: 0x0162 [0x5D] SET_MUSIC_VOLUME(volume=0*, fade_time=60*)
  5: 0x0167 [0x1C] WAIT(60* ticks)
  6: 0x016A [0x5C] MUSIC_CONTROL: Set Idle (Day) music to song 128*
  7: 0x016E [0x5C] MUSIC_CONTROL: Set Idle (Night) music to song 128*
  8: 0x0172 [0x37] UPDATE_EVENT_POSITION_AND_DIR: x=-45.000*, z=190.000*, y=9.500*, direction=0.0째*
  9: 0x017B [0x1C] WAIT(480* ticks)
 10: 0x017E [0x45] LOAD_SCHEDULED_TASK: Load scheduler "ovl1" with entities [LocalPlayer, LocalPlayer], work=[200*, 0*]
 11: 0x018F [0x45] LOAD_SCHEDULED_TASK: Load scheduler "sjnk" with entities [EventEntity, EventEntity], work=[190*, 720*]
 12: 0x01A0 [0x1C] WAIT(840* ticks)
 13: 0x01A3 [0x45] LOAD_SCHEDULED_TASK: Load scheduler "fdo2" with entities [LocalPlayer, LocalPlayer], work=[200*, 0*]
 14: 0x01B4 [0x1C] WAIT(120* ticks)
 15: 0x01B7 [0x21] END_EVENT
 16: 0x01B8 [0x00] END_REQSTACK()
```

### Event 10018

#### Metadata

| Field        | Value    |
|--------------|----------|
| Entrypoint   | 0x01B9   |
| Data Size    | 79 bytes |
| Instructions | 10       |

```
      00 01 02 03 04 05 06 07  08 09 0A 0B 0C 0D 0E 0F
      -- -- -- -- -- -- -- --  -- -- -- -- -- -- -- --
01B0:                             42 45 0B 80 F0 FF FF           BE.....
01C0: 7F F0 FF FF 7F 66 64 69  32 03 80 45 0C 80 F8 FF  .....fdi2..E....
01D0: FF 7F F8 FF FF 7F 73 6A  63 73 15 80 1C 01 80 45  ......sjcs.....E
01E0: 0B 80 F0 FF FF 7F F0 FF  FF 7F 66 64 6F 31 03 80  ..........fdo1..
01F0: 1C 04 80 46 00 45 0B 80  F0 FF FF 7F F0 FF FF 7F  ...F.E..........
0200: 66 64 69 31 03 80 21 00                           fdi1..!.        
```

#### Opcodes

```
  0: 0x01B9 [0x42] SET_CLI_EVENT_CANCEL_DATA()
  1: 0x01BA [0x45] LOAD_SCHEDULED_TASK: Load scheduler "fdi2" with entities [LocalPlayer, LocalPlayer], work=[200*, 0*]
  2: 0x01CB [0x45] LOAD_SCHEDULED_TASK: Load scheduler "sjcs" with entities [EventEntity, EventEntity], work=[190*, 600*]
  3: 0x01DC [0x1C] WAIT(540* ticks)
  4: 0x01DF [0x45] LOAD_SCHEDULED_TASK: Load scheduler "fdo1" with entities [LocalPlayer, LocalPlayer], work=[200*, 0*]
  5: 0x01F0 [0x1C] WAIT(60* ticks)
  6: 0x01F3 [0x46] CAMERA_CONTROL: Restore default settings
  7: 0x01F5 [0x45] LOAD_SCHEDULED_TASK: Load scheduler "fdi1" with entities [LocalPlayer, LocalPlayer], work=[200*, 0*]
  8: 0x0206 [0x21] END_EVENT
  9: 0x0207 [0x00] END_REQSTACK()
```

### Event 10020

#### Metadata

| Field        | Value    |
|--------------|----------|
| Entrypoint   | 0x0208   |
| Data Size    | 79 bytes |
| Instructions | 10       |

```
      00 01 02 03 04 05 06 07  08 09 0A 0B 0C 0D 0E 0F
      -- -- -- -- -- -- -- --  -- -- -- -- -- -- -- --
0200:                          42 45 0B 80 F0 FF FF 7F          BE......
0210: F0 FF FF 7F 66 64 69 32  03 80 45 0C 80 F8 FF FF  ....fdi2..E.....
0220: 7F F8 FF FF 7F 73 6A 63  62 15 80 1C 01 80 45 0B  .....sjcb.....E.
0230: 80 F0 FF FF 7F F0 FF FF  7F 66 64 6F 31 03 80 1C  .........fdo1...
0240: 04 80 46 00 45 0B 80 F0  FF FF 7F F0 FF FF 7F 66  ..F.E..........f
0250: 64 69 31 03 80 21 00                              di1..!.         
```

#### Opcodes

```
  0: 0x0208 [0x42] SET_CLI_EVENT_CANCEL_DATA()
  1: 0x0209 [0x45] LOAD_SCHEDULED_TASK: Load scheduler "fdi2" with entities [LocalPlayer, LocalPlayer], work=[200*, 0*]
  2: 0x021A [0x45] LOAD_SCHEDULED_TASK: Load scheduler "sjcb" with entities [EventEntity, EventEntity], work=[190*, 600*]
  3: 0x022B [0x1C] WAIT(540* ticks)
  4: 0x022E [0x45] LOAD_SCHEDULED_TASK: Load scheduler "fdo1" with entities [LocalPlayer, LocalPlayer], work=[200*, 0*]
  5: 0x023F [0x1C] WAIT(60* ticks)
  6: 0x0242 [0x46] CAMERA_CONTROL: Restore default settings
  7: 0x0244 [0x45] LOAD_SCHEDULED_TASK: Load scheduler "fdi1" with entities [LocalPlayer, LocalPlayer], work=[200*, 0*]
  8: 0x0255 [0x21] END_EVENT
  9: 0x0256 [0x00] END_REQSTACK()
```

### Event 10019

#### Metadata

| Field        | Value    |
|--------------|----------|
| Entrypoint   | 0x0257   |
| Data Size    | 79 bytes |
| Instructions | 10       |

```
      00 01 02 03 04 05 06 07  08 09 0A 0B 0C 0D 0E 0F
      -- -- -- -- -- -- -- --  -- -- -- -- -- -- -- --
0250:                      42  45 0B 80 F0 FF FF 7F F0         BE.......
0260: FF FF 7F 66 64 69 32 03  80 45 0C 80 F8 FF FF 7F  ...fdi2..E......
0270: F8 FF FF 7F 73 6A 63 77  15 80 1C 01 80 45 0B 80  ....sjcw.....E..
0280: F0 FF FF 7F F0 FF FF 7F  66 64 6F 31 03 80 1C 04  ........fdo1....
0290: 80 46 00 45 0B 80 F0 FF  FF 7F F0 FF FF 7F 66 64  .F.E..........fd
02A0: 69 31 03 80 21 00                                 i1..!.          
```

#### Opcodes

```
  0: 0x0257 [0x42] SET_CLI_EVENT_CANCEL_DATA()
  1: 0x0258 [0x45] LOAD_SCHEDULED_TASK: Load scheduler "fdi2" with entities [LocalPlayer, LocalPlayer], work=[200*, 0*]
  2: 0x0269 [0x45] LOAD_SCHEDULED_TASK: Load scheduler "sjcw" with entities [EventEntity, EventEntity], work=[190*, 600*]
  3: 0x027A [0x1C] WAIT(540* ticks)
  4: 0x027D [0x45] LOAD_SCHEDULED_TASK: Load scheduler "fdo1" with entities [LocalPlayer, LocalPlayer], work=[200*, 0*]
  5: 0x028E [0x1C] WAIT(60* ticks)
  6: 0x0291 [0x46] CAMERA_CONTROL: Restore default settings
  7: 0x0293 [0x45] LOAD_SCHEDULED_TASK: Load scheduler "fdi1" with entities [LocalPlayer, LocalPlayer], work=[200*, 0*]
  8: 0x02A4 [0x21] END_EVENT
  9: 0x02A5 [0x00] END_REQSTACK()
```

### Event 10021

#### Metadata

| Field        | Value    |
|--------------|----------|
| Entrypoint   | 0x02A6   |
| Data Size    | 79 bytes |
| Instructions | 10       |

```
      00 01 02 03 04 05 06 07  08 09 0A 0B 0C 0D 0E 0F
      -- -- -- -- -- -- -- --  -- -- -- -- -- -- -- --
02A0:                   42 45  0B 80 F0 FF FF 7F F0 FF        BE........
02B0: FF 7F 66 64 69 32 03 80  45 0C 80 F8 FF FF 7F F8  ..fdi2..E.......
02C0: FF FF 7F 73 6A 63 6B 15  80 1C 01 80 45 0B 80 F0  ...sjck.....E...
02D0: FF FF 7F F0 FF FF 7F 66  64 6F 31 03 80 1C 04 80  .......fdo1.....
02E0: 46 00 45 0B 80 F0 FF FF  7F F0 FF FF 7F 66 64 69  F.E..........fdi
02F0: 31 03 80 21 00                                    1..!.           
```

#### Opcodes

```
  0: 0x02A6 [0x42] SET_CLI_EVENT_CANCEL_DATA()
  1: 0x02A7 [0x45] LOAD_SCHEDULED_TASK: Load scheduler "fdi2" with entities [LocalPlayer, LocalPlayer], work=[200*, 0*]
  2: 0x02B8 [0x45] LOAD_SCHEDULED_TASK: Load scheduler "sjck" with entities [EventEntity, EventEntity], work=[190*, 600*]
  3: 0x02C9 [0x1C] WAIT(540* ticks)
  4: 0x02CC [0x45] LOAD_SCHEDULED_TASK: Load scheduler "fdo1" with entities [LocalPlayer, LocalPlayer], work=[200*, 0*]
  5: 0x02DD [0x1C] WAIT(60* ticks)
  6: 0x02E0 [0x46] CAMERA_CONTROL: Restore default settings
  7: 0x02E2 [0x45] LOAD_SCHEDULED_TASK: Load scheduler "fdi1" with entities [LocalPlayer, LocalPlayer], work=[200*, 0*]
  8: 0x02F3 [0x21] END_EVENT
  9: 0x02F4 [0x00] END_REQSTACK()
```
