# 17784905 - Shami

## Common Data

| Field            | Value                |
|------------------|----------------------|
| Zone             | Port Jeuno (ID: 246) |
| Block Size       | 7992 bytes           |
| Total Events     | 114                  |
| References Count | 195                  |

## List of Events

| Event ID                   | Entrypoint   |   Size |   Instructions |
|----------------------------|--------------|--------|----------------|
| [65535](#event-65535)      | 0x0000       |      1 |              1 |
| [23](#event-23)            | 0x0001       |    342 |             83 |
| [24](#event-24)            | 0x0157       |     62 |             18 |
| [50](#event-50)            | 0x0195       |    100 |             25 |
| [8](#event-8)              | 0x01F9       |     20 |             11 |
| [4](#event-4)              | 0x020D       |     20 |             11 |
| [10](#event-10)            | 0x0221       |     20 |             11 |
| [346](#event-346)          | 0x0235       |     20 |             11 |
| [354](#event-354)          | 0x0249       |     20 |             11 |
| [356](#event-356)          | 0x025D       |     20 |             11 |
| [358](#event-358)          | 0x0271       |     20 |             11 |
| [389](#event-389)          | 0x0285       |     20 |             11 |
| [391](#event-391)          | 0x0299       |     24 |             13 |
| [9](#event-9)              | 0x02B1       |     31 |             13 |
| [5](#event-5)              | 0x02D0       |     31 |             13 |
| [11](#event-11)            | 0x02EF       |     31 |             13 |
| [347](#event-347)          | 0x030E       |     31 |             13 |
| [355](#event-355)          | 0x032D       |     31 |             13 |
| [357](#event-357)          | 0x034C       |     31 |             13 |
| [359](#event-359)          | 0x036B       |     31 |             13 |
| [390](#event-390)          | 0x038A       |     31 |             13 |
| [392](#event-392)          | 0x03A9       |     35 |             15 |
| [26](#event-26)            | 0x03CC       |     40 |             11 |
| [27](#event-27)            | 0x03F4       |     28 |              8 |
| [65535.1](#event-655351)   | 0x0410       |     28 |              8 |
| [65535.2](#event-655352)   | 0x042C       |     28 |              8 |
| [22](#event-22)            | 0x0448       |     29 |              9 |
| [25](#event-25)            | 0x0465       |     29 |              9 |
| [317](#event-317)          | 0x0482       |     52 |             12 |
| [360](#event-360)          | 0x04B6       |     25 |             12 |
| [65](#event-65)            | 0x04CF       |     38 |             17 |
| [321](#event-321)          | 0x04F5       |    409 |             78 |
| [322](#event-322)          | 0x068E       |   3191 |            743 |
| [324](#event-324)          | 0x1305       |     18 |              4 |
| [325](#event-325)          | 0x1317       |     18 |              4 |
| [327](#event-327)          | 0x1329       |     18 |              4 |
| [331](#event-331)          | 0x133B       |     18 |              4 |
| [332](#event-332)          | 0x134D       |     18 |              4 |
| [333](#event-333)          | 0x135F       |     18 |              4 |
| [334](#event-334)          | 0x1371       |     18 |              4 |
| [335](#event-335)          | 0x1383       |     18 |              4 |
| [336](#event-336)          | 0x1395       |     18 |              4 |
| [337](#event-337)          | 0x13A7       |     18 |              4 |
| [338](#event-338)          | 0x13B9       |     18 |              4 |
| [340](#event-340)          | 0x13CB       |     18 |              4 |
| [341](#event-341)          | 0x13DD       |     18 |              4 |
| [342](#event-342)          | 0x13EF       |     18 |              4 |
| [343](#event-343)          | 0x1401       |     18 |              4 |
| [344](#event-344)          | 0x1413       |     18 |              4 |
| [345](#event-345)          | 0x1425       |     18 |              4 |
| [65535.3](#event-655353)   | 0x1437       |     40 |              8 |
| [65535.4](#event-655354)   | 0x145F       |     40 |              8 |
| [65535.5](#event-655355)   | 0x1487       |    139 |             22 |
| [65535.6](#event-655356)   | 0x1512       |     15 |              5 |
| [65535.7](#event-655357)   | 0x1521       |     15 |              5 |
| [65535.8](#event-655358)   | 0x1530       |     30 |              8 |
| [65535.9](#event-655359)   | 0x154E       |     16 |              2 |
| [65535.10](#event-6553510) | 0x155E       |     33 |              7 |
| [65535.11](#event-6553511) | 0x157F       |     33 |              7 |
| [65535.12](#event-6553512) | 0x15A0       |     45 |             13 |
| [65535.13](#event-6553513) | 0x15CD       |    139 |             22 |
| [65535.14](#event-6553514) | 0x1658       |     15 |              5 |
| [65535.15](#event-6553515) | 0x1667       |     15 |              5 |
| [65535.16](#event-6553516) | 0x1676       |     15 |              5 |
| [65535.17](#event-6553517) | 0x1685       |     80 |             13 |
| [65535.18](#event-6553518) | 0x16D5       |     15 |              5 |
| [65535.19](#event-6553519) | 0x16E4       |     15 |              5 |
| [65535.20](#event-6553520) | 0x16F3       |     15 |              5 |
| [65535.21](#event-6553521) | 0x1702       |     15 |              5 |
| [65535.22](#event-6553522) | 0x1711       |     15 |              5 |
| [65535.23](#event-6553523) | 0x1720       |     53 |             10 |
| [65535.24](#event-6553524) | 0x1755       |     58 |             11 |
| [431](#event-431)          | 0x178F       |      1 |              1 |
| [434](#event-434)          | 0x1790       |      7 |              2 |
| [65535.25](#event-6553525) | 0x1797       |     55 |             11 |
| [65535.26](#event-6553526) | 0x17CE       |     16 |              2 |
| [65535.27](#event-6553527) | 0x17DE       |     14 |              2 |
| [65535.28](#event-6553528) | 0x17EC       |     16 |              2 |
| [65535.29](#event-6553529) | 0x17FC       |     14 |              2 |
| [65535.30](#event-6553530) | 0x180A       |     16 |              2 |
| [65535.31](#event-6553531) | 0x181A       |     14 |              2 |
| [65535.32](#event-6553532) | 0x1828       |     16 |              2 |
| [65535.33](#event-6553533) | 0x1838       |     14 |              2 |
| [65535.34](#event-6553534) | 0x1846       |     16 |              2 |
| [65535.35](#event-6553535) | 0x1856       |     14 |              2 |
| [65535.36](#event-6553536) | 0x1864       |     16 |              2 |
| [65535.37](#event-6553537) | 0x1874       |     14 |              2 |
| [65535.38](#event-6553538) | 0x1882       |     16 |              2 |
| [65535.39](#event-6553539) | 0x1892       |     14 |              2 |
| [65535.40](#event-6553540) | 0x18A0       |     16 |              2 |
| [65535.41](#event-6553541) | 0x18B0       |     14 |              2 |
| [65535.42](#event-6553542) | 0x18BE       |     16 |              2 |
| [65535.43](#event-6553543) | 0x18CE       |     14 |              2 |
| [65535.44](#event-6553544) | 0x18DC       |     16 |              2 |
| [65535.45](#event-6553545) | 0x18EC       |     14 |              2 |
| [65535.46](#event-6553546) | 0x18FA       |     16 |              2 |
| [65535.47](#event-6553547) | 0x190A       |     14 |              2 |
| [65535.48](#event-6553548) | 0x1918       |     16 |              2 |
| [65535.49](#event-6553549) | 0x1928       |     14 |              2 |
| [65535.50](#event-6553550) | 0x1936       |     16 |              2 |
| [65535.51](#event-6553551) | 0x1946       |     14 |              2 |
| [65535.52](#event-6553552) | 0x1954       |     28 |              4 |
| [65535.53](#event-6553553) | 0x1970       |     14 |              2 |
| [65535.54](#event-6553554) | 0x197E       |     16 |              2 |
| [65535.55](#event-6553555) | 0x198E       |     26 |              4 |
| [65535.56](#event-6553556) | 0x19A8       |     28 |              4 |
| [65535.57](#event-6553557) | 0x19C4       |     14 |              2 |
| [65535.58](#event-6553558) | 0x19D2       |     16 |              2 |
| [65535.59](#event-6553559) | 0x19E2       |     26 |              4 |
| [443](#event-443)          | 0x19FC       |      1 |              1 |
| [65535.60](#event-6553560) | 0x19FD       |     22 |              8 |
| [444](#event-444)          | 0x1A13       |      1 |              1 |
| [448](#event-448)          | 0x1A14       |      1 |              1 |
| [450](#event-450)          | 0x1A15       |     60 |             16 |

## DAT References (imed_data)

|   Index | Hex Value   |   Dec Value |
|---------|-------------|-------------|
|       0 | 0x0000      |           0 |
|       1 | 0x1CA4      |        7332 |
|       2 | 0x0041      |          65 |
|       3 | 0x1CA5      |        7333 |
|       4 | 0x1CA6      |        7334 |
|       5 | 0x1CA7      |        7335 |
|       6 | 0x1CA8      |        7336 |
|       7 | 0x1CA9      |        7337 |
|       8 | 0x1CAA      |        7338 |
|       9 | 0x1CAB      |        7339 |
|      10 | 0x1CAC      |        7340 |
|      11 | 0x1CAD      |        7341 |
|      12 | 0x1CAE      |        7342 |
|      13 | 0x1CAF      |        7343 |
|      14 | 0x0466      |        1126 |
|      15 | 0x046B      |        1131 |
|      16 | 0x0028      |          40 |
|      17 | 0x0499      |        1177 |
|      18 | 0x0032      |          50 |
|      19 | 0x046A      |        1130 |
|      20 | 0x003C      |          60 |
|      21 | 0x0467      |        1127 |
|      22 | 0x001E      |          30 |
|      23 | 0x0497      |        1175 |
|      24 | 0x049A      |        1178 |
|      25 | 0x049C      |        1180 |
|      26 | 0x0014      |          20 |
|      27 | 0x060F      |        1551 |
|      28 | 0x0610      |        1552 |
|      29 | 0x0063      |          99 |
|      30 | 0x0611      |        1553 |
|      31 | 0x0B8B      |        2955 |
|      32 | 0x0D17      |        3351 |
|      33 | 0x0D18      |        3352 |
|      34 | 0x0B8C      |        2956 |
|      35 | 0x0D7E      |        3454 |
|      36 | 0x0D7F      |        3455 |
|      37 | 0x0B8D      |        2957 |
|      38 | 0x000A      |          10 |
|      39 | 0x0FDE      |        4062 |
|      40 | 0x0FDF      |        4063 |
|      41 | 0x1CBA      |        7354 |
|      42 | 0x1CC3      |        7363 |
|      43 | 0x1CC4      |        7364 |
|      44 | 0x1CC0      |        7360 |
|      45 | 0x1CC1      |        7361 |
|      46 | 0x1CC2      |        7362 |
|      47 | 0x1CC6      |        7366 |
|      48 | 0x1CC7      |        7367 |
|      49 | 0x1CC8      |        7368 |
|      50 | 0x1CC9      |        7369 |
|      51 | 0x1CCA      |        7370 |
|      52 | 0x1CCB      |        7371 |
|      53 | 0x1CCC      |        7372 |
|      54 | 0x1CCD      |        7373 |
|      55 | 0x1CC5      |        7365 |
|      56 | 0x1CE8      |        7400 |
|      57 | 0x1FAD      |        8109 |
|      58 | 0x1FBC      |        8124 |
|      59 | 0x1FBD      |        8125 |
|      60 | 0x2239      |        8761 |
|      61 | 0x223A      |        8762 |
|      62 | 0x1CCF      |        7375 |
|      63 | 0x1CD0      |        7376 |
|      64 | 0x1CD1      |        7377 |
|      65 | 0x1CD2      |        7378 |
|      66 | 0x0010      |          16 |
|      67 | 0x001F      |          31 |
|      68 | 0x0001      |           1 |
|      69 | 0x0002      |           2 |
|      70 | 0x0003      |           3 |
|      71 | 0x0004      |           4 |
|      72 | 0x1CBB      |        7355 |
|      73 | 0x1CBC      |        7356 |
|      74 | 0x0005      |           5 |
|      75 | 0xFFFFFFFF  |  4294967295 |
|      76 | 0x1CBD      |        7357 |
|      77 | 0x1CBE      |        7358 |
|      78 | 0x000F      |          15 |
|      79 | 0x000C      |          12 |
|      80 | 0x1CB0      |        7344 |
|      81 | 0x2232      |        8754 |
|      82 | 0x2233      |        8755 |
|      83 | 0x2234      |        8756 |
|      84 | 0x2235      |        8757 |
|      85 | 0x2236      |        8758 |
|      86 | 0x2237      |        8759 |
|      87 | 0x0006      |           6 |
|      88 | 0x0007      |           7 |
|      89 | 0x0008      |           8 |
|      90 | 0x0009      |           9 |
|      91 | 0x07FE      |        2046 |
|      92 | 0x1CB1      |        7345 |
|      93 | 0x1CB2      |        7346 |
|      94 | 0x1CB7      |        7351 |
|      95 | 0x1CB8      |        7352 |
|      96 | 0x1CB9      |        7353 |
|      97 | 0x1CB3      |        7347 |
|      98 | 0x1CB4      |        7348 |
|      99 | 0x000B      |          11 |
|     100 | 0x1CB5      |        7349 |
|     101 | 0x000D      |          13 |
|     102 | 0x1CB6      |        7350 |
|     103 | 0x000E      |          14 |
|     104 | 0x1FEC      |        8172 |
|     105 | 0x1FED      |        8173 |
|     106 | 0x0064      |         100 |
|     107 | 0x00FE      |         254 |
|     108 | 0x1FEE      |        8174 |
|     109 | 0x1FF0      |        8176 |
|     110 | 0x1FEF      |        8175 |
|     111 | 0x00FF      |         255 |
|     112 | 0x00FD      |         253 |
|     113 | 0x00FC      |         252 |
|     114 | 0x00FB      |         251 |
|     115 | 0x1CD3      |        7379 |
|     116 | 0x1CD4      |        7380 |
|     117 | 0x1CD5      |        7381 |
|     118 | 0x0015      |          21 |
|     119 | 0x005A      |          90 |
|     120 | 0xFFFF43BD  |  4294919101 |
|     121 | 0x0E16      |        3606 |
|     122 | 0x03CD      |         973 |
|     123 | 0x0034      |          52 |
|     124 | 0x0078      |         120 |
|     125 | 0x5D1F      |       23839 |
|     126 | 0x1781      |        6017 |
|     127 | 0x02AF      |         687 |
|     128 | 0x0051      |          81 |
|     129 | 0x002D      |          45 |
|     130 | 0x08AE      |        2222 |
|     131 | 0x004B      |          75 |
|     132 | 0x0025      |          37 |
|     133 | 0xFFFEC504  |  4294886660 |
|     134 | 0xFFFFEAAC  |  4294961836 |
|     135 | 0x0027      |          39 |
|     136 | 0xFFFEC210  |  4294885904 |
|     137 | 0xFFFFEF62  |  4294963042 |
|     138 | 0x0029      |          41 |
|     139 | 0xFFFEBC38  |  4294884408 |
|     140 | 0xFFFFED5A  |  4294962522 |
|     141 | 0xFFFEAFBE  |  4294881214 |
|     142 | 0xFFFFFA5E  |  4294965854 |
|     143 | 0x00D8      |         216 |
|     144 | 0xFFFE7646  |  4294866502 |
|     145 | 0xFFFFF1A1  |  4294963617 |
|     146 | 0xFFFF89FB  |  4294937083 |
|     147 | 0xFFFFFA22  |  4294965794 |
|     148 | 0xFFFE86B8  |  4294870712 |
|     149 | 0xFFFFDEB9  |  4294958777 |
|     150 | 0x0E02      |        3586 |
|     151 | 0x0168      |         360 |
|     152 | 0xFFFE880F  |  4294871055 |
|     153 | 0x22A8      |        8872 |
|     154 | 0x0200      |         512 |
|     155 | 0xFFFF32B5  |  4294914741 |
|     156 | 0x079E      |        1950 |
|     157 | 0xFFFF402C  |  4294918188 |
|     158 | 0x0935      |        2357 |
|     159 | 0xFFFF35EA  |  4294915562 |
|     160 | 0x0B3F      |        2879 |
|     161 | 0xFFFF3A12  |  4294916626 |
|     162 | 0x09AA      |        2474 |
|     163 | 0xFFFE9692  |  4294874770 |
|     164 | 0xFFFFF68E  |  4294964878 |
|     165 | 0x0026      |          38 |
|     166 | 0xFFFE7DEB  |  4294868459 |
|     167 | 0xFFFFF5B0  |  4294964656 |
|     168 | 0x1387      |        4999 |
|     169 | 0xFFFFFCE1  |  4294966497 |
|     170 | 0xFFFED394  |  4294890388 |
|     171 | 0xFFFFF65F  |  4294964831 |
|     172 | 0xFFFF38F4  |  4294916340 |
|     173 | 0xFFFFF821  |  4294965281 |
|     174 | 0xFFFE5E8F  |  4294860431 |
|     175 | 0x0899      |        2201 |
|     176 | 0xFFFF7085  |  4294930565 |
|     177 | 0xFFFFF716  |  4294965014 |
|     178 | 0xFFFF1D41  |  4294909249 |
|     179 | 0x24D9      |        9433 |
|     180 | 0xFFFF236E  |  4294910830 |
|     181 | 0x2722      |       10018 |
|     182 | 0x00D7      |         215 |
|     183 | 0xFFFF34A9  |  4294915241 |
|     184 | 0x0881      |        2177 |
|     185 | 0x0013      |          19 |
|     186 | 0x010E      |         270 |
|     187 | 0x05FD      |        1533 |
|     188 | 0x04F6      |        1270 |
|     189 | 0xFFFF2928  |  4294912296 |
|     190 | 0x267D      |        9853 |
|     191 | 0x223B      |        8763 |
|     192 | 0x223C      |        8764 |
|     193 | 0x223D      |        8765 |
|     194 | 0x223E      |        8766 |

## String References

- **7332**: Hello there, [sir/madam]. I've got a very fine item. Would you like to have a look?
- **7333**: It's no regular glass bead! Why, this particular item has a monster trapped inside!
- **7334**: Apparently, this monster has swallowed a treasure! And as long as it remains inside this ball, there's no way to get it out, right? Wrong!
- **7335**: I was told that the monster can be released by tossing it into burning circles and strange doorways located around Vana'diel.
- **7336**: What do you say? I've still got lots of them!
- **7337**: Give me $2 $0 and I'll give you $1. Give me $4 of them for $3. Or, give me $6, and I'll let you have one of these $5. What a deal, huh?
- **7338**: For just $1 $0, I'll trade you $2, $3, or $4. You'd be crazy to pass this offer up!
- **7339**: And how about $1 $0 for $2, $3 for $4, or $5 $7 for $6? You won't be able to find a better price on goods like these anywhere in Vana'diel!
- **7340**: Oh ho, and what's this? $2 for $1 $0 or $4 for $3 of them. Why, these items are so brand-spankin' new, I didn't even know I had them!
- **7341**: Whoa there, friend! Walk away now and you'll miss the best part! Haha, that's right! This is a special offer for my favorite customer!
- **7342**: Let me lay it on the line for you--$1 $0 . That's all it'll take to get you this $2. I'll say that again to make it sound even more impressive. $2!
- **7343**: Or if you're looking to really splurge, how about $3 of those crests for $4? This deal's so hot that if you don't take it, I just might buy it from myself!
- **7344**: Now, I normally don't go about telling people about this, but seeing as how you look like a well-informed buyer who's been around the port once or twice... I'll give you the opportunity to trade in either $1 $0 for $2 or $3 for $4!
- **7345**: What'll it be, adventurer? [Never mind./Exchange $0./Exchange $1./Exchange $2./Exchange $3./Exchange $4./Retrieve $0./Retrieve $1./Retrieve $2./Retrieve $3./Retrieve $4./Review conditions./Review unsealed orbs.]
- **7346**: Select an orb. (You have $8 [seal/seals].) [Never mind./$0 ($9 seals)./$1 ($10 seals)./$2 ($11 seals)./$3 ($12 seals)./$4 ($13 seals).]
- **7347**: Select an orb. (You have $8 [seal/seals].) [Never mind./$0 ($9 seals)./$1 ($9 seals)./$2 ($9 seals)./$3 ($10 seals).]
- **7348**: Select an orb. (You have $8 [crest/crests].) [Never mind./$0 ($9 [crest/crests])./$1 ($10 [crest/crests]).]
- **7349**: Select an orb. (You have $8 [crest/crests].) [Never mind./$0 ($9 [crest/crests])./$1 ($10 [crest/crests]).]
- **7350**: Select an orb. (You have $8 [crest/crests].) [Never mind./$0 ($9 [crest/crests])./$1 ($10 [crest/crests]).]
- **7351**: $30? You sure, now? You'll be gettin' no refunds here, mind you.
- **7352**: Seal the deal on $30? [Yes, make it happen!/No, belay that order!]
- **7353**: Whoa, whoa, whoa! You think I'm running a charity, here? You ain't got enough $0 for that. Now get outta here and quit wasting my time!
- **7354**: All right, it's a deal. (Heh, what a sucker!)
- **7355**: Lemme see here... <Player>, is it? Here we go. As of last count, you've got a balance of $1 $0 .
- **7356**: Let's see. When taken together with those you've already given me, I'm currently holding the following:
- **7357**: $1 $0 .
- **7358**: That should be about it. Lemme know if you need anything else.
- **7360**: Excellent! $1 $0. Now choose which orb you want. Remember, no refunds! (Heh, what a sucker.)
- **7361**: You already gave me $1 $0. Now choose which orb you want.
- **7362**: Which orb do you want? [$0./$1.]
- **7363**: The merchant I bought it from told me that the monster can easily be released! Just toss it into the burning circles in Qu'Bia, the Yughott Grotto, the Palborough Mines, and Giddeus.
- **7364**: Ah, that's right. I also seem to remember an impetuously inquisitive adventurer mentioning the seal on that orb can be broken in the Sacrificial Chamber, the Chamber of Oracles, and on the door of the Throne Room in Castle Zvahl.
- **7365**: The dealer I bought these from said that all you have to do is throw that orb into the burning circle in the Qu'Bia Arena or the shimmering circle in the Chamber of Oracles, and poof! Instant monster!
- **7366**: I think I remember somebody saying that orb can be used in burning circles located deep within the Yughott Grotto, the Palborough Mines, Giddeus, and the Qu'Bia Arena. He also mentioned something about a door in Ghelsba...
- **7367**: The dealer that sold me that strange orb said that the monster inside could only be released by tossing it in burning circles in the Yughott Grotto, the Palborough Mines, and Giddeus, or at some strange door in Ghelsba.
- **7368**: I think the dealer that sold me the Themis orbs said something about being able to release the monster in burning circles in the Yughott Grotto, the Palborough Mines, and Giddeus.
- **7369**: The traveling merchant who sold me the orb said that the beast within can only be released in burning circles located deep within the Yughott Grotto, the Palborough Mines, and Giddeus, or in the arcane halls of the Sacrificial Chamber, the Chamber of Oracles, and the Spire of Vahzl. He was a shady sort, though, so who can say whether his word can be trusted?
- **7370**: The traveling merchant who sold me the orb said that the beast within can only be released in burning circles located deep within the Yughott Grotto, the Palborough Mines, and Giddeus, or in the arcane halls of the Spires of Holla, Dem, and Mea. He was a shady sort, though, so who can say whether his word can be trusted?
- **7371**: The trader who I acquired these from was muttering something about terrible beasts sealed away in the far-off reaches of Bearclaw Pinnacle and the Boneyard Gully. I give you fair warning though: there was something...unsettling about that man. That knotted, grime-ridden mess of hair reaching almost to the ground, that glint of madness in his bloodshot eyes...
- **7372**: The peddler who sold these to me was cackling wildly about ferocious beasts sealed away in the depths of Mine Shaft #2716 and Monarch Linn--wherever that might be. If you trust the words of a drooling old crone with gnarled, mold-encrusted fingernails as long as her arms and breath fouler than a bugbear's, you're welcome to try hunting them down.
- **7373**: Oh, dear! I see a crack here. It's worthless now, so I'll dispose of it. But, I've still got more!
- **7375**: Hey there, [buddy ol' pal/gorgeous]! Have I ever got the offer of a lifetime for you.
- **7376**: You see, I've been commissioned by my suppliers to come up with some accounts involving orbs to determine interest in their product.
- **7377**: I guess you could say I'm "testing the waters" of industry. Anyway, if I don't do this, they'll cut me off, which means you'll get cut off. So, mind lending a few minutes of your time to trusty Shami here?
- **7378**: You don't have to tell me right now about the battles you've fought with the orbs I've kindly given you in exchange for $0, of course. I'd never pressure my best buyer into doing something [he/she] didn't want to.
- **7379**: Oh, now's the perfect time? Well, the customer's always right! Gimme some juicy gossip about your orb-related exploits.
- **7380**: Orb-related exploits: [I have no further business with you./$26Tails of Woe. ([Unfinished/Conquered/With Honors])/$26The Worm's Turn. ([Unfinished/Conquered/With Honors])/$26Steamed Sprouts. ([Unfinished/Conquered/With Honors])/$26Factory Rejects. ([Unfinished/Conquered/With Honors])/$26Dismemberment Brigade. ([Unfinished/Conquered/With Honors])/$26Grimshell Shocktroopers. ([Unfinished/Conquered/With Honors])/$26Divine Punishers. ([Unfinished/Conquered/With Honors])/$26Demolition Squad. ([Unfinished/Conquered/With Honors])/$26Brothers D'Aurphe. ([Unfinished/Conquered/With Honors])/$26Legion XI Comitatensis. ([Unfinished/Conquered/With Honors])/$26Jungle Boogymen. ([Unfinished/Conquered/With Honors])/$26Amphibian Assault. ([Unfinished/Conquered/With Honors])/$26Kindred Spirits. ([Unfinished/Conquered/With Honors])]
- **7381**: I see, I see, I see... [Supply's drowning out any demand./If that's the case, then the status quo's probably good to go!/Amazing! You've been smiting everything left and right!] (I wonder how this'll impact my kickbacks.)
- **7400**: I'm sorry there, [son/miss], but I can only allow one exchange a week per adventurer. Come back again later.
- **8109**: <Player>'s badge flashes brightly.
- **8124**: Oh, I've heard rumors about that company's president...
- **8125**: Apparently, she's extremely aggressive and won't let anything she can use to her advantage slip through her iron grip. They say even the most hardened, rugged Galka becomes like a sheep for the slaughter around her.
- **8172**: Hey, what's the big idea, asking me to return something that you've handed over of your own volition?
- **8173**: <Sigh>... Fine, then. Just don't go spreading lies about how I don't look after my customers. I have $1 $0 of yours. So, how many do you want back?
- **8174**: Just to double-check, that's $2 $0 . Here you go.
- **8175**: What? Changing your mind again? Not that I'm complaining or anything...
- **8176**: Whoa, whoa, whoa! You think you can pull a fast one on me? I ain't got no more than $1 of your $0. Now, let's try this again.
- **8754**: Wait a minute. That couldn't be...but it is! Yes, that's $0 if I've ever seen one!
- **8755**: But you don't even know what it is, do you? Clearly not, the way it's stuffed willy-nilly in your Gobbiebag like a fistful of batagreens!
- **8756**: You should thank the Goddess that you ran into Shami today, my friend! Because if there's one thing Shami knows, Shami knows value!
- **8757**: Here's what Shami can do for you. I'll kindly take that curio off your hands and give you something equally impressive, but far more practical for an adventurer like yourself!
- **8758**: And if you've got anything similar to that $0, I'll trade for that as well!
- **8759**: I've traveled far and wide tracking down the most extraordinary treasures from the shiftiest, shadiest traders in the realm so you don't have to! Just trade me the goods, and these riches can be yours!
- **8761**: Wonderful! There's a suck-- Er, a satisfied customer born every minute!
- **8762**: So don't hesitate to come back, you hear?
- **8763**: I've got a juicy tidbit of information for you!
- **8764**: See this box? It's got a little something I procured through the black market.
- **8765**: Care to give it a whirl?
- **8766**: It's requires $0, which you can use to get an item to open treasure chests!

## Events

### Event 65535

#### Metadata

| Field        | Value   |
|--------------|---------|
| Entrypoint   | 0x0000  |
| Data Size    | 1 bytes |
| Instructions | 1       |

```
      00 01 02 03 04 05 06 07  08 09 0A 0B 0C 0D 0E 0F
      -- -- -- -- -- -- -- --  -- -- -- -- -- -- -- --
0000: 00                                                .               
```

#### Opcodes

```
  0: 0x0000 [0x00] END_REQSTACK()
```

### Event 23

#### Metadata

| Field        | Value     |
|--------------|-----------|
| Entrypoint   | 0x0001    |
| Data Size    | 342 bytes |
| Instructions | 77        |

```
      00 01 02 03 04 05 06 07  08 09 0A 0B 0C 0D 0E 0F
      -- -- -- -- -- -- -- --  -- -- -- -- -- -- -- --
0000:    03 01 00 09 10 1E F0  FF FF 7F 6F 70 02 01 00   ..........op...
0010: 00 80 00 62 00 1D 01 80  23 5B 02 80 F8 FF FF 7F  ...b....#[......
0020: F8 FF FF 7F 70 61 73 30  53 F8 FF FF 7F F8 FF FF  ....pas0S.......
0030: 7F 70 61 73 30 1D 03 80  23 5B 02 80 F8 FF FF 7F  .pas0...#[......
0040: F8 FF FF 7F 74 68 6B 31  1D 04 80 23 5B 02 80 F8  ....thk1...#[...
0050: FF FF 7F F8 FF FF 7F 74  68 6B 32 1D 05 80 23 01  .......thk2...#.
0060: 75 00 5B 02 80 F8 FF FF  7F F8 FF FF 7F 74 6C 6B  u.[..........tlk
0070: 31 1D 06 80 23 1A A2 00  1D 07 80 23 1A C6 00 1D  1...#......#....
0080: 08 80 23 1A E0 00 1D 09  80 23 1A 09 01 1D 0A 80  ..#......#......
0090: 23 1A 23 01 1D 0B 80 23  1D 0C 80 23 1D 0D 80 23  #.#....#...#...#
00A0: 21 00 03 02 10 0E 80 03  03 10 0F 80 03 04 10 10  !...............
00B0: 80 03 05 10 11 80 03 06  10 12 80 03 07 10 13 80  ................
00C0: 03 08 10 14 80 1B 03 02  10 15 80 03 03 10 16 80  ................
00D0: 03 04 10 17 80 03 05 10  18 80 03 06 10 19 80 1B  ................
00E0: 03 02 10 0E 80 03 03 10  1A 80 03 04 10 1B 80 03  ................
00F0: 05 10 16 80 03 06 10 1C  80 03 07 10 1D 80 03 08  ................
0100: 10 1E 80 03 09 10 15 80  1B 03 02 10 1F 80 03 03  ................
0110: 10 16 80 03 04 10 20 80  03 05 10 12 80 03 06 10  ...... .........
0120: 21 80 1B 03 02 10 22 80  03 03 10 16 80 03 04 10  !.....".........
0130: 23 80 03 05 10 12 80 03  06 10 24 80 1B 03 02 10  #.........$.....
0140: 25 80 03 03 10 26 80 03  04 10 27 80 03 05 10 1A  %....&....'.....
0150: 80 03 06 10 28 80 1B                              ....(..         
```

#### Opcodes

```
  0: 0x0001 [0x03] ExtData[1]->WorkLocal[1] = Work_Zone[9]
  1: 0x0006 [0x1E] EventEntity looks at LocalPlayer and starts talking
  2: 0x000B [0x6F] WAIT_FRAME_DELAY: Yield until WaitTime reaches zero
  3: 0x000C [0x70] WAIT_ENTITY_RENDER_FLAG: Wait while EventEntity->Render.Flags3 bit 2 is set (cancel turn if not)
  4: 0x000D [0x02] IF !(ExtData[1]->WorkLocal[1] == 0*) GOTO 0x0062
  5: 0x0015 [0x1D] PRINT_EVENT_MESSAGE(message_id=7332*)
    → "Hello there, [sir/madam]. I've got a very fine item. Would you like to have a look?"
  6: 0x0018 [0x23] WAIT_FOR_DIALOG_INTERACTION
  7: 0x0019 [0x5B] LOAD_EXT_SCHEDULER: Load scheduler "pas0" with entities [EventEntity, EventEntity], work=65*
  8: 0x0028 [0x53] WAIT_SCHEDULER_TASK: Wait for scheduler "pas0" with entities [EventEntity, EventEntity]
  9: 0x0035 [0x1D] PRINT_EVENT_MESSAGE(message_id=7333*)
    → "It's no regular glass bead! Why, this particular item has a monster trapped inside!"
 10: 0x0038 [0x23] WAIT_FOR_DIALOG_INTERACTION
 11: 0x0039 [0x5B] LOAD_EXT_SCHEDULER: Load scheduler "thk1" with entities [EventEntity, EventEntity], work=65*
 12: 0x0048 [0x1D] PRINT_EVENT_MESSAGE(message_id=7334*)
    → "Apparently, this monster has swallowed a treasure! And as long as it remains inside this ball, there's no way to get it out, right? Wrong!"
 13: 0x004B [0x23] WAIT_FOR_DIALOG_INTERACTION
 14: 0x004C [0x5B] LOAD_EXT_SCHEDULER: Load scheduler "thk2" with entities [EventEntity, EventEntity], work=65*
 15: 0x005B [0x1D] PRINT_EVENT_MESSAGE(message_id=7335*)
    → "I was told that the monster can be released by tossing it into burning circles and strange doorways located around Vana'diel."
 16: 0x005E [0x23] WAIT_FOR_DIALOG_INTERACTION
 17: 0x005F [0x01] GOTO 0x0075
 18: 0x0062 [0x5B] LOAD_EXT_SCHEDULER: Load scheduler "tlk1" with entities [EventEntity, EventEntity], work=65*
 19: 0x0071 [0x1D] PRINT_EVENT_MESSAGE(message_id=7336*)
    → "What do you say? I've still got lots of them!"
 20: 0x0074 [0x23] WAIT_FOR_DIALOG_INTERACTION

SUBROUTINE_0075:
 21: 0x0075 [0x1A] CALL_SUBROUTINE(address=0x00A2)
 22: 0x0078 [0x1D] PRINT_EVENT_MESSAGE(message_id=7337*)
    → "Give me $2 $0 and I'll give you $1. Give me $4 of them for $3. Or, give me $6, and I'll let you have one of these $5. What a deal, huh?"
 23: 0x007B [0x23] WAIT_FOR_DIALOG_INTERACTION
 24: 0x007C [0x1A] CALL_SUBROUTINE(address=0x00C6)
 25: 0x007F [0x1D] PRINT_EVENT_MESSAGE(message_id=7338*)
    → "For just $1 $0, I'll trade you $2, $3, or $4. You'd be crazy to pass this offer up!"
 26: 0x0082 [0x23] WAIT_FOR_DIALOG_INTERACTION
 27: 0x0083 [0x1A] CALL_SUBROUTINE(address=0x00E0)
 28: 0x0086 [0x1D] PRINT_EVENT_MESSAGE(message_id=7339*)
    → "And how about $1 $0 for $2, $3 for $4, or $5 $7 for $6? You won't be able to find a better price on goods like these anywhere in Vana'diel!"
 29: 0x0089 [0x23] WAIT_FOR_DIALOG_INTERACTION
 30: 0x008A [0x1A] CALL_SUBROUTINE(address=0x0109)
 31: 0x008D [0x1D] PRINT_EVENT_MESSAGE(message_id=7340*)
    → "Oh ho, and what's this? $2 for $1 $0 or $4 for $3 of them. Why, these items are so brand-spankin' new, I didn't even know I had them!"
 32: 0x0090 [0x23] WAIT_FOR_DIALOG_INTERACTION
 33: 0x0091 [0x1A] CALL_SUBROUTINE(address=0x0123)
 34: 0x0094 [0x1D] PRINT_EVENT_MESSAGE(message_id=7341*)
    → "Whoa there, friend! Walk away now and you'll miss the best part! Haha, that's right! This is a special offer for my favorite customer!"
 35: 0x0097 [0x23] WAIT_FOR_DIALOG_INTERACTION
 36: 0x0098 [0x1D] PRINT_EVENT_MESSAGE(message_id=7342*)
    → "Let me lay it on the line for you--$1 $0 . That's all it'll take to get you this $2. I'll say that again to make it sound even more impressive. $2!"
 37: 0x009B [0x23] WAIT_FOR_DIALOG_INTERACTION
 38: 0x009C [0x1D] PRINT_EVENT_MESSAGE(message_id=7343*)
    → "Or if you're looking to really splurge, how about $3 of those crests for $4? This deal's so hot that if you don't take it, I just might buy it from myself!"
 39: 0x009F [0x23] WAIT_FOR_DIALOG_INTERACTION
 40: 0x00A0 [0x21] END_EVENT
 41: 0x00A1 [0x00] END_REQSTACK()

SUBROUTINE_00A2:
 42: 0x00A2 [0x03] Work_Zone[2] = 1126*
 43: 0x00A7 [0x03] Work_Zone[3] = 1131*
 44: 0x00AC [0x03] Work_Zone[4] = 40*
 45: 0x00B1 [0x03] Work_Zone[5] = 1177*
 46: 0x00B6 [0x03] Work_Zone[6] = 50*
 47: 0x00BB [0x03] Work_Zone[7] = 1130*
 48: 0x00C0 [0x03] Work_Zone[8] = 60*
 49: 0x00C5 [0x1B] RETURN

SUBROUTINE_00C6:
 50: 0x00C6 [0x03] Work_Zone[2] = 1127*
 51: 0x00CB [0x03] Work_Zone[3] = 30*
 52: 0x00D0 [0x03] Work_Zone[4] = 1175*
 53: 0x00D5 [0x03] Work_Zone[5] = 1178*
 54: 0x00DA [0x03] Work_Zone[6] = 1180*
 55: 0x00DF [0x1B] RETURN

SUBROUTINE_00E0:
 56: 0x00E0 [0x03] Work_Zone[2] = 1126*
 57: 0x00E5 [0x03] Work_Zone[3] = 20*
 58: 0x00EA [0x03] Work_Zone[4] = 1551*
 59: 0x00EF [0x03] Work_Zone[5] = 30*
 60: 0x00F4 [0x03] Work_Zone[6] = 1552*
 61: 0x00F9 [0x03] Work_Zone[7] = 99*
 62: 0x00FE [0x03] Work_Zone[8] = 1553*
 63: 0x0103 [0x03] Work_Zone[9] = 1127*
 64: 0x0108 [0x1B] RETURN

SUBROUTINE_0109:
 65: 0x0109 [0x03] Work_Zone[2] = 2955*
 66: 0x010E [0x03] Work_Zone[3] = 30*
 67: 0x0113 [0x03] Work_Zone[4] = 3351*
 68: 0x0118 [0x03] Work_Zone[5] = 50*
 69: 0x011D [0x03] Work_Zone[6] = 3352*
 70: 0x0122 [0x1B] RETURN

SUBROUTINE_0123:
 71: 0x0123 [0x03] Work_Zone[2] = 2956*
 72: 0x0128 [0x03] Work_Zone[3] = 30*
 73: 0x012D [0x03] Work_Zone[4] = 3454*
 74: 0x0132 [0x03] Work_Zone[5] = 50*
 75: 0x0137 [0x03] Work_Zone[6] = 3455*
 76: 0x013C [0x1B] RETURN
```

#### Data or dead code:

```
# Dead code (unreachable instructions):
     0x013D [0x03] Work_Zone[2] = 2957*
     0x0142 [0x03] Work_Zone[3] = 10*
     0x0147 [0x03] Work_Zone[4] = 4062*
     0x014C [0x03] Work_Zone[5] = 20*
     0x0151 [0x03] Work_Zone[6] = 4063*
     0x0156 [0x1B] RETURN
```

### Event 24

#### Metadata

| Field        | Value    |
|--------------|----------|
| Entrypoint   | 0x0157   |
| Data Size    | 62 bytes |
| Instructions | 18       |

```
      00 01 02 03 04 05 06 07  08 09 0A 0B 0C 0D 0E 0F
      -- -- -- -- -- -- -- --  -- -- -- -- -- -- -- --
0150:                      03  02 00 02 10 20 01 42 1E         ..... .B.
0160: F0 FF FF 7F 6F 70 5B 02  80 F8 FF FF 7F F8 FF FF  ....op[.........
0170: 7F 74 6C 6B 31 1D 29 80  23 1D 2A 80 23 02 02 00  .tlk1.).#.*.#...
0180: 13 80 00 8E 01 03 07 10  13 80 1D 2B 80 23 03 01  ...........+.#..
0190: 10 02 00 21 00                                    ...!.           
```

#### Opcodes

```
  0: 0x0157 [0x03] ExtData[1]->WorkLocal[2] = Work_Zone[2]
  1: 0x015C [0x20] SET_CLI_EVENT_UC_FLAG: Lock player control
  2: 0x015E [0x42] SET_CLI_EVENT_CANCEL_DATA()
  3: 0x015F [0x1E] EventEntity looks at LocalPlayer and starts talking
  4: 0x0164 [0x6F] WAIT_FRAME_DELAY: Yield until WaitTime reaches zero
  5: 0x0165 [0x70] WAIT_ENTITY_RENDER_FLAG: Wait while EventEntity->Render.Flags3 bit 2 is set (cancel turn if not)
  6: 0x0166 [0x5B] LOAD_EXT_SCHEDULER: Load scheduler "tlk1" with entities [EventEntity, EventEntity], work=65*
  7: 0x0175 [0x1D] PRINT_EVENT_MESSAGE(message_id=7354*)
    → "All right, it's a deal. (Heh, what a sucker!)"
  8: 0x0178 [0x23] WAIT_FOR_DIALOG_INTERACTION
  9: 0x0179 [0x1D] PRINT_EVENT_MESSAGE(message_id=7363*)
    → "The merchant I bought it from told me that the monster can easily be released! Just toss it into the burning circles in Qu'Bia, the Yughott Grotto, the Palborough Mines, and Giddeus."
 10: 0x017C [0x23] WAIT_FOR_DIALOG_INTERACTION
 11: 0x017D [0x02] IF !(ExtData[1]->WorkLocal[2] == 1130*) GOTO 0x018E
 12: 0x0185 [0x03] Work_Zone[7] = 1130*
 13: 0x018A [0x1D] PRINT_EVENT_MESSAGE(message_id=7364*)
    → "Ah, that's right. I also seem to remember an impetuously inquisitive adventurer mentioning the seal on that orb can be broken in the Sacrificial Chamber, the Chamber of Oracles, and on the door of the Throne Room in Castle Zvahl."
 14: 0x018D [0x23] WAIT_FOR_DIALOG_INTERACTION
 15: 0x018E [0x03] Work_Zone[1] = ExtData[1]->WorkLocal[2]
 16: 0x0193 [0x21] END_EVENT
 17: 0x0194 [0x00] END_REQSTACK()
```

### Event 50

#### Metadata

| Field        | Value     |
|--------------|-----------|
| Entrypoint   | 0x0195    |
| Data Size    | 100 bytes |
| Instructions | 25        |

```
      00 01 02 03 04 05 06 07  08 09 0A 0B 0C 0D 0E 0F
      -- -- -- -- -- -- -- --  -- -- -- -- -- -- -- --
0190:                20 01 42  1E F0 FF FF 7F 6F 70 5B        .B.....op[
01A0: 02 80 F8 FF FF 7F F8 FF  FF 7F 74 6C 6B 31 03 02  ..........tlk1..
01B0: 10 15 80 03 03 10 16 80  02 09 10 00 80 00 C7 01  ................
01C0: 1D 2C 80 23 01 CB 01 1D  2D 80 23 5E 69 64 6C 30  .,.#....-.#^idl0
01D0: 03 02 10 17 80 03 03 10  18 80 03 04 10 19 80 24  ...............$
01E0: 2E 80 00 80 00 80 25 02  00 10 00 80 00 F2 01 01  ......%.........
01F0: F2 01 03 01 10 00 10 21  00                       .......!.       
```

#### Opcodes

```
  0: 0x0195 [0x20] SET_CLI_EVENT_UC_FLAG: Lock player control
  1: 0x0197 [0x42] SET_CLI_EVENT_CANCEL_DATA()
  2: 0x0198 [0x1E] EventEntity looks at LocalPlayer and starts talking
  3: 0x019D [0x6F] WAIT_FRAME_DELAY: Yield until WaitTime reaches zero
  4: 0x019E [0x70] WAIT_ENTITY_RENDER_FLAG: Wait while EventEntity->Render.Flags3 bit 2 is set (cancel turn if not)
  5: 0x019F [0x5B] LOAD_EXT_SCHEDULER: Load scheduler "tlk1" with entities [EventEntity, EventEntity], work=65*
  6: 0x01AE [0x03] Work_Zone[2] = 1127*
  7: 0x01B3 [0x03] Work_Zone[3] = 30*
  8: 0x01B8 [0x02] IF !(Work_Zone[9] == 0*) GOTO 0x01C7
  9: 0x01C0 [0x1D] PRINT_EVENT_MESSAGE(message_id=7360*)
    → "Excellent! $1 $0. Now choose which orb you want. Remember, no refunds! (Heh, what a sucker.)"
 10: 0x01C3 [0x23] WAIT_FOR_DIALOG_INTERACTION
 11: 0x01C4 [0x01] GOTO 0x01CB
 12: 0x01C7 [0x1D] PRINT_EVENT_MESSAGE(message_id=7361*)
    → "You already gave me $1 $0. Now choose which orb you want."
 13: 0x01CA [0x23] WAIT_FOR_DIALOG_INTERACTION

SUBROUTINE_01CB:
 14: 0x01CB [0x5E] EventEntity goes idle (kills current action) (animation: "idl0")
 15: 0x01D0 [0x03] Work_Zone[2] = 1175*
 16: 0x01D5 [0x03] Work_Zone[3] = 1178*
 17: 0x01DA [0x03] Work_Zone[4] = 1180*
 18: 0x01DF [0x24] CREATE_DIALOG(message_id=7362*, default_option=0*, option_flags=0*)
    → "Which orb do you want? [$0./$1.]"
 19: 0x01E6 [0x25] WAIT_DIALOG_SELECT()
 20: 0x01E7 [0x02] IF !(Work_Zone[0] == 0*) GOTO 0x01F2
 21: 0x01EF [0x01] GOTO 0x01F2

SUBROUTINE_01F2:
 22: 0x01F2 [0x03] Work_Zone[1] = Work_Zone[0]
 23: 0x01F7 [0x21] END_EVENT
 24: 0x01F8 [0x00] END_REQSTACK()
```

### Event 8

#### Metadata

| Field        | Value    |
|--------------|----------|
| Entrypoint   | 0x01F9   |
| Data Size    | 20 bytes |
| Instructions | 11       |

```
      00 01 02 03 04 05 06 07  08 09 0A 0B 0C 0D 0E 0F
      -- -- -- -- -- -- -- --  -- -- -- -- -- -- -- --
01F0:                             20 01 42 1E F0 FF FF            .B....
0200: 7F 6F 70 1D 29 80 23 1D  2F 80 23 21 00           .op.).#./.#!.   
```

#### Opcodes

```
  0: 0x01F9 [0x20] SET_CLI_EVENT_UC_FLAG: Lock player control
  1: 0x01FB [0x42] SET_CLI_EVENT_CANCEL_DATA()
  2: 0x01FC [0x1E] EventEntity looks at LocalPlayer and starts talking
  3: 0x0201 [0x6F] WAIT_FRAME_DELAY: Yield until WaitTime reaches zero
  4: 0x0202 [0x70] WAIT_ENTITY_RENDER_FLAG: Wait while EventEntity->Render.Flags3 bit 2 is set (cancel turn if not)
  5: 0x0203 [0x1D] PRINT_EVENT_MESSAGE(message_id=7354*)
    → "All right, it's a deal. (Heh, what a sucker!)"
  6: 0x0206 [0x23] WAIT_FOR_DIALOG_INTERACTION
  7: 0x0207 [0x1D] PRINT_EVENT_MESSAGE(message_id=7366*)
    → "I think I remember somebody saying that orb can be used in burning circles located deep within the Yughott Grotto, the Palborough Mines, Giddeus, and the Qu'Bia Arena. He also mentioned something about a door in Ghelsba..."
  8: 0x020A [0x23] WAIT_FOR_DIALOG_INTERACTION
  9: 0x020B [0x21] END_EVENT
 10: 0x020C [0x00] END_REQSTACK()
```

### Event 4

#### Metadata

| Field        | Value    |
|--------------|----------|
| Entrypoint   | 0x020D   |
| Data Size    | 20 bytes |
| Instructions | 11       |

```
      00 01 02 03 04 05 06 07  08 09 0A 0B 0C 0D 0E 0F
      -- -- -- -- -- -- -- --  -- -- -- -- -- -- -- --
0200:                                         20 01 42                .B
0210: 1E F0 FF FF 7F 6F 70 1D  29 80 23 1D 30 80 23 21  .....op.).#.0.#!
0220: 00                                                .               
```

#### Opcodes

```
  0: 0x020D [0x20] SET_CLI_EVENT_UC_FLAG: Lock player control
  1: 0x020F [0x42] SET_CLI_EVENT_CANCEL_DATA()
  2: 0x0210 [0x1E] EventEntity looks at LocalPlayer and starts talking
  3: 0x0215 [0x6F] WAIT_FRAME_DELAY: Yield until WaitTime reaches zero
  4: 0x0216 [0x70] WAIT_ENTITY_RENDER_FLAG: Wait while EventEntity->Render.Flags3 bit 2 is set (cancel turn if not)
  5: 0x0217 [0x1D] PRINT_EVENT_MESSAGE(message_id=7354*)
    → "All right, it's a deal. (Heh, what a sucker!)"
  6: 0x021A [0x23] WAIT_FOR_DIALOG_INTERACTION
  7: 0x021B [0x1D] PRINT_EVENT_MESSAGE(message_id=7367*)
    → "The dealer that sold me that strange orb said that the monster inside could only be released by tossing it in burning circles in the Yughott Grotto, the Palborough Mines, and Giddeus, or at some strange door in Ghelsba."
  8: 0x021E [0x23] WAIT_FOR_DIALOG_INTERACTION
  9: 0x021F [0x21] END_EVENT
 10: 0x0220 [0x00] END_REQSTACK()
```

### Event 10

#### Metadata

| Field        | Value    |
|--------------|----------|
| Entrypoint   | 0x0221   |
| Data Size    | 20 bytes |
| Instructions | 11       |

```
      00 01 02 03 04 05 06 07  08 09 0A 0B 0C 0D 0E 0F
      -- -- -- -- -- -- -- --  -- -- -- -- -- -- -- --
0220:    20 01 42 1E F0 FF FF  7F 6F 70 1D 29 80 23 1D    .B.....op.).#.
0230: 31 80 23 21 00                                    1.#!.           
```

#### Opcodes

```
  0: 0x0221 [0x20] SET_CLI_EVENT_UC_FLAG: Lock player control
  1: 0x0223 [0x42] SET_CLI_EVENT_CANCEL_DATA()
  2: 0x0224 [0x1E] EventEntity looks at LocalPlayer and starts talking
  3: 0x0229 [0x6F] WAIT_FRAME_DELAY: Yield until WaitTime reaches zero
  4: 0x022A [0x70] WAIT_ENTITY_RENDER_FLAG: Wait while EventEntity->Render.Flags3 bit 2 is set (cancel turn if not)
  5: 0x022B [0x1D] PRINT_EVENT_MESSAGE(message_id=7354*)
    → "All right, it's a deal. (Heh, what a sucker!)"
  6: 0x022E [0x23] WAIT_FOR_DIALOG_INTERACTION
  7: 0x022F [0x1D] PRINT_EVENT_MESSAGE(message_id=7368*)
    → "I think the dealer that sold me the Themis orbs said something about being able to release the monster in burning circles in the Yughott Grotto, the Palborough Mines, and Giddeus."
  8: 0x0232 [0x23] WAIT_FOR_DIALOG_INTERACTION
  9: 0x0233 [0x21] END_EVENT
 10: 0x0234 [0x00] END_REQSTACK()
```

### Event 346

#### Metadata

| Field        | Value    |
|--------------|----------|
| Entrypoint   | 0x0235   |
| Data Size    | 20 bytes |
| Instructions | 11       |

```
      00 01 02 03 04 05 06 07  08 09 0A 0B 0C 0D 0E 0F
      -- -- -- -- -- -- -- --  -- -- -- -- -- -- -- --
0230:                20 01 42  1E F0 FF FF 7F 6F 70 1D        .B.....op.
0240: 29 80 23 1D 32 80 23 21  00                       ).#.2.#!.       
```

#### Opcodes

```
  0: 0x0235 [0x20] SET_CLI_EVENT_UC_FLAG: Lock player control
  1: 0x0237 [0x42] SET_CLI_EVENT_CANCEL_DATA()
  2: 0x0238 [0x1E] EventEntity looks at LocalPlayer and starts talking
  3: 0x023D [0x6F] WAIT_FRAME_DELAY: Yield until WaitTime reaches zero
  4: 0x023E [0x70] WAIT_ENTITY_RENDER_FLAG: Wait while EventEntity->Render.Flags3 bit 2 is set (cancel turn if not)
  5: 0x023F [0x1D] PRINT_EVENT_MESSAGE(message_id=7354*)
    → "All right, it's a deal. (Heh, what a sucker!)"
  6: 0x0242 [0x23] WAIT_FOR_DIALOG_INTERACTION
  7: 0x0243 [0x1D] PRINT_EVENT_MESSAGE(message_id=7369*)
    → "The traveling merchant who sold me the orb said that the beast within can only be released in burning circles located deep within the Yughott Grotto, the Palborough Mines, and Giddeus, or in the arcane halls of the Sacrificial Chamber, the Chamber of Oracles, and the Spire of Vahzl. He was a shady sort, though, so who can say whether his word can be trusted?"
  8: 0x0246 [0x23] WAIT_FOR_DIALOG_INTERACTION
  9: 0x0247 [0x21] END_EVENT
 10: 0x0248 [0x00] END_REQSTACK()
```

### Event 354

#### Metadata

| Field        | Value    |
|--------------|----------|
| Entrypoint   | 0x0249   |
| Data Size    | 20 bytes |
| Instructions | 11       |

```
      00 01 02 03 04 05 06 07  08 09 0A 0B 0C 0D 0E 0F
      -- -- -- -- -- -- -- --  -- -- -- -- -- -- -- --
0240:                             20 01 42 1E F0 FF FF            .B....
0250: 7F 6F 70 1D 29 80 23 1D  33 80 23 21 00           .op.).#.3.#!.   
```

#### Opcodes

```
  0: 0x0249 [0x20] SET_CLI_EVENT_UC_FLAG: Lock player control
  1: 0x024B [0x42] SET_CLI_EVENT_CANCEL_DATA()
  2: 0x024C [0x1E] EventEntity looks at LocalPlayer and starts talking
  3: 0x0251 [0x6F] WAIT_FRAME_DELAY: Yield until WaitTime reaches zero
  4: 0x0252 [0x70] WAIT_ENTITY_RENDER_FLAG: Wait while EventEntity->Render.Flags3 bit 2 is set (cancel turn if not)
  5: 0x0253 [0x1D] PRINT_EVENT_MESSAGE(message_id=7354*)
    → "All right, it's a deal. (Heh, what a sucker!)"
  6: 0x0256 [0x23] WAIT_FOR_DIALOG_INTERACTION
  7: 0x0257 [0x1D] PRINT_EVENT_MESSAGE(message_id=7370*)
    → "The traveling merchant who sold me the orb said that the beast within can only be released in burning circles located deep within the Yughott Grotto, the Palborough Mines, and Giddeus, or in the arcane halls of the Spires of Holla, Dem, and Mea. He was a shady sort, though, so who can say whether his word can be trusted?"
  8: 0x025A [0x23] WAIT_FOR_DIALOG_INTERACTION
  9: 0x025B [0x21] END_EVENT
 10: 0x025C [0x00] END_REQSTACK()
```

### Event 356

#### Metadata

| Field        | Value    |
|--------------|----------|
| Entrypoint   | 0x025D   |
| Data Size    | 20 bytes |
| Instructions | 11       |

```
      00 01 02 03 04 05 06 07  08 09 0A 0B 0C 0D 0E 0F
      -- -- -- -- -- -- -- --  -- -- -- -- -- -- -- --
0250:                                         20 01 42                .B
0260: 1E F0 FF FF 7F 6F 70 1D  29 80 23 1D 34 80 23 21  .....op.).#.4.#!
0270: 00                                                .               
```

#### Opcodes

```
  0: 0x025D [0x20] SET_CLI_EVENT_UC_FLAG: Lock player control
  1: 0x025F [0x42] SET_CLI_EVENT_CANCEL_DATA()
  2: 0x0260 [0x1E] EventEntity looks at LocalPlayer and starts talking
  3: 0x0265 [0x6F] WAIT_FRAME_DELAY: Yield until WaitTime reaches zero
  4: 0x0266 [0x70] WAIT_ENTITY_RENDER_FLAG: Wait while EventEntity->Render.Flags3 bit 2 is set (cancel turn if not)
  5: 0x0267 [0x1D] PRINT_EVENT_MESSAGE(message_id=7354*)
    → "All right, it's a deal. (Heh, what a sucker!)"
  6: 0x026A [0x23] WAIT_FOR_DIALOG_INTERACTION
  7: 0x026B [0x1D] PRINT_EVENT_MESSAGE(message_id=7371*)
    → "The trader who I acquired these from was muttering something about terrible beasts sealed away in the far-off reaches of Bearclaw Pinnacle and the Boneyard Gully. I give you fair warning though: there was something...unsettling about that man. That knotted, grime-ridden mess of hair reaching almost to the ground, that glint of madness in his bloodshot eyes..."
  8: 0x026E [0x23] WAIT_FOR_DIALOG_INTERACTION
  9: 0x026F [0x21] END_EVENT
 10: 0x0270 [0x00] END_REQSTACK()
```

### Event 358

#### Metadata

| Field        | Value    |
|--------------|----------|
| Entrypoint   | 0x0271   |
| Data Size    | 20 bytes |
| Instructions | 11       |

```
      00 01 02 03 04 05 06 07  08 09 0A 0B 0C 0D 0E 0F
      -- -- -- -- -- -- -- --  -- -- -- -- -- -- -- --
0270:    20 01 42 1E F0 FF FF  7F 6F 70 1D 29 80 23 1D    .B.....op.).#.
0280: 35 80 23 21 00                                    5.#!.           
```

#### Opcodes

```
  0: 0x0271 [0x20] SET_CLI_EVENT_UC_FLAG: Lock player control
  1: 0x0273 [0x42] SET_CLI_EVENT_CANCEL_DATA()
  2: 0x0274 [0x1E] EventEntity looks at LocalPlayer and starts talking
  3: 0x0279 [0x6F] WAIT_FRAME_DELAY: Yield until WaitTime reaches zero
  4: 0x027A [0x70] WAIT_ENTITY_RENDER_FLAG: Wait while EventEntity->Render.Flags3 bit 2 is set (cancel turn if not)
  5: 0x027B [0x1D] PRINT_EVENT_MESSAGE(message_id=7354*)
    → "All right, it's a deal. (Heh, what a sucker!)"
  6: 0x027E [0x23] WAIT_FOR_DIALOG_INTERACTION
  7: 0x027F [0x1D] PRINT_EVENT_MESSAGE(message_id=7372*)
    → "The peddler who sold these to me was cackling wildly about ferocious beasts sealed away in the depths of Mine Shaft #2716 and Monarch Linn--wherever that might be. If you trust the words of a drooling old crone with gnarled, mold-encrusted fingernails as long as her arms and breath fouler than a bugbear's, you're welcome to try hunting them down."
  8: 0x0282 [0x23] WAIT_FOR_DIALOG_INTERACTION
  9: 0x0283 [0x21] END_EVENT
 10: 0x0284 [0x00] END_REQSTACK()
```

### Event 389

#### Metadata

| Field        | Value    |
|--------------|----------|
| Entrypoint   | 0x0285   |
| Data Size    | 20 bytes |
| Instructions | 11       |

```
      00 01 02 03 04 05 06 07  08 09 0A 0B 0C 0D 0E 0F
      -- -- -- -- -- -- -- --  -- -- -- -- -- -- -- --
0280:                20 01 42  1E F0 FF FF 7F 6F 70 1D        .B.....op.
0290: 29 80 23 1D 2A 80 23 21  00                       ).#.*.#!.       
```

#### Opcodes

```
  0: 0x0285 [0x20] SET_CLI_EVENT_UC_FLAG: Lock player control
  1: 0x0287 [0x42] SET_CLI_EVENT_CANCEL_DATA()
  2: 0x0288 [0x1E] EventEntity looks at LocalPlayer and starts talking
  3: 0x028D [0x6F] WAIT_FRAME_DELAY: Yield until WaitTime reaches zero
  4: 0x028E [0x70] WAIT_ENTITY_RENDER_FLAG: Wait while EventEntity->Render.Flags3 bit 2 is set (cancel turn if not)
  5: 0x028F [0x1D] PRINT_EVENT_MESSAGE(message_id=7354*)
    → "All right, it's a deal. (Heh, what a sucker!)"
  6: 0x0292 [0x23] WAIT_FOR_DIALOG_INTERACTION
  7: 0x0293 [0x1D] PRINT_EVENT_MESSAGE(message_id=7363*)
    → "The merchant I bought it from told me that the monster can easily be released! Just toss it into the burning circles in Qu'Bia, the Yughott Grotto, the Palborough Mines, and Giddeus."
  8: 0x0296 [0x23] WAIT_FOR_DIALOG_INTERACTION
  9: 0x0297 [0x21] END_EVENT
 10: 0x0298 [0x00] END_REQSTACK()
```

### Event 391

#### Metadata

| Field        | Value    |
|--------------|----------|
| Entrypoint   | 0x0299   |
| Data Size    | 24 bytes |
| Instructions | 13       |

```
      00 01 02 03 04 05 06 07  08 09 0A 0B 0C 0D 0E 0F
      -- -- -- -- -- -- -- --  -- -- -- -- -- -- -- --
0290:                             20 01 42 1E F0 FF FF            .B....
02A0: 7F 6F 70 1D 29 80 23 1D  2A 80 23 1D 2B 80 23 21  .op.).#.*.#.+.#!
02B0: 00                                                .               
```

#### Opcodes

```
  0: 0x0299 [0x20] SET_CLI_EVENT_UC_FLAG: Lock player control
  1: 0x029B [0x42] SET_CLI_EVENT_CANCEL_DATA()
  2: 0x029C [0x1E] EventEntity looks at LocalPlayer and starts talking
  3: 0x02A1 [0x6F] WAIT_FRAME_DELAY: Yield until WaitTime reaches zero
  4: 0x02A2 [0x70] WAIT_ENTITY_RENDER_FLAG: Wait while EventEntity->Render.Flags3 bit 2 is set (cancel turn if not)
  5: 0x02A3 [0x1D] PRINT_EVENT_MESSAGE(message_id=7354*)
    → "All right, it's a deal. (Heh, what a sucker!)"
  6: 0x02A6 [0x23] WAIT_FOR_DIALOG_INTERACTION
  7: 0x02A7 [0x1D] PRINT_EVENT_MESSAGE(message_id=7363*)
    → "The merchant I bought it from told me that the monster can easily be released! Just toss it into the burning circles in Qu'Bia, the Yughott Grotto, the Palborough Mines, and Giddeus."
  8: 0x02AA [0x23] WAIT_FOR_DIALOG_INTERACTION
  9: 0x02AB [0x1D] PRINT_EVENT_MESSAGE(message_id=7364*)
    → "Ah, that's right. I also seem to remember an impetuously inquisitive adventurer mentioning the seal on that orb can be broken in the Sacrificial Chamber, the Chamber of Oracles, and on the door of the Throne Room in Castle Zvahl."
 10: 0x02AE [0x23] WAIT_FOR_DIALOG_INTERACTION
 11: 0x02AF [0x21] END_EVENT
 12: 0x02B0 [0x00] END_REQSTACK()
```

### Event 9

#### Metadata

| Field        | Value    |
|--------------|----------|
| Entrypoint   | 0x02B1   |
| Data Size    | 31 bytes |
| Instructions | 13       |

```
      00 01 02 03 04 05 06 07  08 09 0A 0B 0C 0D 0E 0F
      -- -- -- -- -- -- -- --  -- -- -- -- -- -- -- --
02B0:    20 01 42 1E F0 FF FF  7F 6F 70 02 02 10 00 80    .B.....op.....
02C0: 00 CA 02 1D 2F 80 23 01  CE 02 1D 36 80 23 21 00  ..../.#....6.#!.
```

#### Opcodes

```
  0: 0x02B1 [0x20] SET_CLI_EVENT_UC_FLAG: Lock player control
  1: 0x02B3 [0x42] SET_CLI_EVENT_CANCEL_DATA()
  2: 0x02B4 [0x1E] EventEntity looks at LocalPlayer and starts talking
  3: 0x02B9 [0x6F] WAIT_FRAME_DELAY: Yield until WaitTime reaches zero
  4: 0x02BA [0x70] WAIT_ENTITY_RENDER_FLAG: Wait while EventEntity->Render.Flags3 bit 2 is set (cancel turn if not)
  5: 0x02BB [0x02] IF !(Work_Zone[2] == 0*) GOTO 0x02CA
  6: 0x02C3 [0x1D] PRINT_EVENT_MESSAGE(message_id=7366*)
    → "I think I remember somebody saying that orb can be used in burning circles located deep within the Yughott Grotto, the Palborough Mines, Giddeus, and the Qu'Bia Arena. He also mentioned something about a door in Ghelsba..."
  7: 0x02C6 [0x23] WAIT_FOR_DIALOG_INTERACTION
  8: 0x02C7 [0x01] GOTO 0x02CE
  9: 0x02CA [0x1D] PRINT_EVENT_MESSAGE(message_id=7373*)
    → "Oh, dear! I see a crack here. It's worthless now, so I'll dispose of it. But, I've still got more!"
 10: 0x02CD [0x23] WAIT_FOR_DIALOG_INTERACTION

SUBROUTINE_02CE:
 11: 0x02CE [0x21] END_EVENT
 12: 0x02CF [0x00] END_REQSTACK()
```

### Event 5

#### Metadata

| Field        | Value    |
|--------------|----------|
| Entrypoint   | 0x02D0   |
| Data Size    | 31 bytes |
| Instructions | 13       |

```
      00 01 02 03 04 05 06 07  08 09 0A 0B 0C 0D 0E 0F
      -- -- -- -- -- -- -- --  -- -- -- -- -- -- -- --
02D0: 20 01 42 1E F0 FF FF 7F  6F 70 02 02 10 00 80 00   .B.....op......
02E0: E9 02 1D 30 80 23 01 ED  02 1D 36 80 23 21 00     ...0.#....6.#!. 
```

#### Opcodes

```
  0: 0x02D0 [0x20] SET_CLI_EVENT_UC_FLAG: Lock player control
  1: 0x02D2 [0x42] SET_CLI_EVENT_CANCEL_DATA()
  2: 0x02D3 [0x1E] EventEntity looks at LocalPlayer and starts talking
  3: 0x02D8 [0x6F] WAIT_FRAME_DELAY: Yield until WaitTime reaches zero
  4: 0x02D9 [0x70] WAIT_ENTITY_RENDER_FLAG: Wait while EventEntity->Render.Flags3 bit 2 is set (cancel turn if not)
  5: 0x02DA [0x02] IF !(Work_Zone[2] == 0*) GOTO 0x02E9
  6: 0x02E2 [0x1D] PRINT_EVENT_MESSAGE(message_id=7367*)
    → "The dealer that sold me that strange orb said that the monster inside could only be released by tossing it in burning circles in the Yughott Grotto, the Palborough Mines, and Giddeus, or at some strange door in Ghelsba."
  7: 0x02E5 [0x23] WAIT_FOR_DIALOG_INTERACTION
  8: 0x02E6 [0x01] GOTO 0x02ED
  9: 0x02E9 [0x1D] PRINT_EVENT_MESSAGE(message_id=7373*)
    → "Oh, dear! I see a crack here. It's worthless now, so I'll dispose of it. But, I've still got more!"
 10: 0x02EC [0x23] WAIT_FOR_DIALOG_INTERACTION

SUBROUTINE_02ED:
 11: 0x02ED [0x21] END_EVENT
 12: 0x02EE [0x00] END_REQSTACK()
```

### Event 11

#### Metadata

| Field        | Value    |
|--------------|----------|
| Entrypoint   | 0x02EF   |
| Data Size    | 31 bytes |
| Instructions | 13       |

```
      00 01 02 03 04 05 06 07  08 09 0A 0B 0C 0D 0E 0F
      -- -- -- -- -- -- -- --  -- -- -- -- -- -- -- --
02E0:                                               20                  
02F0: 01 42 1E F0 FF FF 7F 6F  70 02 02 10 00 80 00 08  .B.....op.......
0300: 03 1D 31 80 23 01 0C 03  1D 36 80 23 21 00        ..1.#....6.#!.  
```

#### Opcodes

```
  0: 0x02EF [0x20] SET_CLI_EVENT_UC_FLAG: Lock player control
  1: 0x02F1 [0x42] SET_CLI_EVENT_CANCEL_DATA()
  2: 0x02F2 [0x1E] EventEntity looks at LocalPlayer and starts talking
  3: 0x02F7 [0x6F] WAIT_FRAME_DELAY: Yield until WaitTime reaches zero
  4: 0x02F8 [0x70] WAIT_ENTITY_RENDER_FLAG: Wait while EventEntity->Render.Flags3 bit 2 is set (cancel turn if not)
  5: 0x02F9 [0x02] IF !(Work_Zone[2] == 0*) GOTO 0x0308
  6: 0x0301 [0x1D] PRINT_EVENT_MESSAGE(message_id=7368*)
    → "I think the dealer that sold me the Themis orbs said something about being able to release the monster in burning circles in the Yughott Grotto, the Palborough Mines, and Giddeus."
  7: 0x0304 [0x23] WAIT_FOR_DIALOG_INTERACTION
  8: 0x0305 [0x01] GOTO 0x030C
  9: 0x0308 [0x1D] PRINT_EVENT_MESSAGE(message_id=7373*)
    → "Oh, dear! I see a crack here. It's worthless now, so I'll dispose of it. But, I've still got more!"
 10: 0x030B [0x23] WAIT_FOR_DIALOG_INTERACTION

SUBROUTINE_030C:
 11: 0x030C [0x21] END_EVENT
 12: 0x030D [0x00] END_REQSTACK()
```

### Event 347

#### Metadata

| Field        | Value    |
|--------------|----------|
| Entrypoint   | 0x030E   |
| Data Size    | 31 bytes |
| Instructions | 13       |

```
      00 01 02 03 04 05 06 07  08 09 0A 0B 0C 0D 0E 0F
      -- -- -- -- -- -- -- --  -- -- -- -- -- -- -- --
0300:                                            20 01                 .
0310: 42 1E F0 FF FF 7F 6F 70  02 02 10 00 80 00 27 03  B.....op......'.
0320: 1D 32 80 23 01 2B 03 1D  36 80 23 21 00           .2.#.+..6.#!.   
```

#### Opcodes

```
  0: 0x030E [0x20] SET_CLI_EVENT_UC_FLAG: Lock player control
  1: 0x0310 [0x42] SET_CLI_EVENT_CANCEL_DATA()
  2: 0x0311 [0x1E] EventEntity looks at LocalPlayer and starts talking
  3: 0x0316 [0x6F] WAIT_FRAME_DELAY: Yield until WaitTime reaches zero
  4: 0x0317 [0x70] WAIT_ENTITY_RENDER_FLAG: Wait while EventEntity->Render.Flags3 bit 2 is set (cancel turn if not)
  5: 0x0318 [0x02] IF !(Work_Zone[2] == 0*) GOTO 0x0327
  6: 0x0320 [0x1D] PRINT_EVENT_MESSAGE(message_id=7369*)
    → "The traveling merchant who sold me the orb said that the beast within can only be released in burning circles located deep within the Yughott Grotto, the Palborough Mines, and Giddeus, or in the arcane halls of the Sacrificial Chamber, the Chamber of Oracles, and the Spire of Vahzl. He was a shady sort, though, so who can say whether his word can be trusted?"
  7: 0x0323 [0x23] WAIT_FOR_DIALOG_INTERACTION
  8: 0x0324 [0x01] GOTO 0x032B
  9: 0x0327 [0x1D] PRINT_EVENT_MESSAGE(message_id=7373*)
    → "Oh, dear! I see a crack here. It's worthless now, so I'll dispose of it. But, I've still got more!"
 10: 0x032A [0x23] WAIT_FOR_DIALOG_INTERACTION

SUBROUTINE_032B:
 11: 0x032B [0x21] END_EVENT
 12: 0x032C [0x00] END_REQSTACK()
```

### Event 355

#### Metadata

| Field        | Value    |
|--------------|----------|
| Entrypoint   | 0x032D   |
| Data Size    | 31 bytes |
| Instructions | 13       |

```
      00 01 02 03 04 05 06 07  08 09 0A 0B 0C 0D 0E 0F
      -- -- -- -- -- -- -- --  -- -- -- -- -- -- -- --
0320:                                         20 01 42                .B
0330: 1E F0 FF FF 7F 6F 70 02  02 10 00 80 00 46 03 1D  .....op......F..
0340: 33 80 23 01 4A 03 1D 36  80 23 21 00              3.#.J..6.#!.    
```

#### Opcodes

```
  0: 0x032D [0x20] SET_CLI_EVENT_UC_FLAG: Lock player control
  1: 0x032F [0x42] SET_CLI_EVENT_CANCEL_DATA()
  2: 0x0330 [0x1E] EventEntity looks at LocalPlayer and starts talking
  3: 0x0335 [0x6F] WAIT_FRAME_DELAY: Yield until WaitTime reaches zero
  4: 0x0336 [0x70] WAIT_ENTITY_RENDER_FLAG: Wait while EventEntity->Render.Flags3 bit 2 is set (cancel turn if not)
  5: 0x0337 [0x02] IF !(Work_Zone[2] == 0*) GOTO 0x0346
  6: 0x033F [0x1D] PRINT_EVENT_MESSAGE(message_id=7370*)
    → "The traveling merchant who sold me the orb said that the beast within can only be released in burning circles located deep within the Yughott Grotto, the Palborough Mines, and Giddeus, or in the arcane halls of the Spires of Holla, Dem, and Mea. He was a shady sort, though, so who can say whether his word can be trusted?"
  7: 0x0342 [0x23] WAIT_FOR_DIALOG_INTERACTION
  8: 0x0343 [0x01] GOTO 0x034A
  9: 0x0346 [0x1D] PRINT_EVENT_MESSAGE(message_id=7373*)
    → "Oh, dear! I see a crack here. It's worthless now, so I'll dispose of it. But, I've still got more!"
 10: 0x0349 [0x23] WAIT_FOR_DIALOG_INTERACTION

SUBROUTINE_034A:
 11: 0x034A [0x21] END_EVENT
 12: 0x034B [0x00] END_REQSTACK()
```

### Event 357

#### Metadata

| Field        | Value    |
|--------------|----------|
| Entrypoint   | 0x034C   |
| Data Size    | 31 bytes |
| Instructions | 13       |

```
      00 01 02 03 04 05 06 07  08 09 0A 0B 0C 0D 0E 0F
      -- -- -- -- -- -- -- --  -- -- -- -- -- -- -- --
0340:                                      20 01 42 1E               .B.
0350: F0 FF FF 7F 6F 70 02 02  10 00 80 00 65 03 1D 34  ....op......e..4
0360: 80 23 01 69 03 1D 36 80  23 21 00                 .#.i..6.#!.     
```

#### Opcodes

```
  0: 0x034C [0x20] SET_CLI_EVENT_UC_FLAG: Lock player control
  1: 0x034E [0x42] SET_CLI_EVENT_CANCEL_DATA()
  2: 0x034F [0x1E] EventEntity looks at LocalPlayer and starts talking
  3: 0x0354 [0x6F] WAIT_FRAME_DELAY: Yield until WaitTime reaches zero
  4: 0x0355 [0x70] WAIT_ENTITY_RENDER_FLAG: Wait while EventEntity->Render.Flags3 bit 2 is set (cancel turn if not)
  5: 0x0356 [0x02] IF !(Work_Zone[2] == 0*) GOTO 0x0365
  6: 0x035E [0x1D] PRINT_EVENT_MESSAGE(message_id=7371*)
    → "The trader who I acquired these from was muttering something about terrible beasts sealed away in the far-off reaches of Bearclaw Pinnacle and the Boneyard Gully. I give you fair warning though: there was something...unsettling about that man. That knotted, grime-ridden mess of hair reaching almost to the ground, that glint of madness in his bloodshot eyes..."
  7: 0x0361 [0x23] WAIT_FOR_DIALOG_INTERACTION
  8: 0x0362 [0x01] GOTO 0x0369
  9: 0x0365 [0x1D] PRINT_EVENT_MESSAGE(message_id=7373*)
    → "Oh, dear! I see a crack here. It's worthless now, so I'll dispose of it. But, I've still got more!"
 10: 0x0368 [0x23] WAIT_FOR_DIALOG_INTERACTION

SUBROUTINE_0369:
 11: 0x0369 [0x21] END_EVENT
 12: 0x036A [0x00] END_REQSTACK()
```

### Event 359

#### Metadata

| Field        | Value    |
|--------------|----------|
| Entrypoint   | 0x036B   |
| Data Size    | 31 bytes |
| Instructions | 13       |

```
      00 01 02 03 04 05 06 07  08 09 0A 0B 0C 0D 0E 0F
      -- -- -- -- -- -- -- --  -- -- -- -- -- -- -- --
0360:                                   20 01 42 1E F0              .B..
0370: FF FF 7F 6F 70 02 02 10  00 80 00 84 03 1D 35 80  ...op.........5.
0380: 23 01 88 03 1D 36 80 23  21 00                    #....6.#!.      
```

#### Opcodes

```
  0: 0x036B [0x20] SET_CLI_EVENT_UC_FLAG: Lock player control
  1: 0x036D [0x42] SET_CLI_EVENT_CANCEL_DATA()
  2: 0x036E [0x1E] EventEntity looks at LocalPlayer and starts talking
  3: 0x0373 [0x6F] WAIT_FRAME_DELAY: Yield until WaitTime reaches zero
  4: 0x0374 [0x70] WAIT_ENTITY_RENDER_FLAG: Wait while EventEntity->Render.Flags3 bit 2 is set (cancel turn if not)
  5: 0x0375 [0x02] IF !(Work_Zone[2] == 0*) GOTO 0x0384
  6: 0x037D [0x1D] PRINT_EVENT_MESSAGE(message_id=7372*)
    → "The peddler who sold these to me was cackling wildly about ferocious beasts sealed away in the depths of Mine Shaft #2716 and Monarch Linn--wherever that might be. If you trust the words of a drooling old crone with gnarled, mold-encrusted fingernails as long as her arms and breath fouler than a bugbear's, you're welcome to try hunting them down."
  7: 0x0380 [0x23] WAIT_FOR_DIALOG_INTERACTION
  8: 0x0381 [0x01] GOTO 0x0388
  9: 0x0384 [0x1D] PRINT_EVENT_MESSAGE(message_id=7373*)
    → "Oh, dear! I see a crack here. It's worthless now, so I'll dispose of it. But, I've still got more!"
 10: 0x0387 [0x23] WAIT_FOR_DIALOG_INTERACTION

SUBROUTINE_0388:
 11: 0x0388 [0x21] END_EVENT
 12: 0x0389 [0x00] END_REQSTACK()
```

### Event 390

#### Metadata

| Field        | Value    |
|--------------|----------|
| Entrypoint   | 0x038A   |
| Data Size    | 31 bytes |
| Instructions | 13       |

```
      00 01 02 03 04 05 06 07  08 09 0A 0B 0C 0D 0E 0F
      -- -- -- -- -- -- -- --  -- -- -- -- -- -- -- --
0380:                                20 01 42 1E F0 FF             .B...
0390: FF 7F 6F 70 02 02 10 00  80 00 A3 03 1D 2A 80 23  ..op.........*.#
03A0: 01 A7 03 1D 36 80 23 21  00                       ....6.#!.       
```

#### Opcodes

```
  0: 0x038A [0x20] SET_CLI_EVENT_UC_FLAG: Lock player control
  1: 0x038C [0x42] SET_CLI_EVENT_CANCEL_DATA()
  2: 0x038D [0x1E] EventEntity looks at LocalPlayer and starts talking
  3: 0x0392 [0x6F] WAIT_FRAME_DELAY: Yield until WaitTime reaches zero
  4: 0x0393 [0x70] WAIT_ENTITY_RENDER_FLAG: Wait while EventEntity->Render.Flags3 bit 2 is set (cancel turn if not)
  5: 0x0394 [0x02] IF !(Work_Zone[2] == 0*) GOTO 0x03A3
  6: 0x039C [0x1D] PRINT_EVENT_MESSAGE(message_id=7363*)
    → "The merchant I bought it from told me that the monster can easily be released! Just toss it into the burning circles in Qu'Bia, the Yughott Grotto, the Palborough Mines, and Giddeus."
  7: 0x039F [0x23] WAIT_FOR_DIALOG_INTERACTION
  8: 0x03A0 [0x01] GOTO 0x03A7
  9: 0x03A3 [0x1D] PRINT_EVENT_MESSAGE(message_id=7373*)
    → "Oh, dear! I see a crack here. It's worthless now, so I'll dispose of it. But, I've still got more!"
 10: 0x03A6 [0x23] WAIT_FOR_DIALOG_INTERACTION

SUBROUTINE_03A7:
 11: 0x03A7 [0x21] END_EVENT
 12: 0x03A8 [0x00] END_REQSTACK()
```

### Event 392

#### Metadata

| Field        | Value    |
|--------------|----------|
| Entrypoint   | 0x03A9   |
| Data Size    | 35 bytes |
| Instructions | 15       |

```
      00 01 02 03 04 05 06 07  08 09 0A 0B 0C 0D 0E 0F
      -- -- -- -- -- -- -- --  -- -- -- -- -- -- -- --
03A0:                             20 01 42 1E F0 FF FF            .B....
03B0: 7F 6F 70 02 02 10 00 80  00 C6 03 1D 2A 80 23 1D  .op.........*.#.
03C0: 2B 80 23 01 CA 03 1D 36  80 23 21 00              +.#....6.#!.    
```

#### Opcodes

```
  0: 0x03A9 [0x20] SET_CLI_EVENT_UC_FLAG: Lock player control
  1: 0x03AB [0x42] SET_CLI_EVENT_CANCEL_DATA()
  2: 0x03AC [0x1E] EventEntity looks at LocalPlayer and starts talking
  3: 0x03B1 [0x6F] WAIT_FRAME_DELAY: Yield until WaitTime reaches zero
  4: 0x03B2 [0x70] WAIT_ENTITY_RENDER_FLAG: Wait while EventEntity->Render.Flags3 bit 2 is set (cancel turn if not)
  5: 0x03B3 [0x02] IF !(Work_Zone[2] == 0*) GOTO 0x03C6
  6: 0x03BB [0x1D] PRINT_EVENT_MESSAGE(message_id=7363*)
    → "The merchant I bought it from told me that the monster can easily be released! Just toss it into the burning circles in Qu'Bia, the Yughott Grotto, the Palborough Mines, and Giddeus."
  7: 0x03BE [0x23] WAIT_FOR_DIALOG_INTERACTION
  8: 0x03BF [0x1D] PRINT_EVENT_MESSAGE(message_id=7364*)
    → "Ah, that's right. I also seem to remember an impetuously inquisitive adventurer mentioning the seal on that orb can be broken in the Sacrificial Chamber, the Chamber of Oracles, and on the door of the Throne Room in Castle Zvahl."
  9: 0x03C2 [0x23] WAIT_FOR_DIALOG_INTERACTION
 10: 0x03C3 [0x01] GOTO 0x03CA
 11: 0x03C6 [0x1D] PRINT_EVENT_MESSAGE(message_id=7373*)
    → "Oh, dear! I see a crack here. It's worthless now, so I'll dispose of it. But, I've still got more!"
 12: 0x03C9 [0x23] WAIT_FOR_DIALOG_INTERACTION

SUBROUTINE_03CA:
 13: 0x03CA [0x21] END_EVENT
 14: 0x03CB [0x00] END_REQSTACK()
```

### Event 26

#### Metadata

| Field        | Value    |
|--------------|----------|
| Entrypoint   | 0x03CC   |
| Data Size    | 40 bytes |
| Instructions | 11       |

```
      00 01 02 03 04 05 06 07  08 09 0A 0B 0C 0D 0E 0F
      -- -- -- -- -- -- -- --  -- -- -- -- -- -- -- --
03C0:                                      1E F0 FF FF              ....
03D0: 7F 6F 70 5B 02 80 F8 FF  FF 7F F8 FF FF 7F 74 6C  .op[..........tl
03E0: 6B 31 1D 2A 80 23 02 07  10 13 80 00 F2 03 1D 2B  k1.*.#.........+
03F0: 80 23 21 00                                       .#!.            
```

#### Opcodes

```
  0: 0x03CC [0x1E] EventEntity looks at LocalPlayer and starts talking
  1: 0x03D1 [0x6F] WAIT_FRAME_DELAY: Yield until WaitTime reaches zero
  2: 0x03D2 [0x70] WAIT_ENTITY_RENDER_FLAG: Wait while EventEntity->Render.Flags3 bit 2 is set (cancel turn if not)
  3: 0x03D3 [0x5B] LOAD_EXT_SCHEDULER: Load scheduler "tlk1" with entities [EventEntity, EventEntity], work=65*
  4: 0x03E2 [0x1D] PRINT_EVENT_MESSAGE(message_id=7363*)
    → "The merchant I bought it from told me that the monster can easily be released! Just toss it into the burning circles in Qu'Bia, the Yughott Grotto, the Palborough Mines, and Giddeus."
  5: 0x03E5 [0x23] WAIT_FOR_DIALOG_INTERACTION
  6: 0x03E6 [0x02] IF !(Work_Zone[7] == 1130*) GOTO 0x03F2
  7: 0x03EE [0x1D] PRINT_EVENT_MESSAGE(message_id=7364*)
    → "Ah, that's right. I also seem to remember an impetuously inquisitive adventurer mentioning the seal on that orb can be broken in the Sacrificial Chamber, the Chamber of Oracles, and on the door of the Throne Room in Castle Zvahl."
  8: 0x03F1 [0x23] WAIT_FOR_DIALOG_INTERACTION
  9: 0x03F2 [0x21] END_EVENT
 10: 0x03F3 [0x00] END_REQSTACK()
```

### Event 27

#### Metadata

| Field        | Value    |
|--------------|----------|
| Entrypoint   | 0x03F4   |
| Data Size    | 28 bytes |
| Instructions | 8        |

```
      00 01 02 03 04 05 06 07  08 09 0A 0B 0C 0D 0E 0F
      -- -- -- -- -- -- -- --  -- -- -- -- -- -- -- --
03F0:             1E F0 FF FF  7F 6F 70 5B 02 80 F8 FF      .....op[....
0400: FF 7F F8 FF FF 7F 74 6C  6B 31 1D 37 80 23 21 00  ......tlk1.7.#!.
```

#### Opcodes

```
  0: 0x03F4 [0x1E] EventEntity looks at LocalPlayer and starts talking
  1: 0x03F9 [0x6F] WAIT_FRAME_DELAY: Yield until WaitTime reaches zero
  2: 0x03FA [0x70] WAIT_ENTITY_RENDER_FLAG: Wait while EventEntity->Render.Flags3 bit 2 is set (cancel turn if not)
  3: 0x03FB [0x5B] LOAD_EXT_SCHEDULER: Load scheduler "tlk1" with entities [EventEntity, EventEntity], work=65*
  4: 0x040A [0x1D] PRINT_EVENT_MESSAGE(message_id=7365*)
    → "The dealer I bought these from said that all you have to do is throw that orb into the burning circle in the Qu'Bia Arena or the shimmering circle in the Chamber of Oracles, and poof! Instant monster!"
  5: 0x040D [0x23] WAIT_FOR_DIALOG_INTERACTION
  6: 0x040E [0x21] END_EVENT
  7: 0x040F [0x00] END_REQSTACK()
```

### Event 65535.1

#### Metadata

| Field        | Value    |
|--------------|----------|
| Entrypoint   | 0x0410   |
| Data Size    | 28 bytes |
| Instructions | 8        |

```
      00 01 02 03 04 05 06 07  08 09 0A 0B 0C 0D 0E 0F
      -- -- -- -- -- -- -- --  -- -- -- -- -- -- -- --
0410: 1E F0 FF FF 7F 6F 70 5B  02 80 F8 FF FF 7F F8 FF  .....op[........
0420: FF 7F 74 6C 6B 31 1D 31  80 23 21 00              ..tlk1.1.#!.    
```

#### Opcodes

```
  0: 0x0410 [0x1E] EventEntity looks at LocalPlayer and starts talking
  1: 0x0415 [0x6F] WAIT_FRAME_DELAY: Yield until WaitTime reaches zero
  2: 0x0416 [0x70] WAIT_ENTITY_RENDER_FLAG: Wait while EventEntity->Render.Flags3 bit 2 is set (cancel turn if not)
  3: 0x0417 [0x5B] LOAD_EXT_SCHEDULER: Load scheduler "tlk1" with entities [EventEntity, EventEntity], work=65*
  4: 0x0426 [0x1D] PRINT_EVENT_MESSAGE(message_id=7368*)
    → "I think the dealer that sold me the Themis orbs said something about being able to release the monster in burning circles in the Yughott Grotto, the Palborough Mines, and Giddeus."
  5: 0x0429 [0x23] WAIT_FOR_DIALOG_INTERACTION
  6: 0x042A [0x21] END_EVENT
  7: 0x042B [0x00] END_REQSTACK()
```

### Event 65535.2

#### Metadata

| Field        | Value    |
|--------------|----------|
| Entrypoint   | 0x042C   |
| Data Size    | 28 bytes |
| Instructions | 8        |

```
      00 01 02 03 04 05 06 07  08 09 0A 0B 0C 0D 0E 0F
      -- -- -- -- -- -- -- --  -- -- -- -- -- -- -- --
0420:                                      1E F0 FF FF              ....
0430: 7F 6F 70 5B 02 80 F8 FF  FF 7F F8 FF FF 7F 74 6C  .op[..........tl
0440: 6B 31 1D 32 80 23 21 00                           k1.2.#!.        
```

#### Opcodes

```
  0: 0x042C [0x1E] EventEntity looks at LocalPlayer and starts talking
  1: 0x0431 [0x6F] WAIT_FRAME_DELAY: Yield until WaitTime reaches zero
  2: 0x0432 [0x70] WAIT_ENTITY_RENDER_FLAG: Wait while EventEntity->Render.Flags3 bit 2 is set (cancel turn if not)
  3: 0x0433 [0x5B] LOAD_EXT_SCHEDULER: Load scheduler "tlk1" with entities [EventEntity, EventEntity], work=65*
  4: 0x0442 [0x1D] PRINT_EVENT_MESSAGE(message_id=7369*)
    → "The traveling merchant who sold me the orb said that the beast within can only be released in burning circles located deep within the Yughott Grotto, the Palborough Mines, and Giddeus, or in the arcane halls of the Sacrificial Chamber, the Chamber of Oracles, and the Spire of Vahzl. He was a shady sort, though, so who can say whether his word can be trusted?"
  5: 0x0445 [0x23] WAIT_FOR_DIALOG_INTERACTION
  6: 0x0446 [0x21] END_EVENT
  7: 0x0447 [0x00] END_REQSTACK()
```

### Event 22

#### Metadata

| Field        | Value    |
|--------------|----------|
| Entrypoint   | 0x0448   |
| Data Size    | 29 bytes |
| Instructions | 9        |

```
      00 01 02 03 04 05 06 07  08 09 0A 0B 0C 0D 0E 0F
      -- -- -- -- -- -- -- --  -- -- -- -- -- -- -- --
0440:                          42 1E F0 FF FF 7F 6F 70          B.....op
0450: 5B 02 80 F8 FF FF 7F F8  FF FF 7F 74 6C 6B 31 1D  [..........tlk1.
0460: 36 80 23 21 00                                    6.#!.           
```

#### Opcodes

```
  0: 0x0448 [0x42] SET_CLI_EVENT_CANCEL_DATA()
  1: 0x0449 [0x1E] EventEntity looks at LocalPlayer and starts talking
  2: 0x044E [0x6F] WAIT_FRAME_DELAY: Yield until WaitTime reaches zero
  3: 0x044F [0x70] WAIT_ENTITY_RENDER_FLAG: Wait while EventEntity->Render.Flags3 bit 2 is set (cancel turn if not)
  4: 0x0450 [0x5B] LOAD_EXT_SCHEDULER: Load scheduler "tlk1" with entities [EventEntity, EventEntity], work=65*
  5: 0x045F [0x1D] PRINT_EVENT_MESSAGE(message_id=7373*)
    → "Oh, dear! I see a crack here. It's worthless now, so I'll dispose of it. But, I've still got more!"
  6: 0x0462 [0x23] WAIT_FOR_DIALOG_INTERACTION
  7: 0x0463 [0x21] END_EVENT
  8: 0x0464 [0x00] END_REQSTACK()
```

### Event 25

#### Metadata

| Field        | Value    |
|--------------|----------|
| Entrypoint   | 0x0465   |
| Data Size    | 29 bytes |
| Instructions | 9        |

```
      00 01 02 03 04 05 06 07  08 09 0A 0B 0C 0D 0E 0F
      -- -- -- -- -- -- -- --  -- -- -- -- -- -- -- --
0460:                42 1E F0  FF FF 7F 6F 70 5B 02 80       B.....op[..
0470: F8 FF FF 7F F8 FF FF 7F  74 6C 6B 31 1D 38 80 23  ........tlk1.8.#
0480: 21 00                                             !.              
```

#### Opcodes

```
  0: 0x0465 [0x42] SET_CLI_EVENT_CANCEL_DATA()
  1: 0x0466 [0x1E] EventEntity looks at LocalPlayer and starts talking
  2: 0x046B [0x6F] WAIT_FRAME_DELAY: Yield until WaitTime reaches zero
  3: 0x046C [0x70] WAIT_ENTITY_RENDER_FLAG: Wait while EventEntity->Render.Flags3 bit 2 is set (cancel turn if not)
  4: 0x046D [0x5B] LOAD_EXT_SCHEDULER: Load scheduler "tlk1" with entities [EventEntity, EventEntity], work=65*
  5: 0x047C [0x1D] PRINT_EVENT_MESSAGE(message_id=7400*)
    → "I'm sorry there, [son/miss], but I can only allow one exchange a week per adventurer. Come back again later."
  6: 0x047F [0x23] WAIT_FOR_DIALOG_INTERACTION
  7: 0x0480 [0x21] END_EVENT
  8: 0x0481 [0x00] END_REQSTACK()
```

### Event 317

#### Metadata

| Field        | Value    |
|--------------|----------|
| Entrypoint   | 0x0482   |
| Data Size    | 52 bytes |
| Instructions | 12       |

```
      00 01 02 03 04 05 06 07  08 09 0A 0B 0C 0D 0E 0F
      -- -- -- -- -- -- -- --  -- -- -- -- -- -- -- --
0480:       42 48 39 80 1E F0  FF FF 7F 1C 16 80 5B 02    BH9.........[.
0490: 80 F8 FF FF 7F F8 FF FF  7F 74 6C 6B 31 1D 3A 80  .........tlk1.:.
04A0: 23 1D 3B 80 23 5B 02 80  F8 FF FF 7F F8 FF FF 7F  #.;.#[..........
04B0: 74 6C 6B 32 21 00                                 tlk2!.          
```

#### Opcodes

```
  0: 0x0482 [0x42] SET_CLI_EVENT_CANCEL_DATA()
  1: 0x0483 [0x48] [System] [8109*]:
    → "<Player>'s badge flashes brightly."
  2: 0x0486 [0x1E] EventEntity looks at LocalPlayer and starts talking
  3: 0x048B [0x1C] WAIT(30* ticks)
  4: 0x048E [0x5B] LOAD_EXT_SCHEDULER: Load scheduler "tlk1" with entities [EventEntity, EventEntity], work=65*
  5: 0x049D [0x1D] PRINT_EVENT_MESSAGE(message_id=8124*)
    → "Oh, I've heard rumors about that company's president..."
  6: 0x04A0 [0x23] WAIT_FOR_DIALOG_INTERACTION
  7: 0x04A1 [0x1D] PRINT_EVENT_MESSAGE(message_id=8125*)
    → "Apparently, she's extremely aggressive and won't let anything she can use to her advantage slip through her iron grip. They say even the most hardened, rugged Galka becomes like a sheep for the slaughter around her."
  8: 0x04A4 [0x23] WAIT_FOR_DIALOG_INTERACTION
  9: 0x04A5 [0x5B] LOAD_EXT_SCHEDULER: Load scheduler "tlk2" with entities [EventEntity, EventEntity], work=65*
 10: 0x04B4 [0x21] END_EVENT
 11: 0x04B5 [0x00] END_REQSTACK()
```

### Event 360

#### Metadata

| Field        | Value    |
|--------------|----------|
| Entrypoint   | 0x04B6   |
| Data Size    | 25 bytes |
| Instructions | 12       |

```
      00 01 02 03 04 05 06 07  08 09 0A 0B 0C 0D 0E 0F
      -- -- -- -- -- -- -- --  -- -- -- -- -- -- -- --
04B0:                   20 01  42 1E F0 FF FF 7F 6F 70         .B.....op
04C0: 1D 3C 80 23 1D 3D 80 23  03 01 10 02 10 21 00     .<.#.=.#.....!. 
```

#### Opcodes

```
  0: 0x04B6 [0x20] SET_CLI_EVENT_UC_FLAG: Lock player control
  1: 0x04B8 [0x42] SET_CLI_EVENT_CANCEL_DATA()
  2: 0x04B9 [0x1E] EventEntity looks at LocalPlayer and starts talking
  3: 0x04BE [0x6F] WAIT_FRAME_DELAY: Yield until WaitTime reaches zero
  4: 0x04BF [0x70] WAIT_ENTITY_RENDER_FLAG: Wait while EventEntity->Render.Flags3 bit 2 is set (cancel turn if not)
  5: 0x04C0 [0x1D] PRINT_EVENT_MESSAGE(message_id=8761*)
    → "Wonderful! There's a suck-- Er, a satisfied customer born every minute!"
  6: 0x04C3 [0x23] WAIT_FOR_DIALOG_INTERACTION
  7: 0x04C4 [0x1D] PRINT_EVENT_MESSAGE(message_id=8762*)
    → "So don't hesitate to come back, you hear?"
  8: 0x04C7 [0x23] WAIT_FOR_DIALOG_INTERACTION
  9: 0x04C8 [0x03] Work_Zone[1] = Work_Zone[2]
 10: 0x04CD [0x21] END_EVENT
 11: 0x04CE [0x00] END_REQSTACK()
```

### Event 65

#### Metadata

| Field        | Value    |
|--------------|----------|
| Entrypoint   | 0x04CF   |
| Data Size    | 38 bytes |
| Instructions | 17       |

```
      00 01 02 03 04 05 06 07  08 09 0A 0B 0C 0D 0E 0F
      -- -- -- -- -- -- -- --  -- -- -- -- -- -- -- --
04C0:                                               20                  
04D0: 01 42 1E F0 FF FF 7F 6F  70 03 02 10 25 80 1D 3E  .B.....op...%..>
04E0: 80 23 1D 3F 80 23 1D 40  80 23 1D 41 80 23 03 01  .#.?.#.@.#.A.#..
04F0: 10 02 10 21 00                                    ...!.           
```

#### Opcodes

```
  0: 0x04CF [0x20] SET_CLI_EVENT_UC_FLAG: Lock player control
  1: 0x04D1 [0x42] SET_CLI_EVENT_CANCEL_DATA()
  2: 0x04D2 [0x1E] EventEntity looks at LocalPlayer and starts talking
  3: 0x04D7 [0x6F] WAIT_FRAME_DELAY: Yield until WaitTime reaches zero
  4: 0x04D8 [0x70] WAIT_ENTITY_RENDER_FLAG: Wait while EventEntity->Render.Flags3 bit 2 is set (cancel turn if not)
  5: 0x04D9 [0x03] Work_Zone[2] = 2957*
  6: 0x04DE [0x1D] PRINT_EVENT_MESSAGE(message_id=7375*)
    → "Hey there, [buddy ol' pal/gorgeous]! Have I ever got the offer of a lifetime for you."
  7: 0x04E1 [0x23] WAIT_FOR_DIALOG_INTERACTION
  8: 0x04E2 [0x1D] PRINT_EVENT_MESSAGE(message_id=7376*)
    → "You see, I've been commissioned by my suppliers to come up with some accounts involving orbs to determine interest in their product."
  9: 0x04E5 [0x23] WAIT_FOR_DIALOG_INTERACTION
 10: 0x04E6 [0x1D] PRINT_EVENT_MESSAGE(message_id=7377*)
    → "I guess you could say I'm "testing the waters" of industry. Anyway, if I don't do this, they'll cut me off, which means you'll get cut off. So, mind lending a few minutes of your time to trusty Shami here?"
 11: 0x04E9 [0x23] WAIT_FOR_DIALOG_INTERACTION
 12: 0x04EA [0x1D] PRINT_EVENT_MESSAGE(message_id=7378*)
    → "You don't have to tell me right now about the battles you've fought with the orbs I've kindly given you in exchange for $0, of course. I'd never pressure my best buyer into doing something [he/she] didn't want to."
 13: 0x04ED [0x23] WAIT_FOR_DIALOG_INTERACTION
 14: 0x04EE [0x03] Work_Zone[1] = Work_Zone[2]
 15: 0x04F3 [0x21] END_EVENT
 16: 0x04F4 [0x00] END_REQSTACK()
```

### Event 321

#### Metadata

| Field        | Value     |
|--------------|-----------|
| Entrypoint   | 0x04F5    |
| Data Size    | 409 bytes |
| Instructions | 78        |

```
      00 01 02 03 04 05 06 07  08 09 0A 0B 0C 0D 0E 0F
      -- -- -- -- -- -- -- --  -- -- -- -- -- -- -- --
04F0:                42 1E F0  FF FF 7F 06 03 00 06 04       B..........
0500: 00 41 42 80 43 80 02 10  0A 00 02 0A 00 00 80 01  .AB.C...........
0510: 2A 05 0B 03 00 3C 04 00  00 80 44 80 03 05 00 0E  *....<....D.....
0520: 80 41 42 80 43 80 02 10  06 00 41 42 80 43 80 03  .AB.C.....AB.C..
0530: 10 0B 00 02 0B 00 00 80  01 53 05 0B 03 00 3C 04  .........S....<.
0540: 00 44 80 44 80 03 05 00  15 80 41 42 80 43 80 03  .D.D......AB.C..
0550: 10 06 00 41 42 80 43 80  04 10 0C 00 02 0C 00 00  ...AB.C.........
0560: 80 01 7C 05 0B 03 00 3C  04 00 45 80 44 80 03 05  ..|....<..E.D...
0570: 00 1F 80 41 42 80 43 80  04 10 06 00 41 42 80 43  ...AB.C.....AB.C
0580: 80 05 10 0D 00 02 0D 00  00 80 01 A5 05 0B 03 00  ................
0590: 3C 04 00 46 80 44 80 03  05 00 22 80 41 42 80 43  <..F.D....".AB.C
05A0: 80 05 10 06 00 41 42 80  43 80 06 10 0E 00 02 0E  .....AB.C.......
05B0: 00 00 80 01 CE 05 0B 03  00 3C 04 00 47 80 44 80  .........<..G.D.
05C0: 03 05 00 25 80 41 42 80  43 80 06 10 06 00 1D 29  ...%.AB.C......)
05D0: 80 23 02 03 00 44 80 00  EB 05 03 02 10 05 00 03  .#...D..........
05E0: 03 10 06 00 1D 48 80 23  01 8C 06 02 03 00 44 80  .....H.#......D.
05F0: 02 8C 06 1D 49 80 23 03  07 00 00 80 02 07 00 4A  ....I.#........J
0600: 80 03 88 06 3E 04 00 07  00 82 06 02 07 00 00 80  ....>...........
0610: 80 20 06 03 02 10 0E 80  03 03 10 0A 00 01 7E 06  . ............~.
0620: 02 07 00 44 80 80 35 06  03 02 10 15 80 03 03 10  ...D..5.........
0630: 0B 00 01 7E 06 02 07 00  45 80 80 4A 06 03 02 10  ...~....E..J....
0640: 1F 80 03 03 10 0C 00 01  7E 06 02 07 00 46 80 80  ........~....F..
0650: 5F 06 03 02 10 22 80 03  03 10 0D 00 01 7E 06 02  _....".......~..
0660: 07 00 47 80 80 74 06 03  02 10 25 80 03 03 10 0E  ..G..t....%.....
0670: 00 01 7E 06 03 02 10 44  80 03 03 10 4B 80 1D 4C  ..~....D....K..L
0680: 80 23 0B 07 00 01 FC 05  1D 4D 80 23 21 00        .#.......M.#!.  
```

#### Opcodes

```
  0: 0x04F5 [0x42] SET_CLI_EVENT_CANCEL_DATA()
  1: 0x04F6 [0x1E] EventEntity looks at LocalPlayer and starts talking
  2: 0x04FB [0x06] ExtData[1]->WorkLocal[3] = 0
  3: 0x04FE [0x06] ExtData[1]->WorkLocal[4] = 0
  4: 0x0501 [0x41] ExtData[1]->WorkLocal[10] = Work_Zone[2] (bits 16*-31*)
  5: 0x050A [0x02] IF !(ExtData[1]->WorkLocal[10] == 0*) GOTO 0x052A
  6: 0x0512 [0x0B] ExtData[1]->WorkLocal[3]++
  7: 0x0515 [0x3C] SET_BIT_FLAG_CONDITIONAL(target_work_offset=ExtData[1]->WorkLocal[4], bit_index_work_offset=0*, condition_work_offset=1*)
  8: 0x051C [0x03] ExtData[1]->WorkLocal[5] = 1126*
  9: 0x0521 [0x41] ExtData[1]->WorkLocal[6] = Work_Zone[2] (bits 16*-31*)
 10: 0x052A [0x41] ExtData[1]->WorkLocal[11] = Work_Zone[3] (bits 16*-31*)
 11: 0x0533 [0x02] IF !(ExtData[1]->WorkLocal[11] == 0*) GOTO 0x0553
 12: 0x053B [0x0B] ExtData[1]->WorkLocal[3]++
 13: 0x053E [0x3C] SET_BIT_FLAG_CONDITIONAL(target_work_offset=ExtData[1]->WorkLocal[4], bit_index_work_offset=1*, condition_work_offset=1*)
 14: 0x0545 [0x03] ExtData[1]->WorkLocal[5] = 1127*
 15: 0x054A [0x41] ExtData[1]->WorkLocal[6] = Work_Zone[3] (bits 16*-31*)
 16: 0x0553 [0x41] ExtData[1]->WorkLocal[12] = Work_Zone[4] (bits 16*-31*)
 17: 0x055C [0x02] IF !(ExtData[1]->WorkLocal[12] == 0*) GOTO 0x057C
 18: 0x0564 [0x0B] ExtData[1]->WorkLocal[3]++
 19: 0x0567 [0x3C] SET_BIT_FLAG_CONDITIONAL(target_work_offset=ExtData[1]->WorkLocal[4], bit_index_work_offset=2*, condition_work_offset=1*)
 20: 0x056E [0x03] ExtData[1]->WorkLocal[5] = 2955*
 21: 0x0573 [0x41] ExtData[1]->WorkLocal[6] = Work_Zone[4] (bits 16*-31*)
 22: 0x057C [0x41] ExtData[1]->WorkLocal[13] = Work_Zone[5] (bits 16*-31*)
 23: 0x0585 [0x02] IF !(ExtData[1]->WorkLocal[13] == 0*) GOTO 0x05A5
 24: 0x058D [0x0B] ExtData[1]->WorkLocal[3]++
 25: 0x0590 [0x3C] SET_BIT_FLAG_CONDITIONAL(target_work_offset=ExtData[1]->WorkLocal[4], bit_index_work_offset=3*, condition_work_offset=1*)
 26: 0x0597 [0x03] ExtData[1]->WorkLocal[5] = 2956*
 27: 0x059C [0x41] ExtData[1]->WorkLocal[6] = Work_Zone[5] (bits 16*-31*)
 28: 0x05A5 [0x41] ExtData[1]->WorkLocal[14] = Work_Zone[6] (bits 16*-31*)
 29: 0x05AE [0x02] IF !(ExtData[1]->WorkLocal[14] == 0*) GOTO 0x05CE
 30: 0x05B6 [0x0B] ExtData[1]->WorkLocal[3]++
 31: 0x05B9 [0x3C] SET_BIT_FLAG_CONDITIONAL(target_work_offset=ExtData[1]->WorkLocal[4], bit_index_work_offset=4*, condition_work_offset=1*)
 32: 0x05C0 [0x03] ExtData[1]->WorkLocal[5] = 2957*
 33: 0x05C5 [0x41] ExtData[1]->WorkLocal[6] = Work_Zone[6] (bits 16*-31*)
 34: 0x05CE [0x1D] PRINT_EVENT_MESSAGE(message_id=7354*)
    → "All right, it's a deal. (Heh, what a sucker!)"
 35: 0x05D1 [0x23] WAIT_FOR_DIALOG_INTERACTION
 36: 0x05D2 [0x02] IF !(ExtData[1]->WorkLocal[3] == 1*) GOTO 0x05EB
 37: 0x05DA [0x03] Work_Zone[2] = ExtData[1]->WorkLocal[5]
 38: 0x05DF [0x03] Work_Zone[3] = ExtData[1]->WorkLocal[6]
 39: 0x05E4 [0x1D] PRINT_EVENT_MESSAGE(message_id=7355*)
    → "Lemme see here... <Player>, is it? Here we go. As of last count, you've got a balance of $1 $0 ."
 40: 0x05E7 [0x23] WAIT_FOR_DIALOG_INTERACTION
 41: 0x05E8 [0x01] GOTO 0x068C
 42: 0x05EB [0x02] IF !(ExtData[1]->WorkLocal[3] <= 1*) GOTO 0x068C
 43: 0x05F3 [0x1D] PRINT_EVENT_MESSAGE(message_id=7356*)
    → "Let's see. When taken together with those you've already given me, I'm currently holding the following:"
 44: 0x05F6 [0x23] WAIT_FOR_DIALOG_INTERACTION
 45: 0x05F7 [0x03] ExtData[1]->WorkLocal[7] = 0*

SUBROUTINE_05FC:
 46: 0x05FC [0x02] IF !(ExtData[1]->WorkLocal[7] >= 5*) GOTO 0x0688
 47: 0x0604 [0x3E] IF !(ExtData[1]->WorkLocal[4] bit ExtData[1]->WorkLocal[7]) GOTO 0x0682
 48: 0x060B [0x02] IF !(ExtData[1]->WorkLocal[7] == 0*) GOTO 0x0620
 49: 0x0613 [0x03] Work_Zone[2] = 1126*
 50: 0x0618 [0x03] Work_Zone[3] = ExtData[1]->WorkLocal[10]
 51: 0x061D [0x01] GOTO 0x067E
 52: 0x0620 [0x02] IF !(ExtData[1]->WorkLocal[7] == 1*) GOTO 0x0635
 53: 0x0628 [0x03] Work_Zone[2] = 1127*
 54: 0x062D [0x03] Work_Zone[3] = ExtData[1]->WorkLocal[11]
 55: 0x0632 [0x01] GOTO 0x067E
 56: 0x0635 [0x02] IF !(ExtData[1]->WorkLocal[7] == 2*) GOTO 0x064A
 57: 0x063D [0x03] Work_Zone[2] = 2955*
 58: 0x0642 [0x03] Work_Zone[3] = ExtData[1]->WorkLocal[12]
 59: 0x0647 [0x01] GOTO 0x067E
 60: 0x064A [0x02] IF !(ExtData[1]->WorkLocal[7] == 3*) GOTO 0x065F
 61: 0x0652 [0x03] Work_Zone[2] = 2956*
 62: 0x0657 [0x03] Work_Zone[3] = ExtData[1]->WorkLocal[13]
 63: 0x065C [0x01] GOTO 0x067E
 64: 0x065F [0x02] IF !(ExtData[1]->WorkLocal[7] == 4*) GOTO 0x0674
 65: 0x0667 [0x03] Work_Zone[2] = 2957*
 66: 0x066C [0x03] Work_Zone[3] = ExtData[1]->WorkLocal[14]
 67: 0x0671 [0x01] GOTO 0x067E
 68: 0x0674 [0x03] Work_Zone[2] = 1*
 69: 0x0679 [0x03] Work_Zone[3] = 4294967295*

SUBROUTINE_067E:
 70: 0x067E [0x1D] PRINT_EVENT_MESSAGE(message_id=7357*)
    → "$1 $0 ."
 71: 0x0681 [0x23] WAIT_FOR_DIALOG_INTERACTION
 72: 0x0682 [0x0B] ExtData[1]->WorkLocal[7]++
 73: 0x0685 [0x01] GOTO 0x05FC
 74: 0x0688 [0x1D] PRINT_EVENT_MESSAGE(message_id=7358*)
    → "That should be about it. Lemme know if you need anything else."
 75: 0x068B [0x23] WAIT_FOR_DIALOG_INTERACTION

SUBROUTINE_068C:
 76: 0x068C [0x21] END_EVENT
 77: 0x068D [0x00] END_REQSTACK()
```

### Event 322

#### Metadata

| Field        | Value      |
|--------------|------------|
| Entrypoint   | 0x068E     |
| Data Size    | 3191 bytes |
| Instructions | 717        |

```
      00 01 02 03 04 05 06 07  08 09 0A 0B 0C 0D 0E 0F
      -- -- -- -- -- -- -- --  -- -- -- -- -- -- -- --
0680:                                            03 01                ..
0690: 10 00 80 41 00 80 4E 80  02 10 0A 00 41 42 80 43  ...A..N.....AB.C
06A0: 80 02 10 0B 00 41 00 80  4E 80 03 10 0C 00 41 42  .....A..N.....AB
06B0: 80 43 80 03 10 0D 00 41  00 80 4E 80 04 10 0E 00  .C.....A..N.....
06C0: 41 00 80 4E 80 05 10 16  00 41 00 80 4F 80 16 00  A..N.....A..O...
06D0: 08 00 41 42 80 43 80 05  10 16 00 41 00 80 4F 80  ..AB.C.....A..O.
06E0: 16 00 09 00 03 0F 00 06  10 03 10 00 07 10 03 11  ................
06F0: 00 08 10 03 01 00 09 10  1E F0 FF FF 7F 6F 70 02  .............op.
0700: 01 00 00 80 00 54 07 1D  01 80 23 5B 02 80 F8 FF  .....T....#[....
0710: FF 7F F8 FF FF 7F 70 61  73 30 53 F8 FF FF 7F F8  ......pas0S.....
0720: FF FF 7F 70 61 73 30 1D  03 80 23 5B 02 80 F8 FF  ...pas0...#[....
0730: FF 7F F8 FF FF 7F 74 68  6B 31 1D 04 80 23 5B 02  ......thk1...#[.
0740: 80 F8 FF FF 7F F8 FF FF  7F 74 68 6B 32 1D 05 80  .........thk2...
0750: 23 01 67 07 5B 02 80 F8  FF FF 7F F8 FF FF 7F 74  #.g.[..........t
0760: 6C 6B 31 1D 06 80 23 02  0F 00 00 80 00 A1 07 1A  lk1...#.........
0770: A2 00 1D 07 80 23 1A C6  00 1D 08 80 23 1A E0 00  .....#......#...
0780: 1D 09 80 23 1A 09 01 1D  0A 80 23 1A 23 01 1D 0B  ...#......#.#...
0790: 80 23 1D 0C 80 23 1D 0D  80 23 1A 3D 01 1D 50 80  .#...#...#.=..P.
07A0: 23 02 11 00 00 80 01 C6  07 03 02 10 10 00 1D 51  #..............Q
07B0: 80 23 1D 52 80 23 1D 53  80 23 1D 54 80 23 1D 55  .#.R.#.S.#.T.#.U
07C0: 80 23 1D 56 80 23 03 00  00 00 80 02 0A 00 00 80  .#.V.#..........
07D0: 00 E1 07 3C 00 00 44 80  44 80 3C 00 00 57 80 44  ...<..D.D.<..W.D
07E0: 80 02 0B 00 00 80 00 F7  07 3C 00 00 45 80 44 80  .........<..E.D.
07F0: 3C 00 00 58 80 44 80 02  0C 00 00 80 00 0D 08 3C  <..X.D.........<
0800: 00 00 46 80 44 80 3C 00  00 59 80 44 80 02 0D 00  ..F.D.<..Y.D....
0810: 00 80 00 23 08 3C 00 00  47 80 44 80 3C 00 00 5A  ...#.<..G.D.<..Z
0820: 80 44 80 02 0E 00 00 80  00 39 08 3C 00 00 4A 80  .D.......9.<..J.
0830: 44 80 3C 00 00 26 80 44  80 02 00 00 5B 80 01 7A  D.<..&.D....[..z
0840: 11 02 0F 00 00 80 00 50  08 3C 00 00 4F 80 44 80  .......P.<..O.D.
0850: 03 02 10 0E 80 03 03 10  15 80 03 04 10 1F 80 03  ................
0860: 05 10 22 80 03 06 10 25  80 24 5C 80 00 80 00 00  .."....%.$\.....
0870: 25 02 00 10 00 80 00 7C  08 01 77 11 02 00 10 44  %......|..w....D
0880: 80 00 A6 0A 03 02 10 1B  80 03 03 10 1C 80 03 04  ................
0890: 10 0F 80 03 05 10 11 80  03 06 10 13 80 03 00 17  ................
08A0: 0A 00 03 01 17 1A 80 03  02 17 16 80 03 03 17 10  ................
08B0: 80 03 04 17 12 80 03 05  17 14 80 24 5D 80 00 80  ...........$]...
08C0: 00 80 25 02 00 10 00 80  00 CE 08 01 A3 0A 02 00  ..%.............
08D0: 10 44 80 00 2B 09 03 16  17 02 10 93 16 17 1D 5E  .D..+..........^
08E0: 80 23 93 00 80 24 5F 80  44 80 00 80 25 02 00 10  .#...$_.D...%...
08F0: 00 80 00 1A 09 02 0A 00  01 17 04 0E 09 42 40 00  .............B@.
0900: 80 58 80 01 10 44 80 1D  30 80 23 01 17 09 03 02  .X...D..0.#.....
0910: 10 0E 80 1D 60 80 23 01  28 09 02 00 10 44 80 00  ....`.#.(....D..
0920: 28 09 01 84 08 01 28 09  01 A3 0A 02 00 10 45 80  (.....(.......E.
0930: 00 88 09 03 16 17 03 10  93 16 17 1D 5E 80 23 93  ............^.#.
0940: 00 80 24 5F 80 44 80 00  80 25 02 00 10 00 80 00  ..$_.D...%......
0950: 77 09 02 0A 00 02 17 04  6B 09 42 40 00 80 58 80  w.......k.B@..X.
0960: 01 10 45 80 1D 2F 80 23  01 74 09 03 02 10 0E 80  ..E../.#.t......
0970: 1D 60 80 23 01 85 09 02  00 10 44 80 00 85 09 01  .`.#......D.....
0980: 84 08 01 85 09 01 A3 0A  02 00 10 46 80 00 E5 09  ...........F....
0990: 03 16 17 04 10 93 16 17  1D 5E 80 23 93 00 80 24  .........^.#...$
09A0: 5F 80 44 80 00 80 25 02  00 10 00 80 00 D4 09 02  _.D...%.........
09B0: 0A 00 03 17 04 C8 09 42  40 00 80 58 80 01 10 46  .......B@..X...F
09C0: 80 1D 2A 80 23 01 D1 09  03 02 10 0E 80 1D 60 80  ..*.#.........`.
09D0: 23 01 E2 09 02 00 10 44  80 00 E2 09 01 84 08 01  #......D........
09E0: E2 09 01 A3 0A 02 00 10  47 80 00 42 0A 03 16 17  ........G..B....
09F0: 05 10 93 16 17 1D 5E 80  23 93 00 80 24 5F 80 44  ......^.#...$_.D
0A00: 80 00 80 25 02 00 10 00  80 00 31 0A 02 0A 00 04  ...%......1.....
0A10: 17 04 25 0A 42 40 00 80  58 80 01 10 47 80 1D 2A  ..%.B@..X...G..*
0A20: 80 23 01 2E 0A 03 02 10  0E 80 1D 60 80 23 01 3F  .#.........`.#.?
0A30: 0A 02 00 10 44 80 00 3F  0A 01 84 08 01 3F 0A 01  ....D..?.....?..
0A40: A3 0A 02 00 10 4A 80 00  A3 0A 03 16 17 06 10 93  .....J..........
0A50: 16 17 1D 5E 80 23 93 00  80 24 5F 80 44 80 00 80  ...^.#...$_.D...
0A60: 25 02 00 10 00 80 00 92  0A 02 0A 00 05 17 04 86  %...............
0A70: 0A 42 40 00 80 58 80 01  10 4A 80 1D 2A 80 23 1D  .B@..X...J..*.#.
0A80: 2B 80 23 01 8F 0A 03 02  10 0E 80 1D 60 80 23 01  +.#.........`.#.
0A90: A0 0A 02 00 10 44 80 00  A0 0A 01 84 08 01 A0 0A  .....D..........
0AA0: 01 A3 0A 01 77 11 02 00  10 45 80 00 5B 0C 03 02  ....w....E..[...
0AB0: 10 17 80 03 03 10 18 80  03 04 10 19 80 03 05 10  ................
0AC0: 1E 80 03 00 17 0B 00 03  01 17 16 80 03 02 17 1D  ................
0AD0: 80 24 61 80 00 80 00 80  25 02 00 10 00 80 00 E4  .$a.....%.......
0AE0: 0A 01 58 0C 02 00 10 44  80 00 41 0B 03 16 17 02  ..X....D..A.....
0AF0: 10 93 16 17 1D 5E 80 23  93 00 80 24 5F 80 44 80  .....^.#...$_.D.
0B00: 00 80 25 02 00 10 00 80  00 30 0B 02 0B 00 01 17  ..%......0......
0B10: 04 24 0B 42 40 00 80 58  80 01 10 57 80 1D 37 80  .$.B@..X...W..7.
0B20: 23 01 2D 0B 03 02 10 15  80 1D 60 80 23 01 3E 0B  #.-.......`.#.>.
0B30: 02 00 10 44 80 00 3E 0B  01 AE 0A 01 3E 0B 01 58  ...D..>.....>..X
0B40: 0C 02 00 10 45 80 00 9E  0B 03 16 17 03 10 93 16  ....E...........
0B50: 17 1D 5E 80 23 93 00 80  24 5F 80 44 80 00 80 25  ..^.#...$_.D...%
0B60: 02 00 10 00 80 00 8D 0B  02 0B 00 01 17 04 81 0B  ................
0B70: 42 40 00 80 58 80 01 10  58 80 1D 37 80 23 01 8A  B@..X...X..7.#..
0B80: 0B 03 02 10 15 80 1D 60  80 23 01 9B 0B 02 00 10  .......`.#......
0B90: 44 80 00 9B 0B 01 AE 0A  01 9B 0B 01 58 0C 02 00  D...........X...
0BA0: 10 46 80 00 FB 0B 03 16  17 04 10 93 16 17 1D 5E  .F.............^
0BB0: 80 23 93 00 80 24 5F 80  44 80 00 80 25 02 00 10  .#...$_.D...%...
0BC0: 00 80 00 EA 0B 02 0B 00  01 17 04 DE 0B 42 40 00  .............B@.
0BD0: 80 58 80 01 10 59 80 1D  37 80 23 01 E7 0B 03 02  .X...Y..7.#.....
0BE0: 10 15 80 1D 60 80 23 01  F8 0B 02 00 10 44 80 00  ....`.#......D..
0BF0: F8 0B 01 AE 0A 01 F8 0B  01 58 0C 02 00 10 47 80  .........X....G.
0C00: 00 58 0C 03 16 17 05 10  93 16 17 1D 5E 80 23 93  .X..........^.#.
0C10: 00 80 24 5F 80 44 80 00  80 25 02 00 10 00 80 00  ..$_.D...%......
0C20: 47 0C 02 0B 00 02 17 04  3B 0C 42 40 00 80 58 80  G.......;.B@..X.
0C30: 01 10 5A 80 1D 31 80 23  01 44 0C 03 02 10 15 80  ..Z..1.#.D......
0C40: 1D 60 80 23 01 55 0C 02  00 10 44 80 00 55 0C 01  .`.#.U....D..U..
0C50: AE 0A 01 55 0C 01 58 0C  01 77 11 02 00 10 46 80  ...U..X..w....F.
0C60: 00 4C 0D 03 02 10 20 80  03 03 10 21 80 03 00 17  .L.... ....!....
0C70: 0C 00 03 01 17 16 80 03  02 17 12 80 24 62 80 00  ............$b..
0C80: 80 00 80 25 02 00 10 00  80 00 8F 0C 01 49 0D 02  ...%.........I..
0C90: 00 10 44 80 00 EC 0C 03  16 17 02 10 93 16 17 1D  ..D.............
0CA0: 5E 80 23 93 00 80 24 5F  80 44 80 00 80 25 02 00  ^.#...$_.D...%..
0CB0: 10 00 80 00 DB 0C 02 0C  00 01 17 04 CF 0C 42 40  ..............B@
0CC0: 00 80 58 80 01 10 26 80  1D 33 80 23 01 D8 0C 03  ..X...&..3.#....
0CD0: 02 10 1F 80 1D 60 80 23  01 E9 0C 02 00 10 44 80  .....`.#......D.
0CE0: 00 E9 0C 01 63 0C 01 E9  0C 01 49 0D 02 00 10 45  ....c.....I....E
0CF0: 80 00 49 0D 03 16 17 03  10 93 16 17 1D 5E 80 23  ..I..........^.#
0D00: 93 00 80 24 5F 80 44 80  00 80 25 02 00 10 00 80  ...$_.D...%.....
0D10: 00 38 0D 02 0C 00 02 17  04 2C 0D 42 40 00 80 58  .8.......,.B@..X
0D20: 80 01 10 63 80 1D 32 80  23 01 35 0D 03 02 10 1F  ...c..2.#.5.....
0D30: 80 1D 60 80 23 01 46 0D  02 00 10 44 80 00 46 0D  ..`.#.F....D..F.
0D40: 01 63 0C 01 46 0D 01 49  0D 01 77 11 02 00 10 47  .c..F..I..w....G
0D50: 80 00 3D 0E 03 02 10 23  80 03 03 10 24 80 03 00  ..=....#....$...
0D60: 17 0D 00 03 01 17 16 80  03 02 17 12 80 24 64 80  .............$d.
0D70: 00 80 00 80 25 02 00 10  00 80 00 80 0D 01 3A 0E  ....%.........:.
0D80: 02 00 10 44 80 00 DD 0D  03 16 17 02 10 93 16 17  ...D............
0D90: 1D 5E 80 23 93 00 80 24  5F 80 44 80 00 80 25 02  .^.#...$_.D...%.
0DA0: 00 10 00 80 00 CC 0D 02  0D 00 01 17 04 C0 0D 42  ...............B
0DB0: 40 00 80 58 80 01 10 4F  80 1D 34 80 23 01 C9 0D  @..X...O..4.#...
0DC0: 03 02 10 22 80 1D 60 80  23 01 DA 0D 02 00 10 44  ..."..`.#......D
0DD0: 80 00 DA 0D 01 54 0D 01  DA 0D 01 3A 0E 02 00 10  .....T.....:....
0DE0: 45 80 00 3A 0E 03 16 17  03 10 93 16 17 1D 5E 80  E..:..........^.
0DF0: 23 93 00 80 24 5F 80 44  80 00 80 25 02 00 10 00  #...$_.D...%....
0E00: 80 00 29 0E 02 0D 00 02  17 04 1D 0E 42 40 00 80  ..).........B@..
0E10: 58 80 01 10 65 80 1D 35  80 23 01 26 0E 03 02 10  X...e..5.#.&....
0E20: 22 80 1D 60 80 23 01 37  0E 02 00 10 44 80 00 37  "..`.#.7....D..7
0E30: 0E 01 54 0D 01 37 0E 01  3A 0E 01 77 11 02 00 10  ..T..7..:..w....
0E40: 4A 80 00 32 0F 03 02 10  27 80 03 03 10 28 80 03  J..2....'....(..
0E50: 00 17 0E 00 03 01 17 26  80 03 02 17 1A 80 24 66  .......&......$f
0E60: 80 00 80 00 80 25 02 00  10 00 80 00 71 0E 01 2F  .....%......q../
0E70: 0F 02 00 10 44 80 00 CE  0E 03 16 17 02 10 93 16  ....D...........
0E80: 17 1D 5E 80 23 93 00 80  24 5F 80 44 80 00 80 25  ..^.#...$_.D...%
0E90: 02 00 10 00 80 00 BD 0E  02 0E 00 01 17 04 B1 0E  ................
0EA0: 42 40 00 80 58 80 01 10  67 80 1D 2A 80 23 01 BA  B@..X...g..*.#..
0EB0: 0E 03 02 10 25 80 1D 60  80 23 01 CB 0E 02 00 10  ....%..`.#......
0EC0: 44 80 00 CB 0E 01 45 0E  01 CB 0E 01 2F 0F 02 00  D.....E...../...
0ED0: 10 45 80 00 2F 0F 03 16  17 03 10 93 16 17 1D 5E  .E../..........^
0EE0: 80 23 93 00 80 24 5F 80  44 80 00 80 25 02 00 10  .#...$_.D...%...
0EF0: 00 80 00 1E 0F 02 0E 00  02 17 04 12 0F 42 40 00  .............B@.
0F00: 80 58 80 01 10 4E 80 1D  2A 80 23 1D 2B 80 23 01  .X...N..*.#.+.#.
0F10: 1B 0F 03 02 10 25 80 1D  60 80 23 01 2C 0F 02 00  .....%..`.#.,...
0F20: 10 44 80 00 2C 0F 01 45  0E 01 2C 0F 01 2F 0F 01  .D..,..E..,../..
0F30: 77 11 02 00 10 57 80 00  96 0F 03 02 10 0E 80 03  w....W..........
0F40: 03 10 0A 00 1D 68 80 23  1D 69 80 23 71 12 44 80  .....h.#.i.#q.D.
0F50: 45 80 71 13 04 10 42 02  04 10 6A 80 03 93 0F 02  E.q...B...j.....
0F60: 04 10 00 80 02 8F 0F 02  04 10 0A 00 05 88 0F 40  ...............@
0F70: 00 80 58 80 01 10 6B 80  40 59 80 4E 80 01 10 04  ..X...k.@Y.N....
0F80: 10 1D 6C 80 23 01 8C 0F  1D 6D 80 23 01 93 0F 1D  ..l.#....m.#....
0F90: 6E 80 23 01 77 11 02 00  10 58 80 00 FA 0F 03 02  n.#.w....X......
