# 17784978

## Common Data

| Field            | Value                |
|------------------|----------------------|
| Zone             | Port Jeuno (ID: 246) |
| Block Size       | 4936 bytes           |
| Total Events     | 7                    |
| References Count | 95                   |

## List of Events

| Event ID              | Entrypoint   |   Size |   Instructions |
|-----------------------|--------------|--------|----------------|
| [65535](#event-65535) | 0x0000       |      1 |              1 |
| [333](#event-333)     | 0x0001       |    597 |             88 |
| [334](#event-334)     | 0x0256       |    904 |            123 |
| [335](#event-335)     | 0x05DE       |    331 |             50 |
| [336](#event-336)     | 0x0729       |    990 |            125 |
| [337](#event-337)     | 0x0B07       |    417 |             64 |
| [338](#event-338)     | 0x0CA8       |   1269 |            152 |

## DAT References (imed_data)

|   Index | Hex Value   |   Dec Value |
|---------|-------------|-------------|
|       0 | 0x0013      |          19 |
|       1 | 0xFFFF2F55  |  4294913877 |
|       2 | 0xFFFFE065  |  4294959205 |
|       3 | 0x0000      |           0 |
|       4 | 0x0333      |         819 |
|       5 | 0x001E      |          30 |
|       6 | 0x01E9      |         489 |
|       7 | 0x0009      |           9 |
|       8 | 0x212F      |        8495 |
|       9 | 0x2130      |        8496 |
|      10 | 0x2131      |        8497 |
|      11 | 0x0006      |           6 |
|      12 | 0x2132      |        8498 |
|      13 | 0x2133      |        8499 |
|      14 | 0x0007      |           7 |
|      15 | 0x005A      |          90 |
|      16 | 0x0001      |           1 |
|      17 | 0x0016      |          22 |
|      18 | 0x0005      |           5 |
|      19 | 0x2134      |        8500 |
|      20 | 0x0078      |         120 |
|      21 | 0x0002      |           2 |
|      22 | 0x2135      |        8501 |
|      23 | 0x2136      |        8502 |
|      24 | 0x2137      |        8503 |
|      25 | 0x2138      |        8504 |
|      26 | 0x2139      |        8505 |
|      27 | 0x006E      |         110 |
|      28 | 0x00C8      |         200 |
|      29 | 0x213A      |        8506 |
|      30 | 0x213B      |        8507 |
|      31 | 0x213C      |        8508 |
|      32 | 0x213D      |        8509 |
|      33 | 0x213E      |        8510 |
|      34 | 0x003C      |          60 |
|      35 | 0x213F      |        8511 |
|      36 | 0x2140      |        8512 |
|      37 | 0x2141      |        8513 |
|      38 | 0x0400      |        1024 |
|      39 | 0x2142      |        8514 |
|      40 | 0x2143      |        8515 |
|      41 | 0x2144      |        8516 |
|      42 | 0x2145      |        8517 |
|      43 | 0x2146      |        8518 |
|      44 | 0x2147      |        8519 |
|      45 | 0x2148      |        8520 |
|      46 | 0x0024      |          36 |
|      47 | 0x2149      |        8521 |
|      48 | 0x214A      |        8522 |
|      49 | 0x214B      |        8523 |
|      50 | 0x214C      |        8524 |
|      51 | 0x214D      |        8525 |
|      52 | 0x214E      |        8526 |
|      53 | 0x214F      |        8527 |
|      54 | 0x0018      |          24 |
|      55 | 0x2150      |        8528 |
|      56 | 0x2151      |        8529 |
|      57 | 0x2152      |        8530 |
|      58 | 0x2153      |        8531 |
|      59 | 0x2154      |        8532 |
|      60 | 0x2155      |        8533 |
|      61 | 0x2156      |        8534 |
|      62 | 0x2157      |        8535 |
|      63 | 0x0510      |        1296 |
|      64 | 0x2158      |        8536 |
|      65 | 0x2159      |        8537 |
|      66 | 0x0003      |           3 |
|      67 | 0x0004      |           4 |
|      68 | 0x0008      |           8 |
|      69 | 0x215A      |        8538 |
|      70 | 0x215B      |        8539 |
|      71 | 0x2120      |        8480 |
|      72 | 0x215C      |        8540 |
|      73 | 0x215D      |        8541 |
|      74 | 0x215E      |        8542 |
|      75 | 0x215F      |        8543 |
|      76 | 0x2160      |        8544 |
|      77 | 0x0096      |         150 |
|      78 | 0x2161      |        8545 |
|      79 | 0xFFFF3558  |  4294915416 |
|      80 | 0xFFFFD65A  |  4294956634 |
|      81 | 0x033F      |         831 |
|      82 | 0x2162      |        8546 |
|      83 | 0x2163      |        8547 |
|      84 | 0x2164      |        8548 |
|      85 | 0x0033      |          51 |
|      86 | 0x2165      |        8549 |
|      87 | 0x2166      |        8550 |
|      88 | 0x00B4      |         180 |
|      89 | 0x2167      |        8551 |
|      90 | 0x2168      |        8552 |
|      91 | 0x2169      |        8553 |
|      92 | 0x00C9      |         201 |
|      93 | 0x002D      |          45 |
|      94 | 0x00D7      |         215 |

## String References

- **8499**: Go meet the mystery man? [Oooh, I love mysteries!/Sounds a little shady...]
- **8520**: How will you respond? [If you need a hero, look no further!/It's just too big a commitment.]

## Events

### Event 65535

#### Metadata

| Field        | Value   |
|--------------|---------|
| Entrypoint   | 0x0000  |
| Data Size    | 1 bytes |
| Instructions | 1       |

```
      00 01 02 03 04 05 06 07  08 09 0A 0B 0C 0D 0E 0F
      -- -- -- -- -- -- -- --  -- -- -- -- -- -- -- --
0000: 00                                                .               
```

#### Opcodes

```
  0: 0x0000 [0x00] END_REQSTACK()
```

### Event 333

#### Metadata

| Field        | Value     |
|--------------|-----------|
| Entrypoint   | 0x0001    |
| Data Size    | 597 bytes |
| Instructions | 87        |

```
      00 01 02 03 04 05 06 07  08 09 0A 0B 0C 0D 0E 0F
      -- -- -- -- -- -- -- --  -- -- -- -- -- -- -- --
0000:    42 1A 6F 0F 03 03 00  06 10 03 04 00 07 10 03   B.o............
0010: 05 00 08 10 03 06 00 09  10 46 01 38 00 80 92 01  .........F.8....
0020: 94 60 0F 01 94 01 F0 FF  FF 7F 94 01 94 60 0F 01  .`...........`..
0030: BA F0 FF FF 7F 01 80 02  80 03 80 04 80 80 F0 FF  ................
0040: FF 7F 80 94 60 0F 01 1C  05 80 4A 94 60 0F 01 F0  ....`.....J.`...
0050: FF FF 7F 4A F0 FF FF 7F  94 60 0F 01 6F 76 F0 FF  ...J.....`..ov..
0060: FF 7F 45 06 80 F0 FF FF  7F F0 FF FF 7F 36 37 30  ..E..........670
0070: 30 03 80 1A 4E 0F 66 07  80 94 60 0F 01 94 60 0F  0...N.f...`...`.
0080: 01 74 77 62 30 2B 94 60  0F 01 08 80 23 66 07 80  .twb0+.`....#f..
0090: 94 60 0F 01 94 60 0F 01  74 77 62 31 52 06 80 F0  .`...`..twb1R...
00A0: FF FF 7F F0 FF FF 7F 36  37 30 30 45 06 80 F0 FF  .......6700E....
00B0: FF 7F F0 FF FF 7F 36 37  30 31 03 80 2B 94 60 0F  ......6701..+.`.
00C0: 01 09 80 23 2B 94 60 0F  01 0A 80 23 52 06 80 F0  ...#+.`....#R...
00D0: FF FF 7F F0 FF FF 7F 36  37 30 31 45 06 80 F0 FF  .......6701E....
00E0: FF 7F F0 FF FF 7F 36 37  30 32 03 80 6E 94 60 0F  ......6702..n.`.
00F0: 01 0B 80 99 94 60 0F 01  2B 94 60 0F 01 0C 80 23  .....`..+.`....#
0100: 03 07 00 03 80 24 0D 80  03 80 07 00 25 02 00 10  .....$......%...
0110: 03 80 00 27 01 6E F0 FF  FF 7F 0E 80 99 F0 FF FF  ...'.n..........
0120: 7F 1C 0F 80 01 60 01 02  00 10 10 80 00 60 01 6E  .....`.......`.n
0130: F0 FF FF 7F 11 80 99 F0  FF FF 7F 1C 0F 80 6E 94  ..............n.
0140: 60 0F 01 12 80 99 94 60  0F 01 2B 94 60 0F 01 13  `......`..+.`...
0150: 80 1C 14 80 23 03 07 00  15 80 01 05 01 01 60 01  ....#.........`.
0160: 52 06 80 F0 FF FF 7F F0  FF FF 7F 36 37 30 32 45  R..........6702E
0170: 06 80 F0 FF FF 7F F0 FF  FF 7F 36 37 30 33 03 80  ..........6703..
0180: 2B 94 60 0F 01 16 80 23  66 07 80 94 60 0F 01 94  +.`....#f...`...
0190: 60 0F 01 74 77 61 30 2B  94 60 0F 01 17 80 23 66  `..twa0+.`....#f
01A0: 07 80 94 60 0F 01 94 60  0F 01 74 77 61 31 52 06  ...`...`..twa1R.
01B0: 80 F0 FF FF 7F F0 FF FF  7F 36 37 30 33 45 06 80  .........6703E..
01C0: F0 FF FF 7F F0 FF FF 7F  36 37 30 34 03 80 2B 94  ........6704..+.
01D0: 60 0F 01 18 80 23 2B 94  60 0F 01 19 80 23 52 06  `....#+.`....#R.
01E0: 80 F0 FF FF 7F F0 FF FF  7F 36 37 30 34 45 06 80  .........6704E..
01F0: F0 FF FF 7F F0 FF FF 7F  36 37 30 35 03 80 6E 94  ........6705..n.
0200: 60 0F 01 0E 80 99 94 60  0F 01 2B 94 60 0F 01 1A  `......`..+.`...
0210: 80 23 1A 6F 0F 1C 05 80  52 06 80 F0 FF FF 7F F0  .#.o....R.......
0220: FF FF 7F 36 37 30 35 45  06 80 F0 FF FF 7F F0 FF  ...6705E........
0230: FF 7F 30 62 6C 66 03 80  5C 00 1B 80 5C 01 1B 80  ..0blf..\...\...
0240: 9A 46 00 45 1C 80 F0 FF  FF 7F F0 FF FF 7F 66 64  .F.E..........fd
0250: 69 32 03 80 21 00                                 i2..!.          
```

#### Opcodes

```
  0: 0x0001 [0x42] SET_CLI_EVENT_CANCEL_DATA()
  1: 0x0002 [0x1A] CALL_SUBROUTINE(address=0x0F6F)
  2: 0x0005 [0x03] ExtData[1]->WorkLocal[3] = Work_Zone[6]
  3: 0x000A [0x03] ExtData[1]->WorkLocal[4] = Work_Zone[7]
  4: 0x000F [0x03] ExtData[1]->WorkLocal[5] = Work_Zone[8]
  5: 0x0014 [0x03] ExtData[1]->WorkLocal[6] = Work_Zone[9]
  6: 0x0019 [0x46] CAMERA_CONTROL: Disable user control
  7: 0x001B [0x38] SET_CLIENT_EVENT_MODE(mode=19*)
  8: 0x001E [0x92] Joachim (ID: 17784980/0x010F6094)->Render.Flags3 ^= 0x01
  9: 0x0024 [0x94] LocalPlayer->Render.Flags3 ^= 0x01
 10: 0x002A [0x94] Joachim (ID: 17784980/0x010F6094)->Render.Flags3 ^= 0x01
 11: 0x0030 [0xBA] SET_ENTITY_POSITION(entity_id=LocalPlayer, pos_x=-53.419*, pos_z=-8.091*, pos_y=0.000*, direction=72.0°*)
 12: 0x003D [0x80] LOAD_WAIT(entity=LocalPlayer)
 13: 0x0042 [0x80] LOAD_WAIT(entity=Joachim (ID: 17784980/0x010F6094))
 14: 0x0047 [0x1C] WAIT(30* ticks)
 15: 0x004A [0x4A] Joachim (ID: 17784980/0x010F6094) looks at LocalPlayer
 16: 0x0053 [0x4A] LocalPlayer looks at Joachim (ID: 17784980/0x010F6094)
 17: 0x005C [0x6F] WAIT_FRAME_DELAY: Yield until WaitTime reaches zero
 18: 0x005D [0x76] CHECK_ENTITY_RENDER_FLAGS: Wait until LocalPlayer Render.Flags0 and Render.Flags3 conditions are met
 19: 0x0062 [0x45] LOAD_SCHEDULED_TASK: Load scheduler "6700" with entities [LocalPlayer, LocalPlayer], work=[489*, 0*]
 20: 0x0073 [0x1A] CALL_SUBROUTINE(address=0x0F4E)
 21: 0x0076 [0x66] LOAD_EXT_SCHEDULER_MAIN: Load scheduler "twb0" with entities [Joachim (ID: 17784980/0x010F6094), Joachim (ID: 17784980/0x010F6094)], work=9*
 22: 0x0085 [0x2B] Joachim (ID: 17784980/0x010F6094) [8495*]:
    → "Ah, there ye are, <Player>. I was wonderin' when next ye'd turn up."
 23: 0x008C [0x23] WAIT_FOR_DIALOG_INTERACTION
 24: 0x008D [0x66] LOAD_EXT_SCHEDULER_MAIN: Load scheduler "twb1" with entities [Joachim (ID: 17784980/0x010F6094), Joachim (ID: 17784980/0x010F6094)], work=9*
 25: 0x009C [0x52] END_LOAD_SCHEDULER: End scheduler "6700" with entities [LocalPlayer, LocalPlayer], work=489*
 26: 0x00AB [0x45] LOAD_SCHEDULED_TASK: Load scheduler "6701" with entities [LocalPlayer, LocalPlayer], work=[489*, 0*]
 27: 0x00BC [0x2B] Joachim (ID: 17784980/0x010F6094) [8496*]:
    → "There be somethin' I need t' ask of ye. Well, t' be precise, there be someone I'd like ye t' meet."
 28: 0x00C3 [0x23] WAIT_FOR_DIALOG_INTERACTION
 29: 0x00C4 [0x2B] Joachim (ID: 17784980/0x010F6094) [8497*]:
    → "Due t' reasons beyond our control, the man can't be here. So instead he'll be waitin' for ye at the stone circle in the La Theine Plateau. I trust a veteran adventurer such as yerself knows how t' navigate [himself/herself] there."
 30: 0x00CB [0x23] WAIT_FOR_DIALOG_INTERACTION
 31: 0x00CC [0x52] END_LOAD_SCHEDULER: End scheduler "6701" with entities [LocalPlayer, LocalPlayer], work=489*
 32: 0x00DB [0x45] LOAD_SCHEDULED_TASK: Load scheduler "6702" with entities [LocalPlayer, LocalPlayer], work=[489*, 0*]
 33: 0x00EC [0x6E] Joachim (ID: 17784980/0x010F6094) uses emote 6*
 34: 0x00F3 [0x99] Wait for Joachim (ID: 17784980/0x010F6094) animation to complete
 35: 0x00F8 [0x2B] Joachim (ID: 17784980/0x010F6094) [8498*]:
    → "Truly sorry fer this sudden request, but circumstances won't allow fer a meetin' t' take place here. I'd explain the reason why, except I'm sworn t' silence on this."
 36: 0x00FF [0x23] WAIT_FOR_DIALOG_INTERACTION
 37: 0x0100 [0x03] ExtData[1]->WorkLocal[7] = 0*
 38: 0x0105 [0x24] CREATE_DIALOG(message_id=8499*, default_option=0*, option_flags=ExtData[1]->WorkLocal[7])
    → "Go meet the mystery man? [Oooh, I love mysteries!/Sounds a little shady...]"
 39: 0x010C [0x25] WAIT_DIALOG_SELECT()
 40: 0x010D [0x02] IF !(Work_Zone[0] == 0*) GOTO 0x0127
 41: 0x0115 [0x6E] LocalPlayer uses emote 7*
 42: 0x011C [0x99] Wait for LocalPlayer animation to complete
 43: 0x0121 [0x1C] WAIT(90* ticks)
 44: 0x0124 [0x01] GOTO 0x0160
 45: 0x0127 [0x02] IF !(Work_Zone[0] == 1*) GOTO 0x0160
 46: 0x012F [0x6E] LocalPlayer uses emote 22*
 47: 0x0136 [0x99] Wait for LocalPlayer animation to complete
 48: 0x013B [0x1C] WAIT(90* ticks)
 49: 0x013E [0x6E] Joachim (ID: 17784980/0x010F6094) uses emote 5*
 50: 0x0145 [0x99] Wait for Joachim (ID: 17784980/0x010F6094) animation to complete
 51: 0x014A [0x2B] Joachim (ID: 17784980/0x010F6094) [8500*]:
    → "I beg fer yer understandin', <Player>. Ye know I'd tell ye all if I could, but this is jus' the way it's gotta be."
 52: 0x0151 [0x1C] WAIT(120* ticks)
 53: 0x0154 [0x23] WAIT_FOR_DIALOG_INTERACTION
 54: 0x0155 [0x03] ExtData[1]->WorkLocal[7] = 2*
 55: 0x015A [0x01] GOTO 0x0105

SUBROUTINE_0160:
 56: 0x0160 [0x52] END_LOAD_SCHEDULER: End scheduler "6702" with entities [LocalPlayer, LocalPlayer], work=489*
 57: 0x016F [0x45] LOAD_SCHEDULED_TASK: Load scheduler "6703" with entities [LocalPlayer, LocalPlayer], work=[489*, 0*]
 58: 0x0180 [0x2B] Joachim (ID: 17784980/0x010F6094) [8501*]:
    → "I'm in yer debt yet again, <Player>. Now, as I said, ye'll meet yer man at the stone circle in La Theine. Thing is, due t' the stones' properties, he can't be there fer long stretches of time."
 59: 0x0187 [0x23] WAIT_FOR_DIALOG_INTERACTION
 60: 0x0188 [0x66] LOAD_EXT_SCHEDULER_MAIN: Load scheduler "twa0" with entities [Joachim (ID: 17784980/0x010F6094), Joachim (ID: 17784980/0x010F6094)], work=9*
 61: 0x0197 [0x2B] Joachim (ID: 17784980/0x010F6094) [8502*]:
    → "Only from dusk till dawn can he cross over t' this world. Be keepin' that in mind."
 62: 0x019E [0x23] WAIT_FOR_DIALOG_INTERACTION
 63: 0x019F [0x66] LOAD_EXT_SCHEDULER_MAIN: Load scheduler "twa1" with entities [Joachim (ID: 17784980/0x010F6094), Joachim (ID: 17784980/0x010F6094)], work=9*
 64: 0x01AE [0x52] END_LOAD_SCHEDULER: End scheduler "6703" with entities [LocalPlayer, LocalPlayer], work=489*
 65: 0x01BD [0x45] LOAD_SCHEDULED_TASK: Load scheduler "6704" with entities [LocalPlayer, LocalPlayer], work=[489*, 0*]
 66: 0x01CE [0x2B] Joachim (ID: 17784980/0x010F6094) [8503*]:
    → "I don't blame ye if ye're feelin' reserved about meetin' this mystery man, but I assure ye, he's a real dinkum bloke."
 67: 0x01D5 [0x23] WAIT_FOR_DIALOG_INTERACTION
 68: 0x01D6 [0x2B] Joachim (ID: 17784980/0x010F6094) [8504*]:
    → "Jus' take yerself over t' the rendezvous point, an' he'll seek ye out. It's simple as meat pie."
 69: 0x01DD [0x23] WAIT_FOR_DIALOG_INTERACTION
 70: 0x01DE [0x52] END_LOAD_SCHEDULER: End scheduler "6704" with entities [LocalPlayer, LocalPlayer], work=489*
 71: 0x01ED [0x45] LOAD_SCHEDULED_TASK: Load scheduler "6705" with entities [LocalPlayer, LocalPlayer], work=[489*, 0*]
 72: 0x01FE [0x6E] Joachim (ID: 17784980/0x010F6094) uses emote 7*
 73: 0x0205 [0x99] Wait for Joachim (ID: 17784980/0x010F6094) animation to complete
 74: 0x020A [0x2B] Joachim (ID: 17784980/0x010F6094) [8505*]:
    → "Go well, <Player>. Be seein' ye again real soon."
 75: 0x0211 [0x23] WAIT_FOR_DIALOG_INTERACTION
 76: 0x0212 [0x1A] CALL_SUBROUTINE(address=0x0F6F)
 77: 0x0215 [0x1C] WAIT(30* ticks)
 78: 0x0218 [0x52] END_LOAD_SCHEDULER: End scheduler "6705" with entities [LocalPlayer, LocalPlayer], work=489*
 79: 0x0227 [0x45] LOAD_SCHEDULED_TASK: Load scheduler "0blf" with entities [LocalPlayer, LocalPlayer], work=[489*, 0*]
 80: 0x0238 [0x5C] MUSIC_CONTROL: Set Idle (Day) music to song 110*
 81: 0x023C [0x5C] MUSIC_CONTROL: Set Idle (Night) music to song 110*
 82: 0x0240 [0x9A] WAIT_MUSIC_SERVER()
 83: 0x0241 [0x46] CAMERA_CONTROL: Restore default settings
 84: 0x0243 [0x45] LOAD_SCHEDULED_TASK: Load scheduler "fdi2" with entities [LocalPlayer, LocalPlayer], work=[200*, 0*]
 85: 0x0254 [0x21] END_EVENT
 86: 0x0255 [0x00] END_REQSTACK()
```

#### Data or dead code:

```
# Dead code (unreachable instructions):
     0x015D [0x01] GOTO 0x0160
```

### Event 334

#### Metadata

| Field        | Value     |
|--------------|-----------|
| Entrypoint   | 0x0256    |
| Data Size    | 904 bytes |
| Instructions | 123       |

```
      00 01 02 03 04 05 06 07  08 09 0A 0B 0C 0D 0E 0F
      -- -- -- -- -- -- -- --  -- -- -- -- -- -- -- --
0250:                   42 1A  6F 0F 03 03 00 06 10 03        B.o.......
0260: 04 00 07 10 03 05 00 08  10 03 06 00 09 10 46 01  ..............F.
0270: 38 00 80 92 01 94 60 0F  01 94 01 F0 FF FF 7F 94  8.....`.........
0280: 01 94 60 0F 01 BA F0 FF  FF 7F 01 80 02 80 03 80  ..`.............
0290: 04 80 80 F0 FF FF 7F 80  94 60 0F 01 1C 05 80 4A  .........`.....J
02A0: 94 60 0F 01 F0 FF FF 7F  4A F0 FF FF 7F 94 60 0F  .`......J.....`.
02B0: 01 6F 76 F0 FF FF 7F 45  06 80 F0 FF FF 7F F0 FF  .ov....E........
02C0: FF 7F 36 39 30 30 03 80  1A 4E 0F 2B 94 60 0F 01  ..6900...N.+.`..
02D0: 1D 80 23 52 06 80 F0 FF  FF 7F F0 FF FF 7F 36 39  ..#R..........69
02E0: 30 30 45 06 80 F0 FF FF  7F F0 FF FF 7F 36 39 30  00E..........690
02F0: 31 03 80 66 07 80 94 60  0F 01 94 60 0F 01 74 77  1..f...`...`..tw
0300: 61 30 2B 94 60 0F 01 1E  80 23 66 07 80 94 60 0F  a0+.`....#f...`.
0310: 01 94 60 0F 01 74 77 61  31 2B 94 60 0F 01 1F 80  ..`..twa1+.`....
0320: 23 52 06 80 F0 FF FF 7F  F0 FF FF 7F 36 39 30 31  #R..........6901
0330: 45 06 80 F0 FF FF 7F F0  FF FF 7F 36 39 30 32 03  E..........6902.
0340: 80 2B 94 60 0F 01 20 80  23 66 07 80 94 60 0F 01  .+.`.. .#f...`..
0350: 94 60 0F 01 74 77 62 30  2B 94 60 0F 01 21 80 23  .`..twb0+.`..!.#
0360: 66 07 80 94 60 0F 01 94  60 0F 01 74 77 62 31 52  f...`...`..twb1R
0370: 06 80 F0 FF FF 7F F0 FF  FF 7F 36 39 30 32 45 06  ..........6902E.
0380: 80 F0 FF FF 7F F0 FF FF  7F 36 39 30 33 03 80 1C  .........6903...
0390: 22 80 6E 94 60 0F 01 0B  80 99 94 60 0F 01 2B 94  ".n.`......`..+.
03A0: 60 0F 01 23 80 23 2B 94  60 0F 01 24 80 23 27 10  `..#.#+.`..$.#'.
03B0: 94 60 0F 01 1A 1C 05 80  79 00 F0 FF FF 7F 94 60  .`......y......`
03C0: 0F 01 52 06 80 F0 FF FF  7F F0 FF FF 7F 36 39 30  ..R..........690
03D0: 33 45 06 80 F0 FF FF 7F  F0 FF FF 7F 36 39 30 34  3E..........6904
03E0: 03 80 2B 94 60 0F 01 25  80 23 2A 10 94 60 0F 01  ..+.`..%.#*..`..
03F0: 79 02 94 60 0F 01 26 80  03 80 2B 94 60 0F 01 27  y..`..&...+.`..'
0400: 80 23 29 10 F0 FF FF 7F  28 7B 94 60 0F 01 4A 94  .#).....({.`..J.
0410: 60 0F 01 F0 FF FF 7F 52  06 80 F0 FF FF 7F F0 FF  `......R........
0420: FF 7F 36 39 30 34 45 06  80 F0 FF FF 7F F0 FF FF  ..6904E.........
0430: 7F 36 39 30 35 03 80 6F  76 94 60 0F 01 2B 94 60  .6905..ov.`..+.`
0440: 0F 01 28 80 23 52 06 80  F0 FF FF 7F F0 FF FF 7F  ..(.#R..........
0450: 36 39 30 35 45 06 80 F0  FF FF 7F F0 FF FF 7F 36  6905E..........6
0460: 39 30 36 03 80 27 10 94  60 0F 01 1B 1C 05 80 2B  906..'..`......+
0470: 94 60 0F 01 29 80 23 2A  10 94 60 0F 01 4A 94 60  .`..).#*..`..J.`
0480: 0F 01 F0 FF FF 7F 6F 76  94 60 0F 01 2B 94 60 0F  ......ov.`..+.`.
0490: 01 2A 80 23 52 06 80 F0  FF FF 7F F0 FF FF 7F 36  .*.#R..........6
04A0: 39 30 36 45 06 80 F0 FF  FF 7F F0 FF FF 7F 36 39  906E..........69
04B0: 30 37 03 80 66 07 80 94  60 0F 01 94 60 0F 01 74  07..f...`...`..t
04C0: 77 61 30 2B 94 60 0F 01  2B 80 23 66 07 80 94 60  wa0+.`..+.#f...`
04D0: 0F 01 94 60 0F 01 74 77  61 31 2B 94 60 0F 01 2C  ...`..twa1+.`..,
04E0: 80 23 52 06 80 F0 FF FF  7F F0 FF FF 7F 36 39 30  .#R..........690
04F0: 37 45 06 80 F0 FF FF 7F  F0 FF FF 7F 36 39 30 38  7E..........6908
0500: 03 80 24 2D 80 03 80 03  80 25 02 00 10 03 80 00  ..$-.....%......
0510: 58 05 6E F0 FF FF 7F 2E  80 99 F0 FF FF 7F 1C 14  X.n.............
0520: 80 52 06 80 F0 FF FF 7F  F0 FF FF 7F 36 39 30 38  .R..........6908
0530: 45 06 80 F0 FF FF 7F F0  FF FF 7F 36 39 30 39 03  E..........6909.
0540: 80 6E 94 60 0F 01 00 80  99 94 60 0F 01 2B 94 60  .n.`......`..+.`
0550: 0F 01 2F 80 23 01 9A 05  02 00 10 10 80 00 9A 05  ../.#...........
0560: 52 06 80 F0 FF FF 7F F0  FF FF 7F 36 39 30 38 45  R..........6908E
0570: 06 80 F0 FF FF 7F F0 FF  FF 7F 36 39 30 39 03 80  ..........6909..
0580: 6E 94 60 0F 01 0B 80 99  94 60 0F 01 1C 05 80 2B  n.`......`.....+
0590: 94 60 0F 01 30 80 23 01  9A 05 1A 6F 0F 1C 05 80  .`..0.#....o....
05A0: 52 06 80 F0 FF FF 7F F0  FF FF 7F 36 39 30 39 45  R..........6909E
05B0: 06 80 F0 FF FF 7F F0 FF  FF 7F 30 62 6C 66 03 80  ..........0blf..
05C0: 5C 00 1B 80 5C 01 1B 80  9A 46 00 45 1C 80 F0 FF  \...\....F.E....
05D0: FF 7F F0 FF FF 7F 66 64  69 32 03 80 21 00        ......fdi2..!.  
```

#### Opcodes

```
  0: 0x0256 [0x42] SET_CLI_EVENT_CANCEL_DATA()
  1: 0x0257 [0x1A] CALL_SUBROUTINE(address=0x0F6F)
  2: 0x025A [0x03] ExtData[1]->WorkLocal[3] = Work_Zone[6]
  3: 0x025F [0x03] ExtData[1]->WorkLocal[4] = Work_Zone[7]
  4: 0x0264 [0x03] ExtData[1]->WorkLocal[5] = Work_Zone[8]
  5: 0x0269 [0x03] ExtData[1]->WorkLocal[6] = Work_Zone[9]
  6: 0x026E [0x46] CAMERA_CONTROL: Disable user control
  7: 0x0270 [0x38] SET_CLIENT_EVENT_MODE(mode=19*)
  8: 0x0273 [0x92] Joachim (ID: 17784980/0x010F6094)->Render.Flags3 ^= 0x01
  9: 0x0279 [0x94] LocalPlayer->Render.Flags3 ^= 0x01
 10: 0x027F [0x94] Joachim (ID: 17784980/0x010F6094)->Render.Flags3 ^= 0x01
 11: 0x0285 [0xBA] SET_ENTITY_POSITION(entity_id=LocalPlayer, pos_x=-53.419*, pos_z=-8.091*, pos_y=0.000*, direction=72.0°*)
 12: 0x0292 [0x80] LOAD_WAIT(entity=LocalPlayer)
 13: 0x0297 [0x80] LOAD_WAIT(entity=Joachim (ID: 17784980/0x010F6094))
 14: 0x029C [0x1C] WAIT(30* ticks)
 15: 0x029F [0x4A] Joachim (ID: 17784980/0x010F6094) looks at LocalPlayer
 16: 0x02A8 [0x4A] LocalPlayer looks at Joachim (ID: 17784980/0x010F6094)
 17: 0x02B1 [0x6F] WAIT_FRAME_DELAY: Yield until WaitTime reaches zero
 18: 0x02B2 [0x76] CHECK_ENTITY_RENDER_FLAGS: Wait until LocalPlayer Render.Flags0 and Render.Flags3 conditions are met
 19: 0x02B7 [0x45] LOAD_SCHEDULED_TASK: Load scheduler "6900" with entities [LocalPlayer, LocalPlayer], work=[489*, 0*]
 20: 0x02C8 [0x1A] CALL_SUBROUTINE(address=0x0F4E)
 21: 0x02CB [0x2B] Joachim (ID: 17784980/0x010F6094) [8506*]:
    → "Welcome back, <Player>. It seems the meetin' went without incident."
 22: 0x02D2 [0x23] WAIT_FOR_DIALOG_INTERACTION
 23: 0x02D3 [0x52] END_LOAD_SCHEDULER: End scheduler "6900" with entities [LocalPlayer, LocalPlayer], work=489*
 24: 0x02E2 [0x45] LOAD_SCHEDULED_TASK: Load scheduler "6901" with entities [LocalPlayer, LocalPlayer], work=[489*, 0*]
 25: 0x02F3 [0x66] LOAD_EXT_SCHEDULER_MAIN: Load scheduler "twa0" with entities [Joachim (ID: 17784980/0x010F6094), Joachim (ID: 17784980/0x010F6094)], work=9*
 26: 0x0302 [0x2B] Joachim (ID: 17784980/0x010F6094) [8507*]:
    → "I trust ye understand now why the man couldn't come t' Jeuno."
 27: 0x0309 [0x23] WAIT_FOR_DIALOG_INTERACTION
 28: 0x030A [0x66] LOAD_EXT_SCHEDULER_MAIN: Load scheduler "twa1" with entities [Joachim (ID: 17784980/0x010F6094), Joachim (ID: 17784980/0x010F6094)], work=9*
 29: 0x0319 [0x2B] Joachim (ID: 17784980/0x010F6094) [8508*]:
    → "Bein' an underworld figure of sorts, it wouldn't do if he were seen paradin' himself hereabouts."
 30: 0x0320 [0x23] WAIT_FOR_DIALOG_INTERACTION
 31: 0x0321 [0x52] END_LOAD_SCHEDULER: End scheduler "6901" with entities [LocalPlayer, LocalPlayer], work=489*
 32: 0x0330 [0x45] LOAD_SCHEDULED_TASK: Load scheduler "6902" with entities [LocalPlayer, LocalPlayer], work=[489*, 0*]
 33: 0x0341 [0x2B] Joachim (ID: 17784980/0x010F6094) [8509*]:
    → "Doubtless he's already bent yer ears 'bout havin' been a pirate back in the day, runnin' his operations out of Elshimo."
 34: 0x0348 [0x23] WAIT_FOR_DIALOG_INTERACTION
 35: 0x0349 [0x66] LOAD_EXT_SCHEDULER_MAIN: Load scheduler "twb0" with entities [Joachim (ID: 17784980/0x010F6094), Joachim (ID: 17784980/0x010F6094)], work=9*
 36: 0x0358 [0x2B] Joachim (ID: 17784980/0x010F6094) [8510*]:
    → "Considerin' how well-traveled an adventurer ye are, I reckon ye already knew the man."
 37: 0x035F [0x23] WAIT_FOR_DIALOG_INTERACTION
 38: 0x0360 [0x66] LOAD_EXT_SCHEDULER_MAIN: Load scheduler "twb1" with entities [Joachim (ID: 17784980/0x010F6094), Joachim (ID: 17784980/0x010F6094)], work=9*
 39: 0x036F [0x52] END_LOAD_SCHEDULER: End scheduler "6902" with entities [LocalPlayer, LocalPlayer], work=489*
 40: 0x037E [0x45] LOAD_SCHEDULED_TASK: Load scheduler "6903" with entities [LocalPlayer, LocalPlayer], work=[489*, 0*]
 41: 0x038F [0x1C] WAIT(60* ticks)
 42: 0x0392 [0x6E] Joachim (ID: 17784980/0x010F6094) uses emote 6*
 43: 0x0399 [0x99] Wait for Joachim (ID: 17784980/0x010F6094) animation to complete
 44: 0x039E [0x2B] Joachim (ID: 17784980/0x010F6094) [8511*]:
    → "But I won't probe ye on that subject. Some things are best left untouched, t' be sure."
 45: 0x03A5 [0x23] WAIT_FOR_DIALOG_INTERACTION
 46: 0x03A6 [0x2B] Joachim (ID: 17784980/0x010F6094) [8512*]:
    → "I find meself sayin' this often of late, but yer aid has allowed hope t' sprout among the survivors. If ye were t' ask me if mankind's made any real progress, though, the answer would be a resoundin' "no.""
 47: 0x03AD [0x23] WAIT_FOR_DIALOG_INTERACTION
 48: 0x03AE [0x27] REQ_SET(priority=0x10, entity_id=Joachim (ID: 17784980/0x010F6094), tag_num=0x1A)
 49: 0x03B5 [0x1C] WAIT(30* ticks)
 50: 0x03B8 [0x79] LocalPlayer looks at Joachim (ID: 17784980/0x010F6094) (Basic look)
 51: 0x03C2 [0x52] END_LOAD_SCHEDULER: End scheduler "6903" with entities [LocalPlayer, LocalPlayer], work=489*
 52: 0x03D1 [0x45] LOAD_SCHEDULED_TASK: Load scheduler "6904" with entities [LocalPlayer, LocalPlayer], work=[489*, 0*]
 53: 0x03E2 [0x2B] Joachim (ID: 17784980/0x010F6094) [8513*]:
    → "The survivors're more organized than afore, true, but our fundamental plight be as grim as ever. The Abyssean hordes attack, an' we beat them back as best we can. An' when we're not busy fendin' off monsters, we're scrapin' up what livin' we can, foragin' fer food what can still be had."
 54: 0x03E9 [0x23] WAIT_FOR_DIALOG_INTERACTION
 55: 0x03EA [0x2A] GET_REQ_LEVEL(level=16, entity_id=Joachim (ID: 17784980/0x010F6094))
 56: 0x03F0 [0x79] Joachim (ID: 17784980/0x010F6094) looks at Unknown NPC (ID: 2147713062/0x80038026) (Direct axis set)
 57: 0x03FA [0x2B] Joachim (ID: 17784980/0x010F6094) [8514*]:
    → "None of this has changed, <Player>, an' I suspect that be why ye were called out t' La Theine. Rumors of yer feats aren't like t' escape the notice of key resistance folk fer long. Soon or late, they'd look ye up, hopin' t' recruit yer aid in gettin' us out of this rut."
 58: 0x0401 [0x23] WAIT_FOR_DIALOG_INTERACTION
 59: 0x0402 [0x29] REQ_SET_WAIT(priority=0x10, entity_id=LocalPlayer, tag_num=0x28)
 60: 0x0409 [0x7B] Joachim (ID: 17784980/0x010F6094) stops talking
 61: 0x040E [0x4A] Joachim (ID: 17784980/0x010F6094) looks at LocalPlayer
 62: 0x0417 [0x52] END_LOAD_SCHEDULER: End scheduler "6904" with entities [LocalPlayer, LocalPlayer], work=489*
 63: 0x0426 [0x45] LOAD_SCHEDULED_TASK: Load scheduler "6905" with entities [LocalPlayer, LocalPlayer], work=[489*, 0*]
 64: 0x0437 [0x6F] WAIT_FRAME_DELAY: Yield until WaitTime reaches zero
 65: 0x0438 [0x76] CHECK_ENTITY_RENDER_FLAGS: Wait until Joachim (ID: 17784980/0x010F6094) Render.Flags0 and Render.Flags3 conditions are met
 66: 0x043D [0x2B] Joachim (ID: 17784980/0x010F6094) [8515*]:
    → "Hit the nail fair on the head, did I? I'm not the only one who sees great things in ye, <Player>, an' fer good reason."
 67: 0x0444 [0x23] WAIT_FOR_DIALOG_INTERACTION
 68: 0x0445 [0x52] END_LOAD_SCHEDULER: End scheduler "6905" with entities [LocalPlayer, LocalPlayer], work=489*
 69: 0x0454 [0x45] LOAD_SCHEDULED_TASK: Load scheduler "6906" with entities [LocalPlayer, LocalPlayer], work=[489*, 0*]
 70: 0x0465 [0x27] REQ_SET(priority=0x10, entity_id=Joachim (ID: 17784980/0x010F6094), tag_num=0x1B)
 71: 0x046C [0x1C] WAIT(30* ticks)
 72: 0x046F [0x2B] Joachim (ID: 17784980/0x010F6094) [8516*]:
    → "Me comrades an' I crossed over t' this world, desperately searchin' fer a way t' save our home."
 73: 0x0476 [0x23] WAIT_FOR_DIALOG_INTERACTION
 74: 0x0477 [0x2A] GET_REQ_LEVEL(level=16, entity_id=Joachim (ID: 17784980/0x010F6094))
 75: 0x047D [0x4A] Joachim (ID: 17784980/0x010F6094) looks at LocalPlayer
 76: 0x0486 [0x6F] WAIT_FRAME_DELAY: Yield until WaitTime reaches zero
 77: 0x0487 [0x76] CHECK_ENTITY_RENDER_FLAGS: Wait until Joachim (ID: 17784980/0x010F6094) Render.Flags0 and Render.Flags3 conditions are met
 78: 0x048C [0x2B] Joachim (ID: 17784980/0x010F6094) [8517*]:
    → "An' in the midst o' our despair, we found our ray of hope in strong, compassionate folk such as yerself."
 79: 0x0493 [0x23] WAIT_FOR_DIALOG_INTERACTION
 80: 0x0494 [0x52] END_LOAD_SCHEDULER: End scheduler "6906" with entities [LocalPlayer, LocalPlayer], work=489*
 81: 0x04A3 [0x45] LOAD_SCHEDULED_TASK: Load scheduler "6907" with entities [LocalPlayer, LocalPlayer], work=[489*, 0*]
 82: 0x04B4 [0x66] LOAD_EXT_SCHEDULER_MAIN: Load scheduler "twa0" with entities [Joachim (ID: 17784980/0x010F6094), Joachim (ID: 17784980/0x010F6094)], work=9*
 83: 0x04C3 [0x2B] Joachim (ID: 17784980/0x010F6094) [8518*]:
    → "Uncoverin' the truth an' restorin' Abyssea t' its erstwhile state--these things've proven t' be far beyond the power of me folk t' accomplish alone."
 84: 0x04CA [0x23] WAIT_FOR_DIALOG_INTERACTION
 85: 0x04CB [0x66] LOAD_EXT_SCHEDULER_MAIN: Load scheduler "twa1" with entities [Joachim (ID: 17784980/0x010F6094), Joachim (ID: 17784980/0x010F6094)], work=9*
 86: 0x04DA [0x2B] Joachim (ID: 17784980/0x010F6094) [8519*]:
    → "I beg ye, <Player>, please keep lendin' us yer strength! Stand with us t' the bloody end!"
 87: 0x04E1 [0x23] WAIT_FOR_DIALOG_INTERACTION
 88: 0x04E2 [0x52] END_LOAD_SCHEDULER: End scheduler "6907" with entities [LocalPlayer, LocalPlayer], work=489*
 89: 0x04F1 [0x45] LOAD_SCHEDULED_TASK: Load scheduler "6908" with entities [LocalPlayer, LocalPlayer], work=[489*, 0*]
 90: 0x0502 [0x24] CREATE_DIALOG(message_id=8520*, default_option=0*, option_flags=0*)
    → "How will you respond? [If you need a hero, look no further!/It's just too big a commitment.]"
 91: 0x0509 [0x25] WAIT_DIALOG_SELECT()
 92: 0x050A [0x02] IF !(Work_Zone[0] == 0*) GOTO 0x0558
 93: 0x0512 [0x6E] LocalPlayer uses emote 36*
 94: 0x0519 [0x99] Wait for LocalPlayer animation to complete
 95: 0x051E [0x1C] WAIT(120* ticks)
 96: 0x0521 [0x52] END_LOAD_SCHEDULER: End scheduler "6908" with entities [LocalPlayer, LocalPlayer], work=489*
 97: 0x0530 [0x45] LOAD_SCHEDULED_TASK: Load scheduler "6909" with entities [LocalPlayer, LocalPlayer], work=[489*, 0*]
 98: 0x0541 [0x6E] Joachim (ID: 17784980/0x010F6094) uses emote 19*
 99: 0x0548 [0x99] Wait for Joachim (ID: 17784980/0x010F6094) animation to complete
100: 0x054D [0x2B] Joachim (ID: 17784980/0x010F6094) [8521*]:
    → "Words alone aren't enough t' express me gratitude, <Player>. With yer help, Abyssea will surely again be restored t' the beauteous realm she once was."
101: 0x0554 [0x23] WAIT_FOR_DIALOG_INTERACTION
102: 0x0555 [0x01] GOTO 0x059A
103: 0x0558 [0x02] IF !(Work_Zone[0] == 1*) GOTO 0x059A
104: 0x0560 [0x52] END_LOAD_SCHEDULER: End scheduler "6908" with entities [LocalPlayer, LocalPlayer], work=489*
105: 0x056F [0x45] LOAD_SCHEDULED_TASK: Load scheduler "6909" with entities [LocalPlayer, LocalPlayer], work=[489*, 0*]
106: 0x0580 [0x6E] Joachim (ID: 17784980/0x010F6094) uses emote 6*
107: 0x0587 [0x99] Wait for Joachim (ID: 17784980/0x010F6094) animation to complete
108: 0x058C [0x1C] WAIT(30* ticks)
109: 0x058F [0x2B] Joachim (ID: 17784980/0x010F6094) [8522*]:
    → "I know I ask much of ye, <Player>, an' fer that I'm sorry. We'd still appreciate yer aid, though, in whatever quantity ye can offer. Please jus' don't turn yer back on us."
110: 0x0596 [0x23] WAIT_FOR_DIALOG_INTERACTION
111: 0x0597 [0x01] GOTO 0x059A

SUBROUTINE_059A:
112: 0x059A [0x1A] CALL_SUBROUTINE(address=0x0F6F)
113: 0x059D [0x1C] WAIT(30* ticks)
114: 0x05A0 [0x52] END_LOAD_SCHEDULER: End scheduler "6909" with entities [LocalPlayer, LocalPlayer], work=489*
115: 0x05AF [0x45] LOAD_SCHEDULED_TASK: Load scheduler "0blf" with entities [LocalPlayer, LocalPlayer], work=[489*, 0*]
116: 0x05C0 [0x5C] MUSIC_CONTROL: Set Idle (Day) music to song 110*
117: 0x05C4 [0x5C] MUSIC_CONTROL: Set Idle (Night) music to song 110*
118: 0x05C8 [0x9A] WAIT_MUSIC_SERVER()
119: 0x05C9 [0x46] CAMERA_CONTROL: Restore default settings
120: 0x05CB [0x45] LOAD_SCHEDULED_TASK: Load scheduler "fdi2" with entities [LocalPlayer, LocalPlayer], work=[200*, 0*]
121: 0x05DC [0x21] END_EVENT
122: 0x05DD [0x00] END_REQSTACK()
```

### Event 335

#### Metadata

| Field        | Value     |
|--------------|-----------|
| Entrypoint   | 0x05DE    |
| Data Size    | 331 bytes |
| Instructions | 50        |

```
      00 01 02 03 04 05 06 07  08 09 0A 0B 0C 0D 0E 0F
      -- -- -- -- -- -- -- --  -- -- -- -- -- -- -- --
05D0:                                            42 1A                B.
05E0: 6F 0F 03 03 00 06 10 03  04 00 07 10 03 05 00 08  o...............
05F0: 10 03 06 00 09 10 46 01  38 00 80 92 01 94 60 0F  ......F.8.....`.
0600: 01 94 01 F0 FF FF 7F 94  01 94 60 0F 01 BA F0 FF  ..........`.....
0610: FF 7F 01 80 02 80 03 80  04 80 80 F0 FF FF 7F 80  ................
0620: 94 60 0F 01 1C 05 80 4A  94 60 0F 01 F0 FF FF 7F  .`.....J.`......
0630: 4A F0 FF FF 7F 94 60 0F  01 6F 76 F0 FF FF 7F 45  J.....`..ov....E
0640: 06 80 F0 FF FF 7F F0 FF  FF 7F 37 30 30 30 03 80  ..........7000..
0650: 1A 4E 0F 2B 94 60 0F 01  31 80 23 52 06 80 F0 FF  .N.+.`..1.#R....
0660: FF 7F F0 FF FF 7F 37 30  30 30 45 06 80 F0 FF FF  ......7000E.....
0670: 7F F0 FF FF 7F 37 30 30  31 03 80 66 07 80 94 60  .....7001..f...`
0680: 0F 01 94 60 0F 01 74 77  61 30 2B 94 60 0F 01 32  ...`..twa0+.`..2
0690: 80 23 2B 94 60 0F 01 17  80 23 66 07 80 94 60 0F  .#+.`....#f...`.
06A0: 01 94 60 0F 01 74 77 61  31 52 06 80 F0 FF FF 7F  ..`..twa1R......
06B0: F0 FF FF 7F 37 30 30 31  45 06 80 F0 FF FF 7F F0  ....7001E.......
06C0: FF FF 7F 37 30 30 32 03  80 2B 94 60 0F 01 33 80  ...7002..+.`..3.
06D0: 23 6E 94 60 0F 01 00 80  99 94 60 0F 01 2B 94 60  #n.`......`..+.`
06E0: 0F 01 34 80 23 1A 6F 0F  1C 05 80 52 06 80 F0 FF  ..4.#.o....R....
06F0: FF 7F F0 FF FF 7F 37 30  30 32 45 06 80 F0 FF FF  ......7002E.....
0700: 7F F0 FF FF 7F 30 62 6C  66 03 80 5C 00 1B 80 5C  .....0blf..\...\
0710: 01 1B 80 9A 46 00 45 1C  80 F0 FF FF 7F F0 FF FF  ....F.E.........
0720: 7F 66 64 69 32 03 80 21  00                       .fdi2..!.       
```

#### Opcodes

```
  0: 0x05DE [0x42] SET_CLI_EVENT_CANCEL_DATA()
  1: 0x05DF [0x1A] CALL_SUBROUTINE(address=0x0F6F)
  2: 0x05E2 [0x03] ExtData[1]->WorkLocal[3] = Work_Zone[6]
  3: 0x05E7 [0x03] ExtData[1]->WorkLocal[4] = Work_Zone[7]
  4: 0x05EC [0x03] ExtData[1]->WorkLocal[5] = Work_Zone[8]
  5: 0x05F1 [0x03] ExtData[1]->WorkLocal[6] = Work_Zone[9]
  6: 0x05F6 [0x46] CAMERA_CONTROL: Disable user control
  7: 0x05F8 [0x38] SET_CLIENT_EVENT_MODE(mode=19*)
  8: 0x05FB [0x92] Joachim (ID: 17784980/0x010F6094)->Render.Flags3 ^= 0x01
  9: 0x0601 [0x94] LocalPlayer->Render.Flags3 ^= 0x01
 10: 0x0607 [0x94] Joachim (ID: 17784980/0x010F6094)->Render.Flags3 ^= 0x01
 11: 0x060D [0xBA] SET_ENTITY_POSITION(entity_id=LocalPlayer, pos_x=-53.419*, pos_z=-8.091*, pos_y=0.000*, direction=72.0°*)
 12: 0x061A [0x80] LOAD_WAIT(entity=LocalPlayer)
 13: 0x061F [0x80] LOAD_WAIT(entity=Joachim (ID: 17784980/0x010F6094))
 14: 0x0624 [0x1C] WAIT(30* ticks)
 15: 0x0627 [0x4A] Joachim (ID: 17784980/0x010F6094) looks at LocalPlayer
 16: 0x0630 [0x4A] LocalPlayer looks at Joachim (ID: 17784980/0x010F6094)
 17: 0x0639 [0x6F] WAIT_FRAME_DELAY: Yield until WaitTime reaches zero
 18: 0x063A [0x76] CHECK_ENTITY_RENDER_FLAGS: Wait until LocalPlayer Render.Flags0 and Render.Flags3 conditions are met
 19: 0x063F [0x45] LOAD_SCHEDULED_TASK: Load scheduler "7000" with entities [LocalPlayer, LocalPlayer], work=[489*, 0*]
 20: 0x0650 [0x1A] CALL_SUBROUTINE(address=0x0F4E)
 21: 0x0653 [0x2B] Joachim (ID: 17784980/0x010F6094) [8523*]:
    → "Ah, <Player>. Always a sight fer sore eyes. I've got a message fer ye here, from ye-know-who. Needs t' speak with ye again, he says."
 22: 0x065A [0x23] WAIT_FOR_DIALOG_INTERACTION
 23: 0x065B [0x52] END_LOAD_SCHEDULER: End scheduler "7000" with entities [LocalPlayer, LocalPlayer], work=489*
 24: 0x066A [0x45] LOAD_SCHEDULED_TASK: Load scheduler "7001" with entities [LocalPlayer, LocalPlayer], work=[489*, 0*]
 25: 0x067B [0x66] LOAD_EXT_SCHEDULER_MAIN: Load scheduler "twa0" with entities [Joachim (ID: 17784980/0x010F6094), Joachim (ID: 17784980/0x010F6094)], work=9*
 26: 0x068A [0x2B] Joachim (ID: 17784980/0x010F6094) [8524*]:
    → "The location's the same, out at the stone circle in La Theine. As fer the time, remember what I told ye earlier."
 27: 0x0691 [0x23] WAIT_FOR_DIALOG_INTERACTION
 28: 0x0692 [0x2B] Joachim (ID: 17784980/0x010F6094) [8502*]:
    → "Only from dusk till dawn can he cross over t' this world. Be keepin' that in mind."
 29: 0x0699 [0x23] WAIT_FOR_DIALOG_INTERACTION
 30: 0x069A [0x66] LOAD_EXT_SCHEDULER_MAIN: Load scheduler "twa1" with entities [Joachim (ID: 17784980/0x010F6094), Joachim (ID: 17784980/0x010F6094)], work=9*
 31: 0x06A9 [0x52] END_LOAD_SCHEDULER: End scheduler "7001" with entities [LocalPlayer, LocalPlayer], work=489*
 32: 0x06B8 [0x45] LOAD_SCHEDULED_TASK: Load scheduler "7002" with entities [LocalPlayer, LocalPlayer], work=[489*, 0*]
 33: 0x06C9 [0x2B] Joachim (ID: 17784980/0x010F6094) [8525*]:
    → "While I'm not privy t' the purpose of this next meetin', I know the man wouldn't cross over here fer whimsical reasons."
 34: 0x06D0 [0x23] WAIT_FOR_DIALOG_INTERACTION
 35: 0x06D1 [0x6E] Joachim (ID: 17784980/0x010F6094) uses emote 19*
 36: 0x06D8 [0x99] Wait for Joachim (ID: 17784980/0x010F6094) animation to complete
 37: 0x06DD [0x2B] Joachim (ID: 17784980/0x010F6094) [8526*]:
    → "That he'd come again so soon doesn't bode well, I fear..."
 38: 0x06E4 [0x23] WAIT_FOR_DIALOG_INTERACTION
 39: 0x06E5 [0x1A] CALL_SUBROUTINE(address=0x0F6F)
 40: 0x06E8 [0x1C] WAIT(30* ticks)
 41: 0x06EB [0x52] END_LOAD_SCHEDULER: End scheduler "7002" with entities [LocalPlayer, LocalPlayer], work=489*
 42: 0x06FA [0x45] LOAD_SCHEDULED_TASK: Load scheduler "0blf" with entities [LocalPlayer, LocalPlayer], work=[489*, 0*]
 43: 0x070B [0x5C] MUSIC_CONTROL: Set Idle (Day) music to song 110*
 44: 0x070F [0x5C] MUSIC_CONTROL: Set Idle (Night) music to song 110*
 45: 0x0713 [0x9A] WAIT_MUSIC_SERVER()
 46: 0x0714 [0x46] CAMERA_CONTROL: Restore default settings
 47: 0x0716 [0x45] LOAD_SCHEDULED_TASK: Load scheduler "fdi2" with entities [LocalPlayer, LocalPlayer], work=[200*, 0*]
 48: 0x0727 [0x21] END_EVENT
 49: 0x0728 [0x00] END_REQSTACK()
```

### Event 336

#### Metadata

| Field        | Value     |
|--------------|-----------|
| Entrypoint   | 0x0729    |
| Data Size    | 990 bytes |
| Instructions | 125       |

```
      00 01 02 03 04 05 06 07  08 09 0A 0B 0C 0D 0E 0F
      -- -- -- -- -- -- -- --  -- -- -- -- -- -- -- --
0720:                             42 1A 6F 0F 03 03 00           B.o....
0730: 06 10 03 04 00 07 10 03  05 00 08 10 03 06 00 09  ................
0740: 10 46 01 38 00 80 92 01  94 60 0F 01 94 01 F0 FF  .F.8.....`......
0750: FF 7F 94 01 94 60 0F 01  BA F0 FF FF 7F 01 80 02  .....`..........
0760: 80 03 80 04 80 80 F0 FF  FF 7F 80 94 60 0F 01 1C  ............`...
0770: 05 80 4A 94 60 0F 01 F0  FF FF 7F 4A F0 FF FF 7F  ..J.`......J....
0780: 94 60 0F 01 6F 76 F0 FF  FF 7F 45 06 80 F0 FF FF  .`..ov....E.....
0790: 7F F0 FF FF 7F 37 31 30  30 03 80 1A 4E 0F 2B 94  .....7100...N.+.
07A0: 60 0F 01 35 80 23 29 10  F0 FF FF 7F 28 52 06 80  `..5.#).....(R..
07B0: F0 FF FF 7F F0 FF FF 7F  37 31 30 30 45 06 80 F0  ........7100E...
07C0: FF FF 7F F0 FF FF 7F 37  31 30 31 03 80 6E 94 60  .......7101..n.`
07D0: 0F 01 36 80 99 94 60 0F  01 2B 94 60 0F 01 37 80  ..6...`..+.`..7.
07E0: 1C 14 80 23 2B 94 60 0F  01 38 80 23 52 06 80 F0  ...#+.`..8.#R...
07F0: FF FF 7F F0 FF FF 7F 37  31 30 31 45 06 80 F0 FF  .......7101E....
0800: FF 7F F0 FF FF 7F 37 31  30 32 03 80 66 07 80 94  ......7102..f...
0810: 60 0F 01 94 60 0F 01 74  77 62 30 2B 94 60 0F 01  `...`..twb0+.`..
0820: 39 80 23 66 07 80 94 60  0F 01 94 60 0F 01 74 77  9.#f...`...`..tw
0830: 62 31 1C 22 80 2B 94 60  0F 01 3A 80 23 27 10 94  b1.".+.`..:.#'..
0840: 60 0F 01 1C 1C 05 80 52  06 80 F0 FF FF 7F F0 FF  `......R........
0850: FF 7F 37 31 30 32 45 06  80 F0 FF FF 7F F0 FF FF  ..7102E.........
0860: 7F 37 31 30 33 03 80 2B  94 60 0F 01 3B 80 23 2B  .7103..+.`..;.#+
0870: 94 60 0F 01 3C 80 23 2A  10 94 60 0F 01 52 06 80  .`..<.#*..`..R..
0880: F0 FF FF 7F F0 FF FF 7F  37 31 30 33 45 06 80 F0  ........7103E...
0890: FF FF 7F F0 FF FF 7F 37  31 30 34 03 80 2B 94 60  .......7104..+.`
08A0: 0F 01 3D 80 23 2B 94 60  0F 01 3E 80 23 52 06 80  ..=.#+.`..>.#R..
08B0: F0 FF FF 7F F0 FF FF 7F  37 31 30 34 45 06 80 F0  ........7104E...
08C0: FF FF 7F F0 FF FF 7F 37  31 30 35 03 80 5B 3F 80  .......7105..[?.
08D0: 94 60 0F 01 94 60 0F 01  75 6C 62 30 1C 05 80 2B  .`...`..ulb0...+
08E0: 94 60 0F 01 40 80 23 2B  94 60 0F 01 41 80 23 52  .`..@.#+.`..A.#R
08F0: 06 80 F0 FF FF 7F F0 FF  FF 7F 37 31 30 35 29 10  ..........7105).
0900: F0 FF FF 7F 20 02 02 10  10 80 80 21 09 45 06 80  .... ......!.E..
0910: F0 FF FF 7F F0 FF FF 7F  37 31 68 6D 03 80 01 E5  ........71hm....
0920: 09 02 02 10 15 80 80 3D  09 45 06 80 F0 FF FF 7F  .......=.E......
0930: F0 FF FF 7F 37 31 68 66  03 80 01 E5 09 02 02 10  ....71hf........
0940: 42 80 80 59 09 45 06 80  F0 FF FF 7F F0 FF FF 7F  B..Y.E..........
0950: 37 31 65 6D 03 80 01 E5  09 02 02 10 43 80 80 75  71em........C..u
0960: 09 45 06 80 F0 FF FF 7F  F0 FF FF 7F 37 31 65 66  .E..........71ef
0970: 03 80 01 E5 09 02 02 10  12 80 80 91 09 45 06 80  .............E..
0980: F0 FF FF 7F F0 FF FF 7F  37 31 74 72 03 80 01 E5  ........71tr....
0990: 09 02 02 10 0B 80 80 AD  09 45 06 80 F0 FF FF 7F  .........E......
09A0: F0 FF FF 7F 37 31 74 72  03 80 01 E5 09 02 02 10  ....71tr........
09B0: 0E 80 80 C9 09 45 06 80  F0 FF FF 7F F0 FF FF 7F  .....E..........
09C0: 37 31 6D 74 03 80 01 E5  09 02 02 10 44 80 80 E5  71mt........D...
09D0: 09 45 06 80 F0 FF FF 7F  F0 FF FF 7F 37 31 67 6C  .E..........71gl
09E0: 03 80 01 E5 09 1C 05 80  6B 69 64 6C 30 94 60 0F  ........kidl0.`.
09F0: 01 4A 94 60 0F 01 F0 FF  FF 7F 1C 0F 80 52 06 80  .J.`.........R..
0A00: F0 FF FF 7F F0 FF FF 7F  37 31 68 6D 52 06 80 F0  ........71hmR...
0A10: FF FF 7F F0 FF FF 7F 37  31 68 66 52 06 80 F0 FF  .......71hfR....
0A20: FF 7F F0 FF FF 7F 37 31  65 6D 52 06 80 F0 FF FF  ......71emR.....
0A30: 7F F0 FF FF 7F 37 31 65  66 52 06 80 F0 FF FF 7F  .....71efR......
0A40: F0 FF FF 7F 37 31 74 72  52 06 80 F0 FF FF 7F F0  ....71trR.......
0A50: FF FF 7F 37 31 6D 74 52  06 80 F0 FF FF 7F F0 FF  ...71mtR........
0A60: FF 7F 37 31 67 6C 45 06  80 F0 FF FF 7F F0 FF FF  ..71glE.........
0A70: 7F 37 31 30 36 03 80 27  10 94 60 0F 01 1D 1C 05  .7106..'..`.....
0A80: 80 2B 94 60 0F 01 45 80  23 2A 10 94 60 0F 01 52  .+.`..E.#*..`..R
0A90: 06 80 F0 FF FF 7F F0 FF  FF 7F 37 31 30 36 45 06  ..........7106E.
0AA0: 80 F0 FF FF 7F F0 FF FF  7F 37 31 30 37 03 80 6E  .........7107..n
0AB0: 94 60 0F 01 0E 80 99 94  60 0F 01 2B 94 60 0F 01  .`......`..+.`..
0AC0: 46 80 23 1A 6F 0F 1C 05  80 52 06 80 F0 FF FF 7F  F.#.o....R......
0AD0: F0 FF FF 7F 37 31 30 37  45 06 80 F0 FF FF 7F F0  ....7107E.......
0AE0: FF FF 7F 30 62 6C 66 03  80 5C 00 1B 80 5C 01 1B  ...0blf..\...\..
0AF0: 80 9A 46 00 45 1C 80 F0  FF FF 7F F0 FF FF 7F 66  ..F.E..........f
0B00: 64 69 32 03 80 21 00                              di2..!.         
```

#### Opcodes

```
  0: 0x0729 [0x42] SET_CLI_EVENT_CANCEL_DATA()
  1: 0x072A [0x1A] CALL_SUBROUTINE(address=0x0F6F)
  2: 0x072D [0x03] ExtData[1]->WorkLocal[3] = Work_Zone[6]
  3: 0x0732 [0x03] ExtData[1]->WorkLocal[4] = Work_Zone[7]
  4: 0x0737 [0x03] ExtData[1]->WorkLocal[5] = Work_Zone[8]
  5: 0x073C [0x03] ExtData[1]->WorkLocal[6] = Work_Zone[9]
  6: 0x0741 [0x46] CAMERA_CONTROL: Disable user control
  7: 0x0743 [0x38] SET_CLIENT_EVENT_MODE(mode=19*)
  8: 0x0746 [0x92] Joachim (ID: 17784980/0x010F6094)->Render.Flags3 ^= 0x01
  9: 0x074C [0x94] LocalPlayer->Render.Flags3 ^= 0x01
 10: 0x0752 [0x94] Joachim (ID: 17784980/0x010F6094)->Render.Flags3 ^= 0x01
 11: 0x0758 [0xBA] SET_ENTITY_POSITION(entity_id=LocalPlayer, pos_x=-53.419*, pos_z=-8.091*, pos_y=0.000*, direction=72.0°*)
 12: 0x0765 [0x80] LOAD_WAIT(entity=LocalPlayer)
 13: 0x076A [0x80] LOAD_WAIT(entity=Joachim (ID: 17784980/0x010F6094))
 14: 0x076F [0x1C] WAIT(30* ticks)
 15: 0x0772 [0x4A] Joachim (ID: 17784980/0x010F6094) looks at LocalPlayer
 16: 0x077B [0x4A] LocalPlayer looks at Joachim (ID: 17784980/0x010F6094)
 17: 0x0784 [0x6F] WAIT_FRAME_DELAY: Yield until WaitTime reaches zero
 18: 0x0785 [0x76] CHECK_ENTITY_RENDER_FLAGS: Wait until LocalPlayer Render.Flags0 and Render.Flags3 conditions are met
 19: 0x078A [0x45] LOAD_SCHEDULED_TASK: Load scheduler "7100" with entities [LocalPlayer, LocalPlayer], work=[489*, 0*]
 20: 0x079B [0x1A] CALL_SUBROUTINE(address=0x0F4E)
 21: 0x079E [0x2B] Joachim (ID: 17784980/0x010F6094) [8527*]:
    → "The meetin' went all right, [mate/lass]?"
 22: 0x07A5 [0x23] WAIT_FOR_DIALOG_INTERACTION
 23: 0x07A6 [0x29] REQ_SET_WAIT(priority=0x10, entity_id=LocalPlayer, tag_num=0x28)
 24: 0x07AD [0x52] END_LOAD_SCHEDULER: End scheduler "7100" with entities [LocalPlayer, LocalPlayer], work=489*
 25: 0x07BC [0x45] LOAD_SCHEDULED_TASK: Load scheduler "7101" with entities [LocalPlayer, LocalPlayer], work=[489*, 0*]
 26: 0x07CD [0x6E] Joachim (ID: 17784980/0x010F6094) uses emote 24*
 27: 0x07D4 [0x99] Wait for Joachim (ID: 17784980/0x010F6094) animation to complete
 28: 0x07D9 [0x2B] Joachim (ID: 17784980/0x010F6094) [8528*]:
    → "Aye, the old man's certainly fond o' talkin'. Mind ye don't go divulgin' the conversation t' me or the others, though."
 29: 0x07E0 [0x1C] WAIT(120* ticks)
 30: 0x07E3 [0x23] WAIT_FOR_DIALOG_INTERACTION
 31: 0x07E4 [0x2B] Joachim (ID: 17784980/0x010F6094) [8529*]:
    → "Were it somethin' meant fer our ears, we would've already heard about it."
 32: 0x07EB [0x23] WAIT_FOR_DIALOG_INTERACTION
 33: 0x07EC [0x52] END_LOAD_SCHEDULER: End scheduler "7101" with entities [LocalPlayer, LocalPlayer], work=489*
 34: 0x07FB [0x45] LOAD_SCHEDULED_TASK: Load scheduler "7102" with entities [LocalPlayer, LocalPlayer], work=[489*, 0*]
 35: 0x080C [0x66] LOAD_EXT_SCHEDULER_MAIN: Load scheduler "twb0" with entities [Joachim (ID: 17784980/0x010F6094), Joachim (ID: 17784980/0x010F6094)], work=9*
 36: 0x081B [0x2B] Joachim (ID: 17784980/0x010F6094) [8530*]:
    → "Certain things are confidential fer a reason, I think ye'll agree."
 37: 0x0822 [0x23] WAIT_FOR_DIALOG_INTERACTION
 38: 0x0823 [0x66] LOAD_EXT_SCHEDULER_MAIN: Load scheduler "twb1" with entities [Joachim (ID: 17784980/0x010F6094), Joachim (ID: 17784980/0x010F6094)], work=9*
 39: 0x0832 [0x1C] WAIT(60* ticks)
 40: 0x0835 [0x2B] Joachim (ID: 17784980/0x010F6094) [8531*]:
    → "I'd be a great big liar if I said I wasn't at all curious. On the other hand, though, I fear what learnin' the truth might be liable t' do t' me sanity."
 41: 0x083C [0x23] WAIT_FOR_DIALOG_INTERACTION
 42: 0x083D [0x27] REQ_SET(priority=0x10, entity_id=Joachim (ID: 17784980/0x010F6094), tag_num=0x1C)
 43: 0x0844 [0x1C] WAIT(30* ticks)
 44: 0x0847 [0x52] END_LOAD_SCHEDULER: End scheduler "7102" with entities [LocalPlayer, LocalPlayer], work=489*
 45: 0x0856 [0x45] LOAD_SCHEDULED_TASK: Load scheduler "7103" with entities [LocalPlayer, LocalPlayer], work=[489*, 0*]
 46: 0x0867 [0x2B] Joachim (ID: 17784980/0x010F6094) [8532*]:
    → "Countless unbelievable things've come t' pass since that fateful day."
 47: 0x086E [0x23] WAIT_FOR_DIALOG_INTERACTION
 48: 0x086F [0x2B] Joachim (ID: 17784980/0x010F6094) [8533*]:
    → "Afore the cataclysm, any talk of dimensional travel would've been met with ridicule."
 49: 0x0876 [0x23] WAIT_FOR_DIALOG_INTERACTION
 50: 0x0877 [0x2A] GET_REQ_LEVEL(level=16, entity_id=Joachim (ID: 17784980/0x010F6094))
 51: 0x087D [0x52] END_LOAD_SCHEDULER: End scheduler "7103" with entities [LocalPlayer, LocalPlayer], work=489*
 52: 0x088C [0x45] LOAD_SCHEDULED_TASK: Load scheduler "7104" with entities [LocalPlayer, LocalPlayer], work=[489*, 0*]
 53: 0x089D [0x2B] Joachim (ID: 17784980/0x010F6094) [8534*]:
    → "Lookin' back, we were all happier then, blissful in our ignorance."
 54: 0x08A4 [0x23] WAIT_FOR_DIALOG_INTERACTION
 55: 0x08A5 [0x2B] Joachim (ID: 17784980/0x010F6094) [8535*]:
    → "Wakin' up one day, suddenly findin' meself capable o' traversin' dimensions...that was a bloody huge shock, I tell ye. But I digress..."
 56: 0x08AC [0x23] WAIT_FOR_DIALOG_INTERACTION
 57: 0x08AD [0x52] END_LOAD_SCHEDULER: End scheduler "7104" with entities [LocalPlayer, LocalPlayer], work=489*
 58: 0x08BC [0x45] LOAD_SCHEDULED_TASK: Load scheduler "7105" with entities [LocalPlayer, LocalPlayer], work=[489*, 0*]
 59: 0x08CD [0x5B] LOAD_EXT_SCHEDULER: Load scheduler "ulb0" with entities [Joachim (ID: 17784980/0x010F6094), Joachim (ID: 17784980/0x010F6094)], work=1296*
 60: 0x08DC [0x1C] WAIT(30* ticks)
 61: 0x08DF [0x2B] Joachim (ID: 17784980/0x010F6094) [8536*]:
    → "Gilgamesh claims not t' possess full knowledge of things, but it's clear enough he's better informed than most."
 62: 0x08E6 [0x23] WAIT_FOR_DIALOG_INTERACTION
 63: 0x08E7 [0x2B] Joachim (ID: 17784980/0x010F6094) [8537*]:
    → "I've got a hunch that be part of the reason why he specifically picked ye out. I won't badger ye fer the details, though."
 64: 0x08EE [0x23] WAIT_FOR_DIALOG_INTERACTION
 65: 0x08EF [0x52] END_LOAD_SCHEDULER: End scheduler "7105" with entities [LocalPlayer, LocalPlayer], work=489*
 66: 0x08FE [0x29] REQ_SET_WAIT(priority=0x10, entity_id=LocalPlayer, tag_num=0x20)
 67: 0x0905 [0x02] IF !(Work_Zone[2] == 1*) GOTO 0x0921
 68: 0x090D [0x45] LOAD_SCHEDULED_TASK: Load scheduler "71hm" with entities [LocalPlayer, LocalPlayer], work=[489*, 0*]
 69: 0x091E [0x01] GOTO 0x09E5
 70: 0x0921 [0x02] IF !(Work_Zone[2] == 2*) GOTO 0x093D
 71: 0x0929 [0x45] LOAD_SCHEDULED_TASK: Load scheduler "71hf" with entities [LocalPlayer, LocalPlayer], work=[489*, 0*]
 72: 0x093A [0x01] GOTO 0x09E5
 73: 0x093D [0x02] IF !(Work_Zone[2] == 3*) GOTO 0x0959
 74: 0x0945 [0x45] LOAD_SCHEDULED_TASK: Load scheduler "71em" with entities [LocalPlayer, LocalPlayer], work=[489*, 0*]
 75: 0x0956 [0x01] GOTO 0x09E5
 76: 0x0959 [0x02] IF !(Work_Zone[2] == 4*) GOTO 0x0975
 77: 0x0961 [0x45] LOAD_SCHEDULED_TASK: Load scheduler "71ef" with entities [LocalPlayer, LocalPlayer], work=[489*, 0*]
 78: 0x0972 [0x01] GOTO 0x09E5
 79: 0x0975 [0x02] IF !(Work_Zone[2] == 5*) GOTO 0x0991
 80: 0x097D [0x45] LOAD_SCHEDULED_TASK: Load scheduler "71tr" with entities [LocalPlayer, LocalPlayer], work=[489*, 0*]
 81: 0x098E [0x01] GOTO 0x09E5
 82: 0x0991 [0x02] IF !(Work_Zone[2] == 6*) GOTO 0x09AD
 83: 0x0999 [0x45] LOAD_SCHEDULED_TASK: Load scheduler "71tr" with entities [LocalPlayer, LocalPlayer], work=[489*, 0*]
 84: 0x09AA [0x01] GOTO 0x09E5
 85: 0x09AD [0x02] IF !(Work_Zone[2] == 7*) GOTO 0x09C9
 86: 0x09B5 [0x45] LOAD_SCHEDULED_TASK: Load scheduler "71mt" with entities [LocalPlayer, LocalPlayer], work=[489*, 0*]
 87: 0x09C6 [0x01] GOTO 0x09E5
 88: 0x09C9 [0x02] IF !(Work_Zone[2] == 8*) GOTO 0x09E5
 89: 0x09D1 [0x45] LOAD_SCHEDULED_TASK: Load scheduler "71gl" with entities [LocalPlayer, LocalPlayer], work=[489*, 0*]
 90: 0x09E2 [0x01] GOTO 0x09E5

SUBROUTINE_09E5:
 91: 0x09E5 [0x1C] WAIT(30* ticks)
 92: 0x09E8 [0x6B] STOP_AND_IDLE: Joachim (ID: 17784980/0x010F6094) stops current action and resets to idle (animation="idl0")
 93: 0x09F1 [0x4A] Joachim (ID: 17784980/0x010F6094) looks at LocalPlayer
 94: 0x09FA [0x1C] WAIT(90* ticks)
 95: 0x09FD [0x52] END_LOAD_SCHEDULER: End scheduler "71hm" with entities [LocalPlayer, LocalPlayer], work=489*
 96: 0x0A0C [0x52] END_LOAD_SCHEDULER: End scheduler "71hf" with entities [LocalPlayer, LocalPlayer], work=489*
 97: 0x0A1B [0x52] END_LOAD_SCHEDULER: End scheduler "71em" with entities [LocalPlayer, LocalPlayer], work=489*
 98: 0x0A2A [0x52] END_LOAD_SCHEDULER: End scheduler "71ef" with entities [LocalPlayer, LocalPlayer], work=489*
 99: 0x0A39 [0x52] END_LOAD_SCHEDULER: End scheduler "71tr" with entities [LocalPlayer, LocalPlayer], work=489*
100: 0x0A48 [0x52] END_LOAD_SCHEDULER: End scheduler "71mt" with entities [LocalPlayer, LocalPlayer], work=489*
101: 0x0A57 [0x52] END_LOAD_SCHEDULER: End scheduler "71gl" with entities [LocalPlayer, LocalPlayer], work=489*
102: 0x0A66 [0x45] LOAD_SCHEDULED_TASK: Load scheduler "7106" with entities [LocalPlayer, LocalPlayer], work=[489*, 0*]
103: 0x0A77 [0x27] REQ_SET(priority=0x10, entity_id=Joachim (ID: 17784980/0x010F6094), tag_num=0x1D)
104: 0x0A7E [0x1C] WAIT(30* ticks)
105: 0x0A81 [0x2B] Joachim (ID: 17784980/0x010F6094) [8538*]:
    → "I've got me own job t' do, an' I mean t' do it well. I must continue recruitin' strong adventurers t' aid our plight."
106: 0x0A88 [0x23] WAIT_FOR_DIALOG_INTERACTION
107: 0x0A89 [0x2A] GET_REQ_LEVEL(level=16, entity_id=Joachim (ID: 17784980/0x010F6094))
108: 0x0A8F [0x52] END_LOAD_SCHEDULER: End scheduler "7106" with entities [LocalPlayer, LocalPlayer], work=489*
109: 0x0A9E [0x45] LOAD_SCHEDULED_TASK: Load scheduler "7107" with entities [LocalPlayer, LocalPlayer], work=[489*, 0*]
110: 0x0AAF [0x6E] Joachim (ID: 17784980/0x010F6094) uses emote 7*
111: 0x0AB6 [0x99] Wait for Joachim (ID: 17784980/0x010F6094) animation to complete
112: 0x0ABB [0x2B] Joachim (ID: 17784980/0x010F6094) [8539*]:
    → "And ye, <Player>. Me comrades an' I hope we can keep relyin' on yer trusty sword arm."
113: 0x0AC2 [0x23] WAIT_FOR_DIALOG_INTERACTION
114: 0x0AC3 [0x1A] CALL_SUBROUTINE(address=0x0F6F)
115: 0x0AC6 [0x1C] WAIT(30* ticks)
116: 0x0AC9 [0x52] END_LOAD_SCHEDULER: End scheduler "7107" with entities [LocalPlayer, LocalPlayer], work=489*
117: 0x0AD8 [0x45] LOAD_SCHEDULED_TASK: Load scheduler "0blf" with entities [LocalPlayer, LocalPlayer], work=[489*, 0*]
118: 0x0AE9 [0x5C] MUSIC_CONTROL: Set Idle (Day) music to song 110*
119: 0x0AED [0x5C] MUSIC_CONTROL: Set Idle (Night) music to song 110*
120: 0x0AF1 [0x9A] WAIT_MUSIC_SERVER()
121: 0x0AF2 [0x46] CAMERA_CONTROL: Restore default settings
122: 0x0AF4 [0x45] LOAD_SCHEDULED_TASK: Load scheduler "fdi2" with entities [LocalPlayer, LocalPlayer], work=[200*, 0*]
123: 0x0B05 [0x21] END_EVENT
124: 0x0B06 [0x00] END_REQSTACK()
```

### Event 337

#### Metadata

| Field        | Value     |
|--------------|-----------|
| Entrypoint   | 0x0B07    |
| Data Size    | 417 bytes |
| Instructions | 64        |

```
      00 01 02 03 04 05 06 07  08 09 0A 0B 0C 0D 0E 0F
      -- -- -- -- -- -- -- --  -- -- -- -- -- -- -- --
0B00:                      42  1A 6F 0F 03 03 00 06 10         B.o......
0B10: 03 04 00 07 10 03 05 00  08 10 03 06 00 09 10 46  ...............F
0B20: 01 38 00 80 92 01 94 60  0F 01 94 01 F0 FF FF 7F  .8.....`........
0B30: 94 01 94 60 0F 01 BA F0  FF FF 7F 01 80 02 80 03  ...`............
0B40: 80 04 80 80 F0 FF FF 7F  80 94 60 0F 01 1C 05 80  ..........`.....
0B50: 4A 94 60 0F 01 F0 FF FF  7F 4A F0 FF FF 7F 94 60  J.`......J.....`
0B60: 0F 01 6F 76 F0 FF FF 7F  45 06 80 F0 FF FF 7F F0  ..ov....E.......
0B70: FF FF 7F 37 35 30 30 03  80 1A 4E 0F 6E 94 60 0F  ...7500...N.n.`.
0B80: 01 0E 80 99 94 60 0F 01  2B 94 60 0F 01 47 80 23  .....`..+.`..G.#
0B90: 52 06 80 F0 FF FF 7F F0  FF FF 7F 37 35 30 30 45  R..........7500E
0BA0: 06 80 F0 FF FF 7F F0 FF  FF 7F 37 35 30 31 03 80  ..........7501..
0BB0: 2B 94 60 0F 01 48 80 23  7B 94 60 0F 01 66 07 80  +.`..H.#{.`..f..
0BC0: 94 60 0F 01 94 60 0F 01  74 68 6B 31 1C 22 80 2B  .`...`..thk1.".+
0BD0: 94 60 0F 01 49 80 23 66  07 80 94 60 0F 01 94 60  .`..I.#f...`...`
0BE0: 0F 01 74 68 6B 32 1C 05  80 52 06 80 F0 FF FF 7F  ..thk2...R......
0BF0: F0 FF FF 7F 37 35 30 31  45 06 80 F0 FF FF 7F F0  ....7501E.......
0C00: FF FF 7F 37 35 30 32 03  80 2B 94 60 0F 01 4A 80  ...7502..+.`..J.
0C10: 23 2B 94 60 0F 01 4B 80  23 6E 94 60 0F 01 00 80  #+.`..K.#n.`....
0C20: 99 94 60 0F 01 2B 94 60  0F 01 4C 80 1C 4D 80 23  ..`..+.`..L..M.#
0C30: 52 06 80 F0 FF FF 7F F0  FF FF 7F 37 35 30 32 45  R..........7502E
0C40: 06 80 F0 FF FF 7F F0 FF  FF 7F 37 35 30 33 03 80  ..........7503..
0C50: 6E 94 60 0F 01 0E 80 99  94 60 0F 01 2B 94 60 0F  n.`......`..+.`.
0C60: 01 4E 80 23 1A 6F 0F 1C  05 80 52 06 80 F0 FF FF  .N.#.o....R.....
0C70: 7F F0 FF FF 7F 37 35 30  33 45 06 80 F0 FF FF 7F  .....7503E......
0C80: F0 FF FF 7F 30 62 6C 66  03 80 5C 00 1B 80 5C 01  ....0blf..\...\.
0C90: 1B 80 9A 46 00 45 1C 80  F0 FF FF 7F F0 FF FF 7F  ...F.E..........
0CA0: 66 64 69 32 03 80 21 00                           fdi2..!.        
```

#### Opcodes

```
  0: 0x0B07 [0x42] SET_CLI_EVENT_CANCEL_DATA()
  1: 0x0B08 [0x1A] CALL_SUBROUTINE(address=0x0F6F)
  2: 0x0B0B [0x03] ExtData[1]->WorkLocal[3] = Work_Zone[6]
  3: 0x0B10 [0x03] ExtData[1]->WorkLocal[4] = Work_Zone[7]
  4: 0x0B15 [0x03] ExtData[1]->WorkLocal[5] = Work_Zone[8]
  5: 0x0B1A [0x03] ExtData[1]->WorkLocal[6] = Work_Zone[9]
  6: 0x0B1F [0x46] CAMERA_CONTROL: Disable user control
  7: 0x0B21 [0x38] SET_CLIENT_EVENT_MODE(mode=19*)
  8: 0x0B24 [0x92] Joachim (ID: 17784980/0x010F6094)->Render.Flags3 ^= 0x01
  9: 0x0B2A [0x94] LocalPlayer->Render.Flags3 ^= 0x01
 10: 0x0B30 [0x94] Joachim (ID: 17784980/0x010F6094)->Render.Flags3 ^= 0x01
 11: 0x0B36 [0xBA] SET_ENTITY_POSITION(entity_id=LocalPlayer, pos_x=-53.419*, pos_z=-8.091*, pos_y=0.000*, direction=72.0°*)
 12: 0x0B43 [0x80] LOAD_WAIT(entity=LocalPlayer)
 13: 0x0B48 [0x80] LOAD_WAIT(entity=Joachim (ID: 17784980/0x010F6094))
 14: 0x0B4D [0x1C] WAIT(30* ticks)
 15: 0x0B50 [0x4A] Joachim (ID: 17784980/0x010F6094) looks at LocalPlayer
 16: 0x0B59 [0x4A] LocalPlayer looks at Joachim (ID: 17784980/0x010F6094)
 17: 0x0B62 [0x6F] WAIT_FRAME_DELAY: Yield until WaitTime reaches zero
 18: 0x0B63 [0x76] CHECK_ENTITY_RENDER_FLAGS: Wait until LocalPlayer Render.Flags0 and Render.Flags3 conditions are met
 19: 0x0B68 [0x45] LOAD_SCHEDULED_TASK: Load scheduler "7500" with entities [LocalPlayer, LocalPlayer], work=[489*, 0*]
 20: 0x0B79 [0x1A] CALL_SUBROUTINE(address=0x0F4E)
 21: 0x0B7C [0x6E] Joachim (ID: 17784980/0x010F6094) uses emote 7*
 22: 0x0B83 [0x99] Wait for Joachim (ID: 17784980/0x010F6094) animation to complete
 23: 0x0B88 [0x2B] Joachim (ID: 17784980/0x010F6094) [8480*]:
    → "<Player>. I've been told ye met some mates of mine."
 24: 0x0B8F [0x23] WAIT_FOR_DIALOG_INTERACTION
 25: 0x0B90 [0x52] END_LOAD_SCHEDULER: End scheduler "7500" with entities [LocalPlayer, LocalPlayer], work=489*
 26: 0x0B9F [0x45] LOAD_SCHEDULED_TASK: Load scheduler "7501" with entities [LocalPlayer, LocalPlayer], work=[489*, 0*]
 27: 0x0BB0 [0x2B] Joachim (ID: 17784980/0x010F6094) [8540*]:
    → "I trust yer journeys in Abyssea've introduced ye t' the defensive structures we call martellos."
 28: 0x0BB7 [0x23] WAIT_FOR_DIALOG_INTERACTION
 29: 0x0BB8 [0x7B] Joachim (ID: 17784980/0x010F6094) stops talking
 30: 0x0BBD [0x66] LOAD_EXT_SCHEDULER_MAIN: Load scheduler "thk1" with entities [Joachim (ID: 17784980/0x010F6094), Joachim (ID: 17784980/0x010F6094)], work=9*
 31: 0x0BCC [0x1C] WAIT(60* ticks)
 32: 0x0BCF [0x2B] Joachim (ID: 17784980/0x010F6094) [8541*]:
    → "The ones garrisoned in Vunkerl, Attohwa, and Misareaux are earlier models what need t' have their power augmented from a central location. An outpost has been established in each area especially fer this purpose."
 33: 0x0BD6 [0x23] WAIT_FOR_DIALOG_INTERACTION
 34: 0x0BD7 [0x66] LOAD_EXT_SCHEDULER_MAIN: Load scheduler "thk2" with entities [Joachim (ID: 17784980/0x010F6094), Joachim (ID: 17784980/0x010F6094)], work=9*
 35: 0x0BE6 [0x1C] WAIT(30* ticks)
 36: 0x0BE9 [0x52] END_LOAD_SCHEDULER: End scheduler "7501" with entities [LocalPlayer, LocalPlayer], work=489*
 37: 0x0BF8 [0x45] LOAD_SCHEDULED_TASK: Load scheduler "7502" with entities [LocalPlayer, LocalPlayer], work=[489*, 0*]
 38: 0x0C09 [0x2B] Joachim (ID: 17784980/0x010F6094) [8542*]:
    → "However, the Abyssean fiends've somehow caught wind of the outposts' true nature. Since then they've been hell-bent on tearin' them t' the ground."
 39: 0x0C10 [0x23] WAIT_FOR_DIALOG_INTERACTION
 40: 0x0C11 [0x2B] Joachim (ID: 17784980/0x010F6094) [8543*]:
    → "If an outpost were t' fall, the effectiveness of all martellos in the area'd be gravely compromised. Suffice it t' say, that'd be right disastrous fer the resistance effort."
 41: 0x0C18 [0x23] WAIT_FOR_DIALOG_INTERACTION
 42: 0x0C19 [0x6E] Joachim (ID: 17784980/0x010F6094) uses emote 19*
 43: 0x0C20 [0x99] Wait for Joachim (ID: 17784980/0x010F6094) animation to complete
 44: 0x0C25 [0x2B] Joachim (ID: 17784980/0x010F6094) [8544*]:
    → "I realize ye're already doin' much fer us, but the outposts sorely lack fer defenders. I'd volunteer meself fer the job, weren't I stuck here in Vana'diel."
 45: 0x0C2C [0x1C] WAIT(150* ticks)
 46: 0x0C2F [0x23] WAIT_FOR_DIALOG_INTERACTION
 47: 0x0C30 [0x52] END_LOAD_SCHEDULER: End scheduler "7502" with entities [LocalPlayer, LocalPlayer], work=489*
 48: 0x0C3F [0x45] LOAD_SCHEDULED_TASK: Load scheduler "7503" with entities [LocalPlayer, LocalPlayer], work=[489*, 0*]
 49: 0x0C50 [0x6E] Joachim (ID: 17784980/0x010F6094) uses emote 7*
 50: 0x0C57 [0x99] Wait for Joachim (ID: 17784980/0x010F6094) animation to complete
 51: 0x0C5C [0x2B] Joachim (ID: 17784980/0x010F6094) [8545*]:
    → "I beseech ye, <Player>, help us t' defend the outposts! Think of it as doin' a personal favor fer me!"
 52: 0x0C63 [0x23] WAIT_FOR_DIALOG_INTERACTION
 53: 0x0C64 [0x1A] CALL_SUBROUTINE(address=0x0F6F)
 54: 0x0C67 [0x1C] WAIT(30* ticks)
 55: 0x0C6A [0x52] END_LOAD_SCHEDULER: End scheduler "7503" with entities [LocalPlayer, LocalPlayer], work=489*
 56: 0x0C79 [0x45] LOAD_SCHEDULED_TASK: Load scheduler "0blf" with entities [LocalPlayer, LocalPlayer], work=[489*, 0*]
 57: 0x0C8A [0x5C] MUSIC_CONTROL: Set Idle (Day) music to song 110*
 58: 0x0C8E [0x5C] MUSIC_CONTROL: Set Idle (Night) music to song 110*
 59: 0x0C92 [0x9A] WAIT_MUSIC_SERVER()
 60: 0x0C93 [0x46] CAMERA_CONTROL: Restore default settings
 61: 0x0C95 [0x45] LOAD_SCHEDULED_TASK: Load scheduler "fdi2" with entities [LocalPlayer, LocalPlayer], work=[200*, 0*]
 62: 0x0CA6 [0x21] END_EVENT
 63: 0x0CA7 [0x00] END_REQSTACK()
```

### Event 338

#### Metadata

| Field        | Value      |
|--------------|------------|
| Entrypoint   | 0x0CA8     |
| Data Size    | 1269 bytes |
| Instructions | 97         |

```
      00 01 02 03 04 05 06 07  08 09 0A 0B 0C 0D 0E 0F
      -- -- -- -- -- -- -- --  -- -- -- -- -- -- -- --
0CA0:                          42 1A 6F 0F 03 03 00 06          B.o.....
0CB0: 10 03 04 00 07 10 03 05  00 08 10 03 06 00 09 10  ................
0CC0: 46 01 38 00 80 4E 00 90  60 0F 01 92 01 94 60 0F  F.8..N..`.....`.
0CD0: 01 94 01 F0 FF FF 7F 94  01 94 60 0F 01 94 01 90  ..........`.....
0CE0: 60 0F 01 BA F0 FF FF 7F  01 80 02 80 03 80 04 80  `...............
0CF0: BA 90 60 0F 01 4F 80 50  80 03 80 51 80 80 F0 FF  ..`..O.P...Q....
0D00: FF 7F 80 94 60 0F 01 80  90 60 0F 01 1C 05 80 4A  ....`....`.....J
0D10: 94 60 0F 01 F0 FF FF 7F  4A F0 FF FF 7F 94 60 0F  .`......J.....`.
0D20: 01 6F 76 F0 FF FF 7F 5C  00 14 80 5C 01 14 80 9A  .ov....\...\....
0D30: 45 06 80 F0 FF FF 7F F0  FF FF 7F 37 35 31 30 03  E..........7510.
0D40: 80 1A 4E 0F 6E 94 60 0F  01 0B 80 99 94 60 0F 01  ..N.n.`......`..
0D50: 2B 94 60 0F 01 52 80 23  52 06 80 F0 FF FF 7F F0  +.`..R.#R.......
0D60: FF FF 7F 37 35 31 30 45  06 80 F0 FF FF 7F F0 FF  ...7510E........
0D70: FF 7F 37 35 31 31 03 80  2B 94 60 0F 01 53 80 23  ..7511..+.`..S.#
0D80: 52 06 80 F0 FF FF 7F F0  FF FF 7F 37 35 31 31 45  R..........7511E
0D90: 06 80 F0 FF FF 7F F0 FF  FF 7F 37 35 31 32 03 80  ..........7512..
0DA0: 5D 03 80 22 80 27 10 94  60 0F 01 1C 1C 22 80 2B  ]..".'..`....".+
0DB0: 94 60 0F 01 54 80 23 2A  10 94 60 0F 01 5C 00 55  .`..T.#*..`..\.U
0DC0: 80 5C 01 55 80 9A 52 06  80 F0 FF FF 7F F0 FF FF  .\.U..R.........
0DD0: 7F 37 35 31 32 45 06 80  F0 FF FF 7F F0 FF FF 7F  .7512E..........
0DE0: 37 35 31 33 03 80 1C 22  80 2B 94 60 0F 01 56 80  7513...".+.`..V.
0DF0: 23 29 10 F0 FF FF 7F 28  4A 94 60 0F 01 F0 FF FF  #).....(J.`.....
0E00: 7F 52 06 80 F0 FF FF 7F  F0 FF FF 7F 37 35 31 33  .R..........7513
0E10: 45 06 80 F0 FF FF 7F F0  FF FF 7F 37 35 31 34 03  E..........7514.
0E20: 80 6F 76 94 60 0F 01 2B  94 60 0F 01 57 80 1C 58  .ov.`..+.`..W..X
0E30: 80 23 79 00 94 60 0F 01  90 60 0F 01 1C 22 80 2B  .#y..`...`...".+
0E40: 94 60 0F 01 59 80 1C 14  80 23 52 06 80 F0 FF FF  .`..Y....#R.....
0E50: 7F F0 FF FF 7F 37 35 31  34 45 06 80 F0 FF FF 7F  .....7514E......
0E60: F0 FF FF 7F 37 35 31 35  03 80 5D 03 80 14 80 7B  ....7515..]....{
0E70: 94 60 0F 01 1C 22 80 2B  94 60 0F 01 5A 80 1C 14  .`...".+.`..Z...
0E80: 80 23 52 06 80 F0 FF FF  7F F0 FF FF 7F 37 35 31  .#R..........751
0E90: 35 45 06 80 F0 FF FF 7F  F0 FF FF 7F 37 35 31 36  5E..........7516
0EA0: 03 80 66 07 80 94 60 0F  01 94 60 0F 01 74 77 61  ..f...`...`..twa
0EB0: 30 2B 94 60 0F 01 5B 80  23 66 07 80 94 60 0F 01  0+.`..[.#f...`..
0EC0: 94 60 0F 01 74 77 61 31  1A 6F 0F 1C 05 80 52 06  .`..twa1.o....R.
0ED0: 80 F0 FF FF 7F F0 FF FF  7F 37 35 31 36 45 06 80  .........7516E..
0EE0: F0 FF FF 7F F0 FF FF 7F  30 62 6C 66 03 80 5C 00  ........0blf..\.
0EF0: 1B 80 5C 01 1B 80 9A 46  00 45 1C 80 F0 FF FF 7F  ..\....F.E......
0F00: F0 FF FF 7F 66 64 69 32  03 80 21 00 45 1C 80 F0  ....fdi2..!.E...
0F10: FF FF 7F F0 FF FF 7F 66  64 69 30 03 80 55 1C 80  .......fdi0..U..
0F20: F0 FF FF 7F F0 FF FF 7F  66 64 69 30 1B 45 1C 80  ........fdi0.E..
0F30: F0 FF FF 7F F0 FF FF 7F  66 64 6F 30 03 80 55 1C  ........fdo0..U.
0F40: 80 F0 FF FF 7F F0 FF FF  7F 66 64 6F 30 1B 45 1C  .........fdo0.E.
0F50: 80 F0 FF FF 7F F0 FF FF  7F 66 64 69 31 03 80 55  .........fdi1..U
0F60: 1C 80 F0 FF FF 7F F0 FF  FF 7F 66 64 69 31 1B 45  ..........fdi1.E
0F70: 1C 80 F0 FF FF 7F F0 FF  FF 7F 66 64 6F 31 03 80  ..........fdo1..
0F80: 55 1C 80 F0 FF FF 7F F0  FF FF 7F 66 64 6F 31 1B  U..........fdo1.
0F90: 45 5C 80 F0 FF FF 7F F0  FF FF 7F 77 68 69 31 03  E\.........whi1.
0FA0: 80 55 5C 80 F0 FF FF 7F  F0 FF FF 7F 77 68 69 31  .U\.........whi1
0FB0: 1B 45 5C 80 F0 FF FF 7F  F0 FF FF 7F 77 68 6F 31  .E\.........who1
0FC0: 03 80 55 5C 80 F0 FF FF  7F F0 FF FF 7F 77 68 6F  ..U\.........who
0FD0: 31 1B 45 5C 80 F0 FF FF  7F F0 FF FF 7F 77 68 6F  1.E\.........who
0FE0: 32 03 80 55 5C 80 F0 FF  FF 7F F0 FF FF 7F 77 68  2..U\.........wh
0FF0: 6F 32 1B 45 5C 80 F0 FF  FF 7F F0 FF FF 7F 77 68  o2.E\.........wh
1000: 6F 33 03 80 55 5C 80 F0  FF FF 7F F0 FF FF 7F 77  o3..U\.........w
1010: 68 6F 33 1B 62 10 80 F0  FF FF 7F F0 FF FF 7F 6D  ho3.b..........m
1020: 61 69 6E 03 80 1C 5D 80  45 1C 80 F0 FF FF 7F F0  ain...].E.......
1030: FF FF 7F 66 64 6F 31 03  80 55 1C 80 F0 FF FF 7F  ...fdo1..U......
1040: F0 FF FF 7F 66 64 6F 31  1B 45 1C 80 F0 FF FF 7F  ....fdo1.E......
1050: F0 FF FF 7F 66 64 69 31  03 80 62 15 80 F0 FF FF  ....fdi1..b.....
1060: 7F F0 FF FF 7F 6D 61 69  6E 03 80 1C 05 80 55 1C  .....main.....U.
1070: 80 F0 FF FF 7F F0 FF FF  7F 66 64 69 31 1B 45 1C  .........fdi1.E.
1080: 80 F0 FF FF 7F F0 FF FF  7F 62 6C 6F 6E 03 80 45  .........blon..E
1090: 5C 80 F0 FF FF 7F F0 FF  FF 7F 62 6C 6F 6E 03 80  \.........blon..
10A0: 1B 45 5C 80 F0 FF FF 7F  F0 FF FF 7F 77 68 69 30  .E\.........whi0
10B0: 03 80 55 5C 80 F0 FF FF  7F F0 FF FF 7F 77 68 69  ..U\.........whi
10C0: 30 1B 45 5C 80 F0 FF FF  7F F0 FF FF 7F 77 68 6F  0.E\.........who
10D0: 30 03 80 55 5C 80 F0 FF  FF 7F F0 FF FF 7F 77 68  0..U\.........wh
10E0: 6F 30 1B 45 5E 80 F0 FF  FF 7F F0 FF FF 7F 65 66  o0.E^.........ef
10F0: 6F 6E 03 80 55 5E 80 F0  FF FF 7F F0 FF FF 7F 65  on..U^.........e
1100: 66 6F 6E 1B 45 1C 80 F0  FF FF 7F F0 FF FF 7F 66  fon.E..........f
1110: 64 69 73 03 80 1B 45 1C  80 F0 FF FF 7F F0 FF FF  dis...E.........
1120: 7F 66 64 6F 73 03 80 55  1C 80 F0 FF FF 7F F0 FF  .fdos..U........
1130: FF 7F 66 64 6F 73 1B 45  1C 80 F0 FF FF 7F F0 FF  ..fdos.E........
1140: FF 7F 66 64 69 66 03 80  1B 45 1C 80 F0 FF FF 7F  ..fdif...E......
1150: F0 FF FF 7F 66 64 6F 66  03 80 55 1C 80 F0 FF FF  ....fdof..U.....
1160: 7F F0 FF FF 7F 66 64 6F  66 1B 45 1C 80 F0 FF FF  .....fdof.E.....
1170: 7F F0 FF FF 7F 66 64 69  70 03 80 1B 45 1C 80 F0  .....fdip...E...
1180: FF FF 7F F0 FF FF 7F 66  64 6F 70 03 80 55 1C 80  .......fdop..U..
1190: F0 FF FF 7F F0 FF FF 7F  66 64 6F 70 1B           ........fdop.   
```

#### Opcodes

```
  0: 0x0CA8 [0x42] SET_CLI_EVENT_CANCEL_DATA()
  1: 0x0CA9 [0x1A] CALL_SUBROUTINE(address=0x0F6F)
  2: 0x0CAC [0x03] ExtData[1]->WorkLocal[3] = Work_Zone[6]
  3: 0x0CB1 [0x03] ExtData[1]->WorkLocal[4] = Work_Zone[7]
  4: 0x0CB6 [0x03] ExtData[1]->WorkLocal[5] = Work_Zone[8]
  5: 0x0CBB [0x03] ExtData[1]->WorkLocal[6] = Work_Zone[9]
  6: 0x0CC0 [0x46] CAMERA_CONTROL: Disable user control
  7: 0x0CC2 [0x38] SET_CLIENT_EVENT_MODE(mode=19*)
  8: 0x0CC5 [0x4E] SET_ENTITY_HIDE_FLAG: Show Unnamed NPC (ID: 17784976/0x010F6090)
  9: 0x0CCB [0x92] Joachim (ID: 17784980/0x010F6094)->Render.Flags3 ^= 0x01
 10: 0x0CD1 [0x94] LocalPlayer->Render.Flags3 ^= 0x01
 11: 0x0CD7 [0x94] Joachim (ID: 17784980/0x010F6094)->Render.Flags3 ^= 0x01
 12: 0x0CDD [0x94] Unnamed NPC (ID: 17784976/0x010F6090)->Render.Flags3 ^= 0x01
 13: 0x0CE3 [0xBA] SET_ENTITY_POSITION(entity_id=LocalPlayer, pos_x=-53.419*, pos_z=-8.091*, pos_y=0.000*, direction=72.0°*)
 14: 0x0CF0 [0xBA] SET_ENTITY_POSITION(entity_id=Unnamed NPC (ID: 17784976/0x010F6090), pos_x=-51.880*, pos_z=-10.662*, pos_y=0.000*, direction=73.0°*)
 15: 0x0CFD [0x80] LOAD_WAIT(entity=LocalPlayer)
 16: 0x0D02 [0x80] LOAD_WAIT(entity=Joachim (ID: 17784980/0x010F6094))
 17: 0x0D07 [0x80] LOAD_WAIT(entity=Unnamed NPC (ID: 17784976/0x010F6090))
 18: 0x0D0C [0x1C] WAIT(30* ticks)
 19: 0x0D0F [0x4A] Joachim (ID: 17784980/0x010F6094) looks at LocalPlayer
 20: 0x0D18 [0x4A] LocalPlayer looks at Joachim (ID: 17784980/0x010F6094)
 21: 0x0D21 [0x6F] WAIT_FRAME_DELAY: Yield until WaitTime reaches zero
 22: 0x0D22 [0x76] CHECK_ENTITY_RENDER_FLAGS: Wait until LocalPlayer Render.Flags0 and Render.Flags3 conditions are met
 23: 0x0D27 [0x5C] MUSIC_CONTROL: Set Idle (Day) music to song 120*
 24: 0x0D2B [0x5C] MUSIC_CONTROL: Set Idle (Night) music to song 120*
 25: 0x0D2F [0x9A] WAIT_MUSIC_SERVER()
 26: 0x0D30 [0x45] LOAD_SCHEDULED_TASK: Load scheduler "7510" with entities [LocalPlayer, LocalPlayer], work=[489*, 0*]
 27: 0x0D41 [0x1A] CALL_SUBROUTINE(address=0x0F4E)
 28: 0x0D44 [0x6E] Joachim (ID: 17784980/0x010F6094) uses emote 6*
 29: 0x0D4B [0x99] Wait for Joachim (ID: 17784980/0x010F6094) animation to complete
 30: 0x0D50 [0x2B] Joachim (ID: 17784980/0x010F6094) [8546*]:
    → "Ye never cease t' amaze me, <Player>. Why, not only did ye shine in yer defense of the outposts, ye even managed t' slay those vicious fiends what've wreaked havoc upon us fer so long."
 31: 0x0D57 [0x23] WAIT_FOR_DIALOG_INTERACTION
 32: 0x0D58 [0x52] END_LOAD_SCHEDULER: End scheduler "7510" with entities [LocalPlayer, LocalPlayer], work=489*
 33: 0x0D67 [0x45] LOAD_SCHEDULED_TASK: Load scheduler "7511" with entities [LocalPlayer, LocalPlayer], work=[489*, 0*]
 34: 0x0D78 [0x2B] Joachim (ID: 17784980/0x010F6094) [8547*]:
    → "Words can't express how glad I am t' have ye fightin' on our side."
 35: 0x0D7F [0x23] WAIT_FOR_DIALOG_INTERACTION
 36: 0x0D80 [0x52] END_LOAD_SCHEDULER: End scheduler "7511" with entities [LocalPlayer, LocalPlayer], work=489*
 37: 0x0D8F [0x45] LOAD_SCHEDULED_TASK: Load scheduler "7512" with entities [LocalPlayer, LocalPlayer], work=[489*, 0*]
 38: 0x0DA0 [0x5D] SET_MUSIC_VOLUME(volume=0*, fade_time=60*)
 39: 0x0DA5 [0x27] REQ_SET(priority=0x10, entity_id=Joachim (ID: 17784980/0x010F6094), tag_num=0x1C)
 40: 0x0DAC [0x1C] WAIT(60* ticks)
 41: 0x0DAF [0x2B] Joachim (ID: 17784980/0x010F6094) [8548*]:
    → "Ah, what I wouldn't give t' possess even half yer strength--t' be able t' do somethin' fer me own folk. But...there's somethin' I mus' confess."
 42: 0x0DB6 [0x23] WAIT_FOR_DIALOG_INTERACTION
 43: 0x0DB7 [0x2A] GET_REQ_LEVEL(level=16, entity_id=Joachim (ID: 17784980/0x010F6094))
 44: 0x0DBD [0x5C] MUSIC_CONTROL: Set Idle (Day) music to song 51*
 45: 0x0DC1 [0x5C] MUSIC_CONTROL: Set Idle (Night) music to song 51*
 46: 0x0DC5 [0x9A] WAIT_MUSIC_SERVER()
 47: 0x0DC6 [0x52] END_LOAD_SCHEDULER: End scheduler "7512" with entities [LocalPlayer, LocalPlayer], work=489*
 48: 0x0DD5 [0x45] LOAD_SCHEDULED_TASK: Load scheduler "7513" with entities [LocalPlayer, LocalPlayer], work=[489*, 0*]
 49: 0x0DE6 [0x1C] WAIT(60* ticks)
 50: 0x0DE9 [0x2B] Joachim (ID: 17784980/0x010F6094) [8549*]:
    → "A part of me's grateful fer bein' stranded here. Thankful that I never again have t' set foot upon that hell on earth. That I think such cowardly thoughts...it racks me with guilt, <Player>."
 51: 0x0DF0 [0x23] WAIT_FOR_DIALOG_INTERACTION
 52: 0x0DF1 [0x29] REQ_SET_WAIT(priority=0x10, entity_id=LocalPlayer, tag_num=0x28)
 53: 0x0DF8 [0x4A] Joachim (ID: 17784980/0x010F6094) looks at LocalPlayer
 54: 0x0E01 [0x52] END_LOAD_SCHEDULER: End scheduler "7513" with entities [LocalPlayer, LocalPlayer], work=489*
 55: 0x0E10 [0x45] LOAD_SCHEDULED_TASK: Load scheduler "7514" with entities [LocalPlayer, LocalPlayer], work=[489*, 0*]
 56: 0x0E21 [0x6F] WAIT_FRAME_DELAY: Yield until WaitTime reaches zero
 57: 0x0E22 [0x76] CHECK_ENTITY_RENDER_FLAGS: Wait until Joachim (ID: 17784980/0x010F6094) Render.Flags0 and Render.Flags3 conditions are met
 58: 0x0E27 [0x2B] Joachim (ID: 17784980/0x010F6094) [8550*]:
    → "Ye...ye understand how I feel, ye say?"
 59: 0x0E2E [0x1C] WAIT(180* ticks)
 60: 0x0E31 [0x23] WAIT_FOR_DIALOG_INTERACTION
 61: 0x0E32 [0x79] Joachim (ID: 17784980/0x010F6094) looks at Unnamed NPC (ID: 17784976/0x010F6090) (Basic look)
 62: 0x0E3C [0x1C] WAIT(60* ticks)
 63: 0x0E3F [0x2B] Joachim (ID: 17784980/0x010F6094) [8551*]:
    → "Ye truly are a kindhearted soul. It's a rare [man/woman] who possesses both strength an' compassion in abundance like ye."
 64: 0x0E46 [0x1C] WAIT(120* ticks)
 65: 0x0E49 [0x23] WAIT_FOR_DIALOG_INTERACTION
 66: 0x0E4A [0x52] END_LOAD_SCHEDULER: End scheduler "7514" with entities [LocalPlayer, LocalPlayer], work=489*
 67: 0x0E59 [0x45] LOAD_SCHEDULED_TASK: Load scheduler "7515" with entities [LocalPlayer, LocalPlayer], work=[489*, 0*]
 68: 0x0E6A [0x5D] SET_MUSIC_VOLUME(volume=0*, fade_time=120*)
 69: 0x0E6F [0x7B] Joachim (ID: 17784980/0x010F6094) stops talking
 70: 0x0E74 [0x1C] WAIT(60* ticks)
 71: 0x0E77 [0x2B] Joachim (ID: 17784980/0x010F6094) [8552*]:
    → "Please forgive me fer that unseemly display. The pressures of me world's plight can be overwhelmin' at times."
 72: 0x0E7E [0x1C] WAIT(120* ticks)
 73: 0x0E81 [0x23] WAIT_FOR_DIALOG_INTERACTION
 74: 0x0E82 [0x52] END_LOAD_SCHEDULER: End scheduler "7515" with entities [LocalPlayer, LocalPlayer], work=489*
 75: 0x0E91 [0x45] LOAD_SCHEDULED_TASK: Load scheduler "7516" with entities [LocalPlayer, LocalPlayer], work=[489*, 0*]
 76: 0x0EA2 [0x66] LOAD_EXT_SCHEDULER_MAIN: Load scheduler "twa0" with entities [Joachim (ID: 17784980/0x010F6094), Joachim (ID: 17784980/0x010F6094)], work=9*
 77: 0x0EB1 [0x2B] Joachim (ID: 17784980/0x010F6094) [8553*]:
    → "<Player>. I pray ye never cease t' be the ray of hope fer the folk of Abyssea."
 78: 0x0EB8 [0x23] WAIT_FOR_DIALOG_INTERACTION
 79: 0x0EB9 [0x66] LOAD_EXT_SCHEDULER_MAIN: Load scheduler "twa1" with entities [Joachim (ID: 17784980/0x010F6094), Joachim (ID: 17784980/0x010F6094)], work=9*
 80: 0x0EC8 [0x1A] CALL_SUBROUTINE(address=0x0F6F)
 81: 0x0ECB [0x1C] WAIT(30* ticks)
 82: 0x0ECE [0x52] END_LOAD_SCHEDULER: End scheduler "7516" with entities [LocalPlayer, LocalPlayer], work=489*
 83: 0x0EDD [0x45] LOAD_SCHEDULED_TASK: Load scheduler "0blf" with entities [LocalPlayer, LocalPlayer], work=[489*, 0*]
 84: 0x0EEE [0x5C] MUSIC_CONTROL: Set Idle (Day) music to song 110*
 85: 0x0EF2 [0x5C] MUSIC_CONTROL: Set Idle (Night) music to song 110*
 86: 0x0EF6 [0x9A] WAIT_MUSIC_SERVER()
 87: 0x0EF7 [0x46] CAMERA_CONTROL: Restore default settings
 88: 0x0EF9 [0x45] LOAD_SCHEDULED_TASK: Load scheduler "fdi2" with entities [LocalPlayer, LocalPlayer], work=[200*, 0*]
 89: 0x0F0A [0x21] END_EVENT
 90: 0x0F0B [0x00] END_REQSTACK()

SUBROUTINE_0F4E:
 91: 0x0F4E [0x45] LOAD_SCHEDULED_TASK: Load scheduler "fdi1" with entities [LocalPlayer, LocalPlayer], work=[200*, 0*]
 92: 0x0F5F [0x55] WAIT_LOAD_SCHEDULER: Wait for scheduler "fdi1" with entities [LocalPlayer, LocalPlayer], work=200*
 93: 0x0F6E [0x1B] RETURN

SUBROUTINE_0F6F:
 94: 0x0F6F [0x45] LOAD_SCHEDULED_TASK: Load scheduler "fdo1" with entities [LocalPlayer, LocalPlayer], work=[200*, 0*]
 95: 0x0F80 [0x55] WAIT_LOAD_SCHEDULER: Wait for scheduler "fdo1" with entities [LocalPlayer, LocalPlayer], work=200*
 96: 0x0F8F [0x1B] RETURN
```

#### Data or dead code:

```
# Dead code (unreachable instructions):
     0x0F0C [0x45] LOAD_SCHEDULED_TASK: Load scheduler "fdi0" with entities [LocalPlayer, LocalPlayer], work=[200*, 0*]
     0x0F1D [0x55] WAIT_LOAD_SCHEDULER: Wait for scheduler "fdi0" with entities [LocalPlayer, LocalPlayer], work=200*
     0x0F2C [0x1B] RETURN
     0x0F2D [0x45] LOAD_SCHEDULED_TASK: Load scheduler "fdo0" with entities [LocalPlayer, LocalPlayer], work=[200*, 0*]
     0x0F3E [0x55] WAIT_LOAD_SCHEDULER: Wait for scheduler "fdo0" with entities [LocalPlayer, LocalPlayer], work=200*
     0x0F4D [0x1B] RETURN
# Dead code (unreachable instructions):
     0x0F90 [0x45] LOAD_SCHEDULED_TASK: Load scheduler "whi1" with entities [LocalPlayer, LocalPlayer], work=[201*, 0*]
     0x0FA1 [0x55] WAIT_LOAD_SCHEDULER: Wait for scheduler "whi1" with entities [LocalPlayer, LocalPlayer], work=201*
     0x0FB0 [0x1B] RETURN
     0x0FB1 [0x45] LOAD_SCHEDULED_TASK: Load scheduler "who1" with entities [LocalPlayer, LocalPlayer], work=[201*, 0*]
     0x0FC2 [0x55] WAIT_LOAD_SCHEDULER: Wait for scheduler "who1" with entities [LocalPlayer, LocalPlayer], work=201*
     0x0FD1 [0x1B] RETURN
     0x0FD2 [0x45] LOAD_SCHEDULED_TASK: Load scheduler "who2" with entities [LocalPlayer, LocalPlayer], work=[201*, 0*]
     0x0FE3 [0x55] WAIT_LOAD_SCHEDULER: Wait for scheduler "who2" with entities [LocalPlayer, LocalPlayer], work=201*
     0x0FF2 [0x1B] RETURN
     0x0FF3 [0x45] LOAD_SCHEDULED_TASK: Load scheduler "who3" with entities [LocalPlayer, LocalPlayer], work=[201*, 0*]
     0x1004 [0x55] WAIT_LOAD_SCHEDULER: Wait for scheduler "who3" with entities [LocalPlayer, LocalPlayer], work=201*
     0x1013 [0x1B] RETURN
     0x1014 [0x62] LOAD_EVENT_SCHEDULER: Load scheduler "main" with entities [LocalPlayer, LocalPlayer], work=[1*, 0*]
     0x1025 [0x1C] WAIT(45* ticks)
     0x1028 [0x45] LOAD_SCHEDULED_TASK: Load scheduler "fdo1" with entities [LocalPlayer, LocalPlayer], work=[200*, 0*]
     0x1039 [0x55] WAIT_LOAD_SCHEDULER: Wait for scheduler "fdo1" with entities [LocalPlayer, LocalPlayer], work=200*
     0x1048 [0x1B] RETURN
     0x1049 [0x45] LOAD_SCHEDULED_TASK: Load scheduler "fdi1" with entities [LocalPlayer, LocalPlayer], work=[200*, 0*]
     0x105A [0x62] LOAD_EVENT_SCHEDULER: Load scheduler "main" with entities [LocalPlayer, LocalPlayer], work=[2*, 0*]
     0x106B [0x1C] WAIT(30* ticks)
     0x106E [0x55] WAIT_LOAD_SCHEDULER: Wait for scheduler "fdi1" with entities [LocalPlayer, LocalPlayer], work=200*
     0x107D [0x1B] RETURN
     0x107E [0x45] LOAD_SCHEDULED_TASK: Load scheduler "blon" with entities [LocalPlayer, LocalPlayer], work=[200*, 0*]
     0x108F [0x45] LOAD_SCHEDULED_TASK: Load scheduler "blon" with entities [LocalPlayer, LocalPlayer], work=[201*, 0*]
     0x10A0 [0x1B] RETURN
     0x10A1 [0x45] LOAD_SCHEDULED_TASK: Load scheduler "whi0" with entities [LocalPlayer, LocalPlayer], work=[201*, 0*]
     0x10B2 [0x55] WAIT_LOAD_SCHEDULER: Wait for scheduler "whi0" with entities [LocalPlayer, LocalPlayer], work=201*
     0x10C1 [0x1B] RETURN
     0x10C2 [0x45] LOAD_SCHEDULED_TASK: Load scheduler "who0" with entities [LocalPlayer, LocalPlayer], work=[201*, 0*]
     0x10D3 [0x55] WAIT_LOAD_SCHEDULER: Wait for scheduler "who0" with entities [LocalPlayer, LocalPlayer], work=201*
     0x10E2 [0x1B] RETURN
     0x10E3 [0x45] LOAD_SCHEDULED_TASK: Load scheduler "efon" with entities [LocalPlayer, LocalPlayer], work=[215*, 0*]
     0x10F4 [0x55] WAIT_LOAD_SCHEDULER: Wait for scheduler "efon" with entities [LocalPlayer, LocalPlayer], work=215*
     0x1103 [0x1B] RETURN
     0x1104 [0x45] LOAD_SCHEDULED_TASK: Load scheduler "fdis" with entities [LocalPlayer, LocalPlayer], work=[200*, 0*]
     0x1115 [0x1B] RETURN
     0x1116 [0x45] LOAD_SCHEDULED_TASK: Load scheduler "fdos" with entities [LocalPlayer, LocalPlayer], work=[200*, 0*]
     0x1127 [0x55] WAIT_LOAD_SCHEDULER: Wait for scheduler "fdos" with entities [LocalPlayer, LocalPlayer], work=200*
     0x1136 [0x1B] RETURN
     0x1137 [0x45] LOAD_SCHEDULED_TASK: Load scheduler "fdif" with entities [LocalPlayer, LocalPlayer], work=[200*, 0*]
     0x1148 [0x1B] RETURN
     0x1149 [0x45] LOAD_SCHEDULED_TASK: Load scheduler "fdof" with entities [LocalPlayer, LocalPlayer], work=[200*, 0*]
     0x115A [0x55] WAIT_LOAD_SCHEDULER: Wait for scheduler "fdof" with entities [LocalPlayer, LocalPlayer], work=200*
     0x1169 [0x1B] RETURN
     0x116A [0x45] LOAD_SCHEDULED_TASK: Load scheduler "fdip" with entities [LocalPlayer, LocalPlayer], work=[200*, 0*]
     0x117B [0x1B] RETURN
     0x117C [0x45] LOAD_SCHEDULED_TASK: Load scheduler "fdop" with entities [LocalPlayer, LocalPlayer], work=[200*, 0*]
     0x118D [0x55] WAIT_LOAD_SCHEDULER: Wait for scheduler "fdop" with entities [LocalPlayer, LocalPlayer], work=200*
     0x119C [0x1B] RETURN
```
